{
  "hash": "003af4f916d5f2d5943839b8c08969be7bbf76d52a2ee1de20f5afd6f690ffbc",
  "confirmations": 3526,
  "strippedsize": 234,
  "size": 234,
  "weight": 936,
  "height": 1357469,
  "version": 536870912,
  "versionHex": "20000000",
  "merkleroot": "7e76b9fd96f54f8f25d4d9a7354f09ac1cc5f7ded56439aada2bea659efa5d63",
  "tx": [
    {
      "txid": "7e76b9fd96f54f8f25d4d9a7354f09ac1cc5f7ded56439aada2bea659efa5d63",
      "hash": "7e76b9fd96f54f8f25d4d9a7354f09ac1cc5f7ded56439aada2bea659efa5d63",
      "version": 1,
      "size": 153,
      "vsize": 153,
      "locktime": 0,
      "vin": [
        {
          "coinbase": "039db614045a6bafcb2cfabe6d6dc5c98ddab93fa1ee2ba3f2cbdbe6177198d671a51e963d97238db03416ad52fa4000000000000000042f4c502f085c00708c0b000000",
          "sequence": 4294967295
        }
      ],
      "vout": [
        {
          "value": 25.00000000,
          "n": 0,
          "scriptPubKey": {
            "asm": "OP_DUP OP_HASH160 57757ed2ecf2052ff3126c397aca7defb9ca2cec OP_EQUALVERIFY OP_CHECKSIG",
            "hex": "76a91457757ed2ecf2052ff3126c397aca7defb9ca2cec88ac",
            "reqSigs": 1,
            "type": "pubkeyhash",
            "addresses": [
              "LTCPodGk5FwcJaRzH9yKnwicxzFUbxp6tN"
            ]
          }
        }
      ],
      "hex": "01000000010000000000000000000000000000000000000000000000000000000000000000ffffffff44039db614045a6bafcb2cfabe6d6dc5c98ddab93fa1ee2ba3f2cbdbe6177198d671a51e963d97238db03416ad52fa4000000000000000042f4c502f085c00708c0b000000ffffffff0100f90295000000001976a91457757ed2ecf2052ff3126c397aca7defb9ca2cec88ac00000000"
    }
  ],
  "time": 1517006795,
  "mediantime": 1517006064,
  "nonce": 1123358136,
  "bits": "1a047f14",
  "difficulty": 3731199.183374282,
  "chainwork": "000000000000000000000000000000000000000000000032406a0ea37e68270c",
  "previousblockhash": "b6fd8a9fada32b881ad9f1be6d6ff3152157d04bf188f0954175c2b5dcbf71e9",
  "nextblockhash": "71d97edaf0f043900944b952130701a4e3648ab2ae41ffc4542e0a759521358b"
}
