{
  "hash": "00c539e6a49f5c7c7f5cd948d10b7e938ac5f36d954452c35ac641dd0185b625",
  "confirmations": 240,
  "strippedsize": 313,
  "size": 349,
  "weight": 1288,
  "height": 1360754,
  "version": 536870912,
  "versionHex": "20000000",
  "merkleroot": "9efa0a6450d8e589ccd2c1cea5be5108f9bb8ef5e50720316df44590604c361e",
  "tx": [
    {
      "txid": "9efa0a6450d8e589ccd2c1cea5be5108f9bb8ef5e50720316df44590604c361e",
      "hash": "b7eadf1dadaebcf5d5b68ef7e11f886c9e345bc2c62912a815275986d1dff1a6",
      "version": 1,
      "size": 268,
      "vsize": 241,
      "locktime": 0,
      "vin": [
        {
          "coinbase": "0372c3145a282dfb0979d6372fde54c22b993d3fad4ae86b885e5a57beca53f096a9e1a47e562c0105010000000000000000010000005c2a8c00e8029ebb2f425443432f2000000000000000000000000000000000000000000000000000000000000000",
          "sequence": 0
        }
      ],
      "vout": [
        {
          "value": 25.00000000,
          "n": 0,
          "scriptPubKey": {
            "asm": "OP_DUP OP_HASH160 088b3b2a325c12f47e60b87f7bdd7f280e144e03 OP_EQUALVERIFY OP_CHECKSIG",
            "hex": "76a914088b3b2a325c12f47e60b87f7bdd7f280e144e0388ac",
            "reqSigs": 1,
            "type": "pubkeyhash",
            "addresses": [
              "LL18ThG68KnAnBk6yaoJWgEU7UqLg7eMw3"
            ]
          }
        }, 
        {
          "value": 0.00000000,
          "n": 1,
          "scriptPubKey": {
            "asm": "OP_RETURN aa21a9ede2f61c3f71d1defd3fa999dfa36953755c690689799962b48bebd836974e8cf9",
            "hex": "6a24aa21a9ede2f61c3f71d1defd3fa999dfa36953755c690689799962b48bebd836974e8cf9",
            "type": "nulldata"
          }
        }
      ],
      "hex": "010000000001010000000000000000000000000000000000000000000000000000000000000000ffffffff640372c3145a282dfb0979d6372fde54c22b993d3fad4ae86b885e5a57beca53f096a9e1a47e562c0105010000000000000000010000005c2a8c00e8029ebb2f425443432f2000000000000000000000000000000000000000000000000000000000000000000000000200f90295000000001976a914088b3b2a325c12f47e60b87f7bdd7f280e144e0388ac0000000000000000266a24aa21a9ede2f61c3f71d1defd3fa999dfa36953755c690689799962b48bebd836974e8cf90120000000000000000000000000000000000000000000000000000000000000000000000000"
    }
  ],
  "time": 1517476984,
  "mediantime": 1517476593,
  "nonce": 2910672391,
  "bits": "1a042eae",
  "difficulty": 4011378.762614286,
  "chainwork": "0000000000000000000000000000000000000000000000353bea4687c756b866",
  "previousblockhash": "942d0fc4025705f66ef0804f8fa46f1b9a2065df89e165f14e95ddb79330904a",
  "nextblockhash": "ee2a0d1afd264cf459ab0bd585dbf0fe3627b114c817dc6de442d465400754ee"
}
