{
  "hash": "00fb4263833993fe0ed5125f54bd52af08e66b8f4e44181b3c065f483275c7fe",
  "confirmations": 2759,
  "strippedsize": 255,
  "size": 255,
  "weight": 1020,
  "height": 1358236,
  "version": 536870912,
  "versionHex": "20000000",
  "merkleroot": "d5213906f8eaaec8099b95e11a3931a9ec898f9362c8c8664218a782c0e8b4d0",
  "tx": [
    {
      "txid": "d5213906f8eaaec8099b95e11a3931a9ec898f9362c8c8664218a782c0e8b4d0",
      "hash": "d5213906f8eaaec8099b95e11a3931a9ec898f9362c8c8664218a782c0e8b4d0",
      "version": 1,
      "size": 174,
      "vsize": 174,
      "locktime": 0,
      "vin": [
        {
          "coinbase": "039cb9141c4d696e656420627920416e74506f6f6c20626a331f205a6d49010853fabe6d6d6989a970f2677aaad740b3ef0c1bb217cb6a3541cef153d75ad2f8e58379cd450400000000000000c1180000000000001c000000",
          "sequence": 4294967295
        }
      ],
      "vout": [
        {
          "value": 25.00000000,
          "n": 0,
          "scriptPubKey": {
            "asm": "OP_DUP OP_HASH160 0ff3ccc5e8be88afe24b5d634e5852d474dbdff1 OP_EQUALVERIFY OP_CHECKSIG",
            "hex": "76a9140ff3ccc5e8be88afe24b5d634e5852d474dbdff188ac",
            "reqSigs": 1,
            "type": "pubkeyhash",
            "addresses": [
              "LLgJTbzZMsRTCUF1NtvvL9SR1a4pVieW89"
            ]
          }
        }
      ],
      "hex": "01000000010000000000000000000000000000000000000000000000000000000000000000ffffffff59039cb9141c4d696e656420627920416e74506f6f6c20626a331f205a6d49010853fabe6d6d6989a970f2677aaad740b3ef0c1bb217cb6a3541cef153d75ad2f8e58379cd450400000000000000c1180000000000001c000000ffffffff0100f90295000000001976a9140ff3ccc5e8be88afe24b5d634e5852d474dbdff188ac00000000"
    }
  ],
  "time": 1517111553,
  "mediantime": 1517110680,
  "nonce": 2902066695,
  "bits": "1a047f14",
  "difficulty": 3731199.183374282,
  "chainwork": "000000000000000000000000000000000000000000000032eafec7c5dd72b8f2",
  "previousblockhash": "8588eaa9216be013ea27e2967852e9b66daeebcbcee67e2b2769b3cb74ab278d",
  "nextblockhash": "a76167f73eacc7114818c1f48b4610f0df7a4d53b4f8e013fa86111853ea7ab2"
}
