{
  "hash": "014164ad22e3137601aa6923fad2e7c0b5e9e09b7ce0ce6c881caf4a014e4f11",
  "confirmations": 1926,
  "strippedsize": 2117,
  "size": 2153,
  "weight": 8504,
  "height": 1359068,
  "version": 536870912,
  "versionHex": "20000000",
  "merkleroot": "72b77bd0e056b6b6f3ec0c868cbea2ea7fa934eef46c97417590d80865145b56",
  "tx": [
    {
      "txid": "5f06f06bbb4c03e60de0cdb94eeeb691221ac93269bd274483bfd7b592cda429",
      "hash": "3575af5a2985ac029b99778658d1a616dbfa84f7ff912dd465db0a5e7ce87a65",
      "version": 1,
      "size": 243,
      "vsize": 216,
      "locktime": 0,
      "vin": [
        {
          "coinbase": "03dcbc14044a206f5afabe6d6dd7a4e2fe0a9e866c4b1dcad837db65c195c9dc9844f8dc46556a09bb7de1ef3d10000000000000000850231248550000000c2f3631384154434e5433592f",
          "sequence": 0
        }
      ],
      "vout": [
        {
          "value": 25.00205000,
          "n": 0,
          "scriptPubKey": {
            "asm": "OP_DUP OP_HASH160 81308472f5a29a68cec40cbb4cd3f4be72094456 OP_EQUALVERIFY OP_CHECKSIG",
            "hex": "76a91481308472f5a29a68cec40cbb4cd3f4be7209445688ac",
            "reqSigs": 1,
            "type": "pubkeyhash",
            "addresses": [
              "LX13Z1HZKVzRDabi8CsPdGhp7YbC7Q8qtn"
            ]
          }
        }, 
        {
          "value": 0.00000000,
          "n": 1,
          "scriptPubKey": {
            "asm": "OP_RETURN aa21a9ed6e87a185d307ffb229c56d7d22fa6b065fe5eaa8ccf23047a85819a1f941ffa4",
            "hex": "6a24aa21a9ed6e87a185d307ffb229c56d7d22fa6b065fe5eaa8ccf23047a85819a1f941ffa4",
            "type": "nulldata"
          }
        }
      ],
      "hex": "010000000001010000000000000000000000000000000000000000000000000000000000000000ffffffff4b03dcbc14044a206f5afabe6d6dd7a4e2fe0a9e866c4b1dcad837db65c195c9dc9844f8dc46556a09bb7de1ef3d10000000000000000850231248550000000c2f3631384154434e5433592f0000000002c8190695000000001976a91481308472f5a29a68cec40cbb4cd3f4be7209445688ac0000000000000000266a24aa21a9ed6e87a185d307ffb229c56d7d22fa6b065fe5eaa8ccf23047a85819a1f941ffa40120000000000000000000000000000000000000000000000000000000000000000000000000"
    }, 
    {
      "txid": "430c6b03ad261bbbc6e850528f37f1842eaf990895f38278cb65a68881b87505",
      "hash": "430c6b03ad261bbbc6e850528f37f1842eaf990895f38278cb65a68881b87505",
      "version": 1,
      "size": 782,
      "vsize": 782,
      "locktime": 0,
      "vin": [
        {
          "txid": "bbbc58e4a431d2399aed02cca3daa7e376481a8d6371ec3c50d1edd616a66600",
          "vout": 1,
          "scriptSig": {
            "asm": "3044022076fa5b86786284c4ea9a0722e8c8a07c763ef3714bb9ec1ca5d1bc6e847968df0220548e7d99f267a2f02250b01eb788ed8583e9887ca790cb3c70a0796cc5917173[ALL] 025d37ce0353b42e2c94ed642799453bb3eebb49585945d47cb28c374a525bc8a0",
            "hex": "473044022076fa5b86786284c4ea9a0722e8c8a07c763ef3714bb9ec1ca5d1bc6e847968df0220548e7d99f267a2f02250b01eb788ed8583e9887ca790cb3c70a0796cc59171730121025d37ce0353b42e2c94ed642799453bb3eebb49585945d47cb28c374a525bc8a0"
          },
          "sequence": 4294967295
        }, 
        {
          "txid": "03162028600b19f1b2e5eb47d87d9f602ea8347252d3ef099927342ca477c020",
          "vout": 0,
          "scriptSig": {
            "asm": "304502210097e033278a76ae9d5ba27e163c1be01743551f7116e91eab9d3c4f6accc632c10220621fa4935d13cd74ad06771adc49a485dddbcf5df412bdf7b0934413ceb9d7c0[ALL] 021f98d0c1b7846e5786e756b502322a1bf2ca0244236bf9a45b032092507af060",
            "hex": "48304502210097e033278a76ae9d5ba27e163c1be01743551f7116e91eab9d3c4f6accc632c10220621fa4935d13cd74ad06771adc49a485dddbcf5df412bdf7b0934413ceb9d7c00121021f98d0c1b7846e5786e756b502322a1bf2ca0244236bf9a45b032092507af060"
          },
          "sequence": 4294967295
        }, 
        {
          "txid": "8d5686278e8b49b1e483a9d48e3e3e2969b24c213aafd71242de487bc14b6cbe",
          "vout": 1,
          "scriptSig": {
            "asm": "3045022100e91c0fbfeaa8517e2de5b11791783bb18145b0a690d223406f52db631be62e7b02206ff3fa1c19946c4dc52034654da3fbe7d46d89eb61c3b49bb04c242ea2364c73[ALL] 021f98d0c1b7846e5786e756b502322a1bf2ca0244236bf9a45b032092507af060",
            "hex": "483045022100e91c0fbfeaa8517e2de5b11791783bb18145b0a690d223406f52db631be62e7b02206ff3fa1c19946c4dc52034654da3fbe7d46d89eb61c3b49bb04c242ea2364c730121021f98d0c1b7846e5786e756b502322a1bf2ca0244236bf9a45b032092507af060"
          },
          "sequence": 4294967295
        }, 
        {
          "txid": "ee1e6809758e762c29751fd86c7c9275b35c160c9d68fde92142281110b4c4a4",
          "vout": 19,
          "scriptSig": {
            "asm": "3045022100c38a7880e51847839b2d2ad1a7cc28a9a1387f8aeccd34b7855c1e36c2345ef102201906608580432fa9cd292da91ef4bb8f15389f81f638c5687388e400e2c51c02[ALL] 03f76e767c249408ccb8a49d9f53a08087276d3d5a8135d74fc8551fa9c40aec2a",
            "hex": "483045022100c38a7880e51847839b2d2ad1a7cc28a9a1387f8aeccd34b7855c1e36c2345ef102201906608580432fa9cd292da91ef4bb8f15389f81f638c5687388e400e2c51c02012103f76e767c249408ccb8a49d9f53a08087276d3d5a8135d74fc8551fa9c40aec2a"
          },
          "sequence": 4294967295
        }, 
        {
          "txid": "ee1e6809758e762c29751fd86c7c9275b35c160c9d68fde92142281110b4c4a4",
          "vout": 12,
          "scriptSig": {
            "asm": "304402203fac8ec8745d6ce587d2f2e9d195542385853140cfde9ed0291bba116fffff47022009b9aa745d090793a867d921297bc1f2b9c5ce006a0ca32341d2c34ac9f6c1db[ALL] 023f0c15b381d164fda09c099a5ff1516da6445f9ecab2424b34b1238fdd374f9c",
            "hex": "47304402203fac8ec8745d6ce587d2f2e9d195542385853140cfde9ed0291bba116fffff47022009b9aa745d090793a867d921297bc1f2b9c5ce006a0ca32341d2c34ac9f6c1db0121023f0c15b381d164fda09c099a5ff1516da6445f9ecab2424b34b1238fdd374f9c"
          },
          "sequence": 4294967295
        }
      ],
      "vout": [
        {
          "value": 1006.67670606,
          "n": 0,
          "scriptPubKey": {
            "asm": "OP_DUP OP_HASH160 6c2614c7b45ef8dfa8dc83e6739ddbe201d05ab0 OP_EQUALVERIFY OP_CHECKSIG",
            "hex": "76a9146c2614c7b45ef8dfa8dc83e6739ddbe201d05ab088ac",
            "reqSigs": 1,
            "type": "pubkeyhash",
            "addresses": [
              "LV5nrreyVZJVvptA9PZSD4ViegKh7Qa8MA"
            ]
          }
        }
      ],
      "hex": "01000000050066a616d6edd1503cec71638d1a4876e3a7daa3cc02ed9a39d231a4e458bcbb010000006a473044022076fa5b86786284c4ea9a0722e8c8a07c763ef3714bb9ec1ca5d1bc6e847968df0220548e7d99f267a2f02250b01eb788ed8583e9887ca790cb3c70a0796cc59171730121025d37ce0353b42e2c94ed642799453bb3eebb49585945d47cb28c374a525bc8a0ffffffff20c077a42c34279909efd3527234a82e609f7dd847ebe5b2f1190b6028201603000000006b48304502210097e033278a76ae9d5ba27e163c1be01743551f7116e91eab9d3c4f6accc632c10220621fa4935d13cd74ad06771adc49a485dddbcf5df412bdf7b0934413ceb9d7c00121021f98d0c1b7846e5786e756b502322a1bf2ca0244236bf9a45b032092507af060ffffffffbe6c4bc17b48de4212d7af3a214cb269293e3e8ed4a983e4b1498b8e2786568d010000006b483045022100e91c0fbfeaa8517e2de5b11791783bb18145b0a690d223406f52db631be62e7b02206ff3fa1c19946c4dc52034654da3fbe7d46d89eb61c3b49bb04c242ea2364c730121021f98d0c1b7846e5786e756b502322a1bf2ca0244236bf9a45b032092507af060ffffffffa4c4b41011284221e9fd689d0c165cb375927c6cd81f75292c768e7509681eee130000006b483045022100c38a7880e51847839b2d2ad1a7cc28a9a1387f8aeccd34b7855c1e36c2345ef102201906608580432fa9cd292da91ef4bb8f15389f81f638c5687388e400e2c51c02012103f76e767c249408ccb8a49d9f53a08087276d3d5a8135d74fc8551fa9c40aec2affffffffa4c4b41011284221e9fd689d0c165cb375927c6cd81f75292c768e7509681eee0c0000006a47304402203fac8ec8745d6ce587d2f2e9d195542385853140cfde9ed0291bba116fffff47022009b9aa745d090793a867d921297bc1f2b9c5ce006a0ca32341d2c34ac9f6c1db0121023f0c15b381d164fda09c099a5ff1516da6445f9ecab2424b34b1238fdd374f9cffffffff014ec04270170000001976a9146c2614c7b45ef8dfa8dc83e6739ddbe201d05ab088ac00000000"
    }, 
    {
      "txid": "85a6967235a990bab07fb047d978cc2520e4d1306c1b0a3aa8748f3826d7e538",
      "hash": "85a6967235a990bab07fb047d978cc2520e4d1306c1b0a3aa8748f3826d7e538",
      "version": 2,
      "size": 372,
      "vsize": 372,
      "locktime": 1359066,
      "vin": [
        {
          "txid": "c352ceeb40f0a226dc7f6cf15b6c611ef13591381db28ebccc60ecab523d9fdd",
          "vout": 46,
          "scriptSig": {
            "asm": "304402207aa2cbb824b0645aada6cdbab24bbd9a38772bb09cd16821102b0e90845e55b602205c5693123a6b736f10a7f56db14003f7343d2290c12aeca000a52d923075e35d[ALL] 0394eebbdeff41f06c315d08d3694708f658c361103c4aae822a3d7b72d90bf1fb",
            "hex": "47304402207aa2cbb824b0645aada6cdbab24bbd9a38772bb09cd16821102b0e90845e55b602205c5693123a6b736f10a7f56db14003f7343d2290c12aeca000a52d923075e35d01210394eebbdeff41f06c315d08d3694708f658c361103c4aae822a3d7b72d90bf1fb"
          },
          "sequence": 4294967294
        }, 
        {
          "txid": "3d534345228bca9c702e84b15e7742ae182b238922221cdd1dd20bafae0bc189",
          "vout": 1,
          "scriptSig": {
            "asm": "304402204d855b4d0d28ca645c83f556f3c452c93538aa12924e698104a87794b68a318b022008db2ef55a881c3c2c781e24e39fe5f2b8cdbaaf15ed92307fc34b222bb84a0c[ALL] 02f568e436c6f6c919050dfceb23c6867a2b2a03d8cb0774d94b46a6e1378e1091",
            "hex": "47304402204d855b4d0d28ca645c83f556f3c452c93538aa12924e698104a87794b68a318b022008db2ef55a881c3c2c781e24e39fe5f2b8cdbaaf15ed92307fc34b222bb84a0c012102f568e436c6f6c919050dfceb23c6867a2b2a03d8cb0774d94b46a6e1378e1091"
          },
          "sequence": 4294967294
        }
      ],
      "vout": [
        {
          "value": 1.92818529,
          "n": 0,
          "scriptPubKey": {
            "asm": "OP_DUP OP_HASH160 3543e313614d3f22444f391162d1e0afef6468af OP_EQUALVERIFY OP_CHECKSIG",
            "hex": "76a9143543e313614d3f22444f391162d1e0afef6468af88ac",
            "reqSigs": 1,
            "type": "pubkeyhash",
            "addresses": [
              "LQ5bQFbc6VADmLvpqsc1x6PjhAF3zHb627"
            ]
          }
        }, 
        {
          "value": 0.02786799,
          "n": 1,
          "scriptPubKey": {
            "asm": "OP_DUP OP_HASH160 51fc384daf6bf243988a0b9e8286dea2c607c4fc OP_EQUALVERIFY OP_CHECKSIG",
            "hex": "76a91451fc384daf6bf243988a0b9e8286dea2c607c4fc88ac",
            "reqSigs": 1,
            "type": "pubkeyhash",
            "addresses": [
              "LShT9JL9rBVvxoaKz2RngaYZzJpcpQDceF"
            ]
          }
        }
      ],
      "hex": "0200000002dd9f3d52abec60ccbc8eb21d389135f11e616c5bf16c7fdc26a2f040ebce52c32e0000006a47304402207aa2cbb824b0645aada6cdbab24bbd9a38772bb09cd16821102b0e90845e55b602205c5693123a6b736f10a7f56db14003f7343d2290c12aeca000a52d923075e35d01210394eebbdeff41f06c315d08d3694708f658c361103c4aae822a3d7b72d90bf1fbfeffffff89c10baeaf0bd21ddd1c222289232b18ae42775eb1842e709cca8b224543533d010000006a47304402204d855b4d0d28ca645c83f556f3c452c93538aa12924e698104a87794b68a318b022008db2ef55a881c3c2c781e24e39fe5f2b8cdbaaf15ed92307fc34b222bb84a0c012102f568e436c6f6c919050dfceb23c6867a2b2a03d8cb0774d94b46a6e1378e1091feffffff02612d7e0b000000001976a9143543e313614d3f22444f391162d1e0afef6468af88acef852a00000000001976a91451fc384daf6bf243988a0b9e8286dea2c607c4fc88acdabc1400"
    }, 
    {
      "txid": "ed689b2ff13135e1c34c2ec9fe601905518b7b0b59fa481767003db2efdebe82",
      "hash": "ed689b2ff13135e1c34c2ec9fe601905518b7b0b59fa481767003db2efdebe82",
      "version": 2,
      "size": 225,
      "vsize": 225,
      "locktime": 1359066,
      "vin": [
        {
          "txid": "de30662b9533fdfe4d74eaee08d1b198e7b1bc34f77310b3247f237d4e2fc7f6",
          "vout": 0,
          "scriptSig": {
            "asm": "3044022003981d5630727017be90fbb907029c79fa9649150ea29e880f0b680c7cdace9f02200d44a56b4c97eaf9bd5a67274eab46eecc575e512497e48d16dc939a00773686[ALL] 02214af40e15a26c9c2f4cbffb25a26fec1b255f0672274b2fbac274c40ce8e2c3",
            "hex": "473044022003981d5630727017be90fbb907029c79fa9649150ea29e880f0b680c7cdace9f02200d44a56b4c97eaf9bd5a67274eab46eecc575e512497e48d16dc939a00773686012102214af40e15a26c9c2f4cbffb25a26fec1b255f0672274b2fbac274c40ce8e2c3"
          },
          "sequence": 4294967294
        }
      ],
      "vout": [
        {
          "value": 3.96360000,
          "n": 0,
          "scriptPubKey": {
            "asm": "OP_DUP OP_HASH160 e6ee281461418c6aef22df613364e0dae3bea869 OP_EQUALVERIFY OP_CHECKSIG",
            "hex": "76a914e6ee281461418c6aef22df613364e0dae3bea86988ac",
            "reqSigs": 1,
            "type": "pubkeyhash",
            "addresses": [
              "LgGzyjzDGeUnDcfNVreZc1rbGyZAXBJzE6"
            ]
          }
        }, 
        {
          "value": 140.24057420,
          "n": 1,
          "scriptPubKey": {
            "asm": "OP_DUP OP_HASH160 2253ca5c6ddc7a53c354ff794d017e06dc305bcc OP_EQUALVERIFY OP_CHECKSIG",
            "hex": "76a9142253ca5c6ddc7a53c354ff794d017e06dc305bcc88ac",
            "reqSigs": 1,
            "type": "pubkeyhash",
            "addresses": [
              "LNMTcbiX67prjBEwezDfAPwWFP8oARbaVk"
            ]
          }
        }
      ],
      "hex": "0200000001f6c72f4e7d237f24b31073f734bcb1e798b1d108eeea744dfefd33952b6630de000000006a473044022003981d5630727017be90fbb907029c79fa9649150ea29e880f0b680c7cdace9f02200d44a56b4c97eaf9bd5a67274eab46eecc575e512497e48d16dc939a00773686012102214af40e15a26c9c2f4cbffb25a26fec1b255f0672274b2fbac274c40ce8e2c3feffffff0240f99f17000000001976a914e6ee281461418c6aef22df613364e0dae3bea86988ac4c22e643030000001976a9142253ca5c6ddc7a53c354ff794d017e06dc305bcc88acdabc1400"
    }, 
    {
      "txid": "d472453113422b4efb1477600f7b5f9ac7d66f30acbbfdd3fa8adf72419c7928",
      "hash": "d472453113422b4efb1477600f7b5f9ac7d66f30acbbfdd3fa8adf72419c7928",
      "version": 1,
      "size": 226,
      "vsize": 226,
      "locktime": 0,
      "vin": [
        {
          "txid": "373267342e6372ef3474cf762037defa49fd6637861a9b68d8234b110f236829",
          "vout": 0,
          "scriptSig": {
            "asm": "3045022100c33857f7ad35ae9f13577ea6de996139d3e1e92f370f7fbfc252035c52ddece102207c8d5f2c4bb30dcdcd9d09878572cf89a3c0da95c5e2c174a2adbaa7e8f12d46[ALL] 02dadb923042490202d97d5db6a8086fb7080262e8e15d4def644c071af79e04cf",
            "hex": "483045022100c33857f7ad35ae9f13577ea6de996139d3e1e92f370f7fbfc252035c52ddece102207c8d5f2c4bb30dcdcd9d09878572cf89a3c0da95c5e2c174a2adbaa7e8f12d46012102dadb923042490202d97d5db6a8086fb7080262e8e15d4def644c071af79e04cf"
          },
          "sequence": 4294967295
        }
      ],
      "vout": [
        {
          "value": 0.20757095,
          "n": 0,
          "scriptPubKey": {
            "asm": "OP_DUP OP_HASH160 01546d81be8ae3ec6e876d51503a03458f815b4b OP_EQUALVERIFY OP_CHECKSIG",
            "hex": "76a91401546d81be8ae3ec6e876d51503a03458f815b4b88ac",
            "reqSigs": 1,
            "type": "pubkeyhash",
            "addresses": [
              "LKLz5YmU2nYb8wt87FVt2Fazah3pwS2cDk"
            ]
          }
        }, 
        {
          "value": 0.34541550,
          "n": 1,
          "scriptPubKey": {
            "asm": "OP_DUP OP_HASH160 d565e818cad0fb55572a3830e7c68bad0fc0dfbb OP_EQUALVERIFY OP_CHECKSIG",
            "hex": "76a914d565e818cad0fb55572a3830e7c68bad0fc0dfbb88ac",
            "reqSigs": 1,
            "type": "pubkeyhash",
            "addresses": [
              "LegJGfneTafc3rRbtbHhXZ5hb2n3xuXoC4"
            ]
          }
        }
      ],
      "hex": "01000000012968230f114b23d8689b1a863766fd49fade372076cf7434ef72632e34673237000000006b483045022100c33857f7ad35ae9f13577ea6de996139d3e1e92f370f7fbfc252035c52ddece102207c8d5f2c4bb30dcdcd9d09878572cf89a3c0da95c5e2c174a2adbaa7e8f12d46012102dadb923042490202d97d5db6a8086fb7080262e8e15d4def644c071af79e04cfffffffff0267ba3c01000000001976a91401546d81be8ae3ec6e876d51503a03458f815b4b88acee0f0f02000000001976a914d565e818cad0fb55572a3830e7c68bad0fc0dfbb88ac00000000"
    }, 
    {
      "txid": "93b4c969a2d84f074b4ac5766f9cdd6b143b813a8d219e42f4130613f61a8f49",
      "hash": "93b4c969a2d84f074b4ac5766f9cdd6b143b813a8d219e42f4130613f61a8f49",
      "version": 2,
      "size": 224,
      "vsize": 224,
      "locktime": 1359066,
      "vin": [
        {
          "txid": "191e556fdb94b3f4bebd763a68dd1f6821637a1b0b999ffda258797feec54393",
          "vout": 0,
          "scriptSig": {
            "asm": "3045022100d25b306f2773703a3d3d2af54400b7060a8a1783f0182a4d24559eaf3697bfb80220209d1d822a2be8f43ed958a2150183b6ea361d58ed5502f4e334b69021da7902[ALL] 034b44c542e2b2959608f2e00cf7a20bc8d6bf9f2e9b87727c692f7e8b7ea8f11e",
            "hex": "483045022100d25b306f2773703a3d3d2af54400b7060a8a1783f0182a4d24559eaf3697bfb80220209d1d822a2be8f43ed958a2150183b6ea361d58ed5502f4e334b69021da79020121034b44c542e2b2959608f2e00cf7a20bc8d6bf9f2e9b87727c692f7e8b7ea8f11e"
          },
          "sequence": 4294967294
        }
      ],
      "vout": [
        {
          "value": 39.95838265,
          "n": 0,
          "scriptPubKey": {
            "asm": "OP_DUP OP_HASH160 43be8ed7632928d1ecf2534213e330844e1bf59d OP_EQUALVERIFY OP_CHECKSIG",
            "hex": "76a91443be8ed7632928d1ecf2534213e330844e1bf59d88ac",
            "reqSigs": 1,
            "type": "pubkeyhash",
            "addresses": [
              "LRQ9pGNRKWwPZ7Vzn1Sr6dU7rxNjV2sTNn"
            ]
          }
        }, 
        {
          "value": 0.36129884,
          "n": 1,
          "scriptPubKey": {
            "asm": "OP_HASH160 166c2649b7bad5c0f345800e99a895fa9ac78878 OP_EQUAL",
            "hex": "a914166c2649b7bad5c0f345800e99a895fa9ac7887887",
            "reqSigs": 1,
            "type": "scripthash",
            "addresses": [
              "M9wif1kdArTUzc5VgzyEwmjHYLhV6EWnV8"
            ]
          }
        }
      ],
      "hex": "02000000019343c5ee7f7958a2fd9f990b1b7a6321681fdd683a76bdbef4b394db6f551e19000000006b483045022100d25b306f2773703a3d3d2af54400b7060a8a1783f0182a4d24559eaf3697bfb80220209d1d822a2be8f43ed958a2150183b6ea361d58ed5502f4e334b69021da79020121034b44c542e2b2959608f2e00cf7a20bc8d6bf9f2e9b87727c692f7e8b7ea8f11efeffffff0239a72bee000000001976a91443be8ed7632928d1ecf2534213e330844e1bf59d88ac5c4c27020000000017a914166c2649b7bad5c0f345800e99a895fa9ac7887887dabc1400"
    }
  ],
  "time": 1517231735,
  "mediantime": 1517231403,
  "nonce": 921729849,
  "bits": "1a042eae",
  "difficulty": 4011378.762614286,
  "chainwork": "000000000000000000000000000000000000000000000033a8cab1966dde5a3a",
  "previousblockhash": "b9f95e04775b1fc7b910313f8a4aae0467b78ac50b6d48312ab724f4384d0250",
  "nextblockhash": "15b1c540ffe0ad4731ed520d89bf5a50e4943c1a302e2c292be9ad975dde4eaa"
}
