{
  "hash": "015e17729f64eb51214dd6f1ee8dc6143e58686a4b4e9ac0bf1af9fe03509ecd",
  "confirmations": 3514,
  "strippedsize": 4450,
  "size": 4486,
  "weight": 17836,
  "height": 1357481,
  "version": 536870912,
  "versionHex": "20000000",
  "merkleroot": "a35cf7bdfa0c1f3c48c893cb3332add752244f7ff5c6c43c619060c22ef85dd5",
  "tx": [
    {
      "txid": "f87ff321d2061957cea3aed8345942de475ad77dfe5b743bf5297d25896d5a24",
      "hash": "412e3d0f141ba5a38f525a84db0f1f38599248d845b8e889ef095336cd78542b",
      "version": 1,
      "size": 277,
      "vsize": 250,
      "locktime": 957912740,
      "vin": [
        {
          "coinbase": "03a9b6142cfabe6d6d1c8f59f81d6e052751bc759dd62ebbfc9c37f3b62914f7d1d048d4b1eaeeb96908000000f09f909f114d696e65642062792073326c3837353633000000000000000000000000000000000000000000000000000000000000000000",
          "sequence": 294
        }
      ],
      "vout": [
        {
          "value": 25.00701300,
          "n": 0,
          "scriptPubKey": {
            "asm": "OP_DUP OP_HASH160 aa3750aa18b8a0f3f0590731e1fab934856680cf OP_EQUALVERIFY OP_CHECKSIG",
            "hex": "76a914aa3750aa18b8a0f3f0590731e1fab934856680cf88ac",
            "reqSigs": 1,
            "type": "pubkeyhash",
            "addresses": [
              "LajyQBeZaBA1NkZDeY8YT5RYYVRkXMvb2T"
            ]
          }
        }, 
        {
          "value": 0.00000000,
          "n": 1,
          "scriptPubKey": {
            "asm": "OP_RETURN aa21a9ed642071f161cd1efff2dcf9a5bede9f16ac84d0c2c9fbb1e9affbfd77544ef18e 0000000000000000",
            "hex": "6a24aa21a9ed642071f161cd1efff2dcf9a5bede9f16ac84d0c2c9fbb1e9affbfd77544ef18e080000000000000000",
            "type": "nulldata"
          }
        }
      ],
      "hex": "010000000001010000000000000000000000000000000000000000000000000000000000000000ffffffff6403a9b6142cfabe6d6d1c8f59f81d6e052751bc759dd62ebbfc9c37f3b62914f7d1d048d4b1eaeeb96908000000f09f909f114d696e65642062792073326c3837353633000000000000000000000000000000000000000000000000000000000000000000260100000274ac0d95000000001976a914aa3750aa18b8a0f3f0590731e1fab934856680cf88ac00000000000000002f6a24aa21a9ed642071f161cd1efff2dcf9a5bede9f16ac84d0c2c9fbb1e9affbfd77544ef18e08000000000000000001200000000000000000000000000000000000000000000000000000000000000000a4961839"
    }, 
    {
      "txid": "2cf0811b156a80302e1954f4607d2dcedc0d6e71e8d4d884515ecb9b42a14e50",
      "hash": "2cf0811b156a80302e1954f4607d2dcedc0d6e71e8d4d884515ecb9b42a14e50",
      "version": 1,
      "size": 226,
      "vsize": 226,
      "locktime": 0,
      "vin": [
        {
          "txid": "97fac6dfbc77274b57b46932dd5d3eb47b67b2760a99450662e9a1818299b0d2",
          "vout": 28,
          "scriptSig": {
            "asm": "304502210082f5a9000f58710a7adf9085ae143f55fe30007c212147a78b15b3a38828061802201f00c64d05e1b3f353e2329837c03bbeec7bdf7b6741eda1387245da1893b10d[ALL] 02adb00555037ec16c61d1ca0ab510139d38cdf1dff568dd0dc21b8337b0cd55cb",
            "hex": "48304502210082f5a9000f58710a7adf9085ae143f55fe30007c212147a78b15b3a38828061802201f00c64d05e1b3f353e2329837c03bbeec7bdf7b6741eda1387245da1893b10d012102adb00555037ec16c61d1ca0ab510139d38cdf1dff568dd0dc21b8337b0cd55cb"
          },
          "sequence": 4294967295
        }
      ],
      "vout": [
        {
          "value": 0.05780200,
          "n": 0,
          "scriptPubKey": {
            "asm": "OP_DUP OP_HASH160 c4120f66d880b008e4e4cd91385ce13436f19c6c OP_EQUALVERIFY OP_CHECKSIG",
            "hex": "76a914c4120f66d880b008e4e4cd91385ce13436f19c6c88ac",
            "reqSigs": 1,
            "type": "pubkeyhash",
            "addresses": [
              "Ld6gLesyzQJFCTR21CkinkYYZy4VbpzzoL"
            ]
          }
        }, 
        {
          "value": 0.08090000,
          "n": 1,
          "scriptPubKey": {
            "asm": "OP_DUP OP_HASH160 68afd7880e9d0cf284a27ecb85a9d65745720fd1 OP_EQUALVERIFY OP_CHECKSIG",
            "hex": "76a91468afd7880e9d0cf284a27ecb85a9d65745720fd188ac",
            "reqSigs": 1,
            "type": "pubkeyhash",
            "addresses": [
              "LUmVBsev5crPJRz48t2EDCSDypiG331Rs2"
            ]
          }
        }
      ],
      "hex": "0100000001d2b0998281a1e9620645990a76b2677bb43e5ddd3269b4574b2777bcdfc6fa971c0000006b48304502210082f5a9000f58710a7adf9085ae143f55fe30007c212147a78b15b3a38828061802201f00c64d05e1b3f353e2329837c03bbeec7bdf7b6741eda1387245da1893b10d012102adb00555037ec16c61d1ca0ab510139d38cdf1dff568dd0dc21b8337b0cd55cbffffffff02e8325800000000001976a914c4120f66d880b008e4e4cd91385ce13436f19c6c88ac90717b00000000001976a91468afd7880e9d0cf284a27ecb85a9d65745720fd188ac00000000"
    }, 
    {
      "txid": "a37fef4294bee7099184fb8f4ca06bea31b5e1031d02a5b77fc65c84df92be16",
      "hash": "a37fef4294bee7099184fb8f4ca06bea31b5e1031d02a5b77fc65c84df92be16",
      "version": 1,
      "size": 226,
      "vsize": 226,
      "locktime": 0,
      "vin": [
        {
          "txid": "1d27b140e8b9edcda01c2bc24f42d8df982c2f05495b38d789b6d4d5312c392b",
          "vout": 0,
          "scriptSig": {
            "asm": "3045022100d3fe73c0243e4dd66699035f634dd9b97219571254e5d72a257489d45907416b02203de3ee4fc8b3b3bb9feef2d5a95f37a09d63af78d8f99b84249e571d39e9ee00[ALL] 03a266b6f1960bdd3575808537cbf93b216f1925eee993a06bd71bd63fe1933832",
            "hex": "483045022100d3fe73c0243e4dd66699035f634dd9b97219571254e5d72a257489d45907416b02203de3ee4fc8b3b3bb9feef2d5a95f37a09d63af78d8f99b84249e571d39e9ee00012103a266b6f1960bdd3575808537cbf93b216f1925eee993a06bd71bd63fe1933832"
          },
          "sequence": 4294967295
        }
      ],
      "vout": [
        {
          "value": 0.01410000,
          "n": 0,
          "scriptPubKey": {
            "asm": "OP_DUP OP_HASH160 be9b527dc255cd3652672d5e06922b26f3021c9c OP_EQUALVERIFY OP_CHECKSIG",
            "hex": "76a914be9b527dc255cd3652672d5e06922b26f3021c9c88ac",
            "reqSigs": 1,
            "type": "pubkeyhash",
            "addresses": [
              "Lcbnidzbp2ozZ723YMdmr3pTp6nZHDW4eB"
            ]
          }
        }, 
        {
          "value": 0.12772415,
          "n": 1,
          "scriptPubKey": {
            "asm": "OP_DUP OP_HASH160 c3c22a15bbff3e02fb8c50c5326a00c858ba34f0 OP_EQUALVERIFY OP_CHECKSIG",
            "hex": "76a914c3c22a15bbff3e02fb8c50c5326a00c858ba34f088ac",
            "reqSigs": 1,
            "type": "pubkeyhash",
            "addresses": [
              "Ld52dQ51KHkVjXYxNaprEfwMn7cW7MKujh"
            ]
          }
        }
      ],
      "hex": "01000000012b392c31d5d4b689d7385b49052f2c98dfd8424fc22b1ca0cdedb9e840b1271d000000006b483045022100d3fe73c0243e4dd66699035f634dd9b97219571254e5d72a257489d45907416b02203de3ee4fc8b3b3bb9feef2d5a95f37a09d63af78d8f99b84249e571d39e9ee00012103a266b6f1960bdd3575808537cbf93b216f1925eee993a06bd71bd63fe1933832ffffffff02d0831500000000001976a914be9b527dc255cd3652672d5e06922b26f3021c9c88ac3fe4c200000000001976a914c3c22a15bbff3e02fb8c50c5326a00c858ba34f088ac00000000"
    }, 
    {
      "txid": "cddde2e79d78a4756f0593d74c1aa9a71bb57319b8d47a97f56c50b2dc0bd944",
      "hash": "cddde2e79d78a4756f0593d74c1aa9a71bb57319b8d47a97f56c50b2dc0bd944",
      "version": 1,
      "size": 519,
      "vsize": 519,
      "locktime": 1357479,
      "vin": [
        {
          "txid": "2a63b04b9b760f90d3c96da1d44a83f4d2cac9181a5248c76c191ebb96ef3035",
          "vout": 21,
          "scriptSig": {
            "asm": "3045022100b0c2b7399a5a35692d2c17f3d0c6aa6fb00d819f3cb1cfaa6e5661a27c1ecaf702203594c7e46a23d151b8b10a8244ebe78d48151f4dc98741f7f3e0ece2360b6244[ALL] 023ca034acc45ee502e14c504512b735fa76bacd060190ac6ceb415bdd38672fc3",
            "hex": "483045022100b0c2b7399a5a35692d2c17f3d0c6aa6fb00d819f3cb1cfaa6e5661a27c1ecaf702203594c7e46a23d151b8b10a8244ebe78d48151f4dc98741f7f3e0ece2360b62440121023ca034acc45ee502e14c504512b735fa76bacd060190ac6ceb415bdd38672fc3"
          },
          "sequence": 4294967294
        }, 
        {
          "txid": "86e82241e1dc5f0de862282932d5e3cfb66e43611edc76f94a6aa119e5358d85",
          "vout": 12,
          "scriptSig": {
            "asm": "3045022100b0b46751e4c8d330e77329c8acbdd55c30e25d430944a578b0fdb4946415183f022076cc44801db9eb269315cc6c7b1f9f3671afc09529979bc03850772be67f0998[ALL] 02fd8450cb62e014fe19ac840152fe4e1f919598fb779db857e1f1eb75671f54f2",
            "hex": "483045022100b0b46751e4c8d330e77329c8acbdd55c30e25d430944a578b0fdb4946415183f022076cc44801db9eb269315cc6c7b1f9f3671afc09529979bc03850772be67f0998012102fd8450cb62e014fe19ac840152fe4e1f919598fb779db857e1f1eb75671f54f2"
          },
          "sequence": 4294967294
        }, 
        {
          "txid": "cc40926af772bc16963bd3b8851f76b025d93f8d4ce68a2923ee2e330d46e7c2",
          "vout": 0,
          "scriptSig": {
            "asm": "3044022039508f21375aab17951a1c7ade4173c869bb8821316025ab43f2ea84f3ec5af2022071223facc7c2b30f1b0444a82532c69f15994750160b4d6f4db1437668c1db05[ALL] 0381babb286ef3def1e12a6cf3f977a78b477101298f814e9482c01b917015fb15",
            "hex": "473044022039508f21375aab17951a1c7ade4173c869bb8821316025ab43f2ea84f3ec5af2022071223facc7c2b30f1b0444a82532c69f15994750160b4d6f4db1437668c1db0501210381babb286ef3def1e12a6cf3f977a78b477101298f814e9482c01b917015fb15"
          },
          "sequence": 4294967294
        }
      ],
      "vout": [
        {
          "value": 64.00000000,
          "n": 0,
          "scriptPubKey": {
            "asm": "OP_HASH160 3f4eecba122ad73039d481c8d37f99cb4f887cd8 OP_EQUAL",
            "hex": "a9143f4eecba122ad73039d481c8d37f99cb4f887cd887",
            "reqSigs": 1,
            "type": "scripthash",
            "addresses": [
              "MDfuMJQ6X3sv7MyYaMgWfrRD9mit96nSLF"
            ]
          }
        }, 
        {
          "value": 0.48359119,
          "n": 1,
          "scriptPubKey": {
            "asm": "OP_DUP OP_HASH160 9eb8dc2a5135d7e7569679876c81850bfaf56b7a OP_EQUALVERIFY OP_CHECKSIG",
            "hex": "76a9149eb8dc2a5135d7e7569679876c81850bfaf56b7a88ac",
            "reqSigs": 1,
            "type": "pubkeyhash",
            "addresses": [
              "LZhCUpcEKgbuThgKG1SsVAj5FEg5mGuynK"
            ]
          }
        }
      ],
      "hex": "01000000033530ef96bb1e196cc748521a18c9cad2f4834ad4a16dc9d3900f769b4bb0632a150000006b483045022100b0c2b7399a5a35692d2c17f3d0c6aa6fb00d819f3cb1cfaa6e5661a27c1ecaf702203594c7e46a23d151b8b10a8244ebe78d48151f4dc98741f7f3e0ece2360b62440121023ca034acc45ee502e14c504512b735fa76bacd060190ac6ceb415bdd38672fc3feffffff858d35e519a16a4af976dc1e61436eb6cfe3d532292862e80d5fdce14122e8860c0000006b483045022100b0b46751e4c8d330e77329c8acbdd55c30e25d430944a578b0fdb4946415183f022076cc44801db9eb269315cc6c7b1f9f3671afc09529979bc03850772be67f0998012102fd8450cb62e014fe19ac840152fe4e1f919598fb779db857e1f1eb75671f54f2feffffffc2e7460d332eee23298ae64c8d3fd925b0761f85b8d33b9616bc72f76a9240cc000000006a473044022039508f21375aab17951a1c7ade4173c869bb8821316025ab43f2ea84f3ec5af2022071223facc7c2b30f1b0444a82532c69f15994750160b4d6f4db1437668c1db0501210381babb286ef3def1e12a6cf3f977a78b477101298f814e9482c01b917015fb15feffffff020040787d0100000017a9143f4eecba122ad73039d481c8d37f99cb4f887cd887cfe6e102000000001976a9149eb8dc2a5135d7e7569679876c81850bfaf56b7a88aca7b61400"
    }, 
    {
      "txid": "b4cdea9164be005a4a419558e231835549f73d33c870c97133c4a6ff29afde2b",
      "hash": "b4cdea9164be005a4a419558e231835549f73d33c870c97133c4a6ff29afde2b",
      "version": 1,
      "size": 225,
      "vsize": 225,
      "locktime": 0,
      "vin": [
        {
          "txid": "ed8738ae37374c018140312f62fb26c9d45e3ea09822e1845bc7c0915bf893f9",
          "vout": 1,
          "scriptSig": {
            "asm": "304402206c000268b95ed37d814bb38c0f42de5127ba2058cff05c47162b1836a7c98e99022071382283338fddf913924c8b7483b6d9b266bf7fdaf08c0377a89001229b4901[ALL] 021ccd27e211bcaec4ac6dc341d482c331846daf923917455aed61ffa9ce9f5363",
            "hex": "47304402206c000268b95ed37d814bb38c0f42de5127ba2058cff05c47162b1836a7c98e99022071382283338fddf913924c8b7483b6d9b266bf7fdaf08c0377a89001229b49010121021ccd27e211bcaec4ac6dc341d482c331846daf923917455aed61ffa9ce9f5363"
          },
          "sequence": 4294967295
        }
      ],
      "vout": [
        {
          "value": 8.97492280,
          "n": 0,
          "scriptPubKey": {
            "asm": "OP_DUP OP_HASH160 8dc342d8bb3ce57a370be66d285429bc6395f930 OP_EQUALVERIFY OP_CHECKSIG",
            "hex": "76a9148dc342d8bb3ce57a370be66d285429bc6395f93088ac",
            "reqSigs": 1,
            "type": "pubkeyhash",
            "addresses": [
              "LY9XTExmvGhwtpfR6oBJvxy3PXf721itPw"
            ]
          }
        }, 
        {
          "value": 45.24771971,
          "n": 1,
          "scriptPubKey": {
            "asm": "OP_DUP OP_HASH160 ec05da7c60474384c750673580ea1c6e6ea5d4d5 OP_EQUALVERIFY OP_CHECKSIG",
            "hex": "76a914ec05da7c60474384c750673580ea1c6e6ea5d4d588ac",
            "reqSigs": 1,
            "type": "pubkeyhash",
            "addresses": [
              "LgjvkC1FSNWBWNGfKBetYtPcAvALwvzM44"
            ]
          }
        }
      ],
      "hex": "0100000001f993f85b91c0c75b84e12298a03e5ed4c926fb622f314081014c3737ae3887ed010000006a47304402206c000268b95ed37d814bb38c0f42de5127ba2058cff05c47162b1836a7c98e99022071382283338fddf913924c8b7483b6d9b266bf7fdaf08c0377a89001229b49010121021ccd27e211bcaec4ac6dc341d482c331846daf923917455aed61ffa9ce9f5363ffffffff0238a57e35000000001976a9148dc342d8bb3ce57a370be66d285429bc6395f93088ac838ab20d010000001976a914ec05da7c60474384c750673580ea1c6e6ea5d4d588ac00000000"
    }, 
    {
      "txid": "e694635bb1e3321241412756b71b6b3dc3e68778f42ab50deb89dd0c7a38913e",
      "hash": "e694635bb1e3321241412756b71b6b3dc3e68778f42ab50deb89dd0c7a38913e",
      "version": 1,
      "size": 225,
      "vsize": 225,
      "locktime": 0,
      "vin": [
        {
          "txid": "11f776ff8aab194510926122eab62ef82dd2103b70ed2d54e2eb5823f541fdf9",
          "vout": 0,
          "scriptSig": {
            "asm": "3044022039d7eb96175ccb8de19378cceb58f6bcc915d5fbd7a315ddd5fc1452ad7c306b02205da04fee5c829e029c80a0043d32dec6c2a97527d1879cb09ce631068f0aed43[ALL] 03abc3fb118c95d1aa63595e780de0bf3a68980ecd26bb7b80e449b13866f00c37",
            "hex": "473044022039d7eb96175ccb8de19378cceb58f6bcc915d5fbd7a315ddd5fc1452ad7c306b02205da04fee5c829e029c80a0043d32dec6c2a97527d1879cb09ce631068f0aed43012103abc3fb118c95d1aa63595e780de0bf3a68980ecd26bb7b80e449b13866f00c37"
          },
          "sequence": 4294967295
        }
      ],
      "vout": [
        {
          "value": 0.44208167,
          "n": 0,
          "scriptPubKey": {
            "asm": "OP_DUP OP_HASH160 821b7f2bdf7b6c7224294d6a1e8dc88fc3cc4d67 OP_EQUALVERIFY OP_CHECKSIG",
            "hex": "76a914821b7f2bdf7b6c7224294d6a1e8dc88fc3cc4d6788ac",
            "reqSigs": 1,
            "type": "pubkeyhash",
            "addresses": [
              "LX5u3fD3L6kMRNXzFdzfLCU6C7VsvWYUuP"
            ]
          }
        }, 
        {
          "value": 0.55769233,
          "n": 1,
          "scriptPubKey": {
            "asm": "OP_DUP OP_HASH160 a5e16c400aee19720e36c12cf6229659b1e53d05 OP_EQUALVERIFY OP_CHECKSIG",
            "hex": "76a914a5e16c400aee19720e36c12cf6229659b1e53d0588ac",
            "reqSigs": 1,
            "type": "pubkeyhash",
            "addresses": [
              "LaM3oX5UgfWEJStczsJLRbtn4J7iGMWtRW"
            ]
          }
        }
      ],
      "hex": "0100000001f9fd41f52358ebe2542ded703b10d22df82eb6ea226192104519ab8aff76f711000000006a473044022039d7eb96175ccb8de19378cceb58f6bcc915d5fbd7a315ddd5fc1452ad7c306b02205da04fee5c829e029c80a0043d32dec6c2a97527d1879cb09ce631068f0aed43012103abc3fb118c95d1aa63595e780de0bf3a68980ecd26bb7b80e449b13866f00c37ffffffff022790a202000000001976a914821b7f2bdf7b6c7224294d6a1e8dc88fc3cc4d6788ac91f85203000000001976a914a5e16c400aee19720e36c12cf6229659b1e53d0588ac00000000"
    }, 
    {
      "txid": "7131475154063b6ad52e251d2c53f50fad3bca8e74ea4dcfc45ce3045d939140",
      "hash": "7131475154063b6ad52e251d2c53f50fad3bca8e74ea4dcfc45ce3045d939140",
      "version": 1,
      "size": 225,
      "vsize": 225,
      "locktime": 0,
      "vin": [
        {
          "txid": "b67490c2c6522bd6c10d56bfd1cfe9e589a1d0717ca4771f60f910f11b4a2145",
          "vout": 0,
          "scriptSig": {
            "asm": "3044022027b06e5c0fb3b6148257efefb5e9016e627b3e1e37b38da82e8c606fbc81361a02202046ba86fc522216d5b558ff9e6ec3adab9f422fe8bd268eb20a4678e017b357[ALL] 036d48dd77e08a4d7cedc8527f2863b15d432c656b04840486f2be21e793817370",
            "hex": "473044022027b06e5c0fb3b6148257efefb5e9016e627b3e1e37b38da82e8c606fbc81361a02202046ba86fc522216d5b558ff9e6ec3adab9f422fe8bd268eb20a4678e017b3570121036d48dd77e08a4d7cedc8527f2863b15d432c656b04840486f2be21e793817370"
          },
          "sequence": 4294967295
        }
      ],
      "vout": [
        {
          "value": 0.00054745,
          "n": 0,
          "scriptPubKey": {
            "asm": "OP_DUP OP_HASH160 13c503db442a89e0c140fbf488f96e4f1ad308a1 OP_EQUALVERIFY OP_CHECKSIG",
            "hex": "76a91413c503db442a89e0c140fbf488f96e4f1ad308a188ac",
            "reqSigs": 1,
            "type": "pubkeyhash",
            "addresses": [
              "LM2V7hp2xbmaFVuamYuuPnJNHd4YLkjo5Y"
            ]
          }
        }, 
        {
          "value": 0.01231292,
          "n": 1,
          "scriptPubKey": {
            "asm": "OP_DUP OP_HASH160 fa3d7984676545c6c734510f51295f533073297f OP_EQUALVERIFY OP_CHECKSIG",
            "hex": "76a914fa3d7984676545c6c734510f51295f533073297f88ac",
            "reqSigs": 1,
            "type": "pubkeyhash",
            "addresses": [
              "Li36qWJXmp7xNzTuUDUX79cnpdF27qJX2H"
            ]
          }
        }
      ],
      "hex": "010000000145214a1bf110f9601f77a47c71d0a189e5e9cfd1bf560dc1d62b52c6c29074b6000000006a473044022027b06e5c0fb3b6148257efefb5e9016e627b3e1e37b38da82e8c606fbc81361a02202046ba86fc522216d5b558ff9e6ec3adab9f422fe8bd268eb20a4678e017b3570121036d48dd77e08a4d7cedc8527f2863b15d432c656b04840486f2be21e793817370ffffffff02d9d50000000000001976a91413c503db442a89e0c140fbf488f96e4f1ad308a188acbcc91200000000001976a914fa3d7984676545c6c734510f51295f533073297f88ac00000000"
    }, 
    {
      "txid": "00f8bdb844dc39ef478953f272da956da0297976a7bf98e2b25f44998e9eeb50",
      "hash": "00f8bdb844dc39ef478953f272da956da0297976a7bf98e2b25f44998e9eeb50",
      "version": 1,
      "size": 225,
      "vsize": 225,
      "locktime": 0,
      "vin": [
        {
          "txid": "46e9d1496e3a3275d154f5a782581bff702d6c993460cc9f04d6aaf6477b4885",
          "vout": 0,
          "scriptSig": {
            "asm": "3044022076907d7ce3541d3b64c851f4dfa15ac0a6256d93fb576c5763f46ba6cde807f902207ad4812890c50982701014048d46222550425bf2ec0b0b39479171c2619173d9[ALL] 02df76fd15399fe53e4d7300233ffc72ba6e156ff20e0c3b5e844b05ed02ca4d5c",
            "hex": "473044022076907d7ce3541d3b64c851f4dfa15ac0a6256d93fb576c5763f46ba6cde807f902207ad4812890c50982701014048d46222550425bf2ec0b0b39479171c2619173d9012102df76fd15399fe53e4d7300233ffc72ba6e156ff20e0c3b5e844b05ed02ca4d5c"
          },
          "sequence": 4294967295
        }
      ],
      "vout": [
        {
          "value": 0.00054642,
          "n": 0,
          "scriptPubKey": {
            "asm": "OP_DUP OP_HASH160 c590535d032df8e514188646c6491ae2e3d30b36 OP_EQUALVERIFY OP_CHECKSIG",
            "hex": "76a914c590535d032df8e514188646c6491ae2e3d30b3688ac",
            "reqSigs": 1,
            "type": "pubkeyhash",
            "addresses": [
              "LdEaGvb4iEMgwAhFesvdZ4SiShsjaHpQ3L"
            ]
          }
        }, 
        {
          "value": 0.00280158,
          "n": 1,
          "scriptPubKey": {
            "asm": "OP_DUP OP_HASH160 48ae9e704a70c9f4f3732d1dd678911520274588 OP_EQUALVERIFY OP_CHECKSIG",
            "hex": "76a91448ae9e704a70c9f4f3732d1dd67891152027458888ac",
            "reqSigs": 1,
            "type": "pubkeyhash",
            "addresses": [
              "LRrG6kxf2yfunnNGYYV77pzvwDUrv8N4xK"
            ]
          }
        }
      ],
      "hex": "010000000185487b47f6aad6049fcc6034996c2d70ff1b5882a7f554d175323a6e49d1e946000000006a473044022076907d7ce3541d3b64c851f4dfa15ac0a6256d93fb576c5763f46ba6cde807f902207ad4812890c50982701014048d46222550425bf2ec0b0b39479171c2619173d9012102df76fd15399fe53e4d7300233ffc72ba6e156ff20e0c3b5e844b05ed02ca4d5cffffffff0272d50000000000001976a914c590535d032df8e514188646c6491ae2e3d30b3688ac5e460400000000001976a91448ae9e704a70c9f4f3732d1dd67891152027458888ac00000000"
    }, 
    {
      "txid": "156b3686f87801718a78ac0e56303b15b56cf7e3bf99f92d15ca44d5f7b06761",
      "hash": "156b3686f87801718a78ac0e56303b15b56cf7e3bf99f92d15ca44d5f7b06761",
      "version": 1,
      "size": 225,
      "vsize": 225,
      "locktime": 0,
      "vin": [
        {
          "txid": "bd08d626371aa4012a65a7289273622ea16ef1a64778318790daa9065e23a6c2",
          "vout": 1,
          "scriptSig": {
            "asm": "304402201285f14e10c0cca1b7bd1e05f16d3c2880d27c845eaecb8991c29fff39b901030220056b5a70a6b6d533daab049ecbe5fafa2409cd8a5317c076c5685404b6ff41c7[ALL] 0247a81453e908c58a26b9e3eb25d8ef3daa8e22be535b5ce3ded888009cc6c5f1",
            "hex": "47304402201285f14e10c0cca1b7bd1e05f16d3c2880d27c845eaecb8991c29fff39b901030220056b5a70a6b6d533daab049ecbe5fafa2409cd8a5317c076c5685404b6ff41c701210247a81453e908c58a26b9e3eb25d8ef3daa8e22be535b5ce3ded888009cc6c5f1"
          },
          "sequence": 4294967295
        }
      ],
      "vout": [
        {
          "value": 0.00901856,
          "n": 0,
          "scriptPubKey": {
            "asm": "OP_DUP OP_HASH160 d18bac464ffa92bc73cbdff0ada56924ec326300 OP_EQUALVERIFY OP_CHECKSIG",
            "hex": "76a914d18bac464ffa92bc73cbdff0ada56924ec32630088ac",
            "reqSigs": 1,
            "type": "pubkeyhash",
            "addresses": [
              "LeKvoxBCQ8UP4KEmHLb1oeR3WFeeZBggKq"
            ]
          }
        }, 
        {
          "value": 0.00054600,
          "n": 1,
          "scriptPubKey": {
            "asm": "OP_DUP OP_HASH160 8927a34a9ef0343d97ef4aee6e554d1b2d0f0404 OP_EQUALVERIFY OP_CHECKSIG",
            "hex": "76a9148927a34a9ef0343d97ef4aee6e554d1b2d0f040488ac",
            "reqSigs": 1,
            "type": "pubkeyhash",
            "addresses": [
              "LXjAKachNJV5MaZGbxghnmvQ1L4m4BUSZB"
            ]
          }
        }
      ],
      "hex": "0100000001c2a6235e06a9da9087317847a6f16ea12e62739228a7652a01a41a3726d608bd010000006a47304402201285f14e10c0cca1b7bd1e05f16d3c2880d27c845eaecb8991c29fff39b901030220056b5a70a6b6d533daab049ecbe5fafa2409cd8a5317c076c5685404b6ff41c701210247a81453e908c58a26b9e3eb25d8ef3daa8e22be535b5ce3ded888009cc6c5f1ffffffff02e0c20d00000000001976a914d18bac464ffa92bc73cbdff0ada56924ec32630088ac48d50000000000001976a9148927a34a9ef0343d97ef4aee6e554d1b2d0f040488ac00000000"
    }, 
    {
      "txid": "f24f9d7887919b5947c1eb1fd4d787a271a311fde48f08c233f60a03b8e77ca9",
      "hash": "f24f9d7887919b5947c1eb1fd4d787a271a311fde48f08c233f60a03b8e77ca9",
      "version": 1,
      "size": 225,
      "vsize": 225,
      "locktime": 0,
      "vin": [
        {
          "txid": "e6714a0df8fb4f8ecaf54b2610d77d7b68bf23642339c4baf159c9f67d4ffc16",
          "vout": 0,
          "scriptSig": {
            "asm": "3044022067ec95202ad05484099fa8549744e7af11d91abd623172b1787506b37ef4186b022017eab24029059d1e7bf38fb57bddc67c381124d451d17989c054a5c42106c9cd[ALL] 02a2bab355ec8c73b3819d3f752c9ad2adf40f55ec12816596a757a538ad2a780a",
            "hex": "473044022067ec95202ad05484099fa8549744e7af11d91abd623172b1787506b37ef4186b022017eab24029059d1e7bf38fb57bddc67c381124d451d17989c054a5c42106c9cd012102a2bab355ec8c73b3819d3f752c9ad2adf40f55ec12816596a757a538ad2a780a"
          },
          "sequence": 4294967295
        }
      ],
      "vout": [
        {
          "value": 0.00568000,
          "n": 0,
          "scriptPubKey": {
            "asm": "OP_DUP OP_HASH160 ba3955cb1062268c69a1af412910a0d983599c79 OP_EQUALVERIFY OP_CHECKSIG",
            "hex": "76a914ba3955cb1062268c69a1af412910a0d983599c7988ac",
            "reqSigs": 1,
            "type": "pubkeyhash",
            "addresses": [
              "LcCcdcDzNk9oWcX9fyh6wFj6X9vujPqVpy"
            ]
          }
        }, 
        {
          "value": 0.25424030,
          "n": 1,
          "scriptPubKey": {
            "asm": "OP_DUP OP_HASH160 ec04f24ecf766927ec448763da06bb59599d7bcb OP_EQUALVERIFY OP_CHECKSIG",
            "hex": "76a914ec04f24ecf766927ec448763da06bb59599d7bcb88ac",
            "reqSigs": 1,
            "type": "pubkeyhash",
            "addresses": [
              "LgjufB6ZUdhnumkJrG7Aaaahp5kyyDF6K6"
            ]
          }
        }
      ],
      "hex": "010000000116fc4f7df6c959f1bac439236423bf687b7dd710264bf5ca8e4ffbf80d4a71e6000000006a473044022067ec95202ad05484099fa8549744e7af11d91abd623172b1787506b37ef4186b022017eab24029059d1e7bf38fb57bddc67c381124d451d17989c054a5c42106c9cd012102a2bab355ec8c73b3819d3f752c9ad2adf40f55ec12816596a757a538ad2a780affffffff02c0aa0800000000001976a914ba3955cb1062268c69a1af412910a0d983599c7988ac9ef08301000000001976a914ec04f24ecf766927ec448763da06bb59599d7bcb88ac00000000"
    }, 
    {
      "txid": "3a91a545badd49339cb2fa7dcb4d1fbf5f70f8b5ca698fa534c78369f83d55f8",
      "hash": "3a91a545badd49339cb2fa7dcb4d1fbf5f70f8b5ca698fa534c78369f83d55f8",
      "version": 1,
      "size": 225,
      "vsize": 225,
      "locktime": 0,
      "vin": [
        {
          "txid": "582bcda45dacf0cb473ed149829198b2d5d08b74cbebf293fb90cb561888bf4e",
          "vout": 0,
          "scriptSig": {
            "asm": "304402207a192a56bdd6836be39a24da04c4e46e56bfb58e90f1e17ee8b3852ac89f7e3b0220473569d5cd99c5157f5cb41f5b923b69ee349045aff663d72e8b00e5fae6f37e[ALL] 0295f186c9b52a2f3665c7950f096f4b9a9849f83f0d6faa3001b2f6240a8c02f5",
            "hex": "47304402207a192a56bdd6836be39a24da04c4e46e56bfb58e90f1e17ee8b3852ac89f7e3b0220473569d5cd99c5157f5cb41f5b923b69ee349045aff663d72e8b00e5fae6f37e01210295f186c9b52a2f3665c7950f096f4b9a9849f83f0d6faa3001b2f6240a8c02f5"
          },
          "sequence": 4294967295
        }
      ],
      "vout": [
        {
          "value": 60.44186790,
          "n": 0,
          "scriptPubKey": {
            "asm": "OP_DUP OP_HASH160 b27ea6a6ee50b1e99a12b2dd53522c1a3633e876 OP_EQUALVERIFY OP_CHECKSIG",
            "hex": "76a914b27ea6a6ee50b1e99a12b2dd53522c1a3633e87688ac",
            "reqSigs": 1,
            "type": "pubkeyhash",
            "addresses": [
              "LbVkGDv9yXSuckDj1jYvgXdPzKLx92Kk5H"
            ]
          }
        }, 
        {
          "value": 2.19902883,
          "n": 1,
          "scriptPubKey": {
            "asm": "OP_DUP OP_HASH160 7b6a64534f08f80221649e3dc3366af1cd6a8299 OP_EQUALVERIFY OP_CHECKSIG",
            "hex": "76a9147b6a64534f08f80221649e3dc3366af1cd6a829988ac",
            "reqSigs": 1,
            "type": "pubkeyhash",
            "addresses": [
              "LWUWq3fLkRAdFGJ39zrkKFRcAfvATCzXqm"
            ]
          }
        }
      ],
      "hex": "01000000014ebf881856cb90fb93f2ebcb748bd0d5b298918249d13e47cbf0ac5da4cd2b58000000006a47304402207a192a56bdd6836be39a24da04c4e46e56bfb58e90f1e17ee8b3852ac89f7e3b0220473569d5cd99c5157f5cb41f5b923b69ee349045aff663d72e8b00e5fae6f37e01210295f186c9b52a2f3665c7950f096f4b9a9849f83f0d6faa3001b2f6240a8c02f5ffffffff02a6f84268010000001976a914b27ea6a6ee50b1e99a12b2dd53522c1a3633e87688aca3731b0d000000001976a9147b6a64534f08f80221649e3dc3366af1cd6a829988ac00000000"
    }, 
    {
      "txid": "33c1e14729798b88a28c2f7c5e1a447fda7347d56cbbf2c473cf6d139439b019",
      "hash": "33c1e14729798b88a28c2f7c5e1a447fda7347d56cbbf2c473cf6d139439b019",
      "version": 1,
      "size": 226,
      "vsize": 226,
      "locktime": 0,
      "vin": [
        {
          "txid": "6e5613a6ce2330623914e09a09a7153ba0402a16d852c1b8cabfa19040607c0f",
          "vout": 0,
          "scriptSig": {
            "asm": "3045022100a6fcf1ca85fc521baa65afa4e3accd6dce8c00f5e7ad1825fc9e57d7437824b10220322f27ac231540c69fc6ae08f56424be0ffd7baa8d805c3781bd70a4992fd59d[ALL] 0348cbd42c4da342fdacb6ec5e1de56c301b2ab3e79f753d367c1f351852f6f754",
            "hex": "483045022100a6fcf1ca85fc521baa65afa4e3accd6dce8c00f5e7ad1825fc9e57d7437824b10220322f27ac231540c69fc6ae08f56424be0ffd7baa8d805c3781bd70a4992fd59d01210348cbd42c4da342fdacb6ec5e1de56c301b2ab3e79f753d367c1f351852f6f754"
          },
          "sequence": 4294967295
        }
      ],
      "vout": [
        {
          "value": 55.70924181,
          "n": 0,
          "scriptPubKey": {
            "asm": "OP_DUP OP_HASH160 9a388f09e57e93448368b39e13c7d22e58b0d45f OP_EQUALVERIFY OP_CHECKSIG",
            "hex": "76a9149a388f09e57e93448368b39e13c7d22e58b0d45f88ac",
            "reqSigs": 1,
            "type": "pubkeyhash",
            "addresses": [
              "LZHQ5XRd2fxv7D6kVHzqrG3cbQWMnyFubt"
            ]
          }
        }, 
        {
          "value": 6.00000000,
          "n": 1,
          "scriptPubKey": {
            "asm": "OP_DUP OP_HASH160 8bacf462ebe4e2bd9ae14aaacaa144d76d4e8d5c OP_EQUALVERIFY OP_CHECKSIG",
            "hex": "76a9148bacf462ebe4e2bd9ae14aaacaa144d76d4e8d5c88ac",
            "reqSigs": 1,
            "type": "pubkeyhash",
            "addresses": [
              "LXxVNyZuQbWWQ7cVS8BY7NVDEDNDPce3Qf"
            ]
          }
        }
      ],
      "hex": "01000000010f7c604090a1bfcab8c152d8162a40a03b15a7099ae01439623023cea613566e000000006b483045022100a6fcf1ca85fc521baa65afa4e3accd6dce8c00f5e7ad1825fc9e57d7437824b10220322f27ac231540c69fc6ae08f56424be0ffd7baa8d805c3781bd70a4992fd59d01210348cbd42c4da342fdacb6ec5e1de56c301b2ab3e79f753d367c1f351852f6f754ffffffff02958e0d4c010000001976a9149a388f09e57e93448368b39e13c7d22e58b0d45f88ac0046c323000000001976a9148bacf462ebe4e2bd9ae14aaacaa144d76d4e8d5c88ac00000000"
    }, 
    {
      "txid": "ee2676509da1c7d4b4a2dfa628ec1481589cc36324c1234b6ae3850c5883f71c",
      "hash": "ee2676509da1c7d4b4a2dfa628ec1481589cc36324c1234b6ae3850c5883f71c",
      "version": 1,
      "size": 226,
      "vsize": 226,
      "locktime": 0,
      "vin": [
        {
          "txid": "578dc6e0b58d505b9d84468f362843372c64221d3989e85ec6973e5cad7bc849",
          "vout": 1,
          "scriptSig": {
            "asm": "3045022100a27f81bcca096f34a4f34a22434e8228398157a697bdbf844d53ea518c0d7325022031a1546f0bac8f1fb2c5f12c31b37523d299a3f53365cbaadeee55c29cb35ff3[ALL] 02f82f6018aae67a27eb8616ef0a4e79ef1a9751fcefc95ee5d04033b4297d9714",
            "hex": "483045022100a27f81bcca096f34a4f34a22434e8228398157a697bdbf844d53ea518c0d7325022031a1546f0bac8f1fb2c5f12c31b37523d299a3f53365cbaadeee55c29cb35ff3012102f82f6018aae67a27eb8616ef0a4e79ef1a9751fcefc95ee5d04033b4297d9714"
          },
          "sequence": 4294967295
        }
      ],
      "vout": [
        {
          "value": 0.02207203,
          "n": 0,
          "scriptPubKey": {
            "asm": "OP_DUP OP_HASH160 38ca68859968ea2d13ac6bbcad657744e1edc80a OP_EQUALVERIFY OP_CHECKSIG",
            "hex": "76a91438ca68859968ea2d13ac6bbcad657744e1edc80a88ac",
            "reqSigs": 1,
            "type": "pubkeyhash",
            "addresses": [
              "LQQEaXh2dhh5oR6cFRYZbyjgXNReHjeam4"
            ]
          }
        }, 
        {
          "value": 0.25433526,
          "n": 1,
          "scriptPubKey": {
            "asm": "OP_DUP OP_HASH160 81b586d5006c0e950c4416bed39e1a937b9d5c63 OP_EQUALVERIFY OP_CHECKSIG",
            "hex": "76a91481b586d5006c0e950c4416bed39e1a937b9d5c6388ac",
            "reqSigs": 1,
            "type": "pubkeyhash",
            "addresses": [
              "LX3ntev2VhYjgGFbnxFyCAb2WehiVTAN1v"
            ]
          }
        }
      ],
      "hex": "010000000149c87bad5c3e97c65ee889391d22642c374328368f46849d5b508db5e0c68d57010000006b483045022100a27f81bcca096f34a4f34a22434e8228398157a697bdbf844d53ea518c0d7325022031a1546f0bac8f1fb2c5f12c31b37523d299a3f53365cbaadeee55c29cb35ff3012102f82f6018aae67a27eb8616ef0a4e79ef1a9751fcefc95ee5d04033b4297d9714ffffffff02e3ad2100000000001976a91438ca68859968ea2d13ac6bbcad657744e1edc80a88acb6158401000000001976a91481b586d5006c0e950c4416bed39e1a937b9d5c6388ac00000000"
    }, 
    {
      "txid": "48c2ab092065548f2f12da37ca5dfc368f884a97f648bce8746bd301d8f8f940",
      "hash": "48c2ab092065548f2f12da37ca5dfc368f884a97f648bce8746bd301d8f8f940",
      "version": 1,
      "size": 226,
      "vsize": 226,
      "locktime": 0,
      "vin": [
        {
          "txid": "2b9db9293e9a8011605d6e29176d71333a50babe0a3a9ea27bd7aa62476b2313",
          "vout": 248,
          "scriptSig": {
            "asm": "3045022100b10c69970652f7ada6cb9d1349f5207dbafbaa70ef9facaedeb33f086291f67e0220636bb273a80e360aeb25d2d5a41e1b4a6e439eb8455bcb6f0f8011f7e9aedce4[ALL] 02b916280d0cd7204f57496651a89e65a5ddda4af95ef684e5df250aef903ad65f",
            "hex": "483045022100b10c69970652f7ada6cb9d1349f5207dbafbaa70ef9facaedeb33f086291f67e0220636bb273a80e360aeb25d2d5a41e1b4a6e439eb8455bcb6f0f8011f7e9aedce4012102b916280d0cd7204f57496651a89e65a5ddda4af95ef684e5df250aef903ad65f"
          },
          "sequence": 4294967295
        }
      ],
      "vout": [
        {
          "value": 0.00054645,
          "n": 0,
          "scriptPubKey": {
            "asm": "OP_DUP OP_HASH160 c75daf0c138b796621476692b5d1bb700e6808eb OP_EQUALVERIFY OP_CHECKSIG",
            "hex": "76a914c75daf0c138b796621476692b5d1bb700e6808eb88ac",
            "reqSigs": 1,
            "type": "pubkeyhash",
            "addresses": [
              "LdQ6xefnoxbvyyHXLABkHG8qanASup2RGc"
            ]
          }
        }, 
        {
          "value": 0.00200924,
          "n": 1,
          "scriptPubKey": {
            "asm": "OP_DUP OP_HASH160 38ddbe844fdcc01bca285e96f69deca29ac30d72 OP_EQUALVERIFY OP_CHECKSIG",
            "hex": "76a91438ddbe844fdcc01bca285e96f69deca29ac30d7288ac",
            "reqSigs": 1,
            "type": "pubkeyhash",
            "addresses": [
              "LQQdk1iGEMLgPMW5SvoNJeWDnQCQJTSuCS"
            ]
          }
        }
      ],
      "hex": "010000000113236b4762aad77ba29e3a0abeba503a33716d17296e5d6011809a3e29b99d2bf80000006b483045022100b10c69970652f7ada6cb9d1349f5207dbafbaa70ef9facaedeb33f086291f67e0220636bb273a80e360aeb25d2d5a41e1b4a6e439eb8455bcb6f0f8011f7e9aedce4012102b916280d0cd7204f57496651a89e65a5ddda4af95ef684e5df250aef903ad65fffffffff0275d50000000000001976a914c75daf0c138b796621476692b5d1bb700e6808eb88acdc100300000000001976a91438ddbe844fdcc01bca285e96f69deca29ac30d7288ac00000000"
    }, 
    {
      "txid": "3bf4ba3e5855f90882e2cf9d9483986b37d453473c2b4bef9d78a63f8bbc7d98",
      "hash": "3bf4ba3e5855f90882e2cf9d9483986b37d453473c2b4bef9d78a63f8bbc7d98",
      "version": 2,
      "size": 226,
      "vsize": 226,
      "locktime": 1357479,
      "vin": [
        {
          "txid": "4c5f3e04859d286bf51647bec5394f79f13f11f3c8b4e142060ca7e0bd43ec06",
          "vout": 1,
          "scriptSig": {
            "asm": "3045022100ed38f515015333cb67bb0b6b5109462dc696272419dd8a61d5a8bc396ed7de7c02200ddeb5773be01e6224cc90fcebab405167479d65461498ae6b613694cba194f1[ALL] 02296fc43e1ce6b3c6b74fd7932dd6a154ec1ddd35b12a9ea0a2f748dd50be0715",
            "hex": "483045022100ed38f515015333cb67bb0b6b5109462dc696272419dd8a61d5a8bc396ed7de7c02200ddeb5773be01e6224cc90fcebab405167479d65461498ae6b613694cba194f1012102296fc43e1ce6b3c6b74fd7932dd6a154ec1ddd35b12a9ea0a2f748dd50be0715"
          },
          "sequence": 4294967294
        }
      ],
      "vout": [
        {
          "value": 1.00000000,
          "n": 0,
          "scriptPubKey": {
            "asm": "OP_DUP OP_HASH160 cfab36ba07b389d79ce913ea4dee6b911ce7bb93 OP_EQUALVERIFY OP_CHECKSIG",
            "hex": "76a914cfab36ba07b389d79ce913ea4dee6b911ce7bb9388ac",
            "reqSigs": 1,
            "type": "pubkeyhash",
            "addresses": [
              "LeA1F4eHvwHKBko3i7pVsSZ655FRaDwjYL"
            ]
          }
        }, 
        {
          "value": 48.89742173,
          "n": 1,
          "scriptPubKey": {
            "asm": "OP_DUP OP_HASH160 78b6f6dea99adb795c154b58d64701265372240a OP_EQUALVERIFY OP_CHECKSIG",
            "hex": "76a91478b6f6dea99adb795c154b58d64701265372240a88ac",
            "reqSigs": 1,
            "type": "pubkeyhash",
            "addresses": [
              "LWEEXpNRbAP3YrXsbCVQJEKbbscL1kebnk"
            ]
          }
        }
      ],
      "hex": "020000000106ec43bde0a70c0642e1b4c8f3113ff1794f39c5be4716f56b289d85043e5f4c010000006b483045022100ed38f515015333cb67bb0b6b5109462dc696272419dd8a61d5a8bc396ed7de7c02200ddeb5773be01e6224cc90fcebab405167479d65461498ae6b613694cba194f1012102296fc43e1ce6b3c6b74fd7932dd6a154ec1ddd35b12a9ea0a2f748dd50be0715feffffff0200e1f505000000001976a914cfab36ba07b389d79ce913ea4dee6b911ce7bb9388ac5d8b7323010000001976a91478b6f6dea99adb795c154b58d64701265372240a88aca7b61400"
    }, 
    {
      "txid": "0f37a89f56048e1bdcfb87d5b47cfbb12b34af385180a5acfa8046504fabcbaa",
      "hash": "0f37a89f56048e1bdcfb87d5b47cfbb12b34af385180a5acfa8046504fabcbaa",
      "version": 1,
      "size": 226,
      "vsize": 226,
      "locktime": 0,
      "vin": [
        {
          "txid": "642532b75323ff6dc6007cdf57c5a278ef0ca1734f8dd67924d8cfd549bb711c",
          "vout": 0,
          "scriptSig": {
            "asm": "30450221008d8db01694bb91d581996dab9b1a1d927168221b729f2c4294c485c9b4925f1c022055f2b4f2b888f01efa30a3487428fa430cf9d4bab2ead3ea29a5c3eee465477b[ALL] 03b6a0cfb53c5775d46f29d245c2a76875ae1daf9cc93b08bff117cb7e76d55da3",
            "hex": "4830450221008d8db01694bb91d581996dab9b1a1d927168221b729f2c4294c485c9b4925f1c022055f2b4f2b888f01efa30a3487428fa430cf9d4bab2ead3ea29a5c3eee465477b012103b6a0cfb53c5775d46f29d245c2a76875ae1daf9cc93b08bff117cb7e76d55da3"
          },
          "sequence": 4294967295
        }
      ],
      "vout": [
        {
          "value": 3.35396756,
          "n": 0,
          "scriptPubKey": {
            "asm": "OP_DUP OP_HASH160 42df71059bb05ffdae0ab050e42afd5bf9c5945b OP_EQUALVERIFY OP_CHECKSIG",
            "hex": "76a91442df71059bb05ffdae0ab050e42afd5bf9c5945b88ac",
            "reqSigs": 1,
            "type": "pubkeyhash",
            "addresses": [
              "LRKYXrt8fcDgBbGSqEWnZwEG7ZhXb2c8wT"
            ]
          }
        }, 
        {
          "value": 54.71872527,
          "n": 1,
          "scriptPubKey": {
            "asm": "OP_DUP OP_HASH160 3e45fa40e6ebac60d941c57d69c974d0e679aec3 OP_EQUALVERIFY OP_CHECKSIG",
            "hex": "76a9143e45fa40e6ebac60d941c57d69c974d0e679aec388ac",
            "reqSigs": 1,
            "type": "pubkeyhash",
            "addresses": [
              "LQuDzER4nFxkisSfam3rvuqTdZz3m2SsfJ"
            ]
          }
        }
      ],
      "hex": "01000000011c71bb49d5cfd82479d68d4f73a10cef78a2c557df7c00c66dff2353b7322564000000006b4830450221008d8db01694bb91d581996dab9b1a1d927168221b729f2c4294c485c9b4925f1c022055f2b4f2b888f01efa30a3487428fa430cf9d4bab2ead3ea29a5c3eee465477b012103b6a0cfb53c5775d46f29d245c2a76875ae1daf9cc93b08bff117cb7e76d55da3ffffffff0294bffd13000000001976a91442df71059bb05ffdae0ab050e42afd5bf9c5945b88ac0f262646010000001976a9143e45fa40e6ebac60d941c57d69c974d0e679aec388ac00000000"
    }, 
    {
      "txid": "0ebd8bf9f988a7370c39ca2ce824c6f7d535d1181204049e0175e7f2f0ab3ac4",
      "hash": "0ebd8bf9f988a7370c39ca2ce824c6f7d535d1181204049e0175e7f2f0ab3ac4",
      "version": 1,
      "size": 226,
      "vsize": 226,
      "locktime": 0,
      "vin": [
        {
          "txid": "19fc0f670dbf1f1600dcd4acd536832a1aa901d36b57d706be051be55e4cfa22",
          "vout": 33,
          "scriptSig": {
            "asm": "3045022100dde76bb20c2944adb4f307fe64b146bc2c8706c9a58a89bfa36956f8e5a01fd80220787f7eb9870a1c85f9ff81f3ffa0985ec981f0c91e83f0aa1b65cb89d760931b[ALL] 03d94cc0a261ca3d6092b099ce667fac342a7afb0a73643cb9da8808d123bcc303",
            "hex": "483045022100dde76bb20c2944adb4f307fe64b146bc2c8706c9a58a89bfa36956f8e5a01fd80220787f7eb9870a1c85f9ff81f3ffa0985ec981f0c91e83f0aa1b65cb89d760931b012103d94cc0a261ca3d6092b099ce667fac342a7afb0a73643cb9da8808d123bcc303"
          },
          "sequence": 4294967295
        }
      ],
      "vout": [
        {
          "value": 0.14853604,
          "n": 0,
          "scriptPubKey": {
            "asm": "OP_DUP OP_HASH160 55bee557862176e6faefc5ef301f2d1a43b23978 OP_EQUALVERIFY OP_CHECKSIG",
            "hex": "76a91455bee557862176e6faefc5ef301f2d1a43b2397888ac",
            "reqSigs": 1,
            "type": "pubkeyhash",
            "addresses": [
              "LT3LPCKRgyW7JXH4SYXe4dE3pD6Ngcsp5F"
            ]
          }
        }, 
        {
          "value": 0.85123796,
          "n": 1,
          "scriptPubKey": {
            "asm": "OP_DUP OP_HASH160 4dd0c7ac9bf03c84c705d942430c80029cc8e2a3 OP_EQUALVERIFY OP_CHECKSIG",
            "hex": "76a9144dd0c7ac9bf03c84c705d942430c80029cc8e2a388ac",
            "reqSigs": 1,
            "type": "pubkeyhash",
            "addresses": [
              "LSKQQGgGA3ofhYt7d3SFMq9Lj8domeizWC"
            ]
          }
        }
      ],
      "hex": "010000000122fa4c5ee51b05be06d7576bd301a91a2a8336d5acd4dc00161fbf0d670ffc19210000006b483045022100dde76bb20c2944adb4f307fe64b146bc2c8706c9a58a89bfa36956f8e5a01fd80220787f7eb9870a1c85f9ff81f3ffa0985ec981f0c91e83f0aa1b65cb89d760931b012103d94cc0a261ca3d6092b099ce667fac342a7afb0a73643cb9da8808d123bcc303ffffffff02e4a5e200000000001976a91455bee557862176e6faefc5ef301f2d1a43b2397888acd4e21205000000001976a9144dd0c7ac9bf03c84c705d942430c80029cc8e2a388ac00000000"
    }, 
    {
      "txid": "1ffb0e71d6e19bb8f99dfddc6d8edde189b605a66f6a4c844aaf481b01ea75d9",
      "hash": "1ffb0e71d6e19bb8f99dfddc6d8edde189b605a66f6a4c844aaf481b01ea75d9",
      "version": 1,
      "size": 226,
      "vsize": 226,
      "locktime": 0,
      "vin": [
        {
          "txid": "eba24d9f25c711439f416ec14b358af9bfe60ee524c1ccbdfd1b3d66a701b20b",
          "vout": 1,
          "scriptSig": {
            "asm": "3045022100bb404708a26c8fa0bb8d326da45cbbede10ad58be994bf3e35e80596d4c328880220272350da6701524ac2066a5cd2712a2c69d6ea403aaa8bc8a540e308f3890d03[ALL] 03b7779f958e1e1fe0432267fad503ee0fafa2d218084c6394b1c24f57f5ecb1ee",
            "hex": "483045022100bb404708a26c8fa0bb8d326da45cbbede10ad58be994bf3e35e80596d4c328880220272350da6701524ac2066a5cd2712a2c69d6ea403aaa8bc8a540e308f3890d03012103b7779f958e1e1fe0432267fad503ee0fafa2d218084c6394b1c24f57f5ecb1ee"
          },
          "sequence": 4294967295
        }
      ],
      "vout": [
        {
          "value": 44.79554293,
          "n": 0,
          "scriptPubKey": {
            "asm": "OP_DUP OP_HASH160 ffc3d1d38626a9c97f12aeed78c2c7ca31599bb6 OP_EQUALVERIFY OP_CHECKSIG",
            "hex": "76a914ffc3d1d38626a9c97f12aeed78c2c7ca31599bb688ac",
            "reqSigs": 1,
            "type": "pubkeyhash",
            "addresses": [
              "LiYK9v7D8pBYCQKaNQznoqM1JgBqMWaZqA"
            ]
          }
        }, 
        {
          "value": 15.41300784,
          "n": 1,
          "scriptPubKey": {
            "asm": "OP_DUP OP_HASH160 aab4b7aeece121531d0e90fc9a9d7b0c6153682c OP_EQUALVERIFY OP_CHECKSIG",
            "hex": "76a914aab4b7aeece121531d0e90fc9a9d7b0c6153682c88ac",
            "reqSigs": 1,
            "type": "pubkeyhash",
            "addresses": [
              "LanZdJBjUA9pztrjhkiX6rCNR3e4xN5fGn"
            ]
          }
        }
      ],
      "hex": "01000000010bb201a7663d1bfdbdccc124e50ee6bff98a354bc16e419f4311c7259f4da2eb010000006b483045022100bb404708a26c8fa0bb8d326da45cbbede10ad58be994bf3e35e80596d4c328880220272350da6701524ac2066a5cd2712a2c69d6ea403aaa8bc8a540e308f3890d03012103b7779f958e1e1fe0432267fad503ee0fafa2d218084c6394b1c24f57f5ecb1eeffffffff02f592000b010000001976a914ffc3d1d38626a9c97f12aeed78c2c7ca31599bb688ac3062de5b000000001976a914aab4b7aeece121531d0e90fc9a9d7b0c6153682c88ac00000000"
    }
  ],
  "time": 1517008280,
  "mediantime": 1517007796,
  "nonce": 86480440,
  "bits": "1a047f14",
  "difficulty": 3731199.183374282,
  "chainwork": "00000000000000000000000000000000000000000000003243154544e85cf844",
  "previousblockhash": "ab488966f455aad2ef02b03919f8c9bd957939d301692a8b109b779c6087239c",
  "nextblockhash": "229a42bbd903b2caa91ce8acf473bd1fc981ba118a75941957bac04b7533b7ec"
}
