{
  "hash": "0186df6fc9af57294c854577ea3677d007ec3e1bac4f4b780c3b56523c096dfc",
  "confirmations": 3629,
  "strippedsize": 4064,
  "size": 4100,
  "weight": 16292,
  "height": 1357366,
  "version": 536870912,
  "versionHex": "20000000",
  "merkleroot": "69390d960da720726875ecfc2102d8f477383e689891098b21e033ac9a254b91",
  "tx": [
    {
      "txid": "794e7e2b9ec76fc0cc5ab65f9ab67ad17b11bf78d66bf4aaf9688fcc45af3a3b",
      "hash": "56ce3aa610c67f6608bc7ba7945ecd3a2e0cce9d75adbbe50c2e47d7f6eaad35",
      "version": 1,
      "size": 259,
      "vsize": 232,
      "locktime": 0,
      "vin": [
        {
          "coinbase": "0336b614182f5669614254432f4d696e656420627920707867756f7a2f2cfabe6d6dcb8c3d69e68151bf295e89d6d52321febfb198235a5f69355812bed2994faa7c010000000000000010d853cf0042362f412d4ace1a19000000",
          "sequence": 4294967295
        }
      ],
      "vout": [
        {
          "value": 25.01838292,
          "n": 0,
          "scriptPubKey": {
            "asm": "OP_DUP OP_HASH160 e16c28146ed4869c190b3f0bdc18d80d45f92134 OP_EQUALVERIFY OP_CHECKSIG",
            "hex": "76a914e16c28146ed4869c190b3f0bdc18d80d45f9213488ac",
            "reqSigs": 1,
            "type": "pubkeyhash",
            "addresses": [
              "LfmssDyX6iZvbVqHv6t9P6JWXia2JG7mdb"
            ]
          }
        }, 
        {
          "value": 0.00000000,
          "n": 1,
          "scriptPubKey": {
            "asm": "OP_RETURN aa21a9ed5963afd91d27033d2a9c2957050f832c8a00caf0b410c731db49ceecead241b3",
            "hex": "6a24aa21a9ed5963afd91d27033d2a9c2957050f832c8a00caf0b410c731db49ceecead241b3",
            "type": "nulldata"
          }
        }
      ],
      "hex": "010000000001010000000000000000000000000000000000000000000000000000000000000000ffffffff5b0336b614182f5669614254432f4d696e656420627920707867756f7a2f2cfabe6d6dcb8c3d69e68151bf295e89d6d52321febfb198235a5f69355812bed2994faa7c010000000000000010d853cf0042362f412d4ace1a19000000ffffffff02d4051f95000000001976a914e16c28146ed4869c190b3f0bdc18d80d45f9213488ac0000000000000000266a24aa21a9ed5963afd91d27033d2a9c2957050f832c8a00caf0b410c731db49ceecead241b30120000000000000000000000000000000000000000000000000000000000000000000000000"
    }, 
    {
      "txid": "ea24fca04c6b77ea6cd30696faddcb693c0e3070258b6de3aef84c13177ca5e1",
      "hash": "ea24fca04c6b77ea6cd30696faddcb693c0e3070258b6de3aef84c13177ca5e1",
      "version": 1,
      "size": 191,
      "vsize": 191,
      "locktime": 0,
      "vin": [
        {
          "txid": "1f7dbc48b08e22cb1a37f33ef9d2d2384fe8b384979f8dd6e00c25616074017b",
          "vout": 89,
          "scriptSig": {
            "asm": "3044022040ffb03230527ccbe80794a97e963f35a47044fb54437aa884e4c049d3c47ddd02200948ad8568d24e6f5f4d4dbc2b84a358dd4a3b67f94f6595bd197dbedf6ba74b[ALL] 0348890273f2eff11f73ef211591f498d10c4fbc7b668d3efad804cc6c2cdee7e3",
            "hex": "473044022040ffb03230527ccbe80794a97e963f35a47044fb54437aa884e4c049d3c47ddd02200948ad8568d24e6f5f4d4dbc2b84a358dd4a3b67f94f6595bd197dbedf6ba74b01210348890273f2eff11f73ef211591f498d10c4fbc7b668d3efad804cc6c2cdee7e3"
          },
          "sequence": 4294967295
        }
      ],
      "vout": [
        {
          "value": 0.06733172,
          "n": 0,
          "scriptPubKey": {
            "asm": "OP_DUP OP_HASH160 3f3639c71905e53bcaba78ae4799e5be1ec8a569 OP_EQUALVERIFY OP_CHECKSIG",
            "hex": "76a9143f3639c71905e53bcaba78ae4799e5be1ec8a56988ac",
            "reqSigs": 1,
            "type": "pubkeyhash",
            "addresses": [
              "LQzBnxxb8piy5YghZmgtpqwabvDNbr3QmH"
            ]
          }
        }
      ],
      "hex": "01000000017b01746061250ce0d68d9f9784b3e84f38d2d2f93ef3371acb228eb048bc7d1f590000006a473044022040ffb03230527ccbe80794a97e963f35a47044fb54437aa884e4c049d3c47ddd02200948ad8568d24e6f5f4d4dbc2b84a358dd4a3b67f94f6595bd197dbedf6ba74b01210348890273f2eff11f73ef211591f498d10c4fbc7b668d3efad804cc6c2cdee7e3ffffffff0174bd6600000000001976a9143f3639c71905e53bcaba78ae4799e5be1ec8a56988ac00000000"
    }, 
    {
      "txid": "b04acb357ca16ed933f8773b11afe459953403ae853987dd9115bee6c503cc5c",
      "hash": "b04acb357ca16ed933f8773b11afe459953403ae853987dd9115bee6c503cc5c",
      "version": 1,
      "size": 668,
      "vsize": 668,
      "locktime": 0,
      "vin": [
        {
          "txid": "f0d34db0fdcd7da90e7e58393160402c92422296dbffaa257387cf01d7d2d88c",
          "vout": 1,
          "scriptSig": {
            "asm": "3045022100ce879ae69c508b8722ff8e5fd631411c014d0bbaeb9a6edbe994cafb219a92ec02203f517cd698f1de42ef693e2e83dd35a1d45896d416d94e6fbffc5aaf5b625aef[ALL] 02ed70f12f90ab808bacb3317cf7fb075a55ca72dbd907562cf2f6128598dc0520",
            "hex": "483045022100ce879ae69c508b8722ff8e5fd631411c014d0bbaeb9a6edbe994cafb219a92ec02203f517cd698f1de42ef693e2e83dd35a1d45896d416d94e6fbffc5aaf5b625aef012102ed70f12f90ab808bacb3317cf7fb075a55ca72dbd907562cf2f6128598dc0520"
          },
          "sequence": 4294967295
        }, 
        {
          "txid": "7bc8a6a1e840c901b3d52f09aa3674308f37ceeb1e9c236abbad45a95b624c76",
          "vout": 1,
          "scriptSig": {
            "asm": "3044022043146047faf47c457d73a2a1c491f2826beb5e1423b2c7c78e8d62bb75e58927022063a160133050710405ad16680a5cb952d83e7899522b97673e2044a457d8ff30[ALL] 02fab6d1e6ece8649fe0649294690420a70d060f4839f3e5b400aa7a3b87bda787",
            "hex": "473044022043146047faf47c457d73a2a1c491f2826beb5e1423b2c7c78e8d62bb75e58927022063a160133050710405ad16680a5cb952d83e7899522b97673e2044a457d8ff30012102fab6d1e6ece8649fe0649294690420a70d060f4839f3e5b400aa7a3b87bda787"
          },
          "sequence": 4294967295
        }, 
        {
          "txid": "dd326fd178b6cce604d979a6e98c3e3a72f64a5020fcb30ef41b1e9c456a4ce9",
          "vout": 1,
          "scriptSig": {
            "asm": "304402202d93a10f903ee6476d21cb78e4302b45946637d565636254c6040fcba4228498022018a6d8e5d8471993eb11d860256339395d1a7ac62b8665bd8b3dfa0201a262f7[ALL] 02922d4e06152584d10cccba2df984c093a64a8ffa5a0c9c3cf4c531a1ce814947",
            "hex": "47304402202d93a10f903ee6476d21cb78e4302b45946637d565636254c6040fcba4228498022018a6d8e5d8471993eb11d860256339395d1a7ac62b8665bd8b3dfa0201a262f7012102922d4e06152584d10cccba2df984c093a64a8ffa5a0c9c3cf4c531a1ce814947"
          },
          "sequence": 4294967295
        }, 
        {
          "txid": "38561eaf2a81caa863d54214ba7a157019fee26aeedce110d939c3e1e0f75999",
          "vout": 1,
          "scriptSig": {
            "asm": "3045022100dfbed4e008ff3bcd96b8930d766b220ce70119de4171f2fc37a2f302443a994f0220686a94c526bd23de2ca337ae81b7ba32a725e9ff26813361df7e7c99c2273426[ALL] 0349a7333bc7bf7ba73e042f148ffd38fca6b6ebc028f637745d213ac012f0dc64",
            "hex": "483045022100dfbed4e008ff3bcd96b8930d766b220ce70119de4171f2fc37a2f302443a994f0220686a94c526bd23de2ca337ae81b7ba32a725e9ff26813361df7e7c99c227342601210349a7333bc7bf7ba73e042f148ffd38fca6b6ebc028f637745d213ac012f0dc64"
          },
          "sequence": 4294967295
        }
      ],
      "vout": [
        {
          "value": 0.20000000,
          "n": 0,
          "scriptPubKey": {
            "asm": "OP_DUP OP_HASH160 b4f44ff81c68fb555cb3c502ca1647fa785e3990 OP_EQUALVERIFY OP_CHECKSIG",
            "hex": "76a914b4f44ff81c68fb555cb3c502ca1647fa785e399088ac",
            "reqSigs": 1,
            "type": "pubkeyhash",
            "addresses": [
              "LbikZs5V7Siaj5mCh6PEx1xXd6GWE8D2VG"
            ]
          }
        }, 
        {
          "value": 0.35204957,
          "n": 1,
          "scriptPubKey": {
            "asm": "OP_DUP OP_HASH160 dc7ce7dab559b290e756b517979f58c91c828827 OP_EQUALVERIFY OP_CHECKSIG",
            "hex": "76a914dc7ce7dab559b290e756b517979f58c91c82882788ac",
            "reqSigs": 1,
            "type": "pubkeyhash",
            "addresses": [
              "LfKnZ1oFbpvGYnSp47pKzCfxtEzYwREYbv"
            ]
          }
        }
      ],
      "hex": "01000000048cd8d2d701cf877325aaffdb962242922c40603139587e0ea97dcdfdb04dd3f0010000006b483045022100ce879ae69c508b8722ff8e5fd631411c014d0bbaeb9a6edbe994cafb219a92ec02203f517cd698f1de42ef693e2e83dd35a1d45896d416d94e6fbffc5aaf5b625aef012102ed70f12f90ab808bacb3317cf7fb075a55ca72dbd907562cf2f6128598dc0520ffffffff764c625ba945adbb6a239c1eebce378f307436aa092fd5b301c940e8a1a6c87b010000006a473044022043146047faf47c457d73a2a1c491f2826beb5e1423b2c7c78e8d62bb75e58927022063a160133050710405ad16680a5cb952d83e7899522b97673e2044a457d8ff30012102fab6d1e6ece8649fe0649294690420a70d060f4839f3e5b400aa7a3b87bda787ffffffffe94c6a459c1e1bf40eb3fc20504af6723a3e8ce9a679d904e6ccb678d16f32dd010000006a47304402202d93a10f903ee6476d21cb78e4302b45946637d565636254c6040fcba4228498022018a6d8e5d8471993eb11d860256339395d1a7ac62b8665bd8b3dfa0201a262f7012102922d4e06152584d10cccba2df984c093a64a8ffa5a0c9c3cf4c531a1ce814947ffffffff9959f7e0e1c339d910e1dcee6ae2fe1970157aba1442d563a8ca812aaf1e5638010000006b483045022100dfbed4e008ff3bcd96b8930d766b220ce70119de4171f2fc37a2f302443a994f0220686a94c526bd23de2ca337ae81b7ba32a725e9ff26813361df7e7c99c227342601210349a7333bc7bf7ba73e042f148ffd38fca6b6ebc028f637745d213ac012f0dc64ffffffff02002d3101000000001976a914b4f44ff81c68fb555cb3c502ca1647fa785e399088ac5d2f1902000000001976a914dc7ce7dab559b290e756b517979f58c91c82882788ac00000000"
    }, 
    {
      "txid": "e9fbc36d20dd00f9c8868dcabc04451e72e9fbdfe869eca4da7ba870a25ea1bb",
      "hash": "e9fbc36d20dd00f9c8868dcabc04451e72e9fbdfe869eca4da7ba870a25ea1bb",
      "version": 1,
      "size": 816,
      "vsize": 816,
      "locktime": 0,
      "vin": [
        {
          "txid": "c1cac21643ea377d3cbe7fc74a4514dad48d0961838dd5cc35e4d0ffd6500c11",
          "vout": 1,
          "scriptSig": {
            "asm": "3045022100955b427e18dbeb77d3ac79ad52d77dd438d24412caea37a0284c622ac60004610220125b7d39979a1c1ae76890ccac9e22d9982d77c681cd4d064a8c61f0241e7fca[ALL] 02bf2b578389d931fb5b9c10e488e6fab310d125455b5e221ef2fa5879b848a1a9",
            "hex": "483045022100955b427e18dbeb77d3ac79ad52d77dd438d24412caea37a0284c622ac60004610220125b7d39979a1c1ae76890ccac9e22d9982d77c681cd4d064a8c61f0241e7fca012102bf2b578389d931fb5b9c10e488e6fab310d125455b5e221ef2fa5879b848a1a9"
          },
          "sequence": 4294967295
        }, 
        {
          "txid": "2a951bdb56f7dd221eeeeba9024cfcf959333b9e8c32ccda17043eb5b08e7a5e",
          "vout": 0,
          "scriptSig": {
            "asm": "304402205e51a7115415b440bc420c0c1f6a33746c201337c4ebceb937950d18d478beba0220135b07a2f606b4e715bfd4fa058748b79fbd87ccbeb9caf42dd5e69242a63e2e[ALL] 038f112ab53dc4465299cb1c31e3aaf9eb99d5ace5088950e7291afa8c7325b1bf",
            "hex": "47304402205e51a7115415b440bc420c0c1f6a33746c201337c4ebceb937950d18d478beba0220135b07a2f606b4e715bfd4fa058748b79fbd87ccbeb9caf42dd5e69242a63e2e0121038f112ab53dc4465299cb1c31e3aaf9eb99d5ace5088950e7291afa8c7325b1bf"
          },
          "sequence": 4294967295
        }, 
        {
          "txid": "c6d70a00a2db46a66ed2468b1472d6d1626abc3eed99913ee955770dd22eee0f",
          "vout": 0,
          "scriptSig": {
            "asm": "3045022100d1737827a476ff9f45d93a909970b5b99fa12ec8c77d49831280a84e3c73bee8022060273cdbfe9dba12437510a426ea3906eb97c7b806f28fb2a1b78fa3d2830852[ALL] 03d74d20e0f913abc2af4a552b235b70e68649cfa3a21cdf8d1f76913b214785fd",
            "hex": "483045022100d1737827a476ff9f45d93a909970b5b99fa12ec8c77d49831280a84e3c73bee8022060273cdbfe9dba12437510a426ea3906eb97c7b806f28fb2a1b78fa3d2830852012103d74d20e0f913abc2af4a552b235b70e68649cfa3a21cdf8d1f76913b214785fd"
          },
          "sequence": 4294967295
        }, 
        {
          "txid": "3859e7db2988c780fac2856c01542a6ec78ad3a8619b3288151cefafad69e54b",
          "vout": 0,
          "scriptSig": {
            "asm": "3045022100a8047a23e46860c8e52ef9adabbc2a9468a657fc93d147a2e776f3b3eaccfa5d02202588c4e46c5ac3b9a2ff613cf9690cfad71593e16f34e29800b043d384ac28a0[ALL] 023dcfaa557edae4cfb472d5d61383ff3d88a7c090bf0c5170c3fcff3cbcf7c520",
            "hex": "483045022100a8047a23e46860c8e52ef9adabbc2a9468a657fc93d147a2e776f3b3eaccfa5d02202588c4e46c5ac3b9a2ff613cf9690cfad71593e16f34e29800b043d384ac28a00121023dcfaa557edae4cfb472d5d61383ff3d88a7c090bf0c5170c3fcff3cbcf7c520"
          },
          "sequence": 4294967295
        }, 
        {
          "txid": "2e559c40627ad419f80a19021accbd0f8320160fdaab66b836dead211ba4f152",
          "vout": 1,
          "scriptSig": {
            "asm": "3044022073f9abd0be39e8b8728b61b9d5c8d8c7f3066aed2334800aa8d2827e5881143602207b4349594e2b460d8e4ac5e26b82ac49f33500dc3ae7f022d9ad50c537a0d9b7[ALL] 036146a42c8635f58bd9c6ee95dbc0d586fc1073ebd0c7bf2dbdccfa8fddb33245",
            "hex": "473044022073f9abd0be39e8b8728b61b9d5c8d8c7f3066aed2334800aa8d2827e5881143602207b4349594e2b460d8e4ac5e26b82ac49f33500dc3ae7f022d9ad50c537a0d9b70121036146a42c8635f58bd9c6ee95dbc0d586fc1073ebd0c7bf2dbdccfa8fddb33245"
          },
          "sequence": 4294967295
        }
      ],
      "vout": [
        {
          "value": 1.70843309,
          "n": 0,
          "scriptPubKey": {
            "asm": "OP_DUP OP_HASH160 98522be5852c3128192e508605e559e3d0ac94bd OP_EQUALVERIFY OP_CHECKSIG",
            "hex": "76a91498522be5852c3128192e508605e559e3d0ac94bd88ac",
            "reqSigs": 1,
            "type": "pubkeyhash",
            "addresses": [
              "LZ7MQkAsaqkoU8tHmPAhzQByqupAtsVyMq"
            ]
          }
        }, 
        {
          "value": 2.45298690,
          "n": 1,
          "scriptPubKey": {
            "asm": "OP_DUP OP_HASH160 c0429c58b9e8e9fd3c5d47b174b4412b3382fef1 OP_EQUALVERIFY OP_CHECKSIG",
            "hex": "76a914c0429c58b9e8e9fd3c5d47b174b4412b3382fef188ac",
            "reqSigs": 1,
            "type": "pubkeyhash",
            "addresses": [
              "LckXoEpMiX1zL7NyQm4W7qvb3QTFZnbwjn"
            ]
          }
        }
      ],
      "hex": "0100000005110c50d6ffd0e435ccd58d8361098dd4da14454ac77fbe3c7d37ea4316c2cac1010000006b483045022100955b427e18dbeb77d3ac79ad52d77dd438d24412caea37a0284c622ac60004610220125b7d39979a1c1ae76890ccac9e22d9982d77c681cd4d064a8c61f0241e7fca012102bf2b578389d931fb5b9c10e488e6fab310d125455b5e221ef2fa5879b848a1a9ffffffff5e7a8eb0b53e0417dacc328c9e3b3359f9fc4c02a9ebee1e22ddf756db1b952a000000006a47304402205e51a7115415b440bc420c0c1f6a33746c201337c4ebceb937950d18d478beba0220135b07a2f606b4e715bfd4fa058748b79fbd87ccbeb9caf42dd5e69242a63e2e0121038f112ab53dc4465299cb1c31e3aaf9eb99d5ace5088950e7291afa8c7325b1bfffffffff0fee2ed20d7755e93e9199ed3ebc6a62d1d672148b46d26ea646dba2000ad7c6000000006b483045022100d1737827a476ff9f45d93a909970b5b99fa12ec8c77d49831280a84e3c73bee8022060273cdbfe9dba12437510a426ea3906eb97c7b806f28fb2a1b78fa3d2830852012103d74d20e0f913abc2af4a552b235b70e68649cfa3a21cdf8d1f76913b214785fdffffffff4be569adafef1c1588329b61a8d38ac76e2a54016c85c2fa80c78829dbe75938000000006b483045022100a8047a23e46860c8e52ef9adabbc2a9468a657fc93d147a2e776f3b3eaccfa5d02202588c4e46c5ac3b9a2ff613cf9690cfad71593e16f34e29800b043d384ac28a00121023dcfaa557edae4cfb472d5d61383ff3d88a7c090bf0c5170c3fcff3cbcf7c520ffffffff52f1a41b21adde36b866abda0f1620830fbdcc1a02190af819d47a62409c552e010000006a473044022073f9abd0be39e8b8728b61b9d5c8d8c7f3066aed2334800aa8d2827e5881143602207b4349594e2b460d8e4ac5e26b82ac49f33500dc3ae7f022d9ad50c537a0d9b70121036146a42c8635f58bd9c6ee95dbc0d586fc1073ebd0c7bf2dbdccfa8fddb33245ffffffff02addc2e0a000000001976a91498522be5852c3128192e508605e559e3d0ac94bd88ac02f69e0e000000001976a914c0429c58b9e8e9fd3c5d47b174b4412b3382fef188ac00000000"
    }, 
    {
      "txid": "4a2c32b46319cd6d2dee56c6c45621f76d3c57ac6885cac4c9f696b437791306",
      "hash": "4a2c32b46319cd6d2dee56c6c45621f76d3c57ac6885cac4c9f696b437791306",
      "version": 1,
      "size": 225,
      "vsize": 225,
      "locktime": 0,
      "vin": [
        {
          "txid": "b31cc16d82f3e36061c841a621cffead9f6ff56d5a6f4a91c31ed2c527caf7d1",
          "vout": 1,
          "scriptSig": {
            "asm": "30440220090cdfe04188ff7fafeb5e0a9bba6dec42262812e0d100a0f2881fc19ba942f30220227b3cdb05b155f3d36170912dc0316081b67fda96774390098713035be9eb3d[ALL] 0262241ff7f3d1d099237cf813b257e4a620b544fe1c29914119750b107cccccba",
            "hex": "4730440220090cdfe04188ff7fafeb5e0a9bba6dec42262812e0d100a0f2881fc19ba942f30220227b3cdb05b155f3d36170912dc0316081b67fda96774390098713035be9eb3d01210262241ff7f3d1d099237cf813b257e4a620b544fe1c29914119750b107cccccba"
          },
          "sequence": 4294967295
        }
      ],
      "vout": [
        {
          "value": 403.67375000,
          "n": 0,
          "scriptPubKey": {
            "asm": "OP_DUP OP_HASH160 6652f70f5e233e7b168474441537c9a5710954df OP_EQUALVERIFY OP_CHECKSIG",
            "hex": "76a9146652f70f5e233e7b168474441537c9a5710954df88ac",
            "reqSigs": 1,
            "type": "pubkeyhash",
            "addresses": [
              "LUYzaJ2en6RvUrShY3i8iovATkkx97g8rj"
            ]
          }
        }, 
        {
          "value": 50.03952549,
          "n": 1,
          "scriptPubKey": {
            "asm": "OP_DUP OP_HASH160 e17fe9969656013e885533139c301cbedfc6ae2a OP_EQUALVERIFY OP_CHECKSIG",
            "hex": "76a914e17fe9969656013e885533139c301cbedfc6ae2a88ac",
            "reqSigs": 1,
            "type": "pubkeyhash",
            "addresses": [
              "LfnHXtTPfgtNjddS8hvSUmSUUTM6ETHyUL"
            ]
          }
        }
      ],
      "hex": "0100000001d1f7ca27c5d21ec3914a6f5a6df56f9fadfecf21a641c86160e3f3826dc11cb3010000006a4730440220090cdfe04188ff7fafeb5e0a9bba6dec42262812e0d100a0f2881fc19ba942f30220227b3cdb05b155f3d36170912dc0316081b67fda96774390098713035be9eb3d01210262241ff7f3d1d099237cf813b257e4a620b544fe1c29914119750b107cccccbaffffffff0298421566090000001976a9146652f70f5e233e7b168474441537c9a5710954df88aca541422a010000001976a914e17fe9969656013e885533139c301cbedfc6ae2a88ac00000000"
    }, 
    {
      "txid": "b96db5420f05166558e0353a87643bdbc2e48c45ccd791579a86acae6a0b48de",
      "hash": "b96db5420f05166558e0353a87643bdbc2e48c45ccd791579a86acae6a0b48de",
      "version": 1,
      "size": 225,
      "vsize": 225,
      "locktime": 0,
      "vin": [
        {
          "txid": "2af67ceb0fad9a330c1ecb5f7e1cf38d3875c9593e77d106e8017c12d0ab3744",
          "vout": 1,
          "scriptSig": {
            "asm": "304402201b5487554abf5ad4adcd7c2fe8c1428a74889f3f7f6a953aa2ed5faa95e857830220131ab4ddc2e61d860fe04ba478f93cb126120111cc00d1f7f185fec72ec12bb0[ALL] 039d20d92f974824b0e55e50d27645966461e8c74ef9583ed07e67d6decde5bcac",
            "hex": "47304402201b5487554abf5ad4adcd7c2fe8c1428a74889f3f7f6a953aa2ed5faa95e857830220131ab4ddc2e61d860fe04ba478f93cb126120111cc00d1f7f185fec72ec12bb00121039d20d92f974824b0e55e50d27645966461e8c74ef9583ed07e67d6decde5bcac"
          },
          "sequence": 4294967295
        }
      ],
      "vout": [
        {
          "value": 1.99900000,
          "n": 0,
          "scriptPubKey": {
            "asm": "OP_DUP OP_HASH160 c0add5d274f6e184c7d0b9c1a9c9b0f29c078913 OP_EQUALVERIFY OP_CHECKSIG",
            "hex": "76a914c0add5d274f6e184c7d0b9c1a9c9b0f29c07891388ac",
            "reqSigs": 1,
            "type": "pubkeyhash",
            "addresses": [
              "LcnkFL2WzSm8jv9zfhPEgEeZFnTKiPc96B"
            ]
          }
        }, 
        {
          "value": 165.47884322,
          "n": 1,
          "scriptPubKey": {
            "asm": "OP_DUP OP_HASH160 65ca3f75aff654d787a83858afaea0a3f7bf72e2 OP_EQUALVERIFY OP_CHECKSIG",
            "hex": "76a91465ca3f75aff654d787a83858afaea0a3f7bf72e288ac",
            "reqSigs": 1,
            "type": "pubkeyhash",
            "addresses": [
              "LUWAo1yUZdHjVLxc5STYJmpVVGZvjXPk1j"
            ]
          }
        }
      ],
      "hex": "01000000014437abd0127c01e806d1773e59c975388df31c7e5fcb1e0c339aad0feb7cf62a010000006a47304402201b5487554abf5ad4adcd7c2fe8c1428a74889f3f7f6a953aa2ed5faa95e857830220131ab4ddc2e61d860fe04ba478f93cb126120111cc00d1f7f185fec72ec12bb00121039d20d92f974824b0e55e50d27645966461e8c74ef9583ed07e67d6decde5bcacffffffff02603bea0b000000001976a914c0add5d274f6e184c7d0b9c1a9c9b0f29c07891388ac22ad54da030000001976a91465ca3f75aff654d787a83858afaea0a3f7bf72e288ac00000000"
    }, 
    {
      "txid": "7b75e4bed7a7aa7894c6578f058647100f5d1e8c5d7e15b1a68f2b4a3b8a4f17",
      "hash": "7b75e4bed7a7aa7894c6578f058647100f5d1e8c5d7e15b1a68f2b4a3b8a4f17",
      "version": 1,
      "size": 225,
      "vsize": 225,
      "locktime": 0,
      "vin": [
        {
          "txid": "39d83f42fbe91c40e5a4cdeadca07c7bceff6300246fc6f02aeb65f191b543e8",
          "vout": 1,
          "scriptSig": {
            "asm": "304402206fd0d4079ebea387f75c95b0ec542903e9c04c5192270433f2476b4de835527c022006e5c7715f2c1e18d7738f91bb66f0e0017c918a659bce2a565a58ea88e26c1f[ALL] 039f166945b6236e32fbbefba737716c4359402e9b697b176b560d2381f3423889",
            "hex": "47304402206fd0d4079ebea387f75c95b0ec542903e9c04c5192270433f2476b4de835527c022006e5c7715f2c1e18d7738f91bb66f0e0017c918a659bce2a565a58ea88e26c1f0121039f166945b6236e32fbbefba737716c4359402e9b697b176b560d2381f3423889"
          },
          "sequence": 4294967295
        }
      ],
      "vout": [
        {
          "value": 1.16145520,
          "n": 0,
          "scriptPubKey": {
            "asm": "OP_DUP OP_HASH160 360b930805afa1ea771a500ff22a120e9062e77b OP_EQUALVERIFY OP_CHECKSIG",
            "hex": "76a914360b930805afa1ea771a500ff22a120e9062e77b88ac",
            "reqSigs": 1,
            "type": "pubkeyhash",
            "addresses": [
              "LQ9icmgVmFUdzLBDmfXFEyLhHWJNXELeqY"
            ]
          }
        }, 
        {
          "value": 0.78277307,
          "n": 1,
          "scriptPubKey": {
            "asm": "OP_DUP OP_HASH160 28eb1777e044f221d550ee8b9d331968863b2075 OP_EQUALVERIFY OP_CHECKSIG",
            "hex": "76a91428eb1777e044f221d550ee8b9d331968863b207588ac",
            "reqSigs": 1,
            "type": "pubkeyhash",
            "addresses": [
              "LNxJvLnq5NRMJ9cqnWifrehjKFeLCoEJk5"
            ]
          }
        }
      ],
      "hex": "0100000001e843b591f165eb2af0c66f240063ffce7b7ca0dceacda4e5401ce9fb423fd839010000006a47304402206fd0d4079ebea387f75c95b0ec542903e9c04c5192270433f2476b4de835527c022006e5c7715f2c1e18d7738f91bb66f0e0017c918a659bce2a565a58ea88e26c1f0121039f166945b6236e32fbbefba737716c4359402e9b697b176b560d2381f3423889ffffffff02703dec06000000001976a914360b930805afa1ea771a500ff22a120e9062e77b88acbb6aaa04000000001976a91428eb1777e044f221d550ee8b9d331968863b207588ac00000000"
    }, 
    {
      "txid": "e95ae9189fbbf76ac2c72e638d1acd20d8e0086da4140150780f1b9d8414ec51",
      "hash": "e95ae9189fbbf76ac2c72e638d1acd20d8e0086da4140150780f1b9d8414ec51",
      "version": 1,
      "size": 225,
      "vsize": 225,
      "locktime": 0,
      "vin": [
        {
          "txid": "fb069a2c5580baebb348b0378bd6f3b3262fe9489ae3b89b5065f1dd1b55200e",
          "vout": 1,
          "scriptSig": {
            "asm": "30440220172bc8fd7031b7523f6e9d288597595c50d413d76f2af1a63d22ada7a18ec8e4022051cc9e8381c4c941283d502a1afc87df97e04e1b399234643df96977f90705d4[ALL] 03cb929f998ad7f9cbf9598a93d9a1ad2625158f9f3590b1a03594ed3c5d508f01",
            "hex": "4730440220172bc8fd7031b7523f6e9d288597595c50d413d76f2af1a63d22ada7a18ec8e4022051cc9e8381c4c941283d502a1afc87df97e04e1b399234643df96977f90705d4012103cb929f998ad7f9cbf9598a93d9a1ad2625158f9f3590b1a03594ed3c5d508f01"
          },
          "sequence": 4294967295
        }
      ],
      "vout": [
        {
          "value": 0.02310680,
          "n": 0,
          "scriptPubKey": {
            "asm": "OP_DUP OP_HASH160 05512097936057f03a4d12b41710783219976379 OP_EQUALVERIFY OP_CHECKSIG",
            "hex": "76a91405512097936057f03a4d12b4171078321997637988ac",
            "reqSigs": 1,
            "type": "pubkeyhash",
            "addresses": [
              "LKi4pzm6Umr3Fqp44paP9YYq61s5bUAxkL"
            ]
          }
        }, 
        {
          "value": 0.51563000,
          "n": 1,
          "scriptPubKey": {
            "asm": "OP_DUP OP_HASH160 42b23dd18eb4d503cab746478d99b839ca74c48b OP_EQUALVERIFY OP_CHECKSIG",
            "hex": "76a91442b23dd18eb4d503cab746478d99b839ca74c48b88ac",
            "reqSigs": 1,
            "type": "pubkeyhash",
            "addresses": [
              "LRJcPJsLkKEJWMHiiZywQEppB3gk2N61U8"
            ]
          }
        }
      ],
      "hex": "01000000010e20551bddf165509bb8e39a48e92f26b3f3d68b37b048b3ebba80552c9a06fb010000006a4730440220172bc8fd7031b7523f6e9d288597595c50d413d76f2af1a63d22ada7a18ec8e4022051cc9e8381c4c941283d502a1afc87df97e04e1b399234643df96977f90705d4012103cb929f998ad7f9cbf9598a93d9a1ad2625158f9f3590b1a03594ed3c5d508f01ffffffff0218422300000000001976a91405512097936057f03a4d12b4171078321997637988acf8c91203000000001976a91442b23dd18eb4d503cab746478d99b839ca74c48b88ac00000000"
    }, 
    {
      "txid": "e8b52a7dd1c4ed76775f22af1c006d5b2d1808da5604256322655904f9407592",
      "hash": "e8b52a7dd1c4ed76775f22af1c006d5b2d1808da5604256322655904f9407592",
      "version": 1,
      "size": 225,
      "vsize": 225,
      "locktime": 0,
      "vin": [
        {
          "txid": "a9850fcfd5a0d0369cc52de9229ede2f505cdd1d88b4a83cd9a8753c6d5d82c8",
          "vout": 1,
          "scriptSig": {
            "asm": "3044022025bc8ad6e4ce86eef064a6cff8d8031df88ed627d45686ba398dc49d1c266fbf02203e3c92f1a1d7f11a61ba7f8e261db8f42f8ed5eaf9c4b00a89e13c8375d1dd97[ALL] 02dbebddb30112be68bec3d7eb1305cd9b26ffdbeef8776bea86d31827d6c90820",
            "hex": "473044022025bc8ad6e4ce86eef064a6cff8d8031df88ed627d45686ba398dc49d1c266fbf02203e3c92f1a1d7f11a61ba7f8e261db8f42f8ed5eaf9c4b00a89e13c8375d1dd97012102dbebddb30112be68bec3d7eb1305cd9b26ffdbeef8776bea86d31827d6c90820"
          },
          "sequence": 4294967295
        }
      ],
      "vout": [
        {
          "value": 0.02697156,
          "n": 0,
          "scriptPubKey": {
            "asm": "OP_DUP OP_HASH160 1b82a64f742d2a15f0eba6c233a821561373cb30 OP_EQUALVERIFY OP_CHECKSIG",
            "hex": "76a9141b82a64f742d2a15f0eba6c233a821561373cb3088ac",
            "reqSigs": 1,
            "type": "pubkeyhash",
            "addresses": [
              "LMjR268VRXAfx9cEx2ssGAeVZNT4dXmZKP"
            ]
          }
        }, 
        {
          "value": 0.66257644,
          "n": 1,
          "scriptPubKey": {
            "asm": "OP_DUP OP_HASH160 812d1f0ccbfd7abf385ef7d7ea1ec2ec98c48af0 OP_EQUALVERIFY OP_CHECKSIG",
            "hex": "76a914812d1f0ccbfd7abf385ef7d7ea1ec2ec98c48af088ac",
            "reqSigs": 1,
            "type": "pubkeyhash",
            "addresses": [
              "LWzyV3M3v8Mk8GUECkUbcrw9X5p22wW4P3"
            ]
          }
        }
      ],
      "hex": "0100000001c8825d6d3c75a8d93ca8b4881ddd5c502fde9e22e92dc59c36d0a0d5cf0f85a9010000006a473044022025bc8ad6e4ce86eef064a6cff8d8031df88ed627d45686ba398dc49d1c266fbf02203e3c92f1a1d7f11a61ba7f8e261db8f42f8ed5eaf9c4b00a89e13c8375d1dd97012102dbebddb30112be68bec3d7eb1305cd9b26ffdbeef8776bea86d31827d6c90820ffffffff02c4272900000000001976a9141b82a64f742d2a15f0eba6c233a821561373cb3088acec02f303000000001976a914812d1f0ccbfd7abf385ef7d7ea1ec2ec98c48af088ac00000000"
    }, 
    {
      "txid": "aafac2867239e24ea4bcabf755b8e0f85f5ada876f739e759e073ff7e48213ee",
      "hash": "aafac2867239e24ea4bcabf755b8e0f85f5ada876f739e759e073ff7e48213ee",
      "version": 1,
      "size": 225,
      "vsize": 225,
      "locktime": 0,
      "vin": [
        {
          "txid": "5cc24713eb80155bd6dcb55781badf5c428d81fa0d87f37810c6fc7c73d11dcc",
          "vout": 31,
          "scriptSig": {
            "asm": "304402210087a1de7013615af88ed5f5db952236a15f60bb5276c22dc2eedb8c2530fff1a6021f2dcc09db2e4a4f600d532ca47d282416846bf10e84b1a9842e31a549a3df61[ALL] 02a4c9df2001add3e991b1369d325d2b910806a1c8d0df36420dd632d673dcd62b",
            "hex": "47304402210087a1de7013615af88ed5f5db952236a15f60bb5276c22dc2eedb8c2530fff1a6021f2dcc09db2e4a4f600d532ca47d282416846bf10e84b1a9842e31a549a3df61012102a4c9df2001add3e991b1369d325d2b910806a1c8d0df36420dd632d673dcd62b"
          },
          "sequence": 4294967295
        }
      ],
      "vout": [
        {
          "value": 0.04010000,
          "n": 0,
          "scriptPubKey": {
            "asm": "OP_DUP OP_HASH160 00f8ecea4cf4021d6da7692f837003fd6d4f5ebc OP_EQUALVERIFY OP_CHECKSIG",
            "hex": "76a91400f8ecea4cf4021d6da7692f837003fd6d4f5ebc88ac",
            "reqSigs": 1,
            "type": "pubkeyhash",
            "addresses": [
              "LKK6TrdXVvis5kRLoAh17BVAXcSzqvh7KV"
            ]
          }
        }, 
        {
          "value": 0.00071757,
          "n": 1,
          "scriptPubKey": {
            "asm": "OP_DUP OP_HASH160 b2f594fbffc6998b03285e45394a1e46c11303de OP_EQUALVERIFY OP_CHECKSIG",
            "hex": "76a914b2f594fbffc6998b03285e45394a1e46c11303de88ac",
            "reqSigs": 1,
            "type": "pubkeyhash",
            "addresses": [
              "LbYCjhANaDbLUdZGqVhxao9dkjNGFqPKke"
            ]
          }
        }
      ],
      "hex": "0100000001cc1dd1737cfcc61078f3870dfa818d425cdfba8157b5dcd65b1580eb1347c25c1f0000006a47304402210087a1de7013615af88ed5f5db952236a15f60bb5276c22dc2eedb8c2530fff1a6021f2dcc09db2e4a4f600d532ca47d282416846bf10e84b1a9842e31a549a3df61012102a4c9df2001add3e991b1369d325d2b910806a1c8d0df36420dd632d673dcd62bffffffff0210303d00000000001976a91400f8ecea4cf4021d6da7692f837003fd6d4f5ebc88ac4d180100000000001976a914b2f594fbffc6998b03285e45394a1e46c11303de88ac00000000"
    }, 
    {
      "txid": "d83c568897790fa3628c6626fe28577e1516f072c173d5c2d878200a005c47fc",
      "hash": "d83c568897790fa3628c6626fe28577e1516f072c173d5c2d878200a005c47fc",
      "version": 1,
      "size": 226,
      "vsize": 226,
      "locktime": 0,
      "vin": [
        {
          "txid": "bbe69801e664260d6c662104dc39469dcb469484e66f5f9aa6c14806151d2818",
          "vout": 0,
          "scriptSig": {
            "asm": "3045022100e1ebc361ea9c3220c7920b2edd5ddf30c3cdfd8cbd2753c34318b20ab2e942c1022072a27344f7339be272258979af098bac1e4db7a251a32a92731721affcf17ede[ALL] 02621f984600b270be58127224ee5821a997ad4d25e72add1b429a9722359173f9",
            "hex": "483045022100e1ebc361ea9c3220c7920b2edd5ddf30c3cdfd8cbd2753c34318b20ab2e942c1022072a27344f7339be272258979af098bac1e4db7a251a32a92731721affcf17ede012102621f984600b270be58127224ee5821a997ad4d25e72add1b429a9722359173f9"
          },
          "sequence": 4294967295
        }
      ],
      "vout": [
        {
          "value": 0.08539996,
          "n": 0,
          "scriptPubKey": {
            "asm": "OP_DUP OP_HASH160 68bcd22c8e0d55988609ce0b4680569590874050 OP_EQUALVERIFY OP_CHECKSIG",
            "hex": "76a91468bcd22c8e0d55988609ce0b468056959087405088ac",
            "reqSigs": 1,
            "type": "pubkeyhash",
            "addresses": [
              "LUmkjgA4wRh1Kpa1Vv49ZBjcPKMWuPeSnb"
            ]
          }
        }, 
        {
          "value": 0.00139897,
          "n": 1,
          "scriptPubKey": {
            "asm": "OP_DUP OP_HASH160 0e6f6032a8ef293926b957c8ffe9e4a7d1b6dc4b OP_EQUALVERIFY OP_CHECKSIG",
            "hex": "76a9140e6f6032a8ef293926b957c8ffe9e4a7d1b6dc4b88ac",
            "reqSigs": 1,
            "type": "pubkeyhash",
            "addresses": [
              "LLYH9RVGbSENHt2msYhzXN43u18ccejPqw"
            ]
          }
        }
      ],
      "hex": "010000000118281d150648c1a69a5f6fe6849446cb9d4639dc0421666c0d2664e60198e6bb000000006b483045022100e1ebc361ea9c3220c7920b2edd5ddf30c3cdfd8cbd2753c34318b20ab2e942c1022072a27344f7339be272258979af098bac1e4db7a251a32a92731721affcf17ede012102621f984600b270be58127224ee5821a997ad4d25e72add1b429a9722359173f9ffffffff025c4f8200000000001976a91468bcd22c8e0d55988609ce0b468056959087405088ac79220200000000001976a9140e6f6032a8ef293926b957c8ffe9e4a7d1b6dc4b88ac00000000"
    }, 
    {
      "txid": "cecdfec7dd238ebf9490e43919ac568801330f47d2e3f76a169aaa63c0d107c6",
      "hash": "cecdfec7dd238ebf9490e43919ac568801330f47d2e3f76a169aaa63c0d107c6",
      "version": 2,
      "size": 509,
      "vsize": 509,
      "locktime": 0,
      "vin": [
        {
          "txid": "8369b244f0ec06621711d28c1990d7dec2b3ad122ba87ea99e9e122d7b66c6a2",
          "vout": 0,
          "scriptSig": {
            "asm": "3044022077ee7395689692b34ac47ef32b310d77b74d6e5e214811d65da39183d05315510220726b530b690d6fbff2338412604bfeec8152a0e1c0bf4e05e1d5cf161edb1aca[ALL] 02364a52933631035dee2bcdedfa68bc52e6aa5d244947f5693df1791c5f4a6741",
            "hex": "473044022077ee7395689692b34ac47ef32b310d77b74d6e5e214811d65da39183d05315510220726b530b690d6fbff2338412604bfeec8152a0e1c0bf4e05e1d5cf161edb1aca012102364a52933631035dee2bcdedfa68bc52e6aa5d244947f5693df1791c5f4a6741"
          },
          "sequence": 4294967295
        }, 
        {
          "txid": "24996712317bb891055952949cf104571ed2140ef4347bca3843a8b3d7b4bad8",
          "vout": 0,
          "scriptSig": {
            "asm": "3045022100f15d7d6cfa5ad546ff6f665ed1e8b3d6928cce4becd1f5ad8b5d5663c5033c7302206ac9f20114c210744b22b6147dd990a5d00e7315c298836958e848cbc2e0d81f[ALL] 033d41dec2f214130167c322de8b343808c61141ccac39022b0d92f0b4f5e68412",
            "hex": "483045022100f15d7d6cfa5ad546ff6f665ed1e8b3d6928cce4becd1f5ad8b5d5663c5033c7302206ac9f20114c210744b22b6147dd990a5d00e7315c298836958e848cbc2e0d81f0121033d41dec2f214130167c322de8b343808c61141ccac39022b0d92f0b4f5e68412"
          },
          "sequence": 4294967295
        }
      ],
      "vout": [
        {
          "value": 0.69070530,
          "n": 0,
          "scriptPubKey": {
            "asm": "OP_DUP OP_HASH160 998a9a69c3ba04d3e9336509519d7d4a0e23dbf8 OP_EQUALVERIFY OP_CHECKSIG",
            "hex": "76a914998a9a69c3ba04d3e9336509519d7d4a0e23dbf888ac",
            "reqSigs": 1,
            "type": "pubkeyhash",
            "addresses": [
              "LZDogt2ZNg7caCyMppNWQ3TtHfec7FrTmc"
            ]
          }
        }, 
        {
          "value": 0.57681275,
          "n": 1,
          "scriptPubKey": {
            "asm": "OP_DUP OP_HASH160 4dce29899245f8023a912d1e5d4278da7657ab7b OP_EQUALVERIFY OP_CHECKSIG",
            "hex": "76a9144dce29899245f8023a912d1e5d4278da7657ab7b88ac",
            "reqSigs": 1,
            "type": "pubkeyhash",
            "addresses": [
              "LSKMGPVTS7LwZty7Z3fWsUB8QJ4mGjsFCC"
            ]
          }
        }, 
        {
          "value": 0.53933975,
          "n": 2,
          "scriptPubKey": {
            "asm": "OP_DUP OP_HASH160 ff8a6f13eafe2d9fbe565ccf3648ae7058081b6f OP_EQUALVERIFY OP_CHECKSIG",
            "hex": "76a914ff8a6f13eafe2d9fbe565ccf3648ae7058081b6f88ac",
            "reqSigs": 1,
            "type": "pubkeyhash",
            "addresses": [
              "LiX8QgidSxPqSRfxH2xjqvM9RwEPULurxg"
            ]
          }
        }, 
        {
          "value": 0.71593965,
          "n": 3,
          "scriptPubKey": {
            "asm": "OP_DUP OP_HASH160 d21a93d379c2e479d66af78ace2cc4ea4ee2d500 OP_EQUALVERIFY OP_CHECKSIG",
            "hex": "76a914d21a93d379c2e479d66af78ace2cc4ea4ee2d50088ac",
            "reqSigs": 1,
            "type": "pubkeyhash",
            "addresses": [
              "LeNt18Xv2ZzeLc3QPbqfPxaHCKEoDwEZ9m"
            ]
          }
        }, 
        {
          "value": 0.47710253,
          "n": 4,
          "scriptPubKey": {
            "asm": "OP_DUP OP_HASH160 e46939b7da8ad555f9d125134fd7f3d3a183de77 OP_EQUALVERIFY OP_CHECKSIG",
            "hex": "76a914e46939b7da8ad555f9d125134fd7f3d3a183de7788ac",
            "reqSigs": 1,
            "type": "pubkeyhash",
            "addresses": [
              "Lg3gP9HKAKramqrDiDQdJSsm1mwrWzSZ33"
            ]
          }
        }, 
        {
          "value": 0.94390800,
          "n": 5,
          "scriptPubKey": {
            "asm": "OP_DUP OP_HASH160 e4e97a7dbd64a7a18d1e3dd8005b6fd606a3ca43 OP_EQUALVERIFY OP_CHECKSIG",
            "hex": "76a914e4e97a7dbd64a7a18d1e3dd8005b6fd606a3ca4388ac",
            "reqSigs": 1,
            "type": "pubkeyhash",
            "addresses": [
              "Lg6L2KVSUaf26VC39s9Lg9AcUPxkuG2cwF"
            ]
          }
        }
      ],
      "hex": "0200000002a2c6667b2d129e9ea97ea82b12adb3c2ded790198cd211176206ecf044b26983000000006a473044022077ee7395689692b34ac47ef32b310d77b74d6e5e214811d65da39183d05315510220726b530b690d6fbff2338412604bfeec8152a0e1c0bf4e05e1d5cf161edb1aca012102364a52933631035dee2bcdedfa68bc52e6aa5d244947f5693df1791c5f4a6741ffffffffd8bab4d7b3a84338ca7b34f40e14d21e5704f19c9452590591b87b3112679924000000006b483045022100f15d7d6cfa5ad546ff6f665ed1e8b3d6928cce4becd1f5ad8b5d5663c5033c7302206ac9f20114c210744b22b6147dd990a5d00e7315c298836958e848cbc2e0d81f0121033d41dec2f214130167c322de8b343808c61141ccac39022b0d92f0b4f5e68412ffffffff06c2ee1d04000000001976a914998a9a69c3ba04d3e9336509519d7d4a0e23dbf888ac7b257003000000001976a9144dce29899245f8023a912d1e5d4278da7657ab7b88ac97f73603000000001976a914ff8a6f13eafe2d9fbe565ccf3648ae7058081b6f88aced6f4404000000001976a914d21a93d379c2e479d66af78ace2cc4ea4ee2d50088ac2d00d802000000001976a914e46939b7da8ad555f9d125134fd7f3d3a183de7788ac104aa005000000001976a914e4e97a7dbd64a7a18d1e3dd8005b6fd606a3ca4388ac00000000"
    }
  ],
  "time": 1516994948,
  "mediantime": 1516994415,
  "nonce": 307991644,
  "bits": "1a047f14",
  "difficulty": 3731199.183374282,
  "chainwork": "0000000000000000000000000000000000000000000000322981cf0f5b9d7896",
  "previousblockhash": "453c8f2d51aabbd99f1617d1c41aa7505f3ff197b80c68c2b07bc6898f483586",
  "nextblockhash": "467e15e94dcf36678e68de127fe901f10e55094901c8f3577ee590e41cf0aae4"
}
