{
  "hash": "027147b6115ffe02e2511e8b33e4b0fe24150cbd102f0cec8a507cef485aba7e",
  "confirmations": 2194,
  "strippedsize": 255,
  "size": 255,
  "weight": 1020,
  "height": 1358800,
  "version": 536870912,
  "versionHex": "20000000",
  "merkleroot": "30be907d6a59fb478812f708dec287d7e8098057f989635029e6da515c0171d3",
  "tx": [
    {
      "txid": "30be907d6a59fb478812f708dec287d7e8098057f989635029e6da515c0171d3",
      "hash": "30be907d6a59fb478812f708dec287d7e8098057f989635029e6da515c0171d3",
      "version": 1,
      "size": 174,
      "vsize": 174,
      "locktime": 0,
      "vin": [
        {
          "coinbase": "03d0bb141c4d696e656420627920416e74506f6f6c20626a341e205a6e89b90876fabe6d6d0ca134e3673fb9a5de3ca532fecd89eb25ab95f092fed2025d492ec9a3c57527040000000000000083090000000000000f000000",
          "sequence": 4294967295
        }
      ],
      "vout": [
        {
          "value": 25.00000000,
          "n": 0,
          "scriptPubKey": {
            "asm": "OP_DUP OP_HASH160 0ff3ccc5e8be88afe24b5d634e5852d474dbdff1 OP_EQUALVERIFY OP_CHECKSIG",
            "hex": "76a9140ff3ccc5e8be88afe24b5d634e5852d474dbdff188ac",
            "reqSigs": 1,
            "type": "pubkeyhash",
            "addresses": [
              "LLgJTbzZMsRTCUF1NtvvL9SR1a4pVieW89"
            ]
          }
        }
      ],
      "hex": "01000000010000000000000000000000000000000000000000000000000000000000000000ffffffff5903d0bb141c4d696e656420627920416e74506f6f6c20626a341e205a6e89b90876fabe6d6d0ca134e3673fb9a5de3ca532fecd89eb25ab95f092fed2025d492ec9a3c57527040000000000000083090000000000000f000000ffffffff0100f90295000000001976a9140ff3ccc5e8be88afe24b5d634e5852d474dbdff188ac00000000"
    }
  ],
  "time": 1517193657,
  "mediantime": 1517192771,
  "nonce": 4192252419,
  "bits": "1a042eae",
  "difficulty": 4011378.762614286,
  "chainwork": "00000000000000000000000000000000000000000000003368b67d5dd834e622",
  "previousblockhash": "25217ce81dd040e9e8f17f3cc55aa9bed117b9ac5daac81bcc63643a2aba1208",
  "nextblockhash": "fd76309eed25e9d9394d2917d7cc52e8cab9b033f7ae6127d68e4880dde71f71"
}
