{
  "hash": "0295f60558eab100a06cf138c525f316426be707168a441153c84e2d35981256",
  "confirmations": 415,
  "strippedsize": 281,
  "size": 317,
  "weight": 1160,
  "height": 1360579,
  "version": 536870912,
  "versionHex": "20000000",
  "merkleroot": "56b89ee4dae16d8c8c4d3400ec8186405973e6b935ce5b244a9b83cdc1ebee71",
  "tx": [
    {
      "txid": "56b89ee4dae16d8c8c4d3400ec8186405973e6b935ce5b244a9b83cdc1ebee71",
      "hash": "f2a457d7769c3575034677dddb313f325e39136ccdfa91b98020d4bb399179bb",
      "version": 1,
      "size": 236,
      "vsize": 209,
      "locktime": 0,
      "vin": [
        {
          "coinbase": "03c3c214045a727b442cfabe6d6d0d5a758d8ee099490f24e056bd9be49dfbcfd57c49d5f4b7b0de44e4d1fec67c4000000000000000042f4c502f08220083993b000000",
          "sequence": 4294967295
        }
      ],
      "vout": [
        {
          "value": 25.00000000,
          "n": 0,
          "scriptPubKey": {
            "asm": "OP_DUP OP_HASH160 57757ed2ecf2052ff3126c397aca7defb9ca2cec OP_EQUALVERIFY OP_CHECKSIG",
            "hex": "76a91457757ed2ecf2052ff3126c397aca7defb9ca2cec88ac",
            "reqSigs": 1,
            "type": "pubkeyhash",
            "addresses": [
              "LTCPodGk5FwcJaRzH9yKnwicxzFUbxp6tN"
            ]
          }
        }, 
        {
          "value": 0.00000000,
          "n": 1,
          "scriptPubKey": {
            "asm": "OP_RETURN aa21a9ede2f61c3f71d1defd3fa999dfa36953755c690689799962b48bebd836974e8cf9",
            "hex": "6a24aa21a9ede2f61c3f71d1defd3fa999dfa36953755c690689799962b48bebd836974e8cf9",
            "type": "nulldata"
          }
        }
      ],
      "hex": "010000000001010000000000000000000000000000000000000000000000000000000000000000ffffffff4403c3c214045a727b442cfabe6d6d0d5a758d8ee099490f24e056bd9be49dfbcfd57c49d5f4b7b0de44e4d1fec67c4000000000000000042f4c502f08220083993b000000ffffffff0200f90295000000001976a91457757ed2ecf2052ff3126c397aca7defb9ca2cec88ac0000000000000000266a24aa21a9ede2f61c3f71d1defd3fa999dfa36953755c690689799962b48bebd836974e8cf90120000000000000000000000000000000000000000000000000000000000000000000000000"
    }
  ],
  "time": 1517452100,
  "mediantime": 1517451372,
  "nonce": 1704432384,
  "bits": "1a042eae",
  "difficulty": 4011378.762614286,
  "chainwork": "0000000000000000000000000000000000000000000000351212933c9eecd888",
  "previousblockhash": "978254b35a26ca8df8c9c212d0929b991645a758ed9946d67af14f557953c7c8",
  "nextblockhash": "d104375350cea35c9648faf152da9df3a83c8aba79f52862dc011e65de4372cc"
}
