{
  "hash": "031f637fb98382e4023967a2b8ffbea7d0a5c26dea1009f3d88f5a7e30f50487",
  "confirmations": 2166,
  "strippedsize": 234,
  "size": 234,
  "weight": 936,
  "height": 1358828,
  "version": 536870912,
  "versionHex": "20000000",
  "merkleroot": "249f873776c7423e6a1aad4848cab4c071ac6a09ce861da7ee262170588d2592",
  "tx": [
    {
      "txid": "249f873776c7423e6a1aad4848cab4c071ac6a09ce861da7ee262170588d2592",
      "hash": "249f873776c7423e6a1aad4848cab4c071ac6a09ce861da7ee262170588d2592",
      "version": 1,
      "size": 153,
      "vsize": 153,
      "locktime": 0,
      "vin": [
        {
          "coinbase": "03ecbb14045a6e99012cfabe6d6dfb07daa521d10ad4d48990cf1a899bf3953018f9c05eeded90ca418c632cc1084000000000000000042f4c502f0856005e173a000000",
          "sequence": 4294967295
        }
      ],
      "vout": [
        {
          "value": 25.00000000,
          "n": 0,
          "scriptPubKey": {
            "asm": "OP_DUP OP_HASH160 57757ed2ecf2052ff3126c397aca7defb9ca2cec OP_EQUALVERIFY OP_CHECKSIG",
            "hex": "76a91457757ed2ecf2052ff3126c397aca7defb9ca2cec88ac",
            "reqSigs": 1,
            "type": "pubkeyhash",
            "addresses": [
              "LTCPodGk5FwcJaRzH9yKnwicxzFUbxp6tN"
            ]
          }
        }
      ],
      "hex": "01000000010000000000000000000000000000000000000000000000000000000000000000ffffffff4403ecbb14045a6e99012cfabe6d6dfb07daa521d10ad4d48990cf1a899bf3953018f9c05eeded90ca418c632cc1084000000000000000042f4c502f0856005e173a000000ffffffff0100f90295000000001976a91457757ed2ecf2052ff3126c397aca7defb9ca2cec88ac00000000"
    }
  ],
  "time": 1517197569,
  "mediantime": 1517196884,
  "nonce": 6592633,
  "bits": "1a042eae",
  "difficulty": 4011378.762614286,
  "chainwork": "0000000000000000000000000000000000000000000000336f685c9d11df705a",
  "previousblockhash": "ea33ce038b3ab42aedabfc777cec04e112da4f494ba27df4e401093a70d9bc2c",
  "nextblockhash": "17f873e996a989718d9ea933ab9a8dac8063f8bb9b46889be4572cf2490fc98a"
}
