{
  "hash": "0326130134c361ad6bdbdadfa171cd2178b586102a3807cfcc6a97e44784af5e",
  "confirmations": 1681,
  "strippedsize": 253,
  "size": 253,
  "weight": 1012,
  "height": 1359313,
  "version": 536870912,
  "versionHex": "20000000",
  "merkleroot": "824dd99e2fd522327b9cf14fb19901bc8d7f619a492d073c0b4b3928813a6526",
  "tx": [
    {
      "txid": "824dd99e2fd522327b9cf14fb19901bc8d7f619a492d073c0b4b3928813a6526",
      "hash": "824dd99e2fd522327b9cf14fb19901bc8d7f619a492d073c0b4b3928813a6526",
      "version": 1,
      "size": 172,
      "vsize": 172,
      "locktime": 0,
      "vin": [
        {
          "coinbase": "03d1bd141a4d696e656420627920416e74506f6f6c20626a3242205a6fa7bbfabe6d6d70609814d7ccf9d7f6409559e2d1ac4d74c2bc84d141a53373d18ab4b943664904000000000000007f040000000000001c000000",
          "sequence": 4294967295
        }
      ],
      "vout": [
        {
          "value": 25.00000000,
          "n": 0,
          "scriptPubKey": {
            "asm": "OP_DUP OP_HASH160 0ff3ccc5e8be88afe24b5d634e5852d474dbdff1 OP_EQUALVERIFY OP_CHECKSIG",
            "hex": "76a9140ff3ccc5e8be88afe24b5d634e5852d474dbdff188ac",
            "reqSigs": 1,
            "type": "pubkeyhash",
            "addresses": [
              "LLgJTbzZMsRTCUF1NtvvL9SR1a4pVieW89"
            ]
          }
        }
      ],
      "hex": "01000000010000000000000000000000000000000000000000000000000000000000000000ffffffff5703d1bd141a4d696e656420627920416e74506f6f6c20626a3242205a6fa7bbfabe6d6d70609814d7ccf9d7f6409559e2d1ac4d74c2bc84d141a53373d18ab4b943664904000000000000007f040000000000001c000000ffffffff0100f90295000000001976a9140ff3ccc5e8be88afe24b5d634e5852d474dbdff188ac00000000"
    }
  ],
  "time": 1517266875,
  "mediantime": 1517266420,
  "nonce": 2723018297,
  "bits": "1a042eae",
  "difficulty": 4011378.762614286,
  "chainwork": "000000000000000000000000000000000000000000000033e35f12ffa67293a4",
  "previousblockhash": "f2920cbb3c5819f4a5b2f71e92474dcd75990cfece5715bdd84821e923eea3d6",
  "nextblockhash": "a516ff802daf713f852deb7890323ebcedff1cc081205db7458743c2b201b0e5"
}
