{
  "hash": "039e7bc88ea921f767f1c07b68feb295557b0e4b48d22eb20f35fa98dc022479",
  "confirmations": 3344,
  "strippedsize": 1109,
  "size": 1145,
  "weight": 4472,
  "height": 1357651,
  "version": 536870912,
  "versionHex": "20000000",
  "merkleroot": "a3692b004959ed32ac3dda62822ecf06d63d1a812c98edfcbb74f1de5c34d36e",
  "tx": [
    {
      "txid": "350b0262ea2d61fbeb50059ad6875af86baa98ae59b7c72ef5460a374f71feac",
      "hash": "0d0384fc83e43c65e5408a3e3874d1debfd47b6d33f0c3b6e4139cec7b97497c",
      "version": 1,
      "size": 240,
      "vsize": 213,
      "locktime": 0,
      "vin": [
        {
          "coinbase": "0353b714049a0d6c5a0800dc57be27000000fabe6d6de86523285b3af941ed888d42485ff99a1ee54365dc16bc1db04f77ca9b3d6fce4000000000000000092f4c54432e544f502f",
          "sequence": 0
        }
      ],
      "vout": [
        {
          "value": 25.00259900,
          "n": 0,
          "scriptPubKey": {
            "asm": "OP_DUP OP_HASH160 0c617fdb2ea42aed30a509595ee21ba3f6688db0 OP_EQUALVERIFY OP_CHECKSIG",
            "hex": "76a9140c617fdb2ea42aed30a509595ee21ba3f6688db088ac",
            "reqSigs": 1,
            "type": "pubkeyhash",
            "addresses": [
              "LLMRAtr3qBje2ySEa3CnZ55LA4TQMWnRY3"
            ]
          }
        }, 
        {
          "value": 0.00000000,
          "n": 1,
          "scriptPubKey": {
            "asm": "OP_RETURN aa21a9edcbae202d243bda92219f97a22f3741e3a5c1e16dba4c4b9fa85233a240c88a81",
            "hex": "6a24aa21a9edcbae202d243bda92219f97a22f3741e3a5c1e16dba4c4b9fa85233a240c88a81",
            "type": "nulldata"
          }
        }
      ],
      "hex": "010000000001010000000000000000000000000000000000000000000000000000000000000000ffffffff480353b714049a0d6c5a0800dc57be27000000fabe6d6de86523285b3af941ed888d42485ff99a1ee54365dc16bc1db04f77ca9b3d6fce4000000000000000092f4c54432e544f502f00000000023cf00695000000001976a9140c617fdb2ea42aed30a509595ee21ba3f6688db088ac0000000000000000266a24aa21a9edcbae202d243bda92219f97a22f3741e3a5c1e16dba4c4b9fa85233a240c88a810120000000000000000000000000000000000000000000000000000000000000000000000000"
    }, 
    {
      "txid": "852ebf42365a93c5ddb179fdbb8858e77c1538704ef208f0b077463729e9dc52",
      "hash": "852ebf42365a93c5ddb179fdbb8858e77c1538704ef208f0b077463729e9dc52",
      "version": 1,
      "size": 226,
      "vsize": 226,
      "locktime": 0,
      "vin": [
        {
          "txid": "c5fdfdecb1e90188482079ee088eac6e56b4c673063661cd17d668f44e981818",
          "vout": 0,
          "scriptSig": {
            "asm": "3045022100d34806a6d7cda3900236a68c841b3a36102ae748e1e1248cd4f71845d60062050220423704223b713e1ffd9ff3454014b74da339cf506f14fd003e202c18e3742b33[ALL] 03b0da79521623c7b0d45f755731a65be3ebe1073c8c136140b879b355d1d21b32",
            "hex": "483045022100d34806a6d7cda3900236a68c841b3a36102ae748e1e1248cd4f71845d60062050220423704223b713e1ffd9ff3454014b74da339cf506f14fd003e202c18e3742b33012103b0da79521623c7b0d45f755731a65be3ebe1073c8c136140b879b355d1d21b32"
          },
          "sequence": 4294967295
        }
      ],
      "vout": [
        {
          "value": 0.20680075,
          "n": 0,
          "scriptPubKey": {
            "asm": "OP_DUP OP_HASH160 9af4aeccc015d7ca1527b0d8f28c6dd5a6214539 OP_EQUALVERIFY OP_CHECKSIG",
            "hex": "76a9149af4aeccc015d7ca1527b0d8f28c6dd5a621453988ac",
            "reqSigs": 1,
            "type": "pubkeyhash",
            "addresses": [
              "LZMHScc7XyXaDkCcH8kJxUNzrcsc8wPLw6"
            ]
          }
        }, 
        {
          "value": 0.01019925,
          "n": 1,
          "scriptPubKey": {
            "asm": "OP_DUP OP_HASH160 fd5aa0946527f2672ace533756e432e056b3f913 OP_EQUALVERIFY OP_CHECKSIG",
            "hex": "76a914fd5aa0946527f2672ace533756e432e056b3f91388ac",
            "reqSigs": 1,
            "type": "pubkeyhash",
            "addresses": [
              "LiKZne1GTW6f1vP7DtRtn8aZSbz7ndecay"
            ]
          }
        }
      ],
      "hex": "01000000011818984ef468d617cd61360673c6b4566eac8e08ee7920488801e9b1ecfdfdc5000000006b483045022100d34806a6d7cda3900236a68c841b3a36102ae748e1e1248cd4f71845d60062050220423704223b713e1ffd9ff3454014b74da339cf506f14fd003e202c18e3742b33012103b0da79521623c7b0d45f755731a65be3ebe1073c8c136140b879b355d1d21b32ffffffff028b8d3b01000000001976a9149af4aeccc015d7ca1527b0d8f28c6dd5a621453988ac15900f00000000001976a914fd5aa0946527f2672ace533756e432e056b3f91388ac00000000"
    }, 
    {
      "txid": "fa2a451132581fb326de56a1e85d26c15076c14ea24042dc0126443b7ed18ee8",
      "hash": "fa2a451132581fb326de56a1e85d26c15076c14ea24042dc0126443b7ed18ee8",
      "version": 1,
      "size": 372,
      "vsize": 372,
      "locktime": 1357649,
      "vin": [
        {
          "txid": "01e8cf9d600000fb82f542b8fc5e394221890c9cc1306837553001c45887949a",
          "vout": 1,
          "scriptSig": {
            "asm": "304402205494fbe39a626a966f2eb55f97e184b0b09f9133ec95f6732269ac3f32fd50e50220145563781b5f1cbe55015f5f8566536a4b2e470425f683350c9fb6586924da35[ALL] 033f5497cf332d1186344db469be350ab41201c330103ddfa3c415ba89b025e9ec",
            "hex": "47304402205494fbe39a626a966f2eb55f97e184b0b09f9133ec95f6732269ac3f32fd50e50220145563781b5f1cbe55015f5f8566536a4b2e470425f683350c9fb6586924da350121033f5497cf332d1186344db469be350ab41201c330103ddfa3c415ba89b025e9ec"
          },
          "sequence": 4294967294
        }, 
        {
          "txid": "ac501281da01f7ce10ad9f37032d2585e7651de13275a089d34048e5a0d90f72",
          "vout": 1,
          "scriptSig": {
            "asm": "304402201bcda696ed07029b235014d12e1a9376f7c0f73bd7c0a975f2a8d4f79547e68802203308b80c00960b359fc7ffd98ea0e73eec733328ed33f2eb421693b0f196a16c[ALL] 03c7e3dfccb9fd208b3d590a705bb2be28787ab545fdd5692a1a696dd0ef9e93ce",
            "hex": "47304402201bcda696ed07029b235014d12e1a9376f7c0f73bd7c0a975f2a8d4f79547e68802203308b80c00960b359fc7ffd98ea0e73eec733328ed33f2eb421693b0f196a16c012103c7e3dfccb9fd208b3d590a705bb2be28787ab545fdd5692a1a696dd0ef9e93ce"
          },
          "sequence": 4294967294
        }
      ],
      "vout": [
        {
          "value": 0.01000000,
          "n": 0,
          "scriptPubKey": {
            "asm": "OP_DUP OP_HASH160 afb6beb5ecc8b8ad57e4275340389c648c75822a OP_EQUALVERIFY OP_CHECKSIG",
            "hex": "76a914afb6beb5ecc8b8ad57e4275340389c648c75822a88ac",
            "reqSigs": 1,
            "type": "pubkeyhash",
            "addresses": [
              "LbF3S8G78zwuCCCdQQQRyLHDgFoBWqUk4P"
            ]
          }
        }, 
        {
          "value": 0.01132612,
          "n": 1,
          "scriptPubKey": {
            "asm": "OP_DUP OP_HASH160 8b1e56086d50f4941ddc683caeb74ba4f3fda874 OP_EQUALVERIFY OP_CHECKSIG",
            "hex": "76a9148b1e56086d50f4941ddc683caeb74ba4f3fda87488ac",
            "reqSigs": 1,
            "type": "pubkeyhash",
            "addresses": [
              "LXuYXfUqkppwBV5Lmvqfb6T3cirjoouoin"
            ]
          }
        }
      ],
      "hex": "01000000029a948758c4013055376830c19c0c892142395efcb842f582fb0000609dcfe801010000006a47304402205494fbe39a626a966f2eb55f97e184b0b09f9133ec95f6732269ac3f32fd50e50220145563781b5f1cbe55015f5f8566536a4b2e470425f683350c9fb6586924da350121033f5497cf332d1186344db469be350ab41201c330103ddfa3c415ba89b025e9ecfeffffff720fd9a0e54840d389a07532e11d65e785252d03379fad10cef701da811250ac010000006a47304402201bcda696ed07029b235014d12e1a9376f7c0f73bd7c0a975f2a8d4f79547e68802203308b80c00960b359fc7ffd98ea0e73eec733328ed33f2eb421693b0f196a16c012103c7e3dfccb9fd208b3d590a705bb2be28787ab545fdd5692a1a696dd0ef9e93cefeffffff0240420f00000000001976a914afb6beb5ecc8b8ad57e4275340389c648c75822a88ac44481100000000001976a9148b1e56086d50f4941ddc683caeb74ba4f3fda87488ac51b71400"
    }, 
    {
      "txid": "998030ea3c5af4c293e1a687bef9448c74b10856c400ebb95342ba48ca76ab71",
      "hash": "998030ea3c5af4c293e1a687bef9448c74b10856c400ebb95342ba48ca76ab71",
      "version": 2,
      "size": 226,
      "vsize": 226,
      "locktime": 1357649,
      "vin": [
        {
          "txid": "3a57bfc280fbc64d0ec6225af5693afb4239855383399befc99161fd1363096a",
          "vout": 1,
          "scriptSig": {
            "asm": "3045022100f387b1bbc0b565a03e241191900b890fcf16dc86dc8be5779ed8f3fea40a2edb02201e6f4095bc01290410aa42ae2fc572e1ea66ef411a5647ece9f059bb158547c4[ALL] 03b09d481f59a5e3bca974f18ddbf0e2d6e1836c4bbf61ab421ed9bb4e85e2f29c",
            "hex": "483045022100f387b1bbc0b565a03e241191900b890fcf16dc86dc8be5779ed8f3fea40a2edb02201e6f4095bc01290410aa42ae2fc572e1ea66ef411a5647ece9f059bb158547c4012103b09d481f59a5e3bca974f18ddbf0e2d6e1836c4bbf61ab421ed9bb4e85e2f29c"
          },
          "sequence": 4294967294
        }
      ],
      "vout": [
        {
          "value": 2.14955279,
          "n": 0,
          "scriptPubKey": {
            "asm": "OP_DUP OP_HASH160 75b261de22d0f71abadf156c08bef284088451a0 OP_EQUALVERIFY OP_CHECKSIG",
            "hex": "76a91475b261de22d0f71abadf156c08bef284088451a088ac",
            "reqSigs": 1,
            "type": "pubkeyhash",
            "addresses": [
              "LVxH1snMaii6ZSQv6safTW2PFeLdiFEDFc"
            ]
          }
        }, 
        {
          "value": 0.10184336,
          "n": 1,
          "scriptPubKey": {
            "asm": "OP_DUP OP_HASH160 83d7011be19e6506b839a28db9eea78e15c7626f OP_EQUALVERIFY OP_CHECKSIG",
            "hex": "76a91483d7011be19e6506b839a28db9eea78e15c7626f88ac",
            "reqSigs": 1,
            "type": "pubkeyhash",
            "addresses": [
              "LXF4M75gkLSPxVnrU2LLeA1pCLTKVerD2q"
            ]
          }
        }
      ],
      "hex": "02000000016a096313fd6191c9ef9b398353853942fb3a69f55a22c60e4dc6fb80c2bf573a010000006b483045022100f387b1bbc0b565a03e241191900b890fcf16dc86dc8be5779ed8f3fea40a2edb02201e6f4095bc01290410aa42ae2fc572e1ea66ef411a5647ece9f059bb158547c4012103b09d481f59a5e3bca974f18ddbf0e2d6e1836c4bbf61ab421ed9bb4e85e2f29cfeffffff020ff5cf0c000000001976a91475b261de22d0f71abadf156c08bef284088451a088ac90669b00000000001976a91483d7011be19e6506b839a28db9eea78e15c7626f88ac51b71400"
    }
  ],
  "time": 1517030768,
  "mediantime": 1517030173,
  "nonce": 1312257243,
  "bits": "1a047f14",
  "difficulty": 3731199.183374282,
  "chainwork": "00000000000000000000000000000000000000000000003268e42088f013e188",
  "previousblockhash": "d3a1f5117f20ab0fd2e80fb7703f96884c5c2b4f4277b2cee3cd5f11b2ea9bdf",
  "nextblockhash": "b8f3f5bf8608924fafd4d4845556e066ccebf29ddcf44d42441e1240ea9df75d"
}
