{
  "hash": "03f54c5f2958c5db4fdfc1a4ceee85f9d628abc0fe39e2017695d47e83ab595e",
  "confirmations": 371,
  "strippedsize": 234,
  "size": 234,
  "weight": 936,
  "height": 1360623,
  "version": 536870912,
  "versionHex": "20000000",
  "merkleroot": "f009a0ee1b8aaed01e1b116b97eb91fe8397072f36e1444bea240256b9674d8b",
  "tx": [
    {
      "txid": "f009a0ee1b8aaed01e1b116b97eb91fe8397072f36e1444bea240256b9674d8b",
      "hash": "f009a0ee1b8aaed01e1b116b97eb91fe8397072f36e1444bea240256b9674d8b",
      "version": 1,
      "size": 153,
      "vsize": 153,
      "locktime": 0,
      "vin": [
        {
          "coinbase": "03efc214045a7291ae2cfabe6d6d2c508ca2044f30f6ef2433982711e6d74c12be590f2fb03903da1b5c8865881b4000000000000000042f4c502f08220068ff01000000",
          "sequence": 4294967295
        }
      ],
      "vout": [
        {
          "value": 25.00000000,
          "n": 0,
          "scriptPubKey": {
            "asm": "OP_DUP OP_HASH160 57757ed2ecf2052ff3126c397aca7defb9ca2cec OP_EQUALVERIFY OP_CHECKSIG",
            "hex": "76a91457757ed2ecf2052ff3126c397aca7defb9ca2cec88ac",
            "reqSigs": 1,
            "type": "pubkeyhash",
            "addresses": [
              "LTCPodGk5FwcJaRzH9yKnwicxzFUbxp6tN"
            ]
          }
        }
      ],
      "hex": "01000000010000000000000000000000000000000000000000000000000000000000000000ffffffff4403efc214045a7291ae2cfabe6d6d2c508ca2044f30f6ef2433982711e6d74c12be590f2fb03903da1b5c8865881b4000000000000000042f4c502f08220068ff01000000ffffffff0100f90295000000001976a91457757ed2ecf2052ff3126c397aca7defb9ca2cec88ac00000000"
    }
  ],
  "time": 1517457838,
  "mediantime": 1517457498,
  "nonce": 1200917850,
  "bits": "1a042eae",
  "difficulty": 4011378.762614286,
  "chainwork": "0000000000000000000000000000000000000000000000351c97cd7b6741fae0",
  "previousblockhash": "fcfd02574cfcab41d9cbb5b79383d14af32c4737b4033d1f7cd5931f44917e59",
  "nextblockhash": "cf52ca9ffb817611dba58b945f2062474546f41fc31e25acd1aca0cd31ad4b7e"
}
