{
  "hash": "041c45a481631d09675dc30e3027c6d1e9d8366609b719b2d77b99efb2b5ff24",
  "confirmations": 3718,
  "strippedsize": 254,
  "size": 254,
  "weight": 1016,
  "height": 1357277,
  "version": 536870912,
  "versionHex": "20000000",
  "merkleroot": "91b4ce8005facf07b2fa3d5b6e974720bbc24d93e8684170df986fc554c41e93",
  "tx": [
    {
      "txid": "91b4ce8005facf07b2fa3d5b6e974720bbc24d93e8684170df986fc554c41e93",
      "hash": "91b4ce8005facf07b2fa3d5b6e974720bbc24d93e8684170df986fc554c41e93",
      "version": 1,
      "size": 173,
      "vsize": 173,
      "locktime": 0,
      "vin": [
        {
          "coinbase": "03ddb5141b4d696e656420627920416e74506f6f6c20626a302042205a6b4e00fabe6d6d8d8c006702a822e229a26b1c87edb4715caf91e7dcd520acbee208bd7a0681ea04000000000000009e1600000000000004000000",
          "sequence": 4294967295
        }
      ],
      "vout": [
        {
          "value": 25.00000000,
          "n": 0,
          "scriptPubKey": {
            "asm": "OP_DUP OP_HASH160 0ff3ccc5e8be88afe24b5d634e5852d474dbdff1 OP_EQUALVERIFY OP_CHECKSIG",
            "hex": "76a9140ff3ccc5e8be88afe24b5d634e5852d474dbdff188ac",
            "reqSigs": 1,
            "type": "pubkeyhash",
            "addresses": [
              "LLgJTbzZMsRTCUF1NtvvL9SR1a4pVieW89"
            ]
          }
        }
      ],
      "hex": "01000000010000000000000000000000000000000000000000000000000000000000000000ffffffff5803ddb5141b4d696e656420627920416e74506f6f6c20626a302042205a6b4e00fabe6d6d8d8c006702a822e229a26b1c87edb4715caf91e7dcd520acbee208bd7a0681ea04000000000000009e1600000000000004000000ffffffff0100f90295000000001976a9140ff3ccc5e8be88afe24b5d634e5852d474dbdff188ac00000000"
    }
  ],
  "time": 1516981760,
  "mediantime": 1516981175,
  "nonce": 3273787824,
  "bits": "1a047f14",
  "difficulty": 3731199.183374282,
  "chainwork": "00000000000000000000000000000000000000000000003215b6a48cdf1b138c",
  "previousblockhash": "ad15c0dbf376f02962644ecc097f452b9ab7d6e064f03b736320073792233044",
  "nextblockhash": "e0878365f4ce81c34db209000768358e45c2db82ddd02c99bd0f5440404fa6df"
}
