{
  "hash": "045cef27f923d8e06f33af537c7eab954ee2c826c7065add1583e6541d94b663",
  "confirmations": 1755,
  "strippedsize": 234,
  "size": 234,
  "weight": 936,
  "height": 1359239,
  "version": 536870912,
  "versionHex": "20000000",
  "merkleroot": "b9bfab29467cccd1a5a4fb910ef6de10785ecead05d8a4dc6a2703c9cb5bc04b",
  "tx": [
    {
      "txid": "b9bfab29467cccd1a5a4fb910ef6de10785ecead05d8a4dc6a2703c9cb5bc04b",
      "hash": "b9bfab29467cccd1a5a4fb910ef6de10785ecead05d8a4dc6a2703c9cb5bc04b",
      "version": 1,
      "size": 153,
      "vsize": 153,
      "locktime": 0,
      "vin": [
        {
          "coinbase": "0387bd14045a6f7fb42cfabe6d6dada02332747002975eab2a001bace10611b3e559f711491131dc1b5a2f0befb44000000000000000042f4c502f085c006ad120000000",
          "sequence": 4294967295
        }
      ],
      "vout": [
        {
          "value": 25.00000000,
          "n": 0,
          "scriptPubKey": {
            "asm": "OP_DUP OP_HASH160 57757ed2ecf2052ff3126c397aca7defb9ca2cec OP_EQUALVERIFY OP_CHECKSIG",
            "hex": "76a91457757ed2ecf2052ff3126c397aca7defb9ca2cec88ac",
            "reqSigs": 1,
            "type": "pubkeyhash",
            "addresses": [
              "LTCPodGk5FwcJaRzH9yKnwicxzFUbxp6tN"
            ]
          }
        }
      ],
      "hex": "01000000010000000000000000000000000000000000000000000000000000000000000000ffffffff440387bd14045a6f7fb42cfabe6d6dada02332747002975eab2a001bace10611b3e559f711491131dc1b5a2f0befb44000000000000000042f4c502f085c006ad120000000ffffffff0100f90295000000001976a91457757ed2ecf2052ff3126c397aca7defb9ca2cec88ac00000000"
    }
  ],
  "time": 1517256628,
  "mediantime": 1517256298,
  "nonce": 1036976131,
  "bits": "1a042eae",
  "difficulty": 4011378.762614286,
  "chainwork": "000000000000000000000000000000000000000000000033d1ad8e21b29d9410",
  "previousblockhash": "effdd0f498b4398f873ee914b828812c8e2d63f608a8eed10b18a2dc2fe5fe36",
  "nextblockhash": "d2d7249a64b47ef549d915b05803d657e96c04f1f0481ef3673c0bf4b49ecea0"
}
