{
  "hash": "045ea0eaced153d68132232f59f285f623d4d6698dea1712dfb1e0165bf03e64",
  "confirmations": 821,
  "strippedsize": 741,
  "size": 777,
  "weight": 3000,
  "height": 1360173,
  "version": 536870912,
  "versionHex": "20000000",
  "merkleroot": "b858a2c52bbd22bb2c906e8712a79ea8e1adc4c7581eff20b03357466853d469",
  "tx": [
    {
      "txid": "447528b6578bf94e5a262e0be735bdc10e7fb39988d437922dfe6e38efa67930",
      "hash": "2dbde6d8da763d7bbe2df6f5b8572be2ba681c3c94e54440d9ca39a3d498641b",
      "version": 1,
      "size": 244,
      "vsize": 217,
      "locktime": 0,
      "vin": [
        {
          "coinbase": "032dc114042376715a08037fa2430b000000fabe6d6d6ef5cfad438fd3b103ff934982cd9b8e896262de6d80262eecd908df0b9a316540000000000000000d2f6e6f64655374726174756d2f",
          "sequence": 0
        }
      ],
      "vout": [
        {
          "value": 25.00045200,
          "n": 0,
          "scriptPubKey": {
            "asm": "OP_DUP OP_HASH160 0c617fdb2ea42aed30a509595ee21ba3f6688db0 OP_EQUALVERIFY OP_CHECKSIG",
            "hex": "76a9140c617fdb2ea42aed30a509595ee21ba3f6688db088ac",
            "reqSigs": 1,
            "type": "pubkeyhash",
            "addresses": [
              "LLMRAtr3qBje2ySEa3CnZ55LA4TQMWnRY3"
            ]
          }
        }, 
        {
          "value": 0.00000000,
          "n": 1,
          "scriptPubKey": {
            "asm": "OP_RETURN aa21a9ed034605604e1c5e5157ab3653ac422b8b0a522c872c07037d697b376ec14095e0",
            "hex": "6a24aa21a9ed034605604e1c5e5157ab3653ac422b8b0a522c872c07037d697b376ec14095e0",
            "type": "nulldata"
          }
        }
      ],
      "hex": "010000000001010000000000000000000000000000000000000000000000000000000000000000ffffffff4c032dc114042376715a08037fa2430b000000fabe6d6d6ef5cfad438fd3b103ff934982cd9b8e896262de6d80262eecd908df0b9a316540000000000000000d2f6e6f64655374726174756d2f000000000290a90395000000001976a9140c617fdb2ea42aed30a509595ee21ba3f6688db088ac0000000000000000266a24aa21a9ed034605604e1c5e5157ab3653ac422b8b0a522c872c07037d697b376ec14095e00120000000000000000000000000000000000000000000000000000000000000000000000000"
    }, 
    {
      "txid": "ec91ebeac8126e3a861b3cd70d2b260365d86b4eb9bc15f34a74b2ee54c42d13",
      "hash": "ec91ebeac8126e3a861b3cd70d2b260365d86b4eb9bc15f34a74b2ee54c42d13",
      "version": 1,
      "size": 226,
      "vsize": 226,
      "locktime": 0,
      "vin": [
        {
          "txid": "f3e3700804cd8026d4306457484f1486acbcef9b1f1e0fa27172d45fa52f79fa",
          "vout": 1,
          "scriptSig": {
            "asm": "3045022100b0041d4d1b7a3b4af69de6f32a68c9a78539acfae10fbf9d8ac1aba4d9197d4d02207477d5385a4d5d52387389f82869ce8d34a15ac2ab2c4d8fb27060ba08a9bc93[ALL] 0395e2fba30c1082bb6bb6f0237abf73fb0c27ba3ec8095bc152f551f809e72288",
            "hex": "483045022100b0041d4d1b7a3b4af69de6f32a68c9a78539acfae10fbf9d8ac1aba4d9197d4d02207477d5385a4d5d52387389f82869ce8d34a15ac2ab2c4d8fb27060ba08a9bc9301210395e2fba30c1082bb6bb6f0237abf73fb0c27ba3ec8095bc152f551f809e72288"
          },
          "sequence": 4294967295
        }
      ],
      "vout": [
        {
          "value": 1.49900000,
          "n": 0,
          "scriptPubKey": {
            "asm": "OP_DUP OP_HASH160 a3d7c0cc0769a3e19eb51c1c5524ef649d705400 OP_EQUALVERIFY OP_CHECKSIG",
            "hex": "76a914a3d7c0cc0769a3e19eb51c1c5524ef649d70540088ac",
            "reqSigs": 1,
            "type": "pubkeyhash",
            "addresses": [
              "LaAGsGeAav73JeAMMTjviTfcM1WX6wivKw"
            ]
          }
        }, 
        {
          "value": 12.02587861,
          "n": 1,
          "scriptPubKey": {
            "asm": "OP_DUP OP_HASH160 b75ddb6ac8c298be893c5cef8b09b43054cc2538 OP_EQUALVERIFY OP_CHECKSIG",
            "hex": "76a914b75ddb6ac8c298be893c5cef8b09b43054cc253888ac",
            "reqSigs": 1,
            "type": "pubkeyhash",
            "addresses": [
              "LbwWMd7f9Vn6riBj2PuC4KyYfxdL6kmVPA"
            ]
          }
        }
      ],
      "hex": "0100000001fa792fa55fd47271a20f1e1f9befbcac86144f48576430d42680cd040870e3f3010000006b483045022100b0041d4d1b7a3b4af69de6f32a68c9a78539acfae10fbf9d8ac1aba4d9197d4d02207477d5385a4d5d52387389f82869ce8d34a15ac2ab2c4d8fb27060ba08a9bc9301210395e2fba30c1082bb6bb6f0237abf73fb0c27ba3ec8095bc152f551f809e72288ffffffff02e04aef08000000001976a914a3d7c0cc0769a3e19eb51c1c5524ef649d70540088acd508ae47000000001976a914b75ddb6ac8c298be893c5cef8b09b43054cc253888ac00000000"
    }, 
    {
      "txid": "aabba6dfbc2ba8901786cc625fdee8e5089959e98d87ce52cd115b73a69f0757",
      "hash": "aabba6dfbc2ba8901786cc625fdee8e5089959e98d87ce52cd115b73a69f0757",
      "version": 1,
      "size": 226,
      "vsize": 226,
      "locktime": 0,
      "vin": [
        {
          "txid": "77cdf983110f0198276cd74e220143ba87c18f52a111b2c34289c6a81b2a05ec",
          "vout": 0,
          "scriptSig": {
            "asm": "3045022100a909848ec81c4052c9353e3311b78419e3aa398d99a7aacec2f66addf2ea717b02205ac82a07d8549c2ebe920057cb63c6eeddcfd3966c794010d90648b43a7ccc52[ALL] 03e3cece66e85a12cbc282edd3fafe4ffd4183f3ef2fc9f9e849d6a8060ca4174e",
            "hex": "483045022100a909848ec81c4052c9353e3311b78419e3aa398d99a7aacec2f66addf2ea717b02205ac82a07d8549c2ebe920057cb63c6eeddcfd3966c794010d90648b43a7ccc52012103e3cece66e85a12cbc282edd3fafe4ffd4183f3ef2fc9f9e849d6a8060ca4174e"
          },
          "sequence": 4294967295
        }
      ],
      "vout": [
        {
          "value": 10.09269665,
          "n": 0,
          "scriptPubKey": {
            "asm": "OP_DUP OP_HASH160 30116e8fc4d9f242f7a9a2d077d15e207a5dd2f5 OP_EQUALVERIFY OP_CHECKSIG",
            "hex": "76a91430116e8fc4d9f242f7a9a2d077d15e207a5dd2f588ac",
            "reqSigs": 1,
            "type": "pubkeyhash",
            "addresses": [
              "LPc7acHetyQehzgmKnB2svP6Bda8beSC5p"
            ]
          }
        }, 
        {
          "value": 0.82596040,
          "n": 1,
          "scriptPubKey": {
            "asm": "OP_DUP OP_HASH160 b54a1a15485cc67478edf5959b50ea75c93a108b OP_EQUALVERIFY OP_CHECKSIG",
            "hex": "76a914b54a1a15485cc67478edf5959b50ea75c93a108b88ac",
            "reqSigs": 1,
            "type": "pubkeyhash",
            "addresses": [
              "LbkXLd8QWUNwAbEn14tUP9jFxVgB1HBosm"
            ]
          }
        }
      ],
      "hex": "0100000001ec052a1ba8c68942c3b211a1528fc187ba4301224ed76c2798010f1183f9cd77000000006b483045022100a909848ec81c4052c9353e3311b78419e3aa398d99a7aacec2f66addf2ea717b02205ac82a07d8549c2ebe920057cb63c6eeddcfd3966c794010d90648b43a7ccc52012103e3cece66e85a12cbc282edd3fafe4ffd4183f3ef2fc9f9e849d6a8060ca4174effffffff02a13b283c000000001976a91430116e8fc4d9f242f7a9a2d077d15e207a5dd2f588acc850ec04000000001976a914b54a1a15485cc67478edf5959b50ea75c93a108b88ac00000000"
    }
  ],
  "time": 1517385217,
  "mediantime": 1517384727,
  "nonce": 1966565011,
  "bits": "1a042eae",
  "difficulty": 4011378.762614286,
  "chainwork": "000000000000000000000000000000000000000000000034b0ff6e27dac4045c",
  "previousblockhash": "9e512ccb38267923b8d48faf014df6cf2ae0fa30c89ded5c8de15dcbb1ee927f",
  "nextblockhash": "bcbfad991a2cb9314f6de56a92a8dba2bd347864c67d8be3037e9b1b14656c01"
}
