{
  "hash": "047cdd5afdf7e9e4644a4db7d7932bb21f9aa2895f443abf7fc3549a9858bc5d",
  "confirmations": 854,
  "strippedsize": 253,
  "size": 253,
  "weight": 1012,
  "height": 1360140,
  "version": 536870912,
  "versionHex": "20000000",
  "merkleroot": "98c753f2bed73f46f3965084cb290509b0dc29cd8920bae766b10fcd6a8ef77e",
  "tx": [
    {
      "txid": "98c753f2bed73f46f3965084cb290509b0dc29cd8920bae766b10fcd6a8ef77e",
      "hash": "98c753f2bed73f46f3965084cb290509b0dc29cd8920bae766b10fcd6a8ef77e",
      "version": 1,
      "size": 172,
      "vsize": 172,
      "locktime": 0,
      "vin": [
        {
          "coinbase": "030cc1141a4d696e656420627920416e74506f6f6c20626a341e205a716697fabe6d6d62e105f88163b5179f7ddec75cff2fe21eeb85beea9e18303af57abf1cab860b0400000000000000f6070000000000001c000000",
          "sequence": 4294967295
        }
      ],
      "vout": [
        {
          "value": 25.00000000,
          "n": 0,
          "scriptPubKey": {
            "asm": "OP_DUP OP_HASH160 0ff3ccc5e8be88afe24b5d634e5852d474dbdff1 OP_EQUALVERIFY OP_CHECKSIG",
            "hex": "76a9140ff3ccc5e8be88afe24b5d634e5852d474dbdff188ac",
            "reqSigs": 1,
            "type": "pubkeyhash",
            "addresses": [
              "LLgJTbzZMsRTCUF1NtvvL9SR1a4pVieW89"
            ]
          }
        }
      ],
      "hex": "01000000010000000000000000000000000000000000000000000000000000000000000000ffffffff57030cc1141a4d696e656420627920416e74506f6f6c20626a341e205a716697fabe6d6d62e105f88163b5179f7ddec75cff2fe21eeb85beea9e18303af57abf1cab860b0400000000000000f6070000000000001c000000ffffffff0100f90295000000001976a9140ff3ccc5e8be88afe24b5d634e5852d474dbdff188ac00000000"
    }
  ],
  "time": 1517381271,
  "mediantime": 1517379368,
  "nonce": 1984774230,
  "bits": "1a042eae",
  "difficulty": 4011378.762614286,
  "chainwork": "000000000000000000000000000000000000000000000034a91b8278c4842a9a",
  "previousblockhash": "646501b97b0026f806c3ad9091b8c550394c2d8aa5b349899cc2a88c3f1f209d",
  "nextblockhash": "96d0d36755656a5cc6cee29f211f0578e047fc4b6c0cfcf809e4271acf044576"
}
