{
  "hash": "049080c45ff8da18e552daf9daeb32e3013b2f6bb0da3b427e29d9428d4ede5f",
  "confirmations": 1297,
  "strippedsize": 2281,
  "size": 2539,
  "weight": 9382,
  "height": 1359697,
  "version": 536870912,
  "versionHex": "20000000",
  "merkleroot": "7989721f0d7782850b9491de6456565a85e089de84e809d452284e16cdeada00",
  "tx": [
    {
      "txid": "fe2d80ddfc5abfc45533fc3f01b3a46634ef7c7d4cdfa954ff44bd1d83bce15f",
      "hash": "6d45e0d1e5b8c381e8cef0c87772451fb979c5efdd28c3e7327fb4adda02c3ed",
      "version": 1,
      "size": 260,
      "vsize": 233,
      "locktime": 0,
      "vin": [
        {
          "coinbase": "0351bf14192f5669614254432f4d696e656420627920787463303038382f2cfabe6d6d1367b654eae46f6f933b894b84bb1ef870f71667a81bdc2e6398fc00b3aa47e4010000000000000010177d710017c20381fd26113fa8010000",
          "sequence": 4294967295
        }
      ],
      "vout": [
        {
          "value": 25.00188400,
          "n": 0,
          "scriptPubKey": {
            "asm": "OP_DUP OP_HASH160 e16c28146ed4869c190b3f0bdc18d80d45f92134 OP_EQUALVERIFY OP_CHECKSIG",
            "hex": "76a914e16c28146ed4869c190b3f0bdc18d80d45f9213488ac",
            "reqSigs": 1,
            "type": "pubkeyhash",
            "addresses": [
              "LfmssDyX6iZvbVqHv6t9P6JWXia2JG7mdb"
            ]
          }
        }, 
        {
          "value": 0.00000000,
          "n": 1,
          "scriptPubKey": {
            "asm": "OP_RETURN aa21a9ede4ea394c7654b22267431e952f70282e56605d99cdc9fa815e80025f24abfaaf",
            "hex": "6a24aa21a9ede4ea394c7654b22267431e952f70282e56605d99cdc9fa815e80025f24abfaaf",
            "type": "nulldata"
          }
        }
      ],
      "hex": "010000000001010000000000000000000000000000000000000000000000000000000000000000ffffffff5c0351bf14192f5669614254432f4d696e656420627920787463303038382f2cfabe6d6d1367b654eae46f6f933b894b84bb1ef870f71667a81bdc2e6398fc00b3aa47e4010000000000000010177d710017c20381fd26113fa8010000ffffffff02f0d80595000000001976a914e16c28146ed4869c190b3f0bdc18d80d45f9213488ac0000000000000000266a24aa21a9ede4ea394c7654b22267431e952f70282e56605d99cdc9fa815e80025f24abfaaf0120000000000000000000000000000000000000000000000000000000000000000000000000"
    }, 
    {
      "txid": "ffbc4bd92e052f15abf8de7c4f858eae93dcbf6e2ef1a13bbbb639c36b7229d5",
      "hash": "2dcfd3b64fdbc9faacdddca76ef1c8fe8486a3f208bb53b8f8400a4bbc3f4fe3",
      "version": 1,
      "size": 374,
      "vsize": 208,
      "locktime": 0,
      "vin": [
        {
          "txid": "f800aa2fd7df903f8bacf5d0b74c3a0ec4fde76700067acd4e8ffe0918572386",
          "vout": 1,
          "scriptSig": {
            "asm": "0020409fd93c7351b461fa46963fa28755038f397ee054ab9e56eda0b1081d768cc4",
            "hex": "220020409fd93c7351b461fa46963fa28755038f397ee054ab9e56eda0b1081d768cc4"
          },
          "txinwitness": [
            "", 
            "3045022100aad79237cad1e235e88850ca20cb7d146223b4fc2886df5df572e911e3ca780a02202443843bc30d0c59ff2833840b07b84439481d84104d4d7c63fb11079f62482b01", 
            "3045022100ca06b694068cd9858eb9ea22e012874f4ac1203ab186fb01ff462f9c8a28fe9202204eb4694da87f0a0ecb72bbe066254ba884e494d30e9a25188c11d44c897a1fa201", 
            "522103ceb293b39e087131961da42b3deaef48432d57a08bfd111247901be2936525b32103fa185b0d6c2a6d812d1a9418c54b3cea527d229a73a0c6c72345a1851ebcdad352ae"
          ],
          "sequence": 4294967295
        }
      ],
      "vout": [
        {
          "value": 0.01123600,
          "n": 0,
          "scriptPubKey": {
            "asm": "OP_DUP OP_HASH160 7e1197733d783af29b5f38befa1bc95cd0d78a0a OP_EQUALVERIFY OP_CHECKSIG",
            "hex": "76a9147e1197733d783af29b5f38befa1bc95cd0d78a0a88ac",
            "reqSigs": 1,
            "type": "pubkeyhash",
            "addresses": [
              "LWiYUfnmLJ1zce6CNPgHgjGVJwWnYdj8st"
            ]
          }
        }, 
        {
          "value": 0.17194500,
          "n": 1,
          "scriptPubKey": {
            "asm": "OP_HASH160 2d9ba1f1c217fd18a576b17eaf8a1c6f1cd2f1de OP_EQUAL",
            "hex": "a9142d9ba1f1c217fd18a576b17eaf8a1c6f1cd2f1de87",
            "reqSigs": 1,
            "type": "scripthash",
            "addresses": [
              "MC4K5c2x6rcVohDBLrLNQRsqL5atuzztot"
            ]
          }
        }
      ],
      "hex": "010000000001018623571809fe8f4ecd7a060067e7fdc40e3a4cb7d0f5ac8b3f90dfd72faa00f80100000023220020409fd93c7351b461fa46963fa28755038f397ee054ab9e56eda0b1081d768cc4ffffffff0210251100000000001976a9147e1197733d783af29b5f38befa1bc95cd0d78a0a88ac045e06010000000017a9142d9ba1f1c217fd18a576b17eaf8a1c6f1cd2f1de870400483045022100aad79237cad1e235e88850ca20cb7d146223b4fc2886df5df572e911e3ca780a02202443843bc30d0c59ff2833840b07b84439481d84104d4d7c63fb11079f62482b01483045022100ca06b694068cd9858eb9ea22e012874f4ac1203ab186fb01ff462f9c8a28fe9202204eb4694da87f0a0ecb72bbe066254ba884e494d30e9a25188c11d44c897a1fa20147522103ceb293b39e087131961da42b3deaef48432d57a08bfd111247901be2936525b32103fa185b0d6c2a6d812d1a9418c54b3cea527d229a73a0c6c72345a1851ebcdad352ae00000000"
    }, 
    {
      "txid": "b459cdf15b0ba90cc64438e6aa156946d7e839f7550f9c4e83078d4d499ea624",
      "hash": "b459cdf15b0ba90cc64438e6aa156946d7e839f7550f9c4e83078d4d499ea624",
      "version": 1,
      "size": 225,
      "vsize": 225,
      "locktime": 0,
      "vin": [
        {
          "txid": "22d77bf45edcc5d2ca9d703bd62e0a05e5c07ea7595c28576604c753325b7b95",
          "vout": 10,
          "scriptSig": {
            "asm": "304402204effda9130d7943125485b0080bb3479450db05226a2202591b4068aa8f656b8022074397333d1a76e0ecff478da9a211e29776ec7f765f331c9a9659f6453b9bef1[ALL] 03796778fe5cc74d2fc29a04298304b3a882c84b744f2088383b1c4accde414fa8",
            "hex": "47304402204effda9130d7943125485b0080bb3479450db05226a2202591b4068aa8f656b8022074397333d1a76e0ecff478da9a211e29776ec7f765f331c9a9659f6453b9bef1012103796778fe5cc74d2fc29a04298304b3a882c84b744f2088383b1c4accde414fa8"
          },
          "sequence": 4294967295
        }
      ],
      "vout": [
        {
          "value": 1.30821922,
          "n": 0,
          "scriptPubKey": {
            "asm": "OP_DUP OP_HASH160 8f0b58e7f21d4230bff18fa9a4292c3ba888524d OP_EQUALVERIFY OP_CHECKSIG",
            "hex": "76a9148f0b58e7f21d4230bff18fa9a4292c3ba888524d88ac",
            "reqSigs": 1,
            "type": "pubkeyhash",
            "addresses": [
              "LYGJV4up1tkSzwziE3Jv8Fdn2WrvnEYWaP"
            ]
          }
        }, 
        {
          "value": 0.70452978,
          "n": 1,
          "scriptPubKey": {
            "asm": "OP_DUP OP_HASH160 a9a45e87a2eecd483d3ec345725557e059157801 OP_EQUALVERIFY OP_CHECKSIG",
            "hex": "76a914a9a45e87a2eecd483d3ec345725557e05915780188ac",
            "reqSigs": 1,
            "type": "pubkeyhash",
            "addresses": [
              "LagwND3qc9fsVob3jc37uGvnNtYzt2xRKc"
            ]
          }
        }
      ],
      "hex": "0100000001957b5b3253c7046657285c59a77ec0e5050a2ed63b709dcad2c5dc5ef47bd7220a0000006a47304402204effda9130d7943125485b0080bb3479450db05226a2202591b4068aa8f656b8022074397333d1a76e0ecff478da9a211e29776ec7f765f331c9a9659f6453b9bef1012103796778fe5cc74d2fc29a04298304b3a882c84b744f2088383b1c4accde414fa8ffffffff02222fcc07000000001976a9148f0b58e7f21d4230bff18fa9a4292c3ba888524d88acf2063304000000001976a914a9a45e87a2eecd483d3ec345725557e05915780188ac00000000"
    }, 
    {
      "txid": "431793d518f45c4b673635739c6c5970fa36cad02bbca59936232f2ba573f9ff",
      "hash": "431793d518f45c4b673635739c6c5970fa36cad02bbca59936232f2ba573f9ff",
      "version": 1,
      "size": 226,
      "vsize": 226,
      "locktime": 0,
      "vin": [
        {
          "txid": "89b70d623da792b0a0769c1f211192a4d3aec6bdf1fe8e51819607192b5341f1",
          "vout": 4,
          "scriptSig": {
            "asm": "3045022100d40ac7dad1eaf26c20e4be5d059fa5b4320b5808e3410882cfba875b72be76c602201fd39681ae9957858fe91ecdc8c434cd93e33891245e2fbded40a0080c82bac5[ALL] 0290ad7896af8763bf92bd74c145571b84782bb2ae70c5475dc0d4dcd8af933bb9",
            "hex": "483045022100d40ac7dad1eaf26c20e4be5d059fa5b4320b5808e3410882cfba875b72be76c602201fd39681ae9957858fe91ecdc8c434cd93e33891245e2fbded40a0080c82bac501210290ad7896af8763bf92bd74c145571b84782bb2ae70c5475dc0d4dcd8af933bb9"
          },
          "sequence": 4294967295
        }
      ],
      "vout": [
        {
          "value": 13.98590159,
          "n": 0,
          "scriptPubKey": {
            "asm": "OP_DUP OP_HASH160 b12b037b1b237c17cedcbf5173320b7580b16f76 OP_EQUALVERIFY OP_CHECKSIG",
            "hex": "76a914b12b037b1b237c17cedcbf5173320b7580b16f7688ac",
            "reqSigs": 1,
            "type": "pubkeyhash",
            "addresses": [
              "LbNjPobL7rUaAxSn9MsT2ENjVRYfCj2uZV"
            ]
          }
        }, 
        {
          "value": 6.01387241,
          "n": 1,
          "scriptPubKey": {
            "asm": "OP_DUP OP_HASH160 ac978bb30ad081c15e444c92e36b4da236442902 OP_EQUALVERIFY OP_CHECKSIG",
            "hex": "76a914ac978bb30ad081c15e444c92e36b4da23644290288ac",
            "reqSigs": 1,
            "type": "pubkeyhash",
            "addresses": [
              "LaxY2neAgCs19Droi8cU1DNufrGsP66SEp"
            ]
          }
        }
      ],
      "hex": "0100000001f141532b19079681518efef1bdc6aed3a49211211f9c76a0b092a73d620db789040000006b483045022100d40ac7dad1eaf26c20e4be5d059fa5b4320b5808e3410882cfba875b72be76c602201fd39681ae9957858fe91ecdc8c434cd93e33891245e2fbded40a0080c82bac501210290ad7896af8763bf92bd74c145571b84782bb2ae70c5475dc0d4dcd8af933bb9ffffffff02cfca5c53000000001976a914b12b037b1b237c17cedcbf5173320b7580b16f7688ace970d823000000001976a914ac978bb30ad081c15e444c92e36b4da23644290288ac00000000"
    }, 
    {
      "txid": "a7e58693087908654da1aa3da67c5f41553b67cc988fafefdaa5e4484b7b1998",
      "hash": "a7e58693087908654da1aa3da67c5f41553b67cc988fafefdaa5e4484b7b1998",
      "version": 1,
      "size": 1373,
      "vsize": 1373,
      "locktime": 0,
      "vin": [
        {
          "txid": "08f870f3f667bf25f4c7dd6fde33fd370b7b649cd43784061c6d75b22206aa03",
          "vout": 1,
          "scriptSig": {
            "asm": "3045022100f4a296e08e70e0b48836d36212e81c1e2f8a84079ec687bc12c5e5e256fc4da102206545bfa7a7a71cee7aac765bb49d66e784721496d86753b8e199c0b926b38d75[ALL] 036f044d14e300af54cb46448e3c1586d0324bdb0e5ba88bbb2b445b6d214daf46",
            "hex": "483045022100f4a296e08e70e0b48836d36212e81c1e2f8a84079ec687bc12c5e5e256fc4da102206545bfa7a7a71cee7aac765bb49d66e784721496d86753b8e199c0b926b38d750121036f044d14e300af54cb46448e3c1586d0324bdb0e5ba88bbb2b445b6d214daf46"
          },
          "sequence": 4294967295
        }, 
        {
          "txid": "17def2d7da03891dcbcdbf5468081980be8127073116308fa5c76981a1b5e405",
          "vout": 11,
          "scriptSig": {
            "asm": "3045022100cf533194a85a2fcbdb62c82f320af959a9d10e848c277521deca8dc813665c9b022070bbe3aaa190689fd8056c9fa1f3ec452fbe3814c82df016798ad07ec1e0cf59[ALL] 02f45a7cfe24d48da5f0adf5c38b0289bcc2a2de0ad87dda8e033046e91101aec9",
            "hex": "483045022100cf533194a85a2fcbdb62c82f320af959a9d10e848c277521deca8dc813665c9b022070bbe3aaa190689fd8056c9fa1f3ec452fbe3814c82df016798ad07ec1e0cf59012102f45a7cfe24d48da5f0adf5c38b0289bcc2a2de0ad87dda8e033046e91101aec9"
          },
          "sequence": 4294967295
        }, 
        {
          "txid": "c74cbc938ca2487df813e2794e1dcca4975e3349655db1988803a03a6501a8f6",
          "vout": 0,
          "scriptSig": {
            "asm": "304502210090d7b4f63b2165691b31a5c9a6e145b815e33e670aa927fa0b72a8070a672fce022044f8278c66d33fa8c63e94d55514a4b4bc0dafa809118a14526a16e7f8625b6d[ALL] 03a47a0bd523b4efbc7d73c694dd7a62bde1056e82f8e45f17b02443a34c37b207",
            "hex": "48304502210090d7b4f63b2165691b31a5c9a6e145b815e33e670aa927fa0b72a8070a672fce022044f8278c66d33fa8c63e94d55514a4b4bc0dafa809118a14526a16e7f8625b6d012103a47a0bd523b4efbc7d73c694dd7a62bde1056e82f8e45f17b02443a34c37b207"
          },
          "sequence": 4294967295
        }, 
        {
          "txid": "22d77bf45edcc5d2ca9d703bd62e0a05e5c07ea7595c28576604c753325b7b95",
          "vout": 36,
          "scriptSig": {
            "asm": "3045022100fe0b250411772836e46ed71613132c0dac2a9b5cab80c3d3a9643e939e4f19cf0220118b727bd8a592f0faa6076a941723eaeaa01a8cb3b2ec67d649381e53d4869d[ALL] 03e04ee07743679e900006b1b88fc0d77bacd785658a5f2e238e8fa91d0ec117c8",
            "hex": "483045022100fe0b250411772836e46ed71613132c0dac2a9b5cab80c3d3a9643e939e4f19cf0220118b727bd8a592f0faa6076a941723eaeaa01a8cb3b2ec67d649381e53d4869d012103e04ee07743679e900006b1b88fc0d77bacd785658a5f2e238e8fa91d0ec117c8"
          },
          "sequence": 4294967295
        }, 
        {
          "txid": "c74cbc938ca2487df813e2794e1dcca4975e3349655db1988803a03a6501a8f6",
          "vout": 1,
          "scriptSig": {
            "asm": "3044022057e6fff48f835b680196723d7edf1821b8c142f557fa7df1f3eb320b7632b8b40220634e0b48732ec23569eca18103e2dfc800b5006475c3878a8819a5be43359f07[ALL] 03ca8c881f91153538584900d4fbe1b846805c73e4733af78c36ffaa2c4b25bb22",
            "hex": "473044022057e6fff48f835b680196723d7edf1821b8c142f557fa7df1f3eb320b7632b8b40220634e0b48732ec23569eca18103e2dfc800b5006475c3878a8819a5be43359f07012103ca8c881f91153538584900d4fbe1b846805c73e4733af78c36ffaa2c4b25bb22"
          },
          "sequence": 4294967295
        }, 
        {
          "txid": "36284e4635ce8a355ef00354c7e0d9fbeb9d20cb3af1bbac0c8991ba2352f1b5",
          "vout": 1,
          "scriptSig": {
            "asm": "30440220415f7a94550be1a48da9500c4c2c01d8bb99f51d83e5506b201d8635f6c046c802206c4b424906309a118a0d24ac004be4bb783e405e6962943644281a1119abec89[ALL] 03b19e753fe5fe3c4a7c06ad4534f575efa6f4cad581c8276e7249e36e0a3ed379",
            "hex": "4730440220415f7a94550be1a48da9500c4c2c01d8bb99f51d83e5506b201d8635f6c046c802206c4b424906309a118a0d24ac004be4bb783e405e6962943644281a1119abec89012103b19e753fe5fe3c4a7c06ad4534f575efa6f4cad581c8276e7249e36e0a3ed379"
          },
          "sequence": 4294967295
        }, 
        {
          "txid": "c55bc95cd8674c6b78e1b2a080577fe7d3bab8bbf0913c5d11abcef42db46d05",
          "vout": 1,
          "scriptSig": {
            "asm": "3045022100c71823c88ef7452a45e30d1b08102fd33388c1b9a5acdfcb028c96af871c7f4e022065433e5e922c00a9e0aed15ac949db2b91b69223d86ed6477ca04ecb3d383bd1[ALL] 03ce80e0bf26c1a4df40353a4180690d05d94a327a40a0b2ef85e9fbaa6514ccd0",
            "hex": "483045022100c71823c88ef7452a45e30d1b08102fd33388c1b9a5acdfcb028c96af871c7f4e022065433e5e922c00a9e0aed15ac949db2b91b69223d86ed6477ca04ecb3d383bd1012103ce80e0bf26c1a4df40353a4180690d05d94a327a40a0b2ef85e9fbaa6514ccd0"
          },
          "sequence": 4294967295
        }, 
        {
          "txid": "9c9af3e5796c1ce97abe0ee20883f5e79d87dde22169ae00afc1b0a0f707f63f",
          "vout": 0,
          "scriptSig": {
            "asm": "30440220639fed8154c01ffe42bc8d65a687c94314994d7b2b6682c51d9aa7523268daef02201fe535e79491f34802b5695a7cd6d5fa7c9bafd4b493f21817bd3b499741ba49[ALL] 024acb1dc2afd605fed0fe472d67241eaf8922da7d45fb56bd01e159f9da7f962b",
            "hex": "4730440220639fed8154c01ffe42bc8d65a687c94314994d7b2b6682c51d9aa7523268daef02201fe535e79491f34802b5695a7cd6d5fa7c9bafd4b493f21817bd3b499741ba490121024acb1dc2afd605fed0fe472d67241eaf8922da7d45fb56bd01e159f9da7f962b"
          },
          "sequence": 4294967295
        }, 
        {
          "txid": "178674ee23a391ffd274edef9676975f8141c3317ce5b212722ff3067127e910",
          "vout": 31,
          "scriptSig": {
            "asm": "3045022100d98fb06020c3b975c474b87eb05a9ac47c9a187216c02b60dd432b62b98e09ba0220725f13b17a0e3d57dcc00344b31b1f6275d2e4f056ab6fb4dc4feaff021f06c8[ALL] 03d67dd225b6c94e2f72cadbcde5e44cfb19a5112dbae279accb8c381242fd658f",
            "hex": "483045022100d98fb06020c3b975c474b87eb05a9ac47c9a187216c02b60dd432b62b98e09ba0220725f13b17a0e3d57dcc00344b31b1f6275d2e4f056ab6fb4dc4feaff021f06c8012103d67dd225b6c94e2f72cadbcde5e44cfb19a5112dbae279accb8c381242fd658f"
          },
          "sequence": 4294967295
        }
      ],
      "vout": [
        {
          "value": 21.31820530,
          "n": 0,
          "scriptPubKey": {
            "asm": "OP_DUP OP_HASH160 6c2614c7b45ef8dfa8dc83e6739ddbe201d05ab0 OP_EQUALVERIFY OP_CHECKSIG",
            "hex": "76a9146c2614c7b45ef8dfa8dc83e6739ddbe201d05ab088ac",
            "reqSigs": 1,
            "type": "pubkeyhash",
            "addresses": [
              "LV5nrreyVZJVvptA9PZSD4ViegKh7Qa8MA"
            ]
          }
        }
      ],
      "hex": "010000000903aa0622b2756d1c068437d49c647b0b37fd33de6fddc7f425bf67f6f370f808010000006b483045022100f4a296e08e70e0b48836d36212e81c1e2f8a84079ec687bc12c5e5e256fc4da102206545bfa7a7a71cee7aac765bb49d66e784721496d86753b8e199c0b926b38d750121036f044d14e300af54cb46448e3c1586d0324bdb0e5ba88bbb2b445b6d214daf46ffffffff05e4b5a18169c7a58f301631072781be8019086854bfcdcb1d8903dad7f2de170b0000006b483045022100cf533194a85a2fcbdb62c82f320af959a9d10e848c277521deca8dc813665c9b022070bbe3aaa190689fd8056c9fa1f3ec452fbe3814c82df016798ad07ec1e0cf59012102f45a7cfe24d48da5f0adf5c38b0289bcc2a2de0ad87dda8e033046e91101aec9fffffffff6a801653aa0038898b15d6549335e97a4cc1d4e79e213f87d48a28c93bc4cc7000000006b48304502210090d7b4f63b2165691b31a5c9a6e145b815e33e670aa927fa0b72a8070a672fce022044f8278c66d33fa8c63e94d55514a4b4bc0dafa809118a14526a16e7f8625b6d012103a47a0bd523b4efbc7d73c694dd7a62bde1056e82f8e45f17b02443a34c37b207ffffffff957b5b3253c7046657285c59a77ec0e5050a2ed63b709dcad2c5dc5ef47bd722240000006b483045022100fe0b250411772836e46ed71613132c0dac2a9b5cab80c3d3a9643e939e4f19cf0220118b727bd8a592f0faa6076a941723eaeaa01a8cb3b2ec67d649381e53d4869d012103e04ee07743679e900006b1b88fc0d77bacd785658a5f2e238e8fa91d0ec117c8fffffffff6a801653aa0038898b15d6549335e97a4cc1d4e79e213f87d48a28c93bc4cc7010000006a473044022057e6fff48f835b680196723d7edf1821b8c142f557fa7df1f3eb320b7632b8b40220634e0b48732ec23569eca18103e2dfc800b5006475c3878a8819a5be43359f07012103ca8c881f91153538584900d4fbe1b846805c73e4733af78c36ffaa2c4b25bb22ffffffffb5f15223ba91890cacbbf13acb209debfbd9e0c75403f05e358ace35464e2836010000006a4730440220415f7a94550be1a48da9500c4c2c01d8bb99f51d83e5506b201d8635f6c046c802206c4b424906309a118a0d24ac004be4bb783e405e6962943644281a1119abec89012103b19e753fe5fe3c4a7c06ad4534f575efa6f4cad581c8276e7249e36e0a3ed379ffffffff056db42df4ceab115d3c91f0bbb8bad3e77f5780a0b2e1786b4c67d85cc95bc5010000006b483045022100c71823c88ef7452a45e30d1b08102fd33388c1b9a5acdfcb028c96af871c7f4e022065433e5e922c00a9e0aed15ac949db2b91b69223d86ed6477ca04ecb3d383bd1012103ce80e0bf26c1a4df40353a4180690d05d94a327a40a0b2ef85e9fbaa6514ccd0ffffffff3ff607f7a0b0c1af00ae6921e2dd879de7f58308e20ebe7ae91c6c79e5f39a9c000000006a4730440220639fed8154c01ffe42bc8d65a687c94314994d7b2b6682c51d9aa7523268daef02201fe535e79491f34802b5695a7cd6d5fa7c9bafd4b493f21817bd3b499741ba490121024acb1dc2afd605fed0fe472d67241eaf8922da7d45fb56bd01e159f9da7f962bffffffff10e9277106f32f7212b2e57c31c341815f977696efed74d2ff91a323ee7486171f0000006b483045022100d98fb06020c3b975c474b87eb05a9ac47c9a187216c02b60dd432b62b98e09ba0220725f13b17a0e3d57dcc00344b31b1f6275d2e4f056ab6fb4dc4feaff021f06c8012103d67dd225b6c94e2f72cadbcde5e44cfb19a5112dbae279accb8c381242fd658fffffffff01f2ff107f000000001976a9146c2614c7b45ef8dfa8dc83e6739ddbe201d05ab088ac00000000"
    }
  ],
  "time": 1517319559,
  "mediantime": 1517319291,
  "nonce": 48210674,
  "bits": "1a042eae",
  "difficulty": 4011378.762614286,
  "chainwork": "0000000000000000000000000000000000000000000000343f2f9af50670d6a4",
  "previousblockhash": "033e810cd4e656a5c24ef2c1293d6e2f324c6013c318fe92643895ddb2528823",
  "nextblockhash": "3c40c7692e7463f3f7dc8805785f37a375f87850fb0e67fb096d8d28e71eb6f7"
}
