{
  "hash": "04f2a12f15fbc8b693138906f705e94df44ab65909b718e26d4bc706fbcac77a",
  "confirmations": 447,
  "strippedsize": 253,
  "size": 253,
  "weight": 1012,
  "height": 1360547,
  "version": 536870912,
  "versionHex": "20000000",
  "merkleroot": "68d5df04d2ffdb6be5fde72a8b24434dac0b5cc39fbdde38dec127458bf690df",
  "tx": [
    {
      "txid": "68d5df04d2ffdb6be5fde72a8b24434dac0b5cc39fbdde38dec127458bf690df",
      "hash": "68d5df04d2ffdb6be5fde72a8b24434dac0b5cc39fbdde38dec127458bf690df",
      "version": 1,
      "size": 172,
      "vsize": 172,
      "locktime": 0,
      "vin": [
        {
          "coinbase": "03a3c2141a4d696e656420627920416e74506f6f6c20626a3532205a7269aefabe6d6dbcdce696fb62f93a1397be634cdf4daa18de3561361d775b696492b47928ac7d0400000000000000cd1e0000000000001d000000",
          "sequence": 4294967295
        }
      ],
      "vout": [
        {
          "value": 25.00000000,
          "n": 0,
          "scriptPubKey": {
            "asm": "OP_DUP OP_HASH160 0ff3ccc5e8be88afe24b5d634e5852d474dbdff1 OP_EQUALVERIFY OP_CHECKSIG",
            "hex": "76a9140ff3ccc5e8be88afe24b5d634e5852d474dbdff188ac",
            "reqSigs": 1,
            "type": "pubkeyhash",
            "addresses": [
              "LLgJTbzZMsRTCUF1NtvvL9SR1a4pVieW89"
            ]
          }
        }
      ],
      "hex": "01000000010000000000000000000000000000000000000000000000000000000000000000ffffffff5703a3c2141a4d696e656420627920416e74506f6f6c20626a3532205a7269aefabe6d6dbcdce696fb62f93a1397be634cdf4daa18de3561361d775b696492b47928ac7d0400000000000000cd1e0000000000001d000000ffffffff0100f90295000000001976a9140ff3ccc5e8be88afe24b5d634e5852d474dbdff188ac00000000"
    }
  ],
  "time": 1517447598,
  "mediantime": 1517446982,
  "nonce": 2755398432,
  "bits": "1a042eae",
  "difficulty": 4011378.762614286,
  "chainwork": "0000000000000000000000000000000000000000000000350a6bdd3d8197a848",
  "previousblockhash": "333b8f86f19ac3271ed327b550eebb493c65f805163f0beee07b4500f4308189",
  "nextblockhash": "53aae1611868dd6bee017ed6d2f4ced4b467961a331644caaef536b89128ced4"
}
