{
  "hash": "050410822ed93bc544b3d2f84082c1099abdd4083abe08cd799454f436469a10",
  "confirmations": 563,
  "strippedsize": 5247,
  "size": 5723,
  "weight": 21464,
  "height": 1360431,
  "version": 536870912,
  "versionHex": "20000000",
  "merkleroot": "1f140dd7e3b644253d7f63545b7572cd24e8878df608671d0cf3ea47d11a8d22",
  "tx": [
    {
      "txid": "cdff7f8105707df12e3497c92d600352a5a4a1dfa82874da0c82dbbb3ba4b600",
      "hash": "fc7d7ebc118ccbbc857a67154da6ee68943648ac7d34c6bca82a429fb2139e90",
      "version": 1,
      "size": 244,
      "vsize": 217,
      "locktime": 0,
      "vin": [
        {
          "coinbase": "032fc214043525725a080332cad012000000fabe6d6d621827198d62bce91c4a34ed4a881a303a4c4bb1fe4942a5379d2de534826ee240000000000000000d2f6e6f64655374726174756d2f",
          "sequence": 0
        }
      ],
      "vout": [
        {
          "value": 25.00697396,
          "n": 0,
          "scriptPubKey": {
            "asm": "OP_DUP OP_HASH160 0c617fdb2ea42aed30a509595ee21ba3f6688db0 OP_EQUALVERIFY OP_CHECKSIG",
            "hex": "76a9140c617fdb2ea42aed30a509595ee21ba3f6688db088ac",
            "reqSigs": 1,
            "type": "pubkeyhash",
            "addresses": [
              "LLMRAtr3qBje2ySEa3CnZ55LA4TQMWnRY3"
            ]
          }
        }, 
        {
          "value": 0.00000000,
          "n": 1,
          "scriptPubKey": {
            "asm": "OP_RETURN aa21a9ed8baf00205c641de6fff75c46b286160a9400331dfcdbeec776c219b798da778f",
            "hex": "6a24aa21a9ed8baf00205c641de6fff75c46b286160a9400331dfcdbeec776c219b798da778f",
            "type": "nulldata"
          }
        }
      ],
      "hex": "010000000001010000000000000000000000000000000000000000000000000000000000000000ffffffff4c032fc214043525725a080332cad012000000fabe6d6d621827198d62bce91c4a34ed4a881a303a4c4bb1fe4942a5379d2de534826ee240000000000000000d2f6e6f64655374726174756d2f0000000002349d0d95000000001976a9140c617fdb2ea42aed30a509595ee21ba3f6688db088ac0000000000000000266a24aa21a9ed8baf00205c641de6fff75c46b286160a9400331dfcdbeec776c219b798da778f0120000000000000000000000000000000000000000000000000000000000000000000000000"
    }, 
    {
      "txid": "ea8ed95b379c32ea2e3a5037a9d003314de8dfef99b95da96e72cdec5a0f8ff7",
      "hash": "ea8ed95b379c32ea2e3a5037a9d003314de8dfef99b95da96e72cdec5a0f8ff7",
      "version": 2,
      "size": 554,
      "vsize": 554,
      "locktime": 1360429,
      "vin": [
        {
          "txid": "ba389088b35160351412aaf11129d09a31a356e9d9c904919b61e016d023f9af",
          "vout": 0,
          "scriptSig": {
            "asm": "304402200d1e4ffe4d0454ae9c1c66b53618fc70c692f3c153659fca3aa848671ebda4be02203d445ef5093557262d0def4361b4326be65f3494842f8f24a2e0b1f2dd19b62d[ALL] 03fac81a57cffd111e3bea445bc9aed06d4f03321b5fddf0bd589b058bc03dd64c",
            "hex": "47304402200d1e4ffe4d0454ae9c1c66b53618fc70c692f3c153659fca3aa848671ebda4be02203d445ef5093557262d0def4361b4326be65f3494842f8f24a2e0b1f2dd19b62d012103fac81a57cffd111e3bea445bc9aed06d4f03321b5fddf0bd589b058bc03dd64c"
          },
          "sequence": 4294967294
        }, 
        {
          "txid": "14507ec6771d1e7ad4992b26764f061404f8b6f2473caa7ffadc53d493573bb4",
          "vout": 1,
          "scriptSig": {
            "asm": "3045022100d65f975d658b57d9c0b27bff9a49dea62f42aef5d0606969628679b9f8685f9002206c2f1f3115e6a7103ba325b5215f49478dcf0c989d495032bac0919feed615e1[ALL] 0383753f2d16535a07e1c3c1d6bf1b151efb0784e725cbffab9aac12da204fb069",
            "hex": "483045022100d65f975d658b57d9c0b27bff9a49dea62f42aef5d0606969628679b9f8685f9002206c2f1f3115e6a7103ba325b5215f49478dcf0c989d495032bac0919feed615e101210383753f2d16535a07e1c3c1d6bf1b151efb0784e725cbffab9aac12da204fb069"
          },
          "sequence": 4294967294
        }, 
        {
          "txid": "8462f1b49706fa80ad05755432b4f29ff5f23e730662be64f0bb72734e6fbe09",
          "vout": 1,
          "scriptSig": {
            "asm": "3044022032c72183d60cd10edf79d52088f8dce7c9702471b1fdc41fca86ef60cf71482c02207a5a2be57966371e61d588ca4d3419ea3b4b3a4e5cccfc3e2466107933c65ae9[ALL] 0236878964616b8975b7c533bafeff64740342bf41d392395ce19a5681f82b7e20",
            "hex": "473044022032c72183d60cd10edf79d52088f8dce7c9702471b1fdc41fca86ef60cf71482c02207a5a2be57966371e61d588ca4d3419ea3b4b3a4e5cccfc3e2466107933c65ae901210236878964616b8975b7c533bafeff64740342bf41d392395ce19a5681f82b7e20"
          },
          "sequence": 4294967294
        }
      ],
      "vout": [
        {
          "value": 0.02234385,
          "n": 0,
          "scriptPubKey": {
            "asm": "OP_DUP OP_HASH160 741bbbee721fc85209821d7b1a7d08521db3945b OP_EQUALVERIFY OP_CHECKSIG",
            "hex": "76a914741bbbee721fc85209821d7b1a7d08521db3945b88ac",
            "reqSigs": 1,
            "type": "pubkeyhash",
            "addresses": [
              "LVossTv9396W89NYEGQRrX1Ho9LE4yJaQD"
            ]
          }
        }, 
        {
          "value": 0.00761660,
          "n": 1,
          "scriptPubKey": {
            "asm": "OP_DUP OP_HASH160 f47bbd10581683f0dd64147a6cbff3a24345e15a OP_EQUALVERIFY OP_CHECKSIG",
            "hex": "76a914f47bbd10581683f0dd64147a6cbff3a24345e15a88ac",
            "reqSigs": 1,
            "type": "pubkeyhash",
            "addresses": [
              "LhWfNXKCiM7Hbpn8NHc3LomLzDvFzwrwxS"
            ]
          }
        }, 
        {
          "value": 0.95000000,
          "n": 2,
          "scriptPubKey": {
            "asm": "OP_DUP OP_HASH160 b2fade621aa1c98c6a6f077383c2bb1120ea4eaa OP_EQUALVERIFY OP_CHECKSIG",
            "hex": "76a914b2fade621aa1c98c6a6f077383c2bb1120ea4eaa88ac",
            "reqSigs": 1,
            "type": "pubkeyhash",
            "addresses": [
              "LbYK529Zd9uREcfT9Bj1qzHvziQWxo78BF"
            ]
          }
        }
      ],
      "hex": "0200000003aff923d016e0619b9104c9d9e956a3319ad02911f1aa1214356051b3889038ba000000006a47304402200d1e4ffe4d0454ae9c1c66b53618fc70c692f3c153659fca3aa848671ebda4be02203d445ef5093557262d0def4361b4326be65f3494842f8f24a2e0b1f2dd19b62d012103fac81a57cffd111e3bea445bc9aed06d4f03321b5fddf0bd589b058bc03dd64cfeffffffb43b5793d453dcfa7faa3c47f2b6f80414064f76262b99d47a1e1d77c67e5014010000006b483045022100d65f975d658b57d9c0b27bff9a49dea62f42aef5d0606969628679b9f8685f9002206c2f1f3115e6a7103ba325b5215f49478dcf0c989d495032bac0919feed615e101210383753f2d16535a07e1c3c1d6bf1b151efb0784e725cbffab9aac12da204fb069feffffff09be6f4e7372bbf064be6206733ef2f59ff2b432547505ad80fa0697b4f16284010000006a473044022032c72183d60cd10edf79d52088f8dce7c9702471b1fdc41fca86ef60cf71482c02207a5a2be57966371e61d588ca4d3419ea3b4b3a4e5cccfc3e2466107933c65ae901210236878964616b8975b7c533bafeff64740342bf41d392395ce19a5681f82b7e20feffffff0311182200000000001976a914741bbbee721fc85209821d7b1a7d08521db3945b88ac3c9f0b00000000001976a914f47bbd10581683f0dd64147a6cbff3a24345e15a88acc095a905000000001976a914b2fade621aa1c98c6a6f077383c2bb1120ea4eaa88ac2dc21400"
    }, 
    {
      "txid": "40b31d4bd8764a42e7a0c934bfacf51a34ff9371c563bbe15ef42160204161fa",
      "hash": "8d3b716138a742841c967116ab84bb884986e77db5886b8feea390d96c6f14cc",
      "version": 1,
      "size": 668,
      "vsize": 338,
      "locktime": 0,
      "vin": [
        {
          "txid": "f4e2eb1ca6ccddf5ae0525a7b8f9cc06875ecea7299ffb4eb3a9f813230be12d",
          "vout": 0,
          "scriptSig": {
            "asm": "00206a4928a65bc74c4b45c979787a371832a7215d774d930d091a72e752f2925824",
            "hex": "2200206a4928a65bc74c4b45c979787a371832a7215d774d930d091a72e752f2925824"
          },
          "txinwitness": [
            "", 
            "3045022100eaa80606a91acaf632af8debb85a6918e8ec0f67ed8dda399a0633146c2b798102203a74ac1f09c74b3e3cddd1fcafc1e3d0de1d3640dd8219bb0270d213a82a473f01", 
            "30440220515b4e77bad9b7a905c6311b091783755b5f7c609081873e5692500b3471f7970220285d498d33a7950dcc08b8af62900c87e96e0cd494d142f5b016dd71ddaba24f01", 
            "5221027603e2e27db3395045ed0481fec6344d238633ab8e5004021d071961c90df4572103f91b90e32e883747364ffa5590975d3d76b4f77831b3823fb2f6760852e56bf852ae"
          ],
          "sequence": 4294967295
        }, 
        {
          "txid": "f4e2eb1ca6ccddf5ae0525a7b8f9cc06875ecea7299ffb4eb3a9f813230be12d",
          "vout": 1,
          "scriptSig": {
            "asm": "0020a310aa771be3f79153c6c230cc95e4c73b98346ea992e0f2470f265a3626f994",
            "hex": "220020a310aa771be3f79153c6c230cc95e4c73b98346ea992e0f2470f265a3626f994"
          },
          "txinwitness": [
            "", 
            "3044022044eb490bd12a445612fa4d5c8bd0eb46acf7124b9533a467ac4efe497d3959150220317f67f78020d6494acd0e6912d9878214b8114bec7fb56169a04c1fb505ef7e01", 
            "304502210092cedd16b1f62dab0c266113569fc1d1d68d68ccbd38bb4eef2c300b01e5ba250220749996ecd5c3e18461d0c7d460fbca28f322416ddc048c6113631b549cf8689f01", 
            "52210336a853aab76401549f67ea347b61afb8db46c383cb773e5bf902f3ebbb8d92932103f91b90e32e883747364ffa5590975d3d76b4f77831b3823fb2f6760852e56bf852ae"
          ],
          "sequence": 4294967295
        }
      ],
      "vout": [
        {
          "value": 0.25000000,
          "n": 0,
          "scriptPubKey": {
            "asm": "OP_DUP OP_HASH160 f64a18c4dc569d9508880e19dd6f7373ff9a4981 OP_EQUALVERIFY OP_CHECKSIG",
            "hex": "76a914f64a18c4dc569d9508880e19dd6f7373ff9a498188ac",
            "reqSigs": 1,
            "type": "pubkeyhash",
            "addresses": [
              "LhgDFjeCASDSTi3o95LopXkPdZcKsqaVg4"
            ]
          }
        }, 
        {
          "value": 0.00795200,
          "n": 1,
          "scriptPubKey": {
            "asm": "OP_HASH160 dc336fc7b46582cd380ca9c60427b1af09ea3685 OP_EQUAL",
            "hex": "a914dc336fc7b46582cd380ca9c60427b1af09ea368587",
            "reqSigs": 1,
            "type": "scripthash",
            "addresses": [
              "MTyUWWjAgiwpAqKb4YHd8tKEd6vBd1fPrb"
            ]
          }
        }
      ],
      "hex": "010000000001022de10b2313f8a9b34efb9f29a7ce5e8706ccf9b8a72505aef5ddcca61cebe2f400000000232200206a4928a65bc74c4b45c979787a371832a7215d774d930d091a72e752f2925824ffffffff2de10b2313f8a9b34efb9f29a7ce5e8706ccf9b8a72505aef5ddcca61cebe2f40100000023220020a310aa771be3f79153c6c230cc95e4c73b98346ea992e0f2470f265a3626f994ffffffff0240787d01000000001976a914f64a18c4dc569d9508880e19dd6f7373ff9a498188ac40220c000000000017a914dc336fc7b46582cd380ca9c60427b1af09ea3685870400483045022100eaa80606a91acaf632af8debb85a6918e8ec0f67ed8dda399a0633146c2b798102203a74ac1f09c74b3e3cddd1fcafc1e3d0de1d3640dd8219bb0270d213a82a473f014730440220515b4e77bad9b7a905c6311b091783755b5f7c609081873e5692500b3471f7970220285d498d33a7950dcc08b8af62900c87e96e0cd494d142f5b016dd71ddaba24f01475221027603e2e27db3395045ed0481fec6344d238633ab8e5004021d071961c90df4572103f91b90e32e883747364ffa5590975d3d76b4f77831b3823fb2f6760852e56bf852ae0400473044022044eb490bd12a445612fa4d5c8bd0eb46acf7124b9533a467ac4efe497d3959150220317f67f78020d6494acd0e6912d9878214b8114bec7fb56169a04c1fb505ef7e0148304502210092cedd16b1f62dab0c266113569fc1d1d68d68ccbd38bb4eef2c300b01e5ba250220749996ecd5c3e18461d0c7d460fbca28f322416ddc048c6113631b549cf8689f014752210336a853aab76401549f67ea347b61afb8db46c383cb773e5bf902f3ebbb8d92932103f91b90e32e883747364ffa5590975d3d76b4f77831b3823fb2f6760852e56bf852ae00000000"
    }, 
    {
      "txid": "5b99665f805ebfa07e6f9d6e3242124a704596e610520884927d9d72e5d8ce5a",
      "hash": "5b99665f805ebfa07e6f9d6e3242124a704596e610520884927d9d72e5d8ce5a",
      "version": 1,
      "size": 665,
      "vsize": 665,
      "locktime": 0,
      "vin": [
        {
          "txid": "2125729ac3b0a68eb0e36a808b44bcf39ccc109d18970329d4e1b0512abfef7a",
          "vout": 0,
          "scriptSig": {
            "asm": "0 304402204cb13830fb56052bb6a8f0333b0d5a719d6edb66a498f398a24d9d454e870bb90220693e13223620a8be2f9b885daf7fc5add39c0f6433095e20bac3ef3fdd8d0a54[ALL] 304402205bb007b5f2d573cebad746338e1fb69a6b97a1f6bd8805b216f357fc5281cf16022074397a0c2dd4b583516b18128c327005eec1fa833dfea47e3a69e85909fda116[ALL] 5221025c957fd30b9968fc810590a43dfa13937725905a70f34326516c8821e4a73d1d2102bf3952ae48efc8985014dbe0bb065496837e986d512f1bc01d4c062e60a4ac93210330d7c7094d4297c55c30261c251e747d668f3f53d815991d97dce558fcee4c2353ae",
            "hex": "0047304402204cb13830fb56052bb6a8f0333b0d5a719d6edb66a498f398a24d9d454e870bb90220693e13223620a8be2f9b885daf7fc5add39c0f6433095e20bac3ef3fdd8d0a540147304402205bb007b5f2d573cebad746338e1fb69a6b97a1f6bd8805b216f357fc5281cf16022074397a0c2dd4b583516b18128c327005eec1fa833dfea47e3a69e85909fda116014c695221025c957fd30b9968fc810590a43dfa13937725905a70f34326516c8821e4a73d1d2102bf3952ae48efc8985014dbe0bb065496837e986d512f1bc01d4c062e60a4ac93210330d7c7094d4297c55c30261c251e747d668f3f53d815991d97dce558fcee4c2353ae"
          },
          "sequence": 4294967295
        }, 
        {
          "txid": "e8a4e60e187e63f0ed302c16ea0db44ee42088b2430c75b0844e3f33d79ae227",
          "vout": 1,
          "scriptSig": {
            "asm": "0 3045022100abd76a572a333c6525eb3fefe63e72ba58440c216fb6c96f9f428e06cd91fe4d0220469f4ef4f569be6a3a3e30fd6a10e16133c982ab71209f6a2bda178619a5a1d9[ALL] 304402205d315acf6dc6d1bee9c28b16e07b68179fb7a39d94d64ac40701e55ca84b1e7f02206926c020d5cc4165d1f44eaa2c634026fe9d43bac018f7cd552bdbd35681bfdd[ALL] 5221028a4888c1014231fc37591176120ec5d073bfd1b83ce2fc1e200d32185ae208832102bf3952ae48efc8985014dbe0bb065496837e986d512f1bc01d4c062e60a4ac93210330d7c7094d4297c55c30261c251e747d668f3f53d815991d97dce558fcee4c2353ae",
            "hex": "00483045022100abd76a572a333c6525eb3fefe63e72ba58440c216fb6c96f9f428e06cd91fe4d0220469f4ef4f569be6a3a3e30fd6a10e16133c982ab71209f6a2bda178619a5a1d90147304402205d315acf6dc6d1bee9c28b16e07b68179fb7a39d94d64ac40701e55ca84b1e7f02206926c020d5cc4165d1f44eaa2c634026fe9d43bac018f7cd552bdbd35681bfdd014c695221028a4888c1014231fc37591176120ec5d073bfd1b83ce2fc1e200d32185ae208832102bf3952ae48efc8985014dbe0bb065496837e986d512f1bc01d4c062e60a4ac93210330d7c7094d4297c55c30261c251e747d668f3f53d815991d97dce558fcee4c2353ae"
          },
          "sequence": 4294967295
        }
      ],
      "vout": [
        {
          "value": 263.02200075,
          "n": 0,
          "scriptPubKey": {
            "asm": "OP_HASH160 b1edf68e812311a9e7460b6fbc15f479c09ba0d4 OP_EQUAL",
            "hex": "a914b1edf68e812311a9e7460b6fbc15f479c09ba0d487",
            "reqSigs": 1,
            "type": "scripthash",
            "addresses": [
              "MQ7xuMKBkjcGd6oXttKNippt18wziishEh"
            ]
          }
        }, 
        {
          "value": 0.81460697,
          "n": 1,
          "scriptPubKey": {
            "asm": "OP_DUP OP_HASH160 ffa45ccf430936ed59709db191fe27b6d2e7ad66 OP_EQUALVERIFY OP_CHECKSIG",
            "hex": "76a914ffa45ccf430936ed59709db191fe27b6d2e7ad6688ac",
            "reqSigs": 1,
            "type": "pubkeyhash",
            "addresses": [
              "LiXfUEpYdA1aVoHjvuMuyRBozHPcPpYyQG"
            ]
          }
        }
      ],
      "hex": "01000000027aefbf2a51b0e1d4290397189d10cc9cf3bc448b806ae3b08ea6b0c39a72252100000000fc0047304402204cb13830fb56052bb6a8f0333b0d5a719d6edb66a498f398a24d9d454e870bb90220693e13223620a8be2f9b885daf7fc5add39c0f6433095e20bac3ef3fdd8d0a540147304402205bb007b5f2d573cebad746338e1fb69a6b97a1f6bd8805b216f357fc5281cf16022074397a0c2dd4b583516b18128c327005eec1fa833dfea47e3a69e85909fda116014c695221025c957fd30b9968fc810590a43dfa13937725905a70f34326516c8821e4a73d1d2102bf3952ae48efc8985014dbe0bb065496837e986d512f1bc01d4c062e60a4ac93210330d7c7094d4297c55c30261c251e747d668f3f53d815991d97dce558fcee4c2353aeffffffff27e29ad7333f4e84b0750c43b28820e44eb40dea162c30edf0637e180ee6a4e801000000fdfd0000483045022100abd76a572a333c6525eb3fefe63e72ba58440c216fb6c96f9f428e06cd91fe4d0220469f4ef4f569be6a3a3e30fd6a10e16133c982ab71209f6a2bda178619a5a1d90147304402205d315acf6dc6d1bee9c28b16e07b68179fb7a39d94d64ac40701e55ca84b1e7f02206926c020d5cc4165d1f44eaa2c634026fe9d43bac018f7cd552bdbd35681bfdd014c695221028a4888c1014231fc37591176120ec5d073bfd1b83ce2fc1e200d32185ae208832102bf3952ae48efc8985014dbe0bb065496837e986d512f1bc01d4c062e60a4ac93210330d7c7094d4297c55c30261c251e747d668f3f53d815991d97dce558fcee4c2353aeffffffff020bb9bb1f0600000017a914b1edf68e812311a9e7460b6fbc15f479c09ba0d487d9fdda04000000001976a914ffa45ccf430936ed59709db191fe27b6d2e7ad6688ac00000000"
    }, 
    {
      "txid": "afcb3cfc49b724d86c68c11e812dc20851317822c14c6ecb6ce84ba471191713",
      "hash": "afcb3cfc49b724d86c68c11e812dc20851317822c14c6ecb6ce84ba471191713",
      "version": 1,
      "size": 225,
      "vsize": 225,
      "locktime": 0,
      "vin": [
        {
          "txid": "a9bc2849d7a79c8a4f957f9e72a5c0715ddc3ea57fec3e1cb549c01771fc61e3",
          "vout": 1,
          "scriptSig": {
            "asm": "304402202496bcc04b56f1f5535f45895a3a9707c27179eab92651a6d73a4fc95b5af2a0022008ba71e3d237fbb14aad8918e77ead6379333a55653a35974c1fc1f55a127263[ALL] 03cdd2d7dac46eaa9413e64aa54c63d81577c343a282b4cded7fbfc204d2a1362a",
            "hex": "47304402202496bcc04b56f1f5535f45895a3a9707c27179eab92651a6d73a4fc95b5af2a0022008ba71e3d237fbb14aad8918e77ead6379333a55653a35974c1fc1f55a127263012103cdd2d7dac46eaa9413e64aa54c63d81577c343a282b4cded7fbfc204d2a1362a"
          },
          "sequence": 4294967295
        }
      ],
      "vout": [
        {
          "value": 49.12034101,
          "n": 0,
          "scriptPubKey": {
            "asm": "OP_DUP OP_HASH160 c0109a0b6fd322cfe694a158f0f81d9113676069 OP_EQUALVERIFY OP_CHECKSIG",
            "hex": "76a914c0109a0b6fd322cfe694a158f0f81d911367606988ac",
            "reqSigs": 1,
            "type": "pubkeyhash",
            "addresses": [
              "LcjVtZ3mZ5FzHJ4R4SwgjqdnT4opbcj9D1"
            ]
          }
        }, 
        {
          "value": 3.09947363,
          "n": 1,
          "scriptPubKey": {
            "asm": "OP_DUP OP_HASH160 6251e4be1e40cbee7028d325a31a94baf888b852 OP_EQUALVERIFY OP_CHECKSIG",
            "hex": "76a9146251e4be1e40cbee7028d325a31a94baf888b85288ac",
            "reqSigs": 1,
            "type": "pubkeyhash",
            "addresses": [
              "LUBpb5GJoE7xFgEcV773f22GVj15FMtJ35"
            ]
          }
        }
      ],
      "hex": "0100000001e361fc7117c049b51c3eec7fa53edc5d71c0a5729e7f954f8a9ca7d74928bca9010000006a47304402202496bcc04b56f1f5535f45895a3a9707c27179eab92651a6d73a4fc95b5af2a0022008ba71e3d237fbb14aad8918e77ead6379333a55653a35974c1fc1f55a127263012103cdd2d7dac46eaa9413e64aa54c63d81577c343a282b4cded7fbfc204d2a1362affffffff0235b1c724010000001976a914c0109a0b6fd322cfe694a158f0f81d911367606988ace36b7912000000001976a9146251e4be1e40cbee7028d325a31a94baf888b85288ac00000000"
    }, 
    {
      "txid": "ec9b97c4388abee4fca65d0eace4be2ce30cc437a0f4ac0b9341743a70c82f5d",
      "hash": "ec9b97c4388abee4fca65d0eace4be2ce30cc437a0f4ac0b9341743a70c82f5d",
      "version": 1,
      "size": 225,
      "vsize": 225,
      "locktime": 0,
      "vin": [
        {
          "txid": "774e53e36b053381d1d9ecf8064df5feb2e393578b6c280e63a812fa27750add",
          "vout": 0,
          "scriptSig": {
            "asm": "3044022028ec3865ef3b56f66cf0f409d42b4de0aca1549fcda270477dff6b788882fc8302207f6a18187475c7bfa5df3ec53bd6c5fadb85a3dccbfb0924bd8dbb182d8c1c2e[ALL] 0328f4b7a2b6f57450ad0776d3504747e3372adca4735f3ea7cd13ec3cfb31b73e",
            "hex": "473044022028ec3865ef3b56f66cf0f409d42b4de0aca1549fcda270477dff6b788882fc8302207f6a18187475c7bfa5df3ec53bd6c5fadb85a3dccbfb0924bd8dbb182d8c1c2e01210328f4b7a2b6f57450ad0776d3504747e3372adca4735f3ea7cd13ec3cfb31b73e"
          },
          "sequence": 4294967295
        }
      ],
      "vout": [
        {
          "value": 3.11781918,
          "n": 0,
          "scriptPubKey": {
            "asm": "OP_DUP OP_HASH160 d196d34035dd4a09bd4fa1152ca1d913c50cd630 OP_EQUALVERIFY OP_CHECKSIG",
            "hex": "76a914d196d34035dd4a09bd4fa1152ca1d913c50cd63088ac",
            "reqSigs": 1,
            "type": "pubkeyhash",
            "addresses": [
              "LeLAApkU3wJU73zCxXtN9VNjqss4CfX4PE"
            ]
          }
        }, 
        {
          "value": 49.85795143,
          "n": 1,
          "scriptPubKey": {
            "asm": "OP_DUP OP_HASH160 0c491932d0a86dfa77cd0c5acfbef986b41cae09 OP_EQUALVERIFY OP_CHECKSIG",
            "hex": "76a9140c491932d0a86dfa77cd0c5acfbef986b41cae0988ac",
            "reqSigs": 1,
            "type": "pubkeyhash",
            "addresses": [
              "LLLuwUyE6d2dEjzeqbJuBE38uoSW3fpce5"
            ]
          }
        }
      ],
      "hex": "0100000001dd0a7527fa12a8630e286c8b5793e3b2fef54d06f8ecd9d18133056be3534e77000000006a473044022028ec3865ef3b56f66cf0f409d42b4de0aca1549fcda270477dff6b788882fc8302207f6a18187475c7bfa5df3ec53bd6c5fadb85a3dccbfb0924bd8dbb182d8c1c2e01210328f4b7a2b6f57450ad0776d3504747e3372adca4735f3ea7cd13ec3cfb31b73effffffff021e6a9512000000001976a914d196d34035dd4a09bd4fa1152ca1d913c50cd63088ac47322d29010000001976a9140c491932d0a86dfa77cd0c5acfbef986b41cae0988ac00000000"
    }, 
    {
      "txid": "cd8f07acfc29edb0feaa1a34ccf89acdf8d8f8bd5ab6c67aa35caa42f20855ee",
      "hash": "cd8f07acfc29edb0feaa1a34ccf89acdf8d8f8bd5ab6c67aa35caa42f20855ee",
      "version": 1,
      "size": 225,
      "vsize": 225,
      "locktime": 0,
      "vin": [
        {
          "txid": "c874f33b45ecf11b10bb8a2cc0678a676e05f844b935ebfd0fac1f74f85a399b",
          "vout": 0,
          "scriptSig": {
            "asm": "3044022067c3240c7a8236f5fad018dd1008c65f44b68cd8ca708152ca09a0609ef470cf022002f6b6ddda3022e20fd7edbdfb03cc685b8b0bebfae51da80089a7f7b913a64e[ALL] 033d8c2dee02e05ea836cb49f6e1da9d89c8f1d67e0f29972bf9a086c4037847b0",
            "hex": "473044022067c3240c7a8236f5fad018dd1008c65f44b68cd8ca708152ca09a0609ef470cf022002f6b6ddda3022e20fd7edbdfb03cc685b8b0bebfae51da80089a7f7b913a64e0121033d8c2dee02e05ea836cb49f6e1da9d89c8f1d67e0f29972bf9a086c4037847b0"
          },
          "sequence": 4294967295
        }
      ],
      "vout": [
        {
          "value": 0.16569716,
          "n": 0,
          "scriptPubKey": {
            "asm": "OP_DUP OP_HASH160 e6d094b2ac695ae1a1321d5daf0d22c07637e5ca OP_EQUALVERIFY OP_CHECKSIG",
            "hex": "76a914e6d094b2ac695ae1a1321d5daf0d22c07637e5ca88ac",
            "reqSigs": 1,
            "type": "pubkeyhash",
            "addresses": [
              "LgGPYnX7cXp9WyQahefNpEsbrBimWnZwbZ"
            ]
          }
        }, 
        {
          "value": 0.00056297,
          "n": 1,
          "scriptPubKey": {
            "asm": "OP_DUP OP_HASH160 0a11f422c9e99ee8500c75fc5385e9fe70c22086 OP_EQUALVERIFY OP_CHECKSIG",
            "hex": "76a9140a11f422c9e99ee8500c75fc5385e9fe70c2208688ac",
            "reqSigs": 1,
            "type": "pubkeyhash",
            "addresses": [
              "LL9CXaCUeZ84vGxLeQTEVakihUZeNM9aHN"
            ]
          }
        }
      ],
      "hex": "01000000019b395af8741fac0ffdeb35b944f8056e678a67c02c8abb101bf1ec453bf374c8000000006a473044022067c3240c7a8236f5fad018dd1008c65f44b68cd8ca708152ca09a0609ef470cf022002f6b6ddda3022e20fd7edbdfb03cc685b8b0bebfae51da80089a7f7b913a64e0121033d8c2dee02e05ea836cb49f6e1da9d89c8f1d67e0f29972bf9a086c4037847b0ffffffff0274d5fc00000000001976a914e6d094b2ac695ae1a1321d5daf0d22c07637e5ca88ace9db0000000000001976a9140a11f422c9e99ee8500c75fc5385e9fe70c2208688ac00000000"
    }, 
    {
      "txid": "c1514e8717cf3af80359fddc90c038160205ead0b9440a08d2dd36dfe1be66af",
      "hash": "c1514e8717cf3af80359fddc90c038160205ead0b9440a08d2dd36dfe1be66af",
      "version": 1,
      "size": 519,
      "vsize": 519,
      "locktime": 1360429,
      "vin": [
        {
          "txid": "232f25d67c57130c2900fbd9655d1ef3723e3b270e3b5a882e467de430727754",
          "vout": 0,
          "scriptSig": {
            "asm": "304402201f68d4ccf9b93a2d987be78960d07d75c6483d286e10b9924e1396bb17ca649402204b097f811ec8bb38f805e8ec0eda62e33ccf4e57db99d2d749a40795290c0d80[ALL] 028a569933728aee3170cca65520fac26e8688fc37d5bf209eaa86e71fd6e4896a",
            "hex": "47304402201f68d4ccf9b93a2d987be78960d07d75c6483d286e10b9924e1396bb17ca649402204b097f811ec8bb38f805e8ec0eda62e33ccf4e57db99d2d749a40795290c0d800121028a569933728aee3170cca65520fac26e8688fc37d5bf209eaa86e71fd6e4896a"
          },
          "sequence": 4294967294
        }, 
        {
          "txid": "6bd0c2ba052af44532915f73dabdc34d641227665d0a9541c5b258d765ae46b2",
          "vout": 0,
          "scriptSig": {
            "asm": "304402202c92d6dce9373fa263b27de97e4dcfe2acfa43e0cd61f4ab58834ac9c8417e1b02207270718ae18bd3ac84303ec9408f65eff0dffd2c35735042a1cf426990d087a6[ALL] 0231d6c8be3718c521895a8b335ebe1f4445a3a6c350ad3fdf4644b4ed91e787d8",
            "hex": "47304402202c92d6dce9373fa263b27de97e4dcfe2acfa43e0cd61f4ab58834ac9c8417e1b02207270718ae18bd3ac84303ec9408f65eff0dffd2c35735042a1cf426990d087a601210231d6c8be3718c521895a8b335ebe1f4445a3a6c350ad3fdf4644b4ed91e787d8"
          },
          "sequence": 4294967294
        }, 
        {
          "txid": "76885efdd09db68a54cee7d39cfa19a7c2e4d46402d37605508c324b000d9ac1",
          "vout": 8,
          "scriptSig": {
            "asm": "3044022051541c462cafd76813b824f3f663abb4103db0d963ddb647b2fc7b40d60bb0d80220536a23baf3f5de942002977ac6199a14f932df89aeb20cf7ca01a2f0960e61c3[ALL] 02313547789d121b6069688fe82f79bfb641ef0711c05bd8e83b4b161c1438aee3",
            "hex": "473044022051541c462cafd76813b824f3f663abb4103db0d963ddb647b2fc7b40d60bb0d80220536a23baf3f5de942002977ac6199a14f932df89aeb20cf7ca01a2f0960e61c3012102313547789d121b6069688fe82f79bfb641ef0711c05bd8e83b4b161c1438aee3"
          },
          "sequence": 4294967294
        }
      ],
      "vout": [
        {
          "value": 0.17600000,
          "n": 0,
          "scriptPubKey": {
            "asm": "OP_DUP OP_HASH160 c9cce9ec62d495a70ca11caa42d075d48323edab OP_EQUALVERIFY OP_CHECKSIG",
            "hex": "76a914c9cce9ec62d495a70ca11caa42d075d48323edab88ac",
            "reqSigs": 1,
            "type": "pubkeyhash",
            "addresses": [
              "LdcyZRpjQe5uway6VyF3NMP8baTagVbhER"
            ]
          }
        }, 
        {
          "value": 0.01502850,
          "n": 1,
          "scriptPubKey": {
            "asm": "OP_DUP OP_HASH160 2d83f2eae34ef1df7fb478f8e0cbd47fd095df93 OP_EQUALVERIFY OP_CHECKSIG",
            "hex": "76a9142d83f2eae34ef1df7fb478f8e0cbd47fd095df9388ac",
            "reqSigs": 1,
            "type": "pubkeyhash",
            "addresses": [
              "LPNcjpFQU5WWHAnvGVLWSo74bS6BdVXKE2"
            ]
          }
        }
      ],
      "hex": "010000000354777230e47d462e885a3b0e273b3e72f31e5d65d9fb00290c13577cd6252f23000000006a47304402201f68d4ccf9b93a2d987be78960d07d75c6483d286e10b9924e1396bb17ca649402204b097f811ec8bb38f805e8ec0eda62e33ccf4e57db99d2d749a40795290c0d800121028a569933728aee3170cca65520fac26e8688fc37d5bf209eaa86e71fd6e4896afeffffffb246ae65d758b2c541950a5d662712644dc3bdda735f913245f42a05bac2d06b000000006a47304402202c92d6dce9373fa263b27de97e4dcfe2acfa43e0cd61f4ab58834ac9c8417e1b02207270718ae18bd3ac84303ec9408f65eff0dffd2c35735042a1cf426990d087a601210231d6c8be3718c521895a8b335ebe1f4445a3a6c350ad3fdf4644b4ed91e787d8feffffffc19a0d004b328c500576d30264d4e4c2a719fa9cd3e7ce548ab69dd0fd5e8876080000006a473044022051541c462cafd76813b824f3f663abb4103db0d963ddb647b2fc7b40d60bb0d80220536a23baf3f5de942002977ac6199a14f932df89aeb20cf7ca01a2f0960e61c3012102313547789d121b6069688fe82f79bfb641ef0711c05bd8e83b4b161c1438aee3feffffff02008e0c01000000001976a914c9cce9ec62d495a70ca11caa42d075d48323edab88ac82ee1600000000001976a9142d83f2eae34ef1df7fb478f8e0cbd47fd095df9388ac2dc21400"
    }, 
    {
      "txid": "776aa0c2bc4700d8b59a2db6679b813b29e80d84869f3641af17695c2f304eb5",
      "hash": "776aa0c2bc4700d8b59a2db6679b813b29e80d84869f3641af17695c2f304eb5",
      "version": 2,
      "size": 963,
      "vsize": 963,
      "locktime": 1360429,
      "vin": [
        {
          "txid": "122e39b000208454f9e9c1de6eabffbbee2c21ffd7181ce335d693df43aa2f31",
          "vout": 1,
          "scriptSig": {
            "asm": "3044022026b75d5c55624b29c03aa7afb053ed5eb3cc8d5683ba29221ada16efd3d0f73002205003b14c62c6a6591a08d0f7f858c959f5db8f3af28353177bf913f48b791d58[ALL] 021edb49b0e893b72255d98df076f45fa4d0f73ee41b2382f5c8a4cdba1a7435b2",
            "hex": "473044022026b75d5c55624b29c03aa7afb053ed5eb3cc8d5683ba29221ada16efd3d0f73002205003b14c62c6a6591a08d0f7f858c959f5db8f3af28353177bf913f48b791d580121021edb49b0e893b72255d98df076f45fa4d0f73ee41b2382f5c8a4cdba1a7435b2"
          },
          "sequence": 4294967294
        }, 
        {
          "txid": "2dafe199c5b179e202ef6242ab319ff88c1df8585cd6ac3b0ac7df07008e3beb",
          "vout": 68,
          "scriptSig": {
            "asm": "3045022100a1b0e6952fcfdbcfa374c2a4b452db05d7d5e2e40461e41b4d13c446fe7677070220213e00e5a93e199dae279f6a44056468b8a920a1e37985ebd3c27056db252c79[ALL] 024b3af1b6dbea39eb39f02958d31c41b648ceb47a7f7a25a37fcf2b6e0a1eaf70",
            "hex": "483045022100a1b0e6952fcfdbcfa374c2a4b452db05d7d5e2e40461e41b4d13c446fe7677070220213e00e5a93e199dae279f6a44056468b8a920a1e37985ebd3c27056db252c790121024b3af1b6dbea39eb39f02958d31c41b648ceb47a7f7a25a37fcf2b6e0a1eaf70"
          },
          "sequence": 4294967294
        }, 
        {
          "txid": "2c7f97a53103a34d935c75348abdd353e6a9b26d2782b0444ffbb82414dca913",
          "vout": 0,
          "scriptSig": {
            "asm": "304402205bd60d2f40f437e446dfd801d80669922b817b8d95bee7d74a1e93ee4af2f357022039f8a06674c475b89a311a9e9c782bf56fa1ce55040634693e431a7e5320e9b6[ALL] 03fa506479fd347fae104a353a8823af5763c93c43d7fa26c7b185cf6678d86243",
            "hex": "47304402205bd60d2f40f437e446dfd801d80669922b817b8d95bee7d74a1e93ee4af2f357022039f8a06674c475b89a311a9e9c782bf56fa1ce55040634693e431a7e5320e9b6012103fa506479fd347fae104a353a8823af5763c93c43d7fa26c7b185cf6678d86243"
          },
          "sequence": 4294967294
        }, 
        {
          "txid": "da2bac52ab457415ec2630154ce94018e6173bc3f8b7c9c322f924c31f98dd30",
          "vout": 0,
          "scriptSig": {
            "asm": "30450221009da9f915d855a2694247d3a4903e558927cc7c1aa9d5f0ef9b5a426bce62e77302205bbd8a86c57264acc6da78656a45b767a242ef56119fd4fe0df5c04e0915f796[ALL] 02b535017172c002bc5a8ea6f60031094154ff3e5e2f87d9d43405cf494e7f5436",
            "hex": "4830450221009da9f915d855a2694247d3a4903e558927cc7c1aa9d5f0ef9b5a426bce62e77302205bbd8a86c57264acc6da78656a45b767a242ef56119fd4fe0df5c04e0915f796012102b535017172c002bc5a8ea6f60031094154ff3e5e2f87d9d43405cf494e7f5436"
          },
          "sequence": 4294967294
        }, 
        {
          "txid": "fe2b03b79ef614b34ef20d0440fb519c4c8f607ef9906ea11d296824de26280f",
          "vout": 1,
          "scriptSig": {
            "asm": "3044022071d2a18536966033f332cade16f6a19a83285d8a325c39a6e73e62b4888229b702202cdc4964b0328a67ae9fa224b5ff32e4ff34c5782f58cfb5fa3e640848590d05[ALL] 03238d64568eca44964833ba9fa159f80448978e927df2207377051c6a6c3fd4ef",
            "hex": "473044022071d2a18536966033f332cade16f6a19a83285d8a325c39a6e73e62b4888229b702202cdc4964b0328a67ae9fa224b5ff32e4ff34c5782f58cfb5fa3e640848590d05012103238d64568eca44964833ba9fa159f80448978e927df2207377051c6a6c3fd4ef"
          },
          "sequence": 4294967294
        }, 
        {
          "txid": "3495384877e7711df7ae1eec305d77088621d4f961defdd1d7f38222e92558df",
          "vout": 11,
          "scriptSig": {
            "asm": "3045022100a96a3eadf8a18063fc40fe78c34e9073c18e872a9d05eef2e55042ed9baef67d022010d9ec1b6f4f7baf8c97ffef51178705aa81279935b54ea0e2206c808fdf66a2[ALL] 025b6ddd22d29b2607c9717e3c9717997feb3858c55e599ed232c7f8b76a745411",
            "hex": "483045022100a96a3eadf8a18063fc40fe78c34e9073c18e872a9d05eef2e55042ed9baef67d022010d9ec1b6f4f7baf8c97ffef51178705aa81279935b54ea0e2206c808fdf66a20121025b6ddd22d29b2607c9717e3c9717997feb3858c55e599ed232c7f8b76a745411"
          },
          "sequence": 4294967294
        }
      ],
      "vout": [
        {
          "value": 49.66056323,
          "n": 0,
          "scriptPubKey": {
            "asm": "OP_DUP OP_HASH160 02c268a12ca1d77ec976566ab9c41cbc1242cc2f OP_EQUALVERIFY OP_CHECKSIG",
            "hex": "76a91402c268a12ca1d77ec976566ab9c41cbc1242cc2f88ac",
            "reqSigs": 1,
            "type": "pubkeyhash",
            "addresses": [
              "LKUYWMHgrQpg2gqXVdSWQ26B1zbvxaQWnN"
            ]
          }
        }, 
        {
          "value": 0.01013986,
          "n": 1,
          "scriptPubKey": {
            "asm": "OP_DUP OP_HASH160 5061b19eb600975d18d358bac7632348b26fb43e OP_EQUALVERIFY OP_CHECKSIG",
            "hex": "76a9145061b19eb600975d18d358bac7632348b26fb43e88ac",
            "reqSigs": 1,
            "type": "pubkeyhash",
            "addresses": [
              "LSYyMSoJUGjdYzoq65nPvX42fqrx2vNbGc"
            ]
          }
        }
      ],
      "hex": "0200000006312faa43df93d635e31c18d7ff212ceebbffab6edec1e9f954842000b0392e12010000006a473044022026b75d5c55624b29c03aa7afb053ed5eb3cc8d5683ba29221ada16efd3d0f73002205003b14c62c6a6591a08d0f7f858c959f5db8f3af28353177bf913f48b791d580121021edb49b0e893b72255d98df076f45fa4d0f73ee41b2382f5c8a4cdba1a7435b2feffffffeb3b8e0007dfc70a3bacd65c58f81d8cf89f31ab4262ef02e279b1c599e1af2d440000006b483045022100a1b0e6952fcfdbcfa374c2a4b452db05d7d5e2e40461e41b4d13c446fe7677070220213e00e5a93e199dae279f6a44056468b8a920a1e37985ebd3c27056db252c790121024b3af1b6dbea39eb39f02958d31c41b648ceb47a7f7a25a37fcf2b6e0a1eaf70feffffff13a9dc1424b8fb4f44b082276db2a9e653d3bd8a34755c934da30331a5977f2c000000006a47304402205bd60d2f40f437e446dfd801d80669922b817b8d95bee7d74a1e93ee4af2f357022039f8a06674c475b89a311a9e9c782bf56fa1ce55040634693e431a7e5320e9b6012103fa506479fd347fae104a353a8823af5763c93c43d7fa26c7b185cf6678d86243feffffff30dd981fc324f922c3c9b7f8c33b17e61840e94c153026ec157445ab52ac2bda000000006b4830450221009da9f915d855a2694247d3a4903e558927cc7c1aa9d5f0ef9b5a426bce62e77302205bbd8a86c57264acc6da78656a45b767a242ef56119fd4fe0df5c04e0915f796012102b535017172c002bc5a8ea6f60031094154ff3e5e2f87d9d43405cf494e7f5436feffffff0f2826de2468291da16e90f97e608f4c9c51fb40040df24eb314f69eb7032bfe010000006a473044022071d2a18536966033f332cade16f6a19a83285d8a325c39a6e73e62b4888229b702202cdc4964b0328a67ae9fa224b5ff32e4ff34c5782f58cfb5fa3e640848590d05012103238d64568eca44964833ba9fa159f80448978e927df2207377051c6a6c3fd4effeffffffdf5825e92282f3d7d1fdde61f9d4218608775d30ec1eaef71d71e777483895340b0000006b483045022100a96a3eadf8a18063fc40fe78c34e9073c18e872a9d05eef2e55042ed9baef67d022010d9ec1b6f4f7baf8c97ffef51178705aa81279935b54ea0e2206c808fdf66a20121025b6ddd22d29b2607c9717e3c9717997feb3858c55e599ed232c7f8b76a745411feffffff0283010028010000001976a91402c268a12ca1d77ec976566ab9c41cbc1242cc2f88ace2780f00000000001976a9145061b19eb600975d18d358bac7632348b26fb43e88ac2dc21400"
    }, 
    {
      "txid": "1df1f7581aef18624d2172a577e7dc19fad672834899abb249c8c920a0eedd05",
      "hash": "1df1f7581aef18624d2172a577e7dc19fad672834899abb249c8c920a0eedd05",
      "version": 1,
      "size": 226,
      "vsize": 226,
      "locktime": 0,
      "vin": [
        {
          "txid": "7f77b0d00e078426449d410fb4c783a59df4029e35841181261b965e579fe90f",
          "vout": 1,
          "scriptSig": {
            "asm": "3045022100cdfa432efe16edbbfe47c47ebedc83a0a3739c444439a41f841b40cf12f3900f0220422e215da0584f8ff44536a01f4fa89bb061205659be3c5efbefb748886fafc0[ALL] 026fee1a45f3a27d05ca16dcaac1b03825ee7feee9a2f4ab8696a7f72c02fbaf2b",
            "hex": "483045022100cdfa432efe16edbbfe47c47ebedc83a0a3739c444439a41f841b40cf12f3900f0220422e215da0584f8ff44536a01f4fa89bb061205659be3c5efbefb748886fafc00121026fee1a45f3a27d05ca16dcaac1b03825ee7feee9a2f4ab8696a7f72c02fbaf2b"
          },
          "sequence": 4294967295
        }
      ],
      "vout": [
        {
          "value": 5.45135132,
          "n": 0,
          "scriptPubKey": {
            "asm": "OP_DUP OP_HASH160 e144b283d46e280ce74e8d2fa69b34904e6ebcb7 OP_EQUALVERIFY OP_CHECKSIG",
            "hex": "76a914e144b283d46e280ce74e8d2fa69b34904e6ebcb788ac",
            "reqSigs": 1,
            "type": "pubkeyhash",
            "addresses": [
              "Lfm4bYmncAam1YsiTBDEqgC5Mq7jEd7Pt7"
            ]
          }
        }, 
        {
          "value": 49.37539233,
          "n": 1,
          "scriptPubKey": {
            "asm": "OP_DUP OP_HASH160 95a495a9602b9bed59d3b11437ed1c5cab96752c OP_EQUALVERIFY OP_CHECKSIG",
            "hex": "76a91495a495a9602b9bed59d3b11437ed1c5cab96752c88ac",
            "reqSigs": 1,
            "type": "pubkeyhash",
            "addresses": [
              "LYsC7LQHSFERhAEjjUoRDFnCCnBfmB7yug"
            ]
          }
        }
      ],
      "hex": "01000000010fe99f575e961b26811184359e02f49da583c7b40f419d442684070ed0b0777f010000006b483045022100cdfa432efe16edbbfe47c47ebedc83a0a3739c444439a41f841b40cf12f3900f0220422e215da0584f8ff44536a01f4fa89bb061205659be3c5efbefb748886fafc00121026fee1a45f3a27d05ca16dcaac1b03825ee7feee9a2f4ab8696a7f72c02fbaf2bffffffff021c1a7e20000000001976a914e144b283d46e280ce74e8d2fa69b34904e6ebcb788aca1de4c26010000001976a91495a495a9602b9bed59d3b11437ed1c5cab96752c88ac00000000"
    }, 
    {
      "txid": "97582fbfe29deba88c5e2d03ed56bfbb140e720d05147cf544b68a1c9ded950e",
      "hash": "97582fbfe29deba88c5e2d03ed56bfbb140e720d05147cf544b68a1c9ded950e",
      "version": 1,
      "size": 226,
      "vsize": 226,
      "locktime": 0,
      "vin": [
        {
          "txid": "728174fba694fb48ff1d9072e9543828cc689e4b43d0e3c92ccad3ee6e0402bf",
          "vout": 1,
          "scriptSig": {
            "asm": "3045022100a8320cbea129f1dc7267247ee196ba8aed683e5fb0dbf7e94b4c346e04bae7a1022077618f2d8ec0770ba55c734ead41d8684498d9c762e1d8b2d992ef60e9de6813[ALL] 02eeac4c9edb58f951ba5f67abe263a3c62680f3e479dc626af95acb2a8b5efb41",
            "hex": "483045022100a8320cbea129f1dc7267247ee196ba8aed683e5fb0dbf7e94b4c346e04bae7a1022077618f2d8ec0770ba55c734ead41d8684498d9c762e1d8b2d992ef60e9de6813012102eeac4c9edb58f951ba5f67abe263a3c62680f3e479dc626af95acb2a8b5efb41"
          },
          "sequence": 4294967295
        }
      ],
      "vout": [
        {
          "value": 0.99977400,
          "n": 0,
          "scriptPubKey": {
            "asm": "OP_DUP OP_HASH160 93267e42af68cd9175236a2a524835d153eef76a OP_EQUALVERIFY OP_CHECKSIG",
            "hex": "76a91493267e42af68cd9175236a2a524835d153eef76a88ac",
            "reqSigs": 1,
            "type": "pubkeyhash",
            "addresses": [
              "LYe1hy2mQkkf8FjqjUB9ybTdis6XJHAzKW"
            ]
          }
        }, 
        {
          "value": 55.03703530,
          "n": 1,
          "scriptPubKey": {
            "asm": "OP_DUP OP_HASH160 83d9b2580cb3fb24395cb918a2119211c37b1ef5 OP_EQUALVERIFY OP_CHECKSIG",
            "hex": "76a91483d9b2580cb3fb24395cb918a2119211c37b1ef588ac",
            "reqSigs": 1,
            "type": "pubkeyhash",
            "addresses": [
              "LXF7aAudGCFFwBxF4RCWdGpfCezrdWRbaD"
            ]
          }
        }
      ],
      "hex": "0100000001bf02046eeed3ca2cc9e3d0434b9e68cc283854e972901dff48fb94a6fb748172010000006b483045022100a8320cbea129f1dc7267247ee196ba8aed683e5fb0dbf7e94b4c346e04bae7a1022077618f2d8ec0770ba55c734ead41d8684498d9c762e1d8b2d992ef60e9de6813012102eeac4c9edb58f951ba5f67abe263a3c62680f3e479dc626af95acb2a8b5efb41ffffffff02b888f505000000001976a91493267e42af68cd9175236a2a524835d153eef76a88acead90b48010000001976a91483d9b2580cb3fb24395cb918a2119211c37b1ef588ac00000000"
    }, 
    {
      "txid": "ebb20b6316911e1bd488da3df9b2da4a0aa5889ce361c3551b247863ce161f66",
      "hash": "ebb20b6316911e1bd488da3df9b2da4a0aa5889ce361c3551b247863ce161f66",
      "version": 1,
      "size": 226,
      "vsize": 226,
      "locktime": 1360429,
      "vin": [
        {
          "txid": "f2a4085ab0c4bff33805e022944872915ea444bd7c7c00a8c1114d76a50c9be4",
          "vout": 0,
          "scriptSig": {
            "asm": "3045022100b04b36682455513c435d79be9d8bcfa894b79f3a32cf858c94fc93d7d9c40b720220275eac6831c183ce80431656f32e78dc33dbecf13aac940b43b0e10b00bf3870[ALL] 02c6996d681f2b2194394a49f2836241f1ad2eba91d45ab95a1d8f0ec033500010",
            "hex": "483045022100b04b36682455513c435d79be9d8bcfa894b79f3a32cf858c94fc93d7d9c40b720220275eac6831c183ce80431656f32e78dc33dbecf13aac940b43b0e10b00bf3870012102c6996d681f2b2194394a49f2836241f1ad2eba91d45ab95a1d8f0ec033500010"
          },
          "sequence": 4294967294
        }
      ],
      "vout": [
        {
          "value": 0.04437597,
          "n": 0,
          "scriptPubKey": {
            "asm": "OP_DUP OP_HASH160 49629725e416142f88cb6d2353ef184b6c5c0e7b OP_EQUALVERIFY OP_CHECKSIG",
            "hex": "76a91449629725e416142f88cb6d2353ef184b6c5c0e7b88ac",
            "reqSigs": 1,
            "type": "pubkeyhash",
            "addresses": [
              "LRuyhQ7JHUZkXhxfcRSf6bNx1q3ncFRP4M"
            ]
          }
        }, 
        {
          "value": 0.10063803,
          "n": 1,
          "scriptPubKey": {
            "asm": "OP_DUP OP_HASH160 0c8454bad0d5969d04edc948d7fe9c15d6f1d57b OP_EQUALVERIFY OP_CHECKSIG",
            "hex": "76a9140c8454bad0d5969d04edc948d7fe9c15d6f1d57b88ac",
            "reqSigs": 1,
            "type": "pubkeyhash",
            "addresses": [
              "LLN8u2q5zY47gho3qtJTJVrtrr2uAVND1Q"
            ]
          }
        }
      ],
      "hex": "0100000001e49b0ca5764d11c1a8007c7cbd44a45e9172489422e00538f3bfc4b05a08a4f2000000006b483045022100b04b36682455513c435d79be9d8bcfa894b79f3a32cf858c94fc93d7d9c40b720220275eac6831c183ce80431656f32e78dc33dbecf13aac940b43b0e10b00bf3870012102c6996d681f2b2194394a49f2836241f1ad2eba91d45ab95a1d8f0ec033500010feffffff025db64300000000001976a91449629725e416142f88cb6d2353ef184b6c5c0e7b88acbb8f9900000000001976a9140c8454bad0d5969d04edc948d7fe9c15d6f1d57b88ac2dc21400"
    }, 
    {
      "txid": "0014ad909835c89ae042b5fd196aea0bebcfe3c99ed527e8c6a0fac7c06b7893",
      "hash": "0014ad909835c89ae042b5fd196aea0bebcfe3c99ed527e8c6a0fac7c06b7893",
      "version": 1,
      "size": 226,
      "vsize": 226,
      "locktime": 0,
      "vin": [
        {
          "txid": "7555c559e5cb34452fd2253f4a3a6f2ffa0abc52792dbe8543396d9b1a580279",
          "vout": 0,
          "scriptSig": {
            "asm": "3045022100999a5e344120d00bee305d59fd30a736f63c26454983b26c0c6dfe355ef26f4802207c25f01f23395fd2a88632d3bcbabd85227bb7ac9ab5ea6c9dbdf5c5cbbb52f0[ALL] 03f89d68ea3bdba3dc0c7c691270ccb5a7a532b2390e38b26236924361bb4679b4",
            "hex": "483045022100999a5e344120d00bee305d59fd30a736f63c26454983b26c0c6dfe355ef26f4802207c25f01f23395fd2a88632d3bcbabd85227bb7ac9ab5ea6c9dbdf5c5cbbb52f0012103f89d68ea3bdba3dc0c7c691270ccb5a7a532b2390e38b26236924361bb4679b4"
          },
          "sequence": 4294967295
        }
      ],
      "vout": [
        {
          "value": 0.09772630,
          "n": 0,
          "scriptPubKey": {
            "asm": "OP_DUP OP_HASH160 55eef4d3a5191cb7903fe1185a5133c0d5913207 OP_EQUALVERIFY OP_CHECKSIG",
            "hex": "76a91455eef4d3a5191cb7903fe1185a5133c0d591320788ac",
            "reqSigs": 1,
            "type": "pubkeyhash",
            "addresses": [
              "LT4KxVnkYz3CuyvZGzvaddJuvy8kGwA1SD"
            ]
          }
        }, 
        {
          "value": 0.00054973,
          "n": 1,
          "scriptPubKey": {
            "asm": "OP_DUP OP_HASH160 0fd8052abba0f20e8b5d9f6c744b4560ca252478 OP_EQUALVERIFY OP_CHECKSIG",
            "hex": "76a9140fd8052abba0f20e8b5d9f6c744b4560ca25247888ac",
            "reqSigs": 1,
            "type": "pubkeyhash",
            "addresses": [
              "LLfjBSEkASVh4newnDxgmyVR6j7MztMbfs"
            ]
          }
        }
      ],
      "hex": "01000000017902581a9b6d394385be2d7952bc0afa2f6f3a4a3f25d22f4534cbe559c55575000000006b483045022100999a5e344120d00bee305d59fd30a736f63c26454983b26c0c6dfe355ef26f4802207c25f01f23395fd2a88632d3bcbabd85227bb7ac9ab5ea6c9dbdf5c5cbbb52f0012103f89d68ea3bdba3dc0c7c691270ccb5a7a532b2390e38b26236924361bb4679b4ffffffff02561e9500000000001976a91455eef4d3a5191cb7903fe1185a5133c0d591320788acbdd60000000000001976a9140fd8052abba0f20e8b5d9f6c744b4560ca25247888ac00000000"
    }, 
    {
      "txid": "b4db0f6af6fdd16e23bc7e3eead2f67d3a4634b1d1e6be7356a0ce53f82219e1",
      "hash": "b4db0f6af6fdd16e23bc7e3eead2f67d3a4634b1d1e6be7356a0ce53f82219e1",
      "version": 1,
      "size": 226,
      "vsize": 226,
      "locktime": 0,
      "vin": [
        {
          "txid": "aa9764e32bb0842e8a79f3cc2845aa4eaa6c387f396dfdb8b9809c0e1d3f2c03",
          "vout": 0,
          "scriptSig": {
            "asm": "3045022100d028547796c7c4286f0c2d94986e37dd2a9b78694535a74a6cde78481ae364e602200e38488c3a4fb6d5fd3187249b8f9937272748b5fd7bd1b84f3ceed4b7e43a45[ALL] 0257b30c82a045a2c6fdc3078d9638840dfbf436349050a6ceeffa6ef8fc614156",
            "hex": "483045022100d028547796c7c4286f0c2d94986e37dd2a9b78694535a74a6cde78481ae364e602200e38488c3a4fb6d5fd3187249b8f9937272748b5fd7bd1b84f3ceed4b7e43a4501210257b30c82a045a2c6fdc3078d9638840dfbf436349050a6ceeffa6ef8fc614156"
          },
          "sequence": 4294967295
        }
      ],
      "vout": [
        {
          "value": 0.34270351,
          "n": 0,
          "scriptPubKey": {
            "asm": "OP_DUP OP_HASH160 dccd7f80d36d47da9cee434b5785ed799073ac63 OP_EQUALVERIFY OP_CHECKSIG",
            "hex": "76a914dccd7f80d36d47da9cee434b5785ed799073ac6388ac",
            "reqSigs": 1,
            "type": "pubkeyhash",
            "addresses": [
              "LfMT6ft9PCPx6yGY8p5XMAw2Bo8qNmy5WK"
            ]
          }
        }, 
        {
          "value": 0.40021020,
          "n": 1,
          "scriptPubKey": {
            "asm": "OP_DUP OP_HASH160 0910efdf679ffd850d53267552d22579c78340d8 OP_EQUALVERIFY OP_CHECKSIG",
            "hex": "76a9140910efdf679ffd850d53267552d22579c78340d888ac",
            "reqSigs": 1,
            "type": "pubkeyhash",
            "addresses": [
              "LL3tdk3ukUjZiK6JVyRAn34Wm8F3VsTEbG"
            ]
          }
        }
      ],
      "hex": "0100000001032c3f1d0e9c80b9b8fd6d397f386caa4eaa4528ccf3798a2e84b02be36497aa000000006b483045022100d028547796c7c4286f0c2d94986e37dd2a9b78694535a74a6cde78481ae364e602200e38488c3a4fb6d5fd3187249b8f9937272748b5fd7bd1b84f3ceed4b7e43a4501210257b30c82a045a2c6fdc3078d9638840dfbf436349050a6ceeffa6ef8fc614156ffffffff028fec0a02000000001976a914dccd7f80d36d47da9cee434b5785ed799073ac6388ac1cac6202000000001976a9140910efdf679ffd850d53267552d22579c78340d888ac00000000"
    }, 
    {
      "txid": "ed69ef8505f8c96dc7f3323875019e42d2b6836b5049f01f8b73e80adfea4ae5",
      "hash": "ed69ef8505f8c96dc7f3323875019e42d2b6836b5049f01f8b73e80adfea4ae5",
      "version": 1,
      "size": 224,
      "vsize": 224,
      "locktime": 0,
      "vin": [
        {
          "txid": "f85596d7b121a3832b7b01bf7f9ec33b6e98ca33b26985c99153e7c8390907cf",
          "vout": 0,
          "scriptSig": {
            "asm": "3045022100cac36ad6e483cb57dd8300f7ed3a7f44ff0005876e2013f3cac1faac36d7f32a02205e71b2d13f1c76dac5494f1b6d64f9db278e2a007d20a0b426a3377d0964168b[ALL] 028d06643da19e42af90e0778a161cf5ce9b8c45192e5572baa88b1b58b4375fe6",
            "hex": "483045022100cac36ad6e483cb57dd8300f7ed3a7f44ff0005876e2013f3cac1faac36d7f32a02205e71b2d13f1c76dac5494f1b6d64f9db278e2a007d20a0b426a3377d0964168b0121028d06643da19e42af90e0778a161cf5ce9b8c45192e5572baa88b1b58b4375fe6"
          },
          "sequence": 4294967295
        }
      ],
      "vout": [
        {
          "value": 10.93826552,
          "n": 0,
          "scriptPubKey": {
            "asm": "OP_DUP OP_HASH160 e9751e2627aa3f9955c33374664d274d2fc76367 OP_EQUALVERIFY OP_CHECKSIG",
            "hex": "76a914e9751e2627aa3f9955c33374664d274d2fc7636788ac",
            "reqSigs": 1,
            "type": "pubkeyhash",
            "addresses": [
              "LgWN1PrMjQg9tTiBUXe2VEY68jf36zs2MC"
            ]
          }
        }, 
        {
          "value": 43.99800000,
          "n": 1,
          "scriptPubKey": {
            "asm": "OP_HASH160 5931b873d9965da18a278330fc71f1e2bc6bbb02 OP_EQUAL",
            "hex": "a9145931b873d9965da18a278330fc71f1e2bc6bbb0287",
            "reqSigs": 1,
            "type": "scripthash",
            "addresses": [
              "MG2mw9Np1CJi85KZ7qerX12ztf42ej1ith"
            ]
          }
        }
      ],
      "hex": "0100000001cf070939c8e75391c98569b233ca986e3bc39e7fbf017b2b83a321b1d79655f8000000006b483045022100cac36ad6e483cb57dd8300f7ed3a7f44ff0005876e2013f3cac1faac36d7f32a02205e71b2d13f1c76dac5494f1b6d64f9db278e2a007d20a0b426a3377d0964168b0121028d06643da19e42af90e0778a161cf5ce9b8c45192e5572baa88b1b58b4375fe6ffffffff02f8773241000000001976a914e9751e2627aa3f9955c33374664d274d2fc7636788acc09e3f060100000017a9145931b873d9965da18a278330fc71f1e2bc6bbb028700000000"
    }
  ],
  "time": 1517430053,
  "mediantime": 1517429596,
  "nonce": 1713188497,
  "bits": "1a042eae",
  "difficulty": 4011378.762614286,
  "chainwork": "000000000000000000000000000000000000000000000034eeaf8980b742d960",
  "previousblockhash": "1337d63dd9c98048b315f5492a43d3b8f9b85fcd0ee6ab7a87aa0bc1695da57b",
  "nextblockhash": "81b0c68ca8770c4d524b3389cc5f9e440c7af9abe8231d5fee6bab4d7180395e"
}
