{
  "hash": "0521de2e4a57d7e670967f3d40d9659121e46c86ba516c5338ccd65c21068b01",
  "confirmations": 325,
  "strippedsize": 515,
  "size": 551,
  "weight": 2096,
  "height": 1360669,
  "version": 536870912,
  "versionHex": "20000000",
  "merkleroot": "7eee8991ea1e6b8c1ad0d35970d2453b0cd334dd12747cc302cbabc34213c065",
  "tx": [
    {
      "txid": "f35abf849cfdc38427f90f673358f2c75631bcfc1249d07ddbfe73abee36e6a6",
      "hash": "dfebca146c7e430c96d000ce0e23963dcca15093231d5f478c71952aa99f8e39",
      "version": 1,
      "size": 244,
      "vsize": 217,
      "locktime": 0,
      "vin": [
        {
          "coinbase": "031dc3140493a9725a08027554e402000000fabe6d6dd50582ade1dce56c1f38e0fb121a53cd50200087aba802debbb24655cca7d67c40000000000000000d2f6e6f64655374726174756d2f",
          "sequence": 0
        }
      ],
      "vout": [
        {
          "value": 25.00022600,
          "n": 0,
          "scriptPubKey": {
            "asm": "OP_DUP OP_HASH160 0c617fdb2ea42aed30a509595ee21ba3f6688db0 OP_EQUALVERIFY OP_CHECKSIG",
            "hex": "76a9140c617fdb2ea42aed30a509595ee21ba3f6688db088ac",
            "reqSigs": 1,
            "type": "pubkeyhash",
            "addresses": [
              "LLMRAtr3qBje2ySEa3CnZ55LA4TQMWnRY3"
            ]
          }
        }, 
        {
          "value": 0.00000000,
          "n": 1,
          "scriptPubKey": {
            "asm": "OP_RETURN aa21a9ed30ba7301e1db18fbfbe13b8dd5423481a72fe8d3d1776071602242768550a169",
            "hex": "6a24aa21a9ed30ba7301e1db18fbfbe13b8dd5423481a72fe8d3d1776071602242768550a169",
            "type": "nulldata"
          }
        }
      ],
      "hex": "010000000001010000000000000000000000000000000000000000000000000000000000000000ffffffff4c031dc3140493a9725a08027554e402000000fabe6d6dd50582ade1dce56c1f38e0fb121a53cd50200087aba802debbb24655cca7d67c40000000000000000d2f6e6f64655374726174756d2f000000000248510395000000001976a9140c617fdb2ea42aed30a509595ee21ba3f6688db088ac0000000000000000266a24aa21a9ed30ba7301e1db18fbfbe13b8dd5423481a72fe8d3d1776071602242768550a1690120000000000000000000000000000000000000000000000000000000000000000000000000"
    }, 
    {
      "txid": "f5456d127610af4b0e6111e42349178ae43f498a1ae775a635d19c6bc86fb77d",
      "hash": "f5456d127610af4b0e6111e42349178ae43f498a1ae775a635d19c6bc86fb77d",
      "version": 1,
      "size": 226,
      "vsize": 226,
      "locktime": 1360667,
      "vin": [
        {
          "txid": "31196de5c983e2dfa142ef313afec6918baefbd04ed7552f23ef6f3727cbcbee",
          "vout": 0,
          "scriptSig": {
            "asm": "3045022100adb5a54316325494cbd5e6499912c78819e03c0380717e10ddbe08914cffaa05022028a70eca0e84215e7d0941ad4efa9128091181ec22e17572bfed515cd4d31b19[ALL] 022d09d33f8ff8ba686594343725b9a0fa7bfac3241d50391205ea04211370aa77",
            "hex": "483045022100adb5a54316325494cbd5e6499912c78819e03c0380717e10ddbe08914cffaa05022028a70eca0e84215e7d0941ad4efa9128091181ec22e17572bfed515cd4d31b190121022d09d33f8ff8ba686594343725b9a0fa7bfac3241d50391205ea04211370aa77"
          },
          "sequence": 4294967294
        }
      ],
      "vout": [
        {
          "value": 10.00000000,
          "n": 0,
          "scriptPubKey": {
            "asm": "OP_DUP OP_HASH160 c5cd247f963f18553b860c849ad184a9f00699f7 OP_EQUALVERIFY OP_CHECKSIG",
            "hex": "76a914c5cd247f963f18553b860c849ad184a9f00699f788ac",
            "reqSigs": 1,
            "type": "pubkeyhash",
            "addresses": [
              "LdFq8ZPzwatj8gGXoqTCrLyKakcxuQBLtW"
            ]
          }
        }, 
        {
          "value": 13.29796700,
          "n": 1,
          "scriptPubKey": {
            "asm": "OP_DUP OP_HASH160 17c31818ca799f9dda059ed4449e05515eb7adac OP_EQUALVERIFY OP_CHECKSIG",
            "hex": "76a91417c31818ca799f9dda059ed4449e05515eb7adac88ac",
            "reqSigs": 1,
            "type": "pubkeyhash",
            "addresses": [
              "LMPbX17dWfRqzWtx3QsCGcJ7Fsr5JhbLpT"
            ]
          }
        }
      ],
      "hex": "0100000001eecbcb27376fef232f55d74ed0fbae8b91c6fe3a31ef42a1dfe283c9e56d1931000000006b483045022100adb5a54316325494cbd5e6499912c78819e03c0380717e10ddbe08914cffaa05022028a70eca0e84215e7d0941ad4efa9128091181ec22e17572bfed515cd4d31b190121022d09d33f8ff8ba686594343725b9a0fa7bfac3241d50391205ea04211370aa77feffffff0200ca9a3b000000001976a914c5cd247f963f18553b860c849ad184a9f00699f788ac5c16434f000000001976a91417c31818ca799f9dda059ed4449e05515eb7adac88ac1bc31400"
    }
  ],
  "time": 1517463689,
  "mediantime": 1517463059,
  "nonce": 1376854234,
  "bits": "1a042eae",
  "difficulty": 4011378.762614286,
  "chainwork": "0000000000000000000000000000000000000000000000352797731a216c703c",
  "previousblockhash": "76e6787f5964045f1677152f1f8c0c2b88f26974b35cf6d5a698ce264cfab7a1",
  "nextblockhash": "ff546e3d22bbb6c9d7476581740dc38075e816febfda06f220d349d4350200eb"
}
