{
  "hash": "05677183ca0dde2d256e0e5aeec00ae429331dc462dfdf2edf38fb47388bc63f",
  "confirmations": 1946,
  "strippedsize": 4074,
  "size": 4331,
  "weight": 16553,
  "height": 1359048,
  "version": 536870912,
  "versionHex": "20000000",
  "merkleroot": "a449a3fdab2efd7bfee0c6ac7817b06f59f99becbad72652d7c1f1f398ca7aef",
  "tx": [
    {
      "txid": "9df66bfaf82605e3503d63cd9347cedeb82390a0a0651190330638f97acfe3c1",
      "hash": "82393f92b28418d5cf9b3d7cbb0b3a490221bd24249b2e708dab1949a5d12bdd",
      "version": 1,
      "size": 259,
      "vsize": 232,
      "locktime": 0,
      "vin": [
        {
          "coinbase": "03c8bc14182f5669614254432f4d696e6564206279206261723030312f2cfabe6d6d969bd2b3111180a1ad64b71823ea76b3a35a68585db79e9b725f30e545d18c43010000000000000010d773d500b0761430241e5fd803000000",
          "sequence": 4294967295
        }
      ],
      "vout": [
        {
          "value": 25.00630556,
          "n": 0,
          "scriptPubKey": {
            "asm": "OP_DUP OP_HASH160 e16c28146ed4869c190b3f0bdc18d80d45f92134 OP_EQUALVERIFY OP_CHECKSIG",
            "hex": "76a914e16c28146ed4869c190b3f0bdc18d80d45f9213488ac",
            "reqSigs": 1,
            "type": "pubkeyhash",
            "addresses": [
              "LfmssDyX6iZvbVqHv6t9P6JWXia2JG7mdb"
            ]
          }
        }, 
        {
          "value": 0.00000000,
          "n": 1,
          "scriptPubKey": {
            "asm": "OP_RETURN aa21a9ed6dc896d0f4240aa716b82058b8eb5e32b82a18071197de2749a9233f56d33d67",
            "hex": "6a24aa21a9ed6dc896d0f4240aa716b82058b8eb5e32b82a18071197de2749a9233f56d33d67",
            "type": "nulldata"
          }
        }
      ],
      "hex": "010000000001010000000000000000000000000000000000000000000000000000000000000000ffffffff5b03c8bc14182f5669614254432f4d696e6564206279206261723030312f2cfabe6d6d969bd2b3111180a1ad64b71823ea76b3a35a68585db79e9b725f30e545d18c43010000000000000010d773d500b0761430241e5fd803000000ffffffff021c980c95000000001976a914e16c28146ed4869c190b3f0bdc18d80d45f9213488ac0000000000000000266a24aa21a9ed6dc896d0f4240aa716b82058b8eb5e32b82a18071197de2749a9233f56d33d670120000000000000000000000000000000000000000000000000000000000000000000000000"
    }, 
    {
      "txid": "7202da1ce489d7d311fe94f7d464db2a0166b30c5887f51e0f7c35dd64c00013",
      "hash": "7202da1ce489d7d311fe94f7d464db2a0166b30c5887f51e0f7c35dd64c00013",
      "version": 1,
      "size": 224,
      "vsize": 224,
      "locktime": 0,
      "vin": [
        {
          "txid": "b6fe92a0a00c30fb9c0f850fe38e1469d9759a5b9eade00d14f3d4dc5666a9aa",
          "vout": 1,
          "scriptSig": {
            "asm": "3043022030122623c809fb96bac79cd80df493bf692c8b28b62438298d165c7534927be6021f729868359140770f920ecfe9120e389e1e205fc77edd1ac6f9238b16119915[ALL] 03fafbfe6bd3e3b9913066be6dac5692119ee9ee34eca4cea4d63b89667417b753",
            "hex": "463043022030122623c809fb96bac79cd80df493bf692c8b28b62438298d165c7534927be6021f729868359140770f920ecfe9120e389e1e205fc77edd1ac6f9238b16119915012103fafbfe6bd3e3b9913066be6dac5692119ee9ee34eca4cea4d63b89667417b753"
          },
          "sequence": 4294967295
        }
      ],
      "vout": [
        {
          "value": 2.00000000,
          "n": 0,
          "scriptPubKey": {
            "asm": "OP_DUP OP_HASH160 958d79600ba5917fbd1c9d7f44ca8cae98725ee7 OP_EQUALVERIFY OP_CHECKSIG",
            "hex": "76a914958d79600ba5917fbd1c9d7f44ca8cae98725ee788ac",
            "reqSigs": 1,
            "type": "pubkeyhash",
            "addresses": [
              "LYriRbBCYTvzR82gyPeio4wqRyoNcj5v2J"
            ]
          }
        }, 
        {
          "value": 5.66577549,
          "n": 1,
          "scriptPubKey": {
            "asm": "OP_DUP OP_HASH160 b4ee61a5c01d2fd31f3512623e5ce49b95673f71 OP_EQUALVERIFY OP_CHECKSIG",
            "hex": "76a914b4ee61a5c01d2fd31f3512623e5ce49b95673f7188ac",
            "reqSigs": 1,
            "type": "pubkeyhash",
            "addresses": [
              "LbidTmuKUMr38SUESAjE2DqbjbEwGWdESq"
            ]
          }
        }
      ],
      "hex": "0100000001aaa96656dcd4f3140de0ad9e5b9a75d969148ee30f850f9cfb300ca0a092feb60100000069463043022030122623c809fb96bac79cd80df493bf692c8b28b62438298d165c7534927be6021f729868359140770f920ecfe9120e389e1e205fc77edd1ac6f9238b16119915012103fafbfe6bd3e3b9913066be6dac5692119ee9ee34eca4cea4d63b89667417b753ffffffff0200c2eb0b000000001976a914958d79600ba5917fbd1c9d7f44ca8cae98725ee788ac8d49c521000000001976a914b4ee61a5c01d2fd31f3512623e5ce49b95673f7188ac00000000"
    }, 
    {
      "txid": "a4d23cab240b1456bd40170df1ecd0436655c82f43aa3a47c894bec2b4a4f6b4",
      "hash": "a4d23cab240b1456bd40170df1ecd0436655c82f43aa3a47c894bec2b4a4f6b4",
      "version": 1,
      "size": 225,
      "vsize": 225,
      "locktime": 0,
      "vin": [
        {
          "txid": "ac9e110897358b7a30c957dd8c598dc58f5e0db4f45aee2720836c7ad7169c2d",
          "vout": 1,
          "scriptSig": {
            "asm": "304402204e3185d23ab207151edccf78b87c052db9e1b346812e98594fb9fe9cd629d108022025281e17d7bec1f5fcbb9d0fe40113e0db83f749b86feed07693a8b8226ab300[ALL] 03baf184122bfcd785e6bf802f25a92c838dec75351cef9d6a13189c914ca91ad6",
            "hex": "47304402204e3185d23ab207151edccf78b87c052db9e1b346812e98594fb9fe9cd629d108022025281e17d7bec1f5fcbb9d0fe40113e0db83f749b86feed07693a8b8226ab300012103baf184122bfcd785e6bf802f25a92c838dec75351cef9d6a13189c914ca91ad6"
          },
          "sequence": 4294967295
        }
      ],
      "vout": [
        {
          "value": 0.91161550,
          "n": 0,
          "scriptPubKey": {
            "asm": "OP_DUP OP_HASH160 1bf3ba150b50eb59aaf92f441f13f685244e7269 OP_EQUALVERIFY OP_CHECKSIG",
            "hex": "76a9141bf3ba150b50eb59aaf92f441f13f685244e726988ac",
            "reqSigs": 1,
            "type": "pubkeyhash",
            "addresses": [
              "LMmkUqH6hZtmbypRC4hzPfo8vsn6up77ZC"
            ]
          }
        }, 
        {
          "value": 0.82962672,
          "n": 1,
          "scriptPubKey": {
            "asm": "OP_DUP OP_HASH160 61be33344eccea3792b9461cf6f570b661b23be7 OP_EQUALVERIFY OP_CHECKSIG",
            "hex": "76a91461be33344eccea3792b9461cf6f570b661b23be788ac",
            "reqSigs": 1,
            "type": "pubkeyhash",
            "addresses": [
              "LU8mf9cu2NBJqnoESLKzsC1M8FXTbRGMeK"
            ]
          }
        }
      ],
      "hex": "01000000012d9c16d77a6c832027ee5af4b40d5e8fc58d598cdd57c9307a8b359708119eac010000006a47304402204e3185d23ab207151edccf78b87c052db9e1b346812e98594fb9fe9cd629d108022025281e17d7bec1f5fcbb9d0fe40113e0db83f749b86feed07693a8b8226ab300012103baf184122bfcd785e6bf802f25a92c838dec75351cef9d6a13189c914ca91ad6ffffffff02ce036f05000000001976a9141bf3ba150b50eb59aaf92f441f13f685244e726988acf0e8f104000000001976a91461be33344eccea3792b9461cf6f570b661b23be788ac00000000"
    }, 
    {
      "txid": "16c3f3a5e5d414739aa0bad258c24c1970f5827e44a5f309a199d86cbf7e7c25",
      "hash": "e99b5731329fa5bd2c7bed5e3fd063a5dfa5447848846e2ce5ce675eb48f46f9",
      "version": 1,
      "size": 371,
      "vsize": 206,
      "locktime": 0,
      "vin": [
        {
          "txid": "6ff785bd22c83363b867792c82f3ff5daaccaaa0f6d8e62e3c7c171f053e95d9",
          "vout": 1,
          "scriptSig": {
            "asm": "0020e5f0fc77e59bd9ee4d3947fd1e3750ddfa4423904fb3e24b8822454702449875",
            "hex": "220020e5f0fc77e59bd9ee4d3947fd1e3750ddfa4423904fb3e24b8822454702449875"
          },
          "txinwitness": [
            "", 
            "304502210081a00185688ad526b6214f0c0e42a45c7994528a00dbecbd2dbee3e1345185430220202b297c0a85c033f3411d44de3160738e8c161ad579222e918ff8756121f7cf01", 
            "30440220567d7f38dbed25d7cae6a57334f80ff6811d6e3dcf6e82edffa55939946ba93102200f4d7aea86561d81fae16b0701cf1ca9ae92a9bae00cf9095e95c3607013445f01", 
            "522102221248fbd5f593e35bd11e8c970e4e5ef6f278f1c014355b6c339f5fbf325e8621035601f3a2305646caace0c463b02eba89c2b789e281cef04109061d879d5bb51352ae"
          ],
          "sequence": 4294967295
        }
      ],
      "vout": [
        {
          "value": 0.60000000,
          "n": 0,
          "scriptPubKey": {
            "asm": "OP_HASH160 d12aa1caafc0db0d9056a57f8ca2154354a28eae OP_EQUAL",
            "hex": "a914d12aa1caafc0db0d9056a57f8ca2154354a28eae87",
            "reqSigs": 1,
            "type": "scripthash",
            "addresses": [
              "MSy8XeRHLjYKp6m7rA7Z6mdQ4XYGsy3dwM"
            ]
          }
        }, 
        {
          "value": 6.82477178,
          "n": 1,
          "scriptPubKey": {
            "asm": "OP_HASH160 b5946e0bfd1da74539f69248e8ca8cfa68ac3af6 OP_EQUAL",
            "hex": "a914b5946e0bfd1da74539f69248e8ca8cfa68ac3af687",
            "reqSigs": 1,
            "type": "scripthash",
            "addresses": [
              "MQTGMEraVjFDcozVdk8vLSQaJbqCeMaCu8"
            ]
          }
        }
      ],
      "hex": "01000000000101d9953e051f177c3c2ee6d8f6a0aaccaa5dfff3822c7967b86333c822bd85f76f0100000023220020e5f0fc77e59bd9ee4d3947fd1e3750ddfa4423904fb3e24b8822454702449875ffffffff02008793030000000017a914d12aa1caafc0db0d9056a57f8ca2154354a28eae877ac6ad280000000017a914b5946e0bfd1da74539f69248e8ca8cfa68ac3af687040048304502210081a00185688ad526b6214f0c0e42a45c7994528a00dbecbd2dbee3e1345185430220202b297c0a85c033f3411d44de3160738e8c161ad579222e918ff8756121f7cf014730440220567d7f38dbed25d7cae6a57334f80ff6811d6e3dcf6e82edffa55939946ba93102200f4d7aea86561d81fae16b0701cf1ca9ae92a9bae00cf9095e95c3607013445f0147522102221248fbd5f593e35bd11e8c970e4e5ef6f278f1c014355b6c339f5fbf325e8621035601f3a2305646caace0c463b02eba89c2b789e281cef04109061d879d5bb51352ae00000000"
    }, 
    {
      "txid": "4f02d59a3978ab07f35f1b9fd75e19e77105c5463ccbebbff5a56adb8e6935d9",
      "hash": "4f02d59a3978ab07f35f1b9fd75e19e77105c5463ccbebbff5a56adb8e6935d9",
      "version": 2,
      "size": 223,
      "vsize": 223,
      "locktime": 1359046,
      "vin": [
        {
          "txid": "c48f921471059bd69a8ef4fd9646ae361a8c1df76444b2c6c104ea25d8a97a48",
          "vout": 0,
          "scriptSig": {
            "asm": "304402207e8c8ae7a61566524d087a625bd82a47ee2d6d10fa5e4477d484b1139e682d4e02204e5175f0562cef079a2e5cab6028f2bcc37ae1b134e12a8b34361e6950dc5f03[ALL] 03b1b9baf1ecb2032ed649f4996c419a6bd2aa97e2fa9820612b59b06db05a110a",
            "hex": "47304402207e8c8ae7a61566524d087a625bd82a47ee2d6d10fa5e4477d484b1139e682d4e02204e5175f0562cef079a2e5cab6028f2bcc37ae1b134e12a8b34361e6950dc5f03012103b1b9baf1ecb2032ed649f4996c419a6bd2aa97e2fa9820612b59b06db05a110a"
          },
          "sequence": 4294967294
        }
      ],
      "vout": [
        {
          "value": 0.25700000,
          "n": 0,
          "scriptPubKey": {
            "asm": "OP_HASH160 3b711f83c53af3696d9607eda7c89c5086c0b7e1 OP_EQUAL",
            "hex": "a9143b711f83c53af3696d9607eda7c89c5086c0b7e187",
            "reqSigs": 1,
            "type": "scripthash",
            "addresses": [
              "MDKTcgMKYkVHVJbE3xfsoHodinXppnaWFP"
            ]
          }
        }, 
        {
          "value": 2648.59031400,
          "n": 1,
          "scriptPubKey": {
            "asm": "OP_DUP OP_HASH160 d3e9e75c470e468de822111362756af54668edb3 OP_EQUALVERIFY OP_CHECKSIG",
            "hex": "76a914d3e9e75c470e468de822111362756af54668edb388ac",
            "reqSigs": 1,
            "type": "pubkeyhash",
            "addresses": [
              "LeYT3c9bqE6er69nHvqTCMHpEmyvfpmNyy"
            ]
          }
        }
      ],
      "hex": "0200000001487aa9d825ea04c1c6b24464f71d8c1a36ae4696fdf48e9ad69b057114928fc4000000006a47304402207e8c8ae7a61566524d087a625bd82a47ee2d6d10fa5e4477d484b1139e682d4e02204e5175f0562cef079a2e5cab6028f2bcc37ae1b134e12a8b34361e6950dc5f03012103b1b9baf1ecb2032ed649f4996c419a6bd2aa97e2fa9820612b59b06db05a110afeffffff02a02688010000000017a9143b711f83c53af3696d9607eda7c89c5086c0b7e1876817d4aa3d0000001976a914d3e9e75c470e468de822111362756af54668edb388acc6bc1400"
    }, 
    {
      "txid": "5a00bbe96c49dec5e9b7265564fc52a686be7778877cbf12bf31d8646770cf63",
      "hash": "5a00bbe96c49dec5e9b7265564fc52a686be7778877cbf12bf31d8646770cf63",
      "version": 1,
      "size": 225,
      "vsize": 225,
      "locktime": 0,
      "vin": [
        {
          "txid": "09f82cb587e8b50f437126ae576ddaa3ade4a4e8d14c5bf03573cfa9f7d62316",
          "vout": 5,
          "scriptSig": {
            "asm": "3044022047cb81ece27c5f20c7cf695b1d20d923307891346f5df6e012d6af1f1525bd52022051210aaaf1e000cd48b607c722db2cce6fe126f50eedf78919471de87708b408[ALL] 03c601602a668890f51ed9d2569e45bab448db3164142df3117735b95d4cb6f58e",
            "hex": "473044022047cb81ece27c5f20c7cf695b1d20d923307891346f5df6e012d6af1f1525bd52022051210aaaf1e000cd48b607c722db2cce6fe126f50eedf78919471de87708b408012103c601602a668890f51ed9d2569e45bab448db3164142df3117735b95d4cb6f58e"
          },
          "sequence": 4294967295
        }
      ],
      "vout": [
        {
          "value": 96.85441209,
          "n": 0,
          "scriptPubKey": {
            "asm": "OP_DUP OP_HASH160 1efd225a5f71650c18abcc502580a07ebb17f471 OP_EQUALVERIFY OP_CHECKSIG",
            "hex": "76a9141efd225a5f71650c18abcc502580a07ebb17f47188ac",
            "reqSigs": 1,
            "type": "pubkeyhash",
            "addresses": [
              "LN3on3GSZ8raHziQfMQbTu6aE6XaWwfv29"
            ]
          }
        }, 
        {
          "value": 3.14536191,
          "n": 1,
          "scriptPubKey": {
            "asm": "OP_DUP OP_HASH160 9f76d0e5f3baefa6ca43859c03df1576486a15b1 OP_EQUALVERIFY OP_CHECKSIG",
            "hex": "76a9149f76d0e5f3baefa6ca43859c03df1576486a15b188ac",
            "reqSigs": 1,
            "type": "pubkeyhash",
            "addresses": [
              "LZm83CGTwogvLvJUqjmX6pqz6sBCoSsCY2"
            ]
          }
        }
      ],
      "hex": "01000000011623d6f7a9cf7335f05b4cd1e8a4e4ada3da6d57ae2671430fb5e887b52cf809050000006a473044022047cb81ece27c5f20c7cf695b1d20d923307891346f5df6e012d6af1f1525bd52022051210aaaf1e000cd48b607c722db2cce6fe126f50eedf78919471de87708b408012103c601602a668890f51ed9d2569e45bab448db3164142df3117735b95d4cb6f58effffffff02b91a4c41020000001976a9141efd225a5f71650c18abcc502580a07ebb17f47188acff70bf12000000001976a9149f76d0e5f3baefa6ca43859c03df1576486a15b188ac00000000"
    }, 
    {
      "txid": "6e2bb9bb3ed702fcc15852d2443e518c267f0fc2732d39c8bd171e667f7a6765",
      "hash": "6e2bb9bb3ed702fcc15852d2443e518c267f0fc2732d39c8bd171e667f7a6765",
      "version": 2,
      "size": 225,
      "vsize": 225,
      "locktime": 1359046,
      "vin": [
        {
          "txid": "2f0dc1f222707129e264cf7d1338c7ba2e300a57557cf5331bda5a3d594a2256",
          "vout": 1,
          "scriptSig": {
            "asm": "304402206c7008abb0f1a9c3aea70ffaa76a6983c6d4a9d0d2c9744624f8db208fd3b364022006ef2853933a70f133156b7e4056f2700f214534fb9a1589db2c92fcf9d7c24c[ALL] 03b783e614d33d33501604865d61b96ba2af5b9ea179b27a441369e582e4561cf3",
            "hex": "47304402206c7008abb0f1a9c3aea70ffaa76a6983c6d4a9d0d2c9744624f8db208fd3b364022006ef2853933a70f133156b7e4056f2700f214534fb9a1589db2c92fcf9d7c24c012103b783e614d33d33501604865d61b96ba2af5b9ea179b27a441369e582e4561cf3"
          },
          "sequence": 4294967294
        }
      ],
      "vout": [
        {
          "value": 0.10026302,
          "n": 0,
          "scriptPubKey": {
            "asm": "OP_DUP OP_HASH160 7bd0488f79bc9bac2526058013823501683b88d3 OP_EQUALVERIFY OP_CHECKSIG",
            "hex": "76a9147bd0488f79bc9bac2526058013823501683b88d388ac",
            "reqSigs": 1,
            "type": "pubkeyhash",
            "addresses": [
              "LWWctbUaf6WG4nRo2wZXLaqKbAj7WVZTz7"
            ]
          }
        }, 
        {
          "value": 0.08473357,
          "n": 1,
          "scriptPubKey": {
            "asm": "OP_DUP OP_HASH160 a84b2e6c032d10728979791ac9e1295b5c0cc288 OP_EQUALVERIFY OP_CHECKSIG",
            "hex": "76a914a84b2e6c032d10728979791ac9e1295b5c0cc28888ac",
            "reqSigs": 1,
            "type": "pubkeyhash",
            "addresses": [
              "LaZor8Zx7S9GeTmw7yt9HomF7CoAVTLzzf"
            ]
          }
        }
      ],
      "hex": "020000000156224a593d5ada1b33f57c55570a302ebac738137dcf64e229717022f2c10d2f010000006a47304402206c7008abb0f1a9c3aea70ffaa76a6983c6d4a9d0d2c9744624f8db208fd3b364022006ef2853933a70f133156b7e4056f2700f214534fb9a1589db2c92fcf9d7c24c012103b783e614d33d33501604865d61b96ba2af5b9ea179b27a441369e582e4561cf3feffffff023efd9800000000001976a9147bd0488f79bc9bac2526058013823501683b88d388ac0d4b8100000000001976a914a84b2e6c032d10728979791ac9e1295b5c0cc28888acc6bc1400"
    }, 
    {
      "txid": "075681b26c13abc0a71fa050d4aa00f57d5666a3321a07e9b4eababf1f4ad273",
      "hash": "075681b26c13abc0a71fa050d4aa00f57d5666a3321a07e9b4eababf1f4ad273",
      "version": 1,
      "size": 225,
      "vsize": 225,
      "locktime": 1358956,
      "vin": [
        {
          "txid": "7f678ada7bce7f4c86cff8314a73657f41a1a0dd1748e3961e783c579e8722e9",
          "vout": 0,
          "scriptSig": {
            "asm": "304402203b21d6e6eead2688f9ca670c3327198874f4db8d8ab24864944693bf93ed3f06022035b566fed1ef5aa20383fd2d154b248ca494b2afb07eb87577eaa98c1f787446[ALL] 03b53e57c8d13364163a1f00ebeb89eec29649f0d0e0c427bd9b209bdedb33dcfb",
            "hex": "47304402203b21d6e6eead2688f9ca670c3327198874f4db8d8ab24864944693bf93ed3f06022035b566fed1ef5aa20383fd2d154b248ca494b2afb07eb87577eaa98c1f787446012103b53e57c8d13364163a1f00ebeb89eec29649f0d0e0c427bd9b209bdedb33dcfb"
          },
          "sequence": 4294967294
        }
      ],
      "vout": [
        {
          "value": 0.04526972,
          "n": 0,
          "scriptPubKey": {
            "asm": "OP_DUP OP_HASH160 ba099166fb4a01c32e6a23282dd0fba15487ff51 OP_EQUALVERIFY OP_CHECKSIG",
            "hex": "76a914ba099166fb4a01c32e6a23282dd0fba15487ff5188ac",
            "reqSigs": 1,
            "type": "pubkeyhash",
            "addresses": [
              "LcBdQgsPvLEZpWS8ZDXvbPBwB2VDn2XBBh"
            ]
          }
        }, 
        {
          "value": 0.01002809,
          "n": 1,
          "scriptPubKey": {
            "asm": "OP_DUP OP_HASH160 5a23370b1d505f37a2bdd7d347e0872c7a145247 OP_EQUALVERIFY OP_CHECKSIG",
            "hex": "76a9145a23370b1d505f37a2bdd7d347e0872c7a14524788ac",
            "reqSigs": 1,
            "type": "pubkeyhash",
            "addresses": [
              "LTSZGG28Vaj3DJmkvPfaBZVUqcYYBQFHoH"
            ]
          }
        }
      ],
      "hex": "0100000001e922879e573c781e96e34817dda0a1417f65734a31f8cf864c7fce7bda8a677f000000006a47304402203b21d6e6eead2688f9ca670c3327198874f4db8d8ab24864944693bf93ed3f06022035b566fed1ef5aa20383fd2d154b248ca494b2afb07eb87577eaa98c1f787446012103b53e57c8d13364163a1f00ebeb89eec29649f0d0e0c427bd9b209bdedb33dcfbfeffffff027c134500000000001976a914ba099166fb4a01c32e6a23282dd0fba15487ff5188ac394d0f00000000001976a9145a23370b1d505f37a2bdd7d347e0872c7a14524788ac6cbc1400"
    }, 
    {
      "txid": "76d6404e86698744ba338b7faf0a5431cbe504aecf232c9712814a688838db7d",
      "hash": "76d6404e86698744ba338b7faf0a5431cbe504aecf232c9712814a688838db7d",
      "version": 1,
      "size": 225,
      "vsize": 225,
      "locktime": 0,
      "vin": [
        {
          "txid": "09f82cb587e8b50f437126ae576ddaa3ade4a4e8d14c5bf03573cfa9f7d62316",
          "vout": 14,
          "scriptSig": {
            "asm": "304402202a5639012285a3d8986805a221a92c237720a5d5c7a00936743164243ec8c04d02207285bdb9b195d3fd2bf167d3caff273761712c03eb1006bf11a595c19f0ec5e9[ALL] 02f785e71443a1092d45ce3c0f6722243a5f66e20cc6745335387dbd8524db9b0a",
            "hex": "47304402202a5639012285a3d8986805a221a92c237720a5d5c7a00936743164243ec8c04d02207285bdb9b195d3fd2bf167d3caff273761712c03eb1006bf11a595c19f0ec5e9012102f785e71443a1092d45ce3c0f6722243a5f66e20cc6745335387dbd8524db9b0a"
          },
          "sequence": 4294967295
        }
      ],
      "vout": [
        {
          "value": 0.82128194,
          "n": 0,
          "scriptPubKey": {
            "asm": "OP_DUP OP_HASH160 5c3f3118297aab91198a9d14bcced4a80fe3dd52 OP_EQUALVERIFY OP_CHECKSIG",
            "hex": "76a9145c3f3118297aab91198a9d14bcced4a80fe3dd5288ac",
            "reqSigs": 1,
            "type": "pubkeyhash",
            "addresses": [
              "LTdi8W82twXWqC2XigdoTq4ruUH2ZJXetP"
            ]
          }
        }, 
        {
          "value": 99.17849206,
          "n": 1,
          "scriptPubKey": {
            "asm": "OP_DUP OP_HASH160 0a2bf710c2ae6f8c5f4ef47898ae4d1da9e79245 OP_EQUALVERIFY OP_CHECKSIG",
            "hex": "76a9140a2bf710c2ae6f8c5f4ef47898ae4d1da9e7924588ac",
            "reqSigs": 1,
            "type": "pubkeyhash",
            "addresses": [
              "LL9jgszX1jV2rVb5A91RM4rZkLLmLDb6Mo"
            ]
          }
        }
      ],
      "hex": "01000000011623d6f7a9cf7335f05b4cd1e8a4e4ada3da6d57ae2671430fb5e887b52cf8090e0000006a47304402202a5639012285a3d8986805a221a92c237720a5d5c7a00936743164243ec8c04d02207285bdb9b195d3fd2bf167d3caff273761712c03eb1006bf11a595c19f0ec5e9012102f785e71443a1092d45ce3c0f6722243a5f66e20cc6745335387dbd8524db9b0affffffff02422de504000000001976a9145c3f3118297aab91198a9d14bcced4a80fe3dd5288ac765e264f020000001976a9140a2bf710c2ae6f8c5f4ef47898ae4d1da9e7924588ac00000000"
    }, 
    {
      "txid": "1f6726b75eac6923fef69f3b9d8dcced0f01a148aa424f21cc7ebad8c4a580a8",
      "hash": "1f6726b75eac6923fef69f3b9d8dcced0f01a148aa424f21cc7ebad8c4a580a8",
      "version": 2,
      "size": 225,
      "vsize": 225,
      "locktime": 1359046,
      "vin": [
        {
          "txid": "f4680a427583854dd8c510542d0c17fdfa4a26094db2b991f6e7aad1cad4e664",
          "vout": 1,
          "scriptSig": {
            "asm": "304402207ea38182237bc3634815a268ac3114df85ba25f531b0c5f9f32e4ca65d3c57eb02200cecfda641293f8a7eac49fc46f5381a50211df357d213403efcbf66aa0162e6[ALL] 02be8039dde0a320354c6703faf26a11ce793177eb5541d7bdc5afe273e58380a7",
            "hex": "47304402207ea38182237bc3634815a268ac3114df85ba25f531b0c5f9f32e4ca65d3c57eb02200cecfda641293f8a7eac49fc46f5381a50211df357d213403efcbf66aa0162e6012102be8039dde0a320354c6703faf26a11ce793177eb5541d7bdc5afe273e58380a7"
          },
          "sequence": 4294967294
        }
      ],
      "vout": [
        {
          "value": 0.11300000,
          "n": 0,
          "scriptPubKey": {
            "asm": "OP_DUP OP_HASH160 cbd48f14c7a3871e313027b6368719cbaf6644b4 OP_EQUALVERIFY OP_CHECKSIG",
            "hex": "76a914cbd48f14c7a3871e313027b6368719cbaf6644b488ac",
            "reqSigs": 1,
            "type": "pubkeyhash",
            "addresses": [
              "Ldoi51LYq6zGfagAkqMjwgaQDbXGtK4jBU"
            ]
          }
        }, 
        {
          "value": 252.26477600,
          "n": 1,
          "scriptPubKey": {
            "asm": "OP_DUP OP_HASH160 079dbf09a958057759478f96f64f0f67d68d45b1 OP_EQUALVERIFY OP_CHECKSIG",
            "hex": "76a914079dbf09a958057759478f96f64f0f67d68d45b188ac",
            "reqSigs": 1,
            "type": "pubkeyhash",
            "addresses": [
              "LKvDxxSy4p8NUoBEVHMtWb5WJPygvjbk3y"
            ]
          }
        }
      ],
      "hex": "020000000164e6d4cad1aae7f691b9b24d09264afafd170c2d5410c5d84d858375420a68f4010000006a47304402207ea38182237bc3634815a268ac3114df85ba25f531b0c5f9f32e4ca65d3c57eb02200cecfda641293f8a7eac49fc46f5381a50211df357d213403efcbf66aa0162e6012102be8039dde0a320354c6703faf26a11ce793177eb5541d7bdc5afe273e58380a7feffffff02a06cac00000000001976a914cbd48f14c7a3871e313027b6368719cbaf6644b488ac20809ddf050000001976a914079dbf09a958057759478f96f64f0f67d68d45b188acc6bc1400"
    }, 
    {
      "txid": "cc606e653aa862141299bbc015cab6e23aba80893cce388e504b346bc9c559ca",
      "hash": "cc606e653aa862141299bbc015cab6e23aba80893cce388e504b346bc9c559ca",
      "version": 2,
      "size": 373,
      "vsize": 373,
      "locktime": 1359045,
      "vin": [
        {
          "txid": "8d6330d8a4bd0b68721d4fe45646f8d6607a06048c5589b28ff68d662b01210c",
          "vout": 0,
          "scriptSig": {
            "asm": "3045022100c3dec65954f41e75d0da1ccbd18f6bac528eb06c7f66c043dab7dcfb5bf937b202203dca2e6be5757853339f3ac9f6db80d57b043d1c8cc380de000879278302e50b[ALL] 03d45d54e0a2470a12b370b80aed0260848c2679dd8a67406e0f2e1ca61b2198b7",
            "hex": "483045022100c3dec65954f41e75d0da1ccbd18f6bac528eb06c7f66c043dab7dcfb5bf937b202203dca2e6be5757853339f3ac9f6db80d57b043d1c8cc380de000879278302e50b012103d45d54e0a2470a12b370b80aed0260848c2679dd8a67406e0f2e1ca61b2198b7"
          },
          "sequence": 4294967294
        }, 
        {
          "txid": "781b3442f00546eeab07c3e1d3da503b86ea7d4d65c75d58465d57a9a559d09f",
          "vout": 0,
          "scriptSig": {
            "asm": "30440220297ecda32c28d1ca64fda680f8f1d5246ca794136866f12a065e7b2fda599ece0220333e2fe0888eb1899dee503a586c2ed76a47b12f538feb7d759b32fe04e434a7[ALL] 033b33e0d2c01de5e0d51198b7ed03eefc7d8fdb0c2eb85023be9aeb1864782480",
            "hex": "4730440220297ecda32c28d1ca64fda680f8f1d5246ca794136866f12a065e7b2fda599ece0220333e2fe0888eb1899dee503a586c2ed76a47b12f538feb7d759b32fe04e434a70121033b33e0d2c01de5e0d51198b7ed03eefc7d8fdb0c2eb85023be9aeb1864782480"
          },
          "sequence": 4294967294
        }
      ],
      "vout": [
        {
          "value": 1.28427000,
          "n": 0,
          "scriptPubKey": {
            "asm": "OP_DUP OP_HASH160 8e01f384e6736266b226fe6ea764de64d7b49913 OP_EQUALVERIFY OP_CHECKSIG",
            "hex": "76a9148e01f384e6736266b226fe6ea764de64d7b4991388ac",
            "reqSigs": 1,
            "type": "pubkeyhash",
            "addresses": [
              "LYApZ2aCTJTH7dznyPyaL1CQhaB7zpw9We"
            ]
          }
        }, 
        {
          "value": 0.00970990,
          "n": 1,
          "scriptPubKey": {
            "asm": "OP_DUP OP_HASH160 e0e80dea3a70b79eb0c6731853fce977e3ef6fe6 OP_EQUALVERIFY OP_CHECKSIG",
            "hex": "76a914e0e80dea3a70b79eb0c6731853fce977e3ef6fe688ac",
            "reqSigs": 1,
            "type": "pubkeyhash",
            "addresses": [
              "Lfj9cbtNgffn2taYUoRMYVZJWZVL9wgYXV"
            ]
          }
        }
      ],
      "hex": "02000000020c21012b668df68fb289558c04067a60d6f84656e44f1d72680bbda4d830638d000000006b483045022100c3dec65954f41e75d0da1ccbd18f6bac528eb06c7f66c043dab7dcfb5bf937b202203dca2e6be5757853339f3ac9f6db80d57b043d1c8cc380de000879278302e50b012103d45d54e0a2470a12b370b80aed0260848c2679dd8a67406e0f2e1ca61b2198b7feffffff9fd059a5a9575d46585dc7654d7dea863b50dad3e1c307abee4605f042341b78000000006a4730440220297ecda32c28d1ca64fda680f8f1d5246ca794136866f12a065e7b2fda599ece0220333e2fe0888eb1899dee503a586c2ed76a47b12f538feb7d759b32fe04e434a70121033b33e0d2c01de5e0d51198b7ed03eefc7d8fdb0c2eb85023be9aeb1864782480feffffff02f8a3a707000000001976a9148e01f384e6736266b226fe6ea764de64d7b4991388aceed00e00000000001976a914e0e80dea3a70b79eb0c6731853fce977e3ef6fe688acc5bc1400"
    }, 
    {
      "txid": "c9ca75359911838006ae22f4bfa4970c0aa27cc622878b82bb02da10c9bc463e",
      "hash": "c9ca75359911838006ae22f4bfa4970c0aa27cc622878b82bb02da10c9bc463e",
      "version": 2,
      "size": 772,
      "vsize": 772,
      "locktime": 1359046,
      "vin": [
        {
          "txid": "5929198af057285e2870fbe1b7a04e2575a7d2be582f0e190edbd23aed45232a",
          "vout": 1,
          "scriptSig": {
            "asm": "3045022100fa8d3d1baddcf6e277e98e2e2c8630ec22ad681b6ed93119431af8ca117a31df02207964e16e4f17dcfcb353bfb89fd936e69647095c05028287c91994b968193fab[ALL] 03cfcd7387c09150f23d223cbf5349c66bc2ef4bbd99babd5a5508c941611054e6",
            "hex": "483045022100fa8d3d1baddcf6e277e98e2e2c8630ec22ad681b6ed93119431af8ca117a31df02207964e16e4f17dcfcb353bfb89fd936e69647095c05028287c91994b968193fab012103cfcd7387c09150f23d223cbf5349c66bc2ef4bbd99babd5a5508c941611054e6"
          },
          "sequence": 4294967294
        }, 
        {
          "txid": "23c582cb389bb295ac95de59b4c8f59b93024de625d62c3a7629898551a3aedf",
          "vout": 1,
          "scriptSig": {
            "asm": "3045022100c229ef237118cbe5312aa6419c6fb07ea8ba243643a8faf8f674590910cc3f74022030f9a552638d02b0cbb8abc11627498e436c937aefd13ca8ce3b6d2c94e9dd49[ALL] 02e3d2d78b978d60c2079d6b5d2123ce316c5a6285de6a261bb5aa55493ffc9662",
            "hex": "483045022100c229ef237118cbe5312aa6419c6fb07ea8ba243643a8faf8f674590910cc3f74022030f9a552638d02b0cbb8abc11627498e436c937aefd13ca8ce3b6d2c94e9dd49012102e3d2d78b978d60c2079d6b5d2123ce316c5a6285de6a261bb5aa55493ffc9662"
          },
          "sequence": 4294967294
        }, 
        {
          "txid": "d9ea00e0a9328dbf530783ef528f93b1cb158ff65bcc953b4b678f773729e8bb",
          "vout": 1,
          "scriptSig": {
            "asm": "3045022100fa55102bca7e2137083e5602ab51295d8907ff65bfd01100ab86f412e16b0acc02207edd8bfa5576572cf077d27f49564031d0c0d084a618817a2409649b286fa8bb[ALL] 039ca3c83de7757d6028ea876d4c45c33d82fa90d9b9a77f672e26095856226f69",
            "hex": "483045022100fa55102bca7e2137083e5602ab51295d8907ff65bfd01100ab86f412e16b0acc02207edd8bfa5576572cf077d27f49564031d0c0d084a618817a2409649b286fa8bb0121039ca3c83de7757d6028ea876d4c45c33d82fa90d9b9a77f672e26095856226f69"
          },
          "sequence": 4294967294
        }, 
        {
          "txid": "a6553e092afd6924a068ce74e658e6888381fa4488d54f6e1511e0351112cc2b",
          "vout": 3,
          "scriptSig": {
            "asm": "3045022100b400a3c8b74fe7ad2f09016b74083d9d99be2c42977b42fdc707d219d35fdc9f022004068ef0566e166367539519a2287542d70240172dd86bce67b26241e0a29173[ALL] 02749b77c484c8df07ade0051baff6b011b80fecf7993a46e7fddeae91799b38b1",
            "hex": "483045022100b400a3c8b74fe7ad2f09016b74083d9d99be2c42977b42fdc707d219d35fdc9f022004068ef0566e166367539519a2287542d70240172dd86bce67b26241e0a29173012102749b77c484c8df07ade0051baff6b011b80fecf7993a46e7fddeae91799b38b1"
          },
          "sequence": 4294967294
        }
      ],
      "vout": [
        {
          "value": 2.31721900,
          "n": 0,
          "scriptPubKey": {
            "asm": "OP_DUP OP_HASH160 8a280c11c40ad01ee3ac0d8ee147c5290fdee0c9 OP_EQUALVERIFY OP_CHECKSIG",
            "hex": "76a9148a280c11c40ad01ee3ac0d8ee147c5290fdee0c988ac",
            "reqSigs": 1,
            "type": "pubkeyhash",
            "addresses": [
              "LXpTVD934wUHkbjDFikKBiUiafTGBoVG7u"
            ]
          }
        }, 
        {
          "value": 0.00922800,
          "n": 1,
          "scriptPubKey": {
            "asm": "OP_DUP OP_HASH160 6e4fb09b1e5b0a2540bfde6858b5a72c334d1dbb OP_EQUALVERIFY OP_CHECKSIG",
            "hex": "76a9146e4fb09b1e5b0a2540bfde6858b5a72c334d1dbb88ac",
            "reqSigs": 1,
            "type": "pubkeyhash",
            "addresses": [
              "LVHE4GEGhX5YfbA6zEXtgXTXc37F8Cq1XJ"
            ]
          }
        }, 
        {
          "value": 0.52551700,
          "n": 2,
          "scriptPubKey": {
            "asm": "OP_DUP OP_HASH160 101f11e8cfe749a725b28da786b4025be9161d3f OP_EQUALVERIFY OP_CHECKSIG",
            "hex": "76a914101f11e8cfe749a725b28da786b4025be9161d3f88ac",
            "reqSigs": 1,
            "type": "pubkeyhash",
            "addresses": [
              "LLhCJ4V36PtmfvEz9aUJg86qQphKT7rFmM"
            ]
          }
        }, 
        {
          "value": 1.41900000,
          "n": 3,
          "scriptPubKey": {
            "asm": "OP_DUP OP_HASH160 164d1162511a37ea6d3a8c7052977205935d1b0e OP_EQUALVERIFY OP_CHECKSIG",
            "hex": "76a914164d1162511a37ea6d3a8c7052977205935d1b0e88ac",
            "reqSigs": 1,
            "type": "pubkeyhash",
            "addresses": [
              "LMFsTCrshSfwCQ8Ckbommq4kDXRYmZW55g"
            ]
          }
        }, 
        {
          "value": 2.55103000,
          "n": 4,
          "scriptPubKey": {
            "asm": "OP_DUP OP_HASH160 49a9b9fc8467bdcbc27ce99763d4948df239c569 OP_EQUALVERIFY OP_CHECKSIG",
            "hex": "76a91449a9b9fc8467bdcbc27ce99763d4948df239c56988ac",
            "reqSigs": 1,
            "type": "pubkeyhash",
            "addresses": [
              "LRwSv2BiwUr6UVkbBtj63iy3bmXEjpSsHP"
            ]
          }
        }
      ],
      "hex": "02000000042a2345ed3ad2db0e190e2f58bed2a775254ea0b7e1fb70285e2857f08a192959010000006b483045022100fa8d3d1baddcf6e277e98e2e2c8630ec22ad681b6ed93119431af8ca117a31df02207964e16e4f17dcfcb353bfb89fd936e69647095c05028287c91994b968193fab012103cfcd7387c09150f23d223cbf5349c66bc2ef4bbd99babd5a5508c941611054e6feffffffdfaea351858929763a2cd625e64d02939bf5c8b459de95ac95b29b38cb82c523010000006b483045022100c229ef237118cbe5312aa6419c6fb07ea8ba243643a8faf8f674590910cc3f74022030f9a552638d02b0cbb8abc11627498e436c937aefd13ca8ce3b6d2c94e9dd49012102e3d2d78b978d60c2079d6b5d2123ce316c5a6285de6a261bb5aa55493ffc9662feffffffbbe82937778f674b3b95cc5bf68f15cbb1938f52ef830753bf8d32a9e000ead9010000006b483045022100fa55102bca7e2137083e5602ab51295d8907ff65bfd01100ab86f412e16b0acc02207edd8bfa5576572cf077d27f49564031d0c0d084a618817a2409649b286fa8bb0121039ca3c83de7757d6028ea876d4c45c33d82fa90d9b9a77f672e26095856226f69feffffff2bcc121135e011156e4fd58844fa818388e658e674ce68a02469fd2a093e55a6030000006b483045022100b400a3c8b74fe7ad2f09016b74083d9d99be2c42977b42fdc707d219d35fdc9f022004068ef0566e166367539519a2287542d70240172dd86bce67b26241e0a29173012102749b77c484c8df07ade0051baff6b011b80fecf7993a46e7fddeae91799b38b1feffffff05accbcf0d000000001976a9148a280c11c40ad01ee3ac0d8ee147c5290fdee0c988acb0140e00000000001976a9146e4fb09b1e5b0a2540bfde6858b5a72c334d1dbb88ac14e02103000000001976a914101f11e8cfe749a725b28da786b4025be9161d3f88ace0387508000000001976a914164d1162511a37ea6d3a8c7052977205935d1b0e88ac1890340f000000001976a91449a9b9fc8467bdcbc27ce99763d4948df239c56988acc6bc1400"
    }, 
    {
      "txid": "4df2dbc72fbad4d1d75a36581ed9b2bf6554195787a349973f883a53c85a1b4f",
      "hash": "4df2dbc72fbad4d1d75a36581ed9b2bf6554195787a349973f883a53c85a1b4f",
      "version": 1,
      "size": 226,
      "vsize": 226,
      "locktime": 0,
      "vin": [
        {
          "txid": "09f82cb587e8b50f437126ae576ddaa3ade4a4e8d14c5bf03573cfa9f7d62316",
          "vout": 13,
          "scriptSig": {
            "asm": "3045022100996768feae1cd6fdc841615dd04a28deb0e8cb228030318075ae91e40b1a444f02207146082af93f73639f332dc89bd0015c0c6ecde73af2fca122e60b5abd03b080[ALL] 03c734eff48c3453d45115b54ada18bfbcc531364a0f8ea823c7c389bc4cfddda7",
            "hex": "483045022100996768feae1cd6fdc841615dd04a28deb0e8cb228030318075ae91e40b1a444f02207146082af93f73639f332dc89bd0015c0c6ecde73af2fca122e60b5abd03b080012103c734eff48c3453d45115b54ada18bfbcc531364a0f8ea823c7c389bc4cfddda7"
          },
          "sequence": 4294967295
        }
      ],
      "vout": [
        {
          "value": 0.54750980,
          "n": 0,
          "scriptPubKey": {
            "asm": "OP_DUP OP_HASH160 01cb4a131a020aa822a67970a0eeb11ca06e705c OP_EQUALVERIFY OP_CHECKSIG",
            "hex": "76a91401cb4a131a020aa822a67970a0eeb11ca06e705c88ac",
            "reqSigs": 1,
            "type": "pubkeyhash",
            "addresses": [
              "LKPSUCNE5ek6Ug1cdSu3h1qw5e7q2arwaP"
            ]
          }
        }, 
        {
          "value": 99.45226420,
          "n": 1,
          "scriptPubKey": {
            "asm": "OP_DUP OP_HASH160 eba4537197285721d6d20b825f2910a130452bbe OP_EQUALVERIFY OP_CHECKSIG",
            "hex": "76a914eba4537197285721d6d20b825f2910a130452bbe88ac",
            "reqSigs": 1,
            "type": "pubkeyhash",
            "addresses": [
              "LghuurrskB9CoS29dhm1icvP9zCBSN5po9"
            ]
          }
        }
      ],
      "hex": "01000000011623d6f7a9cf7335f05b4cd1e8a4e4ada3da6d57ae2671430fb5e887b52cf8090d0000006b483045022100996768feae1cd6fdc841615dd04a28deb0e8cb228030318075ae91e40b1a444f02207146082af93f73639f332dc89bd0015c0c6ecde73af2fca122e60b5abd03b080012103c734eff48c3453d45115b54ada18bfbcc531364a0f8ea823c7c389bc4cfddda7ffffffff02046f4303000000001976a91401cb4a131a020aa822a67970a0eeb11ca06e705c88acb41cc850020000001976a914eba4537197285721d6d20b825f2910a130452bbe88ac00000000"
    }, 
    {
      "txid": "fa117b95534846b3c9f6821a5ee2e1cc70fb6d8d27856ccc73aa180e45434bcb",
      "hash": "fa117b95534846b3c9f6821a5ee2e1cc70fb6d8d27856ccc73aa180e45434bcb",
      "version": 1,
      "size": 226,
      "vsize": 226,
      "locktime": 0,
      "vin": [
        {
          "txid": "09f82cb587e8b50f437126ae576ddaa3ade4a4e8d14c5bf03573cfa9f7d62316",
          "vout": 6,
          "scriptSig": {
            "asm": "3045022100e6c63951c478fe1556b963ac64ec3f918a4b7ad5cdb7035eb8be1bdf4931ba81022067d2370cff8b57cdf55cf479266557bfb2511e6642dac8014c91e3e8f943e575[ALL] 02fcc42a1928a3773bbc85b2861c4a67a573df412a9db8bbebef57aede83e8413f",
            "hex": "483045022100e6c63951c478fe1556b963ac64ec3f918a4b7ad5cdb7035eb8be1bdf4931ba81022067d2370cff8b57cdf55cf479266557bfb2511e6642dac8014c91e3e8f943e575012102fcc42a1928a3773bbc85b2861c4a67a573df412a9db8bbebef57aede83e8413f"
          },
          "sequence": 4294967295
        }
      ],
      "vout": [
        {
          "value": 2.34676760,
          "n": 0,
          "scriptPubKey": {
            "asm": "OP_DUP OP_HASH160 beef902b4086a5245ce3dc0628b3cbf8147b3fcb OP_EQUALVERIFY OP_CHECKSIG",
            "hex": "76a914beef902b4086a5245ce3dc0628b3cbf8147b3fcb88ac",
            "reqSigs": 1,
            "type": "pubkeyhash",
            "addresses": [
              "LcdXdoQfwR6LGd4G5iGSjJeTZHRey2M5x9"
            ]
          }
        }, 
        {
          "value": 97.65300640,
          "n": 1,
          "scriptPubKey": {
            "asm": "OP_DUP OP_HASH160 5f183cce41191132b4b398d414ef898c6623d3d3 OP_EQUALVERIFY OP_CHECKSIG",
            "hex": "76a9145f183cce41191132b4b398d414ef898c6623d3d388ac",
            "reqSigs": 1,
            "type": "pubkeyhash",
            "addresses": [
              "LTtmVVLpngSCnCBN4Hs6WW1etEfJAL6py9"
            ]
          }
        }
      ],
      "hex": "01000000011623d6f7a9cf7335f05b4cd1e8a4e4ada3da6d57ae2671430fb5e887b52cf809060000006b483045022100e6c63951c478fe1556b963ac64ec3f918a4b7ad5cdb7035eb8be1bdf4931ba81022067d2370cff8b57cdf55cf479266557bfb2511e6642dac8014c91e3e8f943e575012102fcc42a1928a3773bbc85b2861c4a67a573df412a9db8bbebef57aede83e8413fffffffff0218e2fc0d000000001976a914beef902b4086a5245ce3dc0628b3cbf8147b3fcb88aca0a90e46020000001976a9145f183cce41191132b4b398d414ef898c6623d3d388ac00000000"
    }, 
    {
      "txid": "95e4c533af9f96c9d5bd9d0919f7889d759c38678c1fbcf74de6401726fd5454",
      "hash": "95e4c533af9f96c9d5bd9d0919f7889d759c38678c1fbcf74de6401726fd5454",
      "version": 1,
      "size": 226,
      "vsize": 226,
      "locktime": 0,
      "vin": [
        {
          "txid": "a624b844f895b7b7e4d1556c9c40d5217672148a378b8285b49916051fe1926d",
          "vout": 1,
          "scriptSig": {
            "asm": "3045022100f7145807389d9de1873484dda3a5a1920607f6ea844572d1d451b8960b201ed002206e8656a5f9509f111a97aa57ad820851a5ef6c093584d57508dc361c61ec040a[ALL] 02ad97e055191fe01460e96f9b5a236da037843156b683400240e1960a15690a7f",
            "hex": "483045022100f7145807389d9de1873484dda3a5a1920607f6ea844572d1d451b8960b201ed002206e8656a5f9509f111a97aa57ad820851a5ef6c093584d57508dc361c61ec040a012102ad97e055191fe01460e96f9b5a236da037843156b683400240e1960a15690a7f"
          },
          "sequence": 4294967295
        }
      ],
      "vout": [
        {
          "value": 0.04263427,
          "n": 0,
          "scriptPubKey": {
            "asm": "OP_DUP OP_HASH160 4e6fad8bc49431481929630ada471a579ecca5fd OP_EQUALVERIFY OP_CHECKSIG",
            "hex": "76a9144e6fad8bc49431481929630ada471a579ecca5fd88ac",
            "reqSigs": 1,
            "type": "pubkeyhash",
            "addresses": [
              "LSNgkhASsXb5ephuQFaNTioAkF4N4vRwdf"
            ]
          }
        }, 
        {
          "value": 0.03590000,
          "n": 1,
          "scriptPubKey": {
            "asm": "OP_DUP OP_HASH160 a16deab88d122ade4901cfb84974bb13aa879779 OP_EQUALVERIFY OP_CHECKSIG",
            "hex": "76a914a16deab88d122ade4901cfb84974bb13aa87977988ac",
            "reqSigs": 1,
            "type": "pubkeyhash",
            "addresses": [
              "LZwWjFpWaotKawKBQ961n4BSxTXetUtwTq"
            ]
          }
        }
      ],
      "hex": "01000000016d92e11f051699b485828b378a14727621d5409c6c55d1e4b7b795f844b824a6010000006b483045022100f7145807389d9de1873484dda3a5a1920607f6ea844572d1d451b8960b201ed002206e8656a5f9509f111a97aa57ad820851a5ef6c093584d57508dc361c61ec040a012102ad97e055191fe01460e96f9b5a236da037843156b683400240e1960a15690a7fffffffff02030e4100000000001976a9144e6fad8bc49431481929630ada471a579ecca5fd88ac70c73600000000001976a914a16deab88d122ade4901cfb84974bb13aa87977988ac00000000"
    }
  ],
  "time": 1517229715,
  "mediantime": 1517228483,
  "nonce": 1583535924,
  "bits": "1a042eae",
  "difficulty": 4011378.762614286,
  "chainwork": "000000000000000000000000000000000000000000000033a4027fd6fb891c12",
  "previousblockhash": "7e238f663363b04f09e28b03486bf236c7606be5e67325653005ec4028a596b5",
  "nextblockhash": "e072636a9cc0a2fb7a4deb23ae9a0d62bfab7be1ea7a07959f5446785d0dc1a2"
}
