{
  "hash": "057790ad8acbbdc02ec91e07e2f199714a95958538d7c733a0f93157f6f84bfb",
  "confirmations": 3422,
  "strippedsize": 253,
  "size": 253,
  "weight": 1012,
  "height": 1357573,
  "version": 536870912,
  "versionHex": "20000000",
  "merkleroot": "8c1505d7c1652ce2dcbaa264e9fd6b78794f0a42ded6bb3c606da8bccebaa2c6",
  "tx": [
    {
      "txid": "8c1505d7c1652ce2dcbaa264e9fd6b78794f0a42ded6bb3c606da8bccebaa2c6",
      "hash": "8c1505d7c1652ce2dcbaa264e9fd6b78794f0a42ded6bb3c606da8bccebaa2c6",
      "version": 1,
      "size": 172,
      "vsize": 172,
      "locktime": 0,
      "vin": [
        {
          "coinbase": "0305b7141a4d696e656420627920416e74506f6f6c20626a341e205a6be2bffabe6d6d07ad120447c7cbb2a2003cdc635da490f2f1cece5d892a1e54d759e169c1f1050400000000000000980d00000000000003000000",
          "sequence": 4294967295
        }
      ],
      "vout": [
        {
          "value": 25.00000000,
          "n": 0,
          "scriptPubKey": {
            "asm": "OP_DUP OP_HASH160 0ff3ccc5e8be88afe24b5d634e5852d474dbdff1 OP_EQUALVERIFY OP_CHECKSIG",
            "hex": "76a9140ff3ccc5e8be88afe24b5d634e5852d474dbdff188ac",
            "reqSigs": 1,
            "type": "pubkeyhash",
            "addresses": [
              "LLgJTbzZMsRTCUF1NtvvL9SR1a4pVieW89"
            ]
          }
        }
      ],
      "hex": "01000000010000000000000000000000000000000000000000000000000000000000000000ffffffff570305b7141a4d696e656420627920416e74506f6f6c20626a341e205a6be2bffabe6d6d07ad120447c7cbb2a2003cdc635da490f2f1cece5d892a1e54d759e169c1f1050400000000000000980d00000000000003000000ffffffff0100f90295000000001976a9140ff3ccc5e8be88afe24b5d634e5852d474dbdff188ac00000000"
    }
  ],
  "time": 1517019839,
  "mediantime": 1517019609,
  "nonce": 3499639116,
  "bits": "1a047f14",
  "difficulty": 3731199.183374282,
  "chainwork": "000000000000000000000000000000000000000000000032578b3d6fbf5c919c",
  "previousblockhash": "ad679e06e574769358bca1cf4a260173b63a78c5736d6d2ab378d6e4e04eaf7b",
  "nextblockhash": "8191c44f09aa02889782ee8ac947ca4ba04fac2f0bc1859da6853d6b1831c287"
}
