{
  "hash": "05b71f73b3e1889e2d4a729a1a9e2f5c3fa24a4dc2c59d7ab0b5850dfedde0c4",
  "confirmations": 1741,
  "strippedsize": 5220,
  "size": 5256,
  "weight": 20916,
  "height": 1359253,
  "version": 536870912,
  "versionHex": "20000000",
  "merkleroot": "42e2bbbc9e5ea17e8cfc119d659bbc288fe1a4a95f62c93cdd795a34864df1cf",
  "tx": [
    {
      "txid": "4017bbba5871349f007e17c814f2ede27f46388a536ac5498da67a945dd74d1b",
      "hash": "ff6f1edf8295100ab4fca4d87a7ad0d82adcec2ae0919231892380557dde5550",
      "version": 1,
      "size": 253,
      "vsize": 226,
      "locktime": 0,
      "vin": [
        {
          "coinbase": "0395bd1441d69be15b1f014e41d69be15b1e350c2f4c54432e544f502ffabe6d6da493ac6170021e3edfb4a02f73d54e900e0563ba0a256dc34327db06a541ba0101000000000000005b29bbbd3902000000000000",
          "sequence": 4294967295
        }
      ],
      "vout": [
        {
          "value": 25.00875390,
          "n": 0,
          "scriptPubKey": {
            "asm": "OP_DUP OP_HASH160 0c617fdb2ea42aed30a509595ee21ba3f6688db0 OP_EQUALVERIFY OP_CHECKSIG",
            "hex": "76a9140c617fdb2ea42aed30a509595ee21ba3f6688db088ac",
            "reqSigs": 1,
            "type": "pubkeyhash",
            "addresses": [
              "LLMRAtr3qBje2ySEa3CnZ55LA4TQMWnRY3"
            ]
          }
        }, 
        {
          "value": 0.00000000,
          "n": 1,
          "scriptPubKey": {
            "asm": "OP_RETURN aa21a9edf27ee766732e58ec7cfa5b322bc336a1a2349a2c01476a1caffda4e774c501ec",
            "hex": "6a24aa21a9edf27ee766732e58ec7cfa5b322bc336a1a2349a2c01476a1caffda4e774c501ec",
            "type": "nulldata"
          }
        }
      ],
      "hex": "010000000001010000000000000000000000000000000000000000000000000000000000000000ffffffff550395bd1441d69be15b1f014e41d69be15b1e350c2f4c54432e544f502ffabe6d6da493ac6170021e3edfb4a02f73d54e900e0563ba0a256dc34327db06a541ba0101000000000000005b29bbbd3902000000000000ffffffff027e541095000000001976a9140c617fdb2ea42aed30a509595ee21ba3f6688db088ac0000000000000000266a24aa21a9edf27ee766732e58ec7cfa5b322bc336a1a2349a2c01476a1caffda4e774c501ec0120000000000000000000000000000000000000000000000000000000000000000000000000"
    }, 
    {
      "txid": "45ea4707d320c996a1c82d697b648cf02975ba5f13145dcbcc2aedb780517808",
      "hash": "45ea4707d320c996a1c82d697b648cf02975ba5f13145dcbcc2aedb780517808",
      "version": 1,
      "size": 519,
      "vsize": 519,
      "locktime": 0,
      "vin": [
        {
          "txid": "ecf3c72c227327fc2464f389f0fce7ae2b659ba4642ab5304a44391153ac8e5e",
          "vout": 414,
          "scriptSig": {
            "asm": "304402201003bf871b8728151f6845840c309ef9f1a783d57f7bc246fc2657c3eb7a4a2e02206b5f7a9e266c34f96ea2c855c4e1c9fc98029abb37c1da29a26b652fd6c9a630[ALL] 03351999c12612e1c78411ab1070e0ca39faf729247db41e874a5c2e0c434a2534",
            "hex": "47304402201003bf871b8728151f6845840c309ef9f1a783d57f7bc246fc2657c3eb7a4a2e02206b5f7a9e266c34f96ea2c855c4e1c9fc98029abb37c1da29a26b652fd6c9a630012103351999c12612e1c78411ab1070e0ca39faf729247db41e874a5c2e0c434a2534"
          },
          "sequence": 4294967295
        }, 
        {
          "txid": "c1b0dd3353dae2f6a98e6ccfa9f068559d3d3c9594eb85d3e333690b55208337",
          "vout": 406,
          "scriptSig": {
            "asm": "304402207d9568d450d797647acbd884f9da78bcaa829a7de9e2e8ed65eb03723b8f8eb102204e5ce644dbcf42e4a39dcdd006f978aadbd2cb814e0f46bcc35d4fc2230ea64a[ALL] 03351999c12612e1c78411ab1070e0ca39faf729247db41e874a5c2e0c434a2534",
            "hex": "47304402207d9568d450d797647acbd884f9da78bcaa829a7de9e2e8ed65eb03723b8f8eb102204e5ce644dbcf42e4a39dcdd006f978aadbd2cb814e0f46bcc35d4fc2230ea64a012103351999c12612e1c78411ab1070e0ca39faf729247db41e874a5c2e0c434a2534"
          },
          "sequence": 4294967295
        }, 
        {
          "txid": "ba79b0e74338cbee53aa1dbc68a482f78d2c09290979bc05b52297654cc5c4e9",
          "vout": 424,
          "scriptSig": {
            "asm": "3044022029bd5659feaf459dea559da47014eecf97b2891bca3b4310312e09cd5944b66e02200cc6ae9acff44f12abd2c480b2e3dc093152cb30d0010f629fda0131a4279474[ALL] 03351999c12612e1c78411ab1070e0ca39faf729247db41e874a5c2e0c434a2534",
            "hex": "473044022029bd5659feaf459dea559da47014eecf97b2891bca3b4310312e09cd5944b66e02200cc6ae9acff44f12abd2c480b2e3dc093152cb30d0010f629fda0131a4279474012103351999c12612e1c78411ab1070e0ca39faf729247db41e874a5c2e0c434a2534"
          },
          "sequence": 4294967295
        }
      ],
      "vout": [
        {
          "value": 2.00000000,
          "n": 0,
          "scriptPubKey": {
            "asm": "OP_DUP OP_HASH160 6ab92d675bf3eb8a83f1a4d4c6cf0c4b24dc251d OP_EQUALVERIFY OP_CHECKSIG",
            "hex": "76a9146ab92d675bf3eb8a83f1a4d4c6cf0c4b24dc251d88ac",
            "reqSigs": 1,
            "type": "pubkeyhash",
            "addresses": [
              "LUxFittaknCKKwVZz86B51Q927pzryKNTH"
            ]
          }
        }, 
        {
          "value": 0.95150374,
          "n": 1,
          "scriptPubKey": {
            "asm": "OP_DUP OP_HASH160 a4198d8902fac842c36fe77d9fc4e04dde0adb71 OP_EQUALVERIFY OP_CHECKSIG",
            "hex": "76a914a4198d8902fac842c36fe77d9fc4e04dde0adb7188ac",
            "reqSigs": 1,
            "type": "pubkeyhash",
            "addresses": [
              "LaBdh7nkiiLgW22KgJ4pvsAqo75ANFLjc1"
            ]
          }
        }
      ],
      "hex": "01000000035e8eac531139444a30b52a64a49b652baee7fcf089f36424fc2773222cc7f3ec9e0100006a47304402201003bf871b8728151f6845840c309ef9f1a783d57f7bc246fc2657c3eb7a4a2e02206b5f7a9e266c34f96ea2c855c4e1c9fc98029abb37c1da29a26b652fd6c9a630012103351999c12612e1c78411ab1070e0ca39faf729247db41e874a5c2e0c434a2534ffffffff378320550b6933e3d385eb94953c3d9d5568f0a9cf6c8ea9f6e2da5333ddb0c1960100006a47304402207d9568d450d797647acbd884f9da78bcaa829a7de9e2e8ed65eb03723b8f8eb102204e5ce644dbcf42e4a39dcdd006f978aadbd2cb814e0f46bcc35d4fc2230ea64a012103351999c12612e1c78411ab1070e0ca39faf729247db41e874a5c2e0c434a2534ffffffffe9c4c54c659722b505bc790929092c8df782a468bc1daa53eecb3843e7b079baa80100006a473044022029bd5659feaf459dea559da47014eecf97b2891bca3b4310312e09cd5944b66e02200cc6ae9acff44f12abd2c480b2e3dc093152cb30d0010f629fda0131a4279474012103351999c12612e1c78411ab1070e0ca39faf729247db41e874a5c2e0c434a2534ffffffff0200c2eb0b000000001976a9146ab92d675bf3eb8a83f1a4d4c6cf0c4b24dc251d88ac26e1ab05000000001976a914a4198d8902fac842c36fe77d9fc4e04dde0adb7188ac00000000"
    }, 
    {
      "txid": "7dc19912cbc8ca543cf1be2b31e82d39cd46503ddb519706ce72355e7c6ef1fd",
      "hash": "7dc19912cbc8ca543cf1be2b31e82d39cd46503ddb519706ce72355e7c6ef1fd",
      "version": 1,
      "size": 225,
      "vsize": 225,
      "locktime": 0,
      "vin": [
        {
          "txid": "c8a1668d64081d75abdeadd93274d19c26994068f73d39b1de3480f4bcd6ad5b",
          "vout": 0,
          "scriptSig": {
            "asm": "304402204e5b8a04c9a049b39fa25c8d679b81061123067b32155b4a8a44772b5bb13798022033e7a8e40a90eee9f9f03c360f3effa99b5bdf79729a635c4e9b147f06636b20[ALL] 03c2084afb81c2e3501468a477d9e08a9a2f948ec807c2f4f139b3cc4f47fe01e8",
            "hex": "47304402204e5b8a04c9a049b39fa25c8d679b81061123067b32155b4a8a44772b5bb13798022033e7a8e40a90eee9f9f03c360f3effa99b5bdf79729a635c4e9b147f06636b20012103c2084afb81c2e3501468a477d9e08a9a2f948ec807c2f4f139b3cc4f47fe01e8"
          },
          "sequence": 4294967295
        }
      ],
      "vout": [
        {
          "value": 0.01000000,
          "n": 0,
          "scriptPubKey": {
            "asm": "OP_DUP OP_HASH160 880cecd7595c8cbdebd1afa1da4ac80c67bb6677 OP_EQUALVERIFY OP_CHECKSIG",
            "hex": "76a914880cecd7595c8cbdebd1afa1da4ac80c67bb667788ac",
            "reqSigs": 1,
            "type": "pubkeyhash",
            "addresses": [
              "LXdKeMi9yUgSg4zPYLt2xwkpMb6YWdZedE"
            ]
          }
        }, 
        {
          "value": 0.51085000,
          "n": 1,
          "scriptPubKey": {
            "asm": "OP_DUP OP_HASH160 2b430a04cbe8daadef2ef98e6677f10189b23497 OP_EQUALVERIFY OP_CHECKSIG",
            "hex": "76a9142b430a04cbe8daadef2ef98e6677f10189b2349788ac",
            "reqSigs": 1,
            "type": "pubkeyhash",
            "addresses": [
              "LPAhdRTe2HhFdDq7dNYypBuHKSVnM3p2km"
            ]
          }
        }
      ],
      "hex": "01000000015badd6bcf48034deb1393df7684099269cd17432d9addeab751d08648d66a1c8000000006a47304402204e5b8a04c9a049b39fa25c8d679b81061123067b32155b4a8a44772b5bb13798022033e7a8e40a90eee9f9f03c360f3effa99b5bdf79729a635c4e9b147f06636b20012103c2084afb81c2e3501468a477d9e08a9a2f948ec807c2f4f139b3cc4f47fe01e8ffffffff0240420f00000000001976a914880cecd7595c8cbdebd1afa1da4ac80c67bb667788acc87e0b03000000001976a9142b430a04cbe8daadef2ef98e6677f10189b2349788ac00000000"
    }, 
    {
      "txid": "b0dbfaead3655e804be6e8ff97c79143ed9d3d54e601a43f2be1b4a2df215bd7",
      "hash": "b0dbfaead3655e804be6e8ff97c79143ed9d3d54e601a43f2be1b4a2df215bd7",
      "version": 1,
      "size": 373,
      "vsize": 373,
      "locktime": 0,
      "vin": [
        {
          "txid": "adaa69ff28850dece001cc3df13e64ca6cc793681f632d8c0a1c004e83eea2d7",
          "vout": 0,
          "scriptSig": {
            "asm": "304502210087d6ac9c75c6f590da5544b21ac551030ff64e324b78645e7023baac7409f2d702200c64b65dbe36da41f3adca11e2d72e94f079a611eae6f06b9dac55fc5ca8db98[ALL] 0350d4700a987ccf2756759e3cfe7f4b2a838fa3dc16e7627b63f8cb5e1eabb962",
            "hex": "48304502210087d6ac9c75c6f590da5544b21ac551030ff64e324b78645e7023baac7409f2d702200c64b65dbe36da41f3adca11e2d72e94f079a611eae6f06b9dac55fc5ca8db9801210350d4700a987ccf2756759e3cfe7f4b2a838fa3dc16e7627b63f8cb5e1eabb962"
          },
          "sequence": 4294967295
        }, 
        {
          "txid": "2f08bc21b81cd7cd7f6bc0e50e33d9467b9c2de6485a2eb94c5d211f40f6c7ed",
          "vout": 0,
          "scriptSig": {
            "asm": "304402206c14c30dda91aeceae9411eed0c8b0ff76ef4f9ca1ac2a8596a8ebd22d59fde402203a169720a214a3996a657f97b914f91ea9f333f112513739eed33002d8d1c434[ALL] 02fcf21db22679371dfe5a13571f111fcd7d7c3a53e5df8033bf9f6e9df78ab31b",
            "hex": "47304402206c14c30dda91aeceae9411eed0c8b0ff76ef4f9ca1ac2a8596a8ebd22d59fde402203a169720a214a3996a657f97b914f91ea9f333f112513739eed33002d8d1c434012102fcf21db22679371dfe5a13571f111fcd7d7c3a53e5df8033bf9f6e9df78ab31b"
          },
          "sequence": 4294967295
        }
      ],
      "vout": [
        {
          "value": 0.27665578,
          "n": 0,
          "scriptPubKey": {
            "asm": "OP_DUP OP_HASH160 8100a163467aacada99ea54a7a3cf8c43a239bec OP_EQUALVERIFY OP_CHECKSIG",
            "hex": "76a9148100a163467aacada99ea54a7a3cf8c43a239bec88ac",
            "reqSigs": 1,
            "type": "pubkeyhash",
            "addresses": [
              "LWz4Bm89PXP3LwC6WCUDCPz5yqVd4hsjYb"
            ]
          }
        }, 
        {
          "value": 0.00137300,
          "n": 1,
          "scriptPubKey": {
            "asm": "OP_DUP OP_HASH160 a5c979cec9752cc546696116c9bd1820837f6b1d OP_EQUALVERIFY OP_CHECKSIG",
            "hex": "76a914a5c979cec9752cc546696116c9bd1820837f6b1d88ac",
            "reqSigs": 1,
            "type": "pubkeyhash",
            "addresses": [
              "LaLZ7eeJLFtkPFAj4eYVwt7CcH4s2HH6kR"
            ]
          }
        }
      ],
      "hex": "0100000002d7a2ee834e001c0a8c2d631f6893c76cca643ef13dcc01e0ec0d8528ff69aaad000000006b48304502210087d6ac9c75c6f590da5544b21ac551030ff64e324b78645e7023baac7409f2d702200c64b65dbe36da41f3adca11e2d72e94f079a611eae6f06b9dac55fc5ca8db9801210350d4700a987ccf2756759e3cfe7f4b2a838fa3dc16e7627b63f8cb5e1eabb962ffffffffedc7f6401f215d4cb92e5a48e62d9c7b46d9330ee5c06b7fcdd71cb821bc082f000000006a47304402206c14c30dda91aeceae9411eed0c8b0ff76ef4f9ca1ac2a8596a8ebd22d59fde402203a169720a214a3996a657f97b914f91ea9f333f112513739eed33002d8d1c434012102fcf21db22679371dfe5a13571f111fcd7d7c3a53e5df8033bf9f6e9df78ab31bffffffff02aa24a601000000001976a9148100a163467aacada99ea54a7a3cf8c43a239bec88ac54180200000000001976a914a5c979cec9752cc546696116c9bd1820837f6b1d88ac00000000"
    }, 
    {
      "txid": "3cd6893c68cd2e0154300e48111da856391e9280bb1508c6bc8ac79638170cbe",
      "hash": "3cd6893c68cd2e0154300e48111da856391e9280bb1508c6bc8ac79638170cbe",
      "version": 1,
      "size": 816,
      "vsize": 816,
      "locktime": 0,
      "vin": [
        {
          "txid": "b795824c1f7d90318b24ef89daae19f08b226a0f0a3552d5725e7d3a89a86c55",
          "vout": 1,
          "scriptSig": {
            "asm": "3044022048e867486fbae4b027f0c7e2c0caca1e1d932dfd7c24c1f0940a5c3b1cf9a272022016e5aac2ffd05adab8e16b63f9cce4e86dc2ed9265a502cb344a54224f07fe09[ALL] 0316ee3e720bcca78c58ba4457a92993cbab141d4d39e9de56504187460c3da64b",
            "hex": "473044022048e867486fbae4b027f0c7e2c0caca1e1d932dfd7c24c1f0940a5c3b1cf9a272022016e5aac2ffd05adab8e16b63f9cce4e86dc2ed9265a502cb344a54224f07fe0901210316ee3e720bcca78c58ba4457a92993cbab141d4d39e9de56504187460c3da64b"
          },
          "sequence": 4294967295
        }, 
        {
          "txid": "5227597269f628ac6e5ac7e304b03a66f5dee1404fd29395dea3f9e62e81faf6",
          "vout": 0,
          "scriptSig": {
            "asm": "3045022100953ee993e4194a5a5f89506096da19952b2dd68e29f8c489e5004544f12da4a302200b8014acf14c0c99ce4f5abb54ece08431ffeb91caa019cd32b25cc31f2cbd3a[ALL] 0316ee3e720bcca78c58ba4457a92993cbab141d4d39e9de56504187460c3da64b",
            "hex": "483045022100953ee993e4194a5a5f89506096da19952b2dd68e29f8c489e5004544f12da4a302200b8014acf14c0c99ce4f5abb54ece08431ffeb91caa019cd32b25cc31f2cbd3a01210316ee3e720bcca78c58ba4457a92993cbab141d4d39e9de56504187460c3da64b"
          },
          "sequence": 4294967295
        }, 
        {
          "txid": "986257f65d570dfa0e9d7eacf176323504ee31f2ff289b7578c75fe05dfd138c",
          "vout": 0,
          "scriptSig": {
            "asm": "304502210080d6d7a57380956340ba11a35ee54fc13d2523287f524d66e4de2917e9d2fc4d022067d49207bd2a42b78c7cb5709109cb288e97ee0b6fe56117ffa865e64141b65b[ALL] 02d9b5aefb7ab6232f07e46730f1fe628c18999fa5e71ac76420bffebaf5e3e737",
            "hex": "48304502210080d6d7a57380956340ba11a35ee54fc13d2523287f524d66e4de2917e9d2fc4d022067d49207bd2a42b78c7cb5709109cb288e97ee0b6fe56117ffa865e64141b65b012102d9b5aefb7ab6232f07e46730f1fe628c18999fa5e71ac76420bffebaf5e3e737"
          },
          "sequence": 4294967295
        }, 
        {
          "txid": "fc7ca9ed125d6a32694f46b05a2430457aa05445482b4b6690803a4b29190681",
          "vout": 0,
          "scriptSig": {
            "asm": "304402202a660164ef91d46b2267c654fef935736b8282dd3e6cd4c8022b97b0f0983e820220611d9f8b7c5d402a9259bf8b2793c70cf1f828184e0faf5eedfc8ccbb77d26b8[ALL] 03c4fd96269bc81687601c8092f2b84467852d7f42c44d766e0c69489ad658c5a8",
            "hex": "47304402202a660164ef91d46b2267c654fef935736b8282dd3e6cd4c8022b97b0f0983e820220611d9f8b7c5d402a9259bf8b2793c70cf1f828184e0faf5eedfc8ccbb77d26b8012103c4fd96269bc81687601c8092f2b84467852d7f42c44d766e0c69489ad658c5a8"
          },
          "sequence": 4294967295
        }, 
        {
          "txid": "6eb26660fe9cb896d8c3985e2f947433868a8039bf687abc942804b22b5b3d4c",
          "vout": 2213,
          "scriptSig": {
            "asm": "3045022100becfe78847e4b145cf1d82c0a4bb1b126b73002d8b972cb3d927c3d780c8702602203a29687f4a35cf3e98374b4421811d4aa2b5457610b6bea70386613fde813fd9[ALL] 0316ee3e720bcca78c58ba4457a92993cbab141d4d39e9de56504187460c3da64b",
            "hex": "483045022100becfe78847e4b145cf1d82c0a4bb1b126b73002d8b972cb3d927c3d780c8702602203a29687f4a35cf3e98374b4421811d4aa2b5457610b6bea70386613fde813fd901210316ee3e720bcca78c58ba4457a92993cbab141d4d39e9de56504187460c3da64b"
          },
          "sequence": 4294967295
        }
      ],
      "vout": [
        {
          "value": 2.70000000,
          "n": 0,
          "scriptPubKey": {
            "asm": "OP_DUP OP_HASH160 1bcad4195f3dc3df00a29c384f2afbee51ea98fb OP_EQUALVERIFY OP_CHECKSIG",
            "hex": "76a9141bcad4195f3dc3df00a29c384f2afbee51ea98fb88ac",
            "reqSigs": 1,
            "type": "pubkeyhash",
            "addresses": [
              "LMkuVAVhjyyQ8YsWyu8Tq2GnVQcBUrUSUK"
            ]
          }
        }, 
        {
          "value": 0.01005422,
          "n": 1,
          "scriptPubKey": {
            "asm": "OP_DUP OP_HASH160 edb598f5577982e97b66e66a4af5c887c2cff877 OP_EQUALVERIFY OP_CHECKSIG",
            "hex": "76a914edb598f5577982e97b66e66a4af5c887c2cff87788ac",
            "reqSigs": 1,
            "type": "pubkeyhash",
            "addresses": [
              "LgtqxHt96sAGss9BVoEiRPoHGidguq8EQh"
            ]
          }
        }
      ],
      "hex": "0100000005556ca8893a7d5e72d552350a0f6a228bf019aeda89ef248b31907d1f4c8295b7010000006a473044022048e867486fbae4b027f0c7e2c0caca1e1d932dfd7c24c1f0940a5c3b1cf9a272022016e5aac2ffd05adab8e16b63f9cce4e86dc2ed9265a502cb344a54224f07fe0901210316ee3e720bcca78c58ba4457a92993cbab141d4d39e9de56504187460c3da64bfffffffff6fa812ee6f9a3de9593d24f40e1def5663ab004e3c75a6eac28f66972592752000000006b483045022100953ee993e4194a5a5f89506096da19952b2dd68e29f8c489e5004544f12da4a302200b8014acf14c0c99ce4f5abb54ece08431ffeb91caa019cd32b25cc31f2cbd3a01210316ee3e720bcca78c58ba4457a92993cbab141d4d39e9de56504187460c3da64bffffffff8c13fd5de05fc778759b28fff231ee04353276f1ac7e9d0efa0d575df6576298000000006b48304502210080d6d7a57380956340ba11a35ee54fc13d2523287f524d66e4de2917e9d2fc4d022067d49207bd2a42b78c7cb5709109cb288e97ee0b6fe56117ffa865e64141b65b012102d9b5aefb7ab6232f07e46730f1fe628c18999fa5e71ac76420bffebaf5e3e737ffffffff810619294b3a8090664b2b484554a07a4530245ab0464f69326a5d12eda97cfc000000006a47304402202a660164ef91d46b2267c654fef935736b8282dd3e6cd4c8022b97b0f0983e820220611d9f8b7c5d402a9259bf8b2793c70cf1f828184e0faf5eedfc8ccbb77d26b8012103c4fd96269bc81687601c8092f2b84467852d7f42c44d766e0c69489ad658c5a8ffffffff4c3d5b2bb2042894bc7a68bf39808a863374942f5e98c3d896b89cfe6066b26ea50800006b483045022100becfe78847e4b145cf1d82c0a4bb1b126b73002d8b972cb3d927c3d780c8702602203a29687f4a35cf3e98374b4421811d4aa2b5457610b6bea70386613fde813fd901210316ee3e720bcca78c58ba4457a92993cbab141d4d39e9de56504187460c3da64bffffffff0280df1710000000001976a9141bcad4195f3dc3df00a29c384f2afbee51ea98fb88ac6e570f00000000001976a914edb598f5577982e97b66e66a4af5c887c2cff87788ac00000000"
    }, 
    {
      "txid": "d381637710f9713b5bf3e19976d6e36f569dc7f1e456fc228eeaf9c76686ff29",
      "hash": "d381637710f9713b5bf3e19976d6e36f569dc7f1e456fc228eeaf9c76686ff29",
      "version": 1,
      "size": 223,
      "vsize": 223,
      "locktime": 0,
      "vin": [
        {
          "txid": "5f0218d52deeb22e78ccc483de3a1275ae39568179aa5520f899005ef4487b47",
          "vout": 0,
          "scriptSig": {
            "asm": "304402203f059194a8707518034c79d41a11a90b26d7a79fbb15346f1e50115747f964d402201788adb4e066268d3f86c11afd1416a20bfd68157b531940ae39c89306ff419b[ALL] 02d41982c6d483c31296eb714eef54a8e175bdb1a321878cb938266448dd9a9c49",
            "hex": "47304402203f059194a8707518034c79d41a11a90b26d7a79fbb15346f1e50115747f964d402201788adb4e066268d3f86c11afd1416a20bfd68157b531940ae39c89306ff419b012102d41982c6d483c31296eb714eef54a8e175bdb1a321878cb938266448dd9a9c49"
          },
          "sequence": 4294967295
        }
      ],
      "vout": [
        {
          "value": 81.29722346,
          "n": 0,
          "scriptPubKey": {
            "asm": "OP_DUP OP_HASH160 d7c1ef61d5b148357fdd6fff17ef54d0bc001303 OP_EQUALVERIFY OP_CHECKSIG",
            "hex": "76a914d7c1ef61d5b148357fdd6fff17ef54d0bc00130388ac",
            "reqSigs": 1,
            "type": "pubkeyhash",
            "addresses": [
              "LetmsJWCTejpr7GP7uEsVFAhdogDZ7GoHR"
            ]
          }
        }, 
        {
          "value": 1.00000000,
          "n": 1,
          "scriptPubKey": {
            "asm": "OP_HASH160 85ace71bd74f766337f2722b4b17c031e150c187 OP_EQUAL",
            "hex": "a91485ace71bd74f766337f2722b4b17c031e150c18787",
            "reqSigs": 1,
            "type": "scripthash",
            "addresses": [
              "ML5yESPiizWEvsifTzTAB9AAeCSfcSgWSu"
            ]
          }
        }
      ],
      "hex": "0100000001477b48f45e0099f82055aa79815639ae75123ade83c4cc782eb2ee2dd518025f000000006a47304402203f059194a8707518034c79d41a11a90b26d7a79fbb15346f1e50115747f964d402201788adb4e066268d3f86c11afd1416a20bfd68157b531940ae39c89306ff419b012102d41982c6d483c31296eb714eef54a8e175bdb1a321878cb938266448dd9a9c49ffffffff02eab791e4010000001976a914d7c1ef61d5b148357fdd6fff17ef54d0bc00130388ac00e1f5050000000017a91485ace71bd74f766337f2722b4b17c031e150c1878700000000"
    }, 
    {
      "txid": "72658c4d46737d1c2f6dc85298eab74e971ef097d51b6d07557de27cea8f0905",
      "hash": "72658c4d46737d1c2f6dc85298eab74e971ef097d51b6d07557de27cea8f0905",
      "version": 1,
      "size": 225,
      "vsize": 225,
      "locktime": 0,
      "vin": [
        {
          "txid": "1b7a898518f51b33c987aae266a1f287ca67325d876e83029889d925cfbd83e4",
          "vout": 1,
          "scriptSig": {
            "asm": "304402204fbcd9f24a7ea271cbe4e7d7b3fa2e9deb1affebe04dfd685694fe8c8c8ee53002204cc9d8f8d8c835227574d7e3ed19ebbb1f7240d54e67ee67fc83fd76a12e8e0a[ALL] 03bcbe6c0fda1d5ac140161159b8d2d283bc77e6d60a2e3977132a7e68c2d650d4",
            "hex": "47304402204fbcd9f24a7ea271cbe4e7d7b3fa2e9deb1affebe04dfd685694fe8c8c8ee53002204cc9d8f8d8c835227574d7e3ed19ebbb1f7240d54e67ee67fc83fd76a12e8e0a012103bcbe6c0fda1d5ac140161159b8d2d283bc77e6d60a2e3977132a7e68c2d650d4"
          },
          "sequence": 4294967295
        }
      ],
      "vout": [
        {
          "value": 0.53903301,
          "n": 0,
          "scriptPubKey": {
            "asm": "OP_DUP OP_HASH160 c204ee392d4e123921b1765387d720f4184b0cef OP_EQUALVERIFY OP_CHECKSIG",
            "hex": "76a914c204ee392d4e123921b1765387d720f4184b0cef88ac",
            "reqSigs": 1,
            "type": "pubkeyhash",
            "addresses": [
              "LcuqG1VxkcQgJndxiydh4mR3j3mC5V4kWn"
            ]
          }
        }, 
        {
          "value": 82.14168931,
          "n": 1,
          "scriptPubKey": {
            "asm": "OP_DUP OP_HASH160 292cf3e244aed22807768c9cebdf30dea04f684b OP_EQUALVERIFY OP_CHECKSIG",
            "hex": "76a914292cf3e244aed22807768c9cebdf30dea04f684b88ac",
            "reqSigs": 1,
            "type": "pubkeyhash",
            "addresses": [
              "LNyfpSjHTsMroEzp82dpebeF9DMiJdqjk7"
            ]
          }
        }
      ],
      "hex": "0100000001e483bdcf25d9899802836e875d3267ca87f2a166e2aa87c9331bf51885897a1b010000006a47304402204fbcd9f24a7ea271cbe4e7d7b3fa2e9deb1affebe04dfd685694fe8c8c8ee53002204cc9d8f8d8c835227574d7e3ed19ebbb1f7240d54e67ee67fc83fd76a12e8e0a012103bcbe6c0fda1d5ac140161159b8d2d283bc77e6d60a2e3977132a7e68c2d650d4ffffffff02c57f3603000000001976a914c204ee392d4e123921b1765387d720f4184b0cef88ac63459ae9010000001976a914292cf3e244aed22807768c9cebdf30dea04f684b88ac00000000"
    }, 
    {
      "txid": "59a0ffa7b4c76a0114b94f7406e2506e2e0fa727d9bd8d6ceb7d1bd296076495",
      "hash": "59a0ffa7b4c76a0114b94f7406e2506e2e0fa727d9bd8d6ceb7d1bd296076495",
      "version": 1,
      "size": 225,
      "vsize": 225,
      "locktime": 0,
      "vin": [
        {
          "txid": "083147f9d86fe5e0de0c65fba39859e99f33c85dfd17cd4afbb175e81c766b02",
          "vout": 0,
          "scriptSig": {
            "asm": "3044022070defbb32af626d491258fa02476e093a5777afac450e5368199b6e84713d6030220155d2c1b71ebaea0874a3068e53363481e31f8779f27872c4dedb89f6e3a5e8b[ALL] 02fc58a9a5b0fadab850e3d8bb16a9c631050b340b49cf8823c8128a22ef416d36",
            "hex": "473044022070defbb32af626d491258fa02476e093a5777afac450e5368199b6e84713d6030220155d2c1b71ebaea0874a3068e53363481e31f8779f27872c4dedb89f6e3a5e8b012102fc58a9a5b0fadab850e3d8bb16a9c631050b340b49cf8823c8128a22ef416d36"
          },
          "sequence": 4294967295
        }
      ],
      "vout": [
        {
          "value": 0.00552355,
          "n": 0,
          "scriptPubKey": {
            "asm": "OP_DUP OP_HASH160 c3279615fd022c0893945c5a7d1483607676a642 OP_EQUALVERIFY OP_CHECKSIG",
            "hex": "76a914c3279615fd022c0893945c5a7d1483607676a64288ac",
            "reqSigs": 1,
            "type": "pubkeyhash",
            "addresses": [
              "Ld1qT8442MMcgUjxSBnmx4fQi4NyY4ooaM"
            ]
          }
        }, 
        {
          "value": 0.00054879,
          "n": 1,
          "scriptPubKey": {
            "asm": "OP_DUP OP_HASH160 ece83a1e8252c8bac0949816019aabb644313d7e OP_EQUALVERIFY OP_CHECKSIG",
            "hex": "76a914ece83a1e8252c8bac0949816019aabb644313d7e88ac",
            "reqSigs": 1,
            "type": "pubkeyhash",
            "addresses": [
              "LgpbvuFpL4KoPzEHJsfZW4NXkv3i8UCpWG"
            ]
          }
        }
      ],
      "hex": "0100000001026b761ce875b1fb4acd17fd5dc8339fe95998a3fb650cdee0e56fd8f9473108000000006a473044022070defbb32af626d491258fa02476e093a5777afac450e5368199b6e84713d6030220155d2c1b71ebaea0874a3068e53363481e31f8779f27872c4dedb89f6e3a5e8b012102fc58a9a5b0fadab850e3d8bb16a9c631050b340b49cf8823c8128a22ef416d36ffffffff02a36d0800000000001976a914c3279615fd022c0893945c5a7d1483607676a64288ac5fd60000000000001976a914ece83a1e8252c8bac0949816019aabb644313d7e88ac00000000"
    }, 
    {
      "txid": "e413467dc87aadb34b44000e90443e17854ce87c507501df9a1782de4815c7a8",
      "hash": "e413467dc87aadb34b44000e90443e17854ce87c507501df9a1782de4815c7a8",
      "version": 1,
      "size": 225,
      "vsize": 225,
      "locktime": 0,
      "vin": [
        {
          "txid": "ae28914891159cecb5c8a6b7dcfc227188687629f66cc654476f202b2cd02e38",
          "vout": 1,
          "scriptSig": {
            "asm": "304402203c5f0d18dab1842893906ffc1b2d4333fb9769bc6b41c6fbda12183ae2d4bf1402203126740fe9b52c54671d8811e5d878544c7659ed74c478fb7a445d6bae9a3779[ALL] 024b386157af19d5032ce5c74a7a8521e6c430b8880bb5e8b4dd5f836129f44a7d",
            "hex": "47304402203c5f0d18dab1842893906ffc1b2d4333fb9769bc6b41c6fbda12183ae2d4bf1402203126740fe9b52c54671d8811e5d878544c7659ed74c478fb7a445d6bae9a37790121024b386157af19d5032ce5c74a7a8521e6c430b8880bb5e8b4dd5f836129f44a7d"
          },
          "sequence": 4294967295
        }
      ],
      "vout": [
        {
          "value": 5.64889543,
          "n": 0,
          "scriptPubKey": {
            "asm": "OP_DUP OP_HASH160 bbcaa7b49a6dbe28f5cde6195caf4c0a7ea7d347 OP_EQUALVERIFY OP_CHECKSIG",
            "hex": "76a914bbcaa7b49a6dbe28f5cde6195caf4c0a7ea7d34788ac",
            "reqSigs": 1,
            "type": "pubkeyhash",
            "addresses": [
              "LcLuPoqwgS1MQdu7aG4cwtjJDxo4mGXFxD"
            ]
          }
        }, 
        {
          "value": 79.41793722,
          "n": 1,
          "scriptPubKey": {
            "asm": "OP_DUP OP_HASH160 c84989b96093353e9a9a0661dce7cc505ad70d36 OP_EQUALVERIFY OP_CHECKSIG",
            "hex": "76a914c84989b96093353e9a9a0661dce7cc505ad70d3688ac",
            "reqSigs": 1,
            "type": "pubkeyhash",
            "addresses": [
              "LdUyW63pfkhi4LZn5jdADs5UMaw3qoKRbQ"
            ]
          }
        }
      ],
      "hex": "0100000001382ed02c2b206f4754c66cf6297668887122fcdcb7a6c8b5ec9c1591489128ae010000006a47304402203c5f0d18dab1842893906ffc1b2d4333fb9769bc6b41c6fbda12183ae2d4bf1402203126740fe9b52c54671d8811e5d878544c7659ed74c478fb7a445d6bae9a37790121024b386157af19d5032ce5c74a7a8521e6c430b8880bb5e8b4dd5f836129f44a7dffffffff02c787ab21000000001976a914bbcaa7b49a6dbe28f5cde6195caf4c0a7ea7d34788acba275ed9010000001976a914c84989b96093353e9a9a0661dce7cc505ad70d3688ac00000000"
    }, 
    {
      "txid": "2386a780a41781c670534aca6b5b2bf80a9c9c67652cc767795af92dde8f4cb7",
      "hash": "2386a780a41781c670534aca6b5b2bf80a9c9c67652cc767795af92dde8f4cb7",
      "version": 1,
      "size": 225,
      "vsize": 225,
      "locktime": 0,
      "vin": [
        {
          "txid": "cce3406c069e706b12eccbf6d13960176adbbf4e85aa1cf8860298b16d0b3ecf",
          "vout": 0,
          "scriptSig": {
            "asm": "304402205f7a4605d824522996583b3e6b5067e6b30c9689f7c57f45dc5d9aec44407ff702207b62c1a060384602bc6913de6d325233055ffa802fbf411c6f3ac30cd858e914[ALL] 03844c4e46520ca72c1fbed059483bf27850670b8ca714a4a3917a3214b2512eb1",
            "hex": "47304402205f7a4605d824522996583b3e6b5067e6b30c9689f7c57f45dc5d9aec44407ff702207b62c1a060384602bc6913de6d325233055ffa802fbf411c6f3ac30cd858e914012103844c4e46520ca72c1fbed059483bf27850670b8ca714a4a3917a3214b2512eb1"
          },
          "sequence": 4294967295
        }
      ],
      "vout": [
        {
          "value": 80.59721312,
          "n": 0,
          "scriptPubKey": {
            "asm": "OP_DUP OP_HASH160 48534cfa7588d463bc125a722ef51d2772e6985a OP_EQUALVERIFY OP_CHECKSIG",
            "hex": "76a91448534cfa7588d463bc125a722ef51d2772e6985a88ac",
            "reqSigs": 1,
            "type": "pubkeyhash",
            "addresses": [
              "LRpNhrkr1M5EHCoJTx9fqrm7jnJr7yBaRa"
            ]
          }
        }, 
        {
          "value": 1.97980872,
          "n": 1,
          "scriptPubKey": {
            "asm": "OP_DUP OP_HASH160 413a2103604fe9c955ad6ea595efa325ce8938d2 OP_EQUALVERIFY OP_CHECKSIG",
            "hex": "76a914413a2103604fe9c955ad6ea595efa325ce8938d288ac",
            "reqSigs": 1,
            "type": "pubkeyhash",
            "addresses": [
              "LRAqpZ1p7D761U5vNXrS9qwJRoDe8hMsmw"
            ]
          }
        }
      ],
      "hex": "0100000001cf3e0b6db1980286f81caa854ebfdb6a176039d1f6cbec126b709e066c40e3cc000000006a47304402205f7a4605d824522996583b3e6b5067e6b30c9689f7c57f45dc5d9aec44407ff702207b62c1a060384602bc6913de6d325233055ffa802fbf411c6f3ac30cd858e914012103844c4e46520ca72c1fbed059483bf27850670b8ca714a4a3917a3214b2512eb1ffffffff02609665e0010000001976a91448534cfa7588d463bc125a722ef51d2772e6985a88acc8f2cc0b000000001976a914413a2103604fe9c955ad6ea595efa325ce8938d288ac00000000"
    }, 
    {
      "txid": "fb2553634015db13ef891a62e5aa0a60057814870126257b606afbf884f9ffc3",
      "hash": "fb2553634015db13ef891a62e5aa0a60057814870126257b606afbf884f9ffc3",
      "version": 1,
      "size": 225,
      "vsize": 225,
      "locktime": 0,
      "vin": [
        {
          "txid": "4af5fa52a568135d676b44281f80fc72bc149395840275984d13bd6cf6544de8",
          "vout": 0,
          "scriptSig": {
            "asm": "3044022053e662a31ef99e8f00ca0e142ed62c51f6c158f1d5ba62ab85816059bd7102f002204f4a141304126b6d6af5ea05b6e433983f3d31ad93c41d9ec54c7c9157ab3d05[ALL] 02b5663a8542cccdc4f4e3b12c88cd65f9d4a1f5331fb1beb8b85408a41b93485c",
            "hex": "473044022053e662a31ef99e8f00ca0e142ed62c51f6c158f1d5ba62ab85816059bd7102f002204f4a141304126b6d6af5ea05b6e433983f3d31ad93c41d9ec54c7c9157ab3d05012102b5663a8542cccdc4f4e3b12c88cd65f9d4a1f5331fb1beb8b85408a41b93485c"
          },
          "sequence": 4294967295
        }
      ],
      "vout": [
        {
          "value": 71.78569568,
          "n": 0,
          "scriptPubKey": {
            "asm": "OP_DUP OP_HASH160 90f82db5e1f1df41f44e071e4d956463c03f6fe8 OP_EQUALVERIFY OP_CHECKSIG",
            "hex": "76a91490f82db5e1f1df41f44e071e4d956463c03f6fe888ac",
            "reqSigs": 1,
            "type": "pubkeyhash",
            "addresses": [
              "LYSUsatDSRbuDVddJQjopE93mrYGeeoWHn"
            ]
          }
        }, 
        {
          "value": 11.00000000,
          "n": 1,
          "scriptPubKey": {
            "asm": "OP_DUP OP_HASH160 25edc4213135841ba000b3528df554515102a096 OP_EQUALVERIFY OP_CHECKSIG",
            "hex": "76a91425edc4213135841ba000b3528df554515102a09688ac",
            "reqSigs": 1,
            "type": "pubkeyhash",
            "addresses": [
              "LNgW6bExgcuQ6pyJ1M99QbXZsQCkVWwrDf"
            ]
          }
        }
      ],
      "hex": "0100000001e84d54f66cbd134d98750284959314bc72fc801f28446b675d1368a552faf54a000000006a473044022053e662a31ef99e8f00ca0e142ed62c51f6c158f1d5ba62ab85816059bd7102f002204f4a141304126b6d6af5ea05b6e433983f3d31ad93c41d9ec54c7c9157ab3d05012102b5663a8542cccdc4f4e3b12c88cd65f9d4a1f5331fb1beb8b85408a41b93485cffffffff026047e0ab010000001976a91490f82db5e1f1df41f44e071e4d956463c03f6fe888ac00ab9041000000001976a91425edc4213135841ba000b3528df554515102a09688ac00000000"
    }, 
    {
      "txid": "b6d198cad9baff6d99150bacf2b953bed800a53dad6029756d1f7dd4a4858ce6",
      "hash": "b6d198cad9baff6d99150bacf2b953bed800a53dad6029756d1f7dd4a4858ce6",
      "version": 2,
      "size": 963,
      "vsize": 963,
      "locktime": 1359251,
      "vin": [
        {
          "txid": "1df587dd4c556809352668f4ff05b18281ac01c7a38cff3ca627d9aaa2277ba8",
          "vout": 0,
          "scriptSig": {
            "asm": "3045022100ce5fdc141fe98e515b4b50624975b2c3493f8101d06f70c66cd41718a812f9b002201fb4b2048d3f1a900e2972d79d4cad5f7c5a954565ae1eb2d2fff0fcafbfe043[ALL] 02c89ce827c1f3fb7716d2ee3d9125f5bf71bf1eeecf6e8448425bacadc7d5a044",
            "hex": "483045022100ce5fdc141fe98e515b4b50624975b2c3493f8101d06f70c66cd41718a812f9b002201fb4b2048d3f1a900e2972d79d4cad5f7c5a954565ae1eb2d2fff0fcafbfe043012102c89ce827c1f3fb7716d2ee3d9125f5bf71bf1eeecf6e8448425bacadc7d5a044"
          },
          "sequence": 4294967294
        }, 
        {
          "txid": "e28a9ade22e28b811c12391f3197b83779cb0992030eafe6c1e2b7d321876c06",
          "vout": 0,
          "scriptSig": {
            "asm": "3045022100c7ae0bd735b6b520af990bdf264b799b7cede9ff8e198fe2fb17c7f34d403aba02206683e389446f5896499dce3474c90b30db0410013b5a8cabe1f17226f6f04500[ALL] 0302619b15205cdb4afee76e3b16aed173ed1324302186e8032b76d9201315e767",
            "hex": "483045022100c7ae0bd735b6b520af990bdf264b799b7cede9ff8e198fe2fb17c7f34d403aba02206683e389446f5896499dce3474c90b30db0410013b5a8cabe1f17226f6f0450001210302619b15205cdb4afee76e3b16aed173ed1324302186e8032b76d9201315e767"
          },
          "sequence": 4294967294
        }, 
        {
          "txid": "d78e7e8853dbce2a5a21be9dae376990b8765f67ca9f013723924d092180a100",
          "vout": 9,
          "scriptSig": {
            "asm": "3045022100bba61e6025cb0d343fcf94344bcdfdb0ec4adcd5ea6714a04ad98348adea653e022025e98b9ca51dfa7924e7dda1fb30800e5f03ea2d9f5d1e3a835de340467d7441[ALL] 0302619b15205cdb4afee76e3b16aed173ed1324302186e8032b76d9201315e767",
            "hex": "483045022100bba61e6025cb0d343fcf94344bcdfdb0ec4adcd5ea6714a04ad98348adea653e022025e98b9ca51dfa7924e7dda1fb30800e5f03ea2d9f5d1e3a835de340467d744101210302619b15205cdb4afee76e3b16aed173ed1324302186e8032b76d9201315e767"
          },
          "sequence": 4294967294
        }, 
        {
          "txid": "0d433bbe1d6fefd1c3266cae82b447b0ffc388852437410712f0d90fe3ba5a3d",
          "vout": 0,
          "scriptSig": {
            "asm": "3045022100ba35350d2ec41823b174f4cba416f0d06203688f6fa5f8ce80ade8e05b6c536f02204bd81c0c49c3122c6c113eff8d3f7f95621bff9ad6c703eb1920442c2067d5f0[ALL] 0214ccc4022b74009d56f3d8fbaa0a09af948b53219a7cf64f0003a03b3f2858c3",
            "hex": "483045022100ba35350d2ec41823b174f4cba416f0d06203688f6fa5f8ce80ade8e05b6c536f02204bd81c0c49c3122c6c113eff8d3f7f95621bff9ad6c703eb1920442c2067d5f001210214ccc4022b74009d56f3d8fbaa0a09af948b53219a7cf64f0003a03b3f2858c3"
          },
          "sequence": 4294967294
        }, 
        {
          "txid": "54166d10a57bd3285f479cd0ca3a60650ab1eb4518dd396fe766a12822dbf9e7",
          "vout": 2,
          "scriptSig": {
            "asm": "3045022100bdfb83961200e78623e27d6176d0cb4772e8b04940da4b4ddf6d2756022f4656022073ef1ec44caadfcb6778f298afaa6deb90ce57062e79f079fb4a98598d20f304[ALL] 0302619b15205cdb4afee76e3b16aed173ed1324302186e8032b76d9201315e767",
            "hex": "483045022100bdfb83961200e78623e27d6176d0cb4772e8b04940da4b4ddf6d2756022f4656022073ef1ec44caadfcb6778f298afaa6deb90ce57062e79f079fb4a98598d20f30401210302619b15205cdb4afee76e3b16aed173ed1324302186e8032b76d9201315e767"
          },
          "sequence": 4294967294
        }, 
        {
          "txid": "aceaef9d47ef96b7b6dfe6bd52fc62b469cbf12abfd88de7a63c5b14f0287d05",
          "vout": 1,
          "scriptSig": {
            "asm": "3044022076689532d9f334e45646d6e749c55a3aa2ab93449a2bc3c51435170fad3bb04d02201fc0f7934213157e1f4bf73187a7cad5b0e857eea85de31c16ea5d3740515d69[ALL] 0302619b15205cdb4afee76e3b16aed173ed1324302186e8032b76d9201315e767",
            "hex": "473044022076689532d9f334e45646d6e749c55a3aa2ab93449a2bc3c51435170fad3bb04d02201fc0f7934213157e1f4bf73187a7cad5b0e857eea85de31c16ea5d3740515d6901210302619b15205cdb4afee76e3b16aed173ed1324302186e8032b76d9201315e767"
          },
          "sequence": 4294967294
        }
      ],
      "vout": [
        {
          "value": 3.72370000,
          "n": 0,
          "scriptPubKey": {
            "asm": "OP_HASH160 190a7c14d9154c16447b2b6da69f61acdb9850c9 OP_EQUAL",
            "hex": "a914190a7c14d9154c16447b2b6da69f61acdb9850c987",
            "reqSigs": 1,
            "type": "scripthash",
            "addresses": [
              "MABZgiSBFfV3HcTzzxCx3MzSYCUoT2oCkJ"
            ]
          }
        }, 
        {
          "value": 0.01052079,
          "n": 1,
          "scriptPubKey": {
            "asm": "OP_DUP OP_HASH160 9eb0368f5b7dd7666230671e878c9443aaab8ef5 OP_EQUALVERIFY OP_CHECKSIG",
            "hex": "76a9149eb0368f5b7dd7666230671e878c9443aaab8ef588ac",
            "reqSigs": 1,
            "type": "pubkeyhash",
            "addresses": [
              "LZh282PdTBsPnX5JEa8eL33WQQXZvJL8eU"
            ]
          }
        }
      ],
      "hex": "0200000006a87b27a2aad927a63cff8ca3c701ac8182b105fff46826350968554cdd87f51d000000006b483045022100ce5fdc141fe98e515b4b50624975b2c3493f8101d06f70c66cd41718a812f9b002201fb4b2048d3f1a900e2972d79d4cad5f7c5a954565ae1eb2d2fff0fcafbfe043012102c89ce827c1f3fb7716d2ee3d9125f5bf71bf1eeecf6e8448425bacadc7d5a044feffffff066c8721d3b7e2c1e6af0e039209cb7937b897311f39121c818be222de9a8ae2000000006b483045022100c7ae0bd735b6b520af990bdf264b799b7cede9ff8e198fe2fb17c7f34d403aba02206683e389446f5896499dce3474c90b30db0410013b5a8cabe1f17226f6f0450001210302619b15205cdb4afee76e3b16aed173ed1324302186e8032b76d9201315e767feffffff00a18021094d922337019fca675f76b8906937ae9dbe215a2acedb53887e8ed7090000006b483045022100bba61e6025cb0d343fcf94344bcdfdb0ec4adcd5ea6714a04ad98348adea653e022025e98b9ca51dfa7924e7dda1fb30800e5f03ea2d9f5d1e3a835de340467d744101210302619b15205cdb4afee76e3b16aed173ed1324302186e8032b76d9201315e767feffffff3d5abae30fd9f012074137248588c3ffb047b482ae6c26c3d1ef6f1dbe3b430d000000006b483045022100ba35350d2ec41823b174f4cba416f0d06203688f6fa5f8ce80ade8e05b6c536f02204bd81c0c49c3122c6c113eff8d3f7f95621bff9ad6c703eb1920442c2067d5f001210214ccc4022b74009d56f3d8fbaa0a09af948b53219a7cf64f0003a03b3f2858c3feffffffe7f9db2228a166e76f39dd1845ebb10a65603acad09c475f28d37ba5106d1654020000006b483045022100bdfb83961200e78623e27d6176d0cb4772e8b04940da4b4ddf6d2756022f4656022073ef1ec44caadfcb6778f298afaa6deb90ce57062e79f079fb4a98598d20f30401210302619b15205cdb4afee76e3b16aed173ed1324302186e8032b76d9201315e767feffffff057d28f0145b3ca6e78dd8bf2af1cb69b462fc52bde6dfb6b796ef479defeaac010000006a473044022076689532d9f334e45646d6e749c55a3aa2ab93449a2bc3c51435170fad3bb04d02201fc0f7934213157e1f4bf73187a7cad5b0e857eea85de31c16ea5d3740515d6901210302619b15205cdb4afee76e3b16aed173ed1324302186e8032b76d9201315e767feffffff0250ea31160000000017a914190a7c14d9154c16447b2b6da69f61acdb9850c987af0d1000000000001976a9149eb0368f5b7dd7666230671e878c9443aaab8ef588ac93bd1400"
    }, 
    {
      "txid": "e163835299f41957779203e0d515aedaa8724e6dd150dc8ed84575ef95369908",
      "hash": "e163835299f41957779203e0d515aedaa8724e6dd150dc8ed84575ef95369908",
      "version": 1,
      "size": 226,
      "vsize": 226,
      "locktime": 0,
      "vin": [
        {
          "txid": "ce05ab0b82694afd1ede47ccc150708b7c257e467288f944d24ba4d610aad6dc",
          "vout": 1,
          "scriptSig": {
            "asm": "3045022100ee830407c45350e07f1d5d995058f2e1e76350ae6da72e6a7689590a7c6e087f02206c2d8ec0bb5c86eb1487df149839b7a502bb1d9d4a1334c6cbc4f3d2a7a75208[ALL] 0341ecff66b1a36fd94919b9a7ef6ae5a7036e6c6b21069e9ad8e76b867d973cbf",
            "hex": "483045022100ee830407c45350e07f1d5d995058f2e1e76350ae6da72e6a7689590a7c6e087f02206c2d8ec0bb5c86eb1487df149839b7a502bb1d9d4a1334c6cbc4f3d2a7a7520801210341ecff66b1a36fd94919b9a7ef6ae5a7036e6c6b21069e9ad8e76b867d973cbf"
          },
          "sequence": 4294967295
        }
      ],
      "vout": [
        {
          "value": 0.05565140,
          "n": 0,
          "scriptPubKey": {
            "asm": "OP_DUP OP_HASH160 b6cfe1119c35c11fcd48f622f99844f6997a452a OP_EQUALVERIFY OP_CHECKSIG",
            "hex": "76a914b6cfe1119c35c11fcd48f622f99844f6997a452a88ac",
            "reqSigs": 1,
            "type": "pubkeyhash",
            "addresses": [
              "LbtaGpmfxFCWKKPqnwWHb7LRSj7G7QPG12"
            ]
          }
        }, 
        {
          "value": 0.00083677,
          "n": 1,
          "scriptPubKey": {
            "asm": "OP_DUP OP_HASH160 1234794bd8abc160d43f1df5d35a4791d76b9627 OP_EQUALVERIFY OP_CHECKSIG",
            "hex": "76a9141234794bd8abc160d43f1df5d35a4791d76b962788ac",
            "reqSigs": 1,
            "type": "pubkeyhash",
            "addresses": [
              "LLtDHcMnuNHf8BESKsSjoqrBFoLBhac6EP"
            ]
          }
        }
      ],
      "hex": "0100000001dcd6aa10d6a44bd244f98872467e257c8b7050c1cc47de1efd4a69820bab05ce010000006b483045022100ee830407c45350e07f1d5d995058f2e1e76350ae6da72e6a7689590a7c6e087f02206c2d8ec0bb5c86eb1487df149839b7a502bb1d9d4a1334c6cbc4f3d2a7a7520801210341ecff66b1a36fd94919b9a7ef6ae5a7036e6c6b21069e9ad8e76b867d973cbfffffffff02d4ea5400000000001976a914b6cfe1119c35c11fcd48f622f99844f6997a452a88acdd460100000000001976a9141234794bd8abc160d43f1df5d35a4791d76b962788ac00000000"
    }, 
    {
      "txid": "ee97af271c2a9bd330aaabe3b26c87860ddc6bf7748bef31eb86a774ea8c6b78",
      "hash": "ee97af271c2a9bd330aaabe3b26c87860ddc6bf7748bef31eb86a774ea8c6b78",
      "version": 1,
      "size": 226,
      "vsize": 226,
      "locktime": 0,
      "vin": [
        {
          "txid": "f307a808a8e0e4546dea0099fc70eddcad833dbbc119931360350452720bad32",
          "vout": 1,
          "scriptSig": {
            "asm": "30450221009468d7856f86d7a06564d33d95ec627eb483f787f04d982dc526e21ea7e5a93f02207bded4e6733e455c34b4714468eb3f1aab48976b15d18500a0fbc53e53fcf968[ALL] 039df6723a0efd3ac3db74be466f79914bb2aa27f4bac33114b58396409be5f5e2",
            "hex": "4830450221009468d7856f86d7a06564d33d95ec627eb483f787f04d982dc526e21ea7e5a93f02207bded4e6733e455c34b4714468eb3f1aab48976b15d18500a0fbc53e53fcf9680121039df6723a0efd3ac3db74be466f79914bb2aa27f4bac33114b58396409be5f5e2"
          },
          "sequence": 4294967295
        }
      ],
      "vout": [
        {
          "value": 0.00058282,
          "n": 0,
          "scriptPubKey": {
            "asm": "OP_DUP OP_HASH160 06319044cfe8e968201c3b50d5efb42cbb2cf8b1 OP_EQUALVERIFY OP_CHECKSIG",
            "hex": "76a91406319044cfe8e968201c3b50d5efb42cbb2cf8b188ac",
            "reqSigs": 1,
            "type": "pubkeyhash",
            "addresses": [
              "LKnhh6k45JahSmHvrVDgDoLgP5fPn6Ju1H"
            ]
          }
        }, 
        {
          "value": 0.01393000,
          "n": 1,
          "scriptPubKey": {
            "asm": "OP_DUP OP_HASH160 bd72bb2bc765bdd39eb62f39cd06de6a2c4b411a OP_EQUALVERIFY OP_CHECKSIG",
            "hex": "76a914bd72bb2bc765bdd39eb62f39cd06de6a2c4b411a88ac",
            "reqSigs": 1,
            "type": "pubkeyhash",
            "addresses": [
              "LcVfR8PAz3KNyimck5nPkmNA1FCrhDHVxg"
            ]
          }
        }
      ],
      "hex": "010000000132ad0b7252043560139319c1bb3d83addced70fc9900ea6d54e4e0a808a807f3010000006b4830450221009468d7856f86d7a06564d33d95ec627eb483f787f04d982dc526e21ea7e5a93f02207bded4e6733e455c34b4714468eb3f1aab48976b15d18500a0fbc53e53fcf9680121039df6723a0efd3ac3db74be466f79914bb2aa27f4bac33114b58396409be5f5e2ffffffff02aae30000000000001976a91406319044cfe8e968201c3b50d5efb42cbb2cf8b188ac68411500000000001976a914bd72bb2bc765bdd39eb62f39cd06de6a2c4b411a88ac00000000"
    }, 
    {
      "txid": "847d020c0a8d432209cb6fc6de431331bbf4f80b124554fc2bca10a12e57567f",
      "hash": "847d020c0a8d432209cb6fc6de431331bbf4f80b124554fc2bca10a12e57567f",
      "version": 1,
      "size": 226,
      "vsize": 226,
      "locktime": 0,
      "vin": [
        {
          "txid": "c14db7a430d749c544b3cfc3e827102ef2424d167af23f69d05b5a7f60aa10e6",
          "vout": 0,
          "scriptSig": {
            "asm": "3045022100b6f9d8a9ba2835acd8370d2e8a590158630ca5a339eb0f90c234ed8576eb911502204901ca5be29bb1fddbfac74a688ad428faee5cd5f6b6ba42fc282cc10a7354b8[ALL] 0255c25a6d5a91ce7d0d9c92f16dcae4b6ebb96e775a003bebfe668c12e0f70067",
            "hex": "483045022100b6f9d8a9ba2835acd8370d2e8a590158630ca5a339eb0f90c234ed8576eb911502204901ca5be29bb1fddbfac74a688ad428faee5cd5f6b6ba42fc282cc10a7354b801210255c25a6d5a91ce7d0d9c92f16dcae4b6ebb96e775a003bebfe668c12e0f70067"
          },
          "sequence": 4294967295
        }
      ],
      "vout": [
        {
          "value": 0.00159380,
          "n": 0,
          "scriptPubKey": {
            "asm": "OP_DUP OP_HASH160 6eb97528167f77d7e11e59e091e5f332f7af33a8 OP_EQUALVERIFY OP_CHECKSIG",
            "hex": "76a9146eb97528167f77d7e11e59e091e5f332f7af33a888ac",
            "reqSigs": 1,
            "type": "pubkeyhash",
            "addresses": [
              "LVKQm8v7V6CVSnbZouugzivFvpGhDyUkca"
            ]
          }
        }, 
        {
          "value": 0.11747481,
          "n": 1,
          "scriptPubKey": {
            "asm": "OP_DUP OP_HASH160 c58fc3c3e0b8a39845ee33fb37ea18d226fe7251 OP_EQUALVERIFY OP_CHECKSIG",
            "hex": "76a914c58fc3c3e0b8a39845ee33fb37ea18d226fe725188ac",
            "reqSigs": 1,
            "type": "pubkeyhash",
            "addresses": [
              "LdEZbx66mtVnzABaRN8N6XQ372ThoQLPKZ"
            ]
          }
        }
      ],
      "hex": "0100000001e610aa607f5a5bd0693ff27a164d42f22e1027e8c3cfb344c549d730a4b74dc1000000006b483045022100b6f9d8a9ba2835acd8370d2e8a590158630ca5a339eb0f90c234ed8576eb911502204901ca5be29bb1fddbfac74a688ad428faee5cd5f6b6ba42fc282cc10a7354b801210255c25a6d5a91ce7d0d9c92f16dcae4b6ebb96e775a003bebfe668c12e0f70067ffffffff02946e0200000000001976a9146eb97528167f77d7e11e59e091e5f332f7af33a888ac9940b300000000001976a914c58fc3c3e0b8a39845ee33fb37ea18d226fe725188ac00000000"
    }
  ],
  "time": 1517258092,
  "mediantime": 1517257198,
  "nonce": 60721133,
  "bits": "1a042eae",
  "difficulty": 4011378.762614286,
  "chainwork": "000000000000000000000000000000000000000000000033d5067dc14f72d92c",
  "previousblockhash": "d80d039a43b51b87a1308f53584b486247daca4cc9c3dd33bed196f9d670959b",
  "nextblockhash": "7e25c8b57ce6606ea6d2e22fea4e490f105a05c94e3f3b51976b8bc4b7a913d3"
}
