{
  "hash": "0606a94d45440ea1252d2d1a84a2d3f719a2118fd0738775b04e954ec9088183",
  "confirmations": 2478,
  "strippedsize": 281,
  "size": 317,
  "weight": 1160,
  "height": 1358517,
  "version": 536870912,
  "versionHex": "20000000",
  "merkleroot": "37f0ce143625e280dff5bd20a4352378835acdc7e85d4fcdba66b38c0f29713c",
  "tx": [
    {
      "txid": "37f0ce143625e280dff5bd20a4352378835acdc7e85d4fcdba66b38c0f29713c",
      "hash": "971fe06cfd47a1c1afd6b605c4c2fb6e584d978b78049eba5767ab1c1ae1818f",
      "version": 1,
      "size": 236,
      "vsize": 209,
      "locktime": 0,
      "vin": [
        {
          "coinbase": "03b5ba14045a6dec4f2cfabe6d6dcc6b6947a6af7c2f9a05dd7cd502e133831195d9be36cd595bf4b36c162077b14000000000000000042f4c502f0858007ba53f000000",
          "sequence": 4294967295
        }
      ],
      "vout": [
        {
          "value": 25.00000000,
          "n": 0,
          "scriptPubKey": {
            "asm": "OP_DUP OP_HASH160 57757ed2ecf2052ff3126c397aca7defb9ca2cec OP_EQUALVERIFY OP_CHECKSIG",
            "hex": "76a91457757ed2ecf2052ff3126c397aca7defb9ca2cec88ac",
            "reqSigs": 1,
            "type": "pubkeyhash",
            "addresses": [
              "LTCPodGk5FwcJaRzH9yKnwicxzFUbxp6tN"
            ]
          }
        }, 
        {
          "value": 0.00000000,
          "n": 1,
          "scriptPubKey": {
            "asm": "OP_RETURN aa21a9ede2f61c3f71d1defd3fa999dfa36953755c690689799962b48bebd836974e8cf9",
            "hex": "6a24aa21a9ede2f61c3f71d1defd3fa999dfa36953755c690689799962b48bebd836974e8cf9",
            "type": "nulldata"
          }
        }
      ],
      "hex": "010000000001010000000000000000000000000000000000000000000000000000000000000000ffffffff4403b5ba14045a6dec4f2cfabe6d6dcc6b6947a6af7c2f9a05dd7cd502e133831195d9be36cd595bf4b36c162077b14000000000000000042f4c502f0858007ba53f000000ffffffff0200f90295000000001976a91457757ed2ecf2052ff3126c397aca7defb9ca2cec88ac0000000000000000266a24aa21a9ede2f61c3f71d1defd3fa999dfa36953755c690689799962b48bebd836974e8cf90120000000000000000000000000000000000000000000000000000000000000000000000000"
    }
  ],
  "time": 1517153359,
  "mediantime": 1517152123,
  "nonce": 3896039832,
  "bits": "1a047f14",
  "difficulty": 3731199.183374282,
  "chainwork": "000000000000000000000000000000000000000000000033297d5c5ef942317c",
  "previousblockhash": "037b7d29d584b51ebebac491e5b4c27bb07886d7c56e83d9c823063186bf6fc5",
  "nextblockhash": "42fadc94b47cfe3475c7dfb21431af614179e9eefc0694fe9c5d0f68dc83637c"
}
