{
  "hash": "0629faef1fcf4310fb380193d059729295a4229b34da8b6c7ca2ea1db0a536d3",
  "confirmations": 1513,
  "strippedsize": 234,
  "size": 234,
  "weight": 936,
  "height": 1359481,
  "version": 536870912,
  "versionHex": "20000000",
  "merkleroot": "d6439c442380164e887173c0e1251d44ce84046e4926059c2ef8d62c96c80d20",
  "tx": [
    {
      "txid": "d6439c442380164e887173c0e1251d44ce84046e4926059c2ef8d62c96c80d20",
      "hash": "d6439c442380164e887173c0e1251d44ce84046e4926059c2ef8d62c96c80d20",
      "version": 1,
      "size": 153,
      "vsize": 153,
      "locktime": 0,
      "vin": [
        {
          "coinbase": "0379be14045a6ffab12cfabe6d6ddb42fc32a4c582c1c60f15a3f357048e1a741627efadf9a1089d4bdb57d1db344000000000000000042f4c502f085c006e1831000000",
          "sequence": 4294967295
        }
      ],
      "vout": [
        {
          "value": 25.00000000,
          "n": 0,
          "scriptPubKey": {
            "asm": "OP_DUP OP_HASH160 57757ed2ecf2052ff3126c397aca7defb9ca2cec OP_EQUALVERIFY OP_CHECKSIG",
            "hex": "76a91457757ed2ecf2052ff3126c397aca7defb9ca2cec88ac",
            "reqSigs": 1,
            "type": "pubkeyhash",
            "addresses": [
              "LTCPodGk5FwcJaRzH9yKnwicxzFUbxp6tN"
            ]
          }
        }
      ],
      "hex": "01000000010000000000000000000000000000000000000000000000000000000000000000ffffffff440379be14045a6ffab12cfabe6d6ddb42fc32a4c582c1c60f15a3f357048e1a741627efadf9a1089d4bdb57d1db344000000000000000042f4c502f085c006e1831000000ffffffff0100f90295000000001976a91457757ed2ecf2052ff3126c397aca7defb9ca2cec88ac00000000"
    }
  ],
  "time": 1517288113,
  "mediantime": 1517287506,
  "nonce": 267370764,
  "bits": "1a042eae",
  "difficulty": 4011378.762614286,
  "chainwork": "0000000000000000000000000000000000000000000000340b8a4e7b0071d0f4",
  "previousblockhash": "531963d8e788d84011bed76ec601fb3ffa5e9ed59d7b190fd81370912240d39e",
  "nextblockhash": "eb5b27fd2ca3ff1791a1d98ef60d8e403c1e9458382957ceda13c5d56f316746"
}
