{
  "hash": "0681770300c285882df49d36c8c2bc8a594aeae79afc79a3e813e90a73f8860d",
  "confirmations": 1963,
  "strippedsize": 1774,
  "size": 1810,
  "weight": 7132,
  "height": 1359031,
  "version": 536870912,
  "versionHex": "20000000",
  "merkleroot": "d264310854361415369a32ca5a9ebee9198c4f2db16f7f9c53c36dd04a7ff5d8",
  "tx": [
    {
      "txid": "dabbd5057e3b0a1fb6d56fca674e1a0ab920e7b112bb258fba5c2a8c5a579615",
      "hash": "ef2bb58f28d5fba7f3de87b51b2a899f873f3f3ffd8c460c0813bfc3474f3b88",
      "version": 1,
      "size": 236,
      "vsize": 209,
      "locktime": 0,
      "vin": [
        {
          "coinbase": "03b7bc14045a6f0c262cfabe6d6d6bb356c409f447326b109544657bc63677b03157851633e94b90123dd935bef74000000000000000042f4c502f08560047c10957692c",
          "sequence": 4294967295
        }
      ],
      "vout": [
        {
          "value": 25.00186989,
          "n": 0,
          "scriptPubKey": {
            "asm": "OP_DUP OP_HASH160 57757ed2ecf2052ff3126c397aca7defb9ca2cec OP_EQUALVERIFY OP_CHECKSIG",
            "hex": "76a91457757ed2ecf2052ff3126c397aca7defb9ca2cec88ac",
            "reqSigs": 1,
            "type": "pubkeyhash",
            "addresses": [
              "LTCPodGk5FwcJaRzH9yKnwicxzFUbxp6tN"
            ]
          }
        }, 
        {
          "value": 0.00000000,
          "n": 1,
          "scriptPubKey": {
            "asm": "OP_RETURN aa21a9edc0f70b24e4f92762d2e881041320e6ccd349c4550abee7518f6f8bac4056c72b",
            "hex": "6a24aa21a9edc0f70b24e4f92762d2e881041320e6ccd349c4550abee7518f6f8bac4056c72b",
            "type": "nulldata"
          }
        }
      ],
      "hex": "010000000001010000000000000000000000000000000000000000000000000000000000000000ffffffff4403b7bc14045a6f0c262cfabe6d6d6bb356c409f447326b109544657bc63677b03157851633e94b90123dd935bef74000000000000000042f4c502f08560047c10957692cffffffff026dd30595000000001976a91457757ed2ecf2052ff3126c397aca7defb9ca2cec88ac0000000000000000266a24aa21a9edc0f70b24e4f92762d2e881041320e6ccd349c4550abee7518f6f8bac4056c72b0120000000000000000000000000000000000000000000000000000000000000000000000000"
    }, 
    {
      "txid": "3d82016c0ae720afffe24e81b778fa9255d673590fdb4d0355c95cb8249ca81d",
      "hash": "3d82016c0ae720afffe24e81b778fa9255d673590fdb4d0355c95cb8249ca81d",
      "version": 1,
      "size": 260,
      "vsize": 260,
      "locktime": 0,
      "vin": [
        {
          "txid": "263c73ab472bc1182c01b5ff0a92074e092fac7541dccb5f9edec3543e6cdfeb",
          "vout": 2,
          "scriptSig": {
            "asm": "3045022100d0ce11887e7bb9f3f81411aa99f0a19c7f4ad854563dff0a3cdb0517aba880e302201dc0348807739ef1a240d20d7ce0624e1a1339ef2514fa7a5922edb44a4d59d3[ALL] 0328c9ae635abf580c261c44815dc1aac309e16ff26250525b7e99951369d2b8c7",
            "hex": "483045022100d0ce11887e7bb9f3f81411aa99f0a19c7f4ad854563dff0a3cdb0517aba880e302201dc0348807739ef1a240d20d7ce0624e1a1339ef2514fa7a5922edb44a4d59d301210328c9ae635abf580c261c44815dc1aac309e16ff26250525b7e99951369d2b8c7"
          },
          "sequence": 4294967295
        }
      ],
      "vout": [
        {
          "value": 4.46655000,
          "n": 0,
          "scriptPubKey": {
            "asm": "OP_DUP OP_HASH160 f777e15b83aa557959ac813698144dd51b402b41 OP_EQUALVERIFY OP_CHECKSIG",
            "hex": "76a914f777e15b83aa557959ac813698144dd51b402b4188ac",
            "reqSigs": 1,
            "type": "pubkeyhash",
            "addresses": [
              "LhnSn2NwQeVrrhWeFQF1LJFdNKhYXHuK6y"
            ]
          }
        }, 
        {
          "value": 25.58802540,
          "n": 1,
          "scriptPubKey": {
            "asm": "OP_DUP OP_HASH160 9d126ff378d11df429c6f6fda8bb1dcd64e70143 OP_EQUALVERIFY OP_CHECKSIG",
            "hex": "76a9149d126ff378d11df429c6f6fda8bb1dcd64e7014388ac",
            "reqSigs": 1,
            "type": "pubkeyhash",
            "addresses": [
              "LZYUSNphcySSoqsVzDJBweT4mBroqb6C7r"
            ]
          }
        }, 
        {
          "value": 143.49598857,
          "n": 2,
          "scriptPubKey": {
            "asm": "OP_DUP OP_HASH160 c6e3836c2f4cd8f9c53e32813ded99ac0ce001f1 OP_EQUALVERIFY OP_CHECKSIG",
            "hex": "76a914c6e3836c2f4cd8f9c53e32813ded99ac0ce001f188ac",
            "reqSigs": 1,
            "type": "pubkeyhash",
            "addresses": [
              "LdMac6qdwFnBCVXN96dvoPjzbcE36gzs64"
            ]
          }
        }
      ],
      "hex": "0100000001ebdf6c3e54c3de9e5fcbdc4175ac2f094e07920affb5012c18c12b47ab733c26020000006b483045022100d0ce11887e7bb9f3f81411aa99f0a19c7f4ad854563dff0a3cdb0517aba880e302201dc0348807739ef1a240d20d7ce0624e1a1339ef2514fa7a5922edb44a4d59d301210328c9ae635abf580c261c44815dc1aac309e16ff26250525b7e99951369d2b8c7ffffffff03186a9f1a000000001976a914f777e15b83aa557959ac813698144dd51b402b4188ac6c3a8498000000001976a9149d126ff378d11df429c6f6fda8bb1dcd64e7014388ac89804d57030000001976a914c6e3836c2f4cd8f9c53e32813ded99ac0ce001f188ac00000000"
    }, 
    {
      "txid": "ca199eeeec076930a85929520d05a9a923e0dbe4e130f494358e1890a346669f",
      "hash": "ca199eeeec076930a85929520d05a9a923e0dbe4e130f494358e1890a346669f",
      "version": 1,
      "size": 226,
      "vsize": 226,
      "locktime": 0,
      "vin": [
        {
          "txid": "65be89af3ab5623c1e5ea7feb4d3235f5a0aedbce328479cd5d07dc9228d9251",
          "vout": 1,
          "scriptSig": {
            "asm": "3045022100d2f0eecfb4d6ecaf1cd5482fc83eb8750f276011ed48d3dd9cbbfce1309bac3f0220033681505d8be85663bfc82935440509c421226129aeb0798f789f7cbfc457f4[ALL] 027e9abee15ff6c08dbb831ae9e119a9533ff4ec51e3a5fb123ed6e304c4e61a03",
            "hex": "483045022100d2f0eecfb4d6ecaf1cd5482fc83eb8750f276011ed48d3dd9cbbfce1309bac3f0220033681505d8be85663bfc82935440509c421226129aeb0798f789f7cbfc457f40121027e9abee15ff6c08dbb831ae9e119a9533ff4ec51e3a5fb123ed6e304c4e61a03"
          },
          "sequence": 4294967295
        }
      ],
      "vout": [
        {
          "value": 0.01741900,
          "n": 0,
          "scriptPubKey": {
            "asm": "OP_DUP OP_HASH160 9664f9276a175f0f0a87cd247753aaf026a62b55 OP_EQUALVERIFY OP_CHECKSIG",
            "hex": "76a9149664f9276a175f0f0a87cd247753aaf026a62b5588ac",
            "reqSigs": 1,
            "type": "pubkeyhash",
            "addresses": [
              "LYwAajSRjsdw71hsaaxVmivwVY1PWguHLV"
            ]
          }
        }, 
        {
          "value": 0.01230000,
          "n": 1,
          "scriptPubKey": {
            "asm": "OP_DUP OP_HASH160 b5e8223943ac45de66b4148142ac1ac6826ddc20 OP_EQUALVERIFY OP_CHECKSIG",
            "hex": "76a914b5e8223943ac45de66b4148142ac1ac6826ddc2088ac",
            "reqSigs": 1,
            "type": "pubkeyhash",
            "addresses": [
              "LbonesA8s3bXr73gbYjSdqinkXgKmCCXNs"
            ]
          }
        }
      ],
      "hex": "010000000151928d22c97dd0d59c4728e3bced0a5a5f23d3b4fea75e1e3c62b53aaf89be65010000006b483045022100d2f0eecfb4d6ecaf1cd5482fc83eb8750f276011ed48d3dd9cbbfce1309bac3f0220033681505d8be85663bfc82935440509c421226129aeb0798f789f7cbfc457f40121027e9abee15ff6c08dbb831ae9e119a9533ff4ec51e3a5fb123ed6e304c4e61a03ffffffff024c941a00000000001976a9149664f9276a175f0f0a87cd247753aaf026a62b5588acb0c41200000000001976a914b5e8223943ac45de66b4148142ac1ac6826ddc2088ac00000000"
    }, 
    {
      "txid": "b38ef451cb62160929075a0ca958b09b362ea20ffc774402196fe9af91d3310c",
      "hash": "b38ef451cb62160929075a0ca958b09b362ea20ffc774402196fe9af91d3310c",
      "version": 1,
      "size": 225,
      "vsize": 225,
      "locktime": 0,
      "vin": [
        {
          "txid": "3859d07b931227da79fabfbf483f45aff121d49e4c00c2af12c5a04d22b218d3",
          "vout": 1,
          "scriptSig": {
            "asm": "3044022036f06f265663492bfe40e6638acf80bd3ff39738a2fe5306e73755ded105e93e02202799c6ddf16521c79a7e24bf664a1529173240908ca11b6cb8de697c36d4e430[ALL] 022554037723bfb8e3e1a9fa2fda5a07b10edf2ce4c24bc7210b24756cc9db7f9b",
            "hex": "473044022036f06f265663492bfe40e6638acf80bd3ff39738a2fe5306e73755ded105e93e02202799c6ddf16521c79a7e24bf664a1529173240908ca11b6cb8de697c36d4e4300121022554037723bfb8e3e1a9fa2fda5a07b10edf2ce4c24bc7210b24756cc9db7f9b"
          },
          "sequence": 4294967295
        }
      ],
      "vout": [
        {
          "value": 0.05804001,
          "n": 0,
          "scriptPubKey": {
            "asm": "OP_DUP OP_HASH160 fbec635c75da623d1b8065dcf8027267ebe559ad OP_EQUALVERIFY OP_CHECKSIG",
            "hex": "76a914fbec635c75da623d1b8065dcf8027267ebe559ad88ac",
            "reqSigs": 1,
            "type": "pubkeyhash",
            "addresses": [
              "LiC13u1thYxTvG1Py5zV4C8831Kx9CWSN6"
            ]
          }
        }, 
        {
          "value": 0.00055889,
          "n": 1,
          "scriptPubKey": {
            "asm": "OP_DUP OP_HASH160 3d5095eccb11318264fa54b6d4b6ee5df8b86a88 OP_EQUALVERIFY OP_CHECKSIG",
            "hex": "76a9143d5095eccb11318264fa54b6d4b6ee5df8b86a8888ac",
            "reqSigs": 1,
            "type": "pubkeyhash",
            "addresses": [
              "LQpA26x71sUCEXcCttHkLQDcj3pgdR6NJs"
            ]
          }
        }
      ],
      "hex": "0100000001d318b2224da0c512afc2004c9ed421f1af453f48bfbffa79da2712937bd05938010000006a473044022036f06f265663492bfe40e6638acf80bd3ff39738a2fe5306e73755ded105e93e02202799c6ddf16521c79a7e24bf664a1529173240908ca11b6cb8de697c36d4e4300121022554037723bfb8e3e1a9fa2fda5a07b10edf2ce4c24bc7210b24756cc9db7f9bffffffff02e18f5800000000001976a914fbec635c75da623d1b8065dcf8027267ebe559ad88ac51da0000000000001976a9143d5095eccb11318264fa54b6d4b6ee5df8b86a8888ac00000000"
    }, 
    {
      "txid": "002416ad2fd3151398d6f223cbec901993a3e03775e463138695183dfcba2ab2",
      "hash": "002416ad2fd3151398d6f223cbec901993a3e03775e463138695183dfcba2ab2",
      "version": 1,
      "size": 782,
      "vsize": 782,
      "locktime": 0,
      "vin": [
        {
          "txid": "003a9a4c79869b066c06838af7767a7878c97feaae4ce77599b34d5db29ffe1b",
          "vout": 5,
          "scriptSig": {
            "asm": "3045022100a4d7b1a978ea2fa6dd985749756bb3611856ad27488b4693eb7621b221dd3e8e02204bcbd71dc34bea917523d438535a52633d63b08c9fbaf7703abf9e6848d92e95[ALL] 02155c6984994b64da936a8c18be3b82f2e8512bb85d65dfc7c11c2a9f02b82add",
            "hex": "483045022100a4d7b1a978ea2fa6dd985749756bb3611856ad27488b4693eb7621b221dd3e8e02204bcbd71dc34bea917523d438535a52633d63b08c9fbaf7703abf9e6848d92e95012102155c6984994b64da936a8c18be3b82f2e8512bb85d65dfc7c11c2a9f02b82add"
          },
          "sequence": 4294967295
        }, 
        {
          "txid": "3c5abfcc11b0688872f9127c129f2c35cbca6bea0473f85a95f9aa3d47001e9b",
          "vout": 9,
          "scriptSig": {
            "asm": "3044022033cf58c4767eaf31cbe9c8a00bbde18176fad6669046f39702726fdcac743a3e022065768a12cabd5cd911bb7db56e3ab520a761549a1211f5ceed6512aea14ceb64[ALL] 02155c6984994b64da936a8c18be3b82f2e8512bb85d65dfc7c11c2a9f02b82add",
            "hex": "473044022033cf58c4767eaf31cbe9c8a00bbde18176fad6669046f39702726fdcac743a3e022065768a12cabd5cd911bb7db56e3ab520a761549a1211f5ceed6512aea14ceb64012102155c6984994b64da936a8c18be3b82f2e8512bb85d65dfc7c11c2a9f02b82add"
          },
          "sequence": 4294967295
        }, 
        {
          "txid": "8f7bc040efb99a294cf393263056556a8debb03657c94ac0b94f089d20d1e145",
          "vout": 7,
          "scriptSig": {
            "asm": "3045022100fb87dbaf882a86041710461887f12dbe88748d7e3c150e691b7f1c044c3544d902202afacf98e5094a2feb0086527a7188646ea1dca8a2d1d5c148b285bb20a9e04f[ALL] 02155c6984994b64da936a8c18be3b82f2e8512bb85d65dfc7c11c2a9f02b82add",
            "hex": "483045022100fb87dbaf882a86041710461887f12dbe88748d7e3c150e691b7f1c044c3544d902202afacf98e5094a2feb0086527a7188646ea1dca8a2d1d5c148b285bb20a9e04f012102155c6984994b64da936a8c18be3b82f2e8512bb85d65dfc7c11c2a9f02b82add"
          },
          "sequence": 4294967295
        }, 
        {
          "txid": "fb1a566b70bb75966290e764961da6465686be709c39d589cc4676d76d631ed7",
          "vout": 11,
          "scriptSig": {
            "asm": "3044022046993c6e11cf66c2f897ccd14f361aeec9e921a182cf7529ada3ccbbf96a793e02207f10a9fef31469fad4992bc501a7e221ef0c06284f5f84f6eabc98b9d037f7be[ALL] 02155c6984994b64da936a8c18be3b82f2e8512bb85d65dfc7c11c2a9f02b82add",
            "hex": "473044022046993c6e11cf66c2f897ccd14f361aeec9e921a182cf7529ada3ccbbf96a793e02207f10a9fef31469fad4992bc501a7e221ef0c06284f5f84f6eabc98b9d037f7be012102155c6984994b64da936a8c18be3b82f2e8512bb85d65dfc7c11c2a9f02b82add"
          },
          "sequence": 4294967295
        }, 
        {
          "txid": "d19070f36965b3d2cd1a1891674e17433c0151321bf7c3d83bcbb6a4dcb47d4a",
          "vout": 17,
          "scriptSig": {
            "asm": "3045022100c1b31336594c0d669396c9e31e80366775bd897248c0823abb95b09dd5282910022004eff4712bda7378ae04cde5388fafc5012667849a806023703ee9b97a62aad3[ALL] 02155c6984994b64da936a8c18be3b82f2e8512bb85d65dfc7c11c2a9f02b82add",
            "hex": "483045022100c1b31336594c0d669396c9e31e80366775bd897248c0823abb95b09dd5282910022004eff4712bda7378ae04cde5388fafc5012667849a806023703ee9b97a62aad3012102155c6984994b64da936a8c18be3b82f2e8512bb85d65dfc7c11c2a9f02b82add"
          },
          "sequence": 4294967295
        }
      ],
      "vout": [
        {
          "value": 0.28628635,
          "n": 0,
          "scriptPubKey": {
            "asm": "OP_DUP OP_HASH160 c0aabd937a6d60fe02c6ca9071c8181886effb7f OP_EQUALVERIFY OP_CHECKSIG",
            "hex": "76a914c0aabd937a6d60fe02c6ca9071c8181886effb7f88ac",
            "reqSigs": 1,
            "type": "pubkeyhash",
            "addresses": [
              "LcngYJcp31RMB4ZBhvQayVBC7g2acVXhWT"
            ]
          }
        }
      ],
      "hex": "01000000051bfe9fb25d4db39975e74caeea7fc978787a76f78a83066c069b86794c9a3a00050000006b483045022100a4d7b1a978ea2fa6dd985749756bb3611856ad27488b4693eb7621b221dd3e8e02204bcbd71dc34bea917523d438535a52633d63b08c9fbaf7703abf9e6848d92e95012102155c6984994b64da936a8c18be3b82f2e8512bb85d65dfc7c11c2a9f02b82addffffffff9b1e00473daaf9955af87304ea6bcacb352c9f127c12f9728868b011ccbf5a3c090000006a473044022033cf58c4767eaf31cbe9c8a00bbde18176fad6669046f39702726fdcac743a3e022065768a12cabd5cd911bb7db56e3ab520a761549a1211f5ceed6512aea14ceb64012102155c6984994b64da936a8c18be3b82f2e8512bb85d65dfc7c11c2a9f02b82addffffffff45e1d1209d084fb9c04ac95736b0eb8d6a5556302693f34c299ab9ef40c07b8f070000006b483045022100fb87dbaf882a86041710461887f12dbe88748d7e3c150e691b7f1c044c3544d902202afacf98e5094a2feb0086527a7188646ea1dca8a2d1d5c148b285bb20a9e04f012102155c6984994b64da936a8c18be3b82f2e8512bb85d65dfc7c11c2a9f02b82addffffffffd71e636dd77646cc89d5399c70be865646a61d9664e790629675bb706b561afb0b0000006a473044022046993c6e11cf66c2f897ccd14f361aeec9e921a182cf7529ada3ccbbf96a793e02207f10a9fef31469fad4992bc501a7e221ef0c06284f5f84f6eabc98b9d037f7be012102155c6984994b64da936a8c18be3b82f2e8512bb85d65dfc7c11c2a9f02b82addffffffff4a7db4dca4b6cb3bd8c3f71b3251013c43174e6791181acdd2b36569f37090d1110000006b483045022100c1b31336594c0d669396c9e31e80366775bd897248c0823abb95b09dd5282910022004eff4712bda7378ae04cde5388fafc5012667849a806023703ee9b97a62aad3012102155c6984994b64da936a8c18be3b82f2e8512bb85d65dfc7c11c2a9f02b82addffffffff019bd6b401000000001976a914c0aabd937a6d60fe02c6ca9071c8181886effb7f88ac00000000"
    }
  ],
  "time": 1517227046,
  "mediantime": 1517226342,
  "nonce": 284358351,
  "bits": "1a042eae",
  "difficulty": 4011378.762614286,
  "chainwork": "0000000000000000000000000000000000000000000000339ff1ef2773f3da70",
  "previousblockhash": "2e6903341a1927a994180d86b306c90a695a2c03ab47108db33bb97f47a2f341",
  "nextblockhash": "770533180fb81a27a13d6e7e1f57a5bd1a6351dea545eb7b098e43d17d356d2c"
}
