{
  "hash": "06d7475184073708642cc396d26a239cb9fa810bcf29af5e6d8d489ee6a3a2b3",
  "confirmations": 3425,
  "strippedsize": 234,
  "size": 234,
  "weight": 936,
  "height": 1357570,
  "version": 536870912,
  "versionHex": "20000000",
  "merkleroot": "4adcd18a19ea816a570a63b6b9e66846bbc3d191f830d5ace8a3e7c73e8d0e78",
  "tx": [
    {
      "txid": "4adcd18a19ea816a570a63b6b9e66846bbc3d191f830d5ace8a3e7c73e8d0e78",
      "hash": "4adcd18a19ea816a570a63b6b9e66846bbc3d191f830d5ace8a3e7c73e8d0e78",
      "version": 1,
      "size": 153,
      "vsize": 153,
      "locktime": 0,
      "vin": [
        {
          "coinbase": "0302b714045a6be2672cfabe6d6ddaa92f9192f9256f0d637050d35d6d37472ce8e30963e4310b2765443aecf6b14000000000000000042f4c502f0858005f7315000000",
          "sequence": 4294967295
        }
      ],
      "vout": [
        {
          "value": 25.00000000,
          "n": 0,
          "scriptPubKey": {
            "asm": "OP_DUP OP_HASH160 57757ed2ecf2052ff3126c397aca7defb9ca2cec OP_EQUALVERIFY OP_CHECKSIG",
            "hex": "76a91457757ed2ecf2052ff3126c397aca7defb9ca2cec88ac",
            "reqSigs": 1,
            "type": "pubkeyhash",
            "addresses": [
              "LTCPodGk5FwcJaRzH9yKnwicxzFUbxp6tN"
            ]
          }
        }
      ],
      "hex": "01000000010000000000000000000000000000000000000000000000000000000000000000ffffffff440302b714045a6be2672cfabe6d6ddaa92f9192f9256f0d637050d35d6d37472ce8e30963e4310b2765443aecf6b14000000000000000042f4c502f0858005f7315000000ffffffff0100f90295000000001976a91457757ed2ecf2052ff3126c397aca7defb9ca2cec88ac00000000"
    }
  ],
  "time": 1517019751,
  "mediantime": 1517019332,
  "nonce": 2470824876,
  "bits": "1a047f14",
  "difficulty": 3731199.183374282,
  "chainwork": "00000000000000000000000000000000000000000000003256e06fc764df5d4e",
  "previousblockhash": "574e72b7dba6b543577221d0dd2ca5f1e88d3b2b567cf98c1117e75326fd6547",
  "nextblockhash": "9d675e11483540fa26f9f98a4dcc5e216d7ddec5e7d7b312ad0f3fe7b62775d2"
}
