{
  "hash": "075bd9a1dcb2e5254160a8e3311503bcc67678d7df28063dea0f468c8cd287e3",
  "confirmations": 285,
  "strippedsize": 234,
  "size": 234,
  "weight": 936,
  "height": 1360709,
  "version": 536870912,
  "versionHex": "20000000",
  "merkleroot": "9c28cdca528bd710dc0a4be4499a7dac4d5e2944259def9a59599fb8b318fb1c",
  "tx": [
    {
      "txid": "9c28cdca528bd710dc0a4be4499a7dac4d5e2944259def9a59599fb8b318fb1c",
      "hash": "9c28cdca528bd710dc0a4be4499a7dac4d5e2944259def9a59599fb8b318fb1c",
      "version": 1,
      "size": 153,
      "vsize": 153,
      "locktime": 0,
      "vin": [
        {
          "coinbase": "0345c314045a72bf9e2cfabe6d6dd2bd51e7a7abd96277319bea3bfb417a76e221db00fea77da56cf4baa05d45284000000000000000042f4c502f082200814c26000000",
          "sequence": 4294967295
        }
      ],
      "vout": [
        {
          "value": 25.00000000,
          "n": 0,
          "scriptPubKey": {
            "asm": "OP_DUP OP_HASH160 57757ed2ecf2052ff3126c397aca7defb9ca2cec OP_EQUALVERIFY OP_CHECKSIG",
            "hex": "76a91457757ed2ecf2052ff3126c397aca7defb9ca2cec88ac",
            "reqSigs": 1,
            "type": "pubkeyhash",
            "addresses": [
              "LTCPodGk5FwcJaRzH9yKnwicxzFUbxp6tN"
            ]
          }
        }
      ],
      "hex": "01000000010000000000000000000000000000000000000000000000000000000000000000ffffffff440345c314045a72bf9e2cfabe6d6dd2bd51e7a7abd96277319bea3bfb417a76e221db00fea77da56cf4baa05d45284000000000000000042f4c502f082200814c26000000ffffffff0100f90295000000001976a91457757ed2ecf2052ff3126c397aca7defb9ca2cec88ac00000000"
    }
  ],
  "time": 1517469598,
  "mediantime": 1517468936,
  "nonce": 1717935255,
  "bits": "1a042eae",
  "difficulty": 4011378.762614286,
  "chainwork": "0000000000000000000000000000000000000000000000353127d6990616ec8c",
  "previousblockhash": "40226793e3688cf3e78fdbf32d6c540b6efbc13b13cc8213af691c6f1f25dec8",
  "nextblockhash": "e0828901cad017637dcb51878b49fc3b4fdcf7baf8f5a3b9599b56c65ca5fd77"
}
