{
  "hash": "077362b212a9182642599a2e76e6f76fa3498ad3d6c4eb38817732efe6f2d155",
  "confirmations": 1283,
  "strippedsize": 234,
  "size": 234,
  "weight": 936,
  "height": 1359711,
  "version": 536870912,
  "versionHex": "20000000",
  "merkleroot": "0ae10e980dced811cbc6cdf0c6a9c01fd6eb4b2f12f1d810144f270f94b20991",
  "tx": [
    {
      "txid": "0ae10e980dced811cbc6cdf0c6a9c01fd6eb4b2f12f1d810144f270f94b20991",
      "hash": "0ae10e980dced811cbc6cdf0c6a9c01fd6eb4b2f12f1d810144f270f94b20991",
      "version": 1,
      "size": 153,
      "vsize": 153,
      "locktime": 0,
      "vin": [
        {
          "coinbase": "035fbf14045a707de72cfabe6d6d5b84abbeb349ba3aa9da5131a5ab70a0814479a87fb36fd9d2252fa56099da134000000000000000042f4c502f08570041966b010000",
          "sequence": 4294967295
        }
      ],
      "vout": [
        {
          "value": 25.00000000,
          "n": 0,
          "scriptPubKey": {
            "asm": "OP_DUP OP_HASH160 57757ed2ecf2052ff3126c397aca7defb9ca2cec OP_EQUALVERIFY OP_CHECKSIG",
            "hex": "76a91457757ed2ecf2052ff3126c397aca7defb9ca2cec88ac",
            "reqSigs": 1,
            "type": "pubkeyhash",
            "addresses": [
              "LTCPodGk5FwcJaRzH9yKnwicxzFUbxp6tN"
            ]
          }
        }
      ],
      "hex": "01000000010000000000000000000000000000000000000000000000000000000000000000ffffffff44035fbf14045a707de72cfabe6d6d5b84abbeb349ba3aa9da5131a5ab70a0814479a87fb36fd9d2252fa56099da134000000000000000042f4c502f08570041966b010000ffffffff0100f90295000000001976a91457757ed2ecf2052ff3126c397aca7defb9ca2cec88ac00000000"
    }
  ],
  "time": 1517321703,
  "mediantime": 1517320793,
  "nonce": 74040705,
  "bits": "1a042eae",
  "difficulty": 4011378.762614286,
  "chainwork": "00000000000000000000000000000000000000000000003442888a94a3461bc0",
  "previousblockhash": "79b8d3d6a013e158475d9bc4e1145a3c2117156709e69c6919f053a1c3138a7c",
  "nextblockhash": "f3f4f07d1f1ed4c8876bd2b0001549471185d8ab0b711debebfd669c8cc7aeb5"
}
