{
  "hash": "08077e70d3dff779b9324506a7b31f330a63584b81118058fc3517dbc84796e7",
  "confirmations": 231,
  "strippedsize": 4010,
  "size": 4046,
  "weight": 16076,
  "height": 1360763,
  "version": 536870912,
  "versionHex": "20000000",
  "merkleroot": "30617756f1a1af40227526a9f1d05c6be45b6537540afc00c9eb5062656cdc0a",
  "tx": [
    {
      "txid": "ade53ef4ac2af3a63d719bc88da4e3beefbb8a4781353d286456b6e4e00abd29",
      "hash": "fc622e51c1a0ae034d5b5e522494c01a54a4ad39baf4b4513df630d5a98e3de3",
      "version": 1,
      "size": 244,
      "vsize": 217,
      "locktime": 0,
      "vin": [
        {
          "coinbase": "037bc3140472e3725a08031e3ece26000000fabe6d6d9b902a8568872f3cec3540de1fb0e8653a2312c53d5efee8a89fac50c91e70cc40000000000000000d2f6e6f64655374726174756d2f",
          "sequence": 0
        }
      ],
      "vout": [
        {
          "value": 25.00480000,
          "n": 0,
          "scriptPubKey": {
            "asm": "OP_DUP OP_HASH160 0c617fdb2ea42aed30a509595ee21ba3f6688db0 OP_EQUALVERIFY OP_CHECKSIG",
            "hex": "76a9140c617fdb2ea42aed30a509595ee21ba3f6688db088ac",
            "reqSigs": 1,
            "type": "pubkeyhash",
            "addresses": [
              "LLMRAtr3qBje2ySEa3CnZ55LA4TQMWnRY3"
            ]
          }
        }, 
        {
          "value": 0.00000000,
          "n": 1,
          "scriptPubKey": {
            "asm": "OP_RETURN aa21a9ed91393e0754e5f2515f249d3aa06af25e812af27c876a21d92d4bdbbe8cdd4d0f",
            "hex": "6a24aa21a9ed91393e0754e5f2515f249d3aa06af25e812af27c876a21d92d4bdbbe8cdd4d0f",
            "type": "nulldata"
          }
        }
      ],
      "hex": "010000000001010000000000000000000000000000000000000000000000000000000000000000ffffffff4c037bc3140472e3725a08031e3ece26000000fabe6d6d9b902a8568872f3cec3540de1fb0e8653a2312c53d5efee8a89fac50c91e70cc40000000000000000d2f6e6f64655374726174756d2f0000000002004c0a95000000001976a9140c617fdb2ea42aed30a509595ee21ba3f6688db088ac0000000000000000266a24aa21a9ed91393e0754e5f2515f249d3aa06af25e812af27c876a21d92d4bdbbe8cdd4d0f0120000000000000000000000000000000000000000000000000000000000000000000000000"
    }, 
    {
      "txid": "8d3320b96d88f7bb9cb80febdeed9c18e539f575011edebbf094a14242793e92",
      "hash": "8d3320b96d88f7bb9cb80febdeed9c18e539f575011edebbf094a14242793e92",
      "version": 1,
      "size": 225,
      "vsize": 225,
      "locktime": 0,
      "vin": [
        {
          "txid": "6aa44529eb2c537a67a5ef0ad2835d97aded501634162520ff6f66a519d398a9",
          "vout": 1,
          "scriptSig": {
            "asm": "30440220786019fc649f7cfe1fc54ce7f5cdf43ee139412f9600fff7f81476c4050d65c702201d993e2c9391bac2d33dd89dbd075377c92f4dfb75d84227e3b60d6e96cb185e[ALL] 03469ae95e9927c5676f97a846deabfe0241a3021eb20c4c50b1856775ddb6cc29",
            "hex": "4730440220786019fc649f7cfe1fc54ce7f5cdf43ee139412f9600fff7f81476c4050d65c702201d993e2c9391bac2d33dd89dbd075377c92f4dfb75d84227e3b60d6e96cb185e012103469ae95e9927c5676f97a846deabfe0241a3021eb20c4c50b1856775ddb6cc29"
          },
          "sequence": 4294967295
        }
      ],
      "vout": [
        {
          "value": 55.00000000,
          "n": 0,
          "scriptPubKey": {
            "asm": "OP_DUP OP_HASH160 abada06710dcdae18a3f339487684abf98db20bf OP_EQUALVERIFY OP_CHECKSIG",
            "hex": "76a914abada06710dcdae18a3f339487684abf98db20bf88ac",
            "reqSigs": 1,
            "type": "pubkeyhash",
            "addresses": [
              "LashooTRiwgP1v5iRiC5JN3L5JpB1gBY7p"
            ]
          }
        }, 
        {
          "value": 334.86558510,
          "n": 1,
          "scriptPubKey": {
            "asm": "OP_DUP OP_HASH160 58eec963e8d4de5e61ab80dcefd3d9b5155d723b OP_EQUALVERIFY OP_CHECKSIG",
            "hex": "76a91458eec963e8d4de5e61ab80dcefd3d9b5155d723b88ac",
            "reqSigs": 1,
            "type": "pubkeyhash",
            "addresses": [
              "LTLBnHQ44ghvSJc25v8JoyFzshQQQpKWNA"
            ]
          }
        }
      ],
      "hex": "0100000001a998d319a5666fff202516341650edad975d83d20aefa5677a532ceb2945a46a010000006a4730440220786019fc649f7cfe1fc54ce7f5cdf43ee139412f9600fff7f81476c4050d65c702201d993e2c9391bac2d33dd89dbd075377c92f4dfb75d84227e3b60d6e96cb185e012103469ae95e9927c5676f97a846deabfe0241a3021eb20c4c50b1856775ddb6cc29ffffffff020057d347010000001976a914abada06710dcdae18a3f339487684abf98db20bf88ac2e55f4cb070000001976a91458eec963e8d4de5e61ab80dcefd3d9b5155d723b88ac00000000"
    }, 
    {
      "txid": "40e9b6d471b02a1d2b80b4330f81fdbd51b091546abde5aab33329fe712e213c",
      "hash": "40e9b6d471b02a1d2b80b4330f81fdbd51b091546abde5aab33329fe712e213c",
      "version": 1,
      "size": 702,
      "vsize": 702,
      "locktime": 0,
      "vin": [
        {
          "txid": "b9a211ee2f9db43a00e13b559b185e320eb3385bb14bd0c448d1a89b1c325438",
          "vout": 2,
          "scriptSig": {
            "asm": "3045022100d7dbd0e208577f0a26f07320d3ae4f5fbf4f0c420681f9c8c3f37f02283b25df02201bdc6ea1b07f1d474b287f947b1381520773bfd6a1b4cc257f094b7476bac8d0[ALL] 025d025e9c5481861f2ebeb2917212f3b2dff79b076fea26af60e68f12556c5eef",
            "hex": "483045022100d7dbd0e208577f0a26f07320d3ae4f5fbf4f0c420681f9c8c3f37f02283b25df02201bdc6ea1b07f1d474b287f947b1381520773bfd6a1b4cc257f094b7476bac8d00121025d025e9c5481861f2ebeb2917212f3b2dff79b076fea26af60e68f12556c5eef"
          },
          "sequence": 4294967295
        }, 
        {
          "txid": "e68690683d83782be3adee31141fed67c3a4bab503a803244601861196c12a80",
          "vout": 0,
          "scriptSig": {
            "asm": "304402204e04c21f46b38d6f25c6bf61040b4dd04cb413f2e9cf6cdef6336e1927ce9656022043478f350760e74508c9ea7ef0b6c0bbec8e15ade9a8fe06df1eeaee54104655[ALL] 026ed673edfc4bbd44f34ba79bdea31b4a1a34df9997d910115b361b499bc5849b",
            "hex": "47304402204e04c21f46b38d6f25c6bf61040b4dd04cb413f2e9cf6cdef6336e1927ce9656022043478f350760e74508c9ea7ef0b6c0bbec8e15ade9a8fe06df1eeaee541046550121026ed673edfc4bbd44f34ba79bdea31b4a1a34df9997d910115b361b499bc5849b"
          },
          "sequence": 4294967295
        }, 
        {
          "txid": "548c50115b98b935b825ce8cf4bc634db29977ea1a38f79dbdb4fcf7914b4265",
          "vout": 0,
          "scriptSig": {
            "asm": "3044022014a2ceb1c66ea8470a8e9c7fe965d20d028ae5d956e5b2cde3abe25a7b246e7802207a1a0775c3d88c44d442c145ed65b1c0bf920875c3b65b066c07c1b0cfbafc94[ALL] 03bc262ad13428ad8229718cb8a1bde2d33367d997b8fe79cdae7344b966ff26d8",
            "hex": "473044022014a2ceb1c66ea8470a8e9c7fe965d20d028ae5d956e5b2cde3abe25a7b246e7802207a1a0775c3d88c44d442c145ed65b1c0bf920875c3b65b066c07c1b0cfbafc94012103bc262ad13428ad8229718cb8a1bde2d33367d997b8fe79cdae7344b966ff26d8"
          },
          "sequence": 4294967295
        }, 
        {
          "txid": "db51383cdca2d6e4470172c97df687e07450955d664eac9eadc696fcf91de209",
          "vout": 3,
          "scriptSig": {
            "asm": "3045022100afaa036e019d9e1ad385ac1b1d6f943c81243165aff7057f211456e23c51d36402202e949efce997ab6eb75ff49c398ec45d8f6e510ecfee72b459fce4584f3ea5c5[ALL] 0328c9ae635abf580c261c44815dc1aac309e16ff26250525b7e99951369d2b8c7",
            "hex": "483045022100afaa036e019d9e1ad385ac1b1d6f943c81243165aff7057f211456e23c51d36402202e949efce997ab6eb75ff49c398ec45d8f6e510ecfee72b459fce4584f3ea5c501210328c9ae635abf580c261c44815dc1aac309e16ff26250525b7e99951369d2b8c7"
          },
          "sequence": 4294967295
        }
      ],
      "vout": [
        {
          "value": 0.75843833,
          "n": 0,
          "scriptPubKey": {
            "asm": "OP_DUP OP_HASH160 360698baac43aeb6a82cae782c22c38b7533c6bd OP_EQUALVERIFY OP_CHECKSIG",
            "hex": "76a914360698baac43aeb6a82cae782c22c38b7533c6bd88ac",
            "reqSigs": 1,
            "type": "pubkeyhash",
            "addresses": [
              "LQ9ceuphd5yybR84M2mrtAJZPXNWvkzKSS"
            ]
          }
        }, 
        {
          "value": 3.36444174,
          "n": 1,
          "scriptPubKey": {
            "asm": "OP_DUP OP_HASH160 5f7a8ed890e7bb8e4e1011456b858eabbad2334d OP_EQUALVERIFY OP_CHECKSIG",
            "hex": "76a9145f7a8ed890e7bb8e4e1011456b858eabbad2334d88ac",
            "reqSigs": 1,
            "type": "pubkeyhash",
            "addresses": [
              "LTvoGv3v1mXes1iLEfHCk6KWaZd8FMMmdh"
            ]
          }
        }, 
        {
          "value": 414.35216520,
          "n": 2,
          "scriptPubKey": {
            "asm": "OP_DUP OP_HASH160 c6e3836c2f4cd8f9c53e32813ded99ac0ce001f1 OP_EQUALVERIFY OP_CHECKSIG",
            "hex": "76a914c6e3836c2f4cd8f9c53e32813ded99ac0ce001f188ac",
            "reqSigs": 1,
            "type": "pubkeyhash",
            "addresses": [
              "LdMac6qdwFnBCVXN96dvoPjzbcE36gzs64"
            ]
          }
        }
      ],
      "hex": "01000000043854321c9ba8d148c4d04bb15b38b30e325e189b553be1003ab49d2fee11a2b9020000006b483045022100d7dbd0e208577f0a26f07320d3ae4f5fbf4f0c420681f9c8c3f37f02283b25df02201bdc6ea1b07f1d474b287f947b1381520773bfd6a1b4cc257f094b7476bac8d00121025d025e9c5481861f2ebeb2917212f3b2dff79b076fea26af60e68f12556c5eefffffffff802ac196118601462403a803b5baa4c367ed1f1431eeade32b78833d689086e6000000006a47304402204e04c21f46b38d6f25c6bf61040b4dd04cb413f2e9cf6cdef6336e1927ce9656022043478f350760e74508c9ea7ef0b6c0bbec8e15ade9a8fe06df1eeaee541046550121026ed673edfc4bbd44f34ba79bdea31b4a1a34df9997d910115b361b499bc5849bffffffff65424b91f7fcb4bd9df7381aea7799b24d63bcf48cce25b835b9985b11508c54000000006a473044022014a2ceb1c66ea8470a8e9c7fe965d20d028ae5d956e5b2cde3abe25a7b246e7802207a1a0775c3d88c44d442c145ed65b1c0bf920875c3b65b066c07c1b0cfbafc94012103bc262ad13428ad8229718cb8a1bde2d33367d997b8fe79cdae7344b966ff26d8ffffffff09e21df9fc96c6ad9eac4e665d955074e087f67dc9720147e4d6a2dc3c3851db030000006b483045022100afaa036e019d9e1ad385ac1b1d6f943c81243165aff7057f211456e23c51d36402202e949efce997ab6eb75ff49c398ec45d8f6e510ecfee72b459fce4584f3ea5c501210328c9ae635abf580c261c44815dc1aac309e16ff26250525b7e99951369d2b8c7ffffffff03f9488504000000001976a914360698baac43aeb6a82cae782c22c38b7533c6bd88ac0ebb0d14000000001976a9145f7a8ed890e7bb8e4e1011456b858eabbad2334d88ac883abba5090000001976a914c6e3836c2f4cd8f9c53e32813ded99ac0ce001f188ac00000000"
    }, 
    {
      "txid": "84c16c6ba844be7cacd1e675d38e8d7c9af0f64b7e922ffc56f82b237c690b72",
      "hash": "84c16c6ba844be7cacd1e675d38e8d7c9af0f64b7e922ffc56f82b237c690b72",
      "version": 1,
      "size": 223,
      "vsize": 223,
      "locktime": 0,
      "vin": [
        {
          "txid": "e68690683d83782be3adee31141fed67c3a4bab503a803244601861196c12a80",
          "vout": 1,
          "scriptSig": {
            "asm": "304402204dffdd49218fbb7439f47c6c7624f91940ad20a4003a2136523d0f04815fa1a702202ae8170b175e8e53311982624c6d06a50a664268b1bc7c867ad9a6b6887ab7d8[ALL] 020a240112f1d006b6230d2665f72934a965e050948217ebecf6e17ac4b1800831",
            "hex": "47304402204dffdd49218fbb7439f47c6c7624f91940ad20a4003a2136523d0f04815fa1a702202ae8170b175e8e53311982624c6d06a50a664268b1bc7c867ad9a6b6887ab7d80121020a240112f1d006b6230d2665f72934a965e050948217ebecf6e17ac4b1800831"
          },
          "sequence": 4294967295
        }
      ],
      "vout": [
        {
          "value": 6.02432091,
          "n": 0,
          "scriptPubKey": {
            "asm": "OP_DUP OP_HASH160 786ebe5088f2b83aee05e9a7643b8a7281a243f9 OP_EQUALVERIFY OP_CHECKSIG",
            "hex": "76a914786ebe5088f2b83aee05e9a7643b8a7281a243f988ac",
            "reqSigs": 1,
            "type": "pubkeyhash",
            "addresses": [
              "LWCk1pXAS1uCntUj15sHToTkYCSEjexQzA"
            ]
          }
        }, 
        {
          "value": 3.25899000,
          "n": 1,
          "scriptPubKey": {
            "asm": "OP_HASH160 7d75bf6a26eee1c91f63c7acf8aa89b7b087432c OP_EQUAL",
            "hex": "a9147d75bf6a26eee1c91f63c7acf8aa89b7b087432c87",
            "reqSigs": 1,
            "type": "scripthash",
            "addresses": [
              "MKLXkfSSYTV77qGKSu1NfP6h8ZvVpheiCh"
            ]
          }
        }
      ],
      "hex": "0100000001802ac196118601462403a803b5baa4c367ed1f1431eeade32b78833d689086e6010000006a47304402204dffdd49218fbb7439f47c6c7624f91940ad20a4003a2136523d0f04815fa1a702202ae8170b175e8e53311982624c6d06a50a664268b1bc7c867ad9a6b6887ab7d80121020a240112f1d006b6230d2665f72934a965e050948217ebecf6e17ac4b1800831ffffffff025b62e823000000001976a914786ebe5088f2b83aee05e9a7643b8a7281a243f988acf8d26c130000000017a9147d75bf6a26eee1c91f63c7acf8aa89b7b087432c8700000000"
    }, 
    {
      "txid": "ea6a19bd18cebc877e23d803205ea2133ab357fc9e4c9095066f290d832db62c",
      "hash": "ea6a19bd18cebc877e23d803205ea2133ab357fc9e4c9095066f290d832db62c",
      "version": 1,
      "size": 225,
      "vsize": 225,
      "locktime": 0,
      "vin": [
        {
          "txid": "d2a56f7f3b1bf44a71d90eb475f7e70c129c08eaeae2d374e35877861d0e5ee0",
          "vout": 1699,
          "scriptSig": {
            "asm": "304402202baaaad782e3c0b45cf295461a1e091b6fdd8d052621c2f89b6dbc7f660043b602200fededbd0347878f08a334ebed3603b64658d8cb5fd621b287354a24d5d9ee3f[ALL] 03b7061bb5afc05d06d061358e6498ed29ee650c1e8bc850746f2b74e5eb850627",
            "hex": "47304402202baaaad782e3c0b45cf295461a1e091b6fdd8d052621c2f89b6dbc7f660043b602200fededbd0347878f08a334ebed3603b64658d8cb5fd621b287354a24d5d9ee3f012103b7061bb5afc05d06d061358e6498ed29ee650c1e8bc850746f2b74e5eb850627"
          },
          "sequence": 4294967295
        }
      ],
      "vout": [
        {
          "value": 0.05860000,
          "n": 0,
          "scriptPubKey": {
            "asm": "OP_DUP OP_HASH160 f05088ab52776b95c0214745cfe31c3a379d1c31 OP_EQUALVERIFY OP_CHECKSIG",
            "hex": "76a914f05088ab52776b95c0214745cfe31c3a379d1c3188ac",
            "reqSigs": 1,
            "type": "pubkeyhash",
            "addresses": [
              "Lh8cuqs6MaxRJrV2gASjgLk3Shmc7SG3Nc"
            ]
          }
        }, 
        {
          "value": 0.00054793,
          "n": 1,
          "scriptPubKey": {
            "asm": "OP_DUP OP_HASH160 72c5565215a1bc14f203c2544ab1da2deb80c1db OP_EQUALVERIFY OP_CHECKSIG",
            "hex": "76a91472c5565215a1bc14f203c2544ab1da2deb80c1db88ac",
            "reqSigs": 1,
            "type": "pubkeyhash",
            "addresses": [
              "LVgohJw9fqJwj5DzQACvdC546g4rBa7PZH"
            ]
          }
        }
      ],
      "hex": "0100000001e05e0e1d867758e374d3e2eaea089c120ce7f775b40ed9714af41b3b7f6fa5d2a30600006a47304402202baaaad782e3c0b45cf295461a1e091b6fdd8d052621c2f89b6dbc7f660043b602200fededbd0347878f08a334ebed3603b64658d8cb5fd621b287354a24d5d9ee3f012103b7061bb5afc05d06d061358e6498ed29ee650c1e8bc850746f2b74e5eb850627ffffffff02a06a5900000000001976a914f05088ab52776b95c0214745cfe31c3a379d1c3188ac09d60000000000001976a91472c5565215a1bc14f203c2544ab1da2deb80c1db88ac00000000"
    }, 
    {
      "txid": "a687a9855c00bc91df8ceefd5906f69a027e9c06c73953f222d68d138b80d97c",
      "hash": "a687a9855c00bc91df8ceefd5906f69a027e9c06c73953f222d68d138b80d97c",
      "version": 1,
      "size": 225,
      "vsize": 225,
      "locktime": 0,
      "vin": [
        {
          "txid": "5e87a309fd9effa0ef5f571d619b1f892e874369404acce1c197f19fb6414541",
          "vout": 1,
          "scriptSig": {
            "asm": "304402205f915fe1f83bf25e63cf4334a36b80d89c7acb03e86fd27aa8cc050b786f404d02200f1f33f9537b19cd878c777912dc9c055b04e4b32077479ce160070632dd28cc[ALL] 031aeb016fa4216f6b127685f9b0f489c4a2a57548c60bb30940c9b5caad4e4b3e",
            "hex": "47304402205f915fe1f83bf25e63cf4334a36b80d89c7acb03e86fd27aa8cc050b786f404d02200f1f33f9537b19cd878c777912dc9c055b04e4b32077479ce160070632dd28cc0121031aeb016fa4216f6b127685f9b0f489c4a2a57548c60bb30940c9b5caad4e4b3e"
          },
          "sequence": 4294967295
        }
      ],
      "vout": [
        {
          "value": 3.67412144,
          "n": 0,
          "scriptPubKey": {
            "asm": "OP_DUP OP_HASH160 a814227fff4ca9cb044fc46621de4be01a53a0a9 OP_EQUALVERIFY OP_CHECKSIG",
            "hex": "76a914a814227fff4ca9cb044fc46621de4be01a53a0a988ac",
            "reqSigs": 1,
            "type": "pubkeyhash",
            "addresses": [
              "LaYfuRowJXsCgwgLaz9y1j2hCS5neXHFVi"
            ]
          }
        }, 
        {
          "value": 2.28288126,
          "n": 1,
          "scriptPubKey": {
            "asm": "OP_DUP OP_HASH160 d5259bb78c8517387731dc7626fc7f7085d3e351 OP_EQUALVERIFY OP_CHECKSIG",
            "hex": "76a914d5259bb78c8517387731dc7626fc7f7085d3e35188ac",
            "reqSigs": 1,
            "type": "pubkeyhash",
            "addresses": [
              "LeeyF99USQX5fMMuAFGpt5QVyDkC9pB1V8"
            ]
          }
        }
      ],
      "hex": "0100000001414541b69ff197c1e1cc4a406943872e891f9b611d575fefa0ff9efd09a3875e010000006a47304402205f915fe1f83bf25e63cf4334a36b80d89c7acb03e86fd27aa8cc050b786f404d02200f1f33f9537b19cd878c777912dc9c055b04e4b32077479ce160070632dd28cc0121031aeb016fa4216f6b127685f9b0f489c4a2a57548c60bb30940c9b5caad4e4b3effffffff02b043e615000000001976a914a814227fff4ca9cb044fc46621de4be01a53a0a988ac7e669b0d000000001976a914d5259bb78c8517387731dc7626fc7f7085d3e35188ac00000000"
    }, 
    {
      "txid": "9b8ce08df0a244ffd07ad04959f4558e239d46ae5f36a5016067e3aebbf977b4",
      "hash": "9b8ce08df0a244ffd07ad04959f4558e239d46ae5f36a5016067e3aebbf977b4",
      "version": 1,
      "size": 225,
      "vsize": 225,
      "locktime": 0,
      "vin": [
        {
          "txid": "00bcd72967ceff987ef7777ca781bcd64a3ed9a86acfbbf8956ea1a86dd2602c",
          "vout": 1,
          "scriptSig": {
            "asm": "3044022037b8af3800b1d99eddcaaa2e8f923dfeb406c8a42370c9d1fbe6826a54e87c25022034e6b538f0630cba96d68666801dbf59db43bf2ee8fb886d3cea1cf1e1df9474[ALL] 02c2ccacf988f54599c706607ae5df06a7c84c924b82b0a66e0bf1d92ba1b5b1b2",
            "hex": "473044022037b8af3800b1d99eddcaaa2e8f923dfeb406c8a42370c9d1fbe6826a54e87c25022034e6b538f0630cba96d68666801dbf59db43bf2ee8fb886d3cea1cf1e1df9474012102c2ccacf988f54599c706607ae5df06a7c84c924b82b0a66e0bf1d92ba1b5b1b2"
          },
          "sequence": 4294967295
        }
      ],
      "vout": [
        {
          "value": 0.00162846,
          "n": 0,
          "scriptPubKey": {
            "asm": "OP_DUP OP_HASH160 a8156bf106582f23235a32a6e3b4154ae996a534 OP_EQUALVERIFY OP_CHECKSIG",
            "hex": "76a914a8156bf106582f23235a32a6e3b4154ae996a53488ac",
            "reqSigs": 1,
            "type": "pubkeyhash",
            "addresses": [
              "LaYhSqpp5tTKZLLxoQhEe4TZrpBcy1sb7u"
            ]
          }
        }, 
        {
          "value": 0.18623000,
          "n": 1,
          "scriptPubKey": {
            "asm": "OP_DUP OP_HASH160 48a5b3bc575025487a3f933d99d409625917d386 OP_EQUALVERIFY OP_CHECKSIG",
            "hex": "76a91448a5b3bc575025487a3f933d99d409625917d38688ac",
            "reqSigs": 1,
            "type": "pubkeyhash",
            "addresses": [
              "LRr5RD26EpzdDiakKgkQUUx9veNcEHfVqf"
            ]
          }
        }
      ],
      "hex": "01000000012c60d26da8a16e95f8bbcf6aa8d93e4ad6bc81a77c77f77e98ffce6729d7bc00010000006a473044022037b8af3800b1d99eddcaaa2e8f923dfeb406c8a42370c9d1fbe6826a54e87c25022034e6b538f0630cba96d68666801dbf59db43bf2ee8fb886d3cea1cf1e1df9474012102c2ccacf988f54599c706607ae5df06a7c84c924b82b0a66e0bf1d92ba1b5b1b2ffffffff021e7c0200000000001976a914a8156bf106582f23235a32a6e3b4154ae996a53488ac182a1c01000000001976a91448a5b3bc575025487a3f933d99d409625917d38688ac00000000"
    }, 
    {
      "txid": "24a5144cf68f00a45d86830b5b36a930aec52263c32f40cf736fdb15084b86dd",
      "hash": "24a5144cf68f00a45d86830b5b36a930aec52263c32f40cf736fdb15084b86dd",
      "version": 2,
      "size": 521,
      "vsize": 521,
      "locktime": 1360761,
      "vin": [
        {
          "txid": "cf607a8256df6e10a261e04b3284c2c6a7892b4fa87e167e921e90266e8b68a8",
          "vout": 1,
          "scriptSig": {
            "asm": "3045022100cd90e901dcc6624ebc04f34727a49657ad4d0c2db33f54b67b779a774cd63cc20220409419926ad945e6780388bdf084b74febab2c652f492ced945a3633d04a4a31[ALL] 02bad4dc306bcb4a0526589a6a5639e22b201d02f632e8f1aa9145a92bea32cf25",
            "hex": "483045022100cd90e901dcc6624ebc04f34727a49657ad4d0c2db33f54b67b779a774cd63cc20220409419926ad945e6780388bdf084b74febab2c652f492ced945a3633d04a4a31012102bad4dc306bcb4a0526589a6a5639e22b201d02f632e8f1aa9145a92bea32cf25"
          },
          "sequence": 4294967294
        }, 
        {
          "txid": "875f0e6f20e020e1cf1abeb694f45861d6b3998160e1fb7b39669a4ef35ae52a",
          "vout": 0,
          "scriptSig": {
            "asm": "3044022014d321867e17e14bb10c75f1c6142abaa8e7f9b009a02262b8c9a2f00cb525cb0220307115a084681c2fec7136710e25392535cadd91f39154f66b747a95c32e9abf[ALL] 02da5fe6da0ca5cf9d59d6c220569fe8ab562d5f9c5a9f0d64afaa79535e30868f",
            "hex": "473044022014d321867e17e14bb10c75f1c6142abaa8e7f9b009a02262b8c9a2f00cb525cb0220307115a084681c2fec7136710e25392535cadd91f39154f66b747a95c32e9abf012102da5fe6da0ca5cf9d59d6c220569fe8ab562d5f9c5a9f0d64afaa79535e30868f"
          },
          "sequence": 4294967294
        }, 
        {
          "txid": "29f7466fc6f92fc46947a2ad3b2d20c04882515b42c78a6f3e5f2e064ddd9647",
          "vout": 1,
          "scriptSig": {
            "asm": "3045022100cc3eb44fda8aba7f7e62d9b4d42a6e2fc765c445d587e9ffd74c38ba2bc5796c022062c752441a032cd447fdca1996d9ee14ecd44f1462a8d6bd785c5b280c37e7a6[ALL] 03072047dfced66b26f11710fd9dc9df1c1fab69d4115208da09da55038c23e7a8",
            "hex": "483045022100cc3eb44fda8aba7f7e62d9b4d42a6e2fc765c445d587e9ffd74c38ba2bc5796c022062c752441a032cd447fdca1996d9ee14ecd44f1462a8d6bd785c5b280c37e7a6012103072047dfced66b26f11710fd9dc9df1c1fab69d4115208da09da55038c23e7a8"
          },
          "sequence": 4294967294
        }
      ],
      "vout": [
        {
          "value": 0.02644630,
          "n": 0,
          "scriptPubKey": {
            "asm": "OP_DUP OP_HASH160 0cdcce9e9c9ba0e9b458fbce89cc28356f20d3d1 OP_EQUALVERIFY OP_CHECKSIG",
            "hex": "76a9140cdcce9e9c9ba0e9b458fbce89cc28356f20d3d188ac",
            "reqSigs": 1,
            "type": "pubkeyhash",
            "addresses": [
              "LLPxtTjhVTjFefPpdavQ2Ux5HtpSQjuxUo"
            ]
          }
        }, 
        {
          "value": 0.00959935,
          "n": 1,
          "scriptPubKey": {
            "asm": "OP_DUP OP_HASH160 465d7fd9a508b195f73e4113fb4d1241bbd7d150 OP_EQUALVERIFY OP_CHECKSIG",
            "hex": "76a914465d7fd9a508b195f73e4113fb4d1241bbd7d15088ac",
            "reqSigs": 1,
            "type": "pubkeyhash",
            "addresses": [
              "LRe1a6RiGJMrmmgbq4KoJL2niwsFSBW3W8"
            ]
          }
        }
      ],
      "hex": "0200000003a8688b6e26901e927e167ea84f2b89a7c6c284324be061a2106edf56827a60cf010000006b483045022100cd90e901dcc6624ebc04f34727a49657ad4d0c2db33f54b67b779a774cd63cc20220409419926ad945e6780388bdf084b74febab2c652f492ced945a3633d04a4a31012102bad4dc306bcb4a0526589a6a5639e22b201d02f632e8f1aa9145a92bea32cf25feffffff2ae55af34e9a66397bfbe1608199b3d66158f494b6be1acfe120e0206f0e5f87000000006a473044022014d321867e17e14bb10c75f1c6142abaa8e7f9b009a02262b8c9a2f00cb525cb0220307115a084681c2fec7136710e25392535cadd91f39154f66b747a95c32e9abf012102da5fe6da0ca5cf9d59d6c220569fe8ab562d5f9c5a9f0d64afaa79535e30868ffeffffff4796dd4d062e5f3e6f8ac7425b518248c0202d3bada24769c42ff9c66f46f729010000006b483045022100cc3eb44fda8aba7f7e62d9b4d42a6e2fc765c445d587e9ffd74c38ba2bc5796c022062c752441a032cd447fdca1996d9ee14ecd44f1462a8d6bd785c5b280c37e7a6012103072047dfced66b26f11710fd9dc9df1c1fab69d4115208da09da55038c23e7a8feffffff02965a2800000000001976a9140cdcce9e9c9ba0e9b458fbce89cc28356f20d3d188acbfa50e00000000001976a914465d7fd9a508b195f73e4113fb4d1241bbd7d15088ac79c31400"
    }, 
    {
      "txid": "15ae46ff2a544cff50fbdc3b1783f4c1a4ea1e8426ea84acc59555cbdb96818c",
      "hash": "15ae46ff2a544cff50fbdc3b1783f4c1a4ea1e8426ea84acc59555cbdb96818c",
      "version": 2,
      "size": 701,
      "vsize": 701,
      "locktime": 1360761,
      "vin": [
        {
          "txid": "53ad5ea18d754058c8db4b7980aa9da9ab3d1979dc0be66443a648333d122d1d",
          "vout": 0,
          "scriptSig": {
            "asm": "30450221009decfd3cdecde741c83d1bad6a1dbc0ffb1b565a6b6c73bc5beeb553aad4de580220589a9c6d19707c0d58707b07d29e03fa735fd66ec1632191cc557287d8c3a197[ALL] 03ffce05f4cf45851c1f102c59dcbfe4286cdd1aceb481df8752871beb07f38cc0",
            "hex": "4830450221009decfd3cdecde741c83d1bad6a1dbc0ffb1b565a6b6c73bc5beeb553aad4de580220589a9c6d19707c0d58707b07d29e03fa735fd66ec1632191cc557287d8c3a197012103ffce05f4cf45851c1f102c59dcbfe4286cdd1aceb481df8752871beb07f38cc0"
          },
          "sequence": 4294967294
        }, 
        {
          "txid": "8e7fede67e668fb74713aa8050b023d804dbcbdeb4b3eb61ef5bf96a1f53f718",
          "vout": 0,
          "scriptSig": {
            "asm": "304402201d1731ed163cecf8bf902f2af6750e426a04fe96b80bf415a6e8953810d1c1f30220764f47c7be2086c5aaf44f3d1cb779d8d0e646db9a92fa1b4c5d874783dce2d5[ALL] 03302f65a71debdee01f2afb9e2388da38977621b5f87f79c975dfb979232dbf45",
            "hex": "47304402201d1731ed163cecf8bf902f2af6750e426a04fe96b80bf415a6e8953810d1c1f30220764f47c7be2086c5aaf44f3d1cb779d8d0e646db9a92fa1b4c5d874783dce2d5012103302f65a71debdee01f2afb9e2388da38977621b5f87f79c975dfb979232dbf45"
          },
          "sequence": 4294967294
        }, 
        {
          "txid": "a33f99ff74812de96e88bb12079e438355faaf2da8ed8c51f5d048c938c3b7fd",
          "vout": 1,
          "scriptSig": {
            "asm": "3045022100a670808c9eef56b4b599d66ff7f2e390dde92d53446aefe075c4eae8cda9bf0802200641a2c92b560110a3160eaa565fcaf072b561a681fc24473856db84116acd40[ALL] 03fa8d5b0f722fc20b78b9a5678200a6e369ec1139a660f3168ec3183d3c24a9d7",
            "hex": "483045022100a670808c9eef56b4b599d66ff7f2e390dde92d53446aefe075c4eae8cda9bf0802200641a2c92b560110a3160eaa565fcaf072b561a681fc24473856db84116acd40012103fa8d5b0f722fc20b78b9a5678200a6e369ec1139a660f3168ec3183d3c24a9d7"
          },
          "sequence": 4294967294
        }, 
        {
          "txid": "ae925991ea0d7121fca7b11619e37cf5080d5e82887aadc02995e1984708edc1",
          "vout": 0,
          "scriptSig": {
            "asm": "3045022100fd218137fe210f09156b466f65ffc44e3744e79a9e4519e1c863cc50288d0fe80220391026aedc7fdbb5bf2369e00e301e5f42450c65737da2adf3db8a548b4a2281[ALL] 02291e9713f003467269a287cbcdc27309e620373ab1324de3aee4b86eb2a25600",
            "hex": "483045022100fd218137fe210f09156b466f65ffc44e3744e79a9e4519e1c863cc50288d0fe80220391026aedc7fdbb5bf2369e00e301e5f42450c65737da2adf3db8a548b4a2281012102291e9713f003467269a287cbcdc27309e620373ab1324de3aee4b86eb2a25600"
          },
          "sequence": 4294967294
        }
      ],
      "vout": [
        {
          "value": 3.00000000,
          "n": 0,
          "scriptPubKey": {
            "asm": "OP_DUP OP_HASH160 97d42a13af92155b682eceb586ec5570917e8bc7 OP_EQUALVERIFY OP_CHECKSIG",
            "hex": "76a91497d42a13af92155b682eceb586ec5570917e8bc788ac",
            "reqSigs": 1,
            "type": "pubkeyhash",
            "addresses": [
              "LZ4kTcnSqoW8CCVSdxe1Emg3NEW4gkCSxS"
            ]
          }
        }, 
        {
          "value": 5.15000000,
          "n": 1,
          "scriptPubKey": {
            "asm": "OP_HASH160 ff9f078cf72875184f132bd08011651159d3849f OP_EQUAL",
            "hex": "a914ff9f078cf72875184f132bd08011651159d3849f87",
            "reqSigs": 1,
            "type": "scripthash",
            "addresses": [
              "MXCm3ujKiiocJrhYWueRJ7AzBZWZPNSpmq"
            ]
          }
        }, 
        {
          "value": 0.00981805,
          "n": 2,
          "scriptPubKey": {
            "asm": "OP_DUP OP_HASH160 c220acb321e871e232930ce282f32dac29d29de3 OP_EQUALVERIFY OP_CHECKSIG",
            "hex": "76a914c220acb321e871e232930ce282f32dac29d29de388ac",
            "reqSigs": 1,
            "type": "pubkeyhash",
            "addresses": [
              "LcvQVhY45nGptibwcUtqjfkZKBJnVVaKwH"
            ]
          }
        }
      ],
      "hex": "02000000041d2d123d3348a64364e60bdc79193daba99daa80794bdbc85840758da15ead53000000006b4830450221009decfd3cdecde741c83d1bad6a1dbc0ffb1b565a6b6c73bc5beeb553aad4de580220589a9c6d19707c0d58707b07d29e03fa735fd66ec1632191cc557287d8c3a197012103ffce05f4cf45851c1f102c59dcbfe4286cdd1aceb481df8752871beb07f38cc0feffffff18f7531f6af95bef61ebb3b4decbdb04d823b05080aa1347b78f667ee6ed7f8e000000006a47304402201d1731ed163cecf8bf902f2af6750e426a04fe96b80bf415a6e8953810d1c1f30220764f47c7be2086c5aaf44f3d1cb779d8d0e646db9a92fa1b4c5d874783dce2d5012103302f65a71debdee01f2afb9e2388da38977621b5f87f79c975dfb979232dbf45fefffffffdb7c338c948d0f5518ceda82daffa5583439e0712bb886ee92d8174ff993fa3010000006b483045022100a670808c9eef56b4b599d66ff7f2e390dde92d53446aefe075c4eae8cda9bf0802200641a2c92b560110a3160eaa565fcaf072b561a681fc24473856db84116acd40012103fa8d5b0f722fc20b78b9a5678200a6e369ec1139a660f3168ec3183d3c24a9d7feffffffc1ed084798e19529c0ad7a88825e0d08f57ce31916b1a7fc21710dea915992ae000000006b483045022100fd218137fe210f09156b466f65ffc44e3744e79a9e4519e1c863cc50288d0fe80220391026aedc7fdbb5bf2369e00e301e5f42450c65737da2adf3db8a548b4a2281012102291e9713f003467269a287cbcdc27309e620373ab1324de3aee4b86eb2a25600feffffff0300a3e111000000001976a91497d42a13af92155b682eceb586ec5570917e8bc788acc046b21e0000000017a914ff9f078cf72875184f132bd08011651159d3849f872dfb0e00000000001976a914c220acb321e871e232930ce282f32dac29d29de388ac79c31400"
    }, 
    {
      "txid": "4d489ad1fac31206618a2d99d0821abdcbd1f21266031b56bd8ccbe7b19e565e",
      "hash": "4d489ad1fac31206618a2d99d0821abdcbd1f21266031b56bd8ccbe7b19e565e",
      "version": 1,
      "size": 224,
      "vsize": 224,
      "locktime": 0,
      "vin": [
        {
          "txid": "08c8f1140fa53d3b3900608186230b7c9841f2855851847e8116c665f449c638",
          "vout": 1,
          "scriptSig": {
            "asm": "3045022100839cb5ce442726c77b4de7f51e0864b48e655bba9e67e0554885ef252d884fcc022066af63b1ab45719c5cacbc21bffe8624fcf573df614f128e54487a2603f78a3f[ALL] 02bfd0537d73de724fd253303bd451208b0daaad026eed6381bdf062008c27767c",
            "hex": "483045022100839cb5ce442726c77b4de7f51e0864b48e655bba9e67e0554885ef252d884fcc022066af63b1ab45719c5cacbc21bffe8624fcf573df614f128e54487a2603f78a3f012102bfd0537d73de724fd253303bd451208b0daaad026eed6381bdf062008c27767c"
          },
          "sequence": 4294967295
        }
      ],
      "vout": [
        {
          "value": 0.19553961,
          "n": 0,
          "scriptPubKey": {
            "asm": "OP_HASH160 cd7944a5404865ee29c6f334a60b3ec9fa7cba80 OP_EQUAL",
            "hex": "a914cd7944a5404865ee29c6f334a60b3ec9fa7cba8087",
            "reqSigs": 1,
            "type": "scripthash",
            "addresses": [
              "MSdc2cZcgDyRWwzuxqT1H3yZNxjpkHB1ZZ"
            ]
          }
        }, 
        {
          "value": 0.00084487,
          "n": 1,
          "scriptPubKey": {
            "asm": "OP_DUP OP_HASH160 3266d4d2d5ea9cc77167b9e7b9bbfc4e0a055f00 OP_EQUALVERIFY OP_CHECKSIG",
            "hex": "76a9143266d4d2d5ea9cc77167b9e7b9bbfc4e0a055f0088ac",
            "reqSigs": 1,
            "type": "pubkeyhash",
            "addresses": [
              "LPpTEejhXaiz9m48mBgh4PvRfku9DpnAE9"
            ]
          }
        }
      ],
      "hex": "010000000138c649f465c616817e84515885f241987c0b2386816000393b3da50f14f1c808010000006b483045022100839cb5ce442726c77b4de7f51e0864b48e655bba9e67e0554885ef252d884fcc022066af63b1ab45719c5cacbc21bffe8624fcf573df614f128e54487a2603f78a3f012102bfd0537d73de724fd253303bd451208b0daaad026eed6381bdf062008c27767cffffffff02a95e2a010000000017a914cd7944a5404865ee29c6f334a60b3ec9fa7cba8087074a0100000000001976a9143266d4d2d5ea9cc77167b9e7b9bbfc4e0a055f0088ac00000000"
    }, 
    {
      "txid": "f8ace7effb64f4a961c2148a6699d32c6f93f340a0a6c4e52b3f9730823b6ac3",
      "hash": "f8ace7effb64f4a961c2148a6699d32c6f93f340a0a6c4e52b3f9730823b6ac3",
      "version": 2,
      "size": 224,
      "vsize": 224,
      "locktime": 1360761,
      "vin": [
        {
          "txid": "8b5871d9f096ec9729ca25b3449f787e5518d62ae782e01642e7a81c473fab23",
          "vout": 1,
          "scriptSig": {
            "asm": "3045022100b85d340f5630773c79cc144a729589695f4cb1fc073348cba5d8656d7b2add2d02206b8f3c929800bdd748934e3d5e1d7906dc0bd53176b0affcec6539834eedafbe[ALL] 03bf1036028df940919c0f99db9950cfa4f1903131c246a728419afc744578cf7b",
            "hex": "483045022100b85d340f5630773c79cc144a729589695f4cb1fc073348cba5d8656d7b2add2d02206b8f3c929800bdd748934e3d5e1d7906dc0bd53176b0affcec6539834eedafbe012103bf1036028df940919c0f99db9950cfa4f1903131c246a728419afc744578cf7b"
          },
          "sequence": 4294967294
        }
      ],
      "vout": [
        {
          "value": 448.22957500,
          "n": 0,
          "scriptPubKey": {
            "asm": "OP_DUP OP_HASH160 c41e19ece680ee873c06cf48be4202f4ed25824e OP_EQUALVERIFY OP_CHECKSIG",
            "hex": "76a914c41e19ece680ee873c06cf48be4202f4ed25824e88ac",
            "reqSigs": 1,
            "type": "pubkeyhash",
            "addresses": [
              "Ld6vmHUAkT6nJiBH9jjmwiH5WHTryzYxTf"
            ]
          }
        }, 
        {
          "value": 0.95699992,
          "n": 1,
          "scriptPubKey": {
            "asm": "OP_HASH160 2a896bdd40f36c9a203b20c2c0fec192b60cf74c OP_EQUAL",
            "hex": "a9142a896bdd40f36c9a203b20c2c0fec192b60cf74c87",
            "reqSigs": 1,
            "type": "scripthash",
            "addresses": [
              "MBn5EgwiKBrdQzBVyyKvpk6N2hQM3MDHr2"
            ]
          }
        }
      ],
      "hex": "020000000123ab3f471ca8e74216e082e72ad618557e789f44b325ca2997ec96f0d971588b010000006b483045022100b85d340f5630773c79cc144a729589695f4cb1fc073348cba5d8656d7b2add2d02206b8f3c929800bdd748934e3d5e1d7906dc0bd53176b0affcec6539834eedafbe012103bf1036028df940919c0f99db9950cfa4f1903131c246a728419afc744578cf7bfeffffff02bc0da86f0a0000001976a914c41e19ece680ee873c06cf48be4202f4ed25824e88ac1844b4050000000017a9142a896bdd40f36c9a203b20c2c0fec192b60cf74c8779c31400"
    }, 
    {
      "txid": "02d6884f381db2f50ec229c64d777cfd5df788c2f1c805713a3e9a650dc6a9d7",
      "hash": "02d6884f381db2f50ec229c64d777cfd5df788c2f1c805713a3e9a650dc6a9d7",
      "version": 1,
      "size": 226,
      "vsize": 226,
      "locktime": 0,
      "vin": [
        {
          "txid": "23287bd4028b2f097039ff1cc8a3b774058a8b4b3c569dc46852016915d71391",
          "vout": 0,
          "scriptSig": {
            "asm": "3045022100aa198eec9b86f79e9ab768f928e9e3cc743e618aa6bfb38b0592734f494de47d022058b5fa47efb3e966efda39d6b8d33fd99370e59e964f9171cd5c36e937027a7f[ALL] 02b699bc32586bb7ca3a159d9b6ad00b97fdd877b956cda7b0df7760db23eaa5e3",
            "hex": "483045022100aa198eec9b86f79e9ab768f928e9e3cc743e618aa6bfb38b0592734f494de47d022058b5fa47efb3e966efda39d6b8d33fd99370e59e964f9171cd5c36e937027a7f012102b699bc32586bb7ca3a159d9b6ad00b97fdd877b956cda7b0df7760db23eaa5e3"
          },
          "sequence": 4294967295
        }
      ],
      "vout": [
        {
          "value": 5.52367872,
          "n": 0,
          "scriptPubKey": {
            "asm": "OP_DUP OP_HASH160 2907830998e074b2f859f022e0e64796f04e013e OP_EQUALVERIFY OP_CHECKSIG",
            "hex": "76a9142907830998e074b2f859f022e0e64796f04e013e88ac",
            "reqSigs": 1,
            "type": "pubkeyhash",
            "addresses": [
              "LNxty1dHjJKdM6MQyezceKqAgfGREv7zR9"
            ]
          }
        }, 
        {
          "value": 1.10000000,
          "n": 1,
          "scriptPubKey": {
            "asm": "OP_DUP OP_HASH160 641127bea9596d278609e5b3180e2d82ec945387 OP_EQUALVERIFY OP_CHECKSIG",
            "hex": "76a914641127bea9596d278609e5b3180e2d82ec94538788ac",
            "reqSigs": 1,
            "type": "pubkeyhash",
            "addresses": [
              "LUM4PN4WzHVK4QkH9wSt4KBozgd1YWLaVC"
            ]
          }
        }
      ],
      "hex": "01000000019113d71569015268c49d563c4b8b8a0574b7a3c81cff3970092f8b02d47b2823000000006b483045022100aa198eec9b86f79e9ab768f928e9e3cc743e618aa6bfb38b0592734f494de47d022058b5fa47efb3e966efda39d6b8d33fd99370e59e964f9171cd5c36e937027a7f012102b699bc32586bb7ca3a159d9b6ad00b97fdd877b956cda7b0df7760db23eaa5e3ffffffff020077ec20000000001976a9142907830998e074b2f859f022e0e64796f04e013e88ac80778e06000000001976a914641127bea9596d278609e5b3180e2d82ec94538788ac00000000"
    }
  ],
  "time": 1517478721,
  "mediantime": 1517477682,
  "nonce": 1416737681,
  "bits": "1a042eae",
  "difficulty": 4011378.762614286,
  "chainwork": "0000000000000000000000000000000000000000000000353e1129b78796adf8",
  "previousblockhash": "734c3394216b023cf6335492ec3bcb4f96a733cfa39e8460397d8ddb536461d9",
  "nextblockhash": "1622045ceb1882e7b72364959ce8a662d72b4295d53e72a5065209886ef284c3"
}
