{
  "hash": "081baad0a663fcee25af28fd758a54fcbd1a1ed10e3eda39584333d23f754f17",
  "confirmations": 174,
  "strippedsize": 2715,
  "size": 2751,
  "weight": 10896,
  "height": 1360818,
  "version": 536870912,
  "versionHex": "20000000",
  "merkleroot": "aae890bc31ae1fe58e95aba99219d66eeb5602e28532558588e3607342bb9108",
  "tx": [
    {
      "txid": "edc265ae016dd4f8849638ce976930320bfd00505b4babdf88813daaa81cd0ad",
      "hash": "e87383e2aa14cffa7ee6d72ccfbdb819a6b18f58dc1ffca84b035ed67a1c9e36",
      "version": 1,
      "size": 236,
      "vsize": 209,
      "locktime": 0,
      "vin": [
        {
          "coinbase": "03b2c314045a72ff352cfabe6d6d8f197a3a3e598683c9f789febc9d35dfa7436000d97115db711faae5c75b46ca4000000000000000042f4c502f08220079c216000000",
          "sequence": 4294967295
        }
      ],
      "vout": [
        {
          "value": 25.00682250,
          "n": 0,
          "scriptPubKey": {
            "asm": "OP_DUP OP_HASH160 57757ed2ecf2052ff3126c397aca7defb9ca2cec OP_EQUALVERIFY OP_CHECKSIG",
            "hex": "76a91457757ed2ecf2052ff3126c397aca7defb9ca2cec88ac",
            "reqSigs": 1,
            "type": "pubkeyhash",
            "addresses": [
              "LTCPodGk5FwcJaRzH9yKnwicxzFUbxp6tN"
            ]
          }
        }, 
        {
          "value": 0.00000000,
          "n": 1,
          "scriptPubKey": {
            "asm": "OP_RETURN aa21a9edc59e33bdab58fef5ea8d796eeb3cbfb16634a678d614b769e585963da0404b3e",
            "hex": "6a24aa21a9edc59e33bdab58fef5ea8d796eeb3cbfb16634a678d614b769e585963da0404b3e",
            "type": "nulldata"
          }
        }
      ],
      "hex": "010000000001010000000000000000000000000000000000000000000000000000000000000000ffffffff4403b2c314045a72ff352cfabe6d6d8f197a3a3e598683c9f789febc9d35dfa7436000d97115db711faae5c75b46ca4000000000000000042f4c502f08220079c216000000ffffffff020a620d95000000001976a91457757ed2ecf2052ff3126c397aca7defb9ca2cec88ac0000000000000000266a24aa21a9edc59e33bdab58fef5ea8d796eeb3cbfb16634a678d614b769e585963da0404b3e0120000000000000000000000000000000000000000000000000000000000000000000000000"
    }, 
    {
      "txid": "8d0e5c2b9cb32f32f75bc05fc13e8d5988398a65a9ff74cc55dac51be0345c49",
      "hash": "8d0e5c2b9cb32f32f75bc05fc13e8d5988398a65a9ff74cc55dac51be0345c49",
      "version": 1,
      "size": 334,
      "vsize": 334,
      "locktime": 0,
      "vin": [
        {
          "txid": "f28a3a0f5a9841867a0fb48f10b2fe8e5f4d7892ee2c5ae16a1d3740adfb286d",
          "vout": 1,
          "scriptSig": {
            "asm": "0 304402202c050d0c79ccefaf979eef6b24a8d918b0d655a836ea7350c3c20bc164540b0302203edbe1f8b22f275e4ef7a902e84638fa45e0a111d5309fa7c8e40ad6b35b7084[ALL] 304402201a0c21f1aced62c0bbb8fc63c6c080ad3fae1c6bff0ba719f85a45f90ccf065a022070b8bdbee5ac798b4c13ce306852e2081b9507fad5baa78cbede564d769dc043[ALL] 522103331625f9b8b05ede303308e170434370247bb8710481e73a8944da281a3e1e952102428851fd76028cf4ffed6c456d5fb007d8d7062d5c684b0b3beedc7d155c681c52ae",
            "hex": "0047304402202c050d0c79ccefaf979eef6b24a8d918b0d655a836ea7350c3c20bc164540b0302203edbe1f8b22f275e4ef7a902e84638fa45e0a111d5309fa7c8e40ad6b35b70840147304402201a0c21f1aced62c0bbb8fc63c6c080ad3fae1c6bff0ba719f85a45f90ccf065a022070b8bdbee5ac798b4c13ce306852e2081b9507fad5baa78cbede564d769dc0430147522103331625f9b8b05ede303308e170434370247bb8710481e73a8944da281a3e1e952102428851fd76028cf4ffed6c456d5fb007d8d7062d5c684b0b3beedc7d155c681c52ae"
          },
          "sequence": 4294967295
        }
      ],
      "vout": [
        {
          "value": 0.17435059,
          "n": 0,
          "scriptPubKey": {
            "asm": "OP_DUP OP_HASH160 7f264be3d89cb7caf4965aa758ee6453ba0fc84f OP_EQUALVERIFY OP_CHECKSIG",
            "hex": "76a9147f264be3d89cb7caf4965aa758ee6453ba0fc84f88ac",
            "reqSigs": 1,
            "type": "pubkeyhash",
            "addresses": [
              "LWpFxTaqfUqto5gE3M5WYexSUDbpsm8YQQ"
            ]
          }
        }, 
        {
          "value": 16.59502932,
          "n": 1,
          "scriptPubKey": {
            "asm": "OP_HASH160 2e63ae89cfa55a50d53898e6c6b7c9c29ab601f4 OP_EQUAL",
            "hex": "a9142e63ae89cfa55a50d53898e6c6b7c9c29ab601f487",
            "reqSigs": 1,
            "type": "scripthash",
            "addresses": [
              "MC8SjGR6eG1cRDZ3qydrXpRjW9eeY66vxp"
            ]
          }
        }
      ],
      "hex": "01000000016d28fbad40371d6ae15a2cee92784d5f8efeb2108fb40f7a8641985a0f3a8af201000000d90047304402202c050d0c79ccefaf979eef6b24a8d918b0d655a836ea7350c3c20bc164540b0302203edbe1f8b22f275e4ef7a902e84638fa45e0a111d5309fa7c8e40ad6b35b70840147304402201a0c21f1aced62c0bbb8fc63c6c080ad3fae1c6bff0ba719f85a45f90ccf065a022070b8bdbee5ac798b4c13ce306852e2081b9507fad5baa78cbede564d769dc0430147522103331625f9b8b05ede303308e170434370247bb8710481e73a8944da281a3e1e952102428851fd76028cf4ffed6c456d5fb007d8d7062d5c684b0b3beedc7d155c681c52aeffffffff02b3090a01000000001976a9147f264be3d89cb7caf4965aa758ee6453ba0fc84f88ac5401ea620000000017a9142e63ae89cfa55a50d53898e6c6b7c9c29ab601f48700000000"
    }, 
    {
      "txid": "3db6faf391e4ca7907b096c0e95c729c6f485bba7e84a4c466bba1e708aec34f",
      "hash": "3db6faf391e4ca7907b096c0e95c729c6f485bba7e84a4c466bba1e708aec34f",
      "version": 1,
      "size": 373,
      "vsize": 373,
      "locktime": 0,
      "vin": [
        {
          "txid": "6de83c6e76e360fc7b95d159d5694dd5569f260bd5c152bd765825fa6ba49146",
          "vout": 0,
          "scriptSig": {
            "asm": "304402201f53e1e343b15f4fe29d497210c3beab2f7953b69142df2414cfc384252d2d8f022018fb4a746c4f735f6e6ebe3708a9bdb769fe375fd91593b9d27154d825e7bfee[ALL] 03d2a3c0f1770f4c2a3b5b9a243ce7c2c2eaacde120868525285a878a42a8788bb",
            "hex": "47304402201f53e1e343b15f4fe29d497210c3beab2f7953b69142df2414cfc384252d2d8f022018fb4a746c4f735f6e6ebe3708a9bdb769fe375fd91593b9d27154d825e7bfee012103d2a3c0f1770f4c2a3b5b9a243ce7c2c2eaacde120868525285a878a42a8788bb"
          },
          "sequence": 4294967295
        }, 
        {
          "txid": "03e7ca996f1b1d4691d69d350948a324990e92eb9922ff02b3655fd0d06810d7",
          "vout": 1,
          "scriptSig": {
            "asm": "3045022100c79d05e3d8def23f1f29bdf4ed4215d7754d106f9f55569995cb141c4908455202200733148fa12aa1f30526e03021d28e42d766e8274ffb4d78eb35c0b3342db965[ALL] 02f8f98aaa3e1507cf67b581e379d4d3c530087ee58495750138447c2e1c526e67",
            "hex": "483045022100c79d05e3d8def23f1f29bdf4ed4215d7754d106f9f55569995cb141c4908455202200733148fa12aa1f30526e03021d28e42d766e8274ffb4d78eb35c0b3342db965012102f8f98aaa3e1507cf67b581e379d4d3c530087ee58495750138447c2e1c526e67"
          },
          "sequence": 4294967295
        }
      ],
      "vout": [
        {
          "value": 0.01002193,
          "n": 0,
          "scriptPubKey": {
            "asm": "OP_DUP OP_HASH160 a7d70da283528c71cc9847bea99f8c8dd57dc369 OP_EQUALVERIFY OP_CHECKSIG",
            "hex": "76a914a7d70da283528c71cc9847bea99f8c8dd57dc36988ac",
            "reqSigs": 1,
            "type": "pubkeyhash",
            "addresses": [
              "LaXQjQobsRHvSK9LZ25ZVA2DZcGH6XTviN"
            ]
          }
        }, 
        {
          "value": 8.17482440,
          "n": 1,
          "scriptPubKey": {
            "asm": "OP_DUP OP_HASH160 85910337a42f8c062a6051b5969812b6b6b0087e OP_EQUALVERIFY OP_CHECKSIG",
            "hex": "76a91485910337a42f8c062a6051b5969812b6b6b0087e88ac",
            "reqSigs": 1,
            "type": "pubkeyhash",
            "addresses": [
              "LXQBrNn9Q3mWKVw7PqKo52NohUP16Tp9H8"
            ]
          }
        }
      ],
      "hex": "01000000024691a46bfa255876bd52c1d50b269f56d54d69d559d1957bfc60e3766e3ce86d000000006a47304402201f53e1e343b15f4fe29d497210c3beab2f7953b69142df2414cfc384252d2d8f022018fb4a746c4f735f6e6ebe3708a9bdb769fe375fd91593b9d27154d825e7bfee012103d2a3c0f1770f4c2a3b5b9a243ce7c2c2eaacde120868525285a878a42a8788bbffffffffd71068d0d05f65b302ff2299eb920e9924a34809359dd691461d1b6f99cae703010000006b483045022100c79d05e3d8def23f1f29bdf4ed4215d7754d106f9f55569995cb141c4908455202200733148fa12aa1f30526e03021d28e42d766e8274ffb4d78eb35c0b3342db965012102f8f98aaa3e1507cf67b581e379d4d3c530087ee58495750138447c2e1c526e67ffffffff02d14a0f00000000001976a914a7d70da283528c71cc9847bea99f8c8dd57dc36988acc8cab930000000001976a91485910337a42f8c062a6051b5969812b6b6b0087e88ac00000000"
    }, 
    {
      "txid": "a5175680222df2bab71ceae156374d34daa7e9ad6ddee79451d8787e2dac3603",
      "hash": "a5175680222df2bab71ceae156374d34daa7e9ad6ddee79451d8787e2dac3603",
      "version": 1,
      "size": 226,
      "vsize": 226,
      "locktime": 0,
      "vin": [
        {
          "txid": "add7eadbf64198b2ee15eb51ee235d6bcc3f8193841995e7de49fe829948e9a2",
          "vout": 0,
          "scriptSig": {
            "asm": "3045022100c362d98d971f9f5b30e42869b4570f132ddec3d372125c71bf9e662dbf200b7802200590f10cd9e07a38cd8f5e4e1b93e50f949fb2d5cc36dd98022316f4c899f3db[ALL] 02cd5c340f3c7b3d8bafda3169a62a6666099154cdecb52ba2696b1ecc2a157490",
            "hex": "483045022100c362d98d971f9f5b30e42869b4570f132ddec3d372125c71bf9e662dbf200b7802200590f10cd9e07a38cd8f5e4e1b93e50f949fb2d5cc36dd98022316f4c899f3db012102cd5c340f3c7b3d8bafda3169a62a6666099154cdecb52ba2696b1ecc2a157490"
          },
          "sequence": 4294967295
        }
      ],
      "vout": [
        {
          "value": 4.81065519,
          "n": 0,
          "scriptPubKey": {
            "asm": "OP_DUP OP_HASH160 cae8f969bfa750815efae6efde9984c01323a191 OP_EQUALVERIFY OP_CHECKSIG",
            "hex": "76a914cae8f969bfa750815efae6efde9984c01323a19188ac",
            "reqSigs": 1,
            "type": "pubkeyhash",
            "addresses": [
              "LdiqrJHT4FGyECpGt37Udwy66oN1XY1Jhh"
            ]
          }
        }, 
        {
          "value": 14.06713631,
          "n": 1,
          "scriptPubKey": {
            "asm": "OP_DUP OP_HASH160 f9871c6dd621879729cd7d502a5af822501cf2aa OP_EQUALVERIFY OP_CHECKSIG",
            "hex": "76a914f9871c6dd621879729cd7d502a5af822501cf2aa88ac",
            "reqSigs": 1,
            "type": "pubkeyhash",
            "addresses": [
              "LhyLNfBkoKshT7R8Pce6vkB9T2cP2o84hx"
            ]
          }
        }
      ],
      "hex": "0100000001a2e9489982fe49dee795198493813fcc6b5d23ee51eb15eeb29841f6dbead7ad000000006b483045022100c362d98d971f9f5b30e42869b4570f132ddec3d372125c71bf9e662dbf200b7802200590f10cd9e07a38cd8f5e4e1b93e50f949fb2d5cc36dd98022316f4c899f3db012102cd5c340f3c7b3d8bafda3169a62a6666099154cdecb52ba2696b1ecc2a157490ffffffff022f7aac1c000000001976a914cae8f969bfa750815efae6efde9984c01323a19188ac1fbfd853000000001976a914f9871c6dd621879729cd7d502a5af822501cf2aa88ac00000000"
    }, 
    {
      "txid": "9bc298401e358be86240694591f637d60ddfce2b8ec6100c86d2dcebad1e9f22",
      "hash": "9bc298401e358be86240694591f637d60ddfce2b8ec6100c86d2dcebad1e9f22",
      "version": 1,
      "size": 192,
      "vsize": 192,
      "locktime": 0,
      "vin": [
        {
          "txid": "449dcd053eef6650271872b74b674018f15e244984865a0b63712e3f3cbc40ce",
          "vout": 1,
          "scriptSig": {
            "asm": "3045022100815582ce923088aac12b0bcf01734d8a09bb077c9b09499859a0e64f773d2d530220653e35401ca01f35e083a115fcb676578d0527c160a5dcf0254213cffd06e249[ALL] 021e69f445e31c576a61fce7c1908182bf32e9192bc5c7e5523b6df62e1ecb04cc",
            "hex": "483045022100815582ce923088aac12b0bcf01734d8a09bb077c9b09499859a0e64f773d2d530220653e35401ca01f35e083a115fcb676578d0527c160a5dcf0254213cffd06e2490121021e69f445e31c576a61fce7c1908182bf32e9192bc5c7e5523b6df62e1ecb04cc"
          },
          "sequence": 4294967295
        }
      ],
      "vout": [
        {
          "value": 5.32257400,
          "n": 0,
          "scriptPubKey": {
            "asm": "OP_DUP OP_HASH160 b0a506702fee50f5300a83c5cbd48e1fee8be966 OP_EQUALVERIFY OP_CHECKSIG",
            "hex": "76a914b0a506702fee50f5300a83c5cbd48e1fee8be96688ac",
            "reqSigs": 1,
            "type": "pubkeyhash",
            "addresses": [
              "LbKxt87uNTfZZKWtKneK2bi2nUYjPsYoJH"
            ]
          }
        }
      ],
      "hex": "0100000001ce40bc3c3f2e71630b5a868449245ef11840674bb77218275066ef3e05cd9d44010000006b483045022100815582ce923088aac12b0bcf01734d8a09bb077c9b09499859a0e64f773d2d530220653e35401ca01f35e083a115fcb676578d0527c160a5dcf0254213cffd06e2490121021e69f445e31c576a61fce7c1908182bf32e9192bc5c7e5523b6df62e1ecb04ccffffffff01789ab91f000000001976a914b0a506702fee50f5300a83c5cbd48e1fee8be96688ac00000000"
    }, 
    {
      "txid": "bf37d28ee955daaf0d7321fbb5be37776b56d02a4db09f77e383513082126fa4",
      "hash": "bf37d28ee955daaf0d7321fbb5be37776b56d02a4db09f77e383513082126fa4",
      "version": 2,
      "size": 372,
      "vsize": 372,
      "locktime": 1360816,
      "vin": [
        {
          "txid": "c3c7999b5d445fc6bd418f677e4091dd0ebb9656a8c07c9a561609f595a63b6f",
          "vout": 5,
          "scriptSig": {
            "asm": "304402201cc9abb51225f0d987435b7ca2602cfb902dd3818f549d0c6f69a8cbd22035c3022045a7a2ed6ecab4ad859849d10263e35ea6e7efd9766b2f85650d84ec827b3071[ALL] 0372da74d459b68481779ae78430233ccb16c4f5f4b866d8f739b82d24b58a459f",
            "hex": "47304402201cc9abb51225f0d987435b7ca2602cfb902dd3818f549d0c6f69a8cbd22035c3022045a7a2ed6ecab4ad859849d10263e35ea6e7efd9766b2f85650d84ec827b307101210372da74d459b68481779ae78430233ccb16c4f5f4b866d8f739b82d24b58a459f"
          },
          "sequence": 4294967294
        }, 
        {
          "txid": "33fb2ffc0b8bb9be9134a61d13b7caa6e0725510fe815ce1f9b66c66b79a4b98",
          "vout": 171,
          "scriptSig": {
            "asm": "30440220729962fb71e7a866006b6767a988341cf19f2c8df623f2100758c5738e79b0c502202d5efcc2e09efec924489698792a4072c7d1e1f25daff8fdc885e2499c0dc232[ALL] 0332b9739350c21d89015cba5bec1acb66569af3703e0e39625bef9ad894cecca9",
            "hex": "4730440220729962fb71e7a866006b6767a988341cf19f2c8df623f2100758c5738e79b0c502202d5efcc2e09efec924489698792a4072c7d1e1f25daff8fdc885e2499c0dc23201210332b9739350c21d89015cba5bec1acb66569af3703e0e39625bef9ad894cecca9"
          },
          "sequence": 4294967294
        }
      ],
      "vout": [
        {
          "value": 0.09816580,
          "n": 0,
          "scriptPubKey": {
            "asm": "OP_DUP OP_HASH160 caada0abf2d6d864a8637f9767c318eb1f6344ea OP_EQUALVERIFY OP_CHECKSIG",
            "hex": "76a914caada0abf2d6d864a8637f9767c318eb1f6344ea88ac",
            "reqSigs": 1,
            "type": "pubkeyhash",
            "addresses": [
              "LdhckpbwZRqpBj9AhFZcBCXKkbZ1ZuGEbk"
            ]
          }
        }, 
        {
          "value": 0.00962637,
          "n": 1,
          "scriptPubKey": {
            "asm": "OP_DUP OP_HASH160 b6b671341044d10bfc148650863f6f361c874eeb OP_EQUALVERIFY OP_CHECKSIG",
            "hex": "76a914b6b671341044d10bfc148650863f6f361c874eeb88ac",
            "reqSigs": 1,
            "type": "pubkeyhash",
            "addresses": [
              "Lbt3oS38Ji1LBJr2aqYykHoX1m5jHqEzci"
            ]
          }
        }
      ],
      "hex": "02000000026f3ba695f50916569a7cc0a85696bb0edd91407e678f41bdc65f445d9b99c7c3050000006a47304402201cc9abb51225f0d987435b7ca2602cfb902dd3818f549d0c6f69a8cbd22035c3022045a7a2ed6ecab4ad859849d10263e35ea6e7efd9766b2f85650d84ec827b307101210372da74d459b68481779ae78430233ccb16c4f5f4b866d8f739b82d24b58a459ffeffffff984b9ab7666cb6f9e15c81fe105572e0a6cab7131da63491beb98b0bfc2ffb33ab0000006a4730440220729962fb71e7a866006b6767a988341cf19f2c8df623f2100758c5738e79b0c502202d5efcc2e09efec924489698792a4072c7d1e1f25daff8fdc885e2499c0dc23201210332b9739350c21d89015cba5bec1acb66569af3703e0e39625bef9ad894cecca9feffffff0204ca9500000000001976a914caada0abf2d6d864a8637f9767c318eb1f6344ea88ac4db00e00000000001976a914b6b671341044d10bfc148650863f6f361c874eeb88acb0c31400"
    }, 
    {
      "txid": "9ce961bdf7136e6ed4bd198c32bbd7379ac228ead549e2f0f088e0a9662d54d0",
      "hash": "9ce961bdf7136e6ed4bd198c32bbd7379ac228ead549e2f0f088e0a9662d54d0",
      "version": 2,
      "size": 225,
      "vsize": 225,
      "locktime": 1360816,
      "vin": [
        {
          "txid": "f9458fdf512e93eed602c30623b7d05c4a32c990e1d45f182099fa3725bdbb8b",
          "vout": 1,
          "scriptSig": {
            "asm": "304402202b15bfadfae064cc36d914a4275075ff4e053acd12645ef17dcc44d07ce5a303022013bfffb3a2b2619f1d2d31aeeee9627d9d10bec91f517797d2cdbba6d5087132[ALL] 02d698aac6181a37c8f098dc2d973406b21968dae747cedcadf053d40f9c418bd6",
            "hex": "47304402202b15bfadfae064cc36d914a4275075ff4e053acd12645ef17dcc44d07ce5a303022013bfffb3a2b2619f1d2d31aeeee9627d9d10bec91f517797d2cdbba6d5087132012102d698aac6181a37c8f098dc2d973406b21968dae747cedcadf053d40f9c418bd6"
          },
          "sequence": 4294967294
        }
      ],
      "vout": [
        {
          "value": 0.68529000,
          "n": 0,
          "scriptPubKey": {
            "asm": "OP_DUP OP_HASH160 1bc2013ee704c5d4ceb417e6b1060d34099a979f OP_EQUALVERIFY OP_CHECKSIG",
            "hex": "76a9141bc2013ee704c5d4ceb417e6b1060d34099a979f88ac",
            "reqSigs": 1,
            "type": "pubkeyhash",
            "addresses": [
              "LMkiv5zPt9YDnTr5PaQcLE9o1PveizDUkR"
            ]
          }
        }, 
        {
          "value": 1.06896284,
          "n": 1,
          "scriptPubKey": {
            "asm": "OP_DUP OP_HASH160 55c556bbef91b3737851cc79f1c8015eaf77a4cc OP_EQUALVERIFY OP_CHECKSIG",
            "hex": "76a91455c556bbef91b3737851cc79f1c8015eaf77a4cc88ac",
            "reqSigs": 1,
            "type": "pubkeyhash",
            "addresses": [
              "LT3U6rnTjNF2xzH8ESNjnmgpd8jusjqVg6"
            ]
          }
        }
      ],
      "hex": "02000000018bbbbd2537fa9920185fd4e190c9324a5cd0b72306c302d6ee932e51df8f45f9010000006a47304402202b15bfadfae064cc36d914a4275075ff4e053acd12645ef17dcc44d07ce5a303022013bfffb3a2b2619f1d2d31aeeee9627d9d10bec91f517797d2cdbba6d5087132012102d698aac6181a37c8f098dc2d973406b21968dae747cedcadf053d40f9c418bd6feffffff0268ab1504000000001976a9141bc2013ee704c5d4ceb417e6b1060d34099a979f88ac9c1b5f06000000001976a91455c556bbef91b3737851cc79f1c8015eaf77a4cc88acb0c31400"
    }, 
    {
      "txid": "f58d31070ef531694ecfd4c5264fd1000ffe5bcadaffd3111215b1c602693b76",
      "hash": "f58d31070ef531694ecfd4c5264fd1000ffe5bcadaffd3111215b1c602693b76",
      "version": 1,
      "size": 226,
      "vsize": 226,
      "locktime": 0,
      "vin": [
        {
          "txid": "1c5ec95a222f55974555cc6912a7e7a8d46b98a8fc2779bce4d4b99929d19ac4",
          "vout": 0,
          "scriptSig": {
            "asm": "3045022100c016708bd9745cbdfeeaae15b0a05f8a7ec6334c11168e741be1c3082143e4250220539e9e14745d8bde54ed7caf523a71cb8e7ffbead09eb18a4bf8b24ba239f971[ALL] 025eb296f96d145c5d1b42b12e822a947405428531bf318778671d6cfcc1b2500a",
            "hex": "483045022100c016708bd9745cbdfeeaae15b0a05f8a7ec6334c11168e741be1c3082143e4250220539e9e14745d8bde54ed7caf523a71cb8e7ffbead09eb18a4bf8b24ba239f9710121025eb296f96d145c5d1b42b12e822a947405428531bf318778671d6cfcc1b2500a"
          },
          "sequence": 4294967295
        }
      ],
      "vout": [
        {
          "value": 97.77918222,
          "n": 0,
          "scriptPubKey": {
            "asm": "OP_DUP OP_HASH160 0bfd1f13d4e35f0c389e38dabd37c9bbbc777791 OP_EQUALVERIFY OP_CHECKSIG",
            "hex": "76a9140bfd1f13d4e35f0c389e38dabd37c9bbbc77779188ac",
            "reqSigs": 1,
            "type": "pubkeyhash",
            "addresses": [
              "LLKLvWJk1eQMN33CZFRAfjJUYDwSsZMKWM"
            ]
          }
        }, 
        {
          "value": 1.62036578,
          "n": 1,
          "scriptPubKey": {
            "asm": "OP_DUP OP_HASH160 09d62001bdfa57a4cdab96bfa58d34369df876d7 OP_EQUALVERIFY OP_CHECKSIG",
            "hex": "76a91409d62001bdfa57a4cdab96bfa58d34369df876d788ac",
            "reqSigs": 1,
            "type": "pubkeyhash",
            "addresses": [
              "LL7xrcAjFsNs9xxcSrpV5U9f2BSEFvpABa"
            ]
          }
        }
      ],
      "hex": "0100000001c49ad12999b9d4e4bc7927fca8986bd4a8e7a71269cc554597552f225ac95e1c000000006b483045022100c016708bd9745cbdfeeaae15b0a05f8a7ec6334c11168e741be1c3082143e4250220539e9e14745d8bde54ed7caf523a71cb8e7ffbead09eb18a4bf8b24ba239f9710121025eb296f96d145c5d1b42b12e822a947405428531bf318778671d6cfcc1b2500affffffff020e31cf46020000001976a9140bfd1f13d4e35f0c389e38dabd37c9bbbc77779188ac627ba809000000001976a91409d62001bdfa57a4cdab96bfa58d34369df876d788ac00000000"
    }, 
    {
      "txid": "acb6be0c74edfe4e6bddd798dfa4f44fc23bf451269d8ba805a2335a5bf3f7ca",
      "hash": "acb6be0c74edfe4e6bddd798dfa4f44fc23bf451269d8ba805a2335a5bf3f7ca",
      "version": 2,
      "size": 260,
      "vsize": 260,
      "locktime": 1360816,
      "vin": [
        {
          "txid": "a68f1f5d2171411e7b04cefd4a4e4603a8550dbb3ebb4b73262cf1f2b931d589",
          "vout": 0,
          "scriptSig": {
            "asm": "3045022100cd0cb51c7df356b85e4b9cdbbeb659a2d18d8a4d38447e8229a815cbef2a4c54022030993aa2ddd8ec101b7b19bb28324b0788dd695356cf02a22d4e117708682c96[ALL] 02bad38e277636f30003b94e4bae6e1c9d8e338a1fafc5fafc92ae42bcb20c1a3f",
            "hex": "483045022100cd0cb51c7df356b85e4b9cdbbeb659a2d18d8a4d38447e8229a815cbef2a4c54022030993aa2ddd8ec101b7b19bb28324b0788dd695356cf02a22d4e117708682c96012102bad38e277636f30003b94e4bae6e1c9d8e338a1fafc5fafc92ae42bcb20c1a3f"
          },
          "sequence": 4294967294
        }
      ],
      "vout": [
        {
          "value": 0.72974000,
          "n": 0,
          "scriptPubKey": {
            "asm": "OP_DUP OP_HASH160 d5949f00e979b667bce7c2bf69f9dce616623790 OP_EQUALVERIFY OP_CHECKSIG",
            "hex": "76a914d5949f00e979b667bce7c2bf69f9dce61662379088ac",
            "reqSigs": 1,
            "type": "pubkeyhash",
            "addresses": [
              "LehGESxxoDcAgXob9ZT8xa3uZqLEDmwgTg"
            ]
          }
        }, 
        {
          "value": 0.20000000,
          "n": 1,
          "scriptPubKey": {
            "asm": "OP_DUP OP_HASH160 98999a89c5efd960309ca743f0f817e3e8b906b2 OP_EQUALVERIFY OP_CHECKSIG",
            "hex": "76a91498999a89c5efd960309ca743f0f817e3e8b906b288ac",
            "reqSigs": 1,
            "type": "pubkeyhash",
            "addresses": [
              "LZ8pywXfYERJB98wNtG47YS4UXxB57HLSh"
            ]
          }
        }, 
        {
          "value": 0.07000000,
          "n": 2,
          "scriptPubKey": {
            "asm": "OP_DUP OP_HASH160 9d515ea23439baca74b5c5ae4e3b1216d46ca76f OP_EQUALVERIFY OP_CHECKSIG",
            "hex": "76a9149d515ea23439baca74b5c5ae4e3b1216d46ca76f88ac",
            "reqSigs": 1,
            "type": "pubkeyhash",
            "addresses": [
              "LZZmpzav9rYy5V6ydw9oMedyXBBTQd3Ese"
            ]
          }
        }
      ],
      "hex": "020000000189d531b9f2f12c26734bbb3ebb0d55a803464e4afdce047b1e4171215d1f8fa6000000006b483045022100cd0cb51c7df356b85e4b9cdbbeb659a2d18d8a4d38447e8229a815cbef2a4c54022030993aa2ddd8ec101b7b19bb28324b0788dd695356cf02a22d4e117708682c96012102bad38e277636f30003b94e4bae6e1c9d8e338a1fafc5fafc92ae42bcb20c1a3ffeffffff03b07e5904000000001976a914d5949f00e979b667bce7c2bf69f9dce61662379088ac002d3101000000001976a91498999a89c5efd960309ca743f0f817e3e8b906b288acc0cf6a00000000001976a9149d515ea23439baca74b5c5ae4e3b1216d46ca76f88acb0c31400"
    }, 
    {
      "txid": "f8e6736ff2bed33d9aa9564cf308a46bda864d4ce32001c59b75570dd07112cc",
      "hash": "f8e6736ff2bed33d9aa9564cf308a46bda864d4ce32001c59b75570dd07112cc",
      "version": 2,
      "size": 226,
      "vsize": 226,
      "locktime": 1360816,
      "vin": [
        {
          "txid": "1c98dfe77bc696f8c0b124399905236d5e60c914cd7f0c5cb03acbaa77dba349",
          "vout": 1,
          "scriptSig": {
            "asm": "304502210087785e3f09a5be5c84db504244d29788ccc489036ca13067c3b5848483dd7142022051a85d1320ba53bea07fe86a3f89c9ffccc3e76b59e8f88a229cca3e9535407a[ALL] 03b25184aa8a78920e1fc84445732202124cfe872267389ac6dba0de63701c02ec",
            "hex": "48304502210087785e3f09a5be5c84db504244d29788ccc489036ca13067c3b5848483dd7142022051a85d1320ba53bea07fe86a3f89c9ffccc3e76b59e8f88a229cca3e9535407a012103b25184aa8a78920e1fc84445732202124cfe872267389ac6dba0de63701c02ec"
          },
          "sequence": 4294967294
        }
      ],
      "vout": [
        {
          "value": 0.00699400,
          "n": 0,
          "scriptPubKey": {
            "asm": "OP_DUP OP_HASH160 9d7f542c701f593bfed21c200b80a7c7fe8c595f OP_EQUALVERIFY OP_CHECKSIG",
            "hex": "76a9149d7f542c701f593bfed21c200b80a7c7fe8c595f88ac",
            "reqSigs": 1,
            "type": "pubkeyhash",
            "addresses": [
              "LZaitHpFPdfoPCoVCmHHRXQidMq8uGyCiz"
            ]
          }
        }, 
        {
          "value": 0.01000000,
          "n": 1,
          "scriptPubKey": {
            "asm": "OP_DUP OP_HASH160 f582db0bf52901ee8739b1f58714e0c95a1f4abf OP_EQUALVERIFY OP_CHECKSIG",
            "hex": "76a914f582db0bf52901ee8739b1f58714e0c95a1f4abf88ac",
            "reqSigs": 1,
            "type": "pubkeyhash",
            "addresses": [
              "Lhc6aDoQ4nKp7S2g5ajYwdZNgQdSwMnJW4"
            ]
          }
        }
      ],
      "hex": "020000000149a3db77aacb3ab05c0c7fcd14c9605e6d2305993924b1c0f896c67be7df981c010000006b48304502210087785e3f09a5be5c84db504244d29788ccc489036ca13067c3b5848483dd7142022051a85d1320ba53bea07fe86a3f89c9ffccc3e76b59e8f88a229cca3e9535407a012103b25184aa8a78920e1fc84445732202124cfe872267389ac6dba0de63701c02ecfeffffff0208ac0a00000000001976a9149d7f542c701f593bfed21c200b80a7c7fe8c595f88ac40420f00000000001976a914f582db0bf52901ee8739b1f58714e0c95a1f4abf88acb0c31400"
    }
  ],
  "time": 1517485877,
  "mediantime": 1517484942,
  "nonce": 2966619569,
  "bits": "1a04088e",
  "difficulty": 4159490.835685156,
  "chainwork": "0000000000000000000000000000000000000000000000354b62a36256481af0",
  "previousblockhash": "216abbbb91905785c806cb510cd1f825d818c9cc95142991a1708a7ce972b3ce",
  "nextblockhash": "3df5bc71c422514b939cdec53f4d3b6cf46a4d32e0050182b1d40547a72c13dc"
}
