{
  "hash": "087b4404a379dcad1cc37102e6fd42719301c52ea7ab2d2fa7b03d7a000372c2",
  "confirmations": 2487,
  "strippedsize": 255,
  "size": 255,
  "weight": 1020,
  "height": 1358508,
  "version": 536870912,
  "versionHex": "20000000",
  "merkleroot": "c4661d37ebea460253a8a56bb2f48690d1dfc6b36f698bbac9ef5412003509b9",
  "tx": [
    {
      "txid": "c4661d37ebea460253a8a56bb2f48690d1dfc6b36f698bbac9ef5412003509b9",
      "hash": "c4661d37ebea460253a8a56bb2f48690d1dfc6b36f698bbac9ef5412003509b9",
      "version": 1,
      "size": 174,
      "vsize": 174,
      "locktime": 0,
      "vin": [
        {
          "coinbase": "03acba141c4d696e656420627920416e74506f6f6c20626a3242205a6de5a606f5fabe6d6d6949ba35ab233a1831dccea08e0901796fee2f08f6518f64ca219c300f6016810400000000000000fe2600000000000010000000",
          "sequence": 4294967295
        }
      ],
      "vout": [
        {
          "value": 25.00000000,
          "n": 0,
          "scriptPubKey": {
            "asm": "OP_DUP OP_HASH160 0ff3ccc5e8be88afe24b5d634e5852d474dbdff1 OP_EQUALVERIFY OP_CHECKSIG",
            "hex": "76a9140ff3ccc5e8be88afe24b5d634e5852d474dbdff188ac",
            "reqSigs": 1,
            "type": "pubkeyhash",
            "addresses": [
              "LLgJTbzZMsRTCUF1NtvvL9SR1a4pVieW89"
            ]
          }
        }
      ],
      "hex": "01000000010000000000000000000000000000000000000000000000000000000000000000ffffffff5903acba141c4d696e656420627920416e74506f6f6c20626a3242205a6de5a606f5fabe6d6d6949ba35ab233a1831dccea08e0901796fee2f08f6518f64ca219c300f6016810400000000000000fe2600000000000010000000ffffffff0100f90295000000001976a9140ff3ccc5e8be88afe24b5d634e5852d474dbdff188ac00000000"
    }
  ],
  "time": 1517151654,
  "mediantime": 1517151080,
  "nonce": 3222094423,
  "bits": "1a047f14",
  "difficulty": 3731199.183374282,
  "chainwork": "000000000000000000000000000000000000000000000033277cf365e9ca9492",
  "previousblockhash": "1e7cc65819ed72713509b293c797e67a154c59d7922ab0f5a3c84a5932c946cb",
  "nextblockhash": "36caad202cadd5b7f40dbb92bcd715797e6825eb535fe118c0620a8db4e8801c"
}
