{
  "hash": "08de00f4db5d257978a9a459a29ae73f15a8901ef50dab778152c016dad7b471",
  "confirmations": 1612,
  "strippedsize": 1868,
  "size": 1904,
  "weight": 7508,
  "height": 1359382,
  "version": 536870912,
  "versionHex": "20000000",
  "merkleroot": "03c0f8ebb57489d8c9193cf34cee65de8e9887df488ebed76af8d1e6feaf3f3c",
  "tx": [
    {
      "txid": "459fb80e08554ebeba3aaced3bd280bbec553d52fd8757ad9f206ce3ef0fbf9c",
      "hash": "0d9d90e426e2474b057d8bd43a972bce6f1d64d7ed6d1e2ee056d15ba07ad4a0",
      "version": 1,
      "size": 244,
      "vsize": 217,
      "locktime": 0,
      "vin": [
        {
          "coinbase": "0316be1404e8c46f5a0801076b3f37000000fabe6d6db905dfc2802c3a1e27cb32f4fdea7a1d65d27030c866ebb72ed1c48a8ddda94e40000000000000000d2f6e6f64655374726174756d2f",
          "sequence": 0
        }
      ],
      "vout": [
        {
          "value": 25.00542400,
          "n": 0,
          "scriptPubKey": {
            "asm": "OP_DUP OP_HASH160 0c617fdb2ea42aed30a509595ee21ba3f6688db0 OP_EQUALVERIFY OP_CHECKSIG",
            "hex": "76a9140c617fdb2ea42aed30a509595ee21ba3f6688db088ac",
            "reqSigs": 1,
            "type": "pubkeyhash",
            "addresses": [
              "LLMRAtr3qBje2ySEa3CnZ55LA4TQMWnRY3"
            ]
          }
        }, 
        {
          "value": 0.00000000,
          "n": 1,
          "scriptPubKey": {
            "asm": "OP_RETURN aa21a9ed240d7ef4f84b476113db91c83aaaac5d9539b73e72004c432e2cb8d6fd745ede",
            "hex": "6a24aa21a9ed240d7ef4f84b476113db91c83aaaac5d9539b73e72004c432e2cb8d6fd745ede",
            "type": "nulldata"
          }
        }
      ],
      "hex": "010000000001010000000000000000000000000000000000000000000000000000000000000000ffffffff4c0316be1404e8c46f5a0801076b3f37000000fabe6d6db905dfc2802c3a1e27cb32f4fdea7a1d65d27030c866ebb72ed1c48a8ddda94e40000000000000000d2f6e6f64655374726174756d2f0000000002c03f0b95000000001976a9140c617fdb2ea42aed30a509595ee21ba3f6688db088ac0000000000000000266a24aa21a9ed240d7ef4f84b476113db91c83aaaac5d9539b73e72004c432e2cb8d6fd745ede0120000000000000000000000000000000000000000000000000000000000000000000000000"
    }, 
    {
      "txid": "1159f188888be930a10f3ebb6e0c3d2b9463ceede8fada2d31f45c441f56a875",
      "hash": "1159f188888be930a10f3ebb6e0c3d2b9463ceede8fada2d31f45c441f56a875",
      "version": 1,
      "size": 226,
      "vsize": 226,
      "locktime": 0,
      "vin": [
        {
          "txid": "28baed1aeb542c8952ff0c37c73e3bcb3d88d4129c848545cc36d6f046f10eab",
          "vout": 1,
          "scriptSig": {
            "asm": "3045022100a3f0f506e64fe74f747182ad850bd828c965497e9a72e3da35d4abf3dd0f27f0022011d9742f15821ae49d2b9ecb9e105a7a22b8c1519a812045d017f849ecc837f9[ALL] 02e4a1a21b5ccd7c11234b72de590d9da0ce5222e9e2a4c44f3d5deb725542d509",
            "hex": "483045022100a3f0f506e64fe74f747182ad850bd828c965497e9a72e3da35d4abf3dd0f27f0022011d9742f15821ae49d2b9ecb9e105a7a22b8c1519a812045d017f849ecc837f9012102e4a1a21b5ccd7c11234b72de590d9da0ce5222e9e2a4c44f3d5deb725542d509"
          },
          "sequence": 4294967295
        }
      ],
      "vout": [
        {
          "value": 26.43397258,
          "n": 0,
          "scriptPubKey": {
            "asm": "OP_DUP OP_HASH160 ac7673f1b31aca7c599b3b48c7982ea411d9afc1 OP_EQUALVERIFY OP_CHECKSIG",
            "hex": "76a914ac7673f1b31aca7c599b3b48c7982ea411d9afc188ac",
            "reqSigs": 1,
            "type": "pubkeyhash",
            "addresses": [
              "LawrPTe1nY7LW4BHw2CNiCnqX4F8Q23RSW"
            ]
          }
        }, 
        {
          "value": 235.11377231,
          "n": 1,
          "scriptPubKey": {
            "asm": "OP_DUP OP_HASH160 9105eea1a1cb2d3849c0204bcd9b64eb1605fc8d OP_EQUALVERIFY OP_CHECKSIG",
            "hex": "76a9149105eea1a1cb2d3849c0204bcd9b64eb1605fc8d88ac",
            "reqSigs": 1,
            "type": "pubkeyhash",
            "addresses": [
              "LYSmMCem4vg8a3bk6atzFtYRavQ4cJdhrP"
            ]
          }
        }
      ],
      "hex": "0100000001ab0ef146f0d636cc4585849c12d4883dcb3b3ec7370cff52892c54eb1aedba28010000006b483045022100a3f0f506e64fe74f747182ad850bd828c965497e9a72e3da35d4abf3dd0f27f0022011d9742f15821ae49d2b9ecb9e105a7a22b8c1519a812045d017f849ecc837f9012102e4a1a21b5ccd7c11234b72de590d9da0ce5222e9e2a4c44f3d5deb725542d509ffffffff028a0a8f9d000000001976a914ac7673f1b31aca7c599b3b48c7982ea411d9afc188ac4f256379050000001976a9149105eea1a1cb2d3849c0204bcd9b64eb1605fc8d88ac00000000"
    }, 
    {
      "txid": "e173331bef213902b148ee5b7d70cd83d2e66cc45fc0413e46757ff56ce2c78a",
      "hash": "e173331bef213902b148ee5b7d70cd83d2e66cc45fc0413e46757ff56ce2c78a",
      "version": 1,
      "size": 226,
      "vsize": 226,
      "locktime": 0,
      "vin": [
        {
          "txid": "447bbec50a2442423aaa615b12e481dbdbf53d28caed5389b974c5091b286194",
          "vout": 0,
          "scriptSig": {
            "asm": "3045022100ede6da5b0fb1753180d17e86cf27044ed456115414c35ee5e80b03efbdf196d70220337ecca7bcd4e61ddd166bc0d5a9e3fd1d487b55ab0c607e8638ba1a0f1b8a78[ALL] 0334b18036016aaaded8efa1d9077c6a4db8f442cfb91f81fd4e30030c2e99bb51",
            "hex": "483045022100ede6da5b0fb1753180d17e86cf27044ed456115414c35ee5e80b03efbdf196d70220337ecca7bcd4e61ddd166bc0d5a9e3fd1d487b55ab0c607e8638ba1a0f1b8a7801210334b18036016aaaded8efa1d9077c6a4db8f442cfb91f81fd4e30030c2e99bb51"
          },
          "sequence": 4294967295
        }
      ],
      "vout": [
        {
          "value": 1.34529148,
          "n": 0,
          "scriptPubKey": {
            "asm": "OP_DUP OP_HASH160 9b21b3318d04932663ce513a6fdda2fcbb2b7b9e OP_EQUALVERIFY OP_CHECKSIG",
            "hex": "76a9149b21b3318d04932663ce513a6fdda2fcbb2b7b9e88ac",
            "reqSigs": 1,
            "type": "pubkeyhash",
            "addresses": [
              "LZNDNTkX88iF6k3JFgjqm3tr2MUtUZStd4"
            ]
          }
        }, 
        {
          "value": 2.56274816,
          "n": 1,
          "scriptPubKey": {
            "asm": "OP_DUP OP_HASH160 8a0f7c6363d4901ee3c0cf4a892b1c71e10d4fad OP_EQUALVERIFY OP_CHECKSIG",
            "hex": "76a9148a0f7c6363d4901ee3c0cf4a892b1c71e10d4fad88ac",
            "reqSigs": 1,
            "type": "pubkeyhash",
            "addresses": [
              "LXox4fUh4NgvxJHxrB3RSPAYYqFk7Mhosy"
            ]
          }
        }
      ],
      "hex": "01000000019461281b09c574b98953edca283df5dbdb81e4125b61aa3a4242240ac5be7b44000000006b483045022100ede6da5b0fb1753180d17e86cf27044ed456115414c35ee5e80b03efbdf196d70220337ecca7bcd4e61ddd166bc0d5a9e3fd1d487b55ab0c607e8638ba1a0f1b8a7801210334b18036016aaaded8efa1d9077c6a4db8f442cfb91f81fd4e30030c2e99bb51ffffffff027cc00408000000001976a9149b21b3318d04932663ce513a6fdda2fcbb2b7b9e88ac8071460f000000001976a9148a0f7c6363d4901ee3c0cf4a892b1c71e10d4fad88ac00000000"
    }, 
    {
      "txid": "a7a5e082d8146a9f4796c79437f0b0f57d169cddd21694b6c571dc43ecb37b16",
      "hash": "a7a5e082d8146a9f4796c79437f0b0f57d169cddd21694b6c571dc43ecb37b16",
      "version": 1,
      "size": 225,
      "vsize": 225,
      "locktime": 1359380,
      "vin": [
        {
          "txid": "4ff66dd8d3d444904282edc292263f82384ad943d6e3ad3b31e39f579bf877ac",
          "vout": 0,
          "scriptSig": {
            "asm": "3044022032bce794208c5810509ec81d8ad104b7caffad30fb0d7b36f013e2c7414c91d5022031e07706beab5ea9eac68c539857f46145bdc5342df5dc6cc1d2bf322c5a8a35[ALL] 0288b453428767f48b26e9996ec1fbe3f2b2865c6f622c74f8fc36ac16422317c2",
            "hex": "473044022032bce794208c5810509ec81d8ad104b7caffad30fb0d7b36f013e2c7414c91d5022031e07706beab5ea9eac68c539857f46145bdc5342df5dc6cc1d2bf322c5a8a3501210288b453428767f48b26e9996ec1fbe3f2b2865c6f622c74f8fc36ac16422317c2"
          },
          "sequence": 4294967294
        }
      ],
      "vout": [
        {
          "value": 1.51000000,
          "n": 0,
          "scriptPubKey": {
            "asm": "OP_DUP OP_HASH160 5c38fdfd96fb3416427ff026d5b20c499eedb9a5 OP_EQUALVERIFY OP_CHECKSIG",
            "hex": "76a9145c38fdfd96fb3416427ff026d5b20c499eedb9a588ac",
            "reqSigs": 1,
            "type": "pubkeyhash",
            "addresses": [
              "LTdahkBzuWpCc8DbHH35DXWYN8CTuPn3xy"
            ]
          }
        }, 
        {
          "value": 12.45932300,
          "n": 1,
          "scriptPubKey": {
            "asm": "OP_DUP OP_HASH160 634e36f877a263533f858409465ca715c7b56fb9 OP_EQUALVERIFY OP_CHECKSIG",
            "hex": "76a914634e36f877a263533f858409465ca715c7b56fb988ac",
            "reqSigs": 1,
            "type": "pubkeyhash",
            "addresses": [
              "LUH2rfAe9HcWFqvztWYo7uFhH5c2CnVGts"
            ]
          }
        }
      ],
      "hex": "0100000001ac77f89b579fe3313bade3d643d94a38823f2692c2ed82429044d4d3d86df64f000000006a473044022032bce794208c5810509ec81d8ad104b7caffad30fb0d7b36f013e2c7414c91d5022031e07706beab5ea9eac68c539857f46145bdc5342df5dc6cc1d2bf322c5a8a3501210288b453428767f48b26e9996ec1fbe3f2b2865c6f622c74f8fc36ac16422317c2feffffff02c0130009000000001976a9145c38fdfd96fb3416427ff026d5b20c499eedb9a588ac0c6b434a000000001976a914634e36f877a263533f858409465ca715c7b56fb988ac14be1400"
    }, 
    {
      "txid": "f5918859672245150d7925e824fcc1d3c10747bbb1016fb975dbaade5fb6ae17",
      "hash": "f5918859672245150d7925e824fcc1d3c10747bbb1016fb975dbaade5fb6ae17",
      "version": 1,
      "size": 225,
      "vsize": 225,
      "locktime": 0,
      "vin": [
        {
          "txid": "4c1ceef6f0c028b46c672ad28c19565f6a9985b73575298130783e692e6cfad1",
          "vout": 6,
          "scriptSig": {
            "asm": "30440220265a7b93883bd602456625d29df5f63fb948b5b46059eeb4998533b6e111127202203ae831034c77f8d831da1d5c14ac086737f050831157ad7e83572fa68b309fc6[ALL] 0327b93bf02f28377745331192d997853e6810057c7440e892794404dbb3e9a73f",
            "hex": "4730440220265a7b93883bd602456625d29df5f63fb948b5b46059eeb4998533b6e111127202203ae831034c77f8d831da1d5c14ac086737f050831157ad7e83572fa68b309fc601210327b93bf02f28377745331192d997853e6810057c7440e892794404dbb3e9a73f"
          },
          "sequence": 4294967295
        }
      ],
      "vout": [
        {
          "value": 0.03547005,
          "n": 0,
          "scriptPubKey": {
            "asm": "OP_DUP OP_HASH160 c8dac6158f3230759ec72a644f966ae49700f17d OP_EQUALVERIFY OP_CHECKSIG",
            "hex": "76a914c8dac6158f3230759ec72a644f966ae49700f17d88ac",
            "reqSigs": 1,
            "type": "pubkeyhash",
            "addresses": [
              "LdXyVFGkKnc8HBfrBcXVwLaFXuhfDkcbjz"
            ]
          }
        }, 
        {
          "value": 0.35407795,
          "n": 1,
          "scriptPubKey": {
            "asm": "OP_DUP OP_HASH160 ca80e4fda09a1b7267aeebcca68cb84015aaa76c OP_EQUALVERIFY OP_CHECKSIG",
            "hex": "76a914ca80e4fda09a1b7267aeebcca68cb84015aaa76c88ac",
            "reqSigs": 1,
            "type": "pubkeyhash",
            "addresses": [
              "LdghAi6GQfGyKmUuYQZAKHobCCF6jDyFAC"
            ]
          }
        }
      ],
      "hex": "0100000001d1fa6c2e693e783081297535b785996a5f56198cd22a676cb428c0f0f6ee1c4c060000006a4730440220265a7b93883bd602456625d29df5f63fb948b5b46059eeb4998533b6e111127202203ae831034c77f8d831da1d5c14ac086737f050831157ad7e83572fa68b309fc601210327b93bf02f28377745331192d997853e6810057c7440e892794404dbb3e9a73fffffffff027d1f3600000000001976a914c8dac6158f3230759ec72a644f966ae49700f17d88acb3471c02000000001976a914ca80e4fda09a1b7267aeebcca68cb84015aaa76c88ac00000000"
    }, 
    {
      "txid": "f6dc63f989ef8c53bec1be5dca791df7390ad811e60f9c50a3c0d4fda35b0f5c",
      "hash": "f6dc63f989ef8c53bec1be5dca791df7390ad811e60f9c50a3c0d4fda35b0f5c",
      "version": 1,
      "size": 225,
      "vsize": 225,
      "locktime": 0,
      "vin": [
        {
          "txid": "5eb1a820ede210330a06477358e41733853982bc4b85e24cc2ef082571ad4e31",
          "vout": 0,
          "scriptSig": {
            "asm": "304402203778e70758e168b8a7805e1612424e72358f8b6dae22a72bee78d73adf23e377022068043d143aafaf9203e887e34dc239714eb49de5afaae076af02674db0a5b6ea[ALL] 032186577c65a7249ca273e8757cf993076eb58c275d7a102113b6ec33c36db780",
            "hex": "47304402203778e70758e168b8a7805e1612424e72358f8b6dae22a72bee78d73adf23e377022068043d143aafaf9203e887e34dc239714eb49de5afaae076af02674db0a5b6ea0121032186577c65a7249ca273e8757cf993076eb58c275d7a102113b6ec33c36db780"
          },
          "sequence": 4294967295
        }
      ],
      "vout": [
        {
          "value": 75.97295547,
          "n": 0,
          "scriptPubKey": {
            "asm": "OP_DUP OP_HASH160 aee2a7d384be841f37b3cfb528b83818628ab875 OP_EQUALVERIFY OP_CHECKSIG",
            "hex": "76a914aee2a7d384be841f37b3cfb528b83818628ab87588ac",
            "reqSigs": 1,
            "type": "pubkeyhash",
            "addresses": [
              "LbAfMtxhVLsuyr8H5BVySaG53uGAiY9sPu"
            ]
          }
        }, 
        {
          "value": 1.00000000,
          "n": 1,
          "scriptPubKey": {
            "asm": "OP_DUP OP_HASH160 ee5a98d2f27c6680df97d0217ff757694f39dc40 OP_EQUALVERIFY OP_CHECKSIG",
            "hex": "76a914ee5a98d2f27c6680df97d0217ff757694f39dc4088ac",
            "reqSigs": 1,
            "type": "pubkeyhash",
            "addresses": [
              "LgxFcf2PDf6BKUAgeWUgwcAHtHsWmxew2p"
            ]
          }
        }
      ],
      "hex": "0100000001314ead712508efc24ce2854bbc8239853317e4587347060a3310e2ed20a8b15e000000006a47304402203778e70758e168b8a7805e1612424e72358f8b6dae22a72bee78d73adf23e377022068043d143aafaf9203e887e34dc239714eb49de5afaae076af02674db0a5b6ea0121032186577c65a7249ca273e8757cf993076eb58c275d7a102113b6ec33c36db780ffffffff02bb87d5c4010000001976a914aee2a7d384be841f37b3cfb528b83818628ab87588ac00e1f505000000001976a914ee5a98d2f27c6680df97d0217ff757694f39dc4088ac00000000"
    }, 
    {
      "txid": "a61a76b70e92d4e131cecb0d6893f0f41f30bd010863caa541be6490af834f1e",
      "hash": "a61a76b70e92d4e131cecb0d6893f0f41f30bd010863caa541be6490af834f1e",
      "version": 1,
      "size": 226,
      "vsize": 226,
      "locktime": 1359380,
      "vin": [
        {
          "txid": "ebdda58a9cbbfd470ddc3f4bc6b098e8cfd507f0d8ae93a549306b3ec8af2f84",
          "vout": 1,
          "scriptSig": {
            "asm": "3045022100c2f78638bafdc62167025f79fb304bdf9245a44353bcdeca3e26f4eed6c20a2502204b8ce3721f003fd9374016ae4372447629fd88c51659caeb9fe781fc2a33701b[ALL] 0269f8d297697930b57ab60213a9387dcb39f084ebf07feaf2dec8d68fe42e5814",
            "hex": "483045022100c2f78638bafdc62167025f79fb304bdf9245a44353bcdeca3e26f4eed6c20a2502204b8ce3721f003fd9374016ae4372447629fd88c51659caeb9fe781fc2a33701b01210269f8d297697930b57ab60213a9387dcb39f084ebf07feaf2dec8d68fe42e5814"
          },
          "sequence": 4294967294
        }
      ],
      "vout": [
        {
          "value": 13.69319300,
          "n": 0,
          "scriptPubKey": {
            "asm": "OP_DUP OP_HASH160 e3fefb061ac1682b2f1a2ab78573d7c8a84c47e7 OP_EQUALVERIFY OP_CHECKSIG",
            "hex": "76a914e3fefb061ac1682b2f1a2ab78573d7c8a84c47e788ac",
            "reqSigs": 1,
            "type": "pubkeyhash",
            "addresses": [
              "Lg1V77q3jmQ2QLoj28SPrR7kBeN5L9CVeB"
            ]
          }
        }, 
        {
          "value": 1.00000000,
          "n": 1,
          "scriptPubKey": {
            "asm": "OP_DUP OP_HASH160 4ef1f665aec3338639c835d4442c8895b5c2b7ca OP_EQUALVERIFY OP_CHECKSIG",
            "hex": "76a9144ef1f665aec3338639c835d4442c8895b5c2b7ca88ac",
            "reqSigs": 1,
            "type": "pubkeyhash",
            "addresses": [
              "LSRNq2MrU5t5Sb8SEi8ofFWxu5AKfEU8wn"
            ]
          }
        }
      ],
      "hex": "0100000001842fafc83e6b3049a593aed8f007d5cfe898b0c64b3fdc0d47fdbb9c8aa5ddeb010000006b483045022100c2f78638bafdc62167025f79fb304bdf9245a44353bcdeca3e26f4eed6c20a2502204b8ce3721f003fd9374016ae4372447629fd88c51659caeb9fe781fc2a33701b01210269f8d297697930b57ab60213a9387dcb39f084ebf07feaf2dec8d68fe42e5814feffffff0284279e51000000001976a914e3fefb061ac1682b2f1a2ab78573d7c8a84c47e788ac00e1f505000000001976a9144ef1f665aec3338639c835d4442c8895b5c2b7ca88ac14be1400"
    }, 
    {
      "txid": "177440fac8049ce43b22038fe8cd6eca9e974c2570990acb096efc233e8805aa",
      "hash": "177440fac8049ce43b22038fe8cd6eca9e974c2570990acb096efc233e8805aa",
      "version": 1,
      "size": 226,
      "vsize": 226,
      "locktime": 0,
      "vin": [
        {
          "txid": "d61db5be8816290c488c8c50212dc4be67000102c2b8a4a6119e39d558b43653",
          "vout": 1,
          "scriptSig": {
            "asm": "3045022100c0824a8eff1eee860f75158b06ffc9d534ad415aac0114ac8f410c7d8a7a25410220377129249dc7f4689056cb9aa83ad332bcb9909fe5727a7e0f329f8142415001[ALL] 03e13fab0c176aae5e60ff50b0d1250db244540c60e704eae0924ae69255491a7a",
            "hex": "483045022100c0824a8eff1eee860f75158b06ffc9d534ad415aac0114ac8f410c7d8a7a25410220377129249dc7f4689056cb9aa83ad332bcb9909fe5727a7e0f329f8142415001012103e13fab0c176aae5e60ff50b0d1250db244540c60e704eae0924ae69255491a7a"
          },
          "sequence": 4294967295
        }
      ],
      "vout": [
        {
          "value": 75.12065427,
          "n": 0,
          "scriptPubKey": {
            "asm": "OP_DUP OP_HASH160 edf0ea85a447a961d91cd13952a1f6daa2ad67d4 OP_EQUALVERIFY OP_CHECKSIG",
            "hex": "76a914edf0ea85a447a961d91cd13952a1f6daa2ad67d488ac",
            "reqSigs": 1,
            "type": "pubkeyhash",
            "addresses": [
              "Lgv51paBkwoQvnNrWQnWW8MmworTyYZhUE"
            ]
          }
        }, 
        {
          "value": 2.77971000,
          "n": 1,
          "scriptPubKey": {
            "asm": "OP_DUP OP_HASH160 fd2d92f52f7d61119dee9e34077d13fb311b0f01 OP_EQUALVERIFY OP_CHECKSIG",
            "hex": "76a914fd2d92f52f7d61119dee9e34077d13fb311b0f0188ac",
            "reqSigs": 1,
            "type": "pubkeyhash",
            "addresses": [
              "LiJdpHbJbdNgUmk9Sqh5Th6AmzZsAxnNJc"
            ]
          }
        }
      ],
      "hex": "01000000015336b458d5399e11a6a4b8c202010067bec42d21508c8c480c291688beb51dd6010000006b483045022100c0824a8eff1eee860f75158b06ffc9d534ad415aac0114ac8f410c7d8a7a25410220377129249dc7f4689056cb9aa83ad332bcb9909fe5727a7e0f329f8142415001012103e13fab0c176aae5e60ff50b0d1250db244540c60e704eae0924ae69255491a7affffffff029305c1bf010000001976a914edf0ea85a447a961d91cd13952a1f6daa2ad67d488ac38809110000000001976a914fd2d92f52f7d61119dee9e34077d13fb311b0f0188ac00000000"
    }
  ],
  "time": 1517274262,
  "mediantime": 1517273403,
  "nonce": 3640789958,
  "bits": "1a042eae",
  "difficulty": 4011378.762614286,
  "chainwork": "000000000000000000000000000000000000000000000033f3de8b6dbdb243ae",
  "previousblockhash": "cbf46cb89293a839cd36535d1483286da79440c78ec31935ec1b6e79d6170c50",
  "nextblockhash": "b4e49dba03cf06fad45d4b604f994dbee9fdb2fba6112a75dcf404910ba1498a"
}
