{
  "hash": "09530f255d8fa23f11bca161addc8c27624b2453c18b462f9ec192ca38b936cc",
  "confirmations": 14,
  "strippedsize": 3953,
  "size": 3989,
  "weight": 15848,
  "height": 1360980,
  "version": 536870912,
  "versionHex": "20000000",
  "merkleroot": "ae9c47e719c1eb0e223f485d6368597dda460530acb6482abb51d9bc531a5db8",
  "tx": [
    {
      "txid": "35cea75cc032796c41deaceb98fda931a50315bcb12698a1bc8bce2d816a2539",
      "hash": "8251403f3c5297d88ac5f8922927511f7e83921bbbfe64c678727f600830d2b3",
      "version": 1,
      "size": 236,
      "vsize": 209,
      "locktime": 0,
      "vin": [
        {
          "coinbase": "0354c414045a734d1d2cfabe6d6d28eac909148b82b683599bac9b5780fca184773d0981ab92a975c1177a3f02d84000000000000000042f4c502f082200200104000000",
          "sequence": 4294967295
        }
      ],
      "vout": [
        {
          "value": 25.01154700,
          "n": 0,
          "scriptPubKey": {
            "asm": "OP_DUP OP_HASH160 57757ed2ecf2052ff3126c397aca7defb9ca2cec OP_EQUALVERIFY OP_CHECKSIG",
            "hex": "76a91457757ed2ecf2052ff3126c397aca7defb9ca2cec88ac",
            "reqSigs": 1,
            "type": "pubkeyhash",
            "addresses": [
              "LTCPodGk5FwcJaRzH9yKnwicxzFUbxp6tN"
            ]
          }
        }, 
        {
          "value": 0.00000000,
          "n": 1,
          "scriptPubKey": {
            "asm": "OP_RETURN aa21a9ed90efa9d04365a81cb3372f505ca51f2cd45696ac2a25dfd85a47db75a12d050d",
            "hex": "6a24aa21a9ed90efa9d04365a81cb3372f505ca51f2cd45696ac2a25dfd85a47db75a12d050d",
            "type": "nulldata"
          }
        }
      ],
      "hex": "010000000001010000000000000000000000000000000000000000000000000000000000000000ffffffff440354c414045a734d1d2cfabe6d6d28eac909148b82b683599bac9b5780fca184773d0981ab92a975c1177a3f02d84000000000000000042f4c502f082200200104000000ffffffff028c971495000000001976a91457757ed2ecf2052ff3126c397aca7defb9ca2cec88ac0000000000000000266a24aa21a9ed90efa9d04365a81cb3372f505ca51f2cd45696ac2a25dfd85a47db75a12d050d0120000000000000000000000000000000000000000000000000000000000000000000000000"
    }, 
    {
      "txid": "b2f6ae27415f6bbe81af3c734dcd8209236c9a013a7e1043688ac2ac85de1f6e",
      "hash": "b2f6ae27415f6bbe81af3c734dcd8209236c9a013a7e1043688ac2ac85de1f6e",
      "version": 1,
      "size": 814,
      "vsize": 814,
      "locktime": 0,
      "vin": [
        {
          "txid": "371ca7617482bc4c4be867a06e25e662ef8c743f2ee2a8a03e37152b80f9b3f5",
          "vout": 110,
          "scriptSig": {
            "asm": "3045022100ae34ea4e87ef8f87b7258999a2bc18b999d55dd4f6ae760270af599b6a6b953d022062f37730c2f1b101449be6c5a7252476203bf90af99e89d280a9cd0f904b8e98[ALL] 0374f23186b3362cecca0c09fc14662b455179f6ab1c6752cdc90801ee5d29622c",
            "hex": "483045022100ae34ea4e87ef8f87b7258999a2bc18b999d55dd4f6ae760270af599b6a6b953d022062f37730c2f1b101449be6c5a7252476203bf90af99e89d280a9cd0f904b8e9801210374f23186b3362cecca0c09fc14662b455179f6ab1c6752cdc90801ee5d29622c"
          },
          "sequence": 4294967295
        }, 
        {
          "txid": "ae3bf8f668b00655ac1b7f6c6247faf9c1133bedb233d8873b19b37640ff28d6",
          "vout": 108,
          "scriptSig": {
            "asm": "3045022100e44c78c15d5d94a607c63505e54f6344f0a097ee0c98b1d8fbdcbe8d816555e3022057d92393d28d58368474d5c2c38d2537f83069dba50616398650fb9138cd40a3[ALL] 0374f23186b3362cecca0c09fc14662b455179f6ab1c6752cdc90801ee5d29622c",
            "hex": "483045022100e44c78c15d5d94a607c63505e54f6344f0a097ee0c98b1d8fbdcbe8d816555e3022057d92393d28d58368474d5c2c38d2537f83069dba50616398650fb9138cd40a301210374f23186b3362cecca0c09fc14662b455179f6ab1c6752cdc90801ee5d29622c"
          },
          "sequence": 4294967295
        }, 
        {
          "txid": "7ecf4bd63eecd94d40fe5877102d23a7844678e306491949ae2c63fa6fce34aa",
          "vout": 108,
          "scriptSig": {
            "asm": "304402200da333da60c835c162fb296aa591b3e6d887dd8e715fc8310e52abe246af3a0a02202fccb0d1547f0d6141ffa44f30af41702a120a0ed8f97696979f956a78bd6f3e[ALL] 0374f23186b3362cecca0c09fc14662b455179f6ab1c6752cdc90801ee5d29622c",
            "hex": "47304402200da333da60c835c162fb296aa591b3e6d887dd8e715fc8310e52abe246af3a0a02202fccb0d1547f0d6141ffa44f30af41702a120a0ed8f97696979f956a78bd6f3e01210374f23186b3362cecca0c09fc14662b455179f6ab1c6752cdc90801ee5d29622c"
          },
          "sequence": 4294967295
        }, 
        {
          "txid": "8e1317049827f908b51f962853951a3dc4759017350482a739b120a7987b7716",
          "vout": 113,
          "scriptSig": {
            "asm": "3044022024401888193dd1b44493a202df03fc10643783f4f9b5dd80a74a4ffdea5f4cd102206796cfb71685c1ba0d38b06bea2f08694c071afd4eb95a13b2eb272db45fee39[ALL] 0374f23186b3362cecca0c09fc14662b455179f6ab1c6752cdc90801ee5d29622c",
            "hex": "473044022024401888193dd1b44493a202df03fc10643783f4f9b5dd80a74a4ffdea5f4cd102206796cfb71685c1ba0d38b06bea2f08694c071afd4eb95a13b2eb272db45fee3901210374f23186b3362cecca0c09fc14662b455179f6ab1c6752cdc90801ee5d29622c"
          },
          "sequence": 4294967295
        }, 
        {
          "txid": "e24968994699bc02fb699fe384a94537c16b4e527562a369d273e91002ab0745",
          "vout": 110,
          "scriptSig": {
            "asm": "3045022100deec778e4743b4c2dc182aaef430bfd5088704272c1add290b2f5b12a746e7d8022026c888aa38ec16e2b87484233d55acdb9e1b628a8919d38c501c0a4ef806899e[ALL] 0374f23186b3362cecca0c09fc14662b455179f6ab1c6752cdc90801ee5d29622c",
            "hex": "483045022100deec778e4743b4c2dc182aaef430bfd5088704272c1add290b2f5b12a746e7d8022026c888aa38ec16e2b87484233d55acdb9e1b628a8919d38c501c0a4ef806899e01210374f23186b3362cecca0c09fc14662b455179f6ab1c6752cdc90801ee5d29622c"
          },
          "sequence": 4294967295
        }
      ],
      "vout": [
        {
          "value": 0.50000000,
          "n": 0,
          "scriptPubKey": {
            "asm": "OP_HASH160 bc9d108b40769c026ee979abb0a203407306c595 OP_EQUAL",
            "hex": "a914bc9d108b40769c026ee979abb0a203407306c59587",
            "reqSigs": 1,
            "type": "scripthash",
            "addresses": [
              "MR6TRY2YN7xayoP2RCvWk77ERQvYdj9ZUn"
            ]
          }
        }, 
        {
          "value": 0.04572725,
          "n": 1,
          "scriptPubKey": {
            "asm": "OP_DUP OP_HASH160 b80ccb1ebaf9a4d0caaef65072caad8e828e51ee OP_EQUALVERIFY OP_CHECKSIG",
            "hex": "76a914b80ccb1ebaf9a4d0caaef65072caad8e828e51ee88ac",
            "reqSigs": 1,
            "type": "pubkeyhash",
            "addresses": [
              "Lc17vQw5EK3z46ctzAdjaZCFsBF7ESeCaT"
            ]
          }
        }
      ],
      "hex": "0100000005f5b3f9802b15373ea0a8e22e3f748cef62e6256ea067e84b4cbc827461a71c376e0000006b483045022100ae34ea4e87ef8f87b7258999a2bc18b999d55dd4f6ae760270af599b6a6b953d022062f37730c2f1b101449be6c5a7252476203bf90af99e89d280a9cd0f904b8e9801210374f23186b3362cecca0c09fc14662b455179f6ab1c6752cdc90801ee5d29622cffffffffd628ff4076b3193b87d833b2ed3b13c1f9fa47626c7f1bac5506b068f6f83bae6c0000006b483045022100e44c78c15d5d94a607c63505e54f6344f0a097ee0c98b1d8fbdcbe8d816555e3022057d92393d28d58368474d5c2c38d2537f83069dba50616398650fb9138cd40a301210374f23186b3362cecca0c09fc14662b455179f6ab1c6752cdc90801ee5d29622cffffffffaa34ce6ffa632cae49194906e3784684a7232d107758fe404dd9ec3ed64bcf7e6c0000006a47304402200da333da60c835c162fb296aa591b3e6d887dd8e715fc8310e52abe246af3a0a02202fccb0d1547f0d6141ffa44f30af41702a120a0ed8f97696979f956a78bd6f3e01210374f23186b3362cecca0c09fc14662b455179f6ab1c6752cdc90801ee5d29622cffffffff16777b98a720b139a7820435179075c43d1a955328961fb508f927980417138e710000006a473044022024401888193dd1b44493a202df03fc10643783f4f9b5dd80a74a4ffdea5f4cd102206796cfb71685c1ba0d38b06bea2f08694c071afd4eb95a13b2eb272db45fee3901210374f23186b3362cecca0c09fc14662b455179f6ab1c6752cdc90801ee5d29622cffffffff4507ab0210e973d269a36275524e6bc13745a984e39f69fb02bc9946996849e26e0000006b483045022100deec778e4743b4c2dc182aaef430bfd5088704272c1add290b2f5b12a746e7d8022026c888aa38ec16e2b87484233d55acdb9e1b628a8919d38c501c0a4ef806899e01210374f23186b3362cecca0c09fc14662b455179f6ab1c6752cdc90801ee5d29622cffffffff0280f0fa020000000017a914bc9d108b40769c026ee979abb0a203407306c5958735c64500000000001976a914b80ccb1ebaf9a4d0caaef65072caad8e828e51ee88ac00000000"
    }, 
    {
      "txid": "8e5dd109db8271cbbabb78d6a6e21813ed50c2ddc4e655a458ae4d8ba55fa07c",
      "hash": "8e5dd109db8271cbbabb78d6a6e21813ed50c2ddc4e655a458ae4d8ba55fa07c",
      "version": 1,
      "size": 225,
      "vsize": 225,
      "locktime": 0,
      "vin": [
        {
          "txid": "864828e0f7c544043cdf62d5047e36346cf2aeaba8bbef2561037426bd1bdf2c",
          "vout": 1,
          "scriptSig": {
            "asm": "3044022040379a14a731d56174ef78915eb676f5413322410ad0cfa01a73bfa41587b57f0220362ba4463eb18e81ec348492eec470daa8f48a220dc53fdc8b1df913fbb94b98[ALL] 03d5e7b51ec3e2b18eced7d901240185f5b8d6f7e72823b03e1f80a13c4a308d8c",
            "hex": "473044022040379a14a731d56174ef78915eb676f5413322410ad0cfa01a73bfa41587b57f0220362ba4463eb18e81ec348492eec470daa8f48a220dc53fdc8b1df913fbb94b98012103d5e7b51ec3e2b18eced7d901240185f5b8d6f7e72823b03e1f80a13c4a308d8c"
          },
          "sequence": 4294967295
        }
      ],
      "vout": [
        {
          "value": 0.01001180,
          "n": 0,
          "scriptPubKey": {
            "asm": "OP_DUP OP_HASH160 a3b5afdd80954c86d60aec365adc85e865e2b4e8 OP_EQUALVERIFY OP_CHECKSIG",
            "hex": "76a914a3b5afdd80954c86d60aec365adc85e865e2b4e888ac",
            "reqSigs": 1,
            "type": "pubkeyhash",
            "addresses": [
              "La9a4K9ERABmjiPiUA6XA7GkKvnWR2zkpk"
            ]
          }
        }, 
        {
          "value": 0.09216820,
          "n": 1,
          "scriptPubKey": {
            "asm": "OP_DUP OP_HASH160 01eed52ac3500c3c9adcb5130d574433ae4b40e6 OP_EQUALVERIFY OP_CHECKSIG",
            "hex": "76a91401eed52ac3500c3c9adcb5130d574433ae4b40e688ac",
            "reqSigs": 1,
            "type": "pubkeyhash",
            "addresses": [
              "LKQB3now8p2ovbnKWAcUoVtbK5BfzAQKc9"
            ]
          }
        }
      ],
      "hex": "01000000012cdf1bbd2674036125efbba8abaef26c34367e04d562df3c0444c5f7e0284886010000006a473044022040379a14a731d56174ef78915eb676f5413322410ad0cfa01a73bfa41587b57f0220362ba4463eb18e81ec348492eec470daa8f48a220dc53fdc8b1df913fbb94b98012103d5e7b51ec3e2b18eced7d901240185f5b8d6f7e72823b03e1f80a13c4a308d8cffffffff02dc460f00000000001976a914a3b5afdd80954c86d60aec365adc85e865e2b4e888ac34a38c00000000001976a91401eed52ac3500c3c9adcb5130d574433ae4b40e688ac00000000"
    }, 
    {
      "txid": "ff8420d0b448f4f3c4cd0ac6504754f2a36368593741b4809dfbbb7ca415ba22",
      "hash": "ff8420d0b448f4f3c4cd0ac6504754f2a36368593741b4809dfbbb7ca415ba22",
      "version": 1,
      "size": 225,
      "vsize": 225,
      "locktime": 0,
      "vin": [
        {
          "txid": "2473ee41fabca25db234839cf40478ed9d227a0ad34a0145eefad551cd96cbcc",
          "vout": 1,
          "scriptSig": {
            "asm": "304402202cd9782ea0b38280b905c677c8e7ab179691e6ad0dd0e0b7536a795e09301c250220575bfb974f442d8f3c973ba57e466e4ea65a86fa834e66ef5d1cae9723f57680[ALL] 0280aaf7fb41e352a74bd248e10bf548c1184ff6abadf77c1fd2e758b762db5889",
            "hex": "47304402202cd9782ea0b38280b905c677c8e7ab179691e6ad0dd0e0b7536a795e09301c250220575bfb974f442d8f3c973ba57e466e4ea65a86fa834e66ef5d1cae9723f5768001210280aaf7fb41e352a74bd248e10bf548c1184ff6abadf77c1fd2e758b762db5889"
          },
          "sequence": 4294967295
        }
      ],
      "vout": [
        {
          "value": 26.76908449,
          "n": 0,
          "scriptPubKey": {
            "asm": "OP_DUP OP_HASH160 b20be5d419efab7a01928eb3362692048642aef5 OP_EQUALVERIFY OP_CHECKSIG",
            "hex": "76a914b20be5d419efab7a01928eb3362692048642aef588ac",
            "reqSigs": 1,
            "type": "pubkeyhash",
            "addresses": [
              "LbTNo2huRVC2DTBbX2bjYeDhvbDJykBybD"
            ]
          }
        }, 
        {
          "value": 0.71816000,
          "n": 1,
          "scriptPubKey": {
            "asm": "OP_DUP OP_HASH160 c2ef1ec1490d6b505976ca4e7485dfa333710fab OP_EQUALVERIFY OP_CHECKSIG",
            "hex": "76a914c2ef1ec1490d6b505976ca4e7485dfa333710fab88ac",
            "reqSigs": 1,
            "type": "pubkeyhash",
            "addresses": [
              "Lczfona13mFytMHSzuQrGyEXuTPrQ5zm4f"
            ]
          }
        }
      ],
      "hex": "0100000001cccb96cd51d5faee45014ad30a7a229ded7804f49c8334b25da2bcfa41ee7324010000006a47304402202cd9782ea0b38280b905c677c8e7ab179691e6ad0dd0e0b7536a795e09301c250220575bfb974f442d8f3c973ba57e466e4ea65a86fa834e66ef5d1cae9723f5768001210280aaf7fb41e352a74bd248e10bf548c1184ff6abadf77c1fd2e758b762db5889ffffffff02a1618e9f000000001976a914b20be5d419efab7a01928eb3362692048642aef588ac40d34704000000001976a914c2ef1ec1490d6b505976ca4e7485dfa333710fab88ac00000000"
    }, 
    {
      "txid": "34942b6cf85560458fbe34c3205bbd652ab3e1c381439c8205822efa40e6a73c",
      "hash": "34942b6cf85560458fbe34c3205bbd652ab3e1c381439c8205822efa40e6a73c",
      "version": 1,
      "size": 225,
      "vsize": 225,
      "locktime": 0,
      "vin": [
        {
          "txid": "c1e25bc1bcc7dc66edd429f5392c3b955f65172f5ddcaf4b16972e7f3401f223",
          "vout": 1,
          "scriptSig": {
            "asm": "304402202567ce246a35ab1d3422dbab824ac6c142d7384b377deeaab0555db9280f9bc102205202ad4190eb27d939e4d47a281ed6a1b2f79a18ee288b9dbdcb3fc52395610d[ALL] 02ff392d96b974513a0be185d782a3e4eed9383afd4dead423717341fbd5422211",
            "hex": "47304402202567ce246a35ab1d3422dbab824ac6c142d7384b377deeaab0555db9280f9bc102205202ad4190eb27d939e4d47a281ed6a1b2f79a18ee288b9dbdcb3fc52395610d012102ff392d96b974513a0be185d782a3e4eed9383afd4dead423717341fbd5422211"
          },
          "sequence": 4294967295
        }
      ],
      "vout": [
        {
          "value": 0.00060807,
          "n": 0,
          "scriptPubKey": {
            "asm": "OP_DUP OP_HASH160 029e32f3b6c14e98e1ec350ade13cb8f72f5bdcc OP_EQUALVERIFY OP_CHECKSIG",
            "hex": "76a914029e32f3b6c14e98e1ec350ade13cb8f72f5bdcc88ac",
            "reqSigs": 1,
            "type": "pubkeyhash",
            "addresses": [
              "LKTo8TXC8PzGwbihBHSKqwjBN3VBjWMaZj"
            ]
          }
        }, 
        {
          "value": 0.11024744,
          "n": 1,
          "scriptPubKey": {
            "asm": "OP_DUP OP_HASH160 20183fd86a7c257be4c29d4930b391d798f0be58 OP_EQUALVERIFY OP_CHECKSIG",
            "hex": "76a91420183fd86a7c257be4c29d4930b391d798f0be5888ac",
            "reqSigs": 1,
            "type": "pubkeyhash",
            "addresses": [
              "LN9ewEF9BPDy2ETnu3zXZbyECBCa5NciHX"
            ]
          }
        }
      ],
      "hex": "010000000123f201347f2e97164bafdc5d2f17655f953b2c39f529d4ed66dcc7bcc15be2c1010000006a47304402202567ce246a35ab1d3422dbab824ac6c142d7384b377deeaab0555db9280f9bc102205202ad4190eb27d939e4d47a281ed6a1b2f79a18ee288b9dbdcb3fc52395610d012102ff392d96b974513a0be185d782a3e4eed9383afd4dead423717341fbd5422211ffffffff0287ed0000000000001976a914029e32f3b6c14e98e1ec350ade13cb8f72f5bdcc88ac6839a800000000001976a91420183fd86a7c257be4c29d4930b391d798f0be5888ac00000000"
    }, 
    {
      "txid": "6e97094c706d65de2576fe0a4676d1b075996473a90bb912e4f8c58cc93ffcad",
      "hash": "6e97094c706d65de2576fe0a4676d1b075996473a90bb912e4f8c58cc93ffcad",
      "version": 1,
      "size": 224,
      "vsize": 224,
      "locktime": 0,
      "vin": [
        {
          "txid": "2baf8ca0f1d5050009f5cdcfb615648cb1f25da0428dc5bbadbe74e3c0a992f8",
          "vout": 0,
          "scriptSig": {
            "asm": "30450221008af095356be999041d94d0b82a6af04c9b420f1db7c6a44db641db598e61140602206309951a23dc81fe11abeb7c3df39d37b006f9447abfd48399c6bef86c8376c2[ALL] 02054c17093e34ea89a907de70ebe6e54cf482e7bb2e99af1e6f2d73ef9ca28599",
            "hex": "4830450221008af095356be999041d94d0b82a6af04c9b420f1db7c6a44db641db598e61140602206309951a23dc81fe11abeb7c3df39d37b006f9447abfd48399c6bef86c8376c2012102054c17093e34ea89a907de70ebe6e54cf482e7bb2e99af1e6f2d73ef9ca28599"
          },
          "sequence": 4294967295
        }
      ],
      "vout": [
        {
          "value": 26.42061000,
          "n": 0,
          "scriptPubKey": {
            "asm": "OP_HASH160 60d24b5d58d64fd62e131dbb213e4d5384094f82 OP_EQUAL",
            "hex": "a91460d24b5d58d64fd62e131dbb213e4d5384094f8287",
            "reqSigs": 1,
            "type": "scripthash",
            "addresses": [
              "MGj72MdWqg7QACLsuonJbKaBnV4kp2tbrG"
            ]
          }
        }, 
        {
          "value": 1.81491221,
          "n": 1,
          "scriptPubKey": {
            "asm": "OP_DUP OP_HASH160 7a595494b53955e0e6fdbeb5ac1d05d244e519c5 OP_EQUALVERIFY OP_CHECKSIG",
            "hex": "76a9147a595494b53955e0e6fdbeb5ac1d05d244e519c588ac",
            "reqSigs": 1,
            "type": "pubkeyhash",
            "addresses": [
              "LWNsiQCwjbfXgpdhr1Fdq4hB1Cs2tcSCUU"
            ]
          }
        }
      ],
      "hex": "0100000001f892a9c0e374beadbbc58d42a05df2b18c6415b6cfcdf5090005d5f1a08caf2b000000006b4830450221008af095356be999041d94d0b82a6af04c9b420f1db7c6a44db641db598e61140602206309951a23dc81fe11abeb7c3df39d37b006f9447abfd48399c6bef86c8376c2012102054c17093e34ea89a907de70ebe6e54cf482e7bb2e99af1e6f2d73ef9ca28599ffffffff02c8a67a9d0000000017a91460d24b5d58d64fd62e131dbb213e4d5384094f82871556d10a000000001976a9147a595494b53955e0e6fdbeb5ac1d05d244e519c588ac00000000"
    }, 
    {
      "txid": "10cedccfc0bfbf5e1ad31291f7eca961b2b1aa88f194a96de0a420f1209eadaa",
      "hash": "10cedccfc0bfbf5e1ad31291f7eca961b2b1aa88f194a96de0a420f1209eadaa",
      "version": 1,
      "size": 1665,
      "vsize": 1665,
      "locktime": 0,
      "vin": [
        {
          "txid": "aeeacf1b7bd147a15714d010c6556483021ab3b324b0e823632457441622f7fe",
          "vout": 2,
          "scriptSig": {
            "asm": "3045022100d1dd3e846a2224ace1ce649de110415a57c7cc599924f44a96f88344bb7de052022048de09d2c98829dbfb89eb3d5037e78e12a3aa48c66e6f53f7cda732542008ba[ALL] 02897c6097beb367491a28125c622f8d87ff4314e68434693ab14cdcde7a39f457",
            "hex": "483045022100d1dd3e846a2224ace1ce649de110415a57c7cc599924f44a96f88344bb7de052022048de09d2c98829dbfb89eb3d5037e78e12a3aa48c66e6f53f7cda732542008ba012102897c6097beb367491a28125c622f8d87ff4314e68434693ab14cdcde7a39f457"
          },
          "sequence": 4294967295
        }, 
        {
          "txid": "a799c65f9fd8b258a8255a497ed6d677522479911039866fca88720b429d6bcd",
          "vout": 2,
          "scriptSig": {
            "asm": "3044022017818d0db6116a3fd1a2a1cf1b6bf3fda5b7c292d5a27e61197be5adcf9d08d502201a090a8c998f66db72e16ca52c9ba69653ef24d65b519692043287208e635cee[ALL] 02780d4e21be7b3d2a8355e4c337f18d94fd8f8b191f8544d90de8053264c7bc2f",
            "hex": "473044022017818d0db6116a3fd1a2a1cf1b6bf3fda5b7c292d5a27e61197be5adcf9d08d502201a090a8c998f66db72e16ca52c9ba69653ef24d65b519692043287208e635cee012102780d4e21be7b3d2a8355e4c337f18d94fd8f8b191f8544d90de8053264c7bc2f"
          },
          "sequence": 4294967295
        }, 
        {
          "txid": "f0b74e79e071bd2931f17bfda64e5ab68b0ee715904d6437b3ed412aa85fcae4",
          "vout": 1,
          "scriptSig": {
            "asm": "30450221009f79502709d10c8aa58bc8610d811f9d01f25d970af149cc9943e8bd900c632b02200d55675e0ffd37ae74a723e095e7d40e6b5170e9c595d12013b11f79acdf84e8[ALL] 02cb28a417be26d77a2e3f899fb1cc164427e032be969aaeeea374d17b55c45919",
            "hex": "4830450221009f79502709d10c8aa58bc8610d811f9d01f25d970af149cc9943e8bd900c632b02200d55675e0ffd37ae74a723e095e7d40e6b5170e9c595d12013b11f79acdf84e8012102cb28a417be26d77a2e3f899fb1cc164427e032be969aaeeea374d17b55c45919"
          },
          "sequence": 4294967295
        }, 
        {
          "txid": "c3f29b5d8ce7432688fefe7ecbd9e681d038c70fc7b7ad1d73ba9dd437ad3c47",
          "vout": 0,
          "scriptSig": {
            "asm": "3044022012a37464bd31be4e8d5894079b625f5eef702be2968765d3dabd8e32239e1f4b0220610b6ed6befc040ba96ec20c2e2fa5ec89602ecaffa4a14804a84550f1006558[ALL] 02b25143f5a001813b920545ddb23926780f2b10ce8386d69115934d6d856419f7",
            "hex": "473044022012a37464bd31be4e8d5894079b625f5eef702be2968765d3dabd8e32239e1f4b0220610b6ed6befc040ba96ec20c2e2fa5ec89602ecaffa4a14804a84550f1006558012102b25143f5a001813b920545ddb23926780f2b10ce8386d69115934d6d856419f7"
          },
          "sequence": 4294967295
        }, 
        {
          "txid": "1da72667643e0b6ec9319d1290858470e760756ea4ac5d9c084a2aac99df4713",
          "vout": 5,
          "scriptSig": {
            "asm": "30440220641ace63096a02e175a5ac7ef0f0b2fb08ab3762456f38c40b5a7ac8ba90f80102200fe271e58e5172abe11becc5d70bfd34dfeea530eb99b048ded517aab559121f[ALL] 02d972017188ddc1bf1c4def19458c2509de5fbecef5c38bd12ef48a95334abe6e",
            "hex": "4730440220641ace63096a02e175a5ac7ef0f0b2fb08ab3762456f38c40b5a7ac8ba90f80102200fe271e58e5172abe11becc5d70bfd34dfeea530eb99b048ded517aab559121f012102d972017188ddc1bf1c4def19458c2509de5fbecef5c38bd12ef48a95334abe6e"
          },
          "sequence": 4294967295
        }, 
        {
          "txid": "1da72667643e0b6ec9319d1290858470e760756ea4ac5d9c084a2aac99df4713",
          "vout": 39,
          "scriptSig": {
            "asm": "3045022100c587d865ed0eab29a4d69974275d9f1f36a0334bd67641ca60e8b2cb1758245a022017bd57d59ee7d89360c272e2a5b74780eb3f1bb767e51fbbcbc0892ea1accc26[ALL] 038e89cedfa91b2e03d2f3d444cabe55a31086e13281508a2ac98fb8e2c16850cc",
            "hex": "483045022100c587d865ed0eab29a4d69974275d9f1f36a0334bd67641ca60e8b2cb1758245a022017bd57d59ee7d89360c272e2a5b74780eb3f1bb767e51fbbcbc0892ea1accc260121038e89cedfa91b2e03d2f3d444cabe55a31086e13281508a2ac98fb8e2c16850cc"
          },
          "sequence": 4294967295
        }, 
        {
          "txid": "6354388eaa18605478fa897a6d85ff5f6964b48d8cc9a5f83b7d8d69f2a25157",
          "vout": 6,
          "scriptSig": {
            "asm": "30440220351faaf5e19852ba1cf3e074d3bd2bcc09f6cabcb9914c9a5b01e8fbfad7b6b902203f80af6e273918bd9dcffbf3265738526187131d758062e3e837b2ea0030f4a5[ALL] 021828ceb254b77ccd676e7f579dbe030b2fe9241bc364ceccbdd7c094ce59e1aa",
            "hex": "4730440220351faaf5e19852ba1cf3e074d3bd2bcc09f6cabcb9914c9a5b01e8fbfad7b6b902203f80af6e273918bd9dcffbf3265738526187131d758062e3e837b2ea0030f4a50121021828ceb254b77ccd676e7f579dbe030b2fe9241bc364ceccbdd7c094ce59e1aa"
          },
          "sequence": 4294967295
        }, 
        {
          "txid": "7a95fdf4b4b934f8cf73175c9462c8b3cf97ddfc5099a4eb037b4e9ba5056555",
          "vout": 60,
          "scriptSig": {
            "asm": "304402206e2b25a2e075718b6a4d78632cfe0e607763edb798638c004e7d6377bcfae4700220120e4a5e11b49b698abbbdb9b7ce7f6c79ab744679f5f2cf6c78d92bd48d6d31[ALL] 037790150da5cf9c82b723b5b9ce3adcd88e170de44cabbc99e6bd8057885a4e98",
            "hex": "47304402206e2b25a2e075718b6a4d78632cfe0e607763edb798638c004e7d6377bcfae4700220120e4a5e11b49b698abbbdb9b7ce7f6c79ab744679f5f2cf6c78d92bd48d6d310121037790150da5cf9c82b723b5b9ce3adcd88e170de44cabbc99e6bd8057885a4e98"
          },
          "sequence": 4294967295
        }, 
        {
          "txid": "6b3c3e91ab721dd13fd1c8ec6717a874c77ac8bf48135f3b63d16066674eb191",
          "vout": 0,
          "scriptSig": {
            "asm": "304402201596d54756c5cc88eb98a9d46011357b74e91b7d4dc202789654e2e0f0f53ea90220099d8ae9384a784f712f1237140b5c60a4314f03ef4a3de1c327091941680104[ALL] 032989a38af7df4ba4ef82c151fb9d44185327289995b6bbba0fd07061b7544d22",
            "hex": "47304402201596d54756c5cc88eb98a9d46011357b74e91b7d4dc202789654e2e0f0f53ea90220099d8ae9384a784f712f1237140b5c60a4314f03ef4a3de1c3270919416801040121032989a38af7df4ba4ef82c151fb9d44185327289995b6bbba0fd07061b7544d22"
          },
          "sequence": 4294967295
        }, 
        {
          "txid": "2790ce5bba02dd1aff6ce03388fbd25b4e3d15c65ab4da91ad0b5958987f2711",
          "vout": 0,
          "scriptSig": {
            "asm": "3045022100d44ccf88bb14ec917f3b5c1cb9f72fbb21868683d0bb2772afa346aa029823600220146de92e1dad473d434fea8a3431459a7c014bfe709f7eea77912aaddcb406aa[ALL] 03b7f0f1a2cc03c0b184d3010d639c944b825f2edd219d6f62fbdb0aabf7223097",
            "hex": "483045022100d44ccf88bb14ec917f3b5c1cb9f72fbb21868683d0bb2772afa346aa029823600220146de92e1dad473d434fea8a3431459a7c014bfe709f7eea77912aaddcb406aa012103b7f0f1a2cc03c0b184d3010d639c944b825f2edd219d6f62fbdb0aabf7223097"
          },
          "sequence": 4294967295
        }, 
        {
          "txid": "1dad89638c8fc89b1f64088265dc0f366104145c27ced440a180375d70f913a1",
          "vout": 1,
          "scriptSig": {
            "asm": "304402206a3a3f4826b77aa3e8c372ae448562b8dfc1fdc905529c0304bb5987c80346cc0220657dd2ea1d3385942c4f0255fbc87b88b99e0c3e1f34c06227688d7a8ead0928[ALL] 035717b55c046ca841af09b3da7dbb216212e47b158f7967220abb2b9b015cee47",
            "hex": "47304402206a3a3f4826b77aa3e8c372ae448562b8dfc1fdc905529c0304bb5987c80346cc0220657dd2ea1d3385942c4f0255fbc87b88b99e0c3e1f34c06227688d7a8ead09280121035717b55c046ca841af09b3da7dbb216212e47b158f7967220abb2b9b015cee47"
          },
          "sequence": 4294967295
        }
      ],
      "vout": [
        {
          "value": 24.24280830,
          "n": 0,
          "scriptPubKey": {
            "asm": "OP_DUP OP_HASH160 6c2614c7b45ef8dfa8dc83e6739ddbe201d05ab0 OP_EQUALVERIFY OP_CHECKSIG",
            "hex": "76a9146c2614c7b45ef8dfa8dc83e6739ddbe201d05ab088ac",
            "reqSigs": 1,
            "type": "pubkeyhash",
            "addresses": [
              "LV5nrreyVZJVvptA9PZSD4ViegKh7Qa8MA"
            ]
          }
        }
      ],
      "hex": "010000000bfef722164457246323e8b024b3b31a02836455c610d01457a147d17b1bcfeaae020000006b483045022100d1dd3e846a2224ace1ce649de110415a57c7cc599924f44a96f88344bb7de052022048de09d2c98829dbfb89eb3d5037e78e12a3aa48c66e6f53f7cda732542008ba012102897c6097beb367491a28125c622f8d87ff4314e68434693ab14cdcde7a39f457ffffffffcd6b9d420b7288ca6f8639109179245277d6d67e495a25a858b2d89f5fc699a7020000006a473044022017818d0db6116a3fd1a2a1cf1b6bf3fda5b7c292d5a27e61197be5adcf9d08d502201a090a8c998f66db72e16ca52c9ba69653ef24d65b519692043287208e635cee012102780d4e21be7b3d2a8355e4c337f18d94fd8f8b191f8544d90de8053264c7bc2fffffffffe4ca5fa82a41edb337644d9015e70e8bb65a4ea6fd7bf13129bd71e0794eb7f0010000006b4830450221009f79502709d10c8aa58bc8610d811f9d01f25d970af149cc9943e8bd900c632b02200d55675e0ffd37ae74a723e095e7d40e6b5170e9c595d12013b11f79acdf84e8012102cb28a417be26d77a2e3f899fb1cc164427e032be969aaeeea374d17b55c45919ffffffff473cad37d49dba731dadb7c70fc738d081e6d9cb7efefe882643e78c5d9bf2c3000000006a473044022012a37464bd31be4e8d5894079b625f5eef702be2968765d3dabd8e32239e1f4b0220610b6ed6befc040ba96ec20c2e2fa5ec89602ecaffa4a14804a84550f1006558012102b25143f5a001813b920545ddb23926780f2b10ce8386d69115934d6d856419f7ffffffff1347df99ac2a4a089c5daca46e7560e770848590129d31c96e0b3e646726a71d050000006a4730440220641ace63096a02e175a5ac7ef0f0b2fb08ab3762456f38c40b5a7ac8ba90f80102200fe271e58e5172abe11becc5d70bfd34dfeea530eb99b048ded517aab559121f012102d972017188ddc1bf1c4def19458c2509de5fbecef5c38bd12ef48a95334abe6effffffff1347df99ac2a4a089c5daca46e7560e770848590129d31c96e0b3e646726a71d270000006b483045022100c587d865ed0eab29a4d69974275d9f1f36a0334bd67641ca60e8b2cb1758245a022017bd57d59ee7d89360c272e2a5b74780eb3f1bb767e51fbbcbc0892ea1accc260121038e89cedfa91b2e03d2f3d444cabe55a31086e13281508a2ac98fb8e2c16850ccffffffff5751a2f2698d7d3bf8a5c98c8db464695fff856d7a89fa78546018aa8e385463060000006a4730440220351faaf5e19852ba1cf3e074d3bd2bcc09f6cabcb9914c9a5b01e8fbfad7b6b902203f80af6e273918bd9dcffbf3265738526187131d758062e3e837b2ea0030f4a50121021828ceb254b77ccd676e7f579dbe030b2fe9241bc364ceccbdd7c094ce59e1aaffffffff556505a59b4e7b03eba49950fcdd97cfb3c862945c1773cff834b9b4f4fd957a3c0000006a47304402206e2b25a2e075718b6a4d78632cfe0e607763edb798638c004e7d6377bcfae4700220120e4a5e11b49b698abbbdb9b7ce7f6c79ab744679f5f2cf6c78d92bd48d6d310121037790150da5cf9c82b723b5b9ce3adcd88e170de44cabbc99e6bd8057885a4e98ffffffff91b14e676660d1633b5f1348bfc87ac774a81767ecc8d13fd11d72ab913e3c6b000000006a47304402201596d54756c5cc88eb98a9d46011357b74e91b7d4dc202789654e2e0f0f53ea90220099d8ae9384a784f712f1237140b5c60a4314f03ef4a3de1c3270919416801040121032989a38af7df4ba4ef82c151fb9d44185327289995b6bbba0fd07061b7544d22ffffffff11277f9858590bad91dab45ac6153d4e5bd2fb8833e06cff1add02ba5bce9027000000006b483045022100d44ccf88bb14ec917f3b5c1cb9f72fbb21868683d0bb2772afa346aa029823600220146de92e1dad473d434fea8a3431459a7c014bfe709f7eea77912aaddcb406aa012103b7f0f1a2cc03c0b184d3010d639c944b825f2edd219d6f62fbdb0aabf7223097ffffffffa113f9705d3780a140d4ce275c140461360fdc658208641f9bc88f8c6389ad1d010000006a47304402206a3a3f4826b77aa3e8c372ae448562b8dfc1fdc905529c0304bb5987c80346cc0220657dd2ea1d3385942c4f0255fbc87b88b99e0c3e1f34c06227688d7a8ead09280121035717b55c046ca841af09b3da7dbb216212e47b158f7967220abb2b9b015cee47ffffffff01fe967f90000000001976a9146c2614c7b45ef8dfa8dc83e6739ddbe201d05ab088ac00000000"
    }, 
    {
      "txid": "5122312ac1c1cf47320ce8b27d614a4708f34ddcbecccb2bf2225fb6fb176b67",
      "hash": "5122312ac1c1cf47320ce8b27d614a4708f34ddcbecccb2bf2225fb6fb176b67",
      "version": 1,
      "size": 294,
      "vsize": 294,
      "locktime": 0,
      "vin": [
        {
          "txid": "69bdf5ad7aede05237677d7b33f65db3026ec29154d9f74d179a2d53ed8b0c69",
          "vout": 4,
          "scriptSig": {
            "asm": "30450221008bdf5c5a3328501d790befad9a45a3269e9cc4f43dfa9bd4b84986804607999a02205ac6819cdfd76637d2b579439bb31eaa728c23ae73040f0131d6681527e065b1[ALL] 02d1026b5e1be2af860e7f8503c8a65f548f0ccf30119f937b9ac753e8491f0c04",
            "hex": "4830450221008bdf5c5a3328501d790befad9a45a3269e9cc4f43dfa9bd4b84986804607999a02205ac6819cdfd76637d2b579439bb31eaa728c23ae73040f0131d6681527e065b1012102d1026b5e1be2af860e7f8503c8a65f548f0ccf30119f937b9ac753e8491f0c04"
          },
          "sequence": 4294967295
        }
      ],
      "vout": [
        {
          "value": 1.03862300,
          "n": 0,
          "scriptPubKey": {
            "asm": "OP_DUP OP_HASH160 fc875fbb39e80f7901bb06318836ee8af95ee95f OP_EQUALVERIFY OP_CHECKSIG",
            "hex": "76a914fc875fbb39e80f7901bb06318836ee8af95ee95f88ac",
            "reqSigs": 1,
            "type": "pubkeyhash",
            "addresses": [
              "LiFCiW2WCP73mgVsBrWtPZ7FewSMroH7xy"
            ]
          }
        }, 
        {
          "value": 1.80785063,
          "n": 1,
          "scriptPubKey": {
            "asm": "OP_DUP OP_HASH160 253508c83d31956364b1c70019c7aa3209954645 OP_EQUALVERIFY OP_CHECKSIG",
            "hex": "76a914253508c83d31956364b1c70019c7aa320995464588ac",
            "reqSigs": 1,
            "type": "pubkeyhash",
            "addresses": [
              "LNcgoCVHGmqpUC1Vn8SfLcDTdSkNxNhbmW"
            ]
          }
        }, 
        {
          "value": 2.16745453,
          "n": 2,
          "scriptPubKey": {
            "asm": "OP_DUP OP_HASH160 03a5b3df2d715b77a0b94363ea6d1a16210224f5 OP_EQUALVERIFY OP_CHECKSIG",
            "hex": "76a91403a5b3df2d715b77a0b94363ea6d1a16210224f588ac",
            "reqSigs": 1,
            "type": "pubkeyhash",
            "addresses": [
              "LKZEo1TRfGiZPCE3bKakX4fRfwjy4HyCq8"
            ]
          }
        }, 
        {
          "value": 173.24626302,
          "n": 3,
          "scriptPubKey": {
            "asm": "OP_DUP OP_HASH160 d03135f2f46776b93126830da160846edbe57fae OP_EQUALVERIFY OP_CHECKSIG",
            "hex": "76a914d03135f2f46776b93126830da160846edbe57fae88ac",
            "reqSigs": 1,
            "type": "pubkeyhash",
            "addresses": [
              "LeCmmLRrReLX5xmocu6XDsVx9arQJ8iqgw"
            ]
          }
        }
      ],
      "hex": "0100000001690c8bed532d9a174df7d95491c26e02b35df6337b7d673752e0ed7aadf5bd69040000006b4830450221008bdf5c5a3328501d790befad9a45a3269e9cc4f43dfa9bd4b84986804607999a02205ac6819cdfd76637d2b579439bb31eaa728c23ae73040f0131d6681527e065b1012102d1026b5e1be2af860e7f8503c8a65f548f0ccf30119f937b9ac753e8491f0c04ffffffff041cd03006000000001976a914fc875fbb39e80f7901bb06318836ee8af95ee95f88aca78fc60a000000001976a914253508c83d31956364b1c70019c7aa320995464588aced45eb0c000000001976a91403a5b3df2d715b77a0b94363ea6d1a16210224f588ac7ed1a008040000001976a914d03135f2f46776b93126830da160846edbe57fae88ac00000000"
    }
  ],
  "time": 1517505821,
  "mediantime": 1517505286,
  "nonce": 4157541063,
  "bits": "1a04088e",
  "difficulty": 4159490.835685156,
  "chainwork": "000000000000000000000000000000000000000000000035738cbd57d1c67e10",
  "previousblockhash": "8f32ad5feb9a5bb783e8b0cbe773e70b1f6a6168af717c8287a25cf12f9c43f5",
  "nextblockhash": "1cdc9a3724a756efac3de2859933b74aa466497bb7671ed44203506aa6f1e5a0"
}
