{
  "hash": "09a5f72f06350050c02f54e6b38171613984d01029a4e60083e6891c1ebc8321",
  "confirmations": 1757,
  "strippedsize": 234,
  "size": 234,
  "weight": 936,
  "height": 1359237,
  "version": 536870912,
  "versionHex": "20000000",
  "merkleroot": "3052a376e6e1db7607e8370d6c9b91849c1cafd352e252e17cedb734989e102e",
  "tx": [
    {
      "txid": "3052a376e6e1db7607e8370d6c9b91849c1cafd352e252e17cedb734989e102e",
      "hash": "3052a376e6e1db7607e8370d6c9b91849c1cafd352e252e17cedb734989e102e",
      "version": 1,
      "size": 153,
      "vsize": 153,
      "locktime": 0,
      "vin": [
        {
          "coinbase": "0385bd14045a6f7eff2cfabe6d6d962f3957fef9c9f88306e33e6e4d04a394634110d4d38c75a4ba1c0eaeb9b73f4000000000000000042f4c502f085600102f62020000",
          "sequence": 4294967295
        }
      ],
      "vout": [
        {
          "value": 25.00000000,
          "n": 0,
          "scriptPubKey": {
            "asm": "OP_DUP OP_HASH160 57757ed2ecf2052ff3126c397aca7defb9ca2cec OP_EQUALVERIFY OP_CHECKSIG",
            "hex": "76a91457757ed2ecf2052ff3126c397aca7defb9ca2cec88ac",
            "reqSigs": 1,
            "type": "pubkeyhash",
            "addresses": [
              "LTCPodGk5FwcJaRzH9yKnwicxzFUbxp6tN"
            ]
          }
        }
      ],
      "hex": "01000000010000000000000000000000000000000000000000000000000000000000000000ffffffff440385bd14045a6f7eff2cfabe6d6d962f3957fef9c9f88306e33e6e4d04a394634110d4d38c75a4ba1c0eaeb9b73f4000000000000000042f4c502f085600102f62020000ffffffff0100f90295000000001976a91457757ed2ecf2052ff3126c397aca7defb9ca2cec88ac00000000"
    }
  ],
  "time": 1517256447,
  "mediantime": 1517255565,
  "nonce": 80191314,
  "bits": "1a042eae",
  "difficulty": 4011378.762614286,
  "chainwork": "000000000000000000000000000000000000000000000033d13322c1c0c8410c",
  "previousblockhash": "9ac46238d864c1136241f963bedabcf68e187f4ed1ddac7360128dea47c0e99f",
  "nextblockhash": "effdd0f498b4398f873ee914b828812c8e2d63f608a8eed10b18a2dc2fe5fe36"
}
