{
  "hash": "09c5cb63cb02ab472ef47268a13d9ed096b3772ea5e9fdd8aa9d7dc96647868a",
  "confirmations": 343,
  "strippedsize": 4570,
  "size": 4827,
  "weight": 18537,
  "height": 1360651,
  "version": 536870912,
  "versionHex": "20000000",
  "merkleroot": "fb423dbde5af438d1a114c36f7c7ad426f18d7794ac562802bb353c057b75eb0",
  "tx": [
    {
      "txid": "c72a3b4c64af8e30472951be1a50038066df9a678e6a9da8f4c7e07af7211f1a",
      "hash": "51111aa5e5fe8f6605222d0c58eac53cda5f8d4d92decdfd892b4c2baae1b9d7",
      "version": 1,
      "size": 251,
      "vsize": 224,
      "locktime": 0,
      "vin": [
        {
          "coinbase": "030bc3140000000000fabe6d6dc1a38b5f110bd18ee19327b24e5b592697d1e8a40cd57272e6c46f2058d27ad80100000000000000048da2725a043f4c9e210858b22968030000000a42570a6657042f42572f",
          "sequence": 4294967295
        }
      ],
      "vout": [
        {
          "value": 25.01390544,
          "n": 0,
          "scriptPubKey": {
            "asm": "OP_DUP OP_HASH160 5373bc9425fd49e6bfe522d3dfc85432da2cc023 OP_EQUALVERIFY OP_CHECKSIG",
            "hex": "76a9145373bc9425fd49e6bfe522d3dfc85432da2cc02388ac",
            "reqSigs": 1,
            "type": "pubkeyhash",
            "addresses": [
              "LSqCzf5bPfkqGf94pJcfxWx5bZMPJE5XRf"
            ]
          }
        }, 
        {
          "value": 0.00000000,
          "n": 1,
          "scriptPubKey": {
            "asm": "OP_RETURN aa21a9ed22e2eeb9042f85782ae52609493d6f16337c58ced76b8cb911fe2e114c77d67c",
            "hex": "6a24aa21a9ed22e2eeb9042f85782ae52609493d6f16337c58ced76b8cb911fe2e114c77d67c",
            "type": "nulldata"
          }
        }
      ],
      "hex": "010000000001010000000000000000000000000000000000000000000000000000000000000000ffffffff53030bc3140000000000fabe6d6dc1a38b5f110bd18ee19327b24e5b592697d1e8a40cd57272e6c46f2058d27ad80100000000000000048da2725a043f4c9e210858b22968030000000a42570a6657042f42572fffffffff02d0301895000000001976a9145373bc9425fd49e6bfe522d3dfc85432da2cc02388ac0000000000000000266a24aa21a9ed22e2eeb9042f85782ae52609493d6f16337c58ced76b8cb911fe2e114c77d67c0120000000000000000000000000000000000000000000000000000000000000000000000000"
    }, 
    {
      "txid": "8ebcd741e66dbf989beebc629bb7c6ca611a3017f5d1bac4c42b04a648154b64",
      "hash": "8ebcd741e66dbf989beebc629bb7c6ca611a3017f5d1bac4c42b04a648154b64",
      "version": 1,
      "size": 1000,
      "vsize": 1000,
      "locktime": 0,
      "vin": [
        {
          "txid": "dcd8e0702bebc946db493a9fe16ce7206555e51adbd272341cdc0d2b633d4087",
          "vout": 1,
          "scriptSig": {
            "asm": "0 3045022100a01d9924c4ecf4b8906ab7b94dc421e0a2a88c5fc317630397c65d1aa2744e9a02200ca036937d0ba39307eb123707acea73a8933e96bc7df2ff718e1dc67a480738[ALL] 30450221008453f5d7f704b0494ac8fc0bdf3914271fcb035a93b3faa9b03ab183c94f6fa402205ae6ec4e74b58579871a1f27ae9c8f52171c8e4b27ebab0cddecd0e0da144e82[ALL] 522102e77f7585fb6db7b3f296000e03a9667c7411312f05274c5d11dfbd6dfba4a7682102261e7e2f25a51078bc8f5397f9b11459fc0685020aefc5bb7d26d05893b2a0742102c1e955525b1657cd2ec70a1d93b9111873315b21328d84dc04e81fcca90381eb53ae",
            "hex": "00483045022100a01d9924c4ecf4b8906ab7b94dc421e0a2a88c5fc317630397c65d1aa2744e9a02200ca036937d0ba39307eb123707acea73a8933e96bc7df2ff718e1dc67a480738014830450221008453f5d7f704b0494ac8fc0bdf3914271fcb035a93b3faa9b03ab183c94f6fa402205ae6ec4e74b58579871a1f27ae9c8f52171c8e4b27ebab0cddecd0e0da144e82014c69522102e77f7585fb6db7b3f296000e03a9667c7411312f05274c5d11dfbd6dfba4a7682102261e7e2f25a51078bc8f5397f9b11459fc0685020aefc5bb7d26d05893b2a0742102c1e955525b1657cd2ec70a1d93b9111873315b21328d84dc04e81fcca90381eb53ae"
          },
          "sequence": 4294967295
        }, 
        {
          "txid": "848567d1ee0f3257883e21af63018706b896311b7fc2390373c571c8db532245",
          "vout": 1,
          "scriptSig": {
            "asm": "0 3045022100a3efee4ce2bd375c15368d21ba78c3a3ed40ceb06096db86ec0d6572b879c012022056830dfa878d8d75f2c74c97c0e8b90a46590f0e6482a6ba2d7a0d85effdbbe1[ALL] 3045022100e4c128f251a0e57dd7856353021571a64ec445af98c95fffa932ae3cd922a399022068b4721c01f484495c33ababdc345d6082524ff4c0eccc54499dc3a33818c5c8[ALL] 522102af43b24200b125a3454acfff16f69f916a2a2cd88db42e8090c1f48fdf2571572103622c811510161d50756786dc835ee7412b1fc7f4d8187ac6b59882617bea64172103bb388f7d3a45f9d0966d73f5a38488129d06bc3009b977897964f48fadb5b7e953ae",
            "hex": "00483045022100a3efee4ce2bd375c15368d21ba78c3a3ed40ceb06096db86ec0d6572b879c012022056830dfa878d8d75f2c74c97c0e8b90a46590f0e6482a6ba2d7a0d85effdbbe101483045022100e4c128f251a0e57dd7856353021571a64ec445af98c95fffa932ae3cd922a399022068b4721c01f484495c33ababdc345d6082524ff4c0eccc54499dc3a33818c5c8014c69522102af43b24200b125a3454acfff16f69f916a2a2cd88db42e8090c1f48fdf2571572103622c811510161d50756786dc835ee7412b1fc7f4d8187ac6b59882617bea64172103bb388f7d3a45f9d0966d73f5a38488129d06bc3009b977897964f48fadb5b7e953ae"
          },
          "sequence": 4294967295
        }, 
        {
          "txid": "49e3da46f0acf9304a7143c8adae63a60b4dc81927e9665eaba5d3124bb22b27",
          "vout": 1,
          "scriptSig": {
            "asm": "0 3045022100dd9188e25e83091438687fc3dc73089dc5ff2e6c77fe7e713d82fb2bdeb7bc8d022047235cac7270285b2d8717b6ed477971c3dce77df2c6c8a7a0c353aeda5893a4[ALL] 3044022079566de7c0cd7fe90beb6c1b6d4fa3e8edbf64b143d2b780fdfcfb3df32eb21c0220489708c052605297f9280d34e1bfc591315db4865d6fdec68591c1b3a99f62d7[ALL] 5221021bd626a8252b74757e731e447920587facb6ab192bc4de9e5a8fbd56b15ce0282103323b5c973adb9eda78765374c1f5a1d02ac84866b865e3571c091f1699b069a521021f20d1cc7b15f782baf310160f13e525fd37f6b792f49a9013b9132d50f1cdae53ae",
            "hex": "00483045022100dd9188e25e83091438687fc3dc73089dc5ff2e6c77fe7e713d82fb2bdeb7bc8d022047235cac7270285b2d8717b6ed477971c3dce77df2c6c8a7a0c353aeda5893a401473044022079566de7c0cd7fe90beb6c1b6d4fa3e8edbf64b143d2b780fdfcfb3df32eb21c0220489708c052605297f9280d34e1bfc591315db4865d6fdec68591c1b3a99f62d7014c695221021bd626a8252b74757e731e447920587facb6ab192bc4de9e5a8fbd56b15ce0282103323b5c973adb9eda78765374c1f5a1d02ac84866b865e3571c091f1699b069a521021f20d1cc7b15f782baf310160f13e525fd37f6b792f49a9013b9132d50f1cdae53ae"
          },
          "sequence": 4294967295
        }
      ],
      "vout": [
        {
          "value": 0.87082053,
          "n": 0,
          "scriptPubKey": {
            "asm": "OP_DUP OP_HASH160 c477f978362fd7996b3dccce116d6b56e947b4ac OP_EQUALVERIFY OP_CHECKSIG",
            "hex": "76a914c477f978362fd7996b3dccce116d6b56e947b4ac88ac",
            "reqSigs": 1,
            "type": "pubkeyhash",
            "addresses": [
              "Ld8nRnWjV7q1tNayF3VzDATVWaFwr8AnqB"
            ]
          }
        }, 
        {
          "value": 0.04723166,
          "n": 1,
          "scriptPubKey": {
            "asm": "OP_HASH160 a56160b0360bb89c920f8360db029c2bb7da37ec OP_EQUAL",
            "hex": "a914a56160b0360bb89c920f8360db029c2bb7da37ec87",
            "reqSigs": 1,
            "type": "scripthash",
            "addresses": [
              "MNycP178FVXwHzSqpVVPjepmMLAVdCHUUr"
            ]
          }
        }, 
        {
          "value": 0.21798200,
          "n": 2,
          "scriptPubKey": {
            "asm": "OP_DUP OP_HASH160 195092281a4aeac52245ce6759e958faa3b8f0f1 OP_EQUALVERIFY OP_CHECKSIG",
            "hex": "76a914195092281a4aeac52245ce6759e958faa3b8f0f188ac",
            "reqSigs": 1,
            "type": "pubkeyhash",
            "addresses": [
              "LMXogB66SrWJHDKkb21nP3BQQ6LmFSvgzs"
            ]
          }
        }
      ],
      "hex": "010000000387403d632b0ddc1c3472d2db1ae5556520e76ce19f3a49db46c9eb2b70e0d8dc01000000fdfe0000483045022100a01d9924c4ecf4b8906ab7b94dc421e0a2a88c5fc317630397c65d1aa2744e9a02200ca036937d0ba39307eb123707acea73a8933e96bc7df2ff718e1dc67a480738014830450221008453f5d7f704b0494ac8fc0bdf3914271fcb035a93b3faa9b03ab183c94f6fa402205ae6ec4e74b58579871a1f27ae9c8f52171c8e4b27ebab0cddecd0e0da144e82014c69522102e77f7585fb6db7b3f296000e03a9667c7411312f05274c5d11dfbd6dfba4a7682102261e7e2f25a51078bc8f5397f9b11459fc0685020aefc5bb7d26d05893b2a0742102c1e955525b1657cd2ec70a1d93b9111873315b21328d84dc04e81fcca90381eb53aeffffffff452253dbc871c5730339c27f1b3196b806870163af213e8857320feed167858401000000fdfe0000483045022100a3efee4ce2bd375c15368d21ba78c3a3ed40ceb06096db86ec0d6572b879c012022056830dfa878d8d75f2c74c97c0e8b90a46590f0e6482a6ba2d7a0d85effdbbe101483045022100e4c128f251a0e57dd7856353021571a64ec445af98c95fffa932ae3cd922a399022068b4721c01f484495c33ababdc345d6082524ff4c0eccc54499dc3a33818c5c8014c69522102af43b24200b125a3454acfff16f69f916a2a2cd88db42e8090c1f48fdf2571572103622c811510161d50756786dc835ee7412b1fc7f4d8187ac6b59882617bea64172103bb388f7d3a45f9d0966d73f5a38488129d06bc3009b977897964f48fadb5b7e953aeffffffff272bb24b12d3a5ab5e66e92719c84d0ba663aeadc843714a30f9acf046dae34901000000fdfd0000483045022100dd9188e25e83091438687fc3dc73089dc5ff2e6c77fe7e713d82fb2bdeb7bc8d022047235cac7270285b2d8717b6ed477971c3dce77df2c6c8a7a0c353aeda5893a401473044022079566de7c0cd7fe90beb6c1b6d4fa3e8edbf64b143d2b780fdfcfb3df32eb21c0220489708c052605297f9280d34e1bfc591315db4865d6fdec68591c1b3a99f62d7014c695221021bd626a8252b74757e731e447920587facb6ab192bc4de9e5a8fbd56b15ce0282103323b5c973adb9eda78765374c1f5a1d02ac84866b865e3571c091f1699b069a521021f20d1cc7b15f782baf310160f13e525fd37f6b792f49a9013b9132d50f1cdae53aeffffffff0345c43005000000001976a914c477f978362fd7996b3dccce116d6b56e947b4ac88acde1148000000000017a914a56160b0360bb89c920f8360db029c2bb7da37ec87389d4c01000000001976a914195092281a4aeac52245ce6759e958faa3b8f0f188ac00000000"
    }, 
    {
      "txid": "393ad8cc062c5c3d2e00c3ef5f9acc6f893193a5c8f5b38b9d5cfd4bc89d4bd9",
      "hash": "e9f93f77c785b16db76ebd4e814e728be7d1f93a8dd3538890441477be87d917",
      "version": 1,
      "size": 373,
      "vsize": 208,
      "locktime": 0,
      "vin": [
        {
          "txid": "9103b50edcf45e1306009527faa5b8030a6b8b0fc73b14764671519dc1c80b42",
          "vout": 1,
          "scriptSig": {
            "asm": "0020fb4a3104ecf5d6193dce4758040b4117db95dc8d5d698ff05306ca792be018be",
            "hex": "220020fb4a3104ecf5d6193dce4758040b4117db95dc8d5d698ff05306ca792be018be"
          },
          "txinwitness": [
            "", 
            "3044022016a40c28ff597ec48bc8a9a303e9575eac56cb966a26e44386e5ea5060c24c130220625072fd2d047be71dbe1473ea763550567cff345f293ba6c326065e2af1c4b801", 
            "3045022100f78bdb6e707f2a573200fb27dd23ccf328617eb2f6630ed72890e4dcfad59dd50220303572adab18fad1a9df48bbb154f633a5e69e586cbf59f785d920eb67ab1ac401", 
            "522103a89fd157de0ad57e0381e8f4556441da7f01b4ce523a1a115f59bce24c2b6d0121035601f3a2305646caace0c463b02eba89c2b789e281cef04109061d879d5bb51352ae"
          ],
          "sequence": 4294967295
        }
      ],
      "vout": [
        {
          "value": 0.12729365,
          "n": 0,
          "scriptPubKey": {
            "asm": "OP_DUP OP_HASH160 dc2c22c47d1e7f286cc44e700b4f6ba3cd7fe2d1 OP_EQUALVERIFY OP_CHECKSIG",
            "hex": "76a914dc2c22c47d1e7f286cc44e700b4f6ba3cd7fe2d188ac",
            "reqSigs": 1,
            "type": "pubkeyhash",
            "addresses": [
              "LfJ7o2SM8GkNm97FLZB46FD46tjPL1nsrU"
            ]
          }
        }, 
        {
          "value": 4.87127435,
          "n": 1,
          "scriptPubKey": {
            "asm": "OP_HASH160 60da78e84e8c2294618246d59ba72d6fcec96e17 OP_EQUAL",
            "hex": "a91460da78e84e8c2294618246d59ba72d6fcec96e1787",
            "reqSigs": 1,
            "type": "scripthash",
            "addresses": [
              "MGjGpZqrdM1tZSzqEhtHgMsDgeewt8VEHZ"
            ]
          }
        }
      ],
      "hex": "01000000000101420bc8c19d51714676143bc70f8b6b0a03b8a5fa27950006135ef4dc0eb503910100000023220020fb4a3104ecf5d6193dce4758040b4117db95dc8d5d698ff05306ca792be018beffffffff02153cc200000000001976a914dc2c22c47d1e7f286cc44e700b4f6ba3cd7fe2d188ac8bf9081d0000000017a91460da78e84e8c2294618246d59ba72d6fcec96e17870400473044022016a40c28ff597ec48bc8a9a303e9575eac56cb966a26e44386e5ea5060c24c130220625072fd2d047be71dbe1473ea763550567cff345f293ba6c326065e2af1c4b801483045022100f78bdb6e707f2a573200fb27dd23ccf328617eb2f6630ed72890e4dcfad59dd50220303572adab18fad1a9df48bbb154f633a5e69e586cbf59f785d920eb67ab1ac40147522103a89fd157de0ad57e0381e8f4556441da7f01b4ce523a1a115f59bce24c2b6d0121035601f3a2305646caace0c463b02eba89c2b789e281cef04109061d879d5bb51352ae00000000"
    }, 
    {
      "txid": "88180e3e4e1883cdb0e96e31b93bba81509c5726345d398ee99970b4125dfac3",
      "hash": "88180e3e4e1883cdb0e96e31b93bba81509c5726345d398ee99970b4125dfac3",
      "version": 2,
      "size": 521,
      "vsize": 521,
      "locktime": 1360649,
      "vin": [
        {
          "txid": "07f77a747d1a89a56e0e054522265609f60a0ed204880e405f6b389ecb9464ab",
          "vout": 1,
          "scriptSig": {
            "asm": "3045022100963c98d84e0fb91ecb27dcd142c991ebc5b56dee69c5c5f6a3f4ceca08e59767022060ca8de08e8ed143e673ed9f517524f8e47c31606d1d9b40d75a07bfd8567136[ALL] 029c6a0d51d748693360d801d7c7fa6ed48f05e8addb54ae6645f15aef46f92d4e",
            "hex": "483045022100963c98d84e0fb91ecb27dcd142c991ebc5b56dee69c5c5f6a3f4ceca08e59767022060ca8de08e8ed143e673ed9f517524f8e47c31606d1d9b40d75a07bfd85671360121029c6a0d51d748693360d801d7c7fa6ed48f05e8addb54ae6645f15aef46f92d4e"
          },
          "sequence": 4294967294
        }, 
        {
          "txid": "97e80b4541af22eaa40dd8da0148e2ca285866327f3536a8dffd582d98ea80c3",
          "vout": 0,
          "scriptSig": {
            "asm": "30450221008409bdc76159afcda372eca1f5c939bb558be8136c83ef7a3911e598f9cb44e602201f3adf8203481fc79ddb0425f77d6f9fd65cf9b2e2816617c350fecb40b0fd2d[ALL] 0391554e65eef9e63011ba0984c6d2bb87e5467b8207ebf5895fbe28fd1142b810",
            "hex": "4830450221008409bdc76159afcda372eca1f5c939bb558be8136c83ef7a3911e598f9cb44e602201f3adf8203481fc79ddb0425f77d6f9fd65cf9b2e2816617c350fecb40b0fd2d01210391554e65eef9e63011ba0984c6d2bb87e5467b8207ebf5895fbe28fd1142b810"
          },
          "sequence": 4294967294
        }, 
        {
          "txid": "025792dedce6fdb3f667348a6b80e279f0894805fcd60818b45da95d9e97ffd4",
          "vout": 0,
          "scriptSig": {
            "asm": "304402205b2cf10bcb6216e6cccca786a68ff76131879664dd9dc27489b89cc97289d6870220132e50be27e359716ca0a1d17d67ff9b2515c45c24c56cbeafcf3ea5a84a7ed5[ALL] 03356ac53fbc07cb5e4fc2f6678132cda826f720fa913a2b34e4ed333ab7f10cb4",
            "hex": "47304402205b2cf10bcb6216e6cccca786a68ff76131879664dd9dc27489b89cc97289d6870220132e50be27e359716ca0a1d17d67ff9b2515c45c24c56cbeafcf3ea5a84a7ed5012103356ac53fbc07cb5e4fc2f6678132cda826f720fa913a2b34e4ed333ab7f10cb4"
          },
          "sequence": 4294967294
        }
      ],
      "vout": [
        {
          "value": 0.25358228,
          "n": 0,
          "scriptPubKey": {
            "asm": "OP_DUP OP_HASH160 ca72436f7e6cc1164f01e63d324bcc056c3c7666 OP_EQUALVERIFY OP_CHECKSIG",
            "hex": "76a914ca72436f7e6cc1164f01e63d324bcc056c3c766688ac",
            "reqSigs": 1,
            "type": "pubkeyhash",
            "addresses": [
              "LdgPe8AcQAsfjtufdJxQmHdEwMXc8NuKMe"
            ]
          }
        }, 
        {
          "value": 0.01093168,
          "n": 1,
          "scriptPubKey": {
            "asm": "OP_DUP OP_HASH160 fcef3dc0944c176942788f89e5721500306cbb1a OP_EQUALVERIFY OP_CHECKSIG",
            "hex": "76a914fcef3dc0944c176942788f89e5721500306cbb1a88ac",
            "reqSigs": 1,
            "type": "pubkeyhash",
            "addresses": [
              "LiHM9Kqj3vo2FVegZYmprzNCwyH4g59Gwd"
            ]
          }
        }
      ],
      "hex": "0200000003ab6494cb9e386b5f400e8804d20e0af60956262245050e6ea5891a7d747af707010000006b483045022100963c98d84e0fb91ecb27dcd142c991ebc5b56dee69c5c5f6a3f4ceca08e59767022060ca8de08e8ed143e673ed9f517524f8e47c31606d1d9b40d75a07bfd85671360121029c6a0d51d748693360d801d7c7fa6ed48f05e8addb54ae6645f15aef46f92d4efeffffffc380ea982d58fddfa836357f32665828cae24801dad80da4ea22af41450be897000000006b4830450221008409bdc76159afcda372eca1f5c939bb558be8136c83ef7a3911e598f9cb44e602201f3adf8203481fc79ddb0425f77d6f9fd65cf9b2e2816617c350fecb40b0fd2d01210391554e65eef9e63011ba0984c6d2bb87e5467b8207ebf5895fbe28fd1142b810feffffffd4ff979e5da95db41808d6fc054889f079e2806b8a3467f6b3fde6dcde925702000000006a47304402205b2cf10bcb6216e6cccca786a68ff76131879664dd9dc27489b89cc97289d6870220132e50be27e359716ca0a1d17d67ff9b2515c45c24c56cbeafcf3ea5a84a7ed5012103356ac53fbc07cb5e4fc2f6678132cda826f720fa913a2b34e4ed333ab7f10cb4feffffff0294ef8201000000001976a914ca72436f7e6cc1164f01e63d324bcc056c3c766688ac30ae1000000000001976a914fcef3dc0944c176942788f89e5721500306cbb1a88ac09c31400"
    }, 
    {
      "txid": "73aa9ef75c310ff7761f4a8c9fb7691fc64aedd66694337d140ce381b2701e37",
      "hash": "73aa9ef75c310ff7761f4a8c9fb7691fc64aedd66694337d140ce381b2701e37",
      "version": 2,
      "size": 225,
      "vsize": 225,
      "locktime": 1360649,
      "vin": [
        {
          "txid": "9120730f9586640c55c4d5489f954a30017a0d0693f88930d6fb4ca672efad3e",
          "vout": 0,
          "scriptSig": {
            "asm": "304402202a8df7f702a41190fb545418adaa1ba258e9b0e181af66daa65ca7b29b666239022079d0a271c47fefd47528920a3d085358ee30ac4187d64c05772b9cd67fd6b8f5[ALL] 030ee228e98e807d327843787964eac69e5a7a359d0eb2c1904fe830f482f9435e",
            "hex": "47304402202a8df7f702a41190fb545418adaa1ba258e9b0e181af66daa65ca7b29b666239022079d0a271c47fefd47528920a3d085358ee30ac4187d64c05772b9cd67fd6b8f50121030ee228e98e807d327843787964eac69e5a7a359d0eb2c1904fe830f482f9435e"
          },
          "sequence": 4294967294
        }
      ],
      "vout": [
        {
          "value": 7.77814800,
          "n": 0,
          "scriptPubKey": {
            "asm": "OP_DUP OP_HASH160 cab874407cd60295fe0223b1387899c792646053 OP_EQUALVERIFY OP_CHECKSIG",
            "hex": "76a914cab874407cd60295fe0223b1387899c79264605388ac",
            "reqSigs": 1,
            "type": "pubkeyhash",
            "addresses": [
              "Ldhqj4NW99EcDUws1jzgDHPrceupDvfpMR"
            ]
          }
        }, 
        {
          "value": 0.04970000,
          "n": 1,
          "scriptPubKey": {
            "asm": "OP_DUP OP_HASH160 33871632815cc687e0063ad53f6607b16cec398e OP_EQUALVERIFY OP_CHECKSIG",
            "hex": "76a91433871632815cc687e0063ad53f6607b16cec398e88ac",
            "reqSigs": 1,
            "type": "pubkeyhash",
            "addresses": [
              "LPvQYz77uP255ftN2prEftZjTnCyzzxbCQ"
            ]
          }
        }
      ],
      "hex": "02000000013eadef72a64cfbd63089f893060d7a01304a959f48d5c4550c6486950f732091000000006a47304402202a8df7f702a41190fb545418adaa1ba258e9b0e181af66daa65ca7b29b666239022079d0a271c47fefd47528920a3d085358ee30ac4187d64c05772b9cd67fd6b8f50121030ee228e98e807d327843787964eac69e5a7a359d0eb2c1904fe830f482f9435efeffffff0210835c2e000000001976a914cab874407cd60295fe0223b1387899c79264605388ac10d64b00000000001976a91433871632815cc687e0063ad53f6607b16cec398e88ac09c31400"
    }, 
    {
      "txid": "16bfa217ca9929c20eb47adfa572b15c1773c1403361fb99bbfadfdef654adae",
      "hash": "16bfa217ca9929c20eb47adfa572b15c1773c1403361fb99bbfadfdef654adae",
      "version": 2,
      "size": 225,
      "vsize": 225,
      "locktime": 1360649,
      "vin": [
        {
          "txid": "894c6b3f0369eabc65f312158c850eef339c167b334b85f96e579776bec8ddf1",
          "vout": 43,
          "scriptSig": {
            "asm": "304402205e96aeea1e136219af4e448d2b0bdd90e8c670238c22b3be1f6d5fbe14ff171802207562fdee68111ebc8ff62c0807968a275e0a1e1baf066b2e0d766a6e1bd60f00[ALL] 024ee160ac64c50e34da4effeec6d1a017583d20693d6c22f930c4208d550fccfb",
            "hex": "47304402205e96aeea1e136219af4e448d2b0bdd90e8c670238c22b3be1f6d5fbe14ff171802207562fdee68111ebc8ff62c0807968a275e0a1e1baf066b2e0d766a6e1bd60f000121024ee160ac64c50e34da4effeec6d1a017583d20693d6c22f930c4208d550fccfb"
          },
          "sequence": 4294967294
        }
      ],
      "vout": [
        {
          "value": 1.34723488,
          "n": 0,
          "scriptPubKey": {
            "asm": "OP_DUP OP_HASH160 0329dcc51444f3edbab20f31c3dbca6f83bca983 OP_EQUALVERIFY OP_CHECKSIG",
            "hex": "76a9140329dcc51444f3edbab20f31c3dbca6f83bca98388ac",
            "reqSigs": 1,
            "type": "pubkeyhash",
            "addresses": [
              "LKWgSSM3qWcXP8seodqhq2p5yewCnLt7jJ"
            ]
          }
        }, 
        {
          "value": 13.37622218,
          "n": 1,
          "scriptPubKey": {
            "asm": "OP_DUP OP_HASH160 deb2dcc492b0bf0c15b1c38293ced905cd270286 OP_EQUALVERIFY OP_CHECKSIG",
            "hex": "76a914deb2dcc492b0bf0c15b1c38293ced905cd27028688ac",
            "reqSigs": 1,
            "type": "pubkeyhash",
            "addresses": [
              "LfXUYNhoST3vJ8htULsLr2MkHgYnVTLz5m"
            ]
          }
        }
      ],
      "hex": "0200000001f1ddc8be7697576ef9854b337b169c33ef0e858c1512f365bcea69033f6b4c892b0000006a47304402205e96aeea1e136219af4e448d2b0bdd90e8c670238c22b3be1f6d5fbe14ff171802207562fdee68111ebc8ff62c0807968a275e0a1e1baf066b2e0d766a6e1bd60f000121024ee160ac64c50e34da4effeec6d1a017583d20693d6c22f930c4208d550fccfbfeffffff02a0b70708000000001976a9140329dcc51444f3edbab20f31c3dbca6f83bca98388acca7eba4f000000001976a914deb2dcc492b0bf0c15b1c38293ced905cd27028688ac09c31400"
    }, 
    {
      "txid": "7d3ae522351a8f5c63c62c430cc5d11bb53cde6754c131c95e408a0e0a0cd5c5",
      "hash": "7d3ae522351a8f5c63c62c430cc5d11bb53cde6754c131c95e408a0e0a0cd5c5",
      "version": 2,
      "size": 225,
      "vsize": 225,
      "locktime": 1360649,
      "vin": [
        {
          "txid": "f5b0d5b003b647e80c6847f583b749e0e4ea7325aea47620f6c61b5b4ed7f9f4",
          "vout": 0,
          "scriptSig": {
            "asm": "3044022010ba8e7c7346265bf0cbe638b1079979f1df7fb2d4f726a6d246d8e26c57b8c102201c44d1ab62df1b42b267099b9cdd66633aac5eb280e5a75dc7d5d75b316abde5[ALL] 03b292d8278c8a7201ea10a9db8f655d21831d572eac091a4b6bace02e2b27cecf",
            "hex": "473044022010ba8e7c7346265bf0cbe638b1079979f1df7fb2d4f726a6d246d8e26c57b8c102201c44d1ab62df1b42b267099b9cdd66633aac5eb280e5a75dc7d5d75b316abde5012103b292d8278c8a7201ea10a9db8f655d21831d572eac091a4b6bace02e2b27cecf"
          },
          "sequence": 4294967294
        }
      ],
      "vout": [
        {
          "value": 0.66500000,
          "n": 0,
          "scriptPubKey": {
            "asm": "OP_DUP OP_HASH160 1fa47372423fd6d42f4717258696f8a71bd23dc2 OP_EQUALVERIFY OP_CHECKSIG",
            "hex": "76a9141fa47372423fd6d42f4717258696f8a71bd23dc288ac",
            "reqSigs": 1,
            "type": "pubkeyhash",
            "addresses": [
              "LN7GDQuLPQmirCw5Q9Kva5wGk6DmsAxksz"
            ]
          }
        }, 
        {
          "value": 1.23954800,
          "n": 1,
          "scriptPubKey": {
            "asm": "OP_DUP OP_HASH160 4a533031ed9a1f30256584f99cb0df0495a92e75 OP_EQUALVERIFY OP_CHECKSIG",
            "hex": "76a9144a533031ed9a1f30256584f99cb0df0495a92e7588ac",
            "reqSigs": 1,
            "type": "pubkeyhash",
            "addresses": [
              "LRzwvRuYEUvjSVowcLr265E2Z8WTpkY2f8"
            ]
          }
        }
      ],
      "hex": "0200000001f4f9d74e5b1bc6f62076a4ae2573eae4e049b783f547680ce847b603b0d5b0f5000000006a473044022010ba8e7c7346265bf0cbe638b1079979f1df7fb2d4f726a6d246d8e26c57b8c102201c44d1ab62df1b42b267099b9cdd66633aac5eb280e5a75dc7d5d75b316abde5012103b292d8278c8a7201ea10a9db8f655d21831d572eac091a4b6bace02e2b27cecffeffffff02a0b5f603000000001976a9141fa47372423fd6d42f4717258696f8a71bd23dc288ac70666307000000001976a9144a533031ed9a1f30256584f99cb0df0495a92e7588ac09c31400"
    }, 
    {
      "txid": "13afee1040ca079a08ea90c2d6e13eaadd5403b2f2b399cfacfa0c2f33d19ec6",
      "hash": "13afee1040ca079a08ea90c2d6e13eaadd5403b2f2b399cfacfa0c2f33d19ec6",
      "version": 2,
      "size": 225,
      "vsize": 225,
      "locktime": 1360649,
      "vin": [
        {
          "txid": "6bd9e22936223fd587c928372dead8614ca05df4d8511d229626504930739763",
          "vout": 0,
          "scriptSig": {
            "asm": "30440220547ae70a11189ceaffb4ddb587746b085b431d137bfb3bd7229a2a2959a72b2e0220387b61dc56c8da97882228f7ba35cca4a46390a5bd37b2d57254b7b8f9171423[ALL] 03d076731a531c77bfac8d3503eee099f6a9ef8b19cde64861e293e6fb13221f62",
            "hex": "4730440220547ae70a11189ceaffb4ddb587746b085b431d137bfb3bd7229a2a2959a72b2e0220387b61dc56c8da97882228f7ba35cca4a46390a5bd37b2d57254b7b8f9171423012103d076731a531c77bfac8d3503eee099f6a9ef8b19cde64861e293e6fb13221f62"
          },
          "sequence": 4294967294
        }
      ],
      "vout": [
        {
          "value": 1.24875200,
          "n": 0,
          "scriptPubKey": {
            "asm": "OP_DUP OP_HASH160 53ba98d25e2179cbe96d3af4dc97328db94b1243 OP_EQUALVERIFY OP_CHECKSIG",
            "hex": "76a91453ba98d25e2179cbe96d3af4dc97328db94b124388ac",
            "reqSigs": 1,
            "type": "pubkeyhash",
            "addresses": [
              "LSrft7rbPXdehyELGo3wuAU3snBkhZ6rjK"
            ]
          }
        }, 
        {
          "value": 0.40500000,
          "n": 1,
          "scriptPubKey": {
            "asm": "OP_DUP OP_HASH160 a4ef41cf6dc3ef004d35d32d5ffaffc1b91a4b4a OP_EQUALVERIFY OP_CHECKSIG",
            "hex": "76a914a4ef41cf6dc3ef004d35d32d5ffaffc1b91a4b4a88ac",
            "reqSigs": 1,
            "type": "pubkeyhash",
            "addresses": [
              "LaG3hYcrH1yQyEUKM1TDmLRCknzFCNwQs8"
            ]
          }
        }
      ],
      "hex": "02000000016397733049502696221d51d8f45da04c61d8ea2d3728c987d53f223629e2d96b000000006a4730440220547ae70a11189ceaffb4ddb587746b085b431d137bfb3bd7229a2a2959a72b2e0220387b61dc56c8da97882228f7ba35cca4a46390a5bd37b2d57254b7b8f9171423012103d076731a531c77bfac8d3503eee099f6a9ef8b19cde64861e293e6fb13221f62feffffff02c0717107000000001976a91453ba98d25e2179cbe96d3af4dc97328db94b124388ac20fb6902000000001976a914a4ef41cf6dc3ef004d35d32d5ffaffc1b91a4b4a88ac09c31400"
    }, 
    {
      "txid": "c3d08553df1f200d10dc212dd5cd18dd88513a940953ab74020c94ae42634ea7",
      "hash": "c3d08553df1f200d10dc212dd5cd18dd88513a940953ab74020c94ae42634ea7",
      "version": 1,
      "size": 1701,
      "vsize": 1701,
      "locktime": 0,
      "vin": [
        {
          "txid": "9d20e2c6d4aa12abb078622dd224ebf0b51c776421835acd51a2cde773187759",
          "vout": 0,
          "scriptSig": {
            "asm": "3045022100a04bc6255fa46b60f5e61f34ee73f2f847da62e75bbad911cf95038bf1fb618a0220477e2862d34480c0ed1382199303406a18ec644948ec2c9ead790ea492bf2b6f[ALL] 032ca6d1c9f53f59630d9402591aaa943c1f8669f3b7e50768048355446e298b9f",
            "hex": "483045022100a04bc6255fa46b60f5e61f34ee73f2f847da62e75bbad911cf95038bf1fb618a0220477e2862d34480c0ed1382199303406a18ec644948ec2c9ead790ea492bf2b6f0121032ca6d1c9f53f59630d9402591aaa943c1f8669f3b7e50768048355446e298b9f"
          },
          "sequence": 4294967295
        }, 
        {
          "txid": "9a64e6b7eab6f4c5e62c18e7b06f5ba901c125e364519f581b9f3eaabdbd218d",
          "vout": 0,
          "scriptSig": {
            "asm": "3045022100863b677cd0d27064f8ea8b0f678738648d1af46e5eef149cd0bc8dda1464721902205b2ab540cc8f168f2e6f48ccccea829391e009406cad24402ec18e15a1c011b7[ALL] 02ffca504248d4f192d2bbc5fb44b878adf8cb9305f61d9ceb5ddcce84ef06f558",
            "hex": "483045022100863b677cd0d27064f8ea8b0f678738648d1af46e5eef149cd0bc8dda1464721902205b2ab540cc8f168f2e6f48ccccea829391e009406cad24402ec18e15a1c011b7012102ffca504248d4f192d2bbc5fb44b878adf8cb9305f61d9ceb5ddcce84ef06f558"
          },
          "sequence": 4294967295
        }, 
        {
          "txid": "766dbe917f2cb69aa682fe837f3009562b61e81ad2f2e2d7ad4a709ac76dba05",
          "vout": 1,
          "scriptSig": {
            "asm": "304402206fa752ce027d32379b9c469fb06b4d190f83afc8deeadfdd82bc6ca8143e52f00220457b9f621fd6bea95c58114545a62bb268349d33899cd735fd809661a031cd71[ALL] 03894ea9393c5cf5b6f92ea70c4d11497a2d83990bcd4da09fdb1eeb71df4d717c",
            "hex": "47304402206fa752ce027d32379b9c469fb06b4d190f83afc8deeadfdd82bc6ca8143e52f00220457b9f621fd6bea95c58114545a62bb268349d33899cd735fd809661a031cd71012103894ea9393c5cf5b6f92ea70c4d11497a2d83990bcd4da09fdb1eeb71df4d717c"
          },
          "sequence": 4294967295
        }, 
        {
          "txid": "b2aa411183b2944bd43e3f71c57e9a2cc8aa0e1ab9c67404ddaff664188518c3",
          "vout": 0,
          "scriptSig": {
            "asm": "3045022100a7625dd65c2ce353dbd11897c3640aa10f12eb5dabcaa28f2fb7761eaabf045102204c7c069c0677a1c5407a390b3b939b055d54830c5426421b40547bad8c9268e9[ALL] 03abbc79f43897c95b7e1e4c604e1f7a2d79ff67b000968cf2089c42f88212cec7",
            "hex": "483045022100a7625dd65c2ce353dbd11897c3640aa10f12eb5dabcaa28f2fb7761eaabf045102204c7c069c0677a1c5407a390b3b939b055d54830c5426421b40547bad8c9268e9012103abbc79f43897c95b7e1e4c604e1f7a2d79ff67b000968cf2089c42f88212cec7"
          },
          "sequence": 4294967295
        }, 
        {
          "txid": "75eeb3f87745a88abdbd31710ac472e63573c4a95d2097308f3263169fdb2773",
          "vout": 0,
          "scriptSig": {
            "asm": "3045022100bfd63fc957c623600b4aa61e789983683e6c56578ca7124953f166f07d8e0596022078086d33817d5b8fee276552a239de2f9a81c40b03f68836c81c55b9e74c4929[ALL] 0318800383b4e7d9a1d8e568d1d0ba32ae77ee861fee264c0c74a075734b4114b9",
            "hex": "483045022100bfd63fc957c623600b4aa61e789983683e6c56578ca7124953f166f07d8e0596022078086d33817d5b8fee276552a239de2f9a81c40b03f68836c81c55b9e74c492901210318800383b4e7d9a1d8e568d1d0ba32ae77ee861fee264c0c74a075734b4114b9"
          },
          "sequence": 4294967295
        }, 
        {
          "txid": "da6a2f114bd61ba4f3d2c25c96019bf63a565428ce58142e3483f9046ee734eb",
          "vout": 1,
          "scriptSig": {
            "asm": "30440220677bc79aa483e9b7022bbd7443db614e869db6611b592572433a9e6821673e460220632c36a62188e73286f2ade5e697e94f78af9a3e0f4fc4ede7fa7fb58e5a999d[ALL] 03f1493f21f72eeb2eb8f8275bcc76f21e9d95a7d04f9cb79ef86d22cecc071615",
            "hex": "4730440220677bc79aa483e9b7022bbd7443db614e869db6611b592572433a9e6821673e460220632c36a62188e73286f2ade5e697e94f78af9a3e0f4fc4ede7fa7fb58e5a999d012103f1493f21f72eeb2eb8f8275bcc76f21e9d95a7d04f9cb79ef86d22cecc071615"
          },
          "sequence": 4294967295
        }, 
        {
          "txid": "de371382d05b12b4983bed3195cbb01eab4e4082373119e81d2aefb26855a96a",
          "vout": 0,
          "scriptSig": {
            "asm": "3045022100bdd8ae7036ba0f6a4f2c698db487b44a587463bb24a4c94e93e4c4a38e4d96a7022043d498361d99abf52219da84e902912978e68f2516540108db2628961ff560d6[ALL] 024e3dda8201220cb2ade70eae4d8a94278767abfd5d890f8a22cdda01d0cea4f1",
            "hex": "483045022100bdd8ae7036ba0f6a4f2c698db487b44a587463bb24a4c94e93e4c4a38e4d96a7022043d498361d99abf52219da84e902912978e68f2516540108db2628961ff560d60121024e3dda8201220cb2ade70eae4d8a94278767abfd5d890f8a22cdda01d0cea4f1"
          },
          "sequence": 4294967295
        }, 
        {
          "txid": "316407b665639e15be41e33291caed37b3f2496525f3b4056d5ffce482aa62de",
          "vout": 1,
          "scriptSig": {
            "asm": "30440220551256003665708a2dd509e52161842c8273ca78603a404dd6a1a454ba1e19bb02207825c060704be4fadfcb288fe4d8cc6953ddeae749c1653fec55768a4cdb16b4[ALL] 037ce9cd47f5dbf80a54111ecf4bcb4a381c8720869bd23260a4d577c94bdf10a7",
            "hex": "4730440220551256003665708a2dd509e52161842c8273ca78603a404dd6a1a454ba1e19bb02207825c060704be4fadfcb288fe4d8cc6953ddeae749c1653fec55768a4cdb16b40121037ce9cd47f5dbf80a54111ecf4bcb4a381c8720869bd23260a4d577c94bdf10a7"
          },
          "sequence": 4294967295
        }, 
        {
          "txid": "ce6ba937a4444c4157ede476cb04b282155df71d2d899ce7f88c3913c8f4af8d",
          "vout": 49,
          "scriptSig": {
            "asm": "3045022100cf2a1e360a717bc1b44d716cb0127dda06fad221b9b407b05ca88e32e03660fe022015276064a0fc2b54c52b4231536747933e3f41ac4fb1a4b2fd77e357bd7deefd[ALL] 02a8c3fa2f5c2b42ef470dda86a7a0a283b4ed3aefb452a197e2861a8a76f159e7",
            "hex": "483045022100cf2a1e360a717bc1b44d716cb0127dda06fad221b9b407b05ca88e32e03660fe022015276064a0fc2b54c52b4231536747933e3f41ac4fb1a4b2fd77e357bd7deefd012102a8c3fa2f5c2b42ef470dda86a7a0a283b4ed3aefb452a197e2861a8a76f159e7"
          },
          "sequence": 4294967295
        }, 
        {
          "txid": "5370b4480aea40b55e691278fdba1613c60477c88628f8bf8e90c56011b692bf",
          "vout": 0,
          "scriptSig": {
            "asm": "3044022015f9e836b3e702d53830ef9003e23e776d4786e0245df2c4ae5b0019982ccd4202205a12d1d7927d4e87707b3ddbac3b86fab03a4bbcc5eaf572b6afb1ba40566b0a[ALL] 02d9477d69f856e56a06200034f458e4b73dc34940a4789dc6a3ad55a0623053bc",
            "hex": "473044022015f9e836b3e702d53830ef9003e23e776d4786e0245df2c4ae5b0019982ccd4202205a12d1d7927d4e87707b3ddbac3b86fab03a4bbcc5eaf572b6afb1ba40566b0a012102d9477d69f856e56a06200034f458e4b73dc34940a4789dc6a3ad55a0623053bc"
          },
          "sequence": 4294967295
        }, 
        {
          "txid": "cf7b2848fb69113475ac76d1d9fbf82de5d904f8d2b49c8040eb2f0d3a8da3f6",
          "vout": 49,
          "scriptSig": {
            "asm": "304402206953d1e352aef55f14735c594ecb04ca8f37902169e06f7f848d2b7aa4d9c8c902206ac5414d82ac98cc29e1a386d23fc57b5721288c89cde6445979f32ab7ffc3fa[ALL] 02290402ddb210f74fcf7323f057494226e41f9b361effd3e6b475b2433fbe35d4",
            "hex": "47304402206953d1e352aef55f14735c594ecb04ca8f37902169e06f7f848d2b7aa4d9c8c902206ac5414d82ac98cc29e1a386d23fc57b5721288c89cde6445979f32ab7ffc3fa012102290402ddb210f74fcf7323f057494226e41f9b361effd3e6b475b2433fbe35d4"
          },
          "sequence": 4294967295
        }
      ],
      "vout": [
        {
          "value": 7.00000000,
          "n": 0,
          "scriptPubKey": {
            "asm": "OP_DUP OP_HASH160 a44da61e360296887f51e22da82631341a8d83bf OP_EQUALVERIFY OP_CHECKSIG",
            "hex": "76a914a44da61e360296887f51e22da82631341a8d83bf88ac",
            "reqSigs": 1,
            "type": "pubkeyhash",
            "addresses": [
              "LaCi6p82q4iJkR4wtVy5r8bbdAD9a9gSmy"
            ]
          }
        }, 
        {
          "value": 4.67675000,
          "n": 1,
          "scriptPubKey": {
            "asm": "OP_DUP OP_HASH160 1ccef2ddb396e022da85b2cfae6116e61c14c641 OP_EQUALVERIFY OP_CHECKSIG",
            "hex": "76a9141ccef2ddb396e022da85b2cfae6116e61c14c64188ac",
            "reqSigs": 1,
            "type": "pubkeyhash",
            "addresses": [
              "LMrH6dbJSHK3dgWUmV5gj7T5cFtk2BiDGU"
            ]
          }
        }
      ],
      "hex": "010000000b59771873e7cda251cd5a832164771cb5f0eb24d22d6278b0ab12aad4c6e2209d000000006b483045022100a04bc6255fa46b60f5e61f34ee73f2f847da62e75bbad911cf95038bf1fb618a0220477e2862d34480c0ed1382199303406a18ec644948ec2c9ead790ea492bf2b6f0121032ca6d1c9f53f59630d9402591aaa943c1f8669f3b7e50768048355446e298b9fffffffff8d21bdbdaa3e9f1b589f5164e325c101a95b6fb0e7182ce6c5f4b6eab7e6649a000000006b483045022100863b677cd0d27064f8ea8b0f678738648d1af46e5eef149cd0bc8dda1464721902205b2ab540cc8f168f2e6f48ccccea829391e009406cad24402ec18e15a1c011b7012102ffca504248d4f192d2bbc5fb44b878adf8cb9305f61d9ceb5ddcce84ef06f558ffffffff05ba6dc79a704aadd7e2f2d21ae8612b5609307f83fe82a69ab62c7f91be6d76010000006a47304402206fa752ce027d32379b9c469fb06b4d190f83afc8deeadfdd82bc6ca8143e52f00220457b9f621fd6bea95c58114545a62bb268349d33899cd735fd809661a031cd71012103894ea9393c5cf5b6f92ea70c4d11497a2d83990bcd4da09fdb1eeb71df4d717cffffffffc318851864f6afdd0474c6b91a0eaac82c9a7ec5713f3ed44b94b2831141aab2000000006b483045022100a7625dd65c2ce353dbd11897c3640aa10f12eb5dabcaa28f2fb7761eaabf045102204c7c069c0677a1c5407a390b3b939b055d54830c5426421b40547bad8c9268e9012103abbc79f43897c95b7e1e4c604e1f7a2d79ff67b000968cf2089c42f88212cec7ffffffff7327db9f1663328f3097205da9c47335e672c40a7131bdbd8aa84577f8b3ee75000000006b483045022100bfd63fc957c623600b4aa61e789983683e6c56578ca7124953f166f07d8e0596022078086d33817d5b8fee276552a239de2f9a81c40b03f68836c81c55b9e74c492901210318800383b4e7d9a1d8e568d1d0ba32ae77ee861fee264c0c74a075734b4114b9ffffffffeb34e76e04f983342e1458ce2854563af69b01965cc2d2f3a41bd64b112f6ada010000006a4730440220677bc79aa483e9b7022bbd7443db614e869db6611b592572433a9e6821673e460220632c36a62188e73286f2ade5e697e94f78af9a3e0f4fc4ede7fa7fb58e5a999d012103f1493f21f72eeb2eb8f8275bcc76f21e9d95a7d04f9cb79ef86d22cecc071615ffffffff6aa95568b2ef2a1de819313782404eab1eb0cb9531ed3b98b4125bd0821337de000000006b483045022100bdd8ae7036ba0f6a4f2c698db487b44a587463bb24a4c94e93e4c4a38e4d96a7022043d498361d99abf52219da84e902912978e68f2516540108db2628961ff560d60121024e3dda8201220cb2ade70eae4d8a94278767abfd5d890f8a22cdda01d0cea4f1ffffffffde62aa82e4fc5f6d05b4f3256549f2b337edca9132e341be159e6365b6076431010000006a4730440220551256003665708a2dd509e52161842c8273ca78603a404dd6a1a454ba1e19bb02207825c060704be4fadfcb288fe4d8cc6953ddeae749c1653fec55768a4cdb16b40121037ce9cd47f5dbf80a54111ecf4bcb4a381c8720869bd23260a4d577c94bdf10a7ffffffff8daff4c813398cf8e79c892d1df75d1582b204cb76e4ed57414c44a437a96bce310000006b483045022100cf2a1e360a717bc1b44d716cb0127dda06fad221b9b407b05ca88e32e03660fe022015276064a0fc2b54c52b4231536747933e3f41ac4fb1a4b2fd77e357bd7deefd012102a8c3fa2f5c2b42ef470dda86a7a0a283b4ed3aefb452a197e2861a8a76f159e7ffffffffbf92b61160c5908ebff82886c87704c61316bafd7812695eb540ea0a48b47053000000006a473044022015f9e836b3e702d53830ef9003e23e776d4786e0245df2c4ae5b0019982ccd4202205a12d1d7927d4e87707b3ddbac3b86fab03a4bbcc5eaf572b6afb1ba40566b0a012102d9477d69f856e56a06200034f458e4b73dc34940a4789dc6a3ad55a0623053bcfffffffff6a38d3a0d2feb40809cb4d2f804d9e52df8fbd9d176ac75341169fb48287bcf310000006a47304402206953d1e352aef55f14735c594ecb04ca8f37902169e06f7f848d2b7aa4d9c8c902206ac5414d82ac98cc29e1a386d23fc57b5721288c89cde6445979f32ab7ffc3fa012102290402ddb210f74fcf7323f057494226e41f9b361effd3e6b475b2433fbe35d4ffffffff020027b929000000001976a914a44da61e360296887f51e22da82631341a8d83bf88ac7827e01b000000001976a9141ccef2ddb396e022da85b2cfae6116e61c14c64188ac00000000"
    }
  ],
  "time": 1517462157,
  "mediantime": 1517461549,
  "nonce": 3402275796,
  "bits": "1a042eae",
  "difficulty": 4011378.762614286,
  "chainwork": "0000000000000000000000000000000000000000000000352349acbaa0ec8518",
  "previousblockhash": "72073f0ee0a6e42f725c857ea60bd86e74a02dd7bf21ec9db0d617419ad3b0c4",
  "nextblockhash": "424f1771081e1c573ad7b8f881157827ce829251d71b381e69d441cfb237b7cd"
}
