{
  "hash": "09de5a2ee65678b5361b01976e56047926edf6a25b36030de0e7d70222214b36",
  "confirmations": 1290,
  "strippedsize": 2942,
  "size": 2978,
  "weight": 11804,
  "height": 1359704,
  "version": 536870912,
  "versionHex": "20000000",
  "merkleroot": "1b2d14148d001d91ae9473d3ad62948bf482f77dc9934258ac865e1d9d8f1298",
  "tx": [
    {
      "txid": "5cb32238ad7eede52aa2b5e86aeafddf1ffc7b09110c99c04f499eb678bccc2c",
      "hash": "d0a62faabf3cfd9c97b2d7d59e3c7f0338dbc34996ec253d3dc5c8c0024d6abb",
      "version": 1,
      "size": 277,
      "vsize": 250,
      "locktime": 956590708,
      "vin": [
        {
          "coinbase": "0358bf142cfabe6d6d299d8618b4e9cc5727be69ff035d056104769d257a768e9dcf6c10e94a40120a08000000f09f909f134d696e65642062792070726f7370657269747900000000000000000000000000000000000000000000000000000000000000",
          "sequence": 7
        }
      ],
      "vout": [
        {
          "value": 25.00262300,
          "n": 0,
          "scriptPubKey": {
            "asm": "OP_DUP OP_HASH160 aa3750aa18b8a0f3f0590731e1fab934856680cf OP_EQUALVERIFY OP_CHECKSIG",
            "hex": "76a914aa3750aa18b8a0f3f0590731e1fab934856680cf88ac",
            "reqSigs": 1,
            "type": "pubkeyhash",
            "addresses": [
              "LajyQBeZaBA1NkZDeY8YT5RYYVRkXMvb2T"
            ]
          }
        }, 
        {
          "value": 0.00000000,
          "n": 1,
          "scriptPubKey": {
            "asm": "OP_RETURN aa21a9ed88ed2f4ace0049530a4375e616b651d9e3a0a8584bc2a899cbe113268bd2dc9f 0000000000000000",
            "hex": "6a24aa21a9ed88ed2f4ace0049530a4375e616b651d9e3a0a8584bc2a899cbe113268bd2dc9f080000000000000000",
            "type": "nulldata"
          }
        }
      ],
      "hex": "010000000001010000000000000000000000000000000000000000000000000000000000000000ffffffff640358bf142cfabe6d6d299d8618b4e9cc5727be69ff035d056104769d257a768e9dcf6c10e94a40120a08000000f09f909f134d696e65642062792070726f737065726974790000000000000000000000000000000000000000000000000000000000000007000000029cf90695000000001976a914aa3750aa18b8a0f3f0590731e1fab934856680cf88ac00000000000000002f6a24aa21a9ed88ed2f4ace0049530a4375e616b651d9e3a0a8584bc2a899cbe113268bd2dc9f08000000000000000001200000000000000000000000000000000000000000000000000000000000000000746a0439"
    }, 
    {
      "txid": "17193102918faaf3b25088e9707518b7df864eb292ff88f4f05d7c2153396c7d",
      "hash": "17193102918faaf3b25088e9707518b7df864eb292ff88f4f05d7c2153396c7d",
      "version": 1,
      "size": 223,
      "vsize": 223,
      "locktime": 0,
      "vin": [
        {
          "txid": "3e4005b611f6da40b2c4c1e69393fa50c5d7b8d9ab9f8fef00c065f2d4f79150",
          "vout": 0,
          "scriptSig": {
            "asm": "3044022026200d41b48385ab2b0e2fcfcfb63c5f228ba7612975ab6148b57cb7c87a25ef02201c54290cddfb2d08689d3b355c2c4f7497d7bb3523d6a0bc869c5f0734aa4197[ALL] 021d19ad0cabeb279bbec40f92ad3d60c1e67944aaac0d8ff49fbb945f4743c245",
            "hex": "473044022026200d41b48385ab2b0e2fcfcfb63c5f228ba7612975ab6148b57cb7c87a25ef02201c54290cddfb2d08689d3b355c2c4f7497d7bb3523d6a0bc869c5f0734aa41970121021d19ad0cabeb279bbec40f92ad3d60c1e67944aaac0d8ff49fbb945f4743c245"
          },
          "sequence": 4294967295
        }
      ],
      "vout": [
        {
          "value": 0.93000000,
          "n": 0,
          "scriptPubKey": {
            "asm": "OP_HASH160 d2f4c3117699fbd5df3cc973f304a6b6212be93c OP_EQUAL",
            "hex": "a914d2f4c3117699fbd5df3cc973f304a6b6212be93c87",
            "reqSigs": 1,
            "type": "scripthash",
            "addresses": [
              "MT8bM5L4zBBbfFVUJ3pAe6NkvAN36w9hQ4"
            ]
          }
        }, 
        {
          "value": 60.64802660,
          "n": 1,
          "scriptPubKey": {
            "asm": "OP_DUP OP_HASH160 e64ac00b32d4b761dc99c2a4f18293acb96ba993 OP_EQUALVERIFY OP_CHECKSIG",
            "hex": "76a914e64ac00b32d4b761dc99c2a4f18293acb96ba99388ac",
            "reqSigs": 1,
            "type": "pubkeyhash",
            "addresses": [
              "LgDdE4qRNFKCeto28MqpvmF3pciZCGC3Hr"
            ]
          }
        }
      ],
      "hex": "01000000015091f7d4f265c000ef8f9fabd9b8d7c550fa9393e6c1c4b240daf611b605403e000000006a473044022026200d41b48385ab2b0e2fcfcfb63c5f228ba7612975ab6148b57cb7c87a25ef02201c54290cddfb2d08689d3b355c2c4f7497d7bb3523d6a0bc869c5f0734aa41970121021d19ad0cabeb279bbec40f92ad3d60c1e67944aaac0d8ff49fbb945f4743c245ffffffff0240118b050000000017a914d2f4c3117699fbd5df3cc973f304a6b6212be93c87648b7d69010000001976a914e64ac00b32d4b761dc99c2a4f18293acb96ba99388ac00000000"
    }, 
    {
      "txid": "c0c6a95dee1723606ea48876942da1bc5b0742d5acb85a85bd161dd505a0a82c",
      "hash": "c0c6a95dee1723606ea48876942da1bc5b0742d5acb85a85bd161dd505a0a82c",
      "version": 1,
      "size": 373,
      "vsize": 373,
      "locktime": 1359702,
      "vin": [
        {
          "txid": "e99c327e76d60338cd41313151208a2001cebe8eb9efcfab11167ff09eac139e",
          "vout": 296,
          "scriptSig": {
            "asm": "3044022058f7d61260e7235fa91d2d58c6482bd8f50c78bd21c18289c6c859f1232b7c690220457c823461bdcc429273e9223e08663a59cf9c218e382e9ad282b352746deb65[ALL] 02e37b49191193df383b6d3da87b2ea32680ed289724932cdd31a3ee861e2bed71",
            "hex": "473044022058f7d61260e7235fa91d2d58c6482bd8f50c78bd21c18289c6c859f1232b7c690220457c823461bdcc429273e9223e08663a59cf9c218e382e9ad282b352746deb65012102e37b49191193df383b6d3da87b2ea32680ed289724932cdd31a3ee861e2bed71"
          },
          "sequence": 4294967294
        }, 
        {
          "txid": "3f50da25b511f8ddf5865c014e0d6a9ddbf147c7d19dbc593c9c9d527c46e8fa",
          "vout": 0,
          "scriptSig": {
            "asm": "304502210085861339ee3c038ebed588d5f2b651699834f427f8c739893794bbb7711b3262022029ba3493723ef59058b9cd9167527ba5faff85353494ce5086228a94909be142[ALL] 034861f71ab0bc488c19f52fbb65541c8979c5c3891c928786be111b4e36870f39",
            "hex": "48304502210085861339ee3c038ebed588d5f2b651699834f427f8c739893794bbb7711b3262022029ba3493723ef59058b9cd9167527ba5faff85353494ce5086228a94909be1420121034861f71ab0bc488c19f52fbb65541c8979c5c3891c928786be111b4e36870f39"
          },
          "sequence": 4294967294
        }
      ],
      "vout": [
        {
          "value": 0.01000017,
          "n": 0,
          "scriptPubKey": {
            "asm": "OP_DUP OP_HASH160 9a3c82eb5f10d19faba6884f4aeda57c9c43878a OP_EQUALVERIFY OP_CHECKSIG",
            "hex": "76a9149a3c82eb5f10d19faba6884f4aeda57c9c43878a88ac",
            "reqSigs": 1,
            "type": "pubkeyhash",
            "addresses": [
              "LZHUpAHhqVMy4DZyWBwdQHG4KtFXPRSbLa"
            ]
          }
        }, 
        {
          "value": 0.58800000,
          "n": 1,
          "scriptPubKey": {
            "asm": "OP_DUP OP_HASH160 978c324923725843202cad1f57f8014404207a3e OP_EQUALVERIFY OP_CHECKSIG",
            "hex": "76a914978c324923725843202cad1f57f8014404207a3e88ac",
            "reqSigs": 1,
            "type": "pubkeyhash",
            "addresses": [
              "LZ3GFCSRnsg1nFMYAN45gTxHcQqusEGgYf"
            ]
          }
        }
      ],
      "hex": "01000000029e13ac9ef07f1611abcfefb98ebece01208a2051313141cd3803d6767e329ce9280100006a473044022058f7d61260e7235fa91d2d58c6482bd8f50c78bd21c18289c6c859f1232b7c690220457c823461bdcc429273e9223e08663a59cf9c218e382e9ad282b352746deb65012102e37b49191193df383b6d3da87b2ea32680ed289724932cdd31a3ee861e2bed71fefffffffae8467c529d9c3c59bc9dd1c747f1db9d6a0d4e015c86f5ddf811b525da503f000000006b48304502210085861339ee3c038ebed588d5f2b651699834f427f8c739893794bbb7711b3262022029ba3493723ef59058b9cd9167527ba5faff85353494ce5086228a94909be1420121034861f71ab0bc488c19f52fbb65541c8979c5c3891c928786be111b4e36870f39feffffff0251420f00000000001976a9149a3c82eb5f10d19faba6884f4aeda57c9c43878a88ac80378103000000001976a914978c324923725843202cad1f57f8014404207a3e88ac56bf1400"
    }, 
    {
      "txid": "0232b3e1471c8d5fb0d332634e1af7d98795a3bb76647c8b7a244a5f4fbc1994",
      "hash": "0232b3e1471c8d5fb0d332634e1af7d98795a3bb76647c8b7a244a5f4fbc1994",
      "version": 2,
      "size": 669,
      "vsize": 669,
      "locktime": 1359702,
      "vin": [
        {
          "txid": "f82a3466a301a2d2bc08fb9ee8a5cbff4285e003f46acb5529ef1f142bca900e",
          "vout": 1,
          "scriptSig": {
            "asm": "3045022100b6ab50ec3c7bd451d0a5dc22e220c34079085323d6dd27f432078919b1ee12c202205055ac314d903829e8ca997f6a83b36e3de2258bf496da1e031d30000b1c22dc[ALL] 03e5ff332f8970e53338b7b27be6cba74d6742fb3de81b0ae29e1dfc8076a57179",
            "hex": "483045022100b6ab50ec3c7bd451d0a5dc22e220c34079085323d6dd27f432078919b1ee12c202205055ac314d903829e8ca997f6a83b36e3de2258bf496da1e031d30000b1c22dc012103e5ff332f8970e53338b7b27be6cba74d6742fb3de81b0ae29e1dfc8076a57179"
          },
          "sequence": 4294967294
        }, 
        {
          "txid": "7a9610fa0288fdd1667240a4232b067f7ec93af6f69ef1700dc5f1c97dd70fa3",
          "vout": 1,
          "scriptSig": {
            "asm": "3045022100f905f59a079a195dc6a382df7f3092ab6439ff32db0b2048ff0c9f5856b6486102201a100a7f4ed7c7fd84307c00550e26c4b84a153e72af15118daf0a909301967d[ALL] 027ea2b6b4e935bd19241d604ea2503b875579bce94425751692d7d4fdeb99f17a",
            "hex": "483045022100f905f59a079a195dc6a382df7f3092ab6439ff32db0b2048ff0c9f5856b6486102201a100a7f4ed7c7fd84307c00550e26c4b84a153e72af15118daf0a909301967d0121027ea2b6b4e935bd19241d604ea2503b875579bce94425751692d7d4fdeb99f17a"
          },
          "sequence": 4294967294
        }, 
        {
          "txid": "85e7ffcd5ae8150ad2a8d7359f1751282e107c16cff60b17528789c56b41a933",
          "vout": 1,
          "scriptSig": {
            "asm": "3045022100da72229d88099a9fba431c54935555bb576d9a07c522eb698fd33191208d3e4f02207d28fc5a1e1d4dd3c726bf690ab49d3717f0776bd0627373522ba242d52cc570[ALL] 03b65a520f4db697fa14128140a84300fdcf19a6ef61bdb9ff6a7f0846cb8aa5a7",
            "hex": "483045022100da72229d88099a9fba431c54935555bb576d9a07c522eb698fd33191208d3e4f02207d28fc5a1e1d4dd3c726bf690ab49d3717f0776bd0627373522ba242d52cc570012103b65a520f4db697fa14128140a84300fdcf19a6ef61bdb9ff6a7f0846cb8aa5a7"
          },
          "sequence": 4294967294
        }, 
        {
          "txid": "6849df30f6bf9fe24eca8a850603f47d152c0ba382b644d67a5719e6d2d855d5",
          "vout": 1,
          "scriptSig": {
            "asm": "304402202057c5ea193609a9d090c4421851892bf8713c82fe50fd6e15094619d693582a022076cab279a1227c5759eb079f9b40720dd6a94197d4d98b65f80a41ccada0d434[ALL] 033e1792763ee7afe848bf26b5dd9dc42a56ab2f9234e9fdc3eb5093faff8f0031",
            "hex": "47304402202057c5ea193609a9d090c4421851892bf8713c82fe50fd6e15094619d693582a022076cab279a1227c5759eb079f9b40720dd6a94197d4d98b65f80a41ccada0d4340121033e1792763ee7afe848bf26b5dd9dc42a56ab2f9234e9fdc3eb5093faff8f0031"
          },
          "sequence": 4294967294
        }
      ],
      "vout": [
        {
          "value": 0.01289155,
          "n": 0,
          "scriptPubKey": {
            "asm": "OP_DUP OP_HASH160 30081afa115463c1456d56e5662d2df65402ccb3 OP_EQUALVERIFY OP_CHECKSIG",
            "hex": "76a91430081afa115463c1456d56e5662d2df65402ccb388ac",
            "reqSigs": 1,
            "type": "pubkeyhash",
            "addresses": [
              "LPbvQbKB3FJsV5foogWYig8GZvuEermqqr"
            ]
          }
        }, 
        {
          "value": 0.35075290,
          "n": 1,
          "scriptPubKey": {
            "asm": "OP_DUP OP_HASH160 7aa889f56619021be7485259ecd644e86688ff51 OP_EQUALVERIFY OP_CHECKSIG",
            "hex": "76a9147aa889f56619021be7485259ecd644e86688ff5188ac",
            "reqSigs": 1,
            "type": "pubkeyhash",
            "addresses": [
              "LWQWbuQoJkZiV2YUSCxAj2voep4C4VGXJN"
            ]
          }
        }
      ],
      "hex": "02000000040e90ca2b141fef2955cb6af403e08542ffcba5e89efb08bcd2a201a366342af8010000006b483045022100b6ab50ec3c7bd451d0a5dc22e220c34079085323d6dd27f432078919b1ee12c202205055ac314d903829e8ca997f6a83b36e3de2258bf496da1e031d30000b1c22dc012103e5ff332f8970e53338b7b27be6cba74d6742fb3de81b0ae29e1dfc8076a57179feffffffa30fd77dc9f1c50d70f19ef6f63ac97e7f062b23a4407266d1fd8802fa10967a010000006b483045022100f905f59a079a195dc6a382df7f3092ab6439ff32db0b2048ff0c9f5856b6486102201a100a7f4ed7c7fd84307c00550e26c4b84a153e72af15118daf0a909301967d0121027ea2b6b4e935bd19241d604ea2503b875579bce94425751692d7d4fdeb99f17afeffffff33a9416bc5898752170bf6cf167c102e2851179f35d7a8d20a15e85acdffe785010000006b483045022100da72229d88099a9fba431c54935555bb576d9a07c522eb698fd33191208d3e4f02207d28fc5a1e1d4dd3c726bf690ab49d3717f0776bd0627373522ba242d52cc570012103b65a520f4db697fa14128140a84300fdcf19a6ef61bdb9ff6a7f0846cb8aa5a7feffffffd555d8d2e619577ad644b682a30b2c157df40306858aca4ee29fbff630df4968010000006a47304402202057c5ea193609a9d090c4421851892bf8713c82fe50fd6e15094619d693582a022076cab279a1227c5759eb079f9b40720dd6a94197d4d98b65f80a41ccada0d4340121033e1792763ee7afe848bf26b5dd9dc42a56ab2f9234e9fdc3eb5093faff8f0031feffffff02c3ab1300000000001976a91430081afa115463c1456d56e5662d2df65402ccb388acda341702000000001976a9147aa889f56619021be7485259ecd644e86688ff5188ac56bf1400"
    }, 
    {
      "txid": "8bcd642fc61c2c07d0df7f5eeef3e33530220eb3ea2da59d0471f25865696227",
      "hash": "8bcd642fc61c2c07d0df7f5eeef3e33530220eb3ea2da59d0471f25865696227",
      "version": 1,
      "size": 226,
      "vsize": 226,
      "locktime": 0,
      "vin": [
        {
          "txid": "a645332b1d4979932aeeea615a9c1535420f1eedfee3198a0ceb443a0fb9b0fa",
          "vout": 16,
          "scriptSig": {
            "asm": "3045022100eecc473436e77bf597d3d7c66326c845d4fc3a46850bcb778818801e875b96c4022075cb48b27ab2b74bf26ef29b0fddb3eeaeadcf1496d441eaacfa2501b9bc1653[ALL] 023e9a06315d59d1396280102d845a769c248f9de1a2fd3c9c869b12b54abcc9e4",
            "hex": "483045022100eecc473436e77bf597d3d7c66326c845d4fc3a46850bcb778818801e875b96c4022075cb48b27ab2b74bf26ef29b0fddb3eeaeadcf1496d441eaacfa2501b9bc16530121023e9a06315d59d1396280102d845a769c248f9de1a2fd3c9c869b12b54abcc9e4"
          },
          "sequence": 4294967295
        }
      ],
      "vout": [
        {
          "value": 59.88003623,
          "n": 0,
          "scriptPubKey": {
            "asm": "OP_DUP OP_HASH160 ea0882b7a063f09967435a63ba9a601ace6a1f44 OP_EQUALVERIFY OP_CHECKSIG",
            "hex": "76a914ea0882b7a063f09967435a63ba9a601ace6a1f4488ac",
            "reqSigs": 1,
            "type": "pubkeyhash",
            "addresses": [
              "LgZQaRr3MLA6eKRj7N7NZTRzASP2p54DNU"
            ]
          }
        }, 
        {
          "value": 2.04773777,
          "n": 1,
          "scriptPubKey": {
            "asm": "OP_DUP OP_HASH160 c1d432e647a77e29a3c928c4e0fe27b3f97d9071 OP_EQUALVERIFY OP_CHECKSIG",
            "hex": "76a914c1d432e647a77e29a3c928c4e0fe27b3f97d907188ac",
            "reqSigs": 1,
            "type": "pubkeyhash",
            "addresses": [
              "Lctpt4y5h25u9LVw3rBbEaU43xmS7gzveY"
            ]
          }
        }
      ],
      "hex": "0100000001fab0b90f3a44eb0c8a19e3feed1e0f4235159c5a61eaee2a9379491d2b3345a6100000006b483045022100eecc473436e77bf597d3d7c66326c845d4fc3a46850bcb778818801e875b96c4022075cb48b27ab2b74bf26ef29b0fddb3eeaeadcf1496d441eaacfa2501b9bc16530121023e9a06315d59d1396280102d845a769c248f9de1a2fd3c9c869b12b54abcc9e4ffffffff0227afe964010000001976a914ea0882b7a063f09967435a63ba9a601ace6a1f4488ac9199340c000000001976a914c1d432e647a77e29a3c928c4e0fe27b3f97d907188ac00000000"
    }, 
    {
      "txid": "fa14240a6f236e2cc6510568f491d8fe6484f74c68e073d64a30bfdbde1f4332",
      "hash": "fa14240a6f236e2cc6510568f491d8fe6484f74c68e073d64a30bfdbde1f4332",
      "version": 1,
      "size": 225,
      "vsize": 225,
      "locktime": 1359702,
      "vin": [
        {
          "txid": "d5ab06cb4708a6b2d57f0d0475943552753761e44ed77e897689b68f9665f6d2",
          "vout": 0,
          "scriptSig": {
            "asm": "3044022078238765a28c7d451c44dc6ae8ba7f01cb0c7415896b234bd7bf8834f3cba53d022014a91369928ee0a5e9d9c9b45f2e498095b8b4afad1174a449e4362f4f40a932[ALL] 03268659d57a9ce49d41a2d2653d45ce3d32e7dda6fa3db39d84e69eb8044c36de",
            "hex": "473044022078238765a28c7d451c44dc6ae8ba7f01cb0c7415896b234bd7bf8834f3cba53d022014a91369928ee0a5e9d9c9b45f2e498095b8b4afad1174a449e4362f4f40a932012103268659d57a9ce49d41a2d2653d45ce3d32e7dda6fa3db39d84e69eb8044c36de"
          },
          "sequence": 4294967294
        }
      ],
      "vout": [
        {
          "value": 0.01023139,
          "n": 0,
          "scriptPubKey": {
            "asm": "OP_DUP OP_HASH160 0b72c0a9f20d9ce85a4a7dd8def50ddb0581b404 OP_EQUALVERIFY OP_CHECKSIG",
            "hex": "76a9140b72c0a9f20d9ce85a4a7dd8def50ddb0581b40488ac",
            "reqSigs": 1,
            "type": "pubkeyhash",
            "addresses": [
              "LLGVAUPm2zTsH46Z2TfuZNUwyKx1k1iQDR"
            ]
          }
        }, 
        {
          "value": 0.19987700,
          "n": 1,
          "scriptPubKey": {
            "asm": "OP_DUP OP_HASH160 9d05cfeb86dcbd09978293552000f02a1462585a OP_EQUALVERIFY OP_CHECKSIG",
            "hex": "76a9149d05cfeb86dcbd09978293552000f02a1462585a88ac",
            "reqSigs": 1,
            "type": "pubkeyhash",
            "addresses": [
              "LZYDKAiHtSeTQPcSjBAiy2UZ3QefNcsLLF"
            ]
          }
        }
      ],
      "hex": "0100000001d2f665968fb68976897ed74ee461377552359475040d7fd5b2a60847cb06abd5000000006a473044022078238765a28c7d451c44dc6ae8ba7f01cb0c7415896b234bd7bf8834f3cba53d022014a91369928ee0a5e9d9c9b45f2e498095b8b4afad1174a449e4362f4f40a932012103268659d57a9ce49d41a2d2653d45ce3d32e7dda6fa3db39d84e69eb8044c36defeffffff02a39c0f00000000001976a9140b72c0a9f20d9ce85a4a7dd8def50ddb0581b40488acf4fc3001000000001976a9149d05cfeb86dcbd09978293552000f02a1462585a88ac56bf1400"
    }, 
    {
      "txid": "8a702063da3ffe61afa9714b0bad789dfb041bcef702298ed98bb8083cd48f7a",
      "hash": "8a702063da3ffe61afa9714b0bad789dfb041bcef702298ed98bb8083cd48f7a",
      "version": 1,
      "size": 226,
      "vsize": 226,
      "locktime": 0,
      "vin": [
        {
          "txid": "401a60ca9a3c7938621cab032439b6663f9d0176ab732a3eab4da71b4f6ebef4",
          "vout": 1,
          "scriptSig": {
            "asm": "30450221008ec01b2ec671c2f339a9e9fdaafc4eadf6009493bf2afff3a44cc604c02684770220335f12eb914a0954c242dd96a4e86f4a5b35a201b724965dd529c9d35bb82273[ALL] 0380d6a7d6544da08bbe70379e9aa4c6efb33e1775c59c99f1eca1bbf3fc8b6ad8",
            "hex": "4830450221008ec01b2ec671c2f339a9e9fdaafc4eadf6009493bf2afff3a44cc604c02684770220335f12eb914a0954c242dd96a4e86f4a5b35a201b724965dd529c9d35bb8227301210380d6a7d6544da08bbe70379e9aa4c6efb33e1775c59c99f1eca1bbf3fc8b6ad8"
          },
          "sequence": 4294967295
        }
      ],
      "vout": [
        {
          "value": 62.84602738,
          "n": 0,
          "scriptPubKey": {
            "asm": "OP_DUP OP_HASH160 d8e177fc38b6cef763020604f84e696891207843 OP_EQUALVERIFY OP_CHECKSIG",
            "hex": "76a914d8e177fc38b6cef763020604f84e69689120784388ac",
            "reqSigs": 1,
            "type": "pubkeyhash",
            "addresses": [
              "LeziKVF7A5vEPhGuFF9CYdLtonX9cvC6XS"
            ]
          }
        }, 
        {
          "value": 0.83659044,
          "n": 1,
          "scriptPubKey": {
            "asm": "OP_DUP OP_HASH160 0fa0f5524ca03ea95dfeee54a4be99eecbe6c665 OP_EQUALVERIFY OP_CHECKSIG",
            "hex": "76a9140fa0f5524ca03ea95dfeee54a4be99eecbe6c66588ac",
            "reqSigs": 1,
            "type": "pubkeyhash",
            "addresses": [
              "LLebDfiTmQQHr13PiQxzW8eszwZYAkKFcm"
            ]
          }
        }
      ],
      "hex": "0100000001f4be6e4f1ba74dab3e2a73ab76019d3f66b6392403ab1c6238793c9aca601a40010000006b4830450221008ec01b2ec671c2f339a9e9fdaafc4eadf6009493bf2afff3a44cc604c02684770220335f12eb914a0954c242dd96a4e86f4a5b35a201b724965dd529c9d35bb8227301210380d6a7d6544da08bbe70379e9aa4c6efb33e1775c59c99f1eca1bbf3fc8b6ad8ffffffff02726d9776010000001976a914d8e177fc38b6cef763020604f84e69689120784388ac2489fc04000000001976a9140fa0f5524ca03ea95dfeee54a4be99eecbe6c66588ac00000000"
    }, 
    {
      "txid": "1666fd26767aff939937081070160fbcdccf3053e4467e483fdc293bb6b3508b",
      "hash": "1666fd26767aff939937081070160fbcdccf3053e4467e483fdc293bb6b3508b",
      "version": 1,
      "size": 226,
      "vsize": 226,
      "locktime": 0,
      "vin": [
        {
          "txid": "22eb8331a4c80de6e6709eb92d3b7a0c0810a81842aa96cdfb3cfeb101a52e06",
          "vout": 1,
          "scriptSig": {
            "asm": "3045022100d275528f10019f8aacad9afcf137c2f4583725b0c78934391153079de67c3f57022015137f26a4ffaaf919bec798921b5357ce90df460d12e8be1e65663f7487b780[ALL] 039a498a5e37c816aa610795dcc407716e8e9b03b76b2d7ac9d98059f5075f52e2",
            "hex": "483045022100d275528f10019f8aacad9afcf137c2f4583725b0c78934391153079de67c3f57022015137f26a4ffaaf919bec798921b5357ce90df460d12e8be1e65663f7487b7800121039a498a5e37c816aa610795dcc407716e8e9b03b76b2d7ac9d98059f5075f52e2"
          },
          "sequence": 4294967295
        }
      ],
      "vout": [
        {
          "value": 0.30000000,
          "n": 0,
          "scriptPubKey": {
            "asm": "OP_DUP OP_HASH160 74b0a6d6e0297797af5dc034e1a1fc92c552e392 OP_EQUALVERIFY OP_CHECKSIG",
            "hex": "76a91474b0a6d6e0297797af5dc034e1a1fc92c552e39288ac",
            "reqSigs": 1,
            "type": "pubkeyhash",
            "addresses": [
              "LVrxGSaM2yxwfnp641VojMU4MehKReeLm6"
            ]
          }
        }, 
        {
          "value": 0.00980417,
          "n": 1,
          "scriptPubKey": {
            "asm": "OP_DUP OP_HASH160 828fed71722b667e5776854bd2f298451ba146ff OP_EQUALVERIFY OP_CHECKSIG",
            "hex": "76a914828fed71722b667e5776854bd2f298451ba146ff88ac",
            "reqSigs": 1,
            "type": "pubkeyhash",
            "addresses": [
              "LX8JXQix4uJZx9NpzSfQxELamY3CjPvD73"
            ]
          }
        }
      ],
      "hex": "0100000001062ea501b1fe3cfbcd96aa4218a810080c7a3b2db99e70e6e60dc8a43183eb22010000006b483045022100d275528f10019f8aacad9afcf137c2f4583725b0c78934391153079de67c3f57022015137f26a4ffaaf919bec798921b5357ce90df460d12e8be1e65663f7487b7800121039a498a5e37c816aa610795dcc407716e8e9b03b76b2d7ac9d98059f5075f52e2ffffffff0280c3c901000000001976a91474b0a6d6e0297797af5dc034e1a1fc92c552e39288acc1f50e00000000001976a914828fed71722b667e5776854bd2f298451ba146ff88ac00000000"
    }, 
    {
      "txid": "367954a2cbe7c8171dd24a0a2a1f6017e478f4c565595df515aff8c4fabbe993",
      "hash": "367954a2cbe7c8171dd24a0a2a1f6017e478f4c565595df515aff8c4fabbe993",
      "version": 1,
      "size": 226,
      "vsize": 226,
      "locktime": 0,
      "vin": [
        {
          "txid": "791dccd1b00efbae2d46b8a0a8f61a0d2d6c5c2190612a9d02abf23f0cc2c47b",
          "vout": 1,
          "scriptSig": {
            "asm": "3045022100945fd6a084f33a55bc931ba727488cfdcd804100dfd83f20225815ade023e1e40220621748194a607ea9c5c6ecc8baeef5f7defdde2db709b157fe63ca03a871bc8e[ALL] 020e25cf34ec14cfeff0d392e7ee6c4f7ae925c564239893f642eaae256593fb9c",
            "hex": "483045022100945fd6a084f33a55bc931ba727488cfdcd804100dfd83f20225815ade023e1e40220621748194a607ea9c5c6ecc8baeef5f7defdde2db709b157fe63ca03a871bc8e0121020e25cf34ec14cfeff0d392e7ee6c4f7ae925c564239893f642eaae256593fb9c"
          },
          "sequence": 4294967295
        }
      ],
      "vout": [
        {
          "value": 65.17811242,
          "n": 0,
          "scriptPubKey": {
            "asm": "OP_DUP OP_HASH160 00fbb4f0dace24b8ffde81c4b7c1536367a5c78b OP_EQUALVERIFY OP_CHECKSIG",
            "hex": "76a91400fbb4f0dace24b8ffde81c4b7c1536367a5c78b88ac",
            "reqSigs": 1,
            "type": "pubkeyhash",
            "addresses": [
              "LKK9o7Ds3BvdyRR8yueRRGnf1AXP5RSfy6"
            ]
          }
        }, 
        {
          "value": 0.35282121,
          "n": 1,
          "scriptPubKey": {
            "asm": "OP_DUP OP_HASH160 96ec254a36533b41318610eb421d3e114976ba18 OP_EQUALVERIFY OP_CHECKSIG",
            "hex": "76a91496ec254a36533b41318610eb421d3e114976ba1888ac",
            "reqSigs": 1,
            "type": "pubkeyhash",
            "addresses": [
              "LYyxWgA64cw4RyCyKGMp3BvXndogew8EzH"
            ]
          }
        }
      ],
      "hex": "01000000017bc4c20c3ff2ab029d2a6190215c6c2d0d1af6a8a0b8462daefb0eb0d1cc1d79010000006b483045022100945fd6a084f33a55bc931ba727488cfdcd804100dfd83f20225815ade023e1e40220621748194a607ea9c5c6ecc8baeef5f7defdde2db709b157fe63ca03a871bc8e0121020e25cf34ec14cfeff0d392e7ee6c4f7ae925c564239893f642eaae256593fb9cffffffff022ae87d84010000001976a91400fbb4f0dace24b8ffde81c4b7c1536367a5c78b88acc95c1a02000000001976a91496ec254a36533b41318610eb421d3e114976ba1888ac00000000"
    }, 
    {
      "txid": "38655380c19d2c97e402753dc69319c754c3af6ed18100e05c68ebbcea6ff6f3",
      "hash": "38655380c19d2c97e402753dc69319c754c3af6ed18100e05c68ebbcea6ff6f3",
      "version": 1,
      "size": 226,
      "vsize": 226,
      "locktime": 1359702,
      "vin": [
        {
          "txid": "465b1420b0082ea4ad9136d567e351c092a3dd7174c28fd1c6015b2a763be784",
          "vout": 0,
          "scriptSig": {
            "asm": "3045022100f9ac24605515617af2a68dee4bca7f1e78430c8670d7ce38c7b5b75dcb55a8d902205ad1b7f9a67080495a03e5f98f1c6f812e6be1832bc7b40c24fdf59d23f7d2b4[ALL] 0277d1b7d795d218e2fae27acb2b91c419b4fad435197c274bc2d989fd23482fbf",
            "hex": "483045022100f9ac24605515617af2a68dee4bca7f1e78430c8670d7ce38c7b5b75dcb55a8d902205ad1b7f9a67080495a03e5f98f1c6f812e6be1832bc7b40c24fdf59d23f7d2b401210277d1b7d795d218e2fae27acb2b91c419b4fad435197c274bc2d989fd23482fbf"
          },
          "sequence": 4294967294
        }
      ],
      "vout": [
        {
          "value": 0.08299634,
          "n": 0,
          "scriptPubKey": {
            "asm": "OP_DUP OP_HASH160 9466e5f553ac4db55a22f641dd6ecca62f7ee544 OP_EQUALVERIFY OP_CHECKSIG",
            "hex": "76a9149466e5f553ac4db55a22f641dd6ecca62f7ee54488ac",
            "reqSigs": 1,
            "type": "pubkeyhash",
            "addresses": [
              "LYkdY6qHQnbMgfQkQmF55K68JSd4BdhT66"
            ]
          }
        }, 
        {
          "value": 0.01012472,
          "n": 1,
          "scriptPubKey": {
            "asm": "OP_DUP OP_HASH160 c5d2603f402a8de41d28a454d3d8d46c189be472 OP_EQUALVERIFY OP_CHECKSIG",
            "hex": "76a914c5d2603f402a8de41d28a454d3d8d46c189be47288ac",
            "reqSigs": 1,
            "type": "pubkeyhash",
            "addresses": [
              "LdFwQBWEJ3Kukv5mZACLCe1XojxHRGMpHc"
            ]
          }
        }
      ],
      "hex": "010000000184e73b762a5b01c6d18fc27471dda392c051e367d53691ada42e08b020145b46000000006b483045022100f9ac24605515617af2a68dee4bca7f1e78430c8670d7ce38c7b5b75dcb55a8d902205ad1b7f9a67080495a03e5f98f1c6f812e6be1832bc7b40c24fdf59d23f7d2b401210277d1b7d795d218e2fae27acb2b91c419b4fad435197c274bc2d989fd23482fbffeffffff0272a47e00000000001976a9149466e5f553ac4db55a22f641dd6ecca62f7ee54488acf8720f00000000001976a914c5d2603f402a8de41d28a454d3d8d46c189be47288ac56bf1400"
    }
  ],
  "time": 1517320483,
  "mediantime": 1517319872,
  "nonce": 617085059,
  "bits": "1a042eae",
  "difficulty": 4011378.762614286,
  "chainwork": "00000000000000000000000000000000000000000000003440dc12c4d4db7932",
  "previousblockhash": "7c35f81728a6b7ea3564468b92bd167aa7ce44339cae5e270644e86e7b9ae19c",
  "nextblockhash": "979efac31e2b7cc7f30af7498544c441928d2af5523698d9947f76ef76b762a7"
}
