{
  "hash": "0a56e2714bfce37362beba1b2911435ac5dbca704deaf9364072ec7cf9a49ae2",
  "confirmations": 2465,
  "strippedsize": 1187,
  "size": 1223,
  "weight": 4784,
  "height": 1358530,
  "version": 536870912,
  "versionHex": "20000000",
  "merkleroot": "2e6410d69d41e27f67d0dccac7e66b1618faee94b13fb8a9cfcbb1982e35e62c",
  "tx": [
    {
      "txid": "92a956c5b987e5fb95e7ca5e3e6d352456a24b1eb6e7329134a9b2b2d3d96e95",
      "hash": "d55dbb93b57d3545f7b1ac71448dd4754162687d3afb0fd488d069b62593aba6",
      "version": 1,
      "size": 243,
      "vsize": 216,
      "locktime": 0,
      "vin": [
        {
          "coinbase": "03c2ba1404fdf06d5afabe6d6d3d7947768ad3b1ec028984a05347da7bfe67ca29050935c79d2d1394d630145f100000000000000008501cc58e2a0000000c2f52574e4b58474a5532372f",
          "sequence": 0
        }
      ],
      "vout": [
        {
          "value": 25.00226677,
          "n": 0,
          "scriptPubKey": {
            "asm": "OP_DUP OP_HASH160 81308472f5a29a68cec40cbb4cd3f4be72094456 OP_EQUALVERIFY OP_CHECKSIG",
            "hex": "76a91481308472f5a29a68cec40cbb4cd3f4be7209445688ac",
            "reqSigs": 1,
            "type": "pubkeyhash",
            "addresses": [
              "LX13Z1HZKVzRDabi8CsPdGhp7YbC7Q8qtn"
            ]
          }
        }, 
        {
          "value": 0.00000000,
          "n": 1,
          "scriptPubKey": {
            "asm": "OP_RETURN aa21a9ed2edfdc1b3cedd8b3c8eb4af232abe79e4d050c546034d6181eba8b6759059554",
            "hex": "6a24aa21a9ed2edfdc1b3cedd8b3c8eb4af232abe79e4d050c546034d6181eba8b6759059554",
            "type": "nulldata"
          }
        }
      ],
      "hex": "010000000001010000000000000000000000000000000000000000000000000000000000000000ffffffff4b03c2ba1404fdf06d5afabe6d6d3d7947768ad3b1ec028984a05347da7bfe67ca29050935c79d2d1394d630145f100000000000000008501cc58e2a0000000c2f52574e4b58474a5532372f0000000002756e0695000000001976a91481308472f5a29a68cec40cbb4cd3f4be7209445688ac0000000000000000266a24aa21a9ed2edfdc1b3cedd8b3c8eb4af232abe79e4d050c546034d6181eba8b67590595540120000000000000000000000000000000000000000000000000000000000000000000000000"
    }, 
    {
      "txid": "bfc74d90ff7de5565d58105009ba64be527d7a7256fdef817efc7f7a0e9c3616",
      "hash": "bfc74d90ff7de5565d58105009ba64be527d7a7256fdef817efc7f7a0e9c3616",
      "version": 1,
      "size": 224,
      "vsize": 224,
      "locktime": 0,
      "vin": [
        {
          "txid": "b548a310676a7551bd1701c5d6c6fc8e3bcc6205c1267a9c399925a1d87d0d1a",
          "vout": 1,
          "scriptSig": {
            "asm": "3045022100cddd5d273f5dad6380e1f8d08fedce8eaaf3345baae1d36f5f600dd9ca73323b022026b3f5c98a5570c2af6753231ed0c07767f43c3e876b048446b0d0b0fa56a2a5[ALL] 02337d54789d5a6038c9182a90a4710385636e6204a013ab77aa7067329716e7b5",
            "hex": "483045022100cddd5d273f5dad6380e1f8d08fedce8eaaf3345baae1d36f5f600dd9ca73323b022026b3f5c98a5570c2af6753231ed0c07767f43c3e876b048446b0d0b0fa56a2a5012102337d54789d5a6038c9182a90a4710385636e6204a013ab77aa7067329716e7b5"
          },
          "sequence": 4294967295
        }
      ],
      "vout": [
        {
          "value": 0.00900000,
          "n": 0,
          "scriptPubKey": {
            "asm": "OP_HASH160 81786f198de130becc6ff60b13005f633be79714 OP_EQUAL",
            "hex": "a91481786f198de130becc6ff60b13005f633be7971487",
            "reqSigs": 1,
            "type": "scripthash",
            "addresses": [
              "MKhjg5NadXNffRwN3HpbSCA1jMfitLau5V"
            ]
          }
        }, 
        {
          "value": 163.86354015,
          "n": 1,
          "scriptPubKey": {
            "asm": "OP_DUP OP_HASH160 51424f55819547fcbf9fd2c7dccfbb1ab9e9451a OP_EQUALVERIFY OP_CHECKSIG",
            "hex": "76a91451424f55819547fcbf9fd2c7dccfbb1ab9e9451a88ac",
            "reqSigs": 1,
            "type": "pubkeyhash",
            "addresses": [
              "LSdcS3VaRbxkXC8UAFNioqmqpuYtZPZG6p"
            ]
          }
        }
      ],
      "hex": "01000000011a0d7dd8a12599399c7a26c10562cc3b8efcc6d6c50117bd51756a6710a348b5010000006b483045022100cddd5d273f5dad6380e1f8d08fedce8eaaf3345baae1d36f5f600dd9ca73323b022026b3f5c98a5570c2af6753231ed0c07767f43c3e876b048446b0d0b0fa56a2a5012102337d54789d5a6038c9182a90a4710385636e6204a013ab77aa7067329716e7b5ffffffff02a0bb0d000000000017a91481786f198de130becc6ff60b13005f633be79714875febb3d0030000001976a91451424f55819547fcbf9fd2c7dccfbb1ab9e9451a88ac00000000"
    }, 
    {
      "txid": "f60fed3fcd3f3d0cc6260724798301f2099062b72c32a6547291030f98f42f0b",
      "hash": "f60fed3fcd3f3d0cc6260724798301f2099062b72c32a6547291030f98f42f0b",
      "version": 2,
      "size": 225,
      "vsize": 225,
      "locktime": 0,
      "vin": [
        {
          "txid": "a0ebc26ab68ce0293e3d04589bc0cc73ba7d8d6b8ba27caf06c13ee25d728b4c",
          "vout": 0,
          "scriptSig": {
            "asm": "3044022029e3d77aab362160ce76eede3937ec12f7d2e5b0259b6b18c2cf6f97dc1d0581022065a5427d8b5260931c817f74b059b95c3046cc316a98e8d09b0a77f1c3e87e80[ALL] 02c4dbc45d0e2ccfbe675b6d7bc6d8176498e348f33f6b4ec821fd06e946fbd58e",
            "hex": "473044022029e3d77aab362160ce76eede3937ec12f7d2e5b0259b6b18c2cf6f97dc1d0581022065a5427d8b5260931c817f74b059b95c3046cc316a98e8d09b0a77f1c3e87e80012102c4dbc45d0e2ccfbe675b6d7bc6d8176498e348f33f6b4ec821fd06e946fbd58e"
          },
          "sequence": 4294967295
        }
      ],
      "vout": [
        {
          "value": 0.20000000,
          "n": 0,
          "scriptPubKey": {
            "asm": "OP_DUP OP_HASH160 7125a742a2065ddcddec7bb7a5cf7555bfbe0e3a OP_EQUALVERIFY OP_CHECKSIG",
            "hex": "76a9147125a742a2065ddcddec7bb7a5cf7555bfbe0e3a88ac",
            "reqSigs": 1,
            "type": "pubkeyhash",
            "addresses": [
              "LVYDj6F4L2LyAVQX1Mk3RCbwSfwSU8LzA3"
            ]
          }
        }, 
        {
          "value": 24.07845068,
          "n": 1,
          "scriptPubKey": {
            "asm": "OP_DUP OP_HASH160 c9da2272cbee8e0f329061e69b8ab25f736cfe1c OP_EQUALVERIFY OP_CHECKSIG",
            "hex": "76a914c9da2272cbee8e0f329061e69b8ab25f736cfe1c88ac",
            "reqSigs": 1,
            "type": "pubkeyhash",
            "addresses": [
              "LddFQ2UEFqXyA7pLgn43oU577EZPgre4SD"
            ]
          }
        }
      ],
      "hex": "02000000014c8b725de23ec106af7ca28b6b8d7dba73ccc09b58043d3e29e08cb66ac2eba0000000006a473044022029e3d77aab362160ce76eede3937ec12f7d2e5b0259b6b18c2cf6f97dc1d0581022065a5427d8b5260931c817f74b059b95c3046cc316a98e8d09b0a77f1c3e87e80012102c4dbc45d0e2ccfbe675b6d7bc6d8176498e348f33f6b4ec821fd06e946fbd58effffffff02002d3101000000001976a9147125a742a2065ddcddec7bb7a5cf7555bfbe0e3a88accccc848f000000001976a914c9da2272cbee8e0f329061e69b8ab25f736cfe1c88ac00000000"
    }, 
    {
      "txid": "5eb6f4cd4994b17908fd531be238b813787a8a2560e6d7a2a51c82043f974dae",
      "hash": "5eb6f4cd4994b17908fd531be238b813787a8a2560e6d7a2a51c82043f974dae",
      "version": 2,
      "size": 225,
      "vsize": 225,
      "locktime": 1358528,
      "vin": [
        {
          "txid": "754ea5dda09e348e89ab09f6481a6ec005ef0f85829749215279940de76e3266",
          "vout": 0,
          "scriptSig": {
            "asm": "304402202107c7ca9cab40d20109ac805a66f434140f1173968b3bf808ae6cfb1f474e3802204f00c72bc74949bc4e04f8d1a3dd995835017b768ab1401c0f548ad00371e03a[ALL] 03623d92394fbe9fc67316836c4bb3f087b8147441575119f706153fa548f29874",
            "hex": "47304402202107c7ca9cab40d20109ac805a66f434140f1173968b3bf808ae6cfb1f474e3802204f00c72bc74949bc4e04f8d1a3dd995835017b768ab1401c0f548ad00371e03a012103623d92394fbe9fc67316836c4bb3f087b8147441575119f706153fa548f29874"
          },
          "sequence": 4294967294
        }
      ],
      "vout": [
        {
          "value": 1.82895898,
          "n": 0,
          "scriptPubKey": {
            "asm": "OP_DUP OP_HASH160 b874962f9e6cd0b881d19ed071e683fe78f3a2f2 OP_EQUALVERIFY OP_CHECKSIG",
            "hex": "76a914b874962f9e6cd0b881d19ed071e683fe78f3a2f288ac",
            "reqSigs": 1,
            "type": "pubkeyhash",
            "addresses": [
              "Lc3GG6MvvGVAWeiCoMr5eaK9ysN6MzyEsz"
            ]
          }
        }, 
        {
          "value": 0.80583697,
          "n": 1,
          "scriptPubKey": {
            "asm": "OP_DUP OP_HASH160 30e4f7aaa65902d72448cb8268379391c1320f98 OP_EQUALVERIFY OP_CHECKSIG",
            "hex": "76a91430e4f7aaa65902d72448cb8268379391c1320f9888ac",
            "reqSigs": 1,
            "type": "pubkeyhash",
            "addresses": [
              "LPgUzMihNncatkUtKKYFHuzDK4S7W66yp2"
            ]
          }
        }
      ],
      "hex": "020000000166326ee70d94795221499782850fef05c06e1a48f609ab898e349ea0dda54e75000000006a47304402202107c7ca9cab40d20109ac805a66f434140f1173968b3bf808ae6cfb1f474e3802204f00c72bc74949bc4e04f8d1a3dd995835017b768ab1401c0f548ad00371e03a012103623d92394fbe9fc67316836c4bb3f087b8147441575119f706153fa548f29874feffffff021ac5e60a000000001976a914b874962f9e6cd0b881d19ed071e683fe78f3a2f288ac119ccd04000000001976a91430e4f7aaa65902d72448cb8268379391c1320f9888acc0ba1400"
    }, 
    {
      "txid": "28211e6c9e1720927e20c2df36027c4a23a17e704895e8da8e25f9a04fe02792",
      "hash": "28211e6c9e1720927e20c2df36027c4a23a17e704895e8da8e25f9a04fe02792",
      "version": 1,
      "size": 225,
      "vsize": 225,
      "locktime": 1358528,
      "vin": [
        {
          "txid": "6e01aa6525149b30602c1dc8bba807dd17a66708d66754efad12a973eab412cc",
          "vout": 0,
          "scriptSig": {
            "asm": "30440220736c49e5f40c2909ddde522a50e1e153e32615aa10808c891b2522fb1602ce98022067195c278f1e9d1148ccc65bf1113e6c42dee5984dc1a7a652e234a610ef7ef9[ALL] 023520750b2fbdbdde4e08b29382e2b016dade7de846d4bc3855508297852b4924",
            "hex": "4730440220736c49e5f40c2909ddde522a50e1e153e32615aa10808c891b2522fb1602ce98022067195c278f1e9d1148ccc65bf1113e6c42dee5984dc1a7a652e234a610ef7ef90121023520750b2fbdbdde4e08b29382e2b016dade7de846d4bc3855508297852b4924"
          },
          "sequence": 4294967294
        }
      ],
      "vout": [
        {
          "value": 50.00000000,
          "n": 0,
          "scriptPubKey": {
            "asm": "OP_DUP OP_HASH160 d8659fe4ce5e969efb5c18905b109f5ece775fbc OP_EQUALVERIFY OP_CHECKSIG",
            "hex": "76a914d8659fe4ce5e969efb5c18905b109f5ece775fbc88ac",
            "reqSigs": 1,
            "type": "pubkeyhash",
            "addresses": [
              "Lex9xeZGmn38CYmoU4yFRVphX35HFqe7EQ"
            ]
          }
        }, 
        {
          "value": 549.99977500,
          "n": 1,
          "scriptPubKey": {
            "asm": "OP_DUP OP_HASH160 942a4d3994e5fbd11e46dc19f216018d2e4b2e04 OP_EQUALVERIFY OP_CHECKSIG",
            "hex": "76a914942a4d3994e5fbd11e46dc19f216018d2e4b2e0488ac",
            "reqSigs": 1,
            "type": "pubkeyhash",
            "addresses": [
              "LYjNwmtahELPr6KR72aE696JpBd13YhGFU"
            ]
          }
        }
      ],
      "hex": "0100000001cc12b4ea73a912adef5467d60867a617dd07a8bbc81d2c60309b142565aa016e000000006a4730440220736c49e5f40c2909ddde522a50e1e153e32615aa10808c891b2522fb1602ce98022067195c278f1e9d1148ccc65bf1113e6c42dee5984dc1a7a652e234a610ef7ef90121023520750b2fbdbdde4e08b29382e2b016dade7de846d4bc3855508297852b4924feffffff0200f2052a010000001976a914d8659fe4ce5e969efb5c18905b109f5ece775fbc88ac1c0e41ce0c0000001976a914942a4d3994e5fbd11e46dc19f216018d2e4b2e0488acc0ba1400"
    }
  ],
  "time": 1517154357,
  "mediantime": 1517153700,
  "nonce": 405857419,
  "bits": "1a047f14",
  "difficulty": 3731199.183374282,
  "chainwork": "0000000000000000000000000000000000000000000000332c6182388160bece",
  "previousblockhash": "c471b07d57c324bc922508a9e833f61b2aab7a881bf1ace7961d8cbba521c74a",
  "nextblockhash": "f3446394e851e4822d6ac763a49b5118b078fb364e3b3314f53b5e16a60a2a4f"
}
