{
  "hash": "0a6c71c5a966c086a1719a96b69e44ce86e8e5a552ce63df0f076ca1c8838818",
  "confirmations": 3647,
  "strippedsize": 255,
  "size": 255,
  "weight": 1020,
  "height": 1357348,
  "version": 536870912,
  "versionHex": "20000000",
  "merkleroot": "ca107cfbceafbd717313b3807b9f93e888c274cca2ea054751d4110f24d1fe35",
  "tx": [
    {
      "txid": "ca107cfbceafbd717313b3807b9f93e888c274cca2ea054751d4110f24d1fe35",
      "hash": "ca107cfbceafbd717313b3807b9f93e888c274cca2ea054751d4110f24d1fe35",
      "version": 1,
      "size": 174,
      "vsize": 174,
      "locktime": 0,
      "vin": [
        {
          "coinbase": "0324b6141c4d696e656420627920416e74506f6f6c20626a3242205a6b7b041001fabe6d6dbf36a0d8838cb83d2483a42012d751bd0bb8cf2e07ed7c5f910d8aadf7da27c404000000000000004e2d0000000000000f000000",
          "sequence": 4294967295
        }
      ],
      "vout": [
        {
          "value": 25.00000000,
          "n": 0,
          "scriptPubKey": {
            "asm": "OP_DUP OP_HASH160 0ff3ccc5e8be88afe24b5d634e5852d474dbdff1 OP_EQUALVERIFY OP_CHECKSIG",
            "hex": "76a9140ff3ccc5e8be88afe24b5d634e5852d474dbdff188ac",
            "reqSigs": 1,
            "type": "pubkeyhash",
            "addresses": [
              "LLgJTbzZMsRTCUF1NtvvL9SR1a4pVieW89"
            ]
          }
        }
      ],
      "hex": "01000000010000000000000000000000000000000000000000000000000000000000000000ffffffff590324b6141c4d696e656420627920416e74506f6f6c20626a3242205a6b7b041001fabe6d6dbf36a0d8838cb83d2483a42012d751bd0bb8cf2e07ed7c5f910d8aadf7da27c404000000000000004e2d0000000000000f000000ffffffff0100f90295000000001976a9140ff3ccc5e8be88afe24b5d634e5852d474dbdff188ac00000000"
    }
  ],
  "time": 1516993284,
  "mediantime": 1516992883,
  "nonce": 2473779017,
  "bits": "1a047f14",
  "difficulty": 3731199.183374282,
  "chainwork": "0000000000000000000000000000000000000000000000322580fd1d3cae3ec2",
  "previousblockhash": "fca3e15c1f5f8fd3b289bc32405910d2bdba010c97424f5d43b299b69ba41654",
  "nextblockhash": "cb865f51abe61d1ab0cb96b4037a85795e0dc4d03880bcca644c75b82be6c56c"
}
