{
  "hash": "0a7aef04523e7b728b243ced4f7bfbcae559e310b5fb3c0fc0d41478192a307a",
  "confirmations": 1948,
  "strippedsize": 3355,
  "size": 3391,
  "weight": 13456,
  "height": 1359046,
  "version": 536870912,
  "versionHex": "20000000",
  "merkleroot": "95fc5670b2e677191b6335d3261f85321df9c91cfd4ea0ea8ae0032c1a1603a2",
  "tx": [
    {
      "txid": "5f03b3450301d77dccb927d286a2dc6707d9961a57c0d167b6009654051cf128",
      "hash": "a75d5478f8fd9da97b216eaa9b135d8b9e6f64bef6071cdd99f65a330f6164d8",
      "version": 1,
      "size": 240,
      "vsize": 213,
      "locktime": 0,
      "vin": [
        {
          "coinbase": "03c6bc14046d166f5a080438009903000000fabe6d6d93179b277a68cd7fc7ebb469850523b27032c0fc4a4ab6b355cf4437b3e21bab4000000000000000092f4c54432e544f502f",
          "sequence": 0
        }
      ],
      "vout": [
        {
          "value": 25.00528598,
          "n": 0,
          "scriptPubKey": {
            "asm": "OP_DUP OP_HASH160 0c617fdb2ea42aed30a509595ee21ba3f6688db0 OP_EQUALVERIFY OP_CHECKSIG",
            "hex": "76a9140c617fdb2ea42aed30a509595ee21ba3f6688db088ac",
            "reqSigs": 1,
            "type": "pubkeyhash",
            "addresses": [
              "LLMRAtr3qBje2ySEa3CnZ55LA4TQMWnRY3"
            ]
          }
        }, 
        {
          "value": 0.00000000,
          "n": 1,
          "scriptPubKey": {
            "asm": "OP_RETURN aa21a9ede6592116c8e8b5e24dbe8096857655b12978ff2f3cf039474b38764539564381",
            "hex": "6a24aa21a9ede6592116c8e8b5e24dbe8096857655b12978ff2f3cf039474b38764539564381",
            "type": "nulldata"
          }
        }
      ],
      "hex": "010000000001010000000000000000000000000000000000000000000000000000000000000000ffffffff4803c6bc14046d166f5a080438009903000000fabe6d6d93179b277a68cd7fc7ebb469850523b27032c0fc4a4ab6b355cf4437b3e21bab4000000000000000092f4c54432e544f502f0000000002d6090b95000000001976a9140c617fdb2ea42aed30a509595ee21ba3f6688db088ac0000000000000000266a24aa21a9ede6592116c8e8b5e24dbe8096857655b12978ff2f3cf039474b387645395643810120000000000000000000000000000000000000000000000000000000000000000000000000"
    }, 
    {
      "txid": "5062dcc21c86cf18c1f1ed5f81faf7e4009177b3db76231c23c66801c69d1e74",
      "hash": "5062dcc21c86cf18c1f1ed5f81faf7e4009177b3db76231c23c66801c69d1e74",
      "version": 1,
      "size": 191,
      "vsize": 191,
      "locktime": 0,
      "vin": [
        {
          "txid": "58bd71028e9eed64a4c63a08203eb523760ae0f58d545917456cfecfaaa54ed0",
          "vout": 0,
          "scriptSig": {
            "asm": "304402205290eff666c55ee15ee6d0eae5a26cf366b87ae04ed0fb1eae4ef43fda1661c4022079d404ce27284d59f8010a598879566c99fc363a9dab01788fa9ad07dbafd6ed[ALL] 02fe9fa9c9a8b028f21a979c27fae01402b35b0b29f79b35daa261b6ac0fc164b8",
            "hex": "47304402205290eff666c55ee15ee6d0eae5a26cf366b87ae04ed0fb1eae4ef43fda1661c4022079d404ce27284d59f8010a598879566c99fc363a9dab01788fa9ad07dbafd6ed012102fe9fa9c9a8b028f21a979c27fae01402b35b0b29f79b35daa261b6ac0fc164b8"
          },
          "sequence": 4294967294
        }
      ],
      "vout": [
        {
          "value": 2.99800000,
          "n": 0,
          "scriptPubKey": {
            "asm": "OP_DUP OP_HASH160 2650243fcc72d4e47673f90708840f98f39a8f10 OP_EQUALVERIFY OP_CHECKSIG",
            "hex": "76a9142650243fcc72d4e47673f90708840f98f39a8f1088ac",
            "reqSigs": 1,
            "type": "pubkeyhash",
            "addresses": [
              "LNiXwqaodyPbSwtnLfHFQe1E35yfy98g32"
            ]
          }
        }
      ],
      "hex": "0100000001d04ea5aacffe6c451759548df5e00a7623b53e20083ac6a464ed9e8e0271bd58000000006a47304402205290eff666c55ee15ee6d0eae5a26cf366b87ae04ed0fb1eae4ef43fda1661c4022079d404ce27284d59f8010a598879566c99fc363a9dab01788fa9ad07dbafd6ed012102fe9fa9c9a8b028f21a979c27fae01402b35b0b29f79b35daa261b6ac0fc164b8feffffff01c095de11000000001976a9142650243fcc72d4e47673f90708840f98f39a8f1088ac00000000"
    }, 
    {
      "txid": "00dae0606ffb89bbf8ed3be9797ea7ac5e2068b117400e71b01f43b2306a017b",
      "hash": "00dae0606ffb89bbf8ed3be9797ea7ac5e2068b117400e71b01f43b2306a017b",
      "version": 1,
      "size": 226,
      "vsize": 226,
      "locktime": 0,
      "vin": [
        {
          "txid": "1575ab6d6ecd6965176158decf4c24676c533872ab1ac520eed8bde2459e15ff",
          "vout": 1,
          "scriptSig": {
            "asm": "3045022100c67c8867365b63c3b0d0480408a5b0e5e077ec4a7c3957cf5b28334db0fdb9bd022018bb17043971bbca4e945a91bd122f260691d2538ed103606e97ab1e33461b6c[ALL] 022885311ac5906c1fd7179ae0e7610d98407462f3e4023fc7f48bd11b655d33d9",
            "hex": "483045022100c67c8867365b63c3b0d0480408a5b0e5e077ec4a7c3957cf5b28334db0fdb9bd022018bb17043971bbca4e945a91bd122f260691d2538ed103606e97ab1e33461b6c0121022885311ac5906c1fd7179ae0e7610d98407462f3e4023fc7f48bd11b655d33d9"
          },
          "sequence": 4294967295
        }
      ],
      "vout": [
        {
          "value": 3.00000000,
          "n": 0,
          "scriptPubKey": {
            "asm": "OP_DUP OP_HASH160 f65eb849568e641419e95325a5617aecf84f8641 OP_EQUALVERIFY OP_CHECKSIG",
            "hex": "76a914f65eb849568e641419e95325a5617aecf84f864188ac",
            "reqSigs": 1,
            "type": "pubkeyhash",
            "addresses": [
              "LhgdxexGBrU1j2TwLrB3BqoLpxW1GQzEt8"
            ]
          }
        }, 
        {
          "value": 35.66891923,
          "n": 1,
          "scriptPubKey": {
            "asm": "OP_DUP OP_HASH160 dcbadfc8e25e7fae1b3c3c734fe9a0e07f02fa7a OP_EQUALVERIFY OP_CHECKSIG",
            "hex": "76a914dcbadfc8e25e7fae1b3c3c734fe9a0e07f02fa7a88ac",
            "reqSigs": 1,
            "type": "pubkeyhash",
            "addresses": [
              "LfM4nfEASZnMtb9FasyboSCMxPNcsThrsM"
            ]
          }
        }
      ],
      "hex": "0100000001ff159e45e2bdd8ee20c51aab7238536c67244ccfde5861176569cd6e6dab7515010000006b483045022100c67c8867365b63c3b0d0480408a5b0e5e077ec4a7c3957cf5b28334db0fdb9bd022018bb17043971bbca4e945a91bd122f260691d2538ed103606e97ab1e33461b6c0121022885311ac5906c1fd7179ae0e7610d98407462f3e4023fc7f48bd11b655d33d9ffffffff0200a3e111000000001976a914f65eb849568e641419e95325a5617aecf84f864188ac93739ad4000000001976a914dcbadfc8e25e7fae1b3c3c734fe9a0e07f02fa7a88ac00000000"
    }, 
    {
      "txid": "09c9e1d0c402e3396b23dbd1a56db38e580be6797870a1302407f43a196f173d",
      "hash": "09c9e1d0c402e3396b23dbd1a56db38e580be6797870a1302407f43a196f173d",
      "version": 1,
      "size": 373,
      "vsize": 373,
      "locktime": 0,
      "vin": [
        {
          "txid": "d913f7924e496ebdbc360a8d70c8f34d0e3e456e0d4ced66b69940eddd16c608",
          "vout": 1,
          "scriptSig": {
            "asm": "304402201db74f203f40777c82689c41c7d8ab57db72dd2c4b49330111167e8e961e8ca102207fabb047bb9e85d85faa5f3c3f18585c950773f24406b2d06664e458583ecfa9[ALL] 0366b70120b0d8c8dca2990a5e1f3b405ee50d1439670561af4e2e072183c183a2",
            "hex": "47304402201db74f203f40777c82689c41c7d8ab57db72dd2c4b49330111167e8e961e8ca102207fabb047bb9e85d85faa5f3c3f18585c950773f24406b2d06664e458583ecfa901210366b70120b0d8c8dca2990a5e1f3b405ee50d1439670561af4e2e072183c183a2"
          },
          "sequence": 4294967295
        }, 
        {
          "txid": "7f71b58bfae6e8a4389ffdc6d684d2db555b76c2bfe5e296728683bf1381f263",
          "vout": 1,
          "scriptSig": {
            "asm": "3045022100bdc655c23d3bd86c58b345962fe1f731d7941c65f5ea5afde04e8a376a0972db02204b8de7ed4082047938f22fb397eeb1d49b64b0d29c261c1d2f7d1721a039727e[ALL] 0340dd7db94c50e9c65a7ec452246053f9ac890aff6ad58073a4497a4adea113e4",
            "hex": "483045022100bdc655c23d3bd86c58b345962fe1f731d7941c65f5ea5afde04e8a376a0972db02204b8de7ed4082047938f22fb397eeb1d49b64b0d29c261c1d2f7d1721a039727e01210340dd7db94c50e9c65a7ec452246053f9ac890aff6ad58073a4497a4adea113e4"
          },
          "sequence": 4294967295
        }
      ],
      "vout": [
        {
          "value": 0.20000000,
          "n": 0,
          "scriptPubKey": {
            "asm": "OP_DUP OP_HASH160 12b3894630cc4ad9fbf76aa31ae136fb96f2f816 OP_EQUALVERIFY OP_CHECKSIG",
            "hex": "76a91412b3894630cc4ad9fbf76aa31ae136fb96f2f81688ac",
            "reqSigs": 1,
            "type": "pubkeyhash",
            "addresses": [
              "LLvqW4XtU3FDFU1x4bfihHXCBVuE1bUMPP"
            ]
          }
        }, 
        {
          "value": 0.00341937,
          "n": 1,
          "scriptPubKey": {
            "asm": "OP_DUP OP_HASH160 172336aef98b0368c85a6b0f02eafbaa136cd8f0 OP_EQUALVERIFY OP_CHECKSIG",
            "hex": "76a914172336aef98b0368c85a6b0f02eafbaa136cd8f088ac",
            "reqSigs": 1,
            "type": "pubkeyhash",
            "addresses": [
              "LMLHzJuEmBGCcirrEtE2W8fZ4cLto8QHy9"
            ]
          }
        }
      ],
      "hex": "010000000208c616dded4099b666ed4c0d6e453e0e4df3c8708d0a36bcbd6e494e92f713d9010000006a47304402201db74f203f40777c82689c41c7d8ab57db72dd2c4b49330111167e8e961e8ca102207fabb047bb9e85d85faa5f3c3f18585c950773f24406b2d06664e458583ecfa901210366b70120b0d8c8dca2990a5e1f3b405ee50d1439670561af4e2e072183c183a2ffffffff63f28113bf83867296e2e5bfc2765b55dbd284d6c6fd9f38a4e8e6fa8bb5717f010000006b483045022100bdc655c23d3bd86c58b345962fe1f731d7941c65f5ea5afde04e8a376a0972db02204b8de7ed4082047938f22fb397eeb1d49b64b0d29c261c1d2f7d1721a039727e01210340dd7db94c50e9c65a7ec452246053f9ac890aff6ad58073a4497a4adea113e4ffffffff02002d3101000000001976a91412b3894630cc4ad9fbf76aa31ae136fb96f2f81688acb1370500000000001976a914172336aef98b0368c85a6b0f02eafbaa136cd8f088ac00000000"
    }, 
    {
      "txid": "15c5a9115822c4ed09ddefd983913c529fe350880b53546114fcb30be7a95ba0",
      "hash": "15c5a9115822c4ed09ddefd983913c529fe350880b53546114fcb30be7a95ba0",
      "version": 1,
      "size": 225,
      "vsize": 225,
      "locktime": 0,
      "vin": [
        {
          "txid": "9bae6f4195afcead1c5971337a9bcb682bbe100be28543175ca5f18053771412",
          "vout": 1,
          "scriptSig": {
            "asm": "30440220744701b35642a1a3310f150b5f172d3cc1754401b845185d2365abc4e8c0f07002203377507ced0a87ed056266ab201a889ebb1c46dbe6478fb3b747d641deb734bc[ALL] 0341445c6d89bfb92c8c7f0432fe54c1cc5717394aa278d5656c81354d04baf075",
            "hex": "4730440220744701b35642a1a3310f150b5f172d3cc1754401b845185d2365abc4e8c0f07002203377507ced0a87ed056266ab201a889ebb1c46dbe6478fb3b747d641deb734bc01210341445c6d89bfb92c8c7f0432fe54c1cc5717394aa278d5656c81354d04baf075"
          },
          "sequence": 4294967295
        }
      ],
      "vout": [
        {
          "value": 1.00000000,
          "n": 0,
          "scriptPubKey": {
            "asm": "OP_DUP OP_HASH160 6e6973356950aec685e9ce081ed373ebc4ff78c0 OP_EQUALVERIFY OP_CHECKSIG",
            "hex": "76a9146e6973356950aec685e9ce081ed373ebc4ff78c088ac",
            "reqSigs": 1,
            "type": "pubkeyhash",
            "addresses": [
              "LVHkv7QAapAL7fq54Khimcp4xSJyjTNZqS"
            ]
          }
        }, 
        {
          "value": 20.49677301,
          "n": 1,
          "scriptPubKey": {
            "asm": "OP_DUP OP_HASH160 0861b608da3b29168e5ae1b0fffcb849a0031dbf OP_EQUALVERIFY OP_CHECKSIG",
            "hex": "76a9140861b608da3b29168e5ae1b0fffcb849a0031dbf88ac",
            "reqSigs": 1,
            "type": "pubkeyhash",
            "addresses": [
              "LKzGiqD6pKisB7aAJVQ1aaanhwuQLG9Vrs"
            ]
          }
        }
      ],
      "hex": "01000000011214775380f1a55c174385e20b10be2b68cb9b7a3371591cadceaf95416fae9b010000006a4730440220744701b35642a1a3310f150b5f172d3cc1754401b845185d2365abc4e8c0f07002203377507ced0a87ed056266ab201a889ebb1c46dbe6478fb3b747d641deb734bc01210341445c6d89bfb92c8c7f0432fe54c1cc5717394aa278d5656c81354d04baf075ffffffff0200e1f505000000001976a9146e6973356950aec685e9ce081ed373ebc4ff78c088acf5972b7a000000001976a9140861b608da3b29168e5ae1b0fffcb849a0031dbf88ac00000000"
    }, 
    {
      "txid": "893ed2d2298720035e9736a28d0ce8aa20e99655c1fb584b6688e5b5b86a67ab",
      "hash": "893ed2d2298720035e9736a28d0ce8aa20e99655c1fb584b6688e5b5b86a67ab",
      "version": 1,
      "size": 225,
      "vsize": 225,
      "locktime": 0,
      "vin": [
        {
          "txid": "bf90763902a61d2d528efe44b6343ce77495e8efedd6c4b4c498ec9d09889c9e",
          "vout": 0,
          "scriptSig": {
            "asm": "304402202a13643e9e6e7e2c0873991906345ba5be6f86a54085811c8eddf3560ccf0eb502200a932bd6c9a30c770ead471596aee3873331b9707fe5f7d2148a51aec9912518[ALL] 02e88c819df6dd7ca978a3d3b28a3a154b915a9700313dd30ac6fcdcfca12139c5",
            "hex": "47304402202a13643e9e6e7e2c0873991906345ba5be6f86a54085811c8eddf3560ccf0eb502200a932bd6c9a30c770ead471596aee3873331b9707fe5f7d2148a51aec9912518012102e88c819df6dd7ca978a3d3b28a3a154b915a9700313dd30ac6fcdcfca12139c5"
          },
          "sequence": 4294967295
        }
      ],
      "vout": [
        {
          "value": 0.37799096,
          "n": 0,
          "scriptPubKey": {
            "asm": "OP_DUP OP_HASH160 5741a4e6a085d871faed93e44d6c3c4feaecaed6 OP_EQUALVERIFY OP_CHECKSIG",
            "hex": "76a9145741a4e6a085d871faed93e44d6c3c4feaecaed688ac",
            "reqSigs": 1,
            "type": "pubkeyhash",
            "addresses": [
              "LTBKgwKW9VysFcjuhq5RnsoGKzTafpX6uP"
            ]
          }
        }, 
        {
          "value": 0.16078330,
          "n": 1,
          "scriptPubKey": {
            "asm": "OP_DUP OP_HASH160 9c55d3f0170ad645a6a1e3ca31df1312ba4a9da4 OP_EQUALVERIFY OP_CHECKSIG",
            "hex": "76a9149c55d3f0170ad645a6a1e3ca31df1312ba4a9da488ac",
            "reqSigs": 1,
            "type": "pubkeyhash",
            "addresses": [
              "LZUaVZgmTodwpf8QtgxmGrJUDxGvv7hSk9"
            ]
          }
        }
      ],
      "hex": "01000000019e9c88099dec98c4b4c4d6edefe89574e73c34b644fe8e522d1da602397690bf000000006a47304402202a13643e9e6e7e2c0873991906345ba5be6f86a54085811c8eddf3560ccf0eb502200a932bd6c9a30c770ead471596aee3873331b9707fe5f7d2148a51aec9912518012102e88c819df6dd7ca978a3d3b28a3a154b915a9700313dd30ac6fcdcfca12139c5ffffffff02b8c44002000000001976a9145741a4e6a085d871faed93e44d6c3c4feaecaed688acfa55f500000000001976a9149c55d3f0170ad645a6a1e3ca31df1312ba4a9da488ac00000000"
    }, 
    {
      "txid": "1514b45cfa7613511b55c5c26d35af52ada2b3bbc9543f3c3d29c1a9e4252fb9",
      "hash": "1514b45cfa7613511b55c5c26d35af52ada2b3bbc9543f3c3d29c1a9e4252fb9",
      "version": 1,
      "size": 813,
      "vsize": 813,
      "locktime": 1359044,
      "vin": [
        {
          "txid": "4e7229ef8535c740b5fbc2431f72ea5877c1b2de9ee885147ea57b6c8f37511d",
          "vout": 0,
          "scriptSig": {
            "asm": "3045022100b910e0dc57da97afefeb69403ed1d8087b1044ee15bcdb5d02fd6533c01eeb9f02201c7fbbafd7b5834c1bbb7174f7b3222d84e306f853d64f4e2cc765dbfd54cf67[ALL] 02ea4a37e2066081fbfc2ea4cc63391a386e7f07cd6bd1facafc275561b3e84ecd",
            "hex": "483045022100b910e0dc57da97afefeb69403ed1d8087b1044ee15bcdb5d02fd6533c01eeb9f02201c7fbbafd7b5834c1bbb7174f7b3222d84e306f853d64f4e2cc765dbfd54cf67012102ea4a37e2066081fbfc2ea4cc63391a386e7f07cd6bd1facafc275561b3e84ecd"
          },
          "sequence": 4294967294
        }, 
        {
          "txid": "e5304ad5901baa98dbf4e0737af8f162d5a19c73442bd4ea4cbf2d5157959c12",
          "vout": 2,
          "scriptSig": {
            "asm": "304402204d160b6cc4d7cbc789f1bd1a2d186f5bf66d940f903cf6a619dc86ce23b43d54022079e47f85f94446febbd521faca772b390a592e7c96e94d884af6e9c81f23ec91[ALL] 028d200e6638fd4870cbc8871a3f91e0d2ab6fb7b5152dfbeca38df64eacecfd31",
            "hex": "47304402204d160b6cc4d7cbc789f1bd1a2d186f5bf66d940f903cf6a619dc86ce23b43d54022079e47f85f94446febbd521faca772b390a592e7c96e94d884af6e9c81f23ec910121028d200e6638fd4870cbc8871a3f91e0d2ab6fb7b5152dfbeca38df64eacecfd31"
          },
          "sequence": 4294967294
        }, 
        {
          "txid": "7329ca4f8cb7d7ae439888628498a9c3e29507f9f1aff6bf4264ef4694ed6088",
          "vout": 0,
          "scriptSig": {
            "asm": "3044022016b154151038da69ecf989f01acfd8d1fd40a553faf757af101221967c96ac0d0220155f987fc97c821259bca3d2e82ef0a934fa626de760b2e76cf0b6b13f2bf3f9[ALL] 02924fc083205c6a5ed4eeabb873553e2db5102bc4281f9d63eb8af9c2d27f5bdc",
            "hex": "473044022016b154151038da69ecf989f01acfd8d1fd40a553faf757af101221967c96ac0d0220155f987fc97c821259bca3d2e82ef0a934fa626de760b2e76cf0b6b13f2bf3f9012102924fc083205c6a5ed4eeabb873553e2db5102bc4281f9d63eb8af9c2d27f5bdc"
          },
          "sequence": 4294967294
        }, 
        {
          "txid": "38384b46d86e87adcaade163ba435c58995882f94393d9c282b0da317ae5c632",
          "vout": 0,
          "scriptSig": {
            "asm": "304302203009837c1f99c70fab57f3bc9054f1c213b34010e33d843bd7822363eb9b0295021f7a066775a6dea4a63b3a5ceb37df4f91fb5dc3f00cd3e3d63135a4ffaf3e20[ALL] 02921239266ca3b48b913f8b885a117942875f15f0768fbdd2c944e043894c847d",
            "hex": "46304302203009837c1f99c70fab57f3bc9054f1c213b34010e33d843bd7822363eb9b0295021f7a066775a6dea4a63b3a5ceb37df4f91fb5dc3f00cd3e3d63135a4ffaf3e20012102921239266ca3b48b913f8b885a117942875f15f0768fbdd2c944e043894c847d"
          },
          "sequence": 4294967294
        }, 
        {
          "txid": "f31925d3ae14f1e4b371e760343014eadd405b856242d4f324c1a53f93194db8",
          "vout": 0,
          "scriptSig": {
            "asm": "304402203f38ca9b4b11fc26bae9d986b1c0a8e8b82e8e9024f9713b29203e7e8147ae25022008a38185b51ccec198d350d065fcbd5f9f269cd32bc71dbef1836bd763cb787c[ALL] 026989a7539fbae064f9e0baf192715e8ffcd8bbee843de2670ce45e99d8e8a593",
            "hex": "47304402203f38ca9b4b11fc26bae9d986b1c0a8e8b82e8e9024f9713b29203e7e8147ae25022008a38185b51ccec198d350d065fcbd5f9f269cd32bc71dbef1836bd763cb787c0121026989a7539fbae064f9e0baf192715e8ffcd8bbee843de2670ce45e99d8e8a593"
          },
          "sequence": 4294967294
        }
      ],
      "vout": [
        {
          "value": 4.78266449,
          "n": 0,
          "scriptPubKey": {
            "asm": "OP_DUP OP_HASH160 66e21f5e5f2ef303af8543083c4414966e8ab200 OP_EQUALVERIFY OP_CHECKSIG",
            "hex": "76a91466e21f5e5f2ef303af8543083c4414966e8ab20088ac",
            "reqSigs": 1,
            "type": "pubkeyhash",
            "addresses": [
              "LUbx53nQifrnG2MLPKAXBLge61jxEXoMFM"
            ]
          }
        }, 
        {
          "value": 0.01008971,
          "n": 1,
          "scriptPubKey": {
            "asm": "OP_DUP OP_HASH160 f455248eaf63e9634316586bf855f2cf51969ee8 OP_EQUALVERIFY OP_CHECKSIG",
            "hex": "76a914f455248eaf63e9634316586bf855f2cf51969ee888ac",
            "reqSigs": 1,
            "type": "pubkeyhash",
            "addresses": [
              "LhVs8qyetoNfK6TgvaGm4e9fgDBS3jm4JG"
            ]
          }
        }
      ],
      "hex": "01000000051d51378f6c7ba57e1485e89edeb2c17758ea721f43c2fbb540c73585ef29724e000000006b483045022100b910e0dc57da97afefeb69403ed1d8087b1044ee15bcdb5d02fd6533c01eeb9f02201c7fbbafd7b5834c1bbb7174f7b3222d84e306f853d64f4e2cc765dbfd54cf67012102ea4a37e2066081fbfc2ea4cc63391a386e7f07cd6bd1facafc275561b3e84ecdfeffffff129c9557512dbf4cead42b44739ca1d562f1f87a73e0f4db98aa1b90d54a30e5020000006a47304402204d160b6cc4d7cbc789f1bd1a2d186f5bf66d940f903cf6a619dc86ce23b43d54022079e47f85f94446febbd521faca772b390a592e7c96e94d884af6e9c81f23ec910121028d200e6638fd4870cbc8871a3f91e0d2ab6fb7b5152dfbeca38df64eacecfd31feffffff8860ed9446ef6442bff6aff1f90795e2c3a9988462889843aed7b78c4fca2973000000006a473044022016b154151038da69ecf989f01acfd8d1fd40a553faf757af101221967c96ac0d0220155f987fc97c821259bca3d2e82ef0a934fa626de760b2e76cf0b6b13f2bf3f9012102924fc083205c6a5ed4eeabb873553e2db5102bc4281f9d63eb8af9c2d27f5bdcfeffffff32c6e57a31dab082c2d99343f9825899585c43ba63e1adcaad876ed8464b3838000000006946304302203009837c1f99c70fab57f3bc9054f1c213b34010e33d843bd7822363eb9b0295021f7a066775a6dea4a63b3a5ceb37df4f91fb5dc3f00cd3e3d63135a4ffaf3e20012102921239266ca3b48b913f8b885a117942875f15f0768fbdd2c944e043894c847dfeffffffb84d19933fa5c124f3d44262855b40ddea14303460e771b3e4f114aed32519f3000000006a47304402203f38ca9b4b11fc26bae9d986b1c0a8e8b82e8e9024f9713b29203e7e8147ae25022008a38185b51ccec198d350d065fcbd5f9f269cd32bc71dbef1836bd763cb787c0121026989a7539fbae064f9e0baf192715e8ffcd8bbee843de2670ce45e99d8e8a593feffffff0251c4811c000000001976a91466e21f5e5f2ef303af8543083c4414966e8ab20088ac4b650f00000000001976a914f455248eaf63e9634316586bf855f2cf51969ee888acc4bc1400"
    }, 
    {
      "txid": "ed158dd59b0b911f820403c10dce5841741fd9d5e6b84a73f7156fbf7e49c832",
      "hash": "ed158dd59b0b911f820403c10dce5841741fd9d5e6b84a73f7156fbf7e49c832",
      "version": 1,
      "size": 373,
      "vsize": 373,
      "locktime": 1359044,
      "vin": [
        {
          "txid": "65061fe399242bca07572f9b281bab73d95b2af1432fac91f0e8f0ab3a4146fa",
          "vout": 1,
          "scriptSig": {
            "asm": "30440220238a348d04f0ad53776e5d755f1c93ebc554aa94b89c0fcf101f02f6548d5c3702203a215603f1685eea0b6d554eb726455349deee16b624be8097a4e4222b2fbc00[ALL] 0310c8a274183227cd6fc53dfd144d2c234a86d6bf49eb7cebeab6fc1ddca95b75",
            "hex": "4730440220238a348d04f0ad53776e5d755f1c93ebc554aa94b89c0fcf101f02f6548d5c3702203a215603f1685eea0b6d554eb726455349deee16b624be8097a4e4222b2fbc0001210310c8a274183227cd6fc53dfd144d2c234a86d6bf49eb7cebeab6fc1ddca95b75"
          },
          "sequence": 4294967294
        }, 
        {
          "txid": "d20ecc667d9f8d85a6fd4379183120571ebe205f1c22269b0c84b8a9d61f967d",
          "vout": 0,
          "scriptSig": {
            "asm": "30450221009c4b050f96b35c2021da7fd7402b26348eeb943b1d70497fba30574ab4aa62f302206f5b3271efa32007d2fbc872d0adbda35d3b0988ed230ada4dec6555635a681e[ALL] 025b0009d39e1507d5f137f54e285f9b68a038674f23bd9de2943468649f159344",
            "hex": "4830450221009c4b050f96b35c2021da7fd7402b26348eeb943b1d70497fba30574ab4aa62f302206f5b3271efa32007d2fbc872d0adbda35d3b0988ed230ada4dec6555635a681e0121025b0009d39e1507d5f137f54e285f9b68a038674f23bd9de2943468649f159344"
          },
          "sequence": 4294967294
        }
      ],
      "vout": [
        {
          "value": 2.11039732,
          "n": 0,
          "scriptPubKey": {
            "asm": "OP_DUP OP_HASH160 d3c65366daf695d84599eab876bc1d33c5deefc0 OP_EQUALVERIFY OP_CHECKSIG",
            "hex": "76a914d3c65366daf695d84599eab876bc1d33c5deefc088ac",
            "reqSigs": 1,
            "type": "pubkeyhash",
            "addresses": [
              "LeXiRc8mVjUoXYuCZy9R748Gj7MH2CzzYX"
            ]
          }
        }, 
        {
          "value": 0.01002366,
          "n": 1,
          "scriptPubKey": {
            "asm": "OP_DUP OP_HASH160 dbef219af419a3d4bb68e13baef033b9f1782e6f OP_EQUALVERIFY OP_CHECKSIG",
            "hex": "76a914dbef219af419a3d4bb68e13baef033b9f1782e6f88ac",
            "reqSigs": 1,
            "type": "pubkeyhash",
            "addresses": [
              "LfGriMbJsQncx4x4vWyqiykshDzHtjV2CF"
            ]
          }
        }
      ],
      "hex": "0100000002fa46413aabf0e8f091ac2f43f12a5bd973ab1b289b2f5707ca2b2499e31f0665010000006a4730440220238a348d04f0ad53776e5d755f1c93ebc554aa94b89c0fcf101f02f6548d5c3702203a215603f1685eea0b6d554eb726455349deee16b624be8097a4e4222b2fbc0001210310c8a274183227cd6fc53dfd144d2c234a86d6bf49eb7cebeab6fc1ddca95b75feffffff7d961fd6a9b8840c9b26221c5f20be1e572031187943fda6858d9f7d66cc0ed2000000006b4830450221009c4b050f96b35c2021da7fd7402b26348eeb943b1d70497fba30574ab4aa62f302206f5b3271efa32007d2fbc872d0adbda35d3b0988ed230ada4dec6555635a681e0121025b0009d39e1507d5f137f54e285f9b68a038674f23bd9de2943468649f159344feffffff02f435940c000000001976a914d3c65366daf695d84599eab876bc1d33c5deefc088ac7e4b0f00000000001976a914dbef219af419a3d4bb68e13baef033b9f1782e6f88acc4bc1400"
    }, 
    {
      "txid": "372b20a61c2c016f6b2fb1d9272c55bf3aae117c55405dbf8fb041241588325f",
      "hash": "372b20a61c2c016f6b2fb1d9272c55bf3aae117c55405dbf8fb041241588325f",
      "version": 2,
      "size": 192,
      "vsize": 192,
      "locktime": 1359044,
      "vin": [
        {
          "txid": "063397b2d9d813d1cb5bfe547da411241989ded8001f9d352acc1431bf8cb2d8",
          "vout": 1,
          "scriptSig": {
            "asm": "3045022100a7fe1024f6d061dc5ee8015e8010f6f17f0f87ee4c1a1b9987fdb5b8c00a041e02204ed32a0de2009d8dfb45eea2c70771712efd4901ccbc60c6ff58e8017bb63ee0[ALL] 028cf7a7431d5603c83875c51105e845e7d63c60571925a8e20e3a257514c970aa",
            "hex": "483045022100a7fe1024f6d061dc5ee8015e8010f6f17f0f87ee4c1a1b9987fdb5b8c00a041e02204ed32a0de2009d8dfb45eea2c70771712efd4901ccbc60c6ff58e8017bb63ee00121028cf7a7431d5603c83875c51105e845e7d63c60571925a8e20e3a257514c970aa"
          },
          "sequence": 4294967294
        }
      ],
      "vout": [
        {
          "value": 0.00294800,
          "n": 0,
          "scriptPubKey": {
            "asm": "OP_DUP OP_HASH160 07c076d67f741b1b9a7c4494db5396ce6fcaeb38 OP_EQUALVERIFY OP_CHECKSIG",
            "hex": "76a91407c076d67f741b1b9a7c4494db5396ce6fcaeb3888ac",
            "reqSigs": 1,
            "type": "pubkeyhash",
            "addresses": [
              "LKvwZCmC6AuvtonUKHc1UpfaWzdGrLajRQ"
            ]
          }
        }
      ],
      "hex": "0200000001d8b28cbf3114cc2a359d1f00d8de89192411a47d54fe5bcbd113d8d9b2973306010000006b483045022100a7fe1024f6d061dc5ee8015e8010f6f17f0f87ee4c1a1b9987fdb5b8c00a041e02204ed32a0de2009d8dfb45eea2c70771712efd4901ccbc60c6ff58e8017bb63ee00121028cf7a7431d5603c83875c51105e845e7d63c60571925a8e20e3a257514c970aafeffffff01907f0400000000001976a91407c076d67f741b1b9a7c4494db5396ce6fcaeb3888acc4bc1400"
    }, 
    {
      "txid": "f943719ac095909fb96d969df4d39a57fb5785568c9f9a342bd6a0f5021f97c4",
      "hash": "f943719ac095909fb96d969df4d39a57fb5785568c9f9a342bd6a0f5021f97c4",
      "version": 1,
      "size": 226,
      "vsize": 226,
      "locktime": 1359044,
      "vin": [
        {
          "txid": "1ef2c072035f0fbe8b240c8d9da65106a4ea344d83ef44eeacf82d39e7abc027",
          "vout": 0,
          "scriptSig": {
            "asm": "3045022100d32491c5ce2ec7eec217cbb7376c21516ea7ecf7d9b0d065df3fb60255887137022007e25234e874d5378a425e4ce4cbc5b0a42dbb65574323f94149f3fdfb94c8cb[ALL] 0357d02d880a167f136e13b31357302af1cfe995b593fe2955eff495d481ebe89b",
            "hex": "483045022100d32491c5ce2ec7eec217cbb7376c21516ea7ecf7d9b0d065df3fb60255887137022007e25234e874d5378a425e4ce4cbc5b0a42dbb65574323f94149f3fdfb94c8cb01210357d02d880a167f136e13b31357302af1cfe995b593fe2955eff495d481ebe89b"
          },
          "sequence": 4294967294
        }
      ],
      "vout": [
        {
          "value": 0.10543816,
          "n": 0,
          "scriptPubKey": {
            "asm": "OP_DUP OP_HASH160 3829772827c4c38d9ab383fba8d380bc5b151504 OP_EQUALVERIFY OP_CHECKSIG",
            "hex": "76a9143829772827c4c38d9ab383fba8d380bc5b15150488ac",
            "reqSigs": 1,
            "type": "pubkeyhash",
            "addresses": [
              "LQLun2TX33kQ53fBahHjh7RTckhxqRWQB3"
            ]
          }
        }, 
        {
          "value": 0.01050305,
          "n": 1,
          "scriptPubKey": {
            "asm": "OP_DUP OP_HASH160 eb105838f01105a1cb7810bfe6c562cd80d4734a OP_EQUALVERIFY OP_CHECKSIG",
            "hex": "76a914eb105838f01105a1cb7810bfe6c562cd80d4734a88ac",
            "reqSigs": 1,
            "type": "pubkeyhash",
            "addresses": [
              "LgerdwJwkNXQaJurLpbQYusWrwvjTwZaRq"
            ]
          }
        }
      ],
      "hex": "010000000127c0abe7392df8acee44ef834d34eaa40651a69d8d0c248bbe0f5f0372c0f21e000000006b483045022100d32491c5ce2ec7eec217cbb7376c21516ea7ecf7d9b0d065df3fb60255887137022007e25234e874d5378a425e4ce4cbc5b0a42dbb65574323f94149f3fdfb94c8cb01210357d02d880a167f136e13b31357302af1cfe995b593fe2955eff495d481ebe89bfeffffff02c8e2a000000000001976a9143829772827c4c38d9ab383fba8d380bc5b15150488acc1061000000000001976a914eb105838f01105a1cb7810bfe6c562cd80d4734a88acc4bc1400"
    }, 
    {
      "txid": "04c49d2c0d6ba59ea796033a6dc84181e4e6fb7d61327d973302d9c59284cecc",
      "hash": "04c49d2c0d6ba59ea796033a6dc84181e4e6fb7d61327d973302d9c59284cecc",
      "version": 1,
      "size": 226,
      "vsize": 226,
      "locktime": 0,
      "vin": [
        {
          "txid": "3dfa59200e51031e1ae0776e3333777254b62af02364f7c11bf17904071dc6c4",
          "vout": 1,
          "scriptSig": {
            "asm": "3045022100bcf97cc919b2223e45072e2d1a4fb2f27d1006a191e14549f4c055d98f6517f402204f61c9a9211f86affbef1931178a04e68c3bf80e1c214ea214551632ff76e05f[ALL] 02b56d2fd127f96554046ea91f1d35d19959980a4e72bff86149fb561aed910abd",
            "hex": "483045022100bcf97cc919b2223e45072e2d1a4fb2f27d1006a191e14549f4c055d98f6517f402204f61c9a9211f86affbef1931178a04e68c3bf80e1c214ea214551632ff76e05f012102b56d2fd127f96554046ea91f1d35d19959980a4e72bff86149fb561aed910abd"
          },
          "sequence": 4294967295
        }
      ],
      "vout": [
        {
          "value": 30.36673098,
          "n": 0,
          "scriptPubKey": {
            "asm": "OP_DUP OP_HASH160 0abe119f20ddb523c84b7516e7a865c79795f4fc OP_EQUALVERIFY OP_CHECKSIG",
            "hex": "76a9140abe119f20ddb523c84b7516e7a865c79795f4fc88ac",
            "reqSigs": 1,
            "type": "pubkeyhash",
            "addresses": [
              "LLCkiLzLtVD3Vx3Arsvm1YwD3f1PTxByf1"
            ]
          }
        }, 
        {
          "value": 0.01383335,
          "n": 1,
          "scriptPubKey": {
            "asm": "OP_DUP OP_HASH160 214b80718860a4e3b8cd671b31a921c925dd2b99 OP_EQUALVERIFY OP_CHECKSIG",
            "hex": "76a914214b80718860a4e3b8cd671b31a921c925dd2b9988ac",
            "reqSigs": 1,
            "type": "pubkeyhash",
            "addresses": [
              "LNG11VhxRBZDHFWKG6KMc4FLzeeaJJXUA6"
            ]
          }
        }
      ],
      "hex": "0100000001c4c61d070479f11bc1f76423f02ab654727733336e77e01a1e03510e2059fa3d010000006b483045022100bcf97cc919b2223e45072e2d1a4fb2f27d1006a191e14549f4c055d98f6517f402204f61c9a9211f86affbef1931178a04e68c3bf80e1c214ea214551632ff76e05f012102b56d2fd127f96554046ea91f1d35d19959980a4e72bff86149fb561aed910abdffffffff024af4ffb4000000001976a9140abe119f20ddb523c84b7516e7a865c79795f4fc88aca71b1500000000001976a914214b80718860a4e3b8cd671b31a921c925dd2b9988ac00000000"
    }
  ],
  "time": 1517228989,
  "mediantime": 1517228333,
  "nonce": 3866751068,
  "bits": "1a042eae",
  "difficulty": 4011378.762614286,
  "chainwork": "000000000000000000000000000000000000000000000033a388147709b3c90e",
  "previousblockhash": "d6ead8fa8276dbd49d5b59c90f2cfae6df28712cd1e4fc271af781e337ea7c7d",
  "nextblockhash": "7e238f663363b04f09e28b03486bf236c7606be5e67325653005ec4028a596b5"
}
