{
  "hash": "0a8cb87c2cdc905d085168c4ad59769c9a5cdd77cd5329b9cae93bbdea9b6b84",
  "confirmations": 3385,
  "strippedsize": 234,
  "size": 234,
  "weight": 936,
  "height": 1357610,
  "version": 536870912,
  "versionHex": "20000000",
  "merkleroot": "816de71b92b1f5946a55cd03144946a91aa151936224579018c4577e72054d91",
  "tx": [
    {
      "txid": "816de71b92b1f5946a55cd03144946a91aa151936224579018c4577e72054d91",
      "hash": "816de71b92b1f5946a55cd03144946a91aa151936224579018c4577e72054d91",
      "version": 1,
      "size": 153,
      "vsize": 153,
      "locktime": 0,
      "vin": [
        {
          "coinbase": "032ab714045a6bfa0f2cfabe6d6d399d3b561f266d6685316d344f8acbd418555bbb49a67548350dec71a2cc28dc4000000000000000042f4c502f08160023ef2b000000",
          "sequence": 4294967295
        }
      ],
      "vout": [
        {
          "value": 25.00000000,
          "n": 0,
          "scriptPubKey": {
            "asm": "OP_DUP OP_HASH160 57757ed2ecf2052ff3126c397aca7defb9ca2cec OP_EQUALVERIFY OP_CHECKSIG",
            "hex": "76a91457757ed2ecf2052ff3126c397aca7defb9ca2cec88ac",
            "reqSigs": 1,
            "type": "pubkeyhash",
            "addresses": [
              "LTCPodGk5FwcJaRzH9yKnwicxzFUbxp6tN"
            ]
          }
        }
      ],
      "hex": "01000000010000000000000000000000000000000000000000000000000000000000000000ffffffff44032ab714045a6bfa0f2cfabe6d6d399d3b561f266d6685316d344f8acbd418555bbb49a67548350dec71a2cc28dc4000000000000000042f4c502f08160023ef2b000000ffffffff0100f90295000000001976a91457757ed2ecf2052ff3126c397aca7defb9ca2cec88ac00000000"
    }
  ],
  "time": 1517025807,
  "mediantime": 1517024850,
  "nonce": 1787676118,
  "bits": "1a047f14",
  "difficulty": 3731199.183374282,
  "chainwork": "0000000000000000000000000000000000000000000000325fc5d08c1b64c15e",
  "previousblockhash": "cf0769d2fc205c941b091423f028ec158331d7576ad74d079a24408652f0b1f1",
  "nextblockhash": "75dcbcdb1283b438f52f29d4790c8e3c0a195e83f6707930fc72e624d64cb872"
}
