{
  "hash": "0b3b566f12c8c2144cf56096963e98cb811f70c3daa4ed901bb43972308f56c8",
  "confirmations": 1490,
  "strippedsize": 3855,
  "size": 4108,
  "weight": 15673,
  "height": 1359504,
  "version": 536870912,
  "versionHex": "20000000",
  "merkleroot": "7e315adfe22d713a29e51cddd7590b89883c8ca54545f1addf48f352319f22eb",
  "tx": [
    {
      "txid": "507089af08101d6b04c6b4bac2dfd162f166b6e3486b0ecf33ef894c24076c7d",
      "hash": "0a3ccb29fe2507a13a66c0cb893516f35b597085f04e1218f98797e135272b9e",
      "version": 1,
      "size": 236,
      "vsize": 209,
      "locktime": 0,
      "vin": [
        {
          "coinbase": "0390be14045a700a6e2cfabe6d6dc22df25e66e12669fd4d4bbc0e3bb7c28f1a69eef2523b69f077c071959ba1ba4000000000000000042f4c502f085c00486004000000",
          "sequence": 4294967295
        }
      ],
      "vout": [
        {
          "value": 25.00541163,
          "n": 0,
          "scriptPubKey": {
            "asm": "OP_DUP OP_HASH160 57757ed2ecf2052ff3126c397aca7defb9ca2cec OP_EQUALVERIFY OP_CHECKSIG",
            "hex": "76a91457757ed2ecf2052ff3126c397aca7defb9ca2cec88ac",
            "reqSigs": 1,
            "type": "pubkeyhash",
            "addresses": [
              "LTCPodGk5FwcJaRzH9yKnwicxzFUbxp6tN"
            ]
          }
        }, 
        {
          "value": 0.00000000,
          "n": 1,
          "scriptPubKey": {
            "asm": "OP_RETURN aa21a9eda53f53e40ab8cf9da43ed5a1f89e2a781187e1f94941528c5a978079b9f4c7a9",
            "hex": "6a24aa21a9eda53f53e40ab8cf9da43ed5a1f89e2a781187e1f94941528c5a978079b9f4c7a9",
            "type": "nulldata"
          }
        }
      ],
      "hex": "010000000001010000000000000000000000000000000000000000000000000000000000000000ffffffff440390be14045a700a6e2cfabe6d6dc22df25e66e12669fd4d4bbc0e3bb7c28f1a69eef2523b69f077c071959ba1ba4000000000000000042f4c502f085c00486004000000ffffffff02eb3a0b95000000001976a91457757ed2ecf2052ff3126c397aca7defb9ca2cec88ac0000000000000000266a24aa21a9eda53f53e40ab8cf9da43ed5a1f89e2a781187e1f94941528c5a978079b9f4c7a90120000000000000000000000000000000000000000000000000000000000000000000000000"
    }, 
    {
      "txid": "b17f152f3546883c8186d7e90ae2ccb42f4f5bc7e386b6fd04638823bd598623",
      "hash": "b17f152f3546883c8186d7e90ae2ccb42f4f5bc7e386b6fd04638823bd598623",
      "version": 1,
      "size": 226,
      "vsize": 226,
      "locktime": 0,
      "vin": [
        {
          "txid": "1a6a59c931bcdeaf5ba2798ec5d2bb2f1c6738583cb4ed500d1c522791859f57",
          "vout": 30,
          "scriptSig": {
            "asm": "3045022100e76ab206aab013d377ab7e6657589aedf0bfdcfe18413c8617872cf5738d263402205bef33da64336fe786d314ac3b5e86a89eed7b7615066fbab025ab4c1c46fa1f[ALL] 03faf0d80d67a13013ed7c19c51d680447b73f10b849976d318e397f65babe3e62",
            "hex": "483045022100e76ab206aab013d377ab7e6657589aedf0bfdcfe18413c8617872cf5738d263402205bef33da64336fe786d314ac3b5e86a89eed7b7615066fbab025ab4c1c46fa1f012103faf0d80d67a13013ed7c19c51d680447b73f10b849976d318e397f65babe3e62"
          },
          "sequence": 4294967295
        }
      ],
      "vout": [
        {
          "value": 0.92803786,
          "n": 0,
          "scriptPubKey": {
            "asm": "OP_DUP OP_HASH160 428669ac4c21c7f545b69d6585dfa7c4437c5cc2 OP_EQUALVERIFY OP_CHECKSIG",
            "hex": "76a914428669ac4c21c7f545b69d6585dfa7c4437c5cc288ac",
            "reqSigs": 1,
            "type": "pubkeyhash",
            "addresses": [
              "LRHht39eYvVk3oa2mxifDgvNYcmUL1cp44"
            ]
          }
        }, 
        {
          "value": 0.01088519,
          "n": 1,
          "scriptPubKey": {
            "asm": "OP_DUP OP_HASH160 7cf81d2abaebcb3b8790df2cc10a4587fa6ef956 OP_EQUALVERIFY OP_CHECKSIG",
            "hex": "76a9147cf81d2abaebcb3b8790df2cc10a4587fa6ef95688ac",
            "reqSigs": 1,
            "type": "pubkeyhash",
            "addresses": [
              "LWcjHFw9eeiXzyz9jWU4xywBNCGT72ij9J"
            ]
          }
        }
      ],
      "hex": "0100000001579f859127521c0d50edb43c5838671c2fbbd2c58e79a25bafdebc31c9596a1a1e0000006b483045022100e76ab206aab013d377ab7e6657589aedf0bfdcfe18413c8617872cf5738d263402205bef33da64336fe786d314ac3b5e86a89eed7b7615066fbab025ab4c1c46fa1f012103faf0d80d67a13013ed7c19c51d680447b73f10b849976d318e397f65babe3e62ffffffff02ca128805000000001976a914428669ac4c21c7f545b69d6585dfa7c4437c5cc288ac079c1000000000001976a9147cf81d2abaebcb3b8790df2cc10a4587fa6ef95688ac00000000"
    }, 
    {
      "txid": "1bfe2190785a8038e492c56e3c4d74654d95d8af20658c77edac23dd9e3f3ce2",
      "hash": "e34b7f3a6a1d6c2acfc7f5eca59498aca84574dc61c490210ff200e989885073",
      "version": 1,
      "size": 421,
      "vsize": 259,
      "locktime": 0,
      "vin": [
        {
          "txid": "6b29c479750f80dc15dfe63fd4150ba8921d893c8b139e834a09f5d053757586",
          "vout": 0,
          "scriptSig": {
            "asm": "00142fb4e2640b053b9c2d4fa99745ab0daf953f1c50",
            "hex": "1600142fb4e2640b053b9c2d4fa99745ab0daf953f1c50"
          },
          "txinwitness": [
            "3045022100f1f93f4debe08f3e600b6bcd8c978893785a8e8ea67ebfb0a30c5f936b215d75022017ba7ee2203d5977282dbc60f6a766324ba19aa37e83d10ab8cafb4bc42d428301", 
            "03a6749872a7aced36465d17ef821255d53361c51854f5f6fa5a4ae6ffd49f0f4b"
          ],
          "sequence": 4294967295
        }, 
        {
          "txid": "910cd83d46154ac24754026ceeb117f7b5dd61b80873e086e3a226b4dea2c94c",
          "vout": 0,
          "scriptSig": {
            "asm": "001460cace90db4bf5a7021d14faac5ea12d61986c63",
            "hex": "16001460cace90db4bf5a7021d14faac5ea12d61986c63"
          },
          "txinwitness": [
            "3044022045bf68ef9c57aea45260becc91475618a71802a5ee0df2a8e893a624b614c6ae02202b07dcdb5e64e935084ac82df12594e1068da9f39b0a3c75de285e82a93af6ca01", 
            "024808e13c56c9680d70972c887106c07d1726d46ffcd3a334cb3785d0fb7a0d26"
          ],
          "sequence": 4294967295
        }
      ],
      "vout": [
        {
          "value": 0.08897776,
          "n": 0,
          "scriptPubKey": {
            "asm": "OP_HASH160 d454ca6d4fbd95df4d0773160949636c0a9fcf75 OP_EQUAL",
            "hex": "a914d454ca6d4fbd95df4d0773160949636c0a9fcf7587",
            "reqSigs": 1,
            "type": "scripthash",
            "addresses": [
              "MTFs4TieNQWMxUjYvY7rmJrS5a4mHmUX6y"
            ]
          }
        }, 
        {
          "value": 2.70000000,
          "n": 1,
          "scriptPubKey": {
            "asm": "OP_DUP OP_HASH160 1f145ea101e06110409b3539a721638230afd2ee OP_EQUALVERIFY OP_CHECKSIG",
            "hex": "76a9141f145ea101e06110409b3539a721638230afd2ee88ac",
            "reqSigs": 1,
            "type": "pubkeyhash",
            "addresses": [
              "LN4HcU4mFrdqUB8VsQgo7VNMD9tSg8rG7n"
            ]
          }
        }
      ],
      "hex": "0100000000010286757553d0f5094a839e138b3c891d92a80b15d43fe6df15dc800f7579c4296b00000000171600142fb4e2640b053b9c2d4fa99745ab0daf953f1c50ffffffff4cc9a2deb426a2e386e07308b861ddb5f717b1ee6c025447c24a15463dd80c91000000001716001460cace90db4bf5a7021d14faac5ea12d61986c63ffffffff02f0c487000000000017a914d454ca6d4fbd95df4d0773160949636c0a9fcf758780df1710000000001976a9141f145ea101e06110409b3539a721638230afd2ee88ac02483045022100f1f93f4debe08f3e600b6bcd8c978893785a8e8ea67ebfb0a30c5f936b215d75022017ba7ee2203d5977282dbc60f6a766324ba19aa37e83d10ab8cafb4bc42d4283012103a6749872a7aced36465d17ef821255d53361c51854f5f6fa5a4ae6ffd49f0f4b02473044022045bf68ef9c57aea45260becc91475618a71802a5ee0df2a8e893a624b614c6ae02202b07dcdb5e64e935084ac82df12594e1068da9f39b0a3c75de285e82a93af6ca0121024808e13c56c9680d70972c887106c07d1726d46ffcd3a334cb3785d0fb7a0d2600000000"
    }, 
    {
      "txid": "2a7eb73ce8e75ef7242ee7fb6627f75d5eaa56538d7b12f566d7c54369fcc2fd",
      "hash": "2a7eb73ce8e75ef7242ee7fb6627f75d5eaa56538d7b12f566d7c54369fcc2fd",
      "version": 2,
      "size": 225,
      "vsize": 225,
      "locktime": 1359502,
      "vin": [
        {
          "txid": "331100c33618b8d345620232b2705fab7f9f85bad0431f32d11408f234e29f88",
          "vout": 0,
          "scriptSig": {
            "asm": "304402207b0d44d600425723cab7083f5e4fbb47ed625ad46f91a3b2c2c52067da795ebc022026a686b6fc273cdccfe2ba804b6241a281f023071a4b24b6ecd1d74a69fba27a[ALL] 03c3ceb10cff6a76d65a83e23b478232926ab20cdaf7e8d1bf7ea84a07457ea4ea",
            "hex": "47304402207b0d44d600425723cab7083f5e4fbb47ed625ad46f91a3b2c2c52067da795ebc022026a686b6fc273cdccfe2ba804b6241a281f023071a4b24b6ecd1d74a69fba27a012103c3ceb10cff6a76d65a83e23b478232926ab20cdaf7e8d1bf7ea84a07457ea4ea"
          },
          "sequence": 4294967294
        }
      ],
      "vout": [
        {
          "value": 2.47791262,
          "n": 0,
          "scriptPubKey": {
            "asm": "OP_DUP OP_HASH160 70dc1e3ebbae53fd89da14e3da280046cdd5da7f OP_EQUALVERIFY OP_CHECKSIG",
            "hex": "76a91470dc1e3ebbae53fd89da14e3da280046cdd5da7f88ac",
            "reqSigs": 1,
            "type": "pubkeyhash",
            "addresses": [
              "LVWhdmtp6n2tpkGv4LY5ASTY4175jfHQJV"
            ]
          }
        }, 
        {
          "value": 0.45078417,
          "n": 1,
          "scriptPubKey": {
            "asm": "OP_DUP OP_HASH160 97b49f7c1b27cefcd431bd1642a58134b49204b9 OP_EQUALVERIFY OP_CHECKSIG",
            "hex": "76a91497b49f7c1b27cefcd431bd1642a58134b49204b988ac",
            "reqSigs": 1,
            "type": "pubkeyhash",
            "addresses": [
              "LZ46g5rp8hmdcS6FWdYboBfriCyURqet8u"
            ]
          }
        }
      ],
      "hex": "0200000001889fe234f20814d1321f43d0ba859f7fab5f70b232026245d3b81836c3001133000000006a47304402207b0d44d600425723cab7083f5e4fbb47ed625ad46f91a3b2c2c52067da795ebc022026a686b6fc273cdccfe2ba804b6241a281f023071a4b24b6ecd1d74a69fba27a012103c3ceb10cff6a76d65a83e23b478232926ab20cdaf7e8d1bf7ea84a07457ea4eafeffffff029efec40e000000001976a91470dc1e3ebbae53fd89da14e3da280046cdd5da7f88ac91d7af02000000001976a91497b49f7c1b27cefcd431bd1642a58134b49204b988ac8ebe1400"
    }, 
    {
      "txid": "4d5f115675e449ecfe4045ca14962c003fcc8d4cf21aca1fa984d0500e2b7a70",
      "hash": "4d5f115675e449ecfe4045ca14962c003fcc8d4cf21aca1fa984d0500e2b7a70",
      "version": 2,
      "size": 963,
      "vsize": 963,
      "locktime": 1359502,
      "vin": [
        {
          "txid": "10190cf56a4bb34a0a94a4bc13e2362fa2f104e72217181ad01bab60e5246eae",
          "vout": 0,
          "scriptSig": {
            "asm": "30440220589a0e772ce5d731572f1f33f1227fc3fd4ce3a4d14c1325672d6833e91583a002200b8bd19b5628df1e3bc636aa7efc7d61ba28ffa9fc95dcdfa93e20af84568fee[ALL] 03d5e6d6d72fb205e15fe4fd6ca3692b399e9d685b6d5ef2440338a77f8c62c693",
            "hex": "4730440220589a0e772ce5d731572f1f33f1227fc3fd4ce3a4d14c1325672d6833e91583a002200b8bd19b5628df1e3bc636aa7efc7d61ba28ffa9fc95dcdfa93e20af84568fee012103d5e6d6d72fb205e15fe4fd6ca3692b399e9d685b6d5ef2440338a77f8c62c693"
          },
          "sequence": 4294967294
        }, 
        {
          "txid": "e2f38d1c22e4de673c26892bf6c0b3bf8dcfb323dc57e14a61b1cc081b2b844e",
          "vout": 0,
          "scriptSig": {
            "asm": "3045022100b8efff312cf90bab4fa7a03f51ee275fa561697ee03c1be767c2c1fbd566fba002201779079dc05b6e45ca0e7bf09cb976c49f8e0f194bf4b1a257da3826db73746c[ALL] 0332f1c201be3ffd33e7a72a76b8589bd30ea659d4ec747a66fff33044217296bd",
            "hex": "483045022100b8efff312cf90bab4fa7a03f51ee275fa561697ee03c1be767c2c1fbd566fba002201779079dc05b6e45ca0e7bf09cb976c49f8e0f194bf4b1a257da3826db73746c01210332f1c201be3ffd33e7a72a76b8589bd30ea659d4ec747a66fff33044217296bd"
          },
          "sequence": 4294967294
        }, 
        {
          "txid": "aa861683c762566da3c15ec538d341de0aa5bcff0d6d2e30eaed7cc228e0250b",
          "vout": 1,
          "scriptSig": {
            "asm": "3045022100fd2dab4c02557c7d37d1619fca30b1c5b474287cfed4ebde2c356a5a91531fee02204e334941b70fdb16976c886f8f5830236e871b1db9c56de0c476b8e63a3fd167[ALL] 03b6e5c95ba019f781f7b53999b362c3d64bc6d01d772ea020a98250a618c27145",
            "hex": "483045022100fd2dab4c02557c7d37d1619fca30b1c5b474287cfed4ebde2c356a5a91531fee02204e334941b70fdb16976c886f8f5830236e871b1db9c56de0c476b8e63a3fd167012103b6e5c95ba019f781f7b53999b362c3d64bc6d01d772ea020a98250a618c27145"
          },
          "sequence": 4294967294
        }, 
        {
          "txid": "df001944942d998be2cd02f23c0a7975c3bef6ecc74d0fd44a5915959652780f",
          "vout": 0,
          "scriptSig": {
            "asm": "3044022073aa5745992458a0eda72bb5fe8938afb6c7d57b538f188dd2c68c3c4854a3ce022010f7b675762485f5b3b687b92c3ea3e0358bbdad70ffaddc9f6dfc562e9b11b1[ALL] 0271bb0509db7a43871baacb3a85d9e7d666271599275eaedd9319865ec3c2a037",
            "hex": "473044022073aa5745992458a0eda72bb5fe8938afb6c7d57b538f188dd2c68c3c4854a3ce022010f7b675762485f5b3b687b92c3ea3e0358bbdad70ffaddc9f6dfc562e9b11b101210271bb0509db7a43871baacb3a85d9e7d666271599275eaedd9319865ec3c2a037"
          },
          "sequence": 4294967294
        }, 
        {
          "txid": "b7fd2d6b845712f9bce5724cc3c55894aaccce1aec0c898552778423d677674d",
          "vout": 0,
          "scriptSig": {
            "asm": "3045022100bb875a71c3308f8a85e796d556a6cafbfbb6e2d582332fcdf9654dd3c3106608022051f85c6ad34398751af88261ba78e3141c4ff513545975ee380df35d8c1cd3dd[ALL] 03f439c48a3e970308193467a72016c1200f0c371653fbf353f0f757cad693e2b5",
            "hex": "483045022100bb875a71c3308f8a85e796d556a6cafbfbb6e2d582332fcdf9654dd3c3106608022051f85c6ad34398751af88261ba78e3141c4ff513545975ee380df35d8c1cd3dd012103f439c48a3e970308193467a72016c1200f0c371653fbf353f0f757cad693e2b5"
          },
          "sequence": 4294967294
        }, 
        {
          "txid": "d4d9af1c2dff7337737febe7996cbb61d7e57e1018748209fe6cd073385231dc",
          "vout": 0,
          "scriptSig": {
            "asm": "304402201c5cf7af09cce0aec7478d6240ea6501259804d1a684369f20e3abfaffbc0b3d022023625640d70710695e518aef2b0cc9a16b4d53f8c88785dc4889a60bbde3ba69[ALL] 03286687e2a000e0c90ac57993b4b7ebc387ee4bcbc6a126d00163006bdba4044b",
            "hex": "47304402201c5cf7af09cce0aec7478d6240ea6501259804d1a684369f20e3abfaffbc0b3d022023625640d70710695e518aef2b0cc9a16b4d53f8c88785dc4889a60bbde3ba69012103286687e2a000e0c90ac57993b4b7ebc387ee4bcbc6a126d00163006bdba4044b"
          },
          "sequence": 4294967294
        }
      ],
      "vout": [
        {
          "value": 0.01339803,
          "n": 0,
          "scriptPubKey": {
            "asm": "OP_DUP OP_HASH160 ceab10e826201090f28325a69ff2bd64aede5d51 OP_EQUALVERIFY OP_CHECKSIG",
            "hex": "76a914ceab10e826201090f28325a69ff2bd64aede5d5188ac",
            "reqSigs": 1,
            "type": "pubkeyhash",
            "addresses": [
              "Le4iPcASrL9DU4fB6uGKCsRANn7Twmf3Zj"
            ]
          }
        }, 
        {
          "value": 4.00000000,
          "n": 1,
          "scriptPubKey": {
            "asm": "OP_DUP OP_HASH160 5a6a76740916623dd878d5da570abdea7c4faa0c OP_EQUALVERIFY OP_CHECKSIG",
            "hex": "76a9145a6a76740916623dd878d5da570abdea7c4faa0c88ac",
            "reqSigs": 1,
            "type": "pubkeyhash",
            "addresses": [
              "LTU2cds4aSdXFip9sV4gXphnhxGQjgfjmg"
            ]
          }
        }
      ],
      "hex": "0200000006ae6e24e560ab1bd01a181722e704f1a22f36e213bca4940a4ab34b6af50c1910000000006a4730440220589a0e772ce5d731572f1f33f1227fc3fd4ce3a4d14c1325672d6833e91583a002200b8bd19b5628df1e3bc636aa7efc7d61ba28ffa9fc95dcdfa93e20af84568fee012103d5e6d6d72fb205e15fe4fd6ca3692b399e9d685b6d5ef2440338a77f8c62c693feffffff4e842b1b08ccb1614ae157dc23b3cf8dbfb3c0f62b89263c67dee4221c8df3e2000000006b483045022100b8efff312cf90bab4fa7a03f51ee275fa561697ee03c1be767c2c1fbd566fba002201779079dc05b6e45ca0e7bf09cb976c49f8e0f194bf4b1a257da3826db73746c01210332f1c201be3ffd33e7a72a76b8589bd30ea659d4ec747a66fff33044217296bdfeffffff0b25e028c27cedea302e6d0dffbca50ade41d338c55ec1a36d5662c7831686aa010000006b483045022100fd2dab4c02557c7d37d1619fca30b1c5b474287cfed4ebde2c356a5a91531fee02204e334941b70fdb16976c886f8f5830236e871b1db9c56de0c476b8e63a3fd167012103b6e5c95ba019f781f7b53999b362c3d64bc6d01d772ea020a98250a618c27145feffffff0f7852969515594ad40f4dc7ecf6bec375790a3cf202cde28b992d94441900df000000006a473044022073aa5745992458a0eda72bb5fe8938afb6c7d57b538f188dd2c68c3c4854a3ce022010f7b675762485f5b3b687b92c3ea3e0358bbdad70ffaddc9f6dfc562e9b11b101210271bb0509db7a43871baacb3a85d9e7d666271599275eaedd9319865ec3c2a037feffffff4d6777d62384775285890cec1aceccaa9458c5c34c72e5bcf91257846b2dfdb7000000006b483045022100bb875a71c3308f8a85e796d556a6cafbfbb6e2d582332fcdf9654dd3c3106608022051f85c6ad34398751af88261ba78e3141c4ff513545975ee380df35d8c1cd3dd012103f439c48a3e970308193467a72016c1200f0c371653fbf353f0f757cad693e2b5feffffffdc31523873d06cfe09827418107ee5d761bb6c99e7eb7f733773ff2d1cafd9d4000000006a47304402201c5cf7af09cce0aec7478d6240ea6501259804d1a684369f20e3abfaffbc0b3d022023625640d70710695e518aef2b0cc9a16b4d53f8c88785dc4889a60bbde3ba69012103286687e2a000e0c90ac57993b4b7ebc387ee4bcbc6a126d00163006bdba4044bfeffffff029b711400000000001976a914ceab10e826201090f28325a69ff2bd64aede5d5188ac0084d717000000001976a9145a6a76740916623dd878d5da570abdea7c4faa0c88ac8ebe1400"
    }, 
    {
      "txid": "7272b4ca73cbd7050502f19191a2bb45ca926da502e33734ea5f35b68095cfac",
      "hash": "7272b4ca73cbd7050502f19191a2bb45ca926da502e33734ea5f35b68095cfac",
      "version": 2,
      "size": 226,
      "vsize": 226,
      "locktime": 1359502,
      "vin": [
        {
          "txid": "83d9b9e8b14e726f2e97ac64e8368794b9cff8db7b064e1c7734bdf096f439a9",
          "vout": 0,
          "scriptSig": {
            "asm": "3045022100921be97ac91d01bb924669d43f86b4ccb77465744ff5b2e5f970e53e0ca03100022031a6c817e56d3f16140e01cfbf4b75b09892814cbf1da3443734ff71025f3b92[ALL] 0246cb208fc1c14892ed30ada70f757903dfde26cf383fc71e6d510a2622c4f74d",
            "hex": "483045022100921be97ac91d01bb924669d43f86b4ccb77465744ff5b2e5f970e53e0ca03100022031a6c817e56d3f16140e01cfbf4b75b09892814cbf1da3443734ff71025f3b9201210246cb208fc1c14892ed30ada70f757903dfde26cf383fc71e6d510a2622c4f74d"
          },
          "sequence": 4294967294
        }
      ],
      "vout": [
        {
          "value": 0.21353200,
          "n": 0,
          "scriptPubKey": {
            "asm": "OP_DUP OP_HASH160 cd9f7a2a86e65cd116e359e86c643b7fc202d8cb OP_EQUALVERIFY OP_CHECKSIG",
            "hex": "76a914cd9f7a2a86e65cd116e359e86c643b7fc202d8cb88ac",
            "reqSigs": 1,
            "type": "pubkeyhash",
            "addresses": [
              "LdyBqD5rLV2UPe7f8aRBapVRaYmx9FSUuy"
            ]
          }
        }, 
        {
          "value": 0.17300970,
          "n": 1,
          "scriptPubKey": {
            "asm": "OP_DUP OP_HASH160 61ab012edcaf491d253836d7e521f6b7ca1285c8 OP_EQUALVERIFY OP_CHECKSIG",
            "hex": "76a91461ab012edcaf491d253836d7e521f6b7ca1285c888ac",
            "reqSigs": 1,
            "type": "pubkeyhash",
            "addresses": [
              "LU8NfRtcFPRgzvT61QYKVjPmUByMUS5adJ"
            ]
          }
        }
      ],
      "hex": "0200000001a939f496f0bd34771c4e067bdbf8cfb9948736e864ac972e6f724eb1e8b9d983000000006b483045022100921be97ac91d01bb924669d43f86b4ccb77465744ff5b2e5f970e53e0ca03100022031a6c817e56d3f16140e01cfbf4b75b09892814cbf1da3443734ff71025f3b9201210246cb208fc1c14892ed30ada70f757903dfde26cf383fc71e6d510a2622c4f74dfeffffff02f0d24501000000001976a914cd9f7a2a86e65cd116e359e86c643b7fc202d8cb88aceafd0701000000001976a91461ab012edcaf491d253836d7e521f6b7ca1285c888ac8ebe1400"
    }, 
    {
      "txid": "3259a5701321b884cc4ac3acaf35f9691c9884cbc56e3d01525ee8e662960402",
      "hash": "3259a5701321b884cc4ac3acaf35f9691c9884cbc56e3d01525ee8e662960402",
      "version": 1,
      "size": 226,
      "vsize": 226,
      "locktime": 0,
      "vin": [
        {
          "txid": "1fdaa91c059d6885d302a0920ee7318aa9fa9e1f54fbc5a0be7dc81c11ac7dd9",
          "vout": 1,
          "scriptSig": {
            "asm": "3045022100845ca360350a7d171ba84b160083a1d45158c6f8e767ed79fd6766e8819cb5e4022004ae7e124e508d67ef431bd1753dd77b21c4321dc22c83b1d847bd00d30915e4[ALL] 0308d35a85e1589a20768713ebcc618e1c7814c7cf9d8477b7aea9dbbb6559ef6a",
            "hex": "483045022100845ca360350a7d171ba84b160083a1d45158c6f8e767ed79fd6766e8819cb5e4022004ae7e124e508d67ef431bd1753dd77b21c4321dc22c83b1d847bd00d30915e401210308d35a85e1589a20768713ebcc618e1c7814c7cf9d8477b7aea9dbbb6559ef6a"
          },
          "sequence": 4294967295
        }
      ],
      "vout": [
        {
          "value": 0.42017187,
          "n": 0,
          "scriptPubKey": {
            "asm": "OP_DUP OP_HASH160 3b1e5190ac8eaf6d2eaea0c259b3fc33df415fa2 OP_EQUALVERIFY OP_CHECKSIG",
            "hex": "76a9143b1e5190ac8eaf6d2eaea0c259b3fc33df415fa288ac",
            "reqSigs": 1,
            "type": "pubkeyhash",
            "addresses": [
              "LQcYT74ERMWg73XtpqAzHHPVwBU8XUHipU"
            ]
          }
        }, 
        {
          "value": 0.00611208,
          "n": 1,
          "scriptPubKey": {
            "asm": "OP_DUP OP_HASH160 c84323b58036e62dfb927957c63d6c56da097883 OP_EQUALVERIFY OP_CHECKSIG",
            "hex": "76a914c84323b58036e62dfb927957c63d6c56da09788388ac",
            "reqSigs": 1,
            "type": "pubkeyhash",
            "addresses": [
              "LdUqqWgNiEx56xh3uQbTDJPXbfh58rF3ZJ"
            ]
          }
        }
      ],
      "hex": "0100000001d97dac111cc87dbea0c5fb541f9efaa98a31e70e92a002d385689d051ca9da1f010000006b483045022100845ca360350a7d171ba84b160083a1d45158c6f8e767ed79fd6766e8819cb5e4022004ae7e124e508d67ef431bd1753dd77b21c4321dc22c83b1d847bd00d30915e401210308d35a85e1589a20768713ebcc618e1c7814c7cf9d8477b7aea9dbbb6559ef6affffffff02a3218102000000001976a9143b1e5190ac8eaf6d2eaea0c259b3fc33df415fa288ac88530900000000001976a914c84323b58036e62dfb927957c63d6c56da09788388ac00000000"
    }, 
    {
      "txid": "6bd9186af61c747ad5a114062d1de90f7f2a0422d983a7d4617c69480db78c0b",
      "hash": "6bd9186af61c747ad5a114062d1de90f7f2a0422d983a7d4617c69480db78c0b",
      "version": 1,
      "size": 226,
      "vsize": 226,
      "locktime": 0,
      "vin": [
        {
          "txid": "7331adc3945699a346d934d54a198fc41d0a5dde880776b0bb959b013a0b7d4e",
          "vout": 0,
          "scriptSig": {
            "asm": "3045022100afe8049284fb2f6aa909f403ef8b23cbca897a0e3f66617e54f33ff78c14cd22022011fa38961a5c4c2ffc9da80466a75f321622dcaf60d854875043d863df3bbbf5[ALL] 03f6f2ef403acfcbae60030bbb1b75e5ff5f390ecd126439cc166d37ee4c663b48",
            "hex": "483045022100afe8049284fb2f6aa909f403ef8b23cbca897a0e3f66617e54f33ff78c14cd22022011fa38961a5c4c2ffc9da80466a75f321622dcaf60d854875043d863df3bbbf5012103f6f2ef403acfcbae60030bbb1b75e5ff5f390ecd126439cc166d37ee4c663b48"
          },
          "sequence": 4294967295
        }
      ],
      "vout": [
        {
          "value": 48.94629734,
          "n": 0,
          "scriptPubKey": {
            "asm": "OP_DUP OP_HASH160 4a14b02d41dba54563287868be92d96f957d88ad OP_EQUALVERIFY OP_CHECKSIG",
            "hex": "76a9144a14b02d41dba54563287868be92d96f957d88ad88ac",
            "reqSigs": 1,
            "type": "pubkeyhash",
            "addresses": [
              "LRyf3rCn4LLWimKYKqEN7BymFKeozJf1yV"
            ]
          }
        }, 
        {
          "value": 1.94000000,
          "n": 1,
          "scriptPubKey": {
            "asm": "OP_DUP OP_HASH160 3a2b07ea884b0e6ddf5207d2c83f8e2a89cc321d OP_EQUALVERIFY OP_CHECKSIG",
            "hex": "76a9143a2b07ea884b0e6ddf5207d2c83f8e2a89cc321d88ac",
            "reqSigs": 1,
            "type": "pubkeyhash",
            "addresses": [
              "LQXX1BQ464nvNY1BhF4EqmjgEpmdMtnE4s"
            ]
          }
        }
      ],
      "hex": "01000000014e7d0b3a019b95bbb0760788de5d0a1dc48f194ad534d946a3995694c3ad3173000000006b483045022100afe8049284fb2f6aa909f403ef8b23cbca897a0e3f66617e54f33ff78c14cd22022011fa38961a5c4c2ffc9da80466a75f321622dcaf60d854875043d863df3bbbf5012103f6f2ef403acfcbae60030bbb1b75e5ff5f390ecd126439cc166d37ee4c663b48ffffffff02661fbe23010000001976a9144a14b02d41dba54563287868be92d96f957d88ad88ac8034900b000000001976a9143a2b07ea884b0e6ddf5207d2c83f8e2a89cc321d88ac00000000"
    }, 
    {
      "txid": "5094b0a2907fa63eb16d043f23c38fd717d45e09594914b42b0d4fa89c5d2f6b",
      "hash": "5094b0a2907fa63eb16d043f23c38fd717d45e09594914b42b0d4fa89c5d2f6b",
      "version": 1,
      "size": 226,
      "vsize": 226,
      "locktime": 0,
      "vin": [
        {
          "txid": "d2a8b427fb7b3c02099b62796edf9f513a3f8bc1f3fd0a24809377aa866fc6af",
          "vout": 1,
          "scriptSig": {
            "asm": "3045022100e7c70c4433cfca8f733a32ca8b7cdf84f1ae8dd98ab08eb41d5fce379bc229b1022037fc23c9a9fbc983a5cfd5aecbbebf85285a0a89de694e68c2ce2c94e8c3d58d[ALL] 02e880adbed033869e52b4901cecfa690340764edf8ce916773dcc66f8c1d4d893",
            "hex": "483045022100e7c70c4433cfca8f733a32ca8b7cdf84f1ae8dd98ab08eb41d5fce379bc229b1022037fc23c9a9fbc983a5cfd5aecbbebf85285a0a89de694e68c2ce2c94e8c3d58d012102e880adbed033869e52b4901cecfa690340764edf8ce916773dcc66f8c1d4d893"
          },
          "sequence": 4294967295
        }
      ],
      "vout": [
        {
          "value": 5.00000000,
          "n": 0,
          "scriptPubKey": {
            "asm": "OP_DUP OP_HASH160 cec3a8818e769e2ddcedb9e26ea3fbcca99c8d4e OP_EQUALVERIFY OP_CHECKSIG",
            "hex": "76a914cec3a8818e769e2ddcedb9e26ea3fbcca99c8d4e88ac",
            "reqSigs": 1,
            "type": "pubkeyhash",
            "addresses": [
              "Le5DrJUDmthWJtyBacrRUYKyejRJZZZpPd"
            ]
          }
        }, 
        {
          "value": 45.21940488,
          "n": 1,
          "scriptPubKey": {
            "asm": "OP_DUP OP_HASH160 e7f0379ea70a6695ca62d30dcfa87095e6bf031b OP_EQUALVERIFY OP_CHECKSIG",
            "hex": "76a914e7f0379ea70a6695ca62d30dcfa87095e6bf031b88ac",
            "reqSigs": 1,
            "type": "pubkeyhash",
            "addresses": [
              "LgNL87ZiSWRDz7iHRrHFkQUDUipKg1vmCp"
            ]
          }
        }
      ],
      "hex": "0100000001afc66f86aa779380240afdf3c18b3f3a519fdf6e79629b09023c7bfb27b4a8d2010000006b483045022100e7c70c4433cfca8f733a32ca8b7cdf84f1ae8dd98ab08eb41d5fce379bc229b1022037fc23c9a9fbc983a5cfd5aecbbebf85285a0a89de694e68c2ce2c94e8c3d58d012102e880adbed033869e52b4901cecfa690340764edf8ce916773dcc66f8c1d4d893ffffffff020065cd1d000000001976a914cec3a8818e769e2ddcedb9e26ea3fbcca99c8d4e88ac0856870d010000001976a914e7f0379ea70a6695ca62d30dcfa87095e6bf031b88ac00000000"
    }, 
    {
      "txid": "3f5b0e7c0adbd0947299e723384851e6885b6a0a9530a4ab2952159662684c6f",
      "hash": "3f5b0e7c0adbd0947299e723384851e6885b6a0a9530a4ab2952159662684c6f",
      "version": 1,
      "size": 226,
      "vsize": 226,
      "locktime": 0,
      "vin": [
        {
          "txid": "6a80616e865e64d42a40363ac45e4368137145a5aab08bcbdefc8eab24285965",
          "vout": 1,
          "scriptSig": {
            "asm": "30450221008653fee6563a726f843e94246311111ba4c4072d87e2c479b32a40f9117f432502207dd07b1c9d9f29574e99f622af3e4f341e0788ce4441c8afc582701045e1c857[ALL] 02480b31d1c801aa224da5806b08698ca794065b91724cbc71d7bfadc837125bb4",
            "hex": "4830450221008653fee6563a726f843e94246311111ba4c4072d87e2c479b32a40f9117f432502207dd07b1c9d9f29574e99f622af3e4f341e0788ce4441c8afc582701045e1c857012102480b31d1c801aa224da5806b08698ca794065b91724cbc71d7bfadc837125bb4"
          },
          "sequence": 4294967295
        }
      ],
      "vout": [
        {
          "value": 51.07600330,
          "n": 0,
          "scriptPubKey": {
            "asm": "OP_DUP OP_HASH160 b96afa47a54a6864fa3f0c1164b8525e5e5547f0 OP_EQUALVERIFY OP_CHECKSIG",
            "hex": "76a914b96afa47a54a6864fa3f0c1164b8525e5e5547f088ac",
            "reqSigs": 1,
            "type": "pubkeyhash",
            "addresses": [
              "Lc8MRe3RhAUjnNviDCXxJ2fpjMCWmGU25k"
            ]
          }
        }, 
        {
          "value": 0.89323356,
          "n": 1,
          "scriptPubKey": {
            "asm": "OP_DUP OP_HASH160 c4e1d6a8d84b11f880c229835d29b3ed1c5b93c2 OP_EQUALVERIFY OP_CHECKSIG",
            "hex": "76a914c4e1d6a8d84b11f880c229835d29b3ed1c5b93c288ac",
            "reqSigs": 1,
            "type": "pubkeyhash",
            "addresses": [
              "LdAyFM4vU5rLaWU57d8BMGd2XXNxhktjJ6"
            ]
          }
        }
      ],
      "hex": "010000000165592824ab8efcdecb8bb0aaa545711368435ec43a36402ad4645e866e61806a010000006b4830450221008653fee6563a726f843e94246311111ba4c4072d87e2c479b32a40f9117f432502207dd07b1c9d9f29574e99f622af3e4f341e0788ce4441c8afc582701045e1c857012102480b31d1c801aa224da5806b08698ca794065b91724cbc71d7bfadc837125bb4ffffffff02cacb6f30010000001976a914b96afa47a54a6864fa3f0c1164b8525e5e5547f088ac5cf75205000000001976a914c4e1d6a8d84b11f880c229835d29b3ed1c5b93c288ac00000000"
    }, 
    {
      "txid": "f08b85fe0113d23f12180627efc7baf8690302e55fb7316b20422270f17bf5ba",
      "hash": "f08b85fe0113d23f12180627efc7baf8690302e55fb7316b20422270f17bf5ba",
      "version": 1,
      "size": 226,
      "vsize": 226,
      "locktime": 0,
      "vin": [
        {
          "txid": "ca67a837c98349bccb4e49faa0401964be16734a6ed2d0f5647b54cfa792403c",
          "vout": 0,
          "scriptSig": {
            "asm": "3045022100c20dee5526f802f74dc45335aa2de6d729af4df8512e7c24f3e5c9b8327bca6402205152b7a72a2f45fb8d749cb7732144f6e6ee7083773e405d38d3465471e49930[ALL] 0358a7267157c513146227f6b547577e8371c06a0774609436d14bbbfe77c93df3",
            "hex": "483045022100c20dee5526f802f74dc45335aa2de6d729af4df8512e7c24f3e5c9b8327bca6402205152b7a72a2f45fb8d749cb7732144f6e6ee7083773e405d38d3465471e4993001210358a7267157c513146227f6b547577e8371c06a0774609436d14bbbfe77c93df3"
          },
          "sequence": 4294967295
        }
      ],
      "vout": [
        {
          "value": 0.56886691,
          "n": 0,
          "scriptPubKey": {
            "asm": "OP_DUP OP_HASH160 37d05f179d30725ddb5fdf3d5467526042b89475 OP_EQUALVERIFY OP_CHECKSIG",
            "hex": "76a91437d05f179d30725ddb5fdf3d5467526042b8947588ac",
            "reqSigs": 1,
            "type": "pubkeyhash",
            "addresses": [
              "LQK53fb7aGuzaMienLhQpcJHFV2LAD1rXU"
            ]
          }
        }, 
        {
          "value": 52.15699737,
          "n": 1,
          "scriptPubKey": {
            "asm": "OP_DUP OP_HASH160 5bc2df60232665daa82a9da786afbf4fd047629a OP_EQUALVERIFY OP_CHECKSIG",
            "hex": "76a9145bc2df60232665daa82a9da786afbf4fd047629a88ac",
            "reqSigs": 1,
            "type": "pubkeyhash",
            "addresses": [
              "LTb9CeoAMaJSiHorUy8yZciMmJSdefHihJ"
            ]
          }
        }
      ],
      "hex": "01000000013c4092a7cf547b64f5d0d26e4a7316be641940a0fa494ecbbc4983c937a867ca000000006b483045022100c20dee5526f802f74dc45335aa2de6d729af4df8512e7c24f3e5c9b8327bca6402205152b7a72a2f45fb8d749cb7732144f6e6ee7083773e405d38d3465471e4993001210358a7267157c513146227f6b547577e8371c06a0774609436d14bbbfe77c93df3ffffffff02a3056403000000001976a91437d05f179d30725ddb5fdf3d5467526042b8947588ac1943e136010000001976a9145bc2df60232665daa82a9da786afbf4fd047629a88ac00000000"
    }, 
    {
      "txid": "499f17a88e87ff313b9e2f8796047480be5bbeb87e2761e5605794f787d07dbe",
      "hash": "499f17a88e87ff313b9e2f8796047480be5bbeb87e2761e5605794f787d07dbe",
      "version": 2,
      "size": 226,
      "vsize": 226,
      "locktime": 1359503,
      "vin": [
        {
          "txid": "68494817f9b5572e39848ea482c3beb46f72cc2238fce6595d33aa7465628862",
          "vout": 0,
          "scriptSig": {
            "asm": "3045022100faee5a17770eaf40336852040603cb2278bb8340a085816c97c1255d454ecf6402201beb2def6629cab1160e1320c9aaa5dad1d6b2f0a397d61b5e06f596c1fe588d[ALL] 02e647df89cc6d91cc0b8b7347d55c82997c51296e86a6d56192baf2dde411d026",
            "hex": "483045022100faee5a17770eaf40336852040603cb2278bb8340a085816c97c1255d454ecf6402201beb2def6629cab1160e1320c9aaa5dad1d6b2f0a397d61b5e06f596c1fe588d012102e647df89cc6d91cc0b8b7347d55c82997c51296e86a6d56192baf2dde411d026"
          },
          "sequence": 4294967294
        }
      ],
      "vout": [
        {
          "value": 205.94700703,
          "n": 0,
          "scriptPubKey": {
            "asm": "OP_DUP OP_HASH160 97d58e6d980efc496c7963ece67fe443b43c8a5d OP_EQUALVERIFY OP_CHECKSIG",
            "hex": "76a91497d58e6d980efc496c7963ece67fe443b43c8a5d88ac",
            "reqSigs": 1,
            "type": "pubkeyhash",
            "addresses": [
              "LZ4n8LQauuhLXbwHo95MVBVjHdcmyp99Qa"
            ]
          }
        }, 
        {
          "value": 3.89225835,
          "n": 1,
          "scriptPubKey": {
            "asm": "OP_DUP OP_HASH160 9e92e7d576cc695a6fa57e8034ef39cc7cad1f21 OP_EQUALVERIFY OP_CHECKSIG",
            "hex": "76a9149e92e7d576cc695a6fa57e8034ef39cc7cad1f2188ac",
            "reqSigs": 1,
            "type": "pubkeyhash",
            "addresses": [
              "LZgR1hgrF1BduEeqbZAyZsnMvucwdbHLZR"
            ]
          }
        }
      ],
      "hex": "02000000016288626574aa335d59e6fc3822cc726fb4bec382a48e84392e57b5f917484968000000006b483045022100faee5a17770eaf40336852040603cb2278bb8340a085816c97c1255d454ecf6402201beb2def6629cab1160e1320c9aaa5dad1d6b2f0a397d61b5e06f596c1fe588d012102e647df89cc6d91cc0b8b7347d55c82997c51296e86a6d56192baf2dde411d026feffffff029f318acb040000001976a91497d58e6d980efc496c7963ece67fe443b43c8a5d88ac6b1d3317000000001976a9149e92e7d576cc695a6fa57e8034ef39cc7cad1f2188ac8fbe1400"
    }, 
    {
      "txid": "8e0a70ddb6c2cdeb0d86736285e2b8c99b1bfde8eaa5f37bb79834e6bd0782f9",
      "hash": "8e0a70ddb6c2cdeb0d86736285e2b8c99b1bfde8eaa5f37bb79834e6bd0782f9",
      "version": 2,
      "size": 374,
      "vsize": 374,
      "locktime": 1359502,
      "vin": [
        {
          "txid": "d7672e225ca5a252868ec8e2ed2619b82447fca4da84d20fafad6fe2a7010100",
          "vout": 1,
          "scriptSig": {
            "asm": "30450221008f4514ae40388019c7cbfa57af6e09b79375882d74f9046e78451133f161460a02205c9bbdf96c0dfb27edc596e11e0c5d3a9b1e9e66e7862fd0401ead87aa9278fe[ALL] 020500aa77d64478c1499e1eddcf22ce9591d3d16c196a367c988cf900a4bc3408",
            "hex": "4830450221008f4514ae40388019c7cbfa57af6e09b79375882d74f9046e78451133f161460a02205c9bbdf96c0dfb27edc596e11e0c5d3a9b1e9e66e7862fd0401ead87aa9278fe0121020500aa77d64478c1499e1eddcf22ce9591d3d16c196a367c988cf900a4bc3408"
          },
          "sequence": 4294967294
        }, 
        {
          "txid": "9f5979a9dfa6da4fbcf07c1d5a6189b1baaf20f81d9334970a8dc31e3c5721a4",
          "vout": 20,
          "scriptSig": {
            "asm": "3045022100822cfb2aa0e56545abc82c1d5a6eea4d14605247d194cce36f7506390fa7759802202efa6df413a1a870552b88f9b4cdbfdecc07f4c64be539dd87a4c6d21754ad89[ALL] 0290c89f67413e701d4a45b076acb582c3e9fb9143c4ac6bcc95b7a42a19c94ead",
            "hex": "483045022100822cfb2aa0e56545abc82c1d5a6eea4d14605247d194cce36f7506390fa7759802202efa6df413a1a870552b88f9b4cdbfdecc07f4c64be539dd87a4c6d21754ad8901210290c89f67413e701d4a45b076acb582c3e9fb9143c4ac6bcc95b7a42a19c94ead"
          },
          "sequence": 4294967294
        }
      ],
      "vout": [
        {
          "value": 1.00000000,
          "n": 0,
          "scriptPubKey": {
            "asm": "OP_DUP OP_HASH160 5a6a76740916623dd878d5da570abdea7c4faa0c OP_EQUALVERIFY OP_CHECKSIG",
            "hex": "76a9145a6a76740916623dd878d5da570abdea7c4faa0c88ac",
            "reqSigs": 1,
            "type": "pubkeyhash",
            "addresses": [
              "LTU2cds4aSdXFip9sV4gXphnhxGQjgfjmg"
            ]
          }
        }, 
        {
          "value": 0.01756394,
          "n": 1,
          "scriptPubKey": {
            "asm": "OP_DUP OP_HASH160 bee85140d98791c1caf992d3ab7a9bacea2ba8c6 OP_EQUALVERIFY OP_CHECKSIG",
            "hex": "76a914bee85140d98791c1caf992d3ab7a9bacea2ba8c688ac",
            "reqSigs": 1,
            "type": "pubkeyhash",
            "addresses": [
              "LcdNxMdJJfekkgRcTDgR2uKhNCThTZ9z1E"
            ]
          }
        }
      ],
      "hex": "0200000002000101a7e26fadaf0fd284daa4fc4724b81926ede2c88e8652a2a55c222e67d7010000006b4830450221008f4514ae40388019c7cbfa57af6e09b79375882d74f9046e78451133f161460a02205c9bbdf96c0dfb27edc596e11e0c5d3a9b1e9e66e7862fd0401ead87aa9278fe0121020500aa77d64478c1499e1eddcf22ce9591d3d16c196a367c988cf900a4bc3408feffffffa421573c1ec38d0a9734931df820afbab189615a1d7cf0bc4fdaa6dfa979599f140000006b483045022100822cfb2aa0e56545abc82c1d5a6eea4d14605247d194cce36f7506390fa7759802202efa6df413a1a870552b88f9b4cdbfdecc07f4c64be539dd87a4c6d21754ad8901210290c89f67413e701d4a45b076acb582c3e9fb9143c4ac6bcc95b7a42a19c94eadfeffffff0200e1f505000000001976a9145a6a76740916623dd878d5da570abdea7c4faa0c88aceacc1a00000000001976a914bee85140d98791c1caf992d3ab7a9bacea2ba8c688ac8ebe1400"
    }
  ],
  "time": 1517292142,
  "mediantime": 1517291829,
  "nonce": 2606494405,
  "bits": "1a042eae",
  "difficulty": 4011378.762614286,
  "chainwork": "000000000000000000000000000000000000000000000034110a214a5d870ba2",
  "previousblockhash": "b76d0c47f2e1d6248feb0968e2ffa4bdf6ac86a6673764a39a034ead14ffa6b8",
  "nextblockhash": "0e5f6011e67c0329e8a03e3c109e05fea7b80a46f1929d5e6c351ee7702777b2"
}
