{
  "hash": "0c8a9da58fd83dd149bd937ece89689faf4374a30fdcdf5affe69df380088287",
  "confirmations": 904,
  "strippedsize": 1364,
  "size": 1400,
  "weight": 5492,
  "height": 1360090,
  "version": 536870912,
  "versionHex": "20000000",
  "merkleroot": "b8b3904daf0bef5877f1ebd05e9641f1d86706b0e0bc761ba998cc5415d9c865",
  "tx": [
    {
      "txid": "9977ee63969c9dfefe90fe42cff647b82cbe24ea7cb5a572a48001d127f1459d",
      "hash": "b3b5e33da917711ef28d78038740c328885e8011b15789848a22c3b3c8a406cf",
      "version": 1,
      "size": 200,
      "vsize": 173,
      "locktime": 0,
      "vin": [
        {
          "coinbase": "03dac01404e344715a08280000f7580200000d2f6e6f64655374726174756d2f",
          "sequence": 0
        }
      ],
      "vout": [
        {
          "value": 0.00000000,
          "n": 0,
          "scriptPubKey": {
            "asm": "OP_RETURN aa21a9ed9ae48b1102ccb05768b6dc4ca650afa90e1a16d4d68879be58aff417fc4f815e",
            "hex": "6a24aa21a9ed9ae48b1102ccb05768b6dc4ca650afa90e1a16d4d68879be58aff417fc4f815e",
            "type": "nulldata"
          }
        }, 
        {
          "value": 25.00260000,
          "n": 1,
          "scriptPubKey": {
            "asm": "OP_DUP OP_HASH160 8836a0d567257e801254e29be08629fb71f36f9f OP_EQUALVERIFY OP_CHECKSIG",
            "hex": "76a9148836a0d567257e801254e29be08629fb71f36f9f88ac",
            "reqSigs": 1,
            "type": "pubkeyhash",
            "addresses": [
              "LXeBbwTXnzwSUzSbVubDZu4brFzmMjehn3"
            ]
          }
        }
      ],
      "hex": "010000000001010000000000000000000000000000000000000000000000000000000000000000ffffffff2003dac01404e344715a08280000f7580200000d2f6e6f64655374726174756d2f00000000020000000000000000266a24aa21a9ed9ae48b1102ccb05768b6dc4ca650afa90e1a16d4d68879be58aff417fc4f815ea0f00695000000001976a9148836a0d567257e801254e29be08629fb71f36f9f88ac0120000000000000000000000000000000000000000000000000000000000000000000000000"
    }, 
    {
      "txid": "078c34ae0f54afc2a70e16f907e27b16d7d5744f5249cb73c05836531e88d450",
      "hash": "078c34ae0f54afc2a70e16f907e27b16d7d5744f5249cb73c05836531e88d450",
      "version": 1,
      "size": 520,
      "vsize": 520,
      "locktime": 0,
      "vin": [
        {
          "txid": "7a0073b4e56741cbf73b9e3ca45183f693b42e126b5ef75c103da52a762714d9",
          "vout": 0,
          "scriptSig": {
            "asm": "3045022100f67f593921f1547262c3b5e5113f23baf9e6e036042e78bbe36b041c1d2cf59d022072bbb197bb8e126b7554c742b0e4c4cfa06417a2fbc09cf68ab934d81c333114[ALL] 031f06f3c4595ef31053bd1f159526a10416afba02aa72a9324268a5f344ce84c7",
            "hex": "483045022100f67f593921f1547262c3b5e5113f23baf9e6e036042e78bbe36b041c1d2cf59d022072bbb197bb8e126b7554c742b0e4c4cfa06417a2fbc09cf68ab934d81c3331140121031f06f3c4595ef31053bd1f159526a10416afba02aa72a9324268a5f344ce84c7"
          },
          "sequence": 4294967295
        }, 
        {
          "txid": "85f41d736fd70bea02970a1e2fec7854b111be13f0eae8f44a786636ddafc2c1",
          "vout": 0,
          "scriptSig": {
            "asm": "3044022031f560cdf3b49b3a77b631e8c57a856cc9f8540ebc6ef39ce646692559d953680220206eafc089d396c02ef548fa9632ef9554cb19a9e9eee9a6ef836d233b4463cd[ALL] 038ced0dc8bf78a35238b7764131a17ceb97f2ab09eb51476a81130fec5e99c83f",
            "hex": "473044022031f560cdf3b49b3a77b631e8c57a856cc9f8540ebc6ef39ce646692559d953680220206eafc089d396c02ef548fa9632ef9554cb19a9e9eee9a6ef836d233b4463cd0121038ced0dc8bf78a35238b7764131a17ceb97f2ab09eb51476a81130fec5e99c83f"
          },
          "sequence": 4294967295
        }, 
        {
          "txid": "30240ffb71ca3ff8c19d0a838eb1625a8ad749938a5a58a97dfb53dc5a590aaf",
          "vout": 0,
          "scriptSig": {
            "asm": "304402207b3c325d54b5d01f1d63bbfe60eb470281468a0683e629a7b5c756a2f59b402002203309bb44bd6b41743c5fc52f1d0a2fe8a3e81dadec97cbeb877d158f1acbbb7a[ALL] 029f1e322eda36db70e34454f2a5220bf7c1708d21d37a2b7ac529ba18843a60fe",
            "hex": "47304402207b3c325d54b5d01f1d63bbfe60eb470281468a0683e629a7b5c756a2f59b402002203309bb44bd6b41743c5fc52f1d0a2fe8a3e81dadec97cbeb877d158f1acbbb7a0121029f1e322eda36db70e34454f2a5220bf7c1708d21d37a2b7ac529ba18843a60fe"
          },
          "sequence": 4294967295
        }
      ],
      "vout": [
        {
          "value": 8.26221260,
          "n": 0,
          "scriptPubKey": {
            "asm": "OP_DUP OP_HASH160 18534c6d2e783b008b0b5d313f71e6586778b7b6 OP_EQUALVERIFY OP_CHECKSIG",
            "hex": "76a91418534c6d2e783b008b0b5d313f71e6586778b7b688ac",
            "reqSigs": 1,
            "type": "pubkeyhash",
            "addresses": [
              "LMSaGW1jev8MEjFiPV9Br18NvQuxCMVg5q"
            ]
          }
        }, 
        {
          "value": 0.01000021,
          "n": 1,
          "scriptPubKey": {
            "asm": "OP_DUP OP_HASH160 ddf3d75dae945b49ba112b1b163c3b60d20657f5 OP_EQUALVERIFY OP_CHECKSIG",
            "hex": "76a914ddf3d75dae945b49ba112b1b163c3b60d20657f588ac",
            "reqSigs": 1,
            "type": "pubkeyhash",
            "addresses": [
              "LfTXhzjY2iV2PVzAb1iXxDhvu4LE4KFSwu"
            ]
          }
        }
      ],
      "hex": "0100000003d91427762aa53d105cf75e6b122eb493f68351a43c9e3bf7cb4167e5b473007a000000006b483045022100f67f593921f1547262c3b5e5113f23baf9e6e036042e78bbe36b041c1d2cf59d022072bbb197bb8e126b7554c742b0e4c4cfa06417a2fbc09cf68ab934d81c3331140121031f06f3c4595ef31053bd1f159526a10416afba02aa72a9324268a5f344ce84c7ffffffffc1c2afdd3666784af4e8eaf013be11b15478ec2f1e0a9702ea0bd76f731df485000000006a473044022031f560cdf3b49b3a77b631e8c57a856cc9f8540ebc6ef39ce646692559d953680220206eafc089d396c02ef548fa9632ef9554cb19a9e9eee9a6ef836d233b4463cd0121038ced0dc8bf78a35238b7764131a17ceb97f2ab09eb51476a81130fec5e99c83fffffffffaf0a595adc53fb7da9585a8a9349d78a5a62b18e830a9dc1f83fca71fb0f2430000000006a47304402207b3c325d54b5d01f1d63bbfe60eb470281468a0683e629a7b5c756a2f59b402002203309bb44bd6b41743c5fc52f1d0a2fe8a3e81dadec97cbeb877d158f1acbbb7a0121029f1e322eda36db70e34454f2a5220bf7c1708d21d37a2b7ac529ba18843a60feffffffff02cc223f31000000001976a91418534c6d2e783b008b0b5d313f71e6586778b7b688ac55420f00000000001976a914ddf3d75dae945b49ba112b1b163c3b60d20657f588ac00000000"
    }, 
    {
      "txid": "7e8dc009813464d2052361833ce9516e397777d22585ae8b1ceb2ef41693a729",
      "hash": "7e8dc009813464d2052361833ce9516e397777d22585ae8b1ceb2ef41693a729",
      "version": 1,
      "size": 373,
      "vsize": 373,
      "locktime": 1360088,
      "vin": [
        {
          "txid": "8c40afefe51777547439adc3fb05a58f1e6c2233e4611ca14f7ff73c229277f2",
          "vout": 0,
          "scriptSig": {
            "asm": "304402206f2aeefda90eed22323ddae4487d697826bd96e90e00d37094c0278fcb1bf5fc02205797a63a0c4a4ee9ed7ccd7124a370f96c91adc634f9f2e557e48510b646ac30[ALL] 02457b26fa9a7c7732bf21e4946bc8340475f0d9dcb9ae554e8753b06310d27a54",
            "hex": "47304402206f2aeefda90eed22323ddae4487d697826bd96e90e00d37094c0278fcb1bf5fc02205797a63a0c4a4ee9ed7ccd7124a370f96c91adc634f9f2e557e48510b646ac30012102457b26fa9a7c7732bf21e4946bc8340475f0d9dcb9ae554e8753b06310d27a54"
          },
          "sequence": 4294967294
        }, 
        {
          "txid": "bb00bc632a06c5438f403367b6c296e38bf5b7457ca5006238c1be97e8d63df7",
          "vout": 1,
          "scriptSig": {
            "asm": "3045022100c1447ea1fb8657f6560690395083854b2cee0fa54d48fa15ef9b263b1ae059aa0220260bdf047c6b419781ea3864458405a6232a07287308ff8ec0ff869d10475b45[ALL] 028950ea51de87ab13ace4da59d97635283eb2c602bab5d2abdd9a633b154dfa49",
            "hex": "483045022100c1447ea1fb8657f6560690395083854b2cee0fa54d48fa15ef9b263b1ae059aa0220260bdf047c6b419781ea3864458405a6232a07287308ff8ec0ff869d10475b450121028950ea51de87ab13ace4da59d97635283eb2c602bab5d2abdd9a633b154dfa49"
          },
          "sequence": 4294967294
        }
      ],
      "vout": [
        {
          "value": 0.01013019,
          "n": 0,
          "scriptPubKey": {
            "asm": "OP_DUP OP_HASH160 0ae2a8f602241e0deb115ba3effba4f80fc3a88c OP_EQUALVERIFY OP_CHECKSIG",
            "hex": "76a9140ae2a8f602241e0deb115ba3effba4f80fc3a88c88ac",
            "reqSigs": 1,
            "type": "pubkeyhash",
            "addresses": [
              "LLDWYk8fA3Fi2CSfqQZ3vDRQChXQdxgnL8"
            ]
          }
        }, 
        {
          "value": 0.72716236,
          "n": 1,
          "scriptPubKey": {
            "asm": "OP_DUP OP_HASH160 bb1ae0f013b917a2a4ce2d0140671ec5ce8d704f OP_EQUALVERIFY OP_CHECKSIG",
            "hex": "76a914bb1ae0f013b917a2a4ce2d0140671ec5ce8d704f88ac",
            "reqSigs": 1,
            "type": "pubkeyhash",
            "addresses": [
              "LcHGpeWfo8VVzxQDZQVL5bUkC4zRsbG9qw"
            ]
          }
        }
      ],
      "hex": "0100000002f27792223cf77f4fa11c61e433226c1e8fa505fbc3ad3974547717e5efaf408c000000006a47304402206f2aeefda90eed22323ddae4487d697826bd96e90e00d37094c0278fcb1bf5fc02205797a63a0c4a4ee9ed7ccd7124a370f96c91adc634f9f2e557e48510b646ac30012102457b26fa9a7c7732bf21e4946bc8340475f0d9dcb9ae554e8753b06310d27a54fefffffff73dd6e897bec1386200a57c45b7f58be396c2b66733408f43c5062a63bc00bb010000006b483045022100c1447ea1fb8657f6560690395083854b2cee0fa54d48fa15ef9b263b1ae059aa0220260bdf047c6b419781ea3864458405a6232a07287308ff8ec0ff869d10475b450121028950ea51de87ab13ace4da59d97635283eb2c602bab5d2abdd9a633b154dfa49feffffff021b750f00000000001976a9140ae2a8f602241e0deb115ba3effba4f80fc3a88c88accc8f5504000000001976a914bb1ae0f013b917a2a4ce2d0140671ec5ce8d704f88acd8c01400"
    }, 
    {
      "txid": "42afe176551b7f7687bf8e344339bc4f332612f393563fd9633aeba377b27786",
      "hash": "42afe176551b7f7687bf8e344339bc4f332612f393563fd9633aeba377b27786",
      "version": 1,
      "size": 226,
      "vsize": 226,
      "locktime": 0,
      "vin": [
        {
          "txid": "b964eb6caac47f9916dfb58586b26a638afafe6bec0113d4d0ab66759be29537",
          "vout": 0,
          "scriptSig": {
            "asm": "3045022100a6e9da808b254b3cf46857d6fafaff8fd535fcdc30c1899454b74f57d3e529b602204789ab58dcd25a39d4376e60449fe6ade89a38d8f61603a4d986a5c0758f40b4[ALL] 02f54ab76ab7827dd08b076e22bd06abf81a1e52890352c286a9986b3270b0f7bb",
            "hex": "483045022100a6e9da808b254b3cf46857d6fafaff8fd535fcdc30c1899454b74f57d3e529b602204789ab58dcd25a39d4376e60449fe6ade89a38d8f61603a4d986a5c0758f40b4012102f54ab76ab7827dd08b076e22bd06abf81a1e52890352c286a9986b3270b0f7bb"
          },
          "sequence": 4294967295
        }
      ],
      "vout": [
        {
          "value": 31.81702084,
          "n": 0,
          "scriptPubKey": {
            "asm": "OP_DUP OP_HASH160 01808f2e7914cc40353912d5895af443bf370d7c OP_EQUALVERIFY OP_CHECKSIG",
            "hex": "76a91401808f2e7914cc40353912d5895af443bf370d7c88ac",
            "reqSigs": 1,
            "type": "pubkeyhash",
            "addresses": [
              "LKMtwrwMsi7mfXChLuZXbFfoN8MJbWpjBX"
            ]
          }
        }, 
        {
          "value": 7.77351574,
          "n": 1,
          "scriptPubKey": {
            "asm": "OP_DUP OP_HASH160 904a13e4a69b695bcad6a03eb1ece5c7e0b62bfd OP_EQUALVERIFY OP_CHECKSIG",
            "hex": "76a914904a13e4a69b695bcad6a03eb1ece5c7e0b62bfd88ac",
            "reqSigs": 1,
            "type": "pubkeyhash",
            "addresses": [
              "LYNtJr23x1hrULcVfunuCM441JrzAmwK4N"
            ]
          }
        }
      ],
      "hex": "01000000013795e29b7566abd0d41301ec6bfefa8a636ab28685b5df16997fc4aa6ceb64b9000000006b483045022100a6e9da808b254b3cf46857d6fafaff8fd535fcdc30c1899454b74f57d3e529b602204789ab58dcd25a39d4376e60449fe6ade89a38d8f61603a4d986a5c0758f40b4012102f54ab76ab7827dd08b076e22bd06abf81a1e52890352c286a9986b3270b0f7bbffffffff02c4eba4bd000000001976a91401808f2e7914cc40353912d5895af443bf370d7c88ac9671552e000000001976a914904a13e4a69b695bcad6a03eb1ece5c7e0b62bfd88ac00000000"
    }
  ],
  "time": 1517372643,
  "mediantime": 1517371862,
  "nonce": 2683241257,
  "bits": "1a042eae",
  "difficulty": 4011378.762614286,
  "chainwork": "0000000000000000000000000000000000000000000000349d27061a26af0f36",
  "previousblockhash": "472d9072525f97d6c5e2a3c1e728f67d6fd14e13f7a5829ea96a393bfc4712a0",
  "nextblockhash": "d56cd1d57b0533da22937d0bad5adfc4028a810c5a057cee24626c5c93a29f53"
}
