{
  "hash": "0cc80f9ad39a1a1f1cf219955324c25fba09a46f2de6590f25c8c736c8fc6516",
  "confirmations": 1191,
  "strippedsize": 253,
  "size": 253,
  "weight": 1012,
  "height": 1359803,
  "version": 536870912,
  "versionHex": "20000000",
  "merkleroot": "2472d9e530531eced3b10967782ed70afdb0463f1068e7523038910e41484648",
  "tx": [
    {
      "txid": "2472d9e530531eced3b10967782ed70afdb0463f1068e7523038910e41484648",
      "hash": "2472d9e530531eced3b10967782ed70afdb0463f1068e7523038910e41484648",
      "version": 1,
      "size": 172,
      "vsize": 172,
      "locktime": 0,
      "vin": [
        {
          "coinbase": "03bbbf141a4d696e656420627920416e74506f6f6c20626a3242205a70aef9fabe6d6d452f5f43992bc11e117924964924c34f26017dac87b4f915077eb4131d686a7d040000000000000000100000000000000f000000",
          "sequence": 4294967295
        }
      ],
      "vout": [
        {
          "value": 25.00000000,
          "n": 0,
          "scriptPubKey": {
            "asm": "OP_DUP OP_HASH160 0ff3ccc5e8be88afe24b5d634e5852d474dbdff1 OP_EQUALVERIFY OP_CHECKSIG",
            "hex": "76a9140ff3ccc5e8be88afe24b5d634e5852d474dbdff188ac",
            "reqSigs": 1,
            "type": "pubkeyhash",
            "addresses": [
              "LLgJTbzZMsRTCUF1NtvvL9SR1a4pVieW89"
            ]
          }
        }
      ],
      "hex": "01000000010000000000000000000000000000000000000000000000000000000000000000ffffffff5703bbbf141a4d696e656420627920416e74506f6f6c20626a3242205a70aef9fabe6d6d452f5f43992bc11e117924964924c34f26017dac87b4f915077eb4131d686a7d040000000000000000100000000000000f000000ffffffff0100f90295000000001976a9140ff3ccc5e8be88afe24b5d634e5852d474dbdff188ac00000000"
    }
  ],
  "time": 1517334265,
  "mediantime": 1517333635,
  "nonce": 2423875526,
  "bits": "1a042eae",
  "difficulty": 4011378.762614286,
  "chainwork": "0000000000000000000000000000000000000000000000345887d5d2179b0678",
  "previousblockhash": "b8260b88b3f757883d5d1ae3cd6bdcaaff7ca743c3c68903331993b500fd784d",
  "nextblockhash": "bc6dbe482de49f6fd82d3e33c6bf99aca966d7ed4791f58c8bcbd7d58d002948"
}
