{
  "hash": "0d472e558dacc3c361e08fb78b032d9a399a7327c5cec82a5d7ee4bf497c1089",
  "confirmations": 113,
  "strippedsize": 1425,
  "size": 1461,
  "weight": 5736,
  "height": 1360879,
  "version": 536870912,
  "versionHex": "20000000",
  "merkleroot": "50621e0631474b8c46ba1302d0d893a5b84b53fe1b29444435078b9a644396e5",
  "tx": [
    {
      "txid": "a1b2e248dbea2da9fd9a6b7fa9facf3b23a8372dbb480ceb6a2076c09150f62c",
      "hash": "687cba0ceaf2a3b50946eae71a13ba5fdb2191f7de221c26823fcbae32608e85",
      "version": 1,
      "size": 253,
      "vsize": 226,
      "locktime": 0,
      "vin": [
        {
          "coinbase": "03efc31441d69cc7710ad13a41d69cc7710917362f4c54432e544f502ffabe6d6d5e80f08089d732e281a9e66919f3f00d100f176af0dae1b1348fdb2a8b02b18201000000000000005d2b7f280700000000000000",
          "sequence": 4294967295
        }
      ],
      "vout": [
        {
          "value": 25.00146785,
          "n": 0,
          "scriptPubKey": {
            "asm": "OP_DUP OP_HASH160 0c617fdb2ea42aed30a509595ee21ba3f6688db0 OP_EQUALVERIFY OP_CHECKSIG",
            "hex": "76a9140c617fdb2ea42aed30a509595ee21ba3f6688db088ac",
            "reqSigs": 1,
            "type": "pubkeyhash",
            "addresses": [
              "LLMRAtr3qBje2ySEa3CnZ55LA4TQMWnRY3"
            ]
          }
        }, 
        {
          "value": 0.00000000,
          "n": 1,
          "scriptPubKey": {
            "asm": "OP_RETURN aa21a9ed80ea505e16ef80aab49e2ab6dec3ad74e63882dcabef9212cbb784d0a2129f30",
            "hex": "6a24aa21a9ed80ea505e16ef80aab49e2ab6dec3ad74e63882dcabef9212cbb784d0a2129f30",
            "type": "nulldata"
          }
        }
      ],
      "hex": "010000000001010000000000000000000000000000000000000000000000000000000000000000ffffffff5503efc31441d69cc7710ad13a41d69cc7710917362f4c54432e544f502ffabe6d6d5e80f08089d732e281a9e66919f3f00d100f176af0dae1b1348fdb2a8b02b18201000000000000005d2b7f280700000000000000ffffffff0261360595000000001976a9140c617fdb2ea42aed30a509595ee21ba3f6688db088ac0000000000000000266a24aa21a9ed80ea505e16ef80aab49e2ab6dec3ad74e63882dcabef9212cbb784d0a2129f300120000000000000000000000000000000000000000000000000000000000000000000000000"
    }, 
    {
      "txid": "88930bc9450b282e052b6a386d4e81f826c43cad9099dd57237dbe90cb5c045e",
      "hash": "88930bc9450b282e052b6a386d4e81f826c43cad9099dd57237dbe90cb5c045e",
      "version": 1,
      "size": 226,
      "vsize": 226,
      "locktime": 0,
      "vin": [
        {
          "txid": "40297a3f79164038c5909710c272d95f52ca1bf2441b3b8a7f6ad2bcbf272296",
          "vout": 0,
          "scriptSig": {
            "asm": "3045022100c0c130328fe261aafd104c7d2fbe497579ff9bda3a4925d236b031be5183666402200535bc6211037c9261acfa98a219c1cd43e42df1812c8207a18b27a530c00daa[ALL] 0384a9a36de00797765bb8cbd04dabb5aa68695b13ab3d76e64a85d79f0c76db7f",
            "hex": "483045022100c0c130328fe261aafd104c7d2fbe497579ff9bda3a4925d236b031be5183666402200535bc6211037c9261acfa98a219c1cd43e42df1812c8207a18b27a530c00daa01210384a9a36de00797765bb8cbd04dabb5aa68695b13ab3d76e64a85d79f0c76db7f"
          },
          "sequence": 4294967295
        }
      ],
      "vout": [
        {
          "value": 67.39164158,
          "n": 0,
          "scriptPubKey": {
            "asm": "OP_DUP OP_HASH160 8a4fd1372b1dd683fede7d68f2332fae2e9c9f71 OP_EQUALVERIFY OP_CHECKSIG",
            "hex": "76a9148a4fd1372b1dd683fede7d68f2332fae2e9c9f7188ac",
            "reqSigs": 1,
            "type": "pubkeyhash",
            "addresses": [
              "LXqH8V6ZtsHBrURFbVxHR59KA24qcdosN3"
            ]
          }
        }, 
        {
          "value": 13.55513000,
          "n": 1,
          "scriptPubKey": {
            "asm": "OP_DUP OP_HASH160 ab1cf216fd242ccd0cbf081028e41d315bb78995 OP_EQUALVERIFY OP_CHECKSIG",
            "hex": "76a914ab1cf216fd242ccd0cbf081028e41d315bb7899588ac",
            "reqSigs": 1,
            "type": "pubkeyhash",
            "addresses": [
              "LapiVCKTRzg9nzNPX6S1SxR28UfGUPRRT5"
            ]
          }
        }
      ],
      "hex": "0100000001962227bfbcd26a7f8a3b1b44f21bca525fd972c2109790c5384016793f7a2940000000006b483045022100c0c130328fe261aafd104c7d2fbe497579ff9bda3a4925d236b031be5183666402200535bc6211037c9261acfa98a219c1cd43e42df1812c8207a18b27a530c00daa01210384a9a36de00797765bb8cbd04dabb5aa68695b13ab3d76e64a85d79f0c76db7fffffffff02fe7baf91010000001976a9148a4fd1372b1dd683fede7d68f2332fae2e9c9f7188aca87ccb50000000001976a914ab1cf216fd242ccd0cbf081028e41d315bb7899588ac00000000"
    }, 
    {
      "txid": "1c33e158adc1c7381b9f09b7dd815e13d00175bfa2a4d409a73f3e09f124c312",
      "hash": "1c33e158adc1c7381b9f09b7dd815e13d00175bfa2a4d409a73f3e09f124c312",
      "version": 1,
      "size": 225,
      "vsize": 225,
      "locktime": 0,
      "vin": [
        {
          "txid": "81cd536faf841cf3d5112a42f3fc7868efde48343de8d19867d0d88bdcffedc3",
          "vout": 1,
          "scriptSig": {
            "asm": "3044022026a54ee668018d79d7aee68ef045ccacd914f9477d176a742ce8f526ddf479a2022052bb872cf28bc2e268c3769663b790011f596008a2549a7135746b320c7acfa5[ALL] 024650f20a72d658a931865112f9892bd76eca1bb5c87050a4fc21f9f507e63b6d",
            "hex": "473044022026a54ee668018d79d7aee68ef045ccacd914f9477d176a742ce8f526ddf479a2022052bb872cf28bc2e268c3769663b790011f596008a2549a7135746b320c7acfa50121024650f20a72d658a931865112f9892bd76eca1bb5c87050a4fc21f9f507e63b6d"
          },
          "sequence": 4294967295
        }
      ],
      "vout": [
        {
          "value": 62.10762385,
          "n": 0,
          "scriptPubKey": {
            "asm": "OP_DUP OP_HASH160 49bdb3b31ecc1f1dba451121856fecf08b0ab7b3 OP_EQUALVERIFY OP_CHECKSIG",
            "hex": "76a91449bdb3b31ecc1f1dba451121856fecf08b0ab7b388ac",
            "reqSigs": 1,
            "type": "pubkeyhash",
            "addresses": [
              "LRwrqwS9SBRjNxZNc3hjvqCYcPXUAz2s6g"
            ]
          }
        }, 
        {
          "value": 9.92261736,
          "n": 1,
          "scriptPubKey": {
            "asm": "OP_DUP OP_HASH160 664c0504d7535b2f45a6f2b978c0c09a0d6c23fa OP_EQUALVERIFY OP_CHECKSIG",
            "hex": "76a914664c0504d7535b2f45a6f2b978c0c09a0d6c23fa88ac",
            "reqSigs": 1,
            "type": "pubkeyhash",
            "addresses": [
              "LUYrFiPkvrXN4N94X8P2CyhrzBToZEThMa"
            ]
          }
        }
      ],
      "hex": "0100000001c3edffdc8bd8d06798d1e83d3448deef6878fcf3422a11d5f31c84af6f53cd81010000006a473044022026a54ee668018d79d7aee68ef045ccacd914f9477d176a742ce8f526ddf479a2022052bb872cf28bc2e268c3769663b790011f596008a2549a7135746b320c7acfa50121024650f20a72d658a931865112f9892bd76eca1bb5c87050a4fc21f9f507e63b6dffffffff0291b63072010000001976a91449bdb3b31ecc1f1dba451121856fecf08b0ab7b388ac68b6243b000000001976a914664c0504d7535b2f45a6f2b978c0c09a0d6c23fa88ac00000000"
    }, 
    {
      "txid": "dc8f3a7c7bfbc98cf13cbd5e316b84721e3f88d2b45398d218949293def16533",
      "hash": "dc8f3a7c7bfbc98cf13cbd5e316b84721e3f88d2b45398d218949293def16533",
      "version": 1,
      "size": 225,
      "vsize": 225,
      "locktime": 0,
      "vin": [
        {
          "txid": "08f55ec82f7a8077b39ece5968952e2206f5295897eb43ac2524316db20f0c2e",
          "vout": 1,
          "scriptSig": {
            "asm": "304402200a5e65c9ba7f706173ab1bea71be3f536ad3a4d4bcc3e04b5b52a92c167a27ac0220011743ebc8d98f284f0cfab90ce7150494fe12860441daf65ded8ff56936b11c[ALL] 02b4fc02fa9dfd196f44bd53007accbb827a11ed1c05a12de3c3813f1ff9042d88",
            "hex": "47304402200a5e65c9ba7f706173ab1bea71be3f536ad3a4d4bcc3e04b5b52a92c167a27ac0220011743ebc8d98f284f0cfab90ce7150494fe12860441daf65ded8ff56936b11c012102b4fc02fa9dfd196f44bd53007accbb827a11ed1c05a12de3c3813f1ff9042d88"
          },
          "sequence": 4294967295
        }
      ],
      "vout": [
        {
          "value": 0.00056569,
          "n": 0,
          "scriptPubKey": {
            "asm": "OP_DUP OP_HASH160 8f8e7701ac0bf11336aa9f6f45c15851c9750f5c OP_EQUALVERIFY OP_CHECKSIG",
            "hex": "76a9148f8e7701ac0bf11336aa9f6f45c15851c9750f5c88ac",
            "reqSigs": 1,
            "type": "pubkeyhash",
            "addresses": [
              "LYK1ZH3UWmUXN53s4JCvGVoP8WGAmaYeE7"
            ]
          }
        }, 
        {
          "value": 0.08950820,
          "n": 1,
          "scriptPubKey": {
            "asm": "OP_DUP OP_HASH160 36b89a5d90781b56bdad4307d83ea8f6fe76163c OP_EQUALVERIFY OP_CHECKSIG",
            "hex": "76a91436b89a5d90781b56bdad4307d83ea8f6fe76163c88ac",
            "reqSigs": 1,
            "type": "pubkeyhash",
            "addresses": [
              "LQDHu1gDsyse82txj5cGfxfGthdgsEmg6y"
            ]
          }
        }
      ],
      "hex": "01000000012e0c0fb26d312425ac43eb975829f506222e956859ce9eb377807a2fc85ef508010000006a47304402200a5e65c9ba7f706173ab1bea71be3f536ad3a4d4bcc3e04b5b52a92c167a27ac0220011743ebc8d98f284f0cfab90ce7150494fe12860441daf65ded8ff56936b11c012102b4fc02fa9dfd196f44bd53007accbb827a11ed1c05a12de3c3813f1ff9042d88ffffffff02f9dc0000000000001976a9148f8e7701ac0bf11336aa9f6f45c15851c9750f5c88ac24948800000000001976a91436b89a5d90781b56bdad4307d83ea8f6fe76163c88ac00000000"
    }, 
    {
      "txid": "a6a59a39573fdf154af037473adac2d8759821e89b5807aad6dd815123c803f9",
      "hash": "a6a59a39573fdf154af037473adac2d8759821e89b5807aad6dd815123c803f9",
      "version": 1,
      "size": 225,
      "vsize": 225,
      "locktime": 0,
      "vin": [
        {
          "txid": "2152dcc7b83868efe3aeaf315c8b129b6496b94f62ebd81cd7ee8bcaaacdef1a",
          "vout": 9,
          "scriptSig": {
            "asm": "3044022068f6602dde722788409a72a1e01bd80c023aad50dc17fa38a298173eabcbc32b0220183f80f980b9f5759802422d84bc934c112ba56c4457cb62822f0b16f49263c2[ALL] 02a23970340bbc705070111719bf1bbcc9eb2faabe892d2dc2bf7295210eb61b95",
            "hex": "473044022068f6602dde722788409a72a1e01bd80c023aad50dc17fa38a298173eabcbc32b0220183f80f980b9f5759802422d84bc934c112ba56c4457cb62822f0b16f49263c2012102a23970340bbc705070111719bf1bbcc9eb2faabe892d2dc2bf7295210eb61b95"
          },
          "sequence": 4294967295
        }
      ],
      "vout": [
        {
          "value": 2.99977400,
          "n": 0,
          "scriptPubKey": {
            "asm": "OP_DUP OP_HASH160 0f8f117dd3a7d287748583a023dbd0f0eb32dcbe OP_EQUALVERIFY OP_CHECKSIG",
            "hex": "76a9140f8f117dd3a7d287748583a023dbd0f0eb32dcbe88ac",
            "reqSigs": 1,
            "type": "pubkeyhash",
            "addresses": [
              "LLeDnemjNuB5APygoWuzV4zeHzNJb8Xgkt"
            ]
          }
        }, 
        {
          "value": 63.40938388,
          "n": 1,
          "scriptPubKey": {
            "asm": "OP_DUP OP_HASH160 59b2bd512598a9c88e94315b59e14ce2714097b4 OP_EQUALVERIFY OP_CHECKSIG",
            "hex": "76a91459b2bd512598a9c88e94315b59e14ce2714097b488ac",
            "reqSigs": 1,
            "type": "pubkeyhash",
            "addresses": [
              "LTQEXKq5LkqZQWqyDMWLuqnaxaPNPtRQCy"
            ]
          }
        }
      ],
      "hex": "01000000011aefcdaaca8beed71cd8eb624fb996649b128b5c31afaee3ef6838b8c7dc5221090000006a473044022068f6602dde722788409a72a1e01bd80c023aad50dc17fa38a298173eabcbc32b0220183f80f980b9f5759802422d84bc934c112ba56c4457cb62822f0b16f49263c2012102a23970340bbc705070111719bf1bbcc9eb2faabe892d2dc2bf7295210eb61b95ffffffff02b84ae111000000001976a9140f8f117dd3a7d287748583a023dbd0f0eb32dcbe88ac940af379010000001976a91459b2bd512598a9c88e94315b59e14ce2714097b488ac00000000"
    }, 
    {
      "txid": "63b0fb31237400e2e606baa96a4ddd27b552911af186dfc9e6c17dbaf8f21cb6",
      "hash": "63b0fb31237400e2e606baa96a4ddd27b552911af186dfc9e6c17dbaf8f21cb6",
      "version": 1,
      "size": 226,
      "vsize": 226,
      "locktime": 0,
      "vin": [
        {
          "txid": "f9e3bfe9b1410526efac49cf1a7ccda025005ac653570b2dd64ad4f8a52cef89",
          "vout": 1,
          "scriptSig": {
            "asm": "304502210087490a412e84a5ccaad4db33fa07886c99c61a6e9d70964ffcd8d46672092fc70220757afeee573bbb0c499e64ffa92185504a77cb2320bbecfc69316b1123c07499[ALL] 029c7a940a5c3ba7e03ba90efbd2d2a58e12fcd225c15439122cd8555ea2a71aac",
            "hex": "48304502210087490a412e84a5ccaad4db33fa07886c99c61a6e9d70964ffcd8d46672092fc70220757afeee573bbb0c499e64ffa92185504a77cb2320bbecfc69316b1123c074990121029c7a940a5c3ba7e03ba90efbd2d2a58e12fcd225c15439122cd8555ea2a71aac"
          },
          "sequence": 4294967295
        }
      ],
      "vout": [
        {
          "value": 63.95850253,
          "n": 0,
          "scriptPubKey": {
            "asm": "OP_DUP OP_HASH160 0ae1c5a5760d59ec62238a8188ca9741f5489025 OP_EQUALVERIFY OP_CHECKSIG",
            "hex": "76a9140ae1c5a5760d59ec62238a8188ca9741f548902588ac",
            "reqSigs": 1,
            "type": "pubkeyhash",
            "addresses": [
              "LLDVV3nLirV2qt36qQLbx2FtzkmNQfvWxb"
            ]
          }
        }, 
        {
          "value": 5.00000000,
          "n": 1,
          "scriptPubKey": {
            "asm": "OP_DUP OP_HASH160 853b65943ff2d5dfadb854935937ebc36aa719ca OP_EQUALVERIFY OP_CHECKSIG",
            "hex": "76a914853b65943ff2d5dfadb854935937ebc36aa719ca88ac",
            "reqSigs": 1,
            "type": "pubkeyhash",
            "addresses": [
              "LXNRHgrj7PnJm3xLGGu6UZBCB68A878CBq"
            ]
          }
        }
      ],
      "hex": "010000000189ef2ca5f8d44ad62d0b5753c65a0025a0cd7c1acf49acef260541b1e9bfe3f9010000006b48304502210087490a412e84a5ccaad4db33fa07886c99c61a6e9d70964ffcd8d46672092fc70220757afeee573bbb0c499e64ffa92185504a77cb2320bbecfc69316b1123c074990121029c7a940a5c3ba7e03ba90efbd2d2a58e12fcd225c15439122cd8555ea2a71aacffffffff020dee387d010000001976a9140ae1c5a5760d59ec62238a8188ca9741f548902588ac0065cd1d000000001976a914853b65943ff2d5dfadb854935937ebc36aa719ca88ac00000000"
    }
  ],
  "time": 1517493700,
  "mediantime": 1517493028,
  "nonce": 3220567257,
  "bits": "1a04088e",
  "difficulty": 4159490.835685156,
  "chainwork": "0000000000000000000000000000000000000000000000355a824b2ef823f140",
  "previousblockhash": "0908eb440709196a93920a82e5514764fbbc6886c597850f7c0e3023a3e6651c",
  "nextblockhash": "50eb3aff4a4beee8456d5b9def993185c6cb12ef92de14ab9556bbc337bde60f"
}
