{
  "hash": "0d7cab0ea91a578dac67d24d303a0007e38622c6c763de33701b3a94caed4e8d",
  "confirmations": 3204,
  "strippedsize": 234,
  "size": 234,
  "weight": 936,
  "height": 1357791,
  "version": 536870912,
  "versionHex": "20000000",
  "merkleroot": "3fde77602ecf1dbf16436d8f8e7902536b345fc7b16084fa70a4f7052b43c699",
  "tx": [
    {
      "txid": "3fde77602ecf1dbf16436d8f8e7902536b345fc7b16084fa70a4f7052b43c699",
      "hash": "3fde77602ecf1dbf16436d8f8e7902536b345fc7b16084fa70a4f7052b43c699",
      "version": 1,
      "size": 153,
      "vsize": 153,
      "locktime": 0,
      "vin": [
        {
          "coinbase": "03dfb714045a6c52c02cfabe6d6dc9cb41f8638edf08eb2faf5b98cdf0fe95ea080cf15d7c2927fef3ff6c7f04274000000000000000042f4c502f0822003ccc0d000000",
          "sequence": 4294967295
        }
      ],
      "vout": [
        {
          "value": 25.00000000,
          "n": 0,
          "scriptPubKey": {
            "asm": "OP_DUP OP_HASH160 57757ed2ecf2052ff3126c397aca7defb9ca2cec OP_EQUALVERIFY OP_CHECKSIG",
            "hex": "76a91457757ed2ecf2052ff3126c397aca7defb9ca2cec88ac",
            "reqSigs": 1,
            "type": "pubkeyhash",
            "addresses": [
              "LTCPodGk5FwcJaRzH9yKnwicxzFUbxp6tN"
            ]
          }
        }
      ],
      "hex": "01000000010000000000000000000000000000000000000000000000000000000000000000ffffffff4403dfb714045a6c52c02cfabe6d6dc9cb41f8638edf08eb2faf5b98cdf0fe95ea080cf15d7c2927fef3ff6c7f04274000000000000000042f4c502f0822003ccc0d000000ffffffff0100f90295000000001976a91457757ed2ecf2052ff3126c397aca7defb9ca2cec88ac00000000"
    }
  ],
  "time": 1517048512,
  "mediantime": 1517047535,
  "nonce": 232912288,
  "bits": "1a047f14",
  "difficulty": 3731199.183374282,
  "chainwork": "0000000000000000000000000000000000000000000000328806f3396ee6bfc0",
  "previousblockhash": "801b397b2356c3add5a700402cd3c012c9c8d77686f8350e5686d45d3de16c2f",
  "nextblockhash": "fcf107c4733c0521fecf5c0321ae1e544e473f6497cb5c1cd1fc271fe5e5d317"
}
