{
  "hash": "0e2a769319dbd7a20b39122bc603931c0230bd0c3562c3ea4ba4435187c5395b",
  "confirmations": 2995,
  "strippedsize": 254,
  "size": 254,
  "weight": 1016,
  "height": 1358000,
  "version": 536870912,
  "versionHex": "20000000",
  "merkleroot": "c1a75b17d7b1449a22bbf1c2d902e202810b23632bdcbb16ef1fa6e16930e321",
  "tx": [
    {
      "txid": "c1a75b17d7b1449a22bbf1c2d902e202810b23632bdcbb16ef1fa6e16930e321",
      "hash": "c1a75b17d7b1449a22bbf1c2d902e202810b23632bdcbb16ef1fa6e16930e321",
      "version": 1,
      "size": 173,
      "vsize": 173,
      "locktime": 0,
      "vin": [
        {
          "coinbase": "03b0b8141b4d696e656420627920416e74506f6f6c20626a312045205a6cb5f4fabe6d6df3b76604f2a47260fda12fe70c1c03de39ba30e85caf9a183f3c328727cfb92f040000000000000023380000000000001c000000",
          "sequence": 4294967295
        }
      ],
      "vout": [
        {
          "value": 25.00000000,
          "n": 0,
          "scriptPubKey": {
            "asm": "OP_DUP OP_HASH160 0ff3ccc5e8be88afe24b5d634e5852d474dbdff1 OP_EQUALVERIFY OP_CHECKSIG",
            "hex": "76a9140ff3ccc5e8be88afe24b5d634e5852d474dbdff188ac",
            "reqSigs": 1,
            "type": "pubkeyhash",
            "addresses": [
              "LLgJTbzZMsRTCUF1NtvvL9SR1a4pVieW89"
            ]
          }
        }
      ],
      "hex": "01000000010000000000000000000000000000000000000000000000000000000000000000ffffffff5803b0b8141b4d696e656420627920416e74506f6f6c20626a312045205a6cb5f4fabe6d6df3b76604f2a47260fda12fe70c1c03de39ba30e85caf9a183f3c328727cfb92f040000000000000023380000000000001c000000ffffffff0100f90295000000001976a9140ff3ccc5e8be88afe24b5d634e5852d474dbdff188ac00000000"
    }
  ],
  "time": 1517073908,
  "mediantime": 1517073553,
  "nonce": 1449661117,
  "bits": "1a047f14",
  "difficulty": 3731199.183374282,
  "chainwork": "000000000000000000000000000000000000000000000032b682400a0ef950fa",
  "previousblockhash": "3045bf076b016f70635f92d17cdefff62dd29e1f4166ab3ab12326f63786d4a0",
  "nextblockhash": "56342ab423b4995ff54aa8063abd6902dbda9b25b7eb66941eba5bfc3e17103d"
}
