{
  "hash": "0e9812930c60cf26a6d02062cd8ee6eacfa9a0a1b0c92d3705754102a8aad531",
  "confirmations": 1846,
  "strippedsize": 2904,
  "size": 2940,
  "weight": 11652,
  "height": 1359148,
  "version": 536870912,
  "versionHex": "20000000",
  "merkleroot": "df9a50cdf3c5665e960cac8cc8824ecce63dc4bc3744ddbe29d2d3cff7e2b220",
  "tx": [
    {
      "txid": "ee308e8196c930da97d0ae29a3b6d0aad2d1e005d3388bf8e222378ac640614d",
      "hash": "41cdd76ab8ad2464594d1fbc87254917cbb4acb81531688212dc99d75a486400",
      "version": 1,
      "size": 236,
      "vsize": 209,
      "locktime": 0,
      "vin": [
        {
          "coinbase": "032cbd14045a6f47cc2cfabe6d6dd0c3bc7a0040f6d65c72d4c376e2030c484f76862ab5d9b630127986c370500e4000000000000000042f4c502f082200710b11000000",
          "sequence": 4294967295
        }
      ],
      "vout": [
        {
          "value": 25.00302345,
          "n": 0,
          "scriptPubKey": {
            "asm": "OP_DUP OP_HASH160 57757ed2ecf2052ff3126c397aca7defb9ca2cec OP_EQUALVERIFY OP_CHECKSIG",
            "hex": "76a91457757ed2ecf2052ff3126c397aca7defb9ca2cec88ac",
            "reqSigs": 1,
            "type": "pubkeyhash",
            "addresses": [
              "LTCPodGk5FwcJaRzH9yKnwicxzFUbxp6tN"
            ]
          }
        }, 
        {
          "value": 0.00000000,
          "n": 1,
          "scriptPubKey": {
            "asm": "OP_RETURN aa21a9ed4530cadb2813e375de91f31f661d3e35005fbf577ca67f398345e55129bc4e7b",
            "hex": "6a24aa21a9ed4530cadb2813e375de91f31f661d3e35005fbf577ca67f398345e55129bc4e7b",
            "type": "nulldata"
          }
        }
      ],
      "hex": "010000000001010000000000000000000000000000000000000000000000000000000000000000ffffffff44032cbd14045a6f47cc2cfabe6d6dd0c3bc7a0040f6d65c72d4c376e2030c484f76862ab5d9b630127986c370500e4000000000000000042f4c502f082200710b11000000ffffffff0209960795000000001976a91457757ed2ecf2052ff3126c397aca7defb9ca2cec88ac0000000000000000266a24aa21a9ed4530cadb2813e375de91f31f661d3e35005fbf577ca67f398345e55129bc4e7b0120000000000000000000000000000000000000000000000000000000000000000000000000"
    }, 
    {
      "txid": "9532d1a459734cb6df8aed41f8b3f08b833a39a16ef4c6448eb104cb5e770e0a",
      "hash": "9532d1a459734cb6df8aed41f8b3f08b833a39a16ef4c6448eb104cb5e770e0a",
      "version": 1,
      "size": 335,
      "vsize": 335,
      "locktime": 0,
      "vin": [
        {
          "txid": "60c89d6e8565a9d49db0ebef4668468b6252ebf57fe85831cadb502fb0c45f44",
          "vout": 0,
          "scriptSig": {
            "asm": "0 3045022100a78c0f7cc6a75b72b033d871c1753fe3f750f6b7ea0ce96623989aca251e61b502206f5a30ba22537670a7439ea64a0b94503e34015952449951aabc80b3127075fc[ALL] 3044022041b98b9fc4255b25ce46f7cbf794b3f4b05406bdae3a6fb9f9b4bd6c91340e49022009880f7d6b5817d4240201acbecf83a9c477c1cfc40e856139ce5649f24d4562[ALL] 522103e3f69d7a4128f3f7a6659e4dd8bb174d9fcaf87aee032b36619d0ff493f19ae62102e7602199a52ff1d34a91917ed5ff3ff16bfce2d7ec2d00f9b84baf721134527c52ae",
            "hex": "00483045022100a78c0f7cc6a75b72b033d871c1753fe3f750f6b7ea0ce96623989aca251e61b502206f5a30ba22537670a7439ea64a0b94503e34015952449951aabc80b3127075fc01473044022041b98b9fc4255b25ce46f7cbf794b3f4b05406bdae3a6fb9f9b4bd6c91340e49022009880f7d6b5817d4240201acbecf83a9c477c1cfc40e856139ce5649f24d45620147522103e3f69d7a4128f3f7a6659e4dd8bb174d9fcaf87aee032b36619d0ff493f19ae62102e7602199a52ff1d34a91917ed5ff3ff16bfce2d7ec2d00f9b84baf721134527c52ae"
          },
          "sequence": 4294967295
        }
      ],
      "vout": [
        {
          "value": 0.12958500,
          "n": 0,
          "scriptPubKey": {
            "asm": "OP_DUP OP_HASH160 1296524ae802fa24d1f4b0f56c2c577743a406c3 OP_EQUALVERIFY OP_CHECKSIG",
            "hex": "76a9141296524ae802fa24d1f4b0f56c2c577743a406c388ac",
            "reqSigs": 1,
            "type": "pubkeyhash",
            "addresses": [
              "LLvEWBcXhqqa8iAa71duDTGJoazdpS5MPX"
            ]
          }
        }, 
        {
          "value": 1.27379300,
          "n": 1,
          "scriptPubKey": {
            "asm": "OP_HASH160 074e23f195576e85253c382deb78d633d80b70ed OP_EQUAL",
            "hex": "a914074e23f195576e85253c382deb78d633d80b70ed87",
            "reqSigs": 1,
            "type": "scripthash",
            "addresses": [
              "M8Zna4dwsKFr6eggvZjEVhXrXmXfCEZQQB"
            ]
          }
        }
      ],
      "hex": "0100000001445fc4b02f50dbca3158e87ff5eb52628b466846efebb09dd4a965856e9dc86000000000da00483045022100a78c0f7cc6a75b72b033d871c1753fe3f750f6b7ea0ce96623989aca251e61b502206f5a30ba22537670a7439ea64a0b94503e34015952449951aabc80b3127075fc01473044022041b98b9fc4255b25ce46f7cbf794b3f4b05406bdae3a6fb9f9b4bd6c91340e49022009880f7d6b5817d4240201acbecf83a9c477c1cfc40e856139ce5649f24d45620147522103e3f69d7a4128f3f7a6659e4dd8bb174d9fcaf87aee032b36619d0ff493f19ae62102e7602199a52ff1d34a91917ed5ff3ff16bfce2d7ec2d00f9b84baf721134527c52aeffffffff0224bbc500000000001976a9141296524ae802fa24d1f4b0f56c2c577743a406c388ac64a797070000000017a914074e23f195576e85253c382deb78d633d80b70ed8700000000"
    }, 
    {
      "txid": "06222d23013ca09f49b8fa448ad75267c25e1e05db025a39c8ec78ff900c0466",
      "hash": "06222d23013ca09f49b8fa448ad75267c25e1e05db025a39c8ec78ff900c0466",
      "version": 1,
      "size": 192,
      "vsize": 192,
      "locktime": 0,
      "vin": [
        {
          "txid": "8faf615cbdb511f7ff6a58aef24801b54a6d2417c7c172741701ad633ec98924",
          "vout": 0,
          "scriptSig": {
            "asm": "3045022100a44d0808e739e1ad62b66513a32d32bcbfea8eac6667bcf61307e708e94f56a50220390ddefb773106fb9180bd9e68b30462bf32fe8068e8f261da96350a59aee135[ALL] 02fcb0d02685c277f4ac9ed85a1a52843f7818de9fd2a73e14faee29526be9899b",
            "hex": "483045022100a44d0808e739e1ad62b66513a32d32bcbfea8eac6667bcf61307e708e94f56a50220390ddefb773106fb9180bd9e68b30462bf32fe8068e8f261da96350a59aee135012102fcb0d02685c277f4ac9ed85a1a52843f7818de9fd2a73e14faee29526be9899b"
          },
          "sequence": 4294967295
        }
      ],
      "vout": [
        {
          "value": 0.00977400,
          "n": 0,
          "scriptPubKey": {
            "asm": "OP_DUP OP_HASH160 5858cd7a67ac747e8dc78cba90737a79fc00aebd OP_EQUALVERIFY OP_CHECKSIG",
            "hex": "76a9145858cd7a67ac747e8dc78cba90737a79fc00aebd88ac",
            "reqSigs": 1,
            "type": "pubkeyhash",
            "addresses": [
              "LTH67D9k5TWPRNMjTrX19rVgyPK1DhfyMq"
            ]
          }
        }
      ],
      "hex": "01000000012489c93e63ad01177472c1c717246d4ab50148f2ae586afff711b5bd5c61af8f000000006b483045022100a44d0808e739e1ad62b66513a32d32bcbfea8eac6667bcf61307e708e94f56a50220390ddefb773106fb9180bd9e68b30462bf32fe8068e8f261da96350a59aee135012102fcb0d02685c277f4ac9ed85a1a52843f7818de9fd2a73e14faee29526be9899bffffffff01f8e90e00000000001976a9145858cd7a67ac747e8dc78cba90737a79fc00aebd88ac00000000"
    }, 
    {
      "txid": "b8777b0646e2c8979a7c25aeaf3a413bf8c272bc63ba7e2ab8918a3b377edd5e",
      "hash": "b8777b0646e2c8979a7c25aeaf3a413bf8c272bc63ba7e2ab8918a3b377edd5e",
      "version": 2,
      "size": 520,
      "vsize": 520,
      "locktime": 1359146,
      "vin": [
        {
          "txid": "9ad29a0208cb1390a07e11171c5cf5eceb87dcc059d314454ddf02354d13de26",
          "vout": 0,
          "scriptSig": {
            "asm": "3043021f4da24b12cd1f4ff1eff7eb761422463d6953cf85aa290306f1979a5c88a119022005edd9858093ae104e4c0768035efbf07304abee2c028922aac18e36a3c74d68[ALL] 02f1ce0daf1c4baa39b3b7ba0cf6103b6e00d9a9e44c565f9c8196b5a436b3af70",
            "hex": "463043021f4da24b12cd1f4ff1eff7eb761422463d6953cf85aa290306f1979a5c88a119022005edd9858093ae104e4c0768035efbf07304abee2c028922aac18e36a3c74d68012102f1ce0daf1c4baa39b3b7ba0cf6103b6e00d9a9e44c565f9c8196b5a436b3af70"
          },
          "sequence": 4294967294
        }, 
        {
          "txid": "7f6f2c8964df10227d3a5e8bcaaf64b4c8c5b97f8ee25baeaa0f5d6d02cff46a",
          "vout": 10,
          "scriptSig": {
            "asm": "3045022100e2b01c04971a700d6e27344ced623cbe362edbbb854a7d218fcc371f30c168a9022006c75501342399d1c5b74a78d5c9de2358319408fa088cea48af670ae52d6055[ALL] 02af4830d0bcf75ee5564c24699231c778d1986fdf0323a290eef142cdb99cda82",
            "hex": "483045022100e2b01c04971a700d6e27344ced623cbe362edbbb854a7d218fcc371f30c168a9022006c75501342399d1c5b74a78d5c9de2358319408fa088cea48af670ae52d6055012102af4830d0bcf75ee5564c24699231c778d1986fdf0323a290eef142cdb99cda82"
          },
          "sequence": 4294967294
        }, 
        {
          "txid": "5ba8182a650c1958a5179952db9e943b3346ebe235992c0857531afa0eea147d",
          "vout": 1,
          "scriptSig": {
            "asm": "3045022100a99487c54cb12a0cec034a54d0ed97c7e1f90c8a82646a771355a3065a5d77a202206b89912f3377658d2855ae5b3f2720261321904285b6be10747ecf86bc2bcd9f[ALL] 0205764a31c41048dca2dad5a33a3c51f629f732acf8771a8b08edecf18c08ae80",
            "hex": "483045022100a99487c54cb12a0cec034a54d0ed97c7e1f90c8a82646a771355a3065a5d77a202206b89912f3377658d2855ae5b3f2720261321904285b6be10747ecf86bc2bcd9f01210205764a31c41048dca2dad5a33a3c51f629f732acf8771a8b08edecf18c08ae80"
          },
          "sequence": 4294967294
        }
      ],
      "vout": [
        {
          "value": 0.03529152,
          "n": 0,
          "scriptPubKey": {
            "asm": "OP_DUP OP_HASH160 7578937b6567dfd56f06067bcbad783172725350 OP_EQUALVERIFY OP_CHECKSIG",
            "hex": "76a9147578937b6567dfd56f06067bcbad78317272535088ac",
            "reqSigs": 1,
            "type": "pubkeyhash",
            "addresses": [
              "LVw5mRz79wRPbxY1xjP6yV6RfkAuJSJcan"
            ]
          }
        }, 
        {
          "value": 2.69596991,
          "n": 1,
          "scriptPubKey": {
            "asm": "OP_DUP OP_HASH160 823c674fe3b6f5ed38be201bece5a69d8bac1c18 OP_EQUALVERIFY OP_CHECKSIG",
            "hex": "76a914823c674fe3b6f5ed38be201bece5a69d8bac1c1888ac",
            "reqSigs": 1,
            "type": "pubkeyhash",
            "addresses": [
              "LX6aU4fqXbTUdxoKDZrWi35UxVULSzWtnY"
            ]
          }
        }
      ],
      "hex": "020000000326de134d3502df4d4514d359c0dc87ebecf55c1c17117ea09013cb08029ad29a0000000069463043021f4da24b12cd1f4ff1eff7eb761422463d6953cf85aa290306f1979a5c88a119022005edd9858093ae104e4c0768035efbf07304abee2c028922aac18e36a3c74d68012102f1ce0daf1c4baa39b3b7ba0cf6103b6e00d9a9e44c565f9c8196b5a436b3af70feffffff6af4cf026d5d0faaae5be28e7fb9c5c8b464afca8b5e3a7d2210df64892c6f7f0a0000006b483045022100e2b01c04971a700d6e27344ced623cbe362edbbb854a7d218fcc371f30c168a9022006c75501342399d1c5b74a78d5c9de2358319408fa088cea48af670ae52d6055012102af4830d0bcf75ee5564c24699231c778d1986fdf0323a290eef142cdb99cda82feffffff7d14ea0efa1a5357082c9935e2eb46333b949edb529917a558190c652a18a85b010000006b483045022100a99487c54cb12a0cec034a54d0ed97c7e1f90c8a82646a771355a3065a5d77a202206b89912f3377658d2855ae5b3f2720261321904285b6be10747ecf86bc2bcd9f01210205764a31c41048dca2dad5a33a3c51f629f732acf8771a8b08edecf18c08ae80feffffff02c0d93500000000001976a9147578937b6567dfd56f06067bcbad78317272535088ac3fb91110000000001976a914823c674fe3b6f5ed38be201bece5a69d8bac1c1888ac2abd1400"
    }, 
    {
      "txid": "be5655d11a7fc65f025e973604f8eee0e8c9dfc060587c2c1d81f7b4c1d18126",
      "hash": "be5655d11a7fc65f025e973604f8eee0e8c9dfc060587c2c1d81f7b4c1d18126",
      "version": 1,
      "size": 225,
      "vsize": 225,
      "locktime": 0,
      "vin": [
        {
          "txid": "d811a89d951b6ad9448d65cd9098efb9ed733d366ebffb09213eebbe4a7c3bc7",
          "vout": 0,
          "scriptSig": {
            "asm": "30440220242fc0dab0859d50b91892b809100617654d8087ae8471072efcbe0f3d039e300220017f11faa34918a478c9cb9fe3cd6d2f5a313db4465e0ca2dcca4eaee1cacfa2[ALL] 03c8a983b8b7e2d485fff448ca10d7104684f3a922dbc5b0b064cdd87aa2cd15fd",
            "hex": "4730440220242fc0dab0859d50b91892b809100617654d8087ae8471072efcbe0f3d039e300220017f11faa34918a478c9cb9fe3cd6d2f5a313db4465e0ca2dcca4eaee1cacfa2012103c8a983b8b7e2d485fff448ca10d7104684f3a922dbc5b0b064cdd87aa2cd15fd"
          },
          "sequence": 4294967295
        }
      ],
      "vout": [
        {
          "value": 0.17474815,
          "n": 0,
          "scriptPubKey": {
            "asm": "OP_DUP OP_HASH160 fd3afdd4e2b4c7f9265c4f8a0ac9c2b784f14663 OP_EQUALVERIFY OP_CHECKSIG",
            "hex": "76a914fd3afdd4e2b4c7f9265c4f8a0ac9c2b784f1466388ac",
            "reqSigs": 1,
            "type": "pubkeyhash",
            "addresses": [
              "LiJutYpatdRAYR9SmKXsP48nk3LXiAt6vj"
            ]
          }
        }, 
        {
          "value": 1.60479985,
          "n": 1,
          "scriptPubKey": {
            "asm": "OP_DUP OP_HASH160 f4ab41fdabd59d2bcc4a940c9465089186b734dd OP_EQUALVERIFY OP_CHECKSIG",
            "hex": "76a914f4ab41fdabd59d2bcc4a940c9465089186b734dd88ac",
            "reqSigs": 1,
            "type": "pubkeyhash",
            "addresses": [
              "LhXeJDdaRr1P7DMrUzb4eX2hr9LuC99WzW"
            ]
          }
        }
      ],
      "hex": "0100000001c73b7c4abeeb3e2109fbbf6e363d73edb9ef9890cd658d44d96a1b959da811d8000000006a4730440220242fc0dab0859d50b91892b809100617654d8087ae8471072efcbe0f3d039e300220017f11faa34918a478c9cb9fe3cd6d2f5a313db4465e0ca2dcca4eaee1cacfa2012103c8a983b8b7e2d485fff448ca10d7104684f3a922dbc5b0b064cdd87aa2cd15fdffffffff02ffa40a01000000001976a914fd3afdd4e2b4c7f9265c4f8a0ac9c2b784f1466388acf1ba9009000000001976a914f4ab41fdabd59d2bcc4a940c9465089186b734dd88ac00000000"
    }, 
    {
      "txid": "6cc4d95c80e56618dc3a37cab6d3eeeeedfb1456cceb0dafa7c4e7c78574d668",
      "hash": "6cc4d95c80e56618dc3a37cab6d3eeeeedfb1456cceb0dafa7c4e7c78574d668",
      "version": 2,
      "size": 225,
      "vsize": 225,
      "locktime": 1359145,
      "vin": [
        {
          "txid": "0d2516e5188c0abe52c38383a082ac237660ef4223277dc21ea47703eb54df47",
          "vout": 0,
          "scriptSig": {
            "asm": "3044022000e9e4977d1c7db0cda512aed5c6964676188e4be6373366a9d8da1e81c52d8302204b7d3f0669783ef2f33e64ff7eff5d2831c7b4157cd3c7148bb4e08a9efab1ed[ALL] 02f74795d1227180ae7cbd16b9fb9348b220b93e186f6a08e86d9bbc0a9b3ab604",
            "hex": "473044022000e9e4977d1c7db0cda512aed5c6964676188e4be6373366a9d8da1e81c52d8302204b7d3f0669783ef2f33e64ff7eff5d2831c7b4157cd3c7148bb4e08a9efab1ed012102f74795d1227180ae7cbd16b9fb9348b220b93e186f6a08e86d9bbc0a9b3ab604"
          },
          "sequence": 4294967294
        }
      ],
      "vout": [
        {
          "value": 10.32097581,
          "n": 0,
          "scriptPubKey": {
            "asm": "OP_DUP OP_HASH160 1c5092577319934767051579927b232dc1e6cf52 OP_EQUALVERIFY OP_CHECKSIG",
            "hex": "76a9141c5092577319934767051579927b232dc1e6cf5288ac",
            "reqSigs": 1,
            "type": "pubkeyhash",
            "addresses": [
              "LMofhoNumFJiHw2ggMzmUjCbwY5eBQHXLm"
            ]
          }
        }, 
        {
          "value": 66.82677498,
          "n": 1,
          "scriptPubKey": {
            "asm": "OP_DUP OP_HASH160 872387ca5a78aa0855e0b1cc94ec6f5a9dca0295 OP_EQUALVERIFY OP_CHECKSIG",
            "hex": "76a914872387ca5a78aa0855e0b1cc94ec6f5a9dca029588ac",
            "reqSigs": 1,
            "type": "pubkeyhash",
            "addresses": [
              "LXYW3ooc3Eo1WsYuYF4nPsTJytBHUESGUx"
            ]
          }
        }
      ],
      "hex": "020000000147df54eb0377a41ec27d272342ef607623ac82a08383c352be0a8c18e516250d000000006a473044022000e9e4977d1c7db0cda512aed5c6964676188e4be6373366a9d8da1e81c52d8302204b7d3f0669783ef2f33e64ff7eff5d2831c7b4157cd3c7148bb4e08a9efab1ed012102f74795d1227180ae7cbd16b9fb9348b220b93e186f6a08e86d9bbc0a9b3ab604feffffff022d8f843d000000001976a9141c5092577319934767051579927b232dc1e6cf5288acfa90518e010000001976a914872387ca5a78aa0855e0b1cc94ec6f5a9dca029588ac29bd1400"
    }, 
    {
      "txid": "24608c718e4623fd2306a6e2d932bd1eed80e50aaee63f487dab1bdb26f24b69",
      "hash": "24608c718e4623fd2306a6e2d932bd1eed80e50aaee63f487dab1bdb26f24b69",
      "version": 1,
      "size": 225,
      "vsize": 225,
      "locktime": 0,
      "vin": [
        {
          "txid": "3e47960b7ff4f8174f53384c7af94c936bda163cdb6b8d7e2732b2ef50a8fd84",
          "vout": 1,
          "scriptSig": {
            "asm": "3044022040421ec3a77be9232b38285142e96422757b220cd7c63000cf9027ea84361612022033cb8eacc0d9e9bc119ee6c1e00995e42c2bb58e9922ed8944bb08663a37dfea[ALL] 029ac765ec34be2f69a71c9c3d6c983489106e9e1de363b161b59accf0aec7a43b",
            "hex": "473044022040421ec3a77be9232b38285142e96422757b220cd7c63000cf9027ea84361612022033cb8eacc0d9e9bc119ee6c1e00995e42c2bb58e9922ed8944bb08663a37dfea0121029ac765ec34be2f69a71c9c3d6c983489106e9e1de363b161b59accf0aec7a43b"
          },
          "sequence": 4294967295
        }
      ],
      "vout": [
        {
          "value": 0.68936920,
          "n": 0,
          "scriptPubKey": {
            "asm": "OP_DUP OP_HASH160 974cd50d77330ad114878ee062158efecf50b4e3 OP_EQUALVERIFY OP_CHECKSIG",
            "hex": "76a914974cd50d77330ad114878ee062158efecf50b4e388ac",
            "reqSigs": 1,
            "type": "pubkeyhash",
            "addresses": [
              "LZ1xLaQcgRztpFarQtjsnB2YrYFe6Bodny"
            ]
          }
        }, 
        {
          "value": 0.06951702,
          "n": 1,
          "scriptPubKey": {
            "asm": "OP_DUP OP_HASH160 0049a094e6d3102f232d45ac124bb6311737150b OP_EQUALVERIFY OP_CHECKSIG",
            "hex": "76a9140049a094e6d3102f232d45ac124bb6311737150b88ac",
            "reqSigs": 1,
            "type": "pubkeyhash",
            "addresses": [
              "LKFUTvdqaLgoDoPfVoJAXSHDZNTp4BtsfR"
            ]
          }
        }
      ],
      "hex": "010000000184fda850efb232277e8d6bdb3c16da6b934cf97a4c38534f17f8f47f0b96473e010000006a473044022040421ec3a77be9232b38285142e96422757b220cd7c63000cf9027ea84361612022033cb8eacc0d9e9bc119ee6c1e00995e42c2bb58e9922ed8944bb08663a37dfea0121029ac765ec34be2f69a71c9c3d6c983489106e9e1de363b161b59accf0aec7a43bffffffff02d8e41b04000000001976a914974cd50d77330ad114878ee062158efecf50b4e388ac16136a00000000001976a9140049a094e6d3102f232d45ac124bb6311737150b88ac00000000"
    }, 
    {
      "txid": "3f62527d2b812ddee6f10be43e97610472b7fc19409823e58e49b9562ce5a98f",
      "hash": "3f62527d2b812ddee6f10be43e97610472b7fc19409823e58e49b9562ce5a98f",
      "version": 1,
      "size": 225,
      "vsize": 225,
      "locktime": 0,
      "vin": [
        {
          "txid": "87fe5a92aa8e0b250cfa7e63d99b603d40778ea53bfc2cacd73a1bbf65558550",
          "vout": 0,
          "scriptSig": {
            "asm": "304402200b3e6e764ac9f5b304b23c90124eac8f7e47335c30d9fcf4b06b9378dddb6d2e022042a09f2242d01df1b5e284fe8529db39d55b2d19e9d6ad1ee3a14156ab27a116[ALL] 03751367d29d8b20ba77bc427612a52ff4969598015544f18f2604eba6202061ce",
            "hex": "47304402200b3e6e764ac9f5b304b23c90124eac8f7e47335c30d9fcf4b06b9378dddb6d2e022042a09f2242d01df1b5e284fe8529db39d55b2d19e9d6ad1ee3a14156ab27a116012103751367d29d8b20ba77bc427612a52ff4969598015544f18f2604eba6202061ce"
          },
          "sequence": 4294967295
        }
      ],
      "vout": [
        {
          "value": 1.08293282,
          "n": 0,
          "scriptPubKey": {
            "asm": "OP_DUP OP_HASH160 7f3c3cf5c54fe4366b3c373261cc144895080b8e OP_EQUALVERIFY OP_CHECKSIG",
            "hex": "76a9147f3c3cf5c54fe4366b3c373261cc144895080b8e88ac",
            "reqSigs": 1,
            "type": "pubkeyhash",
            "addresses": [
              "LWpiEzbMergUfmMpEYnvQdcKJrwtNXk6ns"
            ]
          }
        }, 
        {
          "value": 0.03925715,
          "n": 1,
          "scriptPubKey": {
            "asm": "OP_DUP OP_HASH160 0ee0a922db51ceecc2351215b45745e058369632 OP_EQUALVERIFY OP_CHECKSIG",
            "hex": "76a9140ee0a922db51ceecc2351215b45745e05836963288ac",
            "reqSigs": 1,
            "type": "pubkeyhash",
            "addresses": [
              "LLacrbaFCXeMnF72Gcd51YKqiu9ZKHuxB8"
            ]
          }
        }
      ],
      "hex": "010000000150855565bf1b3ad7ac2cfc3ba58e77403d609bd9637efa0c250b8eaa925afe87000000006a47304402200b3e6e764ac9f5b304b23c90124eac8f7e47335c30d9fcf4b06b9378dddb6d2e022042a09f2242d01df1b5e284fe8529db39d55b2d19e9d6ad1ee3a14156ab27a116012103751367d29d8b20ba77bc427612a52ff4969598015544f18f2604eba6202061ceffffffff02a26c7406000000001976a9147f3c3cf5c54fe4366b3c373261cc144895080b8e88acd3e63b00000000001976a9140ee0a922db51ceecc2351215b45745e05836963288ac00000000"
    }, 
    {
      "txid": "0fff74ebf5e7545392d778bdca4f2b6aa85f33072d63d66bfa51487ca5cb2fa4",
      "hash": "0fff74ebf5e7545392d778bdca4f2b6aa85f33072d63d66bfa51487ca5cb2fa4",
      "version": 2,
      "size": 225,
      "vsize": 225,
      "locktime": 1359146,
      "vin": [
        {
          "txid": "0e24d2044b163116a4775b0a77cbb44a322acc190596d348bdece8a2ce7cb9a4",
          "vout": 0,
          "scriptSig": {
            "asm": "30440220537021875d1e039dabc3957683a1d624015213716912bb39a06546fa6795b7e5022033a50354c6e8bd4b66b2993302ac133f761451a041079166d8e15facb5df93ee[ALL] 0291413c8afe7747c4e1f79d9467693178893369914742625ec31ca37dd908083c",
            "hex": "4730440220537021875d1e039dabc3957683a1d624015213716912bb39a06546fa6795b7e5022033a50354c6e8bd4b66b2993302ac133f761451a041079166d8e15facb5df93ee01210291413c8afe7747c4e1f79d9467693178893369914742625ec31ca37dd908083c"
          },
          "sequence": 4294967294
        }
      ],
      "vout": [
        {
          "value": 0.01028030,
          "n": 0,
          "scriptPubKey": {
            "asm": "OP_DUP OP_HASH160 81e3e86460cad9cc6bb885ddefd2690bedea0116 OP_EQUALVERIFY OP_CHECKSIG",
            "hex": "76a91481e3e86460cad9cc6bb885ddefd2690bedea011688ac",
            "reqSigs": 1,
            "type": "pubkeyhash",
            "addresses": [
              "LX4kTGaaK4kJskg8ZoFkdsicD41aHCknyZ"
            ]
          }
        }, 
        {
          "value": 0.10100001,
          "n": 1,
          "scriptPubKey": {
            "asm": "OP_DUP OP_HASH160 bae44b7d5aa1deb790094a25814060fb01c2ff25 OP_EQUALVERIFY OP_CHECKSIG",
            "hex": "76a914bae44b7d5aa1deb790094a25814060fb01c2ff2588ac",
            "reqSigs": 1,
            "type": "pubkeyhash",
            "addresses": [
              "LcG9S6kPTAZqchCimrdp3i851pMRNYWX4p"
            ]
          }
        }
      ],
      "hex": "0200000001a4b97ccea2e8ecbd48d3960519cc2a324ab4cb770a5b77a41631164b04d2240e000000006a4730440220537021875d1e039dabc3957683a1d624015213716912bb39a06546fa6795b7e5022033a50354c6e8bd4b66b2993302ac133f761451a041079166d8e15facb5df93ee01210291413c8afe7747c4e1f79d9467693178893369914742625ec31ca37dd908083cfeffffff02beaf0f00000000001976a91481e3e86460cad9cc6bb885ddefd2690bedea011688ac211d9a00000000001976a914bae44b7d5aa1deb790094a25814060fb01c2ff2588ac2abd1400"
    }, 
    {
      "txid": "a0f2c2c7bb17e452045b95f4fa4bb42e9a17652fbee75ecd31fa45bed549f6dc",
      "hash": "a0f2c2c7bb17e452045b95f4fa4bb42e9a17652fbee75ecd31fa45bed549f6dc",
      "version": 1,
      "size": 225,
      "vsize": 225,
      "locktime": 1359147,
      "vin": [
        {
          "txid": "328c0cc935cc84237800827d8037d0461c9d6d554c21723eb0b3e51ddab23342",
          "vout": 0,
          "scriptSig": {
            "asm": "304402205152a0f6f00d752c0aad6041ffb6663cbfeb49437461587938ddf58b505625810220462823abeadd82a13617c32a0f6f7b2d07d31232042a6987f778440f7dc3a6f7[ALL] 029e27b5d837027b43630cbe63c7b7c79f3860b49d8273477e088f4f7719c1bf9e",
            "hex": "47304402205152a0f6f00d752c0aad6041ffb6663cbfeb49437461587938ddf58b505625810220462823abeadd82a13617c32a0f6f7b2d07d31232042a6987f778440f7dc3a6f70121029e27b5d837027b43630cbe63c7b7c79f3860b49d8273477e088f4f7719c1bf9e"
          },
          "sequence": 4294967294
        }
      ],
      "vout": [
        {
          "value": 0.09781531,
          "n": 0,
          "scriptPubKey": {
            "asm": "OP_DUP OP_HASH160 2476d92376357cbef64ea067a75414070e9f9507 OP_EQUALVERIFY OP_CHECKSIG",
            "hex": "76a9142476d92376357cbef64ea067a75414070e9f950788ac",
            "reqSigs": 1,
            "type": "pubkeyhash",
            "addresses": [
              "LNYkxqTzn1v8jtjtqkTK8gozwbC9thtJzQ"
            ]
          }
        }, 
        {
          "value": 0.01002947,
          "n": 1,
          "scriptPubKey": {
            "asm": "OP_DUP OP_HASH160 7ebb2da228900711b09da840e1e8367636c07b21 OP_EQUALVERIFY OP_CHECKSIG",
            "hex": "76a9147ebb2da228900711b09da840e1e8367636c07b2188ac",
            "reqSigs": 1,
            "type": "pubkeyhash",
            "addresses": [
              "LWn3dkrH1fhMxnREBep4EYTnK9zkZWNBAf"
            ]
          }
        }
      ],
      "hex": "01000000014233b2da1de5b3b03e72214c556d9d1c46d037807d8200782384cc35c90c8c32000000006a47304402205152a0f6f00d752c0aad6041ffb6663cbfeb49437461587938ddf58b505625810220462823abeadd82a13617c32a0f6f7b2d07d31232042a6987f778440f7dc3a6f70121029e27b5d837027b43630cbe63c7b7c79f3860b49d8273477e088f4f7719c1bf9efeffffff021b419500000000001976a9142476d92376357cbef64ea067a75414070e9f950788acc34d0f00000000001976a9147ebb2da228900711b09da840e1e8367636c07b2188ac2bbd1400"
    }, 
    {
      "txid": "cf29fe962d29a3291b619fb344c1357df23f0ae0f78c55721fd77fae81990da2",
      "hash": "cf29fe962d29a3291b619fb344c1357df23f0ae0f78c55721fd77fae81990da2",
      "version": 1,
      "size": 226,
      "vsize": 226,
      "locktime": 0,
      "vin": [
        {
          "txid": "1e5262332cfc3c5de85cc1666a853aeca898449943efd9cfe94c7bd3c8853377",
          "vout": 0,
          "scriptSig": {
            "asm": "30450221009a12e7f6c0a2ef97889d1e7776a22876fe21769414d8a7ed5644cc6b3d1855340220775e92727f9a1802b7899b94705ee375461d4fc4009ff68a995c1b6fffdc6e48[ALL] 0363495d3af2b1331773971564ca3106ac809ba6e5b1c3bf07ec467ed56bc77874",
            "hex": "4830450221009a12e7f6c0a2ef97889d1e7776a22876fe21769414d8a7ed5644cc6b3d1855340220775e92727f9a1802b7899b94705ee375461d4fc4009ff68a995c1b6fffdc6e4801210363495d3af2b1331773971564ca3106ac809ba6e5b1c3bf07ec467ed56bc77874"
          },
          "sequence": 4294967295
        }
      ],
      "vout": [
        {
          "value": 0.04070800,
          "n": 0,
          "scriptPubKey": {
            "asm": "OP_DUP OP_HASH160 b45b48778e4e1fdc39f479b19492b68ad8430faf OP_EQUALVERIFY OP_CHECKSIG",
            "hex": "76a914b45b48778e4e1fdc39f479b19492b68ad8430faf88ac",
            "reqSigs": 1,
            "type": "pubkeyhash",
            "addresses": [
              "LbfbFCehuT9hrsBQGhfxQwmKkmckjKwyt1"
            ]
          }
        }, 
        {
          "value": 0.28994000,
          "n": 1,
          "scriptPubKey": {
            "asm": "OP_DUP OP_HASH160 39b1d32eca932e9368f4003ad48c8d89a9827794 OP_EQUALVERIFY OP_CHECKSIG",
            "hex": "76a91439b1d32eca932e9368f4003ad48c8d89a982779488ac",
            "reqSigs": 1,
            "type": "pubkeyhash",
            "addresses": [
              "LQV1oe69rUnjwoVJK1guUKCEZfv992zX3d"
            ]
          }
        }
      ],
      "hex": "0100000001773385c8d37b4ce9cfd9ef43994498a8ec3a856a66c15ce85d3cfc2c3362521e000000006b4830450221009a12e7f6c0a2ef97889d1e7776a22876fe21769414d8a7ed5644cc6b3d1855340220775e92727f9a1802b7899b94705ee375461d4fc4009ff68a995c1b6fffdc6e4801210363495d3af2b1331773971564ca3106ac809ba6e5b1c3bf07ec467ed56bc77874ffffffff02901d3e00000000001976a914b45b48778e4e1fdc39f479b19492b68ad8430faf88acd069ba01000000001976a91439b1d32eca932e9368f4003ad48c8d89a982779488ac00000000"
    }
  ],
  "time": 1517242316,
  "mediantime": 1517241890,
  "nonce": 3117101101,
  "bits": "1a042eae",
  "difficulty": 4011378.762614286,
  "chainwork": "000000000000000000000000000000000000000000000033bbeb7894373352da",
  "previousblockhash": "b56e4a284153216ebd747136a088a969e3a239149c52a75a3448c419d4bab778",
  "nextblockhash": "973f73e241748322b04a8ac44b9ebac8841135c6dedfb8de9868772b4f4a34e9"
}
