{
  "hash": "0f39a1b8bbc82065067ab417e332e66d7936440089f068d43e91ee8668ec2dcc",
  "confirmations": 1941,
  "strippedsize": 253,
  "size": 253,
  "weight": 1012,
  "height": 1359053,
  "version": 536870912,
  "versionHex": "20000000",
  "merkleroot": "4a184af383f192854ccd14739d366edcfe65769424801e22c443e6a5dffbf1f8",
  "tx": [
    {
      "txid": "4a184af383f192854ccd14739d366edcfe65769424801e22c443e6a5dffbf1f8",
      "hash": "4a184af383f192854ccd14739d366edcfe65769424801e22c443e6a5dffbf1f8",
      "version": 1,
      "size": 172,
      "vsize": 172,
      "locktime": 0,
      "vin": [
        {
          "coinbase": "03cdbc141a4d696e656420627920416e74506f6f6c20626a3532205a6f175afabe6d6d3bca0970883b6911e65cf72570178df61037ceb36d8f1970615d1481eabd1c900400000000000000c2230000000000000f000000",
          "sequence": 4294967295
        }
      ],
      "vout": [
        {
          "value": 25.00000000,
          "n": 0,
          "scriptPubKey": {
            "asm": "OP_DUP OP_HASH160 0ff3ccc5e8be88afe24b5d634e5852d474dbdff1 OP_EQUALVERIFY OP_CHECKSIG",
            "hex": "76a9140ff3ccc5e8be88afe24b5d634e5852d474dbdff188ac",
            "reqSigs": 1,
            "type": "pubkeyhash",
            "addresses": [
              "LLgJTbzZMsRTCUF1NtvvL9SR1a4pVieW89"
            ]
          }
        }
      ],
      "hex": "01000000010000000000000000000000000000000000000000000000000000000000000000ffffffff5703cdbc141a4d696e656420627920416e74506f6f6c20626a3532205a6f175afabe6d6d3bca0970883b6911e65cf72570178df61037ceb36d8f1970615d1481eabd1c900400000000000000c2230000000000000f000000ffffffff0100f90295000000001976a9140ff3ccc5e8be88afe24b5d634e5852d474dbdff188ac00000000"
    }
  ],
  "time": 1517229914,
  "mediantime": 1517229715,
  "nonce": 200128135,
  "bits": "1a042eae",
  "difficulty": 4011378.762614286,
  "chainwork": "000000000000000000000000000000000000000000000033a5348c46d81e6b9c",
  "previousblockhash": "859cc5ccca135119b2f66b86ffd221f497d8de4934fe05c4ba5ac3078fe7537b",
  "nextblockhash": "73047b00d58ef53bdf2898996269f11b2a5cdb0be09d7a948c11678f881ee7ce"
}
