{
  "hash": "0f834a4f53fc186cef73578c6b9e6c338adbebe0a9318d99278bb5eb2314dc26",
  "confirmations": 1656,
  "strippedsize": 234,
  "size": 234,
  "weight": 936,
  "height": 1359338,
  "version": 536870912,
  "versionHex": "20000000",
  "merkleroot": "e65179b14da78ed1b726fee39d362d39cb290abc021ed930ab789ccd6d2dfc12",
  "tx": [
    {
      "txid": "e65179b14da78ed1b726fee39d362d39cb290abc021ed930ab789ccd6d2dfc12",
      "hash": "e65179b14da78ed1b726fee39d362d39cb290abc021ed930ab789ccd6d2dfc12",
      "version": 1,
      "size": 153,
      "vsize": 153,
      "locktime": 0,
      "vin": [
        {
          "coinbase": "03eabd14045a6fb05b2cfabe6d6da756f26c2497659abf226b3ac5d11548fa895bcdd3e9b1db9918dc3efea288b74000000000000000042f4c502f081600a5f21a000000",
          "sequence": 4294967295
        }
      ],
      "vout": [
        {
          "value": 25.00000000,
          "n": 0,
          "scriptPubKey": {
            "asm": "OP_DUP OP_HASH160 57757ed2ecf2052ff3126c397aca7defb9ca2cec OP_EQUALVERIFY OP_CHECKSIG",
            "hex": "76a91457757ed2ecf2052ff3126c397aca7defb9ca2cec88ac",
            "reqSigs": 1,
            "type": "pubkeyhash",
            "addresses": [
              "LTCPodGk5FwcJaRzH9yKnwicxzFUbxp6tN"
            ]
          }
        }
      ],
      "hex": "01000000010000000000000000000000000000000000000000000000000000000000000000ffffffff4403eabd14045a6fb05b2cfabe6d6da756f26c2497659abf226b3ac5d11548fa895bcdd3e9b1db9918dc3efea288b74000000000000000042f4c502f081600a5f21a000000ffffffff0100f90295000000001976a91457757ed2ecf2052ff3126c397aca7defb9ca2cec88ac00000000"
    }
  ],
  "time": 1517269083,
  "mediantime": 1517268965,
  "nonce": 4180664980,
  "bits": "1a042eae",
  "difficulty": 4011378.762614286,
  "chainwork": "000000000000000000000000000000000000000000000033e959512ef55d2156",
  "previousblockhash": "716feb1f0047ea707ce757d0914ad3f50941f1faca836e154e15f012e7bbe860",
  "nextblockhash": "fc0ca68c7ae26cb32305949be826ff82c81c7edf044d9ba435975452e1585a73"
}
