{
  "hash": "0f876aa53d3d4d05d8bb3613750c92b1ca3bd020ed46c20324c8422fdc6b2a71",
  "confirmations": 2515,
  "strippedsize": 721,
  "size": 757,
  "weight": 2920,
  "height": 1358480,
  "version": 536870912,
  "versionHex": "20000000",
  "merkleroot": "3d8ebf769290aa970c0e9bca5409f10b819abd9404235096209d23033aa58ea5",
  "tx": [
    {
      "txid": "4a5a0e67f202d22ebc96e0a17c926aaa2be8bc57e9d9f97b7729b549e938e460",
      "hash": "ad58795236631a6a05d82d6b2ce0629a88964f192243f16ba4bb7a078c3ae1ed",
      "version": 1,
      "size": 260,
      "vsize": 233,
      "locktime": 0,
      "vin": [
        {
          "coinbase": "0390ba14192f5669614254432f4d696e6564206279206661726e68616d2f2cfabe6d6dd0cf278866c2686086c6d3b82f9e2abd2a3d0ba6a5114a14ffc3dadf7621e3eb010000000000000010e568cd002474dbcbb9ed3dce01000000",
          "sequence": 4294967295
        }
      ],
      "vout": [
        {
          "value": 25.00122600,
          "n": 0,
          "scriptPubKey": {
            "asm": "OP_DUP OP_HASH160 e16c28146ed4869c190b3f0bdc18d80d45f92134 OP_EQUALVERIFY OP_CHECKSIG",
            "hex": "76a914e16c28146ed4869c190b3f0bdc18d80d45f9213488ac",
            "reqSigs": 1,
            "type": "pubkeyhash",
            "addresses": [
              "LfmssDyX6iZvbVqHv6t9P6JWXia2JG7mdb"
            ]
          }
        }, 
        {
          "value": 0.00000000,
          "n": 1,
          "scriptPubKey": {
            "asm": "OP_RETURN aa21a9ed9686c810c42358873cf9542b98a08fa7fc55623d5f6d0ac6dca486e0d63d5b16",
            "hex": "6a24aa21a9ed9686c810c42358873cf9542b98a08fa7fc55623d5f6d0ac6dca486e0d63d5b16",
            "type": "nulldata"
          }
        }
      ],
      "hex": "010000000001010000000000000000000000000000000000000000000000000000000000000000ffffffff5c0390ba14192f5669614254432f4d696e6564206279206661726e68616d2f2cfabe6d6dd0cf278866c2686086c6d3b82f9e2abd2a3d0ba6a5114a14ffc3dadf7621e3eb010000000000000010e568cd002474dbcbb9ed3dce01000000ffffffff02e8d70495000000001976a914e16c28146ed4869c190b3f0bdc18d80d45f9213488ac0000000000000000266a24aa21a9ed9686c810c42358873cf9542b98a08fa7fc55623d5f6d0ac6dca486e0d63d5b160120000000000000000000000000000000000000000000000000000000000000000000000000"
    }, 
    {
      "txid": "c5d53d050d83f986a09f3c86867c6a572104947883fd2ca301b4bda99487d960",
      "hash": "c5d53d050d83f986a09f3c86867c6a572104947883fd2ca301b4bda99487d960",
      "version": 1,
      "size": 191,
      "vsize": 191,
      "locktime": 0,
      "vin": [
        {
          "txid": "d8e9d7b92f42dd33b5d5da6495fbcce78652ff1c6a787952f062bbe18fe121ae",
          "vout": 0,
          "scriptSig": {
            "asm": "304402204eea77791e37c84614202600ab2e0c61e89004f5e24a1c76a95b716e88e90e0e02207c2dd6754a95bb338727faa8d9e111584d57b7aced1f6fe45259d2dac895626e[ALL] 0297c90e7cf61a8325b5c48f7390e10389dd259eeb1449b0e1d4519cc4fde6d917",
            "hex": "47304402204eea77791e37c84614202600ab2e0c61e89004f5e24a1c76a95b716e88e90e0e02207c2dd6754a95bb338727faa8d9e111584d57b7aced1f6fe45259d2dac895626e01210297c90e7cf61a8325b5c48f7390e10389dd259eeb1449b0e1d4519cc4fde6d917"
          },
          "sequence": 4294967295
        }
      ],
      "vout": [
        {
          "value": 2.25347293,
          "n": 0,
          "scriptPubKey": {
            "asm": "OP_DUP OP_HASH160 b81dd280e3cf6df854cd79cbb57b5e42567594a1 OP_EQUALVERIFY OP_CHECKSIG",
            "hex": "76a914b81dd280e3cf6df854cd79cbb57b5e42567594a188ac",
            "reqSigs": 1,
            "type": "pubkeyhash",
            "addresses": [
              "Lc1UKbeFHN7hLJVgbUMJD3EWPanKPuQfPB"
            ]
          }
        }
      ],
      "hex": "0100000001ae21e18fe1bb62f05279786a1cff5286e7ccfb9564dad5b533dd422fb9d7e9d8000000006a47304402204eea77791e37c84614202600ab2e0c61e89004f5e24a1c76a95b716e88e90e0e02207c2dd6754a95bb338727faa8d9e111584d57b7aced1f6fe45259d2dac895626e01210297c90e7cf61a8325b5c48f7390e10389dd259eeb1449b0e1d4519cc4fde6d917ffffffff01dd866e0d000000001976a914b81dd280e3cf6df854cd79cbb57b5e42567594a188ac00000000"
    }, 
    {
      "txid": "010c2d3a54f08f6c292960fc11284ed03608b6e354be3bbb43a82a6fee1cff83",
      "hash": "010c2d3a54f08f6c292960fc11284ed03608b6e354be3bbb43a82a6fee1cff83",
      "version": 2,
      "size": 225,
      "vsize": 225,
      "locktime": 1358477,
      "vin": [
        {
          "txid": "eab9df7ad0f22e486cd10221c340cf7a9418ff640f003d3d7f03d32b4443eaf0",
          "vout": 23,
          "scriptSig": {
            "asm": "30440220199931108fc970ceb6b17154e37e8b05922d873edecca06d2d24b0e332c700ea0220011a41996e9fb2513f6aee61089d54d43fffbe54f15fb4cde4fbf2bd07e266fc[ALL] 03d785d2ee6e425353b6d8e3e4a7609d242101014e69abd7a682d18d357f9c0d02",
            "hex": "4730440220199931108fc970ceb6b17154e37e8b05922d873edecca06d2d24b0e332c700ea0220011a41996e9fb2513f6aee61089d54d43fffbe54f15fb4cde4fbf2bd07e266fc012103d785d2ee6e425353b6d8e3e4a7609d242101014e69abd7a682d18d357f9c0d02"
          },
          "sequence": 4294967294
        }
      ],
      "vout": [
        {
          "value": 0.08202868,
          "n": 0,
          "scriptPubKey": {
            "asm": "OP_DUP OP_HASH160 b81d2b24aa64cdc03e39f627c9b374367fe5de3e OP_EQUALVERIFY OP_CHECKSIG",
            "hex": "76a914b81d2b24aa64cdc03e39f627c9b374367fe5de3e88ac",
            "reqSigs": 1,
            "type": "pubkeyhash",
            "addresses": [
              "Lc1TYB5t37x9BYztSCwPxx85RBGKoAX8p6"
            ]
          }
        }, 
        {
          "value": 0.00977909,
          "n": 1,
          "scriptPubKey": {
            "asm": "OP_DUP OP_HASH160 7eba7bed1770298b0eeddc0ea89915bdb7f17d4b OP_EQUALVERIFY OP_CHECKSIG",
            "hex": "76a9147eba7bed1770298b0eeddc0ea89915bdb7f17d4b88ac",
            "reqSigs": 1,
            "type": "pubkeyhash",
            "addresses": [
              "LWn2oXQnYxtJ1TnXWHCMkdHFNbSzm9YgUN"
            ]
          }
        }
      ],
      "hex": "0200000001f0ea43442bd3037f3d3d000f64ff18947acf40c32102d16c482ef2d07adfb9ea170000006a4730440220199931108fc970ceb6b17154e37e8b05922d873edecca06d2d24b0e332c700ea0220011a41996e9fb2513f6aee61089d54d43fffbe54f15fb4cde4fbf2bd07e266fc012103d785d2ee6e425353b6d8e3e4a7609d242101014e69abd7a682d18d357f9c0d02feffffff02742a7d00000000001976a914b81d2b24aa64cdc03e39f627c9b374367fe5de3e88acf5eb0e00000000001976a9147eba7bed1770298b0eeddc0ea89915bdb7f17d4b88ac8dba1400"
    }
  ],
  "time": 1517148568,
  "mediantime": 1517148202,
  "nonce": 210187165,
  "bits": "1a047f14",
  "difficulty": 3731199.183374282,
  "chainwork": "0000000000000000000000000000000000000000000000332142c9429d3a01ba",
  "previousblockhash": "4620770b3e6d1d7e0ad4e126cdd205f34019b004b9e16fdf3323cf4123a33b35",
  "nextblockhash": "0fb5e282f283252e4d2de2a44102590ca9111684987ff22f4f127fc87deced40"
}
