{
  "hash": "0fb5e282f283252e4d2de2a44102590ca9111684987ff22f4f127fc87deced40",
  "confirmations": 2514,
  "strippedsize": 1321,
  "size": 1357,
  "weight": 5320,
  "height": 1358481,
  "version": 536870912,
  "versionHex": "20000000",
  "merkleroot": "0afac5a7779452f6e0e80bbac902ae9e4fe579d3fecdeed9a1bbc9488ca30ad4",
  "tx": [
    {
      "txid": "5a7a79286ddba5ae3d107e94543a804af326e40b63273bb9189516c4e83adf73",
      "hash": "0c343bad13933191b706fb4ab1095df7d88cb54e048e32dacb2b100c8cc333bb",
      "version": 1,
      "size": 253,
      "vsize": 226,
      "locktime": 0,
      "vin": [
        {
          "coinbase": "0391ba1441d69b766915e14441d69b7668efbc4c2f4c54432e544f502ffabe6d6d696a34a891723ab5991e3450ae66278c750483335adca35a526871908e690333010000000000000065330eaa0100000000000000",
          "sequence": 4294967295
        }
      ],
      "vout": [
        {
          "value": 25.00459900,
          "n": 0,
          "scriptPubKey": {
            "asm": "OP_DUP OP_HASH160 0c617fdb2ea42aed30a509595ee21ba3f6688db0 OP_EQUALVERIFY OP_CHECKSIG",
            "hex": "76a9140c617fdb2ea42aed30a509595ee21ba3f6688db088ac",
            "reqSigs": 1,
            "type": "pubkeyhash",
            "addresses": [
              "LLMRAtr3qBje2ySEa3CnZ55LA4TQMWnRY3"
            ]
          }
        }, 
        {
          "value": 0.00000000,
          "n": 1,
          "scriptPubKey": {
            "asm": "OP_RETURN aa21a9ed40469e7ecacc7ea49f1bdbadf6c15af19b04ac74e23c66d0abe8cdd8a0682077",
            "hex": "6a24aa21a9ed40469e7ecacc7ea49f1bdbadf6c15af19b04ac74e23c66d0abe8cdd8a0682077",
            "type": "nulldata"
          }
        }
      ],
      "hex": "010000000001010000000000000000000000000000000000000000000000000000000000000000ffffffff550391ba1441d69b766915e14441d69b7668efbc4c2f4c54432e544f502ffabe6d6d696a34a891723ab5991e3450ae66278c750483335adca35a526871908e690333010000000000000065330eaa0100000000000000ffffffff027cfd0995000000001976a9140c617fdb2ea42aed30a509595ee21ba3f6688db088ac0000000000000000266a24aa21a9ed40469e7ecacc7ea49f1bdbadf6c15af19b04ac74e23c66d0abe8cdd8a06820770120000000000000000000000000000000000000000000000000000000000000000000000000"
    }, 
    {
      "txid": "0452d912aeab9be05e9b2d66eda4b9dfcd98cf910fb39675bf9d610b03fa647b",
      "hash": "0452d912aeab9be05e9b2d66eda4b9dfcd98cf910fb39675bf9d610b03fa647b",
      "version": 1,
      "size": 192,
      "vsize": 192,
      "locktime": 0,
      "vin": [
        {
          "txid": "7571a9ef27a04c5ca8cad30487ea7435db1775054fa3f08aaf97ec9452240683",
          "vout": 0,
          "scriptSig": {
            "asm": "3045022100c7f81dda45732991010478ba2cf896911944756a07f95e6a18a4ea49450307ab02201530ed4da4468b31634d217b25bbdc31fbda5cfd932123f7e9d2e7891d4acfd8[ALL] 034e94f4c9ea90b26f63592a8491e579e9a82628ec9ee6addbd2ba2041ecf12d1b",
            "hex": "483045022100c7f81dda45732991010478ba2cf896911944756a07f95e6a18a4ea49450307ab02201530ed4da4468b31634d217b25bbdc31fbda5cfd932123f7e9d2e7891d4acfd80121034e94f4c9ea90b26f63592a8491e579e9a82628ec9ee6addbd2ba2041ecf12d1b"
          },
          "sequence": 4294967295
        }
      ],
      "vout": [
        {
          "value": 0.99785300,
          "n": 0,
          "scriptPubKey": {
            "asm": "OP_DUP OP_HASH160 b3887ab3d32e99258cecd06198b4a7fe21e4a4bb OP_EQUALVERIFY OP_CHECKSIG",
            "hex": "76a914b3887ab3d32e99258cecd06198b4a7fe21e4a4bb88ac",
            "reqSigs": 1,
            "type": "pubkeyhash",
            "addresses": [
              "LbbEiJJTtTLACnL1XmcnSRqowUfCkH3n3j"
            ]
          }
        }
      ],
      "hex": "01000000018306245294ec97af8af0a34f057517db3574ea8704d3caa85c4ca027efa97175000000006b483045022100c7f81dda45732991010478ba2cf896911944756a07f95e6a18a4ea49450307ab02201530ed4da4468b31634d217b25bbdc31fbda5cfd932123f7e9d2e7891d4acfd80121034e94f4c9ea90b26f63592a8491e579e9a82628ec9ee6addbd2ba2041ecf12d1bffffffff01549af205000000001976a914b3887ab3d32e99258cecd06198b4a7fe21e4a4bb88ac00000000"
    }, 
    {
      "txid": "2d6ad69e7458cbbd43878c63a32149f3c05c56abddf483326e0d10a2524afd50",
      "hash": "2d6ad69e7458cbbd43878c63a32149f3c05c56abddf483326e0d10a2524afd50",
      "version": 1,
      "size": 189,
      "vsize": 189,
      "locktime": 0,
      "vin": [
        {
          "txid": "c03d22ec41f51246098f60c2d87ca722e1c59d79f027b896ee01c71ed6ba6e09",
          "vout": 1,
          "scriptSig": {
            "asm": "304402205c2b051786d5c8c89e776de24c471cdf2fc1d441435ae963d1a3e52ff3d044d902204b1b7211ab11cd0caffa1ed0ba12c8f9b69a74281af0d44239af02072707fcac[ALL] 0298673f20c915a026c1d5e79d3ff62df545ef17074d10948990e289ab083d9cc9",
            "hex": "47304402205c2b051786d5c8c89e776de24c471cdf2fc1d441435ae963d1a3e52ff3d044d902204b1b7211ab11cd0caffa1ed0ba12c8f9b69a74281af0d44239af02072707fcac01210298673f20c915a026c1d5e79d3ff62df545ef17074d10948990e289ab083d9cc9"
          },
          "sequence": 4294967295
        }
      ],
      "vout": [
        {
          "value": 0.43076481,
          "n": 0,
          "scriptPubKey": {
            "asm": "OP_HASH160 b22d30fa31473aae3194c32704c1469de746a83d OP_EQUAL",
            "hex": "a914b22d30fa31473aae3194c32704c1469de746a83d87",
            "reqSigs": 1,
            "type": "scripthash",
            "addresses": [
              "MQ9GeXLK7dtSCM1DNa2V1tJ5y5idU6iAKU"
            ]
          }
        }
      ],
      "hex": "0100000001096ebad61ec701ee96b827f0799dc5e122a77cd8c2608f094612f541ec223dc0010000006a47304402205c2b051786d5c8c89e776de24c471cdf2fc1d441435ae963d1a3e52ff3d044d902204b1b7211ab11cd0caffa1ed0ba12c8f9b69a74281af0d44239af02072707fcac01210298673f20c915a026c1d5e79d3ff62df545ef17074d10948990e289ab083d9cc9ffffffff01814b91020000000017a914b22d30fa31473aae3194c32704c1469de746a83d8700000000"
    }, 
    {
      "txid": "55c76c33f3e9944e461003c3e553371a5ff90434b30171757a0e7fcd1e6bd93f",
      "hash": "55c76c33f3e9944e461003c3e553371a5ff90434b30171757a0e7fcd1e6bd93f",
      "version": 1,
      "size": 192,
      "vsize": 192,
      "locktime": 0,
      "vin": [
        {
          "txid": "918ada03641637db1a8a0d24b7768128ad1242b3b8245bdb6fc0560916a25d38",
          "vout": 1,
          "scriptSig": {
            "asm": "30450221008b3a1b92cf582d7d3388b8f6964565919d97bdb8ff91144743537adf508c58b202200734e6d11b1f4794e23737ebf1bbe68de61bb4c06aa0e4580b0f14d782d24cca[ALL] 02811b88e6f698b3162b71934e54bf0185a3845d070c46410b0abeb1c60ed20620",
            "hex": "4830450221008b3a1b92cf582d7d3388b8f6964565919d97bdb8ff91144743537adf508c58b202200734e6d11b1f4794e23737ebf1bbe68de61bb4c06aa0e4580b0f14d782d24cca012102811b88e6f698b3162b71934e54bf0185a3845d070c46410b0abeb1c60ed20620"
          },
          "sequence": 4294967295
        }
      ],
      "vout": [
        {
          "value": 2.16637139,
          "n": 0,
          "scriptPubKey": {
            "asm": "OP_DUP OP_HASH160 60b0aa286bbfcd08f82e9460c0175b027b8785ee OP_EQUALVERIFY OP_CHECKSIG",
            "hex": "76a91460b0aa286bbfcd08f82e9460c0175b027b8785ee88ac",
            "reqSigs": 1,
            "type": "pubkeyhash",
            "addresses": [
              "LU3CmWHub8B21d2t7HipiTFfJNw7At1qcY"
            ]
          }
        }
      ],
      "hex": "0100000001385da2160956c06fdb5b24b8b34212ad288176b7240d8a1adb37166403da8a91010000006b4830450221008b3a1b92cf582d7d3388b8f6964565919d97bdb8ff91144743537adf508c58b202200734e6d11b1f4794e23737ebf1bbe68de61bb4c06aa0e4580b0f14d782d24cca012102811b88e6f698b3162b71934e54bf0185a3845d070c46410b0abeb1c60ed20620ffffffff01d39ee90c000000001976a91460b0aa286bbfcd08f82e9460c0175b027b8785ee88ac00000000"
    }, 
    {
      "txid": "9962899f728d48f4aa2779198b325c4594068df36b13826677bacfd9e30c8354",
      "hash": "9962899f728d48f4aa2779198b325c4594068df36b13826677bacfd9e30c8354",
      "version": 1,
      "size": 225,
      "vsize": 225,
      "locktime": 0,
      "vin": [
        {
          "txid": "ea951c6df154040201a0c15f8ebaed49ab0bccacf1266a3442a1b29c734d9779",
          "vout": 0,
          "scriptSig": {
            "asm": "30440220395da2f7b3e3b3bf79d2e1c22fb95409cd4bc3f899087e1e082b99aaaa8d68360220626ba15132bb8d3493bcd5eeb5fe98a1ba23603e830a39fa9c84b7cbaa34f5b3[ALL] 02145770345bce8a70450610e7859820f453d3e8f44b463e5afc891c5054075c45",
            "hex": "4730440220395da2f7b3e3b3bf79d2e1c22fb95409cd4bc3f899087e1e082b99aaaa8d68360220626ba15132bb8d3493bcd5eeb5fe98a1ba23603e830a39fa9c84b7cbaa34f5b3012102145770345bce8a70450610e7859820f453d3e8f44b463e5afc891c5054075c45"
          },
          "sequence": 4294967295
        }
      ],
      "vout": [
        {
          "value": 6.15488428,
          "n": 0,
          "scriptPubKey": {
            "asm": "OP_DUP OP_HASH160 fe94bb5d352a7b378be4c6f321d72044599db583 OP_EQUALVERIFY OP_CHECKSIG",
            "hex": "76a914fe94bb5d352a7b378be4c6f321d72044599db58388ac",
            "reqSigs": 1,
            "type": "pubkeyhash",
            "addresses": [
              "LiS451auCNxoxjLXT92SofxwS73m5djU91"
            ]
          }
        }, 
        {
          "value": 0.88481170,
          "n": 1,
          "scriptPubKey": {
            "asm": "OP_DUP OP_HASH160 7b58ad0a4c885eb97ffeadddaed025b5e6574e6a OP_EQUALVERIFY OP_CHECKSIG",
            "hex": "76a9147b58ad0a4c885eb97ffeadddaed025b5e6574e6a88ac",
            "reqSigs": 1,
            "type": "pubkeyhash",
            "addresses": [
              "LWU9c7wBFsopHMibpx3uXUG6RfGMuajzpA"
            ]
          }
        }
      ],
      "hex": "010000000179974d739cb2a142346a26f1accc0bab49edba8e5fc1a001020454f16d1c95ea000000006a4730440220395da2f7b3e3b3bf79d2e1c22fb95409cd4bc3f899087e1e082b99aaaa8d68360220626ba15132bb8d3493bcd5eeb5fe98a1ba23603e830a39fa9c84b7cbaa34f5b3012102145770345bce8a70450610e7859820f453d3e8f44b463e5afc891c5054075c45ffffffff02ac9baf24000000001976a914fe94bb5d352a7b378be4c6f321d72044599db58388ac921d4605000000001976a9147b58ad0a4c885eb97ffeadddaed025b5e6574e6a88ac00000000"
    }, 
    {
      "txid": "502dc047e51e673a49dcba3596103dfc14303ee1e04aa300e1dd78c7a5db7fa2",
      "hash": "502dc047e51e673a49dcba3596103dfc14303ee1e04aa300e1dd78c7a5db7fa2",
      "version": 1,
      "size": 225,
      "vsize": 225,
      "locktime": 0,
      "vin": [
        {
          "txid": "aef40dd1887c4e82dd17f65a8910f18f980294b98cac2ef59f7dfc6b0816870d",
          "vout": 0,
          "scriptSig": {
            "asm": "3044022045e071ea4b4b959cda4e9acb738014bb660187c9b459258793016dd9c4c6dd5202206233c7774ae6c8d871afe6f0591941b7969fcea54dedc97682d766cc244e7565[ALL] 023657462583aff3b179d57f3ae94c1d66d797479937a7b808b48f42df03612293",
            "hex": "473044022045e071ea4b4b959cda4e9acb738014bb660187c9b459258793016dd9c4c6dd5202206233c7774ae6c8d871afe6f0591941b7969fcea54dedc97682d766cc244e75650121023657462583aff3b179d57f3ae94c1d66d797479937a7b808b48f42df03612293"
          },
          "sequence": 4294967295
        }
      ],
      "vout": [
        {
          "value": 59.38180400,
          "n": 0,
          "scriptPubKey": {
            "asm": "OP_DUP OP_HASH160 b8065ca9970408f718d0b80522d2d149a58ab499 OP_EQUALVERIFY OP_CHECKSIG",
            "hex": "76a914b8065ca9970408f718d0b80522d2d149a58ab49988ac",
            "reqSigs": 1,
            "type": "pubkeyhash",
            "addresses": [
              "LbzzDYfTPJwbKQYV9mfWt8uPRFb3XVMcRy"
            ]
          }
        }, 
        {
          "value": 0.93704119,
          "n": 1,
          "scriptPubKey": {
            "asm": "OP_DUP OP_HASH160 68d2bb92a234374aba40dc3f2ed4aca7e379a4bb OP_EQUALVERIFY OP_CHECKSIG",
            "hex": "76a91468d2bb92a234374aba40dc3f2ed4aca7e379a4bb88ac",
            "reqSigs": 1,
            "type": "pubkeyhash",
            "addresses": [
              "LUnCz8QWVGcuc2J6MHi3fkLHdmRWyuM5HC"
            ]
          }
        }
      ],
      "hex": "01000000010d8716086bfc7d9ff52eac8cb99402988ff110895af617dd824e7c88d10df4ae000000006a473044022045e071ea4b4b959cda4e9acb738014bb660187c9b459258793016dd9c4c6dd5202206233c7774ae6c8d871afe6f0591941b7969fcea54dedc97682d766cc244e75650121023657462583aff3b179d57f3ae94c1d66d797479937a7b808b48f42df03612293ffffffff023071f161010000001976a914b8065ca9970408f718d0b80522d2d149a58ab49988acb7cf9505000000001976a91468d2bb92a234374aba40dc3f2ed4aca7e379a4bb88ac00000000"
    }
  ],
  "time": 1517148579,
  "mediantime": 1517148293,
  "nonce": 3535455412,
  "bits": "1a047f14",
  "difficulty": 3731199.183374282,
  "chainwork": "000000000000000000000000000000000000000000000033217bb87abb63bdd4",
  "previousblockhash": "0f876aa53d3d4d05d8bb3613750c92b1ca3bd020ed46c20324c8422fdc6b2a71",
  "nextblockhash": "850971b2bd777c6c430c15f96187415b5dfa6e7fb7d2854353e671b8904d4321"
}
