{
  "hash": "103e7246493e29602148e6f092c0c821cc31983d986f914f808bfd507398b444",
  "confirmations": 586,
  "strippedsize": 253,
  "size": 253,
  "weight": 1012,
  "height": 1360408,
  "version": 536870912,
  "versionHex": "20000000",
  "merkleroot": "65854c35ded138e2922488344001076a8f60ecc7aa872c3a69b2171c953ae55e",
  "tx": [
    {
      "txid": "65854c35ded138e2922488344001076a8f60ecc7aa872c3a69b2171c953ae55e",
      "hash": "65854c35ded138e2922488344001076a8f60ecc7aa872c3a69b2171c953ae55e",
      "version": 1,
      "size": 172,
      "vsize": 172,
      "locktime": 0,
      "vin": [
        {
          "coinbase": "0318c2141a4d696e656420627920416e74506f6f6c20626a3532205a721636fabe6d6dbcdce696fb62f93a1397be634cdf4daa18de3561361d775b696492b47928ac7d04000000000000003d0800000000000028000000",
          "sequence": 4294967295
        }
      ],
      "vout": [
        {
          "value": 25.00000000,
          "n": 0,
          "scriptPubKey": {
            "asm": "OP_DUP OP_HASH160 0ff3ccc5e8be88afe24b5d634e5852d474dbdff1 OP_EQUALVERIFY OP_CHECKSIG",
            "hex": "76a9140ff3ccc5e8be88afe24b5d634e5852d474dbdff188ac",
            "reqSigs": 1,
            "type": "pubkeyhash",
            "addresses": [
              "LLgJTbzZMsRTCUF1NtvvL9SR1a4pVieW89"
            ]
          }
        }
      ],
      "hex": "01000000010000000000000000000000000000000000000000000000000000000000000000ffffffff570318c2141a4d696e656420627920416e74506f6f6c20626a3532205a721636fabe6d6dbcdce696fb62f93a1397be634cdf4daa18de3561361d775b696492b47928ac7d04000000000000003d0800000000000028000000ffffffff0100f90295000000001976a9140ff3ccc5e8be88afe24b5d634e5852d474dbdff188ac00000000"
    }
  ],
  "time": 1517426230,
  "mediantime": 1517425735,
  "nonce": 250569287,
  "bits": "1a042eae",
  "difficulty": 4011378.762614286,
  "chainwork": "000000000000000000000000000000000000000000000034e92fb6b15a2d9eb2",
  "previousblockhash": "e0876c85c026381e25e14dd121d9b5a462b4f40dcb314a9716635039ff0e1bc5",
  "nextblockhash": "e4e78b2394526c99578704e09a87be11ffc91c8a4a7ec2e73e84f0c04aa976f8"
}
