{
  "hash": "105a98d224b0db9f3b92aa5db2dec2c353bdb66e803a9dd0c04574108fd5625f",
  "confirmations": 105,
  "strippedsize": 2124,
  "size": 2380,
  "weight": 8752,
  "height": 1360889,
  "version": 536870912,
  "versionHex": "20000000",
  "merkleroot": "d0554bbefbee2bacffce8411d8bbbdeccb2596ca51f808e495a66d07dbb6b422",
  "tx": [
    {
      "txid": "06724699ec82efc570833f488cc0c21138586eebee5bf6898d172e833146e49e",
      "hash": "1822c3c4debc28e0335a44d0034c4912d8000ba5f3f8ab741bbb2016455bb4e8",
      "version": 1,
      "size": 236,
      "vsize": 209,
      "locktime": 0,
      "vin": [
        {
          "coinbase": "03f9c314045a7320642cfabe6d6d4c30dd08c5bcecc5eef6f9057ebbdf5128f62d0e63aed7a6a9f949f9ce762af64000000000000000042f4c502f0822003fc026000000",
          "sequence": 4294967295
        }
      ],
      "vout": [
        {
          "value": 25.00464242,
          "n": 0,
          "scriptPubKey": {
            "asm": "OP_DUP OP_HASH160 57757ed2ecf2052ff3126c397aca7defb9ca2cec OP_EQUALVERIFY OP_CHECKSIG",
            "hex": "76a91457757ed2ecf2052ff3126c397aca7defb9ca2cec88ac",
            "reqSigs": 1,
            "type": "pubkeyhash",
            "addresses": [
              "LTCPodGk5FwcJaRzH9yKnwicxzFUbxp6tN"
            ]
          }
        }, 
        {
          "value": 0.00000000,
          "n": 1,
          "scriptPubKey": {
            "asm": "OP_RETURN aa21a9ed4b057b651d1c0991a49631a6b31f64bcad4979bbe5c178814e3c367bca8cd617",
            "hex": "6a24aa21a9ed4b057b651d1c0991a49631a6b31f64bcad4979bbe5c178814e3c367bca8cd617",
            "type": "nulldata"
          }
        }
      ],
      "hex": "010000000001010000000000000000000000000000000000000000000000000000000000000000ffffffff4403f9c314045a7320642cfabe6d6d4c30dd08c5bcecc5eef6f9057ebbdf5128f62d0e63aed7a6a9f949f9ce762af64000000000000000042f4c502f0822003fc026000000ffffffff02720e0a95000000001976a91457757ed2ecf2052ff3126c397aca7defb9ca2cec88ac0000000000000000266a24aa21a9ed4b057b651d1c0991a49631a6b31f64bcad4979bbe5c178814e3c367bca8cd6170120000000000000000000000000000000000000000000000000000000000000000000000000"
    }, 
    {
      "txid": "4cc814f8122de0ca0c9d2df261dac793b5184e7731d312f154fffcab824abda1",
      "hash": "4cc814f8122de0ca0c9d2df261dac793b5184e7731d312f154fffcab824abda1",
      "version": 1,
      "size": 192,
      "vsize": 192,
      "locktime": 0,
      "vin": [
        {
          "txid": "b8d4c6e3b612449cba51b4bfb3d39bc40780aaebeba87c083b01627972f9a7b6",
          "vout": 1,
          "scriptSig": {
            "asm": "3045022100adfb0706a9e73086aab73400cf1c43fd04388e3274f235c370714195c6548a2702206525373f5400b198026ce8789a66f4358b6b4e70487482a08f9c5eb7bab9ac59[ALL] 02506b1f379e0328365aa937b68b20cab9c6ed38624268b6da01c18e091a0e134b",
            "hex": "483045022100adfb0706a9e73086aab73400cf1c43fd04388e3274f235c370714195c6548a2702206525373f5400b198026ce8789a66f4358b6b4e70487482a08f9c5eb7bab9ac59012102506b1f379e0328365aa937b68b20cab9c6ed38624268b6da01c18e091a0e134b"
          },
          "sequence": 4294967295
        }
      ],
      "vout": [
        {
          "value": 0.24677950,
          "n": 0,
          "scriptPubKey": {
            "asm": "OP_DUP OP_HASH160 568ff0aa92ed727be954ac073e433ef29d9864bd OP_EQUALVERIFY OP_CHECKSIG",
            "hex": "76a914568ff0aa92ed727be954ac073e433ef29d9864bd88ac",
            "reqSigs": 1,
            "type": "pubkeyhash",
            "addresses": [
              "LT7eoquoiMdbuKHa2H1f5h994CAXCBqdQz"
            ]
          }
        }
      ],
      "hex": "0100000001b6a7f9727962013b087ca8ebebaa8007c49bd3b3bfb451ba9c4412b6e3c6d4b8010000006b483045022100adfb0706a9e73086aab73400cf1c43fd04388e3274f235c370714195c6548a2702206525373f5400b198026ce8789a66f4358b6b4e70487482a08f9c5eb7bab9ac59012102506b1f379e0328365aa937b68b20cab9c6ed38624268b6da01c18e091a0e134bffffffff013e8e7801000000001976a914568ff0aa92ed727be954ac073e433ef29d9864bd88ac00000000"
    }, 
    {
      "txid": "f88ada3c0b9b573c80533b82fce844b8a1f7a484029133771e62ceacc202e93f",
      "hash": "f88ada3c0b9b573c80533b82fce844b8a1f7a484029133771e62ceacc202e93f",
      "version": 1,
      "size": 373,
      "vsize": 373,
      "locktime": 0,
      "vin": [
        {
          "txid": "46f72bead5adaabf8bdf8c2ff5fcd0d3acd8226955c10e0c864b881efbf205a6",
          "vout": 0,
          "scriptSig": {
            "asm": "30440220038c08d7f876c501a57ae580e996a2df4c163c7dcff70dd4ab9379c35592455d022001c8473dc7520817397b446e7b0e20e6c2a1ec76395f9f044b366020fc98e0f3[ALL] 022b1f6e281e02fc58320cb955839cd780d3847f1d68a87c7b90134724503ad28d",
            "hex": "4730440220038c08d7f876c501a57ae580e996a2df4c163c7dcff70dd4ab9379c35592455d022001c8473dc7520817397b446e7b0e20e6c2a1ec76395f9f044b366020fc98e0f30121022b1f6e281e02fc58320cb955839cd780d3847f1d68a87c7b90134724503ad28d"
          },
          "sequence": 4294967295
        }, 
        {
          "txid": "33a8384386a5a5254413ef8cbc15080b8e08e2fd1641a7b55ed49373fe3f12aa",
          "vout": 450,
          "scriptSig": {
            "asm": "3045022100fb70ef0c07253fd820b3ae66bf2607d0ef3552d35e61bfcf649c2885add59e3602207162df81ed98846665ae9490ac7cfebe2df1f4d0e2ff9e314b6a95e6471148f1[ALL] 0258998637417f6c6c305fea6e919fd7e7138de077ae153c0bc1bc49a50281c25b",
            "hex": "483045022100fb70ef0c07253fd820b3ae66bf2607d0ef3552d35e61bfcf649c2885add59e3602207162df81ed98846665ae9490ac7cfebe2df1f4d0e2ff9e314b6a95e6471148f101210258998637417f6c6c305fea6e919fd7e7138de077ae153c0bc1bc49a50281c25b"
          },
          "sequence": 4294967295
        }
      ],
      "vout": [
        {
          "value": 0.00845200,
          "n": 0,
          "scriptPubKey": {
            "asm": "OP_DUP OP_HASH160 0ac233f7e1b952af100c6f7b0928d463cc03cd85 OP_EQUALVERIFY OP_CHECKSIG",
            "hex": "76a9140ac233f7e1b952af100c6f7b0928d463cc03cd8588ac",
            "reqSigs": 1,
            "type": "pubkeyhash",
            "addresses": [
              "LLCqfbK4QRCvN9NrRaasJGKdKwjbh1FrkF"
            ]
          }
        }, 
        {
          "value": 0.25263153,
          "n": 1,
          "scriptPubKey": {
            "asm": "OP_DUP OP_HASH160 08db84aa8413a977e8b525597df79b19751edae0 OP_EQUALVERIFY OP_CHECKSIG",
            "hex": "76a91408db84aa8413a977e8b525597df79b19751edae088ac",
            "reqSigs": 1,
            "type": "pubkeyhash",
            "addresses": [
              "LL2ne9A6ZsrRAv299pqExg9BCGzLRPB6aH"
            ]
          }
        }
      ],
      "hex": "0100000002a605f2fb1e884b860c0ec1556922d8acd3d0fcf52f8cdf8bbfaaadd5ea2bf746000000006a4730440220038c08d7f876c501a57ae580e996a2df4c163c7dcff70dd4ab9379c35592455d022001c8473dc7520817397b446e7b0e20e6c2a1ec76395f9f044b366020fc98e0f30121022b1f6e281e02fc58320cb955839cd780d3847f1d68a87c7b90134724503ad28dffffffffaa123ffe7393d45eb5a74116fde2088e0b0815bc8cef134425a5a5864338a833c20100006b483045022100fb70ef0c07253fd820b3ae66bf2607d0ef3552d35e61bfcf649c2885add59e3602207162df81ed98846665ae9490ac7cfebe2df1f4d0e2ff9e314b6a95e6471148f101210258998637417f6c6c305fea6e919fd7e7138de077ae153c0bc1bc49a50281c25bffffffff0290e50c00000000001976a9140ac233f7e1b952af100c6f7b0928d463cc03cd8588ac317c8101000000001976a91408db84aa8413a977e8b525597df79b19751edae088ac00000000"
    }, 
    {
      "txid": "6f8292d2184342650b17b721063412cbd802feabd334b49aba13a220f6ace711",
      "hash": "618483f55f0b735c516e0a4ad25383c6a3425d3f6188cc1482bf23c5922a5526",
      "version": 1,
      "size": 372,
      "vsize": 207,
      "locktime": 0,
      "vin": [
        {
          "txid": "f70eb4d94da7d849c13e5e4f3374a7237a81995b617942858e514227c11c45e0",
          "vout": 1,
          "scriptSig": {
            "asm": "0020409fd93c7351b461fa46963fa28755038f397ee054ab9e56eda0b1081d768cc4",
            "hex": "220020409fd93c7351b461fa46963fa28755038f397ee054ab9e56eda0b1081d768cc4"
          },
          "txinwitness": [
            "", 
            "304402203234a769b33b2312186450b69e5fb564f6e30a2e9a1ca32ab6adbe3af5bd156902204793112944918a1a5051655f453eec1bf0d9b577958f09b903b5b24a8b83f95401", 
            "3044022035d474b016cb7128201b51516aeb7193a4d05ab6453314761a61d9479ce767f4022041a6340fb5a72cdbeb4b9d5cb5d7bd0e3b81e367db59041db7f4027cba5d86ba01", 
            "522103ceb293b39e087131961da42b3deaef48432d57a08bfd111247901be2936525b32103fa185b0d6c2a6d812d1a9418c54b3cea527d229a73a0c6c72345a1851ebcdad352ae"
          ],
          "sequence": 4294967295
        }
      ],
      "vout": [
        {
          "value": 0.06127500,
          "n": 0,
          "scriptPubKey": {
            "asm": "OP_DUP OP_HASH160 c4b277df1c614acec466be0b8aed4612b93acba1 OP_EQUALVERIFY OP_CHECKSIG",
            "hex": "76a914c4b277df1c614acec466be0b8aed4612b93acba188ac",
            "reqSigs": 1,
            "type": "pubkeyhash",
            "addresses": [
              "Ld9zW18W9hbh6PPKr7ZmhhhsXnoQCHm3Vs"
            ]
          }
        }, 
        {
          "value": 0.81358300,
          "n": 1,
          "scriptPubKey": {
            "asm": "OP_HASH160 2d9ba1f1c217fd18a576b17eaf8a1c6f1cd2f1de OP_EQUAL",
            "hex": "a9142d9ba1f1c217fd18a576b17eaf8a1c6f1cd2f1de87",
            "reqSigs": 1,
            "type": "scripthash",
            "addresses": [
              "MC4K5c2x6rcVohDBLrLNQRsqL5atuzztot"
            ]
          }
        }
      ],
      "hex": "01000000000101e0451cc12742518e854279615b99817a23a774334f5e3ec149d8a74dd9b40ef70100000023220020409fd93c7351b461fa46963fa28755038f397ee054ab9e56eda0b1081d768cc4ffffffff028c7f5d00000000001976a914c4b277df1c614acec466be0b8aed4612b93acba188acdc6dd9040000000017a9142d9ba1f1c217fd18a576b17eaf8a1c6f1cd2f1de87040047304402203234a769b33b2312186450b69e5fb564f6e30a2e9a1ca32ab6adbe3af5bd156902204793112944918a1a5051655f453eec1bf0d9b577958f09b903b5b24a8b83f95401473044022035d474b016cb7128201b51516aeb7193a4d05ab6453314761a61d9479ce767f4022041a6340fb5a72cdbeb4b9d5cb5d7bd0e3b81e367db59041db7f4027cba5d86ba0147522103ceb293b39e087131961da42b3deaef48432d57a08bfd111247901be2936525b32103fa185b0d6c2a6d812d1a9418c54b3cea527d229a73a0c6c72345a1851ebcdad352ae00000000"
    }, 
    {
      "txid": "db0a4d04fdf5ca6351dbabf7516f176a7d44b131e3ce741fb79f5494ea1bd9d4",
      "hash": "db0a4d04fdf5ca6351dbabf7516f176a7d44b131e3ce741fb79f5494ea1bd9d4",
      "version": 1,
      "size": 225,
      "vsize": 225,
      "locktime": 0,
      "vin": [
        {
          "txid": "198dcd6c8f6d4e646a4aaad72134787aee2eef0d589f90b120247741e70fa546",
          "vout": 0,
          "scriptSig": {
            "asm": "3044022029c64bcaaf7858cd3d4961c3ac4faebf6cffd96a3c422d38384fd232bb284f0b02204261d51e814d8eb62a541bb2ce78ef12cf5d5474ee20febedaf91fa567b93d1d[ALL] 0343f34885d143740643b430140d86862c92861fa0bd624a731d4a9c0109771320",
            "hex": "473044022029c64bcaaf7858cd3d4961c3ac4faebf6cffd96a3c422d38384fd232bb284f0b02204261d51e814d8eb62a541bb2ce78ef12cf5d5474ee20febedaf91fa567b93d1d01210343f34885d143740643b430140d86862c92861fa0bd624a731d4a9c0109771320"
          },
          "sequence": 4294967295
        }
      ],
      "vout": [
        {
          "value": 0.03646421,
          "n": 0,
          "scriptPubKey": {
            "asm": "OP_DUP OP_HASH160 b9176adbf41336d423caa25ef66f23d1c2a2d1f8 OP_EQUALVERIFY OP_CHECKSIG",
            "hex": "76a914b9176adbf41336d423caa25ef66f23d1c2a2d1f888ac",
            "reqSigs": 1,
            "type": "pubkeyhash",
            "addresses": [
              "Lc6dKmkfhf3dAUbcwFyKyUNw5nx4SCH99u"
            ]
          }
        }, 
        {
          "value": 0.00054708,
          "n": 1,
          "scriptPubKey": {
            "asm": "OP_DUP OP_HASH160 25aba62b6aaf3624bd15e1cb4f9941f21e540e40 OP_EQUALVERIFY OP_CHECKSIG",
            "hex": "76a91425aba62b6aaf3624bd15e1cb4f9941f21e540e4088ac",
            "reqSigs": 1,
            "type": "pubkeyhash",
            "addresses": [
              "LNf8thWfQrwUK4Crc7gn6C58ritEAKpGby"
            ]
          }
        }
      ],
      "hex": "010000000146a50fe741772420b1909f580def2eee7a783421d7aa4a6a644e6d8f6ccd8d19000000006a473044022029c64bcaaf7858cd3d4961c3ac4faebf6cffd96a3c422d38384fd232bb284f0b02204261d51e814d8eb62a541bb2ce78ef12cf5d5474ee20febedaf91fa567b93d1d01210343f34885d143740643b430140d86862c92861fa0bd624a731d4a9c0109771320ffffffff02d5a33700000000001976a914b9176adbf41336d423caa25ef66f23d1c2a2d1f888acb4d50000000000001976a91425aba62b6aaf3624bd15e1cb4f9941f21e540e4088ac00000000"
    }, 
    {
      "txid": "693ff3096d85955a0a24db60dfecf3bec94e775002cf64d6082a3e8e382e8fe5",
      "hash": "693ff3096d85955a0a24db60dfecf3bec94e775002cf64d6082a3e8e382e8fe5",
      "version": 1,
      "size": 225,
      "vsize": 225,
      "locktime": 0,
      "vin": [
        {
          "txid": "3cf3357b06f3d5e7a78ce5455e0759ffee2823988293a154f449ce15fd2f7683",
          "vout": 1,
          "scriptSig": {
            "asm": "3044022100e161c28ccced0c4f6e88096d6e4f13459411ff084117e1ad6718fe1b53428f24021f7c98e40b8a4caf333044431e7c8ef554ba854e2ffbbfbf03d5c880e8751ec5[ALL] 03a31c1f033304556e68326948982db37d9a99615d73e42f65cca865b2652d1b8b",
            "hex": "473044022100e161c28ccced0c4f6e88096d6e4f13459411ff084117e1ad6718fe1b53428f24021f7c98e40b8a4caf333044431e7c8ef554ba854e2ffbbfbf03d5c880e8751ec5012103a31c1f033304556e68326948982db37d9a99615d73e42f65cca865b2652d1b8b"
          },
          "sequence": 4294967295
        }
      ],
      "vout": [
        {
          "value": 61.05857472,
          "n": 0,
          "scriptPubKey": {
            "asm": "OP_DUP OP_HASH160 2e2b919ce5863bad378c24566ccaaa91e485a2d3 OP_EQUALVERIFY OP_CHECKSIG",
            "hex": "76a9142e2b919ce5863bad378c24566ccaaa91e485a2d388ac",
            "reqSigs": 1,
            "type": "pubkeyhash",
            "addresses": [
              "LPS5YFV2gjXD1SJLBj64swiRcFzDfQsF1V"
            ]
          }
        }, 
        {
          "value": 1.30512928,
          "n": 1,
          "scriptPubKey": {
            "asm": "OP_DUP OP_HASH160 602a05ba3e1bf959c4b5b5c74b7f97a216964eff OP_EQUALVERIFY OP_CHECKSIG",
            "hex": "76a914602a05ba3e1bf959c4b5b5c74b7f97a216964eff88ac",
            "reqSigs": 1,
            "type": "pubkeyhash",
            "addresses": [
              "LTzRUPq2JmZaNoz1hzv166tH2EjxvAcXoc"
            ]
          }
        }
      ],
      "hex": "010000000183762ffd15ce49f454a19382982328eeff59075e45e58ca7e7d5f3067b35f33c010000006a473044022100e161c28ccced0c4f6e88096d6e4f13459411ff084117e1ad6718fe1b53428f24021f7c98e40b8a4caf333044431e7c8ef554ba854e2ffbbfbf03d5c880e8751ec5012103a31c1f033304556e68326948982db37d9a99615d73e42f65cca865b2652d1b8bffffffff02c0fdef6b010000001976a9142e2b919ce5863bad378c24566ccaaa91e485a2d388ac2078c707000000001976a914602a05ba3e1bf959c4b5b5c74b7f97a216964eff88ac00000000"
    }, 
    {
      "txid": "0c7dbccdb4bdfdd6ce9e728ac73a7ecbdc04f63fbf264de778896267eb3e1c55",
      "hash": "0c7dbccdb4bdfdd6ce9e728ac73a7ecbdc04f63fbf264de778896267eb3e1c55",
      "version": 1,
      "size": 224,
      "vsize": 224,
      "locktime": 0,
      "vin": [
        {
          "txid": "fff0bb2059e70996d2b56bfb2fd2f72445c6b52af1f5053577b68092452be860",
          "vout": 0,
          "scriptSig": {
            "asm": "3045022100c06a8120cbf350254998d7c3df67d901bea9f27a6c4e412a4440b9774bd4fb9d022026d0fd5d9aa2d33895e93a58412e808b4e90a3fea920991fbc5d69359a8f77b1[ALL] 027fe3f2d1bf5a9aeaa1b3a2ad2b79f55dbbf59dd0fa1f1e11305674255cea514d",
            "hex": "483045022100c06a8120cbf350254998d7c3df67d901bea9f27a6c4e412a4440b9774bd4fb9d022026d0fd5d9aa2d33895e93a58412e808b4e90a3fea920991fbc5d69359a8f77b10121027fe3f2d1bf5a9aeaa1b3a2ad2b79f55dbbf59dd0fa1f1e11305674255cea514d"
          },
          "sequence": 4294967295
        }
      ],
      "vout": [
        {
          "value": 1.08817000,
          "n": 0,
          "scriptPubKey": {
            "asm": "OP_HASH160 550dcbdd8b4953e57afe27ef987a76b2f522082a OP_EQUAL",
            "hex": "a914550dcbdd8b4953e57afe27ef987a76b2f522082a87",
            "reqSigs": 1,
            "type": "scripthash",
            "addresses": [
              "MFetCKga5E4E5cYmTiVbwnF91hJZThePy6"
            ]
          }
        }, 
        {
          "value": 61.23578382,
          "n": 1,
          "scriptPubKey": {
            "asm": "OP_DUP OP_HASH160 c5d390e3a0565f271faf52abb7606fc22ce77a1b OP_EQUALVERIFY OP_CHECKSIG",
            "hex": "76a914c5d390e3a0565f271faf52abb7606fc22ce77a1b88ac",
            "reqSigs": 1,
            "type": "pubkeyhash",
            "addresses": [
              "LdFxps8aDTsEec1az4kydp17183CJP6i8e"
            ]
          }
        }
      ],
      "hex": "010000000160e82b459280b6773505f5f12ab5c64524f7d22ffb6bb5d29609e75920bbf0ff000000006b483045022100c06a8120cbf350254998d7c3df67d901bea9f27a6c4e412a4440b9774bd4fb9d022026d0fd5d9aa2d33895e93a58412e808b4e90a3fea920991fbc5d69359a8f77b10121027fe3f2d1bf5a9aeaa1b3a2ad2b79f55dbbf59dd0fa1f1e11305674255cea514dffffffff02686a7c060000000017a914550dcbdd8b4953e57afe27ef987a76b2f522082a870e64fe6c010000001976a914c5d390e3a0565f271faf52abb7606fc22ce77a1b88ac00000000"
    }, 
    {
      "txid": "7214af4b66e8d03891de1ce5e2966d7dda669619452c9a24ad4348a06ff67f9e",
      "hash": "7214af4b66e8d03891de1ce5e2966d7dda669619452c9a24ad4348a06ff67f9e",
      "version": 2,
      "size": 226,
      "vsize": 226,
      "locktime": 1360887,
      "vin": [
        {
          "txid": "65340c10012181e368ecdf150940e027f13e7103027255609ef2ed91e0014b00",
          "vout": 0,
          "scriptSig": {
            "asm": "30450221008a9b9e16bd43dcf3515d15e050733c682998151cbb487cf0d39610814cf0ef160220262baac41205db4beb02e06bb94260c9896f8d23bc7c4efd85e9b489ffefad02[ALL] 025f1a4ccfc53fc478a056587f4fee511a124fd915ff837b51467d8ad3bb7fbfa7",
            "hex": "4830450221008a9b9e16bd43dcf3515d15e050733c682998151cbb487cf0d39610814cf0ef160220262baac41205db4beb02e06bb94260c9896f8d23bc7c4efd85e9b489ffefad020121025f1a4ccfc53fc478a056587f4fee511a124fd915ff837b51467d8ad3bb7fbfa7"
          },
          "sequence": 4294967294
        }
      ],
      "vout": [
        {
          "value": 0.03626713,
          "n": 0,
          "scriptPubKey": {
            "asm": "OP_DUP OP_HASH160 c04f08de32aa077726e0eb92aaeeb660ce2b0060 OP_EQUALVERIFY OP_CHECKSIG",
            "hex": "76a914c04f08de32aa077726e0eb92aaeeb660ce2b006088ac",
            "reqSigs": 1,
            "type": "pubkeyhash",
            "addresses": [
              "LckngU55Fb1HhQkXKEDQx9X8gBbaTG4zum"
            ]
          }
        }, 
        {
          "value": 0.04363766,
          "n": 1,
          "scriptPubKey": {
            "asm": "OP_DUP OP_HASH160 5b04c700cb444651975e7dafe070043994e54875 OP_EQUALVERIFY OP_CHECKSIG",
            "hex": "76a9145b04c700cb444651975e7dafe070043994e5487588ac",
            "reqSigs": 1,
            "type": "pubkeyhash",
            "addresses": [
              "LTXDUc78LLxiJYbZnSDfRohouXKh5XTjup"
            ]
          }
        }
      ],
      "hex": "0200000001004b01e091edf29e6055720203713ef127e0400915dfec68e3812101100c3465000000006b4830450221008a9b9e16bd43dcf3515d15e050733c682998151cbb487cf0d39610814cf0ef160220262baac41205db4beb02e06bb94260c9896f8d23bc7c4efd85e9b489ffefad020121025f1a4ccfc53fc478a056587f4fee511a124fd915ff837b51467d8ad3bb7fbfa7feffffff02d9563700000000001976a914c04f08de32aa077726e0eb92aaeeb660ce2b006088acf6954200000000001976a9145b04c700cb444651975e7dafe070043994e5487588acf7c31400"
    }, 
    {
      "txid": "69b42eab581598f10a8355b3c16bb0042b6100b16c8ebd212e1ea54be2eb72f2",
      "hash": "69b42eab581598f10a8355b3c16bb0042b6100b16c8ebd212e1ea54be2eb72f2",
      "version": 1,
      "size": 226,
      "vsize": 226,
      "locktime": 0,
      "vin": [
        {
          "txid": "945af72a9d172415af7afe8b34579a6c2f455dc1025c44367560f8e74a1651b3",
          "vout": 0,
          "scriptSig": {
            "asm": "3045022100fcb6cebc382a270a0a7fbe2df6f5cd4e2d0cfbb04305e3a28b0f5d99955acd6502200859c66c2ec5c99c9eeac387382bc1cffaa27c5048a9ce89f9ada9ae35da72ef[ALL] 0355f829deeca4d50cb0c49b64d1c7f336ba59c2d9fcc5411b9f6845b7e4ac2fe7",
            "hex": "483045022100fcb6cebc382a270a0a7fbe2df6f5cd4e2d0cfbb04305e3a28b0f5d99955acd6502200859c66c2ec5c99c9eeac387382bc1cffaa27c5048a9ce89f9ada9ae35da72ef01210355f829deeca4d50cb0c49b64d1c7f336ba59c2d9fcc5411b9f6845b7e4ac2fe7"
          },
          "sequence": 4294967295
        }
      ],
      "vout": [
        {
          "value": 0.68091791,
          "n": 0,
          "scriptPubKey": {
            "asm": "OP_DUP OP_HASH160 44ef07f17369b8047b99ec85e297fee7915b636d OP_EQUALVERIFY OP_CHECKSIG",
            "hex": "76a91444ef07f17369b8047b99ec85e297fee7915b636d88ac",
            "reqSigs": 1,
            "type": "pubkeyhash",
            "addresses": [
              "LRWSZRaAPpk6bf7iKk9mP2fBFRAxx65gga"
            ]
          }
        }, 
        {
          "value": 62.10777049,
          "n": 1,
          "scriptPubKey": {
            "asm": "OP_DUP OP_HASH160 17c3dd48d5cbabff532d32bdca89fd72408d9794 OP_EQUALVERIFY OP_CHECKSIG",
            "hex": "76a91417c3dd48d5cbabff532d32bdca89fd72408d979488ac",
            "reqSigs": 1,
            "type": "pubkeyhash",
            "addresses": [
              "LMPcSXDE7d5RNTjKNsk2uYTia1h1wePBuV"
            ]
          }
        }
      ],
      "hex": "0100000001b351164ae7f8607536445c02c15d452f6c9a57348bfe7aaf1524179d2af75a94000000006b483045022100fcb6cebc382a270a0a7fbe2df6f5cd4e2d0cfbb04305e3a28b0f5d99955acd6502200859c66c2ec5c99c9eeac387382bc1cffaa27c5048a9ce89f9ada9ae35da72ef01210355f829deeca4d50cb0c49b64d1c7f336ba59c2d9fcc5411b9f6845b7e4ac2fe7ffffffff028fff0e04000000001976a91444ef07f17369b8047b99ec85e297fee7915b636d88acd9ef3072010000001976a91417c3dd48d5cbabff532d32bdca89fd72408d979488ac00000000"
    }
  ],
  "time": 1517494372,
  "mediantime": 1517494091,
  "nonce": 223349417,
  "bits": "1a04088e",
  "difficulty": 4159490.835685156,
  "chainwork": "0000000000000000000000000000000000000000000000355cfcfdc606159ee0",
  "previousblockhash": "783067f681e88a7bf92d8d1bc4ec0419f31e38884a3bfd4941a50f041ec5af25",
  "nextblockhash": "ab497e92e6aa1864e0a098928050deecc82fc7281a54acabd1687dea1a0c2388"
}
