{
  "hash": "109a52a2e8571b5ee163f7079c48d10225541d2703005d484dba193e2b7163d4",
  "confirmations": 2725,
  "strippedsize": 253,
  "size": 253,
  "weight": 1012,
  "height": 1358270,
  "version": 536870912,
  "versionHex": "20000000",
  "merkleroot": "f2c026de2d405342bafe876c26101cb1162e8dbbffbc38b244ac72a9d5ae9938",
  "tx": [
    {
      "txid": "f2c026de2d405342bafe876c26101cb1162e8dbbffbc38b244ac72a9d5ae9938",
      "hash": "f2c026de2d405342bafe876c26101cb1162e8dbbffbc38b244ac72a9d5ae9938",
      "version": 1,
      "size": 172,
      "vsize": 172,
      "locktime": 0,
      "vin": [
        {
          "coinbase": "03beb9141a4d696e656420627920416e74506f6f6c20626a3532205a6d6161fabe6d6d66abb8b3b4baeab33db1bd59fdca637c679ed5aeac8bee0fe4e60b8bcd03d7df0400000000000000582500000000000011000000",
          "sequence": 4294967295
        }
      ],
      "vout": [
        {
          "value": 25.00000000,
          "n": 0,
          "scriptPubKey": {
            "asm": "OP_DUP OP_HASH160 0ff3ccc5e8be88afe24b5d634e5852d474dbdff1 OP_EQUALVERIFY OP_CHECKSIG",
            "hex": "76a9140ff3ccc5e8be88afe24b5d634e5852d474dbdff188ac",
            "reqSigs": 1,
            "type": "pubkeyhash",
            "addresses": [
              "LLgJTbzZMsRTCUF1NtvvL9SR1a4pVieW89"
            ]
          }
        }
      ],
      "hex": "01000000010000000000000000000000000000000000000000000000000000000000000000ffffffff5703beb9141a4d696e656420627920416e74506f6f6c20626a3532205a6d6161fabe6d6d66abb8b3b4baeab33db1bd59fdca637c679ed5aeac8bee0fe4e60b8bcd03d7df0400000000000000582500000000000011000000ffffffff0100f90295000000001976a9140ff3ccc5e8be88afe24b5d634e5852d474dbdff188ac00000000"
    }
  ],
  "time": 1517117793,
  "mediantime": 1517116848,
  "nonce": 2197816790,
  "bits": "1a047f14",
  "difficulty": 3731199.183374282,
  "chainwork": "000000000000000000000000000000000000000000000032f28e8d39defdb466",
  "previousblockhash": "f113d578fe5f4d0731afb13f07459d0977edcdc7597eb8a3c8a4d4eb9e5d974f",
  "nextblockhash": "7f5e05e002f48788b9287d89e2feec4bd70f6c38da10ed82dd2c53c02ca8daa6"
}
