{
  "hash": "10d3eb45fc6b8fc522d1b2464b0c04d07bda71cbb981d9bb320d2ac8e001635e",
  "confirmations": 1988,
  "strippedsize": 843,
  "size": 879,
  "weight": 3408,
  "height": 1359006,
  "version": 536870912,
  "versionHex": "20000000",
  "merkleroot": "669766887e6113aa0e6616616ecbeac55b2bee0747f70921a0df1b6790bd965f",
  "tx": [
    {
      "txid": "bd1e19e890d98290084e87e0c8c18c2e110522e0bdd9cdf26eef60b854bcee2f",
      "hash": "66683722cc2331219a79037717675e09b8808984bb1c5fc3ef8cf3b5ad812eb2",
      "version": 1,
      "size": 277,
      "vsize": 250,
      "locktime": 949401725,
      "vin": [
        {
          "coinbase": "039ebc142cfabe6d6d695cd5d67abeb03a0c01492e942dcc42d3b916b684a6d9b231cb99ba0f1843a408000000f09f909f0d4d696e6564206279207376313800000000000000000000000000000000000000000000000000000000000000000000000000",
          "sequence": 1
        }
      ],
      "vout": [
        {
          "value": 25.00066900,
          "n": 0,
          "scriptPubKey": {
            "asm": "OP_DUP OP_HASH160 aa3750aa18b8a0f3f0590731e1fab934856680cf OP_EQUALVERIFY OP_CHECKSIG",
            "hex": "76a914aa3750aa18b8a0f3f0590731e1fab934856680cf88ac",
            "reqSigs": 1,
            "type": "pubkeyhash",
            "addresses": [
              "LajyQBeZaBA1NkZDeY8YT5RYYVRkXMvb2T"
            ]
          }
        }, 
        {
          "value": 0.00000000,
          "n": 1,
          "scriptPubKey": {
            "asm": "OP_RETURN aa21a9ed10543ad506bbaad0d8e1458e83a4352e574e05fa29a6acfff7bbb1b581a9b2dc 0000000000000000",
            "hex": "6a24aa21a9ed10543ad506bbaad0d8e1458e83a4352e574e05fa29a6acfff7bbb1b581a9b2dc080000000000000000",
            "type": "nulldata"
          }
        }
      ],
      "hex": "010000000001010000000000000000000000000000000000000000000000000000000000000000ffffffff64039ebc142cfabe6d6d695cd5d67abeb03a0c01492e942dcc42d3b916b684a6d9b231cb99ba0f1843a408000000f09f909f0d4d696e6564206279207376313800000000000000000000000000000000000000000000000000000000000000000000000000010000000254fe0395000000001976a914aa3750aa18b8a0f3f0590731e1fab934856680cf88ac00000000000000002f6a24aa21a9ed10543ad506bbaad0d8e1458e83a4352e574e05fa29a6acfff7bbb1b581a9b2dc080000000000000000012000000000000000000000000000000000000000000000000000000000000000007db89638"
    }, 
    {
      "txid": "973158dd78f743862eec9632d9ba391c26ff5caf607f8d6923b95d5f6799a700",
      "hash": "973158dd78f743862eec9632d9ba391c26ff5caf607f8d6923b95d5f6799a700",
      "version": 1,
      "size": 521,
      "vsize": 521,
      "locktime": 1359003,
      "vin": [
        {
          "txid": "cf2501a6e3aac991401df5134a0c563c972de537c03dbea4ac6354bd9f110a98",
          "vout": 0,
          "scriptSig": {
            "asm": "3045022100888cf6576cc37011e36c092d45c07d6cd30cc66ebfd6669a5ee853fe0daa0f90022077f4287f6ada7ddf72878dfb06a0d06154a8736a1e214ac4ed4c8839897bc73e[ALL] 0220b93a1bb350895be629a72a9e746d0b33cf821a9bc64984d26575964d40cb19",
            "hex": "483045022100888cf6576cc37011e36c092d45c07d6cd30cc66ebfd6669a5ee853fe0daa0f90022077f4287f6ada7ddf72878dfb06a0d06154a8736a1e214ac4ed4c8839897bc73e01210220b93a1bb350895be629a72a9e746d0b33cf821a9bc64984d26575964d40cb19"
          },
          "sequence": 4294967294
        }, 
        {
          "txid": "5bf502a51f1d08f0355a9193cfe0afe95945f9070078b655fc3de17ca611bdc7",
          "vout": 0,
          "scriptSig": {
            "asm": "3045022100f7f6d03346538e7aa912cc749b27035cfe3bec17f7c7c608a0442e78c39039c402201774681b3739d0df3e02a955592938b94fd0f467bab23c894f651cee2a8ece75[ALL] 034f2c86f98f9aca5e404443f1fd0c505064d7984b0eeafbdf06eda8a05207588b",
            "hex": "483045022100f7f6d03346538e7aa912cc749b27035cfe3bec17f7c7c608a0442e78c39039c402201774681b3739d0df3e02a955592938b94fd0f467bab23c894f651cee2a8ece750121034f2c86f98f9aca5e404443f1fd0c505064d7984b0eeafbdf06eda8a05207588b"
          },
          "sequence": 4294967294
        }, 
        {
          "txid": "d843775a83a8243e0e688f759f04c97cd9dde4515cf17d79c7c3c32449669b87",
          "vout": 0,
          "scriptSig": {
            "asm": "3044022071d2044c845174a2dbd9d9ce0c34d959e56d56e3c00912d0a3e1878e2ed34b9e0220331885ec4b5b0ddd91b141824b9f9c3d6ea738c92c61ec600618faf5c5c5c44b[ALL] 030267e531d0b9ebb374ac4b9cfd16af4aafe57c93e8caeb58c298bc1e0ff3510b",
            "hex": "473044022071d2044c845174a2dbd9d9ce0c34d959e56d56e3c00912d0a3e1878e2ed34b9e0220331885ec4b5b0ddd91b141824b9f9c3d6ea738c92c61ec600618faf5c5c5c44b0121030267e531d0b9ebb374ac4b9cfd16af4aafe57c93e8caeb58c298bc1e0ff3510b"
          },
          "sequence": 4294967294
        }
      ],
      "vout": [
        {
          "value": 21.59356326,
          "n": 0,
          "scriptPubKey": {
            "asm": "OP_DUP OP_HASH160 c4223ded4c2aa1d56391c4e91693200ba58a79e1 OP_EQUALVERIFY OP_CHECKSIG",
            "hex": "76a914c4223ded4c2aa1d56391c4e91693200ba58a79e188ac",
            "reqSigs": 1,
            "type": "pubkeyhash",
            "addresses": [
              "Ld71iyqpCRjnQCJritefCytx664JvvxmRb"
            ]
          }
        }, 
        {
          "value": 0.01000359,
          "n": 1,
          "scriptPubKey": {
            "asm": "OP_DUP OP_HASH160 cff2678c02c558c6408142102c4da497a17eed79 OP_EQUALVERIFY OP_CHECKSIG",
            "hex": "76a914cff2678c02c558c6408142102c4da497a17eed7988ac",
            "reqSigs": 1,
            "type": "pubkeyhash",
            "addresses": [
              "LeBUXUpXFc24zQZXWDDYFWfj2w3AoQxGZM"
            ]
          }
        }
      ],
      "hex": "0100000003980a119fbd5463aca4be3dc037e52d973c560c4a13f51d4091c9aae3a60125cf000000006b483045022100888cf6576cc37011e36c092d45c07d6cd30cc66ebfd6669a5ee853fe0daa0f90022077f4287f6ada7ddf72878dfb06a0d06154a8736a1e214ac4ed4c8839897bc73e01210220b93a1bb350895be629a72a9e746d0b33cf821a9bc64984d26575964d40cb19feffffffc7bd11a67ce13dfc55b6780007f94559e9afe0cf93915a35f0081d1fa502f55b000000006b483045022100f7f6d03346538e7aa912cc749b27035cfe3bec17f7c7c608a0442e78c39039c402201774681b3739d0df3e02a955592938b94fd0f467bab23c894f651cee2a8ece750121034f2c86f98f9aca5e404443f1fd0c505064d7984b0eeafbdf06eda8a05207588bfeffffff879b664924c3c3c7797df15c51e4ddd97cc9049f758f680e3e24a8835a7743d8000000006a473044022071d2044c845174a2dbd9d9ce0c34d959e56d56e3c00912d0a3e1878e2ed34b9e0220331885ec4b5b0ddd91b141824b9f9c3d6ea738c92c61ec600618faf5c5c5c44b0121030267e531d0b9ebb374ac4b9cfd16af4aafe57c93e8caeb58c298bc1e0ff3510bfeffffff02a629b580000000001976a914c4223ded4c2aa1d56391c4e91693200ba58a79e188aca7430f00000000001976a914cff2678c02c558c6408142102c4da497a17eed7988ac9bbc1400"
    }
  ],
  "time": 1517223065,
  "mediantime": 1517222850,
  "nonce": 2189679557,
  "bits": "1a042eae",
  "difficulty": 4011378.762614286,
  "chainwork": "00000000000000000000000000000000000000000000003399f7b0f825094cbe",
  "previousblockhash": "df40e77622e49da5c85922629aa6458da7217d0539b00129dd323dcd9920b0b7",
  "nextblockhash": "429516331f7bb0970a3c9121246072925192e6f4fba5447c38649744004129c9"
}
