{
  "hash": "1110807fcb60283fd5ab9ff8281aa3b3861030356dc1bbeaf6aed7aa730456fa",
  "confirmations": 1683,
  "strippedsize": 3181,
  "size": 3438,
  "weight": 12981,
  "height": 1359311,
  "version": 536870912,
  "versionHex": "20000000",
  "merkleroot": "cf4e95a93d80e625febc98a61992801bf7087cf41645c4a0cc7316c8d34ebab2",
  "tx": [
    {
      "txid": "bd0e20751efb9d9b836bcb86261e9b75832c0d82a279bed5eaae9e0ddd9f7f24",
      "hash": "ff3b06de94ba1a55264cea25e0588b471910584d3c81ec282b60354601840ac7",
      "version": 1,
      "size": 253,
      "vsize": 226,
      "locktime": 0,
      "vin": [
        {
          "coinbase": "03cfbd1441d69be9e2e2804541d69be9e2008e102f4c54432e544f502ffabe6d6db476fd3758416db3d3506b46793bf8a5985cc2059883faabfbdf5268bcc3955801000000000000001630f5871000000000000000",
          "sequence": 4294967295
        }
      ],
      "vout": [
        {
          "value": 25.02309894,
          "n": 0,
          "scriptPubKey": {
            "asm": "OP_DUP OP_HASH160 0c617fdb2ea42aed30a509595ee21ba3f6688db0 OP_EQUALVERIFY OP_CHECKSIG",
            "hex": "76a9140c617fdb2ea42aed30a509595ee21ba3f6688db088ac",
            "reqSigs": 1,
            "type": "pubkeyhash",
            "addresses": [
              "LLMRAtr3qBje2ySEa3CnZ55LA4TQMWnRY3"
            ]
          }
        }, 
        {
          "value": 0.00000000,
          "n": 1,
          "scriptPubKey": {
            "asm": "OP_RETURN aa21a9ed69066ea3a101ceff9794f032832894deb1313194f1c9721b1132d509c824b6f7",
            "hex": "6a24aa21a9ed69066ea3a101ceff9794f032832894deb1313194f1c9721b1132d509c824b6f7",
            "type": "nulldata"
          }
        }
      ],
      "hex": "010000000001010000000000000000000000000000000000000000000000000000000000000000ffffffff5503cfbd1441d69be9e2e2804541d69be9e2008e102f4c54432e544f502ffabe6d6db476fd3758416db3d3506b46793bf8a5985cc2059883faabfbdf5268bcc3955801000000000000001630f5871000000000000000ffffffff0206382695000000001976a9140c617fdb2ea42aed30a509595ee21ba3f6688db088ac0000000000000000266a24aa21a9ed69066ea3a101ceff9794f032832894deb1313194f1c9721b1132d509c824b6f70120000000000000000000000000000000000000000000000000000000000000000000000000"
    }, 
    {
      "txid": "04e8426603234f442f6a67ae62daeb5681ece6d0f82f1e681c22cf220a1a8a0f",
      "hash": "04e8426603234f442f6a67ae62daeb5681ece6d0f82f1e681c22cf220a1a8a0f",
      "version": 1,
      "size": 963,
      "vsize": 963,
      "locktime": 1359309,
      "vin": [
        {
          "txid": "2e9ca61ac29c1eaf8bcae36777d3062acdc180bfb42210972df9a018af89cd7c",
          "vout": 17,
          "scriptSig": {
            "asm": "3045022100e10e0558d6ff5dc09740ad76830c7d9a955e32c2a64c85278ec60765259ef163022047f212d322b5c004ff6a227975275650835e72b9bb056e2b2f241016a716d65e[ALL] 03da92d1067518af7338dc7648d7d4ffed18446c4d21b1150110cb1f4e4afcc97d",
            "hex": "483045022100e10e0558d6ff5dc09740ad76830c7d9a955e32c2a64c85278ec60765259ef163022047f212d322b5c004ff6a227975275650835e72b9bb056e2b2f241016a716d65e012103da92d1067518af7338dc7648d7d4ffed18446c4d21b1150110cb1f4e4afcc97d"
          },
          "sequence": 4294967294
        }, 
        {
          "txid": "9fff4de011ed3ca72abb5d34df40cf7e32e3011b90dfb5a421dd62f3aefbcc16",
          "vout": 0,
          "scriptSig": {
            "asm": "3045022100989d2b388e82e46c69da98334a7b9ef093c3623ada5bffcb666116cf2491bdfa0220071d9ba3a8712f0cce4692fe8b7b5f7d496ea261eaed713972baa11615007daa[ALL] 03fc649fc5d9d98281587398fae18a6605861ef73093a936661a463466d9b83f15",
            "hex": "483045022100989d2b388e82e46c69da98334a7b9ef093c3623ada5bffcb666116cf2491bdfa0220071d9ba3a8712f0cce4692fe8b7b5f7d496ea261eaed713972baa11615007daa012103fc649fc5d9d98281587398fae18a6605861ef73093a936661a463466d9b83f15"
          },
          "sequence": 4294967294
        }, 
        {
          "txid": "32756ea36257f35fd632ad65b338a861d20e46de6330f1e3dabe5ae9d9eab137",
          "vout": 0,
          "scriptSig": {
            "asm": "3045022100d308fd7891838dda61c4d53ef0be859f05493e04204991f7f5e9fe741a548de2022027c0c09bc1e2da994c4aec6a620230d72fac992c715982e3a2429d88a43263c1[ALL] 02c0691605f4102fdbe9ab5fb6dd4bbbeeaae749ec774ffca7d5f5b4763cda598d",
            "hex": "483045022100d308fd7891838dda61c4d53ef0be859f05493e04204991f7f5e9fe741a548de2022027c0c09bc1e2da994c4aec6a620230d72fac992c715982e3a2429d88a43263c1012102c0691605f4102fdbe9ab5fb6dd4bbbeeaae749ec774ffca7d5f5b4763cda598d"
          },
          "sequence": 4294967294
        }, 
        {
          "txid": "5248b08f7ac38b58501586a8a9fa5b15f92b4381d3ad132696c79bfcff65fd5d",
          "vout": 0,
          "scriptSig": {
            "asm": "3045022100966bab011f3290faaaf2b98958c188688372604f132390bbb16577b4f194f86902206e8ac08f0858af966c91f470cc82cd8987913593402e1f8bf3d64dd12578f1d7[ALL] 024c38a7151abde60621d92d60d5ce75a70810c2993be11b5406e640eca2aca4f6",
            "hex": "483045022100966bab011f3290faaaf2b98958c188688372604f132390bbb16577b4f194f86902206e8ac08f0858af966c91f470cc82cd8987913593402e1f8bf3d64dd12578f1d70121024c38a7151abde60621d92d60d5ce75a70810c2993be11b5406e640eca2aca4f6"
          },
          "sequence": 4294967294
        }, 
        {
          "txid": "0ec5bd27ca5dc7912524a5337febdf4bf9673d6160fcd676e29f70d60e86d877",
          "vout": 0,
          "scriptSig": {
            "asm": "3045022100bb12f1a6b085bdba883c4850c3874396b93ca3734e987c4176695bed5323680d02201e8a1e485bda85f77447f9abb4d0adc7485a06c9406c1463c5597b352ecc0f60[ALL] 03acac15538266d820fb33c13095cbd2c7a0bc0f21bc62de6ffc2d85a1bfb3daac",
            "hex": "483045022100bb12f1a6b085bdba883c4850c3874396b93ca3734e987c4176695bed5323680d02201e8a1e485bda85f77447f9abb4d0adc7485a06c9406c1463c5597b352ecc0f60012103acac15538266d820fb33c13095cbd2c7a0bc0f21bc62de6ffc2d85a1bfb3daac"
          },
          "sequence": 4294967294
        }, 
        {
          "txid": "3eee7422ea4ed1df0d63167c68ef1fba439eaefeef1cee0542bff3a3e335975e",
          "vout": 0,
          "scriptSig": {
            "asm": "3044022065472bfe9a6214eb749651f0accc0ae735bee0a2ab01b5794defb8d49c173ff90220731906c7fcc6eadc3e86be4258c07520e6fef37caf01959c2d38a92d291f91a6[ALL] 0377764ebe7d6fc85afac3a9c37837c0a685a64eb58d5e0be7f0c7898f638b9e81",
            "hex": "473044022065472bfe9a6214eb749651f0accc0ae735bee0a2ab01b5794defb8d49c173ff90220731906c7fcc6eadc3e86be4258c07520e6fef37caf01959c2d38a92d291f91a601210377764ebe7d6fc85afac3a9c37837c0a685a64eb58d5e0be7f0c7898f638b9e81"
          },
          "sequence": 4294967294
        }
      ],
      "vout": [
        {
          "value": 33.71395061,
          "n": 0,
          "scriptPubKey": {
            "asm": "OP_HASH160 c697546397fdfcf0efe72b822666010047e96d3a OP_EQUAL",
            "hex": "a914c697546397fdfcf0efe72b822666010047e96d3a87",
            "reqSigs": 1,
            "type": "scripthash",
            "addresses": [
              "MS1DJyqBT1z1fE84Fh4ci3K8rVmFQSEYpS"
            ]
          }
        }, 
        {
          "value": 0.01000030,
          "n": 1,
          "scriptPubKey": {
            "asm": "OP_DUP OP_HASH160 c86f9fd789fc9ba79772139e4a2a6beeb9d8f331 OP_EQUALVERIFY OP_CHECKSIG",
            "hex": "76a914c86f9fd789fc9ba79772139e4a2a6beeb9d8f33188ac",
            "reqSigs": 1,
            "type": "pubkeyhash",
            "addresses": [
              "LdVm8Nq3w7xK9DHYxp8gWy59LeDUNRP8Qq"
            ]
          }
        }
      ],
      "hex": "01000000067ccd89af18a0f92d971022b4bf80c1cd2a06d37767e3ca8baf1e9cc21aa69c2e110000006b483045022100e10e0558d6ff5dc09740ad76830c7d9a955e32c2a64c85278ec60765259ef163022047f212d322b5c004ff6a227975275650835e72b9bb056e2b2f241016a716d65e012103da92d1067518af7338dc7648d7d4ffed18446c4d21b1150110cb1f4e4afcc97dfeffffff16ccfbaef362dd21a4b5df901b01e3327ecf40df345dbb2aa73ced11e04dff9f000000006b483045022100989d2b388e82e46c69da98334a7b9ef093c3623ada5bffcb666116cf2491bdfa0220071d9ba3a8712f0cce4692fe8b7b5f7d496ea261eaed713972baa11615007daa012103fc649fc5d9d98281587398fae18a6605861ef73093a936661a463466d9b83f15feffffff37b1ead9e95abedae3f13063de460ed261a838b365ad32d65ff35762a36e7532000000006b483045022100d308fd7891838dda61c4d53ef0be859f05493e04204991f7f5e9fe741a548de2022027c0c09bc1e2da994c4aec6a620230d72fac992c715982e3a2429d88a43263c1012102c0691605f4102fdbe9ab5fb6dd4bbbeeaae749ec774ffca7d5f5b4763cda598dfeffffff5dfd65fffc9bc7962613add381432bf9155bfaa9a8861550588bc37a8fb04852000000006b483045022100966bab011f3290faaaf2b98958c188688372604f132390bbb16577b4f194f86902206e8ac08f0858af966c91f470cc82cd8987913593402e1f8bf3d64dd12578f1d70121024c38a7151abde60621d92d60d5ce75a70810c2993be11b5406e640eca2aca4f6feffffff77d8860ed6709fe276d6fc60613d67f94bdfeb7f33a5242591c75dca27bdc50e000000006b483045022100bb12f1a6b085bdba883c4850c3874396b93ca3734e987c4176695bed5323680d02201e8a1e485bda85f77447f9abb4d0adc7485a06c9406c1463c5597b352ecc0f60012103acac15538266d820fb33c13095cbd2c7a0bc0f21bc62de6ffc2d85a1bfb3daacfeffffff5e9735e3a3f3bf4205ee1ceffeae9e43ba1fef687c16630ddfd14eea2274ee3e000000006a473044022065472bfe9a6214eb749651f0accc0ae735bee0a2ab01b5794defb8d49c173ff90220731906c7fcc6eadc3e86be4258c07520e6fef37caf01959c2d38a92d291f91a601210377764ebe7d6fc85afac3a9c37837c0a685a64eb58d5e0be7f0c7898f638b9e81feffffff02f567f3c80000000017a914c697546397fdfcf0efe72b822666010047e96d3a875e420f00000000001976a914c86f9fd789fc9ba79772139e4a2a6beeb9d8f33188accdbd1400"
    }, 
    {
      "txid": "b1e4a8ccf447d0a4b5817a0ee9da096869b4582a70a789d2cd60b962599ca5c1",
      "hash": "b1e4a8ccf447d0a4b5817a0ee9da096869b4582a70a789d2cd60b962599ca5c1",
      "version": 1,
      "size": 226,
      "vsize": 226,
      "locktime": 0,
      "vin": [
        {
          "txid": "58feffe9fa6b708b429efb290d5d8619d0f1b4b43b913eac561a3222a2c82830",
          "vout": 2,
          "scriptSig": {
            "asm": "3045022100aaaa392e81412154b58341c281f9424574f5ee7a44172b1729499425ef8c41100220578f4cc7c1a542204630fa5fb4a5eb8a396c8d30e231d25004026ea9bdaef961[ALL] 033df7e43bb168746ece4c62d25438cb22c8f21b9a628ae5f72fe5f9e34acf152a",
            "hex": "483045022100aaaa392e81412154b58341c281f9424574f5ee7a44172b1729499425ef8c41100220578f4cc7c1a542204630fa5fb4a5eb8a396c8d30e231d25004026ea9bdaef9610121033df7e43bb168746ece4c62d25438cb22c8f21b9a628ae5f72fe5f9e34acf152a"
          },
          "sequence": 4294967295
        }
      ],
      "vout": [
        {
          "value": 0.18139063,
          "n": 0,
          "scriptPubKey": {
            "asm": "OP_DUP OP_HASH160 ff74e7489878d61a69b5b88d2077ad9dd468b057 OP_EQUALVERIFY OP_CHECKSIG",
            "hex": "76a914ff74e7489878d61a69b5b88d2077ad9dd468b05788ac",
            "reqSigs": 1,
            "type": "pubkeyhash",
            "addresses": [
              "LiWgciwiFxNncLJP8obXZFTHvE7wuCZoWy"
            ]
          }
        }, 
        {
          "value": 12.77587726,
          "n": 1,
          "scriptPubKey": {
            "asm": "OP_DUP OP_HASH160 0734fedbedf33434f04f4c279b3e5d71bf76579a OP_EQUALVERIFY OP_CHECKSIG",
            "hex": "76a9140734fedbedf33434f04f4c279b3e5d71bf76579a88ac",
            "reqSigs": 1,
            "type": "pubkeyhash",
            "addresses": [
              "LKt4UkViSZYXyXUWBBvYXR8SA1hB5cWksP"
            ]
          }
        }
      ],
      "hex": "01000000013028c8a222321a56ac3e913bb4b4f1d019865d0d29fb9e428b706bfae9fffe58020000006b483045022100aaaa392e81412154b58341c281f9424574f5ee7a44172b1729499425ef8c41100220578f4cc7c1a542204630fa5fb4a5eb8a396c8d30e231d25004026ea9bdaef9610121033df7e43bb168746ece4c62d25438cb22c8f21b9a628ae5f72fe5f9e34acf152affffffff02b7c71401000000001976a914ff74e7489878d61a69b5b88d2077ad9dd468b05788ac0e71264c000000001976a9140734fedbedf33434f04f4c279b3e5d71bf76579a88ac00000000"
    }, 
    {
      "txid": "b41a29a656fb9237e451df9390ee2e948d6329ec210a8c3343ae1b55fd30afa4",
      "hash": "4b886a7c51d56a2e1ccb259d30ea4d89c51f13dc02407f4ccfc90725c1b06129",
      "version": 1,
      "size": 371,
      "vsize": 206,
      "locktime": 0,
      "vin": [
        {
          "txid": "f881c0f6071f1c50929cde190da29c885a4987340809e14d6ddf2da14239a7f8",
          "vout": 1,
          "scriptSig": {
            "asm": "00207975c3f0d1bf8b6205e1c664d703c93d68409676bf17c5e78cdece78bdbf3dbf",
            "hex": "2200207975c3f0d1bf8b6205e1c664d703c93d68409676bf17c5e78cdece78bdbf3dbf"
          },
          "txinwitness": [
            "", 
            "304402204df1f92ebab724c639cd9b1c82db85d8427101680e1bd83f834a2ecc46de5141022015c06c982d9809dc46b2a3c9b44dfe5306e5c3967263bc17c2a4c7162482dc3201", 
            "3045022100c35fdb2eff5ce912a32a2fe130dbbb6311db2ab296eb4104ba2e336ee0158179022021c513d0ba7b8f8494329ad9eab675c446495eb3127b5e82e1aa32c603c172e501", 
            "522102611be09a0c6a571c8f68adb2481e938888756d93d4ee5b670f08c16e939b7f1a21022cc7a96a72ef014bf078a6489644e2edb05bb216d30b4f28363b637fe4463fd652ae"
          ],
          "sequence": 4294967295
        }
      ],
      "vout": [
        {
          "value": 0.00752071,
          "n": 0,
          "scriptPubKey": {
            "asm": "OP_HASH160 d186f2b2fd016f60453313ac8536c666a0164a51 OP_EQUAL",
            "hex": "a914d186f2b2fd016f60453313ac8536c666a0164a5187",
            "reqSigs": 1,
            "type": "scripthash",
            "addresses": [
              "MT137sq9FvwzkBQzMW2cPWQYTfPaTnb8rN"
            ]
          }
        }, 
        {
          "value": 8.26281389,
          "n": 1,
          "scriptPubKey": {
            "asm": "OP_HASH160 486ce63d83e8406016f310cd321d36bbdd10d412 OP_EQUAL",
            "hex": "a914486ce63d83e8406016f310cd321d36bbdd10d41287",
            "reqSigs": 1,
            "type": "scripthash",
            "addresses": [
              "MEW7Lhk6QzBLmCNp5pmpYzwv1KAcKYsSQp"
            ]
          }
        }
      ],
      "hex": "01000000000101f8a73942a12ddf6d4de109083487495a889ca20d19de9c92501c1f07f6c081f801000000232200207975c3f0d1bf8b6205e1c664d703c93d68409676bf17c5e78cdece78bdbf3dbfffffffff02c7790b000000000017a914d186f2b2fd016f60453313ac8536c666a0164a5187ad0d40310000000017a914486ce63d83e8406016f310cd321d36bbdd10d41287040047304402204df1f92ebab724c639cd9b1c82db85d8427101680e1bd83f834a2ecc46de5141022015c06c982d9809dc46b2a3c9b44dfe5306e5c3967263bc17c2a4c7162482dc3201483045022100c35fdb2eff5ce912a32a2fe130dbbb6311db2ab296eb4104ba2e336ee0158179022021c513d0ba7b8f8494329ad9eab675c446495eb3127b5e82e1aa32c603c172e50147522102611be09a0c6a571c8f68adb2481e938888756d93d4ee5b670f08c16e939b7f1a21022cc7a96a72ef014bf078a6489644e2edb05bb216d30b4f28363b637fe4463fd652ae00000000"
    }, 
    {
      "txid": "4c28aa955fb051dd927d0a2ecd379313266c0e5bfa3502a8c6d7b687a7fee9b3",
      "hash": "4c28aa955fb051dd927d0a2ecd379313266c0e5bfa3502a8c6d7b687a7fee9b3",
      "version": 1,
      "size": 191,
      "vsize": 191,
      "locktime": 1359309,
      "vin": [
        {
          "txid": "9201c6bc40fa87ab3aec3d89abb0aa871d550638b6d77ac2b6195c19ae52819d",
          "vout": 1,
          "scriptSig": {
            "asm": "30440220011fb1f7db1c70fc1cdabe38409d8ec9240a47bd4e4756d65a409224d1ce03cf022045f1cdd867fa14ed5051b2a1e85b882616eeb9987d37ca668f645035de914ed5[ALL] 0207e4aa042dacad2c31bf85f5b6384092f0504170dc0016bc011412463ed5d69e",
            "hex": "4730440220011fb1f7db1c70fc1cdabe38409d8ec9240a47bd4e4756d65a409224d1ce03cf022045f1cdd867fa14ed5051b2a1e85b882616eeb9987d37ca668f645035de914ed501210207e4aa042dacad2c31bf85f5b6384092f0504170dc0016bc011412463ed5d69e"
          },
          "sequence": 4294967294
        }
      ],
      "vout": [
        {
          "value": 0.04596477,
          "n": 0,
          "scriptPubKey": {
            "asm": "OP_DUP OP_HASH160 8ae3332b35b15d0005a4fb2b3c1afac487c7a018 OP_EQUALVERIFY OP_CHECKSIG",
            "hex": "76a9148ae3332b35b15d0005a4fb2b3c1afac487c7a01888ac",
            "reqSigs": 1,
            "type": "pubkeyhash",
            "addresses": [
              "LXtKgovin5PKLcfvjksntwfnMu9QskRG99"
            ]
          }
        }
      ],
      "hex": "01000000019d8152ae195c19b6c27ad7b63806551d87aab0ab893dec3aab87fa40bcc60192010000006a4730440220011fb1f7db1c70fc1cdabe38409d8ec9240a47bd4e4756d65a409224d1ce03cf022045f1cdd867fa14ed5051b2a1e85b882616eeb9987d37ca668f645035de914ed501210207e4aa042dacad2c31bf85f5b6384092f0504170dc0016bc011412463ed5d69efeffffff01fd224600000000001976a9148ae3332b35b15d0005a4fb2b3c1afac487c7a01888accdbd1400"
    }, 
    {
      "txid": "b9ff830a660bf1f1b704879e5e2b89700cbcc09ccefa613ec1bb062df549400c",
      "hash": "b9ff830a660bf1f1b704879e5e2b89700cbcc09ccefa613ec1bb062df549400c",
      "version": 1,
      "size": 225,
      "vsize": 225,
      "locktime": 0,
      "vin": [
        {
          "txid": "df41f1325a98e7bcab9167ed56cd5355d4783f2f35712bfffb75cc188c561f6b",
          "vout": 0,
          "scriptSig": {
            "asm": "30440220076e4efec1ac9f89556ea3645f0963e753709aa0cb5665a94cd31864fd893c1602201e96ae98e892ae535839ce73d5662156ac157d7db08122cd2d2708251738ddb2[ALL] 03ab0de232edcf082ccdec722c50891267e8cd8791e98bbdaf559a75503a5edbe7",
            "hex": "4730440220076e4efec1ac9f89556ea3645f0963e753709aa0cb5665a94cd31864fd893c1602201e96ae98e892ae535839ce73d5662156ac157d7db08122cd2d2708251738ddb2012103ab0de232edcf082ccdec722c50891267e8cd8791e98bbdaf559a75503a5edbe7"
          },
          "sequence": 4294967295
        }
      ],
      "vout": [
        {
          "value": 0.15523607,
          "n": 0,
          "scriptPubKey": {
            "asm": "OP_DUP OP_HASH160 4e28e6401a7659ecb177111a93e3ec01455a9ed5 OP_EQUALVERIFY OP_CHECKSIG",
            "hex": "76a9144e28e6401a7659ecb177111a93e3ec01455a9ed588ac",
            "reqSigs": 1,
            "type": "pubkeyhash",
            "addresses": [
              "LSMDxv944ouSa2CR4dV5hjWA7oSsezBbT3"
            ]
          }
        }, 
        {
          "value": 0.00415485,
          "n": 1,
          "scriptPubKey": {
            "asm": "OP_DUP OP_HASH160 838e65732414f875e7c7bce38cd396cfd217c69d OP_EQUALVERIFY OP_CHECKSIG",
            "hex": "76a914838e65732414f875e7c7bce38cd396cfd217c69d88ac",
            "reqSigs": 1,
            "type": "pubkeyhash",
            "addresses": [
              "LXDZND9scLpVE8EzbZH83yx4qNAanjGzxE"
            ]
          }
        }
      ],
      "hex": "01000000016b1f568c18cc75fbff2b71352f3f78d45553cd56ed6791abbce7985a32f141df000000006a4730440220076e4efec1ac9f89556ea3645f0963e753709aa0cb5665a94cd31864fd893c1602201e96ae98e892ae535839ce73d5662156ac157d7db08122cd2d2708251738ddb2012103ab0de232edcf082ccdec722c50891267e8cd8791e98bbdaf559a75503a5edbe7ffffffff0217dfec00000000001976a9144e28e6401a7659ecb177111a93e3ec01455a9ed588acfd560600000000001976a914838e65732414f875e7c7bce38cd396cfd217c69d88ac00000000"
    }, 
    {
      "txid": "296a70c6453b0913b1fa25ba07dbb1c5764161d251cf5d99814ab5725c8dad36",
      "hash": "296a70c6453b0913b1fa25ba07dbb1c5764161d251cf5d99814ab5725c8dad36",
      "version": 2,
      "size": 225,
      "vsize": 225,
      "locktime": 1359309,
      "vin": [
        {
          "txid": "d1226d9dc8c4a98da40389de06898f1f292082498b51f8ca3a4dfae9448b7499",
          "vout": 1,
          "scriptSig": {
            "asm": "304402201b404e94e65d7f66c1b3c36b940edfc257e0850ce326dc65385174e0c72a413202206799a94d87ca7656a4926ce6e400e42c78b3c5c7366cc08f78b3f6abcaa49ad1[ALL] 0297c1203a2586b93fd49e9ebc93d3318993add666bfe26b7ae564cea98a68c5fc",
            "hex": "47304402201b404e94e65d7f66c1b3c36b940edfc257e0850ce326dc65385174e0c72a413202206799a94d87ca7656a4926ce6e400e42c78b3c5c7366cc08f78b3f6abcaa49ad101210297c1203a2586b93fd49e9ebc93d3318993add666bfe26b7ae564cea98a68c5fc"
          },
          "sequence": 4294967294
        }
      ],
      "vout": [
        {
          "value": 200.80950558,
          "n": 0,
          "scriptPubKey": {
            "asm": "OP_DUP OP_HASH160 2011b8277d036fa599c426e27f15821735c18944 OP_EQUALVERIFY OP_CHECKSIG",
            "hex": "76a9142011b8277d036fa599c426e27f15821735c1894488ac",
            "reqSigs": 1,
            "type": "pubkeyhash",
            "addresses": [
              "LN9X7WkdHt9PB1BW7D89Gd44U68ouZseFy"
            ]
          }
        }, 
        {
          "value": 2.47788000,
          "n": 1,
          "scriptPubKey": {
            "asm": "OP_DUP OP_HASH160 d3cee5f3887e5c03031377c5d23c84a4432159fe OP_EQUALVERIFY OP_CHECKSIG",
            "hex": "76a914d3cee5f3887e5c03031377c5d23c84a4432159fe88ac",
            "reqSigs": 1,
            "type": "pubkeyhash",
            "addresses": [
              "LeXthENvgVW9MzqWQ4R36pkrepn7Z1uasX"
            ]
          }
        }
      ],
      "hex": "020000000199748b44e9fa4d3acaf8518b498220291f8f8906de8903a48da9c4c89d6d22d1010000006a47304402201b404e94e65d7f66c1b3c36b940edfc257e0850ce326dc65385174e0c72a413202206799a94d87ca7656a4926ce6e400e42c78b3c5c7366cc08f78b3f6abcaa49ad101210297c1203a2586b93fd49e9ebc93d3318993add666bfe26b7ae564cea98a68c5fcfeffffff021efdeaac040000001976a9142011b8277d036fa599c426e27f15821735c1894488ace0f1c40e000000001976a914d3cee5f3887e5c03031377c5d23c84a4432159fe88accdbd1400"
    }, 
    {
      "txid": "d5ff60fea3862ca5b73d21541e56f6a32708140b234daadedd170d43f0701374",
      "hash": "d5ff60fea3862ca5b73d21541e56f6a32708140b234daadedd170d43f0701374",
      "version": 1,
      "size": 225,
      "vsize": 225,
      "locktime": 0,
      "vin": [
        {
          "txid": "28d069c9e10fd06973c75270a7daaadf785c3da3dc86d77bd1e38201e2d38791",
          "vout": 0,
          "scriptSig": {
            "asm": "3044022002aa9434270ddad65da8940b080aed739416e5b1a29ad39db352662e3f8eed2f022028f16e9132ef467c7c906da02e10f05e645aebc61a0504b67a18453d08dbb038[ALL] 033a542474993affe833acfe31332d2a198a5a8aed7f112f2f4fd2bf5571d9e2b5",
            "hex": "473044022002aa9434270ddad65da8940b080aed739416e5b1a29ad39db352662e3f8eed2f022028f16e9132ef467c7c906da02e10f05e645aebc61a0504b67a18453d08dbb0380121033a542474993affe833acfe31332d2a198a5a8aed7f112f2f4fd2bf5571d9e2b5"
          },
          "sequence": 4294967295
        }
      ],
      "vout": [
        {
          "value": 0.00054919,
          "n": 0,
          "scriptPubKey": {
            "asm": "OP_DUP OP_HASH160 83afe6b401bda0a3916d2ec4c6c2ace6ddc0c32c OP_EQUALVERIFY OP_CHECKSIG",
            "hex": "76a91483afe6b401bda0a3916d2ec4c6c2ace6ddc0c32c88ac",
            "reqSigs": 1,
            "type": "pubkeyhash",
            "addresses": [
              "LXEFWAtdqVg9uQirrZPUrEE3aFGyHiN2hu"
            ]
          }
        }, 
        {
          "value": 0.00349009,
          "n": 1,
          "scriptPubKey": {
            "asm": "OP_DUP OP_HASH160 c6df6089621149c2ed4229736d1355a8d12ffcbe OP_EQUALVERIFY OP_CHECKSIG",
            "hex": "76a914c6df6089621149c2ed4229736d1355a8d12ffcbe88ac",
            "reqSigs": 1,
            "type": "pubkeyhash",
            "addresses": [
              "LdMVei2a5Ab4bqhuGBfRwHMK2pwFpDXHZT"
            ]
          }
        }
      ],
      "hex": "01000000019187d3e20182e3d17bd786dca33d5c78dfaadaa77052c77369d00fe1c969d028000000006a473044022002aa9434270ddad65da8940b080aed739416e5b1a29ad39db352662e3f8eed2f022028f16e9132ef467c7c906da02e10f05e645aebc61a0504b67a18453d08dbb0380121033a542474993affe833acfe31332d2a198a5a8aed7f112f2f4fd2bf5571d9e2b5ffffffff0287d60000000000001976a91483afe6b401bda0a3916d2ec4c6c2ace6ddc0c32c88ac51530500000000001976a914c6df6089621149c2ed4229736d1355a8d12ffcbe88ac00000000"
    }, 
    {
      "txid": "7adbb89f6e27ea98d7dc89894cec67cd5ae3e9975f8fb809356f1ce284370251",
      "hash": "7adbb89f6e27ea98d7dc89894cec67cd5ae3e9975f8fb809356f1ce284370251",
      "version": 1,
      "size": 226,
      "vsize": 226,
      "locktime": 0,
      "vin": [
        {
          "txid": "95b0a79fe530dd3eb9135277a49dc51eeab83d6c88c6e02a061799f0b7ffae96",
          "vout": 0,
          "scriptSig": {
            "asm": "3045022100e4c3fbb51863fb6fda61da51750f138e09f8c777999af6f3871c94f55cf4bf57022016c1224bd9f0506cb8b54407066a08f5112638a6f231b66e251b8a63570eaf2a[ALL] 0295909c0af8115822ed2b6d83a5acf1eca4e1a5fbb4e4ea442f53bf69df499ffb",
            "hex": "483045022100e4c3fbb51863fb6fda61da51750f138e09f8c777999af6f3871c94f55cf4bf57022016c1224bd9f0506cb8b54407066a08f5112638a6f231b66e251b8a63570eaf2a01210295909c0af8115822ed2b6d83a5acf1eca4e1a5fbb4e4ea442f53bf69df499ffb"
          },
          "sequence": 4294967295
        }
      ],
      "vout": [
        {
          "value": 55.82899119,
          "n": 0,
          "scriptPubKey": {
            "asm": "OP_DUP OP_HASH160 5716c73541fd707a55387de887b15d1b212d4af4 OP_EQUALVERIFY OP_CHECKSIG",
            "hex": "76a9145716c73541fd707a55387de887b15d1b212d4af488ac",
            "reqSigs": 1,
            "type": "pubkeyhash",
            "addresses": [
              "LTASLZDgpPmV45LLxB6Btp8JdBfHaev5CK"
            ]
          }
        }, 
        {
          "value": 2.79242934,
          "n": 1,
          "scriptPubKey": {
            "asm": "OP_DUP OP_HASH160 f34670eb4448f8ab40e84d6ff849ff5a6fbe64a2 OP_EQUALVERIFY OP_CHECKSIG",
            "hex": "76a914f34670eb4448f8ab40e84d6ff849ff5a6fbe64a288ac",
            "reqSigs": 1,
            "type": "pubkeyhash",
            "addresses": [
              "LhQGrAGHj8pf7z7uTFQvXYRHb9gBnQRo1J"
            ]
          }
        }
      ],
      "hex": "010000000196aeffb7f09917062ae0c6886c3db8ea1ec59da4775213b93edd30e59fa7b095000000006b483045022100e4c3fbb51863fb6fda61da51750f138e09f8c777999af6f3871c94f55cf4bf57022016c1224bd9f0506cb8b54407066a08f5112638a6f231b66e251b8a63570eaf2a01210295909c0af8115822ed2b6d83a5acf1eca4e1a5fbb4e4ea442f53bf69df499ffbffffffff02af47c44c010000001976a9145716c73541fd707a55387de887b15d1b212d4af488acb6e8a410000000001976a914f34670eb4448f8ab40e84d6ff849ff5a6fbe64a288ac00000000"
    }, 
    {
      "txid": "1ed474ef520d9b8f792a0fe849412497d5de94ed49c3a4b30634b5af89dd7d69",
      "hash": "1ed474ef520d9b8f792a0fe849412497d5de94ed49c3a4b30634b5af89dd7d69",
      "version": 1,
      "size": 226,
      "vsize": 226,
      "locktime": 0,
      "vin": [
        {
          "txid": "b0bc495539073f91a6ee5459f7bfa65d3a708f28fc307a96b15d15c0b3013815",
          "vout": 0,
          "scriptSig": {
            "asm": "3045022100eaba9203f2dc5c6f2bcea913acb206cbbd2d300256f0a361cab9c58558eb3f0202204555aee8cef7bde865bdf9b27a9d39a56facfff062a93b79a000c8fb85e2c449[ALL] 03029f3a84d505702208ddf13ec37bc266f647e4adb323228dbf8142228e5c6b20",
            "hex": "483045022100eaba9203f2dc5c6f2bcea913acb206cbbd2d300256f0a361cab9c58558eb3f0202204555aee8cef7bde865bdf9b27a9d39a56facfff062a93b79a000c8fb85e2c449012103029f3a84d505702208ddf13ec37bc266f647e4adb323228dbf8142228e5c6b20"
          },
          "sequence": 4294967295
        }
      ],
      "vout": [
        {
          "value": 2.70571877,
          "n": 0,
          "scriptPubKey": {
            "asm": "OP_DUP OP_HASH160 bc06cb1265b3c11fcc4f1f0b2bbad65e09b4a91d OP_EQUALVERIFY OP_CHECKSIG",
            "hex": "76a914bc06cb1265b3c11fcc4f1f0b2bbad65e09b4a91d88ac",
            "reqSigs": 1,
            "type": "pubkeyhash",
            "addresses": [
              "LcN9SHDTALEPxfGaS9pjmJxrbgaKtP5rjo"
            ]
          }
        }, 
        {
          "value": 57.15173500,
          "n": 1,
          "scriptPubKey": {
            "asm": "OP_DUP OP_HASH160 b4a1155de9ca3e818a8f30495ebeacf83fbb6433 OP_EQUALVERIFY OP_CHECKSIG",
            "hex": "76a914b4a1155de9ca3e818a8f30495ebeacf83fbb643388ac",
            "reqSigs": 1,
            "type": "pubkeyhash",
            "addresses": [
              "Lbh2s1z8QAnGqg2f39WVbrddYdzmGay6Rk"
            ]
          }
        }
      ],
      "hex": "0100000001153801b3c0155db1967a30fc288f703a5da6bff75954eea6913f07395549bcb0000000006b483045022100eaba9203f2dc5c6f2bcea913acb206cbbd2d300256f0a361cab9c58558eb3f0202204555aee8cef7bde865bdf9b27a9d39a56facfff062a93b79a000c8fb85e2c449012103029f3a84d505702208ddf13ec37bc266f647e4adb323228dbf8142228e5c6b20ffffffff0265992010000000001976a914bc06cb1265b3c11fcc4f1f0b2bbad65e09b4a91d88ac7ca0a654010000001976a914b4a1155de9ca3e818a8f30495ebeacf83fbb643388ac00000000"
    }, 
    {
      "txid": "b2ae2275a4719207f86d6918ba863f7fad41fdfcd7ea5d4c1c6297d44f882be4",
      "hash": "b2ae2275a4719207f86d6918ba863f7fad41fdfcd7ea5d4c1c6297d44f882be4",
      "version": 1,
      "size": 226,
      "vsize": 226,
      "locktime": 0,
      "vin": [
        {
          "txid": "d226e5ada29a2664b98b915758a68d92a7109aa30ed56f5a7f7813386695af13",
          "vout": 1,
          "scriptSig": {
            "asm": "3045022100cd430653c3b6469ff338e95ce4a8c74b732f4b04726080fbe30ab72d517c4bc10220669ae30c847ae6b9dd90df2d8acf637983e474132740f1640a8ea3cdd2757708[ALL] 030ee44adbcf09cd3819ea37907934a33b1e18288155e8fa4260507096392a3ff1",
            "hex": "483045022100cd430653c3b6469ff338e95ce4a8c74b732f4b04726080fbe30ab72d517c4bc10220669ae30c847ae6b9dd90df2d8acf637983e474132740f1640a8ea3cdd27577080121030ee44adbcf09cd3819ea37907934a33b1e18288155e8fa4260507096392a3ff1"
          },
          "sequence": 4294967295
        }
      ],
      "vout": [
        {
          "value": 52.38717148,
          "n": 0,
          "scriptPubKey": {
            "asm": "OP_DUP OP_HASH160 5595fea71ff57d400a5619ddde390eac23fde1cf OP_EQUALVERIFY OP_CHECKSIG",
            "hex": "76a9145595fea71ff57d400a5619ddde390eac23fde1cf88ac",
            "reqSigs": 1,
            "type": "pubkeyhash",
            "addresses": [
              "LT2VPLRTzS6uCZo2AaVHy3YU3B5oQptoFY"
            ]
          }
        }, 
        {
          "value": 8.26782642,
          "n": 1,
          "scriptPubKey": {
            "asm": "OP_DUP OP_HASH160 49beba8fe9f99b39a98ceb5604e33293fac54d09 OP_EQUALVERIFY OP_CHECKSIG",
            "hex": "76a91449beba8fe9f99b39a98ceb5604e33293fac54d0988ac",
            "reqSigs": 1,
            "type": "pubkeyhash",
            "addresses": [
              "LRwt5HNayMqxopZisEonrFoZXHQia7zL7H"
            ]
          }
        }
      ],
      "hex": "010000000113af95663813787f5a6fd50ea39a10a7928da65857918bb964269aa2ade526d2010000006b483045022100cd430653c3b6469ff338e95ce4a8c74b732f4b04726080fbe30ab72d517c4bc10220669ae30c847ae6b9dd90df2d8acf637983e474132740f1640a8ea3cdd27577080121030ee44adbcf09cd3819ea37907934a33b1e18288155e8fa4260507096392a3ff1ffffffff02dc7a4038010000001976a9145595fea71ff57d400a5619ddde390eac23fde1cf88acb2b34731000000001976a91449beba8fe9f99b39a98ceb5604e33293fac54d0988ac00000000"
    }
  ],
  "time": 1517266824,
  "mediantime": 1517266268,
  "nonce": 4053286593,
  "bits": "1a042eae",
  "difficulty": 4011378.762614286,
  "chainwork": "000000000000000000000000000000000000000000000033e2e4a79fb49d40a0",
  "previousblockhash": "5b16fef91e88dca183c547e17cf609abf85311429c15d89bba35d900cdfc81f3",
  "nextblockhash": "f2920cbb3c5819f4a5b2f71e92474dcd75990cfece5715bdd84821e923eea3d6"
}
