{
  "hash": "1135a09eb7cd9cc2cce7cb2867e4a0f9243289a26d7cd7a1d11d31fc6602e089",
  "confirmations": 2433,
  "strippedsize": 1930,
  "size": 2187,
  "weight": 7977,
  "height": 1358562,
  "version": 536870912,
  "versionHex": "20000000",
  "merkleroot": "fe24e00482bcbb29ff80d23bf8a469419216bf56be2fc48cce530e4240c1c028",
  "tx": [
    {
      "txid": "23034c2ebbf2780ccc29a475d698b7fc2d8b3f1534f6ccd47ded9080cfaa780e",
      "hash": "94b9a40664b41824ab4908736c7719bfb320e8cc9d984ec18b0b60bb9ae0197c",
      "version": 1,
      "size": 277,
      "vsize": 250,
      "locktime": 958052970,
      "vin": [
        {
          "coinbase": "03e2ba142cfabe6d6d1c538f98176ef3b8707f95c49b7f9de195ddd33bec2fe04b761f0eafc966a0d408000000f09f909f0d4d696e6564206279206c73776d00000000000000000000000000000000000000000000000000000000000000000000000000",
          "sequence": 8
        }
      ],
      "vout": [
        {
          "value": 25.01046700,
          "n": 0,
          "scriptPubKey": {
            "asm": "OP_DUP OP_HASH160 aa3750aa18b8a0f3f0590731e1fab934856680cf OP_EQUALVERIFY OP_CHECKSIG",
            "hex": "76a914aa3750aa18b8a0f3f0590731e1fab934856680cf88ac",
            "reqSigs": 1,
            "type": "pubkeyhash",
            "addresses": [
              "LajyQBeZaBA1NkZDeY8YT5RYYVRkXMvb2T"
            ]
          }
        }, 
        {
          "value": 0.00000000,
          "n": 1,
          "scriptPubKey": {
            "asm": "OP_RETURN aa21a9ed23ebd8a543733cc7a9d35e6fcdddf6c71d46f3d83fa4edd4987791602f679ec4 0000000000000000",
            "hex": "6a24aa21a9ed23ebd8a543733cc7a9d35e6fcdddf6c71d46f3d83fa4edd4987791602f679ec4080000000000000000",
            "type": "nulldata"
          }
        }
      ],
      "hex": "010000000001010000000000000000000000000000000000000000000000000000000000000000ffffffff6403e2ba142cfabe6d6d1c538f98176ef3b8707f95c49b7f9de195ddd33bec2fe04b761f0eafc966a0d408000000f09f909f0d4d696e6564206279206c73776d000000000000000000000000000000000000000000000000000000000000000000000000000800000002acf11295000000001976a914aa3750aa18b8a0f3f0590731e1fab934856680cf88ac00000000000000002f6a24aa21a9ed23ebd8a543733cc7a9d35e6fcdddf6c71d46f3d83fa4edd4987791602f679ec4080000000000000000012000000000000000000000000000000000000000000000000000000000000000006aba1a39"
    }, 
    {
      "txid": "c0d581148cf925068ec562a2c0fe6ddd7c4eb713d1ea3607b381f44eb16bdb43",
      "hash": "c0d581148cf925068ec562a2c0fe6ddd7c4eb713d1ea3607b381f44eb16bdb43",
      "version": 1,
      "size": 224,
      "vsize": 224,
      "locktime": 0,
      "vin": [
        {
          "txid": "8533a7fd189c623462be7107f92f1e2f0a92ff7f21c89f1a9c94ec789816132f",
          "vout": 1,
          "scriptSig": {
            "asm": "3045022100e280f4fb93e58102381c1e3aa9e492e07059f19ef115de9654ee318538ebc031022062f017a014781b94782b477e12187efae478f0925e10cd30e1cf0e9b7029f020[ALL] 03045557468cb480ae3fdf7b18f7869def61be4e141fdfcba7f53ba667d2007c9a",
            "hex": "483045022100e280f4fb93e58102381c1e3aa9e492e07059f19ef115de9654ee318538ebc031022062f017a014781b94782b477e12187efae478f0925e10cd30e1cf0e9b7029f020012103045557468cb480ae3fdf7b18f7869def61be4e141fdfcba7f53ba667d2007c9a"
          },
          "sequence": 4294967295
        }
      ],
      "vout": [
        {
          "value": 0.20000000,
          "n": 0,
          "scriptPubKey": {
            "asm": "OP_HASH160 8324291cd4cac919b7cc670e1bfd73b52fed08d5 OP_EQUAL",
            "hex": "a9148324291cd4cac919b7cc670e1bfd73b52fed08d587",
            "reqSigs": 1,
            "type": "scripthash",
            "addresses": [
              "MKra53QMe221aQSWnxuXcPETv7imMBSQdd"
            ]
          }
        }, 
        {
          "value": 1294.13222974,
          "n": 1,
          "scriptPubKey": {
            "asm": "OP_DUP OP_HASH160 8c184560f54552e065fe1a43a555ab79bb9fd40b OP_EQUALVERIFY OP_CHECKSIG",
            "hex": "76a9148c184560f54552e065fe1a43a555ab79bb9fd40b88ac",
            "reqSigs": 1,
            "type": "pubkeyhash",
            "addresses": [
              "LXzhwSyYhTxZt4piVs7KvYPAWKDdXvMTNo"
            ]
          }
        }
      ],
      "hex": "01000000012f13169878ec949c1a9fc8217fff920a2f1e2ff90771be6234629c18fda73385010000006b483045022100e280f4fb93e58102381c1e3aa9e492e07059f19ef115de9654ee318538ebc031022062f017a014781b94782b477e12187efae478f0925e10cd30e1cf0e9b7029f020012103045557468cb480ae3fdf7b18f7869def61be4e141fdfcba7f53ba667d2007c9affffffff02002d31010000000017a9148324291cd4cac919b7cc670e1bfd73b52fed08d5873e12a1211e0000001976a9148c184560f54552e065fe1a43a555ab79bb9fd40b88ac00000000"
    }, 
    {
      "txid": "51d5c69ee93c44083d480dc176795d2eb4a75f0ac1e531d7a8e06d64fd7d8913",
      "hash": "51d5c69ee93c44083d480dc176795d2eb4a75f0ac1e531d7a8e06d64fd7d8913",
      "version": 1,
      "size": 226,
      "vsize": 226,
      "locktime": 0,
      "vin": [
        {
          "txid": "2cb31a92a60c8f85d031a2b792e9bfb877463206d7040ad1832f0ad0cb647987",
          "vout": 1,
          "scriptSig": {
            "asm": "3045022100aacb7712580ccc50aad0a40686976d8de52bd0423bab00d7597a4c6af5ac08980220479cbc77bab31bc42ca677e3c9eb2bf5b7226b678823b6a051746631bf49c374[ALL] 028876b25506c1b95ac79005f201f0b17935e63686004dd00f1f7152f86115b200",
            "hex": "483045022100aacb7712580ccc50aad0a40686976d8de52bd0423bab00d7597a4c6af5ac08980220479cbc77bab31bc42ca677e3c9eb2bf5b7226b678823b6a051746631bf49c3740121028876b25506c1b95ac79005f201f0b17935e63686004dd00f1f7152f86115b200"
          },
          "sequence": 4294967295
        }
      ],
      "vout": [
        {
          "value": 2.61207608,
          "n": 0,
          "scriptPubKey": {
            "asm": "OP_DUP OP_HASH160 5ab9666ceda3f12e1aa92c498a9c4e853714479f OP_EQUALVERIFY OP_CHECKSIG",
            "hex": "76a9145ab9666ceda3f12e1aa92c498a9c4e853714479f88ac",
            "reqSigs": 1,
            "type": "pubkeyhash",
            "addresses": [
              "LTVfBJVt917afBaS8q3gNbfkkETCkAVu2n"
            ]
          }
        }, 
        {
          "value": 0.18577692,
          "n": 1,
          "scriptPubKey": {
            "asm": "OP_DUP OP_HASH160 f590e907562e91e33f0035237f1326c7646db89c OP_EQUALVERIFY OP_CHECKSIG",
            "hex": "76a914f590e907562e91e33f0035237f1326c7646db89c88ac",
            "reqSigs": 1,
            "type": "pubkeyhash",
            "addresses": [
              "LhcPQkejjEbHQAmC3Ur2khKJfGA43SPGic"
            ]
          }
        }
      ],
      "hex": "0100000001877964cbd00a2f83d10a04d706324677b8bfe992b7a231d0858f0ca6921ab32c010000006b483045022100aacb7712580ccc50aad0a40686976d8de52bd0423bab00d7597a4c6af5ac08980220479cbc77bab31bc42ca677e3c9eb2bf5b7226b678823b6a051746631bf49c3740121028876b25506c1b95ac79005f201f0b17935e63686004dd00f1f7152f86115b200ffffffff0238b6910f000000001976a9145ab9666ceda3f12e1aa92c498a9c4e853714479f88ac1c791b01000000001976a914f590e907562e91e33f0035237f1326c7646db89c88ac00000000"
    }, 
    {
      "txid": "771b37747786bc68d5846f01fc07fe8494b5a64aaebf90fe2991a03aad03ed71",
      "hash": "771b37747786bc68d5846f01fc07fe8494b5a64aaebf90fe2991a03aad03ed71",
      "version": 1,
      "size": 335,
      "vsize": 335,
      "locktime": 0,
      "vin": [
        {
          "txid": "bb720b51c043c32c60af2c460fad2edb36fbe65fad36c6feaa3728852b920449",
          "vout": 1,
          "scriptSig": {
            "asm": "0 3045022100cfea4488efc5e1858f6e593107666a426169d394bf8a162d44677706c6694d8b02203599e0772a567a63ce78a988622d571b8350c6b266b7d650b035535387330799[ALL] 304402203d6d1ed8aeda6bc4de1e0a00cd6594888a67a798a9e416aef742af01d728f33802202a6c563692515c4986bff9d8c6b645e6b585d49d4d9f276a5b28520c1fd9d79e[ALL] 522102f77ec37a042ba4e5e6aef7760398bf59b87ac4c5dee30a2fb8798e9630d4916e210276b93401dc495b28592f66411a7c9093b468f8678db51144fc6a36f550d94aa952ae",
            "hex": "00483045022100cfea4488efc5e1858f6e593107666a426169d394bf8a162d44677706c6694d8b02203599e0772a567a63ce78a988622d571b8350c6b266b7d650b0355353873307990147304402203d6d1ed8aeda6bc4de1e0a00cd6594888a67a798a9e416aef742af01d728f33802202a6c563692515c4986bff9d8c6b645e6b585d49d4d9f276a5b28520c1fd9d79e0147522102f77ec37a042ba4e5e6aef7760398bf59b87ac4c5dee30a2fb8798e9630d4916e210276b93401dc495b28592f66411a7c9093b468f8678db51144fc6a36f550d94aa952ae"
          },
          "sequence": 4294967295
        }
      ],
      "vout": [
        {
          "value": 0.02986900,
          "n": 0,
          "scriptPubKey": {
            "asm": "OP_DUP OP_HASH160 d7b518ba03542a5d91cef9e923663bf4d874f6ea OP_EQUALVERIFY OP_CHECKSIG",
            "hex": "76a914d7b518ba03542a5d91cef9e923663bf4d874f6ea88ac",
            "reqSigs": 1,
            "type": "pubkeyhash",
            "addresses": [
              "LetWVGW9dQq1bHZF3rmTQCb5jXyGuSkGJR"
            ]
          }
        }, 
        {
          "value": 24.71151000,
          "n": 1,
          "scriptPubKey": {
            "asm": "OP_HASH160 75b77316f8d91ff71fb2819115d1b6b9e80ccee9 OP_EQUAL",
            "hex": "a91475b77316f8d91ff71fb2819115d1b6b9e80ccee987",
            "reqSigs": 1,
            "type": "scripthash",
            "addresses": [
              "MJdb4B3BMDrfpB1FpKsPYQ1tDHdkNa1oLB"
            ]
          }
        }
      ],
      "hex": "01000000014904922b852837aafec636ad5fe6fb36db2ead0f462caf602cc343c0510b72bb01000000da00483045022100cfea4488efc5e1858f6e593107666a426169d394bf8a162d44677706c6694d8b02203599e0772a567a63ce78a988622d571b8350c6b266b7d650b0355353873307990147304402203d6d1ed8aeda6bc4de1e0a00cd6594888a67a798a9e416aef742af01d728f33802202a6c563692515c4986bff9d8c6b645e6b585d49d4d9f276a5b28520c1fd9d79e0147522102f77ec37a042ba4e5e6aef7760398bf59b87ac4c5dee30a2fb8798e9630d4916e210276b93401dc495b28592f66411a7c9093b468f8678db51144fc6a36f550d94aa952aeffffffff0294932d00000000001976a914d7b518ba03542a5d91cef9e923663bf4d874f6ea88ac98c54a930000000017a91475b77316f8d91ff71fb2819115d1b6b9e80ccee98700000000"
    }, 
    {
      "txid": "4a377a93fe5121ae62fae8713fff096fb7120a3003445b8701ba04dc20f56594",
      "hash": "4a377a93fe5121ae62fae8713fff096fb7120a3003445b8701ba04dc20f56594",
      "version": 1,
      "size": 221,
      "vsize": 221,
      "locktime": 0,
      "vin": [
        {
          "txid": "a077fee09ea066782f3658f657d73f7a46fb3404141700f6ffec2f4622062e9d",
          "vout": 3,
          "scriptSig": {
            "asm": "304402203c832034668433c50cf67618e81d888864835c152cc1af8bb97f916d293015fb022010bcdc19d2524e3f0a67b2e8163bb1bdad961016f793c77c70207fd6fde78346[ALL] 02b1a572e593d6a85574a996501e04ce09701a34b8a1257f3cc0619f83eb207b41",
            "hex": "47304402203c832034668433c50cf67618e81d888864835c152cc1af8bb97f916d293015fb022010bcdc19d2524e3f0a67b2e8163bb1bdad961016f793c77c70207fd6fde78346012102b1a572e593d6a85574a996501e04ce09701a34b8a1257f3cc0619f83eb207b41"
          },
          "sequence": 4294967295
        }
      ],
      "vout": [
        {
          "value": 0.01990000,
          "n": 0,
          "scriptPubKey": {
            "asm": "OP_HASH160 cd2b76aa29c30e6de863e4bac1e5ec7ea224129e OP_EQUAL",
            "hex": "a914cd2b76aa29c30e6de863e4bac1e5ec7ea224129e87",
            "reqSigs": 1,
            "type": "scripthash",
            "addresses": [
              "MSbzpevgxwPp3NQXNkPELK25Lvjng7DcBk"
            ]
          }
        }, 
        {
          "value": 1.96910000,
          "n": 1,
          "scriptPubKey": {
            "asm": "OP_HASH160 198263a31da46a793500d512bee40cd207ab85fd OP_EQUAL",
            "hex": "a914198263a31da46a793500d512bee40cd207ab85fd87",
            "reqSigs": 1,
            "type": "scripthash",
            "addresses": [
              "MAE3Kpv2dojMBwT6ajgDE6S48WjeUjt9Wc"
            ]
          }
        }
      ],
      "hex": "01000000019d2e0622462fecfff60017140434fb467a3fd757f658362f7866a09ee0fe77a0030000006a47304402203c832034668433c50cf67618e81d888864835c152cc1af8bb97f916d293015fb022010bcdc19d2524e3f0a67b2e8163bb1bdad961016f793c77c70207fd6fde78346012102b1a572e593d6a85574a996501e04ce09701a34b8a1257f3cc0619f83eb207b41ffffffff02705d1e000000000017a914cd2b76aa29c30e6de863e4bac1e5ec7ea224129e87b09bbc0b0000000017a914198263a31da46a793500d512bee40cd207ab85fd8700000000"
    }, 
    {
      "txid": "3a76c7533c04d5cf42e0415a613c8ad19d22692f581663d5d1f40ac753ef7d97",
      "hash": "b9043731765da4255c5271226bc42619ffdf9db7f4cdf26fd5f84031de860230",
      "version": 1,
      "size": 373,
      "vsize": 208,
      "locktime": 0,
      "vin": [
        {
          "txid": "133e3b8e2bfcd585ebe2b27ce7b8808f55f3850300e211091cd49624e66811ba",
          "vout": 1,
          "scriptSig": {
            "asm": "0020409fd93c7351b461fa46963fa28755038f397ee054ab9e56eda0b1081d768cc4",
            "hex": "220020409fd93c7351b461fa46963fa28755038f397ee054ab9e56eda0b1081d768cc4"
          },
          "txinwitness": [
            "", 
            "3044022075f0d1036bf82a6a7257a71b1d4809984a2be6182e47d00f343de79e804c628d022028f2791cdfcbd4e2a3c3f694bb082f01c14e43dbfbe01eb5b914c7db3c18caaf01", 
            "3045022100cdd16b9869f9cd18a058961089c833ab2e520820315cdda4ff704ba3039daab302207d4e5ed1d7b47e9d240e8c8a79aa9bda9424bcad88815a5be7bd2ced6caa72e701", 
            "522103ceb293b39e087131961da42b3deaef48432d57a08bfd111247901be2936525b32103fa185b0d6c2a6d812d1a9418c54b3cea527d229a73a0c6c72345a1851ebcdad352ae"
          ],
          "sequence": 4294967295
        }
      ],
      "vout": [
        {
          "value": 0.01041700,
          "n": 0,
          "scriptPubKey": {
            "asm": "OP_DUP OP_HASH160 ba7b78d5d2971d24072c1f22033c84ee52fa1c74 OP_EQUALVERIFY OP_CHECKSIG",
            "hex": "76a914ba7b78d5d2971d24072c1f22033c84ee52fa1c7488ac",
            "reqSigs": 1,
            "type": "pubkeyhash",
            "addresses": [
              "LcDyrsxFte4JCNA55FJBARc8aCEvjo2kcu"
            ]
          }
        }, 
        {
          "value": 0.91537100,
          "n": 1,
          "scriptPubKey": {
            "asm": "OP_HASH160 2d9ba1f1c217fd18a576b17eaf8a1c6f1cd2f1de OP_EQUAL",
            "hex": "a9142d9ba1f1c217fd18a576b17eaf8a1c6f1cd2f1de87",
            "reqSigs": 1,
            "type": "scripthash",
            "addresses": [
              "MC4K5c2x6rcVohDBLrLNQRsqL5atuzztot"
            ]
          }
        }
      ],
      "hex": "01000000000101ba1168e62496d41c0911e2000385f3558f80b8e77cb2e2eb85d5fc2b8e3b3e130100000023220020409fd93c7351b461fa46963fa28755038f397ee054ab9e56eda0b1081d768cc4ffffffff0224e50f00000000001976a914ba7b78d5d2971d24072c1f22033c84ee52fa1c7488acccbe74050000000017a9142d9ba1f1c217fd18a576b17eaf8a1c6f1cd2f1de870400473044022075f0d1036bf82a6a7257a71b1d4809984a2be6182e47d00f343de79e804c628d022028f2791cdfcbd4e2a3c3f694bb082f01c14e43dbfbe01eb5b914c7db3c18caaf01483045022100cdd16b9869f9cd18a058961089c833ab2e520820315cdda4ff704ba3039daab302207d4e5ed1d7b47e9d240e8c8a79aa9bda9424bcad88815a5be7bd2ced6caa72e70147522103ceb293b39e087131961da42b3deaef48432d57a08bfd111247901be2936525b32103fa185b0d6c2a6d812d1a9418c54b3cea527d229a73a0c6c72345a1851ebcdad352ae00000000"
    }, 
    {
      "txid": "b374e4693f9c8293189f686c3da670bbd8234ed094429f857eaab334978d55c6",
      "hash": "b374e4693f9c8293189f686c3da670bbd8234ed094429f857eaab334978d55c6",
      "version": 1,
      "size": 225,
      "vsize": 225,
      "locktime": 0,
      "vin": [
        {
          "txid": "ff3e0c17684e7301f72cd254be33f3dfd68b4391fe0fd936fc5cd7e46e2881c5",
          "vout": 0,
          "scriptSig": {
            "asm": "3044022042b2b3d921bf5c1bce42d73da93e73862f94098fd9068ac3c0d150e64a0daabe022023abfb9a8cf48d0a0e2a199020f7c4f2c6cea4f4c5bcf78aae670a5a06360193[ALL] 02d4196f945ae95349c0ceae1d8af1029aec8cef8d955cf77c2cf4976ef092773d",
            "hex": "473044022042b2b3d921bf5c1bce42d73da93e73862f94098fd9068ac3c0d150e64a0daabe022023abfb9a8cf48d0a0e2a199020f7c4f2c6cea4f4c5bcf78aae670a5a06360193012102d4196f945ae95349c0ceae1d8af1029aec8cef8d955cf77c2cf4976ef092773d"
          },
          "sequence": 4294967295
        }
      ],
      "vout": [
        {
          "value": 3.26087727,
          "n": 0,
          "scriptPubKey": {
            "asm": "OP_DUP OP_HASH160 21cac63a1b4d824d0fdc88d6869ac4e9745ae1fb OP_EQUALVERIFY OP_CHECKSIG",
            "hex": "76a91421cac63a1b4d824d0fdc88d6869ac4e9745ae1fb88ac",
            "reqSigs": 1,
            "type": "pubkeyhash",
            "addresses": [
              "LNJdUYsz2EGbXqMcT9g2s3GJNaqoNRcd9Z"
            ]
          }
        }, 
        {
          "value": 31.14781586,
          "n": 1,
          "scriptPubKey": {
            "asm": "OP_DUP OP_HASH160 d02b51778319eb899b68fea69b90f905446ad5d3 OP_EQUALVERIFY OP_CHECKSIG",
            "hex": "76a914d02b51778319eb899b68fea69b90f905446ad5d388ac",
            "reqSigs": 1,
            "type": "pubkeyhash",
            "addresses": [
              "LeCehv9S6ZvNyRBUe7ZgUv9JLBJUdtb2cP"
            ]
          }
        }
      ],
      "hex": "0100000001c581286ee4d75cfc36d90ffe91438bd6dff333be54d22cf701734e68170c3eff000000006a473044022042b2b3d921bf5c1bce42d73da93e73862f94098fd9068ac3c0d150e64a0daabe022023abfb9a8cf48d0a0e2a199020f7c4f2c6cea4f4c5bcf78aae670a5a06360193012102d4196f945ae95349c0ceae1d8af1029aec8cef8d955cf77c2cf4976ef092773dffffffff022fb46f13000000001976a91421cac63a1b4d824d0fdc88d6869ac4e9745ae1fb88ac92cba7b9000000001976a914d02b51778319eb899b68fea69b90f905446ad5d388ac00000000"
    }, 
    {
      "txid": "69a4f68b325172940adbb68a12b38d319eb2db40165327c969d67b7dd20b0afa",
      "hash": "69a4f68b325172940adbb68a12b38d319eb2db40165327c969d67b7dd20b0afa",
      "version": 2,
      "size": 225,
      "vsize": 225,
      "locktime": 1358560,
      "vin": [
        {
          "txid": "1ac0472e5cf26902cd4c9ec9e8a396b6f862dfcdfe3771cd44f070fcd5bab64d",
          "vout": 1,
          "scriptSig": {
            "asm": "304402205d837a8f5ec42040b7b405c1a944ac2d2aa32223e151ea3e4adbdc0b1196033802204b3497df9193f62b16ca3b47e81114e361791f4ad0ff2102959ea3679562a848[ALL] 03c170f81b8332f2b0c0a8e5d9795264895a12bfab9f756c6aac6c523884fea550",
            "hex": "47304402205d837a8f5ec42040b7b405c1a944ac2d2aa32223e151ea3e4adbdc0b1196033802204b3497df9193f62b16ca3b47e81114e361791f4ad0ff2102959ea3679562a848012103c170f81b8332f2b0c0a8e5d9795264895a12bfab9f756c6aac6c523884fea550"
          },
          "sequence": 4294967294
        }
      ],
      "vout": [
        {
          "value": 1.87534675,
          "n": 0,
          "scriptPubKey": {
            "asm": "OP_DUP OP_HASH160 abec768662cb6ec8d192a55fa3fed079f4a00e70 OP_EQUALVERIFY OP_CHECKSIG",
            "hex": "76a914abec768662cb6ec8d192a55fa3fed079f4a00e7088ac",
            "reqSigs": 1,
            "type": "pubkeyhash",
            "addresses": [
              "Lau15kbXKWxsSXyWUrpjeb5wxiwHs5oUwQ"
            ]
          }
        }, 
        {
          "value": 12.29600000,
          "n": 1,
          "scriptPubKey": {
            "asm": "OP_DUP OP_HASH160 df945c21d68dfc8754b083afb69f8441fc3c3c02 OP_EQUALVERIFY OP_CHECKSIG",
            "hex": "76a914df945c21d68dfc8754b083afb69f8441fc3c3c0288ac",
            "reqSigs": 1,
            "type": "pubkeyhash",
            "addresses": [
              "Lfc8gDYnVGgUKrRmtU2KsutKV5CNvEBLqy"
            ]
          }
        }
      ],
      "hex": "02000000014db6bad5fc70f044cd7137fecddf62f8b696a3e8c99e4ccd0269f25c2e47c01a010000006a47304402205d837a8f5ec42040b7b405c1a944ac2d2aa32223e151ea3e4adbdc0b1196033802204b3497df9193f62b16ca3b47e81114e361791f4ad0ff2102959ea3679562a848012103c170f81b8332f2b0c0a8e5d9795264895a12bfab9f756c6aac6c523884fea550feffffff02538d2d0b000000001976a914abec768662cb6ec8d192a55fa3fed079f4a00e7088ac00354a49000000001976a914df945c21d68dfc8754b083afb69f8441fc3c3c0288ace0ba1400"
    }
  ],
  "time": 1517158270,
  "mediantime": 1517158056,
  "nonce": 4135699980,
  "bits": "1a047f14",
  "difficulty": 3731199.183374282,
  "chainwork": "000000000000000000000000000000000000000000000033337f693c4698420e",
  "previousblockhash": "ab3ecbf77343bc1ec4c76c320b2f6b098d7b6649bdce3f16615a75f8938534c4",
  "nextblockhash": "3010600a0f060b1a737af67470050179ffba8b34962519769f3777f12fc5f1a3"
}
