{
  "hash": "1190968b2dd07d6d0d726938d4eedd2f5410f78f0ba4bfb39e54dbc48954e42e",
  "confirmations": 396,
  "strippedsize": 4103,
  "size": 4359,
  "weight": 16668,
  "height": 1360598,
  "version": 536870912,
  "versionHex": "20000000",
  "merkleroot": "2c7dbeaf8a6523b81f43d299388dc29fe0cdbaa2e41e1093d97b6d1f1619dd2e",
  "tx": [
    {
      "txid": "4a1dcdced8e9890c01f4f4102b503a1d7a5bb35a3f1c4e11c9363903350086da",
      "hash": "2b719ee025965e017062f447c2446c064f6b05b105349d4883cc7d46132c3040",
      "version": 1,
      "size": 251,
      "vsize": 224,
      "locktime": 0,
      "vin": [
        {
          "coinbase": "03d6c2140000000000fabe6d6de6c60a464bf9b76e6473ebef74993d8e64792cd0e09ce67a48ecf106ca40dce4010000000000000004e184725a04865562090898d09ce9430000000a42570a6657042f42572f",
          "sequence": 4294967295
        }
      ],
      "vout": [
        {
          "value": 25.01386360,
          "n": 0,
          "scriptPubKey": {
            "asm": "OP_DUP OP_HASH160 5373bc9425fd49e6bfe522d3dfc85432da2cc023 OP_EQUALVERIFY OP_CHECKSIG",
            "hex": "76a9145373bc9425fd49e6bfe522d3dfc85432da2cc02388ac",
            "reqSigs": 1,
            "type": "pubkeyhash",
            "addresses": [
              "LSqCzf5bPfkqGf94pJcfxWx5bZMPJE5XRf"
            ]
          }
        }, 
        {
          "value": 0.00000000,
          "n": 1,
          "scriptPubKey": {
            "asm": "OP_RETURN aa21a9ed867bd6e5f0446f414ff447beb0da4961683569e33b97a2af20dffdba24aca69f",
            "hex": "6a24aa21a9ed867bd6e5f0446f414ff447beb0da4961683569e33b97a2af20dffdba24aca69f",
            "type": "nulldata"
          }
        }
      ],
      "hex": "010000000001010000000000000000000000000000000000000000000000000000000000000000ffffffff5303d6c2140000000000fabe6d6de6c60a464bf9b76e6473ebef74993d8e64792cd0e09ce67a48ecf106ca40dce4010000000000000004e184725a04865562090898d09ce9430000000a42570a6657042f42572fffffffff0278201895000000001976a9145373bc9425fd49e6bfe522d3dfc85432da2cc02388ac0000000000000000266a24aa21a9ed867bd6e5f0446f414ff447beb0da4961683569e33b97a2af20dffdba24aca69f0120000000000000000000000000000000000000000000000000000000000000000000000000"
    }, 
    {
      "txid": "cdda99610798c3003307187911faf92f33443a7e900a3dfe46021a566b2bb47e",
      "hash": "cdda99610798c3003307187911faf92f33443a7e900a3dfe46021a566b2bb47e",
      "version": 1,
      "size": 372,
      "vsize": 372,
      "locktime": 0,
      "vin": [
        {
          "txid": "f928c80b18893fc895523d1a35723ac342a7e965d5f4bca9964a20a7b2e72371",
          "vout": 1,
          "scriptSig": {
            "asm": "0 304402206787c416966a344abd3eb134265a29ec0ed803f6dfd04d69a3672a2a76114ec002206f7667e2627c244ff67059c5fbe193fc6e86bbc180703718d75dc5251247c6ca[ALL] 3045022100ba5761f2c8a5b940b9063b3447620ab6a11e1ddd88cfff5354fc5d130644b2e902200c97e460e847d156eff6459950f7be0d2146aeb729931ebb567d839d05a96197[ALL] 5221027b0094e0133367b4d6e6cab42680ee5f63f3237e64d2ade4c1df8bd7a07a05c62103da70e5edfe8859e0324639970a2817f9918440534c5341ff09571bd2d09daad62103757c6176f3b8474bde34b5da2cb42e207d914fcbd25519c69588e4e64c269f1b53ae",
            "hex": "0047304402206787c416966a344abd3eb134265a29ec0ed803f6dfd04d69a3672a2a76114ec002206f7667e2627c244ff67059c5fbe193fc6e86bbc180703718d75dc5251247c6ca01483045022100ba5761f2c8a5b940b9063b3447620ab6a11e1ddd88cfff5354fc5d130644b2e902200c97e460e847d156eff6459950f7be0d2146aeb729931ebb567d839d05a96197014c695221027b0094e0133367b4d6e6cab42680ee5f63f3237e64d2ade4c1df8bd7a07a05c62103da70e5edfe8859e0324639970a2817f9918440534c5341ff09571bd2d09daad62103757c6176f3b8474bde34b5da2cb42e207d914fcbd25519c69588e4e64c269f1b53ae"
          },
          "sequence": 4294967295
        }
      ],
      "vout": [
        {
          "value": 0.07000862,
          "n": 0,
          "scriptPubKey": {
            "asm": "OP_HASH160 511c3c59c91f0c6d179c5df5875e95e06b6c298e OP_EQUAL",
            "hex": "a914511c3c59c91f0c6d179c5df5875e95e06b6c298e87",
            "reqSigs": 1,
            "type": "scripthash",
            "addresses": [
              "MFJ2npeqe53LGQzYxQoNMGEs8UmDNfedhA"
            ]
          }
        }, 
        {
          "value": 0.27799999,
          "n": 1,
          "scriptPubKey": {
            "asm": "OP_DUP OP_HASH160 aefb14bfabd5e4b4e48cfe16d64b58bb660f4cef OP_EQUALVERIFY OP_CHECKSIG",
            "hex": "76a914aefb14bfabd5e4b4e48cfe16d64b58bb660f4cef88ac",
            "reqSigs": 1,
            "type": "pubkeyhash",
            "addresses": [
              "LbBAd1TSTDUqH9ocqJFCgSayvGqHf6Euu1"
            ]
          }
        }
      ],
      "hex": "01000000017123e7b2a7204a96a9bcf4d565e9a742c33a72351a3d5295c83f89180bc828f901000000fdfd000047304402206787c416966a344abd3eb134265a29ec0ed803f6dfd04d69a3672a2a76114ec002206f7667e2627c244ff67059c5fbe193fc6e86bbc180703718d75dc5251247c6ca01483045022100ba5761f2c8a5b940b9063b3447620ab6a11e1ddd88cfff5354fc5d130644b2e902200c97e460e847d156eff6459950f7be0d2146aeb729931ebb567d839d05a96197014c695221027b0094e0133367b4d6e6cab42680ee5f63f3237e64d2ade4c1df8bd7a07a05c62103da70e5edfe8859e0324639970a2817f9918440534c5341ff09571bd2d09daad62103757c6176f3b8474bde34b5da2cb42e207d914fcbd25519c69588e4e64c269f1b53aeffffffff021ed36a000000000017a914511c3c59c91f0c6d179c5df5875e95e06b6c298e87bf31a801000000001976a914aefb14bfabd5e4b4e48cfe16d64b58bb660f4cef88ac00000000"
    }, 
    {
      "txid": "f0a70836668bb6820458faa7e63dce1f7128eb6265962aecf14e1570f02e704f",
      "hash": "f0a70836668bb6820458faa7e63dce1f7128eb6265962aecf14e1570f02e704f",
      "version": 1,
      "size": 225,
      "vsize": 225,
      "locktime": 0,
      "vin": [
        {
          "txid": "91520cd748093bbcdd94ea2018c30280b43581b74ac43d94f94c7aa8d7b821e5",
          "vout": 2,
          "scriptSig": {
            "asm": "304402207543a78d7e636fea78c06fd58ab4efe61a78228ea4bd5b031c8e4d10bb4120f9022036890a360f67f9658e2ba9d4f0ae6cf05fddbab1a8edb98a661f7f47be464ba2[ALL] 03261cc4de23b3f8c72d7074005fef467e0054a0fab1b0098f20552fefea0cf7af",
            "hex": "47304402207543a78d7e636fea78c06fd58ab4efe61a78228ea4bd5b031c8e4d10bb4120f9022036890a360f67f9658e2ba9d4f0ae6cf05fddbab1a8edb98a661f7f47be464ba2012103261cc4de23b3f8c72d7074005fef467e0054a0fab1b0098f20552fefea0cf7af"
          },
          "sequence": 4294967295
        }
      ],
      "vout": [
        {
          "value": 18.11818501,
          "n": 0,
          "scriptPubKey": {
            "asm": "OP_DUP OP_HASH160 20c0e6e4813f9fbd396ee71e7d2faea6515ec91a OP_EQUALVERIFY OP_CHECKSIG",
            "hex": "76a91420c0e6e4813f9fbd396ee71e7d2faea6515ec91a88ac",
            "reqSigs": 1,
            "type": "pubkeyhash",
            "addresses": [
              "LND8yQs4xwvf7vjSUrKKRc6MGXGzA3Kq8z"
            ]
          }
        }, 
        {
          "value": 0.99100000,
          "n": 1,
          "scriptPubKey": {
            "asm": "OP_DUP OP_HASH160 95c0aca585b6a736e42500448e986a069ce04591 OP_EQUALVERIFY OP_CHECKSIG",
            "hex": "76a91495c0aca585b6a736e42500448e986a069ce0459188ac",
            "reqSigs": 1,
            "type": "pubkeyhash",
            "addresses": [
              "LYsmm3j3j5otPrXnmN9epZMHCMgVDcFKvh"
            ]
          }
        }
      ],
      "hex": "0100000001e521b8d7a87a4cf9943dc44ab78135b48002c31820ea94ddbc3b0948d70c5291020000006a47304402207543a78d7e636fea78c06fd58ab4efe61a78228ea4bd5b031c8e4d10bb4120f9022036890a360f67f9658e2ba9d4f0ae6cf05fddbab1a8edb98a661f7f47be464ba2012103261cc4de23b3f8c72d7074005fef467e0054a0fab1b0098f20552fefea0cf7afffffffff020528fe6b000000001976a91420c0e6e4813f9fbd396ee71e7d2faea6515ec91a88ac6025e805000000001976a91495c0aca585b6a736e42500448e986a069ce0459188ac00000000"
    }, 
    {
      "txid": "f5a5558e6ea1589ff0352496d9523df847a5f2ff7f56ffe15e9422e536c1558f",
      "hash": "2c1546c609eb1d2fc6ea0830e4b3da2a657cf2f7e1364beb0d9171192ffde4a7",
      "version": 1,
      "size": 250,
      "vsize": 168,
      "locktime": 0,
      "vin": [
        {
          "txid": "e5714b25be26b1811a30e2ff3ac8381e9028eabdb056bad4a1868e713abd92ef",
          "vout": 0,
          "scriptSig": {
            "asm": "0014538d76d7c192e637fc35daaa629467e285f1d357",
            "hex": "160014538d76d7c192e637fc35daaa629467e285f1d357"
          },
          "txinwitness": [
            "30450221008de4a0cf5137c18dd60f234d30f62c58a0de9025d8c419c0cfdd1616524dedbc02201d0703bef0e43e8a4fa89a7ef42943ab2497037257683d9b077e08b2d02b2e3301", 
            "021e3238a33b1efcd17ebac1edd25ff53a272d42cd1a5cc952fd27b333bc0ccd8a"
          ],
          "sequence": 4294967295
        }
      ],
      "vout": [
        {
          "value": 1.00000000,
          "n": 0,
          "scriptPubKey": {
            "asm": "OP_DUP OP_HASH160 367ceebe307305dc0d825e63313b4c2e3f20e832 OP_EQUALVERIFY OP_CHECKSIG",
            "hex": "76a914367ceebe307305dc0d825e63313b4c2e3f20e83288ac",
            "reqSigs": 1,
            "type": "pubkeyhash",
            "addresses": [
              "LQC4R3J1pM36hzMeJgot7AmWrbbdqTFypG"
            ]
          }
        }, 
        {
          "value": 10.38145900,
          "n": 1,
          "scriptPubKey": {
            "asm": "OP_HASH160 6930ac0bb0fcc8f78a69259b7b8705d16dca7c07 OP_EQUAL",
            "hex": "a9146930ac0bb0fcc8f78a69259b7b8705d16dca7c0787",
            "reqSigs": 1,
            "type": "scripthash",
            "addresses": [
              "MHVMVNBGiceJ7WwEcGzMJK6QVT6noBi8Ut"
            ]
          }
        }
      ],
      "hex": "01000000000101ef92bd3a718e86a1d4ba56b0bdea28901e38c83affe2301a81b126be254b71e50000000017160014538d76d7c192e637fc35daaa629467e285f1d357ffffffff0200e1f505000000001976a914367ceebe307305dc0d825e63313b4c2e3f20e83288ac6cd9e03d0000000017a9146930ac0bb0fcc8f78a69259b7b8705d16dca7c0787024830450221008de4a0cf5137c18dd60f234d30f62c58a0de9025d8c419c0cfdd1616524dedbc02201d0703bef0e43e8a4fa89a7ef42943ab2497037257683d9b077e08b2d02b2e330121021e3238a33b1efcd17ebac1edd25ff53a272d42cd1a5cc952fd27b333bc0ccd8a00000000"
    }, 
    {
      "txid": "3a37ba0c671a9a0fda5e25953b16a004639c8e340bb90d776ae983ce45828ef1",
      "hash": "b7dc7ea079ba96c467eb9e6dfffa66ec9b4bab666de80df1f5d2a09c5e77dc91",
      "version": 1,
      "size": 250,
      "vsize": 168,
      "locktime": 0,
      "vin": [
        {
          "txid": "a480b34a9bb56e8748a7af4692633bf2eca628479779291003fa87df33631a73",
          "vout": 1,
          "scriptSig": {
            "asm": "00141e4d6f54068d265fa92e3f414df978d45aa1e52f",
            "hex": "1600141e4d6f54068d265fa92e3f414df978d45aa1e52f"
          },
          "txinwitness": [
            "3045022100f53a001773c32de837f3e2aacff1eb036b0e4d5152831937797a9a904467748b02206e5aef10f8a205911541643721f42df1be744d89fa475d91af7350ca220c26b001", 
            "03e11ab0f0804ef4cb1c9f2ea4280261a2243874cf0210941e57a650383a9dee0f"
          ],
          "sequence": 4294967295
        }
      ],
      "vout": [
        {
          "value": 8.00000000,
          "n": 0,
          "scriptPubKey": {
            "asm": "OP_DUP OP_HASH160 f10dd4d2a3e335c0f4329252f46b3a351e2e8437 OP_EQUALVERIFY OP_CHECKSIG",
            "hex": "76a914f10dd4d2a3e335c0f4329252f46b3a351e2e843788ac",
            "reqSigs": 1,
            "type": "pubkeyhash",
            "addresses": [
              "LhCXgTmt2W9W3Dz5NUbH5cww9bsujhqpAY"
            ]
          }
        }, 
        {
          "value": 28.27379526,
          "n": 1,
          "scriptPubKey": {
            "asm": "OP_HASH160 60de630c6f5e10e6e8bcc0ea0824328c3c3183d4 OP_EQUAL",
            "hex": "a91460de630c6f5e10e6e8bcc0ea0824328c3c3183d487",
            "reqSigs": 1,
            "type": "scripthash",
            "addresses": [
              "MGjMWZPPjUEPNRurcXx8js2JpQmeDHiF36"
            ]
          }
        }
      ],
      "hex": "01000000000101731a6333df87fa03102979974728a6ecf23b639246afa748876eb59b4ab380a401000000171600141e4d6f54068d265fa92e3f414df978d45aa1e52fffffffff020008af2f000000001976a914f10dd4d2a3e335c0f4329252f46b3a351e2e843788ac466386a80000000017a91460de630c6f5e10e6e8bcc0ea0824328c3c3183d48702483045022100f53a001773c32de837f3e2aacff1eb036b0e4d5152831937797a9a904467748b02206e5aef10f8a205911541643721f42df1be744d89fa475d91af7350ca220c26b0012103e11ab0f0804ef4cb1c9f2ea4280261a2243874cf0210941e57a650383a9dee0f00000000"
    }, 
    {
      "txid": "2453edd6146fd30e956472897b3baee9576011bb752cc7cb19e0fe091e0265e2",
      "hash": "2453edd6146fd30e956472897b3baee9576011bb752cc7cb19e0fe091e0265e2",
      "version": 2,
      "size": 224,
      "vsize": 224,
      "locktime": 1360597,
      "vin": [
        {
          "txid": "38fcb49729bc03a323fa1da0ab0159a8de5e2916a0047c6d4174023a97f1a2f9",
          "vout": 1,
          "scriptSig": {
            "asm": "3043021f15a56a88bd60faa319698b45e2b36a2961da5ec4cb81f6304972e9a2001d1202202df54596e5ee9dd6d8f86b7017d4d943639b7b322b94d82eca7713b37bf5cd17[ALL] 03382df48464d0d64ed9c4bf86dc98b7b8db3b3eb96c891f639785586f4ba5f077",
            "hex": "463043021f15a56a88bd60faa319698b45e2b36a2961da5ec4cb81f6304972e9a2001d1202202df54596e5ee9dd6d8f86b7017d4d943639b7b322b94d82eca7713b37bf5cd17012103382df48464d0d64ed9c4bf86dc98b7b8db3b3eb96c891f639785586f4ba5f077"
          },
          "sequence": 4294967294
        }
      ],
      "vout": [
        {
          "value": 0.18343179,
          "n": 0,
          "scriptPubKey": {
            "asm": "OP_DUP OP_HASH160 a4bd6ef648a16f1d2a82346d0900f1bc13c90dd6 OP_EQUALVERIFY OP_CHECKSIG",
            "hex": "76a914a4bd6ef648a16f1d2a82346d0900f1bc13c90dd688ac",
            "reqSigs": 1,
            "type": "pubkeyhash",
            "addresses": [
              "LaF21jrk3qpctayhh3o6stB9XEnZeZigqu"
            ]
          }
        }, 
        {
          "value": 0.15603778,
          "n": 1,
          "scriptPubKey": {
            "asm": "OP_DUP OP_HASH160 0c2c527d4cfa12fbab75c4e261684e991a70250c OP_EQUALVERIFY OP_CHECKSIG",
            "hex": "76a9140c2c527d4cfa12fbab75c4e261684e991a70250c88ac",
            "reqSigs": 1,
            "type": "pubkeyhash",
            "addresses": [
              "LLLKU5Rgmy8GYQ49pbmC6EuzGaf5CqgckJ"
            ]
          }
        }
      ],
      "hex": "0200000001f9a2f1973a0274416d7c04a016295edea85901aba01dfa23a303bc2997b4fc380100000069463043021f15a56a88bd60faa319698b45e2b36a2961da5ec4cb81f6304972e9a2001d1202202df54596e5ee9dd6d8f86b7017d4d943639b7b322b94d82eca7713b37bf5cd17012103382df48464d0d64ed9c4bf86dc98b7b8db3b3eb96c891f639785586f4ba5f077feffffff020be51701000000001976a914a4bd6ef648a16f1d2a82346d0900f1bc13c90dd688ac4218ee00000000001976a9140c2c527d4cfa12fbab75c4e261684e991a70250c88acd5c21400"
    }, 
    {
      "txid": "831c75b3095192070fbf932e8b2f3349a490e273eb639b7ba09cdbe90be92126",
      "hash": "831c75b3095192070fbf932e8b2f3349a490e273eb639b7ba09cdbe90be92126",
      "version": 1,
      "size": 225,
      "vsize": 225,
      "locktime": 0,
      "vin": [
        {
          "txid": "bbe5557d88f29245ff3d1e1963f0eb52ade25bbffd90ad616c8c9011f7ec92f9",
          "vout": 55,
          "scriptSig": {
            "asm": "30440220321b29481009571192b53bb4740cba52c635397c80f6c00f7fec15cd87827d9c02206e51dc268cbf2409029680f23edd5af70adf4cb9992a5f0fcf751aa16520124a[ALL] 030e9511d720ee9affa735f3550b8e667be6e6a89edc955997553807f1dd5540e1",
            "hex": "4730440220321b29481009571192b53bb4740cba52c635397c80f6c00f7fec15cd87827d9c02206e51dc268cbf2409029680f23edd5af70adf4cb9992a5f0fcf751aa16520124a0121030e9511d720ee9affa735f3550b8e667be6e6a89edc955997553807f1dd5540e1"
          },
          "sequence": 4294967295
        }
      ],
      "vout": [
        {
          "value": 0.89802690,
          "n": 0,
          "scriptPubKey": {
            "asm": "OP_DUP OP_HASH160 e1789f5fa015ae116ba2ac6e4f1ba6a2a6bb040b OP_EQUALVERIFY OP_CHECKSIG",
            "hex": "76a914e1789f5fa015ae116ba2ac6e4f1ba6a2a6bb040b88ac",
            "reqSigs": 1,
            "type": "pubkeyhash",
            "addresses": [
              "Lfn8oNog7NsVWVr1mt9n3w6moDuaKHdrHJ"
            ]
          }
        }, 
        {
          "value": 0.10174710,
          "n": 1,
          "scriptPubKey": {
            "asm": "OP_DUP OP_HASH160 e656eb093c5e9e1a844253979a11bacc7016215c OP_EQUALVERIFY OP_CHECKSIG",
            "hex": "76a914e656eb093c5e9e1a844253979a11bacc7016215c88ac",
            "reqSigs": 1,
            "type": "pubkeyhash",
            "addresses": [
              "LgDsoWYNrrbZqEaEMfT5j8cawJEy3xzKPF"
            ]
          }
        }
      ],
      "hex": "0100000001f992ecf711908c6c61ad90fdbf5be2ad52ebf063191e3dff4592f2887d55e5bb370000006a4730440220321b29481009571192b53bb4740cba52c635397c80f6c00f7fec15cd87827d9c02206e51dc268cbf2409029680f23edd5af70adf4cb9992a5f0fcf751aa16520124a0121030e9511d720ee9affa735f3550b8e667be6e6a89edc955997553807f1dd5540e1ffffffff02c2475a05000000001976a914e1789f5fa015ae116ba2ac6e4f1ba6a2a6bb040b88acf6409b00000000001976a914e656eb093c5e9e1a844253979a11bacc7016215c88ac00000000"
    }, 
    {
      "txid": "4ffed76f8acaf1c87f53fe79e4791110ca8e546ffddfc9c6971020dd823ce151",
      "hash": "4ffed76f8acaf1c87f53fe79e4791110ca8e546ffddfc9c6971020dd823ce151",
      "version": 1,
      "size": 225,
      "vsize": 225,
      "locktime": 0,
      "vin": [
        {
          "txid": "b3b60da55c784dd0790b506154e912ceb885aee6c5dfd4596a3c04f42145bd2b",
          "vout": 1,
          "scriptSig": {
            "asm": "304402202952b469fb7d018eeb48ae8fbf874f36858a2173ea2d28f8cbcfeb8065a3c98402206777e9a6437e5635df5f4eda767cbc26f28ca689457d5ecd339085bca393ee82[ALL] 0340e31c6d1bb01d87f9220b225d9090ffe44088601979a6c08db813836a1a75fb",
            "hex": "47304402202952b469fb7d018eeb48ae8fbf874f36858a2173ea2d28f8cbcfeb8065a3c98402206777e9a6437e5635df5f4eda767cbc26f28ca689457d5ecd339085bca393ee8201210340e31c6d1bb01d87f9220b225d9090ffe44088601979a6c08db813836a1a75fb"
          },
          "sequence": 4294967295
        }
      ],
      "vout": [
        {
          "value": 0.00956605,
          "n": 0,
          "scriptPubKey": {
            "asm": "OP_DUP OP_HASH160 d85fbff592c267de705f98666676790649a380cb OP_EQUALVERIFY OP_CHECKSIG",
            "hex": "76a914d85fbff592c267de705f98666676790649a380cb88ac",
            "reqSigs": 1,
            "type": "pubkeyhash",
            "addresses": [
              "Lex2vTs257RmWUtcgU4orDReU4TeKjUrTQ"
            ]
          }
        }, 
        {
          "value": 0.54079891,
          "n": 1,
          "scriptPubKey": {
            "asm": "OP_DUP OP_HASH160 c5cd29dc3007f2e31cb1cd26ee212b3b065de3ad OP_EQUALVERIFY OP_CHECKSIG",
            "hex": "76a914c5cd29dc3007f2e31cb1cd26ee212b3b065de3ad88ac",
            "reqSigs": 1,
            "type": "pubkeyhash",
            "addresses": [
              "LdFqA1oPpxJEp3ncsKvyRRZrKHGLotaRo9"
            ]
          }
        }
      ],
      "hex": "01000000012bbd4521f4043c6a59d4dfc5e6ae85b8ce12e95461500b79d04d785ca50db6b3010000006a47304402202952b469fb7d018eeb48ae8fbf874f36858a2173ea2d28f8cbcfeb8065a3c98402206777e9a6437e5635df5f4eda767cbc26f28ca689457d5ecd339085bca393ee8201210340e31c6d1bb01d87f9220b225d9090ffe44088601979a6c08db813836a1a75fbffffffff02bd980e00000000001976a914d85fbff592c267de705f98666676790649a380cb88ac93313903000000001976a914c5cd29dc3007f2e31cb1cd26ee212b3b065de3ad88ac00000000"
    }, 
    {
      "txid": "e85668991815a91920dad7294aaa454e44585a84b30cd150ff75a2c9be4cf8ce",
      "hash": "e85668991815a91920dad7294aaa454e44585a84b30cd150ff75a2c9be4cf8ce",
      "version": 1,
      "size": 225,
      "vsize": 225,
      "locktime": 0,
      "vin": [
        {
          "txid": "4aaef542f183398da289e71b3c18c5be731a9e4f82ff99c5a91ad39caf33cf1a",
          "vout": 0,
          "scriptSig": {
            "asm": "304402202f7f3a0b86660ab02fce60fafa5313e35c1156a9edc3d3aaca12a17315faeb0c02204c756405887ad220ed302b4f143a8774bf033f3f6ab801d15e37199153e84d6e[ALL] 03a54516e120513bd0d9068e4119e26e9c8eb7c861fb0fff76b69597d95d912cc1",
            "hex": "47304402202f7f3a0b86660ab02fce60fafa5313e35c1156a9edc3d3aaca12a17315faeb0c02204c756405887ad220ed302b4f143a8774bf033f3f6ab801d15e37199153e84d6e012103a54516e120513bd0d9068e4119e26e9c8eb7c861fb0fff76b69597d95d912cc1"
          },
          "sequence": 4294967295
        }
      ],
      "vout": [
        {
          "value": 0.61381700,
          "n": 0,
          "scriptPubKey": {
            "asm": "OP_DUP OP_HASH160 ae10a33a445f41d2bbd5c4732add352f7ca4a6b0 OP_EQUALVERIFY OP_CHECKSIG",
            "hex": "76a914ae10a33a445f41d2bbd5c4732add352f7ca4a6b088ac",
            "reqSigs": 1,
            "type": "pubkeyhash",
            "addresses": [
              "Lb6KmbLK9YBMjAqaGD9BmFmkmM5xwkZJKq"
            ]
          }
        }, 
        {
          "value": 98.38595700,
          "n": 1,
          "scriptPubKey": {
            "asm": "OP_DUP OP_HASH160 d72fa5acf5788837a91acc30d2116f342c55c45e OP_EQUALVERIFY OP_CHECKSIG",
            "hex": "76a914d72fa5acf5788837a91acc30d2116f342c55c45e88ac",
            "reqSigs": 1,
            "type": "pubkeyhash",
            "addresses": [
              "Leqkd3GnKmvYNBnoF3oP9WQN2ppeNRWG3k"
            ]
          }
        }
      ],
      "hex": "01000000011acf33af9cd31aa9c599ff824f9e1a73bec5183c1be789a28d3983f142f5ae4a000000006a47304402202f7f3a0b86660ab02fce60fafa5313e35c1156a9edc3d3aaca12a17315faeb0c02204c756405887ad220ed302b4f143a8774bf033f3f6ab801d15e37199153e84d6e012103a54516e120513bd0d9068e4119e26e9c8eb7c861fb0fff76b69597d95d912cc1ffffffff02449ca803000000001976a914ae10a33a445f41d2bbd5c4732add352f7ca4a6b088ac740e6d4a020000001976a914d72fa5acf5788837a91acc30d2116f342c55c45e88ac00000000"
    }, 
    {
      "txid": "45c0523ddf9ccbfce60c7724e584d1ea139763cfd071abbb45c9abcb92c7b5d6",
      "hash": "45c0523ddf9ccbfce60c7724e584d1ea139763cfd071abbb45c9abcb92c7b5d6",
      "version": 1,
      "size": 225,
      "vsize": 225,
      "locktime": 0,
      "vin": [
        {
          "txid": "28efa4fc7f671f2c40f90c8862538b4d7f90afdde9abc4e6b8b35aaa013548a7",
          "vout": 0,
          "scriptSig": {
            "asm": "30440220666fb7aaf95057f9bdaeb716a21909b023a314a3b4d0977beb73c40b972f45580220251bfdff54d9b2113a07d4feb15c677258d084b64a059c3800ce0dbaeadfb5c5[ALL] 021b64a049f52c17e6d649c9b07f455069c79a8393c04974fab1e4f52b240dce49",
            "hex": "4730440220666fb7aaf95057f9bdaeb716a21909b023a314a3b4d0977beb73c40b972f45580220251bfdff54d9b2113a07d4feb15c677258d084b64a059c3800ce0dbaeadfb5c50121021b64a049f52c17e6d649c9b07f455069c79a8393c04974fab1e4f52b240dce49"
          },
          "sequence": 4294967295
        }
      ],
      "vout": [
        {
          "value": 0.06273204,
          "n": 0,
          "scriptPubKey": {
            "asm": "OP_DUP OP_HASH160 6932498171262c59e7799485f5da6b1dff49445d OP_EQUALVERIFY OP_CHECKSIG",
            "hex": "76a9146932498171262c59e7799485f5da6b1dff49445d88ac",
            "reqSigs": 1,
            "type": "pubkeyhash",
            "addresses": [
              "LUpBTNCeqgi4M1YnfcUzaJLu5s6FuoDSXh"
            ]
          }
        }, 
        {
          "value": 1.01949000,
          "n": 1,
          "scriptPubKey": {
            "asm": "OP_DUP OP_HASH160 96b0213a8e4346389d3c061ea890fda4dc580698 OP_EQUALVERIFY OP_CHECKSIG",
            "hex": "76a91496b0213a8e4346389d3c061ea890fda4dc58069888ac",
            "reqSigs": 1,
            "type": "pubkeyhash",
            "addresses": [
              "LYxichb5ovr4MAqM2DY5AxKaz4fQDr4JYx"
            ]
          }
        }
      ],
      "hex": "0100000001a7483501aa5ab3b8e6c4abe9ddaf907f4d8b5362880cf9402c1f677ffca4ef28000000006a4730440220666fb7aaf95057f9bdaeb716a21909b023a314a3b4d0977beb73c40b972f45580220251bfdff54d9b2113a07d4feb15c677258d084b64a059c3800ce0dbaeadfb5c50121021b64a049f52c17e6d649c9b07f455069c79a8393c04974fab1e4f52b240dce49ffffffff02b4b85f00000000001976a9146932498171262c59e7799485f5da6b1dff49445d88ac489e1306000000001976a91496b0213a8e4346389d3c061ea890fda4dc58069888ac00000000"
    }, 
    {
      "txid": "85db40b1853e13cdef3e81fe006f392423e929eb60e04b690c823ffbdc430ed7",
      "hash": "85db40b1853e13cdef3e81fe006f392423e929eb60e04b690c823ffbdc430ed7",
      "version": 1,
      "size": 225,
      "vsize": 225,
      "locktime": 0,
      "vin": [
        {
          "txid": "4b771c6f683e04736e962557efbd59692a6cfd18b7e7a430ee34bcbaf8b1f602",
          "vout": 1,
          "scriptSig": {
            "asm": "304402200f4550481a65e9efac67af4a2455d3aa254906c7fdb88c336782344a779d201d022067c97cc3cf60df2e8e25da80f1ece864eb62017d87ca6208225778732d5c671a[ALL] 02d53ca74bcf82a732070d295222f6977b979759369c55f94bc25ed4c58d759106",
            "hex": "47304402200f4550481a65e9efac67af4a2455d3aa254906c7fdb88c336782344a779d201d022067c97cc3cf60df2e8e25da80f1ece864eb62017d87ca6208225778732d5c671a012102d53ca74bcf82a732070d295222f6977b979759369c55f94bc25ed4c58d759106"
          },
          "sequence": 4294967295
        }
      ],
      "vout": [
        {
          "value": 97.27236090,
          "n": 0,
          "scriptPubKey": {
            "asm": "OP_DUP OP_HASH160 3ff8ad63470f5a3d403a3afda702a98bce8be4f9 OP_EQUALVERIFY OP_CHECKSIG",
            "hex": "76a9143ff8ad63470f5a3d403a3afda702a98bce8be4f988ac",
            "reqSigs": 1,
            "type": "pubkeyhash",
            "addresses": [
              "LR4CjhYHupjTJdJJ1bKyXmv1j6t3AUVoG7"
            ]
          }
        }, 
        {
          "value": 1.72741310,
          "n": 1,
          "scriptPubKey": {
            "asm": "OP_DUP OP_HASH160 d0d598fb6c881859c5001e34769ac91ba62a0aac OP_EQUALVERIFY OP_CHECKSIG",
            "hex": "76a914d0d598fb6c881859c5001e34769ac91ba62a0aac88ac",
            "reqSigs": 1,
            "type": "pubkeyhash",
            "addresses": [
              "LeGAh8jnj5AUnxAQ6pGF6vjemfxxTw68xF"
            ]
          }
        }
      ],
      "hex": "010000000102f6b1f8babc34ee30a4e7b718fd6c2a6959bdef5725966e73043e686f1c774b010000006a47304402200f4550481a65e9efac67af4a2455d3aa254906c7fdb88c336782344a779d201d022067c97cc3cf60df2e8e25da80f1ece864eb62017d87ca6208225778732d5c671a012102d53ca74bcf82a732070d295222f6977b979759369c55f94bc25ed4c58d759106ffffffff02fad7c943020000001976a9143ff8ad63470f5a3d403a3afda702a98bce8be4f988acbed24b0a000000001976a914d0d598fb6c881859c5001e34769ac91ba62a0aac88ac00000000"
    }, 
    {
      "txid": "a8b7779d8c68e484ad77a9a7e438e526f4e44b1e5c220254594bbcba833034ef",
      "hash": "a8b7779d8c68e484ad77a9a7e438e526f4e44b1e5c220254594bbcba833034ef",
      "version": 1,
      "size": 225,
      "vsize": 225,
      "locktime": 0,
      "vin": [
        {
          "txid": "8c709226c4d4301fb6e6116dc20367b6e3ff01a0f987c42849075b79c2bd1c7c",
          "vout": 0,
          "scriptSig": {
            "asm": "3044022075bf2023991cc8268566c1e9ee6bfb880b1d246a999ad2556671614c194349ea02203e96f004267559696ddf0c53f6f15a94f10319df01fc9dc491112ffe13a33f17[ALL] 0315b0cc87929948a9375659fab45e985676bd1e264b570495d25892fa8d938bf2",
            "hex": "473044022075bf2023991cc8268566c1e9ee6bfb880b1d246a999ad2556671614c194349ea02203e96f004267559696ddf0c53f6f15a94f10319df01fc9dc491112ffe13a33f1701210315b0cc87929948a9375659fab45e985676bd1e264b570495d25892fa8d938bf2"
          },
          "sequence": 4294967295
        }
      ],
      "vout": [
        {
          "value": 1.47182634,
          "n": 0,
          "scriptPubKey": {
            "asm": "OP_DUP OP_HASH160 172ea05d5383e678fb6229117787eb12316bcf7f OP_EQUALVERIFY OP_CHECKSIG",
            "hex": "76a914172ea05d5383e678fb6229117787eb12316bcf7f88ac",
            "reqSigs": 1,
            "type": "pubkeyhash",
            "addresses": [
              "LMLXfHXrXeA3Fy4Fij9iJbEzazg2g339xb"
            ]
          }
        }, 
        {
          "value": 1.52731066,
          "n": 1,
          "scriptPubKey": {
            "asm": "OP_DUP OP_HASH160 0e78b54b79ec43dad38616f8caa9072e1d309bf3 OP_EQUALVERIFY OP_CHECKSIG",
            "hex": "76a9140e78b54b79ec43dad38616f8caa9072e1d309bf388ac",
            "reqSigs": 1,
            "type": "pubkeyhash",
            "addresses": [
              "LLYUKrGQ9mddkdVYCwd8U9z12Q9R72dqxW"
            ]
          }
        }
      ],
      "hex": "01000000017c1cbdc2795b074928c487f9a001ffe3b66703c26d11e6b61f30d4c42692708c000000006a473044022075bf2023991cc8268566c1e9ee6bfb880b1d246a999ad2556671614c194349ea02203e96f004267559696ddf0c53f6f15a94f10319df01fc9dc491112ffe13a33f1701210315b0cc87929948a9375659fab45e985676bd1e264b570495d25892fa8d938bf2ffffffff022ad4c508000000001976a914172ea05d5383e678fb6229117787eb12316bcf7f88acba7d1a09000000001976a9140e78b54b79ec43dad38616f8caa9072e1d309bf388ac00000000"
    }, 
    {
      "txid": "0156ba70a0177bf38ab919aa079723c51fd13085dfebf4ad48ea79a3d263fd16",
      "hash": "0156ba70a0177bf38ab919aa079723c51fd13085dfebf4ad48ea79a3d263fd16",
      "version": 1,
      "size": 226,
      "vsize": 226,
      "locktime": 0,
      "vin": [
        {
          "txid": "3c72adb9ae16acd5e4f7ea8a03ffccea2b532f5e7e0d12303d239e8426cedf14",
          "vout": 1,
          "scriptSig": {
            "asm": "3045022100a529abaa499d2c9eec5410a52244d13ef218e429254e8c0e398fccef0d2d1b2902206d3d7d74df7a31f6f020aa9d38bc0fc7fd10185af697d7d8ffb63c9f3f48dba5[ALL] 03fe8b9f472b4aade67297730690a4c01b1cdd6a7db03c07c40b6624d7834be397",
            "hex": "483045022100a529abaa499d2c9eec5410a52244d13ef218e429254e8c0e398fccef0d2d1b2902206d3d7d74df7a31f6f020aa9d38bc0fc7fd10185af697d7d8ffb63c9f3f48dba5012103fe8b9f472b4aade67297730690a4c01b1cdd6a7db03c07c40b6624d7834be397"
          },
          "sequence": 4294967295
        }
      ],
      "vout": [
        {
          "value": 97.89977400,
          "n": 0,
          "scriptPubKey": {
            "asm": "OP_DUP OP_HASH160 e8a7035e96092e3ac388f33b760cdfd84b0affe4 OP_EQUALVERIFY OP_CHECKSIG",
            "hex": "76a914e8a7035e96092e3ac388f33b760cdfd84b0affe488ac",
            "reqSigs": 1,
            "type": "pubkeyhash",
            "addresses": [
              "LgS76zhTzeFrTXp26vXsSWNjSrXxGCY9LW"
            ]
          }
        }, 
        {
          "value": 1.10000000,
          "n": 1,
          "scriptPubKey": {
            "asm": "OP_DUP OP_HASH160 ca5c03c9f7e5b25d24fc8ac837aae622944b7775 OP_EQUALVERIFY OP_CHECKSIG",
            "hex": "76a914ca5c03c9f7e5b25d24fc8ac837aae622944b777588ac",
            "reqSigs": 1,
            "type": "pubkeyhash",
            "addresses": [
              "LdfvzGDbZjtcfbBGRY6cjNrpZZXCZP8a7z"
            ]
          }
        }
      ],
      "hex": "010000000114dfce26849e233d30120d7e5e2f532beaccff038aeaf7e4d5ac16aeb9ad723c010000006b483045022100a529abaa499d2c9eec5410a52244d13ef218e429254e8c0e398fccef0d2d1b2902206d3d7d74df7a31f6f020aa9d38bc0fc7fd10185af697d7d8ffb63c9f3f48dba5012103fe8b9f472b4aade67297730690a4c01b1cdd6a7db03c07c40b6624d7834be397ffffffff0238338747020000001976a914e8a7035e96092e3ac388f33b760cdfd84b0affe488ac80778e06000000001976a914ca5c03c9f7e5b25d24fc8ac837aae622944b777588ac00000000"
    }, 
    {
      "txid": "ab58b957e40670d8eb9c2e763e7dfcd142db036aa1ca4658733d2d21de859d4a",
      "hash": "ab58b957e40670d8eb9c2e763e7dfcd142db036aa1ca4658733d2d21de859d4a",
      "version": 1,
      "size": 226,
      "vsize": 226,
      "locktime": 0,
      "vin": [
        {
          "txid": "6838df4c1383b35ec220c20adeb5aa1d619baa41100bb2c69f1f973e1c101e4e",
          "vout": 15,
          "scriptSig": {
            "asm": "3045022100da0081bafd1def8d4e41131c094a16871335ad47a976750791fe6a372a212a330220745fd593d322cbb053237ef82427c38217524dfea20e77559f0de4f85aa02b25[ALL] 0250b63d682df405db82501bd41f98e53a5dfbbd6eef260a41a7f103ab7c0cee6f",
            "hex": "483045022100da0081bafd1def8d4e41131c094a16871335ad47a976750791fe6a372a212a330220745fd593d322cbb053237ef82427c38217524dfea20e77559f0de4f85aa02b2501210250b63d682df405db82501bd41f98e53a5dfbbd6eef260a41a7f103ab7c0cee6f"
          },
          "sequence": 4294967295
        }
      ],
      "vout": [
        {
          "value": 1.84139455,
          "n": 0,
          "scriptPubKey": {
            "asm": "OP_DUP OP_HASH160 becfe00d7db5d366eef388740f55d55343be4dc3 OP_EQUALVERIFY OP_CHECKSIG",
            "hex": "76a914becfe00d7db5d366eef388740f55d55343be4dc388ac",
            "reqSigs": 1,
            "type": "pubkeyhash",
            "addresses": [
              "Lccsg5nVfhf9UxhnRajJ5uESSSPvw3QCxu"
            ]
          }
        }, 
        {
          "value": 0.17150430,
          "n": 1,
          "scriptPubKey": {
            "asm": "OP_DUP OP_HASH160 63cd014f54921bd7a71b845e5ffc2a99215932c3 OP_EQUALVERIFY OP_CHECKSIG",
            "hex": "76a91463cd014f54921bd7a71b845e5ffc2a99215932c388ac",
            "reqSigs": 1,
            "type": "pubkeyhash",
            "addresses": [
              "LUKekD6qoBnqsk2XUA96MLRohpZGLTkwqf"
            ]
          }
        }
      ],
      "hex": "01000000014e1e101c3e971f9fc6b20b1041aa9b611daab5de0ac220c25eb383134cdf38680f0000006b483045022100da0081bafd1def8d4e41131c094a16871335ad47a976750791fe6a372a212a330220745fd593d322cbb053237ef82427c38217524dfea20e77559f0de4f85aa02b2501210250b63d682df405db82501bd41f98e53a5dfbbd6eef260a41a7f103ab7c0cee6fffffffff02bfbef90a000000001976a914becfe00d7db5d366eef388740f55d55343be4dc388acdeb10501000000001976a91463cd014f54921bd7a71b845e5ffc2a99215932c388ac00000000"
    }, 
    {
      "txid": "55d2ca80b6dcddbdf4956cf9ede548ff6f3b7a0d3f5fdc2a055d9b7c999e936f",
      "hash": "55d2ca80b6dcddbdf4956cf9ede548ff6f3b7a0d3f5fdc2a055d9b7c999e936f",
      "version": 1,
      "size": 226,
      "vsize": 226,
      "locktime": 1360597,
      "vin": [
        {
          "txid": "5208ff1f8dfae5333ba1c72a5c9e9d9d6bea06265c580d38e43f4fdac52ed6f2",
          "vout": 0,
          "scriptSig": {
            "asm": "3045022100dfc8a39e35409aa959072b9935c7ccdaf2de3d3142b78681a6dcff98badff7cf022078ca0a71a91ac640ccf912d75c515120636ce9ef61a4100420843f54b5f6adbd[ALL] 0377dc7340cab142b702c5918c35ec44efa3755bfd56a4804063d5b2e55452a55e",
            "hex": "483045022100dfc8a39e35409aa959072b9935c7ccdaf2de3d3142b78681a6dcff98badff7cf022078ca0a71a91ac640ccf912d75c515120636ce9ef61a4100420843f54b5f6adbd01210377dc7340cab142b702c5918c35ec44efa3755bfd56a4804063d5b2e55452a55e"
          },
          "sequence": 4294967294
        }
      ],
      "vout": [
        {
          "value": 0.66615968,
          "n": 0,
          "scriptPubKey": {
            "asm": "OP_DUP OP_HASH160 e97e7bc5acc0af2b4fb887ba18c8660dd682955d OP_EQUALVERIFY OP_CHECKSIG",
            "hex": "76a914e97e7bc5acc0af2b4fb887ba18c8660dd682955d88ac",
            "reqSigs": 1,
            "type": "pubkeyhash",
            "addresses": [
              "LgWZE8r86Eaq6GqBE3SuT1hXoFxg3H3qR4"
            ]
          }
        }, 
        {
          "value": 0.01005333,
          "n": 1,
          "scriptPubKey": {
            "asm": "OP_DUP OP_HASH160 a430723aa27e94b181bc1ac11b8e21b95bcf31a6 OP_EQUALVERIFY OP_CHECKSIG",
            "hex": "76a914a430723aa27e94b181bc1ac11b8e21b95bcf31a688ac",
            "reqSigs": 1,
            "type": "pubkeyhash",
            "addresses": [
              "LaC77mtJu8bDC3UpMR88H7FD5jKVSvGBjd"
            ]
          }
        }
      ],
      "hex": "0100000001f2d62ec5da4f3fe4380d585c2606ea6b9d9d9e5c2ac7a13b33e5fa8d1fff0852000000006b483045022100dfc8a39e35409aa959072b9935c7ccdaf2de3d3142b78681a6dcff98badff7cf022078ca0a71a91ac640ccf912d75c515120636ce9ef61a4100420843f54b5f6adbd01210377dc7340cab142b702c5918c35ec44efa3755bfd56a4804063d5b2e55452a55efeffffff02a07af803000000001976a914e97e7bc5acc0af2b4fb887ba18c8660dd682955d88ac15570f00000000001976a914a430723aa27e94b181bc1ac11b8e21b95bcf31a688acd5c21400"
    }, 
    {
      "txid": "7380a22a2d20eb4c2a861edcb4621def6999d3ee3486e504e4cae8780cb4188e",
      "hash": "7380a22a2d20eb4c2a861edcb4621def6999d3ee3486e504e4cae8780cb4188e",
      "version": 2,
      "size": 226,
      "vsize": 226,
      "locktime": 1360597,
      "vin": [
        {
          "txid": "8f0f59493f90ab5339260266b906d9c11d36745a74f482efc0efbaa99d2cc1ac",
          "vout": 4,
          "scriptSig": {
            "asm": "3045022100c4b0fec5003b1f24513c50255bc896183cc4eec089bf26e29ed6c20711ee6e4b02206a96cb3e963c5983536aa17bc190342b6cee7267f902ebc78c6ee530cb9449c4[ALL] 038ba189913b42ac26de55ebefa5da329631634331b2d662d2d8e96fd1f2320511",
            "hex": "483045022100c4b0fec5003b1f24513c50255bc896183cc4eec089bf26e29ed6c20711ee6e4b02206a96cb3e963c5983536aa17bc190342b6cee7267f902ebc78c6ee530cb9449c40121038ba189913b42ac26de55ebefa5da329631634331b2d662d2d8e96fd1f2320511"
          },
          "sequence": 4294967294
        }
      ],
      "vout": [
        {
          "value": 0.52687100,
          "n": 0,
          "scriptPubKey": {
            "asm": "OP_DUP OP_HASH160 36e2dc19103e6988ff786abe54194bb5c2a8c181 OP_EQUALVERIFY OP_CHECKSIG",
            "hex": "76a91436e2dc19103e6988ff786abe54194bb5c2a8c18188ac",
            "reqSigs": 1,
            "type": "pubkeyhash",
            "addresses": [
              "LQEAX4g1gfGSRCAeNEjYnByDDx2Yb2XkF6"
            ]
          }
        }, 
        {
          "value": 0.01796900,
          "n": 1,
          "scriptPubKey": {
            "asm": "OP_DUP OP_HASH160 770dc41ab7f7ace74ab11304aebe84a3130a4e53 OP_EQUALVERIFY OP_CHECKSIG",
            "hex": "76a914770dc41ab7f7ace74ab11304aebe84a3130a4e5388ac",
            "reqSigs": 1,
            "type": "pubkeyhash",
            "addresses": [
              "LW5TAXCktN9mrt1tTv9dGrMX18yETESgFJ"
            ]
          }
        }
      ],
      "hex": "0200000001acc12c9da9baefc0ef82f4745a74361dc1d906b96602263953ab903f49590f8f040000006b483045022100c4b0fec5003b1f24513c50255bc896183cc4eec089bf26e29ed6c20711ee6e4b02206a96cb3e963c5983536aa17bc190342b6cee7267f902ebc78c6ee530cb9449c40121038ba189913b42ac26de55ebefa5da329631634331b2d662d2d8e96fd1f2320511feffffff02fcf02303000000001976a91436e2dc19103e6988ff786abe54194bb5c2a8c18188ac246b1b00000000001976a914770dc41ab7f7ace74ab11304aebe84a3130a4e5388acd5c21400"
    }, 
    {
      "txid": "412e3d2a4dd77812a830ad39409dd9fa883cd1778d5178f7865633a5d092b99c",
      "hash": "412e3d2a4dd77812a830ad39409dd9fa883cd1778d5178f7865633a5d092b99c",
      "version": 1,
      "size": 226,
      "vsize": 226,
      "locktime": 0,
      "vin": [
        {
          "txid": "6f57d753d04da06b19424ee6a55772183909072d1427cd4dbb6f1a6d733714dd",
          "vout": 0,
          "scriptSig": {
            "asm": "3045022100aebf558da4748800e397d299695afc679746d80482f63bec14f3744a799e7ae802205b4ee11bb0ecec61e3608ebb765cf7dbfa15a756f2541ab64b8493d182ef19a0[ALL] 034034baabddeb6377cda731f5a440bc90d0e99c015fce3377c84655fef5aecea3",
            "hex": "483045022100aebf558da4748800e397d299695afc679746d80482f63bec14f3744a799e7ae802205b4ee11bb0ecec61e3608ebb765cf7dbfa15a756f2541ab64b8493d182ef19a00121034034baabddeb6377cda731f5a440bc90d0e99c015fce3377c84655fef5aecea3"
          },
          "sequence": 4294967295
        }
      ],
      "vout": [
        {
          "value": 97.99977400,
          "n": 0,
          "scriptPubKey": {
            "asm": "OP_DUP OP_HASH160 081b34f2bbe025fab019d38753d163d5de16fd85 OP_EQUALVERIFY OP_CHECKSIG",
            "hex": "76a914081b34f2bbe025fab019d38753d163d5de16fd8588ac",
            "reqSigs": 1,
            "type": "pubkeyhash",
            "addresses": [
              "LKxpG7QYX6EJcvsvSsRJ3H7Ui23bsPrC4x"
            ]
          }
        }, 
        {
          "value": 1.00000000,
          "n": 1,
          "scriptPubKey": {
            "asm": "OP_DUP OP_HASH160 e274aec420bf10ba0dcdc522b9ec5c4e7fa35034 OP_EQUALVERIFY OP_CHECKSIG",
            "hex": "76a914e274aec420bf10ba0dcdc522b9ec5c4e7fa3503488ac",
            "reqSigs": 1,
            "type": "pubkeyhash",
            "addresses": [
              "LfsLkpbZj4WmsUxmHzXSbhndUQfjHPidme"
            ]
          }
        }
      ],
      "hex": "0100000001dd1437736d1a6fbb4dcd27142d070939187257a5e64e42196ba04dd053d7576f000000006b483045022100aebf558da4748800e397d299695afc679746d80482f63bec14f3744a799e7ae802205b4ee11bb0ecec61e3608ebb765cf7dbfa15a756f2541ab64b8493d182ef19a00121034034baabddeb6377cda731f5a440bc90d0e99c015fce3377c84655fef5aecea3ffffffff02b8c91f48020000001976a914081b34f2bbe025fab019d38753d163d5de16fd8588ac00e1f505000000001976a914e274aec420bf10ba0dcdc522b9ec5c4e7fa3503488ac00000000"
    }, 
    {
      "txid": "dae9d7a117a273b85201a6bae2bf3c1906d34eb1efbc1990408804ee5266ceb3",
      "hash": "dae9d7a117a273b85201a6bae2bf3c1906d34eb1efbc1990408804ee5266ceb3",
      "version": 2,
      "size": 226,
      "vsize": 226,
      "locktime": 1360597,
      "vin": [
        {
          "txid": "49082eaab308d687a0d5ee123b17c59395689661d90a714bd254f6285fed3217",
          "vout": 1,
          "scriptSig": {
            "asm": "3045022100a345b647480578126fa69342cbe37364cf7f1a5648a9c1f247445171a0cd5f400220536ecae04d82345ca4b93ed7ead0b400b13fc10a4fc89d385700aafa669ef3da[ALL] 028426bca9fdf93a02a728df8c7dbcb9677be21efe4eee2d19a738390c99e55974",
            "hex": "483045022100a345b647480578126fa69342cbe37364cf7f1a5648a9c1f247445171a0cd5f400220536ecae04d82345ca4b93ed7ead0b400b13fc10a4fc89d385700aafa669ef3da0121028426bca9fdf93a02a728df8c7dbcb9677be21efe4eee2d19a738390c99e55974"
          },
          "sequence": 4294967294
        }
      ],
      "vout": [
        {
          "value": 0.00572533,
          "n": 0,
          "scriptPubKey": {
            "asm": "OP_DUP OP_HASH160 bab6770de895a6c28cc79ca700beda4b0c4f1848 OP_EQUALVERIFY OP_CHECKSIG",
            "hex": "76a914bab6770de895a6c28cc79ca700beda4b0c4f184888ac",
            "reqSigs": 1,
            "type": "pubkeyhash",
            "addresses": [
              "LcFCXneUaxBEkoZHKR7z4GLgkn5PfaZEuF"
            ]
          }
        }, 
        {
          "value": 0.56118163,
          "n": 1,
          "scriptPubKey": {
            "asm": "OP_DUP OP_HASH160 b14f35da9cbeeff84513dcd919ffdfc49b5418c3 OP_EQUALVERIFY OP_CHECKSIG",
            "hex": "76a914b14f35da9cbeeff84513dcd919ffdfc49b5418c388ac",
            "reqSigs": 1,
            "type": "pubkeyhash",
            "addresses": [
              "LbPUkoLio5w1ey1FgzdpTXrCLgfs7KyDhp"
            ]
          }
        }
      ],
      "hex": "02000000011732ed5f28f654d24b710ad96196689593c5173b12eed5a087d608b3aa2e0849010000006b483045022100a345b647480578126fa69342cbe37364cf7f1a5648a9c1f247445171a0cd5f400220536ecae04d82345ca4b93ed7ead0b400b13fc10a4fc89d385700aafa669ef3da0121028426bca9fdf93a02a728df8c7dbcb9677be21efe4eee2d19a738390c99e55974feffffff0275bc0800000000001976a914bab6770de895a6c28cc79ca700beda4b0c4f184888ac934b5803000000001976a914b14f35da9cbeeff84513dcd919ffdfc49b5418c388acd5c21400"
    }
  ],
  "time": 1517454561,
  "mediantime": 1517453527,
  "nonce": 888333847,
  "bits": "1a042eae",
  "difficulty": 4011378.762614286,
  "chainwork": "000000000000000000000000000000000000000000000035169d8f4c18576d2e",
  "previousblockhash": "3edbaf11fd40ecd6be8a719afb841cc1a3e293a4f39a04228e82d198c0a0142f",
  "nextblockhash": "c37df46a5b88794397334a0e37d8120c0178dae9b63f0f692f7b5ca54ca75844"
}
