{
  "hash": "11914b83ff490f04b745fa0e885c07df39ae3572191e26f81054d89fe0a71167",
  "confirmations": 2605,
  "strippedsize": 254,
  "size": 254,
  "weight": 1016,
  "height": 1358390,
  "version": 536870912,
  "versionHex": "20000000",
  "merkleroot": "6dff6a65885c12957ef6bda543a45520ccc0861f5776868100a2031158068dd6",
  "tx": [
    {
      "txid": "6dff6a65885c12957ef6bda543a45520ccc0861f5776868100a2031158068dd6",
      "hash": "6dff6a65885c12957ef6bda543a45520ccc0861f5776868100a2031158068dd6",
      "version": 1,
      "size": 173,
      "vsize": 173,
      "locktime": 0,
      "vin": [
        {
          "coinbase": "0336ba141b4d696e656420627920416e74506f6f6c20626a312045205a6da433fabe6d6ddf5a15c217c63a7aeb83604a130afe5bab25e57d332455816ff1be5a6e6c77e20400000000000000990a0000000000000e000000",
          "sequence": 4294967295
        }
      ],
      "vout": [
        {
          "value": 25.00000000,
          "n": 0,
          "scriptPubKey": {
            "asm": "OP_DUP OP_HASH160 0ff3ccc5e8be88afe24b5d634e5852d474dbdff1 OP_EQUALVERIFY OP_CHECKSIG",
            "hex": "76a9140ff3ccc5e8be88afe24b5d634e5852d474dbdff188ac",
            "reqSigs": 1,
            "type": "pubkeyhash",
            "addresses": [
              "LLgJTbzZMsRTCUF1NtvvL9SR1a4pVieW89"
            ]
          }
        }
      ],
      "hex": "01000000010000000000000000000000000000000000000000000000000000000000000000ffffffff580336ba141b4d696e656420627920416e74506f6f6c20626a312045205a6da433fabe6d6ddf5a15c217c63a7aeb83604a130afe5bab25e57d332455816ff1be5a6e6c77e20400000000000000990a0000000000000e000000ffffffff0100f90295000000001976a9140ff3ccc5e8be88afe24b5d634e5852d474dbdff188ac00000000"
    }
  ],
  "time": 1517134899,
  "mediantime": 1517134249,
  "nonce": 1924698204,
  "bits": "1a047f14",
  "difficulty": 3731199.183374282,
  "chainwork": "0000000000000000000000000000000000000000000000330d3eaf88028de096",
  "previousblockhash": "57f55cbfe3b3eb09ec58c56ae6c47a326fe7ecadec2986f8995c9da09a1b1ad7",
  "nextblockhash": "2c8b4a8428ff9528ba02fefaa791bf2f08f9a80e23050a786f2076eba2a86d34"
}
