{
  "hash": "11a58db44f8a646c9d76d3266b49e36200ddf18691b6f0bf2c923d1c5693b80f",
  "confirmations": 2895,
  "strippedsize": 1658,
  "size": 1694,
  "weight": 6668,
  "height": 1358100,
  "version": 536870912,
  "versionHex": "20000000",
  "merkleroot": "8478f81fa58227869417ca46003714d01d8962380acd2f14d586a234b8a85e47",
  "tx": [
    {
      "txid": "50d30198a2479705aad00ba1e7e1b6acb78cfafd662e3734e9c62ba09f165046",
      "hash": "a871215c012ec673eb0eb511a5864b2c2c65223901849cc6f66675c560c0e59a",
      "version": 1,
      "size": 277,
      "vsize": 250,
      "locktime": 953161505,
      "vin": [
        {
          "coinbase": "0314b9142cfabe6d6dc6c60f3f12739d004bd087db5f28de6989b1c6acbb0bae48505d7d7399da160008000000f09f909f0f4d696e65642062792068797061726b0000000000000000000000000000000000000000000000000000000000000000000000",
          "sequence": 1067
        }
      ],
      "vout": [
        {
          "value": 25.00134000,
          "n": 0,
          "scriptPubKey": {
            "asm": "OP_DUP OP_HASH160 aa3750aa18b8a0f3f0590731e1fab934856680cf OP_EQUALVERIFY OP_CHECKSIG",
            "hex": "76a914aa3750aa18b8a0f3f0590731e1fab934856680cf88ac",
            "reqSigs": 1,
            "type": "pubkeyhash",
            "addresses": [
              "LajyQBeZaBA1NkZDeY8YT5RYYVRkXMvb2T"
            ]
          }
        }, 
        {
          "value": 0.00000000,
          "n": 1,
          "scriptPubKey": {
            "asm": "OP_RETURN aa21a9ed9f54777e1929d6a8a19162d00a467178cab9246a1872e3c29729d80ff2ba94ce 0000000000000000",
            "hex": "6a24aa21a9ed9f54777e1929d6a8a19162d00a467178cab9246a1872e3c29729d80ff2ba94ce080000000000000000",
            "type": "nulldata"
          }
        }
      ],
      "hex": "010000000001010000000000000000000000000000000000000000000000000000000000000000ffffffff640314b9142cfabe6d6dc6c60f3f12739d004bd087db5f28de6989b1c6acbb0bae48505d7d7399da160008000000f09f909f0f4d696e65642062792068797061726b00000000000000000000000000000000000000000000000000000000000000000000002b0400000270040595000000001976a914aa3750aa18b8a0f3f0590731e1fab934856680cf88ac00000000000000002f6a24aa21a9ed9f54777e1929d6a8a19162d00a467178cab9246a1872e3c29729d80ff2ba94ce080000000000000000012000000000000000000000000000000000000000000000000000000000000000002117d038"
    }, 
    {
      "txid": "dc797753105480a3a230353457112f9040ab5af84bbde75d5aba1649b2dffbbd",
      "hash": "dc797753105480a3a230353457112f9040ab5af84bbde75d5aba1649b2dffbbd",
      "version": 2,
      "size": 815,
      "vsize": 815,
      "locktime": 1358098,
      "vin": [
        {
          "txid": "9a39a6bbe0b9d0d37965ff3ebdf80276e9cee7e68939ea1762eba3c29c00f0c5",
          "vout": 23,
          "scriptSig": {
            "asm": "304402201a2003de876d4e4ac0d3b638b580b62b58a22a5ab70edc8d4be7ff95ac9d11de02205430abbe49551dd25f244c62f84b8673edd896e35c2eececd43b852f862cccbe[ALL] 026cc3597b9d62638683847b63b5877008ebb23d157cb1cb1c7d5b87b3757ca12b",
            "hex": "47304402201a2003de876d4e4ac0d3b638b580b62b58a22a5ab70edc8d4be7ff95ac9d11de02205430abbe49551dd25f244c62f84b8673edd896e35c2eececd43b852f862cccbe0121026cc3597b9d62638683847b63b5877008ebb23d157cb1cb1c7d5b87b3757ca12b"
          },
          "sequence": 4294967294
        }, 
        {
          "txid": "7262840bd4cf3ddf02bc842d64a6ccb7f7ff3e23dc6bbab865e830f52753ea22",
          "vout": 0,
          "scriptSig": {
            "asm": "30440220202f7ff695a31519ac9dae8c41b5c39dd8a70e80724066c92777432c743c49d602200f50f53963252ad1af8c6e2e9426bb99ffdd40722472a73b1e74ae9240b89a36[ALL] 02e18e4605320c8a1a5bcdf5ec3e89564814b045052e50dcc79728a8eab5759c61",
            "hex": "4730440220202f7ff695a31519ac9dae8c41b5c39dd8a70e80724066c92777432c743c49d602200f50f53963252ad1af8c6e2e9426bb99ffdd40722472a73b1e74ae9240b89a36012102e18e4605320c8a1a5bcdf5ec3e89564814b045052e50dcc79728a8eab5759c61"
          },
          "sequence": 4294967294
        }, 
        {
          "txid": "5ca7a01c60dc45984621d2f9fdb8d976b99388c1577daf94fa4bc7271c0d52ea",
          "vout": 5,
          "scriptSig": {
            "asm": "3045022100d8bd5d1874ce7b06f34b8edc41b6ca5a859b57e80acc6bf002559d384df95e8802205c72a26e9e1c6bd253712117bc711f24e4212a532eec7e8ed2275c3f93a3547e[ALL] 027c06956884a0d7633fcd9f1253d41b584fd76ec4c53c19a6fe55d5f56d37ddc9",
            "hex": "483045022100d8bd5d1874ce7b06f34b8edc41b6ca5a859b57e80acc6bf002559d384df95e8802205c72a26e9e1c6bd253712117bc711f24e4212a532eec7e8ed2275c3f93a3547e0121027c06956884a0d7633fcd9f1253d41b584fd76ec4c53c19a6fe55d5f56d37ddc9"
          },
          "sequence": 4294967294
        }, 
        {
          "txid": "f2fec4da746691871413ea0ee2260e57d599559843cbff84efff9b3daebf44fe",
          "vout": 37,
          "scriptSig": {
            "asm": "3044022073522adfa57c177513f47143ba66f186392a53ffb61704501985af7c455db4820220610e58cbeaac13ad5d24e7bafc581aacdc2a0a3bd3cb4229846c12ba389e6ee9[ALL] 02289ed4310aa5443d0cf5b43671b2f4750fad3936069080f052825f6960ddb7b9",
            "hex": "473044022073522adfa57c177513f47143ba66f186392a53ffb61704501985af7c455db4820220610e58cbeaac13ad5d24e7bafc581aacdc2a0a3bd3cb4229846c12ba389e6ee9012102289ed4310aa5443d0cf5b43671b2f4750fad3936069080f052825f6960ddb7b9"
          },
          "sequence": 4294967294
        }, 
        {
          "txid": "acdb078d0325991ce7f30dbea06e3a3bcc25fa0f76d7d5aec416bd20588cf0e9",
          "vout": 1,
          "scriptSig": {
            "asm": "3045022100db4506519a17c9d6321f5aabd3fb88d106e7eb8016a8bfea34f15a5f9f9b97d702200bf091c5af402c6617273b0d926afd0db51649d42bf7fb1d2cddc419e9d41fd2[ALL] 0231995e69ebe3f75fde99f3d6a2bace9d58335a7c2d80531b476887144cfd5100",
            "hex": "483045022100db4506519a17c9d6321f5aabd3fb88d106e7eb8016a8bfea34f15a5f9f9b97d702200bf091c5af402c6617273b0d926afd0db51649d42bf7fb1d2cddc419e9d41fd201210231995e69ebe3f75fde99f3d6a2bace9d58335a7c2d80531b476887144cfd5100"
          },
          "sequence": 4294967294
        }
      ],
      "vout": [
        {
          "value": 0.01012870,
          "n": 0,
          "scriptPubKey": {
            "asm": "OP_DUP OP_HASH160 bcfeaa41e18f3259d34785d4cd726852eecc2e00 OP_EQUALVERIFY OP_CHECKSIG",
            "hex": "76a914bcfeaa41e18f3259d34785d4cd726852eecc2e0088ac",
            "reqSigs": 1,
            "type": "pubkeyhash",
            "addresses": [
              "LcTGNiVhc7cxUqAkmBoUsnWx7VQnrVguT5"
            ]
          }
        }, 
        {
          "value": 21.37272454,
          "n": 1,
          "scriptPubKey": {
            "asm": "OP_DUP OP_HASH160 fe343644df7a57b2af35e4d3c2b1f7315edf3061 OP_EQUALVERIFY OP_CHECKSIG",
            "hex": "76a914fe343644df7a57b2af35e4d3c2b1f7315edf306188ac",
            "reqSigs": 1,
            "type": "pubkeyhash",
            "addresses": [
              "LiQ4Sh15HSr2xfMZ3THW8eV3fXviqEk88m"
            ]
          }
        }
      ],
      "hex": "0200000005c5f0009cc2a3eb6217ea3989e6e7cee97602f8bd3eff6579d3d0b9e0bba6399a170000006a47304402201a2003de876d4e4ac0d3b638b580b62b58a22a5ab70edc8d4be7ff95ac9d11de02205430abbe49551dd25f244c62f84b8673edd896e35c2eececd43b852f862cccbe0121026cc3597b9d62638683847b63b5877008ebb23d157cb1cb1c7d5b87b3757ca12bfeffffff22ea5327f530e865b8ba6bdc233efff7b7cca6642d84bc02df3dcfd40b846272000000006a4730440220202f7ff695a31519ac9dae8c41b5c39dd8a70e80724066c92777432c743c49d602200f50f53963252ad1af8c6e2e9426bb99ffdd40722472a73b1e74ae9240b89a36012102e18e4605320c8a1a5bcdf5ec3e89564814b045052e50dcc79728a8eab5759c61feffffffea520d1c27c74bfa94af7d57c18893b976d9b8fdf9d221469845dc601ca0a75c050000006b483045022100d8bd5d1874ce7b06f34b8edc41b6ca5a859b57e80acc6bf002559d384df95e8802205c72a26e9e1c6bd253712117bc711f24e4212a532eec7e8ed2275c3f93a3547e0121027c06956884a0d7633fcd9f1253d41b584fd76ec4c53c19a6fe55d5f56d37ddc9fefffffffe44bfae3d9bffef84ffcb43985599d5570e26e20eea131487916674dac4fef2250000006a473044022073522adfa57c177513f47143ba66f186392a53ffb61704501985af7c455db4820220610e58cbeaac13ad5d24e7bafc581aacdc2a0a3bd3cb4229846c12ba389e6ee9012102289ed4310aa5443d0cf5b43671b2f4750fad3936069080f052825f6960ddb7b9feffffffe9f08c5820bd16c4aed5d7760ffa25cc3b3a6ea0be0df3e71c9925038d07dbac010000006b483045022100db4506519a17c9d6321f5aabd3fb88d106e7eb8016a8bfea34f15a5f9f9b97d702200bf091c5af402c6617273b0d926afd0db51649d42bf7fb1d2cddc419e9d41fd201210231995e69ebe3f75fde99f3d6a2bace9d58335a7c2d80531b476887144cfd5100feffffff0286740f00000000001976a914bcfeaa41e18f3259d34785d4cd726852eecc2e0088ac8630647f000000001976a914fe343644df7a57b2af35e4d3c2b1f7315edf306188ac12b91400"
    }, 
    {
      "txid": "0565aa177ce27e6ad5435ea6d9941455546452439262f511a15adf00e10490e2",
      "hash": "0565aa177ce27e6ad5435ea6d9941455546452439262f511a15adf00e10490e2",
      "version": 1,
      "size": 521,
      "vsize": 521,
      "locktime": 0,
      "vin": [
        {
          "txid": "3991a5b523e93e5b6496ecb5c55f912dd2ab2c160d0994426995478dabb68a44",
          "vout": 1,
          "scriptSig": {
            "asm": "3045022100ade662029a8347e96da79fbf3608e36f1cdaa412a7e17894288bdc4c6c4213e402205f1093a0c60507f483b27a80ce1540606444ad3fcd351bc750891be3958c2e61[ALL] 02fec0da7aae05bf6c31702c14e0c16db71e563bba0f9917215464058a9d2fca4c",
            "hex": "483045022100ade662029a8347e96da79fbf3608e36f1cdaa412a7e17894288bdc4c6c4213e402205f1093a0c60507f483b27a80ce1540606444ad3fcd351bc750891be3958c2e61012102fec0da7aae05bf6c31702c14e0c16db71e563bba0f9917215464058a9d2fca4c"
          },
          "sequence": 4294967295
        }, 
        {
          "txid": "7d2fff0e73ee7ba1c07956941abb12ca412483354d3bbe4555332a53b805ee62",
          "vout": 0,
          "scriptSig": {
            "asm": "3045022100e147e9cd2eb6b416da49a2ba406ca2bbe6ebb7351dde788f018197589d8c635f02204c939158921bea478e9474b4f379dc27eb560d4676274f698a6b9653814268af[ALL] 020933287c1ea53a638d3f135353ecde7e505bcea0fb3fde51975f42a3e76cf493",
            "hex": "483045022100e147e9cd2eb6b416da49a2ba406ca2bbe6ebb7351dde788f018197589d8c635f02204c939158921bea478e9474b4f379dc27eb560d4676274f698a6b9653814268af0121020933287c1ea53a638d3f135353ecde7e505bcea0fb3fde51975f42a3e76cf493"
          },
          "sequence": 4294967295
        }, 
        {
          "txid": "83d8c3323bc0d734f9a1b9765b64ca02008dfe1e51d06356a88a4de13dadb048",
          "vout": 0,
          "scriptSig": {
            "asm": "304402200b97d55351a8bd36c06be1ccfaa41153381f6f378d43cdc6dd2932726374a13c022074a7fc83d45391d15dd4d1cc9d85e16966ea8c17ef8f9aa2ddfeff4213025560[ALL] 03ea8a825bfcc9acd8c6a3b84e53bebce3619663dbda3bf776bf346531cc6e4a5b",
            "hex": "47304402200b97d55351a8bd36c06be1ccfaa41153381f6f378d43cdc6dd2932726374a13c022074a7fc83d45391d15dd4d1cc9d85e16966ea8c17ef8f9aa2ddfeff4213025560012103ea8a825bfcc9acd8c6a3b84e53bebce3619663dbda3bf776bf346531cc6e4a5b"
          },
          "sequence": 4294967295
        }
      ],
      "vout": [
        {
          "value": 1.00000000,
          "n": 0,
          "scriptPubKey": {
            "asm": "OP_DUP OP_HASH160 d6bdea9d7e9558389419fb194efe482edefda0d4 OP_EQUALVERIFY OP_CHECKSIG",
            "hex": "76a914d6bdea9d7e9558389419fb194efe482edefda0d488ac",
            "reqSigs": 1,
            "type": "pubkeyhash",
            "addresses": [
              "LeoQNthFhF928kUCGHTff7LJB61fBEU8QD"
            ]
          }
        }, 
        {
          "value": 0.12829711,
          "n": 1,
          "scriptPubKey": {
            "asm": "OP_DUP OP_HASH160 bcf0598426b954b0d4e62bb47ed4f3dd471a4b1d OP_EQUALVERIFY OP_CHECKSIG",
            "hex": "76a914bcf0598426b954b0d4e62bb47ed4f3dd471a4b1d88ac",
            "reqSigs": 1,
            "type": "pubkeyhash",
            "addresses": [
              "LcSyE4jT3wzQ7jMiZad7gis9PJFmwdjNNw"
            ]
          }
        }
      ],
      "hex": "0100000003448ab6ab8d4795694294090d162cabd22d915fc5b5ec96645b3ee923b5a59139010000006b483045022100ade662029a8347e96da79fbf3608e36f1cdaa412a7e17894288bdc4c6c4213e402205f1093a0c60507f483b27a80ce1540606444ad3fcd351bc750891be3958c2e61012102fec0da7aae05bf6c31702c14e0c16db71e563bba0f9917215464058a9d2fca4cffffffff62ee05b8532a335545be3b4d35832441ca12bb1a945679c0a17bee730eff2f7d000000006b483045022100e147e9cd2eb6b416da49a2ba406ca2bbe6ebb7351dde788f018197589d8c635f02204c939158921bea478e9474b4f379dc27eb560d4676274f698a6b9653814268af0121020933287c1ea53a638d3f135353ecde7e505bcea0fb3fde51975f42a3e76cf493ffffffff48b0ad3de14d8aa85663d0511efe8d0002ca645b76b9a1f934d7c03b32c3d883000000006a47304402200b97d55351a8bd36c06be1ccfaa41153381f6f378d43cdc6dd2932726374a13c022074a7fc83d45391d15dd4d1cc9d85e16966ea8c17ef8f9aa2ddfeff4213025560012103ea8a825bfcc9acd8c6a3b84e53bebce3619663dbda3bf776bf346531cc6e4a5bffffffff0200e1f505000000001976a914d6bdea9d7e9558389419fb194efe482edefda0d488ac0fc4c300000000001976a914bcf0598426b954b0d4e62bb47ed4f3dd471a4b1d88ac00000000"
    }
  ],
  "time": 1517089179,
  "mediantime": 1517088782,
  "nonce": 25743000,
  "bits": "1a047f14",
  "difficulty": 3731199.183374282,
  "chainwork": "000000000000000000000000000000000000000000000032ccbfb1f5d746cb22",
  "previousblockhash": "b2127591353184c9fef824bfbd7c0511a4b71ece5fca6ae9498e5505be61f6ec",
  "nextblockhash": "2b2a02e65e2da9b31a8515bb0f3db2042347cdb62ed6a2ee830b641a5064aed4"
}
