{
  "hash": "1223145a077522320193c3edac8c4b6c45e21f7b428f03614c2bc81eadf169d8",
  "confirmations": 3574,
  "strippedsize": 234,
  "size": 234,
  "weight": 936,
  "height": 1357421,
  "version": 536870912,
  "versionHex": "20000000",
  "merkleroot": "2ed6d54f4c849fce8e7d07abd9ed9b475b239fe773ff22e3c3fec75b045bc3ce",
  "tx": [
    {
      "txid": "2ed6d54f4c849fce8e7d07abd9ed9b475b239fe773ff22e3c3fec75b045bc3ce",
      "hash": "2ed6d54f4c849fce8e7d07abd9ed9b475b239fe773ff22e3c3fec75b045bc3ce",
      "version": 1,
      "size": 153,
      "vsize": 153,
      "locktime": 0,
      "vin": [
        {
          "coinbase": "036db614045a6b98832cfabe6d6dbb68a4abd587accf298c480e4bb19a9640ba5bb521be27541ce5a2368058a5d04000000000000000042f4c502f08160088da02000000",
          "sequence": 4294967295
        }
      ],
      "vout": [
        {
          "value": 25.00000000,
          "n": 0,
          "scriptPubKey": {
            "asm": "OP_DUP OP_HASH160 57757ed2ecf2052ff3126c397aca7defb9ca2cec OP_EQUALVERIFY OP_CHECKSIG",
            "hex": "76a91457757ed2ecf2052ff3126c397aca7defb9ca2cec88ac",
            "reqSigs": 1,
            "type": "pubkeyhash",
            "addresses": [
              "LTCPodGk5FwcJaRzH9yKnwicxzFUbxp6tN"
            ]
          }
        }
      ],
      "hex": "01000000010000000000000000000000000000000000000000000000000000000000000000ffffffff44036db614045a6b98832cfabe6d6dbb68a4abd587accf298c480e4bb19a9640ba5bb521be27541ce5a2368058a5d04000000000000000042f4c502f08160088da02000000ffffffff0100f90295000000001976a91457757ed2ecf2052ff3126c397aca7defb9ca2cec88ac00000000"
    }
  ],
  "time": 1517000835,
  "mediantime": 1517000530,
  "nonce": 219819698,
  "bits": "1a047f14",
  "difficulty": 3731199.183374282,
  "chainwork": "00000000000000000000000000000000000000000000003235bd341dd694e22c",
  "previousblockhash": "c67b8302681d4ee84022cc9c66646facb53861fb2a61b4fcdc77f47567a00885",
  "nextblockhash": "ef80bacd3e7dd7063f3c50b558595857b630d1f79d89e98bf799b0017a849f8c"
}
