{
  "hash": "12b364efbc99224c873276440bbd02126dcdfdbf214f66d78f0cd9efad9407bf",
  "confirmations": 3336,
  "strippedsize": 3713,
  "size": 3749,
  "weight": 14888,
  "height": 1357659,
  "version": 536870912,
  "versionHex": "20000000",
  "merkleroot": "a54cd976f49566d62dc787c77e1b0b720cf58b64848b5ae63a2c23181fa90202",
  "tx": [
    {
      "txid": "a96f26985882f7af9c8a688b1c6aed8f5037d3aea4b526467ce27e6e2169ce53",
      "hash": "9bb6ea9ddc0aa3b45860b7607097ea99dd720fa68573bba8aab391a28dd229c5",
      "version": 1,
      "size": 244,
      "vsize": 217,
      "locktime": 0,
      "vin": [
        {
          "coinbase": "035bb71404a2106c5a0803f577d508000000fabe6d6d88a62cd5ad89b97c13f7e51717f6754ea25d2635407173f6073fa2d4f8e907ef40000000000000000d2f6e6f64655374726174756d2f",
          "sequence": 0
        }
      ],
      "vout": [
        {
          "value": 25.00343000,
          "n": 0,
          "scriptPubKey": {
            "asm": "OP_DUP OP_HASH160 0c617fdb2ea42aed30a509595ee21ba3f6688db0 OP_EQUALVERIFY OP_CHECKSIG",
            "hex": "76a9140c617fdb2ea42aed30a509595ee21ba3f6688db088ac",
            "reqSigs": 1,
            "type": "pubkeyhash",
            "addresses": [
              "LLMRAtr3qBje2ySEa3CnZ55LA4TQMWnRY3"
            ]
          }
        }, 
        {
          "value": 0.00000000,
          "n": 1,
          "scriptPubKey": {
            "asm": "OP_RETURN aa21a9ed8ef9077fafa5e5df42e31a14d65880c99738a1ae045ccef88ff088aec79a847a",
            "hex": "6a24aa21a9ed8ef9077fafa5e5df42e31a14d65880c99738a1ae045ccef88ff088aec79a847a",
            "type": "nulldata"
          }
        }
      ],
      "hex": "010000000001010000000000000000000000000000000000000000000000000000000000000000ffffffff4c035bb71404a2106c5a0803f577d508000000fabe6d6d88a62cd5ad89b97c13f7e51717f6754ea25d2635407173f6073fa2d4f8e907ef40000000000000000d2f6e6f64655374726174756d2f0000000002d8340895000000001976a9140c617fdb2ea42aed30a509595ee21ba3f6688db088ac0000000000000000266a24aa21a9ed8ef9077fafa5e5df42e31a14d65880c99738a1ae045ccef88ff088aec79a847a0120000000000000000000000000000000000000000000000000000000000000000000000000"
    }, 
    {
      "txid": "c0f5f6c7f13fdcad05edf4ed85b2869a4eaeb93b3bc79356fa5bb7e820dac269",
      "hash": "c0f5f6c7f13fdcad05edf4ed85b2869a4eaeb93b3bc79356fa5bb7e820dac269",
      "version": 2,
      "size": 370,
      "vsize": 370,
      "locktime": 1357657,
      "vin": [
        {
          "txid": "447a5216d06da408ce3b74560baec8e908ee30508147e3afd7ec60f72fcf5526",
          "vout": 0,
          "scriptSig": {
            "asm": "3044022070475b1ad5a4f6d3a35597e222eaffe816b4a70c2bebdf3e9d545981f5df448e0220348318d6fb8060102a469f36ae2a473944f3888217cd95529b19d6583e57ff08[ALL] 036b5090703490cdfb65eeb0e047ff3debb1edf9470806b1fce5a2f0ebb587c40c",
            "hex": "473044022070475b1ad5a4f6d3a35597e222eaffe816b4a70c2bebdf3e9d545981f5df448e0220348318d6fb8060102a469f36ae2a473944f3888217cd95529b19d6583e57ff080121036b5090703490cdfb65eeb0e047ff3debb1edf9470806b1fce5a2f0ebb587c40c"
          },
          "sequence": 4294967294
        }, 
        {
          "txid": "db67dac80775568ac5d0a64b5bd01405f00eef120b77b21c810b0d8e4f0c7f8f",
          "vout": 1,
          "scriptSig": {
            "asm": "304402205ca217f1631fc9307d3b02dbb705db7f2e1df5c56c2461e71fa0e6592322bba702201017664ca2b4d2bc7bbe9a9c1903c8e722579df4461f3b277df701995e5788a9[ALL] 02d95bb1d795902315d5505f38c3ba1e50a6e6fd2e7a7a89f0c8473b9576353767",
            "hex": "47304402205ca217f1631fc9307d3b02dbb705db7f2e1df5c56c2461e71fa0e6592322bba702201017664ca2b4d2bc7bbe9a9c1903c8e722579df4461f3b277df701995e5788a9012102d95bb1d795902315d5505f38c3ba1e50a6e6fd2e7a7a89f0c8473b9576353767"
          },
          "sequence": 4294967294
        }
      ],
      "vout": [
        {
          "value": 0.01513020,
          "n": 0,
          "scriptPubKey": {
            "asm": "OP_DUP OP_HASH160 1e6d2d395748f008b27fc4fb0f2d3a4239502b5b OP_EQUALVERIFY OP_CHECKSIG",
            "hex": "76a9141e6d2d395748f008b27fc4fb0f2d3a4239502b5b88ac",
            "reqSigs": 1,
            "type": "pubkeyhash",
            "addresses": [
              "LMzqKhGBfjNw5mmrxGXWKSHXFr8auXCyzA"
            ]
          }
        }, 
        {
          "value": 1.00000000,
          "n": 1,
          "scriptPubKey": {
            "asm": "OP_HASH160 43ff8cf7909297b1915d1e677d2ab8cd6ad92f58 OP_EQUAL",
            "hex": "a91443ff8cf7909297b1915d1e677d2ab8cd6ad92f5887",
            "reqSigs": 1,
            "type": "scripthash",
            "addresses": [
              "ME6heFerKHbTfH2AAGRwGihgaqCp2Ei9fE"
            ]
          }
        }
      ],
      "hex": "02000000022655cf2ff760ecd7afe347815030ee08e9c8ae0b56743bce08a46dd016527a44000000006a473044022070475b1ad5a4f6d3a35597e222eaffe816b4a70c2bebdf3e9d545981f5df448e0220348318d6fb8060102a469f36ae2a473944f3888217cd95529b19d6583e57ff080121036b5090703490cdfb65eeb0e047ff3debb1edf9470806b1fce5a2f0ebb587c40cfeffffff8f7f0c4f8e0d0b811cb2770b12ef0ef00514d05b4ba6d0c58a567507c8da67db010000006a47304402205ca217f1631fc9307d3b02dbb705db7f2e1df5c56c2461e71fa0e6592322bba702201017664ca2b4d2bc7bbe9a9c1903c8e722579df4461f3b277df701995e5788a9012102d95bb1d795902315d5505f38c3ba1e50a6e6fd2e7a7a89f0c8473b9576353767feffffff023c161700000000001976a9141e6d2d395748f008b27fc4fb0f2d3a4239502b5b88ac00e1f5050000000017a91443ff8cf7909297b1915d1e677d2ab8cd6ad92f588759b71400"
    }, 
    {
      "txid": "1db6a7dc35a36649c66e9740e48adceb94a92f01d59d3cb00cb7e4bc5be4d137",
      "hash": "1db6a7dc35a36649c66e9740e48adceb94a92f01d59d3cb00cb7e4bc5be4d137",
      "version": 1,
      "size": 225,
      "vsize": 225,
      "locktime": 0,
      "vin": [
        {
          "txid": "bf7d45df61af8b3e67e7ce8f32851421f2334212e1ce11c1f69f8e1532141ec0",
          "vout": 0,
          "scriptSig": {
            "asm": "30440220187e45e14aea3f574b8088e1ba38596b1ef34091433f76f95ede9abc9c339d600220412e5553cdc4339334ed8727499957538318786a6ebd807eb75e0c75096af4b1[ALL] 023dec0affbeffd2aeb6975eafd8654f3bf07c0559ba4f2164f4985f907be23f81",
            "hex": "4730440220187e45e14aea3f574b8088e1ba38596b1ef34091433f76f95ede9abc9c339d600220412e5553cdc4339334ed8727499957538318786a6ebd807eb75e0c75096af4b10121023dec0affbeffd2aeb6975eafd8654f3bf07c0559ba4f2164f4985f907be23f81"
          },
          "sequence": 4294967295
        }
      ],
      "vout": [
        {
          "value": 0.00756884,
          "n": 0,
          "scriptPubKey": {
            "asm": "OP_DUP OP_HASH160 7fa64658659e072ce16595de16b504275d0bc1d4 OP_EQUALVERIFY OP_CHECKSIG",
            "hex": "76a9147fa64658659e072ce16595de16b504275d0bc1d488ac",
            "reqSigs": 1,
            "type": "pubkeyhash",
            "addresses": [
              "LWruGYs22KPLtyyum4LvWkhdG3Eho5tkAQ"
            ]
          }
        }, 
        {
          "value": 0.14000000,
          "n": 1,
          "scriptPubKey": {
            "asm": "OP_DUP OP_HASH160 5d09c2cddc20237d430734dffc333673a07dee0e OP_EQUALVERIFY OP_CHECKSIG",
            "hex": "76a9145d09c2cddc20237d430734dffc333673a07dee0e88ac",
            "reqSigs": 1,
            "type": "pubkeyhash",
            "addresses": [
              "LThtoFp5zW2gxvHVG7ZzGEz9SVKoV5gpKF"
            ]
          }
        }
      ],
      "hex": "0100000001c01e1432158e9ff6c111cee1124233f2211485328fcee7673e8baf61df457dbf000000006a4730440220187e45e14aea3f574b8088e1ba38596b1ef34091433f76f95ede9abc9c339d600220412e5553cdc4339334ed8727499957538318786a6ebd807eb75e0c75096af4b10121023dec0affbeffd2aeb6975eafd8654f3bf07c0559ba4f2164f4985f907be23f81ffffffff02948c0b00000000001976a9147fa64658659e072ce16595de16b504275d0bc1d488ac809fd500000000001976a9145d09c2cddc20237d430734dffc333673a07dee0e88ac00000000"
    }, 
    {
      "txid": "e1f9d84a5fd92417b3dbbb7270c63dcbd35abc03e1cc65db1d9ddc818ed31d6b",
      "hash": "e1f9d84a5fd92417b3dbbb7270c63dcbd35abc03e1cc65db1d9ddc818ed31d6b",
      "version": 1,
      "size": 225,
      "vsize": 225,
      "locktime": 0,
      "vin": [
        {
          "txid": "8993246d085370e8ecd335a73d79e459f65bf7b1633777a1aacbbcc61c1ceefe",
          "vout": 1,
          "scriptSig": {
            "asm": "304402204c6445fc71b909e461c850cb25470d934aad6e9ceb9433e0b2ad495bf101030202201cfabe2d5fe39cb88b742c452c02182fc938769087cdb451bfeb6e083f65d5ad[ALL] 033089e3e2cb2dc1103add105aba41ff4a69947c6553080d22cf576b6c4b884e35",
            "hex": "47304402204c6445fc71b909e461c850cb25470d934aad6e9ceb9433e0b2ad495bf101030202201cfabe2d5fe39cb88b742c452c02182fc938769087cdb451bfeb6e083f65d5ad0121033089e3e2cb2dc1103add105aba41ff4a69947c6553080d22cf576b6c4b884e35"
          },
          "sequence": 4294967295
        }
      ],
      "vout": [
        {
          "value": 3.90000000,
          "n": 0,
          "scriptPubKey": {
            "asm": "OP_DUP OP_HASH160 3245e7fb1562938db50031d555edc05484a00902 OP_EQUALVERIFY OP_CHECKSIG",
            "hex": "76a9143245e7fb1562938db50031d555edc05484a0090288ac",
            "reqSigs": 1,
            "type": "pubkeyhash",
            "addresses": [
              "LPomnyFmVKqnUfJksMcnTkbFTuqVT6Y5U9"
            ]
          }
        }, 
        {
          "value": 7.01079624,
          "n": 1,
          "scriptPubKey": {
            "asm": "OP_DUP OP_HASH160 2f2971a387089e7ceb8d463455cbe21b5b4e6d78 OP_EQUALVERIFY OP_CHECKSIG",
            "hex": "76a9142f2971a387089e7ceb8d463455cbe21b5b4e6d7888ac",
            "reqSigs": 1,
            "type": "pubkeyhash",
            "addresses": [
              "LPXKfoTWUjMUd3HgRUoKkxFb2NMS8KwPxJ"
            ]
          }
        }
      ],
      "hex": "0100000001feee1c1cc6bccbaaa1773763b1f75bf659e4793da735d3ece87053086d249389010000006a47304402204c6445fc71b909e461c850cb25470d934aad6e9ceb9433e0b2ad495bf101030202201cfabe2d5fe39cb88b742c452c02182fc938769087cdb451bfeb6e083f65d5ad0121033089e3e2cb2dc1103add105aba41ff4a69947c6553080d22cf576b6c4b884e35ffffffff0280ed3e17000000001976a9143245e7fb1562938db50031d555edc05484a0090288ac48a0c929000000001976a9142f2971a387089e7ceb8d463455cbe21b5b4e6d7888ac00000000"
    }, 
    {
      "txid": "b958239fa8f290caa02e219397d904b8f6b30ff971c15045729aadde1ca5c10c",
      "hash": "b958239fa8f290caa02e219397d904b8f6b30ff971c15045729aadde1ca5c10c",
      "version": 2,
      "size": 885,
      "vsize": 885,
      "locktime": 1357657,
      "vin": [
        {
          "txid": "5fb0127c53acbb37c9b483c6bd9de98e32585508c925ddb61c3ffd1bb2df9691",
          "vout": 1,
          "scriptSig": {
            "asm": "304402203efea509231f7b0631b9ab0a9bcd9551716bee5c785bbd9b0797cde46bc2a84f02205ee5e242fba94f1da40c17bb8ce366847f907394b1944103772824920292a407[ALL] 0232b458670385992b48f60369cb7fc3515438bcf8d3b0ecd80ca08d2f5189990b",
            "hex": "47304402203efea509231f7b0631b9ab0a9bcd9551716bee5c785bbd9b0797cde46bc2a84f02205ee5e242fba94f1da40c17bb8ce366847f907394b1944103772824920292a40701210232b458670385992b48f60369cb7fc3515438bcf8d3b0ecd80ca08d2f5189990b"
          },
          "sequence": 4294967294
        }, 
        {
          "txid": "594dff6a097972fc461548d8bbfed22c06c7c757b7804628c22e487de6745086",
          "vout": 0,
          "scriptSig": {
            "asm": "3045022100cb17c2b06734d2528c5a34ddcd5ab841ccfeef16f1036902b70f2331c58be726022007eeace7eb531152e4f7fb9377dc574ad64d735b246c2ce1da172d9fbf0d63d8[ALL] 03ed716fe64d9e4f5d0525f5fd33c041571c3078b8277b388081743a49b03771f3",
            "hex": "483045022100cb17c2b06734d2528c5a34ddcd5ab841ccfeef16f1036902b70f2331c58be726022007eeace7eb531152e4f7fb9377dc574ad64d735b246c2ce1da172d9fbf0d63d8012103ed716fe64d9e4f5d0525f5fd33c041571c3078b8277b388081743a49b03771f3"
          },
          "sequence": 4294967294
        }, 
        {
          "txid": "978610c948402d5ec9ec7607841fbf0536dc9dbe94aeb428cdf25af5e3f3120e",
          "vout": 2,
          "scriptSig": {
            "asm": "3045022100da9716fa9a9b224e8b762edb99400f25b8dddcbb8e14351b8d081d898d68f5d702205a9885b49473d3aa52ee5283a7d1ad30d205502183ec150f6f277654ad187531[ALL] 02bdc5ce421040cca1e8aef4cef9d5d2252ca2f390c3155443ec8f4e14d870b61f",
            "hex": "483045022100da9716fa9a9b224e8b762edb99400f25b8dddcbb8e14351b8d081d898d68f5d702205a9885b49473d3aa52ee5283a7d1ad30d205502183ec150f6f277654ad187531012102bdc5ce421040cca1e8aef4cef9d5d2252ca2f390c3155443ec8f4e14d870b61f"
          },
          "sequence": 4294967294
        }, 
        {
          "txid": "282db4962eeeb47ea7a587638fa684183ec47b2ad289749e0d08daa4287b07dc",
          "vout": 31,
          "scriptSig": {
            "asm": "3045022100c6f11f0eb503f7e4eb56082ad6ee06dd0e0c705e3642d3b995596e712d79c71f0220507eef0ccbbccc48a56a1f07d4365138f24d03319ff0d16ea18d678b05f560f0[ALL] 0373aee5aee826ca00f8d75d2592a91a6e78cdd39d2d174a3f4f87e9f6ac890722",
            "hex": "483045022100c6f11f0eb503f7e4eb56082ad6ee06dd0e0c705e3642d3b995596e712d79c71f0220507eef0ccbbccc48a56a1f07d4365138f24d03319ff0d16ea18d678b05f560f001210373aee5aee826ca00f8d75d2592a91a6e78cdd39d2d174a3f4f87e9f6ac890722"
          },
          "sequence": 4294967294
        }, 
        {
          "txid": "a20699a567e36baf62d12e740d333a0181f717338c770d993d3ce71cbb6c9cb3",
          "vout": 0,
          "scriptSig": {
            "asm": "3045022100d73c32a17ce8ea67c6f33e90383412751d844f6022c61cc3ec89bb7355c6e090022053d7a1f43985b1214cb17ef712cb52a3b34242c620075e3c7d67a803aa0c06b9[ALL] 02f015503e1c4db982e85d36a9c457703c2069d56ed24f8480b46608e2bb3175a7",
            "hex": "483045022100d73c32a17ce8ea67c6f33e90383412751d844f6022c61cc3ec89bb7355c6e090022053d7a1f43985b1214cb17ef712cb52a3b34242c620075e3c7d67a803aa0c06b9012102f015503e1c4db982e85d36a9c457703c2069d56ed24f8480b46608e2bb3175a7"
          },
          "sequence": 4294967294
        }
      ],
      "vout": [
        {
          "value": 19.97900000,
          "n": 0,
          "scriptPubKey": {
            "asm": "OP_DUP OP_HASH160 dc73295da3138e67565979da8bc506c704693519 OP_EQUALVERIFY OP_CHECKSIG",
            "hex": "76a914dc73295da3138e67565979da8bc506c70469351988ac",
            "reqSigs": 1,
            "type": "pubkeyhash",
            "addresses": [
              "LfKasyxmM1QkdWCG8BfUtb22vpVe2QWS8s"
            ]
          }
        }, 
        {
          "value": 0.00911403,
          "n": 1,
          "scriptPubKey": {
            "asm": "OP_DUP OP_HASH160 84482188aeef723513d7c4a1ddf206bf25a803fb OP_EQUALVERIFY OP_CHECKSIG",
            "hex": "76a91484482188aeef723513d7c4a1ddf206bf25a803fb88ac",
            "reqSigs": 1,
            "type": "pubkeyhash",
            "addresses": [
              "LXHPsHQyZBaH4ziwjNBXKDdjL9fftXarLi"
            ]
          }
        }, 
        {
          "value": 0.61542400,
          "n": 2,
          "scriptPubKey": {
            "asm": "OP_DUP OP_HASH160 16b5f79362f01857b81b1f3d683ff31a9f19fa89 OP_EQUALVERIFY OP_CHECKSIG",
            "hex": "76a91416b5f79362f01857b81b1f3d683ff31a9f19fa8988ac",
            "reqSigs": 1,
            "type": "pubkeyhash",
            "addresses": [
              "LMJ37jD3STKkYmsg7uZgBikg7WPcVVFNtD"
            ]
          }
        }, 
        {
          "value": 4.93697700,
          "n": 3,
          "scriptPubKey": {
            "asm": "OP_DUP OP_HASH160 1a7d7c0d0c8076810b117b44e04af95b4082fd9f OP_EQUALVERIFY OP_CHECKSIG",
            "hex": "76a9141a7d7c0d0c8076810b117b44e04af95b4082fd9f88ac",
            "reqSigs": 1,
            "type": "pubkeyhash",
            "addresses": [
              "LMe2A2D8e7gMzYbSRuxhr6rv6emWrkNwFD"
            ]
          }
        }
      ],
      "hex": "02000000059196dfb21bfd3f1cb6dd25c9085558328ee99dbdc683b4c937bbac537c12b05f010000006a47304402203efea509231f7b0631b9ab0a9bcd9551716bee5c785bbd9b0797cde46bc2a84f02205ee5e242fba94f1da40c17bb8ce366847f907394b1944103772824920292a40701210232b458670385992b48f60369cb7fc3515438bcf8d3b0ecd80ca08d2f5189990bfeffffff865074e67d482ec2284680b757c7c7062cd2febbd8481546fc7279096aff4d59000000006b483045022100cb17c2b06734d2528c5a34ddcd5ab841ccfeef16f1036902b70f2331c58be726022007eeace7eb531152e4f7fb9377dc574ad64d735b246c2ce1da172d9fbf0d63d8012103ed716fe64d9e4f5d0525f5fd33c041571c3078b8277b388081743a49b03771f3feffffff0e12f3e3f55af2cd28b4ae94be9ddc3605bf1f840776ecc95e2d4048c9108697020000006b483045022100da9716fa9a9b224e8b762edb99400f25b8dddcbb8e14351b8d081d898d68f5d702205a9885b49473d3aa52ee5283a7d1ad30d205502183ec150f6f277654ad187531012102bdc5ce421040cca1e8aef4cef9d5d2252ca2f390c3155443ec8f4e14d870b61ffeffffffdc077b28a4da080d9e7489d22a7bc43e1884a68f6387a5a77eb4ee2e96b42d281f0000006b483045022100c6f11f0eb503f7e4eb56082ad6ee06dd0e0c705e3642d3b995596e712d79c71f0220507eef0ccbbccc48a56a1f07d4365138f24d03319ff0d16ea18d678b05f560f001210373aee5aee826ca00f8d75d2592a91a6e78cdd39d2d174a3f4f87e9f6ac890722feffffffb39c6cbb1ce73c3d990d778c3317f781013a330d742ed162af6be367a59906a2000000006b483045022100d73c32a17ce8ea67c6f33e90383412751d844f6022c61cc3ec89bb7355c6e090022053d7a1f43985b1214cb17ef712cb52a3b34242c620075e3c7d67a803aa0c06b9012102f015503e1c4db982e85d36a9c457703c2069d56ed24f8480b46608e2bb3175a7feffffff04e0881577000000001976a914dc73295da3138e67565979da8bc506c70469351988ac2be80d00000000001976a91484482188aeef723513d7c4a1ddf206bf25a803fb88ac0010ab03000000001976a91416b5f79362f01857b81b1f3d683ff31a9f19fa8988aca43a6d1d000000001976a9141a7d7c0d0c8076810b117b44e04af95b4082fd9f88ac59b71400"
    }, 
    {
      "txid": "3c529372331a4fbf796774392cc1423ab0ad152b89d7074134e0e0bf17db6015",
      "hash": "3c529372331a4fbf796774392cc1423ab0ad152b89d7074134e0e0bf17db6015",
      "version": 2,
      "size": 1269,
      "vsize": 1269,
      "locktime": 1357657,
      "vin": [
        {
          "txid": "7d61b65a3eab537c9ed71e2f92dec82135654b0222b85d0557c356c83ab3a715",
          "vout": 10,
          "scriptSig": {
            "asm": "304402205d50e05935e991a0f48a2d96805a58c02ea41057e95ceb4e1dfc21d87f26c95c02205abacbc1d218e6cf5d76376b577ef7b217a2441e96282dc4cd766532093c20c1[ALL] 02e24984cfcaaffef95b8250a33bbe3c66150f2658e6e3f10011c7588f69d7c390",
            "hex": "47304402205d50e05935e991a0f48a2d96805a58c02ea41057e95ceb4e1dfc21d87f26c95c02205abacbc1d218e6cf5d76376b577ef7b217a2441e96282dc4cd766532093c20c1012102e24984cfcaaffef95b8250a33bbe3c66150f2658e6e3f10011c7588f69d7c390"
          },
          "sequence": 4294967294
        }
      ],
      "vout": [
        {
          "value": 0.04980434,
          "n": 0,
          "scriptPubKey": {
            "asm": "OP_DUP OP_HASH160 2d3cce581eebeed73c12215a8b481fd6ab17b1b6 OP_EQUALVERIFY OP_CHECKSIG",
            "hex": "76a9142d3cce581eebeed73c12215a8b481fd6ab17b1b688ac",
            "reqSigs": 1,
            "type": "pubkeyhash",
            "addresses": [
              "LPM9Wirwtu4HbWyJyecakbW28Li63mFMcf"
            ]
          }
        }, 
        {
          "value": 0.01337419,
          "n": 1,
          "scriptPubKey": {
            "asm": "OP_DUP OP_HASH160 84063ba0d0cc2aaea5091349429d414edfab4854 OP_EQUALVERIFY OP_CHECKSIG",
            "hex": "76a91484063ba0d0cc2aaea5091349429d414edfab485488ac",
            "reqSigs": 1,
            "type": "pubkeyhash",
            "addresses": [
              "LXG2vc5mi4ycjsPTK1F9LBTYjEytrzyggx"
            ]
          }
        }, 
        {
          "value": 0.00628595,
          "n": 2,
          "scriptPubKey": {
            "asm": "OP_DUP OP_HASH160 6a3a53a5081a74ae9e9e8d8ec6a33755376b2654 OP_EQUALVERIFY OP_CHECKSIG",
            "hex": "76a9146a3a53a5081a74ae9e9e8d8ec6a33755376b265488ac",
            "reqSigs": 1,
            "type": "pubkeyhash",
            "addresses": [
              "LUudmADi5pJ4NKcnkvorFiBRhxsSuNSXaL"
            ]
          }
        }, 
        {
          "value": 0.09995442,
          "n": 3,
          "scriptPubKey": {
            "asm": "OP_DUP OP_HASH160 720abfa88096ffd64cd9cb4f7c6c3a89988f1270 OP_EQUALVERIFY OP_CHECKSIG",
            "hex": "76a914720abfa88096ffd64cd9cb4f7c6c3a89988f127088ac",
            "reqSigs": 1,
            "type": "pubkeyhash",
            "addresses": [
              "LVcxAurFqgD5omjznJFa388AJyiDTCoTyL"
            ]
          }
        }, 
        {
          "value": 0.13863417,
          "n": 4,
          "scriptPubKey": {
            "asm": "OP_DUP OP_HASH160 6f1a5eecd0f787f35630d53b675a4c005bf4535f OP_EQUALVERIFY OP_CHECKSIG",
            "hex": "76a9146f1a5eecd0f787f35630d53b675a4c005bf4535f88ac",
            "reqSigs": 1,
            "type": "pubkeyhash",
            "addresses": [
              "LVMQrnHSoS9tfEBq8rM3ALd4CPewkShoTP"
            ]
          }
        }, 
        {
          "value": 0.02070229,
          "n": 5,
          "scriptPubKey": {
            "asm": "OP_DUP OP_HASH160 76ca1ace2b0688dfe9a8496941361877124cd69d OP_EQUALVERIFY OP_CHECKSIG",
            "hex": "76a91476ca1ace2b0688dfe9a8496941361877124cd69d88ac",
            "reqSigs": 1,
            "type": "pubkeyhash",
            "addresses": [
              "LW447L7TQYQh6NtTL9GaFHdKynv8cPNf4Y"
            ]
          }
        }, 
        {
          "value": 0.05353114,
          "n": 6,
          "scriptPubKey": {
            "asm": "OP_DUP OP_HASH160 7ddd1343474a5c2d92e02f9948d6de81adb75e2e OP_EQUALVERIFY OP_CHECKSIG",
            "hex": "76a9147ddd1343474a5c2d92e02f9948d6de81adb75e2e88ac",
            "reqSigs": 1,
            "type": "pubkeyhash",
            "addresses": [
              "LWhTZmZgC6DKYcSanw3cD79PquG4TUqarD"
            ]
          }
        }, 
        {
          "value": 0.01919684,
          "n": 7,
          "scriptPubKey": {
            "asm": "OP_DUP OP_HASH160 79b17fe5eeb66d541fe0f96fa9790aff7690bc83 OP_EQUALVERIFY OP_CHECKSIG",
            "hex": "76a91479b17fe5eeb66d541fe0f96fa9790aff7690bc8388ac",
            "reqSigs": 1,
            "type": "pubkeyhash",
            "addresses": [
              "LWKQfK7QvXowA3dEsA4thmXbAHgtJLZd5F"
            ]
          }
        }, 
        {
          "value": 0.10514683,
          "n": 8,
          "scriptPubKey": {
            "asm": "OP_DUP OP_HASH160 7ffb30eb7dcebed25fdb134093b3fa2b14856748 OP_EQUALVERIFY OP_CHECKSIG",
            "hex": "76a9147ffb30eb7dcebed25fdb134093b3fa2b1485674888ac",
            "reqSigs": 1,
            "type": "pubkeyhash",
            "addresses": [
              "LWtezdzYepcyxpN4JjfKywQEPbgCnWr8fz"
            ]
          }
        }, 
        {
          "value": 0.06120178,
          "n": 9,
          "scriptPubKey": {
            "asm": "OP_DUP OP_HASH160 813f7ac06e42cc26fd763de8431d503a21c5efed OP_EQUALVERIFY OP_CHECKSIG",
            "hex": "76a914813f7ac06e42cc26fd763de8431d503a21c5efed88ac",
            "reqSigs": 1,
            "type": "pubkeyhash",
            "addresses": [
              "LX1MUbHrjMobHN6e418dF4Rg1E9RbnciTi"
            ]
          }
        }, 
        {
          "value": 0.05010735,
          "n": 10,
          "scriptPubKey": {
            "asm": "OP_DUP OP_HASH160 8452c1ad366786718fca3b6c14e7a40a1ec3a888 OP_EQUALVERIFY OP_CHECKSIG",
            "hex": "76a9148452c1ad366786718fca3b6c14e7a40a1ec3a88888ac",
            "reqSigs": 1,
            "type": "pubkeyhash",
            "addresses": [
              "LXHcbZThGVdDRvcaitnU6UHdcpJbAXn88r"
            ]
          }
        }, 
        {
          "value": 0.10693980,
          "n": 11,
          "scriptPubKey": {
            "asm": "OP_DUP OP_HASH160 846ad6787f3e377029cb32698e00c6fce4fac3f4 OP_EQUALVERIFY OP_CHECKSIG",
            "hex": "76a914846ad6787f3e377029cb32698e00c6fce4fac3f488ac",
            "reqSigs": 1,
            "type": "pubkeyhash",
            "addresses": [
              "LXJ7SkesGnABC6wXfZVenmMBQHQAD7dRYf"
            ]
          }
        }, 
        {
          "value": 0.22615959,
          "n": 12,
          "scriptPubKey": {
            "asm": "OP_DUP OP_HASH160 84b0003697c7df6383524cb97d1b083bd7d55515 OP_EQUALVERIFY OP_CHECKSIG",
            "hex": "76a91484b0003697c7df6383524cb97d1b083bd7d5551588ac",
            "reqSigs": 1,
            "type": "pubkeyhash",
            "addresses": [
              "LXKYJHbMbTB1Hjn3uUnZcnirJMcXTd7Pum"
            ]
          }
        }, 
        {
          "value": 0.00918167,
          "n": 13,
          "scriptPubKey": {
            "asm": "OP_DUP OP_HASH160 85c0f99d5f80d9f3e5b707e814a150dc3823cfc6 OP_EQUALVERIFY OP_CHECKSIG",
            "hex": "76a91485c0f99d5f80d9f3e5b707e814a150dc3823cfc688ac",
            "reqSigs": 1,
            "type": "pubkeyhash",
            "addresses": [
              "LXRBJsKxFrhfdz7wcTawcykpysb3G51ihw"
            ]
          }
        }, 
        {
          "value": 0.17385809,
          "n": 14,
          "scriptPubKey": {
            "asm": "OP_DUP OP_HASH160 8aa96496419eca66e16b9eab4d452da2035bfe92 OP_EQUALVERIFY OP_CHECKSIG",
            "hex": "76a9148aa96496419eca66e16b9eab4d452da2035bfe9288ac",
            "reqSigs": 1,
            "type": "pubkeyhash",
            "addresses": [
              "LXs8SK3PJTz5TcDWWWb3znDpYGohCS6pVg"
            ]
          }
        }, 
        {
          "value": 2.25022416,
          "n": 15,
          "scriptPubKey": {
            "asm": "OP_DUP OP_HASH160 87002c5cd842871e76c186159bbc9222193027b8 OP_EQUALVERIFY OP_CHECKSIG",
            "hex": "76a91487002c5cd842871e76c186159bbc9222193027b888ac",
            "reqSigs": 1,
            "type": "pubkeyhash",
            "addresses": [
              "LXXmh9gzxmcUBtdkE4SMZ6sTw9nJ86J9FU"
            ]
          }
        }, 
        {
          "value": 0.20226589,
          "n": 16,
          "scriptPubKey": {
            "asm": "OP_DUP OP_HASH160 926c844eaafad73d83b43420d634f3a0ad246e5f OP_EQUALVERIFY OP_CHECKSIG",
            "hex": "76a914926c844eaafad73d83b43420d634f3a0ad246e5f88ac",
            "reqSigs": 1,
            "type": "pubkeyhash",
            "addresses": [
              "LYaAv6qacpdtBnui3CRdAtgSNaR4w5NcpJ"
            ]
          }
        }, 
        {
          "value": 0.11485195,
          "n": 17,
          "scriptPubKey": {
            "asm": "OP_DUP OP_HASH160 93117ed8bf648f9c3df9421dbbc69d4625585c95 OP_EQUALVERIFY OP_CHECKSIG",
            "hex": "76a91493117ed8bf648f9c3df9421dbbc69d4625585c9588ac",
            "reqSigs": 1,
            "type": "pubkeyhash",
            "addresses": [
              "LYdaZ28o56bChNindGvL1B1QD8P31cerxY"
            ]
          }
        }, 
        {
          "value": 0.12050778,
          "n": 18,
          "scriptPubKey": {
            "asm": "OP_DUP OP_HASH160 930209443c19275d6c4ee51cecad6b10ba3fecfb OP_EQUALVERIFY OP_CHECKSIG",
            "hex": "76a914930209443c19275d6c4ee51cecad6b10ba3fecfb88ac",
            "reqSigs": 1,
            "type": "pubkeyhash",
            "addresses": [
              "LYdG2tYjyxWmNu2gvwP25xGuwssri7Wfg2"
            ]
          }
        }, 
        {
          "value": 0.16077019,
          "n": 19,
          "scriptPubKey": {
            "asm": "OP_DUP OP_HASH160 934478d16f7259aeeba491a253d2c4b4f5d5e041 OP_EQUALVERIFY OP_CHECKSIG",
            "hex": "76a914934478d16f7259aeeba491a253d2c4b4f5d5e04188ac",
            "reqSigs": 1,
            "type": "pubkeyhash",
            "addresses": [
              "LYedcvgFoLXWiogXpqSdUquk5YMN18RCqe"
            ]
          }
        }, 
        {
          "value": 0.03524896,
          "n": 20,
          "scriptPubKey": {
            "asm": "OP_DUP OP_HASH160 8f3acdb7993aa683be0692a2a3fad2a1941143e1 OP_EQUALVERIFY OP_CHECKSIG",
            "hex": "76a9148f3acdb7993aa683be0692a2a3fad2a1941143e188ac",
            "reqSigs": 1,
            "type": "pubkeyhash",
            "addresses": [
              "LYHHLPXvevEGwrm1BNFtTV967aPe9rtKFd"
            ]
          }
        }, 
        {
          "value": 0.10380181,
          "n": 21,
          "scriptPubKey": {
            "asm": "OP_DUP OP_HASH160 95149070c07949208c2c0a46cc869f1385b2f064 OP_EQUALVERIFY OP_CHECKSIG",
            "hex": "76a91495149070c07949208c2c0a46cc869f1385b2f06488ac",
            "reqSigs": 1,
            "type": "pubkeyhash",
            "addresses": [
              "LYpDad5TfNCSFzM5C1aaXRwFZnZgs77S9n"
            ]
          }
        }, 
        {
          "value": 0.09969580,
          "n": 22,
          "scriptPubKey": {
            "asm": "OP_DUP OP_HASH160 960bc6d7834152c61b11073f0d63a19b23a68e71 OP_EQUALVERIFY OP_CHECKSIG",
            "hex": "76a914960bc6d7834152c61b11073f0d63a19b23a68e7188ac",
            "reqSigs": 1,
            "type": "pubkeyhash",
            "addresses": [
              "LYuKjFPMYRyTRNygC6kTKB8JbxM3iwSMsx"
            ]
          }
        }, 
        {
          "value": 15.12895341,
          "n": 23,
          "scriptPubKey": {
            "asm": "OP_DUP OP_HASH160 0ded32e89222f2318e7b4e4238d60f2ffdec75cc OP_EQUALVERIFY OP_CHECKSIG",
            "hex": "76a9140ded32e89222f2318e7b4e4238d60f2ffdec75cc88ac",
            "reqSigs": 1,
            "type": "pubkeyhash",
            "addresses": [
              "LLVbCaAY9WZgBSjg4MzBzZjkwhKUvCmaJE"
            ]
          }
        }, 
        {
          "value": 0.01242963,
          "n": 24,
          "scriptPubKey": {
            "asm": "OP_DUP OP_HASH160 97d00c11e70e5fc5fc8f8ab9816a043e8a73aece OP_EQUALVERIFY OP_CHECKSIG",
            "hex": "76a91497d00c11e70e5fc5fc8f8ab9816a043e8a73aece88ac",
            "reqSigs": 1,
            "type": "pubkeyhash",
            "addresses": [
              "LZ4fXYn1vpQTrVPwP5G2FixEszzd3PNJKR"
            ]
          }
        }, 
        {
          "value": 0.01073657,
          "n": 25,
          "scriptPubKey": {
            "asm": "OP_DUP OP_HASH160 9e564255c4cc348a152e34a75abaaaeaa251678e OP_EQUALVERIFY OP_CHECKSIG",
            "hex": "76a9149e564255c4cc348a152e34a75abaaaeaa251678e88ac",
            "reqSigs": 1,
            "type": "pubkeyhash",
            "addresses": [
              "LZfAMunyDu8muUdSA7hz7K5bAdrkDQJojt"
            ]
          }
        }, 
        {
          "value": 0.10036607,
          "n": 26,
          "scriptPubKey": {
            "asm": "OP_DUP OP_HASH160 9a71b11ba1bb13df953ff73f232603cab2af889d OP_EQUALVERIFY OP_CHECKSIG",
            "hex": "76a9149a71b11ba1bb13df953ff73f232603cab2af889d88ac",
            "reqSigs": 1,
            "type": "pubkeyhash",
            "addresses": [
              "LZJaXCePNH53z4ShdVrrWUGNaFVnxzSvpm"
            ]
          }
        }, 
        {
          "value": 0.12322335,
          "n": 27,
          "scriptPubKey": {
            "asm": "OP_DUP OP_HASH160 9fbb45dcb41378124637bbea04e690bdb09232bf OP_EQUALVERIFY OP_CHECKSIG",
            "hex": "76a9149fbb45dcb41378124637bbea04e690bdb09232bf88ac",
            "reqSigs": 1,
            "type": "pubkeyhash",
            "addresses": [
              "LZnY3fRCK2Ew9t9dhJ4mGFV45AQzXi1QUK"
            ]
          }
        }, 
        {
          "value": 0.10919330,
          "n": 28,
          "scriptPubKey": {
            "asm": "OP_HASH160 0221962e575d9901ddffbcd757fe318a618939d2 OP_EQUAL",
            "hex": "a9140221962e575d9901ddffbcd757fe318a618939d287",
            "reqSigs": 1,
            "type": "scripthash",
            "addresses": [
              "M86RpTLJ3jnv94KrjaAQEGbCDEesHjHr6C"
            ]
          }
        }, 
        {
          "value": 0.11062126,
          "n": 29,
          "scriptPubKey": {
            "asm": "OP_HASH160 5bc5d96cdede6269cdce43a00a6ba2c386dfacff OP_EQUAL",
            "hex": "a9145bc5d96cdede6269cdce43a00a6ba2c386dfacff87",
            "reqSigs": 1,
            "type": "scripthash",
            "addresses": [
              "MGGQjhTSke7KaXvpqrzWG66mMN8stvaqGy"
            ]
          }
        }, 
        {
          "value": 0.02968955,
          "n": 30,
          "scriptPubKey": {
            "asm": "OP_HASH160 798eb705b36f2a72a3066a79ba472ae23f40b726 OP_EQUAL",
            "hex": "a914798eb705b36f2a72a3066a79ba472ae23f40b72687",
            "reqSigs": 1,
            "type": "scripthash",
            "addresses": [
              "MJytxeb925Rh8Mf1ABXa5jzpmARzpUcfoq"
            ]
          }
        }, 
        {
          "value": 0.03736030,
          "n": 31,
          "scriptPubKey": {
            "asm": "OP_HASH160 b70a943b0cf0af0a61542cb08269edb4ff68c635 OP_EQUAL",
            "hex": "a914b70a943b0cf0af0a61542cb08269edb4ff68c63587",
            "reqSigs": 1,
            "type": "scripthash",
            "addresses": [
              "MQazZaXEg9LdqXYkoCB4MxvryufcZWrGeF"
            ]
          }
        }, 
        {
          "value": 0.06098768,
          "n": 32,
          "scriptPubKey": {
            "asm": "OP_HASH160 c79488a4bc078c315d1786ef5311e2c70622ce2e OP_EQUAL",
            "hex": "a914c79488a4bc078c315d1786ef5311e2c70622ce2e87",
            "reqSigs": 1,
            "type": "scripthash",
            "addresses": [
              "MS6SduoknA74wgsLk1tzjQaHrj7noA5Knt"
            ]
          }
        }
      ],
      "hex": "020000000115a7b33ac856c357055db822024b653521c8de922f1ed79e7c53ab3e5ab6617d0a0000006a47304402205d50e05935e991a0f48a2d96805a58c02ea41057e95ceb4e1dfc21d87f26c95c02205abacbc1d218e6cf5d76376b577ef7b217a2441e96282dc4cd766532093c20c1012102e24984cfcaaffef95b8250a33bbe3c66150f2658e6e3f10011c7588f69d7c390feffffff21d2fe4b00000000001976a9142d3cce581eebeed73c12215a8b481fd6ab17b1b688ac4b681400000000001976a91484063ba0d0cc2aaea5091349429d414edfab485488ac73970900000000001976a9146a3a53a5081a74ae9e9e8d8ec6a33755376b265488acb2849800000000001976a914720abfa88096ffd64cd9cb4f7c6c3a89988f127088acf989d300000000001976a9146f1a5eecd0f787f35630d53b675a4c005bf4535f88acd5961f00000000001976a91476ca1ace2b0688dfe9a8496941361877124cd69d88ac9aae5100000000001976a9147ddd1343474a5c2d92e02f9948d6de81adb75e2e88acc44a1d00000000001976a91479b17fe5eeb66d541fe0f96fa9790aff7690bc8388acfb70a000000000001976a9147ffb30eb7dcebed25fdb134093b3fa2b1485674888acf2625d00000000001976a914813f7ac06e42cc26fd763de8431d503a21c5efed88ac2f754c00000000001976a9148452c1ad366786718fca3b6c14e7a40a1ec3a88888ac5c2da300000000001976a914846ad6787f3e377029cb32698e00c6fce4fac3f488ac97175901000000001976a91484b0003697c7df6383524cb97d1b083bd7d5551588ac97020e00000000001976a91485c0f99d5f80d9f3e5b707e814a150dc3823cfc688ac51490901000000001976a9148aa96496419eca66e16b9eab4d452da2035bfe9288acd091690d000000001976a91487002c5cd842871e76c186159bbc9222193027b888ac1da23401000000001976a914926c844eaafad73d83b43420d634f3a0ad246e5f88ac0b40af00000000001976a91493117ed8bf648f9c3df9421dbbc69d4625585c9588ac5ae1b700000000001976a914930209443c19275d6c4ee51cecad6b10ba3fecfb88acdb50f500000000001976a914934478d16f7259aeeba491a253d2c4b4f5d5e04188ac20c93500000000001976a9148f3acdb7993aa683be0692a2a3fad2a1941143e188ac95639e00000000001976a91495149070c07949208c2c0a46cc869f1385b2f06488acac1f9800000000001976a914960bc6d7834152c61b11073f0d63a19b23a68e7188ac6df32c5a000000001976a9140ded32e89222f2318e7b4e4238d60f2ffdec75cc88ac53f71200000000001976a91497d00c11e70e5fc5fc8f8ab9816a043e8a73aece88acf9611000000000001976a9149e564255c4cc348a152e34a75abaaaeaa251678e88ac7f259900000000001976a9149a71b11ba1bb13df953ff73f232603cab2af889d88ac1f06bc00000000001976a9149fbb45dcb41378124637bbea04e690bdb09232bf88aca29da6000000000017a9140221962e575d9901ddffbcd757fe318a618939d2876ecba8000000000017a9145bc5d96cdede6269cdce43a00a6ba2c386dfacff877b4d2d000000000017a914798eb705b36f2a72a3066a79ba472ae23f40b72687de0139000000000017a914b70a943b0cf0af0a61542cb08269edb4ff68c63587500f5d000000000017a914c79488a4bc078c315d1786ef5311e2c70622ce2e8759b71400"
    }, 
    {
      "txid": "c9adadeff943febc69660ccfd2b7546b7b2b19be6184f4394f3dedc80faa9bcc",
      "hash": "c9adadeff943febc69660ccfd2b7546b7b2b19be6184f4394f3dedc80faa9bcc",
      "version": 1,
      "size": 226,
      "vsize": 226,
      "locktime": 0,
      "vin": [
        {
          "txid": "765abdf94d263300936896774e458b23795149fedb770d8fa34a301f6df1edb2",
          "vout": 1,
          "scriptSig": {
            "asm": "3045022100f86d777d70414d8ed092056c347b2c1220e00baf887a1de8ec11007c7739b46b022007401151e7054414e99633c6987479a166f022d249b9e42ef3006a7964995ed0[ALL] 02abb5235e584af336126f966e239cd78dd01bf7d8928e23f54ca5adfac206898f",
            "hex": "483045022100f86d777d70414d8ed092056c347b2c1220e00baf887a1de8ec11007c7739b46b022007401151e7054414e99633c6987479a166f022d249b9e42ef3006a7964995ed0012102abb5235e584af336126f966e239cd78dd01bf7d8928e23f54ca5adfac206898f"
          },
          "sequence": 4294967295
        }
      ],
      "vout": [
        {
          "value": 0.00057560,
          "n": 0,
          "scriptPubKey": {
            "asm": "OP_DUP OP_HASH160 9e5294f5376aafdd77329e8edc5f751fd247bd83 OP_EQUALVERIFY OP_CHECKSIG",
            "hex": "76a9149e5294f5376aafdd77329e8edc5f751fd247bd8388ac",
            "reqSigs": 1,
            "type": "pubkeyhash",
            "addresses": [
              "LZf5xQnZAPCDedwgAPgqgoKt6YaMX9R1SS"
            ]
          }
        }, 
        {
          "value": 0.00100000,
          "n": 1,
          "scriptPubKey": {
            "asm": "OP_DUP OP_HASH160 13ea9cb1950efa906d9d8c11ca697fa0367c0279 OP_EQUALVERIFY OP_CHECKSIG",
            "hex": "76a91413ea9cb1950efa906d9d8c11ca697fa0367c027988ac",
            "reqSigs": 1,
            "type": "pubkeyhash",
            "addresses": [
              "LM3G9zShJS7Fj16erGqtMD9krsGFzg4qUX"
            ]
          }
        }
      ],
      "hex": "0100000001b2edf16d1f304aa38f0d77dbfe495179238b454e779668930033264df9bd5a76010000006b483045022100f86d777d70414d8ed092056c347b2c1220e00baf887a1de8ec11007c7739b46b022007401151e7054414e99633c6987479a166f022d249b9e42ef3006a7964995ed0012102abb5235e584af336126f966e239cd78dd01bf7d8928e23f54ca5adfac206898fffffffff02d8e00000000000001976a9149e5294f5376aafdd77329e8edc5f751fd247bd8388aca0860100000000001976a91413ea9cb1950efa906d9d8c11ca697fa0367c027988ac00000000"
    }, 
    {
      "txid": "f5982591d1206592ad02b0c00eb4d81fd5b03cdb37609000f50845b41b5981e1",
      "hash": "f5982591d1206592ad02b0c00eb4d81fd5b03cdb37609000f50845b41b5981e1",
      "version": 2,
      "size": 224,
      "vsize": 224,
      "locktime": 1357657,
      "vin": [
        {
          "txid": "cf29c66bb522976b004c565132d3e8fedceeea1cb9d8a9a99a3aa2c82799e9bf",
          "vout": 1,
          "scriptSig": {
            "asm": "3045022100c34c554fc04b06cd7d9e0a08ca5316a93c36dbe661970f35603937502540ef650220145951f2e8b5a192a9159f648c01670a27fa67ae9df6613b00c11a55deb14409[ALL] 02ad377761286fb71f0ee13777d5f261a1496526123254e6b1ace8fa6419b739e7",
            "hex": "483045022100c34c554fc04b06cd7d9e0a08ca5316a93c36dbe661970f35603937502540ef650220145951f2e8b5a192a9159f648c01670a27fa67ae9df6613b00c11a55deb14409012102ad377761286fb71f0ee13777d5f261a1496526123254e6b1ace8fa6419b739e7"
          },
          "sequence": 4294967294
        }
      ],
      "vout": [
        {
          "value": 2.48577137,
          "n": 0,
          "scriptPubKey": {
            "asm": "OP_DUP OP_HASH160 afbeb68a63e9cd4c3f5965121da88b83572e56be OP_EQUALVERIFY OP_CHECKSIG",
            "hex": "76a914afbeb68a63e9cd4c3f5965121da88b83572e56be88ac",
            "reqSigs": 1,
            "type": "pubkeyhash",
            "addresses": [
              "LbFCykwAhM14Cw32tEBTYFBiXdSomwnzsF"
            ]
          }
        }, 
        {
          "value": 0.99000000,
          "n": 1,
          "scriptPubKey": {
            "asm": "OP_HASH160 3c1d35104fd2f2cf66fcf83ad05006fc344f4845 OP_EQUAL",
            "hex": "a9143c1d35104fd2f2cf66fcf83ad05006fc344f484587",
            "reqSigs": 1,
            "type": "scripthash",
            "addresses": [
              "MDP1mJCkt1W7ZzQZTTqrkS37hfcFKHMrur"
            ]
          }
        }
      ],
      "hex": "0200000001bfe99927c8a23a9aa9a9d8b91ceaeedcfee8d33251564c006b9722b56bc629cf010000006b483045022100c34c554fc04b06cd7d9e0a08ca5316a93c36dbe661970f35603937502540ef650220145951f2e8b5a192a9159f648c01670a27fa67ae9df6613b00c11a55deb14409012102ad377761286fb71f0ee13777d5f261a1496526123254e6b1ace8fa6419b739e7feffffff0271fcd00e000000001976a914afbeb68a63e9cd4c3f5965121da88b83572e56be88acc09ee6050000000017a9143c1d35104fd2f2cf66fcf83ad05006fc344f48458759b71400"
    }
  ],
  "time": 1517031555,
  "mediantime": 1517031084,
  "nonce": 710482263,
  "bits": "1a047f14",
  "difficulty": 3731199.183374282,
  "chainwork": "0000000000000000000000000000000000000000000000326aab9a49e161c258",
  "previousblockhash": "428ef12e73884fd908050b267f37baaa277b615c375871bcd852e51d5c29f5f1",
  "nextblockhash": "f34044bf133f8f643c6877902febd1ffc72920cac8eb66b6905781a71b744da1"
}
