{
  "hash": "12b57f5a9643800b089838a8527dd7c70fccd5a809248eda39561e3a475f211e",
  "confirmations": 1944,
  "strippedsize": 902,
  "size": 938,
  "weight": 3644,
  "height": 1359050,
  "version": 536870912,
  "versionHex": "20000000",
  "merkleroot": "ac355d5335d8cf2a7cb81e736eb107a957c87ef43b380b6fb08767511c6d39f3",
  "tx": [
    {
      "txid": "869f724fcc5d97f0af83132057ba9505d1d17b9c2117a1a869bffe35a5ef33bd",
      "hash": "3cc5122ba4036b2eb2c7b56bab80efcebd903e6cd7a235e29ce2c4162557bb69",
      "version": 1,
      "size": 258,
      "vsize": 231,
      "locktime": 0,
      "vin": [
        {
          "coinbase": "03cabc14172f5669614254432f4d696e656420627920637a7131352f2cfabe6d6d0c6c9f9d1835f65e0ae7127138d2306b4ec9309d0364da3fa56ba34522b4d37a010000000000000010da73cc00e99b5e0e9ed0aeb302000000",
          "sequence": 4294967295
        }
      ],
      "vout": [
        {
          "value": 25.00060000,
          "n": 0,
          "scriptPubKey": {
            "asm": "OP_DUP OP_HASH160 e16c28146ed4869c190b3f0bdc18d80d45f92134 OP_EQUALVERIFY OP_CHECKSIG",
            "hex": "76a914e16c28146ed4869c190b3f0bdc18d80d45f9213488ac",
            "reqSigs": 1,
            "type": "pubkeyhash",
            "addresses": [
              "LfmssDyX6iZvbVqHv6t9P6JWXia2JG7mdb"
            ]
          }
        }, 
        {
          "value": 0.00000000,
          "n": 1,
          "scriptPubKey": {
            "asm": "OP_RETURN aa21a9edc2ea8ee6da63f55a68dfbe14709bc0f840afc0144525ead0977727266a528039",
            "hex": "6a24aa21a9edc2ea8ee6da63f55a68dfbe14709bc0f840afc0144525ead0977727266a528039",
            "type": "nulldata"
          }
        }
      ],
      "hex": "010000000001010000000000000000000000000000000000000000000000000000000000000000ffffffff5a03cabc14172f5669614254432f4d696e656420627920637a7131352f2cfabe6d6d0c6c9f9d1835f65e0ae7127138d2306b4ec9309d0364da3fa56ba34522b4d37a010000000000000010da73cc00e99b5e0e9ed0aeb302000000ffffffff0260e30395000000001976a914e16c28146ed4869c190b3f0bdc18d80d45f9213488ac0000000000000000266a24aa21a9edc2ea8ee6da63f55a68dfbe14709bc0f840afc0144525ead0977727266a5280390120000000000000000000000000000000000000000000000000000000000000000000000000"
    }, 
    {
      "txid": "fac3ffbd46ede50a052027233a5b937220bacda829402e539e697d0534bdee39",
      "hash": "fac3ffbd46ede50a052027233a5b937220bacda829402e539e697d0534bdee39",
      "version": 2,
      "size": 373,
      "vsize": 373,
      "locktime": 1359047,
      "vin": [
        {
          "txid": "a2b2b0d7a9f837ac503c8d07fa2eef19a4839d38c43e2a2b4134e9714ed83d41",
          "vout": 1,
          "scriptSig": {
            "asm": "304502210091a091401760ead5b7ff3ccb6f59ef6dc65898f0d4e88f7b5e013aa3f5b5db610220379e3f420af4a8d46588dbe35bbaf8f72005471b62d4334cf454a47418fd192d[ALL] 03bc186d1c549c10b6988d0e9e2b0fe6b0000a7089215eb20837612176fc5f1ac4",
            "hex": "48304502210091a091401760ead5b7ff3ccb6f59ef6dc65898f0d4e88f7b5e013aa3f5b5db610220379e3f420af4a8d46588dbe35bbaf8f72005471b62d4334cf454a47418fd192d012103bc186d1c549c10b6988d0e9e2b0fe6b0000a7089215eb20837612176fc5f1ac4"
          },
          "sequence": 4294967294
        }, 
        {
          "txid": "e62e73dd5a623c42dd72cf669fedd01c9ab9f9b9b4c00bc0921199fad9ea123b",
          "vout": 0,
          "scriptSig": {
            "asm": "304402202c40a82ac4002a4f1c67a942538510cba50086e224ae193a9fafb29356fbaca90220255d14d98813d20af8eb614a7ca3bd39291efc38c55174d7899cd7c31185ba55[ALL] 025d1e695f124b9ec44c6b2717da7416ea4d5b08e08abb99cdf1a864497bdb5981",
            "hex": "47304402202c40a82ac4002a4f1c67a942538510cba50086e224ae193a9fafb29356fbaca90220255d14d98813d20af8eb614a7ca3bd39291efc38c55174d7899cd7c31185ba550121025d1e695f124b9ec44c6b2717da7416ea4d5b08e08abb99cdf1a864497bdb5981"
          },
          "sequence": 4294967294
        }
      ],
      "vout": [
        {
          "value": 5.40500000,
          "n": 0,
          "scriptPubKey": {
            "asm": "OP_DUP OP_HASH160 99786a6cf81c08b351b8a6043f1c7d3c29c6f03c OP_EQUALVERIFY OP_CHECKSIG",
            "hex": "76a91499786a6cf81c08b351b8a6043f1c7d3c29c6f03c88ac",
            "reqSigs": 1,
            "type": "pubkeyhash",
            "addresses": [
              "LZDRuCDzWWkN3ktnGnL1ij4Pf8qCySnvFw"
            ]
          }
        }, 
        {
          "value": 0.80517600,
          "n": 1,
          "scriptPubKey": {
            "asm": "OP_DUP OP_HASH160 87f4d1dbca4096256282e0433e560770b7f45e95 OP_EQUALVERIFY OP_CHECKSIG",
            "hex": "76a91487f4d1dbca4096256282e0433e560770b7f45e9588ac",
            "reqSigs": 1,
            "type": "pubkeyhash",
            "addresses": [
              "LXcpmV6ekoVy7o84g7m7uymbNU2vD2foe2"
            ]
          }
        }
      ],
      "hex": "0200000002413dd84e71e934412b2a3ec4389d83a419ef2efa078d3c50ac37f8a9d7b0b2a2010000006b48304502210091a091401760ead5b7ff3ccb6f59ef6dc65898f0d4e88f7b5e013aa3f5b5db610220379e3f420af4a8d46588dbe35bbaf8f72005471b62d4334cf454a47418fd192d012103bc186d1c549c10b6988d0e9e2b0fe6b0000a7089215eb20837612176fc5f1ac4feffffff3b12ead9fa991192c00bc0b4b9f9b99a1cd0ed9f66cf72dd423c625add732ee6000000006a47304402202c40a82ac4002a4f1c67a942538510cba50086e224ae193a9fafb29356fbaca90220255d14d98813d20af8eb614a7ca3bd39291efc38c55174d7899cd7c31185ba550121025d1e695f124b9ec44c6b2717da7416ea4d5b08e08abb99cdf1a864497bdb5981feffffff0220603720000000001976a91499786a6cf81c08b351b8a6043f1c7d3c29c6f03c88ace099cc04000000001976a91487f4d1dbca4096256282e0433e560770b7f45e9588acc7bc1400"
    }, 
    {
      "txid": "6a29e4a4162d93c5743d7c990810a10dbf6d333f2c0718f468bbffc151c89a9b",
      "hash": "6a29e4a4162d93c5743d7c990810a10dbf6d333f2c0718f468bbffc151c89a9b",
      "version": 2,
      "size": 226,
      "vsize": 226,
      "locktime": 1359047,
      "vin": [
        {
          "txid": "53a492315fdf51a7187cfa1370c55e66688ef103e4e8ee106a912567532ae8d1",
          "vout": 1,
          "scriptSig": {
            "asm": "3045022100f30318b9b02693a80f5d1d275e73199406b61bc205655d98efa2a8fa9e414b18022076295f4fbbed6704ec2702bfa128790ccced5661e14a57e59a083ede1be62ed5[ALL] 03a007b4cab6fd813e782b04aca44d2dde375e46cc6c53b66f96b5308318bc38f0",
            "hex": "483045022100f30318b9b02693a80f5d1d275e73199406b61bc205655d98efa2a8fa9e414b18022076295f4fbbed6704ec2702bfa128790ccced5661e14a57e59a083ede1be62ed5012103a007b4cab6fd813e782b04aca44d2dde375e46cc6c53b66f96b5308318bc38f0"
          },
          "sequence": 4294967294
        }
      ],
      "vout": [
        {
          "value": 0.00704100,
          "n": 0,
          "scriptPubKey": {
            "asm": "OP_DUP OP_HASH160 85e49773678737c3f8d9b33ec4f71b598e78ff65 OP_EQUALVERIFY OP_CHECKSIG",
            "hex": "76a91485e49773678737c3f8d9b33ec4f71b598e78ff6588ac",
            "reqSigs": 1,
            "type": "pubkeyhash",
            "addresses": [
              "LXRuyYq6bV86FCF6reGRPEnBKXcnMqdigF"
            ]
          }
        }, 
        {
          "value": 0.01203507,
          "n": 1,
          "scriptPubKey": {
            "asm": "OP_DUP OP_HASH160 e13a5f72521391da4abc2ce50a71ee2e0b2c99e6 OP_EQUALVERIFY OP_CHECKSIG",
            "hex": "76a914e13a5f72521391da4abc2ce50a71ee2e0b2c99e688ac",
            "reqSigs": 1,
            "type": "pubkeyhash",
            "addresses": [
              "LfkrEC1xFwceVkyHEmAFg6YDGHD77beRFE"
            ]
          }
        }
      ],
      "hex": "0200000001d1e82a536725916a10eee8e403f18e68665ec57013fa7c18a751df5f3192a453010000006b483045022100f30318b9b02693a80f5d1d275e73199406b61bc205655d98efa2a8fa9e414b18022076295f4fbbed6704ec2702bfa128790ccced5661e14a57e59a083ede1be62ed5012103a007b4cab6fd813e782b04aca44d2dde375e46cc6c53b66f96b5308318bc38f0feffffff0264be0a00000000001976a91485e49773678737c3f8d9b33ec4f71b598e78ff6588ac335d1200000000001976a914e13a5f72521391da4abc2ce50a71ee2e0b2c99e688acc7bc1400"
    }
  ],
  "time": 1517229734,
  "mediantime": 1517228975,
  "nonce": 1734239789,
  "bits": "1a042eae",
  "difficulty": 4011378.762614286,
  "chainwork": "000000000000000000000000000000000000000000000033a47ceb36ed5e6f16",
  "previousblockhash": "e072636a9cc0a2fb7a4deb23ae9a0d62bfab7be1ea7a07959f5446785d0dc1a2",
  "nextblockhash": "881b21a82242a6fe75eb050d9c523ab6b3f6e4100013a90d44e8fbef1b4bba00"
}
