{
  "hash": "12d6a44a8aeaa4a5a5bd3d1fafe55adba0368c87f590e9f942cc32a48f7e5a6d",
  "confirmations": 694,
  "strippedsize": 472,
  "size": 508,
  "weight": 1924,
  "height": 1360300,
  "version": 536870912,
  "versionHex": "20000000",
  "merkleroot": "90c4cc2bd07426180e1226280cb0177ff648f21406782292f0c893676d058339",
  "tx": [
    {
      "txid": "bbf246606a9c3daa47abd1a3ded4ec4cc3b3d3128d586f95e9637a3ee16f2309",
      "hash": "fa65b43eddc7a655a8189510fe7e78a1bd6a39616fd8415b363c67094f1aff52",
      "version": 1,
      "size": 236,
      "vsize": 209,
      "locktime": 0,
      "vin": [
        {
          "coinbase": "03acc114045a71d1222cfabe6d6d19a01f3680d050ee714a71788d4dfd0444a8bebf71101795e0d3cbbbd81baf674000000000000000042f4c502f082200311604000000",
          "sequence": 4294967295
        }
      ],
      "vout": [
        {
          "value": 25.00009200,
          "n": 0,
          "scriptPubKey": {
            "asm": "OP_DUP OP_HASH160 57757ed2ecf2052ff3126c397aca7defb9ca2cec OP_EQUALVERIFY OP_CHECKSIG",
            "hex": "76a91457757ed2ecf2052ff3126c397aca7defb9ca2cec88ac",
            "reqSigs": 1,
            "type": "pubkeyhash",
            "addresses": [
              "LTCPodGk5FwcJaRzH9yKnwicxzFUbxp6tN"
            ]
          }
        }, 
        {
          "value": 0.00000000,
          "n": 1,
          "scriptPubKey": {
            "asm": "OP_RETURN aa21a9edbfb5fb2cdbda70c03099e147411fcf67456202a22f5626fcbdcb5a43a60b594e",
            "hex": "6a24aa21a9edbfb5fb2cdbda70c03099e147411fcf67456202a22f5626fcbdcb5a43a60b594e",
            "type": "nulldata"
          }
        }
      ],
      "hex": "010000000001010000000000000000000000000000000000000000000000000000000000000000ffffffff4403acc114045a71d1222cfabe6d6d19a01f3680d050ee714a71788d4dfd0444a8bebf71101795e0d3cbbbd81baf674000000000000000042f4c502f082200311604000000ffffffff02f01c0395000000001976a91457757ed2ecf2052ff3126c397aca7defb9ca2cec88ac0000000000000000266a24aa21a9edbfb5fb2cdbda70c03099e147411fcf67456202a22f5626fcbdcb5a43a60b594e0120000000000000000000000000000000000000000000000000000000000000000000000000"
    }, 
    {
      "txid": "7e0c331b05033ecb732e6dc60d539294fb2b57669a165ea8916fd0b70cc0ee09",
      "hash": "7e0c331b05033ecb732e6dc60d539294fb2b57669a165ea8916fd0b70cc0ee09",
      "version": 1,
      "size": 191,
      "vsize": 191,
      "locktime": 0,
      "vin": [
        {
          "txid": "06ddf6a03589f2dcd2f70da7242118534a3394815a89b6b769d35fa25570eb21",
          "vout": 0,
          "scriptSig": {
            "asm": "304402203970d8f80480b67d30f81a9e55c9ff89872069aef8ce17c6b40286048c981f0002207bc73f76384f103f15bf00362e5e02509028e5ea6be03577f110c617a89adab6[ALL] 0321a1d60a4ab3d85e18eb062b64c85d2480be84756620439db4164fc8d340bda7",
            "hex": "47304402203970d8f80480b67d30f81a9e55c9ff89872069aef8ce17c6b40286048c981f0002207bc73f76384f103f15bf00362e5e02509028e5ea6be03577f110c617a89adab601210321a1d60a4ab3d85e18eb062b64c85d2480be84756620439db4164fc8d340bda7"
          },
          "sequence": 4294967295
        }
      ],
      "vout": [
        {
          "value": 3.40060800,
          "n": 0,
          "scriptPubKey": {
            "asm": "OP_DUP OP_HASH160 c5d3683c58e725e75ac6b12fe915d41b04d3ac79 OP_EQUALVERIFY OP_CHECKSIG",
            "hex": "76a914c5d3683c58e725e75ac6b12fe915d41b04d3ac7988ac",
            "reqSigs": 1,
            "type": "pubkeyhash",
            "addresses": [
              "LdFxdqAuVQFbWwzURyXDFTFJW7wQkU5PfF"
            ]
          }
        }
      ],
      "hex": "010000000121eb7055a25fd369b7b6895a8194334a53182124a70df7d2dcf28935a0f6dd06000000006a47304402203970d8f80480b67d30f81a9e55c9ff89872069aef8ce17c6b40286048c981f0002207bc73f76384f103f15bf00362e5e02509028e5ea6be03577f110c617a89adab601210321a1d60a4ab3d85e18eb062b64c85d2480be84756620439db4164fc8d340bda7ffffffff0180ea4414000000001976a914c5d3683c58e725e75ac6b12fe915d41b04d3ac7988ac00000000"
    }
  ],
  "time": 1517408546,
  "mediantime": 1517407717,
  "nonce": 4074487939,
  "bits": "1a042eae",
  "difficulty": 4011378.762614286,
  "chainwork": "000000000000000000000000000000000000000000000034cf5d1074572e1bda",
  "previousblockhash": "c94680d4474d0742755477ebef7f33c4401e7645a0c56a73d183303bb597939a",
  "nextblockhash": "3727a33a454f5d51404762da8e0bef2d1e8ca11f035dee2123e5be1684c57875"
}
