{
  "hash": "13b1f2a220c0128e2d2e0a22db37d4744571c918621c1d25a45d8105765b7063",
  "confirmations": 1571,
  "strippedsize": 254,
  "size": 254,
  "weight": 1016,
  "height": 1359423,
  "version": 536870912,
  "versionHex": "20000000",
  "merkleroot": "c31403559ad369da5fde46dc870abb1ed423af1b020d59c09f0ff944c779c201",
  "tx": [
    {
      "txid": "c31403559ad369da5fde46dc870abb1ed423af1b020d59c09f0ff944c779c201",
      "hash": "c31403559ad369da5fde46dc870abb1ed423af1b020d59c09f0ff944c779c201",
      "version": 1,
      "size": 173,
      "vsize": 173,
      "locktime": 0,
      "vin": [
        {
          "coinbase": "033fbe141b4d696e656420627920416e74506f6f6c20626a312045205a6fde16fabe6d6d4ea415bdded31e6203097e2dacd995e3c8d3bb930264fc1112a59b65b186f5640400000000000000e6020000000000001b000000",
          "sequence": 4294967295
        }
      ],
      "vout": [
        {
          "value": 25.00000000,
          "n": 0,
          "scriptPubKey": {
            "asm": "OP_DUP OP_HASH160 0ff3ccc5e8be88afe24b5d634e5852d474dbdff1 OP_EQUALVERIFY OP_CHECKSIG",
            "hex": "76a9140ff3ccc5e8be88afe24b5d634e5852d474dbdff188ac",
            "reqSigs": 1,
            "type": "pubkeyhash",
            "addresses": [
              "LLgJTbzZMsRTCUF1NtvvL9SR1a4pVieW89"
            ]
          }
        }
      ],
      "hex": "01000000010000000000000000000000000000000000000000000000000000000000000000ffffffff58033fbe141b4d696e656420627920416e74506f6f6c20626a312045205a6fde16fabe6d6d4ea415bdded31e6203097e2dacd995e3c8d3bb930264fc1112a59b65b186f5640400000000000000e6020000000000001b000000ffffffff0100f90295000000001976a9140ff3ccc5e8be88afe24b5d634e5852d474dbdff188ac00000000"
    }
  ],
  "time": 1517280790,
  "mediantime": 1517279801,
  "nonce": 2745249292,
  "bits": "1a042eae",
  "difficulty": 4011378.762614286,
  "chainwork": "000000000000000000000000000000000000000000000033fdac249c9b476980",
  "previousblockhash": "d6888133fca7e82d5476587ecb7902191c4780a2a4a080654128093e7e5c7ea5",
  "nextblockhash": "c987567f35af6ddcbb24b94a3bfe5a8e86ff8beb2a58507da3c4ae43ca5f3165"
}
