{
  "hash": "140e4ac133e6b8f7d6e9d3c78d9b20700dc0f68254aa59b025b60a09eefb05da",
  "confirmations": 1642,
  "strippedsize": 3002,
  "size": 3038,
  "weight": 12044,
  "height": 1359352,
  "version": 536870912,
  "versionHex": "20000000",
  "merkleroot": "a6b1802796bdad82c7e1c3c70eeee26352c92adfa05310b0d370c8f4794900cf",
  "tx": [
    {
      "txid": "595b49708ae286c63c07183a7256b6be373c58c87ec9045f548b5cdd8b8badcf",
      "hash": "68ebb64e18bf84055f46301a1d6e74ee9631d1ee7768b070dac9a6d3be83e7cb",
      "version": 1,
      "size": 244,
      "vsize": 217,
      "locktime": 0,
      "vin": [
        {
          "coinbase": "03f8bd14046ab56f5a08053f69d003000000fabe6d6d909f5acdfd48cac7bb666cd9b0d0d5e994cce040b68e4679be691fe9c951506440000000000000000d2f6e6f64655374726174756d2f",
          "sequence": 0
        }
      ],
      "vout": [
        {
          "value": 25.00715982,
          "n": 0,
          "scriptPubKey": {
            "asm": "OP_DUP OP_HASH160 0c617fdb2ea42aed30a509595ee21ba3f6688db0 OP_EQUALVERIFY OP_CHECKSIG",
            "hex": "76a9140c617fdb2ea42aed30a509595ee21ba3f6688db088ac",
            "reqSigs": 1,
            "type": "pubkeyhash",
            "addresses": [
              "LLMRAtr3qBje2ySEa3CnZ55LA4TQMWnRY3"
            ]
          }
        }, 
        {
          "value": 0.00000000,
          "n": 1,
          "scriptPubKey": {
            "asm": "OP_RETURN aa21a9ed3bd7cd35b512bf899057a79eeffcfb777f4bfb50fc50ffeef82435ee11c6ef7b",
            "hex": "6a24aa21a9ed3bd7cd35b512bf899057a79eeffcfb777f4bfb50fc50ffeef82435ee11c6ef7b",
            "type": "nulldata"
          }
        }
      ],
      "hex": "010000000001010000000000000000000000000000000000000000000000000000000000000000ffffffff4c03f8bd14046ab56f5a08053f69d003000000fabe6d6d909f5acdfd48cac7bb666cd9b0d0d5e994cce040b68e4679be691fe9c951506440000000000000000d2f6e6f64655374726174756d2f0000000002cee50d95000000001976a9140c617fdb2ea42aed30a509595ee21ba3f6688db088ac0000000000000000266a24aa21a9ed3bd7cd35b512bf899057a79eeffcfb777f4bfb50fc50ffeef82435ee11c6ef7b0120000000000000000000000000000000000000000000000000000000000000000000000000"
    }, 
    {
      "txid": "c8e155148ee651a8998558030f54c60d667ee847b8195c9a464b931d42c126c7",
      "hash": "c8e155148ee651a8998558030f54c60d667ee847b8195c9a464b931d42c126c7",
      "version": 1,
      "size": 521,
      "vsize": 521,
      "locktime": 0,
      "vin": [
        {
          "txid": "2c45a3b9910a37478202fc3d60fc3ef72e9dd088da0bf1e3e91b6182616bb727",
          "vout": 1,
          "scriptSig": {
            "asm": "30450221009d9f3e27f1b1ce23297184bc4847bc283c7d2bb9ed7621aae87b986271271f04022045a18cc83e5f84eab401a9e5ee3d17b708c1d5bd0b844a02cba5d1f80efcc5f1[ALL] 0287bea75fb86f556605a38b6adae5a6d1dc4cce6f05542e7f50672afd9e0cf9e0",
            "hex": "4830450221009d9f3e27f1b1ce23297184bc4847bc283c7d2bb9ed7621aae87b986271271f04022045a18cc83e5f84eab401a9e5ee3d17b708c1d5bd0b844a02cba5d1f80efcc5f101210287bea75fb86f556605a38b6adae5a6d1dc4cce6f05542e7f50672afd9e0cf9e0"
          },
          "sequence": 4294967295
        }, 
        {
          "txid": "c8ca3eb13bd12b1963ba57204b22efbc8a957d3b60bb524256905798cef11f2a",
          "vout": 0,
          "scriptSig": {
            "asm": "3045022100eab6aaee5678a4c1ce03504719dbc7acb19854212d332fb6a39a721683d9ff2902201ed3a20d7e81761d4a4e1ac2a0a1f31382ad427a7ecbed5d8ebb3ba2d4b61a77[ALL] 0287bea75fb86f556605a38b6adae5a6d1dc4cce6f05542e7f50672afd9e0cf9e0",
            "hex": "483045022100eab6aaee5678a4c1ce03504719dbc7acb19854212d332fb6a39a721683d9ff2902201ed3a20d7e81761d4a4e1ac2a0a1f31382ad427a7ecbed5d8ebb3ba2d4b61a7701210287bea75fb86f556605a38b6adae5a6d1dc4cce6f05542e7f50672afd9e0cf9e0"
          },
          "sequence": 4294967295
        }, 
        {
          "txid": "8e1008fc1745882dc489cfb20d47e36d3bc20038f0a5c77d177a314ad4837b13",
          "vout": 0,
          "scriptSig": {
            "asm": "304402200bc3989d942925176b772fc4011c960dfe2fcdba7c67c335703da7a72850bbba022030cdda3c0ddbe9c7bc73aeb5cd8a0caf088c1cff2a4f2bbcaa899716ee0495c2[ALL] 0287bea75fb86f556605a38b6adae5a6d1dc4cce6f05542e7f50672afd9e0cf9e0",
            "hex": "47304402200bc3989d942925176b772fc4011c960dfe2fcdba7c67c335703da7a72850bbba022030cdda3c0ddbe9c7bc73aeb5cd8a0caf088c1cff2a4f2bbcaa899716ee0495c201210287bea75fb86f556605a38b6adae5a6d1dc4cce6f05542e7f50672afd9e0cf9e0"
          },
          "sequence": 4294967295
        }
      ],
      "vout": [
        {
          "value": 0.37078900,
          "n": 0,
          "scriptPubKey": {
            "asm": "OP_DUP OP_HASH160 20a759eea3f0f20d64b54f349f91af25766d1ccb OP_EQUALVERIFY OP_CHECKSIG",
            "hex": "76a91420a759eea3f0f20d64b54f349f91af25766d1ccb88ac",
            "reqSigs": 1,
            "type": "pubkeyhash",
            "addresses": [
              "LNCcN882CFxvtghCmdqRj4gfGNp6k3Npoa"
            ]
          }
        }, 
        {
          "value": 0.63719476,
          "n": 1,
          "scriptPubKey": {
            "asm": "OP_DUP OP_HASH160 f30127e0305be5cc20dc0d12465cf6ab99861860 OP_EQUALVERIFY OP_CHECKSIG",
            "hex": "76a914f30127e0305be5cc20dc0d12465cf6ab9986186088ac",
            "reqSigs": 1,
            "type": "pubkeyhash",
            "addresses": [
              "LhNqr8bRDLUVbm87Qaesj7L54w89AAvaaT"
            ]
          }
        }
      ],
      "hex": "010000000327b76b6182611be9e3f10bda88d09d2ef73efc603dfc028247370a91b9a3452c010000006b4830450221009d9f3e27f1b1ce23297184bc4847bc283c7d2bb9ed7621aae87b986271271f04022045a18cc83e5f84eab401a9e5ee3d17b708c1d5bd0b844a02cba5d1f80efcc5f101210287bea75fb86f556605a38b6adae5a6d1dc4cce6f05542e7f50672afd9e0cf9e0ffffffff2a1ff1ce985790564252bb603b7d958abcef224b2057ba63192bd13bb13ecac8000000006b483045022100eab6aaee5678a4c1ce03504719dbc7acb19854212d332fb6a39a721683d9ff2902201ed3a20d7e81761d4a4e1ac2a0a1f31382ad427a7ecbed5d8ebb3ba2d4b61a7701210287bea75fb86f556605a38b6adae5a6d1dc4cce6f05542e7f50672afd9e0cf9e0ffffffff137b83d44a317a177dc7a5f03800c23b6de3470db2cf89c42d884517fc08108e000000006a47304402200bc3989d942925176b772fc4011c960dfe2fcdba7c67c335703da7a72850bbba022030cdda3c0ddbe9c7bc73aeb5cd8a0caf088c1cff2a4f2bbcaa899716ee0495c201210287bea75fb86f556605a38b6adae5a6d1dc4cce6f05542e7f50672afd9e0cf9e0ffffffff0274c73502000000001976a91420a759eea3f0f20d64b54f349f91af25766d1ccb88ac3448cc03000000001976a914f30127e0305be5cc20dc0d12465cf6ab9986186088ac00000000"
    }, 
    {
      "txid": "dd849aafe93c8834b59753446eb01041d2d3d4992409ca190ea57740dd1116b0",
      "hash": "dd849aafe93c8834b59753446eb01041d2d3d4992409ca190ea57740dd1116b0",
      "version": 2,
      "size": 520,
      "vsize": 520,
      "locktime": 1359350,
      "vin": [
        {
          "txid": "222a3775ba4b375abee27f9e2d14e2eb3a2c10c906e4ba36322f86b352285b14",
          "vout": 1,
          "scriptSig": {
            "asm": "30450221009707c37ce649357a8b26565528800dba724e5090205160ee5815e1196b065fd70220160f743bef9f2ccf33d03cb2035cfef3955fa8b85eb83d141d6b37cb260c8c5f[ALL] 03a451ecee453344b41e8060ab2532249ea25ea45885293deca9731c9fe0e8e5c9",
            "hex": "4830450221009707c37ce649357a8b26565528800dba724e5090205160ee5815e1196b065fd70220160f743bef9f2ccf33d03cb2035cfef3955fa8b85eb83d141d6b37cb260c8c5f012103a451ecee453344b41e8060ab2532249ea25ea45885293deca9731c9fe0e8e5c9"
          },
          "sequence": 4294967294
        }, 
        {
          "txid": "5bc21202dc012cd58db9a450796914199ad01d8c8c4ebb08d2662381ae915033",
          "vout": 11,
          "scriptSig": {
            "asm": "304402202bc4edd3376ade77bfd74e17aa398519d413d54bf487541ab36d4cc6eabe051e0220097ada1c461e8d70a449e9712824f20408273db883df94d4a53263cf8dcc5da7[ALL] 035cdf85e6f70e5bdf321b2ee6fb6aecfd335881041b73125c6722051f9b0682a0",
            "hex": "47304402202bc4edd3376ade77bfd74e17aa398519d413d54bf487541ab36d4cc6eabe051e0220097ada1c461e8d70a449e9712824f20408273db883df94d4a53263cf8dcc5da70121035cdf85e6f70e5bdf321b2ee6fb6aecfd335881041b73125c6722051f9b0682a0"
          },
          "sequence": 4294967294
        }, 
        {
          "txid": "f84c9d99bfb9338610bb1159956024d12dc177de6dc508bfea018abef71a949f",
          "vout": 0,
          "scriptSig": {
            "asm": "304402204903eb32e4d8dbd944a7f09a8c39194f49b0d1f1b6fae4d4fec8d2a20af717f4022022ffd1fee95f62e2505dafc137e87a4c27add005e267091d410f45c4166e5d6e[ALL] 035aa8c22fa01116bef4b779c5cb442777921f9d7f906b4a03488e0c3b4988c9cf",
            "hex": "47304402204903eb32e4d8dbd944a7f09a8c39194f49b0d1f1b6fae4d4fec8d2a20af717f4022022ffd1fee95f62e2505dafc137e87a4c27add005e267091d410f45c4166e5d6e0121035aa8c22fa01116bef4b779c5cb442777921f9d7f906b4a03488e0c3b4988c9cf"
          },
          "sequence": 4294967294
        }
      ],
      "vout": [
        {
          "value": 0.03805060,
          "n": 0,
          "scriptPubKey": {
            "asm": "OP_DUP OP_HASH160 06ad81b4591a711a7bd9f95ad1260791243f923d OP_EQUALVERIFY OP_CHECKSIG",
            "hex": "76a91406ad81b4591a711a7bd9f95ad1260791243f923d88ac",
            "reqSigs": 1,
            "type": "pubkeyhash",
            "addresses": [
              "LKqGApPqUFjxm7vTR7gdLukpDtewXKaYah"
            ]
          }
        }, 
        {
          "value": 0.33913901,
          "n": 1,
          "scriptPubKey": {
            "asm": "OP_DUP OP_HASH160 696737d30cd98b39248525dff1edc9021c3117ac OP_EQUALVERIFY OP_CHECKSIG",
            "hex": "76a914696737d30cd98b39248525dff1edc9021c3117ac88ac",
            "reqSigs": 1,
            "type": "pubkeyhash",
            "addresses": [
              "LUqGs58Zm2fCoXxxGUVn5AhUxbuuP8LLan"
            ]
          }
        }
      ],
      "hex": "0200000003145b2852b3862f3236bae406c9102c3aebe2142d9e7fe2be5a374bba75372a22010000006b4830450221009707c37ce649357a8b26565528800dba724e5090205160ee5815e1196b065fd70220160f743bef9f2ccf33d03cb2035cfef3955fa8b85eb83d141d6b37cb260c8c5f012103a451ecee453344b41e8060ab2532249ea25ea45885293deca9731c9fe0e8e5c9feffffff335091ae812366d208bb4e8c8c1dd09a1914697950a4b98dd52c01dc0212c25b0b0000006a47304402202bc4edd3376ade77bfd74e17aa398519d413d54bf487541ab36d4cc6eabe051e0220097ada1c461e8d70a449e9712824f20408273db883df94d4a53263cf8dcc5da70121035cdf85e6f70e5bdf321b2ee6fb6aecfd335881041b73125c6722051f9b0682a0feffffff9f941af7be8a01eabf08c56dde77c12dd12460955911bb108633b9bf999d4cf8000000006a47304402204903eb32e4d8dbd944a7f09a8c39194f49b0d1f1b6fae4d4fec8d2a20af717f4022022ffd1fee95f62e2505dafc137e87a4c27add005e267091d410f45c4166e5d6e0121035aa8c22fa01116bef4b779c5cb442777921f9d7f906b4a03488e0c3b4988c9cffeffffff02840f3a00000000001976a91406ad81b4591a711a7bd9f95ad1260791243f923d88ac2d7c0502000000001976a914696737d30cd98b39248525dff1edc9021c3117ac88acf6bd1400"
    }, 
    {
      "txid": "2a1b30196796f15baa779da2670717febb66d5c6c759e6decab60539d79d7719",
      "hash": "2a1b30196796f15baa779da2670717febb66d5c6c759e6decab60539d79d7719",
      "version": 2,
      "size": 521,
      "vsize": 521,
      "locktime": 1359349,
      "vin": [
        {
          "txid": "f8d30197ece7a47fb3b6825175c03c82d262fede32fa6637cf8a30511ef61123",
          "vout": 0,
          "scriptSig": {
            "asm": "30450221008306c899d447fe31ec9a6e65a7c398ff35df53f58b12a0c3585ff635a57fec7c02207937233935f195d292f08f192a1f51ec73aec2c4d7c817cfc7e31b2d9d3a8e75[ALL] 03bd0d56504d7079086bc6d12fa5414b99e6849375a9790c549a922e447c2209a1",
            "hex": "4830450221008306c899d447fe31ec9a6e65a7c398ff35df53f58b12a0c3585ff635a57fec7c02207937233935f195d292f08f192a1f51ec73aec2c4d7c817cfc7e31b2d9d3a8e75012103bd0d56504d7079086bc6d12fa5414b99e6849375a9790c549a922e447c2209a1"
          },
          "sequence": 4294967294
        }, 
        {
          "txid": "b90162cc2aada8aa97b9ae4b2e2c98550f409489d8009ff5d224fd792909c54a",
          "vout": 0,
          "scriptSig": {
            "asm": "3044022013149e6c9fb478e282cd4225806cc57c6edd22311b3e2e0ec6cec242c1f11ebc02204ff27e9abcc71f85ddb760fa5292c304e77671d193794854c0ac0810389ad66c[ALL] 026d785778901a7084bbd84f2281576d461ff03b59f4929430004c0f1cbdd438d2",
            "hex": "473044022013149e6c9fb478e282cd4225806cc57c6edd22311b3e2e0ec6cec242c1f11ebc02204ff27e9abcc71f85ddb760fa5292c304e77671d193794854c0ac0810389ad66c0121026d785778901a7084bbd84f2281576d461ff03b59f4929430004c0f1cbdd438d2"
          },
          "sequence": 4294967294
        }, 
        {
          "txid": "58576152a111f16f94437896e21e83158e62062dad4f547ebb5eca44731818a0",
          "vout": 1,
          "scriptSig": {
            "asm": "3045022100a209f6a60d7393f87a29acc94e9e49b5eac3411b7d20ad43241d6b94234898ef0220754b784d20fc73693b2ddda8f3a86aebd8ceb07cb7e2c6a8e0b2be2214c1c4e7[ALL] 0352d77f4a49bce835cd72c486027ed07241fd08c7bac1547c45783b143de72f00",
            "hex": "483045022100a209f6a60d7393f87a29acc94e9e49b5eac3411b7d20ad43241d6b94234898ef0220754b784d20fc73693b2ddda8f3a86aebd8ceb07cb7e2c6a8e0b2be2214c1c4e701210352d77f4a49bce835cd72c486027ed07241fd08c7bac1547c45783b143de72f00"
          },
          "sequence": 4294967294
        }
      ],
      "vout": [
        {
          "value": 0.14701496,
          "n": 0,
          "scriptPubKey": {
            "asm": "OP_DUP OP_HASH160 5fe9700d467928a2145994a682aeed8f213a5b90 OP_EQUALVERIFY OP_CHECKSIG",
            "hex": "76a9145fe9700d467928a2145994a682aeed8f213a5b9088ac",
            "reqSigs": 1,
            "type": "pubkeyhash",
            "addresses": [
              "LTy66yNqSxhnm1nUvzznovTJbMd5jvHPeM"
            ]
          }
        }, 
        {
          "value": 0.01873415,
          "n": 1,
          "scriptPubKey": {
            "asm": "OP_DUP OP_HASH160 aaeda6496a2e72d151f1c3d4eb61754850f04132 OP_EQUALVERIFY OP_CHECKSIG",
            "hex": "76a914aaeda6496a2e72d151f1c3d4eb61754850f0413288ac",
            "reqSigs": 1,
            "type": "pubkeyhash",
            "addresses": [
              "Laojq1Er89dNUYKgQ1EYomn67gXafWC34W"
            ]
          }
        }
      ],
      "hex": "02000000032311f61e51308acf3766fa32defe62d2823cc0755182b6b37fa4e7ec9701d3f8000000006b4830450221008306c899d447fe31ec9a6e65a7c398ff35df53f58b12a0c3585ff635a57fec7c02207937233935f195d292f08f192a1f51ec73aec2c4d7c817cfc7e31b2d9d3a8e75012103bd0d56504d7079086bc6d12fa5414b99e6849375a9790c549a922e447c2209a1feffffff4ac5092979fd24d2f59f00d88994400f55982c2e4baeb997aaa8ad2acc6201b9000000006a473044022013149e6c9fb478e282cd4225806cc57c6edd22311b3e2e0ec6cec242c1f11ebc02204ff27e9abcc71f85ddb760fa5292c304e77671d193794854c0ac0810389ad66c0121026d785778901a7084bbd84f2281576d461ff03b59f4929430004c0f1cbdd438d2feffffffa018187344ca5ebb7e544fad2d06628e15831ee2967843946ff111a152615758010000006b483045022100a209f6a60d7393f87a29acc94e9e49b5eac3411b7d20ad43241d6b94234898ef0220754b784d20fc73693b2ddda8f3a86aebd8ceb07cb7e2c6a8e0b2be2214c1c4e701210352d77f4a49bce835cd72c486027ed07241fd08c7bac1547c45783b143de72f00feffffff02b853e000000000001976a9145fe9700d467928a2145994a682aeed8f213a5b9088ac07961c00000000001976a914aaeda6496a2e72d151f1c3d4eb61754850f0413288acf5bd1400"
    }, 
    {
      "txid": "fed249eb98f847f24cffc29e1137b38e528b25da1cbb3acd5e4e0eaae6fa1fcd",
      "hash": "fed249eb98f847f24cffc29e1137b38e528b25da1cbb3acd5e4e0eaae6fa1fcd",
      "version": 1,
      "size": 225,
      "vsize": 225,
      "locktime": 0,
      "vin": [
        {
          "txid": "34f885111bd03ac51554b54c32e71e1750541f557f6cfd830ac4da10ab0dc157",
          "vout": 42,
          "scriptSig": {
            "asm": "304402203ea908823bb8f41cf4cfbe3042433f63b257950ab85c953286846413cf3b237c022073cf7f9f63b2e4b268c26dd74ae52cd473db591b81e3abcf1fee12af98ef9f5e[ALL] 027f901f17db2dc9f13ad2854b576f50264acee33cad7a396833250a993379289f",
            "hex": "47304402203ea908823bb8f41cf4cfbe3042433f63b257950ab85c953286846413cf3b237c022073cf7f9f63b2e4b268c26dd74ae52cd473db591b81e3abcf1fee12af98ef9f5e0121027f901f17db2dc9f13ad2854b576f50264acee33cad7a396833250a993379289f"
          },
          "sequence": 4294967295
        }
      ],
      "vout": [
        {
          "value": 0.23779413,
          "n": 0,
          "scriptPubKey": {
            "asm": "OP_DUP OP_HASH160 14984e45a0ad42f1e54432677f6534e892ea7aad OP_EQUALVERIFY OP_CHECKSIG",
            "hex": "76a91414984e45a0ad42f1e54432677f6534e892ea7aad88ac",
            "reqSigs": 1,
            "type": "pubkeyhash",
            "addresses": [
              "LM6rESPsH5P4pCeKpGvtVBnowvSovwSyzW"
            ]
          }
        }, 
        {
          "value": 0.01197987,
          "n": 1,
          "scriptPubKey": {
            "asm": "OP_DUP OP_HASH160 d53bc3bb26bf6878e650e4fcfd1e8f4d2a385584 OP_EQUALVERIFY OP_CHECKSIG",
            "hex": "76a914d53bc3bb26bf6878e650e4fcfd1e8f4d2a38558488ac",
            "reqSigs": 1,
            "type": "pubkeyhash",
            "addresses": [
              "LefRnb5NjcNpRQ8PNTWki7jPHGGGfneFNn"
            ]
          }
        }
      ],
      "hex": "010000000157c10dab10dac40a83fd6c7f551f5450171ee7324cb55415c53ad01b1185f8342a0000006a47304402203ea908823bb8f41cf4cfbe3042433f63b257950ab85c953286846413cf3b237c022073cf7f9f63b2e4b268c26dd74ae52cd473db591b81e3abcf1fee12af98ef9f5e0121027f901f17db2dc9f13ad2854b576f50264acee33cad7a396833250a993379289fffffffff0255d86a01000000001976a91414984e45a0ad42f1e54432677f6534e892ea7aad88aca3471200000000001976a914d53bc3bb26bf6878e650e4fcfd1e8f4d2a38558488ac00000000"
    }, 
    {
      "txid": "7100e46f8b21c900636c0d09299f51c6e190a2740b6ac349db278f87be0b15a7",
      "hash": "7100e46f8b21c900636c0d09299f51c6e190a2740b6ac349db278f87be0b15a7",
      "version": 2,
      "size": 700,
      "vsize": 700,
      "locktime": 1359350,
      "vin": [
        {
          "txid": "6d600ea13e7c6bafa7d224a2897688ab851f04358dda878fe4ca1b8fb582c808",
          "vout": 1,
          "scriptSig": {
            "asm": "3044022079cdae08dced5220e3034250f31925c233e6c7a06792e770d70eaaf5375b1858022034cc68d869098283692874d7f83f434a6c2a1b9d16eacd4b57a39934c23b4172[ALL] 02e2037bd3b8ff3ee3e1c67e232b207d138124a826a4f761eeba99ff99c4b60c29",
            "hex": "473044022079cdae08dced5220e3034250f31925c233e6c7a06792e770d70eaaf5375b1858022034cc68d869098283692874d7f83f434a6c2a1b9d16eacd4b57a39934c23b4172012102e2037bd3b8ff3ee3e1c67e232b207d138124a826a4f761eeba99ff99c4b60c29"
          },
          "sequence": 4294967294
        }, 
        {
          "txid": "c3ee29434d1f8115d2c0d1825a64d17b45f44773d3507788544fb6d27586c907",
          "vout": 37,
          "scriptSig": {
            "asm": "3045022100b8a700d33fb8ccf859f95a48b60eb4256598308a4e51fdef9ca49c1a65da09c7022061cd66c8709752f4b74d9089fbf7ebd409adc66b0bd5334d3a1567e4b4996bcc[ALL] 038c6c5aaa1c7880abe40ba7a6cd4e0eb5232f3bdc3782482d3e05ad99a45cfc3c",
            "hex": "483045022100b8a700d33fb8ccf859f95a48b60eb4256598308a4e51fdef9ca49c1a65da09c7022061cd66c8709752f4b74d9089fbf7ebd409adc66b0bd5334d3a1567e4b4996bcc0121038c6c5aaa1c7880abe40ba7a6cd4e0eb5232f3bdc3782482d3e05ad99a45cfc3c"
          },
          "sequence": 4294967294
        }, 
        {
          "txid": "4354a9f3daa2e808e26355fc9e1536881552f52729585bbfffe1c6f8fe85c521",
          "vout": 23,
          "scriptSig": {
            "asm": "3045022100e9e97627c5126ea95b05ace34a6aae59f0e52ee8cbef01dbae905db6e85ccdf602201ec8b48582c218f32530e6f9d4a9f07ccb6773f6fbb8d7f40fffe1343dd3143d[ALL] 034dcbea92e38eb6644a695294999a9cd9e6dc7288eee8824079840974f40a4c94",
            "hex": "483045022100e9e97627c5126ea95b05ace34a6aae59f0e52ee8cbef01dbae905db6e85ccdf602201ec8b48582c218f32530e6f9d4a9f07ccb6773f6fbb8d7f40fffe1343dd3143d0121034dcbea92e38eb6644a695294999a9cd9e6dc7288eee8824079840974f40a4c94"
          },
          "sequence": 4294967294
        }, 
        {
          "txid": "f85454a44c72de926878cd5b8fcfc2b4f5ec11c74c7d288352bb84c83bab5e60",
          "vout": 31,
          "scriptSig": {
            "asm": "304402204949fb3579f7981bb7489d726aec6cf87a55b2cfd7ddfa2122ae4a77a9cc38c002202eba16dd9f94960d9254f2f6394143eee0dbe0174a72903590d6c721dce63d56[ALL] 0396e47e6bf2f9008efecb45eb0c378f96378a3bf684f9dc758decc1b326f9a660",
            "hex": "47304402204949fb3579f7981bb7489d726aec6cf87a55b2cfd7ddfa2122ae4a77a9cc38c002202eba16dd9f94960d9254f2f6394143eee0dbe0174a72903590d6c721dce63d5601210396e47e6bf2f9008efecb45eb0c378f96378a3bf684f9dc758decc1b326f9a660"
          },
          "sequence": 4294967294
        }
      ],
      "vout": [
        {
          "value": 49.99000000,
          "n": 0,
          "scriptPubKey": {
            "asm": "OP_HASH160 ad127860341d881de79f6b5547c66ad31d456659 OP_EQUAL",
            "hex": "a914ad127860341d881de79f6b5547c66ad31d45665987",
            "reqSigs": 1,
            "type": "scripthash",
            "addresses": [
              "MPgHFx4N2ovw96y5zJQQUw5kQfhS34ioew"
            ]
          }
        }, 
        {
          "value": 0.01924687,
          "n": 1,
          "scriptPubKey": {
            "asm": "OP_DUP OP_HASH160 0d9f3fa1796655b4d5565e330760f5a78239b833 OP_EQUALVERIFY OP_CHECKSIG",
            "hex": "76a9140d9f3fa1796655b4d5565e330760f5a78239b83388ac",
            "reqSigs": 1,
            "type": "pubkeyhash",
            "addresses": [
              "LLTypVQYKL36X4mnYYnNWPp9bhWrQTAiZG"
            ]
          }
        }, 
        {
          "value": 0.03395600,
          "n": 2,
          "scriptPubKey": {
            "asm": "OP_DUP OP_HASH160 fdd660e5a4a00d62c1379de2e5c7072807f67e73 OP_EQUALVERIFY OP_CHECKSIG",
            "hex": "76a914fdd660e5a4a00d62c1379de2e5c7072807f67e7388ac",
            "reqSigs": 1,
            "type": "pubkeyhash",
            "addresses": [
              "LiN832SisEvT2ygZDTndBkG7c7VsmiLi6u"
            ]
          }
        }
      ],
      "hex": "020000000408c882b58f1bcae48f87da8d35041f85ab887689a224d2a7af6b7c3ea10e606d010000006a473044022079cdae08dced5220e3034250f31925c233e6c7a06792e770d70eaaf5375b1858022034cc68d869098283692874d7f83f434a6c2a1b9d16eacd4b57a39934c23b4172012102e2037bd3b8ff3ee3e1c67e232b207d138124a826a4f761eeba99ff99c4b60c29feffffff07c98675d2b64f54887750d37347f4457bd1645a82d1c0d215811f4d4329eec3250000006b483045022100b8a700d33fb8ccf859f95a48b60eb4256598308a4e51fdef9ca49c1a65da09c7022061cd66c8709752f4b74d9089fbf7ebd409adc66b0bd5334d3a1567e4b4996bcc0121038c6c5aaa1c7880abe40ba7a6cd4e0eb5232f3bdc3782482d3e05ad99a45cfc3cfeffffff21c585fef8c6e1ffbf5b582927f552158836159efc5563e208e8a2daf3a95443170000006b483045022100e9e97627c5126ea95b05ace34a6aae59f0e52ee8cbef01dbae905db6e85ccdf602201ec8b48582c218f32530e6f9d4a9f07ccb6773f6fbb8d7f40fffe1343dd3143d0121034dcbea92e38eb6644a695294999a9cd9e6dc7288eee8824079840974f40a4c94feffffff605eab3bc884bb5283287d4cc711ecf5b4c2cf8f5bcd786892de724ca45454f81f0000006a47304402204949fb3579f7981bb7489d726aec6cf87a55b2cfd7ddfa2122ae4a77a9cc38c002202eba16dd9f94960d9254f2f6394143eee0dbe0174a72903590d6c721dce63d5601210396e47e6bf2f9008efecb45eb0c378f96378a3bf684f9dc758decc1b326f9a660feffffff03c0aff6290100000017a914ad127860341d881de79f6b5547c66ad31d456659874f5e1d00000000001976a9140d9f3fa1796655b4d5565e330760f5a78239b83388ac10d03300000000001976a914fdd660e5a4a00d62c1379de2e5c7072807f67e7388acf6bd1400"
    }, 
    {
      "txid": "343741dc17177884c607408bcdf75484a82d97ee0e9da0e9b0fe2d455144d90e",
      "hash": "343741dc17177884c607408bcdf75484a82d97ee0e9da0e9b0fe2d455144d90e",
      "version": 1,
      "size": 226,
      "vsize": 226,
      "locktime": 0,
      "vin": [
        {
          "txid": "9b00a773c28ccc772fb60d61ede99a7b98c2114ec73ad1bc503c6153afc3d84a",
          "vout": 0,
          "scriptSig": {
            "asm": "3045022100c26ce4ce46fa7525b6828c0a6e55b562f9ac368cb12aec7e14481a1c6fcc08ac02206d473a75dc718dede62ec19bf3f86d0754dc3bd2ffd7c52645f46124281b454b[ALL] 0271b89f52654bbdfc5239ce74ac221054f674397798bd184fcedf15577d65b55d",
            "hex": "483045022100c26ce4ce46fa7525b6828c0a6e55b562f9ac368cb12aec7e14481a1c6fcc08ac02206d473a75dc718dede62ec19bf3f86d0754dc3bd2ffd7c52645f46124281b454b01210271b89f52654bbdfc5239ce74ac221054f674397798bd184fcedf15577d65b55d"
          },
          "sequence": 4294967295
        }
      ],
      "vout": [
        {
          "value": 0.50000000,
          "n": 0,
          "scriptPubKey": {
            "asm": "OP_DUP OP_HASH160 7f656fb222b64b01dba19006e9285c0a6e8d43cb OP_EQUALVERIFY OP_CHECKSIG",
            "hex": "76a9147f656fb222b64b01dba19006e9285c0a6e8d43cb88ac",
            "reqSigs": 1,
            "type": "pubkeyhash",
            "addresses": [
              "LWqZbVc1wtGZWRzKsCiKB19ytwCKQwazyc"
            ]
          }
        }, 
        {
          "value": 0.05594753,
          "n": 1,
          "scriptPubKey": {
            "asm": "OP_DUP OP_HASH160 2788d22fa2b30f04aa6a71ffac2d80c354a05f16 OP_EQUALVERIFY OP_CHECKSIG",
            "hex": "76a9142788d22fa2b30f04aa6a71ffac2d80c354a05f1688ac",
            "reqSigs": 1,
            "type": "pubkeyhash",
            "addresses": [
              "LNpzXBnu5Z4ZPEpNAWKbzExVYsGVah9nXz"
            ]
          }
        }
      ],
      "hex": "01000000014ad8c3af53613c50bcd13ac74e11c2987b9ae9ed610db62f77cc8cc273a7009b000000006b483045022100c26ce4ce46fa7525b6828c0a6e55b562f9ac368cb12aec7e14481a1c6fcc08ac02206d473a75dc718dede62ec19bf3f86d0754dc3bd2ffd7c52645f46124281b454b01210271b89f52654bbdfc5239ce74ac221054f674397798bd184fcedf15577d65b55dffffffff0280f0fa02000000001976a9147f656fb222b64b01dba19006e9285c0a6e8d43cb88ac815e5500000000001976a9142788d22fa2b30f04aa6a71ffac2d80c354a05f1688ac00000000"
    }
  ],
  "time": 1517270192,
  "mediantime": 1517270132,
  "nonce": 1220378172,
  "bits": "1a042eae",
  "difficulty": 4011378.762614286,
  "chainwork": "000000000000000000000000000000000000000000000033ecb240ce92326672",
  "previousblockhash": "a48d63dbaa5438338297207dc34c43990f8cdb76bc1561104cee1ed5233dc776",
  "nextblockhash": "dbcdc2c9d0fb319f1da9739f8c35f6532aa08a1db252a560ccb8bbb9fa3a819c"
}
