{
  "hash": "14b9a27acf00bf1085685357910b15aaa32986d1dbdaf40f6cf3a560efd50d8a",
  "confirmations": 1400,
  "strippedsize": 4893,
  "size": 6226,
  "weight": 20905,
  "height": 1359594,
  "version": 536870912,
  "versionHex": "20000000",
  "merkleroot": "51796a935f8508382c438180aaee0a578e4d29feb4016949fe4e7a9ba93c6d67",
  "tx": [
    {
      "txid": "8e4782ac40b72c4e853cfd6c2228cf98bfd62fb01bb22d07ae35db068c527f22",
      "hash": "4aa5d393b9ffaf89bb5a90823b33e2b32d9b2bc340cc203c9cd5d8f4859dcd2a",
      "version": 1,
      "size": 236,
      "vsize": 209,
      "locktime": 0,
      "vin": [
        {
          "coinbase": "03eabe14045a703b5b2cfabe6d6d948039173ab95d5870ce2d076a1e72d754634239ea231cfbf59f5e73c7660f094000000000000000042f4c502f08220091d236000000",
          "sequence": 4294967295
        }
      ],
      "vout": [
        {
          "value": 25.01814117,
          "n": 0,
          "scriptPubKey": {
            "asm": "OP_DUP OP_HASH160 57757ed2ecf2052ff3126c397aca7defb9ca2cec OP_EQUALVERIFY OP_CHECKSIG",
            "hex": "76a91457757ed2ecf2052ff3126c397aca7defb9ca2cec88ac",
            "reqSigs": 1,
            "type": "pubkeyhash",
            "addresses": [
              "LTCPodGk5FwcJaRzH9yKnwicxzFUbxp6tN"
            ]
          }
        }, 
        {
          "value": 0.00000000,
          "n": 1,
          "scriptPubKey": {
            "asm": "OP_RETURN aa21a9ed74f14e6aa66c25243699a3362aa04fd2bab1a5f5983c2d41b3bb1dccc9b2329c",
            "hex": "6a24aa21a9ed74f14e6aa66c25243699a3362aa04fd2bab1a5f5983c2d41b3bb1dccc9b2329c",
            "type": "nulldata"
          }
        }
      ],
      "hex": "010000000001010000000000000000000000000000000000000000000000000000000000000000ffffffff4403eabe14045a703b5b2cfabe6d6d948039173ab95d5870ce2d076a1e72d754634239ea231cfbf59f5e73c7660f094000000000000000042f4c502f08220091d236000000ffffffff0265a71e95000000001976a91457757ed2ecf2052ff3126c397aca7defb9ca2cec88ac0000000000000000266a24aa21a9ed74f14e6aa66c25243699a3362aa04fd2bab1a5f5983c2d41b3bb1dccc9b2329c0120000000000000000000000000000000000000000000000000000000000000000000000000"
    }, 
    {
      "txid": "c2e88a145f0d053d98fb7ce3bb93e420312dd05cf6a3c865893265ab145aa4ae",
      "hash": "c2e88a145f0d053d98fb7ce3bb93e420312dd05cf6a3c865893265ab145aa4ae",
      "version": 1,
      "size": 260,
      "vsize": 260,
      "locktime": 1359581,
      "vin": [
        {
          "txid": "1630b683e89df68d27cf9fcf5c6c781c10ab946ed81c8321ea3a758242fcd3e4",
          "vout": 2,
          "scriptSig": {
            "asm": "3045022100b76e35fb1b53f25defe762f2c3919f200c88053d8e40340043c062a684b25ac7022056817e2ec5926b1ff5bdd0dfbd1bb260a830978eda8f57473f2347992845d395[ALL] 02f096ebd3827359bf4d0148bed4b129cfc5b626fdbfbf8f49fed5e3d83012b4c9",
            "hex": "483045022100b76e35fb1b53f25defe762f2c3919f200c88053d8e40340043c062a684b25ac7022056817e2ec5926b1ff5bdd0dfbd1bb260a830978eda8f57473f2347992845d395012102f096ebd3827359bf4d0148bed4b129cfc5b626fdbfbf8f49fed5e3d83012b4c9"
          },
          "sequence": 4294967294
        }
      ],
      "vout": [
        {
          "value": 0.64295543,
          "n": 0,
          "scriptPubKey": {
            "asm": "OP_DUP OP_HASH160 107af3be79200800db727dd63f0cd807deb1ae5e OP_EQUALVERIFY OP_CHECKSIG",
            "hex": "76a914107af3be79200800db727dd63f0cd807deb1ae5e88ac",
            "reqSigs": 1,
            "type": "pubkeyhash",
            "addresses": [
              "LLj6N9QTaVTXz2Rm8Lc7ooVUbQBJ3QRkWX"
            ]
          }
        }, 
        {
          "value": 1.99001985,
          "n": 1,
          "scriptPubKey": {
            "asm": "OP_DUP OP_HASH160 1e3433ed8d9857c580907b09c0d4e3d08b309c79 OP_EQUALVERIFY OP_CHECKSIG",
            "hex": "76a9141e3433ed8d9857c580907b09c0d4e3d08b309c7988ac",
            "reqSigs": 1,
            "type": "pubkeyhash",
            "addresses": [
              "LMyf55tU3mn9kxwLzgKQ2XYtDZEXUBzBrD"
            ]
          }
        }, 
        {
          "value": 19.90040118,
          "n": 2,
          "scriptPubKey": {
            "asm": "OP_DUP OP_HASH160 b0825ddd05383feddc0e3a8ea303bb912a6f7091 OP_EQUALVERIFY OP_CHECKSIG",
            "hex": "76a914b0825ddd05383feddc0e3a8ea303bb912a6f709188ac",
            "reqSigs": 1,
            "type": "pubkeyhash",
            "addresses": [
              "LbKFN1UktvsFZv1Nmdv13VENeAquC5Fbr6"
            ]
          }
        }
      ],
      "hex": "0100000001e4d3fc4282753aea21831cd86e94ab101c786c5ccf9fcf278df69de883b63016020000006b483045022100b76e35fb1b53f25defe762f2c3919f200c88053d8e40340043c062a684b25ac7022056817e2ec5926b1ff5bdd0dfbd1bb260a830978eda8f57473f2347992845d395012102f096ebd3827359bf4d0148bed4b129cfc5b626fdbfbf8f49fed5e3d83012b4c9feffffff037712d503000000001976a914107af3be79200800db727dd63f0cd807deb1ae5e88ac8187dc0b000000001976a9141e3433ed8d9857c580907b09c0d4e3d08b309c7988ac369a9d76000000001976a914b0825ddd05383feddc0e3a8ea303bb912a6f709188acddbe1400"
    }, 
    {
      "txid": "1fb0a1e74fcacc3eeb8188cc5e7e6a3608b9e3a93d283ef898e7fbbdda3a2c7b",
      "hash": "1fb0a1e74fcacc3eeb8188cc5e7e6a3608b9e3a93d283ef898e7fbbdda3a2c7b",
      "version": 1,
      "size": 223,
      "vsize": 223,
      "locktime": 0,
      "vin": [
        {
          "txid": "f2f608bca174838084a5d43362334a22f368b5203af9f95bab3c825b189052e9",
          "vout": 0,
          "scriptSig": {
            "asm": "30440220136717dd48f00f0db6b41f6060e2be37adf353f746904168980e725511f666cf02202ddf1f07869ed1fc33b985ffca13bd25fc60782c1b7329fff96958fe5b6ef225[ALL] 028b806d2ddb02acee7609182b7be6d0789f7acd5c6529a2ec083094dbfef0a25b",
            "hex": "4730440220136717dd48f00f0db6b41f6060e2be37adf353f746904168980e725511f666cf02202ddf1f07869ed1fc33b985ffca13bd25fc60782c1b7329fff96958fe5b6ef2250121028b806d2ddb02acee7609182b7be6d0789f7acd5c6529a2ec083094dbfef0a25b"
          },
          "sequence": 4294967295
        }
      ],
      "vout": [
        {
          "value": 12.00000000,
          "n": 0,
          "scriptPubKey": {
            "asm": "OP_HASH160 02b1dac40e4e997aba87ad7071d7732cf8f10dff OP_EQUAL",
            "hex": "a91402b1dac40e4e997aba87ad7071d7732cf8f10dff87",
            "reqSigs": 1,
            "type": "scripthash",
            "addresses": [
              "M89QeN7ofwZk6y8yPVbWFMZaoRiEkMvCm7"
            ]
          }
        }, 
        {
          "value": 0.74336453,
          "n": 1,
          "scriptPubKey": {
            "asm": "OP_DUP OP_HASH160 ce555ae9385e560f31cfc4091fab62136e3e6878 OP_EQUALVERIFY OP_CHECKSIG",
            "hex": "76a914ce555ae9385e560f31cfc4091fab62136e3e687888ac",
            "reqSigs": 1,
            "type": "pubkeyhash",
            "addresses": [
              "Le2wiJovL9gffvLXb5vU3nS324SwH48xwg"
            ]
          }
        }
      ],
      "hex": "0100000001e95290185b823cab5bf9f93a20b568f3224a336233d4a584808374a1bc08f6f2000000006a4730440220136717dd48f00f0db6b41f6060e2be37adf353f746904168980e725511f666cf02202ddf1f07869ed1fc33b985ffca13bd25fc60782c1b7329fff96958fe5b6ef2250121028b806d2ddb02acee7609182b7be6d0789f7acd5c6529a2ec083094dbfef0a25bffffffff02008c86470000000017a91402b1dac40e4e997aba87ad7071d7732cf8f10dff87c5486e04000000001976a914ce555ae9385e560f31cfc4091fab62136e3e687888ac00000000"
    }, 
    {
      "txid": "34db549d6c50db404b53cd4de05ae98a17ad5ac6c411ab12298b82ec28ac3d78",
      "hash": "34db549d6c50db404b53cd4de05ae98a17ad5ac6c411ab12298b82ec28ac3d78",
      "version": 1,
      "size": 226,
      "vsize": 226,
      "locktime": 0,
      "vin": [
        {
          "txid": "206ee8356357c06ca30229c83a0b09159115bffd5c1ca70d7bcfe3f7d0329ac3",
          "vout": 1,
          "scriptSig": {
            "asm": "3045022100e80099e7b00fa8ca8c1a5bd175fcf010003a203968a479ecfcc078ad6448004c02200332ab2dcb9a365e42b6066676a939c839d873aa4e6acb19c29c50bc78018cef[ALL] 02a5e20cf430a1b970a71ee03d812d1e7b7768d3f79aaeb8915eb88ac4a79c5e0d",
            "hex": "483045022100e80099e7b00fa8ca8c1a5bd175fcf010003a203968a479ecfcc078ad6448004c02200332ab2dcb9a365e42b6066676a939c839d873aa4e6acb19c29c50bc78018cef012102a5e20cf430a1b970a71ee03d812d1e7b7768d3f79aaeb8915eb88ac4a79c5e0d"
          },
          "sequence": 4294967295
        }
      ],
      "vout": [
        {
          "value": 0.00245545,
          "n": 0,
          "scriptPubKey": {
            "asm": "OP_DUP OP_HASH160 00e2406e6aca08e70abfad6638773db3f5a552b5 OP_EQUALVERIFY OP_CHECKSIG",
            "hex": "76a91400e2406e6aca08e70abfad6638773db3f5a552b588ac",
            "reqSigs": 1,
            "type": "pubkeyhash",
            "addresses": [
              "LKJdJTP8Gr4AvQShziEdm1HQWTHrhv6wRV"
            ]
          }
        }, 
        {
          "value": 0.01182827,
          "n": 1,
          "scriptPubKey": {
            "asm": "OP_DUP OP_HASH160 9f6cc2babfadb3025ba962c634ef65c051011ab0 OP_EQUALVERIFY OP_CHECKSIG",
            "hex": "76a9149f6cc2babfadb3025ba962c634ef65c051011ab088ac",
            "reqSigs": 1,
            "type": "pubkeyhash",
            "addresses": [
              "LZkuzY7q9dY4tGJNGmthXQBcQiBhsFk4rm"
            ]
          }
        }
      ],
      "hex": "0100000001c39a32d0f7e3cf7b0da71c5cfdbf159115090b3ac82902a36cc0576335e86e20010000006b483045022100e80099e7b00fa8ca8c1a5bd175fcf010003a203968a479ecfcc078ad6448004c02200332ab2dcb9a365e42b6066676a939c839d873aa4e6acb19c29c50bc78018cef012102a5e20cf430a1b970a71ee03d812d1e7b7768d3f79aaeb8915eb88ac4a79c5e0dffffffff0229bf0300000000001976a91400e2406e6aca08e70abfad6638773db3f5a552b588ac6b0c1200000000001976a9149f6cc2babfadb3025ba962c634ef65c051011ab088ac00000000"
    }, 
    {
      "txid": "3e7a1401b45b7c4665e0b704d1cd1072c7e3c104bc00a055a1533c190f45b328",
      "hash": "3e7a1401b45b7c4665e0b704d1cd1072c7e3c104bc00a055a1533c190f45b328",
      "version": 1,
      "size": 224,
      "vsize": 224,
      "locktime": 0,
      "vin": [
        {
          "txid": "dffd29d207b6924c27480c7596160ceb72753c65e216dde072b9ccfc1dcaa9b6",
          "vout": 1,
          "scriptSig": {
            "asm": "3045022100e5781525abcd4cdca4c3c7e20e666950f32e54c819ad891d76d2f15cee2111d80220070baa820f29e232ff74315e5c5f099007ee4fa1924a59525ebbfaaac6116b2d[ALL] 027f089d82a728da2f29cffe20447c1a9f7255278c2b83e1559419f22db5926e42",
            "hex": "483045022100e5781525abcd4cdca4c3c7e20e666950f32e54c819ad891d76d2f15cee2111d80220070baa820f29e232ff74315e5c5f099007ee4fa1924a59525ebbfaaac6116b2d0121027f089d82a728da2f29cffe20447c1a9f7255278c2b83e1559419f22db5926e42"
          },
          "sequence": 4294967295
        }
      ],
      "vout": [
        {
          "value": 0.38816000,
          "n": 0,
          "scriptPubKey": {
            "asm": "OP_HASH160 8b26b97c033da1b29d9a27c34de016e07164b22b OP_EQUAL",
            "hex": "a9148b26b97c033da1b29d9a27c34de016e07164b22b87",
            "reqSigs": 1,
            "type": "scripthash",
            "addresses": [
              "MLavYiuqFUMNGoR9QBHswziTdVfe8j6Jhs"
            ]
          }
        }, 
        {
          "value": 159.59301377,
          "n": 1,
          "scriptPubKey": {
            "asm": "OP_DUP OP_HASH160 e67b0e6412b33c274cf164d45b6ac0792a24201a OP_EQUALVERIFY OP_CHECKSIG",
            "hex": "76a914e67b0e6412b33c274cf164d45b6ac0792a24201a88ac",
            "reqSigs": 1,
            "type": "pubkeyhash",
            "addresses": [
              "LgEd6RsiYDhwDd7EdQhaZ9jdRotufrVptZ"
            ]
          }
        }
      ],
      "hex": "0100000001b6a9ca1dfcccb972e0dd16e2653c7572eb0c1696750c48274c92b607d229fddf010000006b483045022100e5781525abcd4cdca4c3c7e20e666950f32e54c819ad891d76d2f15cee2111d80220070baa820f29e232ff74315e5c5f099007ee4fa1924a59525ebbfaaac6116b2d0121027f089d82a728da2f29cffe20447c1a9f7255278c2b83e1559419f22db5926e42ffffffff02004950020000000017a9148b26b97c033da1b29d9a27c34de016e07164b22b87019d3fb7030000001976a914e67b0e6412b33c274cf164d45b6ac0792a24201a88ac00000000"
    }, 
    {
      "txid": "f555792cf62673e4daa5bef218194e5633248c01db08534116850f432e1ac40b",
      "hash": "f555792cf62673e4daa5bef218194e5633248c01db08534116850f432e1ac40b",
      "version": 1,
      "size": 225,
      "vsize": 225,
      "locktime": 0,
      "vin": [
        {
          "txid": "29d7cc9699aeb2a2054e3e5d994ff936303b38490ee6143eda20e76f2b868512",
          "vout": 0,
          "scriptSig": {
            "asm": "304402206708c0bc5ea1838fa6d5d8509ddc1435469ebc730f92fc4bd8cba2f749218516022043ecf8a63b49803cc7e815a987a7b180637d0f926ae0cc1d628287bb680613fa[ALL] 039732e3252793156b7b07a0f80f60448b8b0d9ae5169ce9690a8ca67b34e260fd",
            "hex": "47304402206708c0bc5ea1838fa6d5d8509ddc1435469ebc730f92fc4bd8cba2f749218516022043ecf8a63b49803cc7e815a987a7b180637d0f926ae0cc1d628287bb680613fa0121039732e3252793156b7b07a0f80f60448b8b0d9ae5169ce9690a8ca67b34e260fd"
          },
          "sequence": 4294967295
        }
      ],
      "vout": [
        {
          "value": 0.24435815,
          "n": 0,
          "scriptPubKey": {
            "asm": "OP_DUP OP_HASH160 4218d14abdc8ef1f97bb530efa0629ce03f9a4c5 OP_EQUALVERIFY OP_CHECKSIG",
            "hex": "76a9144218d14abdc8ef1f97bb530efa0629ce03f9a4c588ac",
            "reqSigs": 1,
            "type": "pubkeyhash",
            "addresses": [
              "LRFSbE8YQ3JKXLntS44Q1rpFWVFTj6YKBP"
            ]
          }
        }, 
        {
          "value": 0.20000000,
          "n": 1,
          "scriptPubKey": {
            "asm": "OP_DUP OP_HASH160 18039e275d44ba2a9850e6f331c71c546867eef7 OP_EQUALVERIFY OP_CHECKSIG",
            "hex": "76a91418039e275d44ba2a9850e6f331c71c546867eef788ac",
            "reqSigs": 1,
            "type": "pubkeyhash",
            "addresses": [
              "LMQvpBhWDXgdUerexKjnBaprJfHrHeTSfn"
            ]
          }
        }
      ],
      "hex": "01000000011285862b6fe720da3e14e60e49383b3036f94f995d3e4e05a2b2ae9996ccd729000000006a47304402206708c0bc5ea1838fa6d5d8509ddc1435469ebc730f92fc4bd8cba2f749218516022043ecf8a63b49803cc7e815a987a7b180637d0f926ae0cc1d628287bb680613fa0121039732e3252793156b7b07a0f80f60448b8b0d9ae5169ce9690a8ca67b34e260fdffffffff0267dc7401000000001976a9144218d14abdc8ef1f97bb530efa0629ce03f9a4c588ac002d3101000000001976a91418039e275d44ba2a9850e6f331c71c546867eef788ac00000000"
    }, 
    {
      "txid": "ab19354a4a79d95b3e3c2336a5b1aca0198221856e824a513517a0b692ac5639",
      "hash": "ab19354a4a79d95b3e3c2336a5b1aca0198221856e824a513517a0b692ac5639",
      "version": 1,
      "size": 225,
      "vsize": 225,
      "locktime": 0,
      "vin": [
        {
          "txid": "4292f3838a76f265660cf8723b52b854b1f666a39a65dfdb0a0a10fbfaaeb382",
          "vout": 2,
          "scriptSig": {
            "asm": "3044022027c7f3e707908ba8593de21472ba3f39d40e304b7cc5bf6c556da257d7006eee0220724fc977a2aa5facb80d3041e359778ee60bade461f781ad4379d28cccf07e79[ALL] 03f7f81029d43d6ed9165be941f8594f7870973d6196d99c2101585f4b3454edde",
            "hex": "473044022027c7f3e707908ba8593de21472ba3f39d40e304b7cc5bf6c556da257d7006eee0220724fc977a2aa5facb80d3041e359778ee60bade461f781ad4379d28cccf07e79012103f7f81029d43d6ed9165be941f8594f7870973d6196d99c2101585f4b3454edde"
          },
          "sequence": 4294967295
        }
      ],
      "vout": [
        {
          "value": 0.84985162,
          "n": 0,
          "scriptPubKey": {
            "asm": "OP_DUP OP_HASH160 eb7bea3f88b63677cf32a3a1b69ffa4ba3b4e4e2 OP_EQUALVERIFY OP_CHECKSIG",
            "hex": "76a914eb7bea3f88b63677cf32a3a1b69ffa4ba3b4e4e288ac",
            "reqSigs": 1,
            "type": "pubkeyhash",
            "addresses": [
              "Lgh5W4Tr4qxHVT93BLdqZBmPfdA8C48HbP"
            ]
          }
        }, 
        {
          "value": 64.59255261,
          "n": 1,
          "scriptPubKey": {
            "asm": "OP_DUP OP_HASH160 36b137e9b6521a7df851d215546b3092f23f3577 OP_EQUALVERIFY OP_CHECKSIG",
            "hex": "76a91436b137e9b6521a7df851d215546b3092f23f357788ac",
            "reqSigs": 1,
            "type": "pubkeyhash",
            "addresses": [
              "LQD93vUheTA3KQTiAx8CtrnDNjxe8PVuiq"
            ]
          }
        }
      ],
      "hex": "010000000182b3aefafb100a0adbdf659aa366f6b154b8523b72f80c6665f2768a83f39242020000006a473044022027c7f3e707908ba8593de21472ba3f39d40e304b7cc5bf6c556da257d7006eee0220724fc977a2aa5facb80d3041e359778ee60bade461f781ad4379d28cccf07e79012103f7f81029d43d6ed9165be941f8594f7870973d6196d99c2101585f4b3454eddeffffffff024ac51005000000001976a914eb7bea3f88b63677cf32a3a1b69ffa4ba3b4e4e288acdd690081010000001976a91436b137e9b6521a7df851d215546b3092f23f357788ac00000000"
    }, 
    {
      "txid": "355b02041508022a83658bc8a16aa8b71d1f8f8c517ae2096659291c3d6e3cd9",
      "hash": "d2988af027dd6408830d29eb0cb1d11e35cfa3049d82400c12abe6ab17957c83",
      "version": 2,
      "size": 2550,
      "vsize": 1578,
      "locktime": 0,
      "vin": [
        {
          "txid": "0da00908379d88a0242c6091a576341f7192d592b2229d8cd86c9f2c91bef90d",
          "vout": 0,
          "scriptSig": {
            "asm": "0014212f4a6c5d19b5c3ddc2e9d6af67a33f37e879f7",
            "hex": "160014212f4a6c5d19b5c3ddc2e9d6af67a33f37e879f7"
          },
          "txinwitness": [
            "3045022100877d4c86553060fd53fbe41cf76016fe773bcac2f762d340a3b0acc6b30de74e02203320673fce2fa5f57f7d5826d510d0e7bba650ff383b3da9a85f1517931fe1cb01", 
            "03ae7c58ae06093adb8f2bccbd2205fa6552a14a31ce78ba10a7bd3a1532299c3d"
          ],
          "sequence": 4294967295
        }, 
        {
          "txid": "6250490a6dd853e040337973857d4267ee83b56b593d31e8a7824f206bde2f24",
          "vout": 1,
          "scriptSig": {
            "asm": "3044022029a5a67b3884e414a68d8c19f8342deca2600b934015c6af5822bf93262d229202202bff8fb7599a551009550f83d7e696b98fdf82bfeaeba396bc2fec4287a21bec[ALL] 02fa836f93cc1d82f47ba07fb08f0391a7322243be314004331beba46a029d28e6",
            "hex": "473044022029a5a67b3884e414a68d8c19f8342deca2600b934015c6af5822bf93262d229202202bff8fb7599a551009550f83d7e696b98fdf82bfeaeba396bc2fec4287a21bec012102fa836f93cc1d82f47ba07fb08f0391a7322243be314004331beba46a029d28e6"
          },
          "sequence": 4294967295
        }, 
        {
          "txid": "9d6f0a2f03f41f4c791822349f9c039647874298a192e146106ea53b91febc2b",
          "vout": 0,
          "scriptSig": {
            "asm": "0014212f4a6c5d19b5c3ddc2e9d6af67a33f37e879f7",
            "hex": "160014212f4a6c5d19b5c3ddc2e9d6af67a33f37e879f7"
          },
          "txinwitness": [
            "30440220332e596663ea9cb1a33d9876b00fb08df3d7281c65d056a75a3fdc25ba4dee35022059f64b38ae080060bb968e2b8e6bce49b66933188e4fb61d3a61c718b6d6c5b601", 
            "03ae7c58ae06093adb8f2bccbd2205fa6552a14a31ce78ba10a7bd3a1532299c3d"
          ],
          "sequence": 4294967295
        }, 
        {
          "txid": "6000e20483a8e8dfb296b66577d47e95df53d7a5a1c2752d848448e0df5cff3d",
          "vout": 2,
          "scriptSig": {
            "asm": "0014c2edef2c5984afd5b48fe5528eb46b823892c2f7",
            "hex": "160014c2edef2c5984afd5b48fe5528eb46b823892c2f7"
          },
          "txinwitness": [
            "30440220210c7ac2ab3f0bd077ff9121a824e42882a8a10377e3b05ca84841f5bbc8d9b9022037661c0351262cf5a10f1332a290e1e1768575e4dc812ad25a8e87b370d4501701", 
            "032a857345142ea67eb7755de551208b454fbb36d9d305c54f6de926da056ea1a2"
          ],
          "sequence": 4294967295
        }, 
        {
          "txid": "fc633f2e6dc3807903009865f30df6aff8f9a1bb5e9a19dfd1dd03eb80a7764a",
          "vout": 0,
          "scriptSig": {
            "asm": "0014212f4a6c5d19b5c3ddc2e9d6af67a33f37e879f7",
            "hex": "160014212f4a6c5d19b5c3ddc2e9d6af67a33f37e879f7"
          },
          "txinwitness": [
            "3045022100ca6b7d781e4b93c705fe332b09941c43f7a74d04fe4fe22cb7aa1fa3abbd4d63022068b85ef2810c0d78f48f5f47d012b93f976eac3303e4c5e8f777d6721ca8ee0601", 
            "03ae7c58ae06093adb8f2bccbd2205fa6552a14a31ce78ba10a7bd3a1532299c3d"
          ],
          "sequence": 4294967295
        }, 
        {
          "txid": "0bf6c53a8031877a2602a501589c96f3bb57f884ff2ca796b66cabf55a05255e",
          "vout": 0,
          "scriptSig": {
            "asm": "0014212f4a6c5d19b5c3ddc2e9d6af67a33f37e879f7",
            "hex": "160014212f4a6c5d19b5c3ddc2e9d6af67a33f37e879f7"
          },
          "txinwitness": [
            "3045022100dcd8a56e35cc0d480777fe94c57036bdfa47a1e81f23f69ecd98b90baae12bfc02206a57269abe6c7d43b76c14153992dac58030e40c52e0ad2e5a751ea8177d562f01", 
            "03ae7c58ae06093adb8f2bccbd2205fa6552a14a31ce78ba10a7bd3a1532299c3d"
          ],
          "sequence": 4294967295
        }, 
        {
          "txid": "eb687712021a1d68d34b85a531fe1ac009461a9c6aa8fbe8894bf3a91c340574",
          "vout": 23,
          "scriptSig": {
            "asm": "0014d51be1976731fbe19025fb9886b65e8efd61b4c4",
            "hex": "160014d51be1976731fbe19025fb9886b65e8efd61b4c4"
          },
          "txinwitness": [
            "3045022100a7eef3356a92bcc995a87d147ce0189bbdb7124d2d3ca9e13c9b34a2be3fbe9a02201d4241c3640e95f6b758f87f446cde2eebb6d817ef5f107473fea3cbbcd34be101", 
            "036178a8560550418061b71ae51c8d0ae999ddb91d96e9d3de8a946c564528a69a"
          ],
          "sequence": 4294967295
        }, 
        {
          "txid": "d8f2b992e501c665af57b68f05d5d7f9bee8d218a2428ed260e1949b4284547d",
          "vout": 1,
          "scriptSig": {
            "asm": "0014934991a3405691ef1fef69d72ea5bc6979619058",
            "hex": "160014934991a3405691ef1fef69d72ea5bc6979619058"
          },
          "txinwitness": [
            "3045022100fc5d500684630db125cfbe71b44b24ba8e4b8881594008573d439a08fc5399ff02200265d8fa723c66e6e4afef00343cf7ef8f9d4f5bda037fd13df1037787a5dd4301", 
            "03653ded64a7bb802f248690058b38b107cee0f0d943e6f76a11dc7ae0fa1fae70"
          ],
          "sequence": 4294967295
        }, 
        {
          "txid": "04148eabe0bd5dc6a31426cd51065d93f1df8a67a929b950cdf71f99b2fdd0a5",
          "vout": 2,
          "scriptSig": {
            "asm": "30440220070e089460fe325595349d50014e3b647bea4a50d50f56abd6ea3ae69a02f06802206f7d327b6612b9431e6b6eca3ed8620e4f1181132e34aaaa27a5abd796d12bbb[ALL] 03a6b46222203cd368eb7f61a929a395e7eebbbb35fe278ec1ab7758a7099035ac",
            "hex": "4730440220070e089460fe325595349d50014e3b647bea4a50d50f56abd6ea3ae69a02f06802206f7d327b6612b9431e6b6eca3ed8620e4f1181132e34aaaa27a5abd796d12bbb012103a6b46222203cd368eb7f61a929a395e7eebbbb35fe278ec1ab7758a7099035ac"
          },
          "sequence": 4294967295
        }, 
        {
          "txid": "04148eabe0bd5dc6a31426cd51065d93f1df8a67a929b950cdf71f99b2fdd0a5",
          "vout": 4,
          "scriptSig": {
            "asm": "30440220231ed3415813bd799e09414fd27a2fed72caae92875d873712dd14f82dc3d5220220280413efda3bae7b95c6e93c81fbf176bddcf978a61f807dcb38c58ddbf661d0[ALL] 03fcd316060be3d51e185b782ea4c5d85051b47d03fef65d7a9ae92d6f82872a69",
            "hex": "4730440220231ed3415813bd799e09414fd27a2fed72caae92875d873712dd14f82dc3d5220220280413efda3bae7b95c6e93c81fbf176bddcf978a61f807dcb38c58ddbf661d0012103fcd316060be3d51e185b782ea4c5d85051b47d03fef65d7a9ae92d6f82872a69"
          },
          "sequence": 4294967295
        }, 
        {
          "txid": "7f44a746c2a9ff73050bf7732f5a46cb0c7a99314e80a5739801fc4b98b9d3a8",
          "vout": 0,
          "scriptSig": {
            "asm": "0014fc93f0c23060206aeb8207e8558cb3689acc7f13",
            "hex": "160014fc93f0c23060206aeb8207e8558cb3689acc7f13"
          },
          "txinwitness": [
            "3045022100f8bc0d4668471b5f6ddbbbad154f8eb2760c4784adde2a1b50b33079ab494163022001688d5330d28bff6e423a128fc196b51733923ca48e2ed3e6ee70f65ca6412d01", 
            "0273e9faa503ac6cf817ed1c24b704c6d9cba56273bed7a91353339e9ae1f47997"
          ],
          "sequence": 4294967295
        }, 
        {
          "txid": "3a4028352bcf53710d18e9a509ad25f841c86849fabf6e3737d9bd8553fd8ec9",
          "vout": 0,
          "scriptSig": {
            "asm": "00141c8e3422d45eca245b8e36377766b5917c74f224",
            "hex": "1600141c8e3422d45eca245b8e36377766b5917c74f224"
          },
          "txinwitness": [
            "3045022100ac37019fc1e537a3f13061d0b837ed09617beac82232da122b7bf429db275d610220198618e6dad70021ce7f995b39a9e85b546073b7c4a54de4651ebbbdc1b0d66801", 
            "02fda5496d6c63840bb8a4181693d33715c2cc8207de0a28a0d12e530fe25e0ef0"
          ],
          "sequence": 4294967295
        }, 
        {
          "txid": "1e247a7d124195958e7133bb9c57a993ef6642cb4b679a40ca9fe1dc33e175ea",
          "vout": 0,
          "scriptSig": {
            "asm": "00147729f991fae76715c7a5a494d03f49aa7182c217",
            "hex": "1600147729f991fae76715c7a5a494d03f49aa7182c217"
          },
          "txinwitness": [
            "3045022100e207b480b6d807cd1b82b3581a6aeeb57e91e2ee007d1fc520b14394f957d9c302204381ad47a8bc5aba3347d5caf988d65e128c3e35ec0fb24aa94a8da25f54129501", 
            "034680d362e13e9179bc7a36c5ed57955edea3659af534b858e0184e2c9ada9c2f"
          ],
          "sequence": 4294967295
        }, 
        {
          "txid": "0a25c0fc84b215c181ef064281d8cb3b21ad026d56682ecb5cb66f3f0c46a1f3",
          "vout": 0,
          "scriptSig": {
            "asm": "0014cfc4ef1dd874c0b832e01f199b9964d4f0203a48",
            "hex": "160014cfc4ef1dd874c0b832e01f199b9964d4f0203a48"
          },
          "txinwitness": [
            "3044022047f64c2f77ef53a064b815084501fc07e0f059cab855afa175c89a6c5f8b9d99022041339958a0c0b9fa47e6f3e521673f5ee29449d095c34ea6723b009309752d2e01", 
            "022232b5da5e78356193ef00ca96d5ff392efbde49e2797dd4b0b1352e1e55955c"
          ],
          "sequence": 4294967295
        }, 
        {
          "txid": "0a25c0fc84b215c181ef064281d8cb3b21ad026d56682ecb5cb66f3f0c46a1f3",
          "vout": 20,
          "scriptSig": {
            "asm": "00145914f93ce772add17143c1bc12dd6bee5306dbf0",
            "hex": "1600145914f93ce772add17143c1bc12dd6bee5306dbf0"
          },
          "txinwitness": [
            "3044022015dc1be9f9473780908e7a2348fe6231e5693bd57fd741ecd3f8d9ee48abd00c02206db4b31c7e4de1cff443e6d92d06d829d99ab79dee9079b1601f23a8b095a1d201", 
            "036e8cf92d4dd3cf752f3369a732dbbf22ed769636aa04602cdb345a3c0501a5de"
          ],
          "sequence": 4294967295
        }
      ],
      "vout": [
        {
          "value": 45.17644905,
          "n": 0,
          "scriptPubKey": {
            "asm": "OP_DUP OP_HASH160 5cc1816f239d9522ec5795451b8ff52ce3c62959 OP_EQUALVERIFY OP_CHECKSIG",
            "hex": "76a9145cc1816f239d9522ec5795451b8ff52ce3c6295988ac",
            "reqSigs": 1,
            "type": "pubkeyhash",
            "addresses": [
              "LTgQEsCfPqAh44CP3Tiq1CrdPf9wBXKLd4"
            ]
          }
        }
      ],
      "hex": "0200000000010f0df9be912c9f6cd88c9d22b292d592711f3476a591602c24a0889d370809a00d0000000017160014212f4a6c5d19b5c3ddc2e9d6af67a33f37e879f7ffffffff242fde6b204f82a7e8313d596bb583ee67427d8573793340e053d86d0a495062010000006a473044022029a5a67b3884e414a68d8c19f8342deca2600b934015c6af5822bf93262d229202202bff8fb7599a551009550f83d7e696b98fdf82bfeaeba396bc2fec4287a21bec012102fa836f93cc1d82f47ba07fb08f0391a7322243be314004331beba46a029d28e6ffffffff2bbcfe913ba56e1046e192a19842874796039c9f342218794c1ff4032f0a6f9d0000000017160014212f4a6c5d19b5c3ddc2e9d6af67a33f37e879f7ffffffff3dff5cdfe04884842d75c2a1a5d753df957ed47765b696b2dfe8a88304e200600200000017160014c2edef2c5984afd5b48fe5528eb46b823892c2f7ffffffff4a76a780eb03ddd1df199a5ebba1f9f8aff60df3659800037980c36d2e3f63fc0000000017160014212f4a6c5d19b5c3ddc2e9d6af67a33f37e879f7ffffffff5e25055af5ab6cb696a72cff84f857bbf3969c5801a502267a8731803ac5f60b0000000017160014212f4a6c5d19b5c3ddc2e9d6af67a33f37e879f7ffffffff7405341ca9f34b89e8fba86a9c1a4609c01afe31a5854bd3681d1a02127768eb1700000017160014d51be1976731fbe19025fb9886b65e8efd61b4c4ffffffff7d5484429b94e160d28e42a218d2e8bef9d7d5058fb657af65c601e592b9f2d80100000017160014934991a3405691ef1fef69d72ea5bc6979619058ffffffffa5d0fdb2991ff7cd50b929a9678adff1935d0651cd2614a3c65dbde0ab8e1404020000006a4730440220070e089460fe325595349d50014e3b647bea4a50d50f56abd6ea3ae69a02f06802206f7d327b6612b9431e6b6eca3ed8620e4f1181132e34aaaa27a5abd796d12bbb012103a6b46222203cd368eb7f61a929a395e7eebbbb35fe278ec1ab7758a7099035acffffffffa5d0fdb2991ff7cd50b929a9678adff1935d0651cd2614a3c65dbde0ab8e1404040000006a4730440220231ed3415813bd799e09414fd27a2fed72caae92875d873712dd14f82dc3d5220220280413efda3bae7b95c6e93c81fbf176bddcf978a61f807dcb38c58ddbf661d0012103fcd316060be3d51e185b782ea4c5d85051b47d03fef65d7a9ae92d6f82872a69ffffffffa8d3b9984bfc019873a5804e31997a0ccb465a2f73f70b0573ffa9c246a7447f0000000017160014fc93f0c23060206aeb8207e8558cb3689acc7f13ffffffffc98efd5385bdd937376ebffa4968c841f825ad09a5e9180d7153cf2b3528403a00000000171600141c8e3422d45eca245b8e36377766b5917c74f224ffffffffea75e133dce19fca409a674bcb4266ef93a9579cbb33718e959541127d7a241e00000000171600147729f991fae76715c7a5a494d03f49aa7182c217fffffffff3a1460c3f6fb65ccb2e68566d02ad213bcbd8814206ef81c115b284fcc0250a0000000017160014cfc4ef1dd874c0b832e01f199b9964d4f0203a48fffffffff3a1460c3f6fb65ccb2e68566d02ad213bcbd8814206ef81c115b284fcc0250a14000000171600145914f93ce772add17143c1bc12dd6bee5306dbf0ffffffff0169ca450d010000001976a9145cc1816f239d9522ec5795451b8ff52ce3c6295988ac02483045022100877d4c86553060fd53fbe41cf76016fe773bcac2f762d340a3b0acc6b30de74e02203320673fce2fa5f57f7d5826d510d0e7bba650ff383b3da9a85f1517931fe1cb012103ae7c58ae06093adb8f2bccbd2205fa6552a14a31ce78ba10a7bd3a1532299c3d00024730440220332e596663ea9cb1a33d9876b00fb08df3d7281c65d056a75a3fdc25ba4dee35022059f64b38ae080060bb968e2b8e6bce49b66933188e4fb61d3a61c718b6d6c5b6012103ae7c58ae06093adb8f2bccbd2205fa6552a14a31ce78ba10a7bd3a1532299c3d024730440220210c7ac2ab3f0bd077ff9121a824e42882a8a10377e3b05ca84841f5bbc8d9b9022037661c0351262cf5a10f1332a290e1e1768575e4dc812ad25a8e87b370d450170121032a857345142ea67eb7755de551208b454fbb36d9d305c54f6de926da056ea1a202483045022100ca6b7d781e4b93c705fe332b09941c43f7a74d04fe4fe22cb7aa1fa3abbd4d63022068b85ef2810c0d78f48f5f47d012b93f976eac3303e4c5e8f777d6721ca8ee06012103ae7c58ae06093adb8f2bccbd2205fa6552a14a31ce78ba10a7bd3a1532299c3d02483045022100dcd8a56e35cc0d480777fe94c57036bdfa47a1e81f23f69ecd98b90baae12bfc02206a57269abe6c7d43b76c14153992dac58030e40c52e0ad2e5a751ea8177d562f012103ae7c58ae06093adb8f2bccbd2205fa6552a14a31ce78ba10a7bd3a1532299c3d02483045022100a7eef3356a92bcc995a87d147ce0189bbdb7124d2d3ca9e13c9b34a2be3fbe9a02201d4241c3640e95f6b758f87f446cde2eebb6d817ef5f107473fea3cbbcd34be10121036178a8560550418061b71ae51c8d0ae999ddb91d96e9d3de8a946c564528a69a02483045022100fc5d500684630db125cfbe71b44b24ba8e4b8881594008573d439a08fc5399ff02200265d8fa723c66e6e4afef00343cf7ef8f9d4f5bda037fd13df1037787a5dd43012103653ded64a7bb802f248690058b38b107cee0f0d943e6f76a11dc7ae0fa1fae70000002483045022100f8bc0d4668471b5f6ddbbbad154f8eb2760c4784adde2a1b50b33079ab494163022001688d5330d28bff6e423a128fc196b51733923ca48e2ed3e6ee70f65ca6412d01210273e9faa503ac6cf817ed1c24b704c6d9cba56273bed7a91353339e9ae1f4799702483045022100ac37019fc1e537a3f13061d0b837ed09617beac82232da122b7bf429db275d610220198618e6dad70021ce7f995b39a9e85b546073b7c4a54de4651ebbbdc1b0d668012102fda5496d6c63840bb8a4181693d33715c2cc8207de0a28a0d12e530fe25e0ef002483045022100e207b480b6d807cd1b82b3581a6aeeb57e91e2ee007d1fc520b14394f957d9c302204381ad47a8bc5aba3347d5caf988d65e128c3e35ec0fb24aa94a8da25f5412950121034680d362e13e9179bc7a36c5ed57955edea3659af534b858e0184e2c9ada9c2f02473044022047f64c2f77ef53a064b815084501fc07e0f059cab855afa175c89a6c5f8b9d99022041339958a0c0b9fa47e6f3e521673f5ee29449d095c34ea6723b009309752d2e0121022232b5da5e78356193ef00ca96d5ff392efbde49e2797dd4b0b1352e1e55955c02473044022015dc1be9f9473780908e7a2348fe6231e5693bd57fd741ecd3f8d9ee48abd00c02206db4b31c7e4de1cff443e6d92d06d829d99ab79dee9079b1601f23a8b095a1d20121036e8cf92d4dd3cf752f3369a732dbbf22ed769636aa04602cdb345a3c0501a5de00000000"
    }, 
    {
      "txid": "d317430edc744d3d1ed27dec08135f2bf0ea4045beb39c0b5aff92f952950c01",
      "hash": "d317430edc744d3d1ed27dec08135f2bf0ea4045beb39c0b5aff92f952950c01",
      "version": 2,
      "size": 520,
      "vsize": 520,
      "locktime": 0,
      "vin": [
        {
          "txid": "de141da0e602b1c62244c83fb74b073edc038c15db67e1f61d88eb9b40771fc6",
          "vout": 18,
          "scriptSig": {
            "asm": "304402204dfad56fad186921def0f8676739df08a0121af9d2ff8c7c48fa122c441c6ca302206594e253466667fc72455259693d7cd6dc5b672b372d563617b1588c89ecf593[ALL] 03485603cead9a7c1e2ec81fec72f9fb700d234c9ff13d28c3279c045e97b7b0f6",
            "hex": "47304402204dfad56fad186921def0f8676739df08a0121af9d2ff8c7c48fa122c441c6ca302206594e253466667fc72455259693d7cd6dc5b672b372d563617b1588c89ecf593012103485603cead9a7c1e2ec81fec72f9fb700d234c9ff13d28c3279c045e97b7b0f6"
          },
          "sequence": 0
        }, 
        {
          "txid": "67f49b351d5e924c81940541580998120a0558cc9fc7d1f5f763ebe11263d2c7",
          "vout": 1,
          "scriptSig": {
            "asm": "3045022100b6936322e469ff309310f25947604cccbc6b7716cfe6e5b7d58c86dfbaf992f602203551a920e1c6c9acbd955f946ddd4c48b9b9f7d49197f5a80bc25c5fce48078b[ALL] 0231da44e1474b1da84b8f46ab23458b6ce05cd5c47ca9d4cde659160c6b41a5ab",
            "hex": "483045022100b6936322e469ff309310f25947604cccbc6b7716cfe6e5b7d58c86dfbaf992f602203551a920e1c6c9acbd955f946ddd4c48b9b9f7d49197f5a80bc25c5fce48078b01210231da44e1474b1da84b8f46ab23458b6ce05cd5c47ca9d4cde659160c6b41a5ab"
          },
          "sequence": 0
        }, 
        {
          "txid": "6ac14289afcaace73e02cc1b104e81ac4b0f26078815df3dcb1fc920b3114d96",
          "vout": 1,
          "scriptSig": {
            "asm": "3044022007f90d5eb8db1888c28798fa3eb4e48603ad486ce5645ba85968cce5d032b6e20220383c44d2d5f33d42887f56613e505ec88b5d42d4d029a4aa26a8a062269edf33[ALL] 03b3477c06111ca4b9208b188c7524132bc507d54e7115b98d7a57a6cf10435a46",
            "hex": "473044022007f90d5eb8db1888c28798fa3eb4e48603ad486ce5645ba85968cce5d032b6e20220383c44d2d5f33d42887f56613e505ec88b5d42d4d029a4aa26a8a062269edf33012103b3477c06111ca4b9208b188c7524132bc507d54e7115b98d7a57a6cf10435a46"
          },
          "sequence": 0
        }
      ],
      "vout": [
        {
          "value": 7.87200000,
          "n": 0,
          "scriptPubKey": {
            "asm": "OP_DUP OP_HASH160 d8fb0e9faf71e6b72a82eed4ad2077463f6b1b36 OP_EQUALVERIFY OP_CHECKSIG",
            "hex": "76a914d8fb0e9faf71e6b72a82eed4ad2077463f6b1b3688ac",
            "reqSigs": 1,
            "type": "pubkeyhash",
            "addresses": [
              "Lf1EyQLYAZSPg1aZF8qyL2bGgEZVerLyPi"
            ]
          }
        }, 
        {
          "value": 0.19216556,
          "n": 1,
          "scriptPubKey": {
            "asm": "OP_DUP OP_HASH160 83940ac6d58d43c231efb2dda6d2a5645e03128a OP_EQUALVERIFY OP_CHECKSIG",
            "hex": "76a91483940ac6d58d43c231efb2dda6d2a5645e03128a88ac",
            "reqSigs": 1,
            "type": "pubkeyhash",
            "addresses": [
              "LXDg8VFrB1Cw75mqdGKSSgzbiZJtyy1YXD"
            ]
          }
        }
      ],
      "hex": "0200000003c61f77409beb881df6e167db158c03dc3e074bb73fc84422c6b102e6a01d14de120000006a47304402204dfad56fad186921def0f8676739df08a0121af9d2ff8c7c48fa122c441c6ca302206594e253466667fc72455259693d7cd6dc5b672b372d563617b1588c89ecf593012103485603cead9a7c1e2ec81fec72f9fb700d234c9ff13d28c3279c045e97b7b0f600000000c7d26312e1eb63f7f5d1c79fcc58050a12980958410594814c925e1d359bf467010000006b483045022100b6936322e469ff309310f25947604cccbc6b7716cfe6e5b7d58c86dfbaf992f602203551a920e1c6c9acbd955f946ddd4c48b9b9f7d49197f5a80bc25c5fce48078b01210231da44e1474b1da84b8f46ab23458b6ce05cd5c47ca9d4cde659160c6b41a5ab00000000964d11b320c91fcb3ddf158807260f4bac814e101bcc023ee7accaaf8942c16a010000006a473044022007f90d5eb8db1888c28798fa3eb4e48603ad486ce5645ba85968cce5d032b6e20220383c44d2d5f33d42887f56613e505ec88b5d42d4d029a4aa26a8a062269edf33012103b3477c06111ca4b9208b188c7524132bc507d54e7115b98d7a57a6cf10435a46000000000200b8eb2e000000001976a914d8fb0e9faf71e6b72a82eed4ad2077463f6b1b3688acac382501000000001976a91483940ac6d58d43c231efb2dda6d2a5645e03128a88ac00000000"
    }, 
    {
      "txid": "e882d9d840af2308d05c2ded4801dc29a9629ee9fd39da22c101a5abbad33253",
      "hash": "e882d9d840af2308d05c2ded4801dc29a9629ee9fd39da22c101a5abbad33253",
      "version": 1,
      "size": 633,
      "vsize": 633,
      "locktime": 0,
      "vin": [
        {
          "txid": "cbebf71e0cdc8dfde9e67091018e623569a19b60c43682561436a2603f6b8d95",
          "vout": 0,
          "scriptSig": {
            "asm": "304402200527da481043575b038a4bf9e86620ec63e7b45b87870daac8614cdf2f678b1c0220501224505ec235f580b7bada8834639d4619c78ff9c896a27bdf701d0e3fa8c3[ALL] 025ec631054d8e45c8bcb77c579147e7a79adc5cd84fb71df734d2d1ddaea7a72c",
            "hex": "47304402200527da481043575b038a4bf9e86620ec63e7b45b87870daac8614cdf2f678b1c0220501224505ec235f580b7bada8834639d4619c78ff9c896a27bdf701d0e3fa8c30121025ec631054d8e45c8bcb77c579147e7a79adc5cd84fb71df734d2d1ddaea7a72c"
          },
          "sequence": 4294967295
        }, 
        {
          "txid": "d037a253a6174b0265ab5e128376ad27daaf24e052fbd1c3d6f42418fe7e7975",
          "vout": 0,
          "scriptSig": {
            "asm": "30440220168a2d8f6f77ebe955229d5aa241fc75fcf78a25a4724c790f787cee14c0f7fa02207c4f7529ee9e096692200d213aa85ce04b7d7449abbd8a0142132ae322d33290[ALL] 025ec631054d8e45c8bcb77c579147e7a79adc5cd84fb71df734d2d1ddaea7a72c",
            "hex": "4730440220168a2d8f6f77ebe955229d5aa241fc75fcf78a25a4724c790f787cee14c0f7fa02207c4f7529ee9e096692200d213aa85ce04b7d7449abbd8a0142132ae322d332900121025ec631054d8e45c8bcb77c579147e7a79adc5cd84fb71df734d2d1ddaea7a72c"
          },
          "sequence": 4294967295
        }, 
        {
          "txid": "7eecb0cbb7b2cfa32e6030a8550d82e0cf5adbe45e4be60ca823708acd3e457b",
          "vout": 1,
          "scriptSig": {
            "asm": "3044022035c61d87a65e7e40dc7a10316509c338a87a8b4ba73b36d0ff1929edbafe1e84022006d36e8cf9eec1f85c250d10d93ee531562c8c5b25605464bcffe46daf785742[ALL] 029c0bceadc61a6c4d4ccb2fa3390691c9be024361876058234dc11dd5527e2071",
            "hex": "473044022035c61d87a65e7e40dc7a10316509c338a87a8b4ba73b36d0ff1929edbafe1e84022006d36e8cf9eec1f85c250d10d93ee531562c8c5b25605464bcffe46daf7857420121029c0bceadc61a6c4d4ccb2fa3390691c9be024361876058234dc11dd5527e2071"
          },
          "sequence": 4294967295
        }, 
        {
          "txid": "08c035026c3b7d5975c60eb594e0dc066ab467a5016c0486d171436f533b902d",
          "vout": 14,
          "scriptSig": {
            "asm": "3045022100b483ed57d605a76e509f238c1f9055164401fa62e928f608014e9edef0703083022034ad6e070da1262c2ad11c77a5952c11f252d419af0ea4af7462b88cf748e5c7[ALL] 0212aea6efdee650aee15001f888ef87f3fb0c167f7db5d62f6f77fc75a23e06a0",
            "hex": "483045022100b483ed57d605a76e509f238c1f9055164401fa62e928f608014e9edef0703083022034ad6e070da1262c2ad11c77a5952c11f252d419af0ea4af7462b88cf748e5c701210212aea6efdee650aee15001f888ef87f3fb0c167f7db5d62f6f77fc75a23e06a0"
          },
          "sequence": 4294967295
        }
      ],
      "vout": [
        {
          "value": 10.00489946,
          "n": 0,
          "scriptPubKey": {
            "asm": "OP_DUP OP_HASH160 11a6d283cd07b8743c1d3ea70e25c4ccd9bf29c1 OP_EQUALVERIFY OP_CHECKSIG",
            "hex": "76a91411a6d283cd07b8743c1d3ea70e25c4ccd9bf29c188ac",
            "reqSigs": 1,
            "type": "pubkeyhash",
            "addresses": [
              "LLqHbVWcres6wnEk3YnKXTAbs7QwZQxwjh"
            ]
          }
        }
      ],
      "hex": "0100000004958d6b3f60a23614568236c4609ba16935628e019170e6e9fd8ddc0c1ef7ebcb000000006a47304402200527da481043575b038a4bf9e86620ec63e7b45b87870daac8614cdf2f678b1c0220501224505ec235f580b7bada8834639d4619c78ff9c896a27bdf701d0e3fa8c30121025ec631054d8e45c8bcb77c579147e7a79adc5cd84fb71df734d2d1ddaea7a72cffffffff75797efe1824f4d6c3d1fb52e024afda27ad7683125eab65024b17a653a237d0000000006a4730440220168a2d8f6f77ebe955229d5aa241fc75fcf78a25a4724c790f787cee14c0f7fa02207c4f7529ee9e096692200d213aa85ce04b7d7449abbd8a0142132ae322d332900121025ec631054d8e45c8bcb77c579147e7a79adc5cd84fb71df734d2d1ddaea7a72cffffffff7b453ecd8a7023a80ce64b5ee4db5acfe0820d55a830602ea3cfb2b7cbb0ec7e010000006a473044022035c61d87a65e7e40dc7a10316509c338a87a8b4ba73b36d0ff1929edbafe1e84022006d36e8cf9eec1f85c250d10d93ee531562c8c5b25605464bcffe46daf7857420121029c0bceadc61a6c4d4ccb2fa3390691c9be024361876058234dc11dd5527e2071ffffffff2d903b536f4371d186046c01a567b46a06dce094b50ec675597d3b6c0235c0080e0000006b483045022100b483ed57d605a76e509f238c1f9055164401fa62e928f608014e9edef0703083022034ad6e070da1262c2ad11c77a5952c11f252d419af0ea4af7462b88cf748e5c701210212aea6efdee650aee15001f888ef87f3fb0c167f7db5d62f6f77fc75a23e06a0ffffffff01da43a23b000000001976a91411a6d283cd07b8743c1d3ea70e25c4ccd9bf29c188ac00000000"
    }, 
    {
      "txid": "647a70a8606fe0e033ea5d4da6827102ced5f2056970e2ea5f019919685bf172",
      "hash": "647a70a8606fe0e033ea5d4da6827102ced5f2056970e2ea5f019919685bf172",
      "version": 1,
      "size": 225,
      "vsize": 225,
      "locktime": 0,
      "vin": [
        {
          "txid": "df236910f33960665c69ce010f8a3e093a13de3e1914f31e3e02124aa82594b2",
          "vout": 1,
          "scriptSig": {
            "asm": "3044022055d6ca9a1494c6a3a4290feda2ef0eba39ed94de0484744283bb98bbf1d26aed022025840ddd9bcc0631633a00f3afa187e87ad550fbef3750b07ebd3baa94afbc2d[ALL] 039f779de860d461f0c12cf5e6d00f1a8647e6a0a6ec511732315d0a31446fa10d",
            "hex": "473044022055d6ca9a1494c6a3a4290feda2ef0eba39ed94de0484744283bb98bbf1d26aed022025840ddd9bcc0631633a00f3afa187e87ad550fbef3750b07ebd3baa94afbc2d0121039f779de860d461f0c12cf5e6d00f1a8647e6a0a6ec511732315d0a31446fa10d"
          },
          "sequence": 4294967295
        }
      ],
      "vout": [
        {
          "value": 0.00676842,
          "n": 0,
          "scriptPubKey": {
            "asm": "OP_DUP OP_HASH160 d79e78f78255e85b974872902bdf6d02d2b93f3b OP_EQUALVERIFY OP_CHECKSIG",
            "hex": "76a914d79e78f78255e85b974872902bdf6d02d2b93f3b88ac",
            "reqSigs": 1,
            "type": "pubkeyhash",
            "addresses": [
              "Let3PKZE7RBqhyigLnJK6CzjGHkYpEhiUz"
            ]
          }
        }, 
        {
          "value": 0.26724283,
          "n": 1,
          "scriptPubKey": {
            "asm": "OP_DUP OP_HASH160 b8fb31a85da38cdc367791c181ec570e790d6e89 OP_EQUALVERIFY OP_CHECKSIG",
            "hex": "76a914b8fb31a85da38cdc367791c181ec570e790d6e8988ac",
            "reqSigs": 1,
            "type": "pubkeyhash",
            "addresses": [
              "Lc63WmoGWE359TtLgERE2LDJ28z9xQtwLN"
            ]
          }
        }
      ],
      "hex": "0100000001b29425a84a12023e1ef314193ede133a093e8a0f01ce695c666039f3106923df010000006a473044022055d6ca9a1494c6a3a4290feda2ef0eba39ed94de0484744283bb98bbf1d26aed022025840ddd9bcc0631633a00f3afa187e87ad550fbef3750b07ebd3baa94afbc2d0121039f779de860d461f0c12cf5e6d00f1a8647e6a0a6ec511732315d0a31446fa10dffffffff02ea530a00000000001976a914d79e78f78255e85b974872902bdf6d02d2b93f3b88acbbc79701000000001976a914b8fb31a85da38cdc367791c181ec570e790d6e8988ac00000000"
    }, 
    {
      "txid": "9d1ae2a38a3033d93de8735bec0627ef61ebaf61de553a1fe7451bd7b386acf8",
      "hash": "9d1ae2a38a3033d93de8735bec0627ef61ebaf61de553a1fe7451bd7b386acf8",
      "version": 1,
      "size": 225,
      "vsize": 225,
      "locktime": 0,
      "vin": [
        {
          "txid": "3dd5c662bdb855d731af93daea95dc327da8584f1123ba2f882fa5dd9a8588d6",
          "vout": 0,
          "scriptSig": {
            "asm": "304402200a8efc22dd34f4092382a67668e73855a7f02eda69be1cc015d12f5785dc3e1c02200103f7d5aeee3c7752556019f2266929565733a7d672a17ccffce69b173703bb[ALL] 020358cc24bb984bbaf18408985b19463adc5322bfbfef0ecf9b1b1a7786b2d198",
            "hex": "47304402200a8efc22dd34f4092382a67668e73855a7f02eda69be1cc015d12f5785dc3e1c02200103f7d5aeee3c7752556019f2266929565733a7d672a17ccffce69b173703bb0121020358cc24bb984bbaf18408985b19463adc5322bfbfef0ecf9b1b1a7786b2d198"
          },
          "sequence": 4294967295
        }
      ],
      "vout": [
        {
          "value": 0.99977400,
          "n": 0,
          "scriptPubKey": {
            "asm": "OP_DUP OP_HASH160 038457b1d229dbfb01ac30075ee6a290ea0dc4f9 OP_EQUALVERIFY OP_CHECKSIG",
            "hex": "76a914038457b1d229dbfb01ac30075ee6a290ea0dc4f988ac",
            "reqSigs": 1,
            "type": "pubkeyhash",
            "addresses": [
              "LKYYq7NEELihnVuCsbb6PcpG4Uar9iXWDj"
            ]
          }
        }, 
        {
          "value": 54.29439206,
          "n": 1,
          "scriptPubKey": {
            "asm": "OP_DUP OP_HASH160 a8e3286df08d0a34f7c0f664f6caf23fa4fd2bbe OP_EQUALVERIFY OP_CHECKSIG",
            "hex": "76a914a8e3286df08d0a34f7c0f664f6caf23fa4fd2bbe88ac",
            "reqSigs": 1,
            "type": "pubkeyhash",
            "addresses": [
              "Lacwueewt71huKtb58oircNJmCcJT64Nch"
            ]
          }
        }
      ],
      "hex": "0100000001d688859adda52f882fba23114f58a87d32dc95eada93af31d755b8bd62c6d53d000000006a47304402200a8efc22dd34f4092382a67668e73855a7f02eda69be1cc015d12f5785dc3e1c02200103f7d5aeee3c7752556019f2266929565733a7d672a17ccffce69b173703bb0121020358cc24bb984bbaf18408985b19463adc5322bfbfef0ecf9b1b1a7786b2d198ffffffff02b888f505000000001976a914038457b1d229dbfb01ac30075ee6a290ea0dc4f988ace6aa9e43010000001976a914a8e3286df08d0a34f7c0f664f6caf23fa4fd2bbe88ac00000000"
    }, 
    {
      "txid": "cdbcc8393c6610e716dd3f315aa7329a944729cdb49400d4daede373ea0b199a",
      "hash": "cdbcc8393c6610e716dd3f315aa7329a944729cdb49400d4daede373ea0b199a",
      "version": 1,
      "size": 373,
      "vsize": 373,
      "locktime": 1359591,
      "vin": [
        {
          "txid": "d2a56f7f3b1bf44a71d90eb475f7e70c129c08eaeae2d374e35877861d0e5ee0",
          "vout": 1634,
          "scriptSig": {
            "asm": "3045022100f5788aab19b1c643343ccef730201571ffff620d44a21a9fe6223b6f22509d8302206090b64e739414e8a613f131284846ab0505115de3260a590cc9f5876783b22b[ALL] 03e2684f38c014573ed71f8f9f8bdabf59b30c620de891c932189dd23a85a76654",
            "hex": "483045022100f5788aab19b1c643343ccef730201571ffff620d44a21a9fe6223b6f22509d8302206090b64e739414e8a613f131284846ab0505115de3260a590cc9f5876783b22b012103e2684f38c014573ed71f8f9f8bdabf59b30c620de891c932189dd23a85a76654"
          },
          "sequence": 4294967294
        }, 
        {
          "txid": "1ed290be1fa94eb1c3525caa4357e60f7f92bb2a41a632873f91d4ca41c5d4ab",
          "vout": 1,
          "scriptSig": {
            "asm": "30440220531f8d3bf595b59c93a23e66c49b0718374b79b2a06e7223575dd99a6842ad72022012c6e0f517b82d4a649c23949ecb91df6dfd4f4173212f5ff2f4023e2fff3ba6[ALL] 02032fa0ab2ab8148b8d65149016d23ba51cfa0a911f8d56bb7ae64b9aa429383d",
            "hex": "4730440220531f8d3bf595b59c93a23e66c49b0718374b79b2a06e7223575dd99a6842ad72022012c6e0f517b82d4a649c23949ecb91df6dfd4f4173212f5ff2f4023e2fff3ba6012102032fa0ab2ab8148b8d65149016d23ba51cfa0a911f8d56bb7ae64b9aa429383d"
          },
          "sequence": 4294967294
        }
      ],
      "vout": [
        {
          "value": 1.99700000,
          "n": 0,
          "scriptPubKey": {
            "asm": "OP_DUP OP_HASH160 d015bf8283afbafdb3f5b8e5aa070d5c83a0df36 OP_EQUALVERIFY OP_CHECKSIG",
            "hex": "76a914d015bf8283afbafdb3f5b8e5aa070d5c83a0df3688ac",
            "reqSigs": 1,
            "type": "pubkeyhash",
            "addresses": [
              "LeCCsCPcbSoTDeRCrR1tdUxTDjJk8fYasH"
            ]
          }
        }, 
        {
          "value": 0.01000126,
          "n": 1,
          "scriptPubKey": {
            "asm": "OP_DUP OP_HASH160 83611475e3e55e42ca409c399c527c90ffb2d970 OP_EQUALVERIFY OP_CHECKSIG",
            "hex": "76a91483611475e3e55e42ca409c399c527c90ffb2d97088ac",
            "reqSigs": 1,
            "type": "pubkeyhash",
            "addresses": [
              "LXCd5aFj9RzyqJseJTm4cz6kCf5BWKGmL9"
            ]
          }
        }
      ],
      "hex": "0100000002e05e0e1d867758e374d3e2eaea089c120ce7f775b40ed9714af41b3b7f6fa5d2620600006b483045022100f5788aab19b1c643343ccef730201571ffff620d44a21a9fe6223b6f22509d8302206090b64e739414e8a613f131284846ab0505115de3260a590cc9f5876783b22b012103e2684f38c014573ed71f8f9f8bdabf59b30c620de891c932189dd23a85a76654feffffffabd4c541cad4913f8732a6412abb927f0fe65743aa5c52c3b14ea91fbe90d21e010000006a4730440220531f8d3bf595b59c93a23e66c49b0718374b79b2a06e7223575dd99a6842ad72022012c6e0f517b82d4a649c23949ecb91df6dfd4f4173212f5ff2f4023e2fff3ba6012102032fa0ab2ab8148b8d65149016d23ba51cfa0a911f8d56bb7ae64b9aa429383dfeffffff02202ee70b000000001976a914d015bf8283afbafdb3f5b8e5aa070d5c83a0df3688acbe420f00000000001976a91483611475e3e55e42ca409c399c527c90ffb2d97088ace7be1400"
    }
  ],
  "time": 1517304667,
  "mediantime": 1517304129,
  "nonce": 3310096569,
  "bits": "1a042eae",
  "difficulty": 4011378.762614286,
  "chainwork": "000000000000000000000000000000000000000000000034268f0127e006a356",
  "previousblockhash": "a4697e800368d440be5ed3126f37cf832bf57bf74cd5767bd1f5c26384526772",
  "nextblockhash": "b170515be4496882f8dfa91f5741e2d1d206c48bd8996d30c64059a8a05abd10"
}
