{
  "hash": "14e2cab0122221f54f11cdc52d5e887c630b6b99cb567eca0ad23f4ba43634a4",
  "confirmations": 3138,
  "strippedsize": 253,
  "size": 253,
  "weight": 1012,
  "height": 1357857,
  "version": 536870912,
  "versionHex": "20000000",
  "merkleroot": "941df3c6d9939313f1c1385257081b883ee2e9878eb4e8fdadf922d4a552544d",
  "tx": [
    {
      "txid": "941df3c6d9939313f1c1385257081b883ee2e9878eb4e8fdadf922d4a552544d",
      "hash": "941df3c6d9939313f1c1385257081b883ee2e9878eb4e8fdadf922d4a552544d",
      "version": 1,
      "size": 172,
      "vsize": 172,
      "locktime": 0,
      "vin": [
        {
          "coinbase": "0321b8141a4d696e656420627920416e74506f6f6c20626a3532205a6c7645fabe6d6dc5d8b364a3813c5186b7dac17685ce917cbe6773c975db4287b73e671e2bb9570400000000000000001f0000000000003333f3d0",
          "sequence": 4294967295
        }
      ],
      "vout": [
        {
          "value": 25.00000000,
          "n": 0,
          "scriptPubKey": {
            "asm": "OP_DUP OP_HASH160 0ff3ccc5e8be88afe24b5d634e5852d474dbdff1 OP_EQUALVERIFY OP_CHECKSIG",
            "hex": "76a9140ff3ccc5e8be88afe24b5d634e5852d474dbdff188ac",
            "reqSigs": 1,
            "type": "pubkeyhash",
            "addresses": [
              "LLgJTbzZMsRTCUF1NtvvL9SR1a4pVieW89"
            ]
          }
        }
      ],
      "hex": "01000000010000000000000000000000000000000000000000000000000000000000000000ffffffff570321b8141a4d696e656420627920416e74506f6f6c20626a3532205a6c7645fabe6d6dc5d8b364a3813c5186b7dac17685ce917cbe6773c975db4287b73e671e2bb9570400000000000000001f0000000000003333f3d0ffffffff0100f90295000000001976a9140ff3ccc5e8be88afe24b5d634e5852d474dbdff188ac00000000"
    }
  ],
  "time": 1517057605,
  "mediantime": 1517056728,
  "nonce": 869533799,
  "bits": "1a047f14",
  "difficulty": 3731199.183374282,
  "chainwork": "00000000000000000000000000000000000000000000003296b49fb135a93e74",
  "previousblockhash": "9013ffdb0c11d1e7427632ece2028f7f815fc69ffcc3cf613c61cd0f190c81db",
  "nextblockhash": "f96712914332d4844536e954991f6b3cf74064356471d660aa6606b3e179a013"
}
