{
  "hash": "1570f2ce9ca08d20ad54435f9bfe3d5f8bd6672c6da6d8388405aba3d7c4b014",
  "confirmations": 292,
  "strippedsize": 255,
  "size": 255,
  "weight": 1020,
  "height": 1360702,
  "version": 536870912,
  "versionHex": "20000000",
  "merkleroot": "3d127ed8a2bc172027a7c4b01778d70cec083904a043b19dddefb4d31b125068",
  "tx": [
    {
      "txid": "3d127ed8a2bc172027a7c4b01778d70cec083904a043b19dddefb4d31b125068",
      "hash": "3d127ed8a2bc172027a7c4b01778d70cec083904a043b19dddefb4d31b125068",
      "version": 1,
      "size": 174,
      "vsize": 174,
      "locktime": 0,
      "vin": [
        {
          "coinbase": "033ec3141c4d696e656420627920416e74506f6f6c20626a3532205a72bb0d0d1efabe6d6dbcdce696fb62f93a1397be634cdf4daa18de3561361d775b696492b47928ac7d0400000000000000e90f0000000000000e000000",
          "sequence": 4294967295
        }
      ],
      "vout": [
        {
          "value": 25.00000000,
          "n": 0,
          "scriptPubKey": {
            "asm": "OP_DUP OP_HASH160 0ff3ccc5e8be88afe24b5d634e5852d474dbdff1 OP_EQUALVERIFY OP_CHECKSIG",
            "hex": "76a9140ff3ccc5e8be88afe24b5d634e5852d474dbdff188ac",
            "reqSigs": 1,
            "type": "pubkeyhash",
            "addresses": [
              "LLgJTbzZMsRTCUF1NtvvL9SR1a4pVieW89"
            ]
          }
        }
      ],
      "hex": "01000000010000000000000000000000000000000000000000000000000000000000000000ffffffff59033ec3141c4d696e656420627920416e74506f6f6c20626a3532205a72bb0d0d1efabe6d6dbcdce696fb62f93a1397be634cdf4daa18de3561361d775b696492b47928ac7d0400000000000000e90f0000000000000e000000ffffffff0100f90295000000001976a9140ff3ccc5e8be88afe24b5d634e5852d474dbdff188ac00000000"
    }
  ],
  "time": 1517468429,
  "mediantime": 1517467906,
  "nonce": 3295671897,
  "bits": "1a042eae",
  "difficulty": 4011378.762614286,
  "chainwork": "0000000000000000000000000000000000000000000000352f7b5ec937ac49fe",
  "previousblockhash": "4fcd8def23aa638f0c08c427e18dcfe5f678b00f12fe7ac32158a7291bd2edf2",
  "nextblockhash": "122b19cbc5c2fdd7d50bd556e20654314fcb9f3fba7a8902aa1f9eab2b10ac36"
}
