{
  "hash": "15a040c103ade456274775cfc3329e0f5d970ee20cbd6285d07a1590375c751e",
  "confirmations": 3096,
  "strippedsize": 4222,
  "size": 4480,
  "weight": 17146,
  "height": 1357899,
  "version": 536870912,
  "versionHex": "20000000",
  "merkleroot": "156473b3fffabe61057f300e07bc286cf105ed241fad9bd1dc2d581ef7916f9c",
  "tx": [
    {
      "txid": "3c19f865bf5d42fa5dc7e05a3c7836e0efed2bc7a2404f6e74a7a355968ec9c3",
      "hash": "fc58b0de10177f66e71b0a8a8cc88ccf4b019ba057bcb64d4137b79bf8675398",
      "version": 1,
      "size": 236,
      "vsize": 209,
      "locktime": 0,
      "vin": [
        {
          "coinbase": "034bb814045a6c89bd2cfabe6d6dafd164f68f44d1c5f1fb219d5dd0f49c3ceb7b493bbecda20cdf1920988c00b24000000000000000042f4c502f08220092d81c000000",
          "sequence": 4294967295
        }
      ],
      "vout": [
        {
          "value": 25.00603239,
          "n": 0,
          "scriptPubKey": {
            "asm": "OP_DUP OP_HASH160 57757ed2ecf2052ff3126c397aca7defb9ca2cec OP_EQUALVERIFY OP_CHECKSIG",
            "hex": "76a91457757ed2ecf2052ff3126c397aca7defb9ca2cec88ac",
            "reqSigs": 1,
            "type": "pubkeyhash",
            "addresses": [
              "LTCPodGk5FwcJaRzH9yKnwicxzFUbxp6tN"
            ]
          }
        }, 
        {
          "value": 0.00000000,
          "n": 1,
          "scriptPubKey": {
            "asm": "OP_RETURN aa21a9eda380c91e307ab9173f7a9ac3a74c0764b528bc000321ca11fbeebe22dad7a424",
            "hex": "6a24aa21a9eda380c91e307ab9173f7a9ac3a74c0764b528bc000321ca11fbeebe22dad7a424",
            "type": "nulldata"
          }
        }
      ],
      "hex": "010000000001010000000000000000000000000000000000000000000000000000000000000000ffffffff44034bb814045a6c89bd2cfabe6d6dafd164f68f44d1c5f1fb219d5dd0f49c3ceb7b493bbecda20cdf1920988c00b24000000000000000042f4c502f08220092d81c000000ffffffff02672d0c95000000001976a91457757ed2ecf2052ff3126c397aca7defb9ca2cec88ac0000000000000000266a24aa21a9eda380c91e307ab9173f7a9ac3a74c0764b528bc000321ca11fbeebe22dad7a4240120000000000000000000000000000000000000000000000000000000000000000000000000"
    }, 
    {
      "txid": "7b2a919ab23399a338f0c5cf37fc9ce703f4118bc4e849b092888e0b85cb5c3f",
      "hash": "7b2a919ab23399a338f0c5cf37fc9ce703f4118bc4e849b092888e0b85cb5c3f",
      "version": 1,
      "size": 226,
      "vsize": 226,
      "locktime": 0,
      "vin": [
        {
          "txid": "130a51f10e1369b9f0464b52120b5e15cdd109baf0e755f72069be4bed71c5ee",
          "vout": 1,
          "scriptSig": {
            "asm": "3045022100a80bc42f98267736d9494b038c718ab2178ee8b23500ff7c5b317c8c8c8beaf10220452b1a96db3888ee335e29a248c1ec9dd3ebf930e9e8c0f214f442ef49af6613[ALL] 02c725acaaac1cadd2d1c173007bb389066020f8d22f353999996388b68f49887a",
            "hex": "483045022100a80bc42f98267736d9494b038c718ab2178ee8b23500ff7c5b317c8c8c8beaf10220452b1a96db3888ee335e29a248c1ec9dd3ebf930e9e8c0f214f442ef49af6613012102c725acaaac1cadd2d1c173007bb389066020f8d22f353999996388b68f49887a"
          },
          "sequence": 4294967295
        }
      ],
      "vout": [
        {
          "value": 9.99900000,
          "n": 0,
          "scriptPubKey": {
            "asm": "OP_DUP OP_HASH160 d5d0551f24ab0d5f5d04fca80d0bff983d923e03 OP_EQUALVERIFY OP_CHECKSIG",
            "hex": "76a914d5d0551f24ab0d5f5d04fca80d0bff983d923e0388ac",
            "reqSigs": 1,
            "type": "pubkeyhash",
            "addresses": [
              "LeiVmGZsTqmcMB7hSy97jgzyqZwJQkYxhV"
            ]
          }
        }, 
        {
          "value": 24.00216076,
          "n": 1,
          "scriptPubKey": {
            "asm": "OP_DUP OP_HASH160 01eda457d3d791dfad3409265b1ecf2fea94220f OP_EQUALVERIFY OP_CHECKSIG",
            "hex": "76a91401eda457d3d791dfad3409265b1ecf2fea94220f88ac",
            "reqSigs": 1,
            "type": "pubkeyhash",
            "addresses": [
              "LKQ9d4KXyRb7g6t8bjiUex8dFaRaAed8Nn"
            ]
          }
        }
      ],
      "hex": "0100000001eec571ed4bbe6920f755e7f0ba09d1cd155e0b12524b46f0b969130ef1510a13010000006b483045022100a80bc42f98267736d9494b038c718ab2178ee8b23500ff7c5b317c8c8c8beaf10220452b1a96db3888ee335e29a248c1ec9dd3ebf930e9e8c0f214f442ef49af6613012102c725acaaac1cadd2d1c173007bb389066020f8d22f353999996388b68f49887affffffff026043993b000000001976a914d5d0551f24ab0d5f5d04fca80d0bff983d923e0388ac0c64108f000000001976a91401eda457d3d791dfad3409265b1ecf2fea94220f88ac00000000"
    }, 
    {
      "txid": "08e93d667ae62935a63178079734fcf0d082b1c3cbe41461d6e086a52f9f9f5c",
      "hash": "08e93d667ae62935a63178079734fcf0d082b1c3cbe41461d6e086a52f9f9f5c",
      "version": 2,
      "size": 225,
      "vsize": 225,
      "locktime": 1357897,
      "vin": [
        {
          "txid": "877f393ccd70d691466187ecc7a9b5ad50e3eca41014db73fda067d3293669d7",
          "vout": 0,
          "scriptSig": {
            "asm": "3044022043a9fb94d3c70651e87bcf65d7a4e760f9d25368306164e82cfd1b6dbae9d3a80220704e1bfbcef5f4484b2767d0cd132891ebecd521aec071c33ee5814c59e13a19[ALL] 020926b5293c5463a687e55e6a5b2b64bf313ada7fc7ee2ed923feb35b3550a126",
            "hex": "473044022043a9fb94d3c70651e87bcf65d7a4e760f9d25368306164e82cfd1b6dbae9d3a80220704e1bfbcef5f4484b2767d0cd132891ebecd521aec071c33ee5814c59e13a190121020926b5293c5463a687e55e6a5b2b64bf313ada7fc7ee2ed923feb35b3550a126"
          },
          "sequence": 4294967294
        }
      ],
      "vout": [
        {
          "value": 13.41900340,
          "n": 0,
          "scriptPubKey": {
            "asm": "OP_DUP OP_HASH160 05ac98a450bf07792e7afb4cd17702c110e9d3be OP_EQUALVERIFY OP_CHECKSIG",
            "hex": "76a91405ac98a450bf07792e7afb4cd17702c110e9d3be88ac",
            "reqSigs": 1,
            "type": "pubkeyhash",
            "addresses": [
              "LKjxQNS8gXd9Rr9SoGjHjvw4i1cdqAtzKo"
            ]
          }
        }, 
        {
          "value": 1.50000000,
          "n": 1,
          "scriptPubKey": {
            "asm": "OP_DUP OP_HASH160 72361f21accef0fc287233f486b1c499b2bc74b2 OP_EQUALVERIFY OP_CHECKSIG",
            "hex": "76a91472361f21accef0fc287233f486b1c499b2bc74b288ac",
            "reqSigs": 1,
            "type": "pubkeyhash",
            "addresses": [
              "LVdr8Ww7HjJB3ABMycr2C8qYLTejmbpRMY"
            ]
          }
        }
      ],
      "hex": "0200000001d7693629d367a0fd73db1410a4ece350adb5a9c7ec87614691d670cd3c397f87000000006a473044022043a9fb94d3c70651e87bcf65d7a4e760f9d25368306164e82cfd1b6dbae9d3a80220704e1bfbcef5f4484b2767d0cd132891ebecd521aec071c33ee5814c59e13a190121020926b5293c5463a687e55e6a5b2b64bf313ada7fc7ee2ed923feb35b3550a126feffffff0234c6fb4f000000001976a91405ac98a450bf07792e7afb4cd17702c110e9d3be88ac80d1f008000000001976a91472361f21accef0fc287233f486b1c499b2bc74b288ac49b81400"
    }, 
    {
      "txid": "cb69976002c87cb280ca065b10b31841d68ee165c7b9f7da1604f9a69fb5c8c8",
      "hash": "753bc4ced25d9626a93d3da2a6b8c84dd11e369a6c8f664d3987375961928f66",
      "version": 1,
      "size": 374,
      "vsize": 208,
      "locktime": 0,
      "vin": [
        {
          "txid": "cd02da1f6bb186d9ae46a7638072c2902eaeac311c2278b0bd917efa042bf851",
          "vout": 1,
          "scriptSig": {
            "asm": "0020dd805e3172518da773191027634605533e4c22c544e720e267d12fcc4625f154",
            "hex": "220020dd805e3172518da773191027634605533e4c22c544e720e267d12fcc4625f154"
          },
          "txinwitness": [
            "", 
            "304502210084151ac7041bd5bb3a8d245b843334a0e1a656f47aaab56773797e66a60d35e602205a6df5bfda45320da5d33130d75839e209e6b9c0554e10f3f7344314fcffe0a301", 
            "304502210083c06515cdf1eb43d99c3dad3f7f97e01e572bcf2a54f00508e5dceb1261d9d402202327dc23bd9f2b65d626e30f4e4e33a33742db284fbe9035e058ce9b961c787401", 
            "52210284cea85fee1d5cba7176798de7b01cc60e8e822fbe040bd0fa382586e162827021020f2fea6018ec3a73e671484acfea91e6c59b61c3519137ab9d138c3a87c1a5cb52ae"
          ],
          "sequence": 4294967295
        }
      ],
      "vout": [
        {
          "value": 0.04354800,
          "n": 0,
          "scriptPubKey": {
            "asm": "OP_DUP OP_HASH160 b0b4175771017f634699e3863597d338c1155349 OP_EQUALVERIFY OP_CHECKSIG",
            "hex": "76a914b0b4175771017f634699e3863597d338c115534988ac",
            "reqSigs": 1,
            "type": "pubkeyhash",
            "addresses": [
              "LbLGvvsN8CrLSHZGzcpuzvJpDy1a8XeYE5"
            ]
          }
        }, 
        {
          "value": 14.00534500,
          "n": 1,
          "scriptPubKey": {
            "asm": "OP_HASH160 40d2c0d157d69ff521aed7d58ef0fc375e8070dd OP_EQUAL",
            "hex": "a91440d2c0d157d69ff521aed7d58ef0fc375e8070dd87",
            "reqSigs": 1,
            "type": "scripthash",
            "addresses": [
              "MDoux6XAtwMPWNJmwjxZ4FFoRSyL8VbfcU"
            ]
          }
        }
      ],
      "hex": "0100000000010151f82b04fa7e91bdb078221c31acae2e90c2728063a746aed986b16b1fda02cd0100000023220020dd805e3172518da773191027634605533e4c22c544e720e267d12fcc4625f154ffffffff02f0724200000000001976a914b0b4175771017f634699e3863597d338c115534988ace4757a530000000017a91440d2c0d157d69ff521aed7d58ef0fc375e8070dd87040048304502210084151ac7041bd5bb3a8d245b843334a0e1a656f47aaab56773797e66a60d35e602205a6df5bfda45320da5d33130d75839e209e6b9c0554e10f3f7344314fcffe0a30148304502210083c06515cdf1eb43d99c3dad3f7f97e01e572bcf2a54f00508e5dceb1261d9d402202327dc23bd9f2b65d626e30f4e4e33a33742db284fbe9035e058ce9b961c7874014752210284cea85fee1d5cba7176798de7b01cc60e8e822fbe040bd0fa382586e162827021020f2fea6018ec3a73e671484acfea91e6c59b61c3519137ab9d138c3a87c1a5cb52ae00000000"
    }, 
    {
      "txid": "c6f9945041e8ee5a7d2e54640b7c6b1c3d909f03f5ae2fec769e2d566a3e7e32",
      "hash": "c6f9945041e8ee5a7d2e54640b7c6b1c3d909f03f5ae2fec769e2d566a3e7e32",
      "version": 1,
      "size": 670,
      "vsize": 670,
      "locktime": 0,
      "vin": [
        {
          "txid": "6b0dedc905c444cd276c134e412e43d2da1c60356115fe019488814b813d362f",
          "vout": 10,
          "scriptSig": {
            "asm": "3045022100c3ecca0865e99f175dd39ff016b184952a735217b2515e67e2d9a4c4be91d1d702201cc4328a183b6d1222da12ca07f035f979c301744b7759a475740e4e6a2249aa[ALL] 034f9a9fed25383cf8112d8e7d7bb75a84c908e7d3d1f47886af5cba8d57c64b6e",
            "hex": "483045022100c3ecca0865e99f175dd39ff016b184952a735217b2515e67e2d9a4c4be91d1d702201cc4328a183b6d1222da12ca07f035f979c301744b7759a475740e4e6a2249aa0121034f9a9fed25383cf8112d8e7d7bb75a84c908e7d3d1f47886af5cba8d57c64b6e"
          },
          "sequence": 4294967295
        }, 
        {
          "txid": "49e9654f964f4f21204e60a067b6d26dda0d506e070f33de9925d0d72b35d65f",
          "vout": 1,
          "scriptSig": {
            "asm": "3045022100af85380878c11189d83680615c8a6d7931869fa5851c260c094977240f52b32402205785d21f2dd82acc223dd00bf5846e47ff65d081b9d21b59c6ed14b597e5a4d0[ALL] 0246469b548c5b9c0dbe22f20cb33c10c6c83035ac5d49869cb815189178ad23db",
            "hex": "483045022100af85380878c11189d83680615c8a6d7931869fa5851c260c094977240f52b32402205785d21f2dd82acc223dd00bf5846e47ff65d081b9d21b59c6ed14b597e5a4d001210246469b548c5b9c0dbe22f20cb33c10c6c83035ac5d49869cb815189178ad23db"
          },
          "sequence": 4294967295
        }, 
        {
          "txid": "077991ff95674b426f07941bd4e317099ff6b9cf387c1b6e5209a99b296d0b2f",
          "vout": 1,
          "scriptSig": {
            "asm": "3045022100ab2e29747c446461849be8f3df9b3ae0e6ce911ecfacc7c9969bcdd1501240ce022033bad18a6c29dff07bc1547a15ac147dd882c3c5ac9e8871a781a4e1a6d080d7[ALL] 027c38990291494232863ad1ead3a653e26981f9a370b44cf0fa6479800a443335",
            "hex": "483045022100ab2e29747c446461849be8f3df9b3ae0e6ce911ecfacc7c9969bcdd1501240ce022033bad18a6c29dff07bc1547a15ac147dd882c3c5ac9e8871a781a4e1a6d080d70121027c38990291494232863ad1ead3a653e26981f9a370b44cf0fa6479800a443335"
          },
          "sequence": 4294967295
        }, 
        {
          "txid": "bcd2770c3e965347afa833b6cef053b7f0c55d63ffbe1ed5fe08bccfee5ae6f6",
          "vout": 3,
          "scriptSig": {
            "asm": "3045022100807a7ec4921920c48f480eb4d98f7128f3631d4e8a321c681572c7a1e624512e02205502aacbd1c5e65033332afd217fdc0a9e872591b3aa6757b66d49a6dd3f6a7d[ALL] 0328c9ae635abf580c261c44815dc1aac309e16ff26250525b7e99951369d2b8c7",
            "hex": "483045022100807a7ec4921920c48f480eb4d98f7128f3631d4e8a321c681572c7a1e624512e02205502aacbd1c5e65033332afd217fdc0a9e872591b3aa6757b66d49a6dd3f6a7d01210328c9ae635abf580c261c44815dc1aac309e16ff26250525b7e99951369d2b8c7"
          },
          "sequence": 4294967295
        }
      ],
      "vout": [
        {
          "value": 0.99723311,
          "n": 0,
          "scriptPubKey": {
            "asm": "OP_DUP OP_HASH160 146846c5c233009d8305d72be9d7988da8a62e36 OP_EQUALVERIFY OP_CHECKSIG",
            "hex": "76a914146846c5c233009d8305d72be9d7988da8a62e3688ac",
            "reqSigs": 1,
            "type": "pubkeyhash",
            "addresses": [
              "LM5rhJdPTCZCtvFSmKRBuovTGH5WfnzyNu"
            ]
          }
        }, 
        {
          "value": 6.23579680,
          "n": 1,
          "scriptPubKey": {
            "asm": "OP_DUP OP_HASH160 c6e3836c2f4cd8f9c53e32813ded99ac0ce001f1 OP_EQUALVERIFY OP_CHECKSIG",
            "hex": "76a914c6e3836c2f4cd8f9c53e32813ded99ac0ce001f188ac",
            "reqSigs": 1,
            "type": "pubkeyhash",
            "addresses": [
              "LdMac6qdwFnBCVXN96dvoPjzbcE36gzs64"
            ]
          }
        }
      ],
      "hex": "01000000042f363d814b81889401fe156135601cdad2432e414e136c27cd44c405c9ed0d6b0a0000006b483045022100c3ecca0865e99f175dd39ff016b184952a735217b2515e67e2d9a4c4be91d1d702201cc4328a183b6d1222da12ca07f035f979c301744b7759a475740e4e6a2249aa0121034f9a9fed25383cf8112d8e7d7bb75a84c908e7d3d1f47886af5cba8d57c64b6effffffff5fd6352bd7d02599de330f076e500dda6dd2b667a0604e20214f4f964f65e949010000006b483045022100af85380878c11189d83680615c8a6d7931869fa5851c260c094977240f52b32402205785d21f2dd82acc223dd00bf5846e47ff65d081b9d21b59c6ed14b597e5a4d001210246469b548c5b9c0dbe22f20cb33c10c6c83035ac5d49869cb815189178ad23dbffffffff2f0b6d299ba909526e1b7c38cfb9f69f0917e3d41b94076f424b6795ff917907010000006b483045022100ab2e29747c446461849be8f3df9b3ae0e6ce911ecfacc7c9969bcdd1501240ce022033bad18a6c29dff07bc1547a15ac147dd882c3c5ac9e8871a781a4e1a6d080d70121027c38990291494232863ad1ead3a653e26981f9a370b44cf0fa6479800a443335fffffffff6e65aeecfbc08fed51ebeff635dc5f0b753f0ceb633a8af4753963e0c77d2bc030000006b483045022100807a7ec4921920c48f480eb4d98f7128f3631d4e8a321c681572c7a1e624512e02205502aacbd1c5e65033332afd217fdc0a9e872591b3aa6757b66d49a6dd3f6a7d01210328c9ae635abf580c261c44815dc1aac309e16ff26250525b7e99951369d2b8c7ffffffff022fa8f105000000001976a914146846c5c233009d8305d72be9d7988da8a62e3688ac20122b25000000001976a914c6e3836c2f4cd8f9c53e32813ded99ac0ce001f188ac00000000"
    }, 
    {
      "txid": "6cdce63371397cf1b2a208b5036f71e47f9b03a897c4301ef25050b3d302604d",
      "hash": "6cdce63371397cf1b2a208b5036f71e47f9b03a897c4301ef25050b3d302604d",
      "version": 1,
      "size": 224,
      "vsize": 224,
      "locktime": 1357896,
      "vin": [
        {
          "txid": "916288dc93623e2286fb879a0531205fb116065371993963645ff7163a201840",
          "vout": 0,
          "scriptSig": {
            "asm": "3045022100b42bd69dd4bc79ae738bb3c92fa9208030e129f05e3a85b51b24cf76b656a6fb02200db9abb689a38e8d4b786194e406d5da59e008142db7d903598a7b7953f377f1[ALL] 03fc35cc71e00c666fab168bc4b815c546dbf2608b0dd2ee895886146f6d8f6037",
            "hex": "483045022100b42bd69dd4bc79ae738bb3c92fa9208030e129f05e3a85b51b24cf76b656a6fb02200db9abb689a38e8d4b786194e406d5da59e008142db7d903598a7b7953f377f1012103fc35cc71e00c666fab168bc4b815c546dbf2608b0dd2ee895886146f6d8f6037"
          },
          "sequence": 4294967294
        }
      ],
      "vout": [
        {
          "value": 25.99375360,
          "n": 0,
          "scriptPubKey": {
            "asm": "OP_DUP OP_HASH160 56754e9ba7f4dbf657ec04444b31528ef5203f81 OP_EQUALVERIFY OP_CHECKSIG",
            "hex": "76a91456754e9ba7f4dbf657ec04444b31528ef5203f8188ac",
            "reqSigs": 1,
            "type": "pubkeyhash",
            "addresses": [
              "LT76uM92bsbpQZSAKwVQFKKwRxfcwRDpeB"
            ]
          }
        }, 
        {
          "value": 19.00000000,
          "n": 1,
          "scriptPubKey": {
            "asm": "OP_HASH160 3f4eecba122ad73039d481c8d37f99cb4f887cd8 OP_EQUAL",
            "hex": "a9143f4eecba122ad73039d481c8d37f99cb4f887cd887",
            "reqSigs": 1,
            "type": "scripthash",
            "addresses": [
              "MDfuMJQ6X3sv7MyYaMgWfrRD9mit96nSLF"
            ]
          }
        }
      ],
      "hex": "01000000014018203a16f75f6463399971530616b15f2031059a87fb86223e6293dc886291000000006b483045022100b42bd69dd4bc79ae738bb3c92fa9208030e129f05e3a85b51b24cf76b656a6fb02200db9abb689a38e8d4b786194e406d5da59e008142db7d903598a7b7953f377f1012103fc35cc71e00c666fab168bc4b815c546dbf2608b0dd2ee895886146f6d8f6037feffffff020052ef9a000000001976a91456754e9ba7f4dbf657ec04444b31528ef5203f8188ac00b33f710000000017a9143f4eecba122ad73039d481c8d37f99cb4f887cd88748b81400"
    }, 
    {
      "txid": "bbb6dcf9c50136e25ca6aa419ae96ea2dfcd1a86fd129ca093d7f5dfde93d5f3",
      "hash": "bbb6dcf9c50136e25ca6aa419ae96ea2dfcd1a86fd129ca093d7f5dfde93d5f3",
      "version": 2,
      "size": 370,
      "vsize": 370,
      "locktime": 1357896,
      "vin": [
        {
          "txid": "c5f93bfccbdb6bec1176a1fe81a3a54131339b0eab73f9e2af04725ea7494336",
          "vout": 0,
          "scriptSig": {
            "asm": "30440220568e1f2aac274d72ca66df26f8ac86bc52109508d36e67236f96bf583602538002206535952bb06fb82d9e25f0dca408786776fdce090946e247add6fe6e2559835a[ALL] 022346bc47d8d31548d095fe055b025c8bc6a2d918adb46cd7f1d2e4742eee04d4",
            "hex": "4730440220568e1f2aac274d72ca66df26f8ac86bc52109508d36e67236f96bf583602538002206535952bb06fb82d9e25f0dca408786776fdce090946e247add6fe6e2559835a0121022346bc47d8d31548d095fe055b025c8bc6a2d918adb46cd7f1d2e4742eee04d4"
          },
          "sequence": 4294967294
        }, 
        {
          "txid": "41e7193fcb85302a5cd7c04e9f6c8174164bb6853ea968c776471e0d554bf850",
          "vout": 1,
          "scriptSig": {
            "asm": "304402206d2909b3c6dbb9da4292c6028c1d09362c4f20537b953293b13a398e90d4a6610220362a2628bc0011bca3fae3d9619dbc906859201b6c3a70e4008f25d7ff37424f[ALL] 03d4b788c73cf1f1e96e027ed0adda11269189d2c4296c060c8b78c9d459209cb9",
            "hex": "47304402206d2909b3c6dbb9da4292c6028c1d09362c4f20537b953293b13a398e90d4a6610220362a2628bc0011bca3fae3d9619dbc906859201b6c3a70e4008f25d7ff37424f012103d4b788c73cf1f1e96e027ed0adda11269189d2c4296c060c8b78c9d459209cb9"
          },
          "sequence": 4294967294
        }
      ],
      "vout": [
        {
          "value": 2.70266860,
          "n": 0,
          "scriptPubKey": {
            "asm": "OP_DUP OP_HASH160 e480ae313f15765765ec8b2012c1957b8955b46e OP_EQUALVERIFY OP_CHECKSIG",
            "hex": "76a914e480ae313f15765765ec8b2012c1957b8955b46e88ac",
            "reqSigs": 1,
            "type": "pubkeyhash",
            "addresses": [
              "Lg4AUpkA67JqtjFoAaq6UGdyLLN6r8yQpt"
            ]
          }
        }, 
        {
          "value": 7.48284385,
          "n": 1,
          "scriptPubKey": {
            "asm": "OP_HASH160 88a36acedd3b973aa2d973326f55bd7c94b1783e OP_EQUAL",
            "hex": "a91488a36acedd3b973aa2d973326f55bd7c94b1783e87",
            "reqSigs": 1,
            "type": "scripthash",
            "addresses": [
              "MLMdtwrUP4M9SkNB7WyV6SbiMpGmSHYGbJ"
            ]
          }
        }
      ],
      "hex": "0200000002364349a75e7204afe2f973ab0e9b333141a5a381fea17611ec6bdbcbfc3bf9c5000000006a4730440220568e1f2aac274d72ca66df26f8ac86bc52109508d36e67236f96bf583602538002206535952bb06fb82d9e25f0dca408786776fdce090946e247add6fe6e2559835a0121022346bc47d8d31548d095fe055b025c8bc6a2d918adb46cd7f1d2e4742eee04d4feffffff50f84b550d1e4776c768a93e85b64b1674816c9f4ec0d75c2a3085cb3f19e741010000006a47304402206d2909b3c6dbb9da4292c6028c1d09362c4f20537b953293b13a398e90d4a6610220362a2628bc0011bca3fae3d9619dbc906859201b6c3a70e4008f25d7ff37424f012103d4b788c73cf1f1e96e027ed0adda11269189d2c4296c060c8b78c9d459209cb9feffffff02ecf11b10000000001976a914e480ae313f15765765ec8b2012c1957b8955b46e88ace1e9992c0000000017a91488a36acedd3b973aa2d973326f55bd7c94b1783e8748b81400"
    }, 
    {
      "txid": "6cf52756e9b0d9375bce22a00a258ab3d3a8ec29c047fe9b93bbe64d9b277e1e",
      "hash": "6cf52756e9b0d9375bce22a00a258ab3d3a8ec29c047fe9b93bbe64d9b277e1e",
      "version": 1,
      "size": 225,
      "vsize": 225,
      "locktime": 0,
      "vin": [
        {
          "txid": "667e4a6c78b290498508f556e8bbd1a7b60fbdd337580223fd2ea76aae2dfff2",
          "vout": 1,
          "scriptSig": {
            "asm": "3044022068e4ce823b11fe89df7295b5761b7e1083e7c657ab9e3f60a7bf9503c8164fe502201846a2e6ea50e391833bac1df14a9f7a474435a45f522233239e2b5a1ff77c2d[ALL] 0384c1e7562c922380b8ca078253bf4518e90ebe4384d8c9d58ab489af14ce5b7e",
            "hex": "473044022068e4ce823b11fe89df7295b5761b7e1083e7c657ab9e3f60a7bf9503c8164fe502201846a2e6ea50e391833bac1df14a9f7a474435a45f522233239e2b5a1ff77c2d01210384c1e7562c922380b8ca078253bf4518e90ebe4384d8c9d58ab489af14ce5b7e"
          },
          "sequence": 4294967295
        }
      ],
      "vout": [
        {
          "value": 0.04203000,
          "n": 0,
          "scriptPubKey": {
            "asm": "OP_DUP OP_HASH160 3e14af0932d52eae7754cea6341e54e1d9042b35 OP_EQUALVERIFY OP_CHECKSIG",
            "hex": "76a9143e14af0932d52eae7754cea6341e54e1d9042b3588ac",
            "reqSigs": 1,
            "type": "pubkeyhash",
            "addresses": [
              "LQtCwEjLVns4FuHPBcxRXrjLvZMy2efS7C"
            ]
          }
        }, 
        {
          "value": 0.00054900,
          "n": 1,
          "scriptPubKey": {
            "asm": "OP_DUP OP_HASH160 b416d65e618a6136506f45f53aef2c8e7ec03295 OP_EQUALVERIFY OP_CHECKSIG",
            "hex": "76a914b416d65e618a6136506f45f53aef2c8e7ec0329588ac",
            "reqSigs": 1,
            "type": "pubkeyhash",
            "addresses": [
              "LbeBFWcHQeQoK1WWos75GfJHNLFqzNyWfh"
            ]
          }
        }
      ],
      "hex": "0100000001f2ff2dae6aa72efd23025837d3bd0fb6a7d1bbe856f508854990b2786c4a7e66010000006a473044022068e4ce823b11fe89df7295b5761b7e1083e7c657ab9e3f60a7bf9503c8164fe502201846a2e6ea50e391833bac1df14a9f7a474435a45f522233239e2b5a1ff77c2d01210384c1e7562c922380b8ca078253bf4518e90ebe4384d8c9d58ab489af14ce5b7effffffff02f8214000000000001976a9143e14af0932d52eae7754cea6341e54e1d9042b3588ac74d60000000000001976a914b416d65e618a6136506f45f53aef2c8e7ec0329588ac00000000"
    }, 
    {
      "txid": "8d3d60caf2d06180d10ac46766c594836ae26369cbf0722affaa1b72f11e4233",
      "hash": "8d3d60caf2d06180d10ac46766c594836ae26369cbf0722affaa1b72f11e4233",
      "version": 2,
      "size": 225,
      "vsize": 225,
      "locktime": 1357819,
      "vin": [
        {
          "txid": "81459bb815f393e828ecc1371701608ac29cf6b762952c9b1df2a2a82ba24019",
          "vout": 0,
          "scriptSig": {
            "asm": "30440220645e5a475647f2375e0573b13fa4c7efc0001e259fdba8202d2fcdd6baad797f02203cdecdd6ceb501fdd7046611077a76fc54dd2a8a56e57b962e95b447610fe7a5[ALL] 02002513961c7c8253acb4a4d7fa5aebf39b510685a6f1fb05e7efb5cf14b63901",
            "hex": "4730440220645e5a475647f2375e0573b13fa4c7efc0001e259fdba8202d2fcdd6baad797f02203cdecdd6ceb501fdd7046611077a76fc54dd2a8a56e57b962e95b447610fe7a5012102002513961c7c8253acb4a4d7fa5aebf39b510685a6f1fb05e7efb5cf14b63901"
          },
          "sequence": 4294967294
        }
      ],
      "vout": [
        {
          "value": 0.27555841,
          "n": 0,
          "scriptPubKey": {
            "asm": "OP_DUP OP_HASH160 b7b7a2ad1f806d239bbedcd52ca05b888c0b5c6e OP_EQUALVERIFY OP_CHECKSIG",
            "hex": "76a914b7b7a2ad1f806d239bbedcd52ca05b888c0b5c6e88ac",
            "reqSigs": 1,
            "type": "pubkeyhash",
            "addresses": [
              "LbyMuXsKunHn4FiLb8M5GHp9w7GBfaWc1s"
            ]
          }
        }, 
        {
          "value": 0.01001559,
          "n": 1,
          "scriptPubKey": {
            "asm": "OP_DUP OP_HASH160 7a5236e8c577278c4425dc91733d6b39632a2aef OP_EQUALVERIFY OP_CHECKSIG",
            "hex": "76a9147a5236e8c577278c4425dc91733d6b39632a2aef88ac",
            "reqSigs": 1,
            "type": "pubkeyhash",
            "addresses": [
              "LWNjBykEbPximrB89DJEC3bA2sEbX8RnKE"
            ]
          }
        }
      ],
      "hex": "02000000011940a22ba8a2f21d9b2c9562b7f69cc28a60011737c1ec28e893f315b89b4581000000006a4730440220645e5a475647f2375e0573b13fa4c7efc0001e259fdba8202d2fcdd6baad797f02203cdecdd6ceb501fdd7046611077a76fc54dd2a8a56e57b962e95b447610fe7a5012102002513961c7c8253acb4a4d7fa5aebf39b510685a6f1fb05e7efb5cf14b63901feffffff020178a401000000001976a914b7b7a2ad1f806d239bbedcd52ca05b888c0b5c6e88ac57480f00000000001976a9147a5236e8c577278c4425dc91733d6b39632a2aef88acfbb71400"
    }, 
    {
      "txid": "eb0fcd7b44f202c1c056a7aa871ad911e7f31169da8357f3e93d2938a085cab8",
      "hash": "eb0fcd7b44f202c1c056a7aa871ad911e7f31169da8357f3e93d2938a085cab8",
      "version": 1,
      "size": 225,
      "vsize": 225,
      "locktime": 0,
      "vin": [
        {
          "txid": "da2d9822d8d4cd4ca9fc1d998decc1a0b24b97fdc367e5fc4c82a1a1500f584f",
          "vout": 1,
          "scriptSig": {
            "asm": "3044022048b9ba68fa9b89bb97519f1d4918de218abdd3aa1ad4757cb2c2fdf15b9e06c80220309e78faa55ba4cdec3451fab662ad06ea3f69adfa5d2f938fad2cb19e6de337[ALL] 03a5d6df7a3d125adeee8ea6dab902a769b4e0d3141f6ae57d943800911d93e5cc",
            "hex": "473044022048b9ba68fa9b89bb97519f1d4918de218abdd3aa1ad4757cb2c2fdf15b9e06c80220309e78faa55ba4cdec3451fab662ad06ea3f69adfa5d2f938fad2cb19e6de337012103a5d6df7a3d125adeee8ea6dab902a769b4e0d3141f6ae57d943800911d93e5cc"
          },
          "sequence": 4294967295
        }
      ],
      "vout": [
        {
          "value": 0.15590800,
          "n": 0,
          "scriptPubKey": {
            "asm": "OP_DUP OP_HASH160 bed83e7576a779f124106a62114ffcdbbb7dbfbf OP_EQUALVERIFY OP_CHECKSIG",
            "hex": "76a914bed83e7576a779f124106a62114ffcdbbb7dbfbf88ac",
            "reqSigs": 1,
            "type": "pubkeyhash",
            "addresses": [
              "Lcd3hZCMjpeGiZPymarnYbSVzBs3rZKahR"
            ]
          }
        }, 
        {
          "value": 0.99650000,
          "n": 1,
          "scriptPubKey": {
            "asm": "OP_DUP OP_HASH160 a0dec3f27fbb21572c75e246f69b3ce709dc6aeb OP_EQUALVERIFY OP_CHECKSIG",
            "hex": "76a914a0dec3f27fbb21572c75e246f69b3ce709dc6aeb88ac",
            "reqSigs": 1,
            "type": "pubkeyhash",
            "addresses": [
              "LZtZEvEDk6Ty4pCMTtKiCuJMzEPtihwrbP"
            ]
          }
        }
      ],
      "hex": "01000000014f580f50a1a1824cfce567c3fd974bb2a0c1ec8d991dfca94ccdd4d822982dda010000006a473044022048b9ba68fa9b89bb97519f1d4918de218abdd3aa1ad4757cb2c2fdf15b9e06c80220309e78faa55ba4cdec3451fab662ad06ea3f69adfa5d2f938fad2cb19e6de337012103a5d6df7a3d125adeee8ea6dab902a769b4e0d3141f6ae57d943800911d93e5ccffffffff0290e5ed00000000001976a914bed83e7576a779f124106a62114ffcdbbb7dbfbf88acd089f005000000001976a914a0dec3f27fbb21572c75e246f69b3ce709dc6aeb88ac00000000"
    }, 
    {
      "txid": "ce32f567d1470031fe14d492371c7ff1052f15fe83c6ee4e5cb35e27cb0333d3",
      "hash": "ce32f567d1470031fe14d492371c7ff1052f15fe83c6ee4e5cb35e27cb0333d3",
      "version": 2,
      "size": 529,
      "vsize": 529,
      "locktime": 1357897,
      "vin": [
        {
          "txid": "6b919fa4c6af0a24f87ed4a860b80c4d742183a21b60c9a54906368da3ac8128",
          "vout": 0,
          "scriptSig": {
            "asm": "304402203a70f5dad84b8f4d468806795287b6de3736fe2f4a4b1a84d7b55d8cdec5f55e0220778b0bb8bad91ec4f5dd22911a0622b00f1c7ef45412513016273bba588b6127[ALL] 031f4f4bb2a21175f10a5673a845ed0b15a0e3b1a61bbc9386b83023d2ec513bbe",
            "hex": "47304402203a70f5dad84b8f4d468806795287b6de3736fe2f4a4b1a84d7b55d8cdec5f55e0220778b0bb8bad91ec4f5dd22911a0622b00f1c7ef45412513016273bba588b61270121031f4f4bb2a21175f10a5673a845ed0b15a0e3b1a61bbc9386b83023d2ec513bbe"
          },
          "sequence": 4294967294
        }
      ],
      "vout": [
        {
          "value": 0.07044839,
          "n": 0,
          "scriptPubKey": {
            "asm": "OP_DUP OP_HASH160 9f34f4e8036b80c0dc4fb7cdb4d356bf533635fc OP_EQUALVERIFY OP_CHECKSIG",
            "hex": "76a9149f34f4e8036b80c0dc4fb7cdb4d356bf533635fc88ac",
            "reqSigs": 1,
            "type": "pubkeyhash",
            "addresses": [
              "LZjm9Czozc7j9NaGPEGzDyxyvwRiGPqLqD"
            ]
          }
        }, 
        {
          "value": 0.12758484,
          "n": 1,
          "scriptPubKey": {
            "asm": "OP_DUP OP_HASH160 6fc9e396eb5247cfb63f37d3a40d25b879c0efae OP_EQUALVERIFY OP_CHECKSIG",
            "hex": "76a9146fc9e396eb5247cfb63f37d3a40d25b879c0efae88ac",
            "reqSigs": 1,
            "type": "pubkeyhash",
            "addresses": [
              "LVR3812itfC4PoCuKGExsYZ7ap1M44trDW"
            ]
          }
        }, 
        {
          "value": 0.17713945,
          "n": 2,
          "scriptPubKey": {
            "asm": "OP_DUP OP_HASH160 8decabc8079397aa0062e22e3d171b1eae925f9c OP_EQUALVERIFY OP_CHECKSIG",
            "hex": "76a9148decabc8079397aa0062e22e3d171b1eae925f9c88ac",
            "reqSigs": 1,
            "type": "pubkeyhash",
            "addresses": [
              "LYAP4TAXaEAMY4zuE5WigaSRBVakC69MYa"
            ]
          }
        }, 
        {
          "value": 0.00817847,
          "n": 3,
          "scriptPubKey": {
            "asm": "OP_HASH160 f2a4726ddef3550be2dff9cd761b80fd346953fe OP_EQUAL",
            "hex": "a914f2a4726ddef3550be2dff9cd761b80fd346953fe87",
            "reqSigs": 1,
            "type": "scripthash",
            "addresses": [
              "MW28kq7EYhg9BjWrkyAFLcWrfiDonuAZmV"
            ]
          }
        }, 
        {
          "value": 0.02774045,
          "n": 4,
          "scriptPubKey": {
            "asm": "OP_DUP OP_HASH160 6d17316335d19d60d544e8884d8798e66fefdd35 OP_EQUALVERIFY OP_CHECKSIG",
            "hex": "76a9146d17316335d19d60d544e8884d8798e66fefdd3588ac",
            "reqSigs": 1,
            "type": "pubkeyhash",
            "addresses": [
              "LVAmhbTPLGWEKfbyGypikuZgYspHmxX9cN"
            ]
          }
        }, 
        {
          "value": 0.05091420,
          "n": 5,
          "scriptPubKey": {
            "asm": "OP_DUP OP_HASH160 ef4d0a89847911f253aa071396396e740107aaef OP_EQUALVERIFY OP_CHECKSIG",
            "hex": "76a914ef4d0a89847911f253aa071396396e740107aaef88ac",
            "reqSigs": 1,
            "type": "pubkeyhash",
            "addresses": [
              "Lh3G3yTQJ3cquotKoGW99s4g7xu2S6eWzC"
            ]
          }
        }, 
        {
          "value": 0.09012435,
          "n": 6,
          "scriptPubKey": {
            "asm": "OP_DUP OP_HASH160 fffdfb22834450fa05894af4da6b4f3cb2c2c2bd OP_EQUALVERIFY OP_CHECKSIG",
            "hex": "76a914fffdfb22834450fa05894af4da6b4f3cb2c2c2bd88ac",
            "reqSigs": 1,
            "type": "pubkeyhash",
            "addresses": [
              "LiZWq3CSSvpVKbexTiNS9rPxQfMwET9PPt"
            ]
          }
        }, 
        {
          "value": 0.01803026,
          "n": 7,
          "scriptPubKey": {
            "asm": "OP_DUP OP_HASH160 4ac065df620712e9d9b9ea6d39e1fd267a7f33e3 OP_EQUALVERIFY OP_CHECKSIG",
            "hex": "76a9144ac065df620712e9d9b9ea6d39e1fd267a7f33e388ac",
            "reqSigs": 1,
            "type": "pubkeyhash",
            "addresses": [
              "LS3CkT9hhaoASvAYC5uUYEhZBzkvUFkCwB"
            ]
          }
        }, 
        {
          "value": 0.00457843,
          "n": 8,
          "scriptPubKey": {
            "asm": "OP_DUP OP_HASH160 4eba2e5f89692dad121e36e760bbabc107436a18 OP_EQUALVERIFY OP_CHECKSIG",
            "hex": "76a9144eba2e5f89692dad121e36e760bbabc107436a1888ac",
            "reqSigs": 1,
            "type": "pubkeyhash",
            "addresses": [
              "LSQE1GXdvWWSwYbDpSajM5THoBaUkZfYJ8"
            ]
          }
        }, 
        {
          "value": 0.05171327,
          "n": 9,
          "scriptPubKey": {
            "asm": "OP_DUP OP_HASH160 56651e2cfdd0f1546d84b60de262942ca31a4b98 OP_EQUALVERIFY OP_CHECKSIG",
            "hex": "76a91456651e2cfdd0f1546d84b60de262942ca31a4b9888ac",
            "reqSigs": 1,
            "type": "pubkeyhash",
            "addresses": [
              "LT6mWW9ysLrMuexzDMpFKLLibfQZz62GU5"
            ]
          }
        }, 
        {
          "value": 1.53521085,
          "n": 10,
          "scriptPubKey": {
            "asm": "OP_DUP OP_HASH160 90f5786fc362707289ecc96f304be39d2c57990a OP_EQUALVERIFY OP_CHECKSIG",
            "hex": "76a91490f5786fc362707289ecc96f304be39d2c57990a88ac",
            "reqSigs": 1,
            "type": "pubkeyhash",
            "addresses": [
              "LYSRdRUgHm8H4VdMwU1JQLV4vsKu53QRVz"
            ]
          }
        }
      ],
      "hex": "02000000012881aca38d360649a5c9601ba28321744d0cb860a8d47ef8240aafc6a49f916b000000006a47304402203a70f5dad84b8f4d468806795287b6de3736fe2f4a4b1a84d7b55d8cdec5f55e0220778b0bb8bad91ec4f5dd22911a0622b00f1c7ef45412513016273bba588b61270121031f4f4bb2a21175f10a5673a845ed0b15a0e3b1a61bbc9386b83023d2ec513bbefeffffff0be77e6b00000000001976a9149f34f4e8036b80c0dc4fb7cdb4d356bf533635fc88acd4adc200000000001976a9146fc9e396eb5247cfb63f37d3a40d25b879c0efae88ac194b0e01000000001976a9148decabc8079397aa0062e22e3d171b1eae925f9c88acb77a0c000000000017a914f2a4726ddef3550be2dff9cd761b80fd346953fe871d542a00000000001976a9146d17316335d19d60d544e8884d8798e66fefdd3588ac5cb04d00000000001976a914ef4d0a89847911f253aa071396396e740107aaef88acd3848900000000001976a914fffdfb22834450fa05894af4da6b4f3cb2c2c2bd88ac12831b00000000001976a9144ac065df620712e9d9b9ea6d39e1fd267a7f33e388ac73fc0600000000001976a9144eba2e5f89692dad121e36e760bbabc107436a1888ac7fe84e00000000001976a91456651e2cfdd0f1546d84b60de262942ca31a4b9888acbd8b2609000000001976a91490f5786fc362707289ecc96f304be39d2c57990a88ac49b81400"
    }, 
    {
      "txid": "3272ba0ccffafc99c499ed2e99311a24ab40fbb9e3451c2b94481da320d5a708",
      "hash": "3272ba0ccffafc99c499ed2e99311a24ab40fbb9e3451c2b94481da320d5a708",
      "version": 1,
      "size": 226,
      "vsize": 226,
      "locktime": 1357896,
      "vin": [
        {
          "txid": "b8572b7a901271177d10f0bf74c687ef735092e9f471aa7471229b350159d31f",
          "vout": 2,
          "scriptSig": {
            "asm": "3045022100843423b510c774545789f7719ea3b80ba790ce9bbeec456bf34bae6315fc82be0220042669d882dbd75335818293285dec38d04b18ef1932d4eea5252b6d4ccbd554[ALL] 03b2c5ff54701afa4237cd90dfe775abd6e3071d6f882b14db016cddfecc826f0b",
            "hex": "483045022100843423b510c774545789f7719ea3b80ba790ce9bbeec456bf34bae6315fc82be0220042669d882dbd75335818293285dec38d04b18ef1932d4eea5252b6d4ccbd554012103b2c5ff54701afa4237cd90dfe775abd6e3071d6f882b14db016cddfecc826f0b"
          },
          "sequence": 4294967294
        }
      ],
      "vout": [
        {
          "value": 2.81525964,
          "n": 0,
          "scriptPubKey": {
            "asm": "OP_DUP OP_HASH160 4d381b655218222708c7abeffe98f4bb9cf25e9b OP_EQUALVERIFY OP_CHECKSIG",
            "hex": "76a9144d381b655218222708c7abeffe98f4bb9cf25e9b88ac",
            "reqSigs": 1,
            "type": "pubkeyhash",
            "addresses": [
              "LSGFWNH9Yun2jqQxaZD2P3ropLksCpLf29"
            ]
          }
        }, 
        {
          "value": 1.47902973,
          "n": 1,
          "scriptPubKey": {
            "asm": "OP_DUP OP_HASH160 50a0840fda3410266b7f3026f88e9fdfd6fdf186 OP_EQUALVERIFY OP_CHECKSIG",
            "hex": "76a91450a0840fda3410266b7f3026f88e9fdfd6fdf18688ac",
            "reqSigs": 1,
            "type": "pubkeyhash",
            "addresses": [
              "LSaGcQ17FzLWQYjyV7gdWiXKqnuNjRmJEr"
            ]
          }
        }
      ],
      "hex": "01000000011fd35901359b227174aa71f4e9925073ef87c674bff0107d177112907a2b57b8020000006b483045022100843423b510c774545789f7719ea3b80ba790ce9bbeec456bf34bae6315fc82be0220042669d882dbd75335818293285dec38d04b18ef1932d4eea5252b6d4ccbd554012103b2c5ff54701afa4237cd90dfe775abd6e3071d6f882b14db016cddfecc826f0bfeffffff02ccbec710000000001976a9144d381b655218222708c7abeffe98f4bb9cf25e9b88acfdd1d008000000001976a91450a0840fda3410266b7f3026f88e9fdfd6fdf18688ac48b81400"
    }, 
    {
      "txid": "751f1c7de8b87eb9755c4b05395bff09286da58c7fe5aeeae6f39e399c9cb934",
      "hash": "751f1c7de8b87eb9755c4b05395bff09286da58c7fe5aeeae6f39e399c9cb934",
      "version": 2,
      "size": 226,
      "vsize": 226,
      "locktime": 1357897,
      "vin": [
        {
          "txid": "526e0fcc1534f13f1ba7e36da09ede175ad55756d1e2fcd887221fb1fd497f08",
          "vout": 1,
          "scriptSig": {
            "asm": "3045022100f5fe42628c9ea7d54c0657a9951633348e006884b5ad1b70dc6f0c354d7ee2f802206a735f29bc31b5244deaf7d4f110130f43c344b0af5a20433f202da040a7a673[ALL] 0351047ac8b30fbe5c329d4ff5aa7acd3bf32cee96e705e452ba844e9b5b37b0a2",
            "hex": "483045022100f5fe42628c9ea7d54c0657a9951633348e006884b5ad1b70dc6f0c354d7ee2f802206a735f29bc31b5244deaf7d4f110130f43c344b0af5a20433f202da040a7a67301210351047ac8b30fbe5c329d4ff5aa7acd3bf32cee96e705e452ba844e9b5b37b0a2"
          },
          "sequence": 4294967294
        }
      ],
      "vout": [
        {
          "value": 0.67613733,
          "n": 0,
          "scriptPubKey": {
            "asm": "OP_DUP OP_HASH160 1c95cbcc75b5a7db37de2a80de3d63674cd81c9b OP_EQUALVERIFY OP_CHECKSIG",
            "hex": "76a9141c95cbcc75b5a7db37de2a80de3d63674cd81c9b88ac",
            "reqSigs": 1,
            "type": "pubkeyhash",
            "addresses": [
              "LMq6dbhAUattVwthiHQRCTQ1riec61bjP9"
            ]
          }
        }, 
        {
          "value": 5.32249696,
          "n": 1,
          "scriptPubKey": {
            "asm": "OP_DUP OP_HASH160 79fca94ccc8dede02bea1c90ad3618ea4c8204b9 OP_EQUALVERIFY OP_CHECKSIG",
            "hex": "76a91479fca94ccc8dede02bea1c90ad3618ea4c8204b988ac",
            "reqSigs": 1,
            "type": "pubkeyhash",
            "addresses": [
              "LWLxhe9hkJPJC91MZWgugY98Tx9urFi1Fe"
            ]
          }
        }
      ],
      "hex": "0200000001087f49fdb11f2287d8fce2d15657d55a17de9ea06de3a71b3ff13415cc0f6e52010000006b483045022100f5fe42628c9ea7d54c0657a9951633348e006884b5ad1b70dc6f0c354d7ee2f802206a735f29bc31b5244deaf7d4f110130f43c344b0af5a20433f202da040a7a67301210351047ac8b30fbe5c329d4ff5aa7acd3bf32cee96e705e452ba844e9b5b37b0a2feffffff0225b40704000000001976a9141c95cbcc75b5a7db37de2a80de3d63674cd81c9b88ac607cb91f000000001976a91479fca94ccc8dede02bea1c90ad3618ea4c8204b988ac49b81400"
    }, 
    {
      "txid": "fa59a6ecfbc2f2ddb8eaf607cc2e7af5ef29b97b323adc9b462b3c316b306a5c",
      "hash": "fa59a6ecfbc2f2ddb8eaf607cc2e7af5ef29b97b323adc9b462b3c316b306a5c",
      "version": 2,
      "size": 192,
      "vsize": 192,
      "locktime": 1357181,
      "vin": [
        {
          "txid": "5f216d5ab1b2e4c4b96d02e2b1dd2d781d54dc85d79abde92fcb46bf136098ed",
          "vout": 0,
          "scriptSig": {
            "asm": "30450221008577da1c33ec720c53d9a8ad6ee46e2cacbc840766f8b8030856e15d0291522b02207b73d0fbd1ab047d3801be3b4a79513b0540f53bb6400b3689282305a776f204[ALL] 0200a09c5285c8ac2d9791e87dfc7fee1abc86363fac930561b5db8371175dbb15",
            "hex": "4830450221008577da1c33ec720c53d9a8ad6ee46e2cacbc840766f8b8030856e15d0291522b02207b73d0fbd1ab047d3801be3b4a79513b0540f53bb6400b3689282305a776f20401210200a09c5285c8ac2d9791e87dfc7fee1abc86363fac930561b5db8371175dbb15"
          },
          "sequence": 4294967294
        }
      ],
      "vout": [
        {
          "value": 4.90117600,
          "n": 0,
          "scriptPubKey": {
            "asm": "OP_DUP OP_HASH160 9bc7b1b09f9406409333e93cdab591ce7837489f OP_EQUALVERIFY OP_CHECKSIG",
            "hex": "76a9149bc7b1b09f9406409333e93cdab591ce7837489f88ac",
            "reqSigs": 1,
            "type": "pubkeyhash",
            "addresses": [
              "LZReDwFQFMRp8d4B12XEU2Z5hxRohrFUTV"
            ]
          }
        }
      ],
      "hex": "0200000001ed986013bf46cb2fe9bd9ad785dc541d782dddb1e2026db9c4e4b2b15a6d215f000000006b4830450221008577da1c33ec720c53d9a8ad6ee46e2cacbc840766f8b8030856e15d0291522b02207b73d0fbd1ab047d3801be3b4a79513b0540f53bb6400b3689282305a776f20401210200a09c5285c8ac2d9791e87dfc7fee1abc86363fac930561b5db8371175dbb15feffffff01e099361d000000001976a9149bc7b1b09f9406409333e93cdab591ce7837489f88ac7db51400"
    }, 
    {
      "txid": "a3a4c0a2571133ef1dc47a329a52eb8d40e82a48698ae5bc7bf64fbd21c051d5",
      "hash": "a3a4c0a2571133ef1dc47a329a52eb8d40e82a48698ae5bc7bf64fbd21c051d5",
      "version": 1,
      "size": 226,
      "vsize": 226,
      "locktime": 0,
      "vin": [
        {
          "txid": "00281ee8f6f076cf16893e67b1ba1ac3f817d2ba50a4cf2d9fcfb0cd472a87e2",
          "vout": 26,
          "scriptSig": {
            "asm": "3045022100ea1b28a5ef7b0c0f06695a0be6da401da0a3ca9a148d3ad255fd37d6408483d302207ef96181822d31410fa67b990da1ecbd1a2dff891068a503069efd0e37562ac9[ALL] 0368ad4176df9be372ff11a3a93bbb1670879d2ca28c375ef1a019956eb792a206",
            "hex": "483045022100ea1b28a5ef7b0c0f06695a0be6da401da0a3ca9a148d3ad255fd37d6408483d302207ef96181822d31410fa67b990da1ecbd1a2dff891068a503069efd0e37562ac901210368ad4176df9be372ff11a3a93bbb1670879d2ca28c375ef1a019956eb792a206"
          },
          "sequence": 4294967295
        }
      ],
      "vout": [
        {
          "value": 5.71141234,
          "n": 0,
          "scriptPubKey": {
            "asm": "OP_DUP OP_HASH160 51d4dc502d126a16b3021feef7c2800dec84ec3f OP_EQUALVERIFY OP_CHECKSIG",
            "hex": "76a91451d4dc502d126a16b3021feef7c2800dec84ec3f88ac",
            "reqSigs": 1,
            "type": "pubkeyhash",
            "addresses": [
              "LSgdzZihULWad54FQjqVvxMBDCei3xRngM"
            ]
          }
        }, 
        {
          "value": 0.15189166,
          "n": 1,
          "scriptPubKey": {
            "asm": "OP_DUP OP_HASH160 7550f2ca30fada7c0bae014f934224f93d609b31 OP_EQUALVERIFY OP_CHECKSIG",
            "hex": "76a9147550f2ca30fada7c0bae014f934224f93d609b3188ac",
            "reqSigs": 1,
            "type": "pubkeyhash",
            "addresses": [
              "LVvGJ3sxLnp6mG6M5vR1uLCfdUrdjnR5cs"
            ]
          }
        }
      ],
      "hex": "0100000001e2872a47cdb0cf9f2dcfa450bad217f8c31abab1673e8916cf76f0f6e81e28001a0000006b483045022100ea1b28a5ef7b0c0f06695a0be6da401da0a3ca9a148d3ad255fd37d6408483d302207ef96181822d31410fa67b990da1ecbd1a2dff891068a503069efd0e37562ac901210368ad4176df9be372ff11a3a93bbb1670879d2ca28c375ef1a019956eb792a206ffffffff0272ec0a22000000001976a91451d4dc502d126a16b3021feef7c2800dec84ec3f88acaec4e700000000001976a9147550f2ca30fada7c0bae014f934224f93d609b3188ac00000000"
    }
  ],
  "time": 1517062589,
  "mediantime": 1517062459,
  "nonce": 3393797564,
  "bits": "1a047f14",
  "difficulty": 3731199.183374282,
  "chainwork": "000000000000000000000000000000000000000000000032a00bdee628821ab8",
  "previousblockhash": "bce19b869c4ccd6828a0ab0383dad2fdd6762ed6e4901139c3ce5969de07cc40",
  "nextblockhash": "7070dccbdd55948faf1b48bcdc89c0d6844c23d9507fd066a028031ae951911c"
}
