{
  "hash": "15b73e56d2ef1e81ee1a8436f65f5e2ea46fa074e4bc186c5c29f98011673e59",
  "confirmations": 2706,
  "strippedsize": 234,
  "size": 234,
  "weight": 936,
  "height": 1358289,
  "version": 536870912,
  "versionHex": "20000000",
  "merkleroot": "75220bbf4cf4fd8ea633e5df056371bf1c96a64f2070cac1d53807088b493307",
  "tx": [
    {
      "txid": "75220bbf4cf4fd8ea633e5df056371bf1c96a64f2070cac1d53807088b493307",
      "hash": "75220bbf4cf4fd8ea633e5df056371bf1c96a64f2070cac1d53807088b493307",
      "version": 1,
      "size": 153,
      "vsize": 153,
      "locktime": 0,
      "vin": [
        {
          "coinbase": "03d1b914045a6d6b8e2cfabe6d6dc69f3aadeda029dd099db5d9e3cfaa12a2fe2747019c8f1d7a59859cb2176eac4000000000000000042f4c502f085800472b0f000000",
          "sequence": 4294967295
        }
      ],
      "vout": [
        {
          "value": 25.00000000,
          "n": 0,
          "scriptPubKey": {
            "asm": "OP_DUP OP_HASH160 57757ed2ecf2052ff3126c397aca7defb9ca2cec OP_EQUALVERIFY OP_CHECKSIG",
            "hex": "76a91457757ed2ecf2052ff3126c397aca7defb9ca2cec88ac",
            "reqSigs": 1,
            "type": "pubkeyhash",
            "addresses": [
              "LTCPodGk5FwcJaRzH9yKnwicxzFUbxp6tN"
            ]
          }
        }
      ],
      "hex": "01000000010000000000000000000000000000000000000000000000000000000000000000ffffffff4403d1b914045a6d6b8e2cfabe6d6dc69f3aadeda029dd099db5d9e3cfaa12a2fe2747019c8f1d7a59859cb2176eac4000000000000000042f4c502f085800472b0f000000ffffffff0100f90295000000001976a91457757ed2ecf2052ff3126c397aca7defb9ca2cec88ac00000000"
    }
  ],
  "time": 1517120398,
  "mediantime": 1517120033,
  "nonce": 2413871395,
  "bits": "1a047f14",
  "difficulty": 3731199.183374282,
  "chainwork": "000000000000000000000000000000000000000000000032f6c84e641c16aa54",
  "previousblockhash": "a2a88d0d16a9cefa34b7783cfd7207982489558b9cc252950422ff204b555acf",
  "nextblockhash": "23f2c25757493fc3b0449c6cf1a499572bd4dc85deba8da2c7092a8959d2d56c"
}
