{
  "hash": "16090d86a7955ad3f2537f56a4dc07ff598b746a26bea9c949a1740b2aeb8e22",
  "confirmations": 2050,
  "strippedsize": 254,
  "size": 254,
  "weight": 1016,
  "height": 1358944,
  "version": 536870912,
  "versionHex": "20000000",
  "merkleroot": "e32a56cb29b6aff33cc8a4b62b3545eb973112c7b8fe0c7383494ec4e3a6a7a0",
  "tx": [
    {
      "txid": "e32a56cb29b6aff33cc8a4b62b3545eb973112c7b8fe0c7383494ec4e3a6a7a0",
      "hash": "e32a56cb29b6aff33cc8a4b62b3545eb973112c7b8fe0c7383494ec4e3a6a7a0",
      "version": 1,
      "size": 173,
      "vsize": 173,
      "locktime": 0,
      "vin": [
        {
          "coinbase": "0360bc141b4d696e656420627920416e74506f6f6c20626a312045205a6edde2fabe6d6dac510cb60953d658d512bef49fa4eb0a5499e3b77c183d0351ef9465a272e1000400000000000000011100000000000010000000",
          "sequence": 4294967295
        }
      ],
      "vout": [
        {
          "value": 25.00000000,
          "n": 0,
          "scriptPubKey": {
            "asm": "OP_DUP OP_HASH160 0ff3ccc5e8be88afe24b5d634e5852d474dbdff1 OP_EQUALVERIFY OP_CHECKSIG",
            "hex": "76a9140ff3ccc5e8be88afe24b5d634e5852d474dbdff188ac",
            "reqSigs": 1,
            "type": "pubkeyhash",
            "addresses": [
              "LLgJTbzZMsRTCUF1NtvvL9SR1a4pVieW89"
            ]
          }
        }
      ],
      "hex": "01000000010000000000000000000000000000000000000000000000000000000000000000ffffffff580360bc141b4d696e656420627920416e74506f6f6c20626a312045205a6edde2fabe6d6dac510cb60953d658d512bef49fa4eb0a5499e3b77c183d0351ef9465a272e1000400000000000000011100000000000010000000ffffffff0100f90295000000001976a9140ff3ccc5e8be88afe24b5d634e5852d474dbdff188ac00000000"
    }
  ],
  "time": 1517215202,
  "mediantime": 1517214757,
  "nonce": 1688331302,
  "bits": "1a042eae",
  "difficulty": 4011378.762614286,
  "chainwork": "0000000000000000000000000000000000000000000000338b24b059dc343f42",
  "previousblockhash": "afa234a9a01edce8fb89d2eb665a9e9e222a89570fd98f758fa413fae0aaf3fd",
  "nextblockhash": "ae627c6fd87258b709c790245c08dcea04e65fa8d54a8fd6d7e842bc72895a3f"
}
