{
  "hash": "1633f3efe42ca0345a59b2640fab6bf12a4c9336671e95d393ac304f65b16ad5",
  "confirmations": 3094,
  "strippedsize": 3053,
  "size": 3311,
  "weight": 12470,
  "height": 1357901,
  "version": 536870912,
  "versionHex": "20000000",
  "merkleroot": "ba23fe61aa98af568d418493086f1843061a56d6b49c5679bd24951d2317ca2b",
  "tx": [
    {
      "txid": "3c56c23d1019aaaa340374108c227e996d1900d8941f4b07fa3cb7f00bf0254b",
      "hash": "31dc2e4b418cae1f5c77ae5682c0a0d896441e72f54366e80c6e080a70949132",
      "version": 1,
      "size": 261,
      "vsize": 234,
      "locktime": 0,
      "vin": [
        {
          "coinbase": "034db8141a2f5669614254432f4d696e656420627920706f7274616b616c2f2cfabe6d6d57fc431172ea1a5f58101b715f59155fd00ff26e760f289efe1e5facb1e7e93e0100000000000000104d5dc80072fab3c9405946c404000000",
          "sequence": 4294967295
        }
      ],
      "vout": [
        {
          "value": 25.00701400,
          "n": 0,
          "scriptPubKey": {
            "asm": "OP_DUP OP_HASH160 e16c28146ed4869c190b3f0bdc18d80d45f92134 OP_EQUALVERIFY OP_CHECKSIG",
            "hex": "76a914e16c28146ed4869c190b3f0bdc18d80d45f9213488ac",
            "reqSigs": 1,
            "type": "pubkeyhash",
            "addresses": [
              "LfmssDyX6iZvbVqHv6t9P6JWXia2JG7mdb"
            ]
          }
        }, 
        {
          "value": 0.00000000,
          "n": 1,
          "scriptPubKey": {
            "asm": "OP_RETURN aa21a9ed097f420c70bf74b4765633c3e77dcb1cc7dc9ea807d99d6d50d5961025280044",
            "hex": "6a24aa21a9ed097f420c70bf74b4765633c3e77dcb1cc7dc9ea807d99d6d50d5961025280044",
            "type": "nulldata"
          }
        }
      ],
      "hex": "010000000001010000000000000000000000000000000000000000000000000000000000000000ffffffff5d034db8141a2f5669614254432f4d696e656420627920706f7274616b616c2f2cfabe6d6d57fc431172ea1a5f58101b715f59155fd00ff26e760f289efe1e5facb1e7e93e0100000000000000104d5dc80072fab3c9405946c404000000ffffffff02d8ac0d95000000001976a914e16c28146ed4869c190b3f0bdc18d80d45f9213488ac0000000000000000266a24aa21a9ed097f420c70bf74b4765633c3e77dcb1cc7dc9ea807d99d6d50d59610252800440120000000000000000000000000000000000000000000000000000000000000000000000000"
    }, 
    {
      "txid": "f7e53b23e17123e47f2463174a0b0e1d2ba26b3a4e5fe9f4eea3b880c24537e6",
      "hash": "f7e53b23e17123e47f2463174a0b0e1d2ba26b3a4e5fe9f4eea3b880c24537e6",
      "version": 1,
      "size": 192,
      "vsize": 192,
      "locktime": 0,
      "vin": [
        {
          "txid": "de750aa8b2b37cd250a3c78ca57923ed987e10e7a492c99f8e74ac9e45aa6d4e",
          "vout": 6,
          "scriptSig": {
            "asm": "3045022100a935605dbb16b7f19d05e012165158a070173f9b5b3200678b19dcf670189ab502205ae6aa99a7bb0243cb97dabfd2c1fd8198a1cf89f1024138163fb7a3f179544d[ALL] 02ba234fc7351ee576a401b45296e538e5bb0e0555225832e0b8eaf4792215adee",
            "hex": "483045022100a935605dbb16b7f19d05e012165158a070173f9b5b3200678b19dcf670189ab502205ae6aa99a7bb0243cb97dabfd2c1fd8198a1cf89f1024138163fb7a3f179544d012102ba234fc7351ee576a401b45296e538e5bb0e0555225832e0b8eaf4792215adee"
          },
          "sequence": 4294967295
        }
      ],
      "vout": [
        {
          "value": 0.83726005,
          "n": 0,
          "scriptPubKey": {
            "asm": "OP_DUP OP_HASH160 05e939033ad4b7ddccde44ebf91618c81253cfb4 OP_EQUALVERIFY OP_CHECKSIG",
            "hex": "76a91405e939033ad4b7ddccde44ebf91618c81253cfb488ac",
            "reqSigs": 1,
            "type": "pubkeyhash",
            "addresses": [
              "LKmD2mbxzh5vX23vVSAA1dHvrY7Yg25RQ1"
            ]
          }
        }
      ],
      "hex": "01000000014e6daa459eac748e9fc992a4e7107e98ed2379a58cc7a350d27cb3b2a80a75de060000006b483045022100a935605dbb16b7f19d05e012165158a070173f9b5b3200678b19dcf670189ab502205ae6aa99a7bb0243cb97dabfd2c1fd8198a1cf89f1024138163fb7a3f179544d012102ba234fc7351ee576a401b45296e538e5bb0e0555225832e0b8eaf4792215adeeffffffff01b58efd04000000001976a91405e939033ad4b7ddccde44ebf91618c81253cfb488ac00000000"
    }, 
    {
      "txid": "a3ee15a2add5881a7a228d8970c66da410a1cd98e7e1dcde6e41f982f370f94a",
      "hash": "a3ee15a2add5881a7a228d8970c66da410a1cd98e7e1dcde6e41f982f370f94a",
      "version": 1,
      "size": 225,
      "vsize": 225,
      "locktime": 0,
      "vin": [
        {
          "txid": "5c6a676e9d213be37a96c8fd616e9fa8452c94cc7dee6fcd7a83e7b4c0970e91",
          "vout": 1,
          "scriptSig": {
            "asm": "304402207b2ae89c98d2453533ffbdab87ca1575780c5184e6fe6ab29fa3137446022d3e02204b07dcd5cd4e92061e109a26e5347dc588964c808401daa91655218e5c204bb1[ALL] 02fd3a3c846549cbc917d9c37bc45ce2862d2ed7d6de0749ffbebc8e6c17eb1478",
            "hex": "47304402207b2ae89c98d2453533ffbdab87ca1575780c5184e6fe6ab29fa3137446022d3e02204b07dcd5cd4e92061e109a26e5347dc588964c808401daa91655218e5c204bb1012102fd3a3c846549cbc917d9c37bc45ce2862d2ed7d6de0749ffbebc8e6c17eb1478"
          },
          "sequence": 4294967295
        }
      ],
      "vout": [
        {
          "value": 0.05034616,
          "n": 0,
          "scriptPubKey": {
            "asm": "OP_DUP OP_HASH160 b26ccbfe654461d500c2bbb0ba2bce8c0606fe85 OP_EQUALVERIFY OP_CHECKSIG",
            "hex": "76a914b26ccbfe654461d500c2bbb0ba2bce8c0606fe8588ac",
            "reqSigs": 1,
            "type": "pubkeyhash",
            "addresses": [
              "LbVNshMNEQB98X582R4h86PFURbiwqdduY"
            ]
          }
        }, 
        {
          "value": 0.00322590,
          "n": 1,
          "scriptPubKey": {
            "asm": "OP_DUP OP_HASH160 f3d4fafd6fa25e223e7c7bc293e0a00b3b61df15 OP_EQUALVERIFY OP_CHECKSIG",
            "hex": "76a914f3d4fafd6fa25e223e7c7bc293e0a00b3b61df1588ac",
            "reqSigs": 1,
            "type": "pubkeyhash",
            "addresses": [
              "LhTDby4sVDKrhV3BFUKr6YrwmwPeufLAfh"
            ]
          }
        }
      ],
      "hex": "0100000001910e97c0b4e7837acd6fee7dcc942c45a89f6e61fdc8967ae33b219d6e676a5c010000006a47304402207b2ae89c98d2453533ffbdab87ca1575780c5184e6fe6ab29fa3137446022d3e02204b07dcd5cd4e92061e109a26e5347dc588964c808401daa91655218e5c204bb1012102fd3a3c846549cbc917d9c37bc45ce2862d2ed7d6de0749ffbebc8e6c17eb1478ffffffff0278d24c00000000001976a914b26ccbfe654461d500c2bbb0ba2bce8c0606fe8588ac1eec0400000000001976a914f3d4fafd6fa25e223e7c7bc293e0a00b3b61df1588ac00000000"
    }, 
    {
      "txid": "88c793f6e1d3aabb08662e27797a9994b0ed257efd73ae6ea50f9284248b715c",
      "hash": "88c793f6e1d3aabb08662e27797a9994b0ed257efd73ae6ea50f9284248b715c",
      "version": 1,
      "size": 226,
      "vsize": 226,
      "locktime": 0,
      "vin": [
        {
          "txid": "c795cc367ec5abad5582d4b172b9b46606056a90b7dc5af6d7987736ac8d9def",
          "vout": 1,
          "scriptSig": {
            "asm": "3045022100af06377a461db43476ebba911b6fb2a07969346d54e2dadc985bb99cbcbe476c02206ef7e509632a651ec487af7979bc1fe7aa91feda4db5311d94131885b4ca5ed2[ALL] 02d330294ef099a1fcd5812b9b00fc4ac4c69d5697309ff1c9a871e5ddcc53d475",
            "hex": "483045022100af06377a461db43476ebba911b6fb2a07969346d54e2dadc985bb99cbcbe476c02206ef7e509632a651ec487af7979bc1fe7aa91feda4db5311d94131885b4ca5ed2012102d330294ef099a1fcd5812b9b00fc4ac4c69d5697309ff1c9a871e5ddcc53d475"
          },
          "sequence": 4294967295
        }
      ],
      "vout": [
        {
          "value": 0.10000000,
          "n": 0,
          "scriptPubKey": {
            "asm": "OP_DUP OP_HASH160 3ec388218fd8b323a8d34dd0d8b949e45bfc03d7 OP_EQUALVERIFY OP_CHECKSIG",
            "hex": "76a9143ec388218fd8b323a8d34dd0d8b949e45bfc03d788ac",
            "reqSigs": 1,
            "type": "pubkeyhash",
            "addresses": [
              "LQwpPtfH7PFFAMTPW4ZBVPP81Vwf4Wgqom"
            ]
          }
        }, 
        {
          "value": 0.06800000,
          "n": 1,
          "scriptPubKey": {
            "asm": "OP_DUP OP_HASH160 544ea0310a68be116c24a4f0a7586bf524773429 OP_EQUALVERIFY OP_CHECKSIG",
            "hex": "76a914544ea0310a68be116c24a4f0a7586bf52477342988ac",
            "reqSigs": 1,
            "type": "pubkeyhash",
            "addresses": [
              "LSujDLeShe96aNJYknyaRxmneSLpDgys7T"
            ]
          }
        }
      ],
      "hex": "0100000001ef9d8dac367798d7f65adcb7906a050666b4b972b1d48255adabc57e36cc95c7010000006b483045022100af06377a461db43476ebba911b6fb2a07969346d54e2dadc985bb99cbcbe476c02206ef7e509632a651ec487af7979bc1fe7aa91feda4db5311d94131885b4ca5ed2012102d330294ef099a1fcd5812b9b00fc4ac4c69d5697309ff1c9a871e5ddcc53d475ffffffff0280969800000000001976a9143ec388218fd8b323a8d34dd0d8b949e45bfc03d788ac80c26700000000001976a914544ea0310a68be116c24a4f0a7586bf52477342988ac00000000"
    }, 
    {
      "txid": "84476d5764e7f350ebf69f65d1a652d370e69e96dc87d711fcc0fbae635329bf",
      "hash": "84476d5764e7f350ebf69f65d1a652d370e69e96dc87d711fcc0fbae635329bf",
      "version": 1,
      "size": 373,
      "vsize": 373,
      "locktime": 0,
      "vin": [
        {
          "txid": "950a2687e801c4d0619a94bec1383620ed7916b856b784f5ed3d42d64b5c7c33",
          "vout": 1,
          "scriptSig": {
            "asm": "0 3045022100dcc46f5a44e8341fb83f3a36b9cafe0b1fc4ac2d536274219df03e21ff2cd282022063d5074ccf32c17ace8fa70d6134caec47cc17cab23695323c92e8f8ca5ef05e[ALL] 3045022100ed0501cf0863d67ce91a0f2211777529543b83a88d4f50579387e4e004097ed20220395b0646894030a041c08a68433b1a84250bf1389d48c38d711e4ef73b006fbe[ALL] 5221033122d45e87ef701bbc73b6033284aed2c0ce8873aa0bdecf92e9708c6cd598292102bf3952ae48efc8985014dbe0bb065496837e986d512f1bc01d4c062e60a4ac93210330d7c7094d4297c55c30261c251e747d668f3f53d815991d97dce558fcee4c2353ae",
            "hex": "00483045022100dcc46f5a44e8341fb83f3a36b9cafe0b1fc4ac2d536274219df03e21ff2cd282022063d5074ccf32c17ace8fa70d6134caec47cc17cab23695323c92e8f8ca5ef05e01483045022100ed0501cf0863d67ce91a0f2211777529543b83a88d4f50579387e4e004097ed20220395b0646894030a041c08a68433b1a84250bf1389d48c38d711e4ef73b006fbe014c695221033122d45e87ef701bbc73b6033284aed2c0ce8873aa0bdecf92e9708c6cd598292102bf3952ae48efc8985014dbe0bb065496837e986d512f1bc01d4c062e60a4ac93210330d7c7094d4297c55c30261c251e747d668f3f53d815991d97dce558fcee4c2353ae"
          },
          "sequence": 4294967295
        }
      ],
      "vout": [
        {
          "value": 7.03980099,
          "n": 0,
          "scriptPubKey": {
            "asm": "OP_DUP OP_HASH160 fb8ce9b05f9a686d47bafa3a0c50face2d080a1c OP_EQUALVERIFY OP_CHECKSIG",
            "hex": "76a914fb8ce9b05f9a686d47bafa3a0c50face2d080a1c88ac",
            "reqSigs": 1,
            "type": "pubkeyhash",
            "addresses": [
              "LiA2gAAF5jgTGdWZYBkYrhyv7eHA3WyGPw"
            ]
          }
        }, 
        {
          "value": 0.03419901,
          "n": 1,
          "scriptPubKey": {
            "asm": "OP_HASH160 b750175d546c437939d2c76b9ccded514acc9087 OP_EQUAL",
            "hex": "a914b750175d546c437939d2c76b9ccded514acc908787",
            "reqSigs": 1,
            "type": "scripthash",
            "addresses": [
              "MQcRqNeQAMQKqHAfPJHkkdX2XGcb8c1Fbd"
            ]
          }
        }
      ],
      "hex": "0100000001337c5c4bd6423dedf584b756b81679ed203638c1be949a61d0c401e887260a9501000000fdfe0000483045022100dcc46f5a44e8341fb83f3a36b9cafe0b1fc4ac2d536274219df03e21ff2cd282022063d5074ccf32c17ace8fa70d6134caec47cc17cab23695323c92e8f8ca5ef05e01483045022100ed0501cf0863d67ce91a0f2211777529543b83a88d4f50579387e4e004097ed20220395b0646894030a041c08a68433b1a84250bf1389d48c38d711e4ef73b006fbe014c695221033122d45e87ef701bbc73b6033284aed2c0ce8873aa0bdecf92e9708c6cd598292102bf3952ae48efc8985014dbe0bb065496837e986d512f1bc01d4c062e60a4ac93210330d7c7094d4297c55c30261c251e747d668f3f53d815991d97dce558fcee4c2353aeffffffff0243e2f529000000001976a914fb8ce9b05f9a686d47bafa3a0c50face2d080a1c88acfd2e34000000000017a914b750175d546c437939d2c76b9ccded514acc90878700000000"
    }, 
    {
      "txid": "84df57aa49c6cea82cf5aa11ffa7c07eb5db05612d2e7b862429aa771ec2bc42",
      "hash": "f038aba2e577bc4d9fdbd23770512630125b788f38a282e213d9797840c90aad",
      "version": 1,
      "size": 374,
      "vsize": 208,
      "locktime": 0,
      "vin": [
        {
          "txid": "bf2713cee5869a9cd5c3638392930d262a6c8dd600db8bb867c5472aed3407e0",
          "vout": 1,
          "scriptSig": {
            "asm": "0020409fd93c7351b461fa46963fa28755038f397ee054ab9e56eda0b1081d768cc4",
            "hex": "220020409fd93c7351b461fa46963fa28755038f397ee054ab9e56eda0b1081d768cc4"
          },
          "txinwitness": [
            "", 
            "30450221009aee5db1d0cea226c9a5dfbcdd73d5fa5e31873452b769a0817888f585c27cd302202a20781f868148d8f4f4ee5f198a69438ae8105d0fa78019fa94234dccfe32e001", 
            "3045022100dbefb170eff09cd77e16aaadc01dddc226d4d4f8cb0f0f90769af366bbcef23002201ed6713b6505cb9c49c467a9ce1a6e29c270e4415e001b444fb109eeb16f4ec001", 
            "522103ceb293b39e087131961da42b3deaef48432d57a08bfd111247901be2936525b32103fa185b0d6c2a6d812d1a9418c54b3cea527d229a73a0c6c72345a1851ebcdad352ae"
          ],
          "sequence": 4294967295
        }
      ],
      "vout": [
        {
          "value": 0.02083300,
          "n": 0,
          "scriptPubKey": {
            "asm": "OP_DUP OP_HASH160 f2375dcda67bf2e53d3df9144670697401feefee OP_EQUALVERIFY OP_CHECKSIG",
            "hex": "76a914f2375dcda67bf2e53d3df9144670697401feefee88ac",
            "reqSigs": 1,
            "type": "pubkeyhash",
            "addresses": [
              "LhJg7ZZaELVh6kzA2XcSJQDFt4gQKgbuWW"
            ]
          }
        }, 
        {
          "value": 0.27641300,
          "n": 1,
          "scriptPubKey": {
            "asm": "OP_HASH160 2d9ba1f1c217fd18a576b17eaf8a1c6f1cd2f1de OP_EQUAL",
            "hex": "a9142d9ba1f1c217fd18a576b17eaf8a1c6f1cd2f1de87",
            "reqSigs": 1,
            "type": "scripthash",
            "addresses": [
              "MC4K5c2x6rcVohDBLrLNQRsqL5atuzztot"
            ]
          }
        }
      ],
      "hex": "01000000000101e00734ed2a47c567b88bdb00d68d6c2a260d93928363c3d59c9a86e5ce1327bf0100000023220020409fd93c7351b461fa46963fa28755038f397ee054ab9e56eda0b1081d768cc4ffffffff02e4c91f00000000001976a914f2375dcda67bf2e53d3df9144670697401feefee88acd4c5a5010000000017a9142d9ba1f1c217fd18a576b17eaf8a1c6f1cd2f1de8704004830450221009aee5db1d0cea226c9a5dfbcdd73d5fa5e31873452b769a0817888f585c27cd302202a20781f868148d8f4f4ee5f198a69438ae8105d0fa78019fa94234dccfe32e001483045022100dbefb170eff09cd77e16aaadc01dddc226d4d4f8cb0f0f90769af366bbcef23002201ed6713b6505cb9c49c467a9ce1a6e29c270e4415e001b444fb109eeb16f4ec00147522103ceb293b39e087131961da42b3deaef48432d57a08bfd111247901be2936525b32103fa185b0d6c2a6d812d1a9418c54b3cea527d229a73a0c6c72345a1851ebcdad352ae00000000"
    }, 
    {
      "txid": "3beee8b985a7ae9dce625508b29fd7628070e526da858ba5aff2d93acd0e611d",
      "hash": "3beee8b985a7ae9dce625508b29fd7628070e526da858ba5aff2d93acd0e611d",
      "version": 2,
      "size": 225,
      "vsize": 225,
      "locktime": 1357899,
      "vin": [
        {
          "txid": "9d631caf0fc1c89e5222b8f65c48ec0a033a6a5ed3e896aa16c99b32122db4bf",
          "vout": 2,
          "scriptSig": {
            "asm": "3044022007466b332cae0db2a7305bf96ce16a978eb72cb822da53e0366847ca1dc03f0e02204dd4c8a265346d997612c67b777a61cda4d9a0f5bd4e2131fe4b5b4f6e88b2ad[ALL] 03bc51dac3f2562ec6ecf8a79896a7143742843720035aed99bbee6d5749d837fe",
            "hex": "473044022007466b332cae0db2a7305bf96ce16a978eb72cb822da53e0366847ca1dc03f0e02204dd4c8a265346d997612c67b777a61cda4d9a0f5bd4e2131fe4b5b4f6e88b2ad012103bc51dac3f2562ec6ecf8a79896a7143742843720035aed99bbee6d5749d837fe"
          },
          "sequence": 4294967294
        }
      ],
      "vout": [
        {
          "value": 2.62749650,
          "n": 0,
          "scriptPubKey": {
            "asm": "OP_DUP OP_HASH160 21bcd2e56fc682127a6d600d82b0d425d8678caa OP_EQUALVERIFY OP_CHECKSIG",
            "hex": "76a91421bcd2e56fc682127a6d600d82b0d425d8678caa88ac",
            "reqSigs": 1,
            "type": "pubkeyhash",
            "addresses": [
              "LNJLmFZuXx9QyUPHwNtiwR84ucT9Ld5C4z"
            ]
          }
        }, 
        {
          "value": 1.37227750,
          "n": 1,
          "scriptPubKey": {
            "asm": "OP_DUP OP_HASH160 987fa59c3fe032c2d064dd913dfd09ba2ec65073 OP_EQUALVERIFY OP_CHECKSIG",
            "hex": "76a914987fa59c3fe032c2d064dd913dfd09ba2ec6507388ac",
            "reqSigs": 1,
            "type": "pubkeyhash",
            "addresses": [
              "LZ8HtS9bVCPfo4hNPQTgELKGCEck8EVMMB"
            ]
          }
        }
      ],
      "hex": "0200000001bfb42d12329bc916aa96e8d35e6a3a030aec485cf6b822529ec8c10faf1c639d020000006a473044022007466b332cae0db2a7305bf96ce16a978eb72cb822da53e0366847ca1dc03f0e02204dd4c8a265346d997612c67b777a61cda4d9a0f5bd4e2131fe4b5b4f6e88b2ad012103bc51dac3f2562ec6ecf8a79896a7143742843720035aed99bbee6d5749d837fefeffffff02d23da90f000000001976a91421bcd2e56fc682127a6d600d82b0d425d8678caa88ace6ed2d08000000001976a914987fa59c3fe032c2d064dd913dfd09ba2ec6507388ac4bb81400"
    }, 
    {
      "txid": "a6098e693d8e8bb0df5e7c38af116ccd14618fa23a0ed02083270d602cd2e252",
      "hash": "a6098e693d8e8bb0df5e7c38af116ccd14618fa23a0ed02083270d602cd2e252",
      "version": 1,
      "size": 225,
      "vsize": 225,
      "locktime": 0,
      "vin": [
        {
          "txid": "cf1db76b37812f8d1dac0c45c67102252f861fe0fd8fe6720c9ad18a71d21129",
          "vout": 26,
          "scriptSig": {
            "asm": "3044022023017baf2f514efd7d35f56c983238fda83ba5f1423bb30b613ae49a7a6ca88302203274a37485e3f9abe6e94a4de6d4e85a58259495fd622e55c8b2e8f097081722[ALL] 0313e7c8ae5cbf18498962ee064428688ada0a16e291150e5c2ab17ecc5e9fca4d",
            "hex": "473044022023017baf2f514efd7d35f56c983238fda83ba5f1423bb30b613ae49a7a6ca88302203274a37485e3f9abe6e94a4de6d4e85a58259495fd622e55c8b2e8f09708172201210313e7c8ae5cbf18498962ee064428688ada0a16e291150e5c2ab17ecc5e9fca4d"
          },
          "sequence": 4294967295
        }
      ],
      "vout": [
        {
          "value": 4.87957120,
          "n": 0,
          "scriptPubKey": {
            "asm": "OP_DUP OP_HASH160 c429db95682c8e350fbed47a2e28f2756192bfee OP_EQUALVERIFY OP_CHECKSIG",
            "hex": "76a914c429db95682c8e350fbed47a2e28f2756192bfee88ac",
            "reqSigs": 1,
            "type": "pubkeyhash",
            "addresses": [
              "Ld7Ar92HNjG4djofb9eh2mUZ9bzrqR7p1M"
            ]
          }
        }, 
        {
          "value": 95.12020280,
          "n": 1,
          "scriptPubKey": {
            "asm": "OP_DUP OP_HASH160 e9e51e3adfc2e7c0dd0df17e7b87e640c090bf6a OP_EQUALVERIFY OP_CHECKSIG",
            "hex": "76a914e9e51e3adfc2e7c0dd0df17e7b87e640c090bf6a88ac",
            "reqSigs": 1,
            "type": "pubkeyhash",
            "addresses": [
              "LgYgBK7q5BqyUNy21p7FRtbBJ8UuXV8Crc"
            ]
          }
        }
      ],
      "hex": "01000000012911d2718ad19a0c72e68ffde01f862f250271c6450cac1d8d2f81376bb71dcf1a0000006a473044022023017baf2f514efd7d35f56c983238fda83ba5f1423bb30b613ae49a7a6ca88302203274a37485e3f9abe6e94a4de6d4e85a58259495fd622e55c8b2e8f09708172201210313e7c8ae5cbf18498962ee064428688ada0a16e291150e5c2ab17ecc5e9fca4dffffffff0280a2151d000000001976a914c429db95682c8e350fbed47a2e28f2756192bfee88ac38e9f536020000001976a914e9e51e3adfc2e7c0dd0df17e7b87e640c090bf6a88ac00000000"
    }, 
    {
      "txid": "8921e876efe21abf7a2e1249ff6756654a489838264135afcacf9924fa182c79",
      "hash": "8921e876efe21abf7a2e1249ff6756654a489838264135afcacf9924fa182c79",
      "version": 1,
      "size": 225,
      "vsize": 225,
      "locktime": 0,
      "vin": [
        {
          "txid": "cf1db76b37812f8d1dac0c45c67102252f861fe0fd8fe6720c9ad18a71d21129",
          "vout": 30,
          "scriptSig": {
            "asm": "304402201fb844311de67b96a02b0c5e9b93e72e3b31cf61c38b056b05effa3526e618a702202a09fa38693b10f09130e9e28189db6c0f567770b049c933deb4281212d08781[ALL] 039e348c7acdc80ffc6ada9bd3c0977d0d8a13ef0c26304fad7aadca9fb988e63e",
            "hex": "47304402201fb844311de67b96a02b0c5e9b93e72e3b31cf61c38b056b05effa3526e618a702202a09fa38693b10f09130e9e28189db6c0f567770b049c933deb4281212d087810121039e348c7acdc80ffc6ada9bd3c0977d0d8a13ef0c26304fad7aadca9fb988e63e"
          },
          "sequence": 4294967295
        }
      ],
      "vout": [
        {
          "value": 99.33827400,
          "n": 0,
          "scriptPubKey": {
            "asm": "OP_DUP OP_HASH160 e84dffab12edbd9a4a9a1459cf7d0bfd333b4781 OP_EQUALVERIFY OP_CHECKSIG",
            "hex": "76a914e84dffab12edbd9a4a9a1459cf7d0bfd333b478188ac",
            "reqSigs": 1,
            "type": "pubkeyhash",
            "addresses": [
              "LgQGUAPPDhVqNyPBYGJMAam3cz1Fe4UePm"
            ]
          }
        }, 
        {
          "value": 0.66150000,
          "n": 1,
          "scriptPubKey": {
            "asm": "OP_DUP OP_HASH160 71c9e0b13a4a9f6488fc32a7aa6874a077d68c04 OP_EQUALVERIFY OP_CHECKSIG",
            "hex": "76a91471c9e0b13a4a9f6488fc32a7aa6874a077d68c0488ac",
            "reqSigs": 1,
            "type": "pubkeyhash",
            "addresses": [
              "LVbcTbg7CXcobWdKgacV1jVcDWniSwc32Q"
            ]
          }
        }
      ],
      "hex": "01000000012911d2718ad19a0c72e68ffde01f862f250271c6450cac1d8d2f81376bb71dcf1e0000006a47304402201fb844311de67b96a02b0c5e9b93e72e3b31cf61c38b056b05effa3526e618a702202a09fa38693b10f09130e9e28189db6c0f567770b049c933deb4281212d087810121039e348c7acdc80ffc6ada9bd3c0977d0d8a13ef0c26304fad7aadca9fb988e63effffffff02482d1a50020000001976a914e84dffab12edbd9a4a9a1459cf7d0bfd333b478188ac705ef103000000001976a91471c9e0b13a4a9f6488fc32a7aa6874a077d68c0488ac00000000"
    }, 
    {
      "txid": "3d744e9ea33a32add3a1ab3519e871e0e75bd540d4fb1d81eae824c5b1e6ed33",
      "hash": "3d744e9ea33a32add3a1ab3519e871e0e75bd540d4fb1d81eae824c5b1e6ed33",
      "version": 1,
      "size": 226,
      "vsize": 226,
      "locktime": 0,
      "vin": [
        {
          "txid": "0f0a37c0fe0884305554803d3c3b8f4d37879047a060ceb651ed688ff8ee92bd",
          "vout": 0,
          "scriptSig": {
            "asm": "304502210088df52e27df8a446c5d89bed1a4c1330a38560f6a701a535fecf25dd262cc74f0220126d6ad9f0cae957dcf37bebbcb1d6f3af170865253a32c17e61e14294a58353[ALL] 02ef701a3cf826e309550d434d3c764509806c0fe123aaf3f5cecefa0683185cc9",
            "hex": "48304502210088df52e27df8a446c5d89bed1a4c1330a38560f6a701a535fecf25dd262cc74f0220126d6ad9f0cae957dcf37bebbcb1d6f3af170865253a32c17e61e14294a58353012102ef701a3cf826e309550d434d3c764509806c0fe123aaf3f5cecefa0683185cc9"
          },
          "sequence": 4294967295
        }
      ],
      "vout": [
        {
          "value": 0.00054602,
          "n": 0,
          "scriptPubKey": {
            "asm": "OP_DUP OP_HASH160 2425979633fbf10793993cb0ac6020966767373e OP_EQUALVERIFY OP_CHECKSIG",
            "hex": "76a9142425979633fbf10793993cb0ac6020966767373e88ac",
            "reqSigs": 1,
            "type": "pubkeyhash",
            "addresses": [
              "LNX5d4oEe3acMP9cB5Y2PhjNDADz3Qv1MP"
            ]
          }
        }, 
        {
          "value": 0.00409556,
          "n": 1,
          "scriptPubKey": {
            "asm": "OP_DUP OP_HASH160 d458f360a4d74c6090267d0e6cb13f50f4bbb386 OP_EQUALVERIFY OP_CHECKSIG",
            "hex": "76a914d458f360a4d74c6090267d0e6cb13f50f4bbb38688ac",
            "reqSigs": 1,
            "type": "pubkeyhash",
            "addresses": [
              "Leak5HQFb7hKWr6uZpuSUNK6WPtGskQzBF"
            ]
          }
        }
      ],
      "hex": "0100000001bd92eef88f68ed51b6ce60a0479087374d8f3b3c3d805455308408fec0370a0f000000006b48304502210088df52e27df8a446c5d89bed1a4c1330a38560f6a701a535fecf25dd262cc74f0220126d6ad9f0cae957dcf37bebbcb1d6f3af170865253a32c17e61e14294a58353012102ef701a3cf826e309550d434d3c764509806c0fe123aaf3f5cecefa0683185cc9ffffffff024ad50000000000001976a9142425979633fbf10793993cb0ac6020966767373e88acd43f0600000000001976a914d458f360a4d74c6090267d0e6cb13f50f4bbb38688ac00000000"
    }, 
    {
      "txid": "cb71305fca83c7ca6b82e22e2e6c0748b3987d0e770d7cce215d2c19de3c91bf",
      "hash": "cb71305fca83c7ca6b82e22e2e6c0748b3987d0e770d7cce215d2c19de3c91bf",
      "version": 1,
      "size": 226,
      "vsize": 226,
      "locktime": 0,
      "vin": [
        {
          "txid": "cf1db76b37812f8d1dac0c45c67102252f861fe0fd8fe6720c9ad18a71d21129",
          "vout": 29,
          "scriptSig": {
            "asm": "3045022100ae4218882b3d9e75461c62f2f0437ad6114869052346b74b4ca279f16f7b842f02204f6851a278db8918ac8e8a4122e2d09673374309922c00aefd8c03270c16764b[ALL] 02690c9688fd7a6a2a570d14ecd3ec4303daa5d87be1fb9e014783cbba2e440505",
            "hex": "483045022100ae4218882b3d9e75461c62f2f0437ad6114869052346b74b4ca279f16f7b842f02204f6851a278db8918ac8e8a4122e2d09673374309922c00aefd8c03270c16764b012102690c9688fd7a6a2a570d14ecd3ec4303daa5d87be1fb9e014783cbba2e440505"
          },
          "sequence": 4294967295
        }
      ],
      "vout": [
        {
          "value": 1.19923916,
          "n": 0,
          "scriptPubKey": {
            "asm": "OP_DUP OP_HASH160 f2b64d8383b631e9483c7a6e60e0d15a535def35 OP_EQUALVERIFY OP_CHECKSIG",
            "hex": "76a914f2b64d8383b631e9483c7a6e60e0d15a535def3588ac",
            "reqSigs": 1,
            "type": "pubkeyhash",
            "addresses": [
              "LhMJBFnajziyKmVHWTCQzRdhfdLXibYdEM"
            ]
          }
        }, 
        {
          "value": 98.80053484,
          "n": 1,
          "scriptPubKey": {
            "asm": "OP_DUP OP_HASH160 cfed43fd08ad59b474e0446ce6c6262ca697563f OP_EQUALVERIFY OP_CHECKSIG",
            "hex": "76a914cfed43fd08ad59b474e0446ce6c6262ca697563f88ac",
            "reqSigs": 1,
            "type": "pubkeyhash",
            "addresses": [
              "LeBNNRWaD73kVEQvwsjztQi2oPY7H9LCBF"
            ]
          }
        }
      ],
      "hex": "01000000012911d2718ad19a0c72e68ffde01f862f250271c6450cac1d8d2f81376bb71dcf1d0000006b483045022100ae4218882b3d9e75461c62f2f0437ad6114869052346b74b4ca279f16f7b842f02204f6851a278db8918ac8e8a4122e2d09673374309922c00aefd8c03270c16764b012102690c9688fd7a6a2a570d14ecd3ec4303daa5d87be1fb9e014783cbba2e440505ffffffff02cce42507000000001976a914f2b64d8383b631e9483c7a6e60e0d15a535def3588aceca6e54c020000001976a914cfed43fd08ad59b474e0446ce6c6262ca697563f88ac00000000"
    }, 
    {
      "txid": "1d39cd647bdadcc612a4dd00baf87c289f6b78e38d2cd5229f88da49b0c9bce8",
      "hash": "1d39cd647bdadcc612a4dd00baf87c289f6b78e38d2cd5229f88da49b0c9bce8",
      "version": 1,
      "size": 226,
      "vsize": 226,
      "locktime": 0,
      "vin": [
        {
          "txid": "d59de28d5601e60e57dcb72e54693c1541bd49b0a487356aea45572825ed884d",
          "vout": 41,
          "scriptSig": {
            "asm": "3045022100ebe7a69ccb48e31aa61a6a8a4b214cb4ff5229e8ade03fa7c663e0dd219d6d7f02203b107b2e5b8b5a0d92b5bc877db0f86fd701580952796fe5a7ee271fa6be5ab8[ALL] 03fa8c4e6e380a4021cb72dbe49ab4a0fa25442a8f24dfee1e6331108493f76073",
            "hex": "483045022100ebe7a69ccb48e31aa61a6a8a4b214cb4ff5229e8ade03fa7c663e0dd219d6d7f02203b107b2e5b8b5a0d92b5bc877db0f86fd701580952796fe5a7ee271fa6be5ab8012103fa8c4e6e380a4021cb72dbe49ab4a0fa25442a8f24dfee1e6331108493f76073"
          },
          "sequence": 4294967295
        }
      ],
      "vout": [
        {
          "value": 0.00054906,
          "n": 0,
          "scriptPubKey": {
            "asm": "OP_DUP OP_HASH160 026072b82af6cbee8d192a8b523d60e7317d7dfb OP_EQUALVERIFY OP_CHECKSIG",
            "hex": "76a914026072b82af6cbee8d192a8b523d60e7317d7dfb88ac",
            "reqSigs": 1,
            "type": "pubkeyhash",
            "addresses": [
              "LKSX9vsqAxHn2S8MvECgqofWypN14ABeyR"
            ]
          }
        }, 
        {
          "value": 0.04629726,
          "n": 1,
          "scriptPubKey": {
            "asm": "OP_DUP OP_HASH160 4366cdc551ef209d264fc75f94e651473bf279ad OP_EQUALVERIFY OP_CHECKSIG",
            "hex": "76a9144366cdc551ef209d264fc75f94e651473bf279ad88ac",
            "reqSigs": 1,
            "type": "pubkeyhash",
            "addresses": [
              "LRNLgzri1L55Yghywh8EvXRhLVWk9qEsME"
            ]
          }
        }
      ],
      "hex": "01000000014d88ed25285745ea6a3587a4b049bd41153c69542eb7dc570ee601568de29dd5290000006b483045022100ebe7a69ccb48e31aa61a6a8a4b214cb4ff5229e8ade03fa7c663e0dd219d6d7f02203b107b2e5b8b5a0d92b5bc877db0f86fd701580952796fe5a7ee271fa6be5ab8012103fa8c4e6e380a4021cb72dbe49ab4a0fa25442a8f24dfee1e6331108493f76073ffffffff027ad60000000000001976a914026072b82af6cbee8d192a8b523d60e7317d7dfb88acdea44600000000001976a9144366cdc551ef209d264fc75f94e651473bf279ad88ac00000000"
    }, 
    {
      "txid": "b6310f0f5d369dca1cf13b5acdb584462664fffe0ec457540f69b2c6f7ca90f7",
      "hash": "b6310f0f5d369dca1cf13b5acdb584462664fffe0ec457540f69b2c6f7ca90f7",
      "version": 2,
      "size": 226,
      "vsize": 226,
      "locktime": 1357899,
      "vin": [
        {
          "txid": "7aebf46ec357bc80b64a9df9a7faf09dfdc043fb44869f1b4f7c86ebcc3af04e",
          "vout": 1,
          "scriptSig": {
            "asm": "3045022100fdc893378ee3f7df79a03ccecc097af02f0c6159bc4fc5340e0d3cae17484ccb02204684cf3b9e03fc7a26d56a96a5eb4ff3ae7739861a16295616d8fe2f517dae45[ALL] 026706cc11e6ccf34de3266f4526cdd30bade5858c78f00f6123774596f9d13091",
            "hex": "483045022100fdc893378ee3f7df79a03ccecc097af02f0c6159bc4fc5340e0d3cae17484ccb02204684cf3b9e03fc7a26d56a96a5eb4ff3ae7739861a16295616d8fe2f517dae450121026706cc11e6ccf34de3266f4526cdd30bade5858c78f00f6123774596f9d13091"
          },
          "sequence": 4294967294
        }
      ],
      "vout": [
        {
          "value": 0.33975086,
          "n": 0,
          "scriptPubKey": {
            "asm": "OP_DUP OP_HASH160 f5241280cace4c214fa17ce11fc0f23b8a48f679 OP_EQUALVERIFY OP_CHECKSIG",
            "hex": "76a914f5241280cace4c214fa17ce11fc0f23b8a48f67988ac",
            "reqSigs": 1,
            "type": "pubkeyhash",
            "addresses": [
              "Lha92ZGsuHhsaqXsU2KNuG866c7c6SGZT3"
            ]
          }
        }, 
        {
          "value": 1.00601414,
          "n": 1,
          "scriptPubKey": {
            "asm": "OP_DUP OP_HASH160 ab56a08c0f1c87b514b37c66d725a941b40ca814 OP_EQUALVERIFY OP_CHECKSIG",
            "hex": "76a914ab56a08c0f1c87b514b37c66d725a941b40ca81488ac",
            "reqSigs": 1,
            "type": "pubkeyhash",
            "addresses": [
              "LaquayWECGjxMVL3xgRLGi2Aj2Fo99ZfM4"
            ]
          }
        }
      ],
      "hex": "02000000014ef03acceb867c4f1b9f8644fb43c0fd9df0faa7f99d4ab680bc57c36ef4eb7a010000006b483045022100fdc893378ee3f7df79a03ccecc097af02f0c6159bc4fc5340e0d3cae17484ccb02204684cf3b9e03fc7a26d56a96a5eb4ff3ae7739861a16295616d8fe2f517dae450121026706cc11e6ccf34de3266f4526cdd30bade5858c78f00f6123774596f9d13091feffffff022e6b0602000000001976a914f5241280cace4c214fa17ce11fc0f23b8a48f67988ac460eff05000000001976a914ab56a08c0f1c87b514b37c66d725a941b40ca81488ac4bb81400"
    }
  ],
  "time": 1517063110,
  "mediantime": 1517062543,
  "nonce": 3593626633,
  "bits": "1a047f14",
  "difficulty": 3731199.183374282,
  "chainwork": "000000000000000000000000000000000000000000000032a07dbd5664d592ec",
  "previousblockhash": "7070dccbdd55948faf1b48bcdc89c0d6844c23d9507fd066a028031ae951911c",
  "nextblockhash": "db1ab58d48052f453889ba8cda899da81e04e19ad622d4eedcd967f0870cc856"
}
