{
  "hash": "171552a2050595bca66e82a75eabba6d6fdb380ef4fc83a4d380bfc952a05570",
  "confirmations": 1650,
  "strippedsize": 1165,
  "size": 1201,
  "weight": 4696,
  "height": 1359344,
  "version": 536870912,
  "versionHex": "20000000",
  "merkleroot": "d44d6d3ac6c7be8e1bb305d5881b48649891f5ee981b00b6d1977cd753b2a60d",
  "tx": [
    {
      "txid": "4c922f46596786333d2f43c7ada492978fdcaa03ef0f509c43e541b6b6e3e063",
      "hash": "79ef9a0e31ec2833b4a9a1a029980ba3d168f472fdd4c8459a51c2a9caa7a92f",
      "version": 1,
      "size": 251,
      "vsize": 224,
      "locktime": 0,
      "vin": [
        {
          "coinbase": "03f0bd140000000000fabe6d6d1ea103a7ab4ec95d10556c22542f6c6d52a3dcf46833e539dd9fc019460db95401000000000000000436b26f5a041550ea02089fd3ffe355560b740a42570a6657042f42572f",
          "sequence": 4294967295
        }
      ],
      "vout": [
        {
          "value": 25.00245200,
          "n": 0,
          "scriptPubKey": {
            "asm": "OP_DUP OP_HASH160 5373bc9425fd49e6bfe522d3dfc85432da2cc023 OP_EQUALVERIFY OP_CHECKSIG",
            "hex": "76a9145373bc9425fd49e6bfe522d3dfc85432da2cc02388ac",
            "reqSigs": 1,
            "type": "pubkeyhash",
            "addresses": [
              "LSqCzf5bPfkqGf94pJcfxWx5bZMPJE5XRf"
            ]
          }
        }, 
        {
          "value": 0.00000000,
          "n": 1,
          "scriptPubKey": {
            "asm": "OP_RETURN aa21a9ed97f3ff7deb5f6a2e5c27c4cc45b7dab1daaf7127a4be533790b32cab6b4d050d",
            "hex": "6a24aa21a9ed97f3ff7deb5f6a2e5c27c4cc45b7dab1daaf7127a4be533790b32cab6b4d050d",
            "type": "nulldata"
          }
        }
      ],
      "hex": "010000000001010000000000000000000000000000000000000000000000000000000000000000ffffffff5303f0bd140000000000fabe6d6d1ea103a7ab4ec95d10556c22542f6c6d52a3dcf46833e539dd9fc019460db95401000000000000000436b26f5a041550ea02089fd3ffe355560b740a42570a6657042f42572fffffffff02d0b60695000000001976a9145373bc9425fd49e6bfe522d3dfc85432da2cc02388ac0000000000000000266a24aa21a9ed97f3ff7deb5f6a2e5c27c4cc45b7dab1daaf7127a4be533790b32cab6b4d050d0120000000000000000000000000000000000000000000000000000000000000000000000000"
    }, 
    {
      "txid": "164b6bfacf6c6690dc50ec90758fd4857b9310fdaa2fee3898874b64433522ca",
      "hash": "164b6bfacf6c6690dc50ec90758fd4857b9310fdaa2fee3898874b64433522ca",
      "version": 1,
      "size": 192,
      "vsize": 192,
      "locktime": 0,
      "vin": [
        {
          "txid": "e4c26175328f4a4646e2491317873f34b3edfca0e15c79b5d2a0646428c21450",
          "vout": 0,
          "scriptSig": {
            "asm": "3045022100f6f048881e897842c4afb00567bc508950f0018760767d7d494d1b5a7e3664f50220521dcf77e19885c0c5003e6ef595ffda6bdb89cfdc61a9840ce386b84a4a9ec7[ALL] 032dc547ce581ab509130d54fbbd5838ac2f9d1ce6e9626d974b362b481d58e27e",
            "hex": "483045022100f6f048881e897842c4afb00567bc508950f0018760767d7d494d1b5a7e3664f50220521dcf77e19885c0c5003e6ef595ffda6bdb89cfdc61a9840ce386b84a4a9ec70121032dc547ce581ab509130d54fbbd5838ac2f9d1ce6e9626d974b362b481d58e27e"
          },
          "sequence": 4294967294
        }
      ],
      "vout": [
        {
          "value": 1.98900000,
          "n": 0,
          "scriptPubKey": {
            "asm": "OP_DUP OP_HASH160 3bf3f4a82c19fdf3b8c389f3a78d48eac991749b OP_EQUALVERIFY OP_CHECKSIG",
            "hex": "76a9143bf3f4a82c19fdf3b8c389f3a78d48eac991749b88ac",
            "reqSigs": 1,
            "type": "pubkeyhash",
            "addresses": [
              "LQgxNsPYBikZCAv5NSavHrTUfnGqqGWiXA"
            ]
          }
        }
      ],
      "hex": "01000000015014c2286464a0d2b5795ce1a0fcedb3343f87171349e246464a8f327561c2e4000000006b483045022100f6f048881e897842c4afb00567bc508950f0018760767d7d494d1b5a7e3664f50220521dcf77e19885c0c5003e6ef595ffda6bdb89cfdc61a9840ce386b84a4a9ec70121032dc547ce581ab509130d54fbbd5838ac2f9d1ce6e9626d974b362b481d58e27efeffffff0120f9da0b000000001976a9143bf3f4a82c19fdf3b8c389f3a78d48eac991749b88ac00000000"
    }, 
    {
      "txid": "e57ba25165e4ce9d796d28e44b10d88f6a40c0d70fb96b155f718601f2049320",
      "hash": "e57ba25165e4ce9d796d28e44b10d88f6a40c0d70fb96b155f718601f2049320",
      "version": 1,
      "size": 225,
      "vsize": 225,
      "locktime": 0,
      "vin": [
        {
          "txid": "1eafc60dae5acea19e695606de0e313949e75b5260653d7b6d87a7850e1fca9b",
          "vout": 1,
          "scriptSig": {
            "asm": "3044022038d477ae73b41de863f179b56790e2eace3368c6c0097fa8cf3547dac46196b702200d9c6137245f0bdc50db41e4190abd06d1d450c0c33bc4991f55857fc79f4fb8[ALL] 0253c8a81aa93c81b283e326739e6ecb202753a85b7e5f09cbfdb36e0b561cf857",
            "hex": "473044022038d477ae73b41de863f179b56790e2eace3368c6c0097fa8cf3547dac46196b702200d9c6137245f0bdc50db41e4190abd06d1d450c0c33bc4991f55857fc79f4fb801210253c8a81aa93c81b283e326739e6ecb202753a85b7e5f09cbfdb36e0b561cf857"
          },
          "sequence": 4294967295
        }
      ],
      "vout": [
        {
          "value": 3.00000000,
          "n": 0,
          "scriptPubKey": {
            "asm": "OP_DUP OP_HASH160 ae1846bc35fc3399818baa0f609bdf469c8a0761 OP_EQUALVERIFY OP_CHECKSIG",
            "hex": "76a914ae1846bc35fc3399818baa0f609bdf469c8a076188ac",
            "reqSigs": 1,
            "type": "pubkeyhash",
            "addresses": [
              "Lb6UvLcpkMw1K4TZ1Ksz7XDANqjSF2D4Qr"
            ]
          }
        }, 
        {
          "value": 1.99900000,
          "n": 1,
          "scriptPubKey": {
            "asm": "OP_DUP OP_HASH160 f1f3ccbeb325a9b8a7c820f84b4f783e56b8cb1c OP_EQUALVERIFY OP_CHECKSIG",
            "hex": "76a914f1f3ccbeb325a9b8a7c820f84b4f783e56b8cb1c88ac",
            "reqSigs": 1,
            "type": "pubkeyhash",
            "addresses": [
              "LhHHAx4cFgJbVBxwW1bb2njFawH9fy3oYp"
            ]
          }
        }
      ],
      "hex": "01000000019bca1f0e85a7876d7b3d6560525be74939310ede0656699ea1ce5aae0dc6af1e010000006a473044022038d477ae73b41de863f179b56790e2eace3368c6c0097fa8cf3547dac46196b702200d9c6137245f0bdc50db41e4190abd06d1d450c0c33bc4991f55857fc79f4fb801210253c8a81aa93c81b283e326739e6ecb202753a85b7e5f09cbfdb36e0b561cf857ffffffff0200a3e111000000001976a914ae1846bc35fc3399818baa0f609bdf469c8a076188ac603bea0b000000001976a914f1f3ccbeb325a9b8a7c820f84b4f783e56b8cb1c88ac00000000"
    }, 
    {
      "txid": "e85c20d776031e268a56723753a5d08f90ac4c56bdf322c5b07d3d2eb8c0ed20",
      "hash": "e85c20d776031e268a56723753a5d08f90ac4c56bdf322c5b07d3d2eb8c0ed20",
      "version": 1,
      "size": 226,
      "vsize": 226,
      "locktime": 0,
      "vin": [
        {
          "txid": "e21fa5ae101df20e6e15623ef970e4fa69b01be7a21a2e54a42f09e8cad8615d",
          "vout": 3,
          "scriptSig": {
            "asm": "3045022100c99fba95f55fa65eff26ca613e8a5d22f8adfa22ebf207b0e36c5c8e0c0878bb0220040b1bae35354abd84e1a83193e112f21304011e9e30cee690bdd8c9658baf2d[ALL] 0301ef82fb9811178734ddd677abfddae8f8ab672d026813224abf067998bc2ae1",
            "hex": "483045022100c99fba95f55fa65eff26ca613e8a5d22f8adfa22ebf207b0e36c5c8e0c0878bb0220040b1bae35354abd84e1a83193e112f21304011e9e30cee690bdd8c9658baf2d01210301ef82fb9811178734ddd677abfddae8f8ab672d026813224abf067998bc2ae1"
          },
          "sequence": 4294967295
        }
      ],
      "vout": [
        {
          "value": 0.29000000,
          "n": 0,
          "scriptPubKey": {
            "asm": "OP_DUP OP_HASH160 c9ce21218c896a95bc1bce17d0c5bab4c13ad871 OP_EQUALVERIFY OP_CHECKSIG",
            "hex": "76a914c9ce21218c896a95bc1bce17d0c5bab4c13ad87188ac",
            "reqSigs": 1,
            "type": "pubkeyhash",
            "addresses": [
              "Ldd11tocwRJX5qHdnzaN8hs9X2wZqksxJj"
            ]
          }
        }, 
        {
          "value": 1.69977400,
          "n": 1,
          "scriptPubKey": {
            "asm": "OP_DUP OP_HASH160 1f01442759387bb795c4cecc53c67696954135f7 OP_EQUALVERIFY OP_CHECKSIG",
            "hex": "76a9141f01442759387bb795c4cecc53c67696954135f788ac",
            "reqSigs": 1,
            "type": "pubkeyhash",
            "addresses": [
              "LN3tj8zdzzyCpCrMG18SUfJwhBPkJkXkHT"
            ]
          }
        }
      ],
      "hex": "01000000015d61d8cae8092fa4542e1aa2e71bb069fae470f93e62156e0ef21d10aea51fe2030000006b483045022100c99fba95f55fa65eff26ca613e8a5d22f8adfa22ebf207b0e36c5c8e0c0878bb0220040b1bae35354abd84e1a83193e112f21304011e9e30cee690bdd8c9658baf2d01210301ef82fb9811178734ddd677abfddae8f8ab672d026813224abf067998bc2ae1ffffffff024081ba01000000001976a914c9ce21218c896a95bc1bce17d0c5bab4c13ad87188ac38a6210a000000001976a9141f01442759387bb795c4cecc53c67696954135f788ac00000000"
    }, 
    {
      "txid": "aa76d37f133198b017dd927af29dd8a4a9d2fb97f01e770e7d409d547272a144",
      "hash": "aa76d37f133198b017dd927af29dd8a4a9d2fb97f01e770e7d409d547272a144",
      "version": 2,
      "size": 226,
      "vsize": 226,
      "locktime": 1359342,
      "vin": [
        {
          "txid": "b7e84f80678027c3644ccfdbc8250bea1b80b1f7aaf77059aaa8bcad6baec229",
          "vout": 1,
          "scriptSig": {
            "asm": "304502210095e8f467cb1266b4a47a86d18bbfcc7bbf622a527caf0b7c6a0202019b853a03022039b8fe65a3baa3f6941c73db1f690c6f1e1ccd910413c25827a1483a4f624016[ALL] 03a04f28890c1bebb69aabba0ca35f7895f4d9c3b86f94117fd89a8d71bd45a58e",
            "hex": "48304502210095e8f467cb1266b4a47a86d18bbfcc7bbf622a527caf0b7c6a0202019b853a03022039b8fe65a3baa3f6941c73db1f690c6f1e1ccd910413c25827a1483a4f624016012103a04f28890c1bebb69aabba0ca35f7895f4d9c3b86f94117fd89a8d71bd45a58e"
          },
          "sequence": 4294967294
        }
      ],
      "vout": [
        {
          "value": 104.00550217,
          "n": 0,
          "scriptPubKey": {
            "asm": "OP_DUP OP_HASH160 fff52e4eeae16da134fe200baf11ee8e0442cd64 OP_EQUALVERIFY OP_CHECKSIG",
            "hex": "76a914fff52e4eeae16da134fe200baf11ee8e0442cd6488ac",
            "reqSigs": 1,
            "type": "pubkeyhash",
            "addresses": [
              "LiZLHbZosRFzNZgHorckXSWQDtdQjAVocC"
            ]
          }
        }, 
        {
          "value": 0.13000000,
          "n": 1,
          "scriptPubKey": {
            "asm": "OP_DUP OP_HASH160 de94ac9a75ac008ef7daf1d2eb1680f89602f35c OP_EQUALVERIFY OP_CHECKSIG",
            "hex": "76a914de94ac9a75ac008ef7daf1d2eb1680f89602f35c88ac",
            "reqSigs": 1,
            "type": "pubkeyhash",
            "addresses": [
              "LfWrNsBo8EQ6Xoq1shNkTh5zPrwgHpkpDY"
            ]
          }
        }
      ],
      "hex": "020000000129c2ae6badbca8aa5970f7aaf7b1801bea0b25c8dbcf4c64c3278067804fe8b7010000006b48304502210095e8f467cb1266b4a47a86d18bbfcc7bbf622a527caf0b7c6a0202019b853a03022039b8fe65a3baa3f6941c73db1f690c6f1e1ccd910413c25827a1483a4f624016012103a04f28890c1bebb69aabba0ca35f7895f4d9c3b86f94117fd89a8d71bd45a58efeffffff0249cdeb6b020000001976a914fff52e4eeae16da134fe200baf11ee8e0442cd6488ac405dc600000000001976a914de94ac9a75ac008ef7daf1d2eb1680f89602f35c88aceebd1400"
    }
  ],
  "time": 1517269558,
  "mediantime": 1517269154,
  "nonce": 1273861006,
  "bits": "1a042eae",
  "difficulty": 4011378.762614286,
  "chainwork": "000000000000000000000000000000000000000000000033eac8934ecadd1a62",
  "previousblockhash": "80c390c7f9acc06114e0afc10bfab686579f171c5393ee8fea59ce731fb247d3",
  "nextblockhash": "845d573c91e7cb15cabbe0e290e179dd617224a51b1f182339705a2b471cf4c8"
}
