{
  "hash": "1759618a87589ecae7e27c334eedc73dde6c4804c2291122f64551a1faec6201",
  "confirmations": 1168,
  "strippedsize": 3003,
  "size": 4118,
  "weight": 13127,
  "height": 1359826,
  "version": 536870912,
  "versionHex": "20000000",
  "merkleroot": "a27f760d9d9903166dfe881cc247e4d2124d788302ab7f563418fc5d90f534f6",
  "tx": [
    {
      "txid": "2a281bbe31f0405c2c7884be6eb32f4287982c384f229216dc2fba80263944bc",
      "hash": "c7bea4250874e68633ee5bf0f79b4b6527f4d23b98e49f2ca846b6a476e6d1cc",
      "version": 1,
      "size": 259,
      "vsize": 232,
      "locktime": 0,
      "vin": [
        {
          "coinbase": "03d2bf14182f5669614254432f4d696e656420627920327877756c692f2cfabe6d6d424f53a89b28cdb2445bf6b841239ced6f9ce66b1b6d691344284fce18280e2201000000000000001081826e00d5d67373911bd92a22000000",
          "sequence": 4294967295
        }
      ],
      "vout": [
        {
          "value": 25.00299695,
          "n": 0,
          "scriptPubKey": {
            "asm": "OP_DUP OP_HASH160 e16c28146ed4869c190b3f0bdc18d80d45f92134 OP_EQUALVERIFY OP_CHECKSIG",
            "hex": "76a914e16c28146ed4869c190b3f0bdc18d80d45f9213488ac",
            "reqSigs": 1,
            "type": "pubkeyhash",
            "addresses": [
              "LfmssDyX6iZvbVqHv6t9P6JWXia2JG7mdb"
            ]
          }
        }, 
        {
          "value": 0.00000000,
          "n": 1,
          "scriptPubKey": {
            "asm": "OP_RETURN aa21a9edf9992e9dbda720443cb2c9cef801913478598f7158018083152cbd13e09befd1",
            "hex": "6a24aa21a9edf9992e9dbda720443cb2c9cef801913478598f7158018083152cbd13e09befd1",
            "type": "nulldata"
          }
        }
      ],
      "hex": "010000000001010000000000000000000000000000000000000000000000000000000000000000ffffffff5b03d2bf14182f5669614254432f4d696e656420627920327877756c692f2cfabe6d6d424f53a89b28cdb2445bf6b841239ced6f9ce66b1b6d691344284fce18280e2201000000000000001081826e00d5d67373911bd92a22000000ffffffff02af8b0795000000001976a914e16c28146ed4869c190b3f0bdc18d80d45f9213488ac0000000000000000266a24aa21a9edf9992e9dbda720443cb2c9cef801913478598f7158018083152cbd13e09befd10120000000000000000000000000000000000000000000000000000000000000000000000000"
    }, 
    {
      "txid": "172c19bac929bf35a7fb8a138cd0595871b8634a7a10c8517243ed6d7b32888a",
      "hash": "a38c3c9790f570728077b530974fb92945aa3fcde96505426934ef8e9daf2804",
      "version": 1,
      "size": 422,
      "vsize": 259,
      "locktime": 0,
      "vin": [
        {
          "txid": "ab4e64bf7c90e798d0d07dd725a4e7dd85009a644bee0ac985e5012d7103fe6c",
          "vout": 1,
          "scriptSig": {
            "asm": "0014f3bd26e4dfde01c31fef7a13de6546859c376ceb",
            "hex": "160014f3bd26e4dfde01c31fef7a13de6546859c376ceb"
          },
          "txinwitness": [
            "3045022100f0979a418188999d122cbf4b7748639349c3e3b92d388d75c77cd3fbd59fe3b702206de11973c2c0b4e73949dfbf968afe8138b3828cc325108c99e2e675e2d6808401", 
            "03538e8e5e406b2a1882ed47b16bee282a19f1fd6df8f1f03c2c52375f7e845c12"
          ],
          "sequence": 4294967295
        }, 
        {
          "txid": "d395ed5f341a24c8e9c2fdfb1762d81633a77ac9c307be3e9ee7806a6bcd8294",
          "vout": 11,
          "scriptSig": {
            "asm": "0014773ef44a4e42f87dd5fe8596ff14c44556a827f5",
            "hex": "160014773ef44a4e42f87dd5fe8596ff14c44556a827f5"
          },
          "txinwitness": [
            "3045022100d1ce99082cf3a779ae78c70c8f9c7d321e7c75624e0cd08a570f628a515229be022054dcd8193506fa7314a501bb2fb0a88519f520f64b2485b214c5f477f24f266601", 
            "03a834eb826fb124ac7e24f6524108ffea48f79dc054a875c1921d0f32c473da39"
          ],
          "sequence": 4294967295
        }
      ],
      "vout": [
        {
          "value": 35.51585977,
          "n": 0,
          "scriptPubKey": {
            "asm": "OP_HASH160 a142ca829d1e4cdba93e7f5e91c70712d103d56e OP_EQUAL",
            "hex": "a914a142ca829d1e4cdba93e7f5e91c70712d103d56e87",
            "reqSigs": 1,
            "type": "scripthash",
            "addresses": [
              "MNbq33Ci2DnA3UB222oThVjj6StbBMuBYj"
            ]
          }
        }, 
        {
          "value": 85.00000000,
          "n": 1,
          "scriptPubKey": {
            "asm": "OP_DUP OP_HASH160 3d1ff2677fc5fc498552ff2525af7aa67cdd9afd OP_EQUALVERIFY OP_CHECKSIG",
            "hex": "76a9143d1ff2677fc5fc498552ff2525af7aa67cdd9afd88ac",
            "reqSigs": 1,
            "type": "pubkeyhash",
            "addresses": [
              "LQo9kd881k3vff9mby8kmQSy5jccKESadz"
            ]
          }
        }
      ],
      "hex": "010000000001026cfe03712d01e585c90aee4b649a0085dde7a425d77dd0d098e7907cbf644eab0100000017160014f3bd26e4dfde01c31fef7a13de6546859c376cebffffffff9482cd6b6a80e79e3ebe07c3c97aa73316d86217fbfdc2e9c8241a345fed95d30b00000017160014773ef44a4e42f87dd5fe8596ff14c44556a827f5ffffffff02b9e6b0d30000000017a914a142ca829d1e4cdba93e7f5e91c70712d103d56e8700b5a3fa010000001976a9143d1ff2677fc5fc498552ff2525af7aa67cdd9afd88ac02483045022100f0979a418188999d122cbf4b7748639349c3e3b92d388d75c77cd3fbd59fe3b702206de11973c2c0b4e73949dfbf968afe8138b3828cc325108c99e2e675e2d68084012103538e8e5e406b2a1882ed47b16bee282a19f1fd6df8f1f03c2c52375f7e845c1202483045022100d1ce99082cf3a779ae78c70c8f9c7d321e7c75624e0cd08a570f628a515229be022054dcd8193506fa7314a501bb2fb0a88519f520f64b2485b214c5f477f24f2666012103a834eb826fb124ac7e24f6524108ffea48f79dc054a875c1921d0f32c473da3900000000"
    }, 
    {
      "txid": "5ef66499d3c00280dbc9c6ae209bc5a56f9c9aebfe06396faa287f7601b20bc3",
      "hash": "26b888c418bf2c5f909af7362441fe38902dabefcc85d3da68d90805a35d5a51",
      "version": 1,
      "size": 1449,
      "vsize": 804,
      "locktime": 0,
      "vin": [
        {
          "txid": "17e61229a0c906756003bbcf7b59c44b77e943ecc2806754c982a8f3e323a970",
          "vout": 1,
          "scriptSig": {
            "asm": "0014fc7f5358c8e608a4f987662b140eaf1363de9ea7",
            "hex": "160014fc7f5358c8e608a4f987662b140eaf1363de9ea7"
          },
          "txinwitness": [
            "30450221008cb4c0afcffc7a19e02bab586d3fa7dbb092ee54801d09f953e77e676684a9e502204c592934387204323385dd3d814405213be76d05277ef8598717a1f914d64eee01", 
            "0239abba463f9ca0c3cc0ea5fc861deb407cc1c53bd677515d12465928e041d28e"
          ],
          "sequence": 4294967295
        }, 
        {
          "txid": "2de0b43676a42ac44f8591d0f518e0343a12004bcc7958139ef669cafb38ace1",
          "vout": 5,
          "scriptSig": {
            "asm": "00140efc99e2fe2c12875d046ae5f074bfea3921696f",
            "hex": "1600140efc99e2fe2c12875d046ae5f074bfea3921696f"
          },
          "txinwitness": [
            "304402203bc017057fc4b2bd3806824adb9944a156ed9ffdd710ddd39c0aa7b1fb99fc790220598ebca3b2b4c5ed659b283c5e3bc8e861bccb63e169c0deeb680698c3af431a01", 
            "0268fd80e4723c056d9a75f1e5dccf41267bcfd4063adbd41aa4f61eca3b177413"
          ],
          "sequence": 4294967295
        }, 
        {
          "txid": "3f9254472c8d5611b66633fb5c0806b0634f19a99fa62a206bcb8aed3bcb140f",
          "vout": 0,
          "scriptSig": {
            "asm": "0014fc7f5358c8e608a4f987662b140eaf1363de9ea7",
            "hex": "160014fc7f5358c8e608a4f987662b140eaf1363de9ea7"
          },
          "txinwitness": [
            "304402204ebec26e9318084086e9199e7c59af0e06b1eb8bdc892219bb4c36f6425ec4a802200247b2446dd4fbac9cbecaa885172e0833b2267fbca02f909b74f5953553843901", 
            "0239abba463f9ca0c3cc0ea5fc861deb407cc1c53bd677515d12465928e041d28e"
          ],
          "sequence": 4294967295
        }, 
        {
          "txid": "57f55b502a4a87a7d186ef35b6ec5ec892e03dab485cb69bed72f258913c46da",
          "vout": 0,
          "scriptSig": {
            "asm": "0014af7a1d82511f1df601390ad195204fe67f4bbcb2",
            "hex": "160014af7a1d82511f1df601390ad195204fe67f4bbcb2"
          },
          "txinwitness": [
            "304402200baba2d26bc7356229d4566d20dd0b04f22403f8f711fd0d4712316fe1ad28cb02202acc39eef5ba891a8123dd493363ead56370798d6a30e0d9ec3c4849e0d56a2001", 
            "025efcc525b97864f6fdf975df42f483ac2c0ba31427523ebb175e2c015e410720"
          ],
          "sequence": 4294967295
        }, 
        {
          "txid": "6ef3e200d563bd05df97bd1d96281696506e3914201c75f1b0241871d9018049",
          "vout": 1,
          "scriptSig": {
            "asm": "0014af7a1d82511f1df601390ad195204fe67f4bbcb2",
            "hex": "160014af7a1d82511f1df601390ad195204fe67f4bbcb2"
          },
          "txinwitness": [
            "3045022100b5d46233f8e1817d30e4276d96c51b9d1bc3e348fb4fd75b48210f04dabbd866022009248fbc7d0f777f3952830d47749a6fcfecf52fb18a77c9c83c4337e5696e8f01", 
            "025efcc525b97864f6fdf975df42f483ac2c0ba31427523ebb175e2c015e410720"
          ],
          "sequence": 4294967295
        }, 
        {
          "txid": "8d756f09abf532c614c90d9a68a544e61df018c9edd67fe5946d669d6ea97449",
          "vout": 0,
          "scriptSig": {
            "asm": "00140fd4f0bf4a2b7f047dde37306c58eb8bea62dc09",
            "hex": "1600140fd4f0bf4a2b7f047dde37306c58eb8bea62dc09"
          },
          "txinwitness": [
            "304402205fd4f5da3d48ad27b5ea5e4f4273b735bb58ea31b7f9afeed726ddade3ff2422022016d4823f191a079f0716af4a6c2e61eacdc1da0737c001d57299766efa29159601", 
            "02ac0d053babba626705043bd224c24848b740e958a8e0382708d23f924ffbfa7d"
          ],
          "sequence": 4294967295
        }, 
        {
          "txid": "edd158a0d86a743a8cefa559aab3913c05c28ee92fb8c55a298dcf505a686620",
          "vout": 0,
          "scriptSig": {
            "asm": "0014f1fe264e45d62233a55cd5c7f8a80c667bc618a0",
            "hex": "160014f1fe264e45d62233a55cd5c7f8a80c667bc618a0"
          },
          "txinwitness": [
            "304402201d5329dbe88c42cba05a78aaed7d3d87876616b0e5e8f0b09652b148f6ac125202204e053266cb044f7f6ef3b0bc5a43082b23ed42553263bab532abb6051ef28d7a01", 
            "039f14bf68a7db115378f564ab121818920efa217322b05c5e15f3d1f8478f7f92"
          ],
          "sequence": 4294967295
        }, 
        {
          "txid": "f3ff47c5609a1f5d5138837434b2f92aaac204405b853bb8c64bcf5819647eea",
          "vout": 0,
          "scriptSig": {
            "asm": "00145f0e50b74e25e9527dc5e40653207cd86c6638e3",
            "hex": "1600145f0e50b74e25e9527dc5e40653207cd86c6638e3"
          },
          "txinwitness": [
            "3045022100f88e62a266d66c7d63b0227826931199c39c727dcc46457b427b2a353171e66a022040c81c9a54ca7ef78b027d1b9343182045db4cfe23029de4e3da2d28905075e401", 
            "03c9e994902ded71189a5fb8a4dc2a9ac3991331b70ab4b18edb492b192603a3dd"
          ],
          "sequence": 4294967295
        }
      ],
      "vout": [
        {
          "value": 0.01155728,
          "n": 0,
          "scriptPubKey": {
            "asm": "OP_HASH160 e08e569d4ed3e1b9a15252d2b8126d0a9d4ccaa2 OP_EQUAL",
            "hex": "a914e08e569d4ed3e1b9a15252d2b8126d0a9d4ccaa287",
            "reqSigs": 1,
            "type": "scripthash",
            "addresses": [
              "MUNW7EwyBjCWQdWvNJGPq2W61UG8tNyYQ7"
            ]
          }
        }, 
        {
          "value": 346.00000000,
          "n": 1,
          "scriptPubKey": {
            "asm": "OP_DUP OP_HASH160 07ff54dc9e7983db0542dd16174c3f3f515dfd5e OP_EQUALVERIFY OP_CHECKSIG",
            "hex": "76a91407ff54dc9e7983db0542dd16174c3f3f515dfd5e88ac",
            "reqSigs": 1,
            "type": "pubkeyhash",
            "addresses": [
              "LKxEsJHdTwYAJDz5ajf7swrQ7AQqKHrD5D"
            ]
          }
        }
      ],
      "hex": "0100000000010870a923e3f3a882c9546780c2ec43e9774bc4597bcfbb03607506c9a02912e6170100000017160014fc7f5358c8e608a4f987662b140eaf1363de9ea7ffffffffe1ac38fbca69f69e135879cc4b00123a34e018f5d091854fc42aa47636b4e02d05000000171600140efc99e2fe2c12875d046ae5f074bfea3921696fffffffff0f14cb3bed8acb6b202aa69fa9194f63b006085cfb3366b611568d2c4754923f0000000017160014fc7f5358c8e608a4f987662b140eaf1363de9ea7ffffffffda463c9158f272ed9bb65c48ab3de092c85eecb635ef86d1a7874a2a505bf5570000000017160014af7a1d82511f1df601390ad195204fe67f4bbcb2ffffffff498001d9711824b0f1751c2014396e50961628961dbd97df05bd63d500e2f36e0100000017160014af7a1d82511f1df601390ad195204fe67f4bbcb2ffffffff4974a96e9d666d94e57fd6edc918f01de644a5689a0dc914c632f5ab096f758d00000000171600140fd4f0bf4a2b7f047dde37306c58eb8bea62dc09ffffffff2066685a50cf8d295ac5b82fe98ec2053c91b3aa59a5ef8c3a746ad8a058d1ed0000000017160014f1fe264e45d62233a55cd5c7f8a80c667bc618a0ffffffffea7e641958cf4bc6b83b855b4004c2aa2af9b234748338515d1f9a60c547fff300000000171600145f0e50b74e25e9527dc5e40653207cd86c6638e3ffffffff0290a211000000000017a914e08e569d4ed3e1b9a15252d2b8126d0a9d4ccaa287001a520e080000001976a91407ff54dc9e7983db0542dd16174c3f3f515dfd5e88ac024830450221008cb4c0afcffc7a19e02bab586d3fa7dbb092ee54801d09f953e77e676684a9e502204c592934387204323385dd3d814405213be76d05277ef8598717a1f914d64eee01210239abba463f9ca0c3cc0ea5fc861deb407cc1c53bd677515d12465928e041d28e0247304402203bc017057fc4b2bd3806824adb9944a156ed9ffdd710ddd39c0aa7b1fb99fc790220598ebca3b2b4c5ed659b283c5e3bc8e861bccb63e169c0deeb680698c3af431a01210268fd80e4723c056d9a75f1e5dccf41267bcfd4063adbd41aa4f61eca3b1774130247304402204ebec26e9318084086e9199e7c59af0e06b1eb8bdc892219bb4c36f6425ec4a802200247b2446dd4fbac9cbecaa885172e0833b2267fbca02f909b74f5953553843901210239abba463f9ca0c3cc0ea5fc861deb407cc1c53bd677515d12465928e041d28e0247304402200baba2d26bc7356229d4566d20dd0b04f22403f8f711fd0d4712316fe1ad28cb02202acc39eef5ba891a8123dd493363ead56370798d6a30e0d9ec3c4849e0d56a200121025efcc525b97864f6fdf975df42f483ac2c0ba31427523ebb175e2c015e41072002483045022100b5d46233f8e1817d30e4276d96c51b9d1bc3e348fb4fd75b48210f04dabbd866022009248fbc7d0f777f3952830d47749a6fcfecf52fb18a77c9c83c4337e5696e8f0121025efcc525b97864f6fdf975df42f483ac2c0ba31427523ebb175e2c015e4107200247304402205fd4f5da3d48ad27b5ea5e4f4273b735bb58ea31b7f9afeed726ddade3ff2422022016d4823f191a079f0716af4a6c2e61eacdc1da0737c001d57299766efa291596012102ac0d053babba626705043bd224c24848b740e958a8e0382708d23f924ffbfa7d0247304402201d5329dbe88c42cba05a78aaed7d3d87876616b0e5e8f0b09652b148f6ac125202204e053266cb044f7f6ef3b0bc5a43082b23ed42553263bab532abb6051ef28d7a0121039f14bf68a7db115378f564ab121818920efa217322b05c5e15f3d1f8478f7f9202483045022100f88e62a266d66c7d63b0227826931199c39c727dcc46457b427b2a353171e66a022040c81c9a54ca7ef78b027d1b9343182045db4cfe23029de4e3da2d28905075e4012103c9e994902ded71189a5fb8a4dc2a9ac3991331b70ab4b18edb492b192603a3dd00000000"
    }, 
    {
      "txid": "75a6615e7b9670b1f3e3b94c0907a82c90bd47f78ac58f418e24cae527e9aa27",
      "hash": "75a6615e7b9670b1f3e3b94c0907a82c90bd47f78ac58f418e24cae527e9aa27",
      "version": 1,
      "size": 782,
      "vsize": 782,
      "locktime": 0,
      "vin": [
        {
          "txid": "848b897841b56bb74e87678fbe618ca35d9bf177141cf778eba175dd6711e8e7",
          "vout": 0,
          "scriptSig": {
            "asm": "3044022027fe2396dbbab92d37e04c80bd21417052b14b6621fd7c0ba1062b33072bbaf402205214fd91c187c1e4be6b0d67e38dded4b1a8f08ac9da1828baa16ee956af2d53[ALL] 0241db9a215d8cfff11eeb4c2402beade895bcc6b6a8dafaf9574a3a59bb3e3bbe",
            "hex": "473044022027fe2396dbbab92d37e04c80bd21417052b14b6621fd7c0ba1062b33072bbaf402205214fd91c187c1e4be6b0d67e38dded4b1a8f08ac9da1828baa16ee956af2d5301210241db9a215d8cfff11eeb4c2402beade895bcc6b6a8dafaf9574a3a59bb3e3bbe"
          },
          "sequence": 4294967295
        }, 
        {
          "txid": "b8b9016b2b2461b2cf652ea32b70fb07a32eb2009f5aaeeafe129f0e760b4363",
          "vout": 0,
          "scriptSig": {
            "asm": "3045022100a23421262efd389d645753aa18f13abd5334f15b129bdfacc4e39eefe607b5660220591cf651a968d9ea80a6f066a4e294390402d096fac0cb8d075d3fb4525f1486[ALL] 03390bd6ea447f74bb8c2745c199df8f29076b173f88b9e24268452d5dc980989d",
            "hex": "483045022100a23421262efd389d645753aa18f13abd5334f15b129bdfacc4e39eefe607b5660220591cf651a968d9ea80a6f066a4e294390402d096fac0cb8d075d3fb4525f1486012103390bd6ea447f74bb8c2745c199df8f29076b173f88b9e24268452d5dc980989d"
          },
          "sequence": 4294967295
        }, 
        {
          "txid": "b2f2693b1205fc40042c00fcd657263c9f32000bb3c1a0a6f76c60be535f8bd9",
          "vout": 1,
          "scriptSig": {
            "asm": "30450221009a060c7d81745cb7877769854783ae67567acd383f3d139169c74c39f9ab34fe02200d54af03c26b7add415a5d10c46a056266b75691957ab106782ad446041a9b28[ALL] 02ea4dcec749453973fda82df36dbff5f4473d76ad65367eb15f32aee12439e055",
            "hex": "4830450221009a060c7d81745cb7877769854783ae67567acd383f3d139169c74c39f9ab34fe02200d54af03c26b7add415a5d10c46a056266b75691957ab106782ad446041a9b28012102ea4dcec749453973fda82df36dbff5f4473d76ad65367eb15f32aee12439e055"
          },
          "sequence": 4294967295
        }, 
        {
          "txid": "fcae4f5ff3eae11d3d2b9b735cc5e03ad7ed6cbf50a09db1af0ec8d6ef740b11",
          "vout": 0,
          "scriptSig": {
            "asm": "304502210090318b07bab18bd0bdd757994103a6b71465dd69169b7c9afd0c767ae9efac3602206fbe42fa4eb63ff9ad09e02bfd27f6e2af289074f925aa7687f1f234cf9ba025[ALL] 02c3b88987bd81ee900717c505b651177c69d247056a27f774d4ba664631626053",
            "hex": "48304502210090318b07bab18bd0bdd757994103a6b71465dd69169b7c9afd0c767ae9efac3602206fbe42fa4eb63ff9ad09e02bfd27f6e2af289074f925aa7687f1f234cf9ba025012102c3b88987bd81ee900717c505b651177c69d247056a27f774d4ba664631626053"
          },
          "sequence": 4294967295
        }, 
        {
          "txid": "702319eb4e1ea1a8e6f9c41ee0a907e8a5392fc47848246154ed036cc35d2153",
          "vout": 1,
          "scriptSig": {
            "asm": "304402202a9b263a3e38345e0b2966c4fb518c0eefc20d5677900f90bf45b1e2252f6b3802203920e64fe0012c31b8f816c2d94b7c186b40f0bb0405420c200090a22abd56d6[ALL] 037d883d4d87bdde504d85e0e6438febffc8e191e4b3fd01a47a26a158e733aa2b",
            "hex": "47304402202a9b263a3e38345e0b2966c4fb518c0eefc20d5677900f90bf45b1e2252f6b3802203920e64fe0012c31b8f816c2d94b7c186b40f0bb0405420c200090a22abd56d60121037d883d4d87bdde504d85e0e6438febffc8e191e4b3fd01a47a26a158e733aa2b"
          },
          "sequence": 4294967295
        }
      ],
      "vout": [
        {
          "value": 0.59653416,
          "n": 0,
          "scriptPubKey": {
            "asm": "OP_DUP OP_HASH160 4c61316d776f6ac5390edb3e9873969811a753e8 OP_EQUALVERIFY OP_CHECKSIG",
            "hex": "76a9144c61316d776f6ac5390edb3e9873969811a753e888ac",
            "reqSigs": 1,
            "type": "pubkeyhash",
            "addresses": [
              "LSBp3tJzWiVg67EVwipW16cjbv9jMSn64d"
            ]
          }
        }
      ],
      "hex": "0100000005e7e81167dd75a1eb78f71c1477f19b5da38c61be8f67874eb76bb54178898b84000000006a473044022027fe2396dbbab92d37e04c80bd21417052b14b6621fd7c0ba1062b33072bbaf402205214fd91c187c1e4be6b0d67e38dded4b1a8f08ac9da1828baa16ee956af2d5301210241db9a215d8cfff11eeb4c2402beade895bcc6b6a8dafaf9574a3a59bb3e3bbeffffffff63430b760e9f12feeaae5a9f00b22ea307fb702ba32e65cfb261242b6b01b9b8000000006b483045022100a23421262efd389d645753aa18f13abd5334f15b129bdfacc4e39eefe607b5660220591cf651a968d9ea80a6f066a4e294390402d096fac0cb8d075d3fb4525f1486012103390bd6ea447f74bb8c2745c199df8f29076b173f88b9e24268452d5dc980989dffffffffd98b5f53be606cf7a6a0c1b30b00329f3c2657d6fc002c0440fc05123b69f2b2010000006b4830450221009a060c7d81745cb7877769854783ae67567acd383f3d139169c74c39f9ab34fe02200d54af03c26b7add415a5d10c46a056266b75691957ab106782ad446041a9b28012102ea4dcec749453973fda82df36dbff5f4473d76ad65367eb15f32aee12439e055ffffffff110b74efd6c80eafb19da050bf6cedd73ae0c55c739b2b3d1de1eaf35f4faefc000000006b48304502210090318b07bab18bd0bdd757994103a6b71465dd69169b7c9afd0c767ae9efac3602206fbe42fa4eb63ff9ad09e02bfd27f6e2af289074f925aa7687f1f234cf9ba025012102c3b88987bd81ee900717c505b651177c69d247056a27f774d4ba664631626053ffffffff53215dc36c03ed5461244878c42f39a5e807a9e01ec4f9e6a8a11e4eeb192370010000006a47304402202a9b263a3e38345e0b2966c4fb518c0eefc20d5677900f90bf45b1e2252f6b3802203920e64fe0012c31b8f816c2d94b7c186b40f0bb0405420c200090a22abd56d60121037d883d4d87bdde504d85e0e6438febffc8e191e4b3fd01a47a26a158e733aa2bffffffff01283d8e03000000001976a9144c61316d776f6ac5390edb3e9873969811a753e888ac00000000"
    }, 
    {
      "txid": "edd98e2187cb64cfd070e0460c29293393fb855df51f972614bf7ef5821f9709",
      "hash": "edd98e2187cb64cfd070e0460c29293393fb855df51f972614bf7ef5821f9709",
      "version": 1,
      "size": 225,
      "vsize": 225,
      "locktime": 0,
      "vin": [
        {
          "txid": "73869bd277c9c1cbf8a00f74f8961eb19b063ea3a1ca91f912887201670e2872",
          "vout": 12,
          "scriptSig": {
            "asm": "304402200310dc15def8fb1a180bd27e93bed465cf8bff70505924c8d1b35c8aae23538202203c509ece531b94c55d93f98c2851f946b5c03d4e96dc8af14fabff2d1f8fd6c7[ALL] 0344356e2c2c435fb349ae21b4ea89bf1aea18cd12b5fa4a10a4dbfefa6b039174",
            "hex": "47304402200310dc15def8fb1a180bd27e93bed465cf8bff70505924c8d1b35c8aae23538202203c509ece531b94c55d93f98c2851f946b5c03d4e96dc8af14fabff2d1f8fd6c701210344356e2c2c435fb349ae21b4ea89bf1aea18cd12b5fa4a10a4dbfefa6b039174"
          },
          "sequence": 4294967295
        }
      ],
      "vout": [
        {
          "value": 29.29611300,
          "n": 0,
          "scriptPubKey": {
            "asm": "OP_DUP OP_HASH160 e325333f09f0c3522f2a31759c9b66bd9ea30763 OP_EQUALVERIFY OP_CHECKSIG",
            "hex": "76a914e325333f09f0c3522f2a31759c9b66bd9ea3076388ac",
            "reqSigs": 1,
            "type": "pubkeyhash",
            "addresses": [
              "LfvzDUMMD5qd2XXssz32Lw2PH7cZ31YAK4"
            ]
          }
        }, 
        {
          "value": 0.59373100,
          "n": 1,
          "scriptPubKey": {
            "asm": "OP_DUP OP_HASH160 e9c150a0874c14c269fcacb33f2e3d33d9371679 OP_EQUALVERIFY OP_CHECKSIG",
            "hex": "76a914e9c150a0874c14c269fcacb33f2e3d33d937167988ac",
            "reqSigs": 1,
            "type": "pubkeyhash",
            "addresses": [
              "LgXwHfgH3t8EyDajNmAEHve3EeLSpUoctA"
            ]
          }
        }
      ],
      "hex": "010000000172280e6701728812f991caa1a33e069bb11e96f8740fa0f8cbc1c977d29b86730c0000006a47304402200310dc15def8fb1a180bd27e93bed465cf8bff70505924c8d1b35c8aae23538202203c509ece531b94c55d93f98c2851f946b5c03d4e96dc8af14fabff2d1f8fd6c701210344356e2c2c435fb349ae21b4ea89bf1aea18cd12b5fa4a10a4dbfefa6b039174ffffffff0224529eae000000001976a914e325333f09f0c3522f2a31759c9b66bd9ea3076388ac2cf68903000000001976a914e9c150a0874c14c269fcacb33f2e3d33d937167988ac00000000"
    }, 
    {
      "txid": "49b92a0c710c6c071bc9db060bad583d19bf9ba38aa56a4bfff840e9ff5d1320",
      "hash": "49b92a0c710c6c071bc9db060bad583d19bf9ba38aa56a4bfff840e9ff5d1320",
      "version": 1,
      "size": 225,
      "vsize": 225,
      "locktime": 0,
      "vin": [
        {
          "txid": "4f84185394c54bc26bb655e5d84a955b9972cfdf5d4b75f51eb3aa12f93e772a",
          "vout": 1,
          "scriptSig": {
            "asm": "304402207c2732b9534ea2c5eef93578e1fc4ad26d3acbc5634a69af0eb9602e399bfce302201f784d0e964c530b872c5175e41103b790534922e2eed391e62deb7f4571f281[ALL] 025eb1282650cbed91a8bf4c7c05dccf4cb97c7662ebcc67be5ae2b9bfc90eacfd",
            "hex": "47304402207c2732b9534ea2c5eef93578e1fc4ad26d3acbc5634a69af0eb9602e399bfce302201f784d0e964c530b872c5175e41103b790534922e2eed391e62deb7f4571f2810121025eb1282650cbed91a8bf4c7c05dccf4cb97c7662ebcc67be5ae2b9bfc90eacfd"
          },
          "sequence": 4294967295
        }
      ],
      "vout": [
        {
          "value": 1.00000000,
          "n": 0,
          "scriptPubKey": {
            "asm": "OP_DUP OP_HASH160 bf9276176d4ba2def24fd583b92ff873b6aa8aaf OP_EQUALVERIFY OP_CHECKSIG",
            "hex": "76a914bf9276176d4ba2def24fd583b92ff873b6aa8aaf88ac",
            "reqSigs": 1,
            "type": "pubkeyhash",
            "addresses": [
              "LcgtnALYqHetnkQ2LXv1jwWkSfnscsznr5"
            ]
          }
        }, 
        {
          "value": 34.95377400,
          "n": 1,
          "scriptPubKey": {
            "asm": "OP_DUP OP_HASH160 e66518a62f4ab3f4e3dd9825849baa750d379544 OP_EQUALVERIFY OP_CHECKSIG",
            "hex": "76a914e66518a62f4ab3f4e3dd9825849baa750d37954488ac",
            "reqSigs": 1,
            "type": "pubkeyhash",
            "addresses": [
              "LgEAndKnNa6x3UdyxiNfnyBoyBbY2So5Rs"
            ]
          }
        }
      ],
      "hex": "01000000012a773ef912aab31ef5754b5ddfcf72995b954ad8e555b66bc24bc5945318844f010000006a47304402207c2732b9534ea2c5eef93578e1fc4ad26d3acbc5634a69af0eb9602e399bfce302201f784d0e964c530b872c5175e41103b790534922e2eed391e62deb7f4571f2810121025eb1282650cbed91a8bf4c7c05dccf4cb97c7662ebcc67be5ae2b9bfc90eacfdffffffff0200e1f505000000001976a914bf9276176d4ba2def24fd583b92ff873b6aa8aaf88acf83957d0000000001976a914e66518a62f4ab3f4e3dd9825849baa750d37954488ac00000000"
    }, 
    {
      "txid": "bafce2b23ce47db6aa34287e2f6d935af78749e834a2769b9359d3f10973d34d",
      "hash": "bafce2b23ce47db6aa34287e2f6d935af78749e834a2769b9359d3f10973d34d",
      "version": 1,
      "size": 225,
      "vsize": 225,
      "locktime": 0,
      "vin": [
        {
          "txid": "73869bd277c9c1cbf8a00f74f8961eb19b063ea3a1ca91f912887201670e2872",
          "vout": 18,
          "scriptSig": {
            "asm": "304402200ed624367c52b9c1e7ef7f3920b75fd60124a7dfb098121c2040d2ff349912ee02206f48faaad5482371091bf3cfe0db6715efbc077232c6ae10956ed430b7825015[ALL] 030291e5a0a92fc380cad77de8cd0d937a459d9a8b5df6ffe3dde34e5233293090",
            "hex": "47304402200ed624367c52b9c1e7ef7f3920b75fd60124a7dfb098121c2040d2ff349912ee02206f48faaad5482371091bf3cfe0db6715efbc077232c6ae10956ed430b78250150121030291e5a0a92fc380cad77de8cd0d937a459d9a8b5df6ffe3dde34e5233293090"
          },
          "sequence": 4294967295
        }
      ],
      "vout": [
        {
          "value": 2.00000000,
          "n": 0,
          "scriptPubKey": {
            "asm": "OP_DUP OP_HASH160 950017c7eca5ff53c6cf957567c2dd07570e659c OP_EQUALVERIFY OP_CHECKSIG",
            "hex": "76a914950017c7eca5ff53c6cf957567c2dd07570e659c88ac",
            "reqSigs": 1,
            "type": "pubkeyhash",
            "addresses": [
              "LYoo4FTnbfYHWZbG2tzdQqqKpG87ZGT6V5"
            ]
          }
        }, 
        {
          "value": 33.16844780,
          "n": 1,
          "scriptPubKey": {
            "asm": "OP_DUP OP_HASH160 8534eddb4808f8fcc9d0c6ef76c59927abc43d94 OP_EQUALVERIFY OP_CHECKSIG",
            "hex": "76a9148534eddb4808f8fcc9d0c6ef76c59927abc43d9488ac",
            "reqSigs": 1,
            "type": "pubkeyhash",
            "addresses": [
              "LXNHYJjxe12121QZwj2bp7F68hxBAYoxAa"
            ]
          }
        }
      ],
      "hex": "010000000172280e6701728812f991caa1a33e069bb11e96f8740fa0f8cbc1c977d29b8673120000006a47304402200ed624367c52b9c1e7ef7f3920b75fd60124a7dfb098121c2040d2ff349912ee02206f48faaad5482371091bf3cfe0db6715efbc077232c6ae10956ed430b78250150121030291e5a0a92fc380cad77de8cd0d937a459d9a8b5df6ffe3dde34e5233293090ffffffff0200c2eb0b000000001976a914950017c7eca5ff53c6cf957567c2dd07570e659c88acec08b3c5000000001976a9148534eddb4808f8fcc9d0c6ef76c59927abc43d9488ac00000000"
    }, 
    {
      "txid": "480b747602931a582c766646eef5e856e2e781f9fb2587e369903117bab1ab5d",
      "hash": "480b747602931a582c766646eef5e856e2e781f9fb2587e369903117bab1ab5d",
      "version": 1,
      "size": 225,
      "vsize": 225,
      "locktime": 0,
      "vin": [
        {
          "txid": "f75c021212688f49c0e401c538a76c3fbf6ceec09c1de4027d76b21f47c81ce4",
          "vout": 0,
          "scriptSig": {
            "asm": "304402202d21fb395eb722709603d9fda9af04ee7c4a273db719972b5787e37336cf385602204a9349510f7ccc658fff4f947b71f8e76b68f59743c4c05d10fa158d131d5d82[ALL] 03031d14440497c227ec23e063f1b2a92d6d0b90eb2114f656b0fa403fb1dcc825",
            "hex": "47304402202d21fb395eb722709603d9fda9af04ee7c4a273db719972b5787e37336cf385602204a9349510f7ccc658fff4f947b71f8e76b68f59743c4c05d10fa158d131d5d82012103031d14440497c227ec23e063f1b2a92d6d0b90eb2114f656b0fa403fb1dcc825"
          },
          "sequence": 4294967295
        }
      ],
      "vout": [
        {
          "value": 0.00282582,
          "n": 0,
          "scriptPubKey": {
            "asm": "OP_DUP OP_HASH160 6673d9f3aad701915c5f6afcc56f9bca97245828 OP_EQUALVERIFY OP_CHECKSIG",
            "hex": "76a9146673d9f3aad701915c5f6afcc56f9bca9724582888ac",
            "reqSigs": 1,
            "type": "pubkeyhash",
            "addresses": [
              "LUZfyGs4vdFwGGoAXRER7kd5PBeVvfQXh8"
            ]
          }
        }, 
        {
          "value": 0.24574848,
          "n": 1,
          "scriptPubKey": {
            "asm": "OP_DUP OP_HASH160 cff04e5ca3a549f726e20c14015deca2eead7ed9 OP_EQUALVERIFY OP_CHECKSIG",
            "hex": "76a914cff04e5ca3a549f726e20c14015deca2eead7ed988ac",
            "reqSigs": 1,
            "type": "pubkeyhash",
            "addresses": [
              "LeBS1gYGcp4Nt7YkDwMQBw5c7a9QNK6hdo"
            ]
          }
        }
      ],
      "hex": "0100000001e41cc8471fb2767d02e41d9cc0ee6cbf3f6ca738c501e4c0498f681212025cf7000000006a47304402202d21fb395eb722709603d9fda9af04ee7c4a273db719972b5787e37336cf385602204a9349510f7ccc658fff4f947b71f8e76b68f59743c4c05d10fa158d131d5d82012103031d14440497c227ec23e063f1b2a92d6d0b90eb2114f656b0fa403fb1dcc825ffffffff02d64f0400000000001976a9146673d9f3aad701915c5f6afcc56f9bca9724582888ac80fb7601000000001976a914cff04e5ca3a549f726e20c14015deca2eead7ed988ac00000000"
    }, 
    {
      "txid": "2d04ff5c6185e08b60770195d2b47e346914e4397a97d1dd2fc4c2b9beb131da",
      "hash": "2d04ff5c6185e08b60770195d2b47e346914e4397a97d1dd2fc4c2b9beb131da",
      "version": 1,
      "size": 225,
      "vsize": 225,
      "locktime": 0,
      "vin": [
        {
          "txid": "d28e9d71e0c01691e118fad7037149b60e5ead5bb1767fd014ece09a21a1d5df",
          "vout": 0,
          "scriptSig": {
            "asm": "3044022069972926f0016baa45f6a9adc9467fe18baba1e46e1c07cb037af1cd416cd55102202932658684774d7c213b5f7fe317cd06618fb0f6683d48d8f09ea6b745e63dfd[ALL] 0366b50ecdb5e576207defa1c8e8f6fd30d0ee0d8adf5f2e199e8d1d5e0a7c770a",
            "hex": "473044022069972926f0016baa45f6a9adc9467fe18baba1e46e1c07cb037af1cd416cd55102202932658684774d7c213b5f7fe317cd06618fb0f6683d48d8f09ea6b745e63dfd01210366b50ecdb5e576207defa1c8e8f6fd30d0ee0d8adf5f2e199e8d1d5e0a7c770a"
          },
          "sequence": 4294967295
        }
      ],
      "vout": [
        {
          "value": 2.01977400,
          "n": 0,
          "scriptPubKey": {
            "asm": "OP_DUP OP_HASH160 c2968fb39ffe35f76ee301096e75d0bda0c6c6c9 OP_EQUALVERIFY OP_CHECKSIG",
            "hex": "76a914c2968fb39ffe35f76ee301096e75d0bda0c6c6c988ac",
            "reqSigs": 1,
            "type": "pubkeyhash",
            "addresses": [
              "LcxqicWX9JcFursvgVWYR4T5Ze9pga8kPK"
            ]
          }
        }, 
        {
          "value": 27.98000000,
          "n": 1,
          "scriptPubKey": {
            "asm": "OP_DUP OP_HASH160 0430174dd40bf4355a7ec5c12954e7c0bc03796e OP_EQUALVERIFY OP_CHECKSIG",
            "hex": "76a9140430174dd40bf4355a7ec5c12954e7c0bc03796e88ac",
            "reqSigs": 1,
            "type": "pubkeyhash",
            "addresses": [
              "LKc6aQNXymWfqk13YD3GY92rawfM2MSmiH"
            ]
          }
        }
      ],
      "hex": "0100000001dfd5a1219ae0ec14d07f76b15bad5e0eb6497103d7fa18e19116c0e0719d8ed2000000006a473044022069972926f0016baa45f6a9adc9467fe18baba1e46e1c07cb037af1cd416cd55102202932658684774d7c213b5f7fe317cd06618fb0f6683d48d8f09ea6b745e63dfd01210366b50ecdb5e576207defa1c8e8f6fd30d0ee0d8adf5f2e199e8d1d5e0a7c770affffffff0238ee090c000000001976a914c2968fb39ffe35f76ee301096e75d0bda0c6c6c988ac8017c6a6000000001976a9140430174dd40bf4355a7ec5c12954e7c0bc03796e88ac00000000"
    }
  ],
  "time": 1517336356,
  "mediantime": 1517335920,
  "nonce": 101971419,
  "bits": "1a042eae",
  "difficulty": 4011378.762614286,
  "chainwork": "0000000000000000000000000000000000000000000000345e07a8a174b04126",
  "previousblockhash": "6a09ab1b55bfeb8407bd96b7004bc08e67aef4b78351851a7a2d2ffbf1cb579e",
  "nextblockhash": "e56040cff1d770a32e553c283c60c818d330e5bc06fe306fa03739ba7eb52788"
}
