{
  "hash": "17602972c43f50f8bfc74e59d85a053e770f0cdfd7684e99822728dfa8e4a045",
  "confirmations": 3601,
  "strippedsize": 254,
  "size": 254,
  "weight": 1016,
  "height": 1357394,
  "version": 536870912,
  "versionHex": "20000000",
  "merkleroot": "96bc88aa1ec87ba23c43bc54bd691abe71780a7cbfb46e86d862322dd8a9adc6",
  "tx": [
    {
      "txid": "96bc88aa1ec87ba23c43bc54bd691abe71780a7cbfb46e86d862322dd8a9adc6",
      "hash": "96bc88aa1ec87ba23c43bc54bd691abe71780a7cbfb46e86d862322dd8a9adc6",
      "version": 1,
      "size": 173,
      "vsize": 173,
      "locktime": 0,
      "vin": [
        {
          "coinbase": "0352b6141b4d696e656420627920416e74506f6f6c20626a312045205a6b8aedfabe6d6d99d0fa7044447bc466d2061a0fa2f9308d1dce148e4bedc42497aa94b0e51a2c0400000000000000551b00000000000019000000",
          "sequence": 4294967295
        }
      ],
      "vout": [
        {
          "value": 25.00000000,
          "n": 0,
          "scriptPubKey": {
            "asm": "OP_DUP OP_HASH160 0ff3ccc5e8be88afe24b5d634e5852d474dbdff1 OP_EQUALVERIFY OP_CHECKSIG",
            "hex": "76a9140ff3ccc5e8be88afe24b5d634e5852d474dbdff188ac",
            "reqSigs": 1,
            "type": "pubkeyhash",
            "addresses": [
              "LLgJTbzZMsRTCUF1NtvvL9SR1a4pVieW89"
            ]
          }
        }
      ],
      "hex": "01000000010000000000000000000000000000000000000000000000000000000000000000ffffffff580352b6141b4d696e656420627920416e74506f6f6c20626a312045205a6b8aedfabe6d6d99d0fa7044447bc466d2061a0fa2f9308d1dce148e4bedc42497aa94b0e51a2c0400000000000000551b00000000000019000000ffffffff0100f90295000000001976a9140ff3ccc5e8be88afe24b5d634e5852d474dbdff188ac00000000"
    }
  ],
  "time": 1516997357,
  "mediantime": 1516996913,
  "nonce": 308474279,
  "bits": "1a047f14",
  "difficulty": 3731199.183374282,
  "chainwork": "0000000000000000000000000000000000000000000000322fbbf932a82e0b6e",
  "previousblockhash": "476864fd0e94902afef2c6a8e0162cfe59905c855b5a50d7467b19d5502929d8",
  "nextblockhash": "3b1ed93a033b9ed4841f3858f1700365efad899faa2d313e4534b3ab1e880b6b"
}
