{
  "hash": "17778c221b52d58bb2957dc2d742a78029aee6b4d2e541b1a08556acc8fbe8ee",
  "confirmations": 3748,
  "strippedsize": 253,
  "size": 253,
  "weight": 1012,
  "height": 1357247,
  "version": 536870912,
  "versionHex": "20000000",
  "merkleroot": "b4b204dd23c9875b40e14c2a6790a37eda6a62768b6fa853732b76cc4bb99f3f",
  "tx": [
    {
      "txid": "b4b204dd23c9875b40e14c2a6790a37eda6a62768b6fa853732b76cc4bb99f3f",
      "hash": "b4b204dd23c9875b40e14c2a6790a37eda6a62768b6fa853732b76cc4bb99f3f",
      "version": 1,
      "size": 172,
      "vsize": 172,
      "locktime": 0,
      "vin": [
        {
          "coinbase": "03bfb5141a4d696e656420627920416e74506f6f6c20626a3532205a6b3e36fabe6d6d0b17ccc06b104204d19c4628bd04749348dab9f6a90c1924025f15cea990494b04000000000000004c370000000000001e000000",
          "sequence": 4294967295
        }
      ],
      "vout": [
        {
          "value": 25.00000000,
          "n": 0,
          "scriptPubKey": {
            "asm": "OP_DUP OP_HASH160 0ff3ccc5e8be88afe24b5d634e5852d474dbdff1 OP_EQUALVERIFY OP_CHECKSIG",
            "hex": "76a9140ff3ccc5e8be88afe24b5d634e5852d474dbdff188ac",
            "reqSigs": 1,
            "type": "pubkeyhash",
            "addresses": [
              "LLgJTbzZMsRTCUF1NtvvL9SR1a4pVieW89"
            ]
          }
        }
      ],
      "hex": "01000000010000000000000000000000000000000000000000000000000000000000000000ffffffff5703bfb5141a4d696e656420627920416e74506f6f6c20626a3532205a6b3e36fabe6d6d0b17ccc06b104204d19c4628bd04749348dab9f6a90c1924025f15cea990494b04000000000000004c370000000000001e000000ffffffff0100f90295000000001976a9140ff3ccc5e8be88afe24b5d634e5852d474dbdff188ac00000000"
    }
  ],
  "time": 1516977718,
  "mediantime": 1516976828,
  "nonce": 2448163602,
  "bits": "1a047f14",
  "difficulty": 3731199.183374282,
  "chainwork": "0000000000000000000000000000000000000000000000320f0a9bf956370880",
  "previousblockhash": "ff4b0c8a6a0cb9f17f81ac58a3b69e667a4c46ff6ceeb5af348d487b8cde12f7",
  "nextblockhash": "40d9132cdfad1c0e3c6d0ba5e03371821338a3fd8b76cc7c804dd4234f42088d"
}
