{
  "hash": "17999ecd394f289866d1dee99e3a324f7be7f86f207639b192a8ba2236b1de82",
  "confirmations": 1442,
  "strippedsize": 1450,
  "size": 1486,
  "weight": 5836,
  "height": 1359552,
  "version": 536870912,
  "versionHex": "20000000",
  "merkleroot": "696d0b6e18e31842e6f13dcf8bd776d338c46f3968d2626e105e0d0157093344",
  "tx": [
    {
      "txid": "51656da573cf52d5fc077bbf0877197fdfced8aa9da97c4b51e08e9448a44ef4",
      "hash": "5e122fce4a6e4b887968e99d1eb360f0b33b01fb8b09a265ab67e2fd604611af",
      "version": 1,
      "size": 277,
      "vsize": 250,
      "locktime": 958218332,
      "vin": [
        {
          "coinbase": "03c0be142cfabe6d6d35254dde9d41d14a37f1805d54e8f81f72c3807a553643f1561afbb5115b9fb208000000f09f909f134d696e6564206279206669727368757368736800000000000000000000000000000000000000000000000000000000000000",
          "sequence": 515
        }
      ],
      "vout": [
        {
          "value": 25.00224362,
          "n": 0,
          "scriptPubKey": {
            "asm": "OP_DUP OP_HASH160 aa3750aa18b8a0f3f0590731e1fab934856680cf OP_EQUALVERIFY OP_CHECKSIG",
            "hex": "76a914aa3750aa18b8a0f3f0590731e1fab934856680cf88ac",
            "reqSigs": 1,
            "type": "pubkeyhash",
            "addresses": [
              "LajyQBeZaBA1NkZDeY8YT5RYYVRkXMvb2T"
            ]
          }
        }, 
        {
          "value": 0.00000000,
          "n": 1,
          "scriptPubKey": {
            "asm": "OP_RETURN aa21a9ed318de04021d85b94e461a5a6799991f934338179401993d3ae947fa983ba56e7 0000000000000000",
            "hex": "6a24aa21a9ed318de04021d85b94e461a5a6799991f934338179401993d3ae947fa983ba56e7080000000000000000",
            "type": "nulldata"
          }
        }
      ],
      "hex": "010000000001010000000000000000000000000000000000000000000000000000000000000000ffffffff6403c0be142cfabe6d6d35254dde9d41d14a37f1805d54e8f81f72c3807a553643f1561afbb5115b9fb208000000f09f909f134d696e656420627920666972736875736873680000000000000000000000000000000000000000000000000000000000000003020000026a650695000000001976a914aa3750aa18b8a0f3f0590731e1fab934856680cf88ac00000000000000002f6a24aa21a9ed318de04021d85b94e461a5a6799991f934338179401993d3ae947fa983ba56e7080000000000000000012000000000000000000000000000000000000000000000000000000000000000005c401d39"
    }, 
    {
      "txid": "747169b1a96dbf902036942c1d46dffde411307efaa1c0b151aa46102f153203",
      "hash": "747169b1a96dbf902036942c1d46dffde411307efaa1c0b151aa46102f153203",
      "version": 1,
      "size": 226,
      "vsize": 226,
      "locktime": 0,
      "vin": [
        {
          "txid": "2e518d8c69e24cc1fc741aa9ca9979bfcf6d8c0f108cf8d2464b27d2ec5f7fae",
          "vout": 1,
          "scriptSig": {
            "asm": "3045022100955c39da29892bb02498b35a51dc43549031f0d2ec5123f7a26134d0533c6920022017bce98098de0e42a34a74488f836db62d195d496a633a3eba26812facc63778[ALL] 03e07076e6b7d213229c33d016ab08460fb63822520f1375989784f325ffbec793",
            "hex": "483045022100955c39da29892bb02498b35a51dc43549031f0d2ec5123f7a26134d0533c6920022017bce98098de0e42a34a74488f836db62d195d496a633a3eba26812facc63778012103e07076e6b7d213229c33d016ab08460fb63822520f1375989784f325ffbec793"
          },
          "sequence": 4294967295
        }
      ],
      "vout": [
        {
          "value": 0.03517129,
          "n": 0,
          "scriptPubKey": {
            "asm": "OP_DUP OP_HASH160 ea4e1592f3904ea83abede28334472721c4b4c3b OP_EQUALVERIFY OP_CHECKSIG",
            "hex": "76a914ea4e1592f3904ea83abede28334472721c4b4c3b88ac",
            "reqSigs": 1,
            "type": "pubkeyhash",
            "addresses": [
              "LgaqvVUa7G5d5BrdS1Jieu426cNsxX8sPm"
            ]
          }
        }, 
        {
          "value": 0.00182871,
          "n": 1,
          "scriptPubKey": {
            "asm": "OP_DUP OP_HASH160 15ab793c4e95c8b7583e68da13f29f38f710956a OP_EQUALVERIFY OP_CHECKSIG",
            "hex": "76a91415ab793c4e95c8b7583e68da13f29f38f710956a88ac",
            "reqSigs": 1,
            "type": "pubkeyhash",
            "addresses": [
              "LMCXsS9d7Fg4kxj6UbisZbdvafRtdRWds3"
            ]
          }
        }
      ],
      "hex": "0100000001ae7f5fecd2274b46d2f88c100f8c6dcfbf7999caa91a74fcc14ce2698c8d512e010000006b483045022100955c39da29892bb02498b35a51dc43549031f0d2ec5123f7a26134d0533c6920022017bce98098de0e42a34a74488f836db62d195d496a633a3eba26812facc63778012103e07076e6b7d213229c33d016ab08460fb63822520f1375989784f325ffbec793ffffffff02c9aa3500000000001976a914ea4e1592f3904ea83abede28334472721c4b4c3b88ac57ca0200000000001976a91415ab793c4e95c8b7583e68da13f29f38f710956a88ac00000000"
    }, 
    {
      "txid": "6356124890a941d312991344c5148171f8d0e6d4bf7a2b7a3369866c55d30c42",
      "hash": "6356124890a941d312991344c5148171f8d0e6d4bf7a2b7a3369866c55d30c42",
      "version": 1,
      "size": 225,
      "vsize": 225,
      "locktime": 0,
      "vin": [
        {
          "txid": "c01cbc85f7960308e4007a14ca8bdae307ad6f0d956fd7e8003822ab22eaf44c",
          "vout": 0,
          "scriptSig": {
            "asm": "30440220172e71261a8feb8f780cb062c4ff7b8a7762dfc17964261fc0e6378b1fad86b6022021997ff2ff0e550462e0a85783bf8289e3eb98942864e7aefb3dbc3425ad2219[ALL] 028063e6942bb10b3bd09b345d58a62a5dcce44d438838b479554404e36adc7585",
            "hex": "4730440220172e71261a8feb8f780cb062c4ff7b8a7762dfc17964261fc0e6378b1fad86b6022021997ff2ff0e550462e0a85783bf8289e3eb98942864e7aefb3dbc3425ad22190121028063e6942bb10b3bd09b345d58a62a5dcce44d438838b479554404e36adc7585"
          },
          "sequence": 4294967295
        }
      ],
      "vout": [
        {
          "value": 0.00175300,
          "n": 0,
          "scriptPubKey": {
            "asm": "OP_DUP OP_HASH160 cd81b24b553e1b182839dd24a2398421ce1fd1e5 OP_EQUALVERIFY OP_CHECKSIG",
            "hex": "76a914cd81b24b553e1b182839dd24a2398421ce1fd1e588ac",
            "reqSigs": 1,
            "type": "pubkeyhash",
            "addresses": [
              "LdxaA1KpJiaUqVJBR2omFJmed4b6jdkFK9"
            ]
          }
        }, 
        {
          "value": 3.99768200,
          "n": 1,
          "scriptPubKey": {
            "asm": "OP_DUP OP_HASH160 e9af1355fe954e93a0a4c6671a21ef28bfcdbeec OP_EQUALVERIFY OP_CHECKSIG",
            "hex": "76a914e9af1355fe954e93a0a4c6671a21ef28bfcdbeec88ac",
            "reqSigs": 1,
            "type": "pubkeyhash",
            "addresses": [
              "LgXZSNT7GofQVQq3Xvjh1jQUF1rCP8SHv1"
            ]
          }
        }
      ],
      "hex": "01000000014cf4ea22ab223800e8d76f950d6fad07e3da8bca147a00e4080396f785bc1cc0000000006a4730440220172e71261a8feb8f780cb062c4ff7b8a7762dfc17964261fc0e6378b1fad86b6022021997ff2ff0e550462e0a85783bf8289e3eb98942864e7aefb3dbc3425ad22190121028063e6942bb10b3bd09b345d58a62a5dcce44d438838b479554404e36adc7585ffffffff02c4ac0200000000001976a914cd81b24b553e1b182839dd24a2398421ce1fd1e588ac88fad317000000001976a914e9af1355fe954e93a0a4c6671a21ef28bfcdbeec88ac00000000"
    }, 
    {
      "txid": "3943939324e0157cdf8deedbd9f73de04ec7e4a7ba999c73f2c00e3b6f022990",
      "hash": "3943939324e0157cdf8deedbd9f73de04ec7e4a7ba999c73f2c00e3b6f022990",
      "version": 2,
      "size": 225,
      "vsize": 225,
      "locktime": 1359550,
      "vin": [
        {
          "txid": "9be98383d58106734964551a542820904564b617c5d922276770a5d708523717",
          "vout": 0,
          "scriptSig": {
            "asm": "30440220791c79836922c37eb5f2c4785927c4ad16856cdf53d5ec55a5ae3ff7f7940900022031743ee9750a764e5f951e2acad028428cf3fa65a811de850ebd217e1552bc15[ALL] 0251ec291b016d2cffc49516d22e45cd0a6f73414b41de43cf1b149c076be403cc",
            "hex": "4730440220791c79836922c37eb5f2c4785927c4ad16856cdf53d5ec55a5ae3ff7f7940900022031743ee9750a764e5f951e2acad028428cf3fa65a811de850ebd217e1552bc1501210251ec291b016d2cffc49516d22e45cd0a6f73414b41de43cf1b149c076be403cc"
          },
          "sequence": 4294967294
        }
      ],
      "vout": [
        {
          "value": 0.08050259,
          "n": 0,
          "scriptPubKey": {
            "asm": "OP_DUP OP_HASH160 2b4b4c94ca5f4cd7aaed50635bbdad6386c5c680 OP_EQUALVERIFY OP_CHECKSIG",
            "hex": "76a9142b4b4c94ca5f4cd7aaed50635bbdad6386c5c68088ac",
            "reqSigs": 1,
            "type": "pubkeyhash",
            "addresses": [
              "LPAsXLZVcCv1HADnSUU6nq866jpDiZ3WHP"
            ]
          }
        }, 
        {
          "value": 0.83860314,
          "n": 1,
          "scriptPubKey": {
            "asm": "OP_DUP OP_HASH160 6d0c573b85391176a9e5342b607f2bec8c932cda OP_EQUALVERIFY OP_CHECKSIG",
            "hex": "76a9146d0c573b85391176a9e5342b607f2bec8c932cda88ac",
            "reqSigs": 1,
            "type": "pubkeyhash",
            "addresses": [
              "LVAYhaBrEAbN2ZAefzSQ4SfdQSfDmvZsWg"
            ]
          }
        }
      ],
      "hex": "020000000117375208d7a570672722d9c517b66445902028541a556449730681d58383e99b000000006a4730440220791c79836922c37eb5f2c4785927c4ad16856cdf53d5ec55a5ae3ff7f7940900022031743ee9750a764e5f951e2acad028428cf3fa65a811de850ebd217e1552bc1501210251ec291b016d2cffc49516d22e45cd0a6f73414b41de43cf1b149c076be403ccfeffffff0253d67a00000000001976a9142b4b4c94ca5f4cd7aaed50635bbdad6386c5c68088ac5a9bff04000000001976a9146d0c573b85391176a9e5342b607f2bec8c932cda88acbebe1400"
    }, 
    {
      "txid": "28bc7dfa7e162717957f9e33a3224bece9972241aa715bedb1d1d65feac3ae7e",
      "hash": "28bc7dfa7e162717957f9e33a3224bece9972241aa715bedb1d1d65feac3ae7e",
      "version": 1,
      "size": 226,
      "vsize": 226,
      "locktime": 0,
      "vin": [
        {
          "txid": "681872334a5637ff4e3a45f722b2a7bcbb24b290195aeef232c294f567f9dad8",
          "vout": 0,
          "scriptSig": {
            "asm": "3045022100b4519b992c934b2d4be656b2b43150b06087df90b67bed02d6f57615ec367a0b0220218365244dfe62d093c433ce9f335c8d973272eac4f348085bb21b258fe2d507[ALL] 0319dffebaf96f5cf2b5adcfee8f1f38a95777bf32f454770fffd22d36eed5f3a0",
            "hex": "483045022100b4519b992c934b2d4be656b2b43150b06087df90b67bed02d6f57615ec367a0b0220218365244dfe62d093c433ce9f335c8d973272eac4f348085bb21b258fe2d50701210319dffebaf96f5cf2b5adcfee8f1f38a95777bf32f454770fffd22d36eed5f3a0"
          },
          "sequence": 4294967295
        }
      ],
      "vout": [
        {
          "value": 0.00505980,
          "n": 0,
          "scriptPubKey": {
            "asm": "OP_DUP OP_HASH160 c14ec1c1d5c95cf335ffee3abfd6ae10f6581e45 OP_EQUALVERIFY OP_CHECKSIG",
            "hex": "76a914c14ec1c1d5c95cf335ffee3abfd6ae10f6581e4588ac",
            "reqSigs": 1,
            "type": "pubkeyhash",
            "addresses": [
              "Lcr52MnLwTA1c7m4z6HXF4FdHTrPAsfMPZ"
            ]
          }
        }, 
        {
          "value": 0.00054686,
          "n": 1,
          "scriptPubKey": {
            "asm": "OP_DUP OP_HASH160 bb749f6c697036b0642b4e5bc0c994f37e8a5d82 OP_EQUALVERIFY OP_CHECKSIG",
            "hex": "76a914bb749f6c697036b0642b4e5bc0c994f37e8a5d8288ac",
            "reqSigs": 1,
            "type": "pubkeyhash",
            "addresses": [
              "LcK8LB9wZyqMEqGyR8s7jNgkndMyp5F5TF"
            ]
          }
        }
      ],
      "hex": "0100000001d8daf967f594c232f2ee5a1990b224bbbca7b222f7453a4eff37564a33721868000000006b483045022100b4519b992c934b2d4be656b2b43150b06087df90b67bed02d6f57615ec367a0b0220218365244dfe62d093c433ce9f335c8d973272eac4f348085bb21b258fe2d50701210319dffebaf96f5cf2b5adcfee8f1f38a95777bf32f454770fffd22d36eed5f3a0ffffffff027cb80700000000001976a914c14ec1c1d5c95cf335ffee3abfd6ae10f6581e4588ac9ed50000000000001976a914bb749f6c697036b0642b4e5bc0c994f37e8a5d8288ac00000000"
    }, 
    {
      "txid": "a299477423b30bab7d5b949523f14a118f402e6c9e17db9d7d6f3db4d39daca3",
      "hash": "a299477423b30bab7d5b949523f14a118f402e6c9e17db9d7d6f3db4d39daca3",
      "version": 2,
      "size": 226,
      "vsize": 226,
      "locktime": 1359550,
      "vin": [
        {
          "txid": "aa3d46b01bf788b7485c89e5520e246555925a1e6e92a4d45ec4e6501c5eee34",
          "vout": 0,
          "scriptSig": {
            "asm": "3045022100e8d10ab59236724f541d90c21844337c96380f27a92708efe7c1e1fefbbc9356022018d8f07b9cd631099a5a39a1730ba2e0575805cdcecb3622516c2b20fcb66cea[ALL] 03db9652b73e8a1a2f4e464ab075a6ef82f366ce462e2dcd42204a9ea316b58dd9",
            "hex": "483045022100e8d10ab59236724f541d90c21844337c96380f27a92708efe7c1e1fefbbc9356022018d8f07b9cd631099a5a39a1730ba2e0575805cdcecb3622516c2b20fcb66cea012103db9652b73e8a1a2f4e464ab075a6ef82f366ce462e2dcd42204a9ea316b58dd9"
          },
          "sequence": 4294967294
        }
      ],
      "vout": [
        {
          "value": 0.17835079,
          "n": 0,
          "scriptPubKey": {
            "asm": "OP_DUP OP_HASH160 5476364699f2625e5a4582a5ad5abd5f0ff25034 OP_EQUALVERIFY OP_CHECKSIG",
            "hex": "76a9145476364699f2625e5a4582a5ad5abd5f0ff2503488ac",
            "reqSigs": 1,
            "type": "pubkeyhash",
            "addresses": [
              "LSvYdqmDuSSWTKJWWZtfiD2NcAbBGVnPnD"
            ]
          }
        }, 
        {
          "value": 46.90948551,
          "n": 1,
          "scriptPubKey": {
            "asm": "OP_DUP OP_HASH160 48fe653ebad6168231fdfd34d4cd8be5a1ee5016 OP_EQUALVERIFY OP_CHECKSIG",
            "hex": "76a91448fe653ebad6168231fdfd34d4cd8be5a1ee501688ac",
            "reqSigs": 1,
            "type": "pubkeyhash",
            "addresses": [
              "LRsufjUnp35iXv45kRjavguameYZyvZHuX"
            ]
          }
        }
      ],
      "hex": "020000000134ee5e1c50e6c45ed4a4926e1e5a925565240e52e5895c48b788f71bb0463daa000000006b483045022100e8d10ab59236724f541d90c21844337c96380f27a92708efe7c1e1fefbbc9356022018d8f07b9cd631099a5a39a1730ba2e0575805cdcecb3622516c2b20fcb66cea012103db9652b73e8a1a2f4e464ab075a6ef82f366ce462e2dcd42204a9ea316b58dd9feffffff0247241001000000001976a9145476364699f2625e5a4582a5ad5abd5f0ff2503488acc7319a17010000001976a91448fe653ebad6168231fdfd34d4cd8be5a1ee501688acbebe1400"
    }
  ],
  "time": 1517297784,
  "mediantime": 1517297055,
  "nonce": 47603361,
  "bits": "1a042eae",
  "difficulty": 4011378.762614286,
  "chainwork": "0000000000000000000000000000000000000000000000341c8432490986d402",
  "previousblockhash": "58874e022439fdad779c51ab4e8c3044525e590f5eca645d5dcf22b1b85dfd95",
  "nextblockhash": "ec2ddb850d93a34aacd9cf19dc282a4972fdcd764fb729aa1a3e86a00bf7c10b"
}
