{
  "hash": "179b344134a06f83859520e58e53b42eceb4e214d9b91924cd8affceaa0c0bc7",
  "confirmations": 3623,
  "strippedsize": 253,
  "size": 253,
  "weight": 1012,
  "height": 1357372,
  "version": 536870912,
  "versionHex": "20000000",
  "merkleroot": "66f9e9cd4b386753eed8508f727d63c8233462f7dd5cd56e02a5bbe1033e9d95",
  "tx": [
    {
      "txid": "66f9e9cd4b386753eed8508f727d63c8233462f7dd5cd56e02a5bbe1033e9d95",
      "hash": "66f9e9cd4b386753eed8508f727d63c8233462f7dd5cd56e02a5bbe1033e9d95",
      "version": 1,
      "size": 172,
      "vsize": 172,
      "locktime": 0,
      "vin": [
        {
          "coinbase": "033cb6141a4d696e656420627920416e74506f6f6c20626a3242205a6b841bfabe6d6d1d1039da27437cf3694805fae04c46e934e5364bd8bfe2447d51de3f83a5441704000000000000009d0000000000000004000000",
          "sequence": 4294967295
        }
      ],
      "vout": [
        {
          "value": 25.00000000,
          "n": 0,
          "scriptPubKey": {
            "asm": "OP_DUP OP_HASH160 0ff3ccc5e8be88afe24b5d634e5852d474dbdff1 OP_EQUALVERIFY OP_CHECKSIG",
            "hex": "76a9140ff3ccc5e8be88afe24b5d634e5852d474dbdff188ac",
            "reqSigs": 1,
            "type": "pubkeyhash",
            "addresses": [
              "LLgJTbzZMsRTCUF1NtvvL9SR1a4pVieW89"
            ]
          }
        }
      ],
      "hex": "01000000010000000000000000000000000000000000000000000000000000000000000000ffffffff57033cb6141a4d696e656420627920416e74506f6f6c20626a3242205a6b841bfabe6d6d1d1039da27437cf3694805fae04c46e934e5364bd8bfe2447d51de3f83a5441704000000000000009d0000000000000004000000ffffffff0100f90295000000001976a9140ff3ccc5e8be88afe24b5d634e5852d474dbdff188ac00000000"
    }
  ],
  "time": 1516995611,
  "mediantime": 1516995081,
  "nonce": 2650110737,
  "bits": "1a047f14",
  "difficulty": 3731199.183374282,
  "chainwork": "0000000000000000000000000000000000000000000000322ad76a601097e132",
  "previousblockhash": "18d742d1927b8962d3b73b3a075030ef7cff88cadee0e0d965242fc3eaae3777",
  "nextblockhash": "107e29d6c74133c82a6004a1478e74f57e869ae436a4c937b0a018727952b863"
}
