{
  "hash": "18f7e8e5198545cc828a25358725861227030bbbaa6b9d553cfb02bb9a9f9f87",
  "confirmations": 3616,
  "strippedsize": 253,
  "size": 253,
  "weight": 1012,
  "height": 1357379,
  "version": 536870912,
  "versionHex": "20000000",
  "merkleroot": "245ec0e36b69c83ff49f699afb10d89e34dc3a6607de618367d1bd7c52bb25a9",
  "tx": [
    {
      "txid": "245ec0e36b69c83ff49f699afb10d89e34dc3a6607de618367d1bd7c52bb25a9",
      "hash": "245ec0e36b69c83ff49f699afb10d89e34dc3a6607de618367d1bd7c52bb25a9",
      "version": 1,
      "size": 172,
      "vsize": 172,
      "locktime": 0,
      "vin": [
        {
          "coinbase": "0343b6141a4d696e656420627920416e74506f6f6c20626a3532205a6b85fafabe6d6d62256b78beaa017e0088cf70323c8b8dae76612588127aefd3e9edccb2c31c790400000000000000ed2a0000000000000f000000",
          "sequence": 4294967295
        }
      ],
      "vout": [
        {
          "value": 25.00000000,
          "n": 0,
          "scriptPubKey": {
            "asm": "OP_DUP OP_HASH160 0ff3ccc5e8be88afe24b5d634e5852d474dbdff1 OP_EQUALVERIFY OP_CHECKSIG",
            "hex": "76a9140ff3ccc5e8be88afe24b5d634e5852d474dbdff188ac",
            "reqSigs": 1,
            "type": "pubkeyhash",
            "addresses": [
              "LLgJTbzZMsRTCUF1NtvvL9SR1a4pVieW89"
            ]
          }
        }
      ],
      "hex": "01000000010000000000000000000000000000000000000000000000000000000000000000ffffffff570343b6141a4d696e656420627920416e74506f6f6c20626a3532205a6b85fafabe6d6d62256b78beaa017e0088cf70323c8b8dae76612588127aefd3e9edccb2c31c790400000000000000ed2a0000000000000f000000ffffffff0100f90295000000001976a9140ff3ccc5e8be88afe24b5d634e5852d474dbdff188ac00000000"
    }
  ],
  "time": 1516996090,
  "mediantime": 1516995740,
  "nonce": 3397166553,
  "bits": "1a047f14",
  "difficulty": 3731199.183374282,
  "chainwork": "0000000000000000000000000000000000000000000000322c65f4e8e3bc05e8",
  "previousblockhash": "0c1d4dd09e72e72fbdcf91b1ed46a35057f55139e704674bc675c328fa3b5ace",
  "nextblockhash": "52eb9f3ac6a6e51689998825e89e9ac43ec01eb361d47faf075e304d31569a4c"
}
