{
  "hash": "18fc05bcd460bb20cc3fa0ff7517f9187bbb1615fac1af9265e7ba7a912b8925",
  "confirmations": 3292,
  "strippedsize": 2982,
  "size": 3128,
  "weight": 12074,
  "height": 1357703,
  "version": 536870912,
  "versionHex": "20000000",
  "merkleroot": "8b3b8617ef0bd7fbf499f53adf4ec7f3724e671a06adca48005229785e7adc78",
  "tx": [
    {
      "txid": "56ceb1153b248d6a6c79418dcb76a1d81f740f9c77a6ee9abdcb5e8c8c88029a",
      "hash": "ac3fe6aab68523aec1036c2d9a597f654c3ca32bff38c677126b555095acfed3",
      "version": 1,
      "size": 251,
      "vsize": 224,
      "locktime": 0,
      "vin": [
        {
          "coinbase": "0387b7140000000000fabe6d6d1a1a448a95b3df34ac30045ec95dcfb855de980b4e597bc9ed85b79ab14239ec0100000000000000044e256c5a04de57433408fe9408c21f0000000a42570a6657042f42572f",
          "sequence": 4294967295
        }
      ],
      "vout": [
        {
          "value": 25.00424118,
          "n": 0,
          "scriptPubKey": {
            "asm": "OP_DUP OP_HASH160 5373bc9425fd49e6bfe522d3dfc85432da2cc023 OP_EQUALVERIFY OP_CHECKSIG",
            "hex": "76a9145373bc9425fd49e6bfe522d3dfc85432da2cc02388ac",
            "reqSigs": 1,
            "type": "pubkeyhash",
            "addresses": [
              "LSqCzf5bPfkqGf94pJcfxWx5bZMPJE5XRf"
            ]
          }
        }, 
        {
          "value": 0.00000000,
          "n": 1,
          "scriptPubKey": {
            "asm": "OP_RETURN aa21a9ed12b1d707dd049eabcc34eb02b04fc9b670e4aca19368d8d57a5947166321af6a",
            "hex": "6a24aa21a9ed12b1d707dd049eabcc34eb02b04fc9b670e4aca19368d8d57a5947166321af6a",
            "type": "nulldata"
          }
        }
      ],
      "hex": "010000000001010000000000000000000000000000000000000000000000000000000000000000ffffffff530387b7140000000000fabe6d6d1a1a448a95b3df34ac30045ec95dcfb855de980b4e597bc9ed85b79ab14239ec0100000000000000044e256c5a04de57433408fe9408c21f0000000a42570a6657042f42572fffffffff02b6710995000000001976a9145373bc9425fd49e6bfe522d3dfc85432da2cc02388ac0000000000000000266a24aa21a9ed12b1d707dd049eabcc34eb02b04fc9b670e4aca19368d8d57a5947166321af6a0120000000000000000000000000000000000000000000000000000000000000000000000000"
    }, 
    {
      "txid": "0a68d18dda5b4eb9ed6191da3cef114e9a42ec2be166291bcfbaded0743c6b80",
      "hash": "0a68d18dda5b4eb9ed6191da3cef114e9a42ec2be166291bcfbaded0743c6b80",
      "version": 1,
      "size": 192,
      "vsize": 192,
      "locktime": 0,
      "vin": [
        {
          "txid": "75259ad5e7133f4cbfac6ff98010a64c528f69c7b94cf9a3366a324da70550ae",
          "vout": 1,
          "scriptSig": {
            "asm": "3045022100ce43b635a7459d3f079306b600502fd77136ab70fcdfcef43092e9322eeeb0bc022020f78f19ea4194ddb0d0ca5639a76d0429e40d008bcc9af1d3178169c3ea5292[ALL] 039009d050afab185a555ce10ab7923701f54747048fe464f4245c022baa053af2",
            "hex": "483045022100ce43b635a7459d3f079306b600502fd77136ab70fcdfcef43092e9322eeeb0bc022020f78f19ea4194ddb0d0ca5639a76d0429e40d008bcc9af1d3178169c3ea52920121039009d050afab185a555ce10ab7923701f54747048fe464f4245c022baa053af2"
          },
          "sequence": 4294967295
        }
      ],
      "vout": [
        {
          "value": 0.01520660,
          "n": 0,
          "scriptPubKey": {
            "asm": "OP_DUP OP_HASH160 b6b58dcfb375038d40655d91f56205f3bda4c556 OP_EQUALVERIFY OP_CHECKSIG",
            "hex": "76a914b6b58dcfb375038d40655d91f56205f3bda4c55688ac",
            "reqSigs": 1,
            "type": "pubkeyhash",
            "addresses": [
              "Lbt2jiU8vQrTwACRc3HxNAjECK9pfQoFmN"
            ]
          }
        }
      ],
      "hex": "0100000001ae5005a74d326a36a3f94cb9c7698f524ca61080f96facbf4c3f13e7d59a2575010000006b483045022100ce43b635a7459d3f079306b600502fd77136ab70fcdfcef43092e9322eeeb0bc022020f78f19ea4194ddb0d0ca5639a76d0429e40d008bcc9af1d3178169c3ea52920121039009d050afab185a555ce10ab7923701f54747048fe464f4245c022baa053af2ffffffff0114341700000000001976a914b6b58dcfb375038d40655d91f56205f3bda4c55688ac00000000"
    }, 
    {
      "txid": "6136191f6604bb6a3c2645831b22e2d23be2955b6d8a1ba492757a62b1dd52e2",
      "hash": "6136191f6604bb6a3c2645831b22e2d23be2955b6d8a1ba492757a62b1dd52e2",
      "version": 1,
      "size": 226,
      "vsize": 226,
      "locktime": 0,
      "vin": [
        {
          "txid": "96d40e2b468e2c0e0ee01caa9991d7a8eabee60d235bae80a7c296c9d406b22a",
          "vout": 1,
          "scriptSig": {
            "asm": "3045022100b6f853c87898dc633dceea70f0a695830d1bfcd6aadf07ed4b7b24c3d79897a7022007dc4c465dc51ec29c887c62f4d04324ec3c839c78fc0a34deec1a034c4b9cf4[ALL] 0384a9a36de00797765bb8cbd04dabb5aa68695b13ab3d76e64a85d79f0c76db7f",
            "hex": "483045022100b6f853c87898dc633dceea70f0a695830d1bfcd6aadf07ed4b7b24c3d79897a7022007dc4c465dc51ec29c887c62f4d04324ec3c839c78fc0a34deec1a034c4b9cf401210384a9a36de00797765bb8cbd04dabb5aa68695b13ab3d76e64a85d79f0c76db7f"
          },
          "sequence": 4294967295
        }
      ],
      "vout": [
        {
          "value": 0.82660000,
          "n": 0,
          "scriptPubKey": {
            "asm": "OP_DUP OP_HASH160 46ca66fe02b18a27604b1d9edc58ef09b6a58a68 OP_EQUALVERIFY OP_CHECKSIG",
            "hex": "76a91446ca66fe02b18a27604b1d9edc58ef09b6a58a6888ac",
            "reqSigs": 1,
            "type": "pubkeyhash",
            "addresses": [
              "LRgG2oNsN7Lp2VZTGmkHXFmvoJtJ2WUMpt"
            ]
          }
        }, 
        {
          "value": 20.19976327,
          "n": 1,
          "scriptPubKey": {
            "asm": "OP_DUP OP_HASH160 8a4fd1372b1dd683fede7d68f2332fae2e9c9f71 OP_EQUALVERIFY OP_CHECKSIG",
            "hex": "76a9148a4fd1372b1dd683fede7d68f2332fae2e9c9f7188ac",
            "reqSigs": 1,
            "type": "pubkeyhash",
            "addresses": [
              "LXqH8V6ZtsHBrURFbVxHR59KA24qcdosN3"
            ]
          }
        }
      ],
      "hex": "01000000012ab206d4c996c2a780ae5b230de6beeaa8d79199aa1ce00e0e2c8e462b0ed496010000006b483045022100b6f853c87898dc633dceea70f0a695830d1bfcd6aadf07ed4b7b24c3d79897a7022007dc4c465dc51ec29c887c62f4d04324ec3c839c78fc0a34deec1a034c4b9cf401210384a9a36de00797765bb8cbd04dabb5aa68695b13ab3d76e64a85d79f0c76db7fffffffff02a04aed04000000001976a91446ca66fe02b18a27604b1d9edc58ef09b6a58a6888ac87646678000000001976a9148a4fd1372b1dd683fede7d68f2332fae2e9c9f7188ac00000000"
    }, 
    {
      "txid": "74c1b62763c0efd4688217191e4aa4b3392c200d148f52368a55f53b4c8f8278",
      "hash": "74c1b62763c0efd4688217191e4aa4b3392c200d148f52368a55f53b4c8f8278",
      "version": 1,
      "size": 226,
      "vsize": 226,
      "locktime": 1357701,
      "vin": [
        {
          "txid": "0d5b0bb7c3cc6484e6de1b7a5b89acbdacdd7d89f3ae7941ca3eea19bb9fef6d",
          "vout": 3,
          "scriptSig": {
            "asm": "3045022100e1f44d8cc36aefa23f7d0a9a16cf1228d8b760f5e100965a22aa53b5ea2b64d9022054fac0d96a2c1f492bfdb6a20782e4ad75dafb203fc9c694052833cabecec52c[ALL] 0240aa80cfb66eee227969097e87e2edaff5a4a3fafe4c42e481df79e6f8a822f9",
            "hex": "483045022100e1f44d8cc36aefa23f7d0a9a16cf1228d8b760f5e100965a22aa53b5ea2b64d9022054fac0d96a2c1f492bfdb6a20782e4ad75dafb203fc9c694052833cabecec52c01210240aa80cfb66eee227969097e87e2edaff5a4a3fafe4c42e481df79e6f8a822f9"
          },
          "sequence": 4294967294
        }
      ],
      "vout": [
        {
          "value": 0.13710200,
          "n": 0,
          "scriptPubKey": {
            "asm": "OP_DUP OP_HASH160 0b3c0c60f7549e4e372574fa115ac237d39d2575 OP_EQUALVERIFY OP_CHECKSIG",
            "hex": "76a9140b3c0c60f7549e4e372574fa115ac237d39d257588ac",
            "reqSigs": 1,
            "type": "pubkeyhash",
            "addresses": [
              "LLFMdZCXnyvaSAVpkHDUMSriM7NhJHkfdo"
            ]
          }
        }, 
        {
          "value": 2.00000000,
          "n": 1,
          "scriptPubKey": {
            "asm": "OP_DUP OP_HASH160 fafddd1126a12bd421ff4e75f823be868f2a83ac OP_EQUALVERIFY OP_CHECKSIG",
            "hex": "76a914fafddd1126a12bd421ff4e75f823be868f2a83ac88ac",
            "reqSigs": 1,
            "type": "pubkeyhash",
            "addresses": [
              "Li75JvF8bFsQBPzdv8hdF9YqPJKaH5bxjP"
            ]
          }
        }
      ],
      "hex": "01000000016def9fbb19ea3eca4179aef3897dddacbdac895b7a1bdee68464ccc3b70b5b0d030000006b483045022100e1f44d8cc36aefa23f7d0a9a16cf1228d8b760f5e100965a22aa53b5ea2b64d9022054fac0d96a2c1f492bfdb6a20782e4ad75dafb203fc9c694052833cabecec52c01210240aa80cfb66eee227969097e87e2edaff5a4a3fafe4c42e481df79e6f8a822f9feffffff027833d100000000001976a9140b3c0c60f7549e4e372574fa115ac237d39d257588ac00c2eb0b000000001976a914fafddd1126a12bd421ff4e75f823be868f2a83ac88ac85b71400"
    }, 
    {
      "txid": "a6d2a18202e88812f274d2e9fe056094b28e7384b1c8dee9513b08fdaa26fe99",
      "hash": "a4454ca3d272b2488be48a5501026cb3d6330f52fc4bba54349f5c2c50e41920",
      "version": 1,
      "size": 248,
      "vsize": 166,
      "locktime": 0,
      "vin": [
        {
          "txid": "59707ac1ae60714e5870184b0ec331aefedb7809bbe5127cf8df402ce85ff634",
          "vout": 0,
          "scriptSig": {
            "asm": "0014a309f06ef5ed483f2317c27b5aad538556b2216e",
            "hex": "160014a309f06ef5ed483f2317c27b5aad538556b2216e"
          },
          "txinwitness": [
            "30450221009652b5a11db41ec83b730a3655147820b44b44103a14e360bdfdd915f1086c3c0220305b0869e8c4e5f5449d8567166102fef0e7644459fe36d0b8a63ff236ef3c4401", 
            "02ffa665db23f70a329b442e2ab77218248410554a4c416d1931c79813beef5262"
          ],
          "sequence": 4294967295
        }
      ],
      "vout": [
        {
          "value": 100.00000000,
          "n": 0,
          "scriptPubKey": {
            "asm": "OP_HASH160 da44cca5e974fe2b44b543ad34d82dbef90840f2 OP_EQUAL",
            "hex": "a914da44cca5e974fe2b44b543ad34d82dbef90840f287",
            "reqSigs": 1,
            "type": "scripthash",
            "addresses": [
              "MToFxWsPRCn7HZ9JKLExmsxzpkF4c79XeN"
            ]
          }
        }, 
        {
          "value": 478.63656086,
          "n": 1,
          "scriptPubKey": {
            "asm": "OP_HASH160 ff39bb0bb962a7fba95fb1359a0b17dce46936c1 OP_EQUAL",
            "hex": "a914ff39bb0bb962a7fba95fb1359a0b17dce46936c187",
            "reqSigs": 1,
            "type": "scripthash",
            "addresses": [
              "MXAfhYRn1ZKZKmakgvxbmr1F9yw79W24me"
            ]
          }
        }
      ],
      "hex": "0100000000010134f65fe82c40dff87c12e5bb0978dbfeae31c30e4b1870584e7160aec17a70590000000017160014a309f06ef5ed483f2317c27b5aad538556b2216effffffff0200e40b540200000017a914da44cca5e974fe2b44b543ad34d82dbef90840f287966ee5240b00000017a914ff39bb0bb962a7fba95fb1359a0b17dce46936c187024830450221009652b5a11db41ec83b730a3655147820b44b44103a14e360bdfdd915f1086c3c0220305b0869e8c4e5f5449d8567166102fef0e7644459fe36d0b8a63ff236ef3c44012102ffa665db23f70a329b442e2ab77218248410554a4c416d1931c79813beef526200000000"
    }, 
    {
      "txid": "d47b18fb0e0af84a7cab4a34ebe308c51d3b7d8426904c8f34052004222425bf",
      "hash": "d47b18fb0e0af84a7cab4a34ebe308c51d3b7d8426904c8f34052004222425bf",
      "version": 1,
      "size": 223,
      "vsize": 223,
      "locktime": 0,
      "vin": [
        {
          "txid": "6475e9af5dc1d0747ac3bb7966a9f797f2501693785bb5cfa7ceb68c423b90e6",
          "vout": 1,
          "scriptSig": {
            "asm": "3044022044de19f980380f12b510872bf202d174ca6672ddffb5f53143be52e5b178a413022066c1cbf3faf8005b7353f54e78b93fc4c87e46bb649f440b735a385619aba250[ALL] 03bc761ebeee2509399f4fec5da915eb55e604f91f5e92c2de3c4c6d3802a10c79",
            "hex": "473044022044de19f980380f12b510872bf202d174ca6672ddffb5f53143be52e5b178a413022066c1cbf3faf8005b7353f54e78b93fc4c87e46bb649f440b735a385619aba250012103bc761ebeee2509399f4fec5da915eb55e604f91f5e92c2de3c4c6d3802a10c79"
          },
          "sequence": 4294967295
        }
      ],
      "vout": [
        {
          "value": 10.27660000,
          "n": 0,
          "scriptPubKey": {
            "asm": "OP_HASH160 1b9bdaf1eabf006ecea22da3684e2964e3a37187 OP_EQUAL",
            "hex": "a9141b9bdaf1eabf006ecea22da3684e2964e3a3718787",
            "reqSigs": 1,
            "type": "scripthash",
            "addresses": [
              "MAR9Bd4KVRdc9ao3VCZoSmBaQxjrJSAwVp"
            ]
          }
        }, 
        {
          "value": 29.64441993,
          "n": 1,
          "scriptPubKey": {
            "asm": "OP_DUP OP_HASH160 12b7353795a3b694d90baf83dfb04c12d2ca7f2a OP_EQUALVERIFY OP_CHECKSIG",
            "hex": "76a91412b7353795a3b694d90baf83dfb04c12d2ca7f2a88ac",
            "reqSigs": 1,
            "type": "pubkeyhash",
            "addresses": [
              "LLvuuAxq2qNRgzHxo7SgMQxm9njRRyk1wx"
            ]
          }
        }
      ],
      "hex": "0100000001e6903b428cb6cea7cfb55b78931650f297f7a96679bbc37a74d0c15dafe97564010000006a473044022044de19f980380f12b510872bf202d174ca6672ddffb5f53143be52e5b178a413022066c1cbf3faf8005b7353f54e78b93fc4c87e46bb649f440b735a385619aba250012103bc761ebeee2509399f4fec5da915eb55e604f91f5e92c2de3c4c6d3802a10c79ffffffff02e0d8403d0000000017a9141b9bdaf1eabf006ecea22da3684e2964e3a371878789cbb1b0000000001976a91412b7353795a3b694d90baf83dfb04c12d2ca7f2a88ac00000000"
    }, 
    {
      "txid": "c8ef4c006174d0081adf26742c7dca0c516eb61740f4f9aee96f0911fdb93323",
      "hash": "c8ef4c006174d0081adf26742c7dca0c516eb61740f4f9aee96f0911fdb93323",
      "version": 1,
      "size": 225,
      "vsize": 225,
      "locktime": 0,
      "vin": [
        {
          "txid": "e9c3f519397850e296e25a50842abec71d85019acafab8deee9b59e7ba3dedca",
          "vout": 0,
          "scriptSig": {
            "asm": "304402204c21fe43f4d9ac1540dc70b7e6dbc2e2a3e7a12a40656f292faadf9f1bdc23e302200768a2110ed6fec097a326b33f8e6b7d86902485a0878674cf4c009031f62674[ALL] 02bb00714131e5e37bf46c293ec08af9991eb1f28a75d87291df8e9e1ceef8c399",
            "hex": "47304402204c21fe43f4d9ac1540dc70b7e6dbc2e2a3e7a12a40656f292faadf9f1bdc23e302200768a2110ed6fec097a326b33f8e6b7d86902485a0878674cf4c009031f62674012102bb00714131e5e37bf46c293ec08af9991eb1f28a75d87291df8e9e1ceef8c399"
          },
          "sequence": 4294967295
        }
      ],
      "vout": [
        {
          "value": 12.61510896,
          "n": 0,
          "scriptPubKey": {
            "asm": "OP_DUP OP_HASH160 89226eca8f2c77ad878c4912cb3325c342c082f7 OP_EQUALVERIFY OP_CHECKSIG",
            "hex": "76a91489226eca8f2c77ad878c4912cb3325c342c082f788ac",
            "reqSigs": 1,
            "type": "pubkeyhash",
            "addresses": [
              "LXj45vcVRHMbd61n39N8cbKjYUhmFWNzQ8"
            ]
          }
        }, 
        {
          "value": 14.69785016,
          "n": 1,
          "scriptPubKey": {
            "asm": "OP_DUP OP_HASH160 6ebd45f9b9d540ea1a05c5737a74585763f55f08 OP_EQUALVERIFY OP_CHECKSIG",
            "hex": "76a9146ebd45f9b9d540ea1a05c5737a74585763f55f0888ac",
            "reqSigs": 1,
            "type": "pubkeyhash",
            "addresses": [
              "LVKVLFqnFnU9PTZaQPQHBd5tDFA31KvmUY"
            ]
          }
        }
      ],
      "hex": "0100000001caed3dbae7599beedeb8faca9a01851dc7be2a84505ae296e250783919f5c3e9000000006a47304402204c21fe43f4d9ac1540dc70b7e6dbc2e2a3e7a12a40656f292faadf9f1bdc23e302200768a2110ed6fec097a326b33f8e6b7d86902485a0878674cf4c009031f62674012102bb00714131e5e37bf46c293ec08af9991eb1f28a75d87291df8e9e1ceef8c399ffffffff02f020314b000000001976a91489226eca8f2c77ad878c4912cb3325c342c082f788acb8239b57000000001976a9146ebd45f9b9d540ea1a05c5737a74585763f55f0888ac00000000"
    }, 
    {
      "txid": "92bc61f181fb5cfa16311ce8b465e9911c6caeac446f2ca7c282f86f2e0b4561",
      "hash": "92bc61f181fb5cfa16311ce8b465e9911c6caeac446f2ca7c282f86f2e0b4561",
      "version": 1,
      "size": 225,
      "vsize": 225,
      "locktime": 0,
      "vin": [
        {
          "txid": "66ffcfa02258e5f20e7e229c32a7cdc5b6aaa190ebe9af2a74818e42ae8f7eea",
          "vout": 0,
          "scriptSig": {
            "asm": "304402202fa31335314adb57297d4a80422abad8766acac37f5b792b6a4f6587556e0ae602200e0787b81a8d3c5ea158abe414547e88699d814786eef843b3f367cbeab60954[ALL] 0291551fe23b90fbeeab98005a5e4d5bd0fdb1191241a7784cd0f7fd2574c5fabc",
            "hex": "47304402202fa31335314adb57297d4a80422abad8766acac37f5b792b6a4f6587556e0ae602200e0787b81a8d3c5ea158abe414547e88699d814786eef843b3f367cbeab6095401210291551fe23b90fbeeab98005a5e4d5bd0fdb1191241a7784cd0f7fd2574c5fabc"
          },
          "sequence": 4294967295
        }
      ],
      "vout": [
        {
          "value": 21.26660000,
          "n": 0,
          "scriptPubKey": {
            "asm": "OP_DUP OP_HASH160 3c755b3e3c4e896cbd1b6a703ee2a54995fdf53d OP_EQUALVERIFY OP_CHECKSIG",
            "hex": "76a9143c755b3e3c4e896cbd1b6a703ee2a54995fdf53d88ac",
            "reqSigs": 1,
            "type": "pubkeyhash",
            "addresses": [
              "LQjdPnkw6vj7zMSXZvxsxXNvHpKY8hxccu"
            ]
          }
        }, 
        {
          "value": 20.47952442,
          "n": 1,
          "scriptPubKey": {
            "asm": "OP_DUP OP_HASH160 0a03d385d65c353fa5744c5ae063ee45f40db44c OP_EQUALVERIFY OP_CHECKSIG",
            "hex": "76a9140a03d385d65c353fa5744c5ae063ee45f40db44c88ac",
            "reqSigs": 1,
            "type": "pubkeyhash",
            "addresses": [
              "LL8ubz4Qhx5XDs5R3VwPV6uY5zqr9LkEsg"
            ]
          }
        }
      ],
      "hex": "0100000001ea7e8fae428e81742aafe9eb90a1aab6c5cda7329c227e0ef2e55822a0cfff66000000006a47304402202fa31335314adb57297d4a80422abad8766acac37f5b792b6a4f6587556e0ae602200e0787b81a8d3c5ea158abe414547e88699d814786eef843b3f367cbeab6095401210291551fe23b90fbeeab98005a5e4d5bd0fdb1191241a7784cd0f7fd2574c5fabcffffffff02a041c27e000000001976a9143c755b3e3c4e896cbd1b6a703ee2a54995fdf53d88ac3a46117a000000001976a9140a03d385d65c353fa5744c5ae063ee45f40db44c88ac00000000"
    }, 
    {
      "txid": "f49acf556bdbea3425dae1a503540a9fcb67df3ca3f871c44934ccef9d966079",
      "hash": "f49acf556bdbea3425dae1a503540a9fcb67df3ca3f871c44934ccef9d966079",
      "version": 1,
      "size": 225,
      "vsize": 225,
      "locktime": 0,
      "vin": [
        {
          "txid": "0b495d0e134899f8834850475db1c74cefb31079d91852d35c09c0dcb000a6d7",
          "vout": 1,
          "scriptSig": {
            "asm": "30440220640635a23b74b1d97381c2323689dcb3d668f4f11c71f58334132f675c4631110220705841e459e0739f97ac06639ca65c17adb54f84dcea300d1be218896af1b3b3[ALL] 03329a74385ac2b3eeb342ba5fb04ca96a2bde43a5acdeff1036c891ce71282647",
            "hex": "4730440220640635a23b74b1d97381c2323689dcb3d668f4f11c71f58334132f675c4631110220705841e459e0739f97ac06639ca65c17adb54f84dcea300d1be218896af1b3b3012103329a74385ac2b3eeb342ba5fb04ca96a2bde43a5acdeff1036c891ce71282647"
          },
          "sequence": 4294967295
        }
      ],
      "vout": [
        {
          "value": 0.00055119,
          "n": 0,
          "scriptPubKey": {
            "asm": "OP_DUP OP_HASH160 290f5e6e1cd5210635eb8df605302ffa45dac583 OP_EQUALVERIFY OP_CHECKSIG",
            "hex": "76a914290f5e6e1cd5210635eb8df605302ffa45dac58388ac",
            "reqSigs": 1,
            "type": "pubkeyhash",
            "addresses": [
              "LNy4NveLMN1ni3uDCNQWL4U3SQP52EXto1"
            ]
          }
        }, 
        {
          "value": 0.04728800,
          "n": 1,
          "scriptPubKey": {
            "asm": "OP_DUP OP_HASH160 78656541c0cb3dae17faedc0d53c4123430b5194 OP_EQUALVERIFY OP_CHECKSIG",
            "hex": "76a91478656541c0cb3dae17faedc0d53c4123430b519488ac",
            "reqSigs": 1,
            "type": "pubkeyhash",
            "addresses": [
              "LWCYpKPiQmnqBchaqogh3smdRizNb8FG2D"
            ]
          }
        }
      ],
      "hex": "0100000001d7a600b0dcc0095cd35218d97910b3ef4cc7b15d47504883f89948130e5d490b010000006a4730440220640635a23b74b1d97381c2323689dcb3d668f4f11c71f58334132f675c4631110220705841e459e0739f97ac06639ca65c17adb54f84dcea300d1be218896af1b3b3012103329a74385ac2b3eeb342ba5fb04ca96a2bde43a5acdeff1036c891ce71282647ffffffff024fd70000000000001976a914290f5e6e1cd5210635eb8df605302ffa45dac58388ace0274800000000001976a91478656541c0cb3dae17faedc0d53c4123430b519488ac00000000"
    }, 
    {
      "txid": "6f0731a32b69802ff3dcd0c82f0eb9021773cc033ceb4977fe66279a2c01e70a",
      "hash": "6f0731a32b69802ff3dcd0c82f0eb9021773cc033ceb4977fe66279a2c01e70a",
      "version": 1,
      "size": 226,
      "vsize": 226,
      "locktime": 0,
      "vin": [
        {
          "txid": "810feae71419d879ed0f264d152151437a9af548d2288c97818ae399c6030e09",
          "vout": 349,
          "scriptSig": {
            "asm": "3045022100c7940fa7fb46bcf1c480389de74c9884cf43da986ae8d9c88bbf23f73842cde7022054b406c7d2d807a1f7a60eda8e9f5bbe8f1c441e3425da871a44c73aa27e53bd[ALL] 03b43004830a69d3817ea4e54b61e374e119ecf6046833ec02df195729e44cb76f",
            "hex": "483045022100c7940fa7fb46bcf1c480389de74c9884cf43da986ae8d9c88bbf23f73842cde7022054b406c7d2d807a1f7a60eda8e9f5bbe8f1c441e3425da871a44c73aa27e53bd012103b43004830a69d3817ea4e54b61e374e119ecf6046833ec02df195729e44cb76f"
          },
          "sequence": 4294967295
        }
      ],
      "vout": [
        {
          "value": 0.00057269,
          "n": 0,
          "scriptPubKey": {
            "asm": "OP_DUP OP_HASH160 a3c725abd7d6e9816d27f99ec4e04ed62c6084f9 OP_EQUALVERIFY OP_CHECKSIG",
            "hex": "76a914a3c725abd7d6e9816d27f99ec4e04ed62c6084f988ac",
            "reqSigs": 1,
            "type": "pubkeyhash",
            "addresses": [
              "La9vyU7AWURrK4a78GnQaUzdZufCv6hUWX"
            ]
          }
        }, 
        {
          "value": 0.13597788,
          "n": 1,
          "scriptPubKey": {
            "asm": "OP_DUP OP_HASH160 9c028d301bb02ce8105ee6f97e9e212121baac7e OP_EQUALVERIFY OP_CHECKSIG",
            "hex": "76a9149c028d301bb02ce8105ee6f97e9e212121baac7e88ac",
            "reqSigs": 1,
            "type": "pubkeyhash",
            "addresses": [
              "LZSrjRNLHS4GPhgYKaZAtoSrPjTTbz7pub"
            ]
          }
        }
      ],
      "hex": "0100000001090e03c699e38a81978c28d248f59a7a435121154d260fed79d81914e7ea0f815d0100006b483045022100c7940fa7fb46bcf1c480389de74c9884cf43da986ae8d9c88bbf23f73842cde7022054b406c7d2d807a1f7a60eda8e9f5bbe8f1c441e3425da871a44c73aa27e53bd012103b43004830a69d3817ea4e54b61e374e119ecf6046833ec02df195729e44cb76fffffffff02b5df0000000000001976a914a3c725abd7d6e9816d27f99ec4e04ed62c6084f988ac5c7ccf00000000001976a9149c028d301bb02ce8105ee6f97e9e212121baac7e88ac00000000"
    }, 
    {
      "txid": "4b92f37d4606ce9e33d3ec05e8bad5689e2a51d8a1ab4a551aad009ec5d66e7b",
      "hash": "4b92f37d4606ce9e33d3ec05e8bad5689e2a51d8a1ab4a551aad009ec5d66e7b",
      "version": 1,
      "size": 226,
      "vsize": 226,
      "locktime": 0,
      "vin": [
        {
          "txid": "231edce92dda0fbb9ee381fbaae731e8d67cfd9ec5c95cf28033aba2a16b1b6d",
          "vout": 14,
          "scriptSig": {
            "asm": "3045022100d64091d08bb53efa5e4d5a05c68b7a4c4600e1c6e3e5a9716a6ee26815da15eb02202f3a4bc5aa3360e3f5d95707d07eb51fb13c05c8ba38ea76beb7c424379cee53[ALL] 032dbabd6b54786f4016b9a7d73bd17024f6513a531e052585c4a72b1164e9837a",
            "hex": "483045022100d64091d08bb53efa5e4d5a05c68b7a4c4600e1c6e3e5a9716a6ee26815da15eb02202f3a4bc5aa3360e3f5d95707d07eb51fb13c05c8ba38ea76beb7c424379cee530121032dbabd6b54786f4016b9a7d73bd17024f6513a531e052585c4a72b1164e9837a"
          },
          "sequence": 4294967295
        }
      ],
      "vout": [
        {
          "value": 4.99977400,
          "n": 0,
          "scriptPubKey": {
            "asm": "OP_DUP OP_HASH160 20b6fd5c64ec4f8f8e12c7d53ef370441021ac0b OP_EQUALVERIFY OP_CHECKSIG",
            "hex": "76a91420b6fd5c64ec4f8f8e12c7d53ef370441021ac0b88ac",
            "reqSigs": 1,
            "type": "pubkeyhash",
            "addresses": [
              "LNCw6hT4jcsTpf4eEVminvgZnqMrzfjbUw"
            ]
          }
        }, 
        {
          "value": 3.99700000,
          "n": 1,
          "scriptPubKey": {
            "asm": "OP_DUP OP_HASH160 c4ed20e3c560600b96edc892dd5aea5262e09268 OP_EQUALVERIFY OP_CHECKSIG",
            "hex": "76a914c4ed20e3c560600b96edc892dd5aea5262e0926888ac",
            "reqSigs": 1,
            "type": "pubkeyhash",
            "addresses": [
              "LdBCmnc3jwQaVmNSRrE71GkMTw3H1dSoev"
            ]
          }
        }
      ],
      "hex": "01000000016d1b6ba1a2ab3380f25cc9c59efd7cd6e831e7aafb81e39ebb0fda2de9dc1e230e0000006b483045022100d64091d08bb53efa5e4d5a05c68b7a4c4600e1c6e3e5a9716a6ee26815da15eb02202f3a4bc5aa3360e3f5d95707d07eb51fb13c05c8ba38ea76beb7c424379cee530121032dbabd6b54786f4016b9a7d73bd17024f6513a531e052585c4a72b1164e9837affffffff02b80ccd1d000000001976a91420b6fd5c64ec4f8f8e12c7d53ef370441021ac0b88ac20f0d217000000001976a914c4ed20e3c560600b96edc892dd5aea5262e0926888ac00000000"
    }, 
    {
      "txid": "50c3b1ba660a2adad1704e7b9b1a38325b88487bfb256b8c7339f939230f898d",
      "hash": "50c3b1ba660a2adad1704e7b9b1a38325b88487bfb256b8c7339f939230f898d",
      "version": 1,
      "size": 226,
      "vsize": 226,
      "locktime": 0,
      "vin": [
        {
          "txid": "aee25ce32e59a6ce2ff1a68e39463b6dcc5225b192928cf2a876b60e00c68723",
          "vout": 135,
          "scriptSig": {
            "asm": "3045022100f75599adb07f15d2d128416aa354902fc893451da8ae2ca3082afbd43d39643f02205c8822fae475bb50ad6fc8ffc2c04f7d69cab153b1294531b9bde2efe9fa05e6[ALL] 02d41e7ea9b863312c36dd530e807a4a5fdd8b0710fd8f621968710897240e555c",
            "hex": "483045022100f75599adb07f15d2d128416aa354902fc893451da8ae2ca3082afbd43d39643f02205c8822fae475bb50ad6fc8ffc2c04f7d69cab153b1294531b9bde2efe9fa05e6012102d41e7ea9b863312c36dd530e807a4a5fdd8b0710fd8f621968710897240e555c"
          },
          "sequence": 4294967295
        }
      ],
      "vout": [
        {
          "value": 0.29712427,
          "n": 0,
          "scriptPubKey": {
            "asm": "OP_DUP OP_HASH160 278ddf42be5e6a731ec87c58fa4dbbb0c4f446cf OP_EQUALVERIFY OP_CHECKSIG",
            "hex": "76a914278ddf42be5e6a731ec87c58fa4dbbb0c4f446cf88ac",
            "reqSigs": 1,
            "type": "pubkeyhash",
            "addresses": [
              "LNq6a9AUvqsxzErWisSiaXKL6UBYrjQgFD"
            ]
          }
        }, 
        {
          "value": 0.00099479,
          "n": 1,
          "scriptPubKey": {
            "asm": "OP_DUP OP_HASH160 2588853ce81840ad668f2b53afabf5527c6c03b3 OP_EQUALVERIFY OP_CHECKSIG",
            "hex": "76a9142588853ce81840ad668f2b53afabf5527c6c03b388ac",
            "reqSigs": 1,
            "type": "pubkeyhash",
            "addresses": [
              "LNeQovEYXqHMEzvYFpA1LxuXdMWAnsuLfK"
            ]
          }
        }
      ],
      "hex": "01000000012387c6000eb676a8f28c9292b12552cc6d3b46398ea6f12fcea6592ee35ce2ae870000006b483045022100f75599adb07f15d2d128416aa354902fc893451da8ae2ca3082afbd43d39643f02205c8822fae475bb50ad6fc8ffc2c04f7d69cab153b1294531b9bde2efe9fa05e6012102d41e7ea9b863312c36dd530e807a4a5fdd8b0710fd8f621968710897240e555cffffffff022b60c501000000001976a914278ddf42be5e6a731ec87c58fa4dbbb0c4f446cf88ac97840100000000001976a9142588853ce81840ad668f2b53afabf5527c6c03b388ac00000000"
    }, 
    {
      "txid": "6f6cb00e1bbda00478e354b28fdc9bbcb86a974c306d6fa7a91b5a9999990b99",
      "hash": "6f6cb00e1bbda00478e354b28fdc9bbcb86a974c306d6fa7a91b5a9999990b99",
      "version": 2,
      "size": 328,
      "vsize": 328,
      "locktime": 1357701,
      "vin": [
        {
          "txid": "19751f13995ba30dcdecb40ca5168afb62b5f18c72eabac4205cc88d4d9da889",
          "vout": 1,
          "scriptSig": {
            "asm": "3045022100b5bf33237ff6109803702d7b7e12de8f615b126f8d7ac9d7983ab3baecb3676b02204fc21f8c5b8b1ec49a7e14bd637ca936413208446d86ed1a3bca79653fec7bbc[ALL] 03d6b7360b849bf983295528c998ad61787f443fd47cd5e7706b25e203b731e6bd",
            "hex": "483045022100b5bf33237ff6109803702d7b7e12de8f615b126f8d7ac9d7983ab3baecb3676b02204fc21f8c5b8b1ec49a7e14bd637ca936413208446d86ed1a3bca79653fec7bbc012103d6b7360b849bf983295528c998ad61787f443fd47cd5e7706b25e203b731e6bd"
          },
          "sequence": 4294967294
        }
      ],
      "vout": [
        {
          "value": 1.37637391,
          "n": 0,
          "scriptPubKey": {
            "asm": "OP_DUP OP_HASH160 5fa72384983c30b477b7dad89c9b85b16aeb55cb OP_EQUALVERIFY OP_CHECKSIG",
            "hex": "76a9145fa72384983c30b477b7dad89c9b85b16aeb55cb88ac",
            "reqSigs": 1,
            "type": "pubkeyhash",
            "addresses": [
              "LTwigSVNgVpZmq4NUyHgUNbKQsDaDCRmqX"
            ]
          }
        }, 
        {
          "value": 0.01652178,
          "n": 1,
          "scriptPubKey": {
            "asm": "OP_DUP OP_HASH160 aec04bda118d0b52912e88583270fca03e4c7a4c OP_EQUALVERIFY OP_CHECKSIG",
            "hex": "76a914aec04bda118d0b52912e88583270fca03e4c7a4c88ac",
            "reqSigs": 1,
            "type": "pubkeyhash",
            "addresses": [
              "Lb9xCa9oubxodgvvh5sTbQJqBacTJEL6MN"
            ]
          }
        }, 
        {
          "value": 0.00400040,
          "n": 2,
          "scriptPubKey": {
            "asm": "OP_DUP OP_HASH160 2908114ba70b90f3afec02bf75d96d0eef927ab7 OP_EQUALVERIFY OP_CHECKSIG",
            "hex": "76a9142908114ba70b90f3afec02bf75d96d0eef927ab788ac",
            "reqSigs": 1,
            "type": "pubkeyhash",
            "addresses": [
              "LNxudd2f7iExd1617Wi5sR5bkuRCayQ4Ys"
            ]
          }
        }, 
        {
          "value": 5.74837943,
          "n": 3,
          "scriptPubKey": {
            "asm": "OP_DUP OP_HASH160 e268287c2967852583542779e75f2e9a2c57adcf OP_EQUALVERIFY OP_CHECKSIG",
            "hex": "76a914e268287c2967852583542779e75f2e9a2c57adcf88ac",
            "reqSigs": 1,
            "type": "pubkeyhash",
            "addresses": [
              "Lfs5kbqWuwT6nAPhmEerLRWv5K3hgkzyde"
            ]
          }
        }, 
        {
          "value": 6.61578393,
          "n": 4,
          "scriptPubKey": {
            "asm": "OP_DUP OP_HASH160 4aa217cfbe8eae238872076af28edb06526ef935 OP_EQUALVERIFY OP_CHECKSIG",
            "hex": "76a9144aa217cfbe8eae238872076af28edb06526ef93588ac",
            "reqSigs": 1,
            "type": "pubkeyhash",
            "addresses": [
              "LS2aSq1KZUeQFHBvpRL35hF8AQoC49RyEB"
            ]
          }
        }
      ],
      "hex": "020000000189a89d4d8dc85c20c4baea728cf1b562fb8a16a50cb4eccd0da35b99131f7519010000006b483045022100b5bf33237ff6109803702d7b7e12de8f615b126f8d7ac9d7983ab3baecb3676b02204fc21f8c5b8b1ec49a7e14bd637ca936413208446d86ed1a3bca79653fec7bbc012103d6b7360b849bf983295528c998ad61787f443fd47cd5e7706b25e203b731e6bdfeffffff050f2e3408000000001976a9145fa72384983c30b477b7dad89c9b85b16aeb55cb88acd2351900000000001976a914aec04bda118d0b52912e88583270fca03e4c7a4c88aca81a0600000000001976a9142908114ba70b90f3afec02bf75d96d0eef927ab788acb7544322000000001976a914e268287c2967852583542779e75f2e9a2c57adcf88ac99e26e27000000001976a9144aa217cfbe8eae238872076af28edb06526ef93588ac85b71400"
    }
  ],
  "time": 1517036878,
  "mediantime": 1517036394,
  "nonce": 4283449928,
  "bits": "1a047f14",
  "difficulty": 3731199.183374282,
  "chainwork": "0000000000000000000000000000000000000000000000327474b7ef108e16d0",
  "previousblockhash": "796e5d1818f2448f4e7aa1985d23228d80bb88115fa93c42abed9cda24754a77",
  "nextblockhash": "b1a9cd911b5d714fe32daea45e02b581604164c6fd4495c8317ba84ec4bb9913"
}
