{
  "hash": "191dd43fe29d07371cbe60f3ac713b71d9045fbffac08c555e21ee260efbc794",
  "confirmations": 3381,
  "strippedsize": 507,
  "size": 543,
  "weight": 2064,
  "height": 1357614,
  "version": 536870912,
  "versionHex": "20000000",
  "merkleroot": "f3dafd30c7dd5286ea0d837037a8d50678bfbd567f7485c913fd5b10f6ba84f9",
  "tx": [
    {
      "txid": "bc220c867b058f4145b5a559939f86bc1b2bd8d77e36e2ff3a91e99cefacc1df",
      "hash": "8dec35872856f87f89ce1040f11063b5c7e1ccdbc93a12b032abc4145acad7d8",
      "version": 1,
      "size": 236,
      "vsize": 209,
      "locktime": 0,
      "vin": [
        {
          "coinbase": "032eb714045a6bfb932cfabe6d6d416cf7b763063d82dd30883833fc89b762097626f35669224a598b84f1afb90a4000000000000000042f4c502f0816006ec61f000000",
          "sequence": 4294967295
        }
      ],
      "vout": [
        {
          "value": 25.00022600,
          "n": 0,
          "scriptPubKey": {
            "asm": "OP_DUP OP_HASH160 57757ed2ecf2052ff3126c397aca7defb9ca2cec OP_EQUALVERIFY OP_CHECKSIG",
            "hex": "76a91457757ed2ecf2052ff3126c397aca7defb9ca2cec88ac",
            "reqSigs": 1,
            "type": "pubkeyhash",
            "addresses": [
              "LTCPodGk5FwcJaRzH9yKnwicxzFUbxp6tN"
            ]
          }
        }, 
        {
          "value": 0.00000000,
          "n": 1,
          "scriptPubKey": {
            "asm": "OP_RETURN aa21a9ed188113aaeffdf56fccf0718007db2ba0a8f6e20aa47d30df6aa7c12c2c869e3c",
            "hex": "6a24aa21a9ed188113aaeffdf56fccf0718007db2ba0a8f6e20aa47d30df6aa7c12c2c869e3c",
            "type": "nulldata"
          }
        }
      ],
      "hex": "010000000001010000000000000000000000000000000000000000000000000000000000000000ffffffff44032eb714045a6bfb932cfabe6d6d416cf7b763063d82dd30883833fc89b762097626f35669224a598b84f1afb90a4000000000000000042f4c502f0816006ec61f000000ffffffff0248510395000000001976a91457757ed2ecf2052ff3126c397aca7defb9ca2cec88ac0000000000000000266a24aa21a9ed188113aaeffdf56fccf0718007db2ba0a8f6e20aa47d30df6aa7c12c2c869e3c0120000000000000000000000000000000000000000000000000000000000000000000000000"
    }, 
    {
      "txid": "da1aa5556fe9b00706f6ffb4347b6e6a0f6dfd50ee3971f95a1e203bd7af831b",
      "hash": "da1aa5556fe9b00706f6ffb4347b6e6a0f6dfd50ee3971f95a1e203bd7af831b",
      "version": 1,
      "size": 226,
      "vsize": 226,
      "locktime": 0,
      "vin": [
        {
          "txid": "debad2b78320f657a069bc7a6cdcd4ca575948be14297bd4bd0f589ced965d8c",
          "vout": 10,
          "scriptSig": {
            "asm": "3045022100a77142b3f50824534a0eebe7363e7457540f396237d68339956076d52f90e03d02202f9ea554da5a9ce992f9a8f941297b6a57d783d855e39a8753e6b6d6fd921291[ALL] 03baddf30876701605d9f5cf0617e0201bdc87342efbbccbbab3eacdd8036690a3",
            "hex": "483045022100a77142b3f50824534a0eebe7363e7457540f396237d68339956076d52f90e03d02202f9ea554da5a9ce992f9a8f941297b6a57d783d855e39a8753e6b6d6fd921291012103baddf30876701605d9f5cf0617e0201bdc87342efbbccbbab3eacdd8036690a3"
          },
          "sequence": 4294967295
        }
      ],
      "vout": [
        {
          "value": 0.00276996,
          "n": 0,
          "scriptPubKey": {
            "asm": "OP_DUP OP_HASH160 05e511b3b672562ce1e9dcb58acae68a75b1aab4 OP_EQUALVERIFY OP_CHECKSIG",
            "hex": "76a91405e511b3b672562ce1e9dcb58acae68a75b1aab488ac",
            "reqSigs": 1,
            "type": "pubkeyhash",
            "addresses": [
              "LKm84B94LefrfPs5snuuocQeLBXS6XJj16"
            ]
          }
        }, 
        {
          "value": 0.49700404,
          "n": 1,
          "scriptPubKey": {
            "asm": "OP_DUP OP_HASH160 cb9204674c5df4357d16a33908a9a80e93c8ebee OP_EQUALVERIFY OP_CHECKSIG",
            "hex": "76a914cb9204674c5df4357d16a33908a9a80e93c8ebee88ac",
            "reqSigs": 1,
            "type": "pubkeyhash",
            "addresses": [
              "LdnLMcCBkNei5sMwyv96okMAwoNnHnE2Ea"
            ]
          }
        }
      ],
      "hex": "01000000018c5d96ed9c580fbdd47b2914be485957cad4dc6c7abc69a057f62083b7d2bade0a0000006b483045022100a77142b3f50824534a0eebe7363e7457540f396237d68339956076d52f90e03d02202f9ea554da5a9ce992f9a8f941297b6a57d783d855e39a8753e6b6d6fd921291012103baddf30876701605d9f5cf0617e0201bdc87342efbbccbbab3eacdd8036690a3ffffffff02043a0400000000001976a91405e511b3b672562ce1e9dcb58acae68a75b1aab488ac345ef602000000001976a914cb9204674c5df4357d16a33908a9a80e93c8ebee88ac00000000"
    }
  ],
  "time": 1517026195,
  "mediantime": 1517025746,
  "nonce": 1762138025,
  "bits": "1a047f14",
  "difficulty": 3731199.183374282,
  "chainwork": "00000000000000000000000000000000000000000000003260a98d6c940bb1c6",
  "previousblockhash": "cb218854f72f3a04fbfc343773df40af63426be26ebf3700eb80890b3f020686",
  "nextblockhash": "7448a9103f0fa990619d3576652df5981c8db42841079ecfec0849496304418c"
}
