{
  "hash": "19598e06d32dd07c48a6a9a7f98b715585b8a39abb7919a017f73c3e33057d77",
  "confirmations": 1699,
  "strippedsize": 3271,
  "size": 3307,
  "weight": 13120,
  "height": 1359295,
  "version": 536870912,
  "versionHex": "20000000",
  "merkleroot": "1243621e8830226ca185ac36ee45f02f414e8f51b6211ed167fc488b03855e0c",
  "tx": [
    {
      "txid": "72bebae9ffffbb9ded6debd0038fa7506a44a8dcfd8b60221cd64bb15890f671",
      "hash": "55bd5f248944af628a883b634ffbc4b7df12cf3d878c1721dcfabb547df781a8",
      "version": 2,
      "size": 234,
      "vsize": 207,
      "locktime": 0,
      "vin": [
        {
          "coinbase": "03bfbd1404db9d6f5a2ffabe6d6d8f8ec0c35518e7410c8ac62e1084707e236301b2318998642d31f10d36e46275010000000000000003041bd50b00000000000000",
          "sequence": 4294967295
        }
      ],
      "vout": [
        {
          "value": 25.00659161,
          "n": 0,
          "scriptPubKey": {
            "asm": "OP_DUP OP_HASH160 3d29d474d0a98b5b2669d990d2917780837edf0c OP_EQUALVERIFY OP_CHECKSIG",
            "hex": "76a9143d29d474d0a98b5b2669d990d2917780837edf0c88ac",
            "reqSigs": 1,
            "type": "pubkeyhash",
            "addresses": [
              "LQoMbJnzRK2sDXazJuUNXPTx7FrKKPJgt6"
            ]
          }
        }, 
        {
          "value": 0.00000000,
          "n": 1,
          "scriptPubKey": {
            "asm": "OP_RETURN aa21a9ed8ab0a2dcbceddf74acf4396e6c0a1c96ee73203c24cdd76eed96e59c94ee5304",
            "hex": "6a24aa21a9ed8ab0a2dcbceddf74acf4396e6c0a1c96ee73203c24cdd76eed96e59c94ee5304",
            "type": "nulldata"
          }
        }
      ],
      "hex": "020000000001010000000000000000000000000000000000000000000000000000000000000000ffffffff4203bfbd1404db9d6f5a2ffabe6d6d8f8ec0c35518e7410c8ac62e1084707e236301b2318998642d31f10d36e46275010000000000000003041bd50b00000000000000ffffffff02d9070d95000000001976a9143d29d474d0a98b5b2669d990d2917780837edf0c88ac0000000000000000266a24aa21a9ed8ab0a2dcbceddf74acf4396e6c0a1c96ee73203c24cdd76eed96e59c94ee53040120000000000000000000000000000000000000000000000000000000000000000000000000"
    }, 
    {
      "txid": "65316becc73426ba87df405f1adda83578450e27e3ea58d0e9bd5c60992646d7",
      "hash": "65316becc73426ba87df405f1adda83578450e27e3ea58d0e9bd5c60992646d7",
      "version": 1,
      "size": 226,
      "vsize": 226,
      "locktime": 0,
      "vin": [
        {
          "txid": "8430f49a32c199acf117e6fef9cd1c305d039cb779f0766818c9537d07005384",
          "vout": 1,
          "scriptSig": {
            "asm": "3045022100cfb5dc7c29211199d05ec9ca065641b824004534b2177784b5a776f86a83275802202557a235c19df73c24214508e19e68a371bd7f2f1d5c9df4ee8974f7731ce05e[ALL] 0273f3b7b9f825f8176a7639f5b30842fe3d88f4ef546913f7308f830e334b3223",
            "hex": "483045022100cfb5dc7c29211199d05ec9ca065641b824004534b2177784b5a776f86a83275802202557a235c19df73c24214508e19e68a371bd7f2f1d5c9df4ee8974f7731ce05e01210273f3b7b9f825f8176a7639f5b30842fe3d88f4ef546913f7308f830e334b3223"
          },
          "sequence": 4294967295
        }
      ],
      "vout": [
        {
          "value": 0.25000000,
          "n": 0,
          "scriptPubKey": {
            "asm": "OP_DUP OP_HASH160 da8de702b84196cbe7a78a61d649cdead7a545ba OP_EQUALVERIFY OP_CHECKSIG",
            "hex": "76a914da8de702b84196cbe7a78a61d649cdead7a545ba88ac",
            "reqSigs": 1,
            "type": "pubkeyhash",
            "addresses": [
              "Lf9ZZakC5GWXG3JrMdGLtG4bS8XDbH1BgK"
            ]
          }
        }, 
        {
          "value": 3.20479850,
          "n": 1,
          "scriptPubKey": {
            "asm": "OP_DUP OP_HASH160 3ee64862850a8b202c5fa7f0e92e3b12efbc76ae OP_EQUALVERIFY OP_CHECKSIG",
            "hex": "76a9143ee64862850a8b202c5fa7f0e92e3b12efbc76ae88ac",
            "reqSigs": 1,
            "type": "pubkeyhash",
            "addresses": [
              "LQxY2S3s6BxptY2Hx21qbkNx2ky3WJWmet"
            ]
          }
        }
      ],
      "hex": "0100000001845300077d53c9186876f079b79c035d301ccdf9fee617f1ac99c1329af43084010000006b483045022100cfb5dc7c29211199d05ec9ca065641b824004534b2177784b5a776f86a83275802202557a235c19df73c24214508e19e68a371bd7f2f1d5c9df4ee8974f7731ce05e01210273f3b7b9f825f8176a7639f5b30842fe3d88f4ef546913f7308f830e334b3223ffffffff0240787d01000000001976a914da8de702b84196cbe7a78a61d649cdead7a545ba88ac6a221a13000000001976a9143ee64862850a8b202c5fa7f0e92e3b12efbc76ae88ac00000000"
    }, 
    {
      "txid": "a2e938ee5259ab12cffabd2fa5cc5a342e2e73dc8a261a11f966fe37072559e0",
      "hash": "a2e938ee5259ab12cffabd2fa5cc5a342e2e73dc8a261a11f966fe37072559e0",
      "version": 1,
      "size": 335,
      "vsize": 335,
      "locktime": 0,
      "vin": [
        {
          "txid": "dfce02b6f2f4071f8b7d6495d22911f520bca4888d333b26c79fab757a405b0d",
          "vout": 6,
          "scriptSig": {
            "asm": "0 3045022100b4148d8fbc80d22d99a15b93fda9f4ffa660f2ed35b68bdd87d4fa8c66f2892c02205010abe34f92798341f43e9acc26687f059a3b0f03ae77a9ec4ca2a72536107b[ALL] 304402203ebcce74d176c82e1e0fdb1a7ad2b5166ca0563760c3b25fe2cb30a5b3eeb8b402202dfc224bb0598482a024aa8dd0bd030f48e0c2b1edee15951382a424d4252f3a[ALL] 522103d29c4ae1256357c6d8e22362d8109cb07bcaad6668dfed8ad48fd8e32d6db9462102dd856fe2ec0682022c100311c82a5710108d074b021dac4bf7d642429deeac3852ae",
            "hex": "00483045022100b4148d8fbc80d22d99a15b93fda9f4ffa660f2ed35b68bdd87d4fa8c66f2892c02205010abe34f92798341f43e9acc26687f059a3b0f03ae77a9ec4ca2a72536107b0147304402203ebcce74d176c82e1e0fdb1a7ad2b5166ca0563760c3b25fe2cb30a5b3eeb8b402202dfc224bb0598482a024aa8dd0bd030f48e0c2b1edee15951382a424d4252f3a0147522103d29c4ae1256357c6d8e22362d8109cb07bcaad6668dfed8ad48fd8e32d6db9462102dd856fe2ec0682022c100311c82a5710108d074b021dac4bf7d642429deeac3852ae"
          },
          "sequence": 4294967295
        }
      ],
      "vout": [
        {
          "value": 0.31297900,
          "n": 0,
          "scriptPubKey": {
            "asm": "OP_DUP OP_HASH160 d0cb665a492aeeb67a3f9135f046bfbb5bb09fa6 OP_EQUALVERIFY OP_CHECKSIG",
            "hex": "76a914d0cb665a492aeeb67a3f9135f046bfbb5bb09fa688ac",
            "reqSigs": 1,
            "type": "pubkeyhash",
            "addresses": [
              "LeFxUadacRr4pipaPbLWqeNsGRtry9sCcX"
            ]
          }
        }, 
        {
          "value": 0.49049000,
          "n": 1,
          "scriptPubKey": {
            "asm": "OP_HASH160 e7adc870aa0ddd49102d377dd0c3e7170b74ce02 OP_EQUAL",
            "hex": "a914e7adc870aa0ddd49102d377dd0c3e7170b74ce0287",
            "reqSigs": 1,
            "type": "scripthash",
            "addresses": [
              "MV2AWPtMSaexwLNEbgQ6PUTSfmagvcVron"
            ]
          }
        }
      ],
      "hex": "01000000010d5b407a75ab9fc7263b338d88a4bc20f51129d295647d8b1f07f4f2b602cedf06000000da00483045022100b4148d8fbc80d22d99a15b93fda9f4ffa660f2ed35b68bdd87d4fa8c66f2892c02205010abe34f92798341f43e9acc26687f059a3b0f03ae77a9ec4ca2a72536107b0147304402203ebcce74d176c82e1e0fdb1a7ad2b5166ca0563760c3b25fe2cb30a5b3eeb8b402202dfc224bb0598482a024aa8dd0bd030f48e0c2b1edee15951382a424d4252f3a0147522103d29c4ae1256357c6d8e22362d8109cb07bcaad6668dfed8ad48fd8e32d6db9462102dd856fe2ec0682022c100311c82a5710108d074b021dac4bf7d642429deeac3852aeffffffff026c91dd01000000001976a914d0cb665a492aeeb67a3f9135f046bfbb5bb09fa688aca86dec020000000017a914e7adc870aa0ddd49102d377dd0c3e7170b74ce028700000000"
    }, 
    {
      "txid": "1f7492b5e021caf86fb491734cfd5ea28448d3bdf8364aef4bffb01875d83474",
      "hash": "1f7492b5e021caf86fb491734cfd5ea28448d3bdf8364aef4bffb01875d83474",
      "version": 1,
      "size": 374,
      "vsize": 374,
      "locktime": 0,
      "vin": [
        {
          "txid": "1ef4b7c857e17d87d7a0507c67ee5986a80f31f305eba589278024de21531b20",
          "vout": 1,
          "scriptSig": {
            "asm": "3045022100b6b2d0c00449898dd1c35cb48e95964ea41b3e46facbce992da4ab8010cec35202200fd3964a4053d992e4974b807b63aed13ec16ed854d073cd36f551f331ca2e1c[ALL] 0328c9ae635abf580c261c44815dc1aac309e16ff26250525b7e99951369d2b8c7",
            "hex": "483045022100b6b2d0c00449898dd1c35cb48e95964ea41b3e46facbce992da4ab8010cec35202200fd3964a4053d992e4974b807b63aed13ec16ed854d073cd36f551f331ca2e1c01210328c9ae635abf580c261c44815dc1aac309e16ff26250525b7e99951369d2b8c7"
          },
          "sequence": 4294967295
        }, 
        {
          "txid": "492d89a553bb06f12f6f2dba9e4bcf5cd16cfc3ed330e46c4c6c15de2b6296a3",
          "vout": 0,
          "scriptSig": {
            "asm": "3045022100df22058dfe95692c64f4fc2b9a254cae3b4bc8a17dae734d0862cb0b62c128f4022039fbb1fb618c342aefb1effee820e5ee01ac4a9afd1067007c2539cbd6afab45[ALL] 033b50a262c3efece231576a8c4eacc01c4dbf06e2a217df4c1557323b86cfc5b6",
            "hex": "483045022100df22058dfe95692c64f4fc2b9a254cae3b4bc8a17dae734d0862cb0b62c128f4022039fbb1fb618c342aefb1effee820e5ee01ac4a9afd1067007c2539cbd6afab450121033b50a262c3efece231576a8c4eacc01c4dbf06e2a217df4c1557323b86cfc5b6"
          },
          "sequence": 4294967295
        }
      ],
      "vout": [
        {
          "value": 1.00000000,
          "n": 0,
          "scriptPubKey": {
            "asm": "OP_DUP OP_HASH160 bbfe7574c8e895657b3602971a74f11c732bc86c OP_EQUALVERIFY OP_CHECKSIG",
            "hex": "76a914bbfe7574c8e895657b3602971a74f11c732bc86c88ac",
            "reqSigs": 1,
            "type": "pubkeyhash",
            "addresses": [
              "LcMyTCBX9FFSYKphmgVeHaW5zm3fTa7XDf"
            ]
          }
        }, 
        {
          "value": 9.11958384,
          "n": 1,
          "scriptPubKey": {
            "asm": "OP_DUP OP_HASH160 c6e3836c2f4cd8f9c53e32813ded99ac0ce001f1 OP_EQUALVERIFY OP_CHECKSIG",
            "hex": "76a914c6e3836c2f4cd8f9c53e32813ded99ac0ce001f188ac",
            "reqSigs": 1,
            "type": "pubkeyhash",
            "addresses": [
              "LdMac6qdwFnBCVXN96dvoPjzbcE36gzs64"
            ]
          }
        }
      ],
      "hex": "0100000002201b5321de24802789a5eb05f3310fa88659ee677c50a0d7877de157c8b7f41e010000006b483045022100b6b2d0c00449898dd1c35cb48e95964ea41b3e46facbce992da4ab8010cec35202200fd3964a4053d992e4974b807b63aed13ec16ed854d073cd36f551f331ca2e1c01210328c9ae635abf580c261c44815dc1aac309e16ff26250525b7e99951369d2b8c7ffffffffa396622bde156c4c6ce430d33efc6cd15ccf4b9eba2d6f2ff106bb53a5892d49000000006b483045022100df22058dfe95692c64f4fc2b9a254cae3b4bc8a17dae734d0862cb0b62c128f4022039fbb1fb618c342aefb1effee820e5ee01ac4a9afd1067007c2539cbd6afab450121033b50a262c3efece231576a8c4eacc01c4dbf06e2a217df4c1557323b86cfc5b6ffffffff0200e1f505000000001976a914bbfe7574c8e895657b3602971a74f11c732bc86c88ac70615b36000000001976a914c6e3836c2f4cd8f9c53e32813ded99ac0ce001f188ac00000000"
    }, 
    {
      "txid": "2400039ed5e4f4cf13e36cb5308e62fafee47064379a91663cc5b8b7923f9b6d",
      "hash": "2400039ed5e4f4cf13e36cb5308e62fafee47064379a91663cc5b8b7923f9b6d",
      "version": 2,
      "size": 225,
      "vsize": 225,
      "locktime": 1359293,
      "vin": [
        {
          "txid": "3ba15b2ccf3a7a59011bb9aed3a0d0e81638a3c87add07f488ed8081c66891de",
          "vout": 0,
          "scriptSig": {
            "asm": "304402204a4d3ec95ebb3ec5e59bb52a5465e5ee30e162919b552a4ef284c9193679392402203e667c730d979af0170703766d5d590393e2f3901258fb7722374dcf5f6a395c[ALL] 023da15ed62e2458cebb539d2cb95575e31e770e72ce065163a47d756157b3c680",
            "hex": "47304402204a4d3ec95ebb3ec5e59bb52a5465e5ee30e162919b552a4ef284c9193679392402203e667c730d979af0170703766d5d590393e2f3901258fb7722374dcf5f6a395c0121023da15ed62e2458cebb539d2cb95575e31e770e72ce065163a47d756157b3c680"
          },
          "sequence": 4294967294
        }
      ],
      "vout": [
        {
          "value": 0.15182782,
          "n": 0,
          "scriptPubKey": {
            "asm": "OP_DUP OP_HASH160 328a722ef62d57d586ab6d6b896921b272b33808 OP_EQUALVERIFY OP_CHECKSIG",
            "hex": "76a914328a722ef62d57d586ab6d6b896921b272b3380888ac",
            "reqSigs": 1,
            "type": "pubkeyhash",
            "addresses": [
              "LPqBuCk4phUoAv7dx6z3FoT4yDnxhSPLR9"
            ]
          }
        }, 
        {
          "value": 1.19602307,
          "n": 1,
          "scriptPubKey": {
            "asm": "OP_DUP OP_HASH160 7d7b9e3b48ebf3ea94b9b0272f66b1cae08300ed OP_EQUALVERIFY OP_CHECKSIG",
            "hex": "76a9147d7b9e3b48ebf3ea94b9b0272f66b1cae08300ed88ac",
            "reqSigs": 1,
            "type": "pubkeyhash",
            "addresses": [
              "LWfSpKwjrB2e1tLQxLxxn6RdxzauZGPhE9"
            ]
          }
        }
      ],
      "hex": "0200000001de9168c68180ed88f407dd7ac8a33816e8d0a0d3aeb91b01597a3acf2c5ba13b000000006a47304402204a4d3ec95ebb3ec5e59bb52a5465e5ee30e162919b552a4ef284c9193679392402203e667c730d979af0170703766d5d590393e2f3901258fb7722374dcf5f6a395c0121023da15ed62e2458cebb539d2cb95575e31e770e72ce065163a47d756157b3c680feffffff02beabe700000000001976a914328a722ef62d57d586ab6d6b896921b272b3380888ac83fc2007000000001976a9147d7b9e3b48ebf3ea94b9b0272f66b1cae08300ed88acbdbd1400"
    }, 
    {
      "txid": "fb41a0da649d775e013020fb21b7886a9d012a4057b7451a8b0af2fd5134f025",
      "hash": "fb41a0da649d775e013020fb21b7886a9d012a4057b7451a8b0af2fd5134f025",
      "version": 1,
      "size": 225,
      "vsize": 225,
      "locktime": 0,
      "vin": [
        {
          "txid": "82d1616cfcd967097106373bfd6d0d113d74d717d403f31b290e532d7cd82bba",
          "vout": 0,
          "scriptSig": {
            "asm": "30440220459bc655e4edae6da27ad312ff5177c7d4b8eac9de11d0d05b226843049facc40220774b1f8c0334ca81c873d97429f9f2d93a752ef32a445cb50ae98e1f9f58b064[ALL] 026b76fe86ea3339e006e3b09e540fefd3cbc767a21acb9a536cf7d98117dcbc0f",
            "hex": "4730440220459bc655e4edae6da27ad312ff5177c7d4b8eac9de11d0d05b226843049facc40220774b1f8c0334ca81c873d97429f9f2d93a752ef32a445cb50ae98e1f9f58b0640121026b76fe86ea3339e006e3b09e540fefd3cbc767a21acb9a536cf7d98117dcbc0f"
          },
          "sequence": 4294967295
        }
      ],
      "vout": [
        {
          "value": 0.86146554,
          "n": 0,
          "scriptPubKey": {
            "asm": "OP_DUP OP_HASH160 0db6b7762c9a95ea91e0e2ba69a506524b48229f OP_EQUALVERIFY OP_CHECKSIG",
            "hex": "76a9140db6b7762c9a95ea91e0e2ba69a506524b48229f88ac",
            "reqSigs": 1,
            "type": "pubkeyhash",
            "addresses": [
              "LLUTw5i7UtEgof6XFKCActGBjGUo2mynft"
            ]
          }
        }, 
        {
          "value": 98.01896213,
          "n": 1,
          "scriptPubKey": {
            "asm": "OP_DUP OP_HASH160 be2d3dcee0cfc830e69730efcc373e4f6de99024 OP_EQUALVERIFY OP_CHECKSIG",
            "hex": "76a914be2d3dcee0cfc830e69730efcc373e4f6de9902488ac",
            "reqSigs": 1,
            "type": "pubkeyhash",
            "addresses": [
              "LcZWr6EQt2trcHpQbw1UGE4Jebi1ynopY9"
            ]
          }
        }
      ],
      "hex": "0100000001ba2bd87c2d530e291bf303d417d7743d110d6dfd3b3706710967d9fc6c61d182000000006a4730440220459bc655e4edae6da27ad312ff5177c7d4b8eac9de11d0d05b226843049facc40220774b1f8c0334ca81c873d97429f9f2d93a752ef32a445cb50ae98e1f9f58b0640121026b76fe86ea3339e006e3b09e540fefd3cbc767a21acb9a536cf7d98117dcbc0fffffffff02fa7d2205000000001976a9140db6b7762c9a95ea91e0e2ba69a506524b48229f88ac15113d48020000001976a914be2d3dcee0cfc830e69730efcc373e4f6de9902488ac00000000"
    }, 
    {
      "txid": "11e7a0a84364b2e149241dd5bf4fef0cf0b7a9d521b380490c8f72f86a3709fe",
      "hash": "11e7a0a84364b2e149241dd5bf4fef0cf0b7a9d521b380490c8f72f86a3709fe",
      "version": 1,
      "size": 225,
      "vsize": 225,
      "locktime": 0,
      "vin": [
        {
          "txid": "90a928d52a5693821e3adfa63ef6be4087888705275c361bc7b42fb40962925e",
          "vout": 1,
          "scriptSig": {
            "asm": "3044022052abb670b2c513b64eb6e91245190832fc8279344901565ab009a11b15dfffe402200bf3b81bc39df72ced2f9d2d738d7d6ca122f5676e5dc8c2b2fab3ef9a79e2a2[ALL] 02ea6a886bc1b9771af35078892bcccd7bcd3bd47908cdc52fb6b57cc12e12ab22",
            "hex": "473044022052abb670b2c513b64eb6e91245190832fc8279344901565ab009a11b15dfffe402200bf3b81bc39df72ced2f9d2d738d7d6ca122f5676e5dc8c2b2fab3ef9a79e2a2012102ea6a886bc1b9771af35078892bcccd7bcd3bd47908cdc52fb6b57cc12e12ab22"
          },
          "sequence": 4294967295
        }
      ],
      "vout": [
        {
          "value": 0.63897795,
          "n": 0,
          "scriptPubKey": {
            "asm": "OP_DUP OP_HASH160 5aba929b2fab49de9560c5df364716d73054c7e6 OP_EQUALVERIFY OP_CHECKSIG",
            "hex": "76a9145aba929b2fab49de9560c5df364716d73054c7e688ac",
            "reqSigs": 1,
            "type": "pubkeyhash",
            "addresses": [
              "LTVgamtrL2HmVTaaxmHapn4ak9xrUgvqny"
            ]
          }
        }, 
        {
          "value": 98.03755005,
          "n": 1,
          "scriptPubKey": {
            "asm": "OP_DUP OP_HASH160 aba46957f2284e0defdc7e4e7ae2ec7fed623fe5 OP_EQUALVERIFY OP_CHECKSIG",
            "hex": "76a914aba46957f2284e0defdc7e4e7ae2ec7fed623fe588ac",
            "reqSigs": 1,
            "type": "pubkeyhash",
            "addresses": [
              "LasWmXXgHNzF4HrjcuAHxU3f5C3Htxzk98"
            ]
          }
        }
      ],
      "hex": "01000000015e926209b42fb4c71b365c270587888740bef63ea6df3a1e8293562ad528a990010000006a473044022052abb670b2c513b64eb6e91245190832fc8279344901565ab009a11b15dfffe402200bf3b81bc39df72ced2f9d2d738d7d6ca122f5676e5dc8c2b2fab3ef9a79e2a2012102ea6a886bc1b9771af35078892bcccd7bcd3bd47908cdc52fb6b57cc12e12ab22ffffffff02c300cf03000000001976a9145aba929b2fab49de9560c5df364716d73054c7e688acfd6d5948020000001976a914aba46957f2284e0defdc7e4e7ae2ec7fed623fe588ac00000000"
    }, 
    {
      "txid": "af4349c236ad4cd6ab3b4c2ff63c458651b087bba91c459507746ebb3ac0c717",
      "hash": "af4349c236ad4cd6ab3b4c2ff63c458651b087bba91c459507746ebb3ac0c717",
      "version": 1,
      "size": 226,
      "vsize": 226,
      "locktime": 0,
      "vin": [
        {
          "txid": "c5e351ea390e50ba8948aa036e0eca0b394e2a51b1037bf03e740cf060e83495",
          "vout": 1,
          "scriptSig": {
            "asm": "3045022100c8f6a2dd4492e40519f944b20fcaf562531776685e87a3141f09841b1323543602206e83466398cc0b733cb1caefcae347df2dec246b717720960e1cfe7856bd0b9e[ALL] 025863afb7e33f13cc7b6327dae69ca090cd188561727ee8b3f61d76bc0d8448b7",
            "hex": "483045022100c8f6a2dd4492e40519f944b20fcaf562531776685e87a3141f09841b1323543602206e83466398cc0b733cb1caefcae347df2dec246b717720960e1cfe7856bd0b9e0121025863afb7e33f13cc7b6327dae69ca090cd188561727ee8b3f61d76bc0d8448b7"
          },
          "sequence": 4294967295
        }
      ],
      "vout": [
        {
          "value": 96.87429141,
          "n": 0,
          "scriptPubKey": {
            "asm": "OP_DUP OP_HASH160 fc678f836469b435b6693c17fdaeb808df4598c5 OP_EQUALVERIFY OP_CHECKSIG",
            "hex": "76a914fc678f836469b435b6693c17fdaeb808df4598c588ac",
            "reqSigs": 1,
            "type": "pubkeyhash",
            "addresses": [
              "LiEYc54V7ENU3BfkTcuWT2EjH1uK66aHs9"
            ]
          }
        }, 
        {
          "value": 2.00000000,
          "n": 1,
          "scriptPubKey": {
            "asm": "OP_DUP OP_HASH160 0e0084c61e057c7b4a4e2c010362950c28834049 OP_EQUALVERIFY OP_CHECKSIG",
            "hex": "76a9140e0084c61e057c7b4a4e2c010362950c2883404988ac",
            "reqSigs": 1,
            "type": "pubkeyhash",
            "addresses": [
              "LLVzLwBNsPXpaWNTEk7VgD3SKKREoNzYV2"
            ]
          }
        }
      ],
      "hex": "01000000019534e860f00c743ef07b03b1512a4e390bca0e6e03aa4889ba500e39ea51e3c5010000006b483045022100c8f6a2dd4492e40519f944b20fcaf562531776685e87a3141f09841b1323543602206e83466398cc0b733cb1caefcae347df2dec246b717720960e1cfe7856bd0b9e0121025863afb7e33f13cc7b6327dae69ca090cd188561727ee8b3f61d76bc0d8448b7ffffffff0215706a41020000001976a914fc678f836469b435b6693c17fdaeb808df4598c588ac00c2eb0b000000001976a9140e0084c61e057c7b4a4e2c010362950c2883404988ac00000000"
    }, 
    {
      "txid": "72502eeb3264775ddff02ef0030929665b4065136a46207749e5eab486b6074e",
      "hash": "72502eeb3264775ddff02ef0030929665b4065136a46207749e5eab486b6074e",
      "version": 1,
      "size": 226,
      "vsize": 226,
      "locktime": 0,
      "vin": [
        {
          "txid": "61e3a3fbcda881993d92cd1ff80d05efbab4ba7ea83c018ae05911b6272f5ad7",
          "vout": 2,
          "scriptSig": {
            "asm": "3045022100d11a06ea821ee51dd08f79c80861dc70ba8a2c95b5287ad904b14ef5567e25ba022048c4676595241e465d2488dd4765c238ced73d310833f8d7a58db1ddcffefbee[ALL] 026a337c16408bb6f8d83326d76524ae094aaab38e1acf550e9c012a72031ee9bc",
            "hex": "483045022100d11a06ea821ee51dd08f79c80861dc70ba8a2c95b5287ad904b14ef5567e25ba022048c4676595241e465d2488dd4765c238ced73d310833f8d7a58db1ddcffefbee0121026a337c16408bb6f8d83326d76524ae094aaab38e1acf550e9c012a72031ee9bc"
          },
          "sequence": 4294967295
        }
      ],
      "vout": [
        {
          "value": 0.00210420,
          "n": 0,
          "scriptPubKey": {
            "asm": "OP_DUP OP_HASH160 25856b95d206fa0e4f8482de1c5760de53d080e0 OP_EQUALVERIFY OP_CHECKSIG",
            "hex": "76a91425856b95d206fa0e4f8482de1c5760de53d080e088ac",
            "reqSigs": 1,
            "type": "pubkeyhash",
            "addresses": [
              "LNeM6WgWbYZuVCM2oVJojTTPF9m1Yft2mi"
            ]
          }
        }, 
        {
          "value": 0.22000000,
          "n": 1,
          "scriptPubKey": {
            "asm": "OP_DUP OP_HASH160 08a10fc5850a8101ec32e78254a7a1abed4ef07d OP_EQUALVERIFY OP_CHECKSIG",
            "hex": "76a91408a10fc5850a8101ec32e78254a7a1abed4ef07d88ac",
            "reqSigs": 1,
            "type": "pubkeyhash",
            "addresses": [
              "LL1acWCsDavf5XjjxXgsLbuiTjVDYypNj7"
            ]
          }
        }
      ],
      "hex": "0100000001d75a2f27b61159e08a013ca87ebab4baef050df81fcd923d9981a8cdfba3e361020000006b483045022100d11a06ea821ee51dd08f79c80861dc70ba8a2c95b5287ad904b14ef5567e25ba022048c4676595241e465d2488dd4765c238ced73d310833f8d7a58db1ddcffefbee0121026a337c16408bb6f8d83326d76524ae094aaab38e1acf550e9c012a72031ee9bcffffffff02f4350300000000001976a91425856b95d206fa0e4f8482de1c5760de53d080e088ac80b14f01000000001976a91408a10fc5850a8101ec32e78254a7a1abed4ef07d88ac00000000"
    }, 
    {
      "txid": "977d91cdb3eaac2dc986825751c6e061a9832f9a1afe1fba7fcdb385c3202d80",
      "hash": "977d91cdb3eaac2dc986825751c6e061a9832f9a1afe1fba7fcdb385c3202d80",
      "version": 1,
      "size": 522,
      "vsize": 522,
      "locktime": 1359293,
      "vin": [
        {
          "txid": "597083ae96c67a9adf334cc16a0aca58a2e82db236272a2079ea514f8e6c674d",
          "vout": 0,
          "scriptSig": {
            "asm": "3045022100953548443fcf4152309b0ba182c2141eadde91058a6885144417137aee49a8a002202eb8a67659da8afe6ced59197c7babc3104ea590e6c62d61f08b086fb9be3119[ALL] 02d0eb95d1bbdb2a25346a7c9be8df885a4bb59ddf15482c72bd71e5ab574e7734",
            "hex": "483045022100953548443fcf4152309b0ba182c2141eadde91058a6885144417137aee49a8a002202eb8a67659da8afe6ced59197c7babc3104ea590e6c62d61f08b086fb9be3119012102d0eb95d1bbdb2a25346a7c9be8df885a4bb59ddf15482c72bd71e5ab574e7734"
          },
          "sequence": 4294967294
        }, 
        {
          "txid": "68c79adbaa676507b701a0116a1e57c36436fc681edcca2b2d2a1b70bcd7bc33",
          "vout": 0,
          "scriptSig": {
            "asm": "3045022100f66a19797e2de42d588e680942b8ffb3886cedbfdc5db00ef628065be64510460220552ffc5276d9719d6fcd4461b9988fabafd5d0e768f4f6d42aa68d9b1a517c7a[ALL] 0280f6caeb20012eb55c464b069720c23cf4e4e62bbdb911163216399e2b764e73",
            "hex": "483045022100f66a19797e2de42d588e680942b8ffb3886cedbfdc5db00ef628065be64510460220552ffc5276d9719d6fcd4461b9988fabafd5d0e768f4f6d42aa68d9b1a517c7a01210280f6caeb20012eb55c464b069720c23cf4e4e62bbdb911163216399e2b764e73"
          },
          "sequence": 4294967294
        }, 
        {
          "txid": "45db9e75eb422464df0864f326a4d449ee763b9599be9bd89d875874695d974b",
          "vout": 1,
          "scriptSig": {
            "asm": "3045022100f2f26a46d8b6229d2e5fa4768d97f6670bff9bcd4107fb8012532204ccb9809d022014f777c07d151866b99a98c459466ee2bc4cf0423c2716e5b9594b8d59bda67a[ALL] 02f820401f35f9475acf98f513a1660f82d7f992f4306235cab41f88b8b6be3e72",
            "hex": "483045022100f2f26a46d8b6229d2e5fa4768d97f6670bff9bcd4107fb8012532204ccb9809d022014f777c07d151866b99a98c459466ee2bc4cf0423c2716e5b9594b8d59bda67a012102f820401f35f9475acf98f513a1660f82d7f992f4306235cab41f88b8b6be3e72"
          },
          "sequence": 4294967294
        }
      ],
      "vout": [
        {
          "value": 0.01000005,
          "n": 0,
          "scriptPubKey": {
            "asm": "OP_DUP OP_HASH160 aeeb7ab2a780fd7f662cc07345ea5329d9a1f2f0 OP_EQUALVERIFY OP_CHECKSIG",
            "hex": "76a914aeeb7ab2a780fd7f662cc07345ea5329d9a1f2f088ac",
            "reqSigs": 1,
            "type": "pubkeyhash",
            "addresses": [
              "LbAqvykeaZQFWnYbjTihfEGMPebU2VNtpD"
            ]
          }
        }, 
        {
          "value": 26.17725000,
          "n": 1,
          "scriptPubKey": {
            "asm": "OP_DUP OP_HASH160 5c7a48b67605ac2c01b6f3160c654c801af39182 OP_EQUALVERIFY OP_CHECKSIG",
            "hex": "76a9145c7a48b67605ac2c01b6f3160c654c801af3918288ac",
            "reqSigs": 1,
            "type": "pubkeyhash",
            "addresses": [
              "LTevvJeTkz3B7K3VGq79AR9XWxnHb28hNh"
            ]
          }
        }
      ],
      "hex": "01000000034d676c8e4f51ea79202a2736b22de8a258ca0a6ac14c33df9a7ac696ae837059000000006b483045022100953548443fcf4152309b0ba182c2141eadde91058a6885144417137aee49a8a002202eb8a67659da8afe6ced59197c7babc3104ea590e6c62d61f08b086fb9be3119012102d0eb95d1bbdb2a25346a7c9be8df885a4bb59ddf15482c72bd71e5ab574e7734feffffff33bcd7bc701b2a2d2bcadc1e68fc3664c3571e6a11a001b7076567aadb9ac768000000006b483045022100f66a19797e2de42d588e680942b8ffb3886cedbfdc5db00ef628065be64510460220552ffc5276d9719d6fcd4461b9988fabafd5d0e768f4f6d42aa68d9b1a517c7a01210280f6caeb20012eb55c464b069720c23cf4e4e62bbdb911163216399e2b764e73feffffff4b975d697458879dd89bbe99953b76ee49d4a426f36408df642442eb759edb45010000006b483045022100f2f26a46d8b6229d2e5fa4768d97f6670bff9bcd4107fb8012532204ccb9809d022014f777c07d151866b99a98c459466ee2bc4cf0423c2716e5b9594b8d59bda67a012102f820401f35f9475acf98f513a1660f82d7f992f4306235cab41f88b8b6be3e72feffffff0245420f00000000001976a914aeeb7ab2a780fd7f662cc07345ea5329d9a1f2f088ac4850079c000000001976a9145c7a48b67605ac2c01b6f3160c654c801af3918288acbdbd1400"
    }, 
    {
      "txid": "269e5c8dc45ae4b938695328a386d78a23c2ba316898fa445ef868a7ef1e8481",
      "hash": "269e5c8dc45ae4b938695328a386d78a23c2ba316898fa445ef868a7ef1e8481",
      "version": 2,
      "size": 408,
      "vsize": 408,
      "locktime": 1359293,
      "vin": [
        {
          "txid": "1f4da9033ceef54938184876bd96a1d1793aace7a3558a28768ed726127d2cf9",
          "vout": 1,
          "scriptSig": {
            "asm": "3045022100eb1a6346a7b29ad1e0c77eb86f546582566d2821546fb13d08fd8a0be4976d69022030009e020161cc808592442976b136968b5bf821c6089926dd6e131e9d4eae23[ALL] 02609f48c821f36affebe965c50ca47cd9cd65deece8063588ed0737de8fe2ce5c",
            "hex": "483045022100eb1a6346a7b29ad1e0c77eb86f546582566d2821546fb13d08fd8a0be4976d69022030009e020161cc808592442976b136968b5bf821c6089926dd6e131e9d4eae23012102609f48c821f36affebe965c50ca47cd9cd65deece8063588ed0737de8fe2ce5c"
          },
          "sequence": 4294967294
        }, 
        {
          "txid": "ed73710de7c0000c8fc2cf02b856e0affb037fc82498680fcc9530f1d1dc512c",
          "vout": 3,
          "scriptSig": {
            "asm": "30450221009eb56b2bbcaaafd1ac55617e93e577a23a370f671b015ccaf41c1c1e829a942602206c773e4fbad3199b66bfc686d4345983b5f79b39172f2cdfc4abdd16f9e679ea[ALL] 03d1044fd80c611d817dba779af7c28d671b110ff538af5360b6e6ce098d3ee9d1",
            "hex": "4830450221009eb56b2bbcaaafd1ac55617e93e577a23a370f671b015ccaf41c1c1e829a942602206c773e4fbad3199b66bfc686d4345983b5f79b39172f2cdfc4abdd16f9e679ea012103d1044fd80c611d817dba779af7c28d671b110ff538af5360b6e6ce098d3ee9d1"
          },
          "sequence": 4294967294
        }
      ],
      "vout": [
        {
          "value": 0.00959679,
          "n": 0,
          "scriptPubKey": {
            "asm": "OP_DUP OP_HASH160 583966d864df8d5247ba0c00a9d33e258c5fcd09 OP_EQUALVERIFY OP_CHECKSIG",
            "hex": "76a914583966d864df8d5247ba0c00a9d33e258c5fcd0988ac",
            "reqSigs": 1,
            "type": "pubkeyhash",
            "addresses": [
              "LTGSVSHsCnqL6fUejy6Aam7ZEhFA83BXhA"
            ]
          }
        }, 
        {
          "value": 0.59900000,
          "n": 1,
          "scriptPubKey": {
            "asm": "OP_DUP OP_HASH160 70feeb6c743b3099f41a12d9c868c75b44692b58 OP_EQUALVERIFY OP_CHECKSIG",
            "hex": "76a91470feeb6c743b3099f41a12d9c868c75b44692b5888ac",
            "reqSigs": 1,
            "type": "pubkeyhash",
            "addresses": [
              "LVXRKpk8rz1EHvCECNtWdXmTBqQYS2VRPt"
            ]
          }
        }, 
        {
          "value": 0.69705525,
          "n": 2,
          "scriptPubKey": {
            "asm": "OP_DUP OP_HASH160 c071761a1d6052082985e7825826031d9840eb59 OP_EQUALVERIFY OP_CHECKSIG",
            "hex": "76a914c071761a1d6052082985e7825826031d9840eb5988ac",
            "reqSigs": 1,
            "type": "pubkeyhash",
            "addresses": [
              "LcmVvUaUGbPLr5Zi6wbpEUwVhtAbAMFmD5"
            ]
          }
        }
      ],
      "hex": "0200000002f92c7d1226d78e76288a55a3e7ac3a79d1a196bd7648183849f5ee3c03a94d1f010000006b483045022100eb1a6346a7b29ad1e0c77eb86f546582566d2821546fb13d08fd8a0be4976d69022030009e020161cc808592442976b136968b5bf821c6089926dd6e131e9d4eae23012102609f48c821f36affebe965c50ca47cd9cd65deece8063588ed0737de8fe2ce5cfeffffff2c51dcd1f13095cc0f689824c87f03fbafe056b802cfc28f0c00c0e70d7173ed030000006b4830450221009eb56b2bbcaaafd1ac55617e93e577a23a370f671b015ccaf41c1c1e829a942602206c773e4fbad3199b66bfc686d4345983b5f79b39172f2cdfc4abdd16f9e679ea012103d1044fd80c611d817dba779af7c28d671b110ff538af5360b6e6ce098d3ee9d1feffffff03bfa40e00000000001976a914583966d864df8d5247ba0c00a9d33e258c5fcd0988ac60009203000000001976a91470feeb6c743b3099f41a12d9c868c75b44692b5888ac359f2704000000001976a914c071761a1d6052082985e7825826031d9840eb5988acbdbd1400"
    }
  ],
  "time": 1517264345,
  "mediantime": 1517262894,
  "nonce": 1544811081,
  "bits": "1a042eae",
  "difficulty": 4011378.762614286,
  "chainwork": "000000000000000000000000000000000000000000000033df114ca025f2a880",
  "previousblockhash": "8c12bc1ab9339d3c05b55f29a232aeb50d67fe3901dda17c84296eecf03b83b1",
  "nextblockhash": "884de8a77c1f6184d7bc7a8d5af41beb2ccf634987496c8d34a6ca67c16be497"
}
