{
  "hash": "195b7b67322be4427ad655df442d089e0dca3b163dacc58fde7f48deb6e2677a",
  "confirmations": 3348,
  "strippedsize": 3762,
  "size": 3798,
  "weight": 15084,
  "height": 1357647,
  "version": 536870912,
  "versionHex": "20000000",
  "merkleroot": "94633a71fd481179f811b22ae42cf27281e2693e4a7f73eafee39ce69e083ddc",
  "tx": [
    {
      "txid": "3f246e3d32bd501e587a649487ac6f3dec26243813aa4e36c4e0428a34760fba",
      "hash": "dd5f9702d53ddcd57ae59a364f9844e957c642049acfac443abae7f4ef813b3c",
      "version": 1,
      "size": 236,
      "vsize": 209,
      "locktime": 0,
      "vin": [
        {
          "coinbase": "034fb714045a6c0b492cfabe6d6d19884b672f7607b20c2dca72446ebc5fd51bb386ffa3467a1d73ce7d0a4918a54000000000000000042f4c502f082200590e9f1f0000",
          "sequence": 4294967295
        }
      ],
      "vout": [
        {
          "value": 25.00822387,
          "n": 0,
          "scriptPubKey": {
            "asm": "OP_DUP OP_HASH160 57757ed2ecf2052ff3126c397aca7defb9ca2cec OP_EQUALVERIFY OP_CHECKSIG",
            "hex": "76a91457757ed2ecf2052ff3126c397aca7defb9ca2cec88ac",
            "reqSigs": 1,
            "type": "pubkeyhash",
            "addresses": [
              "LTCPodGk5FwcJaRzH9yKnwicxzFUbxp6tN"
            ]
          }
        }, 
        {
          "value": 0.00000000,
          "n": 1,
          "scriptPubKey": {
            "asm": "OP_RETURN aa21a9ed1ee6646e48f2f1e6f833fe1a7fcdc68729a43c952ef18d36e63e12d08500351c",
            "hex": "6a24aa21a9ed1ee6646e48f2f1e6f833fe1a7fcdc68729a43c952ef18d36e63e12d08500351c",
            "type": "nulldata"
          }
        }
      ],
      "hex": "010000000001010000000000000000000000000000000000000000000000000000000000000000ffffffff44034fb714045a6c0b492cfabe6d6d19884b672f7607b20c2dca72446ebc5fd51bb386ffa3467a1d73ce7d0a4918a54000000000000000042f4c502f082200590e9f1f0000ffffffff0273850f95000000001976a91457757ed2ecf2052ff3126c397aca7defb9ca2cec88ac0000000000000000266a24aa21a9ed1ee6646e48f2f1e6f833fe1a7fcdc68729a43c952ef18d36e63e12d08500351c0120000000000000000000000000000000000000000000000000000000000000000000000000"
    }, 
    {
      "txid": "b8efccf8965038acf6714d70a2096e2a6381e8c0e62958c5d3311f3b686195b9",
      "hash": "b8efccf8965038acf6714d70a2096e2a6381e8c0e62958c5d3311f3b686195b9",
      "version": 1,
      "size": 225,
      "vsize": 225,
      "locktime": 0,
      "vin": [
        {
          "txid": "bf69681c6b2b2e3da00836009b2c389590155ee84ed0745cb0b682cdc9b1e9ec",
          "vout": 0,
          "scriptSig": {
            "asm": "304402200efddee32f400aed116edff13fae2c57f74652c84fe9368d2a2a6bf17f6828c902200e1c983e3e1dbcdfcfc6d2361ffd75174925272a2d2bbaf20be53de8cd264c1d[ALL] 02804850ef4f0664a0696075df545c25a3515c58a6b649e09d8dc4f9154ef83880",
            "hex": "47304402200efddee32f400aed116edff13fae2c57f74652c84fe9368d2a2a6bf17f6828c902200e1c983e3e1dbcdfcfc6d2361ffd75174925272a2d2bbaf20be53de8cd264c1d012102804850ef4f0664a0696075df545c25a3515c58a6b649e09d8dc4f9154ef83880"
          },
          "sequence": 4294967295
        }
      ],
      "vout": [
        {
          "value": 0.10306917,
          "n": 0,
          "scriptPubKey": {
            "asm": "OP_DUP OP_HASH160 de1c820be96a79f6fb65c1b314f5da68e51a8f5a OP_EQUALVERIFY OP_CHECKSIG",
            "hex": "76a914de1c820be96a79f6fb65c1b314f5da68e51a8f5a88ac",
            "reqSigs": 1,
            "type": "pubkeyhash",
            "addresses": [
              "LfUNRZzAKXQ2sTxUHhvHw2N1jL9uAQYddh"
            ]
          }
        }, 
        {
          "value": 0.28853622,
          "n": 1,
          "scriptPubKey": {
            "asm": "OP_DUP OP_HASH160 2b589705c7434f01b0fa724ac442035d22b7751d OP_EQUALVERIFY OP_CHECKSIG",
            "hex": "76a9142b589705c7434f01b0fa724ac442035d22b7751d88ac",
            "reqSigs": 1,
            "type": "pubkeyhash",
            "addresses": [
              "LPB9SoF4p1fbKoqHGpoQYV8rkrcQBzA9AN"
            ]
          }
        }
      ],
      "hex": "0100000001ece9b1c9cd82b6b05c74d04ee85e159095382c9b003608a03d2e2b6b1c6869bf000000006a47304402200efddee32f400aed116edff13fae2c57f74652c84fe9368d2a2a6bf17f6828c902200e1c983e3e1dbcdfcfc6d2361ffd75174925272a2d2bbaf20be53de8cd264c1d012102804850ef4f0664a0696075df545c25a3515c58a6b649e09d8dc4f9154ef83880ffffffff0265459d00000000001976a914de1c820be96a79f6fb65c1b314f5da68e51a8f5a88ac7645b801000000001976a9142b589705c7434f01b0fa724ac442035d22b7751d88ac00000000"
    }, 
    {
      "txid": "65a09e823c36bc25f3bd30ea8095cb030678505217f30fecfb3eafb872ed4a5a",
      "hash": "65a09e823c36bc25f3bd30ea8095cb030678505217f30fecfb3eafb872ed4a5a",
      "version": 1,
      "size": 817,
      "vsize": 817,
      "locktime": 0,
      "vin": [
        {
          "txid": "e3bad8c16be0c18beb4fb032f2e10b59eca7e977c546b985372e80347406562a",
          "vout": 1,
          "scriptSig": {
            "asm": "3045022100cfec9ee2a278ebb435e9a6d1e0899c2ee9d44c951f6486ebc943e7a7fa19461402203971d0224bb2036c98b1603e476e560d08dfde8c2596435c2754d72a899bcdc7[ALL] 0384a9a36de00797765bb8cbd04dabb5aa68695b13ab3d76e64a85d79f0c76db7f",
            "hex": "483045022100cfec9ee2a278ebb435e9a6d1e0899c2ee9d44c951f6486ebc943e7a7fa19461402203971d0224bb2036c98b1603e476e560d08dfde8c2596435c2754d72a899bcdc701210384a9a36de00797765bb8cbd04dabb5aa68695b13ab3d76e64a85d79f0c76db7f"
          },
          "sequence": 4294967295
        }, 
        {
          "txid": "0e2bff52452e5382d708ab3455dd9d6d1d913828a8b05c4becd9631fcfc64b9b",
          "vout": 0,
          "scriptSig": {
            "asm": "304402201cf6411d794a87424175840054725311f6b8ef1b7242f2a4b2a001016a273a400220492365f4f28c133f66aabf610dcf9ffc03ad6e271eff027b52de9f83f0c19a64[ALL] 0384a9a36de00797765bb8cbd04dabb5aa68695b13ab3d76e64a85d79f0c76db7f",
            "hex": "47304402201cf6411d794a87424175840054725311f6b8ef1b7242f2a4b2a001016a273a400220492365f4f28c133f66aabf610dcf9ffc03ad6e271eff027b52de9f83f0c19a6401210384a9a36de00797765bb8cbd04dabb5aa68695b13ab3d76e64a85d79f0c76db7f"
          },
          "sequence": 4294967295
        }, 
        {
          "txid": "0cee2dd393085fba42527b68031482a392eef2e4ae6406ceb94b230e0b953c67",
          "vout": 0,
          "scriptSig": {
            "asm": "304502210086c9b26edc0dec64d97e84a9fcc1f8fcfc9e3ebafbe5970a48d7c1b5a56a9366022044c0f060fc3ca6c266e847e6fb832b720a283fe1f3f2ef1ab3fabc5ad05d7c63[ALL] 0384a9a36de00797765bb8cbd04dabb5aa68695b13ab3d76e64a85d79f0c76db7f",
            "hex": "48304502210086c9b26edc0dec64d97e84a9fcc1f8fcfc9e3ebafbe5970a48d7c1b5a56a9366022044c0f060fc3ca6c266e847e6fb832b720a283fe1f3f2ef1ab3fabc5ad05d7c6301210384a9a36de00797765bb8cbd04dabb5aa68695b13ab3d76e64a85d79f0c76db7f"
          },
          "sequence": 4294967295
        }, 
        {
          "txid": "0fef851baee2bffddb7e38e920f5ff2e88c3327088e887da335e4f6f9107f7bc",
          "vout": 1,
          "scriptSig": {
            "asm": "3045022100a498be02d09a26fc1aad97de3a0c4519436441057be0cdfa7074761846ef4acc02205f5ede71fd866ee5f632ac2f02a731cec8fb276a6a4ef04403c146a0f101a5d3[ALL] 0384a9a36de00797765bb8cbd04dabb5aa68695b13ab3d76e64a85d79f0c76db7f",
            "hex": "483045022100a498be02d09a26fc1aad97de3a0c4519436441057be0cdfa7074761846ef4acc02205f5ede71fd866ee5f632ac2f02a731cec8fb276a6a4ef04403c146a0f101a5d301210384a9a36de00797765bb8cbd04dabb5aa68695b13ab3d76e64a85d79f0c76db7f"
          },
          "sequence": 4294967295
        }, 
        {
          "txid": "b8f8ec99dc043c2e3e3ad6884fde9878117167288d1d192a92c972413f1e34bf",
          "vout": 0,
          "scriptSig": {
            "asm": "3045022100e0fd549dfa3aaca129372183c276fec66ac2c2cb5539e4f4bbb1bc6360cdf21a0220094e8f76f3862293d5a15b675cb18d8c0c3c3a3d4df6b933ab11b0fddb8bc5a5[ALL] 0384a9a36de00797765bb8cbd04dabb5aa68695b13ab3d76e64a85d79f0c76db7f",
            "hex": "483045022100e0fd549dfa3aaca129372183c276fec66ac2c2cb5539e4f4bbb1bc6360cdf21a0220094e8f76f3862293d5a15b675cb18d8c0c3c3a3d4df6b933ab11b0fddb8bc5a501210384a9a36de00797765bb8cbd04dabb5aa68695b13ab3d76e64a85d79f0c76db7f"
          },
          "sequence": 4294967295
        }
      ],
      "vout": [
        {
          "value": 299.99800000,
          "n": 0,
          "scriptPubKey": {
            "asm": "OP_DUP OP_HASH160 57e2842aa434e3adb6511f3d31ab3f3d05bbc4d8 OP_EQUALVERIFY OP_CHECKSIG",
            "hex": "76a91457e2842aa434e3adb6511f3d31ab3f3d05bbc4d888ac",
            "reqSigs": 1,
            "type": "pubkeyhash",
            "addresses": [
              "LTEeQXdqemYNwLKp8JWswAFxZcAxMEqtcq"
            ]
          }
        }, 
        {
          "value": 12.68240716,
          "n": 1,
          "scriptPubKey": {
            "asm": "OP_DUP OP_HASH160 8a4fd1372b1dd683fede7d68f2332fae2e9c9f71 OP_EQUALVERIFY OP_CHECKSIG",
            "hex": "76a9148a4fd1372b1dd683fede7d68f2332fae2e9c9f7188ac",
            "reqSigs": 1,
            "type": "pubkeyhash",
            "addresses": [
              "LXqH8V6ZtsHBrURFbVxHR59KA24qcdosN3"
            ]
          }
        }
      ],
      "hex": "01000000052a56067434802e3785b946c577e9a7ec590be1f232b04feb8bc1e06bc1d8bae3010000006b483045022100cfec9ee2a278ebb435e9a6d1e0899c2ee9d44c951f6486ebc943e7a7fa19461402203971d0224bb2036c98b1603e476e560d08dfde8c2596435c2754d72a899bcdc701210384a9a36de00797765bb8cbd04dabb5aa68695b13ab3d76e64a85d79f0c76db7fffffffff9b4bc6cf1f63d9ec4b5cb0a82838911d6d9ddd5534ab08d782532e4552ff2b0e000000006a47304402201cf6411d794a87424175840054725311f6b8ef1b7242f2a4b2a001016a273a400220492365f4f28c133f66aabf610dcf9ffc03ad6e271eff027b52de9f83f0c19a6401210384a9a36de00797765bb8cbd04dabb5aa68695b13ab3d76e64a85d79f0c76db7fffffffff673c950b0e234bb9ce0664aee4f2ee92a3821403687b5242ba5f0893d32dee0c000000006b48304502210086c9b26edc0dec64d97e84a9fcc1f8fcfc9e3ebafbe5970a48d7c1b5a56a9366022044c0f060fc3ca6c266e847e6fb832b720a283fe1f3f2ef1ab3fabc5ad05d7c6301210384a9a36de00797765bb8cbd04dabb5aa68695b13ab3d76e64a85d79f0c76db7fffffffffbcf707916f4f5e33da87e8887032c3882efff520e9387edbfdbfe2ae1b85ef0f010000006b483045022100a498be02d09a26fc1aad97de3a0c4519436441057be0cdfa7074761846ef4acc02205f5ede71fd866ee5f632ac2f02a731cec8fb276a6a4ef04403c146a0f101a5d301210384a9a36de00797765bb8cbd04dabb5aa68695b13ab3d76e64a85d79f0c76db7fffffffffbf341e3f4172c9922a191d8d286771117898de4f88d63a3e2e3c04dc99ecf8b8000000006b483045022100e0fd549dfa3aaca129372183c276fec66ac2c2cb5539e4f4bbb1bc6360cdf21a0220094e8f76f3862293d5a15b675cb18d8c0c3c3a3d4df6b933ab11b0fddb8bc5a501210384a9a36de00797765bb8cbd04dabb5aa68695b13ab3d76e64a85d79f0c76db7fffffffff02c09e20fc060000001976a91457e2842aa434e3adb6511f3d31ab3f3d05bbc4d888ac4cd1974b000000001976a9148a4fd1372b1dd683fede7d68f2332fae2e9c9f7188ac00000000"
    }, 
    {
      "txid": "3bcce1b12919860454bfc05a4fad9a9aed0752315a7bc5c89ee4b946963f8427",
      "hash": "3bcce1b12919860454bfc05a4fad9a9aed0752315a7bc5c89ee4b946963f8427",
      "version": 1,
      "size": 225,
      "vsize": 225,
      "locktime": 0,
      "vin": [
        {
          "txid": "0f892778e11547e79d287f92646762f3e0a007477820b97ebb2b54833d928792",
          "vout": 0,
          "scriptSig": {
            "asm": "30440220277b3e5c70d550f83d672691e7ca0c67cf3899a5595ef4f0de9e0bbac0f1fbd202203e0a6b354880043de2099ff673eea01b42dc3b08c553310d61961a2f4b477909[ALL] 02cd2a1514dda0194e42145bee9f0a48a925ed2198503e8319d8be9895a0f309ca",
            "hex": "4730440220277b3e5c70d550f83d672691e7ca0c67cf3899a5595ef4f0de9e0bbac0f1fbd202203e0a6b354880043de2099ff673eea01b42dc3b08c553310d61961a2f4b477909012102cd2a1514dda0194e42145bee9f0a48a925ed2198503e8319d8be9895a0f309ca"
          },
          "sequence": 4294967295
        }
      ],
      "vout": [
        {
          "value": 0.00920000,
          "n": 0,
          "scriptPubKey": {
            "asm": "OP_DUP OP_HASH160 a2d2374859a2846b9e9f1d3057314e99e9158491 OP_EQUALVERIFY OP_CHECKSIG",
            "hex": "76a914a2d2374859a2846b9e9f1d3057314e99e915849188ac",
            "reqSigs": 1,
            "type": "pubkeyhash",
            "addresses": [
              "La4sZMEUg2nW9BJ2GcHT5uxRwvUKpNao8r"
            ]
          }
        }, 
        {
          "value": 0.06539100,
          "n": 1,
          "scriptPubKey": {
            "asm": "OP_DUP OP_HASH160 c9d2a469125937f33553a2fb8ca08acd4ca79e9d OP_EQUALVERIFY OP_CHECKSIG",
            "hex": "76a914c9d2a469125937f33553a2fb8ca08acd4ca79e9d88ac",
            "reqSigs": 1,
            "type": "pubkeyhash",
            "addresses": [
              "Ldd6RT2TzYUCK5ifmmxP4KkJRPnSKLmPtH"
            ]
          }
        }
      ],
      "hex": "01000000019287923d83542bbb7eb920784707a0e0f3626764927f289de74715e17827890f000000006a4730440220277b3e5c70d550f83d672691e7ca0c67cf3899a5595ef4f0de9e0bbac0f1fbd202203e0a6b354880043de2099ff673eea01b42dc3b08c553310d61961a2f4b477909012102cd2a1514dda0194e42145bee9f0a48a925ed2198503e8319d8be9895a0f309caffffffff02c0090e00000000001976a914a2d2374859a2846b9e9f1d3057314e99e915849188ac5cc76300000000001976a914c9d2a469125937f33553a2fb8ca08acd4ca79e9d88ac00000000"
    }, 
    {
      "txid": "27065170b58684a8b3f3005f689425cabe4e977057ba02a906b2e250343bd998",
      "hash": "27065170b58684a8b3f3005f689425cabe4e977057ba02a906b2e250343bd998",
      "version": 1,
      "size": 226,
      "vsize": 226,
      "locktime": 0,
      "vin": [
        {
          "txid": "3bcce1b12919860454bfc05a4fad9a9aed0752315a7bc5c89ee4b946963f8427",
          "vout": 1,
          "scriptSig": {
            "asm": "3045022100b689de52fe0fd3acb280419226889ca4d0dd374fa10f1f1844adbd508d6e9cb602203ee40ac7c92b31da18b51fe0928c68eaa3c80100a541b79cab14e542b6b08d84[ALL] 03794bc4ef2bc40b73bae83edb91e1a2569b9280896977be891056acfcc98c0f6f",
            "hex": "483045022100b689de52fe0fd3acb280419226889ca4d0dd374fa10f1f1844adbd508d6e9cb602203ee40ac7c92b31da18b51fe0928c68eaa3c80100a541b79cab14e542b6b08d84012103794bc4ef2bc40b73bae83edb91e1a2569b9280896977be891056acfcc98c0f6f"
          },
          "sequence": 4294967295
        }
      ],
      "vout": [
        {
          "value": 0.05496100,
          "n": 0,
          "scriptPubKey": {
            "asm": "OP_DUP OP_HASH160 f78c3a802c372aa4c628140b0ce2f51d123438f8 OP_EQUALVERIFY OP_CHECKSIG",
            "hex": "76a914f78c3a802c372aa4c628140b0ce2f51d123438f888ac",
            "reqSigs": 1,
            "type": "pubkeyhash",
            "addresses": [
              "Lhns9qsQRDUFy1AJiFLRNXmaBDCAzSfe82"
            ]
          }
        }, 
        {
          "value": 0.00930000,
          "n": 1,
          "scriptPubKey": {
            "asm": "OP_DUP OP_HASH160 fd1a903affcb2abc02c427951b73c9d4fd1166bd OP_EQUALVERIFY OP_CHECKSIG",
            "hex": "76a914fd1a903affcb2abc02c427951b73c9d4fd1166bd88ac",
            "reqSigs": 1,
            "type": "pubkeyhash",
            "addresses": [
              "LiJF3QMgQfgdaQUyQjm2yiSr66wu482c7H"
            ]
          }
        }
      ],
      "hex": "010000000127843f9646b9e49ec8c57b5a315207ed9a9aad4f5ac0bf5404861929b1e1cc3b010000006b483045022100b689de52fe0fd3acb280419226889ca4d0dd374fa10f1f1844adbd508d6e9cb602203ee40ac7c92b31da18b51fe0928c68eaa3c80100a541b79cab14e542b6b08d84012103794bc4ef2bc40b73bae83edb91e1a2569b9280896977be891056acfcc98c0f6fffffffff0224dd5300000000001976a914f78c3a802c372aa4c628140b0ce2f51d123438f888acd0300e00000000001976a914fd1a903affcb2abc02c427951b73c9d4fd1166bd88ac00000000"
    }, 
    {
      "txid": "0d4e6003cb95518c0247161c1071658ca6a4884c2ba8ad6364940992833def68",
      "hash": "0d4e6003cb95518c0247161c1071658ca6a4884c2ba8ad6364940992833def68",
      "version": 1,
      "size": 225,
      "vsize": 225,
      "locktime": 1357645,
      "vin": [
        {
          "txid": "c0262a4be9dd8462b26fb87215d557aeffce4bf323932cf9389b87a483db458c",
          "vout": 12,
          "scriptSig": {
            "asm": "304402204648dd4c6915c0c623eded93c190413525e4e8eec5ceca6c117fe69a717146e502207de0670c7b4410b50ef7298b0603cfa72c2e8fa638a97d591d4c2e3e971da2f0[ALL] 03a4bf8106ec9361f734eb5c7d69106985c4adbc57dc795d42289b57c7911585a6",
            "hex": "47304402204648dd4c6915c0c623eded93c190413525e4e8eec5ceca6c117fe69a717146e502207de0670c7b4410b50ef7298b0603cfa72c2e8fa638a97d591d4c2e3e971da2f0012103a4bf8106ec9361f734eb5c7d69106985c4adbc57dc795d42289b57c7911585a6"
          },
          "sequence": 4294967294
        }
      ],
      "vout": [
        {
          "value": 19.99900000,
          "n": 0,
          "scriptPubKey": {
            "asm": "OP_DUP OP_HASH160 e45b5fb9f7539c19005753a74eebac9af340c67b OP_EQUALVERIFY OP_CHECKSIG",
            "hex": "76a914e45b5fb9f7539c19005753a74eebac9af340c67b88ac",
            "reqSigs": 1,
            "type": "pubkeyhash",
            "addresses": [
              "Lg3PnirQuHF1UFT1XfDsJJs9TXJhbzR79N"
            ]
          }
        }, 
        {
          "value": 3.35734400,
          "n": 1,
          "scriptPubKey": {
            "asm": "OP_DUP OP_HASH160 485c8db007a22f898986aab5326f7a1d7eb2d258 OP_EQUALVERIFY OP_CHECKSIG",
            "hex": "76a914485c8db007a22f898986aab5326f7a1d7eb2d25888ac",
            "reqSigs": 1,
            "type": "pubkeyhash",
            "addresses": [
              "LRpZnkbUxCpGDvMVtXaHDBJzRmnxfRV9BJ"
            ]
          }
        }
      ],
      "hex": "01000000018c45db83a4879b38f92c9323f34bceffae57d51572b86fb26284dde94b2a26c00c0000006a47304402204648dd4c6915c0c623eded93c190413525e4e8eec5ceca6c117fe69a717146e502207de0670c7b4410b50ef7298b0603cfa72c2e8fa638a97d591d4c2e3e971da2f0012103a4bf8106ec9361f734eb5c7d69106985c4adbc57dc795d42289b57c7911585a6feffffff02600d3477000000001976a914e45b5fb9f7539c19005753a74eebac9af340c67b88ac80e60214000000001976a914485c8db007a22f898986aab5326f7a1d7eb2d25888ac4db71400"
    }, 
    {
      "txid": "449c3eaebee3733233d92630f669cbb6fa70b8b639daea8466ae2e07518511dc",
      "hash": "449c3eaebee3733233d92630f669cbb6fa70b8b639daea8466ae2e07518511dc",
      "version": 2,
      "size": 225,
      "vsize": 225,
      "locktime": 1357645,
      "vin": [
        {
          "txid": "97b8627d1f162ccc1b60a64564291e74fd7e3739a2a054de1d961a48982a7e8b",
          "vout": 0,
          "scriptSig": {
            "asm": "304402200ffe940065ca605feb0957a3fc0f6428a5d60f9f398d1cb5972265ff647b127a0220289ec513f600635ff9f9f434ca610254e01569e9a3cca703cc2ad1cb45343975[ALL] 03eb097c1c22901313725c2f45cde044c7a021b38d5d5b240d39ecb21be9c5be41",
            "hex": "47304402200ffe940065ca605feb0957a3fc0f6428a5d60f9f398d1cb5972265ff647b127a0220289ec513f600635ff9f9f434ca610254e01569e9a3cca703cc2ad1cb45343975012103eb097c1c22901313725c2f45cde044c7a021b38d5d5b240d39ecb21be9c5be41"
          },
          "sequence": 4294967294
        }
      ],
      "vout": [
        {
          "value": 1.91634249,
          "n": 0,
          "scriptPubKey": {
            "asm": "OP_DUP OP_HASH160 7ba2d4706d62d182e6f17d07529e71790d345665 OP_EQUALVERIFY OP_CHECKSIG",
            "hex": "76a9147ba2d4706d62d182e6f17d07529e71790d34566588ac",
            "reqSigs": 1,
            "type": "pubkeyhash",
            "addresses": [
              "LWVgSRXxrjn272BLjxDx9wyBBRSM6VjsvA"
            ]
          }
        }, 
        {
          "value": 91.93108249,
          "n": 1,
          "scriptPubKey": {
            "asm": "OP_DUP OP_HASH160 3bdf7a71cdf1918477892c27d7c293c599650c2f OP_EQUALVERIFY OP_CHECKSIG",
            "hex": "76a9143bdf7a71cdf1918477892c27d7c293c599650c2f88ac",
            "reqSigs": 1,
            "type": "pubkeyhash",
            "addresses": [
              "LQgXr5L2sthHbR6byY9gFbf2qnGYGFvDPD"
            ]
          }
        }
      ],
      "hex": "02000000018b7e2a98481a961dde54a0a239377efd741e296445a6601bcc2c161f7d62b897000000006a47304402200ffe940065ca605feb0957a3fc0f6428a5d60f9f398d1cb5972265ff647b127a0220289ec513f600635ff9f9f434ca610254e01569e9a3cca703cc2ad1cb45343975012103eb097c1c22901313725c2f45cde044c7a021b38d5d5b240d39ecb21be9c5be41feffffff02491b6c0b000000001976a9147ba2d4706d62d182e6f17d07529e71790d34566588ac19b3f323020000001976a9143bdf7a71cdf1918477892c27d7c293c599650c2f88ac4db71400"
    }, 
    {
      "txid": "bdca6abab89d236647c3aed1e1dbce7175e54ffc803d06ac46565120dd9dbb35",
      "hash": "bdca6abab89d236647c3aed1e1dbce7175e54ffc803d06ac46565120dd9dbb35",
      "version": 2,
      "size": 260,
      "vsize": 260,
      "locktime": 1357645,
      "vin": [
        {
          "txid": "371a4a7658f6d7e0cd940eddaa94a942db4c60131a97a008fc61c49fb4d359c1",
          "vout": 0,
          "scriptSig": {
            "asm": "3045022100835d7787aaf8f340c25e762711d6e8908227c0e26837c327a8d472ffe1c90085022013f32084970cee3148c75cab73885e1d0139aad6b01c8141f94064cdb5ba136c[ALL] 022129e72b2b1e2c3969f8c922f3dbb9bf2e3873d71e28b542ae11c56dc769281b",
            "hex": "483045022100835d7787aaf8f340c25e762711d6e8908227c0e26837c327a8d472ffe1c90085022013f32084970cee3148c75cab73885e1d0139aad6b01c8141f94064cdb5ba136c0121022129e72b2b1e2c3969f8c922f3dbb9bf2e3873d71e28b542ae11c56dc769281b"
          },
          "sequence": 4294967294
        }
      ],
      "vout": [
        {
          "value": 38.25392098,
          "n": 0,
          "scriptPubKey": {
            "asm": "OP_DUP OP_HASH160 fbc25cf548aafd408c2de25515dfcc7706640019 OP_EQUALVERIFY OP_CHECKSIG",
            "hex": "76a914fbc25cf548aafd408c2de25515dfcc770664001988ac",
            "reqSigs": 1,
            "type": "pubkeyhash",
            "addresses": [
              "LiB8hwyQoSBeJ63CxdjB4f4RaCbJJb97Pz"
            ]
          }
        }, 
        {
          "value": 1.14462814,
          "n": 1,
          "scriptPubKey": {
            "asm": "OP_DUP OP_HASH160 95185a313508243a5214397d0f8be72a877b3ed3 OP_EQUALVERIFY OP_CHECKSIG",
            "hex": "76a91495185a313508243a5214397d0f8be72a877b3ed388ac",
            "reqSigs": 1,
            "type": "pubkeyhash",
            "addresses": [
              "LYpJ7pkfF6GE6SxynJNRpKgNQscfKnfAcr"
            ]
          }
        }, 
        {
          "value": 0.24039309,
          "n": 2,
          "scriptPubKey": {
            "asm": "OP_DUP OP_HASH160 30620972252e66a1940490c744ca06013e6dc95e OP_EQUALVERIFY OP_CHECKSIG",
            "hex": "76a91430620972252e66a1940490c744ca06013e6dc95e88ac",
            "reqSigs": 1,
            "type": "pubkeyhash",
            "addresses": [
              "LPdn99JYJaxmjr6PqXbvJSVx418rRPY8UW"
            ]
          }
        }
      ],
      "hex": "0200000001c159d3b49fc461fc08a0971a13604cdb42a994aadd0e94cde0d7f658764a1a37000000006b483045022100835d7787aaf8f340c25e762711d6e8908227c0e26837c327a8d472ffe1c90085022013f32084970cee3148c75cab73885e1d0139aad6b01c8141f94064cdb5ba136c0121022129e72b2b1e2c3969f8c922f3dbb9bf2e3873d71e28b542ae11c56dc769281bfeffffff03e2d902e4000000001976a914fbc25cf548aafd408c2de25515dfcc770664001988ac5e90d206000000001976a91495185a313508243a5214397d0f8be72a877b3ed388ac8dcf6e01000000001976a91430620972252e66a1940490c744ca06013e6dc95e88ac4db71400"
    }, 
    {
      "txid": "8fef8a39349f277366b4b98edbbd9f195e263af8fad5eb615d5b0c24cbc6ab52",
      "hash": "8fef8a39349f277366b4b98edbbd9f195e263af8fad5eb615d5b0c24cbc6ab52",
      "version": 2,
      "size": 374,
      "vsize": 374,
      "locktime": 1357645,
      "vin": [
        {
          "txid": "70472b4de18a4bed6fe5773a81597551627f06f90c119eef471a3031e8c75dd5",
          "vout": 1,
          "scriptSig": {
            "asm": "3045022100fbc748ceac8419fd921b67365627043594fe5bbfdf0238a6eb7f4e55285917e9022016ef8855487867dcc546e624b82ab89b8b24780194b053ba5001f1fd26851c1f[ALL] 026a0d6760a239ed53c729a192bc943a9bc6e729cf4098a9e1da040b4a4f21d8e3",
            "hex": "483045022100fbc748ceac8419fd921b67365627043594fe5bbfdf0238a6eb7f4e55285917e9022016ef8855487867dcc546e624b82ab89b8b24780194b053ba5001f1fd26851c1f0121026a0d6760a239ed53c729a192bc943a9bc6e729cf4098a9e1da040b4a4f21d8e3"
          },
          "sequence": 4294967294
        }, 
        {
          "txid": "fc4baf4c3ae8cc56c0bbf8319507723ab4fa63b71889534b238ca452f9adcbd8",
          "vout": 0,
          "scriptSig": {
            "asm": "3045022100c71d4750120a1569ac25100752859822fc5e275746c0a854c9fb05e71ac3821e022021899939774e05aaa4312ed9d24f236afde415ace9b0a482babba2622ab0dec6[ALL] 021e501bf7a37d0e8b1913c3da0e0adb82171425a3cd61481523c0cca75d083a48",
            "hex": "483045022100c71d4750120a1569ac25100752859822fc5e275746c0a854c9fb05e71ac3821e022021899939774e05aaa4312ed9d24f236afde415ace9b0a482babba2622ab0dec60121021e501bf7a37d0e8b1913c3da0e0adb82171425a3cd61481523c0cca75d083a48"
          },
          "sequence": 4294967294
        }
      ],
      "vout": [
        {
          "value": 0.00962850,
          "n": 0,
          "scriptPubKey": {
            "asm": "OP_DUP OP_HASH160 fdf76c2e4685c7677f7ece4403a729788dd91fdc OP_EQUALVERIFY OP_CHECKSIG",
            "hex": "76a914fdf76c2e4685c7677f7ece4403a729788dd91fdc88ac",
            "reqSigs": 1,
            "type": "pubkeyhash",
            "addresses": [
              "LiNocy83Q8MTaMDqo467dvJqZahUy3wi9o"
            ]
          }
        }, 
        {
          "value": 0.67427188,
          "n": 1,
          "scriptPubKey": {
            "asm": "OP_DUP OP_HASH160 dd3e9438d4bb2f2a4323e282cd84f1ad13dc8762 OP_EQUALVERIFY OP_CHECKSIG",
            "hex": "76a914dd3e9438d4bb2f2a4323e282cd84f1ad13dc876288ac",
            "reqSigs": 1,
            "type": "pubkeyhash",
            "addresses": [
              "LfPnZfwKyzfMEuHT7YW7x3U87UWvaJhmwf"
            ]
          }
        }
      ],
      "hex": "0200000002d55dc7e831301a47ef9e110cf9067f62517559813a77e56fed4b8ae14d2b4770010000006b483045022100fbc748ceac8419fd921b67365627043594fe5bbfdf0238a6eb7f4e55285917e9022016ef8855487867dcc546e624b82ab89b8b24780194b053ba5001f1fd26851c1f0121026a0d6760a239ed53c729a192bc943a9bc6e729cf4098a9e1da040b4a4f21d8e3feffffffd8cbadf952a48c234b538918b763fab43a72079531f8bbc056cce83a4caf4bfc000000006b483045022100c71d4750120a1569ac25100752859822fc5e275746c0a854c9fb05e71ac3821e022021899939774e05aaa4312ed9d24f236afde415ace9b0a482babba2622ab0dec60121021e501bf7a37d0e8b1913c3da0e0adb82171425a3cd61481523c0cca75d083a48feffffff0222b10e00000000001976a914fdf76c2e4685c7677f7ece4403a729788dd91fdc88ac74db0404000000001976a914dd3e9438d4bb2f2a4323e282cd84f1ad13dc876288ac4db71400"
    }, 
    {
      "txid": "fd0a95a6ce5397f9f9adebe05729904d31a3cd5f84afe8520b1fe77a3002bf5c",
      "hash": "fd0a95a6ce5397f9f9adebe05729904d31a3cd5f84afe8520b1fe77a3002bf5c",
      "version": 2,
      "size": 226,
      "vsize": 226,
      "locktime": 1357645,
      "vin": [
        {
          "txid": "edaa9a7bc2040da045dfdc199ec60a9754a3e2cfb354a3629f19f37c3ad281e4",
          "vout": 2,
          "scriptSig": {
            "asm": "3045022100dcca432eb5a01b7727750908779b38253a8597336c2d4bc18a6ca1497552de840220389a5b09a249421ba46b58863f9a80461908ec5a03e3bc96284915f6a9a2d82f[ALL] 03c7b2226111bb35ebdbe3d1df1510fa2393a03fd5fe0e060dd52961bbf94497f2",
            "hex": "483045022100dcca432eb5a01b7727750908779b38253a8597336c2d4bc18a6ca1497552de840220389a5b09a249421ba46b58863f9a80461908ec5a03e3bc96284915f6a9a2d82f012103c7b2226111bb35ebdbe3d1df1510fa2393a03fd5fe0e060dd52961bbf94497f2"
          },
          "sequence": 4294967294
        }
      ],
      "vout": [
        {
          "value": 5.75050000,
          "n": 0,
          "scriptPubKey": {
            "asm": "OP_DUP OP_HASH160 7aed0f3897cdd20846b5a027dc73b69ee8f391ab OP_EQUALVERIFY OP_CHECKSIG",
            "hex": "76a9147aed0f3897cdd20846b5a027dc73b69ee8f391ab88ac",
            "reqSigs": 1,
            "type": "pubkeyhash",
            "addresses": [
              "LWRvgo8bAS7jpEMGart1v4d5zioEuzJRAm"
            ]
          }
        }, 
        {
          "value": 3.17827400,
          "n": 1,
          "scriptPubKey": {
            "asm": "OP_DUP OP_HASH160 f9c212fcc11729401889fe9b9e8ae82644f401e9 OP_EQUALVERIFY OP_CHECKSIG",
            "hex": "76a914f9c212fcc11729401889fe9b9e8ae82644f401e988ac",
            "reqSigs": 1,
            "type": "pubkeyhash",
            "addresses": [
              "LhzZ1VHSyVFiRAQVztTq1JikkD6Zu8zLkq"
            ]
          }
        }
      ],
      "hex": "0200000001e481d23a7cf3199f62a354b3cfe2a354970ac69e19dcdf45a00d04c27b9aaaed020000006b483045022100dcca432eb5a01b7727750908779b38253a8597336c2d4bc18a6ca1497552de840220389a5b09a249421ba46b58863f9a80461908ec5a03e3bc96284915f6a9a2d82f012103c7b2226111bb35ebdbe3d1df1510fa2393a03fd5fe0e060dd52961bbf94497f2feffffff0210914622000000001976a9147aed0f3897cdd20846b5a027dc73b69ee8f391ab88ac48a9f112000000001976a914f9c212fcc11729401889fe9b9e8ae82644f401e988ac4db71400"
    }, 
    {
      "txid": "04444c78c8ba411e14da9537a29e2ba00ee48a974e4620da2f6ce0c41cb97ca9",
      "hash": "04444c78c8ba411e14da9537a29e2ba00ee48a974e4620da2f6ce0c41cb97ca9",
      "version": 1,
      "size": 226,
      "vsize": 226,
      "locktime": 0,
      "vin": [
        {
          "txid": "cf0c980893a3f827b2ffe1ff020eecc28390f128b089d25455e53b2996cb8c30",
          "vout": 0,
          "scriptSig": {
            "asm": "3045022100a9dde59c3e3a1950bcd55a30d062d765bb9c72760afbda3e540da7e9838732b50220213f406707632811e3bac5dba666a2a45d64645eac0bf919b5dc47d6bc2068c1[ALL] 02c89c3a9bc192bdbf4443b77448312b7566f60163277e554cac293c7d91d82df4",
            "hex": "483045022100a9dde59c3e3a1950bcd55a30d062d765bb9c72760afbda3e540da7e9838732b50220213f406707632811e3bac5dba666a2a45d64645eac0bf919b5dc47d6bc2068c1012102c89c3a9bc192bdbf4443b77448312b7566f60163277e554cac293c7d91d82df4"
          },
          "sequence": 4294967295
        }
      ],
      "vout": [
        {
          "value": 0.05202760,
          "n": 0,
          "scriptPubKey": {
            "asm": "OP_DUP OP_HASH160 31f7a18308f3c5f25cc288d9a0d4b559a7c14254 OP_EQUALVERIFY OP_CHECKSIG",
            "hex": "76a91431f7a18308f3c5f25cc288d9a0d4b559a7c1425488ac",
            "reqSigs": 1,
            "type": "pubkeyhash",
            "addresses": [
              "LPnA2JuyNgL4SPWaUs5YK6ueEDKkVD3ZkR"
            ]
          }
        }, 
        {
          "value": 0.40875134,
          "n": 1,
          "scriptPubKey": {
            "asm": "OP_DUP OP_HASH160 d07415a3288a6b3b3da70ea26aa6037b23cb36b5 OP_EQUALVERIFY OP_CHECKSIG",
            "hex": "76a914d07415a3288a6b3b3da70ea26aa6037b23cb36b588ac",
            "reqSigs": 1,
            "type": "pubkeyhash",
            "addresses": [
              "LeE9sooBtkZYSZUcTSWV45rdHwTEbUVnTe"
            ]
          }
        }
      ],
      "hex": "0100000001308ccb96293be55554d289b028f19083c2ec0e02ffe1ffb227f8a39308980ccf000000006b483045022100a9dde59c3e3a1950bcd55a30d062d765bb9c72760afbda3e540da7e9838732b50220213f406707632811e3bac5dba666a2a45d64645eac0bf919b5dc47d6bc2068c1012102c89c3a9bc192bdbf4443b77448312b7566f60163277e554cac293c7d91d82df4ffffffff0248634f00000000001976a91431f7a18308f3c5f25cc288d9a0d4b559a7c1425488ac7eb46f02000000001976a914d07415a3288a6b3b3da70ea26aa6037b23cb36b588ac00000000"
    }, 
    {
      "txid": "99460262b057fd2ba26625aab623073bdf5c3e112b48793c94a6f1c0acfa13b3",
      "hash": "99460262b057fd2ba26625aab623073bdf5c3e112b48793c94a6f1c0acfa13b3",
      "version": 1,
      "size": 226,
      "vsize": 226,
      "locktime": 0,
      "vin": [
        {
          "txid": "65485cc33943b8bba36d98cdf14f56ee51b7986a553ecee8e406e4751781e35a",
          "vout": 2,
          "scriptSig": {
            "asm": "3045022100ac62be4f46f2597bb7ecf61c81dcd81e4257ca0c3f1bb43bb0b84e740ea22684022079604d93f5fe54fb81bf8947768cebfa19a9570ca60b9d32da2001320e7f43e4[ALL] 03dd5b8f7abd495d40341dde882f4c9228348c67bdcc3cbc930e0f3000a8cabae9",
            "hex": "483045022100ac62be4f46f2597bb7ecf61c81dcd81e4257ca0c3f1bb43bb0b84e740ea22684022079604d93f5fe54fb81bf8947768cebfa19a9570ca60b9d32da2001320e7f43e4012103dd5b8f7abd495d40341dde882f4c9228348c67bdcc3cbc930e0f3000a8cabae9"
          },
          "sequence": 4294967295
        }
      ],
      "vout": [
        {
          "value": 0.24887400,
          "n": 0,
          "scriptPubKey": {
            "asm": "OP_DUP OP_HASH160 c4d4eb74ec7e52cb4528be1757f5c3e067120462 OP_EQUALVERIFY OP_CHECKSIG",
            "hex": "76a914c4d4eb74ec7e52cb4528be1757f5c3e06712046288ac",
            "reqSigs": 1,
            "type": "pubkeyhash",
            "addresses": [
              "LdAhmjcg8Jwug5P5sYa1Lqjs4QMNCGewXy"
            ]
          }
        }, 
        {
          "value": 1.00000000,
          "n": 1,
          "scriptPubKey": {
            "asm": "OP_DUP OP_HASH160 f99146c14f1bdedd935ef7df10dedfd703d3a420 OP_EQUALVERIFY OP_CHECKSIG",
            "hex": "76a914f99146c14f1bdedd935ef7df10dedfd703d3a42088ac",
            "reqSigs": 1,
            "type": "pubkeyhash",
            "addresses": [
              "LhyYYxakqu6SQJUAsqEro418zbdmDYonUD"
            ]
          }
        }
      ],
      "hex": "01000000015ae3811775e406e4e8ce3e556a98b751ee564ff1cd986da3bbb84339c35c4865020000006b483045022100ac62be4f46f2597bb7ecf61c81dcd81e4257ca0c3f1bb43bb0b84e740ea22684022079604d93f5fe54fb81bf8947768cebfa19a9570ca60b9d32da2001320e7f43e4012103dd5b8f7abd495d40341dde882f4c9228348c67bdcc3cbc930e0f3000a8cabae9ffffffff0268c07b01000000001976a914c4d4eb74ec7e52cb4528be1757f5c3e06712046288ac00e1f505000000001976a914f99146c14f1bdedd935ef7df10dedfd703d3a42088ac00000000"
    }, 
    {
      "txid": "34c912e0805a9c7298b947a379b6ec81c20461e3977a0ce21feac10b9e31d5c6",
      "hash": "34c912e0805a9c7298b947a379b6ec81c20461e3977a0ce21feac10b9e31d5c6",
      "version": 1,
      "size": 226,
      "vsize": 226,
      "locktime": 0,
      "vin": [
        {
          "txid": "7fdd440de4920199adf32870b7bdc4660d9e26c45c8b76808a59d3b18be4b641",
          "vout": 0,
          "scriptSig": {
            "asm": "3045022100998e51bbe3e762f58095689bf758d5fc7dd3d7bba199928923e029623a86436a022068018a696d16fcea02e3cae502eac739132f6dc65e7c01e692fb2050dbed902b[ALL] 021106870a5b801fc619c11e3dfe1952defa92f78210b433aabdd8180dfefd8a49",
            "hex": "483045022100998e51bbe3e762f58095689bf758d5fc7dd3d7bba199928923e029623a86436a022068018a696d16fcea02e3cae502eac739132f6dc65e7c01e692fb2050dbed902b0121021106870a5b801fc619c11e3dfe1952defa92f78210b433aabdd8180dfefd8a49"
          },
          "sequence": 4294967295
        }
      ],
      "vout": [
        {
          "value": 0.07695085,
          "n": 0,
          "scriptPubKey": {
            "asm": "OP_DUP OP_HASH160 f43646e7423d5679a431410ea76892dc5c3ac043 OP_EQUALVERIFY OP_CHECKSIG",
            "hex": "76a914f43646e7423d5679a431410ea76892dc5c3ac04388ac",
            "reqSigs": 1,
            "type": "pubkeyhash",
            "addresses": [
              "LhVEAFR7Qmu6XCDVUZnCya53CiW6nCqkae"
            ]
          }
        }, 
        {
          "value": 0.31464531,
          "n": 1,
          "scriptPubKey": {
            "asm": "OP_DUP OP_HASH160 612bdcb52956193e800a65d228af1d2ac5a69916 OP_EQUALVERIFY OP_CHECKSIG",
            "hex": "76a914612bdcb52956193e800a65d228af1d2ac5a6991688ac",
            "reqSigs": 1,
            "type": "pubkeyhash",
            "addresses": [
              "LU5kMR3mAhwgBXMpQkSNVp5D6uqUdrSgiF"
            ]
          }
        }
      ],
      "hex": "010000000141b6e48bb1d3598a80768b5cc4269e0d66c4bdb77028f3ad990192e40d44dd7f000000006b483045022100998e51bbe3e762f58095689bf758d5fc7dd3d7bba199928923e029623a86436a022068018a696d16fcea02e3cae502eac739132f6dc65e7c01e692fb2050dbed902b0121021106870a5b801fc619c11e3dfe1952defa92f78210b433aabdd8180dfefd8a49ffffffff02ed6a7500000000001976a914f43646e7423d5679a431410ea76892dc5c3ac04388ac531ce001000000001976a914612bdcb52956193e800a65d228af1d2ac5a6991688ac00000000"
    }
  ],
  "time": 1517030217,
  "mediantime": 1517029520,
  "nonce": 1030562439,
  "bits": "1a047f14",
  "difficulty": 3731199.183374282,
  "chainwork": "000000000000000000000000000000000000000000000032680063a8776cf120",
  "previousblockhash": "26eccf96d61e67c85ca45e16eaccd9e82502b678287ae396b109a0a98e5ee314",
  "nextblockhash": "8b90769294d977cce47feef1760e738645293eba9fe16e6a5e1f9931733df380"
}
