{
  "hash": "19be62ff4e3596b4db8a9cd839e23631857131848020f4e055e38cdbd80e74a4",
  "confirmations": 423,
  "strippedsize": 3893,
  "size": 4150,
  "weight": 15829,
  "height": 1360571,
  "version": 536870912,
  "versionHex": "20000000",
  "merkleroot": "f14dbde803aad9c9cf731766551cd614899fed468fb8ed07cb3375e4d0353c2a",
  "tx": [
    {
      "txid": "95c451c60324272f29a06448adc15946de6bb493d1cdc9046a66a22a316658a1",
      "hash": "611f2d5d55fea7785899eff60c2c31d6ce8bf685f241495178df9ae16d789c2f",
      "version": 1,
      "size": 236,
      "vsize": 209,
      "locktime": 0,
      "vin": [
        {
          "coinbase": "03bbc214045a7277812cfabe6d6d5844a82eea2344c93048a44c45ac7659f4d7d3e07209d737cb40f568b5c039854000000000000000042f4c502f085c001bb10b000000",
          "sequence": 4294967295
        }
      ],
      "vout": [
        {
          "value": 25.02879277,
          "n": 0,
          "scriptPubKey": {
            "asm": "OP_DUP OP_HASH160 57757ed2ecf2052ff3126c397aca7defb9ca2cec OP_EQUALVERIFY OP_CHECKSIG",
            "hex": "76a91457757ed2ecf2052ff3126c397aca7defb9ca2cec88ac",
            "reqSigs": 1,
            "type": "pubkeyhash",
            "addresses": [
              "LTCPodGk5FwcJaRzH9yKnwicxzFUbxp6tN"
            ]
          }
        }, 
        {
          "value": 0.00000000,
          "n": 1,
          "scriptPubKey": {
            "asm": "OP_RETURN aa21a9ed758bc451da43f00a02785475443885913257b1d13c5acc43b20a339802a7974d",
            "hex": "6a24aa21a9ed758bc451da43f00a02785475443885913257b1d13c5acc43b20a339802a7974d",
            "type": "nulldata"
          }
        }
      ],
      "hex": "010000000001010000000000000000000000000000000000000000000000000000000000000000ffffffff4403bbc214045a7277812cfabe6d6d5844a82eea2344c93048a44c45ac7659f4d7d3e07209d737cb40f568b5c039854000000000000000042f4c502f085c001bb10b000000ffffffff022de82e95000000001976a91457757ed2ecf2052ff3126c397aca7defb9ca2cec88ac0000000000000000266a24aa21a9ed758bc451da43f00a02785475443885913257b1d13c5acc43b20a339802a7974d0120000000000000000000000000000000000000000000000000000000000000000000000000"
    }, 
    {
      "txid": "0a8251b27255d22186ab9bac99d79a1965382b855186eb26eb2aeb2c7252eaa0",
      "hash": "0a8251b27255d22186ab9bac99d79a1965382b855186eb26eb2aeb2c7252eaa0",
      "version": 1,
      "size": 367,
      "vsize": 367,
      "locktime": 0,
      "vin": [
        {
          "txid": "fa6062681d8ef36435df5e0a693e374d49e825baf9a6fff7f23eeec6f664ff39",
          "vout": 1,
          "scriptSig": {
            "asm": "0 304402200e94cda352b36a95799a222a9232721fe3e109f3f8b52fa6251c7501ce3b113202201c588e699ef0249f90ce1c0dd05a90bb282a981860f035d7e53bcc4ba7aa7be6[ALL] 3044022020972322505e8d23ed6c623bb2779924e293b3220c0110e373551e96b695ce7e0220024c37e0e46664f62898c4ae18839aac2bb9c554eb10d39e372e9f4438bb3a1b[ALL] 522102e5f20f602b38fe34ca6cbf48aceec660dac4bebac153b087fef2d55dc60060532102f5d72294b64b067c626d3107c651f54235732d2e894fabf03139130a0273bafd21030cb1cc404d7c37294f1d20babf1f336e4c89ab92ce78e048b6d7c1aff578133353ae",
            "hex": "0047304402200e94cda352b36a95799a222a9232721fe3e109f3f8b52fa6251c7501ce3b113202201c588e699ef0249f90ce1c0dd05a90bb282a981860f035d7e53bcc4ba7aa7be601473044022020972322505e8d23ed6c623bb2779924e293b3220c0110e373551e96b695ce7e0220024c37e0e46664f62898c4ae18839aac2bb9c554eb10d39e372e9f4438bb3a1b014c69522102e5f20f602b38fe34ca6cbf48aceec660dac4bebac153b087fef2d55dc60060532102f5d72294b64b067c626d3107c651f54235732d2e894fabf03139130a0273bafd21030cb1cc404d7c37294f1d20babf1f336e4c89ab92ce78e048b6d7c1aff578133353ae"
          },
          "sequence": 4294967295
        }
      ],
      "vout": [
        {
          "value": 2.23592684,
          "n": 0,
          "scriptPubKey": {
            "asm": "OP_HASH160 a902737353dec568610a92dc973ab34e04c5a72a OP_EQUAL",
            "hex": "a914a902737353dec568610a92dc973ab34e04c5a72a87",
            "reqSigs": 1,
            "type": "scripthash",
            "addresses": [
              "MPJoN9T5pT89K1DumoKKfhkZLH5SXqaebV"
            ]
          }
        }, 
        {
          "value": 0.31829316,
          "n": 1,
          "scriptPubKey": {
            "asm": "OP_HASH160 c38c6479224fb0292215a2e64b96b063f1f193b9 OP_EQUAL",
            "hex": "a914c38c6479224fb0292215a2e64b96b063f1f193b987",
            "reqSigs": 1,
            "type": "scripthash",
            "addresses": [
              "MRj8BUdV2k8pEVnHfXzHvvjSamcWTVZ8Nj"
            ]
          }
        }
      ],
      "hex": "010000000139ff64f6c6ee3ef2f7ffa6f9ba25e8494d373e690a5edf3564f38e1d686260fa01000000fc0047304402200e94cda352b36a95799a222a9232721fe3e109f3f8b52fa6251c7501ce3b113202201c588e699ef0249f90ce1c0dd05a90bb282a981860f035d7e53bcc4ba7aa7be601473044022020972322505e8d23ed6c623bb2779924e293b3220c0110e373551e96b695ce7e0220024c37e0e46664f62898c4ae18839aac2bb9c554eb10d39e372e9f4438bb3a1b014c69522102e5f20f602b38fe34ca6cbf48aceec660dac4bebac153b087fef2d55dc60060532102f5d72294b64b067c626d3107c651f54235732d2e894fabf03139130a0273bafd21030cb1cc404d7c37294f1d20babf1f336e4c89ab92ce78e048b6d7c1aff578133353aeffffffff02ecc0530d0000000017a914a902737353dec568610a92dc973ab34e04c5a72a8744ade5010000000017a914c38c6479224fb0292215a2e64b96b063f1f193b98700000000"
    }, 
    {
      "txid": "b4f85125eabfa018aa2c163948602fe3437c0cd687f350b12cb3359c13e8f3c4",
      "hash": "b4f85125eabfa018aa2c163948602fe3437c0cd687f350b12cb3359c13e8f3c4",
      "version": 1,
      "size": 373,
      "vsize": 373,
      "locktime": 0,
      "vin": [
        {
          "txid": "cf706f1f25e590d9dd54254be8fda3883b31b1a0a062f3a5da0615eecbb4ac47",
          "vout": 1,
          "scriptSig": {
            "asm": "0 3045022100edb81754683ace75087a5fa3d3301e3c4ef2fabf1f0ff3761942c23c53b8d3ca02206d96b60ee6b2467d8e85884c5aff48a66a7703fa0d602404b471646cdab1f5ef[ALL] 3045022100c8be6dc0b7f129ee58ad176837cc4c9f6d3fe65e4ff67c4f0b7cab55c64f9a17022076952078cfa9062ec2582d1faf53f0c05b969f06d0a65e6bbc02f47833841109[ALL] 5221023b6ec4b62d68ce5e0f8e7c677bba307505c45f37c0758fff1aa910a819c225e921037cf3d2f47a41b075e52d3a1759f3fc8298a5856b2b59226b15548f2a1749429f21029758bafe79fa05563837529f012ed324c38e032d7b512d4e4cdcbb7a852e44ac53ae",
            "hex": "00483045022100edb81754683ace75087a5fa3d3301e3c4ef2fabf1f0ff3761942c23c53b8d3ca02206d96b60ee6b2467d8e85884c5aff48a66a7703fa0d602404b471646cdab1f5ef01483045022100c8be6dc0b7f129ee58ad176837cc4c9f6d3fe65e4ff67c4f0b7cab55c64f9a17022076952078cfa9062ec2582d1faf53f0c05b969f06d0a65e6bbc02f47833841109014c695221023b6ec4b62d68ce5e0f8e7c677bba307505c45f37c0758fff1aa910a819c225e921037cf3d2f47a41b075e52d3a1759f3fc8298a5856b2b59226b15548f2a1749429f21029758bafe79fa05563837529f012ed324c38e032d7b512d4e4cdcbb7a852e44ac53ae"
          },
          "sequence": 4294967295
        }
      ],
      "vout": [
        {
          "value": 2.21731639,
          "n": 0,
          "scriptPubKey": {
            "asm": "OP_HASH160 62b14b71b230cf6dc2018f65b01a534aa0804b8b OP_EQUAL",
            "hex": "a91462b14b71b230cf6dc2018f65b01a534aa0804b8b87",
            "reqSigs": 1,
            "type": "scripthash",
            "addresses": [
              "MGtzqt5k3upjkEhzacoeQPR3cwYh9z93hS"
            ]
          }
        }, 
        {
          "value": 0.36136959,
          "n": 1,
          "scriptPubKey": {
            "asm": "OP_DUP OP_HASH160 c2477a5964ab983593c26ec4ef66dcbe06b5b87f OP_EQUALVERIFY OP_CHECKSIG",
            "hex": "76a914c2477a5964ab983593c26ec4ef66dcbe06b5b87f88ac",
            "reqSigs": 1,
            "type": "pubkeyhash",
            "addresses": [
              "LcwCyoSZ8adG82iCK9qLjofUrieiZG841a"
            ]
          }
        }
      ],
      "hex": "010000000147acb4cbee1506daa5f362a0a0b1313b88a3fde84b2554ddd990e5251f6f70cf01000000fdfe0000483045022100edb81754683ace75087a5fa3d3301e3c4ef2fabf1f0ff3761942c23c53b8d3ca02206d96b60ee6b2467d8e85884c5aff48a66a7703fa0d602404b471646cdab1f5ef01483045022100c8be6dc0b7f129ee58ad176837cc4c9f6d3fe65e4ff67c4f0b7cab55c64f9a17022076952078cfa9062ec2582d1faf53f0c05b969f06d0a65e6bbc02f47833841109014c695221023b6ec4b62d68ce5e0f8e7c677bba307505c45f37c0758fff1aa910a819c225e921037cf3d2f47a41b075e52d3a1759f3fc8298a5856b2b59226b15548f2a1749429f21029758bafe79fa05563837529f012ed324c38e032d7b512d4e4cdcbb7a852e44ac53aeffffffff02375b370d0000000017a91462b14b71b230cf6dc2018f65b01a534aa0804b8b87ff672702000000001976a914c2477a5964ab983593c26ec4ef66dcbe06b5b87f88ac00000000"
    }, 
    {
      "txid": "760325a05afe15cef56cc3fa0d9926159a06412e997641275df3c0ccd8ed0a38",
      "hash": "760325a05afe15cef56cc3fa0d9926159a06412e997641275df3c0ccd8ed0a38",
      "version": 1,
      "size": 334,
      "vsize": 334,
      "locktime": 0,
      "vin": [
        {
          "txid": "dbd70bb64d9ca87359aae6610c642adfd250ce99f39a0e6a4d22047c67113fca",
          "vout": 1,
          "scriptSig": {
            "asm": "0 30440220132e0b611adefa411c93f2d654abf5f5fa1908d6f0c4a6b57b581efc6a794e62022028ebedcfc92af06650196ec94115a3fa6614ed006f57d8963faef6192e077291[ALL] 304402205bbe576a30811f235aaccc94a940b7a04091d512157f85f4b190468184075287022050d35403b8521d3407d4d6fdd455051f1444610adc2a763b33f5341464b6cce0[ALL] 522102f77ec37a042ba4e5e6aef7760398bf59b87ac4c5dee30a2fb8798e9630d4916e210276b93401dc495b28592f66411a7c9093b468f8678db51144fc6a36f550d94aa952ae",
            "hex": "004730440220132e0b611adefa411c93f2d654abf5f5fa1908d6f0c4a6b57b581efc6a794e62022028ebedcfc92af06650196ec94115a3fa6614ed006f57d8963faef6192e0772910147304402205bbe576a30811f235aaccc94a940b7a04091d512157f85f4b190468184075287022050d35403b8521d3407d4d6fdd455051f1444610adc2a763b33f5341464b6cce00147522102f77ec37a042ba4e5e6aef7760398bf59b87ac4c5dee30a2fb8798e9630d4916e210276b93401dc495b28592f66411a7c9093b468f8678db51144fc6a36f550d94aa952ae"
          },
          "sequence": 4294967295
        }
      ],
      "vout": [
        {
          "value": 0.06895900,
          "n": 0,
          "scriptPubKey": {
            "asm": "OP_DUP OP_HASH160 a90958b33546678a6b547f65fd4dc2a240e92e5b OP_EQUALVERIFY OP_CHECKSIG",
            "hex": "76a914a90958b33546678a6b547f65fd4dc2a240e92e5b88ac",
            "reqSigs": 1,
            "type": "pubkeyhash",
            "addresses": [
              "Ladjf38LpfsDfDimq5FcbGipyVYrZLcqMG"
            ]
          }
        }, 
        {
          "value": 37.91396500,
          "n": 1,
          "scriptPubKey": {
            "asm": "OP_HASH160 75b77316f8d91ff71fb2819115d1b6b9e80ccee9 OP_EQUAL",
            "hex": "a91475b77316f8d91ff71fb2819115d1b6b9e80ccee987",
            "reqSigs": 1,
            "type": "scripthash",
            "addresses": [
              "MJdb4B3BMDrfpB1FpKsPYQ1tDHdkNa1oLB"
            ]
          }
        }
      ],
      "hex": "0100000001ca3f11677c04224d6a0e9af399ce50d2df2a640c61e6aa5973a89c4db60bd7db01000000d9004730440220132e0b611adefa411c93f2d654abf5f5fa1908d6f0c4a6b57b581efc6a794e62022028ebedcfc92af06650196ec94115a3fa6614ed006f57d8963faef6192e0772910147304402205bbe576a30811f235aaccc94a940b7a04091d512157f85f4b190468184075287022050d35403b8521d3407d4d6fdd455051f1444610adc2a763b33f5341464b6cce00147522102f77ec37a042ba4e5e6aef7760398bf59b87ac4c5dee30a2fb8798e9630d4916e210276b93401dc495b28592f66411a7c9093b468f8678db51144fc6a36f550d94aa952aeffffffff021c396900000000001976a914a90958b33546678a6b547f65fd4dc2a240e92e5b88ac941efce10000000017a91475b77316f8d91ff71fb2819115d1b6b9e80ccee98700000000"
    }, 
    {
      "txid": "0d6396dbe543a35da51ff75814385379c56823b46e0bb1cc6566e70c889030f6",
      "hash": "0d6396dbe543a35da51ff75814385379c56823b46e0bb1cc6566e70c889030f6",
      "version": 1,
      "size": 335,
      "vsize": 335,
      "locktime": 0,
      "vin": [
        {
          "txid": "760325a05afe15cef56cc3fa0d9926159a06412e997641275df3c0ccd8ed0a38",
          "vout": 1,
          "scriptSig": {
            "asm": "0 3045022100d8123e3500417796becb6894e395cd9e6d98624f7bb4da46252c2b94586974da0220790996638073dbc1ed0f0574c7140a58b38d101a9a2fa4de73f192f89d4be285[ALL] 3044022002134a103fb882b5d613e250f21ca96e7572915d4aadeeb5b982c1c467ad43470220655c34c3145b004d13dd5b59b78534525ea00ba3dad46e64ba31aa48a2f43a2d[ALL] 522102f77ec37a042ba4e5e6aef7760398bf59b87ac4c5dee30a2fb8798e9630d4916e210276b93401dc495b28592f66411a7c9093b468f8678db51144fc6a36f550d94aa952ae",
            "hex": "00483045022100d8123e3500417796becb6894e395cd9e6d98624f7bb4da46252c2b94586974da0220790996638073dbc1ed0f0574c7140a58b38d101a9a2fa4de73f192f89d4be28501473044022002134a103fb882b5d613e250f21ca96e7572915d4aadeeb5b982c1c467ad43470220655c34c3145b004d13dd5b59b78534525ea00ba3dad46e64ba31aa48a2f43a2d0147522102f77ec37a042ba4e5e6aef7760398bf59b87ac4c5dee30a2fb8798e9630d4916e210276b93401dc495b28592f66411a7c9093b468f8678db51144fc6a36f550d94aa952ae"
          },
          "sequence": 4294967295
        }
      ],
      "vout": [
        {
          "value": 0.17732400,
          "n": 0,
          "scriptPubKey": {
            "asm": "OP_DUP OP_HASH160 2449c9f3924818a4828b4cfd312a255d32e9500e OP_EQUALVERIFY OP_CHECKSIG",
            "hex": "76a9142449c9f3924818a4828b4cfd312a255d32e9500e88ac",
            "reqSigs": 1,
            "type": "pubkeyhash",
            "addresses": [
              "LNXpz4R14xoQx1EABau3uWJrnvx1eHSFmC"
            ]
          }
        }, 
        {
          "value": 37.73456500,
          "n": 1,
          "scriptPubKey": {
            "asm": "OP_HASH160 75b77316f8d91ff71fb2819115d1b6b9e80ccee9 OP_EQUAL",
            "hex": "a91475b77316f8d91ff71fb2819115d1b6b9e80ccee987",
            "reqSigs": 1,
            "type": "scripthash",
            "addresses": [
              "MJdb4B3BMDrfpB1FpKsPYQ1tDHdkNa1oLB"
            ]
          }
        }
      ],
      "hex": "0100000001380aedd8ccc0f35d274176992e41069a1526990dfac36cf5ce15fe5aa025037601000000da00483045022100d8123e3500417796becb6894e395cd9e6d98624f7bb4da46252c2b94586974da0220790996638073dbc1ed0f0574c7140a58b38d101a9a2fa4de73f192f89d4be28501473044022002134a103fb882b5d613e250f21ca96e7572915d4aadeeb5b982c1c467ad43470220655c34c3145b004d13dd5b59b78534525ea00ba3dad46e64ba31aa48a2f43a2d0147522102f77ec37a042ba4e5e6aef7760398bf59b87ac4c5dee30a2fb8798e9630d4916e210276b93401dc495b28592f66411a7c9093b468f8678db51144fc6a36f550d94aa952aeffffffff0230930e01000000001976a9142449c9f3924818a4828b4cfd312a255d32e9500e88ac7460eae00000000017a91475b77316f8d91ff71fb2819115d1b6b9e80ccee98700000000"
    }, 
    {
      "txid": "a27caa08bd03b1bc996ff1eb5b36f3e40ab42ffb4a60d8233050955717bb20c8",
      "hash": "a27caa08bd03b1bc996ff1eb5b36f3e40ab42ffb4a60d8233050955717bb20c8",
      "version": 1,
      "size": 191,
      "vsize": 191,
      "locktime": 0,
      "vin": [
        {
          "txid": "ae34ecc4427e45bea24b872b77fdda1685dcc4edc4477b4dd6ff2b3bdb54d00b",
          "vout": 1,
          "scriptSig": {
            "asm": "3044022077fa3cba9c3d94ba421c87037207c4b0d3f4b8a170bf25aa8c2bf466c6818aea0220769cc8f638c9148b300ea0473c57b85944043232580e953a674a00c1a6a4c5d6[ALL] 023e5554f91db8302f33183cd91d3cb433ec6453ab8435c6b8187e11e0dd83e062",
            "hex": "473044022077fa3cba9c3d94ba421c87037207c4b0d3f4b8a170bf25aa8c2bf466c6818aea0220769cc8f638c9148b300ea0473c57b85944043232580e953a674a00c1a6a4c5d60121023e5554f91db8302f33183cd91d3cb433ec6453ab8435c6b8187e11e0dd83e062"
          },
          "sequence": 4294967295
        }
      ],
      "vout": [
        {
          "value": 27.65692823,
          "n": 0,
          "scriptPubKey": {
            "asm": "OP_DUP OP_HASH160 7238c5286244c14b26e081015ef9ff2d99e621b6 OP_EQUALVERIFY OP_CHECKSIG",
            "hex": "76a9147238c5286244c14b26e081015ef9ff2d99e621b688ac",
            "reqSigs": 1,
            "type": "pubkeyhash",
            "addresses": [
              "LVduJYK6KGzTpiRKMJYU7ZWDg7SrtDhTgq"
            ]
          }
        }
      ],
      "hex": "01000000010bd054db3b2bffd64d7b47c4edc4dc8516dafd772b874ba2be457e42c4ec34ae010000006a473044022077fa3cba9c3d94ba421c87037207c4b0d3f4b8a170bf25aa8c2bf466c6818aea0220769cc8f638c9148b300ea0473c57b85944043232580e953a674a00c1a6a4c5d60121023e5554f91db8302f33183cd91d3cb433ec6453ab8435c6b8187e11e0dd83e062ffffffff01971fd9a4000000001976a9147238c5286244c14b26e081015ef9ff2d99e621b688ac00000000"
    }, 
    {
      "txid": "aadab6503a1714524816e245b815e5156b9b87bbe14f2d264e544bfd6e451fb4",
      "hash": "c51677b8e48946c8dae82724d97a9cc64f856f765757032053dff09025f482be",
      "version": 1,
      "size": 509,
      "vsize": 344,
      "locktime": 0,
      "vin": [
        {
          "txid": "b89fa01f602a13c12ec4f3ce1f4c13e47cdab302cd1e0289011f9962c9bbed2c",
          "vout": 5,
          "scriptSig": {
            "asm": "002073d41b43e51a0c90bab74e0cf4b2c7bfbdc42e845a3b6abbcff322facbe05c04",
            "hex": "22002073d41b43e51a0c90bab74e0cf4b2c7bfbdc42e845a3b6abbcff322facbe05c04"
          },
          "txinwitness": [
            "", 
            "3045022100b75cf197a9b9537e8cec662c50d7060d7094c8d50776a3f61b66607129e4451b02205f61b6be9c1be795a008ca95937ad5185af6d6cd79d8b89608d6b948e0e020d901", 
            "30440220156f66289f489ec7def8611d6e9130167064c6636f6e77b5a8fa4958191fc3b0022021eca206970cdd1043679ff39b9b0a81a97c9fa1d7a1608e8cf94133742e09d201", 
            "522102be327e4af711fffaf516dec05d73e4e9e099398b7fd93e0a1f6398a25e2df2b52103faa64120798ff617e524d3af89910d1cc69b4ac1af7d9bda7bf33d8e73faac2b52ae"
          ],
          "sequence": 4294967295
        }
      ],
      "vout": [
        {
          "value": 0.00254052,
          "n": 0,
          "scriptPubKey": {
            "asm": "OP_DUP OP_HASH160 e7b1b107494d031d0094af8d3c41c96648fb5680 OP_EQUALVERIFY OP_CHECKSIG",
            "hex": "76a914e7b1b107494d031d0094af8d3c41c96648fb568088ac",
            "reqSigs": 1,
            "type": "pubkeyhash",
            "addresses": [
              "LgM3DkPbxj6yaAmD11yNZm8RGEQXMjzsVo"
            ]
          }
        }, 
        {
          "value": 0.00252075,
          "n": 1,
          "scriptPubKey": {
            "asm": "OP_DUP OP_HASH160 1a606204eadaf6090d7b81769d4c32ae7059b40c OP_EQUALVERIFY OP_CHECKSIG",
            "hex": "76a9141a606204eadaf6090d7b81769d4c32ae7059b40c88ac",
            "reqSigs": 1,
            "type": "pubkeyhash",
            "addresses": [
              "LMdRJ11j9ggPWRa7r6uSXJBt53FHjdFkQi"
            ]
          }
        }, 
        {
          "value": 0.00251829,
          "n": 2,
          "scriptPubKey": {
            "asm": "OP_DUP OP_HASH160 994fc1ee473dd3bd99b135fa5ed9e132877311eb OP_EQUALVERIFY OP_CHECKSIG",
            "hex": "76a914994fc1ee473dd3bd99b135fa5ed9e132877311eb88ac",
            "reqSigs": 1,
            "type": "pubkeyhash",
            "addresses": [
              "LZCbCDNy6js6RbMwhno3wnRhcxTL66AQoG"
            ]
          }
        }, 
        {
          "value": 0.00251491,
          "n": 3,
          "scriptPubKey": {
            "asm": "OP_DUP OP_HASH160 0a7448038c9e9534dcd7de36d23e3d67e65acb0b OP_EQUALVERIFY OP_CHECKSIG",
            "hex": "76a9140a7448038c9e9534dcd7de36d23e3d67e65acb0b88ac",
            "reqSigs": 1,
            "type": "pubkeyhash",
            "addresses": [
              "LLBEKVqRncrKgaEnSaMKS5vtG8Nv9mU9MD"
            ]
          }
        }, 
        {
          "value": 0.00250367,
          "n": 4,
          "scriptPubKey": {
            "asm": "OP_DUP OP_HASH160 fc2e4e68a77e7827647c2b5c3619a1ed2180b0d0 OP_EQUALVERIFY OP_CHECKSIG",
            "hex": "76a914fc2e4e68a77e7827647c2b5c3619a1ed2180b0d088ac",
            "reqSigs": 1,
            "type": "pubkeyhash",
            "addresses": [
              "LiDN1yHncjtG19r7SEETQCFP1cTwnfsQ1R"
            ]
          }
        }, 
        {
          "value": 0.04121137,
          "n": 5,
          "scriptPubKey": {
            "asm": "OP_HASH160 f16229725105178bf9224862086f3c3df9e66519 OP_EQUAL",
            "hex": "a914f16229725105178bf9224862086f3c3df9e6651987",
            "reqSigs": 1,
            "type": "scripthash",
            "addresses": [
              "MVuUg4zs2NuhSLTBp9i9ryu1fec4AoXBFk"
            ]
          }
        }
      ],
      "hex": "010000000001012cedbbc962991f0189021ecd02b3da7ce4134c1fcef3c42ec1132a601fa09fb8050000002322002073d41b43e51a0c90bab74e0cf4b2c7bfbdc42e845a3b6abbcff322facbe05c04ffffffff0664e00300000000001976a914e7b1b107494d031d0094af8d3c41c96648fb568088acabd80300000000001976a9141a606204eadaf6090d7b81769d4c32ae7059b40c88acb5d70300000000001976a914994fc1ee473dd3bd99b135fa5ed9e132877311eb88ac63d60300000000001976a9140a7448038c9e9534dcd7de36d23e3d67e65acb0b88acffd10300000000001976a914fc2e4e68a77e7827647c2b5c3619a1ed2180b0d088ac31e23e000000000017a914f16229725105178bf9224862086f3c3df9e66519870400483045022100b75cf197a9b9537e8cec662c50d7060d7094c8d50776a3f61b66607129e4451b02205f61b6be9c1be795a008ca95937ad5185af6d6cd79d8b89608d6b948e0e020d9014730440220156f66289f489ec7def8611d6e9130167064c6636f6e77b5a8fa4958191fc3b0022021eca206970cdd1043679ff39b9b0a81a97c9fa1d7a1608e8cf94133742e09d20147522102be327e4af711fffaf516dec05d73e4e9e099398b7fd93e0a1f6398a25e2df2b52103faa64120798ff617e524d3af89910d1cc69b4ac1af7d9bda7bf33d8e73faac2b52ae00000000"
    }, 
    {
      "txid": "79fd8e83e9392b20fdb8154f7d9a2408d598dcd1b5af8cdcc9bd8948d5d5f8da",
      "hash": "79fd8e83e9392b20fdb8154f7d9a2408d598dcd1b5af8cdcc9bd8948d5d5f8da",
      "version": 2,
      "size": 224,
      "vsize": 224,
      "locktime": 1360568,
      "vin": [
        {
          "txid": "9a248a6b6942e626327902ac6c5b7105352d5959af404931a6b07c755a7e2e88",
          "vout": 0,
          "scriptSig": {
            "asm": "30450221008a8e101a7efbd7a6db6219ad6b20bdfa3c7d64c75137fcc81222739202d3c53b022004955ccbf570dead4b8aaeab19cd3288bb42543ea8e3f8f6941062e520a4b35d[ALL] 02db28cd4cbae9b31b9e1d8c40b57d41eedd5fa78f1dd3967394369e5c2a78e542",
            "hex": "4830450221008a8e101a7efbd7a6db6219ad6b20bdfa3c7d64c75137fcc81222739202d3c53b022004955ccbf570dead4b8aaeab19cd3288bb42543ea8e3f8f6941062e520a4b35d012102db28cd4cbae9b31b9e1d8c40b57d41eedd5fa78f1dd3967394369e5c2a78e542"
          },
          "sequence": 4294967294
        }
      ],
      "vout": [
        {
          "value": 17.04955200,
          "n": 0,
          "scriptPubKey": {
            "asm": "OP_DUP OP_HASH160 bf7e892a33af9b48b389b041fd641c95e441282a OP_EQUALVERIFY OP_CHECKSIG",
            "hex": "76a914bf7e892a33af9b48b389b041fd641c95e441282a88ac",
            "reqSigs": 1,
            "type": "pubkeyhash",
            "addresses": [
              "LcgUuiNfTLHbMLvLTrR7zh76d5B45GnBDW"
            ]
          }
        }, 
        {
          "value": 27.00000000,
          "n": 1,
          "scriptPubKey": {
            "asm": "OP_HASH160 d721e223e9a7882ee35dbfe9c3fa92b889432c3b OP_EQUAL",
            "hex": "a914d721e223e9a7882ee35dbfe9c3fa92b889432c3b87",
            "reqSigs": 1,
            "type": "scripthash",
            "addresses": [
              "MTWg6vwkzsvfdhD9vRa4dPSgtsBtRvgn1T"
            ]
          }
        }
      ],
      "hex": "0200000001882e7e5a757cb0a6314940af59592d3505715b6cac02793226e642696b8a249a000000006b4830450221008a8e101a7efbd7a6db6219ad6b20bdfa3c7d64c75137fcc81222739202d3c53b022004955ccbf570dead4b8aaeab19cd3288bb42543ea8e3f8f6941062e520a4b35d012102db28cd4cbae9b31b9e1d8c40b57d41eedd5fa78f1dd3967394369e5c2a78e542feffffff02408d9f65000000001976a914bf7e892a33af9b48b389b041fd641c95e441282a88ac00bbeea00000000017a914d721e223e9a7882ee35dbfe9c3fa92b889432c3b87b8c21400"
    }, 
    {
      "txid": "b9786cf940561be2cc99eb091efe98ced1ef94e7913a1faaeab21df6fa311a31",
      "hash": "b9786cf940561be2cc99eb091efe98ced1ef94e7913a1faaeab21df6fa311a31",
      "version": 1,
      "size": 373,
      "vsize": 373,
      "locktime": 1360569,
      "vin": [
        {
          "txid": "e77191179bf2c4f83500f38a9bb6549dca5d568020a247c336e1981565146487",
          "vout": 0,
          "scriptSig": {
            "asm": "3045022100c7e63da409feb3fb984026399d0116f49d62d34bfb6fd8fe5c24cec50d1ebbac02204f2e4858d7b3a453b215de6e391180d7651679207466d84a2304d642a8120050[ALL] 02ab34042a80f59609afa3c94fe4d52415a825e2f8ca51ee3356ec5695bd3f95f1",
            "hex": "483045022100c7e63da409feb3fb984026399d0116f49d62d34bfb6fd8fe5c24cec50d1ebbac02204f2e4858d7b3a453b215de6e391180d7651679207466d84a2304d642a8120050012102ab34042a80f59609afa3c94fe4d52415a825e2f8ca51ee3356ec5695bd3f95f1"
          },
          "sequence": 4294967294
        }, 
        {
          "txid": "96c39b65326ac0b214a12dc7259cd100d0094eed708a30c4c731510b195f82c4",
          "vout": 0,
          "scriptSig": {
            "asm": "304402205f0c81378fccfadd24040b46e5dfecf2c6acddeb99f134f57e476502edde605802200a6b4a8d854b56c63bef231eda2d6d38e8bd458850a94693ad1e6e3971387669[ALL] 02ec83ffd8698964bbaedbbb2060e49b83832205cb7b1428a107b98451eb821d05",
            "hex": "47304402205f0c81378fccfadd24040b46e5dfecf2c6acddeb99f134f57e476502edde605802200a6b4a8d854b56c63bef231eda2d6d38e8bd458850a94693ad1e6e3971387669012102ec83ffd8698964bbaedbbb2060e49b83832205cb7b1428a107b98451eb821d05"
          },
          "sequence": 4294967294
        }
      ],
      "vout": [
        {
          "value": 0.01013476,
          "n": 0,
          "scriptPubKey": {
            "asm": "OP_DUP OP_HASH160 ee900e5239b1bd3248828f7c4d04f26ed7e45531 OP_EQUALVERIFY OP_CHECKSIG",
            "hex": "76a914ee900e5239b1bd3248828f7c4d04f26ed7e4553188ac",
            "reqSigs": 1,
            "type": "pubkeyhash",
            "addresses": [
              "LgyMf3umqdoGmdvzyUHz97oQy8Z2w9DqHc"
            ]
          }
        }, 
        {
          "value": 1.76597412,
          "n": 1,
          "scriptPubKey": {
            "asm": "OP_DUP OP_HASH160 63bda901d628589b76da95f6267f3f9d4310d1f6 OP_EQUALVERIFY OP_CHECKSIG",
            "hex": "76a91463bda901d628589b76da95f6267f3f9d4310d1f688ac",
            "reqSigs": 1,
            "type": "pubkeyhash",
            "addresses": [
              "LUKLN2PrLTY9YiFoUxDLrJ56M6PgKTPKkF"
            ]
          }
        }
      ],
      "hex": "0100000002876414651598e136c347a22080565dca9d54b69b8af30035f8c4f29b179171e7000000006b483045022100c7e63da409feb3fb984026399d0116f49d62d34bfb6fd8fe5c24cec50d1ebbac02204f2e4858d7b3a453b215de6e391180d7651679207466d84a2304d642a8120050012102ab34042a80f59609afa3c94fe4d52415a825e2f8ca51ee3356ec5695bd3f95f1feffffffc4825f190b5131c7c4308a70ed4e09d000d19c25c72da114b2c06a32659bc396000000006a47304402205f0c81378fccfadd24040b46e5dfecf2c6acddeb99f134f57e476502edde605802200a6b4a8d854b56c63bef231eda2d6d38e8bd458850a94693ad1e6e3971387669012102ec83ffd8698964bbaedbbb2060e49b83832205cb7b1428a107b98451eb821d05feffffff02e4760f00000000001976a914ee900e5239b1bd3248828f7c4d04f26ed7e4553188aca4a9860a000000001976a91463bda901d628589b76da95f6267f3f9d4310d1f688acb9c21400"
    }, 
    {
      "txid": "eaa6d76e36deab36d4bbaa7f173189638a7126418d0841c0d50e813872b27e6d",
      "hash": "eaa6d76e36deab36d4bbaa7f173189638a7126418d0841c0d50e813872b27e6d",
      "version": 1,
      "size": 225,
      "vsize": 225,
      "locktime": 1360569,
      "vin": [
        {
          "txid": "e5dbaccf02d9e590f2e0fc6035ddda0668296a19d45222a017303ea543164877",
          "vout": 1,
          "scriptSig": {
            "asm": "3044022048ecf1f14175f065045493c703673432a1dd835d933863a32a1d44533b650223022000801f7e60cc79cf0be85cf16ab81eda2836a062e4a524d42a4580d515483ccc[ALL] 0280e9dabad14084d4bfd9387d734c2298c86084f93345e974f24ad8850cd3b88f",
            "hex": "473044022048ecf1f14175f065045493c703673432a1dd835d933863a32a1d44533b650223022000801f7e60cc79cf0be85cf16ab81eda2836a062e4a524d42a4580d515483ccc01210280e9dabad14084d4bfd9387d734c2298c86084f93345e974f24ad8850cd3b88f"
          },
          "sequence": 4294967294
        }
      ],
      "vout": [
        {
          "value": 0.09908551,
          "n": 0,
          "scriptPubKey": {
            "asm": "OP_DUP OP_HASH160 1a43c2c74c6cb6b8decb474732cb74034863d981 OP_EQUALVERIFY OP_CHECKSIG",
            "hex": "76a9141a43c2c74c6cb6b8decb474732cb74034863d98188ac",
            "reqSigs": 1,
            "type": "pubkeyhash",
            "addresses": [
              "LMcq1JmqNBrHnrFGvcG8Uyy3mHPY5PYJj4"
            ]
          }
        }, 
        {
          "value": 3.77387727,
          "n": 1,
          "scriptPubKey": {
            "asm": "OP_DUP OP_HASH160 bbc469f91065c22bf7b4b235464e925ebcaef009 OP_EQUALVERIFY OP_CHECKSIG",
            "hex": "76a914bbc469f91065c22bf7b4b235464e925ebcaef00988ac",
            "reqSigs": 1,
            "type": "pubkeyhash",
            "addresses": [
              "LcLmvAbZ1hEXwSQ7ZYPAwkvMYbgUJTXbLq"
            ]
          }
        }
      ],
      "hex": "010000000177481643a53e3017a02252d4196a296806dadd3560fce0f290e5d902cfacdbe5010000006a473044022048ecf1f14175f065045493c703673432a1dd835d933863a32a1d44533b650223022000801f7e60cc79cf0be85cf16ab81eda2836a062e4a524d42a4580d515483ccc01210280e9dabad14084d4bfd9387d734c2298c86084f93345e974f24ad8850cd3b88ffeffffff0247319700000000001976a9141a43c2c74c6cb6b8decb474732cb74034863d98188accf7a7e16000000001976a914bbc469f91065c22bf7b4b235464e925ebcaef00988acb9c21400"
    }, 
    {
      "txid": "3308e75ad15888afc03da572e9e9a254446201a0a0d7e349340f289b13d56e24",
      "hash": "3308e75ad15888afc03da572e9e9a254446201a0a0d7e349340f289b13d56e24",
      "version": 1,
      "size": 226,
      "vsize": 226,
      "locktime": 0,
      "vin": [
        {
          "txid": "63161864f97c51f57607cf06d51ad39768f0e446f65286cc8912ec3257ab025d",
          "vout": 1,
          "scriptSig": {
            "asm": "3045022100f9461d674dd9edb2fe04791799544e1dcd16214edfb1990525efa4735986ffa6022021993de00769ac35b9c70d00bdaf8fc664e770e305eed295ac62ac1ab36ec319[ALL] 027ade7117f6294bd9ca5308896ab4445f0385f10429cec05007cb3dc6ebcbe522",
            "hex": "483045022100f9461d674dd9edb2fe04791799544e1dcd16214edfb1990525efa4735986ffa6022021993de00769ac35b9c70d00bdaf8fc664e770e305eed295ac62ac1ab36ec3190121027ade7117f6294bd9ca5308896ab4445f0385f10429cec05007cb3dc6ebcbe522"
          },
          "sequence": 4294967295
        }
      ],
      "vout": [
        {
          "value": 0.10031552,
          "n": 0,
          "scriptPubKey": {
            "asm": "OP_DUP OP_HASH160 1c5eb2ec88668acbc11c41a860c53754573d4a8a OP_EQUALVERIFY OP_CHECKSIG",
            "hex": "76a9141c5eb2ec88668acbc11c41a860c53754573d4a8a88ac",
            "reqSigs": 1,
            "type": "pubkeyhash",
            "addresses": [
              "LMoxdP2v7aXJKYr4da3fJLTPSuqWZdgNJd"
            ]
          }
        }, 
        {
          "value": 0.00173058,
          "n": 1,
          "scriptPubKey": {
            "asm": "OP_DUP OP_HASH160 acc18ebcfd1c0755f7105859ac2d3a7e14bdf43d OP_EQUALVERIFY OP_CHECKSIG",
            "hex": "76a914acc18ebcfd1c0755f7105859ac2d3a7e14bdf43d88ac",
            "reqSigs": 1,
            "type": "pubkeyhash",
            "addresses": [
              "LayQMpj4bjEHFB7ZZ8DLXP1RKo1Y5eKPZ6"
            ]
          }
        }
      ],
      "hex": "01000000015d02ab5732ec1289cc8652f646e4f06897d31ad506cf0776f5517cf964181663010000006b483045022100f9461d674dd9edb2fe04791799544e1dcd16214edfb1990525efa4735986ffa6022021993de00769ac35b9c70d00bdaf8fc664e770e305eed295ac62ac1ab36ec3190121027ade7117f6294bd9ca5308896ab4445f0385f10429cec05007cb3dc6ebcbe522ffffffff02c0119900000000001976a9141c5eb2ec88668acbc11c41a860c53754573d4a8a88ac02a40200000000001976a914acc18ebcfd1c0755f7105859ac2d3a7e14bdf43d88ac00000000"
    }, 
    {
      "txid": "9a55ab63c9b341255146d47a1d0a8520460f490cc433b9626226fb9034ee2459",
      "hash": "9a55ab63c9b341255146d47a1d0a8520460f490cc433b9626226fb9034ee2459",
      "version": 1,
      "size": 226,
      "vsize": 226,
      "locktime": 0,
      "vin": [
        {
          "txid": "6da0141a716d98ea1811508baca897256c99a0478a217d5469cfb4f52b29625a",
          "vout": 364,
          "scriptSig": {
            "asm": "3045022100ec26f09ee2113a3fcd85af29417f33d0fb156041551115db102ba56718f3b32a022035b11a7cf8a9c06090cfd27dd5171f55b2c31fc310e6f3341e99a771ad703e58[ALL] 0224ac2ff0e310fa35a1b60b616eb729ef310160e7cf33c6c130cb79c3d77b72eb",
            "hex": "483045022100ec26f09ee2113a3fcd85af29417f33d0fb156041551115db102ba56718f3b32a022035b11a7cf8a9c06090cfd27dd5171f55b2c31fc310e6f3341e99a771ad703e5801210224ac2ff0e310fa35a1b60b616eb729ef310160e7cf33c6c130cb79c3d77b72eb"
          },
          "sequence": 4294967295
        }
      ],
      "vout": [
        {
          "value": 0.06354934,
          "n": 0,
          "scriptPubKey": {
            "asm": "OP_DUP OP_HASH160 ef061ac4269c5190a0093bd5720d5221e5c1c378 OP_EQUALVERIFY OP_CHECKSIG",
            "hex": "76a914ef061ac4269c5190a0093bd5720d5221e5c1c37888ac",
            "reqSigs": 1,
            "type": "pubkeyhash",
            "addresses": [
              "Lh1o5DGthCM93G2aqJDwVEjBXTQ67SZEVK"
            ]
          }
        }, 
        {
          "value": 0.32912251,
          "n": 1,
          "scriptPubKey": {
            "asm": "OP_DUP OP_HASH160 052b4970ff3754c2f32f22fa20c8ab2928c05791 OP_EQUALVERIFY OP_CHECKSIG",
            "hex": "76a914052b4970ff3754c2f32f22fa20c8ab2928c0579188ac",
            "reqSigs": 1,
            "type": "pubkeyhash",
            "addresses": [
              "LKhHVoCXQeDf3FQcksqqnWEjn4W3xjRN9t"
            ]
          }
        }
      ],
      "hex": "01000000015a62292bf5b4cf69547d218a47a0996c2597a8ac8b501118ea986d711a14a06d6c0100006b483045022100ec26f09ee2113a3fcd85af29417f33d0fb156041551115db102ba56718f3b32a022035b11a7cf8a9c06090cfd27dd5171f55b2c31fc310e6f3341e99a771ad703e5801210224ac2ff0e310fa35a1b60b616eb729ef310160e7cf33c6c130cb79c3d77b72ebffffffff02f6f76000000000001976a914ef061ac4269c5190a0093bd5720d5221e5c1c37888ac7b33f601000000001976a914052b4970ff3754c2f32f22fa20c8ab2928c0579188ac00000000"
    }, 
    {
      "txid": "6e1ecb0e5e21baa9bc14d41b9d197455e6f91a27a7400e3abf100630ac65b9b7",
      "hash": "6e1ecb0e5e21baa9bc14d41b9d197455e6f91a27a7400e3abf100630ac65b9b7",
      "version": 1,
      "size": 226,
      "vsize": 226,
      "locktime": 0,
      "vin": [
        {
          "txid": "bfe5429d887e9ace3f3d3ba4b0e429c08e852d8d5db2c834906a905afe5e8e03",
          "vout": 0,
          "scriptSig": {
            "asm": "3045022100defeafb5f01eabd3e999191e99d1ca068bb82ccde869924cf0d9d709709c222c022037edb59dc961ee0e58676bae3c2798c64e33bd9d708ba4144e2b494de2060fd6[ALL] 024e466bb5867898b3d5f732a7cf4cc7bece86d8986383141e83c6f9c2f762df27",
            "hex": "483045022100defeafb5f01eabd3e999191e99d1ca068bb82ccde869924cf0d9d709709c222c022037edb59dc961ee0e58676bae3c2798c64e33bd9d708ba4144e2b494de2060fd60121024e466bb5867898b3d5f732a7cf4cc7bece86d8986383141e83c6f9c2f762df27"
          },
          "sequence": 4294967295
        }
      ],
      "vout": [
        {
          "value": 54.24695373,
          "n": 0,
          "scriptPubKey": {
            "asm": "OP_DUP OP_HASH160 6d0f63724949410ec642958e4171fe892259ceac OP_EQUALVERIFY OP_CHECKSIG",
            "hex": "76a9146d0f63724949410ec642958e4171fe892259ceac88ac",
            "reqSigs": 1,
            "type": "pubkeyhash",
            "addresses": [
              "LVAcMLBwmdxPXDAX2UVPJJrUF3qpPm487r"
            ]
          }
        }, 
        {
          "value": 1.88013930,
          "n": 1,
          "scriptPubKey": {
            "asm": "OP_DUP OP_HASH160 100f4beb4975738ead9fe77d54b4436a8321a9d4 OP_EQUALVERIFY OP_CHECKSIG",
            "hex": "76a914100f4beb4975738ead9fe77d54b4436a8321a9d488ac",
            "reqSigs": 1,
            "type": "pubkeyhash",
            "addresses": [
              "LLgsQ76KqoyZcaUxYMM1V8DUy2oGssG1Ty"
            ]
          }
        }
      ],
      "hex": "0100000001038e5efe5a906a9034c8b25d8d2d858ec029e4b0a43b3d3fce9a7e889d42e5bf000000006b483045022100defeafb5f01eabd3e999191e99d1ca068bb82ccde869924cf0d9d709709c222c022037edb59dc961ee0e58676bae3c2798c64e33bd9d708ba4144e2b494de2060fd60121024e466bb5867898b3d5f732a7cf4cc7bece86d8986383141e83c6f9c2f762df27ffffffff024d485643010000001976a9146d0f63724949410ec642958e4171fe892259ceac88ac6add340b000000001976a914100f4beb4975738ead9fe77d54b4436a8321a9d488ac00000000"
    }, 
    {
      "txid": "7acc09bb169029f8e70f5d50e77a1b09cbce9ea41bd72e0a9c613bceb32274dc",
      "hash": "7acc09bb169029f8e70f5d50e77a1b09cbce9ea41bd72e0a9c613bceb32274dc",
      "version": 1,
      "size": 224,
      "vsize": 224,
      "locktime": 0,
      "vin": [
        {
          "txid": "bba839dd5d28c4298bba9dbfdca7e13024e4a2defbc99ad447a2d2e20f062489",
          "vout": 29,
          "scriptSig": {
            "asm": "3045022100ec53cc5cdbcd53eb7e7fe81a34ed72116f5eb31db3b5b8d5fb909a0342901cd502207afa5250b9ca8dbfea8500bc5f9e732e414a62d01348e864f3c02e8a1da34de1[ALL] 02381bfa7167f57baee7821709d3de1d44b2715039a34235d8e5649c16603fba68",
            "hex": "483045022100ec53cc5cdbcd53eb7e7fe81a34ed72116f5eb31db3b5b8d5fb909a0342901cd502207afa5250b9ca8dbfea8500bc5f9e732e414a62d01348e864f3c02e8a1da34de1012102381bfa7167f57baee7821709d3de1d44b2715039a34235d8e5649c16603fba68"
          },
          "sequence": 4294967295
        }
      ],
      "vout": [
        {
          "value": 0.91920000,
          "n": 0,
          "scriptPubKey": {
            "asm": "OP_HASH160 6a82624e55a4498616d889d1e2be62cac8406a02 OP_EQUAL",
            "hex": "a9146a82624e55a4498616d889d1e2be62cac8406a0287",
            "reqSigs": 1,
            "type": "scripthash",
            "addresses": [
              "MHcL41BMD3fUKLYnzE21fSXhjkM1xbRC7a"
            ]
          }
        }, 
        {
          "value": 0.08057600,
          "n": 1,
          "scriptPubKey": {
            "asm": "OP_DUP OP_HASH160 b85af70acb05a1a18240c28fb9f1fe336bdc8b73 OP_EQUALVERIFY OP_CHECKSIG",
            "hex": "76a914b85af70acb05a1a18240c28fb9f1fe336bdc8b7388ac",
            "reqSigs": 1,
            "type": "pubkeyhash",
            "addresses": [
              "Lc2jZsNv3MsWBXRAYhYRXB73pJeswkoMHq"
            ]
          }
        }
      ],
      "hex": "01000000018924060fe2d2a247d49ac9fbdea2e42430e1a7dcbf9dba8b29c4285ddd39a8bb1d0000006b483045022100ec53cc5cdbcd53eb7e7fe81a34ed72116f5eb31db3b5b8d5fb909a0342901cd502207afa5250b9ca8dbfea8500bc5f9e732e414a62d01348e864f3c02e8a1da34de1012102381bfa7167f57baee7821709d3de1d44b2715039a34235d8e5649c16603fba68ffffffff0280967a050000000017a9146a82624e55a4498616d889d1e2be62cac8406a028700f37a00000000001976a914b85af70acb05a1a18240c28fb9f1fe336bdc8b7388ac00000000"
    }
  ],
  "time": 1517451137,
  "mediantime": 1517450515,
  "nonce": 1348382240,
  "bits": "1a042eae",
  "difficulty": 4011378.762614286,
  "chainwork": "0000000000000000000000000000000000000000000000351028e5bcd7978c78",
  "previousblockhash": "70b0d2ab1adec36613dc725a30b231b250945e02f67f405381746c9226a4eecb",
  "nextblockhash": "2338e5f1c5fc33a62b03920ab7d0bc783a1063b426a16cb81449788515f74f8b"
}
