{
  "hash": "1bce261f1855fae11d0056d808d236ed4f12fedd9aa56962ef59bf310db2a2c3",
  "confirmations": 1006,
  "strippedsize": 254,
  "size": 254,
  "weight": 1016,
  "height": 1359988,
  "version": 536870912,
  "versionHex": "20000000",
  "merkleroot": "d714c8a643278fc6ac6f4d10596ceaebbc60bd6102e4b76d0cf2b769a990cfa0",
  "tx": [
    {
      "txid": "d714c8a643278fc6ac6f4d10596ceaebbc60bd6102e4b76d0cf2b769a990cfa0",
      "hash": "d714c8a643278fc6ac6f4d10596ceaebbc60bd6102e4b76d0cf2b769a990cfa0",
      "version": 1,
      "size": 173,
      "vsize": 173,
      "locktime": 0,
      "vin": [
        {
          "coinbase": "0374c0141b4d696e656420627920416e74506f6f6c20626a302042205a710cf4fabe6d6d07dff8e311d7c4efce99fd8b5529dba982c8b800ca8839ce894eccb424ab706a0400000000000000e12c00000000000003000000",
          "sequence": 4294967295
        }
      ],
      "vout": [
        {
          "value": 25.00000000,
          "n": 0,
          "scriptPubKey": {
            "asm": "OP_DUP OP_HASH160 0ff3ccc5e8be88afe24b5d634e5852d474dbdff1 OP_EQUALVERIFY OP_CHECKSIG",
            "hex": "76a9140ff3ccc5e8be88afe24b5d634e5852d474dbdff188ac",
            "reqSigs": 1,
            "type": "pubkeyhash",
            "addresses": [
              "LLgJTbzZMsRTCUF1NtvvL9SR1a4pVieW89"
            ]
          }
        }
      ],
      "hex": "01000000010000000000000000000000000000000000000000000000000000000000000000ffffffff580374c0141b4d696e656420627920416e74506f6f6c20626a302042205a710cf4fabe6d6d07dff8e311d7c4efce99fd8b5529dba982c8b800ca8839ce894eccb424ab706a0400000000000000e12c00000000000003000000ffffffff0100f90295000000001976a9140ff3ccc5e8be88afe24b5d634e5852d474dbdff188ac00000000"
    }
  ],
  "time": 1517358324,
  "mediantime": 1517357927,
  "nonce": 43674333,
  "bits": "1a042eae",
  "difficulty": 4011378.762614286,
  "chainwork": "00000000000000000000000000000000000000000000003484c3a1fcf92f856a",
  "previousblockhash": "6c7f74eb48b3042b83fdf1d5b1e7af63a451c1f7b8373467aec541015efad76c",
  "nextblockhash": "4bacaccbffd08c13c597674d9e509e9620bd5d3105a09f9c9326f5a7957bc47e"
}
