{
  "hash": "1c43da84f846bab166b40606a0a437508d8d09caba96e99d6c17d1fc7d807a0e",
  "confirmations": 2002,
  "strippedsize": 3316,
  "size": 3607,
  "weight": 13555,
  "height": 1358992,
  "version": 536870912,
  "versionHex": "20000000",
  "merkleroot": "ee5bcf5dc87c39ad1f3119fa7886eb60ee5fef14ffa7a60c441e00a566039b34",
  "tx": [
    {
      "txid": "93989d52d5577011d2c46feb5eacbd3466bf7dc5bd261594972a93887fafd0fc",
      "hash": "082bc2b524f0ae46bbae8bad0b789eb078ec6dc2ec9d459c7d18ca54bce40754",
      "version": 1,
      "size": 243,
      "vsize": 216,
      "locktime": 0,
      "vin": [
        {
          "coinbase": "0390bc140468f66e5afabe6d6ddcc4eeca8d96271430b0d55fe48e0b7aa32bc7eaf03c90704d9b48fa75199c48100000000000000008480c00d6030000000c2f43413837375156534c392f",
          "sequence": 0
        }
      ],
      "vout": [
        {
          "value": 25.02309643,
          "n": 0,
          "scriptPubKey": {
            "asm": "OP_DUP OP_HASH160 81308472f5a29a68cec40cbb4cd3f4be72094456 OP_EQUALVERIFY OP_CHECKSIG",
            "hex": "76a91481308472f5a29a68cec40cbb4cd3f4be7209445688ac",
            "reqSigs": 1,
            "type": "pubkeyhash",
            "addresses": [
              "LX13Z1HZKVzRDabi8CsPdGhp7YbC7Q8qtn"
            ]
          }
        }, 
        {
          "value": 0.00000000,
          "n": 1,
          "scriptPubKey": {
            "asm": "OP_RETURN aa21a9edaf90696cd983fdef9bc6c290625952d02b5aeec1629f794ff060c5028cf6f932",
            "hex": "6a24aa21a9edaf90696cd983fdef9bc6c290625952d02b5aeec1629f794ff060c5028cf6f932",
            "type": "nulldata"
          }
        }
      ],
      "hex": "010000000001010000000000000000000000000000000000000000000000000000000000000000ffffffff4b0390bc140468f66e5afabe6d6ddcc4eeca8d96271430b0d55fe48e0b7aa32bc7eaf03c90704d9b48fa75199c48100000000000000008480c00d6030000000c2f43413837375156534c392f00000000020b372695000000001976a91481308472f5a29a68cec40cbb4cd3f4be7209445688ac0000000000000000266a24aa21a9edaf90696cd983fdef9bc6c290625952d02b5aeec1629f794ff060c5028cf6f9320120000000000000000000000000000000000000000000000000000000000000000000000000"
    }, 
    {
      "txid": "125a657340542d6d68f1560a4be4aa330a3cbe7147ba8989cda04140867b8ca2",
      "hash": "125a657340542d6d68f1560a4be4aa330a3cbe7147ba8989cda04140867b8ca2",
      "version": 1,
      "size": 225,
      "vsize": 225,
      "locktime": 0,
      "vin": [
        {
          "txid": "f7552f43724f71bdff2c4fb69ef4d8f5dfd10bb886567b34c526c117ea86c63c",
          "vout": 1,
          "scriptSig": {
            "asm": "304402205be4fca0d08e57b2579d3790d91cedb9c8aebc4faabefe7378f00aa2805332e1022034cee7a89f91d221db265f682f5a4e2633162291ac7e7fa1f68ba4ba23142692[ALL] 03e7551449b2b51b77b949d89b5384710beb4d21ac161603910e3c1a83137404c5",
            "hex": "47304402205be4fca0d08e57b2579d3790d91cedb9c8aebc4faabefe7378f00aa2805332e1022034cee7a89f91d221db265f682f5a4e2633162291ac7e7fa1f68ba4ba23142692012103e7551449b2b51b77b949d89b5384710beb4d21ac161603910e3c1a83137404c5"
          },
          "sequence": 4294967295
        }
      ],
      "vout": [
        {
          "value": 0.46627275,
          "n": 0,
          "scriptPubKey": {
            "asm": "OP_DUP OP_HASH160 8632eac944de6331360fff6980ce893eea150994 OP_EQUALVERIFY OP_CHECKSIG",
            "hex": "76a9148632eac944de6331360fff6980ce893eea15099488ac",
            "reqSigs": 1,
            "type": "pubkeyhash",
            "addresses": [
              "LXTXohiKaZY39vNqknC4iYf22Y6JJMkkrP"
            ]
          }
        }, 
        {
          "value": 0.07968000,
          "n": 1,
          "scriptPubKey": {
            "asm": "OP_DUP OP_HASH160 8bcb063b27c2e792ca9f6b2e231f4c1e718438ad OP_EQUALVERIFY OP_CHECKSIG",
            "hex": "76a9148bcb063b27c2e792ca9f6b2e231f4c1e718438ad88ac",
            "reqSigs": 1,
            "type": "pubkeyhash",
            "addresses": [
              "LXy7QFo5zCoW572Unw9Zrxp7X64HPfSdX5"
            ]
          }
        }
      ],
      "hex": "01000000013cc686ea17c126c5347b5686b80bd1dff5d8f49eb64f2cffbd714f72432f55f7010000006a47304402205be4fca0d08e57b2579d3790d91cedb9c8aebc4faabefe7378f00aa2805332e1022034cee7a89f91d221db265f682f5a4e2633162291ac7e7fa1f68ba4ba23142692012103e7551449b2b51b77b949d89b5384710beb4d21ac161603910e3c1a83137404c5ffffffff02cb79c702000000001976a9148632eac944de6331360fff6980ce893eea15099488ac00957900000000001976a9148bcb063b27c2e792ca9f6b2e231f4c1e718438ad88ac00000000"
    }, 
    {
      "txid": "a7997ff7eb362b6c08d102add4a8952ba2e6c6f6bec83c468bc4968a1ea63b77",
      "hash": "a7997ff7eb362b6c08d102add4a8952ba2e6c6f6bec83c468bc4968a1ea63b77",
      "version": 1,
      "size": 192,
      "vsize": 192,
      "locktime": 0,
      "vin": [
        {
          "txid": "e0314ab2d82d9e4f432e118dd6ac35e2580d4d896356a2f2dcc0f7ba7b1ebc35",
          "vout": 0,
          "scriptSig": {
            "asm": "3045022100c76fcef8103447ef2a28d09b0ff4352295cd36fb9c88cb0f1822b97237f5dc34022013d2f2f151e6ab7554ea9fb10563cf01adf8d1a2a31ed5ee5673925f0ffcd75b[ALL] 02b429b5507533d0dc27e7bb6c3d9f44718ab7c2b9ac19376864725a4608b8f948",
            "hex": "483045022100c76fcef8103447ef2a28d09b0ff4352295cd36fb9c88cb0f1822b97237f5dc34022013d2f2f151e6ab7554ea9fb10563cf01adf8d1a2a31ed5ee5673925f0ffcd75b012102b429b5507533d0dc27e7bb6c3d9f44718ab7c2b9ac19376864725a4608b8f948"
          },
          "sequence": 4294967295
        }
      ],
      "vout": [
        {
          "value": 0.56679200,
          "n": 0,
          "scriptPubKey": {
            "asm": "OP_DUP OP_HASH160 c5d3683c58e725e75ac6b12fe915d41b04d3ac79 OP_EQUALVERIFY OP_CHECKSIG",
            "hex": "76a914c5d3683c58e725e75ac6b12fe915d41b04d3ac7988ac",
            "reqSigs": 1,
            "type": "pubkeyhash",
            "addresses": [
              "LdFxdqAuVQFbWwzURyXDFTFJW7wQkU5PfF"
            ]
          }
        }
      ],
      "hex": "010000000135bc1e7bbaf7c0dcf2a25663894d0d58e235acd68d112e434f9e2dd8b24a31e0000000006b483045022100c76fcef8103447ef2a28d09b0ff4352295cd36fb9c88cb0f1822b97237f5dc34022013d2f2f151e6ab7554ea9fb10563cf01adf8d1a2a31ed5ee5673925f0ffcd75b012102b429b5507533d0dc27e7bb6c3d9f44718ab7c2b9ac19376864725a4608b8f948ffffffff0120db6003000000001976a914c5d3683c58e725e75ac6b12fe915d41b04d3ac7988ac00000000"
    }, 
    {
      "txid": "296c471c4e7d37a9920d9b4605c0976c8cea3455222f00ccddbc53fb2cb6cefc",
      "hash": "3b243cac01979eda2410959d52d6c59f0ad52c30b4bad7dea059731217c2295d",
      "version": 1,
      "size": 405,
      "vsize": 214,
      "locktime": 0,
      "vin": [
        {
          "txid": "2f049f2fa80e54336c71882495319b35bbdad84de219a42864d1af65e5a9bd85",
          "vout": 0,
          "scriptSig": {
            "asm": "0020bcf9f822194145acea0f3235f4107b5bf1a91b6b9f8489f63bf79ec29b360913",
            "hex": "220020bcf9f822194145acea0f3235f4107b5bf1a91b6b9f8489f63bf79ec29b360913"
          },
          "txinwitness": [
            "", 
            "3045022100d23a2cb0459bfe058091b8354941a39e8f12a27ec295a634d89e04295fdda75b0220358e500eb92a8c2cda1ecc0cd7b2bc18a4c060abea74b0017f31cf68560735a101", 
            "3044022070889a136508e42f6334ade0c6b11e40fb911e252a96526825dcb5035e0ce950022024c5807acc4969d27770c9ba9ce12f5e4ac0f3a178cb1c73d5a3e32af3868f4f01", 
            "5221026c8f72b9e63db63907115e65d4da86eaae595b22fdc85ec75301bb4adbf203582103806535be3e3920e5eedee92de5714188fd6a784f2bf7b04f87de0b9c3ae1ecdb21024b23bfdce2afcae7e28c42f7f79aa100f22931712c52d7414a526ba494d44a2553ae"
          ],
          "sequence": 4294967295
        }
      ],
      "vout": [
        {
          "value": 3.38559852,
          "n": 0,
          "scriptPubKey": {
            "asm": "OP_HASH160 30897cc6c9d69f6a2c2f1c651d51f22219f1a4f6 OP_EQUAL",
            "hex": "a91430897cc6c9d69f6a2c2f1c651d51f22219f1a4f687",
            "reqSigs": 1,
            "type": "scripthash",
            "addresses": [
              "MCKoNRvwxc3gPLTk3UTCpaxRuiHURQD1E9"
            ]
          }
        }, 
        {
          "value": 0.94716678,
          "n": 1,
          "scriptPubKey": {
            "asm": "OP_HASH160 3b0b0c88e9cce118215955e1602024883ae7e154 OP_EQUAL",
            "hex": "a9143b0b0c88e9cce118215955e1602024883ae7e15487",
            "reqSigs": 1,
            "type": "scripthash",
            "addresses": [
              "MDHMLSgkqjMgKRMrPc9aXg7yG9ApWjqFHn"
            ]
          }
        }
      ],
      "hex": "0100000000010185bda9e565afd16428a419e24dd8dabb359b31952488716c33540ea82f9f042f0000000023220020bcf9f822194145acea0f3235f4107b5bf1a91b6b9f8489f63bf79ec29b360913ffffffff026c032e140000000017a91430897cc6c9d69f6a2c2f1c651d51f22219f1a4f6870643a5050000000017a9143b0b0c88e9cce118215955e1602024883ae7e154870400483045022100d23a2cb0459bfe058091b8354941a39e8f12a27ec295a634d89e04295fdda75b0220358e500eb92a8c2cda1ecc0cd7b2bc18a4c060abea74b0017f31cf68560735a101473044022070889a136508e42f6334ade0c6b11e40fb911e252a96526825dcb5035e0ce950022024c5807acc4969d27770c9ba9ce12f5e4ac0f3a178cb1c73d5a3e32af3868f4f01695221026c8f72b9e63db63907115e65d4da86eaae595b22fdc85ec75301bb4adbf203582103806535be3e3920e5eedee92de5714188fd6a784f2bf7b04f87de0b9c3ae1ecdb21024b23bfdce2afcae7e28c42f7f79aa100f22931712c52d7414a526ba494d44a2553ae00000000"
    }, 
    {
      "txid": "00842acc6a27f938bec1ea0c0d572a285693088e57bbf24cf519491a94c1cb2b",
      "hash": "00842acc6a27f938bec1ea0c0d572a285693088e57bbf24cf519491a94c1cb2b",
      "version": 2,
      "size": 1107,
      "vsize": 1107,
      "locktime": 1358990,
      "vin": [
        {
          "txid": "de4a527c81c09f91bf018f2d2f0a3a02645cb06af19a1474092ea6b6a7f91af4",
          "vout": 0,
          "scriptSig": {
            "asm": "304402203868c65f5c1e84910baafcd6a7392801ef009a57057da48e55e35b41163e24240220105c29e2219b2e9b1f3b92fc3812f3d84f26877ccbb2fdd22f18e7881a89b7e3[ALL] 03990bd41faf25f5582c08542cbed2278cfd8ac1edd5f2b17fffd7cac15cacca34",
            "hex": "47304402203868c65f5c1e84910baafcd6a7392801ef009a57057da48e55e35b41163e24240220105c29e2219b2e9b1f3b92fc3812f3d84f26877ccbb2fdd22f18e7881a89b7e3012103990bd41faf25f5582c08542cbed2278cfd8ac1edd5f2b17fffd7cac15cacca34"
          },
          "sequence": 4294967294
        }, 
        {
          "txid": "52ca0f5323042a5c580cb53e55aa83ce2f7c50ce891ea21f8bfbf7557a55c336",
          "vout": 1,
          "scriptSig": {
            "asm": "304402203fa7137706c3a3ad71a0b5f0acfc1c345408abdb5ec9b8b7f4a06d83fb94aaaf02200f2cc0b97f7ebeb242e11b60d6b2f416261cfb368f0823954a53222f9c8788a4[ALL] 02015596efbb0ad7976bccb8ceb0a20a928593d0bd9b66142beb34c3b724951873",
            "hex": "47304402203fa7137706c3a3ad71a0b5f0acfc1c345408abdb5ec9b8b7f4a06d83fb94aaaf02200f2cc0b97f7ebeb242e11b60d6b2f416261cfb368f0823954a53222f9c8788a4012102015596efbb0ad7976bccb8ceb0a20a928593d0bd9b66142beb34c3b724951873"
          },
          "sequence": 4294967294
        }, 
        {
          "txid": "36086d26224f17faea8ef421f17973d3f26f25723f93eb16556fff332c3337f6",
          "vout": 0,
          "scriptSig": {
            "asm": "30440220162473b9bb21332714a03744ee3a1ab881b6bbdec8939d7ca3b1762fe65e9abe0220785d3d12dfe67befa1c534261ac682741f149e2a774ec71348fa5170881007b9[ALL] 03c369702b19595682225f2351a69c8b84bf256dd6a5747cbe9d067e4cb9d40dc0",
            "hex": "4730440220162473b9bb21332714a03744ee3a1ab881b6bbdec8939d7ca3b1762fe65e9abe0220785d3d12dfe67befa1c534261ac682741f149e2a774ec71348fa5170881007b9012103c369702b19595682225f2351a69c8b84bf256dd6a5747cbe9d067e4cb9d40dc0"
          },
          "sequence": 4294967294
        }, 
        {
          "txid": "24e6c7d4591a1b6965ad3ae332d665782af454a9c5676a71b06f067fb658edcc",
          "vout": 1,
          "scriptSig": {
            "asm": "30440220647c65ae36f38996ad36e8a2130dae7ad6eca4da91fb9eac7ccd2123d8f8fe510220107bdb4852258ba5b38a98e35cc463eb2d21e5c2ebc84485eb6ed59dd8d34216[ALL] 0260a8b892139cc470db55d600d4b97fbab423a6f68ea42eda8cfdb5bee6e24730",
            "hex": "4730440220647c65ae36f38996ad36e8a2130dae7ad6eca4da91fb9eac7ccd2123d8f8fe510220107bdb4852258ba5b38a98e35cc463eb2d21e5c2ebc84485eb6ed59dd8d3421601210260a8b892139cc470db55d600d4b97fbab423a6f68ea42eda8cfdb5bee6e24730"
          },
          "sequence": 4294967294
        }, 
        {
          "txid": "4fe3207503e0338ee23970a490570b14d202b7f465eed76b89e01c3a2d3480dd",
          "vout": 1,
          "scriptSig": {
            "asm": "30450221009bccc3e4b46ebd0ce301fc0b949b2ea8708a5430d3fd5817308d93169f7b4e8f0220102a175f5283d301f789429cf3bbe66994dc7568af60a41d01b11b6ed1b8b1e1[ALL] 0275cd5ba62b897a4b080f61a1972c802c31dccfe71554c9e1b3c6defdf92b5e8b",
            "hex": "4830450221009bccc3e4b46ebd0ce301fc0b949b2ea8708a5430d3fd5817308d93169f7b4e8f0220102a175f5283d301f789429cf3bbe66994dc7568af60a41d01b11b6ed1b8b1e101210275cd5ba62b897a4b080f61a1972c802c31dccfe71554c9e1b3c6defdf92b5e8b"
          },
          "sequence": 4294967294
        }, 
        {
          "txid": "d4c5f7961ad684d0f7443fdc33ebee7f23c62d7a09481e0d05c87693995bf587",
          "vout": 0,
          "scriptSig": {
            "asm": "304402201653e90e661667ac0a496b5727a28d1c47a4fb983b46335b740cdd952d10482f0220727979fe70b7223f011a01c809b2214f3bdde510303b039172455db9f2be954e[ALL] 03a20525e734280db49833935363010a1dc431d65eabcea61a438e6f8747f86851",
            "hex": "47304402201653e90e661667ac0a496b5727a28d1c47a4fb983b46335b740cdd952d10482f0220727979fe70b7223f011a01c809b2214f3bdde510303b039172455db9f2be954e012103a20525e734280db49833935363010a1dc431d65eabcea61a438e6f8747f86851"
          },
          "sequence": 4294967294
        }, 
        {
          "txid": "4f6cf797555ddb6cc1900cdefb73baf575dbbc1a01af24be119161503f3e7889",
          "vout": 0,
          "scriptSig": {
            "asm": "3045022100d8d9c4af807054dd6f8fae3a63f9ffe529f061ac2cb350fdeed84226cd99e85202203a7791cc3eb945a2ddb8a15dd32a5544ece004a0b30419de8a10997c8ee0bbcc[ALL] 0252c31bf862d8dac7715e99351aca60f150c29e88b86a540363975e847e2da487",
            "hex": "483045022100d8d9c4af807054dd6f8fae3a63f9ffe529f061ac2cb350fdeed84226cd99e85202203a7791cc3eb945a2ddb8a15dd32a5544ece004a0b30419de8a10997c8ee0bbcc01210252c31bf862d8dac7715e99351aca60f150c29e88b86a540363975e847e2da487"
          },
          "sequence": 4294967294
        }
      ],
      "vout": [
        {
          "value": 0.01351322,
          "n": 0,
          "scriptPubKey": {
            "asm": "OP_DUP OP_HASH160 f3c7441db1f5dc96a704bd1f928fcafe76398b84 OP_EQUALVERIFY OP_CHECKSIG",
            "hex": "76a914f3c7441db1f5dc96a704bd1f928fcafe76398b8488ac",
            "reqSigs": 1,
            "type": "pubkeyhash",
            "addresses": [
              "LhSwB5TRMQy4mbPffrVnwTJ8171efna2JD"
            ]
          }
        }, 
        {
          "value": 7.22158378,
          "n": 1,
          "scriptPubKey": {
            "asm": "OP_HASH160 18f1e07c545f2a4d15a7b48ac48348a17de834e4 OP_EQUAL",
            "hex": "a91418f1e07c545f2a4d15a7b48ac48348a17de834e487",
            "reqSigs": 1,
            "type": "scripthash",
            "addresses": [
              "MAB4CwDU5ju82w9akeVYHenD3pEg2dadJN"
            ]
          }
        }
      ],
      "hex": "0200000007f41af9a7b6a62e0974149af16ab05c64023a0a2f2d8f01bf919fc0817c524ade000000006a47304402203868c65f5c1e84910baafcd6a7392801ef009a57057da48e55e35b41163e24240220105c29e2219b2e9b1f3b92fc3812f3d84f26877ccbb2fdd22f18e7881a89b7e3012103990bd41faf25f5582c08542cbed2278cfd8ac1edd5f2b17fffd7cac15cacca34feffffff36c3557a55f7fb8b1fa21e89ce507c2fce83aa553eb50c585c2a0423530fca52010000006a47304402203fa7137706c3a3ad71a0b5f0acfc1c345408abdb5ec9b8b7f4a06d83fb94aaaf02200f2cc0b97f7ebeb242e11b60d6b2f416261cfb368f0823954a53222f9c8788a4012102015596efbb0ad7976bccb8ceb0a20a928593d0bd9b66142beb34c3b724951873fefffffff637332c33ff6f5516eb933f72256ff2d37379f121f48eeafa174f22266d0836000000006a4730440220162473b9bb21332714a03744ee3a1ab881b6bbdec8939d7ca3b1762fe65e9abe0220785d3d12dfe67befa1c534261ac682741f149e2a774ec71348fa5170881007b9012103c369702b19595682225f2351a69c8b84bf256dd6a5747cbe9d067e4cb9d40dc0feffffffcced58b67f066fb0716a67c5a954f42a7865d632e33aad65691b1a59d4c7e624010000006a4730440220647c65ae36f38996ad36e8a2130dae7ad6eca4da91fb9eac7ccd2123d8f8fe510220107bdb4852258ba5b38a98e35cc463eb2d21e5c2ebc84485eb6ed59dd8d3421601210260a8b892139cc470db55d600d4b97fbab423a6f68ea42eda8cfdb5bee6e24730feffffffdd80342d3a1ce0896bd7ee65f4b702d2140b5790a47039e28e33e0037520e34f010000006b4830450221009bccc3e4b46ebd0ce301fc0b949b2ea8708a5430d3fd5817308d93169f7b4e8f0220102a175f5283d301f789429cf3bbe66994dc7568af60a41d01b11b6ed1b8b1e101210275cd5ba62b897a4b080f61a1972c802c31dccfe71554c9e1b3c6defdf92b5e8bfeffffff87f55b999376c8050d1e48097a2dc6237feeeb33dc3f44f7d084d61a96f7c5d4000000006a47304402201653e90e661667ac0a496b5727a28d1c47a4fb983b46335b740cdd952d10482f0220727979fe70b7223f011a01c809b2214f3bdde510303b039172455db9f2be954e012103a20525e734280db49833935363010a1dc431d65eabcea61a438e6f8747f86851feffffff89783e3f50619111be24af011abcdb75f5ba73fbde0c90c16cdb5d5597f76c4f000000006b483045022100d8d9c4af807054dd6f8fae3a63f9ffe529f061ac2cb350fdeed84226cd99e85202203a7791cc3eb945a2ddb8a15dd32a5544ece004a0b30419de8a10997c8ee0bbcc01210252c31bf862d8dac7715e99351aca60f150c29e88b86a540363975e847e2da487feffffff029a9e1400000000001976a914f3c7441db1f5dc96a704bd1f928fcafe76398b8488ac2a430b2b0000000017a91418f1e07c545f2a4d15a7b48ac48348a17de834e4878ebc1400"
    }, 
    {
      "txid": "55731153c8fadc2034f9adde878c73f93b7dda520ce0fc94cd44f493a0112551",
      "hash": "55731153c8fadc2034f9adde878c73f93b7dda520ce0fc94cd44f493a0112551",
      "version": 2,
      "size": 225,
      "vsize": 225,
      "locktime": 1358990,
      "vin": [
        {
          "txid": "0fd94a0609aa101d6a28872b5adf4d373b6185fd4545bb2d8e17703633bfd6ed",
          "vout": 0,
          "scriptSig": {
            "asm": "3044022005278fed0dc382a7db2b94fdc1b8580ff1684f25864c3783e1f2e586f26370e9022056d34a5a1bcf623c22ce4bd153f857381e4804cd69b21ab6de115acd618205bb[ALL] 02252266d1e32b838664e21e95a75e272c485f310b234048334647e9d51adfbf24",
            "hex": "473044022005278fed0dc382a7db2b94fdc1b8580ff1684f25864c3783e1f2e586f26370e9022056d34a5a1bcf623c22ce4bd153f857381e4804cd69b21ab6de115acd618205bb012102252266d1e32b838664e21e95a75e272c485f310b234048334647e9d51adfbf24"
          },
          "sequence": 4294967294
        }
      ],
      "vout": [
        {
          "value": 0.23691937,
          "n": 0,
          "scriptPubKey": {
            "asm": "OP_DUP OP_HASH160 935d5c19a26fdb5a1700f29dbec45d5102339931 OP_EQUALVERIFY OP_CHECKSIG",
            "hex": "76a914935d5c19a26fdb5a1700f29dbec45d510233993188ac",
            "reqSigs": 1,
            "type": "pubkeyhash",
            "addresses": [
              "LYf9SANRYQEAdFYu2U4WxV2STomah5tjGd"
            ]
          }
        }, 
        {
          "value": 0.05400000,
          "n": 1,
          "scriptPubKey": {
            "asm": "OP_DUP OP_HASH160 26f1ecb8d4481e1f8a6c846c2f3f5fe0c35ab662 OP_EQUALVERIFY OP_CHECKSIG",
            "hex": "76a91426f1ecb8d4481e1f8a6c846c2f3f5fe0c35ab66288ac",
            "reqSigs": 1,
            "type": "pubkeyhash",
            "addresses": [
              "LNmskj1RqzbGeRGZnPJ5WtCq7UxeftU7Hm"
            ]
          }
        }
      ],
      "hex": "0200000001edd6bf333670178e2dbb4545fd85613b374ddf5a2b87286a1d10aa09064ad90f000000006a473044022005278fed0dc382a7db2b94fdc1b8580ff1684f25864c3783e1f2e586f26370e9022056d34a5a1bcf623c22ce4bd153f857381e4804cd69b21ab6de115acd618205bb012102252266d1e32b838664e21e95a75e272c485f310b234048334647e9d51adfbf24feffffff02a1826901000000001976a914935d5c19a26fdb5a1700f29dbec45d510233993188acc0655200000000001976a91426f1ecb8d4481e1f8a6c846c2f3f5fe0c35ab66288ac8ebc1400"
    }, 
    {
      "txid": "904ed77000b3821d540e6033d8003be6312c461eec29e293d9b8d3d5463fede0",
      "hash": "904ed77000b3821d540e6033d8003be6312c461eec29e293d9b8d3d5463fede0",
      "version": 1,
      "size": 225,
      "vsize": 225,
      "locktime": 0,
      "vin": [
        {
          "txid": "5ad536920fed1db72613a8a6c21a6f506a67f07f121802c2ed4bfe54e3fd33de",
          "vout": 7,
          "scriptSig": {
            "asm": "3044022042c62144aeb99bc86b2bdee9f19cb811a6b665f34a8eae9c5553657194a426e5022010a8296be8bba1c256559ccf9e2c2198ee3dfd29bfa887971758f2500632422a[ALL] 03b5a1dc8a64fb6ddcaf0480ec66155aa04526175dd43ead810af089866c152b88",
            "hex": "473044022042c62144aeb99bc86b2bdee9f19cb811a6b665f34a8eae9c5553657194a426e5022010a8296be8bba1c256559ccf9e2c2198ee3dfd29bfa887971758f2500632422a012103b5a1dc8a64fb6ddcaf0480ec66155aa04526175dd43ead810af089866c152b88"
          },
          "sequence": 4294967295
        }
      ],
      "vout": [
        {
          "value": 0.71621242,
          "n": 0,
          "scriptPubKey": {
            "asm": "OP_DUP OP_HASH160 b5ca7e49394f8772e9e9fdaae59e55bd4d048633 OP_EQUALVERIFY OP_CHECKSIG",
            "hex": "76a914b5ca7e49394f8772e9e9fdaae59e55bd4d04863388ac",
            "reqSigs": 1,
            "type": "pubkeyhash",
            "addresses": [
              "LboB9R4ycU4PaZrfa1zqMHHDTUjRjUYBLs"
            ]
          }
        }, 
        {
          "value": 3.27356158,
          "n": 1,
          "scriptPubKey": {
            "asm": "OP_DUP OP_HASH160 bac4412c48ceedc8ef22dc0cd46336209a785a4b OP_EQUALVERIFY OP_CHECKSIG",
            "hex": "76a914bac4412c48ceedc8ef22dc0cd46336209a785a4b88ac",
            "reqSigs": 1,
            "type": "pubkeyhash",
            "addresses": [
              "LcFV3uCpaw5ofN6EUdG2Mq62VzdY3XgjUC"
            ]
          }
        }
      ],
      "hex": "0100000001de33fde354fe4bedc20218127ff0676a506f1ac2a6a81326b71ded0f9236d55a070000006a473044022042c62144aeb99bc86b2bdee9f19cb811a6b665f34a8eae9c5553657194a426e5022010a8296be8bba1c256559ccf9e2c2198ee3dfd29bfa887971758f2500632422a012103b5a1dc8a64fb6ddcaf0480ec66155aa04526175dd43ead810af089866c152b88ffffffff027ada4404000000001976a914b5ca7e49394f8772e9e9fdaae59e55bd4d04863388acfe0e8313000000001976a914bac4412c48ceedc8ef22dc0cd46336209a785a4b88ac00000000"
    }, 
    {
      "txid": "f50f9712593e2eba337570e11b30fe92e0138df78126e0119cb21a347c02b4d1",
      "hash": "f50f9712593e2eba337570e11b30fe92e0138df78126e0119cb21a347c02b4d1",
      "version": 1,
      "size": 226,
      "vsize": 226,
      "locktime": 0,
      "vin": [
        {
          "txid": "99979f34675fd63c57aaee651661061ebcac6e0bb3248e785c314aa1e634717e",
          "vout": 0,
          "scriptSig": {
            "asm": "3045022100f440a23d7c6ba17b4c85e2bca73dbf226d2962bfeb4e3f7b1bbd396cc0af0e6e02206684779e9d90165165f9e8a9f3ebee547ecac8f73a5f85eb6a622149e6e47025[ALL] 02b8ff7ff5e3e7591e6534ee1c53e5d63bd61143ec583db1b35e220f5eb0966bb5",
            "hex": "483045022100f440a23d7c6ba17b4c85e2bca73dbf226d2962bfeb4e3f7b1bbd396cc0af0e6e02206684779e9d90165165f9e8a9f3ebee547ecac8f73a5f85eb6a622149e6e47025012102b8ff7ff5e3e7591e6534ee1c53e5d63bd61143ec583db1b35e220f5eb0966bb5"
          },
          "sequence": 4294967295
        }
      ],
      "vout": [
        {
          "value": 0.19320383,
          "n": 0,
          "scriptPubKey": {
            "asm": "OP_DUP OP_HASH160 608ddd480b8109803ed193add5f0cc7e87d9756e OP_EQUALVERIFY OP_CHECKSIG",
            "hex": "76a914608ddd480b8109803ed193add5f0cc7e87d9756e88ac",
            "reqSigs": 1,
            "type": "pubkeyhash",
            "addresses": [
              "LU2V5YCSDTqF8p295qZGQyD5F8xSH2RMhF"
            ]
          }
        }, 
        {
          "value": 0.50000000,
          "n": 1,
          "scriptPubKey": {
            "asm": "OP_DUP OP_HASH160 1ddccba64a538e84b49203de499030984a4930ca OP_EQUALVERIFY OP_CHECKSIG",
            "hex": "76a9141ddccba64a538e84b49203de499030984a4930ca88ac",
            "reqSigs": 1,
            "type": "pubkeyhash",
            "addresses": [
              "LMwrMv8QKQFBtfCqoBjVbfcxLVdGd19dcf"
            ]
          }
        }
      ],
      "hex": "01000000017e7134e6a14a315c788e24b30b6eacbc1e06611665eeaa573cd65f67349f9799000000006b483045022100f440a23d7c6ba17b4c85e2bca73dbf226d2962bfeb4e3f7b1bbd396cc0af0e6e02206684779e9d90165165f9e8a9f3ebee547ecac8f73a5f85eb6a622149e6e47025012102b8ff7ff5e3e7591e6534ee1c53e5d63bd61143ec583db1b35e220f5eb0966bb5ffffffff023fce2601000000001976a914608ddd480b8109803ed193add5f0cc7e87d9756e88ac80f0fa02000000001976a9141ddccba64a538e84b49203de499030984a4930ca88ac00000000"
    }, 
    {
      "txid": "638ce2cf82c24b9055a5f5a550600cd74aed41eeff6354a0a898e3cf7eb2c804",
      "hash": "638ce2cf82c24b9055a5f5a550600cd74aed41eeff6354a0a898e3cf7eb2c804",
      "version": 1,
      "size": 226,
      "vsize": 226,
      "locktime": 0,
      "vin": [
        {
          "txid": "ad11f401a829ecbf84b6e868eb0edcc7e564d8827cd8d50482d0e5127815fac9",
          "vout": 1,
          "scriptSig": {
            "asm": "30450221009b6d536b57d5b47f8f8f9f985ab25387b0e84741284baf939d0162e82f22bdce022071c15ba132a6eaacff67bb0668d34f3cedbafee64d07e29e51f387c1d551c090[ALL] 03f394b79498c9fdd352aae3521b3a8a4934e90216b689f7d1a61c461961d98a6b",
            "hex": "4830450221009b6d536b57d5b47f8f8f9f985ab25387b0e84741284baf939d0162e82f22bdce022071c15ba132a6eaacff67bb0668d34f3cedbafee64d07e29e51f387c1d551c090012103f394b79498c9fdd352aae3521b3a8a4934e90216b689f7d1a61c461961d98a6b"
          },
          "sequence": 4294967295
        }
      ],
      "vout": [
        {
          "value": 1.85845578,
          "n": 0,
          "scriptPubKey": {
            "asm": "OP_DUP OP_HASH160 68cc9a4a2f4145cca311160e26153561354d9b22 OP_EQUALVERIFY OP_CHECKSIG",
            "hex": "76a91468cc9a4a2f4145cca311160e26153561354d9b2288ac",
            "reqSigs": 1,
            "type": "pubkeyhash",
            "addresses": [
              "LUn5eD1LLwXwDefBT7u91h9BTtvYGKPJJi"
            ]
          }
        }, 
        {
          "value": 1.35277400,
          "n": 1,
          "scriptPubKey": {
            "asm": "OP_DUP OP_HASH160 ef28f60bd8b6df4694f2da07f50e0a22fe4a3976 OP_EQUALVERIFY OP_CHECKSIG",
            "hex": "76a914ef28f60bd8b6df4694f2da07f50e0a22fe4a397688ac",
            "reqSigs": 1,
            "type": "pubkeyhash",
            "addresses": [
              "Lh2Wq67EAmWi5WXESEWpAULZUqdQrrc4AY"
            ]
          }
        }
      ],
      "hex": "0100000001c9fa157812e5d08204d5d87c82d864e5c7dc0eeb68e8b684bfec29a801f411ad010000006b4830450221009b6d536b57d5b47f8f8f9f985ab25387b0e84741284baf939d0162e82f22bdce022071c15ba132a6eaacff67bb0668d34f3cedbafee64d07e29e51f387c1d551c090012103f394b79498c9fdd352aae3521b3a8a4934e90216b689f7d1a61c461961d98a6bffffffff024ac7130b000000001976a91468cc9a4a2f4145cca311160e26153561354d9b2288ac582b1008000000001976a914ef28f60bd8b6df4694f2da07f50e0a22fe4a397688ac00000000"
    }, 
    {
      "txid": "e66eb01a54507631390c6375e1d95013cc63166f4f09baa1170f071687d6e40f",
      "hash": "e66eb01a54507631390c6375e1d95013cc63166f4f09baa1170f071687d6e40f",
      "version": 2,
      "size": 226,
      "vsize": 226,
      "locktime": 1358990,
      "vin": [
        {
          "txid": "483da348b1debf66b9a0c03be3ca3a8c7ebbbfc39b05a2617518653cf33647d4",
          "vout": 1,
          "scriptSig": {
            "asm": "30450221009706a31a9e5d44d4a1fbe75d6d2a81c5d2462ee2a01859e6a498bd096d41b43d02207be9c3ad22710a73eb45b5928ceba5c6deb87420fa17bc456904073e37493eb1[ALL] 0216efa1891a74a51a601b58610eed95197e43e221ed281b06a1088fe29b59ca72",
            "hex": "4830450221009706a31a9e5d44d4a1fbe75d6d2a81c5d2462ee2a01859e6a498bd096d41b43d02207be9c3ad22710a73eb45b5928ceba5c6deb87420fa17bc456904073e37493eb101210216efa1891a74a51a601b58610eed95197e43e221ed281b06a1088fe29b59ca72"
          },
          "sequence": 4294967294
        }
      ],
      "vout": [
        {
          "value": 0.48333424,
          "n": 0,
          "scriptPubKey": {
            "asm": "OP_DUP OP_HASH160 d26537387b021d906ad5ee57867f9b177396f000 OP_EQUALVERIFY OP_CHECKSIG",
            "hex": "76a914d26537387b021d906ad5ee57867f9b177396f00088ac",
            "reqSigs": 1,
            "type": "pubkeyhash",
            "addresses": [
              "LeQRR63zmMK4htNprjtBxjPvQa1BbsrN8G"
            ]
          }
        }, 
        {
          "value": 0.51621376,
          "n": 1,
          "scriptPubKey": {
            "asm": "OP_DUP OP_HASH160 957af372c4017fadc4f0295d07cbb87053058ab9 OP_EQUALVERIFY OP_CHECKSIG",
            "hex": "76a914957af372c4017fadc4f0295d07cbb87053058ab988ac",
            "reqSigs": 1,
            "type": "pubkeyhash",
            "addresses": [
              "LYrLEaXgM44RRo94d4WDXKvSBJnr39gcni"
            ]
          }
        }
      ],
      "hex": "0200000001d44736f33c65187561a2059bc3bfbb7e8c3acae33bc0a0b966bfdeb148a33d48010000006b4830450221009706a31a9e5d44d4a1fbe75d6d2a81c5d2462ee2a01859e6a498bd096d41b43d02207be9c3ad22710a73eb45b5928ceba5c6deb87420fa17bc456904073e37493eb101210216efa1891a74a51a601b58610eed95197e43e221ed281b06a1088fe29b59ca72feffffff027082e102000000001976a914d26537387b021d906ad5ee57867f9b177396f00088ac00ae1303000000001976a914957af372c4017fadc4f0295d07cbb87053058ab988ac8ebc1400"
    }, 
    {
      "txid": "4f69f67d4e6de0c82a2a7580889b61c9406147f90ee004df2247f1b1f00640d0",
      "hash": "4f69f67d4e6de0c82a2a7580889b61c9406147f90ee004df2247f1b1f00640d0",
      "version": 1,
      "size": 226,
      "vsize": 226,
      "locktime": 0,
      "vin": [
        {
          "txid": "82b9ae4964fd785b6d30c5b712d15806f046ddefe011db0f5298888454238c00",
          "vout": 0,
          "scriptSig": {
            "asm": "3045022100ac77a8ba7f26c73a5067d8c56f7d5a5991e1cd754c2fdd49b21163c9b7caf0d302200973f9afdb4adb4d84e40e22f4bf7f125c5353d2e0c9b05913b0e95a5d44c6a0[ALL] 020ff974fc6f0b6d8fdc9002344c607921349eeb63a084dcdcba9ccaa014e862bd",
            "hex": "483045022100ac77a8ba7f26c73a5067d8c56f7d5a5991e1cd754c2fdd49b21163c9b7caf0d302200973f9afdb4adb4d84e40e22f4bf7f125c5353d2e0c9b05913b0e95a5d44c6a00121020ff974fc6f0b6d8fdc9002344c607921349eeb63a084dcdcba9ccaa014e862bd"
          },
          "sequence": 4294967295
        }
      ],
      "vout": [
        {
          "value": 1.00662903,
          "n": 0,
          "scriptPubKey": {
            "asm": "OP_DUP OP_HASH160 3be3eb40a68ea6968c40a73f84474e73deb847d9 OP_EQUALVERIFY OP_CHECKSIG",
            "hex": "76a9143be3eb40a68ea6968c40a73f84474e73deb847d988ac",
            "reqSigs": 1,
            "type": "pubkeyhash",
            "addresses": [
              "LQgdAcn1GRgHPpYBJNRS2tFg6xZiYe8ZTi"
            ]
          }
        }, 
        {
          "value": 3.99214497,
          "n": 1,
          "scriptPubKey": {
            "asm": "OP_DUP OP_HASH160 8196c84aa800cbb8c63c8b9f861f9626ac6fcdea OP_EQUALVERIFY OP_CHECKSIG",
            "hex": "76a9148196c84aa800cbb8c63c8b9f861f9626ac6fcdea88ac",
            "reqSigs": 1,
            "type": "pubkeyhash",
            "addresses": [
              "LX3A4W92WzsGVBc6gn6m44QM9Tty2pwhhN"
            ]
          }
        }
      ],
      "hex": "0100000001008c2354848898520fdb11e0efdd46f00658d112b7c5306d5b78fd6449aeb982000000006b483045022100ac77a8ba7f26c73a5067d8c56f7d5a5991e1cd754c2fdd49b21163c9b7caf0d302200973f9afdb4adb4d84e40e22f4bf7f125c5353d2e0c9b05913b0e95a5d44c6a00121020ff974fc6f0b6d8fdc9002344c607921349eeb63a084dcdcba9ccaa014e862bdffffffff0277feff05000000001976a9143be3eb40a68ea6968c40a73f84474e73deb847d988aca187cb17000000001976a9148196c84aa800cbb8c63c8b9f861f9626ac6fcdea88ac00000000"
    }
  ],
  "time": 1517221445,
  "mediantime": 1517220955,
  "nonce": 761915282,
  "bits": "1a042eae",
  "difficulty": 4011378.762614286,
  "chainwork": "000000000000000000000000000000000000000000000033969ec158883407a2",
  "previousblockhash": "f1de0f9008e369623c2188690ade9eea331771d2d948ed263291b532aad82dde",
  "nextblockhash": "0c1ca852b7b73828c9ccb4621afa2b5a5deda04299b9704ad8e4794b5c485490"
}
