{
  "hash": "1c68ed19946d7444c16158a5dd09725addc3adf680b578bd8984bccdae7a84bb",
  "confirmations": 600,
  "strippedsize": 234,
  "size": 234,
  "weight": 936,
  "height": 1360394,
  "version": 536870912,
  "versionHex": "20000000",
  "merkleroot": "9abb126ec476e5f259e88c28d758f4b0f095590f5527eb5d2e51d6b07b67afd5",
  "tx": [
    {
      "txid": "9abb126ec476e5f259e88c28d758f4b0f095590f5527eb5d2e51d6b07b67afd5",
      "hash": "9abb126ec476e5f259e88c28d758f4b0f095590f5527eb5d2e51d6b07b67afd5",
      "version": 1,
      "size": 153,
      "vsize": 153,
      "locktime": 0,
      "vin": [
        {
          "coinbase": "030ac214045a720cb92cfabe6d6dcc495c42149bfe9cbebe43bcb1f217cf1fb2d6c5a30068ff29b4330bae34141b4000000000000000042f4c502f0856001a346d0f0000",
          "sequence": 4294967295
        }
      ],
      "vout": [
        {
          "value": 25.00000000,
          "n": 0,
          "scriptPubKey": {
            "asm": "OP_DUP OP_HASH160 57757ed2ecf2052ff3126c397aca7defb9ca2cec OP_EQUALVERIFY OP_CHECKSIG",
            "hex": "76a91457757ed2ecf2052ff3126c397aca7defb9ca2cec88ac",
            "reqSigs": 1,
            "type": "pubkeyhash",
            "addresses": [
              "LTCPodGk5FwcJaRzH9yKnwicxzFUbxp6tN"
            ]
          }
        }
      ],
      "hex": "01000000010000000000000000000000000000000000000000000000000000000000000000ffffffff44030ac214045a720cb92cfabe6d6dcc495c42149bfe9cbebe43bcb1f217cf1fb2d6c5a30068ff29b4330bae34141b4000000000000000042f4c502f0856001a346d0f0000ffffffff0100f90295000000001976a91457757ed2ecf2052ff3126c397aca7defb9ca2cec88ac00000000"
    }
  ],
  "time": 1517423801,
  "mediantime": 1517422935,
  "nonce": 1690291595,
  "bits": "1a042eae",
  "difficulty": 4011378.762614286,
  "chainwork": "000000000000000000000000000000000000000000000034e5d6c711bd585996",
  "previousblockhash": "0050215b0ed42dc58edce6008d0931757be0a423b608d8ca732dd9dea6e04332",
  "nextblockhash": "0ce88059dce8720e727226c4d626c66bed0163608f33bbd87920548c10dd92ce"
}
