{
  "hash": "1c8eea28f62cfdbbe63e9f3af2a26ad52aeff6c6a1b6ea64ab11f4ea3e12542b",
  "confirmations": 2708,
  "strippedsize": 529,
  "size": 565,
  "weight": 2152,
  "height": 1358287,
  "version": 536870912,
  "versionHex": "20000000",
  "merkleroot": "d7527f3818c992f762b5a1fdd65f0a5dc3fb4b83d0a57f6e6efaac0c4c85a1b4",
  "tx": [
    {
      "txid": "c6f8d31072b13e8db74dc09cd87471c6c940b0f09cd9129f469d7aa60387f85b",
      "hash": "1ce820e9cecf7c936022d3eefdc31478dfbb826217c7180441e483802d16b698",
      "version": 1,
      "size": 259,
      "vsize": 232,
      "locktime": 0,
      "vin": [
        {
          "coinbase": "03cfb914182f5669614254432f4d696e65642062792077616e6778752f2cfabe6d6d6b7b381d07277f645318dfcdb75c74f3899e8c2d429f65a1d9c50c641b21dccb0100000000000000100f65d000d7bb4e84e74d7e3b12000000",
          "sequence": 4294967295
        }
      ],
      "vout": [
        {
          "value": 25.00011300,
          "n": 0,
          "scriptPubKey": {
            "asm": "OP_DUP OP_HASH160 e16c28146ed4869c190b3f0bdc18d80d45f92134 OP_EQUALVERIFY OP_CHECKSIG",
            "hex": "76a914e16c28146ed4869c190b3f0bdc18d80d45f9213488ac",
            "reqSigs": 1,
            "type": "pubkeyhash",
            "addresses": [
              "LfmssDyX6iZvbVqHv6t9P6JWXia2JG7mdb"
            ]
          }
        }, 
        {
          "value": 0.00000000,
          "n": 1,
          "scriptPubKey": {
            "asm": "OP_RETURN aa21a9edb98c22c97281083238d957c431018103a68271e070b57296cdaf4cce021aeb1f",
            "hex": "6a24aa21a9edb98c22c97281083238d957c431018103a68271e070b57296cdaf4cce021aeb1f",
            "type": "nulldata"
          }
        }
      ],
      "hex": "010000000001010000000000000000000000000000000000000000000000000000000000000000ffffffff5b03cfb914182f5669614254432f4d696e65642062792077616e6778752f2cfabe6d6d6b7b381d07277f645318dfcdb75c74f3899e8c2d429f65a1d9c50c641b21dccb0100000000000000100f65d000d7bb4e84e74d7e3b12000000ffffffff0224250395000000001976a914e16c28146ed4869c190b3f0bdc18d80d45f9213488ac0000000000000000266a24aa21a9edb98c22c97281083238d957c431018103a68271e070b57296cdaf4cce021aeb1f0120000000000000000000000000000000000000000000000000000000000000000000000000"
    }, 
    {
      "txid": "328bbde7788f2ace8bcad442d1ac17fa5f0ee5a6b69031466dce7ce4fef7028a",
      "hash": "328bbde7788f2ace8bcad442d1ac17fa5f0ee5a6b69031466dce7ce4fef7028a",
      "version": 1,
      "size": 225,
      "vsize": 225,
      "locktime": 0,
      "vin": [
        {
          "txid": "986802c398995071964372e99972e168b499fd3f6231dbb5d3b40932a1a382fa",
          "vout": 0,
          "scriptSig": {
            "asm": "30440220696fe95693ce01b0fbec905a9c785864049d90c88be43048f3ad58ab3bede4aa02204ae7bd4b3fe78d397b69ea1dcfaa601335a64ee989fb88079c6f1952f393027a[ALL] 02e7a15556a5f3acb0021a842c7cb0297493005d038d238ddb2882aa7604a154ef",
            "hex": "4730440220696fe95693ce01b0fbec905a9c785864049d90c88be43048f3ad58ab3bede4aa02204ae7bd4b3fe78d397b69ea1dcfaa601335a64ee989fb88079c6f1952f393027a012102e7a15556a5f3acb0021a842c7cb0297493005d038d238ddb2882aa7604a154ef"
          },
          "sequence": 4294967295
        }
      ],
      "vout": [
        {
          "value": 0.00405642,
          "n": 0,
          "scriptPubKey": {
            "asm": "OP_DUP OP_HASH160 ecb34bacfec3219544da2ca75fad39975b8089c6 OP_EQUALVERIFY OP_CHECKSIG",
            "hex": "76a914ecb34bacfec3219544da2ca75fad39975b8089c688ac",
            "reqSigs": 1,
            "type": "pubkeyhash",
            "addresses": [
              "LgoWXAN7ULq3F6dLzSxKdwEEpa4xz7BuxR"
            ]
          }
        }, 
        {
          "value": 0.05210000,
          "n": 1,
          "scriptPubKey": {
            "asm": "OP_DUP OP_HASH160 262b8532c5abcc9f4316c29a0a8b8eef873728e4 OP_EQUALVERIFY OP_CHECKSIG",
            "hex": "76a914262b8532c5abcc9f4316c29a0a8b8eef873728e488ac",
            "reqSigs": 1,
            "type": "pubkeyhash",
            "addresses": [
              "LNhn5M3gAvUSXxV2GQ1c8oHqc7sXNdXnSp"
            ]
          }
        }
      ],
      "hex": "0100000001fa82a3a13209b4d3b5db31623ffd99b468e17299e972439671509998c3026898000000006a4730440220696fe95693ce01b0fbec905a9c785864049d90c88be43048f3ad58ab3bede4aa02204ae7bd4b3fe78d397b69ea1dcfaa601335a64ee989fb88079c6f1952f393027a012102e7a15556a5f3acb0021a842c7cb0297493005d038d238ddb2882aa7604a154efffffffff028a300600000000001976a914ecb34bacfec3219544da2ca75fad39975b8089c688ac907f4f00000000001976a914262b8532c5abcc9f4316c29a0a8b8eef873728e488ac00000000"
    }
  ],
  "time": 1517120324,
  "mediantime": 1517119778,
  "nonce": 2208146906,
  "bits": "1a047f14",
  "difficulty": 3731199.183374282,
  "chainwork": "000000000000000000000000000000000000000000000032f6566ff3dfc33220",
  "previousblockhash": "2228594078376d5f27616ebb0743b921b491a26d8e478b24e4e45cef5d2199d3",
  "nextblockhash": "a2a88d0d16a9cefa34b7783cfd7207982489558b9cc252950422ff204b555acf"
}
