{
  "hash": "1c925a1486be9ce4de191c234cf86a9e9e568b54485b24dd83b253635a4ccdb9",
  "confirmations": 287,
  "strippedsize": 4555,
  "size": 4591,
  "weight": 18256,
  "height": 1360707,
  "version": 536870912,
  "versionHex": "20000000",
  "merkleroot": "b81cb174fd65094d5392e51b3b0531baedd219b405e86d46a63fb7d87d9de921",
  "tx": [
    {
      "txid": "59adbafdb97f2754387bb00f33c979532bce16775d3c89b708a9d1cbb39904b7",
      "hash": "d3c5dd85d9649795472b3f6322a856ece008892a1ad91ffbfe1b8b401426d7eb",
      "version": 1,
      "size": 236,
      "vsize": 209,
      "locktime": 0,
      "vin": [
        {
          "coinbase": "0343c314045a72bef62cfabe6d6d5082b1142a52c8edb4b07b1bfa551aa991e296fefeaddcda599ae9beb3c70e514000000000000000042f4c502f08220035640c000000",
          "sequence": 4294967295
        }
      ],
      "vout": [
        {
          "value": 25.01996088,
          "n": 0,
          "scriptPubKey": {
            "asm": "OP_DUP OP_HASH160 57757ed2ecf2052ff3126c397aca7defb9ca2cec OP_EQUALVERIFY OP_CHECKSIG",
            "hex": "76a91457757ed2ecf2052ff3126c397aca7defb9ca2cec88ac",
            "reqSigs": 1,
            "type": "pubkeyhash",
            "addresses": [
              "LTCPodGk5FwcJaRzH9yKnwicxzFUbxp6tN"
            ]
          }
        }, 
        {
          "value": 0.00000000,
          "n": 1,
          "scriptPubKey": {
            "asm": "OP_RETURN aa21a9ed33b4f8ffd27616a0a06db80b55778b095d6c79c56a5225322c434cc12fe25339",
            "hex": "6a24aa21a9ed33b4f8ffd27616a0a06db80b55778b095d6c79c56a5225322c434cc12fe25339",
            "type": "nulldata"
          }
        }
      ],
      "hex": "010000000001010000000000000000000000000000000000000000000000000000000000000000ffffffff440343c314045a72bef62cfabe6d6d5082b1142a52c8edb4b07b1bfa551aa991e296fefeaddcda599ae9beb3c70e514000000000000000042f4c502f08220035640c000000ffffffff02386e2195000000001976a91457757ed2ecf2052ff3126c397aca7defb9ca2cec88ac0000000000000000266a24aa21a9ed33b4f8ffd27616a0a06db80b55778b095d6c79c56a5225322c434cc12fe253390120000000000000000000000000000000000000000000000000000000000000000000000000"
    }, 
    {
      "txid": "96f74d3e0f51ca83854cdb1f7f20c4f039afca7088acb9d311f9d0c275ceea6b",
      "hash": "96f74d3e0f51ca83854cdb1f7f20c4f039afca7088acb9d311f9d0c275ceea6b",
      "version": 1,
      "size": 403,
      "vsize": 403,
      "locktime": 0,
      "vin": [
        {
          "txid": "222f6fae07fd76b7271d954377e0365444c1574d6ec6941bcd12d975ba3d5b7f",
          "vout": 0,
          "scriptSig": {
            "asm": "0 304402202dc229884463228abd3df31436dbef07a45f62959ab275e9358e4b464ade326a022013991ae8ca98f85ba715bbc8fb0942d9a65b91655b49c65a9dd45bbcc8a1168a[ALL] 304402202189def8d26cb14300c77957b6acc0fa4444d5737bb2706d9a113beed0d5cbe302200099469e33f930ec53b0f06465a4e6fcfd4cf3c3967858ea2e4b7de0c9996629[ALL] 522102fb33c3a8441d847d62e891f90490f673810d8ccaea81d54776e4e7e74a94061e21037ea28cf9a6f0a814710fc9d70b6a4e349c59f33cc9004a9996c49414fba521aa210311eeda21e403cd479e7ad8ee7e8bc671d3cfbdf212583e31665342547a8921bf53ae",
            "hex": "0047304402202dc229884463228abd3df31436dbef07a45f62959ab275e9358e4b464ade326a022013991ae8ca98f85ba715bbc8fb0942d9a65b91655b49c65a9dd45bbcc8a1168a0147304402202189def8d26cb14300c77957b6acc0fa4444d5737bb2706d9a113beed0d5cbe302200099469e33f930ec53b0f06465a4e6fcfd4cf3c3967858ea2e4b7de0c9996629014c69522102fb33c3a8441d847d62e891f90490f673810d8ccaea81d54776e4e7e74a94061e21037ea28cf9a6f0a814710fc9d70b6a4e349c59f33cc9004a9996c49414fba521aa210311eeda21e403cd479e7ad8ee7e8bc671d3cfbdf212583e31665342547a8921bf53ae"
          },
          "sequence": 4294967295
        }
      ],
      "vout": [
        {
          "value": 0.32724297,
          "n": 0,
          "scriptPubKey": {
            "asm": "OP_DUP OP_HASH160 f57735f7712e789ceafe62eac13ce4b494ff2e08 OP_EQUALVERIFY OP_CHECKSIG",
            "hex": "76a914f57735f7712e789ceafe62eac13ce4b494ff2e0888ac",
            "reqSigs": 1,
            "type": "pubkeyhash",
            "addresses": [
              "Lhbrd87qkQ3iDxat9gMyXhaGNDE5ike1Y4"
            ]
          }
        }, 
        {
          "value": 2.48422870,
          "n": 1,
          "scriptPubKey": {
            "asm": "OP_DUP OP_HASH160 c6080b36a136a1c7cd8b1d77a46ab2d5ba127460 OP_EQUALVERIFY OP_CHECKSIG",
            "hex": "76a914c6080b36a136a1c7cd8b1d77a46ab2d5ba12746088ac",
            "reqSigs": 1,
            "type": "pubkeyhash",
            "addresses": [
              "LdH3h66Na2UTzVWQxZaBadG7mcTfQX7Noe"
            ]
          }
        }, 
        {
          "value": 0.46277401,
          "n": 2,
          "scriptPubKey": {
            "asm": "OP_HASH160 1b68bcaed3c4b6e39edb70920d275ddca5a12700 OP_EQUAL",
            "hex": "a9141b68bcaed3c4b6e39edb70920d275ddca5a1270087",
            "reqSigs": 1,
            "type": "scripthash",
            "addresses": [
              "MAQ5wsEYXZemDY2gAZ1vb8BCDUqsxSMUyF"
            ]
          }
        }
      ],
      "hex": "01000000017f5b3dba75d912cd1b94c66e4d57c1445436e07743951d27b776fd07ae6f2f2200000000fc0047304402202dc229884463228abd3df31436dbef07a45f62959ab275e9358e4b464ade326a022013991ae8ca98f85ba715bbc8fb0942d9a65b91655b49c65a9dd45bbcc8a1168a0147304402202189def8d26cb14300c77957b6acc0fa4444d5737bb2706d9a113beed0d5cbe302200099469e33f930ec53b0f06465a4e6fcfd4cf3c3967858ea2e4b7de0c9996629014c69522102fb33c3a8441d847d62e891f90490f673810d8ccaea81d54776e4e7e74a94061e21037ea28cf9a6f0a814710fc9d70b6a4e349c59f33cc9004a9996c49414fba521aa210311eeda21e403cd479e7ad8ee7e8bc671d3cfbdf212583e31665342547a8921bf53aeffffffff034955f301000000001976a914f57735f7712e789ceafe62eac13ce4b494ff2e0888acd6a1ce0e000000001976a914c6080b36a136a1c7cd8b1d77a46ab2d5ba12746088ac1923c2020000000017a9141b68bcaed3c4b6e39edb70920d275ddca5a127008700000000"
    }, 
    {
      "txid": "da8f73e5a7ccdf6b4d9e2b0a16192b88e59dd34f8dfd1aa121d5f79f7293a20d",
      "hash": "da8f73e5a7ccdf6b4d9e2b0a16192b88e59dd34f8dfd1aa121d5f79f7293a20d",
      "version": 1,
      "size": 225,
      "vsize": 225,
      "locktime": 0,
      "vin": [
        {
          "txid": "d9d117ce747e649191ea6ddcf5730dd1aa5e7d92d3002a8030808567f1f28d0a",
          "vout": 1,
          "scriptSig": {
            "asm": "304402204381c68c903f601fb143b3f4eee4581255437651e80c4171ec42c3e2228f7be50220355bb89f76c3441149abea603c0b68241c321e0d428e8a7b091f3a4ef84756d2[ALL] 02ba43675c3db641fbcd9c4e391df27db7fa34395b30e9dd0b30f9a47ca1f149da",
            "hex": "47304402204381c68c903f601fb143b3f4eee4581255437651e80c4171ec42c3e2228f7be50220355bb89f76c3441149abea603c0b68241c321e0d428e8a7b091f3a4ef84756d2012102ba43675c3db641fbcd9c4e391df27db7fa34395b30e9dd0b30f9a47ca1f149da"
          },
          "sequence": 4294967295
        }
      ],
      "vout": [
        {
          "value": 0.76527000,
          "n": 0,
          "scriptPubKey": {
            "asm": "OP_DUP OP_HASH160 4e1951486ab3ddd0dac6087ba3b9ebebd77816b2 OP_EQUALVERIFY OP_CHECKSIG",
            "hex": "76a9144e1951486ab3ddd0dac6087ba3b9ebebd77816b288ac",
            "reqSigs": 1,
            "type": "pubkeyhash",
            "addresses": [
              "LSLuJGTUGD6fF5K2RVG7bCCmmqNL9MnKNo"
            ]
          }
        }, 
        {
          "value": 154.99098806,
          "n": 1,
          "scriptPubKey": {
            "asm": "OP_DUP OP_HASH160 fc001e0ed5122d1506df716310c778ab9c61dfa2 OP_EQUALVERIFY OP_CHECKSIG",
            "hex": "76a914fc001e0ed5122d1506df716310c778ab9c61dfa288ac",
            "reqSigs": 1,
            "type": "pubkeyhash",
            "addresses": [
              "LiCQgiGYdyBWtSshTzUYsjK65ZrHVfuV6a"
            ]
          }
        }
      ],
      "hex": "01000000010a8df2f167858030802a00d3927d5eaad10d73f5dc6dea9191647e74ce17d1d9010000006a47304402204381c68c903f601fb143b3f4eee4581255437651e80c4171ec42c3e2228f7be50220355bb89f76c3441149abea603c0b68241c321e0d428e8a7b091f3a4ef84756d2012102ba43675c3db641fbcd9c4e391df27db7fa34395b30e9dd0b30f9a47ca1f149daffffffff0298b58f04000000001976a9144e1951486ab3ddd0dac6087ba3b9ebebd77816b288acb67ad19b030000001976a914fc001e0ed5122d1506df716310c778ab9c61dfa288ac00000000"
    }, 
    {
      "txid": "2dd7c537e6d37aec1851048561aac01ee774670ec975d5684909afc1905d3770",
      "hash": "2dd7c537e6d37aec1851048561aac01ee774670ec975d5684909afc1905d3770",
      "version": 1,
      "size": 225,
      "vsize": 225,
      "locktime": 0,
      "vin": [
        {
          "txid": "687d6fb51d5b6abd4b80ad5f724dc86774d16af0627e89c61357b544e20774fe",
          "vout": 1,
          "scriptSig": {
            "asm": "3044022061473639eaff6a09cc84a831b8adac07187507fa0917b56d16be923adceaeef002202062de47eb6be78db3987f2526af8e5abad791a306a9512f2c18fa6d1e43e2a0[ALL] 03d8a888bc4dda8a521a1fccd3fedf29c4bbda1d9e8ae53c1eff53fad1cb78683b",
            "hex": "473044022061473639eaff6a09cc84a831b8adac07187507fa0917b56d16be923adceaeef002202062de47eb6be78db3987f2526af8e5abad791a306a9512f2c18fa6d1e43e2a0012103d8a888bc4dda8a521a1fccd3fedf29c4bbda1d9e8ae53c1eff53fad1cb78683b"
          },
          "sequence": 4294967295
        }
      ],
      "vout": [
        {
          "value": 21.50578000,
          "n": 0,
          "scriptPubKey": {
            "asm": "OP_DUP OP_HASH160 fd477e0c428501517d60c1535dc6799046258d3c OP_EQUALVERIFY OP_CHECKSIG",
            "hex": "76a914fd477e0c428501517d60c1535dc6799046258d3c88ac",
            "reqSigs": 1,
            "type": "pubkeyhash",
            "addresses": [
              "LiKAs87JGojzoSVX9wppDmwLv1n6VRnfwe"
            ]
          }
        }, 
        {
          "value": 134.24942072,
          "n": 1,
          "scriptPubKey": {
            "asm": "OP_DUP OP_HASH160 912c0c053d7a8e24941ff858eb357663a160b4b1 OP_EQUALVERIFY OP_CHECKSIG",
            "hex": "76a914912c0c053d7a8e24941ff858eb357663a160b4b188ac",
            "reqSigs": 1,
            "type": "pubkeyhash",
            "addresses": [
              "LYTZ1Ttrf4h2XxEPbKkwGbFnu5vRfLhWtJ"
            ]
          }
        }
      ],
      "hex": "0100000001fe7407e244b55713c6897e62f06ad17467c84d725fad804bbd6a5b1db56f7d68010000006a473044022061473639eaff6a09cc84a831b8adac07187507fa0917b56d16be923adceaeef002202062de47eb6be78db3987f2526af8e5abad791a306a9512f2c18fa6d1e43e2a0012103d8a888bc4dda8a521a1fccd3fedf29c4bbda1d9e8ae53c1eff53fad1cb78683bffffffff0250372f80000000001976a914fd477e0c428501517d60c1535dc6799046258d3c88acf85b3020030000001976a914912c0c053d7a8e24941ff858eb357663a160b4b188ac00000000"
    }, 
    {
      "txid": "a23ec2ddc73873fd872f11fca6457bff3de6e34b907b21518e48706b4070d7d1",
      "hash": "a23ec2ddc73873fd872f11fca6457bff3de6e34b907b21518e48706b4070d7d1",
      "version": 1,
      "size": 225,
      "vsize": 225,
      "locktime": 0,
      "vin": [
        {
          "txid": "6525990f5847e771403bf41abe73da3908910440f2e09cd1ebc7e3dd731cf837",
          "vout": 1,
          "scriptSig": {
            "asm": "304402205870575456bcf32dc5c7c2744198d181e6d8b3dd263a7b0c5e1b4fc0067f5cfe022052e22fba98c571e9a68990080bc626c5a00e655ffaa49121c096909969303e89[ALL] 02119e71ea7b8b15fe8479dd1907acbe4ce72ee392b843149b8fcb1d1cbba994d2",
            "hex": "47304402205870575456bcf32dc5c7c2744198d181e6d8b3dd263a7b0c5e1b4fc0067f5cfe022052e22fba98c571e9a68990080bc626c5a00e655ffaa49121c096909969303e89012102119e71ea7b8b15fe8479dd1907acbe4ce72ee392b843149b8fcb1d1cbba994d2"
          },
          "sequence": 4294967295
        }
      ],
      "vout": [
        {
          "value": 0.39900000,
          "n": 0,
          "scriptPubKey": {
            "asm": "OP_DUP OP_HASH160 5dc77dd169367c15ef0600ac1b171588293a0d60 OP_EQUALVERIFY OP_CHECKSIG",
            "hex": "76a9145dc77dd169367c15ef0600ac1b171588293a0d6088ac",
            "reqSigs": 1,
            "type": "pubkeyhash",
            "addresses": [
              "LTmp5xsGTNMfRBWn5oNtjT3Su1J6BNXQRc"
            ]
          }
        }, 
        {
          "value": 4.92500000,
          "n": 1,
          "scriptPubKey": {
            "asm": "OP_DUP OP_HASH160 73e9784200e62af27bcba56472fcffe77e8b3211 OP_EQUALVERIFY OP_CHECKSIG",
            "hex": "76a91473e9784200e62af27bcba56472fcffe77e8b321188ac",
            "reqSigs": 1,
            "type": "pubkeyhash",
            "addresses": [
              "LVnqf35TNmfbFcs4x2gp5LXLhqkV8nVX5F"
            ]
          }
        }
      ],
      "hex": "010000000137f81c73dde3c7ebd19ce0f24004910839da73be1af43b4071e747580f992565010000006a47304402205870575456bcf32dc5c7c2744198d181e6d8b3dd263a7b0c5e1b4fc0067f5cfe022052e22fba98c571e9a68990080bc626c5a00e655ffaa49121c096909969303e89012102119e71ea7b8b15fe8479dd1907acbe4ce72ee392b843149b8fcb1d1cbba994d2ffffffff0260d36002000000001976a9145dc77dd169367c15ef0600ac1b171588293a0d6088ac20f45a1d000000001976a91473e9784200e62af27bcba56472fcffe77e8b321188ac00000000"
    }, 
    {
      "txid": "d0ba1e93bfc4fb8dacd6c8cb5ac028f1c75c63eaaaf80cbdf4ea4109ae134e42",
      "hash": "d0ba1e93bfc4fb8dacd6c8cb5ac028f1c75c63eaaaf80cbdf4ea4109ae134e42",
      "version": 1,
      "size": 294,
      "vsize": 294,
      "locktime": 0,
      "vin": [
        {
          "txid": "38211a3da899fac9a29c17069bfebc59394de30cddb032693dbe4be2699a9793",
          "vout": 1,
          "scriptSig": {
            "asm": "3045022100fd3a7fea3dd45cb06025d95bcf81a61063e0286f1f68a1d1f87bd088289d14450220422e2607d3883ebb295995269a604f09e1775894ddd37d60fa68b0cb7e1ad64c[ALL] 03f7f81029d43d6ed9165be941f8594f7870973d6196d99c2101585f4b3454edde",
            "hex": "483045022100fd3a7fea3dd45cb06025d95bcf81a61063e0286f1f68a1d1f87bd088289d14450220422e2607d3883ebb295995269a604f09e1775894ddd37d60fa68b0cb7e1ad64c012103f7f81029d43d6ed9165be941f8594f7870973d6196d99c2101585f4b3454edde"
          },
          "sequence": 4294967295
        }
      ],
      "vout": [
        {
          "value": 3.68574385,
          "n": 0,
          "scriptPubKey": {
            "asm": "OP_DUP OP_HASH160 8f4bd688bf5b059a23b325875347929cf87c8638 OP_EQUALVERIFY OP_CHECKSIG",
            "hex": "76a9148f4bd688bf5b059a23b325875347929cf87c863888ac",
            "reqSigs": 1,
            "type": "pubkeyhash",
            "addresses": [
              "LYHdjxoyFpVjgvp6NYKHeSFKpDB6LBbaii"
            ]
          }
        }, 
        {
          "value": 0.21981703,
          "n": 1,
          "scriptPubKey": {
            "asm": "OP_DUP OP_HASH160 8979e04c4208875499e04602804339d504c47178 OP_EQUALVERIFY OP_CHECKSIG",
            "hex": "76a9148979e04c4208875499e04602804339d504c4717888ac",
            "reqSigs": 1,
            "type": "pubkeyhash",
            "addresses": [
              "LXkrqbeCxjtWhs2C2N2T7ySPfCAPaoHdcT"
            ]
          }
        }, 
        {
          "value": 0.14556890,
          "n": 2,
          "scriptPubKey": {
            "asm": "OP_DUP OP_HASH160 e29d254cd9f1b11ed018a844c35133aa812b36cb OP_EQUALVERIFY OP_CHECKSIG",
            "hex": "76a914e29d254cd9f1b11ed018a844c35133aa812b36cb88ac",
            "reqSigs": 1,
            "type": "pubkeyhash",
            "addresses": [
              "LftBEEy3DDcna2BRKGBRpxFq1rx6MD3n1K"
            ]
          }
        }, 
        {
          "value": 78.60807228,
          "n": 3,
          "scriptPubKey": {
            "asm": "OP_DUP OP_HASH160 36b137e9b6521a7df851d215546b3092f23f3577 OP_EQUALVERIFY OP_CHECKSIG",
            "hex": "76a91436b137e9b6521a7df851d215546b3092f23f357788ac",
            "reqSigs": 1,
            "type": "pubkeyhash",
            "addresses": [
              "LQD93vUheTA3KQTiAx8CtrnDNjxe8PVuiq"
            ]
          }
        }
      ],
      "hex": "010000000193979a69e24bbe3d6932b0dd0ce34d3959bcfe9b06179ca2c9fa99a83d1a2138010000006b483045022100fd3a7fea3dd45cb06025d95bcf81a61063e0286f1f68a1d1f87bd088289d14450220422e2607d3883ebb295995269a604f09e1775894ddd37d60fa68b0cb7e1ad64c012103f7f81029d43d6ed9165be941f8594f7870973d6196d99c2101585f4b3454eddeffffffff04b1fff715000000001976a9148f4bd688bf5b059a23b325875347929cf87c863888ac076a4f01000000001976a9148979e04c4208875499e04602804339d504c4717888acda1ede00000000001976a914e29d254cd9f1b11ed018a844c35133aa812b36cb88ac3c668ad4010000001976a91436b137e9b6521a7df851d215546b3092f23f357788ac00000000"
    }, 
    {
      "txid": "023343a1b9bb3bb15a1da01cc00be51009257ae0d80c8e4b744c23af6d049890",
      "hash": "023343a1b9bb3bb15a1da01cc00be51009257ae0d80c8e4b744c23af6d049890",
      "version": 1,
      "size": 374,
      "vsize": 374,
      "locktime": 0,
      "vin": [
        {
          "txid": "b27bf51073e563157287ecca10b6a031ec341d8a87e403c91c25b30268764cdb",
          "vout": 0,
          "scriptSig": {
            "asm": "3045022100c7d621e76de36054eb9acd1724ad8aac251679da0ee2e1d1c7437101b75814220220169346570e012061573b6f96cac645d248bd16fb84454b65a8f9769ce32e2a01[ALL] 036d22713efb9533e4fef6854d2f648ef4996bd806a0da058c5b1d88de3e51f976",
            "hex": "483045022100c7d621e76de36054eb9acd1724ad8aac251679da0ee2e1d1c7437101b75814220220169346570e012061573b6f96cac645d248bd16fb84454b65a8f9769ce32e2a010121036d22713efb9533e4fef6854d2f648ef4996bd806a0da058c5b1d88de3e51f976"
          },
          "sequence": 4294967295
        }, 
        {
          "txid": "a5a6a18615df5fa210a2d44b3cc04b676d69089e39f05e26f638049a26a84110",
          "vout": 1,
          "scriptSig": {
            "asm": "30450221008721395deb112885b9cf71ed750c5d36ac82e07678ab2f7cfcb1c10cd8de28cd0220372cdaf0737340ec053168c2be128b6e7746cf942537fb0c420a64aa7105c7ec[ALL] 0224d1b89edc8082807287dad488e4051fee62ac6643bd8b931750f937d6ab1766",
            "hex": "4830450221008721395deb112885b9cf71ed750c5d36ac82e07678ab2f7cfcb1c10cd8de28cd0220372cdaf0737340ec053168c2be128b6e7746cf942537fb0c420a64aa7105c7ec01210224d1b89edc8082807287dad488e4051fee62ac6643bd8b931750f937d6ab1766"
          },
          "sequence": 4294967295
        }
      ],
      "vout": [
        {
          "value": 2.59871591,
          "n": 0,
          "scriptPubKey": {
            "asm": "OP_DUP OP_HASH160 23f1756011057c0ff01a40dcd4c31602bfe8a7e1 OP_EQUALVERIFY OP_CHECKSIG",
            "hex": "76a91423f1756011057c0ff01a40dcd4c31602bfe8a7e188ac",
            "reqSigs": 1,
            "type": "pubkeyhash",
            "addresses": [
              "LNW1AktjYChRq2VjAaGGW7KFkRcCwyNhyc"
            ]
          }
        }, 
        {
          "value": 3.82282291,
          "n": 1,
          "scriptPubKey": {
            "asm": "OP_DUP OP_HASH160 14a6f7e6fb5ce876903ce85ce539af03cf757677 OP_EQUALVERIFY OP_CHECKSIG",
            "hex": "76a91414a6f7e6fb5ce876903ce85ce539af03cf75767788ac",
            "reqSigs": 1,
            "type": "pubkeyhash",
            "addresses": [
              "LM79oDSHbhbur34B8JVWxUUS7dkFPUaZYY"
            ]
          }
        }
      ],
      "hex": "0100000002db4c766802b3251cc903e4878a1d34ec31a0b610caec87721563e57310f57bb2000000006b483045022100c7d621e76de36054eb9acd1724ad8aac251679da0ee2e1d1c7437101b75814220220169346570e012061573b6f96cac645d248bd16fb84454b65a8f9769ce32e2a010121036d22713efb9533e4fef6854d2f648ef4996bd806a0da058c5b1d88de3e51f976ffffffff1041a8269a0438f6265ef0399e08696d674bc03c4bd4a210a25fdf1586a1a6a5010000006b4830450221008721395deb112885b9cf71ed750c5d36ac82e07678ab2f7cfcb1c10cd8de28cd0220372cdaf0737340ec053168c2be128b6e7746cf942537fb0c420a64aa7105c7ec01210224d1b89edc8082807287dad488e4051fee62ac6643bd8b931750f937d6ab1766ffffffff0267537d0f000000001976a91423f1756011057c0ff01a40dcd4c31602bfe8a7e188ac332ac916000000001976a91414a6f7e6fb5ce876903ce85ce539af03cf75767788ac00000000"
    }, 
    {
      "txid": "c43da9752bdf5a6c4d5b3d02ae8ffc8aa25c0e7c746f7721fb6217d2cfaac216",
      "hash": "c43da9752bdf5a6c4d5b3d02ae8ffc8aa25c0e7c746f7721fb6217d2cfaac216",
      "version": 1,
      "size": 373,
      "vsize": 373,
      "locktime": 1360705,
      "vin": [
        {
          "txid": "9cda4d8217f1a3eedaa8b6ecd512bcc2663b09db576584ec242d131213c6145a",
          "vout": 0,
          "scriptSig": {
            "asm": "30450221009c9e7ab34a50520839257d09eeb560e4225c7219fc1fcd02cd5cf3459136960202206ea2ccbddd8265a88c6c6489443f05ea9d2e0ae12df4b0b32f43f49c6d4e45bd[ALL] 038caf61e6d8f214d03b068642b4893a7816f4a92c21f059072c8a0a52d866eb29",
            "hex": "4830450221009c9e7ab34a50520839257d09eeb560e4225c7219fc1fcd02cd5cf3459136960202206ea2ccbddd8265a88c6c6489443f05ea9d2e0ae12df4b0b32f43f49c6d4e45bd0121038caf61e6d8f214d03b068642b4893a7816f4a92c21f059072c8a0a52d866eb29"
          },
          "sequence": 4294967294
        }, 
        {
          "txid": "5f71f76682fb90d786bb65e5417808379012b2a52fda53e8d6990b6d09934f3d",
          "vout": 0,
          "scriptSig": {
            "asm": "30440220357dd6149b08c289f2a03e1a2fc3d5a3490269c16a0e6b448b7982d9356b9336022016810cc3ac916f24d26e64f2198e735c458746ecd4073bcb45889dd0f9c1cd8e[ALL] 03440bc74fa4528c2d0cffef9ba10c7b4c21fcac291d7c8499ab258a23aaa7a32b",
            "hex": "4730440220357dd6149b08c289f2a03e1a2fc3d5a3490269c16a0e6b448b7982d9356b9336022016810cc3ac916f24d26e64f2198e735c458746ecd4073bcb45889dd0f9c1cd8e012103440bc74fa4528c2d0cffef9ba10c7b4c21fcac291d7c8499ab258a23aaa7a32b"
          },
          "sequence": 4294967294
        }
      ],
      "vout": [
        {
          "value": 1.80532315,
          "n": 0,
          "scriptPubKey": {
            "asm": "OP_DUP OP_HASH160 1516122fbffab5be7ef8cc6a727b0ce2ae7e4653 OP_EQUALVERIFY OP_CHECKSIG",
            "hex": "76a9141516122fbffab5be7ef8cc6a727b0ce2ae7e465388ac",
            "reqSigs": 1,
            "type": "pubkeyhash",
            "addresses": [
              "LM9StmHGPVD9pCHnqUtCDfV1bdJMHqJfE7"
            ]
          }
        }, 
        {
          "value": 0.01004785,
          "n": 1,
          "scriptPubKey": {
            "asm": "OP_DUP OP_HASH160 b45cef81a6fbeb1a53d49dcf14ad16bbab50f5cc OP_EQUALVERIFY OP_CHECKSIG",
            "hex": "76a914b45cef81a6fbeb1a53d49dcf14ad16bbab50f5cc88ac",
            "reqSigs": 1,
            "type": "pubkeyhash",
            "addresses": [
              "LbfdE24yoF8U6bqTGoCUnkt7ruyV7E6hQA"
            ]
          }
        }
      ],
      "hex": "01000000025a14c61312132d24ec846557db093b66c2bc12d5ecb6a8daeea3f117824dda9c000000006b4830450221009c9e7ab34a50520839257d09eeb560e4225c7219fc1fcd02cd5cf3459136960202206ea2ccbddd8265a88c6c6489443f05ea9d2e0ae12df4b0b32f43f49c6d4e45bd0121038caf61e6d8f214d03b068642b4893a7816f4a92c21f059072c8a0a52d866eb29feffffff3d4f93096d0b99d6e853da2fa5b2129037087841e565bb86d790fb8266f7715f000000006a4730440220357dd6149b08c289f2a03e1a2fc3d5a3490269c16a0e6b448b7982d9356b9336022016810cc3ac916f24d26e64f2198e735c458746ecd4073bcb45889dd0f9c1cd8e012103440bc74fa4528c2d0cffef9ba10c7b4c21fcac291d7c8499ab258a23aaa7a32bfeffffff025bb4c20a000000001976a9141516122fbffab5be7ef8cc6a727b0ce2ae7e465388acf1540f00000000001976a914b45cef81a6fbeb1a53d49dcf14ad16bbab50f5cc88ac41c31400"
    }, 
    {
      "txid": "3f17a058c87e953a2372402126b07b3d0731759d606d1b9d0147c5221ac955dc",
      "hash": "3f17a058c87e953a2372402126b07b3d0731759d606d1b9d0147c5221ac955dc",
      "version": 1,
      "size": 1031,
      "vsize": 1031,
      "locktime": 0,
      "vin": [
        {
          "txid": "f332cda5d51e99cab8bb20f7cfbe9dbb2adb1aa4b2529bb521b8b65035940982",
          "vout": 1,
          "scriptSig": {
            "asm": "3045022100ee8f81fd597e4064f02659b99a4cd1a02ddcc87c84c580b45db7b50f16b2d62f02203345182867da70409da7429d358ad395840af61162861594ccb4b8cb25ac7b29[ALL] 0328c9ae635abf580c261c44815dc1aac309e16ff26250525b7e99951369d2b8c7",
            "hex": "483045022100ee8f81fd597e4064f02659b99a4cd1a02ddcc87c84c580b45db7b50f16b2d62f02203345182867da70409da7429d358ad395840af61162861594ccb4b8cb25ac7b2901210328c9ae635abf580c261c44815dc1aac309e16ff26250525b7e99951369d2b8c7"
          },
          "sequence": 4294967295
        }, 
        {
          "txid": "eddd4f70be139237825fcae7ce65ee22229f8ee656b36c876d5bd3dc37a1c565",
          "vout": 35,
          "scriptSig": {
            "asm": "304402205751ce8aad0c9f0a9093ac81d66b00dc9906ba183914ad836b7f69d5e27b459002201d712140fd28bd402312211e138455e49ba23ae0480954460fb221f984320f49[ALL] 029b81988e29de0084673f8d66ab370e08a4d1897ac30006753b998fdd9b868fcf",
            "hex": "47304402205751ce8aad0c9f0a9093ac81d66b00dc9906ba183914ad836b7f69d5e27b459002201d712140fd28bd402312211e138455e49ba23ae0480954460fb221f984320f490121029b81988e29de0084673f8d66ab370e08a4d1897ac30006753b998fdd9b868fcf"
          },
          "sequence": 4294967295
        }, 
        {
          "txid": "1a14f93ac99088eadc7f99d656f158b818981c14e17b0f15599afc9b98c746f9",
          "vout": 2,
          "scriptSig": {
            "asm": "3044022049d97aa776ef1efeee4513ebcbe3fafd52b9edb46878e0d53d794e9125dbe65002200a24d9f54bdfe64cd12047d7685a01147933bb0bdfdc8a9deb9521cedba35706[ALL] 034f596abf43b8d29ab835fd830093d3c7885f78b3aa0f417ac319dcefb9c1e20d",
            "hex": "473044022049d97aa776ef1efeee4513ebcbe3fafd52b9edb46878e0d53d794e9125dbe65002200a24d9f54bdfe64cd12047d7685a01147933bb0bdfdc8a9deb9521cedba357060121034f596abf43b8d29ab835fd830093d3c7885f78b3aa0f417ac319dcefb9c1e20d"
          },
          "sequence": 4294967295
        }, 
        {
          "txid": "24e173c0dba4914097f7ce2d0c423a7e5cb2d302766ce32106a4e8a3db7a1c53",
          "vout": 1,
          "scriptSig": {
            "asm": "3045022100c9bfd1150c0bc930719595edcb4709a6b6007b794b849ae97c974a9ed7e129ec0220687ae4a1311582fcb26ad45e3ddf6f2199d8108de6d010734f455f3f91c725ec[ALL] 031143b2833a9bcde6b6f7e38a727df9ed85aa86aca2c78b89f52e11eb2aa2d2d8",
            "hex": "483045022100c9bfd1150c0bc930719595edcb4709a6b6007b794b849ae97c974a9ed7e129ec0220687ae4a1311582fcb26ad45e3ddf6f2199d8108de6d010734f455f3f91c725ec0121031143b2833a9bcde6b6f7e38a727df9ed85aa86aca2c78b89f52e11eb2aa2d2d8"
          },
          "sequence": 4294967295
        }, 
        {
          "txid": "7426b0d8823270d4febb2f44f97c03a298529adc18e24b1d43f63225432b2b90",
          "vout": 2,
          "scriptSig": {
            "asm": "3045022100b17512776260d06ee58383d8f0b452aa0b1a275bd2cd6940a1f367fab7de1c03022057747b8da2b179bb0403e49af3d432536e0d7988e1aea9c4810e33e0a19a94c4[ALL] 0308ee137d016665afd3ab91ef46205d9c5c33ff15e1fb3b4571a7f295a41ebdbe",
            "hex": "483045022100b17512776260d06ee58383d8f0b452aa0b1a275bd2cd6940a1f367fab7de1c03022057747b8da2b179bb0403e49af3d432536e0d7988e1aea9c4810e33e0a19a94c401210308ee137d016665afd3ab91ef46205d9c5c33ff15e1fb3b4571a7f295a41ebdbe"
          },
          "sequence": 4294967295
        }, 
        {
          "txid": "62c3401ed6ef5e6d5d29141e320ebc07c48fd568d7a251823d926f2fdeaf5b47",
          "vout": 2,
          "scriptSig": {
            "asm": "3044022076576f5bb00222c3854c735a42cb7bbf9342cef7efe22ba746a641a6b4ee9e4202206759f51e4f69525f394b9575828b8f25dd79dc65da5a88580d7433b5da130c0f[ALL] 0328c9ae635abf580c261c44815dc1aac309e16ff26250525b7e99951369d2b8c7",
            "hex": "473044022076576f5bb00222c3854c735a42cb7bbf9342cef7efe22ba746a641a6b4ee9e4202206759f51e4f69525f394b9575828b8f25dd79dc65da5a88580d7433b5da130c0f01210328c9ae635abf580c261c44815dc1aac309e16ff26250525b7e99951369d2b8c7"
          },
          "sequence": 4294967295
        }
      ],
      "vout": [
        {
          "value": 0.61002261,
          "n": 0,
          "scriptPubKey": {
            "asm": "OP_DUP OP_HASH160 0a2b241349efa1012250479651f92cce4437d364 OP_EQUALVERIFY OP_CHECKSIG",
            "hex": "76a9140a2b241349efa1012250479651f92cce4437d36488ac",
            "reqSigs": 1,
            "type": "pubkeyhash",
            "addresses": [
              "LL9ihccv6z8vdGqzgrUAYtK3vLmJL1tmEF"
            ]
          }
        }, 
        {
          "value": 3.07294693,
          "n": 1,
          "scriptPubKey": {
            "asm": "OP_DUP OP_HASH160 ace9ac21e06ca5faab9620afac15347015cfc08b OP_EQUALVERIFY OP_CHECKSIG",
            "hex": "76a914ace9ac21e06ca5faab9620afac15347015cfc08b88ac",
            "reqSigs": 1,
            "type": "pubkeyhash",
            "addresses": [
              "LazER3sMmkWaT2b8xkJswzLFsNN79PLfS8"
            ]
          }
        }, 
        {
          "value": 11.99900000,
          "n": 2,
          "scriptPubKey": {
            "asm": "OP_DUP OP_HASH160 e34189ac699e168428fe533dc1cf492119a01b4c OP_EQUALVERIFY OP_CHECKSIG",
            "hex": "76a914e34189ac699e168428fe533dc1cf492119a01b4c88ac",
            "reqSigs": 1,
            "type": "pubkeyhash",
            "addresses": [
              "LfwaAQNchB2m4b1sueEbdkhHM1zDjyp9cg"
            ]
          }
        }, 
        {
          "value": 15.16518731,
          "n": 3,
          "scriptPubKey": {
            "asm": "OP_DUP OP_HASH160 c6e3836c2f4cd8f9c53e32813ded99ac0ce001f1 OP_EQUALVERIFY OP_CHECKSIG",
            "hex": "76a914c6e3836c2f4cd8f9c53e32813ded99ac0ce001f188ac",
            "reqSigs": 1,
            "type": "pubkeyhash",
            "addresses": [
              "LdMac6qdwFnBCVXN96dvoPjzbcE36gzs64"
            ]
          }
        }
      ],
      "hex": "01000000068209943550b6b821b59b52b2a41adb2abb9dbecff720bbb8ca991ed5a5cd32f3010000006b483045022100ee8f81fd597e4064f02659b99a4cd1a02ddcc87c84c580b45db7b50f16b2d62f02203345182867da70409da7429d358ad395840af61162861594ccb4b8cb25ac7b2901210328c9ae635abf580c261c44815dc1aac309e16ff26250525b7e99951369d2b8c7ffffffff65c5a137dcd35b6d876cb356e68e9f2222ee65cee7ca5f82379213be704fdded230000006a47304402205751ce8aad0c9f0a9093ac81d66b00dc9906ba183914ad836b7f69d5e27b459002201d712140fd28bd402312211e138455e49ba23ae0480954460fb221f984320f490121029b81988e29de0084673f8d66ab370e08a4d1897ac30006753b998fdd9b868fcffffffffff946c7989bfc9a59150f7be1141c9818b858f156d6997fdcea8890c93af9141a020000006a473044022049d97aa776ef1efeee4513ebcbe3fafd52b9edb46878e0d53d794e9125dbe65002200a24d9f54bdfe64cd12047d7685a01147933bb0bdfdc8a9deb9521cedba357060121034f596abf43b8d29ab835fd830093d3c7885f78b3aa0f417ac319dcefb9c1e20dffffffff531c7adba3e8a40621e36c7602d3b25c7e3a420c2dcef7974091a4dbc073e124010000006b483045022100c9bfd1150c0bc930719595edcb4709a6b6007b794b849ae97c974a9ed7e129ec0220687ae4a1311582fcb26ad45e3ddf6f2199d8108de6d010734f455f3f91c725ec0121031143b2833a9bcde6b6f7e38a727df9ed85aa86aca2c78b89f52e11eb2aa2d2d8ffffffff902b2b432532f6431d4be218dc9a5298a2037cf9442fbbfed4703282d8b02674020000006b483045022100b17512776260d06ee58383d8f0b452aa0b1a275bd2cd6940a1f367fab7de1c03022057747b8da2b179bb0403e49af3d432536e0d7988e1aea9c4810e33e0a19a94c401210308ee137d016665afd3ab91ef46205d9c5c33ff15e1fb3b4571a7f295a41ebdbeffffffff475bafde2f6f923d8251a2d768d58fc407bc0e321e14295d6d5eefd61e40c362020000006a473044022076576f5bb00222c3854c735a42cb7bbf9342cef7efe22ba746a641a6b4ee9e4202206759f51e4f69525f394b9575828b8f25dd79dc65da5a88580d7433b5da130c0f01210328c9ae635abf580c261c44815dc1aac309e16ff26250525b7e99951369d2b8c7ffffffff0415d2a203000000001976a9140a2b241349efa1012250479651f92cce4437d36488ace5f15012000000001976a914ace9ac21e06ca5faab9620afac15347015cfc08b88ac60058547000000001976a914e34189ac699e168428fe533dc1cf492119a01b4c88ac4b3d645a000000001976a914c6e3836c2f4cd8f9c53e32813ded99ac0ce001f188ac00000000"
    }, 
    {
      "txid": "440a226e208901079b5d05761dce6d5fa54e0ac3399e42fe569e663c8e315fa4",
      "hash": "440a226e208901079b5d05761dce6d5fa54e0ac3399e42fe569e663c8e315fa4",
      "version": 2,
      "size": 223,
      "vsize": 223,
      "locktime": 1360705,
      "vin": [
        {
          "txid": "da26b94db2940925476f74fc065fc5bbbca5d9e9cecafa2a3b33710ff72f1348",
          "vout": 0,
          "scriptSig": {
            "asm": "304402201fbe8385159ed610cbba9aa0c52211e45b12850d634654e6f28a2646acd8fb0502206318de127846f7603f3c96a520358217c35c15e497b7a271de0051415dccc043[ALL] 02718f99adb3706ec4699802aefda2c08a5a2fbd5edfc3b4633359f19a7789960d",
            "hex": "47304402201fbe8385159ed610cbba9aa0c52211e45b12850d634654e6f28a2646acd8fb0502206318de127846f7603f3c96a520358217c35c15e497b7a271de0051415dccc043012102718f99adb3706ec4699802aefda2c08a5a2fbd5edfc3b4633359f19a7789960d"
          },
          "sequence": 4294967294
        }
      ],
      "vout": [
        {
          "value": 480.23979155,
          "n": 0,
          "scriptPubKey": {
            "asm": "OP_DUP OP_HASH160 aa37dd0fcc7b6a82d1557e199264378df81ee4dc OP_EQUALVERIFY OP_CHECKSIG",
            "hex": "76a914aa37dd0fcc7b6a82d1557e199264378df81ee4dc88ac",
            "reqSigs": 1,
            "type": "pubkeyhash",
            "addresses": [
              "Lajz4Hm1h235yw5t3ynisp9iGp66UoG2NY"
            ]
          }
        }, 
        {
          "value": 2.72773366,
          "n": 1,
          "scriptPubKey": {
            "asm": "OP_HASH160 54f6c79c7d37bdc52c561c41b4fb09b86e916983 OP_EQUAL",
            "hex": "a91454f6c79c7d37bdc52c561c41b4fb09b86e91698387",
            "reqSigs": 1,
            "type": "scripthash",
            "addresses": [
              "MFeQd6me3SGGpnnfYpNbd39hvR8h2VewEk"
            ]
          }
        }
      ],
      "hex": "020000000148132ff70f71333b2afacacee9d9a5bcbbc55f06fc746f47250994b24db926da000000006a47304402201fbe8385159ed610cbba9aa0c52211e45b12850d634654e6f28a2646acd8fb0502206318de127846f7603f3c96a520358217c35c15e497b7a271de0051415dccc043012102718f99adb3706ec4699802aefda2c08a5a2fbd5edfc3b4633359f19a7789960dfeffffff0293c4732e0b0000001976a914aa37dd0fcc7b6a82d1557e199264378df81ee4dc88acf63042100000000017a91454f6c79c7d37bdc52c561c41b4fb09b86e9169838741c31400"
    }, 
    {
      "txid": "0306a27bed8344141ea78c6174277bc218c932206fceadb5bf0f697a24e0102a",
      "hash": "0306a27bed8344141ea78c6174277bc218c932206fceadb5bf0f697a24e0102a",
      "version": 2,
      "size": 225,
      "vsize": 225,
      "locktime": 1360705,
      "vin": [
        {
          "txid": "3dc9cd9b7b26bbfba4c6fd0797c6b2986fa7488c9867d1c33c8ecd0ddf152edb",
          "vout": 1,
          "scriptSig": {
            "asm": "30440220633b7e907691b67f39783f423f61878e095672cb5bca96cbbead2924f187c85602200b839c5fb54c6ab14369a5496cb019c8d05fff343f0e638b6a8454f24b9046fa[ALL] 020efbf83872466b1b7b3194d1a67e24b2842499e14bc2138f15c8bf1a00711d7d",
            "hex": "4730440220633b7e907691b67f39783f423f61878e095672cb5bca96cbbead2924f187c85602200b839c5fb54c6ab14369a5496cb019c8d05fff343f0e638b6a8454f24b9046fa0121020efbf83872466b1b7b3194d1a67e24b2842499e14bc2138f15c8bf1a00711d7d"
          },
          "sequence": 4294967294
        }
      ],
      "vout": [
        {
          "value": 1.00000000,
          "n": 0,
          "scriptPubKey": {
            "asm": "OP_DUP OP_HASH160 541f4b0369b54407d8ddc75e1b3875f42a753eaf OP_EQUALVERIFY OP_CHECKSIG",
            "hex": "76a914541f4b0369b54407d8ddc75e1b3875f42a753eaf88ac",
            "reqSigs": 1,
            "type": "pubkeyhash",
            "addresses": [
              "LStkWbz24Qf5bhjAwQFtxUMhngDQvcirCS"
            ]
          }
        }, 
        {
          "value": 18.04887000,
          "n": 1,
          "scriptPubKey": {
            "asm": "OP_DUP OP_HASH160 c3add0b8465af1f4c6883f4065cac90d500bdc57 OP_EQUALVERIFY OP_CHECKSIG",
            "hex": "76a914c3add0b8465af1f4c6883f4065cac90d500bdc5788ac",
            "reqSigs": 1,
            "type": "pubkeyhash",
            "addresses": [
              "Ld4cFX5xZPRMKeDi8KtrEn6HToRSBRMWf8"
            ]
          }
        }
      ],
      "hex": "0200000001db2e15df0dcd8e3cc3d167988c48a76f98b2c69707fdc6a4fbbb267b9bcdc93d010000006a4730440220633b7e907691b67f39783f423f61878e095672cb5bca96cbbead2924f187c85602200b839c5fb54c6ab14369a5496cb019c8d05fff343f0e638b6a8454f24b9046fa0121020efbf83872466b1b7b3194d1a67e24b2842499e14bc2138f15c8bf1a00711d7dfeffffff0200e1f505000000001976a914541f4b0369b54407d8ddc75e1b3875f42a753eaf88acd863946b000000001976a914c3add0b8465af1f4c6883f4065cac90d500bdc5788ac41c31400"
    }, 
    {
      "txid": "6250c5eccfc0153e86ecc4429a605ed8cf2b6b98cdaac99cc40416ca0800721a",
      "hash": "6250c5eccfc0153e86ecc4429a605ed8cf2b6b98cdaac99cc40416ca0800721a",
      "version": 2,
      "size": 226,
      "vsize": 226,
      "locktime": 1360705,
      "vin": [
        {
          "txid": "c2670a930a98e5115b67900f3677ca6819ec7c7f123e5fb96898290e38245259",
          "vout": 1,
          "scriptSig": {
            "asm": "3045022100836b840a56cada1094a1b58811eb66bb73d8d462590d7bcad0d18555bbe3688e02205cc1ac8efb23976757f20b682de44b94e1e9217712eebafdb52d0f4141db0e8a[ALL] 0232fbb5b448ec7096d8b96232cc32e24dfbde8bb742bd96aba18716bacc0f7ffb",
            "hex": "483045022100836b840a56cada1094a1b58811eb66bb73d8d462590d7bcad0d18555bbe3688e02205cc1ac8efb23976757f20b682de44b94e1e9217712eebafdb52d0f4141db0e8a01210232fbb5b448ec7096d8b96232cc32e24dfbde8bb742bd96aba18716bacc0f7ffb"
          },
          "sequence": 4294967294
        }
      ],
      "vout": [
        {
          "value": 464.32999635,
          "n": 0,
          "scriptPubKey": {
            "asm": "OP_DUP OP_HASH160 e52fac8ccaa0395b31370dc74dc2423d6419733b OP_EQUALVERIFY OP_CHECKSIG",
            "hex": "76a914e52fac8ccaa0395b31370dc74dc2423d6419733b88ac",
            "reqSigs": 1,
            "type": "pubkeyhash",
            "addresses": [
              "Lg7n7bFgugiUGKv8Mv7KdAfdGN48XAZJJe"
            ]
          }
        }, 
        {
          "value": 0.63000000,
          "n": 1,
          "scriptPubKey": {
            "asm": "OP_DUP OP_HASH160 0b4ee683a66136627321801971d2f34a5076a4e9 OP_EQUALVERIFY OP_CHECKSIG",
            "hex": "76a9140b4ee683a66136627321801971d2f34a5076a4e988ac",
            "reqSigs": 1,
            "type": "pubkeyhash",
            "addresses": [
              "LLFkDRSkkQ7oYAgWUNa1URop3DH7bL1RTX"
            ]
          }
        }
      ],
      "hex": "0200000001595224380e299868b95f3e127f7cec1968ca77360f90675b11e5980a930a67c2010000006b483045022100836b840a56cada1094a1b58811eb66bb73d8d462590d7bcad0d18555bbe3688e02205cc1ac8efb23976757f20b682de44b94e1e9217712eebafdb52d0f4141db0e8a01210232fbb5b448ec7096d8b96232cc32e24dfbde8bb742bd96aba18716bacc0f7ffbfeffffff02d3589fcf0a0000001976a914e52fac8ccaa0395b31370dc74dc2423d6419733b88acc04dc103000000001976a9140b4ee683a66136627321801971d2f34a5076a4e988ac41c31400"
    }, 
    {
      "txid": "8d67a01c8a4b62027165cc3ca0f63f51e211a41fa9d1fe57ede80359a6293488",
      "hash": "8d67a01c8a4b62027165cc3ca0f63f51e211a41fa9d1fe57ede80359a6293488",
      "version": 1,
      "size": 226,
      "vsize": 226,
      "locktime": 0,
      "vin": [
        {
          "txid": "d1f5fe068457092460a31a83dd08969e1f6285b3f4440938a3956157e287638c",
          "vout": 0,
          "scriptSig": {
            "asm": "3045022100f7f2427d1d5ef9e96f23239b94a0244e12629031cd06cbc4e55ed2fd09bf080c022012b0cc460e1724e28a2bc425303611e0a7430e09c510d78d2fd4846d839db61d[ALL] 020d50f02758801e1338cc31bd850b8554fa75cb12d42f2d5d72e21f3828c789ed",
            "hex": "483045022100f7f2427d1d5ef9e96f23239b94a0244e12629031cd06cbc4e55ed2fd09bf080c022012b0cc460e1724e28a2bc425303611e0a7430e09c510d78d2fd4846d839db61d0121020d50f02758801e1338cc31bd850b8554fa75cb12d42f2d5d72e21f3828c789ed"
          },
          "sequence": 4294967295
        }
      ],
      "vout": [
        {
          "value": 22.56496966,
          "n": 0,
          "scriptPubKey": {
            "asm": "OP_DUP OP_HASH160 5d797e1bcfc26ab02a8f1b54d9d35a8e2d3240f2 OP_EQUALVERIFY OP_CHECKSIG",
            "hex": "76a9145d797e1bcfc26ab02a8f1b54d9d35a8e2d3240f288ac",
            "reqSigs": 1,
            "type": "pubkeyhash",
            "addresses": [
              "LTkCeWQqkD9pahZBtEfUP5Bx6ABKx1ZqQh"
            ]
          }
        }, 
        {
          "value": 10.00000000,
          "n": 1,
          "scriptPubKey": {
            "asm": "OP_DUP OP_HASH160 4eca57c1b1661ffe1f1fca56ce58a55879444ab2 OP_EQUALVERIFY OP_CHECKSIG",
            "hex": "76a9144eca57c1b1661ffe1f1fca56ce58a55879444ab288ac",
            "reqSigs": 1,
            "type": "pubkeyhash",
            "addresses": [
              "LSQZNCYtPJHo5NkE1ovn4a74qpFVvGo2Am"
            ]
          }
        }
      ],
      "hex": "01000000018c6387e2576195a3380944f4b385621f9e9608dd831aa3602409578406fef5d1000000006b483045022100f7f2427d1d5ef9e96f23239b94a0244e12629031cd06cbc4e55ed2fd09bf080c022012b0cc460e1724e28a2bc425303611e0a7430e09c510d78d2fd4846d839db61d0121020d50f02758801e1338cc31bd850b8554fa75cb12d42f2d5d72e21f3828c789edffffffff0246697f86000000001976a9145d797e1bcfc26ab02a8f1b54d9d35a8e2d3240f288ac00ca9a3b000000001976a9144eca57c1b1661ffe1f1fca56ce58a55879444ab288ac00000000"
    }, 
    {
      "txid": "4d011908feb55c809f122ac840a4a2286dde12755517a6a9c2abe272477580bf",
      "hash": "4d011908feb55c809f122ac840a4a2286dde12755517a6a9c2abe272477580bf",
      "version": 1,
      "size": 224,
      "vsize": 224,
      "locktime": 0,
      "vin": [
        {
          "txid": "d8e28dd60119fd2930903da197c9d24562960d84f109bba24bdc60106e32051c",
          "vout": 1,
          "scriptSig": {
            "asm": "3045022100c74746ba211ab9f39afaa8b77d5110b8800226482e539b2b66934ba84913c8bc022002604328dd897b9d381f43a3cc2b2106edc599232e1a960106c007bbea95a451[ALL] 0358082d5b7b50ce0218fec4a3c1fece506981e778b3831ee7d33bc79a3ae398cf",
            "hex": "483045022100c74746ba211ab9f39afaa8b77d5110b8800226482e539b2b66934ba84913c8bc022002604328dd897b9d381f43a3cc2b2106edc599232e1a960106c007bbea95a45101210358082d5b7b50ce0218fec4a3c1fece506981e778b3831ee7d33bc79a3ae398cf"
          },
          "sequence": 4294967295
        }
      ],
      "vout": [
        {
          "value": 0.00062535,
          "n": 0,
          "scriptPubKey": {
            "asm": "OP_DUP OP_HASH160 c5be778d17edc80c389fd13f1a37664f1246650e OP_EQUALVERIFY OP_CHECKSIG",
            "hex": "76a914c5be778d17edc80c389fd13f1a37664f1246650e88ac",
            "reqSigs": 1,
            "type": "pubkeyhash",
            "addresses": [
              "LdFXYt97jJARreLr2Pf5c7hfc8jyKmbqWR"
            ]
          }
        }, 
        {
          "value": 0.04320000,
          "n": 1,
          "scriptPubKey": {
            "asm": "OP_HASH160 a7a3d9286147eab8ca9771842e0d358e5815ccdd OP_EQUAL",
            "hex": "a914a7a3d9286147eab8ca9771842e0d358e5815ccdd87",
            "reqSigs": 1,
            "type": "scripthash",
            "addresses": [
              "MPBZMqsWEjAST9ySnjxPMvk1WJzyosT1vw"
            ]
          }
        }
      ],
      "hex": "01000000011c05326e1060dc4ba2bb09f1840d966245d2c997a13d903029fd1901d68de2d8010000006b483045022100c74746ba211ab9f39afaa8b77d5110b8800226482e539b2b66934ba84913c8bc022002604328dd897b9d381f43a3cc2b2106edc599232e1a960106c007bbea95a45101210358082d5b7b50ce0218fec4a3c1fece506981e778b3831ee7d33bc79a3ae398cfffffffff0247f40000000000001976a914c5be778d17edc80c389fd13f1a37664f1246650e88ac00eb41000000000017a914a7a3d9286147eab8ca9771842e0d358e5815ccdd8700000000"
    }
  ],
  "time": 1517469430,
  "mediantime": 1517468429,
  "nonce": 2404395682,
  "bits": "1a042eae",
  "difficulty": 4011378.762614286,
  "chainwork": "00000000000000000000000000000000000000000000003530ad6b3914419988",
  "previousblockhash": "1e149aea46bf314f8e4d6b599f4c0f92e8265825b74e70d808a07a7afcc465d0",
  "nextblockhash": "40226793e3688cf3e78fdbf32d6c540b6efbc13b13cc8213af691c6f1f25dec8"
}
