{
  "hash": "1cdf471adfa5cb48b3574385bc16350fcce5b148767a2fc28a9af5aaf6710226",
  "confirmations": 418,
  "strippedsize": 234,
  "size": 234,
  "weight": 936,
  "height": 1360576,
  "version": 536870912,
  "versionHex": "20000000",
  "merkleroot": "da6e5347823d97f529e0dfed6edfd7b2ff49cd80a85a86124f411ef5e6ac7b73",
  "tx": [
    {
      "txid": "da6e5347823d97f529e0dfed6edfd7b2ff49cd80a85a86124f411ef5e6ac7b73",
      "hash": "da6e5347823d97f529e0dfed6edfd7b2ff49cd80a85a86124f411ef5e6ac7b73",
      "version": 1,
      "size": 153,
      "vsize": 153,
      "locktime": 0,
      "vin": [
        {
          "coinbase": "03c0c214045a7279d82cfabe6d6d7bc608e9796ecdcad34f44a60b458b4d8c418c99940934f22a81726c562eec9e4000000000000000042f4c502f08570012c62f000000",
          "sequence": 4294967295
        }
      ],
      "vout": [
        {
          "value": 25.00000000,
          "n": 0,
          "scriptPubKey": {
            "asm": "OP_DUP OP_HASH160 57757ed2ecf2052ff3126c397aca7defb9ca2cec OP_EQUALVERIFY OP_CHECKSIG",
            "hex": "76a91457757ed2ecf2052ff3126c397aca7defb9ca2cec88ac",
            "reqSigs": 1,
            "type": "pubkeyhash",
            "addresses": [
              "LTCPodGk5FwcJaRzH9yKnwicxzFUbxp6tN"
            ]
          }
        }
      ],
      "hex": "01000000010000000000000000000000000000000000000000000000000000000000000000ffffffff4403c0c214045a7279d82cfabe6d6d7bc608e9796ecdcad34f44a60b458b4d8c418c99940934f22a81726c562eec9e4000000000000000042f4c502f08570012c62f000000ffffffff0100f90295000000001976a91457757ed2ecf2052ff3126c397aca7defb9ca2cec88ac00000000"
    }
  ],
  "time": 1517451736,
  "mediantime": 1517451137,
  "nonce": 3867171034,
  "bits": "1a042eae",
  "difficulty": 4011378.762614286,
  "chainwork": "000000000000000000000000000000000000000000000035115af22cb42cdc02",
  "previousblockhash": "4f49542711a16494cefd7d928bbe78c27f556ee248dfad536e3ad4d418d00d32",
  "nextblockhash": "8e20cca5cd55161cb542d70b1621db5e9c158df43de9af6afdbe6a45dd69d707"
}
