{
  "hash": "1cef78f0ab63d51e3fe622eefaffef02122e05cdbc8380b77daeb1923fd9ac65",
  "confirmations": 1894,
  "strippedsize": 253,
  "size": 253,
  "weight": 1012,
  "height": 1359100,
  "version": 536870912,
  "versionHex": "20000000",
  "merkleroot": "bcc1952d17849aa7862a4a52ec1e50fb504ad1346a59a20982494cb7e3350051",
  "tx": [
    {
      "txid": "bcc1952d17849aa7862a4a52ec1e50fb504ad1346a59a20982494cb7e3350051",
      "hash": "bcc1952d17849aa7862a4a52ec1e50fb504ad1346a59a20982494cb7e3350051",
      "version": 1,
      "size": 172,
      "vsize": 172,
      "locktime": 0,
      "vin": [
        {
          "coinbase": "03fcbc141a4d696e656420627920416e74506f6f6c20626a341e205a6f31abfabe6d6d344d8432b5ee45d68a9d84e160466622e5efb9dc22d1a3568085d867ea2925140400000000000000043200000000000003000000",
          "sequence": 4294967295
        }
      ],
      "vout": [
        {
          "value": 25.00000000,
          "n": 0,
          "scriptPubKey": {
            "asm": "OP_DUP OP_HASH160 0ff3ccc5e8be88afe24b5d634e5852d474dbdff1 OP_EQUALVERIFY OP_CHECKSIG",
            "hex": "76a9140ff3ccc5e8be88afe24b5d634e5852d474dbdff188ac",
            "reqSigs": 1,
            "type": "pubkeyhash",
            "addresses": [
              "LLgJTbzZMsRTCUF1NtvvL9SR1a4pVieW89"
            ]
          }
        }
      ],
      "hex": "01000000010000000000000000000000000000000000000000000000000000000000000000ffffffff5703fcbc141a4d696e656420627920416e74506f6f6c20626a341e205a6f31abfabe6d6d344d8432b5ee45d68a9d84e160466622e5efb9dc22d1a3568085d867ea2925140400000000000000043200000000000003000000ffffffff0100f90295000000001976a9140ff3ccc5e8be88afe24b5d634e5852d474dbdff188ac00000000"
    }
  ],
  "time": 1517236651,
  "mediantime": 1517235887,
  "nonce": 2704042307,
  "bits": "1a042eae",
  "difficulty": 4011378.762614286,
  "chainwork": "000000000000000000000000000000000000000000000033b07167958b338a7a",
  "previousblockhash": "d2705235cf707d65f8c38494c72ed8e6b66a82d88412132bc6ecafb7712fe742",
  "nextblockhash": "baa0072a236298eb3d0cfae98a5fa15cf9b7f5ce91412b50ea42680fb4c67037"
}
