{
  "hash": "1d10f9cbf5fc1f54c4c06f2a23db5858c40f0926da4b3e715575ad6fb7054ad6",
  "confirmations": 1696,
  "strippedsize": 234,
  "size": 234,
  "weight": 936,
  "height": 1359298,
  "version": 536870912,
  "versionHex": "20000000",
  "merkleroot": "6469bca61cec0f57ea0d9fddb3d9a9ede210ee584518f9cf1a5fc1567711a494",
  "tx": [
    {
      "txid": "6469bca61cec0f57ea0d9fddb3d9a9ede210ee584518f9cf1a5fc1567711a494",
      "hash": "6469bca61cec0f57ea0d9fddb3d9a9ede210ee584518f9cf1a5fc1567711a494",
      "version": 1,
      "size": 153,
      "vsize": 153,
      "locktime": 0,
      "vin": [
        {
          "coinbase": "03c2bd14045a6f9f7b2cfabe6d6df08513672934378a8777058d2bfbe57bacfea13d7b6002cc8d846db6dd6f9c274000000000000000042f4c502f085c00120d1f000000",
          "sequence": 4294967295
        }
      ],
      "vout": [
        {
          "value": 25.00000000,
          "n": 0,
          "scriptPubKey": {
            "asm": "OP_DUP OP_HASH160 57757ed2ecf2052ff3126c397aca7defb9ca2cec OP_EQUALVERIFY OP_CHECKSIG",
            "hex": "76a91457757ed2ecf2052ff3126c397aca7defb9ca2cec88ac",
            "reqSigs": 1,
            "type": "pubkeyhash",
            "addresses": [
              "LTCPodGk5FwcJaRzH9yKnwicxzFUbxp6tN"
            ]
          }
        }
      ],
      "hex": "01000000010000000000000000000000000000000000000000000000000000000000000000ffffffff4403c2bd14045a6f9f7b2cfabe6d6df08513672934378a8777058d2bfbe57bacfea13d7b6002cc8d846db6dd6f9c274000000000000000042f4c502f085c00120d1f000000ffffffff0100f90295000000001976a91457757ed2ecf2052ff3126c397aca7defb9ca2cec88ac00000000"
    }
  ],
  "time": 1517264763,
  "mediantime": 1517263820,
  "nonce": 2600478113,
  "bits": "1a042eae",
  "difficulty": 4011378.762614286,
  "chainwork": "000000000000000000000000000000000000000000000033dfc8edb010b2a506",
  "previousblockhash": "eae9d3b95b10c9dfebdd1f7b8a8d6d2e6e00e50d69252d61496b0d8b9debaeff",
  "nextblockhash": "703fb934508c4b7a79f33be05761f8abf669b8be42553085a9b3b4e85b8b7a97"
}
