{
  "hash": "1dd7a77c0914be2c499275fcd575966b5d2741ddc5d17ce45931d73874f9eaa2",
  "confirmations": 2915,
  "strippedsize": 253,
  "size": 253,
  "weight": 1012,
  "height": 1358080,
  "version": 536870912,
  "versionHex": "20000000",
  "merkleroot": "d2883c3bf577fe613a09b8228d16084f639a0f1274abe86cd2f581e53ce02705",
  "tx": [
    {
      "txid": "d2883c3bf577fe613a09b8228d16084f639a0f1274abe86cd2f581e53ce02705",
      "hash": "d2883c3bf577fe613a09b8228d16084f639a0f1274abe86cd2f581e53ce02705",
      "version": 1,
      "size": 172,
      "vsize": 172,
      "locktime": 0,
      "vin": [
        {
          "coinbase": "0300b9141a4d696e656420627920416e74506f6f6c20626a331f205a6ce6e7fabe6d6da20777a6af1d8693d5d6854a21001f5234a38fad926dbbf97f89c5ed53d838770400000000000000752500000000000002000000",
          "sequence": 4294967295
        }
      ],
      "vout": [
        {
          "value": 25.00000000,
          "n": 0,
          "scriptPubKey": {
            "asm": "OP_DUP OP_HASH160 0ff3ccc5e8be88afe24b5d634e5852d474dbdff1 OP_EQUALVERIFY OP_CHECKSIG",
            "hex": "76a9140ff3ccc5e8be88afe24b5d634e5852d474dbdff188ac",
            "reqSigs": 1,
            "type": "pubkeyhash",
            "addresses": [
              "LLgJTbzZMsRTCUF1NtvvL9SR1a4pVieW89"
            ]
          }
        }
      ],
      "hex": "01000000010000000000000000000000000000000000000000000000000000000000000000ffffffff570300b9141a4d696e656420627920416e74506f6f6c20626a331f205a6ce6e7fabe6d6da20777a6af1d8693d5d6854a21001f5234a38fad926dbbf97f89c5ed53d838770400000000000000752500000000000002000000ffffffff0100f90295000000001976a9140ff3ccc5e8be88afe24b5d634e5852d474dbdff188ac00000000"
    }
  ],
  "time": 1517086439,
  "mediantime": 1517085574,
  "nonce": 3284887637,
  "bits": "1a047f14",
  "difficulty": 3731199.183374282,
  "chainwork": "000000000000000000000000000000000000000000000032c84d01937c04191a",
  "previousblockhash": "6ce0182d73e46f4dfe148248b03d92739020443e9dbfbc0bb90257fd22cf9861",
  "nextblockhash": "7047fb6415f839660e7a41c55ba508a45bf006b58da6f1a926a6f631dfa6ac09"
}
