{
  "hash": "1e4491678e4c715f31f02ad0649ec4db1f73b3ecb4a052b3c5c3cb7e1e7906a1",
  "confirmations": 1410,
  "strippedsize": 253,
  "size": 253,
  "weight": 1012,
  "height": 1359584,
  "version": 536870912,
  "versionHex": "20000000",
  "merkleroot": "43b9581c035a7ef66ee17eb2123a7133d3bd9a036f788d6478beb50a6208581d",
  "tx": [
    {
      "txid": "43b9581c035a7ef66ee17eb2123a7133d3bd9a036f788d6478beb50a6208581d",
      "hash": "43b9581c035a7ef66ee17eb2123a7133d3bd9a036f788d6478beb50a6208581d",
      "version": 1,
      "size": 172,
      "vsize": 172,
      "locktime": 0,
      "vin": [
        {
          "coinbase": "03e0be141a4d696e656420627920416e74506f6f6c20626a341e205a703542fabe6d6dc5e50072ff776c48939352964c0a594f1aeb6f789342477972480bfb85fc83be0400000000000000452400000000000012000000",
          "sequence": 4294967295
        }
      ],
      "vout": [
        {
          "value": 25.00000000,
          "n": 0,
          "scriptPubKey": {
            "asm": "OP_DUP OP_HASH160 0ff3ccc5e8be88afe24b5d634e5852d474dbdff1 OP_EQUALVERIFY OP_CHECKSIG",
            "hex": "76a9140ff3ccc5e8be88afe24b5d634e5852d474dbdff188ac",
            "reqSigs": 1,
            "type": "pubkeyhash",
            "addresses": [
              "LLgJTbzZMsRTCUF1NtvvL9SR1a4pVieW89"
            ]
          }
        }
      ],
      "hex": "01000000010000000000000000000000000000000000000000000000000000000000000000ffffffff5703e0be141a4d696e656420627920416e74506f6f6c20626a341e205a703542fabe6d6dc5e50072ff776c48939352964c0a594f1aeb6f789342477972480bfb85fc83be0400000000000000452400000000000012000000ffffffff0100f90295000000001976a9140ff3ccc5e8be88afe24b5d634e5852d474dbdff188ac00000000"
    }
  ],
  "time": 1517303106,
  "mediantime": 1517302202,
  "nonce": 1737237571,
  "bits": "1a042eae",
  "difficulty": 4011378.762614286,
  "chainwork": "000000000000000000000000000000000000000000000034242ae84826dc0442",
  "previousblockhash": "b3930b87f073a0d35f7ba035c4bf55b5303767595fac42198f8fd5db9d21f3b0",
  "nextblockhash": "7539d941045d58985f90b8a2da98aee4bf40a86b6dace5d6a1c99593e2e29e94"
}
