{
  "hash": "1e7cc65819ed72713509b293c797e67a154c59d7922ab0f5a3c84a5932c946cb",
  "confirmations": 2488,
  "strippedsize": 253,
  "size": 253,
  "weight": 1012,
  "height": 1358507,
  "version": 536870912,
  "versionHex": "20000000",
  "merkleroot": "a9e4f35175ed9c0821dfce9318fb28ddd1668ce14a2e5d8b8a30507d414afd08",
  "tx": [
    {
      "txid": "a9e4f35175ed9c0821dfce9318fb28ddd1668ce14a2e5d8b8a30507d414afd08",
      "hash": "a9e4f35175ed9c0821dfce9318fb28ddd1668ce14a2e5d8b8a30507d414afd08",
      "version": 1,
      "size": 172,
      "vsize": 172,
      "locktime": 0,
      "vin": [
        {
          "coinbase": "03abba141a4d696e656420627920416e74506f6f6c20626a3242205a6de591fabe6d6d0c381cd49d5bb1db5cbfc1b16ae0d7462b1602bfc75b5e84d93556b7bc6b0df10400000000000000ed2c0000000000000e000000",
          "sequence": 4294967295
        }
      ],
      "vout": [
        {
          "value": 25.00000000,
          "n": 0,
          "scriptPubKey": {
            "asm": "OP_DUP OP_HASH160 0ff3ccc5e8be88afe24b5d634e5852d474dbdff1 OP_EQUALVERIFY OP_CHECKSIG",
            "hex": "76a9140ff3ccc5e8be88afe24b5d634e5852d474dbdff188ac",
            "reqSigs": 1,
            "type": "pubkeyhash",
            "addresses": [
              "LLgJTbzZMsRTCUF1NtvvL9SR1a4pVieW89"
            ]
          }
        }
      ],
      "hex": "01000000010000000000000000000000000000000000000000000000000000000000000000ffffffff5703abba141a4d696e656420627920416e74506f6f6c20626a3242205a6de591fabe6d6d0c381cd49d5bb1db5cbfc1b16ae0d7462b1602bfc75b5e84d93556b7bc6b0df10400000000000000ed2c0000000000000e000000ffffffff0100f90295000000001976a9140ff3ccc5e8be88afe24b5d634e5852d474dbdff188ac00000000"
    }
  ],
  "time": 1517151633,
  "mediantime": 1517150981,
  "nonce": 3585852246,
  "bits": "1a047f14",
  "difficulty": 3731199.183374282,
  "chainwork": "0000000000000000000000000000000000000000000000332744042dcba0d878",
  "previousblockhash": "c6fdd65a6efd48899a99a0f677aa99f7f37dfa9e0062300d1297851a3ae2fd3c",
  "nextblockhash": "087b4404a379dcad1cc37102e6fd42719301c52ea7ab2d2fa7b03d7a000372c2"
}
