{
  "hash": "1f2062d009f3a1bd25b6f9cfaa61fa760e64abb2932757acaa5865d5cbf0eea5",
  "confirmations": 1439,
  "strippedsize": 255,
  "size": 255,
  "weight": 1020,
  "height": 1359555,
  "version": 536870912,
  "versionHex": "20000000",
  "merkleroot": "85b5d4b646e5ba76874bb3d755aed6e4cd6de14b50f779fe7c4120c201ebf82c",
  "tx": [
    {
      "txid": "85b5d4b646e5ba76874bb3d755aed6e4cd6de14b50f779fe7c4120c201ebf82c",
      "hash": "85b5d4b646e5ba76874bb3d755aed6e4cd6de14b50f779fe7c4120c201ebf82c",
      "version": 1,
      "size": 174,
      "vsize": 174,
      "locktime": 0,
      "vin": [
        {
          "coinbase": "03c3be141c4d696e656420627920416e74506f6f6c20626a331f205a7021691001fabe6d6d434b85f67238e9b821c031bcc33c54c119128cfbaaa60628eba5776a9d8796170400000000000000413900000000000010000000",
          "sequence": 4294967295
        }
      ],
      "vout": [
        {
          "value": 25.00000000,
          "n": 0,
          "scriptPubKey": {
            "asm": "OP_DUP OP_HASH160 0ff3ccc5e8be88afe24b5d634e5852d474dbdff1 OP_EQUALVERIFY OP_CHECKSIG",
            "hex": "76a9140ff3ccc5e8be88afe24b5d634e5852d474dbdff188ac",
            "reqSigs": 1,
            "type": "pubkeyhash",
            "addresses": [
              "LLgJTbzZMsRTCUF1NtvvL9SR1a4pVieW89"
            ]
          }
        }
      ],
      "hex": "01000000010000000000000000000000000000000000000000000000000000000000000000ffffffff5903c3be141c4d696e656420627920416e74506f6f6c20626a331f205a7021691001fabe6d6d434b85f67238e9b821c031bcc33c54c119128cfbaaa60628eba5776a9d8796170400000000000000413900000000000010000000ffffffff0100f90295000000001976a9140ff3ccc5e8be88afe24b5d634e5852d474dbdff188ac00000000"
    }
  ],
  "time": 1517298025,
  "mediantime": 1517297579,
  "nonce": 3759313244,
  "bits": "1a042eae",
  "difficulty": 4011378.762614286,
  "chainwork": "0000000000000000000000000000000000000000000000341d3bd358f446d088",
  "previousblockhash": "a9a58fa4f6ce9e40c645805097a1a2ee692307f2d3195be174fda5bdce4efc19",
  "nextblockhash": "d52ea3195cdc7ad9478769a015c5c06b65aeea9a0e0ce48c2697934a20620f43"
}
