{
  "hash": "1f32cb4e6b2d3db8d5ed7c8aea1c22b06142af2f16a5cc79b76a40119466a134",
  "confirmations": 29,
  "strippedsize": 253,
  "size": 253,
  "weight": 1012,
  "height": 1360965,
  "version": 536870912,
  "versionHex": "20000000",
  "merkleroot": "a24dcfcf46676085d9c7e8c9bfb67ed8b8fecc1a41609aa50ce4828ead212a73",
  "tx": [
    {
      "txid": "a24dcfcf46676085d9c7e8c9bfb67ed8b8fecc1a41609aa50ce4828ead212a73",
      "hash": "a24dcfcf46676085d9c7e8c9bfb67ed8b8fecc1a41609aa50ce4828ead212a73",
      "version": 1,
      "size": 172,
      "vsize": 172,
      "locktime": 0,
      "vin": [
        {
          "coinbase": "0345c4141a4d696e656420627920416e74506f6f6c20626a3242205a7347f3fabe6d6d17ff2a0a84d179bffde43bd7e2d602ec6e66ef2869d3a92d065ab6ffdb90c5220400000000000000760300000000000004000000",
          "sequence": 4294967295
        }
      ],
      "vout": [
        {
          "value": 25.00000000,
          "n": 0,
          "scriptPubKey": {
            "asm": "OP_DUP OP_HASH160 0ff3ccc5e8be88afe24b5d634e5852d474dbdff1 OP_EQUALVERIFY OP_CHECKSIG",
            "hex": "76a9140ff3ccc5e8be88afe24b5d634e5852d474dbdff188ac",
            "reqSigs": 1,
            "type": "pubkeyhash",
            "addresses": [
              "LLgJTbzZMsRTCUF1NtvvL9SR1a4pVieW89"
            ]
          }
        }
      ],
      "hex": "01000000010000000000000000000000000000000000000000000000000000000000000000ffffffff570345c4141a4d696e656420627920416e74506f6f6c20626a3242205a7347f3fabe6d6d17ff2a0a84d179bffde43bd7e2d602ec6e66ef2869d3a92d065ab6ffdb90c5220400000000000000760300000000000004000000ffffffff0100f90295000000001976a9140ff3ccc5e8be88afe24b5d634e5852d474dbdff188ac00000000"
    }
  ],
  "time": 1517504499,
  "mediantime": 1517504000,
  "nonce": 3768886534,
  "bits": "1a04088e",
  "difficulty": 4159490.835685156,
  "chainwork": "0000000000000000000000000000000000000000000000356fd4b1753cdbf9a0",
  "previousblockhash": "bded381c00fd13a343ee29138b9490ab94f1941c01b85d61e3de22331f2e6e38",
  "nextblockhash": "a7341f9aa4ea9f73732fd3c87d74a0f0fe63f8832316e76c2b17d64c17c0ad41"
}
