{
  "hash": "204a64ffd2755923ccadf974a3275e4a0bfbfc7cc393ececd0f9164a6985e5b5",
  "confirmations": 3671,
  "strippedsize": 1767,
  "size": 1913,
  "weight": 7214,
  "height": 1357324,
  "version": 536870912,
  "versionHex": "20000000",
  "merkleroot": "0a360406b2aa5cea8181df01552722a610f2f6c71df430563d80b33d578c8419",
  "tx": [
    {
      "txid": "70bf86ce880586f512dcd1a954aec6c1cefc61ad35a12a9b0a046df952ef9508",
      "hash": "f794fe0c32d528a51b4a877fd03aaae43cd9f94de49864c02eeafd00af1bb381",
      "version": 1,
      "size": 236,
      "vsize": 209,
      "locktime": 0,
      "vin": [
        {
          "coinbase": "030cb614045a6b6c072cfabe6d6d45411b84130e8c0ae3ee0e11d5bb13d14a9066514e685242b02b0c71f3b6f96f4000000000000000042f4c502f08160090cf15000000",
          "sequence": 4294967295
        }
      ],
      "vout": [
        {
          "value": 25.00458600,
          "n": 0,
          "scriptPubKey": {
            "asm": "OP_DUP OP_HASH160 57757ed2ecf2052ff3126c397aca7defb9ca2cec OP_EQUALVERIFY OP_CHECKSIG",
            "hex": "76a91457757ed2ecf2052ff3126c397aca7defb9ca2cec88ac",
            "reqSigs": 1,
            "type": "pubkeyhash",
            "addresses": [
              "LTCPodGk5FwcJaRzH9yKnwicxzFUbxp6tN"
            ]
          }
        }, 
        {
          "value": 0.00000000,
          "n": 1,
          "scriptPubKey": {
            "asm": "OP_RETURN aa21a9ed9856b230fc007eff665bf0c40422e4e4aa1b3f3113fa4558f89cbc1be0da77fc",
            "hex": "6a24aa21a9ed9856b230fc007eff665bf0c40422e4e4aa1b3f3113fa4558f89cbc1be0da77fc",
            "type": "nulldata"
          }
        }
      ],
      "hex": "010000000001010000000000000000000000000000000000000000000000000000000000000000ffffffff44030cb614045a6b6c072cfabe6d6d45411b84130e8c0ae3ee0e11d5bb13d14a9066514e685242b02b0c71f3b6f96f4000000000000000042f4c502f08160090cf15000000ffffffff0268f80995000000001976a91457757ed2ecf2052ff3126c397aca7defb9ca2cec88ac0000000000000000266a24aa21a9ed9856b230fc007eff665bf0c40422e4e4aa1b3f3113fa4558f89cbc1be0da77fc0120000000000000000000000000000000000000000000000000000000000000000000000000"
    }, 
    {
      "txid": "a705d820ab86938f6bed95d4216f5e5969c10985758be9713d26ef8433977336",
      "hash": "a705d820ab86938f6bed95d4216f5e5969c10985758be9713d26ef8433977336",
      "version": 1,
      "size": 226,
      "vsize": 226,
      "locktime": 1357322,
      "vin": [
        {
          "txid": "5f2402f68ddd99dd0c0e506afecd9a7a7f9d62a3e5be02126f2030edfe1d13d7",
          "vout": 1,
          "scriptSig": {
            "asm": "304502210096d2857a0c32de32cce46dc8f8e300cc195cb830ea111c1ef99985d118dcd59202202dbb336640c9696b4dae01449aeed41e6aa29ec4b3f30c5f8f0e027b944c9c03[ALL] 02ef2c6e040ac413e766f67e5787f0e4fc164faa2636c11812889259bb7d075a24",
            "hex": "48304502210096d2857a0c32de32cce46dc8f8e300cc195cb830ea111c1ef99985d118dcd59202202dbb336640c9696b4dae01449aeed41e6aa29ec4b3f30c5f8f0e027b944c9c03012102ef2c6e040ac413e766f67e5787f0e4fc164faa2636c11812889259bb7d075a24"
          },
          "sequence": 4294967294
        }
      ],
      "vout": [
        {
          "value": 0.49425264,
          "n": 0,
          "scriptPubKey": {
            "asm": "OP_DUP OP_HASH160 afba870631e0b3779d35561de89b7a873bcf8a65 OP_EQUALVERIFY OP_CHECKSIG",
            "hex": "76a914afba870631e0b3779d35561de89b7a873bcf8a6588ac",
            "reqSigs": 1,
            "type": "pubkeyhash",
            "addresses": [
              "LbF7xwJAmifnJBWas9C3SNctPhdiZBpQj3"
            ]
          }
        }, 
        {
          "value": 79.12582966,
          "n": 1,
          "scriptPubKey": {
            "asm": "OP_DUP OP_HASH160 a14ea3868bba83bfd3572d2b0b18a1adc986fdb9 OP_EQUALVERIFY OP_CHECKSIG",
            "hex": "76a914a14ea3868bba83bfd3572d2b0b18a1adc986fdb988ac",
            "reqSigs": 1,
            "type": "pubkeyhash",
            "addresses": [
              "LZvsG1qvpehP1DTrQNYpUcAgko8niY1H3M"
            ]
          }
        }
      ],
      "hex": "0100000001d7131dfeed30206f1202bee5a3629d7f7a9acdfe6a500e0cdd99dd8df602245f010000006b48304502210096d2857a0c32de32cce46dc8f8e300cc195cb830ea111c1ef99985d118dcd59202202dbb336640c9696b4dae01449aeed41e6aa29ec4b3f30c5f8f0e027b944c9c03012102ef2c6e040ac413e766f67e5787f0e4fc164faa2636c11812889259bb7d075a24feffffff02702bf202000000001976a914afba870631e0b3779d35561de89b7a873bcf8a6588ac366fa0d7010000001976a914a14ea3868bba83bfd3572d2b0b18a1adc986fdb988ac0ab61400"
    }, 
    {
      "txid": "bf4ab6563edecb8b5029203b436ed314f8463da7be8b5bc14f366198415b49aa",
      "hash": "fb952cfc2b052a40e3d2bf8b3e58fa75293abb77ba5382d7fa5e1e9dc4185a70",
      "version": 1,
      "size": 250,
      "vsize": 168,
      "locktime": 0,
      "vin": [
        {
          "txid": "9dc844fdf02d16a36147657c8141e252a3caf3118a8177c6b671612bc957631e",
          "vout": 1,
          "scriptSig": {
            "asm": "001475d76df800f7fbd0a260ce1d2de5b3c3ddb276e8",
            "hex": "16001475d76df800f7fbd0a260ce1d2de5b3c3ddb276e8"
          },
          "txinwitness": [
            "3045022100fd76854d78c989219d1835edab9bf8acbd6ec080514c5f555ed0adb5b2aaed99022034a5239ec6baec70a43ee4375e6c138f1fa2f3da5a5f940f25f663d494eb935801", 
            "02d9bf7e36c62396e866e1e39dd184c8b3d5956a67dca54cd3d236c046e0c41aac"
          ],
          "sequence": 4294967295
        }
      ],
      "vout": [
        {
          "value": 0.01000000,
          "n": 0,
          "scriptPubKey": {
            "asm": "OP_DUP OP_HASH160 18e734ed51b60d149f911be6f0d0f2a1d16d58cb OP_EQUALVERIFY OP_CHECKSIG",
            "hex": "76a91418e734ed51b60d149f911be6f0d0f2a1d16d58cb88ac",
            "reqSigs": 1,
            "type": "pubkeyhash",
            "addresses": [
              "LMVdTLs7Wafas5PePZTUcrDzWo8q6Jx6pc"
            ]
          }
        }, 
        {
          "value": 8.23114155,
          "n": 1,
          "scriptPubKey": {
            "asm": "OP_HASH160 981d7979fc7cd5cb336fa3d0260a08ed0796912c OP_EQUAL",
            "hex": "a914981d7979fc7cd5cb336fa3d0260a08ed0796912c87",
            "reqSigs": 1,
            "type": "scripthash",
            "addresses": [
              "MMmUFWkfq5oLDpHMg5mYBUP7pq7uSCWMsi"
            ]
          }
        }
      ],
      "hex": "010000000001011e6357c92b6171b6c677818a11f3caa352e241817c654761a3162df0fd44c89d010000001716001475d76df800f7fbd0a260ce1d2de5b3c3ddb276e8ffffffff0240420f00000000001976a91418e734ed51b60d149f911be6f0d0f2a1d16d58cb88acabb90f310000000017a914981d7979fc7cd5cb336fa3d0260a08ed0796912c8702483045022100fd76854d78c989219d1835edab9bf8acbd6ec080514c5f555ed0adb5b2aaed99022034a5239ec6baec70a43ee4375e6c138f1fa2f3da5a5f940f25f663d494eb9358012102d9bf7e36c62396e866e1e39dd184c8b3d5956a67dca54cd3d236c046e0c41aac00000000"
    }, 
    {
      "txid": "1f892a564f634c2bcf4fd7c8dabecb81c9fcd100c83df5b611939756a707630d",
      "hash": "1f892a564f634c2bcf4fd7c8dabecb81c9fcd100c83df5b611939756a707630d",
      "version": 1,
      "size": 521,
      "vsize": 521,
      "locktime": 0,
      "vin": [
        {
          "txid": "1a393a8aeee22f3d04c6864c2537d4f7b92623eab31211d4a65f06fb67e1bf40",
          "vout": 0,
          "scriptSig": {
            "asm": "30450221008678580f356fcf96f4c1b75bad219ead2e246c7678a4466938c0144885dc773b02207cdb57205735268352a253f9586156bf86c6a7c0c42d971cdf3a3d7fdcb5d9ae[ALL] 020b1ff60690f4f666b49cda7b9ccf1d1de4eab8655a42a6f838e35b719139e0c5",
            "hex": "4830450221008678580f356fcf96f4c1b75bad219ead2e246c7678a4466938c0144885dc773b02207cdb57205735268352a253f9586156bf86c6a7c0c42d971cdf3a3d7fdcb5d9ae0121020b1ff60690f4f666b49cda7b9ccf1d1de4eab8655a42a6f838e35b719139e0c5"
          },
          "sequence": 4294967295
        }, 
        {
          "txid": "a0f92f9bf916328c73f54400c2f388b64d707c3b01d331c64f1a1ac72e1912c5",
          "vout": 0,
          "scriptSig": {
            "asm": "3045022100f3cd0fa190f28d3e1c6f74a9e031a7e1e8dda9e3dcd365f93d1a3edabfa2ece002203cd6ac41edfc6de24a00f73765677b68773be735f5f73a191be36e6ea4f2f0a9[ALL] 03ccf57cf7a7b5298ed4616bb93deb97df62cf43a9e2dfe1398b8fab53bf7bdfa0",
            "hex": "483045022100f3cd0fa190f28d3e1c6f74a9e031a7e1e8dda9e3dcd365f93d1a3edabfa2ece002203cd6ac41edfc6de24a00f73765677b68773be735f5f73a191be36e6ea4f2f0a9012103ccf57cf7a7b5298ed4616bb93deb97df62cf43a9e2dfe1398b8fab53bf7bdfa0"
          },
          "sequence": 4294967295
        }, 
        {
          "txid": "1aad16caeaf1c670d519a50a098f311bff93fc3c135ee99c77e61675b460b678",
          "vout": 1,
          "scriptSig": {
            "asm": "3044022027914676d619a13497e54f11eb97071dd7d87ce6c3ca3e4738ffeb3f3d857f9f0220105613e25c3bf13b420ac000247c07b624ac9336485267620716234c4247fe12[ALL] 02b35d25397806731ad89584a2d354d2b9968b74224751978c5e4a42ef26732b30",
            "hex": "473044022027914676d619a13497e54f11eb97071dd7d87ce6c3ca3e4738ffeb3f3d857f9f0220105613e25c3bf13b420ac000247c07b624ac9336485267620716234c4247fe12012102b35d25397806731ad89584a2d354d2b9968b74224751978c5e4a42ef26732b30"
          },
          "sequence": 4294967295
        }
      ],
      "vout": [
        {
          "value": 0.01418778,
          "n": 0,
          "scriptPubKey": {
            "asm": "OP_DUP OP_HASH160 554bfacc9496c0f5940c5e597308dd80e2bddece OP_EQUALVERIFY OP_CHECKSIG",
            "hex": "76a914554bfacc9496c0f5940c5e597308dd80e2bddece88ac",
            "reqSigs": 1,
            "type": "pubkeyhash",
            "addresses": [
              "LSzxigNSSofxNGAXxzhuGxtoTWEhuRQqVY"
            ]
          }
        }, 
        {
          "value": 1.00942750,
          "n": 1,
          "scriptPubKey": {
            "asm": "OP_DUP OP_HASH160 c2b6aae3037a3a66dc58bd68f9a466b1d383e2eb OP_EQUALVERIFY OP_CHECKSIG",
            "hex": "76a914c2b6aae3037a3a66dc58bd68f9a466b1d383e2eb88ac",
            "reqSigs": 1,
            "type": "pubkeyhash",
            "addresses": [
              "LcyWBPbR6U8a5f7r8yxb1wTbk9MqsP8HSr"
            ]
          }
        }
      ],
      "hex": "010000000340bfe167fb065fa6d41112b3ea2326b9f7d437254c86c6043d2fe2ee8a3a391a000000006b4830450221008678580f356fcf96f4c1b75bad219ead2e246c7678a4466938c0144885dc773b02207cdb57205735268352a253f9586156bf86c6a7c0c42d971cdf3a3d7fdcb5d9ae0121020b1ff60690f4f666b49cda7b9ccf1d1de4eab8655a42a6f838e35b719139e0c5ffffffffc512192ec71a1a4fc631d3013b7c704db688f3c20044f5738c3216f99b2ff9a0000000006b483045022100f3cd0fa190f28d3e1c6f74a9e031a7e1e8dda9e3dcd365f93d1a3edabfa2ece002203cd6ac41edfc6de24a00f73765677b68773be735f5f73a191be36e6ea4f2f0a9012103ccf57cf7a7b5298ed4616bb93deb97df62cf43a9e2dfe1398b8fab53bf7bdfa0ffffffff78b660b47516e6779ce95e133cfc93ff1b318f090aa519d570c6f1eaca16ad1a010000006a473044022027914676d619a13497e54f11eb97071dd7d87ce6c3ca3e4738ffeb3f3d857f9f0220105613e25c3bf13b420ac000247c07b624ac9336485267620716234c4247fe12012102b35d25397806731ad89584a2d354d2b9968b74224751978c5e4a42ef26732b30ffffffff021aa61500000000001976a914554bfacc9496c0f5940c5e597308dd80e2bddece88ac9e430406000000001976a914c2b6aae3037a3a66dc58bd68f9a466b1d383e2eb88ac00000000"
    }, 
    {
      "txid": "d730b0fbba6670a6d37b1dcbfd16bd189057089a0f948251e394af53036add8a",
      "hash": "d730b0fbba6670a6d37b1dcbfd16bd189057089a0f948251e394af53036add8a",
      "version": 2,
      "size": 225,
      "vsize": 225,
      "locktime": 1357322,
      "vin": [
        {
          "txid": "9984d8d281519b3a4b131aca7d0c0e2045f076b17ad8b0f83a9500bbaac7d7cc",
          "vout": 1,
          "scriptSig": {
            "asm": "30440220147ea6bc2294b3153a8ae264bd5bbc2272d862c14fddaecc2b88a2158d8e0e1e0220648d042a9a720cd12ff41f6f3b48559e070c317a15012f7614fea33b342d90c7[ALL] 03dc4978dc2f9113f08eec02658673552b87cfd5d0bfaac99331493906233d9a80",
            "hex": "4730440220147ea6bc2294b3153a8ae264bd5bbc2272d862c14fddaecc2b88a2158d8e0e1e0220648d042a9a720cd12ff41f6f3b48559e070c317a15012f7614fea33b342d90c7012103dc4978dc2f9113f08eec02658673552b87cfd5d0bfaac99331493906233d9a80"
          },
          "sequence": 4294967294
        }
      ],
      "vout": [
        {
          "value": 0.67014476,
          "n": 0,
          "scriptPubKey": {
            "asm": "OP_DUP OP_HASH160 fb79374c1e0980121ead19b555583d75cd4a7542 OP_EQUALVERIFY OP_CHECKSIG",
            "hex": "76a914fb79374c1e0980121ead19b555583d75cd4a754288ac",
            "reqSigs": 1,
            "type": "pubkeyhash",
            "addresses": [
              "Li9d5beQMTdr6UvpufMqhMyp6HLwxSj8RD"
            ]
          }
        }, 
        {
          "value": 3.32962924,
          "n": 1,
          "scriptPubKey": {
            "asm": "OP_DUP OP_HASH160 1672aeadc2879b9a66ada8c08196a3ae9b4e2b27 OP_EQUALVERIFY OP_CHECKSIG",
            "hex": "76a9141672aeadc2879b9a66ada8c08196a3ae9b4e2b2788ac",
            "reqSigs": 1,
            "type": "pubkeyhash",
            "addresses": [
              "LMGeWhfNr4nfxxkMZRgaEr3wAiWBHB1VSs"
            ]
          }
        }
      ],
      "hex": "0200000001ccd7c7aabb00953af8b0d87ab176f045200e0c7dca1a134b3a9b5181d2d88499010000006a4730440220147ea6bc2294b3153a8ae264bd5bbc2272d862c14fddaecc2b88a2158d8e0e1e0220648d042a9a720cd12ff41f6f3b48559e070c317a15012f7614fea33b342d90c7012103dc4978dc2f9113f08eec02658673552b87cfd5d0bfaac99331493906233d9a80feffffff024c8ffe03000000001976a914fb79374c1e0980121ead19b555583d75cd4a754288ac6c9cd813000000001976a9141672aeadc2879b9a66ada8c08196a3ae9b4e2b2788ac0ab61400"
    }, 
    {
      "txid": "9bf38c19810617c6087ba84958f26dd13c8f3aeded29a8889c2db0edb9c67bf4",
      "hash": "9bf38c19810617c6087ba84958f26dd13c8f3aeded29a8889c2db0edb9c67bf4",
      "version": 1,
      "size": 374,
      "vsize": 374,
      "locktime": 0,
      "vin": [
        {
          "txid": "7258e6be35de990790a4ad4722939633cccaac4382178260c4c07814f783d6bd",
          "vout": 1,
          "scriptSig": {
            "asm": "3045022100a448dfcac5d663131218ff64f377ba95af30d6e7d15b1f80aee286a05db6b466022034b272da6c0d0dbbaea0ffa2ebdedcc6e60ada11c729c8adb6e2f52bbe2d6e0c[ALL] 02a388f1a3ec71d629e1c9a378370e3a3a815c52e30ea8d9bc061963a4b9457ee7",
            "hex": "483045022100a448dfcac5d663131218ff64f377ba95af30d6e7d15b1f80aee286a05db6b466022034b272da6c0d0dbbaea0ffa2ebdedcc6e60ada11c729c8adb6e2f52bbe2d6e0c012102a388f1a3ec71d629e1c9a378370e3a3a815c52e30ea8d9bc061963a4b9457ee7"
          },
          "sequence": 4294967295
        }, 
        {
          "txid": "31eda263be96c6bda3090c46cffa6a52672bd7dbf7805f8abf322262316b8995",
          "vout": 0,
          "scriptSig": {
            "asm": "3045022100e23427bf77023ccefc3214395ba3a0345ad6151e159cd67aad2fe565a6ca834f0220763f20bd72466eb82a4b00f29c8bd27f44a4da648a30de16e215363bef00ed6e[ALL] 02a388f1a3ec71d629e1c9a378370e3a3a815c52e30ea8d9bc061963a4b9457ee7",
            "hex": "483045022100e23427bf77023ccefc3214395ba3a0345ad6151e159cd67aad2fe565a6ca834f0220763f20bd72466eb82a4b00f29c8bd27f44a4da648a30de16e215363bef00ed6e012102a388f1a3ec71d629e1c9a378370e3a3a815c52e30ea8d9bc061963a4b9457ee7"
          },
          "sequence": 4294967295
        }
      ],
      "vout": [
        {
          "value": 47.52529000,
          "n": 0,
          "scriptPubKey": {
            "asm": "OP_DUP OP_HASH160 053f685fd75261a53fdd66ccbbb9e672a3e8bdfe OP_EQUALVERIFY OP_CHECKSIG",
            "hex": "76a914053f685fd75261a53fdd66ccbbb9e672a3e8bdfe88ac",
            "reqSigs": 1,
            "type": "pubkeyhash",
            "addresses": [
              "LKhhbpMWwrUjDMC1VUmzVnGPisVX2QdrMY"
            ]
          }
        }, 
        {
          "value": 5.98617458,
          "n": 1,
          "scriptPubKey": {
            "asm": "OP_DUP OP_HASH160 9f6eceda6dea78604977ab29d288c810fafae855 OP_EQUALVERIFY OP_CHECKSIG",
            "hex": "76a9149f6eceda6dea78604977ab29d288c810fafae85588ac",
            "reqSigs": 1,
            "type": "pubkeyhash",
            "addresses": [
              "LZkxSnnmucUPvws3QZD9rXUTRSkpyFyAZW"
            ]
          }
        }
      ],
      "hex": "0100000002bdd683f71478c0c46082178243accacc3396932247ada4900799de35bee65872010000006b483045022100a448dfcac5d663131218ff64f377ba95af30d6e7d15b1f80aee286a05db6b466022034b272da6c0d0dbbaea0ffa2ebdedcc6e60ada11c729c8adb6e2f52bbe2d6e0c012102a388f1a3ec71d629e1c9a378370e3a3a815c52e30ea8d9bc061963a4b9457ee7ffffffff95896b31622232bf8a5f80f7dbd72b67526afacf460c09a3bdc696be63a2ed31000000006b483045022100e23427bf77023ccefc3214395ba3a0345ad6151e159cd67aad2fe565a6ca834f0220763f20bd72466eb82a4b00f29c8bd27f44a4da648a30de16e215363bef00ed6e012102a388f1a3ec71d629e1c9a378370e3a3a815c52e30ea8d9bc061963a4b9457ee7ffffffff0268d6451b010000001976a914053f685fd75261a53fdd66ccbbb9e672a3e8bdfe88ac722dae23000000001976a9149f6eceda6dea78604977ab29d288c810fafae85588ac00000000"
    }
  ],
  "time": 1516989447,
  "mediantime": 1516988961,
  "nonce": 3216929305,
  "bits": "1a047f14",
  "difficulty": 3731199.183374282,
  "chainwork": "000000000000000000000000000000000000000000000032202a8fda68c49c52",
  "previousblockhash": "46d6f1f16e3db606d864742dc93d31d90dad018e0410f82f3de2e4db6ae28a7c",
  "nextblockhash": "47220063365412f1e2dae56576a329b6b17751fd4d7b6132b9737dc889ccba17"
}
