{
  "hash": "20aff49870b2e71f5b430f4124ebfbb1074ea84be2dde662734c0f1b6fd68cfe",
  "confirmations": 804,
  "strippedsize": 4252,
  "size": 4288,
  "weight": 17044,
  "height": 1360190,
  "version": 536870912,
  "versionHex": "20000000",
  "merkleroot": "97db6e7bfde1a3eb9f18682ba3177d51d00184fb15b3bd087c6f6deb8d969282",
  "tx": [
    {
      "txid": "19b586297552f9b99323e5a3c94379e1844bb55ff46c2bf3fc2435d1bd515b7e",
      "hash": "a18802b067699111c5b1f28ac7420de8d13b181515416d9a29ca7e444f96a7c1",
      "version": 1,
      "size": 277,
      "vsize": 250,
      "locktime": 950101625,
      "vin": [
        {
          "coinbase": "033ec1142cfabe6d6dff9f7fd078832bd9b0688d06332ef0b4046bfa3f736ba291ab32e30cac72cb6d08000000f09f909f104d696e6564206279207879623136383300000000000000000000000000000000000000000000000000000000000000000000",
          "sequence": 36
        }
      ],
      "vout": [
        {
          "value": 25.01868600,
          "n": 0,
          "scriptPubKey": {
            "asm": "OP_DUP OP_HASH160 aa3750aa18b8a0f3f0590731e1fab934856680cf OP_EQUALVERIFY OP_CHECKSIG",
            "hex": "76a914aa3750aa18b8a0f3f0590731e1fab934856680cf88ac",
            "reqSigs": 1,
            "type": "pubkeyhash",
            "addresses": [
              "LajyQBeZaBA1NkZDeY8YT5RYYVRkXMvb2T"
            ]
          }
        }, 
        {
          "value": 0.00000000,
          "n": 1,
          "scriptPubKey": {
            "asm": "OP_RETURN aa21a9edbc5809edc120780bc77e575a23aa34434f8c1764a3c15ee1ac1769522d07a89f 0000000000000000",
            "hex": "6a24aa21a9edbc5809edc120780bc77e575a23aa34434f8c1764a3c15ee1ac1769522d07a89f080000000000000000",
            "type": "nulldata"
          }
        }
      ],
      "hex": "010000000001010000000000000000000000000000000000000000000000000000000000000000ffffffff64033ec1142cfabe6d6dff9f7fd078832bd9b0688d06332ef0b4046bfa3f736ba291ab32e30cac72cb6d08000000f09f909f104d696e65642062792078796231363833000000000000000000000000000000000000000000000000000000000000000000002400000002387c1f95000000001976a914aa3750aa18b8a0f3f0590731e1fab934856680cf88ac00000000000000002f6a24aa21a9edbc5809edc120780bc77e575a23aa34434f8c1764a3c15ee1ac1769522d07a89f080000000000000000012000000000000000000000000000000000000000000000000000000000000000007966a138"
    }, 
    {
      "txid": "4cad7d8bfce06e18d7fa55c44f1415e057ebcb06833b39ff1165cc552d96b35e",
      "hash": "4cad7d8bfce06e18d7fa55c44f1415e057ebcb06833b39ff1165cc552d96b35e",
      "version": 2,
      "size": 260,
      "vsize": 260,
      "locktime": 0,
      "vin": [
        {
          "txid": "dd13a13eecbb82248abbeaeaa9ed3260ad5643c8698c1fe424347c55a952f6aa",
          "vout": 4,
          "scriptSig": {
            "asm": "3045022100a25a5da1d499cfa964cb169c00f646055c396702d11613123fbc3ac44575b1d10220436ffb8f23aab52c5d3f7e1e058bb33b1c5aa2bcfb0c71991ab74990f928a97f[ALL] 02c4fbe46e1c4336f16e75c08d7893c3035bd3936b438db841e05993844b876639",
            "hex": "483045022100a25a5da1d499cfa964cb169c00f646055c396702d11613123fbc3ac44575b1d10220436ffb8f23aab52c5d3f7e1e058bb33b1c5aa2bcfb0c71991ab74990f928a97f012102c4fbe46e1c4336f16e75c08d7893c3035bd3936b438db841e05993844b876639"
          },
          "sequence": 4294967295
        }
      ],
      "vout": [
        {
          "value": 0.05000000,
          "n": 0,
          "scriptPubKey": {
            "asm": "OP_DUP OP_HASH160 02a653318f6c22d3502fc37902b6594f91ad52d3 OP_EQUALVERIFY OP_CHECKSIG",
            "hex": "76a91402a653318f6c22d3502fc37902b6594f91ad52d388ac",
            "reqSigs": 1,
            "type": "pubkeyhash",
            "addresses": [
              "LKTxs4MALGNTYW87wkGYz6ShwL3agzfqPH"
            ]
          }
        }, 
        {
          "value": 2.68000000,
          "n": 1,
          "scriptPubKey": {
            "asm": "OP_DUP OP_HASH160 56804eeb5deed7d472c0f6d26680fd1fb3ddaf71 OP_EQUALVERIFY OP_CHECKSIG",
            "hex": "76a91456804eeb5deed7d472c0f6d26680fd1fb3ddaf7188ac",
            "reqSigs": 1,
            "type": "pubkeyhash",
            "addresses": [
              "LT7L5j4K47hdvm6m9YGi3kpUxLvmyAWQuF"
            ]
          }
        }, 
        {
          "value": 592.25443083,
          "n": 2,
          "scriptPubKey": {
            "asm": "OP_DUP OP_HASH160 77c585fb930f7c3c0f8525c8b851ddf211ada5af OP_EQUALVERIFY OP_CHECKSIG",
            "hex": "76a91477c585fb930f7c3c0f8525c8b851ddf211ada5af88ac",
            "reqSigs": 1,
            "type": "pubkeyhash",
            "addresses": [
              "LW9FJCrUdt1iJJi13SPE3CWosCwrm5y9jV"
            ]
          }
        }
      ],
      "hex": "0200000001aaf652a9557c3424e41f8c69c84356ad6032eda9eaeabb8a2482bbec3ea113dd040000006b483045022100a25a5da1d499cfa964cb169c00f646055c396702d11613123fbc3ac44575b1d10220436ffb8f23aab52c5d3f7e1e058bb33b1c5aa2bcfb0c71991ab74990f928a97f012102c4fbe46e1c4336f16e75c08d7893c3035bd3936b438db841e05993844b876639ffffffff03404b4c00000000001976a91402a653318f6c22d3502fc37902b6594f91ad52d388ac005bf90f000000001976a91456804eeb5deed7d472c0f6d26680fd1fb3ddaf7188ac0b8b1cca0d0000001976a91477c585fb930f7c3c0f8525c8b851ddf211ada5af88ac00000000"
    }, 
    {
      "txid": "b72a701eac5f4c16b8482ef2b7088ce82b4f01ba552dad052afdbd051fb829c7",
      "hash": "b72a701eac5f4c16b8482ef2b7088ce82b4f01ba552dad052afdbd051fb829c7",
      "version": 1,
      "size": 191,
      "vsize": 191,
      "locktime": 0,
      "vin": [
        {
          "txid": "5506bdd27baf5d74bf232965bca5381e9769fca4b95774522a9b28e2c0e83fc8",
          "vout": 0,
          "scriptSig": {
            "asm": "3044022055530e488da6e470417c41668bb903c8eb3e9fb6a6a645827b8130690ef406a20220659a6960cb758501f7b8bbc47778de76c569f15f5d52d86cb27ceec22116603a[ALL] 038d9eb75d8942d9c952a6be69cd95f91ce847a1362c9d1f1d648217003d2e3a95",
            "hex": "473044022055530e488da6e470417c41668bb903c8eb3e9fb6a6a645827b8130690ef406a20220659a6960cb758501f7b8bbc47778de76c569f15f5d52d86cb27ceec22116603a0121038d9eb75d8942d9c952a6be69cd95f91ce847a1362c9d1f1d648217003d2e3a95"
          },
          "sequence": 4294967295
        }
      ],
      "vout": [
        {
          "value": 0.24932216,
          "n": 0,
          "scriptPubKey": {
            "asm": "OP_DUP OP_HASH160 36d202badd3d657362672af82511695dfb4493e5 OP_EQUALVERIFY OP_CHECKSIG",
            "hex": "76a91436d202badd3d657362672af82511695dfb4493e588ac",
            "reqSigs": 1,
            "type": "pubkeyhash",
            "addresses": [
              "LQDpLNLBu3mFKGf3hKXUW3XwYcMsRScCb9"
            ]
          }
        }
      ],
      "hex": "0100000001c83fe8c0e2289b2a527457b9a4fc69971e38a5bc652923bf745daf7bd2bd0655000000006a473044022055530e488da6e470417c41668bb903c8eb3e9fb6a6a645827b8130690ef406a20220659a6960cb758501f7b8bbc47778de76c569f15f5d52d86cb27ceec22116603a0121038d9eb75d8942d9c952a6be69cd95f91ce847a1362c9d1f1d648217003d2e3a95ffffffff01786f7c01000000001976a91436d202badd3d657362672af82511695dfb4493e588ac00000000"
    }, 
    {
      "txid": "f32e43928a3df60da4a0ba74a26777d1f00c448945144e8a48d84d7a3c7ad6df",
      "hash": "f32e43928a3df60da4a0ba74a26777d1f00c448945144e8a48d84d7a3c7ad6df",
      "version": 1,
      "size": 225,
      "vsize": 225,
      "locktime": 0,
      "vin": [
        {
          "txid": "82bb3b4b68f7202b522d3103ad1c652d53f7bb23995141c380c9dc726a078ab7",
          "vout": 1,
          "scriptSig": {
            "asm": "3044022076a509cb2a47b969a9a74909bc62556031cd66804188a725e46637956ce83981022022147e29600d76447a7191e7b6e69fa7105db4a8f31df71c9c86a0108f062368[ALL] 020958787698f961074c4b313f562c8340a0efc8f3af61d4f259d62cddfc9f624f",
            "hex": "473044022076a509cb2a47b969a9a74909bc62556031cd66804188a725e46637956ce83981022022147e29600d76447a7191e7b6e69fa7105db4a8f31df71c9c86a0108f0623680121020958787698f961074c4b313f562c8340a0efc8f3af61d4f259d62cddfc9f624f"
          },
          "sequence": 4294967295
        }
      ],
      "vout": [
        {
          "value": 3.00000000,
          "n": 0,
          "scriptPubKey": {
            "asm": "OP_DUP OP_HASH160 bc8f4121f913457ef95d2bbab30ddf6b695d4bf5 OP_EQUALVERIFY OP_CHECKSIG",
            "hex": "76a914bc8f4121f913457ef95d2bbab30ddf6b695d4bf588ac",
            "reqSigs": 1,
            "type": "pubkeyhash",
            "addresses": [
              "LcQxumZLyFQ3mWGyJskxbeZTE1ex4LYUDx"
            ]
          }
        }, 
        {
          "value": 57.11138252,
          "n": 1,
          "scriptPubKey": {
            "asm": "OP_DUP OP_HASH160 7b86bc508ebb0187a817293a7f3c8236371eb5d3 OP_EQUALVERIFY OP_CHECKSIG",
            "hex": "76a9147b86bc508ebb0187a817293a7f3c8236371eb5d388ac",
            "reqSigs": 1,
            "type": "pubkeyhash",
            "addresses": [
              "LWV6nQGmRtCX1vZN1KCEx7U2aN7hgXVVJ4"
            ]
          }
        }
      ],
      "hex": "0100000001b78a076a72dcc980c341519923bbf7532d651cad03312d522b20f7684b3bbb82010000006a473044022076a509cb2a47b969a9a74909bc62556031cd66804188a725e46637956ce83981022022147e29600d76447a7191e7b6e69fa7105db4a8f31df71c9c86a0108f0623680121020958787698f961074c4b313f562c8340a0efc8f3af61d4f259d62cddfc9f624fffffffff0200a3e111000000001976a914bc8f4121f913457ef95d2bbab30ddf6b695d4bf588accc0d6954010000001976a9147b86bc508ebb0187a817293a7f3c8236371eb5d388ac00000000"
    }, 
    {
      "txid": "e9d040db5a03795edddd77c7a2c04fc18bc11c19bf44f8d345897190c3a280cd",
      "hash": "e9d040db5a03795edddd77c7a2c04fc18bc11c19bf44f8d345897190c3a280cd",
      "version": 1,
      "size": 226,
      "vsize": 226,
      "locktime": 0,
      "vin": [
        {
          "txid": "4574a4771465e36b504742ed80a40b0d36408e78109fb3f5bc397f3635a4bfc7",
          "vout": 1,
          "scriptSig": {
            "asm": "3045022100a6828fbfd3dabcc1077360ab14fbc86b8f1b4e2ff6643d1a09c49a17b5338d3a02203491f85fbdee09d2cd4497c6b2082100cd57eb1a6b679540a179a15edfc63242[ALL] 0224fb60acdd7409089d22477f390c21ff280827ced7f274027b04d457a2dc2c82",
            "hex": "483045022100a6828fbfd3dabcc1077360ab14fbc86b8f1b4e2ff6643d1a09c49a17b5338d3a02203491f85fbdee09d2cd4497c6b2082100cd57eb1a6b679540a179a15edfc6324201210224fb60acdd7409089d22477f390c21ff280827ced7f274027b04d457a2dc2c82"
          },
          "sequence": 4294967295
        }
      ],
      "vout": [
        {
          "value": 50.00000000,
          "n": 0,
          "scriptPubKey": {
            "asm": "OP_DUP OP_HASH160 aaf2ee2b565ec9edec63c53ea3e2e3864827c53c OP_EQUALVERIFY OP_CHECKSIG",
            "hex": "76a914aaf2ee2b565ec9edec63c53ea3e2e3864827c53c88ac",
            "reqSigs": 1,
            "type": "pubkeyhash",
            "addresses": [
              "Laor9vMaicvpaSsJ9UKh295qyAYA8YcUqy"
            ]
          }
        }, 
        {
          "value": 4.47949767,
          "n": 1,
          "scriptPubKey": {
            "asm": "OP_DUP OP_HASH160 f291f4df74fb01f7d669b063b3b534ce8c6adfe1 OP_EQUALVERIFY OP_CHECKSIG",
            "hex": "76a914f291f4df74fb01f7d669b063b3b534ce8c6adfe188ac",
            "reqSigs": 1,
            "type": "pubkeyhash",
            "addresses": [
              "LhLYdsdh27duxNi5hfSazKCCvv1TwCK1JP"
            ]
          }
        }
      ],
      "hex": "0100000001c7bfa435367f39bcf5b39f10788e40360d0ba480ed4247506be3651477a47445010000006b483045022100a6828fbfd3dabcc1077360ab14fbc86b8f1b4e2ff6643d1a09c49a17b5338d3a02203491f85fbdee09d2cd4497c6b2082100cd57eb1a6b679540a179a15edfc6324201210224fb60acdd7409089d22477f390c21ff280827ced7f274027b04d457a2dc2c82ffffffff0200f2052a010000001976a914aaf2ee2b565ec9edec63c53ea3e2e3864827c53c88acc72bb31a000000001976a914f291f4df74fb01f7d669b063b3b534ce8c6adfe188ac00000000"
    }, 
    {
      "txid": "1161a0b07a2eac34de65ea20880c546d6c5a1c8a2ba6a44515593fb156c095fe",
      "hash": "1161a0b07a2eac34de65ea20880c546d6c5a1c8a2ba6a44515593fb156c095fe",
      "version": 1,
      "size": 335,
      "vsize": 335,
      "locktime": 0,
      "vin": [
        {
          "txid": "f56aedc15223f22fb3d114808006ab95ee80acd4dd08b82e6f5acde66c1d7c9c",
          "vout": 1,
          "scriptSig": {
            "asm": "0 304402205b79ed3bcda7843f350aaaff3f3ae8bf4994cf5954a4a693ff358b877aa9e3b102205b336599905a1adaf29589515e98142fab297894ba1c8d1f5d37814e9d502e5c[ALL] 304502210092ed392baed080570770c4b1a1cb4743dc7374155700be75b16c070227befd6a0220584dc05205cd4494ce77f873a8ecb74cd7bc952f479c6beeb8c942f5776cfa17[ALL] 522102a9cd673e55454d028e9226c21a019d394b06f39f4420198c0a816af6047a1e2d2103169d3c5de27a266f0c6c0b8cdbf35d9acc38006148f23f7a093d70b4fa12769352ae",
            "hex": "0047304402205b79ed3bcda7843f350aaaff3f3ae8bf4994cf5954a4a693ff358b877aa9e3b102205b336599905a1adaf29589515e98142fab297894ba1c8d1f5d37814e9d502e5c0148304502210092ed392baed080570770c4b1a1cb4743dc7374155700be75b16c070227befd6a0220584dc05205cd4494ce77f873a8ecb74cd7bc952f479c6beeb8c942f5776cfa170147522102a9cd673e55454d028e9226c21a019d394b06f39f4420198c0a816af6047a1e2d2103169d3c5de27a266f0c6c0b8cdbf35d9acc38006148f23f7a093d70b4fa12769352ae"
          },
          "sequence": 4294967295
        }
      ],
      "vout": [
        {
          "value": 0.00691000,
          "n": 0,
          "scriptPubKey": {
            "asm": "OP_DUP OP_HASH160 45cddcf3a12188f94961b765ba6b4b8b2dfcf795 OP_EQUALVERIFY OP_CHECKSIG",
            "hex": "76a91445cddcf3a12188f94961b765ba6b4b8b2dfcf79588ac",
            "reqSigs": 1,
            "type": "pubkeyhash",
            "addresses": [
              "LRb3W4t85EdBrfDoYgjER32bYZDr8mwSzs"
            ]
          }
        }, 
        {
          "value": 2.83319523,
          "n": 1,
          "scriptPubKey": {
            "asm": "OP_HASH160 2be6b8c22030e26afd6a6707429785a44cf86e54 OP_EQUAL",
            "hex": "a9142be6b8c22030e26afd6a6707429785a44cf86e5487",
            "reqSigs": 1,
            "type": "scripthash",
            "addresses": [
              "MBuHgWDNRhYegmdU7mTqTBv7SrgffDLFKz"
            ]
          }
        }
      ],
      "hex": "01000000019c7c1d6ce6cd5a6f2eb808ddd4ac80ee95ab06808014d1b32ff22352c1ed6af501000000da0047304402205b79ed3bcda7843f350aaaff3f3ae8bf4994cf5954a4a693ff358b877aa9e3b102205b336599905a1adaf29589515e98142fab297894ba1c8d1f5d37814e9d502e5c0148304502210092ed392baed080570770c4b1a1cb4743dc7374155700be75b16c070227befd6a0220584dc05205cd4494ce77f873a8ecb74cd7bc952f479c6beeb8c942f5776cfa170147522102a9cd673e55454d028e9226c21a019d394b06f39f4420198c0a816af6047a1e2d2103169d3c5de27a266f0c6c0b8cdbf35d9acc38006148f23f7a093d70b4fa12769352aeffffffff02388b0a00000000001976a91445cddcf3a12188f94961b765ba6b4b8b2dfcf79588ace31ce3100000000017a9142be6b8c22030e26afd6a6707429785a44cf86e548700000000"
    }, 
    {
      "txid": "b4d09a9725ca4f39538da5b21c27e01b74254c01ec8c902cf061633fd0996964",
      "hash": "b4d09a9725ca4f39538da5b21c27e01b74254c01ec8c902cf061633fd0996964",
      "version": 1,
      "size": 223,
      "vsize": 223,
      "locktime": 0,
      "vin": [
        {
          "txid": "05070732dfe4e0f418a7149f28c121e4f3086456496ab39023a2f95b206e8fbe",
          "vout": 0,
          "scriptSig": {
            "asm": "3044022067d8f1066fc9987a0200521dd84dd4fbafb2136b7c8e806483fac498639d230002207d9db0363bff4a786270e6e9206289ce321d29bb10a376ba71ea3ac51ced858f[ALL] 0211ddf3e5410821779e7e1a51dd9116fc03d8e673f240676e57ecbd142eece4e7",
            "hex": "473044022067d8f1066fc9987a0200521dd84dd4fbafb2136b7c8e806483fac498639d230002207d9db0363bff4a786270e6e9206289ce321d29bb10a376ba71ea3ac51ced858f01210211ddf3e5410821779e7e1a51dd9116fc03d8e673f240676e57ecbd142eece4e7"
          },
          "sequence": 4294967295
        }
      ],
      "vout": [
        {
          "value": 27.65917146,
          "n": 0,
          "scriptPubKey": {
            "asm": "OP_DUP OP_HASH160 c7845895cb4c0c79f6bda3670e1a4f87aad37603 OP_EQUALVERIFY OP_CHECKSIG",
            "hex": "76a914c7845895cb4c0c79f6bda3670e1a4f87aad3760388ac",
            "reqSigs": 1,
            "type": "pubkeyhash",
            "addresses": [
              "LdQuGx7XuynVM3oXE8Gi2V5uoNM263H1nf"
            ]
          }
        }, 
        {
          "value": 0.70000000,
          "n": 1,
          "scriptPubKey": {
            "asm": "OP_HASH160 f60d284852e3d43cd8169a78ae12869e4036a743 OP_EQUAL",
            "hex": "a914f60d284852e3d43cd8169a78ae12869e4036a74387",
            "reqSigs": 1,
            "type": "scripthash",
            "addresses": [
              "MWLADouA4Lh4YntpZvkUEMMFUVYVQkSrNe"
            ]
          }
        }
      ],
      "hex": "0100000001be8f6e205bf9a22390b36a49566408f3e421c1289f14a718f4e0e4df32070705000000006a473044022067d8f1066fc9987a0200521dd84dd4fbafb2136b7c8e806483fac498639d230002207d9db0363bff4a786270e6e9206289ce321d29bb10a376ba71ea3ac51ced858f01210211ddf3e5410821779e7e1a51dd9116fc03d8e673f240676e57ecbd142eece4e7ffffffff02da8bdca4000000001976a914c7845895cb4c0c79f6bda3670e1a4f87aad3760388ac801d2c040000000017a914f60d284852e3d43cd8169a78ae12869e4036a7438700000000"
    }, 
    {
      "txid": "b52d41179698adb4ff138c2d74dcbdbf884399c6b59341106cbae950761cdb01",
      "hash": "b52d41179698adb4ff138c2d74dcbdbf884399c6b59341106cbae950761cdb01",
      "version": 1,
      "size": 225,
      "vsize": 225,
      "locktime": 0,
      "vin": [
        {
          "txid": "4e6714801e2f41132b8f1546271e748932573c6f83693cdca6af8166b65c6b4a",
          "vout": 1,
          "scriptSig": {
            "asm": "304402203019ebaec80ca753375cc7d779ce3495dd33c7a65a8a28f72229fc361504070502201761fe380509238f72804a304195f2048e800f30dd05811fc6a72e09787a8f06[ALL] 021378a41c25c6f1bf38078764eaacca7f246909c0d2f36b09daf8627ac456f2b7",
            "hex": "47304402203019ebaec80ca753375cc7d779ce3495dd33c7a65a8a28f72229fc361504070502201761fe380509238f72804a304195f2048e800f30dd05811fc6a72e09787a8f060121021378a41c25c6f1bf38078764eaacca7f246909c0d2f36b09daf8627ac456f2b7"
          },
          "sequence": 4294967295
        }
      ],
      "vout": [
        {
          "value": 31.74221247,
          "n": 0,
          "scriptPubKey": {
            "asm": "OP_DUP OP_HASH160 2538a51f0d250ca7fa641291654f5aa25937b850 OP_EQUALVERIFY OP_CHECKSIG",
            "hex": "76a9142538a51f0d250ca7fa641291654f5aa25937b85088ac",
            "reqSigs": 1,
            "type": "pubkeyhash",
            "addresses": [
              "LNcm85HWHmkKSjxgbRTL7ERTXfoYaAbqHq"
            ]
          }
        }, 
        {
          "value": 1.10808877,
          "n": 1,
          "scriptPubKey": {
            "asm": "OP_DUP OP_HASH160 ef32c0532565d008fce4b091fae2d0d218fff155 OP_EQUALVERIFY OP_CHECKSIG",
            "hex": "76a914ef32c0532565d008fce4b091fae2d0d218fff15588ac",
            "reqSigs": 1,
            "type": "pubkeyhash",
            "addresses": [
              "Lh2iZKYFr5TFDWsHd6tXcbRWa21mhJJACm"
            ]
          }
        }
      ],
      "hex": "01000000014a6b5cb66681afa6dc3c69836f3c573289741e2746158f2b13412f1e8014674e010000006a47304402203019ebaec80ca753375cc7d779ce3495dd33c7a65a8a28f72229fc361504070502201761fe380509238f72804a304195f2048e800f30dd05811fc6a72e09787a8f060121021378a41c25c6f1bf38078764eaacca7f246909c0d2f36b09daf8627ac456f2b7ffffffff02bfc532bd000000001976a9142538a51f0d250ca7fa641291654f5aa25937b85088ac2dcf9a06000000001976a914ef32c0532565d008fce4b091fae2d0d218fff15588ac00000000"
    }, 
    {
      "txid": "6f50ccb5f01fb21f9261a6b4c45dae16412634a46ee1955afb6a71c70f725906",
      "hash": "6f50ccb5f01fb21f9261a6b4c45dae16412634a46ee1955afb6a71c70f725906",
      "version": 1,
      "size": 225,
      "vsize": 225,
      "locktime": 0,
      "vin": [
        {
          "txid": "9ccbcb65b50586dcc2fec1ceda44b43aa3f62a685b0f93092d8c2ea420637434",
          "vout": 1,
          "scriptSig": {
            "asm": "304402207870b2066d846a4b8b96b434fb272b4b9c412e9099379890815abdcdde0b7552022055c727bbe7483c2ffa0944fa0cf901065f12e1826dcd5fad35ebbd8057fc98be[ALL] 03dfc5ad696b7134b4da31ce3ee2a5d975f308699f52a549419222d4a7e5cf027d",
            "hex": "47304402207870b2066d846a4b8b96b434fb272b4b9c412e9099379890815abdcdde0b7552022055c727bbe7483c2ffa0944fa0cf901065f12e1826dcd5fad35ebbd8057fc98be012103dfc5ad696b7134b4da31ce3ee2a5d975f308699f52a549419222d4a7e5cf027d"
          },
          "sequence": 4294967295
        }
      ],
      "vout": [
        {
          "value": 32.99436709,
          "n": 0,
          "scriptPubKey": {
            "asm": "OP_DUP OP_HASH160 8533a5f0fa58608294acd28d13d72bf94305e185 OP_EQUALVERIFY OP_CHECKSIG",
            "hex": "76a9148533a5f0fa58608294acd28d13d72bf94305e18588ac",
            "reqSigs": 1,
            "type": "pubkeyhash",
            "addresses": [
              "LXNG1Jkc6MpfvwTKDeDFfSwDAvyd2VmGu4"
            ]
          }
        }, 
        {
          "value": 6.21984703,
          "n": 1,
          "scriptPubKey": {
            "asm": "OP_DUP OP_HASH160 c6b551b4da376451bfdcd6e15825fe3021689bf1 OP_EQUALVERIFY OP_CHECKSIG",
            "hex": "76a914c6b551b4da376451bfdcd6e15825fe3021689bf188ac",
            "reqSigs": 1,
            "type": "pubkeyhash",
            "addresses": [
              "LdLdGUKs5T9KhdJPUhDeBXU3pXAHPTVbpX"
            ]
          }
        }
      ],
      "hex": "010000000134746320a42e8c2d09930f5b682af6a33ab444dacec1fec2dc8605b565cbcb9c010000006a47304402207870b2066d846a4b8b96b434fb272b4b9c412e9099379890815abdcdde0b7552022055c727bbe7483c2ffa0944fa0cf901065f12e1826dcd5fad35ebbd8057fc98be012103dfc5ad696b7134b4da31ce3ee2a5d975f308699f52a549419222d4a7e5cf027dffffffff02a568a9c4000000001976a9148533a5f0fa58608294acd28d13d72bf94305e18588acbfbb1225000000001976a914c6b551b4da376451bfdcd6e15825fe3021689bf188ac00000000"
    }, 
    {
      "txid": "e07067e3f791331a38c7a6f4a02f269c8d9afbad473f37f0664586fe31f30239",
      "hash": "e07067e3f791331a38c7a6f4a02f269c8d9afbad473f37f0664586fe31f30239",
      "version": 1,
      "size": 225,
      "vsize": 225,
      "locktime": 0,
      "vin": [
        {
          "txid": "9f5d9a4055929a1bf9b8d9909b0ed340b6b9f59e4c80b8f7499a4c2b0c641fa5",
          "vout": 1,
          "scriptSig": {
            "asm": "304402202c29ee0ceee2b9319a2d6e0ea76c4d31cd1e95020e04a64e9374a65799e009f7022012ec6fea28e20b72b82ae67dd3d8202b2ecaabab0cc8d972f31c75c47af5e923[ALL] 038d36c525dbcac010c40f03525acc0c4a09c42f3f79202c035591d8af379a3615",
            "hex": "47304402202c29ee0ceee2b9319a2d6e0ea76c4d31cd1e95020e04a64e9374a65799e009f7022012ec6fea28e20b72b82ae67dd3d8202b2ecaabab0cc8d972f31c75c47af5e9230121038d36c525dbcac010c40f03525acc0c4a09c42f3f79202c035591d8af379a3615"
          },
          "sequence": 4294967295
        }
      ],
      "vout": [
        {
          "value": 2.84905296,
          "n": 0,
          "scriptPubKey": {
            "asm": "OP_DUP OP_HASH160 b1bf6ffd3bee2ac38c911d3b42cc011abd5e93df OP_EQUALVERIFY OP_CHECKSIG",
            "hex": "76a914b1bf6ffd3bee2ac38c911d3b42cc011abd5e93df88ac",
            "reqSigs": 1,
            "type": "pubkeyhash",
            "addresses": [
              "LbRoCUVKbpg3JNfBmLvFfUoStab6jjKMgi"
            ]
          }
        }, 
        {
          "value": 38.13443001,
          "n": 1,
          "scriptPubKey": {
            "asm": "OP_DUP OP_HASH160 59cf5d52cf5f8fc88aa0030883ab16d4ae2299ae OP_EQUALVERIFY OP_CHECKSIG",
            "hex": "76a91459cf5d52cf5f8fc88aa0030883ab16d4ae2299ae88ac",
            "reqSigs": 1,
            "type": "pubkeyhash",
            "addresses": [
              "LTQppE8APAVXaTj3TMVic65MhVDGmewdS4"
            ]
          }
        }
      ],
      "hex": "0100000001a51f640c2b4c9a49f7b8804c9ef5b9b640d30e9b90d9b8f91b9a9255409a5d9f010000006a47304402202c29ee0ceee2b9319a2d6e0ea76c4d31cd1e95020e04a64e9374a65799e009f7022012ec6fea28e20b72b82ae67dd3d8202b2ecaabab0cc8d972f31c75c47af5e9230121038d36c525dbcac010c40f03525acc0c4a09c42f3f79202c035591d8af379a3615ffffffff02504ffb10000000001976a914b1bf6ffd3bee2ac38c911d3b42cc011abd5e93df88acb9854ce3000000001976a91459cf5d52cf5f8fc88aa0030883ab16d4ae2299ae88ac00000000"
    }, 
    {
      "txid": "8f548ddd532dcb14e8176c2105111e59f312190f4f58f68b2472e0a39fa67e5e",
      "hash": "8f548ddd532dcb14e8176c2105111e59f312190f4f58f68b2472e0a39fa67e5e",
      "version": 1,
      "size": 225,
      "vsize": 225,
      "locktime": 0,
      "vin": [
        {
          "txid": "f25cbe75599a27431af9a4cf98d3e7b0fb5a2a0e0f20ad9e72744be81a34c924",
          "vout": 0,
          "scriptSig": {
            "asm": "30440220404612c41769d8e581c52b4c3b1e3e7550100a091f0cfecacc8bd5a6742528910220299f4e80d1de69b75befc867cd8ccb55a1bdc6067e6ebb8ad4fc42362d8610d2[ALL] 02d70caf3bb98ec3bb529740f419b7bd7fc5eb0211ded5632ed84672cc9e31f24c",
            "hex": "4730440220404612c41769d8e581c52b4c3b1e3e7550100a091f0cfecacc8bd5a6742528910220299f4e80d1de69b75befc867cd8ccb55a1bdc6067e6ebb8ad4fc42362d8610d2012102d70caf3bb98ec3bb529740f419b7bd7fc5eb0211ded5632ed84672cc9e31f24c"
          },
          "sequence": 4294967295
        }
      ],
      "vout": [
        {
          "value": 29.14718709,
          "n": 0,
          "scriptPubKey": {
            "asm": "OP_DUP OP_HASH160 a8c77aafd5cbaca7a822bc084777f217ef25d91f OP_EQUALVERIFY OP_CHECKSIG",
            "hex": "76a914a8c77aafd5cbaca7a822bc084777f217ef25d91f88ac",
            "reqSigs": 1,
            "type": "pubkeyhash",
            "addresses": [
              "LacNkW3FfX9EMRwRmrmLSB9aAWACekdQrs"
            ]
          }
        }, 
        {
          "value": 3.00000000,
          "n": 1,
          "scriptPubKey": {
            "asm": "OP_DUP OP_HASH160 70351e23cb03b583d33c94d6a5674e9999cb2119 OP_EQUALVERIFY OP_CHECKSIG",
            "hex": "76a91470351e23cb03b583d33c94d6a5674e9999cb211988ac",
            "reqSigs": 1,
            "type": "pubkeyhash",
            "addresses": [
              "LVTFaPABcMPeYXGNwCyVcG1Vny9tTFgfSm"
            ]
          }
        }
      ],
      "hex": "010000000124c9341ae84b74729ead200f0e2a5afbb0e7d398cfa4f91a43279a5975be5cf2000000006a4730440220404612c41769d8e581c52b4c3b1e3e7550100a091f0cfecacc8bd5a6742528910220299f4e80d1de69b75befc867cd8ccb55a1bdc6067e6ebb8ad4fc42362d8610d2012102d70caf3bb98ec3bb529740f419b7bd7fc5eb0211ded5632ed84672cc9e31f24cffffffff02f513bbad000000001976a914a8c77aafd5cbaca7a822bc084777f217ef25d91f88ac00a3e111000000001976a91470351e23cb03b583d33c94d6a5674e9999cb211988ac00000000"
    }, 
    {
      "txid": "988653889ead7c0cf5660fbad785e1d50d878b6cc764d947e037cb442cf5b181",
      "hash": "988653889ead7c0cf5660fbad785e1d50d878b6cc764d947e037cb442cf5b181",
      "version": 2,
      "size": 373,
      "vsize": 373,
      "locktime": 1360188,
      "vin": [
        {
          "txid": "b7cacf96adb8f7e7bfd2e99da4a1dbf6eb1d00d0fce20097aa8599b4572b0088",
          "vout": 0,
          "scriptSig": {
            "asm": "3045022100aa1ae104bacc2414722b4163bfb930d6cb33a38c687a57881cf4d72667117cb202202cf6818cdd1df916d9aa5bd32398e137f0b74a4966180e27eed9ad76e63a417a[ALL] 034a39c8aebd96d219644e2cd596f4536894ef79aa63da66b7029852e025590136",
            "hex": "483045022100aa1ae104bacc2414722b4163bfb930d6cb33a38c687a57881cf4d72667117cb202202cf6818cdd1df916d9aa5bd32398e137f0b74a4966180e27eed9ad76e63a417a0121034a39c8aebd96d219644e2cd596f4536894ef79aa63da66b7029852e025590136"
          },
          "sequence": 4294967294
        }, 
        {
          "txid": "f87433e6515d2bf7f6cacf9eedaa9226e66b4d3676fd21c9ee6b4e2f7e466a96",
          "vout": 0,
          "scriptSig": {
            "asm": "30440220033c627aced84aa5413ad5246388cd06b9017c4c4d14e2f92610d07cd3e08b55022067b34ff3b57648fe84dd8b50d24453bbc4b981c5cba7a7ac57c11e3882b161ed[ALL] 0256d8fd871fb1a2486e60842951dea258af08ec8e56e49ebdb79157d450e95899",
            "hex": "4730440220033c627aced84aa5413ad5246388cd06b9017c4c4d14e2f92610d07cd3e08b55022067b34ff3b57648fe84dd8b50d24453bbc4b981c5cba7a7ac57c11e3882b161ed01210256d8fd871fb1a2486e60842951dea258af08ec8e56e49ebdb79157d450e95899"
          },
          "sequence": 4294967294
        }
      ],
      "vout": [
        {
          "value": 0.01950852,
          "n": 0,
          "scriptPubKey": {
            "asm": "OP_DUP OP_HASH160 4be89995d61392613c46291e2c8a9704879c5d1b OP_EQUALVERIFY OP_CHECKSIG",
            "hex": "76a9144be89995d61392613c46291e2c8a9704879c5d1b88ac",
            "reqSigs": 1,
            "type": "pubkeyhash",
            "addresses": [
              "LS9KavkogqDSAY3FbJBTQY2vAeZYN8n5rn"
            ]
          }
        }, 
        {
          "value": 0.01419970,
          "n": 1,
          "scriptPubKey": {
            "asm": "OP_DUP OP_HASH160 db7ee602436a84a2161a8665e97177f29e5ba09a OP_EQUALVERIFY OP_CHECKSIG",
            "hex": "76a914db7ee602436a84a2161a8665e97177f29e5ba09a88ac",
            "reqSigs": 1,
            "type": "pubkeyhash",
            "addresses": [
              "LfEYGHSbBZPdf69B6Y2QPPuD2yBNvV8WPZ"
            ]
          }
        }
      ],
      "hex": "020000000288002b57b49985aa9700e2fcd0001debf6dba1a49de9d2bfe7f7b8ad96cfcab7000000006b483045022100aa1ae104bacc2414722b4163bfb930d6cb33a38c687a57881cf4d72667117cb202202cf6818cdd1df916d9aa5bd32398e137f0b74a4966180e27eed9ad76e63a417a0121034a39c8aebd96d219644e2cd596f4536894ef79aa63da66b7029852e025590136feffffff966a467e2f4e6beec921fd76364d6be62692aaed9ecfcaf6f72b5d51e63374f8000000006a4730440220033c627aced84aa5413ad5246388cd06b9017c4c4d14e2f92610d07cd3e08b55022067b34ff3b57648fe84dd8b50d24453bbc4b981c5cba7a7ac57c11e3882b161ed01210256d8fd871fb1a2486e60842951dea258af08ec8e56e49ebdb79157d450e95899feffffff0284c41d00000000001976a9144be89995d61392613c46291e2c8a9704879c5d1b88acc2aa1500000000001976a914db7ee602436a84a2161a8665e97177f29e5ba09a88ac3cc11400"
    }, 
    {
      "txid": "18aa4f2783bcf65cd4054751e4d5b1f7cc38521d519de86621fddfffde05cd63",
      "hash": "18aa4f2783bcf65cd4054751e4d5b1f7cc38521d519de86621fddfffde05cd63",
      "version": 2,
      "size": 519,
      "vsize": 519,
      "locktime": 1360188,
      "vin": [
        {
          "txid": "0936285e477756a0e097414344a0aa69f97e8dc61e59e7a0dab5a6cfdf35166f",
          "vout": 346,
          "scriptSig": {
            "asm": "304402205e7c09249272866c25f0257b30172c44f05e99ee49e5c57596584694c76ecf7c02207f6e5f7ad7785042f6834e60cd32e39689d99a5e0125a92165dfedaa94a7a385[ALL] 0248e6963fc6d5345d222ba81e312f9fb8ace1e73bd74b343a738007121ff73641",
            "hex": "47304402205e7c09249272866c25f0257b30172c44f05e99ee49e5c57596584694c76ecf7c02207f6e5f7ad7785042f6834e60cd32e39689d99a5e0125a92165dfedaa94a7a38501210248e6963fc6d5345d222ba81e312f9fb8ace1e73bd74b343a738007121ff73641"
          },
          "sequence": 4294967294
        }, 
        {
          "txid": "fb97059a3dc4b75b128e17343e0fa1cd689713d7ba28bf4eb88014f1e8f68273",
          "vout": 330,
          "scriptSig": {
            "asm": "3045022100928e807c534ac5659dc41bf28e2b69547eeb772cb1289778ffd92f91d87f7e880220245fb456309dbc99d14d5c2ed6098f431c2490ef53d55d6974e7678004c82528[ALL] 02d8d732b4b855c8be17879954cd108fce43bc0b52581c4e27301a9b7412d2a5e1",
            "hex": "483045022100928e807c534ac5659dc41bf28e2b69547eeb772cb1289778ffd92f91d87f7e880220245fb456309dbc99d14d5c2ed6098f431c2490ef53d55d6974e7678004c82528012102d8d732b4b855c8be17879954cd108fce43bc0b52581c4e27301a9b7412d2a5e1"
          },
          "sequence": 4294967294
        }, 
        {
          "txid": "924db0c5eed6f33dc663cc3eded7057190567bf467fa3093209d8be2e5c7fc84",
          "vout": 0,
          "scriptSig": {
            "asm": "3045022100978a378f61712c29f0e7f2c0926a02b0253809cafe1def9418229b092702062f02203cf759e7e534542de43676c56cd0d96c3229931288e5cefb7836d80a8d114a61[ALL] 03c7dea061350d17f636d75b402a5f147cd040d58146da5da91c39781c6496c6dd",
            "hex": "483045022100978a378f61712c29f0e7f2c0926a02b0253809cafe1def9418229b092702062f02203cf759e7e534542de43676c56cd0d96c3229931288e5cefb7836d80a8d114a61012103c7dea061350d17f636d75b402a5f147cd040d58146da5da91c39781c6496c6dd"
          },
          "sequence": 4294967294
        }
      ],
      "vout": [
        {
          "value": 0.11565176,
          "n": 0,
          "scriptPubKey": {
            "asm": "OP_HASH160 5420130a9d2dbe8037bf2ca4561f44d3ecc96b87 OP_EQUAL",
            "hex": "a9145420130a9d2dbe8037bf2ca4561f44d3ecc96b8787",
            "reqSigs": 1,
            "type": "scripthash",
            "addresses": [
              "MFZyR7Pbzp3t4TmqbxvuAwag8F9SiLjy2q"
            ]
          }
        }, 
        {
          "value": 0.00972962,
          "n": 1,
          "scriptPubKey": {
            "asm": "OP_DUP OP_HASH160 2823fa5df27bfe26acb09042e7b0cab29954b21d OP_EQUALVERIFY OP_CHECKSIG",
            "hex": "76a9142823fa5df27bfe26acb09042e7b0cab29954b21d88ac",
            "reqSigs": 1,
            "type": "pubkeyhash",
            "addresses": [
              "LNtCPgTsReq4sY182dHRF3trZCrWW8gvvJ"
            ]
          }
        }
      ],
      "hex": "02000000036f1635dfcfa6b5daa0e7591ec68d7ef969aaa044434197e0a05677475e2836095a0100006a47304402205e7c09249272866c25f0257b30172c44f05e99ee49e5c57596584694c76ecf7c02207f6e5f7ad7785042f6834e60cd32e39689d99a5e0125a92165dfedaa94a7a38501210248e6963fc6d5345d222ba81e312f9fb8ace1e73bd74b343a738007121ff73641feffffff7382f6e8f11480b84ebf28bad7139768cda10f3e34178e125bb7c43d9a0597fb4a0100006b483045022100928e807c534ac5659dc41bf28e2b69547eeb772cb1289778ffd92f91d87f7e880220245fb456309dbc99d14d5c2ed6098f431c2490ef53d55d6974e7678004c82528012102d8d732b4b855c8be17879954cd108fce43bc0b52581c4e27301a9b7412d2a5e1feffffff84fcc7e5e28b9d209330fa67f47b56907105d7de3ecc63c63df3d6eec5b04d92000000006b483045022100978a378f61712c29f0e7f2c0926a02b0253809cafe1def9418229b092702062f02203cf759e7e534542de43676c56cd0d96c3229931288e5cefb7836d80a8d114a61012103c7dea061350d17f636d75b402a5f147cd040d58146da5da91c39781c6496c6ddfeffffff027878b0000000000017a9145420130a9d2dbe8037bf2ca4561f44d3ecc96b8787a2d80e00000000001976a9142823fa5df27bfe26acb09042e7b0cab29954b21d88ac3cc11400"
    }, 
    {
      "txid": "13638a6fdebff1d6911e4725e7017156a8e9ec9a773c9b17718ff016daa8a838",
      "hash": "13638a6fdebff1d6911e4725e7017156a8e9ec9a773c9b17718ff016daa8a838",
      "version": 1,
      "size": 226,
      "vsize": 226,
      "locktime": 0,
      "vin": [
        {
          "txid": "d01655bcfda02837a1a78c2741f1ea8cafa3d72af9d95899cc05d90e8c4f7b51",
          "vout": 1,
          "scriptSig": {
            "asm": "3045022100db0382a38a9087831b2d01d5ab55f597f5842842de6998dfa21c6f4bf7eea40f02203ec06b9c4f43f178e121caa91e4e4e59d15ed8c43b3c512217f8c6252c5d5cf0[ALL] 03b41ba63fa10c6ef1c316db6ce1d2accb298228fc4dc36c9786dfd78c0e9acca7",
            "hex": "483045022100db0382a38a9087831b2d01d5ab55f597f5842842de6998dfa21c6f4bf7eea40f02203ec06b9c4f43f178e121caa91e4e4e59d15ed8c43b3c512217f8c6252c5d5cf0012103b41ba63fa10c6ef1c316db6ce1d2accb298228fc4dc36c9786dfd78c0e9acca7"
          },
          "sequence": 4294967295
        }
      ],
      "vout": [
        {
          "value": 34.81148225,
          "n": 0,
          "scriptPubKey": {
            "asm": "OP_DUP OP_HASH160 1c653367471647bfce067d2ddbb63f8caaec0d24 OP_EQUALVERIFY OP_CHECKSIG",
            "hex": "76a9141c653367471647bfce067d2ddbb63f8caaec0d2488ac",
            "reqSigs": 1,
            "type": "pubkeyhash",
            "addresses": [
              "LMp6R9115LRieiCURNwo4u1MBxG9ZP2VEh"
            ]
          }
        }, 
        {
          "value": 1.17189426,
          "n": 1,
          "scriptPubKey": {
            "asm": "OP_DUP OP_HASH160 3e4893bc21acd2b06bd1bb1dd57adf370404ae88 OP_EQUALVERIFY OP_CHECKSIG",
            "hex": "76a9143e4893bc21acd2b06bd1bb1dd57adf370404ae8888ac",
            "reqSigs": 1,
            "type": "pubkeyhash",
            "addresses": [
              "LQuH6rKGv4QbEWScfY9MiM5ab8tW3HnuKr"
            ]
          }
        }
      ],
      "hex": "0100000001517b4f8c0ed905cc9958d9f92ad7a3af8ceaf141278ca7a13728a0fdbc5516d0010000006b483045022100db0382a38a9087831b2d01d5ab55f597f5842842de6998dfa21c6f4bf7eea40f02203ec06b9c4f43f178e121caa91e4e4e59d15ed8c43b3c512217f8c6252c5d5cf0012103b41ba63fa10c6ef1c316db6ce1d2accb298228fc4dc36c9786dfd78c0e9acca7ffffffff02411b7ecf000000001976a9141c653367471647bfce067d2ddbb63f8caaec0d2488ac322bfc06000000001976a9143e4893bc21acd2b06bd1bb1dd57adf370404ae8888ac00000000"
    }, 
    {
      "txid": "f703afaa96a4f5757d407910435dfbe57ab2fe1923243d5f5c1d1c2035cd42e8",
      "hash": "f703afaa96a4f5757d407910435dfbe57ab2fe1923243d5f5c1d1c2035cd42e8",
      "version": 2,
      "size": 226,
      "vsize": 226,
      "locktime": 1360188,
      "vin": [
        {
          "txid": "4cd0877fd7bffd966d10f1a24caa6592a0705dc641fd5f7cdc7d39c168d68029",
          "vout": 1,
          "scriptSig": {
            "asm": "3045022100bf41314ad2bba95f1c283f7655934242f931027c0b0af52e53c155c25d6b7f4202205be07c10f33e4a3ff185fedb78b8f0c4ab34fa23100eac626380fbab4f4747a3[ALL] 0377a9fef83f310b053a125fefc9be6301d6ac57d0bf612586e1f7cda33291f4b3",
            "hex": "483045022100bf41314ad2bba95f1c283f7655934242f931027c0b0af52e53c155c25d6b7f4202205be07c10f33e4a3ff185fedb78b8f0c4ab34fa23100eac626380fbab4f4747a301210377a9fef83f310b053a125fefc9be6301d6ac57d0bf612586e1f7cda33291f4b3"
          },
          "sequence": 4294967294
        }
      ],
      "vout": [
        {
          "value": 1.00000000,
          "n": 0,
          "scriptPubKey": {
            "asm": "OP_DUP OP_HASH160 32f2829760916261d3715e145f73a502f721e0e9 OP_EQUALVERIFY OP_CHECKSIG",
            "hex": "76a91432f2829760916261d3715e145f73a502f721e0e988ac",
            "reqSigs": 1,
            "type": "pubkeyhash",
            "addresses": [
              "LPsLZhjvjq65eCgeSu5YJsxTScmC9MTC49"
            ]
          }
        }, 
        {
          "value": 23.09923103,
          "n": 1,
          "scriptPubKey": {
            "asm": "OP_DUP OP_HASH160 46df0a878d378e7e9872f99e2dc1ca7b5ae87b5e OP_EQUALVERIFY OP_CHECKSIG",
            "hex": "76a91446df0a878d378e7e9872f99e2dc1ca7b5ae87b5e88ac",
            "reqSigs": 1,
            "type": "pubkeyhash",
            "addresses": [
              "LRggkoy72mPzZtqPsbCriri8xm8XRTD6TN"
            ]
          }
        }
      ],
      "hex": "02000000012980d668c1397ddc7c5ffd41c65d70a09265aa4ca2f1106d96fdbfd77f87d04c010000006b483045022100bf41314ad2bba95f1c283f7655934242f931027c0b0af52e53c155c25d6b7f4202205be07c10f33e4a3ff185fedb78b8f0c4ab34fa23100eac626380fbab4f4747a301210377a9fef83f310b053a125fefc9be6301d6ac57d0bf612586e1f7cda33291f4b3feffffff0200e1f505000000001976a91432f2829760916261d3715e145f73a502f721e0e988ac1fa1ae89000000001976a91446df0a878d378e7e9872f99e2dc1ca7b5ae87b5e88ac3cc11400"
    }, 
    {
      "txid": "d3a3fae03c50532ae1ae74d89b4bf343a5db260ec53657067b804eda7dea3af8",
      "hash": "d3a3fae03c50532ae1ae74d89b4bf343a5db260ec53657067b804eda7dea3af8",
      "version": 2,
      "size": 226,
      "vsize": 226,
      "locktime": 1360188,
      "vin": [
        {
          "txid": "4bc33e3064a9716c562346b4b57c08140c720fc07c03a15c93448f823a7cd4d0",
          "vout": 1,
          "scriptSig": {
            "asm": "3045022100fb1650784cf743ba6df3df0b817081817e6ac7d9fd783dab44bc17e90f866a4202203d438449a2ee2bbfeca0cd018b9f46991271671f6e76966bce3c2fd83eafef74[ALL] 03c605524cfc5f78394eba247c9efd9e7d7bb8a358b3941af33fae12152d5949a9",
            "hex": "483045022100fb1650784cf743ba6df3df0b817081817e6ac7d9fd783dab44bc17e90f866a4202203d438449a2ee2bbfeca0cd018b9f46991271671f6e76966bce3c2fd83eafef74012103c605524cfc5f78394eba247c9efd9e7d7bb8a358b3941af33fae12152d5949a9"
          },
          "sequence": 4294967294
        }
      ],
      "vout": [
        {
          "value": 681.28068829,
          "n": 0,
          "scriptPubKey": {
            "asm": "OP_DUP OP_HASH160 d9a27ce3f3f3a44ce4d1ca98abed4f9ed4726755 OP_EQUALVERIFY OP_CHECKSIG",
            "hex": "76a914d9a27ce3f3f3a44ce4d1ca98abed4f9ed472675588ac",
            "reqSigs": 1,
            "type": "pubkeyhash",
            "addresses": [
              "Lf4hYhDVUKSa9TfQmQGzEGYgSz5vKwRJHo"
            ]
          }
        }, 
        {
          "value": 13.45208834,
          "n": 1,
          "scriptPubKey": {
            "asm": "OP_DUP OP_HASH160 6faf262f329368cfdbc5d6cd27f927f7b879cdad OP_EQUALVERIFY OP_CHECKSIG",
            "hex": "76a9146faf262f329368cfdbc5d6cd27f927f7b879cdad88ac",
            "reqSigs": 1,
            "type": "pubkeyhash",
            "addresses": [
              "LVQV65mWLG27ikQ3n4H4ZUMNyJmxt8uPEU"
            ]
          }
        }
      ],
      "hex": "0200000001d0d47c3a828f44935ca1037cc00f720c14087cb5b44623566c71a964303ec34b010000006b483045022100fb1650784cf743ba6df3df0b817081817e6ac7d9fd783dab44bc17e90f866a4202203d438449a2ee2bbfeca0cd018b9f46991271671f6e76966bce3c2fd83eafef74012103c605524cfc5f78394eba247c9efd9e7d7bb8a358b3941af33fae12152d5949a9feffffff02ddd4bfdc0f0000001976a914d9a27ce3f3f3a44ce4d1ca98abed4f9ed472675588ac02422e50000000001976a9146faf262f329368cfdbc5d6cd27f927f7b879cdad88ac3cc11400"
    }
  ],
  "time": 1517387728,
  "mediantime": 1517386923,
  "nonce": 85886233,
  "bits": "1a042eae",
  "difficulty": 4011378.762614286,
  "chainwork": "000000000000000000000000000000000000000000000034b50ffed7625945fe",
  "previousblockhash": "916e26f0fa566d9868dd670c4c9c719cb11fd198039c114b7e6f94deab9d0820",
  "nextblockhash": "bfe5343243308ca39e723c50d736a86da64e6333b0ecc9acd408905723b3b096"
}
