{
  "hash": "21a219ca45036ed73a4a0ff14be565c53642062a3ba446aaf4e7ef0419c2e389",
  "confirmations": 2594,
  "strippedsize": 234,
  "size": 234,
  "weight": 936,
  "height": 1358401,
  "version": 536870912,
  "versionHex": "20000000",
  "merkleroot": "39ec3e584218e0081e93340e2588f8914377de4973b60d699c325ade7a9a5adc",
  "tx": [
    {
      "txid": "39ec3e584218e0081e93340e2588f8914377de4973b60d699c325ade7a9a5adc",
      "hash": "39ec3e584218e0081e93340e2588f8914377de4973b60d699c325ade7a9a5adc",
      "version": 1,
      "size": 153,
      "vsize": 153,
      "locktime": 0,
      "vin": [
        {
          "coinbase": "0341ba14045a6daac02cfabe6d6db244af5220266ecb9d6990d96529715224ee21d2a3589a7419d2e4d12c19f4f94000000000000000042f4c502f085600621f43000000",
          "sequence": 4294967295
        }
      ],
      "vout": [
        {
          "value": 25.00000000,
          "n": 0,
          "scriptPubKey": {
            "asm": "OP_DUP OP_HASH160 57757ed2ecf2052ff3126c397aca7defb9ca2cec OP_EQUALVERIFY OP_CHECKSIG",
            "hex": "76a91457757ed2ecf2052ff3126c397aca7defb9ca2cec88ac",
            "reqSigs": 1,
            "type": "pubkeyhash",
            "addresses": [
              "LTCPodGk5FwcJaRzH9yKnwicxzFUbxp6tN"
            ]
          }
        }
      ],
      "hex": "01000000010000000000000000000000000000000000000000000000000000000000000000ffffffff440341ba14045a6daac02cfabe6d6db244af5220266ecb9d6990d96529715224ee21d2a3589a7419d2e4d12c19f4f94000000000000000042f4c502f085600621f43000000ffffffff0100f90295000000001976a91457757ed2ecf2052ff3126c397aca7defb9ca2cec88ac00000000"
    }
  ],
  "time": 1517136576,
  "mediantime": 1517135594,
  "nonce": 667500244,
  "bits": "1a047f14",
  "difficulty": 3731199.183374282,
  "chainwork": "0000000000000000000000000000000000000000000000330fb0f6f14e58f5b4",
  "previousblockhash": "f52fc70eaa644e1430e7e23fb99216028aea0a71fb30965f46afc6ae354d2404",
  "nextblockhash": "a7a14f2ec1cc3d4bcf84438afcf948089a0cee4053a9bb51f393018cc6e5f934"
}
