{
  "hash": "21eb172c9281cf0862dd1f46f85c709f234c78e7a8e7086a921467cec2c1a6b6",
  "confirmations": 2542,
  "strippedsize": 234,
  "size": 234,
  "weight": 936,
  "height": 1358453,
  "version": 536870912,
  "versionHex": "20000000",
  "merkleroot": "e519698a7b007f0a68760eae783bed17dbe2c246d0880044e82e354dd21261cc",
  "tx": [
    {
      "txid": "e519698a7b007f0a68760eae783bed17dbe2c246d0880044e82e354dd21261cc",
      "hash": "e519698a7b007f0a68760eae783bed17dbe2c246d0880044e82e354dd21261cc",
      "version": 1,
      "size": 153,
      "vsize": 153,
      "locktime": 0,
      "vin": [
        {
          "coinbase": "0375ba14045a6dc8e62cfabe6d6dad16618f2eb84387d0ae188869b5df4e192cd409ef3688fc7075f929d968e8004000000000000000042f4c502f0822005669cb220000",
          "sequence": 4294967295
        }
      ],
      "vout": [
        {
          "value": 25.00000000,
          "n": 0,
          "scriptPubKey": {
            "asm": "OP_DUP OP_HASH160 57757ed2ecf2052ff3126c397aca7defb9ca2cec OP_EQUALVERIFY OP_CHECKSIG",
            "hex": "76a91457757ed2ecf2052ff3126c397aca7defb9ca2cec88ac",
            "reqSigs": 1,
            "type": "pubkeyhash",
            "addresses": [
              "LTCPodGk5FwcJaRzH9yKnwicxzFUbxp6tN"
            ]
          }
        }
      ],
      "hex": "01000000010000000000000000000000000000000000000000000000000000000000000000ffffffff440375ba14045a6dc8e62cfabe6d6dad16618f2eb84387d0ae188869b5df4e192cd409ef3688fc7075f929d968e8004000000000000000042f4c502f0822005669cb220000ffffffff0100f90295000000001976a91457757ed2ecf2052ff3126c397aca7defb9ca2cec88ac00000000"
    }
  ],
  "time": 1517144294,
  "mediantime": 1517143197,
  "nonce": 4153771042,
  "bits": "1a047f14",
  "difficulty": 3731199.183374282,
  "chainwork": "0000000000000000000000000000000000000000000000331b418e576ed32afc",
  "previousblockhash": "45a3b4327b0a08453b85e4dd1a22b6ecb2752df42aa8801ae16703793ab931eb",
  "nextblockhash": "76179bce9eedded6a895aee9e91005c45497d08e6fa6ea9359342ac5f481ef69"
}
