{
  "hash": "225512a00a86417a7f75847f715c3c81f685297d18ed725db597f83d41b2fdf6",
  "confirmations": 733,
  "strippedsize": 253,
  "size": 253,
  "weight": 1012,
  "height": 1360261,
  "version": 536870912,
  "versionHex": "20000000",
  "merkleroot": "c0745e8f07c1232568e7ec2a224180cfe30c20e5ffac020065acccf9bcdaec6b",
  "tx": [
    {
      "txid": "c0745e8f07c1232568e7ec2a224180cfe30c20e5ffac020065acccf9bcdaec6b",
      "hash": "c0745e8f07c1232568e7ec2a224180cfe30c20e5ffac020065acccf9bcdaec6b",
      "version": 1,
      "size": 172,
      "vsize": 172,
      "locktime": 0,
      "vin": [
        {
          "coinbase": "0385c1141a4d696e656420627920416e74506f6f6c20626a3532205a71b6a4fabe6d6deddbd7de61c91ed1bfb06558c82d14bc0e8c4753935afd07f9a48e028f4044ca04000000000000007b180000000000000e000000",
          "sequence": 4294967295
        }
      ],
      "vout": [
        {
          "value": 25.00000000,
          "n": 0,
          "scriptPubKey": {
            "asm": "OP_DUP OP_HASH160 0ff3ccc5e8be88afe24b5d634e5852d474dbdff1 OP_EQUALVERIFY OP_CHECKSIG",
            "hex": "76a9140ff3ccc5e8be88afe24b5d634e5852d474dbdff188ac",
            "reqSigs": 1,
            "type": "pubkeyhash",
            "addresses": [
              "LLgJTbzZMsRTCUF1NtvvL9SR1a4pVieW89"
            ]
          }
        }
      ],
      "hex": "01000000010000000000000000000000000000000000000000000000000000000000000000ffffffff570385c1141a4d696e656420627920416e74506f6f6c20626a3532205a71b6a4fabe6d6deddbd7de61c91ed1bfb06558c82d14bc0e8c4753935afd07f9a48e028f4044ca04000000000000007b180000000000000e000000ffffffff0100f90295000000001976a9140ff3ccc5e8be88afe24b5d634e5852d474dbdff188ac00000000"
    }
  ],
  "time": 1517401764,
  "mediantime": 1517400444,
  "nonce": 2878930982,
  "bits": "1a042eae",
  "difficulty": 4011378.762614286,
  "chainwork": "000000000000000000000000000000000000000000000034c609e2a56b6e490c",
  "previousblockhash": "3746ad30ee06dfc1c047475e9cbe5a31cb67accda13cb9415ed7db06001f8d1f",
  "nextblockhash": "f7c7d075a80381ec5d87986c8167bd37ec49c76a36907d448b78480b06179434"
}
