{
  "hash": "229a42bbd903b2caa91ce8acf473bd1fc981ba118a75941957bac04b7533b7ec",
  "confirmations": 3513,
  "strippedsize": 255,
  "size": 255,
  "weight": 1020,
  "height": 1357482,
  "version": 536870912,
  "versionHex": "20000000",
  "merkleroot": "dfcbe2d2ea2b8d457045d38c12c1841a4c322a119f59feca0b8b029aabe8541f",
  "tx": [
    {
      "txid": "dfcbe2d2ea2b8d457045d38c12c1841a4c322a119f59feca0b8b029aabe8541f",
      "hash": "dfcbe2d2ea2b8d457045d38c12c1841a4c322a119f59feca0b8b029aabe8541f",
      "version": 1,
      "size": 174,
      "vsize": 174,
      "locktime": 0,
      "vin": [
        {
          "coinbase": "03aab6141c4d696e656420627920416e74506f6f6c20626a341e205a6bb5c01001fabe6d6dab390ba47e52e045df34e6bd94e1552b7d7bc0ecff48784ae2c5c52d625568d504000000000000000d1000000000000003000000",
          "sequence": 4294967295
        }
      ],
      "vout": [
        {
          "value": 25.00000000,
          "n": 0,
          "scriptPubKey": {
            "asm": "OP_DUP OP_HASH160 0ff3ccc5e8be88afe24b5d634e5852d474dbdff1 OP_EQUALVERIFY OP_CHECKSIG",
            "hex": "76a9140ff3ccc5e8be88afe24b5d634e5852d474dbdff188ac",
            "reqSigs": 1,
            "type": "pubkeyhash",
            "addresses": [
              "LLgJTbzZMsRTCUF1NtvvL9SR1a4pVieW89"
            ]
          }
        }
      ],
      "hex": "01000000010000000000000000000000000000000000000000000000000000000000000000ffffffff5903aab6141c4d696e656420627920416e74506f6f6c20626a341e205a6bb5c01001fabe6d6dab390ba47e52e045df34e6bd94e1552b7d7bc0ecff48784ae2c5c52d625568d504000000000000000d1000000000000003000000ffffffff0100f90295000000001976a9140ff3ccc5e8be88afe24b5d634e5852d474dbdff188ac00000000"
    }
  ],
  "time": 1517008320,
  "mediantime": 1517008042,
  "nonce": 1952645961,
  "bits": "1a047f14",
  "difficulty": 3731199.183374282,
  "chainwork": "000000000000000000000000000000000000000000000032434e347d0686b45e",
  "previousblockhash": "015e17729f64eb51214dd6f1ee8dc6143e58686a4b4e9ac0bf1af9fe03509ecd",
  "nextblockhash": "2ca9ee26ea03e710f47bc79d2dbae8402aa18f450b3550ae94d6203d02e06263"
}
