{
  "hash": "23238348a371430e3c0ef8b6f9a64448e2dd1049b1a56d379ae47c71085bb65e",
  "confirmations": 1020,
  "strippedsize": 253,
  "size": 253,
  "weight": 1012,
  "height": 1359974,
  "version": 536870912,
  "versionHex": "20000000",
  "merkleroot": "16d2dfb46efe8fe34d04b47b8b27d9a9fcc820fb9519e789725fd6e9a96b0366",
  "tx": [
    {
      "txid": "16d2dfb46efe8fe34d04b47b8b27d9a9fcc820fb9519e789725fd6e9a96b0366",
      "hash": "16d2dfb46efe8fe34d04b47b8b27d9a9fcc820fb9519e789725fd6e9a96b0366",
      "version": 1,
      "size": 172,
      "vsize": 172,
      "locktime": 0,
      "vin": [
        {
          "coinbase": "0366c0141a4d696e656420627920416e74506f6f6c20626a341e205a710720fabe6d6da15395e43827d6f58e815ee503dcadc579527f8919975aa638343b2bdb5d0ea10400000000000000b63000000000000010000000",
          "sequence": 4294967295
        }
      ],
      "vout": [
        {
          "value": 25.00000000,
          "n": 0,
          "scriptPubKey": {
            "asm": "OP_DUP OP_HASH160 0ff3ccc5e8be88afe24b5d634e5852d474dbdff1 OP_EQUALVERIFY OP_CHECKSIG",
            "hex": "76a9140ff3ccc5e8be88afe24b5d634e5852d474dbdff188ac",
            "reqSigs": 1,
            "type": "pubkeyhash",
            "addresses": [
              "LLgJTbzZMsRTCUF1NtvvL9SR1a4pVieW89"
            ]
          }
        }
      ],
      "hex": "01000000010000000000000000000000000000000000000000000000000000000000000000ffffffff570366c0141a4d696e656420627920416e74506f6f6c20626a341e205a710720fabe6d6da15395e43827d6f58e815ee503dcadc579527f8919975aa638343b2bdb5d0ea10400000000000000b63000000000000010000000ffffffff0100f90295000000001976a9140ff3ccc5e8be88afe24b5d634e5852d474dbdff188ac00000000"
    }
  ],
  "time": 1517356832,
  "mediantime": 1517356044,
  "nonce": 403218329,
  "bits": "1a042eae",
  "difficulty": 4011378.762614286,
  "chainwork": "000000000000000000000000000000000000000000000034816ab25d5c5a404e",
  "previousblockhash": "ac11b48f35d3afe5210704cbbf2a5a960f0fc4412ff5036c52beef4aba0e6319",
  "nextblockhash": "6090180bc9b27e72834f1e20e66adbe86c77cca98eda2a1f330499a893f8992c"
}
