{
  "hash": "236180a4b2bc4527e87ccda760a8b80124f5908b1f47205290dbc467c6a8bee4",
  "confirmations": 3450,
  "strippedsize": 234,
  "size": 234,
  "weight": 936,
  "height": 1357545,
  "version": 536870912,
  "versionHex": "20000000",
  "merkleroot": "937a02be02fbc755d389141d8d55966e46e7fadfbc102a447ce2d2394d45034b",
  "tx": [
    {
      "txid": "937a02be02fbc755d389141d8d55966e46e7fadfbc102a447ce2d2394d45034b",
      "hash": "937a02be02fbc755d389141d8d55966e46e7fadfbc102a447ce2d2394d45034b",
      "version": 1,
      "size": 153,
      "vsize": 153,
      "locktime": 0,
      "vin": [
        {
          "coinbase": "03e9b614045a6bd5eb2cfabe6d6dc73979767146ec33cae09f6720757db76125c02e6afe9829954ee8e59a295dc54000000000000000042f4c502f08560049d31e3d0000",
          "sequence": 4294967295
        }
      ],
      "vout": [
        {
          "value": 25.00000000,
          "n": 0,
          "scriptPubKey": {
            "asm": "OP_DUP OP_HASH160 57757ed2ecf2052ff3126c397aca7defb9ca2cec OP_EQUALVERIFY OP_CHECKSIG",
            "hex": "76a91457757ed2ecf2052ff3126c397aca7defb9ca2cec88ac",
            "reqSigs": 1,
            "type": "pubkeyhash",
            "addresses": [
              "LTCPodGk5FwcJaRzH9yKnwicxzFUbxp6tN"
            ]
          }
        }
      ],
      "hex": "01000000010000000000000000000000000000000000000000000000000000000000000000ffffffff4403e9b614045a6bd5eb2cfabe6d6dc73979767146ec33cae09f6720757db76125c02e6afe9829954ee8e59a295dc54000000000000000042f4c502f08560049d31e3d0000ffffffff0100f90295000000001976a91457757ed2ecf2052ff3126c397aca7defb9ca2cec88ac00000000"
    }
  ],
  "time": 1517016555,
  "mediantime": 1517016112,
  "nonce": 2046233344,
  "bits": "1a047f14",
  "difficulty": 3731199.183374282,
  "chainwork": "0000000000000000000000000000000000000000000000325151134c72cbfec4",
  "previousblockhash": "e2f727866ef1016c504766feb54b3ed622ae2c092c86034239f546485e74c9be",
  "nextblockhash": "0ac7dec403fc83441c153497fe70127eee026b584e5326b9838f18191f481572"
}
