{
  "hash": "23bd586f012d2b1bc5768f03f68699398992476b7a9b0860f6ad47cdb07a782f",
  "confirmations": 1428,
  "strippedsize": 254,
  "size": 254,
  "weight": 1016,
  "height": 1359566,
  "version": 536870912,
  "versionHex": "20000000",
  "merkleroot": "0be235454950d6f41094e8bfd3a036b82715ef11d92a80cd17212b5754d91b0a",
  "tx": [
    {
      "txid": "0be235454950d6f41094e8bfd3a036b82715ef11d92a80cd17212b5754d91b0a",
      "hash": "0be235454950d6f41094e8bfd3a036b82715ef11d92a80cd17212b5754d91b0a",
      "version": 1,
      "size": 173,
      "vsize": 173,
      "locktime": 0,
      "vin": [
        {
          "coinbase": "03cebe141b4d696e656420627920416e74506f6f6c20626a312045205a7028b0fabe6d6d519b47a9d0db4930237711fdeab1d2a54a5ca98022430d3801dbbb109e2b2b4a0400000000000000ea320000000000000e000000",
          "sequence": 4294967295
        }
      ],
      "vout": [
        {
          "value": 25.00000000,
          "n": 0,
          "scriptPubKey": {
            "asm": "OP_DUP OP_HASH160 0ff3ccc5e8be88afe24b5d634e5852d474dbdff1 OP_EQUALVERIFY OP_CHECKSIG",
            "hex": "76a9140ff3ccc5e8be88afe24b5d634e5852d474dbdff188ac",
            "reqSigs": 1,
            "type": "pubkeyhash",
            "addresses": [
              "LLgJTbzZMsRTCUF1NtvvL9SR1a4pVieW89"
            ]
          }
        }
      ],
      "hex": "01000000010000000000000000000000000000000000000000000000000000000000000000ffffffff5803cebe141b4d696e656420627920416e74506f6f6c20626a312045205a7028b0fabe6d6d519b47a9d0db4930237711fdeab1d2a54a5ca98022430d3801dbbb109e2b2b4a0400000000000000ea320000000000000e000000ffffffff0100f90295000000001976a9140ff3ccc5e8be88afe24b5d634e5852d474dbdff188ac00000000"
    }
  ],
  "time": 1517299888,
  "mediantime": 1517299382,
  "nonce": 3666578596,
  "bits": "1a042eae",
  "difficulty": 4011378.762614286,
  "chainwork": "0000000000000000000000000000000000000000000000341fdd21e8a65c191e",
  "previousblockhash": "47cf449c18a756dce33d902f9a0a924ac06905eb6983d1dbae2c8fd5b19316a0",
  "nextblockhash": "06a39e232d70525f223ff58363db9c465ca34ce713076a3a541028505e4e7099"
}
