{
  "hash": "2518ca9b5e964f2af986a6b52b74c836990739a75c87eabe0dc2b7f5eab9db57",
  "confirmations": 1981,
  "strippedsize": 3436,
  "size": 3948,
  "weight": 14256,
  "height": 1359013,
  "version": 536870912,
  "versionHex": "20000000",
  "merkleroot": "1d295ae0d2437c65127b2e51f3fd2fa8cde03b4fdb4284b18f5f992a88eb7239",
  "tx": [
    {
      "txid": "a9bc7f92e789464aa07e7f5e1f5485f08da467cf3e9eb3140f11b7e1bd680c35",
      "hash": "d16ec626b719f8830efc0f824a5f4da1d6217d6f9b22611b40117f7b0cb3f834",
      "version": 1,
      "size": 244,
      "vsize": 217,
      "locktime": 0,
      "vin": [
        {
          "coinbase": "03a5bc1404eaff6e5a080255a5ba1e000000fabe6d6da9e29e0f4a491f2ff6b8d4f7be6c89d70e7946b6443cdc9841e33f68c261f42540000000000000000d2f6e6f64655374726174756d2f",
          "sequence": 0
        }
      ],
      "vout": [
        {
          "value": 25.00498509,
          "n": 0,
          "scriptPubKey": {
            "asm": "OP_DUP OP_HASH160 0c617fdb2ea42aed30a509595ee21ba3f6688db0 OP_EQUALVERIFY OP_CHECKSIG",
            "hex": "76a9140c617fdb2ea42aed30a509595ee21ba3f6688db088ac",
            "reqSigs": 1,
            "type": "pubkeyhash",
            "addresses": [
              "LLMRAtr3qBje2ySEa3CnZ55LA4TQMWnRY3"
            ]
          }
        }, 
        {
          "value": 0.00000000,
          "n": 1,
          "scriptPubKey": {
            "asm": "OP_RETURN aa21a9ed5a22ecaa3838aa9adbd22efa82b49d577559a811e4ffb48f01f1965b3ebd3d6b",
            "hex": "6a24aa21a9ed5a22ecaa3838aa9adbd22efa82b49d577559a811e4ffb48f01f1965b3ebd3d6b",
            "type": "nulldata"
          }
        }
      ],
      "hex": "010000000001010000000000000000000000000000000000000000000000000000000000000000ffffffff4c03a5bc1404eaff6e5a080255a5ba1e000000fabe6d6da9e29e0f4a491f2ff6b8d4f7be6c89d70e7946b6443cdc9841e33f68c261f42540000000000000000d2f6e6f64655374726174756d2f00000000024d940a95000000001976a9140c617fdb2ea42aed30a509595ee21ba3f6688db088ac0000000000000000266a24aa21a9ed5a22ecaa3838aa9adbd22efa82b49d577559a811e4ffb48f01f1965b3ebd3d6b0120000000000000000000000000000000000000000000000000000000000000000000000000"
    }, 
    {
      "txid": "9f35de7ef19c50696705ea20225310f79fbec014e534f844dc42b17a7d16dddd",
      "hash": "9f35de7ef19c50696705ea20225310f79fbec014e534f844dc42b17a7d16dddd",
      "version": 1,
      "size": 226,
      "vsize": 226,
      "locktime": 0,
      "vin": [
        {
          "txid": "20709794b718e9ac9a0922c7c2e11ee791a1908c30ceeb2d5cf2acd4829899f4",
          "vout": 1,
          "scriptSig": {
            "asm": "3045022100bd767edcf812e15cd7bc90905d7cb1661d60504f2e5e0615f36eab5b686c0a7c02205ca8f20a8e06495bcf511268f4a0e7fd480adf4972f251ee0d01a71a18c58946[ALL] 02cc84ac4181bc520ed307a5fe90ac4162bcf62c5b0c0837090b80009a02a80515",
            "hex": "483045022100bd767edcf812e15cd7bc90905d7cb1661d60504f2e5e0615f36eab5b686c0a7c02205ca8f20a8e06495bcf511268f4a0e7fd480adf4972f251ee0d01a71a18c58946012102cc84ac4181bc520ed307a5fe90ac4162bcf62c5b0c0837090b80009a02a80515"
          },
          "sequence": 4294967294
        }
      ],
      "vout": [
        {
          "value": 2.55800000,
          "n": 0,
          "scriptPubKey": {
            "asm": "OP_DUP OP_HASH160 51309bfc9fc329f6b24fb8d8354db685801bc516 OP_EQUALVERIFY OP_CHECKSIG",
            "hex": "76a91451309bfc9fc329f6b24fb8d8354db685801bc51688ac",
            "reqSigs": 1,
            "type": "pubkeyhash",
            "addresses": [
              "LSdFEBkuoE5VUmmnJc2YZfuibYyyEVKzFj"
            ]
          }
        }, 
        {
          "value": 57.85046900,
          "n": 1,
          "scriptPubKey": {
            "asm": "OP_DUP OP_HASH160 83483e628506e345867143546998a3320f34c1ec OP_EQUALVERIFY OP_CHECKSIG",
            "hex": "76a91483483e628506e345867143546998a3320f34c1ec88ac",
            "reqSigs": 1,
            "type": "pubkeyhash",
            "addresses": [
              "LXC7KvTKUqFpQKqWryVAbscttXJjK3nKmh"
            ]
          }
        }
      ],
      "hex": "0100000001f4999882d4acf25c2debce308c90a191e71ee1c2c722099aace918b794977020010000006b483045022100bd767edcf812e15cd7bc90905d7cb1661d60504f2e5e0615f36eab5b686c0a7c02205ca8f20a8e06495bcf511268f4a0e7fd480adf4972f251ee0d01a71a18c58946012102cc84ac4181bc520ed307a5fe90ac4162bcf62c5b0c0837090b80009a02a80515feffffff02c0323f0f000000001976a91451309bfc9fc329f6b24fb8d8354db685801bc51688ac74cfd058010000001976a91483483e628506e345867143546998a3320f34c1ec88ac00000000"
    }, 
    {
      "txid": "14704fd6227e092db2706c60c656ed84b401b1bd76f0a73142242b87c69cdeba",
      "hash": "14704fd6227e092db2706c60c656ed84b401b1bd76f0a73142242b87c69cdeba",
      "version": 1,
      "size": 667,
      "vsize": 667,
      "locktime": 1359011,
      "vin": [
        {
          "txid": "fccc3df304704d0c4201af59495169d58a455a855058543d57b7b7a7b027f30a",
          "vout": 0,
          "scriptSig": {
            "asm": "30440220250b0b7f57d62c2af9e2e2fb95ecfc15eda624db19d9448e2b9bf7fb69d9b28b022048953d42359b05c6999552399265d4ee9d378d3f521492045545b55bc1fdf3dc[ALL] 0321baf2d53cfdd4b8e0dfb1685bc95610db91cc5b176612164182314a9cb11033",
            "hex": "4730440220250b0b7f57d62c2af9e2e2fb95ecfc15eda624db19d9448e2b9bf7fb69d9b28b022048953d42359b05c6999552399265d4ee9d378d3f521492045545b55bc1fdf3dc01210321baf2d53cfdd4b8e0dfb1685bc95610db91cc5b176612164182314a9cb11033"
          },
          "sequence": 4294967294
        }, 
        {
          "txid": "b0f8cc896c158c81ab8e2a14c82ef3e3775f6b99af274ea698f092fb0030c208",
          "vout": 1,
          "scriptSig": {
            "asm": "304402205a663af9a70626e9d03358b8083109da8b2e54445f60d0efde91883a5fc21f8202207476e4abb6a4bc648e0af08ff610a3ecbe529d86ea07cbbdce56f4f0fa6faf0b[ALL] 0326567d0779db1d682dc430bf692e830843c04bcd94a3c886d53c2d42900e3a80",
            "hex": "47304402205a663af9a70626e9d03358b8083109da8b2e54445f60d0efde91883a5fc21f8202207476e4abb6a4bc648e0af08ff610a3ecbe529d86ea07cbbdce56f4f0fa6faf0b01210326567d0779db1d682dc430bf692e830843c04bcd94a3c886d53c2d42900e3a80"
          },
          "sequence": 4294967294
        }, 
        {
          "txid": "b2cb7340bcbb619cd3e8ac2fbb090f1233930db7cd7f4bc6cdc98473ea6a946e",
          "vout": 0,
          "scriptSig": {
            "asm": "3045022100c527515933d3b72f61d957d3c2529e0ee1c0845fc73fe3a11bb83cec90609aa902202e52a532c45ed037696b9129716b42ca9acad3d1845c9df1c0a6b60ae3b97595[ALL] 02dba464bb2ca908e855d0173fbe359af4ddb8f3269c8e3d739a72b2e3392f18b2",
            "hex": "483045022100c527515933d3b72f61d957d3c2529e0ee1c0845fc73fe3a11bb83cec90609aa902202e52a532c45ed037696b9129716b42ca9acad3d1845c9df1c0a6b60ae3b97595012102dba464bb2ca908e855d0173fbe359af4ddb8f3269c8e3d739a72b2e3392f18b2"
          },
          "sequence": 4294967294
        }, 
        {
          "txid": "339d4917bd76af5fb8f35a8f1a40200b4b05b8788f46fe8fbf21ce93835810b7",
          "vout": 0,
          "scriptSig": {
            "asm": "3044022063c58066bec76e1dc6a5023fbbaefd247657b3eabac67a123c4faf9949f9ec7c02205438e9d3e951bac8f96b9868a326bdabbf634f1fd7f3143be6626d48d11bb55c[ALL] 034b5c8564e58cc544c0327a86e0f6dc41d9004a6d3efee3403927792d294f0225",
            "hex": "473044022063c58066bec76e1dc6a5023fbbaefd247657b3eabac67a123c4faf9949f9ec7c02205438e9d3e951bac8f96b9868a326bdabbf634f1fd7f3143be6626d48d11bb55c0121034b5c8564e58cc544c0327a86e0f6dc41d9004a6d3efee3403927792d294f0225"
          },
          "sequence": 4294967294
        }
      ],
      "vout": [
        {
          "value": 0.01000250,
          "n": 0,
          "scriptPubKey": {
            "asm": "OP_DUP OP_HASH160 1a1184984ff64df8c2f30876f786f74babd19836 OP_EQUALVERIFY OP_CHECKSIG",
            "hex": "76a9141a1184984ff64df8c2f30876f786f74babd1983688ac",
            "reqSigs": 1,
            "type": "pubkeyhash",
            "addresses": [
              "LMbnpNMiyYWcj5vPXRY47nqZQLZhyUpWQT"
            ]
          }
        }, 
        {
          "value": 11.60843916,
          "n": 1,
          "scriptPubKey": {
            "asm": "OP_DUP OP_HASH160 9738eccc00c761f82b8eda8e4d23e99e547b7af9 OP_EQUALVERIFY OP_CHECKSIG",
            "hex": "76a9149738eccc00c761f82b8eda8e4d23e99e547b7af988ac",
            "reqSigs": 1,
            "type": "pubkeyhash",
            "addresses": [
              "LZ1YVPyRrEAfSY3NyFx8KJ2LPKqrbCraCz"
            ]
          }
        }
      ],
      "hex": "01000000040af327b0a7b7b7573d545850855a458ad569514959af01420c4d7004f33dccfc000000006a4730440220250b0b7f57d62c2af9e2e2fb95ecfc15eda624db19d9448e2b9bf7fb69d9b28b022048953d42359b05c6999552399265d4ee9d378d3f521492045545b55bc1fdf3dc01210321baf2d53cfdd4b8e0dfb1685bc95610db91cc5b176612164182314a9cb11033feffffff08c23000fb92f098a64e27af996b5f77e3f32ec8142a8eab818c156c89ccf8b0010000006a47304402205a663af9a70626e9d03358b8083109da8b2e54445f60d0efde91883a5fc21f8202207476e4abb6a4bc648e0af08ff610a3ecbe529d86ea07cbbdce56f4f0fa6faf0b01210326567d0779db1d682dc430bf692e830843c04bcd94a3c886d53c2d42900e3a80feffffff6e946aea7384c9cdc64b7fcdb70d9333120f09bb2face8d39c61bbbc4073cbb2000000006b483045022100c527515933d3b72f61d957d3c2529e0ee1c0845fc73fe3a11bb83cec90609aa902202e52a532c45ed037696b9129716b42ca9acad3d1845c9df1c0a6b60ae3b97595012102dba464bb2ca908e855d0173fbe359af4ddb8f3269c8e3d739a72b2e3392f18b2feffffffb710588393ce21bf8ffe468f78b8054b0b20401a8f5af3b85faf76bd17499d33000000006a473044022063c58066bec76e1dc6a5023fbbaefd247657b3eabac67a123c4faf9949f9ec7c02205438e9d3e951bac8f96b9868a326bdabbf634f1fd7f3143be6626d48d11bb55c0121034b5c8564e58cc544c0327a86e0f6dc41d9004a6d3efee3403927792d294f0225feffffff023a430f00000000001976a9141a1184984ff64df8c2f30876f786f74babd1983688ac8c123145000000001976a9149738eccc00c761f82b8eda8e4d23e99e547b7af988aca3bc1400"
    }, 
    {
      "txid": "c794465d0c84a7e1028d9c5f1c308c88a4e5d3425af8906a0087f3ca72412d68",
      "hash": "7abf46b14586163275a0a5359753413f045d82ed153995d043d9ce37a280895e",
      "version": 1,
      "size": 372,
      "vsize": 207,
      "locktime": 0,
      "vin": [
        {
          "txid": "7d02f17cadfcd84f3345c547561c7281a529e5e5cbc393d5292cc626b04383e3",
          "vout": 1,
          "scriptSig": {
            "asm": "0020409fd93c7351b461fa46963fa28755038f397ee054ab9e56eda0b1081d768cc4",
            "hex": "220020409fd93c7351b461fa46963fa28755038f397ee054ab9e56eda0b1081d768cc4"
          },
          "txinwitness": [
            "", 
            "304402206d0a4909bdf6365678246ad07c76e0514771e6315241ef612ebd43033490a5d6022065231a8da6449f80d0daf54981a99bfd985ff2eebdce79c6541879082c251a5601", 
            "304402201fa460d8306e5a8f295294299b3e3e2a938e10aa40de20668cf96d0e89d495ea0220420491b72ec51abd0373548b5df61e7f431f70de862c5dd37f8ba3191fcb86b801", 
            "522103ceb293b39e087131961da42b3deaef48432d57a08bfd111247901be2936525b32103fa185b0d6c2a6d812d1a9418c54b3cea527d229a73a0c6c72345a1851ebcdad352ae"
          ],
          "sequence": 4294967295
        }
      ],
      "vout": [
        {
          "value": 0.01041700,
          "n": 0,
          "scriptPubKey": {
            "asm": "OP_DUP OP_HASH160 eef5fce9446e37c3b081cf90ad5ab3d99b8e94c9 OP_EQUALVERIFY OP_CHECKSIG",
            "hex": "76a914eef5fce9446e37c3b081cf90ad5ab3d99b8e94c988ac",
            "reqSigs": 1,
            "type": "pubkeyhash",
            "addresses": [
              "Lh1TmQjPQVGdkJs72zSKHDvTUmSpE1fMzn"
            ]
          }
        }, 
        {
          "value": 0.84115800,
          "n": 1,
          "scriptPubKey": {
            "asm": "OP_HASH160 2d9ba1f1c217fd18a576b17eaf8a1c6f1cd2f1de OP_EQUAL",
            "hex": "a9142d9ba1f1c217fd18a576b17eaf8a1c6f1cd2f1de87",
            "reqSigs": 1,
            "type": "scripthash",
            "addresses": [
              "MC4K5c2x6rcVohDBLrLNQRsqL5atuzztot"
            ]
          }
        }
      ],
      "hex": "01000000000101e38343b026c62c29d593c3cbe5e529a581721c5647c545334fd8fcad7cf1027d0100000023220020409fd93c7351b461fa46963fa28755038f397ee054ab9e56eda0b1081d768cc4ffffffff0224e50f00000000001976a914eef5fce9446e37c3b081cf90ad5ab3d99b8e94c988ac588103050000000017a9142d9ba1f1c217fd18a576b17eaf8a1c6f1cd2f1de87040047304402206d0a4909bdf6365678246ad07c76e0514771e6315241ef612ebd43033490a5d6022065231a8da6449f80d0daf54981a99bfd985ff2eebdce79c6541879082c251a560147304402201fa460d8306e5a8f295294299b3e3e2a938e10aa40de20668cf96d0e89d495ea0220420491b72ec51abd0373548b5df61e7f431f70de862c5dd37f8ba3191fcb86b80147522103ceb293b39e087131961da42b3deaef48432d57a08bfd111247901be2936525b32103fa185b0d6c2a6d812d1a9418c54b3cea527d229a73a0c6c72345a1851ebcdad352ae00000000"
    }, 
    {
      "txid": "4d67f06cc38a08836e316c6e61a9242d78c3a7e60cd8bb8a88c0fdd8b4ba01ae",
      "hash": "8f849a58c68bad8690a87855202aa6eaa41951483c5b8fc7378643303c4f2db2",
      "version": 1,
      "size": 406,
      "vsize": 214,
      "locktime": 0,
      "vin": [
        {
          "txid": "982dc96d413501fed6a96d5ffb2cc3725ef95fd9400b591ee385edebd8a83073",
          "vout": 0,
          "scriptSig": {
            "asm": "0020bcf9f822194145acea0f3235f4107b5bf1a91b6b9f8489f63bf79ec29b360913",
            "hex": "220020bcf9f822194145acea0f3235f4107b5bf1a91b6b9f8489f63bf79ec29b360913"
          },
          "txinwitness": [
            "", 
            "3045022100d9ce593d5c538e8114f2361783743b47f0c727bf53595de0cb3f05f21541e0cf02207016d3100c71a3594f422911664cb3ecdc08da6451c2dad4f0d85b43f977c1b901", 
            "3045022100c93327c6109d1e33e48b7a98392a2e1b897b8290caedc494f8db2aab7dc218fe0220168f9c4ab9da7ec5fab74684ec80baec19adfcfa96bd7af8858060a30d95afb701", 
            "5221026c8f72b9e63db63907115e65d4da86eaae595b22fdc85ec75301bb4adbf203582103806535be3e3920e5eedee92de5714188fd6a784f2bf7b04f87de0b9c3ae1ecdb21024b23bfdce2afcae7e28c42f7f79aa100f22931712c52d7414a526ba494d44a2553ae"
          ],
          "sequence": 4294967295
        }
      ],
      "vout": [
        {
          "value": 1.19454847,
          "n": 0,
          "scriptPubKey": {
            "asm": "OP_HASH160 30897cc6c9d69f6a2c2f1c651d51f22219f1a4f6 OP_EQUAL",
            "hex": "a91430897cc6c9d69f6a2c2f1c651d51f22219f1a4f687",
            "reqSigs": 1,
            "type": "scripthash",
            "addresses": [
              "MCKoNRvwxc3gPLTk3UTCpaxRuiHURQD1E9"
            ]
          }
        }, 
        {
          "value": 0.95153850,
          "n": 1,
          "scriptPubKey": {
            "asm": "OP_HASH160 9370ce23391838baf61e58f07a3c333ae678e112 OP_EQUAL",
            "hex": "a9149370ce23391838baf61e58f07a3c333ae678e11287",
            "reqSigs": 1,
            "type": "scripthash",
            "addresses": [
              "MMLkhURmYvZu5wddicra8BDzCnsFaYPTtf"
            ]
          }
        }
      ],
      "hex": "010000000001017330a8d8ebed85e31e590b40d95ff95e72c32cfb5f6da9d6fe0135416dc92d980000000023220020bcf9f822194145acea0f3235f4107b5bf1a91b6b9f8489f63bf79ec29b360913ffffffff027fbc1e070000000017a91430897cc6c9d69f6a2c2f1c651d51f22219f1a4f687baeeab050000000017a9149370ce23391838baf61e58f07a3c333ae678e112870400483045022100d9ce593d5c538e8114f2361783743b47f0c727bf53595de0cb3f05f21541e0cf02207016d3100c71a3594f422911664cb3ecdc08da6451c2dad4f0d85b43f977c1b901483045022100c93327c6109d1e33e48b7a98392a2e1b897b8290caedc494f8db2aab7dc218fe0220168f9c4ab9da7ec5fab74684ec80baec19adfcfa96bd7af8858060a30d95afb701695221026c8f72b9e63db63907115e65d4da86eaae595b22fdc85ec75301bb4adbf203582103806535be3e3920e5eedee92de5714188fd6a784f2bf7b04f87de0b9c3ae1ecdb21024b23bfdce2afcae7e28c42f7f79aa100f22931712c52d7414a526ba494d44a2553ae00000000"
    }, 
    {
      "txid": "2847048e4e421286349867d1bc1689a2c69ced822ac05200da6d92a4b04dfa14",
      "hash": "2847048e4e421286349867d1bc1689a2c69ced822ac05200da6d92a4b04dfa14",
      "version": 2,
      "size": 225,
      "vsize": 225,
      "locktime": 1359011,
      "vin": [
        {
          "txid": "cdc166d82e99aa61dc7f503b92c6ccc503251726ee5f1b8171a0f7dbd5f4118f",
          "vout": 0,
          "scriptSig": {
            "asm": "304402205e983d7345640ad14821b170ec1c36bb1e4221ada1195fbece2f12bc8734b15302205aacfa3b88b2e6d2b6075c0d3c0853c4d23d6e1191da25ac3f51a71e159fce36[ALL] 032c4977141f4899bb0f3eef338d5e7c09f4884f8a1fe18c8032475d9aef408b58",
            "hex": "47304402205e983d7345640ad14821b170ec1c36bb1e4221ada1195fbece2f12bc8734b15302205aacfa3b88b2e6d2b6075c0d3c0853c4d23d6e1191da25ac3f51a71e159fce360121032c4977141f4899bb0f3eef338d5e7c09f4884f8a1fe18c8032475d9aef408b58"
          },
          "sequence": 4294967294
        }
      ],
      "vout": [
        {
          "value": 0.14846324,
          "n": 0,
          "scriptPubKey": {
            "asm": "OP_DUP OP_HASH160 7334c90a57418564eb399e3aeee6beabf55f0ee0 OP_EQUALVERIFY OP_CHECKSIG",
            "hex": "76a9147334c90a57418564eb399e3aeee6beabf55f0ee088ac",
            "reqSigs": 1,
            "type": "pubkeyhash",
            "addresses": [
              "LVj7Crv6bDT78TkLeZEs67LXEH8z9pfvex"
            ]
          }
        }, 
        {
          "value": 0.26449429,
          "n": 1,
          "scriptPubKey": {
            "asm": "OP_DUP OP_HASH160 1f0bc8c1303bc374ae963380e5644daa45020652 OP_EQUALVERIFY OP_CHECKSIG",
            "hex": "76a9141f0bc8c1303bc374ae963380e5644daa4502065288ac",
            "reqSigs": 1,
            "type": "pubkeyhash",
            "addresses": [
              "LN47KwV15QKJoRKprHM5FHTuTBN6wWyaWQ"
            ]
          }
        }
      ],
      "hex": "02000000018f11f4d5dbf7a071811b5fee26172503c5ccc6923b507fdc61aa992ed866c1cd000000006a47304402205e983d7345640ad14821b170ec1c36bb1e4221ada1195fbece2f12bc8734b15302205aacfa3b88b2e6d2b6075c0d3c0853c4d23d6e1191da25ac3f51a71e159fce360121032c4977141f4899bb0f3eef338d5e7c09f4884f8a1fe18c8032475d9aef408b58feffffff027489e200000000001976a9147334c90a57418564eb399e3aeee6beabf55f0ee088ac15969301000000001976a9141f0bc8c1303bc374ae963380e5644daa4502065288aca3bc1400"
    }, 
    {
      "txid": "e64f09cbb9783bab9aa2e4fceba411ff6c745c2c3f6ab819a2f05fda5a59db1a",
      "hash": "e64f09cbb9783bab9aa2e4fceba411ff6c745c2c3f6ab819a2f05fda5a59db1a",
      "version": 2,
      "size": 225,
      "vsize": 225,
      "locktime": 1359011,
      "vin": [
        {
          "txid": "8c61d39cf67c4aae7c6d2dad8cb5f04d26949a6403f4c7f334322147cb1b3b66",
          "vout": 0,
          "scriptSig": {
            "asm": "3044022064b93aeac532ad572a2b84b6f2ff5e1da2f6223278ad33b3c90066e2484fd89702203d8fd4332f359e3e214b448d3f5814d92f6378771d36efcfa455bb76d1a68be9[ALL] 025bfbd40c851ec7871647ab840003fd2e8672a2470b7cd652e97f71da630c9099",
            "hex": "473044022064b93aeac532ad572a2b84b6f2ff5e1da2f6223278ad33b3c90066e2484fd89702203d8fd4332f359e3e214b448d3f5814d92f6378771d36efcfa455bb76d1a68be90121025bfbd40c851ec7871647ab840003fd2e8672a2470b7cd652e97f71da630c9099"
          },
          "sequence": 4294967294
        }
      ],
      "vout": [
        {
          "value": 0.05477400,
          "n": 0,
          "scriptPubKey": {
            "asm": "OP_DUP OP_HASH160 3341fd43fdf924c1bbff4fdc5afa689593e68d75 OP_EQUALVERIFY OP_CHECKSIG",
            "hex": "76a9143341fd43fdf924c1bbff4fdc5afa689593e68d7588ac",
            "reqSigs": 1,
            "type": "pubkeyhash",
            "addresses": [
              "LPtyn1oQLSQUJK6HuR2sCi7MeA9SKAWaMU"
            ]
          }
        }, 
        {
          "value": 1.74500000,
          "n": 1,
          "scriptPubKey": {
            "asm": "OP_DUP OP_HASH160 e09656067e49babc6f01c94abc2b770caa3f79c0 OP_EQUALVERIFY OP_CHECKSIG",
            "hex": "76a914e09656067e49babc6f01c94abc2b770caa3f79c088ac",
            "reqSigs": 1,
            "type": "pubkeyhash",
            "addresses": [
              "LfhTiiN41L7ftkMRbF6oPg7txZt9NMF4mK"
            ]
          }
        }
      ],
      "hex": "0200000001663b1bcb47213234f3c7f403649a94264df0b58cad2d6d7cae4a7cf69cd3618c000000006a473044022064b93aeac532ad572a2b84b6f2ff5e1da2f6223278ad33b3c90066e2484fd89702203d8fd4332f359e3e214b448d3f5814d92f6378771d36efcfa455bb76d1a68be90121025bfbd40c851ec7871647ab840003fd2e8672a2470b7cd652e97f71da630c9099feffffff0218945300000000001976a9143341fd43fdf924c1bbff4fdc5afa689593e68d7588aca0a8660a000000001976a914e09656067e49babc6f01c94abc2b770caa3f79c088aca3bc1400"
    }, 
    {
      "txid": "0353335fb7f234386eeb6569822a0e8ecc8731d22a5dd0b25f2e16dcf167b2fb",
      "hash": "0353335fb7f234386eeb6569822a0e8ecc8731d22a5dd0b25f2e16dcf167b2fb",
      "version": 1,
      "size": 373,
      "vsize": 373,
      "locktime": 1359011,
      "vin": [
        {
          "txid": "5a59ce05bb0518e3fd1bae978d5d9096e7ccc1e01765d946ea318611750dd840",
          "vout": 0,
          "scriptSig": {
            "asm": "3045022100aa7e27a46a90f1d262af72068d2278877462470292b7611c0226399f872ac2a90220797a07e1d223e52d5164ba9c0b57e0800e347d4ddd6d728d7931c0092720b92c[ALL] 033cdbeba01095c85170d65145c1be07c8d86f5f1f7bda6ea25bfbca259f9cf28c",
            "hex": "483045022100aa7e27a46a90f1d262af72068d2278877462470292b7611c0226399f872ac2a90220797a07e1d223e52d5164ba9c0b57e0800e347d4ddd6d728d7931c0092720b92c0121033cdbeba01095c85170d65145c1be07c8d86f5f1f7bda6ea25bfbca259f9cf28c"
          },
          "sequence": 4294967294
        }, 
        {
          "txid": "d6b617552f95ac0bf0377f610ee4d6ffb9708f81b00a3ee49fdf1bed86faf4db",
          "vout": 1,
          "scriptSig": {
            "asm": "304402206c9945ef212c38bd9e37a7b4ef356302c83018890ed031164f7468df97a5310a02200fe843ae06ff638a885e05f9719c5ad3f75038d045a1640d1c8a9b7aedfd0e51[ALL] 028a2ff2be1b6ae5c2ac9038e2424dd2f207c8519d20fc095c1be5a17ad0b55b7d",
            "hex": "47304402206c9945ef212c38bd9e37a7b4ef356302c83018890ed031164f7468df97a5310a02200fe843ae06ff638a885e05f9719c5ad3f75038d045a1640d1c8a9b7aedfd0e510121028a2ff2be1b6ae5c2ac9038e2424dd2f207c8519d20fc095c1be5a17ad0b55b7d"
          },
          "sequence": 4294967294
        }
      ],
      "vout": [
        {
          "value": 0.30000000,
          "n": 0,
          "scriptPubKey": {
            "asm": "OP_DUP OP_HASH160 030f9071abfa2e6be91eb309df61a5e7a803e188 OP_EQUALVERIFY OP_CHECKSIG",
            "hex": "76a914030f9071abfa2e6be91eb309df61a5e7a803e18888ac",
            "reqSigs": 1,
            "type": "pubkeyhash",
            "addresses": [
              "LKW8wDAHyvyPQpR72qSmovGoz1RCVF1vB2"
            ]
          }
        }, 
        {
          "value": 0.01074198,
          "n": 1,
          "scriptPubKey": {
            "asm": "OP_DUP OP_HASH160 42c3a0d0086ea47b9684851918940e743f01c823 OP_EQUALVERIFY OP_CHECKSIG",
            "hex": "76a91442c3a0d0086ea47b9684851918940e743f01c82388ac",
            "reqSigs": 1,
            "type": "pubkeyhash",
            "addresses": [
              "LRJyDMhSWTUoA4DL99LvKqJgsH18LnNq6b"
            ]
          }
        }
      ],
      "hex": "010000000240d80d75118631ea46d96517e0c1cce796905d8d97ae1bfde31805bb05ce595a000000006b483045022100aa7e27a46a90f1d262af72068d2278877462470292b7611c0226399f872ac2a90220797a07e1d223e52d5164ba9c0b57e0800e347d4ddd6d728d7931c0092720b92c0121033cdbeba01095c85170d65145c1be07c8d86f5f1f7bda6ea25bfbca259f9cf28cfeffffffdbf4fa86ed1bdf9fe43e0ab0818f70b9ffd6e40e617f37f00bac952f5517b6d6010000006a47304402206c9945ef212c38bd9e37a7b4ef356302c83018890ed031164f7468df97a5310a02200fe843ae06ff638a885e05f9719c5ad3f75038d045a1640d1c8a9b7aedfd0e510121028a2ff2be1b6ae5c2ac9038e2424dd2f207c8519d20fc095c1be5a17ad0b55b7dfeffffff0280c3c901000000001976a914030f9071abfa2e6be91eb309df61a5e7a803e18888ac16641000000000001976a91442c3a0d0086ea47b9684851918940e743f01c82388aca3bc1400"
    }, 
    {
      "txid": "b626dd8987be3717e5402e85ddbc199b3d9d4179d1b8805bc86dec4ad5da3f18",
      "hash": "b626dd8987be3717e5402e85ddbc199b3d9d4179d1b8805bc86dec4ad5da3f18",
      "version": 1,
      "size": 225,
      "vsize": 225,
      "locktime": 1358934,
      "vin": [
        {
          "txid": "46738368adec5a1980f10fee63eacc75fd9d2589b083206dc63ce4100a63355a",
          "vout": 0,
          "scriptSig": {
            "asm": "3044022024767eb50b1628541e76be6f5fdbab75d969e4e30a6f7d28c0f6737a6bca9a1c022073989ddee156b1cc25865aee000f22d2026d0bf3b7506d71dc62f8daf67e90cd[ALL] 0286e5716b10a390e5a149dd2d2517897d3a3024f090dc38bc550ca6826d7a0006",
            "hex": "473044022024767eb50b1628541e76be6f5fdbab75d969e4e30a6f7d28c0f6737a6bca9a1c022073989ddee156b1cc25865aee000f22d2026d0bf3b7506d71dc62f8daf67e90cd01210286e5716b10a390e5a149dd2d2517897d3a3024f090dc38bc550ca6826d7a0006"
          },
          "sequence": 4294967294
        }
      ],
      "vout": [
        {
          "value": 1.79328937,
          "n": 0,
          "scriptPubKey": {
            "asm": "OP_DUP OP_HASH160 0d4eb7dea4fc4135da186375b707b55298c0c0ad OP_EQUALVERIFY OP_CHECKSIG",
            "hex": "76a9140d4eb7dea4fc4135da186375b707b55298c0c0ad88ac",
            "reqSigs": 1,
            "type": "pubkeyhash",
            "addresses": [
              "LLSKM9Rfu9tAbrbw1Lr123FHkoTbks3oUx"
            ]
          }
        }, 
        {
          "value": 0.05208563,
          "n": 1,
          "scriptPubKey": {
            "asm": "OP_DUP OP_HASH160 ed9b0d6952260b5d0eaca1faf27ff9938e542fbe OP_EQUALVERIFY OP_CHECKSIG",
            "hex": "76a914ed9b0d6952260b5d0eaca1faf27ff9938e542fbe88ac",
            "reqSigs": 1,
            "type": "pubkeyhash",
            "addresses": [
              "LgtJ9uUo2BMZoRzJX1DHrv1za4LAe824zN"
            ]
          }
        }
      ],
      "hex": "01000000015a35630a10e43cc66d2083b089259dfd75ccea63ee0ff180195aecad68837346000000006a473044022024767eb50b1628541e76be6f5fdbab75d969e4e30a6f7d28c0f6737a6bca9a1c022073989ddee156b1cc25865aee000f22d2026d0bf3b7506d71dc62f8daf67e90cd01210286e5716b10a390e5a149dd2d2517897d3a3024f090dc38bc550ca6826d7a0006feffffff02a957b00a000000001976a9140d4eb7dea4fc4135da186375b707b55298c0c0ad88acf3794f00000000001976a914ed9b0d6952260b5d0eaca1faf27ff9938e542fbe88ac56bc1400"
    }, 
    {
      "txid": "0ea4bbeb032a25504aed87bf5f3203c272e626ebc08d572bb1ab395d98c21431",
      "hash": "0ea4bbeb032a25504aed87bf5f3203c272e626ebc08d572bb1ab395d98c21431",
      "version": 1,
      "size": 226,
      "vsize": 226,
      "locktime": 0,
      "vin": [
        {
          "txid": "56bff94bfb4b8d6644dc384f9e442e99017d3e9b8eaa98e391b2105d4b4e843f",
          "vout": 0,
          "scriptSig": {
            "asm": "3045022100b01ed7f0cbc05c891c629f5adb44e16b4e4eba386a4f97011f7bde3b64f243e50220273b1da3756d8802036d150de41495c3db2c475281302f57668f301b49adfbbd[ALL] 02b6656cdaddea9bcca69a3ac887272e3898c003f15dc815daa8076ef9c80d0c8a",
            "hex": "483045022100b01ed7f0cbc05c891c629f5adb44e16b4e4eba386a4f97011f7bde3b64f243e50220273b1da3756d8802036d150de41495c3db2c475281302f57668f301b49adfbbd012102b6656cdaddea9bcca69a3ac887272e3898c003f15dc815daa8076ef9c80d0c8a"
          },
          "sequence": 4294967295
        }
      ],
      "vout": [
        {
          "value": 6.28694685,
          "n": 0,
          "scriptPubKey": {
            "asm": "OP_DUP OP_HASH160 844f3eb391f0d2802aac354571a6f266bebbfe23 OP_EQUALVERIFY OP_CHECKSIG",
            "hex": "76a914844f3eb391f0d2802aac354571a6f266bebbfe2388ac",
            "reqSigs": 1,
            "type": "pubkeyhash",
            "addresses": [
              "LXHYPZwRmABoQRE1JUZwv7a2bmw52je7Lj"
            ]
          }
        }, 
        {
          "value": 2.70812715,
          "n": 1,
          "scriptPubKey": {
            "asm": "OP_DUP OP_HASH160 a13b060f4978fb3b5cbd591a1ac29ad98ea52d91 OP_EQUALVERIFY OP_CHECKSIG",
            "hex": "76a914a13b060f4978fb3b5cbd591a1ac29ad98ea52d9188ac",
            "reqSigs": 1,
            "type": "pubkeyhash",
            "addresses": [
              "LZvTm8jsgKTHrm1thCdyjxXDLQAAiDokUM"
            ]
          }
        }
      ],
      "hex": "01000000013f844e4b5d10b291e398aa8e9b3e7d01992e449e4f38dc44668d4bfb4bf9bf56000000006b483045022100b01ed7f0cbc05c891c629f5adb44e16b4e4eba386a4f97011f7bde3b64f243e50220273b1da3756d8802036d150de41495c3db2c475281302f57668f301b49adfbbd012102b6656cdaddea9bcca69a3ac887272e3898c003f15dc815daa8076ef9c80d0c8affffffff029d1e7925000000001976a914844f3eb391f0d2802aac354571a6f266bebbfe2388ac2b462410000000001976a914a13b060f4978fb3b5cbd591a1ac29ad98ea52d9188ac00000000"
    }, 
    {
      "txid": "75fed4535da52fbdd5ea2df9ea1d522deda0f578eb917b2e64ea5fb69016a462",
      "hash": "75fed4535da52fbdd5ea2df9ea1d522deda0f578eb917b2e64ea5fb69016a462",
      "version": 1,
      "size": 226,
      "vsize": 226,
      "locktime": 0,
      "vin": [
        {
          "txid": "f816f05b4b8b9b751c680685e68922276aa0c5297c19c2bb1341e63ff190f9b1",
          "vout": 0,
          "scriptSig": {
            "asm": "304502210097beafe92122a891dcc6b025b20d5de020289de6427b2328816236e8bc469b1502203f07f2ced7dad84a172bf9bdca54babc5689c0727be33c8248ef53b6f4b3b6a0[ALL] 03d6e429ba76cd96af6734b8222c2f38aec7535536ec085079bc236cd221643df5",
            "hex": "48304502210097beafe92122a891dcc6b025b20d5de020289de6427b2328816236e8bc469b1502203f07f2ced7dad84a172bf9bdca54babc5689c0727be33c8248ef53b6f4b3b6a0012103d6e429ba76cd96af6734b8222c2f38aec7535536ec085079bc236cd221643df5"
          },
          "sequence": 4294967295
        }
      ],
      "vout": [
        {
          "value": 0.00105564,
          "n": 0,
          "scriptPubKey": {
            "asm": "OP_DUP OP_HASH160 400c3861c5e2d3da56ff44fe34bef1fc03ab28ae OP_EQUALVERIFY OP_CHECKSIG",
            "hex": "76a914400c3861c5e2d3da56ff44fe34bef1fc03ab28ae88ac",
            "reqSigs": 1,
            "type": "pubkeyhash",
            "addresses": [
              "LR4c9ZsAReVVjtNhM4dzoRG8kU4uZt6WsS"
            ]
          }
        }, 
        {
          "value": 0.16540536,
          "n": 1,
          "scriptPubKey": {
            "asm": "OP_DUP OP_HASH160 d2fa8374364c0b72434706dfe3111a723b7f2f4b OP_EQUALVERIFY OP_CHECKSIG",
            "hex": "76a914d2fa8374364c0b72434706dfe3111a723b7f2f4b88ac",
            "reqSigs": 1,
            "type": "pubkeyhash",
            "addresses": [
              "LeTWGUntCAgLYxzPWNc4BqEoJMVe7fRMjU"
            ]
          }
        }
      ],
      "hex": "0100000001b1f990f13fe64113bbc2197c29c5a06a272289e68506681c759b8b4b5bf016f8000000006b48304502210097beafe92122a891dcc6b025b20d5de020289de6427b2328816236e8bc469b1502203f07f2ced7dad84a172bf9bdca54babc5689c0727be33c8248ef53b6f4b3b6a0012103d6e429ba76cd96af6734b8222c2f38aec7535536ec085079bc236cd221643df5ffffffff025c9c0100000000001976a914400c3861c5e2d3da56ff44fe34bef1fc03ab28ae88ac7863fc00000000001976a914d2fa8374364c0b72434706dfe3111a723b7f2f4b88ac00000000"
    }, 
    {
      "txid": "e49589e5d0daeb1f154d29016748cd93f6489be48a2971b22acb99606d129b9b",
      "hash": "e49589e5d0daeb1f154d29016748cd93f6489be48a2971b22acb99606d129b9b",
      "version": 1,
      "size": 226,
      "vsize": 226,
      "locktime": 1359011,
      "vin": [
        {
          "txid": "82c76a8e953fba9224ced53cf11055ca5d69390ca7a8ec3200dc1aad0f5bd76a",
          "vout": 31,
          "scriptSig": {
            "asm": "3045022100b41f0354f902a6f6c7b2f602caadc5af933f5fa5f6084d8b1c3691f303fb7786022073f90a647d6266d06e9cb17043e211e62a28df38249deaf832ab38e4c1e36ba5[ALL] 03fa86f0113b7c40d7b690addffe612573f309fae87777d4a1cd44d27cd170cad8",
            "hex": "483045022100b41f0354f902a6f6c7b2f602caadc5af933f5fa5f6084d8b1c3691f303fb7786022073f90a647d6266d06e9cb17043e211e62a28df38249deaf832ab38e4c1e36ba5012103fa86f0113b7c40d7b690addffe612573f309fae87777d4a1cd44d27cd170cad8"
          },
          "sequence": 4294967294
        }
      ],
      "vout": [
        {
          "value": 0.06152007,
          "n": 0,
          "scriptPubKey": {
            "asm": "OP_DUP OP_HASH160 130a88e532be0609dea4039d950786c2a7bf6d67 OP_EQUALVERIFY OP_CHECKSIG",
            "hex": "76a914130a88e532be0609dea4039d950786c2a7bf6d6788ac",
            "reqSigs": 1,
            "type": "pubkeyhash",
            "addresses": [
              "LLxdipo6hKa9m5REet5UMJiKZZjedBEp74"
            ]
          }
        }, 
        {
          "value": 0.92825393,
          "n": 1,
          "scriptPubKey": {
            "asm": "OP_DUP OP_HASH160 dbea3b4609dd27771cc15689a6beb9eb00bf7100 OP_EQUALVERIFY OP_CHECKSIG",
            "hex": "76a914dbea3b4609dd27771cc15689a6beb9eb00bf710088ac",
            "reqSigs": 1,
            "type": "pubkeyhash",
            "addresses": [
              "LfGkqv74bvK9hUtYP1ELxfX1WJK2sDjBAe"
            ]
          }
        }
      ],
      "hex": "01000000016ad75b0fad1adc0032eca8a70c39695dca5510f13cd5ce2492ba3f958e6ac7821f0000006b483045022100b41f0354f902a6f6c7b2f602caadc5af933f5fa5f6084d8b1c3691f303fb7786022073f90a647d6266d06e9cb17043e211e62a28df38249deaf832ab38e4c1e36ba5012103fa86f0113b7c40d7b690addffe612573f309fae87777d4a1cd44d27cd170cad8feffffff0247df5d00000000001976a914130a88e532be0609dea4039d950786c2a7bf6d6788ac31678805000000001976a914dbea3b4609dd27771cc15689a6beb9eb00bf710088aca3bc1400"
    }, 
    {
      "txid": "47b2ad58f6e05e453b7b491a80db23fb16f16e0101536162e25a5d4e82caedfc",
      "hash": "47b2ad58f6e05e453b7b491a80db23fb16f16e0101536162e25a5d4e82caedfc",
      "version": 1,
      "size": 226,
      "vsize": 226,
      "locktime": 0,
      "vin": [
        {
          "txid": "11887fde845f4f79cdc5e93190929acf994cae19a74483ebc9369daf0843bb11",
          "vout": 0,
          "scriptSig": {
            "asm": "3045022100a3371465b56c998a1f4853422d0f8689e5554dc1bfd6ab9022f8aab76b52d95302200cc50ce7ad18620299aa9ca63bf84e303e0fdd90e2ad67972e1d8d31c8798344[ALL] 02215a3118963029b0c0f1aaa040f6da1538f7a2fa5363ff9218dfb1eea3fb498b",
            "hex": "483045022100a3371465b56c998a1f4853422d0f8689e5554dc1bfd6ab9022f8aab76b52d95302200cc50ce7ad18620299aa9ca63bf84e303e0fdd90e2ad67972e1d8d31c8798344012102215a3118963029b0c0f1aaa040f6da1538f7a2fa5363ff9218dfb1eea3fb498b"
          },
          "sequence": 4294967295
        }
      ],
      "vout": [
        {
          "value": 10.11522510,
          "n": 0,
          "scriptPubKey": {
            "asm": "OP_DUP OP_HASH160 e2782bcbae474675ef7d4b4b886f9dc80b210d0f OP_EQUALVERIFY OP_CHECKSIG",
            "hex": "76a914e2782bcbae474675ef7d4b4b886f9dc80b210d0f88ac",
            "reqSigs": 1,
            "type": "pubkeyhash",
            "addresses": [
              "LfsQwCXHSX3b2YbVukgLbcJVx5kayGXzZt"
            ]
          }
        }, 
        {
          "value": 54.80984340,
          "n": 1,
          "scriptPubKey": {
            "asm": "OP_DUP OP_HASH160 5206a119fb4954fa1e39f56740d156afd4283082 OP_EQUALVERIFY OP_CHECKSIG",
            "hex": "76a9145206a119fb4954fa1e39f56740d156afd428308288ac",
            "reqSigs": 1,
            "type": "pubkeyhash",
            "addresses": [
              "LShfcZ9iyYspx8DQ5YtNLpzNW9dEwU7DA4"
            ]
          }
        }
      ],
      "hex": "010000000111bb4308af9d36c9eb8344a719ae4c99cf9a929031e9c5cd794f5f84de7f8811000000006b483045022100a3371465b56c998a1f4853422d0f8689e5554dc1bfd6ab9022f8aab76b52d95302200cc50ce7ad18620299aa9ca63bf84e303e0fdd90e2ad67972e1d8d31c8798344012102215a3118963029b0c0f1aaa040f6da1538f7a2fa5363ff9218dfb1eea3fb498bffffffff02ce9b4a3c000000001976a914e2782bcbae474675ef7d4b4b886f9dc80b210d0f88ac142fb146010000001976a9145206a119fb4954fa1e39f56740d156afd428308288ac00000000"
    }
  ],
  "time": 1517223895,
  "mediantime": 1517223424,
  "nonce": 1659946921,
  "bits": "1a042eae",
  "difficulty": 4011378.762614286,
  "chainwork": "0000000000000000000000000000000000000000000000339ba428c7f373ef4c",
  "previousblockhash": "167d73fb5157d36ca804308e8b0908133e15c953329fcc127aade4160a342b15",
  "nextblockhash": "bfbfe5767cb2f778f3441c0c193942eea3d926417d031040cd7fe19206a9649c"
}
