{
  "hash": "25344b740b3ecbd013384092a732a1df965ab59b7f222665588523e7a7312216",
  "confirmations": 2017,
  "strippedsize": 917,
  "size": 953,
  "weight": 3704,
  "height": 1358977,
  "version": 536870912,
  "versionHex": "20000000",
  "merkleroot": "637e35c413e6bd55472a377c77a4daf0a810af39bb2864f5c6cb3938854cb983",
  "tx": [
    {
      "txid": "539d0b4bb914d68df3a542157a073061b5052b203e2328207e9f587f4d35c9bd",
      "hash": "2a0a9db38866ed136b094e339e66d6e817a05beb7ad3cb257efeb8aa5355751d",
      "version": 1,
      "size": 200,
      "vsize": 173,
      "locktime": 0,
      "vin": [
        {
          "coinbase": "0381bc1404c4f06e5a0807fffe63a10300000d2f6e6f64655374726174756d2f",
          "sequence": 0
        }
      ],
      "vout": [
        {
          "value": 0.00000000,
          "n": 0,
          "scriptPubKey": {
            "asm": "OP_RETURN aa21a9ed14b8f995c3cac594d41133dc26196ad2d64fc70b0129d319515506780a750b62",
            "hex": "6a24aa21a9ed14b8f995c3cac594d41133dc26196ad2d64fc70b0129d319515506780a750b62",
            "type": "nulldata"
          }
        }, 
        {
          "value": 25.00336914,
          "n": 1,
          "scriptPubKey": {
            "asm": "OP_DUP OP_HASH160 8836a0d567257e801254e29be08629fb71f36f9f OP_EQUALVERIFY OP_CHECKSIG",
            "hex": "76a9148836a0d567257e801254e29be08629fb71f36f9f88ac",
            "reqSigs": 1,
            "type": "pubkeyhash",
            "addresses": [
              "LXeBbwTXnzwSUzSbVubDZu4brFzmMjehn3"
            ]
          }
        }
      ],
      "hex": "010000000001010000000000000000000000000000000000000000000000000000000000000000ffffffff200381bc1404c4f06e5a0807fffe63a10300000d2f6e6f64655374726174756d2f00000000020000000000000000266a24aa21a9ed14b8f995c3cac594d41133dc26196ad2d64fc70b0129d319515506780a750b62121d0895000000001976a9148836a0d567257e801254e29be08629fb71f36f9f88ac0120000000000000000000000000000000000000000000000000000000000000000000000000"
    }, 
    {
      "txid": "42b6ec4938843d3142e519e39d05672af44ea02dce3b2ee3d1c470c215286311",
      "hash": "42b6ec4938843d3142e519e39d05672af44ea02dce3b2ee3d1c470c215286311",
      "version": 1,
      "size": 225,
      "vsize": 225,
      "locktime": 0,
      "vin": [
        {
          "txid": "41ef7c92afd95042a3f35e04a423b4c133914ab1fcfb45105f581fd65c9fec84",
          "vout": 298,
          "scriptSig": {
            "asm": "304402206cc785c33bd316b41c5f4987b467e669b1daebdb960e3ddf3ccb56337e0bdc09022031c63d99d594c36fdfed4c8d85893c5e2386f157749318235b3715085465255b[ALL] 0359e85a960a1d65e36735dc80f06c7273b313a9855e3f759e713bdd7a44af7609",
            "hex": "47304402206cc785c33bd316b41c5f4987b467e669b1daebdb960e3ddf3ccb56337e0bdc09022031c63d99d594c36fdfed4c8d85893c5e2386f157749318235b3715085465255b01210359e85a960a1d65e36735dc80f06c7273b313a9855e3f759e713bdd7a44af7609"
          },
          "sequence": 4294967295
        }
      ],
      "vout": [
        {
          "value": 0.01012757,
          "n": 0,
          "scriptPubKey": {
            "asm": "OP_DUP OP_HASH160 449938333c5974ee3c1ce1ea51761dddf3de0971 OP_EQUALVERIFY OP_CHECKSIG",
            "hex": "76a914449938333c5974ee3c1ce1ea51761dddf3de097188ac",
            "reqSigs": 1,
            "type": "pubkeyhash",
            "addresses": [
              "LRUfm8ukDt6aagBpUEtuc45w1Jft5NLhDd"
            ]
          }
        }, 
        {
          "value": 0.04658273,
          "n": 1,
          "scriptPubKey": {
            "asm": "OP_DUP OP_HASH160 8562175a54ad7dd705692deea2da42e52fe2ec14 OP_EQUALVERIFY OP_CHECKSIG",
            "hex": "76a9148562175a54ad7dd705692deea2da42e52fe2ec1488ac",
            "reqSigs": 1,
            "type": "pubkeyhash",
            "addresses": [
              "LXPDeDwyA2Ng4t8icPMfdQaRFHtde8dmNu"
            ]
          }
        }
      ],
      "hex": "010000000184ec9f5cd61f585f1045fbfcb14a9133c1b423a4045ef3a34250d9af927cef412a0100006a47304402206cc785c33bd316b41c5f4987b467e669b1daebdb960e3ddf3ccb56337e0bdc09022031c63d99d594c36fdfed4c8d85893c5e2386f157749318235b3715085465255b01210359e85a960a1d65e36735dc80f06c7273b313a9855e3f759e713bdd7a44af7609ffffffff0215740f00000000001976a914449938333c5974ee3c1ce1ea51761dddf3de097188ac61144700000000001976a9148562175a54ad7dd705692deea2da42e52fe2ec1488ac00000000"
    }, 
    {
      "txid": "ecedaa48c07fd79a4bcae9e7526660fbfaf40b733624de983a2596028239eb09",
      "hash": "ecedaa48c07fd79a4bcae9e7526660fbfaf40b733624de983a2596028239eb09",
      "version": 1,
      "size": 223,
      "vsize": 223,
      "locktime": 0,
      "vin": [
        {
          "txid": "3effe8841615b49a7f11d1ac83ba353e822b244872de71250b632a0f6e4d7c27",
          "vout": 1,
          "scriptSig": {
            "asm": "304402207f323b22b500ebeb023f3d6b2fcc61109e86e2c099c02e1e8cc7f8817c20e5520220729dcba9631405ee69b6f42a774e34ed3a076b3651312398a9ae492579b35673[ALL] 030e72c539bc198825c58beac8733905312f636ea3d885aa2795077f75aed2908d",
            "hex": "47304402207f323b22b500ebeb023f3d6b2fcc61109e86e2c099c02e1e8cc7f8817c20e5520220729dcba9631405ee69b6f42a774e34ed3a076b3651312398a9ae492579b356730121030e72c539bc198825c58beac8733905312f636ea3d885aa2795077f75aed2908d"
          },
          "sequence": 4294967295
        }
      ],
      "vout": [
        {
          "value": 4.29000000,
          "n": 0,
          "scriptPubKey": {
            "asm": "OP_HASH160 020a1b7b088de3e0d0b400932a2848886e26253f OP_EQUAL",
            "hex": "a914020a1b7b088de3e0d0b400932a2848886e26253f87",
            "reqSigs": 1,
            "type": "scripthash",
            "addresses": [
              "M85wh5rjft7c13Lnyc6DtiUAtHoNn2g4AG"
            ]
          }
        }, 
        {
          "value": 35.79450791,
          "n": 1,
          "scriptPubKey": {
            "asm": "OP_DUP OP_HASH160 48d29975585dddf3462a0338adb95136e2f0c511 OP_EQUALVERIFY OP_CHECKSIG",
            "hex": "76a91448d29975585dddf3462a0338adb95136e2f0c51188ac",
            "reqSigs": 1,
            "type": "pubkeyhash",
            "addresses": [
              "LRs1CjLz6gEjHyWbSH7HznJTgbYA4aCDPs"
            ]
          }
        }
      ],
      "hex": "0100000001277c4d6e0f2a630b2571de7248242b823e35ba83acd1117f9ab4151684e8ff3e010000006a47304402207f323b22b500ebeb023f3d6b2fcc61109e86e2c099c02e1e8cc7f8817c20e5520220729dcba9631405ee69b6f42a774e34ed3a076b3651312398a9ae492579b356730121030e72c539bc198825c58beac8733905312f636ea3d885aa2795077f75aed2908dffffffff02400592190000000017a914020a1b7b088de3e0d0b400932a2848886e26253f87a7155ad5000000001976a91448d29975585dddf3462a0338adb95136e2f0c51188ac00000000"
    }, 
    {
      "txid": "9560a2f170d78f3ebc1164582136d10979ab4f92ce2a04890914ed51d4c691e2",
      "hash": "9560a2f170d78f3ebc1164582136d10979ab4f92ce2a04890914ed51d4c691e2",
      "version": 2,
      "size": 224,
      "vsize": 224,
      "locktime": 0,
      "vin": [
        {
          "txid": "08383ea4c5b82f03002321610a775864dd44ab5bb53d2f74ec45103936b8c7c3",
          "vout": 0,
          "scriptSig": {
            "asm": "3045022100816657dc104b728c3f5fb41a94cd7fbf33785f7a83345445c0a519bfeb42df00022072f3086d3aedc393a387ab46f1172ff78787d203f1fd0c05af3709e5b7aa7bb3[ALL] 02e65be90836703c06c4f0263ce48c35de901b50b1483d08edcffe4fdc572b28c8",
            "hex": "483045022100816657dc104b728c3f5fb41a94cd7fbf33785f7a83345445c0a519bfeb42df00022072f3086d3aedc393a387ab46f1172ff78787d203f1fd0c05af3709e5b7aa7bb3012102e65be90836703c06c4f0263ce48c35de901b50b1483d08edcffe4fdc572b28c8"
          },
          "sequence": 4294967295
        }
      ],
      "vout": [
        {
          "value": 0.02977099,
          "n": 0,
          "scriptPubKey": {
            "asm": "OP_DUP OP_HASH160 cb5433b419d9d740c20cacdc53db94bc37695e4c OP_EQUALVERIFY OP_CHECKSIG",
            "hex": "76a914cb5433b419d9d740c20cacdc53db94bc37695e4c88ac",
            "reqSigs": 1,
            "type": "pubkeyhash",
            "addresses": [
              "Ldm4JcKfJdQp8s2kqFskRrcKxSie6DJ45W"
            ]
          }
        }, 
        {
          "value": 0.07051232,
          "n": 1,
          "scriptPubKey": {
            "asm": "OP_HASH160 416bbf17792f48595d7cc6e641bca36de289f32f OP_EQUAL",
            "hex": "a914416bbf17792f48595d7cc6e641bca36de289f32f87",
            "reqSigs": 1,
            "type": "scripthash",
            "addresses": [
              "MDs5EFgLaardWmQ3AhD3LtqBF4v2jAjBQa"
            ]
          }
        }
      ],
      "hex": "0200000001c3c7b836391045ec742f3db55bab44dd6458770a61212300032fb8c5a43e3808000000006b483045022100816657dc104b728c3f5fb41a94cd7fbf33785f7a83345445c0a519bfeb42df00022072f3086d3aedc393a387ab46f1172ff78787d203f1fd0c05af3709e5b7aa7bb3012102e65be90836703c06c4f0263ce48c35de901b50b1483d08edcffe4fdc572b28c8ffffffff024b6d2d00000000001976a914cb5433b419d9d740c20cacdc53db94bc37695e4c88ace0976b000000000017a914416bbf17792f48595d7cc6e641bca36de289f32f8700000000"
    }
  ],
  "time": 1517220036,
  "mediantime": 1517219362,
  "nonce": 352674826,
  "bits": "1a042eae",
  "difficulty": 4011378.762614286,
  "chainwork": "00000000000000000000000000000000000000000000003393089c08f2741904",
  "previousblockhash": "142b309a2d86759572134c58975a67ec7733bf8aa9549802b659d9facfea5fd8",
  "nextblockhash": "f9096cfaed4db205a2e3631038f77367c73986a7ae467032925c2cc9009d0867"
}
