{
  "hash": "254415756447823db191865061565a18e984b8a774c02ad671267c16266623d9",
  "confirmations": 504,
  "strippedsize": 234,
  "size": 234,
  "weight": 936,
  "height": 1360490,
  "version": 536870912,
  "versionHex": "20000000",
  "merkleroot": "2e46affcd51c30de5bb2aa586d18a2005b010e136a9211f62405ca8a09f709f4",
  "tx": [
    {
      "txid": "2e46affcd51c30de5bb2aa586d18a2005b010e136a9211f62405ca8a09f709f4",
      "hash": "2e46affcd51c30de5bb2aa586d18a2005b010e136a9211f62405ca8a09f709f4",
      "version": 1,
      "size": 153,
      "vsize": 153,
      "locktime": 0,
      "vin": [
        {
          "coinbase": "036ac214045a7243c52cfabe6d6d5e0e24ca04a22bee8455728b6ff0a78403f91ff7f4ffdcd96b1cf106dc9104f74000000000000000042f4c502f08220001fc22000000",
          "sequence": 4294967295
        }
      ],
      "vout": [
        {
          "value": 25.00000000,
          "n": 0,
          "scriptPubKey": {
            "asm": "OP_DUP OP_HASH160 57757ed2ecf2052ff3126c397aca7defb9ca2cec OP_EQUALVERIFY OP_CHECKSIG",
            "hex": "76a91457757ed2ecf2052ff3126c397aca7defb9ca2cec88ac",
            "reqSigs": 1,
            "type": "pubkeyhash",
            "addresses": [
              "LTCPodGk5FwcJaRzH9yKnwicxzFUbxp6tN"
            ]
          }
        }
      ],
      "hex": "01000000010000000000000000000000000000000000000000000000000000000000000000ffffffff44036ac214045a7243c52cfabe6d6d5e0e24ca04a22bee8455728b6ff0a78403f91ff7f4ffdcd96b1cf106dc9104f74000000000000000042f4c502f08220001fc22000000ffffffff0100f90295000000001976a91457757ed2ecf2052ff3126c397aca7defb9ca2cec88ac00000000"
    }
  ],
  "time": 1517437893,
  "mediantime": 1517437176,
  "nonce": 4202448472,
  "bits": "1a042eae",
  "difficulty": 4011378.762614286,
  "chainwork": "000000000000000000000000000000000000000000000034fccae90f1557ea56",
  "previousblockhash": "f518001c77755d3afe3d2e1ce230454064925b420bbb6687cf676328bc0d3c92",
  "nextblockhash": "28c4e6a242731ca1d4c93c2409998fdb514a7d12308cb442ab82258b7bb70e2f"
}
