{
  "hash": "254c6d1efbe78cc59eb2c0316111c98706705d94532565c1d91fa7eddee5ad84",
  "confirmations": 2341,
  "strippedsize": 254,
  "size": 254,
  "weight": 1016,
  "height": 1358654,
  "version": 536870912,
  "versionHex": "20000000",
  "merkleroot": "0196f09d4f174eaa2c2b7457c9e3ff350f8f66b2a3d0b9832cc71c11c95375c0",
  "tx": [
    {
      "txid": "0196f09d4f174eaa2c2b7457c9e3ff350f8f66b2a3d0b9832cc71c11c95375c0",
      "hash": "0196f09d4f174eaa2c2b7457c9e3ff350f8f66b2a3d0b9832cc71c11c95375c0",
      "version": 1,
      "size": 173,
      "vsize": 173,
      "locktime": 0,
      "vin": [
        {
          "coinbase": "033ebb141b4d696e656420627920416e74506f6f6c20626a312045205a6e37a0fabe6d6d3a33d54aa51b1c992d285dc37445c35467dd8fa605cb41bdae1b3f64341cac83040000000000000061050000000000000f000000",
          "sequence": 4294967295
        }
      ],
      "vout": [
        {
          "value": 25.00000000,
          "n": 0,
          "scriptPubKey": {
            "asm": "OP_DUP OP_HASH160 0ff3ccc5e8be88afe24b5d634e5852d474dbdff1 OP_EQUALVERIFY OP_CHECKSIG",
            "hex": "76a9140ff3ccc5e8be88afe24b5d634e5852d474dbdff188ac",
            "reqSigs": 1,
            "type": "pubkeyhash",
            "addresses": [
              "LLgJTbzZMsRTCUF1NtvvL9SR1a4pVieW89"
            ]
          }
        }
      ],
      "hex": "01000000010000000000000000000000000000000000000000000000000000000000000000ffffffff58033ebb141b4d696e656420627920416e74506f6f6c20626a312045205a6e37a0fabe6d6d3a33d54aa51b1c992d285dc37445c35467dd8fa605cb41bdae1b3f64341cac83040000000000000061050000000000000f000000ffffffff0100f90295000000001976a9140ff3ccc5e8be88afe24b5d634e5852d474dbdff188ac00000000"
    }
  ],
  "time": 1517172640,
  "mediantime": 1517172205,
  "nonce": 3001874967,
  "bits": "1a047f14",
  "difficulty": 3731199.183374282,
  "chainwork": "00000000000000000000000000000000000000000000003347f561671d97db66",
  "previousblockhash": "a2899f4e03018736e780c160f43d7277d8a75002a811a793ef5911dae02b6b15",
  "nextblockhash": "3c5c94cfbb78d3341d032a564528346ee48e95b36471bed88930b27be89262ce"
}
