{
  "hash": "25e6715059d757b86953127930efddb2fefda94c533ddd2452c27fe5089cc9f7",
  "confirmations": 1454,
  "strippedsize": 289,
  "size": 325,
  "weight": 1192,
  "height": 1359540,
  "version": 536870912,
  "versionHex": "20000000",
  "merkleroot": "f8bea269ea2d3f9c59a17d6ee6409e63a6431d462045137197f1b6b105506d6a",
  "tx": [
    {
      "txid": "f8bea269ea2d3f9c59a17d6ee6409e63a6431d462045137197f1b6b105506d6a",
      "hash": "6cc489019071dda24cfcbe2309cf7dac0795270b69aa92faec2ab8cdfdd165d7",
      "version": 1,
      "size": 244,
      "vsize": 217,
      "locktime": 0,
      "vin": [
        {
          "coinbase": "03b4be1404b01a705a0804e2614803000000fabe6d6d5a4b91906e0b24dbcc25864bfe5b6e0d654446d3c8157c6b505567e753f334b040000000000000000d2f6e6f64655374726174756d2f",
          "sequence": 0
        }
      ],
      "vout": [
        {
          "value": 25.00000000,
          "n": 0,
          "scriptPubKey": {
            "asm": "OP_DUP OP_HASH160 0c617fdb2ea42aed30a509595ee21ba3f6688db0 OP_EQUALVERIFY OP_CHECKSIG",
            "hex": "76a9140c617fdb2ea42aed30a509595ee21ba3f6688db088ac",
            "reqSigs": 1,
            "type": "pubkeyhash",
            "addresses": [
              "LLMRAtr3qBje2ySEa3CnZ55LA4TQMWnRY3"
            ]
          }
        }, 
        {
          "value": 0.00000000,
          "n": 1,
          "scriptPubKey": {
            "asm": "OP_RETURN aa21a9ede2f61c3f71d1defd3fa999dfa36953755c690689799962b48bebd836974e8cf9",
            "hex": "6a24aa21a9ede2f61c3f71d1defd3fa999dfa36953755c690689799962b48bebd836974e8cf9",
            "type": "nulldata"
          }
        }
      ],
      "hex": "010000000001010000000000000000000000000000000000000000000000000000000000000000ffffffff4c03b4be1404b01a705a0804e2614803000000fabe6d6d5a4b91906e0b24dbcc25864bfe5b6e0d654446d3c8157c6b505567e753f334b040000000000000000d2f6e6f64655374726174756d2f000000000200f90295000000001976a9140c617fdb2ea42aed30a509595ee21ba3f6688db088ac0000000000000000266a24aa21a9ede2f61c3f71d1defd3fa999dfa36953755c690689799962b48bebd836974e8cf90120000000000000000000000000000000000000000000000000000000000000000000000000"
    }
  ],
  "time": 1517296304,
  "mediantime": 1517296093,
  "nonce": 2276230277,
  "bits": "1a042eae",
  "difficulty": 4011378.762614286,
  "chainwork": "00000000000000000000000000000000000000000000003419a5ae095e86e1ea",
  "previousblockhash": "f33c506a746463f0901d426dd95768b8bdc58083695c1ada98a870d9ed3a80b7",
  "nextblockhash": "bafc42e2ab512af027e8ee14c2c2a7c0190ff6a7f36638dd6d1e64062d3972a1"
}
