{
  "hash": "25f983c02aae99f56c4a6ad3e01a8e4e3b686c21d2856ed9b25a665e260c7b34",
  "confirmations": 3772,
  "strippedsize": 253,
  "size": 253,
  "weight": 1012,
  "height": 1357223,
  "version": 536870912,
  "versionHex": "20000000",
  "merkleroot": "12880980f5e16fc727dd937f0b8c048974608939ec7dbc2d03cdc5a9ff623842",
  "tx": [
    {
      "txid": "12880980f5e16fc727dd937f0b8c048974608939ec7dbc2d03cdc5a9ff623842",
      "hash": "12880980f5e16fc727dd937f0b8c048974608939ec7dbc2d03cdc5a9ff623842",
      "version": 1,
      "size": 172,
      "vsize": 172,
      "locktime": 0,
      "vin": [
        {
          "coinbase": "03a7b5141a4d696e656420627920416e74506f6f6c20626a3242205a6b3204fabe6d6df6e153d5be776b5254bc744b8909a6db2a6ffb85cab4ec797ec2f1449a6ee4650400000000000000c01000000000000003000000",
          "sequence": 4294967295
        }
      ],
      "vout": [
        {
          "value": 25.00000000,
          "n": 0,
          "scriptPubKey": {
            "asm": "OP_DUP OP_HASH160 0ff3ccc5e8be88afe24b5d634e5852d474dbdff1 OP_EQUALVERIFY OP_CHECKSIG",
            "hex": "76a9140ff3ccc5e8be88afe24b5d634e5852d474dbdff188ac",
            "reqSigs": 1,
            "type": "pubkeyhash",
            "addresses": [
              "LLgJTbzZMsRTCUF1NtvvL9SR1a4pVieW89"
            ]
          }
        }
      ],
      "hex": "01000000010000000000000000000000000000000000000000000000000000000000000000ffffffff5703a7b5141a4d696e656420627920416e74506f6f6c20626a3242205a6b3204fabe6d6df6e153d5be776b5254bc744b8909a6db2a6ffb85cab4ec797ec2f1449a6ee4650400000000000000c01000000000000003000000ffffffff0100f90295000000001976a9140ff3ccc5e8be88afe24b5d634e5852d474dbdff188ac00000000"
    }
  ],
  "time": 1516974596,
  "mediantime": 1516974389,
  "nonce": 951470016,
  "bits": "1a047f14",
  "difficulty": 3731199.183374282,
  "chainwork": "00000000000000000000000000000000000000000000003209b42eb6824d6610",
  "previousblockhash": "169e172b0852e1927b0531546af50abd4a8069e1bec1b53a53b2b6ccf6d64dca",
  "nextblockhash": "b3f944aecad52620fcb77fa96f2b217a6be4dd53379f3cc9117fdc24c446c7e7"
}
