{
  "hash": "267fe5abc70668fa32ba5d9800c48678376e198c0e7453ac13d0aa4546621df0",
  "confirmations": 1149,
  "strippedsize": 234,
  "size": 234,
  "weight": 936,
  "height": 1359845,
  "version": 536870912,
  "versionHex": "20000000",
  "merkleroot": "55059cc5099f6ee86b612e9e786f8182dc7688210370e5ea1eaf2e6b8e2a9f06",
  "tx": [
    {
      "txid": "55059cc5099f6ee86b612e9e786f8182dc7688210370e5ea1eaf2e6b8e2a9f06",
      "hash": "55059cc5099f6ee86b612e9e786f8182dc7688210370e5ea1eaf2e6b8e2a9f06",
      "version": 1,
      "size": 153,
      "vsize": 153,
      "locktime": 0,
      "vin": [
        {
          "coinbase": "03e5bf14045a70c2ca2cfabe6d6d2dc28e5e9e575ab8bc1a8ac19227640ed4989d5b35533615e2516ab9bb3a09674000000000000000042f4c502f08560008b411000000",
          "sequence": 4294967295
        }
      ],
      "vout": [
        {
          "value": 25.00000000,
          "n": 0,
          "scriptPubKey": {
            "asm": "OP_DUP OP_HASH160 57757ed2ecf2052ff3126c397aca7defb9ca2cec OP_EQUALVERIFY OP_CHECKSIG",
            "hex": "76a91457757ed2ecf2052ff3126c397aca7defb9ca2cec88ac",
            "reqSigs": 1,
            "type": "pubkeyhash",
            "addresses": [
              "LTCPodGk5FwcJaRzH9yKnwicxzFUbxp6tN"
            ]
          }
        }
      ],
      "hex": "01000000010000000000000000000000000000000000000000000000000000000000000000ffffffff4403e5bf14045a70c2ca2cfabe6d6d2dc28e5e9e575ab8bc1a8ac19227640ed4989d5b35533615e2516ab9bb3a09674000000000000000042f4c502f08560008b411000000ffffffff0100f90295000000001976a91457757ed2ecf2052ff3126c397aca7defb9ca2cec88ac00000000"
    }
  ],
  "time": 1517339338,
  "mediantime": 1517339019,
  "nonce": 2582146436,
  "bits": "1a042eae",
  "difficulty": 4011378.762614286,
  "chainwork": "0000000000000000000000000000000000000000000000346292a4b0ee1ad5cc",
  "previousblockhash": "f6f73bd7a75898b9f6b006ad31d3f66344e29e70d6896359dce3d7c3d0399933",
  "nextblockhash": "7c8c7ba563bacc4f4eedd7103acf4ac330c1a8a79edab879c111c74e964bbf11"
}
