{
  "hash": "2760a408bfc892e7ca77cd5c3141642462ab6dae5183161d9870b3d7e9866a6c",
  "confirmations": 2535,
  "strippedsize": 6054,
  "size": 6090,
  "weight": 24252,
  "height": 1358460,
  "version": 536870912,
  "versionHex": "20000000",
  "merkleroot": "a878a4ab478b10ba194bd363aab8bd404d003be319f84cce79d3eff180601c70",
  "tx": [
    {
      "txid": "b397fcdec0823f11757116fe9ddcacea272164c9d47139932e8e341497255e7d",
      "hash": "54d4b791151eab4a44b839314a1345c7a755518a8b51f8a4d0c3c4c6e735e3e1",
      "version": 1,
      "size": 282,
      "vsize": 255,
      "locktime": 0,
      "vin": [
        {
          "coinbase": "037cba140004f1cc6d5a04f463a1190c0e1b8f590300000000000000065442446963652cfabe6d6de296c9ff0c1f1e3ca0ca330a3094646a2cd30648d36bb7a23e249eb87698591f0100000000000000",
          "sequence": 4294967295
        }
      ],
      "vout": [
        {
          "value": 0.12521027,
          "n": 0,
          "scriptPubKey": {
            "asm": "OP_DUP OP_HASH160 646e4e6a52f8d0512b2f4cd743edaf39a7075319 OP_EQUALVERIFY OP_CHECKSIG",
            "hex": "76a914646e4e6a52f8d0512b2f4cd743edaf39a707531988ac",
            "reqSigs": 1,
            "type": "pubkeyhash",
            "addresses": [
              "LUNyycVonDH9aQMZn1fxyUeu8N3yS8w7ud"
            ]
          }
        }, 
        {
          "value": 0.00000000,
          "n": 1,
          "scriptPubKey": {
            "asm": "OP_RETURN aa21a9ed45e5e1821ccd608c294762c90b545299426eb28d431ed8f299aa25d7166a5db7",
            "hex": "6a24aa21a9ed45e5e1821ccd608c294762c90b545299426eb28d431ed8f299aa25d7166a5db7",
            "type": "nulldata"
          }
        }, 
        {
          "value": 24.91684379,
          "n": 2,
          "scriptPubKey": {
            "asm": "OP_DUP OP_HASH160 b1836b7b8fa36ae255974486ed83f534b5081b49 OP_EQUALVERIFY OP_CHECKSIG",
            "hex": "76a914b1836b7b8fa36ae255974486ed83f534b5081b4988ac",
            "reqSigs": 1,
            "type": "pubkeyhash",
            "addresses": [
              "LbQZJNugAUfWxJmKWDWmrNsKWbVon3172A"
            ]
          }
        }
      ],
      "hex": "010000000001010000000000000000000000000000000000000000000000000000000000000000ffffffff50037cba140004f1cc6d5a04f463a1190c0e1b8f590300000000000000065442446963652cfabe6d6de296c9ff0c1f1e3ca0ca330a3094646a2cd30648d36bb7a23e249eb87698591f0100000000000000ffffffff03430ebf00000000001976a914646e4e6a52f8d0512b2f4cd743edaf39a707531988ac0000000000000000266a24aa21a9ed45e5e1821ccd608c294762c90b545299426eb28d431ed8f299aa25d7166a5db71b168494000000001976a914b1836b7b8fa36ae255974486ed83f534b5081b4988ac0120000000000000000000000000000000000000000000000000000000000000000000000000"
    }, 
    {
      "txid": "86744673159cddd3cf59b1941ed4d15a31373f4d1d33ad920297f7613f1fb809",
      "hash": "86744673159cddd3cf59b1941ed4d15a31373f4d1d33ad920297f7613f1fb809",
      "version": 1,
      "size": 1588,
      "vsize": 1588,
      "locktime": 0,
      "vin": [
        {
          "txid": "e86d614e6bd51313493a3396f21e7f85364a801b9ec47703402230ee907cdd6f",
          "vout": 0,
          "scriptSig": {
            "asm": "0 3045022100a08e5da2c4c8d9ddf1fd92573cc97051b2d23dfeabde24728ea4e744f8b2e0a6022024b20394c6653233061507519d060acd40c9b565f637a05c22fe909f501e6a28[ALL] 3045022100c971b78fe6a542910dc78954211b53dcca24da549ee31e8346878b0f6cfe9e7b02201b9e0965c86598a01b1cab0170f8a23b00ddb1ef2d39c7979fc0ddb704585f2a[ALL] 5221021d0254eb28d0afe389ded38247c4d108aa643e0d935faa78c01c981b2d21104121035ce9d11b8bf58c4a0de80bbcc9e3e397852d5b6b734d81e831ebdc2f5cb755ba2102d6511ef290907e1d25c7ef996e2987ec1c0c2a3f1d3dda879a44eb08ea9e808253ae",
            "hex": "00483045022100a08e5da2c4c8d9ddf1fd92573cc97051b2d23dfeabde24728ea4e744f8b2e0a6022024b20394c6653233061507519d060acd40c9b565f637a05c22fe909f501e6a2801483045022100c971b78fe6a542910dc78954211b53dcca24da549ee31e8346878b0f6cfe9e7b02201b9e0965c86598a01b1cab0170f8a23b00ddb1ef2d39c7979fc0ddb704585f2a014c695221021d0254eb28d0afe389ded38247c4d108aa643e0d935faa78c01c981b2d21104121035ce9d11b8bf58c4a0de80bbcc9e3e397852d5b6b734d81e831ebdc2f5cb755ba2102d6511ef290907e1d25c7ef996e2987ec1c0c2a3f1d3dda879a44eb08ea9e808253ae"
          },
          "sequence": 4294967295
        }, 
        {
          "txid": "cd5d5a75e678f769c080f3de56febf9a2fe12661fc81e746772bfb53b8c4b3aa",
          "vout": 0,
          "scriptSig": {
            "asm": "0 3045022100c82be69ac03793cc83c776529ba1fd9686ff47fe9bb104eeaa608b1cbca06f4a02201ba2ccbf02b5522a9f5c774eafe8ab3440a9e480f21ed8f26d8531a2b2e539c7[ALL] 3045022100800b00b983730a7f9fb761b08314d46052b1963dae7ec3cbbce087cbc90be5a502204356dd16d0e35ed9327e81149922eba8195a61db9603c9ea646da2b1b5074e40[ALL] 522103ccfed547c6bd8e30d5cc477ab5dc05f9d0d80b08eeaaa821613651e426dad90d210351ae456da127aeee61220ed42c657c249512f4a77fe838ba91e2841a39e0df5f21035e575782ce7edbecfb7608607ee7851580ea68f32d705d44749d129c61d73bb153ae",
            "hex": "00483045022100c82be69ac03793cc83c776529ba1fd9686ff47fe9bb104eeaa608b1cbca06f4a02201ba2ccbf02b5522a9f5c774eafe8ab3440a9e480f21ed8f26d8531a2b2e539c701483045022100800b00b983730a7f9fb761b08314d46052b1963dae7ec3cbbce087cbc90be5a502204356dd16d0e35ed9327e81149922eba8195a61db9603c9ea646da2b1b5074e40014c69522103ccfed547c6bd8e30d5cc477ab5dc05f9d0d80b08eeaaa821613651e426dad90d210351ae456da127aeee61220ed42c657c249512f4a77fe838ba91e2841a39e0df5f21035e575782ce7edbecfb7608607ee7851580ea68f32d705d44749d129c61d73bb153ae"
          },
          "sequence": 4294967295
        }, 
        {
          "txid": "1e57a8e4c9fc15cdf4f92a7dc1b5c20caf20d7a769a1fd3a0d533cc4f1a4e128",
          "vout": 1,
          "scriptSig": {
            "asm": "0 304302203a5f52c00c5d5f4417e5f553dbdc73d63f967c1502d0552019ae2c502a150d0b021f2dbde1b3043d67c5e48827dca3bc0f66f2ce0f064959866cc44cb8b24e1d8c[ALL] 304502210098c8fca951c3b3292be74a3f423a19a6af43467b91d3bc2bfa1a57b65a13c3fa02201aa834345b11f4022222bb7c51a9d944d84a7e83a0a31d994e9b6b746978ca85[ALL] 52210299cab325a5729734986c1bf06e418551642c535000e23f2d65e48faa44e60a432103cca7772c1f1c94e6bd31820297ed884f1ceda1cd71e643af742b34bc60446bf421029f9c380d56e28e626b01bf0f99c576559c50d0a141003dad99ae0fdf0361906553ae",
            "hex": "0046304302203a5f52c00c5d5f4417e5f553dbdc73d63f967c1502d0552019ae2c502a150d0b021f2dbde1b3043d67c5e48827dca3bc0f66f2ce0f064959866cc44cb8b24e1d8c0148304502210098c8fca951c3b3292be74a3f423a19a6af43467b91d3bc2bfa1a57b65a13c3fa02201aa834345b11f4022222bb7c51a9d944d84a7e83a0a31d994e9b6b746978ca85014c6952210299cab325a5729734986c1bf06e418551642c535000e23f2d65e48faa44e60a432103cca7772c1f1c94e6bd31820297ed884f1ceda1cd71e643af742b34bc60446bf421029f9c380d56e28e626b01bf0f99c576559c50d0a141003dad99ae0fdf0361906553ae"
          },
          "sequence": 4294967295
        }, 
        {
          "txid": "4301fa16fc431878f781aa194213cda479df04227ba4a60d526dbe4be589fe66",
          "vout": 45,
          "scriptSig": {
            "asm": "0 3045022100b63678b3f7c8b66af379fac12a2ebc3bea532da4a9c5bb03c79e6efac547935f0220207c31817873df3320fa4d863f7c0c1ddbffd5b68a923943dc51c5ff3ebe1a4b[ALL] 3045022100d7ca30c8f18123446f3e56ec069b641f65a26d50d42c9fe7f72a35d12ed78b1e022053b1fc97cc180bfa5412b0c9c1168aadfb4dae6da6fb3afc6a7e2c8324b610ea[ALL] 5221027e3e3f2eba0bb81cfa9109606dd72aefc54da95bbba43d02625c360ce651bd3d21032be634e7fd33b584e6c9a8a70f40111c0207dcb7e8791a95697eb420ae99de6621039d4d4669714bdd9ee2e52c68566bf12bc8276ea8a7b715719ed024e21fed1f5f53ae",
            "hex": "00483045022100b63678b3f7c8b66af379fac12a2ebc3bea532da4a9c5bb03c79e6efac547935f0220207c31817873df3320fa4d863f7c0c1ddbffd5b68a923943dc51c5ff3ebe1a4b01483045022100d7ca30c8f18123446f3e56ec069b641f65a26d50d42c9fe7f72a35d12ed78b1e022053b1fc97cc180bfa5412b0c9c1168aadfb4dae6da6fb3afc6a7e2c8324b610ea014c695221027e3e3f2eba0bb81cfa9109606dd72aefc54da95bbba43d02625c360ce651bd3d21032be634e7fd33b584e6c9a8a70f40111c0207dcb7e8791a95697eb420ae99de6621039d4d4669714bdd9ee2e52c68566bf12bc8276ea8a7b715719ed024e21fed1f5f53ae"
          },
          "sequence": 4294967295
        }, 
        {
          "txid": "206fc0360533627cd755839a4e009e54920aadfdf36577b246d239876e3adb6e",
          "vout": 2,
          "scriptSig": {
            "asm": "0 3045022100ccb341829cc470ad4a786df557cffff9d52326f96c03c99bfb540fa1a2871506022044b89fe8a85666c72cc91ab5e5d2d9deb0b1db3a1cfac827f2a8bd2157a25685[ALL] 3044022028879556a14db4b855e60b6108fbca8ab0bc862d7c2a146052ecad6964f138d702203bd7bbace45fb33cf86261faeb460b8db4aa93050fdd2cf60dc07dc7c71b770e[ALL] 5221022466d3d4e870e9ac2798ac8c572c51ca138b0dd9a08aa01c39cf18e1c21f56a82102d32f75eabdf4da42a426df5a6cb691c95b36049cf9cf3b46f3876cf1537678962102861a0dddf4819ad34e64698643ff522c92808dc10676b1cd2e199b0ba03694c653ae",
            "hex": "00483045022100ccb341829cc470ad4a786df557cffff9d52326f96c03c99bfb540fa1a2871506022044b89fe8a85666c72cc91ab5e5d2d9deb0b1db3a1cfac827f2a8bd2157a2568501473044022028879556a14db4b855e60b6108fbca8ab0bc862d7c2a146052ecad6964f138d702203bd7bbace45fb33cf86261faeb460b8db4aa93050fdd2cf60dc07dc7c71b770e014c695221022466d3d4e870e9ac2798ac8c572c51ca138b0dd9a08aa01c39cf18e1c21f56a82102d32f75eabdf4da42a426df5a6cb691c95b36049cf9cf3b46f3876cf1537678962102861a0dddf4819ad34e64698643ff522c92808dc10676b1cd2e199b0ba03694c653ae"
          },
          "sequence": 4294967295
        }
      ],
      "vout": [
        {
          "value": 5.00000000,
          "n": 0,
          "scriptPubKey": {
            "asm": "OP_DUP OP_HASH160 dedd8c54c7435749468b007f3b36e09540f9181c OP_EQUALVERIFY OP_CHECKSIG",
            "hex": "76a914dedd8c54c7435749468b007f3b36e09540f9181c88ac",
            "reqSigs": 1,
            "type": "pubkeyhash",
            "addresses": [
              "LfYMgEe7WYq4eHS1a9uqPoDMmKcaxgTZrH"
            ]
          }
        }, 
        {
          "value": 1.60500000,
          "n": 1,
          "scriptPubKey": {
            "asm": "OP_HASH160 0501909b17eb071fcf010fc476c8ba7f39ff24c5 OP_EQUAL",
            "hex": "a9140501909b17eb071fcf010fc476c8ba7f39ff24c587",
            "reqSigs": 1,
            "type": "scripthash",
            "addresses": [
              "M8MdV7ongtyJKoa5E4LnqoQxbuozUw6in6"
            ]
          }
        }, 
        {
          "value": 473.70538263,
          "n": 2,
          "scriptPubKey": {
            "asm": "OP_HASH160 e43dfe076a8689fdc57f73e70c333308b40667f2 OP_EQUAL",
            "hex": "a914e43dfe076a8689fdc57f73e70c333308b40667f287",
            "reqSigs": 1,
            "type": "scripthash",
            "addresses": [
              "MUhzZU6tndVNdBagXbtvLB6KAjhpfWvnTj"
            ]
          }
        }
      ],
      "hex": "01000000056fdd7c90ee3022400377c49e1b804a36857f1ef296333a491313d56b4e616de800000000fdfe0000483045022100a08e5da2c4c8d9ddf1fd92573cc97051b2d23dfeabde24728ea4e744f8b2e0a6022024b20394c6653233061507519d060acd40c9b565f637a05c22fe909f501e6a2801483045022100c971b78fe6a542910dc78954211b53dcca24da549ee31e8346878b0f6cfe9e7b02201b9e0965c86598a01b1cab0170f8a23b00ddb1ef2d39c7979fc0ddb704585f2a014c695221021d0254eb28d0afe389ded38247c4d108aa643e0d935faa78c01c981b2d21104121035ce9d11b8bf58c4a0de80bbcc9e3e397852d5b6b734d81e831ebdc2f5cb755ba2102d6511ef290907e1d25c7ef996e2987ec1c0c2a3f1d3dda879a44eb08ea9e808253aeffffffffaab3c4b853fb2b7746e781fc6126e12f9abffe56def380c069f778e6755a5dcd00000000fdfe0000483045022100c82be69ac03793cc83c776529ba1fd9686ff47fe9bb104eeaa608b1cbca06f4a02201ba2ccbf02b5522a9f5c774eafe8ab3440a9e480f21ed8f26d8531a2b2e539c701483045022100800b00b983730a7f9fb761b08314d46052b1963dae7ec3cbbce087cbc90be5a502204356dd16d0e35ed9327e81149922eba8195a61db9603c9ea646da2b1b5074e40014c69522103ccfed547c6bd8e30d5cc477ab5dc05f9d0d80b08eeaaa821613651e426dad90d210351ae456da127aeee61220ed42c657c249512f4a77fe838ba91e2841a39e0df5f21035e575782ce7edbecfb7608607ee7851580ea68f32d705d44749d129c61d73bb153aeffffffff28e1a4f1c43c530d3afda169a7d720af0cc2b5c17d2af9f4cd15fcc9e4a8571e01000000fc0046304302203a5f52c00c5d5f4417e5f553dbdc73d63f967c1502d0552019ae2c502a150d0b021f2dbde1b3043d67c5e48827dca3bc0f66f2ce0f064959866cc44cb8b24e1d8c0148304502210098c8fca951c3b3292be74a3f423a19a6af43467b91d3bc2bfa1a57b65a13c3fa02201aa834345b11f4022222bb7c51a9d944d84a7e83a0a31d994e9b6b746978ca85014c6952210299cab325a5729734986c1bf06e418551642c535000e23f2d65e48faa44e60a432103cca7772c1f1c94e6bd31820297ed884f1ceda1cd71e643af742b34bc60446bf421029f9c380d56e28e626b01bf0f99c576559c50d0a141003dad99ae0fdf0361906553aeffffffff66fe89e54bbe6d520da6a47b2204df79a4cd134219aa81f7781843fc16fa01432d000000fdfe0000483045022100b63678b3f7c8b66af379fac12a2ebc3bea532da4a9c5bb03c79e6efac547935f0220207c31817873df3320fa4d863f7c0c1ddbffd5b68a923943dc51c5ff3ebe1a4b01483045022100d7ca30c8f18123446f3e56ec069b641f65a26d50d42c9fe7f72a35d12ed78b1e022053b1fc97cc180bfa5412b0c9c1168aadfb4dae6da6fb3afc6a7e2c8324b610ea014c695221027e3e3f2eba0bb81cfa9109606dd72aefc54da95bbba43d02625c360ce651bd3d21032be634e7fd33b584e6c9a8a70f40111c0207dcb7e8791a95697eb420ae99de6621039d4d4669714bdd9ee2e52c68566bf12bc8276ea8a7b715719ed024e21fed1f5f53aeffffffff6edb3a6e8739d246b27765f3fdad0a92549e004e9a8355d77c62330536c06f2002000000fdfd0000483045022100ccb341829cc470ad4a786df557cffff9d52326f96c03c99bfb540fa1a2871506022044b89fe8a85666c72cc91ab5e5d2d9deb0b1db3a1cfac827f2a8bd2157a2568501473044022028879556a14db4b855e60b6108fbca8ab0bc862d7c2a146052ecad6964f138d702203bd7bbace45fb33cf86261faeb460b8db4aa93050fdd2cf60dc07dc7c71b770e014c695221022466d3d4e870e9ac2798ac8c572c51ca138b0dd9a08aa01c39cf18e1c21f56a82102d32f75eabdf4da42a426df5a6cb691c95b36049cf9cf3b46f3876cf1537678962102861a0dddf4819ad34e64698643ff522c92808dc10676b1cd2e199b0ba03694c653aeffffffff030065cd1d000000001976a914dedd8c54c7435749468b007f3b36e09540f9181c88ac200991090000000017a9140501909b17eb071fcf010fc476c8ba7f39ff24c587170d81070b00000017a914e43dfe076a8689fdc57f73e70c333308b40667f28700000000"
    }, 
    {
      "txid": "f69dd2e6d0548a2ba0b113793cb511bb4a97a49fbb875e257ac3aa68b71af2ef",
      "hash": "f69dd2e6d0548a2ba0b113793cb511bb4a97a49fbb875e257ac3aa68b71af2ef",
      "version": 1,
      "size": 2063,
      "vsize": 2063,
      "locktime": 0,
      "vin": [
        {
          "txid": "37e3a8967e64ee656f2541acbf5eaef5db710593251aa931b7a1f3d50ee66ee9",
          "vout": 0,
          "scriptSig": {
            "asm": "30440220555c43e12a6a840a8c595de5880a55ec7ded6b273022835739c8150696af30c30220130372b6b48320b4e870c4ba70c3655c7192637fdb15550d9f72b7e9b8b75ae8[ALL] 02de99ecd3abcf44456f3ffc1ea4f7c132511cf3f8698f0c8f676f17710a3031cb",
            "hex": "4730440220555c43e12a6a840a8c595de5880a55ec7ded6b273022835739c8150696af30c30220130372b6b48320b4e870c4ba70c3655c7192637fdb15550d9f72b7e9b8b75ae8012102de99ecd3abcf44456f3ffc1ea4f7c132511cf3f8698f0c8f676f17710a3031cb"
          },
          "sequence": 4294967295
        }, 
        {
          "txid": "3e1b38e0b2106ee5d30159eb699e258e525d6c2a165159eba18bb2c898210ce9",
          "vout": 1,
          "scriptSig": {
            "asm": "3045022100dbf90b800a60280ad35ad4a198d2cee92e793a91cdba55ec58234bc2a0d2165e0220799836df0c2174316d072eb516f25fdb2976756c2d3f2c31c00b537b1bdf0c8c[ALL] 033a3b86f7a4b8d5731246c71477a8da4f07da0c18f46c805901a6c68871a7959b",
            "hex": "483045022100dbf90b800a60280ad35ad4a198d2cee92e793a91cdba55ec58234bc2a0d2165e0220799836df0c2174316d072eb516f25fdb2976756c2d3f2c31c00b537b1bdf0c8c0121033a3b86f7a4b8d5731246c71477a8da4f07da0c18f46c805901a6c68871a7959b"
          },
          "sequence": 4294967295
        }, 
        {
          "txid": "a67b7a76b111b229c7ace37bf9b24d9d56dcb60ac0e27d6707e4f5d3de26e9cf",
          "vout": 31,
          "scriptSig": {
            "asm": "3044022059bd30f9202bf015b1c7c2a780d916940acbd99265ac5fae58fd76f1d204efed022050b120678974acab913865303e44202980829b624ebefd6b3237137df08a9c88[ALL] 03d35828a3bc6401cb69f02d62f0d53a3296b6bdeb72a6e4687da1eb7d4430f136",
            "hex": "473044022059bd30f9202bf015b1c7c2a780d916940acbd99265ac5fae58fd76f1d204efed022050b120678974acab913865303e44202980829b624ebefd6b3237137df08a9c88012103d35828a3bc6401cb69f02d62f0d53a3296b6bdeb72a6e4687da1eb7d4430f136"
          },
          "sequence": 4294967295
        }, 
        {
          "txid": "5932d47bbd4ab9bc6af7c7dab0b15889aed31212ad2498ce1d4b6ebf17e591e8",
          "vout": 1,
          "scriptSig": {
            "asm": "30440220372624dcf73119957a64bc15f08be569335d07f1ab13dfe0e56c75bbfa1748ac02202e9538cb87ca96b78a88da76c628b5077bfb8e83dc1a06ebbbbca6ded2f5dedd[ALL] 02e651b922e151075aa65cb08f0f735ba20670fae7a88973d5c87871e2d1aca028",
            "hex": "4730440220372624dcf73119957a64bc15f08be569335d07f1ab13dfe0e56c75bbfa1748ac02202e9538cb87ca96b78a88da76c628b5077bfb8e83dc1a06ebbbbca6ded2f5dedd012102e651b922e151075aa65cb08f0f735ba20670fae7a88973d5c87871e2d1aca028"
          },
          "sequence": 4294967295
        }, 
        {
          "txid": "370a14bbba8af485bcd881d84b890ecf61e391ef230f1bfc26733a284ea87ce8",
          "vout": 1,
          "scriptSig": {
            "asm": "304502210088793e5241aff5e99996bbddee561ffe67712fd13ae8c6b194f018e2669cf56302204cac1286496075136942db58c0a5cf6d1382e552cb22c39aafefeaa92627a2bb[ALL] 0397364b52ac505b355d51d3af5d0f27745ab6a18ed6d907d53d577c534d1464e7",
            "hex": "48304502210088793e5241aff5e99996bbddee561ffe67712fd13ae8c6b194f018e2669cf56302204cac1286496075136942db58c0a5cf6d1382e552cb22c39aafefeaa92627a2bb01210397364b52ac505b355d51d3af5d0f27745ab6a18ed6d907d53d577c534d1464e7"
          },
          "sequence": 4294967295
        }, 
        {
          "txid": "a901bd18c04e59cc0bf957e64c6c6affcd7072fa66a0c2ce964fa8794b8836e9",
          "vout": 1,
          "scriptSig": {
            "asm": "304402207b7f80026fe1f2d177d76c149a0eaa0c3e1cfd9ea08a5657c308d3c9db11712e02203fbeae6d1a82de357fa226c2522f9d57125be960cdb8fc7d0e02d92385d6e64f[ALL] 025334094c1318506d289b682d8b0e8ace7374aef72448f12a5f17a08baf8c93b2",
            "hex": "47304402207b7f80026fe1f2d177d76c149a0eaa0c3e1cfd9ea08a5657c308d3c9db11712e02203fbeae6d1a82de357fa226c2522f9d57125be960cdb8fc7d0e02d92385d6e64f0121025334094c1318506d289b682d8b0e8ace7374aef72448f12a5f17a08baf8c93b2"
          },
          "sequence": 4294967295
        }, 
        {
          "txid": "3c995a6c065100e9e8f2e3ac7f4a724f6b6f90b965699d868c21bdfbb0eaa0e8",
          "vout": 1,
          "scriptSig": {
            "asm": "3045022100ed35c352c871ad1ce595fd5ce7e50aad57685496bf4eacc859e1e3ab04a9d99102204c32c4be3ae7ff0116c120b5148212a1ee2b1aeeca69216074f1badb9521f6b1[ALL] 0209c23289c08eff4e703973734bf0f81ed2407104a4598ad6c3cfc485be501d4e",
            "hex": "483045022100ed35c352c871ad1ce595fd5ce7e50aad57685496bf4eacc859e1e3ab04a9d99102204c32c4be3ae7ff0116c120b5148212a1ee2b1aeeca69216074f1badb9521f6b101210209c23289c08eff4e703973734bf0f81ed2407104a4598ad6c3cfc485be501d4e"
          },
          "sequence": 4294967295
        }, 
        {
          "txid": "e839d278dd049dd2ac42027eebddab3d4f3995fbb7be1285df57baed152090d0",
          "vout": 0,
          "scriptSig": {
            "asm": "3045022100df3e9e9bb7d601dec1f5fe12986eb7770ceaae78ad9ce1863e2077a26a76212002203dea3bf3cda1d509651d673f297c0c8dd363179fa9879292a14cbbfcadc6d457[ALL] 02bfcbd1b81c3b20caca3fe8ff957c5b14eb7235282f227ae34773e9e37398a113",
            "hex": "483045022100df3e9e9bb7d601dec1f5fe12986eb7770ceaae78ad9ce1863e2077a26a76212002203dea3bf3cda1d509651d673f297c0c8dd363179fa9879292a14cbbfcadc6d457012102bfcbd1b81c3b20caca3fe8ff957c5b14eb7235282f227ae34773e9e37398a113"
          },
          "sequence": 4294967295
        }, 
        {
          "txid": "2fb10250338b3e534f71937f1cb7ac8b9d08171fd203b12b921c9d06635a74e9",
          "vout": 0,
          "scriptSig": {
            "asm": "3044022005fcd1fe4a4f3144a45bb556e43ead938614397b2c1859fc718fa9a19760af6b02202abe5f070a817e32f0b368ca0d37bce419b0de1df43af2eb222c5c056e5e8a9e[ALL] 022fb2b00c62901b4a1eda65e6c7dcc423cc50a7be4ca8982c6ede07305de26dc5",
            "hex": "473044022005fcd1fe4a4f3144a45bb556e43ead938614397b2c1859fc718fa9a19760af6b02202abe5f070a817e32f0b368ca0d37bce419b0de1df43af2eb222c5c056e5e8a9e0121022fb2b00c62901b4a1eda65e6c7dcc423cc50a7be4ca8982c6ede07305de26dc5"
          },
          "sequence": 4294967295
        }, 
        {
          "txid": "f53f4563d4659d3d86ee6f6f4736027f33c0be2e22e12480d735ac0edf7a95b4",
          "vout": 0,
          "scriptSig": {
            "asm": "3045022100f9a9d16ddf6954f80a14c323f86807e2bdc9833414ad5482ff21bb1521511f55022042b19de9cfcb1b9c9ca2cbd41b9095e72676b2f21456400d3e3c747ce7bb692d[ALL] 02d34d80c82fe2442a332c9520d9e707d7951bc0a55c9696012e76770cd0355b4d",
            "hex": "483045022100f9a9d16ddf6954f80a14c323f86807e2bdc9833414ad5482ff21bb1521511f55022042b19de9cfcb1b9c9ca2cbd41b9095e72676b2f21456400d3e3c747ce7bb692d012102d34d80c82fe2442a332c9520d9e707d7951bc0a55c9696012e76770cd0355b4d"
          },
          "sequence": 4294967295
        }, 
        {
          "txid": "b1ad4df58796a1854732bd4ee5ad93c276d19d367f85e792e1970eb84871c72f",
          "vout": 1,
          "scriptSig": {
            "asm": "3045022100acd85406c68403740f57cf616babef1cd7ffbe1c87163fd2159f1ddd4d91f99c02200af4e3a0f80bb27cf4e25b88174595c832469789052057ae1a9f43f80363d6d7[ALL] 03b7cc780383130b36bb152bc8eeefcdc8abc8708a7e30987a5d8dab32ae25dce3",
            "hex": "483045022100acd85406c68403740f57cf616babef1cd7ffbe1c87163fd2159f1ddd4d91f99c02200af4e3a0f80bb27cf4e25b88174595c832469789052057ae1a9f43f80363d6d7012103b7cc780383130b36bb152bc8eeefcdc8abc8708a7e30987a5d8dab32ae25dce3"
          },
          "sequence": 4294967295
        }, 
        {
          "txid": "ea6068d14d801db78c7d3f55d65374f0445abadf0a16fa20af9612ab755741dd",
          "vout": 0,
          "scriptSig": {
            "asm": "304402206bceb952671482a0a118746e68e1f8a5435ced9fac0542abc4a71e7ba63328a802206cc63f5b001ab550fcb69dd962a0f03f6c86dc1010bbc416741f015a5fd5206f[ALL] 0347d161d2f35043056828d2c3519553dd268a3c5b39ad36882c7103491ee6555f",
            "hex": "47304402206bceb952671482a0a118746e68e1f8a5435ced9fac0542abc4a71e7ba63328a802206cc63f5b001ab550fcb69dd962a0f03f6c86dc1010bbc416741f015a5fd5206f01210347d161d2f35043056828d2c3519553dd268a3c5b39ad36882c7103491ee6555f"
          },
          "sequence": 4294967295
        }, 
        {
          "txid": "dd52bafdd046f2645f68187f358c03d40b22505388777da9cdbd9c987a27d161",
          "vout": 1,
          "scriptSig": {
            "asm": "304402200d1efd189a818489ded293f9fa665c9497a35cb91ae21c4de837061f74e4bd6402207a11b2403470a2467862bdf795a96cb76714da1cb9346c75ea73e46fcf2498cd[ALL] 0376fb7f7cf4c8bf45dde9f13f563c494b5c0d756f2830e952e23cab3e1802f862",
            "hex": "47304402200d1efd189a818489ded293f9fa665c9497a35cb91ae21c4de837061f74e4bd6402207a11b2403470a2467862bdf795a96cb76714da1cb9346c75ea73e46fcf2498cd01210376fb7f7cf4c8bf45dde9f13f563c494b5c0d756f2830e952e23cab3e1802f862"
          },
          "sequence": 4294967295
        }
      ],
      "vout": [
        {
          "value": 0.54324497,
          "n": 0,
          "scriptPubKey": {
            "asm": "OP_DUP OP_HASH160 af4116832c60e2ea18b570111b6084e377a610a4 OP_EQUALVERIFY OP_CHECKSIG",
            "hex": "76a914af4116832c60e2ea18b570111b6084e377a610a488ac",
            "reqSigs": 1,
            "type": "pubkeyhash",
            "addresses": [
              "LbCcVAxxjxQZeHh1RtbCiXpj7BmJw1GAqm"
            ]
          }
        }, 
        {
          "value": 0.35909483,
          "n": 1,
          "scriptPubKey": {
            "asm": "OP_DUP OP_HASH160 90bb21a71926e8091507230b5719da7844101f3d OP_EQUALVERIFY OP_CHECKSIG",
            "hex": "76a91490bb21a71926e8091507230b5719da7844101f3d88ac",
            "reqSigs": 1,
            "type": "pubkeyhash",
            "addresses": [
              "LYRDjxXHpFcQAHpUfKkdmySdgWGzqCp8bs"
            ]
          }
        }, 
        {
          "value": 0.22219649,
          "n": 2,
          "scriptPubKey": {
            "asm": "OP_DUP OP_HASH160 1b48b465f66e7ab3c004b5781d962f983f40b9ca OP_EQUALVERIFY OP_CHECKSIG",
            "hex": "76a9141b48b465f66e7ab3c004b5781d962f983f40b9ca88ac",
            "reqSigs": 1,
            "type": "pubkeyhash",
            "addresses": [
              "LMiDc15ibwcqoz5zpgb2NuS3x6DnfBrcrC"
            ]
          }
        }, 
        {
          "value": 10.39000000,
          "n": 3,
          "scriptPubKey": {
            "asm": "OP_DUP OP_HASH160 c76255413534ba9401202347291fc671b7a629e0 OP_EQUALVERIFY OP_CHECKSIG",
            "hex": "76a914c76255413534ba9401202347291fc671b7a629e088ac",
            "reqSigs": 1,
            "type": "pubkeyhash",
            "addresses": [
              "LdQCXgiyZfQqoBhTZtMUQCAK2xmzPeL58M"
            ]
          }
        }
      ],
      "hex": "010000000de96ee60ed5f3a1b731a91a25930571dbf5ae5ebfac41256f65ee647e96a8e337000000006a4730440220555c43e12a6a840a8c595de5880a55ec7ded6b273022835739c8150696af30c30220130372b6b48320b4e870c4ba70c3655c7192637fdb15550d9f72b7e9b8b75ae8012102de99ecd3abcf44456f3ffc1ea4f7c132511cf3f8698f0c8f676f17710a3031cbffffffffe90c2198c8b28ba1eb5951162a6c5d528e259e69eb5901d3e56e10b2e0381b3e010000006b483045022100dbf90b800a60280ad35ad4a198d2cee92e793a91cdba55ec58234bc2a0d2165e0220799836df0c2174316d072eb516f25fdb2976756c2d3f2c31c00b537b1bdf0c8c0121033a3b86f7a4b8d5731246c71477a8da4f07da0c18f46c805901a6c68871a7959bffffffffcfe926ded3f5e407677de2c00ab6dc569d4db2f97be3acc729b211b1767a7ba61f0000006a473044022059bd30f9202bf015b1c7c2a780d916940acbd99265ac5fae58fd76f1d204efed022050b120678974acab913865303e44202980829b624ebefd6b3237137df08a9c88012103d35828a3bc6401cb69f02d62f0d53a3296b6bdeb72a6e4687da1eb7d4430f136ffffffffe891e517bf6e4b1dce9824ad1212d3ae8958b1b0dac7f76abcb94abd7bd43259010000006a4730440220372624dcf73119957a64bc15f08be569335d07f1ab13dfe0e56c75bbfa1748ac02202e9538cb87ca96b78a88da76c628b5077bfb8e83dc1a06ebbbbca6ded2f5dedd012102e651b922e151075aa65cb08f0f735ba20670fae7a88973d5c87871e2d1aca028ffffffffe87ca84e283a7326fc1b0f23ef91e361cf0e894bd881d8bc85f48ababb140a37010000006b48304502210088793e5241aff5e99996bbddee561ffe67712fd13ae8c6b194f018e2669cf56302204cac1286496075136942db58c0a5cf6d1382e552cb22c39aafefeaa92627a2bb01210397364b52ac505b355d51d3af5d0f27745ab6a18ed6d907d53d577c534d1464e7ffffffffe936884b79a84f96cec2a066fa7270cdff6a6c4ce657f90bcc594ec018bd01a9010000006a47304402207b7f80026fe1f2d177d76c149a0eaa0c3e1cfd9ea08a5657c308d3c9db11712e02203fbeae6d1a82de357fa226c2522f9d57125be960cdb8fc7d0e02d92385d6e64f0121025334094c1318506d289b682d8b0e8ace7374aef72448f12a5f17a08baf8c93b2ffffffffe8a0eab0fbbd218c869d6965b9906f6b4f724a7face3f2e8e90051066c5a993c010000006b483045022100ed35c352c871ad1ce595fd5ce7e50aad57685496bf4eacc859e1e3ab04a9d99102204c32c4be3ae7ff0116c120b5148212a1ee2b1aeeca69216074f1badb9521f6b101210209c23289c08eff4e703973734bf0f81ed2407104a4598ad6c3cfc485be501d4effffffffd0902015edba57df8512beb7fb95394f3dabddeb7e0242acd29d04dd78d239e8000000006b483045022100df3e9e9bb7d601dec1f5fe12986eb7770ceaae78ad9ce1863e2077a26a76212002203dea3bf3cda1d509651d673f297c0c8dd363179fa9879292a14cbbfcadc6d457012102bfcbd1b81c3b20caca3fe8ff957c5b14eb7235282f227ae34773e9e37398a113ffffffffe9745a63069d1c922bb103d21f17089d8bacb71c7f93714f533e8b335002b12f000000006a473044022005fcd1fe4a4f3144a45bb556e43ead938614397b2c1859fc718fa9a19760af6b02202abe5f070a817e32f0b368ca0d37bce419b0de1df43af2eb222c5c056e5e8a9e0121022fb2b00c62901b4a1eda65e6c7dcc423cc50a7be4ca8982c6ede07305de26dc5ffffffffb4957adf0eac35d78024e1222ebec0337f0236476f6fee863d9d65d463453ff5000000006b483045022100f9a9d16ddf6954f80a14c323f86807e2bdc9833414ad5482ff21bb1521511f55022042b19de9cfcb1b9c9ca2cbd41b9095e72676b2f21456400d3e3c747ce7bb692d012102d34d80c82fe2442a332c9520d9e707d7951bc0a55c9696012e76770cd0355b4dffffffff2fc77148b80e97e192e7857f369dd176c293ade54ebd324785a19687f54dadb1010000006b483045022100acd85406c68403740f57cf616babef1cd7ffbe1c87163fd2159f1ddd4d91f99c02200af4e3a0f80bb27cf4e25b88174595c832469789052057ae1a9f43f80363d6d7012103b7cc780383130b36bb152bc8eeefcdc8abc8708a7e30987a5d8dab32ae25dce3ffffffffdd415775ab1296af20fa160adfba5a44f07453d6553f7d8cb71d804dd16860ea000000006a47304402206bceb952671482a0a118746e68e1f8a5435ced9fac0542abc4a71e7ba63328a802206cc63f5b001ab550fcb69dd962a0f03f6c86dc1010bbc416741f015a5fd5206f01210347d161d2f35043056828d2c3519553dd268a3c5b39ad36882c7103491ee6555fffffffff61d1277a989cbdcda97d77885350220bd4038c357f18685f64f246d0fdba52dd010000006a47304402200d1efd189a818489ded293f9fa665c9497a35cb91ae21c4de837061f74e4bd6402207a11b2403470a2467862bdf795a96cb76714da1cb9346c75ea73e46fcf2498cd01210376fb7f7cf4c8bf45dde9f13f563c494b5c0d756f2830e952e23cab3e1802f862ffffffff0411ed3c03000000001976a914af4116832c60e2ea18b570111b6084e377a610a488ac6bef2302000000001976a91490bb21a71926e8091507230b5719da7844101f3d88ac810b5301000000001976a9141b48b465f66e7ab3c004b5781d962f983f40b9ca88acc0e1ed3d000000001976a914c76255413534ba9401202347291fc671b7a629e088ac00000000"
    }, 
    {
      "txid": "be3f2b375897cfc1f94b070af3792c052dcad9503a0009fe2b026bd2fde525d3",
      "hash": "be3f2b375897cfc1f94b070af3792c052dcad9503a0009fe2b026bd2fde525d3",
      "version": 1,
      "size": 226,
      "vsize": 226,
      "locktime": 0,
      "vin": [
        {
          "txid": "62ddf94d1d04420a0a4b4b1056497afe96384b2a4c9369d5aaaec2be6362e171",
          "vout": 0,
          "scriptSig": {
            "asm": "3045022100a2be250c226c68f2ad220ec27ac247dd2124354b287b318f899e219d64943b3e02205048afdcf028feaa581e3c4483c7b145491fdac5a4a95ff0ed3f11732e22ad87[ALL] 03b4d16b7015df8cfb7b3fcc0afb585a9b9f5a023c716b50ca613a825b304313b9",
            "hex": "483045022100a2be250c226c68f2ad220ec27ac247dd2124354b287b318f899e219d64943b3e02205048afdcf028feaa581e3c4483c7b145491fdac5a4a95ff0ed3f11732e22ad87012103b4d16b7015df8cfb7b3fcc0afb585a9b9f5a023c716b50ca613a825b304313b9"
          },
          "sequence": 4294967295
        }
      ],
      "vout": [
        {
          "value": 0.25000000,
          "n": 0,
          "scriptPubKey": {
            "asm": "OP_DUP OP_HASH160 3e61f7341c6b5837386514b237409bc639c4b6b1 OP_EQUALVERIFY OP_CHECKSIG",
            "hex": "76a9143e61f7341c6b5837386514b237409bc639c4b6b188ac",
            "reqSigs": 1,
            "type": "pubkeyhash",
            "addresses": [
              "LQuoWsuG5v6aTsr8u2PuM4UN5dV9c4A5w5"
            ]
          }
        }, 
        {
          "value": 0.75411435,
          "n": 1,
          "scriptPubKey": {
            "asm": "OP_DUP OP_HASH160 b82bc6e7daeff9976ede7d371f1c41fac1d2ffb1 OP_EQUALVERIFY OP_CHECKSIG",
            "hex": "76a914b82bc6e7daeff9976ede7d371f1c41fac1d2ffb188ac",
            "reqSigs": 1,
            "type": "pubkeyhash",
            "addresses": [
              "Lc1m3Bpbqdj8iazngx245BavkVtzfawufj"
            ]
          }
        }
      ],
      "hex": "010000000171e16263bec2aeaad569934c2a4b3896fe7a4956104b4b0a0a42041d4df9dd62000000006b483045022100a2be250c226c68f2ad220ec27ac247dd2124354b287b318f899e219d64943b3e02205048afdcf028feaa581e3c4483c7b145491fdac5a4a95ff0ed3f11732e22ad87012103b4d16b7015df8cfb7b3fcc0afb585a9b9f5a023c716b50ca613a825b304313b9ffffffff0240787d01000000001976a9143e61f7341c6b5837386514b237409bc639c4b6b188acebaf7e04000000001976a914b82bc6e7daeff9976ede7d371f1c41fac1d2ffb188ac00000000"
    }, 
    {
      "txid": "14f61dbd6a80cab55f9688fdd1c325256bcb6bb1a7c5ec94e598a2d9d3e7b915",
      "hash": "14f61dbd6a80cab55f9688fdd1c325256bcb6bb1a7c5ec94e598a2d9d3e7b915",
      "version": 1,
      "size": 1850,
      "vsize": 1850,
      "locktime": 0,
      "vin": [
        {
          "txid": "34b35c14b159d00f100dbc729897d8e6c4af6a589f014d03bc2d10c3e08b62de",
          "vout": 0,
          "scriptSig": {
            "asm": "304402202db3d82d0a91c0d69e7c76dc2d17e6e73cbe6e9d914c51714720c03da2822f1902200877510dd4b1abac0370d7cc7e60d20b9281e1aa4e05f599959600e424e4b386[ALL] 0384a9a36de00797765bb8cbd04dabb5aa68695b13ab3d76e64a85d79f0c76db7f",
            "hex": "47304402202db3d82d0a91c0d69e7c76dc2d17e6e73cbe6e9d914c51714720c03da2822f1902200877510dd4b1abac0370d7cc7e60d20b9281e1aa4e05f599959600e424e4b38601210384a9a36de00797765bb8cbd04dabb5aa68695b13ab3d76e64a85d79f0c76db7f"
          },
          "sequence": 4294967295
        }, 
        {
          "txid": "8bddfefcd7962d415f553dd6674fcf98a2182c59cc892522192c70cadd3f8a6c",
          "vout": 1,
          "scriptSig": {
            "asm": "3045022100fe0b5593e4152aaa22e7afec2de52db85932f5a9deb6074595797e674d925b0302200ecd6cd806cf7ea08052bf43e1cb5d81036e47a9a5c42574f289ab57eb9f5a3a[ALL] 0384a9a36de00797765bb8cbd04dabb5aa68695b13ab3d76e64a85d79f0c76db7f",
            "hex": "483045022100fe0b5593e4152aaa22e7afec2de52db85932f5a9deb6074595797e674d925b0302200ecd6cd806cf7ea08052bf43e1cb5d81036e47a9a5c42574f289ab57eb9f5a3a01210384a9a36de00797765bb8cbd04dabb5aa68695b13ab3d76e64a85d79f0c76db7f"
          },
          "sequence": 4294967295
        }, 
        {
          "txid": "893953ed9128bc0c1f0527210f5b5756bdd6e94db3ea6e2ee0be7265dca7c789",
          "vout": 1,
          "scriptSig": {
            "asm": "3044022064a83c38d3ddbdb51272ed114485dceda0911562bc4c34059896bac7efd6e9a302203aeb51b58a696ef72034ec5cdc9e9104baf8878e0a4806e2c4198b7bace749d1[ALL] 0384a9a36de00797765bb8cbd04dabb5aa68695b13ab3d76e64a85d79f0c76db7f",
            "hex": "473044022064a83c38d3ddbdb51272ed114485dceda0911562bc4c34059896bac7efd6e9a302203aeb51b58a696ef72034ec5cdc9e9104baf8878e0a4806e2c4198b7bace749d101210384a9a36de00797765bb8cbd04dabb5aa68695b13ab3d76e64a85d79f0c76db7f"
          },
          "sequence": 4294967295
        }, 
        {
          "txid": "25ca7fc8a65b5d739b196f1a176d3772f62d32036716393f8648313237c5d8f1",
          "vout": 0,
          "scriptSig": {
            "asm": "3045022100b54112f40a06a7c53bc3291ba65a178a8e4ab8516d7ff797c3eb01a32d03281c02202bb8233fd139df6492cba944d581f4c2bc74362b387a908362b3a6d311c89975[ALL] 0384a9a36de00797765bb8cbd04dabb5aa68695b13ab3d76e64a85d79f0c76db7f",
            "hex": "483045022100b54112f40a06a7c53bc3291ba65a178a8e4ab8516d7ff797c3eb01a32d03281c02202bb8233fd139df6492cba944d581f4c2bc74362b387a908362b3a6d311c8997501210384a9a36de00797765bb8cbd04dabb5aa68695b13ab3d76e64a85d79f0c76db7f"
          },
          "sequence": 4294967295
        }, 
        {
          "txid": "cbb58b426cd8a43b5de29eaa25c3ea62c20799622d395eb263a93bd8bd841b9f",
          "vout": 1,
          "scriptSig": {
            "asm": "3045022100add56d14eba610c2ec9b3b0036f0afa3312f42d4f8db03773b1b857d335959b502207735f3dae0d742c6a0bf99b9a0115a2b0db22bd340617a5b6a29fbbff6d1c837[ALL] 0384a9a36de00797765bb8cbd04dabb5aa68695b13ab3d76e64a85d79f0c76db7f",
            "hex": "483045022100add56d14eba610c2ec9b3b0036f0afa3312f42d4f8db03773b1b857d335959b502207735f3dae0d742c6a0bf99b9a0115a2b0db22bd340617a5b6a29fbbff6d1c83701210384a9a36de00797765bb8cbd04dabb5aa68695b13ab3d76e64a85d79f0c76db7f"
          },
          "sequence": 4294967295
        }, 
        {
          "txid": "47c3b996dcd95e81bf66e5baf2b76534edd4052ad88df198a62e1ad982913f83",
          "vout": 1,
          "scriptSig": {
            "asm": "30450221009bcca1f44f7eed4df7a04cf1930f68f7ece33c5389eb3da9265a053c1ad3947d0220706db89772957d75d4e4365542cddd509a6886f8034edc522dbde399acff4f90[ALL] 0384a9a36de00797765bb8cbd04dabb5aa68695b13ab3d76e64a85d79f0c76db7f",
            "hex": "4830450221009bcca1f44f7eed4df7a04cf1930f68f7ece33c5389eb3da9265a053c1ad3947d0220706db89772957d75d4e4365542cddd509a6886f8034edc522dbde399acff4f9001210384a9a36de00797765bb8cbd04dabb5aa68695b13ab3d76e64a85d79f0c76db7f"
          },
          "sequence": 4294967295
        }, 
        {
          "txid": "ff5a2c06e339e4259299a1ac06466ab7cc3b7d4134fde8d7c4f6e5e0ce973764",
          "vout": 0,
          "scriptSig": {
            "asm": "30450221009ab2d0e66f24f8c0414e3739cd485f5a7127dfd0bab4dd7872501e30086e21bc022022f897bb682e94bfa023b1708d441daf3b4c349d872cdc7d6363b93f54577c38[ALL] 0384a9a36de00797765bb8cbd04dabb5aa68695b13ab3d76e64a85d79f0c76db7f",
            "hex": "4830450221009ab2d0e66f24f8c0414e3739cd485f5a7127dfd0bab4dd7872501e30086e21bc022022f897bb682e94bfa023b1708d441daf3b4c349d872cdc7d6363b93f54577c3801210384a9a36de00797765bb8cbd04dabb5aa68695b13ab3d76e64a85d79f0c76db7f"
          },
          "sequence": 4294967295
        }, 
        {
          "txid": "e0288d4284de4fd6caabf3af093fd20941c7723c674821bcbb5e8839b8c61e9c",
          "vout": 0,
          "scriptSig": {
            "asm": "30450221008b94cee0876c6aad3ff9cf4427172290442fd57e991579184312230714ee4f5302206c42c54bb3cf66032b8b476a2affefebb7451e76c2156e416dec98c3a1e260ce[ALL] 0384a9a36de00797765bb8cbd04dabb5aa68695b13ab3d76e64a85d79f0c76db7f",
            "hex": "4830450221008b94cee0876c6aad3ff9cf4427172290442fd57e991579184312230714ee4f5302206c42c54bb3cf66032b8b476a2affefebb7451e76c2156e416dec98c3a1e260ce01210384a9a36de00797765bb8cbd04dabb5aa68695b13ab3d76e64a85d79f0c76db7f"
          },
          "sequence": 4294967295
        }, 
        {
          "txid": "b64d7aaa0277972c30b34caaedea0418c845e1d4c5b47e5dadd60b8959577ec3",
          "vout": 0,
          "scriptSig": {
            "asm": "3045022100e82263acdc7bb84e9af38979498ae16b3989ae470f64ab7a32a44d79cd271ee40220316becb894dbb845df0c38c2098469f63cd7c7f42bee9c550aa51e2f87724f7d[ALL] 0384a9a36de00797765bb8cbd04dabb5aa68695b13ab3d76e64a85d79f0c76db7f",
            "hex": "483045022100e82263acdc7bb84e9af38979498ae16b3989ae470f64ab7a32a44d79cd271ee40220316becb894dbb845df0c38c2098469f63cd7c7f42bee9c550aa51e2f87724f7d01210384a9a36de00797765bb8cbd04dabb5aa68695b13ab3d76e64a85d79f0c76db7f"
          },
          "sequence": 4294967295
        }, 
        {
          "txid": "c1268fbe1031a4926561583b72459d45f3b56f5690c57be8126b359871b5f5d4",
          "vout": 1,
          "scriptSig": {
            "asm": "3045022100c0d54125b2ff83eac2dcee7fa78f687a3886d54752d06680e60c3ff0a26752550220667dc633c71a7313d51707cfaff2249e835920c487775e440c6be51efa3119bc[ALL] 0384a9a36de00797765bb8cbd04dabb5aa68695b13ab3d76e64a85d79f0c76db7f",
            "hex": "483045022100c0d54125b2ff83eac2dcee7fa78f687a3886d54752d06680e60c3ff0a26752550220667dc633c71a7313d51707cfaff2249e835920c487775e440c6be51efa3119bc01210384a9a36de00797765bb8cbd04dabb5aa68695b13ab3d76e64a85d79f0c76db7f"
          },
          "sequence": 4294967295
        }, 
        {
          "txid": "9c5aea5e3776d40fd205a1fd8c0146793a340c17c758675494dd5e63cbb391c5",
          "vout": 0,
          "scriptSig": {
            "asm": "3044022003ef68e22e3df864009bd6a9b23e6ff9eecae2d664f39abc3512cd68aed8c654022001f37d7ad13ac6f39e59cb286f24102d53c6942c9ffb8685b150c20d9a20268f[ALL] 0384a9a36de00797765bb8cbd04dabb5aa68695b13ab3d76e64a85d79f0c76db7f",
            "hex": "473044022003ef68e22e3df864009bd6a9b23e6ff9eecae2d664f39abc3512cd68aed8c654022001f37d7ad13ac6f39e59cb286f24102d53c6942c9ffb8685b150c20d9a20268f01210384a9a36de00797765bb8cbd04dabb5aa68695b13ab3d76e64a85d79f0c76db7f"
          },
          "sequence": 4294967295
        }, 
        {
          "txid": "c0b2aa034f56cd3b76525fe0b18e85b17a5c448e0ee7e775811fd44138b0ba10",
          "vout": 0,
          "scriptSig": {
            "asm": "30440220754cabd65182568ddddb83ebee34ae7a7475ef96d3a8ca3aa5bcdaa3431dba2802201b501369953506b9e28718b1b4c85dd76bbfa12d0bf31fa52e5cb27465af391f[ALL] 0384a9a36de00797765bb8cbd04dabb5aa68695b13ab3d76e64a85d79f0c76db7f",
            "hex": "4730440220754cabd65182568ddddb83ebee34ae7a7475ef96d3a8ca3aa5bcdaa3431dba2802201b501369953506b9e28718b1b4c85dd76bbfa12d0bf31fa52e5cb27465af391f01210384a9a36de00797765bb8cbd04dabb5aa68695b13ab3d76e64a85d79f0c76db7f"
          },
          "sequence": 4294967295
        }
      ],
      "vout": [
        {
          "value": 665.99800000,
          "n": 0,
          "scriptPubKey": {
            "asm": "OP_DUP OP_HASH160 a3731c909996044df05317e3322a8d87720a3f02 OP_EQUALVERIFY OP_CHECKSIG",
            "hex": "76a914a3731c909996044df05317e3322a8d87720a3f0288ac",
            "reqSigs": 1,
            "type": "pubkeyhash",
            "addresses": [
              "La8CJaG5aHzGrAhbLRB9TAYEAC5Vfq4Wjy"
            ]
          }
        }, 
        {
          "value": 27.61713985,
          "n": 1,
          "scriptPubKey": {
            "asm": "OP_DUP OP_HASH160 8a4fd1372b1dd683fede7d68f2332fae2e9c9f71 OP_EQUALVERIFY OP_CHECKSIG",
            "hex": "76a9148a4fd1372b1dd683fede7d68f2332fae2e9c9f7188ac",
            "reqSigs": 1,
            "type": "pubkeyhash",
            "addresses": [
              "LXqH8V6ZtsHBrURFbVxHR59KA24qcdosN3"
            ]
          }
        }
      ],
      "hex": "010000000cde628be0c3102dbc034d019f586aafc4e6d8979872bc0d100fd059b1145cb334000000006a47304402202db3d82d0a91c0d69e7c76dc2d17e6e73cbe6e9d914c51714720c03da2822f1902200877510dd4b1abac0370d7cc7e60d20b9281e1aa4e05f599959600e424e4b38601210384a9a36de00797765bb8cbd04dabb5aa68695b13ab3d76e64a85d79f0c76db7fffffffff6c8a3fddca702c19222589cc592c18a298cf4f67d63d555f412d96d7fcfedd8b010000006b483045022100fe0b5593e4152aaa22e7afec2de52db85932f5a9deb6074595797e674d925b0302200ecd6cd806cf7ea08052bf43e1cb5d81036e47a9a5c42574f289ab57eb9f5a3a01210384a9a36de00797765bb8cbd04dabb5aa68695b13ab3d76e64a85d79f0c76db7fffffffff89c7a7dc6572bee02e6eeab34de9d6bd56575b0f2127051f0cbc2891ed533989010000006a473044022064a83c38d3ddbdb51272ed114485dceda0911562bc4c34059896bac7efd6e9a302203aeb51b58a696ef72034ec5cdc9e9104baf8878e0a4806e2c4198b7bace749d101210384a9a36de00797765bb8cbd04dabb5aa68695b13ab3d76e64a85d79f0c76db7ffffffffff1d8c537323148863f39166703322df672376d171a6f199b735d5ba6c87fca25000000006b483045022100b54112f40a06a7c53bc3291ba65a178a8e4ab8516d7ff797c3eb01a32d03281c02202bb8233fd139df6492cba944d581f4c2bc74362b387a908362b3a6d311c8997501210384a9a36de00797765bb8cbd04dabb5aa68695b13ab3d76e64a85d79f0c76db7fffffffff9f1b84bdd83ba963b25e392d629907c262eac325aa9ee25d3ba4d86c428bb5cb010000006b483045022100add56d14eba610c2ec9b3b0036f0afa3312f42d4f8db03773b1b857d335959b502207735f3dae0d742c6a0bf99b9a0115a2b0db22bd340617a5b6a29fbbff6d1c83701210384a9a36de00797765bb8cbd04dabb5aa68695b13ab3d76e64a85d79f0c76db7fffffffff833f9182d91a2ea698f18dd82a05d4ed3465b7f2bae566bf815ed9dc96b9c347010000006b4830450221009bcca1f44f7eed4df7a04cf1930f68f7ece33c5389eb3da9265a053c1ad3947d0220706db89772957d75d4e4365542cddd509a6886f8034edc522dbde399acff4f9001210384a9a36de00797765bb8cbd04dabb5aa68695b13ab3d76e64a85d79f0c76db7fffffffff643797cee0e5f6c4d7e8fd34417d3bccb76a4606aca1999225e439e3062c5aff000000006b4830450221009ab2d0e66f24f8c0414e3739cd485f5a7127dfd0bab4dd7872501e30086e21bc022022f897bb682e94bfa023b1708d441daf3b4c349d872cdc7d6363b93f54577c3801210384a9a36de00797765bb8cbd04dabb5aa68695b13ab3d76e64a85d79f0c76db7fffffffff9c1ec6b839885ebbbc2148673c72c74109d23f09aff3abcad64fde84428d28e0000000006b4830450221008b94cee0876c6aad3ff9cf4427172290442fd57e991579184312230714ee4f5302206c42c54bb3cf66032b8b476a2affefebb7451e76c2156e416dec98c3a1e260ce01210384a9a36de00797765bb8cbd04dabb5aa68695b13ab3d76e64a85d79f0c76db7fffffffffc37e5759890bd6ad5d7eb4c5d4e145c81804eaedaa4cb3302c977702aa7a4db6000000006b483045022100e82263acdc7bb84e9af38979498ae16b3989ae470f64ab7a32a44d79cd271ee40220316becb894dbb845df0c38c2098469f63cd7c7f42bee9c550aa51e2f87724f7d01210384a9a36de00797765bb8cbd04dabb5aa68695b13ab3d76e64a85d79f0c76db7fffffffffd4f5b57198356b12e87bc590566fb5f3459d45723b58616592a43110be8f26c1010000006b483045022100c0d54125b2ff83eac2dcee7fa78f687a3886d54752d06680e60c3ff0a26752550220667dc633c71a7313d51707cfaff2249e835920c487775e440c6be51efa3119bc01210384a9a36de00797765bb8cbd04dabb5aa68695b13ab3d76e64a85d79f0c76db7fffffffffc591b3cb635edd94546758c7170c343a7946018cfda105d20fd476375eea5a9c000000006a473044022003ef68e22e3df864009bd6a9b23e6ff9eecae2d664f39abc3512cd68aed8c654022001f37d7ad13ac6f39e59cb286f24102d53c6942c9ffb8685b150c20d9a20268f01210384a9a36de00797765bb8cbd04dabb5aa68695b13ab3d76e64a85d79f0c76db7fffffffff10bab03841d41f8175e7e70e8e445c7ab1858eb1e05f52763bcd564f03aab2c0000000006a4730440220754cabd65182568ddddb83ebee34ae7a7475ef96d3a8ca3aa5bcdaa3431dba2802201b501369953506b9e28718b1b4c85dd76bbfa12d0bf31fa52e5cb27465af391f01210384a9a36de00797765bb8cbd04dabb5aa68695b13ab3d76e64a85d79f0c76db7fffffffff02c04ca8810f0000001976a914a3731c909996044df05317e3322a8d87720a3f0288ac41699ca4000000001976a9148a4fd1372b1dd683fede7d68f2332fae2e9c9f7188ac00000000"
    }
  ],
  "time": 1517145329,
  "mediantime": 1517144886,
  "nonce": 2202308737,
  "bits": "1a047f14",
  "difficulty": 3731199.183374282,
  "chainwork": "0000000000000000000000000000000000000000000000331cd018e041f74fb2",
  "previousblockhash": "ce85b7aee8df262f82cf4e80e747e1806cda834d304048459e2e410a5df5dc6f",
  "nextblockhash": "fd509680fcd76e2b32ea6bff59ebb7576f33fa4a111737b8a2965532d41228b6"
}
