{
  "hash": "29162972928dc2e94d68089f813beb158a73b2fa8c8e1956f9f84a765e35fa67",
  "confirmations": 1308,
  "strippedsize": 254,
  "size": 254,
  "weight": 1016,
  "height": 1359686,
  "version": 536870912,
  "versionHex": "20000000",
  "merkleroot": "c618cc0ff458a15ca6efe30548148290246a7c2b409b40d0b6d750dbc9a395a8",
  "tx": [
    {
      "txid": "c618cc0ff458a15ca6efe30548148290246a7c2b409b40d0b6d750dbc9a395a8",
      "hash": "c618cc0ff458a15ca6efe30548148290246a7c2b409b40d0b6d750dbc9a395a8",
      "version": 1,
      "size": 173,
      "vsize": 173,
      "locktime": 0,
      "vin": [
        {
          "coinbase": "0346bf141b4d696e656420627920416e74506f6f6c20626a312045205a707149fabe6d6d957a9610d0307588fc5fe872f2d3e2477f6b00972b9ddaa4b4b82f81e6fc16090400000000000000b62c0000000000001c000000",
          "sequence": 4294967295
        }
      ],
      "vout": [
        {
          "value": 25.00000000,
          "n": 0,
          "scriptPubKey": {
            "asm": "OP_DUP OP_HASH160 0ff3ccc5e8be88afe24b5d634e5852d474dbdff1 OP_EQUALVERIFY OP_CHECKSIG",
            "hex": "76a9140ff3ccc5e8be88afe24b5d634e5852d474dbdff188ac",
            "reqSigs": 1,
            "type": "pubkeyhash",
            "addresses": [
              "LLgJTbzZMsRTCUF1NtvvL9SR1a4pVieW89"
            ]
          }
        }
      ],
      "hex": "01000000010000000000000000000000000000000000000000000000000000000000000000ffffffff580346bf141b4d696e656420627920416e74506f6f6c20626a312045205a707149fabe6d6d957a9610d0307588fc5fe872f2d3e2477f6b00972b9ddaa4b4b82f81e6fc16090400000000000000b62c0000000000001c000000ffffffff0100f90295000000001976a9140ff3ccc5e8be88afe24b5d634e5852d474dbdff188ac00000000"
    }
  ],
  "time": 1517318473,
  "mediantime": 1517317937,
  "nonce": 2883503626,
  "bits": "1a042eae",
  "difficulty": 4011378.762614286,
  "chainwork": "0000000000000000000000000000000000000000000000343c8e4c65545b8e0e",
  "previousblockhash": "1f6d2511ac795de4930b98488078e2aeccf324f4229ab984283fdb1388f5d1ad",
  "nextblockhash": "f1264086742332097153bef9312aca08138135e205717279da92d2e2fd24fa04"
}
