{
  "hash": "29b1e984d929eb9121d76a1a7b93917b507bb90ec0e6226d8c5bdc96ac80218c",
  "confirmations": 2815,
  "strippedsize": 3908,
  "size": 3944,
  "weight": 15668,
  "height": 1358180,
  "version": 536870912,
  "versionHex": "20000000",
  "merkleroot": "1c4e59d45e53a927a5884fcead4ae4d9d39e56a72220ecb49d1bca75940b1647",
  "tx": [
    {
      "txid": "aee7a1e3f92edf8b640b9bdc36f4af8644ee92eb6e7733802183b0024bd9934c",
      "hash": "98a815a4d6518b99236728f3c089c617c62b8b40c747bea8225ca869004b7ebb",
      "version": 1,
      "size": 244,
      "vsize": 217,
      "locktime": 0,
      "vin": [
        {
          "coinbase": "0364b91404d2226d5a080102861730000000fabe6d6df2ab8e09a1eea6b32ff47b5b193e558bbc8ed050555f2b0aa6cf8448a997da1240000000000000000d2f6e6f64655374726174756d2f",
          "sequence": 0
        }
      ],
      "vout": [
        {
          "value": 25.00363000,
          "n": 0,
          "scriptPubKey": {
            "asm": "OP_DUP OP_HASH160 0c617fdb2ea42aed30a509595ee21ba3f6688db0 OP_EQUALVERIFY OP_CHECKSIG",
            "hex": "76a9140c617fdb2ea42aed30a509595ee21ba3f6688db088ac",
            "reqSigs": 1,
            "type": "pubkeyhash",
            "addresses": [
              "LLMRAtr3qBje2ySEa3CnZ55LA4TQMWnRY3"
            ]
          }
        }, 
        {
          "value": 0.00000000,
          "n": 1,
          "scriptPubKey": {
            "asm": "OP_RETURN aa21a9ed4dd9e6bd05d079f878819066ec211a93be127069fc4b2a2795bdbeb8394360ac",
            "hex": "6a24aa21a9ed4dd9e6bd05d079f878819066ec211a93be127069fc4b2a2795bdbeb8394360ac",
            "type": "nulldata"
          }
        }
      ],
      "hex": "010000000001010000000000000000000000000000000000000000000000000000000000000000ffffffff4c0364b91404d2226d5a080102861730000000fabe6d6df2ab8e09a1eea6b32ff47b5b193e558bbc8ed050555f2b0aa6cf8448a997da1240000000000000000d2f6e6f64655374726174756d2f0000000002f8820895000000001976a9140c617fdb2ea42aed30a509595ee21ba3f6688db088ac0000000000000000266a24aa21a9ed4dd9e6bd05d079f878819066ec211a93be127069fc4b2a2795bdbeb8394360ac0120000000000000000000000000000000000000000000000000000000000000000000000000"
    }, 
    {
      "txid": "bef9aa9bdae798b5b07c0ab4bf4cedf07b5b189b87dbe103770e6a0799b3b5bf",
      "hash": "bef9aa9bdae798b5b07c0ab4bf4cedf07b5b189b87dbe103770e6a0799b3b5bf",
      "version": 1,
      "size": 3619,
      "vsize": 3619,
      "locktime": 0,
      "vin": [
        {
          "txid": "c3fcc84a8df1cf5eacb38768a4e7136aee2f4d6f71c21d94404c2a59a10ff67c",
          "vout": 180,
          "scriptSig": {
            "asm": "3044022035dd6eae5a61cb16128f63be74753c37b31cb831354ba47f5d8755a8dc571149022067bb03338900e953ad2715e209848b12f2d6e6c6509133e147e8531bbab7157a[ALL] 027ac35b301f5ad72f58330a757b9bd895a6a92024b875347e392dda904a5406cc",
            "hex": "473044022035dd6eae5a61cb16128f63be74753c37b31cb831354ba47f5d8755a8dc571149022067bb03338900e953ad2715e209848b12f2d6e6c6509133e147e8531bbab7157a0121027ac35b301f5ad72f58330a757b9bd895a6a92024b875347e392dda904a5406cc"
          },
          "sequence": 4294967295
        }, 
        {
          "txid": "c3fcc84a8df1cf5eacb38768a4e7136aee2f4d6f71c21d94404c2a59a10ff67c",
          "vout": 2331,
          "scriptSig": {
            "asm": "304402207bbc7ab3e7b5a8a39f3e7ecf26a2a4d28c4d1148dd98db94044eceaee63eea8b02204a5ed5bebb2d1fac3f26ce069d31002f1939275a72c1590f0ecc177030cf0570[ALL] 026c4abffb0c015d684403b51878fee770564e6f4fca9b16ebd6a5b9488a7242ce",
            "hex": "47304402207bbc7ab3e7b5a8a39f3e7ecf26a2a4d28c4d1148dd98db94044eceaee63eea8b02204a5ed5bebb2d1fac3f26ce069d31002f1939275a72c1590f0ecc177030cf05700121026c4abffb0c015d684403b51878fee770564e6f4fca9b16ebd6a5b9488a7242ce"
          },
          "sequence": 4294967295
        }, 
        {
          "txid": "0b7f63304f45365a5cc8596a66ba7ab38997ca698674622f3ed5807f2d570061",
          "vout": 1,
          "scriptSig": {
            "asm": "30450221008a667e7703bcadbf65b049a008a86852a6a3e7a62eb2882ffd5beb27916308a202206e17ceecc3ab3719b70c299e0835180f6f4ca8ef4e58a744056c13ba28bbca84[ALL] 033a4aa3f305468059c1e052163345049cf1513781da8f7e655763c8ca429cf4c4",
            "hex": "4830450221008a667e7703bcadbf65b049a008a86852a6a3e7a62eb2882ffd5beb27916308a202206e17ceecc3ab3719b70c299e0835180f6f4ca8ef4e58a744056c13ba28bbca840121033a4aa3f305468059c1e052163345049cf1513781da8f7e655763c8ca429cf4c4"
          },
          "sequence": 4294967295
        }, 
        {
          "txid": "053b0f235475ece4ef9f062672fa3971fbdd30ef58206bdad27487619ff251e1",
          "vout": 886,
          "scriptSig": {
            "asm": "3045022100d795a76f9883daa2224a7b5c4e71b1056732933f1b15f8bbf6a83c8f0af7fd02022015ad542b946f084e5acb242bb4870f2fc7683793b4a8d92662dd92a89dbbe55b[ALL] 02ef5ebefc85579bcba5d7d9e8399001962d7114784de791fb674d749f3b928717",
            "hex": "483045022100d795a76f9883daa2224a7b5c4e71b1056732933f1b15f8bbf6a83c8f0af7fd02022015ad542b946f084e5acb242bb4870f2fc7683793b4a8d92662dd92a89dbbe55b012102ef5ebefc85579bcba5d7d9e8399001962d7114784de791fb674d749f3b928717"
          },
          "sequence": 4294967295
        }, 
        {
          "txid": "6d5e46819267fc28e5ca4bd9bd95668aa45d3164420065751c6e09ccd6e07503",
          "vout": 373,
          "scriptSig": {
            "asm": "304402202530abfd577b596972d54e60d7755ef23e535576400572c6c4a6a7fad698be9102206550718ed138d872da6914579fafbf24e7846f68e11a6dd428da72a08cf23d21[ALL] 02a9e12ba5e8d3005dffe169b0c2382c43cd61bfbb6cf39d97f4ceb98f597480cc",
            "hex": "47304402202530abfd577b596972d54e60d7755ef23e535576400572c6c4a6a7fad698be9102206550718ed138d872da6914579fafbf24e7846f68e11a6dd428da72a08cf23d21012102a9e12ba5e8d3005dffe169b0c2382c43cd61bfbb6cf39d97f4ceb98f597480cc"
          },
          "sequence": 4294967295
        }, 
        {
          "txid": "ac2ce007b09ab7c664129c7f5fbb7d481da6f487f00f26be59cf432cfd63ad5f",
          "vout": 1,
          "scriptSig": {
            "asm": "304402202702229d97095e713711ed0ddae3fcd6fe2760a6e87a3235a248040e17e6c78f02204baa60804e397dfa3b3799507cb9aa41835d7407eef353ce4d8bed398c84e3fa[ALL] 03ed3fc53df9daaa04a405853c8b9fc85474f53164b85ca30b7214dc5861063272",
            "hex": "47304402202702229d97095e713711ed0ddae3fcd6fe2760a6e87a3235a248040e17e6c78f02204baa60804e397dfa3b3799507cb9aa41835d7407eef353ce4d8bed398c84e3fa012103ed3fc53df9daaa04a405853c8b9fc85474f53164b85ca30b7214dc5861063272"
          },
          "sequence": 4294967295
        }, 
        {
          "txid": "a9e1ddd0ad1ab4bcdbfecc75e5a04ca8eddf69b060112b3b71ad882556b53ec7",
          "vout": 1,
          "scriptSig": {
            "asm": "3044022062c4fc5e67a4c66bab213ab42831ac1827d8f4b504ed9d48504d11021f317c1b02202c5ef290f98448f627792acd7a6b047a037ec14bae947707acb6f6461b915f70[ALL] 0330862fd14830fca522d23856660c5a5cb9a4a616a5eaa4d91493fe2c752a0bdd",
            "hex": "473044022062c4fc5e67a4c66bab213ab42831ac1827d8f4b504ed9d48504d11021f317c1b02202c5ef290f98448f627792acd7a6b047a037ec14bae947707acb6f6461b915f7001210330862fd14830fca522d23856660c5a5cb9a4a616a5eaa4d91493fe2c752a0bdd"
          },
          "sequence": 4294967295
        }, 
        {
          "txid": "8b28c74244a8e10cba9d2fc0ca32419b382b22c4190a9fba3c615ea5b78cb9ba",
          "vout": 0,
          "scriptSig": {
            "asm": "3045022100a35c6a4f3e93931f93f2aa82b910ae667405b4912b4e88594ee0a001de7e0571022066ef79bbeef46e2401c1708272383ef4357781d394eb6bed20cc9689a7f3d5d1[ALL] 027f1afa792ecbed4097c1bd88e1a529d95e17d667f2783714646275119037c804",
            "hex": "483045022100a35c6a4f3e93931f93f2aa82b910ae667405b4912b4e88594ee0a001de7e0571022066ef79bbeef46e2401c1708272383ef4357781d394eb6bed20cc9689a7f3d5d10121027f1afa792ecbed4097c1bd88e1a529d95e17d667f2783714646275119037c804"
          },
          "sequence": 4294967295
        }, 
        {
          "txid": "3396998861d6438ad463b9e55a5917fd1996ae6007993e4f5eb4d0be0df75590",
          "vout": 196,
          "scriptSig": {
            "asm": "304402203eb1bb6911e553807d3620460b69a63dd9627c7597a058957dce04f7a46e392b02202e6c0dbb95379ea715a6a2ab4c8ae0be01af2135fbc50d222d1c9ef73afede40[ALL] 02e6bc6c046afec3d11fd5c7ca2135f70e6a130bf0f72a19e23a0f355969891505",
            "hex": "47304402203eb1bb6911e553807d3620460b69a63dd9627c7597a058957dce04f7a46e392b02202e6c0dbb95379ea715a6a2ab4c8ae0be01af2135fbc50d222d1c9ef73afede40012102e6bc6c046afec3d11fd5c7ca2135f70e6a130bf0f72a19e23a0f355969891505"
          },
          "sequence": 4294967295
        }, 
        {
          "txid": "179272bb5c261db1dd171c3a83f95aefaa3dc16d7fbfc859edf44e9fa7078ddc",
          "vout": 1045,
          "scriptSig": {
            "asm": "304402206a74daa62929291f65adccc41eb26e1356d775f9de17c3cccab0719d5ccce4650220039d8bb21892f88208193b1378cc33d8d9f578c083e40250831c058ec8146c2d[ALL] 03ec77de4d12f19f4fb53e3560f2329064f23148389c46df7231e78e11d7464c6b",
            "hex": "47304402206a74daa62929291f65adccc41eb26e1356d775f9de17c3cccab0719d5ccce4650220039d8bb21892f88208193b1378cc33d8d9f578c083e40250831c058ec8146c2d012103ec77de4d12f19f4fb53e3560f2329064f23148389c46df7231e78e11d7464c6b"
          },
          "sequence": 4294967295
        }, 
        {
          "txid": "6d5e46819267fc28e5ca4bd9bd95668aa45d3164420065751c6e09ccd6e07503",
          "vout": 766,
          "scriptSig": {
            "asm": "3045022100a86a1a3804839545f8cc19bc35c64f8215c477581fd3f39321b613a6d98e355502201340de4c16cead009b489014f9d00e507959f8fa6c8a4fdfcdb00791b4901833[ALL] 02b6ee6801d2eeb28553fa888990869a4019618185cc7c0c569481de05023047b7",
            "hex": "483045022100a86a1a3804839545f8cc19bc35c64f8215c477581fd3f39321b613a6d98e355502201340de4c16cead009b489014f9d00e507959f8fa6c8a4fdfcdb00791b4901833012102b6ee6801d2eeb28553fa888990869a4019618185cc7c0c569481de05023047b7"
          },
          "sequence": 4294967295
        }, 
        {
          "txid": "74118f6f1bd423968239361a6581d86321d111095d583ef88a46b62bef0f6e97",
          "vout": 0,
          "scriptSig": {
            "asm": "3045022100b564cad44c0c7122a59de411c1b3dc0a2a69cbc92a1b636985f277ee9c8f458d02205bc9889228595e25e8461074f6ffd691f70e102b081a427515f6fb8ae6166a9d[ALL] 02fed63b77e2205d5f19a5c02b1298fd1bb768b08511b0dbddbecd2b40c156a598",
            "hex": "483045022100b564cad44c0c7122a59de411c1b3dc0a2a69cbc92a1b636985f277ee9c8f458d02205bc9889228595e25e8461074f6ffd691f70e102b081a427515f6fb8ae6166a9d012102fed63b77e2205d5f19a5c02b1298fd1bb768b08511b0dbddbecd2b40c156a598"
          },
          "sequence": 4294967295
        }, 
        {
          "txid": "31f83e34a54d5b088d5300e9c9c8f0478645e968a225ec5420f3ef34261bf5c4",
          "vout": 1,
          "scriptSig": {
            "asm": "30450221008750eaef7e15c517da214a2fb7f350799087af53bade0b227475d984cc9d80450220130b5b54fb154714691a271d04bcc6099b722ffa1049db6e8b913331ecaae592[ALL] 021185d85964b7457420995e086aa6be437800fe59e52d7327c4bbde069da18609",
            "hex": "4830450221008750eaef7e15c517da214a2fb7f350799087af53bade0b227475d984cc9d80450220130b5b54fb154714691a271d04bcc6099b722ffa1049db6e8b913331ecaae5920121021185d85964b7457420995e086aa6be437800fe59e52d7327c4bbde069da18609"
          },
          "sequence": 4294967295
        }, 
        {
          "txid": "6d5e46819267fc28e5ca4bd9bd95668aa45d3164420065751c6e09ccd6e07503",
          "vout": 788,
          "scriptSig": {
            "asm": "3045022100fcc9d5913f8c59d27a657033e83021dfda90fdaf8b18590816ff4ec5e2a7acd102203a4770c097b78e4364079a4bf36bc012e1c59b81857ad0f7e4b1e4c06ea046f8[ALL] 025d8f2cc4d1aa989cd4590ab7d534606804d867845f8f634b54229dcc4b3ebb3f",
            "hex": "483045022100fcc9d5913f8c59d27a657033e83021dfda90fdaf8b18590816ff4ec5e2a7acd102203a4770c097b78e4364079a4bf36bc012e1c59b81857ad0f7e4b1e4c06ea046f80121025d8f2cc4d1aa989cd4590ab7d534606804d867845f8f634b54229dcc4b3ebb3f"
          },
          "sequence": 4294967295
        }, 
        {
          "txid": "6d5e46819267fc28e5ca4bd9bd95668aa45d3164420065751c6e09ccd6e07503",
          "vout": 1188,
          "scriptSig": {
            "asm": "304502210084a4af7dcf490b12cf7984aea520dd6140d448c0d522bbdf2610c57bbd1888a30220715316523983e533f820f5cd9231a80085ac9a12d2dedd23c650df19a9a03e40[ALL] 026b0caff8196724cb2605f3e07ce803c8e02741c615233154eb5a6dbd686ab494",
            "hex": "48304502210084a4af7dcf490b12cf7984aea520dd6140d448c0d522bbdf2610c57bbd1888a30220715316523983e533f820f5cd9231a80085ac9a12d2dedd23c650df19a9a03e400121026b0caff8196724cb2605f3e07ce803c8e02741c615233154eb5a6dbd686ab494"
          },
          "sequence": 4294967295
        }, 
        {
          "txid": "76349f8a34603659d2429cfd23d465c3b47d2a09cf460674970b14b3107fe90a",
          "vout": 1981,
          "scriptSig": {
            "asm": "304402203c23c449d19d884ec13eb835402cb92d69e7eea54210163d9f32d839bfd478df02203791d13c58f947d24054973bf237c900ec5979351fe746a028d67601ec3dcfd9[ALL] 025d9d8e89e47d27407363d7ccefc253d23b72d09f1b7aa016813a17ef4419b78d",
            "hex": "47304402203c23c449d19d884ec13eb835402cb92d69e7eea54210163d9f32d839bfd478df02203791d13c58f947d24054973bf237c900ec5979351fe746a028d67601ec3dcfd90121025d9d8e89e47d27407363d7ccefc253d23b72d09f1b7aa016813a17ef4419b78d"
          },
          "sequence": 4294967295
        }, 
        {
          "txid": "053b0f235475ece4ef9f062672fa3971fbdd30ef58206bdad27487619ff251e1",
          "vout": 186,
          "scriptSig": {
            "asm": "3045022100e5afe4115017abe92351cf96b8753689f474293d89ea5454a4eecdeb1241aaf602207bb1116e5ece138dd210116dc1de61d6ced4ac91a71e66702cc6c9db1edefd0c[ALL] 027ac35b301f5ad72f58330a757b9bd895a6a92024b875347e392dda904a5406cc",
            "hex": "483045022100e5afe4115017abe92351cf96b8753689f474293d89ea5454a4eecdeb1241aaf602207bb1116e5ece138dd210116dc1de61d6ced4ac91a71e66702cc6c9db1edefd0c0121027ac35b301f5ad72f58330a757b9bd895a6a92024b875347e392dda904a5406cc"
          },
          "sequence": 4294967295
        }, 
        {
          "txid": "053b0f235475ece4ef9f062672fa3971fbdd30ef58206bdad27487619ff251e1",
          "vout": 2336,
          "scriptSig": {
            "asm": "3045022100d9a632a9bee7fc66201265e858246d13cc40c96b6eb1c79b7898189be5c1ac1e022007e5ed524e41971e8eaee0227c11fed727b784c7f9f368afa79e1903282e1f77[ALL] 026c4abffb0c015d684403b51878fee770564e6f4fca9b16ebd6a5b9488a7242ce",
            "hex": "483045022100d9a632a9bee7fc66201265e858246d13cc40c96b6eb1c79b7898189be5c1ac1e022007e5ed524e41971e8eaee0227c11fed727b784c7f9f368afa79e1903282e1f770121026c4abffb0c015d684403b51878fee770564e6f4fca9b16ebd6a5b9488a7242ce"
          },
          "sequence": 4294967295
        }, 
        {
          "txid": "be6809ec4767cb4a24ec26bda5e0bb4726950263a23369655fcfa72ebcdfcb6d",
          "vout": 0,
          "scriptSig": {
            "asm": "304402201d5ee8c1a29f9575d9d98ca837e50e8aaaa959f0d8d56803734ef6a84e0b83d902200177955443066e820dd7ef405907cf069997104e9ca79941c5e2233af82ac49a[ALL] 03c5ab72d9784371f99cb47c3f44382a09f381b63a1499d61af9c49b5d657dd282",
            "hex": "47304402201d5ee8c1a29f9575d9d98ca837e50e8aaaa959f0d8d56803734ef6a84e0b83d902200177955443066e820dd7ef405907cf069997104e9ca79941c5e2233af82ac49a012103c5ab72d9784371f99cb47c3f44382a09f381b63a1499d61af9c49b5d657dd282"
          },
          "sequence": 4294967295
        }, 
        {
          "txid": "27cd5b06e0685e76104f752a35f35f4dd7c4c41efa1974088024bbca15cec48c",
          "vout": 35,
          "scriptSig": {
            "asm": "3045022100d591117f70e1b7e06e7f82387d17d3b978b01e286dde1194880f459163940e9b02205f0a1ff5e52bf74bfdcff40c5c81c9e0f22eb7948d2afec335d185d79a09eaba[ALL] 0219567c11ac453d450437dd51ada942856943cb207f5e981920cbe7ce03ca6704",
            "hex": "483045022100d591117f70e1b7e06e7f82387d17d3b978b01e286dde1194880f459163940e9b02205f0a1ff5e52bf74bfdcff40c5c81c9e0f22eb7948d2afec335d185d79a09eaba01210219567c11ac453d450437dd51ada942856943cb207f5e981920cbe7ce03ca6704"
          },
          "sequence": 4294967295
        }, 
        {
          "txid": "6d5e46819267fc28e5ca4bd9bd95668aa45d3164420065751c6e09ccd6e07503",
          "vout": 924,
          "scriptSig": {
            "asm": "3045022100f17ba7858c381735df383e212edb8a8d4eebe4b22681672c207445c149ff41a6022034f4af3f3807522d392ec9ea0f5787233e9d40ddce448213030b5ff34fe66663[ALL] 027db76e8fe08efc1347475bacf62dc94f7a5d7d5f294c9a731d8f9f7d83a64ee0",
            "hex": "483045022100f17ba7858c381735df383e212edb8a8d4eebe4b22681672c207445c149ff41a6022034f4af3f3807522d392ec9ea0f5787233e9d40ddce448213030b5ff34fe666630121027db76e8fe08efc1347475bacf62dc94f7a5d7d5f294c9a731d8f9f7d83a64ee0"
          },
          "sequence": 4294967295
        }, 
        {
          "txid": "c3fcc84a8df1cf5eacb38768a4e7136aee2f4d6f71c21d94404c2a59a10ff67c",
          "vout": 890,
          "scriptSig": {
            "asm": "304502210098aaa6dfce4ad73f9b4926d632ed422ad7b7ce41850d34efe79b35aa05b0ab2b02201a1f4776bb264711bb51d9cca73c79e13f007daf355e1b3c099562f7754a1a3d[ALL] 02ef5ebefc85579bcba5d7d9e8399001962d7114784de791fb674d749f3b928717",
            "hex": "48304502210098aaa6dfce4ad73f9b4926d632ed422ad7b7ce41850d34efe79b35aa05b0ab2b02201a1f4776bb264711bb51d9cca73c79e13f007daf355e1b3c099562f7754a1a3d012102ef5ebefc85579bcba5d7d9e8399001962d7114784de791fb674d749f3b928717"
          },
          "sequence": 4294967295
        }, 
        {
          "txid": "0342a09efcd3a538d570763c75eb8691e82c160aa86e887b066d3d1768e2e749",
          "vout": 0,
          "scriptSig": {
            "asm": "3044022022f9b6b66fc34bb1b598f7e51b76120b917cd51857bedee9a16628c42d3a33a6022016c28b4580eb9d5b5e666b073bda26d3505f5a1ba6b2e518a500e176b37edbe6[ALL] 03ef7293bde31125403e0d4af3a1bbf38f066f9217545f733d3b43d9485d5551cb",
            "hex": "473044022022f9b6b66fc34bb1b598f7e51b76120b917cd51857bedee9a16628c42d3a33a6022016c28b4580eb9d5b5e666b073bda26d3505f5a1ba6b2e518a500e176b37edbe6012103ef7293bde31125403e0d4af3a1bbf38f066f9217545f733d3b43d9485d5551cb"
          },
          "sequence": 4294967295
        }, 
        {
          "txid": "053b0f235475ece4ef9f062672fa3971fbdd30ef58206bdad27487619ff251e1",
          "vout": 1848,
          "scriptSig": {
            "asm": "304402202270f9bb0069c287f307da5fd86258ecab851caf4b975fd700bbbe48fbac125b022075e9d13ee111d3097ead8aae62075ddf36cc244b321cfc849ea17876aef06e50[ALL] 03607983431239437eb6cf4f6b4e16f1c68431f0ce8cb39c7700ab2fd1c22c7c54",
            "hex": "47304402202270f9bb0069c287f307da5fd86258ecab851caf4b975fd700bbbe48fbac125b022075e9d13ee111d3097ead8aae62075ddf36cc244b321cfc849ea17876aef06e50012103607983431239437eb6cf4f6b4e16f1c68431f0ce8cb39c7700ab2fd1c22c7c54"
          },
          "sequence": 4294967295
        }
      ],
      "vout": [
        {
          "value": 0.07243147,
          "n": 0,
          "scriptPubKey": {
            "asm": "OP_DUP OP_HASH160 bf0212bfd2cb3966d3de12f0beed6f02ce63fcc3 OP_EQUALVERIFY OP_CHECKSIG",
            "hex": "76a914bf0212bfd2cb3966d3de12f0beed6f02ce63fcc388ac",
            "reqSigs": 1,
            "type": "pubkeyhash",
            "addresses": [
              "LcduouNjUdgyjrtQ34sAJzGdarFi2TpuFr"
            ]
          }
        }, 
        {
          "value": 0.00062048,
          "n": 1,
          "scriptPubKey": {
            "asm": "OP_DUP OP_HASH160 1b2d2c94402a20908fac10f3775ca8568940bd97 OP_EQUALVERIFY OP_CHECKSIG",
            "hex": "76a9141b2d2c94402a20908fac10f3775ca8568940bd9788ac",
            "reqSigs": 1,
            "type": "pubkeyhash",
            "addresses": [
              "LMhed9T78Q9ZvThS6gv9z4t4uBAMTB5G4e"
            ]
          }
        }
      ],
      "hex": "01000000187cf60fa1592a4c40941dc2716f4d2fee6a13e7a46887b3ac5ecff18d4ac8fcc3b40000006a473044022035dd6eae5a61cb16128f63be74753c37b31cb831354ba47f5d8755a8dc571149022067bb03338900e953ad2715e209848b12f2d6e6c6509133e147e8531bbab7157a0121027ac35b301f5ad72f58330a757b9bd895a6a92024b875347e392dda904a5406ccffffffff7cf60fa1592a4c40941dc2716f4d2fee6a13e7a46887b3ac5ecff18d4ac8fcc31b0900006a47304402207bbc7ab3e7b5a8a39f3e7ecf26a2a4d28c4d1148dd98db94044eceaee63eea8b02204a5ed5bebb2d1fac3f26ce069d31002f1939275a72c1590f0ecc177030cf05700121026c4abffb0c015d684403b51878fee770564e6f4fca9b16ebd6a5b9488a7242ceffffffff6100572d7f80d53e2f62748669ca9789b37aba666a59c85c5a36454f30637f0b010000006b4830450221008a667e7703bcadbf65b049a008a86852a6a3e7a62eb2882ffd5beb27916308a202206e17ceecc3ab3719b70c299e0835180f6f4ca8ef4e58a744056c13ba28bbca840121033a4aa3f305468059c1e052163345049cf1513781da8f7e655763c8ca429cf4c4ffffffffe151f29f618774d2da6b2058ef30ddfb7139fa7226069fefe4ec7554230f3b05760300006b483045022100d795a76f9883daa2224a7b5c4e71b1056732933f1b15f8bbf6a83c8f0af7fd02022015ad542b946f084e5acb242bb4870f2fc7683793b4a8d92662dd92a89dbbe55b012102ef5ebefc85579bcba5d7d9e8399001962d7114784de791fb674d749f3b928717ffffffff0375e0d6cc096e1c7565004264315da48a6695bdd94bcae528fc679281465e6d750100006a47304402202530abfd577b596972d54e60d7755ef23e535576400572c6c4a6a7fad698be9102206550718ed138d872da6914579fafbf24e7846f68e11a6dd428da72a08cf23d21012102a9e12ba5e8d3005dffe169b0c2382c43cd61bfbb6cf39d97f4ceb98f597480ccffffffff5fad63fd2c43cf59be260ff087f4a61d487dbb5f7f9c1264c6b79ab007e02cac010000006a47304402202702229d97095e713711ed0ddae3fcd6fe2760a6e87a3235a248040e17e6c78f02204baa60804e397dfa3b3799507cb9aa41835d7407eef353ce4d8bed398c84e3fa012103ed3fc53df9daaa04a405853c8b9fc85474f53164b85ca30b7214dc5861063272ffffffffc73eb5562588ad713b2b1160b069dfeda84ca0e575ccfedbbcb41aadd0dde1a9010000006a473044022062c4fc5e67a4c66bab213ab42831ac1827d8f4b504ed9d48504d11021f317c1b02202c5ef290f98448f627792acd7a6b047a037ec14bae947707acb6f6461b915f7001210330862fd14830fca522d23856660c5a5cb9a4a616a5eaa4d91493fe2c752a0bddffffffffbab98cb7a55e613cba9f0a19c4222b389b4132cac02f9dba0ce1a84442c7288b000000006b483045022100a35c6a4f3e93931f93f2aa82b910ae667405b4912b4e88594ee0a001de7e0571022066ef79bbeef46e2401c1708272383ef4357781d394eb6bed20cc9689a7f3d5d10121027f1afa792ecbed4097c1bd88e1a529d95e17d667f2783714646275119037c804ffffffff9055f70dbed0b45e4f3e990760ae9619fd17595ae5b963d48a43d66188999633c40000006a47304402203eb1bb6911e553807d3620460b69a63dd9627c7597a058957dce04f7a46e392b02202e6c0dbb95379ea715a6a2ab4c8ae0be01af2135fbc50d222d1c9ef73afede40012102e6bc6c046afec3d11fd5c7ca2135f70e6a130bf0f72a19e23a0f355969891505ffffffffdc8d07a79f4ef4ed59c8bf7f6dc13daaef5af9833a1c17ddb11d265cbb729217150400006a47304402206a74daa62929291f65adccc41eb26e1356d775f9de17c3cccab0719d5ccce4650220039d8bb21892f88208193b1378cc33d8d9f578c083e40250831c058ec8146c2d012103ec77de4d12f19f4fb53e3560f2329064f23148389c46df7231e78e11d7464c6bffffffff0375e0d6cc096e1c7565004264315da48a6695bdd94bcae528fc679281465e6dfe0200006b483045022100a86a1a3804839545f8cc19bc35c64f8215c477581fd3f39321b613a6d98e355502201340de4c16cead009b489014f9d00e507959f8fa6c8a4fdfcdb00791b4901833012102b6ee6801d2eeb28553fa888990869a4019618185cc7c0c569481de05023047b7ffffffff976e0fef2bb6468af83e585d0911d12163d881651a3639829623d41b6f8f1174000000006b483045022100b564cad44c0c7122a59de411c1b3dc0a2a69cbc92a1b636985f277ee9c8f458d02205bc9889228595e25e8461074f6ffd691f70e102b081a427515f6fb8ae6166a9d012102fed63b77e2205d5f19a5c02b1298fd1bb768b08511b0dbddbecd2b40c156a598ffffffffc4f51b2634eff32054ec25a268e9458647f0c8c9e900538d085b4da5343ef831010000006b4830450221008750eaef7e15c517da214a2fb7f350799087af53bade0b227475d984cc9d80450220130b5b54fb154714691a271d04bcc6099b722ffa1049db6e8b913331ecaae5920121021185d85964b7457420995e086aa6be437800fe59e52d7327c4bbde069da18609ffffffff0375e0d6cc096e1c7565004264315da48a6695bdd94bcae528fc679281465e6d140300006b483045022100fcc9d5913f8c59d27a657033e83021dfda90fdaf8b18590816ff4ec5e2a7acd102203a4770c097b78e4364079a4bf36bc012e1c59b81857ad0f7e4b1e4c06ea046f80121025d8f2cc4d1aa989cd4590ab7d534606804d867845f8f634b54229dcc4b3ebb3fffffffff0375e0d6cc096e1c7565004264315da48a6695bdd94bcae528fc679281465e6da40400006b48304502210084a4af7dcf490b12cf7984aea520dd6140d448c0d522bbdf2610c57bbd1888a30220715316523983e533f820f5cd9231a80085ac9a12d2dedd23c650df19a9a03e400121026b0caff8196724cb2605f3e07ce803c8e02741c615233154eb5a6dbd686ab494ffffffff0ae97f10b3140b97740646cf092a7db4c365d423fd9c42d2593660348a9f3476bd0700006a47304402203c23c449d19d884ec13eb835402cb92d69e7eea54210163d9f32d839bfd478df02203791d13c58f947d24054973bf237c900ec5979351fe746a028d67601ec3dcfd90121025d9d8e89e47d27407363d7ccefc253d23b72d09f1b7aa016813a17ef4419b78dffffffffe151f29f618774d2da6b2058ef30ddfb7139fa7226069fefe4ec7554230f3b05ba0000006b483045022100e5afe4115017abe92351cf96b8753689f474293d89ea5454a4eecdeb1241aaf602207bb1116e5ece138dd210116dc1de61d6ced4ac91a71e66702cc6c9db1edefd0c0121027ac35b301f5ad72f58330a757b9bd895a6a92024b875347e392dda904a5406ccffffffffe151f29f618774d2da6b2058ef30ddfb7139fa7226069fefe4ec7554230f3b05200900006b483045022100d9a632a9bee7fc66201265e858246d13cc40c96b6eb1c79b7898189be5c1ac1e022007e5ed524e41971e8eaee0227c11fed727b784c7f9f368afa79e1903282e1f770121026c4abffb0c015d684403b51878fee770564e6f4fca9b16ebd6a5b9488a7242ceffffffff6dcbdfbc2ea7cf5f656933a26302952647bbe0a5bd26ec244acb6747ec0968be000000006a47304402201d5ee8c1a29f9575d9d98ca837e50e8aaaa959f0d8d56803734ef6a84e0b83d902200177955443066e820dd7ef405907cf069997104e9ca79941c5e2233af82ac49a012103c5ab72d9784371f99cb47c3f44382a09f381b63a1499d61af9c49b5d657dd282ffffffff8cc4ce15cabb2480087419fa1ec4c4d74d5ff3352a754f10765e68e0065bcd27230000006b483045022100d591117f70e1b7e06e7f82387d17d3b978b01e286dde1194880f459163940e9b02205f0a1ff5e52bf74bfdcff40c5c81c9e0f22eb7948d2afec335d185d79a09eaba01210219567c11ac453d450437dd51ada942856943cb207f5e981920cbe7ce03ca6704ffffffff0375e0d6cc096e1c7565004264315da48a6695bdd94bcae528fc679281465e6d9c0300006b483045022100f17ba7858c381735df383e212edb8a8d4eebe4b22681672c207445c149ff41a6022034f4af3f3807522d392ec9ea0f5787233e9d40ddce448213030b5ff34fe666630121027db76e8fe08efc1347475bacf62dc94f7a5d7d5f294c9a731d8f9f7d83a64ee0ffffffff7cf60fa1592a4c40941dc2716f4d2fee6a13e7a46887b3ac5ecff18d4ac8fcc37a0300006b48304502210098aaa6dfce4ad73f9b4926d632ed422ad7b7ce41850d34efe79b35aa05b0ab2b02201a1f4776bb264711bb51d9cca73c79e13f007daf355e1b3c099562f7754a1a3d012102ef5ebefc85579bcba5d7d9e8399001962d7114784de791fb674d749f3b928717ffffffff49e7e268173d6d067b886ea80a162ce89186eb753c7670d538a5d3fc9ea04203000000006a473044022022f9b6b66fc34bb1b598f7e51b76120b917cd51857bedee9a16628c42d3a33a6022016c28b4580eb9d5b5e666b073bda26d3505f5a1ba6b2e518a500e176b37edbe6012103ef7293bde31125403e0d4af3a1bbf38f066f9217545f733d3b43d9485d5551cbffffffffe151f29f618774d2da6b2058ef30ddfb7139fa7226069fefe4ec7554230f3b05380700006a47304402202270f9bb0069c287f307da5fd86258ecab851caf4b975fd700bbbe48fbac125b022075e9d13ee111d3097ead8aae62075ddf36cc244b321cfc849ea17876aef06e50012103607983431239437eb6cf4f6b4e16f1c68431f0ce8cb39c7700ab2fd1c22c7c54ffffffff028b856e00000000001976a914bf0212bfd2cb3966d3de12f0beed6f02ce63fcc388ac60f20000000000001976a9141b2d2c94402a20908fac10f3775ca8568940bd9788ac00000000"
    }
  ],
  "time": 1517101685,
  "mediantime": 1517100918,
  "nonce": 3635920458,
  "bits": "1a047f14",
  "difficulty": 3731199.183374282,
  "chainwork": "000000000000000000000000000000000000000000000032de8a737f44519342",
  "previousblockhash": "36fb3588c0611d8489a472881a2022c96c4d252044f68697296e0214d40d2ebd",
  "nextblockhash": "8e832914cab170ab7dd99f99505ae030d26563d293b0a50850e0405486b388e5"
}
