{
  "hash": "2a46a2c0df21e379b7b5421c95075118ab3306b50a3cff115be29726f87d3fbb",
  "confirmations": 1271,
  "strippedsize": 2001,
  "size": 2037,
  "weight": 8040,
  "height": 1359723,
  "version": 536870912,
  "versionHex": "20000000",
  "merkleroot": "ff8862fc7a732d40ad15096c652a3df59c0af93364d39b7365a824dafc0d15ef",
  "tx": [
    {
      "txid": "5952665dafa374ed6ba2e35ccff0462f0919490fb192a09d116f487db025b8b5",
      "hash": "13074f0fdf8f37b9d32cbd6f74f76d1c555d9678b15ed0ecdf0330e4c137f81b",
      "version": 1,
      "size": 244,
      "vsize": 217,
      "locktime": 0,
      "vin": [
        {
          "coinbase": "036bbf1404ee83705a080392facc15000000fabe6d6dc31ae43c17319fb7ed2916c57adc08b9b94544e66415f20cffec73dace7c067d40000000000000000d2f6e6f64655374726174756d2f",
          "sequence": 0
        }
      ],
      "vout": [
        {
          "value": 25.00171662,
          "n": 0,
          "scriptPubKey": {
            "asm": "OP_DUP OP_HASH160 0c617fdb2ea42aed30a509595ee21ba3f6688db0 OP_EQUALVERIFY OP_CHECKSIG",
            "hex": "76a9140c617fdb2ea42aed30a509595ee21ba3f6688db088ac",
            "reqSigs": 1,
            "type": "pubkeyhash",
            "addresses": [
              "LLMRAtr3qBje2ySEa3CnZ55LA4TQMWnRY3"
            ]
          }
        }, 
        {
          "value": 0.00000000,
          "n": 1,
          "scriptPubKey": {
            "asm": "OP_RETURN aa21a9ed4207326e28d11de3baf0df1f6da6569d59e5a601e2aa20f4ea8685b40e2d9967",
            "hex": "6a24aa21a9ed4207326e28d11de3baf0df1f6da6569d59e5a601e2aa20f4ea8685b40e2d9967",
            "type": "nulldata"
          }
        }
      ],
      "hex": "010000000001010000000000000000000000000000000000000000000000000000000000000000ffffffff4c036bbf1404ee83705a080392facc15000000fabe6d6dc31ae43c17319fb7ed2916c57adc08b9b94544e66415f20cffec73dace7c067d40000000000000000d2f6e6f64655374726174756d2f00000000028e970595000000001976a9140c617fdb2ea42aed30a509595ee21ba3f6688db088ac0000000000000000266a24aa21a9ed4207326e28d11de3baf0df1f6da6569d59e5a601e2aa20f4ea8685b40e2d99670120000000000000000000000000000000000000000000000000000000000000000000000000"
    }, 
    {
      "txid": "862b616bba401e8d2a8620e230b9d56e147110c1873e99bb3fe5da57badc87e5",
      "hash": "862b616bba401e8d2a8620e230b9d56e147110c1873e99bb3fe5da57badc87e5",
      "version": 2,
      "size": 225,
      "vsize": 225,
      "locktime": 1359721,
      "vin": [
        {
          "txid": "8e563c89311a24635b8fea19965c3d03312696371b0b56de49416e7890791dd2",
          "vout": 0,
          "scriptSig": {
            "asm": "304402201e69bd620f64bfb856433d5953ada9a8632cd50cbd90c3f9c4cee0e8f34499860220770e599cbd1d57ac887119f0c2734a03380016cf166363691ae7e961a754b27f[ALL] 0261fb9f4effafb29912e627ad96219481c9bccbaf45640d5e46239bd981d869b7",
            "hex": "47304402201e69bd620f64bfb856433d5953ada9a8632cd50cbd90c3f9c4cee0e8f34499860220770e599cbd1d57ac887119f0c2734a03380016cf166363691ae7e961a754b27f01210261fb9f4effafb29912e627ad96219481c9bccbaf45640d5e46239bd981d869b7"
          },
          "sequence": 4294967294
        }
      ],
      "vout": [
        {
          "value": 0.01222603,
          "n": 0,
          "scriptPubKey": {
            "asm": "OP_DUP OP_HASH160 0f0d197f53642eed2814b4901e78d5f5271a9b1e OP_EQUALVERIFY OP_CHECKSIG",
            "hex": "76a9140f0d197f53642eed2814b4901e78d5f5271a9b1e88ac",
            "reqSigs": 1,
            "type": "pubkeyhash",
            "addresses": [
              "LLbY6GQzkcrRQEDjSxFQd8D2sCX2ALCSDv"
            ]
          }
        }, 
        {
          "value": 0.52124891,
          "n": 1,
          "scriptPubKey": {
            "asm": "OP_DUP OP_HASH160 7511b654fba795e4eabc2bade33d4464dbb8f6aa OP_EQUALVERIFY OP_CHECKSIG",
            "hex": "76a9147511b654fba795e4eabc2bade33d4464dbb8f6aa88ac",
            "reqSigs": 1,
            "type": "pubkeyhash",
            "addresses": [
              "LVtxYKnpZDsAQqXbkqEBmv4xvcw4mstn86"
            ]
          }
        }
      ],
      "hex": "0200000001d21d7990786e4149de560b1b37962631033d5c9619ea8f5b63241a31893c568e000000006a47304402201e69bd620f64bfb856433d5953ada9a8632cd50cbd90c3f9c4cee0e8f34499860220770e599cbd1d57ac887119f0c2734a03380016cf166363691ae7e961a754b27f01210261fb9f4effafb29912e627ad96219481c9bccbaf45640d5e46239bd981d869b7feffffff02cba71200000000001976a9140f0d197f53642eed2814b4901e78d5f5271a9b1e88acdb5c1b03000000001976a9147511b654fba795e4eabc2bade33d4464dbb8f6aa88ac69bf1400"
    }, 
    {
      "txid": "7bbf74565627a209c04228423132813905d4ab72428a505c5088635e0793568c",
      "hash": "7bbf74565627a209c04228423132813905d4ab72428a505c5088635e0793568c",
      "version": 1,
      "size": 225,
      "vsize": 225,
      "locktime": 0,
      "vin": [
        {
          "txid": "65d1cfe654a23ac863bbd3733590a65765298b5bceaea550274d93940be55aa7",
          "vout": 237,
          "scriptSig": {
            "asm": "304402202ade0f21cccdacf1588ee9e3421260e6ffc4b82c609a617adb886bfab8d42e6a0220461a9d93bc0cbb5e7d4d320d82c067c3e44eb7320ef56ac9299839775e9445dd[ALL] 02b4499e626144e7adf6306805d3f0a5cbdd5ce4e032acae62b0cf8da172e707fd",
            "hex": "47304402202ade0f21cccdacf1588ee9e3421260e6ffc4b82c609a617adb886bfab8d42e6a0220461a9d93bc0cbb5e7d4d320d82c067c3e44eb7320ef56ac9299839775e9445dd012102b4499e626144e7adf6306805d3f0a5cbdd5ce4e032acae62b0cf8da172e707fd"
          },
          "sequence": 4294967295
        }
      ],
      "vout": [
        {
          "value": 0.00057139,
          "n": 0,
          "scriptPubKey": {
            "asm": "OP_DUP OP_HASH160 18f654bad6ba413abbad663da98971eff0bd9ef4 OP_EQUALVERIFY OP_CHECKSIG",
            "hex": "76a91418f654bad6ba413abbad663da98971eff0bd9ef488ac",
            "reqSigs": 1,
            "type": "pubkeyhash",
            "addresses": [
              "LMVwaCAC33ts3abupK6KMbZfKsEC4WThxg"
            ]
          }
        }, 
        {
          "value": 0.18364117,
          "n": 1,
          "scriptPubKey": {
            "asm": "OP_DUP OP_HASH160 4ed1f58b89f9e00b7aad6cb9f86e9f9fec7e0101 OP_EQUALVERIFY OP_CHECKSIG",
            "hex": "76a9144ed1f58b89f9e00b7aad6cb9f86e9f9fec7e010188ac",
            "reqSigs": 1,
            "type": "pubkeyhash",
            "addresses": [
              "LSQiVPogEaT2kqYAXApWNU4XEWo8mcEw3L"
            ]
          }
        }
      ],
      "hex": "0100000001a75ae50b94934d2750a5aece5b8b296557a6903573d3bb63c83aa254e6cfd165ed0000006a47304402202ade0f21cccdacf1588ee9e3421260e6ffc4b82c609a617adb886bfab8d42e6a0220461a9d93bc0cbb5e7d4d320d82c067c3e44eb7320ef56ac9299839775e9445dd012102b4499e626144e7adf6306805d3f0a5cbdd5ce4e032acae62b0cf8da172e707fdffffffff0233df0000000000001976a91418f654bad6ba413abbad663da98971eff0bd9ef488acd5361801000000001976a9144ed1f58b89f9e00b7aad6cb9f86e9f9fec7e010188ac00000000"
    }, 
    {
      "txid": "7250d927ad280c9358214e0be278404086367ea95b87cf99a339330fc61c5ec4",
      "hash": "7250d927ad280c9358214e0be278404086367ea95b87cf99a339330fc61c5ec4",
      "version": 2,
      "size": 225,
      "vsize": 225,
      "locktime": 1359721,
      "vin": [
        {
          "txid": "8e1317049827f908b51f962853951a3dc4759017350482a739b120a7987b7716",
          "vout": 2243,
          "scriptSig": {
            "asm": "304402201fce1d773aa9e6a354cf97300bbec471e9caadb9799faab5d2be477105f8744302205978d2bda7275b98697ab5ddcc78cefc530ce25a6d3c79f826d923e1483458b2[ALL] 02a1889fda452255d1d8cdc49271cc0d391af8fafc80b85b0ee63c3a20d23a1f29",
            "hex": "47304402201fce1d773aa9e6a354cf97300bbec471e9caadb9799faab5d2be477105f8744302205978d2bda7275b98697ab5ddcc78cefc530ce25a6d3c79f826d923e1483458b2012102a1889fda452255d1d8cdc49271cc0d391af8fafc80b85b0ee63c3a20d23a1f29"
          },
          "sequence": 4294967294
        }
      ],
      "vout": [
        {
          "value": 0.01002223,
          "n": 0,
          "scriptPubKey": {
            "asm": "OP_DUP OP_HASH160 6a81e81fb3fcf6fc0fb0a80b6a46c449546b1832 OP_EQUALVERIFY OP_CHECKSIG",
            "hex": "76a9146a81e81fb3fcf6fc0fb0a80b6a46c449546b183288ac",
            "reqSigs": 1,
            "type": "pubkeyhash",
            "addresses": [
              "LUw7WdDDGnEGid9XjNyXgrWuDsheseEFXV"
            ]
          }
        }, 
        {
          "value": 0.02300000,
          "n": 1,
          "scriptPubKey": {
            "asm": "OP_DUP OP_HASH160 1e0a19e97417ae37081535293ebe1836a761abe0 OP_EQUALVERIFY OP_CHECKSIG",
            "hex": "76a9141e0a19e97417ae37081535293ebe1836a761abe088ac",
            "reqSigs": 1,
            "type": "pubkeyhash",
            "addresses": [
              "LMxndp6p4f27xHQnv8Hy7Z3uhFT91rzNNq"
            ]
          }
        }
      ],
      "hex": "020000000116777b98a720b139a7820435179075c43d1a955328961fb508f927980417138ec30800006a47304402201fce1d773aa9e6a354cf97300bbec471e9caadb9799faab5d2be477105f8744302205978d2bda7275b98697ab5ddcc78cefc530ce25a6d3c79f826d923e1483458b2012102a1889fda452255d1d8cdc49271cc0d391af8fafc80b85b0ee63c3a20d23a1f29feffffff02ef4a0f00000000001976a9146a81e81fb3fcf6fc0fb0a80b6a46c449546b183288ac60182300000000001976a9141e0a19e97417ae37081535293ebe1836a761abe088ac69bf1400"
    }, 
    {
      "txid": "d92e72b7fef0ab698d37b8c7e7393afdeca57db1ecd38f98325a3219cbca3b2d",
      "hash": "d92e72b7fef0ab698d37b8c7e7393afdeca57db1ecd38f98325a3219cbca3b2d",
      "version": 2,
      "size": 1037,
      "vsize": 1037,
      "locktime": 1359721,
      "vin": [
        {
          "txid": "e7de60d8ef99e8c7344ffac547a5f243787afdd55473d4bc1a5e5dd785f0576e",
          "vout": 0,
          "scriptSig": {
            "asm": "3044022021f5d395688a85768bee2f39c4ea4d9db72ebcb36770b2f2360fb3084c6335f7022038413ef15192c118a8ba05225790227af6f00085255b51454e522ed5faa6ff89[ALL] 0397f3aceae2cc42d2d1ee596fd81f9d19d2fb2711a6e2c849980fdfe393b6c4a3",
            "hex": "473044022021f5d395688a85768bee2f39c4ea4d9db72ebcb36770b2f2360fb3084c6335f7022038413ef15192c118a8ba05225790227af6f00085255b51454e522ed5faa6ff8901210397f3aceae2cc42d2d1ee596fd81f9d19d2fb2711a6e2c849980fdfe393b6c4a3"
          },
          "sequence": 4294967294
        }
      ],
      "vout": [
        {
          "value": 0.19408196,
          "n": 0,
          "scriptPubKey": {
            "asm": "OP_DUP OP_HASH160 1822fdacbf8e4f7255aa2dd19f3ff51d3418b4a4 OP_EQUALVERIFY OP_CHECKSIG",
            "hex": "76a9141822fdacbf8e4f7255aa2dd19f3ff51d3418b4a488ac",
            "reqSigs": 1,
            "type": "pubkeyhash",
            "addresses": [
              "LMRaQ2c6ZiQcLz1MrCCHEkMKaEusbkMLHj"
            ]
          }
        }, 
        {
          "value": 1.01541500,
          "n": 1,
          "scriptPubKey": {
            "asm": "OP_DUP OP_HASH160 df6121819d60848fae3cb047e445c70f1a884987 OP_EQUALVERIFY OP_CHECKSIG",
            "hex": "76a914df6121819d60848fae3cb047e445c70f1a88498788ac",
            "reqSigs": 1,
            "type": "pubkeyhash",
            "addresses": [
              "Lfb5JmE6tFLfVwcuP6iPDWoFpgBWraXcfX"
            ]
          }
        }, 
        {
          "value": 0.24727300,
          "n": 2,
          "scriptPubKey": {
            "asm": "OP_DUP OP_HASH160 3ef3ef510223ffef02ab2bec26c684c117730729 OP_EQUALVERIFY OP_CHECKSIG",
            "hex": "76a9143ef3ef510223ffef02ab2bec26c684c11773072988ac",
            "reqSigs": 1,
            "type": "pubkeyhash",
            "addresses": [
              "LQxpNzhVCLCmWTJmsUYV4JC5k63y1WEFwc"
            ]
          }
        }, 
        {
          "value": 0.11581257,
          "n": 3,
          "scriptPubKey": {
            "asm": "OP_DUP OP_HASH160 7d4e64038f394493da3d4744d3162cdd6f77b871 OP_EQUALVERIFY OP_CHECKSIG",
            "hex": "76a9147d4e64038f394493da3d4744d3162cdd6f77b87188ac",
            "reqSigs": 1,
            "type": "pubkeyhash",
            "addresses": [
              "LWeWdsWez2pRYYb1j9dP2WefBvq5wubrWu"
            ]
          }
        }, 
        {
          "value": 2.10023391,
          "n": 4,
          "scriptPubKey": {
            "asm": "OP_DUP OP_HASH160 0b06fb6bde14fe4443de07ff9d0314b769f02eee OP_EQUALVERIFY OP_CHECKSIG",
            "hex": "76a9140b06fb6bde14fe4443de07ff9d0314b769f02eee88ac",
            "reqSigs": 1,
            "type": "pubkeyhash",
            "addresses": [
              "LLEG4Szd7yjXwMHRusZcnmDnysUSWRSTbC"
            ]
          }
        }, 
        {
          "value": 12.27049700,
          "n": 5,
          "scriptPubKey": {
            "asm": "OP_HASH160 b93fd9b995bb93e3ac5b2c9b1406a1b6d9c3cd5e OP_EQUAL",
            "hex": "a914b93fd9b995bb93e3ac5b2c9b1406a1b6d9c3cd5e87",
            "reqSigs": 1,
            "type": "scripthash",
            "addresses": [
              "MQnfjL1L8BfUdNkbSZbJTgCVNJeLhaVcH4"
            ]
          }
        }, 
        {
          "value": 0.42182200,
          "n": 6,
          "scriptPubKey": {
            "asm": "OP_DUP OP_HASH160 3036611efcfdf2eafea281d60df611b489bbd654 OP_EQUALVERIFY OP_CHECKSIG",
            "hex": "76a9143036611efcfdf2eafea281d60df611b489bbd65488ac",
            "reqSigs": 1,
            "type": "pubkeyhash",
            "addresses": [
              "LPcsqmQKwaRC14t7JmPVR4V8HKJEahRnqc"
            ]
          }
        }, 
        {
          "value": 1.14469284,
          "n": 7,
          "scriptPubKey": {
            "asm": "OP_DUP OP_HASH160 3f95054f359008e99b324d38e56979822c36e22d OP_EQUALVERIFY OP_CHECKSIG",
            "hex": "76a9143f95054f359008e99b324d38e56979822c36e22d88ac",
            "reqSigs": 1,
            "type": "pubkeyhash",
            "addresses": [
              "LR29MSXJCR6T7BACWvTKLHP7LdJdhwaB73"
            ]
          }
        }, 
        {
          "value": 2.20776500,
          "n": 8,
          "scriptPubKey": {
            "asm": "OP_DUP OP_HASH160 ee6ad18fd4a3ff850cd992dffd1c9721b80cefb8 OP_EQUALVERIFY OP_CHECKSIG",
            "hex": "76a914ee6ad18fd4a3ff850cd992dffd1c9721b80cefb888ac",
            "reqSigs": 1,
            "type": "pubkeyhash",
            "addresses": [
              "Lgxb3kkcTqXvAP9cMDV5FHTVmwkpFhHj1e"
            ]
          }
        }, 
        {
          "value": 0.11247528,
          "n": 9,
          "scriptPubKey": {
            "asm": "OP_DUP OP_HASH160 ce4d1276cf4a5f3996e6ef06f4e2374424f32f43 OP_EQUALVERIFY OP_CHECKSIG",
            "hex": "76a914ce4d1276cf4a5f3996e6ef06f4e2374424f32f4388ac",
            "reqSigs": 1,
            "type": "pubkeyhash",
            "addresses": [
              "Le2mno5R4GcZrXHPHRgHG5RQdssvDq1oUM"
            ]
          }
        }, 
        {
          "value": 0.14524299,
          "n": 10,
          "scriptPubKey": {
            "asm": "OP_DUP OP_HASH160 28e105dc268497874faa48fbe816afa57ef98308 OP_EQUALVERIFY OP_CHECKSIG",
            "hex": "76a91428e105dc268497874faa48fbe816afa57ef9830888ac",
            "reqSigs": 1,
            "type": "pubkeyhash",
            "addresses": [
              "LNx6rkVoZVabcbTAXUq4ZLPcpUaw31rg83"
            ]
          }
        }, 
        {
          "value": 0.49500500,
          "n": 11,
          "scriptPubKey": {
            "asm": "OP_DUP OP_HASH160 d4ca2d558826a349257290f22987669332b3e7bc OP_EQUALVERIFY OP_CHECKSIG",
            "hex": "76a914d4ca2d558826a349257290f22987669332b3e7bc88ac",
            "reqSigs": 1,
            "type": "pubkeyhash",
            "addresses": [
              "Led5iPeZR8Njpp8NMpxpWXQjxH779DoWdn"
            ]
          }
        }, 
        {
          "value": 0.16477800,
          "n": 12,
          "scriptPubKey": {
            "asm": "OP_DUP OP_HASH160 093131a2ee20de40352d33558723ecb44e2abd45 OP_EQUALVERIFY OP_CHECKSIG",
            "hex": "76a914093131a2ee20de40352d33558723ecb44e2abd4588ac",
            "reqSigs": 1,
            "type": "pubkeyhash",
            "addresses": [
              "LL4ZGzS9coakS9TjdXCxgztm5noHGcRC6m"
            ]
          }
        }, 
        {
          "value": 0.71093900,
          "n": 13,
          "scriptPubKey": {
            "asm": "OP_DUP OP_HASH160 8c7339361bcfe6cbe2ae24ca6a2f71d2bd403cc0 OP_EQUALVERIFY OP_CHECKSIG",
            "hex": "76a9148c7339361bcfe6cbe2ae24ca6a2f71d2bd403cc088ac",
            "reqSigs": 1,
            "type": "pubkeyhash",
            "addresses": [
              "LY2atwJoy6cGmavs3anmB6GGx1W5gSsDGM"
            ]
          }
        }, 
        {
          "value": 0.11970600,
          "n": 14,
          "scriptPubKey": {
            "asm": "OP_DUP OP_HASH160 19074e180a7490cfc24bccef7826e72270b45045 OP_EQUALVERIFY OP_CHECKSIG",
            "hex": "76a91419074e180a7490cfc24bccef7826e72270b4504588ac",
            "reqSigs": 1,
            "type": "pubkeyhash",
            "addresses": [
              "LMWHuaBJyfWbNyDG4mxkGQke55Spm3vQd3"
            ]
          }
        }, 
        {
          "value": 0.32606300,
          "n": 15,
          "scriptPubKey": {
            "asm": "OP_HASH160 b8c9a849665c5db76f5476e6ed57d268608d188d OP_EQUAL",
            "hex": "a914b8c9a849665c5db76f5476e6ed57d268608d188d87",
            "reqSigs": 1,
            "type": "scripthash",
            "addresses": [
              "MQkE98JS8pkYPEjvapyaGCX9mo3oNqFhCk"
            ]
          }
        }, 
        {
          "value": 0.11644023,
          "n": 16,
          "scriptPubKey": {
            "asm": "OP_DUP OP_HASH160 731175ea50ff5764db2fd5d51ad08b6bfcf575de OP_EQUALVERIFY OP_CHECKSIG",
            "hex": "76a914731175ea50ff5764db2fd5d51ad08b6bfcf575de88ac",
            "reqSigs": 1,
            "type": "pubkeyhash",
            "addresses": [
              "LViNtTW44gEfWPtLePwNMZNXAZ7GjGDDsR"
            ]
          }
        }, 
        {
          "value": 0.09413600,
          "n": 17,
          "scriptPubKey": {
            "asm": "OP_DUP OP_HASH160 984d0ba941adaca3c4c4888342122a62919b0088 OP_EQUALVERIFY OP_CHECKSIG",
            "hex": "76a914984d0ba941adaca3c4c4888342122a62919b008888ac",
            "reqSigs": 1,
            "type": "pubkeyhash",
            "addresses": [
              "LZ7FGbB13aJVD37td9owPRZ8iRqgzu1gCV"
            ]
          }
        }, 
        {
          "value": 0.12372400,
          "n": 18,
          "scriptPubKey": {
            "asm": "OP_DUP OP_HASH160 53d584723fe3c7c0b0f935741014566378871256 OP_EQUALVERIFY OP_CHECKSIG",
            "hex": "76a91453d584723fe3c7c0b0f93574101456637887125688ac",
            "reqSigs": 1,
            "type": "pubkeyhash",
            "addresses": [
              "LSsE8ahLAbaBk3KbWtR9w2W4xxrfos7VpY"
            ]
          }
        }, 
        {
          "value": 0.12522900,
          "n": 19,
          "scriptPubKey": {
            "asm": "OP_DUP OP_HASH160 ed29b19c9b3a419d20e997ecc8ffcc479e27aec7 OP_EQUALVERIFY OP_CHECKSIG",
            "hex": "76a914ed29b19c9b3a419d20e997ecc8ffcc479e27aec788ac",
            "reqSigs": 1,
            "type": "pubkeyhash",
            "addresses": [
              "LgqxMcUrr8Y3ZsrcYTZia2vAD1QYZytm3d"
            ]
          }
        }, 
        {
          "value": 0.72021717,
          "n": 20,
          "scriptPubKey": {
            "asm": "OP_DUP OP_HASH160 3ecd734ae2e689dab31a7f96e08ba30deed03583 OP_EQUALVERIFY OP_CHECKSIG",
            "hex": "76a9143ecd734ae2e689dab31a7f96e08ba30deed0358388ac",
            "reqSigs": 1,
            "type": "pubkeyhash",
            "addresses": [
              "LQx2H3jHBTLvy4FeQMQVoS8UqLsenvoQNw"
            ]
          }
        }, 
        {
          "value": 0.31870316,
          "n": 21,
          "scriptPubKey": {
            "asm": "OP_DUP OP_HASH160 fee68012aed776da4daa29dc68f990d4681d68ed OP_EQUALVERIFY OP_CHECKSIG",
            "hex": "76a914fee68012aed776da4daa29dc68f990d4681d68ed88ac",
            "reqSigs": 1,
            "type": "pubkeyhash",
            "addresses": [
              "LiTk2NuannvzQj4Bnn1wT2AxjDuLvbX4yy"
            ]
          }
        }, 
        {
          "value": 1.02972214,
          "n": 22,
          "scriptPubKey": {
            "asm": "OP_DUP OP_HASH160 23aaa2a4766eaf7cf53940e821c6b1faf3be391f OP_EQUALVERIFY OP_CHECKSIG",
            "hex": "76a91423aaa2a4766eaf7cf53940e821c6b1faf3be391f88ac",
            "reqSigs": 1,
            "type": "pubkeyhash",
            "addresses": [
              "LNUYKsppEnSxUdFtSTN4QaoNNLPz28cQYD"
            ]
          }
        }, 
        {
          "value": 0.21182900,
          "n": 23,
          "scriptPubKey": {
            "asm": "OP_DUP OP_HASH160 a75bfd7f427a8a04f752e68f55d6c703a3956a96 OP_EQUALVERIFY OP_CHECKSIG",
            "hex": "76a914a75bfd7f427a8a04f752e68f55d6c703a3956a9688ac",
            "reqSigs": 1,
            "type": "pubkeyhash",
            "addresses": [
              "LaUsJqkseqUqaxLxAdvb6SWkW6DAYRzfgP"
            ]
          }
        }, 
        {
          "value": 0.36970400,
          "n": 24,
          "scriptPubKey": {
            "asm": "OP_DUP OP_HASH160 9465f5dca80dd00a126aa8f517679e2f47f20c60 OP_EQUALVERIFY OP_CHECKSIG",
            "hex": "76a9149465f5dca80dd00a126aa8f517679e2f47f20c6088ac",
            "reqSigs": 1,
            "type": "pubkeyhash",
            "addresses": [
              "LYkcQwGuSjF7p2TUihZZJuw1by4RDXD8Fk"
            ]
          }
        }, 
        {
          "value": 0.10497900,
          "n": 25,
          "scriptPubKey": {
            "asm": "OP_DUP OP_HASH160 564e1cd50ffab9b1f1498d44fe9a2abb0dcf7196 OP_EQUALVERIFY OP_CHECKSIG",
            "hex": "76a914564e1cd50ffab9b1f1498d44fe9a2abb0dcf719688ac",
            "reqSigs": 1,
            "type": "pubkeyhash",
            "addresses": [
              "LT6Hx54YnsUGQMoFwsPBMwnPTa4SYNpy81"
            ]
          }
        }
      ],
      "hex": "02000000016e57f085d75d5e1abcd47354d5fd7a7843f2a547c5fa4f34c7e899efd860dee7000000006a473044022021f5d395688a85768bee2f39c4ea4d9db72ebcb36770b2f2360fb3084c6335f7022038413ef15192c118a8ba05225790227af6f00085255b51454e522ed5faa6ff8901210397f3aceae2cc42d2d1ee596fd81f9d19d2fb2711a6e2c849980fdfe393b6c4a3feffffff1a44252801000000001976a9141822fdacbf8e4f7255aa2dd19f3ff51d3418b4a488ac7c660d06000000001976a914df6121819d60848fae3cb047e445c70f1a88498788ac044f7901000000001976a9143ef3ef510223ffef02ab2bec26c684c11773072988ac49b7b000000000001976a9147d4e64038f394493da3d4744d3162cdd6f77b87188acdfb3840c000000001976a9140b06fb6bde14fe4443de07ff9d0314b769f02eee88ace44a23490000000017a914b93fd9b995bb93e3ac5b2c9b1406a1b6d9c3cd5e8738a68302000000001976a9143036611efcfdf2eafea281d60df611b489bbd65488aca4a9d206000000001976a9143f95054f359008e99b324d38e56979822c36e22d88ac34c8280d000000001976a914ee6ad18fd4a3ff850cd992dffd1c9721b80cefb888aca89fab00000000001976a914ce4d1276cf4a5f3996e6ef06f4e2374424f32f4388ac8b9fdd00000000001976a91428e105dc268497874faa48fbe816afa57ef9830888ac5451f302000000001976a914d4ca2d558826a349257290f22987669332b3e7bc88ac686efb00000000001976a914093131a2ee20de40352d33558723ecb44e2abd4588ac8cce3c04000000001976a9148c7339361bcfe6cbe2ae24ca6a2f71d2bd403cc088ac28a8b600000000001976a91419074e180a7490cfc24bccef7826e72270b4504588ac5c88f1010000000017a914b8c9a849665c5db76f5476e6ed57d268608d188d8777acb100000000001976a914731175ea50ff5764db2fd5d51ad08b6bfcf575de88ace0a38f00000000001976a914984d0ba941adaca3c4c4888342122a62919b008888acb0c9bc00000000001976a91453d584723fe3c7c0b0f93574101456637887125688ac9415bf00000000001976a914ed29b19c9b3a419d20e997ecc8ffcc479e27aec788acd5f64a04000000001976a9143ecd734ae2e689dab31a7f96e08ba30deed0358388ac6c4de601000000001976a914fee68012aed776da4daa29dc68f990d4681d68ed88ac363b2306000000001976a91423aaa2a4766eaf7cf53940e821c6b1faf3be391f88acb4394301000000001976a914a75bfd7f427a8a04f752e68f55d6c703a3956a9688aca01f3402000000001976a9149465f5dca80dd00a126aa8f517679e2f47f20c6088ac6c2fa000000000001976a914564e1cd50ffab9b1f1498d44fe9a2abb0dcf719688ac69bf1400"
    }
  ],
  "time": 1517323170,
  "mediantime": 1517322473,
  "nonce": 2314613560,
  "bits": "1a042eae",
  "difficulty": 4011378.762614286,
  "chainwork": "00000000000000000000000000000000000000000000003445670ed44e460dd8",
  "previousblockhash": "360aa3caead05688f0533daf8671725d2c5045ff3bf75d7a602c739ac44998d6",
  "nextblockhash": "207bedced03b348d01c9a50c326f120e97d70cfce890cf81b37008882320d7b1"
}
