{
  "hash": "2a8c866f1aa392f7ab7958931c503c05916f1273f898391946dfb4280089963c",
  "confirmations": 2284,
  "strippedsize": 253,
  "size": 253,
  "weight": 1012,
  "height": 1358711,
  "version": 536870912,
  "versionHex": "20000000",
  "merkleroot": "f09092823ef48b01d57b2cd03cd3d1d750d7c6adc469b015dc5f8ad062fd2c96",
  "tx": [
    {
      "txid": "f09092823ef48b01d57b2cd03cd3d1d750d7c6adc469b015dc5f8ad062fd2c96",
      "hash": "f09092823ef48b01d57b2cd03cd3d1d750d7c6adc469b015dc5f8ad062fd2c96",
      "version": 1,
      "size": 172,
      "vsize": 172,
      "locktime": 0,
      "vin": [
        {
          "coinbase": "0377bb141a4d696e656420627920416e74506f6f6c20626a331f205a6e5b4efabe6d6dff3cf85b158e504acb3145c4f44580d5bbd0b5a9838c92ddca2fc79ab0aec2b9040000000000000035020000000000000e000000",
          "sequence": 4294967295
        }
      ],
      "vout": [
        {
          "value": 25.00000000,
          "n": 0,
          "scriptPubKey": {
            "asm": "OP_DUP OP_HASH160 0ff3ccc5e8be88afe24b5d634e5852d474dbdff1 OP_EQUALVERIFY OP_CHECKSIG",
            "hex": "76a9140ff3ccc5e8be88afe24b5d634e5852d474dbdff188ac",
            "reqSigs": 1,
            "type": "pubkeyhash",
            "addresses": [
              "LLgJTbzZMsRTCUF1NtvvL9SR1a4pVieW89"
            ]
          }
        }
      ],
      "hex": "01000000010000000000000000000000000000000000000000000000000000000000000000ffffffff570377bb141a4d696e656420627920416e74506f6f6c20626a331f205a6e5b4efabe6d6dff3cf85b158e504acb3145c4f44580d5bbd0b5a9838c92ddca2fc79ab0aec2b9040000000000000035020000000000000e000000ffffffff0100f90295000000001976a9140ff3ccc5e8be88afe24b5d634e5852d474dbdff188ac00000000"
    }
  ],
  "time": 1517181774,
  "mediantime": 1517180712,
  "nonce": 359293020,
  "bits": "1a047f14",
  "difficulty": 3731199.183374282,
  "chainwork": "00000000000000000000000000000000000000000000003354a2a4e5d4e2bd30",
  "previousblockhash": "6c7666fe77253871f6c66e6b0e8adc2bd61cc5443db682b6f1cd0ff5f12784c2",
  "nextblockhash": "77b195d70a2046b89bf9b78b8a8d6657daa5d8cf233d6c3210a98d370ba04fd1"
}
