{
  "hash": "2ae479b460670d6e7e81884dafc8bf583ee82e85824747b284c6d3c556ac40a0",
  "confirmations": 1507,
  "strippedsize": 1809,
  "size": 1845,
  "weight": 7272,
  "height": 1359487,
  "version": 536870912,
  "versionHex": "20000000",
  "merkleroot": "8f0a5dab3cb5e7bbdce1f76c73e11333d1a3bae234e67575832dbcc9b2f1175b",
  "tx": [
    {
      "txid": "fd687ebe37fa9e8db1db97494d4c82dc2c6f616fb8e7e70160cedbf511139ade",
      "hash": "b871b6f47a21d521785d5c0e10093a37026b575b8ac334c4dce5844a2f23cb8e",
      "version": 1,
      "size": 250,
      "vsize": 223,
      "locktime": 0,
      "vin": [
        {
          "coinbase": "037fbe140000000000fabe6d6df1b18c70f15b8cbed881f91ea0180f598edaec138daa8edbec15e3bc2805bc250100000000000000042aff6f5a036a490e080ea3af72090000000a42570a6657042f42572f",
          "sequence": 4294967295
        }
      ],
      "vout": [
        {
          "value": 25.00151400,
          "n": 0,
          "scriptPubKey": {
            "asm": "OP_DUP OP_HASH160 5373bc9425fd49e6bfe522d3dfc85432da2cc023 OP_EQUALVERIFY OP_CHECKSIG",
            "hex": "76a9145373bc9425fd49e6bfe522d3dfc85432da2cc02388ac",
            "reqSigs": 1,
            "type": "pubkeyhash",
            "addresses": [
              "LSqCzf5bPfkqGf94pJcfxWx5bZMPJE5XRf"
            ]
          }
        }, 
        {
          "value": 0.00000000,
          "n": 1,
          "scriptPubKey": {
            "asm": "OP_RETURN aa21a9ed1618fe9d6a3a9feee6f63618f07de343ac17cbade5ac82a418c1e16dc064d6ff",
            "hex": "6a24aa21a9ed1618fe9d6a3a9feee6f63618f07de343ac17cbade5ac82a418c1e16dc064d6ff",
            "type": "nulldata"
          }
        }
      ],
      "hex": "010000000001010000000000000000000000000000000000000000000000000000000000000000ffffffff52037fbe140000000000fabe6d6df1b18c70f15b8cbed881f91ea0180f598edaec138daa8edbec15e3bc2805bc250100000000000000042aff6f5a036a490e080ea3af72090000000a42570a6657042f42572fffffffff0268480595000000001976a9145373bc9425fd49e6bfe522d3dfc85432da2cc02388ac0000000000000000266a24aa21a9ed1618fe9d6a3a9feee6f63618f07de343ac17cbade5ac82a418c1e16dc064d6ff0120000000000000000000000000000000000000000000000000000000000000000000000000"
    }, 
    {
      "txid": "618a26ce900c0f2959b64d8e5aaf2bb23a814c4733a523e8fa387ed1d005b7d5",
      "hash": "618a26ce900c0f2959b64d8e5aaf2bb23a814c4733a523e8fa387ed1d005b7d5",
      "version": 2,
      "size": 1288,
      "vsize": 1288,
      "locktime": 1359485,
      "vin": [
        {
          "txid": "dcaddc204631769a698e0c81023e5818dd6873af9b8818d0ad04395fcc7227d2",
          "vout": 0,
          "scriptSig": {
            "asm": "3045022100f307c27b3d57577b85ad24f6cfbbe31c1ca38b1ac381439df37e723623cb5e2d022054882280bd97f3c0ba9cf0a4de902b9b1561836d59ae34b9cc6e02a6d14804e4[ALL] 02e2037bd3b8ff3ee3e1c67e232b207d138124a826a4f761eeba99ff99c4b60c29",
            "hex": "483045022100f307c27b3d57577b85ad24f6cfbbe31c1ca38b1ac381439df37e723623cb5e2d022054882280bd97f3c0ba9cf0a4de902b9b1561836d59ae34b9cc6e02a6d14804e4012102e2037bd3b8ff3ee3e1c67e232b207d138124a826a4f761eeba99ff99c4b60c29"
          },
          "sequence": 4294967294
        }, 
        {
          "txid": "edb02017366cb5a9e71741fe24b834cc3ae9bdaaf88470421a2169a99acbc6c6",
          "vout": 0,
          "scriptSig": {
            "asm": "3045022100c496876e28681f33def4c4d39454bcae8beb6dfdf9497e136d91b1403e01d172022009795994f4e7da8f05098a63793f8dcba3fdfee842a8a869c823fe6edaf71a71[ALL] 02e2037bd3b8ff3ee3e1c67e232b207d138124a826a4f761eeba99ff99c4b60c29",
            "hex": "483045022100c496876e28681f33def4c4d39454bcae8beb6dfdf9497e136d91b1403e01d172022009795994f4e7da8f05098a63793f8dcba3fdfee842a8a869c823fe6edaf71a71012102e2037bd3b8ff3ee3e1c67e232b207d138124a826a4f761eeba99ff99c4b60c29"
          },
          "sequence": 4294967294
        }
      ],
      "vout": [
        {
          "value": 11.19896981,
          "n": 0,
          "scriptPubKey": {
            "asm": "OP_DUP OP_HASH160 e5fcddc78b39be46256f63d5b1b52615a977b0a6 OP_EQUALVERIFY OP_CHECKSIG",
            "hex": "76a914e5fcddc78b39be46256f63d5b1b52615a977b0a688ac",
            "reqSigs": 1,
            "type": "pubkeyhash",
            "addresses": [
              "LgC1vbu9nKdZj3fVThcs1RTfLYfL82iLtQ"
            ]
          }
        }, 
        {
          "value": 6.99856000,
          "n": 1,
          "scriptPubKey": {
            "asm": "OP_DUP OP_HASH160 a9fa76016913303cf035eea06c2660a0b8cd2d72 OP_EQUALVERIFY OP_CHECKSIG",
            "hex": "76a914a9fa76016913303cf035eea06c2660a0b8cd2d7288ac",
            "reqSigs": 1,
            "type": "pubkeyhash",
            "addresses": [
              "LaiiVxv5RtKK5Yt4sGjHh2mSr5fNht1rqu"
            ]
          }
        }, 
        {
          "value": 0.03032257,
          "n": 2,
          "scriptPubKey": {
            "asm": "OP_DUP OP_HASH160 f9b065b64d383f5628a5a028d0361b5bb81582b6 OP_EQUALVERIFY OP_CHECKSIG",
            "hex": "76a914f9b065b64d383f5628a5a028d0361b5bb81582b688ac",
            "reqSigs": 1,
            "type": "pubkeyhash",
            "addresses": [
              "LhzBqH8ftuXKJqmF1TFUdT8hJA91db5kMV"
            ]
          }
        }, 
        {
          "value": 3.35610365,
          "n": 3,
          "scriptPubKey": {
            "asm": "OP_DUP OP_HASH160 387c6d9aa74d4697727294bd8aa1bf7916f58a07 OP_EQUALVERIFY OP_CHECKSIG",
            "hex": "76a914387c6d9aa74d4697727294bd8aa1bf7916f58a0788ac",
            "reqSigs": 1,
            "type": "pubkeyhash",
            "addresses": [
              "LQNdANfUZLGSJoY5hhcXUgCMFnoCWatWPQ"
            ]
          }
        }, 
        {
          "value": 0.22558000,
          "n": 4,
          "scriptPubKey": {
            "asm": "OP_DUP OP_HASH160 c95d93dc83434856082ebdca2c44bfa82da7e352 OP_EQUALVERIFY OP_CHECKSIG",
            "hex": "76a914c95d93dc83434856082ebdca2c44bfa82da7e35288ac",
            "reqSigs": 1,
            "type": "pubkeyhash",
            "addresses": [
              "LdagBey53gQfs9MWKDnEervQQB1jogiWRS"
            ]
          }
        }, 
        {
          "value": 0.65933000,
          "n": 5,
          "scriptPubKey": {
            "asm": "OP_DUP OP_HASH160 b8deb2e2109513b7d6461e7bddc81a95c92ee828 OP_EQUALVERIFY OP_CHECKSIG",
            "hex": "76a914b8deb2e2109513b7d6461e7bddc81a95c92ee82888ac",
            "reqSigs": 1,
            "type": "pubkeyhash",
            "addresses": [
              "Lc5TNtdmxNVSK9yhkF78ieG7cEHX6ajhHJ"
            ]
          }
        }, 
        {
          "value": 13.48526259,
          "n": 6,
          "scriptPubKey": {
            "asm": "OP_DUP OP_HASH160 908f1556c4a7d1ef3d36c6bc74512bd8d62fb29a OP_EQUALVERIFY OP_CHECKSIG",
            "hex": "76a914908f1556c4a7d1ef3d36c6bc74512bd8d62fb29a88ac",
            "reqSigs": 1,
            "type": "pubkeyhash",
            "addresses": [
              "LYQJyScVm9JekMxmj9U1pCVmugm5RJ8YFt"
            ]
          }
        }, 
        {
          "value": 0.27871100,
          "n": 7,
          "scriptPubKey": {
            "asm": "OP_DUP OP_HASH160 0e94ec2a19149aff9397034ab9d5fa819ccc3e43 OP_EQUALVERIFY OP_CHECKSIG",
            "hex": "76a9140e94ec2a19149aff9397034ab9d5fa819ccc3e4388ac",
            "reqSigs": 1,
            "type": "pubkeyhash",
            "addresses": [
              "LLZ48DWiQpBmNZp12X16v6GUaHeugsYsA7"
            ]
          }
        }, 
        {
          "value": 3.29133350,
          "n": 8,
          "scriptPubKey": {
            "asm": "OP_DUP OP_HASH160 bc9ecaff4a28516320f4698704c8a799d01ddc3e OP_EQUALVERIFY OP_CHECKSIG",
            "hex": "76a914bc9ecaff4a28516320f4698704c8a799d01ddc3e88ac",
            "reqSigs": 1,
            "type": "pubkeyhash",
            "addresses": [
              "LcRHXQTayxD9cJRavSwTGMFcWmQHbX7XoV"
            ]
          }
        }, 
        {
          "value": 3.89846458,
          "n": 9,
          "scriptPubKey": {
            "asm": "OP_DUP OP_HASH160 fc841e6f7f8e6b4c12548e25dc31117b555f5a9d OP_EQUALVERIFY OP_CHECKSIG",
            "hex": "76a914fc841e6f7f8e6b4c12548e25dc31117b555f5a9d88ac",
            "reqSigs": 1,
            "type": "pubkeyhash",
            "addresses": [
              "LiF8pLREdQCurz4hUpTPWU4hSsuk2ZNuCq"
            ]
          }
        }, 
        {
          "value": 0.99000000,
          "n": 10,
          "scriptPubKey": {
            "asm": "OP_DUP OP_HASH160 bc369798219cab6cf11e44c28eed78a7408b12ca OP_EQUALVERIFY OP_CHECKSIG",
            "hex": "76a914bc369798219cab6cf11e44c28eed78a7408b12ca88ac",
            "reqSigs": 1,
            "type": "pubkeyhash",
            "addresses": [
              "LcP8hQaH4toFwGv8yo6o83EhjZpJ3pa8S8"
            ]
          }
        }, 
        {
          "value": 0.34168461,
          "n": 11,
          "scriptPubKey": {
            "asm": "OP_DUP OP_HASH160 caad53e3303d619c1ae33c765fc3bb264949f62d OP_EQUALVERIFY OP_CHECKSIG",
            "hex": "76a914caad53e3303d619c1ae33c765fc3bb264949f62d88ac",
            "reqSigs": 1,
            "type": "pubkeyhash",
            "addresses": [
              "LdhcPysuQUvtQRfynpvy2Nzrhkh7aHPw5g"
            ]
          }
        }, 
        {
          "value": 0.13099999,
          "n": 12,
          "scriptPubKey": {
            "asm": "OP_DUP OP_HASH160 5a2c4f7b1b6434020d358732697956d81833601c OP_EQUALVERIFY OP_CHECKSIG",
            "hex": "76a9145a2c4f7b1b6434020d358732697956d81833601c88ac",
            "reqSigs": 1,
            "type": "pubkeyhash",
            "addresses": [
              "LTSkADuYscHpPj9wZs9v8Kzp9FMYCEvy7c"
            ]
          }
        }, 
        {
          "value": 1.49832000,
          "n": 13,
          "scriptPubKey": {
            "asm": "OP_DUP OP_HASH160 c7ce4f19f81e125f782079f283d734abbf061765 OP_EQUALVERIFY OP_CHECKSIG",
            "hex": "76a914c7ce4f19f81e125f782079f283d734abbf06176588ac",
            "reqSigs": 1,
            "type": "pubkeyhash",
            "addresses": [
              "LdSRszDBE6Gd6MndkWJA1fBQYY3boF3rLZ"
            ]
          }
        }, 
        {
          "value": 0.61955890,
          "n": 14,
          "scriptPubKey": {
            "asm": "OP_DUP OP_HASH160 a9018844a4a1be80ecc3b7372333982bb03cc9d2 OP_EQUALVERIFY OP_CHECKSIG",
            "hex": "76a914a9018844a4a1be80ecc3b7372333982bb03cc9d288ac",
            "reqSigs": 1,
            "type": "pubkeyhash",
            "addresses": [
              "LadaJ6ekN4MstmvmZpLLMTQdn2UG4PmPzv"
            ]
          }
        }, 
        {
          "value": 5.63173769,
          "n": 15,
          "scriptPubKey": {
            "asm": "OP_DUP OP_HASH160 b435f7e71fb5f489164ae89f45d4d06c9034b0f0 OP_EQUALVERIFY OP_CHECKSIG",
            "hex": "76a914b435f7e71fb5f489164ae89f45d4d06c9034b0f088ac",
            "reqSigs": 1,
            "type": "pubkeyhash",
            "addresses": [
              "LbepYXjConLKCyzSFBVtQkVUVjpasZTwhP"
            ]
          }
        }, 
        {
          "value": 3.86719380,
          "n": 16,
          "scriptPubKey": {
            "asm": "OP_DUP OP_HASH160 85df7b47dd644971840181bdb398a41d0b3ec4f4 OP_EQUALVERIFY OP_CHECKSIG",
            "hex": "76a91485df7b47dd644971840181bdb398a41d0b3ec4f488ac",
            "reqSigs": 1,
            "type": "pubkeyhash",
            "addresses": [
              "LXRorVpyjRuDQXZnQyLTxVABEJoWX6pCbT"
            ]
          }
        }, 
        {
          "value": 2.63000000,
          "n": 17,
          "scriptPubKey": {
            "asm": "OP_DUP OP_HASH160 bf48931111404f101151495e5ef5797c931cbd31 OP_EQUALVERIFY OP_CHECKSIG",
            "hex": "76a914bf48931111404f101151495e5ef5797c931cbd3188ac",
            "reqSigs": 1,
            "type": "pubkeyhash",
            "addresses": [
              "LcfNGR58mTnoSqT3hjUT7V2B626vRbLftZ"
            ]
          }
        }, 
        {
          "value": 0.99000000,
          "n": 18,
          "scriptPubKey": {
            "asm": "OP_DUP OP_HASH160 c30d6ed6819022963e18d68ccbb7c2d26444b35a OP_EQUALVERIFY OP_CHECKSIG",
            "hex": "76a914c30d6ed6819022963e18d68ccbb7c2d26444b35a88ac",
            "reqSigs": 1,
            "type": "pubkeyhash",
            "addresses": [
              "Ld1J7xYLzhUtwLi7VsT6cwknrmTn4hFZ3V"
            ]
          }
        }, 
        {
          "value": 0.64934000,
          "n": 19,
          "scriptPubKey": {
            "asm": "OP_DUP OP_HASH160 5d9187bc8ef765c3924bbf0d5576ebd878bb1fbb OP_EQUALVERIFY OP_CHECKSIG",
            "hex": "76a9145d9187bc8ef765c3924bbf0d5576ebd878bb1fbb88ac",
            "reqSigs": 1,
            "type": "pubkeyhash",
            "addresses": [
              "LTkhSfq1XeiuYbjC9p8mfpLDx8YQj9WDuX"
            ]
          }
        }, 
        {
          "value": 0.55338060,
          "n": 20,
          "scriptPubKey": {
            "asm": "OP_DUP OP_HASH160 b3b847457406fdc45b860def06f16103cd57e18b OP_EQUALVERIFY OP_CHECKSIG",
            "hex": "76a914b3b847457406fdc45b860def06f16103cd57e18b88ac",
            "reqSigs": 1,
            "type": "pubkeyhash",
            "addresses": [
              "LbcDySPiDVUdZCpuzR9VJC4JS8zjD4BabB"
            ]
          }
        }, 
        {
          "value": 1.99000000,
          "n": 21,
          "scriptPubKey": {
            "asm": "OP_DUP OP_HASH160 935a8eb3dd09114f9f05d99a881cd3d7e49ab8c1 OP_EQUALVERIFY OP_CHECKSIG",
            "hex": "76a914935a8eb3dd09114f9f05d99a881cd3d7e49ab8c188ac",
            "reqSigs": 1,
            "type": "pubkeyhash",
            "addresses": [
              "LYf65TDMvTJMG6dAzLSfUfS2ZEW294DgFM"
            ]
          }
        }, 
        {
          "value": 3.02213726,
          "n": 22,
          "scriptPubKey": {
            "asm": "OP_DUP OP_HASH160 692c485919b596a1408260390201cc962a4a4c9c OP_EQUALVERIFY OP_CHECKSIG",
            "hex": "76a914692c485919b596a1408260390201cc962a4a4c9c88ac",
            "reqSigs": 1,
            "type": "pubkeyhash",
            "addresses": [
              "LUp4GAWqo8JxhtBANU6ha9srW4KXZWAwSt"
            ]
          }
        }, 
        {
          "value": 7.96000000,
          "n": 23,
          "scriptPubKey": {
            "asm": "OP_DUP OP_HASH160 765d70324bc9143bcd1f25df6eb314299cc0ff75 OP_EQUALVERIFY OP_CHECKSIG",
            "hex": "76a914765d70324bc9143bcd1f25df6eb314299cc0ff7588ac",
            "reqSigs": 1,
            "type": "pubkeyhash",
            "addresses": [
              "LW1ow44hmY7ZpMTbYXJHfQenBqYQQG8cAN"
            ]
          }
        }, 
        {
          "value": 18.92105000,
          "n": 24,
          "scriptPubKey": {
            "asm": "OP_HASH160 8fcc6e8cd5b35c9d1ca5569870074afb9a2794b8 OP_EQUAL",
            "hex": "a9148fcc6e8cd5b35c9d1ca5569870074afb9a2794b887",
            "reqSigs": 1,
            "type": "scripthash",
            "addresses": [
              "MM1Vm2yq9rciwbSpX6CGRcinnZ73UoBtVT"
            ]
          }
        }, 
        {
          "value": 32.25969800,
          "n": 25,
          "scriptPubKey": {
            "asm": "OP_DUP OP_HASH160 0d222a4e9a61ad1d191489726b9afbd9571c8833 OP_EQUALVERIFY OP_CHECKSIG",
            "hex": "76a9140d222a4e9a61ad1d191489726b9afbd9571c883388ac",
            "reqSigs": 1,
            "type": "pubkeyhash",
            "addresses": [
              "LLRPyYuDQqos4LjCi2D4yfq5LgHLyvGKdX"
            ]
          }
        }, 
        {
          "value": 41.00000000,
          "n": 26,
          "scriptPubKey": {
            "asm": "OP_HASH160 6ab93b21e8e3117f4301b2f64fd539875f9af050 OP_EQUAL",
            "hex": "a9146ab93b21e8e3117f4301b2f64fd539875f9af05087",
            "reqSigs": 1,
            "type": "scripthash",
            "addresses": [
              "MHdTkqbqeaaZ5MZp4KcnNEBsyrrxDhtcbR"
            ]
          }
        }, 
        {
          "value": 8.38759600,
          "n": 27,
          "scriptPubKey": {
            "asm": "OP_DUP OP_HASH160 41ebc8f20551c1c11048cd217e7dd50a031d33b9 OP_EQUALVERIFY OP_CHECKSIG",
            "hex": "76a91441ebc8f20551c1c11048cd217e7dd50a031d33b988ac",
            "reqSigs": 1,
            "type": "pubkeyhash",
            "addresses": [
              "LREWeJm7TdKNviZMzr1cbvvPiPzqFBfvhJ"
            ]
          }
        }, 
        {
          "value": 13.13337745,
          "n": 28,
          "scriptPubKey": {
            "asm": "OP_DUP OP_HASH160 1eb11a216a8b60551683da4a505f5e1da4a8ee85 OP_EQUALVERIFY OP_CHECKSIG",
            "hex": "76a9141eb11a216a8b60551683da4a505f5e1da4a8ee8588ac",
            "reqSigs": 1,
            "type": "pubkeyhash",
            "addresses": [
              "LN2EhEcx6hZaH48SfHaQyG6fC5NKc6eHqv"
            ]
          }
        }
      ],
      "hex": "0200000002d22772cc5f3904add018889baf7368dd18583e02810c8e699a76314620dcaddc000000006b483045022100f307c27b3d57577b85ad24f6cfbbe31c1ca38b1ac381439df37e723623cb5e2d022054882280bd97f3c0ba9cf0a4de902b9b1561836d59ae34b9cc6e02a6d14804e4012102e2037bd3b8ff3ee3e1c67e232b207d138124a826a4f761eeba99ff99c4b60c29feffffffc6c6cb9aa969211a427084f8aabde93acc34b824fe4117e7a9b56c361720b0ed000000006b483045022100c496876e28681f33def4c4d39454bcae8beb6dfdf9497e136d91b1403e01d172022009795994f4e7da8f05098a63793f8dcba3fdfee842a8a869c823fe6edaf71a71012102e2037bd3b8ff3ee3e1c67e232b207d138124a826a4f761eeba99ff99c4b60c29feffffff1d9545c042000000001976a914e5fcddc78b39be46256f63d5b1b52615a977b0a688ac80f4b629000000001976a914a9fa76016913303cf035eea06c2660a0b8cd2d7288acc1442e00000000001976a914f9b065b64d383f5628a5a028d0361b5bb81582b688acfd010114000000001976a914387c6d9aa74d4697727294bd8aa1bf7916f58a0788ac30355801000000001976a914c95d93dc83434856082ebdca2c44bfa82da7e35288acc80eee03000000001976a914b8deb2e2109513b7d6461e7bddc81a95c92ee82888acb3e06050000000001976a914908f1556c4a7d1ef3d36c6bc74512bd8d62fb29a88ac7c47a901000000001976a9140e94ec2a19149aff9397034ab9d5fa819ccc3e4388ac262d9e13000000001976a914bc9ecaff4a28516320f4698704c8a799d01ddc3e88acba953c17000000001976a914fc841e6f7f8e6b4c12548e25dc31117b555f5a9d88acc09ee605000000001976a914bc369798219cab6cf11e44c28eed78a7408b12ca88ac8d5e0902000000001976a914caad53e3303d619c1ae33c765fc3bb264949f62d88acdfe3c700000000001976a9145a2c4f7b1b6434020d358732697956d81833601c88ac4041ee08000000001976a914c7ce4f19f81e125f782079f283d734abbf06176588ac325fb103000000001976a914a9018844a4a1be80ecc3b7372333982bb03cc9d288ac89599121000000001976a914b435f7e71fb5f489164ae89f45d4d06c9034b0f088ac94de0c17000000001976a91485df7b47dd644971840181bdb398a41d0b3ec4f488acc00fad0f000000001976a914bf48931111404f101151495e5ef5797c931cbd3188acc09ee605000000001976a914c30d6ed6819022963e18d68ccbb7c2d26444b35a88ac70d0de03000000001976a9145d9187bc8ef765c3924bbf0d5576ebd878bb1fbb88ac4c644c03000000001976a914b3b847457406fdc45b860def06f16103cd57e18b88acc07fdc0b000000001976a914935a8eb3dd09114f9f05d99a881cd3d7e49ab8c188ac5e6a0312000000001976a914692c485919b596a1408260390201cc962a4a4c9c88ac00ff712f000000001976a914765d70324bc9143bcd1f25df6eb314299cc0ff7588ac283bc7700000000017a9148fcc6e8cd5b35c9d1ca5569870074afb9a2794b887886448c0000000001976a9140d222a4e9a61ad1d191489726b9afbd9571c883388ac000961f40000000017a9146ab93b21e8e3117f4301b2f64fd539875f9af05087b074fe31000000001976a91441ebc8f20551c1c11048cd217e7dd50a031d33b988ac91f1474e000000001976a9141eb11a216a8b60551683da4a505f5e1da4a8ee8588ac7dbe1400"
    }, 
    {
      "txid": "d8514822dab7c6051df11652a17ef8560e4a4da1dae6ebcc02274f7204f819e4",
      "hash": "d8514822dab7c6051df11652a17ef8560e4a4da1dae6ebcc02274f7204f819e4",
      "version": 1,
      "size": 226,
      "vsize": 226,
      "locktime": 0,
      "vin": [
        {
          "txid": "e95f3a596c12127246f3bfdb4e3e36cb3cc6b8167eb2506a9a0ac5b8cc34cef2",
          "vout": 1,
          "scriptSig": {
            "asm": "3045022100e452f150c48319e8f3df84cba4f7cc1937d104551a1affbb56b16d30a47f2f8402201795503879072668a4b67b6c3d27521b76c1ed4fb31ee2335330be99438e24ff[ALL] 02d4f3db8e4246bd920b9196722f94e1c43fb2ffd7224ca8d5ee6a18893d3c0d87",
            "hex": "483045022100e452f150c48319e8f3df84cba4f7cc1937d104551a1affbb56b16d30a47f2f8402201795503879072668a4b67b6c3d27521b76c1ed4fb31ee2335330be99438e24ff012102d4f3db8e4246bd920b9196722f94e1c43fb2ffd7224ca8d5ee6a18893d3c0d87"
          },
          "sequence": 4294967295
        }
      ],
      "vout": [
        {
          "value": 1.03757248,
          "n": 0,
          "scriptPubKey": {
            "asm": "OP_DUP OP_HASH160 68903aecebdda4af4278c28c412ab683b476a5bc OP_EQUALVERIFY OP_CHECKSIG",
            "hex": "76a91468903aecebdda4af4278c28c412ab683b476a5bc88ac",
            "reqSigs": 1,
            "type": "pubkeyhash",
            "addresses": [
              "LUkqKTA7z8VE8jzzk9ntDMrMNwjpZyG1GN"
            ]
          }
        }, 
        {
          "value": 97.53580552,
          "n": 1,
          "scriptPubKey": {
            "asm": "OP_DUP OP_HASH160 5d909f31b8c86970223325f7d7e6c25ded25e8cb OP_EQUALVERIFY OP_CHECKSIG",
            "hex": "76a9145d909f31b8c86970223325f7d7e6c25ded25e8cb88ac",
            "reqSigs": 1,
            "type": "pubkeyhash",
            "addresses": [
              "LTkgMZBfm3JSkX7uymJS9jswCtC3hf1Tob"
            ]
          }
        }
      ],
      "hex": "0100000001f2ce34ccb8c50a9a6a50b27e16b8c63ccb363e4edbbff3467212126c593a5fe9010000006b483045022100e452f150c48319e8f3df84cba4f7cc1937d104551a1affbb56b16d30a47f2f8402201795503879072668a4b67b6c3d27521b76c1ed4fb31ee2335330be99438e24ff012102d4f3db8e4246bd920b9196722f94e1c43fb2ffd7224ca8d5ee6a18893d3c0d87ffffffff02c0352f06000000001976a91468903aecebdda4af4278c28c412ab683b476a5bc88ac08d45b45020000001976a9145d909f31b8c86970223325f7d7e6c25ded25e8cb88ac00000000"
    }
  ],
  "time": 1517289257,
  "mediantime": 1517288139,
  "nonce": 2558730429,
  "bits": "1a042eae",
  "difficulty": 4011378.762614286,
  "chainwork": "0000000000000000000000000000000000000000000000340cf9909ad5f1ca00",
  "previousblockhash": "be50c1c488f55f00d6cafc2ba0e5719a56288ad15ce5f0a693cd9950e8f638d0",
  "nextblockhash": "ec8a74d988bc4431197f4fe6755354a8d82a2eecb0b8b4c548b1268823b997df"
}
