{
  "hash": "2af9b0e871015cd2e702c6afc3f6072cb91797e44fa5d5aff90aac45c803a984",
  "confirmations": 2786,
  "strippedsize": 253,
  "size": 253,
  "weight": 1012,
  "height": 1358209,
  "version": 536870912,
  "versionHex": "20000000",
  "merkleroot": "04421c54f6d30f1fc04b49600b3db33d0d0b8078626e980a79a090c19256a986",
  "tx": [
    {
      "txid": "04421c54f6d30f1fc04b49600b3db33d0d0b8078626e980a79a090c19256a986",
      "hash": "04421c54f6d30f1fc04b49600b3db33d0d0b8078626e980a79a090c19256a986",
      "version": 1,
      "size": 172,
      "vsize": 172,
      "locktime": 0,
      "vin": [
        {
          "coinbase": "0381b9141a4d696e656420627920416e74506f6f6c20626a3532205a6d37c4fabe6d6d97c1fcf059da09ba3548ce301eeb6b4d3f9d709ef2d3e6bec2342572603d1be60400000000000000860600000000000002000000",
          "sequence": 4294967295
        }
      ],
      "vout": [
        {
          "value": 25.00000000,
          "n": 0,
          "scriptPubKey": {
            "asm": "OP_DUP OP_HASH160 0ff3ccc5e8be88afe24b5d634e5852d474dbdff1 OP_EQUALVERIFY OP_CHECKSIG",
            "hex": "76a9140ff3ccc5e8be88afe24b5d634e5852d474dbdff188ac",
            "reqSigs": 1,
            "type": "pubkeyhash",
            "addresses": [
              "LLgJTbzZMsRTCUF1NtvvL9SR1a4pVieW89"
            ]
          }
        }
      ],
      "hex": "01000000010000000000000000000000000000000000000000000000000000000000000000ffffffff570381b9141a4d696e656420627920416e74506f6f6c20626a3532205a6d37c4fabe6d6d97c1fcf059da09ba3548ce301eeb6b4d3f9d709ef2d3e6bec2342572603d1be60400000000000000860600000000000002000000ffffffff0100f90295000000001976a9140ff3ccc5e8be88afe24b5d634e5852d474dbdff188ac00000000"
    }
  ],
  "time": 1517107140,
  "mediantime": 1517106169,
  "nonce": 1152112179,
  "bits": "1a047f14",
  "difficulty": 3731199.183374282,
  "chainwork": "000000000000000000000000000000000000000000000032e4fd8cdaaf0be234",
  "previousblockhash": "5f240eeacd5b101c3a821920a6b386145b145c273d53d177180c1e17797c8a9a",
  "nextblockhash": "c05c93e56e0520a9bef4c55b828fa245c76d8454051b23cf8a1b0b2ad4ea8d32"
}
