{
  "hash": "2b03915db03e7bfd0e3d363ee84719eb65d628b11f31a108560e4bc70eb86392",
  "confirmations": 1076,
  "strippedsize": 4384,
  "size": 4863,
  "weight": 18015,
  "height": 1359918,
  "version": 536870912,
  "versionHex": "20000000",
  "merkleroot": "334ef17fbb27e4a9383c26e32e7df2383318e73045c364e1f7dac5db39f72bf0",
  "tx": [
    {
      "txid": "7d5352ffe9cee4fe489a351677df7ffbc56953321c12b98c0c3f204a191f5cbd",
      "hash": "022b4f4a86e7bdf34efab80c5a99f696b6b372cbd9cc660faa564854cb489bf6",
      "version": 1,
      "size": 287,
      "vsize": 260,
      "locktime": 0,
      "vin": [
        {
          "coinbase": "032ec01441d69c39909b6d0041d69c39909a728e2f4c54432e544f502ffabe6d6d7dc8510f67da53d698a328daa172caa5322695abcc84ba201302d96b633962c80100000000000000543b9d410300000000000000",
          "sequence": 4294967295
        }
      ],
      "vout": [
        {
          "value": 24.75958416,
          "n": 0,
          "scriptPubKey": {
            "asm": "OP_DUP OP_HASH160 7b96c291c4d9e252907e9275cd3d14fdeaeac0f1 OP_EQUALVERIFY OP_CHECKSIG",
            "hex": "76a9147b96c291c4d9e252907e9275cd3d14fdeaeac0f188ac",
            "reqSigs": 1,
            "type": "pubkeyhash",
            "addresses": [
              "LWVRyoJawzDYtvRmLVzUXqUSkNT7H1MLTt"
            ]
          }
        }, 
        {
          "value": 0.00000000,
          "n": 1,
          "scriptPubKey": {
            "asm": "OP_RETURN aa21a9ede75c235e590ca11710a4e84c07fb5f009595e1d356432b5430a92ebc67bed166",
            "hex": "6a24aa21a9ede75c235e590ca11710a4e84c07fb5f009595e1d356432b5430a92ebc67bed166",
            "type": "nulldata"
          }
        }, 
        {
          "value": 0.25009680,
          "n": 2,
          "scriptPubKey": {
            "asm": "OP_DUP OP_HASH160 0c617fdb2ea42aed30a509595ee21ba3f6688db0 OP_EQUALVERIFY OP_CHECKSIG",
            "hex": "76a9140c617fdb2ea42aed30a509595ee21ba3f6688db088ac",
            "reqSigs": 1,
            "type": "pubkeyhash",
            "addresses": [
              "LLMRAtr3qBje2ySEa3CnZ55LA4TQMWnRY3"
            ]
          }
        }
      ],
      "hex": "010000000001010000000000000000000000000000000000000000000000000000000000000000ffffffff55032ec01441d69c39909b6d0041d69c39909a728e2f4c54432e544f502ffabe6d6d7dc8510f67da53d698a328daa172caa5322695abcc84ba201302d96b633962c80100000000000000543b9d410300000000000000ffffffff0390209493000000001976a9147b96c291c4d9e252907e9275cd3d14fdeaeac0f188ac0000000000000000266a24aa21a9ede75c235e590ca11710a4e84c07fb5f009595e1d356432b5430a92ebc67bed166109e7d01000000001976a9140c617fdb2ea42aed30a509595ee21ba3f6688db088ac0120000000000000000000000000000000000000000000000000000000000000000000000000"
    }, 
    {
      "txid": "97f0fdb96ba8a961b7e313096c030cdb6e7bb4a62ef9f74681f59f64534ca5f4",
      "hash": "97f0fdb96ba8a961b7e313096c030cdb6e7bb4a62ef9f74681f59f64534ca5f4",
      "version": 1,
      "size": 192,
      "vsize": 192,
      "locktime": 0,
      "vin": [
        {
          "txid": "b9147c7d8775931cff85b96c1347823be014092ec1fdb89f08dd750c939095ca",
          "vout": 1,
          "scriptSig": {
            "asm": "3045022100cfde4a9fedc5bc50a1ce70eb6f025ed7dad4bfe3072450d7c0fd77cc50a875a202203cdc7daf12522cb3aeccaf358a9862c8e94627ab1b8a5c3499c8f0a7880c6f0e[ALL] 0388211e02f21d5eb1f1ae25fb46fbb1006107a0adb6295ee4b1c4c4539ff70036",
            "hex": "483045022100cfde4a9fedc5bc50a1ce70eb6f025ed7dad4bfe3072450d7c0fd77cc50a875a202203cdc7daf12522cb3aeccaf358a9862c8e94627ab1b8a5c3499c8f0a7880c6f0e01210388211e02f21d5eb1f1ae25fb46fbb1006107a0adb6295ee4b1c4c4539ff70036"
          },
          "sequence": 4294967295
        }
      ],
      "vout": [
        {
          "value": 8.50038890,
          "n": 0,
          "scriptPubKey": {
            "asm": "OP_DUP OP_HASH160 bca2f170927f3b1076433a11d05ec13ce81f4269 OP_EQUALVERIFY OP_CHECKSIG",
            "hex": "76a914bca2f170927f3b1076433a11d05ec13ce81f426988ac",
            "reqSigs": 1,
            "type": "pubkeyhash",
            "addresses": [
              "LcRNVmFtjWsV9SoKDxfTaDyxur8QmVbco3"
            ]
          }
        }
      ],
      "hex": "0100000001ca9590930c75dd089fb8fdc12e0914e03b8247136cb985ff1c9375877d7c14b9010000006b483045022100cfde4a9fedc5bc50a1ce70eb6f025ed7dad4bfe3072450d7c0fd77cc50a875a202203cdc7daf12522cb3aeccaf358a9862c8e94627ab1b8a5c3499c8f0a7880c6f0e01210388211e02f21d5eb1f1ae25fb46fbb1006107a0adb6295ee4b1c4c4539ff70036ffffffff016a90aa32000000001976a914bca2f170927f3b1076433a11d05ec13ce81f426988ac00000000"
    }, 
    {
      "txid": "12f40507780d5f7096ec72c582e131d52a65d5d2ff342dd5733b733e11262e99",
      "hash": "12f40507780d5f7096ec72c582e131d52a65d5d2ff342dd5733b733e11262e99",
      "version": 1,
      "size": 226,
      "vsize": 226,
      "locktime": 0,
      "vin": [
        {
          "txid": "1384caaa15f258c105917b27bc88bbd431f14ccde1112c2867162e4235ab1a90",
          "vout": 2,
          "scriptSig": {
            "asm": "3045022100f327965c6fa89d510e8c9f932122c765a290d590176cca64263200c6161f38cf022029d35dd63bbc2b4b3849a0133a63c4792b3f310ff4ea19310a0550fd7fd0262c[ALL] 02d222dc49c99145d02a31131b7ee370a77b04c5b77eef7f2f389f14710cf4d118",
            "hex": "483045022100f327965c6fa89d510e8c9f932122c765a290d590176cca64263200c6161f38cf022029d35dd63bbc2b4b3849a0133a63c4792b3f310ff4ea19310a0550fd7fd0262c012102d222dc49c99145d02a31131b7ee370a77b04c5b77eef7f2f389f14710cf4d118"
          },
          "sequence": 4294967295
        }
      ],
      "vout": [
        {
          "value": 10.66548148,
          "n": 0,
          "scriptPubKey": {
            "asm": "OP_DUP OP_HASH160 71942e281a5410bb945e303aaed6323874908f91 OP_EQUALVERIFY OP_CHECKSIG",
            "hex": "76a91471942e281a5410bb945e303aaed6323874908f9188ac",
            "reqSigs": 1,
            "type": "pubkeyhash",
            "addresses": [
              "LVaW8dvyVYT2ixCsM6rJMDCoz1gKy26Ge1"
            ]
          }
        }, 
        {
          "value": 31.74456613,
          "n": 1,
          "scriptPubKey": {
            "asm": "OP_DUP OP_HASH160 fbcc9e08c05a3af90271a10012f777e260065a61 OP_EQUALVERIFY OP_CHECKSIG",
            "hex": "76a914fbcc9e08c05a3af90271a10012f777e260065a6188ac",
            "reqSigs": 1,
            "type": "pubkeyhash",
            "addresses": [
              "LiBLzRVkSXJ31B8v752nFBvWDC6Bnw8yRv"
            ]
          }
        }
      ],
      "hex": "0100000001901aab35422e1667282c11e1cd4cf131d4bb88bc277b9105c158f215aaca8413020000006b483045022100f327965c6fa89d510e8c9f932122c765a290d590176cca64263200c6161f38cf022029d35dd63bbc2b4b3849a0133a63c4792b3f310ff4ea19310a0550fd7fd0262c012102d222dc49c99145d02a31131b7ee370a77b04c5b77eef7f2f389f14710cf4d118ffffffff02b43b923f000000001976a91471942e281a5410bb945e303aaed6323874908f9188ac255d36bd000000001976a914fbcc9e08c05a3af90271a10012f777e260065a6188ac00000000"
    }, 
    {
      "txid": "d04cc31b1702cc02ac3c71e968fa0a82aae3217d26b780299b34debf17b97930",
      "hash": "d04cc31b1702cc02ac3c71e968fa0a82aae3217d26b780299b34debf17b97930",
      "version": 1,
      "size": 294,
      "vsize": 294,
      "locktime": 0,
      "vin": [
        {
          "txid": "0af042bae0948d940f1b12ea9469b39a4a670682da653a9c2b7401f29e641e41",
          "vout": 5,
          "scriptSig": {
            "asm": "3045022100a614bb7292293a5e22f8ee64564efba300a8c2a63b2d5ef22d8a62da636f3536022070678299920202676a604cbefe6e9dbc077da8901653d8aa0fe72fcacd1bc006[ALL] 037f81c084bfc6e3a4a21a329f93d562239d41308b5dfb3b645b1c773a0dc0b7a1",
            "hex": "483045022100a614bb7292293a5e22f8ee64564efba300a8c2a63b2d5ef22d8a62da636f3536022070678299920202676a604cbefe6e9dbc077da8901653d8aa0fe72fcacd1bc0060121037f81c084bfc6e3a4a21a329f93d562239d41308b5dfb3b645b1c773a0dc0b7a1"
          },
          "sequence": 4294967295
        }
      ],
      "vout": [
        {
          "value": 0.11560514,
          "n": 0,
          "scriptPubKey": {
            "asm": "OP_DUP OP_HASH160 a18e580ffb1af5bcc4fa2001a666a1690a0e4223 OP_EQUALVERIFY OP_CHECKSIG",
            "hex": "76a914a18e580ffb1af5bcc4fa2001a666a1690a0e422388ac",
            "reqSigs": 1,
            "type": "pubkeyhash",
            "addresses": [
              "LZxBaLCQ2Ft25DjutXzpCnFeNbCTAPmJ2W"
            ]
          }
        }, 
        {
          "value": 0.15209351,
          "n": 1,
          "scriptPubKey": {
            "asm": "OP_DUP OP_HASH160 94d0e16734b1d432fa67ffaa1879e2007e96fda0 OP_EQUALVERIFY OP_CHECKSIG",
            "hex": "76a91494d0e16734b1d432fa67ffaa1879e2007e96fda088ac",
            "reqSigs": 1,
            "type": "pubkeyhash",
            "addresses": [
              "LYnpVseyK8WrmH2GbqsPTnmfe4XNoJP7wb"
            ]
          }
        }, 
        {
          "value": 0.22915574,
          "n": 2,
          "scriptPubKey": {
            "asm": "OP_DUP OP_HASH160 f22b0e50238eaf808941f7e217223f9fc20449ee OP_EQUALVERIFY OP_CHECKSIG",
            "hex": "76a914f22b0e50238eaf808941f7e217223f9fc20449ee88ac",
            "reqSigs": 1,
            "type": "pubkeyhash",
            "addresses": [
              "LhJRNDK28WES6xSRGPwuQQ8xZkinN4pDeN"
            ]
          }
        }, 
        {
          "value": 0.69446342,
          "n": 3,
          "scriptPubKey": {
            "asm": "OP_DUP OP_HASH160 9585273e78bd2f6f03a4e3cf5a3c687a3c9e6d7f OP_EQUALVERIFY OP_CHECKSIG",
            "hex": "76a9149585273e78bd2f6f03a4e3cf5a3c687a3c9e6d7f88ac",
            "reqSigs": 1,
            "type": "pubkeyhash",
            "addresses": [
              "LYrYTSzjVHjFBYWiQazpNzLkPtYjm1D9kB"
            ]
          }
        }
      ],
      "hex": "0100000001411e649ef201742b9c3a65da8206674a9ab36994ea121b0f948d94e0ba42f00a050000006b483045022100a614bb7292293a5e22f8ee64564efba300a8c2a63b2d5ef22d8a62da636f3536022070678299920202676a604cbefe6e9dbc077da8901653d8aa0fe72fcacd1bc0060121037f81c084bfc6e3a4a21a329f93d562239d41308b5dfb3b645b1c773a0dc0b7a1ffffffff044266b000000000001976a914a18e580ffb1af5bcc4fa2001a666a1690a0e422388ac8713e800000000001976a91494d0e16734b1d432fa67ffaa1879e2007e96fda088acf6a95d01000000001976a914f22b0e50238eaf808941f7e217223f9fc20449ee88acc6aa2304000000001976a9149585273e78bd2f6f03a4e3cf5a3c687a3c9e6d7f88ac00000000"
    }, 
    {
      "txid": "5f20ba71d4264f2a1766a4cbdfca42d5390cf8eb55437afbb2b3cba0ff29f3b2",
      "hash": "5f20ba71d4264f2a1766a4cbdfca42d5390cf8eb55437afbb2b3cba0ff29f3b2",
      "version": 1,
      "size": 264,
      "vsize": 264,
      "locktime": 0,
      "vin": [
        {
          "txid": "4f8c95aa2a478ca606e0cb54505035d6b70e32ff69bf37e0d59db76a78fa6cd5",
          "vout": 1,
          "scriptSig": {
            "asm": "0 30440220783e0b94c60eaee3f9c9b6f31947e172d7fef0bac5d9e6c044e39956664ac29402203728af05798fa49ae470bb6fa2d5b0f33d3021cd636f747ebc05fc542a7dac05[ALL] 5121033e69987ccda181e92b078311b93df3eb6b9138dec28584a06880a361ee6ebd9e21036d6dd2f2ae2a25c17a94d6b68bb3d6c3bccd05169cab04126ed1d5e28b65029152ae",
            "hex": "004730440220783e0b94c60eaee3f9c9b6f31947e172d7fef0bac5d9e6c044e39956664ac29402203728af05798fa49ae470bb6fa2d5b0f33d3021cd636f747ebc05fc542a7dac0501475121033e69987ccda181e92b078311b93df3eb6b9138dec28584a06880a361ee6ebd9e21036d6dd2f2ae2a25c17a94d6b68bb3d6c3bccd05169cab04126ed1d5e28b65029152ae"
          },
          "sequence": 4294967295
        }
      ],
      "vout": [
        {
          "value": 0.06700000,
          "n": 0,
          "scriptPubKey": {
            "asm": "OP_DUP OP_HASH160 095bb1ef6b669cf950a0def506b9e5ba48d702f8 OP_EQUALVERIFY OP_CHECKSIG",
            "hex": "76a914095bb1ef6b669cf950a0def506b9e5ba48d702f888ac",
            "reqSigs": 1,
            "type": "pubkeyhash",
            "addresses": [
              "LL5SC2LhX4dzEtcpm5GzDQHaVP4FXFxg1Q"
            ]
          }
        }, 
        {
          "value": 1.59700000,
          "n": 1,
          "scriptPubKey": {
            "asm": "OP_DUP OP_HASH160 bfa8e0bf31ac3ab3b7ecd248ea150199d0c26841 OP_EQUALVERIFY OP_CHECKSIG",
            "hex": "76a914bfa8e0bf31ac3ab3b7ecd248ea150199d0c2684188ac",
            "reqSigs": 1,
            "type": "pubkeyhash",
            "addresses": [
              "LchMdhKhn9hgRkZnCTH71rGVgHy4Lt3afj"
            ]
          }
        }
      ],
      "hex": "0100000001d56cfa786ab79dd5e037bf69ff320eb7d635505054cbe006a68c472aaa958c4f0100000091004730440220783e0b94c60eaee3f9c9b6f31947e172d7fef0bac5d9e6c044e39956664ac29402203728af05798fa49ae470bb6fa2d5b0f33d3021cd636f747ebc05fc542a7dac0501475121033e69987ccda181e92b078311b93df3eb6b9138dec28584a06880a361ee6ebd9e21036d6dd2f2ae2a25c17a94d6b68bb3d6c3bccd05169cab04126ed1d5e28b65029152aeffffffff02e03b6600000000001976a914095bb1ef6b669cf950a0def506b9e5ba48d702f888ac20d48409000000001976a914bfa8e0bf31ac3ab3b7ecd248ea150199d0c2684188ac00000000"
    }, 
    {
      "txid": "fd9864bec4c2f99a6a5a9d7c87149baf3f030c92e90577eb1b99eda13e78de79",
      "hash": "fd9864bec4c2f99a6a5a9d7c87149baf3f030c92e90577eb1b99eda13e78de79",
      "version": 1,
      "size": 226,
      "vsize": 226,
      "locktime": 0,
      "vin": [
        {
          "txid": "14cd054b4487c199576da62bc1f4cfb9fe73db5e4914b52ba90300ef5afd5bee",
          "vout": 0,
          "scriptSig": {
            "asm": "30450221009eb34de7c2554861b93eea1a16c486dc108e116b72644cfa3c4e94a56bb8b41e02203868fa2d2f4aae0181ae96269a936ec3cfaafaaa98308f884c0268cf47390915[ALL] 0384a9a36de00797765bb8cbd04dabb5aa68695b13ab3d76e64a85d79f0c76db7f",
            "hex": "4830450221009eb34de7c2554861b93eea1a16c486dc108e116b72644cfa3c4e94a56bb8b41e02203868fa2d2f4aae0181ae96269a936ec3cfaafaaa98308f884c0268cf4739091501210384a9a36de00797765bb8cbd04dabb5aa68695b13ab3d76e64a85d79f0c76db7f"
          },
          "sequence": 4294967295
        }
      ],
      "vout": [
        {
          "value": 0.69599999,
          "n": 0,
          "scriptPubKey": {
            "asm": "OP_DUP OP_HASH160 dfbb48a402119f3f3b8886b9af9bde409acc4e96 OP_EQUALVERIFY OP_CHECKSIG",
            "hex": "76a914dfbb48a402119f3f3b8886b9af9bde409acc4e9688ac",
            "reqSigs": 1,
            "type": "pubkeyhash",
            "addresses": [
              "LfcwJhEPm6JN8RkrhbjW3R9MvDpqL9jSvJ"
            ]
          }
        }, 
        {
          "value": 76.62502909,
          "n": 1,
          "scriptPubKey": {
            "asm": "OP_DUP OP_HASH160 8a4fd1372b1dd683fede7d68f2332fae2e9c9f71 OP_EQUALVERIFY OP_CHECKSIG",
            "hex": "76a9148a4fd1372b1dd683fede7d68f2332fae2e9c9f7188ac",
            "reqSigs": 1,
            "type": "pubkeyhash",
            "addresses": [
              "LXqH8V6ZtsHBrURFbVxHR59KA24qcdosN3"
            ]
          }
        }
      ],
      "hex": "0100000001ee5bfd5aef0003a92bb514495edb73feb9cff4c12ba66d5799c187444b05cd14000000006b4830450221009eb34de7c2554861b93eea1a16c486dc108e116b72644cfa3c4e94a56bb8b41e02203868fa2d2f4aae0181ae96269a936ec3cfaafaaa98308f884c0268cf4739091501210384a9a36de00797765bb8cbd04dabb5aa68695b13ab3d76e64a85d79f0c76db7fffffffff02ff022604000000001976a914dfbb48a402119f3f3b8886b9af9bde409acc4e9688acfd83b8c8010000001976a9148a4fd1372b1dd683fede7d68f2332fae2e9c9f7188ac00000000"
    }, 
    {
      "txid": "0274a0d233aa3b1afaa28b7cab9871781bfffb03cb7450fc64f266aad11aa674",
      "hash": "952afd8c97202320dd8d57025b5961e957b7d4f243c457e46025c7da71ab2a0b",
      "version": 1,
      "size": 373,
      "vsize": 208,
      "locktime": 0,
      "vin": [
        {
          "txid": "90aced3ccc88ac8ca9665efe92d04fc32f35b2f36317d06d6e16423ce09ce52d",
          "vout": 1,
          "scriptSig": {
            "asm": "00207975c3f0d1bf8b6205e1c664d703c93d68409676bf17c5e78cdece78bdbf3dbf",
            "hex": "2200207975c3f0d1bf8b6205e1c664d703c93d68409676bf17c5e78cdece78bdbf3dbf"
          },
          "txinwitness": [
            "", 
            "3045022100f2944be1921255cdb4ff1d91e030a400337770392555ecdc636ea12f120a0fe4022029484502f3798173f898a0180b1e62a1d686f1c7098dd2cd432cea45f862063d01", 
            "304402204f8306468bbd3743461fe9e05621544cb0f8e05a580fadd897e1fbd8cece706f0220405c884d5d572a0a9ae6f5849992cdad9990e7e027f63dfb8b70883df763600601", 
            "522102611be09a0c6a571c8f68adb2481e938888756d93d4ee5b670f08c16e939b7f1a21022cc7a96a72ef014bf078a6489644e2edb05bb216d30b4f28363b637fe4463fd652ae"
          ],
          "sequence": 4294967295
        }
      ],
      "vout": [
        {
          "value": 0.01825972,
          "n": 0,
          "scriptPubKey": {
            "asm": "OP_DUP OP_HASH160 1c8a6820b67729f358bddef47bdbb007e6d34e5a OP_EQUALVERIFY OP_CHECKSIG",
            "hex": "76a9141c8a6820b67729f358bddef47bdbb007e6d34e5a88ac",
            "reqSigs": 1,
            "type": "pubkeyhash",
            "addresses": [
              "LMprzFfzieQwZHhhCqGKiLS4heFeRz8zug"
            ]
          }
        }, 
        {
          "value": 13.25149692,
          "n": 1,
          "scriptPubKey": {
            "asm": "OP_HASH160 486ce63d83e8406016f310cd321d36bbdd10d412 OP_EQUAL",
            "hex": "a914486ce63d83e8406016f310cd321d36bbdd10d41287",
            "reqSigs": 1,
            "type": "scripthash",
            "addresses": [
              "MEW7Lhk6QzBLmCNp5pmpYzwv1KAcKYsSQp"
            ]
          }
        }
      ],
      "hex": "010000000001012de59ce03c42166e6dd01763f3b2352fc34fd092fe5e66a98cac88cc3cedac9001000000232200207975c3f0d1bf8b6205e1c664d703c93d68409676bf17c5e78cdece78bdbf3dbfffffffff02b4dc1b00000000001976a9141c8a6820b67729f358bddef47bdbb007e6d34e5a88acfc2dfc4e0000000017a914486ce63d83e8406016f310cd321d36bbdd10d412870400483045022100f2944be1921255cdb4ff1d91e030a400337770392555ecdc636ea12f120a0fe4022029484502f3798173f898a0180b1e62a1d686f1c7098dd2cd432cea45f862063d0147304402204f8306468bbd3743461fe9e05621544cb0f8e05a580fadd897e1fbd8cece706f0220405c884d5d572a0a9ae6f5849992cdad9990e7e027f63dfb8b70883df76360060147522102611be09a0c6a571c8f68adb2481e938888756d93d4ee5b670f08c16e939b7f1a21022cc7a96a72ef014bf078a6489644e2edb05bb216d30b4f28363b637fe4463fd652ae00000000"
    }, 
    {
      "txid": "f3ab308adeb153a454ca9c6a058ad738524537ecc765d8255e8ccb9cdb980df7",
      "hash": "601ecdee941ecbbec64969e312408192fa3ae03d400131520b21bc8b5a5f1923",
      "version": 1,
      "size": 374,
      "vsize": 208,
      "locktime": 0,
      "vin": [
        {
          "txid": "e8cd6c9eb6e9db8ab6b9f35f744364c78ab88f94e2c0cd6f0b199daa34abbc2f",
          "vout": 1,
          "scriptSig": {
            "asm": "00207975c3f0d1bf8b6205e1c664d703c93d68409676bf17c5e78cdece78bdbf3dbf",
            "hex": "2200207975c3f0d1bf8b6205e1c664d703c93d68409676bf17c5e78cdece78bdbf3dbf"
          },
          "txinwitness": [
            "", 
            "3045022100e192759dbd6341a6343fb96bc1f3a59a40c77b120a2573d21e785f2286f4897602205eb541ef1396ce5b9b166aebfe348f6a60a77fed137559386748c352ebdcc17801", 
            "3045022100898f84898bddb2a528d635d42f0f123fbca8911300db3d3632d74958ee5097b802205d632d2eccbd9c8a5ed7d742a4a7878ff11dc7b6cbf1b9898443cf36e32d73f501", 
            "522102611be09a0c6a571c8f68adb2481e938888756d93d4ee5b670f08c16e939b7f1a21022cc7a96a72ef014bf078a6489644e2edb05bb216d30b4f28363b637fe4463fd652ae"
          ],
          "sequence": 4294967295
        }
      ],
      "vout": [
        {
          "value": 0.04034200,
          "n": 0,
          "scriptPubKey": {
            "asm": "OP_DUP OP_HASH160 82cde54beb7e3e352cb781392c3ff936b5bffb2a OP_EQUALVERIFY OP_CHECKSIG",
            "hex": "76a91482cde54beb7e3e352cb781392c3ff936b5bffb2a88ac",
            "reqSigs": 1,
            "type": "pubkeyhash",
            "addresses": [
              "LX9am2wbQwqwJbktcnNt1dksSWKpfKYo3p"
            ]
          }
        }, 
        {
          "value": 4.77221084,
          "n": 1,
          "scriptPubKey": {
            "asm": "OP_HASH160 486ce63d83e8406016f310cd321d36bbdd10d412 OP_EQUAL",
            "hex": "a914486ce63d83e8406016f310cd321d36bbdd10d41287",
            "reqSigs": 1,
            "type": "scripthash",
            "addresses": [
              "MEW7Lhk6QzBLmCNp5pmpYzwv1KAcKYsSQp"
            ]
          }
        }
      ],
      "hex": "010000000001012fbcab34aa9d190b6fcdc0e2948fb88ac76443745ff3b9b68adbe9b69e6ccde801000000232200207975c3f0d1bf8b6205e1c664d703c93d68409676bf17c5e78cdece78bdbf3dbfffffffff02988e3d00000000001976a91482cde54beb7e3e352cb781392c3ff936b5bffb2a88acdcd0711c0000000017a914486ce63d83e8406016f310cd321d36bbdd10d412870400483045022100e192759dbd6341a6343fb96bc1f3a59a40c77b120a2573d21e785f2286f4897602205eb541ef1396ce5b9b166aebfe348f6a60a77fed137559386748c352ebdcc17801483045022100898f84898bddb2a528d635d42f0f123fbca8911300db3d3632d74958ee5097b802205d632d2eccbd9c8a5ed7d742a4a7878ff11dc7b6cbf1b9898443cf36e32d73f50147522102611be09a0c6a571c8f68adb2481e938888756d93d4ee5b670f08c16e939b7f1a21022cc7a96a72ef014bf078a6489644e2edb05bb216d30b4f28363b637fe4463fd652ae00000000"
    }, 
    {
      "txid": "f44b5cb451c97b9bdbbff7d7d84701f05629cb21183579b7f6e2606e2af0b46b",
      "hash": "f44b5cb451c97b9bdbbff7d7d84701f05629cb21183579b7f6e2606e2af0b46b",
      "version": 1,
      "size": 223,
      "vsize": 223,
      "locktime": 0,
      "vin": [
        {
          "txid": "b29644f38a634eed7f8131bed9ec6f79bf9ad42b1f9b3e7ffe2e20c7e63029ca",
          "vout": 258,
          "scriptSig": {
            "asm": "30440220559617f6c58ac37c3345f664fdbacefbcf9270f60430bd2d494e13c5348ae6fb02203030742af6d8f2404a5d65688051616f634131e773a3a855cdfd0ab100b70afe[ALL] 024ff2ab359ba3f4436e6cedc45a8bffb6419cc2cc442fd3eab0a42b664f773b60",
            "hex": "4730440220559617f6c58ac37c3345f664fdbacefbcf9270f60430bd2d494e13c5348ae6fb02203030742af6d8f2404a5d65688051616f634131e773a3a855cdfd0ab100b70afe0121024ff2ab359ba3f4436e6cedc45a8bffb6419cc2cc442fd3eab0a42b664f773b60"
          },
          "sequence": 4294967295
        }
      ],
      "vout": [
        {
          "value": 0.10000000,
          "n": 0,
          "scriptPubKey": {
            "asm": "OP_HASH160 55a94a49e5f84ef6dda03cdc592eed72aa44739b OP_EQUAL",
            "hex": "a91455a94a49e5f84ef6dda03cdc592eed72aa44739b87",
            "reqSigs": 1,
            "type": "scripthash",
            "addresses": [
              "MFi6UDy7EbcmBgkNKXZHnUCw6HgmMFX5a7"
            ]
          }
        }, 
        {
          "value": 0.00216272,
          "n": 1,
          "scriptPubKey": {
            "asm": "OP_DUP OP_HASH160 7f60b2ee4510bec741f1b6f1b2f7eb028087ac1f OP_EQUALVERIFY OP_CHECKSIG",
            "hex": "76a9147f60b2ee4510bec741f1b6f1b2f7eb028087ac1f88ac",
            "reqSigs": 1,
            "type": "pubkeyhash",
            "addresses": [
              "LWqTvLTBXvBrMCBhvrVgURTZZFCGysuFaL"
            ]
          }
        }
      ],
      "hex": "0100000001ca2930e6c7202efe7f3e9b1f2bd49abf796fecd9be31817fed4e638af34496b2020100006a4730440220559617f6c58ac37c3345f664fdbacefbcf9270f60430bd2d494e13c5348ae6fb02203030742af6d8f2404a5d65688051616f634131e773a3a855cdfd0ab100b70afe0121024ff2ab359ba3f4436e6cedc45a8bffb6419cc2cc442fd3eab0a42b664f773b60ffffffff02809698000000000017a91455a94a49e5f84ef6dda03cdc592eed72aa44739b87d04c0300000000001976a9147f60b2ee4510bec741f1b6f1b2f7eb028087ac1f88ac00000000"
    }, 
    {
      "txid": "ce11eee9f4839e8a3f8f96a70f9a0a1c1107a662c359c07b97f1aa4db9ab7121",
      "hash": "ce11eee9f4839e8a3f8f96a70f9a0a1c1107a662c359c07b97f1aa4db9ab7121",
      "version": 1,
      "size": 225,
      "vsize": 225,
      "locktime": 0,
      "vin": [
        {
          "txid": "28287ca94c9540cc2014e8c51df65fea0c290db38c1633e8f49d31b1c712e5ab",
          "vout": 1,
          "scriptSig": {
            "asm": "30440220691a0dde863fefe46de7bdf336bb2014ab0b9b4174af369b472a7460bc01342f02205d7b81cca59f8066d002b6a3d5681e676c78e0c39f35a9a2d757dcacf6c8cc58[ALL] 020b008f6dab9a2e612523d1e936cc67b43922bb5f1ac16e14c10608a459f7936d",
            "hex": "4730440220691a0dde863fefe46de7bdf336bb2014ab0b9b4174af369b472a7460bc01342f02205d7b81cca59f8066d002b6a3d5681e676c78e0c39f35a9a2d757dcacf6c8cc580121020b008f6dab9a2e612523d1e936cc67b43922bb5f1ac16e14c10608a459f7936d"
          },
          "sequence": 4294967295
        }
      ],
      "vout": [
        {
          "value": 0.99197209,
          "n": 0,
          "scriptPubKey": {
            "asm": "OP_DUP OP_HASH160 e257daea0afea91f1530b5574c205f685fbd1f04 OP_EQUALVERIFY OP_CHECKSIG",
            "hex": "76a914e257daea0afea91f1530b5574c205f685fbd1f0488ac",
            "reqSigs": 1,
            "type": "pubkeyhash",
            "addresses": [
              "LfrkDrAFRLR58rDzpEUGHcydMmTWSrd7BN"
            ]
          }
        }, 
        {
          "value": 5.79893391,
          "n": 1,
          "scriptPubKey": {
            "asm": "OP_DUP OP_HASH160 70427fdd8cc4a41b009dc83990dc7dca0ac4e718 OP_EQUALVERIFY OP_CHECKSIG",
            "hex": "76a91470427fdd8cc4a41b009dc83990dc7dca0ac4e71888ac",
            "reqSigs": 1,
            "type": "pubkeyhash",
            "addresses": [
              "LVTXcANuADqM1JzguMkDRqKmFrN5saA3VK"
            ]
          }
        }
      ],
      "hex": "0100000001abe512c7b1319df4e833168cb30d290cea5ff61dc5e81420cc40954ca97c2828010000006a4730440220691a0dde863fefe46de7bdf336bb2014ab0b9b4174af369b472a7460bc01342f02205d7b81cca59f8066d002b6a3d5681e676c78e0c39f35a9a2d757dcacf6c8cc580121020b008f6dab9a2e612523d1e936cc67b43922bb5f1ac16e14c10608a459f7936dffffffff0219a1e905000000001976a914e257daea0afea91f1530b5574c205f685fbd1f0488ac8f789022000000001976a91470427fdd8cc4a41b009dc83990dc7dca0ac4e71888ac00000000"
    }, 
    {
      "txid": "23b1b1a6699647774007f17c753d87ea13ab9e14c2c5059daaa24e111872c26d",
      "hash": "23b1b1a6699647774007f17c753d87ea13ab9e14c2c5059daaa24e111872c26d",
      "version": 1,
      "size": 225,
      "vsize": 225,
      "locktime": 0,
      "vin": [
        {
          "txid": "6bc10c25e0edfca8d836fa2dd3a39ccb68dd2592a0ee57f4ba78528f066d9b52",
          "vout": 1,
          "scriptSig": {
            "asm": "304402206b59f54530f5268efdfb50cf0b18f520903b4d7535678c9fa8621be883694f4c02203d0f72f11e8654cfb0630f40337bdeb33cb8072cde3f645ce0230b40dc7c4e0d[ALL] 024a3b1bdfa9b32990f4eed49b5d06d28d2c060310d4a69a590378d268b9b347f9",
            "hex": "47304402206b59f54530f5268efdfb50cf0b18f520903b4d7535678c9fa8621be883694f4c02203d0f72f11e8654cfb0630f40337bdeb33cb8072cde3f645ce0230b40dc7c4e0d0121024a3b1bdfa9b32990f4eed49b5d06d28d2c060310d4a69a590378d268b9b347f9"
          },
          "sequence": 4294967295
        }
      ],
      "vout": [
        {
          "value": 0.17019220,
          "n": 0,
          "scriptPubKey": {
            "asm": "OP_DUP OP_HASH160 33d27a930e8d54fb106ec960462a0cbc8dd0105d OP_EQUALVERIFY OP_CHECKSIG",
            "hex": "76a91433d27a930e8d54fb106ec960462a0cbc8dd0105d88ac",
            "reqSigs": 1,
            "type": "pubkeyhash",
            "addresses": [
              "LPwxsKXTYYnLfrcYJeN8oVDhwMn98R11Ui"
            ]
          }
        }, 
        {
          "value": 0.00186580,
          "n": 1,
          "scriptPubKey": {
            "asm": "OP_DUP OP_HASH160 e7b572530264b234317dc9a8bfcb260f52793394 OP_EQUALVERIFY OP_CHECKSIG",
            "hex": "76a914e7b572530264b234317dc9a8bfcb260f5279339488ac",
            "reqSigs": 1,
            "type": "pubkeyhash",
            "addresses": [
              "LgM7iexGE3kh3bwg3nH5xj8T7MNcJta2R9"
            ]
          }
        }
      ],
      "hex": "0100000001529b6d068f5278baf457eea09225dd68cb9ca3d32dfa36d8a8fcede0250cc16b010000006a47304402206b59f54530f5268efdfb50cf0b18f520903b4d7535678c9fa8621be883694f4c02203d0f72f11e8654cfb0630f40337bdeb33cb8072cde3f645ce0230b40dc7c4e0d0121024a3b1bdfa9b32990f4eed49b5d06d28d2c060310d4a69a590378d268b9b347f9ffffffff0254b10301000000001976a91433d27a930e8d54fb106ec960462a0cbc8dd0105d88acd4d80200000000001976a914e7b572530264b234317dc9a8bfcb260f5279339488ac00000000"
    }, 
    {
      "txid": "52019f7676555ea5be451d579432a053c6ae0a893d0dd0ad8821bd2939f91d79",
      "hash": "52019f7676555ea5be451d579432a053c6ae0a893d0dd0ad8821bd2939f91d79",
      "version": 1,
      "size": 225,
      "vsize": 225,
      "locktime": 0,
      "vin": [
        {
          "txid": "dd8cc8645ab21b58dc638ffb627ff4aacebcecd42ffdd00a71f98a5ed2f7c40d",
          "vout": 1,
          "scriptSig": {
            "asm": "30440220541cd131d36b9356b2da62dcd2f3736859255611aca375722110e5327ccf7dc702201ec618ab9483ff44c7f1779f8a2f574141b96a5f57132ac16426833e1b5d783b[ALL] 03dae38e098488809caecc4f50af449da9c0f5e509a37c48f635076e99fbb22b99",
            "hex": "4730440220541cd131d36b9356b2da62dcd2f3736859255611aca375722110e5327ccf7dc702201ec618ab9483ff44c7f1779f8a2f574141b96a5f57132ac16426833e1b5d783b012103dae38e098488809caecc4f50af449da9c0f5e509a37c48f635076e99fbb22b99"
          },
          "sequence": 4294967295
        }
      ],
      "vout": [
        {
          "value": 0.57721270,
          "n": 0,
          "scriptPubKey": {
            "asm": "OP_DUP OP_HASH160 bd3a7ba798aea89342c2f105385f721250f0320f OP_EQUALVERIFY OP_CHECKSIG",
            "hex": "76a914bd3a7ba798aea89342c2f105385f721250f0320f88ac",
            "reqSigs": 1,
            "type": "pubkeyhash",
            "addresses": [
              "LcUW2wXH1LCp5DKjTxUC9oX75NtJFu3RvT"
            ]
          }
        }, 
        {
          "value": 0.02040035,
          "n": 1,
          "scriptPubKey": {
            "asm": "OP_DUP OP_HASH160 70141ad570ff8d01248ef5f43f551f311561b79e OP_EQUALVERIFY OP_CHECKSIG",
            "hex": "76a91470141ad570ff8d01248ef5f43f551f311561b79e88ac",
            "reqSigs": 1,
            "type": "pubkeyhash",
            "addresses": [
              "LVSa2c4gNX9jAutKcFYyHff7nvS2hkJ7AS"
            ]
          }
        }
      ],
      "hex": "01000000010dc4f7d25e8af9710ad0fd2fd4ecbcceaaf47f62fb8f63dc581bb25a64c88cdd010000006a4730440220541cd131d36b9356b2da62dcd2f3736859255611aca375722110e5327ccf7dc702201ec618ab9483ff44c7f1779f8a2f574141b96a5f57132ac16426833e1b5d783b012103dae38e098488809caecc4f50af449da9c0f5e509a37c48f635076e99fbb22b99ffffffff02b6c17003000000001976a914bd3a7ba798aea89342c2f105385f721250f0320f88ace3201f00000000001976a91470141ad570ff8d01248ef5f43f551f311561b79e88ac00000000"
    }, 
    {
      "txid": "54295345c06b09c89ae136fa322b8c1bb7300fbb0b79bc19d000a021641e25d0",
      "hash": "54295345c06b09c89ae136fa322b8c1bb7300fbb0b79bc19d000a021641e25d0",
      "version": 1,
      "size": 225,
      "vsize": 225,
      "locktime": 0,
      "vin": [
        {
          "txid": "1e1438859207cb0b9099ee9fc07c7622c50493848884915126468944d50651e2",
          "vout": 1,
          "scriptSig": {
            "asm": "3044022052555b9596f0113c3d74a5e5032d16a4b1825a7683f16cbf805823abe4904c6e022034e03803cf691858ed5698d82804799fec89452eea0a94fe67c71d7421faec64[ALL] 03a84a7a92e793412f870424863ec91cc5a1b1d42e9bb0ed6ff2e2ac5daf8cd680",
            "hex": "473044022052555b9596f0113c3d74a5e5032d16a4b1825a7683f16cbf805823abe4904c6e022034e03803cf691858ed5698d82804799fec89452eea0a94fe67c71d7421faec64012103a84a7a92e793412f870424863ec91cc5a1b1d42e9bb0ed6ff2e2ac5daf8cd680"
          },
          "sequence": 4294967295
        }
      ],
      "vout": [
        {
          "value": 0.68115887,
          "n": 0,
          "scriptPubKey": {
            "asm": "OP_DUP OP_HASH160 fd5b75f72ea448e24fae6c5f3e820fff4462f29c OP_EQUALVERIFY OP_CHECKSIG",
            "hex": "76a914fd5b75f72ea448e24fae6c5f3e820fff4462f29c88ac",
            "reqSigs": 1,
            "type": "pubkeyhash",
            "addresses": [
              "LiKanZ6GKDVL1uUYDSiQHoEUa7XAxtAb9u"
            ]
          }
        }, 
        {
          "value": 1.26958169,
          "n": 1,
          "scriptPubKey": {
            "asm": "OP_DUP OP_HASH160 34b240a9aa66eca0f9d2d719801152ab26df93d3 OP_EQUALVERIFY OP_CHECKSIG",
            "hex": "76a91434b240a9aa66eca0f9d2d719801152ab26df93d388ac",
            "reqSigs": 1,
            "type": "pubkeyhash",
            "addresses": [
              "LQ2awPshcyYrdXWRzu7wzYfSLZ9s9HdiAJ"
            ]
          }
        }
      ],
      "hex": "0100000001e25106d54489462651918488849304c522767cc09fee99900bcb07928538141e010000006a473044022052555b9596f0113c3d74a5e5032d16a4b1825a7683f16cbf805823abe4904c6e022034e03803cf691858ed5698d82804799fec89452eea0a94fe67c71d7421faec64012103a84a7a92e793412f870424863ec91cc5a1b1d42e9bb0ed6ff2e2ac5daf8cd680ffffffff02af5d0f04000000001976a914fd5b75f72ea448e24fae6c5f3e820fff4462f29c88ac593a9107000000001976a91434b240a9aa66eca0f9d2d719801152ab26df93d388ac00000000"
    }, 
    {
      "txid": "15cc2e5ef7af80e86cad5eb4039633a1e45828d091d02f3b319ae84c4d645ceb",
      "hash": "15cc2e5ef7af80e86cad5eb4039633a1e45828d091d02f3b319ae84c4d645ceb",
      "version": 1,
      "size": 225,
      "vsize": 225,
      "locktime": 0,
      "vin": [
        {
          "txid": "ea33f3b7820a21bce6dc64a6d1faef3a47bb333f9b55b11affb43cda5cc7c74d",
          "vout": 0,
          "scriptSig": {
            "asm": "3044022076c2705ccdaf49e6a33f3f0af7d2976cb0b4d193fa016a506160415b4ab2fb5902200acb0327b75d76b414b379163355c973d76159ba328bccdd83b1f7c32493c518[ALL] 02033a02629228c22f4b80426993a6258977524ca9bdd1a2792253fddbf874d100",
            "hex": "473044022076c2705ccdaf49e6a33f3f0af7d2976cb0b4d193fa016a506160415b4ab2fb5902200acb0327b75d76b414b379163355c973d76159ba328bccdd83b1f7c32493c518012102033a02629228c22f4b80426993a6258977524ca9bdd1a2792253fddbf874d100"
          },
          "sequence": 4294967295
        }
      ],
      "vout": [
        {
          "value": 6.02733233,
          "n": 0,
          "scriptPubKey": {
            "asm": "OP_DUP OP_HASH160 e57f2be0bcc9810c0e8757082a16eac9df2c62ed OP_EQUALVERIFY OP_CHECKSIG",
            "hex": "76a914e57f2be0bcc9810c0e8757082a16eac9df2c62ed88ac",
            "reqSigs": 1,
            "type": "pubkeyhash",
            "addresses": [
              "Lg9RMAa4PWYzMU21rMFxKhtBKzJPCXSEUY"
            ]
          }
        }, 
        {
          "value": 0.73698568,
          "n": 1,
          "scriptPubKey": {
            "asm": "OP_DUP OP_HASH160 62fb6edfe7a3e8467e9e2fafb6c642624efd6269 OP_EQUALVERIFY OP_CHECKSIG",
            "hex": "76a91462fb6edfe7a3e8467e9e2fafb6c642624efd626988ac",
            "reqSigs": 1,
            "type": "pubkeyhash",
            "addresses": [
              "LUFKgtcfZFefofWgVBSYQQZFHL7J5Kci4E"
            ]
          }
        }
      ],
      "hex": "01000000014dc7c75cda3cb4ff1ab1559b3f33bb473aeffad1a664dce6bc210a82b7f333ea000000006a473044022076c2705ccdaf49e6a33f3f0af7d2976cb0b4d193fa016a506160415b4ab2fb5902200acb0327b75d76b414b379163355c973d76159ba328bccdd83b1f7c32493c518012102033a02629228c22f4b80426993a6258977524ca9bdd1a2792253fddbf874d100ffffffff02b1faec23000000001976a914e57f2be0bcc9810c0e8757082a16eac9df2c62ed88ac088d6404000000001976a91462fb6edfe7a3e8467e9e2fafb6c642624efd626988ac00000000"
    }, 
    {
      "txid": "17f183a78e6a16339d968580c7b23cfad0d0c8f592071dc13f283977337a693c",
      "hash": "17f183a78e6a16339d968580c7b23cfad0d0c8f592071dc13f283977337a693c",
      "version": 2,
      "size": 520,
      "vsize": 520,
      "locktime": 1359916,
      "vin": [
        {
          "txid": "375d1f5a0dd9115af169bb6cf228b8630bd4b7afb2a5a8a05f89221d3c5b2e06",
          "vout": 3,
          "scriptSig": {
            "asm": "3045022100c20bac372edfe26a235a3676a07249248e16029479506390dbac3a7a4742e98c022063630f4f0e685386adc823fa1a9862694685287ef63420ad0ea7406f83c161a3[ALL] 03ba3989b1772ba8f6f0661ff5d416f9eddb541a67a51b9d83b7c50d494e59e894",
            "hex": "483045022100c20bac372edfe26a235a3676a07249248e16029479506390dbac3a7a4742e98c022063630f4f0e685386adc823fa1a9862694685287ef63420ad0ea7406f83c161a3012103ba3989b1772ba8f6f0661ff5d416f9eddb541a67a51b9d83b7c50d494e59e894"
          },
          "sequence": 4294967294
        }, 
        {
          "txid": "7f08f7e19f3edd46418410cc3b3cf4400fa3db69832b1d64f2d106ffcaf29d1f",
          "vout": 0,
          "scriptSig": {
            "asm": "304402204d51d5197f499bd007c032f63419f4670c484c6c6881155a7822cb0e0382b9cb022042affa47c371ce98f90e325e9ddb261721534a4d79d09d24633a906db7012be4[ALL] 025286956f88117969d8e547a4570b4771102c7c5d95966c1806b29bc0ca6f7437",
            "hex": "47304402204d51d5197f499bd007c032f63419f4670c484c6c6881155a7822cb0e0382b9cb022042affa47c371ce98f90e325e9ddb261721534a4d79d09d24633a906db7012be40121025286956f88117969d8e547a4570b4771102c7c5d95966c1806b29bc0ca6f7437"
          },
          "sequence": 4294967294
        }, 
        {
          "txid": "0184d2849de21a0b9e3c26390b3deea28a3b2a92a58bdc91c85240ca9a150d98",
          "vout": 1,
          "scriptSig": {
            "asm": "3044022029ff01f794797482304608c1b7c3c03e9ff0c1fe65063ab62dcfdd5b58689653022001374ebca451edde2cc46c7458e8084264562bf92f2036ed8caa954d00444d8c[ALL] 03472f6a0145552982001ac05c7d9ac15ecdf7f2a37561fd664f71eb830112a080",
            "hex": "473044022029ff01f794797482304608c1b7c3c03e9ff0c1fe65063ab62dcfdd5b58689653022001374ebca451edde2cc46c7458e8084264562bf92f2036ed8caa954d00444d8c012103472f6a0145552982001ac05c7d9ac15ecdf7f2a37561fd664f71eb830112a080"
          },
          "sequence": 4294967294
        }
      ],
      "vout": [
        {
          "value": 3.16518700,
          "n": 0,
          "scriptPubKey": {
            "asm": "OP_DUP OP_HASH160 c3efbfa5952ca59813ea801d015093b31112a71a OP_EQUALVERIFY OP_CHECKSIG",
            "hex": "76a914c3efbfa5952ca59813ea801d015093b31112a71a88ac",
            "reqSigs": 1,
            "type": "pubkeyhash",
            "addresses": [
              "Ld5yEeRoeSVpN5TYHQ8WMbo5Fb1LMr8NXH"
            ]
          }
        }, 
        {
          "value": 0.00947843,
          "n": 1,
          "scriptPubKey": {
            "asm": "OP_DUP OP_HASH160 ed4b74217e3c1d2609ffe02d6c9d65ada206326e OP_EQUALVERIFY OP_CHECKSIG",
            "hex": "76a914ed4b74217e3c1d2609ffe02d6c9d65ada206326e88ac",
            "reqSigs": 1,
            "type": "pubkeyhash",
            "addresses": [
              "LgreoHcx7Xr1wjUYyEWPj1j8QpjwhPHsq5"
            ]
          }
        }
      ],
      "hex": "0200000003062e5b3c1d22895fa0a8a5b2afb7d40b63b828f26cbb69f15a11d90d5a1f5d37030000006b483045022100c20bac372edfe26a235a3676a07249248e16029479506390dbac3a7a4742e98c022063630f4f0e685386adc823fa1a9862694685287ef63420ad0ea7406f83c161a3012103ba3989b1772ba8f6f0661ff5d416f9eddb541a67a51b9d83b7c50d494e59e894feffffff1f9df2caff06d1f2641d2b8369dba30f40f43c3bcc10844146dd3e9fe1f7087f000000006a47304402204d51d5197f499bd007c032f63419f4670c484c6c6881155a7822cb0e0382b9cb022042affa47c371ce98f90e325e9ddb261721534a4d79d09d24633a906db7012be40121025286956f88117969d8e547a4570b4771102c7c5d95966c1806b29bc0ca6f7437feffffff980d159aca4052c891dc8ba5922a3b8aa2ee3d0b39263c9e0b1ae29d84d28401010000006a473044022029ff01f794797482304608c1b7c3c03e9ff0c1fe65063ab62dcfdd5b58689653022001374ebca451edde2cc46c7458e8084264562bf92f2036ed8caa954d00444d8c012103472f6a0145552982001ac05c7d9ac15ecdf7f2a37561fd664f71eb830112a080feffffff022cb1dd12000000001976a914c3efbfa5952ca59813ea801d015093b31112a71a88ac83760e00000000001976a914ed4b74217e3c1d2609ffe02d6c9d65ada206326e88ac2cc01400"
    }, 
    {
      "txid": "3c83f72eb60cf1197ca36fa35da363680e0710189eb110aabed519fea530022b",
      "hash": "3c83f72eb60cf1197ca36fa35da363680e0710189eb110aabed519fea530022b",
      "version": 2,
      "size": 226,
      "vsize": 226,
      "locktime": 1359837,
      "vin": [
        {
          "txid": "a3e136a1363498eb6a74dafa07c59ee1f689ef46d1ffe992a37a75294f93d038",
          "vout": 1,
          "scriptSig": {
            "asm": "3045022100e83e4fdf7fb50b8a06311e8e884e807d14776e92fb2862b6ce1daba5c4286647022029d32865bfb262cb5e075ebc13c0554ff93f9c6705b23e35a7fc91ce6a64f1e4[ALL] 02f845c4af9a2f021ff2b4514040a778118b55901833b7175c10417a7e2af76f43",
            "hex": "483045022100e83e4fdf7fb50b8a06311e8e884e807d14776e92fb2862b6ce1daba5c4286647022029d32865bfb262cb5e075ebc13c0554ff93f9c6705b23e35a7fc91ce6a64f1e4012102f845c4af9a2f021ff2b4514040a778118b55901833b7175c10417a7e2af76f43"
          },
          "sequence": 4294967294
        }
      ],
      "vout": [
        {
          "value": 0.13474183,
          "n": 0,
          "scriptPubKey": {
            "asm": "OP_DUP OP_HASH160 aabab9f2c256aaea006c89b79e345c8fde3db8c2 OP_EQUALVERIFY OP_CHECKSIG",
            "hex": "76a914aabab9f2c256aaea006c89b79e345c8fde3db8c288ac",
            "reqSigs": 1,
            "type": "pubkeyhash",
            "addresses": [
              "LangpoJd3LzoRhvXZLSophXVHWztNab6aB"
            ]
          }
        }, 
        {
          "value": 33.16504345,
          "n": 1,
          "scriptPubKey": {
            "asm": "OP_DUP OP_HASH160 3a74e04842372a0b42cdb6e642e23276ec39ab01 OP_EQUALVERIFY OP_CHECKSIG",
            "hex": "76a9143a74e04842372a0b42cdb6e642e23276ec39ab0188ac",
            "reqSigs": 1,
            "type": "pubkeyhash",
            "addresses": [
              "LQZ3U2smdZGp7EoGVyjsitk3TnUg7ccuhi"
            ]
          }
        }
      ],
      "hex": "020000000138d0934f29757aa392e9ffd146ef89f6e19ec507fada746aeb983436a136e1a3010000006b483045022100e83e4fdf7fb50b8a06311e8e884e807d14776e92fb2862b6ce1daba5c4286647022029d32865bfb262cb5e075ebc13c0554ff93f9c6705b23e35a7fc91ce6a64f1e4012102f845c4af9a2f021ff2b4514040a778118b55901833b7175c10417a7e2af76f43feffffff028799cd00000000001976a914aabab9f2c256aaea006c89b79e345c8fde3db8c288ac19d7adc5000000001976a9143a74e04842372a0b42cdb6e642e23276ec39ab0188acddbf1400"
    }, 
    {
      "txid": "658cf095ca628f69214142e7d5eb6f95cdfa796a4aa7e638b61538dde12c136b",
      "hash": "658cf095ca628f69214142e7d5eb6f95cdfa796a4aa7e638b61538dde12c136b",
      "version": 2,
      "size": 226,
      "vsize": 226,
      "locktime": 1359828,
      "vin": [
        {
          "txid": "88e8e9649185c7d0367b6c52edd09fda8256111698a20b1ba3bbaaeef913c74f",
          "vout": 0,
          "scriptSig": {
            "asm": "3045022100b7f2e5026e5a2e60fdf312b21e3585d8551f11ff929f7d440eb85e54ebe0e58902205e7ca69bebecb07dd52ae19630330a75283bb2b10e76eb13e879e85da78c7bf7[ALL] 030b09744281d7cfbeb3027b5256540d4c31012f17f1648f94aa82d0b5cd8791d7",
            "hex": "483045022100b7f2e5026e5a2e60fdf312b21e3585d8551f11ff929f7d440eb85e54ebe0e58902205e7ca69bebecb07dd52ae19630330a75283bb2b10e76eb13e879e85da78c7bf70121030b09744281d7cfbeb3027b5256540d4c31012f17f1648f94aa82d0b5cd8791d7"
          },
          "sequence": 4294967294
        }
      ],
      "vout": [
        {
          "value": 2.63431118,
          "n": 0,
          "scriptPubKey": {
            "asm": "OP_DUP OP_HASH160 55db35a6ba2089eb15fc17c6978571b28c408402 OP_EQUALVERIFY OP_CHECKSIG",
            "hex": "76a91455db35a6ba2089eb15fc17c6978571b28c40840288ac",
            "reqSigs": 1,
            "type": "pubkeyhash",
            "addresses": [
              "LT3vJU2vtAxpqbuENBhDRdSD6njjgoAiKB"
            ]
          }
        }, 
        {
          "value": 2.59281618,
          "n": 1,
          "scriptPubKey": {
            "asm": "OP_DUP OP_HASH160 a0f13712f841be7a1b19eedb3294d2ada10c69d7 OP_EQUALVERIFY OP_CHECKSIG",
            "hex": "76a914a0f13712f841be7a1b19eedb3294d2ada10c69d788ac",
            "reqSigs": 1,
            "type": "pubkeyhash",
            "addresses": [
              "LZtwLpvoq9k5ozxjvpV7uvobRmhee3622G"
            ]
          }
        }
      ],
      "hex": "02000000014fc713f9eeaabba31b0ba29816115682da9fd0ed526c7b36d0c7859164e9e888000000006b483045022100b7f2e5026e5a2e60fdf312b21e3585d8551f11ff929f7d440eb85e54ebe0e58902205e7ca69bebecb07dd52ae19630330a75283bb2b10e76eb13e879e85da78c7bf70121030b09744281d7cfbeb3027b5256540d4c31012f17f1648f94aa82d0b5cd8791d7feffffff02cea3b30f000000001976a91455db35a6ba2089eb15fc17c6978571b28c40840288acd252740f000000001976a914a0f13712f841be7a1b19eedb3294d2ada10c69d788acd4bf1400"
    }, 
    {
      "txid": "d6f836b03e541c13d1b080efca79cd2c02fc4d7d36bd29160bf08b729e7aa3d2",
      "hash": "d6f836b03e541c13d1b080efca79cd2c02fc4d7d36bd29160bf08b729e7aa3d2",
      "version": 1,
      "size": 226,
      "vsize": 226,
      "locktime": 0,
      "vin": [
        {
          "txid": "0e52f1f8aa3aba8cd1c04f52550b0cd64a473f359a1ebe500d38980b1e4d4506",
          "vout": 0,
          "scriptSig": {
            "asm": "3045022100d94e936f80adf11ed128cd1d120873d07ccdbc2b2ab47108a848dd565868142802202c3280d623d48078e1dd4fa977acae045a3a4ada77375405d74e21112838b644[ALL] 02b6f99ca46bf0f237db0e6bcdfcb9823ad75535385fd873cafac08e6521e51802",
            "hex": "483045022100d94e936f80adf11ed128cd1d120873d07ccdbc2b2ab47108a848dd565868142802202c3280d623d48078e1dd4fa977acae045a3a4ada77375405d74e21112838b644012102b6f99ca46bf0f237db0e6bcdfcb9823ad75535385fd873cafac08e6521e51802"
          },
          "sequence": 4294967295
        }
      ],
      "vout": [
        {
          "value": 0.00074810,
          "n": 0,
          "scriptPubKey": {
            "asm": "OP_DUP OP_HASH160 27c55bf9859522854c25230cae6e15356e20a653 OP_EQUALVERIFY OP_CHECKSIG",
            "hex": "76a91427c55bf9859522854c25230cae6e15356e20a65388ac",
            "reqSigs": 1,
            "type": "pubkeyhash",
            "addresses": [
              "LNrF3TUdovHHZv1YA8VexDkJcekwRmovcw"
            ]
          }
        }, 
        {
          "value": 0.15716210,
          "n": 1,
          "scriptPubKey": {
            "asm": "OP_DUP OP_HASH160 7f7debcdb48e9c982595231462b6f1c5db74a8db OP_EQUALVERIFY OP_CHECKSIG",
            "hex": "76a9147f7debcdb48e9c982595231462b6f1c5db74a8db88ac",
            "reqSigs": 1,
            "type": "pubkeyhash",
            "addresses": [
              "LWr4vj9GeXHGrxa3JutCF6Nay5CSXWxsad"
            ]
          }
        }
      ],
      "hex": "010000000106454d1e0b98380d50be1e9a353f474ad60c0b55524fc0d18cba3aaaf8f1520e000000006b483045022100d94e936f80adf11ed128cd1d120873d07ccdbc2b2ab47108a848dd565868142802202c3280d623d48078e1dd4fa977acae045a3a4ada77375405d74e21112838b644012102b6f99ca46bf0f237db0e6bcdfcb9823ad75535385fd873cafac08e6521e51802ffffffff023a240100000000001976a91427c55bf9859522854c25230cae6e15356e20a65388ac72cfef00000000001976a9147f7debcdb48e9c982595231462b6f1c5db74a8db88ac00000000"
    }
  ],
  "time": 1517348418,
  "mediantime": 1517348070,
  "nonce": 1161785821,
  "bits": "1a042eae",
  "difficulty": 4011378.762614286,
  "chainwork": "0000000000000000000000000000000000000000000000347406f3dee9052bde",
  "previousblockhash": "29c31952546d99558051cba581f1a09d136e446773942d70f5da4f370dc4cd22",
  "nextblockhash": "6d73b6f5b2526e9c4c8770a62f345964408903441f555dea31bd4c45db6a8dc1"
}
