{
  "hash": "2b4287791eaf47d647b8afc61c2753b01fa6960206f84108ccc55898899905f9",
  "confirmations": 3130,
  "strippedsize": 254,
  "size": 254,
  "weight": 1016,
  "height": 1357865,
  "version": 536870912,
  "versionHex": "20000000",
  "merkleroot": "8cf7caf7a4b7adedc6f61aea0ae57dbb27b6d3801b13841d20b051b04a3eb449",
  "tx": [
    {
      "txid": "8cf7caf7a4b7adedc6f61aea0ae57dbb27b6d3801b13841d20b051b04a3eb449",
      "hash": "8cf7caf7a4b7adedc6f61aea0ae57dbb27b6d3801b13841d20b051b04a3eb449",
      "version": 1,
      "size": 173,
      "vsize": 173,
      "locktime": 0,
      "vin": [
        {
          "coinbase": "0329b8141b4d696e656420627920416e74506f6f6c20626a312045205a6c795ffabe6d6df72bd38b74bc70ea39dce8895a9ffacbbb09b36280d02084876977132ff6e7870400000000000000e91700000000000002000000",
          "sequence": 4294967295
        }
      ],
      "vout": [
        {
          "value": 25.00000000,
          "n": 0,
          "scriptPubKey": {
            "asm": "OP_DUP OP_HASH160 0ff3ccc5e8be88afe24b5d634e5852d474dbdff1 OP_EQUALVERIFY OP_CHECKSIG",
            "hex": "76a9140ff3ccc5e8be88afe24b5d634e5852d474dbdff188ac",
            "reqSigs": 1,
            "type": "pubkeyhash",
            "addresses": [
              "LLgJTbzZMsRTCUF1NtvvL9SR1a4pVieW89"
            ]
          }
        }
      ],
      "hex": "01000000010000000000000000000000000000000000000000000000000000000000000000ffffffff580329b8141b4d696e656420627920416e74506f6f6c20626a312045205a6c795ffabe6d6df72bd38b74bc70ea39dce8895a9ffacbbb09b36280d02084876977132ff6e7870400000000000000e91700000000000002000000ffffffff0100f90295000000001976a9140ff3ccc5e8be88afe24b5d634e5852d474dbdff188ac00000000"
    }
  ],
  "time": 1517058399,
  "mediantime": 1517057843,
  "nonce": 1198581844,
  "bits": "1a047f14",
  "difficulty": 3731199.183374282,
  "chainwork": "000000000000000000000000000000000000000000000032987c197226f71f44",
  "previousblockhash": "785f39a0ce909f9a0b0a02d0d0f44a5a8eb752e84150b37d7cf5ca0dd213ba7e",
  "nextblockhash": "a2b33d62039938debfde882fad1dfc009b2d4ca76ee8fbe7a4cfdc6a0d2dd87f"
}
