{
  "hash": "2b7e2a5f52cd4acbbfc9ac9e89f68817da377c9e1cd7b3efa3ccaf52429c0b3b",
  "confirmations": 3732,
  "strippedsize": 253,
  "size": 253,
  "weight": 1012,
  "height": 1357263,
  "version": 536870912,
  "versionHex": "20000000",
  "merkleroot": "054f66e4aeb1b9b083f723821be96a8b2122fc8dd76dfa5295812f27c4682e54",
  "tx": [
    {
      "txid": "054f66e4aeb1b9b083f723821be96a8b2122fc8dd76dfa5295812f27c4682e54",
      "hash": "054f66e4aeb1b9b083f723821be96a8b2122fc8dd76dfa5295812f27c4682e54",
      "version": 1,
      "size": 172,
      "vsize": 172,
      "locktime": 0,
      "vin": [
        {
          "coinbase": "03cfb5141a4d696e656420627920416e74506f6f6c20626a331f205a6b46f3fabe6d6d37523c818f4807c1cfa291da07938990a816a281762eafb882b709441a7fa0cd04000000000000003b0100000000000004000000",
          "sequence": 4294967295
        }
      ],
      "vout": [
        {
          "value": 25.00000000,
          "n": 0,
          "scriptPubKey": {
            "asm": "OP_DUP OP_HASH160 0ff3ccc5e8be88afe24b5d634e5852d474dbdff1 OP_EQUALVERIFY OP_CHECKSIG",
            "hex": "76a9140ff3ccc5e8be88afe24b5d634e5852d474dbdff188ac",
            "reqSigs": 1,
            "type": "pubkeyhash",
            "addresses": [
              "LLgJTbzZMsRTCUF1NtvvL9SR1a4pVieW89"
            ]
          }
        }
      ],
      "hex": "01000000010000000000000000000000000000000000000000000000000000000000000000ffffffff5703cfb5141a4d696e656420627920416e74506f6f6c20626a331f205a6b46f3fabe6d6d37523c818f4807c1cfa291da07938990a816a281762eafb882b709441a7fa0cd04000000000000003b0100000000000004000000ffffffff0100f90295000000001976a9140ff3ccc5e8be88afe24b5d634e5852d474dbdff188ac00000000"
    }
  ],
  "time": 1516979955,
  "mediantime": 1516979707,
  "nonce": 858882570,
  "bits": "1a047f14",
  "difficulty": 3731199.183374282,
  "chainwork": "00000000000000000000000000000000000000000000003212998f7b38d2ca20",
  "previousblockhash": "58910c548003d0abe362aa57af1b34415cbb4166993fde64e57b9f32146388ee",
  "nextblockhash": "fac724935df66dd7d834a81d286446e865a6a5a0840fc5a7f1af8a7f3fd80449"
}
