{
  "hash": "2b8ed70a6ab754514ed47b6f2fdcfbbd3afef754785c7a864e85f8b53989418a",
  "confirmations": 2521,
  "strippedsize": 253,
  "size": 253,
  "weight": 1012,
  "height": 1358474,
  "version": 536870912,
  "versionHex": "20000000",
  "merkleroot": "6b14f0dface63a51d3f81493c96fca24fa062e7cc3da232364bcb151ad56dc0f",
  "tx": [
    {
      "txid": "6b14f0dface63a51d3f81493c96fca24fa062e7cc3da232364bcb151ad56dc0f",
      "hash": "6b14f0dface63a51d3f81493c96fca24fa062e7cc3da232364bcb151ad56dc0f",
      "version": 1,
      "size": 172,
      "vsize": 172,
      "locktime": 0,
      "vin": [
        {
          "coinbase": "038aba141a4d696e656420627920416e74506f6f6c20626a341e205a6dd80cfabe6d6d0a53e50ceb8b521c58d679555774ecbe9617dd1a54d1ac95861be38b12b1168004000000000000003f0500000000000004000000",
          "sequence": 4294967295
        }
      ],
      "vout": [
        {
          "value": 25.00000000,
          "n": 0,
          "scriptPubKey": {
            "asm": "OP_DUP OP_HASH160 0ff3ccc5e8be88afe24b5d634e5852d474dbdff1 OP_EQUALVERIFY OP_CHECKSIG",
            "hex": "76a9140ff3ccc5e8be88afe24b5d634e5852d474dbdff188ac",
            "reqSigs": 1,
            "type": "pubkeyhash",
            "addresses": [
              "LLgJTbzZMsRTCUF1NtvvL9SR1a4pVieW89"
            ]
          }
        }
      ],
      "hex": "01000000010000000000000000000000000000000000000000000000000000000000000000ffffffff57038aba141a4d696e656420627920416e74506f6f6c20626a341e205a6dd80cfabe6d6d0a53e50ceb8b521c58d679555774ecbe9617dd1a54d1ac95861be38b12b1168004000000000000003f0500000000000004000000ffffffff0100f90295000000001976a9140ff3ccc5e8be88afe24b5d634e5852d474dbdff188ac00000000"
    }
  ],
  "time": 1517148172,
  "mediantime": 1517147057,
  "nonce": 1920828250,
  "bits": "1a047f14",
  "difficulty": 3731199.183374282,
  "chainwork": "0000000000000000000000000000000000000000000000331fed2df1e83f991e",
  "previousblockhash": "15075eb12c0e5c23e030a999685e0f6970eabaaed4839ed2dfed8f0b0b4ba4d1",
  "nextblockhash": "6dd4c91c7f0310c805587790b4015fdf8525a7d9c334778d4cfd971f0cfd507a"
}
