{
  "hash": "2c4df872ea6553637c19f63cf035ef1ce881965992f28eef772def4e5219b4b8",
  "confirmations": 2127,
  "strippedsize": 266,
  "size": 266,
  "weight": 1064,
  "height": 1358867,
  "version": 536870912,
  "versionHex": "20000000",
  "merkleroot": "72ce2ada2dd71197fdd569ccb8f55cf3c97a0de2b2ae71726b70e7216b985860",
  "tx": [
    {
      "txid": "72ce2ada2dd71197fdd569ccb8f55cf3c97a0de2b2ae71726b70e7216b985860",
      "hash": "72ce2ada2dd71197fdd569ccb8f55cf3c97a0de2b2ae71726b70e7216b985860",
      "version": 1,
      "size": 185,
      "vsize": 185,
      "locktime": 953644658,
      "vin": [
        {
          "coinbase": "0313bc142cfabe6d6dab7cb726a91aeb16d9a6485aaa9bdaa044a8bdedf83cb6224dfcd06f5dc18afd08000000f09f909f0e4d696e65642062792073726c7463000000000000000000000000000000000000000000000000000000000000000000000000",
          "sequence": 214
        }
      ],
      "vout": [
        {
          "value": 25.00000000,
          "n": 0,
          "scriptPubKey": {
            "asm": "OP_DUP OP_HASH160 aa3750aa18b8a0f3f0590731e1fab934856680cf OP_EQUALVERIFY OP_CHECKSIG",
            "hex": "76a914aa3750aa18b8a0f3f0590731e1fab934856680cf88ac",
            "reqSigs": 1,
            "type": "pubkeyhash",
            "addresses": [
              "LajyQBeZaBA1NkZDeY8YT5RYYVRkXMvb2T"
            ]
          }
        }
      ],
      "hex": "01000000010000000000000000000000000000000000000000000000000000000000000000ffffffff640313bc142cfabe6d6dab7cb726a91aeb16d9a6485aaa9bdaa044a8bdedf83cb6224dfcd06f5dc18afd08000000f09f909f0e4d696e65642062792073726c7463000000000000000000000000000000000000000000000000000000000000000000000000d60000000100f90295000000001976a914aa3750aa18b8a0f3f0590731e1fab934856680cf88ac7276d738"
    }
  ],
  "time": 1517203458,
  "mediantime": 1517202713,
  "nonce": 3402604,
  "bits": "1a042eae",
  "difficulty": 4011378.762614286,
  "chainwork": "00000000000000000000000000000000000000000000003378bb8a6bfd9f4328",
  "previousblockhash": "0a1d067b2cf44f5334e472c5d3788e0b0b79b8aa9f477b9a830595ee745ac5fa",
  "nextblockhash": "f331d73f99c8a51357412f9143726d831cf8ff4d6bfac0f93cc6d051d464e393"
}
