{
  "hash": "2c89a51aaeeb6319d22a5af74e1b81cb6801485c1f0e614ca4531a5df5f3658b",
  "confirmations": 3640,
  "strippedsize": 253,
  "size": 253,
  "weight": 1012,
  "height": 1357355,
  "version": 536870912,
  "versionHex": "20000000",
  "merkleroot": "11350bba6fb33237538e40be1313638ce9baf86774d6ce90c27245ffc48be4b3",
  "tx": [
    {
      "txid": "11350bba6fb33237538e40be1313638ce9baf86774d6ce90c27245ffc48be4b3",
      "hash": "11350bba6fb33237538e40be1313638ce9baf86774d6ce90c27245ffc48be4b3",
      "version": 1,
      "size": 172,
      "vsize": 172,
      "locktime": 0,
      "vin": [
        {
          "coinbase": "032bb6141a4d696e656420627920416e74506f6f6c20626a331f205a6b7e40fabe6d6d0a7136ad67d04dbd2673abefead9d76f84480aecbae960ff065e16ee3f5aa4380400000000000000b23a00000000000001000000",
          "sequence": 4294967295
        }
      ],
      "vout": [
        {
          "value": 25.00000000,
          "n": 0,
          "scriptPubKey": {
            "asm": "OP_DUP OP_HASH160 0ff3ccc5e8be88afe24b5d634e5852d474dbdff1 OP_EQUALVERIFY OP_CHECKSIG",
            "hex": "76a9140ff3ccc5e8be88afe24b5d634e5852d474dbdff188ac",
            "reqSigs": 1,
            "type": "pubkeyhash",
            "addresses": [
              "LLgJTbzZMsRTCUF1NtvvL9SR1a4pVieW89"
            ]
          }
        }
      ],
      "hex": "01000000010000000000000000000000000000000000000000000000000000000000000000ffffffff57032bb6141a4d696e656420627920416e74506f6f6c20626a331f205a6b7e40fabe6d6d0a7136ad67d04dbd2673abefead9d76f84480aecbae960ff065e16ee3f5aa4380400000000000000b23a00000000000001000000ffffffff0100f90295000000001976a9140ff3ccc5e8be88afe24b5d634e5852d474dbdff188ac00000000"
    }
  ],
  "time": 1516994112,
  "mediantime": 1516993515,
  "nonce": 2594102619,
  "bits": "1a047f14",
  "difficulty": 3731199.183374282,
  "chainwork": "000000000000000000000000000000000000000000000032270f87a60fd26378",
  "previousblockhash": "3b3a84567369042ffce33f8efb36ae1849ce899323ceb96565d0574cdaafae46",
  "nextblockhash": "b0a956ab96b0e63d90d79b6365713bc7bd2ed6c0f1039bc69d720d8255cb287e"
}
