{
  "hash": "2cc47a4d1e647f9cceba75acf7693c835cc1bc0a4410d12b1c0bf26f0f9c71fc",
  "confirmations": 2471,
  "strippedsize": 266,
  "size": 266,
  "weight": 1064,
  "height": 1358524,
  "version": 536870912,
  "versionHex": "20000000",
  "merkleroot": "0183a577e81325e1ee29e6511b8433f728132e610904400d4eb991acbb12ed73",
  "tx": [
    {
      "txid": "0183a577e81325e1ee29e6511b8433f728132e610904400d4eb991acbb12ed73",
      "hash": "0183a577e81325e1ee29e6511b8433f728132e610904400d4eb991acbb12ed73",
      "version": 1,
      "size": 185,
      "vsize": 185,
      "locktime": 957541578,
      "vin": [
        {
          "coinbase": "03bcba142cfabe6d6d0c7473256c21b04429f33f20d7ae5f5ed3fd246ba1afb964db3030bc2d2462a908000000f09f909f0f4d696e65642062792063616f6b6d610000000000000000000000000000000000000000000000000000000000000000000000",
          "sequence": 2
        }
      ],
      "vout": [
        {
          "value": 25.00000000,
          "n": 0,
          "scriptPubKey": {
            "asm": "OP_DUP OP_HASH160 aa3750aa18b8a0f3f0590731e1fab934856680cf OP_EQUALVERIFY OP_CHECKSIG",
            "hex": "76a914aa3750aa18b8a0f3f0590731e1fab934856680cf88ac",
            "reqSigs": 1,
            "type": "pubkeyhash",
            "addresses": [
              "LajyQBeZaBA1NkZDeY8YT5RYYVRkXMvb2T"
            ]
          }
        }
      ],
      "hex": "01000000010000000000000000000000000000000000000000000000000000000000000000ffffffff6403bcba142cfabe6d6d0c7473256c21b04429f33f20d7ae5f5ed3fd246ba1afb964db3030bc2d2462a908000000f09f909f0f4d696e65642062792063616f6b6d610000000000000000000000000000000000000000000000000000000000000000000000020000000100f90295000000001976a914aa3750aa18b8a0f3f0590731e1fab934856680cf88accaec1239"
    }
  ],
  "time": 1517153677,
  "mediantime": 1517153390,
  "nonce": 785712169,
  "bits": "1a047f14",
  "difficulty": 3731199.183374282,
  "chainwork": "0000000000000000000000000000000000000000000000332b0be6e7cc665632",
  "previousblockhash": "6562733008a5c7b521231f9a251c4d4441ce384b9f4aff1b8c5058c725ba6a91",
  "nextblockhash": "b5532ba5c030dfd9feb985edd5be3b1e79c95495823eebd6143eb93a2886175c"
}
