{
  "hash": "2ce400b45c7533fc830684902d39ae4af05a4bb88f54187614e111e2612b9b0e",
  "confirmations": 929,
  "strippedsize": 3232,
  "size": 3268,
  "weight": 12964,
  "height": 1360065,
  "version": 536870912,
  "versionHex": "20000000",
  "merkleroot": "3980d2a610e8545795e82e5cc9686e1a5d91bf88b524f59182007f6472dfbf3e",
  "tx": [
    {
      "txid": "66dc77dba97d4a0d73d15b9e47da401c3004606251bf65a4399903b49f17317f",
      "hash": "e757bb2a886af35313be755e858e70f8b374e9bf9b45d70f4e628b2e191a3611",
      "version": 1,
      "size": 236,
      "vsize": 209,
      "locktime": 0,
      "vin": [
        {
          "coinbase": "03c1c014045a7138ab2cfabe6d6d415868a7509f8cbbdd188133bbb304ef2e2cf7e6e58135cd455e65fc9ba636864000000000000000042f4c502f082200054732000000",
          "sequence": 4294967295
        }
      ],
      "vout": [
        {
          "value": 25.00732820,
          "n": 0,
          "scriptPubKey": {
            "asm": "OP_DUP OP_HASH160 57757ed2ecf2052ff3126c397aca7defb9ca2cec OP_EQUALVERIFY OP_CHECKSIG",
            "hex": "76a91457757ed2ecf2052ff3126c397aca7defb9ca2cec88ac",
            "reqSigs": 1,
            "type": "pubkeyhash",
            "addresses": [
              "LTCPodGk5FwcJaRzH9yKnwicxzFUbxp6tN"
            ]
          }
        }, 
        {
          "value": 0.00000000,
          "n": 1,
          "scriptPubKey": {
            "asm": "OP_RETURN aa21a9edf90e975c5f10d9856d79d33bceea193acd31b6bcda46a813d1fcabf87536e4a1",
            "hex": "6a24aa21a9edf90e975c5f10d9856d79d33bceea193acd31b6bcda46a813d1fcabf87536e4a1",
            "type": "nulldata"
          }
        }
      ],
      "hex": "010000000001010000000000000000000000000000000000000000000000000000000000000000ffffffff4403c1c014045a7138ab2cfabe6d6d415868a7509f8cbbdd188133bbb304ef2e2cf7e6e58135cd455e65fc9ba636864000000000000000042f4c502f082200054732000000ffffffff0294270e95000000001976a91457757ed2ecf2052ff3126c397aca7defb9ca2cec88ac0000000000000000266a24aa21a9edf90e975c5f10d9856d79d33bceea193acd31b6bcda46a813d1fcabf87536e4a10120000000000000000000000000000000000000000000000000000000000000000000000000"
    }, 
    {
      "txid": "a66f9e7c0fee1e3ca1fab63cbafb3e398aa137876abe1aa55efced6a3f7e643f",
      "hash": "a66f9e7c0fee1e3ca1fab63cbafb3e398aa137876abe1aa55efced6a3f7e643f",
      "version": 1,
      "size": 225,
      "vsize": 225,
      "locktime": 0,
      "vin": [
        {
          "txid": "a73751fd4981c27c81eae4cec2623a0da69913c8eb14a97310fc4c8dc83c6269",
          "vout": 1,
          "scriptSig": {
            "asm": "3044022014b510d8378f6eb4748b83222209e089b9a076399d200016b0666ea215ea2e2402206797aa7bf73de68e808b3d294c316aba894ca9ef82719faa83ae76bc0dcd5118[ALL] 0320d91bcd2005b556eb25f24d3fc1845d13d0e7adffb0bd700f45a3c378122c2c",
            "hex": "473044022014b510d8378f6eb4748b83222209e089b9a076399d200016b0666ea215ea2e2402206797aa7bf73de68e808b3d294c316aba894ca9ef82719faa83ae76bc0dcd511801210320d91bcd2005b556eb25f24d3fc1845d13d0e7adffb0bd700f45a3c378122c2c"
          },
          "sequence": 4294967295
        }
      ],
      "vout": [
        {
          "value": 7.00000000,
          "n": 0,
          "scriptPubKey": {
            "asm": "OP_DUP OP_HASH160 b5112ed0ec3d2d814f4f3ee6ca95a8251799e6c1 OP_EQUALVERIFY OP_CHECKSIG",
            "hex": "76a914b5112ed0ec3d2d814f4f3ee6ca95a8251799e6c188ac",
            "reqSigs": 1,
            "type": "pubkeyhash",
            "addresses": [
              "LbjM9pbZ3taCmxr3H6z76hZxPJwaznjbh5"
            ]
          }
        }, 
        {
          "value": 44.98609537,
          "n": 1,
          "scriptPubKey": {
            "asm": "OP_DUP OP_HASH160 d2abb42f790262b91d279146fa85a37e342be92a OP_EQUALVERIFY OP_CHECKSIG",
            "hex": "76a914d2abb42f790262b91d279146fa85a37e342be92a88ac",
            "reqSigs": 1,
            "type": "pubkeyhash",
            "addresses": [
              "LeRsrgyS9wfhYYXZxaBhBaRJk5MFSq81vD"
            ]
          }
        }
      ],
      "hex": "010000000169623cc88d4cfc1073a914ebc81399a60d3a62c2cee4ea817cc28149fd5137a7010000006a473044022014b510d8378f6eb4748b83222209e089b9a076399d200016b0666ea215ea2e2402206797aa7bf73de68e808b3d294c316aba894ca9ef82719faa83ae76bc0dcd511801210320d91bcd2005b556eb25f24d3fc1845d13d0e7adffb0bd700f45a3c378122c2cffffffff020027b929000000001976a914b5112ed0ec3d2d814f4f3ee6ca95a8251799e6c188ac8155230c010000001976a914d2abb42f790262b91d279146fa85a37e342be92a88ac00000000"
    }, 
    {
      "txid": "dcee2275993ab961bbb1a40ea2ef14ba27eb0f7cf2591471c2e133aba27ca0b2",
      "hash": "dcee2275993ab961bbb1a40ea2ef14ba27eb0f7cf2591471c2e133aba27ca0b2",
      "version": 1,
      "size": 335,
      "vsize": 335,
      "locktime": 0,
      "vin": [
        {
          "txid": "a4d1d8c54d22982a586dd2663be111e5e3840de192c8381c33fa695c416c1d32",
          "vout": 1,
          "scriptSig": {
            "asm": "0 3045022100ed484215f4af96f5a8b2bb5d9810164d720263d6dbc2cb12b06830943c8d48870220031c745f85541b100ba801fe2737949805260527816e454e29dcdd4982a2c895[ALL] 30440220354bc73d0c8d1afc86eaf23c8069d22c6cac531d7a6ae492f7ed3596fc7bc71402206dce8a2b7290bd17b22cd00553a51de6d95af7132246409efa5579d0d047d93a[ALL] 522102f77ec37a042ba4e5e6aef7760398bf59b87ac4c5dee30a2fb8798e9630d4916e210276b93401dc495b28592f66411a7c9093b468f8678db51144fc6a36f550d94aa952ae",
            "hex": "00483045022100ed484215f4af96f5a8b2bb5d9810164d720263d6dbc2cb12b06830943c8d48870220031c745f85541b100ba801fe2737949805260527816e454e29dcdd4982a2c895014730440220354bc73d0c8d1afc86eaf23c8069d22c6cac531d7a6ae492f7ed3596fc7bc71402206dce8a2b7290bd17b22cd00553a51de6d95af7132246409efa5579d0d047d93a0147522102f77ec37a042ba4e5e6aef7760398bf59b87ac4c5dee30a2fb8798e9630d4916e210276b93401dc495b28592f66411a7c9093b468f8678db51144fc6a36f550d94aa952ae"
          },
          "sequence": 4294967295
        }
      ],
      "vout": [
        {
          "value": 0.07028900,
          "n": 0,
          "scriptPubKey": {
            "asm": "OP_DUP OP_HASH160 a5604ff4cc9ce883abc8c547e577a181a14e19cd OP_EQUALVERIFY OP_CHECKSIG",
            "hex": "76a914a5604ff4cc9ce883abc8c547e577a181a14e19cd88ac",
            "reqSigs": 1,
            "type": "pubkeyhash",
            "addresses": [
              "LaJP8mCu8SD8r9nv6XVz2Dj6tkGmeMibsH"
            ]
          }
        }, 
        {
          "value": 14.40290600,
          "n": 1,
          "scriptPubKey": {
            "asm": "OP_HASH160 75b77316f8d91ff71fb2819115d1b6b9e80ccee9 OP_EQUAL",
            "hex": "a91475b77316f8d91ff71fb2819115d1b6b9e80ccee987",
            "reqSigs": 1,
            "type": "scripthash",
            "addresses": [
              "MJdb4B3BMDrfpB1FpKsPYQ1tDHdkNa1oLB"
            ]
          }
        }
      ],
      "hex": "0100000001321d6c415c69fa331c38c892e10d84e3e511e13b66d26d582a98224dc5d8d1a401000000da00483045022100ed484215f4af96f5a8b2bb5d9810164d720263d6dbc2cb12b06830943c8d48870220031c745f85541b100ba801fe2737949805260527816e454e29dcdd4982a2c895014730440220354bc73d0c8d1afc86eaf23c8069d22c6cac531d7a6ae492f7ed3596fc7bc71402206dce8a2b7290bd17b22cd00553a51de6d95af7132246409efa5579d0d047d93a0147522102f77ec37a042ba4e5e6aef7760398bf59b87ac4c5dee30a2fb8798e9630d4916e210276b93401dc495b28592f66411a7c9093b468f8678db51144fc6a36f550d94aa952aeffffffff02a4406b00000000001976a914a5604ff4cc9ce883abc8c547e577a181a14e19cd88ac2817d9550000000017a91475b77316f8d91ff71fb2819115d1b6b9e80ccee98700000000"
    }, 
    {
      "txid": "d3e2eea20021fff8230dc66ed928a3ebeb14440771bf1c1063f64ef00d0dd93f",
      "hash": "d3e2eea20021fff8230dc66ed928a3ebeb14440771bf1c1063f64ef00d0dd93f",
      "version": 2,
      "size": 441,
      "vsize": 441,
      "locktime": 1360063,
      "vin": [
        {
          "txid": "45ddd0e88355ddea3fe9830b1ca3a198863f63890db810bc419c2a12d70c4396",
          "vout": 1,
          "scriptSig": {
            "asm": "3044022011e634a6ad8efc74c576890655ac420ef4526ea7df29b9fbf13e54ea452399c8022027f453504308e021af64204e3bcefe957a0b1151deba4e1aa3b1eb3c91f1e2f3[ALL] 03dc3ec566c4bbfd64a628580badb87345ba64b7db6ba4e9d4b3a7f1432561b067",
            "hex": "473044022011e634a6ad8efc74c576890655ac420ef4526ea7df29b9fbf13e54ea452399c8022027f453504308e021af64204e3bcefe957a0b1151deba4e1aa3b1eb3c91f1e2f3012103dc3ec566c4bbfd64a628580badb87345ba64b7db6ba4e9d4b3a7f1432561b067"
          },
          "sequence": 4294967294
        }, 
        {
          "txid": "1650989dc5484e0f572736fbb99a5ea65d1306677406469bbe9f9f1ab52eb015",
          "vout": 9,
          "scriptSig": {
            "asm": "30450221008ee3e0c3eced5318dfae83c2f6c2382663aff9f977e7d05c31876d734a949b8d022007953efc7c51a33ca7fbe543aa42d399ca63436afac4c61066ea2f069caadbbb[ALL] 03ce5c442a836622c99e44429778e39ae1a1dc8f0b649538a0161ea0adb1a3a9db",
            "hex": "4830450221008ee3e0c3eced5318dfae83c2f6c2382663aff9f977e7d05c31876d734a949b8d022007953efc7c51a33ca7fbe543aa42d399ca63436afac4c61066ea2f069caadbbb012103ce5c442a836622c99e44429778e39ae1a1dc8f0b649538a0161ea0adb1a3a9db"
          },
          "sequence": 4294967294
        }
      ],
      "vout": [
        {
          "value": 0.28649320,
          "n": 0,
          "scriptPubKey": {
            "asm": "OP_DUP OP_HASH160 07fb2fe49767dbb859fde0178a54cd530c34965f OP_EQUALVERIFY OP_CHECKSIG",
            "hex": "76a91407fb2fe49767dbb859fde0178a54cd530c34965f88ac",
            "reqSigs": 1,
            "type": "pubkeyhash",
            "addresses": [
              "LKx9uLgomZDS86PtAi9ENKqpao7MbRQLFX"
            ]
          }
        }, 
        {
          "value": 0.14047000,
          "n": 1,
          "scriptPubKey": {
            "asm": "OP_DUP OP_HASH160 c3263feced70db5d21097188a29cbf25a1d2897f OP_EQUALVERIFY OP_CHECKSIG",
            "hex": "76a914c3263feced70db5d21097188a29cbf25a1d2897f88ac",
            "reqSigs": 1,
            "type": "pubkeyhash",
            "addresses": [
              "Ld1orFpW2FRNm3obdWKwk3HqqVsYFbiky4"
            ]
          }
        }, 
        {
          "value": 0.13298000,
          "n": 2,
          "scriptPubKey": {
            "asm": "OP_DUP OP_HASH160 ceebd76992e7436942bd9a9fb60b7609cba6db1b OP_EQUALVERIFY OP_CHECKSIG",
            "hex": "76a914ceebd76992e7436942bd9a9fb60b7609cba6db1b88ac",
            "reqSigs": 1,
            "type": "pubkeyhash",
            "addresses": [
              "Le63zHHeKNiB4NMoXsvzjAc4jfeZbvMs28"
            ]
          }
        }, 
        {
          "value": 0.70000000,
          "n": 3,
          "scriptPubKey": {
            "asm": "OP_DUP OP_HASH160 2fc1c8f80c8b5a7a48f33afeb8bf925413e01e97 OP_EQUALVERIFY OP_CHECKSIG",
            "hex": "76a9142fc1c8f80c8b5a7a48f33afeb8bf925413e01e9788ac",
            "reqSigs": 1,
            "type": "pubkeyhash",
            "addresses": [
              "LPaUAecZ9r6JdpAwUs6FSanf3JAi6ZPGTk"
            ]
          }
        }
      ],
      "hex": "020000000296430cd7122a9c41bc10b80d89633f8698a1a31c0b83e93feadd5583e8d0dd45010000006a473044022011e634a6ad8efc74c576890655ac420ef4526ea7df29b9fbf13e54ea452399c8022027f453504308e021af64204e3bcefe957a0b1151deba4e1aa3b1eb3c91f1e2f3012103dc3ec566c4bbfd64a628580badb87345ba64b7db6ba4e9d4b3a7f1432561b067feffffff15b02eb51a9f9fbe9b4606746706135da65e9ab9fb3627570f4e48c59d985016090000006b4830450221008ee3e0c3eced5318dfae83c2f6c2382663aff9f977e7d05c31876d734a949b8d022007953efc7c51a33ca7fbe543aa42d399ca63436afac4c61066ea2f069caadbbb012103ce5c442a836622c99e44429778e39ae1a1dc8f0b649538a0161ea0adb1a3a9dbfeffffff046827b501000000001976a91407fb2fe49767dbb859fde0178a54cd530c34965f88ac1857d600000000001976a914c3263feced70db5d21097188a29cbf25a1d2897f88ac50e9ca00000000001976a914ceebd76992e7436942bd9a9fb60b7609cba6db1b88ac801d2c04000000001976a9142fc1c8f80c8b5a7a48f33afeb8bf925413e01e9788acbfc01400"
    }, 
    {
      "txid": "f2b25e44b2c2281d9bd281915ff883f953401c197f5b43751afc97d3d3fbd457",
      "hash": "f2b25e44b2c2281d9bd281915ff883f953401c197f5b43751afc97d3d3fbd457",
      "version": 1,
      "size": 224,
      "vsize": 224,
      "locktime": 0,
      "vin": [
        {
          "txid": "d3cd33a394e18652438f9f6bc776c27a1383e3bd3f80dc1998cfb6b10d676295",
          "vout": 0,
          "scriptSig": {
            "asm": "304302203450011ccf8c0065236c233b38d124e65bb60dedb7f4270af0f07f23c71fa8e5021f6b9ae365573b2049337bff7ba38fccb21e13f733254f5ff6e3552547f1e6ab[ALL] 039c5fc6158aaf985e6213579d5133b4f0c6374e32c7778f075fc8fcfd5538f218",
            "hex": "46304302203450011ccf8c0065236c233b38d124e65bb60dedb7f4270af0f07f23c71fa8e5021f6b9ae365573b2049337bff7ba38fccb21e13f733254f5ff6e3552547f1e6ab0121039c5fc6158aaf985e6213579d5133b4f0c6374e32c7778f075fc8fcfd5538f218"
          },
          "sequence": 4294967295
        }
      ],
      "vout": [
        {
          "value": 27.09412817,
          "n": 0,
          "scriptPubKey": {
            "asm": "OP_DUP OP_HASH160 747f8432b8fdfc508cfe8e89eef1b64a4b3e1714 OP_EQUALVERIFY OP_CHECKSIG",
            "hex": "76a914747f8432b8fdfc508cfe8e89eef1b64a4b3e171488ac",
            "reqSigs": 1,
            "type": "pubkeyhash",
            "addresses": [
              "LVqwQTdvUCDEA4xxCwNudfitDS7oEwf7kr"
            ]
          }
        }, 
        {
          "value": 1.99977400,
          "n": 1,
          "scriptPubKey": {
            "asm": "OP_DUP OP_HASH160 c04cd7c03367382f40b0b9773d097443bb735896 OP_EQUALVERIFY OP_CHECKSIG",
            "hex": "76a914c04cd7c03367382f40b0b9773d097443bb73589688ac",
            "reqSigs": 1,
            "type": "pubkeyhash",
            "addresses": [
              "Lckk4B49b4RjSwmXkngGKtdRWGEgGpeTPT"
            ]
          }
        }
      ],
      "hex": "01000000019562670db1b6cf9819dc803fbde383137ac276c76b9f8f435286e194a333cdd3000000006946304302203450011ccf8c0065236c233b38d124e65bb60dedb7f4270af0f07f23c71fa8e5021f6b9ae365573b2049337bff7ba38fccb21e13f733254f5ff6e3552547f1e6ab0121039c5fc6158aaf985e6213579d5133b4f0c6374e32c7778f075fc8fcfd5538f218ffffffff02d15b7ea1000000001976a914747f8432b8fdfc508cfe8e89eef1b64a4b3e171488acb869eb0b000000001976a914c04cd7c03367382f40b0b9773d097443bb73589688ac00000000"
    }, 
    {
      "txid": "1a070d80f3194f06f10b4922bca6c1f2f2dee54cdc2d04460b38caf7a4150b00",
      "hash": "1a070d80f3194f06f10b4922bca6c1f2f2dee54cdc2d04460b38caf7a4150b00",
      "version": 2,
      "size": 372,
      "vsize": 372,
      "locktime": 1360063,
      "vin": [
        {
          "txid": "42fc484bc519b471048cf85c9a9e68376220ec37212af438a354b7a1c5d2c64e",
          "vout": 1,
          "scriptSig": {
            "asm": "304402207434894e870720e1874566fc6b8f9c89f24dff8cd6d5efc532be7231eb54ede5022051b5e6de8c059461b7f5c0ceea0dce99a175dea71f7ab99fab3b92ec7cfb6c6e[ALL] 02ab956cca53ba9d31fd085f94df087aad7203450d2a79b57d618efbfe0f2d5f24",
            "hex": "47304402207434894e870720e1874566fc6b8f9c89f24dff8cd6d5efc532be7231eb54ede5022051b5e6de8c059461b7f5c0ceea0dce99a175dea71f7ab99fab3b92ec7cfb6c6e012102ab956cca53ba9d31fd085f94df087aad7203450d2a79b57d618efbfe0f2d5f24"
          },
          "sequence": 4294967294
        }, 
        {
          "txid": "6fd14c848a03c86818461357b0a9283058b08f2e7eda19a6cdca42ebdf7a8790",
          "vout": 1,
          "scriptSig": {
            "asm": "3044022014adf04e3e4615b792b0dd32845faf83f2de9a3c06cec8b7c1d8dac22de6dfd20220141fe654dd7f19ec85db290ce15fa80d87d6d8a16b153e19ffd6baaa99e798ef[ALL] 02d3ee4d376cceba1038f03dcbc4655ba55c992da899319f29ea04db29f97219a2",
            "hex": "473044022014adf04e3e4615b792b0dd32845faf83f2de9a3c06cec8b7c1d8dac22de6dfd20220141fe654dd7f19ec85db290ce15fa80d87d6d8a16b153e19ffd6baaa99e798ef012102d3ee4d376cceba1038f03dcbc4655ba55c992da899319f29ea04db29f97219a2"
          },
          "sequence": 4294967294
        }
      ],
      "vout": [
        {
          "value": 0.20219136,
          "n": 0,
          "scriptPubKey": {
            "asm": "OP_DUP OP_HASH160 b9f9012fd594ea4618d067d07ab20023305d6bb4 OP_EQUALVERIFY OP_CHECKSIG",
            "hex": "76a914b9f9012fd594ea4618d067d07ab20023305d6bb488ac",
            "reqSigs": 1,
            "type": "pubkeyhash",
            "addresses": [
              "LcBHZr5o5hMwBLW3uf8N4LB5BfPqTwUJTk"
            ]
          }
        }, 
        {
          "value": 3.00000000,
          "n": 1,
          "scriptPubKey": {
            "asm": "OP_DUP OP_HASH160 d0c90e58088d2b3b8c19ffadfa8d7f2cf1f132a3 OP_EQUALVERIFY OP_CHECKSIG",
            "hex": "76a914d0c90e58088d2b3b8c19ffadfa8d7f2cf1f132a388ac",
            "reqSigs": 1,
            "type": "pubkeyhash",
            "addresses": [
              "LeFufjPZukN9A6iTkZPfQ8QBTYi8Y1YBUV"
            ]
          }
        }
      ],
      "hex": "02000000024ec6d2c5a1b754a338f42a2137ec206237689e9a5cf88c0471b419c54b48fc42010000006a47304402207434894e870720e1874566fc6b8f9c89f24dff8cd6d5efc532be7231eb54ede5022051b5e6de8c059461b7f5c0ceea0dce99a175dea71f7ab99fab3b92ec7cfb6c6e012102ab956cca53ba9d31fd085f94df087aad7203450d2a79b57d618efbfe0f2d5f24feffffff90877adfeb42cacda619da7e2e8fb0583028a9b05713461868c8038a844cd16f010000006a473044022014adf04e3e4615b792b0dd32845faf83f2de9a3c06cec8b7c1d8dac22de6dfd20220141fe654dd7f19ec85db290ce15fa80d87d6d8a16b153e19ffd6baaa99e798ef012102d3ee4d376cceba1038f03dcbc4655ba55c992da899319f29ea04db29f97219a2feffffff0200853401000000001976a914b9f9012fd594ea4618d067d07ab20023305d6bb488ac00a3e111000000001976a914d0c90e58088d2b3b8c19ffadfa8d7f2cf1f132a388acbfc01400"
    }, 
    {
      "txid": "e0b2938f2fe983dfbb09369258e6b537b63d60300600ad292490a2176ed0d9bc",
      "hash": "e0b2938f2fe983dfbb09369258e6b537b63d60300600ad292490a2176ed0d9bc",
      "version": 1,
      "size": 225,
      "vsize": 225,
      "locktime": 0,
      "vin": [
        {
          "txid": "f0ab9f1a50fc4edf2b6a47a4b5c2fd76255eb73ad5638c019aadca3dfe75e15e",
          "vout": 1,
          "scriptSig": {
            "asm": "3044022027b286f42f6d2ec3b71814f731bf7de4c160e3ec3759ca59ecc9eb7ec9bcfd9202202b5e4f1288bb190b539baab07008ac65d0239fbdb78e68bdc20d1599d6719d46[ALL] 027b82ce24a620e2cb714bfc472a26aeff0f46b9a59892a97c7fb2e067f2077496",
            "hex": "473044022027b286f42f6d2ec3b71814f731bf7de4c160e3ec3759ca59ecc9eb7ec9bcfd9202202b5e4f1288bb190b539baab07008ac65d0239fbdb78e68bdc20d1599d6719d460121027b82ce24a620e2cb714bfc472a26aeff0f46b9a59892a97c7fb2e067f2077496"
          },
          "sequence": 4294967295
        }
      ],
      "vout": [
        {
          "value": 0.00100000,
          "n": 0,
          "scriptPubKey": {
            "asm": "OP_DUP OP_HASH160 7a5b24313e31a174a22df97555ea138ed0470cdb OP_EQUALVERIFY OP_CHECKSIG",
            "hex": "76a9147a5b24313e31a174a22df97555ea138ed0470cdb88ac",
            "reqSigs": 1,
            "type": "pubkeyhash",
            "addresses": [
              "LWNutEJZMh5DsaDx46hPYM6Ab8cFQbd4VQ"
            ]
          }
        }, 
        {
          "value": 0.00057236,
          "n": 1,
          "scriptPubKey": {
            "asm": "OP_DUP OP_HASH160 0bead323f6730764dded7c3f7f3a49b574bb1611 OP_EQUALVERIFY OP_CHECKSIG",
            "hex": "76a9140bead323f6730764dded7c3f7f3a49b574bb161188ac",
            "reqSigs": 1,
            "type": "pubkeyhash",
            "addresses": [
              "LLJy1EXXqYQp96MMXpBTP1pYveDWPCv8if"
            ]
          }
        }
      ],
      "hex": "01000000015ee175fe3dcaad9a018c63d53ab75e2576fdc2b5a4476a2bdf4efc501a9fabf0010000006a473044022027b286f42f6d2ec3b71814f731bf7de4c160e3ec3759ca59ecc9eb7ec9bcfd9202202b5e4f1288bb190b539baab07008ac65d0239fbdb78e68bdc20d1599d6719d460121027b82ce24a620e2cb714bfc472a26aeff0f46b9a59892a97c7fb2e067f2077496ffffffff02a0860100000000001976a9147a5b24313e31a174a22df97555ea138ed0470cdb88ac94df0000000000001976a9140bead323f6730764dded7c3f7f3a49b574bb161188ac00000000"
    }, 
    {
      "txid": "949016e68e4f7807332f37f18f1f7fb9c445b0e950affe785fedb50eb50c70fa",
      "hash": "949016e68e4f7807332f37f18f1f7fb9c445b0e950affe785fedb50eb50c70fa",
      "version": 2,
      "size": 225,
      "vsize": 225,
      "locktime": 1360063,
      "vin": [
        {
          "txid": "e2900ec90de4dc19648c6c2a7860e5a337141a9e028c2e78df6c605df3c794e4",
          "vout": 0,
          "scriptSig": {
            "asm": "3044022041491252b968f92f545ea87699264e2abaf81a5357c6a3a52195a9acd8f753d1022074d27e50b7704423821fae596601e44ae83f54d4fcdcd9d36a004c2bf75cb0f7[ALL] 029a1af0537826e9101561f80c4f25ff9be702c36ec710a20003b327ebabc31b23",
            "hex": "473044022041491252b968f92f545ea87699264e2abaf81a5357c6a3a52195a9acd8f753d1022074d27e50b7704423821fae596601e44ae83f54d4fcdcd9d36a004c2bf75cb0f70121029a1af0537826e9101561f80c4f25ff9be702c36ec710a20003b327ebabc31b23"
          },
          "sequence": 4294967294
        }
      ],
      "vout": [
        {
          "value": 0.40054800,
          "n": 0,
          "scriptPubKey": {
            "asm": "OP_DUP OP_HASH160 dcc3a383779161f24c8bdaf9945522b83f070205 OP_EQUALVERIFY OP_CHECKSIG",
            "hex": "76a914dcc3a383779161f24c8bdaf9945522b83f07020588ac",
            "reqSigs": 1,
            "type": "pubkeyhash",
            "addresses": [
              "LfMFHdeM6t4sohNNyEmzgPnfYehRwqw9kQ"
            ]
          }
        }, 
        {
          "value": 0.99900000,
          "n": 1,
          "scriptPubKey": {
            "asm": "OP_DUP OP_HASH160 f8766f964453d838313ea7ba68a88640f6deded3 OP_EQUALVERIFY OP_CHECKSIG",
            "hex": "76a914f8766f964453d838313ea7ba68a88640f6deded388ac",
            "reqSigs": 1,
            "type": "pubkeyhash",
            "addresses": [
              "LhshirdwjWDD7ZAxYKXsUjuEC9ULzdttuQ"
            ]
          }
        }
      ],
      "hex": "0200000001e494c7f35d606cdf782e8c029e1a1437a3e560782a6c8c6419dce40dc90e90e2000000006a473044022041491252b968f92f545ea87699264e2abaf81a5357c6a3a52195a9acd8f753d1022074d27e50b7704423821fae596601e44ae83f54d4fcdcd9d36a004c2bf75cb0f70121029a1af0537826e9101561f80c4f25ff9be702c36ec710a20003b327ebabc31b23feffffff0210306302000000001976a914dcc3a383779161f24c8bdaf9945522b83f07020588ac605af405000000001976a914f8766f964453d838313ea7ba68a88640f6deded388acbfc01400"
    }, 
    {
      "txid": "0c1f694934efafabab4db0d0cfa0bb2a764ca6fb5dedbc083ca9569710550008",
      "hash": "0c1f694934efafabab4db0d0cfa0bb2a764ca6fb5dedbc083ca9569710550008",
      "version": 1,
      "size": 226,
      "vsize": 226,
      "locktime": 0,
      "vin": [
        {
          "txid": "a1c407cbc2023d0afb5fe692c39ff7323763a5e8f05582c372aa254afb0639db",
          "vout": 0,
          "scriptSig": {
            "asm": "3045022100bd93465235294c481ae79b63de110217cdf34b7fa52033ca5f5b71d7e698aa0d02205b0e0329a8e2b74d18e6823177a20dc60eb02051d65137952ae51c842e74f590[ALL] 0352c2b56e5df607df0af0a1e36e8591c1a7273c2937d89f88706c5b25ed01cb08",
            "hex": "483045022100bd93465235294c481ae79b63de110217cdf34b7fa52033ca5f5b71d7e698aa0d02205b0e0329a8e2b74d18e6823177a20dc60eb02051d65137952ae51c842e74f59001210352c2b56e5df607df0af0a1e36e8591c1a7273c2937d89f88706c5b25ed01cb08"
          },
          "sequence": 4294967295
        }
      ],
      "vout": [
        {
          "value": 0.00139044,
          "n": 0,
          "scriptPubKey": {
            "asm": "OP_DUP OP_HASH160 e418b7bb50b89cb6adc6d2edae2b9174753b8718 OP_EQUALVERIFY OP_CHECKSIG",
            "hex": "76a914e418b7bb50b89cb6adc6d2edae2b9174753b871888ac",
            "reqSigs": 1,
            "type": "pubkeyhash",
            "addresses": [
              "Lg21wNCnYd9BFQdGntdC2cagav3gutDuFw"
            ]
          }
        }, 
        {
          "value": 0.18786000,
          "n": 1,
          "scriptPubKey": {
            "asm": "OP_DUP OP_HASH160 c1adab9738f3c4e2c534d2c824a0caeb06e47be7 OP_EQUALVERIFY OP_CHECKSIG",
            "hex": "76a914c1adab9738f3c4e2c534d2c824a0caeb06e47be788ac",
            "reqSigs": 1,
            "type": "pubkeyhash",
            "addresses": [
              "Lct2j4MTSghxQqb5hedVXNmnoYH6b2KAE2"
            ]
          }
        }
      ],
      "hex": "0100000001db3906fb4a25aa72c38255f0e8a5633732f79fc392e65ffb0a3d02c2cb07c4a1000000006b483045022100bd93465235294c481ae79b63de110217cdf34b7fa52033ca5f5b71d7e698aa0d02205b0e0329a8e2b74d18e6823177a20dc60eb02051d65137952ae51c842e74f59001210352c2b56e5df607df0af0a1e36e8591c1a7273c2937d89f88706c5b25ed01cb08ffffffff02241f0200000000001976a914e418b7bb50b89cb6adc6d2edae2b9174753b871888acd0a61e01000000001976a914c1adab9738f3c4e2c534d2c824a0caeb06e47be788ac00000000"
    }, 
    {
      "txid": "4cbb9292113e909705dc7e1f1d4751a9a55bb986f9b87eb96d324bb182271f23",
      "hash": "4cbb9292113e909705dc7e1f1d4751a9a55bb986f9b87eb96d324bb182271f23",
      "version": 1,
      "size": 226,
      "vsize": 226,
      "locktime": 0,
      "vin": [
        {
          "txid": "5a5d21b2386fc873dd12a332bbcf5172ab989347c3e7dcfe0c31c21812e69275",
          "vout": 1,
          "scriptSig": {
            "asm": "3045022100bc18f75c2fe5436962da8926772d6206f69f917867744c755433cb87a1fb848602204514c1073532900c0a02ee0ea5758a88b9ca2f233aee84e80f3d372a67b5b3d8[ALL] 02cf00b7cb67c5e83a3ba94272d09e818529703bb05973caed46cd7230dc55168a",
            "hex": "483045022100bc18f75c2fe5436962da8926772d6206f69f917867744c755433cb87a1fb848602204514c1073532900c0a02ee0ea5758a88b9ca2f233aee84e80f3d372a67b5b3d8012102cf00b7cb67c5e83a3ba94272d09e818529703bb05973caed46cd7230dc55168a"
          },
          "sequence": 4294967295
        }
      ],
      "vout": [
        {
          "value": 0.00635851,
          "n": 0,
          "scriptPubKey": {
            "asm": "OP_DUP OP_HASH160 d1a181b354fd01eeeaf7ae8579cb0929346d2721 OP_EQUALVERIFY OP_CHECKSIG",
            "hex": "76a914d1a181b354fd01eeeaf7ae8579cb0929346d272188ac",
            "reqSigs": 1,
            "type": "pubkeyhash",
            "addresses": [
              "LeLNxz1rpjGKPGNtkVyc8RfhMgSMin8GQK"
            ]
          }
        }, 
        {
          "value": 0.15564155,
          "n": 1,
          "scriptPubKey": {
            "asm": "OP_DUP OP_HASH160 9506c10a07a3135a220922eb868a61489a8959f0 OP_EQUALVERIFY OP_CHECKSIG",
            "hex": "76a9149506c10a07a3135a220922eb868a61489a8959f088ac",
            "reqSigs": 1,
            "type": "pubkeyhash",
            "addresses": [
              "LYow35MxbAnyecZj5VxNr8ZZMM2cbbxvGk"
            ]
          }
        }
      ],
      "hex": "01000000017592e61218c2310cfedce7c3479398ab7251cfbb32a312dd73c86f38b2215d5a010000006b483045022100bc18f75c2fe5436962da8926772d6206f69f917867744c755433cb87a1fb848602204514c1073532900c0a02ee0ea5758a88b9ca2f233aee84e80f3d372a67b5b3d8012102cf00b7cb67c5e83a3ba94272d09e818529703bb05973caed46cd7230dc55168affffffff02cbb30900000000001976a914d1a181b354fd01eeeaf7ae8579cb0929346d272188ac7b7ded00000000001976a9149506c10a07a3135a220922eb868a61489a8959f088ac00000000"
    }, 
    {
      "txid": "698b9acadab07994b7e1f9fdd7a08bc4bd7e9959bd68fac9bb91f63197844a7c",
      "hash": "698b9acadab07994b7e1f9fdd7a08bc4bd7e9959bd68fac9bb91f63197844a7c",
      "version": 2,
      "size": 226,
      "vsize": 226,
      "locktime": 1360063,
      "vin": [
        {
          "txid": "61f5355e2fb95c4ec908f10de3c8619e910334622ad2c0adbb1053a3d2b34072",
          "vout": 1,
          "scriptSig": {
            "asm": "3045022100c6f556613d9efbf6520fe1496859caea754fd19251ff934224ff511ec33e645202204dd9c8c8cab122beac178560480f8fc5d4701eeda4a1b9e657b7549358aaaf66[ALL] 03235bf7a71f3fcfb01da5c2d7769a5da5bfc35fd3b4e0ba4e565f501ac42e06be",
            "hex": "483045022100c6f556613d9efbf6520fe1496859caea754fd19251ff934224ff511ec33e645202204dd9c8c8cab122beac178560480f8fc5d4701eeda4a1b9e657b7549358aaaf66012103235bf7a71f3fcfb01da5c2d7769a5da5bfc35fd3b4e0ba4e565f501ac42e06be"
          },
          "sequence": 4294967294
        }
      ],
      "vout": [
        {
          "value": 0.02347400,
          "n": 0,
          "scriptPubKey": {
            "asm": "OP_DUP OP_HASH160 6d6466652dd530c58053f7a0ba2f803e9e4c6ffe OP_EQUALVERIFY OP_CHECKSIG",
            "hex": "76a9146d6466652dd530c58053f7a0ba2f803e9e4c6ffe88ac",
            "reqSigs": 1,
            "type": "pubkeyhash",
            "addresses": [
              "LVCNC31n51cXMXzGZCz7RsFMXpZzPQmoni"
            ]
          }
        }, 
        {
          "value": 0.12930000,
          "n": 1,
          "scriptPubKey": {
            "asm": "OP_DUP OP_HASH160 4c78773786f5e3cdf4eb20a62fce79fdca0de06b OP_EQUALVERIFY OP_CHECKSIG",
            "hex": "76a9144c78773786f5e3cdf4eb20a62fce79fdca0de06b88ac",
            "reqSigs": 1,
            "type": "pubkeyhash",
            "addresses": [
              "LSCHvtsHcTZ97ZqJ1qoujQrQM76AGh3yk3"
            ]
          }
        }
      ],
      "hex": "02000000017240b3d2a35310bbadc0d22a623403919e61c8e30df108c94e5cb92f5e35f561010000006b483045022100c6f556613d9efbf6520fe1496859caea754fd19251ff934224ff511ec33e645202204dd9c8c8cab122beac178560480f8fc5d4701eeda4a1b9e657b7549358aaaf66012103235bf7a71f3fcfb01da5c2d7769a5da5bfc35fd3b4e0ba4e565f501ac42e06befeffffff0288d12300000000001976a9146d6466652dd530c58053f7a0ba2f803e9e4c6ffe88acd04bc500000000001976a9144c78773786f5e3cdf4eb20a62fce79fdca0de06b88acbfc01400"
    }, 
    {
      "txid": "61b0b52d3880f3b8ab532065b0abddff8c440769b92e55f085903e0ceef664e0",
      "hash": "61b0b52d3880f3b8ab532065b0abddff8c440769b92e55f085903e0ceef664e0",
      "version": 1,
      "size": 226,
      "vsize": 226,
      "locktime": 0,
      "vin": [
        {
          "txid": "789a73b33b43a16e086ea5ae430302a0514e399c4f03fb81d89560edfb184415",
          "vout": 0,
          "scriptSig": {
            "asm": "3045022100e50274d41c9ee5822bbf55eb09b891e6a7e6e958d7166543cd76e349d357543402206de177b3ed83b6ee707b7bb85ff5317a34d5aa82f5252bff20c1215bdcdcf72e[ALL] 027440f333ad7d17048270b242ebc130ee1f84982954c9c0594e150ad8c541209f",
            "hex": "483045022100e50274d41c9ee5822bbf55eb09b891e6a7e6e958d7166543cd76e349d357543402206de177b3ed83b6ee707b7bb85ff5317a34d5aa82f5252bff20c1215bdcdcf72e0121027440f333ad7d17048270b242ebc130ee1f84982954c9c0594e150ad8c541209f"
          },
          "sequence": 4294967295
        }
      ],
      "vout": [
        {
          "value": 27.93934345,
          "n": 0,
          "scriptPubKey": {
            "asm": "OP_DUP OP_HASH160 1c67fa0f772ba85b216c109470fe00cc571c5402 OP_EQUALVERIFY OP_CHECKSIG",
            "hex": "76a9141c67fa0f772ba85b216c109470fe00cc571c540288ac",
            "reqSigs": 1,
            "type": "pubkeyhash",
            "addresses": [
              "LMp9k23kgpYQM6hEweshuQNwrwv7ebMepY"
            ]
          }
        }, 
        {
          "value": 0.99977400,
          "n": 1,
          "scriptPubKey": {
            "asm": "OP_DUP OP_HASH160 2d827293e5af08981a17dcbe4f4f2c059f93cc6a OP_EQUALVERIFY OP_CHECKSIG",
            "hex": "76a9142d827293e5af08981a17dcbe4f4f2c059f93cc6a88ac",
            "reqSigs": 1,
            "type": "pubkeyhash",
            "addresses": [
              "LPNawW2ve8Jw7RQQJEZhmuLtUCETQW1QcW"
            ]
          }
        }
      ],
      "hex": "0100000001154418fbed6095d881fb034f9c394e51a0020343aea56e086ea1433bb3739a78000000006b483045022100e50274d41c9ee5822bbf55eb09b891e6a7e6e958d7166543cd76e349d357543402206de177b3ed83b6ee707b7bb85ff5317a34d5aa82f5252bff20c1215bdcdcf72e0121027440f333ad7d17048270b242ebc130ee1f84982954c9c0594e150ad8c541209fffffffff02090e88a6000000001976a9141c67fa0f772ba85b216c109470fe00cc571c540288acb888f505000000001976a9142d827293e5af08981a17dcbe4f4f2c059f93cc6a88ac00000000"
    }
  ],
  "time": 1517369515,
  "mediantime": 1517369000,
  "nonce": 808589698,
  "bits": "1a042eae",
  "difficulty": 4011378.762614286,
  "chainwork": "000000000000000000000000000000000000000000000034972cc7ead7c48184",
  "previousblockhash": "bf938a4b396d75951427c583bf2740cf954f02c06f60361a95cd3d55675fb919",
  "nextblockhash": "8257c953fd0af345378c9bfd785a6ffd87878e6d52a113bd3318675956a3c96a"
}
