{
  "hash": "2cf79dba7d9bc89f73b182f8425aec2aff2bb403278fff210d46a4b0d37ee080",
  "confirmations": 437,
  "strippedsize": 266,
  "size": 266,
  "weight": 1064,
  "height": 1360557,
  "version": 536870912,
  "versionHex": "20000000",
  "merkleroot": "62027ce830a1a3dd94593feeb9750f305f1cdaad659a3fd7da335fce972c5667",
  "tx": [
    {
      "txid": "62027ce830a1a3dd94593feeb9750f305f1cdaad659a3fd7da335fce972c5667",
      "hash": "62027ce830a1a3dd94593feeb9750f305f1cdaad659a3fd7da335fce972c5667",
      "version": 1,
      "size": 185,
      "vsize": 185,
      "locktime": 953348880,
      "vin": [
        {
          "coinbase": "03adc2142cfabe6d6dba784c07da827cf683c85a7eeae7b77ddae3266a9fc52e921a0d7bb11c38158908000000f09f909f134d696e65642062792068616e6c61626a79683000000000000000000000000000000000000000000000000000000000000000",
          "sequence": 268
        }
      ],
      "vout": [
        {
          "value": 25.00000000,
          "n": 0,
          "scriptPubKey": {
            "asm": "OP_DUP OP_HASH160 aa3750aa18b8a0f3f0590731e1fab934856680cf OP_EQUALVERIFY OP_CHECKSIG",
            "hex": "76a914aa3750aa18b8a0f3f0590731e1fab934856680cf88ac",
            "reqSigs": 1,
            "type": "pubkeyhash",
            "addresses": [
              "LajyQBeZaBA1NkZDeY8YT5RYYVRkXMvb2T"
            ]
          }
        }
      ],
      "hex": "01000000010000000000000000000000000000000000000000000000000000000000000000ffffffff6403adc2142cfabe6d6dba784c07da827cf683c85a7eeae7b77ddae3266a9fc52e921a0d7bb11c38158908000000f09f909f134d696e65642062792068616e6c61626a796830000000000000000000000000000000000000000000000000000000000000000c0100000100f90295000000001976a914aa3750aa18b8a0f3f0590731e1fab934856680cf88ac10f3d238"
    }
  ],
  "time": 1517448995,
  "mediantime": 1517448193,
  "nonce": 14356129,
  "bits": "1a042eae",
  "difficulty": 4011378.762614286,
  "chainwork": "0000000000000000000000000000000000000000000000350ccff61d3ac2475c",
  "previousblockhash": "bd3d6ab8a9eaec05ff0cdb5ac1dbcb489aef4f0d98061290eaa6e0f48f10493c",
  "nextblockhash": "c680044b7b2e64013bb6439b2e064ab8dad3d8da4b24940c695755ca56f69fcc"
}
