{
  "hash": "2d2f98493e79b99f5d545cd55fca0f5462ea33071652c2b287f1df835935a55b",
  "confirmations": 1212,
  "strippedsize": 266,
  "size": 266,
  "weight": 1064,
  "height": 1359782,
  "version": 536870912,
  "versionHex": "20000000",
  "merkleroot": "8cd14946468e0b8a898d4be257e9da7fa9e6e1c25974c38d0786a56c2833abac",
  "tx": [
    {
      "txid": "8cd14946468e0b8a898d4be257e9da7fa9e6e1c25974c38d0786a56c2833abac",
      "hash": "8cd14946468e0b8a898d4be257e9da7fa9e6e1c25974c38d0786a56c2833abac",
      "version": 1,
      "size": 185,
      "vsize": 185,
      "locktime": 925293635,
      "vin": [
        {
          "coinbase": "03a6bf142cfabe6d6d71655aab01b042f1d9eacbd8bfd3b2329acbce142c7a426d72d22185e400b3d208000000f09f909f184d696e6564206279207a68616e67796f6e677368656e67310000000000000000000000000000000000000000000000000000",
          "sequence": 6
        }
      ],
      "vout": [
        {
          "value": 25.00000000,
          "n": 0,
          "scriptPubKey": {
            "asm": "OP_DUP OP_HASH160 aa3750aa18b8a0f3f0590731e1fab934856680cf OP_EQUALVERIFY OP_CHECKSIG",
            "hex": "76a914aa3750aa18b8a0f3f0590731e1fab934856680cf88ac",
            "reqSigs": 1,
            "type": "pubkeyhash",
            "addresses": [
              "LajyQBeZaBA1NkZDeY8YT5RYYVRkXMvb2T"
            ]
          }
        }
      ],
      "hex": "01000000010000000000000000000000000000000000000000000000000000000000000000ffffffff6403a6bf142cfabe6d6d71655aab01b042f1d9eacbd8bfd3b2329acbce142c7a426d72d22185e400b3d208000000f09f909f184d696e6564206279207a68616e67796f6e677368656e67310000000000000000000000000000000000000000000000000000060000000100f90295000000001976a914aa3750aa18b8a0f3f0590731e1fab934856680cf88ac43dc2637"
    }
  ],
  "time": 1517331528,
  "mediantime": 1517330603,
  "nonce": 4183736,
  "bits": "1a042eae",
  "difficulty": 4011378.762614286,
  "chainwork": "00000000000000000000000000000000000000000000003453826e62ac5b1ece",
  "previousblockhash": "65737e79b5eb2ada2a6737f20b9da638c0c8c5831ea14ad8a7e167e25c7e8feb",
  "nextblockhash": "11c3db32591fb87ad29d3ac2e266aaa6782403a51e6e8b8182e60ecfbb304684"
}
