{
  "hash": "2d6b7d0fd3130623b58969239424dc4ee484356726df5e3e2fc4c5571baf3fd4",
  "confirmations": 1458,
  "strippedsize": 253,
  "size": 253,
  "weight": 1012,
  "height": 1359536,
  "version": 536870912,
  "versionHex": "20000000",
  "merkleroot": "2a0ebda7fcf0e99526f08e9a55b2d532ad9defa98ebf7e00b16d1e4715151931",
  "tx": [
    {
      "txid": "2a0ebda7fcf0e99526f08e9a55b2d532ad9defa98ebf7e00b16d1e4715151931",
      "hash": "2a0ebda7fcf0e99526f08e9a55b2d532ad9defa98ebf7e00b16d1e4715151931",
      "version": 1,
      "size": 172,
      "vsize": 172,
      "locktime": 0,
      "vin": [
        {
          "coinbase": "03b0be141a4d696e656420627920416e74506f6f6c20626a3242205a701a21fabe6d6d24cdb0198c22b3b437c64cafd6c4989093ad80f13e56bf474bec1ad2f1d531620400000000000000df0800000000000002000000",
          "sequence": 4294967295
        }
      ],
      "vout": [
        {
          "value": 25.00000000,
          "n": 0,
          "scriptPubKey": {
            "asm": "OP_DUP OP_HASH160 0ff3ccc5e8be88afe24b5d634e5852d474dbdff1 OP_EQUALVERIFY OP_CHECKSIG",
            "hex": "76a9140ff3ccc5e8be88afe24b5d634e5852d474dbdff188ac",
            "reqSigs": 1,
            "type": "pubkeyhash",
            "addresses": [
              "LLgJTbzZMsRTCUF1NtvvL9SR1a4pVieW89"
            ]
          }
        }
      ],
      "hex": "01000000010000000000000000000000000000000000000000000000000000000000000000ffffffff5703b0be141a4d696e656420627920416e74506f6f6c20626a3242205a701a21fabe6d6d24cdb0198c22b3b437c64cafd6c4989093ad80f13e56bf474bec1ad2f1d531620400000000000000df0800000000000002000000ffffffff0100f90295000000001976a9140ff3ccc5e8be88afe24b5d634e5852d474dbdff188ac00000000"
    }
  ],
  "time": 1517296161,
  "mediantime": 1517295587,
  "nonce": 3172728971,
  "bits": "1a042eae",
  "difficulty": 4011378.762614286,
  "chainwork": "00000000000000000000000000000000000000000000003418b0d7497adc3be2",
  "previousblockhash": "506f1b2d11c392b86bfd156d89511441718c3a440278c211e3d1846565f35a48",
  "nextblockhash": "e97255bfba2f28009176be8f56848cc77f3901b81b74e072ea88942283707a2b"
}
