{
  "hash": "2dcad2cafc69c6ad23bb735db982792bf8333f6c76f62f8a52217e39a8047a8b",
  "confirmations": 1432,
  "strippedsize": 253,
  "size": 253,
  "weight": 1012,
  "height": 1359562,
  "version": 536870912,
  "versionHex": "20000000",
  "merkleroot": "5d1f70a5056836df1637191e45a16c17c5bbb9e7a79e5156977197c14f14d8e3",
  "tx": [
    {
      "txid": "5d1f70a5056836df1637191e45a16c17c5bbb9e7a79e5156977197c14f14d8e3",
      "hash": "5d1f70a5056836df1637191e45a16c17c5bbb9e7a79e5156977197c14f14d8e3",
      "version": 1,
      "size": 172,
      "vsize": 172,
      "locktime": 0,
      "vin": [
        {
          "coinbase": "03cabe141a4d696e656420627920416e74506f6f6c20626a3242205a7026cffabe6d6d99c3e2905ba2bd98e2c1dfa2366d4c054d9136204b813dfe0cd5fa1347b701100400000000000000a2310000000000002b000000",
          "sequence": 4294967295
        }
      ],
      "vout": [
        {
          "value": 25.00000000,
          "n": 0,
          "scriptPubKey": {
            "asm": "OP_DUP OP_HASH160 0ff3ccc5e8be88afe24b5d634e5852d474dbdff1 OP_EQUALVERIFY OP_CHECKSIG",
            "hex": "76a9140ff3ccc5e8be88afe24b5d634e5852d474dbdff188ac",
            "reqSigs": 1,
            "type": "pubkeyhash",
            "addresses": [
              "LLgJTbzZMsRTCUF1NtvvL9SR1a4pVieW89"
            ]
          }
        }
      ],
      "hex": "01000000010000000000000000000000000000000000000000000000000000000000000000ffffffff5703cabe141a4d696e656420627920416e74506f6f6c20626a3242205a7026cffabe6d6d99c3e2905ba2bd98e2c1dfa2366d4c054d9136204b813dfe0cd5fa1347b701100400000000000000a2310000000000002b000000ffffffff0100f90295000000001976a9140ff3ccc5e8be88afe24b5d634e5852d474dbdff188ac00000000"
    }
  ],
  "time": 1517299407,
  "mediantime": 1517298344,
  "nonce": 509431978,
  "bits": "1a042eae",
  "difficulty": 4011378.762614286,
  "chainwork": "0000000000000000000000000000000000000000000000341ee84b28c2b17316",
  "previousblockhash": "f698a529e1c8e5692d9296429a1c88ba08f8aafb84fa091c8ac866d21caab467",
  "nextblockhash": "f7755483106120b9e3305cc91a1f22addb4883fbf1ac2cf8706fd15e1f49faaa"
}
