{
  "hash": "2ddc22a5934a15db2925a298f3b58190e6256801c971bc762e20fbc1bde92844",
  "confirmations": 210,
  "strippedsize": 3999,
  "size": 4035,
  "weight": 16032,
  "height": 1360784,
  "version": 536870912,
  "versionHex": "20000000",
  "merkleroot": "148dd001f1eca1370b7a837f057c3fdc948532af00e3a45a5cc73ccefc01bc85",
  "tx": [
    {
      "txid": "0d2a18ba646d06b263611c5fe46b266da98daa90bd8ecc87850a9480fb1a85fc",
      "hash": "98dac2f6ff273417a675e9c4fbcc3dfa3213f5bb72b2533f55d74e7ad21b4c27",
      "version": 1,
      "size": 236,
      "vsize": 209,
      "locktime": 0,
      "vin": [
        {
          "coinbase": "0390c314045a72eb662cfabe6d6d9d59b875946d820b2dccbf448f2d4e10a5acde510608cc4a3adfb22aefc8d29a4000000000000000042f4c502f082200a9bd1d000000",
          "sequence": 4294967295
        }
      ],
      "vout": [
        {
          "value": 25.00560400,
          "n": 0,
          "scriptPubKey": {
            "asm": "OP_DUP OP_HASH160 57757ed2ecf2052ff3126c397aca7defb9ca2cec OP_EQUALVERIFY OP_CHECKSIG",
            "hex": "76a91457757ed2ecf2052ff3126c397aca7defb9ca2cec88ac",
            "reqSigs": 1,
            "type": "pubkeyhash",
            "addresses": [
              "LTCPodGk5FwcJaRzH9yKnwicxzFUbxp6tN"
            ]
          }
        }, 
        {
          "value": 0.00000000,
          "n": 1,
          "scriptPubKey": {
            "asm": "OP_RETURN aa21a9ed37800c85bede4c7ce1bff0473fd1009ad7fbc0d2c6dd27238686421fc1a85a14",
            "hex": "6a24aa21a9ed37800c85bede4c7ce1bff0473fd1009ad7fbc0d2c6dd27238686421fc1a85a14",
            "type": "nulldata"
          }
        }
      ],
      "hex": "010000000001010000000000000000000000000000000000000000000000000000000000000000ffffffff440390c314045a72eb662cfabe6d6d9d59b875946d820b2dccbf448f2d4e10a5acde510608cc4a3adfb22aefc8d29a4000000000000000042f4c502f082200a9bd1d000000ffffffff0210860b95000000001976a91457757ed2ecf2052ff3126c397aca7defb9ca2cec88ac0000000000000000266a24aa21a9ed37800c85bede4c7ce1bff0473fd1009ad7fbc0d2c6dd27238686421fc1a85a140120000000000000000000000000000000000000000000000000000000000000000000000000"
    }, 
    {
      "txid": "8a56e9bba0f5f1d4bfd209e929f4d74a1a9ad172a01da61d40efb0db0a83fdfe",
      "hash": "8a56e9bba0f5f1d4bfd209e929f4d74a1a9ad172a01da61d40efb0db0a83fdfe",
      "version": 1,
      "size": 338,
      "vsize": 338,
      "locktime": 0,
      "vin": [
        {
          "txid": "fe6fd4d9f430971033a5d00da228304d2e0ef8f0bf47dda87b10eb17977b919e",
          "vout": 1,
          "scriptSig": {
            "asm": "304402200acc6af9a82562fa7e7e33908a4e669fdfb243e85992376a3f1dede4f2b0664902205ca7aeebb004eda05bb2e39699112b053bb4ae611d4062f4aad64c17cc9dbef9[ALL] 03baf24972c06f98b94713dc75e0af2eae14484cd7122a18c27cf8bf5d8c1ec08f",
            "hex": "47304402200acc6af9a82562fa7e7e33908a4e669fdfb243e85992376a3f1dede4f2b0664902205ca7aeebb004eda05bb2e39699112b053bb4ae611d4062f4aad64c17cc9dbef9012103baf24972c06f98b94713dc75e0af2eae14484cd7122a18c27cf8bf5d8c1ec08f"
          },
          "sequence": 4294967295
        }, 
        {
          "txid": "619cefba4fa67fd421d7ecd534160cd3d3fe8609c3d6c0898b7b065b34301f5f",
          "vout": 1,
          "scriptSig": {
            "asm": "304402204d093da4e86c0be7e9f8d1e97d95c24eccf86a908e139838a2a449bf19c6155702206a0c5f6dc020dd7443de04fe6fd2ca290cdf6123c111aee513f11117c66239a9[ALL] 03422136af424fadb4646c313f75040bb79337013f1e0345618b2e481fa19eadec",
            "hex": "47304402204d093da4e86c0be7e9f8d1e97d95c24eccf86a908e139838a2a449bf19c6155702206a0c5f6dc020dd7443de04fe6fd2ca290cdf6123c111aee513f11117c66239a9012103422136af424fadb4646c313f75040bb79337013f1e0345618b2e481fa19eadec"
          },
          "sequence": 4294967295
        }
      ],
      "vout": [
        {
          "value": 1.01158758,
          "n": 0,
          "scriptPubKey": {
            "asm": "OP_DUP OP_HASH160 d2c105cc2abbd18ac6227a3e4af29e7276a63320 OP_EQUALVERIFY OP_CHECKSIG",
            "hex": "76a914d2c105cc2abbd18ac6227a3e4af29e7276a6332088ac",
            "reqSigs": 1,
            "type": "pubkeyhash",
            "addresses": [
              "LeSKPwpcZCYrpcXB98B1US1Ssv24dj8Bu4"
            ]
          }
        }
      ],
      "hex": "01000000029e917b9717eb107ba8dd47bff0f80e2e4d3028a20dd0a533109730f4d9d46ffe010000006a47304402200acc6af9a82562fa7e7e33908a4e669fdfb243e85992376a3f1dede4f2b0664902205ca7aeebb004eda05bb2e39699112b053bb4ae611d4062f4aad64c17cc9dbef9012103baf24972c06f98b94713dc75e0af2eae14484cd7122a18c27cf8bf5d8c1ec08fffffffff5f1f30345b067b8b89c0d6c30986fed3d30c1634d5ecd721d47fa64fbaef9c61010000006a47304402204d093da4e86c0be7e9f8d1e97d95c24eccf86a908e139838a2a449bf19c6155702206a0c5f6dc020dd7443de04fe6fd2ca290cdf6123c111aee513f11117c66239a9012103422136af424fadb4646c313f75040bb79337013f1e0345618b2e481fa19eadecffffffff01668f0706000000001976a914d2c105cc2abbd18ac6227a3e4af29e7276a6332088ac00000000"
    }, 
    {
      "txid": "78b79ebe4ff254b8cbdaa07ceac4dce3afc1cc173c2b84cc3ab38f2529667310",
      "hash": "78b79ebe4ff254b8cbdaa07ceac4dce3afc1cc173c2b84cc3ab38f2529667310",
      "version": 1,
      "size": 225,
      "vsize": 225,
      "locktime": 0,
      "vin": [
        {
          "txid": "c05dd1c34c0262ad527c464dbdc22ab894e0a347f57fde6471d0aba976723f86",
          "vout": 1,
          "scriptSig": {
            "asm": "3044022023152cbc82ab657459b889ee2eb552151df637586a3f60995b792b2ef716d8ae02204520795fc5e49cfddcd1be715f8e05de7ba220934054da85091a5d2a188ca431[ALL] 0330fc7d320e2310a5d2b402a48f848921d2a912bee6e989e913afc1fd72b2dd70",
            "hex": "473044022023152cbc82ab657459b889ee2eb552151df637586a3f60995b792b2ef716d8ae02204520795fc5e49cfddcd1be715f8e05de7ba220934054da85091a5d2a188ca43101210330fc7d320e2310a5d2b402a48f848921d2a912bee6e989e913afc1fd72b2dd70"
          },
          "sequence": 4294967295
        }
      ],
      "vout": [
        {
          "value": 1.90622765,
          "n": 0,
          "scriptPubKey": {
            "asm": "OP_DUP OP_HASH160 bc3005087e214fc91ea951fdac9639bc8d424c5c OP_EQUALVERIFY OP_CHECKSIG",
            "hex": "76a914bc3005087e214fc91ea951fdac9639bc8d424c5c88ac",
            "reqSigs": 1,
            "type": "pubkeyhash",
            "addresses": [
              "LcNzpjyCGyTiCKj9za9LtXyZhW8yTdNs85"
            ]
          }
        }, 
        {
          "value": 63.94968171,
          "n": 1,
          "scriptPubKey": {
            "asm": "OP_DUP OP_HASH160 673dcff874b9b0e471fa68a596dcc91094430a07 OP_EQUALVERIFY OP_CHECKSIG",
            "hex": "76a914673dcff874b9b0e471fa68a596dcc91094430a0788ac",
            "reqSigs": 1,
            "type": "pubkeyhash",
            "addresses": [
              "LUdqumh3b571XrTdbWiP4iycoBSZuJpMKZ"
            ]
          }
        }
      ],
      "hex": "0100000001863f7276a9abd07164de7ff547a3e094b82ac2bd4d467c52ad62024cc3d15dc0010000006a473044022023152cbc82ab657459b889ee2eb552151df637586a3f60995b792b2ef716d8ae02204520795fc5e49cfddcd1be715f8e05de7ba220934054da85091a5d2a188ca43101210330fc7d320e2310a5d2b402a48f848921d2a912bee6e989e913afc1fd72b2dd70ffffffff022dac5c0b000000001976a914bc3005087e214fc91ea951fdac9639bc8d424c5c88ac6b782b7d010000001976a914673dcff874b9b0e471fa68a596dcc91094430a0788ac00000000"
    }, 
    {
      "txid": "6a9db748a361dab4d66adb229be13b2ae51c9d20cc57296dcdbc5120c3e39e5e",
      "hash": "6a9db748a361dab4d66adb229be13b2ae51c9d20cc57296dcdbc5120c3e39e5e",
      "version": 2,
      "size": 225,
      "vsize": 225,
      "locktime": 1360782,
      "vin": [
        {
          "txid": "69262b5ae3295f7881aebd670c39ca84742b2c8e2b235665062ed2b225551af5",
          "vout": 0,
          "scriptSig": {
            "asm": "30440220481a4d568af703ccd98909bf6e9eb0b7a77390c923f503e8fea35cb26fc1c26b022063337f4dfbcd87ed63bd850d21fecfc14b8e3fcbc7488e65c9d6a299db482877[ALL] 03c355b27bfad0e415ca31b85be8b1790d43e32f1916c2cd5892461748d74cb824",
            "hex": "4730440220481a4d568af703ccd98909bf6e9eb0b7a77390c923f503e8fea35cb26fc1c26b022063337f4dfbcd87ed63bd850d21fecfc14b8e3fcbc7488e65c9d6a299db482877012103c355b27bfad0e415ca31b85be8b1790d43e32f1916c2cd5892461748d74cb824"
          },
          "sequence": 4294967294
        }
      ],
      "vout": [
        {
          "value": 295.77084049,
          "n": 0,
          "scriptPubKey": {
            "asm": "OP_DUP OP_HASH160 c1e10f1750cec2ecfb41f01aaf7e4d6d73435b5f OP_EQUALVERIFY OP_CHECKSIG",
            "hex": "76a914c1e10f1750cec2ecfb41f01aaf7e4d6d73435b5f88ac",
            "reqSigs": 1,
            "type": "pubkeyhash",
            "addresses": [
              "Lcu6Hc7e1SXR3BFUH4mhReQwkKwepMuseH"
            ]
          }
        }, 
        {
          "value": 9.38922017,
          "n": 1,
          "scriptPubKey": {
            "asm": "OP_DUP OP_HASH160 306e5187ad8e5c2e60a85f7b478e871f13afe405 OP_EQUALVERIFY OP_CHECKSIG",
            "hex": "76a914306e5187ad8e5c2e60a85f7b478e871f13afe40588ac",
            "reqSigs": 1,
            "type": "pubkeyhash",
            "addresses": [
              "LPe2rUy4ocKJuFBj8ErsdTe2U93ByguwKH"
            ]
          }
        }
      ],
      "hex": "0200000001f51a5525b2d22e066556232b8e2c2b7484ca390c67bdae81785f29e35a2b2669000000006a4730440220481a4d568af703ccd98909bf6e9eb0b7a77390c923f503e8fea35cb26fc1c26b022063337f4dfbcd87ed63bd850d21fecfc14b8e3fcbc7488e65c9d6a299db482877012103c355b27bfad0e415ca31b85be8b1790d43e32f1916c2cd5892461748d74cb824feffffff02917ceee2060000001976a914c1e10f1750cec2ecfb41f01aaf7e4d6d73435b5f88ac21d0f637000000001976a914306e5187ad8e5c2e60a85f7b478e871f13afe40588ac8ec31400"
    }, 
    {
      "txid": "1774800004a89bff7c012a150be69afcac7ee3061a56bc7d4122636667fe946f",
      "hash": "1774800004a89bff7c012a150be69afcac7ee3061a56bc7d4122636667fe946f",
      "version": 1,
      "size": 225,
      "vsize": 225,
      "locktime": 0,
      "vin": [
        {
          "txid": "e7b8657721e210594eef91bf3f7e89664e5f1cc66e7165f382b12a5ba068c982",
          "vout": 1,
          "scriptSig": {
            "asm": "304402202edf38cc0665c94932821c7099402fbd42a74e3b590a090aa50a7bb96a319f42022014156b44fece97c2f157ce52c6ea40c17df89e810500cb01c83342d19ac70f02[ALL] 0274a2c7e34c1ba14c276a7fcf7f273188bb1f555ecda93ac9f42713cbba657b7b",
            "hex": "47304402202edf38cc0665c94932821c7099402fbd42a74e3b590a090aa50a7bb96a319f42022014156b44fece97c2f157ce52c6ea40c17df89e810500cb01c83342d19ac70f0201210274a2c7e34c1ba14c276a7fcf7f273188bb1f555ecda93ac9f42713cbba657b7b"
          },
          "sequence": 4294967295
        }
      ],
      "vout": [
        {
          "value": 1.93246660,
          "n": 0,
          "scriptPubKey": {
            "asm": "OP_DUP OP_HASH160 cac7bc207856f7a0a443ddc860d9957b27b22e34 OP_EQUALVERIFY OP_CHECKSIG",
            "hex": "76a914cac7bc207856f7a0a443ddc860d9957b27b22e3488ac",
            "reqSigs": 1,
            "type": "pubkeyhash",
            "addresses": [
              "LdiA2nUVdWrGvGK3k1t6GcXAGUXiWZfv7F"
            ]
          }
        }, 
        {
          "value": 60.58097827,
          "n": 1,
          "scriptPubKey": {
            "asm": "OP_DUP OP_HASH160 95f9becc7d8220fbc0e5f5dfc38b2ea2d5b77859 OP_EQUALVERIFY OP_CHECKSIG",
            "hex": "76a91495f9becc7d8220fbc0e5f5dfc38b2ea2d5b7785988ac",
            "reqSigs": 1,
            "type": "pubkeyhash",
            "addresses": [
              "LYtx8QP7V7JYoQruGStxC3ukZu9GTTyund"
            ]
          }
        }
      ],
      "hex": "010000000182c968a05b2ab182f365716ec61c5f4e66897e3fbf91ef4e5910e2217765b8e7010000006a47304402202edf38cc0665c94932821c7099402fbd42a74e3b590a090aa50a7bb96a319f42022014156b44fece97c2f157ce52c6ea40c17df89e810500cb01c83342d19ac70f0201210274a2c7e34c1ba14c276a7fcf7f273188bb1f555ecda93ac9f42713cbba657b7bffffffff02c4b5840b000000001976a914cac7bc207856f7a0a443ddc860d9957b27b22e3488aca33c1769010000001976a91495f9becc7d8220fbc0e5f5dfc38b2ea2d5b7785988ac00000000"
    }, 
    {
      "txid": "44ad456a30e60addcac9c793004b44e454aff897ea59c647591052cb4845758e",
      "hash": "44ad456a30e60addcac9c793004b44e454aff897ea59c647591052cb4845758e",
      "version": 2,
      "size": 225,
      "vsize": 225,
      "locktime": 1360782,
      "vin": [
        {
          "txid": "4d8ba2d1ff94f75d57a830cd903294d57967299dd3722fbff28cfa9fc5eb0253",
          "vout": 1,
          "scriptSig": {
            "asm": "3044022023fb366c4c42b869678374dcc11de3ff5ab0c5b8e6566a14bf9ff4f8e604164c02204b7693de3e50ff50da78adab9a4c724bae7cb8e7905204d68c80abe8217a8480[ALL] 035d0e50203656e183aac542471dbc9068b74e386e0a4d91710733725efe766584",
            "hex": "473044022023fb366c4c42b869678374dcc11de3ff5ab0c5b8e6566a14bf9ff4f8e604164c02204b7693de3e50ff50da78adab9a4c724bae7cb8e7905204d68c80abe8217a84800121035d0e50203656e183aac542471dbc9068b74e386e0a4d91710733725efe766584"
          },
          "sequence": 4294967294
        }
      ],
      "vout": [
        {
          "value": 0.44000000,
          "n": 0,
          "scriptPubKey": {
            "asm": "OP_DUP OP_HASH160 ad06d72e4a34d550984e60b5b0928159ee3e4f4e OP_EQUALVERIFY OP_CHECKSIG",
            "hex": "76a914ad06d72e4a34d550984e60b5b0928159ee3e4f4e88ac",
            "reqSigs": 1,
            "type": "pubkeyhash",
            "addresses": [
              "LazqMgwVEre626zMGpbt6Rec5jDyGH8h4g"
            ]
          }
        }, 
        {
          "value": 0.65938427,
          "n": 1,
          "scriptPubKey": {
            "asm": "OP_DUP OP_HASH160 95d4243c97b19fff80514987cc37be70cf205ad1 OP_EQUALVERIFY OP_CHECKSIG",
            "hex": "76a91495d4243c97b19fff80514987cc37be70cf205ad188ac",
            "reqSigs": 1,
            "type": "pubkeyhash",
            "addresses": [
              "LYtB5ebYcGeoAcr9bHoHDa7Z9BjSBLQDpe"
            ]
          }
        }
      ],
      "hex": "02000000015302ebc59ffa8cf2bf2f72d39d296779d5943290cd30a8575df794ffd1a28b4d010000006a473044022023fb366c4c42b869678374dcc11de3ff5ab0c5b8e6566a14bf9ff4f8e604164c02204b7693de3e50ff50da78adab9a4c724bae7cb8e7905204d68c80abe8217a84800121035d0e50203656e183aac542471dbc9068b74e386e0a4d91710733725efe766584feffffff0200639f02000000001976a914ad06d72e4a34d550984e60b5b0928159ee3e4f4e88acfb23ee03000000001976a91495d4243c97b19fff80514987cc37be70cf205ad188ac8ec31400"
    }, 
    {
      "txid": "163155e581825bd4174704fae51e5d51bc148fd5b780abc4db46d06020b47c5e",
      "hash": "163155e581825bd4174704fae51e5d51bc148fd5b780abc4db46d06020b47c5e",
      "version": 2,
      "size": 226,
      "vsize": 226,
      "locktime": 1360782,
      "vin": [
        {
          "txid": "b70eefa0d65aa11f99078cedb5c6f485420ef60c951ca00f8f5cd5bf8d2fca26",
          "vout": 0,
          "scriptSig": {
            "asm": "3045022100b8406149a273fda7952e48ede94ac0fe900b443bc4d9c7122be4554957d9ef3202204fc0a4d06b6f4f467c6934420a41ff73d0b150c129bec93ad14530fecbd7c8a6[ALL] 02e2037bd3b8ff3ee3e1c67e232b207d138124a826a4f761eeba99ff99c4b60c29",
            "hex": "483045022100b8406149a273fda7952e48ede94ac0fe900b443bc4d9c7122be4554957d9ef3202204fc0a4d06b6f4f467c6934420a41ff73d0b150c129bec93ad14530fecbd7c8a6012102e2037bd3b8ff3ee3e1c67e232b207d138124a826a4f761eeba99ff99c4b60c29"
          },
          "sequence": 4294967294
        }
      ],
      "vout": [
        {
          "value": 2.61245423,
          "n": 0,
          "scriptPubKey": {
            "asm": "OP_DUP OP_HASH160 e3764ec23015f08f915cac82351537f4955b78cc OP_EQUALVERIFY OP_CHECKSIG",
            "hex": "76a914e3764ec23015f08f915cac82351537f4955b78cc88ac",
            "reqSigs": 1,
            "type": "pubkeyhash",
            "addresses": [
              "LfxfNvD3PKSKef2ZNvThP8j5zRqZNe6nFb"
            ]
          }
        }, 
        {
          "value": 0.06657707,
          "n": 1,
          "scriptPubKey": {
            "asm": "OP_DUP OP_HASH160 82fa1aec412d2318f5b02bf6323e1b73ee56a90f OP_EQUALVERIFY OP_CHECKSIG",
            "hex": "76a91482fa1aec412d2318f5b02bf6323e1b73ee56a90f88ac",
            "reqSigs": 1,
            "type": "pubkeyhash",
            "addresses": [
              "LXAVimBpN2tkR6NtK6dvCTiC6uxWUb8dyn"
            ]
          }
        }
      ],
      "hex": "020000000126ca2f8dbfd55c8f0fa01c950cf60e4285f4c6b5ed8c07991fa15ad6a0ef0eb7000000006b483045022100b8406149a273fda7952e48ede94ac0fe900b443bc4d9c7122be4554957d9ef3202204fc0a4d06b6f4f467c6934420a41ff73d0b150c129bec93ad14530fecbd7c8a6012102e2037bd3b8ff3ee3e1c67e232b207d138124a826a4f761eeba99ff99c4b60c29feffffff02ef49920f000000001976a914e3764ec23015f08f915cac82351537f4955b78cc88acab966500000000001976a91482fa1aec412d2318f5b02bf6323e1b73ee56a90f88ac8ec31400"
    }, 
    {
      "txid": "efefc8e55bba022b6c4e2278d05937b26f2dd5c63397175234f30e680df4b172",
      "hash": "efefc8e55bba022b6c4e2278d05937b26f2dd5c63397175234f30e680df4b172",
      "version": 1,
      "size": 2254,
      "vsize": 2254,
      "locktime": 0,
      "vin": [
        {
          "txid": "179d15dabce4560080f742c05401dfd5eafe6b0aface40ffadf62eb884f78006",
          "vout": 0,
          "scriptSig": {
            "asm": "30440220469a5cd1714023cb84c4ba4dfd3a5ad91b26052a868340c7e2fd0b102eb0e2b202202ca0c776554045660d6e6ce350d69e3c71bde9c21814477d90a3d69a7732aa00[ALL] 03294e4dcdc348589fc8d8002399c830d7af7eab65844e3923ba01e04992126d06",
            "hex": "4730440220469a5cd1714023cb84c4ba4dfd3a5ad91b26052a868340c7e2fd0b102eb0e2b202202ca0c776554045660d6e6ce350d69e3c71bde9c21814477d90a3d69a7732aa00012103294e4dcdc348589fc8d8002399c830d7af7eab65844e3923ba01e04992126d06"
          },
          "sequence": 4294967295
        }, 
        {
          "txid": "c2ad0ee91612aeab151769fecbef8e7c823f5462bd2fb0006f0c9768ddf90cdf",
          "vout": 0,
          "scriptSig": {
            "asm": "30440220272f5f18e3b9e6ea05e770db5748d6bff7167efcbeb156aa1b77b2f7ece60eb302204bbd30c08bbc2b5c15a5162a5ee9650f1c566e1e1b8e2bb09d4ff14958f38fff[ALL] 03c02a9d375ad5e230b350d384bda1f69a8b7bc3758e2ffd765bbc9ccfb6cf02d6",
            "hex": "4730440220272f5f18e3b9e6ea05e770db5748d6bff7167efcbeb156aa1b77b2f7ece60eb302204bbd30c08bbc2b5c15a5162a5ee9650f1c566e1e1b8e2bb09d4ff14958f38fff012103c02a9d375ad5e230b350d384bda1f69a8b7bc3758e2ffd765bbc9ccfb6cf02d6"
          },
          "sequence": 4294967295
        }, 
        {
          "txid": "86b4216b47cf7362a53732caaf32cd97c43bb60dc871b85b18cfe63967a035ac",
          "vout": 3,
          "scriptSig": {
            "asm": "3045022100e48028d654c2adb05d66f23ab50492e53f434a49478f535477e3d776ee89397502200dd24f3a2018789cc7167df5f9b8efa32b9b3e9ea5cdb82ed05e61fb40d29f53[ALL] 03fed3db03996e500364376240ce11628c41f7ee984cf8db41b767dc69c016f42a",
            "hex": "483045022100e48028d654c2adb05d66f23ab50492e53f434a49478f535477e3d776ee89397502200dd24f3a2018789cc7167df5f9b8efa32b9b3e9ea5cdb82ed05e61fb40d29f53012103fed3db03996e500364376240ce11628c41f7ee984cf8db41b767dc69c016f42a"
          },
          "sequence": 4294967295
        }, 
        {
          "txid": "4c554eabad34f0ad78e351c984dd459db939da95d3617f4c3b22c96749a7c767",
          "vout": 0,
          "scriptSig": {
            "asm": "304402204cbe6bba2e84ee6aed4bcf5f683a415470f4d03c87433f7dcafd82bff65decac02201621bf9a7e5e3e00c0a65b858659b60800f125074e9cfa7373772509bf9eef47[ALL] 02fb6b4bfde016e956a29835aad45f3280a8584c5f66eae8d69e8e0e5c63f2e779",
            "hex": "47304402204cbe6bba2e84ee6aed4bcf5f683a415470f4d03c87433f7dcafd82bff65decac02201621bf9a7e5e3e00c0a65b858659b60800f125074e9cfa7373772509bf9eef47012102fb6b4bfde016e956a29835aad45f3280a8584c5f66eae8d69e8e0e5c63f2e779"
          },
          "sequence": 4294967295
        }, 
        {
          "txid": "4bd202e88853dacb787cead358aac29269c354580a27464095060d3b170d184e",
          "vout": 1,
          "scriptSig": {
            "asm": "3045022100dc9a641ac63cd9e66180a3d5a60f8d3d2a0922665bcf7d2f0eb1585e3c5d227102205d1045efc694dc59ca76c25b4fea85ca0b00d3588224def2019940d7a930c7e6[ALL] 03ce8560b317abcafff8dff5277bf4491f231c16f666bd72f1c92e36e0ee8f0fab",
            "hex": "483045022100dc9a641ac63cd9e66180a3d5a60f8d3d2a0922665bcf7d2f0eb1585e3c5d227102205d1045efc694dc59ca76c25b4fea85ca0b00d3588224def2019940d7a930c7e6012103ce8560b317abcafff8dff5277bf4491f231c16f666bd72f1c92e36e0ee8f0fab"
          },
          "sequence": 4294967295
        }, 
        {
          "txid": "bddb6b1f46165b74ad296096676fe0a7311e44d4c439d08046131a9a70fb115d",
          "vout": 19,
          "scriptSig": {
            "asm": "304402207786520bd73136d3ff9b4e8c725386a4a6eccbc33e30480664cb3806bdfbcaac0220524aaadab8456e71a5113cd5d266f6f0aba327a78a5210ae315e49d6091f3902[ALL] 0200bec1a1199a9a91b07da269af0bd662cd733128488dc35340cea88679fd6bc0",
            "hex": "47304402207786520bd73136d3ff9b4e8c725386a4a6eccbc33e30480664cb3806bdfbcaac0220524aaadab8456e71a5113cd5d266f6f0aba327a78a5210ae315e49d6091f390201210200bec1a1199a9a91b07da269af0bd662cd733128488dc35340cea88679fd6bc0"
          },
          "sequence": 4294967295
        }, 
        {
          "txid": "9d0b74ed79b9d1a064b568afe58d57c3dc6125510a8c973d5793146cde78c14f",
          "vout": 0,
          "scriptSig": {
            "asm": "304402203fddd8350426a2626d90e74185651de523c788f3b76070e12575a0bc76dffb1202200b7b3b769049708c75e983592915582d97cbb0a6363187426d5d6ddd3841d465[ALL] 0348b22d37d0166eb3a83fdcfe03f56a5178583222e4ad8022209b140bcac05ffa",
            "hex": "47304402203fddd8350426a2626d90e74185651de523c788f3b76070e12575a0bc76dffb1202200b7b3b769049708c75e983592915582d97cbb0a6363187426d5d6ddd3841d46501210348b22d37d0166eb3a83fdcfe03f56a5178583222e4ad8022209b140bcac05ffa"
          },
          "sequence": 4294967295
        }, 
        {
          "txid": "d983e012abf60d4dd73e09cd5233ca213013963229d8e1f4f7c50ce164a1a0ec",
          "vout": 1,
          "scriptSig": {
            "asm": "30440220575609e99f86325d3f7f690a981c79e8b170a7953d25fe863098ebc8f39e6da90220491d4d9e9679a2549f17a208fc4f40a30859554c98850d32a1ad8c53e81104ba[ALL] 0348b22d37d0166eb3a83fdcfe03f56a5178583222e4ad8022209b140bcac05ffa",
            "hex": "4730440220575609e99f86325d3f7f690a981c79e8b170a7953d25fe863098ebc8f39e6da90220491d4d9e9679a2549f17a208fc4f40a30859554c98850d32a1ad8c53e81104ba01210348b22d37d0166eb3a83fdcfe03f56a5178583222e4ad8022209b140bcac05ffa"
          },
          "sequence": 4294967295
        }, 
        {
          "txid": "9010ce37609693c2096eed1c0745f26459b65f6f8c35af371ed9b21388a7ce5e",
          "vout": 21,
          "scriptSig": {
            "asm": "304402204ab1bd9b68dd09484de5eae69cffd7f407d61c23ec63dc64eaf2d044a7e1866102204007950f7e038312af7fba0365118e7009e74313a846059e2420c971fcc41863[ALL] 03be1ee4060bb5f32be6f44818b76b73a986a453cd5e95b8b828642605fc368c49",
            "hex": "47304402204ab1bd9b68dd09484de5eae69cffd7f407d61c23ec63dc64eaf2d044a7e1866102204007950f7e038312af7fba0365118e7009e74313a846059e2420c971fcc41863012103be1ee4060bb5f32be6f44818b76b73a986a453cd5e95b8b828642605fc368c49"
          },
          "sequence": 4294967295
        }, 
        {
          "txid": "d27a38cf9a5763cd1addb1277154415a3a5cb0201d30674974b9341141858ab3",
          "vout": 1,
          "scriptSig": {
            "asm": "3045022100d1b2397e2b44a3a6d87e518bdf68cd40737a7f6c1e6d17673b36ae0dc7834995022015544964c4c263ed6f082c61928722c240eedd26963cbcea1d1370f28a09c7f5[ALL] 03916c404a91e326e073db73326e0e4c0a147a1e8963156495f5dde981621d605c",
            "hex": "483045022100d1b2397e2b44a3a6d87e518bdf68cd40737a7f6c1e6d17673b36ae0dc7834995022015544964c4c263ed6f082c61928722c240eedd26963cbcea1d1370f28a09c7f5012103916c404a91e326e073db73326e0e4c0a147a1e8963156495f5dde981621d605c"
          },
          "sequence": 4294967295
        }, 
        {
          "txid": "14161868f0d2b5a6a7c6ddc1bdc7fba2b8755b29dfb0c07fb144048ca361ca5c",
          "vout": 1,
          "scriptSig": {
            "asm": "3044022053086ddf9a76158ee6a33b4f43bb80e5b11d2c75a5df146694009801329b80d802205c65f84586308e39661a828346391256af94f47ee2e3636560d69b506ed1d233[ALL] 03916c404a91e326e073db73326e0e4c0a147a1e8963156495f5dde981621d605c",
            "hex": "473044022053086ddf9a76158ee6a33b4f43bb80e5b11d2c75a5df146694009801329b80d802205c65f84586308e39661a828346391256af94f47ee2e3636560d69b506ed1d233012103916c404a91e326e073db73326e0e4c0a147a1e8963156495f5dde981621d605c"
          },
          "sequence": 4294967295
        }, 
        {
          "txid": "2289005dc5e0e4940a33b5f5117cbfd69881436d4a3a6760f2b784d0a455505b",
          "vout": 0,
          "scriptSig": {
            "asm": "3045022100a357bcb9ae4812e5c6cbabad31b2c911ab1bb7b3a88243772ceb3fecf403fed502200f776ca1e46b4677c91ed6c7383594ef05409481d0a2f8e354754bea62844390[ALL] 02f3c56ca2cded107a75ad12efe403978b4eca955a12f16391fa9dfe84bf495065",
            "hex": "483045022100a357bcb9ae4812e5c6cbabad31b2c911ab1bb7b3a88243772ceb3fecf403fed502200f776ca1e46b4677c91ed6c7383594ef05409481d0a2f8e354754bea62844390012102f3c56ca2cded107a75ad12efe403978b4eca955a12f16391fa9dfe84bf495065"
          },
          "sequence": 4294967295
        }, 
        {
          "txid": "5e87a309fd9effa0ef5f571d619b1f892e874369404acce1c197f19fb6414541",
          "vout": 0,
          "scriptSig": {
            "asm": "3045022100faa8fc3820b9b5e53d50078a238d359e89fe8886500a4f27f3d7806a30ab1aaf022033ca89b313bb0dacc458add1cca2e50d778d29faff5ac26d5b61d1248e3bc8dc[ALL] 02f3c56ca2cded107a75ad12efe403978b4eca955a12f16391fa9dfe84bf495065",
            "hex": "483045022100faa8fc3820b9b5e53d50078a238d359e89fe8886500a4f27f3d7806a30ab1aaf022033ca89b313bb0dacc458add1cca2e50d778d29faff5ac26d5b61d1248e3bc8dc012102f3c56ca2cded107a75ad12efe403978b4eca955a12f16391fa9dfe84bf495065"
          },
          "sequence": 4294967295
        }, 
        {
          "txid": "d0453204dbe7bbc7427fa5676e84f73cb913ee3b14611312cd2dc6b1a6124ac0",
          "vout": 0,
          "scriptSig": {
            "asm": "30440220223ac7fb20babe13bf89cf365bf1a15ca2f296cbf6f997fe7de81a08d0176256022016a2f679a116904bfe8284ac3e6d4bd65be3760996a32b0c3acfe920624b6b3e[ALL] 02f3c56ca2cded107a75ad12efe403978b4eca955a12f16391fa9dfe84bf495065",
            "hex": "4730440220223ac7fb20babe13bf89cf365bf1a15ca2f296cbf6f997fe7de81a08d0176256022016a2f679a116904bfe8284ac3e6d4bd65be3760996a32b0c3acfe920624b6b3e012102f3c56ca2cded107a75ad12efe403978b4eca955a12f16391fa9dfe84bf495065"
          },
          "sequence": 4294967295
        }, 
        {
          "txid": "c7893b3fac8fc2660d031d8c8a8d02cb9f8a3be0bd254fae63353d9dbc5ca1e2",
          "vout": 1,
          "scriptSig": {
            "asm": "30440220785246e292b21890457e0863d0ad07c26973488364dcc8948993a01663f628320220506c78dfdef5bc9df06efb9f3d392b7dd2560f9427ef1075642660c61fd91028[ALL] 02f3c56ca2cded107a75ad12efe403978b4eca955a12f16391fa9dfe84bf495065",
            "hex": "4730440220785246e292b21890457e0863d0ad07c26973488364dcc8948993a01663f628320220506c78dfdef5bc9df06efb9f3d392b7dd2560f9427ef1075642660c61fd91028012102f3c56ca2cded107a75ad12efe403978b4eca955a12f16391fa9dfe84bf495065"
          },
          "sequence": 4294967295
        }
      ],
      "vout": [
        {
          "value": 101.25070400,
          "n": 0,
          "scriptPubKey": {
            "asm": "OP_DUP OP_HASH160 d03135f2f46776b93126830da160846edbe57fae OP_EQUALVERIFY OP_CHECKSIG",
            "hex": "76a914d03135f2f46776b93126830da160846edbe57fae88ac",
            "reqSigs": 1,
            "type": "pubkeyhash",
            "addresses": [
              "LeCmmLRrReLX5xmocu6XDsVx9arQJ8iqgw"
            ]
          }
        }
      ],
      "hex": "010000000f0680f784b82ef6adff40cefa0a6bfeead5df0154c042f7800056e4bcda159d17000000006a4730440220469a5cd1714023cb84c4ba4dfd3a5ad91b26052a868340c7e2fd0b102eb0e2b202202ca0c776554045660d6e6ce350d69e3c71bde9c21814477d90a3d69a7732aa00012103294e4dcdc348589fc8d8002399c830d7af7eab65844e3923ba01e04992126d06ffffffffdf0cf9dd68970c6f00b02fbd62543f827c8eefcbfe691715abae1216e90eadc2000000006a4730440220272f5f18e3b9e6ea05e770db5748d6bff7167efcbeb156aa1b77b2f7ece60eb302204bbd30c08bbc2b5c15a5162a5ee9650f1c566e1e1b8e2bb09d4ff14958f38fff012103c02a9d375ad5e230b350d384bda1f69a8b7bc3758e2ffd765bbc9ccfb6cf02d6ffffffffac35a06739e6cf185bb871c80db63bc497cd32afca3237a56273cf476b21b486030000006b483045022100e48028d654c2adb05d66f23ab50492e53f434a49478f535477e3d776ee89397502200dd24f3a2018789cc7167df5f9b8efa32b9b3e9ea5cdb82ed05e61fb40d29f53012103fed3db03996e500364376240ce11628c41f7ee984cf8db41b767dc69c016f42affffffff67c7a74967c9223b4c7f61d395da39b99d45dd84c951e378adf034adab4e554c000000006a47304402204cbe6bba2e84ee6aed4bcf5f683a415470f4d03c87433f7dcafd82bff65decac02201621bf9a7e5e3e00c0a65b858659b60800f125074e9cfa7373772509bf9eef47012102fb6b4bfde016e956a29835aad45f3280a8584c5f66eae8d69e8e0e5c63f2e779ffffffff4e180d173b0d06954046270a5854c36992c2aa58d3ea7c78cbda5388e802d24b010000006b483045022100dc9a641ac63cd9e66180a3d5a60f8d3d2a0922665bcf7d2f0eb1585e3c5d227102205d1045efc694dc59ca76c25b4fea85ca0b00d3588224def2019940d7a930c7e6012103ce8560b317abcafff8dff5277bf4491f231c16f666bd72f1c92e36e0ee8f0fabffffffff5d11fb709a1a134680d039c4d4441e31a7e06f67966029ad745b16461f6bdbbd130000006a47304402207786520bd73136d3ff9b4e8c725386a4a6eccbc33e30480664cb3806bdfbcaac0220524aaadab8456e71a5113cd5d266f6f0aba327a78a5210ae315e49d6091f390201210200bec1a1199a9a91b07da269af0bd662cd733128488dc35340cea88679fd6bc0ffffffff4fc178de6c1493573d978c0a512561dcc3578de5af68b564a0d1b979ed740b9d000000006a47304402203fddd8350426a2626d90e74185651de523c788f3b76070e12575a0bc76dffb1202200b7b3b769049708c75e983592915582d97cbb0a6363187426d5d6ddd3841d46501210348b22d37d0166eb3a83fdcfe03f56a5178583222e4ad8022209b140bcac05ffaffffffffeca0a164e10cc5f7f4e1d8293296133021ca3352cd093ed74d0df6ab12e083d9010000006a4730440220575609e99f86325d3f7f690a981c79e8b170a7953d25fe863098ebc8f39e6da90220491d4d9e9679a2549f17a208fc4f40a30859554c98850d32a1ad8c53e81104ba01210348b22d37d0166eb3a83fdcfe03f56a5178583222e4ad8022209b140bcac05ffaffffffff5ecea78813b2d91e37af358c6f5fb65964f245071ced6e09c293966037ce1090150000006a47304402204ab1bd9b68dd09484de5eae69cffd7f407d61c23ec63dc64eaf2d044a7e1866102204007950f7e038312af7fba0365118e7009e74313a846059e2420c971fcc41863012103be1ee4060bb5f32be6f44818b76b73a986a453cd5e95b8b828642605fc368c49ffffffffb38a85411134b9744967301d20b05c3a5a41547127b1dd1acd63579acf387ad2010000006b483045022100d1b2397e2b44a3a6d87e518bdf68cd40737a7f6c1e6d17673b36ae0dc7834995022015544964c4c263ed6f082c61928722c240eedd26963cbcea1d1370f28a09c7f5012103916c404a91e326e073db73326e0e4c0a147a1e8963156495f5dde981621d605cffffffff5cca61a38c0444b17fc0b0df295b75b8a2fbc7bdc1ddc6a7a6b5d2f068181614010000006a473044022053086ddf9a76158ee6a33b4f43bb80e5b11d2c75a5df146694009801329b80d802205c65f84586308e39661a828346391256af94f47ee2e3636560d69b506ed1d233012103916c404a91e326e073db73326e0e4c0a147a1e8963156495f5dde981621d605cffffffff5b5055a4d084b7f260673a4a6d438198d6bf7c11f5b5330a94e4e0c55d008922000000006b483045022100a357bcb9ae4812e5c6cbabad31b2c911ab1bb7b3a88243772ceb3fecf403fed502200f776ca1e46b4677c91ed6c7383594ef05409481d0a2f8e354754bea62844390012102f3c56ca2cded107a75ad12efe403978b4eca955a12f16391fa9dfe84bf495065ffffffff414541b69ff197c1e1cc4a406943872e891f9b611d575fefa0ff9efd09a3875e000000006b483045022100faa8fc3820b9b5e53d50078a238d359e89fe8886500a4f27f3d7806a30ab1aaf022033ca89b313bb0dacc458add1cca2e50d778d29faff5ac26d5b61d1248e3bc8dc012102f3c56ca2cded107a75ad12efe403978b4eca955a12f16391fa9dfe84bf495065ffffffffc04a12a6b1c62dcd121361143bee13b93cf7846e67a57f42c7bbe7db043245d0000000006a4730440220223ac7fb20babe13bf89cf365bf1a15ca2f296cbf6f997fe7de81a08d0176256022016a2f679a116904bfe8284ac3e6d4bd65be3760996a32b0c3acfe920624b6b3e012102f3c56ca2cded107a75ad12efe403978b4eca955a12f16391fa9dfe84bf495065ffffffffe2a15cbc9d3d3563ae4f25bde03b8a9fcb028d8a8c1d030d66c28fac3f3b89c7010000006a4730440220785246e292b21890457e0863d0ad07c26973488364dcc8948993a01663f628320220506c78dfdef5bc9df06efb9f3d392b7dd2560f9427ef1075642660c61fd91028012102f3c56ca2cded107a75ad12efe403978b4eca955a12f16391fa9dfe84bf495065ffffffff014050805b020000001976a914d03135f2f46776b93126830da160846edbe57fae88ac00000000"
    }
  ],
  "time": 1517480806,
  "mediantime": 1517480517,
  "nonce": 3984234179,
  "bits": "1a042eae",
  "difficulty": 4011378.762614286,
  "chainwork": "00000000000000000000000000000000000000000000003543169126f2d695a2",
  "previousblockhash": "5d57a64afd2196292b76ece152a797893dd99d3481844808ac4635cc9eeed99c",
  "nextblockhash": "8f88864fd62ca2cabdab13b8f0ad3a6793f9b841ff1305f4ba99b14719f1a382"
}
