{
  "hash": "2e2478a9aed4dba8721467e4dcfef529e5a41725a055459ff089d7f8aaaf56c8",
  "confirmations": 163,
  "strippedsize": 256,
  "size": 256,
  "weight": 1024,
  "height": 1360829,
  "version": 536870912,
  "versionHex": "20000000",
  "merkleroot": "2dfd4dd60d201b97e80488dbababc500d27eded91331e2b7edca6738c05c2744",
  "tx": [
    {
      "txid": "2dfd4dd60d201b97e80488dbababc500d27eded91331e2b7edca6738c05c2744",
      "hash": "2dfd4dd60d201b97e80488dbababc500d27eded91331e2b7edca6738c05c2744",
      "version": 1,
      "size": 175,
      "vsize": 175,
      "locktime": 0,
      "vin": [
        {
          "coinbase": "03bdc3141d4d696e656420627920416e74506f6f6c20626a312045205a73038c1001fabe6d6d17ff2a0a84d179bffde43bd7e2d602ec6e66ef2869d3a92d065ab6ffdb90c522040000000000000018020000000000000e000000",
          "sequence": 4294967295
        }
      ],
      "vout": [
        {
          "value": 25.00000000,
          "n": 0,
          "scriptPubKey": {
            "asm": "OP_DUP OP_HASH160 0ff3ccc5e8be88afe24b5d634e5852d474dbdff1 OP_EQUALVERIFY OP_CHECKSIG",
            "hex": "76a9140ff3ccc5e8be88afe24b5d634e5852d474dbdff188ac",
            "reqSigs": 1,
            "type": "pubkeyhash",
            "addresses": [
              "LLgJTbzZMsRTCUF1NtvvL9SR1a4pVieW89"
            ]
          }
        }
      ],
      "hex": "01000000010000000000000000000000000000000000000000000000000000000000000000ffffffff5a03bdc3141d4d696e656420627920416e74506f6f6c20626a312045205a73038c1001fabe6d6d17ff2a0a84d179bffde43bd7e2d602ec6e66ef2869d3a92d065ab6ffdb90c522040000000000000018020000000000000e000000ffffffff0100f90295000000001976a9140ff3ccc5e8be88afe24b5d634e5852d474dbdff188ac00000000"
    }
  ],
  "time": 1517486988,
  "mediantime": 1517486421,
  "nonce": 3189348140,
  "bits": "1a04088e",
  "difficulty": 4159490.835685156,
  "chainwork": "0000000000000000000000000000000000000000000000354e1cce3bb26b8d20",
  "previousblockhash": "56a6ad902495463333b24429b14e84c833328c12a06cf1d109b4fce6d980e67f",
  "nextblockhash": "d0c0a999aa7f60210a0822c0e254f573a08019e1a56976cb1f773c206c455b36"
}
