{
  "hash": "2e490485ed25521cc5e6a146de1b80ebfa2312fa19d6e77ec139b61f75aa4363",
  "confirmations": 3644,
  "strippedsize": 253,
  "size": 253,
  "weight": 1012,
  "height": 1357351,
  "version": 536870912,
  "versionHex": "20000000",
  "merkleroot": "5220aa18ef396c3ed9cd85845f2e5212a5a101f6be40c9259fa51283366d41c0",
  "tx": [
    {
      "txid": "5220aa18ef396c3ed9cd85845f2e5212a5a101f6be40c9259fa51283366d41c0",
      "hash": "5220aa18ef396c3ed9cd85845f2e5212a5a101f6be40c9259fa51283366d41c0",
      "version": 1,
      "size": 172,
      "vsize": 172,
      "locktime": 0,
      "vin": [
        {
          "coinbase": "0327b6141a4d696e656420627920416e74506f6f6c20626a331f205a6b7c6afabe6d6dde0e37a56ac69c1499459c8d8ee10295874159c4c89fb3de1c559be4538d54850400000000000000c73800000000000010000000",
          "sequence": 4294967295
        }
      ],
      "vout": [
        {
          "value": 25.00000000,
          "n": 0,
          "scriptPubKey": {
            "asm": "OP_DUP OP_HASH160 0ff3ccc5e8be88afe24b5d634e5852d474dbdff1 OP_EQUALVERIFY OP_CHECKSIG",
            "hex": "76a9140ff3ccc5e8be88afe24b5d634e5852d474dbdff188ac",
            "reqSigs": 1,
            "type": "pubkeyhash",
            "addresses": [
              "LLgJTbzZMsRTCUF1NtvvL9SR1a4pVieW89"
            ]
          }
        }
      ],
      "hex": "01000000010000000000000000000000000000000000000000000000000000000000000000ffffffff570327b6141a4d696e656420627920416e74506f6f6c20626a331f205a6b7c6afabe6d6dde0e37a56ac69c1499459c8d8ee10295874159c4c89fb3de1c559be4538d54850400000000000000c73800000000000010000000ffffffff0100f90295000000001976a9140ff3ccc5e8be88afe24b5d634e5852d474dbdff188ac00000000"
    }
  ],
  "time": 1516993642,
  "mediantime": 1516993166,
  "nonce": 4032112561,
  "bits": "1a047f14",
  "difficulty": 3731199.183374282,
  "chainwork": "000000000000000000000000000000000000000000000032262bcac5972b7310",
  "previousblockhash": "1725398715188bf36efb6db0524ef5075165a0c3843bc5a33665b3c43a7dd067",
  "nextblockhash": "0246b2323881358007f10d6544caf497663d122cd63a1513c5a1947da75234bc"
}
