{
  "hash": "2e4d2282ef549b371c7581443e11f912d933a57e51a2c2b154144ec363a50fc3",
  "confirmations": 1516,
  "strippedsize": 256,
  "size": 256,
  "weight": 1024,
  "height": 1359478,
  "version": 536870912,
  "versionHex": "20000000",
  "merkleroot": "e94df42f37f90c9e3c35d28734bc183e4c625d01cffe88600b72c3b321335318",
  "tx": [
    {
      "txid": "e94df42f37f90c9e3c35d28734bc183e4c625d01cffe88600b72c3b321335318",
      "hash": "e94df42f37f90c9e3c35d28734bc183e4c625d01cffe88600b72c3b321335318",
      "version": 1,
      "size": 175,
      "vsize": 175,
      "locktime": 0,
      "vin": [
        {
          "coinbase": "0376be141d4d696e656420627920416e74506f6f6c20626a312045205a6ff8ed0ad1fabe6d6dc0ce2bddad29094616a7d89978ffd665d2628b4af14ea2ad046e693276cf7a8b040000000000000002310000000000001d000000",
          "sequence": 4294967295
        }
      ],
      "vout": [
        {
          "value": 25.00000000,
          "n": 0,
          "scriptPubKey": {
            "asm": "OP_DUP OP_HASH160 0ff3ccc5e8be88afe24b5d634e5852d474dbdff1 OP_EQUALVERIFY OP_CHECKSIG",
            "hex": "76a9140ff3ccc5e8be88afe24b5d634e5852d474dbdff188ac",
            "reqSigs": 1,
            "type": "pubkeyhash",
            "addresses": [
              "LLgJTbzZMsRTCUF1NtvvL9SR1a4pVieW89"
            ]
          }
        }
      ],
      "hex": "01000000010000000000000000000000000000000000000000000000000000000000000000ffffffff5a0376be141d4d696e656420627920416e74506f6f6c20626a312045205a6ff8ed0ad1fabe6d6dc0ce2bddad29094616a7d89978ffd665d2628b4af14ea2ad046e693276cf7a8b040000000000000002310000000000001d000000ffffffff0100f90295000000001976a9140ff3ccc5e8be88afe24b5d634e5852d474dbdff188ac00000000"
    }
  ],
  "time": 1517287661,
  "mediantime": 1517287315,
  "nonce": 1192182471,
  "bits": "1a042eae",
  "difficulty": 4011378.762614286,
  "chainwork": "0000000000000000000000000000000000000000000000340ad2ad6b15b1d46e",
  "previousblockhash": "c64473e6eaa2abd71cf9d710f2d398b313b2d5a734c9640cfa414a0dd6e43465",
  "nextblockhash": "75b5fc7f6e93d65df06e8eff757272f6e8d12fbb84ae5f46d072efdb337e6016"
}
