{
  "hash": "2e8e424411c7867206783685debcfd072a103032f99319c90bb4eb290b2fb53a",
  "confirmations": 2120,
  "strippedsize": 4402,
  "size": 4438,
  "weight": 17644,
  "height": 1358874,
  "version": 536870912,
  "versionHex": "20000000",
  "merkleroot": "ad9981b3360abb3bcd80e667da61a782b1811e5d3a2f1be83899732073762fb9",
  "tx": [
    {
      "txid": "c3de80e21b8473a05d96114ee6371b8233c1b77f7cea1a4df85f9cb461ad36aa",
      "hash": "e9b377e7f1a0a21f3deb98e8dd0ccce83c9a422c816c77f161074a58a359ebc0",
      "version": 1,
      "size": 236,
      "vsize": 209,
      "locktime": 0,
      "vin": [
        {
          "coinbase": "031abc14045a6eb3b12cfabe6d6dce7f94e51947574f0bc3036af16d4eb1864c1f5ec7574d7a2acc425559fe33cc4000000000000000042f4c502f081600069e17000000",
          "sequence": 4294967295
        }
      ],
      "vout": [
        {
          "value": 25.00793759,
          "n": 0,
          "scriptPubKey": {
            "asm": "OP_DUP OP_HASH160 57757ed2ecf2052ff3126c397aca7defb9ca2cec OP_EQUALVERIFY OP_CHECKSIG",
            "hex": "76a91457757ed2ecf2052ff3126c397aca7defb9ca2cec88ac",
            "reqSigs": 1,
            "type": "pubkeyhash",
            "addresses": [
              "LTCPodGk5FwcJaRzH9yKnwicxzFUbxp6tN"
            ]
          }
        }, 
        {
          "value": 0.00000000,
          "n": 1,
          "scriptPubKey": {
            "asm": "OP_RETURN aa21a9ed05c9f6bef76e96a6fab91ac5e4415e37c053b7d2acc0bbfea8069b958b9729fa",
            "hex": "6a24aa21a9ed05c9f6bef76e96a6fab91ac5e4415e37c053b7d2acc0bbfea8069b958b9729fa",
            "type": "nulldata"
          }
        }
      ],
      "hex": "010000000001010000000000000000000000000000000000000000000000000000000000000000ffffffff44031abc14045a6eb3b12cfabe6d6dce7f94e51947574f0bc3036af16d4eb1864c1f5ec7574d7a2acc425559fe33cc4000000000000000042f4c502f081600069e17000000ffffffff029f150f95000000001976a91457757ed2ecf2052ff3126c397aca7defb9ca2cec88ac0000000000000000266a24aa21a9ed05c9f6bef76e96a6fab91ac5e4415e37c053b7d2acc0bbfea8069b958b9729fa0120000000000000000000000000000000000000000000000000000000000000000000000000"
    }, 
    {
      "txid": "0de84d505128ae31aa5ed36198c2fde0a9a0a62487e8d47dcc3984120715e8de",
      "hash": "0de84d505128ae31aa5ed36198c2fde0a9a0a62487e8d47dcc3984120715e8de",
      "version": 1,
      "size": 340,
      "vsize": 340,
      "locktime": 0,
      "vin": [
        {
          "txid": "bab49cb6bb1ce87092d5ae4dab47ea0eb94076215f18388d8e06c5da367a845a",
          "vout": 1,
          "scriptSig": {
            "asm": "304502210099725c6e78129bbad00b0099cc780d5be0441e587c01d4aa87ccb7e8526d3aa50220569759b8713609e56209db6344d2d0067cba4e7bdbd6e2fba198b9295995ef22[ALL] 027df7ef7c45cb68882d278b88d64b6320f95f2d4fedd1f3c990c840a5307e16ff",
            "hex": "48304502210099725c6e78129bbad00b0099cc780d5be0441e587c01d4aa87ccb7e8526d3aa50220569759b8713609e56209db6344d2d0067cba4e7bdbd6e2fba198b9295995ef220121027df7ef7c45cb68882d278b88d64b6320f95f2d4fedd1f3c990c840a5307e16ff"
          },
          "sequence": 4294967295
        }, 
        {
          "txid": "2ef9a0f786c4dffc7fbb31663b8924844662875231dda6d3756d92b999b8aef7",
          "vout": 0,
          "scriptSig": {
            "asm": "3045022100900f166651dda716b42e55944e45e450ca250b5dd758155b087905719a7659a2022067de949075596f03db802c20b06d4391671fa3137c084afa1b0e2bcdd9f3369a[ALL] 027df7ef7c45cb68882d278b88d64b6320f95f2d4fedd1f3c990c840a5307e16ff",
            "hex": "483045022100900f166651dda716b42e55944e45e450ca250b5dd758155b087905719a7659a2022067de949075596f03db802c20b06d4391671fa3137c084afa1b0e2bcdd9f3369a0121027df7ef7c45cb68882d278b88d64b6320f95f2d4fedd1f3c990c840a5307e16ff"
          },
          "sequence": 4294967295
        }
      ],
      "vout": [
        {
          "value": 2.63823537,
          "n": 0,
          "scriptPubKey": {
            "asm": "OP_DUP OP_HASH160 16da7c0d5d9d0d99b88640a81dec93cae663ef2d OP_EQUALVERIFY OP_CHECKSIG",
            "hex": "76a91416da7c0d5d9d0d99b88640a81dec93cae663ef2d88ac",
            "reqSigs": 1,
            "type": "pubkeyhash",
            "addresses": [
              "LMJns1R2uBSQDgrBA27gk3wdZHavxrZDAc"
            ]
          }
        }
      ],
      "hex": "01000000025a847a36dac5068e8d38185f217640b90eea47ab4daed59270e81cbbb69cb4ba010000006b48304502210099725c6e78129bbad00b0099cc780d5be0441e587c01d4aa87ccb7e8526d3aa50220569759b8713609e56209db6344d2d0067cba4e7bdbd6e2fba198b9295995ef220121027df7ef7c45cb68882d278b88d64b6320f95f2d4fedd1f3c990c840a5307e16fffffffffff7aeb899b9926d75d3a6dd31528762468424893b6631bb7ffcdfc486f7a0f92e000000006b483045022100900f166651dda716b42e55944e45e450ca250b5dd758155b087905719a7659a2022067de949075596f03db802c20b06d4391671fa3137c084afa1b0e2bcdd9f3369a0121027df7ef7c45cb68882d278b88d64b6320f95f2d4fedd1f3c990c840a5307e16ffffffffff01b1a0b90f000000001976a91416da7c0d5d9d0d99b88640a81dec93cae663ef2d88ac00000000"
    }, 
    {
      "txid": "14e571fd56081ac51c694bd32816c03daf258a31f10177f7e594807e4f0d9687",
      "hash": "14e571fd56081ac51c694bd32816c03daf258a31f10177f7e594807e4f0d9687",
      "version": 1,
      "size": 406,
      "vsize": 406,
      "locktime": 0,
      "vin": [
        {
          "txid": "dc6197f6f3ef1a6fc19b7a9b8a269783df01dad91c823cd278ee2407bdef5f24",
          "vout": 0,
          "scriptSig": {
            "asm": "304402207cd961cd7ce84849beb27316538bbfdb363a1116aad6a2ada4ed1dd8f8ed7e440220233df28af1c5fb1c918b2868d068afc437e38e2ae1aaab7ecb75c1847ca2a32d[ALL] 039762aeac7f2dfa57183ab23600f5107f0cc2007a223bbea994de8e876041974f",
            "hex": "47304402207cd961cd7ce84849beb27316538bbfdb363a1116aad6a2ada4ed1dd8f8ed7e440220233df28af1c5fb1c918b2868d068afc437e38e2ae1aaab7ecb75c1847ca2a32d0121039762aeac7f2dfa57183ab23600f5107f0cc2007a223bbea994de8e876041974f"
          },
          "sequence": 4294967295
        }, 
        {
          "txid": "14fb7cdc86a2844fb0c8e5a995f4a1b39b5bef39263bb2e20bd82d4771777532",
          "vout": 1,
          "scriptSig": {
            "asm": "3044022011ccfc5d32e4815c28adfabff33bf5fae573560c4c1390f35aab74f489df5241022047b68c01fe2d0a55c90c32275336eef313be4249581cf95ed841585fabf454f7[ALL] 039762aeac7f2dfa57183ab23600f5107f0cc2007a223bbea994de8e876041974f",
            "hex": "473044022011ccfc5d32e4815c28adfabff33bf5fae573560c4c1390f35aab74f489df5241022047b68c01fe2d0a55c90c32275336eef313be4249581cf95ed841585fabf454f70121039762aeac7f2dfa57183ab23600f5107f0cc2007a223bbea994de8e876041974f"
          },
          "sequence": 4294967295
        }
      ],
      "vout": [
        {
          "value": 4.75917888,
          "n": 0,
          "scriptPubKey": {
            "asm": "OP_DUP OP_HASH160 8054d8d8dd6bce91125bcfe8bbb473f54afcdc60 OP_EQUALVERIFY OP_CHECKSIG",
            "hex": "76a9148054d8d8dd6bce91125bcfe8bbb473f54afcdc6088ac",
            "reqSigs": 1,
            "type": "pubkeyhash",
            "addresses": [
              "LWvWQ3XMoipFsAqE1EZPQFUovLea7DC1ef"
            ]
          }
        }, 
        {
          "value": 3.17099425,
          "n": 1,
          "scriptPubKey": {
            "asm": "OP_DUP OP_HASH160 1e5321fb49e5ccf4e0042763377487dd1c4870f0 OP_EQUALVERIFY OP_CHECKSIG",
            "hex": "76a9141e5321fb49e5ccf4e0042763377487dd1c4870f088ac",
            "reqSigs": 1,
            "type": "pubkeyhash",
            "addresses": [
              "LMzJ88cKgHzYVeDNHF5Wp1hMMhZ1FRT4q5"
            ]
          }
        }, 
        {
          "value": 0.48561282,
          "n": 2,
          "scriptPubKey": {
            "asm": "OP_DUP OP_HASH160 5efe96e95264847958483b52ea01e0c9255b1389 OP_EQUALVERIFY OP_CHECKSIG",
            "hex": "76a9145efe96e95264847958483b52ea01e0c9255b138988ac",
            "reqSigs": 1,
            "type": "pubkeyhash",
            "addresses": [
              "LTtEmS6VvWA5LFW2VgBkNgXwmzpecvsmPw"
            ]
          }
        }
      ],
      "hex": "0100000002245fefbd0724ee78d23c821cd9da01df8397268a9b7a9bc16f1aeff3f69761dc000000006a47304402207cd961cd7ce84849beb27316538bbfdb363a1116aad6a2ada4ed1dd8f8ed7e440220233df28af1c5fb1c918b2868d068afc437e38e2ae1aaab7ecb75c1847ca2a32d0121039762aeac7f2dfa57183ab23600f5107f0cc2007a223bbea994de8e876041974fffffffff32757771472dd80be2b23b2639ef5b9bb3a1f495a9e5c8b04f84a286dc7cfb14010000006a473044022011ccfc5d32e4815c28adfabff33bf5fae573560c4c1390f35aab74f489df5241022047b68c01fe2d0a55c90c32275336eef313be4249581cf95ed841585fabf454f70121039762aeac7f2dfa57183ab23600f5107f0cc2007a223bbea994de8e876041974fffffffff0340ee5d1c000000001976a9148054d8d8dd6bce91125bcfe8bbb473f54afcdc6088aca18de612000000001976a9141e5321fb49e5ccf4e0042763377487dd1c4870f088ac82fce402000000001976a9145efe96e95264847958483b52ea01e0c9255b138988ac00000000"
    }, 
    {
      "txid": "f4da3128e9107719f3dd341e4e02a79d9a83cfdc4cf89b8f578549d01c497fb2",
      "hash": "f4da3128e9107719f3dd341e4e02a79d9a83cfdc4cf89b8f578549d01c497fb2",
      "version": 2,
      "size": 225,
      "vsize": 225,
      "locktime": 1358872,
      "vin": [
        {
          "txid": "e9da36a7e6668cf882bf88c082f1770dbfb730d475b90009259f8816ddfae819",
          "vout": 0,
          "scriptSig": {
            "asm": "304402202865159c03cbb39ece5f48f6ca437d2b5ae11c6bc2fb70ce61b691774aea791802207935bfb2b34787b84bb8613429904288f882f6f19e57206c23d1a6939e0aaf25[ALL] 02668c9df59a4f0f44b47b963e037fa90f5342296a9d237f2ffe3fe6f70ca93cde",
            "hex": "47304402202865159c03cbb39ece5f48f6ca437d2b5ae11c6bc2fb70ce61b691774aea791802207935bfb2b34787b84bb8613429904288f882f6f19e57206c23d1a6939e0aaf25012102668c9df59a4f0f44b47b963e037fa90f5342296a9d237f2ffe3fe6f70ca93cde"
          },
          "sequence": 4294967294
        }
      ],
      "vout": [
        {
          "value": 0.67978027,
          "n": 0,
          "scriptPubKey": {
            "asm": "OP_DUP OP_HASH160 73d0b465a4307993b8442b0a3ba50ff6dcd09f97 OP_EQUALVERIFY OP_CHECKSIG",
            "hex": "76a91473d0b465a4307993b8442b0a3ba50ff6dcd09f9788ac",
            "reqSigs": 1,
            "type": "pubkeyhash",
            "addresses": [
              "LVnKzL1iRgwsbUrLqCvNfsRfbkxcFxHHXy"
            ]
          }
        }, 
        {
          "value": 0.08000000,
          "n": 1,
          "scriptPubKey": {
            "asm": "OP_DUP OP_HASH160 a86ec2c832956a8e943088aa7e2dcc40ba1bff9a OP_EQUALVERIFY OP_CHECKSIG",
            "hex": "76a914a86ec2c832956a8e943088aa7e2dcc40ba1bff9a88ac",
            "reqSigs": 1,
            "type": "pubkeyhash",
            "addresses": [
              "LaaYUEuHk8vtdfiQtCP4Z1igyEB62dzSjh"
            ]
          }
        }
      ],
      "hex": "020000000119e8fadd16889f250900b975d430b7bf0d77f182c088bf82f88c66e6a736dae9000000006a47304402202865159c03cbb39ece5f48f6ca437d2b5ae11c6bc2fb70ce61b691774aea791802207935bfb2b34787b84bb8613429904288f882f6f19e57206c23d1a6939e0aaf25012102668c9df59a4f0f44b47b963e037fa90f5342296a9d237f2ffe3fe6f70ca93cdefeffffff022b430d04000000001976a91473d0b465a4307993b8442b0a3ba50ff6dcd09f9788ac00127a00000000001976a914a86ec2c832956a8e943088aa7e2dcc40ba1bff9a88ac18bc1400"
    }, 
    {
      "txid": "79d82676900c7f9041aba24cf021b95618038726ec2a71e8e6090c6bacb5fb86",
      "hash": "79d82676900c7f9041aba24cf021b95618038726ec2a71e8e6090c6bacb5fb86",
      "version": 2,
      "size": 223,
      "vsize": 223,
      "locktime": 1358845,
      "vin": [
        {
          "txid": "356ebe6439013447d42452ef41bd5bb00a8803731cc712f87251440e97217b2c",
          "vout": 1,
          "scriptSig": {
            "asm": "304402204aa817473fa02acd7f23cccec37ca54835fc1cee97c178160d7ab66ed567241d022006295e5ffd4ddbbcfae1b896b65dd5860d9ce29ba29280837aad0efc64429fc9[ALL] 03ea67755551baeed92b9a82b6246e65629224bfd531afab32bdedc11683257aef",
            "hex": "47304402204aa817473fa02acd7f23cccec37ca54835fc1cee97c178160d7ab66ed567241d022006295e5ffd4ddbbcfae1b896b65dd5860d9ce29ba29280837aad0efc64429fc9012103ea67755551baeed92b9a82b6246e65629224bfd531afab32bdedc11683257aef"
          },
          "sequence": 4294967294
        }
      ],
      "vout": [
        {
          "value": 0.62357600,
          "n": 0,
          "scriptPubKey": {
            "asm": "OP_DUP OP_HASH160 890dc62195ae688a3bb06b4f50f409fea774276f OP_EQUALVERIFY OP_CHECKSIG",
            "hex": "76a914890dc62195ae688a3bb06b4f50f409fea774276f88ac",
            "reqSigs": 1,
            "type": "pubkeyhash",
            "addresses": [
              "LXidLXP1n3FPEDeW6A86sUWSDAxZrLngjm"
            ]
          }
        }, 
        {
          "value": 0.07420000,
          "n": 1,
          "scriptPubKey": {
            "asm": "OP_HASH160 7f157b49ccd4dacc4af6dd6fd2995a05f690a2fc OP_EQUAL",
            "hex": "a9147f157b49ccd4dacc4af6dd6fd2995a05f690a2fc87",
            "reqSigs": 1,
            "type": "scripthash",
            "addresses": [
              "MKV7nMqPSLCd4etTVhenjxACLSJFce3beT"
            ]
          }
        }
      ],
      "hex": "02000000012c7b21970e445172f812c71c7303880ab05bbd41ef5224d44734013964be6e35010000006a47304402204aa817473fa02acd7f23cccec37ca54835fc1cee97c178160d7ab66ed567241d022006295e5ffd4ddbbcfae1b896b65dd5860d9ce29ba29280837aad0efc64429fc9012103ea67755551baeed92b9a82b6246e65629224bfd531afab32bdedc11683257aeffeffffff026080b703000000001976a914890dc62195ae688a3bb06b4f50f409fea774276f88ac603871000000000017a9147f157b49ccd4dacc4af6dd6fd2995a05f690a2fc87fdbb1400"
    }, 
    {
      "txid": "8ebf90236eb9cb6c9d931ebe9f0c6c6b23d458a74645b8fd1a97dc90ce1759f0",
      "hash": "8ebf90236eb9cb6c9d931ebe9f0c6c6b23d458a74645b8fd1a97dc90ce1759f0",
      "version": 2,
      "size": 223,
      "vsize": 223,
      "locktime": 1358776,
      "vin": [
        {
          "txid": "f63f885ea53b865c3254ba8d45678e15b001845042e4ecd3be427cf78b6353b3",
          "vout": 1,
          "scriptSig": {
            "asm": "30440220629dd1fd284377ba573a0afa824df4c20649c340393a3a8d32b4ab7ae050f8c8022000e99107bb29f7be194155fdef8c06b14688736b2694c4b532b5c37e9a18f14e[ALL] 025726364e230c5b04aa45c99debb83b897b816ab4332fc960e0d54dd7ae50a860",
            "hex": "4730440220629dd1fd284377ba573a0afa824df4c20649c340393a3a8d32b4ab7ae050f8c8022000e99107bb29f7be194155fdef8c06b14688736b2694c4b532b5c37e9a18f14e0121025726364e230c5b04aa45c99debb83b897b816ab4332fc960e0d54dd7ae50a860"
          },
          "sequence": 4294967294
        }
      ],
      "vout": [
        {
          "value": 4.24492800,
          "n": 0,
          "scriptPubKey": {
            "asm": "OP_DUP OP_HASH160 7ce02c9018b07d8f7112f54b175d9e765af24c59 OP_EQUALVERIFY OP_CHECKSIG",
            "hex": "76a9147ce02c9018b07d8f7112f54b175d9e765af24c5988ac",
            "reqSigs": 1,
            "type": "pubkeyhash",
            "addresses": [
              "LWcEbtST3KSL3nohFLm7JU1ogqXZ9GAcJP"
            ]
          }
        }, 
        {
          "value": 0.07420000,
          "n": 1,
          "scriptPubKey": {
            "asm": "OP_HASH160 700ca76e62ed8f03df8dfddb619fba20c1acecef OP_EQUAL",
            "hex": "a914700ca76e62ed8f03df8dfddb619fba20c1acecef87",
            "reqSigs": 1,
            "type": "scripthash",
            "addresses": [
              "MJ7d58dvVbxF1yi8H661FTuRgtGF7kk3Kb"
            ]
          }
        }
      ],
      "hex": "0200000001b353638bf77c42bed3ece442508401b0158e67458dba54325c863ba55e883ff6010000006a4730440220629dd1fd284377ba573a0afa824df4c20649c340393a3a8d32b4ab7ae050f8c8022000e99107bb29f7be194155fdef8c06b14688736b2694c4b532b5c37e9a18f14e0121025726364e230c5b04aa45c99debb83b897b816ab4332fc960e0d54dd7ae50a860feffffff02003f4d19000000001976a9147ce02c9018b07d8f7112f54b175d9e765af24c5988ac603871000000000017a914700ca76e62ed8f03df8dfddb619fba20c1acecef87b8bb1400"
    }, 
    {
      "txid": "1e0811fcc3898e5324e5702c2c09701651464127737a766dd65eb04f119e2047",
      "hash": "1e0811fcc3898e5324e5702c2c09701651464127737a766dd65eb04f119e2047",
      "version": 1,
      "size": 225,
      "vsize": 225,
      "locktime": 0,
      "vin": [
        {
          "txid": "e4fe9c365f67873c41ad17507316a46fe96c1b19254f8f2e8ae3a07e2d3adce1",
          "vout": 1,
          "scriptSig": {
            "asm": "3044022056b803410690407cfd37d6f669baa92e1aacb4805c633ed9f6fb54f375ccea0f02201b72024c2a0d155c1a7ad0cfc340b0cb656cb4bc63263061edbd3a70a9c6a414[ALL] 027bf77d1872447193d55ccee4caffa3382890cd635faba55c30fb60cd6c410b95",
            "hex": "473044022056b803410690407cfd37d6f669baa92e1aacb4805c633ed9f6fb54f375ccea0f02201b72024c2a0d155c1a7ad0cfc340b0cb656cb4bc63263061edbd3a70a9c6a4140121027bf77d1872447193d55ccee4caffa3382890cd635faba55c30fb60cd6c410b95"
          },
          "sequence": 4294967295
        }
      ],
      "vout": [
        {
          "value": 0.00055026,
          "n": 0,
          "scriptPubKey": {
            "asm": "OP_DUP OP_HASH160 eccd59a0da8cf12a91faa5b1425944c6e33e0bee OP_EQUALVERIFY OP_CHECKSIG",
            "hex": "76a914eccd59a0da8cf12a91faa5b1425944c6e33e0bee88ac",
            "reqSigs": 1,
            "type": "pubkeyhash",
            "addresses": [
              "Lgp3jTgSZEHWQqupiiHuYSkRVsP4smShVd"
            ]
          }
        }, 
        {
          "value": 0.06251153,
          "n": 1,
          "scriptPubKey": {
            "asm": "OP_DUP OP_HASH160 2b96a97d6ca49b76981a8d071ca55d5aa0b18823 OP_EQUALVERIFY OP_CHECKSIG",
            "hex": "76a9142b96a97d6ca49b76981a8d071ca55d5aa0b1882388ac",
            "reqSigs": 1,
            "type": "pubkeyhash",
            "addresses": [
              "LPCRoeQxZNoLhNjDtfoCuJo6fKp7HZso4W"
            ]
          }
        }
      ],
      "hex": "0100000001e1dc3a2d7ea0e38a2e8f4f25191b6ce96fa416735017ad413c87675f369cfee4010000006a473044022056b803410690407cfd37d6f669baa92e1aacb4805c633ed9f6fb54f375ccea0f02201b72024c2a0d155c1a7ad0cfc340b0cb656cb4bc63263061edbd3a70a9c6a4140121027bf77d1872447193d55ccee4caffa3382890cd635faba55c30fb60cd6c410b95ffffffff02f2d60000000000001976a914eccd59a0da8cf12a91faa5b1425944c6e33e0bee88ac91625f00000000001976a9142b96a97d6ca49b76981a8d071ca55d5aa0b1882388ac00000000"
    }, 
    {
      "txid": "183d36cebf6a1173da58a17356458aca50ddc6c1c944a68c81c60cfab727ce5e",
      "hash": "183d36cebf6a1173da58a17356458aca50ddc6c1c944a68c81c60cfab727ce5e",
      "version": 1,
      "size": 225,
      "vsize": 225,
      "locktime": 0,
      "vin": [
        {
          "txid": "ba7304052c98f08efca41e2f9dbfb3d7db7aa2012d7079afe3175dec38a562da",
          "vout": 0,
          "scriptSig": {
            "asm": "30440220574105a9d830481abd9f689059a852a18162a8ecf7466eb314dadca0da424a0802202720911af69904d4b61faa75868eb1522ccd2f8c37313ebaf87f34ae87c39660[ALL] 033a33baf665d99733a7b1ebc1f8512234095d06a6d31ab3a6e1b7735f613ccdd3",
            "hex": "4730440220574105a9d830481abd9f689059a852a18162a8ecf7466eb314dadca0da424a0802202720911af69904d4b61faa75868eb1522ccd2f8c37313ebaf87f34ae87c396600121033a33baf665d99733a7b1ebc1f8512234095d06a6d31ab3a6e1b7735f613ccdd3"
          },
          "sequence": 4294967295
        }
      ],
      "vout": [
        {
          "value": 0.99977400,
          "n": 0,
          "scriptPubKey": {
            "asm": "OP_DUP OP_HASH160 039f15c8fb1de8b02b0def491c6d01fa6d626579 OP_EQUALVERIFY OP_CHECKSIG",
            "hex": "76a914039f15c8fb1de8b02b0def491c6d01fa6d62657988ac",
            "reqSigs": 1,
            "type": "pubkeyhash",
            "addresses": [
              "LKZ6sDR9Y6645H3Qei2jqdBqpFgMrHCCza"
            ]
          }
        }, 
        {
          "value": 0.16977400,
          "n": 1,
          "scriptPubKey": {
            "asm": "OP_DUP OP_HASH160 996d2e4ad8d7f31e14bb4fe039d80d806d85acc8 OP_EQUALVERIFY OP_CHECKSIG",
            "hex": "76a914996d2e4ad8d7f31e14bb4fe039d80d806d85acc888ac",
            "reqSigs": 1,
            "type": "pubkeyhash",
            "addresses": [
              "LZDCSabhkXz8f9VhMcEWgauWqEFCHQzXUi"
            ]
          }
        }
      ],
      "hex": "0100000001da62a538ec5d17e3af79702d01a27adbd7b3bf9d2f1ea4fc8ef0982c050473ba000000006a4730440220574105a9d830481abd9f689059a852a18162a8ecf7466eb314dadca0da424a0802202720911af69904d4b61faa75868eb1522ccd2f8c37313ebaf87f34ae87c396600121033a33baf665d99733a7b1ebc1f8512234095d06a6d31ab3a6e1b7735f613ccdd3ffffffff02b888f505000000001976a914039f15c8fb1de8b02b0def491c6d01fa6d62657988acf80d0301000000001976a914996d2e4ad8d7f31e14bb4fe039d80d806d85acc888ac00000000"
    }, 
    {
      "txid": "b15d25336df7a58b9a1ff42360403ab47012a3206d6bb568aefe27c9ede86b7e",
      "hash": "b15d25336df7a58b9a1ff42360403ab47012a3206d6bb568aefe27c9ede86b7e",
      "version": 1,
      "size": 225,
      "vsize": 225,
      "locktime": 0,
      "vin": [
        {
          "txid": "80daba049e4725e7083a055e14542f9a02c563b9edd05e0533855dbc72636092",
          "vout": 0,
          "scriptSig": {
            "asm": "30440220440a0eb94e4a188e5c5dacce1f086ef79f4cccd1f07b3098701f36d426a03b6202200362d277bebd82339b237853f4a4c2d6f45edb5b088789748cf8419074c26c62[ALL] 02ffb735b524dbf5f9427bb223a7faec1d110600d4ce4e6337361ab24be5e58693",
            "hex": "4730440220440a0eb94e4a188e5c5dacce1f086ef79f4cccd1f07b3098701f36d426a03b6202200362d277bebd82339b237853f4a4c2d6f45edb5b088789748cf8419074c26c62012102ffb735b524dbf5f9427bb223a7faec1d110600d4ce4e6337361ab24be5e58693"
          },
          "sequence": 4294967295
        }
      ],
      "vout": [
        {
          "value": 0.12183000,
          "n": 0,
          "scriptPubKey": {
            "asm": "OP_DUP OP_HASH160 471f80ea62b881e9247dd4e2745a3ec75fc783d0 OP_EQUALVERIFY OP_CHECKSIG",
            "hex": "76a914471f80ea62b881e9247dd4e2745a3ec75fc783d088ac",
            "reqSigs": 1,
            "type": "pubkeyhash",
            "addresses": [
              "LRi1yjs4xtYmxj9bfrMSyJpqEzK1pqnvpw"
            ]
          }
        }, 
        {
          "value": 0.00066200,
          "n": 1,
          "scriptPubKey": {
            "asm": "OP_DUP OP_HASH160 dcc6d2a29cc6fa420ee094fb20872dd7c8a3237c OP_EQUALVERIFY OP_CHECKSIG",
            "hex": "76a914dcc6d2a29cc6fa420ee094fb20872dd7c8a3237c88ac",
            "reqSigs": 1,
            "type": "pubkeyhash",
            "addresses": [
              "LfMK6sA8d2mnxwb5QuiuDuGeX5xqkMU6P7"
            ]
          }
        }
      ],
      "hex": "010000000192606372bc5d8533055ed0edb963c5029a2f54145e053a08e725479e04bada80000000006a4730440220440a0eb94e4a188e5c5dacce1f086ef79f4cccd1f07b3098701f36d426a03b6202200362d277bebd82339b237853f4a4c2d6f45edb5b088789748cf8419074c26c62012102ffb735b524dbf5f9427bb223a7faec1d110600d4ce4e6337361ab24be5e58693ffffffff02d8e5b900000000001976a914471f80ea62b881e9247dd4e2745a3ec75fc783d088ac98020100000000001976a914dcc6d2a29cc6fa420ee094fb20872dd7c8a3237c88ac00000000"
    }, 
    {
      "txid": "ea6d2d20ac70b23cd295b9bd729d6c647f063545cad08245beaf01138ea97fb6",
      "hash": "ea6d2d20ac70b23cd295b9bd729d6c647f063545cad08245beaf01138ea97fb6",
      "version": 1,
      "size": 225,
      "vsize": 225,
      "locktime": 0,
      "vin": [
        {
          "txid": "5dce907248c2e0b4ccf99023fa112293fef9b30314cf76584f616c82e498ae57",
          "vout": 1,
          "scriptSig": {
            "asm": "3044022060b43c132542a5994ebc4112687bd0ad143b06199d5b0f8f977d8eae07e906880220267f14b17c00e5cbf35e0dc02725b4b3572bbcdfc7e85c924f5671d82c76686f[ALL] 039abc62322e7443ffc6cc85c69635814dedcd4400211d3da4df26ac3187ab17fe",
            "hex": "473044022060b43c132542a5994ebc4112687bd0ad143b06199d5b0f8f977d8eae07e906880220267f14b17c00e5cbf35e0dc02725b4b3572bbcdfc7e85c924f5671d82c76686f0121039abc62322e7443ffc6cc85c69635814dedcd4400211d3da4df26ac3187ab17fe"
          },
          "sequence": 4294967295
        }
      ],
      "vout": [
        {
          "value": 0.98543742,
          "n": 0,
          "scriptPubKey": {
            "asm": "OP_DUP OP_HASH160 ba85b521a8fdfa5152585e720fa5b38bfe84f90a OP_EQUALVERIFY OP_CHECKSIG",
            "hex": "76a914ba85b521a8fdfa5152585e720fa5b38bfe84f90a88ac",
            "reqSigs": 1,
            "type": "pubkeyhash",
            "addresses": [
              "LcEC84EWNJ7okDcjJhFLKjZPKnjAsVBEeV"
            ]
          }
        }, 
        {
          "value": 0.01411058,
          "n": 1,
          "scriptPubKey": {
            "asm": "OP_DUP OP_HASH160 0740c790cf3699775395021e7bc22204e454c785 OP_EQUALVERIFY OP_CHECKSIG",
            "hex": "76a9140740c790cf3699775395021e7bc22204e454c78588ac",
            "reqSigs": 1,
            "type": "pubkeyhash",
            "addresses": [
              "LKtJbX19Qv5fzbmvvXrbJHVhM2UUgTDXPF"
            ]
          }
        }
      ],
      "hex": "010000000157ae98e4826c614f5876cf1403b3f9fe932211fa2390f9ccb4e0c2487290ce5d010000006a473044022060b43c132542a5994ebc4112687bd0ad143b06199d5b0f8f977d8eae07e906880220267f14b17c00e5cbf35e0dc02725b4b3572bbcdfc7e85c924f5671d82c76686f0121039abc62322e7443ffc6cc85c69635814dedcd4400211d3da4df26ac3187ab17feffffffff027ea8df05000000001976a914ba85b521a8fdfa5152585e720fa5b38bfe84f90a88acf2871500000000001976a9140740c790cf3699775395021e7bc22204e454c78588ac00000000"
    }, 
    {
      "txid": "0ed3356463d24c73a8fd73a335ad291959089935d65a4ae036c6aca85f13b1d0",
      "hash": "0ed3356463d24c73a8fd73a335ad291959089935d65a4ae036c6aca85f13b1d0",
      "version": 1,
      "size": 225,
      "vsize": 225,
      "locktime": 0,
      "vin": [
        {
          "txid": "4628e56c8731e3635fd11d930a58902f06d86682a708cce61f98f2de37e9985e",
          "vout": 13,
          "scriptSig": {
            "asm": "30440220741ab8b850a469982882fb1e2052cdb04d25d54a470725fff57d1ffee3c767c602201e00c3a4f8ba6130f534689361eeeee900ab9fe874e2359b61ee55015522af87[ALL] 028dc9f092205401fe16a89e52dc549720f372cff760ed36917841554faab04c7b",
            "hex": "4730440220741ab8b850a469982882fb1e2052cdb04d25d54a470725fff57d1ffee3c767c602201e00c3a4f8ba6130f534689361eeeee900ab9fe874e2359b61ee55015522af870121028dc9f092205401fe16a89e52dc549720f372cff760ed36917841554faab04c7b"
          },
          "sequence": 4294967295
        }
      ],
      "vout": [
        {
          "value": 0.02367145,
          "n": 0,
          "scriptPubKey": {
            "asm": "OP_DUP OP_HASH160 b4036c091e921a305e9b54c794dbd2f8433e5f90 OP_EQUALVERIFY OP_CHECKSIG",
            "hex": "76a914b4036c091e921a305e9b54c794dbd2f8433e5f9088ac",
            "reqSigs": 1,
            "type": "pubkeyhash",
            "addresses": [
              "LbdmzWRqd2uD1UTzxSdbsMgeAgjjZoPh7E"
            ]
          }
        }, 
        {
          "value": 0.25880955,
          "n": 1,
          "scriptPubKey": {
            "asm": "OP_DUP OP_HASH160 658b92af1e6e38d43f2231f4cde3d7cdf40e69b2 OP_EQUALVERIFY OP_CHECKSIG",
            "hex": "76a914658b92af1e6e38d43f2231f4cde3d7cdf40e69b288ac",
            "reqSigs": 1,
            "type": "pubkeyhash",
            "addresses": [
              "LUUsiHi1EQFBDsPTdjrd69z1VYbz5edk7P"
            ]
          }
        }
      ],
      "hex": "01000000015e98e937def2981fe6cc08a78266d8062f90580a931dd15f63e331876ce528460d0000006a4730440220741ab8b850a469982882fb1e2052cdb04d25d54a470725fff57d1ffee3c767c602201e00c3a4f8ba6130f534689361eeeee900ab9fe874e2359b61ee55015522af870121028dc9f092205401fe16a89e52dc549720f372cff760ed36917841554faab04c7bffffffff02a91e2400000000001976a914b4036c091e921a305e9b54c794dbd2f8433e5f9088ac7be98a01000000001976a914658b92af1e6e38d43f2231f4cde3d7cdf40e69b288ac00000000"
    }, 
    {
      "txid": "a5f1b949780de2235ade62615076b76ed55e7707c741f8e43184b1a06b9f2ad3",
      "hash": "a5f1b949780de2235ade62615076b76ed55e7707c741f8e43184b1a06b9f2ad3",
      "version": 2,
      "size": 225,
      "vsize": 225,
      "locktime": 1358873,
      "vin": [
        {
          "txid": "388c2f847bc6f89f52c1a212b9a8422ca93310289db5c725c2674b77b6c6569f",
          "vout": 1,
          "scriptSig": {
            "asm": "304402200eebfc3464fe80e97c358d4059fc39d4c6a185c6a8990f50f35cdef4ede6ef6202204d85ebce483a0fb56e88e637a465748fb7a67e6477b320af1dc9079a6f341f9d[ALL] 03c7132adcbad48a580efa03d4b6975dc379290ac58a9f507f2935e9b6819bcca0",
            "hex": "47304402200eebfc3464fe80e97c358d4059fc39d4c6a185c6a8990f50f35cdef4ede6ef6202204d85ebce483a0fb56e88e637a465748fb7a67e6477b320af1dc9079a6f341f9d012103c7132adcbad48a580efa03d4b6975dc379290ac58a9f507f2935e9b6819bcca0"
          },
          "sequence": 4294967294
        }
      ],
      "vout": [
        {
          "value": 3.27773417,
          "n": 0,
          "scriptPubKey": {
            "asm": "OP_DUP OP_HASH160 07fd9d5e7cbee6cafd0fc5972a982ec2e6402e12 OP_EQUALVERIFY OP_CHECKSIG",
            "hex": "76a91407fd9d5e7cbee6cafd0fc5972a982ec2e6402e1288ac",
            "reqSigs": 1,
            "type": "pubkeyhash",
            "addresses": [
              "LKxCp1s64gtfWwVgm6eudu4g5Pbshd77PZ"
            ]
          }
        }, 
        {
          "value": 16.26076939,
          "n": 1,
          "scriptPubKey": {
            "asm": "OP_DUP OP_HASH160 8b5b9ebae45d3220dfd4455510b83138da898d5a OP_EQUALVERIFY OP_CHECKSIG",
            "hex": "76a9148b5b9ebae45d3220dfd4455510b83138da898d5a88ac",
            "reqSigs": 1,
            "type": "pubkeyhash",
            "addresses": [
              "LXvowkR8efVUJ3hjaLbbgAqtkeQWz2xtty"
            ]
          }
        }
      ],
      "hex": "02000000019f56c6b6774b67c225c7b59d281033a92c42a8b912a2c1529ff8c67b842f8c38010000006a47304402200eebfc3464fe80e97c358d4059fc39d4c6a185c6a8990f50f35cdef4ede6ef6202204d85ebce483a0fb56e88e637a465748fb7a67e6477b320af1dc9079a6f341f9d012103c7132adcbad48a580efa03d4b6975dc379290ac58a9f507f2935e9b6819bcca0feffffff02e96c8913000000001976a91407fd9d5e7cbee6cafd0fc5972a982ec2e6402e1288ac0bf7eb60000000001976a9148b5b9ebae45d3220dfd4455510b83138da898d5a88ac19bc1400"
    }, 
    {
      "txid": "d50322aa0c3d9b0ca10c07b1b1d179aa4ffbd29c2fb9d27d2e85249325482f29",
      "hash": "d50322aa0c3d9b0ca10c07b1b1d179aa4ffbd29c2fb9d27d2e85249325482f29",
      "version": 1,
      "size": 226,
      "vsize": 226,
      "locktime": 0,
      "vin": [
        {
          "txid": "5b6aa0053bf7a099ad443ccfb01b4751c013f88e4ec45b13f2e96422acb051ec",
          "vout": 1,
          "scriptSig": {
            "asm": "30450221009a5b43f4274ae10ea711f710f04d0668921856215984b4ec90b4a36c50ab83b902203fc0bbe096bdbf5173f807cd1953a4ade377296973e9acfbe958d1516452ae68[ALL] 039f690721aa7e973647247bbf45103ba29dcee0dc5d408389ced0b6cfa7f630fc",
            "hex": "4830450221009a5b43f4274ae10ea711f710f04d0668921856215984b4ec90b4a36c50ab83b902203fc0bbe096bdbf5173f807cd1953a4ade377296973e9acfbe958d1516452ae680121039f690721aa7e973647247bbf45103ba29dcee0dc5d408389ced0b6cfa7f630fc"
          },
          "sequence": 4294967295
        }
      ],
      "vout": [
        {
          "value": 0.73249923,
          "n": 0,
          "scriptPubKey": {
            "asm": "OP_DUP OP_HASH160 b983e42760b1eaa48f329ecbec6cd9b1cf5ed209 OP_EQUALVERIFY OP_CHECKSIG",
            "hex": "76a914b983e42760b1eaa48f329ecbec6cd9b1cf5ed20988ac",
            "reqSigs": 1,
            "type": "pubkeyhash",
            "addresses": [
              "Lc8sGfWCRnmNUPYqzXCmxWog8MwCsqRoWC"
            ]
          }
        }, 
        {
          "value": 0.01389841,
          "n": 1,
          "scriptPubKey": {
            "asm": "OP_DUP OP_HASH160 3fa31fef536b6d8d9ed0eafd2dc7c59c1a4c8ed0 OP_EQUALVERIFY OP_CHECKSIG",
            "hex": "76a9143fa31fef536b6d8d9ed0eafd2dc7c59c1a4c8ed088ac",
            "reqSigs": 1,
            "type": "pubkeyhash",
            "addresses": [
              "LR2SFQQVdNLFgTVD8dX4nGSYgXCHFSHyNv"
            ]
          }
        }
      ],
      "hex": "0100000001ec51b0ac2264e9f2135bc44e8ef813c051471bb0cf3c44ad99a0f73b05a06a5b010000006b4830450221009a5b43f4274ae10ea711f710f04d0668921856215984b4ec90b4a36c50ab83b902203fc0bbe096bdbf5173f807cd1953a4ade377296973e9acfbe958d1516452ae680121039f690721aa7e973647247bbf45103ba29dcee0dc5d408389ced0b6cfa7f630fcffffffff0283b45d04000000001976a914b983e42760b1eaa48f329ecbec6cd9b1cf5ed20988ac11351500000000001976a9143fa31fef536b6d8d9ed0eafd2dc7c59c1a4c8ed088ac00000000"
    }, 
    {
      "txid": "b849498c9eff4b1e51ac8ea4966c27cbf68ed2dd1eea07d60e063cc8265a424a",
      "hash": "b849498c9eff4b1e51ac8ea4966c27cbf68ed2dd1eea07d60e063cc8265a424a",
      "version": 2,
      "size": 226,
      "vsize": 226,
      "locktime": 1358873,
      "vin": [
        {
          "txid": "f660f93e031f190b6b36d3234a1093c9120de411c390555adb925552649e3760",
          "vout": 1,
          "scriptSig": {
            "asm": "3045022100fbdfed390f58efbccdec5cbda7e4b377b5c38e712fcd0b4d9eaefa902078d03702202a6e418fd8620b85d334ee9614ff27f15932c462c54e694c7530b41786bacdfc[ALL] 02b25eb55c492e2bce7b069cb5d0e928be7106397a338892a34885ae605930d154",
            "hex": "483045022100fbdfed390f58efbccdec5cbda7e4b377b5c38e712fcd0b4d9eaefa902078d03702202a6e418fd8620b85d334ee9614ff27f15932c462c54e694c7530b41786bacdfc012102b25eb55c492e2bce7b069cb5d0e928be7106397a338892a34885ae605930d154"
          },
          "sequence": 4294967294
        }
      ],
      "vout": [
        {
          "value": 0.11438300,
          "n": 0,
          "scriptPubKey": {
            "asm": "OP_DUP OP_HASH160 eee2a3dc8231e28bc60b5b3f0c2f55dc85cfc967 OP_EQUALVERIFY OP_CHECKSIG",
            "hex": "76a914eee2a3dc8231e28bc60b5b3f0c2f55dc85cfc96788ac",
            "reqSigs": 1,
            "type": "pubkeyhash",
            "addresses": [
              "Lh14b6cyeUQyxsV5c9AHKHBBuKT4BAjxsu"
            ]
          }
        }, 
        {
          "value": 21.61171870,
          "n": 1,
          "scriptPubKey": {
            "asm": "OP_DUP OP_HASH160 a8bc2f1d296f572c8dd4230514f4f3f2b59b671f OP_EQUALVERIFY OP_CHECKSIG",
            "hex": "76a914a8bc2f1d296f572c8dd4230514f4f3f2b59b671f88ac",
            "reqSigs": 1,
            "type": "pubkeyhash",
            "addresses": [
              "Lac9DhN9gCqvd4oT3BYCPcGXKBgkof6Kzt"
            ]
          }
        }
      ],
      "hex": "020000000160379e64525592db5a5590c311e40d12c993104a23d3366b0b191f033ef960f6010000006b483045022100fbdfed390f58efbccdec5cbda7e4b377b5c38e712fcd0b4d9eaefa902078d03702202a6e418fd8620b85d334ee9614ff27f15932c462c54e694c7530b41786bacdfc012102b25eb55c492e2bce7b069cb5d0e928be7106397a338892a34885ae605930d154feffffff02dc88ae00000000001976a914eee2a3dc8231e28bc60b5b3f0c2f55dc85cfc96788ac9eddd080000000001976a914a8bc2f1d296f572c8dd4230514f4f3f2b59b671f88ac19bc1400"
    }, 
    {
      "txid": "1da5b26f0c5f198859dd0730a140bdc089341529fc2e2ccdce692bdc73809696",
      "hash": "1da5b26f0c5f198859dd0730a140bdc089341529fc2e2ccdce692bdc73809696",
      "version": 1,
      "size": 226,
      "vsize": 226,
      "locktime": 0,
      "vin": [
        {
          "txid": "794ac4c0aac74311057e30d7e11bbce1e1096fdaf73096308c6fdc6f3e4262dd",
          "vout": 0,
          "scriptSig": {
            "asm": "3045022100803f25a95f51ead2de0249d069515f3b0c261302c54ba8af27344e0ab806d18102205253d78733983bc812714a4d7d66c14ee6433f1c0dcd1722edfe940076bb45ea[ALL] 02ba30b2350e4a695cfb02a95bcc3576f59274529b5aac8bcfa1c576e0e5dbb8e7",
            "hex": "483045022100803f25a95f51ead2de0249d069515f3b0c261302c54ba8af27344e0ab806d18102205253d78733983bc812714a4d7d66c14ee6433f1c0dcd1722edfe940076bb45ea012102ba30b2350e4a695cfb02a95bcc3576f59274529b5aac8bcfa1c576e0e5dbb8e7"
          },
          "sequence": 4294967295
        }
      ],
      "vout": [
        {
          "value": 5.21720089,
          "n": 0,
          "scriptPubKey": {
            "asm": "OP_DUP OP_HASH160 bbb8d0ba132e23023628534fd0b85d36d7c87ae3 OP_EQUALVERIFY OP_CHECKSIG",
            "hex": "76a914bbb8d0ba132e23023628534fd0b85d36d7c87ae388ac",
            "reqSigs": 1,
            "type": "pubkeyhash",
            "addresses": [
              "LcLY2HCqFGq41hcGKbhuAzkoTVBAjvoDXH"
            ]
          }
        }, 
        {
          "value": 5.41557145,
          "n": 1,
          "scriptPubKey": {
            "asm": "OP_DUP OP_HASH160 10e8f0149bde3c38e9141c08c77edcc6f071d5e5 OP_EQUALVERIFY OP_CHECKSIG",
            "hex": "76a91410e8f0149bde3c38e9141c08c77edcc6f071d5e588ac",
            "reqSigs": 1,
            "type": "pubkeyhash",
            "addresses": [
              "LLmN85uVp3sLmGG39bkTq51cDaza9FuCPz"
            ]
          }
        }
      ],
      "hex": "0100000001dd62423e6fdc6f8c309630f7da6f09e1e1bc1be1d7307e051143c7aac0c44a79000000006b483045022100803f25a95f51ead2de0249d069515f3b0c261302c54ba8af27344e0ab806d18102205253d78733983bc812714a4d7d66c14ee6433f1c0dcd1722edfe940076bb45ea012102ba30b2350e4a695cfb02a95bcc3576f59274529b5aac8bcfa1c576e0e5dbb8e7ffffffff0219d1181f000000001976a914bbb8d0ba132e23023628534fd0b85d36d7c87ae388ac99814720000000001976a91410e8f0149bde3c38e9141c08c77edcc6f071d5e588ac00000000"
    }, 
    {
      "txid": "1da0552f8796f5db6f104fadf618af41565b98a295b70d23559c0e3cc2c72fdc",
      "hash": "1da0552f8796f5db6f104fadf618af41565b98a295b70d23559c0e3cc2c72fdc",
      "version": 2,
      "size": 224,
      "vsize": 224,
      "locktime": 1358872,
      "vin": [
        {
          "txid": "fb8c1264bec4554da7e4e54c3221ebdd6f8c3b4cdd576e5ef6838c8e392f53a3",
          "vout": 0,
          "scriptSig": {
            "asm": "3045022100c8a66d6175199e5b6d30960df525236276698ee200ec49cc0bf66cb4d1f1ec4b0220390f757afe97b5111e2b93e6e8f833c4da4a527e80b413a9405c9f1486235656[ALL] 022085ae4947e19bdd12840a6d9ef23cdc926babcdf640638f6062a0c1c90ebda0",
            "hex": "483045022100c8a66d6175199e5b6d30960df525236276698ee200ec49cc0bf66cb4d1f1ec4b0220390f757afe97b5111e2b93e6e8f833c4da4a527e80b413a9405c9f14862356560121022085ae4947e19bdd12840a6d9ef23cdc926babcdf640638f6062a0c1c90ebda0"
          },
          "sequence": 4294967294
        }
      ],
      "vout": [
        {
          "value": 1.62942568,
          "n": 0,
          "scriptPubKey": {
            "asm": "OP_DUP OP_HASH160 2a6e7a652bbdbb6704f1946001e82ca8e23db8c0 OP_EQUALVERIFY OP_CHECKSIG",
            "hex": "76a9142a6e7a652bbdbb6704f1946001e82ca8e23db8c088ac",
            "reqSigs": 1,
            "type": "pubkeyhash",
            "addresses": [
              "LP6JzRWBaZ7kQJjS31puTnQ6Qv1RrFdVvs"
            ]
          }
        }, 
        {
          "value": 0.09900000,
          "n": 1,
          "scriptPubKey": {
            "asm": "OP_HASH160 cf41294b777461e0426ad65ef197d671d8adc666 OP_EQUAL",
            "hex": "a914cf41294b777461e0426ad65ef197d671d8adc66687",
            "reqSigs": 1,
            "type": "scripthash",
            "addresses": [
              "MSo2AdGXVCVE45SHUDXf8DXyqcbbXi7WZd"
            ]
          }
        }
      ],
      "hex": "0200000001a3532f398e8c83f65e6e57dd4c3b8c6fddeb21324ce5e4a74d55c4be64128cfb000000006b483045022100c8a66d6175199e5b6d30960df525236276698ee200ec49cc0bf66cb4d1f1ec4b0220390f757afe97b5111e2b93e6e8f833c4da4a527e80b413a9405c9f14862356560121022085ae4947e19bdd12840a6d9ef23cdc926babcdf640638f6062a0c1c90ebda0feffffff02684eb609000000001976a9142a6e7a652bbdbb6704f1946001e82ca8e23db8c088ace00f97000000000017a914cf41294b777461e0426ad65ef197d671d8adc6668718bc1400"
    }, 
    {
      "txid": "da498e798b9ff0d9935bc8f248a8be00559b92afee6b723c3c37b469b8ed64f4",
      "hash": "da498e798b9ff0d9935bc8f248a8be00559b92afee6b723c3c37b469b8ed64f4",
      "version": 1,
      "size": 226,
      "vsize": 226,
      "locktime": 0,
      "vin": [
        {
          "txid": "ea40e54e2f782816e027533d40a2e6f41fe3b03617db9f20bb6d66fa9d23f198",
          "vout": 1,
          "scriptSig": {
            "asm": "3045022100836c4e0b5e828deb2ecf14936111c4ee663ab539c51d227837df69fa6433191d02205d2be7f0dcf337a1f0aeb71e6c91c797f0b5dcb270537cb88421b35e990e2cac[ALL] 02b367f0149b3d68996c2b0a0c8e977f4a9b0efecb61372a1122c49f9ac5836c03",
            "hex": "483045022100836c4e0b5e828deb2ecf14936111c4ee663ab539c51d227837df69fa6433191d02205d2be7f0dcf337a1f0aeb71e6c91c797f0b5dcb270537cb88421b35e990e2cac012102b367f0149b3d68996c2b0a0c8e977f4a9b0efecb61372a1122c49f9ac5836c03"
          },
          "sequence": 4294967295
        }
      ],
      "vout": [
        {
          "value": 0.52193234,
          "n": 0,
          "scriptPubKey": {
            "asm": "OP_DUP OP_HASH160 575786bdfcd9fe180a52dc5c8e6288946d128368 OP_EQUALVERIFY OP_CHECKSIG",
            "hex": "76a914575786bdfcd9fe180a52dc5c8e6288946d12836888ac",
            "reqSigs": 1,
            "type": "pubkeyhash",
            "addresses": [
              "LTBmuLbkZyYXNC3gJw9iBtDRy2sq6SoqHR"
            ]
          }
        }, 
        {
          "value": 0.00274634,
          "n": 1,
          "scriptPubKey": {
            "asm": "OP_DUP OP_HASH160 ad45bef5d2cab6ffce85d0c15fa6ccd02cc5ca4e OP_EQUALVERIFY OP_CHECKSIG",
            "hex": "76a914ad45bef5d2cab6ffce85d0c15fa6ccd02cc5ca4e88ac",
            "reqSigs": 1,
            "type": "pubkeyhash",
            "addresses": [
              "Lb28iS2yLFLRcRy8HSSr8gYzrEJcxcQYyY"
            ]
          }
        }
      ],
      "hex": "010000000198f1239dfa666dbb209fdb1736b0e31ff4e6a2403d5327e01628782f4ee540ea010000006b483045022100836c4e0b5e828deb2ecf14936111c4ee663ab539c51d227837df69fa6433191d02205d2be7f0dcf337a1f0aeb71e6c91c797f0b5dcb270537cb88421b35e990e2cac012102b367f0149b3d68996c2b0a0c8e977f4a9b0efecb61372a1122c49f9ac5836c03ffffffff02d2671c03000000001976a914575786bdfcd9fe180a52dc5c8e6288946d12836888acca300400000000001976a914ad45bef5d2cab6ffce85d0c15fa6ccd02cc5ca4e88ac00000000"
    }, 
    {
      "txid": "1608d80491d11b9eaa73dba4c42e78c387012d0b7cd810b8b7b72957b80e5efc",
      "hash": "1608d80491d11b9eaa73dba4c42e78c387012d0b7cd810b8b7b72957b80e5efc",
      "version": 1,
      "size": 226,
      "vsize": 226,
      "locktime": 0,
      "vin": [
        {
          "txid": "dcd9efeeacfa37e8a264b448d3df75c786d4c2625a7c5ca4c53a608d749308a0",
          "vout": 73,
          "scriptSig": {
            "asm": "3045022100e6786941b485b43f9ced4a2fead6b6471441e84544de18613ba7e47d2642cc9c022049773b65126fe2d1d35259b0b63f42c3682427b194408d11a5c60a3ec2aa6b81[ALL] 03a9fb8f5b793f1c49f80c8ed52a0db219767262e7446ca318cd18f53ea2e6c9f8",
            "hex": "483045022100e6786941b485b43f9ced4a2fead6b6471441e84544de18613ba7e47d2642cc9c022049773b65126fe2d1d35259b0b63f42c3682427b194408d11a5c60a3ec2aa6b81012103a9fb8f5b793f1c49f80c8ed52a0db219767262e7446ca318cd18f53ea2e6c9f8"
          },
          "sequence": 4294967295
        }
      ],
      "vout": [
        {
          "value": 0.10000000,
          "n": 0,
          "scriptPubKey": {
            "asm": "OP_DUP OP_HASH160 ecbcbff45276e6ea712c66c92075c4c8ab87364e OP_EQUALVERIFY OP_CHECKSIG",
            "hex": "76a914ecbcbff45276e6ea712c66c92075c4c8ab87364e88ac",
            "reqSigs": 1,
            "type": "pubkeyhash",
            "addresses": [
              "Lgohr3zwz26WWDhsW2wDBo8yAcr2LNNP44"
            ]
          }
        }, 
        {
          "value": 0.00392161,
          "n": 1,
          "scriptPubKey": {
            "asm": "OP_DUP OP_HASH160 0420721d2796dd7999503594293b1c810b6988ba OP_EQUALVERIFY OP_CHECKSIG",
            "hex": "76a9140420721d2796dd7999503594293b1c810b6988ba88ac",
            "reqSigs": 1,
            "type": "pubkeyhash",
            "addresses": [
              "LKbmqMKHFK5KT7ydzaVkLNRndwp6Zce5gJ"
            ]
          }
        }
      ],
      "hex": "0100000001a00893748d603ac5a45c7c5a62c2d486c775dfd348b464a2e837faaceeefd9dc490000006b483045022100e6786941b485b43f9ced4a2fead6b6471441e84544de18613ba7e47d2642cc9c022049773b65126fe2d1d35259b0b63f42c3682427b194408d11a5c60a3ec2aa6b81012103a9fb8f5b793f1c49f80c8ed52a0db219767262e7446ca318cd18f53ea2e6c9f8ffffffff0280969800000000001976a914ecbcbff45276e6ea712c66c92075c4c8ab87364e88ace1fb0500000000001976a9140420721d2796dd7999503594293b1c810b6988ba88ac00000000"
    }
  ],
  "time": 1517204401,
  "mediantime": 1517203933,
  "nonce": 2863219493,
  "bits": "1a042eae",
  "difficulty": 4011378.762614286,
  "chainwork": "0000000000000000000000000000000000000000000000337a68023bcc09e5b6",
  "previousblockhash": "742a866178a9c8122ebae662b10710d6e960fef9d04aa41de2f4380c6193d071",
  "nextblockhash": "f50e3fdee29d689512163793b83e37d9649a6819a179e50c9db730865481b105"
}
