{
  "hash": "2f345464f4ab8c73624b73c095c198b06bb06a0ef84594d0ff63013f91dc2a0e",
  "confirmations": 1654,
  "strippedsize": 234,
  "size": 234,
  "weight": 936,
  "height": 1359340,
  "version": 536870912,
  "versionHex": "20000000",
  "merkleroot": "01eea26108f7b358e80d864b56d1f9f6459099f3b64ba747cfd9ec458698fdcc",
  "tx": [
    {
      "txid": "01eea26108f7b358e80d864b56d1f9f6459099f3b64ba747cfd9ec458698fdcc",
      "hash": "01eea26108f7b358e80d864b56d1f9f6459099f3b64ba747cfd9ec458698fdcc",
      "version": 1,
      "size": 153,
      "vsize": 153,
      "locktime": 0,
      "vin": [
        {
          "coinbase": "03ecbd14045a6fb0ae2cfabe6d6d28f20fc4ac52ed0176ae0092609d99d59ff4c3b3d576adfdadc4d97c112643914000000000000000042f4c502f085c00073a03000000",
          "sequence": 4294967295
        }
      ],
      "vout": [
        {
          "value": 25.00000000,
          "n": 0,
          "scriptPubKey": {
            "asm": "OP_DUP OP_HASH160 57757ed2ecf2052ff3126c397aca7defb9ca2cec OP_EQUALVERIFY OP_CHECKSIG",
            "hex": "76a91457757ed2ecf2052ff3126c397aca7defb9ca2cec88ac",
            "reqSigs": 1,
            "type": "pubkeyhash",
            "addresses": [
              "LTCPodGk5FwcJaRzH9yKnwicxzFUbxp6tN"
            ]
          }
        }
      ],
      "hex": "01000000010000000000000000000000000000000000000000000000000000000000000000ffffffff4403ecbd14045a6fb0ae2cfabe6d6d28f20fc4ac52ed0176ae0092609d99d59ff4c3b3d576adfdadc4d97c112643914000000000000000042f4c502f085c00073a03000000ffffffff0100f90295000000001976a91457757ed2ecf2052ff3126c397aca7defb9ca2cec88ac00000000"
    }
  ],
  "time": 1517269166,
  "mediantime": 1517268987,
  "nonce": 2198007489,
  "bits": "1a042eae",
  "difficulty": 4011378.762614286,
  "chainwork": "000000000000000000000000000000000000000000000033e9d3bc8ee732745a",
  "previousblockhash": "fc0ca68c7ae26cb32305949be826ff82c81c7edf044d9ba435975452e1585a73",
  "nextblockhash": "acf93a9f8ec29074b857c1003cff4bf97192c5864270e159418fde3be96f877f"
}
