{
  "hash": "2fa1866f31e401397d19255c8f2bde1953b7edc5ec1a58a715d195ae3e84558e",
  "confirmations": 3463,
  "strippedsize": 254,
  "size": 254,
  "weight": 1016,
  "height": 1357532,
  "version": 536870912,
  "versionHex": "20000000",
  "merkleroot": "2b03e22b5b7afac4b7d1e57948b1a99f9f02edaf71c2d9df81bd0d6ab357f870",
  "tx": [
    {
      "txid": "2b03e22b5b7afac4b7d1e57948b1a99f9f02edaf71c2d9df81bd0d6ab357f870",
      "hash": "2b03e22b5b7afac4b7d1e57948b1a99f9f02edaf71c2d9df81bd0d6ab357f870",
      "version": 1,
      "size": 173,
      "vsize": 173,
      "locktime": 0,
      "vin": [
        {
          "coinbase": "03dcb6141b4d696e656420627920416e74506f6f6c20626a302042205a6bd05dfabe6d6dfb93834549ac1a9f9c0de83d30892185628623b1b861f9cd7e17e7b8ddf96bc10400000000000000380f0000000000001c000000",
          "sequence": 4294967295
        }
      ],
      "vout": [
        {
          "value": 25.00000000,
          "n": 0,
          "scriptPubKey": {
            "asm": "OP_DUP OP_HASH160 0ff3ccc5e8be88afe24b5d634e5852d474dbdff1 OP_EQUALVERIFY OP_CHECKSIG",
            "hex": "76a9140ff3ccc5e8be88afe24b5d634e5852d474dbdff188ac",
            "reqSigs": 1,
            "type": "pubkeyhash",
            "addresses": [
              "LLgJTbzZMsRTCUF1NtvvL9SR1a4pVieW89"
            ]
          }
        }
      ],
      "hex": "01000000010000000000000000000000000000000000000000000000000000000000000000ffffffff5803dcb6141b4d696e656420627920416e74506f6f6c20626a302042205a6bd05dfabe6d6dfb93834549ac1a9f9c0de83d30892185628623b1b861f9cd7e17e7b8ddf96bc10400000000000000380f0000000000001c000000ffffffff0100f90295000000001976a9140ff3ccc5e8be88afe24b5d634e5852d474dbdff188ac00000000"
    }
  ],
  "time": 1517015133,
  "mediantime": 1517014349,
  "nonce": 3108738050,
  "bits": "1a047f14",
  "difficulty": 3731199.183374282,
  "chainwork": "0000000000000000000000000000000000000000000000324e6ced72eaad7172",
  "previousblockhash": "648b30053b29bb6d7330e9ff85c2c61adcbfa8b1255e255a9d7eba943c921640",
  "nextblockhash": "87b710bab9d78ef9f2ee95d2e800589d91878f98815648453ca0b173dd92dd90"
}
