{
  "hash": "300d24a0782dfd634f8a8615610b37063e188d565e59b3d7865f0e90fb725dff",
  "confirmations": 2530,
  "strippedsize": 253,
  "size": 253,
  "weight": 1012,
  "height": 1358465,
  "version": 536870912,
  "versionHex": "20000000",
  "merkleroot": "bbc45f7d38296215c54dc05537e8ec2e95d986738df47a5695f1616e59320044",
  "tx": [
    {
      "txid": "bbc45f7d38296215c54dc05537e8ec2e95d986738df47a5695f1616e59320044",
      "hash": "bbc45f7d38296215c54dc05537e8ec2e95d986738df47a5695f1616e59320044",
      "version": 1,
      "size": 172,
      "vsize": 172,
      "locktime": 0,
      "vin": [
        {
          "coinbase": "0381ba141a4d696e656420627920416e74506f6f6c20626a331f205a6dd007fabe6d6d3fa4ee2beeacab73f9299cacd4fc0279cd271fad484159e8bf4f852e64c3d2750400000000000000f5240000000000001c000000",
          "sequence": 4294967295
        }
      ],
      "vout": [
        {
          "value": 25.00000000,
          "n": 0,
          "scriptPubKey": {
            "asm": "OP_DUP OP_HASH160 0ff3ccc5e8be88afe24b5d634e5852d474dbdff1 OP_EQUALVERIFY OP_CHECKSIG",
            "hex": "76a9140ff3ccc5e8be88afe24b5d634e5852d474dbdff188ac",
            "reqSigs": 1,
            "type": "pubkeyhash",
            "addresses": [
              "LLgJTbzZMsRTCUF1NtvvL9SR1a4pVieW89"
            ]
          }
        }
      ],
      "hex": "01000000010000000000000000000000000000000000000000000000000000000000000000ffffffff570381ba141a4d696e656420627920416e74506f6f6c20626a331f205a6dd007fabe6d6d3fa4ee2beeacab73f9299cacd4fc0279cd271fad484159e8bf4f852e64c3d2750400000000000000f5240000000000001c000000ffffffff0100f90295000000001976a9140ff3ccc5e8be88afe24b5d634e5852d474dbdff188ac00000000"
    }
  ],
  "time": 1517146119,
  "mediantime": 1517145329,
  "nonce": 3702302148,
  "bits": "1a047f14",
  "difficulty": 3731199.183374282,
  "chainwork": "0000000000000000000000000000000000000000000000331decc4f8d8c7fc34",
  "previousblockhash": "1df85a263e3f4b7283b1134403ccd96a435b5ca64065e22914f577a0e9158242",
  "nextblockhash": "7dc84aee3f862185b5623153405c204c293cb05011c8cfab3459aed97a1d8afa"
}
