{
  "hash": "300de40a7fcbee3be573bb686134dbbc08a992c4c9a247e72ec58db241e54f0f",
  "confirmations": 2603,
  "strippedsize": 772,
  "size": 808,
  "weight": 3124,
  "height": 1358392,
  "version": 536870912,
  "versionHex": "20000000",
  "merkleroot": "920f5af2707d68f31414628573c3c98ae850d46be4f0ee1866f36e9a3ffe5425",
  "tx": [
    {
      "txid": "8ef7e3ac862285f7634d825e5c4ba9ec3160efea4b66a39dd872f4624ba217cd",
      "hash": "13535090dcbf0e9a14ca233478d0aa9ef135811d7dcd02f141bc457e97ef49a9",
      "version": 1,
      "size": 277,
      "vsize": 250,
      "locktime": 957868583,
      "vin": [
        {
          "coinbase": "0338ba142cfabe6d6da8c1eeb6fe121f709ec970f1eb026076f8144d1951f9d6d4547e924c6679f8ca08000000f09f909f104d696e6564206279206164617a65616c00000000000000000000000000000000000000000000000000000000000000000000",
          "sequence": 1
        }
      ],
      "vout": [
        {
          "value": 25.00045200,
          "n": 0,
          "scriptPubKey": {
            "asm": "OP_DUP OP_HASH160 aa3750aa18b8a0f3f0590731e1fab934856680cf OP_EQUALVERIFY OP_CHECKSIG",
            "hex": "76a914aa3750aa18b8a0f3f0590731e1fab934856680cf88ac",
            "reqSigs": 1,
            "type": "pubkeyhash",
            "addresses": [
              "LajyQBeZaBA1NkZDeY8YT5RYYVRkXMvb2T"
            ]
          }
        }, 
        {
          "value": 0.00000000,
          "n": 1,
          "scriptPubKey": {
            "asm": "OP_RETURN aa21a9ed7606c819565be5a203cafbc7be42a528f893dff7fbf9640e3ffc58c0a4cd5aeb 0000000000000000",
            "hex": "6a24aa21a9ed7606c819565be5a203cafbc7be42a528f893dff7fbf9640e3ffc58c0a4cd5aeb080000000000000000",
            "type": "nulldata"
          }
        }
      ],
      "hex": "010000000001010000000000000000000000000000000000000000000000000000000000000000ffffffff640338ba142cfabe6d6da8c1eeb6fe121f709ec970f1eb026076f8144d1951f9d6d4547e924c6679f8ca08000000f09f909f104d696e6564206279206164617a65616c00000000000000000000000000000000000000000000000000000000000000000000010000000290a90395000000001976a914aa3750aa18b8a0f3f0590731e1fab934856680cf88ac00000000000000002f6a24aa21a9ed7606c819565be5a203cafbc7be42a528f893dff7fbf9640e3ffc58c0a4cd5aeb0800000000000000000120000000000000000000000000000000000000000000000000000000000000000027ea1739"
    }, 
    {
      "txid": "7b69216f68e5251d89a25f6eb0cec38c9385bcecae1ec06334095041211b7996",
      "hash": "7b69216f68e5251d89a25f6eb0cec38c9385bcecae1ec06334095041211b7996",
      "version": 1,
      "size": 225,
      "vsize": 225,
      "locktime": 0,
      "vin": [
        {
          "txid": "9f184d1dc7c363c738b8c91a7a1d50ce3d0297da8e3505c7732890b2ad93f449",
          "vout": 1,
          "scriptSig": {
            "asm": "304402203610cb97d867d51f75c53b8c89ebbab04924d361e45b19eb1e764ce4b359b68a0220672159b9b8b98145354bf1303955ca87871627cd3a6a272d3ebd2f731727a30f[ALL] 0328cefe1d8deeab6378a0f6dc9e4c0130918460aeaf21bb10431098af2fb6d463",
            "hex": "47304402203610cb97d867d51f75c53b8c89ebbab04924d361e45b19eb1e764ce4b359b68a0220672159b9b8b98145354bf1303955ca87871627cd3a6a272d3ebd2f731727a30f01210328cefe1d8deeab6378a0f6dc9e4c0130918460aeaf21bb10431098af2fb6d463"
          },
          "sequence": 4294967295
        }
      ],
      "vout": [
        {
          "value": 0.00072535,
          "n": 0,
          "scriptPubKey": {
            "asm": "OP_DUP OP_HASH160 c1e266dc5b93947f15df2601189482af8406820c OP_EQUALVERIFY OP_CHECKSIG",
            "hex": "76a914c1e266dc5b93947f15df2601189482af8406820c88ac",
            "reqSigs": 1,
            "type": "pubkeyhash",
            "addresses": [
              "Lcu7tugXTm1RCL8iDEDvvSSNBQscZed7ZM"
            ]
          }
        }, 
        {
          "value": 0.13477400,
          "n": 1,
          "scriptPubKey": {
            "asm": "OP_DUP OP_HASH160 8ef660af3e342a76d9e97d672c09f9c64a4c085f OP_EQUALVERIFY OP_CHECKSIG",
            "hex": "76a9148ef660af3e342a76d9e97d672c09f9c64a4c085f88ac",
            "reqSigs": 1,
            "type": "pubkeyhash",
            "addresses": [
              "LYFsN5Ed5af1bCJKgU7346WryiHZmx26vR"
            ]
          }
        }
      ],
      "hex": "010000000149f493adb2902873c705358eda97023dce501d7a1ac9b838c763c3c71d4d189f010000006a47304402203610cb97d867d51f75c53b8c89ebbab04924d361e45b19eb1e764ce4b359b68a0220672159b9b8b98145354bf1303955ca87871627cd3a6a272d3ebd2f731727a30f01210328cefe1d8deeab6378a0f6dc9e4c0130918460aeaf21bb10431098af2fb6d463ffffffff02571b0100000000001976a914c1e266dc5b93947f15df2601189482af8406820c88ac18a6cd00000000001976a9148ef660af3e342a76d9e97d672c09f9c64a4c085f88ac00000000"
    }, 
    {
      "txid": "b239ca0d3fb22b438e73eeb100c77cb7c6ebcb4496bc2db05d62beba92efb7f2",
      "hash": "b239ca0d3fb22b438e73eeb100c77cb7c6ebcb4496bc2db05d62beba92efb7f2",
      "version": 1,
      "size": 225,
      "vsize": 225,
      "locktime": 0,
      "vin": [
        {
          "txid": "91a3ae839bfe7c8e15f36c874dd9583c1e9df90480d6cc2868abf1720663f950",
          "vout": 0,
          "scriptSig": {
            "asm": "30440220183c1f8af711df7d4c477364ed1da3fc576109b32e27561096c30bc0127d6db302201b259b8cd3c1d2da063f485e9bfef175d3fbe696fd47e19ac76d8e440ccda7f1[ALL] 02758b1a3a23bea498d9d8663022ef7cda16659844175a776cd76b145d56476bd4",
            "hex": "4730440220183c1f8af711df7d4c477364ed1da3fc576109b32e27561096c30bc0127d6db302201b259b8cd3c1d2da063f485e9bfef175d3fbe696fd47e19ac76d8e440ccda7f1012102758b1a3a23bea498d9d8663022ef7cda16659844175a776cd76b145d56476bd4"
          },
          "sequence": 4294967295
        }
      ],
      "vout": [
        {
          "value": 1.89510953,
          "n": 0,
          "scriptPubKey": {
            "asm": "OP_DUP OP_HASH160 a687cf9dd31de1dbe1b05dba38125d356acccb1a OP_EQUALVERIFY OP_CHECKSIG",
            "hex": "76a914a687cf9dd31de1dbe1b05dba38125d356acccb1a88ac",
            "reqSigs": 1,
            "type": "pubkeyhash",
            "addresses": [
              "LaQV8NTKREeF5iPEHBkGF3F9fmFBD6CBoG"
            ]
          }
        }, 
        {
          "value": 1.08039380,
          "n": 1,
          "scriptPubKey": {
            "asm": "OP_DUP OP_HASH160 debe8e2a0ceaf78f8cb5500857dd99d07cb5e322 OP_EQUALVERIFY OP_CHECKSIG",
            "hex": "76a914debe8e2a0ceaf78f8cb5500857dd99d07cb5e32288ac",
            "reqSigs": 1,
            "type": "pubkeyhash",
            "addresses": [
              "LfXiYpGRssjkhWHA4Gk7M634UYrZK2PMmN"
            ]
          }
        }
      ],
      "hex": "010000000150f9630672f1ab6828ccd68004f99d1e3c58d94d876cf3158e7cfe9b83aea391000000006a4730440220183c1f8af711df7d4c477364ed1da3fc576109b32e27561096c30bc0127d6db302201b259b8cd3c1d2da063f485e9bfef175d3fbe696fd47e19ac76d8e440ccda7f1012102758b1a3a23bea498d9d8663022ef7cda16659844175a776cd76b145d56476bd4ffffffff0229b54b0b000000001976a914a687cf9dd31de1dbe1b05dba38125d356acccb1a88acd48c7006000000001976a914debe8e2a0ceaf78f8cb5500857dd99d07cb5e32288ac00000000"
    }
  ],
  "time": 1517135044,
  "mediantime": 1517134470,
  "nonce": 3889662811,
  "bits": "1a047f14",
  "difficulty": 3731199.183374282,
  "chainwork": "0000000000000000000000000000000000000000000000330db08df83ee158ca",
  "previousblockhash": "2c8b4a8428ff9528ba02fefaa791bf2f08f9a80e23050a786f2076eba2a86d34",
  "nextblockhash": "664793a31edbaf54d90273643399b7d0a5b071064a4ada4fc74ef723979e4082"
}
