{
  "hash": "3045bf076b016f70635f92d17cdefff62dd29e1f4166ab3ab12326f63786d4a0",
  "confirmations": 2996,
  "strippedsize": 253,
  "size": 253,
  "weight": 1012,
  "height": 1357999,
  "version": 536870912,
  "versionHex": "20000000",
  "merkleroot": "a889bca575c42aee8c2b3499e96fb80427b65b2190cdc698dc7df22d98910b54",
  "tx": [
    {
      "txid": "a889bca575c42aee8c2b3499e96fb80427b65b2190cdc698dc7df22d98910b54",
      "hash": "a889bca575c42aee8c2b3499e96fb80427b65b2190cdc698dc7df22d98910b54",
      "version": 1,
      "size": 172,
      "vsize": 172,
      "locktime": 0,
      "vin": [
        {
          "coinbase": "03afb8141a4d696e656420627920416e74506f6f6c20626a3532205a6cb5defabe6d6d7cf6741da3ecf59e52a1d9de38f92b9d0eaad14f4fd6ac7b46cafcfef6a9f7e20400000000000000751c00000000000012000000",
          "sequence": 4294967295
        }
      ],
      "vout": [
        {
          "value": 25.00000000,
          "n": 0,
          "scriptPubKey": {
            "asm": "OP_DUP OP_HASH160 0ff3ccc5e8be88afe24b5d634e5852d474dbdff1 OP_EQUALVERIFY OP_CHECKSIG",
            "hex": "76a9140ff3ccc5e8be88afe24b5d634e5852d474dbdff188ac",
            "reqSigs": 1,
            "type": "pubkeyhash",
            "addresses": [
              "LLgJTbzZMsRTCUF1NtvvL9SR1a4pVieW89"
            ]
          }
        }
      ],
      "hex": "01000000010000000000000000000000000000000000000000000000000000000000000000ffffffff5703afb8141a4d696e656420627920416e74506f6f6c20626a3532205a6cb5defabe6d6d7cf6741da3ecf59e52a1d9de38f92b9d0eaad14f4fd6ac7b46cafcfef6a9f7e20400000000000000751c00000000000012000000ffffffff0100f90295000000001976a9140ff3ccc5e8be88afe24b5d634e5852d474dbdff188ac00000000"
    }
  ],
  "time": 1517073886,
  "mediantime": 1517073519,
  "nonce": 125850759,
  "bits": "1a047f14",
  "difficulty": 3731199.183374282,
  "chainwork": "000000000000000000000000000000000000000000000032b64950d1f0cf94e0",
  "previousblockhash": "6b97a9993f33c94033cecc0303dff9f6aa519c6f1f853335dd5e13efc603854c",
  "nextblockhash": "0e2a769319dbd7a20b39122bc603931c0230bd0c3562c3ea4ba4435187c5395b"
}
