{
  "hash": "307b9abe8cf59c6e1852ccbf63f15e5f8ce325c90bd550e27c1483ae8fb0ef21",
  "confirmations": 2884,
  "strippedsize": 253,
  "size": 253,
  "weight": 1012,
  "height": 1358111,
  "version": 536870912,
  "versionHex": "20000000",
  "merkleroot": "261d9a1874a84f626e71f061f170bba00420b668e54757b3a8a5f9524679cfd7",
  "tx": [
    {
      "txid": "261d9a1874a84f626e71f061f170bba00420b668e54757b3a8a5f9524679cfd7",
      "hash": "261d9a1874a84f626e71f061f170bba00420b668e54757b3a8a5f9524679cfd7",
      "version": 1,
      "size": 172,
      "vsize": 172,
      "locktime": 0,
      "vin": [
        {
          "coinbase": "031fb9141a4d696e656420627920416e74506f6f6c20626a3242205a6cf8b4fabe6d6de488aa09a0491bdea9d7e7bf26a3f26cced843ef6e1f105f640a1b4b520f36200400000000000000661f00000000000005000000",
          "sequence": 4294967295
        }
      ],
      "vout": [
        {
          "value": 25.00000000,
          "n": 0,
          "scriptPubKey": {
            "asm": "OP_DUP OP_HASH160 0ff3ccc5e8be88afe24b5d634e5852d474dbdff1 OP_EQUALVERIFY OP_CHECKSIG",
            "hex": "76a9140ff3ccc5e8be88afe24b5d634e5852d474dbdff188ac",
            "reqSigs": 1,
            "type": "pubkeyhash",
            "addresses": [
              "LLgJTbzZMsRTCUF1NtvvL9SR1a4pVieW89"
            ]
          }
        }
      ],
      "hex": "01000000010000000000000000000000000000000000000000000000000000000000000000ffffffff57031fb9141a4d696e656420627920416e74506f6f6c20626a3242205a6cf8b4fabe6d6de488aa09a0491bdea9d7e7bf26a3f26cced843ef6e1f105f640a1b4b520f36200400000000000000661f00000000000005000000ffffffff0100f90295000000001976a9140ff3ccc5e8be88afe24b5d634e5852d474dbdff188ac00000000"
    }
  ],
  "time": 1517090996,
  "mediantime": 1517090473,
  "nonce": 1276445115,
  "bits": "1a047f14",
  "difficulty": 3731199.183374282,
  "chainwork": "000000000000000000000000000000000000000000000032cf31f95f2311e040",
  "previousblockhash": "664e395063a2d0eef16ff22d1b2e5fc890d978a020019109d0d42cb0d61597ad",
  "nextblockhash": "2353d9ff2636c25d53757949748720f6e50ddb8072a8f7284a4a6debce16551d"
}
