{
  "hash": "307e826cc19359459a02c56582f7dc384ece277ae1c8a0ca7ec4846dd39e8657",
  "confirmations": 3303,
  "strippedsize": 3612,
  "size": 3870,
  "weight": 14706,
  "height": 1357692,
  "version": 536870912,
  "versionHex": "20000000",
  "merkleroot": "3a04280e6deac7f246a31cb21281426710752e40f58e5681667bdddafd45a40c",
  "tx": [
    {
      "txid": "a6d128594e8f7157d5dc008fd21985193fc2d77f0b6214871a1073945595e8f5",
      "hash": "8b5bae56a5654b9310c73a63bcce44cab175178c05b2ea97f9ee6284d1e4ee26",
      "version": 1,
      "size": 240,
      "vsize": 213,
      "locktime": 0,
      "vin": [
        {
          "coinbase": "037cb7140409206c5a0805b5c7e312000000fabe6d6d54de7745c1c5033510a8c43fd2ec2d55ecd7afc517df111a0433c4e6d34e59894000000000000000092f4c54432e544f502f",
          "sequence": 0
        }
      ],
      "vout": [
        {
          "value": 25.00579280,
          "n": 0,
          "scriptPubKey": {
            "asm": "OP_DUP OP_HASH160 0c617fdb2ea42aed30a509595ee21ba3f6688db0 OP_EQUALVERIFY OP_CHECKSIG",
            "hex": "76a9140c617fdb2ea42aed30a509595ee21ba3f6688db088ac",
            "reqSigs": 1,
            "type": "pubkeyhash",
            "addresses": [
              "LLMRAtr3qBje2ySEa3CnZ55LA4TQMWnRY3"
            ]
          }
        }, 
        {
          "value": 0.00000000,
          "n": 1,
          "scriptPubKey": {
            "asm": "OP_RETURN aa21a9edaf76883353a776f049b00cee7254b9c5fc6be8461fe06dca96b1fef76835ff43",
            "hex": "6a24aa21a9edaf76883353a776f049b00cee7254b9c5fc6be8461fe06dca96b1fef76835ff43",
            "type": "nulldata"
          }
        }
      ],
      "hex": "010000000001010000000000000000000000000000000000000000000000000000000000000000ffffffff48037cb7140409206c5a0805b5c7e312000000fabe6d6d54de7745c1c5033510a8c43fd2ec2d55ecd7afc517df111a0433c4e6d34e59894000000000000000092f4c54432e544f502f0000000002d0cf0b95000000001976a9140c617fdb2ea42aed30a509595ee21ba3f6688db088ac0000000000000000266a24aa21a9edaf76883353a776f049b00cee7254b9c5fc6be8461fe06dca96b1fef76835ff430120000000000000000000000000000000000000000000000000000000000000000000000000"
    }, 
    {
      "txid": "f42bb3e5bad699a6cb575db4e45be1715b83bdb4e90915a918f4d51a85420fb4",
      "hash": "f42bb3e5bad699a6cb575db4e45be1715b83bdb4e90915a918f4d51a85420fb4",
      "version": 1,
      "size": 226,
      "vsize": 226,
      "locktime": 0,
      "vin": [
        {
          "txid": "4f267efa59ba07a55c439f1184fdfb6a53b610e658200a1522f742f18d9205ae",
          "vout": 1,
          "scriptSig": {
            "asm": "3045022100a7b3dc1fc60c4239f7bd57895b6cd0c7bb7fd26ffa013191a9e93aa1e58eacd402204527b7b97fa60102f2cc7c31580ce514491812496aeccc01f871b3aabf0509ef[ALL] 02613f87fee3f438ca34a8ec78f28c1457a5a824eebaee783b33db9a62043c1160",
            "hex": "483045022100a7b3dc1fc60c4239f7bd57895b6cd0c7bb7fd26ffa013191a9e93aa1e58eacd402204527b7b97fa60102f2cc7c31580ce514491812496aeccc01f871b3aabf0509ef012102613f87fee3f438ca34a8ec78f28c1457a5a824eebaee783b33db9a62043c1160"
          },
          "sequence": 4294967295
        }
      ],
      "vout": [
        {
          "value": 0.13200000,
          "n": 0,
          "scriptPubKey": {
            "asm": "OP_DUP OP_HASH160 79bfa4a711a166f6e74a0a79d5183488c9209173 OP_EQUALVERIFY OP_CHECKSIG",
            "hex": "76a91479bfa4a711a166f6e74a0a79d5183488c920917388ac",
            "reqSigs": 1,
            "type": "pubkeyhash",
            "addresses": [
              "LWKhc2SeBzH3WhhxhADX6c5SxQ7pdH7UhZ"
            ]
          }
        }, 
        {
          "value": 0.00078314,
          "n": 1,
          "scriptPubKey": {
            "asm": "OP_DUP OP_HASH160 b14e088c5fac79b23ecddd2a124b6a13f0d645cc OP_EQUALVERIFY OP_CHECKSIG",
            "hex": "76a914b14e088c5fac79b23ecddd2a124b6a13f0d645cc88ac",
            "reqSigs": 1,
            "type": "pubkeyhash",
            "addresses": [
              "LbPTM2Efd5J3EsMM7FXUgxN35f1FFr7283"
            ]
          }
        }
      ],
      "hex": "0100000001ae05928df142f722150a2058e610b6536afbfd84119f435ca507ba59fa7e264f010000006b483045022100a7b3dc1fc60c4239f7bd57895b6cd0c7bb7fd26ffa013191a9e93aa1e58eacd402204527b7b97fa60102f2cc7c31580ce514491812496aeccc01f871b3aabf0509ef012102613f87fee3f438ca34a8ec78f28c1457a5a824eebaee783b33db9a62043c1160ffffffff02806ac900000000001976a91479bfa4a711a166f6e74a0a79d5183488c920917388acea310100000000001976a914b14e088c5fac79b23ecddd2a124b6a13f0d645cc88ac00000000"
    }, 
    {
      "txid": "811f6486ddc542b288a43d43056e1554a2dcb1fc376fceb0c63136321763217d",
      "hash": "03fed8bd12aef6db486f7851e70a4f0beb27efafb9d5e05836dff52852631dfb",
      "version": 1,
      "size": 374,
      "vsize": 208,
      "locktime": 0,
      "vin": [
        {
          "txid": "3e2bf5d7d7b77bf9045e685ab2b4f1fa3515d3f564bc4e557ea5d41061d835ef",
          "vout": 1,
          "scriptSig": {
            "asm": "0020409fd93c7351b461fa46963fa28755038f397ee054ab9e56eda0b1081d768cc4",
            "hex": "220020409fd93c7351b461fa46963fa28755038f397ee054ab9e56eda0b1081d768cc4"
          },
          "txinwitness": [
            "", 
            "3045022100fef382cc45089c614ce5dc6d73d0adaadc8d55a91517e22177efa7ea51ef21bf02201a93dd6214675f4889b546d4acd66e55d2d8d7bd0e03973543daf8fe015411f501", 
            "304502210095f1be1a37aac3db057ab2eb4d87c3c5e8e604815a1b3d8ed95ae39c1a750fed02200320fb2be8c2edce3953ed2be55c9a82aaf57e19b237fac1918bc1f4ffc598c101", 
            "522103ceb293b39e087131961da42b3deaef48432d57a08bfd111247901be2936525b32103fa185b0d6c2a6d812d1a9418c54b3cea527d229a73a0c6c72345a1851ebcdad352ae"
          ],
          "sequence": 4294967295
        }
      ],
      "vout": [
        {
          "value": 0.01041700,
          "n": 0,
          "scriptPubKey": {
            "asm": "OP_DUP OP_HASH160 d999216152cd8795049caa1db217ae9c2ead8f83 OP_EQUALVERIFY OP_CHECKSIG",
            "hex": "76a914d999216152cd8795049caa1db217ae9c2ead8f8388ac",
            "reqSigs": 1,
            "type": "pubkeyhash",
            "addresses": [
              "Lf4WLXUpQ2HobFXSy71j266gJGeEZT4KAo"
            ]
          }
        }, 
        {
          "value": 0.77171900,
          "n": 1,
          "scriptPubKey": {
            "asm": "OP_HASH160 2d9ba1f1c217fd18a576b17eaf8a1c6f1cd2f1de OP_EQUAL",
            "hex": "a9142d9ba1f1c217fd18a576b17eaf8a1c6f1cd2f1de87",
            "reqSigs": 1,
            "type": "scripthash",
            "addresses": [
              "MC4K5c2x6rcVohDBLrLNQRsqL5atuzztot"
            ]
          }
        }
      ],
      "hex": "01000000000101ef35d86110d4a57e554ebc64f5d31535faf1b4b25a685e04f97bb7d7d7f52b3e0100000023220020409fd93c7351b461fa46963fa28755038f397ee054ab9e56eda0b1081d768cc4ffffffff0224e50f00000000001976a914d999216152cd8795049caa1db217ae9c2ead8f8388acbc8c99040000000017a9142d9ba1f1c217fd18a576b17eaf8a1c6f1cd2f1de870400483045022100fef382cc45089c614ce5dc6d73d0adaadc8d55a91517e22177efa7ea51ef21bf02201a93dd6214675f4889b546d4acd66e55d2d8d7bd0e03973543daf8fe015411f50148304502210095f1be1a37aac3db057ab2eb4d87c3c5e8e604815a1b3d8ed95ae39c1a750fed02200320fb2be8c2edce3953ed2be55c9a82aaf57e19b237fac1918bc1f4ffc598c10147522103ceb293b39e087131961da42b3deaef48432d57a08bfd111247901be2936525b32103fa185b0d6c2a6d812d1a9418c54b3cea527d229a73a0c6c72345a1851ebcdad352ae00000000"
    }, 
    {
      "txid": "c929a1d38e5bfc6088527e8c290ac4efb3cfe423199e821d3d02eb2059c5bd93",
      "hash": "c929a1d38e5bfc6088527e8c290ac4efb3cfe423199e821d3d02eb2059c5bd93",
      "version": 1,
      "size": 403,
      "vsize": 403,
      "locktime": 0,
      "vin": [
        {
          "txid": "38b58df09a93c46c42b32cfb481e045a007ef8e75a1f8db6283895a8496b3e9a",
          "vout": 0,
          "scriptSig": {
            "asm": "3045022100af2a483afcb21dc22104a3d681f386b16277d04d0ad18a8069a6eb74dae6ce2b022024fea52feafb57bf7ad5bdc3185f7f99cf59b5d99f56c0254c694ed6f3b9ed6b[ALL] 045e85dd3412d758ce207e65f0443c923a9dde4cca0ae3a68621d9408f4cf7d3f0f72bf524af77fb035f1183bdb8404b4b7c88f5c410415f8ec30c856d7ab3b771",
            "hex": "483045022100af2a483afcb21dc22104a3d681f386b16277d04d0ad18a8069a6eb74dae6ce2b022024fea52feafb57bf7ad5bdc3185f7f99cf59b5d99f56c0254c694ed6f3b9ed6b0141045e85dd3412d758ce207e65f0443c923a9dde4cca0ae3a68621d9408f4cf7d3f0f72bf524af77fb035f1183bdb8404b4b7c88f5c410415f8ec30c856d7ab3b771"
          },
          "sequence": 4294967295
        }, 
        {
          "txid": "aedc73825e51c9f74d2186f8917318408b30061051a4c0fd3b6ae168437c558f",
          "vout": 1,
          "scriptSig": {
            "asm": "304402203574835a88b943925353a32b72090acba9715c4d13f40e0e75310a356f04578902203ac5e3291ae5907da4f9ffa977f9b1e4408f695595b1b838c59a903732e67ae8[ALL] 045e85dd3412d758ce207e65f0443c923a9dde4cca0ae3a68621d9408f4cf7d3f0f72bf524af77fb035f1183bdb8404b4b7c88f5c410415f8ec30c856d7ab3b771",
            "hex": "47304402203574835a88b943925353a32b72090acba9715c4d13f40e0e75310a356f04578902203ac5e3291ae5907da4f9ffa977f9b1e4408f695595b1b838c59a903732e67ae80141045e85dd3412d758ce207e65f0443c923a9dde4cca0ae3a68621d9408f4cf7d3f0f72bf524af77fb035f1183bdb8404b4b7c88f5c410415f8ec30c856d7ab3b771"
          },
          "sequence": 4294967295
        }
      ],
      "vout": [
        {
          "value": 0.42623104,
          "n": 0,
          "scriptPubKey": {
            "asm": "OP_DUP OP_HASH160 60ccf17b2eecf90162980700711cdf11d3ee1839 OP_EQUALVERIFY OP_CHECKSIG",
            "hex": "76a91460ccf17b2eecf90162980700711cdf11d3ee183988ac",
            "reqSigs": 1,
            "type": "pubkeyhash",
            "addresses": [
              "LU3neLYs9Z1B4RAE9fcQ2WKTuwhJQPa1Zk"
            ]
          }
        }
      ],
      "hex": "01000000029a3e6b49a8953828b68d1f5ae7f87e005a041e48fb2cb3426cc4939af08db538000000008b483045022100af2a483afcb21dc22104a3d681f386b16277d04d0ad18a8069a6eb74dae6ce2b022024fea52feafb57bf7ad5bdc3185f7f99cf59b5d99f56c0254c694ed6f3b9ed6b0141045e85dd3412d758ce207e65f0443c923a9dde4cca0ae3a68621d9408f4cf7d3f0f72bf524af77fb035f1183bdb8404b4b7c88f5c410415f8ec30c856d7ab3b771ffffffff8f557c4368e16a3bfdc0a4511006308b40187391f886214df7c9515e8273dcae010000008a47304402203574835a88b943925353a32b72090acba9715c4d13f40e0e75310a356f04578902203ac5e3291ae5907da4f9ffa977f9b1e4408f695595b1b838c59a903732e67ae80141045e85dd3412d758ce207e65f0443c923a9dde4cca0ae3a68621d9408f4cf7d3f0f72bf524af77fb035f1183bdb8404b4b7c88f5c410415f8ec30c856d7ab3b771ffffffff0180608a02000000001976a91460ccf17b2eecf90162980700711cdf11d3ee183988ac00000000"
    }, 
    {
      "txid": "8a41f383ea4c8f3af0d58ca34d84947321ffda5e5214231dcc43992d72df9e74",
      "hash": "8a41f383ea4c8f3af0d58ca34d84947321ffda5e5214231dcc43992d72df9e74",
      "version": 2,
      "size": 372,
      "vsize": 372,
      "locktime": 1357689,
      "vin": [
        {
          "txid": "6c5a719de67a3ae43dfdf15f35a57f0b9f0526d9eac5d447b7ea941fab2caed2",
          "vout": 0,
          "scriptSig": {
            "asm": "304402200a7d9382cf84ff327a39e1b8204cc8792cf09adb416ce357b3a1c60b862f69ad02203c5f03998aab8375fcc5a8cefa3fe8adccca93ddcf0fff8c1f982f21e92611f0[ALL] 038cc0a5c26fe188ce0192694e73442126d28ad6da5e23e619bad255f431e7b1f1",
            "hex": "47304402200a7d9382cf84ff327a39e1b8204cc8792cf09adb416ce357b3a1c60b862f69ad02203c5f03998aab8375fcc5a8cefa3fe8adccca93ddcf0fff8c1f982f21e92611f00121038cc0a5c26fe188ce0192694e73442126d28ad6da5e23e619bad255f431e7b1f1"
          },
          "sequence": 4294967294
        }, 
        {
          "txid": "28ca5b5e20869d0b679fb02b313d3d3a1306c75009ad1b52b64fc90edcf0bdcf",
          "vout": 2,
          "scriptSig": {
            "asm": "304402206dc48fbd555fed6f17125e429362bba158df748c0b48fc5f26d75dc95c13abfc02206f67f41fb6446dadb392c03a28abf893497674c306c59078057bcae44e35d9be[ALL] 038ba189913b42ac26de55ebefa5da329631634331b2d662d2d8e96fd1f2320511",
            "hex": "47304402206dc48fbd555fed6f17125e429362bba158df748c0b48fc5f26d75dc95c13abfc02206f67f41fb6446dadb392c03a28abf893497674c306c59078057bcae44e35d9be0121038ba189913b42ac26de55ebefa5da329631634331b2d662d2d8e96fd1f2320511"
          },
          "sequence": 4294967294
        }
      ],
      "vout": [
        {
          "value": 1.60000000,
          "n": 0,
          "scriptPubKey": {
            "asm": "OP_DUP OP_HASH160 7d5e3caf47eb22c5b55e7f53c2092fb08f700668 OP_EQUALVERIFY OP_CHECKSIG",
            "hex": "76a9147d5e3caf47eb22c5b55e7f53c2092fb08f70066888ac",
            "reqSigs": 1,
            "type": "pubkeyhash",
            "addresses": [
              "LWeqcty7s6UJsGZsgFNTZnpzuQVPPEeFZa"
            ]
          }
        }, 
        {
          "value": 0.77268600,
          "n": 1,
          "scriptPubKey": {
            "asm": "OP_DUP OP_HASH160 c9fde22686fceff00426b2b780ae3164268a901c OP_EQUALVERIFY OP_CHECKSIG",
            "hex": "76a914c9fde22686fceff00426b2b780ae3164268a901c88ac",
            "reqSigs": 1,
            "type": "pubkeyhash",
            "addresses": [
              "LddzDu5wm481amW1qSyhzwYmUNHrjjU5QW"
            ]
          }
        }
      ],
      "hex": "0200000002d2ae2cab1f94eab747d4c5ead926059f0b7fa5355ff1fd3de43a7ae69d715a6c000000006a47304402200a7d9382cf84ff327a39e1b8204cc8792cf09adb416ce357b3a1c60b862f69ad02203c5f03998aab8375fcc5a8cefa3fe8adccca93ddcf0fff8c1f982f21e92611f00121038cc0a5c26fe188ce0192694e73442126d28ad6da5e23e619bad255f431e7b1f1feffffffcfbdf0dc0ec94fb6521bad0950c706133a3d3d312bb09f670b9d86205e5bca28020000006a47304402206dc48fbd555fed6f17125e429362bba158df748c0b48fc5f26d75dc95c13abfc02206f67f41fb6446dadb392c03a28abf893497674c306c59078057bcae44e35d9be0121038ba189913b42ac26de55ebefa5da329631634331b2d662d2d8e96fd1f2320511feffffff0200688909000000001976a9147d5e3caf47eb22c5b55e7f53c2092fb08f70066888ac78069b04000000001976a914c9fde22686fceff00426b2b780ae3164268a901c88ac79b71400"
    }, 
    {
      "txid": "0fe658fc909e3333c803b587898320d14b4635c0aa2a6e8b4d4400a47ac420e8",
      "hash": "0fe658fc909e3333c803b587898320d14b4635c0aa2a6e8b4d4400a47ac420e8",
      "version": 2,
      "size": 223,
      "vsize": 223,
      "locktime": 1357689,
      "vin": [
        {
          "txid": "c649182c6a55da46254e0fe5c89762920522d086dfb32261bf89dbaca0388833",
          "vout": 4,
          "scriptSig": {
            "asm": "304402200ab62256e5fc459b067beaae69f29391023b9e8cfe0b83e1f665cf32df7ccf460220717d3fe01b622cd12021b50b2b5d5b8dd770849574d644ca7f81face3907b5bc[ALL] 0361b73a26d363888a90680f5c31e8ed051d641953c982ea6a5bff591693766f82",
            "hex": "47304402200ab62256e5fc459b067beaae69f29391023b9e8cfe0b83e1f665cf32df7ccf460220717d3fe01b622cd12021b50b2b5d5b8dd770849574d644ca7f81face3907b5bc01210361b73a26d363888a90680f5c31e8ed051d641953c982ea6a5bff591693766f82"
          },
          "sequence": 4294967294
        }
      ],
      "vout": [
        {
          "value": 15.51300000,
          "n": 0,
          "scriptPubKey": {
            "asm": "OP_HASH160 45f8cacdea87b131b6892d7748e6f49fca70e3c2 OP_EQUAL",
            "hex": "a91445f8cacdea87b131b6892d7748e6f49fca70e3c287",
            "reqSigs": 1,
            "type": "scripthash",
            "addresses": [
              "MEH8u3xsd1zWyLMUjkQBUBBNpBRDkhg8oh"
            ]
          }
        }, 
        {
          "value": 1.47677600,
          "n": 1,
          "scriptPubKey": {
            "asm": "OP_DUP OP_HASH160 82c2dc6d7a7b1906caaebe5327e1e77dff26cc93 OP_EQUALVERIFY OP_CHECKSIG",
            "hex": "76a91482c2dc6d7a7b1906caaebe5327e1e77dff26cc9388ac",
            "reqSigs": 1,
            "type": "pubkeyhash",
            "addresses": [
              "LX9MYLK3hBe9WP6V7jNDVvpcuLBZ3oeryW"
            ]
          }
        }
      ],
      "hex": "0200000001338838a0acdb89bf6122b3df86d02205926297c8e50f4e2546da556a2c1849c6040000006a47304402200ab62256e5fc459b067beaae69f29391023b9e8cfe0b83e1f665cf32df7ccf460220717d3fe01b622cd12021b50b2b5d5b8dd770849574d644ca7f81face3907b5bc01210361b73a26d363888a90680f5c31e8ed051d641953c982ea6a5bff591693766f82feffffff02a0f5765c0000000017a91445f8cacdea87b131b6892d7748e6f49fca70e3c287a061cd08000000001976a91482c2dc6d7a7b1906caaebe5327e1e77dff26cc9388ac79b71400"
    }, 
    {
      "txid": "a53db668ba55dee650de14ec69c086ac8268c25fc8d3cb9de1b85a7623f65365",
      "hash": "a53db668ba55dee650de14ec69c086ac8268c25fc8d3cb9de1b85a7623f65365",
      "version": 2,
      "size": 225,
      "vsize": 225,
      "locktime": 1357689,
      "vin": [
        {
          "txid": "9bbacdd19ba2fad3877cfb21d968a359da2a617ac1918a9b8856195c6198bd69",
          "vout": 1,
          "scriptSig": {
            "asm": "3044022057aec9d129bcf30962ec734d4886cfc53086cd6475c3556232aa5dcd327133b70220563541ec07183c62f8b3066ef2d3a5ea8916b4e70cb7539e1eb780b22ef5706b[ALL] 0296cb7c965231e53230d8a5f2bee7db9bf083156380735d6b1ee7376476e9cecd",
            "hex": "473044022057aec9d129bcf30962ec734d4886cfc53086cd6475c3556232aa5dcd327133b70220563541ec07183c62f8b3066ef2d3a5ea8916b4e70cb7539e1eb780b22ef5706b01210296cb7c965231e53230d8a5f2bee7db9bf083156380735d6b1ee7376476e9cecd"
          },
          "sequence": 4294967294
        }
      ],
      "vout": [
        {
          "value": 27544.86085298,
          "n": 0,
          "scriptPubKey": {
            "asm": "OP_DUP OP_HASH160 aef3152b9bcc9d26f196d3e64ae9a95c2ebe82a0 OP_EQUALVERIFY OP_CHECKSIG",
            "hex": "76a914aef3152b9bcc9d26f196d3e64ae9a95c2ebe82a088ac",
            "reqSigs": 1,
            "type": "pubkeyhash",
            "addresses": [
              "LbB13Gorj8oeLkTHUvWGdidEyRwKTjRzyy"
            ]
          }
        }, 
        {
          "value": 1055.00000000,
          "n": 1,
          "scriptPubKey": {
            "asm": "OP_DUP OP_HASH160 c7d67c0bfdb6f84798d0f5af95a43cc56fbc73f1 OP_EQUALVERIFY OP_CHECKSIG",
            "hex": "76a914c7d67c0bfdb6f84798d0f5af95a43cc56fbc73f188ac",
            "reqSigs": 1,
            "type": "pubkeyhash",
            "addresses": [
              "LdSbg324e1xas4PjfHJPfmMohpsUTHVZrg"
            ]
          }
        }
      ],
      "hex": "020000000169bd98615c1956889b8a91c17a612ada59a368d921fb7c87d3faa29bd1cdba9b010000006a473044022057aec9d129bcf30962ec734d4886cfc53086cd6475c3556232aa5dcd327133b70220563541ec07183c62f8b3066ef2d3a5ea8916b4e70cb7539e1eb780b22ef5706b01210296cb7c965231e53230d8a5f2bee7db9bf083156380735d6b1ee7376476e9cecdfeffffff02b2262a54810200001976a914aef3152b9bcc9d26f196d3e64ae9a95c2ebe82a088ac003f4a90180000001976a914c7d67c0bfdb6f84798d0f5af95a43cc56fbc73f188ac79b71400"
    }, 
    {
      "txid": "cae389028d67f6f92c0a62ccfb0bdcdbaeac9dc8117be77cbf44d2c6e5b43a6f",
      "hash": "cae389028d67f6f92c0a62ccfb0bdcdbaeac9dc8117be77cbf44d2c6e5b43a6f",
      "version": 2,
      "size": 225,
      "vsize": 225,
      "locktime": 1357689,
      "vin": [
        {
          "txid": "dc2f3684db59c2ce4cae1728f9faa23e40fa6a3d48c835492113c34eee289ac4",
          "vout": 1,
          "scriptSig": {
            "asm": "304402200271fba35b9198ea5c6687e0146652b00cbff9b150f7950906bba8d744d16b1802207d6b0721e0e468078ff90fb0cef6207dae62d13fe8ea01b9854737e92c16085e[ALL] 0204f880ce8dc318772870ab37f3385fc5ad8b4677f452de1497657d0298891ae6",
            "hex": "47304402200271fba35b9198ea5c6687e0146652b00cbff9b150f7950906bba8d744d16b1802207d6b0721e0e468078ff90fb0cef6207dae62d13fe8ea01b9854737e92c16085e01210204f880ce8dc318772870ab37f3385fc5ad8b4677f452de1497657d0298891ae6"
          },
          "sequence": 4294967294
        }
      ],
      "vout": [
        {
          "value": 169.21400527,
          "n": 0,
          "scriptPubKey": {
            "asm": "OP_DUP OP_HASH160 6ba930fd4dd815183c2f965365bf6ed6fd730206 OP_EQUALVERIFY OP_CHECKSIG",
            "hex": "76a9146ba930fd4dd815183c2f965365bf6ed6fd73020688ac",
            "reqSigs": 1,
            "type": "pubkeyhash",
            "addresses": [
              "LV3DFMtgGaFBwipci5T2C5iYrsRfFxEnUy"
            ]
          }
        }, 
        {
          "value": 0.14391424,
          "n": 1,
          "scriptPubKey": {
            "asm": "OP_DUP OP_HASH160 7105f75c5565669c23609017f61feb76cdd2220d OP_EQUALVERIFY OP_CHECKSIG",
            "hex": "76a9147105f75c5565669c23609017f61feb76cdd2220d88ac",
            "reqSigs": 1,
            "type": "pubkeyhash",
            "addresses": [
              "LVXZmS2gj1ZoG6CddPpNgiZtbxBE1VopF4"
            ]
          }
        }
      ],
      "hex": "0200000001c49a28ee4ec313214935c8483d6afa403ea2faf92817ae4ccec259db84362fdc010000006a47304402200271fba35b9198ea5c6687e0146652b00cbff9b150f7950906bba8d744d16b1802207d6b0721e0e468078ff90fb0cef6207dae62d13fe8ea01b9854737e92c16085e01210204f880ce8dc318772870ab37f3385fc5ad8b4677f452de1497657d0298891ae6feffffff02cf1498f0030000001976a9146ba930fd4dd815183c2f965365bf6ed6fd73020688ac8098db00000000001976a9147105f75c5565669c23609017f61feb76cdd2220d88ac79b71400"
    }, 
    {
      "txid": "c798ede389226ce62f9851006aef44e18861dc93ad234cfcf694d472a8df1fa3",
      "hash": "c798ede389226ce62f9851006aef44e18861dc93ad234cfcf694d472a8df1fa3",
      "version": 1,
      "size": 225,
      "vsize": 225,
      "locktime": 0,
      "vin": [
        {
          "txid": "c1ab490f099176a73943baee17206be34dc6dbd04e00245756ea6f1d619eb706",
          "vout": 1,
          "scriptSig": {
            "asm": "3044022056d7c41187d26471397e45a78931a297e44927abe6da240bcd51223d9b686ebd022012da5fb1287411fcf91bd84ea73dd920454cef338f9e284c1edc7a83f1cd9a10[ALL] 030ea99f8867d112e27690c1b33115f6de54fe4191a0c77e9edff62b576c15e2f2",
            "hex": "473044022056d7c41187d26471397e45a78931a297e44927abe6da240bcd51223d9b686ebd022012da5fb1287411fcf91bd84ea73dd920454cef338f9e284c1edc7a83f1cd9a100121030ea99f8867d112e27690c1b33115f6de54fe4191a0c77e9edff62b576c15e2f2"
          },
          "sequence": 4294967295
        }
      ],
      "vout": [
        {
          "value": 5.51648352,
          "n": 0,
          "scriptPubKey": {
            "asm": "OP_DUP OP_HASH160 9a76037c9fc2a1fdae30e62980803219839ef300 OP_EQUALVERIFY OP_CHECKSIG",
            "hex": "76a9149a76037c9fc2a1fdae30e62980803219839ef30088ac",
            "reqSigs": 1,
            "type": "pubkeyhash",
            "addresses": [
              "LZJfhV5mKF9qTMeuCD1yHLMvHGNtLmzRvK"
            ]
          }
        }, 
        {
          "value": 47.56299997,
          "n": 1,
          "scriptPubKey": {
            "asm": "OP_DUP OP_HASH160 241f798093131bb4f4350ab4def22e2433223cb4 OP_EQUALVERIFY OP_CHECKSIG",
            "hex": "76a914241f798093131bb4f4350ab4def22e2433223cb488ac",
            "reqSigs": 1,
            "type": "pubkeyhash",
            "addresses": [
              "LNWxJ1kPjFrnRGApAASWV5GDHa2S73KXvR"
            ]
          }
        }
      ],
      "hex": "010000000106b79e611d6fea565724004ed0dbc64de36b2017eeba4339a77691090f49abc1010000006a473044022056d7c41187d26471397e45a78931a297e44927abe6da240bcd51223d9b686ebd022012da5fb1287411fcf91bd84ea73dd920454cef338f9e284c1edc7a83f1cd9a100121030ea99f8867d112e27690c1b33115f6de54fe4191a0c77e9edff62b576c15e2f2ffffffff02607ce120000000001976a9149a76037c9fc2a1fdae30e62980803219839ef30088acdd607f1b010000001976a914241f798093131bb4f4350ab4def22e2433223cb488ac00000000"
    }, 
    {
      "txid": "e03ca6b738d68610bd9adbeeb32803d769e91f4b5c822118cd3564b41e4705c7",
      "hash": "e03ca6b738d68610bd9adbeeb32803d769e91f4b5c822118cd3564b41e4705c7",
      "version": 1,
      "size": 225,
      "vsize": 225,
      "locktime": 0,
      "vin": [
        {
          "txid": "6d1b40c6e490f676875017ac2860569768dce6cd3782c841bf80f975bea8ffca",
          "vout": 0,
          "scriptSig": {
            "asm": "304402205df03494d9c11fa3b9e8b21ae670e9a68fb8067fb732783b9940beb40bdc83c10220757d9680cfb425049a41b63db69a2edd768125005cb4ebf12de869e8d8aa9ea6[ALL] 02cd3230cedd1d6d374d046b45148a56f6e1aa081cfc305260eb03b28f9aed0475",
            "hex": "47304402205df03494d9c11fa3b9e8b21ae670e9a68fb8067fb732783b9940beb40bdc83c10220757d9680cfb425049a41b63db69a2edd768125005cb4ebf12de869e8d8aa9ea6012102cd3230cedd1d6d374d046b45148a56f6e1aa081cfc305260eb03b28f9aed0475"
          },
          "sequence": 4294967295
        }
      ],
      "vout": [
        {
          "value": 0.10000000,
          "n": 0,
          "scriptPubKey": {
            "asm": "OP_DUP OP_HASH160 a916f3d219a38a572d4b4cfb6e90039a12a4f48a OP_EQUALVERIFY OP_CHECKSIG",
            "hex": "76a914a916f3d219a38a572d4b4cfb6e90039a12a4f48a88ac",
            "reqSigs": 1,
            "type": "pubkeyhash",
            "addresses": [
              "Lae1xPrGzugvdozqAx9eKn235kLcwDtp9u"
            ]
          }
        }, 
        {
          "value": 0.00366689,
          "n": 1,
          "scriptPubKey": {
            "asm": "OP_DUP OP_HASH160 fa8dc7e657978636a803f0ed6e06e711f9b291f6 OP_EQUALVERIFY OP_CHECKSIG",
            "hex": "76a914fa8dc7e657978636a803f0ed6e06e711f9b291f688ac",
            "reqSigs": 1,
            "type": "pubkeyhash",
            "addresses": [
              "Li4m3H3KQfGhQgFKD3SivsbaUMe83R1PJP"
            ]
          }
        }
      ],
      "hex": "0100000001caffa8be75f980bf41c88237cde6dc6897566028ac17508776f690e4c6401b6d000000006a47304402205df03494d9c11fa3b9e8b21ae670e9a68fb8067fb732783b9940beb40bdc83c10220757d9680cfb425049a41b63db69a2edd768125005cb4ebf12de869e8d8aa9ea6012102cd3230cedd1d6d374d046b45148a56f6e1aa081cfc305260eb03b28f9aed0475ffffffff0280969800000000001976a914a916f3d219a38a572d4b4cfb6e90039a12a4f48a88ac61980500000000001976a914fa8dc7e657978636a803f0ed6e06e711f9b291f688ac00000000"
    }, 
    {
      "txid": "7ec5153b4619118d5261599a387b8781d76e360e571ea7d64dec0592c225ccd4",
      "hash": "7ec5153b4619118d5261599a387b8781d76e360e571ea7d64dec0592c225ccd4",
      "version": 2,
      "size": 225,
      "vsize": 225,
      "locktime": 1357689,
      "vin": [
        {
          "txid": "4efa932a5d9d0da1b08760eb0abc01ebdd535531203ad88c79607e7ee9cf61f0",
          "vout": 1,
          "scriptSig": {
            "asm": "304402202eae156b62f00792491231e8dd11ad1d3c0849bff1f2ab0783da35cf36144f980220043f4354b34bf82d46da075d502a6f9b817a2c4336ecba99545835d907796b2f[ALL] 03f62ed3396dd440645bb0ab32530e0f9d77ebaf196d5e6d9c38fb7fe45b2da262",
            "hex": "47304402202eae156b62f00792491231e8dd11ad1d3c0849bff1f2ab0783da35cf36144f980220043f4354b34bf82d46da075d502a6f9b817a2c4336ecba99545835d907796b2f012103f62ed3396dd440645bb0ab32530e0f9d77ebaf196d5e6d9c38fb7fe45b2da262"
          },
          "sequence": 4294967294
        }
      ],
      "vout": [
        {
          "value": 0.60433781,
          "n": 0,
          "scriptPubKey": {
            "asm": "OP_DUP OP_HASH160 454de3ee874573699745ebc2c237264d6114fe07 OP_EQUALVERIFY OP_CHECKSIG",
            "hex": "76a914454de3ee874573699745ebc2c237264d6114fe0788ac",
            "reqSigs": 1,
            "type": "pubkeyhash",
            "addresses": [
              "LRYQCNCTVcgyL2B3UNkMDsdaVSNhY9uyxL"
            ]
          }
        }, 
        {
          "value": 210.10348277,
          "n": 1,
          "scriptPubKey": {
            "asm": "OP_DUP OP_HASH160 35f815838681f5f791677fec3eb8c6737040d96c OP_EQUALVERIFY OP_CHECKSIG",
            "hex": "76a91435f815838681f5f791677fec3eb8c6737040d96c88ac",
            "reqSigs": 1,
            "type": "pubkeyhash",
            "addresses": [
              "LQ9KGZW5funmVXgLuBjXB7f4VvUU1kkveJ"
            ]
          }
        }
      ],
      "hex": "0200000001f061cfe97e7e60798cd83a20315553ddeb01bc0aeb6087b0a10d9d5d2a93fa4e010000006a47304402202eae156b62f00792491231e8dd11ad1d3c0849bff1f2ab0783da35cf36144f980220043f4354b34bf82d46da075d502a6f9b817a2c4336ecba99545835d907796b2f012103f62ed3396dd440645bb0ab32530e0f9d77ebaf196d5e6d9c38fb7fe45b2da262feffffff0275259a03000000001976a914454de3ee874573699745ebc2c237264d6114fe0788acf57850e4040000001976a91435f815838681f5f791677fec3eb8c6737040d96c88ac79b71400"
    }, 
    {
      "txid": "b056c0320d668eba40ebe0d132cdb9c72703b8420ca974c2b27e64e9ae4b114d",
      "hash": "b056c0320d668eba40ebe0d132cdb9c72703b8420ca974c2b27e64e9ae4b114d",
      "version": 2,
      "size": 374,
      "vsize": 374,
      "locktime": 1357690,
      "vin": [
        {
          "txid": "16dbb48f2dcfabad3d52b9d9001ce0d225a5dcde5b2315fb807823bbd70c0ffa",
          "vout": 1266,
          "scriptSig": {
            "asm": "3045022100e061449d907ecedf5bf035cd11fd06a527635f1f68f7de08f378c7a489cee60f02202fc7c0e2e2f5026c7d8dc9aa2f53d7810c83dfb6d0df3ebfc14d2be6ae64c9db[ALL] 0225b2cf4e4d6d189a261937b8113741bbf83cedf35c6339ce6193db97fe332757",
            "hex": "483045022100e061449d907ecedf5bf035cd11fd06a527635f1f68f7de08f378c7a489cee60f02202fc7c0e2e2f5026c7d8dc9aa2f53d7810c83dfb6d0df3ebfc14d2be6ae64c9db01210225b2cf4e4d6d189a261937b8113741bbf83cedf35c6339ce6193db97fe332757"
          },
          "sequence": 4294967294
        }, 
        {
          "txid": "6068c87006ade2af9f04fc833815e7b6150f241fc6f9dd3bbd93d4b2c795c778",
          "vout": 0,
          "scriptSig": {
            "asm": "3045022100a7bd19bc003d1d4a7371d0a16ab2ce293d3d275a37fd8b3b1953ae921729568102203ac3ff73e4452ac7df149583d3b0fd73937ebf7fe374d175a78569d73391020b[ALL] 028b8151399e1a65b0d98e2dfc4201899b828a703b95f3f9ceda79e3bff4d0cc64",
            "hex": "483045022100a7bd19bc003d1d4a7371d0a16ab2ce293d3d275a37fd8b3b1953ae921729568102203ac3ff73e4452ac7df149583d3b0fd73937ebf7fe374d175a78569d73391020b0121028b8151399e1a65b0d98e2dfc4201899b828a703b95f3f9ceda79e3bff4d0cc64"
          },
          "sequence": 4294967294
        }
      ],
      "vout": [
        {
          "value": 2.31629047,
          "n": 0,
          "scriptPubKey": {
            "asm": "OP_DUP OP_HASH160 737f3f7623590e2cf665b31629f459c10af3d71f OP_EQUALVERIFY OP_CHECKSIG",
            "hex": "76a914737f3f7623590e2cf665b31629f459c10af3d71f88ac",
            "reqSigs": 1,
            "type": "pubkeyhash",
            "addresses": [
              "LVkeQcUCsYNBrzUA7QCrjVhLR6ZodTYuCh"
            ]
          }
        }, 
        {
          "value": 0.00963925,
          "n": 1,
          "scriptPubKey": {
            "asm": "OP_DUP OP_HASH160 b4ac30f4ef7bbdbb002e1327c7a10995f393165d OP_EQUALVERIFY OP_CHECKSIG",
            "hex": "76a914b4ac30f4ef7bbdbb002e1327c7a10995f393165d88ac",
            "reqSigs": 1,
            "type": "pubkeyhash",
            "addresses": [
              "LbhGAoKTrtytNsqtGPCbfPDZzSinzfDmBS"
            ]
          }
        }
      ],
      "hex": "0200000002fa0f0cd7bb237880fb15235bdedca525d2e01c00d9b9523dadabcf2d8fb4db16f20400006b483045022100e061449d907ecedf5bf035cd11fd06a527635f1f68f7de08f378c7a489cee60f02202fc7c0e2e2f5026c7d8dc9aa2f53d7810c83dfb6d0df3ebfc14d2be6ae64c9db01210225b2cf4e4d6d189a261937b8113741bbf83cedf35c6339ce6193db97fe332757feffffff78c795c7b2d493bd3bddf9c61f240f15b6e7153883fc049fafe2ad0670c86860000000006b483045022100a7bd19bc003d1d4a7371d0a16ab2ce293d3d275a37fd8b3b1953ae921729568102203ac3ff73e4452ac7df149583d3b0fd73937ebf7fe374d175a78569d73391020b0121028b8151399e1a65b0d98e2dfc4201899b828a703b95f3f9ceda79e3bff4d0cc64feffffff02f760ce0d000000001976a914737f3f7623590e2cf665b31629f459c10af3d71f88ac55b50e00000000001976a914b4ac30f4ef7bbdbb002e1327c7a10995f393165d88ac7ab71400"
    }, 
    {
      "txid": "ef4eea2e6ed629280af0f467c6e08f1e5581a05b8088dc23e5aa3ce5a8af70a3",
      "hash": "ef4eea2e6ed629280af0f467c6e08f1e5581a05b8088dc23e5aa3ce5a8af70a3",
      "version": 1,
      "size": 226,
      "vsize": 226,
      "locktime": 0,
      "vin": [
        {
          "txid": "3aebe3c10e9f8081ece13fe868b6facf29f510a3bb442e073a1a18036c48fb9a",
          "vout": 497,
          "scriptSig": {
            "asm": "3045022100fd80bf273954f8e324292737c7406aac01174a51b9486a348539bd2eb1c3ed4b0220603631af479d9aff6414af701e6896686279cade12e448fdaea648dbc2f8bf75[ALL] 0239e9873ef19bb4f70260f2f647f78e3d6d2f1411baaa649205ebcf86aaf74116",
            "hex": "483045022100fd80bf273954f8e324292737c7406aac01174a51b9486a348539bd2eb1c3ed4b0220603631af479d9aff6414af701e6896686279cade12e448fdaea648dbc2f8bf7501210239e9873ef19bb4f70260f2f647f78e3d6d2f1411baaa649205ebcf86aaf74116"
          },
          "sequence": 4294967295
        }
      ],
      "vout": [
        {
          "value": 0.66983031,
          "n": 0,
          "scriptPubKey": {
            "asm": "OP_DUP OP_HASH160 fe1e924f060307af112eb7e7117c01ca95b58654 OP_EQUALVERIFY OP_CHECKSIG",
            "hex": "76a914fe1e924f060307af112eb7e7117c01ca95b5865488ac",
            "reqSigs": 1,
            "type": "pubkeyhash",
            "addresses": [
              "LiPcX5qjnWTut7uqdquPguCaH7WfF5Nxnx"
            ]
          }
        }, 
        {
          "value": 0.26771936,
          "n": 1,
          "scriptPubKey": {
            "asm": "OP_DUP OP_HASH160 ece5ea36c9d4358f3ac2933cb4bcc4a7a7aa7341 OP_EQUALVERIFY OP_CHECKSIG",
            "hex": "76a914ece5ea36c9d4358f3ac2933cb4bcc4a7a7aa734188ac",
            "reqSigs": 1,
            "type": "pubkeyhash",
            "addresses": [
              "LgpZAFaeGr5XatLE86dLMycVZ7J6o9iu1W"
            ]
          }
        }
      ],
      "hex": "01000000019afb486c03181a3a072e44bba310f529cffab668e83fe1ec81809f0ec1e3eb3af10100006b483045022100fd80bf273954f8e324292737c7406aac01174a51b9486a348539bd2eb1c3ed4b0220603631af479d9aff6414af701e6896686279cade12e448fdaea648dbc2f8bf7501210239e9873ef19bb4f70260f2f647f78e3d6d2f1411baaa649205ebcf86aaf74116ffffffff027714fe03000000001976a914fe1e924f060307af112eb7e7117c01ca95b5865488ace0819801000000001976a914ece5ea36c9d4358f3ac2933cb4bcc4a7a7aa734188ac00000000"
    }, 
    {
      "txid": "2b1deaba1f71681f43ad2fe037ba7b72c276452c11d702c13d98428a137637f6",
      "hash": "2b1deaba1f71681f43ad2fe037ba7b72c276452c11d702c13d98428a137637f6",
      "version": 1,
      "size": 226,
      "vsize": 226,
      "locktime": 0,
      "vin": [
        {
          "txid": "d793703ddb4aa0fa42780c37e596f718b96546b46d556a1bbb1b3c79e3729c5c",
          "vout": 1,
          "scriptSig": {
            "asm": "3045022100b7a96b16f5d84be774f2b5c478eced9e5d6a331694fea80014817cf09d53ddb60220295fe2c76f83b895f1411ec3ecb8c77b9ac2e683c927f4bfb044ec544ed59acc[ALL] 0356c890bc188abb914795cc33904f42cfd201f1259aad7d75106c163bac5cd84c",
            "hex": "483045022100b7a96b16f5d84be774f2b5c478eced9e5d6a331694fea80014817cf09d53ddb60220295fe2c76f83b895f1411ec3ecb8c77b9ac2e683c927f4bfb044ec544ed59acc01210356c890bc188abb914795cc33904f42cfd201f1259aad7d75106c163bac5cd84c"
          },
          "sequence": 4294967295
        }
      ],
      "vout": [
        {
          "value": 4.00887830,
          "n": 0,
          "scriptPubKey": {
            "asm": "OP_DUP OP_HASH160 27b5a87ab98afa5b40ac1b9d8b50d0740e6554e3 OP_EQUALVERIFY OP_CHECKSIG",
            "hex": "76a91427b5a87ab98afa5b40ac1b9d8b50d0740e6554e388ac",
            "reqSigs": 1,
            "type": "pubkeyhash",
            "addresses": [
              "LNqvEXEP3KhHgmEAEJwEayDs4kKjyLKLMu"
            ]
          }
        }, 
        {
          "value": 36.31585137,
          "n": 1,
          "scriptPubKey": {
            "asm": "OP_DUP OP_HASH160 562083566a86a1a8adb8cd92ecc08b9b138b50d6 OP_EQUALVERIFY OP_CHECKSIG",
            "hex": "76a914562083566a86a1a8adb8cd92ecc08b9b138b50d688ac",
            "reqSigs": 1,
            "type": "pubkeyhash",
            "addresses": [
              "LT5MKknzf4HF2rgeyNGA9x1oEx2qbhEjKE"
            ]
          }
        }
      ],
      "hex": "01000000015c9c72e3793c1bbb1b6a556db44665b918f796e5370c7842faa04adb3d7093d7010000006b483045022100b7a96b16f5d84be774f2b5c478eced9e5d6a331694fea80014817cf09d53ddb60220295fe2c76f83b895f1411ec3ecb8c77b9ac2e683c927f4bfb044ec544ed59acc01210356c890bc188abb914795cc33904f42cfd201f1259aad7d75106c163bac5cd84cffffffff021610e517000000001976a91427b5a87ab98afa5b40ac1b9d8b50d0740e6554e388ac719775d8000000001976a914562083566a86a1a8adb8cd92ecc08b9b138b50d688ac00000000"
    }
  ],
  "time": 1517035516,
  "mediantime": 1517035314,
  "nonce": 4050548680,
  "bits": "1a047f14",
  "difficulty": 3731199.183374282,
  "chainwork": "00000000000000000000000000000000000000000000003272027085c4c301b2",
  "previousblockhash": "75740cd785053f769f34daebb7988f7576c86a21068468dbdb4039b9c03a9af4",
  "nextblockhash": "5cb826e504a8d4a5be0ac6fcd4653137552a6593c6e140c5110bd4081534b162"
}
