{
  "hash": "3087f74f8f6d7c06b017ef6ee9f96b79f01bb8bf574e36e21be812f31dd33fb1",
  "confirmations": 2791,
  "strippedsize": 1593,
  "size": 2289,
  "weight": 7068,
  "height": 1358204,
  "version": 536870912,
  "versionHex": "20000000",
  "merkleroot": "5a414eaac69d27530a748804915a4378fc7a404a1fc7eedced79a0f326cb77ff",
  "tx": [
    {
      "txid": "ad717af37b50365e2fb1783ca140138cf8d44a07675ad2689184ec9f44d361b3",
      "hash": "eddc8986e1d358c5556fbd1944a686858095e9a69775372dc5f195dac04da8c6",
      "version": 1,
      "size": 236,
      "vsize": 209,
      "locktime": 0,
      "vin": [
        {
          "coinbase": "037cb914045a6d33f92cfabe6d6dcec4b346ac87c44229e1e78aa2f378add2b67007a94e384838dab554ab2f1bf24000000000000000042f4c502f0856003e091c000000",
          "sequence": 4294967295
        }
      ],
      "vout": [
        {
          "value": 25.00295600,
          "n": 0,
          "scriptPubKey": {
            "asm": "OP_DUP OP_HASH160 57757ed2ecf2052ff3126c397aca7defb9ca2cec OP_EQUALVERIFY OP_CHECKSIG",
            "hex": "76a91457757ed2ecf2052ff3126c397aca7defb9ca2cec88ac",
            "reqSigs": 1,
            "type": "pubkeyhash",
            "addresses": [
              "LTCPodGk5FwcJaRzH9yKnwicxzFUbxp6tN"
            ]
          }
        }, 
        {
          "value": 0.00000000,
          "n": 1,
          "scriptPubKey": {
            "asm": "OP_RETURN aa21a9ed90adad3421974c77c1fe1dfff6271a64855fe8d191ecabb3ed8673039f489c97",
            "hex": "6a24aa21a9ed90adad3421974c77c1fe1dfff6271a64855fe8d191ecabb3ed8673039f489c97",
            "type": "nulldata"
          }
        }
      ],
      "hex": "010000000001010000000000000000000000000000000000000000000000000000000000000000ffffffff44037cb914045a6d33f92cfabe6d6dcec4b346ac87c44229e1e78aa2f378add2b67007a94e384838dab554ab2f1bf24000000000000000042f4c502f0856003e091c000000ffffffff02b07b0795000000001976a91457757ed2ecf2052ff3126c397aca7defb9ca2cec88ac0000000000000000266a24aa21a9ed90adad3421974c77c1fe1dfff6271a64855fe8d191ecabb3ed8673039f489c970120000000000000000000000000000000000000000000000000000000000000000000000000"
    }, 
    {
      "txid": "f15750998e2a9c9f4c85de71574aa0239ca04110fcbb7d7985685e333550ed77",
      "hash": "f15750998e2a9c9f4c85de71574aa0239ca04110fcbb7d7985685e333550ed77",
      "version": 1,
      "size": 223,
      "vsize": 223,
      "locktime": 0,
      "vin": [
        {
          "txid": "d21d3cee62a280ad56dce37b9675e1b74f9e4e32f6512f06fb9439b5001d4178",
          "vout": 1,
          "scriptSig": {
            "asm": "3044022032d776349963ad660324d187d796d1922fa32a0ce46be1e1c1036050951e4b9b02206a4c5a8f2276a683d8ae4cc9f17c2f0da95bda303461cf4a1cdd8d64e9aa4c0f[ALL] 0404456ac6090bb7479f7a662015cd8d48731c25ea760121802c56eaf0b2adb184ca167e7d5466bf3458295d31d3fb317d86b03ffd1fa507685e7dce975937c5b4",
            "hex": "473044022032d776349963ad660324d187d796d1922fa32a0ce46be1e1c1036050951e4b9b02206a4c5a8f2276a683d8ae4cc9f17c2f0da95bda303461cf4a1cdd8d64e9aa4c0f01410404456ac6090bb7479f7a662015cd8d48731c25ea760121802c56eaf0b2adb184ca167e7d5466bf3458295d31d3fb317d86b03ffd1fa507685e7dce975937c5b4"
          },
          "sequence": 4294967295
        }
      ],
      "vout": [
        {
          "value": 0.05570964,
          "n": 0,
          "scriptPubKey": {
            "asm": "OP_DUP OP_HASH160 d6e70286e7237ea0ca8b015036f307e677a77491 OP_EQUALVERIFY OP_CHECKSIG",
            "hex": "76a914d6e70286e7237ea0ca8b015036f307e677a7749188ac",
            "reqSigs": 1,
            "type": "pubkeyhash",
            "addresses": [
              "LepFc7SqtXHbdYrDA9nkg6NJuMEhkwYyN5"
            ]
          }
        }
      ],
      "hex": "010000000178411d00b53994fb062f51f6324e9e4fb7e175967be3dc56ad80a262ee3c1dd2010000008a473044022032d776349963ad660324d187d796d1922fa32a0ce46be1e1c1036050951e4b9b02206a4c5a8f2276a683d8ae4cc9f17c2f0da95bda303461cf4a1cdd8d64e9aa4c0f01410404456ac6090bb7479f7a662015cd8d48731c25ea760121802c56eaf0b2adb184ca167e7d5466bf3458295d31d3fb317d86b03ffd1fa507685e7dce975937c5b4ffffffff0194015500000000001976a914d6e70286e7237ea0ca8b015036f307e677a7749188ac00000000"
    }, 
    {
      "txid": "7bb5ef1db8b8f1aef80c1da6d1d8cca60ab08ef41cfb3e453e1f64a2fbadf1c8",
      "hash": "3fa487144f3e4f4c70c2c5a5a5db1e6e8ca03132041943742685042fea8c0ff1",
      "version": 1,
      "size": 372,
      "vsize": 207,
      "locktime": 0,
      "vin": [
        {
          "txid": "739e61f1d472346c0981ff9934219e34f554ea45809d88a9f5fb7599ee63e09c",
          "vout": 1,
          "scriptSig": {
            "asm": "00207975c3f0d1bf8b6205e1c664d703c93d68409676bf17c5e78cdece78bdbf3dbf",
            "hex": "2200207975c3f0d1bf8b6205e1c664d703c93d68409676bf17c5e78cdece78bdbf3dbf"
          },
          "txinwitness": [
            "", 
            "3044022024444073650768de31a0f4ea059c1100caeb93a4eba873eaf67848a4b98807b8022045272d6f4fea1012122d9aef7bd07333ca835d9bf9e72ec7948753c98f353e3f01", 
            "304402201e1b9ee22f9e62c22b084398ccf63076a4612ce08e1d6b6113823e734b4d8287022004c7cd70d45ffcfa76f064823a3935486412bb92a956119681a3cd702ba0e15201", 
            "522102611be09a0c6a571c8f68adb2481e938888756d93d4ee5b670f08c16e939b7f1a21022cc7a96a72ef014bf078a6489644e2edb05bb216d30b4f28363b637fe4463fd652ae"
          ],
          "sequence": 4294967295
        }
      ],
      "vout": [
        {
          "value": 0.00531800,
          "n": 0,
          "scriptPubKey": {
            "asm": "OP_DUP OP_HASH160 f1c15fd9e6deec73fb57feaee813edbbc571d5ec OP_EQUALVERIFY OP_CHECKSIG",
            "hex": "76a914f1c15fd9e6deec73fb57feaee813edbbc571d5ec88ac",
            "reqSigs": 1,
            "type": "pubkeyhash",
            "addresses": [
              "LhGEmLLqfVrm9JbiqbGV1amTfeWxKLSMkJ"
            ]
          }
        }, 
        {
          "value": 1.21629773,
          "n": 1,
          "scriptPubKey": {
            "asm": "OP_HASH160 486ce63d83e8406016f310cd321d36bbdd10d412 OP_EQUAL",
            "hex": "a914486ce63d83e8406016f310cd321d36bbdd10d41287",
            "reqSigs": 1,
            "type": "scripthash",
            "addresses": [
              "MEW7Lhk6QzBLmCNp5pmpYzwv1KAcKYsSQp"
            ]
          }
        }
      ],
      "hex": "010000000001019ce063ee9975fbf5a9889d8045ea54f5349e213499ff81096c3472d4f1619e7301000000232200207975c3f0d1bf8b6205e1c664d703c93d68409676bf17c5e78cdece78bdbf3dbfffffffff02581d0800000000001976a914f1c15fd9e6deec73fb57feaee813edbbc571d5ec88ac4dec3f070000000017a914486ce63d83e8406016f310cd321d36bbdd10d412870400473044022024444073650768de31a0f4ea059c1100caeb93a4eba873eaf67848a4b98807b8022045272d6f4fea1012122d9aef7bd07333ca835d9bf9e72ec7948753c98f353e3f0147304402201e1b9ee22f9e62c22b084398ccf63076a4612ce08e1d6b6113823e734b4d8287022004c7cd70d45ffcfa76f064823a3935486412bb92a956119681a3cd702ba0e1520147522102611be09a0c6a571c8f68adb2481e938888756d93d4ee5b670f08c16e939b7f1a21022cc7a96a72ef014bf078a6489644e2edb05bb216d30b4f28363b637fe4463fd652ae00000000"
    }, 
    {
      "txid": "ee31188ec1643edf75ab76a539f51eae4f010e9247cfc273f1285b7e69e76cd4",
      "hash": "160f4a5ea738c080046cf18c0fb07055767d1456b658ce2f69b74c480e194a8f",
      "version": 1,
      "size": 668,
      "vsize": 338,
      "locktime": 0,
      "vin": [
        {
          "txid": "109c6ca19472fb0cff0aba2e0dbbae05e0901eed379508e3702495463ff23e6a",
          "vout": 1,
          "scriptSig": {
            "asm": "002069cb51c23f2f9709d0e1e71186d13ac8de5d72d2c5b2bc08a89f1cc3b3bc3b00",
            "hex": "22002069cb51c23f2f9709d0e1e71186d13ac8de5d72d2c5b2bc08a89f1cc3b3bc3b00"
          },
          "txinwitness": [
            "", 
            "3045022100e1758373b4394f03a0523601cb2b4c9b670cc25b483e69d194b1138205a6742202203faa2f1c6cd3fbea1352b2e4b8c1e271ec09a0f747fa875b3925598fa36cf3b001", 
            "3045022100d900dddbff1e9311292916232a47f04cde6c642b350de375ab5050ed7f7e6eb60220031c864b0fcf4929366e1af4612ac3b7ec6c473911f2e2ef3993a195d0d2628301", 
            "522103fb09a568530f604a591e84cd549837d06774e35c45f31645b7ae07459e67379b21039c1cc1923081a09ab4d6cec717bdf455a6bc2901873a72ed03e7bd3c6bb3c7e652ae"
          ],
          "sequence": 4294967295
        }, 
        {
          "txid": "020446b0d6ad9d209f6b1e20536fae80d4c09d312816d537ad8eb4dc1f97c11a",
          "vout": 1,
          "scriptSig": {
            "asm": "002069cb51c23f2f9709d0e1e71186d13ac8de5d72d2c5b2bc08a89f1cc3b3bc3b00",
            "hex": "22002069cb51c23f2f9709d0e1e71186d13ac8de5d72d2c5b2bc08a89f1cc3b3bc3b00"
          },
          "txinwitness": [
            "", 
            "304402202f35c7b13944790eff09578198cc2751397eeeca0566685d6b2bb51069090ffb02204718eea59e030f2504457fb833d52ad4f820c33891a0f1152e7cfe9752c57ff301", 
            "3044022039a4b1c17f17f2e614186b4960f0ca0880d6993c93118f39f35924cb67df04ae0220742356fc69f3ba0fbaddeb5604f769546500d2bbdfbb9c463b8e53235a117bab01", 
            "522103fb09a568530f604a591e84cd549837d06774e35c45f31645b7ae07459e67379b21039c1cc1923081a09ab4d6cec717bdf455a6bc2901873a72ed03e7bd3c6bb3c7e652ae"
          ],
          "sequence": 4294967295
        }
      ],
      "vout": [
        {
          "value": 0.53675000,
          "n": 0,
          "scriptPubKey": {
            "asm": "OP_DUP OP_HASH160 7af7e25115fa2b786561b8fcf3a63981f36eb89c OP_EQUALVERIFY OP_CHECKSIG",
            "hex": "76a9147af7e25115fa2b786561b8fcf3a63981f36eb89c88ac",
            "reqSigs": 1,
            "type": "pubkeyhash",
            "addresses": [
              "LWS9euGjrCBjjem6YgYAmFVHQ2PPCz1op7"
            ]
          }
        }, 
        {
          "value": 2.14568003,
          "n": 1,
          "scriptPubKey": {
            "asm": "OP_HASH160 48b8c6bad309aef113a92cb41c7c6a52e82305b9 OP_EQUAL",
            "hex": "a91448b8c6bad309aef113a92cb41c7c6a52e82305b987",
            "reqSigs": 1,
            "type": "scripthash",
            "addresses": [
              "MEXgEivJK688z9PDpH1T8orMnEjmgBz7Lj"
            ]
          }
        }
      ],
      "hex": "010000000001026a3ef23f46952470e3089537ed1e90e005aebb0d2eba0aff0cfb7294a16c9c10010000002322002069cb51c23f2f9709d0e1e71186d13ac8de5d72d2c5b2bc08a89f1cc3b3bc3b00ffffffff1ac1971fdcb48ead37d51628319dc0d480ae6f53201e6b9f209dadd6b0460402010000002322002069cb51c23f2f9709d0e1e71186d13ac8de5d72d2c5b2bc08a89f1cc3b3bc3b00ffffffff02f8033303000000001976a9147af7e25115fa2b786561b8fcf3a63981f36eb89c88ac430cca0c0000000017a91448b8c6bad309aef113a92cb41c7c6a52e82305b9870400483045022100e1758373b4394f03a0523601cb2b4c9b670cc25b483e69d194b1138205a6742202203faa2f1c6cd3fbea1352b2e4b8c1e271ec09a0f747fa875b3925598fa36cf3b001483045022100d900dddbff1e9311292916232a47f04cde6c642b350de375ab5050ed7f7e6eb60220031c864b0fcf4929366e1af4612ac3b7ec6c473911f2e2ef3993a195d0d262830147522103fb09a568530f604a591e84cd549837d06774e35c45f31645b7ae07459e67379b21039c1cc1923081a09ab4d6cec717bdf455a6bc2901873a72ed03e7bd3c6bb3c7e652ae040047304402202f35c7b13944790eff09578198cc2751397eeeca0566685d6b2bb51069090ffb02204718eea59e030f2504457fb833d52ad4f820c33891a0f1152e7cfe9752c57ff301473044022039a4b1c17f17f2e614186b4960f0ca0880d6993c93118f39f35924cb67df04ae0220742356fc69f3ba0fbaddeb5604f769546500d2bbdfbb9c463b8e53235a117bab0147522103fb09a568530f604a591e84cd549837d06774e35c45f31645b7ae07459e67379b21039c1cc1923081a09ab4d6cec717bdf455a6bc2901873a72ed03e7bd3c6bb3c7e652ae00000000"
    }, 
    {
      "txid": "3f95a6ce292e959e3d2094feff907c76abe7440a130950a486f1f1f9c57226f0",
      "hash": "3f95a6ce292e959e3d2094feff907c76abe7440a130950a486f1f1f9c57226f0",
      "version": 1,
      "size": 519,
      "vsize": 519,
      "locktime": 1358202,
      "vin": [
        {
          "txid": "400154d224bbb0bfed5c291a08c86895042497de9a20466dbb511370de3ff265",
          "vout": 0,
          "scriptSig": {
            "asm": "30440220291306106c54d38b9f5f58a28dc078148b34426ca825a12fb8990aa512c907f402204612232820ccae5315a81a73d54ba6d301ae5517bd71bd481ab35380a46da318[ALL] 032b703186184457d1303bb9c6ec08c7c9227f88031e267c4abf366e65b7aafcb3",
            "hex": "4730440220291306106c54d38b9f5f58a28dc078148b34426ca825a12fb8990aa512c907f402204612232820ccae5315a81a73d54ba6d301ae5517bd71bd481ab35380a46da3180121032b703186184457d1303bb9c6ec08c7c9227f88031e267c4abf366e65b7aafcb3"
          },
          "sequence": 4294967294
        }, 
        {
          "txid": "a2c3c44013c217b0fd2cc41d7a701a730bcdd7361b11b7066cc7da040dcc1e4c",
          "vout": 0,
          "scriptSig": {
            "asm": "304402206d928341b10c7dd83971a3a254b7723f84fb63829851a2ffd80943afc42e267502200bd0ec6fe801527f8b44910acda3a9c214ceebb2327c3bc7e4470717c02a8641[ALL] 022ea3e4d4d700efe4280bb35a230877ccda3ed8028890a16e5aee9f79e6a0875e",
            "hex": "47304402206d928341b10c7dd83971a3a254b7723f84fb63829851a2ffd80943afc42e267502200bd0ec6fe801527f8b44910acda3a9c214ceebb2327c3bc7e4470717c02a86410121022ea3e4d4d700efe4280bb35a230877ccda3ed8028890a16e5aee9f79e6a0875e"
          },
          "sequence": 4294967294
        }, 
        {
          "txid": "64697b6cc3091ba3d97777b157de86705a18832299959da5f3d6f90988803de0",
          "vout": 0,
          "scriptSig": {
            "asm": "304402200bee21468912de4d042576d0771573e98df2bc9db30afc465b387faaf7fadbe6022055dad17f3eef87600f0960e929e86c2a74cd612af7a8f0bedfc3f1e90e9025eb[ALL] 022dfbc8f4ac9a58a4998560b466e7b3f97b7e82b2f9dae14c94ce27d0c008e619",
            "hex": "47304402200bee21468912de4d042576d0771573e98df2bc9db30afc465b387faaf7fadbe6022055dad17f3eef87600f0960e929e86c2a74cd612af7a8f0bedfc3f1e90e9025eb0121022dfbc8f4ac9a58a4998560b466e7b3f97b7e82b2f9dae14c94ce27d0c008e619"
          },
          "sequence": 4294967294
        }
      ],
      "vout": [
        {
          "value": 2.96064488,
          "n": 0,
          "scriptPubKey": {
            "asm": "OP_DUP OP_HASH160 711b5924557c5f676bd388d96f78671431bd576c OP_EQUALVERIFY OP_CHECKSIG",
            "hex": "76a914711b5924557c5f676bd388d96f78671431bd576c88ac",
            "reqSigs": 1,
            "type": "pubkeyhash",
            "addresses": [
              "LVY1P5Qk3D2GMry9WP6MFwLR8FvyDmsg7e"
            ]
          }
        }, 
        {
          "value": 0.01000992,
          "n": 1,
          "scriptPubKey": {
            "asm": "OP_DUP OP_HASH160 a9a9c10a022c4a8ddd9e7886f46d0dfe37633e00 OP_EQUALVERIFY OP_CHECKSIG",
            "hex": "76a914a9a9c10a022c4a8ddd9e7886f46d0dfe37633e0088ac",
            "reqSigs": 1,
            "type": "pubkeyhash",
            "addresses": [
              "Lah3pMKWYRTDsPtKVULCPVYd5V7vff4QAZ"
            ]
          }
        }
      ],
      "hex": "010000000365f23fde701351bb6d46209ade9724049568c8081a295cedbfb0bb24d2540140000000006a4730440220291306106c54d38b9f5f58a28dc078148b34426ca825a12fb8990aa512c907f402204612232820ccae5315a81a73d54ba6d301ae5517bd71bd481ab35380a46da3180121032b703186184457d1303bb9c6ec08c7c9227f88031e267c4abf366e65b7aafcb3feffffff4c1ecc0d04dac76c06b7111b36d7cd0b731a707a1dc42cfdb017c21340c4c3a2000000006a47304402206d928341b10c7dd83971a3a254b7723f84fb63829851a2ffd80943afc42e267502200bd0ec6fe801527f8b44910acda3a9c214ceebb2327c3bc7e4470717c02a86410121022ea3e4d4d700efe4280bb35a230877ccda3ed8028890a16e5aee9f79e6a0875efeffffffe03d808809f9d6f3a59d95992283185a7086de57b17777d9a31b09c36c7b6964000000006a47304402200bee21468912de4d042576d0771573e98df2bc9db30afc465b387faaf7fadbe6022055dad17f3eef87600f0960e929e86c2a74cd612af7a8f0bedfc3f1e90e9025eb0121022dfbc8f4ac9a58a4998560b466e7b3f97b7e82b2f9dae14c94ce27d0c008e619feffffff02e895a511000000001976a914711b5924557c5f676bd388d96f78671431bd576c88ac20460f00000000001976a914a9a9c10a022c4a8ddd9e7886f46d0dfe37633e0088ac7ab91400"
    }, 
    {
      "txid": "69ff807c3b0a76c462da41bcf88e8b831d15c70438d3534af0bc0ac710b8cdf2",
      "hash": "69ff807c3b0a76c462da41bcf88e8b831d15c70438d3534af0bc0ac710b8cdf2",
      "version": 1,
      "size": 190,
      "vsize": 190,
      "locktime": 540287,
      "vin": [
        {
          "txid": "62e33b46a6dcdb60490e1742e0d5bc74f1dd80449e2a8c2903bedf28456c92e0",
          "vout": 1,
          "scriptSig": {
            "asm": "304502210082cdd886bcb4152240e6c40738f67510fc6476f9c885ed4f931a45923d2efdf902203860fd088cbac0ec0ce6b2a05e9e65da6d47a5b4149d0f5ba04a47e2398f6fbb[ALL] 03948084261aac946b5ab6ffcf341f98f3fe1c0e6a1ee3c4f4bdc5c6261c3f985b",
            "hex": "48304502210082cdd886bcb4152240e6c40738f67510fc6476f9c885ed4f931a45923d2efdf902203860fd088cbac0ec0ce6b2a05e9e65da6d47a5b4149d0f5ba04a47e2398f6fbb012103948084261aac946b5ab6ffcf341f98f3fe1c0e6a1ee3c4f4bdc5c6261c3f985b"
          },
          "sequence": 4294967294
        }
      ],
      "vout": [
        {
          "value": 2.99958400,
          "n": 0,
          "scriptPubKey": {
            "asm": "OP_HASH160 179c88781635215829de754c6f2ecf655555e472 OP_EQUAL",
            "hex": "a914179c88781635215829de754c6f2ecf655555e47287",
            "reqSigs": 1,
            "type": "scripthash",
            "addresses": [
              "MA41Hx9B5aNpjZF97RcDnYu5qyZSJYKGjQ"
            ]
          }
        }
      ],
      "hex": "0100000001e0926c4528dfbe03298c2a9e4480ddf174bcd5e042170e4960dbdca6463be362010000006b48304502210082cdd886bcb4152240e6c40738f67510fc6476f9c885ed4f931a45923d2efdf902203860fd088cbac0ec0ce6b2a05e9e65da6d47a5b4149d0f5ba04a47e2398f6fbb012103948084261aac946b5ab6ffcf341f98f3fe1c0e6a1ee3c4f4bdc5c6261c3f985bfeffffff018000e1110000000017a914179c88781635215829de754c6f2ecf655555e472877f3e0800"
    }
  ],
  "time": 1517106169,
  "mediantime": 1517105053,
  "nonce": 2302961857,
  "bits": "1a047f14",
  "difficulty": 3731199.183374282,
  "chainwork": "000000000000000000000000000000000000000000000032e3e0e0c2183b35b2",
  "previousblockhash": "fbb8219f8996bbf1055d44862dc6e4b5f76de53717496e29e72e1e586806ee90",
  "nextblockhash": "33ad0c31513bf9cae7ea36e1897dfbb07c6d0005031bc451bb047dcec119bdd9"
}
