{
  "hash": "30e69a51aceb1dcf14018a605ce969f534eb9d2b62d2d6f995c1f3516b7ce4ec",
  "confirmations": 182,
  "strippedsize": 255,
  "size": 255,
  "weight": 1020,
  "height": 1360812,
  "version": 536870912,
  "versionHex": "20000000",
  "merkleroot": "8da9d34fdf3527f8a93a6d2389f9e198f3c96accc7ab536cf38ab228ffb03919",
  "tx": [
    {
      "txid": "8da9d34fdf3527f8a93a6d2389f9e198f3c96accc7ab536cf38ab228ffb03919",
      "hash": "8da9d34fdf3527f8a93a6d2389f9e198f3c96accc7ab536cf38ab228ffb03919",
      "version": 1,
      "size": 174,
      "vsize": 174,
      "locktime": 0,
      "vin": [
        {
          "coinbase": "03acc3141c4d696e656420627920416e74506f6f6c20626a341e205a72faf409f6fabe6d6d17ff2a0a84d179bffde43bd7e2d602ec6e66ef2869d3a92d065ab6ffdb90c5220400000000000000dd2600000000000010000000",
          "sequence": 4294967295
        }
      ],
      "vout": [
        {
          "value": 25.00000000,
          "n": 0,
          "scriptPubKey": {
            "asm": "OP_DUP OP_HASH160 0ff3ccc5e8be88afe24b5d634e5852d474dbdff1 OP_EQUALVERIFY OP_CHECKSIG",
            "hex": "76a9140ff3ccc5e8be88afe24b5d634e5852d474dbdff188ac",
            "reqSigs": 1,
            "type": "pubkeyhash",
            "addresses": [
              "LLgJTbzZMsRTCUF1NtvvL9SR1a4pVieW89"
            ]
          }
        }
      ],
      "hex": "01000000010000000000000000000000000000000000000000000000000000000000000000ffffffff5903acc3141c4d696e656420627920416e74506f6f6c20626a341e205a72faf409f6fabe6d6d17ff2a0a84d179bffde43bd7e2d602ec6e66ef2869d3a92d065ab6ffdb90c5220400000000000000dd2600000000000010000000ffffffff0100f90295000000001976a9140ff3ccc5e8be88afe24b5d634e5852d474dbdff188ac00000000"
    }
  ],
  "time": 1517484788,
  "mediantime": 1517484469,
  "nonce": 2563079683,
  "bits": "1a04088e",
  "difficulty": 4159490.835685156,
  "chainwork": "00000000000000000000000000000000000000000000003549e5d1d4811d7f90",
  "previousblockhash": "5a96bbf967dda0290e5c812f0adb4ccbd5b1ab3c237189d686e9ede4525cb6c7",
  "nextblockhash": "63fb3e03e177cf92ba11e7c99a7d0ae81cc201076322344b267ffb5782b9e94d"
}
