{
  "hash": "31562f4c01596ebb65bea29952dd7b62e46911f66a537491e3c5e7932ae9d5a6",
  "confirmations": 1705,
  "strippedsize": 1876,
  "size": 1912,
  "weight": 7540,
  "height": 1359289,
  "version": 536870912,
  "versionHex": "20000000",
  "merkleroot": "8206f3d7771767e1ebea07f4e2a104410dd41de86261572a3b98f400b9e0e9ef",
  "tx": [
    {
      "txid": "f550f6df75387ca4d0b84c58e4766957023683bad1ebe8fd1fc86eb0a6fc7092",
      "hash": "e1f64cdfd71184b1b23ac93f4a49d1d4014e5bda0932e6beec779a5e2ea8323a",
      "version": 1,
      "size": 253,
      "vsize": 226,
      "locktime": 0,
      "vin": [
        {
          "coinbase": "03b9bd1441d69be5ed8b757241d69be5ed7836e12f4c54432e544f502ffabe6d6d8166817fcf58360b49d2c052888f581ed310e42648b14debc53ffbf80697306b01000000000000006630b7210f00000000000000",
          "sequence": 4294967295
        }
      ],
      "vout": [
        {
          "value": 25.00191600,
          "n": 0,
          "scriptPubKey": {
            "asm": "OP_DUP OP_HASH160 0c617fdb2ea42aed30a509595ee21ba3f6688db0 OP_EQUALVERIFY OP_CHECKSIG",
            "hex": "76a9140c617fdb2ea42aed30a509595ee21ba3f6688db088ac",
            "reqSigs": 1,
            "type": "pubkeyhash",
            "addresses": [
              "LLMRAtr3qBje2ySEa3CnZ55LA4TQMWnRY3"
            ]
          }
        }, 
        {
          "value": 0.00000000,
          "n": 1,
          "scriptPubKey": {
            "asm": "OP_RETURN aa21a9ed77b31d76b106b6cc23ad8c4b54594b9a7759088e51f000231e82f546e970f04a",
            "hex": "6a24aa21a9ed77b31d76b106b6cc23ad8c4b54594b9a7759088e51f000231e82f546e970f04a",
            "type": "nulldata"
          }
        }
      ],
      "hex": "010000000001010000000000000000000000000000000000000000000000000000000000000000ffffffff5503b9bd1441d69be5ed8b757241d69be5ed7836e12f4c54432e544f502ffabe6d6d8166817fcf58360b49d2c052888f581ed310e42648b14debc53ffbf80697306b01000000000000006630b7210f00000000000000ffffffff0270e50595000000001976a9140c617fdb2ea42aed30a509595ee21ba3f6688db088ac0000000000000000266a24aa21a9ed77b31d76b106b6cc23ad8c4b54594b9a7759088e51f000231e82f546e970f04a0120000000000000000000000000000000000000000000000000000000000000000000000000"
    }, 
    {
      "txid": "2a5bea0abdf3511d768f6852b15ae09d993c42a0707482a85c4de7d11b7a82b9",
      "hash": "2a5bea0abdf3511d768f6852b15ae09d993c42a0707482a85c4de7d11b7a82b9",
      "version": 1,
      "size": 223,
      "vsize": 223,
      "locktime": 0,
      "vin": [
        {
          "txid": "7aa8b5025e287fc93d3ffdcdc1fbd114e587a29e9888abfccced9cd2b2279685",
          "vout": 1,
          "scriptSig": {
            "asm": "30440220191d8db964f7a0cd12f27b1591ef949af17f9d8d90289ca40e28595a3d1410890220593ab3ec63261b02e46dff115f1d36738be3d625c1f53978a6c5c668a59ff7ad[ALL] 0222b0f43019eaaf458f363690c14eb17755d49e17d51d2e94df3a9d0f001bdb8b",
            "hex": "4730440220191d8db964f7a0cd12f27b1591ef949af17f9d8d90289ca40e28595a3d1410890220593ab3ec63261b02e46dff115f1d36738be3d625c1f53978a6c5c668a59ff7ad01210222b0f43019eaaf458f363690c14eb17755d49e17d51d2e94df3a9d0f001bdb8b"
          },
          "sequence": 4294967295
        }
      ],
      "vout": [
        {
          "value": 0.01000000,
          "n": 0,
          "scriptPubKey": {
            "asm": "OP_HASH160 13599289a07b730a2331ef982038bba554e4f1ba OP_EQUAL",
            "hex": "a91413599289a07b730a2331ef982038bba554e4f1ba87",
            "reqSigs": 1,
            "type": "scripthash",
            "addresses": [
              "M9fUNg7wo1itmxKTXKxRJtbpo8Nxj9P8nD"
            ]
          }
        }, 
        {
          "value": 0.98649940,
          "n": 1,
          "scriptPubKey": {
            "asm": "OP_DUP OP_HASH160 74f54a0d8abfe268e150b77dd05e4966137973db OP_EQUALVERIFY OP_CHECKSIG",
            "hex": "76a91474f54a0d8abfe268e150b77dd05e4966137973db88ac",
            "reqSigs": 1,
            "type": "pubkeyhash",
            "addresses": [
              "LVtNVTnFkvZ3ZezPZKovpECzJffpVpLuG4"
            ]
          }
        }
      ],
      "hex": "0100000001859627b2d29cedccfcab88989ea287e514d1fbc1cdfd3f3dc97f285e02b5a87a010000006a4730440220191d8db964f7a0cd12f27b1591ef949af17f9d8d90289ca40e28595a3d1410890220593ab3ec63261b02e46dff115f1d36738be3d625c1f53978a6c5c668a59ff7ad01210222b0f43019eaaf458f363690c14eb17755d49e17d51d2e94df3a9d0f001bdb8bffffffff0240420f000000000017a91413599289a07b730a2331ef982038bba554e4f1ba875447e105000000001976a91474f54a0d8abfe268e150b77dd05e4966137973db88ac00000000"
    }, 
    {
      "txid": "8ce9d7f953055019cd2eeda790a9453af9dd93dc0c246069b325e731d9be2a04",
      "hash": "8ce9d7f953055019cd2eeda790a9453af9dd93dc0c246069b325e731d9be2a04",
      "version": 1,
      "size": 225,
      "vsize": 225,
      "locktime": 0,
      "vin": [
        {
          "txid": "8715bf918a3b3d82af3fcf8b5802406a9ec0b4bf7787e583ec8c935276e7adc5",
          "vout": 1,
          "scriptSig": {
            "asm": "304402200685286b6dfc6812858ff36879c6132925c922523d0962d35a85a55355e02b2c022051bf8529cad784aa8ce6a8bcaf0cd05c6107696d3540a4b21e2aaa6c5f11d7c0[ALL] 02cc5ca8beb3204bbb46ddb94d7b51820e61c352e6241bc8b396f3e54200d2bd42",
            "hex": "47304402200685286b6dfc6812858ff36879c6132925c922523d0962d35a85a55355e02b2c022051bf8529cad784aa8ce6a8bcaf0cd05c6107696d3540a4b21e2aaa6c5f11d7c0012102cc5ca8beb3204bbb46ddb94d7b51820e61c352e6241bc8b396f3e54200d2bd42"
          },
          "sequence": 4294967295
        }
      ],
      "vout": [
        {
          "value": 0.04798136,
          "n": 0,
          "scriptPubKey": {
            "asm": "OP_DUP OP_HASH160 c4a2effd9a877a927fa73ede9d6762dc4a97e844 OP_EQUALVERIFY OP_CHECKSIG",
            "hex": "76a914c4a2effd9a877a927fa73ede9d6762dc4a97e84488ac",
            "reqSigs": 1,
            "type": "pubkeyhash",
            "addresses": [
              "Ld9ftuTNPcUPF1gjTmTzixGjbFQGHBnciP"
            ]
          }
        }, 
        {
          "value": 0.61050061,
          "n": 1,
          "scriptPubKey": {
            "asm": "OP_DUP OP_HASH160 54142fd5e6e39a006d592b2a6dd3840321215543 OP_EQUALVERIFY OP_CHECKSIG",
            "hex": "76a91454142fd5e6e39a006d592b2a6dd384032121554388ac",
            "reqSigs": 1,
            "type": "pubkeyhash",
            "addresses": [
              "LStXCw8zQ2DYanVKvySdrV59sJ42VC2epw"
            ]
          }
        }
      ],
      "hex": "0100000001c5ade77652938cec83e58777bfb4c09e6a4002588bcf3faf823d3b8a91bf1587010000006a47304402200685286b6dfc6812858ff36879c6132925c922523d0962d35a85a55355e02b2c022051bf8529cad784aa8ce6a8bcaf0cd05c6107696d3540a4b21e2aaa6c5f11d7c0012102cc5ca8beb3204bbb46ddb94d7b51820e61c352e6241bc8b396f3e54200d2bd42ffffffff02b8364900000000001976a914c4a2effd9a877a927fa73ede9d6762dc4a97e84488accd8ca303000000001976a91454142fd5e6e39a006d592b2a6dd384032121554388ac00000000"
    }, 
    {
      "txid": "01999b54a1aeb3fa688122c8fa182e1db60fe8041e747cb4a68f277bc77c6204",
      "hash": "01999b54a1aeb3fa688122c8fa182e1db60fe8041e747cb4a68f277bc77c6204",
      "version": 1,
      "size": 226,
      "vsize": 226,
      "locktime": 0,
      "vin": [
        {
          "txid": "71ddc1c2a6d4c7bd1139e66a2648b8ad7053cf35fc68347b1fc7692ae5f27d66",
          "vout": 0,
          "scriptSig": {
            "asm": "3045022100dbd47ed8d1590524b788d7c35ba98153e1778e1cd027bbc737da346a910e5ff902203fadf9256d5e1f46632bbe72a85cecaee80cd6bb596fb5bcd374fc9b7d6715ea[ALL] 02d951641c674ce2d49df78d9f71ecc6c7d85ee2608c40f8553abd003a7fb284bd",
            "hex": "483045022100dbd47ed8d1590524b788d7c35ba98153e1778e1cd027bbc737da346a910e5ff902203fadf9256d5e1f46632bbe72a85cecaee80cd6bb596fb5bcd374fc9b7d6715ea012102d951641c674ce2d49df78d9f71ecc6c7d85ee2608c40f8553abd003a7fb284bd"
          },
          "sequence": 4294967295
        }
      ],
      "vout": [
        {
          "value": 0.01346742,
          "n": 0,
          "scriptPubKey": {
            "asm": "OP_DUP OP_HASH160 0d2526e3dc7499e4fa4f9d026c017a9b1f37ed23 OP_EQUALVERIFY OP_CHECKSIG",
            "hex": "76a9140d2526e3dc7499e4fa4f9d026c017a9b1f37ed2388ac",
            "reqSigs": 1,
            "type": "pubkeyhash",
            "addresses": [
              "LLRTZ4qtgA6f34vqdtSpoDs3Ap9VJfGVAP"
            ]
          }
        }, 
        {
          "value": 1.85191976,
          "n": 1,
          "scriptPubKey": {
            "asm": "OP_DUP OP_HASH160 539c5772826a95d52ad5bcddf2208f5525e288ae OP_EQUALVERIFY OP_CHECKSIG",
            "hex": "76a914539c5772826a95d52ad5bcddf2208f5525e288ae88ac",
            "reqSigs": 1,
            "type": "pubkeyhash",
            "addresses": [
              "LSr3dwRTGsiiHtLjAKn7iY7URaacCNJNtS"
            ]
          }
        }
      ],
      "hex": "0100000001667df2e52a69c71f7b3468fc35cf5370adb848266ae63911bdc7d4a6c2c1dd71000000006b483045022100dbd47ed8d1590524b788d7c35ba98153e1778e1cd027bbc737da346a910e5ff902203fadf9256d5e1f46632bbe72a85cecaee80cd6bb596fb5bcd374fc9b7d6715ea012102d951641c674ce2d49df78d9f71ecc6c7d85ee2608c40f8553abd003a7fb284bdffffffff02b68c1400000000001976a9140d2526e3dc7499e4fa4f9d026c017a9b1f37ed2388ac28ce090b000000001976a914539c5772826a95d52ad5bcddf2208f5525e288ae88ac00000000"
    }, 
    {
      "txid": "f49a242d8305f3006ed542c94f82881e6797550dca3c75027b6ea59f7cc1843c",
      "hash": "f49a242d8305f3006ed542c94f82881e6797550dca3c75027b6ea59f7cc1843c",
      "version": 1,
      "size": 226,
      "vsize": 226,
      "locktime": 0,
      "vin": [
        {
          "txid": "0851c0dec5e4eaa9d70f39a1b6dfb50a000e53f35acafa45aea00d7638148d0b",
          "vout": 0,
          "scriptSig": {
            "asm": "3045022100dcd33907f0fc55da6cf927bc9ebf55223f01b8c7bd68133817eb874b244cd6c9022034c7e9382b797c04f1893f5ba4edcee81a84bce3d822d1d35952ccc77fa0120f[ALL] 02543be87f3cd305f35d7024291cc4b93e8e218b6854f7304fe05a0b663ce39758",
            "hex": "483045022100dcd33907f0fc55da6cf927bc9ebf55223f01b8c7bd68133817eb874b244cd6c9022034c7e9382b797c04f1893f5ba4edcee81a84bce3d822d1d35952ccc77fa0120f012102543be87f3cd305f35d7024291cc4b93e8e218b6854f7304fe05a0b663ce39758"
          },
          "sequence": 4294967295
        }
      ],
      "vout": [
        {
          "value": 0.17946439,
          "n": 0,
          "scriptPubKey": {
            "asm": "OP_DUP OP_HASH160 6271a0aee429c73c70e18370805773fed65d2fbf OP_EQUALVERIFY OP_CHECKSIG",
            "hex": "76a9146271a0aee429c73c70e18370805773fed65d2fbf88ac",
            "reqSigs": 1,
            "type": "pubkeyhash",
            "addresses": [
              "LUCUc12MWhG7bSEiWSA9svo46L5FjU9X5a"
            ]
          }
        }, 
        {
          "value": 0.00065568,
          "n": 1,
          "scriptPubKey": {
            "asm": "OP_DUP OP_HASH160 097b91a03b8fc7d6b76c774feba47ee6acac5e78 OP_EQUALVERIFY OP_CHECKSIG",
            "hex": "76a914097b91a03b8fc7d6b76c774feba47ee6acac5e7888ac",
            "reqSigs": 1,
            "type": "pubkeyhash",
            "addresses": [
              "LL66NesbEihHfjkhoUDMT3fBK5mX3LV78h"
            ]
          }
        }
      ],
      "hex": "01000000010b8d1438760da0ae45faca5af3530e000ab5dfb6a1390fd7a9eae4c5dec05108000000006b483045022100dcd33907f0fc55da6cf927bc9ebf55223f01b8c7bd68133817eb874b244cd6c9022034c7e9382b797c04f1893f5ba4edcee81a84bce3d822d1d35952ccc77fa0120f012102543be87f3cd305f35d7024291cc4b93e8e218b6854f7304fe05a0b663ce39758ffffffff0247d71101000000001976a9146271a0aee429c73c70e18370805773fed65d2fbf88ac20000100000000001976a914097b91a03b8fc7d6b76c774feba47ee6acac5e7888ac00000000"
    }, 
    {
      "txid": "6c5bdb93d46126ff396e1cca29a35626508a94289e456b31d2d172aedb356770",
      "hash": "6c5bdb93d46126ff396e1cca29a35626508a94289e456b31d2d172aedb356770",
      "version": 1,
      "size": 226,
      "vsize": 226,
      "locktime": 0,
      "vin": [
        {
          "txid": "88f77afd4f3bb74a2088984af6187c50b61f0850a2a261292a5b805884454ade",
          "vout": 0,
          "scriptSig": {
            "asm": "3045022100e062c4f5d6858a984db1f1113c3015b0848cff40a4b61106b1bc8d9c7e2fb5d9022068f7cc995784ee9c92df80216a1356466195365463c512ba686e47e35a7edf6b[ALL] 03177bd6b241cfada226dfd9d2e7cbc0edb8e0709fcac1bc9f7b72403b6f4d898c",
            "hex": "483045022100e062c4f5d6858a984db1f1113c3015b0848cff40a4b61106b1bc8d9c7e2fb5d9022068f7cc995784ee9c92df80216a1356466195365463c512ba686e47e35a7edf6b012103177bd6b241cfada226dfd9d2e7cbc0edb8e0709fcac1bc9f7b72403b6f4d898c"
          },
          "sequence": 4294967295
        }
      ],
      "vout": [
        {
          "value": 1.51484472,
          "n": 0,
          "scriptPubKey": {
            "asm": "OP_DUP OP_HASH160 910240ad29e8b0512afea401b3e56fb0ce5c265b OP_EQUALVERIFY OP_CHECKSIG",
            "hex": "76a914910240ad29e8b0512afea401b3e56fb0ce5c265b88ac",
            "reqSigs": 1,
            "type": "pubkeyhash",
            "addresses": [
              "LYSgwYYoTFRx73BqXEHWARYcq4Nj5N7iEC"
            ]
          }
        }, 
        {
          "value": 0.05190550,
          "n": 1,
          "scriptPubKey": {
            "asm": "OP_DUP OP_HASH160 fd95c786552c0558826ad0142cc642f053b5fe2d OP_EQUALVERIFY OP_CHECKSIG",
            "hex": "76a914fd95c786552c0558826ad0142cc642f053b5fe2d88ac",
            "reqSigs": 1,
            "type": "pubkeyhash",
            "addresses": [
              "LiLneboPmBoEwZPvzqUvtadjPtBUmA1r48"
            ]
          }
        }
      ],
      "hex": "0100000001de4a458458805b2a2961a2a250081fb6507c18f64a9888204ab73b4ffd7af788000000006b483045022100e062c4f5d6858a984db1f1113c3015b0848cff40a4b61106b1bc8d9c7e2fb5d9022068f7cc995784ee9c92df80216a1356466195365463c512ba686e47e35a7edf6b012103177bd6b241cfada226dfd9d2e7cbc0edb8e0709fcac1bc9f7b72403b6f4d898cffffffff0238780709000000001976a914910240ad29e8b0512afea401b3e56fb0ce5c265b88ac96334f00000000001976a914fd95c786552c0558826ad0142cc642f053b5fe2d88ac00000000"
    }, 
    {
      "txid": "aee02f1e03924bf7c7ae4979ffbe412bf63e1e03e6a61945819371363d323e9b",
      "hash": "aee02f1e03924bf7c7ae4979ffbe412bf63e1e03e6a61945819371363d323e9b",
      "version": 1,
      "size": 226,
      "vsize": 226,
      "locktime": 0,
      "vin": [
        {
          "txid": "8790eb869250cd92f05b319297232b12914ef549c6ebd5e614836d537417285c",
          "vout": 0,
          "scriptSig": {
            "asm": "3045022100bfd7f546db3b22f42695ae72069a4065115a9f3eb326e166f36c0606b42d4e03022070e1a11481907a70bcc8014f92d65435c8c6b4af630ed697972a27b656330f30[ALL] 03beddf3b026652ff7a18535d5f740953a48c24c496e7c94f42aa15873f137683b",
            "hex": "483045022100bfd7f546db3b22f42695ae72069a4065115a9f3eb326e166f36c0606b42d4e03022070e1a11481907a70bcc8014f92d65435c8c6b4af630ed697972a27b656330f30012103beddf3b026652ff7a18535d5f740953a48c24c496e7c94f42aa15873f137683b"
          },
          "sequence": 4294967295
        }
      ],
      "vout": [
        {
          "value": 0.00704125,
          "n": 0,
          "scriptPubKey": {
            "asm": "OP_DUP OP_HASH160 00ca7378ce188f42bdc8c4eb045828b95454a37e OP_EQUALVERIFY OP_CHECKSIG",
            "hex": "76a91400ca7378ce188f42bdc8c4eb045828b95454a37e88ac",
            "reqSigs": 1,
            "type": "pubkeyhash",
            "addresses": [
              "LKJ8nkzuhrhYkCveg3G59ZCfuu4wa7Yvda"
            ]
          }
        }, 
        {
          "value": 0.30017734,
          "n": 1,
          "scriptPubKey": {
            "asm": "OP_DUP OP_HASH160 dac9f4dcd30ca044f6b3ab9ee8c87e769fcdb551 OP_EQUALVERIFY OP_CHECKSIG",
            "hex": "76a914dac9f4dcd30ca044f6b3ab9ee8c87e769fcdb55188ac",
            "reqSigs": 1,
            "type": "pubkeyhash",
            "addresses": [
              "LfAoWDSUAqoVyn7WowWokmJGCwQJ9rvFnN"
            ]
          }
        }
      ],
      "hex": "01000000015c281774536d8314e6d5ebc649f54e91122b239792315bf092cd509286eb9087000000006b483045022100bfd7f546db3b22f42695ae72069a4065115a9f3eb326e166f36c0606b42d4e03022070e1a11481907a70bcc8014f92d65435c8c6b4af630ed697972a27b656330f30012103beddf3b026652ff7a18535d5f740953a48c24c496e7c94f42aa15873f137683bffffffff027dbe0a00000000001976a91400ca7378ce188f42bdc8c4eb045828b95454a37e88acc608ca01000000001976a914dac9f4dcd30ca044f6b3ab9ee8c87e769fcdb55188ac00000000"
    }, 
    {
      "txid": "11b99d14177653b7a1bb015b25eae0eea10e556db5b60c4e1980d07d45080de4",
      "hash": "11b99d14177653b7a1bb015b25eae0eea10e556db5b60c4e1980d07d45080de4",
      "version": 1,
      "size": 226,
      "vsize": 226,
      "locktime": 0,
      "vin": [
        {
          "txid": "395da42b8d4e27ef543eb045371e8cc6aa13554e061e660288484b5a8bbabd03",
          "vout": 0,
          "scriptSig": {
            "asm": "30450221008277dadcf2fc7019086f8a705cb813a3e48b330e73fb0b72aaf712a6b0f9e4b302203aa6aef42359e5c9cd003b12dd3d902b00e561c3a247606102ee5d66608a0422[ALL] 0292f7a111bc53dd6fa26f842d1ea032b86e049d3e805f123a74a0f5980c867aaf",
            "hex": "4830450221008277dadcf2fc7019086f8a705cb813a3e48b330e73fb0b72aaf712a6b0f9e4b302203aa6aef42359e5c9cd003b12dd3d902b00e561c3a247606102ee5d66608a042201210292f7a111bc53dd6fa26f842d1ea032b86e049d3e805f123a74a0f5980c867aaf"
          },
          "sequence": 4294967295
        }
      ],
      "vout": [
        {
          "value": 0.02972471,
          "n": 0,
          "scriptPubKey": {
            "asm": "OP_DUP OP_HASH160 bb12f19b1da3433410327b029d15ab24494751c5 OP_EQUALVERIFY OP_CHECKSIG",
            "hex": "76a914bb12f19b1da3433410327b029d15ab24494751c588ac",
            "reqSigs": 1,
            "type": "pubkeyhash",
            "addresses": [
              "LcH7KKcZnLcUofuHdy68yiMEy4CoJjS9AC"
            ]
          }
        }, 
        {
          "value": 0.00055680,
          "n": 1,
          "scriptPubKey": {
            "asm": "OP_DUP OP_HASH160 cc431991eb917fd27727d46e5906babc6858bff6 OP_EQUALVERIFY OP_CHECKSIG",
            "hex": "76a914cc431991eb917fd27727d46e5906babc6858bff688ac",
            "reqSigs": 1,
            "type": "pubkeyhash",
            "addresses": [
              "LdqzVXaUofvicezk6DQnmAgpcmfXXaasTk"
            ]
          }
        }
      ],
      "hex": "010000000103bdba8b5a4b488802661e064e5513aac68c1e3745b03e54ef274e8d2ba45d39000000006b4830450221008277dadcf2fc7019086f8a705cb813a3e48b330e73fb0b72aaf712a6b0f9e4b302203aa6aef42359e5c9cd003b12dd3d902b00e561c3a247606102ee5d66608a042201210292f7a111bc53dd6fa26f842d1ea032b86e049d3e805f123a74a0f5980c867aafffffffff02375b2d00000000001976a914bb12f19b1da3433410327b029d15ab24494751c588ac80d90000000000001976a914cc431991eb917fd27727d46e5906babc6858bff688ac00000000"
    }
  ],
  "time": 1517262773,
  "mediantime": 1517262251,
  "nonce": 355381783,
  "bits": "1a042eae",
  "difficulty": 4011378.762614286,
  "chainwork": "000000000000000000000000000000000000000000000033dda20a805072af74",
  "previousblockhash": "4eed95835ad339b6fc4cca504854e9e1ac0b451dcfc9a05bb0b569903e7c54d8",
  "nextblockhash": "735fb9192fb0d8d33498b64343a41a0db550477dc94531e27d0d56f8c62518f0"
}
