{
  "hash": "31d16fac617b37caa678a2f9e9ba6e847a53466163bb778bc4202350057ed2e7",
  "confirmations": 3764,
  "strippedsize": 255,
  "size": 255,
  "weight": 1020,
  "height": 1357231,
  "version": 536870912,
  "versionHex": "20000000",
  "merkleroot": "8e7e824e975f9776510e34244faef1f670fc39028dd3670a68f7c37e190c8f12",
  "tx": [
    {
      "txid": "8e7e824e975f9776510e34244faef1f670fc39028dd3670a68f7c37e190c8f12",
      "hash": "8e7e824e975f9776510e34244faef1f670fc39028dd3670a68f7c37e190c8f12",
      "version": 1,
      "size": 174,
      "vsize": 174,
      "locktime": 0,
      "vin": [
        {
          "coinbase": "03afb5141c4d696e656420627920416e74506f6f6c20626a3532205a6b35a301a8fabe6d6d97a35c7f70d86e114b6681c3cd66986f4b31776d3acca696a15cf5bfcb7d465a04000000000000001c1800000000000001000000",
          "sequence": 4294967295
        }
      ],
      "vout": [
        {
          "value": 25.00000000,
          "n": 0,
          "scriptPubKey": {
            "asm": "OP_DUP OP_HASH160 0ff3ccc5e8be88afe24b5d634e5852d474dbdff1 OP_EQUALVERIFY OP_CHECKSIG",
            "hex": "76a9140ff3ccc5e8be88afe24b5d634e5852d474dbdff188ac",
            "reqSigs": 1,
            "type": "pubkeyhash",
            "addresses": [
              "LLgJTbzZMsRTCUF1NtvvL9SR1a4pVieW89"
            ]
          }
        }
      ],
      "hex": "01000000010000000000000000000000000000000000000000000000000000000000000000ffffffff5903afb5141c4d696e656420627920416e74506f6f6c20626a3532205a6b35a301a8fabe6d6d97a35c7f70d86e114b6681c3cd66986f4b31776d3acca696a15cf5bfcb7d465a04000000000000001c1800000000000001000000ffffffff0100f90295000000001976a9140ff3ccc5e8be88afe24b5d634e5852d474dbdff188ac00000000"
    }
  ],
  "time": 1516975523,
  "mediantime": 1516974922,
  "nonce": 2134312977,
  "bits": "1a047f14",
  "difficulty": 3731199.183374282,
  "chainwork": "0000000000000000000000000000000000000000000000320b7ba877739b46e0",
  "previousblockhash": "69e09bd04bb177fff07dbae7115ce681e0be5090d03646d7ec5450683006a86e",
  "nextblockhash": "9b6ebb74b50c0569e4a289a4daa6052b60e79e3b5e1acddd69784212c66bcaa7"
}
