{
  "hash": "3214111aeaea306e075fa8e49837e969e1a26a312b9b3d3aa0ebdecb1c36efee",
  "confirmations": 3059,
  "strippedsize": 234,
  "size": 234,
  "weight": 936,
  "height": 1357936,
  "version": 536870912,
  "versionHex": "20000000",
  "merkleroot": "5ea49c4e85ec21aed781e7fb61a3ec25acdf58cb0585244b3ef4f31d43ed1b4d",
  "tx": [
    {
      "txid": "5ea49c4e85ec21aed781e7fb61a3ec25acdf58cb0585244b3ef4f31d43ed1b4d",
      "hash": "5ea49c4e85ec21aed781e7fb61a3ec25acdf58cb0585244b3ef4f31d43ed1b4d",
      "version": 1,
      "size": 153,
      "vsize": 153,
      "locktime": 0,
      "vin": [
        {
          "coinbase": "0370b814045a6c9c112cfabe6d6d8576480400f33629e5a17ed40f5044624f1b3e913312c61990ce1c5eaab3b4804000000000000000042f4c502f0858006f6901000000",
          "sequence": 4294967295
        }
      ],
      "vout": [
        {
          "value": 25.00000000,
          "n": 0,
          "scriptPubKey": {
            "asm": "OP_DUP OP_HASH160 57757ed2ecf2052ff3126c397aca7defb9ca2cec OP_EQUALVERIFY OP_CHECKSIG",
            "hex": "76a91457757ed2ecf2052ff3126c397aca7defb9ca2cec88ac",
            "reqSigs": 1,
            "type": "pubkeyhash",
            "addresses": [
              "LTCPodGk5FwcJaRzH9yKnwicxzFUbxp6tN"
            ]
          }
        }
      ],
      "hex": "01000000010000000000000000000000000000000000000000000000000000000000000000ffffffff440370b814045a6c9c112cfabe6d6d8576480400f33629e5a17ed40f5044624f1b3e913312c61990ce1c5eaab3b4804000000000000000042f4c502f0858006f6901000000ffffffff0100f90295000000001976a91457757ed2ecf2052ff3126c397aca7defb9ca2cec88ac00000000"
    }
  ],
  "time": 1517067281,
  "mediantime": 1517066909,
  "nonce": 1993908744,
  "bits": "1a047f14",
  "difficulty": 3731199.183374282,
  "chainwork": "000000000000000000000000000000000000000000000032a8467202848a4a7a",
  "previousblockhash": "8737a351dbad5a93397ff3cc3727bc709ddaaa90704badd9df8f5b63010dd4f0",
  "nextblockhash": "a284e24c5e9f2957608be6d532ef4ba0827f63769633b894a05e19b0728ec89d"
}
