{
  "hash": "3378e851d8be833e045f84c9fcb40200b7672e66da744c02064550480c0ebb92",
  "confirmations": 3091,
  "strippedsize": 5335,
  "size": 5371,
  "weight": 21376,
  "height": 1357904,
  "version": 536870912,
  "versionHex": "20000000",
  "merkleroot": "37649aba900bc1ad4d4078a56d2e899e042fd0eeda5d8034c2bec09a6f1929ba",
  "tx": [
    {
      "txid": "5c6f12d6685a1902f5cbb039f3403179695def3b667c76cd3588a920ae247f23",
      "hash": "3ab592b43be638d69eeb9626855985910dd6f4723bb0c6e423e8c1000413c32b",
      "version": 1,
      "size": 264,
      "vsize": 237,
      "locktime": 0,
      "vin": [
        {
          "coinbase": "0350b8141d2f5669614254432f4d696e65642062792031383931303733333636332f2cfabe6d6df2d662dcecd4ea834410190fbe847f2df50059e7113965458f5ae04144b63ee30100000000000000105a5d6f00f0e82d1225e374f31b000000",
          "sequence": 4294967295
        }
      ],
      "vout": [
        {
          "value": 25.00798500,
          "n": 0,
          "scriptPubKey": {
            "asm": "OP_DUP OP_HASH160 e16c28146ed4869c190b3f0bdc18d80d45f92134 OP_EQUALVERIFY OP_CHECKSIG",
            "hex": "76a914e16c28146ed4869c190b3f0bdc18d80d45f9213488ac",
            "reqSigs": 1,
            "type": "pubkeyhash",
            "addresses": [
              "LfmssDyX6iZvbVqHv6t9P6JWXia2JG7mdb"
            ]
          }
        }, 
        {
          "value": 0.00000000,
          "n": 1,
          "scriptPubKey": {
            "asm": "OP_RETURN aa21a9edc1b969b2e2ff43bf4d576f326f6e46b1b1b2119c57bdd57138833077b23f900b",
            "hex": "6a24aa21a9edc1b969b2e2ff43bf4d576f326f6e46b1b1b2119c57bdd57138833077b23f900b",
            "type": "nulldata"
          }
        }
      ],
      "hex": "010000000001010000000000000000000000000000000000000000000000000000000000000000ffffffff600350b8141d2f5669614254432f4d696e65642062792031383931303733333636332f2cfabe6d6df2d662dcecd4ea834410190fbe847f2df50059e7113965458f5ae04144b63ee30100000000000000105a5d6f00f0e82d1225e374f31b000000ffffffff0224280f95000000001976a914e16c28146ed4869c190b3f0bdc18d80d45f9213488ac0000000000000000266a24aa21a9edc1b969b2e2ff43bf4d576f326f6e46b1b1b2119c57bdd57138833077b23f900b0120000000000000000000000000000000000000000000000000000000000000000000000000"
    }, 
    {
      "txid": "efaab8ea0ce371c10a7a2b76f967f8dac8a6e787f413e6c3a100db0dacbf62fa",
      "hash": "efaab8ea0ce371c10a7a2b76f967f8dac8a6e787f413e6c3a100db0dacbf62fa",
      "version": 1,
      "size": 340,
      "vsize": 340,
      "locktime": 0,
      "vin": [
        {
          "txid": "e300a51b1fe96f97e2309fe86087c286471b10cd238c406c3dd014a61313a7f8",
          "vout": 1,
          "scriptSig": {
            "asm": "3045022100cb14b8b89f246cda99f3c40e139ff1dd6fa159dd2671f17594ccef7feb9c209802203c531e05e026fa30ae17b28147a687f2aa47af6f5e0574fc496f41b4f083901c[ALL] 030e3e539ab52aa2bb5f41627e1e3101394bab9459f71abb0a64b0dc08bb7b3919",
            "hex": "483045022100cb14b8b89f246cda99f3c40e139ff1dd6fa159dd2671f17594ccef7feb9c209802203c531e05e026fa30ae17b28147a687f2aa47af6f5e0574fc496f41b4f083901c0121030e3e539ab52aa2bb5f41627e1e3101394bab9459f71abb0a64b0dc08bb7b3919"
          },
          "sequence": 4294967295
        }, 
        {
          "txid": "f11e8d6ffd6802469bd70e63b820273016137cf170d6293eb458ad7e9666f01c",
          "vout": 1,
          "scriptSig": {
            "asm": "3045022100e0494e9a0f35be49e1cfb26b00cb845c760bd429b23f5ab6c906afa0f8745cce02200dda5560d0591b1ec06614b72da5af7c6500ca2f4b9051f18bf371a685e697dc[ALL] 03f4ced7afc46d5b9c8425b9a3460b7abba7d6bb0da7c74390c3f37f144d72fc3f",
            "hex": "483045022100e0494e9a0f35be49e1cfb26b00cb845c760bd429b23f5ab6c906afa0f8745cce02200dda5560d0591b1ec06614b72da5af7c6500ca2f4b9051f18bf371a685e697dc012103f4ced7afc46d5b9c8425b9a3460b7abba7d6bb0da7c74390c3f37f144d72fc3f"
          },
          "sequence": 4294967295
        }
      ],
      "vout": [
        {
          "value": 6.24923887,
          "n": 0,
          "scriptPubKey": {
            "asm": "OP_DUP OP_HASH160 b62903e9fe74de35ee4b8b43242a1516e1b2fa10 OP_EQUALVERIFY OP_CHECKSIG",
            "hex": "76a914b62903e9fe74de35ee4b8b43242a1516e1b2fa1088ac",
            "reqSigs": 1,
            "type": "pubkeyhash",
            "addresses": [
              "Lbq8NvDmNbQS7HBHWPLQi9XyiA978czHec"
            ]
          }
        }
      ],
      "hex": "0100000002f8a71313a614d03d6c408c23cd101b4786c28760e89f30e2976fe91f1ba500e3010000006b483045022100cb14b8b89f246cda99f3c40e139ff1dd6fa159dd2671f17594ccef7feb9c209802203c531e05e026fa30ae17b28147a687f2aa47af6f5e0574fc496f41b4f083901c0121030e3e539ab52aa2bb5f41627e1e3101394bab9459f71abb0a64b0dc08bb7b3919ffffffff1cf066967ead58b43e29d670f17c1316302720b8630ed79b460268fd6f8d1ef1010000006b483045022100e0494e9a0f35be49e1cfb26b00cb845c760bd429b23f5ab6c906afa0f8745cce02200dda5560d0591b1ec06614b72da5af7c6500ca2f4b9051f18bf371a685e697dc012103f4ced7afc46d5b9c8425b9a3460b7abba7d6bb0da7c74390c3f37f144d72fc3fffffffff01ef943f25000000001976a914b62903e9fe74de35ee4b8b43242a1516e1b2fa1088ac00000000"
    }, 
    {
      "txid": "5d1d8c985ba249cc0e0afbe284a390bd0ee45cd04b715dc504eca2cef7022cb9",
      "hash": "5d1d8c985ba249cc0e0afbe284a390bd0ee45cd04b715dc504eca2cef7022cb9",
      "version": 1,
      "size": 334,
      "vsize": 334,
      "locktime": 0,
      "vin": [
        {
          "txid": "17d920086702367c572d165de1589c0d8466597309879017c1851f12facf106a",
          "vout": 1,
          "scriptSig": {
            "asm": "0 3044022042bae0257fbc21f7547bc81a5fdf0cdbd77439cd6b475219dcc25f57953e280f0220009007e2f1b0b79ad8b1e05c431277ed9b3bf4308876527f0f0db5a7142d61f4[ALL] 30440220374f663b76a0493024120a86f1d6c1212824401edea277a111452a6b249f149f02200594de072caf7c29710b02e841669f187caf4b6335b60da05d3be3d04d0243c6[ALL] 522102f77ec37a042ba4e5e6aef7760398bf59b87ac4c5dee30a2fb8798e9630d4916e210276b93401dc495b28592f66411a7c9093b468f8678db51144fc6a36f550d94aa952ae",
            "hex": "00473044022042bae0257fbc21f7547bc81a5fdf0cdbd77439cd6b475219dcc25f57953e280f0220009007e2f1b0b79ad8b1e05c431277ed9b3bf4308876527f0f0db5a7142d61f4014730440220374f663b76a0493024120a86f1d6c1212824401edea277a111452a6b249f149f02200594de072caf7c29710b02e841669f187caf4b6335b60da05d3be3d04d0243c60147522102f77ec37a042ba4e5e6aef7760398bf59b87ac4c5dee30a2fb8798e9630d4916e210276b93401dc495b28592f66411a7c9093b468f8678db51144fc6a36f550d94aa952ae"
          },
          "sequence": 4294967295
        }
      ],
      "vout": [
        {
          "value": 0.03238000,
          "n": 0,
          "scriptPubKey": {
            "asm": "OP_DUP OP_HASH160 10433c6a9cdad531e8f0e66bb837fbf8ab1f3345 OP_EQUALVERIFY OP_CHECKSIG",
            "hex": "76a91410433c6a9cdad531e8f0e66bb837fbf8ab1f334588ac",
            "reqSigs": 1,
            "type": "pubkeyhash",
            "addresses": [
              "LLhwcvQXTC7DZCdXxvGmCef9tddZftidjz"
            ]
          }
        }, 
        {
          "value": 27.55631400,
          "n": 1,
          "scriptPubKey": {
            "asm": "OP_HASH160 75b77316f8d91ff71fb2819115d1b6b9e80ccee9 OP_EQUAL",
            "hex": "a91475b77316f8d91ff71fb2819115d1b6b9e80ccee987",
            "reqSigs": 1,
            "type": "scripthash",
            "addresses": [
              "MJdb4B3BMDrfpB1FpKsPYQ1tDHdkNa1oLB"
            ]
          }
        }
      ],
      "hex": "01000000016a10cffa121f85c117908709735966840d9c58e15d162d577c3602670820d91701000000d900473044022042bae0257fbc21f7547bc81a5fdf0cdbd77439cd6b475219dcc25f57953e280f0220009007e2f1b0b79ad8b1e05c431277ed9b3bf4308876527f0f0db5a7142d61f4014730440220374f663b76a0493024120a86f1d6c1212824401edea277a111452a6b249f149f02200594de072caf7c29710b02e841669f187caf4b6335b60da05d3be3d04d0243c60147522102f77ec37a042ba4e5e6aef7760398bf59b87ac4c5dee30a2fb8798e9630d4916e210276b93401dc495b28592f66411a7c9093b468f8678db51144fc6a36f550d94aa952aeffffffff0270683100000000001976a91410433c6a9cdad531e8f0e66bb837fbf8ab1f334588ac28993fa40000000017a91475b77316f8d91ff71fb2819115d1b6b9e80ccee98700000000"
    }, 
    {
      "txid": "ab15f968701214c345e314fe90c109d9f7cf052401e85620cdc028984a27c21f",
      "hash": "ab15f968701214c345e314fe90c109d9f7cf052401e85620cdc028984a27c21f",
      "version": 1,
      "size": 226,
      "vsize": 226,
      "locktime": 0,
      "vin": [
        {
          "txid": "87a67f5ace51c10dbdb40fb21f25f978fc213dba0329791474d1c3c4ff9154f1",
          "vout": 0,
          "scriptSig": {
            "asm": "3045022100d4e241617ad1af1722a2f0e333d9a4048a1aca75a72656137eba098145b9de5002204a4cd1f2150588fb61362fae0bb64360f087647f0dc3f95723e8864db9918e80[ALL] 02623bdf1179c28ccaac96121c3d7b5c67ba759ba961b06c5d2f68c4ad42cc818d",
            "hex": "483045022100d4e241617ad1af1722a2f0e333d9a4048a1aca75a72656137eba098145b9de5002204a4cd1f2150588fb61362fae0bb64360f087647f0dc3f95723e8864db9918e80012102623bdf1179c28ccaac96121c3d7b5c67ba759ba961b06c5d2f68c4ad42cc818d"
          },
          "sequence": 4294967295
        }
      ],
      "vout": [
        {
          "value": 71.82559191,
          "n": 0,
          "scriptPubKey": {
            "asm": "OP_DUP OP_HASH160 3af44bf63b8dc20cd1a57da3648dc561a628b614 OP_EQUALVERIFY OP_CHECKSIG",
            "hex": "76a9143af44bf63b8dc20cd1a57da3648dc561a628b61488ac",
            "reqSigs": 1,
            "type": "pubkeyhash",
            "addresses": [
              "LQbg7NbwXfRXPtX6Tw6RKKJ1w39kaxDrPP"
            ]
          }
        }, 
        {
          "value": 1.77210552,
          "n": 1,
          "scriptPubKey": {
            "asm": "OP_DUP OP_HASH160 722a355739ddc6e5f25998dcede6e20e686702df OP_EQUALVERIFY OP_CHECKSIG",
            "hex": "76a914722a355739ddc6e5f25998dcede6e20e686702df88ac",
            "reqSigs": 1,
            "type": "pubkeyhash",
            "addresses": [
              "LVdbrmcsd1RAi93CHKSLTVxwb5caXQrAmL"
            ]
          }
        }
      ],
      "hex": "0100000001f15491ffc4c3d17414792903ba3d21fc78f9251fb20fb4bd0dc151ce5a7fa687000000006b483045022100d4e241617ad1af1722a2f0e333d9a4048a1aca75a72656137eba098145b9de5002204a4cd1f2150588fb61362fae0bb64360f087647f0dc3f95723e8864db9918e80012102623bdf1179c28ccaac96121c3d7b5c67ba759ba961b06c5d2f68c4ad42cc818dffffffff02d7271dac010000001976a9143af44bf63b8dc20cd1a57da3648dc561a628b61488acb804900a000000001976a914722a355739ddc6e5f25998dcede6e20e686702df88ac00000000"
    }, 
    {
      "txid": "35ad903497400ce754a82b6cdec85ee99210994677142e044f78a8f001e3f459",
      "hash": "35ad903497400ce754a82b6cdec85ee99210994677142e044f78a8f001e3f459",
      "version": 1,
      "size": 226,
      "vsize": 226,
      "locktime": 0,
      "vin": [
        {
          "txid": "32a5be549abefb06af8aaf96ac0bee9d1b32bad5081814466fbc52005b3026c2",
          "vout": 0,
          "scriptSig": {
            "asm": "3045022100bf78a6fb723f341f7a6dff96b974dba24c1b809c59ebc69a3631ea87187c803202207f8cc9cb446ba7fa8fd03f50cc6fb379766a152100cec117d911d8ff7e81a1c2[ALL] 03b3f7183fc2221730e50b1fc54ad935ce49e6411806ac15321179fbcbb60b342f",
            "hex": "483045022100bf78a6fb723f341f7a6dff96b974dba24c1b809c59ebc69a3631ea87187c803202207f8cc9cb446ba7fa8fd03f50cc6fb379766a152100cec117d911d8ff7e81a1c2012103b3f7183fc2221730e50b1fc54ad935ce49e6411806ac15321179fbcbb60b342f"
          },
          "sequence": 4294967295
        }
      ],
      "vout": [
        {
          "value": 1.29700000,
          "n": 0,
          "scriptPubKey": {
            "asm": "OP_DUP OP_HASH160 b1707e74656bb1717e0b896ac3a16764f09e86d3 OP_EQUALVERIFY OP_CHECKSIG",
            "hex": "76a914b1707e74656bb1717e0b896ac3a16764f09e86d388ac",
            "reqSigs": 1,
            "type": "pubkeyhash",
            "addresses": [
              "LbQAdPG6MBo33MsEJd6Y7uAfVPWE5XqJk8"
            ]
          }
        }, 
        {
          "value": 72.80531738,
          "n": 1,
          "scriptPubKey": {
            "asm": "OP_DUP OP_HASH160 6038dcda26d716792c206ce33cf2dbc922f43963 OP_EQUALVERIFY OP_CHECKSIG",
            "hex": "76a9146038dcda26d716792c206ce33cf2dbc922f4396388ac",
            "reqSigs": 1,
            "type": "pubkeyhash",
            "addresses": [
              "LTzjFX2zyGYP7D7sszrHxPNq3ZQdSHks4J"
            ]
          }
        }
      ],
      "hex": "0100000001c226305b0052bc6f46141808d5ba321b9dee0bac96af8aaf06fbbe9a54bea532000000006b483045022100bf78a6fb723f341f7a6dff96b974dba24c1b809c59ebc69a3631ea87187c803202207f8cc9cb446ba7fa8fd03f50cc6fb379766a152100cec117d911d8ff7e81a1c2012103b3f7183fc2221730e50b1fc54ad935ce49e6411806ac15321179fbcbb60b342fffffffff02a010bb07000000001976a914b1707e74656bb1717e0b896ac3a16764f09e86d388ac1a19f4b1010000001976a9146038dcda26d716792c206ce33cf2dbc922f4396388ac00000000"
    }, 
    {
      "txid": "b24988f4ca3d776c26db7d43ad7bfb3b7ba195ef108799a65a4b3c6e5c29557d",
      "hash": "b24988f4ca3d776c26db7d43ad7bfb3b7ba195ef108799a65a4b3c6e5c29557d",
      "version": 1,
      "size": 226,
      "vsize": 226,
      "locktime": 0,
      "vin": [
        {
          "txid": "a7efa55d836931680c3344333c089ebafa917b18b30da23cb2e4da9db6968dfc",
          "vout": 1,
          "scriptSig": {
            "asm": "3045022100e19e7b9548b51c9d2a316cd3bc766efaeec7049eadd701c3fe696354cd4b81dc02204539fece1c02f0788e1896ec26a81a475249fc7df3b430be3db5c86151e63fdb[ALL] 030d743550482a2d19d0867cb330c873f64e853fe06612d2e89b33a422546f6673",
            "hex": "483045022100e19e7b9548b51c9d2a316cd3bc766efaeec7049eadd701c3fe696354cd4b81dc02204539fece1c02f0788e1896ec26a81a475249fc7df3b430be3db5c86151e63fdb0121030d743550482a2d19d0867cb330c873f64e853fe06612d2e89b33a422546f6673"
          },
          "sequence": 4294967295
        }
      ],
      "vout": [
        {
          "value": 2.70000000,
          "n": 0,
          "scriptPubKey": {
            "asm": "OP_DUP OP_HASH160 d64298d9afdaa648965a9f0c56b019c1e631f953 OP_EQUALVERIFY OP_CHECKSIG",
            "hex": "76a914d64298d9afdaa648965a9f0c56b019c1e631f95388ac",
            "reqSigs": 1,
            "type": "pubkeyhash",
            "addresses": [
              "LekreWZBDJw3ubiVk6RBL7WNQwV7DDAXkG"
            ]
          }
        }, 
        {
          "value": 66.38233978,
          "n": 1,
          "scriptPubKey": {
            "asm": "OP_DUP OP_HASH160 e418f2413d7d8e9f6b35d601d27e013f0680982e OP_EQUALVERIFY OP_CHECKSIG",
            "hex": "76a914e418f2413d7d8e9f6b35d601d27e013f0680982e88ac",
            "reqSigs": 1,
            "type": "pubkeyhash",
            "addresses": [
              "Lg22DFTyWhqTWmts7Q1bYUBiTUbaBLdP7L"
            ]
          }
        }
      ],
      "hex": "0100000001fc8d96b69ddae4b23ca20db3187b91faba9e083c3344330c683169835da5efa7010000006b483045022100e19e7b9548b51c9d2a316cd3bc766efaeec7049eadd701c3fe696354cd4b81dc02204539fece1c02f0788e1896ec26a81a475249fc7df3b430be3db5c86151e63fdb0121030d743550482a2d19d0867cb330c873f64e853fe06612d2e89b33a422546f6673ffffffff0280df1710000000001976a914d64298d9afdaa648965a9f0c56b019c1e631f95388ac7a69ab8b010000001976a914e418f2413d7d8e9f6b35d601d27e013f0680982e88ac00000000"
    }, 
    {
      "txid": "93474aeeaa88163178c2e9294baed39c3480f37e49700cc812652cb14c3a7c8d",
      "hash": "93474aeeaa88163178c2e9294baed39c3480f37e49700cc812652cb14c3a7c8d",
      "version": 2,
      "size": 226,
      "vsize": 226,
      "locktime": 1357902,
      "vin": [
        {
          "txid": "8b66a3eb975289d95cf1b8c99e8991e37fedbb33f8b550f83d50de11830dd978",
          "vout": 1,
          "scriptSig": {
            "asm": "30450221009296e7b7064b73464f2ce21bf0d7ced797bcf87eb2091636477b9e5bcab74ead02203149cac6149afcdcab2faca2a100e1dc31ad58aff0e721779233ba218f4f852e[ALL] 0339e020181a290ba0dd1441bf79a1081c3b848f0c42a45ad722842ebefbc5f73c",
            "hex": "4830450221009296e7b7064b73464f2ce21bf0d7ced797bcf87eb2091636477b9e5bcab74ead02203149cac6149afcdcab2faca2a100e1dc31ad58aff0e721779233ba218f4f852e01210339e020181a290ba0dd1441bf79a1081c3b848f0c42a45ad722842ebefbc5f73c"
          },
          "sequence": 4294967294
        }
      ],
      "vout": [
        {
          "value": 1.37689272,
          "n": 0,
          "scriptPubKey": {
            "asm": "OP_DUP OP_HASH160 f353f763b9b125cb7a5bcb32d35697e44c9504bd OP_EQUALVERIFY OP_CHECKSIG",
            "hex": "76a914f353f763b9b125cb7a5bcb32d35697e44c9504bd88ac",
            "reqSigs": 1,
            "type": "pubkeyhash",
            "addresses": [
              "LhQZ3uv6zYutcsjxem9bcJaDtDVLTjimQw"
            ]
          }
        }, 
        {
          "value": 0.02073704,
          "n": 1,
          "scriptPubKey": {
            "asm": "OP_DUP OP_HASH160 5710ff3a0ca9c6f9dc1ac2cb6a021385aa689c7d OP_EQUALVERIFY OP_CHECKSIG",
            "hex": "76a9145710ff3a0ca9c6f9dc1ac2cb6a021385aa689c7d88ac",
            "reqSigs": 1,
            "type": "pubkeyhash",
            "addresses": [
              "LTAKQsbMyRrzF4Ge3tmdnSE1sjQHHxENZN"
            ]
          }
        }
      ],
      "hex": "020000000178d90d8311de503df850b5f833bbed7fe391899ec9b8f15cd9895297eba3668b010000006b4830450221009296e7b7064b73464f2ce21bf0d7ced797bcf87eb2091636477b9e5bcab74ead02203149cac6149afcdcab2faca2a100e1dc31ad58aff0e721779233ba218f4f852e01210339e020181a290ba0dd1441bf79a1081c3b848f0c42a45ad722842ebefbc5f73cfeffffff02b8f83408000000001976a914f353f763b9b125cb7a5bcb32d35697e44c9504bd88ac68a41f00000000001976a9145710ff3a0ca9c6f9dc1ac2cb6a021385aa689c7d88ac4eb81400"
    }, 
    {
      "txid": "7cabfb0d435f898fa304095e7e392d4d985613d0cad69b335545ff720a9583b1",
      "hash": "7cabfb0d435f898fa304095e7e392d4d985613d0cad69b335545ff720a9583b1",
      "version": 1,
      "size": 226,
      "vsize": 226,
      "locktime": 0,
      "vin": [
        {
          "txid": "2176c80ed4fe54c9b6a76b25d62aaec1b8daa02d10bcad67b2c2a5824fed8951",
          "vout": 1,
          "scriptSig": {
            "asm": "304502210095be943e8b6e362e01cf4a6a621a75ab17c158538f5fa0265221f223a2b68d0e02206a6b701424deb25fadfa600c5a725ab0f8db1b167efe4fa796c24271c0f01c83[ALL] 03da56ba924d3d6f504e3efb1c8c4044adf47cab79b497b645d26eb41f2dacbce4",
            "hex": "48304502210095be943e8b6e362e01cf4a6a621a75ab17c158538f5fa0265221f223a2b68d0e02206a6b701424deb25fadfa600c5a725ab0f8db1b167efe4fa796c24271c0f01c83012103da56ba924d3d6f504e3efb1c8c4044adf47cab79b497b645d26eb41f2dacbce4"
          },
          "sequence": 4294967295
        }
      ],
      "vout": [
        {
          "value": 30.63618623,
          "n": 0,
          "scriptPubKey": {
            "asm": "OP_DUP OP_HASH160 00ace27f2391599f61a26b37a95b7d8c4be583d2 OP_EQUALVERIFY OP_CHECKSIG",
            "hex": "76a91400ace27f2391599f61a26b37a95b7d8c4be583d288ac",
            "reqSigs": 1,
            "type": "pubkeyhash",
            "addresses": [
              "LKHXNTQvfRhwS9JtsTg69CgP3NaeiTZruZ"
            ]
          }
        }, 
        {
          "value": 36.47807135,
          "n": 1,
          "scriptPubKey": {
            "asm": "OP_DUP OP_HASH160 99e4ddb7b074c7d3a2a22b4ac5da69397a9e98e8 OP_EQUALVERIFY OP_CHECKSIG",
            "hex": "76a91499e4ddb7b074c7d3a2a22b4ac5da69397a9e98e888ac",
            "reqSigs": 1,
            "type": "pubkeyhash",
            "addresses": [
              "LZFfpTUrJQ937a3yQ6QA9ZgjKviHZ4ER91"
            ]
          }
        }
      ],
      "hex": "01000000015189ed4f82a5c2b267adbc102da0dab8c1ae2ad6256ba7b6c954fed40ec87621010000006b48304502210095be943e8b6e362e01cf4a6a621a75ab17c158538f5fa0265221f223a2b68d0e02206a6b701424deb25fadfa600c5a725ab0f8db1b167efe4fa796c24271c0f01c83012103da56ba924d3d6f504e3efb1c8c4044adf47cab79b497b645d26eb41f2dacbce4ffffffff023f1c9bb6000000001976a91400ace27f2391599f61a26b37a95b7d8c4be583d288ac9f1e6dd9000000001976a91499e4ddb7b074c7d3a2a22b4ac5da69397a9e98e888ac00000000"
    }, 
    {
      "txid": "60b36fd5546fc80e18b57b8ddb89c68b3bb44cdc0d39992d62eecd39c74e65f9",
      "hash": "60b36fd5546fc80e18b57b8ddb89c68b3bb44cdc0d39992d62eecd39c74e65f9",
      "version": 1,
      "size": 226,
      "vsize": 226,
      "locktime": 0,
      "vin": [
        {
          "txid": "fe23462802f3cecd483ebb5c752fd9ddbf523add976d3688c7d0cb7969beffbf",
          "vout": 0,
          "scriptSig": {
            "asm": "3045022100b60583a7644f570734bd44d0d7d0b332607706bb961ea6c767a8cb1f637ca074022068289433f15a7da5fe3355e56e62c0ed7e4fd94a343baf3bc10789f3628236c3[ALL] 036ed1b45bc815ea42c035ff647d4219ac833a321b4008cff1a15092340bb80669",
            "hex": "483045022100b60583a7644f570734bd44d0d7d0b332607706bb961ea6c767a8cb1f637ca074022068289433f15a7da5fe3355e56e62c0ed7e4fd94a343baf3bc10789f3628236c30121036ed1b45bc815ea42c035ff647d4219ac833a321b4008cff1a15092340bb80669"
          },
          "sequence": 4294967295
        }
      ],
      "vout": [
        {
          "value": 75.35307052,
          "n": 0,
          "scriptPubKey": {
            "asm": "OP_DUP OP_HASH160 1682d39ffc079cc711bef898125f6b3c265d9e1a OP_EQUALVERIFY OP_CHECKSIG",
            "hex": "76a9141682d39ffc079cc711bef898125f6b3c265d9e1a88ac",
            "reqSigs": 1,
            "type": "pubkeyhash",
            "addresses": [
              "LMGyrRqKEGxfgbMjwuLVhkCBRjSSv621Um"
            ]
          }
        }, 
        {
          "value": 0.55604416,
          "n": 1,
          "scriptPubKey": {
            "asm": "OP_DUP OP_HASH160 cb9f624c8952d84961526ee5bcd8951531adb719 OP_EQUALVERIFY OP_CHECKSIG",
            "hex": "76a914cb9f624c8952d84961526ee5bcd8951531adb71988ac",
            "reqSigs": 1,
            "type": "pubkeyhash",
            "addresses": [
              "LdncNM7sYneAqEZji95Mc2Ck5HaYkeYQ7A"
            ]
          }
        }
      ],
      "hex": "0100000001bfffbe6979cbd0c788366d97dd3a52bfddd92f755cbb3e48cdcef302284623fe000000006b483045022100b60583a7644f570734bd44d0d7d0b332607706bb961ea6c767a8cb1f637ca074022068289433f15a7da5fe3355e56e62c0ed7e4fd94a343baf3bc10789f3628236c30121036ed1b45bc815ea42c035ff647d4219ac833a321b4008cff1a15092340bb80669ffffffff022ca923c1010000001976a9141682d39ffc079cc711bef898125f6b3c265d9e1a88acc0745003000000001976a914cb9f624c8952d84961526ee5bcd8951531adb71988ac00000000"
    }, 
    {
      "txid": "b1d8c81de59c43dd1b26dd7673b46028c4e7c4b62f7edb916589ee441150cba5",
      "hash": "b1d8c81de59c43dd1b26dd7673b46028c4e7c4b62f7edb916589ee441150cba5",
      "version": 1,
      "size": 2996,
      "vsize": 2996,
      "locktime": 0,
      "vin": [
        {
          "txid": "2794783972db45b6ccca4dd3de66277ee288b4c7332aac66dc269d4f477a5654",
          "vout": 10,
          "scriptSig": {
            "asm": "30450221008535c3dd8f06b9f6c01c4f40fec8fb92d117cafa417a6317a7c7650f42f4d6e1022055b0c33401d71619fcc3907567656db80697d2521e2445672e5ec67866abe075[ALL] 02fc8b7854a60b53726d678419437ccea22780c70258a6205fbccaf6c20edcd484",
            "hex": "4830450221008535c3dd8f06b9f6c01c4f40fec8fb92d117cafa417a6317a7c7650f42f4d6e1022055b0c33401d71619fcc3907567656db80697d2521e2445672e5ec67866abe075012102fc8b7854a60b53726d678419437ccea22780c70258a6205fbccaf6c20edcd484"
          },
          "sequence": 4294967295
        }, 
        {
          "txid": "d1a2ffad8575c89db39e2df58d9e6575564b82f36ed0df75539962ee5aec2031",
          "vout": 0,
          "scriptSig": {
            "asm": "3045022100a1e7425f695e5129713d521443d57ea4477e689b06a09003d177f7a17381035302205413841bdd1a851ecaff212e61065287031e3025d986ee6db6b79aa73edc8e26[ALL] 021460e087f3bfc47542cc378279c16fcd4943e7a07b25280fbc7203d1123a7098",
            "hex": "483045022100a1e7425f695e5129713d521443d57ea4477e689b06a09003d177f7a17381035302205413841bdd1a851ecaff212e61065287031e3025d986ee6db6b79aa73edc8e260121021460e087f3bfc47542cc378279c16fcd4943e7a07b25280fbc7203d1123a7098"
          },
          "sequence": 4294967295
        }, 
        {
          "txid": "aa26f8c1b46e17970072ecfcd4f37aeb5408e451f6b0b645a4d93cddcd6a3943",
          "vout": 53,
          "scriptSig": {
            "asm": "3045022100e442b2222ac4ca13b2bd81ca27dffb94ea012e2d64254c3da26199850fddecbc02207514be71bbdb00bba2848f34dc21cf708366acbc6252a98267c2af2f017910c3[ALL] 021828ceb254b77ccd676e7f579dbe030b2fe9241bc364ceccbdd7c094ce59e1aa",
            "hex": "483045022100e442b2222ac4ca13b2bd81ca27dffb94ea012e2d64254c3da26199850fddecbc02207514be71bbdb00bba2848f34dc21cf708366acbc6252a98267c2af2f017910c30121021828ceb254b77ccd676e7f579dbe030b2fe9241bc364ceccbdd7c094ce59e1aa"
          },
          "sequence": 4294967295
        }, 
        {
          "txid": "dd6d7d65acfebfa95c2498ba26b3ac3ab664125d7631cf4aefaa0fd2688898f6",
          "vout": 24,
          "scriptSig": {
            "asm": "304402203a02336b39e6e39549d49ac1593fb18157273521c0d2f87d43b52e488f48e15f02205f0c3d279e616ccef6837bc5f681625d4c7bf790c4da2ce6e7654675d8619856[ALL] 02d972017188ddc1bf1c4def19458c2509de5fbecef5c38bd12ef48a95334abe6e",
            "hex": "47304402203a02336b39e6e39549d49ac1593fb18157273521c0d2f87d43b52e488f48e15f02205f0c3d279e616ccef6837bc5f681625d4c7bf790c4da2ce6e7654675d8619856012102d972017188ddc1bf1c4def19458c2509de5fbecef5c38bd12ef48a95334abe6e"
          },
          "sequence": 4294967295
        }, 
        {
          "txid": "9f98c6731f29c1f4e9b6dbdb985b449e77914b85beede3cc1cb8f5b7b09f090a",
          "vout": 48,
          "scriptSig": {
            "asm": "3044022033dae8fcdd27d616bbdba5e2c83558c12df4b1965cae2db23beceef1fdea8a02022004a379b92fe67a8f8ddf75bfe60cb43dbf3fe830d309ceb04adac95e8d129d77[ALL] 03b17e3bed6f3103df4abbc7fe181620be440cd6a7e478c7c0704466fefc55b7e3",
            "hex": "473044022033dae8fcdd27d616bbdba5e2c83558c12df4b1965cae2db23beceef1fdea8a02022004a379b92fe67a8f8ddf75bfe60cb43dbf3fe830d309ceb04adac95e8d129d77012103b17e3bed6f3103df4abbc7fe181620be440cd6a7e478c7c0704466fefc55b7e3"
          },
          "sequence": 4294967295
        }, 
        {
          "txid": "13ec8ac72436ee600aba3b11ca8c964f14298122c792ce4144581b66da672787",
          "vout": 0,
          "scriptSig": {
            "asm": "30450221009cd5bb6ba6925c2efce150ab1116e68630fe2c66c63d589bdbaa0b731258561202203f596b7373e2bc727972c58d0a8e2ffcc8b04c449d8971de26bbfaf6f0f43e81[ALL] 03f014d32b81e1cb4c97d3dfa87089297a8e7433fef5d5ab169c527450bf823a27",
            "hex": "4830450221009cd5bb6ba6925c2efce150ab1116e68630fe2c66c63d589bdbaa0b731258561202203f596b7373e2bc727972c58d0a8e2ffcc8b04c449d8971de26bbfaf6f0f43e81012103f014d32b81e1cb4c97d3dfa87089297a8e7433fef5d5ab169c527450bf823a27"
          },
          "sequence": 4294967295
        }, 
        {
          "txid": "96c341a7fdd6ecef44fee8ddac7a8772bc61b47540b20778cb1add362c8f4266",
          "vout": 0,
          "scriptSig": {
            "asm": "3044022030a53ebb91b742a65b149f6dbd62468518c1753949f02edb67b6b9523b24599902204e3526e80d92597c36a104710201ed7904692885f4595ed27633e98aa1fe5048[ALL] 0216afa3f12d8e027831fd8ea91ef4a5558a426cbae14f29efbb71189728a3cd93",
            "hex": "473044022030a53ebb91b742a65b149f6dbd62468518c1753949f02edb67b6b9523b24599902204e3526e80d92597c36a104710201ed7904692885f4595ed27633e98aa1fe504801210216afa3f12d8e027831fd8ea91ef4a5558a426cbae14f29efbb71189728a3cd93"
          },
          "sequence": 4294967295
        }, 
        {
          "txid": "85f9c3b3a8720b1dd0d6163732be3e19d4c65ab2b6e4a3d8ba76f8d14d7f8422",
          "vout": 0,
          "scriptSig": {
            "asm": "3045022100e648fd3b6ea78a58bfe3fa44185d4ee8cf00b5e05e058b395e363e452d6841ef02204cbed5f88704719747e6d3b49d6f08d8fff72845e95eb8a0392342536a958564[ALL] 03553af7f53eec0556d3f5eee6f2ecc2cbbb8d3c8cc4c8f01bba75b3f8bfa2842a",
            "hex": "483045022100e648fd3b6ea78a58bfe3fa44185d4ee8cf00b5e05e058b395e363e452d6841ef02204cbed5f88704719747e6d3b49d6f08d8fff72845e95eb8a0392342536a958564012103553af7f53eec0556d3f5eee6f2ecc2cbbb8d3c8cc4c8f01bba75b3f8bfa2842a"
          },
          "sequence": 4294967295
        }, 
        {
          "txid": "04c0a48eba1be2fd8c3073ec96fb354a27f34660bc03008d7dc23f4a24c385fe",
          "vout": 1,
          "scriptSig": {
            "asm": "304402206eaa80582c9d6bb759a93181a989765b2938a845739d2fa5e10aff360107b7ad02200e28d3ec357e16520a97cba64dc8580efc2566411a26c5174ada9c8639555d21[ALL] 036e393816984839648934576622c9bbf0bda10e05cdf752aa6681a1cfef913e5f",
            "hex": "47304402206eaa80582c9d6bb759a93181a989765b2938a845739d2fa5e10aff360107b7ad02200e28d3ec357e16520a97cba64dc8580efc2566411a26c5174ada9c8639555d210121036e393816984839648934576622c9bbf0bda10e05cdf752aa6681a1cfef913e5f"
          },
          "sequence": 4294967295
        }, 
        {
          "txid": "c2fc7e8727413071e85dfa07d91e82606bcbe25a59b89f8f6a06cd1eb83cdf47",
          "vout": 0,
          "scriptSig": {
            "asm": "30450221009e2173f9635d2f7ba0bc08cc600b88a2df069934cda27ea1a13c2b74ab37f6350220121cc1dd1d5978c90b5f06d1ecc4bafbfcaba96c43da6f891899c825e45f91bd[ALL] 03ff8b9eace694e375741a057ee32230afcd4c013206bcc64d01f6c3dd271895d8",
            "hex": "4830450221009e2173f9635d2f7ba0bc08cc600b88a2df069934cda27ea1a13c2b74ab37f6350220121cc1dd1d5978c90b5f06d1ecc4bafbfcaba96c43da6f891899c825e45f91bd012103ff8b9eace694e375741a057ee32230afcd4c013206bcc64d01f6c3dd271895d8"
          },
          "sequence": 4294967295
        }, 
        {
          "txid": "b624c52bfc3b92d99f06c27f588368b49b3fd97566dbd8028b33378c4c946beb",
          "vout": 0,
          "scriptSig": {
            "asm": "304402205023b7eb8b7ac5d070357ba3a09b8105bc1701e69ef9e166f0ae7830fa8ab452022029b0c035290ff4855c1f8ea844c1ab06235679b0f93cb62132db9dc9f2ea20d8[ALL] 02cdad08a25a45077c69f311631ff7ed6c7cf8ffa02621485eeb9875ad71a833c4",
            "hex": "47304402205023b7eb8b7ac5d070357ba3a09b8105bc1701e69ef9e166f0ae7830fa8ab452022029b0c035290ff4855c1f8ea844c1ab06235679b0f93cb62132db9dc9f2ea20d8012102cdad08a25a45077c69f311631ff7ed6c7cf8ffa02621485eeb9875ad71a833c4"
          },
          "sequence": 4294967295
        }, 
        {
          "txid": "f390149903ef4cb47fa1ef57a15d7b2a4f789c02680feb9c2cf4538f5d0d1eb3",
          "vout": 0,
          "scriptSig": {
            "asm": "304402203197c648524070a79c9e7204f510ea0946a417d917c250083d14ae25ee020f8902205e174247337c9a0243dafdc7e910b497339d3753e7fb818c684b049832867add[ALL] 033ccdcf5fa66faf6a66e62ca1ce042181863d0819c0bf913c992ab6b53dea4b66",
            "hex": "47304402203197c648524070a79c9e7204f510ea0946a417d917c250083d14ae25ee020f8902205e174247337c9a0243dafdc7e910b497339d3753e7fb818c684b049832867add0121033ccdcf5fa66faf6a66e62ca1ce042181863d0819c0bf913c992ab6b53dea4b66"
          },
          "sequence": 4294967295
        }, 
        {
          "txid": "dd6d7d65acfebfa95c2498ba26b3ac3ab664125d7631cf4aefaa0fd2688898f6",
          "vout": 49,
          "scriptSig": {
            "asm": "30450221008bf9e98c763d90fe7b8e7113f48a71f1dabc2c056c0e34c7db60e04aa4c8b975022073691a37004309370938cd5ab4f6b92b8e31e840d8e04d608d1324b41328a13e[ALL] 02dfef6e60c72a05b5c8536e3f9c6cd8e0db38abd2a10e441e747bf6686515ba21",
            "hex": "4830450221008bf9e98c763d90fe7b8e7113f48a71f1dabc2c056c0e34c7db60e04aa4c8b975022073691a37004309370938cd5ab4f6b92b8e31e840d8e04d608d1324b41328a13e012102dfef6e60c72a05b5c8536e3f9c6cd8e0db38abd2a10e441e747bf6686515ba21"
          },
          "sequence": 4294967295
        }, 
        {
          "txid": "d212e388c3e77fcf8f9a5835a543c7529f4d7b3ca380cfd74cf95e1da6d02927",
          "vout": 0,
          "scriptSig": {
            "asm": "3045022100920258e05e954ab450d4e84bf501ded1cdac17d7ac1d880d312398e133eded1502206524240712d14513daa476e13a047d3c09e66bf07e00f34ab68696416c4ab402[ALL] 03787d79a2cd891d35807afe7417973e6ec9c9626d2f84ae48ed62b18fbee9c360",
            "hex": "483045022100920258e05e954ab450d4e84bf501ded1cdac17d7ac1d880d312398e133eded1502206524240712d14513daa476e13a047d3c09e66bf07e00f34ab68696416c4ab402012103787d79a2cd891d35807afe7417973e6ec9c9626d2f84ae48ed62b18fbee9c360"
          },
          "sequence": 4294967295
        }, 
        {
          "txid": "13fe022d4176840d331c45d3701813e0263e7d3dbeeb4346461aee177513d2ba",
          "vout": 1,
          "scriptSig": {
            "asm": "3045022100b2d275b21748b2def8af702fb5cda137eeafe00269f6b9441f80463fc4d5a2ea02203c3aa6a740d3284aed680b9bfe058f7aeab05fd4a2f0986ba4977a32c668d132[ALL] 02a5bfbd4d95879072a74d01c121bb16544e5a440eea32e7c07de1884300093aa9",
            "hex": "483045022100b2d275b21748b2def8af702fb5cda137eeafe00269f6b9441f80463fc4d5a2ea02203c3aa6a740d3284aed680b9bfe058f7aeab05fd4a2f0986ba4977a32c668d132012102a5bfbd4d95879072a74d01c121bb16544e5a440eea32e7c07de1884300093aa9"
          },
          "sequence": 4294967295
        }, 
        {
          "txid": "c27af24aaa9b155484179494382098b2778fb588e4776df10a34305739e3ffb8",
          "vout": 1,
          "scriptSig": {
            "asm": "30440220406994cf5a6b9d114c2709dc18a68de86bc9c11e19ee3ac242bd36545cc4da2e022011dfc062e1f281a8673125efda8b89c8aef5dff7995905cc71827f07adcbfd1b[ALL] 029b35d20dd073df903ccd4dbf71b6afe8897e551dc702274eebdbf89c4209554a",
            "hex": "4730440220406994cf5a6b9d114c2709dc18a68de86bc9c11e19ee3ac242bd36545cc4da2e022011dfc062e1f281a8673125efda8b89c8aef5dff7995905cc71827f07adcbfd1b0121029b35d20dd073df903ccd4dbf71b6afe8897e551dc702274eebdbf89c4209554a"
          },
          "sequence": 4294967295
        }, 
        {
          "txid": "4b41ab0d2dcd0b559372500d564ec68ac55d534d9a65488e2b901a08aac29645",
          "vout": 0,
          "scriptSig": {
            "asm": "3045022100b466a7ded603143f2a3de00a38319d008848845a4fbdb9739a9c132bf9e1f9e5022015136233353d56c8b1abcde989d7feefa5ec4d75ee93d95d8de5ecaca1da036b[ALL] 028dfad159ee89bdf8e29364dfdd7d4664ed2411e94230daa44f874b6c68febdf4",
            "hex": "483045022100b466a7ded603143f2a3de00a38319d008848845a4fbdb9739a9c132bf9e1f9e5022015136233353d56c8b1abcde989d7feefa5ec4d75ee93d95d8de5ecaca1da036b0121028dfad159ee89bdf8e29364dfdd7d4664ed2411e94230daa44f874b6c68febdf4"
          },
          "sequence": 4294967295
        }, 
        {
          "txid": "26226f7cc0719e2e2bac4cc9c641ecc4b9ae06776a1413c1299c7af1e5f43561",
          "vout": 1,
          "scriptSig": {
            "asm": "3045022100b8199100ebea545fea23a332869d03c01a656123bd98f63eb2f20673721cca5c022019066dd3b1df4426716ba40f3d57e02d976fd5953fdd55779951f39311c65bbe[ALL] 033b7d30a790f7ff1e1e0ca3900f1b0a05e9c2421a39b3c94389a03a6d64a9be1b",
            "hex": "483045022100b8199100ebea545fea23a332869d03c01a656123bd98f63eb2f20673721cca5c022019066dd3b1df4426716ba40f3d57e02d976fd5953fdd55779951f39311c65bbe0121033b7d30a790f7ff1e1e0ca3900f1b0a05e9c2421a39b3c94389a03a6d64a9be1b"
          },
          "sequence": 4294967295
        }, 
        {
          "txid": "d1a2ffad8575c89db39e2df58d9e6575564b82f36ed0df75539962ee5aec2031",
          "vout": 12,
          "scriptSig": {
            "asm": "3045022100d385e4f3e99f525a8b4d5d67763b5426316d138d5e11fe70debaf160e193308202207e6f371177a70682355d803bd70104d33db0749d2e68233b16f3665a52c292ad[ALL] 03692b519fd3e57a7504ba34ccba892b29390d3211a64f60162b3dc656154ef1ae",
            "hex": "483045022100d385e4f3e99f525a8b4d5d67763b5426316d138d5e11fe70debaf160e193308202207e6f371177a70682355d803bd70104d33db0749d2e68233b16f3665a52c292ad012103692b519fd3e57a7504ba34ccba892b29390d3211a64f60162b3dc656154ef1ae"
          },
          "sequence": 4294967295
        }, 
        {
          "txid": "374e7a7c1cfdc8c746c7e18792383bd5f70c0e8b2272db1067ec658b66b3cb20",
          "vout": 0,
          "scriptSig": {
            "asm": "30440220400d41fe1c4a5adffd600e15d4bb0df2a8acb52e60e7046fff6568f37a64577a02204e63661a73b346fe0861e118b9cb3283b409f34d967a5dfbd6e93cbe24f7c2f3[ALL] 025e3f000d6dcc50f4729d689490c177b0eb9048466970b9f750b18bf30e1c9e9d",
            "hex": "4730440220400d41fe1c4a5adffd600e15d4bb0df2a8acb52e60e7046fff6568f37a64577a02204e63661a73b346fe0861e118b9cb3283b409f34d967a5dfbd6e93cbe24f7c2f30121025e3f000d6dcc50f4729d689490c177b0eb9048466970b9f750b18bf30e1c9e9d"
          },
          "sequence": 4294967295
        }
      ],
      "vout": [
        {
          "value": 59.98112392,
          "n": 0,
          "scriptPubKey": {
            "asm": "OP_DUP OP_HASH160 6c2614c7b45ef8dfa8dc83e6739ddbe201d05ab0 OP_EQUALVERIFY OP_CHECKSIG",
            "hex": "76a9146c2614c7b45ef8dfa8dc83e6739ddbe201d05ab088ac",
            "reqSigs": 1,
            "type": "pubkeyhash",
            "addresses": [
              "LV5nrreyVZJVvptA9PZSD4ViegKh7Qa8MA"
            ]
          }
        }
      ],
      "hex": "010000001454567a474f9d26dc66ac2a33c7b488e27e2766ded34dcaccb645db72397894270a0000006b4830450221008535c3dd8f06b9f6c01c4f40fec8fb92d117cafa417a6317a7c7650f42f4d6e1022055b0c33401d71619fcc3907567656db80697d2521e2445672e5ec67866abe075012102fc8b7854a60b53726d678419437ccea22780c70258a6205fbccaf6c20edcd484ffffffff3120ec5aee62995375dfd06ef3824b5675659e8df52d9eb39dc87585adffa2d1000000006b483045022100a1e7425f695e5129713d521443d57ea4477e689b06a09003d177f7a17381035302205413841bdd1a851ecaff212e61065287031e3025d986ee6db6b79aa73edc8e260121021460e087f3bfc47542cc378279c16fcd4943e7a07b25280fbc7203d1123a7098ffffffff43396acddd3cd9a445b6b0f651e40854eb7af3d4fcec720097176eb4c1f826aa350000006b483045022100e442b2222ac4ca13b2bd81ca27dffb94ea012e2d64254c3da26199850fddecbc02207514be71bbdb00bba2848f34dc21cf708366acbc6252a98267c2af2f017910c30121021828ceb254b77ccd676e7f579dbe030b2fe9241bc364ceccbdd7c094ce59e1aafffffffff6988868d20faaef4acf31765d1264b63aacb326ba98245ca9bffeac657d6ddd180000006a47304402203a02336b39e6e39549d49ac1593fb18157273521c0d2f87d43b52e488f48e15f02205f0c3d279e616ccef6837bc5f681625d4c7bf790c4da2ce6e7654675d8619856012102d972017188ddc1bf1c4def19458c2509de5fbecef5c38bd12ef48a95334abe6effffffff0a099fb0b7f5b81ccce3edbe854b91779e445b98dbdbb6e9f4c1291f73c6989f300000006a473044022033dae8fcdd27d616bbdba5e2c83558c12df4b1965cae2db23beceef1fdea8a02022004a379b92fe67a8f8ddf75bfe60cb43dbf3fe830d309ceb04adac95e8d129d77012103b17e3bed6f3103df4abbc7fe181620be440cd6a7e478c7c0704466fefc55b7e3ffffffff872767da661b584441ce92c7228129144f968cca113bba0a60ee3624c78aec13000000006b4830450221009cd5bb6ba6925c2efce150ab1116e68630fe2c66c63d589bdbaa0b731258561202203f596b7373e2bc727972c58d0a8e2ffcc8b04c449d8971de26bbfaf6f0f43e81012103f014d32b81e1cb4c97d3dfa87089297a8e7433fef5d5ab169c527450bf823a27ffffffff66428f2c36dd1acb7807b24075b461bc72877aacdde8fe44efecd6fda741c396000000006a473044022030a53ebb91b742a65b149f6dbd62468518c1753949f02edb67b6b9523b24599902204e3526e80d92597c36a104710201ed7904692885f4595ed27633e98aa1fe504801210216afa3f12d8e027831fd8ea91ef4a5558a426cbae14f29efbb71189728a3cd93ffffffff22847f4dd1f876bad8a3e4b6b25ac6d4193ebe323716d6d01d0b72a8b3c3f985000000006b483045022100e648fd3b6ea78a58bfe3fa44185d4ee8cf00b5e05e058b395e363e452d6841ef02204cbed5f88704719747e6d3b49d6f08d8fff72845e95eb8a0392342536a958564012103553af7f53eec0556d3f5eee6f2ecc2cbbb8d3c8cc4c8f01bba75b3f8bfa2842afffffffffe85c3244a3fc27d8d0003bc6046f3274a35fb96ec73308cfde21bba8ea4c004010000006a47304402206eaa80582c9d6bb759a93181a989765b2938a845739d2fa5e10aff360107b7ad02200e28d3ec357e16520a97cba64dc8580efc2566411a26c5174ada9c8639555d210121036e393816984839648934576622c9bbf0bda10e05cdf752aa6681a1cfef913e5fffffffff47df3cb81ecd066a8f9fb8595ae2cb6b60821ed907fa5de871304127877efcc2000000006b4830450221009e2173f9635d2f7ba0bc08cc600b88a2df069934cda27ea1a13c2b74ab37f6350220121cc1dd1d5978c90b5f06d1ecc4bafbfcaba96c43da6f891899c825e45f91bd012103ff8b9eace694e375741a057ee32230afcd4c013206bcc64d01f6c3dd271895d8ffffffffeb6b944c8c37338b02d8db6675d93f9bb46883587fc2069fd9923bfc2bc524b6000000006a47304402205023b7eb8b7ac5d070357ba3a09b8105bc1701e69ef9e166f0ae7830fa8ab452022029b0c035290ff4855c1f8ea844c1ab06235679b0f93cb62132db9dc9f2ea20d8012102cdad08a25a45077c69f311631ff7ed6c7cf8ffa02621485eeb9875ad71a833c4ffffffffb31e0d5d8f53f42c9ceb0f68029c784f2a7b5da157efa17fb44cef03991490f3000000006a47304402203197c648524070a79c9e7204f510ea0946a417d917c250083d14ae25ee020f8902205e174247337c9a0243dafdc7e910b497339d3753e7fb818c684b049832867add0121033ccdcf5fa66faf6a66e62ca1ce042181863d0819c0bf913c992ab6b53dea4b66fffffffff6988868d20faaef4acf31765d1264b63aacb326ba98245ca9bffeac657d6ddd310000006b4830450221008bf9e98c763d90fe7b8e7113f48a71f1dabc2c056c0e34c7db60e04aa4c8b975022073691a37004309370938cd5ab4f6b92b8e31e840d8e04d608d1324b41328a13e012102dfef6e60c72a05b5c8536e3f9c6cd8e0db38abd2a10e441e747bf6686515ba21ffffffff2729d0a61d5ef94cd7cf80a33c7b4d9f52c743a535589a8fcf7fe7c388e312d2000000006b483045022100920258e05e954ab450d4e84bf501ded1cdac17d7ac1d880d312398e133eded1502206524240712d14513daa476e13a047d3c09e66bf07e00f34ab68696416c4ab402012103787d79a2cd891d35807afe7417973e6ec9c9626d2f84ae48ed62b18fbee9c360ffffffffbad2137517ee1a464643ebbe3d7d3e26e0131870d3451c330d8476412d02fe13010000006b483045022100b2d275b21748b2def8af702fb5cda137eeafe00269f6b9441f80463fc4d5a2ea02203c3aa6a740d3284aed680b9bfe058f7aeab05fd4a2f0986ba4977a32c668d132012102a5bfbd4d95879072a74d01c121bb16544e5a440eea32e7c07de1884300093aa9ffffffffb8ffe3395730340af16d77e488b58f77b29820389494178454159baa4af27ac2010000006a4730440220406994cf5a6b9d114c2709dc18a68de86bc9c11e19ee3ac242bd36545cc4da2e022011dfc062e1f281a8673125efda8b89c8aef5dff7995905cc71827f07adcbfd1b0121029b35d20dd073df903ccd4dbf71b6afe8897e551dc702274eebdbf89c4209554affffffff4596c2aa081a902b8e48659a4d535dc58ac64e560d507293550bcd2d0dab414b000000006b483045022100b466a7ded603143f2a3de00a38319d008848845a4fbdb9739a9c132bf9e1f9e5022015136233353d56c8b1abcde989d7feefa5ec4d75ee93d95d8de5ecaca1da036b0121028dfad159ee89bdf8e29364dfdd7d4664ed2411e94230daa44f874b6c68febdf4ffffffff6135f4e5f17a9c29c113146a7706aeb9c4ec41c6c94cac2b2e9e71c07c6f2226010000006b483045022100b8199100ebea545fea23a332869d03c01a656123bd98f63eb2f20673721cca5c022019066dd3b1df4426716ba40f3d57e02d976fd5953fdd55779951f39311c65bbe0121033b7d30a790f7ff1e1e0ca3900f1b0a05e9c2421a39b3c94389a03a6d64a9be1bffffffff3120ec5aee62995375dfd06ef3824b5675659e8df52d9eb39dc87585adffa2d10c0000006b483045022100d385e4f3e99f525a8b4d5d67763b5426316d138d5e11fe70debaf160e193308202207e6f371177a70682355d803bd70104d33db0749d2e68233b16f3665a52c292ad012103692b519fd3e57a7504ba34ccba892b29390d3211a64f60162b3dc656154ef1aeffffffff20cbb3668b65ec6710db72228b0e0cf7d53b389287e1c746c7c8fd1c7c7a4e37000000006a4730440220400d41fe1c4a5adffd600e15d4bb0df2a8acb52e60e7046fff6568f37a64577a02204e63661a73b346fe0861e118b9cb3283b409f34d967a5dfbd6e93cbe24f7c2f30121025e3f000d6dcc50f4729d689490c177b0eb9048466970b9f750b18bf30e1c9e9dffffffff0188ee8365010000001976a9146c2614c7b45ef8dfa8dc83e6739ddbe201d05ab088ac00000000"
    }
  ],
  "time": 1517063379,
  "mediantime": 1517062589,
  "nonce": 506441930,
  "bits": "1a047f14",
  "difficulty": 3731199.183374282,
  "chainwork": "000000000000000000000000000000000000000000000032a1288afebf52c73a",
  "previousblockhash": "5a0566c04fae7522fc0751f3dc885c4e914c3c448b95153cfc8c96c4824106a0",
  "nextblockhash": "143604e2ecff1220ae0e8322a4f88ceb38a4a6c2a8384ebd169a2195b02eba77"
}
