{
  "hash": "337fecc486c8e3059bd4173d7c024922ee67b9f3c64c97454924539316e774b0",
  "confirmations": 1905,
  "strippedsize": 254,
  "size": 254,
  "weight": 1016,
  "height": 1359089,
  "version": 536870912,
  "versionHex": "20000000",
  "merkleroot": "0cf09d3f71052f01bfcc2c5b3c8d86fc01c254e77f05258851510d8c0630daee",
  "tx": [
    {
      "txid": "0cf09d3f71052f01bfcc2c5b3c8d86fc01c254e77f05258851510d8c0630daee",
      "hash": "0cf09d3f71052f01bfcc2c5b3c8d86fc01c254e77f05258851510d8c0630daee",
      "version": 1,
      "size": 173,
      "vsize": 173,
      "locktime": 0,
      "vin": [
        {
          "coinbase": "03f1bc141b4d696e656420627920416e74506f6f6c20626a302042205a6f2b57fabe6d6dcecb2691a7f03b62eba639056756885ba44feb4d48fc6117ed1ff3105498145f0400000000000000490e00000000000011000000",
          "sequence": 4294967295
        }
      ],
      "vout": [
        {
          "value": 25.00000000,
          "n": 0,
          "scriptPubKey": {
            "asm": "OP_DUP OP_HASH160 0ff3ccc5e8be88afe24b5d634e5852d474dbdff1 OP_EQUALVERIFY OP_CHECKSIG",
            "hex": "76a9140ff3ccc5e8be88afe24b5d634e5852d474dbdff188ac",
            "reqSigs": 1,
            "type": "pubkeyhash",
            "addresses": [
              "LLgJTbzZMsRTCUF1NtvvL9SR1a4pVieW89"
            ]
          }
        }
      ],
      "hex": "01000000010000000000000000000000000000000000000000000000000000000000000000ffffffff5803f1bc141b4d696e656420627920416e74506f6f6c20626a302042205a6f2b57fabe6d6dcecb2691a7f03b62eba639056756885ba44feb4d48fc6117ed1ff3105498145f0400000000000000490e00000000000011000000ffffffff0100f90295000000001976a9140ff3ccc5e8be88afe24b5d634e5852d474dbdff188ac00000000"
    }
  ],
  "time": 1517235031,
  "mediantime": 1517234623,
  "nonce": 1190688946,
  "bits": "1a042eae",
  "difficulty": 4011378.762614286,
  "chainwork": "000000000000000000000000000000000000000000000033add01905d91e41e4",
  "previousblockhash": "51dfd7d072182f6954c156287e742df9178ad06c56645af4fe2816ba4d2bb6ab",
  "nextblockhash": "cf9e65cf3b76f1c50d593d21d1d11126a92f3ccecbaabdd47aea4f68bdc12520"
}
