{
  "hash": "33e2869dd62e14615e697eb720707df311ca6166f98e5c3f6b8061d62762288a",
  "confirmations": 3621,
  "strippedsize": 253,
  "size": 253,
  "weight": 1012,
  "height": 1357374,
  "version": 536870912,
  "versionHex": "20000000",
  "merkleroot": "486e62c653d9490327a946e250ba0ab3e538051c2cb0b343e93666684f5f2822",
  "tx": [
    {
      "txid": "486e62c653d9490327a946e250ba0ab3e538051c2cb0b343e93666684f5f2822",
      "hash": "486e62c653d9490327a946e250ba0ab3e538051c2cb0b343e93666684f5f2822",
      "version": 1,
      "size": 172,
      "vsize": 172,
      "locktime": 0,
      "vin": [
        {
          "coinbase": "033eb6141a4d696e656420627920416e74506f6f6c20626a341e205a6b849cfabe6d6d3fbc393855e7e6e69a405e8fcddc5f4a6eb1b8566d75c4b15affe8bcdf8c8f08040000000000000010120000000000000d000000",
          "sequence": 4294967295
        }
      ],
      "vout": [
        {
          "value": 25.00000000,
          "n": 0,
          "scriptPubKey": {
            "asm": "OP_DUP OP_HASH160 0ff3ccc5e8be88afe24b5d634e5852d474dbdff1 OP_EQUALVERIFY OP_CHECKSIG",
            "hex": "76a9140ff3ccc5e8be88afe24b5d634e5852d474dbdff188ac",
            "reqSigs": 1,
            "type": "pubkeyhash",
            "addresses": [
              "LLgJTbzZMsRTCUF1NtvvL9SR1a4pVieW89"
            ]
          }
        }
      ],
      "hex": "01000000010000000000000000000000000000000000000000000000000000000000000000ffffffff57033eb6141a4d696e656420627920416e74506f6f6c20626a341e205a6b849cfabe6d6d3fbc393855e7e6e69a405e8fcddc5f4a6eb1b8566d75c4b15affe8bcdf8c8f08040000000000000010120000000000000d000000ffffffff0100f90295000000001976a9140ff3ccc5e8be88afe24b5d634e5852d474dbdff188ac00000000"
    }
  ],
  "time": 1516995740,
  "mediantime": 1516995275,
  "nonce": 1129658553,
  "bits": "1a047f14",
  "difficulty": 3731199.183374282,
  "chainwork": "0000000000000000000000000000000000000000000000322b4948d04ceb5966",
  "previousblockhash": "107e29d6c74133c82a6004a1478e74f57e869ae436a4c937b0a018727952b863",
  "nextblockhash": "37da85a93710e32eb535e61c1800a2881dfe7ec9a1961a15ac58618d67ed4b61"
}
