{
  "hash": "33f4b5e7dfec8a7f0034fc9ae4ef4b1337ce8a916ab3e926f90a373540f93b04",
  "confirmations": 1978,
  "strippedsize": 4424,
  "size": 4682,
  "weight": 17954,
  "height": 1359016,
  "version": 536870912,
  "versionHex": "20000000",
  "merkleroot": "9780f2ca02c01c36dd7e3dd5e7b2ffb0ccde1ca4a01388f4299b6c1b320a4dcc",
  "tx": [
    {
      "txid": "0d0d63e20bf48856fdf4580eebd7af158c68fde7bd41b867c100fb91516189ec",
      "hash": "99dfd1cb67631a98f526668a58f3de0c1e4111c6d4b2754714e818f38ece0822",
      "version": 1,
      "size": 244,
      "vsize": 217,
      "locktime": 0,
      "vin": [
        {
          "coinbase": "03a8bc14048d026f5a08017d3cf201000000fabe6d6d9045193d92adda99c350a5e4b234603d87d2b59790362079a18929d1dd6d617840000000000000000d2f6e6f64655374726174756d2f",
          "sequence": 0
        }
      ],
      "vout": [
        {
          "value": 25.01709459,
          "n": 0,
          "scriptPubKey": {
            "asm": "OP_DUP OP_HASH160 0c617fdb2ea42aed30a509595ee21ba3f6688db0 OP_EQUALVERIFY OP_CHECKSIG",
            "hex": "76a9140c617fdb2ea42aed30a509595ee21ba3f6688db088ac",
            "reqSigs": 1,
            "type": "pubkeyhash",
            "addresses": [
              "LLMRAtr3qBje2ySEa3CnZ55LA4TQMWnRY3"
            ]
          }
        }, 
        {
          "value": 0.00000000,
          "n": 1,
          "scriptPubKey": {
            "asm": "OP_RETURN aa21a9ed1d03a634ab7e16cbafd18e26a61b94a0905ac3d643fe5ff9aa4eca9a33959cc9",
            "hex": "6a24aa21a9ed1d03a634ab7e16cbafd18e26a61b94a0905ac3d643fe5ff9aa4eca9a33959cc9",
            "type": "nulldata"
          }
        }
      ],
      "hex": "010000000001010000000000000000000000000000000000000000000000000000000000000000ffffffff4c03a8bc14048d026f5a08017d3cf201000000fabe6d6d9045193d92adda99c350a5e4b234603d87d2b59790362079a18929d1dd6d617840000000000000000d2f6e6f64655374726174756d2f0000000002930e1d95000000001976a9140c617fdb2ea42aed30a509595ee21ba3f6688db088ac0000000000000000266a24aa21a9ed1d03a634ab7e16cbafd18e26a61b94a0905ac3d643fe5ff9aa4eca9a33959cc90120000000000000000000000000000000000000000000000000000000000000000000000000"
    }, 
    {
      "txid": "092d89933db892f36be3aecae12343626380bcfc0b2b7bc1be91a39ac5bc3626",
      "hash": "092d89933db892f36be3aecae12343626380bcfc0b2b7bc1be91a39ac5bc3626",
      "version": 1,
      "size": 405,
      "vsize": 405,
      "locktime": 0,
      "vin": [
        {
          "txid": "755e28f6bff95d194e0d8ef17385f7eab165c6ea98e011efd89c41c724aee79b",
          "vout": 7,
          "scriptSig": {
            "asm": "0 30450221008b9e0091f61c1b2998fb02cee536ba1b86fb95c46e60e7c20f08fb141d73acaa02200d21d8e52e385cbac1e7504aa6e52171545762b22aa512f1682a9919527d8ee4[ALL] 3045022100bdc217a5f023cc7012bd2388dccb351c406110063782bb5e2bd95109142c5e36022031582097e6b888c7be8cb1687aa1ab8f3ecbc9edcbbad6faf6e141d9a8d2642d[ALL] 522103fd14e711a373f3161e77bf8cbbb470cd1c45dc92a23a8a80c9b8d19ac6e7e0d721027019b0fd2adfd3a3a634b72c42427dcd96b7c9a3bd4e282bd8512280a8bce8fb21030d6c7e4164e2cee9f521671c9280617689f58dac03798019182146462c3cc02953ae",
            "hex": "004830450221008b9e0091f61c1b2998fb02cee536ba1b86fb95c46e60e7c20f08fb141d73acaa02200d21d8e52e385cbac1e7504aa6e52171545762b22aa512f1682a9919527d8ee401483045022100bdc217a5f023cc7012bd2388dccb351c406110063782bb5e2bd95109142c5e36022031582097e6b888c7be8cb1687aa1ab8f3ecbc9edcbbad6faf6e141d9a8d2642d014c69522103fd14e711a373f3161e77bf8cbbb470cd1c45dc92a23a8a80c9b8d19ac6e7e0d721027019b0fd2adfd3a3a634b72c42427dcd96b7c9a3bd4e282bd8512280a8bce8fb21030d6c7e4164e2cee9f521671c9280617689f58dac03798019182146462c3cc02953ae"
          },
          "sequence": 4294967295
        }
      ],
      "vout": [
        {
          "value": 5.74594100,
          "n": 0,
          "scriptPubKey": {
            "asm": "OP_HASH160 591df4888721bd51ca0ae359575b5d5e74d34297 OP_EQUAL",
            "hex": "a914591df4888721bd51ca0ae359575b5d5e74d3429787",
            "reqSigs": 1,
            "type": "scripthash",
            "addresses": [
              "MG2NFpwobPsgCHwmq6LfvLvqVhapWaCUag"
            ]
          }
        }, 
        {
          "value": 4.86196000,
          "n": 1,
          "scriptPubKey": {
            "asm": "OP_HASH160 a5bcf2302173960c284ba606c93a62da76949f2e OP_EQUAL",
            "hex": "a914a5bcf2302173960c284ba606c93a62da76949f2e87",
            "reqSigs": 1,
            "type": "scripthash",
            "addresses": [
              "MP1W5HQcteBzewVyTwcY6Lf9UMQrYQjupd"
            ]
          }
        }, 
        {
          "value": 0.53563900,
          "n": 2,
          "scriptPubKey": {
            "asm": "OP_DUP OP_HASH160 90fafcdb0317f9f9e1be1213e13b6dd1fc8e43f7 OP_EQUALVERIFY OP_CHECKSIG",
            "hex": "76a91490fafcdb0317f9f9e1be1213e13b6dd1fc8e43f788ac",
            "reqSigs": 1,
            "type": "pubkeyhash",
            "addresses": [
              "LYSYEmYnYFr4Gt5yJS1euLuDNjfBMPYaaJ"
            ]
          }
        }
      ],
      "hex": "01000000019be7ae24c7419cd8ef11e098eac665b1eaf78573f18e0d4e195df9bff6285e7507000000fdfe00004830450221008b9e0091f61c1b2998fb02cee536ba1b86fb95c46e60e7c20f08fb141d73acaa02200d21d8e52e385cbac1e7504aa6e52171545762b22aa512f1682a9919527d8ee401483045022100bdc217a5f023cc7012bd2388dccb351c406110063782bb5e2bd95109142c5e36022031582097e6b888c7be8cb1687aa1ab8f3ecbc9edcbbad6faf6e141d9a8d2642d014c69522103fd14e711a373f3161e77bf8cbbb470cd1c45dc92a23a8a80c9b8d19ac6e7e0d721027019b0fd2adfd3a3a634b72c42427dcd96b7c9a3bd4e282bd8512280a8bce8fb21030d6c7e4164e2cee9f521671c9280617689f58dac03798019182146462c3cc02953aeffffffff03349c3f220000000017a914591df4888721bd51ca0ae359575b5d5e74d342978720c3fa1c0000000017a914a5bcf2302173960c284ba606c93a62da76949f2e87fc513103000000001976a91490fafcdb0317f9f9e1be1213e13b6dd1fc8e43f788ac00000000"
    }, 
    {
      "txid": "4f0ee3e474f39218f8a07e88571f053add79d27d2f4a674ccfe9d0910c34a5fe",
      "hash": "4f0ee3e474f39218f8a07e88571f053add79d27d2f4a674ccfe9d0910c34a5fe",
      "version": 2,
      "size": 226,
      "vsize": 226,
      "locktime": 1359014,
      "vin": [
        {
          "txid": "c6ec4aa8c1add3f33c01be93e04d23dfc67c1fe3cc2b6bbe834ef643ef0cffbc",
          "vout": 0,
          "scriptSig": {
            "asm": "3045022100c3fda64142e9bea241e5e814fcf0a3638ee4c32dbd62f6f2e7f51fc83f7779bf022077fcdbb2c95ebf6b617595c7ea62585426feb6e9a356b98800a7106a3a6b3acf[ALL] 021b1fd5fb06feec8ff44497453f7833fda547a9d6b9e36d9e611e93d26fb3ae5e",
            "hex": "483045022100c3fda64142e9bea241e5e814fcf0a3638ee4c32dbd62f6f2e7f51fc83f7779bf022077fcdbb2c95ebf6b617595c7ea62585426feb6e9a356b98800a7106a3a6b3acf0121021b1fd5fb06feec8ff44497453f7833fda547a9d6b9e36d9e611e93d26fb3ae5e"
          },
          "sequence": 4294967294
        }
      ],
      "vout": [
        {
          "value": 218.75443187,
          "n": 0,
          "scriptPubKey": {
            "asm": "OP_DUP OP_HASH160 cf37450e9edbb842b46bf376f7546a0f4397e4b0 OP_EQUALVERIFY OP_CHECKSIG",
            "hex": "76a914cf37450e9edbb842b46bf376f7546a0f4397e4b088ac",
            "reqSigs": 1,
            "type": "pubkeyhash",
            "addresses": [
              "Le7cM8bWcCQx6P1X4dTTeJtn7yRpsaQk4q"
            ]
          }
        }, 
        {
          "value": 0.33131101,
          "n": 1,
          "scriptPubKey": {
            "asm": "OP_DUP OP_HASH160 b1548266a366c648a821780ba03f75e44ee15586 OP_EQUALVERIFY OP_CHECKSIG",
            "hex": "76a914b1548266a366c648a821780ba03f75e44ee1558688ac",
            "reqSigs": 1,
            "type": "pubkeyhash",
            "addresses": [
              "LbPb6ytEkCoscUR1QSpHLsV6ovwhrzunJG"
            ]
          }
        }
      ],
      "hex": "0200000001bcff0cef43f64e83be6b2bcce31f7cc6df234de093be013cf3d3adc1a84aecc6000000006b483045022100c3fda64142e9bea241e5e814fcf0a3638ee4c32dbd62f6f2e7f51fc83f7779bf022077fcdbb2c95ebf6b617595c7ea62585426feb6e9a356b98800a7106a3a6b3acf0121021b1fd5fb06feec8ff44497453f7833fda547a9d6b9e36d9e611e93d26fb3ae5efeffffff02f3c5e017050000001976a914cf37450e9edbb842b46bf376f7546a0f4397e4b088ac5d8af901000000001976a914b1548266a366c648a821780ba03f75e44ee1558688aca6bc1400"
    }, 
    {
      "txid": "8e23c79648e142abf707bb434a9fcb80982f55682b7ba7cc0456e4f4bbff92cc",
      "hash": "8e23c79648e142abf707bb434a9fcb80982f55682b7ba7cc0456e4f4bbff92cc",
      "version": 1,
      "size": 293,
      "vsize": 293,
      "locktime": 0,
      "vin": [
        {
          "txid": "de3a1651054aab4e4cf8de6e093617db0a534812d26bbce4014adc6854a51759",
          "vout": 0,
          "scriptSig": {
            "asm": "304402201219f1039675b3475e8f60d75e4327894567e5bbd2c48779fef11702ca8b5e9a02205ed8021ce3bd7c3084db8dd405f8b3926fa486de03c4abaccc68d91eb28b6104[ALL] 039762aeac7f2dfa57183ab23600f5107f0cc2007a223bbea994de8e876041974f",
            "hex": "47304402201219f1039675b3475e8f60d75e4327894567e5bbd2c48779fef11702ca8b5e9a02205ed8021ce3bd7c3084db8dd405f8b3926fa486de03c4abaccc68d91eb28b61040121039762aeac7f2dfa57183ab23600f5107f0cc2007a223bbea994de8e876041974f"
          },
          "sequence": 4294967295
        }
      ],
      "vout": [
        {
          "value": 2.84338287,
          "n": 0,
          "scriptPubKey": {
            "asm": "OP_DUP OP_HASH160 bf6aa5517bbe1c227d8adf28fa733fadbfa1e56c OP_EQUALVERIFY OP_CHECKSIG",
            "hex": "76a914bf6aa5517bbe1c227d8adf28fa733fadbfa1e56c88ac",
            "reqSigs": 1,
            "type": "pubkeyhash",
            "addresses": [
              "Lcg55jM9uSTCaaNWjTk8M27KNnvn3zXfVM"
            ]
          }
        }, 
        {
          "value": 10.07606666,
          "n": 1,
          "scriptPubKey": {
            "asm": "OP_DUP OP_HASH160 8054d8d8dd6bce91125bcfe8bbb473f54afcdc60 OP_EQUALVERIFY OP_CHECKSIG",
            "hex": "76a9148054d8d8dd6bce91125bcfe8bbb473f54afcdc6088ac",
            "reqSigs": 1,
            "type": "pubkeyhash",
            "addresses": [
              "LWvWQ3XMoipFsAqE1EZPQFUovLea7DC1ef"
            ]
          }
        }, 
        {
          "value": 0.06210216,
          "n": 2,
          "scriptPubKey": {
            "asm": "OP_DUP OP_HASH160 2e9d102d876c662b95d93536e553e779f676becb OP_EQUALVERIFY OP_CHECKSIG",
            "hex": "76a9142e9d102d876c662b95d93536e553e779f676becb88ac",
            "reqSigs": 1,
            "type": "pubkeyhash",
            "addresses": [
              "LPURVykcUiMG16fNGr6LSUjUqBVhKoaP6i"
            ]
          }
        }, 
        {
          "value": 0.00100000,
          "n": 3,
          "scriptPubKey": {
            "asm": "OP_DUP OP_HASH160 a0464467a0c3876a42cb041899af52b86defa0bb OP_EQUALVERIFY OP_CHECKSIG",
            "hex": "76a914a0464467a0c3876a42cb041899af52b86defa0bb88ac",
            "reqSigs": 1,
            "type": "pubkeyhash",
            "addresses": [
              "LZqQZA4Ggyf8q16itDd74pBwUnzDXZoG2M"
            ]
          }
        }
      ],
      "hex": "01000000015917a55468dc4a01e4bc6bd21248530adb1736096edef84c4eab4a0551163ade000000006a47304402201219f1039675b3475e8f60d75e4327894567e5bbd2c48779fef11702ca8b5e9a02205ed8021ce3bd7c3084db8dd405f8b3926fa486de03c4abaccc68d91eb28b61040121039762aeac7f2dfa57183ab23600f5107f0cc2007a223bbea994de8e876041974fffffffff046fa8f210000000001976a914bf6aa5517bbe1c227d8adf28fa733fadbfa1e56c88ac8adb0e3c000000001976a9148054d8d8dd6bce91125bcfe8bbb473f54afcdc6088aca8c25e00000000001976a9142e9d102d876c662b95d93536e553e779f676becb88aca0860100000000001976a914a0464467a0c3876a42cb041899af52b86defa0bb88ac00000000"
    }, 
    {
      "txid": "c4bc36154466ab7c7817e2c4f11893b3d0df2ab59a3bc5d5d73205f92c0dd85a",
      "hash": "198e0dcf60d2ee086ee2cab43961a6a1fea29e25ce73b5b7f658023bc6935256",
      "version": 1,
      "size": 374,
      "vsize": 208,
      "locktime": 0,
      "vin": [
        {
          "txid": "b06eb2ef62a88e25eb2fcd78f0f8979b3b029f14388cb8667b4eefdbeca7e89f",
          "vout": 1,
          "scriptSig": {
            "asm": "0020409fd93c7351b461fa46963fa28755038f397ee054ab9e56eda0b1081d768cc4",
            "hex": "220020409fd93c7351b461fa46963fa28755038f397ee054ab9e56eda0b1081d768cc4"
          },
          "txinwitness": [
            "", 
            "3045022100cb6f04c181360216124af050a9195403847828526336bb3fe91db38c73989f5202202129e04b8034afbd04c43541f77aff9e31fba40e30f98b60cabf89c4f379993a01", 
            "3045022100ab2dfe990f2b0178ad31f97c9c031ea278c9007dda8c869d6652e0c7c9e674b2022010e660e07d1ef19a4e0637b70a6e37a8b03556f4d0bedf4b175a0cf837be0ed701", 
            "522103ceb293b39e087131961da42b3deaef48432d57a08bfd111247901be2936525b32103fa185b0d6c2a6d812d1a9418c54b3cea527d229a73a0c6c72345a1851ebcdad352ae"
          ],
          "sequence": 4294967295
        }
      ],
      "vout": [
        {
          "value": 0.01041700,
          "n": 0,
          "scriptPubKey": {
            "asm": "OP_DUP OP_HASH160 be9f827551f12bac573cb4a3e2cef323165cf08a OP_EQUALVERIFY OP_CHECKSIG",
            "hex": "76a914be9f827551f12bac573cb4a3e2cef323165cf08a88ac",
            "reqSigs": 1,
            "type": "pubkeyhash",
            "addresses": [
              "Lcbsjaj3yA3AH66RXsEHxNR19Q4947xBzU"
            ]
          }
        }, 
        {
          "value": 0.94618800,
          "n": 1,
          "scriptPubKey": {
            "asm": "OP_HASH160 2d9ba1f1c217fd18a576b17eaf8a1c6f1cd2f1de OP_EQUAL",
            "hex": "a9142d9ba1f1c217fd18a576b17eaf8a1c6f1cd2f1de87",
            "reqSigs": 1,
            "type": "scripthash",
            "addresses": [
              "MC4K5c2x6rcVohDBLrLNQRsqL5atuzztot"
            ]
          }
        }
      ],
      "hex": "010000000001019fe8a7ecdbef4e7b66b88c38149f023b9b97f8f078cd2feb258ea862efb26eb00100000023220020409fd93c7351b461fa46963fa28755038f397ee054ab9e56eda0b1081d768cc4ffffffff0224e50f00000000001976a914be9f827551f12bac573cb4a3e2cef323165cf08a88acb0c4a3050000000017a9142d9ba1f1c217fd18a576b17eaf8a1c6f1cd2f1de870400483045022100cb6f04c181360216124af050a9195403847828526336bb3fe91db38c73989f5202202129e04b8034afbd04c43541f77aff9e31fba40e30f98b60cabf89c4f379993a01483045022100ab2dfe990f2b0178ad31f97c9c031ea278c9007dda8c869d6652e0c7c9e674b2022010e660e07d1ef19a4e0637b70a6e37a8b03556f4d0bedf4b175a0cf837be0ed70147522103ceb293b39e087131961da42b3deaef48432d57a08bfd111247901be2936525b32103fa185b0d6c2a6d812d1a9418c54b3cea527d229a73a0c6c72345a1851ebcdad352ae00000000"
    }, 
    {
      "txid": "e4750d68e69e6b91fecd4d0c9f19c8b3677ae8bdca8359019a53f20a210f7c30",
      "hash": "e4750d68e69e6b91fecd4d0c9f19c8b3677ae8bdca8359019a53f20a210f7c30",
      "version": 2,
      "size": 668,
      "vsize": 668,
      "locktime": 1359014,
      "vin": [
        {
          "txid": "ac88581d40f7624b7ff504bbad81cf168e9beb003c448c7ffcc280aa1561cfd4",
          "vout": 12,
          "scriptSig": {
            "asm": "3044022025a63f8ddb1eb3280ac62c3205cdfa03742c343ac29fe5da7324a3980b31ace502207eb64a3785688258a096961e36dda26e2167fc37a72a9752aecaf45f3ce16dd5[ALL] 02af611f54786e75df69a647d9321d22a0a117b08779b49641da65d2cddd2c7062",
            "hex": "473044022025a63f8ddb1eb3280ac62c3205cdfa03742c343ac29fe5da7324a3980b31ace502207eb64a3785688258a096961e36dda26e2167fc37a72a9752aecaf45f3ce16dd5012102af611f54786e75df69a647d9321d22a0a117b08779b49641da65d2cddd2c7062"
          },
          "sequence": 4294967294
        }, 
        {
          "txid": "28ab7a169841d7c525b5c64593e5562ba4b7d351e016e23ac0b16e134e7ee7ec",
          "vout": 1,
          "scriptSig": {
            "asm": "3045022100c0a31ad612c6404bd739d30220360113b228883969cf5cd0f8aae892bdb0f029022028078a351861721d1a12f98cd3b64004a982344f26cc815d447aab1fdb7e6c36[ALL] 024ef425c7665cec17fa2d63e3826bde4ce835d2eeef17c598f8f20f530e3ddf08",
            "hex": "483045022100c0a31ad612c6404bd739d30220360113b228883969cf5cd0f8aae892bdb0f029022028078a351861721d1a12f98cd3b64004a982344f26cc815d447aab1fdb7e6c360121024ef425c7665cec17fa2d63e3826bde4ce835d2eeef17c598f8f20f530e3ddf08"
          },
          "sequence": 4294967294
        }, 
        {
          "txid": "cc7b22e6a7427a786e003eaa16fdc98404fe60df3e278b57feef76da2f576f49",
          "vout": 8,
          "scriptSig": {
            "asm": "3044022011894fe09307f3445cab140b1f7487ff24ece9fc670e7a1a0d517b279d80e629022073ddbecb1af5e4d2d0b3d4ebd72e468e141bfc16b5e705f541d7dce2fa85ceda[ALL] 0323a4ddd90f7474720270d767926b410a344c33a0a3d1e4b7bb35246a5e5b39ab",
            "hex": "473044022011894fe09307f3445cab140b1f7487ff24ece9fc670e7a1a0d517b279d80e629022073ddbecb1af5e4d2d0b3d4ebd72e468e141bfc16b5e705f541d7dce2fa85ceda01210323a4ddd90f7474720270d767926b410a344c33a0a3d1e4b7bb35246a5e5b39ab"
          },
          "sequence": 4294967294
        }, 
        {
          "txid": "419cb85f42a5ee7ab64dd4a58fba8cbd9bda18b404d609169be0035ffbbe3966",
          "vout": 0,
          "scriptSig": {
            "asm": "3045022100f8d8785697663110ae005ed181f7c95be99f8a8376af029783b1d5c435feedfe02206827fcf0efd94169d006205050a8737805f837af5bd915ffc25f7cc977235d5e[ALL] 034108df756ce0604057423ca880e4fa1f2551383182a17dd57f87e013327f175c",
            "hex": "483045022100f8d8785697663110ae005ed181f7c95be99f8a8376af029783b1d5c435feedfe02206827fcf0efd94169d006205050a8737805f837af5bd915ffc25f7cc977235d5e0121034108df756ce0604057423ca880e4fa1f2551383182a17dd57f87e013327f175c"
          },
          "sequence": 4294967294
        }
      ],
      "vout": [
        {
          "value": 0.00876825,
          "n": 0,
          "scriptPubKey": {
            "asm": "OP_DUP OP_HASH160 27feeb766bbcd4d2347cdc7e7e525429786d9d09 OP_EQUALVERIFY OP_CHECKSIG",
            "hex": "76a91427feeb766bbcd4d2347cdc7e7e525429786d9d0988ac",
            "reqSigs": 1,
            "type": "pubkeyhash",
            "addresses": [
              "LNsRzq9W9ShpB2A2tyYEXwpJg9Wp614Nv7"
            ]
          }
        }, 
        {
          "value": 22.11195909,
          "n": 1,
          "scriptPubKey": {
            "asm": "OP_DUP OP_HASH160 d2cd499abcf35c614892d4b496d03105f982aa3b OP_EQUALVERIFY OP_CHECKSIG",
            "hex": "76a914d2cd499abcf35c614892d4b496d03105f982aa3b88ac",
            "reqSigs": 1,
            "type": "pubkeyhash",
            "addresses": [
              "LeSa689wwYz11H9YQPVnDr8g8CwkgR9HmH"
            ]
          }
        }
      ],
      "hex": "0200000004d4cf6115aa80c2fc7f8c443c00eb9b8e16cf81adbb04f57f4b62f7401d5888ac0c0000006a473044022025a63f8ddb1eb3280ac62c3205cdfa03742c343ac29fe5da7324a3980b31ace502207eb64a3785688258a096961e36dda26e2167fc37a72a9752aecaf45f3ce16dd5012102af611f54786e75df69a647d9321d22a0a117b08779b49641da65d2cddd2c7062feffffffece77e4e136eb1c03ae216e051d3b7a42b56e59345c6b525c5d74198167aab28010000006b483045022100c0a31ad612c6404bd739d30220360113b228883969cf5cd0f8aae892bdb0f029022028078a351861721d1a12f98cd3b64004a982344f26cc815d447aab1fdb7e6c360121024ef425c7665cec17fa2d63e3826bde4ce835d2eeef17c598f8f20f530e3ddf08feffffff496f572fda76effe578b273edf60fe0484c9fd16aa3e006e787a42a7e6227bcc080000006a473044022011894fe09307f3445cab140b1f7487ff24ece9fc670e7a1a0d517b279d80e629022073ddbecb1af5e4d2d0b3d4ebd72e468e141bfc16b5e705f541d7dce2fa85ceda01210323a4ddd90f7474720270d767926b410a344c33a0a3d1e4b7bb35246a5e5b39abfeffffff6639befb5f03e09b1609d604b418da9bbd8cba8fa5d44db67aeea5425fb89c41000000006b483045022100f8d8785697663110ae005ed181f7c95be99f8a8376af029783b1d5c435feedfe02206827fcf0efd94169d006205050a8737805f837af5bd915ffc25f7cc977235d5e0121034108df756ce0604057423ca880e4fa1f2551383182a17dd57f87e013327f175cfeffffff0219610d00000000001976a91427feeb766bbcd4d2347cdc7e7e525429786d9d0988ac052ccc83000000001976a914d2cd499abcf35c614892d4b496d03105f982aa3b88aca6bc1400"
    }, 
    {
      "txid": "efa13488f2761f2b6805d4bbd2ca2763d714288b8f8621c4ce663b9bdf99289f",
      "hash": "efa13488f2761f2b6805d4bbd2ca2763d714288b8f8621c4ce663b9bdf99289f",
      "version": 2,
      "size": 667,
      "vsize": 667,
      "locktime": 1359014,
      "vin": [
        {
          "txid": "647884b0bb6b57bd91282065c8e054194e2d1d3f1e644da08becfe01f747db0e",
          "vout": 1,
          "scriptSig": {
            "asm": "3045022100930cb1c23827faf268ddfc42bb91b9f3b916b78a14fd41a12d16d36c226a6be70220020cddb3e89f1443660efa9fc28f620dee36b6e5e73436f92b7161d143637f41[ALL] 0327f89556c7004397fd1676eaa97fc4da60700c8239f176636f0bc08d6af16be1",
            "hex": "483045022100930cb1c23827faf268ddfc42bb91b9f3b916b78a14fd41a12d16d36c226a6be70220020cddb3e89f1443660efa9fc28f620dee36b6e5e73436f92b7161d143637f4101210327f89556c7004397fd1676eaa97fc4da60700c8239f176636f0bc08d6af16be1"
          },
          "sequence": 4294967294
        }, 
        {
          "txid": "2847048e4e421286349867d1bc1689a2c69ced822ac05200da6d92a4b04dfa14",
          "vout": 1,
          "scriptSig": {
            "asm": "304402200d8d69080d336a9d11e53153bb4304a9a465e557e2aea0eeff8b3df685f698ec02207b92e57fc5a1cac1f0cbfcada4fbdd9eb9b00d861e6467d8153207b66810eb50[ALL] 027e43a24f51556ac4dfff5c24f5c5e390f7f914a44707d2a43d39fb4a3ef5213d",
            "hex": "47304402200d8d69080d336a9d11e53153bb4304a9a465e557e2aea0eeff8b3df685f698ec02207b92e57fc5a1cac1f0cbfcada4fbdd9eb9b00d861e6467d8153207b66810eb500121027e43a24f51556ac4dfff5c24f5c5e390f7f914a44707d2a43d39fb4a3ef5213d"
          },
          "sequence": 4294967294
        }, 
        {
          "txid": "37cf82288c78f6a7dffaaed31b982854bb29d6ea2e6fa65fb1b2aaa0ed8f292e",
          "vout": 2,
          "scriptSig": {
            "asm": "3044022047b659638aa8ed1378969d7d32569a6a4606268bf9f9198cbbe3f2987d5bf2e00220354d3ec5cef2e8f8e081116563f3aac56def05f14fe60ce48dc70e97fd4ee8c6[ALL] 036bf23c3c0ba97bea3100112207ea9de7d5c303080f8b68f10cc7fc86ec769733",
            "hex": "473044022047b659638aa8ed1378969d7d32569a6a4606268bf9f9198cbbe3f2987d5bf2e00220354d3ec5cef2e8f8e081116563f3aac56def05f14fe60ce48dc70e97fd4ee8c60121036bf23c3c0ba97bea3100112207ea9de7d5c303080f8b68f10cc7fc86ec769733"
          },
          "sequence": 4294967294
        }, 
        {
          "txid": "0a452afe36fe29da81a54cdd7ebec6895e809b541b733ee93d4c9b3b325532de",
          "vout": 0,
          "scriptSig": {
            "asm": "304402205ea4bcf5524bf9ef925c486066e3d2d23529253eb2bfa29d6194b1f9f31fd39d02206b5cf3cdb4d74a8acbfa966d7efc8cc291b39e7fd4f7bd0bee9d9bb046d4b4f0[ALL] 038bb6b710c26ade84c51fc7df4edcfeabaac3e243b4ef766d632baa28dc65bd15",
            "hex": "47304402205ea4bcf5524bf9ef925c486066e3d2d23529253eb2bfa29d6194b1f9f31fd39d02206b5cf3cdb4d74a8acbfa966d7efc8cc291b39e7fd4f7bd0bee9d9bb046d4b4f00121038bb6b710c26ade84c51fc7df4edcfeabaac3e243b4ef766d632baa28dc65bd15"
          },
          "sequence": 4294967294
        }
      ],
      "vout": [
        {
          "value": 8.97000000,
          "n": 0,
          "scriptPubKey": {
            "asm": "OP_DUP OP_HASH160 40f45fbd6d263893f125d4282acb8eb0ffb56cb8 OP_EQUALVERIFY OP_CHECKSIG",
            "hex": "76a91440f45fbd6d263893f125d4282acb8eb0ffb56cb888ac",
            "reqSigs": 1,
            "type": "pubkeyhash",
            "addresses": [
              "LR9QFthn7dGGg8GuWkuVPE5izSJMtdHyzc"
            ]
          }
        }, 
        {
          "value": 0.00935836,
          "n": 1,
          "scriptPubKey": {
            "asm": "OP_DUP OP_HASH160 25202ab9d77c6e88b679d88d9d56a4085ca5ea90 OP_EQUALVERIFY OP_CHECKSIG",
            "hex": "76a91425202ab9d77c6e88b679d88d9d56a4085ca5ea9088ac",
            "reqSigs": 1,
            "type": "pubkeyhash",
            "addresses": [
              "LNcFoJhfhvo8KpEpDm5c6fZZ1Yrma2jNme"
            ]
          }
        }
      ],
      "hex": "02000000040edb47f701feec8ba04d641e3f1d2d4e1954e0c865202891bd576bbbb0847864010000006b483045022100930cb1c23827faf268ddfc42bb91b9f3b916b78a14fd41a12d16d36c226a6be70220020cddb3e89f1443660efa9fc28f620dee36b6e5e73436f92b7161d143637f4101210327f89556c7004397fd1676eaa97fc4da60700c8239f176636f0bc08d6af16be1feffffff14fa4db0a4926dda0052c02a82ed9cc6a28916bcd16798348612424e8e044728010000006a47304402200d8d69080d336a9d11e53153bb4304a9a465e557e2aea0eeff8b3df685f698ec02207b92e57fc5a1cac1f0cbfcada4fbdd9eb9b00d861e6467d8153207b66810eb500121027e43a24f51556ac4dfff5c24f5c5e390f7f914a44707d2a43d39fb4a3ef5213dfeffffff2e298feda0aab2b15fa66f2eead629bb5428981bd3aefadfa7f6788c2882cf37020000006a473044022047b659638aa8ed1378969d7d32569a6a4606268bf9f9198cbbe3f2987d5bf2e00220354d3ec5cef2e8f8e081116563f3aac56def05f14fe60ce48dc70e97fd4ee8c60121036bf23c3c0ba97bea3100112207ea9de7d5c303080f8b68f10cc7fc86ec769733feffffffde3255323b9b4c3de93e731b549b805e89c6be7edd4ca581da29fe36fe2a450a000000006a47304402205ea4bcf5524bf9ef925c486066e3d2d23529253eb2bfa29d6194b1f9f31fd39d02206b5cf3cdb4d74a8acbfa966d7efc8cc291b39e7fd4f7bd0bee9d9bb046d4b4f00121038bb6b710c26ade84c51fc7df4edcfeabaac3e243b4ef766d632baa28dc65bd15feffffff0240227735000000001976a91440f45fbd6d263893f125d4282acb8eb0ffb56cb888ac9c470e00000000001976a91425202ab9d77c6e88b679d88d9d56a4085ca5ea9088aca6bc1400"
    }, 
    {
      "txid": "eb08e78e1dd54ec321a9aa1e0f07cc3ef1ef14863982198c6bb3aa58275adf06",
      "hash": "eb08e78e1dd54ec321a9aa1e0f07cc3ef1ef14863982198c6bb3aa58275adf06",
      "version": 2,
      "size": 225,
      "vsize": 225,
      "locktime": 1359014,
      "vin": [
        {
          "txid": "0f5a7e1f75dc9bd82de25e712311fda0cfc1d2f6e903ee647e20280b7a1efc36",
          "vout": 0,
          "scriptSig": {
            "asm": "304402205a9119aafe6253754b081bd7ba450cbe630042a8a7dcf4c80c2c31c74a7ef73402200a48617d03a26db3261f3a9a34750291072dacf34f77f1291f5ed9f5fed951bd[ALL] 030d89bfeef39770a0b3e2d6992a843950e504fa3627404d1ed65a60c8231ce96e",
            "hex": "47304402205a9119aafe6253754b081bd7ba450cbe630042a8a7dcf4c80c2c31c74a7ef73402200a48617d03a26db3261f3a9a34750291072dacf34f77f1291f5ed9f5fed951bd0121030d89bfeef39770a0b3e2d6992a843950e504fa3627404d1ed65a60c8231ce96e"
          },
          "sequence": 4294967294
        }
      ],
      "vout": [
        {
          "value": 0.95990000,
          "n": 0,
          "scriptPubKey": {
            "asm": "OP_DUP OP_HASH160 4c554d5e808860c28d1e74b0311b8507de3f4d81 OP_EQUALVERIFY OP_CHECKSIG",
            "hex": "76a9144c554d5e808860c28d1e74b0311b8507de3f4d8188ac",
            "reqSigs": 1,
            "type": "pubkeyhash",
            "addresses": [
              "LSBZohEZAgXZnrGbrxpqxNmUGxQjiohbgc"
            ]
          }
        }, 
        {
          "value": 0.03987400,
          "n": 1,
          "scriptPubKey": {
            "asm": "OP_DUP OP_HASH160 815aa2236fbfb18e0b5bb0073d11c3c32d4e1bdb OP_EQUALVERIFY OP_CHECKSIG",
            "hex": "76a914815aa2236fbfb18e0b5bb0073d11c3c32d4e1bdb88ac",
            "reqSigs": 1,
            "type": "pubkeyhash",
            "addresses": [
              "LX1v1Gu5WYvmpAHrUnVioW8zTXHgZR63fL"
            ]
          }
        }
      ],
      "hex": "020000000136fc1e7a0b28207e64ee03e9f6d2c1cfa0fd1123715ee22dd89bdc751f7e5a0f000000006a47304402205a9119aafe6253754b081bd7ba450cbe630042a8a7dcf4c80c2c31c74a7ef73402200a48617d03a26db3261f3a9a34750291072dacf34f77f1291f5ed9f5fed951bd0121030d89bfeef39770a0b3e2d6992a843950e504fa3627404d1ed65a60c8231ce96efeffffff02f0b0b805000000001976a9144c554d5e808860c28d1e74b0311b8507de3f4d8188acc8d73c00000000001976a914815aa2236fbfb18e0b5bb0073d11c3c32d4e1bdb88aca6bc1400"
    }, 
    {
      "txid": "96a5786b8b1e966f382ca81f1cfc63c3bbf34265f3e9a28e0f4c7e6f0141df31",
      "hash": "96a5786b8b1e966f382ca81f1cfc63c3bbf34265f3e9a28e0f4c7e6f0141df31",
      "version": 2,
      "size": 226,
      "vsize": 226,
      "locktime": 1359014,
      "vin": [
        {
          "txid": "f87f933a5d83e939f6c8fe8cbfcf048cf41a496fd37928b3fd936cbcfdaa4544",
          "vout": 1,
          "scriptSig": {
            "asm": "30450221009e8614a23e13b275db53a3243fa2378ece4ccd1c1766e6bc626dcde1e2c267660220688425f79f35c9fa23a89dee01355005ba9e9425f58e7c9227f2fe4858f37efc[ALL] 02bbeddcff38bc61185b4583498bdde5eb0824e4e5ac89d3f6f3d9ee7e46c23989",
            "hex": "4830450221009e8614a23e13b275db53a3243fa2378ece4ccd1c1766e6bc626dcde1e2c267660220688425f79f35c9fa23a89dee01355005ba9e9425f58e7c9227f2fe4858f37efc012102bbeddcff38bc61185b4583498bdde5eb0824e4e5ac89d3f6f3d9ee7e46c23989"
          },
          "sequence": 4294967294
        }
      ],
      "vout": [
        {
          "value": 0.03940908,
          "n": 0,
          "scriptPubKey": {
            "asm": "OP_DUP OP_HASH160 862d57071427be36f193de158203ce31e6abd208 OP_EQUALVERIFY OP_CHECKSIG",
            "hex": "76a914862d57071427be36f193de158203ce31e6abd20888ac",
            "reqSigs": 1,
            "type": "pubkeyhash",
            "addresses": [
              "LXTR8CAjfbzRs3ioT2681imVt4oQU4MhbG"
            ]
          }
        }, 
        {
          "value": 1.03036427,
          "n": 1,
          "scriptPubKey": {
            "asm": "OP_DUP OP_HASH160 eb9658db00bbcd91d90394542df21ed5ac41d848 OP_EQUALVERIFY OP_CHECKSIG",
            "hex": "76a914eb9658db00bbcd91d90394542df21ed5ac41d84888ac",
            "reqSigs": 1,
            "type": "pubkeyhash",
            "addresses": [
              "LghdAbJWtwHvW8h9mdaNr5ZE6MnpoG5quZ"
            ]
          }
        }
      ],
      "hex": "02000000014445aafdbc6c93fdb32879d36f491af48c04cfbf8cfec8f639e9835d3a937ff8010000006b4830450221009e8614a23e13b275db53a3243fa2378ece4ccd1c1766e6bc626dcde1e2c267660220688425f79f35c9fa23a89dee01355005ba9e9425f58e7c9227f2fe4858f37efc012102bbeddcff38bc61185b4583498bdde5eb0824e4e5ac89d3f6f3d9ee7e46c23989feffffff022c223c00000000001976a914862d57071427be36f193de158203ce31e6abd20888ac0b362406000000001976a914eb9658db00bbcd91d90394542df21ed5ac41d84888aca6bc1400"
    }, 
    {
      "txid": "99823a08aac78e8c61bd2a3e4df521fa2d227e0fd2b0eda573df12929104863b",
      "hash": "99823a08aac78e8c61bd2a3e4df521fa2d227e0fd2b0eda573df12929104863b",
      "version": 2,
      "size": 373,
      "vsize": 373,
      "locktime": 1358954,
      "vin": [
        {
          "txid": "65b75630481500eaa751ef74396d02a204257d2127b051b671b666b363485fa9",
          "vout": 1,
          "scriptSig": {
            "asm": "304402203c30c66072b18d764019a7c9aa24416083704d7d6174537592b5e986d8c4fd630220384403f1b0787d85ebccc6690524fbb5f5858d4d328375876aec3226bed141a7[ALL] 03aa19bee260c8d4927cafc55d3bf93e9120648f8d367ecddf6521cdec85cbde90",
            "hex": "47304402203c30c66072b18d764019a7c9aa24416083704d7d6174537592b5e986d8c4fd630220384403f1b0787d85ebccc6690524fbb5f5858d4d328375876aec3226bed141a7012103aa19bee260c8d4927cafc55d3bf93e9120648f8d367ecddf6521cdec85cbde90"
          },
          "sequence": 4294967294
        }, 
        {
          "txid": "81884fdd5281874251cdfc7a97374cf5d85ed23f72163837da3de31d10ce7e54",
          "vout": 0,
          "scriptSig": {
            "asm": "3045022100bffa7ce17501cc48ed3efad9e64c9485491a07333fb14f729ff0e8521a5b4eea022066e31c230d6d427142286b5dae268ed2f09ff445992f27a808a3ebe533ecf0ca[ALL] 03a0f13fede0f9b9e4142fdae43c7f7856bcb8421825117932f23d67a69a1cd586",
            "hex": "483045022100bffa7ce17501cc48ed3efad9e64c9485491a07333fb14f729ff0e8521a5b4eea022066e31c230d6d427142286b5dae268ed2f09ff445992f27a808a3ebe533ecf0ca012103a0f13fede0f9b9e4142fdae43c7f7856bcb8421825117932f23d67a69a1cd586"
          },
          "sequence": 4294967294
        }
      ],
      "vout": [
        {
          "value": 0.00978537,
          "n": 0,
          "scriptPubKey": {
            "asm": "OP_DUP OP_HASH160 324492435e2183a7f4b64ff8f8a43b87e843a721 OP_EQUALVERIFY OP_CHECKSIG",
            "hex": "76a914324492435e2183a7f4b64ff8f8a43b87e843a72188ac",
            "reqSigs": 1,
            "type": "pubkeyhash",
            "addresses": [
              "LPokCDzTkpkLhgx2JP72he9o6zvUiUbHhV"
            ]
          }
        }, 
        {
          "value": 0.10000000,
          "n": 1,
          "scriptPubKey": {
            "asm": "OP_DUP OP_HASH160 9a230332c7b78d009badafaf670266849d1d478e OP_EQUALVERIFY OP_CHECKSIG",
            "hex": "76a9149a230332c7b78d009badafaf670266849d1d478e88ac",
            "reqSigs": 1,
            "type": "pubkeyhash",
            "addresses": [
              "LZGxGTxXzKFT1oCchYVS64kDYop4H45SLm"
            ]
          }
        }
      ],
      "hex": "0200000002a95f4863b366b671b651b027217d2504a2026d3974ef51a7ea0015483056b765010000006a47304402203c30c66072b18d764019a7c9aa24416083704d7d6174537592b5e986d8c4fd630220384403f1b0787d85ebccc6690524fbb5f5858d4d328375876aec3226bed141a7012103aa19bee260c8d4927cafc55d3bf93e9120648f8d367ecddf6521cdec85cbde90feffffff547ece101de33dda373816723fd25ed8f54c37977afccd5142878152dd4f8881000000006b483045022100bffa7ce17501cc48ed3efad9e64c9485491a07333fb14f729ff0e8521a5b4eea022066e31c230d6d427142286b5dae268ed2f09ff445992f27a808a3ebe533ecf0ca012103a0f13fede0f9b9e4142fdae43c7f7856bcb8421825117932f23d67a69a1cd586feffffff0269ee0e00000000001976a914324492435e2183a7f4b64ff8f8a43b87e843a72188ac80969800000000001976a9149a230332c7b78d009badafaf670266849d1d478e88ac6abc1400"
    }, 
    {
      "txid": "ee8444979e24b5e4d2d63ac1a887a1c7f4d501c8b27dc69da4e96110f316a908",
      "hash": "ee8444979e24b5e4d2d63ac1a887a1c7f4d501c8b27dc69da4e96110f316a908",
      "version": 1,
      "size": 224,
      "vsize": 224,
      "locktime": 0,
      "vin": [
        {
          "txid": "ff78b800ff20762843a70fc9c23e915234ad19215187d86fd25db277d66232a4",
          "vout": 1,
          "scriptSig": {
            "asm": "3045022100be49bc2819e10819047493eb8688d0a0c31a8ed2855946b411ad311b263674bf022005ce65f70942aca3b57752387ef8061cb775d787b8bc6b23638303dce02b8ac5[ALL] 032225d779f422b27ace1dfa0a8a6f9196933435e13f84dc6faed2432321dde6d0",
            "hex": "483045022100be49bc2819e10819047493eb8688d0a0c31a8ed2855946b411ad311b263674bf022005ce65f70942aca3b57752387ef8061cb775d787b8bc6b23638303dce02b8ac50121032225d779f422b27ace1dfa0a8a6f9196933435e13f84dc6faed2432321dde6d0"
          },
          "sequence": 4294967295
        }
      ],
      "vout": [
        {
          "value": 0.47529000,
          "n": 0,
          "scriptPubKey": {
            "asm": "OP_HASH160 1d06d45bc12fc175f9c222952e4a2ed6def6837b OP_EQUAL",
            "hex": "a9141d06d45bc12fc175f9c222952e4a2ed6def6837b87",
            "reqSigs": 1,
            "type": "scripthash",
            "addresses": [
              "MAYe1WwQjWYtJz5dwHpEph7epMUcchJ5rA"
            ]
          }
        }, 
        {
          "value": 0.02448600,
          "n": 1,
          "scriptPubKey": {
            "asm": "OP_DUP OP_HASH160 cbfd95b9ecf334185e959bfaf73e9ff46d504dc4 OP_EQUALVERIFY OP_CHECKSIG",
            "hex": "76a914cbfd95b9ecf334185e959bfaf73e9ff46d504dc488ac",
            "reqSigs": 1,
            "type": "pubkeyhash",
            "addresses": [
              "LdpZDYHE7Z5U2Vrm5Gv71wQy5KGp6YqamS"
            ]
          }
        }
      ],
      "hex": "0100000001a43262d677b25dd26fd887512119ad3452913ec2c90fa743287620ff00b878ff010000006b483045022100be49bc2819e10819047493eb8688d0a0c31a8ed2855946b411ad311b263674bf022005ce65f70942aca3b57752387ef8061cb775d787b8bc6b23638303dce02b8ac50121032225d779f422b27ace1dfa0a8a6f9196933435e13f84dc6faed2432321dde6d0ffffffff02283cd5020000000017a9141d06d45bc12fc175f9c222952e4a2ed6def6837b87d85c2500000000001976a914cbfd95b9ecf334185e959bfaf73e9ff46d504dc488ac00000000"
    }, 
    {
      "txid": "c10a6d34b7dafd1d7fa77244e8ddfa1b2ad09dc3a95786e8449c423e41b57032",
      "hash": "c10a6d34b7dafd1d7fa77244e8ddfa1b2ad09dc3a95786e8449c423e41b57032",
      "version": 1,
      "size": 226,
      "vsize": 226,
      "locktime": 0,
      "vin": [
        {
          "txid": "17ca27b9b413efe34d970f1c7a652a8e23f958fc7ef7d5348000674602d2a761",
          "vout": 0,
          "scriptSig": {
            "asm": "30450221008fc9fa5ac4b5c4c7345a793ee4f858797cf63e5600a01ee7e3a9c700a9a63f2402205b5efec82f6dbd74ca9e0e9c8e2d63cb85b6687fc3d82b5740387a23b8fd5b2a[ALL] 034e6b00610fc8f501dd00171a9726b55e47042f186dc6fca9137acd076cc5cfc4",
            "hex": "4830450221008fc9fa5ac4b5c4c7345a793ee4f858797cf63e5600a01ee7e3a9c700a9a63f2402205b5efec82f6dbd74ca9e0e9c8e2d63cb85b6687fc3d82b5740387a23b8fd5b2a0121034e6b00610fc8f501dd00171a9726b55e47042f186dc6fca9137acd076cc5cfc4"
          },
          "sequence": 4294967295
        }
      ],
      "vout": [
        {
          "value": 0.00055541,
          "n": 0,
          "scriptPubKey": {
            "asm": "OP_DUP OP_HASH160 dde860e29e79b988320d7ec600d05931cbcac28a OP_EQUALVERIFY OP_CHECKSIG",
            "hex": "76a914dde860e29e79b988320d7ec600d05931cbcac28a88ac",
            "reqSigs": 1,
            "type": "pubkeyhash",
            "addresses": [
              "LfTHyYcVcJ5VzQkfBa6ji5rjywg6Q6NL3Q"
            ]
          }
        }, 
        {
          "value": 0.02484049,
          "n": 1,
          "scriptPubKey": {
            "asm": "OP_DUP OP_HASH160 37de5b613c83914e223515df5be6018a537e69fe OP_EQUALVERIFY OP_CHECKSIG",
            "hex": "76a91437de5b613c83914e223515df5be6018a537e69fe88ac",
            "reqSigs": 1,
            "type": "pubkeyhash",
            "addresses": [
              "LQKMoPu2foqAoAzqjjCqdbypgdnuhemeRj"
            ]
          }
        }
      ],
      "hex": "010000000161a7d2024667008034d5f77efc58f9238e2a657a1c0f974de3ef13b4b927ca17000000006b4830450221008fc9fa5ac4b5c4c7345a793ee4f858797cf63e5600a01ee7e3a9c700a9a63f2402205b5efec82f6dbd74ca9e0e9c8e2d63cb85b6687fc3d82b5740387a23b8fd5b2a0121034e6b00610fc8f501dd00171a9726b55e47042f186dc6fca9137acd076cc5cfc4ffffffff02f5d80000000000001976a914dde860e29e79b988320d7ec600d05931cbcac28a88ac51e72500000000001976a91437de5b613c83914e223515df5be6018a537e69fe88ac00000000"
    }, 
    {
      "txid": "5163198f71d4041e881a6d13ef83cd2392be622e3290fa2e88b57d41b9938e7c",
      "hash": "5163198f71d4041e881a6d13ef83cd2392be622e3290fa2e88b57d41b9938e7c",
      "version": 2,
      "size": 224,
      "vsize": 224,
      "locktime": 1359014,
      "vin": [
        {
          "txid": "dfe44c91c4b18d1b80baff95efbe954732584f762a5e2bcae38e406cddf05a1d",
          "vout": 0,
          "scriptSig": {
            "asm": "3045022100f8c9da220da787cdce91826f1854b9d4055052f1b984f8ce9f08340570b2a6da0220708c7899d04f6346ca9441c1dafcf3b9a710ade2611f1177503aec4bdf830296[ALL] 0245f80ecb25559ad51f0280076aff92ee2f51e637fc46cd62b5c62866cdd9c06f",
            "hex": "483045022100f8c9da220da787cdce91826f1854b9d4055052f1b984f8ce9f08340570b2a6da0220708c7899d04f6346ca9441c1dafcf3b9a710ade2611f1177503aec4bdf83029601210245f80ecb25559ad51f0280076aff92ee2f51e637fc46cd62b5c62866cdd9c06f"
          },
          "sequence": 4294967294
        }
      ],
      "vout": [
        {
          "value": 0.10140000,
          "n": 0,
          "scriptPubKey": {
            "asm": "OP_HASH160 8485c227fb4ec76c83b9052ac3f33e929fe9734d OP_EQUAL",
            "hex": "a9148485c227fb4ec76c83b9052ac3f33e929fe9734d87",
            "reqSigs": 1,
            "type": "scripthash",
            "addresses": [
              "MKysfT3q22wyopNhdp7ERStXEnnXhcvNyJ"
            ]
          }
        }, 
        {
          "value": 0.25768000,
          "n": 1,
          "scriptPubKey": {
            "asm": "OP_DUP OP_HASH160 87a41e00d05c911be898f7db24cffea9fb43f049 OP_EQUALVERIFY OP_CHECKSIG",
            "hex": "76a91487a41e00d05c911be898f7db24cffea9fb43f04988ac",
            "reqSigs": 1,
            "type": "pubkeyhash",
            "addresses": [
              "LXbA6AzVWbxMR1HLeUE8Px4Q3G4SuSocjZ"
            ]
          }
        }
      ],
      "hex": "02000000011d5af0dd6c408ee3ca2b5e2a764f58324795beef95ffba801b8db1c4914ce4df000000006b483045022100f8c9da220da787cdce91826f1854b9d4055052f1b984f8ce9f08340570b2a6da0220708c7899d04f6346ca9441c1dafcf3b9a710ade2611f1177503aec4bdf83029601210245f80ecb25559ad51f0280076aff92ee2f51e637fc46cd62b5c62866cdd9c06ffeffffff0260b99a000000000017a9148485c227fb4ec76c83b9052ac3f33e929fe9734d8740308901000000001976a91487a41e00d05c911be898f7db24cffea9fb43f04988aca6bc1400"
    }, 
    {
      "txid": "88fe8e83e1f8af848fe881d9937bdad0cb569f2fb0213da59bd3ba14df58e3de",
      "hash": "88fe8e83e1f8af848fe881d9937bdad0cb569f2fb0213da59bd3ba14df58e3de",
      "version": 1,
      "size": 226,
      "vsize": 226,
      "locktime": 0,
      "vin": [
        {
          "txid": "d2a56f7f3b1bf44a71d90eb475f7e70c129c08eaeae2d374e35877861d0e5ee0",
          "vout": 1653,
          "scriptSig": {
            "asm": "3045022100eadc39c000e1311e4b1ec84dd11c649dc994867083fa10e8aaaa976ef6e53a7a022061479ba2eb346da01439c30db472fc6ed273a72ee95f9c1f2fb9608989e12916[ALL] 03111ea7be580162e2121684347e183d258a4a6c7e9a16bc2a4a2c02d4b83b126d",
            "hex": "483045022100eadc39c000e1311e4b1ec84dd11c649dc994867083fa10e8aaaa976ef6e53a7a022061479ba2eb346da01439c30db472fc6ed273a72ee95f9c1f2fb9608989e12916012103111ea7be580162e2121684347e183d258a4a6c7e9a16bc2a4a2c02d4b83b126d"
          },
          "sequence": 4294967295
        }
      ],
      "vout": [
        {
          "value": 0.00055120,
          "n": 0,
          "scriptPubKey": {
            "asm": "OP_DUP OP_HASH160 cc37d91df60b48f4861197e5fac1293b56d43e4b OP_EQUALVERIFY OP_CHECKSIG",
            "hex": "76a914cc37d91df60b48f4861197e5fac1293b56d43e4b88ac",
            "reqSigs": 1,
            "type": "pubkeyhash",
            "addresses": [
              "Ldqm1jxDGtM9tJvoC4puP6SrunCCVHYngG"
            ]
          }
        }, 
        {
          "value": 0.14630000,
          "n": 1,
          "scriptPubKey": {
            "asm": "OP_DUP OP_HASH160 ace324bf12c5aab88f6241459031428eca7ddd45 OP_EQUALVERIFY OP_CHECKSIG",
            "hex": "76a914ace324bf12c5aab88f6241459031428eca7ddd4588ac",
            "reqSigs": 1,
            "type": "pubkeyhash",
            "addresses": [
              "Laz6bRBUVG7gVAGMKi1fjxPVv9hDtSe7ic"
            ]
          }
        }
      ],
      "hex": "0100000001e05e0e1d867758e374d3e2eaea089c120ce7f775b40ed9714af41b3b7f6fa5d2750600006b483045022100eadc39c000e1311e4b1ec84dd11c649dc994867083fa10e8aaaa976ef6e53a7a022061479ba2eb346da01439c30db472fc6ed273a72ee95f9c1f2fb9608989e12916012103111ea7be580162e2121684347e183d258a4a6c7e9a16bc2a4a2c02d4b83b126dffffffff0250d70000000000001976a914cc37d91df60b48f4861197e5fac1293b56d43e4b88ac703cdf00000000001976a914ace324bf12c5aab88f6241459031428eca7ddd4588ac00000000"
    }
  ],
  "time": 1517224243,
  "mediantime": 1517223801,
  "nonce": 2661579463,
  "bits": "1a042eae",
  "difficulty": 4011378.762614286,
  "chainwork": "0000000000000000000000000000000000000000000000339c5bc9d7de33ebd2",
  "previousblockhash": "dade2be1961e9cfefc1fee665d1d7e94c491a89a908cc63ff8ed05486292f2d3",
  "nextblockhash": "9012cdf650b23d4e4464a4d776f4d92b9c0704f81b35279255ec44f1cd6f8264"
}
