{
  "hash": "3427523ef5b632e0e522b939d421ad70aad6d6e1d1c3f47db2056ad28a75ad7a",
  "confirmations": 1863,
  "strippedsize": 253,
  "size": 253,
  "weight": 1012,
  "height": 1359131,
  "version": 536870912,
  "versionHex": "20000000",
  "merkleroot": "f4253aaafa6926044ae71cdbc96f71c2ab3882a488959e37a0c7218cf11069a0",
  "tx": [
    {
      "txid": "f4253aaafa6926044ae71cdbc96f71c2ab3882a488959e37a0c7218cf11069a0",
      "hash": "f4253aaafa6926044ae71cdbc96f71c2ab3882a488959e37a0c7218cf11069a0",
      "version": 1,
      "size": 172,
      "vsize": 172,
      "locktime": 0,
      "vin": [
        {
          "coinbase": "031bbd141a4d696e656420627920416e74506f6f6c20626a341e205a6f403efabe6d6d08dc21771626f8ebdcfe10ea9a6dd7c07dc37fa89fd5281ba2f6afc426c68e7d04000000000000004a0800000000000028000000",
          "sequence": 4294967295
        }
      ],
      "vout": [
        {
          "value": 25.00000000,
          "n": 0,
          "scriptPubKey": {
            "asm": "OP_DUP OP_HASH160 0ff3ccc5e8be88afe24b5d634e5852d474dbdff1 OP_EQUALVERIFY OP_CHECKSIG",
            "hex": "76a9140ff3ccc5e8be88afe24b5d634e5852d474dbdff188ac",
            "reqSigs": 1,
            "type": "pubkeyhash",
            "addresses": [
              "LLgJTbzZMsRTCUF1NtvvL9SR1a4pVieW89"
            ]
          }
        }
      ],
      "hex": "01000000010000000000000000000000000000000000000000000000000000000000000000ffffffff57031bbd141a4d696e656420627920416e74506f6f6c20626a341e205a6f403efabe6d6d08dc21771626f8ebdcfe10ea9a6dd7c07dc37fa89fd5281ba2f6afc426c68e7d04000000000000004a0800000000000028000000ffffffff0100f90295000000001976a9140ff3ccc5e8be88afe24b5d634e5852d474dbdff188ac00000000"
    }
  ],
  "time": 1517240382,
  "mediantime": 1517240228,
  "nonce": 1844610248,
  "bits": "1a042eae",
  "difficulty": 4011378.762614286,
  "chainwork": "000000000000000000000000000000000000000000000033b7dae7e4af9e1138",
  "previousblockhash": "0d53528b7b2ac2bcad44f0e60bebbb475a3105602f4a09e806fcf3a237089bac",
  "nextblockhash": "e693c2bad1d94b1f3e5e9fb185ef4f26bc834440d90d2bf616a8c9c84f4bc7b6"
}
