{
  "hash": "3452f29e3137915b1d43edcda1dce6fe566c940c52275fbaf4756d83ee87c687",
  "confirmations": 1487,
  "strippedsize": 254,
  "size": 254,
  "weight": 1016,
  "height": 1359507,
  "version": 536870912,
  "versionHex": "20000000",
  "merkleroot": "87b9fed0c6cc31351eb7f683b8245c567cca3e853bb504ac63b27073cb58261d",
  "tx": [
    {
      "txid": "87b9fed0c6cc31351eb7f683b8245c567cca3e853bb504ac63b27073cb58261d",
      "hash": "87b9fed0c6cc31351eb7f683b8245c567cca3e853bb504ac63b27073cb58261d",
      "version": 1,
      "size": 173,
      "vsize": 173,
      "locktime": 0,
      "vin": [
        {
          "coinbase": "0393be141b4d696e656420627920416e74506f6f6c20626a312045205a700c2cfabe6d6d4120210ec2ce635a283a1cc58d9336072d142361972d8529fce746f7997b5a140400000000000000642b0000000000008000bdc4",
          "sequence": 4294967295
        }
      ],
      "vout": [
        {
          "value": 25.00000000,
          "n": 0,
          "scriptPubKey": {
            "asm": "OP_DUP OP_HASH160 0ff3ccc5e8be88afe24b5d634e5852d474dbdff1 OP_EQUALVERIFY OP_CHECKSIG",
            "hex": "76a9140ff3ccc5e8be88afe24b5d634e5852d474dbdff188ac",
            "reqSigs": 1,
            "type": "pubkeyhash",
            "addresses": [
              "LLgJTbzZMsRTCUF1NtvvL9SR1a4pVieW89"
            ]
          }
        }
      ],
      "hex": "01000000010000000000000000000000000000000000000000000000000000000000000000ffffffff580393be141b4d696e656420627920416e74506f6f6c20626a312045205a700c2cfabe6d6d4120210ec2ce635a283a1cc58d9336072d142361972d8529fce746f7997b5a140400000000000000642b0000000000008000bdc4ffffffff0100f90295000000001976a9140ff3ccc5e8be88afe24b5d634e5852d474dbdff188ac00000000"
    }
  ],
  "time": 1517292588,
  "mediantime": 1517291916,
  "nonce": 3558105896,
  "bits": "1a042eae",
  "difficulty": 4011378.762614286,
  "chainwork": "00000000000000000000000000000000000000000000003411c1c25a48470828",
  "previousblockhash": "f94fcbe22c39386d274fc003b184115dbb7c6cf2a6af5d72df1f46bb6bf1e887",
  "nextblockhash": "ef8cfb51b9432b14df262fb76df2363a0210c3f30c8e3f6f8a332d57eae8c872"
}
