{
  "hash": "347e9411d0d34e14c2c971a0d14ba80cc97eae75868cc9d48647170b92c23938",
  "confirmations": 2848,
  "strippedsize": 736,
  "size": 772,
  "weight": 2980,
  "height": 1358147,
  "version": 536870912,
  "versionHex": "20000000",
  "merkleroot": "ae6a070856af5b63a7f0155eb877e7dfe429878dd85e447232b530924024a7c3",
  "tx": [
    {
      "txid": "3a717ccb5c7b2f436b0c8208ca89ca93b53d28e79909009de63c788a21d412eb",
      "hash": "233fef5b1fa07e0bddaa5487e13fdeb0b647906e59b0474eacefe4546e799ac6",
      "version": 1,
      "size": 240,
      "vsize": 213,
      "locktime": 0,
      "vin": [
        {
          "coinbase": "0343b91404ad0d6d5a0805a177e526000000fabe6d6dc2ba88d6c543d6d7f3fa5b2eaebff2eece04be6e1497844172ee5f2bdda24cdc4000000000000000092f4c54432e544f502f",
          "sequence": 0
        }
      ],
      "vout": [
        {
          "value": 25.00172603,
          "n": 0,
          "scriptPubKey": {
            "asm": "OP_DUP OP_HASH160 0c617fdb2ea42aed30a509595ee21ba3f6688db0 OP_EQUALVERIFY OP_CHECKSIG",
            "hex": "76a9140c617fdb2ea42aed30a509595ee21ba3f6688db088ac",
            "reqSigs": 1,
            "type": "pubkeyhash",
            "addresses": [
              "LLMRAtr3qBje2ySEa3CnZ55LA4TQMWnRY3"
            ]
          }
        }, 
        {
          "value": 0.00000000,
          "n": 1,
          "scriptPubKey": {
            "asm": "OP_RETURN aa21a9edd99b4ccd03b8b244428306d01ee3c676474bcb298c94dcc9408d0844eaab5e2a",
            "hex": "6a24aa21a9edd99b4ccd03b8b244428306d01ee3c676474bcb298c94dcc9408d0844eaab5e2a",
            "type": "nulldata"
          }
        }
      ],
      "hex": "010000000001010000000000000000000000000000000000000000000000000000000000000000ffffffff480343b91404ad0d6d5a0805a177e526000000fabe6d6dc2ba88d6c543d6d7f3fa5b2eaebff2eece04be6e1497844172ee5f2bdda24cdc4000000000000000092f4c54432e544f502f00000000023b9b0595000000001976a9140c617fdb2ea42aed30a509595ee21ba3f6688db088ac0000000000000000266a24aa21a9edd99b4ccd03b8b244428306d01ee3c676474bcb298c94dcc9408d0844eaab5e2a0120000000000000000000000000000000000000000000000000000000000000000000000000"
    }, 
    {
      "txid": "b7066022870614fb23e7fbd3e541c9a207a2e5c9a3614ecf7f101928c489f379",
      "hash": "b7066022870614fb23e7fbd3e541c9a207a2e5c9a3614ecf7f101928c489f379",
      "version": 1,
      "size": 225,
      "vsize": 225,
      "locktime": 0,
      "vin": [
        {
          "txid": "3fd6c6d9bd646c2ee270cabeeb4c6f547c7be2e0dd0ccbe22bfaef0caf763b29",
          "vout": 0,
          "scriptSig": {
            "asm": "304402202aa123d63a790fe061c985fb1baee66a8b9fc971dada20383889ca47961c0e0a02204711ae0753cffcf2e23185a859567bb12087e13d273574f0e3da0af49130629c[ALL] 03547b36f0082aa00811687caff6e805bd744f055980d6db55f01641732ac2c740",
            "hex": "47304402202aa123d63a790fe061c985fb1baee66a8b9fc971dada20383889ca47961c0e0a02204711ae0753cffcf2e23185a859567bb12087e13d273574f0e3da0af49130629c012103547b36f0082aa00811687caff6e805bd744f055980d6db55f01641732ac2c740"
          },
          "sequence": 4294967294
        }
      ],
      "vout": [
        {
          "value": 29.02950000,
          "n": 0,
          "scriptPubKey": {
            "asm": "OP_DUP OP_HASH160 9e844808c2d40b38a00bc77e112f7bffb24591d0 OP_EQUALVERIFY OP_CHECKSIG",
            "hex": "76a9149e844808c2d40b38a00bc77e112f7bffb24591d088ac",
            "reqSigs": 1,
            "type": "pubkeyhash",
            "addresses": [
              "LZg7VbQ6M1j6pqKeV8Vgfeg1V9D6EY34W1"
            ]
          }
        }, 
        {
          "value": 35.47822600,
          "n": 1,
          "scriptPubKey": {
            "asm": "OP_DUP OP_HASH160 dd72cf7437eb5180b4652db456e98cb168e29988 OP_EQUALVERIFY OP_CHECKSIG",
            "hex": "76a914dd72cf7437eb5180b4652db456e98cb168e2998888ac",
            "reqSigs": 1,
            "type": "pubkeyhash",
            "addresses": [
              "LfQs8miDtEmpUFVfyh1qby9aUB5rKfsHzy"
            ]
          }
        }
      ],
      "hex": "0100000001293b76af0ceffa2be2cb0cdde0e27b7c546f4cebbeca70e22e6c64bdd9c6d63f000000006a47304402202aa123d63a790fe061c985fb1baee66a8b9fc971dada20383889ca47961c0e0a02204711ae0753cffcf2e23185a859567bb12087e13d273574f0e3da0af49130629c012103547b36f0082aa00811687caff6e805bd744f055980d6db55f01641732ac2c740feffffff02708007ad000000001976a9149e844808c2d40b38a00bc77e112f7bffb24591d088ac087a77d3000000001976a914dd72cf7437eb5180b4652db456e98cb168e2998888ac00000000"
    }, 
    {
      "txid": "8a9a02d4e2c90376ddc4fcfc3e01076056b52093715bd87c14d10a7cbfcc00db",
      "hash": "8a9a02d4e2c90376ddc4fcfc3e01076056b52093715bd87c14d10a7cbfcc00db",
      "version": 2,
      "size": 226,
      "vsize": 226,
      "locktime": 1358145,
      "vin": [
        {
          "txid": "ba809c82f2f84622ef33c929ad707f2afb278051bf04faba4e51cf97795ac8a3",
          "vout": 0,
          "scriptSig": {
            "asm": "3045022100d87cb7038ac0292af276c7db31652ebba8079a7ac0fbc2f62b3cce14f7e006e202206649ec00a6636a321622a372451598f0c7cbc208ac2ace064080029271f5ed3d[ALL] 037026ff98cb05f8345e2d570384948f58f0e6762958b94d390ea2c40122518223",
            "hex": "483045022100d87cb7038ac0292af276c7db31652ebba8079a7ac0fbc2f62b3cce14f7e006e202206649ec00a6636a321622a372451598f0c7cbc208ac2ace064080029271f5ed3d0121037026ff98cb05f8345e2d570384948f58f0e6762958b94d390ea2c40122518223"
          },
          "sequence": 4294967294
        }
      ],
      "vout": [
        {
          "value": 0.11850956,
          "n": 0,
          "scriptPubKey": {
            "asm": "OP_DUP OP_HASH160 6564c1bf04dd4a8b91fb5df5c29a6ee704178172 OP_EQUALVERIFY OP_CHECKSIG",
            "hex": "76a9146564c1bf04dd4a8b91fb5df5c29a6ee70417817288ac",
            "reqSigs": 1,
            "type": "pubkeyhash",
            "addresses": [
              "LUU5DJ35Njz8Tbqx6Tz56pNmaMvyndEWsh"
            ]
          }
        }, 
        {
          "value": 2.87126444,
          "n": 1,
          "scriptPubKey": {
            "asm": "OP_DUP OP_HASH160 fc9b5d130f55fe60fb6a1c61147740b54ce43d02 OP_EQUALVERIFY OP_CHECKSIG",
            "hex": "76a914fc9b5d130f55fe60fb6a1c61147740b54ce43d0288ac",
            "reqSigs": 1,
            "type": "pubkeyhash",
            "addresses": [
              "LiFcfQR36w2aT313wEpbyHxJrN8EPFzqfR"
            ]
          }
        }
      ],
      "hex": "0200000001a3c85a7997cf514ebafa04bf518027fb2a7f70ad29c933ef2246f8f2829c80ba000000006b483045022100d87cb7038ac0292af276c7db31652ebba8079a7ac0fbc2f62b3cce14f7e006e202206649ec00a6636a321622a372451598f0c7cbc208ac2ace064080029271f5ed3d0121037026ff98cb05f8345e2d570384948f58f0e6762958b94d390ea2c40122518223feffffff02ccd4b400000000001976a9146564c1bf04dd4a8b91fb5df5c29a6ee70417817288acac331d11000000001976a914fc9b5d130f55fe60fb6a1c61147740b54ce43d0288ac41b91400"
    }
  ],
  "time": 1517096346,
  "mediantime": 1517096137,
  "nonce": 921810432,
  "bits": "1a047f14",
  "difficulty": 3731199.183374282,
  "chainwork": "000000000000000000000000000000000000000000000032d7339d4360f053e8",
  "previousblockhash": "bc4f38175874054e07648dc3bbfb98c6f5333efd8986938ddcf7f863e3dbc367",
  "nextblockhash": "995834c1502641f3f616102b61b56c3916931e302ce5e161e8635d58a4db813a"
}
