{
  "hash": "348b519c55b4ea25ed043988f998787a03d4e9c915291daf0cec37bd67e0f36e",
  "confirmations": 1625,
  "strippedsize": 1919,
  "size": 1955,
  "weight": 7712,
  "height": 1359369,
  "version": 536870912,
  "versionHex": "20000000",
  "merkleroot": "e24ed7f5f00ae4a20bebfc9973ab5b919356237540286f12eb29ebb55dec0055",
  "tx": [
    {
      "txid": "56a57059fafaec778ad833dea103e3917d03718bc90c3b7be1b694a823e6f0e1",
      "hash": "e67a42e28f93c6442e720f2c19ebe29d78e4695d817e8dfd2d4d6dd52ffbf7f6",
      "version": 1,
      "size": 261,
      "vsize": 234,
      "locktime": 0,
      "vin": [
        {
          "coinbase": "0309be141a2f5669614254432f4d696e6564206279206c7463727a3030312f2cfabe6d6d28dc6bf6a938b9f72f73a19e24b836b6862cbb6361c5d02577f35b1d228b0889010000000000000010bf796b005c3f1898da1f476304000000",
          "sequence": 4294967295
        }
      ],
      "vout": [
        {
          "value": 25.00652900,
          "n": 0,
          "scriptPubKey": {
            "asm": "OP_DUP OP_HASH160 e16c28146ed4869c190b3f0bdc18d80d45f92134 OP_EQUALVERIFY OP_CHECKSIG",
            "hex": "76a914e16c28146ed4869c190b3f0bdc18d80d45f9213488ac",
            "reqSigs": 1,
            "type": "pubkeyhash",
            "addresses": [
              "LfmssDyX6iZvbVqHv6t9P6JWXia2JG7mdb"
            ]
          }
        }, 
        {
          "value": 0.00000000,
          "n": 1,
          "scriptPubKey": {
            "asm": "OP_RETURN aa21a9ed86799d94b0afc6e22171b7a5170f12a65408a93561c407ecfcf617d72c120ae6",
            "hex": "6a24aa21a9ed86799d94b0afc6e22171b7a5170f12a65408a93561c407ecfcf617d72c120ae6",
            "type": "nulldata"
          }
        }
      ],
      "hex": "010000000001010000000000000000000000000000000000000000000000000000000000000000ffffffff5d0309be141a2f5669614254432f4d696e6564206279206c7463727a3030312f2cfabe6d6d28dc6bf6a938b9f72f73a19e24b836b6862cbb6361c5d02577f35b1d228b0889010000000000000010bf796b005c3f1898da1f476304000000ffffffff0264ef0c95000000001976a914e16c28146ed4869c190b3f0bdc18d80d45f9213488ac0000000000000000266a24aa21a9ed86799d94b0afc6e22171b7a5170f12a65408a93561c407ecfcf617d72c120ae60120000000000000000000000000000000000000000000000000000000000000000000000000"
    }, 
    {
      "txid": "1a5b00050c9ddf0366480c3caaa8b24c353a1f5839836537d86b6e881d7152c1",
      "hash": "1a5b00050c9ddf0366480c3caaa8b24c353a1f5839836537d86b6e881d7152c1",
      "version": 1,
      "size": 225,
      "vsize": 225,
      "locktime": 0,
      "vin": [
        {
          "txid": "b639ac36ceeea2b9dfa8e2e21c877b4c3a38a0cf8a423529a3c6f158320b7164",
          "vout": 1,
          "scriptSig": {
            "asm": "304402203638e6eb8501bf6324e8ce33b85680cb8e0b8f4596fda325bfb768d468ad09f6022057e607d8807ddeb5f2576d7c16583785c6c500fd83e42dd2c5b0a0e4e3f7d231[ALL] 0246002a900a2a80c73ec29bffbf4601c2acff87d5a554461f6895b8dc30cfc58b",
            "hex": "47304402203638e6eb8501bf6324e8ce33b85680cb8e0b8f4596fda325bfb768d468ad09f6022057e607d8807ddeb5f2576d7c16583785c6c500fd83e42dd2c5b0a0e4e3f7d23101210246002a900a2a80c73ec29bffbf4601c2acff87d5a554461f6895b8dc30cfc58b"
          },
          "sequence": 4294967295
        }
      ],
      "vout": [
        {
          "value": 0.71697437,
          "n": 0,
          "scriptPubKey": {
            "asm": "OP_DUP OP_HASH160 787b2102e0891b27e15a911c64e4069cd8c92fe0 OP_EQUALVERIFY OP_CHECKSIG",
            "hex": "76a914787b2102e0891b27e15a911c64e4069cd8c92fe088ac",
            "reqSigs": 1,
            "type": "pubkeyhash",
            "addresses": [
              "LWCzrP7eK887yBMRokCnsSXzWeHRPnXmSz"
            ]
          }
        }, 
        {
          "value": 7.31438987,
          "n": 1,
          "scriptPubKey": {
            "asm": "OP_DUP OP_HASH160 58e9789976cc319513ca96cef27525dd516459cc OP_EQUALVERIFY OP_CHECKSIG",
            "hex": "76a91458e9789976cc319513ca96cef27525dd516459cc88ac",
            "reqSigs": 1,
            "type": "pubkeyhash",
            "addresses": [
              "LTL5Qx3oztYoCb8JYwie4ELnVo8jYLBUM9"
            ]
          }
        }
      ],
      "hex": "010000000164710b3258f1c6a32935428acfa0383a4c7b871ce2e2a8dfb9a2eece36ac39b6010000006a47304402203638e6eb8501bf6324e8ce33b85680cb8e0b8f4596fda325bfb768d468ad09f6022057e607d8807ddeb5f2576d7c16583785c6c500fd83e42dd2c5b0a0e4e3f7d23101210246002a900a2a80c73ec29bffbf4601c2acff87d5a554461f6895b8dc30cfc58bffffffff021d044604000000001976a914787b2102e0891b27e15a911c64e4069cd8c92fe088ac8bdf982b000000001976a91458e9789976cc319513ca96cef27525dd516459cc88ac00000000"
    }, 
    {
      "txid": "cc9eb4bf6e2c579b059539cafd85eda27c693041dbbdd71443b35259bd40abfb",
      "hash": "cc9eb4bf6e2c579b059539cafd85eda27c693041dbbdd71443b35259bd40abfb",
      "version": 1,
      "size": 373,
      "vsize": 373,
      "locktime": 0,
      "vin": [
        {
          "txid": "cc6c9052efe79f3c042b0802781df228872724f7aad6c9a21a6f5ebaec9bd8be",
          "vout": 1,
          "scriptSig": {
            "asm": "3045022100f0118bf24769cd561df38e5ee4ff81bcf0c0e569c6537c4cc6394622ae833a4802207a0f830747a1dd2d582a84cd49be1565151669cd31f52bbdba3c669e995a4ec9[ALL] 0220b4cf58e96d1ccae1ee42f421abf7f12ce4b54acb6d62a2de1a9d37f5b3d837",
            "hex": "483045022100f0118bf24769cd561df38e5ee4ff81bcf0c0e569c6537c4cc6394622ae833a4802207a0f830747a1dd2d582a84cd49be1565151669cd31f52bbdba3c669e995a4ec901210220b4cf58e96d1ccae1ee42f421abf7f12ce4b54acb6d62a2de1a9d37f5b3d837"
          },
          "sequence": 4294967295
        }, 
        {
          "txid": "17cbc4aad6e8c44f8f6f196c1acf0b0fe56df8efa9e8d8a77fab4b7b975fa8d9",
          "vout": 0,
          "scriptSig": {
            "asm": "30440220476e343c032a897527df9b4ecf8633549d342d7ce7133d11cf93285eb7b0a26202204abe578d358f80c85112e8f8a0f3be7998e1f1f58211a9fc2e8858338faf6e63[ALL] 0220b4cf58e96d1ccae1ee42f421abf7f12ce4b54acb6d62a2de1a9d37f5b3d837",
            "hex": "4730440220476e343c032a897527df9b4ecf8633549d342d7ce7133d11cf93285eb7b0a26202204abe578d358f80c85112e8f8a0f3be7998e1f1f58211a9fc2e8858338faf6e6301210220b4cf58e96d1ccae1ee42f421abf7f12ce4b54acb6d62a2de1a9d37f5b3d837"
          },
          "sequence": 4294967295
        }
      ],
      "vout": [
        {
          "value": 25.00000000,
          "n": 0,
          "scriptPubKey": {
            "asm": "OP_DUP OP_HASH160 94f20d5bfc50204b9c0d92391f85632b2b7594a1 OP_EQUALVERIFY OP_CHECKSIG",
            "hex": "76a91494f20d5bfc50204b9c0d92391f85632b2b7594a188ac",
            "reqSigs": 1,
            "type": "pubkeyhash",
            "addresses": [
              "LYoWEgf7G49MYn4cXaFtYXa5SBN1Etud9G"
            ]
          }
        }, 
        {
          "value": 5.12816305,
          "n": 1,
          "scriptPubKey": {
            "asm": "OP_DUP OP_HASH160 7fdfd7d2b2f55a6b2e33caa1b56929b564fb02e7 OP_EQUALVERIFY OP_CHECKSIG",
            "hex": "76a9147fdfd7d2b2f55a6b2e33caa1b56929b564fb02e788ac",
            "reqSigs": 1,
            "type": "pubkeyhash",
            "addresses": [
              "LWt6ETrgFjRWgxuXB2Xn1rC2tBdGoWzqKP"
            ]
          }
        }
      ],
      "hex": "0100000002bed89becba5e6f1aa2c9d6aaf724278728f21d7802082b043c9fe7ef52906ccc010000006b483045022100f0118bf24769cd561df38e5ee4ff81bcf0c0e569c6537c4cc6394622ae833a4802207a0f830747a1dd2d582a84cd49be1565151669cd31f52bbdba3c669e995a4ec901210220b4cf58e96d1ccae1ee42f421abf7f12ce4b54acb6d62a2de1a9d37f5b3d837ffffffffd9a85f977b4bab7fa7d8e8a9eff86de50f0bcf1a6c196f8f4fc4e8d6aac4cb17000000006a4730440220476e343c032a897527df9b4ecf8633549d342d7ce7133d11cf93285eb7b0a26202204abe578d358f80c85112e8f8a0f3be7998e1f1f58211a9fc2e8858338faf6e6301210220b4cf58e96d1ccae1ee42f421abf7f12ce4b54acb6d62a2de1a9d37f5b3d837ffffffff0200f90295000000001976a91494f20d5bfc50204b9c0d92391f85632b2b7594a188acb1f4901e000000001976a9147fdfd7d2b2f55a6b2e33caa1b56929b564fb02e788ac00000000"
    }, 
    {
      "txid": "144c686931453128de4542bbff66b54c13ba0d6e763e6a4c84faf4c68903496e",
      "hash": "144c686931453128de4542bbff66b54c13ba0d6e763e6a4c84faf4c68903496e",
      "version": 1,
      "size": 224,
      "vsize": 224,
      "locktime": 0,
      "vin": [
        {
          "txid": "472a407f6d7437c7937b08deaddcbce8ad52a8a2356d32f33b2712872a180f18",
          "vout": 0,
          "scriptSig": {
            "asm": "3043021f73e05615fe6b2789db636d03df082aff3217bce81feeff742cad2f393b2b8302206c132fcbed8170aceb90160b3341c1c24cd1592ec165c34b618d087c98f53ae9[ALL] 0222b21fe88cf8ebb71a51098f46fab1db5b2546d519b0b1cc0a21dadf2ce27022",
            "hex": "463043021f73e05615fe6b2789db636d03df082aff3217bce81feeff742cad2f393b2b8302206c132fcbed8170aceb90160b3341c1c24cd1592ec165c34b618d087c98f53ae901210222b21fe88cf8ebb71a51098f46fab1db5b2546d519b0b1cc0a21dadf2ce27022"
          },
          "sequence": 4294967295
        }
      ],
      "vout": [
        {
          "value": 1.27155386,
          "n": 0,
          "scriptPubKey": {
            "asm": "OP_DUP OP_HASH160 0a5a66d6e0863d64d2e45899ceb5cb7031570ed3 OP_EQUALVERIFY OP_CHECKSIG",
            "hex": "76a9140a5a66d6e0863d64d2e45899ceb5cb7031570ed388ac",
            "reqSigs": 1,
            "type": "pubkeyhash",
            "addresses": [
              "LLAhKMQfsBeQgPbJJM6kdqmsq69juYowXS"
            ]
          }
        }, 
        {
          "value": 33.54372704,
          "n": 1,
          "scriptPubKey": {
            "asm": "OP_DUP OP_HASH160 143716bb9ca27bc3fad4e020c8bcc44d4de2e2e4 OP_EQUALVERIFY OP_CHECKSIG",
            "hex": "76a914143716bb9ca27bc3fad4e020c8bcc44d4de2e2e488ac",
            "reqSigs": 1,
            "type": "pubkeyhash",
            "addresses": [
              "LM4qmgmrdTjSvg5qywgvEKuCLxLKQQ3kU5"
            ]
          }
        }
      ],
      "hex": "0100000001180f182a8712273bf3326d35a2a852ade8bcdcadde087b93c737746d7f402a470000000069463043021f73e05615fe6b2789db636d03df082aff3217bce81feeff742cad2f393b2b8302206c132fcbed8170aceb90160b3341c1c24cd1592ec165c34b618d087c98f53ae901210222b21fe88cf8ebb71a51098f46fab1db5b2546d519b0b1cc0a21dadf2ce27022ffffffff02ba3c9407000000001976a9140a5a66d6e0863d64d2e45899ceb5cb7031570ed388ac60aaefc7000000001976a914143716bb9ca27bc3fad4e020c8bcc44d4de2e2e488ac00000000"
    }, 
    {
      "txid": "04df9a0d34d13ea2cbfe9377202f9fdc712cb65f08ee7d4525493b8cc86d7814",
      "hash": "04df9a0d34d13ea2cbfe9377202f9fdc712cb65f08ee7d4525493b8cc86d7814",
      "version": 1,
      "size": 226,
      "vsize": 226,
      "locktime": 0,
      "vin": [
        {
          "txid": "a5f48c7c97e7761e83a4bff75e6565689f0587a732597e0acfdbac49d10bc986",
          "vout": 1,
          "scriptSig": {
            "asm": "30450221008d1ff6383e40e7190a3b84ba5b59f666e606cefc78230eaaa4ddd81e60d6a6e402205e8d9025027b374474aa2a2fce102c94d1c0ba81800742f7b38a60647eb37242[ALL] 03001df0da5b4d69ae44c363f3c4da8304c3cd6e0e49db08cc34f021c9186fee37",
            "hex": "4830450221008d1ff6383e40e7190a3b84ba5b59f666e606cefc78230eaaa4ddd81e60d6a6e402205e8d9025027b374474aa2a2fce102c94d1c0ba81800742f7b38a60647eb37242012103001df0da5b4d69ae44c363f3c4da8304c3cd6e0e49db08cc34f021c9186fee37"
          },
          "sequence": 4294967295
        }
      ],
      "vout": [
        {
          "value": 0.29465705,
          "n": 0,
          "scriptPubKey": {
            "asm": "OP_DUP OP_HASH160 6c58f61b09f685a79bd7f6da1514b2902520daa7 OP_EQUALVERIFY OP_CHECKSIG",
            "hex": "76a9146c58f61b09f685a79bd7f6da1514b2902520daa788ac",
            "reqSigs": 1,
            "type": "pubkeyhash",
            "addresses": [
              "LV6qp5E4YtJdHqQHz7prpsWpmJRNw3C6ay"
            ]
          }
        }, 
        {
          "value": 0.01398287,
          "n": 1,
          "scriptPubKey": {
            "asm": "OP_DUP OP_HASH160 a19e7ee2f780bd9c021c87d135cd3a944c59a643 OP_EQUALVERIFY OP_CHECKSIG",
            "hex": "76a914a19e7ee2f780bd9c021c87d135cd3a944c59a64388ac",
            "reqSigs": 1,
            "type": "pubkeyhash",
            "addresses": [
              "LZxWvZvyY3k8RhfvXpHbV7kJe9JD6JRJ26"
            ]
          }
        }
      ],
      "hex": "010000000186c90bd149acdbcf0a7e5932a787059f6865655ef7bfa4831e76e7977c8cf4a5010000006b4830450221008d1ff6383e40e7190a3b84ba5b59f666e606cefc78230eaaa4ddd81e60d6a6e402205e8d9025027b374474aa2a2fce102c94d1c0ba81800742f7b38a60647eb37242012103001df0da5b4d69ae44c363f3c4da8304c3cd6e0e49db08cc34f021c9186fee37ffffffff02699cc101000000001976a9146c58f61b09f685a79bd7f6da1514b2902520daa788ac0f561500000000001976a914a19e7ee2f780bd9c021c87d135cd3a944c59a64388ac00000000"
    }, 
    {
      "txid": "b6d595ed7c53ff642db8fa40de92e76d89916cf02be2c06629b451591a7af534",
      "hash": "b6d595ed7c53ff642db8fa40de92e76d89916cf02be2c06629b451591a7af534",
      "version": 1,
      "size": 226,
      "vsize": 226,
      "locktime": 0,
      "vin": [
        {
          "txid": "762ff7dff8f97ed12deca1b36d2da2d5868a8d5bc6aa82fb1f0f72211e057a0b",
          "vout": 471,
          "scriptSig": {
            "asm": "3045022100d2c6fb1281692959e99550cf93017c73cc1389ed8c0f79b0b28ab3d842ee309402203fa163aeed1e589b16413ad748628959b4335e8d21ec2a056b724f00dcd7b37d[ALL] 03835dad9546cd3612e2bafa2b882b7a9e823a76b2dc9b6d17a4663708cf0f43e3",
            "hex": "483045022100d2c6fb1281692959e99550cf93017c73cc1389ed8c0f79b0b28ab3d842ee309402203fa163aeed1e589b16413ad748628959b4335e8d21ec2a056b724f00dcd7b37d012103835dad9546cd3612e2bafa2b882b7a9e823a76b2dc9b6d17a4663708cf0f43e3"
          },
          "sequence": 4294967295
        }
      ],
      "vout": [
        {
          "value": 0.06683928,
          "n": 0,
          "scriptPubKey": {
            "asm": "OP_DUP OP_HASH160 78e3638a665a44f31eba564ec0c1e6da793b8a36 OP_EQUALVERIFY OP_CHECKSIG",
            "hex": "76a91478e3638a665a44f31eba564ec0c1e6da793b8a3688ac",
            "reqSigs": 1,
            "type": "pubkeyhash",
            "addresses": [
              "LWF9kV7nCyzQEs7Ub8z7caDqDX54tBkFVa"
            ]
          }
        }, 
        {
          "value": 0.00054921,
          "n": 1,
          "scriptPubKey": {
            "asm": "OP_DUP OP_HASH160 a240a66661ef6c186d744d0292a05286fc8cd18e OP_EQUALVERIFY OP_CHECKSIG",
            "hex": "76a914a240a66661ef6c186d744d0292a05286fc8cd18e88ac",
            "reqSigs": 1,
            "type": "pubkeyhash",
            "addresses": [
              "La1sBFUAjKDxhryQDgstMjrHovD9UidnTy"
            ]
          }
        }
      ],
      "hex": "01000000010b7a051e21720f1ffb82aac65b8d8a86d5a22d6db3a1ec2dd17ef9f8dff72f76d70100006b483045022100d2c6fb1281692959e99550cf93017c73cc1389ed8c0f79b0b28ab3d842ee309402203fa163aeed1e589b16413ad748628959b4335e8d21ec2a056b724f00dcd7b37d012103835dad9546cd3612e2bafa2b882b7a9e823a76b2dc9b6d17a4663708cf0f43e3ffffffff0218fd6500000000001976a91478e3638a665a44f31eba564ec0c1e6da793b8a3688ac89d60000000000001976a914a240a66661ef6c186d744d0292a05286fc8cd18e88ac00000000"
    }, 
    {
      "txid": "ba267995de123efec54d160655f0ce91a9d4cdad9a47392490c44a7636ab39ec",
      "hash": "ba267995de123efec54d160655f0ce91a9d4cdad9a47392490c44a7636ab39ec",
      "version": 1,
      "size": 339,
      "vsize": 339,
      "locktime": 0,
      "vin": [
        {
          "txid": "f1a58f14189044e0a78419a8e8f3eeb20aa406555d87d382d1c0ebb777f284e4",
          "vout": 3,
          "scriptSig": {
            "asm": "30450221009122154a1b94d506abb3daf1f501841d7413b784795a1f740df16c2deb7c607202207f53985af27f67902fc183e9fe861d07ffe0513a2e10583144a1c96f1e02b16f[ALL] 03311f069d9e670310ad36d0148ba13c1e1ba5d6386d07a2065ee244532f18cf1d",
            "hex": "4830450221009122154a1b94d506abb3daf1f501841d7413b784795a1f740df16c2deb7c607202207f53985af27f67902fc183e9fe861d07ffe0513a2e10583144a1c96f1e02b16f012103311f069d9e670310ad36d0148ba13c1e1ba5d6386d07a2065ee244532f18cf1d"
          },
          "sequence": 4294967295
        }, 
        {
          "txid": "62a9c22f60d7ce09e6f9b6e196021a6ff4b3486860a4835fbe7030ba2dc0341c",
          "vout": 0,
          "scriptSig": {
            "asm": "304402207fa44c9fea13076d4851493f795f603cbb7f9d6969cf67f043d7db3445a9025302202f7e6d2d8a47104b12434f7001cfd83d00426fbfb3b9b329d0b834a43a9fd22a[ALL] 02281091def2c9e180333fc7b938f1682b0e91fb95e52c9362d453bc81d35cf2f3",
            "hex": "47304402207fa44c9fea13076d4851493f795f603cbb7f9d6969cf67f043d7db3445a9025302202f7e6d2d8a47104b12434f7001cfd83d00426fbfb3b9b329d0b834a43a9fd22a012102281091def2c9e180333fc7b938f1682b0e91fb95e52c9362d453bc81d35cf2f3"
          },
          "sequence": 4294967295
        }
      ],
      "vout": [
        {
          "value": 3.33444900,
          "n": 0,
          "scriptPubKey": {
            "asm": "OP_DUP OP_HASH160 c5d3683c58e725e75ac6b12fe915d41b04d3ac79 OP_EQUALVERIFY OP_CHECKSIG",
            "hex": "76a914c5d3683c58e725e75ac6b12fe915d41b04d3ac7988ac",
            "reqSigs": 1,
            "type": "pubkeyhash",
            "addresses": [
              "LdFxdqAuVQFbWwzURyXDFTFJW7wQkU5PfF"
            ]
          }
        }
      ],
      "hex": "0100000002e484f277b7ebc0d182d3875d5506a40ab2eef3e8a81984a7e0449018148fa5f1030000006b4830450221009122154a1b94d506abb3daf1f501841d7413b784795a1f740df16c2deb7c607202207f53985af27f67902fc183e9fe861d07ffe0513a2e10583144a1c96f1e02b16f012103311f069d9e670310ad36d0148ba13c1e1ba5d6386d07a2065ee244532f18cf1dffffffff1c34c02dba3070be5f83a4606848b3f46f1a0296e1b6f9e609ced7602fc2a962000000006a47304402207fa44c9fea13076d4851493f795f603cbb7f9d6969cf67f043d7db3445a9025302202f7e6d2d8a47104b12434f7001cfd83d00426fbfb3b9b329d0b834a43a9fd22a012102281091def2c9e180333fc7b938f1682b0e91fb95e52c9362d453bc81d35cf2f3ffffffff0124f7df13000000001976a914c5d3683c58e725e75ac6b12fe915d41b04d3ac7988ac00000000"
    }
  ],
  "time": 1517272507,
  "mediantime": 1517271743,
  "nonce": 2615138822,
  "bits": "1a042eae",
  "difficulty": 4011378.762614286,
  "chainwork": "000000000000000000000000000000000000000000000033f0c2d17e19c7a814",
  "previousblockhash": "b4f7e3bf1812ffeb2f64107679ff2bde173d24b6475b722db2a23f7643b1060b",
  "nextblockhash": "611877d706d8ff96a034fc9b1e17f8dab61bf088f7dc925ae803ddefee862040"
}
