{
  "hash": "34a1694ba5aa02a23ef32b6d01a173703d16b3aa2c3c936e0d1e910bc69f7146",
  "confirmations": 391,
  "strippedsize": 3622,
  "size": 3658,
  "weight": 14524,
  "height": 1360603,
  "version": 536870912,
  "versionHex": "20000000",
  "merkleroot": "9c954de1a86cb313982030f0939baf06d87969a6832c9d436522589542278d2e",
  "tx": [
    {
      "txid": "2a7a5f3e414fa095d2974755ad5033c53562f83fce588cbb629184bcf0cd977a",
      "hash": "683bc394358d80a9d26ccc2319a9c8e6708471f28ee156f6eeb6ec808e99ceac",
      "version": 1,
      "size": 251,
      "vsize": 224,
      "locktime": 0,
      "vin": [
        {
          "coinbase": "03dbc2140000000000fabe6d6db560509c43bab1e936acad7c992e8d81195dc54e896a49f0d8c631de6a58ef730100000000000000041c87725a0482aa5f080894aec8f0150000000a42570a6657042f42572f",
          "sequence": 4294967295
        }
      ],
      "vout": [
        {
          "value": 25.00811276,
          "n": 0,
          "scriptPubKey": {
            "asm": "OP_DUP OP_HASH160 5373bc9425fd49e6bfe522d3dfc85432da2cc023 OP_EQUALVERIFY OP_CHECKSIG",
            "hex": "76a9145373bc9425fd49e6bfe522d3dfc85432da2cc02388ac",
            "reqSigs": 1,
            "type": "pubkeyhash",
            "addresses": [
              "LSqCzf5bPfkqGf94pJcfxWx5bZMPJE5XRf"
            ]
          }
        }, 
        {
          "value": 0.00000000,
          "n": 1,
          "scriptPubKey": {
            "asm": "OP_RETURN aa21a9ed5a819837f529cc6f9da05e74f4ba088749e5c2c68180e39ca9fd5ce65f8023f5",
            "hex": "6a24aa21a9ed5a819837f529cc6f9da05e74f4ba088749e5c2c68180e39ca9fd5ce65f8023f5",
            "type": "nulldata"
          }
        }
      ],
      "hex": "010000000001010000000000000000000000000000000000000000000000000000000000000000ffffffff5303dbc2140000000000fabe6d6db560509c43bab1e936acad7c992e8d81195dc54e896a49f0d8c631de6a58ef730100000000000000041c87725a0482aa5f080894aec8f0150000000a42570a6657042f42572fffffffff020c5a0f95000000001976a9145373bc9425fd49e6bfe522d3dfc85432da2cc02388ac0000000000000000266a24aa21a9ed5a819837f529cc6f9da05e74f4ba088749e5c2c68180e39ca9fd5ce65f8023f50120000000000000000000000000000000000000000000000000000000000000000000000000"
    }, 
    {
      "txid": "8e00dd8c88a365b08e26fb56d8102bf6b60d443005a2088418fac9b3ad3d6609",
      "hash": "8e00dd8c88a365b08e26fb56d8102bf6b60d443005a2088418fac9b3ad3d6609",
      "version": 1,
      "size": 340,
      "vsize": 340,
      "locktime": 0,
      "vin": [
        {
          "txid": "c0faba54e9132ab1b9f25015c0242d851c57efb03b962a50d3d7a63bf38d9bc4",
          "vout": 0,
          "scriptSig": {
            "asm": "304502210098bb662bf09318b4e71c30a6ef071c40c77a34b0f8b68183f125427d6d16ed5c02200466ba4302fd59c465fb285dfbd641806be5af41abee7153db6dda9935bf1189[ALL] 023140ced8346f08389a242cd5df36c3f739fb78201650d530888c2b8e4bf4c3bd",
            "hex": "48304502210098bb662bf09318b4e71c30a6ef071c40c77a34b0f8b68183f125427d6d16ed5c02200466ba4302fd59c465fb285dfbd641806be5af41abee7153db6dda9935bf11890121023140ced8346f08389a242cd5df36c3f739fb78201650d530888c2b8e4bf4c3bd"
          },
          "sequence": 4294967295
        }, 
        {
          "txid": "351d7628a8981f769243ec25b9805940f01b65f196663f2ab9aca4f32e8c0419",
          "vout": 1,
          "scriptSig": {
            "asm": "3045022100880f45a881109f457bb388bf65706e100c4b7143d80fbc28250568dc2a69bebd0220086fcf754a190bf75f997ef61b12428c4a6bf32d29661656ce2207bc3184fa08[ALL] 023140ced8346f08389a242cd5df36c3f739fb78201650d530888c2b8e4bf4c3bd",
            "hex": "483045022100880f45a881109f457bb388bf65706e100c4b7143d80fbc28250568dc2a69bebd0220086fcf754a190bf75f997ef61b12428c4a6bf32d29661656ce2207bc3184fa080121023140ced8346f08389a242cd5df36c3f739fb78201650d530888c2b8e4bf4c3bd"
          },
          "sequence": 4294967295
        }
      ],
      "vout": [
        {
          "value": 9.44483534,
          "n": 0,
          "scriptPubKey": {
            "asm": "OP_DUP OP_HASH160 62faeb8c2fc4da312c4f7be98c0aed53558de589 OP_EQUALVERIFY OP_CHECKSIG",
            "hex": "76a91462faeb8c2fc4da312c4f7be98c0aed53558de58988ac",
            "reqSigs": 1,
            "type": "pubkeyhash",
            "addresses": [
              "LUFK5FHbTPqeZW6ohLAPANVBGsqn61jrbr"
            ]
          }
        }
      ],
      "hex": "0100000002c49b8df33ba6d7d3502a963bb0ef571c852d24c01550f2b9b12a13e954bafac0000000006b48304502210098bb662bf09318b4e71c30a6ef071c40c77a34b0f8b68183f125427d6d16ed5c02200466ba4302fd59c465fb285dfbd641806be5af41abee7153db6dda9935bf11890121023140ced8346f08389a242cd5df36c3f739fb78201650d530888c2b8e4bf4c3bdffffffff19048c2ef3a4acb92a3f6696f1651bf0405980b925ec4392761f98a828761d35010000006b483045022100880f45a881109f457bb388bf65706e100c4b7143d80fbc28250568dc2a69bebd0220086fcf754a190bf75f997ef61b12428c4a6bf32d29661656ce2207bc3184fa080121023140ced8346f08389a242cd5df36c3f739fb78201650d530888c2b8e4bf4c3bdffffffff01ceac4b38000000001976a91462faeb8c2fc4da312c4f7be98c0aed53558de58988ac00000000"
    }, 
    {
      "txid": "ad8df7d09f864c4093943e3dec8c967b006818731f824d5c1f9d81875c8463fc",
      "hash": "ad8df7d09f864c4093943e3dec8c967b006818731f824d5c1f9d81875c8463fc",
      "version": 1,
      "size": 226,
      "vsize": 226,
      "locktime": 0,
      "vin": [
        {
          "txid": "d4122cf05d57ec979ecc01f0b3216949b86605e9df32c53ad9187ff29a3d06eb",
          "vout": 0,
          "scriptSig": {
            "asm": "3045022100d9cecb303aad3622049d2d6e7a68c3aa3e5a2c845e3c3bcbb6f30c9cce7c6ce9022062d9ae444a61218d3cb8e9382b02a7a2a2a88cc3fb2b4292be5c635a445b9500[ALL] 03b7639a29b7e3b06677cfaf12c02b1f3aae8458ead0bb3078267e276781a422cd",
            "hex": "483045022100d9cecb303aad3622049d2d6e7a68c3aa3e5a2c845e3c3bcbb6f30c9cce7c6ce9022062d9ae444a61218d3cb8e9382b02a7a2a2a88cc3fb2b4292be5c635a445b9500012103b7639a29b7e3b06677cfaf12c02b1f3aae8458ead0bb3078267e276781a422cd"
          },
          "sequence": 4294967295
        }
      ],
      "vout": [
        {
          "value": 3.99000000,
          "n": 0,
          "scriptPubKey": {
            "asm": "OP_DUP OP_HASH160 48e7adf966905dc719a6287b35e48ed93e3d24bf OP_EQUALVERIFY OP_CHECKSIG",
            "hex": "76a91448e7adf966905dc719a6287b35e48ed93e3d24bf88ac",
            "reqSigs": 1,
            "type": "pubkeyhash",
            "addresses": [
              "LRsSTQRfZPrS1qp82U2HaMT7zW8Cu7Mnng"
            ]
          }
        }, 
        {
          "value": 0.45119346,
          "n": 1,
          "scriptPubKey": {
            "asm": "OP_DUP OP_HASH160 f9871c6dd621879729cd7d502a5af822501cf2aa OP_EQUALVERIFY OP_CHECKSIG",
            "hex": "76a914f9871c6dd621879729cd7d502a5af822501cf2aa88ac",
            "reqSigs": 1,
            "type": "pubkeyhash",
            "addresses": [
              "LhyLNfBkoKshT7R8Pce6vkB9T2cP2o84hx"
            ]
          }
        }
      ],
      "hex": "0100000001eb063d9af27f18d93ac532dfe90566b8496921b3f001cc9e97ec575df02c12d4000000006b483045022100d9cecb303aad3622049d2d6e7a68c3aa3e5a2c845e3c3bcbb6f30c9cce7c6ce9022062d9ae444a61218d3cb8e9382b02a7a2a2a88cc3fb2b4292be5c635a445b9500012103b7639a29b7e3b06677cfaf12c02b1f3aae8458ead0bb3078267e276781a422cdffffffff02c041c817000000001976a91448e7adf966905dc719a6287b35e48ed93e3d24bf88ac7277b002000000001976a914f9871c6dd621879729cd7d502a5af822501cf2aa88ac00000000"
    }, 
    {
      "txid": "1ea2787b5236003f46bb9fe288f3f4102f856b019bbd4f712dfa687230041259",
      "hash": "1ea2787b5236003f46bb9fe288f3f4102f856b019bbd4f712dfa687230041259",
      "version": 1,
      "size": 226,
      "vsize": 226,
      "locktime": 0,
      "vin": [
        {
          "txid": "a48599d3f3d83d193fc3b71a1e0028e9bc134741429cc486dfd722e9bb58595d",
          "vout": 1,
          "scriptSig": {
            "asm": "304502210097fca854ba2df19e2a0d715a83d1b2c70139ebd6312c3be8a83e80d42216fda002203c89df60be93a60acc493f16be96a23a6215b3f2ff45743251b60deb09655338[ALL] 03ef6d9503398ec0029f84d2f1aed0325e2986f214d3e1a91d8b8225ae571e2f84",
            "hex": "48304502210097fca854ba2df19e2a0d715a83d1b2c70139ebd6312c3be8a83e80d42216fda002203c89df60be93a60acc493f16be96a23a6215b3f2ff45743251b60deb09655338012103ef6d9503398ec0029f84d2f1aed0325e2986f214d3e1a91d8b8225ae571e2f84"
          },
          "sequence": 4294967295
        }
      ],
      "vout": [
        {
          "value": 5.75970100,
          "n": 0,
          "scriptPubKey": {
            "asm": "OP_DUP OP_HASH160 65e218a46f0b78804707232aadbaef863df99d75 OP_EQUALVERIFY OP_CHECKSIG",
            "hex": "76a91465e218a46f0b78804707232aadbaef863df99d7588ac",
            "reqSigs": 1,
            "type": "pubkeyhash",
            "addresses": [
              "LUWfN2mnLagY5Fr6wFjatoPcxm2y298L4c"
            ]
          }
        }, 
        {
          "value": 8.00000000,
          "n": 1,
          "scriptPubKey": {
            "asm": "OP_DUP OP_HASH160 ca63ed0f9a82eff948d8092e5ab2d75549566e02 OP_EQUALVERIFY OP_CHECKSIG",
            "hex": "76a914ca63ed0f9a82eff948d8092e5ab2d75549566e0288ac",
            "reqSigs": 1,
            "type": "pubkeyhash",
            "addresses": [
              "Ldg6Twiszvbw1FeGKYfFRVTsMnzeQiaxo4"
            ]
          }
        }
      ],
      "hex": "01000000015d5958bbe922d7df86c49c42414713bce928001e1ab7c33f193dd8f3d39985a4010000006b48304502210097fca854ba2df19e2a0d715a83d1b2c70139ebd6312c3be8a83e80d42216fda002203c89df60be93a60acc493f16be96a23a6215b3f2ff45743251b60deb09655338012103ef6d9503398ec0029f84d2f1aed0325e2986f214d3e1a91d8b8225ae571e2f84ffffffff02349b5422000000001976a91465e218a46f0b78804707232aadbaef863df99d7588ac0008af2f000000001976a914ca63ed0f9a82eff948d8092e5ab2d75549566e0288ac00000000"
    }, 
    {
      "txid": "44f87b44ce30b963064308629aa991475474e8fa84512de1d8f6948a32f7deaa",
      "hash": "44f87b44ce30b963064308629aa991475474e8fa84512de1d8f6948a32f7deaa",
      "version": 1,
      "size": 223,
      "vsize": 223,
      "locktime": 1360600,
      "vin": [
        {
          "txid": "da8bc30b67025ed87b5c4c80340e8fa276bb10088a2d906fec717f28edd9f5fa",
          "vout": 0,
          "scriptSig": {
            "asm": "304402206dcbff57d70f6698da4e704a21297f6e5c96f18930b03a32d11fec614a1d84c102201f8f6a4bd81bbf83142676112acda48f233b5f20c8fe6d97b32f493761de9c7a[ALL] 038b4524a3d4a40b9b69fb78ea6a669c8755b4795d2a57532c0ee88841ad643fff",
            "hex": "47304402206dcbff57d70f6698da4e704a21297f6e5c96f18930b03a32d11fec614a1d84c102201f8f6a4bd81bbf83142676112acda48f233b5f20c8fe6d97b32f493761de9c7a0121038b4524a3d4a40b9b69fb78ea6a669c8755b4795d2a57532c0ee88841ad643fff"
          },
          "sequence": 4294967294
        }
      ],
      "vout": [
        {
          "value": 0.07924347,
          "n": 0,
          "scriptPubKey": {
            "asm": "OP_DUP OP_HASH160 ade9c96dac0ba1d18b0f58ff7255c9434629ef3f OP_EQUALVERIFY OP_CHECKSIG",
            "hex": "76a914ade9c96dac0ba1d18b0f58ff7255c9434629ef3f88ac",
            "reqSigs": 1,
            "type": "pubkeyhash",
            "addresses": [
              "Lb5XECAmqTxGaWXHCQd9xAq95GvQMw91tJ"
            ]
          }
        }, 
        {
          "value": 0.50000000,
          "n": 1,
          "scriptPubKey": {
            "asm": "OP_HASH160 ad4fb48e7d9639f9b5698a3eabe9b7cb00d9ff24 OP_EQUAL",
            "hex": "a914ad4fb48e7d9639f9b5698a3eabe9b7cb00d9ff2487",
            "reqSigs": 1,
            "type": "scripthash",
            "addresses": [
              "MPhYcdxvMr1W6JXGr4qQkDaH8CSUgGBWSY"
            ]
          }
        }
      ],
      "hex": "0100000001faf5d9ed287f71ec6f902d8a0810bb76a28f0e34804c5c7bd85e02670bc38bda000000006a47304402206dcbff57d70f6698da4e704a21297f6e5c96f18930b03a32d11fec614a1d84c102201f8f6a4bd81bbf83142676112acda48f233b5f20c8fe6d97b32f493761de9c7a0121038b4524a3d4a40b9b69fb78ea6a669c8755b4795d2a57532c0ee88841ad643ffffeffffff027bea7800000000001976a914ade9c96dac0ba1d18b0f58ff7255c9434629ef3f88ac80f0fa020000000017a914ad4fb48e7d9639f9b5698a3eabe9b7cb00d9ff2487d8c21400"
    }, 
    {
      "txid": "dac01b5ac478cff84afd5ff32519153d0886c4e259616fa17afc73bbb8e3fa13",
      "hash": "dac01b5ac478cff84afd5ff32519153d0886c4e259616fa17afc73bbb8e3fa13",
      "version": 1,
      "size": 293,
      "vsize": 293,
      "locktime": 0,
      "vin": [
        {
          "txid": "9f530640dddd3d3f7444f921179cd5c009a78f6b69886bb611efe8c56f57a4d9",
          "vout": 0,
          "scriptSig": {
            "asm": "304402204fc06140241e513bcd0053845ca2fa8464497905bf2b2801ad780c8dac44602a02205dd95fc7b76c02b91b0370b1bada38ae7d5a4c8e0b81cf25e25febda538c7e70[ALL] 0384afffc71bfcd63a9560f34da5519f3ff748ca2690c8ffa25ebc39622aae48a1",
            "hex": "47304402204fc06140241e513bcd0053845ca2fa8464497905bf2b2801ad780c8dac44602a02205dd95fc7b76c02b91b0370b1bada38ae7d5a4c8e0b81cf25e25febda538c7e7001210384afffc71bfcd63a9560f34da5519f3ff748ca2690c8ffa25ebc39622aae48a1"
          },
          "sequence": 4294967295
        }
      ],
      "vout": [
        {
          "value": 0.87752500,
          "n": 0,
          "scriptPubKey": {
            "asm": "OP_DUP OP_HASH160 de79955dddfbe9bbd6819d1f05a3f0f7db703057 OP_EQUALVERIFY OP_CHECKSIG",
            "hex": "76a914de79955dddfbe9bbd6819d1f05a3f0f7db70305788ac",
            "reqSigs": 1,
            "type": "pubkeyhash",
            "addresses": [
              "LfWHvZp192y2fVQC9zv8cEZYxkqX1myXMd"
            ]
          }
        }, 
        {
          "value": 0.91090714,
          "n": 1,
          "scriptPubKey": {
            "asm": "OP_DUP OP_HASH160 393049857d78895f95d0a0e3a1d9847fe674db7a OP_EQUALVERIFY OP_CHECKSIG",
            "hex": "76a914393049857d78895f95d0a0e3a1d9847fe674db7a88ac",
            "reqSigs": 1,
            "type": "pubkeyhash",
            "addresses": [
              "LQSLdCaDNXFsZWKPYZYWzWTV8nUHsHZLL3"
            ]
          }
        }, 
        {
          "value": 0.88786099,
          "n": 2,
          "scriptPubKey": {
            "asm": "OP_DUP OP_HASH160 8ac4db564843bfc1cd6a7ecbbcfd91b3bab1799c OP_EQUALVERIFY OP_CHECKSIG",
            "hex": "76a9148ac4db564843bfc1cd6a7ecbbcfd91b3bab1799c88ac",
            "reqSigs": 1,
            "type": "pubkeyhash",
            "addresses": [
              "LXshLXyU2fDHsP8DZXGjC1PpaqaAu8WMpT"
            ]
          }
        }, 
        {
          "value": 0.88786100,
          "n": 3,
          "scriptPubKey": {
            "asm": "OP_DUP OP_HASH160 62dfdcbe4dd3fad03e3eba8cd81ae3b9051e5096 OP_EQUALVERIFY OP_CHECKSIG",
            "hex": "76a91462dfdcbe4dd3fad03e3eba8cd81ae3b9051e509688ac",
            "reqSigs": 1,
            "type": "pubkeyhash",
            "addresses": [
              "LUEkfEes29ejDfE6GoRasDPH1hfruoPCx4"
            ]
          }
        }
      ],
      "hex": "0100000001d9a4576fc5e8ef11b66b88696b8fa709c0d59c1721f944743f3ddddd4006539f000000006a47304402204fc06140241e513bcd0053845ca2fa8464497905bf2b2801ad780c8dac44602a02205dd95fc7b76c02b91b0370b1bada38ae7d5a4c8e0b81cf25e25febda538c7e7001210384afffc71bfcd63a9560f34da5519f3ff748ca2690c8ffa25ebc39622aae48a1ffffffff0434ff3a05000000001976a914de79955dddfbe9bbd6819d1f05a3f0f7db70305788ac1aef6d05000000001976a914393049857d78895f95d0a0e3a1d9847fe674db7a88acb3c44a05000000001976a9148ac4db564843bfc1cd6a7ecbbcfd91b3bab1799c88acb4c44a05000000001976a91462dfdcbe4dd3fad03e3eba8cd81ae3b9051e509688ac00000000"
    }, 
    {
      "txid": "62d08cd0247c264fe5003b672ee763e90e61d2720edb73b35df168127a4b45a3",
      "hash": "62d08cd0247c264fe5003b672ee763e90e61d2720edb73b35df168127a4b45a3",
      "version": 2,
      "size": 667,
      "vsize": 667,
      "locktime": 1360600,
      "vin": [
        {
          "txid": "5ccdec1a28a5a7f4ca10e0cc5fdfd802dac3e185db61ca4985121aabf8c14526",
          "vout": 0,
          "scriptSig": {
            "asm": "3045022100d06708ea5416e6302e04b74980088ac8fba0d9bcc906d3addfc1e4869776485002206226e05f9b054566abdcf1a2aeec640d9c42a02fa49ca0a9c3ab21a685626635[ALL] 02e279d2fbcff5e94ed591f49e0760d01fcc5d2fdcceca7f0d5f9449eca1574651",
            "hex": "483045022100d06708ea5416e6302e04b74980088ac8fba0d9bcc906d3addfc1e4869776485002206226e05f9b054566abdcf1a2aeec640d9c42a02fa49ca0a9c3ab21a685626635012102e279d2fbcff5e94ed591f49e0760d01fcc5d2fdcceca7f0d5f9449eca1574651"
          },
          "sequence": 4294967294
        }, 
        {
          "txid": "3f7f80f601df066ee0db8517022268bce422354c567ff58398694de117498537",
          "vout": 1,
          "scriptSig": {
            "asm": "304402202d8a3f1b5c47c66b08f411b3cebebc0248235420eff39bd1ab6b20bab7a56b7b02204b6ba3b4bcbbd93cb0b3cab69fee766b85bf5a2757e3413b5b110d15b86082e8[ALL] 03f844ef9b4716d308649b38a3694f54c7e0b0720428b156e4998bbbc7c18dffe5",
            "hex": "47304402202d8a3f1b5c47c66b08f411b3cebebc0248235420eff39bd1ab6b20bab7a56b7b02204b6ba3b4bcbbd93cb0b3cab69fee766b85bf5a2757e3413b5b110d15b86082e8012103f844ef9b4716d308649b38a3694f54c7e0b0720428b156e4998bbbc7c18dffe5"
          },
          "sequence": 4294967294
        }, 
        {
          "txid": "fc7ce6fd3eea1b43f1176d08d94d22d5350874b41eb73a65d220b0c17a1119ae",
          "vout": 1,
          "scriptSig": {
            "asm": "304402205fee48b23bba2d05efd0aa40cdccd15e6a1507aaf3bfc66f7eaff3a66626900e0220453dcf531bd8304e142f49e7c34e859a81cabef9bc5e33bb8ca71539f7eaecb3[ALL] 0347f94060ea6ca2b62ba623fafcc85becf2a80aad5eb7d237f600dc6b3ad95dbe",
            "hex": "47304402205fee48b23bba2d05efd0aa40cdccd15e6a1507aaf3bfc66f7eaff3a66626900e0220453dcf531bd8304e142f49e7c34e859a81cabef9bc5e33bb8ca71539f7eaecb301210347f94060ea6ca2b62ba623fafcc85becf2a80aad5eb7d237f600dc6b3ad95dbe"
          },
          "sequence": 4294967294
        }, 
        {
          "txid": "16a0d61bbc806c085ad6e728ef80a9a33553d68c511b5aa1b2461fcd835493c6",
          "vout": 0,
          "scriptSig": {
            "asm": "304402200bd2ca826a4e9f7a25cebb126381180382b85d9e5c4964045078ef103ad9cca102206171a3c61a4c6013d1553f5844d177fa05b17132ada82b7bd7bd0e1e1a3188b1[ALL] 028f5f199663098b16227a12a4c2654cb45e2f5f1d8e4d26dc7a57ef5ae8ae455f",
            "hex": "47304402200bd2ca826a4e9f7a25cebb126381180382b85d9e5c4964045078ef103ad9cca102206171a3c61a4c6013d1553f5844d177fa05b17132ada82b7bd7bd0e1e1a3188b10121028f5f199663098b16227a12a4c2654cb45e2f5f1d8e4d26dc7a57ef5ae8ae455f"
          },
          "sequence": 4294967294
        }
      ],
      "vout": [
        {
          "value": 6.99661054,
          "n": 0,
          "scriptPubKey": {
            "asm": "OP_DUP OP_HASH160 d055743dade5a9c4ea2941690e385da34aaf02b8 OP_EQUALVERIFY OP_CHECKSIG",
            "hex": "76a914d055743dade5a9c4ea2941690e385da34aaf02b888ac",
            "reqSigs": 1,
            "type": "pubkeyhash",
            "addresses": [
              "LeDXBZoSnXqAZ8nGn4x41Zkfu2nmJcFRjt"
            ]
          }
        }, 
        {
          "value": 0.01028710,
          "n": 1,
          "scriptPubKey": {
            "asm": "OP_DUP OP_HASH160 8fc4d1ad969ec9dd46751df3ce5bb6c058b9d864 OP_EQUALVERIFY OP_CHECKSIG",
            "hex": "76a9148fc4d1ad969ec9dd46751df3ce5bb6c058b9d86488ac",
            "reqSigs": 1,
            "type": "pubkeyhash",
            "addresses": [
              "LYL8fsZAbKURKq3t8XsRVjWBdnyLLDCYGW"
            ]
          }
        }
      ],
      "hex": "02000000042645c1f8ab1a128549ca61db85e1c3da02d8df5fcce010caf4a7a5281aeccd5c000000006b483045022100d06708ea5416e6302e04b74980088ac8fba0d9bcc906d3addfc1e4869776485002206226e05f9b054566abdcf1a2aeec640d9c42a02fa49ca0a9c3ab21a685626635012102e279d2fbcff5e94ed591f49e0760d01fcc5d2fdcceca7f0d5f9449eca1574651feffffff37854917e14d699883f57f564c3522e4bc6822021785dbe06e06df01f6807f3f010000006a47304402202d8a3f1b5c47c66b08f411b3cebebc0248235420eff39bd1ab6b20bab7a56b7b02204b6ba3b4bcbbd93cb0b3cab69fee766b85bf5a2757e3413b5b110d15b86082e8012103f844ef9b4716d308649b38a3694f54c7e0b0720428b156e4998bbbc7c18dffe5feffffffae19117ac1b020d2653ab71eb4740835d5224dd9086d17f1431bea3efde67cfc010000006a47304402205fee48b23bba2d05efd0aa40cdccd15e6a1507aaf3bfc66f7eaff3a66626900e0220453dcf531bd8304e142f49e7c34e859a81cabef9bc5e33bb8ca71539f7eaecb301210347f94060ea6ca2b62ba623fafcc85becf2a80aad5eb7d237f600dc6b3ad95dbefeffffffc6935483cd1f46b2a15a1b518cd65335a3a980ef28e7d65a086c80bc1bd6a016000000006a47304402200bd2ca826a4e9f7a25cebb126381180382b85d9e5c4964045078ef103ad9cca102206171a3c61a4c6013d1553f5844d177fa05b17132ada82b7bd7bd0e1e1a3188b10121028f5f199663098b16227a12a4c2654cb45e2f5f1d8e4d26dc7a57ef5ae8ae455ffeffffff02fefab329000000001976a914d055743dade5a9c4ea2941690e385da34aaf02b888ac66b20f00000000001976a9148fc4d1ad969ec9dd46751df3ce5bb6c058b9d86488acd8c21400"
    }, 
    {
      "txid": "3a572d26e2607fb9ec0212b967bcbdebc548f7e4e95da9e300cd176ad865a50f",
      "hash": "3a572d26e2607fb9ec0212b967bcbdebc548f7e4e95da9e300cd176ad865a50f",
      "version": 1,
      "size": 225,
      "vsize": 225,
      "locktime": 0,
      "vin": [
        {
          "txid": "cd8724a490a6b864584cf33ff693b0ce7cabaac2909b263ca373f4e340360c0f",
          "vout": 69,
          "scriptSig": {
            "asm": "304402201320de4a74c3ff1f93e194a5ecfd589c04edbe79f697cf6b5cdc52a8c41f665d0220333f9b7f0ee2aed485ab33b163b9bbf6be8f7a999203e1467794a3bc668be7b8[ALL] 03890384d598c6e7f3793dd834e0f54992cb270fb98c4fd1b8774b70fdbe469561",
            "hex": "47304402201320de4a74c3ff1f93e194a5ecfd589c04edbe79f697cf6b5cdc52a8c41f665d0220333f9b7f0ee2aed485ab33b163b9bbf6be8f7a999203e1467794a3bc668be7b8012103890384d598c6e7f3793dd834e0f54992cb270fb98c4fd1b8774b70fdbe469561"
          },
          "sequence": 4294967295
        }
      ],
      "vout": [
        {
          "value": 0.16282130,
          "n": 0,
          "scriptPubKey": {
            "asm": "OP_DUP OP_HASH160 69972a98f5e658acc9cb8b6eeb5d6bef18cc8e2b OP_EQUALVERIFY OP_CHECKSIG",
            "hex": "76a91469972a98f5e658acc9cb8b6eeb5d6bef18cc8e2b88ac",
            "reqSigs": 1,
            "type": "pubkeyhash",
            "addresses": [
              "LUrGJadHitH9MBDsS6f66rZF5Kop3cXeVL"
            ]
          }
        }, 
        {
          "value": 0.00126654,
          "n": 1,
          "scriptPubKey": {
            "asm": "OP_DUP OP_HASH160 93f905cb3d53524e7d27ca697cbd7e3793067f8d OP_EQUALVERIFY OP_CHECKSIG",
            "hex": "76a91493f905cb3d53524e7d27ca697cbd7e3793067f8d88ac",
            "reqSigs": 1,
            "type": "pubkeyhash",
            "addresses": [
              "LYiMuop6BCvDf5Aqgnr9KDa2kYuB3n8Hbn"
            ]
          }
        }
      ],
      "hex": "01000000010f0c3640e3f473a33c269b90c2aaab7cceb093f63ff34c5864b8a690a42487cd450000006a47304402201320de4a74c3ff1f93e194a5ecfd589c04edbe79f697cf6b5cdc52a8c41f665d0220333f9b7f0ee2aed485ab33b163b9bbf6be8f7a999203e1467794a3bc668be7b8012103890384d598c6e7f3793dd834e0f54992cb270fb98c4fd1b8774b70fdbe469561ffffffff021272f800000000001976a91469972a98f5e658acc9cb8b6eeb5d6bef18cc8e2b88acbeee0100000000001976a91493f905cb3d53524e7d27ca697cbd7e3793067f8d88ac00000000"
    }, 
    {
      "txid": "7a230ba409a14afb31729fc0419104323b588e94aacbca7756b095098979a060",
      "hash": "7a230ba409a14afb31729fc0419104323b588e94aacbca7756b095098979a060",
      "version": 1,
      "size": 225,
      "vsize": 225,
      "locktime": 0,
      "vin": [
        {
          "txid": "2e9e6dc2e1164a0ee5aa95480e33af42fff0fa74d3d9eda557e3f3dc9e95ab02",
          "vout": 358,
          "scriptSig": {
            "asm": "30440220072baf2cadaa6dcd565dc3649589cf1d38a201bdf6545c9cd85120f99421f50002200a192c815ba653001e8e40bf435f68fda60274bc0ca8138d9d23bff65e7b5c40[ALL] 023b94e48c52add0476d5742f46bd2ae31def05619b50a3149aa9803158233e7fd",
            "hex": "4730440220072baf2cadaa6dcd565dc3649589cf1d38a201bdf6545c9cd85120f99421f50002200a192c815ba653001e8e40bf435f68fda60274bc0ca8138d9d23bff65e7b5c400121023b94e48c52add0476d5742f46bd2ae31def05619b50a3149aa9803158233e7fd"
          },
          "sequence": 4294967295
        }
      ],
      "vout": [
        {
          "value": 4.66566254,
          "n": 0,
          "scriptPubKey": {
            "asm": "OP_DUP OP_HASH160 20da36d8cf9ae30def3cfe2ba82227a8993a2c04 OP_EQUALVERIFY OP_CHECKSIG",
            "hex": "76a91420da36d8cf9ae30def3cfe2ba82227a8993a2c0488ac",
            "reqSigs": 1,
            "type": "pubkeyhash",
            "addresses": [
              "LNDfJ9Fw9TgHZUCA6y8NTdnmzKDQtaAkh6"
            ]
          }
        }, 
        {
          "value": 5.00000000,
          "n": 1,
          "scriptPubKey": {
            "asm": "OP_DUP OP_HASH160 b1d61bcb47ea07f66e20e5c579ed029151971847 OP_EQUALVERIFY OP_CHECKSIG",
            "hex": "76a914b1d61bcb47ea07f66e20e5c579ed02915197184788ac",
            "reqSigs": 1,
            "type": "pubkeyhash",
            "addresses": [
              "LbSGMh3jPyps1tX2NEZY6mf7D4DnizJQ2a"
            ]
          }
        }
      ],
      "hex": "010000000102ab959edcf3e357a5edd9d374faf0ff42af330e4895aae50e4a16e1c26d9e2e660100006a4730440220072baf2cadaa6dcd565dc3649589cf1d38a201bdf6545c9cd85120f99421f50002200a192c815ba653001e8e40bf435f68fda60274bc0ca8138d9d23bff65e7b5c400121023b94e48c52add0476d5742f46bd2ae31def05619b50a3149aa9803158233e7fdffffffff026e3ccf1b000000001976a91420da36d8cf9ae30def3cfe2ba82227a8993a2c0488ac0065cd1d000000001976a914b1d61bcb47ea07f66e20e5c579ed02915197184788ac00000000"
    }, 
    {
      "txid": "989e58e28242a6d64669aaba853399d49335295b7de8f22a6b359dfc151d1d65",
      "hash": "989e58e28242a6d64669aaba853399d49335295b7de8f22a6b359dfc151d1d65",
      "version": 1,
      "size": 225,
      "vsize": 225,
      "locktime": 0,
      "vin": [
        {
          "txid": "09849468f6d3caffad64aec0063efa5de27e531afcb03d184472c3b34fc3329a",
          "vout": 401,
          "scriptSig": {
            "asm": "3044022008b6f6c911e233ec1283284a6ffc6f8818fa28f78f71d51a1703ddf59248b9e4022023b41297ef608056c2514e1683eaccab20c6345560a28cdfddd368d98d7fc53c[ALL] 03077f7ce3acf46f6fd96da2b1369468b2a9f1b952d952b4b37b39994a4dc1839c",
            "hex": "473044022008b6f6c911e233ec1283284a6ffc6f8818fa28f78f71d51a1703ddf59248b9e4022023b41297ef608056c2514e1683eaccab20c6345560a28cdfddd368d98d7fc53c012103077f7ce3acf46f6fd96da2b1369468b2a9f1b952d952b4b37b39994a4dc1839c"
          },
          "sequence": 4294967295
        }
      ],
      "vout": [
        {
          "value": 0.29000000,
          "n": 0,
          "scriptPubKey": {
            "asm": "OP_DUP OP_HASH160 a62f03f6d2c41d5126203366eea2898c73a29b45 OP_EQUALVERIFY OP_CHECKSIG",
            "hex": "76a914a62f03f6d2c41d5126203366eea2898c73a29b4588ac",
            "reqSigs": 1,
            "type": "pubkeyhash",
            "addresses": [
              "LaNekkTM6Az3wdpQWFmK7EovJHAcHY5qD6"
            ]
          }
        }, 
        {
          "value": 0.00136397,
          "n": 1,
          "scriptPubKey": {
            "asm": "OP_DUP OP_HASH160 a37d575ad0593fccb9b4b97735bbfb177ab7fbc2 OP_EQUALVERIFY OP_CHECKSIG",
            "hex": "76a914a37d575ad0593fccb9b4b97735bbfb177ab7fbc288ac",
            "reqSigs": 1,
            "type": "pubkeyhash",
            "addresses": [
              "La8QZLpzt9cLpek3dJ2X9x4P4kk5sAFHp2"
            ]
          }
        }
      ],
      "hex": "01000000019a32c34fb3c37244183db0fc1a537ee25dfa3e06c0ae64adffcad3f668948409910100006a473044022008b6f6c911e233ec1283284a6ffc6f8818fa28f78f71d51a1703ddf59248b9e4022023b41297ef608056c2514e1683eaccab20c6345560a28cdfddd368d98d7fc53c012103077f7ce3acf46f6fd96da2b1369468b2a9f1b952d952b4b37b39994a4dc1839cffffffff024081ba01000000001976a914a62f03f6d2c41d5126203366eea2898c73a29b4588accd140200000000001976a914a37d575ad0593fccb9b4b97735bbfb177ab7fbc288ac00000000"
    }, 
    {
      "txid": "e76ceeb5a0567862e21530a4a5afe86923e0780560b421e6ae2c9db6f36a4587",
      "hash": "e76ceeb5a0567862e21530a4a5afe86923e0780560b421e6ae2c9db6f36a4587",
      "version": 1,
      "size": 225,
      "vsize": 225,
      "locktime": 0,
      "vin": [
        {
          "txid": "51bbd6ddcefa2dfa1928122e9097f875827a03e59acddb6aff5e4f99d59933bc",
          "vout": 107,
          "scriptSig": {
            "asm": "30440220589b79c88cf894ef3333aedc9836b957763597f9f3891c7d93225e153c17e41c0220575490919b0d9b7183050a723cf986590f91af0ae76239b38f3d52fb8d04c0af[ALL] 02014bba0aadf5a8ad82066ab558da4d9c38f397cd17b957f3cd1abee6ce8f404a",
            "hex": "4730440220589b79c88cf894ef3333aedc9836b957763597f9f3891c7d93225e153c17e41c0220575490919b0d9b7183050a723cf986590f91af0ae76239b38f3d52fb8d04c0af012102014bba0aadf5a8ad82066ab558da4d9c38f397cd17b957f3cd1abee6ce8f404a"
          },
          "sequence": 4294967295
        }
      ],
      "vout": [
        {
          "value": 0.52838535,
          "n": 0,
          "scriptPubKey": {
            "asm": "OP_DUP OP_HASH160 ae07c249f5f7aae7effa4fb97197b3598122ab53 OP_EQUALVERIFY OP_CHECKSIG",
            "hex": "76a914ae07c249f5f7aae7effa4fb97197b3598122ab5388ac",
            "reqSigs": 1,
            "type": "pubkeyhash",
            "addresses": [
              "Lb698h6kb2RcZZW6WPCjC44RBe7hqh9hfK"
            ]
          }
        }, 
        {
          "value": 0.03436302,
          "n": 1,
          "scriptPubKey": {
            "asm": "OP_DUP OP_HASH160 671909d75b7e4d0f365f6f4887fe15e1deb8b1db OP_EQUALVERIFY OP_CHECKSIG",
            "hex": "76a914671909d75b7e4d0f365f6f4887fe15e1deb8b1db88ac",
            "reqSigs": 1,
            "type": "pubkeyhash",
            "addresses": [
              "LUd5rfzHpNxuEYCARBWVe3JgEdY2megy8w"
            ]
          }
        }
      ],
      "hex": "0100000001bc3399d5994f5eff6adbcd9ae5037a8275f897902e122819fa2dfaceddd6bb516b0000006a4730440220589b79c88cf894ef3333aedc9836b957763597f9f3891c7d93225e153c17e41c0220575490919b0d9b7183050a723cf986590f91af0ae76239b38f3d52fb8d04c0af012102014bba0aadf5a8ad82066ab558da4d9c38f397cd17b957f3cd1abee6ce8f404affffffff0287402603000000001976a914ae07c249f5f7aae7effa4fb97197b3598122ab5388ac0e6f3400000000001976a914671909d75b7e4d0f365f6f4887fe15e1deb8b1db88ac00000000"
    }, 
    {
      "txid": "00d0170ccc8089b6af7f6011470469b2a4b2ed3a4b78008a80565c3f1d2b40b5",
      "hash": "00d0170ccc8089b6af7f6011470469b2a4b2ed3a4b78008a80565c3f1d2b40b5",
      "version": 1,
      "size": 225,
      "vsize": 225,
      "locktime": 0,
      "vin": [
        {
          "txid": "2e9e6dc2e1164a0ee5aa95480e33af42fff0fa74d3d9eda557e3f3dc9e95ab02",
          "vout": 275,
          "scriptSig": {
            "asm": "304402205b5583b0d98141cfe045194f1ec220e38fad19216ca6609c1642e4ae1020959202200940301c6623f3eba5d9e56b43a2fbb5f0a4a98230157652995b02abab5ad2d7[ALL] 0332be0430cddd4451a902e055cfff403cd6cf30f6eb8456dc0099d272726f9c4f",
            "hex": "47304402205b5583b0d98141cfe045194f1ec220e38fad19216ca6609c1642e4ae1020959202200940301c6623f3eba5d9e56b43a2fbb5f0a4a98230157652995b02abab5ad2d701210332be0430cddd4451a902e055cfff403cd6cf30f6eb8456dc0099d272726f9c4f"
          },
          "sequence": 4294967295
        }
      ],
      "vout": [
        {
          "value": 4.95167440,
          "n": 0,
          "scriptPubKey": {
            "asm": "OP_DUP OP_HASH160 d6c4103ebf4e3bbeec5a6f72a56ed044d18e10ec OP_EQUALVERIFY OP_CHECKSIG",
            "hex": "76a914d6c4103ebf4e3bbeec5a6f72a56ed044d18e10ec88ac",
            "reqSigs": 1,
            "type": "pubkeyhash",
            "addresses": [
              "LeoXjzXFkuCpXxUqc845bpoh4ujHRh1Ywv"
            ]
          }
        }, 
        {
          "value": 4.79050198,
          "n": 1,
          "scriptPubKey": {
            "asm": "OP_DUP OP_HASH160 ee8101900fc53580526ea72e611e8b3ccfeb7aa8 OP_EQUALVERIFY OP_CHECKSIG",
            "hex": "76a914ee8101900fc53580526ea72e611e8b3ccfeb7aa888ac",
            "reqSigs": 1,
            "type": "pubkeyhash",
            "addresses": [
              "Lgy3dNQhheDtNENpTz8scMwGUaVztHQy37"
            ]
          }
        }
      ],
      "hex": "010000000102ab959edcf3e357a5edd9d374faf0ff42af330e4895aae50e4a16e1c26d9e2e130100006a47304402205b5583b0d98141cfe045194f1ec220e38fad19216ca6609c1642e4ae1020959202200940301c6623f3eba5d9e56b43a2fbb5f0a4a98230157652995b02abab5ad2d701210332be0430cddd4451a902e055cfff403cd6cf30f6eb8456dc0099d272726f9c4fffffffff02d0a7831d000000001976a914d6c4103ebf4e3bbeec5a6f72a56ed044d18e10ec88acd6b98d1c000000001976a914ee8101900fc53580526ea72e611e8b3ccfeb7aa888ac00000000"
    }, 
    {
      "txid": "f92fca02a10e65fb2491ecc85ca0cb21952a43245a6d4a0afb8cf0e6e0f5d3bb",
      "hash": "f92fca02a10e65fb2491ecc85ca0cb21952a43245a6d4a0afb8cf0e6e0f5d3bb",
      "version": 1,
      "size": 226,
      "vsize": 226,
      "locktime": 0,
      "vin": [
        {
          "txid": "51bbd6ddcefa2dfa1928122e9097f875827a03e59acddb6aff5e4f99d59933bc",
          "vout": 12,
          "scriptSig": {
            "asm": "30450221008d5993a244ed56d6cb64df56646c2e3fe2210a4c2753d5774cd5fb29fb11b8a0022060ead6760d88f8217c0c96251ed84cb2109c88a35a090381be80f4efea40979c[ALL] 03b8eabfadeacae828ec6582b3cf6019e6f13bba3ab801231161dcff65f9e127b6",
            "hex": "4830450221008d5993a244ed56d6cb64df56646c2e3fe2210a4c2753d5774cd5fb29fb11b8a0022060ead6760d88f8217c0c96251ed84cb2109c88a35a090381be80f4efea40979c012103b8eabfadeacae828ec6582b3cf6019e6f13bba3ab801231161dcff65f9e127b6"
          },
          "sequence": 4294967295
        }
      ],
      "vout": [
        {
          "value": 0.76135901,
          "n": 0,
          "scriptPubKey": {
            "asm": "OP_DUP OP_HASH160 a44abe0a2b0ba21358ac0705d87f6814de925a75 OP_EQUALVERIFY OP_CHECKSIG",
            "hex": "76a914a44abe0a2b0ba21358ac0705d87f6814de925a7588ac",
            "reqSigs": 1,
            "type": "pubkeyhash",
            "addresses": [
              "LaCecrxjcokrEcmm6wHGKfVN7tkdebNQtA"
            ]
          }
        }, 
        {
          "value": 0.01015793,
          "n": 1,
          "scriptPubKey": {
            "asm": "OP_DUP OP_HASH160 2bc865cb835ecb1a2445e8513e5661416a740163 OP_EQUALVERIFY OP_CHECKSIG",
            "hex": "76a9142bc865cb835ecb1a2445e8513e5661416a74016388ac",
            "reqSigs": 1,
            "type": "pubkeyhash",
            "addresses": [
              "LPDTPLJXxSzmJPjwcjXPVPHjqsx4tPiWw3"
            ]
          }
        }
      ],
      "hex": "0100000001bc3399d5994f5eff6adbcd9ae5037a8275f897902e122819fa2dfaceddd6bb510c0000006b4830450221008d5993a244ed56d6cb64df56646c2e3fe2210a4c2753d5774cd5fb29fb11b8a0022060ead6760d88f8217c0c96251ed84cb2109c88a35a090381be80f4efea40979c012103b8eabfadeacae828ec6582b3cf6019e6f13bba3ab801231161dcff65f9e127b6ffffffff02ddbd8904000000001976a914a44abe0a2b0ba21358ac0705d87f6814de925a7588acf17f0f00000000001976a9142bc865cb835ecb1a2445e8513e5661416a74016388ac00000000"
    }
  ],
  "time": 1517455132,
  "mediantime": 1517454561,
  "nonce": 3527127644,
  "bits": "1a042eae",
  "difficulty": 4011378.762614286,
  "chainwork": "00000000000000000000000000000000000000000000003517cf9bbbf4ecbcb8",
  "previousblockhash": "836be19bb94e19f3f456730ffc32236363a6aeaaadf9e741f73ed3f76338c611",
  "nextblockhash": "b7a038c1b3035a29bb02380ed1f4ea89d3a3b25589ebbd1d317b3b77749fd037"
}
