{
  "hash": "34a449d0127bb469a4cde61bed46f629b94f13eca2eb76ea20241e867be6cd92",
  "confirmations": 3609,
  "strippedsize": 234,
  "size": 234,
  "weight": 936,
  "height": 1357386,
  "version": 536870912,
  "versionHex": "20000000",
  "merkleroot": "69c4d3267c400914bea6e257b97ed2631181fe84d17b7d71e2e6742d0e1624d2",
  "tx": [
    {
      "txid": "69c4d3267c400914bea6e257b97ed2631181fe84d17b7d71e2e6742d0e1624d2",
      "hash": "69c4d3267c400914bea6e257b97ed2631181fe84d17b7d71e2e6742d0e1624d2",
      "version": 1,
      "size": 153,
      "vsize": 153,
      "locktime": 0,
      "vin": [
        {
          "coinbase": "034ab614045a6b87a62cfabe6d6d0c7c7ea020c4fffaa281aec79a4a272021bfb8aee30c25faa090874c62fb6adb4000000000000000042f4c502f081600653c10000000",
          "sequence": 4294967295
        }
      ],
      "vout": [
        {
          "value": 25.00000000,
          "n": 0,
          "scriptPubKey": {
            "asm": "OP_DUP OP_HASH160 57757ed2ecf2052ff3126c397aca7defb9ca2cec OP_EQUALVERIFY OP_CHECKSIG",
            "hex": "76a91457757ed2ecf2052ff3126c397aca7defb9ca2cec88ac",
            "reqSigs": 1,
            "type": "pubkeyhash",
            "addresses": [
              "LTCPodGk5FwcJaRzH9yKnwicxzFUbxp6tN"
            ]
          }
        }
      ],
      "hex": "01000000010000000000000000000000000000000000000000000000000000000000000000ffffffff44034ab614045a6b87a62cfabe6d6d0c7c7ea020c4fffaa281aec79a4a272021bfb8aee30c25faa090874c62fb6adb4000000000000000042f4c502f081600653c10000000ffffffff0100f90295000000001976a91457757ed2ecf2052ff3126c397aca7defb9ca2cec88ac00000000"
    }
  ],
  "time": 1516996518,
  "mediantime": 1516996235,
  "nonce": 2129122324,
  "bits": "1a047f14",
  "difficulty": 3731199.183374282,
  "chainwork": "0000000000000000000000000000000000000000000000322df47f71b6e02a9e",
  "previousblockhash": "1ce8ee1e8a9db2be27f8ae9c5d873fd7c83d34915a9e45d684c2bf4c0206b917",
  "nextblockhash": "eb64208d3096f6bf35421de5ba581adf10be58dbea849e99e493248c89afc87b"
}
