{
  "hash": "34b3996ae8f0ac1dee62c218a03242476fda0eac95618210ed222d326e54e13e",
  "confirmations": 3484,
  "strippedsize": 234,
  "size": 234,
  "weight": 936,
  "height": 1357511,
  "version": 536870912,
  "versionHex": "20000000",
  "merkleroot": "fab8e6440ec20331c1d2e04fa089b6f0381c78c28d92f9f7088c803e7d894558",
  "tx": [
    {
      "txid": "fab8e6440ec20331c1d2e04fa089b6f0381c78c28d92f9f7088c803e7d894558",
      "hash": "fab8e6440ec20331c1d2e04fa089b6f0381c78c28d92f9f7088c803e7d894558",
      "version": 1,
      "size": 153,
      "vsize": 153,
      "locktime": 0,
      "vin": [
        {
          "coinbase": "03c7b614045a6bc0492cfabe6d6d369e923d6bef44c4969f2479799d9e51cbd26ea20242f56c427b7574ce86c4dd4000000000000000042f4c502f085c00764f1f310000",
          "sequence": 4294967295
        }
      ],
      "vout": [
        {
          "value": 25.00000000,
          "n": 0,
          "scriptPubKey": {
            "asm": "OP_DUP OP_HASH160 57757ed2ecf2052ff3126c397aca7defb9ca2cec OP_EQUALVERIFY OP_CHECKSIG",
            "hex": "76a91457757ed2ecf2052ff3126c397aca7defb9ca2cec88ac",
            "reqSigs": 1,
            "type": "pubkeyhash",
            "addresses": [
              "LTCPodGk5FwcJaRzH9yKnwicxzFUbxp6tN"
            ]
          }
        }
      ],
      "hex": "01000000010000000000000000000000000000000000000000000000000000000000000000ffffffff4403c7b614045a6bc0492cfabe6d6d369e923d6bef44c4969f2479799d9e51cbd26ea20242f56c427b7574ce86c4dd4000000000000000042f4c502f085c00764f1f310000ffffffff0100f90295000000001976a91457757ed2ecf2052ff3126c397aca7defb9ca2cec88ac00000000"
    }
  ],
  "time": 1517011017,
  "mediantime": 1517010697,
  "nonce": 370678107,
  "bits": "1a047f14",
  "difficulty": 3731199.183374282,
  "chainwork": "00000000000000000000000000000000000000000000003249c14dd871410350",
  "previousblockhash": "660cb7e7f8dc25bdede7e5f717689d9ae3dbf6c27f931b06f647b968d362ea9b",
  "nextblockhash": "513d13142f828408c4147fd1d9f1dd0bb4a381042e847e3b7b47a6000459bc7b"
}
