{
  "hash": "34fdf45c7a6229ae28da40d995d01e5742ddb4797e13aacc8cd0d75ef4eaf9c8",
  "confirmations": 897,
  "strippedsize": 234,
  "size": 234,
  "weight": 936,
  "height": 1360097,
  "version": 536870912,
  "versionHex": "20000000",
  "merkleroot": "7f6b5ff04aba321ffe417e974bb5a56ce7af92ba528146cfefc5050902837235",
  "tx": [
    {
      "txid": "7f6b5ff04aba321ffe417e974bb5a56ce7af92ba528146cfefc5050902837235",
      "hash": "7f6b5ff04aba321ffe417e974bb5a56ce7af92ba528146cfefc5050902837235",
      "version": 1,
      "size": 153,
      "vsize": 153,
      "locktime": 0,
      "vin": [
        {
          "coinbase": "03e1c014045a7146f32cfabe6d6d9a4a83d482d8dc3bc3d12bdd062fe83e6781b4b5d685f41491cd1ddb2992a9844000000000000000042f4c502f082200241d2e000000",
          "sequence": 4294967295
        }
      ],
      "vout": [
        {
          "value": 25.00000000,
          "n": 0,
          "scriptPubKey": {
            "asm": "OP_DUP OP_HASH160 57757ed2ecf2052ff3126c397aca7defb9ca2cec OP_EQUALVERIFY OP_CHECKSIG",
            "hex": "76a91457757ed2ecf2052ff3126c397aca7defb9ca2cec88ac",
            "reqSigs": 1,
            "type": "pubkeyhash",
            "addresses": [
              "LTCPodGk5FwcJaRzH9yKnwicxzFUbxp6tN"
            ]
          }
        }
      ],
      "hex": "01000000010000000000000000000000000000000000000000000000000000000000000000ffffffff4403e1c014045a7146f32cfabe6d6d9a4a83d482d8dc3bc3d12bdd062fe83e6781b4b5d685f41491cd1ddb2992a9844000000000000000042f4c502f082200241d2e000000ffffffff0100f90295000000001976a91457757ed2ecf2052ff3126c397aca7defb9ca2cec88ac00000000"
    }
  ],
  "time": 1517373171,
  "mediantime": 1517372733,
  "nonce": 3705153581,
  "bits": "1a042eae",
  "difficulty": 4011378.762614286,
  "chainwork": "0000000000000000000000000000000000000000000000349ed37de9f519b1c4",
  "previousblockhash": "d173cca0efe4d7c9976b9fa1aa355b803b5c943a5c4988961cb108f3411a1433",
  "nextblockhash": "d4e6664c6904a465843655fafaed982c754b68e06bfa5fab33548ced61bfe412"
}
