{
  "hash": "3501c97a4f6f5dea9c6fd6491c0424be727e3597c1331bf60f2b780fcc0d9ca0",
  "confirmations": 2937,
  "strippedsize": 255,
  "size": 255,
  "weight": 1020,
  "height": 1358058,
  "version": 536870912,
  "versionHex": "20000000",
  "merkleroot": "ec77b17826bb2dad58d76e09b027e5c03ecd33141a629d1bfbef6b68173ce977",
  "tx": [
    {
      "txid": "ec77b17826bb2dad58d76e09b027e5c03ecd33141a629d1bfbef6b68173ce977",
      "hash": "ec77b17826bb2dad58d76e09b027e5c03ecd33141a629d1bfbef6b68173ce977",
      "version": 1,
      "size": 174,
      "vsize": 174,
      "locktime": 0,
      "vin": [
        {
          "coinbase": "03eab8141c4d696e656420627920416e74506f6f6c20626a341e205a6cd6761001fabe6d6d8b9bb3ad3cddb90dc5f974bd145313ff5d4f504bc19825a17e2484a17220e0fb0400000000000000c2020000000000001f000000",
          "sequence": 4294967295
        }
      ],
      "vout": [
        {
          "value": 25.00000000,
          "n": 0,
          "scriptPubKey": {
            "asm": "OP_DUP OP_HASH160 0ff3ccc5e8be88afe24b5d634e5852d474dbdff1 OP_EQUALVERIFY OP_CHECKSIG",
            "hex": "76a9140ff3ccc5e8be88afe24b5d634e5852d474dbdff188ac",
            "reqSigs": 1,
            "type": "pubkeyhash",
            "addresses": [
              "LLgJTbzZMsRTCUF1NtvvL9SR1a4pVieW89"
            ]
          }
        }
      ],
      "hex": "01000000010000000000000000000000000000000000000000000000000000000000000000ffffffff5903eab8141c4d696e656420627920416e74506f6f6c20626a341e205a6cd6761001fabe6d6d8b9bb3ad3cddb90dc5f974bd145313ff5d4f504bc19825a17e2484a17220e0fb0400000000000000c2020000000000001f000000ffffffff0100f90295000000001976a9140ff3ccc5e8be88afe24b5d634e5852d474dbdff188ac00000000"
    }
  ],
  "time": 1517082230,
  "mediantime": 1517081969,
  "nonce": 2490017830,
  "bits": "1a047f14",
  "difficulty": 3731199.183374282,
  "chainwork": "000000000000000000000000000000000000000000000032c36872c0e46deede",
  "previousblockhash": "ee370bd0edf106621d1ba548946280dad652905ea5bd54939f07f9945c54b3ff",
  "nextblockhash": "8dc95e007747eb301e386f1c78e58042ba0522c5fb5b1598ea967c6a34dc84ef"
}
