{
  "hash": "35929592195bdb5349de7e7e232df8b07909f3f61d8e92040a10e161479034f1",
  "confirmations": 2662,
  "strippedsize": 2973,
  "size": 3009,
  "weight": 11928,
  "height": 1358333,
  "version": 536870912,
  "versionHex": "20000000",
  "merkleroot": "e2469801445ed3d62f701a7d630257e1b590e5d3f97b78836a48da9b4a55bbb2",
  "tx": [
    {
      "txid": "84f462d7241a09121e9571c39393fcf3b10eb71da9402b6b163581ce06a7b3a5",
      "hash": "b33f5a97257aa836679fae493715547b46ac81a3b79b06b692c2df283323ae7d",
      "version": 1,
      "size": 236,
      "vsize": 209,
      "locktime": 0,
      "vin": [
        {
          "coinbase": "03fdb914045a6d866e2cfabe6d6d83811d70805aa6cd7cc59ee8dd089f4194242c3b937fa1bd02a3ef19d97e501e4000000000000000042f4c502f0856004017ee010000",
          "sequence": 4294967295
        }
      ],
      "vout": [
        {
          "value": 25.01120300,
          "n": 0,
          "scriptPubKey": {
            "asm": "OP_DUP OP_HASH160 57757ed2ecf2052ff3126c397aca7defb9ca2cec OP_EQUALVERIFY OP_CHECKSIG",
            "hex": "76a91457757ed2ecf2052ff3126c397aca7defb9ca2cec88ac",
            "reqSigs": 1,
            "type": "pubkeyhash",
            "addresses": [
              "LTCPodGk5FwcJaRzH9yKnwicxzFUbxp6tN"
            ]
          }
        }, 
        {
          "value": 0.00000000,
          "n": 1,
          "scriptPubKey": {
            "asm": "OP_RETURN aa21a9ed7ac9090f5297b28b641307ce63bafca83d07612be0f138327753720fffe6a515",
            "hex": "6a24aa21a9ed7ac9090f5297b28b641307ce63bafca83d07612be0f138327753720fffe6a515",
            "type": "nulldata"
          }
        }
      ],
      "hex": "010000000001010000000000000000000000000000000000000000000000000000000000000000ffffffff4403fdb914045a6d866e2cfabe6d6d83811d70805aa6cd7cc59ee8dd089f4194242c3b937fa1bd02a3ef19d97e501e4000000000000000042f4c502f0856004017ee010000ffffffff022c111495000000001976a91457757ed2ecf2052ff3126c397aca7defb9ca2cec88ac0000000000000000266a24aa21a9ed7ac9090f5297b28b641307ce63bafca83d07612be0f138327753720fffe6a5150120000000000000000000000000000000000000000000000000000000000000000000000000"
    }, 
    {
      "txid": "85c33a945b657484a93f6e7ff2fb94a7d7fa7dbd707091811537a28c85ba4bcd",
      "hash": "85c33a945b657484a93f6e7ff2fb94a7d7fa7dbd707091811537a28c85ba4bcd",
      "version": 1,
      "size": 520,
      "vsize": 520,
      "locktime": 0,
      "vin": [
        {
          "txid": "503f4124ae55e719691ff92f78ca74e2449f5f1dbfe09de0fb991dbb590ecb2e",
          "vout": 4,
          "scriptSig": {
            "asm": "304402200e914234ac4c1df92d5fb562ad3fb0563a718a75a048f7f49ee43cb46615934b022074937a691fcbac1d2772ba4851dab2490599ff625dc7847d68451973c85c83f1[ALL] 0296c4bd38dcf02a1d21cde5ee05b21a6aa4a5cce1db16379d4f954e4a6d2212dc",
            "hex": "47304402200e914234ac4c1df92d5fb562ad3fb0563a718a75a048f7f49ee43cb46615934b022074937a691fcbac1d2772ba4851dab2490599ff625dc7847d68451973c85c83f101210296c4bd38dcf02a1d21cde5ee05b21a6aa4a5cce1db16379d4f954e4a6d2212dc"
          },
          "sequence": 4294967295
        }, 
        {
          "txid": "8d148ab95bcec5f490aa4cf5c8c88ab477e1cf2c5bc88f4b19a908d5c9d54124",
          "vout": 7,
          "scriptSig": {
            "asm": "3045022100e6dce4c3a6163399ff7f9a3cb335f8d8cce362c256cf225bd72a76004022ec3102200f62d3006d72396db9f6d696b046f82db39907a39931f3c6ff84b7e330fdfbae[ALL] 0296c4bd38dcf02a1d21cde5ee05b21a6aa4a5cce1db16379d4f954e4a6d2212dc",
            "hex": "483045022100e6dce4c3a6163399ff7f9a3cb335f8d8cce362c256cf225bd72a76004022ec3102200f62d3006d72396db9f6d696b046f82db39907a39931f3c6ff84b7e330fdfbae01210296c4bd38dcf02a1d21cde5ee05b21a6aa4a5cce1db16379d4f954e4a6d2212dc"
          },
          "sequence": 4294967295
        }, 
        {
          "txid": "69e4581a77ebb7d976e9a8e036be515f5af927045dbc1007a1a19fbbc1092f0c",
          "vout": 1,
          "scriptSig": {
            "asm": "3044022017e7c032b505b50aa0736d89f539084a821178e19df5b60bb3e1658d1ad3543002202d2c0e8f3bad6ce63e7f436a415797b3c473322f927edb9317033fd5fa437181[ALL] 0280908d4a11e77ba01fc1fcf4631f47baedc77405b4eaca9e53f6150cf2b02bfe",
            "hex": "473044022017e7c032b505b50aa0736d89f539084a821178e19df5b60bb3e1658d1ad3543002202d2c0e8f3bad6ce63e7f436a415797b3c473322f927edb9317033fd5fa43718101210280908d4a11e77ba01fc1fcf4631f47baedc77405b4eaca9e53f6150cf2b02bfe"
          },
          "sequence": 4294967295
        }
      ],
      "vout": [
        {
          "value": 0.45000000,
          "n": 0,
          "scriptPubKey": {
            "asm": "OP_DUP OP_HASH160 8d55c9f74f47a665b7c3e6ed5b48e63567f9754d OP_EQUALVERIFY OP_CHECKSIG",
            "hex": "76a9148d55c9f74f47a665b7c3e6ed5b48e63567f9754d88ac",
            "reqSigs": 1,
            "type": "pubkeyhash",
            "addresses": [
              "LY7GJypVD6hk9tW6PfLLJwgU5Sttx6UGpj"
            ]
          }
        }, 
        {
          "value": 0.21001453,
          "n": 1,
          "scriptPubKey": {
            "asm": "OP_DUP OP_HASH160 702e419b3052eb4f3b0e99420e2042a951d8ad75 OP_EQUALVERIFY OP_CHECKSIG",
            "hex": "76a914702e419b3052eb4f3b0e99420e2042a951d8ad7588ac",
            "reqSigs": 1,
            "type": "pubkeyhash",
            "addresses": [
              "LVT7Me6Dd7EsWVfC7KrnwK5gFmWUjhMb8T"
            ]
          }
        }
      ],
      "hex": "01000000032ecb0e59bb1d99fbe09de0bf1d5f9f44e274ca782ff91f6919e755ae24413f50040000006a47304402200e914234ac4c1df92d5fb562ad3fb0563a718a75a048f7f49ee43cb46615934b022074937a691fcbac1d2772ba4851dab2490599ff625dc7847d68451973c85c83f101210296c4bd38dcf02a1d21cde5ee05b21a6aa4a5cce1db16379d4f954e4a6d2212dcffffffff2441d5c9d508a9194b8fc85b2ccfe177b48ac8c8f54caa90f4c5ce5bb98a148d070000006b483045022100e6dce4c3a6163399ff7f9a3cb335f8d8cce362c256cf225bd72a76004022ec3102200f62d3006d72396db9f6d696b046f82db39907a39931f3c6ff84b7e330fdfbae01210296c4bd38dcf02a1d21cde5ee05b21a6aa4a5cce1db16379d4f954e4a6d2212dcffffffff0c2f09c1bb9fa1a10710bc5d0427f95a5f51be36e0a8e976d9b7eb771a58e469010000006a473044022017e7c032b505b50aa0736d89f539084a821178e19df5b60bb3e1658d1ad3543002202d2c0e8f3bad6ce63e7f436a415797b3c473322f927edb9317033fd5fa43718101210280908d4a11e77ba01fc1fcf4631f47baedc77405b4eaca9e53f6150cf2b02bfeffffffff0240a5ae02000000001976a9148d55c9f74f47a665b7c3e6ed5b48e63567f9754d88aced744001000000001976a914702e419b3052eb4f3b0e99420e2042a951d8ad7588ac00000000"
    }, 
    {
      "txid": "341808092a7481dd230eacd9807a11187492ff460e6ac85cb7b628c680c0a3a6",
      "hash": "341808092a7481dd230eacd9807a11187492ff460e6ac85cb7b628c680c0a3a6",
      "version": 1,
      "size": 374,
      "vsize": 374,
      "locktime": 0,
      "vin": [
        {
          "txid": "bcb419aba4c64eec7f753be731140c44c2e451e30cde9872ddfac47e7b76aa39",
          "vout": 0,
          "scriptSig": {
            "asm": "3045022100cc450bff149db652b5c53a4df6ef514aa04ae58647717860aacf77c8054c4d420220550cef3b49fb5c02113fdbdb25b1f7f342e12d7f44d76de37eed2e68e47a70b1[ALL] 03113d427808aac13880ab39076b0dace032fe8a7b9e967ac61499cfcfa1aab7a1",
            "hex": "483045022100cc450bff149db652b5c53a4df6ef514aa04ae58647717860aacf77c8054c4d420220550cef3b49fb5c02113fdbdb25b1f7f342e12d7f44d76de37eed2e68e47a70b1012103113d427808aac13880ab39076b0dace032fe8a7b9e967ac61499cfcfa1aab7a1"
          },
          "sequence": 4294967295
        }, 
        {
          "txid": "b40e150907ab679cc0c47dc5c57ca112fa4d126a73893a796b6bbe448a6bc0e8",
          "vout": 0,
          "scriptSig": {
            "asm": "3045022100a4fadca0b663a816cfca391dbf27cad660b2e84d2050a99bf1c74c82bc3d476602206742ebb4ab351146b8a62d7eaee5420b4353a6c24ae121b6a108770ab9a9b3ad[ALL] 03113d427808aac13880ab39076b0dace032fe8a7b9e967ac61499cfcfa1aab7a1",
            "hex": "483045022100a4fadca0b663a816cfca391dbf27cad660b2e84d2050a99bf1c74c82bc3d476602206742ebb4ab351146b8a62d7eaee5420b4353a6c24ae121b6a108770ab9a9b3ad012103113d427808aac13880ab39076b0dace032fe8a7b9e967ac61499cfcfa1aab7a1"
          },
          "sequence": 4294967295
        }
      ],
      "vout": [
        {
          "value": 3.79794911,
          "n": 0,
          "scriptPubKey": {
            "asm": "OP_DUP OP_HASH160 911fdd60c2de5a7199035a339cf17f0b6b5764a8 OP_EQUALVERIFY OP_CHECKSIG",
            "hex": "76a914911fdd60c2de5a7199035a339cf17f0b6b5764a888ac",
            "reqSigs": 1,
            "type": "pubkeyhash",
            "addresses": [
              "LYTJR2jCoXZGxSJ7hLJTZtzxZuTcdm1ada"
            ]
          }
        }, 
        {
          "value": 1.23139407,
          "n": 1,
          "scriptPubKey": {
            "asm": "OP_DUP OP_HASH160 5cbd982c659de75ac031b37da2ca0a25140b24fe OP_EQUALVERIFY OP_CHECKSIG",
            "hex": "76a9145cbd982c659de75ac031b37da2ca0a25140b24fe88ac",
            "reqSigs": 1,
            "type": "pubkeyhash",
            "addresses": [
              "LTgKZ7Wy6iKUhaYenTUpc2REXqaTFEXCxm"
            ]
          }
        }
      ],
      "hex": "010000000239aa767b7ec4fadd7298de0ce351e4c2440c1431e73b757fec4ec6a4ab19b4bc000000006b483045022100cc450bff149db652b5c53a4df6ef514aa04ae58647717860aacf77c8054c4d420220550cef3b49fb5c02113fdbdb25b1f7f342e12d7f44d76de37eed2e68e47a70b1012103113d427808aac13880ab39076b0dace032fe8a7b9e967ac61499cfcfa1aab7a1ffffffffe8c06b8a44be6b6b793a89736a124dfa12a17cc5c57dc4c09c67ab0709150eb4000000006b483045022100a4fadca0b663a816cfca391dbf27cad660b2e84d2050a99bf1c74c82bc3d476602206742ebb4ab351146b8a62d7eaee5420b4353a6c24ae121b6a108770ab9a9b3ad012103113d427808aac13880ab39076b0dace032fe8a7b9e967ac61499cfcfa1aab7a1ffffffff02df35a316000000001976a914911fdd60c2de5a7199035a339cf17f0b6b5764a888ac4ff55607000000001976a9145cbd982c659de75ac031b37da2ca0a25140b24fe88ac00000000"
    }, 
    {
      "txid": "7d43c5986e8175f709afd43d9e57a6203e349a9ed1fcb6ef1078d4cee775e187",
      "hash": "7d43c5986e8175f709afd43d9e57a6203e349a9ed1fcb6ef1078d4cee775e187",
      "version": 1,
      "size": 226,
      "vsize": 226,
      "locktime": 0,
      "vin": [
        {
          "txid": "824c2090b32f61920da3c4db0e775b33b97d0defe2acbaca25ba26c2bb225f81",
          "vout": 1,
          "scriptSig": {
            "asm": "3045022100c029d70455099ecd5be81a52ab1992484700a8b262f0543edc1ca48f8b1dfe950220459810851ead1f86ea7ac1dd0ad8706f483ee68e041d116e4f9f036203f2f766[ALL] 033da56038b08e439f989ecfdec9dca875bfc4f3689db30e5368b6db832593aaa4",
            "hex": "483045022100c029d70455099ecd5be81a52ab1992484700a8b262f0543edc1ca48f8b1dfe950220459810851ead1f86ea7ac1dd0ad8706f483ee68e041d116e4f9f036203f2f7660121033da56038b08e439f989ecfdec9dca875bfc4f3689db30e5368b6db832593aaa4"
          },
          "sequence": 4294967295
        }
      ],
      "vout": [
        {
          "value": 6.28481800,
          "n": 0,
          "scriptPubKey": {
            "asm": "OP_DUP OP_HASH160 41ff6710b7bc7168b701af894dcfb0b59c23b678 OP_EQUALVERIFY OP_CHECKSIG",
            "hex": "76a91441ff6710b7bc7168b701af894dcfb0b59c23b67888ac",
            "reqSigs": 1,
            "type": "pubkeyhash",
            "addresses": [
              "LREv9NALTBSQSAC7kWiiUZTa6WJXaUYvEs"
            ]
          }
        }, 
        {
          "value": 1.14398650,
          "n": 1,
          "scriptPubKey": {
            "asm": "OP_DUP OP_HASH160 876269fe258a4d40d6d7176bd4b65bc263c6b1e5 OP_EQUALVERIFY OP_CHECKSIG",
            "hex": "76a914876269fe258a4d40d6d7176bd4b65bc263c6b1e588ac",
            "reqSigs": 1,
            "type": "pubkeyhash",
            "addresses": [
              "LXZoP373CuaBD5hcHqy8msK8pLxX97qsmA"
            ]
          }
        }
      ],
      "hex": "0100000001815f22bbc226ba25cabaace2ef0d7db9335b770edbc4a30d92612fb390204c82010000006b483045022100c029d70455099ecd5be81a52ab1992484700a8b262f0543edc1ca48f8b1dfe950220459810851ead1f86ea7ac1dd0ad8706f483ee68e041d116e4f9f036203f2f7660121033da56038b08e439f989ecfdec9dca875bfc4f3689db30e5368b6db832593aaa4ffffffff0208df7525000000001976a91441ff6710b7bc7168b701af894dcfb0b59c23b67888acba95d106000000001976a914876269fe258a4d40d6d7176bd4b65bc263c6b1e588ac00000000"
    }, 
    {
      "txid": "628f3b3d355c9deb8ee52955377f2cd5a7680ca23034cd223e06e118de631793",
      "hash": "628f3b3d355c9deb8ee52955377f2cd5a7680ca23034cd223e06e118de631793",
      "version": 2,
      "size": 225,
      "vsize": 225,
      "locktime": 1358331,
      "vin": [
        {
          "txid": "fe5a8d119da944b34e56508bdf920de1b5efebe26a79f9d046cf10c493fe672f",
          "vout": 23,
          "scriptSig": {
            "asm": "304402205ae3b2bb0ffb10fa50d106826df03ba0835ee2a7f22ec59fd5c155f11c82754b022025f235b5a18a6a6de9f2e7f9c368272eac14ca4c10f11bc8fcccbc0cc1b8afa7[ALL] 03b3eb291ba9c7076b92f6e40351bc30392e770a1ca47768a0f2bbf388b71643b7",
            "hex": "47304402205ae3b2bb0ffb10fa50d106826df03ba0835ee2a7f22ec59fd5c155f11c82754b022025f235b5a18a6a6de9f2e7f9c368272eac14ca4c10f11bc8fcccbc0cc1b8afa7012103b3eb291ba9c7076b92f6e40351bc30392e770a1ca47768a0f2bbf388b71643b7"
          },
          "sequence": 4294967294
        }
      ],
      "vout": [
        {
          "value": 50.00000000,
          "n": 0,
          "scriptPubKey": {
            "asm": "OP_DUP OP_HASH160 f98ce1b1e07197fb88ef7ae0779374aedcf0f97d OP_EQUALVERIFY OP_CHECKSIG",
            "hex": "76a914f98ce1b1e07197fb88ef7ae0779374aedcf0f97d88ac",
            "reqSigs": 1,
            "type": "pubkeyhash",
            "addresses": [
              "LhyTHc4krgcPb4TzymAk2w1f5sCmWxcrrX"
            ]
          }
        }, 
        {
          "value": 49.99966100,
          "n": 1,
          "scriptPubKey": {
            "asm": "OP_DUP OP_HASH160 1dbee8b8f107e2b299aad4d618ac10da99679bc6 OP_EQUALVERIFY OP_CHECKSIG",
            "hex": "76a9141dbee8b8f107e2b299aad4d618ac10da99679bc688ac",
            "reqSigs": 1,
            "type": "pubkeyhash",
            "addresses": [
              "LMwEZNUAYgz3xUdbo4fLZfeMgppNuBFV3w"
            ]
          }
        }
      ],
      "hex": "02000000012f67fe93c410cf46d0f9796ae2ebefb5e10d92df8b50564eb344a99d118d5afe170000006a47304402205ae3b2bb0ffb10fa50d106826df03ba0835ee2a7f22ec59fd5c155f11c82754b022025f235b5a18a6a6de9f2e7f9c368272eac14ca4c10f11bc8fcccbc0cc1b8afa7012103b3eb291ba9c7076b92f6e40351bc30392e770a1ca47768a0f2bbf388b71643b7feffffff0200f2052a010000001976a914f98ce1b1e07197fb88ef7ae0779374aedcf0f97d88ac946d052a010000001976a9141dbee8b8f107e2b299aad4d618ac10da99679bc688acfbb91400"
    }, 
    {
      "txid": "1a22f607f5ac34bc82f805128703ab4cddf0acd3162e52fe989934ff0bb2120b",
      "hash": "1a22f607f5ac34bc82f805128703ab4cddf0acd3162e52fe989934ff0bb2120b",
      "version": 1,
      "size": 223,
      "vsize": 223,
      "locktime": 0,
      "vin": [
        {
          "txid": "0841a0d14d727e598baf509fc779e138f2482471aebcfc56d7a09455dcdc173d",
          "vout": 1,
          "scriptSig": {
            "asm": "3044022051c7a0f9879d40b4f476d11520beccd6a0a792472d5927a8b90db8da09614d1d02204956a8dac30192625a5fc83a7e9f78e4aaadb94c4a5f6776d9980eb19cadc5eb[ALL] 039ee88cd575b94a9bff724916b7b61ffff5efedc3976a6d80a70b8fdd01ec5758",
            "hex": "473044022051c7a0f9879d40b4f476d11520beccd6a0a792472d5927a8b90db8da09614d1d02204956a8dac30192625a5fc83a7e9f78e4aaadb94c4a5f6776d9980eb19cadc5eb0121039ee88cd575b94a9bff724916b7b61ffff5efedc3976a6d80a70b8fdd01ec5758"
          },
          "sequence": 4294967295
        }
      ],
      "vout": [
        {
          "value": 26.87194546,
          "n": 0,
          "scriptPubKey": {
            "asm": "OP_DUP OP_HASH160 f4af9fbff1948360f3052058a19ded4d0c0a2276 OP_EQUALVERIFY OP_CHECKSIG",
            "hex": "76a914f4af9fbff1948360f3052058a19ded4d0c0a227688ac",
            "reqSigs": 1,
            "type": "pubkeyhash",
            "addresses": [
              "LhXjXbDCWBVTTeTSXuu2xKisv3axJHjZn6"
            ]
          }
        }, 
        {
          "value": 44.58955347,
          "n": 1,
          "scriptPubKey": {
            "asm": "OP_HASH160 ac2856d2b36c5e49f47ca916cd74dd0b78109165 OP_EQUAL",
            "hex": "a914ac2856d2b36c5e49f47ca916cd74dd0b7810916587",
            "reqSigs": 1,
            "type": "scripthash",
            "addresses": [
              "MPbSnEnV3tZLQ6WuyS7ARvUSD4EbjnGcQF"
            ]
          }
        }
      ],
      "hex": "01000000013d17dcdc5594a0d756fcbcae712448f238e179c79f50af8b597e724dd1a04108010000006a473044022051c7a0f9879d40b4f476d11520beccd6a0a792472d5927a8b90db8da09614d1d02204956a8dac30192625a5fc83a7e9f78e4aaadb94c4a5f6776d9980eb19cadc5eb0121039ee88cd575b94a9bff724916b7b61ffff5efedc3976a6d80a70b8fdd01ec5758ffffffff02b2552ba0000000001976a914f4af9fbff1948360f3052058a19ded4d0c0a227688ac5342c6090100000017a914ac2856d2b36c5e49f47ca916cd74dd0b781091658700000000"
    }, 
    {
      "txid": "c3c9d2ff98b6082927a29ac3387e07e29604a18d2d1a4b931185493df3643da8",
      "hash": "c3c9d2ff98b6082927a29ac3387e07e29604a18d2d1a4b931185493df3643da8",
      "version": 2,
      "size": 223,
      "vsize": 223,
      "locktime": 1358331,
      "vin": [
        {
          "txid": "a43826ce93611eb2e872444634a3ec1f529051445f6e10b31e3af529b21b1ec1",
          "vout": 75,
          "scriptSig": {
            "asm": "30440220443c9ef1419d64a0ed0aa1fe8918589e64aa50fc94f3b811a0964735235ef4890220028b3e50a0f699ceb761f8864973939c3315461fdbd31578a0adae0bf8ee1589[ALL] 035a1e15f9ee7ccab3be7a33924c3e90ad6e8b01f595ceac94b5af8a732f02f6ab",
            "hex": "4730440220443c9ef1419d64a0ed0aa1fe8918589e64aa50fc94f3b811a0964735235ef4890220028b3e50a0f699ceb761f8864973939c3315461fdbd31578a0adae0bf8ee15890121035a1e15f9ee7ccab3be7a33924c3e90ad6e8b01f595ceac94b5af8a732f02f6ab"
          },
          "sequence": 4294967294
        }
      ],
      "vout": [
        {
          "value": 0.05000000,
          "n": 0,
          "scriptPubKey": {
            "asm": "OP_HASH160 6fd45deaedda36532c0dcc42d4dfcc843794299e OP_EQUAL",
            "hex": "a9146fd45deaedda36532c0dcc42d4dfcc843794299e87",
            "reqSigs": 1,
            "type": "scripthash",
            "addresses": [
              "MJ6TeEQM5ELqkxFdFQ5tEus3FXyriCsyKR"
            ]
          }
        }, 
        {
          "value": 0.00996956,
          "n": 1,
          "scriptPubKey": {
            "asm": "OP_DUP OP_HASH160 d0dab7694fcabb1d3701171e2ce623a1a362b786 OP_EQUALVERIFY OP_CHECKSIG",
            "hex": "76a914d0dab7694fcabb1d3701171e2ce623a1a362b78688ac",
            "reqSigs": 1,
            "type": "pubkeyhash",
            "addresses": [
              "LeGGpoJbJ5P7PNttBmJ1oKnP8KgkWV74wz"
            ]
          }
        }
      ],
      "hex": "0200000001c11e1bb229f53a1eb3106e5f445190521feca334464472e8b21e6193ce2638a44b0000006a4730440220443c9ef1419d64a0ed0aa1fe8918589e64aa50fc94f3b811a0964735235ef4890220028b3e50a0f699ceb761f8864973939c3315461fdbd31578a0adae0bf8ee15890121035a1e15f9ee7ccab3be7a33924c3e90ad6e8b01f595ceac94b5af8a732f02f6abfeffffff02404b4c000000000017a9146fd45deaedda36532c0dcc42d4dfcc843794299e875c360f00000000001976a914d0dab7694fcabb1d3701171e2ce623a1a362b78688acfbb91400"
    }, 
    {
      "txid": "44fc848d9699aa958c1772bd9836419c29266b830109b8f2efd7f193add9df1c",
      "hash": "44fc848d9699aa958c1772bd9836419c29266b830109b8f2efd7f193add9df1c",
      "version": 1,
      "size": 225,
      "vsize": 225,
      "locktime": 0,
      "vin": [
        {
          "txid": "09e518c5926619befd0d1fbbe4e1e7099e33efb302bd7daebfcd791961f62d29",
          "vout": 1,
          "scriptSig": {
            "asm": "304402205b9583a1f45a378c7589b41b2c8e8ef8fdc3e83ec6bdfd8f3fe46176326e9bf50220269887549e273571618866ff9979fc27231e1b2527699ef7eeb931620b1278ee[ALL] 033b58f425318a7f850d3c7254d3a6165b6289d4513faf216c38116a6477a20eaf",
            "hex": "47304402205b9583a1f45a378c7589b41b2c8e8ef8fdc3e83ec6bdfd8f3fe46176326e9bf50220269887549e273571618866ff9979fc27231e1b2527699ef7eeb931620b1278ee0121033b58f425318a7f850d3c7254d3a6165b6289d4513faf216c38116a6477a20eaf"
          },
          "sequence": 4294967295
        }
      ],
      "vout": [
        {
          "value": 0.18422701,
          "n": 0,
          "scriptPubKey": {
            "asm": "OP_DUP OP_HASH160 b15a1af377311895c4c0ee2d2743111a5b6355da OP_EQUALVERIFY OP_CHECKSIG",
            "hex": "76a914b15a1af377311895c4c0ee2d2743111a5b6355da88ac",
            "reqSigs": 1,
            "type": "pubkeyhash",
            "addresses": [
              "LbPhonrdquAWwcTHMbZjz5ggLuN1FvZfkj"
            ]
          }
        }, 
        {
          "value": 0.54215762,
          "n": 1,
          "scriptPubKey": {
            "asm": "OP_DUP OP_HASH160 a8a27ae3e0956e39e29b52867fbf56a534ab225e OP_EQUALVERIFY OP_CHECKSIG",
            "hex": "76a914a8a27ae3e0956e39e29b52867fbf56a534ab225e88ac",
            "reqSigs": 1,
            "type": "pubkeyhash",
            "addresses": [
              "LabcRkYcJnmu2DKdh8Jrhv6hhz6egnZLq3"
            ]
          }
        }
      ],
      "hex": "0100000001292df6611979cdbfae7dbd02b3ef339e09e7e1e4bb1f0dfdbe196692c518e509010000006a47304402205b9583a1f45a378c7589b41b2c8e8ef8fdc3e83ec6bdfd8f3fe46176326e9bf50220269887549e273571618866ff9979fc27231e1b2527699ef7eeb931620b1278ee0121033b58f425318a7f850d3c7254d3a6165b6289d4513faf216c38116a6477a20eafffffffff02ad1b1901000000001976a914b15a1af377311895c4c0ee2d2743111a5b6355da88ac52443b03000000001976a914a8a27ae3e0956e39e29b52867fbf56a534ab225e88ac00000000"
    }, 
    {
      "txid": "298a782048fd9bad7fb77314e2934371cfb6dda6a5882262e4bef1f2a09be45b",
      "hash": "298a782048fd9bad7fb77314e2934371cfb6dda6a5882262e4bef1f2a09be45b",
      "version": 1,
      "size": 225,
      "vsize": 225,
      "locktime": 0,
      "vin": [
        {
          "txid": "ee9938fd518a5f5e9a83d0bd036dcb645f7d36b997b991583ba87c6e2d0b42df",
          "vout": 17,
          "scriptSig": {
            "asm": "30440220521261fe9b9616e0f16ef51d9975b69caa04d49ea383b7f8538ff9d3be9fb25802201aa1e5fed23a75ccab77d5b7eeade6f97140634d5283d484d4748208ff2111f0[ALL] 0246e95406f5143c6b3dcb9ed44d373113efe8c6d9071d4d9fac91bfd3e9192f73",
            "hex": "4730440220521261fe9b9616e0f16ef51d9975b69caa04d49ea383b7f8538ff9d3be9fb25802201aa1e5fed23a75ccab77d5b7eeade6f97140634d5283d484d4748208ff2111f001210246e95406f5143c6b3dcb9ed44d373113efe8c6d9071d4d9fac91bfd3e9192f73"
          },
          "sequence": 4294967295
        }
      ],
      "vout": [
        {
          "value": 0.40000000,
          "n": 0,
          "scriptPubKey": {
            "asm": "OP_DUP OP_HASH160 b7f8d5fccf7692bea149c090b7b439e23b4deef9 OP_EQUALVERIFY OP_CHECKSIG",
            "hex": "76a914b7f8d5fccf7692bea149c090b7b439e23b4deef988ac",
            "reqSigs": 1,
            "type": "pubkeyhash",
            "addresses": [
              "Lbzi1jo39Xqh2GaKCXyYrJj8GCh14u2NUk"
            ]
          }
        }, 
        {
          "value": 0.00161132,
          "n": 1,
          "scriptPubKey": {
            "asm": "OP_DUP OP_HASH160 db9b515ef3b5f2bd85a8fa80e69b1c40e25289c8 OP_EQUALVERIFY OP_CHECKSIG",
            "hex": "76a914db9b515ef3b5f2bd85a8fa80e69b1c40e25289c888ac",
            "reqSigs": 1,
            "type": "pubkeyhash",
            "addresses": [
              "LfF8Ju1ufeYtteUhog1Ww48BpQK7JEVsry"
            ]
          }
        }
      ],
      "hex": "0100000001df420b2d6e7ca83b5891b997b9367d5f64cb6d03bdd0839a5e5f8a51fd3899ee110000006a4730440220521261fe9b9616e0f16ef51d9975b69caa04d49ea383b7f8538ff9d3be9fb25802201aa1e5fed23a75ccab77d5b7eeade6f97140634d5283d484d4748208ff2111f001210246e95406f5143c6b3dcb9ed44d373113efe8c6d9071d4d9fac91bfd3e9192f73ffffffff02005a6202000000001976a914b7f8d5fccf7692bea149c090b7b439e23b4deef988ac6c750200000000001976a914db9b515ef3b5f2bd85a8fa80e69b1c40e25289c888ac00000000"
    }, 
    {
      "txid": "78a0d4fb0ca2adb1ef10a833912de1159af06ff74c71f840c81fbb89a37bdabe",
      "hash": "78a0d4fb0ca2adb1ef10a833912de1159af06ff74c71f840c81fbb89a37bdabe",
      "version": 1,
      "size": 225,
      "vsize": 225,
      "locktime": 0,
      "vin": [
        {
          "txid": "4f29c06ec648ce5556ee5ac59d42884f8e3badf4833a7c4155be7b00049d10c7",
          "vout": 185,
          "scriptSig": {
            "asm": "3044022005ab9f0a34b3d99ced31d66b931f81fb2047728851919f2f2f131157fae9ab4e02203b166a10175223fce6f114d12fb3ac981e9b4ba4855b1b20e50c0aeea10f244c[ALL] 03012b8e9a74bfb0d677d469e5f00aa3b218946e1b7dd569981bec1e90e9df53be",
            "hex": "473044022005ab9f0a34b3d99ced31d66b931f81fb2047728851919f2f2f131157fae9ab4e02203b166a10175223fce6f114d12fb3ac981e9b4ba4855b1b20e50c0aeea10f244c012103012b8e9a74bfb0d677d469e5f00aa3b218946e1b7dd569981bec1e90e9df53be"
          },
          "sequence": 4294967295
        }
      ],
      "vout": [
        {
          "value": 0.26011998,
          "n": 0,
          "scriptPubKey": {
            "asm": "OP_DUP OP_HASH160 3d47099f94aad2640af0abe6c6ff619e437c9f0f OP_EQUALVERIFY OP_CHECKSIG",
            "hex": "76a9143d47099f94aad2640af0abe6c6ff619e437c9f0f88ac",
            "reqSigs": 1,
            "type": "pubkeyhash",
            "addresses": [
              "LQoxah9dxvXugmjj9uDNBU9fBhZWrCpfBs"
            ]
          }
        }, 
        {
          "value": 0.00887169,
          "n": 1,
          "scriptPubKey": {
            "asm": "OP_DUP OP_HASH160 bac9bb247ee22dd7faea0322cee3f8eb5830d7c0 OP_EQUALVERIFY OP_CHECKSIG",
            "hex": "76a914bac9bb247ee22dd7faea0322cee3f8eb5830d7c088ac",
            "reqSigs": 1,
            "type": "pubkeyhash",
            "addresses": [
              "LcFbcQnNyshWoEdhtmmvVpeTZFX8Lzb3hW"
            ]
          }
        }
      ],
      "hex": "0100000001c7109d04007bbe55417c3a83f4ad3b8e4f88429dc55aee5655ce48c66ec0294fb90000006a473044022005ab9f0a34b3d99ced31d66b931f81fb2047728851919f2f2f131157fae9ab4e02203b166a10175223fce6f114d12fb3ac981e9b4ba4855b1b20e50c0aeea10f244c012103012b8e9a74bfb0d677d469e5f00aa3b218946e1b7dd569981bec1e90e9df53beffffffff025ee98c01000000001976a9143d47099f94aad2640af0abe6c6ff619e437c9f0f88ac81890d00000000001976a914bac9bb247ee22dd7faea0322cee3f8eb5830d7c088ac00000000"
    }, 
    {
      "txid": "cf7b414ddd7886d6d08b3e4c5b64378ff66d28289142e59abbae678428579eb0",
      "hash": "cf7b414ddd7886d6d08b3e4c5b64378ff66d28289142e59abbae678428579eb0",
      "version": 1,
      "size": 226,
      "vsize": 226,
      "locktime": 0,
      "vin": [
        {
          "txid": "3af654701877f8425f392b03d25b2a953473989167ddef67fe02e3d48dec5e82",
          "vout": 466,
          "scriptSig": {
            "asm": "3045022100e8f9564d83be09813ef2f0b77f10526f7912dc099b431c1c9f4e315737d656e902200fe32e6c7f3ac40c8fd2b870d092f4d910851a5c65ad4daa551c409f98b4841d[ALL] 0375838248292722c217f0fbd8a79f1a9b7e36357ada2da61c3d66113342d0d755",
            "hex": "483045022100e8f9564d83be09813ef2f0b77f10526f7912dc099b431c1c9f4e315737d656e902200fe32e6c7f3ac40c8fd2b870d092f4d910851a5c65ad4daa551c409f98b4841d01210375838248292722c217f0fbd8a79f1a9b7e36357ada2da61c3d66113342d0d755"
          },
          "sequence": 4294967295
        }
      ],
      "vout": [
        {
          "value": 0.00341734,
          "n": 0,
          "scriptPubKey": {
            "asm": "OP_DUP OP_HASH160 553352b55d93e2a8860d108e27a219c530be5370 OP_EQUALVERIFY OP_CHECKSIG",
            "hex": "76a914553352b55d93e2a8860d108e27a219c530be537088ac",
            "reqSigs": 1,
            "type": "pubkeyhash",
            "addresses": [
              "LSzTBWTYcHRAGHVXjfiVvKpSDaP92MhDYB"
            ]
          }
        }, 
        {
          "value": 0.32343937,
          "n": 1,
          "scriptPubKey": {
            "asm": "OP_DUP OP_HASH160 b7aa67815d6ec1ea7db6d6867d108e1cf8659dcf OP_EQUALVERIFY OP_CHECKSIG",
            "hex": "76a914b7aa67815d6ec1ea7db6d6867d108e1cf8659dcf88ac",
            "reqSigs": 1,
            "type": "pubkeyhash",
            "addresses": [
              "Lby64Da4aeEZ8LuW4RjkgZowS3EgukPW5b"
            ]
          }
        }
      ],
      "hex": "0100000001825eec8dd4e302fe67efdd6791987334952a5bd2032b395f42f877187054f63ad20100006b483045022100e8f9564d83be09813ef2f0b77f10526f7912dc099b431c1c9f4e315737d656e902200fe32e6c7f3ac40c8fd2b870d092f4d910851a5c65ad4daa551c409f98b4841d01210375838248292722c217f0fbd8a79f1a9b7e36357ada2da61c3d66113342d0d755ffffffff02e6360500000000001976a914553352b55d93e2a8860d108e27a219c530be537088ac8187ed01000000001976a914b7aa67815d6ec1ea7db6d6867d108e1cf8659dcf88ac00000000"
    }
  ],
  "time": 1517127278,
  "mediantime": 1517126629,
  "nonce": 2708811076,
  "bits": "1a047f14",
  "difficulty": 3731199.183374282,
  "chainwork": "00000000000000000000000000000000000000000000003300916c094b42fecc",
  "previousblockhash": "d19dd93b2c218cabfda05202956e82d119386ebae56cdb8d6cabec0c4c75216f",
  "nextblockhash": "66339582425f853421fd3a5b1bd2bba4d65b0ad07eaab712ce6395641fed6d24"
}
