{
  "hash": "35ceb783b510060c482724889c5d1a15f5ca35c81caad592b5a032bba1ada716",
  "confirmations": 3475,
  "strippedsize": 4898,
  "size": 4934,
  "weight": 19628,
  "height": 1357520,
  "version": 536870912,
  "versionHex": "20000000",
  "merkleroot": "fde8189cdfaa08abe722dd15649e2337664fa83470931473fdd17fb1a701a27f",
  "tx": [
    {
      "txid": "dbe272483f38c2135cf5bbe8d2601265ea6851ffc528a28d62e5088afb7e90da",
      "hash": "317223895dda459ac5af38a907b665e34d21fccfac6000aa9421727b53d2f512",
      "version": 1,
      "size": 243,
      "vsize": 216,
      "locktime": 0,
      "vin": [
        {
          "coinbase": "03d0b6140456c86b5afabe6d6df3939f1a606236e3cd30e52de16a89a3e0be80a6270b987759bb6018e0a843d110000000000000000850021108450000000c2f5553505738484c58414f2f",
          "sequence": 0
        }
      ],
      "vout": [
        {
          "value": 25.00927489,
          "n": 0,
          "scriptPubKey": {
            "asm": "OP_DUP OP_HASH160 81308472f5a29a68cec40cbb4cd3f4be72094456 OP_EQUALVERIFY OP_CHECKSIG",
            "hex": "76a91481308472f5a29a68cec40cbb4cd3f4be7209445688ac",
            "reqSigs": 1,
            "type": "pubkeyhash",
            "addresses": [
              "LX13Z1HZKVzRDabi8CsPdGhp7YbC7Q8qtn"
            ]
          }
        }, 
        {
          "value": 0.00000000,
          "n": 1,
          "scriptPubKey": {
            "asm": "OP_RETURN aa21a9edc303f577d798dcf60808380765e29fcb3acf32f6a11c6e7733e39035c7e6e5bc",
            "hex": "6a24aa21a9edc303f577d798dcf60808380765e29fcb3acf32f6a11c6e7733e39035c7e6e5bc",
            "type": "nulldata"
          }
        }
      ],
      "hex": "010000000001010000000000000000000000000000000000000000000000000000000000000000ffffffff4b03d0b6140456c86b5afabe6d6df3939f1a606236e3cd30e52de16a89a3e0be80a6270b987759bb6018e0a843d110000000000000000850021108450000000c2f5553505738484c58414f2f000000000201201195000000001976a91481308472f5a29a68cec40cbb4cd3f4be7209445688ac0000000000000000266a24aa21a9edc303f577d798dcf60808380765e29fcb3acf32f6a11c6e7733e39035c7e6e5bc0120000000000000000000000000000000000000000000000000000000000000000000000000"
    }, 
    {
      "txid": "02fb1f624df2caccdd1ea5f4197c47cef73b6168bcee3de264e9d717f76be63e",
      "hash": "02fb1f624df2caccdd1ea5f4197c47cef73b6168bcee3de264e9d717f76be63e",
      "version": 1,
      "size": 340,
      "vsize": 340,
      "locktime": 0,
      "vin": [
        {
          "txid": "2ffac71ff5d0a8c22e0a443b292c0bb1c9af304442561952e06bb5818c44a1a7",
          "vout": 1,
          "scriptSig": {
            "asm": "3045022100d02af2d78822fa893e178f81a72ca236c603d2ff6bccd92b7defb11313bc9e8c02205aa020d15b8775b996caedcce10dc83e0477d03352c753208f357ca4ef74e23f[ALL] 035ebc97af4054708f409e27caaa02bd31a935e7e1e6836a43e273b18464dcfe3c",
            "hex": "483045022100d02af2d78822fa893e178f81a72ca236c603d2ff6bccd92b7defb11313bc9e8c02205aa020d15b8775b996caedcce10dc83e0477d03352c753208f357ca4ef74e23f0121035ebc97af4054708f409e27caaa02bd31a935e7e1e6836a43e273b18464dcfe3c"
          },
          "sequence": 4294967295
        }, 
        {
          "txid": "a545b93ec9e732425cc57dcb4103b0892033225c9071925740f6f65b10234d9b",
          "vout": 0,
          "scriptSig": {
            "asm": "3045022100ccf8394d3f018240fdbc836a70948a18bb443ab8ad5f00c88101a6679b573e3302207768287c3d818df2df7e43ae5bac91486cc1a8b90c939efb163810262a0bb9bc[ALL] 028607fa8719eb6f62ffdd6abcb03df05a9ccd015fb593dca779e4d3b85daf2c49",
            "hex": "483045022100ccf8394d3f018240fdbc836a70948a18bb443ab8ad5f00c88101a6679b573e3302207768287c3d818df2df7e43ae5bac91486cc1a8b90c939efb163810262a0bb9bc0121028607fa8719eb6f62ffdd6abcb03df05a9ccd015fb593dca779e4d3b85daf2c49"
          },
          "sequence": 4294967295
        }
      ],
      "vout": [
        {
          "value": 1.29800000,
          "n": 0,
          "scriptPubKey": {
            "asm": "OP_DUP OP_HASH160 bb2087df6afa434821e4a07c9c74247235f4eb37 OP_EQUALVERIFY OP_CHECKSIG",
            "hex": "76a914bb2087df6afa434821e4a07c9c74247235f4eb3788ac",
            "reqSigs": 1,
            "type": "pubkeyhash",
            "addresses": [
              "LcHPbMvnns1TK95uRYDRVREXS8H7cgsA3J"
            ]
          }
        }
      ],
      "hex": "0100000002a7a1448c81b56be0521956424430afc9b10b2c293b440a2ec2a8d0f51fc7fa2f010000006b483045022100d02af2d78822fa893e178f81a72ca236c603d2ff6bccd92b7defb11313bc9e8c02205aa020d15b8775b996caedcce10dc83e0477d03352c753208f357ca4ef74e23f0121035ebc97af4054708f409e27caaa02bd31a935e7e1e6836a43e273b18464dcfe3cffffffff9b4d23105bf6f640579271905c22332089b00341cb7dc55c4232e7c93eb945a5000000006b483045022100ccf8394d3f018240fdbc836a70948a18bb443ab8ad5f00c88101a6679b573e3302207768287c3d818df2df7e43ae5bac91486cc1a8b90c939efb163810262a0bb9bc0121028607fa8719eb6f62ffdd6abcb03df05a9ccd015fb593dca779e4d3b85daf2c49ffffffff014097bc07000000001976a914bb2087df6afa434821e4a07c9c74247235f4eb3788ac00000000"
    }, 
    {
      "txid": "db083171e77d0993f60e4c1ed85ecac0a25d397a7ee27e01a97df0ab9b38fd72",
      "hash": "db083171e77d0993f60e4c1ed85ecac0a25d397a7ee27e01a97df0ab9b38fd72",
      "version": 1,
      "size": 189,
      "vsize": 189,
      "locktime": 0,
      "vin": [
        {
          "txid": "4bd6d51a61d104889f3346fb9a4bdf7a071adf68aa58d4191e0c34d30dc36fc2",
          "vout": 1,
          "scriptSig": {
            "asm": "30440220124ac5fe16b5bfea3fd08e7cf99d34047a184e2a2ce8f3c5a2631eea054e57c90220534b1748032ce1bfa3a972e68e545bd454b4097afa5ab4675fe4685e517569b3[ALL] 03fb27ec06cd14c22816e320da4a94c553f0d1184cff10dd6efcf94e80cd00e7c1",
            "hex": "4730440220124ac5fe16b5bfea3fd08e7cf99d34047a184e2a2ce8f3c5a2631eea054e57c90220534b1748032ce1bfa3a972e68e545bd454b4097afa5ab4675fe4685e517569b3012103fb27ec06cd14c22816e320da4a94c553f0d1184cff10dd6efcf94e80cd00e7c1"
          },
          "sequence": 4294967295
        }
      ],
      "vout": [
        {
          "value": 0.97800000,
          "n": 0,
          "scriptPubKey": {
            "asm": "OP_HASH160 5b9edb6f2b4433a07668c54a1f361eff4868ee79 OP_EQUAL",
            "hex": "a9145b9edb6f2b4433a07668c54a1f361eff4868ee7987",
            "reqSigs": 1,
            "type": "scripthash",
            "addresses": [
              "MGFc2UZomoWW4gbBaV2e6uhAAZnrwDJWAA"
            ]
          }
        }
      ],
      "hex": "0100000001c26fc30dd3340c1e19d458aa68df1a077adf4b9afb46339f8804d1611ad5d64b010000006a4730440220124ac5fe16b5bfea3fd08e7cf99d34047a184e2a2ce8f3c5a2631eea054e57c90220534b1748032ce1bfa3a972e68e545bd454b4097afa5ab4675fe4685e517569b3012103fb27ec06cd14c22816e320da4a94c553f0d1184cff10dd6efcf94e80cd00e7c1ffffffff01404fd4050000000017a9145b9edb6f2b4433a07668c54a1f361eff4868ee798700000000"
    }, 
    {
      "txid": "ca83d830b9c8d8cce95ffcb2307ed0e043ee22f99d3b47e83eea1770570aa120",
      "hash": "ca83d830b9c8d8cce95ffcb2307ed0e043ee22f99d3b47e83eea1770570aa120",
      "version": 1,
      "size": 223,
      "vsize": 223,
      "locktime": 0,
      "vin": [
        {
          "txid": "0f6dee9ac669991cb5a54205865d30ed3f4eedb6f70f6afcda5006025723d21c",
          "vout": 0,
          "scriptSig": {
            "asm": "30440220027d895900df4771205d084db599d402457c459f8abaa80bfb5f45943d09512102204c2d6ef9711df5d76b0ea9db07f6d877fc8e7b6883a757395b6a5115978bb69c[ALL] 022cd51a7bffa9a5e330b5a3d14e9015f237921abc767a44a34fbb67666241919d",
            "hex": "4730440220027d895900df4771205d084db599d402457c459f8abaa80bfb5f45943d09512102204c2d6ef9711df5d76b0ea9db07f6d877fc8e7b6883a757395b6a5115978bb69c0121022cd51a7bffa9a5e330b5a3d14e9015f237921abc767a44a34fbb67666241919d"
          },
          "sequence": 4294967295
        }
      ],
      "vout": [
        {
          "value": 0.26869639,
          "n": 0,
          "scriptPubKey": {
            "asm": "OP_DUP OP_HASH160 e35434effb6953843a7100c7ff21b1e0071de479 OP_EQUALVERIFY OP_CHECKSIG",
            "hex": "76a914e35434effb6953843a7100c7ff21b1e0071de47988ac",
            "reqSigs": 1,
            "type": "pubkeyhash",
            "addresses": [
              "LfwxXYmsiJZyWV4BqwVoAKnj2hm2YC9EEb"
            ]
          }
        }, 
        {
          "value": 0.29334612,
          "n": 1,
          "scriptPubKey": {
            "asm": "OP_HASH160 d8bded39fa61ae825945ecce68822e1e8d1b28ce OP_EQUAL",
            "hex": "a914d8bded39fa61ae825945ecce68822e1e8d1b28ce87",
            "reqSigs": 1,
            "type": "scripthash",
            "addresses": [
              "MTfBiCecrcUk5wroZ6bQXyYhNsYSzuNscN"
            ]
          }
        }
      ],
      "hex": "01000000011cd22357020650dafc6a0ff7b6ed4e3fed305d860542a5b51c9969c69aee6d0f000000006a4730440220027d895900df4771205d084db599d402457c459f8abaa80bfb5f45943d09512102204c2d6ef9711df5d76b0ea9db07f6d877fc8e7b6883a757395b6a5115978bb69c0121022cd51a7bffa9a5e330b5a3d14e9015f237921abc767a44a34fbb67666241919dffffffff0287ff9901000000001976a914e35434effb6953843a7100c7ff21b1e0071de47988ac549cbf010000000017a914d8bded39fa61ae825945ecce68822e1e8d1b28ce8700000000"
    }, 
    {
      "txid": "4a11622607314f047e551f129352e2b741b1ffd68a201d23b56db1f375325b74",
      "hash": "4a11622607314f047e551f129352e2b741b1ffd68a201d23b56db1f375325b74",
      "version": 2,
      "size": 521,
      "vsize": 521,
      "locktime": 1357518,
      "vin": [
        {
          "txid": "1c7e417b7cd82b6d44c0af6fc9b73ee3a11fcc04edb43c4f0f79005b96301fe5",
          "vout": 1,
          "scriptSig": {
            "asm": "304402205d3a50528826e7ace682e4f4d34ffe6cb8fd18860876c1770f6dd777b2e09d000220362beb70f679fffc4a478bca54f70c7b56684bd5a45c6fb2ffb7238648f99131[ALL] 03710b1363adf198f5a1ee35e0450a9b0c3b7539c88c54bcb9b02f05ce50bc002a",
            "hex": "47304402205d3a50528826e7ace682e4f4d34ffe6cb8fd18860876c1770f6dd777b2e09d000220362beb70f679fffc4a478bca54f70c7b56684bd5a45c6fb2ffb7238648f99131012103710b1363adf198f5a1ee35e0450a9b0c3b7539c88c54bcb9b02f05ce50bc002a"
          },
          "sequence": 4294967294
        }, 
        {
          "txid": "0ed71c2502ca2bace7d901593d4fbfdddb94589c16a1cb19e85b52f36573e7cb",
          "vout": 0,
          "scriptSig": {
            "asm": "3045022100baeae147bb3461d1bf9dbd2267b64be5f385305a977addb56d57ecdbd102966e02206fc3d1af7f837a8c4f94b58374bc969bbabd1d298532577e31304654f5144948[ALL] 0223ef701573d953b44a2d8fa602393d53973354ce68f2f86ee34d7e6d45eef148",
            "hex": "483045022100baeae147bb3461d1bf9dbd2267b64be5f385305a977addb56d57ecdbd102966e02206fc3d1af7f837a8c4f94b58374bc969bbabd1d298532577e31304654f514494801210223ef701573d953b44a2d8fa602393d53973354ce68f2f86ee34d7e6d45eef148"
          },
          "sequence": 4294967294
        }, 
        {
          "txid": "8b1caa93e8f8d8314696b2bb97a9ed315239ea1abd26566ce491aa989755fcca",
          "vout": 1,
          "scriptSig": {
            "asm": "3045022100e1fb4f63d43d5d43dc1f40f8207081f9c0f809dc028c6f08f6449d2cbd7329c602201d5887d5b1ce4ad4a5b3a159b8a523193718fc3f428a42dc95e32e566829682b[ALL] 02fd0d5450741322ec75f3b55e0e7ecd702cd83f1667554f6c57a9e68ad59be6ea",
            "hex": "483045022100e1fb4f63d43d5d43dc1f40f8207081f9c0f809dc028c6f08f6449d2cbd7329c602201d5887d5b1ce4ad4a5b3a159b8a523193718fc3f428a42dc95e32e566829682b012102fd0d5450741322ec75f3b55e0e7ecd702cd83f1667554f6c57a9e68ad59be6ea"
          },
          "sequence": 4294967294
        }
      ],
      "vout": [
        {
          "value": 1.00606700,
          "n": 0,
          "scriptPubKey": {
            "asm": "OP_DUP OP_HASH160 b0a4d4835a1c182cb9c7ce7cb8c3123152594e24 OP_EQUALVERIFY OP_CHECKSIG",
            "hex": "76a914b0a4d4835a1c182cb9c7ce7cb8c3123152594e2488ac",
            "reqSigs": 1,
            "type": "pubkeyhash",
            "addresses": [
              "LbKxeaCvWtGDS6odJ1mcCapQNFFGFpGxhc"
            ]
          }
        }, 
        {
          "value": 0.00871050,
          "n": 1,
          "scriptPubKey": {
            "asm": "OP_DUP OP_HASH160 c90d74e5e5adf64c7e60fb50c943af0c4a26dcab OP_EQUALVERIFY OP_CHECKSIG",
            "hex": "76a914c90d74e5e5adf64c7e60fb50c943af0c4a26dcab88ac",
            "reqSigs": 1,
            "type": "pubkeyhash",
            "addresses": [
              "LdZ2CkhJXUPcfjyjeyznnnrqoo5UqwfWEZ"
            ]
          }
        }
      ],
      "hex": "0200000003e51f30965b00790f4f3cb4ed04cc1fa1e33eb7c96fafc0446d2bd87c7b417e1c010000006a47304402205d3a50528826e7ace682e4f4d34ffe6cb8fd18860876c1770f6dd777b2e09d000220362beb70f679fffc4a478bca54f70c7b56684bd5a45c6fb2ffb7238648f99131012103710b1363adf198f5a1ee35e0450a9b0c3b7539c88c54bcb9b02f05ce50bc002afeffffffcbe77365f3525be819cba1169c5894dbddbf4f3d5901d9e7ac2bca02251cd70e000000006b483045022100baeae147bb3461d1bf9dbd2267b64be5f385305a977addb56d57ecdbd102966e02206fc3d1af7f837a8c4f94b58374bc969bbabd1d298532577e31304654f514494801210223ef701573d953b44a2d8fa602393d53973354ce68f2f86ee34d7e6d45eef148feffffffcafc559798aa91e46c5626bd1aea395231eda997bbb2964631d8f8e893aa1c8b010000006b483045022100e1fb4f63d43d5d43dc1f40f8207081f9c0f809dc028c6f08f6449d2cbd7329c602201d5887d5b1ce4ad4a5b3a159b8a523193718fc3f428a42dc95e32e566829682b012102fd0d5450741322ec75f3b55e0e7ecd702cd83f1667554f6c57a9e68ad59be6eafeffffff02ec22ff05000000001976a914b0a4d4835a1c182cb9c7ce7cb8c3123152594e2488ac8a4a0d00000000001976a914c90d74e5e5adf64c7e60fb50c943af0c4a26dcab88acceb61400"
    }, 
    {
      "txid": "7ec22b905b11e5e6734f1d12821243cdfa177b58975cd5668df3de9e82018108",
      "hash": "7ec22b905b11e5e6734f1d12821243cdfa177b58975cd5668df3de9e82018108",
      "version": 1,
      "size": 633,
      "vsize": 633,
      "locktime": 0,
      "vin": [
        {
          "txid": "6654f45eb0a81d46f72ad930ec73c6a81bf95fa9cc01c80bf20afab895f2ac91",
          "vout": 67,
          "scriptSig": {
            "asm": "304402202b1f68c02281946162d4501cf7b90a81b8325f1959259581d64b9c8cc209ec9002205ce41f8632170b7b485864131dfce7174cad498e0440de88c95c5b2291966751[ALL] 032411a0afce5ec8f0a3da7b3accac64aa9d06ff689323f0622b3960f524ee2b70",
            "hex": "47304402202b1f68c02281946162d4501cf7b90a81b8325f1959259581d64b9c8cc209ec9002205ce41f8632170b7b485864131dfce7174cad498e0440de88c95c5b22919667510121032411a0afce5ec8f0a3da7b3accac64aa9d06ff689323f0622b3960f524ee2b70"
          },
          "sequence": 4294967295
        }, 
        {
          "txid": "8945f84bdd0aa3b7649149abf3bb37a29aef61c4336c62f45ef05632f38c184d",
          "vout": 0,
          "scriptSig": {
            "asm": "304302200ba3e99e9d56c21b336da69e69c49192387ed620a507e318b95ca74400c7a869021f0383fc55df50de0c95d16426524cf853c2c5be94d356eafaee3d049c8b5ca2[ALL] 03fb6f2334a1ebd389811cdb7ca5452356dd4d8f06b3a6f07bd07b6aeffcc5d0fd",
            "hex": "46304302200ba3e99e9d56c21b336da69e69c49192387ed620a507e318b95ca74400c7a869021f0383fc55df50de0c95d16426524cf853c2c5be94d356eafaee3d049c8b5ca2012103fb6f2334a1ebd389811cdb7ca5452356dd4d8f06b3a6f07bd07b6aeffcc5d0fd"
          },
          "sequence": 4294967295
        }, 
        {
          "txid": "196862325f487ad7a01b5796349f1931f25ad3503cf8aea07678826d573fdbef",
          "vout": 1,
          "scriptSig": {
            "asm": "3045022100dd6478aee2ef9cfef1273c91d1153260e4c3908e1b517b937ccf09aa4dc8b64e02207ee09d31b55bdcb648f5ac2e3687cc13cfff3bae7ce56e99469492f2a0959e64[ALL] 022ad40212b75e5810196a521ac82f4756d61ff8fad6c9bfaaa082f13c22fbd030",
            "hex": "483045022100dd6478aee2ef9cfef1273c91d1153260e4c3908e1b517b937ccf09aa4dc8b64e02207ee09d31b55bdcb648f5ac2e3687cc13cfff3bae7ce56e99469492f2a0959e640121022ad40212b75e5810196a521ac82f4756d61ff8fad6c9bfaaa082f13c22fbd030"
          },
          "sequence": 4294967295
        }, 
        {
          "txid": "13dee4f64e02d457594665d35361c79741aec5d73764099a4f3e2381df405d83",
          "vout": 3,
          "scriptSig": {
            "asm": "30450221008824e01df3b23563e0c3168120167eddc5896fb19bdfdbeff7dbc10b4aa52bac0220087a579c4cbe84bf257ef52be337c26578e90d0532a46644a9341906f7e7d569[ALL] 022ad40212b75e5810196a521ac82f4756d61ff8fad6c9bfaaa082f13c22fbd030",
            "hex": "4830450221008824e01df3b23563e0c3168120167eddc5896fb19bdfdbeff7dbc10b4aa52bac0220087a579c4cbe84bf257ef52be337c26578e90d0532a46644a9341906f7e7d5690121022ad40212b75e5810196a521ac82f4756d61ff8fad6c9bfaaa082f13c22fbd030"
          },
          "sequence": 4294967295
        }
      ],
      "vout": [
        {
          "value": 1.29151559,
          "n": 0,
          "scriptPubKey": {
            "asm": "OP_DUP OP_HASH160 d03135f2f46776b93126830da160846edbe57fae OP_EQUALVERIFY OP_CHECKSIG",
            "hex": "76a914d03135f2f46776b93126830da160846edbe57fae88ac",
            "reqSigs": 1,
            "type": "pubkeyhash",
            "addresses": [
              "LeCmmLRrReLX5xmocu6XDsVx9arQJ8iqgw"
            ]
          }
        }
      ],
      "hex": "010000000491acf295b8fa0af20bc801cca95ff91ba8c673ec30d92af7461da8b05ef45466430000006a47304402202b1f68c02281946162d4501cf7b90a81b8325f1959259581d64b9c8cc209ec9002205ce41f8632170b7b485864131dfce7174cad498e0440de88c95c5b22919667510121032411a0afce5ec8f0a3da7b3accac64aa9d06ff689323f0622b3960f524ee2b70ffffffff4d188cf33256f05ef4626c33c461ef9aa237bbf3ab499164b7a30add4bf84589000000006946304302200ba3e99e9d56c21b336da69e69c49192387ed620a507e318b95ca74400c7a869021f0383fc55df50de0c95d16426524cf853c2c5be94d356eafaee3d049c8b5ca2012103fb6f2334a1ebd389811cdb7ca5452356dd4d8f06b3a6f07bd07b6aeffcc5d0fdffffffffefdb3f576d827876a0aef83c50d35af231199f3496571ba0d77a485f32626819010000006b483045022100dd6478aee2ef9cfef1273c91d1153260e4c3908e1b517b937ccf09aa4dc8b64e02207ee09d31b55bdcb648f5ac2e3687cc13cfff3bae7ce56e99469492f2a0959e640121022ad40212b75e5810196a521ac82f4756d61ff8fad6c9bfaaa082f13c22fbd030ffffffff835d40df81233e4f9a096437d7c5ae4197c76153d365465957d4024ef6e4de13030000006b4830450221008824e01df3b23563e0c3168120167eddc5896fb19bdfdbeff7dbc10b4aa52bac0220087a579c4cbe84bf257ef52be337c26578e90d0532a46644a9341906f7e7d5690121022ad40212b75e5810196a521ac82f4756d61ff8fad6c9bfaaa082f13c22fbd030ffffffff0147b2b207000000001976a914d03135f2f46776b93126830da160846edbe57fae88ac00000000"
    }, 
    {
      "txid": "d796a341b946299890981573da56487fa74d0fc57a5b20dac91bf13e40245cc0",
      "hash": "d796a341b946299890981573da56487fa74d0fc57a5b20dac91bf13e40245cc0",
      "version": 1,
      "size": 223,
      "vsize": 223,
      "locktime": 0,
      "vin": [
        {
          "txid": "720eb0e42304166c2681f552416aa5c6a60754ce56487e7f20b7ef815ea48eba",
          "vout": 0,
          "scriptSig": {
            "asm": "30440220666f3322d5dcf8e4e9e59296c879cda7729898b4de1447b54b657aff4dfd1a3202204de762e90d0a12f3703f06dd24cde738d0bf2c1909f64228f624e42e925d3c9c[ALL] 0240a287304f8a4e0fdd4bfdc45399bc542c53b99dfb6e0a9da718753bc2ee5d3c",
            "hex": "4730440220666f3322d5dcf8e4e9e59296c879cda7729898b4de1447b54b657aff4dfd1a3202204de762e90d0a12f3703f06dd24cde738d0bf2c1909f64228f624e42e925d3c9c01210240a287304f8a4e0fdd4bfdc45399bc542c53b99dfb6e0a9da718753bc2ee5d3c"
          },
          "sequence": 4294967295
        }
      ],
      "vout": [
        {
          "value": 0.06934885,
          "n": 0,
          "scriptPubKey": {
            "asm": "OP_DUP OP_HASH160 4abce2f9c816f84b716ead7d923c8c5394090d7c OP_EQUALVERIFY OP_CHECKSIG",
            "hex": "76a9144abce2f9c816f84b716ead7d923c8c5394090d7c88ac",
            "reqSigs": 1,
            "type": "pubkeyhash",
            "addresses": [
              "LS38YUrurMzqUDRjgAfvN8rQ6qVj7KcduN"
            ]
          }
        }, 
        {
          "value": 0.32940700,
          "n": 1,
          "scriptPubKey": {
            "asm": "OP_HASH160 1ccbfc0a65f6bd041d870f0e2221ce8299efdc33 OP_EQUAL",
            "hex": "a9141ccbfc0a65f6bd041d870f0e2221ce8299efdc3387",
            "reqSigs": 1,
            "type": "scripthash",
            "addresses": [
              "MAXRWtt5MZUNCr7UQ77L5UzjV9naz44eCz"
            ]
          }
        }
      ],
      "hex": "0100000001ba8ea45e81efb7207f7e4856ce5407a6c6a56a4152f581266c160423e4b00e72000000006a4730440220666f3322d5dcf8e4e9e59296c879cda7729898b4de1447b54b657aff4dfd1a3202204de762e90d0a12f3703f06dd24cde738d0bf2c1909f64228f624e42e925d3c9c01210240a287304f8a4e0fdd4bfdc45399bc542c53b99dfb6e0a9da718753bc2ee5d3cffffffff0265d16900000000001976a9144abce2f9c816f84b716ead7d923c8c5394090d7c88ac9ca2f6010000000017a9141ccbfc0a65f6bd041d870f0e2221ce8299efdc338700000000"
    }, 
    {
      "txid": "3ca56a0069df917b89e4e34ae898c9d6e12d3f154b967ff414522510f4a10222",
      "hash": "3ca56a0069df917b89e4e34ae898c9d6e12d3f154b967ff414522510f4a10222",
      "version": 1,
      "size": 225,
      "vsize": 225,
      "locktime": 0,
      "vin": [
        {
          "txid": "d9993b163b937e57db87fd8e833a2698c7f5e3476eac1c3d73beb0b9d05edf39",
          "vout": 0,
          "scriptSig": {
            "asm": "304402202c0158a3106afcf5195cfbf5fbb4c8b2fe1a33572429e3afb16a9c6276aebbd0022076bee2b2c3298b1fc9561b278ed7242587be9485d019bdd2b637c310c42cc6ac[ALL] 02b95127e509557350c9f0cbb94e2a70745cf71169666927ab7964c224ab781682",
            "hex": "47304402202c0158a3106afcf5195cfbf5fbb4c8b2fe1a33572429e3afb16a9c6276aebbd0022076bee2b2c3298b1fc9561b278ed7242587be9485d019bdd2b637c310c42cc6ac012102b95127e509557350c9f0cbb94e2a70745cf71169666927ab7964c224ab781682"
          },
          "sequence": 4294967295
        }
      ],
      "vout": [
        {
          "value": 35.95659008,
          "n": 0,
          "scriptPubKey": {
            "asm": "OP_DUP OP_HASH160 d50050802c61197236ac96ad9361c148a8901762 OP_EQUALVERIFY OP_CHECKSIG",
            "hex": "76a914d50050802c61197236ac96ad9361c148a890176288ac",
            "reqSigs": 1,
            "type": "pubkeyhash",
            "addresses": [
              "LeeCZvQj4z44bfAozLX2x7dvRXmSVhdk4g"
            ]
          }
        }, 
        {
          "value": 1.00000000,
          "n": 1,
          "scriptPubKey": {
            "asm": "OP_DUP OP_HASH160 79a937f3861ec84c624a63e31ec7257e5f80d618 OP_EQUALVERIFY OP_CHECKSIG",
            "hex": "76a91479a937f3861ec84c624a63e31ec7257e5f80d61888ac",
            "reqSigs": 1,
            "type": "pubkeyhash",
            "addresses": [
              "LWKEjwFRpCqNoK3hzeNgh4HC1x4Kiz22nZ"
            ]
          }
        }
      ],
      "hex": "010000000139df5ed0b9b0be733d1cac6e47e3f5c798263a838efd87db577e933b163b99d9000000006a47304402202c0158a3106afcf5195cfbf5fbb4c8b2fe1a33572429e3afb16a9c6276aebbd0022076bee2b2c3298b1fc9561b278ed7242587be9485d019bdd2b637c310c42cc6ac012102b95127e509557350c9f0cbb94e2a70745cf71169666927ab7964c224ab781682ffffffff02006751d6000000001976a914d50050802c61197236ac96ad9361c148a890176288ac00e1f505000000001976a91479a937f3861ec84c624a63e31ec7257e5f80d61888ac00000000"
    }, 
    {
      "txid": "f7224aacacd8725a51b65dbc3481384d136b82a1cd8a16dc8b9fb4b1c84da255",
      "hash": "f7224aacacd8725a51b65dbc3481384d136b82a1cd8a16dc8b9fb4b1c84da255",
      "version": 2,
      "size": 225,
      "vsize": 225,
      "locktime": 1357518,
      "vin": [
        {
          "txid": "0ab5ffdd481fb960e6c18a0aa37a6b1937f27259c4f7faeb62388cb9f3bb0d90",
          "vout": 0,
          "scriptSig": {
            "asm": "3044022034bb658dc6f6f422f84e9d44db00efd016e6e0d4be078f5b1a78aec928824e3d02200f7724584c652b082adb5a10cdcd85292f6484fc7d87383c33b41baa8c55c114[ALL] 0267fee1438c8c96a7772b78a4c93e9d608873b7c16c5b6a7a2fe7eb8cb11a6258",
            "hex": "473044022034bb658dc6f6f422f84e9d44db00efd016e6e0d4be078f5b1a78aec928824e3d02200f7724584c652b082adb5a10cdcd85292f6484fc7d87383c33b41baa8c55c11401210267fee1438c8c96a7772b78a4c93e9d608873b7c16c5b6a7a2fe7eb8cb11a6258"
          },
          "sequence": 4294967294
        }
      ],
      "vout": [
        {
          "value": 0.89690494,
          "n": 0,
          "scriptPubKey": {
            "asm": "OP_DUP OP_HASH160 04327bf71f24e4042ed33d6740e5d5b649ed7057 OP_EQUALVERIFY OP_CHECKSIG",
            "hex": "76a91404327bf71f24e4042ed33d6740e5d5b649ed705788ac",
            "reqSigs": 1,
            "type": "pubkeyhash",
            "addresses": [
              "LKc9SgncuPq7wdKnTYcaBHLCSnEbQrTgL3"
            ]
          }
        }, 
        {
          "value": 195.28023482,
          "n": 1,
          "scriptPubKey": {
            "asm": "OP_DUP OP_HASH160 43595b80987e4a711fa10ac051f9bd11ace0736a OP_EQUALVERIFY OP_CHECKSIG",
            "hex": "76a91443595b80987e4a711fa10ac051f9bd11ace0736a88ac",
            "reqSigs": 1,
            "type": "pubkeyhash",
            "addresses": [
              "LRN4ajDwFhf8wsvmZhGa72n7heqe5rJqdJ"
            ]
          }
        }
      ],
      "hex": "0200000001900dbbf3b98c3862ebfaf7c45972f237196b7aa30a8ac1e660b91f48ddffb50a000000006a473044022034bb658dc6f6f422f84e9d44db00efd016e6e0d4be078f5b1a78aec928824e3d02200f7724584c652b082adb5a10cdcd85292f6484fc7d87383c33b41baa8c55c11401210267fee1438c8c96a7772b78a4c93e9d608873b7c16c5b6a7a2fe7eb8cb11a6258feffffff027e915805000000001976a91404327bf71f24e4042ed33d6740e5d5b649ed705788acbafdf58b040000001976a91443595b80987e4a711fa10ac051f9bd11ace0736a88acceb61400"
    }, 
    {
      "txid": "b8888955f432dc6faf59b0c4c8c484de24052981b714b087ba1c3f2635689c6b",
      "hash": "b8888955f432dc6faf59b0c4c8c484de24052981b714b087ba1c3f2635689c6b",
      "version": 1,
      "size": 225,
      "vsize": 225,
      "locktime": 1357518,
      "vin": [
        {
          "txid": "be013ddf53e098bba62f65961184b59bf8b5fcb615da83c97c848299815ede15",
          "vout": 1,
          "scriptSig": {
            "asm": "304402204e2b39ff5db463e82221a02a1e139275b9081f3b27aa4be96f34bed7788ef35f022040ad733e27a0bad293bfee82cbf4a1460663f734cf93eb08f2fb0ce03de00062[ALL] 024bc8726dc78250e8a63dd2ef00d944a91df01ff0d5b437130e646c243d2c0765",
            "hex": "47304402204e2b39ff5db463e82221a02a1e139275b9081f3b27aa4be96f34bed7788ef35f022040ad733e27a0bad293bfee82cbf4a1460663f734cf93eb08f2fb0ce03de000620121024bc8726dc78250e8a63dd2ef00d944a91df01ff0d5b437130e646c243d2c0765"
          },
          "sequence": 4294967294
        }
      ],
      "vout": [
        {
          "value": 37.79854900,
          "n": 0,
          "scriptPubKey": {
            "asm": "OP_DUP OP_HASH160 bd2b14b1319efdd9e6f5f9331a60b10eb245c874 OP_EQUALVERIFY OP_CHECKSIG",
            "hex": "76a914bd2b14b1319efdd9e6f5f9331a60b10eb245c87488ac",
            "reqSigs": 1,
            "type": "pubkeyhash",
            "addresses": [
              "LcUBan3VrdMYLmYBTi49JFHiq9qvQ7FoF8"
            ]
          }
        }, 
        {
          "value": 1.00000000,
          "n": 1,
          "scriptPubKey": {
            "asm": "OP_DUP OP_HASH160 09a6145776cc8b0c4955c946237481b850806c06 OP_EQUALVERIFY OP_CHECKSIG",
            "hex": "76a91409a6145776cc8b0c4955c946237481b850806c0688ac",
            "reqSigs": 1,
            "type": "pubkeyhash",
            "addresses": [
              "LL6yJLptdav1eKBxiNwtJvSxp9jfxRBMap"
            ]
          }
        }
      ],
      "hex": "010000000115de5e819982847cc983da15b6fcb5f89bb5841196652fa6bb98e053df3d01be010000006a47304402204e2b39ff5db463e82221a02a1e139275b9081f3b27aa4be96f34bed7788ef35f022040ad733e27a0bad293bfee82cbf4a1460663f734cf93eb08f2fb0ce03de000620121024bc8726dc78250e8a63dd2ef00d944a91df01ff0d5b437130e646c243d2c0765feffffff0234024ce1000000001976a914bd2b14b1319efdd9e6f5f9331a60b10eb245c87488ac00e1f505000000001976a91409a6145776cc8b0c4955c946237481b850806c0688acceb61400"
    }, 
    {
      "txid": "f10ee5e2468b3d7e516e5bc6423a4325ab569de6ef5f0e829794722fe7de68d1",
      "hash": "f10ee5e2468b3d7e516e5bc6423a4325ab569de6ef5f0e829794722fe7de68d1",
      "version": 1,
      "size": 225,
      "vsize": 225,
      "locktime": 0,
      "vin": [
        {
          "txid": "c0262a4be9dd8462b26fb87215d557aeffce4bf323932cf9389b87a483db458c",
          "vout": 20,
          "scriptSig": {
            "asm": "3044022003cc3bfc71e3dbb91d8ddaa2707bcdbbf247984c8b205a9aef6d94432eaf25a90220276feed111c9ebf2cd5c3dffdf60bbc7d84c34308abc0c4ad7d2d2a2ee17dd2c[ALL] 031c865cf9e85ef6fa6f3bc2d215faee13bfa9f107de6aeea2813a1519e2f57d80",
            "hex": "473044022003cc3bfc71e3dbb91d8ddaa2707bcdbbf247984c8b205a9aef6d94432eaf25a90220276feed111c9ebf2cd5c3dffdf60bbc7d84c34308abc0c4ad7d2d2a2ee17dd2c0121031c865cf9e85ef6fa6f3bc2d215faee13bfa9f107de6aeea2813a1519e2f57d80"
          },
          "sequence": 4294967295
        }
      ],
      "vout": [
        {
          "value": 0.02123623,
          "n": 0,
          "scriptPubKey": {
            "asm": "OP_DUP OP_HASH160 502487dd5844257eb099cb5d91f63e1c80a0c4e5 OP_EQUALVERIFY OP_CHECKSIG",
            "hex": "76a914502487dd5844257eb099cb5d91f63e1c80a0c4e588ac",
            "reqSigs": 1,
            "type": "pubkeyhash",
            "addresses": [
              "LSXi5kwh3pUGdvESr4HJmaxLV7VWsyk2bf"
            ]
          }
        }, 
        {
          "value": 0.59590977,
          "n": 1,
          "scriptPubKey": {
            "asm": "OP_DUP OP_HASH160 3d4b3c0ef1fe7a8480d55b828c59c05d72edf8b2 OP_EQUALVERIFY OP_CHECKSIG",
            "hex": "76a9143d4b3c0ef1fe7a8480d55b828c59c05d72edf8b288ac",
            "reqSigs": 1,
            "type": "pubkeyhash",
            "addresses": [
              "LQp3cJjRVf4KuKuRrePuaAmKc1jnd54Bxh"
            ]
          }
        }
      ],
      "hex": "01000000018c45db83a4879b38f92c9323f34bceffae57d51572b86fb26284dde94b2a26c0140000006a473044022003cc3bfc71e3dbb91d8ddaa2707bcdbbf247984c8b205a9aef6d94432eaf25a90220276feed111c9ebf2cd5c3dffdf60bbc7d84c34308abc0c4ad7d2d2a2ee17dd2c0121031c865cf9e85ef6fa6f3bc2d215faee13bfa9f107de6aeea2813a1519e2f57d80ffffffff0267672000000000001976a914502487dd5844257eb099cb5d91f63e1c80a0c4e588ac41498d03000000001976a9143d4b3c0ef1fe7a8480d55b828c59c05d72edf8b288ac00000000"
    }, 
    {
      "txid": "742e187b26d2fdecb5c16331262b53b62d158f738eedd0f913e3ac442f3fedd6",
      "hash": "742e187b26d2fdecb5c16331262b53b62d158f738eedd0f913e3ac442f3fedd6",
      "version": 1,
      "size": 225,
      "vsize": 225,
      "locktime": 0,
      "vin": [
        {
          "txid": "bf9f903acb40b4196e8e555b9a074dde4ad626db3dd308fa168ee0cfcf6be430",
          "vout": 1,
          "scriptSig": {
            "asm": "3044022075cc4db82ecf041b1a4973e19863ada3a68cd640f2838ba4189db8732b3d0a970220385b8e22e00898b2aedf89606b99e1d7e264e6bb37a3711ff6e917efaece1ee9[ALL] 02403e12ed99191d9c9b9f02b7d6a3d9b2c8477ccd62b5e586e84919363c75d2b1",
            "hex": "473044022075cc4db82ecf041b1a4973e19863ada3a68cd640f2838ba4189db8732b3d0a970220385b8e22e00898b2aedf89606b99e1d7e264e6bb37a3711ff6e917efaece1ee9012102403e12ed99191d9c9b9f02b7d6a3d9b2c8477ccd62b5e586e84919363c75d2b1"
          },
          "sequence": 4294967295
        }
      ],
      "vout": [
        {
          "value": 1.00000000,
          "n": 0,
          "scriptPubKey": {
            "asm": "OP_DUP OP_HASH160 13bec1fcdf176d518096ccd4e45e362fe55578aa OP_EQUALVERIFY OP_CHECKSIG",
            "hex": "76a91413bec1fcdf176d518096ccd4e45e362fe55578aa88ac",
            "reqSigs": 1,
            "type": "pubkeyhash",
            "addresses": [
              "LM2McwTDxbqHzn5frnUcW55BRy4LL97fh4"
            ]
          }
        }, 
        {
          "value": 30.79825383,
          "n": 1,
          "scriptPubKey": {
            "asm": "OP_DUP OP_HASH160 d4c32477b5695e8a916260a9800a7490a6531c4e OP_EQUALVERIFY OP_CHECKSIG",
            "hex": "76a914d4c32477b5695e8a916260a9800a7490a6531c4e88ac",
            "reqSigs": 1,
            "type": "pubkeyhash",
            "addresses": [
              "LecwHchVHGQoLqpUZQz61uSDaZfRDcMxKi"
            ]
          }
        }
      ],
      "hex": "010000000130e46bcfcfe08e16fa08d33ddb26d64ade4d079a5b558e6e19b440cb3a909fbf010000006a473044022075cc4db82ecf041b1a4973e19863ada3a68cd640f2838ba4189db8732b3d0a970220385b8e22e00898b2aedf89606b99e1d7e264e6bb37a3711ff6e917efaece1ee9012102403e12ed99191d9c9b9f02b7d6a3d9b2c8477ccd62b5e586e84919363c75d2b1ffffffff0200e1f505000000001976a91413bec1fcdf176d518096ccd4e45e362fe55578aa88ace76792b7000000001976a914d4c32477b5695e8a916260a9800a7490a6531c4e88ac00000000"
    }, 
    {
      "txid": "8824322b7bfd219a0e62c8a77541d719113eed2a61a233c88eb720e6934c5748",
      "hash": "8824322b7bfd219a0e62c8a77541d719113eed2a61a233c88eb720e6934c5748",
      "version": 2,
      "size": 226,
      "vsize": 226,
      "locktime": 1357518,
      "vin": [
        {
          "txid": "2681623d79f07a4817690d4b21914bd8bb1597ed37b6089947f34e6e492ea162",
          "vout": 1,
          "scriptSig": {
            "asm": "30450221009378e81319cfeb66524bfa281e8ec845c802edb9b604975b1300b5711cdd8a5e02207baba3d098fdfc9503fe1d932cf09b1653f154b50138789d82eaaeaf2ea74699[ALL] 02b28f5de790d3062fb89307d7f46b11a04d55cd76cbe1a4b40900dce0d1d02e5e",
            "hex": "4830450221009378e81319cfeb66524bfa281e8ec845c802edb9b604975b1300b5711cdd8a5e02207baba3d098fdfc9503fe1d932cf09b1653f154b50138789d82eaaeaf2ea74699012102b28f5de790d3062fb89307d7f46b11a04d55cd76cbe1a4b40900dce0d1d02e5e"
          },
          "sequence": 4294967294
        }
      ],
      "vout": [
        {
          "value": 289.53868750,
          "n": 0,
          "scriptPubKey": {
            "asm": "OP_DUP OP_HASH160 b50f32924144084218a16982528c797ce9858433 OP_EQUALVERIFY OP_CHECKSIG",
            "hex": "76a914b50f32924144084218a16982528c797ce985843388ac",
            "reqSigs": 1,
            "type": "pubkeyhash",
            "addresses": [
              "LbjJmstX4LdumFQoZYsBrxEWL45BSwwsiL"
            ]
          }
        }, 
        {
          "value": 10.24329059,
          "n": 1,
          "scriptPubKey": {
            "asm": "OP_DUP OP_HASH160 ea6a94efc061aa9040bc418b7e5ac9edf8f42566 OP_EQUALVERIFY OP_CHECKSIG",
            "hex": "76a914ea6a94efc061aa9040bc418b7e5ac9edf8f4256688ac",
            "reqSigs": 1,
            "type": "pubkeyhash",
            "addresses": [
              "LgbS4XtpXtDfxNhtaL6sZ7zqsKx7Gk2wTf"
            ]
          }
        }
      ],
      "hex": "020000000162a12e496e4ef3479908b637ed9715bbd84b91214b0d6917487af0793d628126010000006b4830450221009378e81319cfeb66524bfa281e8ec845c802edb9b604975b1300b5711cdd8a5e02207baba3d098fdfc9503fe1d932cf09b1653f154b50138789d82eaaeaf2ea74699012102b28f5de790d3062fb89307d7f46b11a04d55cd76cbe1a4b40900dce0d1d02e5efeffffff02cef9c8bd060000001976a914b50f32924144084218a16982528c797ce985843388ac63050e3d000000001976a914ea6a94efc061aa9040bc418b7e5ac9edf8f4256688acceb61400"
    }, 
    {
      "txid": "0c800a81a2fc5d3086c66da369170330cfb295ea4f53a4fc6fd2fc0d61abf052",
      "hash": "0c800a81a2fc5d3086c66da369170330cfb295ea4f53a4fc6fd2fc0d61abf052",
      "version": 1,
      "size": 226,
      "vsize": 226,
      "locktime": 0,
      "vin": [
        {
          "txid": "ed6c3dc433c9628172d8d389afa6177aac8c6daf21fd6ac3f4d47021586ae337",
          "vout": 24,
          "scriptSig": {
            "asm": "3045022100a40d4dc07054b6438ca440fcef45f35333955ca6a78466f76be2e6be71dfd66302207be51a76f18696a2abbde98e76fddd067b9e6dd0d9379d94d09872c1295473e6[ALL] 023cc1bf07fac1bcf857f1b34dbde025f42293ead39831425f906d6bbcc19b2c47",
            "hex": "483045022100a40d4dc07054b6438ca440fcef45f35333955ca6a78466f76be2e6be71dfd66302207be51a76f18696a2abbde98e76fddd067b9e6dd0d9379d94d09872c1295473e60121023cc1bf07fac1bcf857f1b34dbde025f42293ead39831425f906d6bbcc19b2c47"
          },
          "sequence": 4294967295
        }
      ],
      "vout": [
        {
          "value": 0.09463377,
          "n": 0,
          "scriptPubKey": {
            "asm": "OP_DUP OP_HASH160 a8d32bcc68e018aacb1e9531ed587ebd0a3c98f4 OP_EQUALVERIFY OP_CHECKSIG",
            "hex": "76a914a8d32bcc68e018aacb1e9531ed587ebd0a3c98f488ac",
            "reqSigs": 1,
            "type": "pubkeyhash",
            "addresses": [
              "Laccks7sacpV5Axm6T8HiAHYq2wTma8FpQ"
            ]
          }
        }, 
        {
          "value": 0.00067684,
          "n": 1,
          "scriptPubKey": {
            "asm": "OP_DUP OP_HASH160 740a7bcced2689f4fb8f78029d797d77b3ffe9ef OP_EQUALVERIFY OP_CHECKSIG",
            "hex": "76a914740a7bcced2689f4fb8f78029d797d77b3ffe9ef88ac",
            "reqSigs": 1,
            "type": "pubkeyhash",
            "addresses": [
              "LVoXCstzEXEJ3EPvEFgtT21kbwWQrHkZ4T"
            ]
          }
        }
      ],
      "hex": "010000000137e36a582170d4f4c36afd21af6d8cac7a17a6af89d3d8728162c933c43d6ced180000006b483045022100a40d4dc07054b6438ca440fcef45f35333955ca6a78466f76be2e6be71dfd66302207be51a76f18696a2abbde98e76fddd067b9e6dd0d9379d94d09872c1295473e60121023cc1bf07fac1bcf857f1b34dbde025f42293ead39831425f906d6bbcc19b2c47ffffffff0251669000000000001976a914a8d32bcc68e018aacb1e9531ed587ebd0a3c98f488ac64080100000000001976a914740a7bcced2689f4fb8f78029d797d77b3ffe9ef88ac00000000"
    }, 
    {
      "txid": "ec0f7ce3e3bb40a6392dcb7cfb1143ba59fae4097b4d94714774fc0358f78382",
      "hash": "ec0f7ce3e3bb40a6392dcb7cfb1143ba59fae4097b4d94714774fc0358f78382",
      "version": 1,
      "size": 226,
      "vsize": 226,
      "locktime": 1357518,
      "vin": [
        {
          "txid": "0358fdf6cb8e55756c12504a40c35aa7fbf7e08c924f6a4753e318f58fcb15cb",
          "vout": 0,
          "scriptSig": {
            "asm": "3045022100b2459ce09076821f147aec76fd6be94d3b5423169758a4722ad02554762a28f7022044bf2f12fa3ab0c8bdc71c80d2ff3acc6d508420e27a96d1343593663d5046d2[ALL] 02d182be20db7c7334e17934e1c768a1bafd4d2026c390b4c7132457eb84cf1d13",
            "hex": "483045022100b2459ce09076821f147aec76fd6be94d3b5423169758a4722ad02554762a28f7022044bf2f12fa3ab0c8bdc71c80d2ff3acc6d508420e27a96d1343593663d5046d2012102d182be20db7c7334e17934e1c768a1bafd4d2026c390b4c7132457eb84cf1d13"
          },
          "sequence": 4294967294
        }
      ],
      "vout": [
        {
          "value": 0.99000000,
          "n": 0,
          "scriptPubKey": {
            "asm": "OP_DUP OP_HASH160 ab1179672097c4f4ea685efc5031fb70453052d9 OP_EQUALVERIFY OP_CHECKSIG",
            "hex": "76a914ab1179672097c4f4ea685efc5031fb70453052d988ac",
            "reqSigs": 1,
            "type": "pubkeyhash",
            "addresses": [
              "LapUk9U48MppZBrSjesHXk3oFDeymNgQvh"
            ]
          }
        }, 
        {
          "value": 37.15939253,
          "n": 1,
          "scriptPubKey": {
            "asm": "OP_DUP OP_HASH160 59bc74e8687ee2e2f7e771247c08b8d4f4f92035 OP_EQUALVERIFY OP_CHECKSIG",
            "hex": "76a91459bc74e8687ee2e2f7e771247c08b8d4f4f9203588ac",
            "reqSigs": 1,
            "type": "pubkeyhash",
            "addresses": [
              "LTQSAV5nNbYxt8qCjSx5j9DAFrwXPEJyzH"
            ]
          }
        }
      ],
      "hex": "0100000001cb15cb8ff518e353476a4f928ce0f7fba75ac3404a50126c75558ecbf6fd5803000000006b483045022100b2459ce09076821f147aec76fd6be94d3b5423169758a4722ad02554762a28f7022044bf2f12fa3ab0c8bdc71c80d2ff3acc6d508420e27a96d1343593663d5046d2012102d182be20db7c7334e17934e1c768a1bafd4d2026c390b4c7132457eb84cf1d13feffffff02c09ee605000000001976a914ab1179672097c4f4ea685efc5031fb70453052d988acb5bb7cdd000000001976a91459bc74e8687ee2e2f7e771247c08b8d4f4f9203588acceb61400"
    }, 
    {
      "txid": "1005595ea7ecae2ebae9220c7981213be1c9bee3b8fd430756ce29c01dd81dc5",
      "hash": "1005595ea7ecae2ebae9220c7981213be1c9bee3b8fd430756ce29c01dd81dc5",
      "version": 1,
      "size": 226,
      "vsize": 226,
      "locktime": 1357518,
      "vin": [
        {
          "txid": "a9f88067dc55a56a235b96aeaef484179c53f4e799f4b62489051a1dce28c2b4",
          "vout": 0,
          "scriptSig": {
            "asm": "3045022100c07984751b4f56b39b1b6f228e4cf7db0f4a579e75b2e796b65d3f9b5f28fcc102204550d34983fd58fe284bb95b2e394e051702a2e22d7a6b79803dbc9c3c30f084[ALL] 02dd4bfc021e1249da74886097bf61b681bf5ca2c433a6abba6fe11b10239661f3",
            "hex": "483045022100c07984751b4f56b39b1b6f228e4cf7db0f4a579e75b2e796b65d3f9b5f28fcc102204550d34983fd58fe284bb95b2e394e051702a2e22d7a6b79803dbc9c3c30f084012102dd4bfc021e1249da74886097bf61b681bf5ca2c433a6abba6fe11b10239661f3"
          },
          "sequence": 4294967294
        }
      ],
      "vout": [
        {
          "value": 2.35000000,
          "n": 0,
          "scriptPubKey": {
            "asm": "OP_DUP OP_HASH160 5e26a455604a26a1b97c85d75723b5caf07cfa51 OP_EQUALVERIFY OP_CHECKSIG",
            "hex": "76a9145e26a455604a26a1b97c85d75723b5caf07cfa5188ac",
            "reqSigs": 1,
            "type": "pubkeyhash",
            "addresses": [
              "LTon58gcNnL9UKjwCdRdphWuWAVteC635d"
            ]
          }
        }, 
        {
          "value": 36.48741200,
          "n": 1,
          "scriptPubKey": {
            "asm": "OP_DUP OP_HASH160 bd1736fa80f1b9a8d003e8bd392ec4362bd4f16b OP_EQUALVERIFY OP_CHECKSIG",
            "hex": "76a914bd1736fa80f1b9a8d003e8bd392ec4362bd4f16b88ac",
            "reqSigs": 1,
            "type": "pubkeyhash",
            "addresses": [
              "LcTmnTZWbzktwy2FMky7hYwnMg6fU6HAzG"
            ]
          }
        }
      ],
      "hex": "0100000001b4c228ce1d1a058924b6f499e7f4539c1784f4aeae965b236aa555dc6780f8a9000000006b483045022100c07984751b4f56b39b1b6f228e4cf7db0f4a579e75b2e796b65d3f9b5f28fcc102204550d34983fd58fe284bb95b2e394e051702a2e22d7a6b79803dbc9c3c30f084012102dd4bfc021e1249da74886097bf61b681bf5ca2c433a6abba6fe11b10239661f3feffffff02c0d0010e000000001976a9145e26a455604a26a1b97c85d75723b5caf07cfa5188ac505f7bd9000000001976a914bd1736fa80f1b9a8d003e8bd392ec4362bd4f16b88acceb61400"
    }, 
    {
      "txid": "5bbdbd08e3f5e080373a0ab9345d10d0005a229eb7b16681dae43b8680c1dbda",
      "hash": "5bbdbd08e3f5e080373a0ab9345d10d0005a229eb7b16681dae43b8680c1dbda",
      "version": 1,
      "size": 226,
      "vsize": 226,
      "locktime": 0,
      "vin": [
        {
          "txid": "94c286e7e3bc5b2f5797988ca8ab9f5c2cd4ec0fa903da8a44efa6d9a122da9c",
          "vout": 1,
          "scriptSig": {
            "asm": "3045022100b63d76eea78bd4e63eefaed8be0852284dc56119833bc03a09d3941186256f030220785bdce21cf62d9da343bb2114678402e727202c147df4c05970cf533e6dc9dd[ALL] 021fe67a66f4808873dd8b7b50fd0ca8eb3e4c7453bec43379155c80af3d68986c",
            "hex": "483045022100b63d76eea78bd4e63eefaed8be0852284dc56119833bc03a09d3941186256f030220785bdce21cf62d9da343bb2114678402e727202c147df4c05970cf533e6dc9dd0121021fe67a66f4808873dd8b7b50fd0ca8eb3e4c7453bec43379155c80af3d68986c"
          },
          "sequence": 4294967295
        }
      ],
      "vout": [
        {
          "value": 1.11543826,
          "n": 0,
          "scriptPubKey": {
            "asm": "OP_DUP OP_HASH160 700529e058ba1ca1d877ce5162a6211b9a9c37b7 OP_EQUALVERIFY OP_CHECKSIG",
            "hex": "76a914700529e058ba1ca1d877ce5162a6211b9a9c37b788ac",
            "reqSigs": 1,
            "type": "pubkeyhash",
            "addresses": [
              "LVSG8UCi1YKWRHp6e1cTVg6NaS2msfpNJK"
            ]
          }
        }, 
        {
          "value": 38.99457525,
          "n": 1,
          "scriptPubKey": {
            "asm": "OP_DUP OP_HASH160 17e90dfe48d8b23b7b0aa9e6ae7c876aa37507b4 OP_EQUALVERIFY OP_CHECKSIG",
            "hex": "76a91417e90dfe48d8b23b7b0aa9e6ae7c876aa37507b488ac",
            "reqSigs": 1,
            "type": "pubkeyhash",
            "addresses": [
              "LMQNzYfu7jKtqzwgMBdokCSZk3ovB7AfFt"
            ]
          }
        }
      ],
      "hex": "01000000019cda22a1d9a6ef448ada03a90fecd42c5c9faba88c9897572f5bbce3e786c294010000006b483045022100b63d76eea78bd4e63eefaed8be0852284dc56119833bc03a09d3941186256f030220785bdce21cf62d9da343bb2114678402e727202c147df4c05970cf533e6dc9dd0121021fe67a66f4808873dd8b7b50fd0ca8eb3e4c7453bec43379155c80af3d68986cffffffff021206a606000000001976a914700529e058ba1ca1d877ce5162a6211b9a9c37b788acf5ff6ce8000000001976a91417e90dfe48d8b23b7b0aa9e6ae7c876aa37507b488ac00000000"
    }, 
    {
      "txid": "9155949fc7d42e0cea39229637057777d0edf1271c547bfca8f29430f0f6ffec",
      "hash": "9155949fc7d42e0cea39229637057777d0edf1271c547bfca8f29430f0f6ffec",
      "version": 1,
      "size": 226,
      "vsize": 226,
      "locktime": 0,
      "vin": [
        {
          "txid": "0742c3bcf7ca874904a09988a25cc1674c109845305489186b8c40c614b9d1ae",
          "vout": 0,
          "scriptSig": {
            "asm": "3045022100bf09aca823915e2a3352cbe5adc91fb7f5ce870a60187aca01782c87a591e8f202204f9345810e9461ec35c6135d9ee0f0accaeed37a07d74bec409f4682e98616fc[ALL] 037bfa671c9f12507ef0183d21b341d990516b283397776adb53b7bc6ec287bf47",
            "hex": "483045022100bf09aca823915e2a3352cbe5adc91fb7f5ce870a60187aca01782c87a591e8f202204f9345810e9461ec35c6135d9ee0f0accaeed37a07d74bec409f4682e98616fc0121037bfa671c9f12507ef0183d21b341d990516b283397776adb53b7bc6ec287bf47"
          },
          "sequence": 4294967295
        }
      ],
      "vout": [
        {
          "value": 39.09378397,
          "n": 0,
          "scriptPubKey": {
            "asm": "OP_DUP OP_HASH160 568d4ee90a8318c4f4b95dd187d217b21f0f441b OP_EQUALVERIFY OP_CHECKSIG",
            "hex": "76a914568d4ee90a8318c4f4b95dd187d217b21f0f441b88ac",
            "reqSigs": 1,
            "type": "pubkeyhash",
            "addresses": [
              "LT7beykeSLcYYJRUqZQNEo287hsgDTVPy3"
            ]
          }
        }, 
        {
          "value": 0.66037845,
          "n": 1,
          "scriptPubKey": {
            "asm": "OP_DUP OP_HASH160 cd427996ce258827616be88fda2534f222d6686d OP_EQUALVERIFY OP_CHECKSIG",
            "hex": "76a914cd427996ce258827616be88fda2534f222d6686d88ac",
            "reqSigs": 1,
            "type": "pubkeyhash",
            "addresses": [
              "LdwGRJJxbZhWqcyH3s7kKmAx4Qb9XDGV7Z"
            ]
          }
        }
      ],
      "hex": "0100000001aed1b914c6408c6b188954304598104c67c15ca28899a0044987caf7bcc34207000000006b483045022100bf09aca823915e2a3352cbe5adc91fb7f5ce870a60187aca01782c87a591e8f202204f9345810e9461ec35c6135d9ee0f0accaeed37a07d74bec409f4682e98616fc0121037bfa671c9f12507ef0183d21b341d990516b283397776adb53b7bc6ec287bf47ffffffff025d6104e9000000001976a914568d4ee90a8318c4f4b95dd187d217b21f0f441b88ac55a8ef03000000001976a914cd427996ce258827616be88fda2534f222d6686d88ac00000000"
    }
  ],
  "time": 1517012772,
  "mediantime": 1517011648,
  "nonce": 371823292,
  "bits": "1a047f14",
  "difficulty": 3731199.183374282,
  "chainwork": "0000000000000000000000000000000000000000000000324bc1b6d180b8a03a",
  "previousblockhash": "4252336ff3000c28403fab65839c889c0ddbda07dc5fe8e8a86d8d6bd725f3bc",
  "nextblockhash": "bdb1d768a9c824ebecfeb83b1cee86d547fdb179936f3575f01777e29dc567f9"
}
