{
  "hash": "363d02479adb827630d4ca4a98504efd96ebd9e9a36103d31f16cc299c8ee170",
  "confirmations": 935,
  "strippedsize": 1000,
  "size": 1036,
  "weight": 4036,
  "height": 1360059,
  "version": 536870912,
  "versionHex": "20000000",
  "merkleroot": "7aac0aecaaf20ca64c53678ffcea58b20b421f903fb8bcd8faf77882026c3938",
  "tx": [
    {
      "txid": "6aa9c4580714bc791edcf63e6ae9ca922811915c0db4927741e8a39d87981dd4",
      "hash": "f52fbeaa54d6bcbc6239bc5260414a36bb99bb92bfbc3955250161930aec6828",
      "version": 1,
      "size": 277,
      "vsize": 250,
      "locktime": 950338152,
      "vin": [
        {
          "coinbase": "03bbc0142cfabe6d6dc4dc94840db94a14d51c94110b0c9f29b4bb9baa9fc204c206a12203a3502eca08000000f09f909f154d696e65642062792072656e6a69616e796a3838380000000000000000000000000000000000000000000000000000000000",
          "sequence": 4
        }
      ],
      "vout": [
        {
          "value": 25.00067800,
          "n": 0,
          "scriptPubKey": {
            "asm": "OP_DUP OP_HASH160 aa3750aa18b8a0f3f0590731e1fab934856680cf OP_EQUALVERIFY OP_CHECKSIG",
            "hex": "76a914aa3750aa18b8a0f3f0590731e1fab934856680cf88ac",
            "reqSigs": 1,
            "type": "pubkeyhash",
            "addresses": [
              "LajyQBeZaBA1NkZDeY8YT5RYYVRkXMvb2T"
            ]
          }
        }, 
        {
          "value": 0.00000000,
          "n": 1,
          "scriptPubKey": {
            "asm": "OP_RETURN aa21a9ed84e20ddb0d3655ba2292964e0f22ba09ecbc7ceb1c208b35041dd62cb2370be8 0000000000000000",
            "hex": "6a24aa21a9ed84e20ddb0d3655ba2292964e0f22ba09ecbc7ceb1c208b35041dd62cb2370be8080000000000000000",
            "type": "nulldata"
          }
        }
      ],
      "hex": "010000000001010000000000000000000000000000000000000000000000000000000000000000ffffffff6403bbc0142cfabe6d6dc4dc94840db94a14d51c94110b0c9f29b4bb9baa9fc204c206a12203a3502eca08000000f09f909f154d696e65642062792072656e6a69616e796a38383800000000000000000000000000000000000000000000000000000000000400000002d8010495000000001976a914aa3750aa18b8a0f3f0590731e1fab934856680cf88ac00000000000000002f6a24aa21a9ed84e20ddb0d3655ba2292964e0f22ba09ecbc7ceb1c208b35041dd62cb2370be8080000000000000000012000000000000000000000000000000000000000000000000000000000000000006802a538"
    }, 
    {
      "txid": "f21459631d067bdd8c2a1f067c46cb471ece4965fd6cbccce48815d62c87608f",
      "hash": "f21459631d067bdd8c2a1f067c46cb471ece4965fd6cbccce48815d62c87608f",
      "version": 2,
      "size": 226,
      "vsize": 226,
      "locktime": 1360057,
      "vin": [
        {
          "txid": "f22d2a98fd35492b4d91bf6d8c063139437cc1ca570eb5b11ac99cedecab9113",
          "vout": 0,
          "scriptSig": {
            "asm": "304502210088f76bbcbf8522189c5814512c56b990354fcb456820033d176ce2efe5a72c4b02200b3447bb84b0603d1ed897a03a41f7b49aa18051effde265e44565447e066343[ALL] 037de1538a44eddc887c106aa87cb40374bc8e0d180da327239f45bdcb975d8c5f",
            "hex": "48304502210088f76bbcbf8522189c5814512c56b990354fcb456820033d176ce2efe5a72c4b02200b3447bb84b0603d1ed897a03a41f7b49aa18051effde265e44565447e0663430121037de1538a44eddc887c106aa87cb40374bc8e0d180da327239f45bdcb975d8c5f"
          },
          "sequence": 4294967294
        }
      ],
      "vout": [
        {
          "value": 0.10800000,
          "n": 0,
          "scriptPubKey": {
            "asm": "OP_DUP OP_HASH160 346b01c99d2b6c25e99a3f71a7a8eb2c46f601e7 OP_EQUALVERIFY OP_CHECKSIG",
            "hex": "76a914346b01c99d2b6c25e99a3f71a7a8eb2c46f601e788ac",
            "reqSigs": 1,
            "type": "pubkeyhash",
            "addresses": [
              "LQ17bASuzUuJbw1rJ8JrKtUZcR6TfHZrTF"
            ]
          }
        }, 
        {
          "value": 0.57544200,
          "n": 1,
          "scriptPubKey": {
            "asm": "OP_DUP OP_HASH160 8086aea04d8cca5a65deace69200d6ae8c9d7f9e OP_EQUALVERIFY OP_CHECKSIG",
            "hex": "76a9148086aea04d8cca5a65deace69200d6ae8c9d7f9e88ac",
            "reqSigs": 1,
            "type": "pubkeyhash",
            "addresses": [
              "LWwY6eRPq1u7Fe7cnGWQtJTFGfWgkStwxq"
            ]
          }
        }
      ],
      "hex": "02000000011391abeced9cc91ab1b50e57cac17c433931068c6dbf914d2b4935fd982a2df2000000006b48304502210088f76bbcbf8522189c5814512c56b990354fcb456820033d176ce2efe5a72c4b02200b3447bb84b0603d1ed897a03a41f7b49aa18051effde265e44565447e0663430121037de1538a44eddc887c106aa87cb40374bc8e0d180da327239f45bdcb975d8c5ffeffffff0280cba400000000001976a914346b01c99d2b6c25e99a3f71a7a8eb2c46f601e788ac080e6e03000000001976a9148086aea04d8cca5a65deace69200d6ae8c9d7f9e88acb9c01400"
    }, 
    {
      "txid": "3334659ee985d50e2e20cf41adf8470ed837d4a229a66f154f46adb2b6f718a4",
      "hash": "3334659ee985d50e2e20cf41adf8470ed837d4a229a66f154f46adb2b6f718a4",
      "version": 2,
      "size": 226,
      "vsize": 226,
      "locktime": 1360057,
      "vin": [
        {
          "txid": "813f3aeb609e6af88394ba061a01a633caf0b07d685c49f9c4486b3733919bd2",
          "vout": 1,
          "scriptSig": {
            "asm": "3045022100de0a82d050fc691ed09f7507e67448488a69b127191b49c5831ec7ae0b9e9853022029de6a3981f3d8fcb84845dbe1c58d70f57a45c4576d89f4a50bbbf956ca7bc5[ALL] 022a107f51fd12fe713c741795ad16bf4b6fd8204fe016cb2fca049fe1d70b4275",
            "hex": "483045022100de0a82d050fc691ed09f7507e67448488a69b127191b49c5831ec7ae0b9e9853022029de6a3981f3d8fcb84845dbe1c58d70f57a45c4576d89f4a50bbbf956ca7bc50121022a107f51fd12fe713c741795ad16bf4b6fd8204fe016cb2fca049fe1d70b4275"
          },
          "sequence": 4294967294
        }
      ],
      "vout": [
        {
          "value": 0.74000000,
          "n": 0,
          "scriptPubKey": {
            "asm": "OP_DUP OP_HASH160 90bbc22fb4482b01ae26be4c02d51aa446766151 OP_EQUALVERIFY OP_CHECKSIG",
            "hex": "76a91490bbc22fb4482b01ae26be4c02d51aa44676615188ac",
            "reqSigs": 1,
            "type": "pubkeyhash",
            "addresses": [
              "LYREVXckwRHunR3wfdRpbMoo5SnMbJShCj"
            ]
          }
        }, 
        {
          "value": 0.13798456,
          "n": 1,
          "scriptPubKey": {
            "asm": "OP_DUP OP_HASH160 4c95183afb25309b4e8077992e964ad8569ecf3c OP_EQUALVERIFY OP_CHECKSIG",
            "hex": "76a9144c95183afb25309b4e8077992e964ad8569ecf3c88ac",
            "reqSigs": 1,
            "type": "pubkeyhash",
            "addresses": [
              "LSCtE51ncGvHGGXUhH1pqntLKqkb54m7vY"
            ]
          }
        }
      ],
      "hex": "0200000001d29b9133376b48c4f9495c687db0f0ca33a6011a06ba9483f86a9e60eb3a3f81010000006b483045022100de0a82d050fc691ed09f7507e67448488a69b127191b49c5831ec7ae0b9e9853022029de6a3981f3d8fcb84845dbe1c58d70f57a45c4576d89f4a50bbbf956ca7bc50121022a107f51fd12fe713c741795ad16bf4b6fd8204fe016cb2fca049fe1d70b4275feffffff0280266904000000001976a91490bbc22fb4482b01ae26be4c02d51aa44676615188ac388cd200000000001976a9144c95183afb25309b4e8077992e964ad8569ecf3c88acb9c01400"
    }, 
    {
      "txid": "809ac14dee70f11343ae51687684d94b5f3af8be15843388695d6327ecc3e6f3",
      "hash": "809ac14dee70f11343ae51687684d94b5f3af8be15843388695d6327ecc3e6f3",
      "version": 1,
      "size": 226,
      "vsize": 226,
      "locktime": 0,
      "vin": [
        {
          "txid": "1fc88c857f5c4273213504fc702ee4ac3f49067cfee3c5b4cfcb28bdf6d57e1e",
          "vout": 1,
          "scriptSig": {
            "asm": "3045022100d0c733bf799a937ef1e79010d447c908e0ab3bdc62b0a84c606706080595e67a022044b5a52429b23e09823bb8600b12a5e662bb09735f06f604eef3f6142a76e77e[ALL] 03cd0170a286fbd2f9b113b5e609320b209e837ab5aa51e87e84b4fec55fa44dfd",
            "hex": "483045022100d0c733bf799a937ef1e79010d447c908e0ab3bdc62b0a84c606706080595e67a022044b5a52429b23e09823bb8600b12a5e662bb09735f06f604eef3f6142a76e77e012103cd0170a286fbd2f9b113b5e609320b209e837ab5aa51e87e84b4fec55fa44dfd"
          },
          "sequence": 4294967295
        }
      ],
      "vout": [
        {
          "value": 0.35285802,
          "n": 0,
          "scriptPubKey": {
            "asm": "OP_DUP OP_HASH160 99ef3cfe6894c4d4f113d7f1cfc1c92c0f127e40 OP_EQUALVERIFY OP_CHECKSIG",
            "hex": "76a91499ef3cfe6894c4d4f113d7f1cfc1c92c0f127e4088ac",
            "reqSigs": 1,
            "type": "pubkeyhash",
            "addresses": [
              "LZFtF8Qn5yeBdU6kHk1q3izp3RVgG5ETfj"
            ]
          }
        }, 
        {
          "value": 0.02819998,
          "n": 1,
          "scriptPubKey": {
            "asm": "OP_DUP OP_HASH160 70ac755434bd4477da31aac90e9f37fdc4da0922 OP_EQUALVERIFY OP_CHECKSIG",
            "hex": "76a91470ac755434bd4477da31aac90e9f37fdc4da092288ac",
            "reqSigs": 1,
            "type": "pubkeyhash",
            "addresses": [
              "LVViYK3Tz1KS9J8DXXPCJPMbzispSE25jU"
            ]
          }
        }
      ],
      "hex": "01000000011e7ed5f6bd28cbcfb4c5e3fe7c06493face42e70fc04352173425c7f858cc81f010000006b483045022100d0c733bf799a937ef1e79010d447c908e0ab3bdc62b0a84c606706080595e67a022044b5a52429b23e09823bb8600b12a5e662bb09735f06f604eef3f6142a76e77e012103cd0170a286fbd2f9b113b5e609320b209e837ab5aa51e87e84b4fec55fa44dfdffffffff022a6b1a02000000001976a91499ef3cfe6894c4d4f113d7f1cfc1c92c0f127e4088ac9e072b00000000001976a91470ac755434bd4477da31aac90e9f37fdc4da092288ac00000000"
    }
  ],
  "time": 1517368877,
  "mediantime": 1517368558,
  "nonce": 4213490820,
  "bits": "1a042eae",
  "difficulty": 4011378.762614286,
  "chainwork": "00000000000000000000000000000000000000000000003495bd85cb02448878",
  "previousblockhash": "f2487945f16960252ebff28fa960ab2b37d5e28610604a7d23a3b6677e8d4f42",
  "nextblockhash": "2b4bfe82553b75124389da4370c95791db54892fc220aa26997cef394fa742e1"
}
