{
  "hash": "369a353c48b5044586e31fab27fe876988f76a41857eb5ab27d942ccafda8503",
  "confirmations": 2015,
  "strippedsize": 254,
  "size": 254,
  "weight": 1016,
  "height": 1358979,
  "version": 536870912,
  "versionHex": "20000000",
  "merkleroot": "15124d228d327e18663043bc6815c1adb36d052bf717df1d798adf3e3b7dcca9",
  "tx": [
    {
      "txid": "15124d228d327e18663043bc6815c1adb36d052bf717df1d798adf3e3b7dcca9",
      "hash": "15124d228d327e18663043bc6815c1adb36d052bf717df1d798adf3e3b7dcca9",
      "version": 1,
      "size": 173,
      "vsize": 173,
      "locktime": 0,
      "vin": [
        {
          "coinbase": "0383bc141b4d696e656420627920416e74506f6f6c20626a312045205a6ef11afabe6d6d5e24b137e99db0996f5cd3e173d5c963574160815b30b36d8c87984c183050fa040000000000000060030000000000001b000000",
          "sequence": 4294967295
        }
      ],
      "vout": [
        {
          "value": 25.00000000,
          "n": 0,
          "scriptPubKey": {
            "asm": "OP_DUP OP_HASH160 0ff3ccc5e8be88afe24b5d634e5852d474dbdff1 OP_EQUALVERIFY OP_CHECKSIG",
            "hex": "76a9140ff3ccc5e8be88afe24b5d634e5852d474dbdff188ac",
            "reqSigs": 1,
            "type": "pubkeyhash",
            "addresses": [
              "LLgJTbzZMsRTCUF1NtvvL9SR1a4pVieW89"
            ]
          }
        }
      ],
      "hex": "01000000010000000000000000000000000000000000000000000000000000000000000000ffffffff580383bc141b4d696e656420627920416e74506f6f6c20626a312045205a6ef11afabe6d6d5e24b137e99db0996f5cd3e173d5c963574160815b30b36d8c87984c183050fa040000000000000060030000000000001b000000ffffffff0100f90295000000001976a9140ff3ccc5e8be88afe24b5d634e5852d474dbdff188ac00000000"
    }
  ],
  "time": 1517220122,
  "mediantime": 1517219820,
  "nonce": 657044392,
  "bits": "1a042eae",
  "difficulty": 4011378.762614286,
  "chainwork": "00000000000000000000000000000000000000000000003393830768e4496c08",
  "previousblockhash": "f9096cfaed4db205a2e3631038f77367c73986a7ae467032925c2cc9009d0867",
  "nextblockhash": "0554f514c199397ea87f2c123a40ac4ec566e2baed8e0994736b6f412c51eaf6"
}
