{
  "hash": "36a9dcebbcda1009be70bd4d9329ea8384975fc07bfaf3028688e890128e6bc0",
  "confirmations": 1816,
  "strippedsize": 2316,
  "size": 2352,
  "weight": 9300,
  "height": 1359178,
  "version": 536870912,
  "versionHex": "20000000",
  "merkleroot": "5bc07707dba939ace91c3d8e206e14a1070530b518dcd2fda2fcdeb1bcf27884",
  "tx": [
    {
      "txid": "749c072b0cda395599db8fb35380df4330cbc1d6b38baa7d7410d11308fa9d22",
      "hash": "1d2e6f7e79aa610bf1b0c03d5b082b318d8a527d6d35cb5c4c0ea6de5ef157d7",
      "version": 1,
      "size": 244,
      "vsize": 217,
      "locktime": 0,
      "vin": [
        {
          "coinbase": "034abd1404795b6f5a080367dea52e000000fabe6d6d2412955289e93a7eaa7d91e2ef4634717c9262ced4f98ca735479dc97fa31b4a40000000000000000d2f6e6f64655374726174756d2f",
          "sequence": 0
        }
      ],
      "vout": [
        {
          "value": 25.00504771,
          "n": 0,
          "scriptPubKey": {
            "asm": "OP_DUP OP_HASH160 0c617fdb2ea42aed30a509595ee21ba3f6688db0 OP_EQUALVERIFY OP_CHECKSIG",
            "hex": "76a9140c617fdb2ea42aed30a509595ee21ba3f6688db088ac",
            "reqSigs": 1,
            "type": "pubkeyhash",
            "addresses": [
              "LLMRAtr3qBje2ySEa3CnZ55LA4TQMWnRY3"
            ]
          }
        }, 
        {
          "value": 0.00000000,
          "n": 1,
          "scriptPubKey": {
            "asm": "OP_RETURN aa21a9ed47715267e23a3a05375fbe704338d590fe3d645d9d71f25064293d9dc9b1991c",
            "hex": "6a24aa21a9ed47715267e23a3a05375fbe704338d590fe3d645d9d71f25064293d9dc9b1991c",
            "type": "nulldata"
          }
        }
      ],
      "hex": "010000000001010000000000000000000000000000000000000000000000000000000000000000ffffffff4c034abd1404795b6f5a080367dea52e000000fabe6d6d2412955289e93a7eaa7d91e2ef4634717c9262ced4f98ca735479dc97fa31b4a40000000000000000d2f6e6f64655374726174756d2f0000000002c3ac0a95000000001976a9140c617fdb2ea42aed30a509595ee21ba3f6688db088ac0000000000000000266a24aa21a9ed47715267e23a3a05375fbe704338d590fe3d645d9d71f25064293d9dc9b1991c0120000000000000000000000000000000000000000000000000000000000000000000000000"
    }, 
    {
      "txid": "ed8d96504be54fa42549913d3458b1830663dc2fc4df01f9b6466b1d21fdf017",
      "hash": "ed8d96504be54fa42549913d3458b1830663dc2fc4df01f9b6466b1d21fdf017",
      "version": 1,
      "size": 225,
      "vsize": 225,
      "locktime": 0,
      "vin": [
        {
          "txid": "b4e2424ead01b4bdada17ba0d8960b06bef68fdd36c54d73ac2a36a6051949f2",
          "vout": 1,
          "scriptSig": {
            "asm": "304402207262d1bf1be4162840205d7449a73e5effe021380d544903f941f1c263bbc7a5022051edc99b5dc3c5acc36026608483ee5638e7e23c45ddde4dccfc9d3bcba7d3e3[ALL] 0223508745c5c2ee6718c7fde683f45485244217be10f464a0c0b76fec5ae86dcd",
            "hex": "47304402207262d1bf1be4162840205d7449a73e5effe021380d544903f941f1c263bbc7a5022051edc99b5dc3c5acc36026608483ee5638e7e23c45ddde4dccfc9d3bcba7d3e301210223508745c5c2ee6718c7fde683f45485244217be10f464a0c0b76fec5ae86dcd"
          },
          "sequence": 4294967295
        }
      ],
      "vout": [
        {
          "value": 0.79900000,
          "n": 0,
          "scriptPubKey": {
            "asm": "OP_DUP OP_HASH160 ecb3ee4495b5fd9a309ca57d75a62b9d08b2d9b6 OP_EQUALVERIFY OP_CHECKSIG",
            "hex": "76a914ecb3ee4495b5fd9a309ca57d75a62b9d08b2d9b688ac",
            "reqSigs": 1,
            "type": "pubkeyhash",
            "addresses": [
              "LgoXHHs5AqP6NvQtG9tfEfSepTrnmU2vGG"
            ]
          }
        }, 
        {
          "value": 160.99607775,
          "n": 1,
          "scriptPubKey": {
            "asm": "OP_DUP OP_HASH160 75b741204db143dfb7ac56d6a237316f52d31766 OP_EQUALVERIFY OP_CHECKSIG",
            "hex": "76a91475b741204db143dfb7ac56d6a237316f52d3176688ac",
            "reqSigs": 1,
            "type": "pubkeyhash",
            "addresses": [
              "LVxNrPvYySv968Zd5px1uLnc3p9kuSG5ei"
            ]
          }
        }
      ],
      "hex": "0100000001f2491905a6362aac734dc536dd8ff6be060b96d8a07ba1adbdb401ad4e42e2b4010000006a47304402207262d1bf1be4162840205d7449a73e5effe021380d544903f941f1c263bbc7a5022051edc99b5dc3c5acc36026608483ee5638e7e23c45ddde4dccfc9d3bcba7d3e301210223508745c5c2ee6718c7fde683f45485244217be10f464a0c0b76fec5ae86dcdffffffff02602dc304000000001976a914ecb3ee4495b5fd9a309ca57d75a62b9d08b2d9b688acdf849cbf030000001976a91475b741204db143dfb7ac56d6a237316f52d3176688ac00000000"
    }, 
    {
      "txid": "45296b591ad874858897899eae744bacbf454cf153ee6e63c486eed2ad2fe744",
      "hash": "45296b591ad874858897899eae744bacbf454cf153ee6e63c486eed2ad2fe744",
      "version": 1,
      "size": 226,
      "vsize": 226,
      "locktime": 0,
      "vin": [
        {
          "txid": "a7fd2938467ae7c3428eda6e6b80477188ee635ece1f5743fd641a72f62f92d9",
          "vout": 1,
          "scriptSig": {
            "asm": "3045022100fe35e6c9fcc75160d21165c3d456a19d2364349c07fd9d78763eee5de0c446fe022030e6bef75b4700c454dda114058526d8107db87380b2f5f620edff916266c041[ALL] 03124cc9de1f2e3e4f96624fffde4483e5fd7e91a512cc2907542153e0770a9bd1",
            "hex": "483045022100fe35e6c9fcc75160d21165c3d456a19d2364349c07fd9d78763eee5de0c446fe022030e6bef75b4700c454dda114058526d8107db87380b2f5f620edff916266c041012103124cc9de1f2e3e4f96624fffde4483e5fd7e91a512cc2907542153e0770a9bd1"
          },
          "sequence": 4294967295
        }
      ],
      "vout": [
        {
          "value": 6.79900000,
          "n": 0,
          "scriptPubKey": {
            "asm": "OP_DUP OP_HASH160 bb668ed34f8b9dfa099ebcfc0ff5a943e748b8c6 OP_EQUALVERIFY OP_CHECKSIG",
            "hex": "76a914bb668ed34f8b9dfa099ebcfc0ff5a943e748b8c688ac",
            "reqSigs": 1,
            "type": "pubkeyhash",
            "addresses": [
              "LcJqUw82nscxAci15NLzvyejnoRegcoWWL"
            ]
          }
        }, 
        {
          "value": 154.98473853,
          "n": 1,
          "scriptPubKey": {
            "asm": "OP_DUP OP_HASH160 f60276a8c7689694966dd17beb9232a1ed4dfd47 OP_EQUALVERIFY OP_CHECKSIG",
            "hex": "76a914f60276a8c7689694966dd17beb9232a1ed4dfd4788ac",
            "reqSigs": 1,
            "type": "pubkeyhash",
            "addresses": [
              "LhejSa5fwXzpKCJ7jPk8vemACH78rpWjcX"
            ]
          }
        }
      ],
      "hex": "0100000001d9922ff6721a64fd43571fce5e63ee887147806b6eda8e42c3e77a463829fda7010000006b483045022100fe35e6c9fcc75160d21165c3d456a19d2364349c07fd9d78763eee5de0c446fe022030e6bef75b4700c454dda114058526d8107db87380b2f5f620edff916266c041012103124cc9de1f2e3e4f96624fffde4483e5fd7e91a512cc2907542153e0770a9bd1ffffffff0260738628000000001976a914bb668ed34f8b9dfa099ebcfc0ff5a943e748b8c688ac7df1c79b030000001976a914f60276a8c7689694966dd17beb9232a1ed4dfd4788ac00000000"
    }, 
    {
      "txid": "0f181172272470250e2fef59d828a4fedbe07e2820b0dcaf732e582784c75470",
      "hash": "0f181172272470250e2fef59d828a4fedbe07e2820b0dcaf732e582784c75470",
      "version": 1,
      "size": 192,
      "vsize": 192,
      "locktime": 0,
      "vin": [
        {
          "txid": "891e4f3152c36b675619299b290e98e838ca3137cd0b7d77f4c6b820e7efb605",
          "vout": 21,
          "scriptSig": {
            "asm": "30450221008a1c1cf5e856daaf6301148d03a12935e73934aa2806965939839353c74020cd02206dc65b4b3468ec15d2e7c7b9e40cf5e1c3f6e6b632cbc00ebb1f00f69f7e2609[ALL] 03e8f417b3a0f8bec77968f4b1e5bda1fb53278b5dd1352907497b76b538603a13",
            "hex": "4830450221008a1c1cf5e856daaf6301148d03a12935e73934aa2806965939839353c74020cd02206dc65b4b3468ec15d2e7c7b9e40cf5e1c3f6e6b632cbc00ebb1f00f69f7e2609012103e8f417b3a0f8bec77968f4b1e5bda1fb53278b5dd1352907497b76b538603a13"
          },
          "sequence": 4294967295
        }
      ],
      "vout": [
        {
          "value": 0.79062000,
          "n": 0,
          "scriptPubKey": {
            "asm": "OP_DUP OP_HASH160 3f242ba00fce6aabe7f8f7018bfe030bf07c2475 OP_EQUALVERIFY OP_CHECKSIG",
            "hex": "76a9143f242ba00fce6aabe7f8f7018bfe030bf07c247588ac",
            "reqSigs": 1,
            "type": "pubkeyhash",
            "addresses": [
              "LQypATnGzcmv7qyCLoNaDjLEebXDQBbpvk"
            ]
          }
        }
      ],
      "hex": "010000000105b6efe720b8c6f4777d0bcd3731ca38e8980e299b291956676bc352314f1e89150000006b4830450221008a1c1cf5e856daaf6301148d03a12935e73934aa2806965939839353c74020cd02206dc65b4b3468ec15d2e7c7b9e40cf5e1c3f6e6b632cbc00ebb1f00f69f7e2609012103e8f417b3a0f8bec77968f4b1e5bda1fb53278b5dd1352907497b76b538603a13ffffffff01f063b604000000001976a9143f242ba00fce6aabe7f8f7018bfe030bf07c247588ac00000000"
    }, 
    {
      "txid": "10bc2d8cba9dfde1fc789e0c06f04d15087409322a0640bc9736d279b5e8fee8",
      "hash": "10bc2d8cba9dfde1fc789e0c06f04d15087409322a0640bc9736d279b5e8fee8",
      "version": 1,
      "size": 336,
      "vsize": 336,
      "locktime": 0,
      "vin": [
        {
          "txid": "d6502f7948a5e3f83e584cf6f12752c73f1bcd4ea580777528504e8a7999dfa6",
          "vout": 1,
          "scriptSig": {
            "asm": "0 3045022100d7b6b7800d6f7315ed55229f6c3ca0ce6d541f5996c211bb6e873ae816c8559e02202a3bffa995456c9f0e302770734fa2f6b53fd7a0bb1eb2ba66be261ae3f30454[ALL] 3045022100c3713d6a5425084324b0e676e3ff0350e9cfd35a0f2d4765aa3906df6b12d97a02207fbf126239a2f471f9538f2c69ad459070763811f5deef69f67484fcde99aba7[ALL] 522102a9cd673e55454d028e9226c21a019d394b06f39f4420198c0a816af6047a1e2d2103169d3c5de27a266f0c6c0b8cdbf35d9acc38006148f23f7a093d70b4fa12769352ae",
            "hex": "00483045022100d7b6b7800d6f7315ed55229f6c3ca0ce6d541f5996c211bb6e873ae816c8559e02202a3bffa995456c9f0e302770734fa2f6b53fd7a0bb1eb2ba66be261ae3f3045401483045022100c3713d6a5425084324b0e676e3ff0350e9cfd35a0f2d4765aa3906df6b12d97a02207fbf126239a2f471f9538f2c69ad459070763811f5deef69f67484fcde99aba70147522102a9cd673e55454d028e9226c21a019d394b06f39f4420198c0a816af6047a1e2d2103169d3c5de27a266f0c6c0b8cdbf35d9acc38006148f23f7a093d70b4fa12769352ae"
          },
          "sequence": 4294967295
        }
      ],
      "vout": [
        {
          "value": 0.00816000,
          "n": 0,
          "scriptPubKey": {
            "asm": "OP_DUP OP_HASH160 7bbde951aef5ca9cd3bd1d9fdd2250bc1b4cb1ea OP_EQUALVERIFY OP_CHECKSIG",
            "hex": "76a9147bbde951aef5ca9cd3bd1d9fdd2250bc1b4cb1ea88ac",
            "reqSigs": 1,
            "type": "pubkeyhash",
            "addresses": [
              "LWWEt5ox8YaNh8bWu79cMGfUURsP5Hhf3j"
            ]
          }
        }, 
        {
          "value": 4.70675923,
          "n": 1,
          "scriptPubKey": {
            "asm": "OP_HASH160 2be6b8c22030e26afd6a6707429785a44cf86e54 OP_EQUAL",
            "hex": "a9142be6b8c22030e26afd6a6707429785a44cf86e5487",
            "reqSigs": 1,
            "type": "scripthash",
            "addresses": [
              "MBuHgWDNRhYegmdU7mTqTBv7SrgffDLFKz"
            ]
          }
        }
      ],
      "hex": "0100000001a6df99798a4e5028757780a54ecd1b3fc75227f1f64c583ef8e3a548792f50d601000000db00483045022100d7b6b7800d6f7315ed55229f6c3ca0ce6d541f5996c211bb6e873ae816c8559e02202a3bffa995456c9f0e302770734fa2f6b53fd7a0bb1eb2ba66be261ae3f3045401483045022100c3713d6a5425084324b0e676e3ff0350e9cfd35a0f2d4765aa3906df6b12d97a02207fbf126239a2f471f9538f2c69ad459070763811f5deef69f67484fcde99aba70147522102a9cd673e55454d028e9226c21a019d394b06f39f4420198c0a816af6047a1e2d2103169d3c5de27a266f0c6c0b8cdbf35d9acc38006148f23f7a093d70b4fa12769352aeffffffff0280730c00000000001976a9147bbde951aef5ca9cd3bd1d9fdd2250bc1b4cb1ea88acd3f10d1c0000000017a9142be6b8c22030e26afd6a6707429785a44cf86e548700000000"
    }, 
    {
      "txid": "4ebe00b47a36255a4b62761141dd19bb5aafc6195fab41b7d59a42d30aba7ccd",
      "hash": "4ebe00b47a36255a4b62761141dd19bb5aafc6195fab41b7d59a42d30aba7ccd",
      "version": 1,
      "size": 223,
      "vsize": 223,
      "locktime": 1359176,
      "vin": [
        {
          "txid": "2cc3821b9e11135142e80782b8d2d941d520437f8884151db5347fcb80547d80",
          "vout": 2,
          "scriptSig": {
            "asm": "3044022038b106aa5a825d928f1479cff20283e9f13571bfa0363f55f5083af3b8bc57d20220327fa4556a2209b8b3b7eaf9bbd85d21e4b7848821afe4f10b3f7c660f22e391[ALL] 022bc118aea9383fb177e4f6b050bc82f11a6f71617a1bb78a81aaca8b55040133",
            "hex": "473044022038b106aa5a825d928f1479cff20283e9f13571bfa0363f55f5083af3b8bc57d20220327fa4556a2209b8b3b7eaf9bbd85d21e4b7848821afe4f10b3f7c660f22e3910121022bc118aea9383fb177e4f6b050bc82f11a6f71617a1bb78a81aaca8b55040133"
          },
          "sequence": 4294967294
        }
      ],
      "vout": [
        {
          "value": 0.99977600,
          "n": 0,
          "scriptPubKey": {
            "asm": "OP_DUP OP_HASH160 ed8c4e3f39deea17f36d6870b46066bf907a04cb OP_EQUALVERIFY OP_CHECKSIG",
            "hex": "76a914ed8c4e3f39deea17f36d6870b46066bf907a04cb88ac",
            "reqSigs": 1,
            "type": "pubkeyhash",
            "addresses": [
              "LgszVHT8S3dQe9XpBCfqMAJR8JGvBZgJ8v"
            ]
          }
        }, 
        {
          "value": 1.00000000,
          "n": 1,
          "scriptPubKey": {
            "asm": "OP_HASH160 0f85b265b06bc1985673b9514dcdb283e7364b74 OP_EQUAL",
            "hex": "a9140f85b265b06bc1985673b9514dcdb283e7364b7487",
            "reqSigs": 1,
            "type": "scripthash",
            "addresses": [
              "M9KEXjDLCEUFBJd755pLbWynAWGTuJUkrN"
            ]
          }
        }
      ],
      "hex": "0100000001807d5480cb7f34b51d1584887f4320d541d9d2b88207e8425113119e1b82c32c020000006a473044022038b106aa5a825d928f1479cff20283e9f13571bfa0363f55f5083af3b8bc57d20220327fa4556a2209b8b3b7eaf9bbd85d21e4b7848821afe4f10b3f7c660f22e3910121022bc118aea9383fb177e4f6b050bc82f11a6f71617a1bb78a81aaca8b55040133feffffff028089f505000000001976a914ed8c4e3f39deea17f36d6870b46066bf907a04cb88ac00e1f5050000000017a9140f85b265b06bc1985673b9514dcdb283e7364b748748bd1400"
    }, 
    {
      "txid": "a3c3599834232813ef5d0f321f43eda80755f852058ee8357cd4d3e62fb021ae",
      "hash": "a3c3599834232813ef5d0f321f43eda80755f852058ee8357cd4d3e62fb021ae",
      "version": 2,
      "size": 373,
      "vsize": 373,
      "locktime": 1359103,
      "vin": [
        {
          "txid": "22650031db53c25acd27801ecda9009471945727e4e76a25c2d085d835e30278",
          "vout": 0,
          "scriptSig": {
            "asm": "3045022100b102348192fbc76b91a8f7019a0e2434336a1f392a7a10d07e5d5533d338739b02206f8e72ee687dd36526b6870efe941894d61471fc18888a8f1bd7eb09376c9a1d[ALL] 02a16eafc801ba2c981adb83a6040be74fd0db92742dd418679123712c7a9aa507",
            "hex": "483045022100b102348192fbc76b91a8f7019a0e2434336a1f392a7a10d07e5d5533d338739b02206f8e72ee687dd36526b6870efe941894d61471fc18888a8f1bd7eb09376c9a1d012102a16eafc801ba2c981adb83a6040be74fd0db92742dd418679123712c7a9aa507"
          },
          "sequence": 4294967294
        }, 
        {
          "txid": "3b4ee9b181062933bab17f74150515790db53324e6286aa5cb7f675386e8ebfd",
          "vout": 0,
          "scriptSig": {
            "asm": "304402203ff9ac17cf0ee87cf7cd608ed5ef64dfbaa5a2838c0f1d62cfde936a215de04c022061f7125543393c3be8f7c59c62bcc7fa5d875f26705dbf311e8a774c40cf6ac0[ALL] 0389c7f23f05aa01ef5850f326339985a27039cf8d8333e26b9ebd3c17283b993d",
            "hex": "47304402203ff9ac17cf0ee87cf7cd608ed5ef64dfbaa5a2838c0f1d62cfde936a215de04c022061f7125543393c3be8f7c59c62bcc7fa5d875f26705dbf311e8a774c40cf6ac001210389c7f23f05aa01ef5850f326339985a27039cf8d8333e26b9ebd3c17283b993d"
          },
          "sequence": 4294967294
        }
      ],
      "vout": [
        {
          "value": 0.09148240,
          "n": 0,
          "scriptPubKey": {
            "asm": "OP_DUP OP_HASH160 c5e689d593589c561b7237e5627f7bd69d9c5e47 OP_EQUALVERIFY OP_CHECKSIG",
            "hex": "76a914c5e689d593589c561b7237e5627f7bd69d9c5e4788ac",
            "reqSigs": 1,
            "type": "pubkeyhash",
            "addresses": [
              "LdGMZ6Nowq3f6snK623AghxiL3ahLjEBNq"
            ]
          }
        }, 
        {
          "value": 1.77589702,
          "n": 1,
          "scriptPubKey": {
            "asm": "OP_DUP OP_HASH160 86e089e3f3dd6a5ea918f9f80e551bb8c8a26169 OP_EQUALVERIFY OP_CHECKSIG",
            "hex": "76a91486e089e3f3dd6a5ea918f9f80e551bb8c8a2616988ac",
            "reqSigs": 1,
            "type": "pubkeyhash",
            "addresses": [
              "LXX7o8rB9AXDCxEqMHt7RtU6u1ZXhR92kn"
            ]
          }
        }
      ],
      "hex": "02000000027802e335d885d0c2256ae7e4275794719400a9cd1e8027cd5ac253db31006522000000006b483045022100b102348192fbc76b91a8f7019a0e2434336a1f392a7a10d07e5d5533d338739b02206f8e72ee687dd36526b6870efe941894d61471fc18888a8f1bd7eb09376c9a1d012102a16eafc801ba2c981adb83a6040be74fd0db92742dd418679123712c7a9aa507fefffffffdebe88653677fcba56a28e62433b50d79150515747fb1ba33290681b1e94e3b000000006a47304402203ff9ac17cf0ee87cf7cd608ed5ef64dfbaa5a2838c0f1d62cfde936a215de04c022061f7125543393c3be8f7c59c62bcc7fa5d875f26705dbf311e8a774c40cf6ac001210389c7f23f05aa01ef5850f326339985a27039cf8d8333e26b9ebd3c17283b993dfeffffff0250978b00000000001976a914c5e689d593589c561b7237e5627f7bd69d9c5e4788acc6cd950a000000001976a91486e089e3f3dd6a5ea918f9f80e551bb8c8a2616988acffbc1400"
    }, 
    {
      "txid": "b2de5b0932a6ec05497264647ae76e7e31d8458ce0a8c1f99082ee885cece91f",
      "hash": "b2de5b0932a6ec05497264647ae76e7e31d8458ce0a8c1f99082ee885cece91f",
      "version": 1,
      "size": 226,
      "vsize": 226,
      "locktime": 0,
      "vin": [
        {
          "txid": "2a66584281eb8fbfd4fb4f37af3ab7dd2ae1941064ac80eb2b0d4404e4f10104",
          "vout": 1,
          "scriptSig": {
            "asm": "3045022100ba8836b525bad9584f64c0f51118677a822fd9a2c294cebb11bdec7244e439ac02207a7ec75eb74d58101fdc5aea2502d0f160f04f1c078011cfc782f0c83b6e88bc[ALL] 0375f2e9db3940a505ee19256a572b187e0eea4bb1ee0e2475fc42f69faceff973",
            "hex": "483045022100ba8836b525bad9584f64c0f51118677a822fd9a2c294cebb11bdec7244e439ac02207a7ec75eb74d58101fdc5aea2502d0f160f04f1c078011cfc782f0c83b6e88bc01210375f2e9db3940a505ee19256a572b187e0eea4bb1ee0e2475fc42f69faceff973"
          },
          "sequence": 4294967295
        }
      ],
      "vout": [
        {
          "value": 1.70000000,
          "n": 0,
          "scriptPubKey": {
            "asm": "OP_DUP OP_HASH160 34f247dcc6cf702981e2b7283efd3e660a0f72b5 OP_EQUALVERIFY OP_CHECKSIG",
            "hex": "76a91434f247dcc6cf702981e2b7283efd3e660a0f72b588ac",
            "reqSigs": 1,
            "type": "pubkeyhash",
            "addresses": [
              "LQ3ue9VWEHvxtaZxJgX5MDu5NcwvC7k37z"
            ]
          }
        }, 
        {
          "value": 5.90290736,
          "n": 1,
          "scriptPubKey": {
            "asm": "OP_DUP OP_HASH160 3d84fd2589b665e4c3a67610297bfdfda0b3889a OP_EQUALVERIFY OP_CHECKSIG",
            "hex": "76a9143d84fd2589b665e4c3a67610297bfdfda0b3889a88ac",
            "reqSigs": 1,
            "type": "pubkeyhash",
            "addresses": [
              "LQqEo9CkD2P9c8tnDL2VFV7okoyWQABVx6"
            ]
          }
        }
      ],
      "hex": "01000000010401f1e404440d2beb80ac641094e12addb73aaf374ffbd4bf8feb814258662a010000006b483045022100ba8836b525bad9584f64c0f51118677a822fd9a2c294cebb11bdec7244e439ac02207a7ec75eb74d58101fdc5aea2502d0f160f04f1c078011cfc782f0c83b6e88bc01210375f2e9db3940a505ee19256a572b187e0eea4bb1ee0e2475fc42f69faceff973ffffffff0280fe210a000000001976a91434f247dcc6cf702981e2b7283efd3e660a0f72b588ac301f2f23000000001976a9143d84fd2589b665e4c3a67610297bfdfda0b3889a88ac00000000"
    }, 
    {
      "txid": "ee0f233a61cca5ebfd6b0124dbe8694825a948438259b1e2498dc5b25becc9ea",
      "hash": "ee0f233a61cca5ebfd6b0124dbe8694825a948438259b1e2498dc5b25becc9ea",
      "version": 1,
      "size": 226,
      "vsize": 226,
      "locktime": 0,
      "vin": [
        {
          "txid": "550ce078af69668f0eb58b9ae2c04ca5aa97d8f942fd4e1b6097bdda56d50798",
          "vout": 25,
          "scriptSig": {
            "asm": "3045022100ea72101f5747fec4e21ed3fa635e3ec7b717c5622dc43f7383f8c0bcd86a7c0b022012fda6c4ca4254a9f5c2b9b7a9c98230f02653f1ebcfb46bb3deead48b8a2843[ALL] 03122e23fdf92c6e30ba688f0fe37ec1e66861967d8454c0a08e74979473bafbaa",
            "hex": "483045022100ea72101f5747fec4e21ed3fa635e3ec7b717c5622dc43f7383f8c0bcd86a7c0b022012fda6c4ca4254a9f5c2b9b7a9c98230f02653f1ebcfb46bb3deead48b8a2843012103122e23fdf92c6e30ba688f0fe37ec1e66861967d8454c0a08e74979473bafbaa"
          },
          "sequence": 4294967295
        }
      ],
      "vout": [
        {
          "value": 98.37634231,
          "n": 0,
          "scriptPubKey": {
            "asm": "OP_DUP OP_HASH160 2dcca187e9948854550fb57f4dd3fb764b138efb OP_EQUALVERIFY OP_CHECKSIG",
            "hex": "76a9142dcca187e9948854550fb57f4dd3fb764b138efb88ac",
            "reqSigs": 1,
            "type": "pubkeyhash",
            "addresses": [
              "LPQ7orYwSAuARYe1Q5gj7EvjVKXBF274LK"
            ]
          }
        }, 
        {
          "value": 1.62343169,
          "n": 1,
          "scriptPubKey": {
            "asm": "OP_DUP OP_HASH160 c85d6c472404c46b103b95ed3190fcc0423ebefe OP_EQUALVERIFY OP_CHECKSIG",
            "hex": "76a914c85d6c472404c46b103b95ed3190fcc0423ebefe88ac",
            "reqSigs": 1,
            "type": "pubkeyhash",
            "addresses": [
              "LdVPKiiyeVJyMkBaeS5nREUSBH3unbQMsA"
            ]
          }
        }
      ],
      "hex": "01000000019807d556dabd97601b4efd42f9d897aaa54cc0e29a8bb50e8f6669af78e00c55190000006b483045022100ea72101f5747fec4e21ed3fa635e3ec7b717c5622dc43f7383f8c0bcd86a7c0b022012fda6c4ca4254a9f5c2b9b7a9c98230f02653f1ebcfb46bb3deead48b8a2843012103122e23fdf92c6e30ba688f0fe37ec1e66861967d8454c0a08e74979473bafbaaffffffff02b7625e4a020000001976a9142dcca187e9948854550fb57f4dd3fb764b138efb88ac0129ad09000000001976a914c85d6c472404c46b103b95ed3190fcc0423ebefe88ac00000000"
    }
  ],
  "time": 1517247310,
  "mediantime": 1517246241,
  "nonce": 1478040981,
  "bits": "1a042eae",
  "difficulty": 4011378.762614286,
  "chainwork": "000000000000000000000000000000000000000000000033c317c33362b33016",
  "previousblockhash": "dfecbed0aee600d8b9af17449abb51cd8f8f4e0f865e4878584e526c09f98ed0",
  "nextblockhash": "f3deaf4e5f3c54b22fff38779c4a1f4849e33245cd036732c19dd7bd18cbda01"
}
