{
  "hash": "36d1fc36e198d2022f6e31a3c79c51536b61d9913293419b71a9723581f6fe0b",
  "confirmations": 2780,
  "strippedsize": 254,
  "size": 254,
  "weight": 1016,
  "height": 1358215,
  "version": 536870912,
  "versionHex": "20000000",
  "merkleroot": "d00a48c197a59daa8193ef4ceb22dbcc1760b9de43aeab02eefa2a478c05ca46",
  "tx": [
    {
      "txid": "d00a48c197a59daa8193ef4ceb22dbcc1760b9de43aeab02eefa2a478c05ca46",
      "hash": "d00a48c197a59daa8193ef4ceb22dbcc1760b9de43aeab02eefa2a478c05ca46",
      "version": 1,
      "size": 173,
      "vsize": 173,
      "locktime": 0,
      "vin": [
        {
          "coinbase": "0387b9141b4d696e656420627920416e74506f6f6c20626a312045205a6d3994fabe6d6d6a093bed6c0363e1b324429965a30255ce33a6fc68bc0653aebb827135cc5db204000000000000009f2200000000000002000000",
          "sequence": 4294967295
        }
      ],
      "vout": [
        {
          "value": 25.00000000,
          "n": 0,
          "scriptPubKey": {
            "asm": "OP_DUP OP_HASH160 0ff3ccc5e8be88afe24b5d634e5852d474dbdff1 OP_EQUALVERIFY OP_CHECKSIG",
            "hex": "76a9140ff3ccc5e8be88afe24b5d634e5852d474dbdff188ac",
            "reqSigs": 1,
            "type": "pubkeyhash",
            "addresses": [
              "LLgJTbzZMsRTCUF1NtvvL9SR1a4pVieW89"
            ]
          }
        }
      ],
      "hex": "01000000010000000000000000000000000000000000000000000000000000000000000000ffffffff580387b9141b4d696e656420627920416e74506f6f6c20626a312045205a6d3994fabe6d6d6a093bed6c0363e1b324429965a30255ce33a6fc68bc0653aebb827135cc5db204000000000000009f2200000000000002000000ffffffff0100f90295000000001976a9140ff3ccc5e8be88afe24b5d634e5852d474dbdff188ac00000000"
    }
  ],
  "time": 1517107604,
  "mediantime": 1517107344,
  "nonce": 4284127788,
  "bits": "1a047f14",
  "difficulty": 3731199.183374282,
  "chainwork": "000000000000000000000000000000000000000000000032e653282b64064ad0",
  "previousblockhash": "d9adc12aa6d92adbffc4f15ab0ba9fbe7b6cd01897fa9fee6402fd96fd4f782a",
  "nextblockhash": "cf0f94a3fa4ee2153a44adc5d8c7d6c372ee6deb799b1b49cf31ee305f63c091"
}
