{
  "hash": "379bf076f9e9f1161723799b719fce2a87530c636e4fafc80335720d2e3c9867",
  "confirmations": 1646,
  "strippedsize": 423,
  "size": 569,
  "weight": 1838,
  "height": 1359348,
  "version": 536870912,
  "versionHex": "20000000",
  "merkleroot": "ec27c245c8f07dc1f2e51186bc4dffa941f2313199b7c2d388cfe365f8e67784",
  "tx": [
    {
      "txid": "37384823dee0850a99b585b5b5e211437b470264f9584a11f1d1483285797040",
      "hash": "22375ec0ed83840f41f969635911a2ddab96efd4d6f72f1f0cf3b1f8bc341067",
      "version": 1,
      "size": 236,
      "vsize": 209,
      "locktime": 0,
      "vin": [
        {
          "coinbase": "03f4bd14045a6fb4782cfabe6d6d5be0f254b18bc2a7c929ac130d43c7e81c83655961fa30c8a200365574e94f9e4000000000000000042f4c502f085c00076604000000",
          "sequence": 4294967295
        }
      ],
      "vout": [
        {
          "value": 25.00017000,
          "n": 0,
          "scriptPubKey": {
            "asm": "OP_DUP OP_HASH160 57757ed2ecf2052ff3126c397aca7defb9ca2cec OP_EQUALVERIFY OP_CHECKSIG",
            "hex": "76a91457757ed2ecf2052ff3126c397aca7defb9ca2cec88ac",
            "reqSigs": 1,
            "type": "pubkeyhash",
            "addresses": [
              "LTCPodGk5FwcJaRzH9yKnwicxzFUbxp6tN"
            ]
          }
        }, 
        {
          "value": 0.00000000,
          "n": 1,
          "scriptPubKey": {
            "asm": "OP_RETURN aa21a9edb1d14ab8201fefc8121dae66fc484ea58c075c73cb9b688d292f49448b391174",
            "hex": "6a24aa21a9edb1d14ab8201fefc8121dae66fc484ea58c075c73cb9b688d292f49448b391174",
            "type": "nulldata"
          }
        }
      ],
      "hex": "010000000001010000000000000000000000000000000000000000000000000000000000000000ffffffff4403f4bd14045a6fb4782cfabe6d6d5be0f254b18bc2a7c929ac130d43c7e81c83655961fa30c8a200365574e94f9e4000000000000000042f4c502f085c00076604000000ffffffff02683b0395000000001976a91457757ed2ecf2052ff3126c397aca7defb9ca2cec88ac0000000000000000266a24aa21a9edb1d14ab8201fefc8121dae66fc484ea58c075c73cb9b688d292f49448b3911740120000000000000000000000000000000000000000000000000000000000000000000000000"
    }, 
    {
      "txid": "722c479a2e5538d1a59243ce43405e89d92291d1fe4c563f85b761039eca822c",
      "hash": "3a924c41ba9d8fdac4331b829ae6aeb62dfa7d2a99f32a4e14e97a58bb96f7be",
      "version": 2,
      "size": 252,
      "vsize": 170,
      "locktime": 1359345,
      "vin": [
        {
          "txid": "ef388e0259476a4ebd3fa92a70005b74ea497e53ce6443f03b71026c64149a7a",
          "vout": 0,
          "scriptSig": {
            "asm": "0014e965b8260593c24108cb267158921238026b9bd7",
            "hex": "160014e965b8260593c24108cb267158921238026b9bd7"
          },
          "txinwitness": [
            "3045022100b9324549fc92f580a5d3031daaa7dfdc073e53858a4ee6b5086670ed1dbae8db02200463aa0e26deabe7fb4a2a390aff75d64c4cceb4dce0c17144048881cd1917ad01", 
            "03655cdc4e27d542461ffd09b14300dd7797f027cc50ab23419644be22b621f665"
          ],
          "sequence": 4294967294
        }
      ],
      "vout": [
        {
          "value": 0.57712327,
          "n": 0,
          "scriptPubKey": {
            "asm": "OP_DUP OP_HASH160 cb5900f6aab521e83c77626817202fc6498ad908 OP_EQUALVERIFY OP_CHECKSIG",
            "hex": "76a914cb5900f6aab521e83c77626817202fc6498ad90888ac",
            "reqSigs": 1,
            "type": "pubkeyhash",
            "addresses": [
              "LdmA4F8oJCiDMAnvuaHniyqwNb1bZtsu2D"
            ]
          }
        }, 
        {
          "value": 0.41956973,
          "n": 1,
          "scriptPubKey": {
            "asm": "OP_DUP OP_HASH160 c649c60e1a0bb218fe95f1c4b14c87a9497a340f OP_EQUALVERIFY OP_CHECKSIG",
            "hex": "76a914c649c60e1a0bb218fe95f1c4b14c87a9497a340f88ac",
            "reqSigs": 1,
            "type": "pubkeyhash",
            "addresses": [
              "LdJQS5WxRCSzkqJwyFqERvskNGvuzEZjD1"
            ]
          }
        }
      ],
      "hex": "020000000001017a9a14646c02713bf04364ce537e49ea745b00702aa93fbd4e6a4759028e38ef0000000017160014e965b8260593c24108cb267158921238026b9bd7feffffff02c79e7003000000001976a914cb5900f6aab521e83c77626817202fc6498ad90888ac6d368002000000001976a914c649c60e1a0bb218fe95f1c4b14c87a9497a340f88ac02483045022100b9324549fc92f580a5d3031daaa7dfdc073e53858a4ee6b5086670ed1dbae8db02200463aa0e26deabe7fb4a2a390aff75d64c4cceb4dce0c17144048881cd1917ad012103655cdc4e27d542461ffd09b14300dd7797f027cc50ab23419644be22b621f665f1bd1400"
    }
  ],
  "time": 1517270136,
  "mediantime": 1517269549,
  "nonce": 2680987923,
  "bits": "1a042eae",
  "difficulty": 4011378.762614286,
  "chainwork": "000000000000000000000000000000000000000000000033ebbd6a0eae87c06a",
  "previousblockhash": "b5ed6fa7f63e800f07736739179fb195fbefb90dbe82758814427538a3ee63c3",
  "nextblockhash": "ffecdd9ad840afb04888f5bcf0f52edc934d5a702b0dc717b62fad3af9269652"
}
