{
  "hash": "390a73943ee46e26ac845694e874934843f4123ebcbfd64bece7b5010b4da93d",
  "confirmations": 42,
  "strippedsize": 4345,
  "size": 4381,
  "weight": 17416,
  "height": 1360949,
  "version": 536870912,
  "versionHex": "20000000",
  "merkleroot": "5b4c39a508e12cbd5c445482dd76953c87cb17ba0e6972aa1c0c9dd8c0453a44",
  "tx": [
    {
      "txid": "f25bffa5315b276e4fb4044fda7bacafef1bb2a9c746ba8b781a60d025bc5df6",
      "hash": "008e3d03b90854ce05246b237e80c81346dc686c3dcf4d87489ae3cdf91102c4",
      "version": 1,
      "size": 253,
      "vsize": 226,
      "locktime": 0,
      "vin": [
        {
          "coinbase": "0335c41441d69cd07d7b3bb141d69cd07d0b858c2f4c54432e544f502ffabe6d6de9f491cee4c387476a615e85da498b0befd6938307e43e18802c90cd9ac5cf9d0100000000000000683bded30e00000000000000",
          "sequence": 4294967295
        }
      ],
      "vout": [
        {
          "value": 25.00638101,
          "n": 0,
          "scriptPubKey": {
            "asm": "OP_DUP OP_HASH160 0c617fdb2ea42aed30a509595ee21ba3f6688db0 OP_EQUALVERIFY OP_CHECKSIG",
            "hex": "76a9140c617fdb2ea42aed30a509595ee21ba3f6688db088ac",
            "reqSigs": 1,
            "type": "pubkeyhash",
            "addresses": [
              "LLMRAtr3qBje2ySEa3CnZ55LA4TQMWnRY3"
            ]
          }
        }, 
        {
          "value": 0.00000000,
          "n": 1,
          "scriptPubKey": {
            "asm": "OP_RETURN aa21a9ed031ce8726eb97e09bfcbf62d9c6f28a95fcd1f5a4d688f4c828ae400b203f864",
            "hex": "6a24aa21a9ed031ce8726eb97e09bfcbf62d9c6f28a95fcd1f5a4d688f4c828ae400b203f864",
            "type": "nulldata"
          }
        }
      ],
      "hex": "010000000001010000000000000000000000000000000000000000000000000000000000000000ffffffff550335c41441d69cd07d7b3bb141d69cd07d0b858c2f4c54432e544f502ffabe6d6de9f491cee4c387476a615e85da498b0befd6938307e43e18802c90cd9ac5cf9d0100000000000000683bded30e00000000000000ffffffff0295b50c95000000001976a9140c617fdb2ea42aed30a509595ee21ba3f6688db088ac0000000000000000266a24aa21a9ed031ce8726eb97e09bfcbf62d9c6f28a95fcd1f5a4d688f4c828ae400b203f8640120000000000000000000000000000000000000000000000000000000000000000000000000"
    }, 
    {
      "txid": "b9e21a38190a97e44de71ffbdf39fd4fffa8967033fe979b7c84319d9633b4c8",
      "hash": "b9e21a38190a97e44de71ffbdf39fd4fffa8967033fe979b7c84319d9633b4c8",
      "version": 1,
      "size": 191,
      "vsize": 191,
      "locktime": 0,
      "vin": [
        {
          "txid": "26bbf71297f60ab6cb3f9923491fea4de66e43329c0e9e86bdc280eca3e2f9c9",
          "vout": 1,
          "scriptSig": {
            "asm": "3044022066b9d66d507d1934d9e3f987756c7761ca9390e6cf5d042eb24b8cfe7c533f2202207f87ec9669e65aa846430f0b21d4e52f6e56b7a553adf980677a57d85112fb84[ALL] 03bfd523079808acb851cea7de17d381199727e5af8f1356c9b07a83e6b30c1afa",
            "hex": "473044022066b9d66d507d1934d9e3f987756c7761ca9390e6cf5d042eb24b8cfe7c533f2202207f87ec9669e65aa846430f0b21d4e52f6e56b7a553adf980677a57d85112fb84012103bfd523079808acb851cea7de17d381199727e5af8f1356c9b07a83e6b30c1afa"
          },
          "sequence": 4294967295
        }
      ],
      "vout": [
        {
          "value": 0.99785300,
          "n": 0,
          "scriptPubKey": {
            "asm": "OP_DUP OP_HASH160 6ce157a217d06a141667ae6d9469497eefda275e OP_EQUALVERIFY OP_CHECKSIG",
            "hex": "76a9146ce157a217d06a141667ae6d9469497eefda275e88ac",
            "reqSigs": 1,
            "type": "pubkeyhash",
            "addresses": [
              "LV9fBzLWwf33gJfTCdYbSBh52kW7TmNLyH"
            ]
          }
        }
      ],
      "hex": "0100000001c9f9e2a3ec80c2bd869e0e9c32436ee64dea1f4923993fcbb60af69712f7bb26010000006a473044022066b9d66d507d1934d9e3f987756c7761ca9390e6cf5d042eb24b8cfe7c533f2202207f87ec9669e65aa846430f0b21d4e52f6e56b7a553adf980677a57d85112fb84012103bfd523079808acb851cea7de17d381199727e5af8f1356c9b07a83e6b30c1afaffffffff01549af205000000001976a9146ce157a217d06a141667ae6d9469497eefda275e88ac00000000"
    }, 
    {
      "txid": "efe0f57453a97988399efbe5dc5d361880ae07b55a886542eb82d3ceb750db9e",
      "hash": "efe0f57453a97988399efbe5dc5d361880ae07b55a886542eb82d3ceb750db9e",
      "version": 1,
      "size": 3630,
      "vsize": 3630,
      "locktime": 0,
      "vin": [
        {
          "txid": "0247a120158be0948e114613b6a52a6925d1873975730c08e5db22bf6cf3a1ce",
          "vout": 96,
          "scriptSig": {
            "asm": "304502210080a7d713b3d76b18fc85734fb57f861980a3fee218a3c0ef15fe5c36be7a45620220205d3f0d48339134527ad32c950cfcbfa5751fa21b4dc13560320641fe2f67cb[ALL] 04d64e00ad3db573fdc009f960f04d9316a654f2b3aff5d33266a2dbcb3133ca414190e516d4e58acfebf158b8697c5d896684c7c09913dec6de8d7b5530cc1aac",
            "hex": "48304502210080a7d713b3d76b18fc85734fb57f861980a3fee218a3c0ef15fe5c36be7a45620220205d3f0d48339134527ad32c950cfcbfa5751fa21b4dc13560320641fe2f67cb014104d64e00ad3db573fdc009f960f04d9316a654f2b3aff5d33266a2dbcb3133ca414190e516d4e58acfebf158b8697c5d896684c7c09913dec6de8d7b5530cc1aac"
          },
          "sequence": 4294967295
        }, 
        {
          "txid": "1757fc942144a9bb670e919226b1275c063b2eb72de02681d51f1141267c5776",
          "vout": 92,
          "scriptSig": {
            "asm": "3044022017167f171767821262e1f9d3e11189c68f1a57043193562e80b754f86d510456022037eb6385cebdbdf337d2316562854623bb188e089c7ea99f091cf1518dd91e27[ALL] 04d64e00ad3db573fdc009f960f04d9316a654f2b3aff5d33266a2dbcb3133ca414190e516d4e58acfebf158b8697c5d896684c7c09913dec6de8d7b5530cc1aac",
            "hex": "473044022017167f171767821262e1f9d3e11189c68f1a57043193562e80b754f86d510456022037eb6385cebdbdf337d2316562854623bb188e089c7ea99f091cf1518dd91e27014104d64e00ad3db573fdc009f960f04d9316a654f2b3aff5d33266a2dbcb3133ca414190e516d4e58acfebf158b8697c5d896684c7c09913dec6de8d7b5530cc1aac"
          },
          "sequence": 4294967295
        }, 
        {
          "txid": "33963cec0af60913abee1d1579548a76fd706f31a5660bb1a12ec77d3d78b64c",
          "vout": 87,
          "scriptSig": {
            "asm": "30440220626cae6094c667ea83b4b393adb1601b4d828eec4b32fd15d3d55403e6b5656f0220318dd3676caad812aeca500936e3ae1a8937e3e956be6106d026533ba537a632[ALL] 04d64e00ad3db573fdc009f960f04d9316a654f2b3aff5d33266a2dbcb3133ca414190e516d4e58acfebf158b8697c5d896684c7c09913dec6de8d7b5530cc1aac",
            "hex": "4730440220626cae6094c667ea83b4b393adb1601b4d828eec4b32fd15d3d55403e6b5656f0220318dd3676caad812aeca500936e3ae1a8937e3e956be6106d026533ba537a632014104d64e00ad3db573fdc009f960f04d9316a654f2b3aff5d33266a2dbcb3133ca414190e516d4e58acfebf158b8697c5d896684c7c09913dec6de8d7b5530cc1aac"
          },
          "sequence": 4294967295
        }, 
        {
          "txid": "3eb7f8cbaf2df300b15ef1af3881c1007703538a5784b317abdd8abf03444bff",
          "vout": 0,
          "scriptSig": {
            "asm": "304402205f3484a3e195fb9e9f1c7c2a8a347d2d46a7c97d2d778d954ff777a72127804902205cfd8af91826dbc870e944d9bedd992edab5cde3625fbfe3a5a11e72c6bac037[ALL] 04d64e00ad3db573fdc009f960f04d9316a654f2b3aff5d33266a2dbcb3133ca414190e516d4e58acfebf158b8697c5d896684c7c09913dec6de8d7b5530cc1aac",
            "hex": "47304402205f3484a3e195fb9e9f1c7c2a8a347d2d46a7c97d2d778d954ff777a72127804902205cfd8af91826dbc870e944d9bedd992edab5cde3625fbfe3a5a11e72c6bac037014104d64e00ad3db573fdc009f960f04d9316a654f2b3aff5d33266a2dbcb3133ca414190e516d4e58acfebf158b8697c5d896684c7c09913dec6de8d7b5530cc1aac"
          },
          "sequence": 4294967295
        }, 
        {
          "txid": "3ff486e1f1d26bd71819c1102d017bebe429e9946f36480e5047f7e6f29fc598",
          "vout": 55,
          "scriptSig": {
            "asm": "304402207053368678677dcd0ad936b1ff56232a28575fff63a26d733bed0cb8d1d572fc022049abf3172f9cd7d29d4fe317cdb1d4428fa5c8489ddb620de52d9b0959b714b5[ALL] 04d64e00ad3db573fdc009f960f04d9316a654f2b3aff5d33266a2dbcb3133ca414190e516d4e58acfebf158b8697c5d896684c7c09913dec6de8d7b5530cc1aac",
            "hex": "47304402207053368678677dcd0ad936b1ff56232a28575fff63a26d733bed0cb8d1d572fc022049abf3172f9cd7d29d4fe317cdb1d4428fa5c8489ddb620de52d9b0959b714b5014104d64e00ad3db573fdc009f960f04d9316a654f2b3aff5d33266a2dbcb3133ca414190e516d4e58acfebf158b8697c5d896684c7c09913dec6de8d7b5530cc1aac"
          },
          "sequence": 4294967295
        }, 
        {
          "txid": "411b8eea7119e9dea4a0e8f41b4e022fa99091b512a5fc4c48f87ad779698cc8",
          "vout": 42,
          "scriptSig": {
            "asm": "304402206bd0317257b2d7b0c9a952a877ff7e8aea558eae0cdadbaf8cd4843f97983df002203fe19b41b10c0d9d5ee591b14fb7ae001709f8a6af0c2afc3420fe92d2e03e2c[ALL] 04d64e00ad3db573fdc009f960f04d9316a654f2b3aff5d33266a2dbcb3133ca414190e516d4e58acfebf158b8697c5d896684c7c09913dec6de8d7b5530cc1aac",
            "hex": "47304402206bd0317257b2d7b0c9a952a877ff7e8aea558eae0cdadbaf8cd4843f97983df002203fe19b41b10c0d9d5ee591b14fb7ae001709f8a6af0c2afc3420fe92d2e03e2c014104d64e00ad3db573fdc009f960f04d9316a654f2b3aff5d33266a2dbcb3133ca414190e516d4e58acfebf158b8697c5d896684c7c09913dec6de8d7b5530cc1aac"
          },
          "sequence": 4294967295
        }, 
        {
          "txid": "41b0bba096324cafd4b46aaba6a63ef694011b5f6c2cb4c633d745f73d66361c",
          "vout": 5,
          "scriptSig": {
            "asm": "304402204faacd0310cac4f3f8331e3a59cb85cc912bd763a8469431afe7925d559cb8270220784e965d10b86e78cc17f1d4f6020c0ed3d93da29e37f87187adeaca931e327e[ALL] 04d64e00ad3db573fdc009f960f04d9316a654f2b3aff5d33266a2dbcb3133ca414190e516d4e58acfebf158b8697c5d896684c7c09913dec6de8d7b5530cc1aac",
            "hex": "47304402204faacd0310cac4f3f8331e3a59cb85cc912bd763a8469431afe7925d559cb8270220784e965d10b86e78cc17f1d4f6020c0ed3d93da29e37f87187adeaca931e327e014104d64e00ad3db573fdc009f960f04d9316a654f2b3aff5d33266a2dbcb3133ca414190e516d4e58acfebf158b8697c5d896684c7c09913dec6de8d7b5530cc1aac"
          },
          "sequence": 4294967295
        }, 
        {
          "txid": "726d8bd5765336aa7bca005dc72a44e81a26bce9e95405a1bf0397e3da0b0cae",
          "vout": 55,
          "scriptSig": {
            "asm": "30440220491b709e28ac3a87bf1900876abaa47e9ad07d7550b9038dbcd049a30f1b471e02204825f4f2a5841ea1212fed1ddba4ecb9d7aca97c5717ba613df088480869d97e[ALL] 04d64e00ad3db573fdc009f960f04d9316a654f2b3aff5d33266a2dbcb3133ca414190e516d4e58acfebf158b8697c5d896684c7c09913dec6de8d7b5530cc1aac",
            "hex": "4730440220491b709e28ac3a87bf1900876abaa47e9ad07d7550b9038dbcd049a30f1b471e02204825f4f2a5841ea1212fed1ddba4ecb9d7aca97c5717ba613df088480869d97e014104d64e00ad3db573fdc009f960f04d9316a654f2b3aff5d33266a2dbcb3133ca414190e516d4e58acfebf158b8697c5d896684c7c09913dec6de8d7b5530cc1aac"
          },
          "sequence": 4294967295
        }, 
        {
          "txid": "7b78a49af14b49cf15e250b8ff40108c9d2ab9b57c0c90936995367708ac25b8",
          "vout": 86,
          "scriptSig": {
            "asm": "30440220548a3d2cccf59adc438b81320a7f18a7f17f1c0408b1d62296e1b3b2a3d33b8d022055739c5c6143febb2d5b84c145217b152a0685ce12acec1b602af8977b382633[ALL] 04d64e00ad3db573fdc009f960f04d9316a654f2b3aff5d33266a2dbcb3133ca414190e516d4e58acfebf158b8697c5d896684c7c09913dec6de8d7b5530cc1aac",
            "hex": "4730440220548a3d2cccf59adc438b81320a7f18a7f17f1c0408b1d62296e1b3b2a3d33b8d022055739c5c6143febb2d5b84c145217b152a0685ce12acec1b602af8977b382633014104d64e00ad3db573fdc009f960f04d9316a654f2b3aff5d33266a2dbcb3133ca414190e516d4e58acfebf158b8697c5d896684c7c09913dec6de8d7b5530cc1aac"
          },
          "sequence": 4294967295
        }, 
        {
          "txid": "7ca07fdcbf502c4f2a25991d84b8ae60e7f4063f311c7adf457ae3d007d068a6",
          "vout": 9,
          "scriptSig": {
            "asm": "3045022100c706b7d95c9879b4b3d009165d7aacd72d528def7d1478f68e19cdc78cd0623802203378a1fc3abfccfd69ac46e2d75af607ed4b5b52931334e426b4ed095b3f0e3d[ALL] 04d64e00ad3db573fdc009f960f04d9316a654f2b3aff5d33266a2dbcb3133ca414190e516d4e58acfebf158b8697c5d896684c7c09913dec6de8d7b5530cc1aac",
            "hex": "483045022100c706b7d95c9879b4b3d009165d7aacd72d528def7d1478f68e19cdc78cd0623802203378a1fc3abfccfd69ac46e2d75af607ed4b5b52931334e426b4ed095b3f0e3d014104d64e00ad3db573fdc009f960f04d9316a654f2b3aff5d33266a2dbcb3133ca414190e516d4e58acfebf158b8697c5d896684c7c09913dec6de8d7b5530cc1aac"
          },
          "sequence": 4294967295
        }, 
        {
          "txid": "82ab03ecae7c150f5ea08bf099263fafba8fca6135daa87f549bca6cc4a36b31",
          "vout": 7,
          "scriptSig": {
            "asm": "30440220220b69dfd99a85c12557cd4ae819cec5936ce5120624d00720b59a2a0ca310c10220756f9e18d9aec71f6bde1f7ea96acbe8aa08ada1af7391844515c6bdd06a38a8[ALL] 04d64e00ad3db573fdc009f960f04d9316a654f2b3aff5d33266a2dbcb3133ca414190e516d4e58acfebf158b8697c5d896684c7c09913dec6de8d7b5530cc1aac",
            "hex": "4730440220220b69dfd99a85c12557cd4ae819cec5936ce5120624d00720b59a2a0ca310c10220756f9e18d9aec71f6bde1f7ea96acbe8aa08ada1af7391844515c6bdd06a38a8014104d64e00ad3db573fdc009f960f04d9316a654f2b3aff5d33266a2dbcb3133ca414190e516d4e58acfebf158b8697c5d896684c7c09913dec6de8d7b5530cc1aac"
          },
          "sequence": 4294967295
        }, 
        {
          "txid": "8a9839098382a190c07919a34b2f9fdab61be40281977178690ed63299930ec7",
          "vout": 87,
          "scriptSig": {
            "asm": "3045022100dc598a2d2bc07cca3ea60bcb6e039e501a6c379dc23bacec5343d79138a68406022027bc4c3cca4d548dfb3b234e4c6cfb14901e1da385c66fdf268c5b92a1b14869[ALL] 04d64e00ad3db573fdc009f960f04d9316a654f2b3aff5d33266a2dbcb3133ca414190e516d4e58acfebf158b8697c5d896684c7c09913dec6de8d7b5530cc1aac",
            "hex": "483045022100dc598a2d2bc07cca3ea60bcb6e039e501a6c379dc23bacec5343d79138a68406022027bc4c3cca4d548dfb3b234e4c6cfb14901e1da385c66fdf268c5b92a1b14869014104d64e00ad3db573fdc009f960f04d9316a654f2b3aff5d33266a2dbcb3133ca414190e516d4e58acfebf158b8697c5d896684c7c09913dec6de8d7b5530cc1aac"
          },
          "sequence": 4294967295
        }, 
        {
          "txid": "8e8df53e5530b1084a759dc0cf7a1f44998c80340e35c3318a113dc1382cd3e9",
          "vout": 18,
          "scriptSig": {
            "asm": "3044022046dfcc3eb1506a8265ed36dc7ac8d6d2add44b720ae4587406d831cf4ca96f0302204f823b88927c275460cff99251142fbbbe835b90feea7ad7df022936761a5fd5[ALL] 04d64e00ad3db573fdc009f960f04d9316a654f2b3aff5d33266a2dbcb3133ca414190e516d4e58acfebf158b8697c5d896684c7c09913dec6de8d7b5530cc1aac",
            "hex": "473044022046dfcc3eb1506a8265ed36dc7ac8d6d2add44b720ae4587406d831cf4ca96f0302204f823b88927c275460cff99251142fbbbe835b90feea7ad7df022936761a5fd5014104d64e00ad3db573fdc009f960f04d9316a654f2b3aff5d33266a2dbcb3133ca414190e516d4e58acfebf158b8697c5d896684c7c09913dec6de8d7b5530cc1aac"
          },
          "sequence": 4294967295
        }, 
        {
          "txid": "94e8637eb22c945e611c5c54816cc20bc91008fd05f704911038a1a3a15ccc87",
          "vout": 93,
          "scriptSig": {
            "asm": "304402201200fbe7deaac22344089c39392280da88f10c9002f856c81f53c68559bb0c7b022067e1f337cdca9de01443534199a280721e9f3763277b15b6c1048bba3796d1db[ALL] 04d64e00ad3db573fdc009f960f04d9316a654f2b3aff5d33266a2dbcb3133ca414190e516d4e58acfebf158b8697c5d896684c7c09913dec6de8d7b5530cc1aac",
            "hex": "47304402201200fbe7deaac22344089c39392280da88f10c9002f856c81f53c68559bb0c7b022067e1f337cdca9de01443534199a280721e9f3763277b15b6c1048bba3796d1db014104d64e00ad3db573fdc009f960f04d9316a654f2b3aff5d33266a2dbcb3133ca414190e516d4e58acfebf158b8697c5d896684c7c09913dec6de8d7b5530cc1aac"
          },
          "sequence": 4294967295
        }, 
        {
          "txid": "b10b8fc3ba963273cd6fdd9778b3dcdfa4f1f1f79ee7ca58627433106a84f594",
          "vout": 6,
          "scriptSig": {
            "asm": "3045022100ff9c50005edc64330ef43ca807aa7bd27eebfe1a5b5deb00bddd09802183de5202201a5b5627b9b84df58009ab7c789271e4562e2c8843c053f273e2299bec1adf5e[ALL] 04d64e00ad3db573fdc009f960f04d9316a654f2b3aff5d33266a2dbcb3133ca414190e516d4e58acfebf158b8697c5d896684c7c09913dec6de8d7b5530cc1aac",
            "hex": "483045022100ff9c50005edc64330ef43ca807aa7bd27eebfe1a5b5deb00bddd09802183de5202201a5b5627b9b84df58009ab7c789271e4562e2c8843c053f273e2299bec1adf5e014104d64e00ad3db573fdc009f960f04d9316a654f2b3aff5d33266a2dbcb3133ca414190e516d4e58acfebf158b8697c5d896684c7c09913dec6de8d7b5530cc1aac"
          },
          "sequence": 4294967295
        }, 
        {
          "txid": "b8b8832cd64b4a331d112df72d52228a433bd7344eb16f8cd6d71aad1e180eb4",
          "vout": 97,
          "scriptSig": {
            "asm": "3045022100a11e57b70c338dbd7532f25e06a2c7ddafc00d1d910d1b848fb0b980e0daae9102204cde3f5db8111dd169b2d0e5c957aa73b318e6f5d67f7d59a631147a180efacf[ALL] 04d64e00ad3db573fdc009f960f04d9316a654f2b3aff5d33266a2dbcb3133ca414190e516d4e58acfebf158b8697c5d896684c7c09913dec6de8d7b5530cc1aac",
            "hex": "483045022100a11e57b70c338dbd7532f25e06a2c7ddafc00d1d910d1b848fb0b980e0daae9102204cde3f5db8111dd169b2d0e5c957aa73b318e6f5d67f7d59a631147a180efacf014104d64e00ad3db573fdc009f960f04d9316a654f2b3aff5d33266a2dbcb3133ca414190e516d4e58acfebf158b8697c5d896684c7c09913dec6de8d7b5530cc1aac"
          },
          "sequence": 4294967295
        }, 
        {
          "txid": "c9291c1e27ed9b0d2139981fd4c62b599976edb69f8ed82533133a6de327b523",
          "vout": 27,
          "scriptSig": {
            "asm": "30440220484f91cca4206295b764bcf302b013317044596846a5d119e5acf826e7de023502206b22eb0fb9772493e06e59e8d36f385dc8c762e785f21c2a51f9c94726a2e70e[ALL] 04d64e00ad3db573fdc009f960f04d9316a654f2b3aff5d33266a2dbcb3133ca414190e516d4e58acfebf158b8697c5d896684c7c09913dec6de8d7b5530cc1aac",
            "hex": "4730440220484f91cca4206295b764bcf302b013317044596846a5d119e5acf826e7de023502206b22eb0fb9772493e06e59e8d36f385dc8c762e785f21c2a51f9c94726a2e70e014104d64e00ad3db573fdc009f960f04d9316a654f2b3aff5d33266a2dbcb3133ca414190e516d4e58acfebf158b8697c5d896684c7c09913dec6de8d7b5530cc1aac"
          },
          "sequence": 4294967295
        }, 
        {
          "txid": "ec310925f3faebc7a4cd0667efe4c062659b80f021fbaab485f2798c433927c3",
          "vout": 14,
          "scriptSig": {
            "asm": "3044022064e8f982af83b56a54f2a22c5cd743344e00931a8916871a5956a90ef9173c5502206fc3f1da4b7c141e5334e789830b807422e2f9e58f240279bab177fc8b708b80[ALL] 04d64e00ad3db573fdc009f960f04d9316a654f2b3aff5d33266a2dbcb3133ca414190e516d4e58acfebf158b8697c5d896684c7c09913dec6de8d7b5530cc1aac",
            "hex": "473044022064e8f982af83b56a54f2a22c5cd743344e00931a8916871a5956a90ef9173c5502206fc3f1da4b7c141e5334e789830b807422e2f9e58f240279bab177fc8b708b80014104d64e00ad3db573fdc009f960f04d9316a654f2b3aff5d33266a2dbcb3133ca414190e516d4e58acfebf158b8697c5d896684c7c09913dec6de8d7b5530cc1aac"
          },
          "sequence": 4294967295
        }, 
        {
          "txid": "f412a5bb6970b74af27b028bc0c82c9345c9649cb212983877244e42938434f3",
          "vout": 100,
          "scriptSig": {
            "asm": "3045022100f44d0de11d438a0df579a2510014d56f5dd39e1f4b2caf92a2e1e8d94d4fe8740220405f72f5f076a7c3a4a89796d894c43116c32a2555e381367664b21e1ea62d38[ALL] 04d64e00ad3db573fdc009f960f04d9316a654f2b3aff5d33266a2dbcb3133ca414190e516d4e58acfebf158b8697c5d896684c7c09913dec6de8d7b5530cc1aac",
            "hex": "483045022100f44d0de11d438a0df579a2510014d56f5dd39e1f4b2caf92a2e1e8d94d4fe8740220405f72f5f076a7c3a4a89796d894c43116c32a2555e381367664b21e1ea62d38014104d64e00ad3db573fdc009f960f04d9316a654f2b3aff5d33266a2dbcb3133ca414190e516d4e58acfebf158b8697c5d896684c7c09913dec6de8d7b5530cc1aac"
          },
          "sequence": 4294967295
        }, 
        {
          "txid": "fb3c396007187e730e7d919733c1b69c9b45c5cb7b9c7dad768baafe16d5a621",
          "vout": 93,
          "scriptSig": {
            "asm": "3044022037a1decc7279bc05ae0d655f8587157a0e450d0b3fb52cf51fe14169388340cf0220485a7b096133218ed9c93a5bfe5e7501d8edf5a1d3b82bf87b79ca7a2071aa37[ALL] 04d64e00ad3db573fdc009f960f04d9316a654f2b3aff5d33266a2dbcb3133ca414190e516d4e58acfebf158b8697c5d896684c7c09913dec6de8d7b5530cc1aac",
            "hex": "473044022037a1decc7279bc05ae0d655f8587157a0e450d0b3fb52cf51fe14169388340cf0220485a7b096133218ed9c93a5bfe5e7501d8edf5a1d3b82bf87b79ca7a2071aa37014104d64e00ad3db573fdc009f960f04d9316a654f2b3aff5d33266a2dbcb3133ca414190e516d4e58acfebf158b8697c5d896684c7c09913dec6de8d7b5530cc1aac"
          },
          "sequence": 4294967295
        }
      ],
      "vout": [
        {
          "value": 1.91283000,
          "n": 0,
          "scriptPubKey": {
            "asm": "OP_DUP OP_HASH160 4c614e4573617d1c1d425097fc8b31780ae9d4bf OP_EQUALVERIFY OP_CHECKSIG",
            "hex": "76a9144c614e4573617d1c1d425097fc8b31780ae9d4bf88ac",
            "reqSigs": 1,
            "type": "pubkeyhash",
            "addresses": [
              "LSBpBiN3j8kiUEf3v47QEmjbfhvbgGtwjk"
            ]
          }
        }
      ],
      "hex": "0100000014cea1f36cbf22dbe5080c73753987d125692aa5b61346118e94e08b1520a14702600000008b48304502210080a7d713b3d76b18fc85734fb57f861980a3fee218a3c0ef15fe5c36be7a45620220205d3f0d48339134527ad32c950cfcbfa5751fa21b4dc13560320641fe2f67cb014104d64e00ad3db573fdc009f960f04d9316a654f2b3aff5d33266a2dbcb3133ca414190e516d4e58acfebf158b8697c5d896684c7c09913dec6de8d7b5530cc1aacffffffff76577c2641111fd58126e02db72e3b065c27b12692910e67bba9442194fc57175c0000008a473044022017167f171767821262e1f9d3e11189c68f1a57043193562e80b754f86d510456022037eb6385cebdbdf337d2316562854623bb188e089c7ea99f091cf1518dd91e27014104d64e00ad3db573fdc009f960f04d9316a654f2b3aff5d33266a2dbcb3133ca414190e516d4e58acfebf158b8697c5d896684c7c09913dec6de8d7b5530cc1aacffffffff4cb6783d7dc72ea1b10b66a5316f70fd768a5479151deeab1309f60aec3c9633570000008a4730440220626cae6094c667ea83b4b393adb1601b4d828eec4b32fd15d3d55403e6b5656f0220318dd3676caad812aeca500936e3ae1a8937e3e956be6106d026533ba537a632014104d64e00ad3db573fdc009f960f04d9316a654f2b3aff5d33266a2dbcb3133ca414190e516d4e58acfebf158b8697c5d896684c7c09913dec6de8d7b5530cc1aacffffffffff4b4403bf8addab17b384578a53037700c18138aff15eb100f32dafcbf8b73e000000008a47304402205f3484a3e195fb9e9f1c7c2a8a347d2d46a7c97d2d778d954ff777a72127804902205cfd8af91826dbc870e944d9bedd992edab5cde3625fbfe3a5a11e72c6bac037014104d64e00ad3db573fdc009f960f04d9316a654f2b3aff5d33266a2dbcb3133ca414190e516d4e58acfebf158b8697c5d896684c7c09913dec6de8d7b5530cc1aacffffffff98c59ff2e6f747500e48366f94e929e4eb7b012d10c11918d76bd2f1e186f43f370000008a47304402207053368678677dcd0ad936b1ff56232a28575fff63a26d733bed0cb8d1d572fc022049abf3172f9cd7d29d4fe317cdb1d4428fa5c8489ddb620de52d9b0959b714b5014104d64e00ad3db573fdc009f960f04d9316a654f2b3aff5d33266a2dbcb3133ca414190e516d4e58acfebf158b8697c5d896684c7c09913dec6de8d7b5530cc1aacffffffffc88c6979d77af8484cfca512b59190a92f024e1bf4e8a0a4dee91971ea8e1b412a0000008a47304402206bd0317257b2d7b0c9a952a877ff7e8aea558eae0cdadbaf8cd4843f97983df002203fe19b41b10c0d9d5ee591b14fb7ae001709f8a6af0c2afc3420fe92d2e03e2c014104d64e00ad3db573fdc009f960f04d9316a654f2b3aff5d33266a2dbcb3133ca414190e516d4e58acfebf158b8697c5d896684c7c09913dec6de8d7b5530cc1aacffffffff1c36663df745d733c6b42c6c5f1b0194f63ea6a6ab6ab4d4af4c3296a0bbb041050000008a47304402204faacd0310cac4f3f8331e3a59cb85cc912bd763a8469431afe7925d559cb8270220784e965d10b86e78cc17f1d4f6020c0ed3d93da29e37f87187adeaca931e327e014104d64e00ad3db573fdc009f960f04d9316a654f2b3aff5d33266a2dbcb3133ca414190e516d4e58acfebf158b8697c5d896684c7c09913dec6de8d7b5530cc1aacffffffffae0c0bdae39703bfa10554e9e9bc261ae8442ac75d00ca7baa365376d58b6d72370000008a4730440220491b709e28ac3a87bf1900876abaa47e9ad07d7550b9038dbcd049a30f1b471e02204825f4f2a5841ea1212fed1ddba4ecb9d7aca97c5717ba613df088480869d97e014104d64e00ad3db573fdc009f960f04d9316a654f2b3aff5d33266a2dbcb3133ca414190e516d4e58acfebf158b8697c5d896684c7c09913dec6de8d7b5530cc1aacffffffffb825ac087736956993900c7cb5b92a9d8c1040ffb850e215cf494bf19aa4787b560000008a4730440220548a3d2cccf59adc438b81320a7f18a7f17f1c0408b1d62296e1b3b2a3d33b8d022055739c5c6143febb2d5b84c145217b152a0685ce12acec1b602af8977b382633014104d64e00ad3db573fdc009f960f04d9316a654f2b3aff5d33266a2dbcb3133ca414190e516d4e58acfebf158b8697c5d896684c7c09913dec6de8d7b5530cc1aacffffffffa668d007d0e37a45df7a1c313f06f4e760aeb8841d99252a4f2c50bfdc7fa07c090000008b483045022100c706b7d95c9879b4b3d009165d7aacd72d528def7d1478f68e19cdc78cd0623802203378a1fc3abfccfd69ac46e2d75af607ed4b5b52931334e426b4ed095b3f0e3d014104d64e00ad3db573fdc009f960f04d9316a654f2b3aff5d33266a2dbcb3133ca414190e516d4e58acfebf158b8697c5d896684c7c09913dec6de8d7b5530cc1aacffffffff316ba3c46cca9b547fa8da3561ca8fbaaf3f2699f08ba05e0f157caeec03ab82070000008a4730440220220b69dfd99a85c12557cd4ae819cec5936ce5120624d00720b59a2a0ca310c10220756f9e18d9aec71f6bde1f7ea96acbe8aa08ada1af7391844515c6bdd06a38a8014104d64e00ad3db573fdc009f960f04d9316a654f2b3aff5d33266a2dbcb3133ca414190e516d4e58acfebf158b8697c5d896684c7c09913dec6de8d7b5530cc1aacffffffffc70e939932d60e697871978102e41bb6da9f2f4ba31979c090a182830939988a570000008b483045022100dc598a2d2bc07cca3ea60bcb6e039e501a6c379dc23bacec5343d79138a68406022027bc4c3cca4d548dfb3b234e4c6cfb14901e1da385c66fdf268c5b92a1b14869014104d64e00ad3db573fdc009f960f04d9316a654f2b3aff5d33266a2dbcb3133ca414190e516d4e58acfebf158b8697c5d896684c7c09913dec6de8d7b5530cc1aacffffffffe9d32c38c13d118a31c3350e34808c99441f7acfc09d754a08b130553ef58d8e120000008a473044022046dfcc3eb1506a8265ed36dc7ac8d6d2add44b720ae4587406d831cf4ca96f0302204f823b88927c275460cff99251142fbbbe835b90feea7ad7df022936761a5fd5014104d64e00ad3db573fdc009f960f04d9316a654f2b3aff5d33266a2dbcb3133ca414190e516d4e58acfebf158b8697c5d896684c7c09913dec6de8d7b5530cc1aacffffffff87cc5ca1a3a138109104f705fd0810c90bc26c81545c1c615e942cb27e63e8945d0000008a47304402201200fbe7deaac22344089c39392280da88f10c9002f856c81f53c68559bb0c7b022067e1f337cdca9de01443534199a280721e9f3763277b15b6c1048bba3796d1db014104d64e00ad3db573fdc009f960f04d9316a654f2b3aff5d33266a2dbcb3133ca414190e516d4e58acfebf158b8697c5d896684c7c09913dec6de8d7b5530cc1aacffffffff94f5846a1033746258cae79ef7f1f1a4dfdcb37897dd6fcd733296bac38f0bb1060000008b483045022100ff9c50005edc64330ef43ca807aa7bd27eebfe1a5b5deb00bddd09802183de5202201a5b5627b9b84df58009ab7c789271e4562e2c8843c053f273e2299bec1adf5e014104d64e00ad3db573fdc009f960f04d9316a654f2b3aff5d33266a2dbcb3133ca414190e516d4e58acfebf158b8697c5d896684c7c09913dec6de8d7b5530cc1aacffffffffb40e181ead1ad7d68c6fb14e34d73b438a22522df72d111d334a4bd62c83b8b8610000008b483045022100a11e57b70c338dbd7532f25e06a2c7ddafc00d1d910d1b848fb0b980e0daae9102204cde3f5db8111dd169b2d0e5c957aa73b318e6f5d67f7d59a631147a180efacf014104d64e00ad3db573fdc009f960f04d9316a654f2b3aff5d33266a2dbcb3133ca414190e516d4e58acfebf158b8697c5d896684c7c09913dec6de8d7b5530cc1aacffffffff23b527e36d3a133325d88e9fb6ed7699592bc6d41f9839210d9bed271e1c29c91b0000008a4730440220484f91cca4206295b764bcf302b013317044596846a5d119e5acf826e7de023502206b22eb0fb9772493e06e59e8d36f385dc8c762e785f21c2a51f9c94726a2e70e014104d64e00ad3db573fdc009f960f04d9316a654f2b3aff5d33266a2dbcb3133ca414190e516d4e58acfebf158b8697c5d896684c7c09913dec6de8d7b5530cc1aacffffffffc32739438c79f285b4aafb21f0809b6562c0e4ef6706cda4c7ebfaf3250931ec0e0000008a473044022064e8f982af83b56a54f2a22c5cd743344e00931a8916871a5956a90ef9173c5502206fc3f1da4b7c141e5334e789830b807422e2f9e58f240279bab177fc8b708b80014104d64e00ad3db573fdc009f960f04d9316a654f2b3aff5d33266a2dbcb3133ca414190e516d4e58acfebf158b8697c5d896684c7c09913dec6de8d7b5530cc1aacfffffffff3348493424e2477389812b29c64c945932cc8c08b027bf24ab77069bba512f4640000008b483045022100f44d0de11d438a0df579a2510014d56f5dd39e1f4b2caf92a2e1e8d94d4fe8740220405f72f5f076a7c3a4a89796d894c43116c32a2555e381367664b21e1ea62d38014104d64e00ad3db573fdc009f960f04d9316a654f2b3aff5d33266a2dbcb3133ca414190e516d4e58acfebf158b8697c5d896684c7c09913dec6de8d7b5530cc1aacffffffff21a6d516feaa8b76ad7d9c7bcbc5459b9cb6c13397917d0e737e180760393cfb5d0000008a473044022037a1decc7279bc05ae0d655f8587157a0e450d0b3fb52cf51fe14169388340cf0220485a7b096133218ed9c93a5bfe5e7501d8edf5a1d3b82bf87b79ca7a2071aa37014104d64e00ad3db573fdc009f960f04d9316a654f2b3aff5d33266a2dbcb3133ca414190e516d4e58acfebf158b8697c5d896684c7c09913dec6de8d7b5530cc1aacffffffff0138bf660b000000001976a9144c614e4573617d1c1d425097fc8b31780ae9d4bf88ac00000000"
    }, 
    {
      "txid": "675fc0b77713875446da896abe5c0f6a6c83b477c111a54ea26fbfeee7909f66",
      "hash": "675fc0b77713875446da896abe5c0f6a6c83b477c111a54ea26fbfeee7909f66",
      "version": 1,
      "size": 226,
      "vsize": 226,
      "locktime": 0,
      "vin": [
        {
          "txid": "55f174ad8d4a852449346356b140ea973be666ccd715c8a0483fe6926012b022",
          "vout": 1,
          "scriptSig": {
            "asm": "3045022100e5b569f48856dc1bbfb42d74d548e362b9b42b4e2cfdc50a022ec59a6107994602203deebc0d7e89fbfaf2609b79bbbd91ca5537092b10b9211478a3900221f3bd0d[ALL] 02db5b75ae239111e378649c836b020205a4d352be310516878a2ae81d71012484",
            "hex": "483045022100e5b569f48856dc1bbfb42d74d548e362b9b42b4e2cfdc50a022ec59a6107994602203deebc0d7e89fbfaf2609b79bbbd91ca5537092b10b9211478a3900221f3bd0d012102db5b75ae239111e378649c836b020205a4d352be310516878a2ae81d71012484"
          },
          "sequence": 4294967295
        }
      ],
      "vout": [
        {
          "value": 91.46781791,
          "n": 0,
          "scriptPubKey": {
            "asm": "OP_DUP OP_HASH160 08c5c7bd0e3eccd8559e635f228de94077b8df12 OP_EQUALVERIFY OP_CHECKSIG",
            "hex": "76a91408c5c7bd0e3eccd8559e635f228de94077b8df1288ac",
            "reqSigs": 1,
            "type": "pubkeyhash",
            "addresses": [
              "LL2Lbky1penyvG2rQa2iUD79RWrobZNbsf"
            ]
          }
        }, 
        {
          "value": 0.29977400,
          "n": 1,
          "scriptPubKey": {
            "asm": "OP_DUP OP_HASH160 ca70ab3890f2382f2e241b6c8d8a43f0fb1c6ab6 OP_EQUALVERIFY OP_CHECKSIG",
            "hex": "76a914ca70ab3890f2382f2e241b6c8d8a43f0fb1c6ab688ac",
            "reqSigs": 1,
            "type": "pubkeyhash",
            "addresses": [
              "LdgMjL7qzWBL1NUkNLpCq4Y9gJjAveGAzx"
            ]
          }
        }
      ],
      "hex": "010000000122b0126092e63f48a0c815d7cc66e63b97ea40b15663344924854a8dad74f155010000006b483045022100e5b569f48856dc1bbfb42d74d548e362b9b42b4e2cfdc50a022ec59a6107994602203deebc0d7e89fbfaf2609b79bbbd91ca5537092b10b9211478a3900221f3bd0d012102db5b75ae239111e378649c836b020205a4d352be310516878a2ae81d71012484ffffffff025fd03021020000001976a91408c5c7bd0e3eccd8559e635f228de94077b8df1288ac386bc901000000001976a914ca70ab3890f2382f2e241b6c8d8a43f0fb1c6ab688ac00000000"
    }
  ],
  "time": 1517502964,
  "mediantime": 1517502018,
  "nonce": 861364771,
  "bits": "1a04088e",
  "difficulty": 4159490.835685156,
  "chainwork": "0000000000000000000000000000000000000000000000356bdd2d5059bfb0a0",
  "previousblockhash": "871c8c5754f1f0f6f857494a29e76fa498890ddc71974a7e5f67c265a9f775ae",
  "nextblockhash": "c98d1a5015dee9b405f4f91ec3a0d743cf16877d2932fa065838de067c008f37"
}
