{
  "hash": "392c842cbf118547fb2ad605adb4e00e3e889f69946319d4c6c6dc8bdb162406",
  "confirmations": 1172,
  "strippedsize": 3769,
  "size": 4993,
  "weight": 16300,
  "height": 1359822,
  "version": 536870912,
  "versionHex": "20000000",
  "merkleroot": "41ef27431823e59fd16ed41b4c74878e6db39299ba0a5b2a630a08324c475d96",
  "tx": [
    {
      "txid": "aef1f5933273ea6a8d49c153a56305657fe63d2abf9e076be2d69330472434ff",
      "hash": "2ed6e5461a446e5165230aa9d402cf72e741f370dc72cad7576ce4afd2709a94",
      "version": 1,
      "size": 244,
      "vsize": 217,
      "locktime": 0,
      "vin": [
        {
          "coinbase": "03cebf1404bcb5705a0802b4b16c02000000fabe6d6df85ea44ec679842ec3148b79fad1ec583606b06e933788d6aa1dc028a7e80fe040000000000000000d2f6e6f64655374726174756d2f",
          "sequence": 0
        }
      ],
      "vout": [
        {
          "value": 25.00889060,
          "n": 0,
          "scriptPubKey": {
            "asm": "OP_DUP OP_HASH160 0c617fdb2ea42aed30a509595ee21ba3f6688db0 OP_EQUALVERIFY OP_CHECKSIG",
            "hex": "76a9140c617fdb2ea42aed30a509595ee21ba3f6688db088ac",
            "reqSigs": 1,
            "type": "pubkeyhash",
            "addresses": [
              "LLMRAtr3qBje2ySEa3CnZ55LA4TQMWnRY3"
            ]
          }
        }, 
        {
          "value": 0.00000000,
          "n": 1,
          "scriptPubKey": {
            "asm": "OP_RETURN aa21a9edf0ba09d7e1875883b775440a8919d57ccf16816cf8007d1c7580a275a86b7a18",
            "hex": "6a24aa21a9edf0ba09d7e1875883b775440a8919d57ccf16816cf8007d1c7580a275a86b7a18",
            "type": "nulldata"
          }
        }
      ],
      "hex": "010000000001010000000000000000000000000000000000000000000000000000000000000000ffffffff4c03cebf1404bcb5705a0802b4b16c02000000fabe6d6df85ea44ec679842ec3148b79fad1ec583606b06e933788d6aa1dc028a7e80fe040000000000000000d2f6e6f64655374726174756d2f0000000002e4891095000000001976a9140c617fdb2ea42aed30a509595ee21ba3f6688db088ac0000000000000000266a24aa21a9edf0ba09d7e1875883b775440a8919d57ccf16816cf8007d1c7580a275a86b7a180120000000000000000000000000000000000000000000000000000000000000000000000000"
    }, 
    {
      "txid": "ed2ddff3917b2b5129068e7a82a3b3ca540db722784916866015c22836098262",
      "hash": "ed2ddff3917b2b5129068e7a82a3b3ca540db722784916866015c22836098262",
      "version": 1,
      "size": 226,
      "vsize": 226,
      "locktime": 0,
      "vin": [
        {
          "txid": "afc5fcd77b5ce4885757423a89c7aa24258f4093fa9404c4a728b51e2a50823d",
          "vout": 1,
          "scriptSig": {
            "asm": "3045022100bb4d2ff57b31992d48562a4e7baa9254357806d03021ddd420108b6d4c060d2702205f86bda88aa7ec4781b64d8ac7b5bd2ee0a8028358c9ff908dd4014cd62eeb70[ALL] 03045557468cb480ae3fdf7b18f7869def61be4e141fdfcba7f53ba667d2007c9a",
            "hex": "483045022100bb4d2ff57b31992d48562a4e7baa9254357806d03021ddd420108b6d4c060d2702205f86bda88aa7ec4781b64d8ac7b5bd2ee0a8028358c9ff908dd4014cd62eeb70012103045557468cb480ae3fdf7b18f7869def61be4e141fdfcba7f53ba667d2007c9a"
          },
          "sequence": 4294967295
        }
      ],
      "vout": [
        {
          "value": 0.23906153,
          "n": 0,
          "scriptPubKey": {
            "asm": "OP_DUP OP_HASH160 c23aeaceee91f02d327a537d28c764f624227409 OP_EQUALVERIFY OP_CHECKSIG",
            "hex": "76a914c23aeaceee91f02d327a537d28c764f62422740988ac",
            "reqSigs": 1,
            "type": "pubkeyhash",
            "addresses": [
              "Lcvww4v7PcXMtpFeEX6wPaf6GrZGBVTpax"
            ]
          }
        }, 
        {
          "value": 29.34691666,
          "n": 1,
          "scriptPubKey": {
            "asm": "OP_DUP OP_HASH160 8c184560f54552e065fe1a43a555ab79bb9fd40b OP_EQUALVERIFY OP_CHECKSIG",
            "hex": "76a9148c184560f54552e065fe1a43a555ab79bb9fd40b88ac",
            "reqSigs": 1,
            "type": "pubkeyhash",
            "addresses": [
              "LXzhwSyYhTxZt4piVs7KvYPAWKDdXvMTNo"
            ]
          }
        }
      ],
      "hex": "01000000013d82502a1eb528a7c40494fa93408f2524aac7893a42575788e45c7bd7fcc5af010000006b483045022100bb4d2ff57b31992d48562a4e7baa9254357806d03021ddd420108b6d4c060d2702205f86bda88aa7ec4781b64d8ac7b5bd2ee0a8028358c9ff908dd4014cd62eeb70012103045557468cb480ae3fdf7b18f7869def61be4e141fdfcba7f53ba667d2007c9affffffff0269c76c01000000001976a914c23aeaceee91f02d327a537d28c764f62422740988ac52d7ebae000000001976a9148c184560f54552e065fe1a43a555ab79bb9fd40b88ac00000000"
    }, 
    {
      "txid": "5b1518fb35150300458fecdf14d71045bad0145791ae07b33b710781935072bc",
      "hash": "5b1518fb35150300458fecdf14d71045bad0145791ae07b33b710781935072bc",
      "version": 2,
      "size": 226,
      "vsize": 226,
      "locktime": 1359820,
      "vin": [
        {
          "txid": "6b3df6339f32aed2dbd43b55c885c4ea8c46abe3776d4741db383e5aa9af9609",
          "vout": 0,
          "scriptSig": {
            "asm": "30450221009c0942f1fc081e7bbc79cf3e1ed04ca0e4d54b7ac6e8a7512ee4f475aa0aa8d902207363ba9311683f1a2edf9fd243ff674932e4ea1b02c28dafe87021ee7f52bfe5[ALL] 03ffb0d0647248db8cf6c1d674eaadcfc2856ed5167f4b7795a02863623f868781",
            "hex": "4830450221009c0942f1fc081e7bbc79cf3e1ed04ca0e4d54b7ac6e8a7512ee4f475aa0aa8d902207363ba9311683f1a2edf9fd243ff674932e4ea1b02c28dafe87021ee7f52bfe5012103ffb0d0647248db8cf6c1d674eaadcfc2856ed5167f4b7795a02863623f868781"
          },
          "sequence": 4294967294
        }
      ],
      "vout": [
        {
          "value": 0.05602117,
          "n": 0,
          "scriptPubKey": {
            "asm": "OP_DUP OP_HASH160 963ebbeb5b5b7fb4f39790db59c744dbbd575d67 OP_EQUALVERIFY OP_CHECKSIG",
            "hex": "76a914963ebbeb5b5b7fb4f39790db59c744dbbd575d6788ac",
            "reqSigs": 1,
            "type": "pubkeyhash",
            "addresses": [
              "LYvNmptY4e8zvt3cgDo1DczfYN8eBqucYP"
            ]
          }
        }, 
        {
          "value": 12.32699990,
          "n": 1,
          "scriptPubKey": {
            "asm": "OP_DUP OP_HASH160 d2ce34099c9387157fac746f56b2bd8fbcb76cc9 OP_EQUALVERIFY OP_CHECKSIG",
            "hex": "76a914d2ce34099c9387157fac746f56b2bd8fbcb76cc988ac",
            "reqSigs": 1,
            "type": "pubkeyhash",
            "addresses": [
              "LeSbBkZcR7qsFaXooCcPvPNpKjfjm9DA4Q"
            ]
          }
        }
      ],
      "hex": "02000000010996afa95a3e38db41476d77e3ab468ceac485c8553bd4dbd2ae329f33f63d6b000000006b4830450221009c0942f1fc081e7bbc79cf3e1ed04ca0e4d54b7ac6e8a7512ee4f475aa0aa8d902207363ba9311683f1a2edf9fd243ff674932e4ea1b02c28dafe87021ee7f52bfe5012103ffb0d0647248db8cf6c1d674eaadcfc2856ed5167f4b7795a02863623f868781feffffff02457b5500000000001976a914963ebbeb5b5b7fb4f39790db59c744dbbd575d6788ac56827949000000001976a914d2ce34099c9387157fac746f56b2bd8fbcb76cc988acccbf1400"
    }, 
    {
      "txid": "8be85508455bd0db3f5113e712572a05a03534546dc1c6074cd9fa7cfd824a6f",
      "hash": "b8fc4fdf28119e7f71c11e53e7c15238c6e69b420ac62b8a509b54ad389f2e4d",
      "version": 1,
      "size": 373,
      "vsize": 208,
      "locktime": 0,
      "vin": [
        {
          "txid": "b2c6543abbdaa2c1887704d3faa988702df7c088214bd26e7e2bc33731aceb20",
          "vout": 1,
          "scriptSig": {
            "asm": "00207975c3f0d1bf8b6205e1c664d703c93d68409676bf17c5e78cdece78bdbf3dbf",
            "hex": "2200207975c3f0d1bf8b6205e1c664d703c93d68409676bf17c5e78cdece78bdbf3dbf"
          },
          "txinwitness": [
            "", 
            "304402205555cc8d6eb4c3523681b24ab3ddce7cf766a0e3f70e7ac98eff0f5e1413b9d602207da1b014399ae63ad3ad78945b4f0ae2b93a05e34672bd3029c11f0961adef4a01", 
            "3045022100cd225df0c45aaebb894038817732933d9d29a34acb6a05c7e077ff1f8f395261022006ae33090f6cffabe3831560524ffa74239e581c365f31af41b37a793c7e5f4001", 
            "522102611be09a0c6a571c8f68adb2481e938888756d93d4ee5b670f08c16e939b7f1a21022cc7a96a72ef014bf078a6489644e2edb05bb216d30b4f28363b637fe4463fd652ae"
          ],
          "sequence": 4294967295
        }
      ],
      "vout": [
        {
          "value": 0.02542400,
          "n": 0,
          "scriptPubKey": {
            "asm": "OP_DUP OP_HASH160 fde9a21fd1ac61433a3d096df37d8d503d5e631e OP_EQUALVERIFY OP_CHECKSIG",
            "hex": "76a914fde9a21fd1ac61433a3d096df37d8d503d5e631e88ac",
            "reqSigs": 1,
            "type": "pubkeyhash",
            "addresses": [
              "LiNX6sYUTMkca1Yx7oh4YJdDuHKBSKNhv4"
            ]
          }
        }, 
        {
          "value": 5.31065544,
          "n": 1,
          "scriptPubKey": {
            "asm": "OP_HASH160 486ce63d83e8406016f310cd321d36bbdd10d412 OP_EQUAL",
            "hex": "a914486ce63d83e8406016f310cd321d36bbdd10d41287",
            "reqSigs": 1,
            "type": "scripthash",
            "addresses": [
              "MEW7Lhk6QzBLmCNp5pmpYzwv1KAcKYsSQp"
            ]
          }
        }
      ],
      "hex": "0100000000010120ebac3137c32b7e6ed24b2188c0f72d7088a9fad3047788c1a2dabb3a54c6b201000000232200207975c3f0d1bf8b6205e1c664d703c93d68409676bf17c5e78cdece78bdbf3dbfffffffff0240cb2600000000001976a914fde9a21fd1ac61433a3d096df37d8d503d5e631e88acc86aa71f0000000017a914486ce63d83e8406016f310cd321d36bbdd10d41287040047304402205555cc8d6eb4c3523681b24ab3ddce7cf766a0e3f70e7ac98eff0f5e1413b9d602207da1b014399ae63ad3ad78945b4f0ae2b93a05e34672bd3029c11f0961adef4a01483045022100cd225df0c45aaebb894038817732933d9d29a34acb6a05c7e077ff1f8f395261022006ae33090f6cffabe3831560524ffa74239e581c365f31af41b37a793c7e5f400147522102611be09a0c6a571c8f68adb2481e938888756d93d4ee5b670f08c16e939b7f1a21022cc7a96a72ef014bf078a6489644e2edb05bb216d30b4f28363b637fe4463fd652ae00000000"
    }, 
    {
      "txid": "7708c2e6d1cc6b43d12d2528c667a583e89c824c710257cb7b27f92988a532d0",
      "hash": "7a44ec40714ad8b1302e6918faed294a48808ec0b7b18939c8a9292053e158ee",
      "version": 1,
      "size": 1587,
      "vsize": 862,
      "locktime": 0,
      "vin": [
        {
          "txid": "168093a248bf4d154cba1512d48de2a8d09774b497eade564e0b4cf30059f091",
          "vout": 931,
          "scriptSig": {
            "asm": "0014ef8661fe82e4aa922abc048217f9488a0b0bafe3",
            "hex": "160014ef8661fe82e4aa922abc048217f9488a0b0bafe3"
          },
          "txinwitness": [
            "304402203537dd66d899950c510082b60bcda93e63d242b40f766e0494be34fc79966a1102206510644888824aade891f224e70e25e69715b7398ec04a9afd71faea485fb8c401", 
            "037384d264e37a4eaccd07510df6ad7f124ca8189345c8b8819a0448fa368726a6"
          ],
          "sequence": 4294967295
        }, 
        {
          "txid": "2085cf583097e34f6a786d8c1b5fc0dd6d8b508f63a91bd1dd1f810295a8ea29",
          "vout": 1,
          "scriptSig": {
            "asm": "00148b3a152ec99dae027b117e8cb722670741fdd510",
            "hex": "1600148b3a152ec99dae027b117e8cb722670741fdd510"
          },
          "txinwitness": [
            "30440220516aaf7322844cdc92412b113b0e3c6dea24354a4f7a0ec387faf27fceeff3ff022047b886e0f252f9d52866b5cfd00390fd4dfda2433b9a15750fe2f359385074b301", 
            "020b624981c15650307990dac90b86faabbb0dfa6303039a2cf724dedaf8a81007"
          ],
          "sequence": 4294967295
        }, 
        {
          "txid": "3396998861d6438ad463b9e55a5917fd1996ae6007993e4f5eb4d0be0df75590",
          "vout": 930,
          "scriptSig": {
            "asm": "0014ef8661fe82e4aa922abc048217f9488a0b0bafe3",
            "hex": "160014ef8661fe82e4aa922abc048217f9488a0b0bafe3"
          },
          "txinwitness": [
            "304402203981166f2e417a86a2916073687a751a2ca75aaaeec7264e5ca8f1762c6f5361022026bfb2a146c87786417ef5300cd0865780524fe4a202a9e99b3e17434958f15501", 
            "037384d264e37a4eaccd07510df6ad7f124ca8189345c8b8819a0448fa368726a6"
          ],
          "sequence": 4294967295
        }, 
        {
          "txid": "5c47b88408e49056480a878e8b383efdd267ddcfdf1ddf7dfcb7eb41ef2e76fc",
          "vout": 1,
          "scriptSig": {
            "asm": "0014ef8661fe82e4aa922abc048217f9488a0b0bafe3",
            "hex": "160014ef8661fe82e4aa922abc048217f9488a0b0bafe3"
          },
          "txinwitness": [
            "30440220356d1d8ad9f749a0ce2d521d65f57ff192596955ebb9765e7a7fc541bf17fd4302206a2d6cec840ceb9824a8e46bfcaa7f0344eef746e529af92570d63a8f8b2b97101", 
            "037384d264e37a4eaccd07510df6ad7f124ca8189345c8b8819a0448fa368726a6"
          ],
          "sequence": 4294967295
        }, 
        {
          "txid": "7ea4ae960f994cc8f58cf3e47e7fc4e9170dce9c1f9980d3968f42b5d73edd38",
          "vout": 130,
          "scriptSig": {
            "asm": "0014ef8661fe82e4aa922abc048217f9488a0b0bafe3",
            "hex": "160014ef8661fe82e4aa922abc048217f9488a0b0bafe3"
          },
          "txinwitness": [
            "30440220518b08e5c1d641038d038fb4163a249ddc33e358be5c6ae6c4000d570fd0862802207c1c3f593cb5da7abb89fa57d32355d2f52eae515d5d41a8ba4274b5097362ba01", 
            "037384d264e37a4eaccd07510df6ad7f124ca8189345c8b8819a0448fa368726a6"
          ],
          "sequence": 4294967295
        }, 
        {
          "txid": "88bd1499bd1736e115c3c4dcd2880241e693d2d373768e38bba256768fe69caa",
          "vout": 1,
          "scriptSig": {
            "asm": "0014d7dfd41a7a2d44a25d3d3307027a0844ccbdae40",
            "hex": "160014d7dfd41a7a2d44a25d3d3307027a0844ccbdae40"
          },
          "txinwitness": [
            "3045022100aab4bf1b3146d8795e1d0f6df7d662bb187ec176fc086d1d5fd5f94ca5d1e36102204aa6b62c5bafb58b9efeca437862f1a9d72ba988b95f70957ac34eadd476e1ce01", 
            "033f38b46ab152b38d7f8d6554f7aab673d268013dbbdeacc7ccb2aa4b3481732e"
          ],
          "sequence": 4294967295
        }, 
        {
          "txid": "8fe68ec1037a1337dd637e32477a46893b36be4a719140cd96ce3343023f16be",
          "vout": 2,
          "scriptSig": {
            "asm": "0014ebf7a6e7091ed4ef968caf478e846d50add93226",
            "hex": "160014ebf7a6e7091ed4ef968caf478e846d50add93226"
          },
          "txinwitness": [
            "30450221009d800d6691ed2102000c1963690805b4cbf8822534a729a1f8bb68f512b9935302205d3742b20a2b8f4209006e2cf58ef06a38dad73429cece291450929dc0b8310501", 
            "037f4bbcd23991463b3555e9394e9beae2c6b09274b4274e8b346a1eed044c93d2"
          ],
          "sequence": 4294967295
        }, 
        {
          "txid": "b341edb0e85cc345b37a1e6f907d8351aebada02b164d614c8e63fec66592742",
          "vout": 929,
          "scriptSig": {
            "asm": "0014ef8661fe82e4aa922abc048217f9488a0b0bafe3",
            "hex": "160014ef8661fe82e4aa922abc048217f9488a0b0bafe3"
          },
          "txinwitness": [
            "304402202ff0dd9525bf76c8e648a3f7cec8d7e1fc9661f62398dcfb9c55cce1e428625f02200a7c308f5ead29859d7b66cef49a95e18ff8ed0ed420c18a965d94ab0ba2d5b801", 
            "037384d264e37a4eaccd07510df6ad7f124ca8189345c8b8819a0448fa368726a6"
          ],
          "sequence": 4294967295
        }, 
        {
          "txid": "eb0e4aa30a31bff912dd4c55f51a3b6cbfd0826a93c7e8487be1b59368ffe0ff",
          "vout": 0,
          "scriptSig": {
            "asm": "00147b430a14328de55cf853b1ac930d84f9d8dfa270",
            "hex": "1600147b430a14328de55cf853b1ac930d84f9d8dfa270"
          },
          "txinwitness": [
            "304402204c4d6b027d0609f7054c090a7372535b9a011d083c1dc84ccdad73a83a81b10802201095375ba08e346376a60c9c86adf62d02a1944bae04fd27753fc2414f509a7d01", 
            "02872a05b8a030df8068fc2006dc617a20c364e35c6d83768a5450714c06419b7a"
          ],
          "sequence": 4294967295
        }
      ],
      "vout": [
        {
          "value": 10.00000000,
          "n": 0,
          "scriptPubKey": {
            "asm": "OP_DUP OP_HASH160 dfa558c6820831d7da7d9331f4bef5a937ddaadd OP_EQUALVERIFY OP_CHECKSIG",
            "hex": "76a914dfa558c6820831d7da7d9331f4bef5a937ddaadd88ac",
            "reqSigs": 1,
            "type": "pubkeyhash",
            "addresses": [
              "LfcV2VBsiSFzAgUjSaMALZnhHfbGxno2A2"
            ]
          }
        }
      ],
      "hex": "0100000000010991f05900f34c0b4e56deea97b47497d0a8e28dd41215ba4c154dbf48a2938016a303000017160014ef8661fe82e4aa922abc048217f9488a0b0bafe3ffffffff29eaa89502811fddd11ba9638f508b6dddc05f1b8c6d786a4fe3973058cf852001000000171600148b3a152ec99dae027b117e8cb722670741fdd510ffffffff9055f70dbed0b45e4f3e990760ae9619fd17595ae5b963d48a43d66188999633a203000017160014ef8661fe82e4aa922abc048217f9488a0b0bafe3fffffffffc762eef41ebb7fc7ddf1ddfcfdd67d2fd3e388b8e870a485690e40884b8475c0100000017160014ef8661fe82e4aa922abc048217f9488a0b0bafe3ffffffff38dd3ed7b5428f96d380991f9cce0d17e9c47f7ee4f38cf5c84c990f96aea47e8200000017160014ef8661fe82e4aa922abc048217f9488a0b0bafe3ffffffffaa9ce68f7656a2bb388e7673d3d293e6410288d2dcc4c315e13617bd9914bd880100000017160014d7dfd41a7a2d44a25d3d3307027a0844ccbdae40ffffffffbe163f024333ce96cd4091714abe363b89467a47327e63dd37137a03c18ee68f0200000017160014ebf7a6e7091ed4ef968caf478e846d50add93226ffffffff42275966ec3fe6c814d664b102dabaae51837d906f1e7ab345c35ce8b0ed41b3a103000017160014ef8661fe82e4aa922abc048217f9488a0b0bafe3ffffffffffe0ff6893b5e17b48e8c7936a82d0bf6c3b1af5554cdd12f9bf310aa34a0eeb00000000171600147b430a14328de55cf853b1ac930d84f9d8dfa270ffffffff0100ca9a3b000000001976a914dfa558c6820831d7da7d9331f4bef5a937ddaadd88ac0247304402203537dd66d899950c510082b60bcda93e63d242b40f766e0494be34fc79966a1102206510644888824aade891f224e70e25e69715b7398ec04a9afd71faea485fb8c40121037384d264e37a4eaccd07510df6ad7f124ca8189345c8b8819a0448fa368726a6024730440220516aaf7322844cdc92412b113b0e3c6dea24354a4f7a0ec387faf27fceeff3ff022047b886e0f252f9d52866b5cfd00390fd4dfda2433b9a15750fe2f359385074b30121020b624981c15650307990dac90b86faabbb0dfa6303039a2cf724dedaf8a810070247304402203981166f2e417a86a2916073687a751a2ca75aaaeec7264e5ca8f1762c6f5361022026bfb2a146c87786417ef5300cd0865780524fe4a202a9e99b3e17434958f1550121037384d264e37a4eaccd07510df6ad7f124ca8189345c8b8819a0448fa368726a6024730440220356d1d8ad9f749a0ce2d521d65f57ff192596955ebb9765e7a7fc541bf17fd4302206a2d6cec840ceb9824a8e46bfcaa7f0344eef746e529af92570d63a8f8b2b9710121037384d264e37a4eaccd07510df6ad7f124ca8189345c8b8819a0448fa368726a6024730440220518b08e5c1d641038d038fb4163a249ddc33e358be5c6ae6c4000d570fd0862802207c1c3f593cb5da7abb89fa57d32355d2f52eae515d5d41a8ba4274b5097362ba0121037384d264e37a4eaccd07510df6ad7f124ca8189345c8b8819a0448fa368726a602483045022100aab4bf1b3146d8795e1d0f6df7d662bb187ec176fc086d1d5fd5f94ca5d1e36102204aa6b62c5bafb58b9efeca437862f1a9d72ba988b95f70957ac34eadd476e1ce0121033f38b46ab152b38d7f8d6554f7aab673d268013dbbdeacc7ccb2aa4b3481732e024830450221009d800d6691ed2102000c1963690805b4cbf8822534a729a1f8bb68f512b9935302205d3742b20a2b8f4209006e2cf58ef06a38dad73429cece291450929dc0b831050121037f4bbcd23991463b3555e9394e9beae2c6b09274b4274e8b346a1eed044c93d20247304402202ff0dd9525bf76c8e648a3f7cec8d7e1fc9661f62398dcfb9c55cce1e428625f02200a7c308f5ead29859d7b66cef49a95e18ff8ed0ed420c18a965d94ab0ba2d5b80121037384d264e37a4eaccd07510df6ad7f124ca8189345c8b8819a0448fa368726a60247304402204c4d6b027d0609f7054c090a7372535b9a011d083c1dc84ccdad73a83a81b10802201095375ba08e346376a60c9c86adf62d02a1944bae04fd27753fc2414f509a7d012102872a05b8a030df8068fc2006dc617a20c364e35c6d83768a5450714c06419b7a00000000"
    }, 
    {
      "txid": "d2a6fea6c3005e5da3031b047b3bbf4376d7f54d2addeb3a2ab98ac2f5929d71",
      "hash": "d2a6fea6c3005e5da3031b047b3bbf4376d7f54d2addeb3a2ab98ac2f5929d71",
      "version": 1,
      "size": 225,
      "vsize": 225,
      "locktime": 0,
      "vin": [
        {
          "txid": "93923b88193070e7bec7dcb5eb46ddd9414b5b925cfaa99cea8353411065756b",
          "vout": 4,
          "scriptSig": {
            "asm": "304402204a60ae01b089813bfb43fc5262d9270dfe1a7cae2165ce5ac234d1a44037da9802206a297d989a6710531e73b9c0eeef604e3327f97a0f2249ded41bb7e0b412f8d5[ALL] 038fd35c8d8c9ce29a6cfe2ab3a48367e055907718d50d5eaf338ca7974a422c33",
            "hex": "47304402204a60ae01b089813bfb43fc5262d9270dfe1a7cae2165ce5ac234d1a44037da9802206a297d989a6710531e73b9c0eeef604e3327f97a0f2249ded41bb7e0b412f8d50121038fd35c8d8c9ce29a6cfe2ab3a48367e055907718d50d5eaf338ca7974a422c33"
          },
          "sequence": 4294967295
        }
      ],
      "vout": [
        {
          "value": 10.81877400,
          "n": 0,
          "scriptPubKey": {
            "asm": "OP_DUP OP_HASH160 a191459b8534c3f404103cc01b41b5e6dab0b47b OP_EQUALVERIFY OP_CHECKSIG",
            "hex": "76a914a191459b8534c3f404103cc01b41b5e6dab0b47b88ac",
            "reqSigs": 1,
            "type": "pubkeyhash",
            "addresses": [
              "LZxF5mR1jyA4WKCHcUvTUU8V2xNi6ms5MS"
            ]
          }
        }, 
        {
          "value": 1.20000000,
          "n": 1,
          "scriptPubKey": {
            "asm": "OP_DUP OP_HASH160 c2221dee23893dc8243f7ebd14dc56ea47c4fabe OP_EQUALVERIFY OP_CHECKSIG",
            "hex": "76a914c2221dee23893dc8243f7ebd14dc56ea47c4fabe88ac",
            "reqSigs": 1,
            "type": "pubkeyhash",
            "addresses": [
              "LcvSDuuKxoSokDuVkpN8tKzCYon6QatZaw"
            ]
          }
        }
      ],
      "hex": "01000000016b756510415383ea9ca9fa5c925b4b41d9dd46ebb5dcc7bee7703019883b9293040000006a47304402204a60ae01b089813bfb43fc5262d9270dfe1a7cae2165ce5ac234d1a44037da9802206a297d989a6710531e73b9c0eeef604e3327f97a0f2249ded41bb7e0b412f8d50121038fd35c8d8c9ce29a6cfe2ab3a48367e055907718d50d5eaf338ca7974a422c33ffffffff0298237c40000000001976a914a191459b8534c3f404103cc01b41b5e6dab0b47b88ac000e2707000000001976a914c2221dee23893dc8243f7ebd14dc56ea47c4fabe88ac00000000"
    }, 
    {
      "txid": "6764b5b6ad0ce6e6fa8af244dc50665a82f788d3768d367182d7454e54c7bc01",
      "hash": "6764b5b6ad0ce6e6fa8af244dc50665a82f788d3768d367182d7454e54c7bc01",
      "version": 2,
      "size": 291,
      "vsize": 291,
      "locktime": 1359820,
      "vin": [
        {
          "txid": "9752167aec92a87b916246c5558708d4c778346f336dba56a328045f769024e8",
          "vout": 1,
          "scriptSig": {
            "asm": "30440220524d371cd65a30c987a15a6b40ab479048c6b77954fbb85266c4e693bf69773f022036aa840b7f235678fd497fb935a72d812049c568a612baf8c35f4481dfe9f42c[ALL] 023e48a399e3f3a8d02b4d1db4e84c9fdbcd47b359ceb92a1096ba9a3fb4496143",
            "hex": "4730440220524d371cd65a30c987a15a6b40ab479048c6b77954fbb85266c4e693bf69773f022036aa840b7f235678fd497fb935a72d812049c568a612baf8c35f4481dfe9f42c0121023e48a399e3f3a8d02b4d1db4e84c9fdbcd47b359ceb92a1096ba9a3fb4496143"
          },
          "sequence": 4294967294
        }
      ],
      "vout": [
        {
          "value": 50.19900000,
          "n": 0,
          "scriptPubKey": {
            "asm": "OP_DUP OP_HASH160 5f63e7b790d59ddd2a114f9f64d0b91b8607ee6b OP_EQUALVERIFY OP_CHECKSIG",
            "hex": "76a9145f63e7b790d59ddd2a114f9f64d0b91b8607ee6b88ac",
            "reqSigs": 1,
            "type": "pubkeyhash",
            "addresses": [
              "LTvL8y6nPQNhnCfVKVw3mrBKpBRFSrcc5r"
            ]
          }
        }, 
        {
          "value": 0.08691387,
          "n": 1,
          "scriptPubKey": {
            "asm": "OP_DUP OP_HASH160 55f9b90fbd4123b47d3d402f69d276136e67e3e3 OP_EQUALVERIFY OP_CHECKSIG",
            "hex": "76a91455f9b90fbd4123b47d3d402f69d276136e67e3e388ac",
            "reqSigs": 1,
            "type": "pubkeyhash",
            "addresses": [
              "LT4YrZzUWSaUfRqPgeD3kDWyHboBb9Uqkp"
            ]
          }
        }, 
        {
          "value": 60.59391043,
          "n": 2,
          "scriptPubKey": {
            "asm": "OP_DUP OP_HASH160 380551797279bb25aa685f38dccf75b99b28d6a8 OP_EQUALVERIFY OP_CHECKSIG",
            "hex": "76a914380551797279bb25aa685f38dccf75b99b28d6a888ac",
            "reqSigs": 1,
            "type": "pubkeyhash",
            "addresses": [
              "LQLAUUUzvdwfBFjdKeaf7sgieJpyFq774i"
            ]
          }
        }, 
        {
          "value": 0.27700000,
          "n": 3,
          "scriptPubKey": {
            "asm": "OP_HASH160 6876be32f0f25813595db73d8fea7e3b9e8e3f9a OP_EQUAL",
            "hex": "a9146876be32f0f25813595db73d8fea7e3b9e8e3f9a87",
            "reqSigs": 1,
            "type": "scripthash",
            "addresses": [
              "MHRWknZesrY2u2XYG7H4Fw4DCMM4UJsbSb"
            ]
          }
        }
      ],
      "hex": "0200000001e82490765f0428a356ba6d336f3478c7d4088755c54662917ba892ec7a165297010000006a4730440220524d371cd65a30c987a15a6b40ab479048c6b77954fbb85266c4e693bf69773f022036aa840b7f235678fd497fb935a72d812049c568a612baf8c35f4481dfe9f42c0121023e48a399e3f3a8d02b4d1db4e84c9fdbcd47b359ceb92a1096ba9a3fb4496143feffffff046098352b010000001976a9145f63e7b790d59ddd2a114f9f64d0b91b8607ee6b88acbb9e8400000000001976a91455f9b90fbd4123b47d3d402f69d276136e67e3e388ac43f82a69010000001976a914380551797279bb25aa685f38dccf75b99b28d6a888ac20aba6010000000017a9146876be32f0f25813595db73d8fea7e3b9e8e3f9a87ccbf1400"
    }, 
    {
      "txid": "4f84185394c54bc26bb655e5d84a955b9972cfdf5d4b75f51eb3aa12f93e772a",
      "hash": "4f84185394c54bc26bb655e5d84a955b9972cfdf5d4b75f51eb3aa12f93e772a",
      "version": 2,
      "size": 1288,
      "vsize": 1288,
      "locktime": 1359820,
      "vin": [
        {
          "txid": "4845b864a1577fa76b464062d9a4881ef69f2662ca92923b141ceec84bdec409",
          "vout": 0,
          "scriptSig": {
            "asm": "304402200fec2670f1bdc29f4a8238d2e44adb40196cde03ecc294cfe925b2a54c9f5e1802205cbc94f425e81b10390e3c9a7d0b346526292b1c51c224c6e197d45145b2e673[ALL] 02e2037bd3b8ff3ee3e1c67e232b207d138124a826a4f761eeba99ff99c4b60c29",
            "hex": "47304402200fec2670f1bdc29f4a8238d2e44adb40196cde03ecc294cfe925b2a54c9f5e1802205cbc94f425e81b10390e3c9a7d0b346526292b1c51c224c6e197d45145b2e673012102e2037bd3b8ff3ee3e1c67e232b207d138124a826a4f761eeba99ff99c4b60c29"
          },
          "sequence": 4294967294
        }, 
        {
          "txid": "1782587851d2bdcb40d04f10f31e34e974fa9e84e1c1690250c7d97001e7ac18",
          "vout": 0,
          "scriptSig": {
            "asm": "3044022058b03a2dc151e95bf80d1087743686eadc5f40ebaad784bc6535a14877b821940220046a66337c03a25715f862f42e33e9fd4745d4c743adf6f709fb59a5977a671e[ALL] 02e2037bd3b8ff3ee3e1c67e232b207d138124a826a4f761eeba99ff99c4b60c29",
            "hex": "473044022058b03a2dc151e95bf80d1087743686eadc5f40ebaad784bc6535a14877b821940220046a66337c03a25715f862f42e33e9fd4745d4c743adf6f709fb59a5977a671e012102e2037bd3b8ff3ee3e1c67e232b207d138124a826a4f761eeba99ff99c4b60c29"
          },
          "sequence": 4294967294
        }
      ],
      "vout": [
        {
          "value": 45.58436000,
          "n": 0,
          "scriptPubKey": {
            "asm": "OP_DUP OP_HASH160 e1d445bcb6cbaf5763cc203186fe82132591c435 OP_EQUALVERIFY OP_CHECKSIG",
            "hex": "76a914e1d445bcb6cbaf5763cc203186fe82132591c43588ac",
            "reqSigs": 1,
            "type": "pubkeyhash",
            "addresses": [
              "Lfp2bKYWAWSbhobG9iVRhzfuivDU38tDCx"
            ]
          }
        }, 
        {
          "value": 35.95400000,
          "n": 1,
          "scriptPubKey": {
            "asm": "OP_DUP OP_HASH160 143b8da82747016c734ee98bcd1e2990ca1b89b9 OP_EQUALVERIFY OP_CHECKSIG",
            "hex": "76a914143b8da82747016c734ee98bcd1e2990ca1b89b988ac",
            "reqSigs": 1,
            "type": "pubkeyhash",
            "addresses": [
              "LM4w7tVu1YRFR5j3RFti5xKGqtZaM31gad"
            ]
          }
        }, 
        {
          "value": 2.15181721,
          "n": 2,
          "scriptPubKey": {
            "asm": "OP_DUP OP_HASH160 802859e14357872552f5cf031788c87059a3f7af OP_EQUALVERIFY OP_CHECKSIG",
            "hex": "76a914802859e14357872552f5cf031788c87059a3f7af88ac",
            "reqSigs": 1,
            "type": "pubkeyhash",
            "addresses": [
              "LWub6QkxDovePJjsGggn7ojf3epvHF5VL9"
            ]
          }
        }, 
        {
          "value": 14.47370211,
          "n": 3,
          "scriptPubKey": {
            "asm": "OP_DUP OP_HASH160 b0d787040f92a9748e077d25822dbbf67ff068e5 OP_EQUALVERIFY OP_CHECKSIG",
            "hex": "76a914b0d787040f92a9748e077d25822dbbf67ff068e588ac",
            "reqSigs": 1,
            "type": "pubkeyhash",
            "addresses": [
              "LbM1P5hb31ZPa6hvNPp6tDYLM76DrhnwmV"
            ]
          }
        }, 
        {
          "value": 80.07430000,
          "n": 4,
          "scriptPubKey": {
            "asm": "OP_DUP OP_HASH160 47379fcd9b44c230d1a12baa79b9dfaf90d43842 OP_EQUALVERIFY OP_CHECKSIG",
            "hex": "76a91447379fcd9b44c230d1a12baa79b9dfaf90d4384288ac",
            "reqSigs": 1,
            "type": "pubkeyhash",
            "addresses": [
              "LRiWsfwsqLryBAXcEBa6qLwMAkVcn36zmq"
            ]
          }
        }, 
        {
          "value": 0.99000000,
          "n": 5,
          "scriptPubKey": {
            "asm": "OP_DUP OP_HASH160 0397453f81e77d083b72d88dd59a25d8d3c03b4f OP_EQUALVERIFY OP_CHECKSIG",
            "hex": "76a9140397453f81e77d083b72d88dd59a25d8d3c03b4f88ac",
            "reqSigs": 1,
            "type": "pubkeyhash",
            "addresses": [
              "LKYwWFHararK4FhAUpLwL3FLVrkQVTjx2b"
            ]
          }
        }, 
        {
          "value": 7.88110101,
          "n": 6,
          "scriptPubKey": {
            "asm": "OP_DUP OP_HASH160 77f1000afae94f5ac5315258a8aef8ccfd54bb4d OP_EQUALVERIFY OP_CHECKSIG",
            "hex": "76a91477f1000afae94f5ac5315258a8aef8ccfd54bb4d88ac",
            "reqSigs": 1,
            "type": "pubkeyhash",
            "addresses": [
              "LWA9P2Tq53z2LLaymR1ENpnEYAvtaq8PZu"
            ]
          }
        }, 
        {
          "value": 100.96921000,
          "n": 7,
          "scriptPubKey": {
            "asm": "OP_DUP OP_HASH160 80ac2af3754f1144023acd9a5c79a51dd356fed4 OP_EQUALVERIFY OP_CHECKSIG",
            "hex": "76a91480ac2af3754f1144023acd9a5c79a51dd356fed488ac",
            "reqSigs": 1,
            "type": "pubkeyhash",
            "addresses": [
              "LWxK1CDXLbg9zD2N5y7ganZJyPR3kAR3ih"
            ]
          }
        }, 
        {
          "value": 5.06492203,
          "n": 8,
          "scriptPubKey": {
            "asm": "OP_DUP OP_HASH160 1626e340f4efad42ef57a8098ef350eb8cfb6c2c OP_EQUALVERIFY OP_CHECKSIG",
            "hex": "76a9141626e340f4efad42ef57a8098ef350eb8cfb6c2c88ac",
            "reqSigs": 1,
            "type": "pubkeyhash",
            "addresses": [
              "LMF5iQ5bn5AeyPpPYk6v5Ar2hA6VAFprTc"
            ]
          }
        }, 
        {
          "value": 7.49000000,
          "n": 9,
          "scriptPubKey": {
            "asm": "OP_DUP OP_HASH160 53eccc88934195b61c846c55137cc280fb969c63 OP_EQUALVERIFY OP_CHECKSIG",
            "hex": "76a91453eccc88934195b61c846c55137cc280fb969c6388ac",
            "reqSigs": 1,
            "type": "pubkeyhash",
            "addresses": [
              "LSsi2DRgMFhRgE2rzN2YdY2q6Zwsi5cRF8"
            ]
          }
        }, 
        {
          "value": 4.50548000,
          "n": 10,
          "scriptPubKey": {
            "asm": "OP_DUP OP_HASH160 636441fb8a3883057c5cf7048c6c697c647167b8 OP_EQUALVERIFY OP_CHECKSIG",
            "hex": "76a914636441fb8a3883057c5cf7048c6c697c647167b888ac",
            "reqSigs": 1,
            "type": "pubkeyhash",
            "addresses": [
              "LUHVGEYt3SeqM4xyCSqxptAAyGrbC2Txzj"
            ]
          }
        }, 
        {
          "value": 0.16014666,
          "n": 11,
          "scriptPubKey": {
            "asm": "OP_DUP OP_HASH160 e1648e642e7c0a1d7e7262bd6b0d639f4271b7a8 OP_EQUALVERIFY OP_CHECKSIG",
            "hex": "76a914e1648e642e7c0a1d7e7262bd6b0d639f4271b7a888ac",
            "reqSigs": 1,
            "type": "pubkeyhash",
            "addresses": [
              "Lfmim9G7spA952zaShexkXur6X9rMdzqKM"
            ]
          }
        }, 
        {
          "value": 1.07715564,
          "n": 12,
          "scriptPubKey": {
            "asm": "OP_DUP OP_HASH160 c4d9a4c582461663d647aca34e711f459887057c OP_EQUALVERIFY OP_CHECKSIG",
            "hex": "76a914c4d9a4c582461663d647aca34e711f459887057c88ac",
            "reqSigs": 1,
            "type": "pubkeyhash",
            "addresses": [
              "LdAoRxTHDFCh5ZFFRW2b1AsddugDVk7qJW"
            ]
          }
        }, 
        {
          "value": 1.53045800,
          "n": 13,
          "scriptPubKey": {
            "asm": "OP_DUP OP_HASH160 e7bd11231d0f1bbe60be41b8767c71e74191d37a OP_EQUALVERIFY OP_CHECKSIG",
            "hex": "76a914e7bd11231d0f1bbe60be41b8767c71e74191d37a88ac",
            "reqSigs": 1,
            "type": "pubkeyhash",
            "addresses": [
              "LgMGr8LQAg6A21G5DawFe7bZmbaT7Lf4q5"
            ]
          }
        }, 
        {
          "value": 15.32465000,
          "n": 14,
          "scriptPubKey": {
            "asm": "OP_DUP OP_HASH160 44a5e8674e3c07936f22d1851c20b6329427e052 OP_EQUALVERIFY OP_CHECKSIG",
            "hex": "76a91444a5e8674e3c07936f22d1851c20b6329427e05288ac",
            "reqSigs": 1,
            "type": "pubkeyhash",
            "addresses": [
              "LRUvxjbxCsCCddm5EiyHXePMkH7QLmKTvJ"
            ]
          }
        }, 
        {
          "value": 39.99000000,
          "n": 15,
          "scriptPubKey": {
            "asm": "OP_DUP OP_HASH160 a66e6ba3d1cca3b697b44dd346a92d1b56ee2844 OP_EQUALVERIFY OP_CHECKSIG",
            "hex": "76a914a66e6ba3d1cca3b697b44dd346a92d1b56ee284488ac",
            "reqSigs": 1,
            "type": "pubkeyhash",
            "addresses": [
              "LaPxiCsbT3fBjccTYDDwXefPhGbMJQWuDd"
            ]
          }
        }, 
        {
          "value": 0.08700000,
          "n": 16,
          "scriptPubKey": {
            "asm": "OP_DUP OP_HASH160 4e86e061bd883054600836d1b36f29b458e15c04 OP_EQUALVERIFY OP_CHECKSIG",
            "hex": "76a9144e86e061bd883054600836d1b36f29b458e15c0488ac",
            "reqSigs": 1,
            "type": "pubkeyhash",
            "addresses": [
              "LSPAYZMig7RLe63CxeeszBr6dMEXkN7QGD"
            ]
          }
        }, 
        {
          "value": 32.21331000,
          "n": 17,
          "scriptPubKey": {
            "asm": "OP_HASH160 fd53aa0968d50697bd496ab75d1a9fb9ded89f6a OP_EQUAL",
            "hex": "a914fd53aa0968d50697bd496ab75d1a9fb9ded89f6a87",
            "reqSigs": 1,
            "type": "scripthash",
            "addresses": [
              "MWzdR46h89RwTLF98aY9God5ddVuuMG7x1"
            ]
          }
        }, 
        {
          "value": 1.07397682,
          "n": 18,
          "scriptPubKey": {
            "asm": "OP_DUP OP_HASH160 e1e9cf5ac13cf620a4e869e284d7e07688589375 OP_EQUALVERIFY OP_CHECKSIG",
            "hex": "76a914e1e9cf5ac13cf620a4e869e284d7e0768858937588ac",
            "reqSigs": 1,
            "type": "pubkeyhash",
            "addresses": [
              "LfpUPn1ycKaG18g89HV8iYxJZHGQSy4MNh"
            ]
          }
        }, 
        {
          "value": 0.99600000,
          "n": 19,
          "scriptPubKey": {
            "asm": "OP_DUP OP_HASH160 78208ca3d8f0bb794abe6a91b47c10cc3f7cb0e3 OP_EQUALVERIFY OP_CHECKSIG",
            "hex": "76a91478208ca3d8f0bb794abe6a91b47c10cc3f7cb0e388ac",
            "reqSigs": 1,
            "type": "pubkeyhash",
            "addresses": [
              "LWB8LoXBz5XRcALwEWSuEYqPN3TfaD3SsL"
            ]
          }
        }, 
        {
          "value": 5.29174000,
          "n": 20,
          "scriptPubKey": {
            "asm": "OP_DUP OP_HASH160 e8fb843b2a204329764e9346e08e326dbf3fc9a1 OP_EQUALVERIFY OP_CHECKSIG",
            "hex": "76a914e8fb843b2a204329764e9346e08e326dbf3fc9a188ac",
            "reqSigs": 1,
            "type": "pubkeyhash",
            "addresses": [
              "LgTrLPiFcaZBAU1rChVHFKg75hPu9NCoKK"
            ]
          }
        }, 
        {
          "value": 1.77000001,
          "n": 21,
          "scriptPubKey": {
            "asm": "OP_DUP OP_HASH160 16b131692b4ef1132136bd5ac207f34ef395c1e9 OP_EQUALVERIFY OP_CHECKSIG",
            "hex": "76a91416b131692b4ef1132136bd5ac207f34ef395c1e988ac",
            "reqSigs": 1,
            "type": "pubkeyhash",
            "addresses": [
              "LMHwQ25vwWCianKQBio6NeMJZRYPVJ4trQ"
            ]
          }
        }, 
        {
          "value": 0.15992990,
          "n": 22,
          "scriptPubKey": {
            "asm": "OP_DUP OP_HASH160 427194f15f9a9fa01b2dd3444817ab1730e7d49c OP_EQUALVERIFY OP_CHECKSIG",
            "hex": "76a914427194f15f9a9fa01b2dd3444817ab1730e7d49c88ac",
            "reqSigs": 1,
            "type": "pubkeyhash",
            "addresses": [
              "LRHGvgAyz4nWs9kGB1mxCt8BxF1AVBk6QN"
            ]
          }
        }, 
        {
          "value": 0.99380752,
          "n": 23,
          "scriptPubKey": {
            "asm": "OP_DUP OP_HASH160 49479f5c88fe260ccf87afcb3b8d9f3d5bbcf3a7 OP_EQUALVERIFY OP_CHECKSIG",
            "hex": "76a91449479f5c88fe260ccf87afcb3b8d9f3d5bbcf3a788ac",
            "reqSigs": 1,
            "type": "pubkeyhash",
            "addresses": [
              "LRuRPdpKmWC4xMGkdRa1YcTubk59crEeer"
            ]
          }
        }, 
        {
          "value": 65.50342100,
          "n": 24,
          "scriptPubKey": {
            "asm": "OP_DUP OP_HASH160 a6b1a1289b24814bb96abe05f02b47f276672aaa OP_EQUALVERIFY OP_CHECKSIG",
            "hex": "76a914a6b1a1289b24814bb96abe05f02b47f276672aaa88ac",
            "reqSigs": 1,
            "type": "pubkeyhash",
            "addresses": [
              "LaRMDyNNatqqbdHMjbC44vV4yUZapKSZK1"
            ]
          }
        }, 
        {
          "value": 6.07997000,
          "n": 25,
          "scriptPubKey": {
            "asm": "OP_DUP OP_HASH160 7ce7e367a914d2aa59e9497ebc42c4d7c36951ea OP_EQUALVERIFY OP_CHECKSIG",
            "hex": "76a9147ce7e367a914d2aa59e9497ebc42c4d7c36951ea88ac",
            "reqSigs": 1,
            "type": "pubkeyhash",
            "addresses": [
              "LWcPqt5qBd7ePeX4yMQRkMLFnUoUrCk9nC"
            ]
          }
        }, 
        {
          "value": 0.69929000,
          "n": 26,
          "scriptPubKey": {
            "asm": "OP_DUP OP_HASH160 a6746449dbdbda1e54c2e4ea99fd048d344d3618 OP_EQUALVERIFY OP_CHECKSIG",
            "hex": "76a914a6746449dbdbda1e54c2e4ea99fd048d344d361888ac",
            "reqSigs": 1,
            "type": "pubkeyhash",
            "addresses": [
              "LaQ5s6cU86xHVmawCYVsYf6icM1akptvJw"
            ]
          }
        }, 
        {
          "value": 3.00000000,
          "n": 27,
          "scriptPubKey": {
            "asm": "OP_DUP OP_HASH160 5639ced55fe41c7a3ab9c5fea3d0735de7b7ad9b OP_EQUALVERIFY OP_CHECKSIG",
            "hex": "76a9145639ced55fe41c7a3ab9c5fea3d0735de7b7ad9b88ac",
            "reqSigs": 1,
            "type": "pubkeyhash",
            "addresses": [
              "LT5sdH1EQtNAuaZkUYG7xKkHQm69aQWvtR"
            ]
          }
        }, 
        {
          "value": 28.90896209,
          "n": 28,
          "scriptPubKey": {
            "asm": "OP_DUP OP_HASH160 9313a4a40f888aa706edf7a16b3d6e2ee16e1ece OP_EQUALVERIFY OP_CHECKSIG",
            "hex": "76a9149313a4a40f888aa706edf7a16b3d6e2ee16e1ece88ac",
            "reqSigs": 1,
            "type": "pubkeyhash",
            "addresses": [
              "LYdd8EuXvCjN2gs8eWxa38PYGvk9QwvFdq"
            ]
          }
        }
      ],
      "hex": "020000000209c4de4bc8ee1c143b9292ca62269ff61e88a4d96240466ba77f57a164b84548000000006a47304402200fec2670f1bdc29f4a8238d2e44adb40196cde03ecc294cfe925b2a54c9f5e1802205cbc94f425e81b10390e3c9a7d0b346526292b1c51c224c6e197d45145b2e673012102e2037bd3b8ff3ee3e1c67e232b207d138124a826a4f761eeba99ff99c4b60c29feffffff18ace70170d9c7500269c1e1849efa74e9341ef3104fd040cbbdd25178588217000000006a473044022058b03a2dc151e95bf80d1087743686eadc5f40ebaad784bc6535a14877b821940220046a66337c03a25715f862f42e33e9fd4745d4c743adf6f709fb59a5977a671e012102e2037bd3b8ff3ee3e1c67e232b207d138124a826a4f761eeba99ff99c4b60c29feffffff1da036b40f010000001976a914e1d445bcb6cbaf5763cc203186fe82132591c43588ac40734dd6000000001976a914143b8da82747016c734ee98bcd1e2990ca1b89b988ac9969d30c000000001976a914802859e14357872552f5cf031788c87059a3f7af88ace31d4556000000001976a914b0d787040f92a9748e077d25822dbbf67ff068e588ac70af47dd010000001976a91447379fcd9b44c230d1a12baa79b9dfaf90d4384288acc09ee605000000001976a9140397453f81e77d083b72d88dd59a25d8d3c03b4f88ac159bf92e000000001976a91477f1000afae94f5ac5315258a8aef8ccfd54bb4d88aca8c9d259020000001976a91480ac2af3754f1144023acd9a5c79a51dd356fed488ac2b75301e000000001976a9141626e340f4efad42ef57a8098ef350eb8cfb6c2c88ac40d5a42c000000001976a91453eccc88934195b61c846c55137cc280fb969c6388ac20d1da1a000000001976a914636441fb8a3883057c5cf7048c6c697c647167b888ac4a5df400000000001976a914e1648e642e7c0a1d7e7262bd6b0d639f4271b7a888acec9b6b06000000001976a914c4d9a4c582461663d647aca34e711f459887057c88ac284b1f09000000001976a914e7bd11231d0f1bbe60be41b8767c71e74191d37a88ac688f575b000000001976a91444a5e8674e3c07936f22d1851c20b6329427e05288acc0e55bee000000001976a914a66e6ba3d1cca3b697b44dd346a92d1b56ee284488ac60c08400000000001976a9144e86e061bd883054600836d1b36f29b458e15c0488ac389c01c00000000017a914fd53aa0968d50697bd496ab75d1a9fb9ded89f6a8732c26606000000001976a914e1e9cf5ac13cf620a4e869e284d7e0768858937588ac80c6ef05000000001976a91478208ca3d8f0bb794abe6a91b47c10cc3f7cb0e388acf08d8a1f000000001976a914e8fb843b2a204329764e9346e08e326dbf3fc9a188ac41ce8c0a000000001976a91416b131692b4ef1132136bd5ac207f34ef395c1e988ac9e08f400000000001976a914427194f15f9a9fa01b2dd3444817ab1730e7d49c88ac106eec05000000001976a91449479f5c88fe260ccf87afcb3b8d9f3d5bbcf3a788acd4496e86010000001976a914a6b1a1289b24814bb96abe05f02b47f276672aaa88ac484c3d24000000001976a9147ce7e367a914d2aa59e9497ebc42c4d7c36951ea88ac28082b04000000001976a914a6746449dbdbda1e54c2e4ea99fd048d344d361888ac00a3e111000000001976a9145639ced55fe41c7a3ab9c5fea3d0735de7b7ad9b88ac51934fac000000001976a9149313a4a40f888aa706edf7a16b3d6e2ee16e1ece88acccbf1400"
    }, 
    {
      "txid": "4e31cb495e234599392e611e7443ff5f58ce61a23144c57d837532664c1a3060",
      "hash": "4e31cb495e234599392e611e7443ff5f58ce61a23144c57d837532664c1a3060",
      "version": 1,
      "size": 226,
      "vsize": 226,
      "locktime": 1359820,
      "vin": [
        {
          "txid": "74d9f4e674c5b53b9247aca942643774906d7dbaac8b11adce7e4020e1bc4efd",
          "vout": 0,
          "scriptSig": {
            "asm": "3045022100df3b3f244af2ad2fc88d01c0c01e3e3ca22a69c51f3c9863cff40c027f6eab95022050c4278e90766ffca0c7fc0939f13c5544b1b7e4cd2282f4b34ccab1e96f852b[ALL] 039d6877b92b4ffb196067397dedde8e7c9713377e2c8859708a3ee49df20a1954",
            "hex": "483045022100df3b3f244af2ad2fc88d01c0c01e3e3ca22a69c51f3c9863cff40c027f6eab95022050c4278e90766ffca0c7fc0939f13c5544b1b7e4cd2282f4b34ccab1e96f852b0121039d6877b92b4ffb196067397dedde8e7c9713377e2c8859708a3ee49df20a1954"
          },
          "sequence": 4294967294
        }
      ],
      "vout": [
        {
          "value": 1.92300000,
          "n": 0,
          "scriptPubKey": {
            "asm": "OP_DUP OP_HASH160 1e4949416dbabef592cb22e3b9d3b3880ec34339 OP_EQUALVERIFY OP_CHECKSIG",
            "hex": "76a9141e4949416dbabef592cb22e3b9d3b3880ec3433988ac",
            "reqSigs": 1,
            "type": "pubkeyhash",
            "addresses": [
              "LMz6KykLfjsVWEPDwFtQDkkuwNUk4QBNX5"
            ]
          }
        }, 
        {
          "value": 0.21528801,
          "n": 1,
          "scriptPubKey": {
            "asm": "OP_DUP OP_HASH160 7da22e23e13999244f989ed5f452295985fd9c43 OP_EQUALVERIFY OP_CHECKSIG",
            "hex": "76a9147da22e23e13999244f989ed5f452295985fd9c4388ac",
            "reqSigs": 1,
            "type": "pubkeyhash",
            "addresses": [
              "LWgF1fwArNBBUfru7BbtwE9GsnuqHLGokm"
            ]
          }
        }
      ],
      "hex": "0100000001fd4ebce120407ecead118bacba7d6d9074376442a9ac47923bb5c574e6f4d974000000006b483045022100df3b3f244af2ad2fc88d01c0c01e3e3ca22a69c51f3c9863cff40c027f6eab95022050c4278e90766ffca0c7fc0939f13c5544b1b7e4cd2282f4b34ccab1e96f852b0121039d6877b92b4ffb196067397dedde8e7c9713377e2c8859708a3ee49df20a1954feffffff02e043760b000000001976a9141e4949416dbabef592cb22e3b9d3b3880ec3433988ace1804801000000001976a9147da22e23e13999244f989ed5f452295985fd9c4388acccbf1400"
    }, 
    {
      "txid": "87224f8a82048529d6e40e548bb138e71bdd6d4ee1e728f98a28b2e2130a0ca6",
      "hash": "87224f8a82048529d6e40e548bb138e71bdd6d4ee1e728f98a28b2e2130a0ca6",
      "version": 1,
      "size": 226,
      "vsize": 226,
      "locktime": 0,
      "vin": [
        {
          "txid": "94fcebdf0ee3dc7cd96d403fb9df2f9a59f8a15856070e65485cc8d66ba827de",
          "vout": 1,
          "scriptSig": {
            "asm": "304502210084307f9f6b408c645d9c52ec66a0829b8f3358a31c760b82449614f3303c254e0220024cc10de2ef495a4312714b011f9c40d8a36a784bef2849050c267a75bc6f12[ALL] 02d1e69bb5c8e40ada6a8f1ebf7d9df1633aadfccf83b000f29f11176b5582372e",
            "hex": "48304502210084307f9f6b408c645d9c52ec66a0829b8f3358a31c760b82449614f3303c254e0220024cc10de2ef495a4312714b011f9c40d8a36a784bef2849050c267a75bc6f12012102d1e69bb5c8e40ada6a8f1ebf7d9df1633aadfccf83b000f29f11176b5582372e"
          },
          "sequence": 4294967295
        }
      ],
      "vout": [
        {
          "value": 0.00055200,
          "n": 0,
          "scriptPubKey": {
            "asm": "OP_DUP OP_HASH160 d66bd65da27bf4f2f9db35c3be7675c7be40b8ca OP_EQUALVERIFY OP_CHECKSIG",
            "hex": "76a914d66bd65da27bf4f2f9db35c3be7675c7be40b8ca88ac",
            "reqSigs": 1,
            "type": "pubkeyhash",
            "addresses": [
              "Lemi3wFvCSLuX3xBvQ1KcFkzUEzasFE3Ak"
            ]
          }
        }, 
        {
          "value": 0.04220000,
          "n": 1,
          "scriptPubKey": {
            "asm": "OP_DUP OP_HASH160 3d5f8a618903badd7861079cc07ee108fa0e7f19 OP_EQUALVERIFY OP_CHECKSIG",
            "hex": "76a9143d5f8a618903badd7861079cc07ee108fa0e7f1988ac",
            "reqSigs": 1,
            "type": "pubkeyhash",
            "addresses": [
              "LQpTwBtQoGzkK2cT74PcngvGNCkdnkWu3J"
            ]
          }
        }
      ],
      "hex": "0100000001de27a86bd6c85c48650e075658a1f8599a2fdfb93f406dd97cdce30edfebfc94010000006b48304502210084307f9f6b408c645d9c52ec66a0829b8f3358a31c760b82449614f3303c254e0220024cc10de2ef495a4312714b011f9c40d8a36a784bef2849050c267a75bc6f12012102d1e69bb5c8e40ada6a8f1ebf7d9df1633aadfccf83b000f29f11176b5582372effffffff02a0d70000000000001976a914d66bd65da27bf4f2f9db35c3be7675c7be40b8ca88ac60644000000000001976a9143d5f8a618903badd7861079cc07ee108fa0e7f1988ac00000000"
    }
  ],
  "time": 1517335927,
  "mediantime": 1517335766,
  "nonce": 2832678932,
  "bits": "1a042eae",
  "difficulty": 4011378.762614286,
  "chainwork": "0000000000000000000000000000000000000000000000345d12d1e191059b1e",
  "previousblockhash": "7bd3dbfd2633e066f308e7088d34e8f18b4320b4da9fcd54f8954f548f070bd8",
  "nextblockhash": "2a6acfdefd42ca02d7939e04c6b005109e197f5a2c3988bcb53de352f305b7fd"
}
