{
  "hash": "395a7b9a9161499eff3432215129e9ea70de146e6676d3f441c545f34a669784",
  "confirmations": 639,
  "strippedsize": 1552,
  "size": 1588,
  "weight": 6244,
  "height": 1360355,
  "version": 536870912,
  "versionHex": "20000000",
  "merkleroot": "c58bce0c5483437ffc8ca054a981120e6ea6f3a47768e9dceb23a316a5b465c4",
  "tx": [
    {
      "txid": "223473fbbbc5fbb999f5d62b419e45bdef8fbe225dd15fb6d1f20e9a575c0907",
      "hash": "c3b3997d3b575d2a3ffab181f4d0986a9c57b27e319a8110fac4212e02218411",
      "version": 1,
      "size": 236,
      "vsize": 209,
      "locktime": 0,
      "vin": [
        {
          "coinbase": "03e3c114045a71f3dc2cfabe6d6debb97deb555c0591d6e46626385e0e77f72520bd8884e2d967b946b91bd7dd914000000000000000042f4c502f082200a7b41c000000",
          "sequence": 4294967295
        }
      ],
      "vout": [
        {
          "value": 25.01280600,
          "n": 0,
          "scriptPubKey": {
            "asm": "OP_DUP OP_HASH160 57757ed2ecf2052ff3126c397aca7defb9ca2cec OP_EQUALVERIFY OP_CHECKSIG",
            "hex": "76a91457757ed2ecf2052ff3126c397aca7defb9ca2cec88ac",
            "reqSigs": 1,
            "type": "pubkeyhash",
            "addresses": [
              "LTCPodGk5FwcJaRzH9yKnwicxzFUbxp6tN"
            ]
          }
        }, 
        {
          "value": 0.00000000,
          "n": 1,
          "scriptPubKey": {
            "asm": "OP_RETURN aa21a9ed2cc2952ace63cc3109681039dd8e1cfc886d853087b90d726e16b70df9484350",
            "hex": "6a24aa21a9ed2cc2952ace63cc3109681039dd8e1cfc886d853087b90d726e16b70df9484350",
            "type": "nulldata"
          }
        }
      ],
      "hex": "010000000001010000000000000000000000000000000000000000000000000000000000000000ffffffff4403e3c114045a71f3dc2cfabe6d6debb97deb555c0591d6e46626385e0e77f72520bd8884e2d967b946b91bd7dd914000000000000000042f4c502f082200a7b41c000000ffffffff0258831695000000001976a91457757ed2ecf2052ff3126c397aca7defb9ca2cec88ac0000000000000000266a24aa21a9ed2cc2952ace63cc3109681039dd8e1cfc886d853087b90d726e16b70df94843500120000000000000000000000000000000000000000000000000000000000000000000000000"
    }, 
    {
      "txid": "485caaca11f949d265773b6fa3cf301a49d4f7b77d9d0a1498d54414fc52adb9",
      "hash": "485caaca11f949d265773b6fa3cf301a49d4f7b77d9d0a1498d54414fc52adb9",
      "version": 1,
      "size": 369,
      "vsize": 369,
      "locktime": 0,
      "vin": [
        {
          "txid": "3fb9b742de3097391eb4beca86eb4ab5bff74eb7a3d13a720e11c8fbc39827ed",
          "vout": 3,
          "scriptSig": {
            "asm": "0 304402205ca4b459d9fbf3270cce3d949f6f07722a0feb40f1f7e95ea912c7daa11ad29b02205ad71f9e2cacbba859fa46c275e33f3ba1438459f02885f427a9bb1951c5f6c4[ALL] 304402205bb0f226cc50e01cf0a38c110e47b7b834a486776e8143f38f812cbc2dbfaaab0220741636767e8ba69f82fbc77654a2f22e1cf6e22f18a0ae1fd3db95273df31766[ALL] 52210244b4b61d03b7421bb7f6ea5848704fb38ddf34642909b8402afec07b4df4bfbc2102907f8fe8ec27c71927f1aef8c0871fab7c47176249b23b95b21904183e77d1272102c9aaf8b09caa686e5f6b4b5ebc51434502fb24f5eb83bf848200fb17459b55b353ae",
            "hex": "0047304402205ca4b459d9fbf3270cce3d949f6f07722a0feb40f1f7e95ea912c7daa11ad29b02205ad71f9e2cacbba859fa46c275e33f3ba1438459f02885f427a9bb1951c5f6c40147304402205bb0f226cc50e01cf0a38c110e47b7b834a486776e8143f38f812cbc2dbfaaab0220741636767e8ba69f82fbc77654a2f22e1cf6e22f18a0ae1fd3db95273df31766014c6952210244b4b61d03b7421bb7f6ea5848704fb38ddf34642909b8402afec07b4df4bfbc2102907f8fe8ec27c71927f1aef8c0871fab7c47176249b23b95b21904183e77d1272102c9aaf8b09caa686e5f6b4b5ebc51434502fb24f5eb83bf848200fb17459b55b353ae"
          },
          "sequence": 4294967295
        }
      ],
      "vout": [
        {
          "value": 3.28103800,
          "n": 0,
          "scriptPubKey": {
            "asm": "OP_HASH160 1623f659caeb115d68df8def6cb8ef7aa55cac8b OP_EQUAL",
            "hex": "a9141623f659caeb115d68df8def6cb8ef7aa55cac8b87",
            "reqSigs": 1,
            "type": "scripthash",
            "addresses": [
              "M9vEBMZomD8JvimWwNdHhTuLsdyWruXesA"
            ]
          }
        }, 
        {
          "value": 1.42718200,
          "n": 1,
          "scriptPubKey": {
            "asm": "OP_DUP OP_HASH160 9daa6559b944a71b38cbe2338540e360bd9e596f OP_EQUALVERIFY OP_CHECKSIG",
            "hex": "76a9149daa6559b944a71b38cbe2338540e360bd9e596f88ac",
            "reqSigs": 1,
            "type": "pubkeyhash",
            "addresses": [
              "LZbcUeNNZEZQTrTB6FGaCRdQYmoAp5VQk5"
            ]
          }
        }
      ],
      "hex": "0100000001ed2798c3fbc8110e723ad1a3b74ef7bfb54aeb86cabeb41e399730de42b7b93f03000000fc0047304402205ca4b459d9fbf3270cce3d949f6f07722a0feb40f1f7e95ea912c7daa11ad29b02205ad71f9e2cacbba859fa46c275e33f3ba1438459f02885f427a9bb1951c5f6c40147304402205bb0f226cc50e01cf0a38c110e47b7b834a486776e8143f38f812cbc2dbfaaab0220741636767e8ba69f82fbc77654a2f22e1cf6e22f18a0ae1fd3db95273df31766014c6952210244b4b61d03b7421bb7f6ea5848704fb38ddf34642909b8402afec07b4df4bfbc2102907f8fe8ec27c71927f1aef8c0871fab7c47176249b23b95b21904183e77d1272102c9aaf8b09caa686e5f6b4b5ebc51434502fb24f5eb83bf848200fb17459b55b353aeffffffff0278778e130000000017a9141623f659caeb115d68df8def6cb8ef7aa55cac8b87f8b48108000000001976a9149daa6559b944a71b38cbe2338540e360bd9e596f88ac00000000"
    }, 
    {
      "txid": "7feec28628156d5fdbf4862e872b18b2888106b2c54e986a07feb6fdb095725d",
      "hash": "7feec28628156d5fdbf4862e872b18b2888106b2c54e986a07feb6fdb095725d",
      "version": 1,
      "size": 226,
      "vsize": 226,
      "locktime": 0,
      "vin": [
        {
          "txid": "d6ceedbe1ca7404002704ab77cb52f07743ab099d33c10b64f75304758284934",
          "vout": 3,
          "scriptSig": {
            "asm": "3045022100a4c0d36203a54d18571d571c29d7da3d13a670b998b346cd37ba2e745acaa1c702207c9b2c4d1a8f7cb6494ea6ac2eaabd09a4d886918f86fdaa7dd87473bd44340b[ALL] 02329ec226fea9b930207f3b7d8289ccd8ed4118f782467262c3a1a74b73d93b2b",
            "hex": "483045022100a4c0d36203a54d18571d571c29d7da3d13a670b998b346cd37ba2e745acaa1c702207c9b2c4d1a8f7cb6494ea6ac2eaabd09a4d886918f86fdaa7dd87473bd44340b012102329ec226fea9b930207f3b7d8289ccd8ed4118f782467262c3a1a74b73d93b2b"
          },
          "sequence": 4294967295
        }
      ],
      "vout": [
        {
          "value": 0.13378034,
          "n": 0,
          "scriptPubKey": {
            "asm": "OP_DUP OP_HASH160 e76405c6a9941f035bd83c1c5c69265a26ccbbab OP_EQUALVERIFY OP_CHECKSIG",
            "hex": "76a914e76405c6a9941f035bd83c1c5c69265a26ccbbab88ac",
            "reqSigs": 1,
            "type": "pubkeyhash",
            "addresses": [
              "LgKSBDScGpfwiSrHu7RsCyxfo5vabu8XkJ"
            ]
          }
        }, 
        {
          "value": 8.10202383,
          "n": 1,
          "scriptPubKey": {
            "asm": "OP_DUP OP_HASH160 db1833cdfe9655014ca6a8c4021dc487cd44c820 OP_EQUALVERIFY OP_CHECKSIG",
            "hex": "76a914db1833cdfe9655014ca6a8c4021dc487cd44c82088ac",
            "reqSigs": 1,
            "type": "pubkeyhash",
            "addresses": [
              "LfCREqJ2qAqccdgYX4uiA1nDvuMDzsKdE9"
            ]
          }
        }
      ],
      "hex": "0100000001344928584730754fb6103cd399b03a74072fb57cb74a70024040a71cbeedced6030000006b483045022100a4c0d36203a54d18571d571c29d7da3d13a670b998b346cd37ba2e745acaa1c702207c9b2c4d1a8f7cb6494ea6ac2eaabd09a4d886918f86fdaa7dd87473bd44340b012102329ec226fea9b930207f3b7d8289ccd8ed4118f782467262c3a1a74b73d93b2bffffffff02f221cc00000000001976a914e76405c6a9941f035bd83c1c5c69265a26ccbbab88ac0fb54a30000000001976a914db1833cdfe9655014ca6a8c4021dc487cd44c82088ac00000000"
    }, 
    {
      "txid": "76cd7ffbc2be3af491c3cbf4a4b8d9e9bce7d652c46b5cd40872e25e4d2422eb",
      "hash": "76cd7ffbc2be3af491c3cbf4a4b8d9e9bce7d652c46b5cd40872e25e4d2422eb",
      "version": 1,
      "size": 225,
      "vsize": 225,
      "locktime": 0,
      "vin": [
        {
          "txid": "e81dc1e2e3cdbe7a9075f14fc3ca09569ba1edababb8ab33c0ea378d0dd79d36",
          "vout": 0,
          "scriptSig": {
            "asm": "304402205dfc66d5deca6c00bfb03d7e2e8a7fa48eb74657a61c331d6d40236ee99a9c06022072435d9d66083a7ba5347d24011fce9398e1945a96932106112614e1bf14f70b[ALL] 02f4094f39df112fded5f607c2625374ec21ba216abdb04d4b8432c179d352f386",
            "hex": "47304402205dfc66d5deca6c00bfb03d7e2e8a7fa48eb74657a61c331d6d40236ee99a9c06022072435d9d66083a7ba5347d24011fce9398e1945a96932106112614e1bf14f70b012102f4094f39df112fded5f607c2625374ec21ba216abdb04d4b8432c179d352f386"
          },
          "sequence": 4294967295
        }
      ],
      "vout": [
        {
          "value": 4.69866482,
          "n": 0,
          "scriptPubKey": {
            "asm": "OP_DUP OP_HASH160 902126111587e781b81e99de7bc0747b60483899 OP_EQUALVERIFY OP_CHECKSIG",
            "hex": "76a914902126111587e781b81e99de7bc0747b6048389988ac",
            "reqSigs": 1,
            "type": "pubkeyhash",
            "addresses": [
              "LYN3H3mUkfiFVr2pYJNija8AkUj9yvJNEM"
            ]
          }
        }, 
        {
          "value": 15.06121688,
          "n": 1,
          "scriptPubKey": {
            "asm": "OP_DUP OP_HASH160 829be8961367148b8d3847076f0b4651b04fa5f0 OP_EQUALVERIFY OP_CHECKSIG",
            "hex": "76a914829be8961367148b8d3847076f0b4651b04fa5f088ac",
            "reqSigs": 1,
            "type": "pubkeyhash",
            "addresses": [
              "LX8YssCGam5FSbFZuF3yETaDkDRJsCEnXq"
            ]
          }
        }
      ],
      "hex": "0100000001369dd70d8d37eac033abb8ababeda19b5609cac34ff175907abecde3e2c11de8000000006a47304402205dfc66d5deca6c00bfb03d7e2e8a7fa48eb74657a61c331d6d40236ee99a9c06022072435d9d66083a7ba5347d24011fce9398e1945a96932106112614e1bf14f70b012102f4094f39df112fded5f607c2625374ec21ba216abdb04d4b8432c179d352f386ffffffff02f297011c000000001976a914902126111587e781b81e99de7bc0747b6048389988acd897c559000000001976a914829be8961367148b8d3847076f0b4651b04fa5f088ac00000000"
    }, 
    {
      "txid": "dd8e7e94cc601f3a28afc9fae58e8d190951c65168989977281d27d6bf00a1f4",
      "hash": "dd8e7e94cc601f3a28afc9fae58e8d190951c65168989977281d27d6bf00a1f4",
      "version": 1,
      "size": 225,
      "vsize": 225,
      "locktime": 0,
      "vin": [
        {
          "txid": "249239c51435070ed536a9d32ff78036ac5054ddce78b6dd9e8e3e8f867bb33b",
          "vout": 1,
          "scriptSig": {
            "asm": "3044022074d0d57ebaf1568889a921b5a368e5aab759f8037da15aec9cb9f75a4a26a56f02202cb6adc19e71ac05b0b384c9aecf5bcd3b2bdf6a2721a07e81885e477cf32add[ALL] 037ef0b2853b4d558e0658d568fbea2978523e1af6021f5c524a9d13a916c0ae0d",
            "hex": "473044022074d0d57ebaf1568889a921b5a368e5aab759f8037da15aec9cb9f75a4a26a56f02202cb6adc19e71ac05b0b384c9aecf5bcd3b2bdf6a2721a07e81885e477cf32add0121037ef0b2853b4d558e0658d568fbea2978523e1af6021f5c524a9d13a916c0ae0d"
          },
          "sequence": 4294967295
        }
      ],
      "vout": [
        {
          "value": 15.83147985,
          "n": 0,
          "scriptPubKey": {
            "asm": "OP_DUP OP_HASH160 85a7ce76fe80164da553f4cf60016e97f4adb208 OP_EQUALVERIFY OP_CHECKSIG",
            "hex": "76a91485a7ce76fe80164da553f4cf60016e97f4adb20888ac",
            "reqSigs": 1,
            "type": "pubkeyhash",
            "addresses": [
              "LXQfA8JVHBpJwu63LPyWZHVDkMJZ1ygJpw"
            ]
          }
        }, 
        {
          "value": 4.88000000,
          "n": 1,
          "scriptPubKey": {
            "asm": "OP_DUP OP_HASH160 01fe50caa612a002e5929371f803f82efe13c746 OP_EQUALVERIFY OP_CHECKSIG",
            "hex": "76a91401fe50caa612a002e5929371f803f82efe13c74688ac",
            "reqSigs": 1,
            "type": "pubkeyhash",
            "addresses": [
              "LKQVbZYi4jFUoMAfPpjYAD7Xoe2cttHSX4"
            ]
          }
        }
      ],
      "hex": "01000000013bb37b868f3e8e9eddb678cedd5450ac3680f72fd3a936d50e073514c5399224010000006a473044022074d0d57ebaf1568889a921b5a368e5aab759f8037da15aec9cb9f75a4a26a56f02202cb6adc19e71ac05b0b384c9aecf5bcd3b2bdf6a2721a07e81885e477cf32add0121037ef0b2853b4d558e0658d568fbea2978523e1af6021f5c524a9d13a916c0ae0dffffffff02d1eb5c5e000000001976a91485a7ce76fe80164da553f4cf60016e97f4adb20888ac004a161d000000001976a91401fe50caa612a002e5929371f803f82efe13c74688ac00000000"
    }, 
    {
      "txid": "783c66b84763879573cbd3b6cde138b27c4b460ac192e00ddca2a0a49ca12a96",
      "hash": "783c66b84763879573cbd3b6cde138b27c4b460ac192e00ddca2a0a49ca12a96",
      "version": 1,
      "size": 226,
      "vsize": 226,
      "locktime": 1360353,
      "vin": [
        {
          "txid": "371c38e889107528d72021fca11b08b66820fe072aa74bc9d4722b7c6e3f2cfd",
          "vout": 0,
          "scriptSig": {
            "asm": "3045022100a05ab17a9ef15b3cd0897dbf8033f73e47f271e02fdfd5e30a6e33c3620ffd3902201a79b1e564785b6961e481809adccb633a027b2e72eb8453cf4fa5d9ab11688c[ALL] 034294361b2d68f5627598c70b75c73909fabc40e03ae79e21ce7bb2d4b2dbdd91",
            "hex": "483045022100a05ab17a9ef15b3cd0897dbf8033f73e47f271e02fdfd5e30a6e33c3620ffd3902201a79b1e564785b6961e481809adccb633a027b2e72eb8453cf4fa5d9ab11688c0121034294361b2d68f5627598c70b75c73909fabc40e03ae79e21ce7bb2d4b2dbdd91"
          },
          "sequence": 4294967294
        }
      ],
      "vout": [
        {
          "value": 0.51402181,
          "n": 0,
          "scriptPubKey": {
            "asm": "OP_DUP OP_HASH160 8ab33619ce4b449bc05aeb576d924587171dc493 OP_EQUALVERIFY OP_CHECKSIG",
            "hex": "76a9148ab33619ce4b449bc05aeb576d924587171dc49388ac",
            "reqSigs": 1,
            "type": "pubkeyhash",
            "addresses": [
              "LXsLCWNUxK1Q5rA7Lyurp53EkYbShfsUxX"
            ]
          }
        }, 
        {
          "value": 1.33525219,
          "n": 1,
          "scriptPubKey": {
            "asm": "OP_DUP OP_HASH160 62aa29b5fd3849328d41d4cd3b39dc50cf340d17 OP_EQUALVERIFY OP_CHECKSIG",
            "hex": "76a91462aa29b5fd3849328d41d4cd3b39dc50cf340d1788ac",
            "reqSigs": 1,
            "type": "pubkeyhash",
            "addresses": [
              "LUDeL9676JWfdGR7RvtPgbY2mmVoo6MriE"
            ]
          }
        }
      ],
      "hex": "0100000001fd2c3f6e7c2b72d4c94ba72a07fe2068b6081ba1fc2120d728751089e8381c37000000006b483045022100a05ab17a9ef15b3cd0897dbf8033f73e47f271e02fdfd5e30a6e33c3620ffd3902201a79b1e564785b6961e481809adccb633a027b2e72eb8453cf4fa5d9ab11688c0121034294361b2d68f5627598c70b75c73909fabc40e03ae79e21ce7bb2d4b2dbdd91feffffff02c5551003000000001976a9148ab33619ce4b449bc05aeb576d924587171dc49388ace36ef507000000001976a91462aa29b5fd3849328d41d4cd3b39dc50cf340d1788ace1c11400"
    }
  ],
  "time": 1517417436,
  "mediantime": 1517416885,
  "nonce": 2446811435,
  "bits": "1a042eae",
  "difficulty": 4011378.762614286,
  "chainwork": "000000000000000000000000000000000000000000000034dc839942d19886c8",
  "previousblockhash": "34cfcaf7cda54c8894f63a93357f6b25b5186327455378dba82e8555b2d1e38b",
  "nextblockhash": "eee1014287344b10d7a461cbb0d215f398c4162e1101f5bbb37b8ae5f08a19df"
}
