{
  "hash": "39b097c0d9fb4a9892a838aaa0de4fd744e44b9ffb57c47f888daaf85f714a6c",
  "confirmations": 948,
  "strippedsize": 253,
  "size": 253,
  "weight": 1012,
  "height": 1360046,
  "version": 536870912,
  "versionHex": "20000000",
  "merkleroot": "177658818829ae056cc95f47058c309dc8fd7e9ecbc20723e016e26e7171a602",
  "tx": [
    {
      "txid": "177658818829ae056cc95f47058c309dc8fd7e9ecbc20723e016e26e7171a602",
      "hash": "177658818829ae056cc95f47058c309dc8fd7e9ecbc20723e016e26e7171a602",
      "version": 1,
      "size": 172,
      "vsize": 172,
      "locktime": 0,
      "vin": [
        {
          "coinbase": "03aec0141a4d696e656420627920416e74506f6f6c20626a341e205a712ff3fabe6d6dce8004fe8936676bd798c1d684e7db6b16b65d351f82b8aea5fe140d4a12184404000000000000004b2400000000000010000000",
          "sequence": 4294967295
        }
      ],
      "vout": [
        {
          "value": 25.00000000,
          "n": 0,
          "scriptPubKey": {
            "asm": "OP_DUP OP_HASH160 0ff3ccc5e8be88afe24b5d634e5852d474dbdff1 OP_EQUALVERIFY OP_CHECKSIG",
            "hex": "76a9140ff3ccc5e8be88afe24b5d634e5852d474dbdff188ac",
            "reqSigs": 1,
            "type": "pubkeyhash",
            "addresses": [
              "LLgJTbzZMsRTCUF1NtvvL9SR1a4pVieW89"
            ]
          }
        }
      ],
      "hex": "01000000010000000000000000000000000000000000000000000000000000000000000000ffffffff5703aec0141a4d696e656420627920416e74506f6f6c20626a341e205a712ff3fabe6d6dce8004fe8936676bd798c1d684e7db6b16b65d351f82b8aea5fe140d4a12184404000000000000004b2400000000000010000000ffffffff0100f90295000000001976a9140ff3ccc5e8be88afe24b5d634e5852d474dbdff188ac00000000"
    }
  ],
  "time": 1517367283,
  "mediantime": 1517366903,
  "nonce": 3470471569,
  "bits": "1a042eae",
  "difficulty": 4011378.762614286,
  "chainwork": "00000000000000000000000000000000000000000000003492a1cbdb5e59ecde",
  "previousblockhash": "4085f4807ee9ebecfdf2b46ccd8c607df3be4c5dd4009fc1797c7c7762626559",
  "nextblockhash": "2b40ad2528214da4d98b3e7492fe63f41354b7247a0fcf826c9ea1593b81f981"
}
