{
  "hash": "39d29103c12e0c1680a7be1071a5e84b0c834c9f762969fb7c6c1ee6a471e7fb",
  "confirmations": 1419,
  "strippedsize": 254,
  "size": 254,
  "weight": 1016,
  "height": 1359575,
  "version": 536870912,
  "versionHex": "20000000",
  "merkleroot": "5d765f752250fc007b3df5160ba81956f9d1c5dc6879329354b15960e47f7c53",
  "tx": [
    {
      "txid": "5d765f752250fc007b3df5160ba81956f9d1c5dc6879329354b15960e47f7c53",
      "hash": "5d765f752250fc007b3df5160ba81956f9d1c5dc6879329354b15960e47f7c53",
      "version": 1,
      "size": 173,
      "vsize": 173,
      "locktime": 0,
      "vin": [
        {
          "coinbase": "03d7be141b4d696e656420627920416e74506f6f6c20626a302042205a703071fabe6d6debf35a40cc91bcf99841f7736d085eb59eacc38156c8e542cd2263c6a9e9092604000000000000006d210000000000001f000000",
          "sequence": 4294967295
        }
      ],
      "vout": [
        {
          "value": 25.00000000,
          "n": 0,
          "scriptPubKey": {
            "asm": "OP_DUP OP_HASH160 0ff3ccc5e8be88afe24b5d634e5852d474dbdff1 OP_EQUALVERIFY OP_CHECKSIG",
            "hex": "76a9140ff3ccc5e8be88afe24b5d634e5852d474dbdff188ac",
            "reqSigs": 1,
            "type": "pubkeyhash",
            "addresses": [
              "LLgJTbzZMsRTCUF1NtvvL9SR1a4pVieW89"
            ]
          }
        }
      ],
      "hex": "01000000010000000000000000000000000000000000000000000000000000000000000000ffffffff5803d7be141b4d696e656420627920416e74506f6f6c20626a302042205a703071fabe6d6debf35a40cc91bcf99841f7736d085eb59eacc38156c8e542cd2263c6a9e9092604000000000000006d210000000000001f000000ffffffff0100f90295000000001976a9140ff3ccc5e8be88afe24b5d634e5852d474dbdff188ac00000000"
    }
  ],
  "time": 1517301873,
  "mediantime": 1517301241,
  "nonce": 2623895171,
  "bits": "1a042eae",
  "difficulty": 4011378.762614286,
  "chainwork": "00000000000000000000000000000000000000000000003422040518669c0eb0",
  "previousblockhash": "cb6474874cc356befadb88c0294fefe517b4ea89a3f9fcbe112e04a471d85594",
  "nextblockhash": "532c23727fcef98e95d1fb439a7be2778e6f7438ed7a780bec8168015f9e59dc"
}
