{
  "hash": "39f30b6672df0080e1a9c5decb05a7360d15eac80f45a8cfa90d61c53512bf2c",
  "confirmations": 1274,
  "strippedsize": 1201,
  "size": 1237,
  "weight": 4840,
  "height": 1359720,
  "version": 536870912,
  "versionHex": "20000000",
  "merkleroot": "c8f28cce688e3bed94246dab93e8b4212f550d6b80eb3053e3af1674802fd389",
  "tx": [
    {
      "txid": "666f09dc79f49e932ff770daacf6f90aceec165d084887170aa65f42d1b64d71",
      "hash": "b0f9321ca7f8a0f1d93b53897771c0e45324a105c11a1098f66095fd1981b440",
      "version": 1,
      "size": 253,
      "vsize": 226,
      "locktime": 0,
      "vin": [
        {
          "coinbase": "0368bf1441d69c20c19803d541d69c20c19649fe2f4c54432e544f502ffabe6d6db7ae5f676c795aa30e1389dc5f170dc7bb4f4ff45b5de5b9dc10affb443f51d201000000000000005d2a83f11900000000000000",
          "sequence": 4294967295
        }
      ],
      "vout": [
        {
          "value": 25.00090400,
          "n": 0,
          "scriptPubKey": {
            "asm": "OP_DUP OP_HASH160 0c617fdb2ea42aed30a509595ee21ba3f6688db0 OP_EQUALVERIFY OP_CHECKSIG",
            "hex": "76a9140c617fdb2ea42aed30a509595ee21ba3f6688db088ac",
            "reqSigs": 1,
            "type": "pubkeyhash",
            "addresses": [
              "LLMRAtr3qBje2ySEa3CnZ55LA4TQMWnRY3"
            ]
          }
        }, 
        {
          "value": 0.00000000,
          "n": 1,
          "scriptPubKey": {
            "asm": "OP_RETURN aa21a9ed92d2c40071364578848d022614fa0d1b573e981006dc8346fa315f418bc76020",
            "hex": "6a24aa21a9ed92d2c40071364578848d022614fa0d1b573e981006dc8346fa315f418bc76020",
            "type": "nulldata"
          }
        }
      ],
      "hex": "010000000001010000000000000000000000000000000000000000000000000000000000000000ffffffff550368bf1441d69c20c19803d541d69c20c19649fe2f4c54432e544f502ffabe6d6db7ae5f676c795aa30e1389dc5f170dc7bb4f4ff45b5de5b9dc10affb443f51d201000000000000005d2a83f11900000000000000ffffffff02205a0495000000001976a9140c617fdb2ea42aed30a509595ee21ba3f6688db088ac0000000000000000266a24aa21a9ed92d2c40071364578848d022614fa0d1b573e981006dc8346fa315f418bc760200120000000000000000000000000000000000000000000000000000000000000000000000000"
    }, 
    {
      "txid": "06714b895814142360c2b9b5850a1ba4199fc502dbd377e7030a7e93b6be24ef",
      "hash": "06714b895814142360c2b9b5850a1ba4199fc502dbd377e7030a7e93b6be24ef",
      "version": 1,
      "size": 225,
      "vsize": 225,
      "locktime": 0,
      "vin": [
        {
          "txid": "319aaf7852fea125ca691a3116aaa104d2d9d74487d181b5903b0864eb8e9b6a",
          "vout": 1,
          "scriptSig": {
            "asm": "3044022060b66fdadcf783c668c1a3e5d008cf0c97116f50d7098fabc7c6fe90f9de5fed0220224ae237e4f3706874e54e498315f3d9c7318b448510efe23e78b6a389a48c64[ALL] 03cf316ec98ff65fef0b5835a3f3322bb192a676fa7f3d699398d2bdf75d968a52",
            "hex": "473044022060b66fdadcf783c668c1a3e5d008cf0c97116f50d7098fabc7c6fe90f9de5fed0220224ae237e4f3706874e54e498315f3d9c7318b448510efe23e78b6a389a48c64012103cf316ec98ff65fef0b5835a3f3322bb192a676fa7f3d699398d2bdf75d968a52"
          },
          "sequence": 4294967295
        }
      ],
      "vout": [
        {
          "value": 1.94990224,
          "n": 0,
          "scriptPubKey": {
            "asm": "OP_DUP OP_HASH160 f64ac972114e4cb5d233b099cb2311e1a87bea02 OP_EQUALVERIFY OP_CHECKSIG",
            "hex": "76a914f64ac972114e4cb5d233b099cb2311e1a87bea0288ac",
            "reqSigs": 1,
            "type": "pubkeyhash",
            "addresses": [
              "LhgE5grdBTD4amHF29KZSxyLyYneGmcL2i"
            ]
          }
        }, 
        {
          "value": 89.79340909,
          "n": 1,
          "scriptPubKey": {
            "asm": "OP_DUP OP_HASH160 ef4ec0808e66c91df490feab01e8dd546ccbfabb OP_EQUALVERIFY OP_CHECKSIG",
            "hex": "76a914ef4ec0808e66c91df490feab01e8dd546ccbfabb88ac",
            "reqSigs": 1,
            "type": "pubkeyhash",
            "addresses": [
              "Lh3J6qq79JKDUNSS4j7z6bb5eAoFv1mVMH"
            ]
          }
        }
      ],
      "hex": "01000000016a9b8eeb64083b90b581d18744d7d9d204a1aa16311a69ca25a1fe5278af9a31010000006a473044022060b66fdadcf783c668c1a3e5d008cf0c97116f50d7098fabc7c6fe90f9de5fed0220224ae237e4f3706874e54e498315f3d9c7318b448510efe23e78b6a389a48c64012103cf316ec98ff65fef0b5835a3f3322bb192a676fa7f3d699398d2bdf75d968a52ffffffff0290509f0b000000001976a914f64ac972114e4cb5d233b099cb2311e1a87bea0288ac6dde3517020000001976a914ef4ec0808e66c91df490feab01e8dd546ccbfabb88ac00000000"
    }, 
    {
      "txid": "4acb79e2792b6cd2f30e4ed61871008f96e96d1ed56aea8b01c5e1f823b9be41",
      "hash": "4acb79e2792b6cd2f30e4ed61871008f96e96d1ed56aea8b01c5e1f823b9be41",
      "version": 1,
      "size": 226,
      "vsize": 226,
      "locktime": 0,
      "vin": [
        {
          "txid": "5d7b284a10b410bfd50d77955f1810ef4b6af6b268a91bb8ad1d4294a3d7f5e4",
          "vout": 0,
          "scriptSig": {
            "asm": "3045022100ba178c0f8821c95a0e7d4b93e44140d06b14daf342b27dcd204af7cbbab51999022006a748611a53dd3f3037fc5220aad2bdbe9ea497d03cb5b43e26e88c29d97e66[ALL] 028a903572ef004bbbc88a5b7f4a4e0228125d29d4cc927c4e1bc23f426804a361",
            "hex": "483045022100ba178c0f8821c95a0e7d4b93e44140d06b14daf342b27dcd204af7cbbab51999022006a748611a53dd3f3037fc5220aad2bdbe9ea497d03cb5b43e26e88c29d97e660121028a903572ef004bbbc88a5b7f4a4e0228125d29d4cc927c4e1bc23f426804a361"
          },
          "sequence": 4294967295
        }
      ],
      "vout": [
        {
          "value": 88.91465226,
          "n": 0,
          "scriptPubKey": {
            "asm": "OP_DUP OP_HASH160 762f6c720361d6191c89e286c9c51d6862dfe98c OP_EQUALVERIFY OP_CHECKSIG",
            "hex": "76a914762f6c720361d6191c89e286c9c51d6862dfe98c88ac",
            "reqSigs": 1,
            "type": "pubkeyhash",
            "addresses": [
              "LVzrou8EVQicf5qWJ1iwrc7B992qQFcxG5"
            ]
          }
        }, 
        {
          "value": 4.00000000,
          "n": 1,
          "scriptPubKey": {
            "asm": "OP_DUP OP_HASH160 92d4602d36dc7267da643c8a3c4341a4cf99c7b6 OP_EQUALVERIFY OP_CHECKSIG",
            "hex": "76a91492d4602d36dc7267da643c8a3c4341a4cf99c7b688ac",
            "reqSigs": 1,
            "type": "pubkeyhash",
            "addresses": [
              "LYcKLLnLvjx7zMGA9ntE599rnAUCBWhHQo"
            ]
          }
        }
      ],
      "hex": "0100000001e4f5d7a394421dadb81ba968b2f66a4bef10185f95770dd5bf10b4104a287b5d000000006b483045022100ba178c0f8821c95a0e7d4b93e44140d06b14daf342b27dcd204af7cbbab51999022006a748611a53dd3f3037fc5220aad2bdbe9ea497d03cb5b43e26e88c29d97e660121028a903572ef004bbbc88a5b7f4a4e0228125d29d4cc927c4e1bc23f426804a361ffffffff020afef811020000001976a914762f6c720361d6191c89e286c9c51d6862dfe98c88ac0084d717000000001976a91492d4602d36dc7267da643c8a3c4341a4cf99c7b688ac00000000"
    }, 
    {
      "txid": "143592d16475b4a6af746b8e614285c31cd667a9284c2e2e4fcfd3982b62aa51",
      "hash": "143592d16475b4a6af746b8e614285c31cd667a9284c2e2e4fcfd3982b62aa51",
      "version": 1,
      "size": 226,
      "vsize": 226,
      "locktime": 0,
      "vin": [
        {
          "txid": "54fcc853c556476f84e202ca87919ffd77aec5a1b03b4211008313468e58536b",
          "vout": 0,
          "scriptSig": {
            "asm": "3045022100fcae832c60ffb92bca62771c3276f588061901b27f60363686eec3eed0c50e0002203305e819ae87941b086ea3fbd7e450c8acfe4174ef71367410c12a9794aa13f6[ALL] 03a81b0658cd8029880de4e69ef27767020c25432cad1ab856215b7480e7cd3d89",
            "hex": "483045022100fcae832c60ffb92bca62771c3276f588061901b27f60363686eec3eed0c50e0002203305e819ae87941b086ea3fbd7e450c8acfe4174ef71367410c12a9794aa13f6012103a81b0658cd8029880de4e69ef27767020c25432cad1ab856215b7480e7cd3d89"
          },
          "sequence": 4294967295
        }
      ],
      "vout": [
        {
          "value": 89.90583734,
          "n": 0,
          "scriptPubKey": {
            "asm": "OP_DUP OP_HASH160 825eab39ebb48a7427ce5825ede65d792f1ba8cc OP_EQUALVERIFY OP_CHECKSIG",
            "hex": "76a914825eab39ebb48a7427ce5825ede65d792f1ba8cc88ac",
            "reqSigs": 1,
            "type": "pubkeyhash",
            "addresses": [
              "LX7HWrj6YvuwB9fKPTzcPi8mLHAMcje2qJ"
            ]
          }
        }, 
        {
          "value": 0.73181927,
          "n": 1,
          "scriptPubKey": {
            "asm": "OP_DUP OP_HASH160 0ba9658064068410933931a0dc3a4dab20efbee1 OP_EQUALVERIFY OP_CHECKSIG",
            "hex": "76a9140ba9658064068410933931a0dc3a4dab20efbee188ac",
            "reqSigs": 1,
            "type": "pubkeyhash",
            "addresses": [
              "LLHcdCR6qnau1bPAB39PBjECXomk4HBWeC"
            ]
          }
        }
      ],
      "hex": "01000000016b53588e4613830011423bb0a1c5ae77fd9f9187ca02e2846f4756c553c8fc54000000006b483045022100fcae832c60ffb92bca62771c3276f588061901b27f60363686eec3eed0c50e0002203305e819ae87941b086ea3fbd7e450c8acfe4174ef71367410c12a9794aa13f6012103a81b0658cd8029880de4e69ef27767020c25432cad1ab856215b7480e7cd3d89ffffffff02b66be117020000001976a914825eab39ebb48a7427ce5825ede65d792f1ba8cc88ace7aa5c04000000001976a9140ba9658064068410933931a0dc3a4dab20efbee188ac00000000"
    }, 
    {
      "txid": "39483b10f0083f308a7389eca21a0895324a7c0482ae26548250c97b3ecfd9d6",
      "hash": "39483b10f0083f308a7389eca21a0895324a7c0482ae26548250c97b3ecfd9d6",
      "version": 1,
      "size": 226,
      "vsize": 226,
      "locktime": 0,
      "vin": [
        {
          "txid": "08f660b0305ecf9ce420174dfff180c2190d52559a0fabdae60ca2f08e7bc3c8",
          "vout": 0,
          "scriptSig": {
            "asm": "3045022100c1d7d46d6a4610163297455f299098efd047811ea73c19e86a27ed30466f695902204c3912f357610c69fa50dac42347c0e314d31ae65fa5da79c3c0f87180c0644a[ALL] 03b93744477dcb951c1a49ca5a321c8bb0fec1f5f00720647662c67561bff1d818",
            "hex": "483045022100c1d7d46d6a4610163297455f299098efd047811ea73c19e86a27ed30466f695902204c3912f357610c69fa50dac42347c0e314d31ae65fa5da79c3c0f87180c0644a012103b93744477dcb951c1a49ca5a321c8bb0fec1f5f00720647662c67561bff1d818"
          },
          "sequence": 4294967295
        }
      ],
      "vout": [
        {
          "value": 90.64575742,
          "n": 0,
          "scriptPubKey": {
            "asm": "OP_DUP OP_HASH160 ae40f787d37369914e7f011933e54a4d9bc8a925 OP_EQUALVERIFY OP_CHECKSIG",
            "hex": "76a914ae40f787d37369914e7f011933e54a4d9bc8a92588ac",
            "reqSigs": 1,
            "type": "pubkeyhash",
            "addresses": [
              "Lb7Kfa8QsYzFBM8ijtPj3xqL3CK1jHNvHh"
            ]
          }
        }, 
        {
          "value": 0.58316000,
          "n": 1,
          "scriptPubKey": {
            "asm": "OP_DUP OP_HASH160 e25e62a1ce0e070d23bb0666d78915dd078970e2 OP_EQUALVERIFY OP_CHECKSIG",
            "hex": "76a914e25e62a1ce0e070d23bb0666d78915dd078970e288ac",
            "reqSigs": 1,
            "type": "pubkeyhash",
            "addresses": [
              "Lfrt3a593McyknbfS5vWiQf9txoc1QHkAU"
            ]
          }
        }
      ],
      "hex": "0100000001c8c37b8ef0a20ce6daab0f9a55520d19c280f1ff4d1720e49ccf5e30b060f608000000006b483045022100c1d7d46d6a4610163297455f299098efd047811ea73c19e86a27ed30466f695902204c3912f357610c69fa50dac42347c0e314d31ae65fa5da79c3c0f87180c0644a012103b93744477dcb951c1a49ca5a321c8bb0fec1f5f00720647662c67561bff1d818ffffffff02fe724a1c020000001976a914ae40f787d37369914e7f011933e54a4d9bc8a92588ace0d47903000000001976a914e25e62a1ce0e070d23bb0666d78915dd078970e288ac00000000"
    }
  ],
  "time": 1517323014,
  "mediantime": 1517321979,
  "nonce": 5349698,
  "bits": "1a042eae",
  "difficulty": 4011378.762614286,
  "chainwork": "00000000000000000000000000000000000000000000003444af6dc463861152",
  "previousblockhash": "ef75b7635443778876cbf7d32fc8696e1d9e130d5a47bdc3dc71527c1f9ecc17",
  "nextblockhash": "2d9defdfe140a86a361efd4108187a18354e5803f0dedbcb3c29f6d46e2119c4"
}
