{
  "hash": "3a0b711dece9d3b3df4a4d65f19ecb0110652d0c3e4c0fd580f88ad872ced9ad",
  "confirmations": 2965,
  "strippedsize": 254,
  "size": 254,
  "weight": 1016,
  "height": 1358030,
  "version": 536870912,
  "versionHex": "20000000",
  "merkleroot": "6f0aa1be91538b175b816d7a546d8f4917dc1448694fda0547ac825184bd05b3",
  "tx": [
    {
      "txid": "6f0aa1be91538b175b816d7a546d8f4917dc1448694fda0547ac825184bd05b3",
      "hash": "6f0aa1be91538b175b816d7a546d8f4917dc1448694fda0547ac825184bd05b3",
      "version": 1,
      "size": 173,
      "vsize": 173,
      "locktime": 0,
      "vin": [
        {
          "coinbase": "03ceb8141b4d696e656420627920416e74506f6f6c20626a312045205a6cc778fabe6d6dfe75a6b036cc3aa2c99d6870e7bf0e50f84330002df09d300f5899d23057115c0400000000000000c11400000000000003000000",
          "sequence": 4294967295
        }
      ],
      "vout": [
        {
          "value": 25.00000000,
          "n": 0,
          "scriptPubKey": {
            "asm": "OP_DUP OP_HASH160 0ff3ccc5e8be88afe24b5d634e5852d474dbdff1 OP_EQUALVERIFY OP_CHECKSIG",
            "hex": "76a9140ff3ccc5e8be88afe24b5d634e5852d474dbdff188ac",
            "reqSigs": 1,
            "type": "pubkeyhash",
            "addresses": [
              "LLgJTbzZMsRTCUF1NtvvL9SR1a4pVieW89"
            ]
          }
        }
      ],
      "hex": "01000000010000000000000000000000000000000000000000000000000000000000000000ffffffff5803ceb8141b4d696e656420627920416e74506f6f6c20626a312045205a6cc778fabe6d6dfe75a6b036cc3aa2c99d6870e7bf0e50f84330002df09d300f5899d23057115c0400000000000000c11400000000000003000000ffffffff0100f90295000000001976a9140ff3ccc5e8be88afe24b5d634e5852d474dbdff188ac00000000"
    }
  ],
  "time": 1517078392,
  "mediantime": 1517077760,
  "nonce": 2299604769,
  "bits": "1a047f14",
  "difficulty": 3731199.183374282,
  "chainwork": "000000000000000000000000000000000000000000000032bd2e489d97dd5c06",
  "previousblockhash": "5154c8cc55ad140899677861c2a838635e5e0190eb49f77e4220ec8d496778c3",
  "nextblockhash": "414bb073f3a6d8e6e2858e38ade49f1191c3488e7d750935c1c5b1d7b52b5680"
}
