{
  "hash": "3a4bcd1c6cd8b86847b1a980cb00ed8d0f7ea3bbf3cfa5b9d7a0ea47f254cf58",
  "confirmations": 1342,
  "strippedsize": 254,
  "size": 254,
  "weight": 1016,
  "height": 1359652,
  "version": 536870912,
  "versionHex": "20000000",
  "merkleroot": "3ac7f572b76add8c1f84b72adec7a403ca87af428a1202b9884825f779f86bda",
  "tx": [
    {
      "txid": "3ac7f572b76add8c1f84b72adec7a403ca87af428a1202b9884825f779f86bda",
      "hash": "3ac7f572b76add8c1f84b72adec7a403ca87af428a1202b9884825f779f86bda",
      "version": 1,
      "size": 173,
      "vsize": 173,
      "locktime": 0,
      "vin": [
        {
          "coinbase": "0324bf141b4d696e656420627920416e74506f6f6c20626a312045205a705c41fabe6d6dcd1743fa048727dd2ec2e84c1ebfd5b46bede78f45b7cd6c5fd639660120c4860400000000000000101600000000000011000000",
          "sequence": 4294967295
        }
      ],
      "vout": [
        {
          "value": 25.00000000,
          "n": 0,
          "scriptPubKey": {
            "asm": "OP_DUP OP_HASH160 0ff3ccc5e8be88afe24b5d634e5852d474dbdff1 OP_EQUALVERIFY OP_CHECKSIG",
            "hex": "76a9140ff3ccc5e8be88afe24b5d634e5852d474dbdff188ac",
            "reqSigs": 1,
            "type": "pubkeyhash",
            "addresses": [
              "LLgJTbzZMsRTCUF1NtvvL9SR1a4pVieW89"
            ]
          }
        }
      ],
      "hex": "01000000010000000000000000000000000000000000000000000000000000000000000000ffffffff580324bf141b4d696e656420627920416e74506f6f6c20626a312045205a705c41fabe6d6dcd1743fa048727dd2ec2e84c1ebfd5b46bede78f45b7cd6c5fd639660120c4860400000000000000101600000000000011000000ffffffff0100f90295000000001976a9140ff3ccc5e8be88afe24b5d634e5852d474dbdff188ac00000000"
    }
  ],
  "time": 1517313089,
  "mediantime": 1517312414,
  "nonce": 620274312,
  "bits": "1a042eae",
  "difficulty": 4011378.762614286,
  "chainwork": "000000000000000000000000000000000000000000000034346d2b0645310aca",
  "previousblockhash": "8f5c3abf164702741731d6957c4ee91f9fcea15d2786000ea5667bfb4c3a33e8",
  "nextblockhash": "380a209f2c101b9c50aece6f37a198bd9d915320038695bb001d2684240dd44d"
}
