{
  "hash": "3a5b9ba2dd85a5784a6b7210eaf473c2c03cb269d063a15341383dad05d4d5c7",
  "confirmations": 1136,
  "strippedsize": 253,
  "size": 253,
  "weight": 1012,
  "height": 1359858,
  "version": 536870912,
  "versionHex": "20000000",
  "merkleroot": "d251b481e70659a70c9dd985f242c2ab5e3dfca5bffd5bb1e9af15904e57a8b2",
  "tx": [
    {
      "txid": "d251b481e70659a70c9dd985f242c2ab5e3dfca5bffd5bb1e9af15904e57a8b2",
      "hash": "d251b481e70659a70c9dd985f242c2ab5e3dfca5bffd5bb1e9af15904e57a8b2",
      "version": 1,
      "size": 172,
      "vsize": 172,
      "locktime": 0,
      "vin": [
        {
          "coinbase": "03f2bf141a4d696e656420627920416e74506f6f6c20626a3242205a70c909fabe6d6dbf054509744d36ab50792cbdee1504aff929a44af0eea2aa26520f98db58d31a0400000000000000b01000000000000011000000",
          "sequence": 4294967295
        }
      ],
      "vout": [
        {
          "value": 25.00000000,
          "n": 0,
          "scriptPubKey": {
            "asm": "OP_DUP OP_HASH160 0ff3ccc5e8be88afe24b5d634e5852d474dbdff1 OP_EQUALVERIFY OP_CHECKSIG",
            "hex": "76a9140ff3ccc5e8be88afe24b5d634e5852d474dbdff188ac",
            "reqSigs": 1,
            "type": "pubkeyhash",
            "addresses": [
              "LLgJTbzZMsRTCUF1NtvvL9SR1a4pVieW89"
            ]
          }
        }
      ],
      "hex": "01000000010000000000000000000000000000000000000000000000000000000000000000ffffffff5703f2bf141a4d696e656420627920416e74506f6f6c20626a3242205a70c909fabe6d6dbf054509744d36ab50792cbdee1504aff929a44af0eea2aa26520f98db58d31a0400000000000000b01000000000000011000000ffffffff0100f90295000000001976a9140ff3ccc5e8be88afe24b5d634e5852d474dbdff188ac00000000"
    }
  ],
  "time": 1517340937,
  "mediantime": 1517340646,
  "nonce": 3870277892,
  "bits": "1a042eae",
  "difficulty": 4011378.762614286,
  "chainwork": "00000000000000000000000000000000000000000000003465ae5ea092057166",
  "previousblockhash": "199a59cb3e7739a979090a7acae9b5fcb70743a23a9358001ad836a6397cab97",
  "nextblockhash": "47b0390836b3e53410278cbb0c61ab5e591625a839d47bc7a423122bd5fa980a"
}
