{
  "hash": "3a712e3c018744a420eb64c47b71446dd1411810699b70708a172a5c2d2d31d1",
  "confirmations": 3144,
  "strippedsize": 4153,
  "size": 4189,
  "weight": 16648,
  "height": 1357851,
  "version": 536870912,
  "versionHex": "20000000",
  "merkleroot": "825c3b1f39561f5756ad6169f1fc555b2dcdd7c0e462cdbb1d33c193447e0d9a",
  "tx": [
    {
      "txid": "160f9da807fb98f150b7c17e92de0d07da6a38814e5cf52a906634fa75e31651",
      "hash": "c20b14cb3af314fdfd45c364b58c61783fb6a9bd740f9877e451a59a8a4f8fdc",
      "version": 1,
      "size": 244,
      "vsize": 217,
      "locktime": 0,
      "vin": [
        {
          "coinbase": "031bb8140494726c5a0804f8c93a07000000fabe6d6d8d6c174214e9e47c6fa61022c07b2f12572755d21af0133a27b6a822226f18d440000000000000000d2f6e6f64655374726174756d2f",
          "sequence": 0
        }
      ],
      "vout": [
        {
          "value": 25.01982894,
          "n": 0,
          "scriptPubKey": {
            "asm": "OP_DUP OP_HASH160 0c617fdb2ea42aed30a509595ee21ba3f6688db0 OP_EQUALVERIFY OP_CHECKSIG",
            "hex": "76a9140c617fdb2ea42aed30a509595ee21ba3f6688db088ac",
            "reqSigs": 1,
            "type": "pubkeyhash",
            "addresses": [
              "LLMRAtr3qBje2ySEa3CnZ55LA4TQMWnRY3"
            ]
          }
        }, 
        {
          "value": 0.00000000,
          "n": 1,
          "scriptPubKey": {
            "asm": "OP_RETURN aa21a9ed3bc61574e7dfd70844a40b6b99b2d6ecb983fca30069ab236f191cec1f85e345",
            "hex": "6a24aa21a9ed3bc61574e7dfd70844a40b6b99b2d6ecb983fca30069ab236f191cec1f85e345",
            "type": "nulldata"
          }
        }
      ],
      "hex": "010000000001010000000000000000000000000000000000000000000000000000000000000000ffffffff4c031bb8140494726c5a0804f8c93a07000000fabe6d6d8d6c174214e9e47c6fa61022c07b2f12572755d21af0133a27b6a822226f18d440000000000000000d2f6e6f64655374726174756d2f0000000002ae3a2195000000001976a9140c617fdb2ea42aed30a509595ee21ba3f6688db088ac0000000000000000266a24aa21a9ed3bc61574e7dfd70844a40b6b99b2d6ecb983fca30069ab236f191cec1f85e3450120000000000000000000000000000000000000000000000000000000000000000000000000"
    }, 
    {
      "txid": "e0abf2a4f3e0e4e1f7bf53e7865b22486173c44b1bcfe3cc09d2e7056087c4f1",
      "hash": "e0abf2a4f3e0e4e1f7bf53e7865b22486173c44b1bcfe3cc09d2e7056087c4f1",
      "version": 1,
      "size": 373,
      "vsize": 373,
      "locktime": 0,
      "vin": [
        {
          "txid": "94bf67de2ca9b961cd14e5930dc42cc0fa878cf16052cb69ffa8aac633eb0953",
          "vout": 0,
          "scriptSig": {
            "asm": "0 3045022100dc3a5b7e6f0e00e9c213c2efbf6da835dda1bd3c4fb658fae05a1e45bd8af1810220760ee2f6a53d09e183b55bca716d7e552f53a27da8cec1882d6eff8f27c885c4[ALL] 3045022100c04472b743db3c1993af9c1e207cf574d7d38ab960e36cf7e7f306d73b88efe30220166aa258596f403149a5ea3532443b397f416d510ac2e84c48ebc354d37279d1[ALL] 52210262cf40c1792fac5641c134b147ab14bdd2cbccd5f810bc102eb1adf6f4a3f6f42102ceb178c7492f27d69a12e053698539d79f2b65ec286fdc7b842f26d5cf7b480c21035ba37eff436a1a9ebd2fc7e50d0bbe840442d8993fd9d00634ace3ceb436109b53ae",
            "hex": "00483045022100dc3a5b7e6f0e00e9c213c2efbf6da835dda1bd3c4fb658fae05a1e45bd8af1810220760ee2f6a53d09e183b55bca716d7e552f53a27da8cec1882d6eff8f27c885c401483045022100c04472b743db3c1993af9c1e207cf574d7d38ab960e36cf7e7f306d73b88efe30220166aa258596f403149a5ea3532443b397f416d510ac2e84c48ebc354d37279d1014c6952210262cf40c1792fac5641c134b147ab14bdd2cbccd5f810bc102eb1adf6f4a3f6f42102ceb178c7492f27d69a12e053698539d79f2b65ec286fdc7b842f26d5cf7b480c21035ba37eff436a1a9ebd2fc7e50d0bbe840442d8993fd9d00634ace3ceb436109b53ae"
          },
          "sequence": 4294967295
        }
      ],
      "vout": [
        {
          "value": 0.74000000,
          "n": 0,
          "scriptPubKey": {
            "asm": "OP_DUP OP_HASH160 3bb8c57b22b824152aa5028581f3443d26b76c99 OP_EQUALVERIFY OP_CHECKSIG",
            "hex": "76a9143bb8c57b22b824152aa5028581f3443d26b76c9988ac",
            "reqSigs": 1,
            "type": "pubkeyhash",
            "addresses": [
              "LQfjUg2RRpD184ceFMF2wrjihaQLv8qMfU"
            ]
          }
        }, 
        {
          "value": 3.15008370,
          "n": 1,
          "scriptPubKey": {
            "asm": "OP_HASH160 bc12137298916d24828d0bcfd79f12cb8c43acc7 OP_EQUAL",
            "hex": "a914bc12137298916d24828d0bcfd79f12cb8c43acc787",
            "reqSigs": 1,
            "type": "scripthash",
            "addresses": [
              "MR3avSA2tDinKbnmD7UP5BWQnfYyGouy16"
            ]
          }
        }
      ],
      "hex": "01000000015309eb33c6aaa8ff69cb5260f18c87fac02cc40d93e514cd61b9a92cde67bf9400000000fdfe0000483045022100dc3a5b7e6f0e00e9c213c2efbf6da835dda1bd3c4fb658fae05a1e45bd8af1810220760ee2f6a53d09e183b55bca716d7e552f53a27da8cec1882d6eff8f27c885c401483045022100c04472b743db3c1993af9c1e207cf574d7d38ab960e36cf7e7f306d73b88efe30220166aa258596f403149a5ea3532443b397f416d510ac2e84c48ebc354d37279d1014c6952210262cf40c1792fac5641c134b147ab14bdd2cbccd5f810bc102eb1adf6f4a3f6f42102ceb178c7492f27d69a12e053698539d79f2b65ec286fdc7b842f26d5cf7b480c21035ba37eff436a1a9ebd2fc7e50d0bbe840442d8993fd9d00634ace3ceb436109b53aeffffffff0280266904000000001976a9143bb8c57b22b824152aa5028581f3443d26b76c9988ac72a5c6120000000017a914bc12137298916d24828d0bcfd79f12cb8c43acc78700000000"
    }, 
    {
      "txid": "6f4a8923cb0d3c1ad2b3f572405965de8b32fb041817bea7db05c53844c2bf17",
      "hash": "6f4a8923cb0d3c1ad2b3f572405965de8b32fb041817bea7db05c53844c2bf17",
      "version": 1,
      "size": 226,
      "vsize": 226,
      "locktime": 0,
      "vin": [
        {
          "txid": "577f6f3f3e6d5e664dbaa3ce936eae738863af7ff5a00d673373600ca03aaaea",
          "vout": 1,
          "scriptSig": {
            "asm": "30450221009a349c7e7b19ea574c3aa26cd47cfe6b743b3866b0a55bb9991c1084ed2e15490220418cae01cd7910d6e22662d80c3b1912520cd3486c64f3cf4654229cba9c3889[ALL] 034b760f9ea634963ffa4d6ddf0767d1c98e343dc030c273ad9de20f1e917adb4e",
            "hex": "4830450221009a349c7e7b19ea574c3aa26cd47cfe6b743b3866b0a55bb9991c1084ed2e15490220418cae01cd7910d6e22662d80c3b1912520cd3486c64f3cf4654229cba9c38890121034b760f9ea634963ffa4d6ddf0767d1c98e343dc030c273ad9de20f1e917adb4e"
          },
          "sequence": 4294967295
        }
      ],
      "vout": [
        {
          "value": 0.92806675,
          "n": 0,
          "scriptPubKey": {
            "asm": "OP_DUP OP_HASH160 5bb21c2357674bc431e782ef9ffd99d9e7b1ecf9 OP_EQUALVERIFY OP_CHECKSIG",
            "hex": "76a9145bb21c2357674bc431e782ef9ffd99d9e7b1ecf988ac",
            "reqSigs": 1,
            "type": "pubkeyhash",
            "addresses": [
              "LTao7xq4Hd8stFghKgsvxo2iH6GSzN5Spi"
            ]
          }
        }, 
        {
          "value": 0.01023176,
          "n": 1,
          "scriptPubKey": {
            "asm": "OP_DUP OP_HASH160 bb29cf8c9f77cfa1f109b8acb9830c0a46b6931c OP_EQUALVERIFY OP_CHECKSIG",
            "hex": "76a914bb29cf8c9f77cfa1f109b8acb9830c0a46b6931c88ac",
            "reqSigs": 1,
            "type": "pubkeyhash",
            "addresses": [
              "LcHai9Sn3qNpjmhdvESLBmunbRve9ejrWu"
            ]
          }
        }
      ],
      "hex": "0100000001eaaa3aa00c607333670da0f57faf638873ae6e93cea3ba4d665e6d3e3f6f7f57010000006b4830450221009a349c7e7b19ea574c3aa26cd47cfe6b743b3866b0a55bb9991c1084ed2e15490220418cae01cd7910d6e22662d80c3b1912520cd3486c64f3cf4654229cba9c38890121034b760f9ea634963ffa4d6ddf0767d1c98e343dc030c273ad9de20f1e917adb4effffffff02131e8805000000001976a9145bb21c2357674bc431e782ef9ffd99d9e7b1ecf988acc89c0f00000000001976a914bb29cf8c9f77cfa1f109b8acb9830c0a46b6931c88ac00000000"
    }, 
    {
      "txid": "108de4c664a6be2b68d166236237ae3f089284feb3f3d6c0ef5d138e7b6e3fe3",
      "hash": "108de4c664a6be2b68d166236237ae3f089284feb3f3d6c0ef5d138e7b6e3fe3",
      "version": 1,
      "size": 225,
      "vsize": 225,
      "locktime": 0,
      "vin": [
        {
          "txid": "d9fba9da5f71813f3d544f053dfe3c5b0cee95dca6e19ca4df8da15f39f0b8d8",
          "vout": 1,
          "scriptSig": {
            "asm": "3044022023f557a623f2dc0e5527a4403f4d107459ca2a58cd107cf902b1cfb5fa8f004802200c68b959997f70dea3a777c273f892b309a5d73ee41307bdb82ab386b7f5d22a[ALL] 021d7e3b18bb073d8541d089ae7e1ca13ca377ade8dcbead11c4a923700bbb03ae",
            "hex": "473044022023f557a623f2dc0e5527a4403f4d107459ca2a58cd107cf902b1cfb5fa8f004802200c68b959997f70dea3a777c273f892b309a5d73ee41307bdb82ab386b7f5d22a0121021d7e3b18bb073d8541d089ae7e1ca13ca377ade8dcbead11c4a923700bbb03ae"
          },
          "sequence": 4294967295
        }
      ],
      "vout": [
        {
          "value": 0.86948000,
          "n": 0,
          "scriptPubKey": {
            "asm": "OP_DUP OP_HASH160 9c879fd15173b04376cf10faa8695f93dc26078e OP_EQUALVERIFY OP_CHECKSIG",
            "hex": "76a9149c879fd15173b04376cf10faa8695f93dc26078e88ac",
            "reqSigs": 1,
            "type": "pubkeyhash",
            "addresses": [
              "LZVc9UkWvre4DgfurVhfMMDGRa7UKVRBLd"
            ]
          }
        }, 
        {
          "value": 0.02830295,
          "n": 1,
          "scriptPubKey": {
            "asm": "OP_DUP OP_HASH160 bb0264916aa24d960406ab81011647d9e2b42f62 OP_EQUALVERIFY OP_CHECKSIG",
            "hex": "76a914bb0264916aa24d960406ab81011647d9e2b42f6288ac",
            "reqSigs": 1,
            "type": "pubkeyhash",
            "addresses": [
              "LcGmVLr8rWo5NdUBmBq5TphqEWdsn27iN3"
            ]
          }
        }
      ],
      "hex": "0100000001d8b8f0395fa18ddfa49ce1a6dc95ee0c5b3cfe3d054f543d3f81715fdaa9fbd9010000006a473044022023f557a623f2dc0e5527a4403f4d107459ca2a58cd107cf902b1cfb5fa8f004802200c68b959997f70dea3a777c273f892b309a5d73ee41307bdb82ab386b7f5d22a0121021d7e3b18bb073d8541d089ae7e1ca13ca377ade8dcbead11c4a923700bbb03aeffffffff02a0b82e05000000001976a9149c879fd15173b04376cf10faa8695f93dc26078e88acd72f2b00000000001976a914bb0264916aa24d960406ab81011647d9e2b42f6288ac00000000"
    }, 
    {
      "txid": "362f0adab43f76570119499ed580b27d8e36bfbbff1bfe5059749c0928837dc1",
      "hash": "362f0adab43f76570119499ed580b27d8e36bfbbff1bfe5059749c0928837dc1",
      "version": 2,
      "size": 373,
      "vsize": 373,
      "locktime": 1357849,
      "vin": [
        {
          "txid": "358b1d96885d449a80898aaa78cdb8dba9deb7fce91dd8c5e95ae32822d2a654",
          "vout": 0,
          "scriptSig": {
            "asm": "304502210091d8ac9ba1f5d08abd0dacc42ed9d7dad654f25d4df4ee8ecbce9da53c38fe2502200ea875926b16e3f5dde8a99236baea00a2f325efe18a5c2938fcc64633ba1f0c[ALL] 025db9d965178e5dcca5f1422430f0be51ecc3bc84be6a5ea238b6564c0e877227",
            "hex": "48304502210091d8ac9ba1f5d08abd0dacc42ed9d7dad654f25d4df4ee8ecbce9da53c38fe2502200ea875926b16e3f5dde8a99236baea00a2f325efe18a5c2938fcc64633ba1f0c0121025db9d965178e5dcca5f1422430f0be51ecc3bc84be6a5ea238b6564c0e877227"
          },
          "sequence": 4294967294
        }, 
        {
          "txid": "f33d51c73602e589483bd68bcd8b4d9bd1489d9c1d06ff14eb3deaa0c05000be",
          "vout": 1,
          "scriptSig": {
            "asm": "304402207ef1be0c1ad4ffd8cd29567147e4d65fa5957d68737aed06d75dc4ec4f3ee36f0220794a22af1bc226cc76041a0fb2b3d5cbce4e403885c88e411459183b5b3f766f[ALL] 0302bc40fd09772218f2a5f08a956f102590161a3722e342d01ec21a756e6ff5e0",
            "hex": "47304402207ef1be0c1ad4ffd8cd29567147e4d65fa5957d68737aed06d75dc4ec4f3ee36f0220794a22af1bc226cc76041a0fb2b3d5cbce4e403885c88e411459183b5b3f766f01210302bc40fd09772218f2a5f08a956f102590161a3722e342d01ec21a756e6ff5e0"
          },
          "sequence": 4294967294
        }
      ],
      "vout": [
        {
          "value": 0.12439011,
          "n": 0,
          "scriptPubKey": {
            "asm": "OP_DUP OP_HASH160 74ccf3fc9b98f47e69a0177b72acb3589a267d2e OP_EQUALVERIFY OP_CHECKSIG",
            "hex": "76a91474ccf3fc9b98f47e69a0177b72acb3589a267d2e88ac",
            "reqSigs": 1,
            "type": "pubkeyhash",
            "addresses": [
              "LVsYArWs1podsjxoK2SZB8V4BAsiTrK1N8"
            ]
          }
        }, 
        {
          "value": 1.00000000,
          "n": 1,
          "scriptPubKey": {
            "asm": "OP_DUP OP_HASH160 4a3d0e23afebb049dcdc5d222f68b8b52db291f0 OP_EQUALVERIFY OP_CHECKSIG",
            "hex": "76a9144a3d0e23afebb049dcdc5d222f68b8b52db291f088ac",
            "reqSigs": 1,
            "type": "pubkeyhash",
            "addresses": [
              "LRzVQbmrYxTt67R83eRHdSo6TG7ksiTpYx"
            ]
          }
        }
      ],
      "hex": "020000000254a6d22228e35ae9c5d81de9fcb7dea9dbb8cd78aa8a89809a445d88961d8b35000000006b48304502210091d8ac9ba1f5d08abd0dacc42ed9d7dad654f25d4df4ee8ecbce9da53c38fe2502200ea875926b16e3f5dde8a99236baea00a2f325efe18a5c2938fcc64633ba1f0c0121025db9d965178e5dcca5f1422430f0be51ecc3bc84be6a5ea238b6564c0e877227feffffffbe0050c0a0ea3deb14ff061d9c9d48d19b4d8bcd8bd63b4889e50236c7513df3010000006a47304402207ef1be0c1ad4ffd8cd29567147e4d65fa5957d68737aed06d75dc4ec4f3ee36f0220794a22af1bc226cc76041a0fb2b3d5cbce4e403885c88e411459183b5b3f766f01210302bc40fd09772218f2a5f08a956f102590161a3722e342d01ec21a756e6ff5e0feffffff02e3cdbd00000000001976a91474ccf3fc9b98f47e69a0177b72acb3589a267d2e88ac00e1f505000000001976a9144a3d0e23afebb049dcdc5d222f68b8b52db291f088ac19b81400"
    }, 
    {
      "txid": "d7f6b27e432d05da5a52b8e8b0add95dd509b1a8837ccf0c8d9832828c84caed",
      "hash": "d7f6b27e432d05da5a52b8e8b0add95dd509b1a8837ccf0c8d9832828c84caed",
      "version": 1,
      "size": 520,
      "vsize": 520,
      "locktime": 0,
      "vin": [
        {
          "txid": "6a0f4c4c81203f2d500da2ea527757a288d4d1a0ab8d676679283d098a39615e",
          "vout": 282,
          "scriptSig": {
            "asm": "304402206a5989ba60d56c1b310bd6919805de020766f2d47dd6ceb35da1240bd961759202201b02ad90553c4106b674a324e1a96edf0a0950446f8eead1e3085d0c45c228a3[ALL] 03d13f4310493a402407c36e1810f1b78120c53cda52e087ebe03a5891fc10300d",
            "hex": "47304402206a5989ba60d56c1b310bd6919805de020766f2d47dd6ceb35da1240bd961759202201b02ad90553c4106b674a324e1a96edf0a0950446f8eead1e3085d0c45c228a3012103d13f4310493a402407c36e1810f1b78120c53cda52e087ebe03a5891fc10300d"
          },
          "sequence": 4294967295
        }, 
        {
          "txid": "ea5ff39839877f250782663c8fa4acdfafbd79c2afaa136ae4be9109ba74bea0",
          "vout": 0,
          "scriptSig": {
            "asm": "3045022100e9519225aa7f60e74cbf545e5b171684c547fe7a15d5ccd1a77a5345de45ff5f02205792a8e197939e09b01e87fc6ce626537e73bcf03e1bea3524d2ede7f02adaa1[ALL] 03b1f73cd58ad78e77e1808459d9f28eab972c920dfa162f29b2a6a0518070ac67",
            "hex": "483045022100e9519225aa7f60e74cbf545e5b171684c547fe7a15d5ccd1a77a5345de45ff5f02205792a8e197939e09b01e87fc6ce626537e73bcf03e1bea3524d2ede7f02adaa1012103b1f73cd58ad78e77e1808459d9f28eab972c920dfa162f29b2a6a0518070ac67"
          },
          "sequence": 4294967295
        }, 
        {
          "txid": "2a8afb9d43baf26d98cd7bbc9b11c7c9777618a9ae91c124be7c5e407da2f116",
          "vout": 0,
          "scriptSig": {
            "asm": "304402204a1658307c0b238f13788a80bfe06a904a61dc93601e77db49e1e8fcaade6330022075cdb16a97ab7e8cabd8af3b597e5b92ba81bfb4a96c16f0c3b405d01d98e5e6[ALL] 03f8cfb4b5bfac138dc14177a6e5ebb199795988568f9ebdf2dbb5108ff6a0e9d9",
            "hex": "47304402204a1658307c0b238f13788a80bfe06a904a61dc93601e77db49e1e8fcaade6330022075cdb16a97ab7e8cabd8af3b597e5b92ba81bfb4a96c16f0c3b405d01d98e5e6012103f8cfb4b5bfac138dc14177a6e5ebb199795988568f9ebdf2dbb5108ff6a0e9d9"
          },
          "sequence": 4294967295
        }
      ],
      "vout": [
        {
          "value": 0.01002156,
          "n": 0,
          "scriptPubKey": {
            "asm": "OP_DUP OP_HASH160 8ff8c473e2af6c62d104bb259cdeb3d487c391ed OP_EQUALVERIFY OP_CHECKSIG",
            "hex": "76a9148ff8c473e2af6c62d104bb259cdeb3d487c391ed88ac",
            "reqSigs": 1,
            "type": "pubkeyhash",
            "addresses": [
              "LYMCuJiYFt1w9EqqStTGiJ1ABSqoscVD2G"
            ]
          }
        }, 
        {
          "value": 2.03115291,
          "n": 1,
          "scriptPubKey": {
            "asm": "OP_DUP OP_HASH160 afab5da0dde27b667b6592b76bf2e57014b73dac OP_EQUALVERIFY OP_CHECKSIG",
            "hex": "76a914afab5da0dde27b667b6592b76bf2e57014b73dac88ac",
            "reqSigs": 1,
            "type": "pubkeyhash",
            "addresses": [
              "LbEooUzRbvhoiLwo5vJRxPVacytjTuJWkL"
            ]
          }
        }
      ],
      "hex": "01000000035e61398a093d287966678daba0d1d488a2577752eaa20d502d3f20814c4c0f6a1a0100006a47304402206a5989ba60d56c1b310bd6919805de020766f2d47dd6ceb35da1240bd961759202201b02ad90553c4106b674a324e1a96edf0a0950446f8eead1e3085d0c45c228a3012103d13f4310493a402407c36e1810f1b78120c53cda52e087ebe03a5891fc10300dffffffffa0be74ba0991bee46a13aaafc279bdafdfaca48f3c668207257f873998f35fea000000006b483045022100e9519225aa7f60e74cbf545e5b171684c547fe7a15d5ccd1a77a5345de45ff5f02205792a8e197939e09b01e87fc6ce626537e73bcf03e1bea3524d2ede7f02adaa1012103b1f73cd58ad78e77e1808459d9f28eab972c920dfa162f29b2a6a0518070ac67ffffffff16f1a27d405e7cbe24c191aea9187677c9c7119bbc7bcd986df2ba439dfb8a2a000000006a47304402204a1658307c0b238f13788a80bfe06a904a61dc93601e77db49e1e8fcaade6330022075cdb16a97ab7e8cabd8af3b597e5b92ba81bfb4a96c16f0c3b405d01d98e5e6012103f8cfb4b5bfac138dc14177a6e5ebb199795988568f9ebdf2dbb5108ff6a0e9d9ffffffff02ac4a0f00000000001976a9148ff8c473e2af6c62d104bb259cdeb3d487c391ed88ac1b4b1b0c000000001976a914afab5da0dde27b667b6592b76bf2e57014b73dac88ac00000000"
    }, 
    {
      "txid": "a571c49c3977afba22a30bafb11cf68d1ef1470752d0fc253984e42a54b31001",
      "hash": "a571c49c3977afba22a30bafb11cf68d1ef1470752d0fc253984e42a54b31001",
      "version": 1,
      "size": 192,
      "vsize": 192,
      "locktime": 0,
      "vin": [
        {
          "txid": "108de4c664a6be2b68d166236237ae3f089284feb3f3d6c0ef5d138e7b6e3fe3",
          "vout": 1,
          "scriptSig": {
            "asm": "304502210083f7cd0fe82723d5d9be67c0adf5059ce1120479fdea0346a3df2f60e5ddefc102201db06062b7e3369d99cb2703fba69a6c29bf49e84e4c9fcf0f467c1927058168[ALL] 02503800728f7aed183f303211940fe837a83363459159c3e10aa72ffbd0fe2d68",
            "hex": "48304502210083f7cd0fe82723d5d9be67c0adf5059ce1120479fdea0346a3df2f60e5ddefc102201db06062b7e3369d99cb2703fba69a6c29bf49e84e4c9fcf0f467c1927058168012102503800728f7aed183f303211940fe837a83363459159c3e10aa72ffbd0fe2d68"
          },
          "sequence": 4294967295
        }
      ],
      "vout": [
        {
          "value": 0.02777006,
          "n": 0,
          "scriptPubKey": {
            "asm": "OP_DUP OP_HASH160 0dd57d522100670373b472b4dfc07ffa3af79812 OP_EQUALVERIFY OP_CHECKSIG",
            "hex": "76a9140dd57d522100670373b472b4dfc07ffa3af7981288ac",
            "reqSigs": 1,
            "type": "pubkeyhash",
            "addresses": [
              "LLV6oDhMmpGrEr63wVX59cubSPniJkVQL2"
            ]
          }
        }
      ],
      "hex": "0100000001e33f6e7b8e135defc0d6f3b3fe8492083fae37622366d1682bbea664c6e48d10010000006b48304502210083f7cd0fe82723d5d9be67c0adf5059ce1120479fdea0346a3df2f60e5ddefc102201db06062b7e3369d99cb2703fba69a6c29bf49e84e4c9fcf0f467c1927058168012102503800728f7aed183f303211940fe837a83363459159c3e10aa72ffbd0fe2d68ffffffff01ae5f2a00000000001976a9140dd57d522100670373b472b4dfc07ffa3af7981288ac00000000"
    }, 
    {
      "txid": "c21f28b171f33d84c5c582adaa68278cf816459d8bd5d1a5efd6c9dd80165d04",
      "hash": "c21f28b171f33d84c5c582adaa68278cf816459d8bd5d1a5efd6c9dd80165d04",
      "version": 2,
      "size": 374,
      "vsize": 374,
      "locktime": 1357848,
      "vin": [
        {
          "txid": "79cd5e467e8483c5defe6041ff8ba454d741afbbffca09944160e0b899f99f7d",
          "vout": 0,
          "scriptSig": {
            "asm": "30450221008a17840b956ad0e2b310f2b33ed9f97d0e136ff05c07a2fed688187d4766c1c002203069c3d2f097948afd74a09c5c21fddf1bfa7c58a9e1b2acf0dc3b7edb101560[ALL] 021f1ad4b5266596c1aeb097bca09a7298bb31d4826d17cdaf8662fbdc65a65150",
            "hex": "4830450221008a17840b956ad0e2b310f2b33ed9f97d0e136ff05c07a2fed688187d4766c1c002203069c3d2f097948afd74a09c5c21fddf1bfa7c58a9e1b2acf0dc3b7edb1015600121021f1ad4b5266596c1aeb097bca09a7298bb31d4826d17cdaf8662fbdc65a65150"
          },
          "sequence": 4294967294
        }, 
        {
          "txid": "d35a9e72a6333f52a782300c495f631a215b366b8bfc9bd642fdbb371b5c0d6b",
          "vout": 0,
          "scriptSig": {
            "asm": "3045022100c685436c69f9f9f1d220dc5a1bf513bcda07e4f31759db2c2bb6296d29fff85c022068d9c8760d4d133bf26dd61e3bc5701c81cae9e289c58b487e0b8c662e8ee888[ALL] 02227b36bdfaed75658d41910c372c461d15f1fa3577a248a414ad9a37976213ca",
            "hex": "483045022100c685436c69f9f9f1d220dc5a1bf513bcda07e4f31759db2c2bb6296d29fff85c022068d9c8760d4d133bf26dd61e3bc5701c81cae9e289c58b487e0b8c662e8ee888012102227b36bdfaed75658d41910c372c461d15f1fa3577a248a414ad9a37976213ca"
          },
          "sequence": 4294967294
        }
      ],
      "vout": [
        {
          "value": 0.16401695,
          "n": 0,
          "scriptPubKey": {
            "asm": "OP_DUP OP_HASH160 e57e676831d30975de33945ee9c8147547c99787 OP_EQUALVERIFY OP_CHECKSIG",
            "hex": "76a914e57e676831d30975de33945ee9c8147547c9978788ac",
            "reqSigs": 1,
            "type": "pubkeyhash",
            "addresses": [
              "Lg9QRqkvSiJYzKno762k66jrbqdo2GnBR5"
            ]
          }
        }, 
        {
          "value": 0.03606304,
          "n": 1,
          "scriptPubKey": {
            "asm": "OP_DUP OP_HASH160 bd72d93ed5b30e87be9bdef8337220871b2408dc OP_EQUALVERIFY OP_CHECKSIG",
            "hex": "76a914bd72d93ed5b30e87be9bdef8337220871b2408dc88ac",
            "reqSigs": 1,
            "type": "pubkeyhash",
            "addresses": [
              "LcVfZHowB352vmrjrDA8uDLsgASNBf4y4y"
            ]
          }
        }
      ],
      "hex": "02000000027d9ff999b8e060419409caffbbaf41d754a48bff4160fedec583847e465ecd79000000006b4830450221008a17840b956ad0e2b310f2b33ed9f97d0e136ff05c07a2fed688187d4766c1c002203069c3d2f097948afd74a09c5c21fddf1bfa7c58a9e1b2acf0dc3b7edb1015600121021f1ad4b5266596c1aeb097bca09a7298bb31d4826d17cdaf8662fbdc65a65150feffffff6b0d5c1b37bbfd42d69bfc8b6b365b211a635f490c3082a7523f33a6729e5ad3000000006b483045022100c685436c69f9f9f1d220dc5a1bf513bcda07e4f31759db2c2bb6296d29fff85c022068d9c8760d4d133bf26dd61e3bc5701c81cae9e289c58b487e0b8c662e8ee888012102227b36bdfaed75658d41910c372c461d15f1fa3577a248a414ad9a37976213cafeffffff021f45fa00000000001976a914e57e676831d30975de33945ee9c8147547c9978788ac20073700000000001976a914bd72d93ed5b30e87be9bdef8337220871b2408dc88ac18b81400"
    }, 
    {
      "txid": "035eaeda55d0a8897d3292c574064c3f08a2b217c808499d37f6a427e3144abd",
      "hash": "035eaeda55d0a8897d3292c574064c3f08a2b217c808499d37f6a427e3144abd",
      "version": 1,
      "size": 225,
      "vsize": 225,
      "locktime": 0,
      "vin": [
        {
          "txid": "d970c1603c1a4240a6b620d03d797962e0a3762018c8c3922fced280f0348fc3",
          "vout": 1,
          "scriptSig": {
            "asm": "304402201cdc0f22ad00d8c00e9d8d9fb14501cbe40523337b1414ed9f3ad11db49c82f102206a1b2f21001111402827ac51c835ed62f814b80904cf3545246275cba0a77485[ALL] 026a9ccba4bb2adedeeb6867de8c0342d863f5743f8a17b6bf852eabe8c155bab6",
            "hex": "47304402201cdc0f22ad00d8c00e9d8d9fb14501cbe40523337b1414ed9f3ad11db49c82f102206a1b2f21001111402827ac51c835ed62f814b80904cf3545246275cba0a774850121026a9ccba4bb2adedeeb6867de8c0342d863f5743f8a17b6bf852eabe8c155bab6"
          },
          "sequence": 4294967295
        }
      ],
      "vout": [
        {
          "value": 0.00477400,
          "n": 0,
          "scriptPubKey": {
            "asm": "OP_DUP OP_HASH160 619ae911207280d42fe9c9be47f561dde65cc76e OP_EQUALVERIFY OP_CHECKSIG",
            "hex": "76a914619ae911207280d42fe9c9be47f561dde65cc76e88ac",
            "reqSigs": 1,
            "type": "pubkeyhash",
            "addresses": [
              "LU83PBgqRpHiZn6hE87ATeWk26HCiHnfRs"
            ]
          }
        }, 
        {
          "value": 0.00055307,
          "n": 1,
          "scriptPubKey": {
            "asm": "OP_DUP OP_HASH160 739788e7f4fd88069beedcc6d90a75cb9743ff85 OP_EQUALVERIFY OP_CHECKSIG",
            "hex": "76a914739788e7f4fd88069beedcc6d90a75cb9743ff8588ac",
            "reqSigs": 1,
            "type": "pubkeyhash",
            "addresses": [
              "LVm9W6Ui6pSVu6fNCTKc2RsCjwnzyCSWc5"
            ]
          }
        }
      ],
      "hex": "0100000001c38f34f080d2ce2f92c3c8182076a3e06279793dd020b6a640421a3c60c170d9010000006a47304402201cdc0f22ad00d8c00e9d8d9fb14501cbe40523337b1414ed9f3ad11db49c82f102206a1b2f21001111402827ac51c835ed62f814b80904cf3545246275cba0a774850121026a9ccba4bb2adedeeb6867de8c0342d863f5743f8a17b6bf852eabe8c155bab6ffffffff02d8480700000000001976a914619ae911207280d42fe9c9be47f561dde65cc76e88ac0bd80000000000001976a914739788e7f4fd88069beedcc6d90a75cb9743ff8588ac00000000"
    }, 
    {
      "txid": "e78d9ec24eadfb7728f6ed978b81ce7c867cb6fab752817d3b715819d802f903",
      "hash": "e78d9ec24eadfb7728f6ed978b81ce7c867cb6fab752817d3b715819d802f903",
      "version": 1,
      "size": 226,
      "vsize": 226,
      "locktime": 1357848,
      "vin": [
        {
          "txid": "6c938157485d640b801199c2dc2d4b56bd6fc0519a8771fdceb6e99cfa06ebe6",
          "vout": 1,
          "scriptSig": {
            "asm": "3045022100c4f8a00992b90577bf9a3f3187e6d464199d6cf1faf3b86cd29d0b04751da25a022003c988b877ac6e3057551874026b031354ca5c07404c92d64bf02540ca06e950[ALL] 03eff66d03fcd17b40b14a2799d6241639af5ec4abcdfe7572e327395d4e798dff",
            "hex": "483045022100c4f8a00992b90577bf9a3f3187e6d464199d6cf1faf3b86cd29d0b04751da25a022003c988b877ac6e3057551874026b031354ca5c07404c92d64bf02540ca06e950012103eff66d03fcd17b40b14a2799d6241639af5ec4abcdfe7572e327395d4e798dff"
          },
          "sequence": 4294967293
        }
      ],
      "vout": [
        {
          "value": 3.12000000,
          "n": 0,
          "scriptPubKey": {
            "asm": "OP_DUP OP_HASH160 1e03f03b313f46396f45c064192f85fcfc5cc243 OP_EQUALVERIFY OP_CHECKSIG",
            "hex": "76a9141e03f03b313f46396f45c064192f85fcfc5cc24388ac",
            "reqSigs": 1,
            "type": "pubkeyhash",
            "addresses": [
              "LMxfFcWJxWyhAZZWi9Ah9q37fJGVEMgJio"
            ]
          }
        }, 
        {
          "value": 15.57954500,
          "n": 1,
          "scriptPubKey": {
            "asm": "OP_DUP OP_HASH160 012ffaadcf4716af18d840c226f9d1b2337adbca OP_EQUALVERIFY OP_CHECKSIG",
            "hex": "76a914012ffaadcf4716af18d840c226f9d1b2337adbca88ac",
            "reqSigs": 1,
            "type": "pubkeyhash",
            "addresses": [
              "LKLER4P8Qmokunibdhu95uT1fyyRjzoDME"
            ]
          }
        }
      ],
      "hex": "0100000001e6eb06fa9ce9b6cefd71879a51c06fbd564b2ddcc29911800b645d485781936c010000006b483045022100c4f8a00992b90577bf9a3f3187e6d464199d6cf1faf3b86cd29d0b04751da25a022003c988b877ac6e3057551874026b031354ca5c07404c92d64bf02540ca06e950012103eff66d03fcd17b40b14a2799d6241639af5ec4abcdfe7572e327395d4e798dfffdffffff0200be9812000000001976a9141e03f03b313f46396f45c064192f85fcfc5cc24388acc47fdc5c000000001976a914012ffaadcf4716af18d840c226f9d1b2337adbca88ac18b81400"
    }, 
    {
      "txid": "c1b2a12fbdf2634bf05fc2b95fd9569707d781e4d1ff389b19ba2e60db11731e",
      "hash": "c1b2a12fbdf2634bf05fc2b95fd9569707d781e4d1ff389b19ba2e60db11731e",
      "version": 2,
      "size": 226,
      "vsize": 226,
      "locktime": 1357848,
      "vin": [
        {
          "txid": "0956ac51b04d28c2244d37123c7e7c09faeda9fa42c7d5b1774b0a9ebc90f2b8",
          "vout": 1,
          "scriptSig": {
            "asm": "3045022100c78624bb7cbfa828efa20bba6e3178eebd66cb4ba1011c5fc16cead2da522fb40220081acd4051dbfd418586e3e6d3f5e9317ad93080f617629d1cf1e6dff8b267b8[ALL] 03d1e9908455b5274aa73f67c88b596e451113e061c6864a0332c766bc4b567e30",
            "hex": "483045022100c78624bb7cbfa828efa20bba6e3178eebd66cb4ba1011c5fc16cead2da522fb40220081acd4051dbfd418586e3e6d3f5e9317ad93080f617629d1cf1e6dff8b267b8012103d1e9908455b5274aa73f67c88b596e451113e061c6864a0332c766bc4b567e30"
          },
          "sequence": 4294967294
        }
      ],
      "vout": [
        {
          "value": 0.12470630,
          "n": 0,
          "scriptPubKey": {
            "asm": "OP_DUP OP_HASH160 ed16ccfb293d6350b0e23984539336a7bf907f4f OP_EQUALVERIFY OP_CHECKSIG",
            "hex": "76a914ed16ccfb293d6350b0e23984539336a7bf907f4f88ac",
            "reqSigs": 1,
            "type": "pubkeyhash",
            "addresses": [
              "LgqZiu2GsVd27W1XSWqjwwZqnGwbjzDhHz"
            ]
          }
        }, 
        {
          "value": 131.42630266,
          "n": 1,
          "scriptPubKey": {
            "asm": "OP_DUP OP_HASH160 a5ceb4f6168d06f7c1ed42064b78e87ac7381eda OP_EQUALVERIFY OP_CHECKSIG",
            "hex": "76a914a5ceb4f6168d06f7c1ed42064b78e87ac7381eda88ac",
            "reqSigs": 1,
            "type": "pubkeyhash",
            "addresses": [
              "LaLfP7P8KicZAwmgf3MAwnNWyQF6jfRFmK"
            ]
          }
        }
      ],
      "hex": "0200000001b8f290bc9e0a4b77b1d5c742faa9edfa097c7e3c12374d24c2284db051ac5609010000006b483045022100c78624bb7cbfa828efa20bba6e3178eebd66cb4ba1011c5fc16cead2da522fb40220081acd4051dbfd418586e3e6d3f5e9317ad93080f617629d1cf1e6dff8b267b8012103d1e9908455b5274aa73f67c88b596e451113e061c6864a0332c766bc4b567e30feffffff026649be00000000001976a914ed16ccfb293d6350b0e23984539336a7bf907f4f88ac7a9f5c0f030000001976a914a5ceb4f6168d06f7c1ed42064b78e87ac7381eda88ac18b81400"
    }, 
    {
      "txid": "6a923d9afeacb98ea2158f721475343ea9906e4e413a78099d583b26c87c9b3e",
      "hash": "6a923d9afeacb98ea2158f721475343ea9906e4e413a78099d583b26c87c9b3e",
      "version": 2,
      "size": 226,
      "vsize": 226,
      "locktime": 1357762,
      "vin": [
        {
          "txid": "c34fc5a6dd7b701c97a38487cae1fb7bb5395f15b427322e28e661bc2b7b4fa9",
          "vout": 1,
          "scriptSig": {
            "asm": "3045022100af6f9e68b67b855b39bc579f0b95e543222299733f6fc4749ed38bf694da6d8002205037d0336106334a2ba8f8ff123917f9ff9da85e05c28cd37cb83fef4fb37371[ALL] 038e86982b8181a37a2ab20337bba4515ff76f2c0c51317eedcc2870874539ee0a",
            "hex": "483045022100af6f9e68b67b855b39bc579f0b95e543222299733f6fc4749ed38bf694da6d8002205037d0336106334a2ba8f8ff123917f9ff9da85e05c28cd37cb83fef4fb373710121038e86982b8181a37a2ab20337bba4515ff76f2c0c51317eedcc2870874539ee0a"
          },
          "sequence": 4294967294
        }
      ],
      "vout": [
        {
          "value": 0.36095523,
          "n": 0,
          "scriptPubKey": {
            "asm": "OP_DUP OP_HASH160 a9764ac8be58b4a7ab215b9b6d8bf376da1e5490 OP_EQUALVERIFY OP_CHECKSIG",
            "hex": "76a914a9764ac8be58b4a7ab215b9b6d8bf376da1e549088ac",
            "reqSigs": 1,
            "type": "pubkeyhash",
            "addresses": [
              "LafzAiKu8PkYFEd9AmNcSYtB5gGxFnvUE4"
            ]
          }
        }, 
        {
          "value": 0.24960375,
          "n": 1,
          "scriptPubKey": {
            "asm": "OP_DUP OP_HASH160 c53d7102be2a0ffb84af4930b184af05ec8cbeda OP_EQUALVERIFY OP_CHECKSIG",
            "hex": "76a914c53d7102be2a0ffb84af4930b184af05ec8cbeda88ac",
            "reqSigs": 1,
            "type": "pubkeyhash",
            "addresses": [
              "LdCrz2i3wzkx49JzEaqrgfAKjubn5QdtpC"
            ]
          }
        }
      ],
      "hex": "0200000001a94f7b2bbc61e6282e3227b4155f39b57bfbe1ca8784a3971c707bdda6c54fc3010000006b483045022100af6f9e68b67b855b39bc579f0b95e543222299733f6fc4749ed38bf694da6d8002205037d0336106334a2ba8f8ff123917f9ff9da85e05c28cd37cb83fef4fb373710121038e86982b8181a37a2ab20337bba4515ff76f2c0c51317eedcc2870874539ee0afeffffff0223c62602000000001976a914a9764ac8be58b4a7ab215b9b6d8bf376da1e549088ac77dd7c01000000001976a914c53d7102be2a0ffb84af4930b184af05ec8cbeda88acc2b71400"
    }, 
    {
      "txid": "92223ba49bcc0f8a4e41e15bedcf6c917009ad85004d719cbbcb71473d903c47",
      "hash": "92223ba49bcc0f8a4e41e15bedcf6c917009ad85004d719cbbcb71473d903c47",
      "version": 1,
      "size": 226,
      "vsize": 226,
      "locktime": 1357849,
      "vin": [
        {
          "txid": "a1db1b233758cb5d92a13531f609118a95d7e98b438be2b3f88b8940c674c183",
          "vout": 0,
          "scriptSig": {
            "asm": "3045022100b4027fa0c769045555162453f41b23b68b5d85aed9677591fe8ab8841fab44ee0220454873e36c10cce4fa7b73514194daa56042439a39b731c55c61eda3d2d0e883[ALL] 02b75dbce94a10ee1aa7ed462f74edda25ca7891df1e1d6d33f9e43efb0cd2007c",
            "hex": "483045022100b4027fa0c769045555162453f41b23b68b5d85aed9677591fe8ab8841fab44ee0220454873e36c10cce4fa7b73514194daa56042439a39b731c55c61eda3d2d0e883012102b75dbce94a10ee1aa7ed462f74edda25ca7891df1e1d6d33f9e43efb0cd2007c"
          },
          "sequence": 4294967294
        }
      ],
      "vout": [
        {
          "value": 0.29200000,
          "n": 0,
          "scriptPubKey": {
            "asm": "OP_DUP OP_HASH160 bf8980e3f62686d7861b94fc0ce76593d886be9e OP_EQUALVERIFY OP_CHECKSIG",
            "hex": "76a914bf8980e3f62686d7861b94fc0ce76593d886be9e88ac",
            "reqSigs": 1,
            "type": "pubkeyhash",
            "addresses": [
              "Lcgi3m8w13uJGUovDuXxfWheGKaFD2A1nY"
            ]
          }
        }, 
        {
          "value": 1.11176418,
          "n": 1,
          "scriptPubKey": {
            "asm": "OP_DUP OP_HASH160 4868a1bc1aeb0ed4717686aa56c72087ac36b4ca OP_EQUALVERIFY OP_CHECKSIG",
            "hex": "76a9144868a1bc1aeb0ed4717686aa56c72087ac36b4ca88ac",
            "reqSigs": 1,
            "type": "pubkeyhash",
            "addresses": [
              "LRppFy6toQmUQQ4kEVA56nDfkUbXyAt8PR"
            ]
          }
        }
      ],
      "hex": "010000000183c174c640898bf8b3e28b438be9d7958a1109f63135a1925dcb5837231bdba1000000006b483045022100b4027fa0c769045555162453f41b23b68b5d85aed9677591fe8ab8841fab44ee0220454873e36c10cce4fa7b73514194daa56042439a39b731c55c61eda3d2d0e883012102b75dbce94a10ee1aa7ed462f74edda25ca7891df1e1d6d33f9e43efb0cd2007cfeffffff02808ebd01000000001976a914bf8980e3f62686d7861b94fc0ce76593d886be9e88ace26aa006000000001976a9144868a1bc1aeb0ed4717686aa56c72087ac36b4ca88ac19b81400"
    }, 
    {
      "txid": "e89366f68374f2dd92f4083082330bab999af87a66d8909cbdeaea8bbc3f39a3",
      "hash": "e89366f68374f2dd92f4083082330bab999af87a66d8909cbdeaea8bbc3f39a3",
      "version": 1,
      "size": 226,
      "vsize": 226,
      "locktime": 0,
      "vin": [
        {
          "txid": "ecfb021f2ab561e5aa33b95d55b3e8011fb3bd3b0a62d3be9faa51d81ef58e84",
          "vout": 0,
          "scriptSig": {
            "asm": "3045022100ee32fb1cc486a8f53abc3e7384c3de1f7eb1b635bfb8bc8664cb3220f3476e9802201ce624cd13f47892d98acbe372042a1051255d18dd740dc519923612daf62e48[ALL] 02150fae7eea6b4f61ab973cd2df42c3da1107619f6e348a4064647ecb2db4ec30",
            "hex": "483045022100ee32fb1cc486a8f53abc3e7384c3de1f7eb1b635bfb8bc8664cb3220f3476e9802201ce624cd13f47892d98acbe372042a1051255d18dd740dc519923612daf62e48012102150fae7eea6b4f61ab973cd2df42c3da1107619f6e348a4064647ecb2db4ec30"
          },
          "sequence": 4294967295
        }
      ],
      "vout": [
        {
          "value": 0.00060138,
          "n": 0,
          "scriptPubKey": {
            "asm": "OP_DUP OP_HASH160 a58f80e24a668c9fe6c2c4667b2ac91f6691ba30 OP_EQUALVERIFY OP_CHECKSIG",
            "hex": "76a914a58f80e24a668c9fe6c2c4667b2ac91f6691ba3088ac",
            "reqSigs": 1,
            "type": "pubkeyhash",
            "addresses": [
              "LaKMffDd4qeKU9Ux7ub7pigFcnPKE6nRms"
            ]
          }
        }, 
        {
          "value": 0.02502167,
          "n": 1,
          "scriptPubKey": {
            "asm": "OP_DUP OP_HASH160 bd7967e63b4b4477be5cd9bda77af7497910a803 OP_EQUALVERIFY OP_CHECKSIG",
            "hex": "76a914bd7967e63b4b4477be5cd9bda77af7497910a80388ac",
            "reqSigs": 1,
            "type": "pubkeyhash",
            "addresses": [
              "LcVoQtueMxSjGuwbTgo1FZg4d6sqkBcFCD"
            ]
          }
        }
      ],
      "hex": "0100000001848ef51ed851aa9fbed3620a3bbdb31f01e8b3555db933aae561b52a1f02fbec000000006b483045022100ee32fb1cc486a8f53abc3e7384c3de1f7eb1b635bfb8bc8664cb3220f3476e9802201ce624cd13f47892d98acbe372042a1051255d18dd740dc519923612daf62e48012102150fae7eea6b4f61ab973cd2df42c3da1107619f6e348a4064647ecb2db4ec30ffffffff02eaea0000000000001976a914a58f80e24a668c9fe6c2c4667b2ac91f6691ba3088ac172e2600000000001976a914bd7967e63b4b4477be5cd9bda77af7497910a80388ac00000000"
    }, 
    {
      "txid": "40e1d575c22c939f8035a09b52c5403987bdb8d41ae6038bbf7ae43f8daf22d3",
      "hash": "40e1d575c22c939f8035a09b52c5403987bdb8d41ae6038bbf7ae43f8daf22d3",
      "version": 2,
      "size": 226,
      "vsize": 226,
      "locktime": 1357849,
      "vin": [
        {
          "txid": "6bcdf3b8006e0dac93ff647f77de49c7986a97eeca3f5a35ca8fc12a302c27c6",
          "vout": 1,
          "scriptSig": {
            "asm": "30450221009a2c711e02d09c49f00d4c17e90d35b0577945c6ebca261575bfe3108dfa3084022071ba4343309ba7f44efdb1b96f13ab117a6153e82c1a85d2ab68e16fdb4977fa[ALL] 02f8d1a9c2670becec19896d466bae076cb2803ee2668760fe45f0db8523a43bc4",
            "hex": "4830450221009a2c711e02d09c49f00d4c17e90d35b0577945c6ebca261575bfe3108dfa3084022071ba4343309ba7f44efdb1b96f13ab117a6153e82c1a85d2ab68e16fdb4977fa012102f8d1a9c2670becec19896d466bae076cb2803ee2668760fe45f0db8523a43bc4"
          },
          "sequence": 4294967294
        }
      ],
      "vout": [
        {
          "value": 0.14600000,
          "n": 0,
          "scriptPubKey": {
            "asm": "OP_DUP OP_HASH160 310ad6b2c31fca4ccdc65d08ab090438dcaee005 OP_EQUALVERIFY OP_CHECKSIG",
            "hex": "76a914310ad6b2c31fca4ccdc65d08ab090438dcaee00588ac",
            "reqSigs": 1,
            "type": "pubkeyhash",
            "addresses": [
              "LPhGMhLpcM9KVS5EdyuMfhn7z1nQFBBpNx"
            ]
          }
        }, 
        {
          "value": 0.00977875,
          "n": 1,
          "scriptPubKey": {
            "asm": "OP_DUP OP_HASH160 2255dadbb191cc9cbbbcdd41de31ec860a35d7ed OP_EQUALVERIFY OP_CHECKSIG",
            "hex": "76a9142255dadbb191cc9cbbbcdd41de31ec860a35d7ed88ac",
            "reqSigs": 1,
            "type": "pubkeyhash",
            "addresses": [
              "LNMW63EUGwJ3zWw5qjGQySprhSWtoF7rpt"
            ]
          }
        }
      ],
      "hex": "0200000001c6272c302ac18fca355a3fcaee976a98c749de777f64ff93ac0d6e00b8f3cd6b010000006b4830450221009a2c711e02d09c49f00d4c17e90d35b0577945c6ebca261575bfe3108dfa3084022071ba4343309ba7f44efdb1b96f13ab117a6153e82c1a85d2ab68e16fdb4977fa012102f8d1a9c2670becec19896d466bae076cb2803ee2668760fe45f0db8523a43bc4feffffff0240c7de00000000001976a914310ad6b2c31fca4ccdc65d08ab090438dcaee00588acd3eb0e00000000001976a9142255dadbb191cc9cbbbcdd41de31ec860a35d7ed88ac19b81400"
    }
  ],
  "time": 1517056658,
  "mediantime": 1517056460,
  "nonce": 339756289,
  "bits": "1a047f14",
  "difficulty": 3731199.183374282,
  "chainwork": "000000000000000000000000000000000000000000000032955f046080aed5d8",
  "previousblockhash": "a09dc3010215117a403dee99414b42381234563c561ba20ac51bd32533194811",
  "nextblockhash": "cbcc8e13ebf3d833702f6338cd90dcf3f3c723041251fca5b8f695b27c9b93be"
}
