{
  "hash": "3b56be8c57d8e2fd0920d1cb307fd93d18ab410a138902487c712c0c50c07c1e",
  "confirmations": 3350,
  "strippedsize": 253,
  "size": 253,
  "weight": 1012,
  "height": 1357645,
  "version": 536870912,
  "versionHex": "20000000",
  "merkleroot": "d35d2dc72a1295333d6ebd5cbfb78d9dac8ccad68a126d4c50204feef144b839",
  "tx": [
    {
      "txid": "d35d2dc72a1295333d6ebd5cbfb78d9dac8ccad68a126d4c50204feef144b839",
      "hash": "d35d2dc72a1295333d6ebd5cbfb78d9dac8ccad68a126d4c50204feef144b839",
      "version": 1,
      "size": 172,
      "vsize": 172,
      "locktime": 0,
      "vin": [
        {
          "coinbase": "034db7141a4d696e656420627920416e74506f6f6c20626a3532205a6c0b0bfabe6d6d4da67b7e3a99a71af620e9b577cb90d7bd5c866056c865bf5db23f96b3224a790400000000000000eb1200000000000002000000",
          "sequence": 4294967295
        }
      ],
      "vout": [
        {
          "value": 25.00000000,
          "n": 0,
          "scriptPubKey": {
            "asm": "OP_DUP OP_HASH160 0ff3ccc5e8be88afe24b5d634e5852d474dbdff1 OP_EQUALVERIFY OP_CHECKSIG",
            "hex": "76a9140ff3ccc5e8be88afe24b5d634e5852d474dbdff188ac",
            "reqSigs": 1,
            "type": "pubkeyhash",
            "addresses": [
              "LLgJTbzZMsRTCUF1NtvvL9SR1a4pVieW89"
            ]
          }
        }
      ],
      "hex": "01000000010000000000000000000000000000000000000000000000000000000000000000ffffffff57034db7141a4d696e656420627920416e74506f6f6c20626a3532205a6c0b0bfabe6d6d4da67b7e3a99a71af620e9b577cb90d7bd5c866056c865bf5db23f96b3224a790400000000000000eb1200000000000002000000ffffffff0100f90295000000001976a9140ff3ccc5e8be88afe24b5d634e5852d474dbdff188ac00000000"
    }
  ],
  "time": 1517030155,
  "mediantime": 1517029055,
  "nonce": 2956850306,
  "bits": "1a047f14",
  "difficulty": 3731199.183374282,
  "chainwork": "000000000000000000000000000000000000000000000032678e85383b1978ec",
  "previousblockhash": "35fca68535c48362ad70e5efff3c5c0647fa1af3b3cad0d4e938c29063a036ab",
  "nextblockhash": "26eccf96d61e67c85ca45e16eaccd9e82502b678287ae396b109a0a98e5ee314"
}
