{
  "hash": "3b5d540f629dc9a9612ef217a47a2cbf10fc4f3e8a1d2a75cff767a3f6f9baf0",
  "confirmations": 2985,
  "strippedsize": 255,
  "size": 255,
  "weight": 1020,
  "height": 1358010,
  "version": 536870912,
  "versionHex": "20000000",
  "merkleroot": "77c18850a1aed525045620531a02e6c7c4f7f1cea3d282f0969b132e6b083dac",
  "tx": [
    {
      "txid": "77c18850a1aed525045620531a02e6c7c4f7f1cea3d282f0969b132e6b083dac",
      "hash": "77c18850a1aed525045620531a02e6c7c4f7f1cea3d282f0969b132e6b083dac",
      "version": 1,
      "size": 174,
      "vsize": 174,
      "locktime": 0,
      "vin": [
        {
          "coinbase": "03bab8141c4d696e656420627920416e74506f6f6c20626a331f205a6cbd560162fabe6d6dd0cc689488c7d13353cc112e008c9aaae2a5376832f74b054ce62b9ae05123ad04000000000000001b2300000000000013010000",
          "sequence": 4294967295
        }
      ],
      "vout": [
        {
          "value": 25.00000000,
          "n": 0,
          "scriptPubKey": {
            "asm": "OP_DUP OP_HASH160 0ff3ccc5e8be88afe24b5d634e5852d474dbdff1 OP_EQUALVERIFY OP_CHECKSIG",
            "hex": "76a9140ff3ccc5e8be88afe24b5d634e5852d474dbdff188ac",
            "reqSigs": 1,
            "type": "pubkeyhash",
            "addresses": [
              "LLgJTbzZMsRTCUF1NtvvL9SR1a4pVieW89"
            ]
          }
        }
      ],
      "hex": "01000000010000000000000000000000000000000000000000000000000000000000000000ffffffff5903bab8141c4d696e656420627920416e74506f6f6c20626a331f205a6cbd560162fabe6d6dd0cc689488c7d13353cc112e008c9aaae2a5376832f74b054ce62b9ae05123ad04000000000000001b2300000000000013010000ffffffff0100f90295000000001976a9140ff3ccc5e8be88afe24b5d634e5852d474dbdff188ac00000000"
    }
  ],
  "time": 1517075798,
  "mediantime": 1517075336,
  "nonce": 94602125,
  "bits": "1a047f14",
  "difficulty": 3731199.183374282,
  "chainwork": "000000000000000000000000000000000000000000000032b8bb983b3c9aa9fe",
  "previousblockhash": "1be87cf646604e76c07df69f2a6df27adcfed3837ad534b85ccfc4c41a6184f9",
  "nextblockhash": "de8a124d5964c7eb30bd259dbfa7297950a1f95dfcf2b9e6723ba92f56763d93"
}
