{
  "hash": "3b65ff0891a471bacd04b97c1b7810312442549f6d73e2cf94fbb157c5547a14",
  "confirmations": 159,
  "strippedsize": 253,
  "size": 253,
  "weight": 1012,
  "height": 1360835,
  "version": 536870912,
  "versionHex": "20000000",
  "merkleroot": "9f69b9f4c4510268e75cd2cc9c9f9f4e69fb5e57e288138e162b17cf2c043bc2",
  "tx": [
    {
      "txid": "9f69b9f4c4510268e75cd2cc9c9f9f4e69fb5e57e288138e162b17cf2c043bc2",
      "hash": "9f69b9f4c4510268e75cd2cc9c9f9f4e69fb5e57e288138e162b17cf2c043bc2",
      "version": 1,
      "size": 172,
      "vsize": 172,
      "locktime": 0,
      "vin": [
        {
          "coinbase": "03c3c3141a4d696e656420627920416e74506f6f6c20626a3242205a730507fabe6d6d17ff2a0a84d179bffde43bd7e2d602ec6e66ef2869d3a92d065ab6ffdb90c522040000000000000074160000000000000f000000",
          "sequence": 4294967295
        }
      ],
      "vout": [
        {
          "value": 25.00000000,
          "n": 0,
          "scriptPubKey": {
            "asm": "OP_DUP OP_HASH160 0ff3ccc5e8be88afe24b5d634e5852d474dbdff1 OP_EQUALVERIFY OP_CHECKSIG",
            "hex": "76a9140ff3ccc5e8be88afe24b5d634e5852d474dbdff188ac",
            "reqSigs": 1,
            "type": "pubkeyhash",
            "addresses": [
              "LLgJTbzZMsRTCUF1NtvvL9SR1a4pVieW89"
            ]
          }
        }
      ],
      "hex": "01000000010000000000000000000000000000000000000000000000000000000000000000ffffffff5703c3c3141a4d696e656420627920416e74506f6f6c20626a3242205a730507fabe6d6d17ff2a0a84d179bffde43bd7e2d602ec6e66ef2869d3a92d065ab6ffdb90c522040000000000000074160000000000000f000000ffffffff0100f90295000000001976a9140ff3ccc5e8be88afe24b5d634e5852d474dbdff188ac00000000"
    }
  ],
  "time": 1517487367,
  "mediantime": 1517487091,
  "nonce": 3244271925,
  "bits": "1a04088e",
  "difficulty": 4159490.835685156,
  "chainwork": "0000000000000000000000000000000000000000000000354f999fc987962880",
  "previousblockhash": "14b07f282e09767558a95bb3986cfd675f18355eadbe3653bf6a0a4a9d3c8559",
  "nextblockhash": "8e205cdbfbfc62aa4df5b0cedee1756fa74b74235d71b869dd8e129b5507c84e"
}
