{
  "hash": "3be7f91ee22c12beb0c8042485e17ece1fcaba2c5a12918b8dca05209596b6c8",
  "confirmations": 3795,
  "strippedsize": 234,
  "size": 234,
  "weight": 936,
  "height": 1357200,
  "version": 536870912,
  "versionHex": "20000000",
  "merkleroot": "afe9e59e0147c31d5310af3d5922c1c03c52f160dfe87274f432db8ac58db630",
  "tx": [
    {
      "txid": "afe9e59e0147c31d5310af3d5922c1c03c52f160dfe87274f432db8ac58db630",
      "hash": "afe9e59e0147c31d5310af3d5922c1c03c52f160dfe87274f432db8ac58db630",
      "version": 1,
      "size": 153,
      "vsize": 153,
      "locktime": 0,
      "vin": [
        {
          "coinbase": "0390b514045a6b28de2cfabe6d6dbe4e773a788798fe5b34d04364d49cbdb7b58954e9bce9489f02ae91cdbe9a574000000000000000042f4c502f082200647c4b000000",
          "sequence": 4294967295
        }
      ],
      "vout": [
        {
          "value": 25.00000000,
          "n": 0,
          "scriptPubKey": {
            "asm": "OP_DUP OP_HASH160 57757ed2ecf2052ff3126c397aca7defb9ca2cec OP_EQUALVERIFY OP_CHECKSIG",
            "hex": "76a91457757ed2ecf2052ff3126c397aca7defb9ca2cec88ac",
            "reqSigs": 1,
            "type": "pubkeyhash",
            "addresses": [
              "LTCPodGk5FwcJaRzH9yKnwicxzFUbxp6tN"
            ]
          }
        }
      ],
      "hex": "01000000010000000000000000000000000000000000000000000000000000000000000000ffffffff440390b514045a6b28de2cfabe6d6dbe4e773a788798fe5b34d04364d49cbdb7b58954e9bce9489f02ae91cdbe9a574000000000000000042f4c502f082200647c4b000000ffffffff0100f90295000000001976a91457757ed2ecf2052ff3126c397aca7defb9ca2cec88ac00000000"
    }
  ],
  "time": 1516972254,
  "mediantime": 1516971584,
  "nonce": 4129201724,
  "bits": "1a047f14",
  "difficulty": 3731199.183374282,
  "chainwork": "0000000000000000000000000000000000000000000000320496b0abcc8d7fba",
  "previousblockhash": "225d5ea234a3246e299b94e3d21629b85ebb3df4c24848530ec91d59bf6c5c9c",
  "nextblockhash": "1c716175a380f28b639a9a009bf3ade1483dbdd1faeecbb248a47691d631c69d"
}
