{
  "hash": "3cb1ead0c7320769d4c223c0a619f195ca831aa996d81026b513c63879096342",
  "confirmations": 513,
  "strippedsize": 4543,
  "size": 5018,
  "weight": 18647,
  "height": 1360481,
  "version": 536870912,
  "versionHex": "20000000",
  "merkleroot": "8a8d203bb9728815cf5259a37c48f25bb37b6b578d9b9c1d187b9a153aa0657a",
  "tx": [
    {
      "txid": "8d0e60faa5b985a5c3921ef81742b865bb1f0a98b5432b23853bd1ae891ed4bd",
      "hash": "dae40f97c2127c9c695e27c3cfbbddc8bb2f58c4857974384fb0d7153627b196",
      "version": 1,
      "size": 277,
      "vsize": 250,
      "locktime": 949938790,
      "vin": [
        {
          "coinbase": "0361c2142cfabe6d6d35a00a5032ecf83b677d306351829a227cd696f1d73068539c2a5476267bcfd108000000f09f909f0f4d696e6564206279206173737461720000000000000000000000000000000000000000000000000000000000000000000000",
          "sequence": 3
        }
      ],
      "vout": [
        {
          "value": 25.00972198,
          "n": 0,
          "scriptPubKey": {
            "asm": "OP_DUP OP_HASH160 aa3750aa18b8a0f3f0590731e1fab934856680cf OP_EQUALVERIFY OP_CHECKSIG",
            "hex": "76a914aa3750aa18b8a0f3f0590731e1fab934856680cf88ac",
            "reqSigs": 1,
            "type": "pubkeyhash",
            "addresses": [
              "LajyQBeZaBA1NkZDeY8YT5RYYVRkXMvb2T"
            ]
          }
        }, 
        {
          "value": 0.00000000,
          "n": 1,
          "scriptPubKey": {
            "asm": "OP_RETURN aa21a9ed0c444687cba7361ed73dfea3ea99aa78997fc548ef6f8155a2852833a25a7ae1 0000000000000000",
            "hex": "6a24aa21a9ed0c444687cba7361ed73dfea3ea99aa78997fc548ef6f8155a2852833a25a7ae1080000000000000000",
            "type": "nulldata"
          }
        }
      ],
      "hex": "010000000001010000000000000000000000000000000000000000000000000000000000000000ffffffff640361c2142cfabe6d6d35a00a5032ecf83b677d306351829a227cd696f1d73068539c2a5476267bcfd108000000f09f909f0f4d696e65642062792061737374617200000000000000000000000000000000000000000000000000000000000000000000000300000002a6ce1195000000001976a914aa3750aa18b8a0f3f0590731e1fab934856680cf88ac00000000000000002f6a24aa21a9ed0c444687cba7361ed73dfea3ea99aa78997fc548ef6f8155a2852833a25a7ae10800000000000000000120000000000000000000000000000000000000000000000000000000000000000066ea9e38"
    }, 
    {
      "txid": "9a4ac9f5a2e9fa78afe66f447c580010f5ed0079a9885df4155c7fa8b1884922",
      "hash": "9a4ac9f5a2e9fa78afe66f447c580010f5ed0079a9885df4155c7fa8b1884922",
      "version": 1,
      "size": 192,
      "vsize": 192,
      "locktime": 0,
      "vin": [
        {
          "txid": "e9d3d2bc284c19d98b9909d9fb2589343005f9875ca2c34f5edcefc5c389c9aa",
          "vout": 0,
          "scriptSig": {
            "asm": "3045022100e760510154b8918f800b6690ca25fbd9a328e4c1b4d759871871c0e4f76dde39022019bedb88f54daa52c29ed590611374667cece8ba355a156e631d865e3523d578[ALL] 022e97da13eb2408ce380a2cb53a4716bc4d2be1503eee42560eb3734d9af38f29",
            "hex": "483045022100e760510154b8918f800b6690ca25fbd9a328e4c1b4d759871871c0e4f76dde39022019bedb88f54daa52c29ed590611374667cece8ba355a156e631d865e3523d5780121022e97da13eb2408ce380a2cb53a4716bc4d2be1503eee42560eb3734d9af38f29"
          },
          "sequence": 4294967295
        }
      ],
      "vout": [
        {
          "value": 2.31838641,
          "n": 0,
          "scriptPubKey": {
            "asm": "OP_DUP OP_HASH160 8212352719c3768b557d58d9ed56f5661ca7a1de OP_EQUALVERIFY OP_CHECKSIG",
            "hex": "76a9148212352719c3768b557d58d9ed56f5661ca7a1de88ac",
            "reqSigs": 1,
            "type": "pubkeyhash",
            "addresses": [
              "LX5hvEph2ESdadn5uUqm21XGxP83cVx8QQ"
            ]
          }
        }
      ],
      "hex": "0100000001aac989c3c5efdc5e4fc3a25c87f90530348925fbd909998bd9194c28bcd2d3e9000000006b483045022100e760510154b8918f800b6690ca25fbd9a328e4c1b4d759871871c0e4f76dde39022019bedb88f54daa52c29ed590611374667cece8ba355a156e631d865e3523d5780121022e97da13eb2408ce380a2cb53a4716bc4d2be1503eee42560eb3734d9af38f29ffffffff01b193d10d000000001976a9148212352719c3768b557d58d9ed56f5661ca7a1de88ac00000000"
    }, 
    {
      "txid": "0005f1d93695e362e835e2b085a6dd95bc15b52238219ec3302518733f0fe420",
      "hash": "0005f1d93695e362e835e2b085a6dd95bc15b52238219ec3302518733f0fe420",
      "version": 1,
      "size": 226,
      "vsize": 226,
      "locktime": 0,
      "vin": [
        {
          "txid": "51aa599cace3e80d3cb7d6c0cef257fbc208b4e1dc22e5da6b63ff28c8f8d6e2",
          "vout": 1,
          "scriptSig": {
            "asm": "30450221008ca88266d558c1478e33d15f626ca94307034978080334edc24cc1d730451abf02200c1e6da894b8eb5da853e6b0bfd8a4dc4d8c76591ff8a7721b10531df554ad46[ALL] 0328de4b88115606f923c5c66c038fcd7769379b6618555b551053a1a94fcfa64f",
            "hex": "4830450221008ca88266d558c1478e33d15f626ca94307034978080334edc24cc1d730451abf02200c1e6da894b8eb5da853e6b0bfd8a4dc4d8c76591ff8a7721b10531df554ad4601210328de4b88115606f923c5c66c038fcd7769379b6618555b551053a1a94fcfa64f"
          },
          "sequence": 4294967295
        }
      ],
      "vout": [
        {
          "value": 0.52856996,
          "n": 0,
          "scriptPubKey": {
            "asm": "OP_DUP OP_HASH160 5bea6e0f3347aea0f54be2155fb34aa78c109a67 OP_EQUALVERIFY OP_CHECKSIG",
            "hex": "76a9145bea6e0f3347aea0f54be2155fb34aa78c109a6788ac",
            "reqSigs": 1,
            "type": "pubkeyhash",
            "addresses": [
              "LTbxb9RCKcEcM6JuTi8ddBuhmup3oiUFBL"
            ]
          }
        }, 
        {
          "value": 4.51225527,
          "n": 1,
          "scriptPubKey": {
            "asm": "OP_DUP OP_HASH160 79ed8afdccaf439913222774dfd69a2d1a60629c OP_EQUALVERIFY OP_CHECKSIG",
            "hex": "76a91479ed8afdccaf439913222774dfd69a2d1a60629c88ac",
            "reqSigs": 1,
            "type": "pubkeyhash",
            "addresses": [
              "LWLebCNtQog12fiNmf5tNvTX5akXsfnQ8d"
            ]
          }
        }
      ],
      "hex": "0100000001e2d6f8c828ff636bdae522dce1b408c2fb57f2cec0d6b73c0de8e3ac9c59aa51010000006b4830450221008ca88266d558c1478e33d15f626ca94307034978080334edc24cc1d730451abf02200c1e6da894b8eb5da853e6b0bfd8a4dc4d8c76591ff8a7721b10531df554ad4601210328de4b88115606f923c5c66c038fcd7769379b6618555b551053a1a94fcfa64fffffffff02a4882603000000001976a9145bea6e0f3347aea0f54be2155fb34aa78c109a6788acb727e51a000000001976a91479ed8afdccaf439913222774dfd69a2d1a60629c88ac00000000"
    }, 
    {
      "txid": "7e96fe543c2facae424aa1b2c7c4eaf0e6dd71f130006e6360ad4cec75178617",
      "hash": "bc6230911e1991cec49e62a1a8b834731ec2aa4d2a132b9f01d4325747efc029",
      "version": 1,
      "size": 667,
      "vsize": 338,
      "locktime": 0,
      "vin": [
        {
          "txid": "3370562b5a65f57dc9075c40eb540a67b20384f09bd113b3269c3c54d5938e3f",
          "vout": 1,
          "scriptSig": {
            "asm": "0020ec20d454bf80f7a74edc91ff8a39ede41036dcd7468fd6b06ffe7f7c64ed1e7e",
            "hex": "220020ec20d454bf80f7a74edc91ff8a39ede41036dcd7468fd6b06ffe7f7c64ed1e7e"
          },
          "txinwitness": [
            "", 
            "304402204e047d4cbc057a03bbf63109eea48f91a4a284b9262cb46e1a75eb2df6273ee502205affbd4d95cedaf9ab93020b6aa23d8ecf97eca584e953aa656572f327fea59601", 
            "3044022046fa336bf88d4184caff0754dc56c63d138370a4a01062874ad86198bc08944b02203a48d964df69eea787ac17bdff83fcec6468eacc27a192b74168fda073c1a8a801", 
            "52210338273c699d64ed47773bce014bed5bac5d6eb99dbe3195750c40692c557b133121035601f3a2305646caace0c463b02eba89c2b789e281cef04109061d879d5bb51352ae"
          ],
          "sequence": 4294967295
        }, 
        {
          "txid": "1338e7ff68796f0a3074e6e52dc525d9a4a5ee237a1e64ca426f8c85d00fd487",
          "vout": 1,
          "scriptSig": {
            "asm": "00208ebb31fa7a2d2e598ac9a154d57b48818d9cfdb5040c6407721189fe1211ca01",
            "hex": "2200208ebb31fa7a2d2e598ac9a154d57b48818d9cfdb5040c6407721189fe1211ca01"
          },
          "txinwitness": [
            "", 
            "3045022100cfdb95faed52585a1035dc1f982a30ae5f0f953dee708d9911897a83af188d8502203dcc45e19a9cd0f2ca9376d9900d54e59b4f7698a91ff80a894c9e570a70cc7a01", 
            "304402204294fac11ee01646535c3a44215c33f2065319d4883dea3392237ae7916f26e902207e01e7fe8e5f0322b5006080170bf5fdb98c71e0bd67de4c390337a1630a2b8001", 
            "522103f935c144ebbdade45f4e97fd1232816c67d43c25f026bb4519ec34eb9e0d7bcd21035601f3a2305646caace0c463b02eba89c2b789e281cef04109061d879d5bb51352ae"
          ],
          "sequence": 4294967295
        }
      ],
      "vout": [
        {
          "value": 0.28455696,
          "n": 0,
          "scriptPubKey": {
            "asm": "OP_DUP OP_HASH160 bff950328cd1180cd0015b5d28e20e7d5aff2a40 OP_EQUALVERIFY OP_CHECKSIG",
            "hex": "76a914bff950328cd1180cd0015b5d28e20e7d5aff2a4088ac",
            "reqSigs": 1,
            "type": "pubkeyhash",
            "addresses": [
              "Lcj1zScVPE6ANc1L9exjPijb8dzBMVLBYd"
            ]
          }
        }, 
        {
          "value": 0.01809607,
          "n": 1,
          "scriptPubKey": {
            "asm": "OP_HASH160 c82fcd55d52886b83f968b0d3f7c79000a04c02a OP_EQUAL",
            "hex": "a914c82fcd55d52886b83f968b0d3f7c79000a04c02a87",
            "reqSigs": 1,
            "type": "scripthash",
            "addresses": [
              "MS9ee9HvZDhLBtLpDA4ExBoKeVdpFN8mDb"
            ]
          }
        }
      ],
      "hex": "010000000001023f8e93d5543c9c26b313d19bf08403b2670a54eb405c07c97df5655a2b5670330100000023220020ec20d454bf80f7a74edc91ff8a39ede41036dcd7468fd6b06ffe7f7c64ed1e7effffffff87d40fd0858c6f42ca641e7a23eea5a4d925c52de5e674300a6f7968ffe7381301000000232200208ebb31fa7a2d2e598ac9a154d57b48818d9cfdb5040c6407721189fe1211ca01ffffffff021033b201000000001976a914bff950328cd1180cd0015b5d28e20e7d5aff2a4088acc79c1b000000000017a914c82fcd55d52886b83f968b0d3f7c79000a04c02a87040047304402204e047d4cbc057a03bbf63109eea48f91a4a284b9262cb46e1a75eb2df6273ee502205affbd4d95cedaf9ab93020b6aa23d8ecf97eca584e953aa656572f327fea59601473044022046fa336bf88d4184caff0754dc56c63d138370a4a01062874ad86198bc08944b02203a48d964df69eea787ac17bdff83fcec6468eacc27a192b74168fda073c1a8a8014752210338273c699d64ed47773bce014bed5bac5d6eb99dbe3195750c40692c557b133121035601f3a2305646caace0c463b02eba89c2b789e281cef04109061d879d5bb51352ae0400483045022100cfdb95faed52585a1035dc1f982a30ae5f0f953dee708d9911897a83af188d8502203dcc45e19a9cd0f2ca9376d9900d54e59b4f7698a91ff80a894c9e570a70cc7a0147304402204294fac11ee01646535c3a44215c33f2065319d4883dea3392237ae7916f26e902207e01e7fe8e5f0322b5006080170bf5fdb98c71e0bd67de4c390337a1630a2b800147522103f935c144ebbdade45f4e97fd1232816c67d43c25f026bb4519ec34eb9e0d7bcd21035601f3a2305646caace0c463b02eba89c2b789e281cef04109061d879d5bb51352ae00000000"
    }, 
    {
      "txid": "7d13a9442ba1bb140db6e93ab93749f44715d9786ab20d34678948b6143c9d4c",
      "hash": "7d13a9442ba1bb140db6e93ab93749f44715d9786ab20d34678948b6143c9d4c",
      "version": 1,
      "size": 521,
      "vsize": 521,
      "locktime": 0,
      "vin": [
        {
          "txid": "b3c8da753d961fc45a013679b6f72078925307d5cdf32fc310c3298839f0c088",
          "vout": 8,
          "scriptSig": {
            "asm": "3045022100d727ce8e4709e61544415dee09da9e94923c60d38669333894441cee93ffb4f3022025ecaba2a80a138ec310cd91ee8d2eeda0280e004d432abbc94b52b97fc9dd89[ALL] 03c7b44c7d9e334c3fbd3850491df2ba6141526dc71461e48cb732b2dbd081d018",
            "hex": "483045022100d727ce8e4709e61544415dee09da9e94923c60d38669333894441cee93ffb4f3022025ecaba2a80a138ec310cd91ee8d2eeda0280e004d432abbc94b52b97fc9dd89012103c7b44c7d9e334c3fbd3850491df2ba6141526dc71461e48cb732b2dbd081d018"
          },
          "sequence": 4294967295
        }, 
        {
          "txid": "faec2754c41f0ac7c5c435d69c7458ce6bac44e8d7a43e1e0dca004e22af40c9",
          "vout": 45,
          "scriptSig": {
            "asm": "304402203fc1a0ac747e65c891cdcbaba467c7c432f3e7dfcb221bc71d9e2f9595609af10220657f8800055cbadcc3537035aa5e9db352960f9a6b3247109bd15ef367b42774[ALL] 03c7b44c7d9e334c3fbd3850491df2ba6141526dc71461e48cb732b2dbd081d018",
            "hex": "47304402203fc1a0ac747e65c891cdcbaba467c7c432f3e7dfcb221bc71d9e2f9595609af10220657f8800055cbadcc3537035aa5e9db352960f9a6b3247109bd15ef367b42774012103c7b44c7d9e334c3fbd3850491df2ba6141526dc71461e48cb732b2dbd081d018"
          },
          "sequence": 4294967295
        }, 
        {
          "txid": "6ad17d0cdba51034919ea94d345039713ed99ea5bdbbf401a6f7c6cedc78002d",
          "vout": 43,
          "scriptSig": {
            "asm": "30450221009f9c50eadbd467aa1adbba8bda9df0ad37cee4d029234333ca52c66af64d3cec0220497e06d160affa002a6ae790be15287122388208b0304044fdb36cb6e911c3c6[ALL] 03c7b44c7d9e334c3fbd3850491df2ba6141526dc71461e48cb732b2dbd081d018",
            "hex": "4830450221009f9c50eadbd467aa1adbba8bda9df0ad37cee4d029234333ca52c66af64d3cec0220497e06d160affa002a6ae790be15287122388208b0304044fdb36cb6e911c3c6012103c7b44c7d9e334c3fbd3850491df2ba6141526dc71461e48cb732b2dbd081d018"
          },
          "sequence": 4294967295
        }
      ],
      "vout": [
        {
          "value": 1.00000000,
          "n": 0,
          "scriptPubKey": {
            "asm": "OP_DUP OP_HASH160 c4eca753076b9fb3ec8c6fb2f20a7bb57dbda62a OP_EQUALVERIFY OP_CHECKSIG",
            "hex": "76a914c4eca753076b9fb3ec8c6fb2f20a7bb57dbda62a88ac",
            "reqSigs": 1,
            "type": "pubkeyhash",
            "addresses": [
              "LdBCCnwbrckEpUVRFQmT5yEuS6ByyDxEo9"
            ]
          }
        }, 
        {
          "value": 0.49900000,
          "n": 1,
          "scriptPubKey": {
            "asm": "OP_DUP OP_HASH160 c5d5b5dec5c57bbcacb998b0b4e53f92c58dd09c OP_EQUALVERIFY OP_CHECKSIG",
            "hex": "76a914c5d5b5dec5c57bbcacb998b0b4e53f92c58dd09c88ac",
            "reqSigs": 1,
            "type": "pubkeyhash",
            "addresses": [
              "LdG1Ps6tB3BJTUH74Ci2JA2H8vmd9NSro5"
            ]
          }
        }
      ],
      "hex": "010000000388c0f0398829c310c32ff3cdd50753927820f7b67936015ac41f963d75dac8b3080000006b483045022100d727ce8e4709e61544415dee09da9e94923c60d38669333894441cee93ffb4f3022025ecaba2a80a138ec310cd91ee8d2eeda0280e004d432abbc94b52b97fc9dd89012103c7b44c7d9e334c3fbd3850491df2ba6141526dc71461e48cb732b2dbd081d018ffffffffc940af224e00ca0d1e3ea4d7e844ac6bce58749cd635c4c5c70a1fc45427ecfa2d0000006a47304402203fc1a0ac747e65c891cdcbaba467c7c432f3e7dfcb221bc71d9e2f9595609af10220657f8800055cbadcc3537035aa5e9db352960f9a6b3247109bd15ef367b42774012103c7b44c7d9e334c3fbd3850491df2ba6141526dc71461e48cb732b2dbd081d018ffffffff2d0078dccec6f7a601f4bbbda59ed93e713950344da99e913410a5db0c7dd16a2b0000006b4830450221009f9c50eadbd467aa1adbba8bda9df0ad37cee4d029234333ca52c66af64d3cec0220497e06d160affa002a6ae790be15287122388208b0304044fdb36cb6e911c3c6012103c7b44c7d9e334c3fbd3850491df2ba6141526dc71461e48cb732b2dbd081d018ffffffff0200e1f505000000001976a914c4eca753076b9fb3ec8c6fb2f20a7bb57dbda62a88ace069f902000000001976a914c5d5b5dec5c57bbcacb998b0b4e53f92c58dd09c88ac00000000"
    }, 
    {
      "txid": "f0fb4a1e67611ffe8e2a8d465b0d233b518032f93a2bb812b831129f31a9da28",
      "hash": "f0fb4a1e67611ffe8e2a8d465b0d233b518032f93a2bb812b831129f31a9da28",
      "version": 1,
      "size": 1327,
      "vsize": 1327,
      "locktime": 0,
      "vin": [
        {
          "txid": "10bb5700bfe0707db206353d2f692f959e8c2a5c5f29af92625fad6cd7f19fcb",
          "vout": 0,
          "scriptSig": {
            "asm": "3045022100a987db79be65d85b2ca6d6fbc0b0ed80471e79b930acd013cec5f2068076be5f02201f01a90ebc57cc5bbd3337033af9a8158ecbd75695413cf3ac9f686603c9662e[ALL] 023b94e96dac222a4a4d57be47e138051c554418e91f0d43155cd6a8cdd803b37d",
            "hex": "483045022100a987db79be65d85b2ca6d6fbc0b0ed80471e79b930acd013cec5f2068076be5f02201f01a90ebc57cc5bbd3337033af9a8158ecbd75695413cf3ac9f686603c9662e0121023b94e96dac222a4a4d57be47e138051c554418e91f0d43155cd6a8cdd803b37d"
          },
          "sequence": 4294967295
        }, 
        {
          "txid": "cc1e5b3dca635fa03a8a1e38099c13d0e541ec66717f76c07f59e037a969f39f",
          "vout": 0,
          "scriptSig": {
            "asm": "30440220236d9891982de0eb960b5970f56bbc76623a82165058612ed62829542be83d3502203effb4aaecc58774bffe5ec968f38f7d45e0a94d6077f3f75f4ca00f8187f23b[ALL] 03a8dd7a10ab7c641d05bb1a47b066640353bd080f750b68708dc33ddfc2f4f6b8",
            "hex": "4730440220236d9891982de0eb960b5970f56bbc76623a82165058612ed62829542be83d3502203effb4aaecc58774bffe5ec968f38f7d45e0a94d6077f3f75f4ca00f8187f23b012103a8dd7a10ab7c641d05bb1a47b066640353bd080f750b68708dc33ddfc2f4f6b8"
          },
          "sequence": 4294967295
        }, 
        {
          "txid": "b563be9d1d06948d3d7c53fc3415c331fcb96a0d6395c5e2fadf01d8537acad6",
          "vout": 0,
          "scriptSig": {
            "asm": "3044022028ba47c64fd702b6e8185201f7626553d42f8e980edd783cd2880b4735b238110220250883f0ca896a5ba65f5bb6f4673f76326c2fb268d8aaa1032589019ea5054d[ALL] 02822ea27b3bed24076c0de869ffc5b68823234f436eed62863d876fb803d4fd26",
            "hex": "473044022028ba47c64fd702b6e8185201f7626553d42f8e980edd783cd2880b4735b238110220250883f0ca896a5ba65f5bb6f4673f76326c2fb268d8aaa1032589019ea5054d012102822ea27b3bed24076c0de869ffc5b68823234f436eed62863d876fb803d4fd26"
          },
          "sequence": 4294967295
        }, 
        {
          "txid": "8053073a0e05f9bdd8a47ff6012a19b36b5afccec44d2570c0a145fa38ff6652",
          "vout": 0,
          "scriptSig": {
            "asm": "3045022100b006bb0a04cf69789454708aeb37bc58b1fe4344f4126af90c593f733517f21f022057f7076e4f9331c04cc921418aa418ebfafa2c87b08206f7dd71b437dda77a34[ALL] 02e731e8c7d7ac354459fa802b359cd8b19bd60d52251fe210e2db595497064e50",
            "hex": "483045022100b006bb0a04cf69789454708aeb37bc58b1fe4344f4126af90c593f733517f21f022057f7076e4f9331c04cc921418aa418ebfafa2c87b08206f7dd71b437dda77a34012102e731e8c7d7ac354459fa802b359cd8b19bd60d52251fe210e2db595497064e50"
          },
          "sequence": 4294967295
        }, 
        {
          "txid": "8053073a0e05f9bdd8a47ff6012a19b36b5afccec44d2570c0a145fa38ff6652",
          "vout": 2,
          "scriptSig": {
            "asm": "3045022100f27944715b1986cbb8bf79f4b22d549fd79555a3fb0571f5d14e40dfa3bfc0cc022003e23c98770d0567184fa6712b34438432f2ff92f3522348c5e39be5f58c8796[ALL] 0378dbc01cb3291ff6de9742bb11d50dc5991d023d2231b973d55381084230e065",
            "hex": "483045022100f27944715b1986cbb8bf79f4b22d549fd79555a3fb0571f5d14e40dfa3bfc0cc022003e23c98770d0567184fa6712b34438432f2ff92f3522348c5e39be5f58c879601210378dbc01cb3291ff6de9742bb11d50dc5991d023d2231b973d55381084230e065"
          },
          "sequence": 4294967295
        }, 
        {
          "txid": "8053073a0e05f9bdd8a47ff6012a19b36b5afccec44d2570c0a145fa38ff6652",
          "vout": 1,
          "scriptSig": {
            "asm": "304402204f8b62dcac94b15c86ffe17a56e356141b77bc76431b861c314d1a0b318f092c022009d726a2af102218544d55c966b4b78272bf93764e58674f2f04efa4b92f3acb[ALL] 03eebd84a9cdf03b5ecb561613a1bf25ef4c87d9b3fcb84b039e8a723972154af0",
            "hex": "47304402204f8b62dcac94b15c86ffe17a56e356141b77bc76431b861c314d1a0b318f092c022009d726a2af102218544d55c966b4b78272bf93764e58674f2f04efa4b92f3acb012103eebd84a9cdf03b5ecb561613a1bf25ef4c87d9b3fcb84b039e8a723972154af0"
          },
          "sequence": 4294967295
        }, 
        {
          "txid": "81a4caccd55307f956a8a75dc7154c6555d04607ce33e4ea92bc67364de9d87d",
          "vout": 1,
          "scriptSig": {
            "asm": "30450221008931e0b854d6c15709b1975a49ff3781805e25eac28290cde2d066964eec170c0220440bab2a4ceee38457f96ac56627e93c666bdd6521b0238c2f02fb4a56f087b7[ALL] 0328c9ae635abf580c261c44815dc1aac309e16ff26250525b7e99951369d2b8c7",
            "hex": "4830450221008931e0b854d6c15709b1975a49ff3781805e25eac28290cde2d066964eec170c0220440bab2a4ceee38457f96ac56627e93c666bdd6521b0238c2f02fb4a56f087b701210328c9ae635abf580c261c44815dc1aac309e16ff26250525b7e99951369d2b8c7"
          },
          "sequence": 4294967295
        }, 
        {
          "txid": "3286634d3e81f3c0c2b0d40b8d532ae16443adec902835802ef6ce70c9951c2b",
          "vout": 0,
          "scriptSig": {
            "asm": "3045022100b1659bb673c71dc6363276c635d0a2448fb494a04c4d1f4af4342048918f7712022000d7cb22b77dcb7e71a377be6cc7fccdc2344f922b1f92d8a9ffaaa2f02770c5[ALL] 027211d6fe0c6667acc44b17f6f3b89ea9a27f54d6de5ef7a504982c13a0261ce5",
            "hex": "483045022100b1659bb673c71dc6363276c635d0a2448fb494a04c4d1f4af4342048918f7712022000d7cb22b77dcb7e71a377be6cc7fccdc2344f922b1f92d8a9ffaaa2f02770c50121027211d6fe0c6667acc44b17f6f3b89ea9a27f54d6de5ef7a504982c13a0261ce5"
          },
          "sequence": 4294967295
        }
      ],
      "vout": [
        {
          "value": 1.31801792,
          "n": 0,
          "scriptPubKey": {
            "asm": "OP_DUP OP_HASH160 85dedc558c8d93831489ad3c0499742c176a13e0 OP_EQUALVERIFY OP_CHECKSIG",
            "hex": "76a91485dedc558c8d93831489ad3c0499742c176a13e088ac",
            "reqSigs": 1,
            "type": "pubkeyhash",
            "addresses": [
              "LXRo7MiYpgaNUHC4NX4BhGRHmE5xCPq82k"
            ]
          }
        }, 
        {
          "value": 12.40256661,
          "n": 1,
          "scriptPubKey": {
            "asm": "OP_DUP OP_HASH160 9e4ed6ed52a8ec93d5eea1aa1f08a7fffda207d9 OP_EQUALVERIFY OP_CHECKSIG",
            "hex": "76a9149e4ed6ed52a8ec93d5eea1aa1f08a7fffda207d988ac",
            "reqSigs": 1,
            "type": "pubkeyhash",
            "addresses": [
              "LZf1UPctZoZnk5cYqpTuA2T5QGVYmRrihy"
            ]
          }
        }, 
        {
          "value": 13.89900000,
          "n": 2,
          "scriptPubKey": {
            "asm": "OP_DUP OP_HASH160 4bd78af131a3f8ff8957c221c9339c056dc8634f OP_EQUALVERIFY OP_CHECKSIG",
            "hex": "76a9144bd78af131a3f8ff8957c221c9339c056dc8634f88ac",
            "reqSigs": 1,
            "type": "pubkeyhash",
            "addresses": [
              "LS8y9mmLM5wKXQHHab1wgP9K8zHneFi7pa"
            ]
          }
        }, 
        {
          "value": 18.84789964,
          "n": 3,
          "scriptPubKey": {
            "asm": "OP_DUP OP_HASH160 c6e3836c2f4cd8f9c53e32813ded99ac0ce001f1 OP_EQUALVERIFY OP_CHECKSIG",
            "hex": "76a914c6e3836c2f4cd8f9c53e32813ded99ac0ce001f188ac",
            "reqSigs": 1,
            "type": "pubkeyhash",
            "addresses": [
              "LdMac6qdwFnBCVXN96dvoPjzbcE36gzs64"
            ]
          }
        }
      ],
      "hex": "0100000008cb9ff1d76cad5f6292af295f5c2a8c9e952f692f3d3506b27d70e0bf0057bb10000000006b483045022100a987db79be65d85b2ca6d6fbc0b0ed80471e79b930acd013cec5f2068076be5f02201f01a90ebc57cc5bbd3337033af9a8158ecbd75695413cf3ac9f686603c9662e0121023b94e96dac222a4a4d57be47e138051c554418e91f0d43155cd6a8cdd803b37dffffffff9ff369a937e0597fc0767f7166ec41e5d0139c09381e8a3aa05f63ca3d5b1ecc000000006a4730440220236d9891982de0eb960b5970f56bbc76623a82165058612ed62829542be83d3502203effb4aaecc58774bffe5ec968f38f7d45e0a94d6077f3f75f4ca00f8187f23b012103a8dd7a10ab7c641d05bb1a47b066640353bd080f750b68708dc33ddfc2f4f6b8ffffffffd6ca7a53d801dffae2c595630d6ab9fc31c31534fc537c3d8d94061d9dbe63b5000000006a473044022028ba47c64fd702b6e8185201f7626553d42f8e980edd783cd2880b4735b238110220250883f0ca896a5ba65f5bb6f4673f76326c2fb268d8aaa1032589019ea5054d012102822ea27b3bed24076c0de869ffc5b68823234f436eed62863d876fb803d4fd26ffffffff5266ff38fa45a1c070254dc4cefc5a6bb3192a01f67fa4d8bdf9050e3a075380000000006b483045022100b006bb0a04cf69789454708aeb37bc58b1fe4344f4126af90c593f733517f21f022057f7076e4f9331c04cc921418aa418ebfafa2c87b08206f7dd71b437dda77a34012102e731e8c7d7ac354459fa802b359cd8b19bd60d52251fe210e2db595497064e50ffffffff5266ff38fa45a1c070254dc4cefc5a6bb3192a01f67fa4d8bdf9050e3a075380020000006b483045022100f27944715b1986cbb8bf79f4b22d549fd79555a3fb0571f5d14e40dfa3bfc0cc022003e23c98770d0567184fa6712b34438432f2ff92f3522348c5e39be5f58c879601210378dbc01cb3291ff6de9742bb11d50dc5991d023d2231b973d55381084230e065ffffffff5266ff38fa45a1c070254dc4cefc5a6bb3192a01f67fa4d8bdf9050e3a075380010000006a47304402204f8b62dcac94b15c86ffe17a56e356141b77bc76431b861c314d1a0b318f092c022009d726a2af102218544d55c966b4b78272bf93764e58674f2f04efa4b92f3acb012103eebd84a9cdf03b5ecb561613a1bf25ef4c87d9b3fcb84b039e8a723972154af0ffffffff7dd8e94d3667bc92eae433ce0746d055654c15c75da7a856f90753d5cccaa481010000006b4830450221008931e0b854d6c15709b1975a49ff3781805e25eac28290cde2d066964eec170c0220440bab2a4ceee38457f96ac56627e93c666bdd6521b0238c2f02fb4a56f087b701210328c9ae635abf580c261c44815dc1aac309e16ff26250525b7e99951369d2b8c7ffffffff2b1c95c970cef62e80352890ecad4364e12a538d0bd4b0c2c0f3813e4d638632000000006b483045022100b1659bb673c71dc6363276c635d0a2448fb494a04c4d1f4af4342048918f7712022000d7cb22b77dcb7e71a377be6cc7fccdc2344f922b1f92d8a9ffaaa2f02770c50121027211d6fe0c6667acc44b17f6f3b89ea9a27f54d6de5ef7a504982c13a0261ce5ffffffff04c022db07000000001976a91485dedc558c8d93831489ad3c0499742c176a13e088ac95d0ec49000000001976a9149e4ed6ed52a8ec93d5eea1aa1f08a7fffda207d988ace030d852000000001976a9144bd78af131a3f8ff8957c221c9339c056dc8634f88accc9c5770000000001976a914c6e3836c2f4cd8f9c53e32813ded99ac0ce001f188ac00000000"
    }, 
    {
      "txid": "7a29956835a25b7af3984e0a22326c002da69f77a3d504d94ae40bad8ce8a67b",
      "hash": "7a29956835a25b7af3984e0a22326c002da69f77a3d504d94ae40bad8ce8a67b",
      "version": 1,
      "size": 225,
      "vsize": 225,
      "locktime": 0,
      "vin": [
        {
          "txid": "ca94207d6a9db8d19119f959300500d048f0e3c5abc53edc6a4a0c51c74755de",
          "vout": 13,
          "scriptSig": {
            "asm": "304402200e988a0f6c21a05a461c8aa6a292c9baf2466dcac07b10f64208e591eab4c1cc022055d96a325b31cda80a8cb1adea04096b6ca1c7e837fb990b94d2a4552f7d2318[ALL] 03a40c9d8a3ad092c58ed03d82bdb1a758ff8528d2f71fef8e062924ba698e3f66",
            "hex": "47304402200e988a0f6c21a05a461c8aa6a292c9baf2466dcac07b10f64208e591eab4c1cc022055d96a325b31cda80a8cb1adea04096b6ca1c7e837fb990b94d2a4552f7d2318012103a40c9d8a3ad092c58ed03d82bdb1a758ff8528d2f71fef8e062924ba698e3f66"
          },
          "sequence": 4294967295
        }
      ],
      "vout": [
        {
          "value": 0.91027225,
          "n": 0,
          "scriptPubKey": {
            "asm": "OP_DUP OP_HASH160 0d420e9b6ffaba3276500eadc104553f1d09da02 OP_EQUALVERIFY OP_CHECKSIG",
            "hex": "76a9140d420e9b6ffaba3276500eadc104553f1d09da0288ac",
            "reqSigs": 1,
            "type": "pubkeyhash",
            "addresses": [
              "LLS4BRzfVCFft1w9CB7XgdPHeYL7Hx2vvx"
            ]
          }
        }, 
        {
          "value": 1.99000000,
          "n": 1,
          "scriptPubKey": {
            "asm": "OP_DUP OP_HASH160 d14623155624ebac90ea991a6bf27ab7fc15198c OP_EQUALVERIFY OP_CHECKSIG",
            "hex": "76a914d14623155624ebac90ea991a6bf27ab7fc15198c88ac",
            "reqSigs": 1,
            "type": "pubkeyhash",
            "addresses": [
              "LeJVWWhTXMbuBKBxz8EAeSgKaNnVRWDW84"
            ]
          }
        }
      ],
      "hex": "0100000001de5547c7510c4a6adc3ec5abc5e3f048d000053059f91991d1b89d6a7d2094ca0d0000006a47304402200e988a0f6c21a05a461c8aa6a292c9baf2466dcac07b10f64208e591eab4c1cc022055d96a325b31cda80a8cb1adea04096b6ca1c7e837fb990b94d2a4552f7d2318012103a40c9d8a3ad092c58ed03d82bdb1a758ff8528d2f71fef8e062924ba698e3f66ffffffff0219f76c05000000001976a9140d420e9b6ffaba3276500eadc104553f1d09da0288acc07fdc0b000000001976a914d14623155624ebac90ea991a6bf27ab7fc15198c88ac00000000"
    }, 
    {
      "txid": "fda51b8af38dd7bd2c053e1254c78c06c7836241a34f91c6643bd4c0708f2c96",
      "hash": "fda51b8af38dd7bd2c053e1254c78c06c7836241a34f91c6643bd4c0708f2c96",
      "version": 2,
      "size": 225,
      "vsize": 225,
      "locktime": 1360479,
      "vin": [
        {
          "txid": "092b2150a18e42250ef46d29ae728236e45f12e8e00de8711a3a190a06047423",
          "vout": 0,
          "scriptSig": {
            "asm": "30440220740e10bf9b91640e0e65382674f336fffac43b81ea98274c81c0b6fca86f6a3d02203e5aeeb4b9d910adb5ba06d41caa6a17eaa173781222bdb672bbf28782bdd5d2[ALL] 02af646631fdfc71e71172571e202fc0aa648b1dd5a741840992540ddfd5c9c46e",
            "hex": "4730440220740e10bf9b91640e0e65382674f336fffac43b81ea98274c81c0b6fca86f6a3d02203e5aeeb4b9d910adb5ba06d41caa6a17eaa173781222bdb672bbf28782bdd5d2012102af646631fdfc71e71172571e202fc0aa648b1dd5a741840992540ddfd5c9c46e"
          },
          "sequence": 4294967294
        }
      ],
      "vout": [
        {
          "value": 0.03367400,
          "n": 0,
          "scriptPubKey": {
            "asm": "OP_DUP OP_HASH160 c4eedc9755535a065c4d3db48a61f7149e2a75f8 OP_EQUALVERIFY OP_CHECKSIG",
            "hex": "76a914c4eedc9755535a065c4d3db48a61f7149e2a75f888ac",
            "reqSigs": 1,
            "type": "pubkeyhash",
            "addresses": [
              "LdBErDHFqPhZ3FNqnsXYBM6aWkPYsunHRU"
            ]
          }
        }, 
        {
          "value": 0.00110000,
          "n": 1,
          "scriptPubKey": {
            "asm": "OP_DUP OP_HASH160 7214e07fb302b6ee240dbd2c84afd5e2fcf66693 OP_EQUALVERIFY OP_CHECKSIG",
            "hex": "76a9147214e07fb302b6ee240dbd2c84afd5e2fcf6669388ac",
            "reqSigs": 1,
            "type": "pubkeyhash",
            "addresses": [
              "LVdAJdvndP6WPuy92KhtMzFVL9pxWRch1U"
            ]
          }
        }
      ],
      "hex": "0200000001237404060a193a1a71e80de0e8125fe4368272ae296df40e25428ea150212b09000000006a4730440220740e10bf9b91640e0e65382674f336fffac43b81ea98274c81c0b6fca86f6a3d02203e5aeeb4b9d910adb5ba06d41caa6a17eaa173781222bdb672bbf28782bdd5d2012102af646631fdfc71e71172571e202fc0aa648b1dd5a741840992540ddfd5c9c46efeffffff02e8613300000000001976a914c4eedc9755535a065c4d3db48a61f7149e2a75f888acb0ad0100000000001976a9147214e07fb302b6ee240dbd2c84afd5e2fcf6669388ac5fc21400"
    }, 
    {
      "txid": "1569de10c46f7c371bbeafc5691bda64361db12b2b342f877acb929557f99fa2",
      "hash": "1569de10c46f7c371bbeafc5691bda64361db12b2b342f877acb929557f99fa2",
      "version": 1,
      "size": 373,
      "vsize": 373,
      "locktime": 0,
      "vin": [
        {
          "txid": "b6dc455eea49f66dad665b2b777e0b8357d112e8488fc0c439bb148e6494b724",
          "vout": 0,
          "scriptSig": {
            "asm": "304402207dc0c5528875e54e0e470576222325979a6e3a320abc11a8c47118237d2ddf5002203ae6794676e4c9b3e7964a5fcdbb7749ce0aa16890fe5105ec669ac9fd2f881c[ALL] 034bc447d6a867d4fe9f9be9ddaf670186ac6e6a6b9bacc6bc652e167017084778",
            "hex": "47304402207dc0c5528875e54e0e470576222325979a6e3a320abc11a8c47118237d2ddf5002203ae6794676e4c9b3e7964a5fcdbb7749ce0aa16890fe5105ec669ac9fd2f881c0121034bc447d6a867d4fe9f9be9ddaf670186ac6e6a6b9bacc6bc652e167017084778"
          },
          "sequence": 4294967295
        }, 
        {
          "txid": "852faee47db5416cf288c4a140092126558b38413d225c87f4f08827b115f474",
          "vout": 0,
          "scriptSig": {
            "asm": "30450221008ddf4825e09160c1a2f5fd43258c48e6ea064644b1f53ffe05d9aafca0711d1e02206cbe8c20f8422669187a546b27b0f9f1fea0b92b75c85ba3f27e849341364169[ALL] 034bc447d6a867d4fe9f9be9ddaf670186ac6e6a6b9bacc6bc652e167017084778",
            "hex": "4830450221008ddf4825e09160c1a2f5fd43258c48e6ea064644b1f53ffe05d9aafca0711d1e02206cbe8c20f8422669187a546b27b0f9f1fea0b92b75c85ba3f27e8493413641690121034bc447d6a867d4fe9f9be9ddaf670186ac6e6a6b9bacc6bc652e167017084778"
          },
          "sequence": 4294967295
        }
      ],
      "vout": [
        {
          "value": 0.00625100,
          "n": 0,
          "scriptPubKey": {
            "asm": "OP_DUP OP_HASH160 da5b4c0407c2025f58b8199faaf07c2abed7dab5 OP_EQUALVERIFY OP_CHECKSIG",
            "hex": "76a914da5b4c0407c2025f58b8199faaf07c2abed7dab588ac",
            "reqSigs": 1,
            "type": "pubkeyhash",
            "addresses": [
              "Lf8WwTJradFQgKVYLkbXF4v6wEptjYY7w1"
            ]
          }
        }, 
        {
          "value": 0.00191470,
          "n": 1,
          "scriptPubKey": {
            "asm": "OP_DUP OP_HASH160 3dae9585125e598549de6990b0a854ce19ec10ca OP_EQUALVERIFY OP_CHECKSIG",
            "hex": "76a9143dae9585125e598549de6990b0a854ce19ec10ca88ac",
            "reqSigs": 1,
            "type": "pubkeyhash",
            "addresses": [
              "LQr6dEB3FQy4qu4HRS5ezB6NBxZDQKenDG"
            ]
          }
        }
      ],
      "hex": "010000000224b794648e14bb39c4c08f48e812d157830b7e772b5b66ad6df649ea5e45dcb6000000006a47304402207dc0c5528875e54e0e470576222325979a6e3a320abc11a8c47118237d2ddf5002203ae6794676e4c9b3e7964a5fcdbb7749ce0aa16890fe5105ec669ac9fd2f881c0121034bc447d6a867d4fe9f9be9ddaf670186ac6e6a6b9bacc6bc652e167017084778ffffffff74f415b12788f0f4875c223d41388b5526210940a1c488f26c41b57de4ae2f85000000006b4830450221008ddf4825e09160c1a2f5fd43258c48e6ea064644b1f53ffe05d9aafca0711d1e02206cbe8c20f8422669187a546b27b0f9f1fea0b92b75c85ba3f27e8493413641690121034bc447d6a867d4fe9f9be9ddaf670186ac6e6a6b9bacc6bc652e167017084778ffffffff02cc890900000000001976a914da5b4c0407c2025f58b8199faaf07c2abed7dab588aceeeb0200000000001976a9143dae9585125e598549de6990b0a854ce19ec10ca88ac00000000"
    }, 
    {
      "txid": "9eb8f5ff5eaec6571cfdb6779c58d0cc3f590cd4acc11d5c994ee705f21c4c79",
      "hash": "9eb8f5ff5eaec6571cfdb6779c58d0cc3f590cd4acc11d5c994ee705f21c4c79",
      "version": 1,
      "size": 226,
      "vsize": 226,
      "locktime": 0,
      "vin": [
        {
          "txid": "af40beabfa3b69a99ca60821e6e2ff615b1609d0b201dff91eed13efd5334889",
          "vout": 1,
          "scriptSig": {
            "asm": "3045022100f5e8db23eabe424352903e9defb513350f3a8164ab88ced371675678fa3c7d7702200e012fd7451692a20c7b94c925fe5bf8956535f381ac45cbd2f00057fb2a8bf3[ALL] 0313176c4fecee2de66037d4978d832e9b0fa9484399a9324761285569136db650",
            "hex": "483045022100f5e8db23eabe424352903e9defb513350f3a8164ab88ced371675678fa3c7d7702200e012fd7451692a20c7b94c925fe5bf8956535f381ac45cbd2f00057fb2a8bf301210313176c4fecee2de66037d4978d832e9b0fa9484399a9324761285569136db650"
          },
          "sequence": 4294967295
        }
      ],
      "vout": [
        {
          "value": 0.00944355,
          "n": 0,
          "scriptPubKey": {
            "asm": "OP_DUP OP_HASH160 81bb6ad486f6e63021e48a194a72bd7e413de111 OP_EQUALVERIFY OP_CHECKSIG",
            "hex": "76a91481bb6ad486f6e63021e48a194a72bd7e413de11188ac",
            "reqSigs": 1,
            "type": "pubkeyhash",
            "addresses": [
              "LX3uwwaVeMbbtLKW1vrGTjYLYzovFHjrMv"
            ]
          }
        }, 
        {
          "value": 0.15634000,
          "n": 1,
          "scriptPubKey": {
            "asm": "OP_DUP OP_HASH160 76cce2fa46c29902ef43032f39914aae162ddfd8 OP_EQUALVERIFY OP_CHECKSIG",
            "hex": "76a91476cce2fa46c29902ef43032f39914aae162ddfd888ac",
            "reqSigs": 1,
            "type": "pubkeyhash",
            "addresses": [
              "LW47Sd1jKhPqnUxwn4RM34i9uoxLGtFwaL"
            ]
          }
        }
      ],
      "hex": "0100000001894833d5ef13ed1ef9df01b2d009165b61ffe2e62108a69ca9693bfaabbe40af010000006b483045022100f5e8db23eabe424352903e9defb513350f3a8164ab88ced371675678fa3c7d7702200e012fd7451692a20c7b94c925fe5bf8956535f381ac45cbd2f00057fb2a8bf301210313176c4fecee2de66037d4978d832e9b0fa9484399a9324761285569136db650ffffffff02e3680e00000000001976a91481bb6ad486f6e63021e48a194a72bd7e413de11188ac508eee00000000001976a91476cce2fa46c29902ef43032f39914aae162ddfd888ac00000000"
    }, 
    {
      "txid": "2265c44d0db0bf283a5659175f018e554144f4ee5613837517e56b0780c602a5",
      "hash": "2265c44d0db0bf283a5659175f018e554144f4ee5613837517e56b0780c602a5",
      "version": 1,
      "size": 226,
      "vsize": 226,
      "locktime": 0,
      "vin": [
        {
          "txid": "dc175b8af5a41c696c372eec390688292448073a6b658be90c03239d26b4ec28",
          "vout": 0,
          "scriptSig": {
            "asm": "304502210081a448fe547caa0e3d594cb9efc5c7e01202d083ca51107862ed3d87691b4f46022034716c2470f3bcd95ff5ee368c56e74e6dbf75f385da7859701bf2af947c906b[ALL] 02be01f7228f27b163bdd355777260c53f280bc4c33e053ae49b1d4fda3438255b",
            "hex": "48304502210081a448fe547caa0e3d594cb9efc5c7e01202d083ca51107862ed3d87691b4f46022034716c2470f3bcd95ff5ee368c56e74e6dbf75f385da7859701bf2af947c906b012102be01f7228f27b163bdd355777260c53f280bc4c33e053ae49b1d4fda3438255b"
          },
          "sequence": 4294967295
        }
      ],
      "vout": [
        {
          "value": 1.74774770,
          "n": 0,
          "scriptPubKey": {
            "asm": "OP_DUP OP_HASH160 e91aa865920ce2ef888d30d549ab437d7c3775a5 OP_EQUALVERIFY OP_CHECKSIG",
            "hex": "76a914e91aa865920ce2ef888d30d549ab437d7c3775a588ac",
            "reqSigs": 1,
            "type": "pubkeyhash",
            "addresses": [
              "LgUVe8FoLrH4TFwnnZcL4UBoMvvnN8Quwe"
            ]
          }
        }, 
        {
          "value": 1.19683011,
          "n": 1,
          "scriptPubKey": {
            "asm": "OP_DUP OP_HASH160 d3280ef68a64d05da8afa3ad66df33ffe7b454e2 OP_EQUALVERIFY OP_CHECKSIG",
            "hex": "76a914d3280ef68a64d05da8afa3ad66df33ffe7b454e288ac",
            "reqSigs": 1,
            "type": "pubkeyhash",
            "addresses": [
              "LeUSpzuCPq8hQj8tSmAtAkLc64xFkE1Tto"
            ]
          }
        }
      ],
      "hex": "010000000128ecb4269d23030ce98b656b3a07482429880639ec2e376c691ca4f58a5b17dc000000006b48304502210081a448fe547caa0e3d594cb9efc5c7e01202d083ca51107862ed3d87691b4f46022034716c2470f3bcd95ff5ee368c56e74e6dbf75f385da7859701bf2af947c906b012102be01f7228f27b163bdd355777260c53f280bc4c33e053ae49b1d4fda3438255bffffffff02f2d96a0a000000001976a914e91aa865920ce2ef888d30d549ab437d7c3775a588acc3372207000000001976a914d3280ef68a64d05da8afa3ad66df33ffe7b454e288ac00000000"
    }, 
    {
      "txid": "1c1df3e7b3dee88de24017a09027bc3ed35f5e7fec9dcd22a7c39616fa5f30c0",
      "hash": "1c1df3e7b3dee88de24017a09027bc3ed35f5e7fec9dcd22a7c39616fa5f30c0",
      "version": 1,
      "size": 226,
      "vsize": 226,
      "locktime": 0,
      "vin": [
        {
          "txid": "d9e5388480c3e108a4148641a5b30a0b721a8d2082c1eae8604a5f072948211e",
          "vout": 1,
          "scriptSig": {
            "asm": "3045022100e8f34855395c38c0deffabaa0de1b3c1bbd332bf17b7695cb2d0e4ca8b36dc0a02203473dfd6443dfb7915a8c0b778ec7ce943c575ee806c22721ba3cdc14a046d41[ALL] 030988cd844da76898f4edbd862ba1b6f31dc1e554da4f305ddbf236409014b9b2",
            "hex": "483045022100e8f34855395c38c0deffabaa0de1b3c1bbd332bf17b7695cb2d0e4ca8b36dc0a02203473dfd6443dfb7915a8c0b778ec7ce943c575ee806c22721ba3cdc14a046d410121030988cd844da76898f4edbd862ba1b6f31dc1e554da4f305ddbf236409014b9b2"
          },
          "sequence": 4294967295
        }
      ],
      "vout": [
        {
          "value": 0.01636949,
          "n": 0,
          "scriptPubKey": {
            "asm": "OP_DUP OP_HASH160 16333c735d083557d48ef7917ff22031c16e4acc OP_EQUALVERIFY OP_CHECKSIG",
            "hex": "76a91416333c735d083557d48ef7917ff22031c16e4acc88ac",
            "reqSigs": 1,
            "type": "pubkeyhash",
            "addresses": [
              "LMFLWP8ZKn2pjEgo7kfpKQ1enzFnwugGqf"
            ]
          }
        }, 
        {
          "value": 0.20227136,
          "n": 1,
          "scriptPubKey": {
            "asm": "OP_DUP OP_HASH160 692fced66f466ace33c18abe95d155e6743089f7 OP_EQUALVERIFY OP_CHECKSIG",
            "hex": "76a914692fced66f466ace33c18abe95d155e6743089f788ac",
            "reqSigs": 1,
            "type": "pubkeyhash",
            "addresses": [
              "LUp8V7MsPLZ2BW6gcxyLUxNeaFWsi1Rg5W"
            ]
          }
        }
      ],
      "hex": "01000000011e214829075f4a60e8eac182208d1a720b0ab3a5418614a408e1c3808438e5d9010000006b483045022100e8f34855395c38c0deffabaa0de1b3c1bbd332bf17b7695cb2d0e4ca8b36dc0a02203473dfd6443dfb7915a8c0b778ec7ce943c575ee806c22721ba3cdc14a046d410121030988cd844da76898f4edbd862ba1b6f31dc1e554da4f305ddbf236409014b9b2ffffffff0255fa1800000000001976a91416333c735d083557d48ef7917ff22031c16e4acc88ac40a43401000000001976a914692fced66f466ace33c18abe95d155e6743089f788ac00000000"
    }, 
    {
      "txid": "db160d0cc35d64c015ddfdd1df0ad727c4d753690c9c95351b0be5ba9f241ff3",
      "hash": "db160d0cc35d64c015ddfdd1df0ad727c4d753690c9c95351b0be5ba9f241ff3",
      "version": 1,
      "size": 226,
      "vsize": 226,
      "locktime": 0,
      "vin": [
        {
          "txid": "1f0e9f72aa21b18acfbc33d5951af800873cbf3dafa24843e130b7c794d4cdf3",
          "vout": 0,
          "scriptSig": {
            "asm": "3045022100e47c03cf699ddfbae86279aa33c740ad4276d639c9899bf7a34beb5071b4ba99022079c2b204f04c63784afb7177f06665c47b09ca10cff82cf71068fa8cd0a069d2[ALL] 02f6ad584ded12e2a78381da2257b7e0af6e4da45eafad9e98c83420a11d0c2ef9",
            "hex": "483045022100e47c03cf699ddfbae86279aa33c740ad4276d639c9899bf7a34beb5071b4ba99022079c2b204f04c63784afb7177f06665c47b09ca10cff82cf71068fa8cd0a069d2012102f6ad584ded12e2a78381da2257b7e0af6e4da45eafad9e98c83420a11d0c2ef9"
          },
          "sequence": 4294967295
        }
      ],
      "vout": [
        {
          "value": 1.59578274,
          "n": 0,
          "scriptPubKey": {
            "asm": "OP_DUP OP_HASH160 06348c46a29b7b56297185724c409d492ca1bd21 OP_EQUALVERIFY OP_CHECKSIG",
            "hex": "76a91406348c46a29b7b56297185724c409d492ca1bd2188ac",
            "reqSigs": 1,
            "type": "pubkeyhash",
            "addresses": [
              "LKnmGTcuGyAJ5LauyhjnREtrzYBwa3eLHa"
            ]
          }
        }, 
        {
          "value": 10.00000000,
          "n": 1,
          "scriptPubKey": {
            "asm": "OP_DUP OP_HASH160 253e2d50b731ce4a9adcd1df1765f8242d7635e6 OP_EQUALVERIFY OP_CHECKSIG",
            "hex": "76a914253e2d50b731ce4a9adcd1df1765f8242d7635e688ac",
            "reqSigs": 1,
            "type": "pubkeyhash",
            "addresses": [
              "LNcskSnLuSx8CxPGAeoB4R2gEvCosG2saK"
            ]
          }
        }
      ],
      "hex": "0100000001f3cdd494c7b730e14348a2af3dbf3c8700f81a95d533bccf8ab121aa729f0e1f000000006b483045022100e47c03cf699ddfbae86279aa33c740ad4276d639c9899bf7a34beb5071b4ba99022079c2b204f04c63784afb7177f06665c47b09ca10cff82cf71068fa8cd0a069d2012102f6ad584ded12e2a78381da2257b7e0af6e4da45eafad9e98c83420a11d0c2ef9ffffffff02a2f88209000000001976a91406348c46a29b7b56297185724c409d492ca1bd2188ac00ca9a3b000000001976a914253e2d50b731ce4a9adcd1df1765f8242d7635e688ac00000000"
    }
  ],
  "time": 1517436819,
  "mediantime": 1517436362,
  "nonce": 1482760989,
  "bits": "1a042eae",
  "difficulty": 4011378.762614286,
  "chainwork": "000000000000000000000000000000000000000000000034faa405df5517f4c4",
  "previousblockhash": "fce94d98c1b3f7d1322cce98e101a4a9f6ee3db15010103e0366714afa48f972",
  "nextblockhash": "c90cd2c552d0d367da63384036f4fe138161c2ff12a784b47db6ebd73b185521"
}
