{
  "hash": "3cbb69e0b3fe84ab09e532d8b20c6693fff3a9c7afe3d18e4695c5e35262eb7f",
  "confirmations": 950,
  "strippedsize": 234,
  "size": 234,
  "weight": 936,
  "height": 1360044,
  "version": 536870912,
  "versionHex": "20000000",
  "merkleroot": "73dfe03ab7e0c5d187e92ee9093afd77b544ffdfb8e132ac53740f89baadc6c0",
  "tx": [
    {
      "txid": "73dfe03ab7e0c5d187e92ee9093afd77b544ffdfb8e132ac53740f89baadc6c0",
      "hash": "73dfe03ab7e0c5d187e92ee9093afd77b544ffdfb8e132ac53740f89baadc6c0",
      "version": 1,
      "size": 153,
      "vsize": 153,
      "locktime": 0,
      "vin": [
        {
          "coinbase": "03acc014045a712f312cfabe6d6dc76a3f811232480982dde04e35736b42065c618ca2843f7528fd242ed2ccae6f4000000000000000042f4c502f08160072197d0e0000",
          "sequence": 4294967295
        }
      ],
      "vout": [
        {
          "value": 25.00000000,
          "n": 0,
          "scriptPubKey": {
            "asm": "OP_DUP OP_HASH160 57757ed2ecf2052ff3126c397aca7defb9ca2cec OP_EQUALVERIFY OP_CHECKSIG",
            "hex": "76a91457757ed2ecf2052ff3126c397aca7defb9ca2cec88ac",
            "reqSigs": 1,
            "type": "pubkeyhash",
            "addresses": [
              "LTCPodGk5FwcJaRzH9yKnwicxzFUbxp6tN"
            ]
          }
        }
      ],
      "hex": "01000000010000000000000000000000000000000000000000000000000000000000000000ffffffff4403acc014045a712f312cfabe6d6dc76a3f811232480982dde04e35736b42065c618ca2843f7528fd242ed2ccae6f4000000000000000042f4c502f08160072197d0e0000ffffffff0100f90295000000001976a91457757ed2ecf2052ff3126c397aca7defb9ca2cec88ac00000000"
    }
  ],
  "time": 1517367089,
  "mediantime": 1517366551,
  "nonce": 1969596497,
  "bits": "1a042eae",
  "difficulty": 4011378.762614286,
  "chainwork": "0000000000000000000000000000000000000000000000349227607b6c8499da",
  "previousblockhash": "aba1ea5aac9d964446f412c337e1f1efed73a903cbbdbafb4d95607c8156cfe5",
  "nextblockhash": "4085f4807ee9ebecfdf2b46ccd8c607df3be4c5dd4009fc1797c7c7762626559"
}
