{
  "hash": "3cc7a6096b04d245318caeac2a468864475978a8f7c3c45eae804b1901a0d79a",
  "confirmations": 2734,
  "strippedsize": 254,
  "size": 254,
  "weight": 1016,
  "height": 1358261,
  "version": 536870912,
  "versionHex": "20000000",
  "merkleroot": "b3cd77da1959176bf2bfea3f3356ce3a348bcb0bf0a1741ee78ad71b4b65a304",
  "tx": [
    {
      "txid": "b3cd77da1959176bf2bfea3f3356ce3a348bcb0bf0a1741ee78ad71b4b65a304",
      "hash": "b3cd77da1959176bf2bfea3f3356ce3a348bcb0bf0a1741ee78ad71b4b65a304",
      "version": 1,
      "size": 173,
      "vsize": 173,
      "locktime": 0,
      "vin": [
        {
          "coinbase": "03b5b9141b4d696e656420627920416e74506f6f6c20626a312045205a6d5acafabe6d6de57af79728536572130e0d73e7ebee8ac750c6caee740c60f0db5078ce1560d20400000000000000c83500000000000002000000",
          "sequence": 4294967295
        }
      ],
      "vout": [
        {
          "value": 25.00000000,
          "n": 0,
          "scriptPubKey": {
            "asm": "OP_DUP OP_HASH160 0ff3ccc5e8be88afe24b5d634e5852d474dbdff1 OP_EQUALVERIFY OP_CHECKSIG",
            "hex": "76a9140ff3ccc5e8be88afe24b5d634e5852d474dbdff188ac",
            "reqSigs": 1,
            "type": "pubkeyhash",
            "addresses": [
              "LLgJTbzZMsRTCUF1NtvvL9SR1a4pVieW89"
            ]
          }
        }
      ],
      "hex": "01000000010000000000000000000000000000000000000000000000000000000000000000ffffffff5803b5b9141b4d696e656420627920416e74506f6f6c20626a312045205a6d5acafabe6d6de57af79728536572130e0d73e7ebee8ac750c6caee740c60f0db5078ce1560d20400000000000000c83500000000000002000000ffffffff0100f90295000000001976a9140ff3ccc5e8be88afe24b5d634e5852d474dbdff188ac00000000"
    }
  ],
  "time": 1517116106,
  "mediantime": 1517115559,
  "nonce": 3025360845,
  "bits": "1a047f14",
  "difficulty": 3731199.183374282,
  "chainwork": "000000000000000000000000000000000000000000000032f08e2440cf86177c",
  "previousblockhash": "a3bfb98bc1d93773dc296aab33603bec71f892b823e43a189027c1e257b2dd37",
  "nextblockhash": "39b6cc0a3e231b52ece5f64a4e59a51df4aa5e816360e0312885737683f31821"
}
