{
  "hash": "3cfe9a7e80f827296380939f924635661ef1b78befee83dc093120d4819c3a2b",
  "confirmations": 1600,
  "strippedsize": 962,
  "size": 998,
  "weight": 3884,
  "height": 1359394,
  "version": 536870912,
  "versionHex": "20000000",
  "merkleroot": "edd65b561f976e9e51d9f33cddbd28a7b1a2361d81e79c8483c52b5118c61c91",
  "tx": [
    {
      "txid": "90428f577ddf0a813ceb7f462d1157cc1a98565b5c32450f81dd068b522a289a",
      "hash": "ba5b6ccfd0fd3b5d5c6859a932f17143871538e630b1ef37b64cc41b599b5dd7",
      "version": 1,
      "size": 244,
      "vsize": 217,
      "locktime": 0,
      "vin": [
        {
          "coinbase": "0322be1404edc96f5a080463fbb232000000fabe6d6dd87e141fc63c1313c4e022f3c2442e65587d5f5f1f79a20e8f43f68c21485af640000000000000000d2f6e6f64655374726174756d2f",
          "sequence": 0
        }
      ],
      "vout": [
        {
          "value": 25.00259700,
          "n": 0,
          "scriptPubKey": {
            "asm": "OP_DUP OP_HASH160 0c617fdb2ea42aed30a509595ee21ba3f6688db0 OP_EQUALVERIFY OP_CHECKSIG",
            "hex": "76a9140c617fdb2ea42aed30a509595ee21ba3f6688db088ac",
            "reqSigs": 1,
            "type": "pubkeyhash",
            "addresses": [
              "LLMRAtr3qBje2ySEa3CnZ55LA4TQMWnRY3"
            ]
          }
        }, 
        {
          "value": 0.00000000,
          "n": 1,
          "scriptPubKey": {
            "asm": "OP_RETURN aa21a9edaac3470aad93f8cf135156c9f6fe1b51b2c74d0c02eeccf062af26dcdd0b7036",
            "hex": "6a24aa21a9edaac3470aad93f8cf135156c9f6fe1b51b2c74d0c02eeccf062af26dcdd0b7036",
            "type": "nulldata"
          }
        }
      ],
      "hex": "010000000001010000000000000000000000000000000000000000000000000000000000000000ffffffff4c0322be1404edc96f5a080463fbb232000000fabe6d6dd87e141fc63c1313c4e022f3c2442e65587d5f5f1f79a20e8f43f68c21485af640000000000000000d2f6e6f64655374726174756d2f000000000274ef0695000000001976a9140c617fdb2ea42aed30a509595ee21ba3f6688db088ac0000000000000000266a24aa21a9edaac3470aad93f8cf135156c9f6fe1b51b2c74d0c02eeccf062af26dcdd0b70360120000000000000000000000000000000000000000000000000000000000000000000000000"
    }, 
    {
      "txid": "42f150fb00179242a5baee7603056006c5a18acd7c7790743451e4e21948982c",
      "hash": "42f150fb00179242a5baee7603056006c5a18acd7c7790743451e4e21948982c",
      "version": 1,
      "size": 225,
      "vsize": 225,
      "locktime": 0,
      "vin": [
        {
          "txid": "fffd2c2ee78416488a6037fcbf126ce0ba50e2793d9c775245ab3a7e44403cd9",
          "vout": 1,
          "scriptSig": {
            "asm": "3044022050f3963b3f54270bc42001d77c0fb6f887524508c7b4c6ac127d3b322247a57b0220290273fff48e678c8af33ab8adf2fba90729868b59dfe4e64f4bfa654c3da019[ALL] 03ad8bd2e99392835584fd5e398a880128908240aebc7fdf9d3791d4f89a03bc09",
            "hex": "473044022050f3963b3f54270bc42001d77c0fb6f887524508c7b4c6ac127d3b322247a57b0220290273fff48e678c8af33ab8adf2fba90729868b59dfe4e64f4bfa654c3da019012103ad8bd2e99392835584fd5e398a880128908240aebc7fdf9d3791d4f89a03bc09"
          },
          "sequence": 4294967295
        }
      ],
      "vout": [
        {
          "value": 0.23439604,
          "n": 0,
          "scriptPubKey": {
            "asm": "OP_DUP OP_HASH160 05b4f9f0226c2c5aec2dd3db1e1674813501a00e OP_EQUALVERIFY OP_CHECKSIG",
            "hex": "76a91405b4f9f0226c2c5aec2dd3db1e1674813501a00e88ac",
            "reqSigs": 1,
            "type": "pubkeyhash",
            "addresses": [
              "LKk8SdLfeMYpLdtrhfbq3mWc1wyWGYaASx"
            ]
          }
        }, 
        {
          "value": 0.65756257,
          "n": 1,
          "scriptPubKey": {
            "asm": "OP_DUP OP_HASH160 f0e0d801307a860de14225512f6fd63055c5ca40 OP_EQUALVERIFY OP_CHECKSIG",
            "hex": "76a914f0e0d801307a860de14225512f6fd63055c5ca4088ac",
            "reqSigs": 1,
            "type": "pubkeyhash",
            "addresses": [
              "LhBbnftBexRVtWAZsL6nT2uDd5xYvNSjzW"
            ]
          }
        }
      ],
      "hex": "0100000001d93c40447e3aab4552779c3d79e250bae06c12bffc37608a481684e72e2cfdff010000006a473044022050f3963b3f54270bc42001d77c0fb6f887524508c7b4c6ac127d3b322247a57b0220290273fff48e678c8af33ab8adf2fba90729868b59dfe4e64f4bfa654c3da019012103ad8bd2e99392835584fd5e398a880128908240aebc7fdf9d3791d4f89a03bc09ffffffff02f4a86501000000001976a91405b4f9f0226c2c5aec2dd3db1e1674813501a00e88ac615ceb03000000001976a914f0e0d801307a860de14225512f6fd63055c5ca4088ac00000000"
    }, 
    {
      "txid": "74fab93900f8a716b0f318233b6d160044c9458c01466d5e52e191f942c38206",
      "hash": "74fab93900f8a716b0f318233b6d160044c9458c01466d5e52e191f942c38206",
      "version": 1,
      "size": 223,
      "vsize": 223,
      "locktime": 0,
      "vin": [
        {
          "txid": "895472a1318ca241b4db1b150d6c069937260891c4f26c2265e017faff20ed67",
          "vout": 0,
          "scriptSig": {
            "asm": "304402206f8aadb1cb551382be815f7f13b6a1aacfb36f1f2696411785faeef675f40d6202200371685c87fbec69de50133d2a504fe07e05eb3fe7a1d421c971d0054e70a5d5[ALL] 031344e11de222144ed7e849575176060d22297aae7a2961e3e427fa7e3822025e",
            "hex": "47304402206f8aadb1cb551382be815f7f13b6a1aacfb36f1f2696411785faeef675f40d6202200371685c87fbec69de50133d2a504fe07e05eb3fe7a1d421c971d0054e70a5d50121031344e11de222144ed7e849575176060d22297aae7a2961e3e427fa7e3822025e"
          },
          "sequence": 4294967295
        }
      ],
      "vout": [
        {
          "value": 6.90000000,
          "n": 0,
          "scriptPubKey": {
            "asm": "OP_HASH160 dc2dca923f36f367f5db15a3f7adb6b7f26d05d8 OP_EQUAL",
            "hex": "a914dc2dca923f36f367f5db15a3f7adb6b7f26d05d887",
            "reqSigs": 1,
            "type": "scripthash",
            "addresses": [
              "MTyMkGV2ZkNJ3FD7oQXooEKPcWch1GFMre"
            ]
          }
        }, 
        {
          "value": 1.73401603,
          "n": 1,
          "scriptPubKey": {
            "asm": "OP_DUP OP_HASH160 80b7032d852dd284302af51519db6b672b4a5238 OP_EQUALVERIFY OP_CHECKSIG",
            "hex": "76a91480b7032d852dd284302af51519db6b672b4a523888ac",
            "reqSigs": 1,
            "type": "pubkeyhash",
            "addresses": [
              "LWxXzh8XmzdMDcejW6cRdit5VaqhuDUAJu"
            ]
          }
        }
      ],
      "hex": "010000000167ed20fffa17e065226cf2c49108263799066c0d151bdbb441a28c31a1725489000000006a47304402206f8aadb1cb551382be815f7f13b6a1aacfb36f1f2696411785faeef675f40d6202200371685c87fbec69de50133d2a504fe07e05eb3fe7a1d421c971d0054e70a5d50121031344e11de222144ed7e849575176060d22297aae7a2961e3e427fa7e3822025effffffff02809020290000000017a914dc2dca923f36f367f5db15a3f7adb6b7f26d05d88703e6550a000000001976a91480b7032d852dd284302af51519db6b672b4a523888ac00000000"
    }, 
    {
      "txid": "8663278997cee2190c4de1514905d250bc44bc95e01c0688542399e3de0de1b8",
      "hash": "8663278997cee2190c4de1514905d250bc44bc95e01c0688542399e3de0de1b8",
      "version": 1,
      "size": 225,
      "vsize": 225,
      "locktime": 0,
      "vin": [
        {
          "txid": "c307cf26a3f38ecdf5267c6869d6c8b67754c2b110cad78f7517172957089b58",
          "vout": 0,
          "scriptSig": {
            "asm": "3044022014cb7ccf65c0a805b16d8b0d07389a90004dd7e2b7f5c8b9a120230c915a5f60022076bb2e70dd8626ec36aa858c6ac03cc169ba9fff8369f524873fa19f6f02580a[ALL] 038ede6f28c492fe49355cc9599c5f777cb71ff5c3776070f62bc479f06cdcc50c",
            "hex": "473044022014cb7ccf65c0a805b16d8b0d07389a90004dd7e2b7f5c8b9a120230c915a5f60022076bb2e70dd8626ec36aa858c6ac03cc169ba9fff8369f524873fa19f6f02580a0121038ede6f28c492fe49355cc9599c5f777cb71ff5c3776070f62bc479f06cdcc50c"
          },
          "sequence": 4294967295
        }
      ],
      "vout": [
        {
          "value": 4.72343595,
          "n": 0,
          "scriptPubKey": {
            "asm": "OP_DUP OP_HASH160 9efc412bc7af954b40678786611affe36123424f OP_EQUALVERIFY OP_CHECKSIG",
            "hex": "76a9149efc412bc7af954b40678786611affe36123424f88ac",
            "reqSigs": 1,
            "type": "pubkeyhash",
            "addresses": [
              "LZibDUdvJ4APosfCGKR8ruGxkvqbHdBngy"
            ]
          }
        }, 
        {
          "value": 1.00148541,
          "n": 1,
          "scriptPubKey": {
            "asm": "OP_DUP OP_HASH160 c0d7f9cada6f11291ed7afd59c32262f92da399a OP_EQUALVERIFY OP_CHECKSIG",
            "hex": "76a914c0d7f9cada6f11291ed7afd59c32262f92da399a88ac",
            "reqSigs": 1,
            "type": "pubkeyhash",
            "addresses": [
              "LcocjJWhWqHt6W9WRiKFLETPYuAabeMAEo"
            ]
          }
        }
      ],
      "hex": "0100000001589b0857291717758fd7ca10b1c25477b6c8d669687c26f5cd8ef3a326cf07c3000000006a473044022014cb7ccf65c0a805b16d8b0d07389a90004dd7e2b7f5c8b9a120230c915a5f60022076bb2e70dd8626ec36aa858c6ac03cc169ba9fff8369f524873fa19f6f02580a0121038ede6f28c492fe49355cc9599c5f777cb71ff5c3776070f62bc479f06cdcc50cffffffff022b64271c000000001976a9149efc412bc7af954b40678786611affe36123424f88ac3d25f805000000001976a914c0d7f9cada6f11291ed7afd59c32262f92da399a88ac00000000"
    }
  ],
  "time": 1517275417,
  "mediantime": 1517275008,
  "nonce": 3164906810,
  "bits": "1a042eae",
  "difficulty": 4011378.762614286,
  "chainwork": "000000000000000000000000000000000000000000000033f6bd0fad68b235c6",
  "previousblockhash": "0959943e5b91dfce57876e6c3c35646d6e40c18a515f86d7f2f112059872fee5",
  "nextblockhash": "d5e1ef661bfbb97b22fa21f823b9700bc09f8dcc91134d75b8f8b6423e6f3419"
}
