{
  "hash": "3d60b2da75456e1c2d9c67caf3073d85c80c95c2af2b2c2ecbb05f23d8a69af0",
  "confirmations": 3030,
  "strippedsize": 843,
  "size": 989,
  "weight": 3518,
  "height": 1357965,
  "version": 536870912,
  "versionHex": "20000000",
  "merkleroot": "f7e8c435b48446954ad1fd2bff101aaa2c86fd589034932bfc778e7462f0161a",
  "tx": [
    {
      "txid": "f90277e9a36f5e86ecbd698e376ff68aacde6c0b622e0c9326429a96776121ea",
      "hash": "7c24cc31e45f6466ef9232b005676cb48da45ba4d8e05bba5713477f36f8f055",
      "version": 1,
      "size": 243,
      "vsize": 216,
      "locktime": 0,
      "vin": [
        {
          "coinbase": "038db814042eaa6c5afabe6d6d2dd53b11b8102322dcca78942b34296c9ad2dd7171b668e6ddbe078f3172ffa0100000000000000008480483992c0000000c2f39494858594951314e332f",
          "sequence": 0
        }
      ],
      "vout": [
        {
          "value": 25.00084500,
          "n": 0,
          "scriptPubKey": {
            "asm": "OP_DUP OP_HASH160 81308472f5a29a68cec40cbb4cd3f4be72094456 OP_EQUALVERIFY OP_CHECKSIG",
            "hex": "76a91481308472f5a29a68cec40cbb4cd3f4be7209445688ac",
            "reqSigs": 1,
            "type": "pubkeyhash",
            "addresses": [
              "LX13Z1HZKVzRDabi8CsPdGhp7YbC7Q8qtn"
            ]
          }
        }, 
        {
          "value": 0.00000000,
          "n": 1,
          "scriptPubKey": {
            "asm": "OP_RETURN aa21a9ed31a954b1fbacc2119d32c85b09acf2d6499b1fd871675592d77d9eabbbf6a9c9",
            "hex": "6a24aa21a9ed31a954b1fbacc2119d32c85b09acf2d6499b1fd871675592d77d9eabbbf6a9c9",
            "type": "nulldata"
          }
        }
      ],
      "hex": "010000000001010000000000000000000000000000000000000000000000000000000000000000ffffffff4b038db814042eaa6c5afabe6d6d2dd53b11b8102322dcca78942b34296c9ad2dd7171b668e6ddbe078f3172ffa0100000000000000008480483992c0000000c2f39494858594951314e332f000000000214430495000000001976a91481308472f5a29a68cec40cbb4cd3f4be7209445688ac0000000000000000266a24aa21a9ed31a954b1fbacc2119d32c85b09acf2d6499b1fd871675592d77d9eabbbf6a9c90120000000000000000000000000000000000000000000000000000000000000000000000000"
    }, 
    {
      "txid": "02cc1c71db8e932a8bcc8f8357f08136c6e4a539388fa5195ee5f8328c02c4cf",
      "hash": "02cc1c71db8e932a8bcc8f8357f08136c6e4a539388fa5195ee5f8328c02c4cf",
      "version": 1,
      "size": 224,
      "vsize": 224,
      "locktime": 1357962,
      "vin": [
        {
          "txid": "50a91d55e5cf4e0b713c3a0e25f20bef79236a18a141972329adb19af7e3d172",
          "vout": 0,
          "scriptSig": {
            "asm": "3045022100fed08fbfb7a742f582355ebf62091b55a439ed4b23bed6277766eb58b4f7d73302205891d0b7606a8ea66f3daebd8fa3baf1776fcc979113cbccccd2ffb61d5cb2eb[ALL] 0299e4cda55841015feefb3ef28dd8a99210fea4f9ce70d51c7b97a0f9e34fb961",
            "hex": "483045022100fed08fbfb7a742f582355ebf62091b55a439ed4b23bed6277766eb58b4f7d73302205891d0b7606a8ea66f3daebd8fa3baf1776fcc979113cbccccd2ffb61d5cb2eb01210299e4cda55841015feefb3ef28dd8a99210fea4f9ce70d51c7b97a0f9e34fb961"
          },
          "sequence": 4294967294
        }
      ],
      "vout": [
        {
          "value": 0.15000000,
          "n": 0,
          "scriptPubKey": {
            "asm": "OP_HASH160 88cb3a5621c2cad6f8fb874d98e89568ac350ecb OP_EQUAL",
            "hex": "a91488cb3a5621c2cad6f8fb874d98e89568ac350ecb87",
            "reqSigs": 1,
            "type": "scripthash",
            "addresses": [
              "MLNTb3FJnPyATQwwYnvCSUygPVgFwWez2N"
            ]
          }
        }, 
        {
          "value": 0.39955200,
          "n": 1,
          "scriptPubKey": {
            "asm": "OP_DUP OP_HASH160 9ec0a243f9010aa1d119ff533da5d745b5a284dd OP_EQUALVERIFY OP_CHECKSIG",
            "hex": "76a9149ec0a243f9010aa1d119ff533da5d745b5a284dd88ac",
            "reqSigs": 1,
            "type": "pubkeyhash",
            "addresses": [
              "LZhMnxSj9ScSCcmmWNyPTnqmXh1sEnDsSh"
            ]
          }
        }
      ],
      "hex": "010000000172d1e3f79ab1ad29239741a1186a2379ef0bf2250e3a3c710b4ecfe5551da950000000006b483045022100fed08fbfb7a742f582355ebf62091b55a439ed4b23bed6277766eb58b4f7d73302205891d0b7606a8ea66f3daebd8fa3baf1776fcc979113cbccccd2ffb61d5cb2eb01210299e4cda55841015feefb3ef28dd8a99210fea4f9ce70d51c7b97a0f9e34fb961feffffff02c0e1e4000000000017a91488cb3a5621c2cad6f8fb874d98e89568ac350ecb8700ab6102000000001976a9149ec0a243f9010aa1d119ff533da5d745b5a284dd88ac8ab81400"
    }, 
    {
      "txid": "45643ad93ef0723e110aa5a5e3ff281f9a0952d9933875a28120eb099cd8144d",
      "hash": "45643ad93ef0723e110aa5a5e3ff281f9a0952d9933875a28120eb099cd8144d",
      "version": 1,
      "size": 191,
      "vsize": 191,
      "locktime": 0,
      "vin": [
        {
          "txid": "447e562229135b9b8f046dcceafe298e94e05b89cc8702438c8d94f3610fee88",
          "vout": 1,
          "scriptSig": {
            "asm": "304402202c45fac33f3a34390dc48a85fc52c6ec76b8383073c1fe1acfeb2770c502cc5b022008847485fedb3cac395cfe5b99e04f6c5f84b4fbb900dcee2db81e3feff30689[ALL] 02cb7b477c719aa7d1f9727a1daa910d2b7b93e0f879d984e4f4d49a4dd66ca69b",
            "hex": "47304402202c45fac33f3a34390dc48a85fc52c6ec76b8383073c1fe1acfeb2770c502cc5b022008847485fedb3cac395cfe5b99e04f6c5f84b4fbb900dcee2db81e3feff30689012102cb7b477c719aa7d1f9727a1daa910d2b7b93e0f879d984e4f4d49a4dd66ca69b"
          },
          "sequence": 4294967295
        }
      ],
      "vout": [
        {
          "value": 0.48717500,
          "n": 0,
          "scriptPubKey": {
            "asm": "OP_DUP OP_HASH160 5ea326b13565e748e54397a0cffb936f546724c9 OP_EQUALVERIFY OP_CHECKSIG",
            "hex": "76a9145ea326b13565e748e54397a0cffb936f546724c988ac",
            "reqSigs": 1,
            "type": "pubkeyhash",
            "addresses": [
              "LTrMEBgyw3Wp4KhxzFsyyGGUDEmqZ94Usu"
            ]
          }
        }
      ],
      "hex": "010000000188ee0f61f3948d8c430287cc895be0948e29feeacc6d048f9b5b132922567e44010000006a47304402202c45fac33f3a34390dc48a85fc52c6ec76b8383073c1fe1acfeb2770c502cc5b022008847485fedb3cac395cfe5b99e04f6c5f84b4fbb900dcee2db81e3feff30689012102cb7b477c719aa7d1f9727a1daa910d2b7b93e0f879d984e4f4d49a4dd66ca69bffffffff01bc5ee702000000001976a9145ea326b13565e748e54397a0cffb936f546724c988ac00000000"
    }, 
    {
      "txid": "0022273074665529df72b2343c52ce291d2752f53e24b0f41482c289fec778c5",
      "hash": "542eb9b9c47c38b9fbcacbdb2b3f706ce453c44437c248079b31ca77bc490a3e",
      "version": 1,
      "size": 250,
      "vsize": 168,
      "locktime": 0,
      "vin": [
        {
          "txid": "5231e4cf701746d8b254e89fddc5e2f4b09f1632e034f68deef9d31c1b8fda98",
          "vout": 9,
          "scriptSig": {
            "asm": "001450dbaa94b3fe34a0b1f99f992b7239abbc66bd27",
            "hex": "16001450dbaa94b3fe34a0b1f99f992b7239abbc66bd27"
          },
          "txinwitness": [
            "3045022100d924c02503280cb6a916e0aaedce71fc0f16a0b90f14d991e0b259672517c7fc02201ca5c27833d3f16f1ed6b2fd78c1d7b50ab09319ede5a57f678b39f73b1fb0ab01", 
            "0329e002a6ed78ed85b7ce4323a03aedf9cb76a6ff6df0054fe3c37183755291a1"
          ],
          "sequence": 4294967295
        }
      ],
      "vout": [
        {
          "value": 2.00000000,
          "n": 0,
          "scriptPubKey": {
            "asm": "OP_DUP OP_HASH160 f9bf3327c24ba3241ef98e9e4ec61427852f1339 OP_EQUALVERIFY OP_CHECKSIG",
            "hex": "76a914f9bf3327c24ba3241ef98e9e4ec61427852f133988ac",
            "reqSigs": 1,
            "type": "pubkeyhash",
            "addresses": [
              "LhzVZmwDywHJ1q76u6ZatmDRjkji7gHnck"
            ]
          }
        }, 
        {
          "value": 15.28145367,
          "n": 1,
          "scriptPubKey": {
            "asm": "OP_HASH160 79c4d59ec4e71451bc73618374d0d896ebc74b63 OP_EQUAL",
            "hex": "a91479c4d59ec4e71451bc73618374d0d896ebc74b6387",
            "reqSigs": 1,
            "type": "scripthash",
            "addresses": [
              "MK11nwS1Z7toTvfsGL3ijnJKZPpJxzHd6C"
            ]
          }
        }
      ],
      "hex": "0100000000010198da8f1b1cd3f9ee8df634e032169fb0f4e2c5dd9fe854b2d8461770cfe43152090000001716001450dbaa94b3fe34a0b1f99f992b7239abbc66bd27ffffffff0200c2eb0b000000001976a914f9bf3327c24ba3241ef98e9e4ec61427852f133988acd7a5155b0000000017a91479c4d59ec4e71451bc73618374d0d896ebc74b638702483045022100d924c02503280cb6a916e0aaedce71fc0f16a0b90f14d991e0b259672517c7fc02201ca5c27833d3f16f1ed6b2fd78c1d7b50ab09319ede5a57f678b39f73b1fb0ab01210329e002a6ed78ed85b7ce4323a03aedf9cb76a6ff6df0054fe3c37183755291a100000000"
    }
  ],
  "time": 1517070842,
  "mediantime": 1517070525,
  "nonce": 4236823625,
  "bits": "1a047f14",
  "difficulty": 3731199.183374282,
  "chainwork": "000000000000000000000000000000000000000000000032aeb98b5def44996c",
  "previousblockhash": "99e7c1fb6f07d4dc04de12e500b066bd5f304b28e361155dd51be4c80ccfe91c",
  "nextblockhash": "abda4f7d660af9b01c0c7a020a924e5459560a2a7d003b05a927c64e1f5964e4"
}
