{
  "hash": "3db46c744382ea7a14dbd980702de6fe179e98ae954b33c59fc4f72f2620f222",
  "confirmations": 3199,
  "strippedsize": 253,
  "size": 253,
  "weight": 1012,
  "height": 1357796,
  "version": 536870912,
  "versionHex": "20000000",
  "merkleroot": "7ffc71bd37d94cb2cffc3bc3b4c05b571b37343b621fb25cbe8193c3fa87d4b2",
  "tx": [
    {
      "txid": "7ffc71bd37d94cb2cffc3bc3b4c05b571b37343b621fb25cbe8193c3fa87d4b2",
      "hash": "7ffc71bd37d94cb2cffc3bc3b4c05b571b37343b621fb25cbe8193c3fa87d4b2",
      "version": 1,
      "size": 172,
      "vsize": 172,
      "locktime": 0,
      "vin": [
        {
          "coinbase": "03e4b7141a4d696e656420627920416e74506f6f6c20626a3532205a6c5537fabe6d6d3a4c76ca473af6815d62b1242fd0d8a1ecb98842081462f8a03e71f21862151704000000000000009f1100000000000002000000",
          "sequence": 4294967295
        }
      ],
      "vout": [
        {
          "value": 25.00000000,
          "n": 0,
          "scriptPubKey": {
            "asm": "OP_DUP OP_HASH160 0ff3ccc5e8be88afe24b5d634e5852d474dbdff1 OP_EQUALVERIFY OP_CHECKSIG",
            "hex": "76a9140ff3ccc5e8be88afe24b5d634e5852d474dbdff188ac",
            "reqSigs": 1,
            "type": "pubkeyhash",
            "addresses": [
              "LLgJTbzZMsRTCUF1NtvvL9SR1a4pVieW89"
            ]
          }
        }
      ],
      "hex": "01000000010000000000000000000000000000000000000000000000000000000000000000ffffffff5703e4b7141a4d696e656420627920416e74506f6f6c20626a3532205a6c5537fabe6d6d3a4c76ca473af6815d62b1242fd0d8a1ecb98842081462f8a03e71f21862151704000000000000009f1100000000000002000000ffffffff0100f90295000000001976a9140ff3ccc5e8be88afe24b5d634e5852d474dbdff188ac00000000"
    }
  ],
  "time": 1517049143,
  "mediantime": 1517048512,
  "nonce": 529313746,
  "bits": "1a047f14",
  "difficulty": 3731199.183374282,
  "chainwork": "00000000000000000000000000000000000000000000003289239f5205b76c42",
  "previousblockhash": "fa95a47d337e469434e0e2d0f67e6be61ad0687a4768e375e65cc64f4e7862ed",
  "nextblockhash": "362e17890f29c404ae4ea356d45358c7bf64a97c0d0b7b53a9b889833fbffdfa"
}
