{
  "hash": "3df5bc71c422514b939cdec53f4d3b6cf46a4d32e0050182b1d40547a72c13dc",
  "confirmations": 175,
  "strippedsize": 253,
  "size": 253,
  "weight": 1012,
  "height": 1360819,
  "version": 536870912,
  "versionHex": "20000000",
  "merkleroot": "977ad33d6259226eeb6e3e83b630dc9b650ae6a841f6e63e8d116b9e75688506",
  "tx": [
    {
      "txid": "977ad33d6259226eeb6e3e83b630dc9b650ae6a841f6e63e8d116b9e75688506",
      "hash": "977ad33d6259226eeb6e3e83b630dc9b650ae6a841f6e63e8d116b9e75688506",
      "version": 1,
      "size": 172,
      "vsize": 172,
      "locktime": 0,
      "vin": [
        {
          "coinbase": "03b3c3141a4d696e656420627920416e74506f6f6c20626a3242205a72ff53fabe6d6d17ff2a0a84d179bffde43bd7e2d602ec6e66ef2869d3a92d065ab6ffdb90c5220400000000000000a0160000000000001f000000",
          "sequence": 4294967295
        }
      ],
      "vout": [
        {
          "value": 25.00000000,
          "n": 0,
          "scriptPubKey": {
            "asm": "OP_DUP OP_HASH160 0ff3ccc5e8be88afe24b5d634e5852d474dbdff1 OP_EQUALVERIFY OP_CHECKSIG",
            "hex": "76a9140ff3ccc5e8be88afe24b5d634e5852d474dbdff188ac",
            "reqSigs": 1,
            "type": "pubkeyhash",
            "addresses": [
              "LLgJTbzZMsRTCUF1NtvvL9SR1a4pVieW89"
            ]
          }
        }
      ],
      "hex": "01000000010000000000000000000000000000000000000000000000000000000000000000ffffffff5703b3c3141a4d696e656420627920416e74506f6f6c20626a3242205a72ff53fabe6d6d17ff2a0a84d179bffde43bd7e2d602ec6e66ef2869d3a92d065ab6ffdb90c5220400000000000000a0160000000000001f000000ffffffff0100f90295000000001976a9140ff3ccc5e8be88afe24b5d634e5852d474dbdff188ac00000000"
    }
  ],
  "time": 1517485907,
  "mediantime": 1517484952,
  "nonce": 1366558342,
  "bits": "1a04088e",
  "difficulty": 4159490.835685156,
  "chainwork": "0000000000000000000000000000000000000000000000354ba21ba4a479df80",
  "previousblockhash": "081baad0a663fcee25af28fd758a54fcbd1a1ed10e3eda39584333d23f754f17",
  "nextblockhash": "aa2375ec910a1b3221c0115497d78f7a89fcb5f53d7f6a0acb975ea00a9e6475"
}
