{
  "hash": "3e20307855ff30cfea57a228ad6b9f96ce1fcbb0e3c4692460b26439f756ddb8",
  "confirmations": 3215,
  "strippedsize": 4795,
  "size": 4831,
  "weight": 19216,
  "height": 1357780,
  "version": 536870912,
  "versionHex": "20000000",
  "merkleroot": "f7ff3e36e5379c1e151ec670e183c85c6269b88cf862406fb61afc5ba03b8739",
  "tx": [
    {
      "txid": "b64514c0cec8d9c34c56350ce8d600300b801a447fbdf173ec24a1dc085fe030",
      "hash": "949b54fa7e7c1176d6ecdeccd509f953babb6a172b941d8d3fd78356b241be71",
      "version": 1,
      "size": 253,
      "vsize": 226,
      "locktime": 0,
      "vin": [
        {
          "coinbase": "03d4b71441d69b1346e0f74c41d69b13467137902f4c54432e544f502ffabe6d6d94b210b130dbcec8390c2e0bafc9c3e6d820fa30ce5bd3ff8e9c03beee4afdc70100000000000000152e7bbc1100000000000000",
          "sequence": 4294967295
        }
      ],
      "vout": [
        {
          "value": 25.00725600,
          "n": 0,
          "scriptPubKey": {
            "asm": "OP_DUP OP_HASH160 0c617fdb2ea42aed30a509595ee21ba3f6688db0 OP_EQUALVERIFY OP_CHECKSIG",
            "hex": "76a9140c617fdb2ea42aed30a509595ee21ba3f6688db088ac",
            "reqSigs": 1,
            "type": "pubkeyhash",
            "addresses": [
              "LLMRAtr3qBje2ySEa3CnZ55LA4TQMWnRY3"
            ]
          }
        }, 
        {
          "value": 0.00000000,
          "n": 1,
          "scriptPubKey": {
            "asm": "OP_RETURN aa21a9ed420ce33ee4332d9cb9dd45d4bbc91597753f73c32fa078163b15577d475bf9db",
            "hex": "6a24aa21a9ed420ce33ee4332d9cb9dd45d4bbc91597753f73c32fa078163b15577d475bf9db",
            "type": "nulldata"
          }
        }
      ],
      "hex": "010000000001010000000000000000000000000000000000000000000000000000000000000000ffffffff5503d4b71441d69b1346e0f74c41d69b13467137902f4c54432e544f502ffabe6d6d94b210b130dbcec8390c2e0bafc9c3e6d820fa30ce5bd3ff8e9c03beee4afdc70100000000000000152e7bbc1100000000000000ffffffff02600b0e95000000001976a9140c617fdb2ea42aed30a509595ee21ba3f6688db088ac0000000000000000266a24aa21a9ed420ce33ee4332d9cb9dd45d4bbc91597753f73c32fa078163b15577d475bf9db0120000000000000000000000000000000000000000000000000000000000000000000000000"
    }, 
    {
      "txid": "8aa6ce6a9912874e929094393a17973dfe4f3a58120b5074ff485dda7db9c346",
      "hash": "8aa6ce6a9912874e929094393a17973dfe4f3a58120b5074ff485dda7db9c346",
      "version": 1,
      "size": 259,
      "vsize": 259,
      "locktime": 0,
      "vin": [
        {
          "txid": "f6b804351c326f9a67940f292a1af3a95d29fc390947daa15527893cd51b88e3",
          "vout": 1,
          "scriptSig": {
            "asm": "304402206f29c4bd9a8472f403a0bba3e76ce9dda56d839b46a425b716a7d43261d292ea022012d9d3f4eb8669c8d7fbb5b9f127d8db5e7ab210ed9ceab317d51e04c431b456[ALL] 021f43833a45b684efc73001797165d51da1d1cbeaa02c4684fa547575fe980d7b",
            "hex": "47304402206f29c4bd9a8472f403a0bba3e76ce9dda56d839b46a425b716a7d43261d292ea022012d9d3f4eb8669c8d7fbb5b9f127d8db5e7ab210ed9ceab317d51e04c431b4560121021f43833a45b684efc73001797165d51da1d1cbeaa02c4684fa547575fe980d7b"
          },
          "sequence": 4294967295
        }
      ],
      "vout": [
        {
          "value": 1.49300600,
          "n": 0,
          "scriptPubKey": {
            "asm": "OP_DUP OP_HASH160 afd60f58852327949f97ccff3ba2b3b92713ce3c OP_EQUALVERIFY OP_CHECKSIG",
            "hex": "76a914afd60f58852327949f97ccff3ba2b3b92713ce3c88ac",
            "reqSigs": 1,
            "type": "pubkeyhash",
            "addresses": [
              "LbFgwvqUshREAg9TbFHjr1ghWkj8N2VpEA"
            ]
          }
        }, 
        {
          "value": 0.29900000,
          "n": 1,
          "scriptPubKey": {
            "asm": "OP_DUP OP_HASH160 a577e7f1c7dfb61121dad0d64af9db305df5f143 OP_EQUALVERIFY OP_CHECKSIG",
            "hex": "76a914a577e7f1c7dfb61121dad0d64af9db305df5f14388ac",
            "reqSigs": 1,
            "type": "pubkeyhash",
            "addresses": [
              "LaJsQ5izFTo42jLZM7Fdx7LE45qik9eSaf"
            ]
          }
        }, 
        {
          "value": 3.20586400,
          "n": 2,
          "scriptPubKey": {
            "asm": "OP_DUP OP_HASH160 075cad4e91fd6974adbef810b2862811a5abffb6 OP_EQUALVERIFY OP_CHECKSIG",
            "hex": "76a914075cad4e91fd6974adbef810b2862811a5abffb688ac",
            "reqSigs": 1,
            "type": "pubkeyhash",
            "addresses": [
              "LKtt1s973D78HmTwHpL2qns4Tfa3qRC6qj"
            ]
          }
        }
      ],
      "hex": "0100000001e3881bd53c892755a1da470939fc295da9f31a2a290f94679a6f321c3504b8f6010000006a47304402206f29c4bd9a8472f403a0bba3e76ce9dda56d839b46a425b716a7d43261d292ea022012d9d3f4eb8669c8d7fbb5b9f127d8db5e7ab210ed9ceab317d51e04c431b4560121021f43833a45b684efc73001797165d51da1d1cbeaa02c4684fa547575fe980d7bffffffff037825e608000000001976a914afd60f58852327949f97ccff3ba2b3b92713ce3c88ace03cc801000000001976a914a577e7f1c7dfb61121dad0d64af9db305df5f14388aca0c21b13000000001976a914075cad4e91fd6974adbef810b2862811a5abffb688ac00000000"
    }, 
    {
      "txid": "81a8d9cf030f9f1484aaface52688e57d83d439942ce10be81736d15616ab6ee",
      "hash": "81a8d9cf030f9f1484aaface52688e57d83d439942ce10be81736d15616ab6ee",
      "version": 2,
      "size": 519,
      "vsize": 519,
      "locktime": 1357778,
      "vin": [
        {
          "txid": "4cc72d2ccedfe0910bd3aa893d55bd4e4c906c47f985b3cd4411ae4c07b41f79",
          "vout": 0,
          "scriptSig": {
            "asm": "30440220421c0973d0a5a88923853843eb6fba73495f1660ca0b6dfc0998b20869005ed802205272a2100c448ac413be77bee8736c2aaa0c7e041d9937896f72cc9daa167205[ALL] 038a9718e7e7c41064bdf711c82c56f8ae7f9cff383b79779731b996091043ca62",
            "hex": "4730440220421c0973d0a5a88923853843eb6fba73495f1660ca0b6dfc0998b20869005ed802205272a2100c448ac413be77bee8736c2aaa0c7e041d9937896f72cc9daa1672050121038a9718e7e7c41064bdf711c82c56f8ae7f9cff383b79779731b996091043ca62"
          },
          "sequence": 4294967294
        }, 
        {
          "txid": "06f2998a7390b45ff0c078eedb3cc437d9248544ce1023679bb06c5a092a3cfe",
          "vout": 0,
          "scriptSig": {
            "asm": "304502210089f8c82c0b00e27adb0e6a7ec3bc17e9d87948583d1888a12efe885f60cbb4f7022043db346569f423a28bb2e9424d41d26fc297f9120b2e5b18de87694312f606fb[ALL] 02883b5d130ab3968466c645b5907e5c82e902244736ed8357ad0ab2bbead6b8ec",
            "hex": "48304502210089f8c82c0b00e27adb0e6a7ec3bc17e9d87948583d1888a12efe885f60cbb4f7022043db346569f423a28bb2e9424d41d26fc297f9120b2e5b18de87694312f606fb012102883b5d130ab3968466c645b5907e5c82e902244736ed8357ad0ab2bbead6b8ec"
          },
          "sequence": 4294967294
        }, 
        {
          "txid": "62925bc555dd8f8f1ea5a302445f6197e6bed32869e4618493bc074f43ff7749",
          "vout": 1,
          "scriptSig": {
            "asm": "3043021f495809610abf09b2b3d307e3f0f65c0354cd9a43456eafcfe01748c23bb21b022025ff3246c037e450ec153a86fcf1e7ea0a2a040f78e83321162643b61df8a881[ALL] 027af9803d447bf71da953dee49c0b817243b29dc01d2cda8718730fefa0636e5f",
            "hex": "463043021f495809610abf09b2b3d307e3f0f65c0354cd9a43456eafcfe01748c23bb21b022025ff3246c037e450ec153a86fcf1e7ea0a2a040f78e83321162643b61df8a8810121027af9803d447bf71da953dee49c0b817243b29dc01d2cda8718730fefa0636e5f"
          },
          "sequence": 4294967294
        }
      ],
      "vout": [
        {
          "value": 0.01348673,
          "n": 0,
          "scriptPubKey": {
            "asm": "OP_DUP OP_HASH160 3565537031e8f4d63f8e1594ace2b1ad9b9a1787 OP_EQUALVERIFY OP_CHECKSIG",
            "hex": "76a9143565537031e8f4d63f8e1594ace2b1ad9b9a178788ac",
            "reqSigs": 1,
            "type": "pubkeyhash",
            "addresses": [
              "LQ6HTdSbXkF1tBwDwCk6xRBGpjssYv6RfA"
            ]
          }
        }, 
        {
          "value": 0.82000000,
          "n": 1,
          "scriptPubKey": {
            "asm": "OP_DUP OP_HASH160 363a126e906375bef67162af698eb5648d145b45 OP_EQUALVERIFY OP_CHECKSIG",
            "hex": "76a914363a126e906375bef67162af698eb5648d145b4588ac",
            "reqSigs": 1,
            "type": "pubkeyhash",
            "addresses": [
              "LQAgKV6CxqqXP8wm5QxZ1CfCCkA7djcfxY"
            ]
          }
        }
      ],
      "hex": "0200000003791fb4074cae1144cdb385f9476c904c4ebd553d89aad30b91e0dfce2c2dc74c000000006a4730440220421c0973d0a5a88923853843eb6fba73495f1660ca0b6dfc0998b20869005ed802205272a2100c448ac413be77bee8736c2aaa0c7e041d9937896f72cc9daa1672050121038a9718e7e7c41064bdf711c82c56f8ae7f9cff383b79779731b996091043ca62fefffffffe3c2a095a6cb09b672310ce448524d937c43cdbee78c0f05fb490738a99f206000000006b48304502210089f8c82c0b00e27adb0e6a7ec3bc17e9d87948583d1888a12efe885f60cbb4f7022043db346569f423a28bb2e9424d41d26fc297f9120b2e5b18de87694312f606fb012102883b5d130ab3968466c645b5907e5c82e902244736ed8357ad0ab2bbead6b8ecfeffffff4977ff434f07bc938461e46928d3bee697615f4402a3a51e8f8fdd55c55b92620100000069463043021f495809610abf09b2b3d307e3f0f65c0354cd9a43456eafcfe01748c23bb21b022025ff3246c037e450ec153a86fcf1e7ea0a2a040f78e83321162643b61df8a8810121027af9803d447bf71da953dee49c0b817243b29dc01d2cda8718730fefa0636e5ffeffffff0241941400000000001976a9143565537031e8f4d63f8e1594ace2b1ad9b9a178788ac8038e304000000001976a914363a126e906375bef67162af698eb5648d145b4588acd2b71400"
    }, 
    {
      "txid": "5980de372ac47e221d3a339c9d6f79a8724a90271acb5164f01aaa9f6437247e",
      "hash": "5980de372ac47e221d3a339c9d6f79a8724a90271acb5164f01aaa9f6437247e",
      "version": 2,
      "size": 2142,
      "vsize": 2142,
      "locktime": 1357778,
      "vin": [
        {
          "txid": "19edadfff3ada63b941c2d394f461054a4f73eb79e9f2d9b24b19752bd4c9282",
          "vout": 1,
          "scriptSig": {
            "asm": "3045022100f322c250bad4186292cbed1eb4788a409a7963800714600906fb8587f8acaa1a022031f5b05e1bf1d1def819a298066f20c2adbcde427545e2744c08098656ee1a99[ALL] 022ca52732a5894a81f680adfbabf8a4d4537443ada81114fb563741f3ab0f72a9",
            "hex": "483045022100f322c250bad4186292cbed1eb4788a409a7963800714600906fb8587f8acaa1a022031f5b05e1bf1d1def819a298066f20c2adbcde427545e2744c08098656ee1a990121022ca52732a5894a81f680adfbabf8a4d4537443ada81114fb563741f3ab0f72a9"
          },
          "sequence": 4294967294
        }, 
        {
          "txid": "7f6ce1653755d1c57244cecd06740a6e7bc45633173d125d14a92dbdcb0d931e",
          "vout": 0,
          "scriptSig": {
            "asm": "3044022069adabf1a0be1ed2e7dec9c181a95b5f6d564acc03e8c0881a157ee897e175ba0220783fad1ce5259fd04d48fa0ee4bef31cb51e120c8e905c43bbbf5b7543efa3e0[ALL] 030e879a2fa564405a521e8d845cf01ac16ffb002318416f5d5841c0a1d3094600",
            "hex": "473044022069adabf1a0be1ed2e7dec9c181a95b5f6d564acc03e8c0881a157ee897e175ba0220783fad1ce5259fd04d48fa0ee4bef31cb51e120c8e905c43bbbf5b7543efa3e00121030e879a2fa564405a521e8d845cf01ac16ffb002318416f5d5841c0a1d3094600"
          },
          "sequence": 4294967294
        }, 
        {
          "txid": "bcbbde453b2cbd6caa035cfb3ba64578bf940fd9a85b5c1a5bb2887fdd554fa4",
          "vout": 1,
          "scriptSig": {
            "asm": "3045022100e29be92a535cbaba76db5c9674781d351b85d177eb34cbac76e23a57f9afe9a402205e94c6449343608362a4436a844b33a400acfe5ecc1b5badd762ddbc9d2a8522[ALL] 03aa1c84bd1e84b901a6b2aa3f2a1185d3df1d6a8c11ec48868f9d66ea9cdc151e",
            "hex": "483045022100e29be92a535cbaba76db5c9674781d351b85d177eb34cbac76e23a57f9afe9a402205e94c6449343608362a4436a844b33a400acfe5ecc1b5badd762ddbc9d2a8522012103aa1c84bd1e84b901a6b2aa3f2a1185d3df1d6a8c11ec48868f9d66ea9cdc151e"
          },
          "sequence": 4294967294
        }, 
        {
          "txid": "625c0890f627b789737bb422c6f8049a6177d66827a46c3847d07421d64a4a5d",
          "vout": 157,
          "scriptSig": {
            "asm": "30450221009baab134da5b22d087804895e25cb9b9176c88884b460c22a8608335feeafb5302206d991b57d9b748b8f657facb26e00f2425c2f41eeb3feed7bb4343d8952b6b3a[ALL] 0299dc2b925c1beeebd2da56d0698e630d3c6696930d6bb9ea300b61b80665b02a",
            "hex": "4830450221009baab134da5b22d087804895e25cb9b9176c88884b460c22a8608335feeafb5302206d991b57d9b748b8f657facb26e00f2425c2f41eeb3feed7bb4343d8952b6b3a01210299dc2b925c1beeebd2da56d0698e630d3c6696930d6bb9ea300b61b80665b02a"
          },
          "sequence": 4294967294
        }, 
        {
          "txid": "2b407895425228a590c1a0d85bd776ddb60477d1d0ce6a9a9bd8e3232c528f74",
          "vout": 1,
          "scriptSig": {
            "asm": "3044022000d6811b50eecebbddca34660e39d4fdfb2293e580ffb0a658552d83f95153100220171e0ea8b8c6503a7b39e24962d6c0fff92eea718b62cc28a2af5d289fc7bd96[ALL] 03f568bd1f2a637ce340ba7538f8fb2cfc8bf76877041e619c33452ffe8fd664d3",
            "hex": "473044022000d6811b50eecebbddca34660e39d4fdfb2293e580ffb0a658552d83f95153100220171e0ea8b8c6503a7b39e24962d6c0fff92eea718b62cc28a2af5d289fc7bd96012103f568bd1f2a637ce340ba7538f8fb2cfc8bf76877041e619c33452ffe8fd664d3"
          },
          "sequence": 4294967294
        }, 
        {
          "txid": "e6469d43295ab747252f844e7721aace1a0f95abcb460eacf04bb2be38faff4f",
          "vout": 1,
          "scriptSig": {
            "asm": "3044022052342b5a44f6866eb0ea42170e8f71bc1a6cf289530b98088b6c897b09b8715002201afff5db1381439a25f00e8cde91b449ee0896476aafa65a396d5c099912e0e0[ALL] 03d24090a7833860856a30c16069d854c56dfd4021e4c4217b7f2df39711748dc5",
            "hex": "473044022052342b5a44f6866eb0ea42170e8f71bc1a6cf289530b98088b6c897b09b8715002201afff5db1381439a25f00e8cde91b449ee0896476aafa65a396d5c099912e0e0012103d24090a7833860856a30c16069d854c56dfd4021e4c4217b7f2df39711748dc5"
          },
          "sequence": 4294967294
        }, 
        {
          "txid": "c0a412b445d25604fc5ec6468e501919d4b8df89a1ee3c36b525bdddf854daf2",
          "vout": 53,
          "scriptSig": {
            "asm": "3045022100922efd2b80a4cbfc4d4147bc54ee76029aea5abd1742eb97ad51ccc57b74ac0d02200301d007b5145eef1b6e69b34b3ca5691575177587d1b11b9b74e49cce8dc6da[ALL] 0311e35f60d8891b1888a49a1b250b35437c67feceb2d32874622925e60094ced0",
            "hex": "483045022100922efd2b80a4cbfc4d4147bc54ee76029aea5abd1742eb97ad51ccc57b74ac0d02200301d007b5145eef1b6e69b34b3ca5691575177587d1b11b9b74e49cce8dc6da01210311e35f60d8891b1888a49a1b250b35437c67feceb2d32874622925e60094ced0"
          },
          "sequence": 4294967294
        }, 
        {
          "txid": "c0a412b445d25604fc5ec6468e501919d4b8df89a1ee3c36b525bdddf854daf2",
          "vout": 123,
          "scriptSig": {
            "asm": "3045022100a832602a157e9312a3d163cb25f7533a254e288041baad8c69a6cfc0ecbec958022062c5124898e04c618ff638c75e44ff41e46c2943a7853a6c5b3185c4ae5c9078[ALL] 026fe3e900b5404e87c82b5fc5c08bca4e2800555b32d1d21fdb46b363e624a4b1",
            "hex": "483045022100a832602a157e9312a3d163cb25f7533a254e288041baad8c69a6cfc0ecbec958022062c5124898e04c618ff638c75e44ff41e46c2943a7853a6c5b3185c4ae5c90780121026fe3e900b5404e87c82b5fc5c08bca4e2800555b32d1d21fdb46b363e624a4b1"
          },
          "sequence": 4294967294
        }, 
        {
          "txid": "fdd8fc577e94fb250ac9c5609d72bf35349960c4229da1d9790149d403350966",
          "vout": 108,
          "scriptSig": {
            "asm": "3045022100983f5cd29a636d7b846471ba1befd7f7a13a114041582a7f087c380443499f600220497ca535750ba600a5eba5a6953e43a450527d325edd6fe268042e87932c9a9c[ALL] 027eedf85f74c6278a43288e04ec995ef8e6800aa7b40d816e399cd877eeb3d43c",
            "hex": "483045022100983f5cd29a636d7b846471ba1befd7f7a13a114041582a7f087c380443499f600220497ca535750ba600a5eba5a6953e43a450527d325edd6fe268042e87932c9a9c0121027eedf85f74c6278a43288e04ec995ef8e6800aa7b40d816e399cd877eeb3d43c"
          },
          "sequence": 4294967294
        }, 
        {
          "txid": "00d1f84a83dcece92b3bdb4dce3c430a207272a80b8fbd578792bf409fee1433",
          "vout": 402,
          "scriptSig": {
            "asm": "304402201df43a7fdb94d141c4b9199f5dea8269fbc262a652847926e9f8dbf93aba204002203924bf6690c2f6ff123b5387041e17a35f3558db29a61e2aa369a68ead4a0734[ALL] 0304d30161335a128ff94fc1f86e727065f7254b2ad6570be23c2a22659709ea4e",
            "hex": "47304402201df43a7fdb94d141c4b9199f5dea8269fbc262a652847926e9f8dbf93aba204002203924bf6690c2f6ff123b5387041e17a35f3558db29a61e2aa369a68ead4a073401210304d30161335a128ff94fc1f86e727065f7254b2ad6570be23c2a22659709ea4e"
          },
          "sequence": 4294967294
        }, 
        {
          "txid": "9fcd4b4a31448dcf23b0beba6aad31626c26cab59c83be1e9202b302ca65f29b",
          "vout": 227,
          "scriptSig": {
            "asm": "304402204895ecb723796acbea9504044698414e9a9429698c19b8b9aa5fee66e36c435e022068d232c12fb8e615632665854e38a2ee0b1d50223c873d6ed25c0c6b3d529865[ALL] 035315d0d92aedf392b57e55307548e2cb726c39847b020f7984c8fcc5d878ba22",
            "hex": "47304402204895ecb723796acbea9504044698414e9a9429698c19b8b9aa5fee66e36c435e022068d232c12fb8e615632665854e38a2ee0b1d50223c873d6ed25c0c6b3d5298650121035315d0d92aedf392b57e55307548e2cb726c39847b020f7984c8fcc5d878ba22"
          },
          "sequence": 4294967294
        }, 
        {
          "txid": "9802f009e01b6b2a89a2d87acf624744427f416b065cee5f3233414fe0fab519",
          "vout": 0,
          "scriptSig": {
            "asm": "3044022063a624565da362904da3895ecd1d66699bdc044d745f5c3513106cff8f4bf998022039a4f4606ad96051c13b73109d43d79431554aa30a03d9a66a35a78bf6b892e7[ALL] 02bda2e894ffe44b4aaa7ab7d07c1cec3beceb30601769c783aeb781f74ab029d8",
            "hex": "473044022063a624565da362904da3895ecd1d66699bdc044d745f5c3513106cff8f4bf998022039a4f4606ad96051c13b73109d43d79431554aa30a03d9a66a35a78bf6b892e7012102bda2e894ffe44b4aaa7ab7d07c1cec3beceb30601769c783aeb781f74ab029d8"
          },
          "sequence": 4294967294
        }, 
        {
          "txid": "8fb8b9121a08a94564641c15b70a2856f35520f1daf6ea727921a013c5cd673f",
          "vout": 0,
          "scriptSig": {
            "asm": "30440220075bcfa2f9f97b9376524a30e725b27e58965db8ccd3347b9c655fe554b36042022071561149e10d3b80f87a85551c0b8a13488bca6cefddbcaa7ea8f801cb02dccc[ALL] 02130cc73641f38c4b8f2669d7f565a5b153d1925e403c662fb5dc6b54bb79a266",
            "hex": "4730440220075bcfa2f9f97b9376524a30e725b27e58965db8ccd3347b9c655fe554b36042022071561149e10d3b80f87a85551c0b8a13488bca6cefddbcaa7ea8f801cb02dccc012102130cc73641f38c4b8f2669d7f565a5b153d1925e403c662fb5dc6b54bb79a266"
          },
          "sequence": 4294967294
        }, 
        {
          "txid": "b9e3383c19e63515fa30a2c536a626c18c0a05ac92223e8e08db55e9c2304a81",
          "vout": 1,
          "scriptSig": {
            "asm": "304402206c1957de3c9d40a285cfa777c0e0d85178846a6496a2cd0e4983cd00f573da3e02205f75cbf876f8a606e37fb891685099cb6396cbea7ae07af4dc10a6d71ba82c5c[ALL] 02559d531e1cd2208b5ab3993a0ace5fcc2a8f222d4c8ae4714893426094569e0e",
            "hex": "47304402206c1957de3c9d40a285cfa777c0e0d85178846a6496a2cd0e4983cd00f573da3e02205f75cbf876f8a606e37fb891685099cb6396cbea7ae07af4dc10a6d71ba82c5c012102559d531e1cd2208b5ab3993a0ace5fcc2a8f222d4c8ae4714893426094569e0e"
          },
          "sequence": 4294967294
        }
      ],
      "vout": [
        {
          "value": 5.00000000,
          "n": 0,
          "scriptPubKey": {
            "asm": "OP_DUP OP_HASH160 f465de4c80474265ae7accbce59cdb57ea30d0a3 OP_EQUALVERIFY OP_CHECKSIG",
            "hex": "76a914f465de4c80474265ae7accbce59cdb57ea30d0a388ac",
            "reqSigs": 1,
            "type": "pubkeyhash",
            "addresses": [
              "LhWDAxTeJNUtErHKdXfw18tfTVmmF4fsrk"
            ]
          }
        }, 
        {
          "value": 0.00750495,
          "n": 1,
          "scriptPubKey": {
            "asm": "OP_DUP OP_HASH160 a71ecb6e9ffecbf34bb70222bbce9d794b6d055a OP_EQUALVERIFY OP_CHECKSIG",
            "hex": "76a914a71ecb6e9ffecbf34bb70222bbce9d794b6d055a88ac",
            "reqSigs": 1,
            "type": "pubkeyhash",
            "addresses": [
              "LaTbzu6LaFaR26d4DUprxXH1i99D7YgPMK"
            ]
          }
        }
      ],
      "hex": "020000000e82924cbd5297b1249b2d9f9eb73ef7a45410464f392d1c943ba6adf3ffaded19010000006b483045022100f322c250bad4186292cbed1eb4788a409a7963800714600906fb8587f8acaa1a022031f5b05e1bf1d1def819a298066f20c2adbcde427545e2744c08098656ee1a990121022ca52732a5894a81f680adfbabf8a4d4537443ada81114fb563741f3ab0f72a9feffffff1e930dcbbd2da9145d123d173356c47b6e0a7406cdce4472c5d1553765e16c7f000000006a473044022069adabf1a0be1ed2e7dec9c181a95b5f6d564acc03e8c0881a157ee897e175ba0220783fad1ce5259fd04d48fa0ee4bef31cb51e120c8e905c43bbbf5b7543efa3e00121030e879a2fa564405a521e8d845cf01ac16ffb002318416f5d5841c0a1d3094600feffffffa44f55dd7f88b25b1a5c5ba8d90f94bf7845a63bfb5c03aa6cbd2c3b45debbbc010000006b483045022100e29be92a535cbaba76db5c9674781d351b85d177eb34cbac76e23a57f9afe9a402205e94c6449343608362a4436a844b33a400acfe5ecc1b5badd762ddbc9d2a8522012103aa1c84bd1e84b901a6b2aa3f2a1185d3df1d6a8c11ec48868f9d66ea9cdc151efeffffff5d4a4ad62174d047386ca42768d677619a04f8c622b47b7389b727f690085c629d0000006b4830450221009baab134da5b22d087804895e25cb9b9176c88884b460c22a8608335feeafb5302206d991b57d9b748b8f657facb26e00f2425c2f41eeb3feed7bb4343d8952b6b3a01210299dc2b925c1beeebd2da56d0698e630d3c6696930d6bb9ea300b61b80665b02afeffffff748f522c23e3d89b9a6aced0d17704b6dd76d75bd8a0c190a52852429578402b010000006a473044022000d6811b50eecebbddca34660e39d4fdfb2293e580ffb0a658552d83f95153100220171e0ea8b8c6503a7b39e24962d6c0fff92eea718b62cc28a2af5d289fc7bd96012103f568bd1f2a637ce340ba7538f8fb2cfc8bf76877041e619c33452ffe8fd664d3feffffff4ffffa38beb24bf0ac0e46cbab950f1aceaa21774e842f2547b75a29439d46e6010000006a473044022052342b5a44f6866eb0ea42170e8f71bc1a6cf289530b98088b6c897b09b8715002201afff5db1381439a25f00e8cde91b449ee0896476aafa65a396d5c099912e0e0012103d24090a7833860856a30c16069d854c56dfd4021e4c4217b7f2df39711748dc5fefffffff2da54f8ddbd25b5363ceea189dfb8d41919508e46c65efc0456d245b412a4c0350000006b483045022100922efd2b80a4cbfc4d4147bc54ee76029aea5abd1742eb97ad51ccc57b74ac0d02200301d007b5145eef1b6e69b34b3ca5691575177587d1b11b9b74e49cce8dc6da01210311e35f60d8891b1888a49a1b250b35437c67feceb2d32874622925e60094ced0fefffffff2da54f8ddbd25b5363ceea189dfb8d41919508e46c65efc0456d245b412a4c07b0000006b483045022100a832602a157e9312a3d163cb25f7533a254e288041baad8c69a6cfc0ecbec958022062c5124898e04c618ff638c75e44ff41e46c2943a7853a6c5b3185c4ae5c90780121026fe3e900b5404e87c82b5fc5c08bca4e2800555b32d1d21fdb46b363e624a4b1feffffff66093503d4490179d9a19d22c460993435bf729d60c5c90a25fb947e57fcd8fd6c0000006b483045022100983f5cd29a636d7b846471ba1befd7f7a13a114041582a7f087c380443499f600220497ca535750ba600a5eba5a6953e43a450527d325edd6fe268042e87932c9a9c0121027eedf85f74c6278a43288e04ec995ef8e6800aa7b40d816e399cd877eeb3d43cfeffffff3314ee9f40bf928757bd8f0ba87272200a433cce4ddb3b2be9ecdc834af8d100920100006a47304402201df43a7fdb94d141c4b9199f5dea8269fbc262a652847926e9f8dbf93aba204002203924bf6690c2f6ff123b5387041e17a35f3558db29a61e2aa369a68ead4a073401210304d30161335a128ff94fc1f86e727065f7254b2ad6570be23c2a22659709ea4efeffffff9bf265ca02b302921ebe839cb5ca266c6231ad6ababeb023cf8d44314a4bcd9fe30000006a47304402204895ecb723796acbea9504044698414e9a9429698c19b8b9aa5fee66e36c435e022068d232c12fb8e615632665854e38a2ee0b1d50223c873d6ed25c0c6b3d5298650121035315d0d92aedf392b57e55307548e2cb726c39847b020f7984c8fcc5d878ba22feffffff19b5fae04f4133325fee5c066b417f42444762cf7ad8a2892a6b1be009f00298000000006a473044022063a624565da362904da3895ecd1d66699bdc044d745f5c3513106cff8f4bf998022039a4f4606ad96051c13b73109d43d79431554aa30a03d9a66a35a78bf6b892e7012102bda2e894ffe44b4aaa7ab7d07c1cec3beceb30601769c783aeb781f74ab029d8feffffff3f67cdc513a0217972eaf6daf12055f356280ab7151c646445a9081a12b9b88f000000006a4730440220075bcfa2f9f97b9376524a30e725b27e58965db8ccd3347b9c655fe554b36042022071561149e10d3b80f87a85551c0b8a13488bca6cefddbcaa7ea8f801cb02dccc012102130cc73641f38c4b8f2669d7f565a5b153d1925e403c662fb5dc6b54bb79a266feffffff814a30c2e955db088e3e2292ac050a8cc126a636c5a230fa1535e6193c38e3b9010000006a47304402206c1957de3c9d40a285cfa777c0e0d85178846a6496a2cd0e4983cd00f573da3e02205f75cbf876f8a606e37fb891685099cb6396cbea7ae07af4dc10a6d71ba82c5c012102559d531e1cd2208b5ab3993a0ace5fcc2a8f222d4c8ae4714893426094569e0efeffffff020065cd1d000000001976a914f465de4c80474265ae7accbce59cdb57ea30d0a388ac9f730b00000000001976a914a71ecb6e9ffecbf34bb70222bbce9d794b6d055a88acd2b71400"
    }, 
    {
      "txid": "328cb75fbcfb0cbcefc8b7d6e916aec28fda72825e52aa88896c4e9508e8f457",
      "hash": "328cb75fbcfb0cbcefc8b7d6e916aec28fda72825e52aa88896c4e9508e8f457",
      "version": 1,
      "size": 225,
      "vsize": 225,
      "locktime": 0,
      "vin": [
        {
          "txid": "bf60b5454b33725f8a793456e73d563d3ce4d663d6227e7a15a565e0e0cc6f9d",
          "vout": 0,
          "scriptSig": {
            "asm": "304402203f0a535e7d67c385b9b419c61656c8db77644498d41e3a5dad4f92b2929bca3f02201291ff767eba806c70777bef0fab6354317bab1eb1a62e86c3587a3f3a0280de[ALL] 03b55ad741a19719cd0e7927905e0dc2c9740f39b58b92885d10f556486e2ddece",
            "hex": "47304402203f0a535e7d67c385b9b419c61656c8db77644498d41e3a5dad4f92b2929bca3f02201291ff767eba806c70777bef0fab6354317bab1eb1a62e86c3587a3f3a0280de012103b55ad741a19719cd0e7927905e0dc2c9740f39b58b92885d10f556486e2ddece"
          },
          "sequence": 4294967295
        }
      ],
      "vout": [
        {
          "value": 0.53670774,
          "n": 0,
          "scriptPubKey": {
            "asm": "OP_DUP OP_HASH160 14a791248f9c22e1788236a6c103cb10daac93dd OP_EQUALVERIFY OP_CHECKSIG",
            "hex": "76a91414a791248f9c22e1788236a6c103cb10daac93dd88ac",
            "reqSigs": 1,
            "type": "pubkeyhash",
            "addresses": [
              "LM7AWoiz2dWF99Up949YUmhdBk5mGSu9BM"
            ]
          }
        }, 
        {
          "value": 45.66844252,
          "n": 1,
          "scriptPubKey": {
            "asm": "OP_DUP OP_HASH160 0dafd69ee4f975dc10f548a7fa8b01ac7e43069c OP_EQUALVERIFY OP_CHECKSIG",
            "hex": "76a9140dafd69ee4f975dc10f548a7fa8b01ac7e43069c88ac",
            "reqSigs": 1,
            "type": "pubkeyhash",
            "addresses": [
              "LLUKhAqSgYQ1L2bqucXMXFGw39GgVTE7po"
            ]
          }
        }
      ],
      "hex": "01000000019d6fcce0e065a5157a7e22d663d6e43c3d563de75634798a5f72334b45b560bf000000006a47304402203f0a535e7d67c385b9b419c61656c8db77644498d41e3a5dad4f92b2929bca3f02201291ff767eba806c70777bef0fab6354317bab1eb1a62e86c3587a3f3a0280de012103b55ad741a19719cd0e7927905e0dc2c9740f39b58b92885d10f556486e2ddeceffffffff0276f33203000000001976a91414a791248f9c22e1788236a6c103cb10daac93dd88ac5c833410010000001976a9140dafd69ee4f975dc10f548a7fa8b01ac7e43069c88ac00000000"
    }, 
    {
      "txid": "07ad006c06ed3ec4358c1b73ba8eea879e856d6007c84be33757fe6f68db45c0",
      "hash": "07ad006c06ed3ec4358c1b73ba8eea879e856d6007c84be33757fe6f68db45c0",
      "version": 1,
      "size": 225,
      "vsize": 225,
      "locktime": 1357777,
      "vin": [
        {
          "txid": "7f7670bb53a9a9058459d56073586259efbdffaf4cc5c1be165147769f06142f",
          "vout": 1,
          "scriptSig": {
            "asm": "3044022072fbfa52ee24e09efa0d4ce22ad0aa3290090af501d1db4884bd23efdf49dbb902206231ae09e7c06a969058b26f7558903a67eba86228a471ea70d665ff58258a3e[ALL] 0330f30ed74b5e6186ebde5c4dd66e422d9b5d8ab7eec68a015fb070e278cf493b",
            "hex": "473044022072fbfa52ee24e09efa0d4ce22ad0aa3290090af501d1db4884bd23efdf49dbb902206231ae09e7c06a969058b26f7558903a67eba86228a471ea70d665ff58258a3e01210330f30ed74b5e6186ebde5c4dd66e422d9b5d8ab7eec68a015fb070e278cf493b"
          },
          "sequence": 4294967294
        }
      ],
      "vout": [
        {
          "value": 0.15510092,
          "n": 0,
          "scriptPubKey": {
            "asm": "OP_DUP OP_HASH160 ee262fdf9f89e0e2bcced60ed6fee666ce65830f OP_EQUALVERIFY OP_CHECKSIG",
            "hex": "76a914ee262fdf9f89e0e2bcced60ed6fee666ce65830f88ac",
            "reqSigs": 1,
            "type": "pubkeyhash",
            "addresses": [
              "LgwAq9ZH8pVv4KYWNWzabtHQHeoUEUq2Hz"
            ]
          }
        }, 
        {
          "value": 0.01001647,
          "n": 1,
          "scriptPubKey": {
            "asm": "OP_DUP OP_HASH160 7b8097e4e29464c83b7162cb6d1d75d0069c16e3 OP_EQUALVERIFY OP_CHECKSIG",
            "hex": "76a9147b8097e4e29464c83b7162cb6d1d75d0069c16e388ac",
            "reqSigs": 1,
            "type": "pubkeyhash",
            "addresses": [
              "LWUyRdUtR3CoFn6hM9a4kvFpGfmUvirjaD"
            ]
          }
        }
      ],
      "hex": "01000000012f14069f76475116bec1c54cafffbdef5962587360d5598405a9a953bb70767f010000006a473044022072fbfa52ee24e09efa0d4ce22ad0aa3290090af501d1db4884bd23efdf49dbb902206231ae09e7c06a969058b26f7558903a67eba86228a471ea70d665ff58258a3e01210330f30ed74b5e6186ebde5c4dd66e422d9b5d8ab7eec68a015fb070e278cf493bfeffffff024caaec00000000001976a914ee262fdf9f89e0e2bcced60ed6fee666ce65830f88acaf480f00000000001976a9147b8097e4e29464c83b7162cb6d1d75d0069c16e388acd1b71400"
    }, 
    {
      "txid": "6488339ab38b2ac85d773be41479b3a9dfded94a1a9ac4532601fe82b31febce",
      "hash": "6488339ab38b2ac85d773be41479b3a9dfded94a1a9ac4532601fe82b31febce",
      "version": 2,
      "size": 225,
      "vsize": 225,
      "locktime": 1357777,
      "vin": [
        {
          "txid": "0ebcb720270938515c4f8a4bfb7e730e4b8b825f436fc26ae9ff4b6a5cd4cee2",
          "vout": 0,
          "scriptSig": {
            "asm": "304402206828c5596b26adf980c1c3b13a932081cf1f35923edbee31b7107e94ed8c5f3e0220572bcc37082d9182e5a304f91d110e950ec63e5f5333c5c1e3834ab14af867c7[ALL] 020c79d48927b5ce72e3d1b990112c81acbdce9bf2396b3a8ef0d4f018d0bd4572",
            "hex": "47304402206828c5596b26adf980c1c3b13a932081cf1f35923edbee31b7107e94ed8c5f3e0220572bcc37082d9182e5a304f91d110e950ec63e5f5333c5c1e3834ab14af867c70121020c79d48927b5ce72e3d1b990112c81acbdce9bf2396b3a8ef0d4f018d0bd4572"
          },
          "sequence": 4294967294
        }
      ],
      "vout": [
        {
          "value": 0.00977400,
          "n": 0,
          "scriptPubKey": {
            "asm": "OP_DUP OP_HASH160 258c7b8607e13503fd1ee7e71f8474579b208ee1 OP_EQUALVERIFY OP_CHECKSIG",
            "hex": "76a914258c7b8607e13503fd1ee7e71f8474579b208ee188ac",
            "reqSigs": 1,
            "type": "pubkeyhash",
            "addresses": [
              "LNeVZCxM4ua8TMmE4yxSGe4qxV9UJg9ikc"
            ]
          }
        }, 
        {
          "value": 5.99800000,
          "n": 1,
          "scriptPubKey": {
            "asm": "OP_DUP OP_HASH160 4006adc5096fd6114ade1e5b7640793f3109ea62 OP_EQUALVERIFY OP_CHECKSIG",
            "hex": "76a9144006adc5096fd6114ade1e5b7640793f3109ea6288ac",
            "reqSigs": 1,
            "type": "pubkeyhash",
            "addresses": [
              "LR4VWYJQ6FCqDYJos7zmYgDPG3cFPBVdo4"
            ]
          }
        }
      ],
      "hex": "0200000001e2ced45c6a4bffe96ac26f435f828b4b0e737efb4b8a4f5c5138092720b7bc0e000000006a47304402206828c5596b26adf980c1c3b13a932081cf1f35923edbee31b7107e94ed8c5f3e0220572bcc37082d9182e5a304f91d110e950ec63e5f5333c5c1e3834ab14af867c70121020c79d48927b5ce72e3d1b990112c81acbdce9bf2396b3a8ef0d4f018d0bd4572feffffff02f8e90e00000000001976a914258c7b8607e13503fd1ee7e71f8474579b208ee188acc038c023000000001976a9144006adc5096fd6114ade1e5b7640793f3109ea6288acd1b71400"
    }, 
    {
      "txid": "a90c246afd22f1016466ba58cf60f1fc0039e56171fcc53b1a76e8ebf49d28db",
      "hash": "a90c246afd22f1016466ba58cf60f1fc0039e56171fcc53b1a76e8ebf49d28db",
      "version": 1,
      "size": 225,
      "vsize": 225,
      "locktime": 0,
      "vin": [
        {
          "txid": "0d58f98f6bff74d408cc091077d02a2d1762cd822654e667bd88afa61f9e5726",
          "vout": 0,
          "scriptSig": {
            "asm": "304402205bbb0033faca37f3282a28c3b8d6f94bea46f058fd9cb19326325f49434c183e02202ef1eea895c68fe66d11f9336ee02d8cd692fb6442caa4a7f855140a23229498[ALL] 03c8e775f8962648c9718efacec9148ea996dc22c4b9b687627ac5de8ebe40a077",
            "hex": "47304402205bbb0033faca37f3282a28c3b8d6f94bea46f058fd9cb19326325f49434c183e02202ef1eea895c68fe66d11f9336ee02d8cd692fb6442caa4a7f855140a23229498012103c8e775f8962648c9718efacec9148ea996dc22c4b9b687627ac5de8ebe40a077"
          },
          "sequence": 4294967295
        }
      ],
      "vout": [
        {
          "value": 0.47174378,
          "n": 0,
          "scriptPubKey": {
            "asm": "OP_DUP OP_HASH160 a4bd644efa8198ec717b249b803b2fe9f27efdaf OP_EQUALVERIFY OP_CHECKSIG",
            "hex": "76a914a4bd644efa8198ec717b249b803b2fe9f27efdaf88ac",
            "reqSigs": 1,
            "type": "pubkeyhash",
            "addresses": [
              "LaF1xr9nFtqfFiwJdJcaAxyPQUQD6MwWaf"
            ]
          }
        }, 
        {
          "value": 0.02010738,
          "n": 1,
          "scriptPubKey": {
            "asm": "OP_DUP OP_HASH160 ec1e6c6c2d861b5404d9a3e68d5cd3ec9d6c1b78 OP_EQUALVERIFY OP_CHECKSIG",
            "hex": "76a914ec1e6c6c2d861b5404d9a3e68d5cd3ec9d6c1b7888ac",
            "reqSigs": 1,
            "type": "pubkeyhash",
            "addresses": [
              "LgkSBMAzPEgjgLSHevCCj5jY3kJ9KbnKpt"
            ]
          }
        }
      ],
      "hex": "010000000126579e1fa6af88bd67e6542682cd62172d2ad0771009cc08d474ff6b8ff9580d000000006a47304402205bbb0033faca37f3282a28c3b8d6f94bea46f058fd9cb19326325f49434c183e02202ef1eea895c68fe66d11f9336ee02d8cd692fb6442caa4a7f855140a23229498012103c8e775f8962648c9718efacec9148ea996dc22c4b9b687627ac5de8ebe40a077ffffffff02ead2cf02000000001976a914a4bd644efa8198ec717b249b803b2fe9f27efdaf88ac72ae1e00000000001976a914ec1e6c6c2d861b5404d9a3e68d5cd3ec9d6c1b7888ac00000000"
    }, 
    {
      "txid": "5203f2487ba9439a221c424b254b7a3d7ccc1dd0257e0c17be6c4900dcfd5cf5",
      "hash": "5203f2487ba9439a221c424b254b7a3d7ccc1dd0257e0c17be6c4900dcfd5cf5",
      "version": 1,
      "size": 225,
      "vsize": 225,
      "locktime": 0,
      "vin": [
        {
          "txid": "3b106518be51631da304cced751c5a900d4b00445a9adfaac6ae8aa256f8ba09",
          "vout": 34,
          "scriptSig": {
            "asm": "304402204453b95950ff023c27f177bcd571e800b711d1eb03d07d683d971b1c01fb3ff302205bf571b0f9f1c12ff099ce1fa72cda27fae4eb29d4d992f7507bf12e23c58357[ALL] 025493b386721c4d7058b55c15c7aeb9a71469740d39bf1571174a6c89f071e7c1",
            "hex": "47304402204453b95950ff023c27f177bcd571e800b711d1eb03d07d683d971b1c01fb3ff302205bf571b0f9f1c12ff099ce1fa72cda27fae4eb29d4d992f7507bf12e23c583570121025493b386721c4d7058b55c15c7aeb9a71469740d39bf1571174a6c89f071e7c1"
          },
          "sequence": 4294967295
        }
      ],
      "vout": [
        {
          "value": 0.10000000,
          "n": 0,
          "scriptPubKey": {
            "asm": "OP_DUP OP_HASH160 8d59098dd33417547b6157039d7e1a0936215c84 OP_EQUALVERIFY OP_CHECKSIG",
            "hex": "76a9148d59098dd33417547b6157039d7e1a0936215c8488ac",
            "reqSigs": 1,
            "type": "pubkeyhash",
            "addresses": [
              "LY7LCgYS2gY9WHxo6reKhGzPzsfHwAmGMh"
            ]
          }
        }, 
        {
          "value": 0.00081274,
          "n": 1,
          "scriptPubKey": {
            "asm": "OP_DUP OP_HASH160 8e853e33c576f34c9a8b51c461a6ba1876bcb447 OP_EQUALVERIFY OP_CHECKSIG",
            "hex": "76a9148e853e33c576f34c9a8b51c461a6ba1876bcb44788ac",
            "reqSigs": 1,
            "type": "pubkeyhash",
            "addresses": [
              "LYDXqLWxfGjV9BNbkUs6C5zmWi8FZ9RYxy"
            ]
          }
        }
      ],
      "hex": "010000000109baf856a28aaec6aadf9a5a44004b0d905a1c75edcc04a31d6351be1865103b220000006a47304402204453b95950ff023c27f177bcd571e800b711d1eb03d07d683d971b1c01fb3ff302205bf571b0f9f1c12ff099ce1fa72cda27fae4eb29d4d992f7507bf12e23c583570121025493b386721c4d7058b55c15c7aeb9a71469740d39bf1571174a6c89f071e7c1ffffffff0280969800000000001976a9148d59098dd33417547b6157039d7e1a0936215c8488ac7a3d0100000000001976a9148e853e33c576f34c9a8b51c461a6ba1876bcb44788ac00000000"
    }, 
    {
      "txid": "dd0c2b12949c11ba2e43062b2ddbb2fc5190dc2093490093273caa758add1e83",
      "hash": "dd0c2b12949c11ba2e43062b2ddbb2fc5190dc2093490093273caa758add1e83",
      "version": 1,
      "size": 226,
      "vsize": 226,
      "locktime": 0,
      "vin": [
        {
          "txid": "ff9e38b6415eef932a3ff2bfb9d9cb57ff931af3a7186ff2753acb317e8a5bc9",
          "vout": 0,
          "scriptSig": {
            "asm": "3045022100fed01b396f0f0351f8380d99810dfaa3d6e5ecc2c38b1c1e0436073448cba91502200be186dd4f3b8bca14e74f6f6d97ad53ece5865e372fdd3d62ebdfb547effc05[ALL] 02240499e29885831712747dcbccbc1c20188a9d414e79bd3327ceb0134ba334b4",
            "hex": "483045022100fed01b396f0f0351f8380d99810dfaa3d6e5ecc2c38b1c1e0436073448cba91502200be186dd4f3b8bca14e74f6f6d97ad53ece5865e372fdd3d62ebdfb547effc05012102240499e29885831712747dcbccbc1c20188a9d414e79bd3327ceb0134ba334b4"
          },
          "sequence": 4294967295
        }
      ],
      "vout": [
        {
          "value": 1.51914507,
          "n": 0,
          "scriptPubKey": {
            "asm": "OP_DUP OP_HASH160 48e3fecfac86c8297c807d39ef96a47456665ea6 OP_EQUALVERIFY OP_CHECKSIG",
            "hex": "76a91448e3fecfac86c8297c807d39ef96a47456665ea688ac",
            "reqSigs": 1,
            "type": "pubkeyhash",
            "addresses": [
              "LRsN3RJjVZ7RjmEZrJCwTVNX5ii5BNPH7t"
            ]
          }
        }, 
        {
          "value": 0.19412424,
          "n": 1,
          "scriptPubKey": {
            "asm": "OP_DUP OP_HASH160 9f49782bff5e02f73138a37a500a29efd520ff0f OP_EQUALVERIFY OP_CHECKSIG",
            "hex": "76a9149f49782bff5e02f73138a37a500a29efd520ff0f88ac",
            "reqSigs": 1,
            "type": "pubkeyhash",
            "addresses": [
              "LZkBiTa7rLipnYzAu3EBYqDAwEYhf9aPeC"
            ]
          }
        }
      ],
      "hex": "0100000001c95b8a7e31cb3a75f26f18a7f31a93ff57cbd9b9bff23f2a93ef5e41b6389eff000000006b483045022100fed01b396f0f0351f8380d99810dfaa3d6e5ecc2c38b1c1e0436073448cba91502200be186dd4f3b8bca14e74f6f6d97ad53ece5865e372fdd3d62ebdfb547effc05012102240499e29885831712747dcbccbc1c20188a9d414e79bd3327ceb0134ba334b4ffffffff020b080e09000000001976a91448e3fecfac86c8297c807d39ef96a47456665ea688acc8352801000000001976a9149f49782bff5e02f73138a37a500a29efd520ff0f88ac00000000"
    }, 
    {
      "txid": "a2eaad8c9c10aa8c204ffd297bd9aa065f0cf3c6f53580bab36aab111aacbcc7",
      "hash": "a2eaad8c9c10aa8c204ffd297bd9aa065f0cf3c6f53580bab36aab111aacbcc7",
      "version": 2,
      "size": 226,
      "vsize": 226,
      "locktime": 1357778,
      "vin": [
        {
          "txid": "cf4685ffb468d372cf88b1e3150df79ad5ee4d8d55306e7a08af9df793a4c50e",
          "vout": 1,
          "scriptSig": {
            "asm": "304502210095114c360637d32e42c60b9775a084366563ce793a2e1eb5c41e2263a9796462022000d5120685699d76212b97871ca4d300c6fbc1c81f08ec94e53fdf4983e1088f[ALL] 033c9d19da620f6856cb2d530b523e228536fa20d4dc5c9d51e76b016e26fab08b",
            "hex": "48304502210095114c360637d32e42c60b9775a084366563ce793a2e1eb5c41e2263a9796462022000d5120685699d76212b97871ca4d300c6fbc1c81f08ec94e53fdf4983e1088f0121033c9d19da620f6856cb2d530b523e228536fa20d4dc5c9d51e76b016e26fab08b"
          },
          "sequence": 4294967294
        }
      ],
      "vout": [
        {
          "value": 34.82293500,
          "n": 0,
          "scriptPubKey": {
            "asm": "OP_DUP OP_HASH160 c6f316f4b89c41fb09ffd56ff0571c9a8b350ad8 OP_EQUALVERIFY OP_CHECKSIG",
            "hex": "76a914c6f316f4b89c41fb09ffd56ff0571c9a8b350ad888ac",
            "reqSigs": 1,
            "type": "pubkeyhash",
            "addresses": [
              "LdMuGMwmw5hrZhfLGnMiba3aT9Lqyr54cj"
            ]
          }
        }, 
        {
          "value": 3.72228700,
          "n": 1,
          "scriptPubKey": {
            "asm": "OP_DUP OP_HASH160 e86d2b767e6902c39a9f8a148f057432a1695bc8 OP_EQUALVERIFY OP_CHECKSIG",
            "hex": "76a914e86d2b767e6902c39a9f8a148f057432a1695bc888ac",
            "reqSigs": 1,
            "type": "pubkeyhash",
            "addresses": [
              "LgQuoy2Ni2sfBgCfPc9ivFw6Wd4NKioNA9"
            ]
          }
        }
      ],
      "hex": "02000000010ec5a493f79daf087a6e30558d4deed59af70d15e3b188cf72d368b4ff8546cf010000006b48304502210095114c360637d32e42c60b9775a084366563ce793a2e1eb5c41e2263a9796462022000d5120685699d76212b97871ca4d300c6fbc1c81f08ec94e53fdf4983e1088f0121033c9d19da620f6856cb2d530b523e228536fa20d4dc5c9d51e76b016e26fab08bfeffffff02fc948fcf000000001976a914c6f316f4b89c41fb09ffd56ff0571c9a8b350ad888ac5cc22f16000000001976a914e86d2b767e6902c39a9f8a148f057432a1695bc888acd2b71400"
    }
  ],
  "time": 1517047065,
  "mediantime": 1517046597,
  "nonce": 2475329474,
  "bits": "1a047f14",
  "difficulty": 3731199.183374282,
  "chainwork": "0000000000000000000000000000000000000000000000328594abd0231baaa2",
  "previousblockhash": "f647b2ff641951a7b5ae276476e374f68909a4094809779e8b0f9f325ba08e75",
  "nextblockhash": "0d283c7669dd03e391ab4843b97a37e52acbcec524a62518e27d873d6dec939c"
}
