{
  "hash": "3e3504d1b54726404100879f23801c3151c8473a84f447fd5b56f438d36d3ea4",
  "confirmations": 1372,
  "strippedsize": 4820,
  "size": 4856,
  "weight": 19316,
  "height": 1359622,
  "version": 536870912,
  "versionHex": "20000000",
  "merkleroot": "15cf8185a478bde69d24f63e82ea60602e64161217530c6f39b28f586b14b9cf",
  "tx": [
    {
      "txid": "016ff78028db869bc10e1fdaab4885ebc52891f804a7eeff7ca452e2e518c9e2",
      "hash": "319148f31dfa8728b9ad702461aa7a17bb6c5e73576492f89a9b0b9513f74da1",
      "version": 1,
      "size": 264,
      "vsize": 237,
      "locktime": 0,
      "vin": [
        {
          "coinbase": "0306bf141d2f5669614254432f4d696e65642062792031333933363931383138392f2cfabe6d6d12cca98c38126a8b742798d8c1f74ae9efa42baf22497a3d8d0dbec222d4808e010000000000000010bd7ecf0042362f412d507ef701000000",
          "sequence": 4294967295
        }
      ],
      "vout": [
        {
          "value": 25.01448217,
          "n": 0,
          "scriptPubKey": {
            "asm": "OP_DUP OP_HASH160 e16c28146ed4869c190b3f0bdc18d80d45f92134 OP_EQUALVERIFY OP_CHECKSIG",
            "hex": "76a914e16c28146ed4869c190b3f0bdc18d80d45f9213488ac",
            "reqSigs": 1,
            "type": "pubkeyhash",
            "addresses": [
              "LfmssDyX6iZvbVqHv6t9P6JWXia2JG7mdb"
            ]
          }
        }, 
        {
          "value": 0.00000000,
          "n": 1,
          "scriptPubKey": {
            "asm": "OP_RETURN aa21a9edec1cc2c799679886491ebc692b6c3c5f00aa5463c25b80ea8e8406b24b6fec66",
            "hex": "6a24aa21a9edec1cc2c799679886491ebc692b6c3c5f00aa5463c25b80ea8e8406b24b6fec66",
            "type": "nulldata"
          }
        }
      ],
      "hex": "010000000001010000000000000000000000000000000000000000000000000000000000000000ffffffff600306bf141d2f5669614254432f4d696e65642062792031333933363931383138392f2cfabe6d6d12cca98c38126a8b742798d8c1f74ae9efa42baf22497a3d8d0dbec222d4808e010000000000000010bd7ecf0042362f412d507ef701000000ffffffff0219121995000000001976a914e16c28146ed4869c190b3f0bdc18d80d45f9213488ac0000000000000000266a24aa21a9edec1cc2c799679886491ebc692b6c3c5f00aa5463c25b80ea8e8406b24b6fec660120000000000000000000000000000000000000000000000000000000000000000000000000"
    }, 
    {
      "txid": "8122284f6fcbc2759f089d4842be6252d36f8981118c3c1e4fbea45a90209845",
      "hash": "8122284f6fcbc2759f089d4842be6252d36f8981118c3c1e4fbea45a90209845",
      "version": 2,
      "size": 372,
      "vsize": 372,
      "locktime": 1359588,
      "vin": [
        {
          "txid": "e9b19c721973a8b83e378ebf0034d849031fcb52e168a589a0967d0f9176fabc",
          "vout": 0,
          "scriptSig": {
            "asm": "304402204ff6717d8ce0eec45d287da018369e3202409ab918be17afdef9a39d5ce97b8302205108954ae1c188759a74964c298ed052c1905efd1db4b3d9a53d8fac76a94da0[ALL] 0274c4fb7d9cd868fc557d10b06656b460d4f6c12d3786603803bade3bf16b58ae",
            "hex": "47304402204ff6717d8ce0eec45d287da018369e3202409ab918be17afdef9a39d5ce97b8302205108954ae1c188759a74964c298ed052c1905efd1db4b3d9a53d8fac76a94da001210274c4fb7d9cd868fc557d10b06656b460d4f6c12d3786603803bade3bf16b58ae"
          },
          "sequence": 4294967294
        }, 
        {
          "txid": "11ebe943862a73b5842c733cf8cc0a5af7cae48361d7ce1a89ce77bd31ea5e77",
          "vout": 0,
          "scriptSig": {
            "asm": "304402205e67851e6f517b05682922c5465cb3d5e7efaa9adc8f6075ce13faaba30004080220661165944d8cab54d77bd87a351ef88b4c49a5e614c59971363a8939075caf9c[ALL] 02cbe022b6ab9dc3f19116ffebed0b6049ffa6f2c54fb2875252442b4d20a9dcca",
            "hex": "47304402205e67851e6f517b05682922c5465cb3d5e7efaa9adc8f6075ce13faaba30004080220661165944d8cab54d77bd87a351ef88b4c49a5e614c59971363a8939075caf9c012102cbe022b6ab9dc3f19116ffebed0b6049ffa6f2c54fb2875252442b4d20a9dcca"
          },
          "sequence": 4294967294
        }
      ],
      "vout": [
        {
          "value": 0.31785383,
          "n": 0,
          "scriptPubKey": {
            "asm": "OP_DUP OP_HASH160 e7e7d9f24d064d39e950d8b7ab8b09bba8685e03 OP_EQUALVERIFY OP_CHECKSIG",
            "hex": "76a914e7e7d9f24d064d39e950d8b7ab8b09bba8685e0388ac",
            "reqSigs": 1,
            "type": "pubkeyhash",
            "addresses": [
              "LgNA6qh1ADifRtGNo42mZkT7MY1TYU9Gdk"
            ]
          }
        }, 
        {
          "value": 7.99500000,
          "n": 1,
          "scriptPubKey": {
            "asm": "OP_DUP OP_HASH160 c0313db7e522137ff28484dd21cd50b2407d47a6 OP_EQUALVERIFY OP_CHECKSIG",
            "hex": "76a914c0313db7e522137ff28484dd21cd50b2407d47a688ac",
            "reqSigs": 1,
            "type": "pubkeyhash",
            "addresses": [
              "LckAzNiMB8ren3KpGLYc1YFKMUEdq8Vqh8"
            ]
          }
        }
      ],
      "hex": "0200000002bcfa76910f7d96a089a568e152cb1f0349d83400bf8e373eb8a87319729cb1e9000000006a47304402204ff6717d8ce0eec45d287da018369e3202409ab918be17afdef9a39d5ce97b8302205108954ae1c188759a74964c298ed052c1905efd1db4b3d9a53d8fac76a94da001210274c4fb7d9cd868fc557d10b06656b460d4f6c12d3786603803bade3bf16b58aefeffffff775eea31bd77ce891aced76183e4caf75a0accf83c732c84b5732a8643e9eb11000000006a47304402205e67851e6f517b05682922c5465cb3d5e7efaa9adc8f6075ce13faaba30004080220661165944d8cab54d77bd87a351ef88b4c49a5e614c59971363a8939075caf9c012102cbe022b6ab9dc3f19116ffebed0b6049ffa6f2c54fb2875252442b4d20a9dccafeffffff02a701e501000000001976a914e7e7d9f24d064d39e950d8b7ab8b09bba8685e0388ace066a72f000000001976a914c0313db7e522137ff28484dd21cd50b2407d47a688ace4be1400"
    }, 
    {
      "txid": "24f957a002d5700b9a861f9d22eb4236b4adf64a9bc55c3eab2030efda86642c",
      "hash": "24f957a002d5700b9a861f9d22eb4236b4adf64a9bc55c3eab2030efda86642c",
      "version": 2,
      "size": 223,
      "vsize": 223,
      "locktime": 0,
      "vin": [
        {
          "txid": "2ea883e6a8ea326b510072471a4f54fac0091a70f22216b7246d30363add2faf",
          "vout": 1,
          "scriptSig": {
            "asm": "304402200f7138cd1373ff81880a46c8ef3200c04c2809df30f570923375574674f32625022017730f5523c27a58c07937be533b8680ccaa034cd8ec849e1f3161ca0134906d[ALL] 03c6daf7bfef34db46e36e730c54e566b84f704c05292ed9820bd57cee20a9b6b2",
            "hex": "47304402200f7138cd1373ff81880a46c8ef3200c04c2809df30f570923375574674f32625022017730f5523c27a58c07937be533b8680ccaa034cd8ec849e1f3161ca0134906d012103c6daf7bfef34db46e36e730c54e566b84f704c05292ed9820bd57cee20a9b6b2"
          },
          "sequence": 4294967295
        }
      ],
      "vout": [
        {
          "value": 9.99900000,
          "n": 0,
          "scriptPubKey": {
            "asm": "OP_HASH160 f34a389927bc9cba8d33ce0b9e0a87d55b18ae25 OP_EQUAL",
            "hex": "a914f34a389927bc9cba8d33ce0b9e0a87d55b18ae2587",
            "reqSigs": 1,
            "type": "scripthash",
            "addresses": [
              "MW5ZM1unx8vtcX7QQwA2pijTxLdzYogv3q"
            ]
          }
        }, 
        {
          "value": 1.17292479,
          "n": 1,
          "scriptPubKey": {
            "asm": "OP_DUP OP_HASH160 6365a2c16e930e741bc6cbd2d3fd14d9f5655cce OP_EQUALVERIFY OP_CHECKSIG",
            "hex": "76a9146365a2c16e930e741bc6cbd2d3fd14d9f5655cce88ac",
            "reqSigs": 1,
            "type": "pubkeyhash",
            "addresses": [
              "LUHWuyr3DRcuQRRtqsdUJGzTq7YqhkpMAP"
            ]
          }
        }
      ],
      "hex": "0200000001af2fdd3a36306d24b71622f2701a09c0fa544f1a477200516b32eaa8e683a82e010000006a47304402200f7138cd1373ff81880a46c8ef3200c04c2809df30f570923375574674f32625022017730f5523c27a58c07937be533b8680ccaa034cd8ec849e1f3161ca0134906d012103c6daf7bfef34db46e36e730c54e566b84f704c05292ed9820bd57cee20a9b6b2ffffffff026043993b0000000017a914f34a389927bc9cba8d33ce0b9e0a87d55b18ae2587bfbdfd06000000001976a9146365a2c16e930e741bc6cbd2d3fd14d9f5655cce88ac00000000"
    }, 
    {
      "txid": "3c82893da2d1e22f83fd06d4741d8ae7bd1e9f7afb47f385a5d47ab909bacabd",
      "hash": "3c82893da2d1e22f83fd06d4741d8ae7bd1e9f7afb47f385a5d47ab909bacabd",
      "version": 2,
      "size": 225,
      "vsize": 225,
      "locktime": 1359620,
      "vin": [
        {
          "txid": "3c43220b9f7d900c4689b71c6243abca93d06a4b39b8c24a8b7a06da461fdc6c",
          "vout": 0,
          "scriptSig": {
            "asm": "304402206da03a1470f0123ce117328b78243f3f3cf3b2915d7b36b5d4479514b65c68560220616a2fe5c127d3c2c282d875b23a56e06b7a485b6ca81432b760fce65e5cf79d[ALL] 030454140e239960874db1b409a7483aa175e6fd52884c6fec935eecc02d1c585c",
            "hex": "47304402206da03a1470f0123ce117328b78243f3f3cf3b2915d7b36b5d4479514b65c68560220616a2fe5c127d3c2c282d875b23a56e06b7a485b6ca81432b760fce65e5cf79d0121030454140e239960874db1b409a7483aa175e6fd52884c6fec935eecc02d1c585c"
          },
          "sequence": 4294967294
        }
      ],
      "vout": [
        {
          "value": 2.00000000,
          "n": 0,
          "scriptPubKey": {
            "asm": "OP_DUP OP_HASH160 4e3aa90a02e27daf2493e6d706a0efa933e97820 OP_EQUALVERIFY OP_CHECKSIG",
            "hex": "76a9144e3aa90a02e27daf2493e6d706a0efa933e9782088ac",
            "reqSigs": 1,
            "type": "pubkeyhash",
            "addresses": [
              "LSMbExxE765SywXQukQNooHsi9tmzTKdjM"
            ]
          }
        }, 
        {
          "value": 62.04742204,
          "n": 1,
          "scriptPubKey": {
            "asm": "OP_DUP OP_HASH160 77160c70f459dee5810e753e5bd8092dee1e11f8 OP_EQUALVERIFY OP_CHECKSIG",
            "hex": "76a91477160c70f459dee5810e753e5bd8092dee1e11f888ac",
            "reqSigs": 1,
            "type": "pubkeyhash",
            "addresses": [
              "LW5d61Cn2rUXc8KuBgTAZJn5AN6vC745zD"
            ]
          }
        }
      ],
      "hex": "02000000016cdc1f46da067a8b4ac2b8394b6ad093caab43621cb789460c907d9f0b22433c000000006a47304402206da03a1470f0123ce117328b78243f3f3cf3b2915d7b36b5d4479514b65c68560220616a2fe5c127d3c2c282d875b23a56e06b7a485b6ca81432b760fce65e5cf79d0121030454140e239960874db1b409a7483aa175e6fd52884c6fec935eecc02d1c585cfeffffff0200c2eb0b000000001976a9144e3aa90a02e27daf2493e6d706a0efa933e9782088ac3cdad471010000001976a91477160c70f459dee5810e753e5bd8092dee1e11f888ac04bf1400"
    }, 
    {
      "txid": "8d67ff7b1c41ae9da429dc4adce7f39f5cc5756420c3b89eb91cf3940ac9ba6c",
      "hash": "8d67ff7b1c41ae9da429dc4adce7f39f5cc5756420c3b89eb91cf3940ac9ba6c",
      "version": 2,
      "size": 258,
      "vsize": 258,
      "locktime": 0,
      "vin": [
        {
          "txid": "24fb42ec41f8cab4d90936fca20d2de0ca63b3601c781dfd34627826a62e59c3",
          "vout": 1,
          "scriptSig": {
            "asm": "304402205a9eabf8df826ccde6183c9d67978e5ba776945715f611d75d03a41eb126227002200d5ec32a258e82ac9296c527ec3e11bada86ff11be665adf568c9c4c3da9357b[ALL] 029578893d6574743c21e31596dfbd1169ed60d5f573a4b29b8571ef1c306e9f67",
            "hex": "47304402205a9eabf8df826ccde6183c9d67978e5ba776945715f611d75d03a41eb126227002200d5ec32a258e82ac9296c527ec3e11bada86ff11be665adf568c9c4c3da9357b0121029578893d6574743c21e31596dfbd1169ed60d5f573a4b29b8571ef1c306e9f67"
          },
          "sequence": 4294967295
        }
      ],
      "vout": [
        {
          "value": 0.00000000,
          "n": 0,
          "scriptPubKey": {
            "asm": "OP_RETURN 4d657373616767696f20646920746573742030303031",
            "hex": "6a164d657373616767696f20646920746573742030303031",
            "type": "nulldata"
          }
        }, 
        {
          "value": 0.00800000,
          "n": 1,
          "scriptPubKey": {
            "asm": "OP_DUP OP_HASH160 b28eb385a8fb4a13562f4e37c88c9e9e3c16922c OP_EQUALVERIFY OP_CHECKSIG",
            "hex": "76a914b28eb385a8fb4a13562f4e37c88c9e9e3c16922c88ac",
            "reqSigs": 1,
            "type": "pubkeyhash",
            "addresses": [
              "LbW5VR5vWLoL8R2DqtDy22cviiTaDVqntN"
            ]
          }
        }, 
        {
          "value": 0.00100000,
          "n": 2,
          "scriptPubKey": {
            "asm": "OP_DUP OP_HASH160 5241dd6748d4f18ac19b8007dd8b2cf828fc1ceb OP_EQUALVERIFY OP_CHECKSIG",
            "hex": "76a9145241dd6748d4f18ac19b8007dd8b2cf828fc1ceb88ac",
            "reqSigs": 1,
            "type": "pubkeyhash",
            "addresses": [
              "LSitaK9GLLzwb45rRnEQWT6X8hx3rHZZMn"
            ]
          }
        }
      ],
      "hex": "0200000001c3592ea626786234fd1d781c60b363cae02d0da2fc3609d9b4caf841ec42fb24010000006a47304402205a9eabf8df826ccde6183c9d67978e5ba776945715f611d75d03a41eb126227002200d5ec32a258e82ac9296c527ec3e11bada86ff11be665adf568c9c4c3da9357b0121029578893d6574743c21e31596dfbd1169ed60d5f573a4b29b8571ef1c306e9f67ffffffff030000000000000000186a164d657373616767696f2064692074657374203030303100350c00000000001976a914b28eb385a8fb4a13562f4e37c88c9e9e3c16922c88aca0860100000000001976a9145241dd6748d4f18ac19b8007dd8b2cf828fc1ceb88ac00000000"
    }, 
    {
      "txid": "ba53d9bad3e21ca16d364cec249a0d0b28430ad82cedbeab80de30309fda2aa0",
      "hash": "ba53d9bad3e21ca16d364cec249a0d0b28430ad82cedbeab80de30309fda2aa0",
      "version": 1,
      "size": 192,
      "vsize": 192,
      "locktime": 0,
      "vin": [
        {
          "txid": "811629a6409f51e638730178a971346e52c1dd8ba23bb7a1ecc316a03b617fec",
          "vout": 1,
          "scriptSig": {
            "asm": "30450221009253914306f2e54c566c86aa53287c315d2570304aeb42a8942079da7bdf5cd4022070b4ec88e6921af46629a815e39485daddfd54af27d868c33a4cea919df3cda4[ALL] 03baf184122bfcd785e6bf802f25a92c838dec75351cef9d6a13189c914ca91ad6",
            "hex": "4830450221009253914306f2e54c566c86aa53287c315d2570304aeb42a8942079da7bdf5cd4022070b4ec88e6921af46629a815e39485daddfd54af27d868c33a4cea919df3cda4012103baf184122bfcd785e6bf802f25a92c838dec75351cef9d6a13189c914ca91ad6"
          },
          "sequence": 4294967295
        }
      ],
      "vout": [
        {
          "value": 0.01665425,
          "n": 0,
          "scriptPubKey": {
            "asm": "OP_DUP OP_HASH160 34fe758c40e611362e9fd55b8bc333f14ba21ff4 OP_EQUALVERIFY OP_CHECKSIG",
            "hex": "76a91434fe758c40e611362e9fd55b8bc333f14ba21ff488ac",
            "reqSigs": 1,
            "type": "pubkeyhash",
            "addresses": [
              "LQ4AEKbMYw9eMrnBafkR2njkxh9jVCjL6r"
            ]
          }
        }
      ],
      "hex": "0100000001ec7f613ba016c3eca1b73ba28bddc1526e3471a978017338e6519f40a6291681010000006b4830450221009253914306f2e54c566c86aa53287c315d2570304aeb42a8942079da7bdf5cd4022070b4ec88e6921af46629a815e39485daddfd54af27d868c33a4cea919df3cda4012103baf184122bfcd785e6bf802f25a92c838dec75351cef9d6a13189c914ca91ad6ffffffff0191691900000000001976a91434fe758c40e611362e9fd55b8bc333f14ba21ff488ac00000000"
    }, 
    {
      "txid": "7611339e3fcb4bf79bf0a9f7fba7ca16cd48d84e30221d75a161c72ee59fce57",
      "hash": "7611339e3fcb4bf79bf0a9f7fba7ca16cd48d84e30221d75a161c72ee59fce57",
      "version": 1,
      "size": 294,
      "vsize": 294,
      "locktime": 0,
      "vin": [
        {
          "txid": "88c78eb317dc01dd9780cc52ae55bce4d01528faecec06b899edae9097b85a8b",
          "vout": 0,
          "scriptSig": {
            "asm": "30450221009014a11e4517b6230a5416faded406f9907305721dab0b580a7a858d484dbe0b022021836d8a832269bf95d37c5fd4598fb879de6fdbf68e0e4c2f55bf1d4451a68d[ALL] 039762aeac7f2dfa57183ab23600f5107f0cc2007a223bbea994de8e876041974f",
            "hex": "4830450221009014a11e4517b6230a5416faded406f9907305721dab0b580a7a858d484dbe0b022021836d8a832269bf95d37c5fd4598fb879de6fdbf68e0e4c2f55bf1d4451a68d0121039762aeac7f2dfa57183ab23600f5107f0cc2007a223bbea994de8e876041974f"
          },
          "sequence": 4294967295
        }
      ],
      "vout": [
        {
          "value": 3.24758563,
          "n": 0,
          "scriptPubKey": {
            "asm": "OP_DUP OP_HASH160 8054d8d8dd6bce91125bcfe8bbb473f54afcdc60 OP_EQUALVERIFY OP_CHECKSIG",
            "hex": "76a9148054d8d8dd6bce91125bcfe8bbb473f54afcdc6088ac",
            "reqSigs": 1,
            "type": "pubkeyhash",
            "addresses": [
              "LWvWQ3XMoipFsAqE1EZPQFUovLea7DC1ef"
            ]
          }
        }, 
        {
          "value": 0.01000000,
          "n": 1,
          "scriptPubKey": {
            "asm": "OP_DUP OP_HASH160 15971dc0d17d71c0a2fed2fd9d73c704bfd8a1a5 OP_EQUALVERIFY OP_CHECKSIG",
            "hex": "76a91415971dc0d17d71c0a2fed2fd9d73c704bfd8a1a588ac",
            "reqSigs": 1,
            "type": "pubkeyhash",
            "addresses": [
              "LMC7UyqRWeh8P6ZTLEYZ6C8C6x1bUTvxXW"
            ]
          }
        }, 
        {
          "value": 0.19991700,
          "n": 2,
          "scriptPubKey": {
            "asm": "OP_DUP OP_HASH160 f67e180d06c09ca53b1fe20ccb69068ad6b0caa8 OP_EQUALVERIFY OP_CHECKSIG",
            "hex": "76a914f67e180d06c09ca53b1fe20ccb69068ad6b0caa888ac",
            "reqSigs": 1,
            "type": "pubkeyhash",
            "addresses": [
              "LhhHYZh4fEpZXccwJHAMehYu5azg1VmobH"
            ]
          }
        }, 
        {
          "value": 0.24495263,
          "n": 3,
          "scriptPubKey": {
            "asm": "OP_DUP OP_HASH160 512bdbca078680bb7ee435be8fab7d6ed7169e49 OP_EQUALVERIFY OP_CHECKSIG",
            "hex": "76a914512bdbca078680bb7ee435be8fab7d6ed7169e4988ac",
            "reqSigs": 1,
            "type": "pubkeyhash",
            "addresses": [
              "LSd9Y6a5eFwhu2DVPSEbs9ZbSLmaTmT6gt"
            ]
          }
        }
      ],
      "hex": "01000000018b5ab89790aeed99b806ececfa2815d0e4bc55ae52cc8097dd01dc17b38ec788000000006b4830450221009014a11e4517b6230a5416faded406f9907305721dab0b580a7a858d484dbe0b022021836d8a832269bf95d37c5fd4598fb879de6fdbf68e0e4c2f55bf1d4451a68d0121039762aeac7f2dfa57183ab23600f5107f0cc2007a223bbea994de8e876041974fffffffff04236c5b13000000001976a9148054d8d8dd6bce91125bcfe8bbb473f54afcdc6088ac40420f00000000001976a91415971dc0d17d71c0a2fed2fd9d73c704bfd8a1a588ac940c3101000000001976a914f67e180d06c09ca53b1fe20ccb69068ad6b0caa888ac9fc47501000000001976a914512bdbca078680bb7ee435be8fab7d6ed7169e4988ac00000000"
    }, 
    {
      "txid": "d8163dcbd75ead8ab95394d5ee939ba367eeaf4b3db51a4173174fd115099d7b",
      "hash": "d8163dcbd75ead8ab95394d5ee939ba367eeaf4b3db51a4173174fd115099d7b",
      "version": 1,
      "size": 656,
      "vsize": 656,
      "locktime": 0,
      "vin": [
        {
          "txid": "877bb229054ec551cf94ef1446702393d83064a345e6d26bcf06c712a56c7709",
          "vout": 1,
          "scriptSig": {
            "asm": "3044022027c3590cda4ac05fa362def17adf9a1560e74654e4c9c5547afd8b6a656b71880220471838f8cc6e80c673925559279d9bedb0787d7aaa382947c03c5dc4ae4308bc[ALL] 03db2b09377eb70b22fe49220419e325ef772754f5e2a8f19d0f29866c9d609188",
            "hex": "473044022027c3590cda4ac05fa362def17adf9a1560e74654e4c9c5547afd8b6a656b71880220471838f8cc6e80c673925559279d9bedb0787d7aaa382947c03c5dc4ae4308bc012103db2b09377eb70b22fe49220419e325ef772754f5e2a8f19d0f29866c9d609188"
          },
          "sequence": 4294967295
        }, 
        {
          "txid": "28f9c94bcda2229e7ae011beaeb319218b20cbee3452ef01809448b83760aee4",
          "vout": 0,
          "scriptSig": {
            "asm": "304402202acc34f153f78d21153fed7279ccf9821f6252a06c94aab6f26e1a1da59b68a202207591d57a3cbf660b79c3dbf28867ec1dfebe7af03f8a034f3748fb5f04ec9951[ALL] 0274bd122fa0ce394015b9c57537712cd038ff707b983cc7913c34197092f72612",
            "hex": "47304402202acc34f153f78d21153fed7279ccf9821f6252a06c94aab6f26e1a1da59b68a202207591d57a3cbf660b79c3dbf28867ec1dfebe7af03f8a034f3748fb5f04ec995101210274bd122fa0ce394015b9c57537712cd038ff707b983cc7913c34197092f72612"
          },
          "sequence": 4294967295
        }, 
        {
          "txid": "0858c072aa277bfe274d2d40560efa1bc158df11b864b5808906700dc37863f1",
          "vout": 3,
          "scriptSig": {
            "asm": "3045022100b3a2815eb1ebaa0ef38098ece952b7a9dac5fbf2a613aafd8ef61ad8bfea99360220219e28d2d44e57a089e197e3aa3897bbe47390f4e0406be9eefbb9dd1c13e904[ALL] 02e3cd8a8d273e404bd7630a33f9af1f19083ef31ef847717f0cd43c348f34c8bf",
            "hex": "483045022100b3a2815eb1ebaa0ef38098ece952b7a9dac5fbf2a613aafd8ef61ad8bfea99360220219e28d2d44e57a089e197e3aa3897bbe47390f4e0406be9eefbb9dd1c13e904012102e3cd8a8d273e404bd7630a33f9af1f19083ef31ef847717f0cd43c348f34c8bf"
          },
          "sequence": 4294967295
        }
      ],
      "vout": [
        {
          "value": 0.06000000,
          "n": 0,
          "scriptPubKey": {
            "asm": "OP_DUP OP_HASH160 07b9c0c08e181bb695b57a4d73d7b6dc174c977d OP_EQUALVERIFY OP_CHECKSIG",
            "hex": "76a91407b9c0c08e181bb695b57a4d73d7b6dc174c977d88ac",
            "reqSigs": 1,
            "type": "pubkeyhash",
            "addresses": [
              "LKvoWtwBPcJ7c6RusdcavRobYcQKGr7mY9"
            ]
          }
        }, 
        {
          "value": 0.39700000,
          "n": 1,
          "scriptPubKey": {
            "asm": "OP_DUP OP_HASH160 fa27dabfa442645f930b36b75535a71adeae66dd OP_EQUALVERIFY OP_CHECKSIG",
            "hex": "76a914fa27dabfa442645f930b36b75535a71adeae66dd88ac",
            "reqSigs": 1,
            "type": "pubkeyhash",
            "addresses": [
              "Li2ewJsQ4cmhz8E2V6x1d8oiD1Mi6AXo8W"
            ]
          }
        }, 
        {
          "value": 1.20000000,
          "n": 2,
          "scriptPubKey": {
            "asm": "OP_DUP OP_HASH160 b49cd6f1c1773a3504ec1c4363db9aa9069f3e5b OP_EQUALVERIFY OP_CHECKSIG",
            "hex": "76a914b49cd6f1c1773a3504ec1c4363db9aa9069f3e5b88ac",
            "reqSigs": 1,
            "type": "pubkeyhash",
            "addresses": [
              "Lbgwn9hTjdBsrd8SvwYemAGJQxkiNj2dpw"
            ]
          }
        }, 
        {
          "value": 3.00000000,
          "n": 3,
          "scriptPubKey": {
            "asm": "OP_DUP OP_HASH160 dda08907247400d81e9014a170d27683e36b030a OP_EQUALVERIFY OP_CHECKSIG",
            "hex": "76a914dda08907247400d81e9014a170d27683e36b030a88ac",
            "reqSigs": 1,
            "type": "pubkeyhash",
            "addresses": [
              "LfRounxx2xAJFE16XFoCerVuRcm3Y52mCi"
            ]
          }
        }, 
        {
          "value": 1.50498147,
          "n": 4,
          "scriptPubKey": {
            "asm": "OP_DUP OP_HASH160 cb1fc6468853ffc1bfca3e47570c2b7ce750ea3c OP_EQUALVERIFY OP_CHECKSIG",
            "hex": "76a914cb1fc6468853ffc1bfca3e47570c2b7ce750ea3c88ac",
            "reqSigs": 1,
            "type": "pubkeyhash",
            "addresses": [
              "LdjyVtNTrR1v3xyoYfDTrB4U7vVCahLekg"
            ]
          }
        }, 
        {
          "value": 0.94216343,
          "n": 5,
          "scriptPubKey": {
            "asm": "OP_DUP OP_HASH160 c1d6efaba3ddcd7afbb99e193897237a20de0f83 OP_EQUALVERIFY OP_CHECKSIG",
            "hex": "76a914c1d6efaba3ddcd7afbb99e193897237a20de0f8388ac",
            "reqSigs": 1,
            "type": "pubkeyhash",
            "addresses": [
              "LcttAGPcPEteZVp3QqdLK7gvhmjfZgCHZH"
            ]
          }
        }
      ],
      "hex": "010000000309776ca512c706cf6bd2e645a36430d89323704614ef94cf51c54e0529b27b87010000006a473044022027c3590cda4ac05fa362def17adf9a1560e74654e4c9c5547afd8b6a656b71880220471838f8cc6e80c673925559279d9bedb0787d7aaa382947c03c5dc4ae4308bc012103db2b09377eb70b22fe49220419e325ef772754f5e2a8f19d0f29866c9d609188ffffffffe4ae6037b848948001ef5234eecb208b2119b3aebe11e07a9e22a2cd4bc9f928000000006a47304402202acc34f153f78d21153fed7279ccf9821f6252a06c94aab6f26e1a1da59b68a202207591d57a3cbf660b79c3dbf28867ec1dfebe7af03f8a034f3748fb5f04ec995101210274bd122fa0ce394015b9c57537712cd038ff707b983cc7913c34197092f72612fffffffff16378c30d70068980b564b811df58c11bfa0e56402d4d27fe7b27aa72c05808030000006b483045022100b3a2815eb1ebaa0ef38098ece952b7a9dac5fbf2a613aafd8ef61ad8bfea99360220219e28d2d44e57a089e197e3aa3897bbe47390f4e0406be9eefbb9dd1c13e904012102e3cd8a8d273e404bd7630a33f9af1f19083ef31ef847717f0cd43c348f34c8bfffffffff06808d5b00000000001976a91407b9c0c08e181bb695b57a4d73d7b6dc174c977d88ac20c65d02000000001976a914fa27dabfa442645f930b36b75535a71adeae66dd88ac000e2707000000001976a914b49cd6f1c1773a3504ec1c4363db9aa9069f3e5b88ac00a3e111000000001976a914dda08907247400d81e9014a170d27683e36b030a88ac636bf808000000001976a914cb1fc6468853ffc1bfca3e47570c2b7ce750ea3c88ac97a09d05000000001976a914c1d6efaba3ddcd7afbb99e193897237a20de0f8388ac00000000"
    }, 
    {
      "txid": "fc62cf9cfd4591fd15bc39d98c18b4623d056d215b2720fa31332e183af6058d",
      "hash": "fc62cf9cfd4591fd15bc39d98c18b4623d056d215b2720fa31332e183af6058d",
      "version": 2,
      "size": 225,
      "vsize": 225,
      "locktime": 1359620,
      "vin": [
        {
          "txid": "020a2b4bf4cef5d411d9e2c720d6f6fa006df92fd5e7bd6125c81009bcd1b637",
          "vout": 1,
          "scriptSig": {
            "asm": "304402205b1219322dc4a9f602aff3f5be7d1d75aa0d5f5d34c38ca869b958d05db0d307022031472e3f47b4e22f5996a14319a0b99434b450e01f24f323dc9de7f3055fd489[ALL] 02f7f6bc2a6246fc924632b3801aeea3472cb56ec998520a978edd508a70c7c6b3",
            "hex": "47304402205b1219322dc4a9f602aff3f5be7d1d75aa0d5f5d34c38ca869b958d05db0d307022031472e3f47b4e22f5996a14319a0b99434b450e01f24f323dc9de7f3055fd489012102f7f6bc2a6246fc924632b3801aeea3472cb56ec998520a978edd508a70c7c6b3"
          },
          "sequence": 4294967294
        }
      ],
      "vout": [
        {
          "value": 465.21295676,
          "n": 0,
          "scriptPubKey": {
            "asm": "OP_DUP OP_HASH160 1948517d1b8f652ae91e72eb546f2bac038a8bd7 OP_EQUALVERIFY OP_CHECKSIG",
            "hex": "76a9141948517d1b8f652ae91e72eb546f2bac038a8bd788ac",
            "reqSigs": 1,
            "type": "pubkeyhash",
            "addresses": [
              "LMXdnmozaUJnUdBPjwu7wgtkdZZ3GVJADW"
            ]
          }
        }, 
        {
          "value": 7.17785523,
          "n": 1,
          "scriptPubKey": {
            "asm": "OP_DUP OP_HASH160 e23f781e44109072dfe1bca8dec0c3a3819b9154 OP_EQUALVERIFY OP_CHECKSIG",
            "hex": "76a914e23f781e44109072dfe1bca8dec0c3a3819b915488ac",
            "reqSigs": 1,
            "type": "pubkeyhash",
            "addresses": [
              "LfrF1V5F3kdXdh135fVPDdASks4b1ic5L4"
            ]
          }
        }
      ],
      "hex": "020000000137b6d1bc0910c82561bde7d52ff96d00faf6d620c7e2d911d4f5cef44b2b0a02010000006a47304402205b1219322dc4a9f602aff3f5be7d1d75aa0d5f5d34c38ca869b958d05db0d307022031472e3f47b4e22f5996a14319a0b99434b450e01f24f323dc9de7f3055fd489012102f7f6bc2a6246fc924632b3801aeea3472cb56ec998520a978edd508a70c7c6b3feffffff023ca3e2d40a0000001976a9141948517d1b8f652ae91e72eb546f2bac038a8bd788acb389c82a000000001976a914e23f781e44109072dfe1bca8dec0c3a3819b915488ac04bf1400"
    }, 
    {
      "txid": "9e97e03361ca71f08638ad8336231b520330bc419ca1904f19161af46eea2ea6",
      "hash": "9e97e03361ca71f08638ad8336231b520330bc419ca1904f19161af46eea2ea6",
      "version": 1,
      "size": 225,
      "vsize": 225,
      "locktime": 0,
      "vin": [
        {
          "txid": "68bffd3e4b44d2bded28b83ee18bbe3a8d96bbef925caa1a317819f7e8e2fae9",
          "vout": 1,
          "scriptSig": {
            "asm": "304402202b813d95217171a9451dcfd37cabc91e5efeeb7f290f2b8bd1234fb4d5e36ec802200ea079fb34b8bdc59099e1af673622cab2853d17fbde36f4ed35f68d6fb033a8[ALL] 0376fff60bf5c010e9dc69f8d809700f7e97547519d8da2684a2b8ceabc2c12930",
            "hex": "47304402202b813d95217171a9451dcfd37cabc91e5efeeb7f290f2b8bd1234fb4d5e36ec802200ea079fb34b8bdc59099e1af673622cab2853d17fbde36f4ed35f68d6fb033a801210376fff60bf5c010e9dc69f8d809700f7e97547519d8da2684a2b8ceabc2c12930"
          },
          "sequence": 4294967295
        }
      ],
      "vout": [
        {
          "value": 0.85118000,
          "n": 0,
          "scriptPubKey": {
            "asm": "OP_DUP OP_HASH160 235ba4c15c5acec29d8f02997a35f1ec471aa252 OP_EQUALVERIFY OP_CHECKSIG",
            "hex": "76a914235ba4c15c5acec29d8f02997a35f1ec471aa25288ac",
            "reqSigs": 1,
            "type": "pubkeyhash",
            "addresses": [
              "LNSuhS9LfnY32BT5EBsbziBZuvL52cAiqK"
            ]
          }
        }, 
        {
          "value": 66.60465494,
          "n": 1,
          "scriptPubKey": {
            "asm": "OP_DUP OP_HASH160 5a75b2c2bdd183ba042e2ecd6fdd219b60370a55 OP_EQUALVERIFY OP_CHECKSIG",
            "hex": "76a9145a75b2c2bdd183ba042e2ecd6fdd219b60370a5588ac",
            "reqSigs": 1,
            "type": "pubkeyhash",
            "addresses": [
              "LTUG5JEMqrsnPfMy7TmwMQ1PLqoMVS4Eax"
            ]
          }
        }
      ],
      "hex": "0100000001e9fae2e8f71978311aaa5c92efbb968d3abe8be13eb828edbdd2444b3efdbf68010000006a47304402202b813d95217171a9451dcfd37cabc91e5efeeb7f290f2b8bd1234fb4d5e36ec802200ea079fb34b8bdc59099e1af673622cab2853d17fbde36f4ed35f68d6fb033a801210376fff60bf5c010e9dc69f8d809700f7e97547519d8da2684a2b8ceabc2c12930ffffffff0230cc1205000000001976a914235ba4c15c5acec29d8f02997a35f1ec471aa25288ac56a3fe8c010000001976a9145a75b2c2bdd183ba042e2ecd6fdd219b60370a5588ac00000000"
    }, 
    {
      "txid": "ca888ee85e6b6b1418d0a90fff8146aa34b1271c63ca3fbf0e17509f44e4f3b4",
      "hash": "ca888ee85e6b6b1418d0a90fff8146aa34b1271c63ca3fbf0e17509f44e4f3b4",
      "version": 1,
      "size": 225,
      "vsize": 225,
      "locktime": 0,
      "vin": [
        {
          "txid": "a1ec0530612e32eeeaef9a0dfd3d8b8fb18d82567489f41c42a03a9c9882c2f6",
          "vout": 0,
          "scriptSig": {
            "asm": "304402205f8845ef265c3e9a69eefd180bc18038001f6856c4caa16bc1821d9cdce61a5302205fe019e702c89002c4b255a4303a6a86f780407273aa13dcbf68fe6d4d8a0a85[ALL] 03ff6a1de2ae2594df37268d8531d3f845ac724dd2e69798c36f33197b907e57bf",
            "hex": "47304402205f8845ef265c3e9a69eefd180bc18038001f6856c4caa16bc1821d9cdce61a5302205fe019e702c89002c4b255a4303a6a86f780407273aa13dcbf68fe6d4d8a0a85012103ff6a1de2ae2594df37268d8531d3f845ac724dd2e69798c36f33197b907e57bf"
          },
          "sequence": 4294967295
        }
      ],
      "vout": [
        {
          "value": 0.50817398,
          "n": 0,
          "scriptPubKey": {
            "asm": "OP_DUP OP_HASH160 9d5b4ab60943a651ce0cf56ab8135ca7483f2ac5 OP_EQUALVERIFY OP_CHECKSIG",
            "hex": "76a9149d5b4ab60943a651ce0cf56ab8135ca7483f2ac588ac",
            "reqSigs": 1,
            "type": "pubkeyhash",
            "addresses": [
              "LZZyiQ5Hw78LrsXg1ZhBb17wPXstMjsokB"
            ]
          }
        }, 
        {
          "value": 0.02139834,
          "n": 1,
          "scriptPubKey": {
            "asm": "OP_DUP OP_HASH160 8d86cb9c543a49fac5eab563033ceb69c2ae3e8b OP_EQUALVERIFY OP_CHECKSIG",
            "hex": "76a9148d86cb9c543a49fac5eab563033ceb69c2ae3e8b88ac",
            "reqSigs": 1,
            "type": "pubkeyhash",
            "addresses": [
              "LY8H21L81N4P3jV56Q7ZjkhSauRrkVPKf3"
            ]
          }
        }
      ],
      "hex": "0100000001f6c282989c3aa0421cf4897456828db18f8b3dfd0d9aefeaee322e613005eca1000000006a47304402205f8845ef265c3e9a69eefd180bc18038001f6856c4caa16bc1821d9cdce61a5302205fe019e702c89002c4b255a4303a6a86f780407273aa13dcbf68fe6d4d8a0a85012103ff6a1de2ae2594df37268d8531d3f845ac724dd2e69798c36f33197b907e57bfffffffff0276690703000000001976a9149d5b4ab60943a651ce0cf56ab8135ca7483f2ac588acbaa62000000000001976a9148d86cb9c543a49fac5eab563033ceb69c2ae3e8b88ac00000000"
    }, 
    {
      "txid": "1db5c0acd252cafd899befe1434cacdbfbdefdb142b533f0fecc2c1467d6a3dd",
      "hash": "1db5c0acd252cafd899befe1434cacdbfbdefdb142b533f0fecc2c1467d6a3dd",
      "version": 1,
      "size": 225,
      "vsize": 225,
      "locktime": 0,
      "vin": [
        {
          "txid": "48acba2964ea8d08743645b899d8737acb2e84a67d55e84665d861d9b62e9061",
          "vout": 1,
          "scriptSig": {
            "asm": "304402201e7c2a48b83de01c46e609db42ecd505806ca111ee05df9b61dff0f0f0ad0d3302206de95141239cc4dc1c2b2b3d3cdcfcb4c47cbfb472d020d497a49f0c50220860[ALL] 03502834bceca3335b8ccc2f2cd0fb17d8d640cfe24823994f765ea4ac77b1ab34",
            "hex": "47304402201e7c2a48b83de01c46e609db42ecd505806ca111ee05df9b61dff0f0f0ad0d3302206de95141239cc4dc1c2b2b3d3cdcfcb4c47cbfb472d020d497a49f0c50220860012103502834bceca3335b8ccc2f2cd0fb17d8d640cfe24823994f765ea4ac77b1ab34"
          },
          "sequence": 4294967295
        }
      ],
      "vout": [
        {
          "value": 70.38523540,
          "n": 0,
          "scriptPubKey": {
            "asm": "OP_DUP OP_HASH160 949e064a7f385db536b20621c54b44458015664d OP_EQUALVERIFY OP_CHECKSIG",
            "hex": "76a914949e064a7f385db536b20621c54b44458015664d88ac",
            "reqSigs": 1,
            "type": "pubkeyhash",
            "addresses": [
              "LYmmaLtsDREy9DGfj358yYNMPzc6qK8ynF"
            ]
          }
        }, 
        {
          "value": 1.06398000,
          "n": 1,
          "scriptPubKey": {
            "asm": "OP_DUP OP_HASH160 b2098f6ee058a6f25b257d96583095dd5e4cae3f OP_EQUALVERIFY OP_CHECKSIG",
            "hex": "76a914b2098f6ee058a6f25b257d96583095dd5e4cae3f88ac",
            "reqSigs": 1,
            "type": "pubkeyhash",
            "addresses": [
              "LbTKzcrxaxpsCtkb7h8Exj84AUTZZzQq2Y"
            ]
          }
        }
      ],
      "hex": "010000000161902eb6d961d86546e8557da6842ecb7a73d899b8453674088dea6429baac48010000006a47304402201e7c2a48b83de01c46e609db42ecd505806ca111ee05df9b61dff0f0f0ad0d3302206de95141239cc4dc1c2b2b3d3cdcfcb4c47cbfb472d020d497a49f0c50220860012103502834bceca3335b8ccc2f2cd0fb17d8d640cfe24823994f765ea4ac77b1ab34ffffffff02945887a3010000001976a914949e064a7f385db536b20621c54b44458015664d88ac30815706000000001976a914b2098f6ee058a6f25b257d96583095dd5e4cae3f88ac00000000"
    }, 
    {
      "txid": "96caec09c7681d41859da3fb52302c716753f5be2d5f2954fde70e7c2a656d83",
      "hash": "96caec09c7681d41859da3fb52302c716753f5be2d5f2954fde70e7c2a656d83",
      "version": 2,
      "size": 521,
      "vsize": 521,
      "locktime": 1359620,
      "vin": [
        {
          "txid": "98b3282406c86d0846131f10b2a57f5147d5792ebff85413290b78f1dc6e53e0",
          "vout": 0,
          "scriptSig": {
            "asm": "30450221009ecfe89ee3ac8969f9200b3e27d26886b84b54a5dba05e09be79dfad606cf569022071a9bbbc8b189688d3b721036a3fa5e65ab0623c8cb35b4c0f038f9ae6931bed[ALL] 033af32a6437bef30f69eab2ebc8595c9471eece8e61a3ff30d506add218380634",
            "hex": "4830450221009ecfe89ee3ac8969f9200b3e27d26886b84b54a5dba05e09be79dfad606cf569022071a9bbbc8b189688d3b721036a3fa5e65ab0623c8cb35b4c0f038f9ae6931bed0121033af32a6437bef30f69eab2ebc8595c9471eece8e61a3ff30d506add218380634"
          },
          "sequence": 4294967294
        }, 
        {
          "txid": "512cd8b1ef0dc198e0caedfeb1f9747cb6cf3463516051b52707a13ef76f56d6",
          "vout": 1,
          "scriptSig": {
            "asm": "30440220364539e2e1329c7d81e929d53f93469a215e65de6f7dfd4bb6bac71c54b020ec0220342113dc6f5816798e97ee0931571aab057b3c39f6dd7717ffd3aadaeaaa27e6[ALL] 03c5b4a8a0c5f866f5268ebdec92bafd56068f352192d47e74305d987c63e98f34",
            "hex": "4730440220364539e2e1329c7d81e929d53f93469a215e65de6f7dfd4bb6bac71c54b020ec0220342113dc6f5816798e97ee0931571aab057b3c39f6dd7717ffd3aadaeaaa27e6012103c5b4a8a0c5f866f5268ebdec92bafd56068f352192d47e74305d987c63e98f34"
          },
          "sequence": 4294967294
        }, 
        {
          "txid": "c582bd54de494857d88454011ca17068d4b2f74cf4e429bba679abb21e20eee8",
          "vout": 0,
          "scriptSig": {
            "asm": "3045022100d33069c11859c85a190d129b51d2a079cb36bd651091694c7aa40d22d37de01d0220327f2fde68df5c532a64e6459ccc5bafd1901e2923911184dc5caf8299e74755[ALL] 0345a3eaec64437b3416fdb19033cc3ee6fad6024ba4b26658fe4ea4c2dcbeabf0",
            "hex": "483045022100d33069c11859c85a190d129b51d2a079cb36bd651091694c7aa40d22d37de01d0220327f2fde68df5c532a64e6459ccc5bafd1901e2923911184dc5caf8299e7475501210345a3eaec64437b3416fdb19033cc3ee6fad6024ba4b26658fe4ea4c2dcbeabf0"
          },
          "sequence": 4294967294
        }
      ],
      "vout": [
        {
          "value": 0.11931999,
          "n": 0,
          "scriptPubKey": {
            "asm": "OP_DUP OP_HASH160 22e948d26d8033be80db003256ec7e15de32f2bc OP_EQUALVERIFY OP_CHECKSIG",
            "hex": "76a91422e948d26d8033be80db003256ec7e15de32f2bc88ac",
            "reqSigs": 1,
            "type": "pubkeyhash",
            "addresses": [
              "LNQYhd8Yidk4Wxe4wt2ZDSohRTho79eW5R"
            ]
          }
        }, 
        {
          "value": 0.02282004,
          "n": 1,
          "scriptPubKey": {
            "asm": "OP_DUP OP_HASH160 10f31d4e0ef74c356a5ce3106f0a3100c2dd9bbd OP_EQUALVERIFY OP_CHECKSIG",
            "hex": "76a91410f31d4e0ef74c356a5ce3106f0a3100c2dd9bbd88ac",
            "reqSigs": 1,
            "type": "pubkeyhash",
            "addresses": [
              "LLmaKAvmSZQcWRP3JjvJw8QyvLTvJKVUD2"
            ]
          }
        }
      ],
      "hex": "0200000003e0536edcf1780b291354f8bf2e79d547517fa5b2101f1346086dc8062428b398000000006b4830450221009ecfe89ee3ac8969f9200b3e27d26886b84b54a5dba05e09be79dfad606cf569022071a9bbbc8b189688d3b721036a3fa5e65ab0623c8cb35b4c0f038f9ae6931bed0121033af32a6437bef30f69eab2ebc8595c9471eece8e61a3ff30d506add218380634feffffffd6566ff73ea10727b55160516334cfb67c74f9b1feedcae098c10defb1d82c51010000006a4730440220364539e2e1329c7d81e929d53f93469a215e65de6f7dfd4bb6bac71c54b020ec0220342113dc6f5816798e97ee0931571aab057b3c39f6dd7717ffd3aadaeaaa27e6012103c5b4a8a0c5f866f5268ebdec92bafd56068f352192d47e74305d987c63e98f34feffffffe8ee201eb2ab79a6bb29e4f44cf7b2d46870a11c015484d8574849de54bd82c5000000006b483045022100d33069c11859c85a190d129b51d2a079cb36bd651091694c7aa40d22d37de01d0220327f2fde68df5c532a64e6459ccc5bafd1901e2923911184dc5caf8299e7475501210345a3eaec64437b3416fdb19033cc3ee6fad6024ba4b26658fe4ea4c2dcbeabf0feffffff025f11b600000000001976a91422e948d26d8033be80db003256ec7e15de32f2bc88ac14d22200000000001976a91410f31d4e0ef74c356a5ce3106f0a3100c2dd9bbd88ac04bf1400"
    }, 
    {
      "txid": "6f042e603fccc5b6c2854c5b260aa2d55721166940f6ad27a6c0b65bb20d5c81",
      "hash": "6f042e603fccc5b6c2854c5b260aa2d55721166940f6ad27a6c0b65bb20d5c81",
      "version": 1,
      "size": 192,
      "vsize": 192,
      "locktime": 1359620,
      "vin": [
        {
          "txid": "c57d245013d9addf82ed3323780eca680f0d081b0ecc1a786d95af266610bc03",
          "vout": 1,
          "scriptSig": {
            "asm": "3045022100c22a43af117336fec0f7d83685335df0ad368ce6ec698572ed129079d375b52502203b92d4a08f8b751a73ba12b89c86f6a8c79bef6f8f004ef58e911493a05badb9[ALL] 0277dc808e8258a4231b07d33bcfc47eae5f65283ca07f8a5056c448cdb50b3c6d",
            "hex": "483045022100c22a43af117336fec0f7d83685335df0ad368ce6ec698572ed129079d375b52502203b92d4a08f8b751a73ba12b89c86f6a8c79bef6f8f004ef58e911493a05badb901210277dc808e8258a4231b07d33bcfc47eae5f65283ca07f8a5056c448cdb50b3c6d"
          },
          "sequence": 4294967294
        }
      ],
      "vout": [
        {
          "value": 0.80780800,
          "n": 0,
          "scriptPubKey": {
            "asm": "OP_DUP OP_HASH160 b6655fc00b140058c9ecd02d152d81c8dd5763d1 OP_EQUALVERIFY OP_CHECKSIG",
            "hex": "76a914b6655fc00b140058c9ecd02d152d81c8dd5763d188ac",
            "reqSigs": 1,
            "type": "pubkeyhash",
            "addresses": [
              "LbrNgiXf4v7JoN4B4PbxWPc8bySvHW2Qnp"
            ]
          }
        }
      ],
      "hex": "010000000103bc106626af956d781acc0e1b080d0f68ca0e782333ed82dfadd91350247dc5010000006b483045022100c22a43af117336fec0f7d83685335df0ad368ce6ec698572ed129079d375b52502203b92d4a08f8b751a73ba12b89c86f6a8c79bef6f8f004ef58e911493a05badb901210277dc808e8258a4231b07d33bcfc47eae5f65283ca07f8a5056c448cdb50b3c6dfeffffff01009ed004000000001976a914b6655fc00b140058c9ecd02d152d81c8dd5763d188ac04bf1400"
    }, 
    {
      "txid": "c4790668812d2f28ede668e2275f203536cdf9d92af6779781f5fed6016d05e5",
      "hash": "c4790668812d2f28ede668e2275f203536cdf9d92af6779781f5fed6016d05e5",
      "version": 1,
      "size": 226,
      "vsize": 226,
      "locktime": 0,
      "vin": [
        {
          "txid": "f67dfdd80eef871c20af9acd3026103842419896fdce372ebfef76b438be9a61",
          "vout": 0,
          "scriptSig": {
            "asm": "30450221009c56200b57fde08d0489677f9a0648de6d51a26806939b6087c39449bb4de5fe022038c8b713a3e9e4f825b0ea2713f8ad02e241287bfa74cfe7b50f8bd598437531[ALL] 0246fe0e47d5df4f6256bb4c1ce3168d402ef7ed1aa6fa739a15e0d0fd38c0154e",
            "hex": "4830450221009c56200b57fde08d0489677f9a0648de6d51a26806939b6087c39449bb4de5fe022038c8b713a3e9e4f825b0ea2713f8ad02e241287bfa74cfe7b50f8bd59843753101210246fe0e47d5df4f6256bb4c1ce3168d402ef7ed1aa6fa739a15e0d0fd38c0154e"
          },
          "sequence": 4294967295
        }
      ],
      "vout": [
        {
          "value": 0.06897400,
          "n": 0,
          "scriptPubKey": {
            "asm": "OP_DUP OP_HASH160 9f77b394d199266763ffa6c45893e8b5caaa0b59 OP_EQUALVERIFY OP_CHECKSIG",
            "hex": "76a9149f77b394d199266763ffa6c45893e8b5caaa0b5988ac",
            "reqSigs": 1,
            "type": "pubkeyhash",
            "addresses": [
              "LZm96ig9Xh2a4P7egtBsPKbvCHRf9h6RRb"
            ]
          }
        }, 
        {
          "value": 0.00080000,
          "n": 1,
          "scriptPubKey": {
            "asm": "OP_DUP OP_HASH160 16c7d4e3431d01c43ff84404bc885f7e64581af7 OP_EQUALVERIFY OP_CHECKSIG",
            "hex": "76a91416c7d4e3431d01c43ff84404bc885f7e64581af788ac",
            "reqSigs": 1,
            "type": "pubkeyhash",
            "addresses": [
              "LMJQWyYhtkvHScpB76qwrn1tjdKC2YvZvN"
            ]
          }
        }
      ],
      "hex": "0100000001619abe38b476efbf2e37cefd9698414238102630cd9aaf201c87ef0ed8fd7df6000000006b4830450221009c56200b57fde08d0489677f9a0648de6d51a26806939b6087c39449bb4de5fe022038c8b713a3e9e4f825b0ea2713f8ad02e241287bfa74cfe7b50f8bd59843753101210246fe0e47d5df4f6256bb4c1ce3168d402ef7ed1aa6fa739a15e0d0fd38c0154effffffff02f83e6900000000001976a9149f77b394d199266763ffa6c45893e8b5caaa0b5988ac80380100000000001976a91416c7d4e3431d01c43ff84404bc885f7e64581af788ac00000000"
    }, 
    {
      "txid": "6016cb90dff62a19c304a222870321154fc9bf6571d2ce60057a489bc8527be6",
      "hash": "6016cb90dff62a19c304a222870321154fc9bf6571d2ce60057a489bc8527be6",
      "version": 1,
      "size": 226,
      "vsize": 226,
      "locktime": 0,
      "vin": [
        {
          "txid": "34c2a887b025d53a93384d3e80a2bcfebf7da40f18357dd12360ae8530080c4b",
          "vout": 0,
          "scriptSig": {
            "asm": "3045022100cb29dcdac93594adbac1493a814c89ad18054e73c3f4eb83aaf7964c6ed5b3200220513f45546b788388a4f1dd072c3a18fc69278b5d1984df4bd58474233289141a[ALL] 02f32b52ded16868f7623b95061a43b0d1ed0f7bd0cb75494c9fb96d214deb395e",
            "hex": "483045022100cb29dcdac93594adbac1493a814c89ad18054e73c3f4eb83aaf7964c6ed5b3200220513f45546b788388a4f1dd072c3a18fc69278b5d1984df4bd58474233289141a012102f32b52ded16868f7623b95061a43b0d1ed0f7bd0cb75494c9fb96d214deb395e"
          },
          "sequence": 4294967295
        }
      ],
      "vout": [
        {
          "value": 5.89324455,
          "n": 0,
          "scriptPubKey": {
            "asm": "OP_DUP OP_HASH160 9a51cf7ea6bbb53147e72de545cfbd555e0b0414 OP_EQUALVERIFY OP_CHECKSIG",
            "hex": "76a9149a51cf7ea6bbb53147e72de545cfbd555e0b041488ac",
            "reqSigs": 1,
            "type": "pubkeyhash",
            "addresses": [
              "LZHvL3rB6fSA36mvg5qWvCByKVjm6WAx55"
            ]
          }
        }, 
        {
          "value": 65.16966380,
          "n": 1,
          "scriptPubKey": {
            "asm": "OP_DUP OP_HASH160 9b48df4c751f95e5367d28cae45288e1faa2e653 OP_EQUALVERIFY OP_CHECKSIG",
            "hex": "76a9149b48df4c751f95e5367d28cae45288e1faa2e65388ac",
            "reqSigs": 1,
            "type": "pubkeyhash",
            "addresses": [
              "LZP2JCZYT8QcbrqyTW1ypWyGdTJAiLHbqe"
            ]
          }
        }
      ],
      "hex": "01000000014b0c083085ae6023d17d35180fa47dbffebca2803e4d38933ad525b087a8c234000000006b483045022100cb29dcdac93594adbac1493a814c89ad18054e73c3f4eb83aaf7964c6ed5b3200220513f45546b788388a4f1dd072c3a18fc69278b5d1984df4bd58474233289141a012102f32b52ded16868f7623b95061a43b0d1ed0f7bd0cb75494c9fb96d214deb395effffffff02a7602023000000001976a9149a51cf7ea6bbb53147e72de545cfbd555e0b041488acec037184010000001976a9149b48df4c751f95e5367d28cae45288e1faa2e65388ac00000000"
    }, 
    {
      "txid": "94b9d845f930e17ebf9961b271cc9f20b96aa80c901191a1d97fa74f80c320f0",
      "hash": "94b9d845f930e17ebf9961b271cc9f20b96aa80c901191a1d97fa74f80c320f0",
      "version": 2,
      "size": 226,
      "vsize": 226,
      "locktime": 1359620,
      "vin": [
        {
          "txid": "df95f36c8830283eb405f4091ca844ee4d54404aaaa0bb8393707f394ccb4231",
          "vout": 0,
          "scriptSig": {
            "asm": "3045022100dce89a5c04e74851dbc4a27c664063997eeea20bfeccebf72a6a61f5f4afd3cd022052fe00216edb1547b2d6207b443eae8808d1127889be396bae03b4e765587423[ALL] 036ca82edf8745506cf003aa3cc948fe1b2ec3268619099be8a2cd3dec0032e614",
            "hex": "483045022100dce89a5c04e74851dbc4a27c664063997eeea20bfeccebf72a6a61f5f4afd3cd022052fe00216edb1547b2d6207b443eae8808d1127889be396bae03b4e7655874230121036ca82edf8745506cf003aa3cc948fe1b2ec3268619099be8a2cd3dec0032e614"
          },
          "sequence": 4294967294
        }
      ],
      "vout": [
        {
          "value": 471.30824522,
          "n": 0,
          "scriptPubKey": {
            "asm": "OP_DUP OP_HASH160 f3792f4f5cb36e5458e8f7e240506b2597ff527a OP_EQUALVERIFY OP_CHECKSIG",
            "hex": "76a914f3792f4f5cb36e5458e8f7e240506b2597ff527a88ac",
            "reqSigs": 1,
            "type": "pubkeyhash",
            "addresses": [
              "LhRKdtuDsNpPVoV2Q4QF6JHCdfsDqm49RJ"
            ]
          }
        }, 
        {
          "value": 0.23618809,
          "n": 1,
          "scriptPubKey": {
            "asm": "OP_DUP OP_HASH160 3e80626233501b6cf142c305f5729003a6ca68d1 OP_EQUALVERIFY OP_CHECKSIG",
            "hex": "76a9143e80626233501b6cf142c305f5729003a6ca68d188ac",
            "reqSigs": 1,
            "type": "pubkeyhash",
            "addresses": [
              "LQvRxQS21kA53H2FiB8vSd3mCkTqsEKN92"
            ]
          }
        }
      ],
      "hex": "02000000013142cb4c397f709383bba0aa4a40544dee44a81c09f405b43e2830886cf395df000000006b483045022100dce89a5c04e74851dbc4a27c664063997eeea20bfeccebf72a6a61f5f4afd3cd022052fe00216edb1547b2d6207b443eae8808d1127889be396bae03b4e7655874230121036ca82edf8745506cf003aa3cc948fe1b2ec3268619099be8a2cd3dec0032e614feffffff024a4f37f90a0000001976a914f3792f4f5cb36e5458e8f7e240506b2597ff527a88acf9646801000000001976a9143e80626233501b6cf142c305f5729003a6ca68d188ac04bf1400"
    }
  ],
  "time": 1517308804,
  "mediantime": 1517308042,
  "nonce": 3714550468,
  "bits": "1a042eae",
  "difficulty": 4011378.762614286,
  "chainwork": "0000000000000000000000000000000000000000000000342d40e06719b12d8e",
  "previousblockhash": "8bd2b05a680ab9caef6047c6548249a401b799569f2ddaf4c24be7ab39ad9346",
  "nextblockhash": "bb8c1f53052d556aa97ee8f6e3821cf95a4e3c95d7d08776f671f3041a6aee5b"
}
