{
  "hash": "3ee4cef33584b6309b0536e0c18a1636331a4f9ded4f8ef41f5dc251c79cabc4",
  "confirmations": 1992,
  "strippedsize": 3821,
  "size": 4078,
  "weight": 15541,
  "height": 1359002,
  "version": 536870912,
  "versionHex": "20000000",
  "merkleroot": "737b93560dcb5f67c70bfdbc013f1fcccd424ba262984fcd096a7daf432299f8",
  "tx": [
    {
      "txid": "6f8f230f9bb86b1d79cb0354a85fc48baeb00661e7a956c79a35a41419f30a70",
      "hash": "78fbe535a7601c7be2c083ab0d3e39a28120a60c8fe3abbe896de036825e44e6",
      "version": 1,
      "size": 200,
      "vsize": 173,
      "locktime": 0,
      "vin": [
        {
          "coinbase": "039abc1404e1fb6e5a082000011def4900000d2f6e6f64655374726174756d2f",
          "sequence": 0
        }
      ],
      "vout": [
        {
          "value": 0.00000000,
          "n": 0,
          "scriptPubKey": {
            "asm": "OP_RETURN aa21a9ed35959adddd024c497c9515775fb1546f59ba700073a20c3484f3f24434a3e603",
            "hex": "6a24aa21a9ed35959adddd024c497c9515775fb1546f59ba700073a20c3484f3f24434a3e603",
            "type": "nulldata"
          }
        }, 
        {
          "value": 25.02033800,
          "n": 1,
          "scriptPubKey": {
            "asm": "OP_DUP OP_HASH160 8836a0d567257e801254e29be08629fb71f36f9f OP_EQUALVERIFY OP_CHECKSIG",
            "hex": "76a9148836a0d567257e801254e29be08629fb71f36f9f88ac",
            "reqSigs": 1,
            "type": "pubkeyhash",
            "addresses": [
              "LXeBbwTXnzwSUzSbVubDZu4brFzmMjehn3"
            ]
          }
        }
      ],
      "hex": "010000000001010000000000000000000000000000000000000000000000000000000000000000ffffffff20039abc1404e1fb6e5a082000011def4900000d2f6e6f64655374726174756d2f00000000020000000000000000266a24aa21a9ed35959adddd024c497c9515775fb1546f59ba700073a20c3484f3f24434a3e60388012295000000001976a9148836a0d567257e801254e29be08629fb71f36f9f88ac0120000000000000000000000000000000000000000000000000000000000000000000000000"
    }, 
    {
      "txid": "2b642b60ae1a5a78bc97e65cfbf1f97d9ab1c1399bea12aceca89d616af146fa",
      "hash": "2b642b60ae1a5a78bc97e65cfbf1f97d9ab1c1399bea12aceca89d616af146fa",
      "version": 1,
      "size": 406,
      "vsize": 406,
      "locktime": 0,
      "vin": [
        {
          "txid": "3a2bd0ddf0466e4bff62479e05e44984b4fd312e2d46982f1caf66e81c80a408",
          "vout": 8,
          "scriptSig": {
            "asm": "0 3045022100b65c0a0f698a02625d315c64b5f8caf1771435aa66dde4fc6fed8d33a31fccdc0220193a632ff0c393fda6a14f81297b6a88b2c116d3097a98743fdaa3233ef3f0c1[ALL] 3044022050235a8583bd7d0d57b42103ebbaffb51768298773edeab11d26e3afc46f8134022061d879e7032b5db4376f856d6849e021a9ff9ca553564c45d09647c6a7a85fd4[ALL] 5221022ce7e5243736c02dc024c6b7d0edf69c2ad388872591ba7b9993ab3597301f2321031e9f4f096e165b7281ffcd6c1f73b94b826bea5d63cdc40ab89313cabc8c7bc521032d8e739cdf77ff99b6644c05ef5e7432ad9d974ae8f8887615a0c813d2116b2d53ae",
            "hex": "00483045022100b65c0a0f698a02625d315c64b5f8caf1771435aa66dde4fc6fed8d33a31fccdc0220193a632ff0c393fda6a14f81297b6a88b2c116d3097a98743fdaa3233ef3f0c101473044022050235a8583bd7d0d57b42103ebbaffb51768298773edeab11d26e3afc46f8134022061d879e7032b5db4376f856d6849e021a9ff9ca553564c45d09647c6a7a85fd4014c695221022ce7e5243736c02dc024c6b7d0edf69c2ad388872591ba7b9993ab3597301f2321031e9f4f096e165b7281ffcd6c1f73b94b826bea5d63cdc40ab89313cabc8c7bc521032d8e739cdf77ff99b6644c05ef5e7432ad9d974ae8f8887615a0c813d2116b2d53ae"
          },
          "sequence": 4294967295
        }
      ],
      "vout": [
        {
          "value": 1.42778506,
          "n": 0,
          "scriptPubKey": {
            "asm": "OP_DUP OP_HASH160 bf5d4ecf69968114f535bf9a1350702a26b2bdb5 OP_EQUALVERIFY OP_CHECKSIG",
            "hex": "76a914bf5d4ecf69968114f535bf9a1350702a26b2bdb588ac",
            "reqSigs": 1,
            "type": "pubkeyhash",
            "addresses": [
              "Lcfo6ziLQRPf8C4hp4FmobXjBBTagoJQWr"
            ]
          }
        }, 
        {
          "value": 11.23503494,
          "n": 1,
          "scriptPubKey": {
            "asm": "OP_HASH160 bcb5ba3a0eaeb54a278e77a7b0aacbcb032174c7 OP_EQUAL",
            "hex": "a914bcb5ba3a0eaeb54a278e77a7b0aacbcb032174c787",
            "reqSigs": 1,
            "type": "scripthash",
            "addresses": [
              "MR6xy917RbURz8QCAncA3Cnsdt2uN4qsxd"
            ]
          }
        }, 
        {
          "value": 0.32500000,
          "n": 2,
          "scriptPubKey": {
            "asm": "OP_DUP OP_HASH160 19c7408f555736f919247d2748b62d17524869bd OP_EQUALVERIFY OP_CHECKSIG",
            "hex": "76a91419c7408f555736f919247d2748b62d17524869bd88ac",
            "reqSigs": 1,
            "type": "pubkeyhash",
            "addresses": [
              "LMaFrHyPEHJNZMkkuBYW64VQB9RE5tuhGm"
            ]
          }
        }
      ],
      "hex": "010000000108a4801ce866af1c2f98462d2e31fdb48449e4059e4762ff4b6e46f0ddd02b3a08000000fdfd0000483045022100b65c0a0f698a02625d315c64b5f8caf1771435aa66dde4fc6fed8d33a31fccdc0220193a632ff0c393fda6a14f81297b6a88b2c116d3097a98743fdaa3233ef3f0c101473044022050235a8583bd7d0d57b42103ebbaffb51768298773edeab11d26e3afc46f8134022061d879e7032b5db4376f856d6849e021a9ff9ca553564c45d09647c6a7a85fd4014c695221022ce7e5243736c02dc024c6b7d0edf69c2ad388872591ba7b9993ab3597301f2321031e9f4f096e165b7281ffcd6c1f73b94b826bea5d63cdc40ab89313cabc8c7bc521032d8e739cdf77ff99b6644c05ef5e7432ad9d974ae8f8887615a0c813d2116b2d53aeffffffff038aa08208000000001976a914bf5d4ecf69968114f535bf9a1350702a26b2bdb588ac864df7420000000017a914bcb5ba3a0eaeb54a278e77a7b0aacbcb032174c78720e9ef01000000001976a91419c7408f555736f919247d2748b62d17524869bd88ac00000000"
    }, 
    {
      "txid": "cb5bdb64d00cbc1ae8303f747ea7a3ff8063a8340579ce7a5462a9425856d685",
      "hash": "cb5bdb64d00cbc1ae8303f747ea7a3ff8063a8340579ce7a5462a9425856d685",
      "version": 1,
      "size": 995,
      "vsize": 995,
      "locktime": 0,
      "vin": [
        {
          "txid": "6e840dd431decc88217fc212342a120b1c10b4f54141f99e65aa6edaa6f2258f",
          "vout": 18,
          "scriptSig": {
            "asm": "3045022100d33723f47c0f6655deb29166dbdfc738a01b1036901ec4d51bce37409db4769502200552ba0cfd3d501de190539b66dceb9f5f7b2724147bfd513e936494a723dbc6[ALL] 033674698abc225ba8876f913806a9317e8fdb8e269288a719cefc793904850ce8",
            "hex": "483045022100d33723f47c0f6655deb29166dbdfc738a01b1036901ec4d51bce37409db4769502200552ba0cfd3d501de190539b66dceb9f5f7b2724147bfd513e936494a723dbc60121033674698abc225ba8876f913806a9317e8fdb8e269288a719cefc793904850ce8"
          },
          "sequence": 4294967295
        }, 
        {
          "txid": "9f51562bed56abd742b855f47781c4da41a24c04c8e639bade5d64e0615be1e6",
          "vout": 32,
          "scriptSig": {
            "asm": "3044022044e3c720b35e93c0392721b32b1b15f72d2ec2dd26a4db12a3f1a78890c0171202206e956cd3ba39fc641cb226bf66dbc45aa9bfda28717451ae402feb2b3e4f8441[ALL] 037298138e75f17998c1234a81be25b77497d253a944ed0c6adf027d7cabadc0e0",
            "hex": "473044022044e3c720b35e93c0392721b32b1b15f72d2ec2dd26a4db12a3f1a78890c0171202206e956cd3ba39fc641cb226bf66dbc45aa9bfda28717451ae402feb2b3e4f84410121037298138e75f17998c1234a81be25b77497d253a944ed0c6adf027d7cabadc0e0"
          },
          "sequence": 4294967295
        }, 
        {
          "txid": "c1eb1c4169148f90cb5d4e0e87c17843b446c614c4fe4ded869e3e8df6f6252e",
          "vout": 2,
          "scriptSig": {
            "asm": "30440220086104217125c68af1a6e59d7e605988e0235e273bfbebc9c86b532d391a281e022075d7c6644f91b2fc2681d06dd2a8d58953078c3113ca20b18a8bf6cb3be8065a[ALL] 03968e893574803406f81e9c8b585bd939bbdaecddaf9ada381692d7d5cea66a80",
            "hex": "4730440220086104217125c68af1a6e59d7e605988e0235e273bfbebc9c86b532d391a281e022075d7c6644f91b2fc2681d06dd2a8d58953078c3113ca20b18a8bf6cb3be8065a012103968e893574803406f81e9c8b585bd939bbdaecddaf9ada381692d7d5cea66a80"
          },
          "sequence": 4294967295
        }, 
        {
          "txid": "d2a56f7f3b1bf44a71d90eb475f7e70c129c08eaeae2d374e35877861d0e5ee0",
          "vout": 729,
          "scriptSig": {
            "asm": "3045022100b4063cb843624c82dbaaf626a3f9a029af9b90056d79a739008bfb1d792ea535022044afd21bcad35b3f27de6dd8f5cd77bd02ef204c6df749225dfb427ecbac72f1[ALL] 0353b0259c88b1a805b05068f689a4759a5e30230a05cd6352e6205c915459e24e",
            "hex": "483045022100b4063cb843624c82dbaaf626a3f9a029af9b90056d79a739008bfb1d792ea535022044afd21bcad35b3f27de6dd8f5cd77bd02ef204c6df749225dfb427ecbac72f101210353b0259c88b1a805b05068f689a4759a5e30230a05cd6352e6205c915459e24e"
          },
          "sequence": 4294967295
        }, 
        {
          "txid": "d2a56f7f3b1bf44a71d90eb475f7e70c129c08eaeae2d374e35877861d0e5ee0",
          "vout": 921,
          "scriptSig": {
            "asm": "3045022100cc1dd5a3c3d882102a83d1f7ba61bdc1dc8e43a12b482b3dcc63620438359eb50220594ba3699388c4d47333445c173113f05e40f762541adb07d8a6e605498db07b[ALL] 038ea744663e678ae20456604ce288ba2071aa5272076453c0208242f7644790f0",
            "hex": "483045022100cc1dd5a3c3d882102a83d1f7ba61bdc1dc8e43a12b482b3dcc63620438359eb50220594ba3699388c4d47333445c173113f05e40f762541adb07d8a6e605498db07b0121038ea744663e678ae20456604ce288ba2071aa5272076453c0208242f7644790f0"
          },
          "sequence": 4294967295
        }, 
        {
          "txid": "d2a56f7f3b1bf44a71d90eb475f7e70c129c08eaeae2d374e35877861d0e5ee0",
          "vout": 1352,
          "scriptSig": {
            "asm": "304402201186ca4d36fd3b26c4547d20a060c1505d3c972b34b1781f1fb495f3133cfbd8022059af153aea3deb7d47e9d7634c951845cd818bbd9c685fbd1cd8483da93f180c[ALL] 026dbd5a4bbdf4edae3af8080570dfdc1130546c9d87b2f5360c234e0918f3c4b4",
            "hex": "47304402201186ca4d36fd3b26c4547d20a060c1505d3c972b34b1781f1fb495f3133cfbd8022059af153aea3deb7d47e9d7634c951845cd818bbd9c685fbd1cd8483da93f180c0121026dbd5a4bbdf4edae3af8080570dfdc1130546c9d87b2f5360c234e0918f3c4b4"
          },
          "sequence": 4294967295
        }
      ],
      "vout": [
        {
          "value": 4.99900000,
          "n": 0,
          "scriptPubKey": {
            "asm": "OP_DUP OP_HASH160 7bb3655c4a3d7b2c09b9d5529ac6d1ad36fb803f OP_EQUALVERIFY OP_CHECKSIG",
            "hex": "76a9147bb3655c4a3d7b2c09b9d5529ac6d1ad36fb803f88ac",
            "reqSigs": 1,
            "type": "pubkeyhash",
            "addresses": [
              "LWW2HTS644oA2kgGYtCkkuKnvE86mjvMhN"
            ]
          }
        }, 
        {
          "value": 0.12454840,
          "n": 1,
          "scriptPubKey": {
            "asm": "OP_HASH160 0dbf437f3bc5c6814f72d9e13f4c45602ff03bdf OP_EQUAL",
            "hex": "a9140dbf437f3bc5c6814f72d9e13f4c45602ff03bdf87",
            "reqSigs": 1,
            "type": "scripthash",
            "addresses": [
              "M99r9A1GWeubBt2ETG2nkuzreRx8ZkVSB9"
            ]
          }
        }, 
        {
          "value": 4.19276329,
          "n": 2,
          "scriptPubKey": {
            "asm": "OP_DUP OP_HASH160 904f7096a66f7493ebe8f3b45fc3595f4a70f970 OP_EQUALVERIFY OP_CHECKSIG",
            "hex": "76a914904f7096a66f7493ebe8f3b45fc3595f4a70f97088ac",
            "reqSigs": 1,
            "type": "pubkeyhash",
            "addresses": [
              "LYNzjQmRgiLKM2EGZX5JHisDsFTYuFkVCq"
            ]
          }
        }
      ],
      "hex": "01000000068f25f2a6da6eaa659ef94141f5b4101c0b122a3412c27f2188ccde31d40d846e120000006b483045022100d33723f47c0f6655deb29166dbdfc738a01b1036901ec4d51bce37409db4769502200552ba0cfd3d501de190539b66dceb9f5f7b2724147bfd513e936494a723dbc60121033674698abc225ba8876f913806a9317e8fdb8e269288a719cefc793904850ce8ffffffffe6e15b61e0645ddeba39e6c8044ca241dac48177f455b842d7ab56ed2b56519f200000006a473044022044e3c720b35e93c0392721b32b1b15f72d2ec2dd26a4db12a3f1a78890c0171202206e956cd3ba39fc641cb226bf66dbc45aa9bfda28717451ae402feb2b3e4f84410121037298138e75f17998c1234a81be25b77497d253a944ed0c6adf027d7cabadc0e0ffffffff2e25f6f68d3e9e86ed4dfec414c646b44378c1870e4e5dcb908f1469411cebc1020000006a4730440220086104217125c68af1a6e59d7e605988e0235e273bfbebc9c86b532d391a281e022075d7c6644f91b2fc2681d06dd2a8d58953078c3113ca20b18a8bf6cb3be8065a012103968e893574803406f81e9c8b585bd939bbdaecddaf9ada381692d7d5cea66a80ffffffffe05e0e1d867758e374d3e2eaea089c120ce7f775b40ed9714af41b3b7f6fa5d2d90200006b483045022100b4063cb843624c82dbaaf626a3f9a029af9b90056d79a739008bfb1d792ea535022044afd21bcad35b3f27de6dd8f5cd77bd02ef204c6df749225dfb427ecbac72f101210353b0259c88b1a805b05068f689a4759a5e30230a05cd6352e6205c915459e24effffffffe05e0e1d867758e374d3e2eaea089c120ce7f775b40ed9714af41b3b7f6fa5d2990300006b483045022100cc1dd5a3c3d882102a83d1f7ba61bdc1dc8e43a12b482b3dcc63620438359eb50220594ba3699388c4d47333445c173113f05e40f762541adb07d8a6e605498db07b0121038ea744663e678ae20456604ce288ba2071aa5272076453c0208242f7644790f0ffffffffe05e0e1d867758e374d3e2eaea089c120ce7f775b40ed9714af41b3b7f6fa5d2480500006a47304402201186ca4d36fd3b26c4547d20a060c1505d3c972b34b1781f1fb495f3133cfbd8022059af153aea3deb7d47e9d7634c951845cd818bbd9c685fbd1cd8483da93f180c0121026dbd5a4bbdf4edae3af8080570dfdc1130546c9d87b2f5360c234e0918f3c4b4ffffffff0360decb1d000000001976a9147bb3655c4a3d7b2c09b9d5529ac6d1ad36fb803f88acb80bbe000000000017a9140dbf437f3bc5c6814f72d9e13f4c45602ff03bdf8729a6fd18000000001976a914904f7096a66f7493ebe8f3b45fc3595f4a70f97088ac00000000"
    }, 
    {
      "txid": "dc425d8adf482450d212f734caa7244e3e946abb7cc322b3e04caa0f586d834e",
      "hash": "dc425d8adf482450d212f734caa7244e3e946abb7cc322b3e04caa0f586d834e",
      "version": 1,
      "size": 669,
      "vsize": 669,
      "locktime": 1358962,
      "vin": [
        {
          "txid": "c5a16a74f3dd990702b6f30bd35d98aff1ff34eed313e0f049b1ab5551a6263d",
          "vout": 0,
          "scriptSig": {
            "asm": "3044022005e5d84a1fdf4484261cd54a523b76fa99159f0ad772af457bbf7938734e8455022036e2e694fc281a0d120d67bd055429ee38039ac490af681cfa22e3a0052851f9[ALL] 03b0d756522c60b518a5ff9cc3e6676c08a5f20584ef49329e536d5688fba47482",
            "hex": "473044022005e5d84a1fdf4484261cd54a523b76fa99159f0ad772af457bbf7938734e8455022036e2e694fc281a0d120d67bd055429ee38039ac490af681cfa22e3a0052851f9012103b0d756522c60b518a5ff9cc3e6676c08a5f20584ef49329e536d5688fba47482"
          },
          "sequence": 4294967294
        }, 
        {
          "txid": "9f2fb8a8cec79303ebeb8bda8b7c4e4eae73b133de684176dee836b632f62540",
          "vout": 2,
          "scriptSig": {
            "asm": "304502210084dbd0ef9d6b406203f8ca04034a7839efd572d37224856c0625d8269c2a5d4d02203be922bd302af6bfd4705e36a44441b9db4b55a71c5f61568cd25c5c427593f2[ALL] 02e5fcd359e11bcecbef1f58ee5867dd1c1d3a9637a9adcb9367ce4ed45f880b3f",
            "hex": "48304502210084dbd0ef9d6b406203f8ca04034a7839efd572d37224856c0625d8269c2a5d4d02203be922bd302af6bfd4705e36a44441b9db4b55a71c5f61568cd25c5c427593f2012102e5fcd359e11bcecbef1f58ee5867dd1c1d3a9637a9adcb9367ce4ed45f880b3f"
          },
          "sequence": 4294967294
        }, 
        {
          "txid": "dd23a48cc13c70a259f2fae454f7a7b334abaad19e0a5039566ace3ed47cbf1b",
          "vout": 0,
          "scriptSig": {
            "asm": "3045022100c6ef18504bd011848a6f69b3630ecce6c559602f8fd9e28b350418fda6da939c022029e994a5f579b11cfcd4c808fae766bebb605a8ac1e8e5c695deabfaacc2b678[ALL] 0396a50ff4644e6b9611ce55438b7f5417f5d6e2158fbac28f0a79d3843b0f1bb8",
            "hex": "483045022100c6ef18504bd011848a6f69b3630ecce6c559602f8fd9e28b350418fda6da939c022029e994a5f579b11cfcd4c808fae766bebb605a8ac1e8e5c695deabfaacc2b67801210396a50ff4644e6b9611ce55438b7f5417f5d6e2158fbac28f0a79d3843b0f1bb8"
          },
          "sequence": 4294967294
        }, 
        {
          "txid": "3a7bf17b7d001ed0d6bc89c5232f154a2833ab89e19057824d869db8fbe820a4",
          "vout": 0,
          "scriptSig": {
            "asm": "3045022100e480ef30fa427d60c725ec076fa10a5c349f62e78da5acf69da02d93f0fcfc0c022007c7f5ab361ce78bfcd2a58e6ae370b2804aacbba1024dcc921ac0cff407c558[ALL] 021edf46a86ab1d8b6edf1a08b32079a8e449706bd6d71da3365b0ec4fec946d8d",
            "hex": "483045022100e480ef30fa427d60c725ec076fa10a5c349f62e78da5acf69da02d93f0fcfc0c022007c7f5ab361ce78bfcd2a58e6ae370b2804aacbba1024dcc921ac0cff407c5580121021edf46a86ab1d8b6edf1a08b32079a8e449706bd6d71da3365b0ec4fec946d8d"
          },
          "sequence": 4294967294
        }
      ],
      "vout": [
        {
          "value": 32.00000000,
          "n": 0,
          "scriptPubKey": {
            "asm": "OP_DUP OP_HASH160 895ffd1a34430077085d9cf693874087df522391 OP_EQUALVERIFY OP_CHECKSIG",
            "hex": "76a914895ffd1a34430077085d9cf693874087df52239188ac",
            "reqSigs": 1,
            "type": "pubkeyhash",
            "addresses": [
              "LXkKpuQCjhi9CTZPwQbuP4BKr13KWEyDQg"
            ]
          }
        }, 
        {
          "value": 0.01000044,
          "n": 1,
          "scriptPubKey": {
            "asm": "OP_DUP OP_HASH160 91567cbd7b0bcc51b04925a1092c8f64820fb5e7 OP_EQUALVERIFY OP_CHECKSIG",
            "hex": "76a91491567cbd7b0bcc51b04925a1092c8f64820fb5e788ac",
            "reqSigs": 1,
            "type": "pubkeyhash",
            "addresses": [
              "LYURrGZGzHM4gCtKjbJwQmK9B2WF5jxaBc"
            ]
          }
        }
      ],
      "hex": "01000000043d26a65155abb149f0e013d3ee34fff1af985dd30bf3b6020799ddf3746aa1c5000000006a473044022005e5d84a1fdf4484261cd54a523b76fa99159f0ad772af457bbf7938734e8455022036e2e694fc281a0d120d67bd055429ee38039ac490af681cfa22e3a0052851f9012103b0d756522c60b518a5ff9cc3e6676c08a5f20584ef49329e536d5688fba47482feffffff4025f632b636e8de764168de33b173ae4e4e7c8bda8bebeb0393c7cea8b82f9f020000006b48304502210084dbd0ef9d6b406203f8ca04034a7839efd572d37224856c0625d8269c2a5d4d02203be922bd302af6bfd4705e36a44441b9db4b55a71c5f61568cd25c5c427593f2012102e5fcd359e11bcecbef1f58ee5867dd1c1d3a9637a9adcb9367ce4ed45f880b3ffeffffff1bbf7cd43ece6a5639500a9ed1aaab34b3a7f754e4faf259a2703cc18ca423dd000000006b483045022100c6ef18504bd011848a6f69b3630ecce6c559602f8fd9e28b350418fda6da939c022029e994a5f579b11cfcd4c808fae766bebb605a8ac1e8e5c695deabfaacc2b67801210396a50ff4644e6b9611ce55438b7f5417f5d6e2158fbac28f0a79d3843b0f1bb8feffffffa420e8fbb89d864d825790e189ab33284a152f23c589bcd6d01e007d7bf17b3a000000006b483045022100e480ef30fa427d60c725ec076fa10a5c349f62e78da5acf69da02d93f0fcfc0c022007c7f5ab361ce78bfcd2a58e6ae370b2804aacbba1024dcc921ac0cff407c5580121021edf46a86ab1d8b6edf1a08b32079a8e449706bd6d71da3365b0ec4fec946d8dfeffffff020020bcbe000000001976a914895ffd1a34430077085d9cf693874087df52239188ac6c420f00000000001976a91491567cbd7b0bcc51b04925a1092c8f64820fb5e788ac72bc1400"
    }, 
    {
      "txid": "a64fbf29c84bf0acb00b6e7fe0b16f582685fd9b341b3435518842480001e914",
      "hash": "a898ab8bc869a8aef4ac909129f251f935c251f836970d92e59adb6594bfae58",
      "version": 1,
      "size": 373,
      "vsize": 208,
      "locktime": 0,
      "vin": [
        {
          "txid": "5173f6fd83dbe6b5288c71f4a176fb3927857cd1eb0796b6b73cc960240e7b70",
          "vout": 1,
          "scriptSig": {
            "asm": "0020409fd93c7351b461fa46963fa28755038f397ee054ab9e56eda0b1081d768cc4",
            "hex": "220020409fd93c7351b461fa46963fa28755038f397ee054ab9e56eda0b1081d768cc4"
          },
          "txinwitness": [
            "", 
            "304402204049f27c7891fc2bc6fde348db1d9a3bf32c1b314d356dd34ea2df7ba375097b02205b59aa3fc233fe24ba8a0b43507137ba14224e35a366c98e855d77ff0783180401", 
            "3045022100beb960bf22de6876053e8368b016a868070407d966d5b921b9b4f652fbed1c6502206f0f0ff864172ed21ad7b9ad4bb90eead69b09249151aac72e47bcb86973238d01", 
            "522103ceb293b39e087131961da42b3deaef48432d57a08bfd111247901be2936525b32103fa185b0d6c2a6d812d1a9418c54b3cea527d229a73a0c6c72345a1851ebcdad352ae"
          ],
          "sequence": 4294967295
        }
      ],
      "vout": [
        {
          "value": 0.02083300,
          "n": 0,
          "scriptPubKey": {
            "asm": "OP_DUP OP_HASH160 3272bdc9a2192ce1f13fbf9c9f138af6a8ab4468 OP_EQUALVERIFY OP_CHECKSIG",
            "hex": "76a9143272bdc9a2192ce1f13fbf9c9f138af6a8ab446888ac",
            "reqSigs": 1,
            "type": "pubkeyhash",
            "addresses": [
              "LPphWB35VdaNuKECu5PXtZKu23MLtjjDwU"
            ]
          }
        }, 
        {
          "value": 0.28985900,
          "n": 1,
          "scriptPubKey": {
            "asm": "OP_HASH160 2d9ba1f1c217fd18a576b17eaf8a1c6f1cd2f1de OP_EQUAL",
            "hex": "a9142d9ba1f1c217fd18a576b17eaf8a1c6f1cd2f1de87",
            "reqSigs": 1,
            "type": "scripthash",
            "addresses": [
              "MC4K5c2x6rcVohDBLrLNQRsqL5atuzztot"
            ]
          }
        }
      ],
      "hex": "01000000000101707b0e2460c93cb7b69607ebd17c852739fb76a1f4718c28b5e6db83fdf673510100000023220020409fd93c7351b461fa46963fa28755038f397ee054ab9e56eda0b1081d768cc4ffffffff02e4c91f00000000001976a9143272bdc9a2192ce1f13fbf9c9f138af6a8ab446888ac2c4aba010000000017a9142d9ba1f1c217fd18a576b17eaf8a1c6f1cd2f1de87040047304402204049f27c7891fc2bc6fde348db1d9a3bf32c1b314d356dd34ea2df7ba375097b02205b59aa3fc233fe24ba8a0b43507137ba14224e35a366c98e855d77ff0783180401483045022100beb960bf22de6876053e8368b016a868070407d966d5b921b9b4f652fbed1c6502206f0f0ff864172ed21ad7b9ad4bb90eead69b09249151aac72e47bcb86973238d0147522103ceb293b39e087131961da42b3deaef48432d57a08bfd111247901be2936525b32103fa185b0d6c2a6d812d1a9418c54b3cea527d229a73a0c6c72345a1851ebcdad352ae00000000"
    }, 
    {
      "txid": "ff050b6028c8d673fe3268d7996ab38d453a9f745450a7c3b2bd3737c0e5b912",
      "hash": "ff050b6028c8d673fe3268d7996ab38d453a9f745450a7c3b2bd3737c0e5b912",
      "version": 1,
      "size": 225,
      "vsize": 225,
      "locktime": 0,
      "vin": [
        {
          "txid": "d2a56f7f3b1bf44a71d90eb475f7e70c129c08eaeae2d374e35877861d0e5ee0",
          "vout": 1247,
          "scriptSig": {
            "asm": "3044022028245531c8602f443cf32cda263bb0dd4540971e1d03569829f47a7b0f1aec5b022068740ddd1501b71b16924d3029bf0bf2c96a2f01708f82aeccbe400671fa7f0f[ALL] 03a0697fe951eb1ecbca86ac1958570ef3cbe321367ba37ec8c488622f1bea9072",
            "hex": "473044022028245531c8602f443cf32cda263bb0dd4540971e1d03569829f47a7b0f1aec5b022068740ddd1501b71b16924d3029bf0bf2c96a2f01708f82aeccbe400671fa7f0f012103a0697fe951eb1ecbca86ac1958570ef3cbe321367ba37ec8c488622f1bea9072"
          },
          "sequence": 4294967295
        }
      ],
      "vout": [
        {
          "value": 0.00694431,
          "n": 0,
          "scriptPubKey": {
            "asm": "OP_DUP OP_HASH160 595a6befb4b7620bb146ef3438758759813998ea OP_EQUALVERIFY OP_CHECKSIG",
            "hex": "76a914595a6befb4b7620bb146ef3438758759813998ea88ac",
            "reqSigs": 1,
            "type": "pubkeyhash",
            "addresses": [
              "LTNQitcSZU2ygcMrSZNwY6nx38WVV3eJba"
            ]
          }
        }, 
        {
          "value": 0.36248409,
          "n": 1,
          "scriptPubKey": {
            "asm": "OP_DUP OP_HASH160 7c9f009d62b2e177e92ee0196ff4093240b551cc OP_EQUALVERIFY OP_CHECKSIG",
            "hex": "76a9147c9f009d62b2e177e92ee0196ff4093240b551cc88ac",
            "reqSigs": 1,
            "type": "pubkeyhash",
            "addresses": [
              "LWatXgRXVzgYE7ujAVaEz4RvHDNPn91HCo"
            ]
          }
        }
      ],
      "hex": "0100000001e05e0e1d867758e374d3e2eaea089c120ce7f775b40ed9714af41b3b7f6fa5d2df0400006a473044022028245531c8602f443cf32cda263bb0dd4540971e1d03569829f47a7b0f1aec5b022068740ddd1501b71b16924d3029bf0bf2c96a2f01708f82aeccbe400671fa7f0f012103a0697fe951eb1ecbca86ac1958570ef3cbe321367ba37ec8c488622f1bea9072ffffffff029f980a00000000001976a914595a6befb4b7620bb146ef3438758759813998ea88ac591b2902000000001976a9147c9f009d62b2e177e92ee0196ff4093240b551cc88ac00000000"
    }, 
    {
      "txid": "7b4c3c6759f1af2dd9876aff2d365c1bdad781315a2a25fd16e8da3a07384a39",
      "hash": "7b4c3c6759f1af2dd9876aff2d365c1bdad781315a2a25fd16e8da3a07384a39",
      "version": 1,
      "size": 225,
      "vsize": 225,
      "locktime": 0,
      "vin": [
        {
          "txid": "4e3056d555029b6badca67ec9bcc830203a5e17c010abc9687f7eab7b4aeadf0",
          "vout": 3,
          "scriptSig": {
            "asm": "30440220739ce56797ee749fb59b524e12fa3b5a27a0f3bda10f3abc484d5565425efc0d0220540000ec8746d3d1b7dd7e526125be0f0ad8c5ad95e57d995d26f3325f30545f[ALL] 0212cf297e7c847127ddf6d330e6951e55c78832000dad78eaf1169c595335b7f1",
            "hex": "4730440220739ce56797ee749fb59b524e12fa3b5a27a0f3bda10f3abc484d5565425efc0d0220540000ec8746d3d1b7dd7e526125be0f0ad8c5ad95e57d995d26f3325f30545f01210212cf297e7c847127ddf6d330e6951e55c78832000dad78eaf1169c595335b7f1"
          },
          "sequence": 4294967295
        }
      ],
      "vout": [
        {
          "value": 11.84651688,
          "n": 0,
          "scriptPubKey": {
            "asm": "OP_DUP OP_HASH160 a7348047b33f70a4fed4009c851e96cd84a2636e OP_EQUALVERIFY OP_CHECKSIG",
            "hex": "76a914a7348047b33f70a4fed4009c851e96cd84a2636e88ac",
            "reqSigs": 1,
            "type": "pubkeyhash",
            "addresses": [
              "LaU4166W9wXwAptLsY7qyajmdS2zPUtHTM"
            ]
          }
        }, 
        {
          "value": 0.20225712,
          "n": 1,
          "scriptPubKey": {
            "asm": "OP_DUP OP_HASH160 9bb7aef48ab27d0a7736abb24c61e2df504374ed OP_EQUALVERIFY OP_CHECKSIG",
            "hex": "76a9149bb7aef48ab27d0a7736abb24c61e2df504374ed88ac",
            "reqSigs": 1,
            "type": "pubkeyhash",
            "addresses": [
              "LZRK3VdUHKmMmvMUHqjQAEN27UHecGWdTJ"
            ]
          }
        }
      ],
      "hex": "0100000001f0adaeb4b7eaf78796bc0a017ce1a5030283cc9bec67caad6b9b0255d556304e030000006a4730440220739ce56797ee749fb59b524e12fa3b5a27a0f3bda10f3abc484d5565425efc0d0220540000ec8746d3d1b7dd7e526125be0f0ad8c5ad95e57d995d26f3325f30545f01210212cf297e7c847127ddf6d330e6951e55c78832000dad78eaf1169c595335b7f1ffffffff02a8599c46000000001976a914a7348047b33f70a4fed4009c851e96cd84a2636e88acb09e3401000000001976a9149bb7aef48ab27d0a7736abb24c61e2df504374ed88ac00000000"
    }, 
    {
      "txid": "66f6951a8b5d7da981ef8fd5298e99199b49cf5a918fd435eac1e4f25cacba1c",
      "hash": "66f6951a8b5d7da981ef8fd5298e99199b49cf5a918fd435eac1e4f25cacba1c",
      "version": 2,
      "size": 226,
      "vsize": 226,
      "locktime": 1359000,
      "vin": [
        {
          "txid": "fa92976605f6373be6d591c0a03d6202a43632cb8359c53845c06431b181b250",
          "vout": 1,
          "scriptSig": {
            "asm": "3045022100f3b1f95d643983c23b56098ad9d22a45fa5a6e9a6508b254197140e6ff3c890102205a8c00e60cfa30bd0b4da0ca9221df5535592348c9b68b223f8e28d46c8a6094[ALL] 02e806fa3b3198eb0aad8e7f10ba2d16ad3fc097943cbac97f130803cd11c88d5e",
            "hex": "483045022100f3b1f95d643983c23b56098ad9d22a45fa5a6e9a6508b254197140e6ff3c890102205a8c00e60cfa30bd0b4da0ca9221df5535592348c9b68b223f8e28d46c8a6094012102e806fa3b3198eb0aad8e7f10ba2d16ad3fc097943cbac97f130803cd11c88d5e"
          },
          "sequence": 4294967294
        }
      ],
      "vout": [
        {
          "value": 0.47736487,
          "n": 0,
          "scriptPubKey": {
            "asm": "OP_DUP OP_HASH160 927a372df2abb25215c2e8802544cbfc0b6192e1 OP_EQUALVERIFY OP_CHECKSIG",
            "hex": "76a914927a372df2abb25215c2e8802544cbfc0b6192e188ac",
            "reqSigs": 1,
            "type": "pubkeyhash",
            "addresses": [
              "LYaTKuTHErdwJVydVXmgnUcSpcz4BSLByG"
            ]
          }
        }, 
        {
          "value": 2.71240913,
          "n": 1,
          "scriptPubKey": {
            "asm": "OP_DUP OP_HASH160 0a0b5fb89dd0d4b34d12e84e4592e412c58a7835 OP_EQUALVERIFY OP_CHECKSIG",
            "hex": "76a9140a0b5fb89dd0d4b34d12e84e4592e412c58a783588ac",
            "reqSigs": 1,
            "type": "pubkeyhash",
            "addresses": [
              "LL94eQQxxynV8KkDtMyPMjTHw3UiLd9hH5"
            ]
          }
        }
      ],
      "hex": "020000000150b281b13164c04538c55983cb3236a402623da0c091d5e63b37f605669792fa010000006b483045022100f3b1f95d643983c23b56098ad9d22a45fa5a6e9a6508b254197140e6ff3c890102205a8c00e60cfa30bd0b4da0ca9221df5535592348c9b68b223f8e28d46c8a6094012102e806fa3b3198eb0aad8e7f10ba2d16ad3fc097943cbac97f130803cd11c88d5efeffffff02a766d802000000001976a914927a372df2abb25215c2e8802544cbfc0b6192e188acd1ce2a10000000001976a9140a0b5fb89dd0d4b34d12e84e4592e412c58a783588ac98bc1400"
    }, 
    {
      "txid": "57bd47326dcbe0471889a673b9f3ffa5b2e62d4687cd4f4d45bf915578956025",
      "hash": "57bd47326dcbe0471889a673b9f3ffa5b2e62d4687cd4f4d45bf915578956025",
      "version": 1,
      "size": 226,
      "vsize": 226,
      "locktime": 0,
      "vin": [
        {
          "txid": "37e7b2941975e968a7adc2e484bdc47ebca1db68b79621bab8528a2ec3d4be9b",
          "vout": 1,
          "scriptSig": {
            "asm": "3045022100a6c72889d572001d19f0faab14a17834352d2a425d318290a38bb5628dcf5ba7022043bc62b8b9c22e581b1ca2a1091295e796bd2869d38dba6ac63d14675f62f8bc[ALL] 022d23bf5dd3f906c7c27d4a76344bc6e7a2afdb595ea75726f52decd6c51c5757",
            "hex": "483045022100a6c72889d572001d19f0faab14a17834352d2a425d318290a38bb5628dcf5ba7022043bc62b8b9c22e581b1ca2a1091295e796bd2869d38dba6ac63d14675f62f8bc0121022d23bf5dd3f906c7c27d4a76344bc6e7a2afdb595ea75726f52decd6c51c5757"
          },
          "sequence": 4294967295
        }
      ],
      "vout": [
        {
          "value": 0.02698073,
          "n": 0,
          "scriptPubKey": {
            "asm": "OP_DUP OP_HASH160 174e6ab0389067874fc86a007eefb592ed3c3114 OP_EQUALVERIFY OP_CHECKSIG",
            "hex": "76a914174e6ab0389067874fc86a007eefb592ed3c311488ac",
            "reqSigs": 1,
            "type": "pubkeyhash",
            "addresses": [
              "LMMBk7iE5GspC8vmodjhVJk7BrWmGVkucw"
            ]
          }
        }, 
        {
          "value": 0.00075656,
          "n": 1,
          "scriptPubKey": {
            "asm": "OP_DUP OP_HASH160 9e0e1c86fe46a65030072e824fdde09a12825a1f OP_EQUALVERIFY OP_CHECKSIG",
            "hex": "76a9149e0e1c86fe46a65030072e824fdde09a12825a1f88ac",
            "reqSigs": 1,
            "type": "pubkeyhash",
            "addresses": [
              "LZdfw14eW5RhDBuQELEf3s7vDfEvnG25Ys"
            ]
          }
        }
      ],
      "hex": "01000000019bbed4c32e8a52b8ba2196b768dba1bc7ec4bd84e4c2ada768e9751994b2e737010000006b483045022100a6c72889d572001d19f0faab14a17834352d2a425d318290a38bb5628dcf5ba7022043bc62b8b9c22e581b1ca2a1091295e796bd2869d38dba6ac63d14675f62f8bc0121022d23bf5dd3f906c7c27d4a76344bc6e7a2afdb595ea75726f52decd6c51c5757ffffffff02592b2900000000001976a914174e6ab0389067874fc86a007eefb592ed3c311488ac88270100000000001976a9149e0e1c86fe46a65030072e824fdde09a12825a1f88ac00000000"
    }, 
    {
      "txid": "88cb71fcb2f1263d3710bd8286f0b20c4bb248f5f2f3c597695446873e2d42c9",
      "hash": "88cb71fcb2f1263d3710bd8286f0b20c4bb248f5f2f3c597695446873e2d42c9",
      "version": 1,
      "size": 226,
      "vsize": 226,
      "locktime": 0,
      "vin": [
        {
          "txid": "d2a56f7f3b1bf44a71d90eb475f7e70c129c08eaeae2d374e35877861d0e5ee0",
          "vout": 327,
          "scriptSig": {
            "asm": "304502210093ce1b08d9f329bd823d070da1dbc53d4422492698be6d773e8cadb247d84f6b022032c474c446009c57bd2f176714ce04ec8fad041273b133d82332d6ba60d2f079[ALL] 029597be317d8fb80395f44879efc7408f9ff6b914e1e4409724da812a1e9b492c",
            "hex": "48304502210093ce1b08d9f329bd823d070da1dbc53d4422492698be6d773e8cadb247d84f6b022032c474c446009c57bd2f176714ce04ec8fad041273b133d82332d6ba60d2f0790121029597be317d8fb80395f44879efc7408f9ff6b914e1e4409724da812a1e9b492c"
          },
          "sequence": 4294967295
        }
      ],
      "vout": [
        {
          "value": 0.23767000,
          "n": 0,
          "scriptPubKey": {
            "asm": "OP_DUP OP_HASH160 e728654ad2bc4507490771003c2cc5da6953bf28 OP_EQUALVERIFY OP_CHECKSIG",
            "hex": "76a914e728654ad2bc4507490771003c2cc5da6953bf2888ac",
            "reqSigs": 1,
            "type": "pubkeyhash",
            "addresses": [
              "LgJCkGQS4XLvcfN2tnkXfAQUTq2ZZJ5Nm2"
            ]
          }
        }, 
        {
          "value": 0.00157112,
          "n": 1,
          "scriptPubKey": {
            "asm": "OP_DUP OP_HASH160 4f3bb8abb9890ba4919e3b914685dbb34b8727a8 OP_EQUALVERIFY OP_CHECKSIG",
            "hex": "76a9144f3bb8abb9890ba4919e3b914685dbb34b8727a888ac",
            "reqSigs": 1,
            "type": "pubkeyhash",
            "addresses": [
              "LSSuBt4Wn21d2LsTcK85RHM9We3FNsvkE9"
            ]
          }
        }
      ],
      "hex": "0100000001e05e0e1d867758e374d3e2eaea089c120ce7f775b40ed9714af41b3b7f6fa5d2470100006b48304502210093ce1b08d9f329bd823d070da1dbc53d4422492698be6d773e8cadb247d84f6b022032c474c446009c57bd2f176714ce04ec8fad041273b133d82332d6ba60d2f0790121029597be317d8fb80395f44879efc7408f9ff6b914e1e4409724da812a1e9b492cffffffff02d8a76a01000000001976a914e728654ad2bc4507490771003c2cc5da6953bf2888acb8650200000000001976a9144f3bb8abb9890ba4919e3b914685dbb34b8727a888ac00000000"
    }, 
    {
      "txid": "5a7b5d272c9e53dfa32ce2dac58c31582450cd9138b8eada845e2e4bc886acee",
      "hash": "5a7b5d272c9e53dfa32ce2dac58c31582450cd9138b8eada845e2e4bc886acee",
      "version": 1,
      "size": 226,
      "vsize": 226,
      "locktime": 0,
      "vin": [
        {
          "txid": "b74b9142c59607a1dba2a49e6221aa4b23274371d11f4a8c4b099932f6194309",
          "vout": 0,
          "scriptSig": {
            "asm": "3045022100f2b2ec6e58a967bccef4f8276e209f410b7fd72e26c6e0c4ae7671d27402822d02202381fe65a811717470e1e0f03bdf3dc85eea59d4f77215bd82e8e811f32b2ee1[ALL] 023f0c4bd9368b5d940225094bca966689e04087ef24db9fff9c4e25bd626c81f1",
            "hex": "483045022100f2b2ec6e58a967bccef4f8276e209f410b7fd72e26c6e0c4ae7671d27402822d02202381fe65a811717470e1e0f03bdf3dc85eea59d4f77215bd82e8e811f32b2ee10121023f0c4bd9368b5d940225094bca966689e04087ef24db9fff9c4e25bd626c81f1"
          },
          "sequence": 4294967295
        }
      ],
      "vout": [
        {
          "value": 1.81900390,
          "n": 0,
          "scriptPubKey": {
            "asm": "OP_DUP OP_HASH160 d91713338cfdf7534eca2573429f0e1d6115cb1d OP_EQUALVERIFY OP_CHECKSIG",
            "hex": "76a914d91713338cfdf7534eca2573429f0e1d6115cb1d88ac",
            "reqSigs": 1,
            "type": "pubkeyhash",
            "addresses": [
              "Lf1pY7tuHcXR1Ra8iekCE5TNmETMwMkJ7F"
            ]
          }
        }, 
        {
          "value": 2.40375546,
          "n": 1,
          "scriptPubKey": {
            "asm": "OP_DUP OP_HASH160 af4b8c387e36dd77d480149972df8f920fdd90e7 OP_EQUALVERIFY OP_CHECKSIG",
            "hex": "76a914af4b8c387e36dd77d480149972df8f920fdd90e788ac",
            "reqSigs": 1,
            "type": "pubkeyhash",
            "addresses": [
              "LbCq1w1w3n6AYfcmL7RWoxqrNff92NyFcE"
            ]
          }
        }
      ],
      "hex": "0100000001094319f63299094b8c4a1fd1714327234baa21629ea4a2dba10796c542914bb7000000006b483045022100f2b2ec6e58a967bccef4f8276e209f410b7fd72e26c6e0c4ae7671d27402822d02202381fe65a811717470e1e0f03bdf3dc85eea59d4f77215bd82e8e811f32b2ee10121023f0c4bd9368b5d940225094bca966689e04087ef24db9fff9c4e25bd626c81f1ffffffff026694d70a000000001976a914d91713338cfdf7534eca2573429f0e1d6115cb1d88acfad6530e000000001976a914af4b8c387e36dd77d480149972df8f920fdd90e788ac00000000"
    }
  ],
  "time": 1517222881,
  "mediantime": 1517221939,
  "nonce": 80302720,
  "bits": "1a042eae",
  "difficulty": 4011378.762614286,
  "chainwork": "0000000000000000000000000000000000000000000000339902da38415ea6b6",
  "previousblockhash": "6a54ee531e776b6f88665de69ac47c07afd3778b79b1b75855a1ce979074ef41",
  "nextblockhash": "df43d549a399f29b6451899dbb4077a3ccf6c2cf288e991b94ac7ac9568faeef"
}
