{
  "hash": "3f0f0ac3a238851ae1e7a306bd87d2e44d4ab890d7962c28990aa071b8af16b2",
  "confirmations": 622,
  "strippedsize": 255,
  "size": 255,
  "weight": 1020,
  "height": 1360372,
  "version": 536870912,
  "versionHex": "20000000",
  "merkleroot": "8a01401570173c00f9f5692750e24e54555fc6e3195a8f14d0f87aa67b993e58",
  "tx": [
    {
      "txid": "8a01401570173c00f9f5692750e24e54555fc6e3195a8f14d0f87aa67b993e58",
      "hash": "8a01401570173c00f9f5692750e24e54555fc6e3195a8f14d0f87aa67b993e58",
      "version": 1,
      "size": 174,
      "vsize": 174,
      "locktime": 0,
      "vin": [
        {
          "coinbase": "03f4c1141c4d696e656420627920416e74506f6f6c20626a3242205a71feae1001fabe6d6d17ff2a0a84d179bffde43bd7e2d602ec6e66ef2869d3a92d065ab6ffdb90c52204000000000000007b0e0000000000001d000000",
          "sequence": 4294967295
        }
      ],
      "vout": [
        {
          "value": 25.00000000,
          "n": 0,
          "scriptPubKey": {
            "asm": "OP_DUP OP_HASH160 0ff3ccc5e8be88afe24b5d634e5852d474dbdff1 OP_EQUALVERIFY OP_CHECKSIG",
            "hex": "76a9140ff3ccc5e8be88afe24b5d634e5852d474dbdff188ac",
            "reqSigs": 1,
            "type": "pubkeyhash",
            "addresses": [
              "LLgJTbzZMsRTCUF1NtvvL9SR1a4pVieW89"
            ]
          }
        }
      ],
      "hex": "01000000010000000000000000000000000000000000000000000000000000000000000000ffffffff5903f4c1141c4d696e656420627920416e74506f6f6c20626a3242205a71feae1001fabe6d6d17ff2a0a84d179bffde43bd7e2d602ec6e66ef2869d3a92d065ab6ffdb90c52204000000000000007b0e0000000000001d000000ffffffff0100f90295000000001976a9140ff3ccc5e8be88afe24b5d634e5852d474dbdff188ac00000000"
    }
  ],
  "time": 1517420206,
  "mediantime": 1517419692,
  "nonce": 1957810888,
  "bits": "1a042eae",
  "difficulty": 4011378.762614286,
  "chainwork": "000000000000000000000000000000000000000000000034e09429f2592dc86a",
  "previousblockhash": "cdec70fb8c78a0c44c3d1208c5ff9ac1e541971e8f7f3060ce71ce593553ee59",
  "nextblockhash": "5385dafeff457ee33d0b81f455af781320c4041b54a483126808e09c994592ab"
}
