{
  "hash": "3f93e0edc5d29a4693adccd9bedb69b506b0f1e4216a94c1c548fa27856dbf72",
  "confirmations": 152,
  "strippedsize": 253,
  "size": 253,
  "weight": 1012,
  "height": 1360842,
  "version": 536870912,
  "versionHex": "20000000",
  "merkleroot": "7f7a93a48bbe2c981c0e59f515d0f0ad7536c6835b650d4f0fad4b143481369b",
  "tx": [
    {
      "txid": "7f7a93a48bbe2c981c0e59f515d0f0ad7536c6835b650d4f0fad4b143481369b",
      "hash": "7f7a93a48bbe2c981c0e59f515d0f0ad7536c6835b650d4f0fad4b143481369b",
      "version": 1,
      "size": 172,
      "vsize": 172,
      "locktime": 0,
      "vin": [
        {
          "coinbase": "03cac3141a4d696e656420627920416e74506f6f6c20626a341e205a730abffabe6d6d17ff2a0a84d179bffde43bd7e2d602ec6e66ef2869d3a92d065ab6ffdb90c52204000000000000004b1a00000000000004000000",
          "sequence": 4294967295
        }
      ],
      "vout": [
        {
          "value": 25.00000000,
          "n": 0,
          "scriptPubKey": {
            "asm": "OP_DUP OP_HASH160 0ff3ccc5e8be88afe24b5d634e5852d474dbdff1 OP_EQUALVERIFY OP_CHECKSIG",
            "hex": "76a9140ff3ccc5e8be88afe24b5d634e5852d474dbdff188ac",
            "reqSigs": 1,
            "type": "pubkeyhash",
            "addresses": [
              "LLgJTbzZMsRTCUF1NtvvL9SR1a4pVieW89"
            ]
          }
        }
      ],
      "hex": "01000000010000000000000000000000000000000000000000000000000000000000000000ffffffff5703cac3141a4d696e656420627920416e74506f6f6c20626a341e205a730abffabe6d6d17ff2a0a84d179bffde43bd7e2d602ec6e66ef2869d3a92d065ab6ffdb90c52204000000000000004b1a00000000000004000000ffffffff0100f90295000000001976a9140ff3ccc5e8be88afe24b5d634e5852d474dbdff188ac00000000"
    }
  ],
  "time": 1517488831,
  "mediantime": 1517487793,
  "nonce": 2755393113,
  "bits": "1a04088e",
  "difficulty": 4159490.835685156,
  "chainwork": "0000000000000000000000000000000000000000000000355155e999aaf28870",
  "previousblockhash": "59ed4f831e4c5c68d68fc559ce9821c4707a88b881a08957e243ecc3438ad7f5",
  "nextblockhash": "c3744f5c1719d2c73cf7e1a9c1a62837e4845ae64a211cf915c77ce9de0b68d4"
}
