{
  "hash": "40775134ef0b7675d67adcbfc1572c11e544303f7e0fab1e320945e8069624b7",
  "confirmations": 1748,
  "strippedsize": 253,
  "size": 253,
  "weight": 1012,
  "height": 1359246,
  "version": 536870912,
  "versionHex": "20000000",
  "merkleroot": "49931b48bbd330a19c027f1baddfe94a169decc931560bd3b551b075ebd607d2",
  "tx": [
    {
      "txid": "49931b48bbd330a19c027f1baddfe94a169decc931560bd3b551b075ebd607d2",
      "hash": "49931b48bbd330a19c027f1baddfe94a169decc931560bd3b551b075ebd607d2",
      "version": 1,
      "size": 172,
      "vsize": 172,
      "locktime": 0,
      "vin": [
        {
          "coinbase": "038ebd141a4d696e656420627920416e74506f6f6c20626a331f205a6f81bdfabe6d6d6bb3a619f239f17e493d5bec469d716b96a88348a1c2748808692765f9be32150400000000000000732f00000000000012000000",
          "sequence": 4294967295
        }
      ],
      "vout": [
        {
          "value": 25.00000000,
          "n": 0,
          "scriptPubKey": {
            "asm": "OP_DUP OP_HASH160 0ff3ccc5e8be88afe24b5d634e5852d474dbdff1 OP_EQUALVERIFY OP_CHECKSIG",
            "hex": "76a9140ff3ccc5e8be88afe24b5d634e5852d474dbdff188ac",
            "reqSigs": 1,
            "type": "pubkeyhash",
            "addresses": [
              "LLgJTbzZMsRTCUF1NtvvL9SR1a4pVieW89"
            ]
          }
        }
      ],
      "hex": "01000000010000000000000000000000000000000000000000000000000000000000000000ffffffff57038ebd141a4d696e656420627920416e74506f6f6c20626a331f205a6f81bdfabe6d6d6bb3a619f239f17e493d5bec469d716b96a88348a1c2748808692765f9be32150400000000000000732f00000000000012000000ffffffff0100f90295000000001976a9140ff3ccc5e8be88afe24b5d634e5852d474dbdff188ac00000000"
    }
  ],
  "time": 1517257149,
  "mediantime": 1517256734,
  "nonce": 266284759,
  "bits": "1a042eae",
  "difficulty": 4011378.762614286,
  "chainwork": "000000000000000000000000000000000000000000000033d35a05f18108369e",
  "previousblockhash": "34ccbdc98c994550ec08f6be4935c262d32cba34578fcc9a28da755bb392aad0",
  "nextblockhash": "5ce674cea9e92937247dcc2cc4bc938bf4a66aea9051e984507a1be4e89aca18"
}
