{
  "hash": "40cd6d347ab0a78957e55bf031ff1b0f4463a76a4bbad8a0ee7f0f389120ad3e",
  "confirmations": 1335,
  "strippedsize": 234,
  "size": 234,
  "weight": 936,
  "height": 1359659,
  "version": 536870912,
  "versionHex": "20000000",
  "merkleroot": "ff77535d8759b8f7a104a368d69ee31bd25b3d57d342f4e128dae896881ab3c6",
  "tx": [
    {
      "txid": "ff77535d8759b8f7a104a368d69ee31bd25b3d57d342f4e128dae896881ab3c6",
      "hash": "ff77535d8759b8f7a104a368d69ee31bd25b3d57d342f4e128dae896881ab3c6",
      "version": 1,
      "size": 153,
      "vsize": 153,
      "locktime": 0,
      "vin": [
        {
          "coinbase": "032bbf14045a7062712cfabe6d6dbf20d13a9fb134ef0a89904c9c99fa2f1435f23c0417b13cc3b3a831f5cdbedf4000000000000000042f4c502f085c00047a28080000",
          "sequence": 4294967295
        }
      ],
      "vout": [
        {
          "value": 25.00000000,
          "n": 0,
          "scriptPubKey": {
            "asm": "OP_DUP OP_HASH160 57757ed2ecf2052ff3126c397aca7defb9ca2cec OP_EQUALVERIFY OP_CHECKSIG",
            "hex": "76a91457757ed2ecf2052ff3126c397aca7defb9ca2cec88ac",
            "reqSigs": 1,
            "type": "pubkeyhash",
            "addresses": [
              "LTCPodGk5FwcJaRzH9yKnwicxzFUbxp6tN"
            ]
          }
        }
      ],
      "hex": "01000000010000000000000000000000000000000000000000000000000000000000000000ffffffff44032bbf14045a7062712cfabe6d6dbf20d13a9fb134ef0a89904c9c99fa2f1435f23c0417b13cc3b3a831f5cdbedf4000000000000000042f4c502f085c00047a28080000ffffffff0100f90295000000001976a91457757ed2ecf2052ff3126c397aca7defb9ca2cec88ac00000000"
    }
  ],
  "time": 1517314673,
  "mediantime": 1517313603,
  "nonce": 25201742,
  "bits": "1a042eae",
  "difficulty": 4011378.762614286,
  "chainwork": "0000000000000000000000000000000000000000000000343619a2d6139bad58",
  "previousblockhash": "60a4faf3f81eb1f1376ec888f07061c767dc6307203c3fa1136c2c90ff511dc9",
  "nextblockhash": "f7b42900ee8b1e2afd09a102b5ad851492af3a70796b4b367298e5742c37e017"
}
