{
  "hash": "40fce27dd7b9e497b31e9f2777d63d37384170c4a20e921ede2d25f294b39caf",
  "confirmations": 3220,
  "strippedsize": 906,
  "size": 1163,
  "weight": 3881,
  "height": 1357775,
  "version": 536870912,
  "versionHex": "20000000",
  "merkleroot": "4cdc893eb2ac5c8db70de94583a15aad4b3b3d90935a6c1e14575b9c7120e365",
  "tx": [
    {
      "txid": "079a06b869eace40b8500fbc08e9fca3d5ae4bff055b2514f4195cc07028ac1d",
      "hash": "ab9a17f0afee9b285f089268a76dbb57818dd97dce00aabd487fdc2cf86f07ba",
      "version": 1,
      "size": 258,
      "vsize": 231,
      "locktime": 0,
      "vin": [
        {
          "coinbase": "03cfb7141d4d696e656420627920416e74506f6f6c20737a30303026205a6c4b4502fabe6d6df3a229440a2a670f0d94474ee360410ad0a724f9c07e40e54768764c9367c44c0400000000000000a920000000000000d2090000",
          "sequence": 4294967295
        }
      ],
      "vout": [
        {
          "value": 25.00280400,
          "n": 0,
          "scriptPubKey": {
            "asm": "OP_DUP OP_HASH160 0ff3ccc5e8be88afe24b5d634e5852d474dbdff1 OP_EQUALVERIFY OP_CHECKSIG",
            "hex": "76a9140ff3ccc5e8be88afe24b5d634e5852d474dbdff188ac",
            "reqSigs": 1,
            "type": "pubkeyhash",
            "addresses": [
              "LLgJTbzZMsRTCUF1NtvvL9SR1a4pVieW89"
            ]
          }
        }, 
        {
          "value": 0.00000000,
          "n": 1,
          "scriptPubKey": {
            "asm": "OP_RETURN aa21a9ed3480d9dffaf4a8060daa73fb3fe2158fcb5872aa8decc94630cbc36f319b54d7",
            "hex": "6a24aa21a9ed3480d9dffaf4a8060daa73fb3fe2158fcb5872aa8decc94630cbc36f319b54d7",
            "type": "nulldata"
          }
        }
      ],
      "hex": "010000000001010000000000000000000000000000000000000000000000000000000000000000ffffffff5a03cfb7141d4d696e656420627920416e74506f6f6c20737a30303026205a6c4b4502fabe6d6df3a229440a2a670f0d94474ee360410ad0a724f9c07e40e54768764c9367c44c0400000000000000a920000000000000d2090000ffffffff0250400795000000001976a9140ff3ccc5e8be88afe24b5d634e5852d474dbdff188ac0000000000000000266a24aa21a9ed3480d9dffaf4a8060daa73fb3fe2158fcb5872aa8decc94630cbc36f319b54d70120000000000000000000000000000000000000000000000000000000000000000000000000"
    }, 
    {
      "txid": "b3aed633efd5d2508a188d0adcd12412d8529b2ada7ccd6b0bf248204798e3e3",
      "hash": "b3aed633efd5d2508a188d0adcd12412d8529b2ada7ccd6b0bf248204798e3e3",
      "version": 1,
      "size": 226,
      "vsize": 226,
      "locktime": 0,
      "vin": [
        {
          "txid": "d27f56a9ee080172bf75730b8e541d2aeb0f46ff4ab4491be603fd1c423425ce",
          "vout": 1,
          "scriptSig": {
            "asm": "304502210086fe7ecba7c80dc9785d9414075a8fc167a515799d2d8ef35f586ebffc15a6000220448165b63f8a62525dbc11681939087feec1804cca048aa6f0432d568fae490c[ALL] 037919aa159b8a1ee6bb543ce74093cd62c9defe7150829fd2a35999bd592d5368",
            "hex": "48304502210086fe7ecba7c80dc9785d9414075a8fc167a515799d2d8ef35f586ebffc15a6000220448165b63f8a62525dbc11681939087feec1804cca048aa6f0432d568fae490c0121037919aa159b8a1ee6bb543ce74093cd62c9defe7150829fd2a35999bd592d5368"
          },
          "sequence": 4294967295
        }
      ],
      "vout": [
        {
          "value": 0.44877117,
          "n": 0,
          "scriptPubKey": {
            "asm": "OP_DUP OP_HASH160 77db3c33dfabf4beb8c7b56ff39ee10df3e5a463 OP_EQUALVERIFY OP_CHECKSIG",
            "hex": "76a91477db3c33dfabf4beb8c7b56ff39ee10df3e5a46388ac",
            "reqSigs": 1,
            "type": "pubkeyhash",
            "addresses": [
              "LW9hJmTHahGzqZZMCp7ZySoxREAEmCnDvq"
            ]
          }
        }, 
        {
          "value": 0.03478783,
          "n": 1,
          "scriptPubKey": {
            "asm": "OP_DUP OP_HASH160 d2e689b90891e77c710270f4011474802475e31e OP_EQUALVERIFY OP_CHECKSIG",
            "hex": "76a914d2e689b90891e77c710270f4011474802475e31e88ac",
            "reqSigs": 1,
            "type": "pubkeyhash",
            "addresses": [
              "LeT6LZG9DUfspGh8oNQs5QTKELpEMWRg6P"
            ]
          }
        }
      ],
      "hex": "0100000001ce2534421cfd03e61b49b44aff460feb2a1d548e0b7375bf720108eea9567fd2010000006b48304502210086fe7ecba7c80dc9785d9414075a8fc167a515799d2d8ef35f586ebffc15a6000220448165b63f8a62525dbc11681939087feec1804cca048aa6f0432d568fae490c0121037919aa159b8a1ee6bb543ce74093cd62c9defe7150829fd2a35999bd592d5368ffffffff023dc5ac02000000001976a91477db3c33dfabf4beb8c7b56ff39ee10df3e5a46388acff143500000000001976a914d2e689b90891e77c710270f4011474802475e31e88ac00000000"
    }, 
    {
      "txid": "4f32fe80bf9687df3b356834fa4bce00e8971904aafa0271bb311fd16993f0f5",
      "hash": "8626041173997a355aceaecac4bcd71cd0ec72d6c9d1ad47eb6b62a6380c3634",
      "version": 1,
      "size": 373,
      "vsize": 208,
      "locktime": 0,
      "vin": [
        {
          "txid": "030355aa73a869625f19674260338e12c4e14d87f08704359e97b26638f0c450",
          "vout": 1,
          "scriptSig": {
            "asm": "0020409fd93c7351b461fa46963fa28755038f397ee054ab9e56eda0b1081d768cc4",
            "hex": "220020409fd93c7351b461fa46963fa28755038f397ee054ab9e56eda0b1081d768cc4"
          },
          "txinwitness": [
            "", 
            "30440220583145fd2af787aea1880d9dd9b93ee6ff3b804fdb0c2ac8da9118ee8330a5fa022013b07d96f081a8f50e7412727354b1bc78f1e151cf3c2eda83f816d53e2ea70401", 
            "3045022100cbfd7e3243552f6816c469a4795997794e7a3cc22abaea3e84e76a918a1b7d500220117f80a98604e715b4b60c6e0f7edc1008d5ed5c4ed1667d7262484b5c0a0d4801", 
            "522103ceb293b39e087131961da42b3deaef48432d57a08bfd111247901be2936525b32103fa185b0d6c2a6d812d1a9418c54b3cea527d229a73a0c6c72345a1851ebcdad352ae"
          ],
          "sequence": 4294967295
        }
      ],
      "vout": [
        {
          "value": 0.02083300,
          "n": 0,
          "scriptPubKey": {
            "asm": "OP_DUP OP_HASH160 dd06ac3186ceda1a1bb549359c86259729bf0e52 OP_EQUALVERIFY OP_CHECKSIG",
            "hex": "76a914dd06ac3186ceda1a1bb549359c86259729bf0e5288ac",
            "reqSigs": 1,
            "type": "pubkeyhash",
            "addresses": [
              "LfNdbEJ8NRhR8VucnnNvwcUWPNEbTEpWqB"
            ]
          }
        }, 
        {
          "value": 0.54813900,
          "n": 1,
          "scriptPubKey": {
            "asm": "OP_HASH160 2d9ba1f1c217fd18a576b17eaf8a1c6f1cd2f1de OP_EQUAL",
            "hex": "a9142d9ba1f1c217fd18a576b17eaf8a1c6f1cd2f1de87",
            "reqSigs": 1,
            "type": "scripthash",
            "addresses": [
              "MC4K5c2x6rcVohDBLrLNQRsqL5atuzztot"
            ]
          }
        }
      ],
      "hex": "0100000000010150c4f03866b2979e350487f0874de1c4128e33604267195f6269a873aa5503030100000023220020409fd93c7351b461fa46963fa28755038f397ee054ab9e56eda0b1081d768cc4ffffffff02e4c91f00000000001976a914dd06ac3186ceda1a1bb549359c86259729bf0e5288accc6444030000000017a9142d9ba1f1c217fd18a576b17eaf8a1c6f1cd2f1de8704004730440220583145fd2af787aea1880d9dd9b93ee6ff3b804fdb0c2ac8da9118ee8330a5fa022013b07d96f081a8f50e7412727354b1bc78f1e151cf3c2eda83f816d53e2ea70401483045022100cbfd7e3243552f6816c469a4795997794e7a3cc22abaea3e84e76a918a1b7d500220117f80a98604e715b4b60c6e0f7edc1008d5ed5c4ed1667d7262484b5c0a0d480147522103ceb293b39e087131961da42b3deaef48432d57a08bfd111247901be2936525b32103fa185b0d6c2a6d812d1a9418c54b3cea527d229a73a0c6c72345a1851ebcdad352ae00000000"
    }, 
    {
      "txid": "515584b82a2fa5f38b382bf54cd86a0553d6cc24ca02a1b0c02f3b62decee090",
      "hash": "515584b82a2fa5f38b382bf54cd86a0553d6cc24ca02a1b0c02f3b62decee090",
      "version": 1,
      "size": 225,
      "vsize": 225,
      "locktime": 1357685,
      "vin": [
        {
          "txid": "e95a0a125e1e1b90fe2376fa5513968afc8b44cde6d0daf0873dcd60d9324b51",
          "vout": 0,
          "scriptSig": {
            "asm": "304402207978e055ef1e9fcfa035ca5c5fe0a448fcfedd04ed7c95e4cb51c827b286226e0220023953af4f48ee3814a308b1b38dfcdb0956324ea66ce0ffc29477e1c6da5db9[ALL] 0279158762a934d1555a41623a93c90c604b84e5af2d1b611baddbab6be1ffef25",
            "hex": "47304402207978e055ef1e9fcfa035ca5c5fe0a448fcfedd04ed7c95e4cb51c827b286226e0220023953af4f48ee3814a308b1b38dfcdb0956324ea66ce0ffc29477e1c6da5db901210279158762a934d1555a41623a93c90c604b84e5af2d1b611baddbab6be1ffef25"
          },
          "sequence": 4294967294
        }
      ],
      "vout": [
        {
          "value": 0.08640000,
          "n": 0,
          "scriptPubKey": {
            "asm": "OP_DUP OP_HASH160 b13305d731097a4f16e4e1fbd2c3b048b2ba477d OP_EQUALVERIFY OP_CHECKSIG",
            "hex": "76a914b13305d731097a4f16e4e1fbd2c3b048b2ba477d88ac",
            "reqSigs": 1,
            "type": "pubkeyhash",
            "addresses": [
              "LbNtzJ2MBxqj3xpB9nCfPEm7i3iKowjx9k"
            ]
          }
        }, 
        {
          "value": 15.64022218,
          "n": 1,
          "scriptPubKey": {
            "asm": "OP_DUP OP_HASH160 3330743b81e866ba55c871210463136558af90ba OP_EQUALVERIFY OP_CHECKSIG",
            "hex": "76a9143330743b81e866ba55c871210463136558af90ba88ac",
            "reqSigs": 1,
            "type": "pubkeyhash",
            "addresses": [
              "LPtcmeAbQtqSCunh8kUhRbDcJmpbBtsyXm"
            ]
          }
        }
      ],
      "hex": "0100000001514b32d960cd3d87f0dad0e6cd448bfc8a961355fa7623fe901b1e5e120a5ae9000000006a47304402207978e055ef1e9fcfa035ca5c5fe0a448fcfedd04ed7c95e4cb51c827b286226e0220023953af4f48ee3814a308b1b38dfcdb0956324ea66ce0ffc29477e1c6da5db901210279158762a934d1555a41623a93c90c604b84e5af2d1b611baddbab6be1ffef25feffffff0200d68300000000001976a914b13305d731097a4f16e4e1fbd2c3b048b2ba477d88acca15395d000000001976a9143330743b81e866ba55c871210463136558af90ba88ac75b71400"
    }
  ],
  "time": 1517046597,
  "mediantime": 1517046120,
  "nonce": 4705937,
  "bits": "1a047f14",
  "difficulty": 3731199.183374282,
  "chainwork": "0000000000000000000000000000000000000000000000328477ffb78c4afe20",
  "previousblockhash": "d48b5c0bc0c2c175ce403a447b41cad80d5910c41ad1edbe07a88ce0da3d5e39",
  "nextblockhash": "e617ca8d8c685f1f188c4f12a8a98580f228f94b48863e4c03694d41e4c8cca0"
}
