{
  "hash": "4111f8b8747bf87f4dd352b9d520f42da0c2f3df53c7c1bfe2eeab345a8707b4",
  "confirmations": 3618,
  "strippedsize": 234,
  "size": 234,
  "weight": 936,
  "height": 1357377,
  "version": 536870912,
  "versionHex": "20000000",
  "merkleroot": "842b18a846a2fa9f816a34b73bea07a676ae8bb09dc033230d1c4ca7f05cf711",
  "tx": [
    {
      "txid": "842b18a846a2fa9f816a34b73bea07a676ae8bb09dc033230d1c4ca7f05cf711",
      "hash": "842b18a846a2fa9f816a34b73bea07a676ae8bb09dc033230d1c4ca7f05cf711",
      "version": 1,
      "size": 153,
      "vsize": 153,
      "locktime": 0,
      "vin": [
        {
          "coinbase": "0341b614045a6b850d2cfabe6d6dc5e463093bd6852355e7634c2929ae9076a709aef3248048122887dfb226849c4000000000000000042f4c502f081600818a03000000",
          "sequence": 4294967295
        }
      ],
      "vout": [
        {
          "value": 25.00000000,
          "n": 0,
          "scriptPubKey": {
            "asm": "OP_DUP OP_HASH160 57757ed2ecf2052ff3126c397aca7defb9ca2cec OP_EQUALVERIFY OP_CHECKSIG",
            "hex": "76a91457757ed2ecf2052ff3126c397aca7defb9ca2cec88ac",
            "reqSigs": 1,
            "type": "pubkeyhash",
            "addresses": [
              "LTCPodGk5FwcJaRzH9yKnwicxzFUbxp6tN"
            ]
          }
        }
      ],
      "hex": "01000000010000000000000000000000000000000000000000000000000000000000000000ffffffff440341b614045a6b850d2cfabe6d6dc5e463093bd6852355e7634c2929ae9076a709aef3248048122887dfb226849c4000000000000000042f4c502f081600818a03000000ffffffff0100f90295000000001976a91457757ed2ecf2052ff3126c397aca7defb9ca2cec88ac00000000"
    }
  ],
  "time": 1516995853,
  "mediantime": 1516995611,
  "nonce": 1342276675,
  "bits": "1a047f14",
  "difficulty": 3731199.183374282,
  "chainwork": "0000000000000000000000000000000000000000000000322bf41678a7688db4",
  "previousblockhash": "badbfdf676db7a68c7042ea067ea0cf32ff117476816ab52a5ad563d9dee6eb7",
  "nextblockhash": "0c1d4dd09e72e72fbdcf91b1ed46a35057f55139e704674bc675c328fa3b5ace"
}
