{
  "hash": "413402fb93574ebce466bfe8ee79f2db25a12c0bdb2307f0890af95b2a5b3fab",
  "confirmations": 3367,
  "strippedsize": 234,
  "size": 234,
  "weight": 936,
  "height": 1357628,
  "version": 536870912,
  "versionHex": "20000000",
  "merkleroot": "d245a6836ec0f00b85c00d1efa4bee6893021a50d64ec78cb46a3afac36536f9",
  "tx": [
    {
      "txid": "d245a6836ec0f00b85c00d1efa4bee6893021a50d64ec78cb46a3afac36536f9",
      "hash": "d245a6836ec0f00b85c00d1efa4bee6893021a50d64ec78cb46a3afac36536f9",
      "version": 1,
      "size": 153,
      "vsize": 153,
      "locktime": 0,
      "vin": [
        {
          "coinbase": "033cb714045a6bff142cfabe6d6d2eff0ea9928db52be2bf7bf0901b2c0528b2f7337e9b98bd5ea8f763547061284000000000000000042f4c502f0856006a63555565ed",
          "sequence": 4294967295
        }
      ],
      "vout": [
        {
          "value": 25.00000000,
          "n": 0,
          "scriptPubKey": {
            "asm": "OP_DUP OP_HASH160 57757ed2ecf2052ff3126c397aca7defb9ca2cec OP_EQUALVERIFY OP_CHECKSIG",
            "hex": "76a91457757ed2ecf2052ff3126c397aca7defb9ca2cec88ac",
            "reqSigs": 1,
            "type": "pubkeyhash",
            "addresses": [
              "LTCPodGk5FwcJaRzH9yKnwicxzFUbxp6tN"
            ]
          }
        }
      ],
      "hex": "01000000010000000000000000000000000000000000000000000000000000000000000000ffffffff44033cb714045a6bff142cfabe6d6d2eff0ea9928db52be2bf7bf0901b2c0528b2f7337e9b98bd5ea8f763547061284000000000000000042f4c502f0856006a63555565edffffffff0100f90295000000001976a91457757ed2ecf2052ff3126c397aca7defb9ca2cec88ac00000000"
    }
  ],
  "time": 1517027092,
  "mediantime": 1517026753,
  "nonce": 3664703260,
  "bits": "1a047f14",
  "difficulty": 3731199.183374282,
  "chainwork": "00000000000000000000000000000000000000000000003263c6a27e3a53fb32",
  "previousblockhash": "77e4e1bdf3340b9624bf94a972d3330049d111768c3985c33eae834d0a2abe10",
  "nextblockhash": "21f89b546a41bd8bafc7ca9b5c7321b2353c2beaf0b9b43a88a87bcdf8302c30"
}
