{
  "hash": "414bb073f3a6d8e6e2858e38ade49f1191c3488e7d750935c1c5b1d7b52b5680",
  "confirmations": 2964,
  "strippedsize": 3136,
  "size": 3613,
  "weight": 13021,
  "height": 1358031,
  "version": 536870912,
  "versionHex": "20000000",
  "merkleroot": "7c0bff75d8dd50f1f982cc8b3c8242f6bf820f2b49318cf62e7ad9b0baaab504",
  "tx": [
    {
      "txid": "2eec431e91d96e8c252b868df4c18c85e4bb636eb0f58c4cdddfd01ca5435abb",
      "hash": "cdca0ab03fe467c3c695f16e8869337f999fd52dca47956107cc3bf10dada5c4",
      "version": 1,
      "size": 240,
      "vsize": 213,
      "locktime": 0,
      "vin": [
        {
          "coinbase": "03cfb81404d4c86c5a0801312ff30f000000fabe6d6daf9abfacefca0f181b7953723e3c11df519a9fbd0ccb403fd201139db99741a94000000000000000092f4c54432e544f502f",
          "sequence": 0
        }
      ],
      "vout": [
        {
          "value": 25.01412295,
          "n": 0,
          "scriptPubKey": {
            "asm": "OP_DUP OP_HASH160 0c617fdb2ea42aed30a509595ee21ba3f6688db0 OP_EQUALVERIFY OP_CHECKSIG",
            "hex": "76a9140c617fdb2ea42aed30a509595ee21ba3f6688db088ac",
            "reqSigs": 1,
            "type": "pubkeyhash",
            "addresses": [
              "LLMRAtr3qBje2ySEa3CnZ55LA4TQMWnRY3"
            ]
          }
        }, 
        {
          "value": 0.00000000,
          "n": 1,
          "scriptPubKey": {
            "asm": "OP_RETURN aa21a9ed0c28d8fa4bf643581dcb27f468e5ee6bf6625646c36ac3cb5676273eed37ea5b",
            "hex": "6a24aa21a9ed0c28d8fa4bf643581dcb27f468e5ee6bf6625646c36ac3cb5676273eed37ea5b",
            "type": "nulldata"
          }
        }
      ],
      "hex": "010000000001010000000000000000000000000000000000000000000000000000000000000000ffffffff4803cfb81404d4c86c5a0801312ff30f000000fabe6d6daf9abfacefca0f181b7953723e3c11df519a9fbd0ccb403fd201139db99741a94000000000000000092f4c54432e544f502f0000000002c7851895000000001976a9140c617fdb2ea42aed30a509595ee21ba3f6688db088ac0000000000000000266a24aa21a9ed0c28d8fa4bf643581dcb27f468e5ee6bf6625646c36ac3cb5676273eed37ea5b0120000000000000000000000000000000000000000000000000000000000000000000000000"
    }, 
    {
      "txid": "e10d6fd605c98a54ffc82be1be2b95e4dcb4d2b4995bc2ed3d18c5c294860e2c",
      "hash": "e10d6fd605c98a54ffc82be1be2b95e4dcb4d2b4995bc2ed3d18c5c294860e2c",
      "version": 1,
      "size": 407,
      "vsize": 407,
      "locktime": 0,
      "vin": [
        {
          "txid": "e95318243a18072b8f93fbcbb5c20a4a038906ed5867cdb3695d794c482eaab0",
          "vout": 1,
          "scriptSig": {
            "asm": "0 3045022100f059ffd596d7f68eed4fec0b1c91b1acc3d9cafc642c1803e8f6ba651d4d1268022058d2ecffea399b765a678fdd87eb90f928c916fe52a305a103cffe2b855538d5[ALL] 30450221008690e7633f661a1c8ecba88f05228eab61f6472d7a120f8b47355de948bcc3be02201d39c01f6a82ec7283ad1544b79d9c8a5db476427d3d93c3b4e58b7fa0493aae[ALL] 522103c220f9c2ae04cb2b4ac55b465ab80af6d52f2981482cd1ac0adeb2c1a8164b0a2102e074fb5a87667a3e3dc90a4db3d37de03b2662a15fe0cc1f5fd14b20297a26fa2103890b05e260cbe3c4328fdaa67c6f1bef6fe04e96809fa13a4904137488a9fff953ae",
            "hex": "00483045022100f059ffd596d7f68eed4fec0b1c91b1acc3d9cafc642c1803e8f6ba651d4d1268022058d2ecffea399b765a678fdd87eb90f928c916fe52a305a103cffe2b855538d5014830450221008690e7633f661a1c8ecba88f05228eab61f6472d7a120f8b47355de948bcc3be02201d39c01f6a82ec7283ad1544b79d9c8a5db476427d3d93c3b4e58b7fa0493aae014c69522103c220f9c2ae04cb2b4ac55b465ab80af6d52f2981482cd1ac0adeb2c1a8164b0a2102e074fb5a87667a3e3dc90a4db3d37de03b2662a15fe0cc1f5fd14b20297a26fa2103890b05e260cbe3c4328fdaa67c6f1bef6fe04e96809fa13a4904137488a9fff953ae"
          },
          "sequence": 4294967295
        }
      ],
      "vout": [
        {
          "value": 0.11023414,
          "n": 0,
          "scriptPubKey": {
            "asm": "OP_DUP OP_HASH160 17a0b388aa2efc701cc3028cc46eb2a8155ac5b6 OP_EQUALVERIFY OP_CHECKSIG",
            "hex": "76a91417a0b388aa2efc701cc3028cc46eb2a8155ac5b688ac",
            "reqSigs": 1,
            "type": "pubkeyhash",
            "addresses": [
              "LMNtKM794gBUPxni7dwV7mHVKE9MVsxKuZ"
            ]
          }
        }, 
        {
          "value": 0.69127452,
          "n": 1,
          "scriptPubKey": {
            "asm": "OP_DUP OP_HASH160 919fb3dad5c923a5c14940ad190a34dd7b454edd OP_EQUALVERIFY OP_CHECKSIG",
            "hex": "76a914919fb3dad5c923a5c14940ad190a34dd7b454edd88ac",
            "reqSigs": 1,
            "type": "pubkeyhash",
            "addresses": [
              "LYVwZMe83qaTuo5w8YEH3DeQspwVdG38qp"
            ]
          }
        }, 
        {
          "value": 1.18815134,
          "n": 2,
          "scriptPubKey": {
            "asm": "OP_HASH160 aa7bea96442c9ab63bc6c2dfc8354cecd1640155 OP_EQUAL",
            "hex": "a914aa7bea96442c9ab63bc6c2dfc8354cecd164015587",
            "reqSigs": 1,
            "type": "scripthash",
            "addresses": [
              "MPSbYuC7d59yDBbwGgF6VPeoZWZYUM3qRv"
            ]
          }
        }
      ],
      "hex": "0100000001b0aa2e484c795d69b3cd6758ed0689034a0ac2b5cbfb938f2b07183a241853e901000000fdfe0000483045022100f059ffd596d7f68eed4fec0b1c91b1acc3d9cafc642c1803e8f6ba651d4d1268022058d2ecffea399b765a678fdd87eb90f928c916fe52a305a103cffe2b855538d5014830450221008690e7633f661a1c8ecba88f05228eab61f6472d7a120f8b47355de948bcc3be02201d39c01f6a82ec7283ad1544b79d9c8a5db476427d3d93c3b4e58b7fa0493aae014c69522103c220f9c2ae04cb2b4ac55b465ab80af6d52f2981482cd1ac0adeb2c1a8164b0a2102e074fb5a87667a3e3dc90a4db3d37de03b2662a15fe0cc1f5fd14b20297a26fa2103890b05e260cbe3c4328fdaa67c6f1bef6fe04e96809fa13a4904137488a9fff953aeffffffff033634a800000000001976a91417a0b388aa2efc701cc3028cc46eb2a8155ac5b688ac1ccd1e04000000001976a914919fb3dad5c923a5c14940ad190a34dd7b454edd88ac9ef914070000000017a914aa7bea96442c9ab63bc6c2dfc8354cecd16401558700000000"
    }, 
    {
      "txid": "ab7fca479fec20c0bde9146bc8ae1e1d76c2e6b8de4b8aca2af2f90ea5286b37",
      "hash": "ab7fca479fec20c0bde9146bc8ae1e1d76c2e6b8de4b8aca2af2f90ea5286b37",
      "version": 1,
      "size": 225,
      "vsize": 225,
      "locktime": 0,
      "vin": [
        {
          "txid": "e127244290274c5cff59033058c05cd31a83ce003a35658c2d7144ad4783704f",
          "vout": 1,
          "scriptSig": {
            "asm": "304402203d436d3752127ea2b8deb7d8e2037d095dd574bdef48c2408b824036440022040220713ce710c06c2a698fdbb98af623c50a92b9203eca558ad2f48d38176bdcb895[ALL] 03128d0093461a25a1ec005dea5c9d8367d895256867e0820208f84d46081512eb",
            "hex": "47304402203d436d3752127ea2b8deb7d8e2037d095dd574bdef48c2408b824036440022040220713ce710c06c2a698fdbb98af623c50a92b9203eca558ad2f48d38176bdcb895012103128d0093461a25a1ec005dea5c9d8367d895256867e0820208f84d46081512eb"
          },
          "sequence": 4294967295
        }
      ],
      "vout": [
        {
          "value": 0.01357400,
          "n": 0,
          "scriptPubKey": {
            "asm": "OP_DUP OP_HASH160 b8c1a644d618b3ce2331d7e1cfbdd08a60e0419d OP_EQUALVERIFY OP_CHECKSIG",
            "hex": "76a914b8c1a644d618b3ce2331d7e1cfbdd08a60e0419d88ac",
            "reqSigs": 1,
            "type": "pubkeyhash",
            "addresses": [
              "Lc4raWezEhif1kwdWPLkqDtvmzD2E2buF2"
            ]
          }
        }, 
        {
          "value": 0.00564359,
          "n": 1,
          "scriptPubKey": {
            "asm": "OP_DUP OP_HASH160 3b1fc2e20f734a03477564460bf77f82faadd781 OP_EQUALVERIFY OP_CHECKSIG",
            "hex": "76a9143b1fc2e20f734a03477564460bf77f82faadd78188ac",
            "reqSigs": 1,
            "type": "pubkeyhash",
            "addresses": [
              "LQcaBLoKm6kBJCGAeD3WKfnbvaJRVRMoDy"
            ]
          }
        }
      ],
      "hex": "01000000014f708347ad44712d8c65353a00ce831ad35cc058300359ff5c4c2790422427e1010000006a47304402203d436d3752127ea2b8deb7d8e2037d095dd574bdef48c2408b824036440022040220713ce710c06c2a698fdbb98af623c50a92b9203eca558ad2f48d38176bdcb895012103128d0093461a25a1ec005dea5c9d8367d895256867e0820208f84d46081512ebffffffff0258b61400000000001976a914b8c1a644d618b3ce2331d7e1cfbdd08a60e0419d88ac879c0800000000001976a9143b1fc2e20f734a03477564460bf77f82faadd78188ac00000000"
    }, 
    {
      "txid": "5f2d765a26ecac586653841638eff6ad235e9c5070fe807d98d51706e816a195",
      "hash": "3255cbef374319faeae865b4feb84b4287b4bd49dd9abad4a1f5d09bba127f5d",
      "version": 1,
      "size": 372,
      "vsize": 207,
      "locktime": 0,
      "vin": [
        {
          "txid": "83d00c63a5f86145a684878d8e42834f02b8e648cddec59dc984f29f985af1cc",
          "vout": 1,
          "scriptSig": {
            "asm": "0020409fd93c7351b461fa46963fa28755038f397ee054ab9e56eda0b1081d768cc4",
            "hex": "220020409fd93c7351b461fa46963fa28755038f397ee054ab9e56eda0b1081d768cc4"
          },
          "txinwitness": [
            "", 
            "304402205023ba9940f9c62a994bb161c1c3aae4fb57814ed0a0252972ae2c10987399280220636c874933aa3ee153a8586fceb699bbf4529113a5579baf61e67b1a815bcc4401", 
            "304402207ab4a58893d141ead65dfdeac131433dee53d9e67d640ca6a0c2f8a8908962fe02207a939b5edabfe68dfc43caeef791b75c077466865344b13ffae5e5c28f04526001", 
            "522103ceb293b39e087131961da42b3deaef48432d57a08bfd111247901be2936525b32103fa185b0d6c2a6d812d1a9418c54b3cea527d229a73a0c6c72345a1851ebcdad352ae"
          ],
          "sequence": 4294967295
        }
      ],
      "vout": [
        {
          "value": 0.04166700,
          "n": 0,
          "scriptPubKey": {
            "asm": "OP_DUP OP_HASH160 74a58134785a242a9eab4eaad26e1f3be6102a9a OP_EQUALVERIFY OP_CHECKSIG",
            "hex": "76a91474a58134785a242a9eab4eaad26e1f3be6102a9a88ac",
            "reqSigs": 1,
            "type": "pubkeyhash",
            "addresses": [
              "LVriuw89Qt6Vc6Tk9Dh94vafuoCytktssQ"
            ]
          }
        }, 
        {
          "value": 0.46602900,
          "n": 1,
          "scriptPubKey": {
            "asm": "OP_HASH160 2d9ba1f1c217fd18a576b17eaf8a1c6f1cd2f1de OP_EQUAL",
            "hex": "a9142d9ba1f1c217fd18a576b17eaf8a1c6f1cd2f1de87",
            "reqSigs": 1,
            "type": "scripthash",
            "addresses": [
              "MC4K5c2x6rcVohDBLrLNQRsqL5atuzztot"
            ]
          }
        }
      ],
      "hex": "01000000000101ccf15a989ff284c99dc5decd48e6b8024f83428e8d8784a64561f8a5630cd0830100000023220020409fd93c7351b461fa46963fa28755038f397ee054ab9e56eda0b1081d768cc4ffffffff022c943f00000000001976a91474a58134785a242a9eab4eaad26e1f3be6102a9a88ac941ac7020000000017a9142d9ba1f1c217fd18a576b17eaf8a1c6f1cd2f1de87040047304402205023ba9940f9c62a994bb161c1c3aae4fb57814ed0a0252972ae2c10987399280220636c874933aa3ee153a8586fceb699bbf4529113a5579baf61e67b1a815bcc440147304402207ab4a58893d141ead65dfdeac131433dee53d9e67d640ca6a0c2f8a8908962fe02207a939b5edabfe68dfc43caeef791b75c077466865344b13ffae5e5c28f0452600147522103ceb293b39e087131961da42b3deaef48432d57a08bfd111247901be2936525b32103fa185b0d6c2a6d812d1a9418c54b3cea527d229a73a0c6c72345a1851ebcdad352ae00000000"
    }, 
    {
      "txid": "39141a8d5dfeb650f7f0ec12f3c969072e8ce989b2de7192550b6e51f5d0d733",
      "hash": "b569376cd849fd492e33654b70b10c76c39103ef1ce5dcc6aae84d65884def0d",
      "version": 1,
      "size": 373,
      "vsize": 208,
      "locktime": 0,
      "vin": [
        {
          "txid": "c07d77cfa2214082c776893642de4342d464219c2bc0a520691c2d1783fe29f0",
          "vout": 1,
          "scriptSig": {
            "asm": "0020409fd93c7351b461fa46963fa28755038f397ee054ab9e56eda0b1081d768cc4",
            "hex": "220020409fd93c7351b461fa46963fa28755038f397ee054ab9e56eda0b1081d768cc4"
          },
          "txinwitness": [
            "", 
            "3045022100c1d8257dac2efe8da3a26be6d5c85b5ff8bc0ce80e642154b20d5fbf4cb5538802203c11fc8c5ffb0e839b520e251fe33caa261c5f23bf4b866258b79c6e89015f1e01", 
            "3044022072a1df20f836e5e506bcf9b0b34dc4fd4cd09b87642bcb0b97398793aff2ab6902206d683de2cc0eba95b8089113a97bdaf147559d9866765ec23e12710503104ee501", 
            "522103ceb293b39e087131961da42b3deaef48432d57a08bfd111247901be2936525b32103fa185b0d6c2a6d812d1a9418c54b3cea527d229a73a0c6c72345a1851ebcdad352ae"
          ],
          "sequence": 4294967295
        }
      ],
      "vout": [
        {
          "value": 0.01041700,
          "n": 0,
          "scriptPubKey": {
            "asm": "OP_DUP OP_HASH160 98cf131618dce3ed2ae894e73c563906063a88f7 OP_EQUALVERIFY OP_CHECKSIG",
            "hex": "76a91498cf131618dce3ed2ae894e73c563906063a88f788ac",
            "reqSigs": 1,
            "type": "pubkeyhash",
            "addresses": [
              "LZ9w3ASfQm49Q849cTPEhCmWv9Nriz5VvN"
            ]
          }
        }, 
        {
          "value": 0.75912100,
          "n": 1,
          "scriptPubKey": {
            "asm": "OP_HASH160 2d9ba1f1c217fd18a576b17eaf8a1c6f1cd2f1de OP_EQUAL",
            "hex": "a9142d9ba1f1c217fd18a576b17eaf8a1c6f1cd2f1de87",
            "reqSigs": 1,
            "type": "scripthash",
            "addresses": [
              "MC4K5c2x6rcVohDBLrLNQRsqL5atuzztot"
            ]
          }
        }
      ],
      "hex": "01000000000101f029fe83172d1c6920a5c02b9c2164d44243de42368976c7824021a2cf777dc00100000023220020409fd93c7351b461fa46963fa28755038f397ee054ab9e56eda0b1081d768cc4ffffffff0224e50f00000000001976a91498cf131618dce3ed2ae894e73c563906063a88f788aca45386040000000017a9142d9ba1f1c217fd18a576b17eaf8a1c6f1cd2f1de870400483045022100c1d8257dac2efe8da3a26be6d5c85b5ff8bc0ce80e642154b20d5fbf4cb5538802203c11fc8c5ffb0e839b520e251fe33caa261c5f23bf4b866258b79c6e89015f1e01473044022072a1df20f836e5e506bcf9b0b34dc4fd4cd09b87642bcb0b97398793aff2ab6902206d683de2cc0eba95b8089113a97bdaf147559d9866765ec23e12710503104ee50147522103ceb293b39e087131961da42b3deaef48432d57a08bfd111247901be2936525b32103fa185b0d6c2a6d812d1a9418c54b3cea527d229a73a0c6c72345a1851ebcdad352ae00000000"
    }, 
    {
      "txid": "972ed945f677a61fcb05897347a89c423b0c244f459fd8083db9bac925903224",
      "hash": "972ed945f677a61fcb05897347a89c423b0c244f459fd8083db9bac925903224",
      "version": 1,
      "size": 191,
      "vsize": 191,
      "locktime": 0,
      "vin": [
        {
          "txid": "78ce39921458500f868665581695964a62bae90496275ad091de51fb98bfe6f0",
          "vout": 0,
          "scriptSig": {
            "asm": "30440220448959e68b55d3e388d8ec32d27f46250d789e1e5e6359ed29d93b18c54291ec0220300e01d93920cd0af1819189a72b2d3d7e924d5e932f5e1c055af2c30cfbfcc2[ALL] 02d9c2efec29eabe668d01e8fb8f1d4a733a4024ef6e3e680da20516ac5fd68890",
            "hex": "4730440220448959e68b55d3e388d8ec32d27f46250d789e1e5e6359ed29d93b18c54291ec0220300e01d93920cd0af1819189a72b2d3d7e924d5e932f5e1c055af2c30cfbfcc2012102d9c2efec29eabe668d01e8fb8f1d4a733a4024ef6e3e680da20516ac5fd68890"
          },
          "sequence": 4294967295
        }
      ],
      "vout": [
        {
          "value": 0.12884016,
          "n": 0,
          "scriptPubKey": {
            "asm": "OP_DUP OP_HASH160 f014649054975fb8ff5c0845231d7fa0119ab530 OP_EQUALVERIFY OP_CHECKSIG",
            "hex": "76a914f014649054975fb8ff5c0845231d7fa0119ab53088ac",
            "reqSigs": 1,
            "type": "pubkeyhash",
            "addresses": [
              "Lh7NsArouD3W9NNjSGQQumzCzzaTwYAa1y"
            ]
          }
        }
      ],
      "hex": "0100000001f0e6bf98fb51de91d05a279604e9ba624a969516586586860f5058149239ce78000000006a4730440220448959e68b55d3e388d8ec32d27f46250d789e1e5e6359ed29d93b18c54291ec0220300e01d93920cd0af1819189a72b2d3d7e924d5e932f5e1c055af2c30cfbfcc2012102d9c2efec29eabe668d01e8fb8f1d4a733a4024ef6e3e680da20516ac5fd68890ffffffff013098c400000000001976a914f014649054975fb8ff5c0845231d7fa0119ab53088ac00000000"
    }, 
    {
      "txid": "6cf392c591881e6d17f443ed843742055af65608c98f5936a133a03f2f169418",
      "hash": "6cf392c591881e6d17f443ed843742055af65608c98f5936a133a03f2f169418",
      "version": 1,
      "size": 225,
      "vsize": 225,
      "locktime": 0,
      "vin": [
        {
          "txid": "f1f04a92719da1694c97113fed642f7a15ea5422e304cef4f8e36c07cade7bef",
          "vout": 1,
          "scriptSig": {
            "asm": "30440220314444c16670e0fcb6724358990836e9a964f3c20901db356b459d5fa068413a0220287109b46293a9441ecb30eec50e2dbd9c9b567ec014143aa443050651baf92e[ALL] 03c1a87a5139b69bb468a5eee87451cfef905102145905b7fe89ac3b57916bd75e",
            "hex": "4730440220314444c16670e0fcb6724358990836e9a964f3c20901db356b459d5fa068413a0220287109b46293a9441ecb30eec50e2dbd9c9b567ec014143aa443050651baf92e012103c1a87a5139b69bb468a5eee87451cfef905102145905b7fe89ac3b57916bd75e"
          },
          "sequence": 4294967295
        }
      ],
      "vout": [
        {
          "value": 75.00000000,
          "n": 0,
          "scriptPubKey": {
            "asm": "OP_DUP OP_HASH160 f678f26286a0dd0c30f2e0ba96c4e5eb0a0b91ac OP_EQUALVERIFY OP_CHECKSIG",
            "hex": "76a914f678f26286a0dd0c30f2e0ba96c4e5eb0a0b91ac88ac",
            "reqSigs": 1,
            "type": "pubkeyhash",
            "addresses": [
              "LhhBNwCu55fM9rWTchwcW4NTeJiSBsm6km"
            ]
          }
        }, 
        {
          "value": 12.55209170,
          "n": 1,
          "scriptPubKey": {
            "asm": "OP_DUP OP_HASH160 526e0f57f04bca47ec6dda25eafc3e0a4a8ab92a OP_EQUALVERIFY OP_CHECKSIG",
            "hex": "76a914526e0f57f04bca47ec6dda25eafc3e0a4a8ab92a88ac",
            "reqSigs": 1,
            "type": "pubkeyhash",
            "addresses": [
              "LSjoX3Mqo6HqDpskhiBhehMGAgfDdoVbFn"
            ]
          }
        }
      ],
      "hex": "0100000001ef7bdeca076ce3f8f4ce04e32254ea157a2f64ed3f11974c69a19d71924af0f1010000006a4730440220314444c16670e0fcb6724358990836e9a964f3c20901db356b459d5fa068413a0220287109b46293a9441ecb30eec50e2dbd9c9b567ec014143aa443050651baf92e012103c1a87a5139b69bb468a5eee87451cfef905102145905b7fe89ac3b57916bd75effffffff0200eb08bf010000001976a914f678f26286a0dd0c30f2e0ba96c4e5eb0a0b91ac88acd2f8d04a000000001976a914526e0f57f04bca47ec6dda25eafc3e0a4a8ab92a88ac00000000"
    }, 
    {
      "txid": "f33c189e11d7166166fce61971cfda16c43c47c5083ceb64a618f928bbb53607",
      "hash": "f33c189e11d7166166fce61971cfda16c43c47c5083ceb64a618f928bbb53607",
      "version": 2,
      "size": 373,
      "vsize": 373,
      "locktime": 1358028,
      "vin": [
        {
          "txid": "67a410e62d11e65ce93300b6cba98fa7b5fc1dc29a456bb1c4746c199c255404",
          "vout": 1,
          "scriptSig": {
            "asm": "304402201506274eda77726580de074d45650dbef51fb53fb1f7f6a885f3c36e9f269ef9022038c76e4ba0ec69144f70ae5f596af8417c89223028197afc5eea6de8ea7be6ff[ALL] 03c82a4170c2842ee33e2289213a9a00f8049faa45c79303bff430f0cc0679c888",
            "hex": "47304402201506274eda77726580de074d45650dbef51fb53fb1f7f6a885f3c36e9f269ef9022038c76e4ba0ec69144f70ae5f596af8417c89223028197afc5eea6de8ea7be6ff012103c82a4170c2842ee33e2289213a9a00f8049faa45c79303bff430f0cc0679c888"
          },
          "sequence": 4294967294
        }, 
        {
          "txid": "bdcc30aa05673be956b25a20f82b63cf9631f8d88610890380703dd7074fd490",
          "vout": 0,
          "scriptSig": {
            "asm": "3045022100e5734292c6c069ba833dd64b2399ff8b923fb1a6f1fd4ac86a7744e0a000174002200674b132cde232d44b08fd0464c719b796c06e661558bd6c4120b30390ea53ab[ALL] 03562edf3e12c495016c453d0e64eeba6b18dabc6613b6163a13145c7862d80e01",
            "hex": "483045022100e5734292c6c069ba833dd64b2399ff8b923fb1a6f1fd4ac86a7744e0a000174002200674b132cde232d44b08fd0464c719b796c06e661558bd6c4120b30390ea53ab012103562edf3e12c495016c453d0e64eeba6b18dabc6613b6163a13145c7862d80e01"
          },
          "sequence": 4294967294
        }
      ],
      "vout": [
        {
          "value": 0.01502600,
          "n": 0,
          "scriptPubKey": {
            "asm": "OP_DUP OP_HASH160 1d01577f454cd192e53f7c3a10286098db5c32ec OP_EQUALVERIFY OP_CHECKSIG",
            "hex": "76a9141d01577f454cd192e53f7c3a10286098db5c32ec88ac",
            "reqSigs": 1,
            "type": "pubkeyhash",
            "addresses": [
              "LMsKU1F5tPhYeYPZtuZr17s2Zxmyobcai5"
            ]
          }
        }, 
        {
          "value": 0.87460000,
          "n": 1,
          "scriptPubKey": {
            "asm": "OP_DUP OP_HASH160 ff61ce843a94da5eae1a6105f04161fde3ab1dd1 OP_EQUALVERIFY OP_CHECKSIG",
            "hex": "76a914ff61ce843a94da5eae1a6105f04161fde3ab1dd188ac",
            "reqSigs": 1,
            "type": "pubkeyhash",
            "addresses": [
              "LiWHjrmCBhFydYM7Xvmi3hhbq8gxcup6iS"
            ]
          }
        }
      ],
      "hex": "02000000020454259c196c74c4b16b459ac21dfcb5a78fa9cbb60033e95ce6112de610a467010000006a47304402201506274eda77726580de074d45650dbef51fb53fb1f7f6a885f3c36e9f269ef9022038c76e4ba0ec69144f70ae5f596af8417c89223028197afc5eea6de8ea7be6ff012103c82a4170c2842ee33e2289213a9a00f8049faa45c79303bff430f0cc0679c888feffffff90d44f07d73d708003891086d8f83196cf632bf8205ab256e93b6705aa30ccbd000000006b483045022100e5734292c6c069ba833dd64b2399ff8b923fb1a6f1fd4ac86a7744e0a000174002200674b132cde232d44b08fd0464c719b796c06e661558bd6c4120b30390ea53ab012103562edf3e12c495016c453d0e64eeba6b18dabc6613b6163a13145c7862d80e01feffffff0288ed1600000000001976a9141d01577f454cd192e53f7c3a10286098db5c32ec88aca0883605000000001976a914ff61ce843a94da5eae1a6105f04161fde3ab1dd188acccb81400"
    }, 
    {
      "txid": "2d20f3262f376aa46976b11049f4e19c094fd7ddaedf3c7ea8fcbe708a7a412f",
      "hash": "2d20f3262f376aa46976b11049f4e19c094fd7ddaedf3c7ea8fcbe708a7a412f",
      "version": 1,
      "size": 226,
      "vsize": 226,
      "locktime": 0,
      "vin": [
        {
          "txid": "ab2d40b25274d141317323fcceb98b0c770873514b81e4776e61f1a2915031a0",
          "vout": 0,
          "scriptSig": {
            "asm": "3045022100d66b836d0553db9180e51c502bc1e63460e588652909a85aa8c5affc620b963e02205cda5c41274bae93cd343994cc47f986057591dc82fcf5f800dfe443ee7fff99[ALL] 0233d0c73d33fe88148e4ef6fdb3959a855718a67797bf25f9d5490de4c62e58e9",
            "hex": "483045022100d66b836d0553db9180e51c502bc1e63460e588652909a85aa8c5affc620b963e02205cda5c41274bae93cd343994cc47f986057591dc82fcf5f800dfe443ee7fff9901210233d0c73d33fe88148e4ef6fdb3959a855718a67797bf25f9d5490de4c62e58e9"
          },
          "sequence": 4294967295
        }
      ],
      "vout": [
        {
          "value": 87.51417084,
          "n": 0,
          "scriptPubKey": {
            "asm": "OP_DUP OP_HASH160 c06311e2c913024da7170a3c22c7ef564909c1d6 OP_EQUALVERIFY OP_CHECKSIG",
            "hex": "76a914c06311e2c913024da7170a3c22c7ef564909c1d688ac",
            "reqSigs": 1,
            "type": "pubkeyhash",
            "addresses": [
              "LcmCgYF2bFXjXYoXgQEC1GFzyxRCQV1yoV"
            ]
          }
        }, 
        {
          "value": 3.00000470,
          "n": 1,
          "scriptPubKey": {
            "asm": "OP_DUP OP_HASH160 f1785e585508a9cebb43f97efa9ca7cbaccdb6db OP_EQUALVERIFY OP_CHECKSIG",
            "hex": "76a914f1785e585508a9cebb43f97efa9ca7cbaccdb6db88ac",
            "reqSigs": 1,
            "type": "pubkeyhash",
            "addresses": [
              "LhEjJoA1jSdLwrdLVU29Kqh3jiQsrk3Yam"
            ]
          }
        }
      ],
      "hex": "0100000001a0315091a2f1616e77e4814b517308770c8bb9cefc23733141d17452b2402dab000000006b483045022100d66b836d0553db9180e51c502bc1e63460e588652909a85aa8c5affc620b963e02205cda5c41274bae93cd343994cc47f986057591dc82fcf5f800dfe443ee7fff9901210233d0c73d33fe88148e4ef6fdb3959a855718a67797bf25f9d5490de4c62e58e9ffffffff02fc06a009020000001976a914c06311e2c913024da7170a3c22c7ef564909c1d688acd6a4e111000000001976a914f1785e585508a9cebb43f97efa9ca7cbaccdb6db88ac00000000"
    }, 
    {
      "txid": "7da8bdb4d540ff38116579e025d77ca6b1339dfb19789b2b2156ebad82e0483b",
      "hash": "7da8bdb4d540ff38116579e025d77ca6b1339dfb19789b2b2156ebad82e0483b",
      "version": 1,
      "size": 226,
      "vsize": 226,
      "locktime": 0,
      "vin": [
        {
          "txid": "64e28c7989c1e0093730e925ad5e39870a7beeae84a5e0974838109c94d835c1",
          "vout": 0,
          "scriptSig": {
            "asm": "3045022100826e8211219d6939f19b0108cacc77765a86ae49eb402b53aad636979ef6a41e02201391ef6c58a2aeab75daaca6e94dea19dfca689895df14ff81d747f07af4077d[ALL] 02b54000b801c0a6fcf1dcd3d5aadc30e76f6eb79b469fa54b94df1ce3a46f17a0",
            "hex": "483045022100826e8211219d6939f19b0108cacc77765a86ae49eb402b53aad636979ef6a41e02201391ef6c58a2aeab75daaca6e94dea19dfca689895df14ff81d747f07af4077d012102b54000b801c0a6fcf1dcd3d5aadc30e76f6eb79b469fa54b94df1ce3a46f17a0"
          },
          "sequence": 4294967295
        }
      ],
      "vout": [
        {
          "value": 84.92519373,
          "n": 0,
          "scriptPubKey": {
            "asm": "OP_DUP OP_HASH160 e8994146f1af55d5064bdf9c620c17b76ec43acb OP_EQUALVERIFY OP_CHECKSIG",
            "hex": "76a914e8994146f1af55d5064bdf9c620c17b76ec43acb88ac",
            "reqSigs": 1,
            "type": "pubkeyhash",
            "addresses": [
              "LgRpd4VMJgvNsdoJLyi6ccNtACmqdmH4Lz"
            ]
          }
        }, 
        {
          "value": 6.30710921,
          "n": 1,
          "scriptPubKey": {
            "asm": "OP_DUP OP_HASH160 9dc47d54196da029f3d22bc2670d1b4342095c8d OP_EQUALVERIFY OP_CHECKSIG",
            "hex": "76a9149dc47d54196da029f3d22bc2670d1b4342095c8d88ac",
            "reqSigs": 1,
            "type": "pubkeyhash",
            "addresses": [
              "LZc9jfWDCCj9jRRMSKr6y9Jmf2dTFW8pjR"
            ]
          }
        }
      ],
      "hex": "0100000001c135d8949c10384897e0a584aeee7b0a87395ead25e9303709e0c189798ce264000000006b483045022100826e8211219d6939f19b0108cacc77765a86ae49eb402b53aad636979ef6a41e02201391ef6c58a2aeab75daaca6e94dea19dfca689895df14ff81d747f07af4077d012102b54000b801c0a6fcf1dcd3d5aadc30e76f6eb79b469fa54b94df1ce3a46f17a0ffffffff02cd8f31fa010000001976a914e8994146f1af55d5064bdf9c620c17b76ec43acb88ac89e29725000000001976a9149dc47d54196da029f3d22bc2670d1b4342095c8d88ac00000000"
    }, 
    {
      "txid": "490da0710e5fd9421e915384e529df07c1f0da7e5e6e348c0a347e72fb168b4d",
      "hash": "490da0710e5fd9421e915384e529df07c1f0da7e5e6e348c0a347e72fb168b4d",
      "version": 1,
      "size": 226,
      "vsize": 226,
      "locktime": 0,
      "vin": [
        {
          "txid": "c1c449d5cc1f37f38fbd67130e4ff37757bc75c8c7ff2b788a6bb8b5bfb58ac8",
          "vout": 1,
          "scriptSig": {
            "asm": "30450221009d019a4b35b0ee22dcb4f792b49fbbad3b0cdffd0e1c9a6593a9b8462441cfcd02206afceac108289168be8663b07a7a8d3bfcd7fa58612a5b25baeca54556d78237[ALL] 031e984e60728b2a42bbc84463da59364336dd81ac49e8b4c4396ea05492f14d99",
            "hex": "4830450221009d019a4b35b0ee22dcb4f792b49fbbad3b0cdffd0e1c9a6593a9b8462441cfcd02206afceac108289168be8663b07a7a8d3bfcd7fa58612a5b25baeca54556d782370121031e984e60728b2a42bbc84463da59364336dd81ac49e8b4c4396ea05492f14d99"
          },
          "sequence": 4294967295
        }
      ],
      "vout": [
        {
          "value": 0.04729000,
          "n": 0,
          "scriptPubKey": {
            "asm": "OP_DUP OP_HASH160 88bace0c1f684d43d19db1d36b1129ca63596018 OP_EQUALVERIFY OP_CHECKSIG",
            "hex": "76a91488bace0c1f684d43d19db1d36b1129ca6359601888ac",
            "reqSigs": 1,
            "type": "pubkeyhash",
            "addresses": [
              "LXguwjQpQQRwAJYtiTvvdP94oLD9DsATBT"
            ]
          }
        }, 
        {
          "value": 0.00054969,
          "n": 1,
          "scriptPubKey": {
            "asm": "OP_DUP OP_HASH160 334bb0cc233f2a440eef6eb1e763bbd7bb836534 OP_EQUALVERIFY OP_CHECKSIG",
            "hex": "76a914334bb0cc233f2a440eef6eb1e763bbd7bb83653488ac",
            "reqSigs": 1,
            "type": "pubkeyhash",
            "addresses": [
              "LPuBQ5A6PNRZnNXqPnWPV1j9zQQbnxzEJD"
            ]
          }
        }
      ],
      "hex": "0100000001c88ab5bfb5b86b8a782bffc7c875bc5777f34f0e1367bd8ff3371fccd549c4c1010000006b4830450221009d019a4b35b0ee22dcb4f792b49fbbad3b0cdffd0e1c9a6593a9b8462441cfcd02206afceac108289168be8663b07a7a8d3bfcd7fa58612a5b25baeca54556d782370121031e984e60728b2a42bbc84463da59364336dd81ac49e8b4c4396ea05492f14d99ffffffff02a8284800000000001976a91488bace0c1f684d43d19db1d36b1129ca6359601888acb9d60000000000001976a914334bb0cc233f2a440eef6eb1e763bbd7bb83653488ac00000000"
    }, 
    {
      "txid": "92a613f2c72fe46a72fd6c99d9d9fe6ba1eef361dd8ddabbceef10122a4fe2af",
      "hash": "92a613f2c72fe46a72fd6c99d9d9fe6ba1eef361dd8ddabbceef10122a4fe2af",
      "version": 1,
      "size": 224,
      "vsize": 224,
      "locktime": 0,
      "vin": [
        {
          "txid": "d0ab35d07e035594c36f5741c2eae79f78386c64de39a7e130dc2d6f5bc24dd2",
          "vout": 0,
          "scriptSig": {
            "asm": "3045022100ac946b0affa24920adef0cbd1d6f6f99d02d56d6c90ac26d0b0c98a65557ccd7022072f2b075e510f685f66e515860f616480f47510f624decc81d2e47025a7a4536[ALL] 0246b7212877e632918b4890e3e295ba932b626cc670dc35f6ddee90cd95461f8f",
            "hex": "483045022100ac946b0affa24920adef0cbd1d6f6f99d02d56d6c90ac26d0b0c98a65557ccd7022072f2b075e510f685f66e515860f616480f47510f624decc81d2e47025a7a453601210246b7212877e632918b4890e3e295ba932b626cc670dc35f6ddee90cd95461f8f"
          },
          "sequence": 4294967295
        }
      ],
      "vout": [
        {
          "value": 10.00000000,
          "n": 0,
          "scriptPubKey": {
            "asm": "OP_HASH160 115b7d4b2ed34d1d6d456266db0372ff1dd92286 OP_EQUAL",
            "hex": "a914115b7d4b2ed34d1d6d456266db0372ff1dd9228687",
            "reqSigs": 1,
            "type": "scripthash",
            "addresses": [
              "M9UwKVGgMrnZcWp7vdfx1aTWMgmqV2BCkf"
            ]
          }
        }, 
        {
          "value": 81.62130587,
          "n": 1,
          "scriptPubKey": {
            "asm": "OP_DUP OP_HASH160 5885743a55f5c018d5712d57e789f044e7bfbd72 OP_EQUALVERIFY OP_CHECKSIG",
            "hex": "76a9145885743a55f5c018d5712d57e789f044e7bfbd7288ac",
            "reqSigs": 1,
            "type": "pubkeyhash",
            "addresses": [
              "LTJ1beAfTtQnEeFmrtfzRhWX9eMhXMDb9V"
            ]
          }
        }
      ],
      "hex": "0100000001d24dc25b6f2ddc30e1a739de646c38789fe7eac241576fc39455037ed035abd0000000006b483045022100ac946b0affa24920adef0cbd1d6f6f99d02d56d6c90ac26d0b0c98a65557ccd7022072f2b075e510f685f66e515860f616480f47510f624decc81d2e47025a7a453601210246b7212877e632918b4890e3e295ba932b626cc670dc35f6ddee90cd95461f8fffffffff0200ca9a3b0000000017a914115b7d4b2ed34d1d6d456266db0372ff1dd92286879b3a80e6010000001976a9145885743a55f5c018d5712d57e789f044e7bfbd7288ac00000000"
    }, 
    {
      "txid": "d9c67fd23b59fc791a22b15c1de8d810c9006ecf831fb316b7b287d522b6f4d0",
      "hash": "d9c67fd23b59fc791a22b15c1de8d810c9006ecf831fb316b7b287d522b6f4d0",
      "version": 1,
      "size": 224,
      "vsize": 224,
      "locktime": 0,
      "vin": [
        {
          "txid": "f4861c810971355c0397ad8f405c86b67635bcc02a4b29b122239c1ddb5fbc0f",
          "vout": 1,
          "scriptSig": {
            "asm": "304502210085db1e1ec542f18771b36129da1b4a0f035ab03e957505fa719519890e5e2cc602205a883c9d1ab1cb04996ce1b26336f1ca7420ad80c65700e9223287d642100a46[ALL] 03954875346598fb11f1a849faec1e28baf93c6e01eb59a5393c80cf9d5ee82b05",
            "hex": "48304502210085db1e1ec542f18771b36129da1b4a0f035ab03e957505fa719519890e5e2cc602205a883c9d1ab1cb04996ce1b26336f1ca7420ad80c65700e9223287d642100a46012103954875346598fb11f1a849faec1e28baf93c6e01eb59a5393c80cf9d5ee82b05"
          },
          "sequence": 4294967295
        }
      ],
      "vout": [
        {
          "value": 21.67959436,
          "n": 0,
          "scriptPubKey": {
            "asm": "OP_DUP OP_HASH160 8536bd53443775df125151828ab2f7408c3e2453 OP_EQUALVERIFY OP_CHECKSIG",
            "hex": "76a9148536bd53443775df125151828ab2f7408c3e245388ac",
            "reqSigs": 1,
            "type": "pubkeyhash",
            "addresses": [
              "LXNKi6bDdDx2zgZv6afBh8nAsSxDsTriw4"
            ]
          }
        }, 
        {
          "value": 70.00000000,
          "n": 1,
          "scriptPubKey": {
            "asm": "OP_HASH160 33ee54365f63f99816fa635b6bd89a74b7a6f8cc OP_EQUAL",
            "hex": "a91433ee54365f63f99816fa635b6bd89a74b7a6f8cc87",
            "reqSigs": 1,
            "type": "scripthash",
            "addresses": [
              "MCdkCbjMh3Yb6UPiWCSP1aogZgiXhw7hRL"
            ]
          }
        }
      ],
      "hex": "01000000010fbc5fdb1d9c2322b1294b2ac0bc3576b6865c408fad97035c357109811c86f4010000006b48304502210085db1e1ec542f18771b36129da1b4a0f035ab03e957505fa719519890e5e2cc602205a883c9d1ab1cb04996ce1b26336f1ca7420ad80c65700e9223287d642100a46012103954875346598fb11f1a849faec1e28baf93c6e01eb59a5393c80cf9d5ee82b05ffffffff028c6f3881000000001976a9148536bd53443775df125151828ab2f7408c3e245388ac00863ba10100000017a91433ee54365f63f99816fa635b6bd89a74b7a6f8cc8700000000"
    }
  ],
  "time": 1517078401,
  "mediantime": 1517077844,
  "nonce": 2422117283,
  "bits": "1a047f14",
  "difficulty": 3731199.183374282,
  "chainwork": "000000000000000000000000000000000000000000000032bd6737d5b6071820",
  "previousblockhash": "3a0b711dece9d3b3df4a4d65f19ecb0110652d0c3e4c0fd580f88ad872ced9ad",
  "nextblockhash": "f92fab67e358cef8b092acea2cba299a1938656555d829b1df5ff2cb3b281b6a"
}
