{
  "hash": "4151fee665a6f5fb7c6fd074b5efcc90bc21b014db2092b5fc993b7212a2ee42",
  "confirmations": 398,
  "strippedsize": 4467,
  "size": 4503,
  "weight": 17904,
  "height": 1360596,
  "version": 536870912,
  "versionHex": "20000000",
  "merkleroot": "fbf44b61814cafe1307790b269f3cc9ae4eb5c220fcb7b82ed1b79c79d5a7e7c",
  "tx": [
    {
      "txid": "9aa825a74540d43758bd43eeb4c2e83fd2f65638b73cb38f548567af2bf77734",
      "hash": "40b79f2bc387323062f7d1ab7c6f6cc89ec778b12e948b1c0cd71e7d472554e2",
      "version": 1,
      "size": 277,
      "vsize": 250,
      "locktime": 949297006,
      "vin": [
        {
          "coinbase": "03d4c2142cfabe6d6d20c9742bca27af4647cb2ee05b8a3d146b48069b9f18072eaa196ed0fad46aab08000000f09f909f154d696e65642062792077616e6779696e67323030320000000000000000000000000000000000000000000000000000000000",
          "sequence": 33
        }
      ],
      "vout": [
        {
          "value": 25.00975500,
          "n": 0,
          "scriptPubKey": {
            "asm": "OP_DUP OP_HASH160 aa3750aa18b8a0f3f0590731e1fab934856680cf OP_EQUALVERIFY OP_CHECKSIG",
            "hex": "76a914aa3750aa18b8a0f3f0590731e1fab934856680cf88ac",
            "reqSigs": 1,
            "type": "pubkeyhash",
            "addresses": [
              "LajyQBeZaBA1NkZDeY8YT5RYYVRkXMvb2T"
            ]
          }
        }, 
        {
          "value": 0.00000000,
          "n": 1,
          "scriptPubKey": {
            "asm": "OP_RETURN aa21a9edc9d62647fc6c281f8267b5ca4c0a3128b5dd5d4d5367bc911d6a56bb257c2ed1 0000000000000000",
            "hex": "6a24aa21a9edc9d62647fc6c281f8267b5ca4c0a3128b5dd5d4d5367bc911d6a56bb257c2ed1080000000000000000",
            "type": "nulldata"
          }
        }
      ],
      "hex": "010000000001010000000000000000000000000000000000000000000000000000000000000000ffffffff6403d4c2142cfabe6d6d20c9742bca27af4647cb2ee05b8a3d146b48069b9f18072eaa196ed0fad46aab08000000f09f909f154d696e65642062792077616e6779696e6732303032000000000000000000000000000000000000000000000000000000000021000000028cdb1195000000001976a914aa3750aa18b8a0f3f0590731e1fab934856680cf88ac00000000000000002f6a24aa21a9edc9d62647fc6c281f8267b5ca4c0a3128b5dd5d4d5367bc911d6a56bb257c2ed1080000000000000000012000000000000000000000000000000000000000000000000000000000000000006e1f9538"
    }, 
    {
      "txid": "6012f48fc71c3346f9b84fe555f0839409fd2d832167fbed8c46ded479df6b39",
      "hash": "6012f48fc71c3346f9b84fe555f0839409fd2d832167fbed8c46ded479df6b39",
      "version": 1,
      "size": 373,
      "vsize": 373,
      "locktime": 0,
      "vin": [
        {
          "txid": "e4867707351be3b3b2c1984750915feafa1306d9f2c27df0149c99da071c6152",
          "vout": 1,
          "scriptSig": {
            "asm": "30450221008befd19dd1ea68f7250c5fecdd374ba46ddf810fe32993cc346578e4e447951e02207961ffe03a33e09cef4ffddc7b02568b0afcfc5afb7d54c7677f12b583ccd578[ALL] 0268b4b0d9ec1ddecfcc19c27e2206d1e4ddf8b8e8a4dcecabb0fe5fd6454ae6d9",
            "hex": "4830450221008befd19dd1ea68f7250c5fecdd374ba46ddf810fe32993cc346578e4e447951e02207961ffe03a33e09cef4ffddc7b02568b0afcfc5afb7d54c7677f12b583ccd57801210268b4b0d9ec1ddecfcc19c27e2206d1e4ddf8b8e8a4dcecabb0fe5fd6454ae6d9"
          },
          "sequence": 4294967295
        }, 
        {
          "txid": "dc901dad9c1f5fb767a532452749db3a35a89d885677c1797564860b023f85bc",
          "vout": 0,
          "scriptSig": {
            "asm": "30440220250fcfca7293f0a33289834f6a0df1530614d0cc6ab6f1df2ea197a24c49857102203da15177c2803f02060093707f94f4a8e9f4f2722332c66081ae75b9b1a19376[ALL] 02ed54ec4b8ea998d671345616dc701237fa4a3d375059a3157fe42d186b256d67",
            "hex": "4730440220250fcfca7293f0a33289834f6a0df1530614d0cc6ab6f1df2ea197a24c49857102203da15177c2803f02060093707f94f4a8e9f4f2722332c66081ae75b9b1a19376012102ed54ec4b8ea998d671345616dc701237fa4a3d375059a3157fe42d186b256d67"
          },
          "sequence": 4294967295
        }
      ],
      "vout": [
        {
          "value": 0.21314171,
          "n": 0,
          "scriptPubKey": {
            "asm": "OP_DUP OP_HASH160 4781202d64ed73de086963366ade5d2e6c492887 OP_EQUALVERIFY OP_CHECKSIG",
            "hex": "76a9144781202d64ed73de086963366ade5d2e6c49288788ac",
            "reqSigs": 1,
            "type": "pubkeyhash",
            "addresses": [
              "LRk2veGbt5Q4nwesh9sEgKEmyNyHgcHfS5"
            ]
          }
        }, 
        {
          "value": 0.03921933,
          "n": 1,
          "scriptPubKey": {
            "asm": "OP_DUP OP_HASH160 7fd5bb1db3839d95412f23069567765ac7690470 OP_EQUALVERIFY OP_CHECKSIG",
            "hex": "76a9147fd5bb1db3839d95412f23069567765ac769047088ac",
            "reqSigs": 1,
            "type": "pubkeyhash",
            "addresses": [
              "LWst7rrDzdbsVH1ezB7ZFZdSjGyzgFLRQL"
            ]
          }
        }
      ],
      "hex": "010000000252611c07da999c14f07dc2f2d90613faea5f91504798c1b2b3e31b35077786e4010000006b4830450221008befd19dd1ea68f7250c5fecdd374ba46ddf810fe32993cc346578e4e447951e02207961ffe03a33e09cef4ffddc7b02568b0afcfc5afb7d54c7677f12b583ccd57801210268b4b0d9ec1ddecfcc19c27e2206d1e4ddf8b8e8a4dcecabb0fe5fd6454ae6d9ffffffffbc853f020b86647579c17756889da8353adb49274532a567b75f1f9cad1d90dc000000006a4730440220250fcfca7293f0a33289834f6a0df1530614d0cc6ab6f1df2ea197a24c49857102203da15177c2803f02060093707f94f4a8e9f4f2722332c66081ae75b9b1a19376012102ed54ec4b8ea998d671345616dc701237fa4a3d375059a3157fe42d186b256d67ffffffff027b3a4501000000001976a9144781202d64ed73de086963366ade5d2e6c49288788ac0dd83b00000000001976a9147fd5bb1db3839d95412f23069567765ac769047088ac00000000"
    }, 
    {
      "txid": "3b8322fd98b046194c8e188b14bf2d8dff188643c7c61b4a9d55c75110cc4f65",
      "hash": "3b8322fd98b046194c8e188b14bf2d8dff188643c7c61b4a9d55c75110cc4f65",
      "version": 1,
      "size": 334,
      "vsize": 334,
      "locktime": 0,
      "vin": [
        {
          "txid": "c282895dab41eef49fdde165056f8fafa2b90b6270877967845066db37a64b4b",
          "vout": 1,
          "scriptSig": {
            "asm": "0 304402204e153d488c4e825397244f9cf59a92d044a51a2bb61dfff604486a2f7565fa2802203a9417722283bc430f2960e88baf2d9db34be6d60d986bda79138732f467e637[ALL] 304402207ff7f9a4d899bc18333ae76e0ac015f3e050db7e30c95daadde881aa5c502f4f02200cda0f25ede9b516f7b2a0cd454c654448b22d599e766a526605c6a29e96a878[ALL] 522102f77ec37a042ba4e5e6aef7760398bf59b87ac4c5dee30a2fb8798e9630d4916e210276b93401dc495b28592f66411a7c9093b468f8678db51144fc6a36f550d94aa952ae",
            "hex": "0047304402204e153d488c4e825397244f9cf59a92d044a51a2bb61dfff604486a2f7565fa2802203a9417722283bc430f2960e88baf2d9db34be6d60d986bda79138732f467e6370147304402207ff7f9a4d899bc18333ae76e0ac015f3e050db7e30c95daadde881aa5c502f4f02200cda0f25ede9b516f7b2a0cd454c654448b22d599e766a526605c6a29e96a8780147522102f77ec37a042ba4e5e6aef7760398bf59b87ac4c5dee30a2fb8798e9630d4916e210276b93401dc495b28592f66411a7c9093b468f8678db51144fc6a36f550d94aa952ae"
          },
          "sequence": 4294967295
        }
      ],
      "vout": [
        {
          "value": 0.04912000,
          "n": 0,
          "scriptPubKey": {
            "asm": "OP_DUP OP_HASH160 845692a7eb5387c8458cf34a8614defb19d6e8f6 OP_EQUALVERIFY OP_CHECKSIG",
            "hex": "76a914845692a7eb5387c8458cf34a8614defb19d6e8f688ac",
            "reqSigs": 1,
            "type": "pubkeyhash",
            "addresses": [
              "LXHhAiuqQn6C2pD2TW4q79FFoi9qev7tto"
            ]
          }
        }, 
        {
          "value": 36.25876800,
          "n": 1,
          "scriptPubKey": {
            "asm": "OP_HASH160 75b77316f8d91ff71fb2819115d1b6b9e80ccee9 OP_EQUAL",
            "hex": "a91475b77316f8d91ff71fb2819115d1b6b9e80ccee987",
            "reqSigs": 1,
            "type": "scripthash",
            "addresses": [
              "MJdb4B3BMDrfpB1FpKsPYQ1tDHdkNa1oLB"
            ]
          }
        }
      ],
      "hex": "01000000014b4ba637db66508467798770620bb9a2af8f6f0565e1dd9ff4ee41ab5d8982c201000000d90047304402204e153d488c4e825397244f9cf59a92d044a51a2bb61dfff604486a2f7565fa2802203a9417722283bc430f2960e88baf2d9db34be6d60d986bda79138732f467e6370147304402207ff7f9a4d899bc18333ae76e0ac015f3e050db7e30c95daadde881aa5c502f4f02200cda0f25ede9b516f7b2a0cd454c654448b22d599e766a526605c6a29e96a8780147522102f77ec37a042ba4e5e6aef7760398bf59b87ac4c5dee30a2fb8798e9630d4916e210276b93401dc495b28592f66411a7c9093b468f8678db51144fc6a36f550d94aa952aeffffffff0280f34a00000000001976a914845692a7eb5387c8458cf34a8614defb19d6e8f688ac407d1ed80000000017a91475b77316f8d91ff71fb2819115d1b6b9e80ccee98700000000"
    }, 
    {
      "txid": "162ad5de74557f5e5bfda8a6c17eac18bf8d090711ebca4d2176d954186a5217",
      "hash": "162ad5de74557f5e5bfda8a6c17eac18bf8d090711ebca4d2176d954186a5217",
      "version": 2,
      "size": 226,
      "vsize": 226,
      "locktime": 1360594,
      "vin": [
        {
          "txid": "ad5d8ae09efefa00f8767c461f9940845bca3be01f61d0979d52ecc7be371712",
          "vout": 0,
          "scriptSig": {
            "asm": "3045022100ac7a240e3df0a40d76b51717a65db160bacaef39a8657c48d578cc9c27786af2022055d17440d84c51034f555076c6b9cbd3ce630853852e1b98983000b25561463b[ALL] 03ecd0604aad280a3bdc4429fdc34065e34fb669056712a7714cea9cef4c2528a3",
            "hex": "483045022100ac7a240e3df0a40d76b51717a65db160bacaef39a8657c48d578cc9c27786af2022055d17440d84c51034f555076c6b9cbd3ce630853852e1b98983000b25561463b012103ecd0604aad280a3bdc4429fdc34065e34fb669056712a7714cea9cef4c2528a3"
          },
          "sequence": 4294967294
        }
      ],
      "vout": [
        {
          "value": 0.18255508,
          "n": 0,
          "scriptPubKey": {
            "asm": "OP_DUP OP_HASH160 dc24a058c132cf76a28edb4cbaf661a9f9486026 OP_EQUALVERIFY OP_CHECKSIG",
            "hex": "76a914dc24a058c132cf76a28edb4cbaf661a9f948602688ac",
            "reqSigs": 1,
            "type": "pubkeyhash",
            "addresses": [
              "LfHxoFzvkWSGsGk7JGET2kzMVt434kbseM"
            ]
          }
        }, 
        {
          "value": 1.92763695,
          "n": 1,
          "scriptPubKey": {
            "asm": "OP_DUP OP_HASH160 eef36b4be722a812ffe798e7519254f811394520 OP_EQUALVERIFY OP_CHECKSIG",
            "hex": "76a914eef36b4be722a812ffe798e7519254f81139452088ac",
            "reqSigs": 1,
            "type": "pubkeyhash",
            "addresses": [
              "Lh1QgvfeZRXsgDDBgwkNe9hcqwBxrxgDzV"
            ]
          }
        }
      ],
      "hex": "0200000001121737bec7ec529d97d0611fe03bca5b8440991f467c76f800fafe9ee08a5dad000000006b483045022100ac7a240e3df0a40d76b51717a65db160bacaef39a8657c48d578cc9c27786af2022055d17440d84c51034f555076c6b9cbd3ce630853852e1b98983000b25561463b012103ecd0604aad280a3bdc4429fdc34065e34fb669056712a7714cea9cef4c2528a3feffffff02948e1601000000001976a914dc24a058c132cf76a28edb4cbaf661a9f948602688ac2f577d0b000000001976a914eef36b4be722a812ffe798e7519254f81139452088acd2c21400"
    }, 
    {
      "txid": "7784f70d97f87b6c5879e94358368d5a78e925c0a3efc54d264ad2ac4eeed2a1",
      "hash": "7784f70d97f87b6c5879e94358368d5a78e925c0a3efc54d264ad2ac4eeed2a1",
      "version": 1,
      "size": 223,
      "vsize": 223,
      "locktime": 0,
      "vin": [
        {
          "txid": "b13649f5b719fa9181bd3901ea7a9e2cc0b29521c2d4b28c19774f49d2cada69",
          "vout": 0,
          "scriptSig": {
            "asm": "304402200fb238d136b5601d709a34de654e106c3d5d69bf0af8e80fbc16ac3242cc632102203f51be6b7901a0fffc8ad7541a82890971c050b66a9a4799b9016d9ff8cd06b2[ALL] 034fbd4f92c1d5f36d7719211fb38d7eec85f275d176a98ad7b828658b87881e0d",
            "hex": "47304402200fb238d136b5601d709a34de654e106c3d5d69bf0af8e80fbc16ac3242cc632102203f51be6b7901a0fffc8ad7541a82890971c050b66a9a4799b9016d9ff8cd06b20121034fbd4f92c1d5f36d7719211fb38d7eec85f275d176a98ad7b828658b87881e0d"
          },
          "sequence": 4294967295
        }
      ],
      "vout": [
        {
          "value": 6.55657000,
          "n": 0,
          "scriptPubKey": {
            "asm": "OP_HASH160 4cc99e1195b06ba5e638bb2c55fc9b7a6aa4bace OP_EQUAL",
            "hex": "a9144cc99e1195b06ba5e638bb2c55fc9b7a6aa4bace87",
            "reqSigs": 1,
            "type": "scripthash",
            "addresses": [
              "MEuB7dpotWR1P1xBYBEJot8Vjnk5V9JLUk"
            ]
          }
        }, 
        {
          "value": 82.90420853,
          "n": 1,
          "scriptPubKey": {
            "asm": "OP_DUP OP_HASH160 876bfc2cd3e50213b01684c954e41869a635d08d OP_EQUALVERIFY OP_CHECKSIG",
            "hex": "76a914876bfc2cd3e50213b01684c954e41869a635d08d88ac",
            "reqSigs": 1,
            "type": "pubkeyhash",
            "addresses": [
              "LXZzr3UmsEL4oh9vQ5XgmNTvFKqZkMh3u4"
            ]
          }
        }
      ],
      "hex": "010000000169dacad2494f77198cb2d4c22195b2c02c9e7aea0139bd8191fa19b7f54936b1000000006a47304402200fb238d136b5601d709a34de654e106c3d5d69bf0af8e80fbc16ac3242cc632102203f51be6b7901a0fffc8ad7541a82890971c050b66a9a4799b9016d9ff8cd06b20121034fbd4f92c1d5f36d7719211fb38d7eec85f275d176a98ad7b828658b87881e0dffffffff02288814270000000017a9144cc99e1195b06ba5e638bb2c55fc9b7a6aa4bace8775c825ee010000001976a914876bfc2cd3e50213b01684c954e41869a635d08d88ac00000000"
    }, 
    {
      "txid": "4cdac397287b90c3b67d00854f72299d1fee0a008f4c7fa083511db063574a37",
      "hash": "4cdac397287b90c3b67d00854f72299d1fee0a008f4c7fa083511db063574a37",
      "version": 1,
      "size": 225,
      "vsize": 225,
      "locktime": 0,
      "vin": [
        {
          "txid": "d990c1aa2928c097cd91e8953a36945429aedad54239928a36c064e7361dc5a3",
          "vout": 415,
          "scriptSig": {
            "asm": "30440220530a62b876f98d887d2bfb9b8e28aea7239ea13d2d14737f3c5af5392f5fc08a022035e7a130440c022d572daff85d8517f500dd181ba7aeea135d3fcb0678c8e12e[ALL] 02adf39639156d49a68cdbf0c3ce0308d08bc3c7634ca872bcde84e5d4e4406a1e",
            "hex": "4730440220530a62b876f98d887d2bfb9b8e28aea7239ea13d2d14737f3c5af5392f5fc08a022035e7a130440c022d572daff85d8517f500dd181ba7aeea135d3fcb0678c8e12e012102adf39639156d49a68cdbf0c3ce0308d08bc3c7634ca872bcde84e5d4e4406a1e"
          },
          "sequence": 4294967295
        }
      ],
      "vout": [
        {
          "value": 0.07466773,
          "n": 0,
          "scriptPubKey": {
            "asm": "OP_DUP OP_HASH160 4eb5c5994064ee875afa48cee47b9ab4e9a29288 OP_EQUALVERIFY OP_CHECKSIG",
            "hex": "76a9144eb5c5994064ee875afa48cee47b9ab4e9a2928888ac",
            "reqSigs": 1,
            "type": "pubkeyhash",
            "addresses": [
              "LSQ8iuYQnSvcVeRLV9yVpWG1L7YddYaNHt"
            ]
          }
        }, 
        {
          "value": 0.00061258,
          "n": 1,
          "scriptPubKey": {
            "asm": "OP_DUP OP_HASH160 f1e6eb289e4c6c55de97511472d849193a40ff48 OP_EQUALVERIFY OP_CHECKSIG",
            "hex": "76a914f1e6eb289e4c6c55de97511472d849193a40ff4888ac",
            "reqSigs": 1,
            "type": "pubkeyhash",
            "addresses": [
              "LhH1jwzY9Qf2rsbX6myQ9yyZmpKK2EZS6W"
            ]
          }
        }
      ],
      "hex": "0100000001a3c51d36e764c0368a923942d5daae295494363a95e891cd97c02829aac190d99f0100006a4730440220530a62b876f98d887d2bfb9b8e28aea7239ea13d2d14737f3c5af5392f5fc08a022035e7a130440c022d572daff85d8517f500dd181ba7aeea135d3fcb0678c8e12e012102adf39639156d49a68cdbf0c3ce0308d08bc3c7634ca872bcde84e5d4e4406a1effffffff0215ef7100000000001976a9144eb5c5994064ee875afa48cee47b9ab4e9a2928888ac4aef0000000000001976a914f1e6eb289e4c6c55de97511472d849193a40ff4888ac00000000"
    }, 
    {
      "txid": "f1d5e60d893174c7bfdb85cb074a77751e013df0b30d9aa2130ed43ce6f8516a",
      "hash": "f1d5e60d893174c7bfdb85cb074a77751e013df0b30d9aa2130ed43ce6f8516a",
      "version": 1,
      "size": 225,
      "vsize": 225,
      "locktime": 0,
      "vin": [
        {
          "txid": "27bba5a473c8f487cc5b14a518de17eee6cf874252a8a565e403a4c60fd0f3af",
          "vout": 1,
          "scriptSig": {
            "asm": "304402205bfb729ed4f19f1cca4314987e90329738f7c5ff282ea6cae122afbdedf03cf202205f8d73b28e23e82302f6e6300f5cc221017cf9b0e8ef3c77c4b14c5e174afa70[ALL] 03490b6e7f36ecb4da9f4eceb4da384a7993a6734d7bfca0387d421878beee7678",
            "hex": "47304402205bfb729ed4f19f1cca4314987e90329738f7c5ff282ea6cae122afbdedf03cf202205f8d73b28e23e82302f6e6300f5cc221017cf9b0e8ef3c77c4b14c5e174afa70012103490b6e7f36ecb4da9f4eceb4da384a7993a6734d7bfca0387d421878beee7678"
          },
          "sequence": 4294967295
        }
      ],
      "vout": [
        {
          "value": 2.05150074,
          "n": 0,
          "scriptPubKey": {
            "asm": "OP_DUP OP_HASH160 c5bf309587fb8dea6fa1f798c5a7bdbf2f6b9afe OP_EQUALVERIFY OP_CHECKSIG",
            "hex": "76a914c5bf309587fb8dea6fa1f798c5a7bdbf2f6b9afe88ac",
            "reqSigs": 1,
            "type": "pubkeyhash",
            "addresses": [
              "LdFYR6u8tZR7M4YHKCc6xCLYrKCtdsjEFY"
            ]
          }
        }, 
        {
          "value": 84.43712758,
          "n": 1,
          "scriptPubKey": {
            "asm": "OP_DUP OP_HASH160 099de53c33eff90c94fd6198799392f7b72c210b OP_EQUALVERIFY OP_CHECKSIG",
            "hex": "76a914099de53c33eff90c94fd6198799392f7b72c210b88ac",
            "reqSigs": 1,
            "type": "pubkeyhash",
            "addresses": [
              "LL6oVhzsTtq6GYJmHg65wwK2i51X7mCLeZ"
            ]
          }
        }
      ],
      "hex": "0100000001aff3d00fc6a403e465a5a8524287cfe6ee17de18a5145bcc87f4c873a4a5bb27010000006a47304402205bfb729ed4f19f1cca4314987e90329738f7c5ff282ea6cae122afbdedf03cf202205f8d73b28e23e82302f6e6300f5cc221017cf9b0e8ef3c77c4b14c5e174afa70012103490b6e7f36ecb4da9f4eceb4da384a7993a6734d7bfca0387d421878beee7678ffffffff027a573a0c000000001976a914c5bf309587fb8dea6fa1f798c5a7bdbf2f6b9afe88acf6d448f7010000001976a914099de53c33eff90c94fd6198799392f7b72c210b88ac00000000"
    }, 
    {
      "txid": "f98f1e6b16732274ca95c3c9285eddf4321249b6f11e3b81fa7371cc3da28191",
      "hash": "f98f1e6b16732274ca95c3c9285eddf4321249b6f11e3b81fa7371cc3da28191",
      "version": 2,
      "size": 225,
      "vsize": 225,
      "locktime": 1360594,
      "vin": [
        {
          "txid": "5bf5dd52747e577663d7bb6cd517771d5aa81d76d09691f5ffa530710277bfab",
          "vout": 0,
          "scriptSig": {
            "asm": "30440220703a7f7d33c01f62231e9162ada3430a04d749a9a27b26c5a766868e99fd168002204ddfb78edf933d375df42e534c18709e991f84b6667d6e5a01b06d3b53b20b7b[ALL] 0242c1256cc13c5205add574af94c75780b09e9554a17d4b3f81e8be46d543b95d",
            "hex": "4730440220703a7f7d33c01f62231e9162ada3430a04d749a9a27b26c5a766868e99fd168002204ddfb78edf933d375df42e534c18709e991f84b6667d6e5a01b06d3b53b20b7b01210242c1256cc13c5205add574af94c75780b09e9554a17d4b3f81e8be46d543b95d"
          },
          "sequence": 4294967294
        }
      ],
      "vout": [
        {
          "value": 135.46653502,
          "n": 0,
          "scriptPubKey": {
            "asm": "OP_DUP OP_HASH160 63fba3e2c45d9783cea2d44039131665b2d73cb0 OP_EQUALVERIFY OP_CHECKSIG",
            "hex": "76a91463fba3e2c45d9783cea2d44039131665b2d73cb088ac",
            "reqSigs": 1,
            "type": "pubkeyhash",
            "addresses": [
              "LULccUEbudjJtdBxNQ8JxtpY9B8Yyogsfh"
            ]
          }
        }, 
        {
          "value": 1.10959802,
          "n": 1,
          "scriptPubKey": {
            "asm": "OP_DUP OP_HASH160 5dcd692f88ab8d8e501f94f997b589f141ca483a OP_EQUALVERIFY OP_CHECKSIG",
            "hex": "76a9145dcd692f88ab8d8e501f94f997b589f141ca483a88ac",
            "reqSigs": 1,
            "type": "pubkeyhash",
            "addresses": [
              "LTmwBFYJbJ4CEbr9vGMaUjQygw2ZKWHJWR"
            ]
          }
        }
      ],
      "hex": "0200000001abbf77027130a5fff59196d0761da85a1d7717d56cbbd76376577e7452ddf55b000000006a4730440220703a7f7d33c01f62231e9162ada3430a04d749a9a27b26c5a766868e99fd168002204ddfb78edf933d375df42e534c18709e991f84b6667d6e5a01b06d3b53b20b7b01210242c1256cc13c5205add574af94c75780b09e9554a17d4b3f81e8be46d543b95dfeffffff023e877127030000001976a91463fba3e2c45d9783cea2d44039131665b2d73cb088acba1c9d06000000001976a9145dcd692f88ab8d8e501f94f997b589f141ca483a88acd2c21400"
    }, 
    {
      "txid": "f4e3c97aca3c477f862287d579fcebb398129ff43ffa422c2b76745c3ce335ca",
      "hash": "f4e3c97aca3c477f862287d579fcebb398129ff43ffa422c2b76745c3ce335ca",
      "version": 1,
      "size": 225,
      "vsize": 225,
      "locktime": 0,
      "vin": [
        {
          "txid": "c30e5c26f16ab4a9fbfa4f8df40dc437f015a498fa727cdfc7c68469a3304976",
          "vout": 1,
          "scriptSig": {
            "asm": "3044022004e9730430e77936f937e79256b0f3052b7ef7c5532ca724921df330bdcc745b02207830dda14c89275d5cfc2a3c6c3c2ea95218d75157af8d05128704e10fbe9e25[ALL] 03442e863ae20bee80a1d23d14957367db6941c6d01e6e866a7addc484afaee684",
            "hex": "473044022004e9730430e77936f937e79256b0f3052b7ef7c5532ca724921df330bdcc745b02207830dda14c89275d5cfc2a3c6c3c2ea95218d75157af8d05128704e10fbe9e25012103442e863ae20bee80a1d23d14957367db6941c6d01e6e866a7addc484afaee684"
          },
          "sequence": 4294967295
        }
      ],
      "vout": [
        {
          "value": 0.02320835,
          "n": 0,
          "scriptPubKey": {
            "asm": "OP_DUP OP_HASH160 6b624fc45a0d5442cfccb85a8252664373171685 OP_EQUALVERIFY OP_CHECKSIG",
            "hex": "76a9146b624fc45a0d5442cfccb85a825266437317168588ac",
            "reqSigs": 1,
            "type": "pubkeyhash",
            "addresses": [
              "LV1kLYjL4kPQ4SVCXXvuYxGeYhHSmXSFRK"
            ]
          }
        }, 
        {
          "value": 0.47656565,
          "n": 1,
          "scriptPubKey": {
            "asm": "OP_DUP OP_HASH160 4805bf6cf516fdfeccaf93c5aed5407c9c569c83 OP_EQUALVERIFY OP_CHECKSIG",
            "hex": "76a9144805bf6cf516fdfeccaf93c5aed5407c9c569c8388ac",
            "reqSigs": 1,
            "type": "pubkeyhash",
            "addresses": [
              "LRnmoPLTtvQuPAw2Bucykuhgz4qffFECLr"
            ]
          }
        }
      ],
      "hex": "0100000001764930a36984c6c7df7c72fa98a415f037c40df48d4ffafba9b46af1265c0ec3010000006a473044022004e9730430e77936f937e79256b0f3052b7ef7c5532ca724921df330bdcc745b02207830dda14c89275d5cfc2a3c6c3c2ea95218d75157af8d05128704e10fbe9e25012103442e863ae20bee80a1d23d14957367db6941c6d01e6e866a7addc484afaee684ffffffff02c3692300000000001976a9146b624fc45a0d5442cfccb85a825266437317168588ac752ed702000000001976a9144805bf6cf516fdfeccaf93c5aed5407c9c569c8388ac00000000"
    }, 
    {
      "txid": "54edbdfc93ee77192a17a09a8775f54ab50ea0778e79de1a1f370e2790716ecc",
      "hash": "54edbdfc93ee77192a17a09a8775f54ab50ea0778e79de1a1f370e2790716ecc",
      "version": 1,
      "size": 225,
      "vsize": 225,
      "locktime": 0,
      "vin": [
        {
          "txid": "27b0f8b087a60cf457f71c6692f580270b2015befb6dd74959f419b097c7833a",
          "vout": 0,
          "scriptSig": {
            "asm": "3044022002db987adf9751b73c0a087b3db2b6356942ab2c277470928a0a3edbe318ea740220739525bb325f41c9f7c44ed79407b535cf8bb49d814f3792e366f72cec15a668[ALL] 03d3e313200a3067871ffaad9f23a3b3fbf7dbb8e4f3daa7e45c45964c547e0573",
            "hex": "473044022002db987adf9751b73c0a087b3db2b6356942ab2c277470928a0a3edbe318ea740220739525bb325f41c9f7c44ed79407b535cf8bb49d814f3792e366f72cec15a668012103d3e313200a3067871ffaad9f23a3b3fbf7dbb8e4f3daa7e45c45964c547e0573"
          },
          "sequence": 4294967295
        }
      ],
      "vout": [
        {
          "value": 82.33851031,
          "n": 0,
          "scriptPubKey": {
            "asm": "OP_DUP OP_HASH160 199d7ca0c39adbfe2aa01f2015c64d33b0b0f27a OP_EQUALVERIFY OP_CHECKSIG",
            "hex": "76a914199d7ca0c39adbfe2aa01f2015c64d33b0b0f27a88ac",
            "reqSigs": 1,
            "type": "pubkeyhash",
            "addresses": [
              "LMZPpPJooAkQmieECK6LxK6ExGYdM93bwn"
            ]
          }
        }, 
        {
          "value": 6.49765675,
          "n": 1,
          "scriptPubKey": {
            "asm": "OP_DUP OP_HASH160 ca375be85830b9174fa4f6e9063395532f91387c OP_EQUALVERIFY OP_CHECKSIG",
            "hex": "76a914ca375be85830b9174fa4f6e9063395532f91387c88ac",
            "reqSigs": 1,
            "type": "pubkeyhash",
            "addresses": [
              "LdfB5Ng2MmEzuuNaCT2CLWz1wFPtKUP3W2"
            ]
          }
        }
      ],
      "hex": "01000000013a83c797b019f45949d76dfbbe15200b2780f592661cf757f40ca687b0f8b027000000006a473044022002db987adf9751b73c0a087b3db2b6356942ab2c277470928a0a3edbe318ea740220739525bb325f41c9f7c44ed79407b535cf8bb49d814f3792e366f72cec15a668012103d3e313200a3067871ffaad9f23a3b3fbf7dbb8e4f3daa7e45c45964c547e0573ffffffff029798c6ea010000001976a914199d7ca0c39adbfe2aa01f2015c64d33b0b0f27a88ac2ba3ba26000000001976a914ca375be85830b9174fa4f6e9063395532f91387c88ac00000000"
    }, 
    {
      "txid": "816f88196c075a48b5af82ea2a16fe874093efbba4671c4a9084789da612578c",
      "hash": "816f88196c075a48b5af82ea2a16fe874093efbba4671c4a9084789da612578c",
      "version": 1,
      "size": 814,
      "vsize": 814,
      "locktime": 1360594,
      "vin": [
        {
          "txid": "8c80267f3c2387a42c9693cfefb28995378a7a4720e46e3a28e6d3cb2aa881cf",
          "vout": 1,
          "scriptSig": {
            "asm": "3045022100d6bf50cdf46720e9e2b990617a08dadbed321c496335cab3c1abbd24516b877b0220011e30f94b7d2e42dac8b379d55ec3bfb8d563e3740f6d8d3fbd770b8c486adb[ALL] 02de2d28d762299c5f3ed231f27490c6bbd80140261a780721e5a50fa346b05a9d",
            "hex": "483045022100d6bf50cdf46720e9e2b990617a08dadbed321c496335cab3c1abbd24516b877b0220011e30f94b7d2e42dac8b379d55ec3bfb8d563e3740f6d8d3fbd770b8c486adb012102de2d28d762299c5f3ed231f27490c6bbd80140261a780721e5a50fa346b05a9d"
          },
          "sequence": 4294967294
        }, 
        {
          "txid": "d39a7e24cceab5cd9eb572c357f4c317d3e6daea9b98e9dfb3c5bd1ae6febe4d",
          "vout": 0,
          "scriptSig": {
            "asm": "30440220256332b10fdaa2e6a699e13271ede9fa261ce68b6c458306a0a9649299ec2cf90220706a8d543d69a4d2b1371f9fd64971edadc6de237cf42854a4734bd867207257[ALL] 024c0703e5c31741af51e6cc74a1b5c12504a590f9de72402746ebe6f64906af1e",
            "hex": "4730440220256332b10fdaa2e6a699e13271ede9fa261ce68b6c458306a0a9649299ec2cf90220706a8d543d69a4d2b1371f9fd64971edadc6de237cf42854a4734bd8672072570121024c0703e5c31741af51e6cc74a1b5c12504a590f9de72402746ebe6f64906af1e"
          },
          "sequence": 4294967294
        }, 
        {
          "txid": "1abddffd3368e51badac9f1b185b5ea882f87d11fda4eee1d551aa665bff606f",
          "vout": 1,
          "scriptSig": {
            "asm": "304402207378064373bc9fb053c1fb7c6e20db13b69652fa07d5624184e8dea4cb7d05f302204b5b73bb74d65805116dc9709ae00fec9f3fd181e897a4637b91be932307bdb3[ALL] 03b3de3872339a7bdc9e0edb5ae6a02c933c06242d898187917ecf696b1b41931d",
            "hex": "47304402207378064373bc9fb053c1fb7c6e20db13b69652fa07d5624184e8dea4cb7d05f302204b5b73bb74d65805116dc9709ae00fec9f3fd181e897a4637b91be932307bdb3012103b3de3872339a7bdc9e0edb5ae6a02c933c06242d898187917ecf696b1b41931d"
          },
          "sequence": 4294967294
        }, 
        {
          "txid": "b9eee79a66a6cbe59f8c0c00af310df02bd2f3521b51123b18e29d4dbba7846f",
          "vout": 0,
          "scriptSig": {
            "asm": "304402207f3e6efe5fd564b8690aed3bef4fac209fb0c701043c7e2d185a9cefec93f3c5022020acfd8c44215615e500bba08e3c3a1948246c02da15672ba268bb14b74adaf3[ALL] 034145ec0642629a41488444d7e06c448548aa3b8d66d7663188c057f5ac2ab343",
            "hex": "47304402207f3e6efe5fd564b8690aed3bef4fac209fb0c701043c7e2d185a9cefec93f3c5022020acfd8c44215615e500bba08e3c3a1948246c02da15672ba268bb14b74adaf30121034145ec0642629a41488444d7e06c448548aa3b8d66d7663188c057f5ac2ab343"
          },
          "sequence": 4294967294
        }, 
        {
          "txid": "13123731eca90b72c25cc19da3f4ec8fe543c4c58acb23f8e9c2c53a567b9615",
          "vout": 0,
          "scriptSig": {
            "asm": "3044022064da5004f92b615e502a5675858a69c4a3cc534b9fbf5a731bd7247fe4dd8db0022071cbdcffa997171bbf0b228dcbe07fe4768f4598960f64a8ee6251e93ea7841b[ALL] 026a7a2e49d427ecfd3d24cc3b16e3dabc293c961d4f24c81294868c4aa026fb52",
            "hex": "473044022064da5004f92b615e502a5675858a69c4a3cc534b9fbf5a731bd7247fe4dd8db0022071cbdcffa997171bbf0b228dcbe07fe4768f4598960f64a8ee6251e93ea7841b0121026a7a2e49d427ecfd3d24cc3b16e3dabc293c961d4f24c81294868c4aa026fb52"
          },
          "sequence": 4294967294
        }
      ],
      "vout": [
        {
          "value": 0.01000004,
          "n": 0,
          "scriptPubKey": {
            "asm": "OP_DUP OP_HASH160 cbff190a248514156794fe78bb2b8154a7f1f032 OP_EQUALVERIFY OP_CHECKSIG",
            "hex": "76a914cbff190a248514156794fe78bb2b8154a7f1f03288ac",
            "reqSigs": 1,
            "type": "pubkeyhash",
            "addresses": [
              "Ldpb2fJdPki5iiTJMdBYHdm2y4AvUuobCj"
            ]
          }
        }, 
        {
          "value": 1.42857000,
          "n": 1,
          "scriptPubKey": {
            "asm": "OP_DUP OP_HASH160 9e4987a3079a1b93b734e124c8cbe9b6e81b03d1 OP_EQUALVERIFY OP_CHECKSIG",
            "hex": "76a9149e4987a3079a1b93b734e124c8cbe9b6e81b03d188ac",
            "reqSigs": 1,
            "type": "pubkeyhash",
            "addresses": [
              "LZeu7TtjK3emGrpDeGT3h5UC2wTdGQkpZr"
            ]
          }
        }
      ],
      "hex": "0100000005cf81a82acbd3e6283a6ee420477a8a379589b2efcf93962ca487233c7f26808c010000006b483045022100d6bf50cdf46720e9e2b990617a08dadbed321c496335cab3c1abbd24516b877b0220011e30f94b7d2e42dac8b379d55ec3bfb8d563e3740f6d8d3fbd770b8c486adb012102de2d28d762299c5f3ed231f27490c6bbd80140261a780721e5a50fa346b05a9dfeffffff4dbefee61abdc5b3dfe9989beadae6d317c3f457c372b59ecdb5eacc247e9ad3000000006a4730440220256332b10fdaa2e6a699e13271ede9fa261ce68b6c458306a0a9649299ec2cf90220706a8d543d69a4d2b1371f9fd64971edadc6de237cf42854a4734bd8672072570121024c0703e5c31741af51e6cc74a1b5c12504a590f9de72402746ebe6f64906af1efeffffff6f60ff5b66aa51d5e1eea4fd117df882a85e5b181b9facad1be56833fddfbd1a010000006a47304402207378064373bc9fb053c1fb7c6e20db13b69652fa07d5624184e8dea4cb7d05f302204b5b73bb74d65805116dc9709ae00fec9f3fd181e897a4637b91be932307bdb3012103b3de3872339a7bdc9e0edb5ae6a02c933c06242d898187917ecf696b1b41931dfeffffff6f84a7bb4d9de2183b12511b52f3d22bf00d31af000c8c9fe5cba6669ae7eeb9000000006a47304402207f3e6efe5fd564b8690aed3bef4fac209fb0c701043c7e2d185a9cefec93f3c5022020acfd8c44215615e500bba08e3c3a1948246c02da15672ba268bb14b74adaf30121034145ec0642629a41488444d7e06c448548aa3b8d66d7663188c057f5ac2ab343feffffff15967b563ac5c2e9f823cb8ac5c443e58fecf4a39dc15cc2720ba9ec31371213000000006a473044022064da5004f92b615e502a5675858a69c4a3cc534b9fbf5a731bd7247fe4dd8db0022071cbdcffa997171bbf0b228dcbe07fe4768f4598960f64a8ee6251e93ea7841b0121026a7a2e49d427ecfd3d24cc3b16e3dabc293c961d4f24c81294868c4aa026fb52feffffff0244420f00000000001976a914cbff190a248514156794fe78bb2b8154a7f1f03288ac28d38308000000001976a9149e4987a3079a1b93b734e124c8cbe9b6e81b03d188acd2c21400"
    }, 
    {
      "txid": "e5641070705933b1b4e3e4add88013aa6eddd62077af33ea634a96c3c764f345",
      "hash": "e5641070705933b1b4e3e4add88013aa6eddd62077af33ea634a96c3c764f345",
      "version": 1,
      "size": 372,
      "vsize": 372,
      "locktime": 1360594,
      "vin": [
        {
          "txid": "2fb804247485101dd9755159c884f255bbbaf95ce3cbb2b2eabbec3ba870a93a",
          "vout": 0,
          "scriptSig": {
            "asm": "3044022015ef8f86f188a57266b1d9ebc1310f8b846cc2e9dd30ce515c86c972b7bb03b602206bb74f713a1a59f78471f37a65901a9d4cef31dac2568dd5d093aeff50fe031d[ALL] 0274d2b7c125236a498d3d4d02dc7235e8bd3fa4f603e8a9ee5ca9f03a66d23955",
            "hex": "473044022015ef8f86f188a57266b1d9ebc1310f8b846cc2e9dd30ce515c86c972b7bb03b602206bb74f713a1a59f78471f37a65901a9d4cef31dac2568dd5d093aeff50fe031d01210274d2b7c125236a498d3d4d02dc7235e8bd3fa4f603e8a9ee5ca9f03a66d23955"
          },
          "sequence": 4294967294
        }, 
        {
          "txid": "07ff8c7634e843562ddfb30c266aa9aa8247df5d1ece2732add3198cda5a9c20",
          "vout": 0,
          "scriptSig": {
            "asm": "30440220420080267805f20b94b3c0bacdf17427335c091e09750f279f225290b87ca5650220724603bd305e9878c24117cb5dfb0b127237af2505427af41bee6d2846caff6d[ALL] 0357f554006845770f566b296c4560678b8fb097edeb08537399706e8e34a8a61e",
            "hex": "4730440220420080267805f20b94b3c0bacdf17427335c091e09750f279f225290b87ca5650220724603bd305e9878c24117cb5dfb0b127237af2505427af41bee6d2846caff6d01210357f554006845770f566b296c4560678b8fb097edeb08537399706e8e34a8a61e"
          },
          "sequence": 4294967294
        }
      ],
      "vout": [
        {
          "value": 0.01096147,
          "n": 0,
          "scriptPubKey": {
            "asm": "OP_DUP OP_HASH160 bf16327c1d144089a7839e1a35c7980e800a745f OP_EQUALVERIFY OP_CHECKSIG",
            "hex": "76a914bf16327c1d144089a7839e1a35c7980e800a745f88ac",
            "reqSigs": 1,
            "type": "pubkeyhash",
            "addresses": [
              "LceKv9AT5pmXwG8ms2rdXJp6V17Pec1Fxp"
            ]
          }
        }, 
        {
          "value": 1.13089059,
          "n": 1,
          "scriptPubKey": {
            "asm": "OP_DUP OP_HASH160 3399270f2ef46cc6161d4b258568ef46fd7b6e33 OP_EQUALVERIFY OP_CHECKSIG",
            "hex": "76a9143399270f2ef46cc6161d4b258568ef46fd7b6e3388ac",
            "reqSigs": 1,
            "type": "pubkeyhash",
            "addresses": [
              "LPvnCDwKBTzB8AthnzcdZRnB18u4nUY5kA"
            ]
          }
        }
      ],
      "hex": "01000000023aa970a83becbbeab2b2cbe35cf9babb55f284c8595175d91d1085742404b82f000000006a473044022015ef8f86f188a57266b1d9ebc1310f8b846cc2e9dd30ce515c86c972b7bb03b602206bb74f713a1a59f78471f37a65901a9d4cef31dac2568dd5d093aeff50fe031d01210274d2b7c125236a498d3d4d02dc7235e8bd3fa4f603e8a9ee5ca9f03a66d23955feffffff209c5ada8c19d3ad3227ce1e5ddf4782aaa96a260cb3df2d5643e834768cff07000000006a4730440220420080267805f20b94b3c0bacdf17427335c091e09750f279f225290b87ca5650220724603bd305e9878c24117cb5dfb0b127237af2505427af41bee6d2846caff6d01210357f554006845770f566b296c4560678b8fb097edeb08537399706e8e34a8a61efeffffff02d3b91000000000001976a914bf16327c1d144089a7839e1a35c7980e800a745f88ac239abd06000000001976a9143399270f2ef46cc6161d4b258568ef46fd7b6e3388acd2c21400"
    }, 
    {
      "txid": "ea5021ea3959777ebd8c3325ce520bb28c2ff4c913982f397c7eaba27a5a5e21",
      "hash": "ea5021ea3959777ebd8c3325ce520bb28c2ff4c913982f397c7eaba27a5a5e21",
      "version": 2,
      "size": 226,
      "vsize": 226,
      "locktime": 1360594,
      "vin": [
        {
          "txid": "6fa73fef8b73a17d38e903261a0ddaf57b239a35e156c762b20fd57414b0ecb6",
          "vout": 0,
          "scriptSig": {
            "asm": "3045022100d2e3b6b010ffd3bff65e367b51e501477d4ac4c946025a02275c628b38cd5c930220241fe470c833cbb04df19f9548f8165b0d06f96ddb105f4190f4c990cecff319[ALL] 03c486695fb27f5714022e27cabd63ea8787fd67f4e5b831594257a5615efd62b2",
            "hex": "483045022100d2e3b6b010ffd3bff65e367b51e501477d4ac4c946025a02275c628b38cd5c930220241fe470c833cbb04df19f9548f8165b0d06f96ddb105f4190f4c990cecff319012103c486695fb27f5714022e27cabd63ea8787fd67f4e5b831594257a5615efd62b2"
          },
          "sequence": 4294967294
        }
      ],
      "vout": [
        {
          "value": 7.65000000,
          "n": 0,
          "scriptPubKey": {
            "asm": "OP_DUP OP_HASH160 89759ac7ebe20b2f8e060cd13bf1721250fca79d OP_EQUALVERIFY OP_CHECKSIG",
            "hex": "76a91489759ac7ebe20b2f8e060cd13bf1721250fca79d88ac",
            "reqSigs": 1,
            "type": "pubkeyhash",
            "addresses": [
              "LXkmiog7scX2N5m2VCcnxnVg4p3qQMdbEW"
            ]
          }
        }, 
        {
          "value": 45.13717187,
          "n": 1,
          "scriptPubKey": {
            "asm": "OP_DUP OP_HASH160 09452636e6fc827d0386058086b74df06f36c110 OP_EQUALVERIFY OP_CHECKSIG",
            "hex": "76a91409452636e6fc827d0386058086b74df06f36c11088ac",
            "reqSigs": 1,
            "type": "pubkeyhash",
            "addresses": [
              "LL4yBWqvhtwXka3Yrjcr6zv3TYHECzuD9o"
            ]
          }
        }
      ],
      "hex": "0200000001b6ecb01474d50fb262c756e1359a237bf5da0d1a2603e9387da1738bef3fa76f000000006b483045022100d2e3b6b010ffd3bff65e367b51e501477d4ac4c946025a02275c628b38cd5c930220241fe470c833cbb04df19f9548f8165b0d06f96ddb105f4190f4c990cecff319012103c486695fb27f5714022e27cabd63ea8787fd67f4e5b831594257a5615efd62b2feffffff0240f9982d000000001976a91489759ac7ebe20b2f8e060cd13bf1721250fca79d88acc3db090d010000001976a91409452636e6fc827d0386058086b74df06f36c11088acd2c21400"
    }, 
    {
      "txid": "6df7905aa71e0c55e2d4ae115d0895de296198a1770aff2bcb3efe826a79195c",
      "hash": "6df7905aa71e0c55e2d4ae115d0895de296198a1770aff2bcb3efe826a79195c",
      "version": 1,
      "size": 226,
      "vsize": 226,
      "locktime": 0,
      "vin": [
        {
          "txid": "ac2bdb2c73c867363ffefe2a9d5d3095b5010496ad1e8e9b8e48d5989f9f8c93",
          "vout": 0,
          "scriptSig": {
            "asm": "30450221009204c082e2976fb82407c824eb6fe21868b296f0046adcba658d3bf35e8769c202203d155e8794a437b2f187bdacc309a9a8a84b772f8c669fc5feb292ee3d1863e3[ALL] 027830cafbe2cb8218c81c56dd9b8e6a774911b5b7863ec1c5f05413fa88b04d51",
            "hex": "4830450221009204c082e2976fb82407c824eb6fe21868b296f0046adcba658d3bf35e8769c202203d155e8794a437b2f187bdacc309a9a8a84b772f8c669fc5feb292ee3d1863e30121027830cafbe2cb8218c81c56dd9b8e6a774911b5b7863ec1c5f05413fa88b04d51"
          },
          "sequence": 4294967295
        }
      ],
      "vout": [
        {
          "value": 84.72239993,
          "n": 0,
          "scriptPubKey": {
            "asm": "OP_DUP OP_HASH160 a73f2205174ed4fed22d35691ef85983eb588545 OP_EQUALVERIFY OP_CHECKSIG",
            "hex": "76a914a73f2205174ed4fed22d35691ef85983eb58854588ac",
            "reqSigs": 1,
            "type": "pubkeyhash",
            "addresses": [
              "LaUGjoHS1fgL4bRJCHxZmufgryCMC7ZEQC"
            ]
          }
        }, 
        {
          "value": 1.61170666,
          "n": 1,
          "scriptPubKey": {
            "asm": "OP_DUP OP_HASH160 8766b5036c5aa6296d9bccd56d7644fc4ad22a53 OP_EQUALVERIFY OP_CHECKSIG",
            "hex": "76a9148766b5036c5aa6296d9bccd56d7644fc4ad22a5388ac",
            "reqSigs": 1,
            "type": "pubkeyhash",
            "addresses": [
              "LXZtXKi8FkKcBusG9JMtpKTdc4qrKjQd2v"
            ]
          }
        }
      ],
      "hex": "0100000001938c9f9f98d5488e9b8e1ead960401b595305d9d2afefe3f3667c8732cdb2bac000000006b4830450221009204c082e2976fb82407c824eb6fe21868b296f0046adcba658d3bf35e8769c202203d155e8794a437b2f187bdacc309a9a8a84b772f8c669fc5feb292ee3d1863e30121027830cafbe2cb8218c81c56dd9b8e6a774911b5b7863ec1c5f05413fa88b04d51ffffffff02791ffcf8010000001976a914a73f2205174ed4fed22d35691ef85983eb58854588acea449b09000000001976a9148766b5036c5aa6296d9bccd56d7644fc4ad22a5388ac00000000"
    }, 
    {
      "txid": "3ff3d6b9ce08784f25aba6e8b19659246ebbccc25bbe58789e17fb3ef2c8577f",
      "hash": "3ff3d6b9ce08784f25aba6e8b19659246ebbccc25bbe58789e17fb3ef2c8577f",
      "version": 2,
      "size": 226,
      "vsize": 226,
      "locktime": 1360594,
      "vin": [
        {
          "txid": "d17e9a164f7504dfa8d99413e6cc9e1bf59b7b1766294f5941b2dfa444b316cc",
          "vout": 0,
          "scriptSig": {
            "asm": "3045022100ba3a32d274639819d667c701a8a8caea566f72ed206e1863fe93e737596b655002203c7fead96b7809befb34a0d41af2f7f3853125c357ecef27f59faf6efb2d1fb7[ALL] 0358718bccac61d1fe242d68454f3483f8a7a5536ce4585cb4d8285691eb6df6fb",
            "hex": "483045022100ba3a32d274639819d667c701a8a8caea566f72ed206e1863fe93e737596b655002203c7fead96b7809befb34a0d41af2f7f3853125c357ecef27f59faf6efb2d1fb701210358718bccac61d1fe242d68454f3483f8a7a5536ce4585cb4d8285691eb6df6fb"
          },
          "sequence": 4294967294
        }
      ],
      "vout": [
        {
          "value": 0.23780068,
          "n": 0,
          "scriptPubKey": {
            "asm": "OP_DUP OP_HASH160 16ddd80fe219f4ad2897d2354e02139b0e6364b6 OP_EQUALVERIFY OP_CHECKSIG",
            "hex": "76a91416ddd80fe219f4ad2897d2354e02139b0e6364b688ac",
            "reqSigs": 1,
            "type": "pubkeyhash",
            "addresses": [
              "LMJrtRYv3fJVaFDre7j9iM31h9vabjsWhF"
            ]
          }
        }, 
        {
          "value": 2.74296332,
          "n": 1,
          "scriptPubKey": {
            "asm": "OP_DUP OP_HASH160 fd4b29ff482661abf1369530bec977d67dc6f44d OP_EQUALVERIFY OP_CHECKSIG",
            "hex": "76a914fd4b29ff482661abf1369530bec977d67dc6f44d88ac",
            "reqSigs": 1,
            "type": "pubkeyhash",
            "addresses": [
              "LiKFGEe3cuJajD5kbMH1C2uRAkiFQHtsfR"
            ]
          }
        }
      ],
      "hex": "0200000001cc16b344a4dfb241594f2966177b9bf51b9ecce61394d9a8df04754f169a7ed1000000006b483045022100ba3a32d274639819d667c701a8a8caea566f72ed206e1863fe93e737596b655002203c7fead96b7809befb34a0d41af2f7f3853125c357ecef27f59faf6efb2d1fb701210358718bccac61d1fe242d68454f3483f8a7a5536ce4585cb4d8285691eb6df6fbfeffffff02e4da6a01000000001976a91416ddd80fe219f4ad2897d2354e02139b0e6364b688ac0c6e5910000000001976a914fd4b29ff482661abf1369530bec977d67dc6f44d88acd2c21400"
    }
  ],
  "time": 1517454137,
  "mediantime": 1517453231,
  "nonce": 114355990,
  "bits": "1a042eae",
  "difficulty": 4011378.762614286,
  "chainwork": "000000000000000000000000000000000000000000000035162323ec26821a2a",
  "previousblockhash": "310efcc751947e1726e177b9fa327545f75149102463c52d9244c7465adf06da",
  "nextblockhash": "3edbaf11fd40ecd6be8a719afb841cc1a3e293a4f39a04228e82d198c0a0142f"
}
