{
  "hash": "42195f1003474b4727325360cf81fd7b753a7020516fd2ea2ce0a22ab9bbcc00",
  "confirmations": 1525,
  "strippedsize": 253,
  "size": 253,
  "weight": 1012,
  "height": 1359469,
  "version": 536870912,
  "versionHex": "20000000",
  "merkleroot": "06f2d05f77938becdef9b54d85ddda23a94f0a88ba261bf9a684abe29dfebdb1",
  "tx": [
    {
      "txid": "06f2d05f77938becdef9b54d85ddda23a94f0a88ba261bf9a684abe29dfebdb1",
      "hash": "06f2d05f77938becdef9b54d85ddda23a94f0a88ba261bf9a684abe29dfebdb1",
      "version": 1,
      "size": 172,
      "vsize": 172,
      "locktime": 0,
      "vin": [
        {
          "coinbase": "036dbe141a4d696e656420627920416e74506f6f6c20626a3242205a6ff6adfabe6d6dd8b76c330cc9526730ae1d99cc219420c6bd86ba7543a75b8533d3b44b02f7bb0400000000000000dc3000000000000010000000",
          "sequence": 4294967295
        }
      ],
      "vout": [
        {
          "value": 25.00000000,
          "n": 0,
          "scriptPubKey": {
            "asm": "OP_DUP OP_HASH160 0ff3ccc5e8be88afe24b5d634e5852d474dbdff1 OP_EQUALVERIFY OP_CHECKSIG",
            "hex": "76a9140ff3ccc5e8be88afe24b5d634e5852d474dbdff188ac",
            "reqSigs": 1,
            "type": "pubkeyhash",
            "addresses": [
              "LLgJTbzZMsRTCUF1NtvvL9SR1a4pVieW89"
            ]
          }
        }
      ],
      "hex": "01000000010000000000000000000000000000000000000000000000000000000000000000ffffffff57036dbe141a4d696e656420627920416e74506f6f6c20626a3242205a6ff6adfabe6d6dd8b76c330cc9526730ae1d99cc219420c6bd86ba7543a75b8533d3b44b02f7bb0400000000000000dc3000000000000010000000ffffffff0100f90295000000001976a9140ff3ccc5e8be88afe24b5d634e5852d474dbdff188ac00000000"
    }
  ],
  "time": 1517287085,
  "mediantime": 1517286439,
  "nonce": 1327342380,
  "bits": "1a042eae",
  "difficulty": 4011378.762614286,
  "chainwork": "00000000000000000000000000000000000000000000003408abca3b5571dedc",
  "previousblockhash": "6f89da4c6ff1323484cc5dc68b3585cdd073ecaafb5d989e46079707f2a0f845",
  "nextblockhash": "46bb8cd942f861a89fc7c4c235e8e496b22083d220b555b875a060a47530b228"
}
