{
  "hash": "424f1771081e1c573ad7b8f881157827ce829251d71b381e69d441cfb237b7cd",
  "confirmations": 342,
  "strippedsize": 254,
  "size": 254,
  "weight": 1016,
  "height": 1360652,
  "version": 536870912,
  "versionHex": "20000000",
  "merkleroot": "8c937f3e2af3eafe0dd7e85b131ad447623c79de0b425958849e4e06f0d6492a",
  "tx": [
    {
      "txid": "8c937f3e2af3eafe0dd7e85b131ad447623c79de0b425958849e4e06f0d6492a",
      "hash": "8c937f3e2af3eafe0dd7e85b131ad447623c79de0b425958849e4e06f0d6492a",
      "version": 1,
      "size": 173,
      "vsize": 173,
      "locktime": 0,
      "vin": [
        {
          "coinbase": "030cc3141b4d696e656420627920416e74506f6f6c20626a3532205a72a298ecfabe6d6dbcdce696fb62f93a1397be634cdf4daa18de3561361d775b696492b47928ac7d0400000000000000481900000000000003000000",
          "sequence": 4294967295
        }
      ],
      "vout": [
        {
          "value": 25.00000000,
          "n": 0,
          "scriptPubKey": {
            "asm": "OP_DUP OP_HASH160 0ff3ccc5e8be88afe24b5d634e5852d474dbdff1 OP_EQUALVERIFY OP_CHECKSIG",
            "hex": "76a9140ff3ccc5e8be88afe24b5d634e5852d474dbdff188ac",
            "reqSigs": 1,
            "type": "pubkeyhash",
            "addresses": [
              "LLgJTbzZMsRTCUF1NtvvL9SR1a4pVieW89"
            ]
          }
        }
      ],
      "hex": "01000000010000000000000000000000000000000000000000000000000000000000000000ffffffff58030cc3141b4d696e656420627920416e74506f6f6c20626a3532205a72a298ecfabe6d6dbcdce696fb62f93a1397be634cdf4daa18de3561361d775b696492b47928ac7d0400000000000000481900000000000003000000ffffffff0100f90295000000001976a9140ff3ccc5e8be88afe24b5d634e5852d474dbdff188ac00000000"
    }
  ],
  "time": 1517462168,
  "mediantime": 1517461601,
  "nonce": 415971138,
  "bits": "1a042eae",
  "difficulty": 4011378.762614286,
  "chainwork": "0000000000000000000000000000000000000000000000352386e26a99d72e9a",
  "previousblockhash": "09c5cb63cb02ab472ef47268a13d9ed096b3772ea5e9fdd8aa9d7dc96647868a",
  "nextblockhash": "5b89c9c5c05ee1250b8e19e964e3aff355d3c3c7e8c2006fbe073e1dc308104a"
}
