{
  "hash": "4253a7dc6b8c1404957c889f9472b70ce58d25365325ea7384911b195ba28055",
  "confirmations": 2043,
  "strippedsize": 253,
  "size": 253,
  "weight": 1012,
  "height": 1358951,
  "version": 536870912,
  "versionHex": "20000000",
  "merkleroot": "80e3ede21548bbc7673fef53c73de6253fbf9d58cf49f26209e4b8c550f7f745",
  "tx": [
    {
      "txid": "80e3ede21548bbc7673fef53c73de6253fbf9d58cf49f26209e4b8c550f7f745",
      "hash": "80e3ede21548bbc7673fef53c73de6253fbf9d58cf49f26209e4b8c550f7f745",
      "version": 1,
      "size": 172,
      "vsize": 172,
      "locktime": 0,
      "vin": [
        {
          "coinbase": "0367bc141a4d696e656420627920416e74506f6f6c20626a3242205a6ee14cfabe6d6d236c7b764ab32c450549af70b367fcf284917705798454a173429859f2e7193a04000000000000002f3800000000000010000000",
          "sequence": 4294967295
        }
      ],
      "vout": [
        {
          "value": 25.00000000,
          "n": 0,
          "scriptPubKey": {
            "asm": "OP_DUP OP_HASH160 0ff3ccc5e8be88afe24b5d634e5852d474dbdff1 OP_EQUALVERIFY OP_CHECKSIG",
            "hex": "76a9140ff3ccc5e8be88afe24b5d634e5852d474dbdff188ac",
            "reqSigs": 1,
            "type": "pubkeyhash",
            "addresses": [
              "LLgJTbzZMsRTCUF1NtvvL9SR1a4pVieW89"
            ]
          }
        }
      ],
      "hex": "01000000010000000000000000000000000000000000000000000000000000000000000000ffffffff570367bc141a4d696e656420627920416e74506f6f6c20626a3242205a6ee14cfabe6d6d236c7b764ab32c450549af70b367fcf284917705798454a173429859f2e7193a04000000000000002f3800000000000010000000ffffffff0100f90295000000001976a9140ff3ccc5e8be88afe24b5d634e5852d474dbdff188ac00000000"
    }
  ],
  "time": 1517216076,
  "mediantime": 1517215331,
  "nonce": 3584721414,
  "bits": "1a042eae",
  "difficulty": 4011378.762614286,
  "chainwork": "0000000000000000000000000000000000000000000000338cd12829aa9ee1d0",
  "previousblockhash": "a3032b8fe6c2345a2a7941062e824b32baa28447fd3c2e65701fe5f9dd1c990a",
  "nextblockhash": "999c5ab180b4a7fce1734601858e9bd90a03cbf5c8bb0f6ee576becd84eaff08"
}
