{
  "hash": "4285051c572fdd4201518f43d7f8e41de9cefc4d8e0c3eebaa023630f02356bf",
  "confirmations": 458,
  "strippedsize": 4312,
  "size": 4569,
  "weight": 17505,
  "height": 1360536,
  "version": 536870912,
  "versionHex": "20000000",
  "merkleroot": "b619ad4c51a0c4b5920125f38dda81577b71449cd857a304e59af3521626a83d",
  "tx": [
    {
      "txid": "ce80223b8d2a607bd79757a5e48fffe84d9e1c2330c4cbf03b0646fd80ebfe72",
      "hash": "f216656b43525a78ac519d1ba8f0940fa7ace92242f123fce98d8134f12f0115",
      "version": 1,
      "size": 200,
      "vsize": 173,
      "locktime": 0,
      "vin": [
        {
          "coinbase": "0398c214046a63725a0807fffe58a02700000d2f6e6f64655374726174756d2f",
          "sequence": 0
        }
      ],
      "vout": [
        {
          "value": 0.00000000,
          "n": 0,
          "scriptPubKey": {
            "asm": "OP_RETURN aa21a9ed9bdc7d923a8b14760cecdf5e700624a78d8ed0744b912b7c009000fba30ccf05",
            "hex": "6a24aa21a9ed9bdc7d923a8b14760cecdf5e700624a78d8ed0744b912b7c009000fba30ccf05",
            "type": "nulldata"
          }
        }, 
        {
          "value": 25.01108899,
          "n": 1,
          "scriptPubKey": {
            "asm": "OP_DUP OP_HASH160 8836a0d567257e801254e29be08629fb71f36f9f OP_EQUALVERIFY OP_CHECKSIG",
            "hex": "76a9148836a0d567257e801254e29be08629fb71f36f9f88ac",
            "reqSigs": 1,
            "type": "pubkeyhash",
            "addresses": [
              "LXeBbwTXnzwSUzSbVubDZu4brFzmMjehn3"
            ]
          }
        }
      ],
      "hex": "010000000001010000000000000000000000000000000000000000000000000000000000000000ffffffff200398c214046a63725a0807fffe58a02700000d2f6e6f64655374726174756d2f00000000020000000000000000266a24aa21a9ed9bdc7d923a8b14760cecdf5e700624a78d8ed0744b912b7c009000fba30ccf05a3e41395000000001976a9148836a0d567257e801254e29be08629fb71f36f9f88ac0120000000000000000000000000000000000000000000000000000000000000000000000000"
    }, 
    {
      "txid": "e8602950b6ff992996163a3d06f96f39e82920e3118c4eea1edb7c40af42972c",
      "hash": "e8602950b6ff992996163a3d06f96f39e82920e3118c4eea1edb7c40af42972c",
      "version": 1,
      "size": 632,
      "vsize": 632,
      "locktime": 0,
      "vin": [
        {
          "txid": "f7c7f2fd2a13572c938769d22ce612a37c9df4a02d245e6480d0015af8abc0b8",
          "vout": 65,
          "scriptSig": {
            "asm": "3045022100b37830332c03adad72253cae62d4eeec152cf8642b32d0aa90c27901b263687b02205d14650b5a87afc5d53d0acc83b2fe0d2e5bc5cf80911e9008c0df8fa91820b0[ALL] 034fedb4bf9a8e75850e4d0c31c8825728c31d0dc32924ac22fe4b2e6de8428fa0",
            "hex": "483045022100b37830332c03adad72253cae62d4eeec152cf8642b32d0aa90c27901b263687b02205d14650b5a87afc5d53d0acc83b2fe0d2e5bc5cf80911e9008c0df8fa91820b00121034fedb4bf9a8e75850e4d0c31c8825728c31d0dc32924ac22fe4b2e6de8428fa0"
          },
          "sequence": 4294967295
        }, 
        {
          "txid": "dd5aa7ced1f5c16a6938b79ae4522bdea9d846fb4cd26b05a9c72b421a444893",
          "vout": 1,
          "scriptSig": {
            "asm": "30440220344c6bb45c51158d431f02976c077732757a7c75c724da508e09e7d443e4f321022069e38904a0171a3615f1449a3362b2fcbadf84065f204f496d24d023d1c21738[ALL] 034fedb4bf9a8e75850e4d0c31c8825728c31d0dc32924ac22fe4b2e6de8428fa0",
            "hex": "4730440220344c6bb45c51158d431f02976c077732757a7c75c724da508e09e7d443e4f321022069e38904a0171a3615f1449a3362b2fcbadf84065f204f496d24d023d1c217380121034fedb4bf9a8e75850e4d0c31c8825728c31d0dc32924ac22fe4b2e6de8428fa0"
          },
          "sequence": 4294967295
        }, 
        {
          "txid": "64f9272568b9d2900302b30679e72f5bb459f65eed4f2cd533f2fde849276f25",
          "vout": 1,
          "scriptSig": {
            "asm": "3045022100837aebb5f9a3d2d1f0046f56581ac79fa8eab7c0ec8aa2aaa9e05c07e8c78f94022020c20f0c2a362c36f630afa36d4addcf8b7da6223a2b67f955e13cf098b26f25[ALL] 02be65a58e6dd481e0948314c8e8c6ece7c8eeb95976066901b01afaf40b411085",
            "hex": "483045022100837aebb5f9a3d2d1f0046f56581ac79fa8eab7c0ec8aa2aaa9e05c07e8c78f94022020c20f0c2a362c36f630afa36d4addcf8b7da6223a2b67f955e13cf098b26f25012102be65a58e6dd481e0948314c8e8c6ece7c8eeb95976066901b01afaf40b411085"
          },
          "sequence": 4294967295
        }, 
        {
          "txid": "eb4245d944c7f1c3dda590f39a6a4740b92732a70a059c6bf90e77c8dee03dc1",
          "vout": 1,
          "scriptSig": {
            "asm": "30440220181920cd5f4b301e61de57dcd5a6c47f74fac5b30352bd3cd337e586adca075902201672ebaeed4e02ed19194e7af24b19aa1ca075e17e8afc950e34702e53fbb24a[ALL] 021b98cf6ff4d686b9c2ecab5a281053c41920b5fcd6104924341dce3dadf58602",
            "hex": "4730440220181920cd5f4b301e61de57dcd5a6c47f74fac5b30352bd3cd337e586adca075902201672ebaeed4e02ed19194e7af24b19aa1ca075e17e8afc950e34702e53fbb24a0121021b98cf6ff4d686b9c2ecab5a281053c41920b5fcd6104924341dce3dadf58602"
          },
          "sequence": 4294967295
        }
      ],
      "vout": [
        {
          "value": 33.57256448,
          "n": 0,
          "scriptPubKey": {
            "asm": "OP_HASH160 541649b15768c94d94e1d3da3a61d42ad4679067 OP_EQUAL",
            "hex": "a914541649b15768c94d94e1d3da3a61d42ad467906787",
            "reqSigs": 1,
            "type": "scripthash",
            "addresses": [
              "MFZmh8bW1nwbLKQMqyPPmAVnPhwBR5M4yw"
            ]
          }
        }
      ],
      "hex": "0100000004b8c0abf85a01d080645e242da0f49d7ca312e62cd26987932c57132afdf2c7f7410000006b483045022100b37830332c03adad72253cae62d4eeec152cf8642b32d0aa90c27901b263687b02205d14650b5a87afc5d53d0acc83b2fe0d2e5bc5cf80911e9008c0df8fa91820b00121034fedb4bf9a8e75850e4d0c31c8825728c31d0dc32924ac22fe4b2e6de8428fa0ffffffff9348441a422bc7a9056bd24cfb46d8a9de2b52e49ab738696ac1f5d1cea75add010000006a4730440220344c6bb45c51158d431f02976c077732757a7c75c724da508e09e7d443e4f321022069e38904a0171a3615f1449a3362b2fcbadf84065f204f496d24d023d1c217380121034fedb4bf9a8e75850e4d0c31c8825728c31d0dc32924ac22fe4b2e6de8428fa0ffffffff256f2749e8fdf233d52c4fed5ef659b45b2fe77906b3020390d2b9682527f964010000006b483045022100837aebb5f9a3d2d1f0046f56581ac79fa8eab7c0ec8aa2aaa9e05c07e8c78f94022020c20f0c2a362c36f630afa36d4addcf8b7da6223a2b67f955e13cf098b26f25012102be65a58e6dd481e0948314c8e8c6ece7c8eeb95976066901b01afaf40b411085ffffffffc13de0dec8770ef96b9c050aa73227b940476a9af390a5ddc3f1c744d94542eb010000006a4730440220181920cd5f4b301e61de57dcd5a6c47f74fac5b30352bd3cd337e586adca075902201672ebaeed4e02ed19194e7af24b19aa1ca075e17e8afc950e34702e53fbb24a0121021b98cf6ff4d686b9c2ecab5a281053c41920b5fcd6104924341dce3dadf58602ffffffff0100ab1bc80000000017a914541649b15768c94d94e1d3da3a61d42ad46790678700000000"
    }, 
    {
      "txid": "d626c36425683e0fd910000a59fbdf46ef81e98a03410c998aa82277a7373c7f",
      "hash": "d626c36425683e0fd910000a59fbdf46ef81e98a03410c998aa82277a7373c7f",
      "version": 1,
      "size": 225,
      "vsize": 225,
      "locktime": 0,
      "vin": [
        {
          "txid": "258cd25b81439fbe27da5018e606e819ecdf7f049cc0ce7485a1413904ea1f61",
          "vout": 1,
          "scriptSig": {
            "asm": "3044022076ffe007f7c6acb7bef36897a75f0438620a8875a471116c88249c68800309d3022037cc5dbec0f09d7be2d7d941a8ae15420bcf4868ad84bc64e8ea74f749ef0b68[ALL] 0328c9ae635abf580c261c44815dc1aac309e16ff26250525b7e99951369d2b8c7",
            "hex": "473044022076ffe007f7c6acb7bef36897a75f0438620a8875a471116c88249c68800309d3022037cc5dbec0f09d7be2d7d941a8ae15420bcf4868ad84bc64e8ea74f749ef0b6801210328c9ae635abf580c261c44815dc1aac309e16ff26250525b7e99951369d2b8c7"
          },
          "sequence": 4294967295
        }
      ],
      "vout": [
        {
          "value": 0.23900000,
          "n": 0,
          "scriptPubKey": {
            "asm": "OP_DUP OP_HASH160 cf9d11593b54da92cab9bad7f3dd3ed10642c860 OP_EQUALVERIFY OP_CHECKSIG",
            "hex": "76a914cf9d11593b54da92cab9bad7f3dd3ed10642c86088ac",
            "reqSigs": 1,
            "type": "pubkeyhash",
            "addresses": [
              "Le9iJBVdPALodr4EWqGo5fvMbc6JbFq6Qg"
            ]
          }
        }, 
        {
          "value": 191.74139876,
          "n": 1,
          "scriptPubKey": {
            "asm": "OP_DUP OP_HASH160 c6e3836c2f4cd8f9c53e32813ded99ac0ce001f1 OP_EQUALVERIFY OP_CHECKSIG",
            "hex": "76a914c6e3836c2f4cd8f9c53e32813ded99ac0ce001f188ac",
            "reqSigs": 1,
            "type": "pubkeyhash",
            "addresses": [
              "LdMac6qdwFnBCVXN96dvoPjzbcE36gzs64"
            ]
          }
        }
      ],
      "hex": "0100000001611fea043941a18574cec09c047fdfec19e806e61850da27be9f43815bd28c25010000006a473044022076ffe007f7c6acb7bef36897a75f0438620a8875a471116c88249c68800309d3022037cc5dbec0f09d7be2d7d941a8ae15420bcf4868ad84bc64e8ea74f749ef0b6801210328c9ae635abf580c261c44815dc1aac309e16ff26250525b7e99951369d2b8c7ffffffff0260af6c01000000001976a914cf9d11593b54da92cab9bad7f3dd3ed10642c86088ace427de76040000001976a914c6e3836c2f4cd8f9c53e32813ded99ac0ce001f188ac00000000"
    }, 
    {
      "txid": "5bbd9dfe76fafeb71fc64bb2f31ce5258852997b6162e4c47742348d1bc9dbd5",
      "hash": "0e19592a4e2405c14a719b87628e53467e1ef0ece27f2c1748d7d965f8110880",
      "version": 1,
      "size": 373,
      "vsize": 208,
      "locktime": 0,
      "vin": [
        {
          "txid": "c7a6d7c910d9b9ea3c2d3d8b2472c0c66524ec9b3e9911eadcd6f1dd41e9ecf4",
          "vout": 1,
          "scriptSig": {
            "asm": "00208c54e5f629b015d4516fe001302f81b2a61ee60b6bf7c2364d9cb1843ca33446",
            "hex": "2200208c54e5f629b015d4516fe001302f81b2a61ee60b6bf7c2364d9cb1843ca33446"
          },
          "txinwitness": [
            "", 
            "3045022100e4ce9815fa2fe32e7b4113c7ad65cbe765f6107c6c6a033e0de081dadd905b4502206078442e14c1b08f59c9359919f4229f38903cbb1b20cdee2d159e6e70bc6c6401", 
            "304402207b9fdf1ffc918eefb5a12a04ec20621bbea17f31856e0a64469167e8c9233e0c02202f80ba2aaa5eda6d247e8e610a5287a1a123b3d621ae291ec247f3d3a0af50a001", 
            "522103e5767bbac930b522658cda3f8ab20729be10a426c8360755eafd3ab800cccd1121035601f3a2305646caace0c463b02eba89c2b789e281cef04109061d879d5bb51352ae"
          ],
          "sequence": 4294967295
        }
      ],
      "vout": [
        {
          "value": 0.10000000,
          "n": 0,
          "scriptPubKey": {
            "asm": "OP_DUP OP_HASH160 7d663940e487f289c14a2c0c0f8c620ba13f938f OP_EQUALVERIFY OP_CHECKSIG",
            "hex": "76a9147d663940e487f289c14a2c0c0f8c620ba13f938f88ac",
            "reqSigs": 1,
            "type": "pubkeyhash",
            "addresses": [
              "LWf1BpEsyToDQefRaoG2YdYVzTsjTjbFHC"
            ]
          }
        }, 
        {
          "value": 0.03653420,
          "n": 1,
          "scriptPubKey": {
            "asm": "OP_HASH160 e89e267da5853c3ac1b4a57d096f3f491876b450 OP_EQUAL",
            "hex": "a914e89e267da5853c3ac1b4a57d096f3f491876b45087",
            "reqSigs": 1,
            "type": "scripthash",
            "addresses": [
              "MV78TQyPmBUcyCG5uJFfgeVDPiUvVbEn3A"
            ]
          }
        }
      ],
      "hex": "01000000000101f4ece941ddf1d6dcea11993e9bec2465c6c072248b3d2d3ceab9d910c9d7a6c701000000232200208c54e5f629b015d4516fe001302f81b2a61ee60b6bf7c2364d9cb1843ca33446ffffffff0280969800000000001976a9147d663940e487f289c14a2c0c0f8c620ba13f938f88ac2cbf37000000000017a914e89e267da5853c3ac1b4a57d096f3f491876b450870400483045022100e4ce9815fa2fe32e7b4113c7ad65cbe765f6107c6c6a033e0de081dadd905b4502206078442e14c1b08f59c9359919f4229f38903cbb1b20cdee2d159e6e70bc6c640147304402207b9fdf1ffc918eefb5a12a04ec20621bbea17f31856e0a64469167e8c9233e0c02202f80ba2aaa5eda6d247e8e610a5287a1a123b3d621ae291ec247f3d3a0af50a00147522103e5767bbac930b522658cda3f8ab20729be10a426c8360755eafd3ab800cccd1121035601f3a2305646caace0c463b02eba89c2b789e281cef04109061d879d5bb51352ae00000000"
    }, 
    {
      "txid": "8b3932520a6725b5a41353910f2b745a6a5fc12bd01d49392d78f64eeecb1da9",
      "hash": "8b3932520a6725b5a41353910f2b745a6a5fc12bd01d49392d78f64eeecb1da9",
      "version": 2,
      "size": 225,
      "vsize": 225,
      "locktime": 1360534,
      "vin": [
        {
          "txid": "d38af0a9064a41b5eec8a46bf8120313903c635039e7ad07f5ee19697fadbde4",
          "vout": 2,
          "scriptSig": {
            "asm": "3044022073ab8a91437d388d00585228b47c0e656acf496b8368f213f6580863edb637f4022013768db74b0fe7f14bdf59d0d9c4ef3a435c56d144f5d17ba6f8124509729700[ALL] 02689fa895c62b03f5e1a5797d3b1d4f46cd8fac5df9dddc9424c6141bfc2b217b",
            "hex": "473044022073ab8a91437d388d00585228b47c0e656acf496b8368f213f6580863edb637f4022013768db74b0fe7f14bdf59d0d9c4ef3a435c56d144f5d17ba6f8124509729700012102689fa895c62b03f5e1a5797d3b1d4f46cd8fac5df9dddc9424c6141bfc2b217b"
          },
          "sequence": 4294967294
        }
      ],
      "vout": [
        {
          "value": 8.00154800,
          "n": 0,
          "scriptPubKey": {
            "asm": "OP_DUP OP_HASH160 6d6bd0179d651e27f37d9b369f7a12a0b3507724 OP_EQUALVERIFY OP_CHECKSIG",
            "hex": "76a9146d6bd0179d651e27f37d9b369f7a12a0b350772488ac",
            "reqSigs": 1,
            "type": "pubkeyhash",
            "addresses": [
              "LVCX56Fh22Rd1ggmsGMzWaSAqDBoPMjLg3"
            ]
          }
        }, 
        {
          "value": 6.99800000,
          "n": 1,
          "scriptPubKey": {
            "asm": "OP_DUP OP_HASH160 24f89c3d23ac6402347037b5c74ae55506c5cf49 OP_EQUALVERIFY OP_CHECKSIG",
            "hex": "76a91424f89c3d23ac6402347037b5c74ae55506c5cf4988ac",
            "reqSigs": 1,
            "type": "pubkeyhash",
            "addresses": [
              "LNbSQsBFDV6Tdak6ULTAZjG3w4jR9QQL7r"
            ]
          }
        }
      ],
      "hex": "0200000001e4bdad7f6919eef507ade73950633c90130312f86ba4c8eeb5414a06a9f08ad3020000006a473044022073ab8a91437d388d00585228b47c0e656acf496b8368f213f6580863edb637f4022013768db74b0fe7f14bdf59d0d9c4ef3a435c56d144f5d17ba6f8124509729700012102689fa895c62b03f5e1a5797d3b1d4f46cd8fac5df9dddc9424c6141bfc2b217bfeffffff02b064b12f000000001976a9146d6bd0179d651e27f37d9b369f7a12a0b350772488acc019b629000000001976a91424f89c3d23ac6402347037b5c74ae55506c5cf4988ac96c21400"
    }, 
    {
      "txid": "870c9843f10163de04b5b52f06f5e1b534e9374f0516c2639d6ee60017e1d502",
      "hash": "870c9843f10163de04b5b52f06f5e1b534e9374f0516c2639d6ee60017e1d502",
      "version": 1,
      "size": 225,
      "vsize": 225,
      "locktime": 0,
      "vin": [
        {
          "txid": "3719a26e0bc684a3102c3a011946ecc5465de552b737076ae1c3e606efcf1307",
          "vout": 0,
          "scriptSig": {
            "asm": "30440220282f51df8b7279f3cf95b09a679016a38f4944571fe4a5079318de3400624a09022058f2f5aafe3a24e446e93ac790ca6b3fb141bee2571e341dac2230ec73f4acd2[ALL] 026b5069eb561a1bfe994187fb5874dc4effb1f2c25ec4414e60aeb60ed02027a0",
            "hex": "4730440220282f51df8b7279f3cf95b09a679016a38f4944571fe4a5079318de3400624a09022058f2f5aafe3a24e446e93ac790ca6b3fb141bee2571e341dac2230ec73f4acd20121026b5069eb561a1bfe994187fb5874dc4effb1f2c25ec4414e60aeb60ed02027a0"
          },
          "sequence": 4294967295
        }
      ],
      "vout": [
        {
          "value": 0.30433050,
          "n": 0,
          "scriptPubKey": {
            "asm": "OP_DUP OP_HASH160 7a6357b572fac840b64aa15796a32a1c38a7f3fb OP_EQUALVERIFY OP_CHECKSIG",
            "hex": "76a9147a6357b572fac840b64aa15796a32a1c38a7f3fb88ac",
            "reqSigs": 1,
            "type": "pubkeyhash",
            "addresses": [
              "LWP5i4YyNpCvPzUCuyhikFJK3eMvZYGnqL"
            ]
          }
        }, 
        {
          "value": 92.07628155,
          "n": 1,
          "scriptPubKey": {
            "asm": "OP_DUP OP_HASH160 059378bfacc1a183e1b4f62e2a1e411f647c71d4 OP_EQUALVERIFY OP_CHECKSIG",
            "hex": "76a914059378bfacc1a183e1b4f62e2a1e411f647c71d488ac",
            "reqSigs": 1,
            "type": "pubkeyhash",
            "addresses": [
              "LKjSJgcRAnh9iTVVExA2XZWEdv5nARH3kd"
            ]
          }
        }
      ],
      "hex": "01000000010713cfef06e6c3e16a0737b752e55d46c5ec4619013a2c10a384c60b6ea21937000000006a4730440220282f51df8b7279f3cf95b09a679016a38f4944571fe4a5079318de3400624a09022058f2f5aafe3a24e446e93ac790ca6b3fb141bee2571e341dac2230ec73f4acd20121026b5069eb561a1bfe994187fb5874dc4effb1f2c25ec4414e60aeb60ed02027a0ffffffff021a5fd001000000001976a9147a6357b572fac840b64aa15796a32a1c38a7f3fb88ac7b41d124020000001976a914059378bfacc1a183e1b4f62e2a1e411f647c71d488ac00000000"
    }, 
    {
      "txid": "ccd055d0557865ed37621562c00e7d8ef84e0a19d5e880607b2b071ef1e44e09",
      "hash": "ccd055d0557865ed37621562c00e7d8ef84e0a19d5e880607b2b071ef1e44e09",
      "version": 1,
      "size": 225,
      "vsize": 225,
      "locktime": 0,
      "vin": [
        {
          "txid": "2f0b0fb4903d59330b5a4c50d3d330893815b630ae0340657cec2befe68cfef5",
          "vout": 0,
          "scriptSig": {
            "asm": "3044022003f2f64f9b60224d962505b295df165ee6255d170714a177a704c137fd790ff2022042ef984673aad8fa886309716d0a5cf535e1229a1b90e6a56e505a9589488788[ALL] 02cc1733f8b355a54139cbd79632724f5253edee5b50ac0cb599c6e2202d9e1f04",
            "hex": "473044022003f2f64f9b60224d962505b295df165ee6255d170714a177a704c137fd790ff2022042ef984673aad8fa886309716d0a5cf535e1229a1b90e6a56e505a9589488788012102cc1733f8b355a54139cbd79632724f5253edee5b50ac0cb599c6e2202d9e1f04"
          },
          "sequence": 4294967295
        }
      ],
      "vout": [
        {
          "value": 0.91299150,
          "n": 0,
          "scriptPubKey": {
            "asm": "OP_DUP OP_HASH160 4215e72e0eb55ed289ebdd6e9d4b20881252052a OP_EQUALVERIFY OP_CHECKSIG",
            "hex": "76a9144215e72e0eb55ed289ebdd6e9d4b20881252052a88ac",
            "reqSigs": 1,
            "type": "pubkeyhash",
            "addresses": [
              "LRFP6ixNdPftJApTmpVmxJCdNBjocmwtZk"
            ]
          }
        }, 
        {
          "value": 92.96997692,
          "n": 1,
          "scriptPubKey": {
            "asm": "OP_DUP OP_HASH160 b290748e9ddee4482842d76f8b88bdffbf928812 OP_EQUALVERIFY OP_CHECKSIG",
            "hex": "76a914b290748e9ddee4482842d76f8b88bdffbf92881288ac",
            "reqSigs": 1,
            "type": "pubkeyhash",
            "addresses": [
              "LbW7bHipnMWU7Mh3m8CWgDUdm8aJzoit92"
            ]
          }
        }
      ],
      "hex": "0100000001f5fe8ce6ef2bec7c654003ae30b615388930d3d3504c5a0b33593d90b40f0b2f000000006a473044022003f2f64f9b60224d962505b295df165ee6255d170714a177a704c137fd790ff2022042ef984673aad8fa886309716d0a5cf535e1229a1b90e6a56e505a9589488788012102cc1733f8b355a54139cbd79632724f5253edee5b50ac0cb599c6e2202d9e1f04ffffffff024e1d7105000000001976a9144215e72e0eb55ed289ebdd6e9d4b20881252052a88ac3ced242a020000001976a914b290748e9ddee4482842d76f8b88bdffbf92881288ac00000000"
    }, 
    {
      "txid": "c327bf7d0debd1b346fc42bd53d5df34110b974b8bed05679a568b9badc63a69",
      "hash": "c327bf7d0debd1b346fc42bd53d5df34110b974b8bed05679a568b9badc63a69",
      "version": 2,
      "size": 225,
      "vsize": 225,
      "locktime": 1360534,
      "vin": [
        {
          "txid": "476a1c6d28a8fa0b4f28c8e54b609c59017c8e8ac096869ef9ac8a08677a4fa4",
          "vout": 1,
          "scriptSig": {
            "asm": "30440220075ee862acca0ac4bfa534e81737fa24106be250be04cb693e2f5a365aa95ef80220571175fc03be1cb7bc963a685a0a6300928a985bea7693bf15852d1374ebc741[ALL] 02882469dc46b318350e2ac2e67d1896bebad70c01b2a316620c9255f4a2cc3ebd",
            "hex": "4730440220075ee862acca0ac4bfa534e81737fa24106be250be04cb693e2f5a365aa95ef80220571175fc03be1cb7bc963a685a0a6300928a985bea7693bf15852d1374ebc741012102882469dc46b318350e2ac2e67d1896bebad70c01b2a316620c9255f4a2cc3ebd"
          },
          "sequence": 4294967294
        }
      ],
      "vout": [
        {
          "value": 0.16656351,
          "n": 0,
          "scriptPubKey": {
            "asm": "OP_DUP OP_HASH160 c623d3a08e23181633cfc29211cb8448dc74d3ba OP_EQUALVERIFY OP_CHECKSIG",
            "hex": "76a914c623d3a08e23181633cfc29211cb8448dc74d3ba88ac",
            "reqSigs": 1,
            "type": "pubkeyhash",
            "addresses": [
              "LdHcyUZZRKvRHqcn8vugAkrTrUzjam9tnS"
            ]
          }
        }, 
        {
          "value": 4.99789272,
          "n": 1,
          "scriptPubKey": {
            "asm": "OP_DUP OP_HASH160 48156cc9dd3c343876b7100ca39c9d6193eed283 OP_EQUALVERIFY OP_CHECKSIG",
            "hex": "76a91448156cc9dd3c343876b7100ca39c9d6193eed28388ac",
            "reqSigs": 1,
            "type": "pubkeyhash",
            "addresses": [
              "LRo6af3gx1qyxV297utXwKhhkhLERXHDN2"
            ]
          }
        }
      ],
      "hex": "0200000001a44f7a67088aacf99e8696c08a8e7c01599c604be5c8284f0bfaa8286d1c6a47010000006a4730440220075ee862acca0ac4bfa534e81737fa24106be250be04cb693e2f5a365aa95ef80220571175fc03be1cb7bc963a685a0a6300928a985bea7693bf15852d1374ebc741012102882469dc46b318350e2ac2e67d1896bebad70c01b2a316620c9255f4a2cc3ebdfeffffff02df27fe00000000001976a914c623d3a08e23181633cfc29211cb8448dc74d3ba88acd82dca1d000000001976a91448156cc9dd3c343876b7100ca39c9d6193eed28388ac96c21400"
    }, 
    {
      "txid": "094c9d8cbe78e578ff9fcb7d305bd86271ffbe39c2c8be026dc5874416462b72",
      "hash": "094c9d8cbe78e578ff9fcb7d305bd86271ffbe39c2c8be026dc5874416462b72",
      "version": 1,
      "size": 225,
      "vsize": 225,
      "locktime": 0,
      "vin": [
        {
          "txid": "db08fccc72f06b734264aabdadc544b8c9aa034b60315b16b1a54b405c70b3dc",
          "vout": 0,
          "scriptSig": {
            "asm": "304402202f7f3370816c4eaf04d9004324673d3734d585bd1ab26a80bb253440396c6eff02204a91b1a30beef3ab36d82e7af64ef937807f22afde6111d630ee0b6ca06a46ee[ALL] 03a83a336f1b9eebc44d4f87ffff95ed01dfd91e8677d7c25c65b79eb08d4b4ecb",
            "hex": "47304402202f7f3370816c4eaf04d9004324673d3734d585bd1ab26a80bb253440396c6eff02204a91b1a30beef3ab36d82e7af64ef937807f22afde6111d630ee0b6ca06a46ee012103a83a336f1b9eebc44d4f87ffff95ed01dfd91e8677d7c25c65b79eb08d4b4ecb"
          },
          "sequence": 4294967295
        }
      ],
      "vout": [
        {
          "value": 0.00273897,
          "n": 0,
          "scriptPubKey": {
            "asm": "OP_DUP OP_HASH160 6403923b553df4005093d6b62799d0123fcf73cf OP_EQUALVERIFY OP_CHECKSIG",
            "hex": "76a9146403923b553df4005093d6b62799d0123fcf73cf88ac",
            "reqSigs": 1,
            "type": "pubkeyhash",
            "addresses": [
              "LULn7XcY2XXdWmpCR5hiMEg4BszUuytfsK"
            ]
          }
        }, 
        {
          "value": 0.00054906,
          "n": 1,
          "scriptPubKey": {
            "asm": "OP_DUP OP_HASH160 c959d8f041c8adace010180fafad2be8e332a2c2 OP_EQUALVERIFY OP_CHECKSIG",
            "hex": "76a914c959d8f041c8adace010180fafad2be8e332a2c288ac",
            "reqSigs": 1,
            "type": "pubkeyhash",
            "addresses": [
              "LdabiUj4B5F9CvkRexM3CfBLcwds73AugB"
            ]
          }
        }
      ],
      "hex": "0100000001dcb3705c404ba5b1165b31604b03aac9b844c5adbdaa6442736bf072ccfc08db000000006a47304402202f7f3370816c4eaf04d9004324673d3734d585bd1ab26a80bb253440396c6eff02204a91b1a30beef3ab36d82e7af64ef937807f22afde6111d630ee0b6ca06a46ee012103a83a336f1b9eebc44d4f87ffff95ed01dfd91e8677d7c25c65b79eb08d4b4ecbffffffff02e92d0400000000001976a9146403923b553df4005093d6b62799d0123fcf73cf88ac7ad60000000000001976a914c959d8f041c8adace010180fafad2be8e332a2c288ac00000000"
    }, 
    {
      "txid": "ea4d72665224aa623053b32b986ac205972e41c1f3eaa97a616e0472767df8e5",
      "hash": "ea4d72665224aa623053b32b986ac205972e41c1f3eaa97a616e0472767df8e5",
      "version": 1,
      "size": 225,
      "vsize": 225,
      "locktime": 0,
      "vin": [
        {
          "txid": "88163c054a1b4c393310682a2928377bc0f55c3e9bca74fa57ef4a0a38634149",
          "vout": 0,
          "scriptSig": {
            "asm": "304402202f2a264861d79b19a6c27952cadaec8f5965cfe4db90288f289061fcb92cdcce022070a9d0a73137bc519137a109c2d156c69665915c29a061c0b4fed8682ed56822[ALL] 02dfa083e288b57b59abf8de255d31d3a20ddd141b2f7d6e6239a87e34633eea2f",
            "hex": "47304402202f2a264861d79b19a6c27952cadaec8f5965cfe4db90288f289061fcb92cdcce022070a9d0a73137bc519137a109c2d156c69665915c29a061c0b4fed8682ed56822012102dfa083e288b57b59abf8de255d31d3a20ddd141b2f7d6e6239a87e34633eea2f"
          },
          "sequence": 4294967295
        }
      ],
      "vout": [
        {
          "value": 92.92632058,
          "n": 0,
          "scriptPubKey": {
            "asm": "OP_DUP OP_HASH160 d01e257e4114d8884ddbe2fcd4942a3f06c6d04f OP_EQUALVERIFY OP_CHECKSIG",
            "hex": "76a914d01e257e4114d8884ddbe2fcd4942a3f06c6d04f88ac",
            "reqSigs": 1,
            "type": "pubkeyhash",
            "addresses": [
              "LeCNvj5gHTRxDoGhyGEkrtbjkyDASpoes7"
            ]
          }
        }, 
        {
          "value": 1.00000000,
          "n": 1,
          "scriptPubKey": {
            "asm": "OP_DUP OP_HASH160 ceed7121021a0f469a8dab68c2724fdefaf0f6ad OP_EQUALVERIFY OP_CHECKSIG",
            "hex": "76a914ceed7121021a0f469a8dab68c2724fdefaf0f6ad88ac",
            "reqSigs": 1,
            "type": "pubkeyhash",
            "addresses": [
              "Le65uUykrtoMhcJYxjUpPKSH3uzzKMjqyy"
            ]
          }
        }
      ],
      "hex": "0100000001494163380a4aef57fa74ca9b3e5cf5c07b3728292a681033394c1b4a053c1688000000006a47304402202f2a264861d79b19a6c27952cadaec8f5965cfe4db90288f289061fcb92cdcce022070a9d0a73137bc519137a109c2d156c69665915c29a061c0b4fed8682ed56822012102dfa083e288b57b59abf8de255d31d3a20ddd141b2f7d6e6239a87e34633eea2fffffffff02fa4fe229020000001976a914d01e257e4114d8884ddbe2fcd4942a3f06c6d04f88ac00e1f505000000001976a914ceed7121021a0f469a8dab68c2724fdefaf0f6ad88ac00000000"
    }, 
    {
      "txid": "0724da7bce1d6bde64b1af33b63928bed23cd2d232fcb23e43284dfc7bd83400",
      "hash": "0724da7bce1d6bde64b1af33b63928bed23cd2d232fcb23e43284dfc7bd83400",
      "version": 1,
      "size": 439,
      "vsize": 439,
      "locktime": 1360534,
      "vin": [
        {
          "txid": "760daeef9c5635ee43a8dbc303d5cb9d730c784858fca02c09effc264218f78d",
          "vout": 1,
          "scriptSig": {
            "asm": "3045022100e41e1c3e33a0eff41ae2666b23ff8b04fea1d920197517477e36a6f610d9f21b022069bf3e3773654c0fbb044f5c8a7662786a0dca7d9449463ff5c6ddbcd7e5ceb2[ALL] 03a2203e21de761bdfa7824fd5e8f1bbfeb380ab8f78ed2555336088b5b63bb3b0",
            "hex": "483045022100e41e1c3e33a0eff41ae2666b23ff8b04fea1d920197517477e36a6f610d9f21b022069bf3e3773654c0fbb044f5c8a7662786a0dca7d9449463ff5c6ddbcd7e5ceb2012103a2203e21de761bdfa7824fd5e8f1bbfeb380ab8f78ed2555336088b5b63bb3b0"
          },
          "sequence": 4294967294
        }, 
        {
          "txid": "a292bc64038fb4000f3d21025e6b177be9db8c180886a95de9c88199ca6a31a3",
          "vout": 5,
          "scriptSig": {
            "asm": "3044022027989fa4dd62cdce9ce135c5c69339e3e871c8960165d000162b4bc3b4bde05602202e74d3a27e51d3af2ba0ace4bb28941324b8e96edf750368fff7df13456d189c[ALL] 0254b50003474ddff01eee896aac78802c026f02284e6bf37674829424a5437ff8",
            "hex": "473044022027989fa4dd62cdce9ce135c5c69339e3e871c8960165d000162b4bc3b4bde05602202e74d3a27e51d3af2ba0ace4bb28941324b8e96edf750368fff7df13456d189c01210254b50003474ddff01eee896aac78802c026f02284e6bf37674829424a5437ff8"
          },
          "sequence": 4294967294
        }
      ],
      "vout": [
        {
          "value": 864.55700000,
          "n": 0,
          "scriptPubKey": {
            "asm": "OP_DUP OP_HASH160 f010b5f6971e2cdb675cdeaf3f22c0c17215678b OP_EQUALVERIFY OP_CHECKSIG",
            "hex": "76a914f010b5f6971e2cdb675cdeaf3f22c0c17215678b88ac",
            "reqSigs": 1,
            "type": "pubkeyhash",
            "addresses": [
              "Lh7JTLbQYymVPdouxHtgDLdFieCHqRFBCV"
            ]
          }
        }, 
        {
          "value": 3.00000000,
          "n": 1,
          "scriptPubKey": {
            "asm": "OP_DUP OP_HASH160 c472ac2d0d497f07539d5991b67efe689a09db59 OP_EQUALVERIFY OP_CHECKSIG",
            "hex": "76a914c472ac2d0d497f07539d5991b67efe689a09db5988ac",
            "reqSigs": 1,
            "type": "pubkeyhash",
            "addresses": [
              "Ld8g5QDY4ezxD21MQm7nvvo8GPYEEuB9cY"
            ]
          }
        }, 
        {
          "value": 0.13713990,
          "n": 2,
          "scriptPubKey": {
            "asm": "OP_HASH160 9ba1afc3b37c4db4d6fcbc47ee9a4d1ef6f332e0 OP_EQUAL",
            "hex": "a9149ba1afc3b37c4db4d6fcbc47ee9a4d1ef6f332e087",
            "reqSigs": 1,
            "type": "scripthash",
            "addresses": [
              "MN64fLvtsBsSrkGm4Yw8BiW4A1WWnmEkMy"
            ]
          }
        }, 
        {
          "value": 2.52312505,
          "n": 3,
          "scriptPubKey": {
            "asm": "OP_DUP OP_HASH160 4cf89d062f7d1775c110b580807985772f382552 OP_EQUALVERIFY OP_CHECKSIG",
            "hex": "76a9144cf89d062f7d1775c110b580807985772f38255288ac",
            "reqSigs": 1,
            "type": "pubkeyhash",
            "addresses": [
              "LSEwSkayp8qcop78H2e9TDRKpXS6VdRjNs"
            ]
          }
        }
      ],
      "hex": "01000000028df7184226fcef092ca0fc5848780c739dcbd503c3dba843ee35569cefae0d76010000006b483045022100e41e1c3e33a0eff41ae2666b23ff8b04fea1d920197517477e36a6f610d9f21b022069bf3e3773654c0fbb044f5c8a7662786a0dca7d9449463ff5c6ddbcd7e5ceb2012103a2203e21de761bdfa7824fd5e8f1bbfeb380ab8f78ed2555336088b5b63bb3b0feffffffa3316aca9981c8e95da98608188cdbe97b176b5e02213d0f00b48f0364bc92a2050000006a473044022027989fa4dd62cdce9ce135c5c69339e3e871c8960165d000162b4bc3b4bde05602202e74d3a27e51d3af2ba0ace4bb28941324b8e96edf750368fff7df13456d189c01210254b50003474ddff01eee896aac78802c026f02284e6bf37674829424a5437ff8feffffff04204a2921140000001976a914f010b5f6971e2cdb675cdeaf3f22c0c17215678b88ac00a3e111000000001976a914c472ac2d0d497f07539d5991b67efe689a09db5988ac4642d1000000000017a9149ba1afc3b37c4db4d6fcbc47ee9a4d1ef6f332e087b9fb090f000000001976a9144cf89d062f7d1775c110b580807985772f38255288ac96c21400"
    }, 
    {
      "txid": "92fdf3050f51c5cf529260119e20442982a4b8c52823a2a5b51d3f8eeb05e7a8",
      "hash": "92fdf3050f51c5cf529260119e20442982a4b8c52823a2a5b51d3f8eeb05e7a8",
      "version": 2,
      "size": 817,
      "vsize": 817,
      "locktime": 1360534,
      "vin": [
        {
          "txid": "7eb35a8c741bc641306caec64d129e2575686ef16717abe393e6573c21e81008",
          "vout": 1,
          "scriptSig": {
            "asm": "3045022100e697e147258481e0629851895091bef8e95d7bd4bb7fa189f88bb979ef40c8dd022004fc82aef9fdbc54a9a798ea256c350b17bfcd23d07691d177762dd37b12dd12[ALL] 02a0f58a611ed74e0539f6b6197d1279043c0fe59d40db697715c8488931e27f41",
            "hex": "483045022100e697e147258481e0629851895091bef8e95d7bd4bb7fa189f88bb979ef40c8dd022004fc82aef9fdbc54a9a798ea256c350b17bfcd23d07691d177762dd37b12dd12012102a0f58a611ed74e0539f6b6197d1279043c0fe59d40db697715c8488931e27f41"
          },
          "sequence": 4294967294
        }, 
        {
          "txid": "5674cfbff1076d5378c3e4018dd6e9f70c3ea7f83b83905e0c9c1a25c85ccc3d",
          "vout": 0,
          "scriptSig": {
            "asm": "30450221008544ed27a8a22c126ab49e9140f42775c57f72b97a5c2ef24c220227b022de8502201ee27a6ef5ea2bb1dd9293b6341f6e824adf154a2a32efd6db5951e40791a77b[ALL] 02ea1d35c81e70eb96e02e022f80851f4083253f7f0cab0b91ad9733326b8826ad",
            "hex": "4830450221008544ed27a8a22c126ab49e9140f42775c57f72b97a5c2ef24c220227b022de8502201ee27a6ef5ea2bb1dd9293b6341f6e824adf154a2a32efd6db5951e40791a77b012102ea1d35c81e70eb96e02e022f80851f4083253f7f0cab0b91ad9733326b8826ad"
          },
          "sequence": 4294967294
        }, 
        {
          "txid": "6a2dd5274301a0d3f4315c7d7652fd529392ba372fd11335f5f2be4a1f74bc68",
          "vout": 0,
          "scriptSig": {
            "asm": "3045022100cd316e7fc98ebe59d900c003504a918bba9c12ea882c57ca6deebfe861fc397902203e2e61e441e96afbb9578d95d1590ad2d8fe41cc4afffc04fa12021bc12fb352[ALL] 022e2b17baccfb25e4e0254301dd18a8a7e5b36350d70d430f646778054e7e7422",
            "hex": "483045022100cd316e7fc98ebe59d900c003504a918bba9c12ea882c57ca6deebfe861fc397902203e2e61e441e96afbb9578d95d1590ad2d8fe41cc4afffc04fa12021bc12fb3520121022e2b17baccfb25e4e0254301dd18a8a7e5b36350d70d430f646778054e7e7422"
          },
          "sequence": 4294967294
        }, 
        {
          "txid": "2aa1a839f2416317f5cc802da6963d4de5b2ca3982f4d968a6d7eb1990ef7f6a",
          "vout": 0,
          "scriptSig": {
            "asm": "3045022100f0668bda7511aeed3179c1192240c0b1e04bbde9defbb3b63ebf1be19e4565bd0220018c04a51220abd5a5c7ed9e3d361d758292280fa7dfa942bd96bab8f29372a2[ALL] 03202995cea1e6f34e20fa34a01a3f23dbdd8f673c5e609be53b1aeb6e43b5dff3",
            "hex": "483045022100f0668bda7511aeed3179c1192240c0b1e04bbde9defbb3b63ebf1be19e4565bd0220018c04a51220abd5a5c7ed9e3d361d758292280fa7dfa942bd96bab8f29372a2012103202995cea1e6f34e20fa34a01a3f23dbdd8f673c5e609be53b1aeb6e43b5dff3"
          },
          "sequence": 4294967294
        }, 
        {
          "txid": "f817d2ba5393cedcbc2f1bd414802945775fa9889fa49aed9cfdd042ab86d7b8",
          "vout": 5,
          "scriptSig": {
            "asm": "3044022061cc6c095f714276abfc2e905e4c2a5e0ed0818955b36e09527968c41a6bd9a00220108af3c0f12bb5b7825f4d286fdb98d332256f2d1c1fa5d11d77aefa9208d047[ALL] 03e532580d6039b80059879b36fae0d531e5bb3f4479909b7188a46e612a8e2bc4",
            "hex": "473044022061cc6c095f714276abfc2e905e4c2a5e0ed0818955b36e09527968c41a6bd9a00220108af3c0f12bb5b7825f4d286fdb98d332256f2d1c1fa5d11d77aefa9208d047012103e532580d6039b80059879b36fae0d531e5bb3f4479909b7188a46e612a8e2bc4"
          },
          "sequence": 4294967294
        }
      ],
      "vout": [
        {
          "value": 0.02094910,
          "n": 0,
          "scriptPubKey": {
            "asm": "OP_DUP OP_HASH160 596109814deb93dc6621580d31728b0ce43dd916 OP_EQUALVERIFY OP_CHECKSIG",
            "hex": "76a914596109814deb93dc6621580d31728b0ce43dd91688ac",
            "reqSigs": 1,
            "type": "pubkeyhash",
            "addresses": [
              "LTNYeYVokeWTL7enmSWwypYQhZTkHtb5SB"
            ]
          }
        }, 
        {
          "value": 7.34056606,
          "n": 1,
          "scriptPubKey": {
            "asm": "OP_DUP OP_HASH160 85a3bdc8c2f574469365db8116c8b3f7260f2707 OP_EQUALVERIFY OP_CHECKSIG",
            "hex": "76a91485a3bdc8c2f574469365db8116c8b3f7260f270788ac",
            "reqSigs": 1,
            "type": "pubkeyhash",
            "addresses": [
              "LXQaHg5PYBNo8SmeQQckdPkceBgovisbUn"
            ]
          }
        }
      ],
      "hex": "02000000050810e8213c57e693e3ab1767f16e6875259e124dc6ae6c3041c61b748c5ab37e010000006b483045022100e697e147258481e0629851895091bef8e95d7bd4bb7fa189f88bb979ef40c8dd022004fc82aef9fdbc54a9a798ea256c350b17bfcd23d07691d177762dd37b12dd12012102a0f58a611ed74e0539f6b6197d1279043c0fe59d40db697715c8488931e27f41feffffff3dcc5cc8251a9c0c5e90833bf8a73e0cf7e9d68d01e4c378536d07f1bfcf7456000000006b4830450221008544ed27a8a22c126ab49e9140f42775c57f72b97a5c2ef24c220227b022de8502201ee27a6ef5ea2bb1dd9293b6341f6e824adf154a2a32efd6db5951e40791a77b012102ea1d35c81e70eb96e02e022f80851f4083253f7f0cab0b91ad9733326b8826adfeffffff68bc741f4abef2f53513d12f37ba929352fd52767d5c31f4d3a0014327d52d6a000000006b483045022100cd316e7fc98ebe59d900c003504a918bba9c12ea882c57ca6deebfe861fc397902203e2e61e441e96afbb9578d95d1590ad2d8fe41cc4afffc04fa12021bc12fb3520121022e2b17baccfb25e4e0254301dd18a8a7e5b36350d70d430f646778054e7e7422feffffff6a7fef9019ebd7a668d9f48239cab2e54d3d96a62d80ccf5176341f239a8a12a000000006b483045022100f0668bda7511aeed3179c1192240c0b1e04bbde9defbb3b63ebf1be19e4565bd0220018c04a51220abd5a5c7ed9e3d361d758292280fa7dfa942bd96bab8f29372a2012103202995cea1e6f34e20fa34a01a3f23dbdd8f673c5e609be53b1aeb6e43b5dff3feffffffb8d786ab42d0fd9ced9aa49f88a95f7745298014d41b2fbcdcce9353bad217f8050000006a473044022061cc6c095f714276abfc2e905e4c2a5e0ed0818955b36e09527968c41a6bd9a00220108af3c0f12bb5b7825f4d286fdb98d332256f2d1c1fa5d11d77aefa9208d047012103e532580d6039b80059879b36fae0d531e5bb3f4479909b7188a46e612a8e2bc4feffffff023ef71f00000000001976a914596109814deb93dc6621580d31728b0ce43dd91688ac9ed0c02b000000001976a91485a3bdc8c2f574469365db8116c8b3f7260f270788ac96c21400"
    }, 
    {
      "txid": "7a6f0d8593328a09663b8627dc5e2db3de92ea8ab97986716cba04eda7960a57",
      "hash": "7a6f0d8593328a09663b8627dc5e2db3de92ea8ab97986716cba04eda7960a57",
      "version": 1,
      "size": 226,
      "vsize": 226,
      "locktime": 0,
      "vin": [
        {
          "txid": "bde657ff3d99764a2a06757558efc9708ea1851d037a7fb930efb6975d1043a9",
          "vout": 0,
          "scriptSig": {
            "asm": "30450221009a9976e237905eeed77e0c7ec66c786ce1f126a961a3a52a3807c2246f5370a802204cad5aa7d738213f6e7384f8facce34d14048e89728697624156f4bc8db0dd32[ALL] 02ff30ec457e6ebfd766ea7246a924e1e23b79c8e5f42afd5a9d84f4aeeddbd8fe",
            "hex": "4830450221009a9976e237905eeed77e0c7ec66c786ce1f126a961a3a52a3807c2246f5370a802204cad5aa7d738213f6e7384f8facce34d14048e89728697624156f4bc8db0dd32012102ff30ec457e6ebfd766ea7246a924e1e23b79c8e5f42afd5a9d84f4aeeddbd8fe"
          },
          "sequence": 4294967295
        }
      ],
      "vout": [
        {
          "value": 87.80581489,
          "n": 0,
          "scriptPubKey": {
            "asm": "OP_DUP OP_HASH160 efb5c0b15d178211fcaf31371363b9a501de0910 OP_EQUALVERIFY OP_CHECKSIG",
            "hex": "76a914efb5c0b15d178211fcaf31371363b9a501de091088ac",
            "reqSigs": 1,
            "type": "pubkeyhash",
            "addresses": [
              "Lh5RVTdPwe63xSQssoimU3EhHwWuQoRrgH"
            ]
          }
        }, 
        {
          "value": 6.00000000,
          "n": 1,
          "scriptPubKey": {
            "asm": "OP_DUP OP_HASH160 1a38255584ab8bfa0a54ac931728e90d72fde86d OP_EQUALVERIFY OP_CHECKSIG",
            "hex": "76a9141a38255584ab8bfa0a54ac931728e90d72fde86d88ac",
            "reqSigs": 1,
            "type": "pubkeyhash",
            "addresses": [
              "LMcb6HHrtEka6fdmiH1sFcNYxwskpYaPJj"
            ]
          }
        }
      ],
      "hex": "0100000001a943105d97b6ef30b97f7a031d85a18e70c9ef587575062a4a76993dff57e6bd000000006b4830450221009a9976e237905eeed77e0c7ec66c786ce1f126a961a3a52a3807c2246f5370a802204cad5aa7d738213f6e7384f8facce34d14048e89728697624156f4bc8db0dd32012102ff30ec457e6ebfd766ea7246a924e1e23b79c8e5f42afd5a9d84f4aeeddbd8feffffffff02710a5d0b020000001976a914efb5c0b15d178211fcaf31371363b9a501de091088ac0046c323000000001976a9141a38255584ab8bfa0a54ac931728e90d72fde86d88ac00000000"
    }, 
    {
      "txid": "b842970beb0fc4dae55a663dd8cd2b4dd61b268b6efca8ddf444a00cab53aba3",
      "hash": "b842970beb0fc4dae55a663dd8cd2b4dd61b268b6efca8ddf444a00cab53aba3",
      "version": 1,
      "size": 226,
      "vsize": 226,
      "locktime": 0,
      "vin": [
        {
          "txid": "54bb21ac2bcb55648ed3ed8f8a3eecbe9a03dd72470cd85b94a31608061b7527",
          "vout": 1,
          "scriptSig": {
            "asm": "304502210090a16115ca426879eb9fb21a12704513f728678e6074f17ddb6efeb22511906d02206a4bca99d58e867c9b6ee325e03339db96f84dff76890ea607ed0e09d67b1671[ALL] 024a2ff516df4df59d3179ce647b9939c4d8aa92a5412749135fdf12b8be20cfc0",
            "hex": "48304502210090a16115ca426879eb9fb21a12704513f728678e6074f17ddb6efeb22511906d02206a4bca99d58e867c9b6ee325e03339db96f84dff76890ea607ed0e09d67b16710121024a2ff516df4df59d3179ce647b9939c4d8aa92a5412749135fdf12b8be20cfc0"
          },
          "sequence": 4294967295
        }
      ],
      "vout": [
        {
          "value": 0.03346421,
          "n": 0,
          "scriptPubKey": {
            "asm": "OP_DUP OP_HASH160 b4bb8df02dd6b61b31f08fea6e09338a15d373e0 OP_EQUALVERIFY OP_CHECKSIG",
            "hex": "76a914b4bb8df02dd6b61b31f08fea6e09338a15d373e088ac",
            "reqSigs": 1,
            "type": "pubkeyhash",
            "addresses": [
              "LbhaaFgExhJAHwa4ndHfs6adeq38bcSheB"
            ]
          }
        }, 
        {
          "value": 0.01773428,
          "n": 1,
          "scriptPubKey": {
            "asm": "OP_DUP OP_HASH160 927d5c62b4767c1520a389215ab02edcda4e480b OP_EQUALVERIFY OP_CHECKSIG",
            "hex": "76a914927d5c62b4767c1520a389215ab02edcda4e480b88ac",
            "reqSigs": 1,
            "type": "pubkeyhash",
            "addresses": [
              "LYaX6Sssr7YQgReu9bGnDYTN8ErDDNHhGm"
            ]
          }
        }
      ],
      "hex": "010000000127751b060816a3945bd80c4772dd039abeec3e8a8fedd38e6455cb2bac21bb54010000006b48304502210090a16115ca426879eb9fb21a12704513f728678e6074f17ddb6efeb22511906d02206a4bca99d58e867c9b6ee325e03339db96f84dff76890ea607ed0e09d67b16710121024a2ff516df4df59d3179ce647b9939c4d8aa92a5412749135fdf12b8be20cfc0ffffffff02f50f3300000000001976a914b4bb8df02dd6b61b31f08fea6e09338a15d373e088ac740f1b00000000001976a914927d5c62b4767c1520a389215ab02edcda4e480b88ac00000000"
    }
  ],
  "time": 1517445994,
  "mediantime": 1517444925,
  "nonce": 149028891,
  "bits": "1a042eae",
  "difficulty": 4011378.762614286,
  "chainwork": "00000000000000000000000000000000000000000000003507ca8eadcf825fb2",
  "previousblockhash": "48a5f1263768238acf87c348ff992efd44ed30d4da5423809a535267b013fc80",
  "nextblockhash": "58d8ca2e0ac222812e9f5ee8e07d22f1004a7132a3da9169c81160f9c7a0484f"
}
