{
  "hash": "42bddf9efe96ff801c7dc7bb1b1b9b56be8c30f5062834a1c3c23c8c3c8a1f25",
  "confirmations": 1053,
  "strippedsize": 253,
  "size": 253,
  "weight": 1012,
  "height": 1359941,
  "version": 536870912,
  "versionHex": "20000000",
  "merkleroot": "3d2a03017a55d4bfb490b5d8b298974dad9ad79731c656422ddbf2816db829d7",
  "tx": [
    {
      "txid": "3d2a03017a55d4bfb490b5d8b298974dad9ad79731c656422ddbf2816db829d7",
      "hash": "3d2a03017a55d4bfb490b5d8b298974dad9ad79731c656422ddbf2816db829d7",
      "version": 1,
      "size": 172,
      "vsize": 172,
      "locktime": 0,
      "vin": [
        {
          "coinbase": "0345c0141a4d696e656420627920416e74506f6f6c20626a3532205a70f5d6fabe6d6db4774a1c238494daaed5eee98243bd2502cf70d71d93007f9859e0095b61d3410400000000000000d91800000000000011000000",
          "sequence": 4294967295
        }
      ],
      "vout": [
        {
          "value": 25.00000000,
          "n": 0,
          "scriptPubKey": {
            "asm": "OP_DUP OP_HASH160 0ff3ccc5e8be88afe24b5d634e5852d474dbdff1 OP_EQUALVERIFY OP_CHECKSIG",
            "hex": "76a9140ff3ccc5e8be88afe24b5d634e5852d474dbdff188ac",
            "reqSigs": 1,
            "type": "pubkeyhash",
            "addresses": [
              "LLgJTbzZMsRTCUF1NtvvL9SR1a4pVieW89"
            ]
          }
        }
      ],
      "hex": "01000000010000000000000000000000000000000000000000000000000000000000000000ffffffff570345c0141a4d696e656420627920416e74506f6f6c20626a3532205a70f5d6fabe6d6db4774a1c238494daaed5eee98243bd2502cf70d71d93007f9859e0095b61d3410400000000000000d91800000000000011000000ffffffff0100f90295000000001976a9140ff3ccc5e8be88afe24b5d634e5852d474dbdff188ac00000000"
    }
  ],
  "time": 1517352406,
  "mediantime": 1517351160,
  "nonce": 1357980569,
  "bits": "1a042eae",
  "difficulty": 4011378.762614286,
  "chainwork": "0000000000000000000000000000000000000000000000347986c6ae461a668c",
  "previousblockhash": "18de9dd686d314092d4591d6cf83ceb0dafb648a3f463ac7554ee3456988614a",
  "nextblockhash": "bfa427ae8505f6b9aeeb4e3447c5ae8c12e50e0c1a56165f100356775d28e171"
}
