{
  "hash": "42fadc94b47cfe3475c7dfb21431af614179e9eefc0694fe9c5d0f68dc83637c",
  "confirmations": 2477,
  "strippedsize": 253,
  "size": 253,
  "weight": 1012,
  "height": 1358518,
  "version": 536870912,
  "versionHex": "20000000",
  "merkleroot": "16f9cee3455c2fb742958602ec50f544a8d8b258c7f516efdedb84d2b18b8132",
  "tx": [
    {
      "txid": "16f9cee3455c2fb742958602ec50f544a8d8b258c7f516efdedb84d2b18b8132",
      "hash": "16f9cee3455c2fb742958602ec50f544a8d8b258c7f516efdedb84d2b18b8132",
      "version": 1,
      "size": 172,
      "vsize": 172,
      "locktime": 0,
      "vin": [
        {
          "coinbase": "03b6ba141a4d696e656420627920416e74506f6f6c20626a3242205a6dec54fabe6d6d79a0e7f2a0d42033b381854cb68a51e21c024dec26053e379b16e25d5bf7b53a0400000000000000c3350000000000000e000000",
          "sequence": 4294967295
        }
      ],
      "vout": [
        {
          "value": 25.00000000,
          "n": 0,
          "scriptPubKey": {
            "asm": "OP_DUP OP_HASH160 0ff3ccc5e8be88afe24b5d634e5852d474dbdff1 OP_EQUALVERIFY OP_CHECKSIG",
            "hex": "76a9140ff3ccc5e8be88afe24b5d634e5852d474dbdff188ac",
            "reqSigs": 1,
            "type": "pubkeyhash",
            "addresses": [
              "LLgJTbzZMsRTCUF1NtvvL9SR1a4pVieW89"
            ]
          }
        }
      ],
      "hex": "01000000010000000000000000000000000000000000000000000000000000000000000000ffffffff5703b6ba141a4d696e656420627920416e74506f6f6c20626a3242205a6dec54fabe6d6d79a0e7f2a0d42033b381854cb68a51e21c024dec26053e379b16e25d5bf7b53a0400000000000000c3350000000000000e000000ffffffff0100f90295000000001976a9140ff3ccc5e8be88afe24b5d634e5852d474dbdff188ac00000000"
    }
  ],
  "time": 1517153364,
  "mediantime": 1517152553,
  "nonce": 1046678993,
  "bits": "1a047f14",
  "difficulty": 3731199.183374282,
  "chainwork": "00000000000000000000000000000000000000000000003329b64b97176bed96",
  "previousblockhash": "0606a94d45440ea1252d2d1a84a2d3f719a2118fd0738775b04e954ec9088183",
  "nextblockhash": "969a01bd0d423d28eb197c53a792ce5fc469db45ce2084e01691b12eb1a88a7b"
}
