{
  "hash": "4378676c4b1654e755bbbe8c31395c2bf7c90dcbdc141fd6b64c2bbd0eb3fc00",
  "confirmations": 3033,
  "strippedsize": 254,
  "size": 254,
  "weight": 1016,
  "height": 1357962,
  "version": 536870912,
  "versionHex": "20000000",
  "merkleroot": "2ab8828f09f0a26e11aff905eacac049b847ab787fadfc999eefd0fdc5213a9e",
  "tx": [
    {
      "txid": "2ab8828f09f0a26e11aff905eacac049b847ab787fadfc999eefd0fdc5213a9e",
      "hash": "2ab8828f09f0a26e11aff905eacac049b847ab787fadfc999eefd0fdc5213a9e",
      "version": 1,
      "size": 173,
      "vsize": 173,
      "locktime": 0,
      "vin": [
        {
          "coinbase": "038ab8141b4d696e656420627920416e74506f6f6c20626a302042205a6ca92afabe6d6d6ade637c253f6a69d1d821f6c82333458f5e81bf25a78603969dc0f2f453aaf70400000000000000f10e0000000000001b000000",
          "sequence": 4294967295
        }
      ],
      "vout": [
        {
          "value": 25.00000000,
          "n": 0,
          "scriptPubKey": {
            "asm": "OP_DUP OP_HASH160 0ff3ccc5e8be88afe24b5d634e5852d474dbdff1 OP_EQUALVERIFY OP_CHECKSIG",
            "hex": "76a9140ff3ccc5e8be88afe24b5d634e5852d474dbdff188ac",
            "reqSigs": 1,
            "type": "pubkeyhash",
            "addresses": [
              "LLgJTbzZMsRTCUF1NtvvL9SR1a4pVieW89"
            ]
          }
        }
      ],
      "hex": "01000000010000000000000000000000000000000000000000000000000000000000000000ffffffff58038ab8141b4d696e656420627920416e74506f6f6c20626a302042205a6ca92afabe6d6d6ade637c253f6a69d1d821f6c82333458f5e81bf25a78603969dc0f2f453aaf70400000000000000f10e0000000000001b000000ffffffff0100f90295000000001976a9140ff3ccc5e8be88afe24b5d634e5852d474dbdff188ac00000000"
    }
  ],
  "time": 1517070634,
  "mediantime": 1517070027,
  "nonce": 115338811,
  "bits": "1a047f14",
  "difficulty": 3731199.183374282,
  "chainwork": "000000000000000000000000000000000000000000000032ae0ebdb594c7651e",
  "previousblockhash": "bf56fbb52ed77e31693c5da885ce098b09a35d58ddb530e8918af2c3c519920c",
  "nextblockhash": "a62f2e393df789acc5060df6b3008fcbdba378fbd09933ec5a2b4ef698d4449d"
}
