{
  "hash": "4459feeee0b7d83e0de03553f7845a3d078a144fe4f169aaeb876a5f18ee1e60",
  "confirmations": 3320,
  "strippedsize": 4165,
  "size": 4201,
  "weight": 16696,
  "height": 1357675,
  "version": 536870912,
  "versionHex": "20000000",
  "merkleroot": "6df791d302c0c38007e5877f9c39a874aa716336f80eaffb63001ddb7dacc897",
  "tx": [
    {
      "txid": "5e8727e592cad68e9b7ad095bd61d53622f21652ba1bca5b0d15fb2cabf1e8b6",
      "hash": "2be2ebe971c2af30b636ffb54e02a04915a4c7405487311f946ec136a51f7f28",
      "version": 1,
      "size": 236,
      "vsize": 209,
      "locktime": 0,
      "vin": [
        {
          "coinbase": "036bb714045a6c185c2cfabe6d6d2c025e94bcdd9e6ff92723c30bf093181fc750377e2e66837c79a724a78764b64000000000000000042f4c502f0822005d3f04000000",
          "sequence": 4294967295
        }
      ],
      "vout": [
        {
          "value": 25.02007000,
          "n": 0,
          "scriptPubKey": {
            "asm": "OP_DUP OP_HASH160 57757ed2ecf2052ff3126c397aca7defb9ca2cec OP_EQUALVERIFY OP_CHECKSIG",
            "hex": "76a91457757ed2ecf2052ff3126c397aca7defb9ca2cec88ac",
            "reqSigs": 1,
            "type": "pubkeyhash",
            "addresses": [
              "LTCPodGk5FwcJaRzH9yKnwicxzFUbxp6tN"
            ]
          }
        }, 
        {
          "value": 0.00000000,
          "n": 1,
          "scriptPubKey": {
            "asm": "OP_RETURN aa21a9ed6b31ccc23994ad17a71da021a02b29ac35fc9078d8842da65f0f73c5021a6928",
            "hex": "6a24aa21a9ed6b31ccc23994ad17a71da021a02b29ac35fc9078d8842da65f0f73c5021a6928",
            "type": "nulldata"
          }
        }
      ],
      "hex": "010000000001010000000000000000000000000000000000000000000000000000000000000000ffffffff44036bb714045a6c185c2cfabe6d6d2c025e94bcdd9e6ff92723c30bf093181fc750377e2e66837c79a724a78764b64000000000000000042f4c502f0822005d3f04000000ffffffff02d8982195000000001976a91457757ed2ecf2052ff3126c397aca7defb9ca2cec88ac0000000000000000266a24aa21a9ed6b31ccc23994ad17a71da021a02b29ac35fc9078d8842da65f0f73c5021a69280120000000000000000000000000000000000000000000000000000000000000000000000000"
    }, 
    {
      "txid": "d0279897cc50bf4a5cb6bae51da78e2197d159c045f047e3796c589655bdc1c8",
      "hash": "d0279897cc50bf4a5cb6bae51da78e2197d159c045f047e3796c589655bdc1c8",
      "version": 1,
      "size": 1406,
      "vsize": 1406,
      "locktime": 0,
      "vin": [
        {
          "txid": "cb10da201700d8b7ef4e9dd22afe2894a104fe89d6951c64f00cf0ebd7bfe4cf",
          "vout": 12,
          "scriptSig": {
            "asm": "3044022049ab3650934a599dbdf8c154e39d86806a26ffbbb00c773adeeac93eebf67654022040b91873ff025eb6e03dfabf2a2ad1b57fb3ae855cac4fd7f51468e2859c3a7a[ALL] 0242776cd7dfba6edd379c2966d8c3717c4f56ec8323aac445715e8084f2538f48",
            "hex": "473044022049ab3650934a599dbdf8c154e39d86806a26ffbbb00c773adeeac93eebf67654022040b91873ff025eb6e03dfabf2a2ad1b57fb3ae855cac4fd7f51468e2859c3a7a01210242776cd7dfba6edd379c2966d8c3717c4f56ec8323aac445715e8084f2538f48"
          },
          "sequence": 4294967295
        }, 
        {
          "txid": "0f41ebd0b8bcdb0c5f55e1e5057aa0a28dfa18a6e6746d54c447138780fbec5a",
          "vout": 0,
          "scriptSig": {
            "asm": "304402204f44fc1e3c66f8a86e420d606a682a0aa5dc7650ef6bb4aa4b14fed9282f9c8502206c93ce745d815e8d6cd3eb0b2aee0a707d512383e7aa64f9f2c2c970cea594b9[ALL] 03d53126903dea5b94cd4754e6917f68b3898f2c494c630804a2890a761ba40cec",
            "hex": "47304402204f44fc1e3c66f8a86e420d606a682a0aa5dc7650ef6bb4aa4b14fed9282f9c8502206c93ce745d815e8d6cd3eb0b2aee0a707d512383e7aa64f9f2c2c970cea594b9012103d53126903dea5b94cd4754e6917f68b3898f2c494c630804a2890a761ba40cec"
          },
          "sequence": 4294967295
        }, 
        {
          "txid": "121735d11ecf1ad0ae9a28c786894f070ee40ae3aac8f0b5e6a99a92ab2680d4",
          "vout": 1,
          "scriptSig": {
            "asm": "3045022100f427370a067f6cc5b29adb8f438c077488f7c231abf3ec07e1816c9d2d8aead002200767d5b0d903ebc2de70ddb5dd804f9951d564e982217f400c1f409d5803c396[ALL] 02a7c15a6d66ef1802eb90256ea3ddae5a064421fdc75cd4b9a3f0137e2c232d0a",
            "hex": "483045022100f427370a067f6cc5b29adb8f438c077488f7c231abf3ec07e1816c9d2d8aead002200767d5b0d903ebc2de70ddb5dd804f9951d564e982217f400c1f409d5803c396012102a7c15a6d66ef1802eb90256ea3ddae5a064421fdc75cd4b9a3f0137e2c232d0a"
          },
          "sequence": 4294967295
        }, 
        {
          "txid": "1bb5f60509415eddef7bedffcd83e730faa0eda4e8aa510bee2459c59b5623d7",
          "vout": 1,
          "scriptSig": {
            "asm": "304402205216896058ca3eec18f6714f335dbb8eec775e4ea2114ae3887bfe3d6691f6a5022000a0043ba83503463e6525954a03a884f4d73414aa9b31e30bdbccfbf041095c[ALL] 03afae1ae2dfb807013ba9859e20ab30c7f3171d55015085251440068ae0bb3c16",
            "hex": "47304402205216896058ca3eec18f6714f335dbb8eec775e4ea2114ae3887bfe3d6691f6a5022000a0043ba83503463e6525954a03a884f4d73414aa9b31e30bdbccfbf041095c012103afae1ae2dfb807013ba9859e20ab30c7f3171d55015085251440068ae0bb3c16"
          },
          "sequence": 4294967295
        }, 
        {
          "txid": "e85f2875766433257d2be0fcbc03c0e00a92ab3b90a6be995416a9fc1b55a4b8",
          "vout": 0,
          "scriptSig": {
            "asm": "304402204bd420259b6e90fab46de7721a0891efb2b27fb9ffac7c58350f69fd6cfe6ec802207259c5a72b83cf2775a90ac5225db7a7ed60c8b335323be79d211ea432255b9d[ALL] 0264483cb5b171157e281afc80c4955dc097c4578ab7c0ee4e23f5db35f19d64a3",
            "hex": "47304402204bd420259b6e90fab46de7721a0891efb2b27fb9ffac7c58350f69fd6cfe6ec802207259c5a72b83cf2775a90ac5225db7a7ed60c8b335323be79d211ea432255b9d01210264483cb5b171157e281afc80c4955dc097c4578ab7c0ee4e23f5db35f19d64a3"
          },
          "sequence": 4294967295
        }, 
        {
          "txid": "2ff31d9e4e1a6b8bed1974c059b94cdefca2831f691c93503c9ddf8df26a8aaf",
          "vout": 27,
          "scriptSig": {
            "asm": "3045022100c86035623490e086b1d91876b0cf3349d9c6431300e6210b0f9eef8144eb7f33022052fa31e448de9bbf63b86f55f1fe80ffe9318e412882ce998c04c5cc08dbdddf[ALL] 023f883c8428d9ccfb367b487775bb2e928b04d430b22b2ea6b2c8dd93e2464da6",
            "hex": "483045022100c86035623490e086b1d91876b0cf3349d9c6431300e6210b0f9eef8144eb7f33022052fa31e448de9bbf63b86f55f1fe80ffe9318e412882ce998c04c5cc08dbdddf0121023f883c8428d9ccfb367b487775bb2e928b04d430b22b2ea6b2c8dd93e2464da6"
          },
          "sequence": 4294967295
        }, 
        {
          "txid": "d30de6a27888b1c5077b06eeaf21201d3c4f94fb2d19a0890aaaa2c42c2473b4",
          "vout": 16,
          "scriptSig": {
            "asm": "3045022100d0cf704588146bd0be557ffa671ea0231fbe1921b4cd49db066753676ff918900220611631afd6e0513824536ff32ef8235acf9f93ec0dc5e555734c2f0cbcaec01f[ALL] 02234b1d50ebaf431c26d0aaba93924c6335d99ca050368fbc4f341d8b56a20df9",
            "hex": "483045022100d0cf704588146bd0be557ffa671ea0231fbe1921b4cd49db066753676ff918900220611631afd6e0513824536ff32ef8235acf9f93ec0dc5e555734c2f0cbcaec01f012102234b1d50ebaf431c26d0aaba93924c6335d99ca050368fbc4f341d8b56a20df9"
          },
          "sequence": 4294967295
        }, 
        {
          "txid": "f6082c9d346770deaa4a8bb3d05bd66b7602eb2f6d6add409cee93a0826e7e82",
          "vout": 2,
          "scriptSig": {
            "asm": "3045022100be048e93b12397df3901927aa39cd38f9d3814d1b69b55c2a4ac74419c79895402201401bfba48ab168aaec772c76092e0e70e324ee8df8d571737fd7c65eeb54aae[ALL] 02d6cf9ed3157b6a9e7c5ff78e1d14a526f8759359109a11b4cf4e363c361fdd7a",
            "hex": "483045022100be048e93b12397df3901927aa39cd38f9d3814d1b69b55c2a4ac74419c79895402201401bfba48ab168aaec772c76092e0e70e324ee8df8d571737fd7c65eeb54aae012102d6cf9ed3157b6a9e7c5ff78e1d14a526f8759359109a11b4cf4e363c361fdd7a"
          },
          "sequence": 4294967295
        }, 
        {
          "txid": "88e2bf3cccee9fb619c4aed612d673c5912e795918bf2b25972bf4940d6adcd7",
          "vout": 0,
          "scriptSig": {
            "asm": "3045022100d94def96303b3d6d708c15b5e852e6bfa565945cd0c60ab8c127ce1647d002a202204d89bd1b16cee57c86480c40133c759eda0acc083e085bbff4ee193514a64457[ALL] 02d07b785780cde72eccc15cbd417d1e45ef7a8e04853ac1d9f8bfdd1ab82be030",
            "hex": "483045022100d94def96303b3d6d708c15b5e852e6bfa565945cd0c60ab8c127ce1647d002a202204d89bd1b16cee57c86480c40133c759eda0acc083e085bbff4ee193514a64457012102d07b785780cde72eccc15cbd417d1e45ef7a8e04853ac1d9f8bfdd1ab82be030"
          },
          "sequence": 4294967295
        }
      ],
      "vout": [
        {
          "value": 1.16435458,
          "n": 0,
          "scriptPubKey": {
            "asm": "OP_DUP OP_HASH160 b436e53b0630d9f00f79a1de7d049df213ced4de OP_EQUALVERIFY OP_CHECKSIG",
            "hex": "76a914b436e53b0630d9f00f79a1de7d049df213ced4de88ac",
            "reqSigs": 1,
            "type": "pubkeyhash",
            "addresses": [
              "LbeqewhkJMhreqpCQHHpqYUguaibTs38zW"
            ]
          }
        }, 
        {
          "value": 21.24939477,
          "n": 1,
          "scriptPubKey": {
            "asm": "OP_DUP OP_HASH160 30b9fcdc77628c077ad94fdcfee9fa480aefad86 OP_EQUALVERIFY OP_CHECKSIG",
            "hex": "76a91430b9fcdc77628c077ad94fdcfee9fa480aefad8688ac",
            "reqSigs": 1,
            "type": "pubkeyhash",
            "addresses": [
              "LPfbW5LLpaKYTRoLRepXPrRRgLYdRyPZ8F"
            ]
          }
        }
      ],
      "hex": "0100000009cfe4bfd7ebf00cf0641c95d689fe04a19428fe2ad29d4eefb7d8001720da10cb0c0000006a473044022049ab3650934a599dbdf8c154e39d86806a26ffbbb00c773adeeac93eebf67654022040b91873ff025eb6e03dfabf2a2ad1b57fb3ae855cac4fd7f51468e2859c3a7a01210242776cd7dfba6edd379c2966d8c3717c4f56ec8323aac445715e8084f2538f48ffffffff5aecfb80871347c4546d74e6a618fa8da2a07a05e5e1555f0cdbbcb8d0eb410f000000006a47304402204f44fc1e3c66f8a86e420d606a682a0aa5dc7650ef6bb4aa4b14fed9282f9c8502206c93ce745d815e8d6cd3eb0b2aee0a707d512383e7aa64f9f2c2c970cea594b9012103d53126903dea5b94cd4754e6917f68b3898f2c494c630804a2890a761ba40cecffffffffd48026ab929aa9e6b5f0c8aae30ae40e074f8986c7289aaed01acf1ed1351712010000006b483045022100f427370a067f6cc5b29adb8f438c077488f7c231abf3ec07e1816c9d2d8aead002200767d5b0d903ebc2de70ddb5dd804f9951d564e982217f400c1f409d5803c396012102a7c15a6d66ef1802eb90256ea3ddae5a064421fdc75cd4b9a3f0137e2c232d0affffffffd723569bc55924ee0b51aae8a4eda0fa30e783cdffed7befdd5e410905f6b51b010000006a47304402205216896058ca3eec18f6714f335dbb8eec775e4ea2114ae3887bfe3d6691f6a5022000a0043ba83503463e6525954a03a884f4d73414aa9b31e30bdbccfbf041095c012103afae1ae2dfb807013ba9859e20ab30c7f3171d55015085251440068ae0bb3c16ffffffffb8a4551bfca9165499bea6903bab920ae0c003bcfce02b7d2533647675285fe8000000006a47304402204bd420259b6e90fab46de7721a0891efb2b27fb9ffac7c58350f69fd6cfe6ec802207259c5a72b83cf2775a90ac5225db7a7ed60c8b335323be79d211ea432255b9d01210264483cb5b171157e281afc80c4955dc097c4578ab7c0ee4e23f5db35f19d64a3ffffffffaf8a6af28ddf9d3c50931c691f83a2fcde4cb959c07419ed8b6b1a4e9e1df32f1b0000006b483045022100c86035623490e086b1d91876b0cf3349d9c6431300e6210b0f9eef8144eb7f33022052fa31e448de9bbf63b86f55f1fe80ffe9318e412882ce998c04c5cc08dbdddf0121023f883c8428d9ccfb367b487775bb2e928b04d430b22b2ea6b2c8dd93e2464da6ffffffffb473242cc4a2aa0a89a0192dfb944f3c1d2021afee067b07c5b18878a2e60dd3100000006b483045022100d0cf704588146bd0be557ffa671ea0231fbe1921b4cd49db066753676ff918900220611631afd6e0513824536ff32ef8235acf9f93ec0dc5e555734c2f0cbcaec01f012102234b1d50ebaf431c26d0aaba93924c6335d99ca050368fbc4f341d8b56a20df9ffffffff827e6e82a093ee9c40dd6a6d2feb02766bd65bd0b38b4aaade7067349d2c08f6020000006b483045022100be048e93b12397df3901927aa39cd38f9d3814d1b69b55c2a4ac74419c79895402201401bfba48ab168aaec772c76092e0e70e324ee8df8d571737fd7c65eeb54aae012102d6cf9ed3157b6a9e7c5ff78e1d14a526f8759359109a11b4cf4e363c361fdd7affffffffd7dc6a0d94f42b97252bbf1859792e91c573d612d6aec419b69feecc3cbfe288000000006b483045022100d94def96303b3d6d708c15b5e852e6bfa565945cd0c60ab8c127ce1647d002a202204d89bd1b16cee57c86480c40133c759eda0acc083e085bbff4ee193514a64457012102d07b785780cde72eccc15cbd417d1e45ef7a8e04853ac1d9f8bfdd1ab82be030ffffffff0202aaf006000000001976a914b436e53b0630d9f00f79a1de7d049df213ced4de88acd500a87e000000001976a91430b9fcdc77628c077ad94fdcfee9fa480aefad8688ac00000000"
    }, 
    {
      "txid": "84bacbdbac97a732bc19a30e8398987e0ef1fe7163b8ccd1adbe65aa61918418",
      "hash": "84bacbdbac97a732bc19a30e8398987e0ef1fe7163b8ccd1adbe65aa61918418",
      "version": 1,
      "size": 1440,
      "vsize": 1440,
      "locktime": 0,
      "vin": [
        {
          "txid": "0a1d953bdacd6201659682bec997b914ef4d8e81a63ec112daabd2eac209c165",
          "vout": 3,
          "scriptSig": {
            "asm": "304402201cb55d595c72dc499835d96bf729d926b7ee1d0f7f071b1894f243116686d42d0220051ed09c83ec6a591436b1ccec3eec9c26a2d074423ff4d9b1f1f7d1d866af0f[ALL] 03bb05dd566aff2dc047782b278287f5fe6ba1161365ea104e764610b7fc07d590",
            "hex": "47304402201cb55d595c72dc499835d96bf729d926b7ee1d0f7f071b1894f243116686d42d0220051ed09c83ec6a591436b1ccec3eec9c26a2d074423ff4d9b1f1f7d1d866af0f012103bb05dd566aff2dc047782b278287f5fe6ba1161365ea104e764610b7fc07d590"
          },
          "sequence": 4294967295
        }, 
        {
          "txid": "84371a07a298b6a17cdf13efce52ec40311734f10c6af67c8db686b611749625",
          "vout": 0,
          "scriptSig": {
            "asm": "304502210088cd76de806deb9e73c34c3d58024a632f954f94cb6cf3b31a63c9c6e491c3d702203ad800fe59b6f9ac2741981f4fadec63d62370af83d97736fcadf0a93be8bd15[ALL] 021f43833a45b684efc73001797165d51da1d1cbeaa02c4684fa547575fe980d7b",
            "hex": "48304502210088cd76de806deb9e73c34c3d58024a632f954f94cb6cf3b31a63c9c6e491c3d702203ad800fe59b6f9ac2741981f4fadec63d62370af83d97736fcadf0a93be8bd150121021f43833a45b684efc73001797165d51da1d1cbeaa02c4684fa547575fe980d7b"
          },
          "sequence": 4294967295
        }, 
        {
          "txid": "8ac0f53c9d93ec0b8fbdb699bc760fc25b1c44a8bc6f2532674567e178f557d1",
          "vout": 0,
          "scriptSig": {
            "asm": "3045022100d135004e21c1808da35b54d74cb079e75f5e4c7293c0ef2947c498b42519050f022037d00d7afc45aa2cd6b21cc06f8c014c4200f15997115fb14b34eb54057aa5da[ALL] 021f43833a45b684efc73001797165d51da1d1cbeaa02c4684fa547575fe980d7b",
            "hex": "483045022100d135004e21c1808da35b54d74cb079e75f5e4c7293c0ef2947c498b42519050f022037d00d7afc45aa2cd6b21cc06f8c014c4200f15997115fb14b34eb54057aa5da0121021f43833a45b684efc73001797165d51da1d1cbeaa02c4684fa547575fe980d7b"
          },
          "sequence": 4294967295
        }, 
        {
          "txid": "67a7f47b31226891ae695aad392719fb2fd483f1362532484a5eebd1ea656d13",
          "vout": 1,
          "scriptSig": {
            "asm": "304402203bc9ad6513bed2fff876f9920e83aee152b9d54c619c3e5c24dbf7d1801c56f5022026d54dbc4305b3acdcf6318facde67aebe24d54ca1e6c3ad2a3f1e137a29d48a[ALL] 021f43833a45b684efc73001797165d51da1d1cbeaa02c4684fa547575fe980d7b",
            "hex": "47304402203bc9ad6513bed2fff876f9920e83aee152b9d54c619c3e5c24dbf7d1801c56f5022026d54dbc4305b3acdcf6318facde67aebe24d54ca1e6c3ad2a3f1e137a29d48a0121021f43833a45b684efc73001797165d51da1d1cbeaa02c4684fa547575fe980d7b"
          },
          "sequence": 4294967295
        }, 
        {
          "txid": "0fa56f7d969fc291aaf27c06fd29c1bb6a4c2dad2a042eda8aa2a819c1550814",
          "vout": 0,
          "scriptSig": {
            "asm": "3045022100deef394d65d786dec782bcef6b38225cfcda2ac6e5646d83709d4ce368ff597f02201e29da7a354b229e49e941e45160d5b348c80d25ec976caad3aff4544a537f19[ALL] 021f43833a45b684efc73001797165d51da1d1cbeaa02c4684fa547575fe980d7b",
            "hex": "483045022100deef394d65d786dec782bcef6b38225cfcda2ac6e5646d83709d4ce368ff597f02201e29da7a354b229e49e941e45160d5b348c80d25ec976caad3aff4544a537f190121021f43833a45b684efc73001797165d51da1d1cbeaa02c4684fa547575fe980d7b"
          },
          "sequence": 4294967295
        }, 
        {
          "txid": "41ba9e023ce5b041ff7362ff3ce0162332577bfe8e4b02fd199a4b695e1a8dc3",
          "vout": 0,
          "scriptSig": {
            "asm": "3045022100831c04639ab4a2f9c267c8d5cabfa29c1ff0e16b72f95a70e9303f0098dbc3fe02201e6e1fa24452d279aa416c151bdab1e3ed767c84781b43a800adf083a90e2610[ALL] 021f43833a45b684efc73001797165d51da1d1cbeaa02c4684fa547575fe980d7b",
            "hex": "483045022100831c04639ab4a2f9c267c8d5cabfa29c1ff0e16b72f95a70e9303f0098dbc3fe02201e6e1fa24452d279aa416c151bdab1e3ed767c84781b43a800adf083a90e26100121021f43833a45b684efc73001797165d51da1d1cbeaa02c4684fa547575fe980d7b"
          },
          "sequence": 4294967295
        }, 
        {
          "txid": "2db4e0fbb94fab3fa7c29b65728d3164cde973be41fc80326830161c48bfae40",
          "vout": 1,
          "scriptSig": {
            "asm": "3045022100c4044102160f0e0ad9265a4cb778b1b628b9e9225009554f1349a6d9fff65783022078a15299954e6a178b6a1d998359cb2c224921f8e4024c8fedb7a8610d21b934[ALL] 021f43833a45b684efc73001797165d51da1d1cbeaa02c4684fa547575fe980d7b",
            "hex": "483045022100c4044102160f0e0ad9265a4cb778b1b628b9e9225009554f1349a6d9fff65783022078a15299954e6a178b6a1d998359cb2c224921f8e4024c8fedb7a8610d21b9340121021f43833a45b684efc73001797165d51da1d1cbeaa02c4684fa547575fe980d7b"
          },
          "sequence": 4294967295
        }, 
        {
          "txid": "aec7925b990af1a1426a275d9438e46ac079d5196e620037f6fee1e0bc208093",
          "vout": 1,
          "scriptSig": {
            "asm": "304402205e4a1a5486ce147f31454061a02b3c98c58c060efc6542f1a01222ad14ccbc4c02206cc4d8e02fc24412e8c16eeb40ffbf7a9afe19da03d4c0262d32f17a85ead684[ALL] 021f43833a45b684efc73001797165d51da1d1cbeaa02c4684fa547575fe980d7b",
            "hex": "47304402205e4a1a5486ce147f31454061a02b3c98c58c060efc6542f1a01222ad14ccbc4c02206cc4d8e02fc24412e8c16eeb40ffbf7a9afe19da03d4c0262d32f17a85ead6840121021f43833a45b684efc73001797165d51da1d1cbeaa02c4684fa547575fe980d7b"
          },
          "sequence": 4294967295
        }, 
        {
          "txid": "3531985c817cf55974fc24e7f7b319f28b7d4efce2143d037918e49d95a598c1",
          "vout": 45,
          "scriptSig": {
            "asm": "304402200db8567871c7df05f73e986d3e686aa3c1476e88254a43056942269df4c4f15a022061be47bc2a99c4835ff96a445ace072422e1206b2049a4de945e53a751374a04[ALL] 03d19e7064d2e18cb3e1648a36301d1a09f0d49fb36885e2965df6d7214d3a65cb",
            "hex": "47304402200db8567871c7df05f73e986d3e686aa3c1476e88254a43056942269df4c4f15a022061be47bc2a99c4835ff96a445ace072422e1206b2049a4de945e53a751374a04012103d19e7064d2e18cb3e1648a36301d1a09f0d49fb36885e2965df6d7214d3a65cb"
          },
          "sequence": 4294967295
        }
      ],
      "vout": [
        {
          "value": 107.99900000,
          "n": 0,
          "scriptPubKey": {
            "asm": "OP_DUP OP_HASH160 0295a594075842c1aa841d38c3d5a7b0a4ac806d OP_EQUALVERIFY OP_CHECKSIG",
            "hex": "76a9140295a594075842c1aa841d38c3d5a7b0a4ac806d88ac",
            "reqSigs": 1,
            "type": "pubkeyhash",
            "addresses": [
              "LKTctEkdjoEM7VpuiaLadSsnZyeoBsaFBT"
            ]
          }
        }, 
        {
          "value": 3.99900000,
          "n": 1,
          "scriptPubKey": {
            "asm": "OP_DUP OP_HASH160 358adb936672d4d9e3b0e815b74e97ffbdc975b5 OP_EQUALVERIFY OP_CHECKSIG",
            "hex": "76a914358adb936672d4d9e3b0e815b74e97ffbdc975b588ac",
            "reqSigs": 1,
            "type": "pubkeyhash",
            "addresses": [
              "LQ74RPC2jmocxD3TvWvoTAXJndATgBpzwu"
            ]
          }
        }, 
        {
          "value": 53.13089000,
          "n": 2,
          "scriptPubKey": {
            "asm": "OP_DUP OP_HASH160 609fca6504f09f1c6f7526c8f654a02c50c153b4 OP_EQUALVERIFY OP_CHECKSIG",
            "hex": "76a914609fca6504f09f1c6f7526c8f654a02c50c153b488ac",
            "reqSigs": 1,
            "type": "pubkeyhash",
            "addresses": [
              "LU2rZ5Gz4GUfuotFRaEyECVcSsWYeJ5DhK"
            ]
          }
        }
      ],
      "hex": "010000000965c109c2ead2abda12c13ea6818e4def14b997c9be8296650162cdda3b951d0a030000006a47304402201cb55d595c72dc499835d96bf729d926b7ee1d0f7f071b1894f243116686d42d0220051ed09c83ec6a591436b1ccec3eec9c26a2d074423ff4d9b1f1f7d1d866af0f012103bb05dd566aff2dc047782b278287f5fe6ba1161365ea104e764610b7fc07d590ffffffff25967411b686b68d7cf66a0cf134173140ec52ceef13df7ca1b698a2071a3784000000006b48304502210088cd76de806deb9e73c34c3d58024a632f954f94cb6cf3b31a63c9c6e491c3d702203ad800fe59b6f9ac2741981f4fadec63d62370af83d97736fcadf0a93be8bd150121021f43833a45b684efc73001797165d51da1d1cbeaa02c4684fa547575fe980d7bffffffffd157f578e167456732256fbca8441c5bc20f76bc99b6bd8f0bec939d3cf5c08a000000006b483045022100d135004e21c1808da35b54d74cb079e75f5e4c7293c0ef2947c498b42519050f022037d00d7afc45aa2cd6b21cc06f8c014c4200f15997115fb14b34eb54057aa5da0121021f43833a45b684efc73001797165d51da1d1cbeaa02c4684fa547575fe980d7bffffffff136d65ead1eb5e4a48322536f183d42ffb192739ad5a69ae916822317bf4a767010000006a47304402203bc9ad6513bed2fff876f9920e83aee152b9d54c619c3e5c24dbf7d1801c56f5022026d54dbc4305b3acdcf6318facde67aebe24d54ca1e6c3ad2a3f1e137a29d48a0121021f43833a45b684efc73001797165d51da1d1cbeaa02c4684fa547575fe980d7bffffffff140855c119a8a28ada2e042aad2d4c6abbc129fd067cf2aa91c29f967d6fa50f000000006b483045022100deef394d65d786dec782bcef6b38225cfcda2ac6e5646d83709d4ce368ff597f02201e29da7a354b229e49e941e45160d5b348c80d25ec976caad3aff4544a537f190121021f43833a45b684efc73001797165d51da1d1cbeaa02c4684fa547575fe980d7bffffffffc38d1a5e694b9a19fd024b8efe7b57322316e03cff6273ff41b0e53c029eba41000000006b483045022100831c04639ab4a2f9c267c8d5cabfa29c1ff0e16b72f95a70e9303f0098dbc3fe02201e6e1fa24452d279aa416c151bdab1e3ed767c84781b43a800adf083a90e26100121021f43833a45b684efc73001797165d51da1d1cbeaa02c4684fa547575fe980d7bffffffff40aebf481c1630683280fc41be73e9cd64318d72659bc2a73fab4fb9fbe0b42d010000006b483045022100c4044102160f0e0ad9265a4cb778b1b628b9e9225009554f1349a6d9fff65783022078a15299954e6a178b6a1d998359cb2c224921f8e4024c8fedb7a8610d21b9340121021f43833a45b684efc73001797165d51da1d1cbeaa02c4684fa547575fe980d7bffffffff938020bce0e1fef63700626e19d579c06ae438945d276a42a1f10a995b92c7ae010000006a47304402205e4a1a5486ce147f31454061a02b3c98c58c060efc6542f1a01222ad14ccbc4c02206cc4d8e02fc24412e8c16eeb40ffbf7a9afe19da03d4c0262d32f17a85ead6840121021f43833a45b684efc73001797165d51da1d1cbeaa02c4684fa547575fe980d7bffffffffc198a5959de41879033d14e2fc4e7d8bf219b3f7e724fc7459f57c815c9831352d0000006a47304402200db8567871c7df05f73e986d3e686aa3c1476e88254a43056942269df4c4f15a022061be47bc2a99c4835ff96a445ace072422e1206b2049a4de945e53a751374a04012103d19e7064d2e18cb3e1648a36301d1a09f0d49fb36885e2965df6d7214d3a65cbffffffff036065b983020000001976a9140295a594075842c1aa841d38c3d5a7b0a4ac806d88ac60fdd517000000001976a914358adb936672d4d9e3b0e815b74e97ffbdc975b588ace84daf3c010000001976a914609fca6504f09f1c6f7526c8f654a02c50c153b488ac00000000"
    }, 
    {
      "txid": "2f809b0c73741efad618c6000a995cc864c800856096c4fef14cb51b49f0bcc2",
      "hash": "2f809b0c73741efad618c6000a995cc864c800856096c4fef14cb51b49f0bcc2",
      "version": 1,
      "size": 588,
      "vsize": 588,
      "locktime": 1357673,
      "vin": [
        {
          "txid": "aa466c4b62fe2ead973f207a9ad2ce43f3bcf6943922350af68d9a5cf6bff00d",
          "vout": 0,
          "scriptSig": {
            "asm": "304402207e30eeeb3256932466478590d02ac68f043435a6c66583fe85db98147aacad0902202bc2a4853f7a7eb7f2eaa0a29a63d7042c547b0a84271246e2d4711b993f8d21[ALL] 023bd2fd6c4a69132cd44ce6d4ab8cc98f2f976930833d8bb0ec7f70208cc88f3f",
            "hex": "47304402207e30eeeb3256932466478590d02ac68f043435a6c66583fe85db98147aacad0902202bc2a4853f7a7eb7f2eaa0a29a63d7042c547b0a84271246e2d4711b993f8d210121023bd2fd6c4a69132cd44ce6d4ab8cc98f2f976930833d8bb0ec7f70208cc88f3f"
          },
          "sequence": 4294967294
        }, 
        {
          "txid": "f027e46df8e748258ed86e0acc8ee09b43f5328cd04bf959588164b175546e9d",
          "vout": 0,
          "scriptSig": {
            "asm": "3045022100f18d5f4f7f09251f316a9730c9a1a28d12fa7fcfd95dbe54f08a0b2d0a828c6e02206372ef76ae014b3fb4f98a1a2e6e442e840927710b16f9e46f0226c5f78b1be5[ALL] 0310518459af4e1b58d011d02bb0b22d5e9878a55dd194669cf3dec9124e12bca4",
            "hex": "483045022100f18d5f4f7f09251f316a9730c9a1a28d12fa7fcfd95dbe54f08a0b2d0a828c6e02206372ef76ae014b3fb4f98a1a2e6e442e840927710b16f9e46f0226c5f78b1be501210310518459af4e1b58d011d02bb0b22d5e9878a55dd194669cf3dec9124e12bca4"
          },
          "sequence": 4294967294
        }, 
        {
          "txid": "43845a831d054db343107c5098c360643750268bbd70b6c579293f67bdb2ced0",
          "vout": 595,
          "scriptSig": {
            "asm": "3044022038463062110275d49665beefcb0843509456a9e7f0be8da6e78d8fb44045704502207fe18a94357c41b4ac3f8a16bc04a14f235ddb8d15d291042b823531875aa198[ALL] 03331f8c9e2266d5607c89efe0c37cf020fa710ee2c3d0af34b51d28f953a757c1",
            "hex": "473044022038463062110275d49665beefcb0843509456a9e7f0be8da6e78d8fb44045704502207fe18a94357c41b4ac3f8a16bc04a14f235ddb8d15d291042b823531875aa198012103331f8c9e2266d5607c89efe0c37cf020fa710ee2c3d0af34b51d28f953a757c1"
          },
          "sequence": 4294967294
        }
      ],
      "vout": [
        {
          "value": 0.01000055,
          "n": 0,
          "scriptPubKey": {
            "asm": "OP_DUP OP_HASH160 cccbf88afc0758aed6443edbde41c6c0746d9248 OP_EQUALVERIFY OP_CHECKSIG",
            "hex": "76a914cccbf88afc0758aed6443edbde41c6c0746d924888ac",
            "reqSigs": 1,
            "type": "pubkeyhash",
            "addresses": [
              "LdtpTVRt9fnRdp12TdaFv4rSA1apcxzbH8"
            ]
          }
        }, 
        {
          "value": 3.63887140,
          "n": 1,
          "scriptPubKey": {
            "asm": "OP_DUP OP_HASH160 878529811c181a8d7f4270d6e212d9b4d5d14580 OP_EQUALVERIFY OP_CHECKSIG",
            "hex": "76a914878529811c181a8d7f4270d6e212d9b4d5d1458088ac",
            "reqSigs": 1,
            "type": "pubkeyhash",
            "addresses": [
              "LXaX1Np1LhmsoZRBCqshNs2dXGdyhjcm6o"
            ]
          }
        }, 
        {
          "value": 12.04629513,
          "n": 2,
          "scriptPubKey": {
            "asm": "OP_DUP OP_HASH160 862123729fdb7b89742107fe2948865e7b95ebc2 OP_EQUALVERIFY OP_CHECKSIG",
            "hex": "76a914862123729fdb7b89742107fe2948865e7b95ebc288ac",
            "reqSigs": 1,
            "type": "pubkeyhash",
            "addresses": [
              "LXTAWRH6uop17yXR1pQgG9pM8SqRoQetri"
            ]
          }
        }, 
        {
          "value": 0.09180166,
          "n": 3,
          "scriptPubKey": {
            "asm": "OP_DUP OP_HASH160 b642cf2fa2fc6b2c2f1f75ad0140ec53d8a7e63a OP_EQUALVERIFY OP_CHECKSIG",
            "hex": "76a914b642cf2fa2fc6b2c2f1f75ad0140ec53d8a7e63a88ac",
            "reqSigs": 1,
            "type": "pubkeyhash",
            "addresses": [
              "LbqfH7rze2txXK4W94g8v45zmkMLPKz3oh"
            ]
          }
        }
      ],
      "hex": "01000000030df0bff65c9a8df60a35223994f6bcf343ced29a7a203f97ad2efe624b6c46aa000000006a47304402207e30eeeb3256932466478590d02ac68f043435a6c66583fe85db98147aacad0902202bc2a4853f7a7eb7f2eaa0a29a63d7042c547b0a84271246e2d4711b993f8d210121023bd2fd6c4a69132cd44ce6d4ab8cc98f2f976930833d8bb0ec7f70208cc88f3ffeffffff9d6e5475b164815859f94bd08c32f5439be08ecc0a6ed88e2548e7f86de427f0000000006b483045022100f18d5f4f7f09251f316a9730c9a1a28d12fa7fcfd95dbe54f08a0b2d0a828c6e02206372ef76ae014b3fb4f98a1a2e6e442e840927710b16f9e46f0226c5f78b1be501210310518459af4e1b58d011d02bb0b22d5e9878a55dd194669cf3dec9124e12bca4feffffffd0ceb2bd673f2979c5b670bd8b2650376460c398507c1043b34d051d835a8443530200006a473044022038463062110275d49665beefcb0843509456a9e7f0be8da6e78d8fb44045704502207fe18a94357c41b4ac3f8a16bc04a14f235ddb8d15d291042b823531875aa198012103331f8c9e2266d5607c89efe0c37cf020fa710ee2c3d0af34b51d28f953a757c1feffffff0477420f00000000001976a914cccbf88afc0758aed6443edbde41c6c0746d924888ac247ab015000000001976a914878529811c181a8d7f4270d6e212d9b4d5d1458088ac0930cd47000000001976a914862123729fdb7b89742107fe2948865e7b95ebc288ac06148c00000000001976a914b642cf2fa2fc6b2c2f1f75ad0140ec53d8a7e63a88ac69b71400"
    }, 
    {
      "txid": "0aaa2492b9c3cb70ebe864ef8aa10a9a1ff13debd7090b3adbd3dc4f76228f2d",
      "hash": "0aaa2492b9c3cb70ebe864ef8aa10a9a1ff13debd7090b3adbd3dc4f76228f2d",
      "version": 1,
      "size": 225,
      "vsize": 225,
      "locktime": 0,
      "vin": [
        {
          "txid": "e7e72397f4a0dc073700c8b2831fca7b826cc5d2b32b1d9e50ba6d25cc084fdd",
          "vout": 0,
          "scriptSig": {
            "asm": "3044022079e3adcaf05bc87bc52bca6f06c1480624aa681105afec245eabe12c2223ddf10220719dcd196d579e3369cba01d0f6413917d1e8df9a1575492b233a10195ce3fbe[ALL] 02a3d82a34f6ec75e59a032ba141cc7ef82844bf7e9a9030c5f5d124ecebcf9cc7",
            "hex": "473044022079e3adcaf05bc87bc52bca6f06c1480624aa681105afec245eabe12c2223ddf10220719dcd196d579e3369cba01d0f6413917d1e8df9a1575492b233a10195ce3fbe012102a3d82a34f6ec75e59a032ba141cc7ef82844bf7e9a9030c5f5d124ecebcf9cc7"
          },
          "sequence": 4294967295
        }
      ],
      "vout": [
        {
          "value": 12.37977400,
          "n": 0,
          "scriptPubKey": {
            "asm": "OP_DUP OP_HASH160 68689be0f76ea4ead54b8910b239af4adbce49ea OP_EQUALVERIFY OP_CHECKSIG",
            "hex": "76a91468689be0f76ea4ead54b8910b239af4adbce49ea88ac",
            "reqSigs": 1,
            "type": "pubkeyhash",
            "addresses": [
              "LUk1rWxMvqZaPv1RXPLkZyH4fyYxsa4s2K"
            ]
          }
        }, 
        {
          "value": 5.00000000,
          "n": 1,
          "scriptPubKey": {
            "asm": "OP_DUP OP_HASH160 7d6cf227991485a196140a80a1515aee07a62682 OP_EQUALVERIFY OP_CHECKSIG",
            "hex": "76a9147d6cf227991485a196140a80a1515aee07a6268288ac",
            "reqSigs": 1,
            "type": "pubkeyhash",
            "addresses": [
              "LWf9EtPVs3CrhUJ7joVgfyZVoJi8dVkw3Y"
            ]
          }
        }
      ],
      "hex": "0100000001dd4f08cc256dba509e1d2bb3d2c56c827bca1f83b2c8003707dca0f49723e7e7000000006a473044022079e3adcaf05bc87bc52bca6f06c1480624aa681105afec245eabe12c2223ddf10220719dcd196d579e3369cba01d0f6413917d1e8df9a1575492b233a10195ce3fbe012102a3d82a34f6ec75e59a032ba141cc7ef82844bf7e9a9030c5f5d124ecebcf9cc7ffffffff023809ca49000000001976a91468689be0f76ea4ead54b8910b239af4adbce49ea88ac0065cd1d000000001976a9147d6cf227991485a196140a80a1515aee07a6268288ac00000000"
    }, 
    {
      "txid": "f6218c2bb23af13e685d58e6a841dfafb8c30868f73875b31f0d01bbf0656b5f",
      "hash": "f6218c2bb23af13e685d58e6a841dfafb8c30868f73875b31f0d01bbf0656b5f",
      "version": 1,
      "size": 225,
      "vsize": 225,
      "locktime": 0,
      "vin": [
        {
          "txid": "4515ba3cc5c845c2bf031aeb2940d47446dc3e2d378684be9b693659c3d1a906",
          "vout": 1,
          "scriptSig": {
            "asm": "3044022029c6c3a2cd84487f88eb7765dd481ca52f8bfb2b0e1825e24322c0849b04b87702200af9477791518fa97ca51016748db4c302a7156bafae771727603fa0d88481e8[ALL] 021b2b50f9008fbb10ee3941b4250e8ec08a60c9b97a57dbd549eb911cfb114abe",
            "hex": "473044022029c6c3a2cd84487f88eb7765dd481ca52f8bfb2b0e1825e24322c0849b04b87702200af9477791518fa97ca51016748db4c302a7156bafae771727603fa0d88481e80121021b2b50f9008fbb10ee3941b4250e8ec08a60c9b97a57dbd549eb911cfb114abe"
          },
          "sequence": 4294967295
        }
      ],
      "vout": [
        {
          "value": 2.00000000,
          "n": 0,
          "scriptPubKey": {
            "asm": "OP_DUP OP_HASH160 a47e24bc1f2b6ee225d6f31fb5b7dd4cac5568ed OP_EQUALVERIFY OP_CHECKSIG",
            "hex": "76a914a47e24bc1f2b6ee225d6f31fb5b7dd4cac5568ed88ac",
            "reqSigs": 1,
            "type": "pubkeyhash",
            "addresses": [
              "LaDiCH1ppmdEw2wsTZBjceU6ZhwYJJYQGY"
            ]
          }
        }, 
        {
          "value": 13.38922603,
          "n": 1,
          "scriptPubKey": {
            "asm": "OP_DUP OP_HASH160 44028d58811f4156ea8a66be3815b7830e0cf3f3 OP_EQUALVERIFY OP_CHECKSIG",
            "hex": "76a91444028d58811f4156ea8a66be3815b7830e0cf3f388ac",
            "reqSigs": 1,
            "type": "pubkeyhash",
            "addresses": [
              "LRRZGakTsLvRjLtAw5UVajJke3v7xSvG9f"
            ]
          }
        }
      ],
      "hex": "010000000106a9d1c35936699bbe8486372d3edc4674d44029eb1a03bfc245c8c53cba1545010000006a473044022029c6c3a2cd84487f88eb7765dd481ca52f8bfb2b0e1825e24322c0849b04b87702200af9477791518fa97ca51016748db4c302a7156bafae771727603fa0d88481e80121021b2b50f9008fbb10ee3941b4250e8ec08a60c9b97a57dbd549eb911cfb114abeffffffff0200c2eb0b000000001976a914a47e24bc1f2b6ee225d6f31fb5b7dd4cac5568ed88ac6b56ce4f000000001976a91444028d58811f4156ea8a66be3815b7830e0cf3f388ac00000000"
    }
  ],
  "time": 1517033564,
  "mediantime": 1517033028,
  "nonce": 1857753106,
  "bits": "1a047f14",
  "difficulty": 3731199.183374282,
  "chainwork": "0000000000000000000000000000000000000000000000326e3a8dcbc3fd83f8",
  "previousblockhash": "09ab0cf2edf4aadb71e9b925bec9b8e24d4fa988dd0a4dbb17720d0432136a03",
  "nextblockhash": "51d635e005f00735d4cf99cd7c070af5c35f1f376e9ab40d7dd88fe5a93de267"
}
