{
  "hash": "446c736243115bfe3f533a78e22f58a746faa8aa15cd87b16b7935dd1ded59ab",
  "confirmations": 1793,
  "strippedsize": 256,
  "size": 256,
  "weight": 1024,
  "height": 1359201,
  "version": 536870912,
  "versionHex": "20000000",
  "merkleroot": "b3ac891f89c09435714b114605377c38a29b03566133f8ff678827a0ed424d5d",
  "tx": [
    {
      "txid": "b3ac891f89c09435714b114605377c38a29b03566133f8ff678827a0ed424d5d",
      "hash": "b3ac891f89c09435714b114605377c38a29b03566133f8ff678827a0ed424d5d",
      "version": 1,
      "size": 175,
      "vsize": 175,
      "locktime": 0,
      "vin": [
        {
          "coinbase": "0361bd141d4d696e656420627920416e74506f6f6c20626a312045205a6f6aa0021ffabe6d6d4041ba4aeeca2350216c8f1b211ba987a2fcc75729e5d835ca23d0f97bc1db4404000000000000007a1400000000000001000000",
          "sequence": 4294967295
        }
      ],
      "vout": [
        {
          "value": 25.00000000,
          "n": 0,
          "scriptPubKey": {
            "asm": "OP_DUP OP_HASH160 0ff3ccc5e8be88afe24b5d634e5852d474dbdff1 OP_EQUALVERIFY OP_CHECKSIG",
            "hex": "76a9140ff3ccc5e8be88afe24b5d634e5852d474dbdff188ac",
            "reqSigs": 1,
            "type": "pubkeyhash",
            "addresses": [
              "LLgJTbzZMsRTCUF1NtvvL9SR1a4pVieW89"
            ]
          }
        }
      ],
      "hex": "01000000010000000000000000000000000000000000000000000000000000000000000000ffffffff5a0361bd141d4d696e656420627920416e74506f6f6c20626a312045205a6f6aa0021ffabe6d6d4041ba4aeeca2350216c8f1b211ba987a2fcc75729e5d835ca23d0f97bc1db4404000000000000007a1400000000000001000000ffffffff0100f90295000000001976a9140ff3ccc5e8be88afe24b5d634e5852d474dbdff188ac00000000"
    }
  ],
  "time": 1517251232,
  "mediantime": 1517250213,
  "nonce": 3173031456,
  "bits": "1a042eae",
  "difficulty": 4011378.762614286,
  "chainwork": "000000000000000000000000000000000000000000000033c8979602bfc86ac4",
  "previousblockhash": "12589f3e8a0f9e9fa57a3325651213b07f2614b656d2d575c0c392fc457cb03e",
  "nextblockhash": "034f9ab78d56e9bb01ac23d7755cfa76756aa32320efb8e9faf3dc71b004d7bc"
}
