{
  "hash": "456fba73d5d6e8996a63e7eb6cd0199894a7148da1f5a1c2c014e43a952ba8b8",
  "confirmations": 881,
  "strippedsize": 3261,
  "size": 3297,
  "weight": 13080,
  "height": 1360113,
  "version": 536870912,
  "versionHex": "20000000",
  "merkleroot": "a82cf806025bedc223d737f22e7af828002796f366805891ee4b792bcd029ea0",
  "tx": [
    {
      "txid": "91c9d83da854f033adc48368dd458aee1feb4a5c78bd54ffc3d9a8d64f532ef4",
      "hash": "d61c75cfbd8b92b2b5ecde430305afd967023dde5c66318fe8f48fb5821d6ebd",
      "version": 1,
      "size": 236,
      "vsize": 209,
      "locktime": 0,
      "vin": [
        {
          "coinbase": "03f1c014045a714f322cfabe6d6d661e4414c63a0f62eb6972a520dec0e49e4b123e9b6168ef1aaac40adabda7064000000000000000042f4c502f08220065c40f000000",
          "sequence": 4294967295
        }
      ],
      "vout": [
        {
          "value": 25.00500199,
          "n": 0,
          "scriptPubKey": {
            "asm": "OP_DUP OP_HASH160 57757ed2ecf2052ff3126c397aca7defb9ca2cec OP_EQUALVERIFY OP_CHECKSIG",
            "hex": "76a91457757ed2ecf2052ff3126c397aca7defb9ca2cec88ac",
            "reqSigs": 1,
            "type": "pubkeyhash",
            "addresses": [
              "LTCPodGk5FwcJaRzH9yKnwicxzFUbxp6tN"
            ]
          }
        }, 
        {
          "value": 0.00000000,
          "n": 1,
          "scriptPubKey": {
            "asm": "OP_RETURN aa21a9ed9a566a69ae4cb925d579dcb130a00b2b7244b1a56f1bcd413feb9824f487027a",
            "hex": "6a24aa21a9ed9a566a69ae4cb925d579dcb130a00b2b7244b1a56f1bcd413feb9824f487027a",
            "type": "nulldata"
          }
        }
      ],
      "hex": "010000000001010000000000000000000000000000000000000000000000000000000000000000ffffffff4403f1c014045a714f322cfabe6d6d661e4414c63a0f62eb6972a520dec0e49e4b123e9b6168ef1aaac40adabda7064000000000000000042f4c502f08220065c40f000000ffffffff02e79a0a95000000001976a91457757ed2ecf2052ff3126c397aca7defb9ca2cec88ac0000000000000000266a24aa21a9ed9a566a69ae4cb925d579dcb130a00b2b7244b1a56f1bcd413feb9824f487027a0120000000000000000000000000000000000000000000000000000000000000000000000000"
    }, 
    {
      "txid": "403e7f1a1114cdc1d168c3074fb76e4b7580c90ca84c8669d0ff375b84138879",
      "hash": "403e7f1a1114cdc1d168c3074fb76e4b7580c90ca84c8669d0ff375b84138879",
      "version": 2,
      "size": 520,
      "vsize": 520,
      "locktime": 1360112,
      "vin": [
        {
          "txid": "ef5aed830cfc14feb55b551e88a3372bfd6a3ce20802ff08c1c683a5eed1bbb4",
          "vout": 0,
          "scriptSig": {
            "asm": "30440220301df956e8480d2d7f566ed3169c84c13ae320c30a758fade2f059753f78f06a02203dd0280975dfa166e47233e9e71d98f72e0b857abfc6802e8118620a47474678[ALL] 031902e2b9af466df1b405dceb370b5b9d7c557841937d62f98fc2b9d0cbdf9236",
            "hex": "4730440220301df956e8480d2d7f566ed3169c84c13ae320c30a758fade2f059753f78f06a02203dd0280975dfa166e47233e9e71d98f72e0b857abfc6802e8118620a474746780121031902e2b9af466df1b405dceb370b5b9d7c557841937d62f98fc2b9d0cbdf9236"
          },
          "sequence": 4294967294
        }, 
        {
          "txid": "f03cd229b1dbedf3609cc9a4c8174af98ea53236905dae66b4485b64516befe5",
          "vout": 0,
          "scriptSig": {
            "asm": "304402207c152cb8e0879ffc5c7dc8e0e5d65a81993e5fef783d5b3e85756b3ed73101d102201607e5b24b950f8dbf99ea52e9aa25eb9695e136c901b61bd0657574f048250b[ALL] 027dcf6feb444a89238e43f4e76cd0e744401abfd34e4a91ebc8bde0d93ac5a8da",
            "hex": "47304402207c152cb8e0879ffc5c7dc8e0e5d65a81993e5fef783d5b3e85756b3ed73101d102201607e5b24b950f8dbf99ea52e9aa25eb9695e136c901b61bd0657574f048250b0121027dcf6feb444a89238e43f4e76cd0e744401abfd34e4a91ebc8bde0d93ac5a8da"
          },
          "sequence": 4294967294
        }, 
        {
          "txid": "586d14dcd96611d764141cb2e6875686d4d57aa3e8dc57d90a7b4cfbca24e17e",
          "vout": 1,
          "scriptSig": {
            "asm": "3045022100f70ef23d47122f843ba70389cc96504de3429e70a999fc620c24985cb5c8b2840220686d1b0a49bc8ec7887fc73911eeedd2f5089e6df36612530765b42c6044ae84[ALL] 029e625b7adab405710006739fed3124a421efbb5089c1411f5294936bc5807fd1",
            "hex": "483045022100f70ef23d47122f843ba70389cc96504de3429e70a999fc620c24985cb5c8b2840220686d1b0a49bc8ec7887fc73911eeedd2f5089e6df36612530765b42c6044ae840121029e625b7adab405710006739fed3124a421efbb5089c1411f5294936bc5807fd1"
          },
          "sequence": 4294967294
        }
      ],
      "vout": [
        {
          "value": 0.04508552,
          "n": 0,
          "scriptPubKey": {
            "asm": "OP_DUP OP_HASH160 ce2db6fac659549ba658c854de81e55ace9b02c8 OP_EQUALVERIFY OP_CHECKSIG",
            "hex": "76a914ce2db6fac659549ba658c854de81e55ace9b02c888ac",
            "reqSigs": 1,
            "type": "pubkeyhash",
            "addresses": [
              "Le28E3iGoQFqyjkzYzmWGJG43UJwmC2SPD"
            ]
          }
        }, 
        {
          "value": 0.00792248,
          "n": 1,
          "scriptPubKey": {
            "asm": "OP_DUP OP_HASH160 564c8c75708ee747f08f01eefab0df0ab48f9f94 OP_EQUALVERIFY OP_CHECKSIG",
            "hex": "76a914564c8c75708ee747f08f01eefab0df0ab48f9f9488ac",
            "reqSigs": 1,
            "type": "pubkeyhash",
            "addresses": [
              "LT6G5QSreoNPim8XU7tYeigSTk4MuSFXhF"
            ]
          }
        }
      ],
      "hex": "0200000003b4bbd1eea583c6c108ff0208e23c6afd2b37a3881e555bb5fe14fc0c83ed5aef000000006a4730440220301df956e8480d2d7f566ed3169c84c13ae320c30a758fade2f059753f78f06a02203dd0280975dfa166e47233e9e71d98f72e0b857abfc6802e8118620a474746780121031902e2b9af466df1b405dceb370b5b9d7c557841937d62f98fc2b9d0cbdf9236feffffffe5ef6b51645b48b466ae5d903632a58ef94a17c8a4c99c60f3eddbb129d23cf0000000006a47304402207c152cb8e0879ffc5c7dc8e0e5d65a81993e5fef783d5b3e85756b3ed73101d102201607e5b24b950f8dbf99ea52e9aa25eb9695e136c901b61bd0657574f048250b0121027dcf6feb444a89238e43f4e76cd0e744401abfd34e4a91ebc8bde0d93ac5a8dafeffffff7ee124cafb4c7b0ad957dce8a37ad5d4865687e6b21c1464d71166d9dc146d58010000006b483045022100f70ef23d47122f843ba70389cc96504de3429e70a999fc620c24985cb5c8b2840220686d1b0a49bc8ec7887fc73911eeedd2f5089e6df36612530765b42c6044ae840121029e625b7adab405710006739fed3124a421efbb5089c1411f5294936bc5807fd1feffffff0288cb4400000000001976a914ce2db6fac659549ba658c854de81e55ace9b02c888acb8160c00000000001976a914564c8c75708ee747f08f01eefab0df0ab48f9f9488acf0c01400"
    }, 
    {
      "txid": "6da7516bdb1f19d07fac9cbf9a29ee8a2176b36b6aa83ce47b0d9da2e9f4ca42",
      "hash": "6da7516bdb1f19d07fac9cbf9a29ee8a2176b36b6aa83ce47b0d9da2e9f4ca42",
      "version": 1,
      "size": 226,
      "vsize": 226,
      "locktime": 1360111,
      "vin": [
        {
          "txid": "ce6a9ca7c808c1baa1b7e9945d790477ddaf1423da57bc06f086d4b369913d37",
          "vout": 1,
          "scriptSig": {
            "asm": "3045022100f1fed64358fb4e3a2e3c24e1b1ceb65b33e5936eda1d1da4d865e6ff8721c39502204095a4d6bec7eab89fab81ae465691ab640656649120dcb5b5a73b7cd2ae4551[ALL] 03f574563de708d69136b808086003ba63df7db89241045726db6eeab2db7172ec",
            "hex": "483045022100f1fed64358fb4e3a2e3c24e1b1ceb65b33e5936eda1d1da4d865e6ff8721c39502204095a4d6bec7eab89fab81ae465691ab640656649120dcb5b5a73b7cd2ae4551012103f574563de708d69136b808086003ba63df7db89241045726db6eeab2db7172ec"
          },
          "sequence": 4294967294
        }
      ],
      "vout": [
        {
          "value": 7.22620101,
          "n": 0,
          "scriptPubKey": {
            "asm": "OP_DUP OP_HASH160 945e8124a93432eef048d3378fd7d281e3515a55 OP_EQUALVERIFY OP_CHECKSIG",
            "hex": "76a914945e8124a93432eef048d3378fd7d281e3515a5588ac",
            "reqSigs": 1,
            "type": "pubkeyhash",
            "addresses": [
              "LYkTUtXsSByQqbFfiviFXZ5jN48wQSSoUw"
            ]
          }
        }, 
        {
          "value": 0.56276587,
          "n": 1,
          "scriptPubKey": {
            "asm": "OP_DUP OP_HASH160 c331fbee255fdeab333a8226f512a8231e58aa61 OP_EQUALVERIFY OP_CHECKSIG",
            "hex": "76a914c331fbee255fdeab333a8226f512a8231e58aa6188ac",
            "reqSigs": 1,
            "type": "pubkeyhash",
            "addresses": [
              "Ld23uaNr89hj91yNU2D24ekdvZNay8yVHD"
            ]
          }
        }
      ],
      "hex": "0100000001373d9169b3d486f006bc57da2314afdd7704795d94e9b7a1bac108c8a79c6ace010000006b483045022100f1fed64358fb4e3a2e3c24e1b1ceb65b33e5936eda1d1da4d865e6ff8721c39502204095a4d6bec7eab89fab81ae465691ab640656649120dcb5b5a73b7cd2ae4551012103f574563de708d69136b808086003ba63df7db89241045726db6eeab2db7172ecfeffffff02c54e122b000000001976a914945e8124a93432eef048d3378fd7d281e3515a5588ac6bb65a03000000001976a914c331fbee255fdeab333a8226f512a8231e58aa6188acefc01400"
    }, 
    {
      "txid": "153697eb342d6209b51eb62271677242720d3f5785890f57ab65334d3190f1e1",
      "hash": "153697eb342d6209b51eb62271677242720d3f5785890f57ab65334d3190f1e1",
      "version": 1,
      "size": 223,
      "vsize": 223,
      "locktime": 0,
      "vin": [
        {
          "txid": "ca0a6763b9ab84b2f7b2733adacb6da930ea446454de33e484a980cf9848212e",
          "vout": 2135,
          "scriptSig": {
            "asm": "304402207fdf1a51421487f953bba2e0ae3149fc4040caad759f211a211f81a870a81b86022055f93150a0530ad8a1352e93d8158c041631c6274e68b1de6f228d6397b716b7[ALL] 02e85093c063c348f2627f21cd7d6e740f4c41c9c355555710bd49de4016e95151",
            "hex": "47304402207fdf1a51421487f953bba2e0ae3149fc4040caad759f211a211f81a870a81b86022055f93150a0530ad8a1352e93d8158c041631c6274e68b1de6f228d6397b716b7012102e85093c063c348f2627f21cd7d6e740f4c41c9c355555710bd49de4016e95151"
          },
          "sequence": 4294967295
        }
      ],
      "vout": [
        {
          "value": 0.00068323,
          "n": 0,
          "scriptPubKey": {
            "asm": "OP_DUP OP_HASH160 2f4fb562bf113bbb5436012bfa6f456d97e20e60 OP_EQUALVERIFY OP_CHECKSIG",
            "hex": "76a9142f4fb562bf113bbb5436012bfa6f456d97e20e6088ac",
            "reqSigs": 1,
            "type": "pubkeyhash",
            "addresses": [
              "LPY7WUXM954E1CBjgFBLFgnwK9eUw5QLey"
            ]
          }
        }, 
        {
          "value": 0.18000000,
          "n": 1,
          "scriptPubKey": {
            "asm": "OP_HASH160 4270488851548c72617fa425c05dc614b025322b OP_EQUAL",
            "hex": "a9144270488851548c72617fa425c05dc614b025322b87",
            "reqSigs": 1,
            "type": "scripthash",
            "addresses": [
              "MDxTLg231T1tyXnpjyrozujDyuNZsHAu9g"
            ]
          }
        }
      ],
      "hex": "01000000012e214898cf80a984e433de546444ea30a96dcbda3a73b2f7b284abb963670aca570800006a47304402207fdf1a51421487f953bba2e0ae3149fc4040caad759f211a211f81a870a81b86022055f93150a0530ad8a1352e93d8158c041631c6274e68b1de6f228d6397b716b7012102e85093c063c348f2627f21cd7d6e740f4c41c9c355555710bd49de4016e95151ffffffff02e30a0100000000001976a9142f4fb562bf113bbb5436012bfa6f456d97e20e6088ac80a812010000000017a9144270488851548c72617fa425c05dc614b025322b8700000000"
    }, 
    {
      "txid": "d9f4e8ec80e1161009d0d811ecfb07e5a42effaf3c008ecd0038c8eba590cae5",
      "hash": "d9f4e8ec80e1161009d0d811ecfb07e5a42effaf3c008ecd0038c8eba590cae5",
      "version": 1,
      "size": 223,
      "vsize": 223,
      "locktime": 0,
      "vin": [
        {
          "txid": "a60be1dc4d7498fd868409fb5a79283809a5fa174edfdf5e1a49861d4b13e97d",
          "vout": 1,
          "scriptSig": {
            "asm": "30440220247099ac8ab41b2a58e269b8d199986b7e7d59a1ab639794079410e00afc79ec02207b6157c593134563855527b3ab9f01255bbdc7932a30e8ae2aa7fe9f0ddeaf65[ALL] 0343a28e21062fa5065c67154142ef186cad8bc311d4bf62ae7b442c6271914edc",
            "hex": "4730440220247099ac8ab41b2a58e269b8d199986b7e7d59a1ab639794079410e00afc79ec02207b6157c593134563855527b3ab9f01255bbdc7932a30e8ae2aa7fe9f0ddeaf6501210343a28e21062fa5065c67154142ef186cad8bc311d4bf62ae7b442c6271914edc"
          },
          "sequence": 4294967295
        }
      ],
      "vout": [
        {
          "value": 0.30193000,
          "n": 0,
          "scriptPubKey": {
            "asm": "OP_HASH160 91129d0eb958c515b850b7b27eda1ca78490bafd OP_EQUAL",
            "hex": "a91491129d0eb958c515b850b7b27eda1ca78490bafd87",
            "reqSigs": 1,
            "type": "scripthash",
            "addresses": [
              "MM8EWXxrqww69TyNYUoos6CkSfFoVaGFYw"
            ]
          }
        }, 
        {
          "value": 45.74943412,
          "n": 1,
          "scriptPubKey": {
            "asm": "OP_DUP OP_HASH160 4d7d1611b06c40b8b27f16634f05380aead8c520 OP_EQUALVERIFY OP_CHECKSIG",
            "hex": "76a9144d7d1611b06c40b8b27f16634f05380aead8c52088ac",
            "reqSigs": 1,
            "type": "pubkeyhash",
            "addresses": [
              "LSHg98GAESaCd4Uxu4EpDz22asF5pBcwgy"
            ]
          }
        }
      ],
      "hex": "01000000017de9134b1d86491a5edfdf4e17faa5093828795afb098486fd98744ddce10ba6010000006a4730440220247099ac8ab41b2a58e269b8d199986b7e7d59a1ab639794079410e00afc79ec02207b6157c593134563855527b3ab9f01255bbdc7932a30e8ae2aa7fe9f0ddeaf6501210343a28e21062fa5065c67154142ef186cad8bc311d4bf62ae7b442c6271914edcffffffff0268b5cc010000000017a91491129d0eb958c515b850b7b27eda1ca78490bafd87b418b010010000001976a9144d7d1611b06c40b8b27f16634f05380aead8c52088ac00000000"
    }, 
    {
      "txid": "b803f77a86841ff317feaabda88cfcc32d8a4427f54b5ada46afd56caf09d502",
      "hash": "b803f77a86841ff317feaabda88cfcc32d8a4427f54b5ada46afd56caf09d502",
      "version": 1,
      "size": 225,
      "vsize": 225,
      "locktime": 0,
      "vin": [
        {
          "txid": "a87799de45040bada28a7f70e0eb782e13541c65621362525517053d9318f327",
          "vout": 0,
          "scriptSig": {
            "asm": "304402201d3e730a9ed72aaf4789fb7641a572468c0586e2abc7d81a213cf1026199552102206940313428c60d9d114f586ca41d571b7737665afa07041e4613dd677f4ac44b[ALL] 0394b69325f3be77c44880dd51566fe2451c03a0c4b2070c8eddf37567166dc11d",
            "hex": "47304402201d3e730a9ed72aaf4789fb7641a572468c0586e2abc7d81a213cf1026199552102206940313428c60d9d114f586ca41d571b7737665afa07041e4613dd677f4ac44b01210394b69325f3be77c44880dd51566fe2451c03a0c4b2070c8eddf37567166dc11d"
          },
          "sequence": 4294967295
        }
      ],
      "vout": [
        {
          "value": 0.00138814,
          "n": 0,
          "scriptPubKey": {
            "asm": "OP_DUP OP_HASH160 63b1025fbb952d6c792a622e4e788be304ca73a0 OP_EQUALVERIFY OP_CHECKSIG",
            "hex": "76a91463b1025fbb952d6c792a622e4e788be304ca73a088ac",
            "reqSigs": 1,
            "type": "pubkeyhash",
            "addresses": [
              "LUK5D2MUSdeZeupmzqzwm55V2vzgnDSnKs"
            ]
          }
        }, 
        {
          "value": 0.10050000,
          "n": 1,
          "scriptPubKey": {
            "asm": "OP_DUP OP_HASH160 aba4ec343263dfb2e54067b7e7bc8a66969e4ca7 OP_EQUALVERIFY OP_CHECKSIG",
            "hex": "76a914aba4ec343263dfb2e54067b7e7bc8a66969e4ca788ac",
            "reqSigs": 1,
            "type": "pubkeyhash",
            "addresses": [
              "LasXP3Wff75NPZuvFWrcERrfEC1xRuFKvc"
            ]
          }
        }
      ],
      "hex": "010000000127f318933d05175552621362651c54132e78ebe0707f8aa2ad0b0445de9977a8000000006a47304402201d3e730a9ed72aaf4789fb7641a572468c0586e2abc7d81a213cf1026199552102206940313428c60d9d114f586ca41d571b7737665afa07041e4613dd677f4ac44b01210394b69325f3be77c44880dd51566fe2451c03a0c4b2070c8eddf37567166dc11dffffffff023e1e0200000000001976a91463b1025fbb952d6c792a622e4e788be304ca73a088acd0599900000000001976a914aba4ec343263dfb2e54067b7e7bc8a66969e4ca788ac00000000"
    }, 
    {
      "txid": "c532f2955af4964681e53f365d09ef6a416895e2cdd9f43f5c580626947151d5",
      "hash": "c532f2955af4964681e53f365d09ef6a416895e2cdd9f43f5c580626947151d5",
      "version": 1,
      "size": 226,
      "vsize": 226,
      "locktime": 0,
      "vin": [
        {
          "txid": "d3631a9f66bf96d6257f6444e13ceaca4816e168392fb498c093703c593d1ae0",
          "vout": 0,
          "scriptSig": {
            "asm": "3045022100ff8265115d06ee5be1b4539ce7bd1899248791157234465e5feb4df6e52f7e8802204f8a2df770001d24b2114374526b74899e811664451deb1afdfe6d80b43157b5[ALL] 036824d7dda45f7fd5e6fc43a232d4838883bb0541a79a2826fd00e9065c3c932e",
            "hex": "483045022100ff8265115d06ee5be1b4539ce7bd1899248791157234465e5feb4df6e52f7e8802204f8a2df770001d24b2114374526b74899e811664451deb1afdfe6d80b43157b50121036824d7dda45f7fd5e6fc43a232d4838883bb0541a79a2826fd00e9065c3c932e"
          },
          "sequence": 4294967295
        }
      ],
      "vout": [
        {
          "value": 46.54095476,
          "n": 0,
          "scriptPubKey": {
            "asm": "OP_DUP OP_HASH160 f59a16682aad45bb486b6a3bf0de91ad3273bbd1 OP_EQUALVERIFY OP_CHECKSIG",
            "hex": "76a914f59a16682aad45bb486b6a3bf0de91ad3273bbd188ac",
            "reqSigs": 1,
            "type": "pubkeyhash",
            "addresses": [
              "LhcaQQBe5gycXMuNUSr6PFNktYduAuaDEf"
            ]
          }
        }, 
        {
          "value": 1.00000000,
          "n": 1,
          "scriptPubKey": {
            "asm": "OP_DUP OP_HASH160 32eec1fa783b664436cffe4d09cebd7ec88e24f2 OP_EQUALVERIFY OP_CHECKSIG",
            "hex": "76a91432eec1fa783b664436cffe4d09cebd7ec88e24f288ac",
            "reqSigs": 1,
            "type": "pubkeyhash",
            "addresses": [
              "LPsG4yvkNzbv6s85jhwAF2T5bcs4KSDqJf"
            ]
          }
        }
      ],
      "hex": "0100000001e01a3d593c7093c098b42f3968e11648caea3ce144647f25d696bf669f1a63d3000000006b483045022100ff8265115d06ee5be1b4539ce7bd1899248791157234465e5feb4df6e52f7e8802204f8a2df770001d24b2114374526b74899e811664451deb1afdfe6d80b43157b50121036824d7dda45f7fd5e6fc43a232d4838883bb0541a79a2826fd00e9065c3c932effffffff0274dc6715010000001976a914f59a16682aad45bb486b6a3bf0de91ad3273bbd188ac00e1f505000000001976a91432eec1fa783b664436cffe4d09cebd7ec88e24f288ac00000000"
    }, 
    {
      "txid": "3e1a9f1b45abbb9097bb0fa4ea5a1ff729cf9b53225c79e8b70e57e8369debe2",
      "hash": "3e1a9f1b45abbb9097bb0fa4ea5a1ff729cf9b53225c79e8b70e57e8369debe2",
      "version": 1,
      "size": 226,
      "vsize": 226,
      "locktime": 0,
      "vin": [
        {
          "txid": "e409ab0c82bcceeee2f1639c90b1cae62f8c0fbb8c02211930a6401d2755530c",
          "vout": 1,
          "scriptSig": {
            "asm": "30450221009cf29d2f457ef4b3f898b98992e9c5498ba1eb3f8817ccf37fa752532e83b6f80220325e9dd3451b336c11828d974d608a56060e89b463acb0fe98c5aaa7a961cac7[ALL] 030bf9e361cf13b425efd8fdfde3547fac146bbc4bbcf4980459c98ee5b6fe3248",
            "hex": "4830450221009cf29d2f457ef4b3f898b98992e9c5498ba1eb3f8817ccf37fa752532e83b6f80220325e9dd3451b336c11828d974d608a56060e89b463acb0fe98c5aaa7a961cac70121030bf9e361cf13b425efd8fdfde3547fac146bbc4bbcf4980459c98ee5b6fe3248"
          },
          "sequence": 4294967295
        }
      ],
      "vout": [
        {
          "value": 0.00372076,
          "n": 0,
          "scriptPubKey": {
            "asm": "OP_DUP OP_HASH160 d8e26a4410e8027e04b4ceff7e4010bf11fb9315 OP_EQUALVERIFY OP_CHECKSIG",
            "hex": "76a914d8e26a4410e8027e04b4ceff7e4010bf11fb931588ac",
            "reqSigs": 1,
            "type": "pubkeyhash",
            "addresses": [
              "LezjTFBnY6aD337pk2EBPsPH51PSJKfwy3"
            ]
          }
        }, 
        {
          "value": 0.46968938,
          "n": 1,
          "scriptPubKey": {
            "asm": "OP_DUP OP_HASH160 8c6183aa5d7a145c626833597c0dc1f3d5b0a37a OP_EQUALVERIFY OP_CHECKSIG",
            "hex": "76a9148c6183aa5d7a145c626833597c0dc1f3d5b0a37a88ac",
            "reqSigs": 1,
            "type": "pubkeyhash",
            "addresses": [
              "LY2DgUxhBqz55NsATowswYDmLoEQUFFJZJ"
            ]
          }
        }
      ],
      "hex": "01000000010c5355271d40a6301921028cbb0f8c2fe6cab1909c63f1e2eecebc820cab09e4010000006b4830450221009cf29d2f457ef4b3f898b98992e9c5498ba1eb3f8817ccf37fa752532e83b6f80220325e9dd3451b336c11828d974d608a56060e89b463acb0fe98c5aaa7a961cac70121030bf9e361cf13b425efd8fdfde3547fac146bbc4bbcf4980459c98ee5b6fe3248ffffffff026cad0500000000001976a914d8e26a4410e8027e04b4ceff7e4010bf11fb931588ac6ab0cc02000000001976a9148c6183aa5d7a145c626833597c0dc1f3d5b0a37a88ac00000000"
    }, 
    {
      "txid": "403ba6089560bc14b17857a5d37daac953d28e59c7cfdbef19a915f3e9c4046d",
      "hash": "403ba6089560bc14b17857a5d37daac953d28e59c7cfdbef19a915f3e9c4046d",
      "version": 1,
      "size": 1111,
      "vsize": 1111,
      "locktime": 0,
      "vin": [
        {
          "txid": "8a6a14f2136cc8960105b68cb499caf426da3e36777c8331a67ecba897d4d6e5",
          "vout": 0,
          "scriptSig": {
            "asm": "3045022100f601cab221e32cea0883ca40a05a328531282a29271a2f4fabb057ab91641ae8022009a1c76a46798238c91284b5242b2a3fd748dd9abee25d0db5121d6bc68ddfbf[ALL] 036f7ee53414fe28b2d54d05f31244e4ebb336e87da64b870d453488f0054f8814",
            "hex": "483045022100f601cab221e32cea0883ca40a05a328531282a29271a2f4fabb057ab91641ae8022009a1c76a46798238c91284b5242b2a3fd748dd9abee25d0db5121d6bc68ddfbf0121036f7ee53414fe28b2d54d05f31244e4ebb336e87da64b870d453488f0054f8814"
          },
          "sequence": 4294967295
        }, 
        {
          "txid": "b6b58ec47147bd243becd4bb136b4a5e60bae61b5bf549c21c9e1473c9d24491",
          "vout": 1,
          "scriptSig": {
            "asm": "3045022100fb184676e3ab8c5e0f244e824cc8a0e549d88b6cf2a1b6e3ca6157634a4d9f6602207e411630a4442ec620cee14d979072bbb618f8e4adfc6d69400cebdfb3e120e9[ALL] 038c173f12d1f484e87c9da42a29c7d3d92dce15c7af9d297816b5c47fb1c5483e",
            "hex": "483045022100fb184676e3ab8c5e0f244e824cc8a0e549d88b6cf2a1b6e3ca6157634a4d9f6602207e411630a4442ec620cee14d979072bbb618f8e4adfc6d69400cebdfb3e120e90121038c173f12d1f484e87c9da42a29c7d3d92dce15c7af9d297816b5c47fb1c5483e"
          },
          "sequence": 4294967295
        }, 
        {
          "txid": "5fcd64817ff639e03f16c60216d7738158870af52b2be36f58eb83a6a5b11b64",
          "vout": 0,
          "scriptSig": {
            "asm": "3045022100880a5367fcd656d470b6c77bd6923a18f95e5560bf19e374a6115c697c06affa022059740da2beca374d489e030f98402fc42691d4f7bf859908ac4f2ef65b079d26[ALL] 0282984fa5952480a5d00945805212fcda6ff4f94eb4782e5d756c56278b903d36",
            "hex": "483045022100880a5367fcd656d470b6c77bd6923a18f95e5560bf19e374a6115c697c06affa022059740da2beca374d489e030f98402fc42691d4f7bf859908ac4f2ef65b079d2601210282984fa5952480a5d00945805212fcda6ff4f94eb4782e5d756c56278b903d36"
          },
          "sequence": 4294967295
        }, 
        {
          "txid": "67969fee6ad3f1176a039aff33124b3e30f65196f0535f42e9e20f3dc9b56b3c",
          "vout": 0,
          "scriptSig": {
            "asm": "304402204f6596d4df2170574cda1480681c18f44e1d226dc54ae3555d486bdf6ca3add1022056bade2fdb7af6ccd019610f824e7ee4be08442fa0cec2b8ab2f623d677091e4[ALL] 0377414af116270fff90a9130e827db253d8d117239fd5ba2a9dd411b37b9d15e4",
            "hex": "47304402204f6596d4df2170574cda1480681c18f44e1d226dc54ae3555d486bdf6ca3add1022056bade2fdb7af6ccd019610f824e7ee4be08442fa0cec2b8ab2f623d677091e401210377414af116270fff90a9130e827db253d8d117239fd5ba2a9dd411b37b9d15e4"
          },
          "sequence": 4294967295
        }, 
        {
          "txid": "4b502b1cabc5bf5a1bee5aaac2b19e1999ce489e30b6bd86d03fa14c67a09275",
          "vout": 10,
          "scriptSig": {
            "asm": "30450221008c89dc2137809d6d9e4496b07df642b2521435624478b5535caaace45bcee7b7022032b6c1d5a44f61ce748b9e17f14c57335ca30ddbc89de44f3692b54b51f91961[ALL] 02b43fd37dd7ef6b0422c0789ef27d2ec30b2778fbefc7b325c49d351ca3646c4a",
            "hex": "4830450221008c89dc2137809d6d9e4496b07df642b2521435624478b5535caaace45bcee7b7022032b6c1d5a44f61ce748b9e17f14c57335ca30ddbc89de44f3692b54b51f91961012102b43fd37dd7ef6b0422c0789ef27d2ec30b2778fbefc7b325c49d351ca3646c4a"
          },
          "sequence": 4294967295
        }, 
        {
          "txid": "b46ca29fb8c9f6a76e45397be0c982b20c3ed34c72ec011c389b6ec2983d6e4e",
          "vout": 0,
          "scriptSig": {
            "asm": "3044022064a1eae66ce32982c19ddcc062a41f3ec4d420e3f3794bb68e1d1273a129fb7d0220054a872f857c5fee0c2b8d21f50505ec33c87b026fccb754468084500fe3a6cf[ALL] 03743a8bce68e332fd67424a3d0be2462b218bcdd75f4bbb8d4a41645d1447cff1",
            "hex": "473044022064a1eae66ce32982c19ddcc062a41f3ec4d420e3f3794bb68e1d1273a129fb7d0220054a872f857c5fee0c2b8d21f50505ec33c87b026fccb754468084500fe3a6cf012103743a8bce68e332fd67424a3d0be2462b218bcdd75f4bbb8d4a41645d1447cff1"
          },
          "sequence": 4294967295
        }, 
        {
          "txid": "746ee1c34335338b77924cacd79b80537f86c4313f606610f8f6e8ab7b22cc8d",
          "vout": 1,
          "scriptSig": {
            "asm": "30440220314f9c7b4f18696985894ea36fc334f6e453fa40266446cd8b3644748245251e022061552635ce9b44bb8e639342583670e6c5cd33622d24525ef26e08b1fc3c0649[ALL] 027b976e098463a727fb3372eda828030ff2b1a1e0a609439c4b4e875f2c0c8745",
            "hex": "4730440220314f9c7b4f18696985894ea36fc334f6e453fa40266446cd8b3644748245251e022061552635ce9b44bb8e639342583670e6c5cd33622d24525ef26e08b1fc3c06490121027b976e098463a727fb3372eda828030ff2b1a1e0a609439c4b4e875f2c0c8745"
          },
          "sequence": 4294967295
        }
      ],
      "vout": [
        {
          "value": 0.05182459,
          "n": 0,
          "scriptPubKey": {
            "asm": "OP_DUP OP_HASH160 64e1dd61337865b1059ce1618e02b3cf2bcc0a72 OP_EQUALVERIFY OP_CHECKSIG",
            "hex": "76a91464e1dd61337865b1059ce1618e02b3cf2bcc0a7288ac",
            "reqSigs": 1,
            "type": "pubkeyhash",
            "addresses": [
              "LURNQkk7C4G2UvEGrQKH8Eo2ViGGfGjTZe"
            ]
          }
        }, 
        {
          "value": 61.88947220,
          "n": 1,
          "scriptPubKey": {
            "asm": "OP_DUP OP_HASH160 4aab016712cd472e766b517ae22949fd7786551b OP_EQUALVERIFY OP_CHECKSIG",
            "hex": "76a9144aab016712cd472e766b517ae22949fd7786551b88ac",
            "reqSigs": 1,
            "type": "pubkeyhash",
            "addresses": [
              "LS2m85SnR4iPrkmSn6Ur8p8hmVxwWN8j1x"
            ]
          }
        }
      ],
      "hex": "0100000007e5d6d497a8cb7ea631837c77363eda26f4ca99b48cb6050196c86c13f2146a8a000000006b483045022100f601cab221e32cea0883ca40a05a328531282a29271a2f4fabb057ab91641ae8022009a1c76a46798238c91284b5242b2a3fd748dd9abee25d0db5121d6bc68ddfbf0121036f7ee53414fe28b2d54d05f31244e4ebb336e87da64b870d453488f0054f8814ffffffff9144d2c973149e1cc249f55b1be6ba605e4a6b13bbd4ec3b24bd4771c48eb5b6010000006b483045022100fb184676e3ab8c5e0f244e824cc8a0e549d88b6cf2a1b6e3ca6157634a4d9f6602207e411630a4442ec620cee14d979072bbb618f8e4adfc6d69400cebdfb3e120e90121038c173f12d1f484e87c9da42a29c7d3d92dce15c7af9d297816b5c47fb1c5483effffffff641bb1a5a683eb586fe32b2bf50a87588173d71602c6163fe039f67f8164cd5f000000006b483045022100880a5367fcd656d470b6c77bd6923a18f95e5560bf19e374a6115c697c06affa022059740da2beca374d489e030f98402fc42691d4f7bf859908ac4f2ef65b079d2601210282984fa5952480a5d00945805212fcda6ff4f94eb4782e5d756c56278b903d36ffffffff3c6bb5c93d0fe2e9425f53f09651f6303e4b1233ff9a036a17f1d36aee9f9667000000006a47304402204f6596d4df2170574cda1480681c18f44e1d226dc54ae3555d486bdf6ca3add1022056bade2fdb7af6ccd019610f824e7ee4be08442fa0cec2b8ab2f623d677091e401210377414af116270fff90a9130e827db253d8d117239fd5ba2a9dd411b37b9d15e4ffffffff7592a0674ca13fd086bdb6309e48ce99199eb1c2aa5aee1b5abfc5ab1c2b504b0a0000006b4830450221008c89dc2137809d6d9e4496b07df642b2521435624478b5535caaace45bcee7b7022032b6c1d5a44f61ce748b9e17f14c57335ca30ddbc89de44f3692b54b51f91961012102b43fd37dd7ef6b0422c0789ef27d2ec30b2778fbefc7b325c49d351ca3646c4affffffff4e6e3d98c26e9b381c01ec724cd33e0cb282c9e07b39456ea7f6c9b89fa26cb4000000006a473044022064a1eae66ce32982c19ddcc062a41f3ec4d420e3f3794bb68e1d1273a129fb7d0220054a872f857c5fee0c2b8d21f50505ec33c87b026fccb754468084500fe3a6cf012103743a8bce68e332fd67424a3d0be2462b218bcdd75f4bbb8d4a41645d1447cff1ffffffff8dcc227babe8f6f81066603f31c4867f53809bd7ac4c92778b333543c3e16e74010000006a4730440220314f9c7b4f18696985894ea36fc334f6e453fa40266446cd8b3644748245251e022061552635ce9b44bb8e639342583670e6c5cd33622d24525ef26e08b1fc3c06490121027b976e098463a727fb3372eda828030ff2b1a1e0a609439c4b4e875f2c0c8745ffffffff02fb134f00000000001976a91464e1dd61337865b1059ce1618e02b3cf2bcc0a7288ac14d7e370010000001976a9144aab016712cd472e766b517ae22949fd7786551b88ac00000000"
    }
  ],
  "time": 1517375282,
  "mediantime": 1517374716,
  "nonce": 305212105,
  "bits": "1a042eae",
  "difficulty": 4011378.762614286,
  "chainwork": "000000000000000000000000000000000000000000000034a2a6d8e983c449e4",
  "previousblockhash": "e9b88c3e5c5cf89132b30869f791ca2e241d4ebb627f53cbbc0cb2e33dcd707c",
  "nextblockhash": "e5c8adb3574226463ae5786f570b169b1e86ff0ac09c537767c33c2062c661e3"
}
