{
  "hash": "458ec9c240f7621ca61c7caa9380ef0056c1c883b9c7cf5c53faa964ffd46edc",
  "confirmations": 3361,
  "strippedsize": 256,
  "size": 256,
  "weight": 1024,
  "height": 1357634,
  "version": 536870912,
  "versionHex": "20000000",
  "merkleroot": "7e44f79812a431b313b55ab73052f81846de0a478ceb8891404c389ad8fbce88",
  "tx": [
    {
      "txid": "7e44f79812a431b313b55ab73052f81846de0a478ceb8891404c389ad8fbce88",
      "hash": "7e44f79812a431b313b55ab73052f81846de0a478ceb8891404c389ad8fbce88",
      "version": 1,
      "size": 175,
      "vsize": 175,
      "locktime": 0,
      "vin": [
        {
          "coinbase": "0342b7141d4d696e656420627920416e74506f6f6c20626a302042205a6c016a046afabe6d6d390e4b1c34ff3ec1480d7c1881137ea5cdcf56307513f627922193b4bbc3b6b90400000000000000611500000000000001000000",
          "sequence": 4294967295
        }
      ],
      "vout": [
        {
          "value": 25.00000000,
          "n": 0,
          "scriptPubKey": {
            "asm": "OP_DUP OP_HASH160 0ff3ccc5e8be88afe24b5d634e5852d474dbdff1 OP_EQUALVERIFY OP_CHECKSIG",
            "hex": "76a9140ff3ccc5e8be88afe24b5d634e5852d474dbdff188ac",
            "reqSigs": 1,
            "type": "pubkeyhash",
            "addresses": [
              "LLgJTbzZMsRTCUF1NtvvL9SR1a4pVieW89"
            ]
          }
        }
      ],
      "hex": "01000000010000000000000000000000000000000000000000000000000000000000000000ffffffff5a0342b7141d4d696e656420627920416e74506f6f6c20626a302042205a6c016a046afabe6d6d390e4b1c34ff3ec1480d7c1881137ea5cdcf56307513f627922193b4bbc3b6b90400000000000000611500000000000001000000ffffffff0100f90295000000001976a9140ff3ccc5e8be88afe24b5d634e5852d474dbdff188ac00000000"
    }
  ],
  "time": 1517027691,
  "mediantime": 1517027200,
  "nonce": 2369074691,
  "bits": "1a047f14",
  "difficulty": 3731199.183374282,
  "chainwork": "000000000000000000000000000000000000000000000032651c3dceef4e63ce",
  "previousblockhash": "a978da677b1a7639d6de709edb44de45b5609a9a66408e827bff7bfd97749d23",
  "nextblockhash": "79b94748a6a5f304c8d11fcf3fe3b6376dfc74d467d4e85f3ca86cc1818375ba"
}
