{
  "hash": "4595b99e39614d5cc283af75894abfd1a1bf24ba0642592a041e42e7023962ae",
  "confirmations": 3049,
  "strippedsize": 4168,
  "size": 5737,
  "weight": 18241,
  "height": 1357946,
  "version": 536870912,
  "versionHex": "20000000",
  "merkleroot": "e778259fc821e984f1ca653af1078ca669450abe684abb51b96aedd1e244fdd6",
  "tx": [
    {
      "txid": "32d9a0ed48455c49ed1299d8ea8b4b81d6eb43fd0b062634021f2034e8e88995",
      "hash": "264d17f670adb2e4718eb626833aba56fae0eefae65dd33548f06358ab58ebd4",
      "version": 1,
      "size": 277,
      "vsize": 250,
      "locktime": 954702035,
      "vin": [
        {
          "coinbase": "037ab8142cfabe6d6dfb3021b2aa0c97b963a2f9a9832ae9e5f1e9f60c39f7bb68a1e27c622588fe5f08000000f09f909f144d696e65642062792079616e677a693132333435000000000000000000000000000000000000000000000000000000000000",
          "sequence": 16
        }
      ],
      "vout": [
        {
          "value": 25.00617900,
          "n": 0,
          "scriptPubKey": {
            "asm": "OP_DUP OP_HASH160 aa3750aa18b8a0f3f0590731e1fab934856680cf OP_EQUALVERIFY OP_CHECKSIG",
            "hex": "76a914aa3750aa18b8a0f3f0590731e1fab934856680cf88ac",
            "reqSigs": 1,
            "type": "pubkeyhash",
            "addresses": [
              "LajyQBeZaBA1NkZDeY8YT5RYYVRkXMvb2T"
            ]
          }
        }, 
        {
          "value": 0.00000000,
          "n": 1,
          "scriptPubKey": {
            "asm": "OP_RETURN aa21a9edd66dd9890f9bc7f66b24623cedd28d8bd6f6d94e26f315d2c502754f437ccdee 0000000000000000",
            "hex": "6a24aa21a9edd66dd9890f9bc7f66b24623cedd28d8bd6f6d94e26f315d2c502754f437ccdee080000000000000000",
            "type": "nulldata"
          }
        }
      ],
      "hex": "010000000001010000000000000000000000000000000000000000000000000000000000000000ffffffff64037ab8142cfabe6d6dfb3021b2aa0c97b963a2f9a9832ae9e5f1e9f60c39f7bb68a1e27c622588fe5f08000000f09f909f144d696e65642062792079616e677a6931323334350000000000000000000000000000000000000000000000000000000000001000000002ac660c95000000001976a914aa3750aa18b8a0f3f0590731e1fab934856680cf88ac00000000000000002f6a24aa21a9edd66dd9890f9bc7f66b24623cedd28d8bd6f6d94e26f315d2c502754f437ccdee08000000000000000001200000000000000000000000000000000000000000000000000000000000000000d398e738"
    }, 
    {
      "txid": "3b32ada5668ec6a667c8a53471a637a1a4b8ab88368c23c3072c8874d8d64e76",
      "hash": "3b32ada5668ec6a667c8a53471a637a1a4b8ab88368c23c3072c8874d8d64e76",
      "version": 1,
      "size": 225,
      "vsize": 225,
      "locktime": 1357944,
      "vin": [
        {
          "txid": "987b03c12c8abcb1ac0c049365ef5946a6836b878b4bdb6231d25048c7e6aef0",
          "vout": 3,
          "scriptSig": {
            "asm": "3044022053390c4a2f2b03f4efb1f06285ffe5943dc71ac49a5a532b3c281583c48b2c2e0220148f8c3d8c7a62754067d45f450439c086ce71ff01e77be6152cc08f829a3308[ALL] 0384ad1241e2cd928e990da34f3bed13f33e1d41efaf03816483da2de7ed3ec81b",
            "hex": "473044022053390c4a2f2b03f4efb1f06285ffe5943dc71ac49a5a532b3c281583c48b2c2e0220148f8c3d8c7a62754067d45f450439c086ce71ff01e77be6152cc08f829a330801210384ad1241e2cd928e990da34f3bed13f33e1d41efaf03816483da2de7ed3ec81b"
          },
          "sequence": 4294967294
        }
      ],
      "vout": [
        {
          "value": 0.52724138,
          "n": 0,
          "scriptPubKey": {
            "asm": "OP_DUP OP_HASH160 094f8e33c591313c688860d5f9acb72343938699 OP_EQUALVERIFY OP_CHECKSIG",
            "hex": "76a914094f8e33c591313c688860d5f9acb7234393869988ac",
            "reqSigs": 1,
            "type": "pubkeyhash",
            "addresses": [
              "LL5BeYui1F1Vcx7P8qLGymSCUZvKauY49m"
            ]
          }
        }, 
        {
          "value": 1.39800881,
          "n": 1,
          "scriptPubKey": {
            "asm": "OP_DUP OP_HASH160 930f281d89eaa5073b05d7d7fa94d630e703671a OP_EQUALVERIFY OP_CHECKSIG",
            "hex": "76a914930f281d89eaa5073b05d7d7fa94d630e703671a88ac",
            "reqSigs": 1,
            "type": "pubkeyhash",
            "addresses": [
              "LYdXkX1BogB1gmtxMCsbvmwNJAMiMi16mx"
            ]
          }
        }
      ],
      "hex": "0100000001f0aee6c74850d23162db4b8b876b83a64659ef6593040cacb1bc8a2cc1037b98030000006a473044022053390c4a2f2b03f4efb1f06285ffe5943dc71ac49a5a532b3c281583c48b2c2e0220148f8c3d8c7a62754067d45f450439c086ce71ff01e77be6152cc08f829a330801210384ad1241e2cd928e990da34f3bed13f33e1d41efaf03816483da2de7ed3ec81bfeffffff02aa812403000000001976a914094f8e33c591313c688860d5f9acb7234393869988ac31315508000000001976a914930f281d89eaa5073b05d7d7fa94d630e703671a88ac78b81400"
    }, 
    {
      "txid": "51cfff44c667e8090f9f264343a0618e8e08ed9cba22d6fbd628976fc2f24b88",
      "hash": "db40936d21e4aa0e91c7c73a3e3b77e7ab9b1b5b61c67580c633817ab68b4296",
      "version": 1,
      "size": 2141,
      "vsize": 992,
      "locktime": 0,
      "vin": [
        {
          "txid": "31dc6584432c8e6102d28c4773963f4553d38639301c56ff8f97f3269d3ed803",
          "vout": 1,
          "scriptSig": {
            "asm": "0020103990350359a627d6440720cfb1d567bf329c6f45c11a7aaecc8b075ba30294",
            "hex": "220020103990350359a627d6440720cfb1d567bf329c6f45c11a7aaecc8b075ba30294"
          },
          "txinwitness": [
            "", 
            "304402205254a635093a017351184d7d6f1a655557d10347f1ee7e587cb32b2ad64b54f802204cd9e88492231819e4377a80ca47f850579566f13ff83c090c2c34890c79470301", 
            "3044022032d6f9961cc5d2872a87f88b8ff5b61a01ba362bddd4381c0881cef8a0011e1b02201cba3866d3ed2f15cb9c3d3bf2fb4e0977dcdded8507ba074004ae4bdda4dac801", 
            "522102f7741641e775b66788863a969bea300ca8d68ff95be010d28538f6e64dad04c8210220aa9083ab272dc7a9ca09df5740e2f93d0b70274071f2faf47d0d5c2089579952ae"
          ],
          "sequence": 4294967295
        }, 
        {
          "txid": "23a54ba1dd8bf57b44b39c79c111ad14971f4dee30cb98e67ee1ce72969494c8",
          "vout": 1,
          "scriptSig": {
            "asm": "00206035b1964c822b1875e551e9cfb3111b7aef22fe61aa5fc0863519eb79981257",
            "hex": "2200206035b1964c822b1875e551e9cfb3111b7aef22fe61aa5fc0863519eb79981257"
          },
          "txinwitness": [
            "", 
            "30450221009f006b518e18652dea288e4e775c88cdb4fe19f4ea2619ed05c8da59326e10eb022004fd9997a9cc6fb9c88f53cbb88a5d330ee6289c370599a2d320e91ac9de0d3701", 
            "304402200ca45a1283fd9712eab5d061ec48d721ebd7dee9ecff190704e176c084e86016022022b38e86d5ecf7dc3399ddf1280b84c7cae65f282701977d9222f3940e6884eb01", 
            "5221023db1e1c8bce098f00a78bdbd0386e8f818bbe52d0bc35a15e68c3395c98692ae210220aa9083ab272dc7a9ca09df5740e2f93d0b70274071f2faf47d0d5c2089579952ae"
          ],
          "sequence": 4294967295
        }, 
        {
          "txid": "10722cb2c0ea3e4f4fc66ef84692ea09a70b9cb1787f9c3e0eb46a89936d0732",
          "vout": 1,
          "scriptSig": {
            "asm": "00206035b1964c822b1875e551e9cfb3111b7aef22fe61aa5fc0863519eb79981257",
            "hex": "2200206035b1964c822b1875e551e9cfb3111b7aef22fe61aa5fc0863519eb79981257"
          },
          "txinwitness": [
            "", 
            "304402205834a5f1f177d4727957e8d074589f1d923f890f77d6d13bbf5b31bc3fd6904302206c1fa8e857d02f476da66462bf5aa4985e9d50bff3f5f2dbefc817c7fadea92401", 
            "3045022100b7df2c9eafe877b8711829fd9f77eb194c422c2a3b39a5cae88aa7a10d688e53022012b192f606a5a2fc4273f6350d90a3fc7db19b16f96a7d17994916d9f77b9a5b01", 
            "5221023db1e1c8bce098f00a78bdbd0386e8f818bbe52d0bc35a15e68c3395c98692ae210220aa9083ab272dc7a9ca09df5740e2f93d0b70274071f2faf47d0d5c2089579952ae"
          ],
          "sequence": 4294967295
        }, 
        {
          "txid": "9fdbe0c5dae3979e060bc189d2a6baf3e6e6ac65c5304392c0886b1a1aee821e",
          "vout": 1,
          "scriptSig": {
            "asm": "00205a7e1aee0e75c449cc92503f69cd7f14e12c92ed862f8a482517af6df5c270e2",
            "hex": "2200205a7e1aee0e75c449cc92503f69cd7f14e12c92ed862f8a482517af6df5c270e2"
          },
          "txinwitness": [
            "", 
            "304502210099998e81920f4e2b2d55c75c63bd78844b6d3066420f1ab29f19a2c382e20ee0022050b9ecc4af0b28938b5ee2e697d985c9061b8df8d7a9914ade59546e02b03ba001", 
            "3044022100b763c9db918eed6c61994d6ff849ba690a71dc10530b5dbf72f3bc7597f70555021f0be98a8008deac5b8f5d72e45524fced569913fd824cd3d3c17e07c0dba5a201", 
            "5221036cc00af759b213a6f24be06f5775aa1d22350eb1e177341ddcf5e8d35c93b0d6210220aa9083ab272dc7a9ca09df5740e2f93d0b70274071f2faf47d0d5c2089579952ae"
          ],
          "sequence": 4294967295
        }, 
        {
          "txid": "b8c19d9bb3cebc66092e04fb24975febe0bf0e8ed559d736d2689bcb4b9436f1",
          "vout": 1,
          "scriptSig": {
            "asm": "00205a7e1aee0e75c449cc92503f69cd7f14e12c92ed862f8a482517af6df5c270e2",
            "hex": "2200205a7e1aee0e75c449cc92503f69cd7f14e12c92ed862f8a482517af6df5c270e2"
          },
          "txinwitness": [
            "", 
            "304402204c49ef2af7b2b12246ce083ffdbe3365cf29b38762c46ffd19930172040717fe0220554944f9d556c5dd531fc8a8da1feacb77204c51f01e28e1156dc264b22c14de01", 
            "30440220239db261381a3a82bbb02605a5a28540f0e39214f4ef8e2b2f52df8deda8223f022005f34234c12595561a66bb205e84a7141bf27e589f2a0a71100ee5949a60c28601", 
            "5221036cc00af759b213a6f24be06f5775aa1d22350eb1e177341ddcf5e8d35c93b0d6210220aa9083ab272dc7a9ca09df5740e2f93d0b70274071f2faf47d0d5c2089579952ae"
          ],
          "sequence": 4294967295
        }, 
        {
          "txid": "f5c8c974a00ce8a95fb6e889db369f3b849b2907aae730cfc220c3b2b27c805c",
          "vout": 1,
          "scriptSig": {
            "asm": "0020831c666c30d303f920c7c21283e8a1ea07aaee79d418edec08134587877b7d0b",
            "hex": "220020831c666c30d303f920c7c21283e8a1ea07aaee79d418edec08134587877b7d0b"
          },
          "txinwitness": [
            "", 
            "30440220239ec97778a88b3cf01080d747f1a9d69a466597dda2c68d0b8002c3e32770ab02202537adcedd903e559d8f7a0967d5bda343185b1433da7fbffc154bfc9b2a530101", 
            "304502210096499efe276781c6ff709b2d28d086a80ee452e9b2dad86ff3a37bd600674a83022023d95147f61084d46cc5c3e1bca9d50be777656476b84b90ca43cb71fb1997f501", 
            "5221039db0d43b9d812c411be8337e279d75c0868d5ff59fcc74e5a1b2a634c4c8919f210220aa9083ab272dc7a9ca09df5740e2f93d0b70274071f2faf47d0d5c2089579952ae"
          ],
          "sequence": 4294967295
        }, 
        {
          "txid": "0a42e8beebee0dd4a7da315a198106a18938ab984f608d0a2e9cb703a6424676",
          "vout": 0,
          "scriptSig": {
            "asm": "0020831c666c30d303f920c7c21283e8a1ea07aaee79d418edec08134587877b7d0b",
            "hex": "220020831c666c30d303f920c7c21283e8a1ea07aaee79d418edec08134587877b7d0b"
          },
          "txinwitness": [
            "", 
            "30440220117c95a47693eaded2e322d273911d3fcd8aabf6c78f733a611597442833e393022046d39ab691b28dfc6232c66222eba5724f91050bbc06cc3021da93dd984f1b5901", 
            "3045022100b76587685543a878e0fea54aab0e255f0b74dd0caa0c212090821bfdc4d8fa160220624441ae48f1075168297f253739e8183fdd343a867422c6dd1c51151dea781501", 
            "5221039db0d43b9d812c411be8337e279d75c0868d5ff59fcc74e5a1b2a634c4c8919f210220aa9083ab272dc7a9ca09df5740e2f93d0b70274071f2faf47d0d5c2089579952ae"
          ],
          "sequence": 4294967295
        }
      ],
      "vout": [
        {
          "value": 18.80000000,
          "n": 0,
          "scriptPubKey": {
            "asm": "OP_DUP OP_HASH160 0c98940206d458d4b84ec5a5592cf2e97ca45f25 OP_EQUALVERIFY OP_CHECKSIG",
            "hex": "76a9140c98940206d458d4b84ec5a5592cf2e97ca45f2588ac",
            "reqSigs": 1,
            "type": "pubkeyhash",
            "addresses": [
              "LLNZ9qA6Hynfcad46KFwQXYWxQnGpjNySA"
            ]
          }
        }, 
        {
          "value": 17.74869595,
          "n": 1,
          "scriptPubKey": {
            "asm": "OP_HASH160 74ef2e33f202ea7055a46132986ba416f04d8f27 OP_EQUAL",
            "hex": "a91474ef2e33f202ea7055a46132986ba416f04d8f2787",
            "reqSigs": 1,
            "type": "scripthash",
            "addresses": [
              "MJZT9EW9R4rvGzPCkRknkJRfizmKkBY93n"
            ]
          }
        }
      ],
      "hex": "0100000000010703d83e9d26f3978fff561c303986d353453f9673478cd202618e2c438465dc310100000023220020103990350359a627d6440720cfb1d567bf329c6f45c11a7aaecc8b075ba30294ffffffffc894949672cee17ee698cb30ee4d1f9714ad11c1799cb3447bf58bdda14ba52301000000232200206035b1964c822b1875e551e9cfb3111b7aef22fe61aa5fc0863519eb79981257ffffffff32076d93896ab40e3e9c7f78b19c0ba709ea9246f86ec64f4f3eeac0b22c721001000000232200206035b1964c822b1875e551e9cfb3111b7aef22fe61aa5fc0863519eb79981257ffffffff1e82ee1a1a6b88c0924330c565ace6e6f3baa6d289c10b069e97e3dac5e0db9f01000000232200205a7e1aee0e75c449cc92503f69cd7f14e12c92ed862f8a482517af6df5c270e2fffffffff136944bcb9b68d236d759d58e0ebfe0eb5f9724fb042e0966bcceb39b9dc1b801000000232200205a7e1aee0e75c449cc92503f69cd7f14e12c92ed862f8a482517af6df5c270e2ffffffff5c807cb2b2c320c2cf30e7aa07299b843b9f36db89e8b65fa9e80ca074c9c8f50100000023220020831c666c30d303f920c7c21283e8a1ea07aaee79d418edec08134587877b7d0bffffffff764642a603b79c2e0a8d604f98ab3889a10681195a31daa7d40deeebbee8420a0000000023220020831c666c30d303f920c7c21283e8a1ea07aaee79d418edec08134587877b7d0bffffffff0200860e70000000001976a9140c98940206d458d4b84ec5a5592cf2e97ca45f2588ac5b5cca690000000017a91474ef2e33f202ea7055a46132986ba416f04d8f2787040047304402205254a635093a017351184d7d6f1a655557d10347f1ee7e587cb32b2ad64b54f802204cd9e88492231819e4377a80ca47f850579566f13ff83c090c2c34890c79470301473044022032d6f9961cc5d2872a87f88b8ff5b61a01ba362bddd4381c0881cef8a0011e1b02201cba3866d3ed2f15cb9c3d3bf2fb4e0977dcdded8507ba074004ae4bdda4dac80147522102f7741641e775b66788863a969bea300ca8d68ff95be010d28538f6e64dad04c8210220aa9083ab272dc7a9ca09df5740e2f93d0b70274071f2faf47d0d5c2089579952ae04004830450221009f006b518e18652dea288e4e775c88cdb4fe19f4ea2619ed05c8da59326e10eb022004fd9997a9cc6fb9c88f53cbb88a5d330ee6289c370599a2d320e91ac9de0d370147304402200ca45a1283fd9712eab5d061ec48d721ebd7dee9ecff190704e176c084e86016022022b38e86d5ecf7dc3399ddf1280b84c7cae65f282701977d9222f3940e6884eb01475221023db1e1c8bce098f00a78bdbd0386e8f818bbe52d0bc35a15e68c3395c98692ae210220aa9083ab272dc7a9ca09df5740e2f93d0b70274071f2faf47d0d5c2089579952ae040047304402205834a5f1f177d4727957e8d074589f1d923f890f77d6d13bbf5b31bc3fd6904302206c1fa8e857d02f476da66462bf5aa4985e9d50bff3f5f2dbefc817c7fadea92401483045022100b7df2c9eafe877b8711829fd9f77eb194c422c2a3b39a5cae88aa7a10d688e53022012b192f606a5a2fc4273f6350d90a3fc7db19b16f96a7d17994916d9f77b9a5b01475221023db1e1c8bce098f00a78bdbd0386e8f818bbe52d0bc35a15e68c3395c98692ae210220aa9083ab272dc7a9ca09df5740e2f93d0b70274071f2faf47d0d5c2089579952ae040048304502210099998e81920f4e2b2d55c75c63bd78844b6d3066420f1ab29f19a2c382e20ee0022050b9ecc4af0b28938b5ee2e697d985c9061b8df8d7a9914ade59546e02b03ba001473044022100b763c9db918eed6c61994d6ff849ba690a71dc10530b5dbf72f3bc7597f70555021f0be98a8008deac5b8f5d72e45524fced569913fd824cd3d3c17e07c0dba5a201475221036cc00af759b213a6f24be06f5775aa1d22350eb1e177341ddcf5e8d35c93b0d6210220aa9083ab272dc7a9ca09df5740e2f93d0b70274071f2faf47d0d5c2089579952ae040047304402204c49ef2af7b2b12246ce083ffdbe3365cf29b38762c46ffd19930172040717fe0220554944f9d556c5dd531fc8a8da1feacb77204c51f01e28e1156dc264b22c14de014730440220239db261381a3a82bbb02605a5a28540f0e39214f4ef8e2b2f52df8deda8223f022005f34234c12595561a66bb205e84a7141bf27e589f2a0a71100ee5949a60c28601475221036cc00af759b213a6f24be06f5775aa1d22350eb1e177341ddcf5e8d35c93b0d6210220aa9083ab272dc7a9ca09df5740e2f93d0b70274071f2faf47d0d5c2089579952ae04004730440220239ec97778a88b3cf01080d747f1a9d69a466597dda2c68d0b8002c3e32770ab02202537adcedd903e559d8f7a0967d5bda343185b1433da7fbffc154bfc9b2a53010148304502210096499efe276781c6ff709b2d28d086a80ee452e9b2dad86ff3a37bd600674a83022023d95147f61084d46cc5c3e1bca9d50be777656476b84b90ca43cb71fb1997f501475221039db0d43b9d812c411be8337e279d75c0868d5ff59fcc74e5a1b2a634c4c8919f210220aa9083ab272dc7a9ca09df5740e2f93d0b70274071f2faf47d0d5c2089579952ae04004730440220117c95a47693eaded2e322d273911d3fcd8aabf6c78f733a611597442833e393022046d39ab691b28dfc6232c66222eba5724f91050bbc06cc3021da93dd984f1b5901483045022100b76587685543a878e0fea54aab0e255f0b74dd0caa0c212090821bfdc4d8fa160220624441ae48f1075168297f253739e8183fdd343a867422c6dd1c51151dea781501475221039db0d43b9d812c411be8337e279d75c0868d5ff59fcc74e5a1b2a634c4c8919f210220aa9083ab272dc7a9ca09df5740e2f93d0b70274071f2faf47d0d5c2089579952ae00000000"
    }, 
    {
      "txid": "4dfe4fda31f72eaa4f4893337973b4a75f863fb0ba22b1f5cd25d8eb9131ab7f",
      "hash": "4dfe4fda31f72eaa4f4893337973b4a75f863fb0ba22b1f5cd25d8eb9131ab7f",
      "version": 1,
      "size": 223,
      "vsize": 223,
      "locktime": 526175,
      "vin": [
        {
          "txid": "647e10808aff480255f6dc3c080d52d2a5bd98431b8218c42dd9f0748697bc86",
          "vout": 1,
          "scriptSig": {
            "asm": "304402201a2c5d788bfe26598dcc8de04f57aac654cef79e89ed317f830a47fd1ab584430220207c83945b6c2dff705019cf98421cd6417021a5f407ccf0a5421d3f3a2d3224[ALL] 04ff2479a983d974e8b38a0831ac32d079e3b5c58fa1396bcc7d8b10613fd5293f5730eca9cfb9a883ab4ad9479c547081769d433096805cc489dd39cce56e9bef",
            "hex": "47304402201a2c5d788bfe26598dcc8de04f57aac654cef79e89ed317f830a47fd1ab584430220207c83945b6c2dff705019cf98421cd6417021a5f407ccf0a5421d3f3a2d3224014104ff2479a983d974e8b38a0831ac32d079e3b5c58fa1396bcc7d8b10613fd5293f5730eca9cfb9a883ab4ad9479c547081769d433096805cc489dd39cce56e9bef"
          },
          "sequence": 4294967294
        }
      ],
      "vout": [
        {
          "value": 0.99977600,
          "n": 0,
          "scriptPubKey": {
            "asm": "OP_DUP OP_HASH160 b98795452e4afea8cd1b8c7d65659c5130a4d75b OP_EQUALVERIFY OP_CHECKSIG",
            "hex": "76a914b98795452e4afea8cd1b8c7d65659c5130a4d75b88ac",
            "reqSigs": 1,
            "type": "pubkeyhash",
            "addresses": [
              "Lc8whBNf6eSpLMLL66EcmiTy86TKaom4h7"
            ]
          }
        }
      ],
      "hex": "010000000186bc978674f0d92dc418821b4398bda5d2520d083cdcf6550248ff8a80107e64010000008a47304402201a2c5d788bfe26598dcc8de04f57aac654cef79e89ed317f830a47fd1ab584430220207c83945b6c2dff705019cf98421cd6417021a5f407ccf0a5421d3f3a2d3224014104ff2479a983d974e8b38a0831ac32d079e3b5c58fa1396bcc7d8b10613fd5293f5730eca9cfb9a883ab4ad9479c547081769d433096805cc489dd39cce56e9beffeffffff018089f505000000001976a914b98795452e4afea8cd1b8c7d65659c5130a4d75b88ac5f070800"
    }, 
    {
      "txid": "bae905a9b5b9349ff53c2da36aa7503862594fc9a452ee65855bc7d51e8e8925",
      "hash": "bae905a9b5b9349ff53c2da36aa7503862594fc9a452ee65855bc7d51e8e8925",
      "version": 2,
      "size": 225,
      "vsize": 225,
      "locktime": 1357944,
      "vin": [
        {
          "txid": "c5838346cea9f76f14cbeaa7bc28cdbb6112f32531c5eb01813e7dcd3f381a01",
          "vout": 1,
          "scriptSig": {
            "asm": "304402204498de931ea5818329e112a95dfd827625c4dd5d543e4ebcebacf1e298aff3d702203948b382d9ebd0b760681b7be602887374ae5e5fabba1455550a2599e2c4b5dd[ALL] 03d1fe93d78e3bed82a2d98b53898fd998c5fcb5f795bd88300c7a1b6012e4b0f9",
            "hex": "47304402204498de931ea5818329e112a95dfd827625c4dd5d543e4ebcebacf1e298aff3d702203948b382d9ebd0b760681b7be602887374ae5e5fabba1455550a2599e2c4b5dd012103d1fe93d78e3bed82a2d98b53898fd998c5fcb5f795bd88300c7a1b6012e4b0f9"
          },
          "sequence": 4294967294
        }
      ],
      "vout": [
        {
          "value": 269.21068031,
          "n": 0,
          "scriptPubKey": {
            "asm": "OP_DUP OP_HASH160 8834f9eb94a7f8596bc71ec50a9e3c5a8bed9d87 OP_EQUALVERIFY OP_CHECKSIG",
            "hex": "76a9148834f9eb94a7f8596bc71ec50a9e3c5a8bed9d8788ac",
            "reqSigs": 1,
            "type": "pubkeyhash",
            "addresses": [
              "LXe9dA2N4NgE2ZHFkh856qgWzajJDQoFxf"
            ]
          }
        }, 
        {
          "value": 0.30023614,
          "n": 1,
          "scriptPubKey": {
            "asm": "OP_DUP OP_HASH160 c22c786184be54dceab44652ae0785b18bfc2785 OP_EQUALVERIFY OP_CHECKSIG",
            "hex": "76a914c22c786184be54dceab44652ae0785b18bfc278588ac",
            "reqSigs": 1,
            "type": "pubkeyhash",
            "addresses": [
              "LcvedGsQPGeRc46GexZJLP4EZjdRi28qyP"
            ]
          }
        }
      ],
      "hex": "0200000001011a383fcd7d3e8101ebc53125f31261bbcd28bca7eacb146ff7a9ce468383c5010000006a47304402204498de931ea5818329e112a95dfd827625c4dd5d543e4ebcebacf1e298aff3d702203948b382d9ebd0b760681b7be602887374ae5e5fabba1455550a2599e2c4b5dd012103d1fe93d78e3bed82a2d98b53898fd998c5fcb5f795bd88300c7a1b6012e4b0f9feffffff02ffe59e44060000001976a9148834f9eb94a7f8596bc71ec50a9e3c5a8bed9d8788acbe1fca01000000001976a914c22c786184be54dceab44652ae0785b18bfc278588ac78b81400"
    }, 
    {
      "txid": "f95b9461e85395281d0d6d964c7ea64c9865bf8a2c0449344f24f7be6fa0f4a9",
      "hash": "f95b9461e85395281d0d6d964c7ea64c9865bf8a2c0449344f24f7be6fa0f4a9",
      "version": 1,
      "size": 225,
      "vsize": 225,
      "locktime": 0,
      "vin": [
        {
          "txid": "fc121580ae7b3c566b0b0a5e1f4f290bd057bc120e7ccc3e75f8db58f3bbc3a0",
          "vout": 0,
          "scriptSig": {
            "asm": "304402200a0191af3ff391cbed5ff0f71a6fe8c9a73b276d45dfec40373868f3df95d9ee02203e0560b6a8640570907815712b855fbdde0a2a42e338caa62ce2ab37efd63f3a[ALL] 02f35d04b9cb9c85a33ab4835fdb5feb900bc8c60b7f7eda8c502d27f3a2bcd589",
            "hex": "47304402200a0191af3ff391cbed5ff0f71a6fe8c9a73b276d45dfec40373868f3df95d9ee02203e0560b6a8640570907815712b855fbdde0a2a42e338caa62ce2ab37efd63f3a012102f35d04b9cb9c85a33ab4835fdb5feb900bc8c60b7f7eda8c502d27f3a2bcd589"
          },
          "sequence": 4294967295
        }
      ],
      "vout": [
        {
          "value": 54.09315344,
          "n": 0,
          "scriptPubKey": {
            "asm": "OP_DUP OP_HASH160 4c5b804eea941ed7fca44a3c778dce96994c03cb OP_EQUALVERIFY OP_CHECKSIG",
            "hex": "76a9144c5b804eea941ed7fca44a3c778dce96994c03cb88ac",
            "reqSigs": 1,
            "type": "pubkeyhash",
            "addresses": [
              "LSBhEQaETAtmLELJ5j3nGYBvLTGENCdENZ"
            ]
          }
        }, 
        {
          "value": 0.55655726,
          "n": 1,
          "scriptPubKey": {
            "asm": "OP_DUP OP_HASH160 ced8fb54b2811b4333504d064ea1dde31204d1e1 OP_EQUALVERIFY OP_CHECKSIG",
            "hex": "76a914ced8fb54b2811b4333504d064ea1dde31204d1e188ac",
            "reqSigs": 1,
            "type": "pubkeyhash",
            "addresses": [
              "Le5fPtQcQJzGNX7zoby4cFXkf3LYqTXrgK"
            ]
          }
        }
      ],
      "hex": "0100000001a0c3bbf358dbf8753ecc7c0e12bc57d00b294f1f5e0a0b6b563c7bae801512fc000000006a47304402200a0191af3ff391cbed5ff0f71a6fe8c9a73b276d45dfec40373868f3df95d9ee02203e0560b6a8640570907815712b855fbdde0a2a42e338caa62ce2ab37efd63f3a012102f35d04b9cb9c85a33ab4835fdb5feb900bc8c60b7f7eda8c502d27f3a2bcd589ffffffff02109a6b42010000001976a9144c5b804eea941ed7fca44a3c778dce96994c03cb88ac2e3d5103000000001976a914ced8fb54b2811b4333504d064ea1dde31204d1e188ac00000000"
    }, 
    {
      "txid": "d085005ddb1dea81d3c051b32e145a42deeb898f126923b37a7212c8f2cc4cf5",
      "hash": "d085005ddb1dea81d3c051b32e145a42deeb898f126923b37a7212c8f2cc4cf5",
      "version": 1,
      "size": 225,
      "vsize": 225,
      "locktime": 0,
      "vin": [
        {
          "txid": "46ab4bf1e7117f3fea01d2e8dc83125d3d401bbba5a9af2be469493b70f32331",
          "vout": 0,
          "scriptSig": {
            "asm": "30440220077f8ef78e28cae12facb2354102b18772d39827ad80fa9a6269e99f656a6a5802202633ce6de5b6de622012ff8a1c4af1a13511c220efc4cf718e25e16883507cc9[ALL] 0292b588eb582249e840a2b5e7343d120259f906c146fd430fde80fba8dd2bbc4f",
            "hex": "4730440220077f8ef78e28cae12facb2354102b18772d39827ad80fa9a6269e99f656a6a5802202633ce6de5b6de622012ff8a1c4af1a13511c220efc4cf718e25e16883507cc901210292b588eb582249e840a2b5e7343d120259f906c146fd430fde80fba8dd2bbc4f"
          },
          "sequence": 4294967295
        }
      ],
      "vout": [
        {
          "value": 52.08384621,
          "n": 0,
          "scriptPubKey": {
            "asm": "OP_DUP OP_HASH160 c4b3335ab7cd78f7f002594385311475dde73955 OP_EQUALVERIFY OP_CHECKSIG",
            "hex": "76a914c4b3335ab7cd78f7f002594385311475dde7395588ac",
            "reqSigs": 1,
            "type": "pubkeyhash",
            "addresses": [
              "LdA1NtTL4qQKD4EZXuS9vz2Sy18Aztxwv6"
            ]
          }
        }, 
        {
          "value": 1.86801964,
          "n": 1,
          "scriptPubKey": {
            "asm": "OP_DUP OP_HASH160 21855dafc1ef771e7c80ab700196a15581b36f68 OP_EQUALVERIFY OP_CHECKSIG",
            "hex": "76a91421855dafc1ef771e7c80ab700196a15581b36f6888ac",
            "reqSigs": 1,
            "type": "pubkeyhash",
            "addresses": [
              "LNHCKyPNbhPeNotwzLmv9GvBqyVQ7Yd446"
            ]
          }
        }
      ],
      "hex": "01000000013123f3703b4969e42bafa9a5bb1b403d5d1283dce8d201ea3f7f11e7f14bab46000000006a4730440220077f8ef78e28cae12facb2354102b18772d39827ad80fa9a6269e99f656a6a5802202633ce6de5b6de622012ff8a1c4af1a13511c220efc4cf718e25e16883507cc901210292b588eb582249e840a2b5e7343d120259f906c146fd430fde80fba8dd2bbc4fffffffff026da47136010000001976a914c4b3335ab7cd78f7f002594385311475dde7395588ac2c5f220b000000001976a91421855dafc1ef771e7c80ab700196a15581b36f6888ac00000000"
    }, 
    {
      "txid": "b77fec27f32a8d200cb7ce1f86f215b1696bcf734335f158a0236f7abb83f5f8",
      "hash": "b77fec27f32a8d200cb7ce1f86f215b1696bcf734335f158a0236f7abb83f5f8",
      "version": 1,
      "size": 225,
      "vsize": 225,
      "locktime": 0,
      "vin": [
        {
          "txid": "95654e76a6f5619e54d4ed6b3f742c3ced45d40a075fda183ea72188737a57fe",
          "vout": 0,
          "scriptSig": {
            "asm": "304402203cf52fdea6cfd7626ce885bfee1e3dd636419926ecb1596a8067d1573a1cb86102205676f2ac4c3d37c26c8616f5c4efa53d728a10701b3b204eda4915f01c27b410[ALL] 036cfc81410353fa006b68f135fe7b7cdb97f11459b21a547f63996701c963ca45",
            "hex": "47304402203cf52fdea6cfd7626ce885bfee1e3dd636419926ecb1596a8067d1573a1cb86102205676f2ac4c3d37c26c8616f5c4efa53d728a10701b3b204eda4915f01c27b4100121036cfc81410353fa006b68f135fe7b7cdb97f11459b21a547f63996701c963ca45"
          },
          "sequence": 4294967295
        }
      ],
      "vout": [
        {
          "value": 0.83657400,
          "n": 0,
          "scriptPubKey": {
            "asm": "OP_DUP OP_HASH160 b64fba782c3d3f65e7c6a3318f5a776db58e1f30 OP_EQUALVERIFY OP_CHECKSIG",
            "hex": "76a914b64fba782c3d3f65e7c6a3318f5a776db58e1f3088ac",
            "reqSigs": 1,
            "type": "pubkeyhash",
            "addresses": [
              "LbqvkkamMrpzHjpvTiQ8B8AX1qbw5yxN2E"
            ]
          }
        }, 
        {
          "value": 54.11236926,
          "n": 1,
          "scriptPubKey": {
            "asm": "OP_DUP OP_HASH160 05436d357d67c4ee06c648b382b5b29f7649e70c OP_EQUALVERIFY OP_CHECKSIG",
            "hex": "76a91405436d357d67c4ee06c648b382b5b29f7649e70c88ac",
            "reqSigs": 1,
            "type": "pubkeyhash",
            "addresses": [
              "LKhnR46sguKRuKcjmUgZZBhM1Yx31p1zfL"
            ]
          }
        }
      ],
      "hex": "0100000001fe577a738821a73e18da5f070ad445ed3c2c743f6bedd4549e61f5a6764e6595000000006a47304402203cf52fdea6cfd7626ce885bfee1e3dd636419926ecb1596a8067d1573a1cb86102205676f2ac4c3d37c26c8616f5c4efa53d728a10701b3b204eda4915f01c27b4100121036cfc81410353fa006b68f135fe7b7cdb97f11459b21a547f63996701c963ca45ffffffff02b882fc04000000001976a914b64fba782c3d3f65e7c6a3318f5a776db58e1f3088ac3eec8842010000001976a91405436d357d67c4ee06c648b382b5b29f7649e70c88ac00000000"
    }, 
    {
      "txid": "71c71b3d26516ca08b39e82a8de5e7de3df037939313e2dc8ed98163a94e2f18",
      "hash": "71c71b3d26516ca08b39e82a8de5e7de3df037939313e2dc8ed98163a94e2f18",
      "version": 2,
      "size": 1212,
      "vsize": 1212,
      "locktime": 1357944,
      "vin": [
        {
          "txid": "c3d7c13aa0a23f7c262b0052d5b2a391dc38d00be50ef3d6ec2e64b445cb87ce",
          "vout": 1,
          "scriptSig": {
            "asm": "304402207cc65160c3ee988c76cebca9fa7a82acf0e1f8f9ac2e09e352da90235808c2c30220269d68171ed18f7b18887f40155702c0df66f24a4d0ae4293e36ce8c94e71fa8[ALL] 02bf0b2bc213673d0e8f94feca6ddbc2d3b238ec93e0e419e1aa700fdbcabd8edd",
            "hex": "47304402207cc65160c3ee988c76cebca9fa7a82acf0e1f8f9ac2e09e352da90235808c2c30220269d68171ed18f7b18887f40155702c0df66f24a4d0ae4293e36ce8c94e71fa8012102bf0b2bc213673d0e8f94feca6ddbc2d3b238ec93e0e419e1aa700fdbcabd8edd"
          },
          "sequence": 4294967294
        }, 
        {
          "txid": "c3d7c13aa0a23f7c262b0052d5b2a391dc38d00be50ef3d6ec2e64b445cb87ce",
          "vout": 33,
          "scriptSig": {
            "asm": "3045022100d053efc91b97a1309b889eb08b22ed288445890e5689dcddaf0dcd543a398d100220466715ffa3333518a9f7f7591851a299b4ffb4d1ca59cb793693ae881cd50d85[ALL] 033a4a5b6a345245f013f3eb33bcd1b4487e8ba8b4e6654d237df532505f48be7e",
            "hex": "483045022100d053efc91b97a1309b889eb08b22ed288445890e5689dcddaf0dcd543a398d100220466715ffa3333518a9f7f7591851a299b4ffb4d1ca59cb793693ae881cd50d850121033a4a5b6a345245f013f3eb33bcd1b4487e8ba8b4e6654d237df532505f48be7e"
          },
          "sequence": 4294967294
        }, 
        {
          "txid": "bc73e9e6f27fefc0511db53c130d7f8cbdacc737df04959970a962615307d21a",
          "vout": 1,
          "scriptSig": {
            "asm": "3045022100d8696594935499cb0953496b4dbfcb4ab3855ef1d086f500c6eb58fa0252303202205bed2b7a33ed4944648cd145782f1b74e2ffa131063321d20c585d171d3039f8[ALL] 03b7ea5e20161935df8b058679a372961520f9f7cc87a5062bd928b0c06caf9677",
            "hex": "483045022100d8696594935499cb0953496b4dbfcb4ab3855ef1d086f500c6eb58fa0252303202205bed2b7a33ed4944648cd145782f1b74e2ffa131063321d20c585d171d3039f8012103b7ea5e20161935df8b058679a372961520f9f7cc87a5062bd928b0c06caf9677"
          },
          "sequence": 4294967294
        }, 
        {
          "txid": "a0a3c7d5d273dbd1641c40d1673868e9b8fcfa8be213ae39d7cf6283e8b4c887",
          "vout": 0,
          "scriptSig": {
            "asm": "3044022021012ab2c24ad805a13f4319dac5951a9c7d8836684bac2e232da35d24c2914e022043b44796473fb62a767bd7232b8ae0190109a6bc263a7ce17e0ee3c0e72f1637[ALL] 02bf15edf340de7932113b262561e585579bbecebdb0e0322ba9fd1904200f4aac",
            "hex": "473044022021012ab2c24ad805a13f4319dac5951a9c7d8836684bac2e232da35d24c2914e022043b44796473fb62a767bd7232b8ae0190109a6bc263a7ce17e0ee3c0e72f1637012102bf15edf340de7932113b262561e585579bbecebdb0e0322ba9fd1904200f4aac"
          },
          "sequence": 4294967294
        }, 
        {
          "txid": "6ef8000b1f5b7268a27052ca6057efe421ae6adbf90112a1482a62f520014d6d",
          "vout": 0,
          "scriptSig": {
            "asm": "30440220313558e3712d006d84a1b924d3e3372a2d8e9c27ca9b69172cb2608a077ae354022069e0cfe50ae04924a49d164b13e04a19ff1fdf5be9d8875bac280c33277efa08[ALL] 02ac97272b7d1e8e026592f79e3456b69ab186e637eb957f956275608c3c8f9718",
            "hex": "4730440220313558e3712d006d84a1b924d3e3372a2d8e9c27ca9b69172cb2608a077ae354022069e0cfe50ae04924a49d164b13e04a19ff1fdf5be9d8875bac280c33277efa08012102ac97272b7d1e8e026592f79e3456b69ab186e637eb957f956275608c3c8f9718"
          },
          "sequence": 4294967294
        }, 
        {
          "txid": "1a02a2827ecb9990e9c49e75a3008ea94319e41b3a314d7d3a569ecaf3ee152e",
          "vout": 0,
          "scriptSig": {
            "asm": "3045022100acfaef3c856d23506c31f17c831e6e181eb3b6004fe7109ec1d86e93980fe6f102206f5d4146c591a7911df4335e7840ba2188bc8cefff40ef4082b8bee47c640f8e[ALL] 039e9350e97c29e7bd8a362b0373fc0c1f59b516e97fa663be459648048e4867ad",
            "hex": "483045022100acfaef3c856d23506c31f17c831e6e181eb3b6004fe7109ec1d86e93980fe6f102206f5d4146c591a7911df4335e7840ba2188bc8cefff40ef4082b8bee47c640f8e0121039e9350e97c29e7bd8a362b0373fc0c1f59b516e97fa663be459648048e4867ad"
          },
          "sequence": 4294967294
        }, 
        {
          "txid": "eba2a0c3ff42f0f01a70f969c6ec8e369c5af2f096a2afc79aca44cd4de3683a",
          "vout": 0,
          "scriptSig": {
            "asm": "3044022013ab4fdf5339e31d8ddaaf61617bdfd375192934cad86d9fc8c3fa9416376e370220513b85fe2c6221370afee48c0dcbdc20608a255a61614351960b086cae9beb64[ALL] 03a6db7c0ce8a207c30b0dd0d7b64e2b56ee35dc6641d7a9a4600a3fe915b30136",
            "hex": "473044022013ab4fdf5339e31d8ddaaf61617bdfd375192934cad86d9fc8c3fa9416376e370220513b85fe2c6221370afee48c0dcbdc20608a255a61614351960b086cae9beb64012103a6db7c0ce8a207c30b0dd0d7b64e2b56ee35dc6641d7a9a4600a3fe915b30136"
          },
          "sequence": 4294967294
        }
      ],
      "vout": [
        {
          "value": 0.00878404,
          "n": 0,
          "scriptPubKey": {
            "asm": "OP_DUP OP_HASH160 91423939168084eaa4c30b5ff96d9c0e494dea98 OP_EQUALVERIFY OP_CHECKSIG",
            "hex": "76a91491423939168084eaa4c30b5ff96d9c0e494dea9888ac",
            "reqSigs": 1,
            "type": "pubkeyhash",
            "addresses": [
              "LYU1aKVxajz4vmH61NsFihffYSxoqSy7Rk"
            ]
          }
        }, 
        {
          "value": 7.85492000,
          "n": 1,
          "scriptPubKey": {
            "asm": "OP_DUP OP_HASH160 ad3104bee0471406099b0200b31f10877b174902 OP_EQUALVERIFY OP_CHECKSIG",
            "hex": "76a914ad3104bee0471406099b0200b31f10877b17490288ac",
            "reqSigs": 1,
            "type": "pubkeyhash",
            "addresses": [
              "Lb1htGThHtN2qewywD2ZFjeTnPfhi2vgWJ"
            ]
          }
        }, 
        {
          "value": 0.11130000,
          "n": 2,
          "scriptPubKey": {
            "asm": "OP_DUP OP_HASH160 e4a44d934a740df2af72b1503656ee3f83bfb691 OP_EQUALVERIFY OP_CHECKSIG",
            "hex": "76a914e4a44d934a740df2af72b1503656ee3f83bfb69188ac",
            "reqSigs": 1,
            "type": "pubkeyhash",
            "addresses": [
              "Lg4u9vbgjkr2JNJcPkVii5ah39JQJgDgq1"
            ]
          }
        }, 
        {
          "value": 1.70020600,
          "n": 3,
          "scriptPubKey": {
            "asm": "OP_DUP OP_HASH160 ca5b4158c75580c1b3bac5232d67afe5c8c05db1 OP_EQUALVERIFY OP_CHECKSIG",
            "hex": "76a914ca5b4158c75580c1b3bac5232d67afe5c8c05db188ac",
            "reqSigs": 1,
            "type": "pubkeyhash",
            "addresses": [
              "Ldfv5VLjkyvKr1ixW7FE8ydFt2sGSQqj8w"
            ]
          }
        }, 
        {
          "value": 10.26324600,
          "n": 4,
          "scriptPubKey": {
            "asm": "OP_DUP OP_HASH160 4fa2724cc522cbdc5b585699c8d1d86ba2627315 OP_EQUALVERIFY OP_CHECKSIG",
            "hex": "76a9144fa2724cc522cbdc5b585699c8d1d86ba262731588ac",
            "reqSigs": 1,
            "type": "pubkeyhash",
            "addresses": [
              "LSV2FM6DBBEzzwaynYcUqYnK1fNc82rdPk"
            ]
          }
        }
      ],
      "hex": "0200000007ce87cb45b4642eecd6f30ee50bd038dc91a3b2d552002b267c3fa2a03ac1d7c3010000006a47304402207cc65160c3ee988c76cebca9fa7a82acf0e1f8f9ac2e09e352da90235808c2c30220269d68171ed18f7b18887f40155702c0df66f24a4d0ae4293e36ce8c94e71fa8012102bf0b2bc213673d0e8f94feca6ddbc2d3b238ec93e0e419e1aa700fdbcabd8eddfeffffffce87cb45b4642eecd6f30ee50bd038dc91a3b2d552002b267c3fa2a03ac1d7c3210000006b483045022100d053efc91b97a1309b889eb08b22ed288445890e5689dcddaf0dcd543a398d100220466715ffa3333518a9f7f7591851a299b4ffb4d1ca59cb793693ae881cd50d850121033a4a5b6a345245f013f3eb33bcd1b4487e8ba8b4e6654d237df532505f48be7efeffffff1ad207536162a970999504df37c7acbd8c7f0d133cb51d51c0ef7ff2e6e973bc010000006b483045022100d8696594935499cb0953496b4dbfcb4ab3855ef1d086f500c6eb58fa0252303202205bed2b7a33ed4944648cd145782f1b74e2ffa131063321d20c585d171d3039f8012103b7ea5e20161935df8b058679a372961520f9f7cc87a5062bd928b0c06caf9677feffffff87c8b4e88362cfd739ae13e28bfafcb8e9683867d1401c64d1db73d2d5c7a3a0000000006a473044022021012ab2c24ad805a13f4319dac5951a9c7d8836684bac2e232da35d24c2914e022043b44796473fb62a767bd7232b8ae0190109a6bc263a7ce17e0ee3c0e72f1637012102bf15edf340de7932113b262561e585579bbecebdb0e0322ba9fd1904200f4aacfeffffff6d4d0120f5622a48a11201f9db6aae21e4ef5760ca5270a268725b1f0b00f86e000000006a4730440220313558e3712d006d84a1b924d3e3372a2d8e9c27ca9b69172cb2608a077ae354022069e0cfe50ae04924a49d164b13e04a19ff1fdf5be9d8875bac280c33277efa08012102ac97272b7d1e8e026592f79e3456b69ab186e637eb957f956275608c3c8f9718feffffff2e15eef3ca9e563a7d4d313a1be41943a98e00a3759ec4e99099cb7e82a2021a000000006b483045022100acfaef3c856d23506c31f17c831e6e181eb3b6004fe7109ec1d86e93980fe6f102206f5d4146c591a7911df4335e7840ba2188bc8cefff40ef4082b8bee47c640f8e0121039e9350e97c29e7bd8a362b0373fc0c1f59b516e97fa663be459648048e4867adfeffffff3a68e34dcd44ca9ac7afa296f0f25a9c368eecc669f9701af0f042ffc3a0a2eb000000006a473044022013ab4fdf5339e31d8ddaaf61617bdfd375192934cad86d9fc8c3fa9416376e370220513b85fe2c6221370afee48c0dcbdc20608a255a61614351960b086cae9beb64012103a6db7c0ce8a207c30b0dd0d7b64e2b56ee35dc6641d7a9a4600a3fe915b30136feffffff0544670d00000000001976a91491423939168084eaa4c30b5ff96d9c0e494dea9888ac20a8d12e000000001976a914ad3104bee0471406099b0200b31f10877b17490288ac90d4a900000000001976a914e4a44d934a740df2af72b1503656ee3f83bfb69188acf84e220a000000001976a914ca5b4158c75580c1b3bac5232d67afe5c8c05db188ac78782c3d000000001976a9144fa2724cc522cbdc5b585699c8d1d86ba262731588ac78b81400"
    }, 
    {
      "txid": "5e2b4011cd5644a7d4f828962881890ad3669b9eb8842f924e697255eb66b300",
      "hash": "5e2b4011cd5644a7d4f828962881890ad3669b9eb8842f924e697255eb66b300",
      "version": 1,
      "size": 226,
      "vsize": 226,
      "locktime": 0,
      "vin": [
        {
          "txid": "3151017e0489c9f8ffd17047af0b7df99576a9bfd0fd73a072d997783912572b",
          "vout": 0,
          "scriptSig": {
            "asm": "3045022100f3d2c85605fea37380a14ab9b135784d93b5e9dde163cc89908efb3c225b508f0220312386ce6a89bb71af0dbba8b061bae308ff90d0a4351e24d44aa026efd17d44[ALL] 03eee8438d6ac2bac781a9afebe55d44c82e8a1fb963aba152aafa745dd8787f23",
            "hex": "483045022100f3d2c85605fea37380a14ab9b135784d93b5e9dde163cc89908efb3c225b508f0220312386ce6a89bb71af0dbba8b061bae308ff90d0a4351e24d44aa026efd17d44012103eee8438d6ac2bac781a9afebe55d44c82e8a1fb963aba152aafa745dd8787f23"
          },
          "sequence": 4294967295
        }
      ],
      "vout": [
        {
          "value": 47.27527905,
          "n": 0,
          "scriptPubKey": {
            "asm": "OP_DUP OP_HASH160 f00139de1d3c96054a2ea8d667e8410902c6adaf OP_EQUALVERIFY OP_CHECKSIG",
            "hex": "76a914f00139de1d3c96054a2ea8d667e8410902c6adaf88ac",
            "reqSigs": 1,
            "type": "pubkeyhash",
            "addresses": [
              "Lh6yuSSYbit1K53ZVbo3HDuZ3ZN8oDx5cB"
            ]
          }
        }, 
        {
          "value": 1.74977400,
          "n": 1,
          "scriptPubKey": {
            "asm": "OP_DUP OP_HASH160 8ca343f0325ee842db4ba3bdf7dd8c9f139e3293 OP_EQUALVERIFY OP_CHECKSIG",
            "hex": "76a9148ca343f0325ee842db4ba3bdf7dd8c9f139e329388ac",
            "reqSigs": 1,
            "type": "pubkeyhash",
            "addresses": [
              "LY3aSwt1UzhaAgvj1zXiq2FFtDF8ebx6CS"
            ]
          }
        }
      ],
      "hex": "01000000012b5712397897d972a073fdd0bfa97695f97d0baf4770d1fff8c989047e015131000000006b483045022100f3d2c85605fea37380a14ab9b135784d93b5e9dde163cc89908efb3c225b508f0220312386ce6a89bb71af0dbba8b061bae308ff90d0a4351e24d44aa026efd17d44012103eee8438d6ac2bac781a9afebe55d44c82e8a1fb963aba152aafa745dd8787f23ffffffff02e159c819010000001976a914f00139de1d3c96054a2ea8d667e8410902c6adaf88ac78f16d0a000000001976a9148ca343f0325ee842db4ba3bdf7dd8c9f139e329388ac00000000"
    }, 
    {
      "txid": "a1202f95009316bde47d0e6efedb7219c6308742693ff4513275d4bdc59aa532",
      "hash": "a1202f95009316bde47d0e6efedb7219c6308742693ff4513275d4bdc59aa532",
      "version": 1,
      "size": 226,
      "vsize": 226,
      "locktime": 0,
      "vin": [
        {
          "txid": "80c9c826a30476fc9fc99ffc140c99a1659511cf1fe79318feffbd2559f01a25",
          "vout": 1,
          "scriptSig": {
            "asm": "3045022100e1e0207e72ed5c802eb8cacd87ab947239240772ff4b6ace5550d03dca7a51ce022037c9d4ef7e5b9dc7485a4f32d919ff616fdab8cf714663ebd1f5de294f2a6402[ALL] 031a32a7e17ed2216b81200dd702c96f7ed273290bc5cfee777095f090c4c38241",
            "hex": "483045022100e1e0207e72ed5c802eb8cacd87ab947239240772ff4b6ace5550d03dca7a51ce022037c9d4ef7e5b9dc7485a4f32d919ff616fdab8cf714663ebd1f5de294f2a64020121031a32a7e17ed2216b81200dd702c96f7ed273290bc5cfee777095f090c4c38241"
          },
          "sequence": 4294967295
        }
      ],
      "vout": [
        {
          "value": 43.70714741,
          "n": 0,
          "scriptPubKey": {
            "asm": "OP_DUP OP_HASH160 77c43c0130457a02f3a7fc79eb3a7167faf91bc7 OP_EQUALVERIFY OP_CHECKSIG",
            "hex": "76a91477c43c0130457a02f3a7fc79eb3a7167faf91bc788ac",
            "reqSigs": 1,
            "type": "pubkeyhash",
            "addresses": [
              "LW9DkePiENVpk1QUeKrxcKbJsffsU8iMt4"
            ]
          }
        }, 
        {
          "value": 6.25660000,
          "n": 1,
          "scriptPubKey": {
            "asm": "OP_DUP OP_HASH160 a2bd3b29f0109eecb1b17a0fbe930627e1cc34c6 OP_EQUALVERIFY OP_CHECKSIG",
            "hex": "76a914a2bd3b29f0109eecb1b17a0fbe930627e1cc34c688ac",
            "reqSigs": 1,
            "type": "pubkeyhash",
            "addresses": [
              "La4SRJCwvgWqr81oEEGZTCdp1VhjEd8hid"
            ]
          }
        }
      ],
      "hex": "0100000001251af05925bdfffe1893e71fcf119565a1990c14fc9fc99ffc7604a326c8c980010000006b483045022100e1e0207e72ed5c802eb8cacd87ab947239240772ff4b6ace5550d03dca7a51ce022037c9d4ef7e5b9dc7485a4f32d919ff616fdab8cf714663ebd1f5de294f2a64020121031a32a7e17ed2216b81200dd702c96f7ed273290bc5cfee777095f090c4c38241ffffffff0275d08304010000001976a91477c43c0130457a02f3a7fc79eb3a7167faf91bc788ac60d04a25000000001976a914a2bd3b29f0109eecb1b17a0fbe930627e1cc34c688ac00000000"
    }, 
    {
      "txid": "5776a2d5948ad4817c079473486990eb9a8ce3d404ed611f62fc0a428963d4ae",
      "hash": "5776a2d5948ad4817c079473486990eb9a8ce3d404ed611f62fc0a428963d4ae",
      "version": 1,
      "size": 226,
      "vsize": 226,
      "locktime": 0,
      "vin": [
        {
          "txid": "53cfbc837490b78e06d225193f89e2254829489194c86c73ae1095001527b22b",
          "vout": 0,
          "scriptSig": {
            "asm": "3045022100d826ae6ccfadf9ee77e38e8f44ca350edf62b30a451694e3b8f1ca4e8a62b12902203a589db888d00044841dd8e6de2da935bc57931840902fe2a6b9699041f7101c[ALL] 0354c7912660c24392d04c03ab0fe92003eab363d1ce875e298d90e7a138568a38",
            "hex": "483045022100d826ae6ccfadf9ee77e38e8f44ca350edf62b30a451694e3b8f1ca4e8a62b12902203a589db888d00044841dd8e6de2da935bc57931840902fe2a6b9699041f7101c01210354c7912660c24392d04c03ab0fe92003eab363d1ce875e298d90e7a138568a38"
          },
          "sequence": 4294967295
        }
      ],
      "vout": [
        {
          "value": 0.28794353,
          "n": 0,
          "scriptPubKey": {
            "asm": "OP_DUP OP_HASH160 b175c5afbb9a82f33eb35dd6168cddc5fba45ac0 OP_EQUALVERIFY OP_CHECKSIG",
            "hex": "76a914b175c5afbb9a82f33eb35dd6168cddc5fba45ac088ac",
            "reqSigs": 1,
            "type": "pubkeyhash",
            "addresses": [
              "LbQGx88hNWvrmVqRWFuVu3vmXriDvGYeWt"
            ]
          }
        }, 
        {
          "value": 53.20772261,
          "n": 1,
          "scriptPubKey": {
            "asm": "OP_DUP OP_HASH160 614c3cd14b8c8eb4975f1df929e80afd46b60bd0 OP_EQUALVERIFY OP_CHECKSIG",
            "hex": "76a914614c3cd14b8c8eb4975f1df929e80afd46b60bd088ac",
            "reqSigs": 1,
            "type": "pubkeyhash",
            "addresses": [
              "LU6R8u8pfM1zDt6i3NkUv9AFLnxB8AyypU"
            ]
          }
        }
      ],
      "hex": "01000000012bb22715009510ae736cc8949148294825e2893f1925d2068eb7907483bccf53000000006b483045022100d826ae6ccfadf9ee77e38e8f44ca350edf62b30a451694e3b8f1ca4e8a62b12902203a589db888d00044841dd8e6de2da935bc57931840902fe2a6b9699041f7101c01210354c7912660c24392d04c03ab0fe92003eab363d1ce875e298d90e7a138568a38ffffffff02f15db701000000001976a914b175c5afbb9a82f33eb35dd6168cddc5fba45ac088aca58a243d010000001976a914614c3cd14b8c8eb4975f1df929e80afd46b60bd088ac00000000"
    }
  ],
  "time": 1517068547,
  "mediantime": 1517067675,
  "nonce": 1359374938,
  "bits": "1a047f14",
  "difficulty": 3731199.183374282,
  "chainwork": "000000000000000000000000000000000000000000000032aa7fca33b22ba37e",
  "previousblockhash": "1d910b536fb4edfbedd0acb9c8f2b9118abd081f6740521ead0a3b611f097224",
  "nextblockhash": "6862c13476fa19ac0f2d9932f695367d12bcff2f151e9695550aecf106dc74ad"
}
