{
  "hash": "46889801b478508fa1f6761a98905b50fe4373ec6d336e96869f1f390319e8a1",
  "confirmations": 3338,
  "strippedsize": 1347,
  "size": 1383,
  "weight": 5424,
  "height": 1357657,
  "version": 536870912,
  "versionHex": "20000000",
  "merkleroot": "441f509c60d6589d9ffba0df4c133fd66cd0fa5aa4d50cbad3174532d2c0240a",
  "tx": [
    {
      "txid": "56acb873237cdba5783cee2c6a673eaf7cf5e0e15cd7e63a5180113ac9cdb74d",
      "hash": "8c9ae981291af8895e3fb9882adc43ccaea53a31eaaf26566b55e76912900963",
      "version": 1,
      "size": 253,
      "vsize": 226,
      "locktime": 0,
      "vin": [
        {
          "coinbase": "0359b71441d69b03fdb49ec341d69b03fcc6de0b2f4c54432e544f502ffabe6d6dc160c0b7056a54e131a89bb8e73fc77f2f77c09f16ede3f421fef1eaff32b8240100000000000000792d6d040100000000000000",
          "sequence": 4294967295
        }
      ],
      "vout": [
        {
          "value": 25.00167699,
          "n": 0,
          "scriptPubKey": {
            "asm": "OP_DUP OP_HASH160 0c617fdb2ea42aed30a509595ee21ba3f6688db0 OP_EQUALVERIFY OP_CHECKSIG",
            "hex": "76a9140c617fdb2ea42aed30a509595ee21ba3f6688db088ac",
            "reqSigs": 1,
            "type": "pubkeyhash",
            "addresses": [
              "LLMRAtr3qBje2ySEa3CnZ55LA4TQMWnRY3"
            ]
          }
        }, 
        {
          "value": 0.00000000,
          "n": 1,
          "scriptPubKey": {
            "asm": "OP_RETURN aa21a9ed7e3437726b85c462046efe556b5af0123f30b056e0e5c8f8a82476a966527090",
            "hex": "6a24aa21a9ed7e3437726b85c462046efe556b5af0123f30b056e0e5c8f8a82476a966527090",
            "type": "nulldata"
          }
        }
      ],
      "hex": "010000000001010000000000000000000000000000000000000000000000000000000000000000ffffffff550359b71441d69b03fdb49ec341d69b03fcc6de0b2f4c54432e544f502ffabe6d6dc160c0b7056a54e131a89bb8e73fc77f2f77c09f16ede3f421fef1eaff32b8240100000000000000792d6d040100000000000000ffffffff0213880595000000001976a9140c617fdb2ea42aed30a509595ee21ba3f6688db088ac0000000000000000266a24aa21a9ed7e3437726b85c462046efe556b5af0123f30b056e0e5c8f8a82476a9665270900120000000000000000000000000000000000000000000000000000000000000000000000000"
    }, 
    {
      "txid": "483f07ca2f6df3373efa321d5ff2003e3b7dbbbece12f3c3d9cb63fccb71c01a",
      "hash": "483f07ca2f6df3373efa321d5ff2003e3b7dbbbece12f3c3d9cb63fccb71c01a",
      "version": 1,
      "size": 374,
      "vsize": 374,
      "locktime": 0,
      "vin": [
        {
          "txid": "e3eeded2ed1ec4c44da32c19c81c03ecd668aae2f4c59dbb9e091e1be32f8f78",
          "vout": 1,
          "scriptSig": {
            "asm": "3045022100eb522a1cb3663f6d2bb0c1685df7b14ef2f4d04ca37ad1e6ad61339f40040a2a0220574e055ca9b968cdec16db90592c6f4eaa54aded6476162e9b49c26153c28a7c[ALL] 0336b4c57f84a02556d142839a6f090cafe2960512c99aed55b31fdc18abf261dc",
            "hex": "483045022100eb522a1cb3663f6d2bb0c1685df7b14ef2f4d04ca37ad1e6ad61339f40040a2a0220574e055ca9b968cdec16db90592c6f4eaa54aded6476162e9b49c26153c28a7c01210336b4c57f84a02556d142839a6f090cafe2960512c99aed55b31fdc18abf261dc"
          },
          "sequence": 4294967295
        }, 
        {
          "txid": "ea02a84e4f96bcddc618a854da5fc3d5a0a3b56afb5b60944733f781609a1ada",
          "vout": 1,
          "scriptSig": {
            "asm": "3045022100ac2c704fd00dc83da9ac3d1ef8b43dc7b1059d0078e4d785e0ec6caba547d94902206cded7d929389512f2d422b7ee332c134bd7126cc3fcbdbce6cbf7a3b8a9173d[ALL] 0328c9ae635abf580c261c44815dc1aac309e16ff26250525b7e99951369d2b8c7",
            "hex": "483045022100ac2c704fd00dc83da9ac3d1ef8b43dc7b1059d0078e4d785e0ec6caba547d94902206cded7d929389512f2d422b7ee332c134bd7126cc3fcbdbce6cbf7a3b8a9173d01210328c9ae635abf580c261c44815dc1aac309e16ff26250525b7e99951369d2b8c7"
          },
          "sequence": 4294967295
        }
      ],
      "vout": [
        {
          "value": 2.47812699,
          "n": 0,
          "scriptPubKey": {
            "asm": "OP_DUP OP_HASH160 139b1cc12cbb7bd13677d003e6f02ac25eeddbd4 OP_EQUALVERIFY OP_CHECKSIG",
            "hex": "76a914139b1cc12cbb7bd13677d003e6f02ac25eeddbd488ac",
            "reqSigs": 1,
            "type": "pubkeyhash",
            "addresses": [
              "LM1cvFWJZ9BAe5P9tqo8YfMuJuJaLmSmyK"
            ]
          }
        }, 
        {
          "value": 8.96914182,
          "n": 1,
          "scriptPubKey": {
            "asm": "OP_DUP OP_HASH160 c6e3836c2f4cd8f9c53e32813ded99ac0ce001f1 OP_EQUALVERIFY OP_CHECKSIG",
            "hex": "76a914c6e3836c2f4cd8f9c53e32813ded99ac0ce001f188ac",
            "reqSigs": 1,
            "type": "pubkeyhash",
            "addresses": [
              "LdMac6qdwFnBCVXN96dvoPjzbcE36gzs64"
            ]
          }
        }
      ],
      "hex": "0100000002788f2fe31b1e099ebb9dc5f4e2aa68d6ec031cc8192ca34dc4c41eedd2deeee3010000006b483045022100eb522a1cb3663f6d2bb0c1685df7b14ef2f4d04ca37ad1e6ad61339f40040a2a0220574e055ca9b968cdec16db90592c6f4eaa54aded6476162e9b49c26153c28a7c01210336b4c57f84a02556d142839a6f090cafe2960512c99aed55b31fdc18abf261dcffffffffda1a9a6081f7334794605bfb6ab5a3a0d5c35fda54a818c6ddbc964f4ea802ea010000006b483045022100ac2c704fd00dc83da9ac3d1ef8b43dc7b1059d0078e4d785e0ec6caba547d94902206cded7d929389512f2d422b7ee332c134bd7126cc3fcbdbce6cbf7a3b8a9173d01210328c9ae635abf580c261c44815dc1aac309e16ff26250525b7e99951369d2b8c7ffffffff025b52c50e000000001976a914139b1cc12cbb7bd13677d003e6f02ac25eeddbd488ac06d37535000000001976a914c6e3836c2f4cd8f9c53e32813ded99ac0ce001f188ac00000000"
    }, 
    {
      "txid": "ede9c502c007421474902bdad37578108e6d550ace1ed092b11b7f678291a265",
      "hash": "ede9c502c007421474902bdad37578108e6d550ace1ed092b11b7f678291a265",
      "version": 1,
      "size": 225,
      "vsize": 225,
      "locktime": 0,
      "vin": [
        {
          "txid": "b8d879ee9a462f190072dd09e1abab8e08d0960754ce8c139b83acac34a19cd8",
          "vout": 1,
          "scriptSig": {
            "asm": "304402201ef96ceb80d16ba1e107217c627a480bcdf5377df984f76d2674c7b769e6c5fb0220174bdb70882033c6e449b89304a521fe60685473b7bd8be28aeb4786cf6c04c1[ALL] 038cd91b39353460a29fca7a61d9727e215890b1c4970d1596c36cbc008ff1ce9a",
            "hex": "47304402201ef96ceb80d16ba1e107217c627a480bcdf5377df984f76d2674c7b769e6c5fb0220174bdb70882033c6e449b89304a521fe60685473b7bd8be28aeb4786cf6c04c10121038cd91b39353460a29fca7a61d9727e215890b1c4970d1596c36cbc008ff1ce9a"
          },
          "sequence": 4294967295
        }
      ],
      "vout": [
        {
          "value": 10.01058585,
          "n": 0,
          "scriptPubKey": {
            "asm": "OP_DUP OP_HASH160 60cb9daeb09c457f1303d9006b79cc09021b317d OP_EQUALVERIFY OP_CHECKSIG",
            "hex": "76a91460cb9daeb09c457f1303d9006b79cc09021b317d88ac",
            "reqSigs": 1,
            "type": "pubkeyhash",
            "addresses": [
              "LU3m47VWWBd5d6z2TdVKqiPtZNDcJMgHNh"
            ]
          }
        }, 
        {
          "value": 67.92229125,
          "n": 1,
          "scriptPubKey": {
            "asm": "OP_DUP OP_HASH160 65021f4fff95d1436aa2f3f348274e6098fa6182 OP_EQUALVERIFY OP_CHECKSIG",
            "hex": "76a91465021f4fff95d1436aa2f3f348274e6098fa618288ac",
            "reqSigs": 1,
            "type": "pubkeyhash",
            "addresses": [
              "LUS343ngBej1BeNu6KHXc5SpQ36xttNZYY"
            ]
          }
        }
      ],
      "hex": "0100000001d89ca134acac839b138cce540796d0088eababe109dd7200192f469aee79d8b8010000006a47304402201ef96ceb80d16ba1e107217c627a480bcdf5377df984f76d2674c7b769e6c5fb0220174bdb70882033c6e449b89304a521fe60685473b7bd8be28aeb4786cf6c04c10121038cd91b39353460a29fca7a61d9727e215890b1c4970d1596c36cbc008ff1ce9affffffff0219f1aa3b000000001976a91460cb9daeb09c457f1303d9006b79cc09021b317d88ac0531d994010000001976a91465021f4fff95d1436aa2f3f348274e6098fa618288ac00000000"
    }, 
    {
      "txid": "1a2b41c057a3e831fc751d110276501cfa92a3981bbf0ce593c9b22ab43197bd",
      "hash": "1a2b41c057a3e831fc751d110276501cfa92a3981bbf0ce593c9b22ab43197bd",
      "version": 1,
      "size": 225,
      "vsize": 225,
      "locktime": 0,
      "vin": [
        {
          "txid": "a048fbb531ba032c45ee36a4aab6d29fbd97f32d309748aad8d0cf2346217488",
          "vout": 0,
          "scriptSig": {
            "asm": "30440220278ec89d793d2f44cdea910edc12405144dcc5565696c0aca881639213dc936602203611cddad5e256da2b24251796b1d816a847daff3cc99661322dd31f105aa1b8[ALL] 0309860dd1042351f88e4a9469f5a595606a43933c1dd7c40097c061521a0ed06b",
            "hex": "4730440220278ec89d793d2f44cdea910edc12405144dcc5565696c0aca881639213dc936602203611cddad5e256da2b24251796b1d816a847daff3cc99661322dd31f105aa1b801210309860dd1042351f88e4a9469f5a595606a43933c1dd7c40097c061521a0ed06b"
          },
          "sequence": 4294967295
        }
      ],
      "vout": [
        {
          "value": 19.99977400,
          "n": 0,
          "scriptPubKey": {
            "asm": "OP_DUP OP_HASH160 b0f414174f185376e979aa4e4da3e536bad68738 OP_EQUALVERIFY OP_CHECKSIG",
            "hex": "76a914b0f414174f185376e979aa4e4da3e536bad6873888ac",
            "reqSigs": 1,
            "type": "pubkeyhash",
            "addresses": [
              "LbMbaqytJpM2PvLjM2F29Qk7TfvziWjeLa"
            ]
          }
        }, 
        {
          "value": 57.43727130,
          "n": 1,
          "scriptPubKey": {
            "asm": "OP_DUP OP_HASH160 9d4f8ced0268557dc1470c2d1aa2e2bb2e7dff14 OP_EQUALVERIFY OP_CHECKSIG",
            "hex": "76a9149d4f8ced0268557dc1470c2d1aa2e2bb2e7dff1488ac",
            "reqSigs": 1,
            "type": "pubkeyhash",
            "addresses": [
              "LZZjebVJRYqNfzVcdBUcQikBE7Cv5rh5Gc"
            ]
          }
        }
      ],
      "hex": "01000000018874214623cfd0d8aa4897302df397bd9fd2b6aaa436ee452c03ba31b5fb48a0000000006a4730440220278ec89d793d2f44cdea910edc12405144dcc5565696c0aca881639213dc936602203611cddad5e256da2b24251796b1d816a847daff3cc99661322dd31f105aa1b801210309860dd1042351f88e4a9469f5a595606a43933c1dd7c40097c061521a0ed06bffffffff02b83b3577000000001976a914b0f414174f185376e979aa4e4da3e536bad6873888ac1a525a56010000001976a9149d4f8ced0268557dc1470c2d1aa2e2bb2e7dff1488ac00000000"
    }, 
    {
      "txid": "b690eed4b11a66b041715917f76df9b35a26654c148837e7709511829eb82236",
      "hash": "b690eed4b11a66b041715917f76df9b35a26654c148837e7709511829eb82236",
      "version": 1,
      "size": 225,
      "vsize": 225,
      "locktime": 1357655,
      "vin": [
        {
          "txid": "610e3a3527e1281498f78f641f6e7a129a9db13eafd349d63a7f4d3f85273433",
          "vout": 0,
          "scriptSig": {
            "asm": "304402203aed25bfd031c99309493bc6ce95c793867a6e39617a56d37ef0bc06ffe309a50220503ada87c4b2996c256e5d2fdff7a43d6e1c0a65b8679261a19e699c1b64d723[ALL] 027c07985f3ae523a012c769befcf93390b0924deb9b7686cc8f7936b5ce9a632e",
            "hex": "47304402203aed25bfd031c99309493bc6ce95c793867a6e39617a56d37ef0bc06ffe309a50220503ada87c4b2996c256e5d2fdff7a43d6e1c0a65b8679261a19e699c1b64d7230121027c07985f3ae523a012c769befcf93390b0924deb9b7686cc8f7936b5ce9a632e"
          },
          "sequence": 4294967294
        }
      ],
      "vout": [
        {
          "value": 0.01008855,
          "n": 0,
          "scriptPubKey": {
            "asm": "OP_DUP OP_HASH160 51d43a82a3affa701f4ddcdf0442a9eda368ae81 OP_EQUALVERIFY OP_CHECKSIG",
            "hex": "76a91451d43a82a3affa701f4ddcdf0442a9eda368ae8188ac",
            "reqSigs": 1,
            "type": "pubkeyhash",
            "addresses": [
              "LSgdEeeMy9BCys3zCBegfBVF4NrteaF2Bq"
            ]
          }
        }, 
        {
          "value": 0.29951495,
          "n": 1,
          "scriptPubKey": {
            "asm": "OP_DUP OP_HASH160 06fdb8cb9ffdfe06b00beb9e3fc949b1f28f2780 OP_EQUALVERIFY OP_CHECKSIG",
            "hex": "76a91406fdb8cb9ffdfe06b00beb9e3fc949b1f28f278088ac",
            "reqSigs": 1,
            "type": "pubkeyhash",
            "addresses": [
              "LKrvGGUjJyra9hnGeHKc99fVTSVHHvhu6p"
            ]
          }
        }
      ],
      "hex": "0100000001333427853f4d7f3ad649d3af3eb19d9a127a6e1f648ff7981428e127353a0e61000000006a47304402203aed25bfd031c99309493bc6ce95c793867a6e39617a56d37ef0bc06ffe309a50220503ada87c4b2996c256e5d2fdff7a43d6e1c0a65b8679261a19e699c1b64d7230121027c07985f3ae523a012c769befcf93390b0924deb9b7686cc8f7936b5ce9a632efeffffff02d7640f00000000001976a91451d43a82a3affa701f4ddcdf0442a9eda368ae8188ac0706c901000000001976a91406fdb8cb9ffdfe06b00beb9e3fc949b1f28f278088ac57b71400"
    }
  ],
  "time": 1517031411,
  "mediantime": 1517030874,
  "nonce": 183570014,
  "bits": "1a047f14",
  "difficulty": 3731199.183374282,
  "chainwork": "0000000000000000000000000000000000000000000000326a39bbd9a50e4a24",
  "previousblockhash": "620fdca27d6636760306b29cb3defd7a549bdcf53a5ee6e6d9b21edc57ee9920",
  "nextblockhash": "428ef12e73884fd908050b267f37baaa277b615c375871bcd852e51d5c29f5f1"
}
