{
  "hash": "471f1118165581e95dc46b4c0e9e25700e603e85e0810abbc4072435cfe5bde8",
  "confirmations": 1581,
  "strippedsize": 266,
  "size": 266,
  "weight": 1064,
  "height": 1359413,
  "version": 536870912,
  "versionHex": "20000000",
  "merkleroot": "f0cdc1e2dacdd3262a080a5be52b92c4f9c4d419329a682c065a4cba9d831cfd",
  "tx": [
    {
      "txid": "f0cdc1e2dacdd3262a080a5be52b92c4f9c4d419329a682c065a4cba9d831cfd",
      "hash": "f0cdc1e2dacdd3262a080a5be52b92c4f9c4d419329a682c065a4cba9d831cfd",
      "version": 1,
      "size": 185,
      "vsize": 185,
      "locktime": 949331197,
      "vin": [
        {
          "coinbase": "0335be142cfabe6d6dcf9d79a6e97f44c817b558751041737b126a55e11da84901440940940b84a89608000000f09f909f134d696e6564206279207875636875616e31313100000000000000000000000000000000000000000000000000000000000000",
          "sequence": 22
        }
      ],
      "vout": [
        {
          "value": 25.00000000,
          "n": 0,
          "scriptPubKey": {
            "asm": "OP_DUP OP_HASH160 aa3750aa18b8a0f3f0590731e1fab934856680cf OP_EQUALVERIFY OP_CHECKSIG",
            "hex": "76a914aa3750aa18b8a0f3f0590731e1fab934856680cf88ac",
            "reqSigs": 1,
            "type": "pubkeyhash",
            "addresses": [
              "LajyQBeZaBA1NkZDeY8YT5RYYVRkXMvb2T"
            ]
          }
        }
      ],
      "hex": "01000000010000000000000000000000000000000000000000000000000000000000000000ffffffff640335be142cfabe6d6dcf9d79a6e97f44c817b558751041737b126a55e11da84901440940940b84a89608000000f09f909f134d696e6564206279207875636875616e31313100000000000000000000000000000000000000000000000000000000000000160000000100f90295000000001976a914aa3750aa18b8a0f3f0590731e1fab934856680cf88acfda49538"
    }
  ],
  "time": 1517279303,
  "mediantime": 1517278167,
  "nonce": 10816074,
  "bits": "1a042eae",
  "difficulty": 4011378.762614286,
  "chainwork": "000000000000000000000000000000000000000000000033fb480bbce21cca6c",
  "previousblockhash": "2e98aa595807456a2d5a09fc13373b85ccc4ab5df5fb2450999513d4962c8e2d",
  "nextblockhash": "9b145bd1f0b264a006b42b86e34be914ee4c8adeebf4163fa1cfd0734b7eff32"
}
