{
  "hash": "472fca1d29c3fb717fa0ddbab86677862db0a5db550a50f329713213f36ca002",
  "confirmations": 2484,
  "strippedsize": 253,
  "size": 253,
  "weight": 1012,
  "height": 1358511,
  "version": 536870912,
  "versionHex": "20000000",
  "merkleroot": "4b8d996f455d07c296b5cb64d2ed8188aeb1d4a4dcf7b3d75d120b47dfcc0c0f",
  "tx": [
    {
      "txid": "4b8d996f455d07c296b5cb64d2ed8188aeb1d4a4dcf7b3d75d120b47dfcc0c0f",
      "hash": "4b8d996f455d07c296b5cb64d2ed8188aeb1d4a4dcf7b3d75d120b47dfcc0c0f",
      "version": 1,
      "size": 172,
      "vsize": 172,
      "locktime": 0,
      "vin": [
        {
          "coinbase": "03afba141a4d696e656420627920416e74506f6f6c20626a331f205a6de74afabe6d6db681a3037b5b734254295fea9164a6bed9dbf01812b41ccdd6bdec1e3fb752dc0400000000000000903a00000000000011000000",
          "sequence": 4294967295
        }
      ],
      "vout": [
        {
          "value": 25.00000000,
          "n": 0,
          "scriptPubKey": {
            "asm": "OP_DUP OP_HASH160 0ff3ccc5e8be88afe24b5d634e5852d474dbdff1 OP_EQUALVERIFY OP_CHECKSIG",
            "hex": "76a9140ff3ccc5e8be88afe24b5d634e5852d474dbdff188ac",
            "reqSigs": 1,
            "type": "pubkeyhash",
            "addresses": [
              "LLgJTbzZMsRTCUF1NtvvL9SR1a4pVieW89"
            ]
          }
        }
      ],
      "hex": "01000000010000000000000000000000000000000000000000000000000000000000000000ffffffff5703afba141a4d696e656420627920416e74506f6f6c20626a331f205a6de74afabe6d6db681a3037b5b734254295fea9164a6bed9dbf01812b41ccdd6bdec1e3fb752dc0400000000000000903a00000000000011000000ffffffff0100f90295000000001976a9140ff3ccc5e8be88afe24b5d634e5852d474dbdff188ac00000000"
    }
  ],
  "time": 1517152074,
  "mediantime": 1517151617,
  "nonce": 3585221412,
  "bits": "1a047f14",
  "difficulty": 3731199.183374282,
  "chainwork": "0000000000000000000000000000000000000000000000332827c10e4447c8e0",
  "previousblockhash": "cabf5713fd0cc61099914d3558d44c7ff7d1ac80cec2a3b33f486a4619e41b4d",
  "nextblockhash": "72fcb0d6348f8b6ee7d79f85eb828bffab054fb5af7ee9287c9201874e441d0f"
}
