{
  "hash": "476864fd0e94902afef2c6a8e0162cfe59905c855b5a50d7467b19d5502929d8",
  "confirmations": 3602,
  "strippedsize": 3839,
  "size": 4206,
  "weight": 15723,
  "height": 1357393,
  "version": 536870912,
  "versionHex": "20000000",
  "merkleroot": "b262f9e8f7d929597d3a8dacb03ec4c0e279b1d3fbf9e700a381b6190efe1419",
  "tx": [
    {
      "txid": "9fe2ca494115b8b1214671e245bbabe478b5d3aea9bd408f71c66d4618fd188b",
      "hash": "702526644c520047d9dae636161556c03531ddb9e80c05b52bfe2ac989f5e0a5",
      "version": 1,
      "size": 244,
      "vsize": 217,
      "locktime": 0,
      "vin": [
        {
          "coinbase": "0351b61404d38a6b5a08fabe6d6d3f4820c5963d00b8ef8e3eafd037e9c362e289d79ecae1bf19e15188867dfffc01000000000000002000044be00e00000d2f6e6f64655374726174756d2f",
          "sequence": 0
        }
      ],
      "vout": [
        {
          "value": 0.00000000,
          "n": 0,
          "scriptPubKey": {
            "asm": "OP_RETURN aa21a9ed9ddc2af6f10970db8b34e1577f2b784729ef6a4621032a8ef27e61dc85456f66",
            "hex": "6a24aa21a9ed9ddc2af6f10970db8b34e1577f2b784729ef6a4621032a8ef27e61dc85456f66",
            "type": "nulldata"
          }
        }, 
        {
          "value": 25.01182995,
          "n": 1,
          "scriptPubKey": {
            "asm": "OP_DUP OP_HASH160 4c232182dd0b5ce8418533c8acf73ca7d8af21a1 OP_EQUALVERIFY OP_CHECKSIG",
            "hex": "76a9144c232182dd0b5ce8418533c8acf73ca7d8af21a188ac",
            "reqSigs": 1,
            "type": "pubkeyhash",
            "addresses": [
              "LSAXhjJBeyQ5nqvgrwF96Wnt2VrDGwV2Wf"
            ]
          }
        }
      ],
      "hex": "010000000001010000000000000000000000000000000000000000000000000000000000000000ffffffff4c0351b61404d38a6b5a08fabe6d6d3f4820c5963d00b8ef8e3eafd037e9c362e289d79ecae1bf19e15188867dfffc01000000000000002000044be00e00000d2f6e6f64655374726174756d2f00000000020000000000000000266a24aa21a9ed9ddc2af6f10970db8b34e1577f2b784729ef6a4621032a8ef27e61dc85456f6613061595000000001976a9144c232182dd0b5ce8418533c8acf73ca7d8af21a188ac0120000000000000000000000000000000000000000000000000000000000000000000000000"
    }, 
    {
      "txid": "ccd9ef5299525a626984d4c46c2e93d9a64d846f4beed7d58b5c76e616da1c6c",
      "hash": "ccd9ef5299525a626984d4c46c2e93d9a64d846f4beed7d58b5c76e616da1c6c",
      "version": 1,
      "size": 226,
      "vsize": 226,
      "locktime": 0,
      "vin": [
        {
          "txid": "6257b0b9ee6e6df65ef9a3398f907e2fe9a3dd596b7f88056df6ba74857821a3",
          "vout": 1,
          "scriptSig": {
            "asm": "3045022100995978600dad58bbb519a935ae972d4571365e3e1412b045ada49b2cfe2e86aa02205e82b60892378e1746b3ee0fd208bdda3e102c579e14c5246c9865bac5bc635b[ALL] 031e510a4ead9d3acb26fe12a7d09ee82c64cb154ff0cd38200bd2fda01323770d",
            "hex": "483045022100995978600dad58bbb519a935ae972d4571365e3e1412b045ada49b2cfe2e86aa02205e82b60892378e1746b3ee0fd208bdda3e102c579e14c5246c9865bac5bc635b0121031e510a4ead9d3acb26fe12a7d09ee82c64cb154ff0cd38200bd2fda01323770d"
          },
          "sequence": 4294967294
        }
      ],
      "vout": [
        {
          "value": 0.04285109,
          "n": 0,
          "scriptPubKey": {
            "asm": "OP_DUP OP_HASH160 6f9d36b4d499ed877e5d5f80da44a2f72fc90986 OP_EQUALVERIFY OP_CHECKSIG",
            "hex": "76a9146f9d36b4d499ed877e5d5f80da44a2f72fc9098688ac",
            "reqSigs": 1,
            "type": "pubkeyhash",
            "addresses": [
              "LVQ7buTpQYT8Niq2d3f9G7RzqAnLYFRXnb"
            ]
          }
        }, 
        {
          "value": 3.18329359,
          "n": 1,
          "scriptPubKey": {
            "asm": "OP_DUP OP_HASH160 6eb2785876a9bd5898cad56911adee179ff8047e OP_EQUALVERIFY OP_CHECKSIG",
            "hex": "76a9146eb2785876a9bd5898cad56911adee179ff8047e88ac",
            "reqSigs": 1,
            "type": "pubkeyhash",
            "addresses": [
              "LVKGPdk12MMPBUwoDKrhs2at4F8CPUVgYh"
            ]
          }
        }
      ],
      "hex": "0100000001a321788574baf66d05887f6b59dda3e92f7e908f39a3f95ef66d6eeeb9b05762010000006b483045022100995978600dad58bbb519a935ae972d4571365e3e1412b045ada49b2cfe2e86aa02205e82b60892378e1746b3ee0fd208bdda3e102c579e14c5246c9865bac5bc635b0121031e510a4ead9d3acb26fe12a7d09ee82c64cb154ff0cd38200bd2fda01323770dfeffffff02b5624100000000001976a9146f9d36b4d499ed877e5d5f80da44a2f72fc9098688ac0f52f912000000001976a9146eb2785876a9bd5898cad56911adee179ff8047e88ac00000000"
    }, 
    {
      "txid": "5afb7adfdbfa5197d39a7a3fbc618158ff087d8f68eb1c94d3e0f1acc8018ecc",
      "hash": "07c89037aa2177cb0ae15701c11b2c89b3102cff12fa3dddeeb38b9d2bc907ad",
      "version": 1,
      "size": 373,
      "vsize": 208,
      "locktime": 0,
      "vin": [
        {
          "txid": "1b197b491954b5f00d155e676e9fd1c1268cf5f38fa242e781cdbe4e887472bf",
          "vout": 1,
          "scriptSig": {
            "asm": "00205745bf842f241b537246889ab3d88402d8f62d3df8ff6e936e88961e1a0fafca",
            "hex": "2200205745bf842f241b537246889ab3d88402d8f62d3df8ff6e936e88961e1a0fafca"
          },
          "txinwitness": [
            "", 
            "3045022100b5b69aa0880c917c9fcacd4dc37159c92073ec43f4b3fed481ffd1e5b575b47c022041f279206246c66dd7c42d29cb8562c6390b4cee4a3c738c0ee54c8d7ca4cffa01", 
            "304402206185ada08dd26d4814eaad6c4837cd53e95cad54249c9da7106a52d2f7228dd102204e0208c1d958590fc7ad8e2948eeca8eafe7c8edd2f485cf58f79a497039ec2501", 
            "522102f35d8a6ca8697d26b55da33bf2b2b495190c6aadffb1cff09c2a6121f99077ea210235de611525feac0afecdd7faefde5b645b007e2de1e7e9477ff773a9529a435e52ae"
          ],
          "sequence": 4294967295
        }
      ],
      "vout": [
        {
          "value": 0.09731413,
          "n": 0,
          "scriptPubKey": {
            "asm": "OP_DUP OP_HASH160 96d0b3ad857b4837e4a2bf80517e7d60d51f4047 OP_EQUALVERIFY OP_CHECKSIG",
            "hex": "76a91496d0b3ad857b4837e4a2bf80517e7d60d51f404788ac",
            "reqSigs": 1,
            "type": "pubkeyhash",
            "addresses": [
              "LYyPdr7AQSgstwiAx6Ex9yLrEyeNk4sf3S"
            ]
          }
        }, 
        {
          "value": 0.36716748,
          "n": 1,
          "scriptPubKey": {
            "asm": "OP_HASH160 44a6982056781878ed3be0994f5b5b5520beb305 OP_EQUAL",
            "hex": "a91444a6982056781878ed3be0994f5b5b5520beb30587",
            "reqSigs": 1,
            "type": "scripthash",
            "addresses": [
              "MEA9keQ7F5pNh5GkQhiayEVjnAYm8t96mM"
            ]
          }
        }
      ],
      "hex": "01000000000101bf7274884ebecd81e742a28ff3f58c26c1d19f6e675e150df0b55419497b191b01000000232200205745bf842f241b537246889ab3d88402d8f62d3df8ff6e936e88961e1a0fafcaffffffff02557d9400000000001976a91496d0b3ad857b4837e4a2bf80517e7d60d51f404788accc4030020000000017a91444a6982056781878ed3be0994f5b5b5520beb305870400483045022100b5b69aa0880c917c9fcacd4dc37159c92073ec43f4b3fed481ffd1e5b575b47c022041f279206246c66dd7c42d29cb8562c6390b4cee4a3c738c0ee54c8d7ca4cffa0147304402206185ada08dd26d4814eaad6c4837cd53e95cad54249c9da7106a52d2f7228dd102204e0208c1d958590fc7ad8e2948eeca8eafe7c8edd2f485cf58f79a497039ec250147522102f35d8a6ca8697d26b55da33bf2b2b495190c6aadffb1cff09c2a6121f99077ea210235de611525feac0afecdd7faefde5b645b007e2de1e7e9477ff773a9529a435e52ae00000000"
    }, 
    {
      "txid": "527c99fc194faac537174fe2f4ba5fb3a182372f026e95e7d3f34acb08b1bcd8",
      "hash": "e69c3fc14c38f09569cd10d4b60e5bafd564bc5a83fc3744d3701551f8772131",
      "version": 1,
      "size": 250,
      "vsize": 168,
      "locktime": 0,
      "vin": [
        {
          "txid": "7c8eda0742508aad6fbc726dc776e325cc80ca6c34e79988fc68425cfb87c2ec",
          "vout": 2,
          "scriptSig": {
            "asm": "00148b06c39788baf6ddf8b530070cf1d5d5a5cb6a1c",
            "hex": "1600148b06c39788baf6ddf8b530070cf1d5d5a5cb6a1c"
          },
          "txinwitness": [
            "3045022100ab89ba60edb3298cca2448f12be35158574f8a2c076a6750167fd7f234547aae022036095dc49d6833ffa149debad0e2fadd18afc9a73099eb91930a875d81b5ffb601", 
            "0240f292512476cdcc5fcf78fad8a520e3922addf94c212e57b8332f017d24cfd0"
          ],
          "sequence": 4294967295
        }
      ],
      "vout": [
        {
          "value": 0.58000000,
          "n": 0,
          "scriptPubKey": {
            "asm": "OP_DUP OP_HASH160 c2a9b11e4b6c0cb6a084553801480cf5584df6ee OP_EQUALVERIFY OP_CHECKSIG",
            "hex": "76a914c2a9b11e4b6c0cb6a084553801480cf5584df6ee88ac",
            "reqSigs": 1,
            "type": "pubkeyhash",
            "addresses": [
              "LcyEdprNb91iEeVKmbJBHwBoQuzrGrCSEx"
            ]
          }
        }, 
        {
          "value": 2.21591010,
          "n": 1,
          "scriptPubKey": {
            "asm": "OP_HASH160 b3ba5ea159e46d65e1e1975fd154fd4da8c95e5f OP_EQUAL",
            "hex": "a914b3ba5ea159e46d65e1e1975fd154fd4da8c95e5f87",
            "reqSigs": 1,
            "type": "scripthash",
            "addresses": [
              "MQHUSxXHnnqpGQQf5dT8yX2ypamTdU8GNQ"
            ]
          }
        }
      ],
      "hex": "01000000000101ecc287fb5c4268fc8899e7346cca80cc25e376c76d72bc6fad8a504207da8e7c02000000171600148b06c39788baf6ddf8b530070cf1d5d5a5cb6a1cffffffff0280027503000000001976a914c2a9b11e4b6c0cb6a084553801480cf5584df6ee88ace235350d0000000017a914b3ba5ea159e46d65e1e1975fd154fd4da8c95e5f8702483045022100ab89ba60edb3298cca2448f12be35158574f8a2c076a6750167fd7f234547aae022036095dc49d6833ffa149debad0e2fadd18afc9a73099eb91930a875d81b5ffb601210240f292512476cdcc5fcf78fad8a520e3922addf94c212e57b8332f017d24cfd000000000"
    }, 
    {
      "txid": "722f9f827677ae5e193102663db4acc8370f23192e8383c06c4f4bcd88c7b90a",
      "hash": "722f9f827677ae5e193102663db4acc8370f23192e8383c06c4f4bcd88c7b90a",
      "version": 1,
      "size": 225,
      "vsize": 225,
      "locktime": 0,
      "vin": [
        {
          "txid": "c6f3052130da87937669e5cfc4589e9e5bda8d0c5c49fbd729703212bea9958e",
          "vout": 1,
          "scriptSig": {
            "asm": "304402204a3e31e83bfa892ae3950e5667abc7b447b5933fc087f192a6234e63a433819302203d0772e52f04c5f08a43f453d0b2df176e2ce6918f014105cd7e717d6ce8600d[ALL] 0387ca0a74a764e375ecf9a4be3198cccf840bb4d74c75665c230ce260a60ba4c3",
            "hex": "47304402204a3e31e83bfa892ae3950e5667abc7b447b5933fc087f192a6234e63a433819302203d0772e52f04c5f08a43f453d0b2df176e2ce6918f014105cd7e717d6ce8600d01210387ca0a74a764e375ecf9a4be3198cccf840bb4d74c75665c230ce260a60ba4c3"
          },
          "sequence": 4294967295
        }
      ],
      "vout": [
        {
          "value": 0.05751092,
          "n": 0,
          "scriptPubKey": {
            "asm": "OP_DUP OP_HASH160 797f2ed58693a8246e6f6a56435ef78392991cd8 OP_EQUALVERIFY OP_CHECKSIG",
            "hex": "76a914797f2ed58693a8246e6f6a56435ef78392991cd888ac",
            "reqSigs": 1,
            "type": "pubkeyhash",
            "addresses": [
              "LWJNPFUrmSH1kcr7bfpxAMTo2jtaEGJ7TF"
            ]
          }
        }, 
        {
          "value": 42.57021030,
          "n": 1,
          "scriptPubKey": {
            "asm": "OP_DUP OP_HASH160 b78f0860a9fb14a1a947b64ec21b300a8964c618 OP_EQUALVERIFY OP_CHECKSIG",
            "hex": "76a914b78f0860a9fb14a1a947b64ec21b300a8964c61888ac",
            "reqSigs": 1,
            "type": "pubkeyhash",
            "addresses": [
              "LbxXGQVpxeEkC7HPCPxRZFZ75xAmeJVfsW"
            ]
          }
        }
      ],
      "hex": "01000000018e95a9be12327029d7fb495c0c8dda5b9e9e58c4cfe569769387da302105f3c6010000006a47304402204a3e31e83bfa892ae3950e5667abc7b447b5933fc087f192a6234e63a433819302203d0772e52f04c5f08a43f453d0b2df176e2ce6918f014105cd7e717d6ce8600d01210387ca0a74a764e375ecf9a4be3198cccf840bb4d74c75665c230ce260a60ba4c3ffffffff0234c15700000000001976a914797f2ed58693a8246e6f6a56435ef78392991cd888ac66fcbcfd000000001976a914b78f0860a9fb14a1a947b64ec21b300a8964c61888ac00000000"
    }, 
    {
      "txid": "4f77bb9269e36592fccf10ab8dfe55522d05b7f7e962a622faf37078e284c599",
      "hash": "4f77bb9269e36592fccf10ab8dfe55522d05b7f7e962a622faf37078e284c599",
      "version": 1,
      "size": 634,
      "vsize": 634,
      "locktime": 1357391,
      "vin": [
        {
          "txid": "1b8778e6dc5304294f7b93cc5bf1bbfbfb12da1616777fc92f95f9b5abc591a6",
          "vout": 1,
          "scriptSig": {
            "asm": "3045022100b65b4fea1a6faaa9e44fca763c2b1b97c7cb3593f02033ef7a96177a0673d2e002202822f634f1065d9a04eef1aeb1b59166a63262778101db74d9a5ecf55ce3a4b5[ALL] 02fd5bd2d5037ef11a63af054f6c359959c5749abcc13704d13ed1b9932b3de6ff",
            "hex": "483045022100b65b4fea1a6faaa9e44fca763c2b1b97c7cb3593f02033ef7a96177a0673d2e002202822f634f1065d9a04eef1aeb1b59166a63262778101db74d9a5ecf55ce3a4b5012102fd5bd2d5037ef11a63af054f6c359959c5749abcc13704d13ed1b9932b3de6ff"
          },
          "sequence": 4294967294
        }, 
        {
          "txid": "c1111ec89cf97f9e1b0fd1dedce0c08281038b2fc065a1a4cd7f6a0820066cf2",
          "vout": 1,
          "scriptSig": {
            "asm": "304402205c462fcf5eed177e2602f03fb20e743968cd60767079dea8141a145564f1575e02207c5c1f5a4e3fb275aecceedf7d96aa302011db678ccb083edb08442a11d02779[ALL] 02fd5bd2d5037ef11a63af054f6c359959c5749abcc13704d13ed1b9932b3de6ff",
            "hex": "47304402205c462fcf5eed177e2602f03fb20e743968cd60767079dea8141a145564f1575e02207c5c1f5a4e3fb275aecceedf7d96aa302011db678ccb083edb08442a11d02779012102fd5bd2d5037ef11a63af054f6c359959c5749abcc13704d13ed1b9932b3de6ff"
          },
          "sequence": 4294967294
        }, 
        {
          "txid": "eaaf61d9636be02fe91115c5bb1b71b4080aa5620e81185a1d47290b9d9a97ef",
          "vout": 0,
          "scriptSig": {
            "asm": "3045022100cb4c350fe8b6386eff95d77f73172d7200b680f3328dc6ab71cc0fbedd02d1930220117342a5a325cf90b902022abf50e259bf54c1caa3c9cbd3a9237d825bff20f0[ALL] 02fd5bd2d5037ef11a63af054f6c359959c5749abcc13704d13ed1b9932b3de6ff",
            "hex": "483045022100cb4c350fe8b6386eff95d77f73172d7200b680f3328dc6ab71cc0fbedd02d1930220117342a5a325cf90b902022abf50e259bf54c1caa3c9cbd3a9237d825bff20f0012102fd5bd2d5037ef11a63af054f6c359959c5749abcc13704d13ed1b9932b3de6ff"
          },
          "sequence": 4294967294
        }, 
        {
          "txid": "face861244df968fa7202006b5b8dae9e6ab5591235e2252569efb995c1a2703",
          "vout": 1,
          "scriptSig": {
            "asm": "304402203e82daa98cbdb49a8e53ba187a0452de5382cffdb026caef504d47514c56d5cb022042c459271cf154b57ed06dc5cafe1ced0404916c2c511fd356f351feda42a0a8[ALL] 02fd5bd2d5037ef11a63af054f6c359959c5749abcc13704d13ed1b9932b3de6ff",
            "hex": "47304402203e82daa98cbdb49a8e53ba187a0452de5382cffdb026caef504d47514c56d5cb022042c459271cf154b57ed06dc5cafe1ced0404916c2c511fd356f351feda42a0a8012102fd5bd2d5037ef11a63af054f6c359959c5749abcc13704d13ed1b9932b3de6ff"
          },
          "sequence": 4294967294
        }
      ],
      "vout": [
        {
          "value": 5.39254905,
          "n": 0,
          "scriptPubKey": {
            "asm": "OP_DUP OP_HASH160 1585a9156daf42bb300f5c206e7235fbbb561a1d OP_EQUALVERIFY OP_CHECKSIG",
            "hex": "76a9141585a9156daf42bb300f5c206e7235fbbb561a1d88ac",
            "reqSigs": 1,
            "type": "pubkeyhash",
            "addresses": [
              "LMBka8mAqiV7YKgEFp4AcCFRaP4KTskCvE"
            ]
          }
        }
      ],
      "hex": "0100000004a691c5abb5f9952fc97f771616da12fbfbbbf15bcc937b4f290453dce678871b010000006b483045022100b65b4fea1a6faaa9e44fca763c2b1b97c7cb3593f02033ef7a96177a0673d2e002202822f634f1065d9a04eef1aeb1b59166a63262778101db74d9a5ecf55ce3a4b5012102fd5bd2d5037ef11a63af054f6c359959c5749abcc13704d13ed1b9932b3de6fffefffffff26c0620086a7fcda4a165c02f8b038182c0e0dcded10f1b9e7ff99cc81e11c1010000006a47304402205c462fcf5eed177e2602f03fb20e743968cd60767079dea8141a145564f1575e02207c5c1f5a4e3fb275aecceedf7d96aa302011db678ccb083edb08442a11d02779012102fd5bd2d5037ef11a63af054f6c359959c5749abcc13704d13ed1b9932b3de6fffeffffffef979a9d0b29471d5a18810e62a50a08b4711bbbc51511e92fe06b63d961afea000000006b483045022100cb4c350fe8b6386eff95d77f73172d7200b680f3328dc6ab71cc0fbedd02d1930220117342a5a325cf90b902022abf50e259bf54c1caa3c9cbd3a9237d825bff20f0012102fd5bd2d5037ef11a63af054f6c359959c5749abcc13704d13ed1b9932b3de6fffeffffff03271a5c99fb9e5652225e239155abe6e9dab8b5062020a78f96df441286cefa010000006a47304402203e82daa98cbdb49a8e53ba187a0452de5382cffdb026caef504d47514c56d5cb022042c459271cf154b57ed06dc5cafe1ced0404916c2c511fd356f351feda42a0a8012102fd5bd2d5037ef11a63af054f6c359959c5749abcc13704d13ed1b9932b3de6fffeffffff0179602420000000001976a9141585a9156daf42bb300f5c206e7235fbbb561a1d88ac4fb61400"
    }, 
    {
      "txid": "3081c57485d9d3dea404580ed1f1c321beef2d7ad4067d6effe2696251bebf6f",
      "hash": "3081c57485d9d3dea404580ed1f1c321beef2d7ad4067d6effe2696251bebf6f",
      "version": 2,
      "size": 372,
      "vsize": 372,
      "locktime": 1357356,
      "vin": [
        {
          "txid": "054cdfaca1334f82c65b5ea30119e7df2d29ee76a33f16ef049ca280c1316a65",
          "vout": 34,
          "scriptSig": {
            "asm": "304402201f9cc0f51312c4a31e842ffd525018f788cda495a8e523846aa19dc833fbaedb02205c54b62e2002c525af076c203e9afae228ea189f64b5005cb625717ac457b9b9[ALL] 02fab99bed42d28beca2a8b87ebc5c2231fcc5443c38722077d601a33fce44ec2b",
            "hex": "47304402201f9cc0f51312c4a31e842ffd525018f788cda495a8e523846aa19dc833fbaedb02205c54b62e2002c525af076c203e9afae228ea189f64b5005cb625717ac457b9b9012102fab99bed42d28beca2a8b87ebc5c2231fcc5443c38722077d601a33fce44ec2b"
          },
          "sequence": 4294967294
        }, 
        {
          "txid": "6e64d08c68f199ec789d11c59ada058054570518fa18c8c4a657af86705856ad",
          "vout": 1,
          "scriptSig": {
            "asm": "304402207edf5c9dd0c9d3656c778e80bc6550d8780527c80080e7badf99f453d20ee4aa02204d23e73045bec725086f0d54e8fb50dbbade115370598ab04e97f6e52294f3b1[ALL] 03b368e45a279e9ace7002565ab67466e6943027919cbee6addf2aacc4c9598ec1",
            "hex": "47304402207edf5c9dd0c9d3656c778e80bc6550d8780527c80080e7badf99f453d20ee4aa02204d23e73045bec725086f0d54e8fb50dbbade115370598ab04e97f6e52294f3b1012103b368e45a279e9ace7002565ab67466e6943027919cbee6addf2aacc4c9598ec1"
          },
          "sequence": 4294967294
        }
      ],
      "vout": [
        {
          "value": 1.94000000,
          "n": 0,
          "scriptPubKey": {
            "asm": "OP_DUP OP_HASH160 29b98cd04a066166c57a90957ea945c6b0eada89 OP_EQUALVERIFY OP_CHECKSIG",
            "hex": "76a91429b98cd04a066166c57a90957ea945c6b0eada8988ac",
            "reqSigs": 1,
            "type": "pubkeyhash",
            "addresses": [
              "LP2aFKchxjLLM1sUbFGet8128ctGfh7CP7"
            ]
          }
        }, 
        {
          "value": 0.00996612,
          "n": 1,
          "scriptPubKey": {
            "asm": "OP_DUP OP_HASH160 ab6134d055a990f858fcf2366cdde5085f9aa309 OP_EQUALVERIFY OP_CHECKSIG",
            "hex": "76a914ab6134d055a990f858fcf2366cdde5085f9aa30988ac",
            "reqSigs": 1,
            "type": "pubkeyhash",
            "addresses": [
              "Lar8G2brMm1bxLM8BpHYfcnhw7ZtGpK3Ui"
            ]
          }
        }
      ],
      "hex": "0200000002656a31c180a29c04ef163fa376ee292ddfe71901a35e5bc6824f33a1acdf4c05220000006a47304402201f9cc0f51312c4a31e842ffd525018f788cda495a8e523846aa19dc833fbaedb02205c54b62e2002c525af076c203e9afae228ea189f64b5005cb625717ac457b9b9012102fab99bed42d28beca2a8b87ebc5c2231fcc5443c38722077d601a33fce44ec2bfeffffffad56587086af57a6c4c818fa180557548005da9ac5119d78ec99f1688cd0646e010000006a47304402207edf5c9dd0c9d3656c778e80bc6550d8780527c80080e7badf99f453d20ee4aa02204d23e73045bec725086f0d54e8fb50dbbade115370598ab04e97f6e52294f3b1012103b368e45a279e9ace7002565ab67466e6943027919cbee6addf2aacc4c9598ec1feffffff028034900b000000001976a91429b98cd04a066166c57a90957ea945c6b0eada8988ac04350f00000000001976a914ab6134d055a990f858fcf2366cdde5085f9aa30988ac2cb61400"
    }, 
    {
      "txid": "80d6a6385157137e93a9efa03670ebf2ef723ca527f5214c0e63bbe2f4707588",
      "hash": "80d6a6385157137e93a9efa03670ebf2ef723ca527f5214c0e63bbe2f4707588",
      "version": 2,
      "size": 223,
      "vsize": 223,
      "locktime": 1357391,
      "vin": [
        {
          "txid": "1b2c95ff79582f4bf022e3554c8b0e12fadc8de3b623cb3ccc4fa76e1c766600",
          "vout": 1,
          "scriptSig": {
            "asm": "3044022005bed3b652adc8d83f92a70a9c2de1803ff4107295654f166e92e441ce4eb8e802201acf29d94d91945ef46c70484edfbfbac9116c76a99835f29649188695945ec7[ALL] 038819a5baf9a59d09438a64c259b216aef8fbb062751f9543f6cbf3428eaec150",
            "hex": "473044022005bed3b652adc8d83f92a70a9c2de1803ff4107295654f166e92e441ce4eb8e802201acf29d94d91945ef46c70484edfbfbac9116c76a99835f29649188695945ec70121038819a5baf9a59d09438a64c259b216aef8fbb062751f9543f6cbf3428eaec150"
          },
          "sequence": 4294967294
        }
      ],
      "vout": [
        {
          "value": 4.37438225,
          "n": 0,
          "scriptPubKey": {
            "asm": "OP_DUP OP_HASH160 a6cd093e906759aee38ec57594937c2107516389 OP_EQUALVERIFY OP_CHECKSIG",
            "hex": "76a914a6cd093e906759aee38ec57594937c210751638988ac",
            "reqSigs": 1,
            "type": "pubkeyhash",
            "addresses": [
              "LaRv4DTXrGaAw45Kh7pMt74DDWxkikxjMb"
            ]
          }
        }, 
        {
          "value": 0.71044407,
          "n": 1,
          "scriptPubKey": {
            "asm": "OP_HASH160 711f0d50a060964afad3b753a8c43a32ab80479a OP_EQUAL",
            "hex": "a914711f0d50a060964afad3b753a8c43a32ab80479a87",
            "reqSigs": 1,
            "type": "scripthash",
            "addresses": [
              "MJDHndzY1atAbxgRacgWg4fjTxJQeAgYZT"
            ]
          }
        }
      ],
      "hex": "02000000010066761c6ea74fcc3ccb23b6e38ddcfa120e8b4c55e322f04b2f5879ff952c1b010000006a473044022005bed3b652adc8d83f92a70a9c2de1803ff4107295654f166e92e441ce4eb8e802201acf29d94d91945ef46c70484edfbfbac9116c76a99835f29649188695945ec70121038819a5baf9a59d09438a64c259b216aef8fbb062751f9543f6cbf3428eaec150feffffff0211c7121a000000001976a914a6cd093e906759aee38ec57594937c210751638988ac370d3c040000000017a914711f0d50a060964afad3b753a8c43a32ab80479a874fb61400"
    }, 
    {
      "txid": "531449eb335e9ee61e011949345dd613e3781a5a4ef4cf2c55591c3a3123d302",
      "hash": "531449eb335e9ee61e011949345dd613e3781a5a4ef4cf2c55591c3a3123d302",
      "version": 1,
      "size": 225,
      "vsize": 225,
      "locktime": 0,
      "vin": [
        {
          "txid": "8abfcc4adcffd972c4d845f1b9c23fa20a4815fd5db01432a98d87cb1ebf5a90",
          "vout": 1,
          "scriptSig": {
            "asm": "304402204db8d5b631b9cab8d5ed0b12d1b2d73d1cc5f2c09c09251d6c1706a6b576593902204bf214fc10caad47c2f2995d5724ae7c6b7c08fb8438c61cc57dc454b1f7832e[ALL] 03c399455c85bc080bce2b99799e5644e7333ee01a2511690709c56f8df914c955",
            "hex": "47304402204db8d5b631b9cab8d5ed0b12d1b2d73d1cc5f2c09c09251d6c1706a6b576593902204bf214fc10caad47c2f2995d5724ae7c6b7c08fb8438c61cc57dc454b1f7832e012103c399455c85bc080bce2b99799e5644e7333ee01a2511690709c56f8df914c955"
          },
          "sequence": 4294967295
        }
      ],
      "vout": [
        {
          "value": 43.55857822,
          "n": 0,
          "scriptPubKey": {
            "asm": "OP_DUP OP_HASH160 9821308b6c847e82c3bc2539f4f50c9f738f3219 OP_EQUALVERIFY OP_CHECKSIG",
            "hex": "76a9149821308b6c847e82c3bc2539f4f50c9f738f321988ac",
            "reqSigs": 1,
            "type": "pubkeyhash",
            "addresses": [
              "LZ6LjRicT3ZWKpczpnYF14NZ875Xrgdm5J"
            ]
          }
        }, 
        {
          "value": 3.22341978,
          "n": 1,
          "scriptPubKey": {
            "asm": "OP_DUP OP_HASH160 f4a6e0bb85c2a1b5f9bef65471de0bf7f15f688a OP_EQUALVERIFY OP_CHECKSIG",
            "hex": "76a914f4a6e0bb85c2a1b5f9bef65471de0bf7f15f688a88ac",
            "reqSigs": 1,
            "type": "pubkeyhash",
            "addresses": [
              "LhXZ3txoYGwtpWd5oh2cqUxSTyxp1dUVSh"
            ]
          }
        }
      ],
      "hex": "0100000001905abf1ecb878da93214b05dfd15480aa23fc2b9f145d8c472d9ffdc4accbf8a010000006a47304402204db8d5b631b9cab8d5ed0b12d1b2d73d1cc5f2c09c09251d6c1706a6b576593902204bf214fc10caad47c2f2995d5724ae7c6b7c08fb8438c61cc57dc454b1f7832e012103c399455c85bc080bce2b99799e5644e7333ee01a2511690709c56f8df914c955ffffffff029e1da103010000001976a9149821308b6c847e82c3bc2539f4f50c9f738f321988ac5a8c3613000000001976a914f4a6e0bb85c2a1b5f9bef65471de0bf7f15f688a88ac00000000"
    }, 
    {
      "txid": "55e56d131ecb6dc8876500297208baa4a0d36d95e2a506b8cb0804223d88f461",
      "hash": "55e56d131ecb6dc8876500297208baa4a0d36d95e2a506b8cb0804223d88f461",
      "version": 1,
      "size": 225,
      "vsize": 225,
      "locktime": 0,
      "vin": [
        {
          "txid": "d479fe154bba2f8641e9ec64305dbb918e529af0aac85027817c955423f401be",
          "vout": 62,
          "scriptSig": {
            "asm": "304402203aab9535ae75d6327228eef48dcd71444dff7883bfe194eec2866fb68a6d9aa9022077eac4febc34fc5fd0dff0584832e6869eb83d1b4cbdefcd566d52b4a5774dc5[ALL] 0399867a05505ecfbf01acb467c0b8790fb92c35a6eabac1d4c995c2b9dc616662",
            "hex": "47304402203aab9535ae75d6327228eef48dcd71444dff7883bfe194eec2866fb68a6d9aa9022077eac4febc34fc5fd0dff0584832e6869eb83d1b4cbdefcd566d52b4a5774dc501210399867a05505ecfbf01acb467c0b8790fb92c35a6eabac1d4c995c2b9dc616662"
          },
          "sequence": 4294967295
        }
      ],
      "vout": [
        {
          "value": 0.33687227,
          "n": 0,
          "scriptPubKey": {
            "asm": "OP_DUP OP_HASH160 0239e30c4b5ddc9115a50c7ecd826a333f149813 OP_EQUALVERIFY OP_CHECKSIG",
            "hex": "76a9140239e30c4b5ddc9115a50c7ecd826a333f14981388ac",
            "reqSigs": 1,
            "type": "pubkeyhash",
            "addresses": [
              "LKRixecxseyGzZgEWs5RYSJjVs7h8GLL4z"
            ]
          }
        }, 
        {
          "value": 0.66290173,
          "n": 1,
          "scriptPubKey": {
            "asm": "OP_DUP OP_HASH160 50bc538c3ae13efd9c432ec2f9a86634a64a031e OP_EQUALVERIFY OP_CHECKSIG",
            "hex": "76a91450bc538c3ae13efd9c432ec2f9a86634a64a031e88ac",
            "reqSigs": 1,
            "type": "pubkeyhash",
            "addresses": [
              "LSaqvhoHtdSrREBCTnbqj6zHm6cqyx3ZqV"
            ]
          }
        }
      ],
      "hex": "0100000001be01f42354957c812750c8aaf09a528e91bb5d3064ece941862fba4b15fe79d43e0000006a47304402203aab9535ae75d6327228eef48dcd71444dff7883bfe194eec2866fb68a6d9aa9022077eac4febc34fc5fd0dff0584832e6869eb83d1b4cbdefcd566d52b4a5774dc501210399867a05505ecfbf01acb467c0b8790fb92c35a6eabac1d4c995c2b9dc616662ffffffff02bb060202000000001976a9140239e30c4b5ddc9115a50c7ecd826a333f14981388acfd81f303000000001976a91450bc538c3ae13efd9c432ec2f9a86634a64a031e88ac00000000"
    }, 
    {
      "txid": "da589ff4ffcc1a1f0d1a5e8ea320e409577b03b19e1cbb8e05c021866c42ed73",
      "hash": "da589ff4ffcc1a1f0d1a5e8ea320e409577b03b19e1cbb8e05c021866c42ed73",
      "version": 1,
      "size": 225,
      "vsize": 225,
      "locktime": 0,
      "vin": [
        {
          "txid": "180fcb407d5184fc22de7a15b6933080aad325b9f34af327d4c86953c5ffec08",
          "vout": 0,
          "scriptSig": {
            "asm": "3044022041679e51972cbe38847cfb3060e03bffd4985534744f1479af9553eb24b6a42f022001e1f28f22d4ea8e6939aa26d8a3e28987eb9a19b5ab1307c263efc5b962f323[ALL] 03ea25b05231a5e726d8ec7518b6781942e6c7b1bccd48943140dde522eec63c7f",
            "hex": "473044022041679e51972cbe38847cfb3060e03bffd4985534744f1479af9553eb24b6a42f022001e1f28f22d4ea8e6939aa26d8a3e28987eb9a19b5ab1307c263efc5b962f323012103ea25b05231a5e726d8ec7518b6781942e6c7b1bccd48943140dde522eec63c7f"
          },
          "sequence": 4294967295
        }
      ],
      "vout": [
        {
          "value": 4.12741602,
          "n": 0,
          "scriptPubKey": {
            "asm": "OP_DUP OP_HASH160 f8a67664dae6d4ca000de52ea298fe11727baa94 OP_EQUALVERIFY OP_CHECKSIG",
            "hex": "76a914f8a67664dae6d4ca000de52ea298fe11727baa9488ac",
            "reqSigs": 1,
            "type": "pubkeyhash",
            "addresses": [
              "LhthFoW9fTfwkaWLTi8fugeQRsMFENJUyB"
            ]
          }
        }, 
        {
          "value": 40.68541889,
          "n": 1,
          "scriptPubKey": {
            "asm": "OP_DUP OP_HASH160 24ba5fa7e1b4c971a79ece792196a7bf7042133a OP_EQUALVERIFY OP_CHECKSIG",
            "hex": "76a91424ba5fa7e1b4c971a79ece792196a7bf7042133a88ac",
            "reqSigs": 1,
            "type": "pubkeyhash",
            "addresses": [
              "LNa9rb2dCJWCiFqoL2f2uDREbSR8XRz3Mp"
            ]
          }
        }
      ],
      "hex": "010000000108ecffc55369c8d427f34af3b925d3aa803093b6157ade22fc84517d40cb0f18000000006a473044022041679e51972cbe38847cfb3060e03bffd4985534744f1479af9553eb24b6a42f022001e1f28f22d4ea8e6939aa26d8a3e28987eb9a19b5ab1307c263efc5b962f323012103ea25b05231a5e726d8ec7518b6781942e6c7b1bccd48943140dde522eec63c7fffffffff02e2ef9918000000001976a914f8a67664dae6d4ca000de52ea298fe11727baa9488acc10581f2000000001976a91424ba5fa7e1b4c971a79ece792196a7bf7042133a88ac00000000"
    }, 
    {
      "txid": "1004f55f2960e96d314bd7585180ecbfdb7132aa84ba6fa5c17668a6aa4739f5",
      "hash": "1004f55f2960e96d314bd7585180ecbfdb7132aa84ba6fa5c17668a6aa4739f5",
      "version": 1,
      "size": 225,
      "vsize": 225,
      "locktime": 0,
      "vin": [
        {
          "txid": "60ae2b3182f27aefc68b44293c4562d7697fcecb6a41b3c3d8627eb07edd721e",
          "vout": 16,
          "scriptSig": {
            "asm": "3044022051433148d189d9aa4f1eb2a365c8f1e516c71d90b844bd3d840f5514ad71be9402201100a4909cbb743a437f82a863b21f0e4cfe964e8a6138c01a3d9811746d5139[ALL] 0345a284690d720a107b8f4b0afffa02c73e5aaea09191233c75808fbba87dfc6b",
            "hex": "473044022051433148d189d9aa4f1eb2a365c8f1e516c71d90b844bd3d840f5514ad71be9402201100a4909cbb743a437f82a863b21f0e4cfe964e8a6138c01a3d9811746d513901210345a284690d720a107b8f4b0afffa02c73e5aaea09191233c75808fbba87dfc6b"
          },
          "sequence": 4294967295
        }
      ],
      "vout": [
        {
          "value": 0.73000000,
          "n": 0,
          "scriptPubKey": {
            "asm": "OP_DUP OP_HASH160 2841d54ff086b11c165df46f9fe59352e4cd5f8e OP_EQUALVERIFY OP_CHECKSIG",
            "hex": "76a9142841d54ff086b11c165df46f9fe59352e4cd5f8e88ac",
            "reqSigs": 1,
            "type": "pubkeyhash",
            "addresses": [
              "LNtpA4UTPeQxbTz9FCYDnA3nXR5PFwL2rp"
            ]
          }
        }, 
        {
          "value": 0.26977400,
          "n": 1,
          "scriptPubKey": {
            "asm": "OP_DUP OP_HASH160 9481d3211aa2f9edc9704601f4aa59e9f5d92dd6 OP_EQUALVERIFY OP_CHECKSIG",
            "hex": "76a9149481d3211aa2f9edc9704601f4aa59e9f5d92dd688ac",
            "reqSigs": 1,
            "type": "pubkeyhash",
            "addresses": [
              "LYmBnz1z9KmTej6SL3ywUwBcZ1CN85hpcb"
            ]
          }
        }
      ],
      "hex": "01000000011e72dd7eb07e62d8c3b3416acbce7f69d762453c29448bc6ef7af282312bae60100000006a473044022051433148d189d9aa4f1eb2a365c8f1e516c71d90b844bd3d840f5514ad71be9402201100a4909cbb743a437f82a863b21f0e4cfe964e8a6138c01a3d9811746d513901210345a284690d720a107b8f4b0afffa02c73e5aaea09191233c75808fbba87dfc6bffffffff0240e45904000000001976a9142841d54ff086b11c165df46f9fe59352e4cd5f8e88ac78a49b01000000001976a9149481d3211aa2f9edc9704601f4aa59e9f5d92dd688ac00000000"
    }, 
    {
      "txid": "386e50da654e36eb42efdeec2add0192fe09397364ef9a7a0d32961c2ad8e68d",
      "hash": "386e50da654e36eb42efdeec2add0192fe09397364ef9a7a0d32961c2ad8e68d",
      "version": 2,
      "size": 226,
      "vsize": 226,
      "locktime": 1357391,
      "vin": [
        {
          "txid": "2731e406375e6aab450f0ee454084365be37e38c2130331cb1784b0f05908815",
          "vout": 462,
          "scriptSig": {
            "asm": "3045022100fd1b59e2117d568bf6c43cdc7b3667dcef0fb0073f602f5783faeb1867eeb7c202205c0bf7ec665d9e13eb947f8cc4986e90aa83f62fa169bcbd1099ba20a9c366b7[ALL] 021605735c68347ff51e029d2399dd68ca8979d0ac19d25dd7dde9ebc5e753118a",
            "hex": "483045022100fd1b59e2117d568bf6c43cdc7b3667dcef0fb0073f602f5783faeb1867eeb7c202205c0bf7ec665d9e13eb947f8cc4986e90aa83f62fa169bcbd1099ba20a9c366b70121021605735c68347ff51e029d2399dd68ca8979d0ac19d25dd7dde9ebc5e753118a"
          },
          "sequence": 4294967294
        }
      ],
      "vout": [
        {
          "value": 0.01020129,
          "n": 0,
          "scriptPubKey": {
            "asm": "OP_DUP OP_HASH160 147219229788d8b3c7109c56aa6c93bc508a3019 OP_EQUALVERIFY OP_CHECKSIG",
            "hex": "76a914147219229788d8b3c7109c56aa6c93bc508a301988ac",
            "reqSigs": 1,
            "type": "pubkeyhash",
            "addresses": [
              "LM64TjKRv8114fT2RbHbttysBdL8Tu3UqG"
            ]
          }
        }, 
        {
          "value": 0.52015700,
          "n": 1,
          "scriptPubKey": {
            "asm": "OP_DUP OP_HASH160 7381d9accbe2e592f02edd8b7388e0681c714b5d OP_EQUALVERIFY OP_CHECKSIG",
            "hex": "76a9147381d9accbe2e592f02edd8b7388e0681c714b5d88ac",
            "reqSigs": 1,
            "type": "pubkeyhash",
            "addresses": [
              "LVkhXRtt5z3om1sN2PJVosvPKUwCvfA5cE"
            ]
          }
        }
      ],
      "hex": "0200000001158890050f4b78b11c3330218ce337be65430854e40e0f45ab6a5e3706e43127ce0100006b483045022100fd1b59e2117d568bf6c43cdc7b3667dcef0fb0073f602f5783faeb1867eeb7c202205c0bf7ec665d9e13eb947f8cc4986e90aa83f62fa169bcbd1099ba20a9c366b70121021605735c68347ff51e029d2399dd68ca8979d0ac19d25dd7dde9ebc5e753118afeffffff02e1900f00000000001976a914147219229788d8b3c7109c56aa6c93bc508a301988ac54b21903000000001976a9147381d9accbe2e592f02edd8b7388e0681c714b5d88ac4fb61400"
    }, 
    {
      "txid": "3c5d7f4323e3d6004782fe3ad3e9e716c97b21e1eef2878a6c61f8fde827409a",
      "hash": "3c5d7f4323e3d6004782fe3ad3e9e716c97b21e1eef2878a6c61f8fde827409a",
      "version": 1,
      "size": 226,
      "vsize": 226,
      "locktime": 0,
      "vin": [
        {
          "txid": "60ae2b3182f27aefc68b44293c4562d7697fcecb6a41b3c3d8627eb07edd721e",
          "vout": 21,
          "scriptSig": {
            "asm": "3045022100fad078f1c63d9246371d9334311765121c52c9fb17f2b7ae0ab138a39118064c022060e67ebe7fc2bea57dcfcf3b454e7cbcc8c0515f0c35d531acfc35491c34db0c[ALL] 035c222a1eab290cedd01bad8112bfd27983ac13c907adf20ceb1b1799925a43a5",
            "hex": "483045022100fad078f1c63d9246371d9334311765121c52c9fb17f2b7ae0ab138a39118064c022060e67ebe7fc2bea57dcfcf3b454e7cbcc8c0515f0c35d531acfc35491c34db0c0121035c222a1eab290cedd01bad8112bfd27983ac13c907adf20ceb1b1799925a43a5"
          },
          "sequence": 4294967295
        }
      ],
      "vout": [
        {
          "value": 0.40224005,
          "n": 0,
          "scriptPubKey": {
            "asm": "OP_DUP OP_HASH160 ecea7a3ea18b7a0c90101ecdaf7721bc7d425863 OP_EQUALVERIFY OP_CHECKSIG",
            "hex": "76a914ecea7a3ea18b7a0c90101ecdaf7721bc7d42586388ac",
            "reqSigs": 1,
            "type": "pubkeyhash",
            "addresses": [
              "LgpedGXihkgiPb4oe8ckiTvPWDzgoX8jLk"
            ]
          }
        }, 
        {
          "value": 0.59753395,
          "n": 1,
          "scriptPubKey": {
            "asm": "OP_DUP OP_HASH160 c08fb44e38bbd0d509ed74a1906d000ecd787a82 OP_EQUALVERIFY OP_CHECKSIG",
            "hex": "76a914c08fb44e38bbd0d509ed74a1906d000ecd787a8288ac",
            "reqSigs": 1,
            "type": "pubkeyhash",
            "addresses": [
              "Lcn89o6VSboLr2HAvzY57gsghVBjbCd1tQ"
            ]
          }
        }
      ],
      "hex": "01000000011e72dd7eb07e62d8c3b3416acbce7f69d762453c29448bc6ef7af282312bae60150000006b483045022100fad078f1c63d9246371d9334311765121c52c9fb17f2b7ae0ab138a39118064c022060e67ebe7fc2bea57dcfcf3b454e7cbcc8c0515f0c35d531acfc35491c34db0c0121035c222a1eab290cedd01bad8112bfd27983ac13c907adf20ceb1b1799925a43a5ffffffff0205c56502000000001976a914ecea7a3ea18b7a0c90101ecdaf7721bc7d42586388acb3c38f03000000001976a914c08fb44e38bbd0d509ed74a1906d000ecd787a8288ac00000000"
    }, 
    {
      "txid": "406ce3a3e9554ad2b487331d8b7059fef33cbe4924d1137a1076858ab461eab4",
      "hash": "406ce3a3e9554ad2b487331d8b7059fef33cbe4924d1137a1076858ab461eab4",
      "version": 1,
      "size": 226,
      "vsize": 226,
      "locktime": 0,
      "vin": [
        {
          "txid": "d479fe154bba2f8641e9ec64305dbb918e529af0aac85027817c955423f401be",
          "vout": 51,
          "scriptSig": {
            "asm": "3045022100ddb2af0bc10c1e0188ffa41a262a5f9de42f8c435fac8a496f295d1790b5fe8902201e135e2ef654abd3601c1c1e059f117b8dfc71e6c7c46d146d0d2e118db116d7[ALL] 0279d659237daeeb87fa14e19c767d96c036c5025e584e0282772d3e2eb8b229ac",
            "hex": "483045022100ddb2af0bc10c1e0188ffa41a262a5f9de42f8c435fac8a496f295d1790b5fe8902201e135e2ef654abd3601c1c1e059f117b8dfc71e6c7c46d146d0d2e118db116d701210279d659237daeeb87fa14e19c767d96c036c5025e584e0282772d3e2eb8b229ac"
          },
          "sequence": 4294967295
        }
      ],
      "vout": [
        {
          "value": 0.53486851,
          "n": 0,
          "scriptPubKey": {
            "asm": "OP_DUP OP_HASH160 997ab3f5d0ecc4b63ff4143d3608fa7274ebcb2b OP_EQUALVERIFY OP_CHECKSIG",
            "hex": "76a914997ab3f5d0ecc4b63ff4143d3608fa7274ebcb2b88ac",
            "reqSigs": 1,
            "type": "pubkeyhash",
            "addresses": [
              "LZDUe7cdwbjUMnTobHhP5bDU8JUce5Gnda"
            ]
          }
        }, 
        {
          "value": 0.46490549,
          "n": 1,
          "scriptPubKey": {
            "asm": "OP_DUP OP_HASH160 6509f347770c81fa61a7490b1c99340317162ec9 OP_EQUALVERIFY OP_CHECKSIG",
            "hex": "76a9146509f347770c81fa61a7490b1c99340317162ec988ac",
            "reqSigs": 1,
            "type": "pubkeyhash",
            "addresses": [
              "LUSCRwucRR8vSCBv9WAoHeZQsAHJSgU1Hj"
            ]
          }
        }
      ],
      "hex": "0100000001be01f42354957c812750c8aaf09a528e91bb5d3064ece941862fba4b15fe79d4330000006b483045022100ddb2af0bc10c1e0188ffa41a262a5f9de42f8c435fac8a496f295d1790b5fe8902201e135e2ef654abd3601c1c1e059f117b8dfc71e6c7c46d146d0d2e118db116d701210279d659237daeeb87fa14e19c767d96c036c5025e584e0282772d3e2eb8b229acffffffff0203253003000000001976a914997ab3f5d0ecc4b63ff4143d3608fa7274ebcb2b88acb563c502000000001976a9146509f347770c81fa61a7490b1c99340317162ec988ac00000000"
    }
  ],
  "time": 1516997527,
  "mediantime": 1516996909,
  "nonce": 3418086534,
  "bits": "1a047f14",
  "difficulty": 3731199.183374282,
  "chainwork": "0000000000000000000000000000000000000000000000322f8309fa8a044f54",
  "previousblockhash": "d2743af9483af7814d3146047a1f86b2eee676fa48a73185a655be5aaf888cc2",
  "nextblockhash": "17602972c43f50f8bfc74e59d85a053e770f0cdfd7684e99822728dfa8e4a045"
}
