{
  "hash": "47758b2dc2ff455a1e3b185d47ae97cf830a8aa59709ddbcfa67ac319181f1c4",
  "confirmations": 1276,
  "strippedsize": 234,
  "size": 234,
  "weight": 936,
  "height": 1359718,
  "version": 536870912,
  "versionHex": "20000000",
  "merkleroot": "89cabed492979a6570b67d31bcbb6cdbd7411f33614b9979236ff5619ba92edf",
  "tx": [
    {
      "txid": "89cabed492979a6570b67d31bcbb6cdbd7411f33614b9979236ff5619ba92edf",
      "hash": "89cabed492979a6570b67d31bcbb6cdbd7411f33614b9979236ff5619ba92edf",
      "version": 1,
      "size": 153,
      "vsize": 153,
      "locktime": 0,
      "vin": [
        {
          "coinbase": "0366bf14045a7080e92cfabe6d6d03e94ca7b9c813b496f46b874ded6dc3a88c48c8630262409044fdb1d23545294000000000000000042f4c502f0822001f2124000000",
          "sequence": 4294967295
        }
      ],
      "vout": [
        {
          "value": 25.00000000,
          "n": 0,
          "scriptPubKey": {
            "asm": "OP_DUP OP_HASH160 57757ed2ecf2052ff3126c397aca7defb9ca2cec OP_EQUALVERIFY OP_CHECKSIG",
            "hex": "76a91457757ed2ecf2052ff3126c397aca7defb9ca2cec88ac",
            "reqSigs": 1,
            "type": "pubkeyhash",
            "addresses": [
              "LTCPodGk5FwcJaRzH9yKnwicxzFUbxp6tN"
            ]
          }
        }
      ],
      "hex": "01000000010000000000000000000000000000000000000000000000000000000000000000ffffffff440366bf14045a7080e92cfabe6d6d03e94ca7b9c813b496f46b874ded6dc3a88c48c8630262409044fdb1d23545294000000000000000042f4c502f0822001f2124000000ffffffff0100f90295000000001976a91457757ed2ecf2052ff3126c397aca7defb9ca2cec88ac00000000"
    }
  ],
  "time": 1517322473,
  "mediantime": 1517321913,
  "nonce": 3695622673,
  "bits": "1a042eae",
  "difficulty": 4011378.762614286,
  "chainwork": "0000000000000000000000000000000000000000000000344435026471b0be4e",
  "previousblockhash": "77673ebaa793dead89e17391aec2c08ab48e29d2337f6fc2a128405d3f81b78f",
  "nextblockhash": "ef75b7635443778876cbf7d32fc8696e1d9e130d5a47bdc3dc71527c1f9ecc17"
}
