{
  "hash": "4785839f10b4713961e326bd6f7f64846e77fdd269d2080f74738972dbd17e83",
  "confirmations": 2264,
  "strippedsize": 234,
  "size": 234,
  "weight": 936,
  "height": 1358731,
  "version": 536870912,
  "versionHex": "20000000",
  "merkleroot": "d8940e5b7adf4d24f28c2e958ecc4d63056932cf94035cf242704e171cb88c8f",
  "tx": [
    {
      "txid": "d8940e5b7adf4d24f28c2e958ecc4d63056932cf94035cf242704e171cb88c8f",
      "hash": "d8940e5b7adf4d24f28c2e958ecc4d63056932cf94035cf242704e171cb88c8f",
      "version": 1,
      "size": 153,
      "vsize": 153,
      "locktime": 0,
      "vin": [
        {
          "coinbase": "038bbb14045a6e64df2cfabe6d6d0f004a3648f0501e834b430e98e059cb74ee741c01ef45709d8b7662d0492c804000000000000000042f4c502f082200772702000000",
          "sequence": 4294967295
        }
      ],
      "vout": [
        {
          "value": 25.00000000,
          "n": 0,
          "scriptPubKey": {
            "asm": "OP_DUP OP_HASH160 57757ed2ecf2052ff3126c397aca7defb9ca2cec OP_EQUALVERIFY OP_CHECKSIG",
            "hex": "76a91457757ed2ecf2052ff3126c397aca7defb9ca2cec88ac",
            "reqSigs": 1,
            "type": "pubkeyhash",
            "addresses": [
              "LTCPodGk5FwcJaRzH9yKnwicxzFUbxp6tN"
            ]
          }
        }
      ],
      "hex": "01000000010000000000000000000000000000000000000000000000000000000000000000ffffffff44038bbb14045a6e64df2cfabe6d6d0f004a3648f0501e834b430e98e059cb74ee741c01ef45709d8b7662d0492c804000000000000000042f4c502f082200772702000000ffffffff0100f90295000000001976a91457757ed2ecf2052ff3126c397aca7defb9ca2cec88ac00000000"
    }
  ],
  "time": 1517184223,
  "mediantime": 1517183525,
  "nonce": 1717012737,
  "bits": "1a047f14",
  "difficulty": 3731199.183374282,
  "chainwork": "0000000000000000000000000000000000000000000000335915554830256f38",
  "previousblockhash": "63d60e26cccd750dde404742b2f4481cfe5c5cf985da817eb962fbe1ef65912e",
  "nextblockhash": "75673022c51f5be012e7470c8091212fe98700aac4a88522a11b1bbe715c13fa"
}
