{
  "hash": "48208affe33b537267cd75129696f1200a9eb402384402604a1ffce5be00a334",
  "confirmations": 2101,
  "strippedsize": 2984,
  "size": 3241,
  "weight": 12193,
  "height": 1358893,
  "version": 536870912,
  "versionHex": "20000000",
  "merkleroot": "0a10299392c7b799378da3c5b012df34c400102c5c08e5e8d34adb344b0c3a13",
  "tx": [
    {
      "txid": "8ef3e8a2e87e08d6d25adf2b8faac09c65713612596b6bf0bc202e79c2553746",
      "hash": "f3cbcced07dd2f638f43f2f9c61d3737e13f09d3e5e3638113d85e1db1063808",
      "version": 2,
      "size": 234,
      "vsize": 207,
      "locktime": 0,
      "vin": [
        {
          "coinbase": "032dbc140476be6e5a2ffabe6d6d9f63ab4bfffad3f09a20cf3427c2e7740674f4f9aafbe208bfb35fe7fb8f4e0601000000000000000203c1d01700000000000000",
          "sequence": 4294967295
        }
      ],
      "vout": [
        {
          "value": 25.01680135,
          "n": 0,
          "scriptPubKey": {
            "asm": "OP_DUP OP_HASH160 3d29d474d0a98b5b2669d990d2917780837edf0c OP_EQUALVERIFY OP_CHECKSIG",
            "hex": "76a9143d29d474d0a98b5b2669d990d2917780837edf0c88ac",
            "reqSigs": 1,
            "type": "pubkeyhash",
            "addresses": [
              "LQoMbJnzRK2sDXazJuUNXPTx7FrKKPJgt6"
            ]
          }
        }, 
        {
          "value": 0.00000000,
          "n": 1,
          "scriptPubKey": {
            "asm": "OP_RETURN aa21a9ed7349929e44e47878ebb06c3a9aabfc02e1355379a417cff127114fe0f4fec342",
            "hex": "6a24aa21a9ed7349929e44e47878ebb06c3a9aabfc02e1355379a417cff127114fe0f4fec342",
            "type": "nulldata"
          }
        }
      ],
      "hex": "020000000001010000000000000000000000000000000000000000000000000000000000000000ffffffff42032dbc140476be6e5a2ffabe6d6d9f63ab4bfffad3f09a20cf3427c2e7740674f4f9aafbe208bfb35fe7fb8f4e0601000000000000000203c1d01700000000000000ffffffff02079c1c95000000001976a9143d29d474d0a98b5b2669d990d2917780837edf0c88ac0000000000000000266a24aa21a9ed7349929e44e47878ebb06c3a9aabfc02e1355379a417cff127114fe0f4fec3420120000000000000000000000000000000000000000000000000000000000000000000000000"
    }, 
    {
      "txid": "9ca0198ff929eb0095ef3615bbfde83dd59bc87381f6241c59d44e0a4b3b0d40",
      "hash": "9ca0198ff929eb0095ef3615bbfde83dd59bc87381f6241c59d44e0a4b3b0d40",
      "version": 1,
      "size": 372,
      "vsize": 372,
      "locktime": 0,
      "vin": [
        {
          "txid": "718e4e45d028a2e4003c826b753712a77c55a6d4e416798290582ccf1b426c48",
          "vout": 1,
          "scriptSig": {
            "asm": "0 3045022100dca5c02dc129e2aa74de85161d1c7f6357eeabdf30d48f8bf16e9a014d7820dc022031b785dd91ae6a85321235a0ee7680262aeeb70e4afe6beec276e2f2b27c9ec7[ALL] 304402203de7223a92c29352d20c3ff661b703c18fcfb611316bf909976a7e8fb28720ee022002d0a2b0e98d0f004053211deadc39e77cce3377c26bf40aecaf6ba5a991529c[ALL] 522103b32d2c693563abf3ebd63aff5a181c6aba6523538e480a1feb5cc5c5c3e5aeb921021626d63f4f14bd8163bd02f8c98caef9589784587ddba1b0a67ed58276b4b91021027387951b95a6b1ddbc420d8a754cfe3ea8dda03deff116b989d9da20e34b26d053ae",
            "hex": "00483045022100dca5c02dc129e2aa74de85161d1c7f6357eeabdf30d48f8bf16e9a014d7820dc022031b785dd91ae6a85321235a0ee7680262aeeb70e4afe6beec276e2f2b27c9ec70147304402203de7223a92c29352d20c3ff661b703c18fcfb611316bf909976a7e8fb28720ee022002d0a2b0e98d0f004053211deadc39e77cce3377c26bf40aecaf6ba5a991529c014c69522103b32d2c693563abf3ebd63aff5a181c6aba6523538e480a1feb5cc5c5c3e5aeb921021626d63f4f14bd8163bd02f8c98caef9589784587ddba1b0a67ed58276b4b91021027387951b95a6b1ddbc420d8a754cfe3ea8dda03deff116b989d9da20e34b26d053ae"
          },
          "sequence": 4294967295
        }
      ],
      "vout": [
        {
          "value": 0.19471768,
          "n": 0,
          "scriptPubKey": {
            "asm": "OP_HASH160 01f083bc1c617b71bd6a21546b8e52d5300674e7 OP_EQUAL",
            "hex": "a91401f083bc1c617b71bd6a21546b8e52d5300674e787",
            "reqSigs": 1,
            "type": "scripthash",
            "addresses": [
              "M85R2sLM4jggXQKYyMBuhLGJ6yCUiWT3cu"
            ]
          }
        }, 
        {
          "value": 0.24605000,
          "n": 1,
          "scriptPubKey": {
            "asm": "OP_DUP OP_HASH160 baa0285e69debbfb694c1ae959033aea2c432e76 OP_EQUALVERIFY OP_CHECKSIG",
            "hex": "76a914baa0285e69debbfb694c1ae959033aea2c432e7688ac",
            "reqSigs": 1,
            "type": "pubkeyhash",
            "addresses": [
              "LcEjoqxWKThpBdRhbyBmiXsSTmxgCqL7Qr"
            ]
          }
        }
      ],
      "hex": "0100000001486c421bcf2c5890827916e4d4a6557ca71237756b823c00e4a228d0454e8e7101000000fdfd0000483045022100dca5c02dc129e2aa74de85161d1c7f6357eeabdf30d48f8bf16e9a014d7820dc022031b785dd91ae6a85321235a0ee7680262aeeb70e4afe6beec276e2f2b27c9ec70147304402203de7223a92c29352d20c3ff661b703c18fcfb611316bf909976a7e8fb28720ee022002d0a2b0e98d0f004053211deadc39e77cce3377c26bf40aecaf6ba5a991529c014c69522103b32d2c693563abf3ebd63aff5a181c6aba6523538e480a1feb5cc5c5c3e5aeb921021626d63f4f14bd8163bd02f8c98caef9589784587ddba1b0a67ed58276b4b91021027387951b95a6b1ddbc420d8a754cfe3ea8dda03deff116b989d9da20e34b26d053aeffffffff02981d29010000000017a91401f083bc1c617b71bd6a21546b8e52d5300674e78748717701000000001976a914baa0285e69debbfb694c1ae959033aea2c432e7688ac00000000"
    }, 
    {
      "txid": "00d37f01f821f495200d390b6d9c201a35225926acbeb203534b141b697b2c7d",
      "hash": "00d37f01f821f495200d390b6d9c201a35225926acbeb203534b141b697b2c7d",
      "version": 1,
      "size": 334,
      "vsize": 334,
      "locktime": 0,
      "vin": [
        {
          "txid": "88c279c9bc8954833516702b8ade0cb6222cc15659740cc5e7ec21aeba515e7b",
          "vout": 1,
          "scriptSig": {
            "asm": "0 3044022037e0323aa13cf9abe12eb295f3e6236d03c259e4b83ed4462be21d0ac9304f9d022039205902e6e65365e93e366fac345ae73fdbfff35148f467f0d94a4f880ae0cf[ALL] 304402203e610edf40640d495300e546c126d30ee12e9b721a41d63861cd3ba2336ab7a502201d059a167584976bde61439083f85244f9b7b2ca12252541f38747e4502edd1b[ALL] 522102f77ec37a042ba4e5e6aef7760398bf59b87ac4c5dee30a2fb8798e9630d4916e210276b93401dc495b28592f66411a7c9093b468f8678db51144fc6a36f550d94aa952ae",
            "hex": "00473044022037e0323aa13cf9abe12eb295f3e6236d03c259e4b83ed4462be21d0ac9304f9d022039205902e6e65365e93e366fac345ae73fdbfff35148f467f0d94a4f880ae0cf0147304402203e610edf40640d495300e546c126d30ee12e9b721a41d63861cd3ba2336ab7a502201d059a167584976bde61439083f85244f9b7b2ca12252541f38747e4502edd1b0147522102f77ec37a042ba4e5e6aef7760398bf59b87ac4c5dee30a2fb8798e9630d4916e210276b93401dc495b28592f66411a7c9093b468f8678db51144fc6a36f550d94aa952ae"
          },
          "sequence": 4294967295
        }
      ],
      "vout": [
        {
          "value": 0.06168200,
          "n": 0,
          "scriptPubKey": {
            "asm": "OP_DUP OP_HASH160 4fecd260c002debb8a76ebe267cc765f373f3019 OP_EQUALVERIFY OP_CHECKSIG",
            "hex": "76a9144fecd260c002debb8a76ebe267cc765f373f301988ac",
            "reqSigs": 1,
            "type": "pubkeyhash",
            "addresses": [
              "LSWZM2vXox5qV81t2QKaofpAqeXGUwNLzh"
            ]
          }
        }, 
        {
          "value": 9.22802100,
          "n": 1,
          "scriptPubKey": {
            "asm": "OP_HASH160 75b77316f8d91ff71fb2819115d1b6b9e80ccee9 OP_EQUAL",
            "hex": "a91475b77316f8d91ff71fb2819115d1b6b9e80ccee987",
            "reqSigs": 1,
            "type": "scripthash",
            "addresses": [
              "MJdb4B3BMDrfpB1FpKsPYQ1tDHdkNa1oLB"
            ]
          }
        }
      ],
      "hex": "01000000017b5e51baae21ece7c50c745956c12c22b60cde8a2b701635835489bcc979c28801000000d900473044022037e0323aa13cf9abe12eb295f3e6236d03c259e4b83ed4462be21d0ac9304f9d022039205902e6e65365e93e366fac345ae73fdbfff35148f467f0d94a4f880ae0cf0147304402203e610edf40640d495300e546c126d30ee12e9b721a41d63861cd3ba2336ab7a502201d059a167584976bde61439083f85244f9b7b2ca12252541f38747e4502edd1b0147522102f77ec37a042ba4e5e6aef7760398bf59b87ac4c5dee30a2fb8798e9630d4916e210276b93401dc495b28592f66411a7c9093b468f8678db51144fc6a36f550d94aa952aeffffffff02881e5e00000000001976a9144fecd260c002debb8a76ebe267cc765f373f301988acb4d700370000000017a91475b77316f8d91ff71fb2819115d1b6b9e80ccee98700000000"
    }, 
    {
      "txid": "6c685a0cf74a6b657fa731c4b6cd60d1f20cfd1733b0bad7aefe82adffeb0d3b",
      "hash": "6c685a0cf74a6b657fa731c4b6cd60d1f20cfd1733b0bad7aefe82adffeb0d3b",
      "version": 1,
      "size": 225,
      "vsize": 225,
      "locktime": 0,
      "vin": [
        {
          "txid": "5c802669a56fc59c2dfb10565192ddef9b3fdd9eb726b88091ca4f70a3fdfe7f",
          "vout": 1,
          "scriptSig": {
            "asm": "304402202827d2d0d5475ca83058041a4a8556ddaa5d326182efa3d59e517ce0880e547e022042c21444c878aef3a877a13b2f25dba582c77bfcfe64e1671f20f9bcc0856d28[ALL] 0368496ad614f34e72d0caf86c2a6a89087a90a0c4553ac5af0a587193983312fc",
            "hex": "47304402202827d2d0d5475ca83058041a4a8556ddaa5d326182efa3d59e517ce0880e547e022042c21444c878aef3a877a13b2f25dba582c77bfcfe64e1671f20f9bcc0856d2801210368496ad614f34e72d0caf86c2a6a89087a90a0c4553ac5af0a587193983312fc"
          },
          "sequence": 4294967295
        }
      ],
      "vout": [
        {
          "value": 19.99900000,
          "n": 0,
          "scriptPubKey": {
            "asm": "OP_DUP OP_HASH160 92e1dc2aedb0ef84f1ec86914666b840e95b36f0 OP_EQUALVERIFY OP_CHECKSIG",
            "hex": "76a91492e1dc2aedb0ef84f1ec86914666b840e95b36f088ac",
            "reqSigs": 1,
            "type": "pubkeyhash",
            "addresses": [
              "LYcbVFU88KBeM5iDBKSgxzcnGLqSFy9Kvu"
            ]
          }
        }, 
        {
          "value": 142.81078849,
          "n": 1,
          "scriptPubKey": {
            "asm": "OP_DUP OP_HASH160 60e292ea449da6e94285af65ef300ae6ba61b549 OP_EQUALVERIFY OP_CHECKSIG",
            "hex": "76a91460e292ea449da6e94285af65ef300ae6ba61b54988ac",
            "reqSigs": 1,
            "type": "pubkeyhash",
            "addresses": [
              "LU4EZFwWSoqsRSLAwnVVxekHtTdDwiCvC1"
            ]
          }
        }
      ],
      "hex": "01000000017ffefda3704fca9180b826b79edd3f9befdd92515610fb2d9cc56fa56926805c010000006a47304402202827d2d0d5475ca83058041a4a8556ddaa5d326182efa3d59e517ce0880e547e022042c21444c878aef3a877a13b2f25dba582c77bfcfe64e1671f20f9bcc0856d2801210368496ad614f34e72d0caf86c2a6a89087a90a0c4553ac5af0a587193983312fcffffffff02600d3477000000001976a91492e1dc2aedb0ef84f1ec86914666b840e95b36f088ac41f83753030000001976a91460e292ea449da6e94285af65ef300ae6ba61b54988ac00000000"
    }, 
    {
      "txid": "a02dd50942b345323326249df3c66533b778ae97ef6de5701e7edbb973b456f0",
      "hash": "a02dd50942b345323326249df3c66533b778ae97ef6de5701e7edbb973b456f0",
      "version": 1,
      "size": 191,
      "vsize": 191,
      "locktime": 0,
      "vin": [
        {
          "txid": "5ca108416933ae22aa7545419e0f653adb03e87b6ed08c8d91a3f436ac183ff8",
          "vout": 1,
          "scriptSig": {
            "asm": "3044022053aaf89a1f9640ff1691b5b710ec708a579e2123c18ca9a21d969852d67316fc02204a4e209ea68a99c8b38ce48a621d15c7348f24af30d99cef22a81f1ffed099e2[ALL] 027b648e14b073786e3ce4b0316f7a9b8b63ca8d617a7af17c8701f106bdb2e1c3",
            "hex": "473044022053aaf89a1f9640ff1691b5b710ec708a579e2123c18ca9a21d969852d67316fc02204a4e209ea68a99c8b38ce48a621d15c7348f24af30d99cef22a81f1ffed099e20121027b648e14b073786e3ce4b0316f7a9b8b63ca8d617a7af17c8701f106bdb2e1c3"
          },
          "sequence": 4294967295
        }
      ],
      "vout": [
        {
          "value": 1.99849510,
          "n": 0,
          "scriptPubKey": {
            "asm": "OP_DUP OP_HASH160 df8782943e1c8283f535f5c047ef5275e69795b2 OP_EQUALVERIFY OP_CHECKSIG",
            "hex": "76a914df8782943e1c8283f535f5c047ef5275e69795b288ac",
            "reqSigs": 1,
            "type": "pubkeyhash",
            "addresses": [
              "LfbsHPwC82rNHyMTtxCinBi2n16WjkmsA9"
            ]
          }
        }
      ],
      "hex": "0100000001f83f18ac36f4a3918d8cd06e7be803db3a650f9e414575aa22ae33694108a15c010000006a473044022053aaf89a1f9640ff1691b5b710ec708a579e2123c18ca9a21d969852d67316fc02204a4e209ea68a99c8b38ce48a621d15c7348f24af30d99cef22a81f1ffed099e20121027b648e14b073786e3ce4b0316f7a9b8b63ca8d617a7af17c8701f106bdb2e1c3ffffffff012676e90b000000001976a914df8782943e1c8283f535f5c047ef5275e69795b288ac00000000"
    }, 
    {
      "txid": "578a6cabb843c86cd9163851e131f57b764fddcb16e067d4dd9cd2972269da1d",
      "hash": "9fe642ab6d8479f89910ad54ba70c265e7963f69d1362b051021eda09b2606f1",
      "version": 1,
      "size": 339,
      "vsize": 174,
      "locktime": 0,
      "vin": [
        {
          "txid": "4c240035603175c3313a33b2fc4846e52b003767b6dc316af1faea634ac16904",
          "vout": 1,
          "scriptSig": {
            "asm": "002034a29038cfec2694c0fc7d521a23e10b0ecff52c2c22e0fe929a3bb098e134c0",
            "hex": "22002034a29038cfec2694c0fc7d521a23e10b0ecff52c2c22e0fe929a3bb098e134c0"
          },
          "txinwitness": [
            "", 
            "3045022100bdc86ae041e8f773f613b9a921d5cd9af7f7af60d6e45a5f832b54c388d136d4022057680235af79240c9937290c6433a5b71c6adb53361db09bade58612e394b90c01", 
            "304402206d5403ecdabb18c877743f82bf41db5a11cf0a5eae6dadd827375a72ffd9edbd02203ebf6b794cb8c432ebdd6bb1ea5d7b1f9f2a144258a2ed1d00db2a0e6bbf398f01", 
            "52210217547b7f60fffc5167d490c34bcbb70838f92ae1203f26e28b4cba50891a4ddc21024a21bac4d96e01f48c032391dd0a9033003d7970249a6c798d9fe144ada2233152ae"
          ],
          "sequence": 4294967295
        }
      ],
      "vout": [
        {
          "value": 0.02769469,
          "n": 0,
          "scriptPubKey": {
            "asm": "OP_HASH160 a2d8909aaeea8f78d7fd0d449335f2334c536b0e OP_EQUAL",
            "hex": "a914a2d8909aaeea8f78d7fd0d449335f2334c536b0e87",
            "reqSigs": 1,
            "type": "scripthash",
            "addresses": [
              "MNkD8hNyLf4Vaf6pxSmUAJDyR6JQ5iye1z"
            ]
          }
        }
      ],
      "hex": "010000000001010469c14a63eafaf16a31dcb66737002be54648fcb2333a31c37531603500244c010000002322002034a29038cfec2694c0fc7d521a23e10b0ecff52c2c22e0fe929a3bb098e134c0ffffffff013d422a000000000017a914a2d8909aaeea8f78d7fd0d449335f2334c536b0e870400483045022100bdc86ae041e8f773f613b9a921d5cd9af7f7af60d6e45a5f832b54c388d136d4022057680235af79240c9937290c6433a5b71c6adb53361db09bade58612e394b90c0147304402206d5403ecdabb18c877743f82bf41db5a11cf0a5eae6dadd827375a72ffd9edbd02203ebf6b794cb8c432ebdd6bb1ea5d7b1f9f2a144258a2ed1d00db2a0e6bbf398f014752210217547b7f60fffc5167d490c34bcbb70838f92ae1203f26e28b4cba50891a4ddc21024a21bac4d96e01f48c032391dd0a9033003d7970249a6c798d9fe144ada2233152ae00000000"
    }, 
    {
      "txid": "283149f37d0d65bd8413b1995605d4e6ea61e13f54ac0841527000cee5e4f308",
      "hash": "283149f37d0d65bd8413b1995605d4e6ea61e13f54ac0841527000cee5e4f308",
      "version": 1,
      "size": 192,
      "vsize": 192,
      "locktime": 0,
      "vin": [
        {
          "txid": "189f1dee4d3909f5d53e346696424a99e5af8eb6cc4c69e1c178b562be4b281a",
          "vout": 1,
          "scriptSig": {
            "asm": "3045022100c39e779e606ea5a7c1dd6dc9340a228dda2b69197572b8255327811663497e430220152244d593b5402ce57a5bb9ec61031d11dd9131a75cef3b31638ed859473167[ALL] 03a91bbbfc1ea9a3df092010f3324d811b6d775b1c5ac1ceccea7e12d4bf05ac05",
            "hex": "483045022100c39e779e606ea5a7c1dd6dc9340a228dda2b69197572b8255327811663497e430220152244d593b5402ce57a5bb9ec61031d11dd9131a75cef3b31638ed859473167012103a91bbbfc1ea9a3df092010f3324d811b6d775b1c5ac1ceccea7e12d4bf05ac05"
          },
          "sequence": 4294967295
        }
      ],
      "vout": [
        {
          "value": 0.25971677,
          "n": 0,
          "scriptPubKey": {
            "asm": "OP_DUP OP_HASH160 23e75735b4e279ab612e8f9c838733cf725d8eed OP_EQUALVERIFY OP_CHECKSIG",
            "hex": "76a91423e75735b4e279ab612e8f9c838733cf725d8eed88ac",
            "reqSigs": 1,
            "type": "pubkeyhash",
            "addresses": [
              "LNVo3kvgVizzTQqZDL5GCtjenmi4h6jhHJ"
            ]
          }
        }
      ],
      "hex": "01000000011a284bbe62b578c1e1694cccb68eafe5994a429666343ed5f509394dee1d9f18010000006b483045022100c39e779e606ea5a7c1dd6dc9340a228dda2b69197572b8255327811663497e430220152244d593b5402ce57a5bb9ec61031d11dd9131a75cef3b31638ed859473167012103a91bbbfc1ea9a3df092010f3324d811b6d775b1c5ac1ceccea7e12d4bf05ac05ffffffff01dd4b8c01000000001976a91423e75735b4e279ab612e8f9c838733cf725d8eed88ac00000000"
    }, 
    {
      "txid": "b399c0d66182c625e1629a251f54d3ba7b654cea8c1df0c6fcc6189aa7bfba0e",
      "hash": "b399c0d66182c625e1629a251f54d3ba7b654cea8c1df0c6fcc6189aa7bfba0e",
      "version": 1,
      "size": 225,
      "vsize": 225,
      "locktime": 0,
      "vin": [
        {
          "txid": "b30e274b6fecac9e3557755660f55bc09d8850cb80182b67e87ce6ff8308e06b",
          "vout": 0,
          "scriptSig": {
            "asm": "304402203bf51172727f5d0741ea8937b35b7ab6b06b63dd618b2b421fd18f9a0eb66b8902206fb67921ebb47da13adc1301b081998321fff0916754c91d74ea8f549e86c100[ALL] 03db3520dd10b5dfc83ca47bd8c60d913af412ee0930f53b987fae3d85fb7134d7",
            "hex": "47304402203bf51172727f5d0741ea8937b35b7ab6b06b63dd618b2b421fd18f9a0eb66b8902206fb67921ebb47da13adc1301b081998321fff0916754c91d74ea8f549e86c100012103db3520dd10b5dfc83ca47bd8c60d913af412ee0930f53b987fae3d85fb7134d7"
          },
          "sequence": 4294967295
        }
      ],
      "vout": [
        {
          "value": 0.00063265,
          "n": 0,
          "scriptPubKey": {
            "asm": "OP_DUP OP_HASH160 4110af593f9748118e5a2ae1e22fcdb15abdffd8 OP_EQUALVERIFY OP_CHECKSIG",
            "hex": "76a9144110af593f9748118e5a2ae1e22fcdb15abdffd888ac",
            "reqSigs": 1,
            "type": "pubkeyhash",
            "addresses": [
              "LR9zAyPWyF2FmcwGui3F6gjwwubniXkckx"
            ]
          }
        }, 
        {
          "value": 0.04913135,
          "n": 1,
          "scriptPubKey": {
            "asm": "OP_DUP OP_HASH160 ba8f5fc70ec65120104c0f53041e3707dd09dc50 OP_EQUALVERIFY OP_CHECKSIG",
            "hex": "76a914ba8f5fc70ec65120104c0f53041e3707dd09dc5088ac",
            "reqSigs": 1,
            "type": "pubkeyhash",
            "addresses": [
              "LcEPhhiHWhkMUpDR9CjKm21BqujydEBVDC"
            ]
          }
        }
      ],
      "hex": "01000000016be00883ffe67ce8672b1880cb50889dc05bf560567557359eacec6f4b270eb3000000006a47304402203bf51172727f5d0741ea8937b35b7ab6b06b63dd618b2b421fd18f9a0eb66b8902206fb67921ebb47da13adc1301b081998321fff0916754c91d74ea8f549e86c100012103db3520dd10b5dfc83ca47bd8c60d913af412ee0930f53b987fae3d85fb7134d7ffffffff0221f70000000000001976a9144110af593f9748118e5a2ae1e22fcdb15abdffd888aceff74a00000000001976a914ba8f5fc70ec65120104c0f53041e3707dd09dc5088ac00000000"
    }, 
    {
      "txid": "6cd3f0eaf0a31d04f6d694ae3fca6082353fe3761a5aa15576bffafdb1487141",
      "hash": "6cd3f0eaf0a31d04f6d694ae3fca6082353fe3761a5aa15576bffafdb1487141",
      "version": 2,
      "size": 225,
      "vsize": 225,
      "locktime": 1358891,
      "vin": [
        {
          "txid": "63008c2296a776368ffe46e764156ff5ddbf75ab68037a665168be1d7de86dee",
          "vout": 1,
          "scriptSig": {
            "asm": "3044022057c4d120883ae3d3c086bafa6389c6523ecbcc4c1a92d80d860123928e3f2b34022021cd057d158c092a9a47e12ccb1908d00f34f2be6b7a52e1d0b797d962938a2a[ALL] 020634a0b55c480b4057df9c3bd3fcbb69282151b2f3348c3d7f3080358c2eb8cd",
            "hex": "473044022057c4d120883ae3d3c086bafa6389c6523ecbcc4c1a92d80d860123928e3f2b34022021cd057d158c092a9a47e12ccb1908d00f34f2be6b7a52e1d0b797d962938a2a0121020634a0b55c480b4057df9c3bd3fcbb69282151b2f3348c3d7f3080358c2eb8cd"
          },
          "sequence": 4294967294
        }
      ],
      "vout": [
        {
          "value": 4.32750826,
          "n": 0,
          "scriptPubKey": {
            "asm": "OP_DUP OP_HASH160 06b8efe1ff46355fc4d979775682be9e76047a46 OP_EQUALVERIFY OP_CHECKSIG",
            "hex": "76a91406b8efe1ff46355fc4d979775682be9e76047a4688ac",
            "reqSigs": 1,
            "type": "pubkeyhash",
            "addresses": [
              "LKqVs1pZuGXaVMatszRgWwGjjxerFFN3N9"
            ]
          }
        }, 
        {
          "value": 311.38749134,
          "n": 1,
          "scriptPubKey": {
            "asm": "OP_DUP OP_HASH160 b29266e5b9af1eff6a7a4d3c18dc0e446fddf31f OP_EQUALVERIFY OP_CHECKSIG",
            "hex": "76a914b29266e5b9af1eff6a7a4d3c18dc0e446fddf31f88ac",
            "reqSigs": 1,
            "type": "pubkeyhash",
            "addresses": [
              "LbW9vYWm6BfSqKLcWudbnCYVe6tU9TpKmG"
            ]
          }
        }
      ],
      "hex": "0200000001ee6de87d1dbe6851667a0368ab75bfddf56f1564e746fe8f3676a796228c0063010000006a473044022057c4d120883ae3d3c086bafa6389c6523ecbcc4c1a92d80d860123928e3f2b34022021cd057d158c092a9a47e12ccb1908d00f34f2be6b7a52e1d0b797d962938a2a0121020634a0b55c480b4057df9c3bd3fcbb69282151b2f3348c3d7f3080358c2eb8cdfeffffff02ea40cb19000000001976a91406b8efe1ff46355fc4d979775682be9e76047a4688acce9a0340070000001976a914b29266e5b9af1eff6a7a4d3c18dc0e446fddf31f88ac2bbc1400"
    }, 
    {
      "txid": "86aa9d52b7fd685716433af6b7b5956d76f547b1c08800dc2f1aa34d86446678",
      "hash": "86aa9d52b7fd685716433af6b7b5956d76f547b1c08800dc2f1aa34d86446678",
      "version": 1,
      "size": 225,
      "vsize": 225,
      "locktime": 0,
      "vin": [
        {
          "txid": "3cdba860bc463ea11f510f0e2957228d757f4788202582f8724e8c43ed02209d",
          "vout": 1,
          "scriptSig": {
            "asm": "304402207ee8f6fa595994d1fd4fcf98447a8bbc1b78f0175e638d7f48faa343f4efcda802205baba869c61f7976941cf9d611f4aa54f76d8b67518fa6826662bd4d33fc7ae1[ALL] 03b9620feba0ff0ba7f900c3a51f88c28e02efab535040335d697aea7950c6009f",
            "hex": "47304402207ee8f6fa595994d1fd4fcf98447a8bbc1b78f0175e638d7f48faa343f4efcda802205baba869c61f7976941cf9d611f4aa54f76d8b67518fa6826662bd4d33fc7ae1012103b9620feba0ff0ba7f900c3a51f88c28e02efab535040335d697aea7950c6009f"
          },
          "sequence": 4294967295
        }
      ],
      "vout": [
        {
          "value": 5.53475701,
          "n": 0,
          "scriptPubKey": {
            "asm": "OP_DUP OP_HASH160 3ecaf6c8d3504c72fb4c49f3ab9a9e630ff9f6b8 OP_EQUALVERIFY OP_CHECKSIG",
            "hex": "76a9143ecaf6c8d3504c72fb4c49f3ab9a9e630ff9f6b888ac",
            "reqSigs": 1,
            "type": "pubkeyhash",
            "addresses": [
              "LQwyJHvUidL8p1m81rMPVmiSW1yosPqLa6"
            ]
          }
        }, 
        {
          "value": 9.23113426,
          "n": 1,
          "scriptPubKey": {
            "asm": "OP_DUP OP_HASH160 c276a2d55146ada9c67710bfd9cafebd656d111c OP_EQUALVERIFY OP_CHECKSIG",
            "hex": "76a914c276a2d55146ada9c67710bfd9cafebd656d111c88ac",
            "reqSigs": 1,
            "type": "pubkeyhash",
            "addresses": [
              "LcxBUQY2VUY6mK8GTn5ihYJ1XMr3poBk3C"
            ]
          }
        }
      ],
      "hex": "01000000019d2002ed438c4e72f882252088477f758d2257290e0f511fa13e46bc60a8db3c010000006a47304402207ee8f6fa595994d1fd4fcf98447a8bbc1b78f0175e638d7f48faa343f4efcda802205baba869c61f7976941cf9d611f4aa54f76d8b67518fa6826662bd4d33fc7ae1012103b9620feba0ff0ba7f900c3a51f88c28e02efab535040335d697aea7950c6009fffffffff02755efd20000000001976a9143ecaf6c8d3504c72fb4c49f3ab9a9e630ff9f6b888acd2970537000000001976a914c276a2d55146ada9c67710bfd9cafebd656d111c88ac00000000"
    }, 
    {
      "txid": "fe210327355752df74573598e0304b8a232e552192f3d1cfd140b00a044210b9",
      "hash": "fe210327355752df74573598e0304b8a232e552192f3d1cfd140b00a044210b9",
      "version": 2,
      "size": 225,
      "vsize": 225,
      "locktime": 1358891,
      "vin": [
        {
          "txid": "27e53b5dc55ed70fefabb6937055472b8bee494cc863017357f444235c738a7c",
          "vout": 0,
          "scriptSig": {
            "asm": "30440220208357e1559e5243348e91ee492d503694f9259337b8eb8996f04d3f152159f402201e2af4028ea182477b0cd5534080e0c85838ce214b07b611d40f88c21dfd7d47[ALL] 03ef1001d43de9182b6cec03fb3863db89c97b2b02e6dfcd15d555a54830364efc",
            "hex": "4730440220208357e1559e5243348e91ee492d503694f9259337b8eb8996f04d3f152159f402201e2af4028ea182477b0cd5534080e0c85838ce214b07b611d40f88c21dfd7d47012103ef1001d43de9182b6cec03fb3863db89c97b2b02e6dfcd15d555a54830364efc"
          },
          "sequence": 4294967294
        }
      ],
      "vout": [
        {
          "value": 4.60036435,
          "n": 0,
          "scriptPubKey": {
            "asm": "OP_DUP OP_HASH160 4050069b7c47f847bd508dfed36f5a83c091110a OP_EQUALVERIFY OP_CHECKSIG",
            "hex": "76a9144050069b7c47f847bd508dfed36f5a83c091110a88ac",
            "reqSigs": 1,
            "type": "pubkeyhash",
            "addresses": [
              "LR61NnFGFujuDnvpkFwtRCeFFzALWniV6U"
            ]
          }
        }, 
        {
          "value": 173.85445604,
          "n": 1,
          "scriptPubKey": {
            "asm": "OP_DUP OP_HASH160 0a93decc4e81147e56e50860d007e125036f1b5c OP_EQUALVERIFY OP_CHECKSIG",
            "hex": "76a9140a93decc4e81147e56e50860d007e125036f1b5c88ac",
            "reqSigs": 1,
            "type": "pubkeyhash",
            "addresses": [
              "LLBtALgmo3uEgQXkeJE7mEGWQSGN2BN2vH"
            ]
          }
        }
      ],
      "hex": "02000000017c8a735c2344f457730163c84c49ee8b2b47557093b6abef0fd75ec55d3be527000000006a4730440220208357e1559e5243348e91ee492d503694f9259337b8eb8996f04d3f152159f402201e2af4028ea182477b0cd5534080e0c85838ce214b07b611d40f88c21dfd7d47012103ef1001d43de9182b6cec03fb3863db89c97b2b02e6dfcd15d555a54830364efcfeffffff0253996b1b000000001976a9144050069b7c47f847bd508dfed36f5a83c091110a88ace4d8400c040000001976a9140a93decc4e81147e56e50860d007e125036f1b5c88ac2bbc1400"
    }, 
    {
      "txid": "5eb35c859ebf153b1b8597e95833e9a5259e29bcbdbc1edcd870e886eaf12d60",
      "hash": "5eb35c859ebf153b1b8597e95833e9a5259e29bcbdbc1edcd870e886eaf12d60",
      "version": 1,
      "size": 373,
      "vsize": 373,
      "locktime": 1358891,
      "vin": [
        {
          "txid": "436cb6a0a297ba688ba58045e0f4f471c33f989f6175399cdee8c2b946494e19",
          "vout": 0,
          "scriptSig": {
            "asm": "3045022100f9d392b7cccee3d9805119901d5f41930e6f6c58da5557f7b7b42e247bec8a12022045c1b159b42c1b77e9f63e50d87b29f361e0bb87a2f528b0886786b860382e0b[ALL] 02a295348a2e3bc15700720cbbfa0a58cf42524b754e233613a580ca07986dc32f",
            "hex": "483045022100f9d392b7cccee3d9805119901d5f41930e6f6c58da5557f7b7b42e247bec8a12022045c1b159b42c1b77e9f63e50d87b29f361e0bb87a2f528b0886786b860382e0b012102a295348a2e3bc15700720cbbfa0a58cf42524b754e233613a580ca07986dc32f"
          },
          "sequence": 4294967294
        }, 
        {
          "txid": "aaaeac2b87e3d3567c26f18c3080f904d8ba2c472d9e5e3fac712e76bf3dcc06",
          "vout": 1130,
          "scriptSig": {
            "asm": "3044022075784a248ee455c3440ec7c3d513d66598c78aabe7234fa8b879c6fbf20f48b902205f587715217a874634842950214f0e7ef969cd9a928ca510b4ae0de01a8eeb0f[ALL] 0265f6d0aa9ddf025c57f8f29547d09e0e98b844381a9dec0a6f713fe6880517a8",
            "hex": "473044022075784a248ee455c3440ec7c3d513d66598c78aabe7234fa8b879c6fbf20f48b902205f587715217a874634842950214f0e7ef969cd9a928ca510b4ae0de01a8eeb0f01210265f6d0aa9ddf025c57f8f29547d09e0e98b844381a9dec0a6f713fe6880517a8"
          },
          "sequence": 4294967294
        }
      ],
      "vout": [
        {
          "value": 0.50000000,
          "n": 0,
          "scriptPubKey": {
            "asm": "OP_DUP OP_HASH160 4d3a9e5a88aad3558a52412c63d9d16d5a665d7c OP_EQUALVERIFY OP_CHECKSIG",
            "hex": "76a9144d3a9e5a88aad3558a52412c63d9d16d5a665d7c88ac",
            "reqSigs": 1,
            "type": "pubkeyhash",
            "addresses": [
              "LSGJWscoQZjkbuR29wmnwStYQ789fcVESM"
            ]
          }
        }, 
        {
          "value": 0.01000984,
          "n": 1,
          "scriptPubKey": {
            "asm": "OP_DUP OP_HASH160 9fad8ceb2815ec25a55341e4556c760d6d4b6e96 OP_EQUALVERIFY OP_CHECKSIG",
            "hex": "76a9149fad8ceb2815ec25a55341e4556c760d6d4b6e9688ac",
            "reqSigs": 1,
            "type": "pubkeyhash",
            "addresses": [
              "LZnFcDEBoBuEqGg8reJbkzT66AZPjpJpvt"
            ]
          }
        }
      ],
      "hex": "0100000002194e4946b9c2e8de9c3975619f983fc371f4f4e04580a58b68ba97a2a0b66c43000000006b483045022100f9d392b7cccee3d9805119901d5f41930e6f6c58da5557f7b7b42e247bec8a12022045c1b159b42c1b77e9f63e50d87b29f361e0bb87a2f528b0886786b860382e0b012102a295348a2e3bc15700720cbbfa0a58cf42524b754e233613a580ca07986dc32ffeffffff06cc3dbf762e71ac3f5e9e2d472cbad804f980308cf1267c56d3e3872bacaeaa6a0400006a473044022075784a248ee455c3440ec7c3d513d66598c78aabe7234fa8b879c6fbf20f48b902205f587715217a874634842950214f0e7ef969cd9a928ca510b4ae0de01a8eeb0f01210265f6d0aa9ddf025c57f8f29547d09e0e98b844381a9dec0a6f713fe6880517a8feffffff0280f0fa02000000001976a9144d3a9e5a88aad3558a52412c63d9d16d5a665d7c88ac18460f00000000001976a9149fad8ceb2815ec25a55341e4556c760d6d4b6e9688ac2bbc1400"
    }
  ],
  "time": 1517207157,
  "mediantime": 1517206239,
  "nonce": 1340190883,
  "bits": "1a042eae",
  "difficulty": 4011378.762614286,
  "chainwork": "0000000000000000000000000000000000000000000000337ef2fe4b45747a5c",
  "previousblockhash": "9c3b419c5f1825848d3ca565b0d8b7891c86e857864a4b01ad2d48b54d2168fd",
  "nextblockhash": "f6f603e3f676b1eb982278e5e2972d59e74b684d8085adac0394009bd2328067"
}
