{
  "hash": "48ac8f40a86cbfab6c8c16701384c4ec07c9c63e140fe1ccb60c03776c7b44aa",
  "confirmations": 1256,
  "strippedsize": 254,
  "size": 254,
  "weight": 1016,
  "height": 1359738,
  "version": 536870912,
  "versionHex": "20000000",
  "merkleroot": "b835f45ecdb40b76a69a36ef4514ed139a7b76602142f5ac2a7b872a66f54253",
  "tx": [
    {
      "txid": "b835f45ecdb40b76a69a36ef4514ed139a7b76602142f5ac2a7b872a66f54253",
      "hash": "b835f45ecdb40b76a69a36ef4514ed139a7b76602142f5ac2a7b872a66f54253",
      "version": 1,
      "size": 173,
      "vsize": 173,
      "locktime": 0,
      "vin": [
        {
          "coinbase": "037abf141b4d696e656420627920416e74506f6f6c20626a312045205a708a6dfabe6d6d035b7c937dcb388b68346bfc30d6776d12cf678e0af342df7fe1050d85c72bf30400000000000000c00b0000000000000e000000",
          "sequence": 4294967295
        }
      ],
      "vout": [
        {
          "value": 25.00000000,
          "n": 0,
          "scriptPubKey": {
            "asm": "OP_DUP OP_HASH160 0ff3ccc5e8be88afe24b5d634e5852d474dbdff1 OP_EQUALVERIFY OP_CHECKSIG",
            "hex": "76a9140ff3ccc5e8be88afe24b5d634e5852d474dbdff188ac",
            "reqSigs": 1,
            "type": "pubkeyhash",
            "addresses": [
              "LLgJTbzZMsRTCUF1NtvvL9SR1a4pVieW89"
            ]
          }
        }
      ],
      "hex": "01000000010000000000000000000000000000000000000000000000000000000000000000ffffffff58037abf141b4d696e656420627920416e74506f6f6c20626a312045205a708a6dfabe6d6d035b7c937dcb388b68346bfc30d6776d12cf678e0af342df7fe1050d85c72bf30400000000000000c00b0000000000000e000000ffffffff0100f90295000000001976a9140ff3ccc5e8be88afe24b5d634e5852d474dbdff188ac00000000"
    }
  ],
  "time": 1517324909,
  "mediantime": 1517324594,
  "nonce": 909183693,
  "bits": "1a042eae",
  "difficulty": 4011378.762614286,
  "chainwork": "00000000000000000000000000000000000000000000003448fd3423e405fc76",
  "previousblockhash": "ed372787af311c790a6c3b3c6d1fd655a147c45a136f7210edc72210d200d410",
  "nextblockhash": "493988cf9dd016ad7e795076adf48424f13cad4a05768edf3e5c820d06be3332"
}
