{
  "hash": "48b25e77366787d5d8a8e65b9f65fe602799b3b084629b3849947a26c61a4743",
  "confirmations": 2277,
  "strippedsize": 254,
  "size": 254,
  "weight": 1016,
  "height": 1358718,
  "version": 536870912,
  "versionHex": "20000000",
  "merkleroot": "783a00cd6a31b1b1ce72c4cd55c4e47ed493447d0fdf264efa6677de8f7ccac7",
  "tx": [
    {
      "txid": "783a00cd6a31b1b1ce72c4cd55c4e47ed493447d0fdf264efa6677de8f7ccac7",
      "hash": "783a00cd6a31b1b1ce72c4cd55c4e47ed493447d0fdf264efa6677de8f7ccac7",
      "version": 1,
      "size": 173,
      "vsize": 173,
      "locktime": 0,
      "vin": [
        {
          "coinbase": "037ebb141b4d696e656420627920416e74506f6f6c20626a302042205a6e5ee5fabe6d6d50e5a52bd7ae5314386cfaec57c2309a43fad1f00fed789e1e23e931f1c04c5d0400000000000000182200000000000003000000",
          "sequence": 4294967295
        }
      ],
      "vout": [
        {
          "value": 25.00000000,
          "n": 0,
          "scriptPubKey": {
            "asm": "OP_DUP OP_HASH160 0ff3ccc5e8be88afe24b5d634e5852d474dbdff1 OP_EQUALVERIFY OP_CHECKSIG",
            "hex": "76a9140ff3ccc5e8be88afe24b5d634e5852d474dbdff188ac",
            "reqSigs": 1,
            "type": "pubkeyhash",
            "addresses": [
              "LLgJTbzZMsRTCUF1NtvvL9SR1a4pVieW89"
            ]
          }
        }
      ],
      "hex": "01000000010000000000000000000000000000000000000000000000000000000000000000ffffffff58037ebb141b4d696e656420627920416e74506f6f6c20626a302042205a6e5ee5fabe6d6d50e5a52bd7ae5314386cfaec57c2309a43fad1f00fed789e1e23e931f1c04c5d0400000000000000182200000000000003000000ffffffff0100f90295000000001976a9140ff3ccc5e8be88afe24b5d634e5852d474dbdff188ac00000000"
    }
  ],
  "time": 1517182693,
  "mediantime": 1517182121,
  "nonce": 4229896710,
  "bits": "1a047f14",
  "difficulty": 3731199.183374282,
  "chainwork": "00000000000000000000000000000000000000000000003356312f6ea806e1e6",
  "previousblockhash": "f85f9a4afc7b59e9765c132f531016efd45e6164c6cd7ed32314b9e21dd4a7dd",
  "nextblockhash": "bd7a30361f01264a7aeb80f5c49688c7049edb45526b7d9235b7c75eb4f2cf20"
}
