{
  "hash": "48f9e748a15c745bd715458c4136d5c7b15ee466bb70e5ca31cd2a388088da4f",
  "confirmations": 3535,
  "strippedsize": 256,
  "size": 256,
  "weight": 1024,
  "height": 1357460,
  "version": 536870912,
  "versionHex": "20000000",
  "merkleroot": "60c376d9c4eeaa6e94a466ec565f739da132b31760b62817c2465895c0e02b2a",
  "tx": [
    {
      "txid": "60c376d9c4eeaa6e94a466ec565f739da132b31760b62817c2465895c0e02b2a",
      "hash": "60c376d9c4eeaa6e94a466ec565f739da132b31760b62817c2465895c0e02b2a",
      "version": 1,
      "size": 175,
      "vsize": 175,
      "locktime": 0,
      "vin": [
        {
          "coinbase": "0394b6141d4d696e656420627920416e74506f6f6c20626a302042205a6babf10858fabe6d6d46c6abfefca126a44341020a8ad396890ff42d893e748432c5759946f027687c0400000000000000a11d00000000000011000000",
          "sequence": 4294967295
        }
      ],
      "vout": [
        {
          "value": 25.00000000,
          "n": 0,
          "scriptPubKey": {
            "asm": "OP_DUP OP_HASH160 0ff3ccc5e8be88afe24b5d634e5852d474dbdff1 OP_EQUALVERIFY OP_CHECKSIG",
            "hex": "76a9140ff3ccc5e8be88afe24b5d634e5852d474dbdff188ac",
            "reqSigs": 1,
            "type": "pubkeyhash",
            "addresses": [
              "LLgJTbzZMsRTCUF1NtvvL9SR1a4pVieW89"
            ]
          }
        }
      ],
      "hex": "01000000010000000000000000000000000000000000000000000000000000000000000000ffffffff5a0394b6141d4d696e656420627920416e74506f6f6c20626a302042205a6babf10858fabe6d6d46c6abfefca126a44341020a8ad396890ff42d893e748432c5759946f027687c0400000000000000a11d00000000000011000000ffffffff0100f90295000000001976a9140ff3ccc5e8be88afe24b5d634e5852d474dbdff188ac00000000"
    }
  ],
  "time": 1517005809,
  "mediantime": 1517005284,
  "nonce": 3823341980,
  "bits": "1a047f14",
  "difficulty": 3731199.183374282,
  "chainwork": "0000000000000000000000000000000000000000000000323e69a5aa6ef08a22",
  "previousblockhash": "e958c50d8e0c8f22f8dfcf3cbdfc676483794d2907125aabad3f4d050f6f20b2",
  "nextblockhash": "b1715a2443f1d2816a6d6f6cd3aa8b33e78bc2294aaf85af35f516ec9f2b609c"
}
