{
  "hash": "497a8332d48974b70dbced7c548b5502945419cf54c6c18502374aef8f9f0078",
  "confirmations": 741,
  "strippedsize": 3144,
  "size": 3180,
  "weight": 12612,
  "height": 1360253,
  "version": 536870912,
  "versionHex": "20000000",
  "merkleroot": "5f5cb7957780f0d4a8d88e67488177078d00099f0c587e48844e4f1b9eb7861d",
  "tx": [
    {
      "txid": "7eef6f6394505634b962e846c53ac6f15f861b2fb9ac128700ce2e89694d67d4",
      "hash": "67ee6a932659e10a7e357b0e03976fe1df8f0e390bc60827050bb28213e3ed2d",
      "version": 1,
      "size": 244,
      "vsize": 217,
      "locktime": 0,
      "vin": [
        {
          "coinbase": "037dc11404a3b0715a0805acb97c11000000fabe6d6d25577fd0c0dec556d2e4d30d9c810a77b0ebd245946f94ecda11dd6512a4458240000000000000000d2f6e6f64655374726174756d2f",
          "sequence": 0
        }
      ],
      "vout": [
        {
          "value": 25.00489300,
          "n": 0,
          "scriptPubKey": {
            "asm": "OP_DUP OP_HASH160 0c617fdb2ea42aed30a509595ee21ba3f6688db0 OP_EQUALVERIFY OP_CHECKSIG",
            "hex": "76a9140c617fdb2ea42aed30a509595ee21ba3f6688db088ac",
            "reqSigs": 1,
            "type": "pubkeyhash",
            "addresses": [
              "LLMRAtr3qBje2ySEa3CnZ55LA4TQMWnRY3"
            ]
          }
        }, 
        {
          "value": 0.00000000,
          "n": 1,
          "scriptPubKey": {
            "asm": "OP_RETURN aa21a9edeb5b5d466c79c22efe2668f63ce91849b75761a6d054cfdb12a2665c86d091a2",
            "hex": "6a24aa21a9edeb5b5d466c79c22efe2668f63ce91849b75761a6d054cfdb12a2665c86d091a2",
            "type": "nulldata"
          }
        }
      ],
      "hex": "010000000001010000000000000000000000000000000000000000000000000000000000000000ffffffff4c037dc11404a3b0715a0805acb97c11000000fabe6d6d25577fd0c0dec556d2e4d30d9c810a77b0ebd245946f94ecda11dd6512a4458240000000000000000d2f6e6f64655374726174756d2f000000000254700a95000000001976a9140c617fdb2ea42aed30a509595ee21ba3f6688db088ac0000000000000000266a24aa21a9edeb5b5d466c79c22efe2668f63ce91849b75761a6d054cfdb12a2665c86d091a20120000000000000000000000000000000000000000000000000000000000000000000000000"
    }, 
    {
      "txid": "8af631dc0516cff0e68336b34127100de54bc345f15fed158678efb687620a83",
      "hash": "8af631dc0516cff0e68336b34127100de54bc345f15fed158678efb687620a83",
      "version": 1,
      "size": 225,
      "vsize": 225,
      "locktime": 1360251,
      "vin": [
        {
          "txid": "d998900112ff7e3ef4c52de0f2635eae455d71483bffaf7c8515d09944287efe",
          "vout": 1,
          "scriptSig": {
            "asm": "304402204cacb840c042295087012bd623c0a129aead45177c800a8ce7b944c7171219bb022056098fb310f01e9d8c94bd8c4992c76475bd8785d1cba38527a05ef49de2929c[ALL] 02826c58d7340368fc857e40bf2e8ad0ffcbb1d6950464714c5be2d8413a307d98",
            "hex": "47304402204cacb840c042295087012bd623c0a129aead45177c800a8ce7b944c7171219bb022056098fb310f01e9d8c94bd8c4992c76475bd8785d1cba38527a05ef49de2929c012102826c58d7340368fc857e40bf2e8ad0ffcbb1d6950464714c5be2d8413a307d98"
          },
          "sequence": 4294967294
        }
      ],
      "vout": [
        {
          "value": 0.18829554,
          "n": 0,
          "scriptPubKey": {
            "asm": "OP_DUP OP_HASH160 9ce67aee4db8cc4aca23fd84a304eb90e83fe61e OP_EQUALVERIFY OP_CHECKSIG",
            "hex": "76a9149ce67aee4db8cc4aca23fd84a304eb90e83fe61e88ac",
            "reqSigs": 1,
            "type": "pubkeyhash",
            "addresses": [
              "LZXZnBbasGBcni6r8pLkwE8tDgtXqPykt2"
            ]
          }
        }, 
        {
          "value": 0.62505646,
          "n": 1,
          "scriptPubKey": {
            "asm": "OP_DUP OP_HASH160 b8c80a842ef49b4475d51a9cb6735b746cea577c OP_EQUALVERIFY OP_CHECKSIG",
            "hex": "76a914b8c80a842ef49b4475d51a9cb6735b746cea577c88ac",
            "reqSigs": 1,
            "type": "pubkeyhash",
            "addresses": [
              "Lc4zEcCV52uEwmTNjCFmXD9DVnA9bcwJt8"
            ]
          }
        }
      ],
      "hex": "0100000001fe7e284499d015857cafff3b48715d45ae5e63f2e02dc5f43e7eff12019098d9010000006a47304402204cacb840c042295087012bd623c0a129aead45177c800a8ce7b944c7171219bb022056098fb310f01e9d8c94bd8c4992c76475bd8785d1cba38527a05ef49de2929c012102826c58d7340368fc857e40bf2e8ad0ffcbb1d6950464714c5be2d8413a307d98feffffff02f2501f01000000001976a9149ce67aee4db8cc4aca23fd84a304eb90e83fe61e88acaec2b903000000001976a914b8c80a842ef49b4475d51a9cb6735b746cea577c88ac7bc11400"
    }, 
    {
      "txid": "20feab5508640b46b8563392726430fc88307143ec7b1fc500b34630b69fedaa",
      "hash": "20feab5508640b46b8563392726430fc88307143ec7b1fc500b34630b69fedaa",
      "version": 1,
      "size": 225,
      "vsize": 225,
      "locktime": 0,
      "vin": [
        {
          "txid": "5728b5d3f7a3accaef080f824aa937045f861ac9c94f20c2424bd097000c907f",
          "vout": 1,
          "scriptSig": {
            "asm": "304402201061df35120f776fd952b3d3aa0703674cebd8f26ad2413cc358aeb5fa725f770220170575c5044e8d7025fbfa800899c36bb2f2d1e198ab877a84f844931428795b[ALL] 033a74fcaec6e5b9fffb7580101717b50ffa69821e6be16b92a7c6858f96098b5b",
            "hex": "47304402201061df35120f776fd952b3d3aa0703674cebd8f26ad2413cc358aeb5fa725f770220170575c5044e8d7025fbfa800899c36bb2f2d1e198ab877a84f844931428795b0121033a74fcaec6e5b9fffb7580101717b50ffa69821e6be16b92a7c6858f96098b5b"
          },
          "sequence": 4294967295
        }
      ],
      "vout": [
        {
          "value": 81.87346016,
          "n": 0,
          "scriptPubKey": {
            "asm": "OP_DUP OP_HASH160 809ffa9fd7cdeddcab1d00f13bde1bd0e97ab39f OP_EQUALVERIFY OP_CHECKSIG",
            "hex": "76a914809ffa9fd7cdeddcab1d00f13bde1bd0e97ab39f88ac",
            "reqSigs": 1,
            "type": "pubkeyhash",
            "addresses": [
              "LWx4QJYDfWb5kBP48J27xgpQd7DcwGxb5W"
            ]
          }
        }, 
        {
          "value": 0.91750730,
          "n": 1,
          "scriptPubKey": {
            "asm": "OP_DUP OP_HASH160 e89bc3b267e77ce86c8dcf42526ba0eed22fd95e OP_EQUALVERIFY OP_CHECKSIG",
            "hex": "76a914e89bc3b267e77ce86c8dcf42526ba0eed22fd95e88ac",
            "reqSigs": 1,
            "type": "pubkeyhash",
            "addresses": [
              "LgRsdRMiF1AoVb135i8qYffyifr8iB3egC"
            ]
          }
        }
      ],
      "hex": "01000000017f900c0097d04b42c2204fc9c91a865f0437a94a820f08efcaaca3f7d3b52857010000006a47304402201061df35120f776fd952b3d3aa0703674cebd8f26ad2413cc358aeb5fa725f770220170575c5044e8d7025fbfa800899c36bb2f2d1e198ab877a84f844931428795b0121033a74fcaec6e5b9fffb7580101717b50ffa69821e6be16b92a7c6858f96098b5bffffffff0260fc00e8010000001976a914809ffa9fd7cdeddcab1d00f13bde1bd0e97ab39f88ac4a017805000000001976a914e89bc3b267e77ce86c8dcf42526ba0eed22fd95e88ac00000000"
    }, 
    {
      "txid": "a73aa63b398c947321365406fdde273694ae3b401006afff5586933306394ecd",
      "hash": "a73aa63b398c947321365406fdde273694ae3b401006afff5586933306394ecd",
      "version": 1,
      "size": 225,
      "vsize": 225,
      "locktime": 0,
      "vin": [
        {
          "txid": "eb7278f191752116ed056c02c1dd34bf565c0ad03605501c7f14a8551b5c7cfe",
          "vout": 276,
          "scriptSig": {
            "asm": "30440220762579379fc972dbf91e93d39605dc22a1be131f96f4c999729ed71e3e89953c02201fd3ed1e75145d8871c1e9b25b80879107aafe78887bf705eced98cb4e29442e[ALL] 02d6cd5a1b72069372c1db29b4a2af0484a9d96d2762c23b80e9cc6f8dda5f1cd6",
            "hex": "4730440220762579379fc972dbf91e93d39605dc22a1be131f96f4c999729ed71e3e89953c02201fd3ed1e75145d8871c1e9b25b80879107aafe78887bf705eced98cb4e29442e012102d6cd5a1b72069372c1db29b4a2af0484a9d96d2762c23b80e9cc6f8dda5f1cd6"
          },
          "sequence": 4294967295
        }
      ],
      "vout": [
        {
          "value": 0.00445613,
          "n": 0,
          "scriptPubKey": {
            "asm": "OP_DUP OP_HASH160 9f14747601d15737cec01ddf3dc08e9959b63c85 OP_EQUALVERIFY OP_CHECKSIG",
            "hex": "76a9149f14747601d15737cec01ddf3dc08e9959b63c8588ac",
            "reqSigs": 1,
            "type": "pubkeyhash",
            "addresses": [
              "LZj6CwtdfneX6dwCyBLyRd11iHzfQPFoJQ"
            ]
          }
        }, 
        {
          "value": 0.20989505,
          "n": 1,
          "scriptPubKey": {
            "asm": "OP_DUP OP_HASH160 bda184901c27054ac772adb733d93327dfc84344 OP_EQUALVERIFY OP_CHECKSIG",
            "hex": "76a914bda184901c27054ac772adb733d93327dfc8434488ac",
            "reqSigs": 1,
            "type": "pubkeyhash",
            "addresses": [
              "LcWdTvYyBN2kXGRPxkSTYZ7emUei15AYiS"
            ]
          }
        }
      ],
      "hex": "0100000001fe7c5c1b55a8147f1c500536d00a5c56bf34ddc1026c05ed16217591f17872eb140100006a4730440220762579379fc972dbf91e93d39605dc22a1be131f96f4c999729ed71e3e89953c02201fd3ed1e75145d8871c1e9b25b80879107aafe78887bf705eced98cb4e29442e012102d6cd5a1b72069372c1db29b4a2af0484a9d96d2762c23b80e9cc6f8dda5f1cd6ffffffff02adcc0600000000001976a9149f14747601d15737cec01ddf3dc08e9959b63c8588ac41464001000000001976a914bda184901c27054ac772adb733d93327dfc8434488ac00000000"
    }, 
    {
      "txid": "b3390cabae2286c266a58bdce10238c322ec47646a137d12650f71b921ede4ee",
      "hash": "b3390cabae2286c266a58bdce10238c322ec47646a137d12650f71b921ede4ee",
      "version": 1,
      "size": 225,
      "vsize": 225,
      "locktime": 0,
      "vin": [
        {
          "txid": "5d31c68e82d63075fbe48667a1392448ca070ff7e9e192cb7eb6eb68d1f19007",
          "vout": 1,
          "scriptSig": {
            "asm": "3044022016cb062538c162b8f2c536edac745d0c27c8a869f2c6417e6aeb26fa6bbfa13c022034b2aa5dba37413eb4638699c2fb47a92b47a555e6fda67cedb61b1314519bf8[ALL] 03d6d70df241dae66261fc3affe5bf649bedd4d8e6ae6e9efddc063ed96a3bf44e",
            "hex": "473044022016cb062538c162b8f2c536edac745d0c27c8a869f2c6417e6aeb26fa6bbfa13c022034b2aa5dba37413eb4638699c2fb47a92b47a555e6fda67cedb61b1314519bf8012103d6d70df241dae66261fc3affe5bf649bedd4d8e6ae6e9efddc063ed96a3bf44e"
          },
          "sequence": 4294967295
        }
      ],
      "vout": [
        {
          "value": 0.00108158,
          "n": 0,
          "scriptPubKey": {
            "asm": "OP_DUP OP_HASH160 c3b8526d56adf7e674d9cdbc13c96680849b1cb2 OP_EQUALVERIFY OP_CHECKSIG",
            "hex": "76a914c3b8526d56adf7e674d9cdbc13c96680849b1cb288ac",
            "reqSigs": 1,
            "type": "pubkeyhash",
            "addresses": [
              "Ld4pqY2LTzUCBh4EtiqrvQBqcX6DQQAEMW"
            ]
          }
        }, 
        {
          "value": 0.22488756,
          "n": 1,
          "scriptPubKey": {
            "asm": "OP_DUP OP_HASH160 b123cf6fb06111859d6d973f9e6ad9dd5b557bfd OP_EQUALVERIFY OP_CHECKSIG",
            "hex": "76a914b123cf6fb06111859d6d973f9e6ad9dd5b557bfd88ac",
            "reqSigs": 1,
            "type": "pubkeyhash",
            "addresses": [
              "LbNamJwW8mwEbYaJ14WWpwEb8tvZSZy73t"
            ]
          }
        }
      ],
      "hex": "01000000010790f1d168ebb67ecb92e1e9f70f07ca482439a16786e4fb7530d6828ec6315d010000006a473044022016cb062538c162b8f2c536edac745d0c27c8a869f2c6417e6aeb26fa6bbfa13c022034b2aa5dba37413eb4638699c2fb47a92b47a555e6fda67cedb61b1314519bf8012103d6d70df241dae66261fc3affe5bf649bedd4d8e6ae6e9efddc063ed96a3bf44effffffff027ea60100000000001976a914c3b8526d56adf7e674d9cdbc13c96680849b1cb288acb4265701000000001976a914b123cf6fb06111859d6d973f9e6ad9dd5b557bfd88ac00000000"
    }, 
    {
      "txid": "db42a36d00fe82bf7c93bc83e89710b1f0babf7ae476b427b46be5046de32a0c",
      "hash": "db42a36d00fe82bf7c93bc83e89710b1f0babf7ae476b427b46be5046de32a0c",
      "version": 1,
      "size": 226,
      "vsize": 226,
      "locktime": 0,
      "vin": [
        {
          "txid": "5a053231a37748e2281b5bfbd195e7d8b5c982ec5a64435d10d68e0033bd2bf5",
          "vout": 0,
          "scriptSig": {
            "asm": "3045022100d48af7991e4ec377f393a103895b8085051a595262e6f5c8fc5118034d16473202204f83cae9a6a0d58d1340476b66db178275f3b63f6964d8591bbe4a2f1e3efbca[ALL] 02a8ebc2130a4d11fd1e7a12ffe43ccedfddff3459f7610f84f4781155acb79e83",
            "hex": "483045022100d48af7991e4ec377f393a103895b8085051a595262e6f5c8fc5118034d16473202204f83cae9a6a0d58d1340476b66db178275f3b63f6964d8591bbe4a2f1e3efbca012102a8ebc2130a4d11fd1e7a12ffe43ccedfddff3459f7610f84f4781155acb79e83"
          },
          "sequence": 4294967295
        }
      ],
      "vout": [
        {
          "value": 82.64520219,
          "n": 0,
          "scriptPubKey": {
            "asm": "OP_DUP OP_HASH160 209f5f1155ccb4a76343731226bfe4a80ec65e87 OP_EQUALVERIFY OP_CHECKSIG",
            "hex": "76a914209f5f1155ccb4a76343731226bfe4a80ec65e8788ac",
            "reqSigs": 1,
            "type": "pubkeyhash",
            "addresses": [
              "LNCSofgMQRD5mo4ChfSFBZ4RWbokLhPxbv"
            ]
          }
        }, 
        {
          "value": 1.88800933,
          "n": 1,
          "scriptPubKey": {
            "asm": "OP_DUP OP_HASH160 d7a04021a9c4386462a22ebc27037e60061f9749 OP_EQUALVERIFY OP_CHECKSIG",
            "hex": "76a914d7a04021a9c4386462a22ebc27037e60061f974988ac",
            "reqSigs": 1,
            "type": "pubkeyhash",
            "addresses": [
              "Let5Wrggo6nPCFRgUN9ZqKEMd4KHxVgU7b"
            ]
          }
        }
      ],
      "hex": "0100000001f52bbd33008ed6105d43645aec82c9b5d8e795d1fb5b1b28e24877a33132055a000000006b483045022100d48af7991e4ec377f393a103895b8085051a595262e6f5c8fc5118034d16473202204f83cae9a6a0d58d1340476b66db178275f3b63f6964d8591bbe4a2f1e3efbca012102a8ebc2130a4d11fd1e7a12ffe43ccedfddff3459f7610f84f4781155acb79e83ffffffff021b929aec010000001976a914209f5f1155ccb4a76343731226bfe4a80ec65e8788aca5df400b000000001976a914d7a04021a9c4386462a22ebc27037e60061f974988ac00000000"
    }, 
    {
      "txid": "8eb622108f9ae503791fe070777542866394a546e4375deb849de2bd67be1636",
      "hash": "8eb622108f9ae503791fe070777542866394a546e4375deb849de2bd67be1636",
      "version": 1,
      "size": 373,
      "vsize": 373,
      "locktime": 1360251,
      "vin": [
        {
          "txid": "73098e2d0e44aece38f4cffb8e9b64d075f511cdc313816348229d43021cba36",
          "vout": 33,
          "scriptSig": {
            "asm": "3045022100c4f1c4f4df61758485eeb2e16308469a1b350712d51107f658d272ff248fd808022013e3f4499912d02feb8d0261e94a5149f4e18468eecb075f32626c35e29f24fa[ALL] 02112743ece762f410c60f66c6ab9ff7494aff62b522158d9d16e104d417289d39",
            "hex": "483045022100c4f1c4f4df61758485eeb2e16308469a1b350712d51107f658d272ff248fd808022013e3f4499912d02feb8d0261e94a5149f4e18468eecb075f32626c35e29f24fa012102112743ece762f410c60f66c6ab9ff7494aff62b522158d9d16e104d417289d39"
          },
          "sequence": 4294967294
        }, 
        {
          "txid": "616bb2ef921e940d9463701ff5dba2e59e2c28ba9bace2b73863f865fdb82a2a",
          "vout": 255,
          "scriptSig": {
            "asm": "3044022014122526261ea0038ae85275f0c35e586f60192c4bb74c1099c1c9fca56c11a7022077b8e6bb1628540d44dda876df2e6a61efb397c4afa0313cc2f400561dad0b0b[ALL] 02112743ece762f410c60f66c6ab9ff7494aff62b522158d9d16e104d417289d39",
            "hex": "473044022014122526261ea0038ae85275f0c35e586f60192c4bb74c1099c1c9fca56c11a7022077b8e6bb1628540d44dda876df2e6a61efb397c4afa0313cc2f400561dad0b0b012102112743ece762f410c60f66c6ab9ff7494aff62b522158d9d16e104d417289d39"
          },
          "sequence": 4294967294
        }
      ],
      "vout": [
        {
          "value": 0.01143114,
          "n": 0,
          "scriptPubKey": {
            "asm": "OP_DUP OP_HASH160 b237e52d3fee9857e297d34f804cbafb10aac4bf OP_EQUALVERIFY OP_CHECKSIG",
            "hex": "76a914b237e52d3fee9857e297d34f804cbafb10aac4bf88ac",
            "reqSigs": 1,
            "type": "pubkeyhash",
            "addresses": [
              "LbUHW2WoYJqkXjBjCyz4qH2Q1rdYKKUSdf"
            ]
          }
        }, 
        {
          "value": 0.00500000,
          "n": 1,
          "scriptPubKey": {
            "asm": "OP_DUP OP_HASH160 c53cb55bdac441bb23d1dcabb9c17168908de597 OP_EQUALVERIFY OP_CHECKSIG",
            "hex": "76a914c53cb55bdac441bb23d1dcabb9c17168908de59788ac",
            "reqSigs": 1,
            "type": "pubkeyhash",
            "addresses": [
              "LdCr76irzpVfjaMbv9ABpB5R2ijjTxvbs6"
            ]
          }
        }
      ],
      "hex": "010000000236ba1c02439d2248638113c3cd11f575d0649b8efbcff438ceae440e2d8e0973210000006b483045022100c4f1c4f4df61758485eeb2e16308469a1b350712d51107f658d272ff248fd808022013e3f4499912d02feb8d0261e94a5149f4e18468eecb075f32626c35e29f24fa012102112743ece762f410c60f66c6ab9ff7494aff62b522158d9d16e104d417289d39feffffff2a2ab8fd65f86338b7e2ac9bba282c9ee5a2dbf51f7063940d941e92efb26b61ff0000006a473044022014122526261ea0038ae85275f0c35e586f60192c4bb74c1099c1c9fca56c11a7022077b8e6bb1628540d44dda876df2e6a61efb397c4afa0313cc2f400561dad0b0b012102112743ece762f410c60f66c6ab9ff7494aff62b522158d9d16e104d417289d39feffffff024a711100000000001976a914b237e52d3fee9857e297d34f804cbafb10aac4bf88ac20a10700000000001976a914c53cb55bdac441bb23d1dcabb9c17168908de59788ac7bc11400"
    }, 
    {
      "txid": "f048b18480d67bfb456be42ea61a5be3d66aab7f7daa9987ec890b00d582cf4f",
      "hash": "f048b18480d67bfb456be42ea61a5be3d66aab7f7daa9987ec890b00d582cf4f",
      "version": 1,
      "size": 226,
      "vsize": 226,
      "locktime": 0,
      "vin": [
        {
          "txid": "2fc3011002fa8568a8596812b6f60d425a1a0e0922a1b0d59489ec6887138c94",
          "vout": 0,
          "scriptSig": {
            "asm": "30450221008df6d8d3473e3c187852d1b104059820d19351316f889f49d3c30773b5e958af02205e66446dbbf3d7b71cba80b8086a6fe92b1c4481d4d78eaee482de5d90878bf6[ALL] 028d11b185baf3b38545b8969eea91f32587919644d7515ca3e9c8d4cbc93ef6ad",
            "hex": "4830450221008df6d8d3473e3c187852d1b104059820d19351316f889f49d3c30773b5e958af02205e66446dbbf3d7b71cba80b8086a6fe92b1c4481d4d78eaee482de5d90878bf60121028d11b185baf3b38545b8969eea91f32587919644d7515ca3e9c8d4cbc93ef6ad"
          },
          "sequence": 4294967295
        }
      ],
      "vout": [
        {
          "value": 0.45989500,
          "n": 0,
          "scriptPubKey": {
            "asm": "OP_DUP OP_HASH160 c432b80d47d8a5e345f6de5d1d8e6864dc936c93 OP_EQUALVERIFY OP_CHECKSIG",
            "hex": "76a914c432b80d47d8a5e345f6de5d1d8e6864dc936c9388ac",
            "reqSigs": 1,
            "type": "pubkeyhash",
            "addresses": [
              "Ld7MTptDNR5mQWpZiL9Ar9XFckdTGw89iq"
            ]
          }
        }, 
        {
          "value": 82.21534946,
          "n": 1,
          "scriptPubKey": {
            "asm": "OP_DUP OP_HASH160 46187d4dd9db2931ded5365e2330cc205358e24c OP_EQUALVERIFY OP_CHECKSIG",
            "hex": "76a91446187d4dd9db2931ded5365e2330cc205358e24c88ac",
            "reqSigs": 1,
            "type": "pubkeyhash",
            "addresses": [
              "LRcauCWfa9uCCNV99aqJ9TLpoPftqqMeJg"
            ]
          }
        }
      ],
      "hex": "0100000001948c138768ec8994d5b0a122090e1a5a420df6b6126859a86885fa021001c32f000000006b4830450221008df6d8d3473e3c187852d1b104059820d19351316f889f49d3c30773b5e958af02205e66446dbbf3d7b71cba80b8086a6fe92b1c4481d4d78eaee482de5d90878bf60121028d11b185baf3b38545b8969eea91f32587919644d7515ca3e9c8d4cbc93ef6adffffffff027cbebd02000000001976a914c432b80d47d8a5e345f6de5d1d8e6864dc936c9388ace2aa0aea010000001976a91446187d4dd9db2931ded5365e2330cc205358e24c88ac00000000"
    }, 
    {
      "txid": "8cc1162335ee80b2d2972bedfbb1875eadeb2caa5c62f15880c46f39a057c274",
      "hash": "8cc1162335ee80b2d2972bedfbb1875eadeb2caa5c62f15880c46f39a057c274",
      "version": 1,
      "size": 226,
      "vsize": 226,
      "locktime": 0,
      "vin": [
        {
          "txid": "3fa4efb3fe2ffe30d6d82efa5d9764204a5fe47162ec2bdfe75e7b4b09be414f",
          "vout": 1,
          "scriptSig": {
            "asm": "3045022100c78982407fd565de0315a1f544c9846d7bc0752d90cb5e2eedd536684e8df6a9022013e18b89e97a533a70d6ebcc73dc9f620e14e622bc6e0878388b990ab862ab95[ALL] 02e9cec69ee094c37402545f2c2ea6a0fe62975a93db334d6f8824036d753ba920",
            "hex": "483045022100c78982407fd565de0315a1f544c9846d7bc0752d90cb5e2eedd536684e8df6a9022013e18b89e97a533a70d6ebcc73dc9f620e14e622bc6e0878388b990ab862ab95012102e9cec69ee094c37402545f2c2ea6a0fe62975a93db334d6f8824036d753ba920"
          },
          "sequence": 4294967295
        }
      ],
      "vout": [
        {
          "value": 81.88092191,
          "n": 0,
          "scriptPubKey": {
            "asm": "OP_DUP OP_HASH160 f8123e608ecc6b9904481b41b774fb49d3bb3c08 OP_EQUALVERIFY OP_CHECKSIG",
            "hex": "76a914f8123e608ecc6b9904481b41b774fb49d3bb3c0888ac",
            "reqSigs": 1,
            "type": "pubkeyhash",
            "addresses": [
              "LhqdhNvKZYe5W568rBP9xAi1cEKDKgeHww"
            ]
          }
        }, 
        {
          "value": 1.79661867,
          "n": 1,
          "scriptPubKey": {
            "asm": "OP_DUP OP_HASH160 26306106613e628e768f5a212bff258638093631 OP_EQUALVERIFY OP_CHECKSIG",
            "hex": "76a91426306106613e628e768f5a212bff25863809363188ac",
            "reqSigs": 1,
            "type": "pubkeyhash",
            "addresses": [
              "LNhstwAUoLE7tmpfwBGNCK9Wsb6jgsnb4w"
            ]
          }
        }
      ],
      "hex": "01000000014f41be094b7b5ee7df2bec6271e45f4a2064975dfa2ed8d630fe2ffeb3efa43f010000006b483045022100c78982407fd565de0315a1f544c9846d7bc0752d90cb5e2eedd536684e8df6a9022013e18b89e97a533a70d6ebcc73dc9f620e14e622bc6e0878388b990ab862ab95012102e9cec69ee094c37402545f2c2ea6a0fe62975a93db334d6f8824036d753ba920ffffffff021f5f0ce8010000001976a914f8123e608ecc6b9904481b41b774fb49d3bb3c0888ac2b6cb50a000000001976a91426306106613e628e768f5a212bff25863809363188ac00000000"
    }, 
    {
      "txid": "c021720ae939bc048190b3692471528716e48d2dfee89d4fe0b22f0ee61182df",
      "hash": "c021720ae939bc048190b3692471528716e48d2dfee89d4fe0b22f0ee61182df",
      "version": 1,
      "size": 226,
      "vsize": 226,
      "locktime": 0,
      "vin": [
        {
          "txid": "6fb8d6594d2f80e814bb5a2970bb3dab4f8df7271fc8f6eca36a7b6453e2c553",
          "vout": 1,
          "scriptSig": {
            "asm": "3045022100b1902d63345f140a3557476f7cc51ed6b13d95db3ae28ecda8cfb97a9718b09702204e5d74f1167246354f1037d09780eb66ff8d455353a67d7c295ba4d157a369da[ALL] 023b6bda7966461c3eea4f87f8913df197eb893695784f85367a69f78e2eceb828",
            "hex": "483045022100b1902d63345f140a3557476f7cc51ed6b13d95db3ae28ecda8cfb97a9718b09702204e5d74f1167246354f1037d09780eb66ff8d455353a67d7c295ba4d157a369da0121023b6bda7966461c3eea4f87f8913df197eb893695784f85367a69f78e2eceb828"
          },
          "sequence": 4294967295
        }
      ],
      "vout": [
        {
          "value": 0.00092400,
          "n": 0,
          "scriptPubKey": {
            "asm": "OP_DUP OP_HASH160 2713e9bde6276c3e75b2a27d8c02dac90c137276 OP_EQUALVERIFY OP_CHECKSIG",
            "hex": "76a9142713e9bde6276c3e75b2a27d8c02dac90c13727688ac",
            "reqSigs": 1,
            "type": "pubkeyhash",
            "addresses": [
              "LNnaUH4ELgm6vCBZZdnuuwLSQd9B2NMrgs"
            ]
          }
        }, 
        {
          "value": 0.01000000,
          "n": 1,
          "scriptPubKey": {
            "asm": "OP_DUP OP_HASH160 b56507ba86905e2b5e19b025dc76039a0760cf73 OP_EQUALVERIFY OP_CHECKSIG",
            "hex": "76a914b56507ba86905e2b5e19b025dc76039a0760cf7388ac",
            "reqSigs": 1,
            "type": "pubkeyhash",
            "addresses": [
              "Lbm5bdnKMr85BkRaX2kzqFfh8rvE7ZtA3L"
            ]
          }
        }
      ],
      "hex": "010000000153c5e253647b6aa3ecf6c81f27f78d4fab3dbb70295abb14e8802f4d59d6b86f010000006b483045022100b1902d63345f140a3557476f7cc51ed6b13d95db3ae28ecda8cfb97a9718b09702204e5d74f1167246354f1037d09780eb66ff8d455353a67d7c295ba4d157a369da0121023b6bda7966461c3eea4f87f8913df197eb893695784f85367a69f78e2eceb828ffffffff02f0680100000000001976a9142713e9bde6276c3e75b2a27d8c02dac90c13727688ac40420f00000000001976a914b56507ba86905e2b5e19b025dc76039a0760cf7388ac00000000"
    }, 
    {
      "txid": "ce9c6c78b4831aad575087bd7fa0e35e451f0219e2d60bf6cd538c71153c92e2",
      "hash": "ce9c6c78b4831aad575087bd7fa0e35e451f0219e2d60bf6cd538c71153c92e2",
      "version": 2,
      "size": 226,
      "vsize": 226,
      "locktime": 1360251,
      "vin": [
        {
          "txid": "5230107e890ef0e13eba49b67db6c78bf8393fbd659a489498beee06acea1eeb",
          "vout": 1,
          "scriptSig": {
            "asm": "3045022100aafbad35ad5244ba136b849ad3f4c13a63c3c863375741f3307a075d34c7b891022033d6516415c5b56014e172ffe617e71ead48f16911b54e81982ad275e55f12cd[ALL] 02a8a6e13107c010a6de0e0f6eb5084e1abdffa2be88f73f415507e96f5e5546d9",
            "hex": "483045022100aafbad35ad5244ba136b849ad3f4c13a63c3c863375741f3307a075d34c7b891022033d6516415c5b56014e172ffe617e71ead48f16911b54e81982ad275e55f12cd012102a8a6e13107c010a6de0e0f6eb5084e1abdffa2be88f73f415507e96f5e5546d9"
          },
          "sequence": 4294967294
        }
      ],
      "vout": [
        {
          "value": 3.94674302,
          "n": 0,
          "scriptPubKey": {
            "asm": "OP_DUP OP_HASH160 579fec86892bc3b3df2fa8588a495d3453d79fd9 OP_EQUALVERIFY OP_CHECKSIG",
            "hex": "76a914579fec86892bc3b3df2fa8588a495d3453d79fd988ac",
            "reqSigs": 1,
            "type": "pubkeyhash",
            "addresses": [
              "LTDGdcRZyH3RrfCn4vbXFUvJPwvJFJk6o3"
            ]
          }
        }, 
        {
          "value": 1.90081965,
          "n": 1,
          "scriptPubKey": {
            "asm": "OP_DUP OP_HASH160 e001fccb9e5d4dc248b3a0c36d595d06ca19040c OP_EQUALVERIFY OP_CHECKSIG",
            "hex": "76a914e001fccb9e5d4dc248b3a0c36d595d06ca19040c88ac",
            "reqSigs": 1,
            "type": "pubkeyhash",
            "addresses": [
              "LfeQ1GwhBEw7X2zbcQB2rfa6Wikbzy2MmB"
            ]
          }
        }
      ],
      "hex": "0200000001eb1eeaac06eebe9894489a65bd3f39f88bc7b67db649ba3ee1f00e897e103052010000006b483045022100aafbad35ad5244ba136b849ad3f4c13a63c3c863375741f3307a075d34c7b891022033d6516415c5b56014e172ffe617e71ead48f16911b54e81982ad275e55f12cd012102a8a6e13107c010a6de0e0f6eb5084e1abdffa2be88f73f415507e96f5e5546d9feffffff027e408617000000001976a914579fec86892bc3b3df2fa8588a495d3453d79fd988acad6b540b000000001976a914e001fccb9e5d4dc248b3a0c36d595d06ca19040c88ac7bc11400"
    }, 
    {
      "txid": "7c26b4a82d716ffb68dccbfb41dbe051cd8945a67f204bef7802f2fb4eae03f6",
      "hash": "7c26b4a82d716ffb68dccbfb41dbe051cd8945a67f204bef7802f2fb4eae03f6",
      "version": 1,
      "size": 226,
      "vsize": 226,
      "locktime": 0,
      "vin": [
        {
          "txid": "01f40b5c3f9c010e3d402800bc767f4600cd777921151b66fe360c4e1cb60b61",
          "vout": 1,
          "scriptSig": {
            "asm": "30450221009d33c20e07a54dec3256a327b5d3b5fb321b812f95b41667bce9c049a2d02238022034e59d349c120541e74fc5ac06a2e1197ad2241b909b19c32903c259111ab0c8[ALL] 02d6557d7691f61504d41d781d1c8928f4d95a1848373330938074ba403ca20c51",
            "hex": "4830450221009d33c20e07a54dec3256a327b5d3b5fb321b812f95b41667bce9c049a2d02238022034e59d349c120541e74fc5ac06a2e1197ad2241b909b19c32903c259111ab0c8012102d6557d7691f61504d41d781d1c8928f4d95a1848373330938074ba403ca20c51"
          },
          "sequence": 4294967295
        }
      ],
      "vout": [
        {
          "value": 79.17344574,
          "n": 0,
          "scriptPubKey": {
            "asm": "OP_DUP OP_HASH160 958c51aa3bf3bf268865009971fc3d9531edddb7 OP_EQUALVERIFY OP_CHECKSIG",
            "hex": "76a914958c51aa3bf3bf268865009971fc3d9531edddb788ac",
            "reqSigs": 1,
            "type": "pubkeyhash",
            "addresses": [
              "LYrh3L9uq4tPeajsLGUYo75ArWnE7EUC36"
            ]
          }
        }, 
        {
          "value": 4.09755907,
          "n": 1,
          "scriptPubKey": {
            "asm": "OP_DUP OP_HASH160 1a4c5dfaf992af77a73d78ee5806fd004e8e8f27 OP_EQUALVERIFY OP_CHECKSIG",
            "hex": "76a9141a4c5dfaf992af77a73d78ee5806fd004e8e8f2788ac",
            "reqSigs": 1,
            "type": "pubkeyhash",
            "addresses": [
              "LMd1KHDopRY61RtjVhGeDimeGVtxn2DKUZ"
            ]
          }
        }
      ],
      "hex": "0100000001610bb61c4e0c36fe661b15217977cd00467f76bc0028403d0e019c3f5c0bf401010000006b4830450221009d33c20e07a54dec3256a327b5d3b5fb321b812f95b41667bce9c049a2d02238022034e59d349c120541e74fc5ac06a2e1197ad2241b909b19c32903c259111ab0c8012102d6557d7691f61504d41d781d1c8928f4d95a1848373330938074ba403ca20c51ffffffff023e17e9d7010000001976a914958c51aa3bf3bf268865009971fc3d9531edddb788ac03616c18000000001976a9141a4c5dfaf992af77a73d78ee5806fd004e8e8f2788ac00000000"
    }, 
    {
      "txid": "4c686fb4cf7d77264b7947d5ae71caab0034a1bc6f6650bbc85c1210e21433fe",
      "hash": "4c686fb4cf7d77264b7947d5ae71caab0034a1bc6f6650bbc85c1210e21433fe",
      "version": 1,
      "size": 226,
      "vsize": 226,
      "locktime": 0,
      "vin": [
        {
          "txid": "bb6891baa5a5b45899a2826fa2a2c4639a688a808a2945a07ccb79b205b85ab0",
          "vout": 0,
          "scriptSig": {
            "asm": "3045022100e0971a14e8ff8fd6d0d086edf6538e73fcc6b748506591bfa273a30c1783c0f5022076111b7336d50de5f9182420b95dfa7ed1d592c13f03a33f2accf9955c1af724[ALL] 027b41fce802ddcb985eabdd7b2b9fa7dc959caa24f8631856a9228f77fac1010c",
            "hex": "483045022100e0971a14e8ff8fd6d0d086edf6538e73fcc6b748506591bfa273a30c1783c0f5022076111b7336d50de5f9182420b95dfa7ed1d592c13f03a33f2accf9955c1af7240121027b41fce802ddcb985eabdd7b2b9fa7dc959caa24f8631856a9228f77fac1010c"
          },
          "sequence": 4294967295
        }
      ],
      "vout": [
        {
          "value": 0.75314654,
          "n": 0,
          "scriptPubKey": {
            "asm": "OP_DUP OP_HASH160 513b45368d210d391e79f3d3e6fec78ccd76077a OP_EQUALVERIFY OP_CHECKSIG",
            "hex": "76a914513b45368d210d391e79f3d3e6fec78ccd76077a88ac",
            "reqSigs": 1,
            "type": "pubkeyhash",
            "addresses": [
              "LSdTzvoBkwLyQTycRHTnLxHE3ETp4wQjTd"
            ]
          }
        }, 
        {
          "value": 81.84227583,
          "n": 1,
          "scriptPubKey": {
            "asm": "OP_DUP OP_HASH160 4ed18a5d05b3132862a5c8778b71f5eb535e277d OP_EQUALVERIFY OP_CHECKSIG",
            "hex": "76a9144ed18a5d05b3132862a5c8778b71f5eb535e277d88ac",
            "reqSigs": 1,
            "type": "pubkeyhash",
            "addresses": [
              "LSQhzJZvdHQgfYKYey4zxSWD1L8SS4hLQf"
            ]
          }
        }
      ],
      "hex": "0100000001b05ab805b279cb7ca045298a808a689a63c4a2a26f82a29958b4a5a5ba9168bb000000006b483045022100e0971a14e8ff8fd6d0d086edf6538e73fcc6b748506591bfa273a30c1783c0f5022076111b7336d50de5f9182420b95dfa7ed1d592c13f03a33f2accf9955c1af7240121027b41fce802ddcb985eabdd7b2b9fa7dc959caa24f8631856a9228f77fac1010cffffffff02de357d04000000001976a914513b45368d210d391e79f3d3e6fec78ccd76077a88acff66d1e7010000001976a9144ed18a5d05b3132862a5c8778b71f5eb535e277d88ac00000000"
    }
  ],
  "time": 1517400225,
  "mediantime": 1517399548,
  "nonce": 2083530919,
  "bits": "1a042eae",
  "difficulty": 4011378.762614286,
  "chainwork": "000000000000000000000000000000000000000000000034c4203525a418fcfc",
  "previousblockhash": "726f34b308f1b5dd0d65d7314541c316f0d7bba2670c9c90b345450d66ad4e33",
  "nextblockhash": "9031ff51f1aabae74c6df0ed5ab686680d70d7f5d6aadd7e15a123c4a18b3bc4"
}
