{
  "hash": "49a730d498ef6bc46b07646fccba7e74321ed819dcd1eceeb294f8a5e9f3c854",
  "confirmations": 2031,
  "strippedsize": 234,
  "size": 234,
  "weight": 936,
  "height": 1358963,
  "version": 536870912,
  "versionHex": "20000000",
  "merkleroot": "9e7f4b763bfab2aa01ba29a2b51b3048f4f674e4ce646ad739242c1fee8bb074",
  "tx": [
    {
      "txid": "9e7f4b763bfab2aa01ba29a2b51b3048f4f674e4ce646ad739242c1fee8bb074",
      "hash": "9e7f4b763bfab2aa01ba29a2b51b3048f4f674e4ce646ad739242c1fee8bb074",
      "version": 1,
      "size": 153,
      "vsize": 153,
      "locktime": 0,
      "vin": [
        {
          "coinbase": "0373bc14045a6ee81e2cfabe6d6d1ffb18e34213c2717c084a3811c5f0d8c72b09f89caf5d975ba6c8a3123264a24000000000000000042f4c502f08220086c204000000",
          "sequence": 4294967295
        }
      ],
      "vout": [
        {
          "value": 25.00000000,
          "n": 0,
          "scriptPubKey": {
            "asm": "OP_DUP OP_HASH160 57757ed2ecf2052ff3126c397aca7defb9ca2cec OP_EQUALVERIFY OP_CHECKSIG",
            "hex": "76a91457757ed2ecf2052ff3126c397aca7defb9ca2cec88ac",
            "reqSigs": 1,
            "type": "pubkeyhash",
            "addresses": [
              "LTCPodGk5FwcJaRzH9yKnwicxzFUbxp6tN"
            ]
          }
        }
      ],
      "hex": "01000000010000000000000000000000000000000000000000000000000000000000000000ffffffff440373bc14045a6ee81e2cfabe6d6d1ffb18e34213c2717c084a3811c5f0d8c72b09f89caf5d975ba6c8a3123264a24000000000000000042f4c502f08220086c204000000ffffffff0100f90295000000001976a91457757ed2ecf2052ff3126c397aca7defb9ca2cec88ac00000000"
    }
  ],
  "time": 1517217822,
  "mediantime": 1517217393,
  "nonce": 2126802947,
  "bits": "1a042eae",
  "difficulty": 4011378.762614286,
  "chainwork": "0000000000000000000000000000000000000000000000338fafac69559ed3e8",
  "previousblockhash": "7458fd3010f8028c41d68b88a47a2bf3b08d3339cf2b8a67511e0f3862e9b6f8",
  "nextblockhash": "3d2b1fb2e27bcab27d6c1c0aa9fbe9b5405a5641f4b58647785b33b11a356a47"
}
