{
  "hash": "4a019418301a499b236b2990be6532fd86b6ab6a529d7bac5b52405dd5e4bd6d",
  "confirmations": 2046,
  "strippedsize": 2159,
  "size": 2412,
  "weight": 8889,
  "height": 1358948,
  "version": 536870912,
  "versionHex": "20000000",
  "merkleroot": "0d89e81d1a1cb612c7cf23a18db14c6b77ce113ba8c0ac43e9852da1f85894e8",
  "tx": [
    {
      "txid": "f37ab64d62db46de7d70b2078984890347d427ee012ce4466524f1aca11ec460",
      "hash": "84faeea39ee86e33a552e438b9ffefb8e2c9d4ce5105dea3f2459410c370e11d",
      "version": 1,
      "size": 277,
      "vsize": 250,
      "locktime": 958166685,
      "vin": [
        {
          "coinbase": "0364bc142cfabe6d6dbb7df1a0af064bb824a359d260ac47f2130d67d63fe200c6bb58f6c3aa410b1008000000f09f909f0c4d696e656420627920686b6b0000000000000000000000000000000000000000000000000000000000000000000000000000",
          "sequence": 79
        }
      ],
      "vout": [
        {
          "value": 25.00962500,
          "n": 0,
          "scriptPubKey": {
            "asm": "OP_DUP OP_HASH160 aa3750aa18b8a0f3f0590731e1fab934856680cf OP_EQUALVERIFY OP_CHECKSIG",
            "hex": "76a914aa3750aa18b8a0f3f0590731e1fab934856680cf88ac",
            "reqSigs": 1,
            "type": "pubkeyhash",
            "addresses": [
              "LajyQBeZaBA1NkZDeY8YT5RYYVRkXMvb2T"
            ]
          }
        }, 
        {
          "value": 0.00000000,
          "n": 1,
          "scriptPubKey": {
            "asm": "OP_RETURN aa21a9ed66d90f4675fd094ecd5fc3f5f44f9f36b4393f29d24cdd24c933a8223179df2e 0000000000000000",
            "hex": "6a24aa21a9ed66d90f4675fd094ecd5fc3f5f44f9f36b4393f29d24cdd24c933a8223179df2e080000000000000000",
            "type": "nulldata"
          }
        }
      ],
      "hex": "010000000001010000000000000000000000000000000000000000000000000000000000000000ffffffff640364bc142cfabe6d6dbb7df1a0af064bb824a359d260ac47f2130d67d63fe200c6bb58f6c3aa410b1008000000f09f909f0c4d696e656420627920686b6b00000000000000000000000000000000000000000000000000000000000000000000000000004f00000002c4a81195000000001976a914aa3750aa18b8a0f3f0590731e1fab934856680cf88ac00000000000000002f6a24aa21a9ed66d90f4675fd094ecd5fc3f5f44f9f36b4393f29d24cdd24c933a8223179df2e080000000000000000012000000000000000000000000000000000000000000000000000000000000000009d761c39"
    }, 
    {
      "txid": "28ab7a169841d7c525b5c64593e5562ba4b7d351e016e23ac0b16e134e7ee7ec",
      "hash": "28ab7a169841d7c525b5c64593e5562ba4b7d351e016e23ac0b16e134e7ee7ec",
      "version": 2,
      "size": 373,
      "vsize": 373,
      "locktime": 1358946,
      "vin": [
        {
          "txid": "e481f091c0965163b8c3f8f3a3ee96e4996f367a23830e8a2a663f71c4840a33",
          "vout": 0,
          "scriptSig": {
            "asm": "304402200a7bcf73db4f43cedcfc1e449261c041cbcba908d85ae31e8d6c65a642fa72790220542b55dbad5c272a591ad56e6aa0b1732cea32d963576f7a3d7f2bc45a5514cd[ALL] 0274c4fb7d9cd868fc557d10b06656b460d4f6c12d3786603803bade3bf16b58ae",
            "hex": "47304402200a7bcf73db4f43cedcfc1e449261c041cbcba908d85ae31e8d6c65a642fa72790220542b55dbad5c272a591ad56e6aa0b1732cea32d963576f7a3d7f2bc45a5514cd01210274c4fb7d9cd868fc557d10b06656b460d4f6c12d3786603803bade3bf16b58ae"
          },
          "sequence": 4294967294
        }, 
        {
          "txid": "efcb187bc56caaee6a321080f0c9d142b9babe3d2b33887a244a3d3a0a68817d",
          "vout": 1,
          "scriptSig": {
            "asm": "30450221009e5b2cda8f6a636dcb47113e798f1f646dd95dcb6126a60ad2d0bf4cbcc1caf10220212afd4c518fbc1d7307f41f927dfc267b26f786ac60bde10d65ec4a10e2674e[ALL] 0274c4fb7d9cd868fc557d10b06656b460d4f6c12d3786603803bade3bf16b58ae",
            "hex": "4830450221009e5b2cda8f6a636dcb47113e798f1f646dd95dcb6126a60ad2d0bf4cbcc1caf10220212afd4c518fbc1d7307f41f927dfc267b26f786ac60bde10d65ec4a10e2674e01210274c4fb7d9cd868fc557d10b06656b460d4f6c12d3786603803bade3bf16b58ae"
          },
          "sequence": 4294967294
        }
      ],
      "vout": [
        {
          "value": 3.31459138,
          "n": 0,
          "scriptPubKey": {
            "asm": "OP_DUP OP_HASH160 15c99d9f69721716432995dc0fb405faaadfabfa OP_EQUALVERIFY OP_CHECKSIG",
            "hex": "76a91415c99d9f69721716432995dc0fb405faaadfabfa88ac",
            "reqSigs": 1,
            "type": "pubkeyhash",
            "addresses": [
              "LMD9ykGa2VV4apMRNSzXncrJA6WMbSFh3a"
            ]
          }
        }, 
        {
          "value": 9.38593672,
          "n": 1,
          "scriptPubKey": {
            "asm": "OP_DUP OP_HASH160 ebba73efe449a96a4394a5ba2bf6c29bed9afba8 OP_EQUALVERIFY OP_CHECKSIG",
            "hex": "76a914ebba73efe449a96a4394a5ba2bf6c29bed9afba888ac",
            "reqSigs": 1,
            "type": "pubkeyhash",
            "addresses": [
              "LgiNRGQAsVeZErN9K8zvANnAag8JbEFWki"
            ]
          }
        }
      ],
      "hex": "0200000002330a84c4713f662a8a0e83237a366f99e496eea3f3f8c3b8635196c091f081e4000000006a47304402200a7bcf73db4f43cedcfc1e449261c041cbcba908d85ae31e8d6c65a642fa72790220542b55dbad5c272a591ad56e6aa0b1732cea32d963576f7a3d7f2bc45a5514cd01210274c4fb7d9cd868fc557d10b06656b460d4f6c12d3786603803bade3bf16b58aefeffffff7d81680a3a3d4a247a88332b3dbebab942d1c9f08010326aeeaa6cc57b18cbef010000006b4830450221009e5b2cda8f6a636dcb47113e798f1f646dd95dcb6126a60ad2d0bf4cbcc1caf10220212afd4c518fbc1d7307f41f927dfc267b26f786ac60bde10d65ec4a10e2674e01210274c4fb7d9cd868fc557d10b06656b460d4f6c12d3786603803bade3bf16b58aefeffffff0242aac113000000001976a91415c99d9f69721716432995dc0fb405faaadfabfa88ac88cdf137000000001976a914ebba73efe449a96a4394a5ba2bf6c29bed9afba888ac62bc1400"
    }, 
    {
      "txid": "5cbd25d6836983a33e36840a385bfaa80c5afcc07f8802dd4ddbd1e6d223d03d",
      "hash": "5cbd25d6836983a33e36840a385bfaa80c5afcc07f8802dd4ddbd1e6d223d03d",
      "version": 1,
      "size": 292,
      "vsize": 292,
      "locktime": 0,
      "vin": [
        {
          "txid": "242bfd97ff2e5eb6caca979e5702c45eabb5f7fc2585056cd394185c9ee6043c",
          "vout": 2,
          "scriptSig": {
            "asm": "3045022100a90405703d6dfe16ec896825850d30e5133b8287d92c16136506c8f832b6b13d0220439f1383234ac6971fe2afc3184e5eb9ad2f52192a950f14639b544d92396ca4[ALL] 03321be0a27409c88ca5afc3e4dc752f9662ce47d1fb2a582a2a0a881f44b746c4",
            "hex": "483045022100a90405703d6dfe16ec896825850d30e5133b8287d92c16136506c8f832b6b13d0220439f1383234ac6971fe2afc3184e5eb9ad2f52192a950f14639b544d92396ca4012103321be0a27409c88ca5afc3e4dc752f9662ce47d1fb2a582a2a0a881f44b746c4"
          },
          "sequence": 4294967295
        }
      ],
      "vout": [
        {
          "value": 1.95817380,
          "n": 0,
          "scriptPubKey": {
            "asm": "OP_HASH160 3ccf98ce6f5325299afac02d4810e0fe4f5486bb OP_EQUAL",
            "hex": "a9143ccf98ce6f5325299afac02d4810e0fe4f5486bb87",
            "reqSigs": 1,
            "type": "scripthash",
            "addresses": [
              "MDShU2S1aWimG1CxsGrX6C3v2ALCUiUqDL"
            ]
          }
        }, 
        {
          "value": 0.96015978,
          "n": 1,
          "scriptPubKey": {
            "asm": "OP_DUP OP_HASH160 107cd6c20d451fe69fbf2d3cae77f74eb67d1b01 OP_EQUALVERIFY OP_CHECKSIG",
            "hex": "76a914107cd6c20d451fe69fbf2d3cae77f74eb67d1b0188ac",
            "reqSigs": 1,
            "type": "pubkeyhash",
            "addresses": [
              "LLj8dEw5umW5Fp3drci92hV97XZH3rFbsw"
            ]
          }
        }, 
        {
          "value": 0.52175240,
          "n": 2,
          "scriptPubKey": {
            "asm": "OP_DUP OP_HASH160 1221b70289152858b63d58eab5802c9091b529ac OP_EQUALVERIFY OP_CHECKSIG",
            "hex": "76a9141221b70289152858b63d58eab5802c9091b529ac88ac",
            "reqSigs": 1,
            "type": "pubkeyhash",
            "addresses": [
              "LLsppDYSi57NhoKPTdcGc7AqHYdYkGUVtc"
            ]
          }
        }, 
        {
          "value": 1.91478857,
          "n": 3,
          "scriptPubKey": {
            "asm": "OP_DUP OP_HASH160 d26bd6c4a87b242e35b42bafbbf3d89a7cf4d776 OP_EQUALVERIFY OP_CHECKSIG",
            "hex": "76a914d26bd6c4a87b242e35b42bafbbf3d89a7cf4d77688ac",
            "reqSigs": 1,
            "type": "pubkeyhash",
            "addresses": [
              "LeQZMH65i4PKkEzp9HnhdUnsKySZXiuCqg"
            ]
          }
        }
      ],
      "hex": "01000000013c04e69e5c1894d36c058525fcf7b5ab5ec402579e97cacab65e2eff97fd2b24020000006b483045022100a90405703d6dfe16ec896825850d30e5133b8287d92c16136506c8f832b6b13d0220439f1383234ac6971fe2afc3184e5eb9ad2f52192a950f14639b544d92396ca4012103321be0a27409c88ca5afc3e4dc752f9662ce47d1fb2a582a2a0a881f44b746c4ffffffff04a4efab0b0000000017a9143ccf98ce6f5325299afac02d4810e0fe4f5486bb876a16b905000000001976a914107cd6c20d451fe69fbf2d3cae77f74eb67d1b0188ac88211c03000000001976a9141221b70289152858b63d58eab5802c9091b529ac88ac49bc690b000000001976a914d26bd6c4a87b242e35b42bafbbf3d89a7cf4d77688ac00000000"
    }, 
    {
      "txid": "a30301a3a3b6ba715f434bdd3b41c45a86c23cfa5aa683a4ace7a014debf9217",
      "hash": "a30301a3a3b6ba715f434bdd3b41c45a86c23cfa5aa683a4ace7a014debf9217",
      "version": 1,
      "size": 520,
      "vsize": 520,
      "locktime": 0,
      "vin": [
        {
          "txid": "93466c3728001d03f21bc436746ef75576f3a502741077fb63e79b510c6799af",
          "vout": 1,
          "scriptSig": {
            "asm": "304402201d4e10a0b4cbcf20701b00700d0561b8f32b72227b0b94b4c9183a158d36bc9e022008d8e7bbf002026eefeccd8f8df9859a39e211315ea5bb46e3d12ccb903ca20b[ALL] 026f039d7d103f73ff7f166255cdd489816b1276bbd67e8c7e6a9ffbae92bc141f",
            "hex": "47304402201d4e10a0b4cbcf20701b00700d0561b8f32b72227b0b94b4c9183a158d36bc9e022008d8e7bbf002026eefeccd8f8df9859a39e211315ea5bb46e3d12ccb903ca20b0121026f039d7d103f73ff7f166255cdd489816b1276bbd67e8c7e6a9ffbae92bc141f"
          },
          "sequence": 4294967295
        }, 
        {
          "txid": "5cc60bba90141b31e1e1a15d002deff0aed13e924192a16430e1add4eaed4e05",
          "vout": 1,
          "scriptSig": {
            "asm": "304502210093dda0fb61a5fd731f59aec1a495ec5d2036c51a941bfce85e4d179f231df9f1022057e4dc7a844e818fc90ac5ac0d0a4e831baff55c1c638f4ba8a9912e07bdc168[ALL] 03e7219573f565bd2da3e37ca98946cd9eba37b7f94c6bb365d0f603a0f60f8113",
            "hex": "48304502210093dda0fb61a5fd731f59aec1a495ec5d2036c51a941bfce85e4d179f231df9f1022057e4dc7a844e818fc90ac5ac0d0a4e831baff55c1c638f4ba8a9912e07bdc168012103e7219573f565bd2da3e37ca98946cd9eba37b7f94c6bb365d0f603a0f60f8113"
          },
          "sequence": 4294967295
        }, 
        {
          "txid": "7bfa5135759d0475944b07be88528ac3c75c1adb008fd70b0701ee0ab906693f",
          "vout": 0,
          "scriptSig": {
            "asm": "3044022005814b8109ce24c006d2c8693df10e7cb629c0b78da2c5d245b42a7bb11fe39e022036fd62936b9546119c09d2f643878e18230a873cf154883dfb82a4315db87ae5[ALL] 024c88ef66162399c0865ca3a495ed8a5984495646fe1abb0c2d9e56be1559fe01",
            "hex": "473044022005814b8109ce24c006d2c8693df10e7cb629c0b78da2c5d245b42a7bb11fe39e022036fd62936b9546119c09d2f643878e18230a873cf154883dfb82a4315db87ae50121024c88ef66162399c0865ca3a495ed8a5984495646fe1abb0c2d9e56be1559fe01"
          },
          "sequence": 4294967295
        }
      ],
      "vout": [
        {
          "value": 0.01037197,
          "n": 0,
          "scriptPubKey": {
            "asm": "OP_DUP OP_HASH160 13cde75f66df45b8529456a6fd49452ae6acb51c OP_EQUALVERIFY OP_CHECKSIG",
            "hex": "76a91413cde75f66df45b8529456a6fd49452ae6acb51c88ac",
            "reqSigs": 1,
            "type": "pubkeyhash",
            "addresses": [
              "LM2fmJctDuXQ38UU9BDNwRpKfaDz1ajZJq"
            ]
          }
        }, 
        {
          "value": 0.54287200,
          "n": 1,
          "scriptPubKey": {
            "asm": "OP_DUP OP_HASH160 e62eceadd871d9d71b2ae3c2ac39bb34510088ef OP_EQUALVERIFY OP_CHECKSIG",
            "hex": "76a914e62eceadd871d9d71b2ae3c2ac39bb34510088ef88ac",
            "reqSigs": 1,
            "type": "pubkeyhash",
            "addresses": [
              "LgD3kZiytNVwyTiR36s4NLfwcs8qPbowor"
            ]
          }
        }
      ],
      "hex": "0100000003af99670c519be763fb77107402a5f37655f76e7436c41bf2031d0028376c4693010000006a47304402201d4e10a0b4cbcf20701b00700d0561b8f32b72227b0b94b4c9183a158d36bc9e022008d8e7bbf002026eefeccd8f8df9859a39e211315ea5bb46e3d12ccb903ca20b0121026f039d7d103f73ff7f166255cdd489816b1276bbd67e8c7e6a9ffbae92bc141fffffffff054eedead4ade13064a19241923ed1aef0ef2d005da1e1e1311b1490ba0bc65c010000006b48304502210093dda0fb61a5fd731f59aec1a495ec5d2036c51a941bfce85e4d179f231df9f1022057e4dc7a844e818fc90ac5ac0d0a4e831baff55c1c638f4ba8a9912e07bdc168012103e7219573f565bd2da3e37ca98946cd9eba37b7f94c6bb365d0f603a0f60f8113ffffffff3f6906b90aee01070bd78f00db1a5cc7c38a5288be074b9475049d753551fa7b000000006a473044022005814b8109ce24c006d2c8693df10e7cb629c0b78da2c5d245b42a7bb11fe39e022036fd62936b9546119c09d2f643878e18230a873cf154883dfb82a4315db87ae50121024c88ef66162399c0865ca3a495ed8a5984495646fe1abb0c2d9e56be1559fe01ffffffff028dd30f00000000001976a91413cde75f66df45b8529456a6fd49452ae6acb51c88ac605b3c03000000001976a914e62eceadd871d9d71b2ae3c2ac39bb34510088ef88ac00000000"
    }, 
    {
      "txid": "9a875c1646f523d86f2239128a69404d47b08b1eea1ba945b8f7f3771dcf5f24",
      "hash": "135b136032a6ad0033ccd22831f3841dbd9881375f49a88ce33a69180894f7d2",
      "version": 1,
      "size": 419,
      "vsize": 257,
      "locktime": 0,
      "vin": [
        {
          "txid": "52fba5d42bd4b8a22aeecc70183b5ec6c48c474f26ed515ba0bb4a8e52658fa8",
          "vout": 0,
          "scriptSig": {
            "asm": "001446c71e538a7f559f6dac2c1b8a2a183465d9bf76",
            "hex": "16001446c71e538a7f559f6dac2c1b8a2a183465d9bf76"
          },
          "txinwitness": [
            "304402202e088328c88644d01c909c919446d23951da52c151ced5f3c5fb02f5a3cedd7d02200be6a31f2dfb4d5134ce40ade9e9823226abdc480b45cef074700c2c1dad305901", 
            "03949557b307d5acdd8beb54292b64f2bdd188e1ee9c8e2e1851b6321f216d3c77"
          ],
          "sequence": 4294967295
        }, 
        {
          "txid": "fd7da3a4ce7c7721ed3188a11b004c4ff13720cd8d33d36e2b0725d6aca35a59",
          "vout": 0,
          "scriptSig": {
            "asm": "00147438716d5182a9a7cf29bcb18eb85d265768fdfa",
            "hex": "1600147438716d5182a9a7cf29bcb18eb85d265768fdfa"
          },
          "txinwitness": [
            "3045022100a237d0f52fc19e126d1e0a8ef960733141e8cad651c4a8ffa5c57a9514275f9f02203e5259f15a0c958b3fe9f4dc2e980e0b2ba7cfa6b168617bab231d164fdfe7ab01", 
            "032cc02535cb9c55f09a0c63f82805e5ace8b61a59137ca22c74757a3a7b1f78a8"
          ],
          "sequence": 4294967295
        }
      ],
      "vout": [
        {
          "value": 0.00973700,
          "n": 0,
          "scriptPubKey": {
            "asm": "OP_HASH160 642b57f97c4ef1a8e3ed5adcdc02cf7801bcbded OP_EQUAL",
            "hex": "a914642b57f97c4ef1a8e3ed5adcdc02cf7801bcbded87",
            "reqSigs": 1,
            "type": "scripthash",
            "addresses": [
              "MH2ojBZRmKKeZRvKTdNQcygDvaNGZwyK7e"
            ]
          }
        }, 
        {
          "value": 10.00000000,
          "n": 1,
          "scriptPubKey": {
            "asm": "OP_HASH160 cef4387a34f4dd71a8094abb19038670d23cd9ed OP_EQUAL",
            "hex": "a914cef4387a34f4dd71a8094abb19038670d23cd9ed87",
            "reqSigs": 1,
            "type": "scripthash",
            "addresses": [
              "MSmRzh9fcx59BfzLLn8zKbvu4pqZPkjs7H"
            ]
          }
        }
      ],
      "hex": "01000000000102a88f65528e4abba05b51ed264f478cc4c65e3b1870ccee2aa2b8d42bd4a5fb52000000001716001446c71e538a7f559f6dac2c1b8a2a183465d9bf76ffffffff595aa3acd625072b6ed3338dcd2037f14f4c001ba18831ed21777ccea4a37dfd00000000171600147438716d5182a9a7cf29bcb18eb85d265768fdfaffffffff0284db0e000000000017a914642b57f97c4ef1a8e3ed5adcdc02cf7801bcbded8700ca9a3b0000000017a914cef4387a34f4dd71a8094abb19038670d23cd9ed870247304402202e088328c88644d01c909c919446d23951da52c151ced5f3c5fb02f5a3cedd7d02200be6a31f2dfb4d5134ce40ade9e9823226abdc480b45cef074700c2c1dad3059012103949557b307d5acdd8beb54292b64f2bdd188e1ee9c8e2e1851b6321f216d3c7702483045022100a237d0f52fc19e126d1e0a8ef960733141e8cad651c4a8ffa5c57a9514275f9f02203e5259f15a0c958b3fe9f4dc2e980e0b2ba7cfa6b168617bab231d164fdfe7ab0121032cc02535cb9c55f09a0c63f82805e5ace8b61a59137ca22c74757a3a7b1f78a800000000"
    }, 
    {
      "txid": "c0ef43fdbcb3c4b07cd1e096db5ce06468c3e6ec32f9f336131fdb4e8f602a19",
      "hash": "c0ef43fdbcb3c4b07cd1e096db5ce06468c3e6ec32f9f336131fdb4e8f602a19",
      "version": 2,
      "size": 225,
      "vsize": 225,
      "locktime": 1358946,
      "vin": [
        {
          "txid": "b8c06acdf9a26f6ff9c804e7dd640d7939a17204b7f2ad1e48136d1a20ee57c7",
          "vout": 1,
          "scriptSig": {
            "asm": "3044022006c367844f4f725502f3a1133ed524c470cb206d6704fc7a8cdc5bcd997aab4202200c68b226bce13a9305ff92f3a4b3536e3e56cb9861a7f8cccabe52205f3f22d2[ALL] 03aa237ebcb5b9a8a4f130e181dc1be83478d01e5b33d12233e5f58a651344f619",
            "hex": "473044022006c367844f4f725502f3a1133ed524c470cb206d6704fc7a8cdc5bcd997aab4202200c68b226bce13a9305ff92f3a4b3536e3e56cb9861a7f8cccabe52205f3f22d2012103aa237ebcb5b9a8a4f130e181dc1be83478d01e5b33d12233e5f58a651344f619"
          },
          "sequence": 4294967294
        }
      ],
      "vout": [
        {
          "value": 1.98000000,
          "n": 0,
          "scriptPubKey": {
            "asm": "OP_DUP OP_HASH160 bacebd407373fe28605f1602d77f5213185a5cc1 OP_EQUALVERIFY OP_CHECKSIG",
            "hex": "76a914bacebd407373fe28605f1602d77f5213185a5cc188ac",
            "reqSigs": 1,
            "type": "pubkeyhash",
            "addresses": [
              "LcFhcPYDxuMiiLjswetv3cBsAPDzHc6VZh"
            ]
          }
        }, 
        {
          "value": 244.18774113,
          "n": 1,
          "scriptPubKey": {
            "asm": "OP_DUP OP_HASH160 0c211166a4e7d69ac274eea42b0d2dd2ab7e161e OP_EQUALVERIFY OP_CHECKSIG",
            "hex": "76a9140c211166a4e7d69ac274eea42b0d2dd2ab7e161e88ac",
            "reqSigs": 1,
            "type": "pubkeyhash",
            "addresses": [
              "LLL5z7oA3PvWrX3FbqmpMPeR9hcXdmKoYp"
            ]
          }
        }
      ],
      "hex": "0200000001c757ee201a6d13481eadf2b70472a139790d64dde704c8f96f6fa2f9cd6ac0b8010000006a473044022006c367844f4f725502f3a1133ed524c470cb206d6704fc7a8cdc5bcd997aab4202200c68b226bce13a9305ff92f3a4b3536e3e56cb9861a7f8cccabe52205f3f22d2012103aa237ebcb5b9a8a4f130e181dc1be83478d01e5b33d12233e5f58a651344f619feffffff02803dcd0b000000001976a914bacebd407373fe28605f1602d77f5213185a5cc188ac61ec78af050000001976a9140c211166a4e7d69ac274eea42b0d2dd2ab7e161e88ac62bc1400"
    }, 
    {
      "txid": "ae3cc73216267cfc20ab0c27a8094bba0f156549af7cf5960024d335b90c9fef",
      "hash": "ae3cc73216267cfc20ab0c27a8094bba0f156549af7cf5960024d335b90c9fef",
      "version": 1,
      "size": 225,
      "vsize": 225,
      "locktime": 1358946,
      "vin": [
        {
          "txid": "cce15f7a77d31dd6d790d6ead18fa0699167a372a1e3de70e88cbf382505be3d",
          "vout": 1,
          "scriptSig": {
            "asm": "30440220010840064cc58900abd5698e4e2dc513243635260dd065d85e2bb4c9ad67ce4e02205acc1e77ad50aedab6adcdb2a9ab61112f9e5825e916eb039ac70660abad8f3e[ALL] 035278295d7d495e0f91282b5c6c0dc309467d9df31b0ac15b31c6add0b3c92a62",
            "hex": "4730440220010840064cc58900abd5698e4e2dc513243635260dd065d85e2bb4c9ad67ce4e02205acc1e77ad50aedab6adcdb2a9ab61112f9e5825e916eb039ac70660abad8f3e0121035278295d7d495e0f91282b5c6c0dc309467d9df31b0ac15b31c6add0b3c92a62"
          },
          "sequence": 4294967294
        }
      ],
      "vout": [
        {
          "value": 0.99977400,
          "n": 0,
          "scriptPubKey": {
            "asm": "OP_DUP OP_HASH160 3efbf0cf429b1b0e7df5db89dea40433959b07f0 OP_EQUALVERIFY OP_CHECKSIG",
            "hex": "76a9143efbf0cf429b1b0e7df5db89dea40433959b07f088ac",
            "reqSigs": 1,
            "type": "pubkeyhash",
            "addresses": [
              "LQxyyFVLGyhmmZkVEWi95bMdvKSAyud3Et"
            ]
          }
        }, 
        {
          "value": 1.00000000,
          "n": 1,
          "scriptPubKey": {
            "asm": "OP_DUP OP_HASH160 e4e0bc3f510ff1bcee268ef44069347510b8e5e2 OP_EQUALVERIFY OP_CHECKSIG",
            "hex": "76a914e4e0bc3f510ff1bcee268ef44069347510b8e5e288ac",
            "reqSigs": 1,
            "type": "pubkeyhash",
            "addresses": [
              "Lg69YqRCuMm1yuYjTN91qduckNbfxyHHNv"
            ]
          }
        }
      ],
      "hex": "01000000013dbe052538bf8ce870dee3a172a3679169a08fd1ead690d7d61dd3777a5fe1cc010000006a4730440220010840064cc58900abd5698e4e2dc513243635260dd065d85e2bb4c9ad67ce4e02205acc1e77ad50aedab6adcdb2a9ab61112f9e5825e916eb039ac70660abad8f3e0121035278295d7d495e0f91282b5c6c0dc309467d9df31b0ac15b31c6add0b3c92a62feffffff02b888f505000000001976a9143efbf0cf429b1b0e7df5db89dea40433959b07f088ac00e1f505000000001976a914e4e0bc3f510ff1bcee268ef44069347510b8e5e288ac62bc1400"
    }
  ],
  "time": 1517215672,
  "mediantime": 1517215199,
  "nonce": 63281988,
  "bits": "1a042eae",
  "difficulty": 4011378.762614286,
  "chainwork": "0000000000000000000000000000000000000000000000338c198719bfdee54a",
  "previousblockhash": "f038378c021492fa79c6367cff086f2dc9b67493e7eec153d0b0a5082fa82cd6",
  "nextblockhash": "d09fb86311bead1c3b9ce928ffc9b449ae3aa349ae647e0d4b618605ed8e7b95"
}
