{
  "hash": "4a5b4980f3d197940d3ce9fa0ff15e778013251eba3d0922da5de15b6099716d",
  "confirmations": 835,
  "strippedsize": 234,
  "size": 234,
  "weight": 936,
  "height": 1360159,
  "version": 536870912,
  "versionHex": "20000000",
  "merkleroot": "ffa9bb336817da1de9f3b3520dd1393544ad7d2a9bf1de4b21af39c71c8c9cbe",
  "tx": [
    {
      "txid": "ffa9bb336817da1de9f3b3520dd1393544ad7d2a9bf1de4b21af39c71c8c9cbe",
      "hash": "ffa9bb336817da1de9f3b3520dd1393544ad7d2a9bf1de4b21af39c71c8c9cbe",
      "version": 1,
      "size": 153,
      "vsize": 153,
      "locktime": 0,
      "vin": [
        {
          "coinbase": "031fc114045a716f0b2cfabe6d6decf1b5293380eb7b4bc241d4e068f9b46128864eed85f8d86bec6dab53dd97f04000000000000000042f4c502f085600305d0f000000",
          "sequence": 4294967295
        }
      ],
      "vout": [
        {
          "value": 25.00000000,
          "n": 0,
          "scriptPubKey": {
            "asm": "OP_DUP OP_HASH160 57757ed2ecf2052ff3126c397aca7defb9ca2cec OP_EQUALVERIFY OP_CHECKSIG",
            "hex": "76a91457757ed2ecf2052ff3126c397aca7defb9ca2cec88ac",
            "reqSigs": 1,
            "type": "pubkeyhash",
            "addresses": [
              "LTCPodGk5FwcJaRzH9yKnwicxzFUbxp6tN"
            ]
          }
        }
      ],
      "hex": "01000000010000000000000000000000000000000000000000000000000000000000000000ffffffff44031fc114045a716f0b2cfabe6d6decf1b5293380eb7b4bc241d4e068f9b46128864eed85f8d86bec6dab53dd97f04000000000000000042f4c502f085600305d0f000000ffffffff0100f90295000000001976a91457757ed2ecf2052ff3126c397aca7defb9ca2cec88ac00000000"
    }
  ],
  "time": 1517383435,
  "mediantime": 1517382943,
  "nonce": 1676429746,
  "bits": "1a042eae",
  "difficulty": 4011378.762614286,
  "chainwork": "000000000000000000000000000000000000000000000034ada67e883deebf40",
  "previousblockhash": "8e9f8171e52cb72856f5fd7a6b4c2ef60c2a20195f3ed6ec52701b3d80514000",
  "nextblockhash": "3a4d1d31aafbdfcae888ca9129604911560b0f399493e08c47c233540a05cd56"
}
