{
  "hash": "4a8d38d0947d73049cbe29f532069aff34e0caf741a3f9a90d547b2978e78c4e",
  "confirmations": 2783,
  "strippedsize": 266,
  "size": 266,
  "weight": 1064,
  "height": 1358212,
  "version": 536870912,
  "versionHex": "20000000",
  "merkleroot": "6dcdd60d645c9c12c4b743f1b3cd074ff5cbb11a6fc3f5d6d1ba7b2652edea19",
  "tx": [
    {
      "txid": "6dcdd60d645c9c12c4b743f1b3cd074ff5cbb11a6fc3f5d6d1ba7b2652edea19",
      "hash": "6dcdd60d645c9c12c4b743f1b3cd074ff5cbb11a6fc3f5d6d1ba7b2652edea19",
      "version": 1,
      "size": 185,
      "vsize": 185,
      "locktime": 950782060,
      "vin": [
        {
          "coinbase": "0384b9142cfabe6d6d9ba1d8d196ec44cd5428d86df17d16728151775916a9239d903df6a3dfaffbd708000000f09f909f144d696e65642062792073746f6e656b6179303031000000000000000000000000000000000000000000000000000000000000",
          "sequence": 7
        }
      ],
      "vout": [
        {
          "value": 25.00000000,
          "n": 0,
          "scriptPubKey": {
            "asm": "OP_DUP OP_HASH160 aa3750aa18b8a0f3f0590731e1fab934856680cf OP_EQUALVERIFY OP_CHECKSIG",
            "hex": "76a914aa3750aa18b8a0f3f0590731e1fab934856680cf88ac",
            "reqSigs": 1,
            "type": "pubkeyhash",
            "addresses": [
              "LajyQBeZaBA1NkZDeY8YT5RYYVRkXMvb2T"
            ]
          }
        }
      ],
      "hex": "01000000010000000000000000000000000000000000000000000000000000000000000000ffffffff640384b9142cfabe6d6d9ba1d8d196ec44cd5428d86df17d16728151775916a9239d903df6a3dfaffbd708000000f09f909f144d696e65642062792073746f6e656b6179303031000000000000000000000000000000000000000000000000000000000000070000000100f90295000000001976a914aa3750aa18b8a0f3f0590731e1fab934856680cf88ac6cc8ab38"
    }
  ],
  "time": 1517107403,
  "mediantime": 1517106556,
  "nonce": 31219679,
  "bits": "1a047f14",
  "difficulty": 3731199.183374282,
  "chainwork": "000000000000000000000000000000000000000000000032e5a85a8309891682",
  "previousblockhash": "cab42b8924fe8fbb83e9fe47c6fc37f130678d467f3ad1ea933010ec968814b3",
  "nextblockhash": "df049c2e58fdc09777e227270ab0ade335be143664778ca45f4e6055d6f0c057"
}
