{
  "hash": "4aa83fea1a9dbb9c0d61cbd6a25a0ee9132afb09528d4aa60d4fda8283479c80",
  "confirmations": 3399,
  "strippedsize": 253,
  "size": 253,
  "weight": 1012,
  "height": 1357596,
  "version": 536870912,
  "versionHex": "20000000",
  "merkleroot": "29c8047950df8e20258154b528360e98ccb9516c6699cfae607a16790c0e6a86",
  "tx": [
    {
      "txid": "29c8047950df8e20258154b528360e98ccb9516c6699cfae607a16790c0e6a86",
      "hash": "29c8047950df8e20258154b528360e98ccb9516c6699cfae607a16790c0e6a86",
      "version": 1,
      "size": 172,
      "vsize": 172,
      "locktime": 0,
      "vin": [
        {
          "coinbase": "031cb7141a4d696e656420627920416e74506f6f6c20626a331f205a6bf064fabe6d6d7b300b4aea20118213837532727f541692d37da9ee8c866743d9af59906471470400000000000000b42600000000000001000000",
          "sequence": 4294967295
        }
      ],
      "vout": [
        {
          "value": 25.00000000,
          "n": 0,
          "scriptPubKey": {
            "asm": "OP_DUP OP_HASH160 0ff3ccc5e8be88afe24b5d634e5852d474dbdff1 OP_EQUALVERIFY OP_CHECKSIG",
            "hex": "76a9140ff3ccc5e8be88afe24b5d634e5852d474dbdff188ac",
            "reqSigs": 1,
            "type": "pubkeyhash",
            "addresses": [
              "LLgJTbzZMsRTCUF1NtvvL9SR1a4pVieW89"
            ]
          }
        }
      ],
      "hex": "01000000010000000000000000000000000000000000000000000000000000000000000000ffffffff57031cb7141a4d696e656420627920416e74506f6f6c20626a331f205a6bf064fabe6d6d7b300b4aea20118213837532727f541692d37da9ee8c866743d9af59906471470400000000000000b42600000000000001000000ffffffff0100f90295000000001976a9140ff3ccc5e8be88afe24b5d634e5852d474dbdff188ac00000000"
    }
  ],
  "time": 1517023332,
  "mediantime": 1517022349,
  "nonce": 930614490,
  "bits": "1a047f14",
  "difficulty": 3731199.183374282,
  "chainwork": "0000000000000000000000000000000000000000000000325ca8bb7a751c77f2",
  "previousblockhash": "f902a5ef4a388acb67824d3627969e636f515484d670f19ea1a18909917f4812",
  "nextblockhash": "17d28229b954e07023ebe0f8859a435e690c36359edf76c106c140e412992cd3"
}
