{
  "hash": "4afa3f608c645431ec94e1a0fa64dd00b8d77123a871833a39bd590aa8e9a70d",
  "confirmations": 1152,
  "strippedsize": 253,
  "size": 253,
  "weight": 1012,
  "height": 1359842,
  "version": 536870912,
  "versionHex": "20000000",
  "merkleroot": "65dd69f6ed404d43dc8f2c2f927b23638d5d87fff79574af0b6fe670244ae0bd",
  "tx": [
    {
      "txid": "65dd69f6ed404d43dc8f2c2f927b23638d5d87fff79574af0b6fe670244ae0bd",
      "hash": "65dd69f6ed404d43dc8f2c2f927b23638d5d87fff79574af0b6fe670244ae0bd",
      "version": 1,
      "size": 172,
      "vsize": 172,
      "locktime": 0,
      "vin": [
        {
          "coinbase": "03e2bf141a4d696e656420627920416e74506f6f6c20626a3532205a70c212fabe6d6dd0c939b5277eb02994461209b0535120619201b3bc09b769d50a2e92c93dd1f80400000000000000753600000000000026000000",
          "sequence": 4294967295
        }
      ],
      "vout": [
        {
          "value": 25.00000000,
          "n": 0,
          "scriptPubKey": {
            "asm": "OP_DUP OP_HASH160 0ff3ccc5e8be88afe24b5d634e5852d474dbdff1 OP_EQUALVERIFY OP_CHECKSIG",
            "hex": "76a9140ff3ccc5e8be88afe24b5d634e5852d474dbdff188ac",
            "reqSigs": 1,
            "type": "pubkeyhash",
            "addresses": [
              "LLgJTbzZMsRTCUF1NtvvL9SR1a4pVieW89"
            ]
          }
        }
      ],
      "hex": "01000000010000000000000000000000000000000000000000000000000000000000000000ffffffff5703e2bf141a4d696e656420627920416e74506f6f6c20626a3532205a70c212fabe6d6dd0c939b5277eb02994461209b0535120619201b3bc09b769d50a2e92c93dd1f80400000000000000753600000000000026000000ffffffff0100f90295000000001976a9140ff3ccc5e8be88afe24b5d634e5852d474dbdff188ac00000000"
    }
  ],
  "time": 1517339154,
  "mediantime": 1517338207,
  "nonce": 3749366675,
  "bits": "1a042eae",
  "difficulty": 4011378.762614286,
  "chainwork": "00000000000000000000000000000000000000000000003461db03a1035ad946",
  "previousblockhash": "df71bf7d5f102a9cea64f53de5a6f1d6185fe357631e24f6227febe9e612d7bc",
  "nextblockhash": "835a0ad71344b70883f39c2d1f74dc9512d4cb51406de6dcad37568497e8ed62"
}
