{
  "hash": "4bb27d6df88197d24dea77ae07140058a5164f8f4934182f9847687020aca1ba",
  "confirmations": 2115,
  "strippedsize": 234,
  "size": 234,
  "weight": 936,
  "height": 1358879,
  "version": 536870912,
  "versionHex": "20000000",
  "merkleroot": "703e2f0b265ab995f180ef3226d38c48823086b0d7dd65f2f98c53298618da5c",
  "tx": [
    {
      "txid": "703e2f0b265ab995f180ef3226d38c48823086b0d7dd65f2f98c53298618da5c",
      "hash": "703e2f0b265ab995f180ef3226d38c48823086b0d7dd65f2f98c53298618da5c",
      "version": 1,
      "size": 153,
      "vsize": 153,
      "locktime": 0,
      "vin": [
        {
          "coinbase": "031fbc14045a6eb66e2cfabe6d6d8c34c36afd9511f8a7c0fdc91efe25e43aab0f0790c9df4c1943ca1058e22f3e4000000000000000042f4c502f08560073ee22000000",
          "sequence": 4294967295
        }
      ],
      "vout": [
        {
          "value": 25.00000000,
          "n": 0,
          "scriptPubKey": {
            "asm": "OP_DUP OP_HASH160 57757ed2ecf2052ff3126c397aca7defb9ca2cec OP_EQUALVERIFY OP_CHECKSIG",
            "hex": "76a91457757ed2ecf2052ff3126c397aca7defb9ca2cec88ac",
            "reqSigs": 1,
            "type": "pubkeyhash",
            "addresses": [
              "LTCPodGk5FwcJaRzH9yKnwicxzFUbxp6tN"
            ]
          }
        }
      ],
      "hex": "01000000010000000000000000000000000000000000000000000000000000000000000000ffffffff44031fbc14045a6eb66e2cfabe6d6d8c34c36afd9511f8a7c0fdc91efe25e43aab0f0790c9df4c1943ca1058e22f3e4000000000000000042f4c502f08560073ee22000000ffffffff0100f90295000000001976a91457757ed2ecf2052ff3126c397aca7defb9ca2cec88ac00000000"
    }
  ],
  "time": 1517205102,
  "mediantime": 1517204401,
  "nonce": 115958448,
  "bits": "1a042eae",
  "difficulty": 4011378.762614286,
  "chainwork": "0000000000000000000000000000000000000000000000337b9a0eaba89f3540",
  "previousblockhash": "f80264fb8ec7156b9840ee86a951960dcd382f33a14b1db143253b85b87c5c61",
  "nextblockhash": "f54c252748958caccfbfc004af0ebe1e061690b02f64134f9aa613a51327142c"
}
