{
  "hash": "4bf9a4f84c36a1be04dd612de7b0f91c8b06f0cf5314213a093bf8b3e7ab74d2",
  "confirmations": 3606,
  "strippedsize": 254,
  "size": 254,
  "weight": 1016,
  "height": 1357389,
  "version": 536870912,
  "versionHex": "20000000",
  "merkleroot": "46b6706d7c3bf7df043051588eb30001a74cf6f198737c27cff8e66dcc5a16aa",
  "tx": [
    {
      "txid": "46b6706d7c3bf7df043051588eb30001a74cf6f198737c27cff8e66dcc5a16aa",
      "hash": "46b6706d7c3bf7df043051588eb30001a74cf6f198737c27cff8e66dcc5a16aa",
      "version": 1,
      "size": 173,
      "vsize": 173,
      "locktime": 0,
      "vin": [
        {
          "coinbase": "034db6141b4d696e656420627920416e74506f6f6c20626a312045205a6b8931fabe6d6d10cc129b2db02015a09a86cae067bf1d42f606a1307c6c3cf07e1697adac8cd5040000000000000063180000000000001e000000",
          "sequence": 4294967295
        }
      ],
      "vout": [
        {
          "value": 25.00000000,
          "n": 0,
          "scriptPubKey": {
            "asm": "OP_DUP OP_HASH160 0ff3ccc5e8be88afe24b5d634e5852d474dbdff1 OP_EQUALVERIFY OP_CHECKSIG",
            "hex": "76a9140ff3ccc5e8be88afe24b5d634e5852d474dbdff188ac",
            "reqSigs": 1,
            "type": "pubkeyhash",
            "addresses": [
              "LLgJTbzZMsRTCUF1NtvvL9SR1a4pVieW89"
            ]
          }
        }
      ],
      "hex": "01000000010000000000000000000000000000000000000000000000000000000000000000ffffffff58034db6141b4d696e656420627920416e74506f6f6c20626a312045205a6b8931fabe6d6d10cc129b2db02015a09a86cae067bf1d42f606a1307c6c3cf07e1697adac8cd5040000000000000063180000000000001e000000ffffffff0100f90295000000001976a9140ff3ccc5e8be88afe24b5d634e5852d474dbdff188ac00000000"
    }
  ],
  "time": 1516996913,
  "mediantime": 1516996402,
  "nonce": 3708233930,
  "bits": "1a047f14",
  "difficulty": 3731199.183374282,
  "chainwork": "0000000000000000000000000000000000000000000000322e9f4d1a115d5eec",
  "previousblockhash": "08106f42655910c6490bc566c0757d12b6eea0365ba4803557e0efe4dee34ac3",
  "nextblockhash": "88bad522ddded9b3893dafa3d62b6208e43c1c1fceda3ade4a08956314c92112"
}
