{
  "hash": "4c23de11b8e53d5b01e983414b9ded00a9ae2ff4365d48d2f87c05f1c6a05754",
  "confirmations": 2188,
  "strippedsize": 254,
  "size": 254,
  "weight": 1016,
  "height": 1358806,
  "version": 536870912,
  "versionHex": "20000000",
  "merkleroot": "c77369974cb5131c8421fdb918b6a6f24e7ade58485c666e22164c3c14bad895",
  "tx": [
    {
      "txid": "c77369974cb5131c8421fdb918b6a6f24e7ade58485c666e22164c3c14bad895",
      "hash": "c77369974cb5131c8421fdb918b6a6f24e7ade58485c666e22164c3c14bad895",
      "version": 1,
      "size": 173,
      "vsize": 173,
      "locktime": 0,
      "vin": [
        {
          "coinbase": "03d6bb141b4d696e656420627920416e74506f6f6c20626a302042205a6e8b6efabe6d6d7fe092ef7d62f2c013042db35cd797af4af04bd401f8984d81600ac3087b35f30400000000000000a10200000000000001000000",
          "sequence": 4294967295
        }
      ],
      "vout": [
        {
          "value": 25.00000000,
          "n": 0,
          "scriptPubKey": {
            "asm": "OP_DUP OP_HASH160 0ff3ccc5e8be88afe24b5d634e5852d474dbdff1 OP_EQUALVERIFY OP_CHECKSIG",
            "hex": "76a9140ff3ccc5e8be88afe24b5d634e5852d474dbdff188ac",
            "reqSigs": 1,
            "type": "pubkeyhash",
            "addresses": [
              "LLgJTbzZMsRTCUF1NtvvL9SR1a4pVieW89"
            ]
          }
        }
      ],
      "hex": "01000000010000000000000000000000000000000000000000000000000000000000000000ffffffff5803d6bb141b4d696e656420627920416e74506f6f6c20626a302042205a6e8b6efabe6d6d7fe092ef7d62f2c013042db35cd797af4af04bd401f8984d81600ac3087b35f30400000000000000a10200000000000001000000ffffffff0100f90295000000001976a9140ff3ccc5e8be88afe24b5d634e5852d474dbdff188ac00000000"
    }
  ],
  "time": 1517194094,
  "mediantime": 1517193742,
  "nonce": 586657609,
  "bits": "1a042eae",
  "difficulty": 4011378.762614286,
  "chainwork": "0000000000000000000000000000000000000000000000336a25bf7dadb4df2e",
  "previousblockhash": "d91e7fdb9c9ee699806ac7f1566ca23ea6076525ed0acad88f4acc98bf6c17a1",
  "nextblockhash": "7d8f2ea69e90d7aeab1c597b47bc01ecbaecb30ed30436a40f2bb3d1e2326775"
}
