{
  "hash": "4c7032d6abf689ec81e4281bbbff2ac2694292181a187931ea9226f09d16314f",
  "confirmations": 3376,
  "strippedsize": 253,
  "size": 253,
  "weight": 1012,
  "height": 1357619,
  "version": 536870912,
  "versionHex": "20000000",
  "merkleroot": "3efa70d76494aacf3c3d93bbbbf47a1c92c58ddab2ef68c40a1ce6c81b09b2e2",
  "tx": [
    {
      "txid": "3efa70d76494aacf3c3d93bbbbf47a1c92c58ddab2ef68c40a1ce6c81b09b2e2",
      "hash": "3efa70d76494aacf3c3d93bbbbf47a1c92c58ddab2ef68c40a1ce6c81b09b2e2",
      "version": 1,
      "size": 172,
      "vsize": 172,
      "locktime": 0,
      "vin": [
        {
          "coinbase": "0333b7141a4d696e656420627920416e74506f6f6c20626a3242205a6bfc9bfabe6d6d0fd9239230d0a2c82338df1150605b957e9a9ed7e781e05cc6eddb8971e8812c0400000000000000a32800000000000004000000",
          "sequence": 4294967295
        }
      ],
      "vout": [
        {
          "value": 25.00000000,
          "n": 0,
          "scriptPubKey": {
            "asm": "OP_DUP OP_HASH160 0ff3ccc5e8be88afe24b5d634e5852d474dbdff1 OP_EQUALVERIFY OP_CHECKSIG",
            "hex": "76a9140ff3ccc5e8be88afe24b5d634e5852d474dbdff188ac",
            "reqSigs": 1,
            "type": "pubkeyhash",
            "addresses": [
              "LLgJTbzZMsRTCUF1NtvvL9SR1a4pVieW89"
            ]
          }
        }
      ],
      "hex": "01000000010000000000000000000000000000000000000000000000000000000000000000ffffffff570333b7141a4d696e656420627920416e74506f6f6c20626a3242205a6bfc9bfabe6d6d0fd9239230d0a2c82338df1150605b957e9a9ed7e781e05cc6eddb8971e8812c0400000000000000a32800000000000004000000ffffffff0100f90295000000001976a9140ff3ccc5e8be88afe24b5d634e5852d474dbdff188ac00000000"
    }
  ],
  "time": 1517026459,
  "mediantime": 1517026195,
  "nonce": 2168185429,
  "bits": "1a047f14",
  "difficulty": 3731199.183374282,
  "chainwork": "00000000000000000000000000000000000000000000003261c639852adc5e48",
  "previousblockhash": "ee88a61d387fefd310933c663e319546f0d219effe9edff942525eb27ec3f5b5",
  "nextblockhash": "1ad33dbab23877246bd62e5f7087fb4ef07d9e4941528c619182be4ab251b344"
}
