{
  "hash": "4cf37598cb6bf00480b91f0eb125fe065e9fa351cdb52d173d0ced5873c5c22a",
  "confirmations": 2740,
  "strippedsize": 254,
  "size": 254,
  "weight": 1016,
  "height": 1358255,
  "version": 536870912,
  "versionHex": "20000000",
  "merkleroot": "c57a2632e4039b5b3cf4f0ed0c2c58156403bdd4b81cb0183f952403f49b015c",
  "tx": [
    {
      "txid": "c57a2632e4039b5b3cf4f0ed0c2c58156403bdd4b81cb0183f952403f49b015c",
      "hash": "c57a2632e4039b5b3cf4f0ed0c2c58156403bdd4b81cb0183f952403f49b015c",
      "version": 1,
      "size": 173,
      "vsize": 173,
      "locktime": 0,
      "vin": [
        {
          "coinbase": "03afb9141b4d696e656420627920416e74506f6f6c20626a302042205a6d588cfabe6d6d88622aec7aed6cd629dfbb60043ba85c77722b590952716c142ca4f92311d7e00400000000000000f81a0000000000000e000000",
          "sequence": 4294967295
        }
      ],
      "vout": [
        {
          "value": 25.00000000,
          "n": 0,
          "scriptPubKey": {
            "asm": "OP_DUP OP_HASH160 0ff3ccc5e8be88afe24b5d634e5852d474dbdff1 OP_EQUALVERIFY OP_CHECKSIG",
            "hex": "76a9140ff3ccc5e8be88afe24b5d634e5852d474dbdff188ac",
            "reqSigs": 1,
            "type": "pubkeyhash",
            "addresses": [
              "LLgJTbzZMsRTCUF1NtvvL9SR1a4pVieW89"
            ]
          }
        }
      ],
      "hex": "01000000010000000000000000000000000000000000000000000000000000000000000000ffffffff5803afb9141b4d696e656420627920416e74506f6f6c20626a302042205a6d588cfabe6d6d88622aec7aed6cd629dfbb60043ba85c77722b590952716c142ca4f92311d7e00400000000000000f81a0000000000000e000000ffffffff0100f90295000000001976a9140ff3ccc5e8be88afe24b5d634e5852d474dbdff188ac00000000"
    }
  ],
  "time": 1517115532,
  "mediantime": 1517115076,
  "nonce": 2621462952,
  "bits": "1a047f14",
  "difficulty": 3731199.183374282,
  "chainwork": "000000000000000000000000000000000000000000000032ef3888f01a8baee0",
  "previousblockhash": "c0c624e72ac1e9cccb40bb4a5746ef60c0c5ee1edd3bca10b55843a808d37428",
  "nextblockhash": "69663e74824400d152edbd7cf6b83aff84316a4e231ff564ae01a591b76fa1af"
}
