{
  "hash": "4d972691296134140c91b191c27b3f09b134a0da23d345e56717b398bce6b052",
  "confirmations": 676,
  "strippedsize": 4423,
  "size": 4901,
  "weight": 18170,
  "height": 1360318,
  "version": 536870912,
  "versionHex": "20000000",
  "merkleroot": "4b1346f64828e2258cf4b2614709a6f8bedb3ef1bcdd7f687274ece7436bf8ed",
  "tx": [
    {
      "txid": "0aaccc1df90b033d6ae2f293c5f97dff54be43685d853d5fae38a25e77ce75ba",
      "hash": "eb69bd22c817821ec1163f32dde20626f34d31ebe73510adb56bf618f98b599f",
      "version": 1,
      "size": 287,
      "vsize": 260,
      "locktime": 0,
      "vin": [
        {
          "coinbase": "03bec11441d69c76f953e38d41d69c76f8d4bf362f4c54432e544f502ffabe6d6dba521222aa45abb58ad6656ce0dd768c69198dc5503a8802b61ff88857bd0acd0100000000000000511876be0d00000000000000",
          "sequence": 4294967295
        }
      ],
      "vout": [
        {
          "value": 24.76696217,
          "n": 0,
          "scriptPubKey": {
            "asm": "OP_DUP OP_HASH160 7b96c291c4d9e252907e9275cd3d14fdeaeac0f1 OP_EQUALVERIFY OP_CHECKSIG",
            "hex": "76a9147b96c291c4d9e252907e9275cd3d14fdeaeac0f188ac",
            "reqSigs": 1,
            "type": "pubkeyhash",
            "addresses": [
              "LWVRyoJawzDYtvRmLVzUXqUSkNT7H1MLTt"
            ]
          }
        }, 
        {
          "value": 0.00000000,
          "n": 1,
          "scriptPubKey": {
            "asm": "OP_RETURN aa21a9edb8b00330618cd1b62abde9c4bd9cdbafee670f420ebdd8fc04db6a4e9f754f03",
            "hex": "6a24aa21a9edb8b00330618cd1b62abde9c4bd9cdbafee670f420ebdd8fc04db6a4e9f754f03",
            "type": "nulldata"
          }
        }, 
        {
          "value": 0.25017133,
          "n": 2,
          "scriptPubKey": {
            "asm": "OP_DUP OP_HASH160 0c617fdb2ea42aed30a509595ee21ba3f6688db0 OP_EQUALVERIFY OP_CHECKSIG",
            "hex": "76a9140c617fdb2ea42aed30a509595ee21ba3f6688db088ac",
            "reqSigs": 1,
            "type": "pubkeyhash",
            "addresses": [
              "LLMRAtr3qBje2ySEa3CnZ55LA4TQMWnRY3"
            ]
          }
        }
      ],
      "hex": "010000000001010000000000000000000000000000000000000000000000000000000000000000ffffffff5503bec11441d69c76f953e38d41d69c76f8d4bf362f4c54432e544f502ffabe6d6dba521222aa45abb58ad6656ce0dd768c69198dc5503a8802b61ff88857bd0acd0100000000000000511876be0d00000000000000ffffffff0399629f93000000001976a9147b96c291c4d9e252907e9275cd3d14fdeaeac0f188ac0000000000000000266a24aa21a9edb8b00330618cd1b62abde9c4bd9cdbafee670f420ebdd8fc04db6a4e9f754f032dbb7d01000000001976a9140c617fdb2ea42aed30a509595ee21ba3f6688db088ac0120000000000000000000000000000000000000000000000000000000000000000000000000"
    }, 
    {
      "txid": "3ff1b7c13dcfed17f0e7f3840cf4f467d017af36862bd9e2b0cd9c186fb6883b",
      "hash": "3ff1b7c13dcfed17f0e7f3840cf4f467d017af36862bd9e2b0cd9c186fb6883b",
      "version": 2,
      "size": 225,
      "vsize": 225,
      "locktime": 0,
      "vin": [
        {
          "txid": "68a14bb3972d07333705acef000ac989f103f1b166848252d644451bdcb4961d",
          "vout": 0,
          "scriptSig": {
            "asm": "304402202c580df3e041a9603bdb0a73a8cfba3f7749b7dbf9bcb1a7a0b44fca464ad66802201fc2c0ed2692238e7b57e2cac3fd42ec0b87b13bb7e3ec487efaddb4ac521264[ALL] 036e455cc697419cf6546f7d58524033c05b3feac46728a08f86d81ba2c498965c",
            "hex": "47304402202c580df3e041a9603bdb0a73a8cfba3f7749b7dbf9bcb1a7a0b44fca464ad66802201fc2c0ed2692238e7b57e2cac3fd42ec0b87b13bb7e3ec487efaddb4ac5212640121036e455cc697419cf6546f7d58524033c05b3feac46728a08f86d81ba2c498965c"
          },
          "sequence": 4294967295
        }
      ],
      "vout": [
        {
          "value": 1486.82911732,
          "n": 0,
          "scriptPubKey": {
            "asm": "OP_DUP OP_HASH160 e1d96b65ee37d0e27a46447dded7851ed9ac7997 OP_EQUALVERIFY OP_CHECKSIG",
            "hex": "76a914e1d96b65ee37d0e27a46447dded7851ed9ac799788ac",
            "reqSigs": 1,
            "type": "pubkeyhash",
            "addresses": [
              "Lfp8kwx69gJgFzTcrtHAx2mP9oH6kHDjcp"
            ]
          }
        }, 
        {
          "value": 12.00000000,
          "n": 1,
          "scriptPubKey": {
            "asm": "OP_DUP OP_HASH160 61962da49afb836e34823f0fcf369177ae604361 OP_EQUALVERIFY OP_CHECKSIG",
            "hex": "76a91461962da49afb836e34823f0fcf369177ae60436188ac",
            "reqSigs": 1,
            "type": "pubkeyhash",
            "addresses": [
              "LU7wiPeYRcbBQKMmRqSUajJQR4TTaJDQYM"
            ]
          }
        }
      ],
      "hex": "02000000011d96b4dc1b4544d652828466b1f103f189c90a00efac053733072d97b34ba168000000006a47304402202c580df3e041a9603bdb0a73a8cfba3f7749b7dbf9bcb1a7a0b44fca464ad66802201fc2c0ed2692238e7b57e2cac3fd42ec0b87b13bb7e3ec487efaddb4ac5212640121036e455cc697419cf6546f7d58524033c05b3feac46728a08f86d81ba2c498965cffffffff02f42f319e220000001976a914e1d96b65ee37d0e27a46447dded7851ed9ac799788ac008c8647000000001976a91461962da49afb836e34823f0fcf369177ae60436188ac00000000"
    }, 
    {
      "txid": "41605123e98c5081f475f3b6bd9616875955d1e09ebb42704cd066f658d6997c",
      "hash": "41605123e98c5081f475f3b6bd9616875955d1e09ebb42704cd066f658d6997c",
      "version": 1,
      "size": 373,
      "vsize": 373,
      "locktime": 0,
      "vin": [
        {
          "txid": "29d2db8e5eb5726a57aed395869fef89949f15fca5bb647286f624a8f752a642",
          "vout": 1,
          "scriptSig": {
            "asm": "3045022100cbcc8c4a442b659c55455f104d4bc28a8e365875a40f51beba07e5e9a4daf2690220666279f4c54c912a924a8491d9db8a6dd7964a189c77a529799fe2578d49225c[ALL] 0356c1f41aa4d1001063299a00f6cb895a9826e2f7bdf093112080412f67135491",
            "hex": "483045022100cbcc8c4a442b659c55455f104d4bc28a8e365875a40f51beba07e5e9a4daf2690220666279f4c54c912a924a8491d9db8a6dd7964a189c77a529799fe2578d49225c01210356c1f41aa4d1001063299a00f6cb895a9826e2f7bdf093112080412f67135491"
          },
          "sequence": 4294967295
        }, 
        {
          "txid": "9249540f2932b76c5b56a0fc7167dde9a9a0514ffe370c95647096ae2ccd876c",
          "vout": 12,
          "scriptSig": {
            "asm": "3044022046ee4ac6592559507a4890bb72d7d3a13f3abacbaced2b0f312ce87f0753e3f202202a7a46d03ef47d195ac627be79ea7e72509e09b9e1bc389f6bf0daea58916379[ALL] 029201b665821010d62344d18a5f5c65ae72e539d62fdc35d9230969d9e14df0b5",
            "hex": "473044022046ee4ac6592559507a4890bb72d7d3a13f3abacbaced2b0f312ce87f0753e3f202202a7a46d03ef47d195ac627be79ea7e72509e09b9e1bc389f6bf0daea589163790121029201b665821010d62344d18a5f5c65ae72e539d62fdc35d9230969d9e14df0b5"
          },
          "sequence": 4294967295
        }
      ],
      "vout": [
        {
          "value": 19.64100582,
          "n": 0,
          "scriptPubKey": {
            "asm": "OP_DUP OP_HASH160 2868a743b89a66e31745b10b4148ea3c45d5a8fb OP_EQUALVERIFY OP_CHECKSIG",
            "hex": "76a9142868a743b89a66e31745b10b4148ea3c45d5a8fb88ac",
            "reqSigs": 1,
            "type": "pubkeyhash",
            "addresses": [
              "LNucfL7YNmhr3Y9S2oUbeAQGQ68UvZVLw5"
            ]
          }
        }, 
        {
          "value": 14.79471429,
          "n": 1,
          "scriptPubKey": {
            "asm": "OP_DUP OP_HASH160 fff12c1f9463717ff544679d9abeccacaac10b22 OP_EQUALVERIFY OP_CHECKSIG",
            "hex": "76a914fff12c1f9463717ff544679d9abeccacaac10b2288ac",
            "reqSigs": 1,
            "type": "pubkeyhash",
            "addresses": [
              "LiZFV5XetdMn6vKNrG18gWQXuFbFTqikMB"
            ]
          }
        }
      ],
      "hex": "010000000242a652f7a824f6867264bba5fc159f9489ef9f8695d3ae576a72b55e8edbd229010000006b483045022100cbcc8c4a442b659c55455f104d4bc28a8e365875a40f51beba07e5e9a4daf2690220666279f4c54c912a924a8491d9db8a6dd7964a189c77a529799fe2578d49225c01210356c1f41aa4d1001063299a00f6cb895a9826e2f7bdf093112080412f67135491ffffffff6c87cd2cae967064950c37fe4f51a0a9e9dd6771fca0565b6cb732290f5449920c0000006a473044022046ee4ac6592559507a4890bb72d7d3a13f3abacbaced2b0f312ce87f0753e3f202202a7a46d03ef47d195ac627be79ea7e72509e09b9e1bc389f6bf0daea589163790121029201b665821010d62344d18a5f5c65ae72e539d62fdc35d9230969d9e14df0b5ffffffff02e6cb1175000000001976a9142868a743b89a66e31745b10b4148ea3c45d5a8fb88ac45f12e58000000001976a914fff12c1f9463717ff544679d9abeccacaac10b2288ac00000000"
    }, 
    {
      "txid": "f765f71d42297ce3f40351c51a23a4647274fea534aec1cc5679ba7979bcf793",
      "hash": "f765f71d42297ce3f40351c51a23a4647274fea534aec1cc5679ba7979bcf793",
      "version": 1,
      "size": 192,
      "vsize": 192,
      "locktime": 0,
      "vin": [
        {
          "txid": "8c712cdb4eb3bd9fa5f4bf81a55951f689108f09ea506c8ba46c84db12cbc34d",
          "vout": 0,
          "scriptSig": {
            "asm": "3045022100a47b0b84390fb5c904e52daa0e2735b61a4ed7993f3458bbb7401fc275994497022048b051279926c23e7b155ffdde15c828c55a1a2240617714304296f6a929b80f[ALL] 038e423d34501bd9fdf2899057d1abf9e56df7866424d4a455397ff2e39542e73b",
            "hex": "483045022100a47b0b84390fb5c904e52daa0e2735b61a4ed7993f3458bbb7401fc275994497022048b051279926c23e7b155ffdde15c828c55a1a2240617714304296f6a929b80f0121038e423d34501bd9fdf2899057d1abf9e56df7866424d4a455397ff2e39542e73b"
          },
          "sequence": 4294967295
        }
      ],
      "vout": [
        {
          "value": 0.08054984,
          "n": 0,
          "scriptPubKey": {
            "asm": "OP_DUP OP_HASH160 5399505a759a4d2cb2cde4916e0e976c1ea1731f OP_EQUALVERIFY OP_CHECKSIG",
            "hex": "76a9145399505a759a4d2cb2cde4916e0e976c1ea1731f88ac",
            "reqSigs": 1,
            "type": "pubkeyhash",
            "addresses": [
              "LSqz1a23Fmchvr3R2WPahzQZVxdP1NZbtL"
            ]
          }
        }
      ],
      "hex": "01000000014dc3cb12db846ca48b6c50ea098f1089f65159a581bff4a59fbdb34edb2c718c000000006b483045022100a47b0b84390fb5c904e52daa0e2735b61a4ed7993f3458bbb7401fc275994497022048b051279926c23e7b155ffdde15c828c55a1a2240617714304296f6a929b80f0121038e423d34501bd9fdf2899057d1abf9e56df7866424d4a455397ff2e39542e73bffffffff01c8e87a00000000001976a9145399505a759a4d2cb2cde4916e0e976c1ea1731f88ac00000000"
    }, 
    {
      "txid": "219330649c974bafcb562a6b3d1d78b66d6ecde5ccded87c64f89be5946cf0bd",
      "hash": "219330649c974bafcb562a6b3d1d78b66d6ecde5ccded87c64f89be5946cf0bd",
      "version": 1,
      "size": 334,
      "vsize": 334,
      "locktime": 0,
      "vin": [
        {
          "txid": "c10dad2cd92139037862270dcc08e0749f8f5e53965247c60b3b4702aef833ed",
          "vout": 1,
          "scriptSig": {
            "asm": "0 304402207c2a764d91d0b0e765b2b9fbe0afab3345a8f4615e3ea96e3893443c1823b86202206643e1db0e7656709b65e9a84759c160a4da31100845011d1bf723325df7e9eb[ALL] 304402202128fb65a8a85733491b44063fe31b70514384db290a4633897f25e573fdb13802206e6fcf7571244a26fafe0f4958d5ea25dd1ddeb7851cc5755547ca9898bfbfae[ALL] 522102f77ec37a042ba4e5e6aef7760398bf59b87ac4c5dee30a2fb8798e9630d4916e210276b93401dc495b28592f66411a7c9093b468f8678db51144fc6a36f550d94aa952ae",
            "hex": "0047304402207c2a764d91d0b0e765b2b9fbe0afab3345a8f4615e3ea96e3893443c1823b86202206643e1db0e7656709b65e9a84759c160a4da31100845011d1bf723325df7e9eb0147304402202128fb65a8a85733491b44063fe31b70514384db290a4633897f25e573fdb13802206e6fcf7571244a26fafe0f4958d5ea25dd1ddeb7851cc5755547ca9898bfbfae0147522102f77ec37a042ba4e5e6aef7760398bf59b87ac4c5dee30a2fb8798e9630d4916e210276b93401dc495b28592f66411a7c9093b468f8678db51144fc6a36f550d94aa952ae"
          },
          "sequence": 4294967295
        }
      ],
      "vout": [
        {
          "value": 0.18249700,
          "n": 0,
          "scriptPubKey": {
            "asm": "OP_DUP OP_HASH160 7c53eee7393a348211a24058de912e47abbcd7d7 OP_EQUALVERIFY OP_CHECKSIG",
            "hex": "76a9147c53eee7393a348211a24058de912e47abbcd7d788ac",
            "reqSigs": 1,
            "type": "pubkeyhash",
            "addresses": [
              "LWZLbnK4tNFG1iaDf4PKqgt1L2Nx2BFs3u"
            ]
          }
        }, 
        {
          "value": 5.26475400,
          "n": 1,
          "scriptPubKey": {
            "asm": "OP_HASH160 75b77316f8d91ff71fb2819115d1b6b9e80ccee9 OP_EQUAL",
            "hex": "a91475b77316f8d91ff71fb2819115d1b6b9e80ccee987",
            "reqSigs": 1,
            "type": "scripthash",
            "addresses": [
              "MJdb4B3BMDrfpB1FpKsPYQ1tDHdkNa1oLB"
            ]
          }
        }
      ],
      "hex": "0100000001ed33f8ae02473b0bc6475296535e8f9f74e008cc0d276278033921d92cad0dc101000000d90047304402207c2a764d91d0b0e765b2b9fbe0afab3345a8f4615e3ea96e3893443c1823b86202206643e1db0e7656709b65e9a84759c160a4da31100845011d1bf723325df7e9eb0147304402202128fb65a8a85733491b44063fe31b70514384db290a4633897f25e573fdb13802206e6fcf7571244a26fafe0f4958d5ea25dd1ddeb7851cc5755547ca9898bfbfae0147522102f77ec37a042ba4e5e6aef7760398bf59b87ac4c5dee30a2fb8798e9630d4916e210276b93401dc495b28592f66411a7c9093b468f8678db51144fc6a36f550d94aa952aeffffffff02e4771601000000001976a9147c53eee7393a348211a24058de912e47abbcd7d788ac8860611f0000000017a91475b77316f8d91ff71fb2819115d1b6b9e80ccee98700000000"
    }, 
    {
      "txid": "ca965ad80e2a877edd9d795ae119c7e0eb506f617755c8fb236547254bed17e3",
      "hash": "ca965ad80e2a877edd9d795ae119c7e0eb506f617755c8fb236547254bed17e3",
      "version": 1,
      "size": 338,
      "vsize": 338,
      "locktime": 0,
      "vin": [
        {
          "txid": "30f084d4faaa5d12c2d62a5adcabb35debc4c5291a8e6171a250d15b2e9b6ac9",
          "vout": 0,
          "scriptSig": {
            "asm": "304402206b9572f29a6e907cd14c88704824f6215846350d7b12b6cc7077e2956536483102202b0add2b39441a6707529c890765f372957f62da554d546280b1710e0fbcb94f[ALL] 02054eab82ba7fb23f4ca5de3d93f47a705a5d605e655df77a5984259c8d4ef418",
            "hex": "47304402206b9572f29a6e907cd14c88704824f6215846350d7b12b6cc7077e2956536483102202b0add2b39441a6707529c890765f372957f62da554d546280b1710e0fbcb94f012102054eab82ba7fb23f4ca5de3d93f47a705a5d605e655df77a5984259c8d4ef418"
          },
          "sequence": 4294967295
        }, 
        {
          "txid": "e1b5d0778fec86a939d305ca2c8963c1c00b2a759f1ab1b08832ca15f6bc93f1",
          "vout": 0,
          "scriptSig": {
            "asm": "30440220286f9672a1c05b12ab9d49f70d1532f52826d4ac195e008222f577c6fbfdf958022051799f9cc3454b51d97d2255222b7a0a94220b8659d9ebe59bf483b2fdc9f4d7[ALL] 03e8f0c34d11e7101a0df2523edfc1edb358c95889a398f6e2f9de2c3828f52e22",
            "hex": "4730440220286f9672a1c05b12ab9d49f70d1532f52826d4ac195e008222f577c6fbfdf958022051799f9cc3454b51d97d2255222b7a0a94220b8659d9ebe59bf483b2fdc9f4d7012103e8f0c34d11e7101a0df2523edfc1edb358c95889a398f6e2f9de2c3828f52e22"
          },
          "sequence": 4294967295
        }
      ],
      "vout": [
        {
          "value": 0.85556695,
          "n": 0,
          "scriptPubKey": {
            "asm": "OP_DUP OP_HASH160 013a55d36d74a20cba5c46f24ee3e071ac028795 OP_EQUALVERIFY OP_CHECKSIG",
            "hex": "76a914013a55d36d74a20cba5c46f24ee3e071ac02879588ac",
            "reqSigs": 1,
            "type": "pubkeyhash",
            "addresses": [
              "LKLSpcJtkX9Hbum7sxZ4CgEbS4uoWdbuHk"
            ]
          }
        }
      ],
      "hex": "0100000002c96a9b2e5bd150a271618e1a29c5c4eb5db3abdc5a2ad6c2125daafad484f030000000006a47304402206b9572f29a6e907cd14c88704824f6215846350d7b12b6cc7077e2956536483102202b0add2b39441a6707529c890765f372957f62da554d546280b1710e0fbcb94f012102054eab82ba7fb23f4ca5de3d93f47a705a5d605e655df77a5984259c8d4ef418fffffffff193bcf615ca3288b0b11a9f752a0bc0c163892cca05d339a986ec8f77d0b5e1000000006a4730440220286f9672a1c05b12ab9d49f70d1532f52826d4ac195e008222f577c6fbfdf958022051799f9cc3454b51d97d2255222b7a0a94220b8659d9ebe59bf483b2fdc9f4d7012103e8f0c34d11e7101a0df2523edfc1edb358c95889a398f6e2f9de2c3828f52e22ffffffff01d77d1905000000001976a914013a55d36d74a20cba5c46f24ee3e071ac02879588ac00000000"
    }, 
    {
      "txid": "a13c02474cc0f3bcead2b265b924f693e61036fd4c1c31df8bf3f0a1912ecef3",
      "hash": "a13c02474cc0f3bcead2b265b924f693e61036fd4c1c31df8bf3f0a1912ecef3",
      "version": 2,
      "size": 226,
      "vsize": 226,
      "locktime": 0,
      "vin": [
        {
          "txid": "d3c30f2cb8a81c519b6b7265965269977d8eb5d58c3b69e586e7054078e68735",
          "vout": 0,
          "scriptSig": {
            "asm": "3045022100b9137573e049664b6a8a99b489bbd61a8f504e3baecf37b93ccde8db133cb27e02207c681d29d2c5e3e5e6dc629056b119ea3712c1601e279af62d5152d0bdb7f784[ALL] 029970acc09fda052f65a13bfc34f0bb9b484c0f7072ede85099e3dbed79e5d318",
            "hex": "483045022100b9137573e049664b6a8a99b489bbd61a8f504e3baecf37b93ccde8db133cb27e02207c681d29d2c5e3e5e6dc629056b119ea3712c1601e279af62d5152d0bdb7f7840121029970acc09fda052f65a13bfc34f0bb9b484c0f7072ede85099e3dbed79e5d318"
          },
          "sequence": 0
        }
      ],
      "vout": [
        {
          "value": 7.47871500,
          "n": 0,
          "scriptPubKey": {
            "asm": "OP_DUP OP_HASH160 c1ed70e6883c158a1ec26ed35e1e74036449c5e4 OP_EQUALVERIFY OP_CHECKSIG",
            "hex": "76a914c1ed70e6883c158a1ec26ed35e1e74036449c5e488ac",
            "reqSigs": 1,
            "type": "pubkeyhash",
            "addresses": [
              "LcuM7vk5ECeh6GVq2SyeABihKnjF3dWZac"
            ]
          }
        }, 
        {
          "value": 7.66085365,
          "n": 1,
          "scriptPubKey": {
            "asm": "OP_DUP OP_HASH160 bc5b00bc5e1e9b29069658d89630a7d7191af3fa OP_EQUALVERIFY OP_CHECKSIG",
            "hex": "76a914bc5b00bc5e1e9b29069658d89630a7d7191af3fa88ac",
            "reqSigs": 1,
            "type": "pubkeyhash",
            "addresses": [
              "LcPtKGUkGLnmFV6PFMpiqNrAQnqk2MRqfV"
            ]
          }
        }
      ],
      "hex": "02000000013587e6784005e786e5693b8cd5b58e7d9769529665726b9b511ca8b82c0fc3d3000000006b483045022100b9137573e049664b6a8a99b489bbd61a8f504e3baecf37b93ccde8db133cb27e02207c681d29d2c5e3e5e6dc629056b119ea3712c1601e279af62d5152d0bdb7f7840121029970acc09fda052f65a13bfc34f0bb9b484c0f7072ede85099e3dbed79e5d31800000000020c9d932c000000001976a914c1ed70e6883c158a1ec26ed35e1e74036449c5e488acf588a92d000000001976a914bc5b00bc5e1e9b29069658d89630a7d7191af3fa88ac00000000"
    }, 
    {
      "txid": "e127ea2f9cb0ed3d9726df5fedfd28885cb1a6db2be972099922f0cf72ea1481",
      "hash": "0387481b37a26d3e7408c3ba1251632d4ed95284135471fa117a95105471099f",
      "version": 1,
      "size": 372,
      "vsize": 207,
      "locktime": 0,
      "vin": [
        {
          "txid": "171462245e4cae6fc28595eb9920b3e464811b8cf2787143440a3ef58a04774a",
          "vout": 1,
          "scriptSig": {
            "asm": "00207975c3f0d1bf8b6205e1c664d703c93d68409676bf17c5e78cdece78bdbf3dbf",
            "hex": "2200207975c3f0d1bf8b6205e1c664d703c93d68409676bf17c5e78cdece78bdbf3dbf"
          },
          "txinwitness": [
            "", 
            "304402204dc7fb78d12acdda8ecad48835e6a71895f01a025ea665b82a598f68d0a1446102204e86bf46905bb34ae101e10ee3bb382af756e26fcb869b5016c10806ff9ab59e01", 
            "3044022068638ae17d2a01982b21f46fa982da365e5d4061789ec4305395a782b4f482ba02203d122fa389d129787ab0e2273e8dc3157586199c9297f8b73d6816a2853f23ed01", 
            "522102611be09a0c6a571c8f68adb2481e938888756d93d4ee5b670f08c16e939b7f1a21022cc7a96a72ef014bf078a6489644e2edb05bb216d30b4f28363b637fe4463fd652ae"
          ],
          "sequence": 4294967295
        }
      ],
      "vout": [
        {
          "value": 0.00592788,
          "n": 0,
          "scriptPubKey": {
            "asm": "OP_DUP OP_HASH160 9c191a4e9cbe0aa0bde68ea1d54efcc5d737f7c7 OP_EQUALVERIFY OP_CHECKSIG",
            "hex": "76a9149c191a4e9cbe0aa0bde68ea1d54efcc5d737f7c788ac",
            "reqSigs": 1,
            "type": "pubkeyhash",
            "addresses": [
              "LZTKkJssQF2cHxCMQr3cM2WkbygCNsSV9t"
            ]
          }
        }, 
        {
          "value": 1.77717311,
          "n": 1,
          "scriptPubKey": {
            "asm": "OP_HASH160 486ce63d83e8406016f310cd321d36bbdd10d412 OP_EQUAL",
            "hex": "a914486ce63d83e8406016f310cd321d36bbdd10d41287",
            "reqSigs": 1,
            "type": "scripthash",
            "addresses": [
              "MEW7Lhk6QzBLmCNp5pmpYzwv1KAcKYsSQp"
            ]
          }
        }
      ],
      "hex": "010000000001014a77048af53e0a44437178f28c1b8164e4b32099eb9585c26fae4c5e2462141701000000232200207975c3f0d1bf8b6205e1c664d703c93d68409676bf17c5e78cdece78bdbf3dbfffffffff02940b0900000000001976a9149c191a4e9cbe0aa0bde68ea1d54efcc5d737f7c788ac3fc0970a0000000017a914486ce63d83e8406016f310cd321d36bbdd10d41287040047304402204dc7fb78d12acdda8ecad48835e6a71895f01a025ea665b82a598f68d0a1446102204e86bf46905bb34ae101e10ee3bb382af756e26fcb869b5016c10806ff9ab59e01473044022068638ae17d2a01982b21f46fa982da365e5d4061789ec4305395a782b4f482ba02203d122fa389d129787ab0e2273e8dc3157586199c9297f8b73d6816a2853f23ed0147522102611be09a0c6a571c8f68adb2481e938888756d93d4ee5b670f08c16e939b7f1a21022cc7a96a72ef014bf078a6489644e2edb05bb216d30b4f28363b637fe4463fd652ae00000000"
    }, 
    {
      "txid": "079246dc849ae40a33a7c03201a1795ee01a59b1b969cf8e1b1b9bc56fb898f4",
      "hash": "21f5b4a8ef48edbf383ec3e6f3c87873101558a06124e47330db08285e4e3e46",
      "version": 1,
      "size": 374,
      "vsize": 208,
      "locktime": 0,
      "vin": [
        {
          "txid": "26953cff1245ec4b70d2a3d9c7e4ea7f0072a3465ce51bd629eafdd0599e1887",
          "vout": 1,
          "scriptSig": {
            "asm": "00207975c3f0d1bf8b6205e1c664d703c93d68409676bf17c5e78cdece78bdbf3dbf",
            "hex": "2200207975c3f0d1bf8b6205e1c664d703c93d68409676bf17c5e78cdece78bdbf3dbf"
          },
          "txinwitness": [
            "", 
            "3045022100e3612e54ef00a864bcc7a49ea4b6b7bfcc27cec371a3fb4d8cd1340fbeb4d958022032c37d727a9dd16c46e6d9ddbbce2125618e97e965a6714aa2f3e2e3c2ed828b01", 
            "304502210087cc3e2d923a8d46debdf6ccd2749bb03620bd20a2fee56b4696a613dbcd2a1b0220795aaefefda50ddb50eafc98969285cc8cf0182772783f48d69816a199d2fb7901", 
            "522102611be09a0c6a571c8f68adb2481e938888756d93d4ee5b670f08c16e939b7f1a21022cc7a96a72ef014bf078a6489644e2edb05bb216d30b4f28363b637fe4463fd652ae"
          ],
          "sequence": 4294967295
        }
      ],
      "vout": [
        {
          "value": 0.00604318,
          "n": 0,
          "scriptPubKey": {
            "asm": "OP_DUP OP_HASH160 9c191a4e9cbe0aa0bde68ea1d54efcc5d737f7c7 OP_EQUALVERIFY OP_CHECKSIG",
            "hex": "76a9149c191a4e9cbe0aa0bde68ea1d54efcc5d737f7c788ac",
            "reqSigs": 1,
            "type": "pubkeyhash",
            "addresses": [
              "LZTKkJssQF2cHxCMQr3cM2WkbygCNsSV9t"
            ]
          }
        }, 
        {
          "value": 19.83536907,
          "n": 1,
          "scriptPubKey": {
            "asm": "OP_HASH160 486ce63d83e8406016f310cd321d36bbdd10d412 OP_EQUAL",
            "hex": "a914486ce63d83e8406016f310cd321d36bbdd10d41287",
            "reqSigs": 1,
            "type": "scripthash",
            "addresses": [
              "MEW7Lhk6QzBLmCNp5pmpYzwv1KAcKYsSQp"
            ]
          }
        }
      ],
      "hex": "0100000000010187189e59d0fdea29d61be55c46a372007feae4c7d9a3d2704bec4512ff3c952601000000232200207975c3f0d1bf8b6205e1c664d703c93d68409676bf17c5e78cdece78bdbf3dbfffffffff029e380900000000001976a9149c191a4e9cbe0aa0bde68ea1d54efcc5d737f7c788ac0b5f3a760000000017a914486ce63d83e8406016f310cd321d36bbdd10d412870400483045022100e3612e54ef00a864bcc7a49ea4b6b7bfcc27cec371a3fb4d8cd1340fbeb4d958022032c37d727a9dd16c46e6d9ddbbce2125618e97e965a6714aa2f3e2e3c2ed828b0148304502210087cc3e2d923a8d46debdf6ccd2749bb03620bd20a2fee56b4696a613dbcd2a1b0220795aaefefda50ddb50eafc98969285cc8cf0182772783f48d69816a199d2fb790147522102611be09a0c6a571c8f68adb2481e938888756d93d4ee5b670f08c16e939b7f1a21022cc7a96a72ef014bf078a6489644e2edb05bb216d30b4f28363b637fe4463fd652ae00000000"
    }, 
    {
      "txid": "4c015af071b10e433c1857b971fc338381ddc7c6520f83cc7fc5b2a1c8351812",
      "hash": "4c015af071b10e433c1857b971fc338381ddc7c6520f83cc7fc5b2a1c8351812",
      "version": 1,
      "size": 225,
      "vsize": 225,
      "locktime": 0,
      "vin": [
        {
          "txid": "f1ca7254056aebb4f5d39a4c0bb186aaedb57ab0558e796a65cdbc452b04d5fa",
          "vout": 1,
          "scriptSig": {
            "asm": "3044022078cfd185e24eb92e515867fce3a195c00069b86a8172f311d1e096209d2c400e0220167465a9f7258ee87baf589bbc906f02b956d86e07122e6089b4851b57fe656c[ALL] 0386d416b46041ed1833690f4b8cefca5411b5ec336d178b0722e1ed243f54e06b",
            "hex": "473044022078cfd185e24eb92e515867fce3a195c00069b86a8172f311d1e096209d2c400e0220167465a9f7258ee87baf589bbc906f02b956d86e07122e6089b4851b57fe656c01210386d416b46041ed1833690f4b8cefca5411b5ec336d178b0722e1ed243f54e06b"
          },
          "sequence": 4294967295
        }
      ],
      "vout": [
        {
          "value": 0.38758000,
          "n": 0,
          "scriptPubKey": {
            "asm": "OP_DUP OP_HASH160 63327ebea314aff0bb245dccedb67002a7cc346f OP_EQUALVERIFY OP_CHECKSIG",
            "hex": "76a91463327ebea314aff0bb245dccedb67002a7cc346f88ac",
            "reqSigs": 1,
            "type": "pubkeyhash",
            "addresses": [
              "LUGTefXQs5dWRj1x3SFpt3v1zTecSZuqAQ"
            ]
          }
        }, 
        {
          "value": 0.02342521,
          "n": 1,
          "scriptPubKey": {
            "asm": "OP_DUP OP_HASH160 6966bc43d21b13c3adb65573d81eaff05c792a74 OP_EQUALVERIFY OP_CHECKSIG",
            "hex": "76a9146966bc43d21b13c3adb65573d81eaff05c792a7488ac",
            "reqSigs": 1,
            "type": "pubkeyhash",
            "addresses": [
              "LUqGHY5TfgKYUTd8j8jhmJNPiXzyzkajCM"
            ]
          }
        }
      ],
      "hex": "0100000001fad5042b45bccd656a798e55b07ab5edaa86b10b4c9ad3f5b4eb6a055472caf1010000006a473044022078cfd185e24eb92e515867fce3a195c00069b86a8172f311d1e096209d2c400e0220167465a9f7258ee87baf589bbc906f02b956d86e07122e6089b4851b57fe656c01210386d416b46041ed1833690f4b8cefca5411b5ec336d178b0722e1ed243f54e06bffffffff0270664f02000000001976a91463327ebea314aff0bb245dccedb67002a7cc346f88ac79be2300000000001976a9146966bc43d21b13c3adb65573d81eaff05c792a7488ac00000000"
    }, 
    {
      "txid": "095c1b176117691df7b1d35ea2b892a119f2a71af01c4decb1cf3ee3c1b6b351",
      "hash": "095c1b176117691df7b1d35ea2b892a119f2a71af01c4decb1cf3ee3c1b6b351",
      "version": 1,
      "size": 225,
      "vsize": 225,
      "locktime": 0,
      "vin": [
        {
          "txid": "aa63fe6257406e127b9989b40680bb91f32a17c9e93d9f785c55b4d406ad33da",
          "vout": 0,
          "scriptSig": {
            "asm": "304402201ce070d100df158793774573c802bbc194de38a4c526a516d3335e7e26940f83022072e87fde4b8724f46ff13eb462b5986f14933507feb7eec3acd92da3bcd504f8[ALL] 0312bd65a3d037bf70aad5eeb27a7f8d0bad7c79a083e04359d394384f602e7694",
            "hex": "47304402201ce070d100df158793774573c802bbc194de38a4c526a516d3335e7e26940f83022072e87fde4b8724f46ff13eb462b5986f14933507feb7eec3acd92da3bcd504f801210312bd65a3d037bf70aad5eeb27a7f8d0bad7c79a083e04359d394384f602e7694"
          },
          "sequence": 4294967295
        }
      ],
      "vout": [
        {
          "value": 6.36425910,
          "n": 0,
          "scriptPubKey": {
            "asm": "OP_DUP OP_HASH160 58855e0a445b996e195745ce9df65726b55505b0 OP_EQUALVERIFY OP_CHECKSIG",
            "hex": "76a91458855e0a445b996e195745ce9df65726b55505b088ac",
            "reqSigs": 1,
            "type": "pubkeyhash",
            "addresses": [
              "LTJ1Vcte6TLNcvg6Uwq1QjhUhF55neZm4q"
            ]
          }
        }, 
        {
          "value": 2.64551490,
          "n": 1,
          "scriptPubKey": {
            "asm": "OP_DUP OP_HASH160 4580eca6aba42aead34362c2bfba96bf2fe8a987 OP_EQUALVERIFY OP_CHECKSIG",
            "hex": "76a9144580eca6aba42aead34362c2bfba96bf2fe8a98788ac",
            "reqSigs": 1,
            "type": "pubkeyhash",
            "addresses": [
              "LRZTLGu7dqExBBYAuUfjD3JraFs4yhCXWP"
            ]
          }
        }
      ],
      "hex": "0100000001da33ad06d4b4555c789f3de9c9172af391bb8006b489997b126e405762fe63aa000000006a47304402201ce070d100df158793774573c802bbc194de38a4c526a516d3335e7e26940f83022072e87fde4b8724f46ff13eb462b5986f14933507feb7eec3acd92da3bcd504f801210312bd65a3d037bf70aad5eeb27a7f8d0bad7c79a083e04359d394384f602e7694ffffffff02b616ef25000000001976a91458855e0a445b996e195745ce9df65726b55505b088ac42bcc40f000000001976a9144580eca6aba42aead34362c2bfba96bf2fe8a98788ac00000000"
    }, 
    {
      "txid": "eff0b95a579dcd9057b2786fb2d465f9d2cc6bf8151012ba8e64775433e827a4",
      "hash": "eff0b95a579dcd9057b2786fb2d465f9d2cc6bf8151012ba8e64775433e827a4",
      "version": 1,
      "size": 225,
      "vsize": 225,
      "locktime": 0,
      "vin": [
        {
          "txid": "93470dd991a65f76a8702ee73390f9bbff74d5187dcb73800e13d76e7196d094",
          "vout": 1,
          "scriptSig": {
            "asm": "304402201239a15507f5f296a6df8bb2adfb9662f74b02fff9d4ab3e4362809b8981a60e02207edbe10fe3b7c7509ba0c45de7feedb189ef566cfebb37521b1df6fbfdb6f66d[ALL] 034b9f3b82e205341baa1eb371148f0b070580d74da6d5460a548c614cd764cda5",
            "hex": "47304402201239a15507f5f296a6df8bb2adfb9662f74b02fff9d4ab3e4362809b8981a60e02207edbe10fe3b7c7509ba0c45de7feedb189ef566cfebb37521b1df6fbfdb6f66d0121034b9f3b82e205341baa1eb371148f0b070580d74da6d5460a548c614cd764cda5"
          },
          "sequence": 4294967295
        }
      ],
      "vout": [
        {
          "value": 1.00000000,
          "n": 0,
          "scriptPubKey": {
            "asm": "OP_DUP OP_HASH160 b87a879e3cf475a5827c41621cdfb61b0b2e42bf OP_EQUALVERIFY OP_CHECKSIG",
            "hex": "76a914b87a879e3cf475a5827c41621cdfb61b0b2e42bf88ac",
            "reqSigs": 1,
            "type": "pubkeyhash",
            "addresses": [
              "Lc3PP2VxiybTPXEV4Gfgc4SVQY7ZueHwMT"
            ]
          }
        }, 
        {
          "value": 0.82108840,
          "n": 1,
          "scriptPubKey": {
            "asm": "OP_DUP OP_HASH160 6c753e083ff3cba640cfac72bf0a6b509219ded8 OP_EQUALVERIFY OP_CHECKSIG",
            "hex": "76a9146c753e083ff3cba640cfac72bf0a6b509219ded888ac",
            "reqSigs": 1,
            "type": "pubkeyhash",
            "addresses": [
              "LV7Rh4yrxCmtpvd2Wg6sTnWM66Ys7EHc1S"
            ]
          }
        }
      ],
      "hex": "010000000194d096716ed7130e8073cb7d18d574ffbbf99033e72e70a8765fa691d90d4793010000006a47304402201239a15507f5f296a6df8bb2adfb9662f74b02fff9d4ab3e4362809b8981a60e02207edbe10fe3b7c7509ba0c45de7feedb189ef566cfebb37521b1df6fbfdb6f66d0121034b9f3b82e205341baa1eb371148f0b070580d74da6d5460a548c614cd764cda5ffffffff0200e1f505000000001976a914b87a879e3cf475a5827c41621cdfb61b0b2e42bf88aca8e1e404000000001976a9146c753e083ff3cba640cfac72bf0a6b509219ded888ac00000000"
    }, 
    {
      "txid": "b1b615d412ac8a826b11194414b370348bf0f530602d4f5d58a3df055eb1d881",
      "hash": "b1b615d412ac8a826b11194414b370348bf0f530602d4f5d58a3df055eb1d881",
      "version": 1,
      "size": 520,
      "vsize": 520,
      "locktime": 1360316,
      "vin": [
        {
          "txid": "95417f9469895abc38f58d1c61f60e1e06032ab8a26dc0166d82e33d16f095d9",
          "vout": 0,
          "scriptSig": {
            "asm": "3045022100d4075384047501e548a9c596dd4abcd7f134397b1c793ff49dafd95d25d333a602205f5bb46272a3495cf9e1d85ea7968724ab649b0fd070a58058617f8a8820e4e6[ALL] 026e57a12e8d0dcb4fc6339d03eec8b097a5fed2f214bfaceb9555bcfeb0556cfd",
            "hex": "483045022100d4075384047501e548a9c596dd4abcd7f134397b1c793ff49dafd95d25d333a602205f5bb46272a3495cf9e1d85ea7968724ab649b0fd070a58058617f8a8820e4e60121026e57a12e8d0dcb4fc6339d03eec8b097a5fed2f214bfaceb9555bcfeb0556cfd"
          },
          "sequence": 4294967294
        }, 
        {
          "txid": "2406b0ae8bc1a108ea36072f58e4fa8f3f75c8e0c2148870417429311f994c6d",
          "vout": 1,
          "scriptSig": {
            "asm": "304402206e760f4b7c07004d3ecfcb71de0eafe7cb7cf23cbdec99d66ea7f525cd9cc8b702200a201894ed90c7dcb2976aa612e03c5b7905ba84f57a3afa465d462fec5a0854[ALL] 02a3dd9398b5f992515f33f371848b114ef20d5436ec039513e7f2442a4565b67c",
            "hex": "47304402206e760f4b7c07004d3ecfcb71de0eafe7cb7cf23cbdec99d66ea7f525cd9cc8b702200a201894ed90c7dcb2976aa612e03c5b7905ba84f57a3afa465d462fec5a0854012102a3dd9398b5f992515f33f371848b114ef20d5436ec039513e7f2442a4565b67c"
          },
          "sequence": 4294967294
        }, 
        {
          "txid": "202719302299862d791e7831dc95e112e638e71aab76b34eef337d0b33a1b73d",
          "vout": 1,
          "scriptSig": {
            "asm": "304402203bfff897bb55c37ba4f415e392ce16cee8a85faa34114b9b77657a104b64235802201ba20f70eb66ec8f7675aaf86e60e33efe236bd4822a973f1c5e6bc4c05cbf73[ALL] 02a5d9cec8e97c642f4f93589ff657db8ab9b6fab2baf9378b483614e5e69bfeda",
            "hex": "47304402203bfff897bb55c37ba4f415e392ce16cee8a85faa34114b9b77657a104b64235802201ba20f70eb66ec8f7675aaf86e60e33efe236bd4822a973f1c5e6bc4c05cbf73012102a5d9cec8e97c642f4f93589ff657db8ab9b6fab2baf9378b483614e5e69bfeda"
          },
          "sequence": 4294967294
        }
      ],
      "vout": [
        {
          "value": 0.03862551,
          "n": 0,
          "scriptPubKey": {
            "asm": "OP_DUP OP_HASH160 bef2a5a01ba0edd00965c6b6cf7ccd0cc042663b OP_EQUALVERIFY OP_CHECKSIG",
            "hex": "76a914bef2a5a01ba0edd00965c6b6cf7ccd0cc042663b88ac",
            "reqSigs": 1,
            "type": "pubkeyhash",
            "addresses": [
              "LcdbL4uTAsHH4iowL3SV8sikpV9nmy4XLJ"
            ]
          }
        }, 
        {
          "value": 0.01455102,
          "n": 1,
          "scriptPubKey": {
            "asm": "OP_DUP OP_HASH160 70657d8785b8c520436403cb4e255842e50ef1ce OP_EQUALVERIFY OP_CHECKSIG",
            "hex": "76a91470657d8785b8c520436403cb4e255842e50ef1ce88ac",
            "reqSigs": 1,
            "type": "pubkeyhash",
            "addresses": [
              "LVUFXNUeSqATxJB2zMgzEjTBtXV4ZgsZwh"
            ]
          }
        }
      ],
      "hex": "0100000003d995f0163de3826d16c06da2b82a03061e0ef6611c8df538bc5a8969947f4195000000006b483045022100d4075384047501e548a9c596dd4abcd7f134397b1c793ff49dafd95d25d333a602205f5bb46272a3495cf9e1d85ea7968724ab649b0fd070a58058617f8a8820e4e60121026e57a12e8d0dcb4fc6339d03eec8b097a5fed2f214bfaceb9555bcfeb0556cfdfeffffff6d4c991f31297441708814c2e0c8753f8ffae4582f0736ea08a1c18baeb00624010000006a47304402206e760f4b7c07004d3ecfcb71de0eafe7cb7cf23cbdec99d66ea7f525cd9cc8b702200a201894ed90c7dcb2976aa612e03c5b7905ba84f57a3afa465d462fec5a0854012102a3dd9398b5f992515f33f371848b114ef20d5436ec039513e7f2442a4565b67cfeffffff3db7a1330b7d33ef4eb376ab1ae738e612e195dc31781e792d86992230192720010000006a47304402203bfff897bb55c37ba4f415e392ce16cee8a85faa34114b9b77657a104b64235802201ba20f70eb66ec8f7675aaf86e60e33efe236bd4822a973f1c5e6bc4c05cbf73012102a5d9cec8e97c642f4f93589ff657db8ab9b6fab2baf9378b483614e5e69bfedafeffffff0217f03a00000000001976a914bef2a5a01ba0edd00965c6b6cf7ccd0cc042663b88acfe331600000000001976a91470657d8785b8c520436403cb4e255842e50ef1ce88acbcc11400"
    }, 
    {
      "txid": "538a8d5b0df4eec3e40a0467f88fd8d636a8f8cdaa5478f06a0f42f51e2e8c08",
      "hash": "538a8d5b0df4eec3e40a0467f88fd8d636a8f8cdaa5478f06a0f42f51e2e8c08",
      "version": 2,
      "size": 226,
      "vsize": 226,
      "locktime": 1360316,
      "vin": [
        {
          "txid": "4c6755fc6afdb91145bb215006d7d5bebcd5ebf22db604639dcf4900f7254b17",
          "vout": 0,
          "scriptSig": {
            "asm": "3045022100cfb81395c006e378558fe1b8061ed2705f7bd0f103cf04146727352559491ab902200692ab578716a6578e320ff715bec1a4dc2850e8aa3fcf02297c1a29c57561e4[ALL] 02911413065fc913efbbf5f3090d92d713a9891b63b7e21fb8340c2ba604f30866",
            "hex": "483045022100cfb81395c006e378558fe1b8061ed2705f7bd0f103cf04146727352559491ab902200692ab578716a6578e320ff715bec1a4dc2850e8aa3fcf02297c1a29c57561e4012102911413065fc913efbbf5f3090d92d713a9891b63b7e21fb8340c2ba604f30866"
          },
          "sequence": 4294967294
        }
      ],
      "vout": [
        {
          "value": 1.32000567,
          "n": 0,
          "scriptPubKey": {
            "asm": "OP_DUP OP_HASH160 b376a2103ac9a228af07847016be8ed3f7d38f36 OP_EQUALVERIFY OP_CHECKSIG",
            "hex": "76a914b376a2103ac9a228af07847016be8ed3f7d38f3688ac",
            "reqSigs": 1,
            "type": "pubkeyhash",
            "addresses": [
              "LbasLKXM7zANXcxUVpbNicK6Axj6XFLNcC"
            ]
          }
        }, 
        {
          "value": 0.72013080,
          "n": 1,
          "scriptPubKey": {
            "asm": "OP_DUP OP_HASH160 bf3ed11c6635702b053c820d4ed30bc2e1191515 OP_EQUALVERIFY OP_CHECKSIG",
            "hex": "76a914bf3ed11c6635702b053c820d4ed30bc2e119151588ac",
            "reqSigs": 1,
            "type": "pubkeyhash",
            "addresses": [
              "LcfAaSf2P5PFTVr9RoCNHcu8uFGtEReW48"
            ]
          }
        }
      ],
      "hex": "0200000001174b25f70049cf9d6304b62df2ebd5bcbed5d7065021bb4511b9fd6afc55674c000000006b483045022100cfb81395c006e378558fe1b8061ed2705f7bd0f103cf04146727352559491ab902200692ab578716a6578e320ff715bec1a4dc2850e8aa3fcf02297c1a29c57561e4012102911413065fc913efbbf5f3090d92d713a9891b63b7e21fb8340c2ba604f30866feffffff02372bde07000000001976a914b376a2103ac9a228af07847016be8ed3f7d38f3688ac18d54a04000000001976a914bf3ed11c6635702b053c820d4ed30bc2e119151588acbcc11400"
    }, 
    {
      "txid": "0cf50d8f9bb0acfd9bea72df9bd8cd520efac3bc6f50f313f48bad30b8bd1329",
      "hash": "0cf50d8f9bb0acfd9bea72df9bd8cd520efac3bc6f50f313f48bad30b8bd1329",
      "version": 1,
      "size": 226,
      "vsize": 226,
      "locktime": 0,
      "vin": [
        {
          "txid": "b7d159bc8510a4b850e8b886400231b5b3dd1d74a947da7d85a8aa6f6b8a48d5",
          "vout": 1,
          "scriptSig": {
            "asm": "3045022100890105d62006d0118906f230cb644f83523519836113830bafcc94f96d00709702203c1caccbca72dc3efa96c174d63993381898f0541bad4d0ec43b53f07402ffa0[ALL] 0289a3facbb294588289c8c057b8d24bb584b742bae3a4c7c1d47770ec6bbdf24d",
            "hex": "483045022100890105d62006d0118906f230cb644f83523519836113830bafcc94f96d00709702203c1caccbca72dc3efa96c174d63993381898f0541bad4d0ec43b53f07402ffa001210289a3facbb294588289c8c057b8d24bb584b742bae3a4c7c1d47770ec6bbdf24d"
          },
          "sequence": 4294967295
        }
      ],
      "vout": [
        {
          "value": 0.31241000,
          "n": 0,
          "scriptPubKey": {
            "asm": "OP_DUP OP_HASH160 7598f59ce39ac9dc7e3f717233bd173f2b9bcfae OP_EQUALVERIFY OP_CHECKSIG",
            "hex": "76a9147598f59ce39ac9dc7e3f717233bd173f2b9bcfae88ac",
            "reqSigs": 1,
            "type": "pubkeyhash",
            "addresses": [
              "LVwkZTtLMVkjuzdcYS3dR7h9ginCnVggMn"
            ]
          }
        }, 
        {
          "value": 0.00953902,
          "n": 1,
          "scriptPubKey": {
            "asm": "OP_DUP OP_HASH160 e2901f15a307caca13fb1468effec8c6ce580631 OP_EQUALVERIFY OP_CHECKSIG",
            "hex": "76a914e2901f15a307caca13fb1468effec8c6ce58063188ac",
            "reqSigs": 1,
            "type": "pubkeyhash",
            "addresses": [
              "LfsudJHKu3RVFG8siib1eCtYmyFXQWkyNH"
            ]
          }
        }
      ],
      "hex": "0100000001d5488a6b6faaa8857dda47a9741dddb3b531024086b8e850b8a41085bc59d1b7010000006b483045022100890105d62006d0118906f230cb644f83523519836113830bafcc94f96d00709702203c1caccbca72dc3efa96c174d63993381898f0541bad4d0ec43b53f07402ffa001210289a3facbb294588289c8c057b8d24bb584b742bae3a4c7c1d47770ec6bbdf24dffffffff0228b3dc01000000001976a9147598f59ce39ac9dc7e3f717233bd173f2b9bcfae88ac2e8e0e00000000001976a914e2901f15a307caca13fb1468effec8c6ce58063188ac00000000"
    }, 
    {
      "txid": "99217afea9a5859ef4280afd934004f14ef5fe87e802c7c44a4c721143cc637d",
      "hash": "99217afea9a5859ef4280afd934004f14ef5fe87e802c7c44a4c721143cc637d",
      "version": 2,
      "size": 226,
      "vsize": 226,
      "locktime": 1360316,
      "vin": [
        {
          "txid": "6ea7efd93f463fbbd8a616a795596faa1739d2634c659482b93146d2c6906319",
          "vout": 1,
          "scriptSig": {
            "asm": "3045022100f4faa00c05daa08fc2ae0ba9b3cbbf393cfcb8723dc6b1775153a4d1e66645560220059b3a7111abb0ac5a996ed97c71130aee6d18e2ace13996c693a00941523590[ALL] 02faa3dd4769756ae8207d42aaa9832858f1c58baf038cf48581948dd028efe34c",
            "hex": "483045022100f4faa00c05daa08fc2ae0ba9b3cbbf393cfcb8723dc6b1775153a4d1e66645560220059b3a7111abb0ac5a996ed97c71130aee6d18e2ace13996c693a00941523590012102faa3dd4769756ae8207d42aaa9832858f1c58baf038cf48581948dd028efe34c"
          },
          "sequence": 4294967294
        }
      ],
      "vout": [
        {
          "value": 7.95879857,
          "n": 0,
          "scriptPubKey": {
            "asm": "OP_DUP OP_HASH160 ee570d231b1c09a35a8760f94772285e493153cb OP_EQUALVERIFY OP_CHECKSIG",
            "hex": "76a914ee570d231b1c09a35a8760f94772285e493153cb88ac",
            "reqSigs": 1,
            "type": "pubkeyhash",
            "addresses": [
              "LgxBNJN68kGuL9P4CHVRBCQJfZsxiWvP9Z"
            ]
          }
        }, 
        {
          "value": 1.06709307,
          "n": 1,
          "scriptPubKey": {
            "asm": "OP_DUP OP_HASH160 0a672c91124061c2f2f559df67121d1432441f7e OP_EQUALVERIFY OP_CHECKSIG",
            "hex": "76a9140a672c91124061c2f2f559df67121d1432441f7e88ac",
            "reqSigs": 1,
            "type": "pubkeyhash",
            "addresses": [
              "LLAxcnvnw5C699REKdzAVeCvjAwaN6Gjqp"
            ]
          }
        }
      ],
      "hex": "0200000001196390c6d24631b98294654c63d23917aa6f5995a716a6d8bb3f463fd9efa76e010000006b483045022100f4faa00c05daa08fc2ae0ba9b3cbbf393cfcb8723dc6b1775153a4d1e66645560220059b3a7111abb0ac5a996ed97c71130aee6d18e2ace13996c693a00941523590012102faa3dd4769756ae8207d42aaa9832858f1c58baf038cf48581948dd028efe34cfeffffff02b129702f000000001976a914ee570d231b1c09a35a8760f94772285e493153cb88ac3b415c06000000001976a9140a672c91124061c2f2f559df67121d1432441f7e88acbcc11400"
    }, 
    {
      "txid": "f795fa8eac9e812a0dceb4cb584268a617bf603c01b121ed997d657a753bf8df",
      "hash": "f795fa8eac9e812a0dceb4cb584268a617bf603c01b121ed997d657a753bf8df",
      "version": 1,
      "size": 226,
      "vsize": 226,
      "locktime": 0,
      "vin": [
        {
          "txid": "6808dab6a8d5a31b9bd4d7ff79c646135dbd3a93a949a8a0b101227e3b7d5662",
          "vout": 0,
          "scriptSig": {
            "asm": "3045022100e03846da97fc713f8df4ffd78d2c81f2ce47be60425c35851ef47c52199003d502202f2bd6ccd925fcd655abbe8db31b4996cba2c1832be68d25431fcb45c39ac03c[ALL] 039ee00e6be82f00d8eb6377328e13648eb0c9cad75f43e9be748c1e677ba6cdfe",
            "hex": "483045022100e03846da97fc713f8df4ffd78d2c81f2ce47be60425c35851ef47c52199003d502202f2bd6ccd925fcd655abbe8db31b4996cba2c1832be68d25431fcb45c39ac03c0121039ee00e6be82f00d8eb6377328e13648eb0c9cad75f43e9be748c1e677ba6cdfe"
          },
          "sequence": 4294967295
        }
      ],
      "vout": [
        {
          "value": 3.02646374,
          "n": 0,
          "scriptPubKey": {
            "asm": "OP_DUP OP_HASH160 2ad523439f0c66444ed23e2d506f6069ed95010e OP_EQUALVERIFY OP_CHECKSIG",
            "hex": "76a9142ad523439f0c66444ed23e2d506f6069ed95010e88ac",
            "reqSigs": 1,
            "type": "pubkeyhash",
            "addresses": [
              "LP8RyLhRqE8TsmtxCg1TbnD5z46ruSJ5u2"
            ]
          }
        }, 
        {
          "value": 5.00000000,
          "n": 1,
          "scriptPubKey": {
            "asm": "OP_DUP OP_HASH160 097fb477b66f111b6bc03e683abb3a6d1b73ddd4 OP_EQUALVERIFY OP_CHECKSIG",
            "hex": "76a914097fb477b66f111b6bc03e683abb3a6d1b73ddd488ac",
            "reqSigs": 1,
            "type": "pubkeyhash",
            "addresses": [
              "LL6BL2zH7k75r7wvXhyQ9YNikCNmc7F2ET"
            ]
          }
        }
      ],
      "hex": "010000000162567d3b7e2201b1a0a849a9933abd5d1346c679ffd7d49b1ba3d5a8b6da0868000000006b483045022100e03846da97fc713f8df4ffd78d2c81f2ce47be60425c35851ef47c52199003d502202f2bd6ccd925fcd655abbe8db31b4996cba2c1832be68d25431fcb45c39ac03c0121039ee00e6be82f00d8eb6377328e13648eb0c9cad75f43e9be748c1e677ba6cdfeffffffff0266040a12000000001976a9142ad523439f0c66444ed23e2d506f6069ed95010e88ac0065cd1d000000001976a914097fb477b66f111b6bc03e683abb3a6d1b73ddd488ac00000000"
    }
  ],
  "time": 1517411299,
  "mediantime": 1517410701,
  "nonce": 3870330436,
  "bits": "1a042eae",
  "difficulty": 4011378.762614286,
  "chainwork": "000000000000000000000000000000000000000000000034d3aad6d3d7ae06fe",
  "previousblockhash": "d826e78e499cd568bbea611f5a514d543f199d7b5ab1ded1e9616f86383b214f",
  "nextblockhash": "687e9578eefa322c5b632dcc568401625a0e8b1d19ba802fcfcdf4a3bdc8aee1"
}
