{
  "hash": "4e7229480aba6e4f2fa5b64f22422cd4a7130b9caa79807b4ba208779350e5fe",
  "confirmations": 1958,
  "strippedsize": 255,
  "size": 255,
  "weight": 1020,
  "height": 1359036,
  "version": 536870912,
  "versionHex": "20000000",
  "merkleroot": "3aa45571f653670b006fe8a207e5ef04f8916c9d3cc56bb600f9f71da0a0561f",
  "tx": [
    {
      "txid": "3aa45571f653670b006fe8a207e5ef04f8916c9d3cc56bb600f9f71da0a0561f",
      "hash": "3aa45571f653670b006fe8a207e5ef04f8916c9d3cc56bb600f9f71da0a0561f",
      "version": 1,
      "size": 174,
      "vsize": 174,
      "locktime": 0,
      "vin": [
        {
          "coinbase": "03bcbc141c4d696e656420627920416e74506f6f6c20626a3532205a6f0ec61001fabe6d6d4784223fd525f178a01a45da9b752e26913acb87428f7a4689fd5a2aab65e96604000000000000004a1b0000000000001f000000",
          "sequence": 4294967295
        }
      ],
      "vout": [
        {
          "value": 25.00000000,
          "n": 0,
          "scriptPubKey": {
            "asm": "OP_DUP OP_HASH160 0ff3ccc5e8be88afe24b5d634e5852d474dbdff1 OP_EQUALVERIFY OP_CHECKSIG",
            "hex": "76a9140ff3ccc5e8be88afe24b5d634e5852d474dbdff188ac",
            "reqSigs": 1,
            "type": "pubkeyhash",
            "addresses": [
              "LLgJTbzZMsRTCUF1NtvvL9SR1a4pVieW89"
            ]
          }
        }
      ],
      "hex": "01000000010000000000000000000000000000000000000000000000000000000000000000ffffffff5903bcbc141c4d696e656420627920416e74506f6f6c20626a3532205a6f0ec61001fabe6d6d4784223fd525f178a01a45da9b752e26913acb87428f7a4689fd5a2aab65e96604000000000000004a1b0000000000001f000000ffffffff0100f90295000000001976a9140ff3ccc5e8be88afe24b5d634e5852d474dbdff188ac00000000"
    }
  ],
  "time": 1517227718,
  "mediantime": 1517227046,
  "nonce": 1543183872,
  "bits": "1a042eae",
  "difficulty": 4011378.762614286,
  "chainwork": "000000000000000000000000000000000000000000000033a123fb97508929fa",
  "previousblockhash": "9dcecf287f811bbe6a57badf15be011511fb2c1d0b7e6dfb0eeed6c2958923fc",
  "nextblockhash": "f347cd2d1b38198a1e942246dae10f4aa23d9f64bc2ffdf8260ff5382c1cd5be"
}
