{
  "hash": "4ea2399c50e51cc741085f10696c4c8953cde66178ae8a0a42436b1507bd9d2f",
  "confirmations": 3245,
  "strippedsize": 4304,
  "size": 4560,
  "weight": 17472,
  "height": 1357750,
  "version": 536870912,
  "versionHex": "20000000",
  "merkleroot": "eba0c43b57cb100007c4ddfadb0c019bb189bee9d5c919ed88e002d4d968ccca",
  "tx": [
    {
      "txid": "2111e99a26c75b863b92be6cf3a0e1bc2d7dab806d82d6800e0a47c339946c54",
      "hash": "99dd9479b44c577da72e7cbabfe2fc8769257fc31a444a994a63538d78633683",
      "version": 1,
      "size": 253,
      "vsize": 226,
      "locktime": 0,
      "vin": [
        {
          "coinbase": "03b6b71441d69b0f9a23467041d69b0f9969fb362f4c54432e544f502ffabe6d6dc512aed4bd4ce86d68824b4cc1b7de0279aac2b7c41da2ba1d164a4fc7a7bb6f0100000000000000612780a31800000000000000",
          "sequence": 4294967295
        }
      ],
      "vout": [
        {
          "value": 25.00995142,
          "n": 0,
          "scriptPubKey": {
            "asm": "OP_DUP OP_HASH160 0c617fdb2ea42aed30a509595ee21ba3f6688db0 OP_EQUALVERIFY OP_CHECKSIG",
            "hex": "76a9140c617fdb2ea42aed30a509595ee21ba3f6688db088ac",
            "reqSigs": 1,
            "type": "pubkeyhash",
            "addresses": [
              "LLMRAtr3qBje2ySEa3CnZ55LA4TQMWnRY3"
            ]
          }
        }, 
        {
          "value": 0.00000000,
          "n": 1,
          "scriptPubKey": {
            "asm": "OP_RETURN aa21a9eddf8dfa66664758229c2a78d034ce3dd9570b37bfc2f516ac362862fafc5f0012",
            "hex": "6a24aa21a9eddf8dfa66664758229c2a78d034ce3dd9570b37bfc2f516ac362862fafc5f0012",
            "type": "nulldata"
          }
        }
      ],
      "hex": "010000000001010000000000000000000000000000000000000000000000000000000000000000ffffffff5503b6b71441d69b0f9a23467041d69b0f9969fb362f4c54432e544f502ffabe6d6dc512aed4bd4ce86d68824b4cc1b7de0279aac2b7c41da2ba1d164a4fc7a7bb6f0100000000000000612780a31800000000000000ffffffff0246281295000000001976a9140c617fdb2ea42aed30a509595ee21ba3f6688db088ac0000000000000000266a24aa21a9eddf8dfa66664758229c2a78d034ce3dd9570b37bfc2f516ac362862fafc5f00120120000000000000000000000000000000000000000000000000000000000000000000000000"
    }, 
    {
      "txid": "61f55df91d19a133ebe64b5b069f1b69e11406879575b7f389d53e426980bac5",
      "hash": "61f55df91d19a133ebe64b5b069f1b69e11406879575b7f389d53e426980bac5",
      "version": 1,
      "size": 226,
      "vsize": 226,
      "locktime": 0,
      "vin": [
        {
          "txid": "958841accf39416c04d3f2d7270b15824224df4ae39542f8782c83e4f989c04b",
          "vout": 1,
          "scriptSig": {
            "asm": "3045022100ffcf4d7f1166bf6300ff856e05805303a86eba883f2a7c64e06062ea8b9ef17f022071d5086b6da87ce00c57c86094f1827f8b10d04bb6b289f56aad171bb488a41e[ALL] 03045557468cb480ae3fdf7b18f7869def61be4e141fdfcba7f53ba667d2007c9a",
            "hex": "483045022100ffcf4d7f1166bf6300ff856e05805303a86eba883f2a7c64e06062ea8b9ef17f022071d5086b6da87ce00c57c86094f1827f8b10d04bb6b289f56aad171bb488a41e012103045557468cb480ae3fdf7b18f7869def61be4e141fdfcba7f53ba667d2007c9a"
          },
          "sequence": 4294967295
        }
      ],
      "vout": [
        {
          "value": 0.16092789,
          "n": 0,
          "scriptPubKey": {
            "asm": "OP_DUP OP_HASH160 b126a349272fd5288e1e9e0aec37415c58a67b9a OP_EQUALVERIFY OP_CHECKSIG",
            "hex": "76a914b126a349272fd5288e1e9e0aec37415c58a67b9a88ac",
            "reqSigs": 1,
            "type": "pubkeyhash",
            "addresses": [
              "LbNe9mfLzmMh2XiUA3VGBuNAnGzVq9mA3r"
            ]
          }
        }, 
        {
          "value": 40.77871787,
          "n": 1,
          "scriptPubKey": {
            "asm": "OP_DUP OP_HASH160 8c184560f54552e065fe1a43a555ab79bb9fd40b OP_EQUALVERIFY OP_CHECKSIG",
            "hex": "76a9148c184560f54552e065fe1a43a555ab79bb9fd40b88ac",
            "reqSigs": 1,
            "type": "pubkeyhash",
            "addresses": [
              "LXzhwSyYhTxZt4piVs7KvYPAWKDdXvMTNo"
            ]
          }
        }
      ],
      "hex": "01000000014bc089f9e4832c78f84295e34adf244282150b27d7f2d3046c4139cfac418895010000006b483045022100ffcf4d7f1166bf6300ff856e05805303a86eba883f2a7c64e06062ea8b9ef17f022071d5086b6da87ce00c57c86094f1827f8b10d04bb6b289f56aad171bb488a41e012103045557468cb480ae3fdf7b18f7869def61be4e141fdfcba7f53ba667d2007c9affffffff02758ef500000000001976a914b126a349272fd5288e1e9e0aec37415c58a67b9a88acab620ff3000000001976a9148c184560f54552e065fe1a43a555ab79bb9fd40b88ac00000000"
    }, 
    {
      "txid": "e227dd7ebbc32cf5eef595a2130830abd5378dcafdbe08509b193674d9fe6ec4",
      "hash": "e227dd7ebbc32cf5eef595a2130830abd5378dcafdbe08509b193674d9fe6ec4",
      "version": 1,
      "size": 224,
      "vsize": 224,
      "locktime": 0,
      "vin": [
        {
          "txid": "e6ef6a06f6e8c5302f63d62e9c286263382aa8c58fd25bc5d81112d7a6c2b77c",
          "vout": 1,
          "scriptSig": {
            "asm": "304502210090f13bea49c180214f6126b60c125ea7a9996f50f2f056c1b55dab82a64bcd070220486e3f7601bf003691a4e533a3f8d13fcc65909bde0c346d91ef0d181b03ffd9[ALL] 0327520c2fe98adcc824fa58c7e0a3f6e20061d0e20e06b50a738b4f8aa377939a",
            "hex": "48304502210090f13bea49c180214f6126b60c125ea7a9996f50f2f056c1b55dab82a64bcd070220486e3f7601bf003691a4e533a3f8d13fcc65909bde0c346d91ef0d181b03ffd901210327520c2fe98adcc824fa58c7e0a3f6e20061d0e20e06b50a738b4f8aa377939a"
          },
          "sequence": 4294967295
        }
      ],
      "vout": [
        {
          "value": 0.00900000,
          "n": 0,
          "scriptPubKey": {
            "asm": "OP_HASH160 f38b0d8dfc421557fe6ee2c11124e63223ae9fe7 OP_EQUAL",
            "hex": "a914f38b0d8dfc421557fe6ee2c11124e63223ae9fe787",
            "reqSigs": 1,
            "type": "scripthash",
            "addresses": [
              "MW6u1cWxVdawTh7qQDXuSWLXitWwhNT8ND"
            ]
          }
        }, 
        {
          "value": 166.79006849,
          "n": 1,
          "scriptPubKey": {
            "asm": "OP_DUP OP_HASH160 ed11b641d4f7737ea3b786b09fd6b62d6db4523a OP_EQUALVERIFY OP_CHECKSIG",
            "hex": "76a914ed11b641d4f7737ea3b786b09fd6b62d6db4523a88ac",
            "reqSigs": 1,
            "type": "pubkeyhash",
            "addresses": [
              "LgqTdKkd2Apv3hc6drjyHDPCHJeZPPbcYn"
            ]
          }
        }
      ],
      "hex": "01000000017cb7c2a6d71211d8c55bd28fc5a82a386362289c2ed6632f30c5e8f6066aefe6010000006b48304502210090f13bea49c180214f6126b60c125ea7a9996f50f2f056c1b55dab82a64bcd070220486e3f7601bf003691a4e533a3f8d13fcc65909bde0c346d91ef0d181b03ffd901210327520c2fe98adcc824fa58c7e0a3f6e20061d0e20e06b50a738b4f8aa377939affffffff02a0bb0d000000000017a914f38b0d8dfc421557fe6ee2c11124e63223ae9fe787817225e2030000001976a914ed11b641d4f7737ea3b786b09fd6b62d6db4523a88ac00000000"
    }, 
    {
      "txid": "a40f7a052108b820e669988d4f50c12fed0eeb5d08a0f9c1288098fbe653cd56",
      "hash": "6695b21e3e4384f3f3f14a1c40e7bb424dd74f0f1a7899868003a3c9d540929e",
      "version": 1,
      "size": 372,
      "vsize": 207,
      "locktime": 0,
      "vin": [
        {
          "txid": "209a1e8eafce685f73fa39b4cb506bda96969a914a3321eaf95e1174f187e417",
          "vout": 1,
          "scriptSig": {
            "asm": "002098d10782aa0f461bf4098596be1a500bb597c21711994fba706c609fa7cee6dd",
            "hex": "22002098d10782aa0f461bf4098596be1a500bb597c21711994fba706c609fa7cee6dd"
          },
          "txinwitness": [
            "", 
            "3044022056ab62151810e2f0e032f509eac71ba09492d5b109f10dd07f38c6d4bd8b04c10220798006fe847cdb09bf925ae58e79361433f645558ebd71f2f1bb34af5050230b01", 
            "304402202019ecded9cd40b1f1abbca76cc5470394915781cd20e467079cc05780d3684102201bf4e87b8f76c7b38049729cea96fa3b5b8feee3218728b805bbe292dddaeedd01", 
            "52210292d574fd0698b3f9b8502892542d2af156f574979b367a20dba4c495daff163d2102e013cb1418fc1b04ef3e1a6e7a98af08ae6ea726c505b54b058dc97e8d16d1b952ae"
          ],
          "sequence": 4294967295
        }
      ],
      "vout": [
        {
          "value": 0.16888300,
          "n": 0,
          "scriptPubKey": {
            "asm": "OP_DUP OP_HASH160 82a609ea7987ffd8f403571d27238b28ff8a0818 OP_EQUALVERIFY OP_CHECKSIG",
            "hex": "76a91482a609ea7987ffd8f403571d27238b28ff8a081888ac",
            "reqSigs": 1,
            "type": "pubkeyhash",
            "addresses": [
              "LX8m1iyLMPLty7F7ZogXoLBzRrrCtsfjar"
            ]
          }
        }, 
        {
          "value": 9.05542600,
          "n": 1,
          "scriptPubKey": {
            "asm": "OP_HASH160 1442c9aef7b8433845384b121927c2215b6269a7 OP_EQUAL",
            "hex": "a9141442c9aef7b8433845384b121927c2215b6269a787",
            "reqSigs": 1,
            "type": "scripthash",
            "addresses": [
              "M9kHkmQ6eUYMRVRfiQzSbHr76mEsJAytNr"
            ]
          }
        }
      ],
      "hex": "0100000000010117e487f174115ef9ea21334a919a9696da6b50cbb439fa735f68ceaf8e1e9a20010000002322002098d10782aa0f461bf4098596be1a500bb597c21711994fba706c609fa7cee6ddffffffff02ecb10101000000001976a91482a609ea7987ffd8f403571d27238b28ff8a081888acc87bf9350000000017a9141442c9aef7b8433845384b121927c2215b6269a7870400473044022056ab62151810e2f0e032f509eac71ba09492d5b109f10dd07f38c6d4bd8b04c10220798006fe847cdb09bf925ae58e79361433f645558ebd71f2f1bb34af5050230b0147304402202019ecded9cd40b1f1abbca76cc5470394915781cd20e467079cc05780d3684102201bf4e87b8f76c7b38049729cea96fa3b5b8feee3218728b805bbe292dddaeedd014752210292d574fd0698b3f9b8502892542d2af156f574979b367a20dba4c495daff163d2102e013cb1418fc1b04ef3e1a6e7a98af08ae6ea726c505b54b058dc97e8d16d1b952ae00000000"
    }, 
    {
      "txid": "f8502e721b12932ac4944f916f12690a4f243e7e8fe67f7f6c4814302d47e531",
      "hash": "f8502e721b12932ac4944f916f12690a4f243e7e8fe67f7f6c4814302d47e531",
      "version": 1,
      "size": 521,
      "vsize": 521,
      "locktime": 0,
      "vin": [
        {
          "txid": "9459b38dc69eaf9054f76bc4e17d5353923b4c237bac9bf7fef409888067650c",
          "vout": 0,
          "scriptSig": {
            "asm": "3044022073ca6797947664e541f62436f804a129eb9b76f93fb9c91021cb175e6f51ce870220767f950b2c3917a2e4932e7230733e9ed5ebd6852cbbaeb8692744ae0a6d0679[ALL] 0353a759daf7978569559bc273b9f4f7ae0c738bad287c41b508dc683e1688b75e",
            "hex": "473044022073ca6797947664e541f62436f804a129eb9b76f93fb9c91021cb175e6f51ce870220767f950b2c3917a2e4932e7230733e9ed5ebd6852cbbaeb8692744ae0a6d067901210353a759daf7978569559bc273b9f4f7ae0c738bad287c41b508dc683e1688b75e"
          },
          "sequence": 4294967295
        }, 
        {
          "txid": "1fca8faa37f409cff71d929bc660d21a408dc4fc53c505ec01235f66fd089eb0",
          "vout": 1,
          "scriptSig": {
            "asm": "3045022100b09be3425ca84ec543ce94bfc973974dbbb3f89aa24b25946fcb48d14e16aa5f0220274ee8d5b5ca9847b58be117bf77499608d2175c48d30aaafca26c908395c5c6[ALL] 0351dff1792f9be1c02534b103f94cde7b78389220f5f94d8eb02227f8d64bde0f",
            "hex": "483045022100b09be3425ca84ec543ce94bfc973974dbbb3f89aa24b25946fcb48d14e16aa5f0220274ee8d5b5ca9847b58be117bf77499608d2175c48d30aaafca26c908395c5c601210351dff1792f9be1c02534b103f94cde7b78389220f5f94d8eb02227f8d64bde0f"
          },
          "sequence": 4294967295
        }, 
        {
          "txid": "806be0b2ec91a8fef2799737f3f27ec6fa09589633ce07e88e7c0424658c1bbb",
          "vout": 1,
          "scriptSig": {
            "asm": "3045022100c8b6863ba8f762b97221aee1272527fcd9898ab62e7b653e5bf2521baff0982402203eda1af3dd47d0eac9a31102db089ef52e6aa309d07d31ad6bd87a521a70178d[ALL] 0328c9ae635abf580c261c44815dc1aac309e16ff26250525b7e99951369d2b8c7",
            "hex": "483045022100c8b6863ba8f762b97221aee1272527fcd9898ab62e7b653e5bf2521baff0982402203eda1af3dd47d0eac9a31102db089ef52e6aa309d07d31ad6bd87a521a70178d01210328c9ae635abf580c261c44815dc1aac309e16ff26250525b7e99951369d2b8c7"
          },
          "sequence": 4294967295
        }
      ],
      "vout": [
        {
          "value": 137.99900000,
          "n": 0,
          "scriptPubKey": {
            "asm": "OP_DUP OP_HASH160 a46065e4ac23cfb391e38858073e790da002446c OP_EQUALVERIFY OP_CHECKSIG",
            "hex": "76a914a46065e4ac23cfb391e38858073e790da002446c88ac",
            "reqSigs": 1,
            "type": "pubkeyhash",
            "addresses": [
              "LaD6ZXQejTjrWfBT29YE5WR9LPmQZL5KVC"
            ]
          }
        }, 
        {
          "value": 73.20288138,
          "n": 1,
          "scriptPubKey": {
            "asm": "OP_DUP OP_HASH160 c6e3836c2f4cd8f9c53e32813ded99ac0ce001f1 OP_EQUALVERIFY OP_CHECKSIG",
            "hex": "76a914c6e3836c2f4cd8f9c53e32813ded99ac0ce001f188ac",
            "reqSigs": 1,
            "type": "pubkeyhash",
            "addresses": [
              "LdMac6qdwFnBCVXN96dvoPjzbcE36gzs64"
            ]
          }
        }
      ],
      "hex": "01000000030c6567808809f4fef79bac7b234c3b9253537de1c46bf75490af9ec68db35994000000006a473044022073ca6797947664e541f62436f804a129eb9b76f93fb9c91021cb175e6f51ce870220767f950b2c3917a2e4932e7230733e9ed5ebd6852cbbaeb8692744ae0a6d067901210353a759daf7978569559bc273b9f4f7ae0c738bad287c41b508dc683e1688b75effffffffb09e08fd665f2301ec05c553fcc48d401ad260c69b921df7cf09f437aa8fca1f010000006b483045022100b09be3425ca84ec543ce94bfc973974dbbb3f89aa24b25946fcb48d14e16aa5f0220274ee8d5b5ca9847b58be117bf77499608d2175c48d30aaafca26c908395c5c601210351dff1792f9be1c02534b103f94cde7b78389220f5f94d8eb02227f8d64bde0fffffffffbb1b8c6524047c8ee807ce33965809fac67ef2f3379779f2fea891ecb2e06b80010000006b483045022100c8b6863ba8f762b97221aee1272527fcd9898ab62e7b653e5bf2521baff0982402203eda1af3dd47d0eac9a31102db089ef52e6aa309d07d31ad6bd87a521a70178d01210328c9ae635abf580c261c44815dc1aac309e16ff26250525b7e99951369d2b8c7ffffffff0260c38936030000001976a914a46065e4ac23cfb391e38858073e790da002446c88ac8abb52b4010000001976a914c6e3836c2f4cd8f9c53e32813ded99ac0ce001f188ac00000000"
    }, 
    {
      "txid": "e977c0456e49518e3e52bcda048623d37acf84ceda25c330cef4cea02306ff0c",
      "hash": "e977c0456e49518e3e52bcda048623d37acf84ceda25c330cef4cea02306ff0c",
      "version": 1,
      "size": 191,
      "vsize": 191,
      "locktime": 0,
      "vin": [
        {
          "txid": "278eff8d9fc00ab8b02b1e5e7ba6243f68857bf4b3cf83cb9331d89358f001ea",
          "vout": 1,
          "scriptSig": {
            "asm": "304402202033190d51c18fb8d347ddd1e52d58fe574a73b735fc1e4338412b63c0aa562b022078252e8f3a8545e0d35222cdb4e2d13ea232d76d72199c027eba6a93618a0f42[ALL] 02785c91eaac81caf2bcebcd9d647526d265c575eb30c65c8349c76649b6250cf1",
            "hex": "47304402202033190d51c18fb8d347ddd1e52d58fe574a73b735fc1e4338412b63c0aa562b022078252e8f3a8545e0d35222cdb4e2d13ea232d76d72199c027eba6a93618a0f42012102785c91eaac81caf2bcebcd9d647526d265c575eb30c65c8349c76649b6250cf1"
          },
          "sequence": 4294967295
        }
      ],
      "vout": [
        {
          "value": 1.19980702,
          "n": 0,
          "scriptPubKey": {
            "asm": "OP_DUP OP_HASH160 2df64078c1cb3d301cfbab37e4d48f621da61ef2 OP_EQUALVERIFY OP_CHECKSIG",
            "hex": "76a9142df64078c1cb3d301cfbab37e4d48f621da61ef288ac",
            "reqSigs": 1,
            "type": "pubkeyhash",
            "addresses": [
              "LPQyfiueP329XibWkwKHLzvMmajDHYaeq9"
            ]
          }
        }
      ],
      "hex": "0100000001ea01f05893d83193cb83cfb3f47b85683f24a67b5e1e2bb0b80ac09f8dff8e27010000006a47304402202033190d51c18fb8d347ddd1e52d58fe574a73b735fc1e4338412b63c0aa562b022078252e8f3a8545e0d35222cdb4e2d13ea232d76d72199c027eba6a93618a0f42012102785c91eaac81caf2bcebcd9d647526d265c575eb30c65c8349c76649b6250cf1ffffffff019ec22607000000001976a9142df64078c1cb3d301cfbab37e4d48f621da61ef288ac00000000"
    }, 
    {
      "txid": "1f2162ba9b27bbbb8cc779df50080baa3a99bbb857c3a58f76e1844effeb4dd7",
      "hash": "1f2162ba9b27bbbb8cc779df50080baa3a99bbb857c3a58f76e1844effeb4dd7",
      "version": 2,
      "size": 666,
      "vsize": 666,
      "locktime": 1357748,
      "vin": [
        {
          "txid": "f01bd5aafde9c51a869a309adc1e1cbdb6d716406baee890335cec650f05339a",
          "vout": 190,
          "scriptSig": {
            "asm": "304402201fbbafc7bcf874b1cdd548fd79b08629514aa1a03e71edc5a7e6753180ee21f70220344a80d14e3e227614b63ced77d95f763b829cced8f1e2957d8e4fdcc06a26a2[ALL] 034221e78282a52e4e590f6eeb476b7c4f0b3942dba5e355dea69fadc8c11d5ca0",
            "hex": "47304402201fbbafc7bcf874b1cdd548fd79b08629514aa1a03e71edc5a7e6753180ee21f70220344a80d14e3e227614b63ced77d95f763b829cced8f1e2957d8e4fdcc06a26a20121034221e78282a52e4e590f6eeb476b7c4f0b3942dba5e355dea69fadc8c11d5ca0"
          },
          "sequence": 4294967294
        }, 
        {
          "txid": "cdaed47c891c18d374e27d8f402132d2777041d920d77f314d6b40045f332185",
          "vout": 236,
          "scriptSig": {
            "asm": "304402207194b120f1c41bedfc6854d9dc3897781501b58a605612e683f076edfa6e964d0220270b948d0d84f4f402b5c3b7c58fd1dc5199a156dd19a07589e958f28490b886[ALL] 0211c6accc0f0dfbc763f7f8d8f44455f4214771ee723595915df5117aac86203f",
            "hex": "47304402207194b120f1c41bedfc6854d9dc3897781501b58a605612e683f076edfa6e964d0220270b948d0d84f4f402b5c3b7c58fd1dc5199a156dd19a07589e958f28490b88601210211c6accc0f0dfbc763f7f8d8f44455f4214771ee723595915df5117aac86203f"
          },
          "sequence": 4294967294
        }, 
        {
          "txid": "9e088125cc280872e4a4e2a3451e45ef8e3c6c0a81b8acb3c9e131811722ad74",
          "vout": 0,
          "scriptSig": {
            "asm": "30440220481f302f7d944088914d03b132b779512781f300a7740624ff79d0a26294162802202f842ca16bf9ecfd1707638e1453db2e2890d4e02462e562b1214d90ff7075ce[ALL] 03ec89bd305f151a1986545d22f86ea2f162269f288c3781f847069e7696a2bff5",
            "hex": "4730440220481f302f7d944088914d03b132b779512781f300a7740624ff79d0a26294162802202f842ca16bf9ecfd1707638e1453db2e2890d4e02462e562b1214d90ff7075ce012103ec89bd305f151a1986545d22f86ea2f162269f288c3781f847069e7696a2bff5"
          },
          "sequence": 4294967294
        }, 
        {
          "txid": "b910975bf666407cd5226069c822befad329662e6dbe7520b9d387a99be04f23",
          "vout": 1,
          "scriptSig": {
            "asm": "304402203e5d888cae684844a660f354330a0a9fd91000f93285cf697d17887a38dea40c02207d568b3fe88604b31cb18ee382d94c68edb70e946c2bfc51024d041ab7392e3b[ALL] 026109604efa978dc69e0e0c8d4ef897bcf22a709cca148409bad8793ace6ddfb4",
            "hex": "47304402203e5d888cae684844a660f354330a0a9fd91000f93285cf697d17887a38dea40c02207d568b3fe88604b31cb18ee382d94c68edb70e946c2bfc51024d041ab7392e3b0121026109604efa978dc69e0e0c8d4ef897bcf22a709cca148409bad8793ace6ddfb4"
          },
          "sequence": 4294967294
        }
      ],
      "vout": [
        {
          "value": 0.00936413,
          "n": 0,
          "scriptPubKey": {
            "asm": "OP_DUP OP_HASH160 6d2ec3e75029cf2e5f030ee3307342c013bae4b5 OP_EQUALVERIFY OP_CHECKSIG",
            "hex": "76a9146d2ec3e75029cf2e5f030ee3307342c013bae4b588ac",
            "reqSigs": 1,
            "type": "pubkeyhash",
            "addresses": [
              "LVBFwRqE5WfiNZt2PSySCTPQUgf3cCpocT"
            ]
          }
        }, 
        {
          "value": 1.38791000,
          "n": 1,
          "scriptPubKey": {
            "asm": "OP_DUP OP_HASH160 b5941266d0a0cbf97e81826a4f5124b512b525ea OP_EQUALVERIFY OP_CHECKSIG",
            "hex": "76a914b5941266d0a0cbf97e81826a4f5124b512b525ea88ac",
            "reqSigs": 1,
            "type": "pubkeyhash",
            "addresses": [
              "Lbn3x9bV4gaCPzZRxod1NPehNxRxvp3amB"
            ]
          }
        }
      ],
      "hex": "02000000049a33050f65ec5c3390e8ae6b4016d7b6bd1c1edc9a309a861ac5e9fdaad51bf0be0000006a47304402201fbbafc7bcf874b1cdd548fd79b08629514aa1a03e71edc5a7e6753180ee21f70220344a80d14e3e227614b63ced77d95f763b829cced8f1e2957d8e4fdcc06a26a20121034221e78282a52e4e590f6eeb476b7c4f0b3942dba5e355dea69fadc8c11d5ca0feffffff8521335f04406b4d317fd720d9417077d23221408f7de274d3181c897cd4aecdec0000006a47304402207194b120f1c41bedfc6854d9dc3897781501b58a605612e683f076edfa6e964d0220270b948d0d84f4f402b5c3b7c58fd1dc5199a156dd19a07589e958f28490b88601210211c6accc0f0dfbc763f7f8d8f44455f4214771ee723595915df5117aac86203ffeffffff74ad22178131e1c9b3acb8810a6c3c8eef451e45a3e2a4e4720828cc2581089e000000006a4730440220481f302f7d944088914d03b132b779512781f300a7740624ff79d0a26294162802202f842ca16bf9ecfd1707638e1453db2e2890d4e02462e562b1214d90ff7075ce012103ec89bd305f151a1986545d22f86ea2f162269f288c3781f847069e7696a2bff5feffffff234fe09ba987d3b92075be6d2e6629d3fabe22c8696022d57c4066f65b9710b9010000006a47304402203e5d888cae684844a660f354330a0a9fd91000f93285cf697d17887a38dea40c02207d568b3fe88604b31cb18ee382d94c68edb70e946c2bfc51024d041ab7392e3b0121026109604efa978dc69e0e0c8d4ef897bcf22a709cca148409bad8793ace6ddfb4feffffff02dd490e00000000001976a9146d2ec3e75029cf2e5f030ee3307342c013bae4b588ac58c84508000000001976a914b5941266d0a0cbf97e81826a4f5124b512b525ea88acb4b71400"
    }, 
    {
      "txid": "36767a9f2c0512988160588e1a406c9cdb6562a3eaaec3f9c652260c93bb971c",
      "hash": "36767a9f2c0512988160588e1a406c9cdb6562a3eaaec3f9c652260c93bb971c",
      "version": 1,
      "size": 223,
      "vsize": 223,
      "locktime": 0,
      "vin": [
        {
          "txid": "92e6c16d31a38094240bb213f27711b7499f5ffd2e0b1603ab82c8bd2e29d3cc",
          "vout": 0,
          "scriptSig": {
            "asm": "30440220043cc8182634afece7cd39f62f7c057752814e3cac8bcac657b7a16057e469650220595af650619bde58b606330dcc10c99f3f5bb04885b5db39c752824d2c1e3be5[ALL] 0270c9797c359b353f662bd634a90ffb2256357cf0b8b54bc5989199d71d9fb446",
            "hex": "4730440220043cc8182634afece7cd39f62f7c057752814e3cac8bcac657b7a16057e469650220595af650619bde58b606330dcc10c99f3f5bb04885b5db39c752824d2c1e3be501210270c9797c359b353f662bd634a90ffb2256357cf0b8b54bc5989199d71d9fb446"
          },
          "sequence": 4294967295
        }
      ],
      "vout": [
        {
          "value": 1.50201255,
          "n": 0,
          "scriptPubKey": {
            "asm": "OP_DUP OP_HASH160 715de84ca903a646113ca6f80fddf82d21f2dc46 OP_EQUALVERIFY OP_CHECKSIG",
            "hex": "76a914715de84ca903a646113ca6f80fddf82d21f2dc4688ac",
            "reqSigs": 1,
            "type": "pubkeyhash",
            "addresses": [
              "LVZP7h5LfmDMczZxsLHp6UT2k4DghqWJ6e"
            ]
          }
        }, 
        {
          "value": 2.44320000,
          "n": 1,
          "scriptPubKey": {
            "asm": "OP_HASH160 7d56dc639fefebcd3361531b8b71eed02a39fe94 OP_EQUAL",
            "hex": "a9147d56dc639fefebcd3361531b8b71eed02a39fe9487",
            "reqSigs": 1,
            "type": "scripthash",
            "addresses": [
              "MKKtkcKaysHau3GS6ypKBjdmoAAWY7QQeT"
            ]
          }
        }
      ],
      "hex": "0100000001ccd3292ebdc882ab03160b2efd5f9f49b71177f213b20b249480a3316dc1e692000000006a4730440220043cc8182634afece7cd39f62f7c057752814e3cac8bcac657b7a16057e469650220595af650619bde58b606330dcc10c99f3f5bb04885b5db39c752824d2c1e3be501210270c9797c359b353f662bd634a90ffb2256357cf0b8b54bc5989199d71d9fb446ffffffff02a7e3f308000000001976a914715de84ca903a646113ca6f80fddf82d21f2dc4688ac0007900e0000000017a9147d56dc639fefebcd3361531b8b71eed02a39fe948700000000"
    }, 
    {
      "txid": "b5e48923a480614fcad08892affa0fe3d1ba54462d13efa8cf0e97251d7a186e",
      "hash": "b5e48923a480614fcad08892affa0fe3d1ba54462d13efa8cf0e97251d7a186e",
      "version": 2,
      "size": 223,
      "vsize": 223,
      "locktime": 1357748,
      "vin": [
        {
          "txid": "d818e7c492bda78d0dfe5a51e6ff9e1f63b65539e261474096ab6538dff14e67",
          "vout": 1,
          "scriptSig": {
            "asm": "304402207ff196798d52b45309ed78730e71cbca481d4d29ec747c0516ca1491fdb57eec0220639340353a87ca27dcc04b276de1d398068b40d8b651981cc300a9e239a589ef[ALL] 02ce65795e8e8f271f4eea5b2033bef6f3bdfd05137675352bbce53a2eb3d5db83",
            "hex": "47304402207ff196798d52b45309ed78730e71cbca481d4d29ec747c0516ca1491fdb57eec0220639340353a87ca27dcc04b276de1d398068b40d8b651981cc300a9e239a589ef012102ce65795e8e8f271f4eea5b2033bef6f3bdfd05137675352bbce53a2eb3d5db83"
          },
          "sequence": 4294967294
        }
      ],
      "vout": [
        {
          "value": 13.59017133,
          "n": 0,
          "scriptPubKey": {
            "asm": "OP_HASH160 4e7066266c73b639b4b74fb5756eacb8fe02d58d OP_EQUAL",
            "hex": "a9144e7066266c73b639b4b74fb5756eacb8fe02d58d87",
            "reqSigs": 1,
            "type": "scripthash",
            "addresses": [
              "MF3ub1mWDj5oyGtoFiJVPwEPadyuvKMi9f"
            ]
          }
        }, 
        {
          "value": 77.02139841,
          "n": 1,
          "scriptPubKey": {
            "asm": "OP_DUP OP_HASH160 c4a5121dbfee7ae3a52a1209a85a8bd76d08ee2c OP_EQUALVERIFY OP_CHECKSIG",
            "hex": "76a914c4a5121dbfee7ae3a52a1209a85a8bd76d08ee2c88ac",
            "reqSigs": 1,
            "type": "pubkeyhash",
            "addresses": [
              "Ld9iT8UZRLcWAFWQe3jG53z9PTAcRisKfU"
            ]
          }
        }
      ],
      "hex": "0200000001674ef1df3865ab96404761e23955b6631f9effe6515afe0d8da7bd92c4e718d8010000006a47304402207ff196798d52b45309ed78730e71cbca481d4d29ec747c0516ca1491fdb57eec0220639340353a87ca27dcc04b276de1d398068b40d8b651981cc300a9e239a589ef012102ce65795e8e8f271f4eea5b2033bef6f3bdfd05137675352bbce53a2eb3d5db83feffffff02adf400510000000017a9144e7066266c73b639b4b74fb5756eacb8fe02d58d87c15315cb010000001976a914c4a5121dbfee7ae3a52a1209a85a8bd76d08ee2c88acb4b71400"
    }, 
    {
      "txid": "0a3f3999377894bd5af5aff4e1a648d097c3cf850a1a768c0ea7a677ffa1d109",
      "hash": "0a3f3999377894bd5af5aff4e1a648d097c3cf850a1a768c0ea7a677ffa1d109",
      "version": 1,
      "size": 225,
      "vsize": 225,
      "locktime": 0,
      "vin": [
        {
          "txid": "d35fad225d7c35ff3f21fc7af0cee034889fe19a27ec1b18b8f3d17c4f99cc85",
          "vout": 12,
          "scriptSig": {
            "asm": "304402206b16a3eeed675b4badf8678eaebf9fb944c7a8687dff3d126bf12b7c9654da38022066cfdd7425a5e0571ad6decd6609120a1d608c685dc80bea99303b5a48dfc51a[ALL] 03545d5ed1aa491cfd60562fd75ffdf549d353035946a2abe164c64c6de37fa04a",
            "hex": "47304402206b16a3eeed675b4badf8678eaebf9fb944c7a8687dff3d126bf12b7c9654da38022066cfdd7425a5e0571ad6decd6609120a1d608c685dc80bea99303b5a48dfc51a012103545d5ed1aa491cfd60562fd75ffdf549d353035946a2abe164c64c6de37fa04a"
          },
          "sequence": 4294967295
        }
      ],
      "vout": [
        {
          "value": 0.02153409,
          "n": 0,
          "scriptPubKey": {
            "asm": "OP_DUP OP_HASH160 f80b945c80a9f1a127b9636b2fbab21382752a72 OP_EQUALVERIFY OP_CHECKSIG",
            "hex": "76a914f80b945c80a9f1a127b9636b2fbab21382752a7288ac",
            "reqSigs": 1,
            "type": "pubkeyhash",
            "addresses": [
              "LhqViM6RanPhz6uBw23d7NpPwnHnyjYKCr"
            ]
          }
        }, 
        {
          "value": 0.40205188,
          "n": 1,
          "scriptPubKey": {
            "asm": "OP_DUP OP_HASH160 3d189d6a04e2747c74318381b5b68720b7980634 OP_EQUALVERIFY OP_CHECKSIG",
            "hex": "76a9143d189d6a04e2747c74318381b5b68720b798063488ac",
            "reqSigs": 1,
            "type": "pubkeyhash",
            "addresses": [
              "LQnzyBr82hkDPToWHyN4EV1MHFAiXdTTS6"
            ]
          }
        }
      ],
      "hex": "010000000185cc994f7cd1f3b8181bec279ae19f8834e0cef07afc213fff357c5d22ad5fd30c0000006a47304402206b16a3eeed675b4badf8678eaebf9fb944c7a8687dff3d126bf12b7c9654da38022066cfdd7425a5e0571ad6decd6609120a1d608c685dc80bea99303b5a48dfc51a012103545d5ed1aa491cfd60562fd75ffdf549d353035946a2abe164c64c6de37fa04affffffff02c1db2000000000001976a914f80b945c80a9f1a127b9636b2fbab21382752a7288ac847b6502000000001976a9143d189d6a04e2747c74318381b5b68720b798063488ac00000000"
    }, 
    {
      "txid": "b36759ad1395f15f8140ecf9437ac2edee6814c873b7793ae1bd78b3e8683f86",
      "hash": "b36759ad1395f15f8140ecf9437ac2edee6814c873b7793ae1bd78b3e8683f86",
      "version": 1,
      "size": 225,
      "vsize": 225,
      "locktime": 0,
      "vin": [
        {
          "txid": "b4c4677402e7565b1b300341550f00980740b39fc4ffa6ec217317d2b4f92919",
          "vout": 0,
          "scriptSig": {
            "asm": "304402202ec7292e94fbf577f02f8cca7342d0e3c638fbe3f6ad4b56b2d83f200715beec0220767828529308bd864722219634020cbca75bc478d599606b1c315e7063bbec1e[ALL] 0316bc26303074a0f1fefa5ef4fd70ef0c120b2188ae5f56c6d31b0b3576ac37ad",
            "hex": "47304402202ec7292e94fbf577f02f8cca7342d0e3c638fbe3f6ad4b56b2d83f200715beec0220767828529308bd864722219634020cbca75bc478d599606b1c315e7063bbec1e01210316bc26303074a0f1fefa5ef4fd70ef0c120b2188ae5f56c6d31b0b3576ac37ad"
          },
          "sequence": 4294967295
        }
      ],
      "vout": [
        {
          "value": 39.14352665,
          "n": 0,
          "scriptPubKey": {
            "asm": "OP_DUP OP_HASH160 1384765306d230eef2ec02ee62ce96998dd191a7 OP_EQUALVERIFY OP_CHECKSIG",
            "hex": "76a9141384765306d230eef2ec02ee62ce96998dd191a788ac",
            "reqSigs": 1,
            "type": "pubkeyhash",
            "addresses": [
              "LM19nVZ3ru8VmysT6bKQkvxYuuq2fok2fY"
            ]
          }
        }, 
        {
          "value": 5.99018027,
          "n": 1,
          "scriptPubKey": {
            "asm": "OP_DUP OP_HASH160 c48dddb344d42169baa0c9601fa2d9d1ab5beaa5 OP_EQUALVERIFY OP_CHECKSIG",
            "hex": "76a914c48dddb344d42169baa0c9601fa2d9d1ab5beaa588ac",
            "reqSigs": 1,
            "type": "pubkeyhash",
            "addresses": [
              "Ld9EeqQbywME7B4KM3VvfhHfe2JBDHKKct"
            ]
          }
        }
      ],
      "hex": "01000000011929f9b4d2177321eca6ffc49fb3400798000f554103301b5b56e7027467c4b4000000006a47304402202ec7292e94fbf577f02f8cca7342d0e3c638fbe3f6ad4b56b2d83f200715beec0220767828529308bd864722219634020cbca75bc478d599606b1c315e7063bbec1e01210316bc26303074a0f1fefa5ef4fd70ef0c120b2188ae5f56c6d31b0b3576ac37adffffffff02194850e9000000001976a9141384765306d230eef2ec02ee62ce96998dd191a788ac2b4ab423000000001976a914c48dddb344d42169baa0c9601fa2d9d1ab5beaa588ac00000000"
    }, 
    {
      "txid": "506074d06d2d6b4129333dfa8f4680b4ea6fc043dff6b827010de7878fa5db12",
      "hash": "506074d06d2d6b4129333dfa8f4680b4ea6fc043dff6b827010de7878fa5db12",
      "version": 1,
      "size": 226,
      "vsize": 226,
      "locktime": 1357748,
      "vin": [
        {
          "txid": "848d5c184dacd66271c5b2004308befe9238d626736d169ee6dcbe3ff174a815",
          "vout": 1,
          "scriptSig": {
            "asm": "3045022100f807e9e581e0649335bbb60f2371604711e0bee1e76d9241045e8fff82ef8b24022024f1105087cfc5bbb8590671e9b1925c57038664ddc141a5a5c437d1edffb439[ALL] 03f2764438cd0a1ee9caae185859c812cae79179ae78bac4118d6c94e3294e40c6",
            "hex": "483045022100f807e9e581e0649335bbb60f2371604711e0bee1e76d9241045e8fff82ef8b24022024f1105087cfc5bbb8590671e9b1925c57038664ddc141a5a5c437d1edffb439012103f2764438cd0a1ee9caae185859c812cae79179ae78bac4118d6c94e3294e40c6"
          },
          "sequence": 4294967294
        }
      ],
      "vout": [
        {
          "value": 1.00000000,
          "n": 0,
          "scriptPubKey": {
            "asm": "OP_DUP OP_HASH160 b5b694ccd01a4c1aa13a9fca99cc12c6a42c3c19 OP_EQUALVERIFY OP_CHECKSIG",
            "hex": "76a914b5b694ccd01a4c1aa13a9fca99cc12c6a42c3c1988ac",
            "reqSigs": 1,
            "type": "pubkeyhash",
            "addresses": [
              "LbnmHuGXKCsUN2PFAvv1YHuMajjLr9AzTD"
            ]
          }
        }, 
        {
          "value": 7.88122200,
          "n": 1,
          "scriptPubKey": {
            "asm": "OP_DUP OP_HASH160 017059b385f0299fe653e6c86cb64e17cff04e31 OP_EQUALVERIFY OP_CHECKSIG",
            "hex": "76a914017059b385f0299fe653e6c86cb64e17cff04e3188ac",
            "reqSigs": 1,
            "type": "pubkeyhash",
            "addresses": [
              "LKMZXeVN8zMRKSezXiZ6pbrdoMUkmEe4KV"
            ]
          }
        }
      ],
      "hex": "010000000115a874f13fbedce69e166d7326d63892febe084300b2c57162d6ac4d185c8d84010000006b483045022100f807e9e581e0649335bbb60f2371604711e0bee1e76d9241045e8fff82ef8b24022024f1105087cfc5bbb8590671e9b1925c57038664ddc141a5a5c437d1edffb439012103f2764438cd0a1ee9caae185859c812cae79179ae78bac4118d6c94e3294e40c6feffffff0200e1f505000000001976a914b5b694ccd01a4c1aa13a9fca99cc12c6a42c3c1988ac58caf92e000000001976a914017059b385f0299fe653e6c86cb64e17cff04e3188acb4b71400"
    }, 
    {
      "txid": "6c4bd7bcb1a9868559861a4f46a87d753853175754d8c6deef56665fbbab632a",
      "hash": "6c4bd7bcb1a9868559861a4f46a87d753853175754d8c6deef56665fbbab632a",
      "version": 1,
      "size": 226,
      "vsize": 226,
      "locktime": 0,
      "vin": [
        {
          "txid": "510ac5d229f436fe2d2e4ab345df39f4f3b411b6d2e2d6c2bff93ccac392d7b5",
          "vout": 0,
          "scriptSig": {
            "asm": "30450221008fbec4ed7e38ab1fc11025829edb2d3749c872aa4d13142c9f4d66aae64488f2022030088c2c775dcb269f7ed4635b8da7aed8b99a93bace567d6cc82e1bd2cec3f4[ALL] 021acff2a47860569b716bfa3cb7644891e7d2f2b9d7cfdd34685d13a9cd7a020c",
            "hex": "4830450221008fbec4ed7e38ab1fc11025829edb2d3749c872aa4d13142c9f4d66aae64488f2022030088c2c775dcb269f7ed4635b8da7aed8b99a93bace567d6cc82e1bd2cec3f40121021acff2a47860569b716bfa3cb7644891e7d2f2b9d7cfdd34685d13a9cd7a020c"
          },
          "sequence": 4294967295
        }
      ],
      "vout": [
        {
          "value": 0.00189993,
          "n": 0,
          "scriptPubKey": {
            "asm": "OP_DUP OP_HASH160 5e0fc52ef9e330a22327bc581f0cfcf197225d68 OP_EQUALVERIFY OP_CHECKSIG",
            "hex": "76a9145e0fc52ef9e330a22327bc581f0cfcf197225d6888ac",
            "reqSigs": 1,
            "type": "pubkeyhash",
            "addresses": [
              "LToJfyrjGtxYkQ4QuNBuquHj5bgNeGRXEa"
            ]
          }
        }, 
        {
          "value": 0.15261959,
          "n": 1,
          "scriptPubKey": {
            "asm": "OP_DUP OP_HASH160 1f1de29d45123c3faf108527e234ce770b187977 OP_EQUALVERIFY OP_CHECKSIG",
            "hex": "76a9141f1de29d45123c3faf108527e234ce770b18797788ac",
            "reqSigs": 1,
            "type": "pubkeyhash",
            "addresses": [
              "LN4V1cxJpkvE9UMh5GST4oF7db984Z1HiY"
            ]
          }
        }
      ],
      "hex": "0100000001b5d792c3ca3cf9bfc2d6e2d2b611b4f3f439df45b34a2e2dfe36f429d2c50a51000000006b4830450221008fbec4ed7e38ab1fc11025829edb2d3749c872aa4d13142c9f4d66aae64488f2022030088c2c775dcb269f7ed4635b8da7aed8b99a93bace567d6cc82e1bd2cec3f40121021acff2a47860569b716bfa3cb7644891e7d2f2b9d7cfdd34685d13a9cd7a020cffffffff0229e60200000000001976a9145e0fc52ef9e330a22327bc581f0cfcf197225d6888ac07e1e800000000001976a9141f1de29d45123c3faf108527e234ce770b18797788ac00000000"
    }, 
    {
      "txid": "4432e7465481f6d3c2f61a807b8e4272260307d66e8b890af6231e31a0ce0063",
      "hash": "4432e7465481f6d3c2f61a807b8e4272260307d66e8b890af6231e31a0ce0063",
      "version": 1,
      "size": 226,
      "vsize": 226,
      "locktime": 1357659,
      "vin": [
        {
          "txid": "ab7647a3c1fad98ac6276fc2971a744ecf02dbdcda1abab569df96ab39a18f7a",
          "vout": 1,
          "scriptSig": {
            "asm": "3045022100b9fa416d23e8e75fac7cc894e30c131e3f36e0f677b07845a386787538d21a46022075f21e895e3bae4c81b70ed3d2224342871e77cb00a5329854e1dc092fa64d99[ALL] 0207b7ea9aaba0689fc1ba3c6731f8656c82354937553cee3bbad778f89eeecb0b",
            "hex": "483045022100b9fa416d23e8e75fac7cc894e30c131e3f36e0f677b07845a386787538d21a46022075f21e895e3bae4c81b70ed3d2224342871e77cb00a5329854e1dc092fa64d9901210207b7ea9aaba0689fc1ba3c6731f8656c82354937553cee3bbad778f89eeecb0b"
          },
          "sequence": 4294967294
        }
      ],
      "vout": [
        {
          "value": 7.98500000,
          "n": 0,
          "scriptPubKey": {
            "asm": "OP_DUP OP_HASH160 b1110719e4a97dfff896255117b47803c0caf94f OP_EQUALVERIFY OP_CHECKSIG",
            "hex": "76a914b1110719e4a97dfff896255117b47803c0caf94f88ac",
            "reqSigs": 1,
            "type": "pubkeyhash",
            "addresses": [
              "LbNCGGuU5cx4ytCd4z5oT1vK1XsQ8Gkm5U"
            ]
          }
        }, 
        {
          "value": 20.36985121,
          "n": 1,
          "scriptPubKey": {
            "asm": "OP_DUP OP_HASH160 74bfd1d2588b96a10588812899bc232daade4ade OP_EQUALVERIFY OP_CHECKSIG",
            "hex": "76a91474bfd1d2588b96a10588812899bc232daade4ade88ac",
            "reqSigs": 1,
            "type": "pubkeyhash",
            "addresses": [
              "LVsGSKrbnvRReHawHECUGPivdcxP15uJeP"
            ]
          }
        }
      ],
      "hex": "01000000017a8fa139ab96df69b5ba1adadcdb02cf4e741a97c26f27c68ad9fac1a34776ab010000006b483045022100b9fa416d23e8e75fac7cc894e30c131e3f36e0f677b07845a386787538d21a46022075f21e895e3bae4c81b70ed3d2224342871e77cb00a5329854e1dc092fa64d9901210207b7ea9aaba0689fc1ba3c6731f8656c82354937553cee3bbad778f89eeecb0bfeffffff02a024982f000000001976a914b1110719e4a97dfff896255117b47803c0caf94f88ac21ed6979000000001976a91474bfd1d2588b96a10588812899bc232daade4ade88ac5bb71400"
    }, 
    {
      "txid": "cea4b7c7bf19d719c1a966dd9d435594a2baa33b0374ec562dda8b9f5bd8d69e",
      "hash": "cea4b7c7bf19d719c1a966dd9d435594a2baa33b0374ec562dda8b9f5bd8d69e",
      "version": 2,
      "size": 226,
      "vsize": 226,
      "locktime": 1357748,
      "vin": [
        {
          "txid": "e1606ed0b3e1bb65b0900beaea7bf952557c69e4ca1b3add3b17c5a9fb36cfd8",
          "vout": 0,
          "scriptSig": {
            "asm": "3045022100ab152f7383ca4bcf1e73d3eb9995fd1bc4d5b7230d55405c860a0f6797bd658b02205e8e34c867835d32af1f39e27cbd29e1779d95c88ee11300ebe5159719f85bed[ALL] 03de8b3722a5391d212c7e113fe4c2406e95e41971663754dbd9a360c24d5e2245",
            "hex": "483045022100ab152f7383ca4bcf1e73d3eb9995fd1bc4d5b7230d55405c860a0f6797bd658b02205e8e34c867835d32af1f39e27cbd29e1779d95c88ee11300ebe5159719f85bed012103de8b3722a5391d212c7e113fe4c2406e95e41971663754dbd9a360c24d5e2245"
          },
          "sequence": 4294967294
        }
      ],
      "vout": [
        {
          "value": 0.00980400,
          "n": 0,
          "scriptPubKey": {
            "asm": "OP_DUP OP_HASH160 11eeb3861a87725884e907be8e532bce9cbb916b OP_EQUALVERIFY OP_CHECKSIG",
            "hex": "76a91411eeb3861a87725884e907be8e532bce9cbb916b88ac",
            "reqSigs": 1,
            "type": "pubkeyhash",
            "addresses": [
              "LLrmhjDsoXiyAsF2HECat8smDLvS2QDN2R"
            ]
          }
        }, 
        {
          "value": 0.07890000,
          "n": 1,
          "scriptPubKey": {
            "asm": "OP_DUP OP_HASH160 3c4c91a362c7da2c1ecec965f12fb176c4fd7c45 OP_EQUALVERIFY OP_CHECKSIG",
            "hex": "76a9143c4c91a362c7da2c1ecec965f12fb176c4fd7c4588ac",
            "reqSigs": 1,
            "type": "pubkeyhash",
            "addresses": [
              "LQinXphbrX1RgwRaFkyav9RJzfKimVL7hq"
            ]
          }
        }
      ],
      "hex": "0200000001d8cf36fba9c5173bdd3a1bcae4697c5552f97beaea0b90b065bbe1b3d06e60e1000000006b483045022100ab152f7383ca4bcf1e73d3eb9995fd1bc4d5b7230d55405c860a0f6797bd658b02205e8e34c867835d32af1f39e27cbd29e1779d95c88ee11300ebe5159719f85bed012103de8b3722a5391d212c7e113fe4c2406e95e41971663754dbd9a360c24d5e2245feffffff02b0f50e00000000001976a91411eeb3861a87725884e907be8e532bce9cbb916b88ac50647800000000001976a9143c4c91a362c7da2c1ecec965f12fb176c4fd7c4588acb4b71400"
    }, 
    {
      "txid": "1d38ff5a2e195db538315c2f3c63d7b54d56e9cc34276a635e56160d354affc4",
      "hash": "1d38ff5a2e195db538315c2f3c63d7b54d56e9cc34276a635e56160d354affc4",
      "version": 1,
      "size": 226,
      "vsize": 226,
      "locktime": 0,
      "vin": [
        {
          "txid": "f627829105875b38dcac8121668bcb591d04331c91486e6da7572426cca6429d",
          "vout": 0,
          "scriptSig": {
            "asm": "3045022100e1f1ac9e39dab3210ba882ae4662d10347a272ed31f602fdc54b33a01318e33e02205fe5e743d93b9201f5d6bbfeb39847de244e91aca3cf6a708a691853a8e28909[ALL] 03b16cdcab6719302316de851022fea505f0165bf771922610e717b0b5ccab70e5",
            "hex": "483045022100e1f1ac9e39dab3210ba882ae4662d10347a272ed31f602fdc54b33a01318e33e02205fe5e743d93b9201f5d6bbfeb39847de244e91aca3cf6a708a691853a8e28909012103b16cdcab6719302316de851022fea505f0165bf771922610e717b0b5ccab70e5"
          },
          "sequence": 4294967295
        }
      ],
      "vout": [
        {
          "value": 0.17218153,
          "n": 0,
          "scriptPubKey": {
            "asm": "OP_DUP OP_HASH160 e4e742a0b2be3c239222eb792983be48b13db840 OP_EQUALVERIFY OP_CHECKSIG",
            "hex": "76a914e4e742a0b2be3c239222eb792983be48b13db84088ac",
            "reqSigs": 1,
            "type": "pubkeyhash",
            "addresses": [
              "Lg6HNCGzYJz14Z6QajGLUknMrG88SVPBbY"
            ]
          }
        }, 
        {
          "value": 1.00000000,
          "n": 1,
          "scriptPubKey": {
            "asm": "OP_DUP OP_HASH160 885cd342609b2d4311bb6cd9ad4f00bb7fe9b419 OP_EQUALVERIFY OP_CHECKSIG",
            "hex": "76a914885cd342609b2d4311bb6cd9ad4f00bb7fe9b41988ac",
            "reqSigs": 1,
            "type": "pubkeyhash",
            "addresses": [
              "LXeyMurbK1eWFfMRy3LbAhK19PX47AtcZy"
            ]
          }
        }
      ],
      "hex": "01000000019d42a6cc262457a76d6e48911c33041d59cb8b662181acdc385b8705918227f6000000006b483045022100e1f1ac9e39dab3210ba882ae4662d10347a272ed31f602fdc54b33a01318e33e02205fe5e743d93b9201f5d6bbfeb39847de244e91aca3cf6a708a691853a8e28909012103b16cdcab6719302316de851022fea505f0165bf771922610e717b0b5ccab70e5ffffffff0269ba0601000000001976a914e4e742a0b2be3c239222eb792983be48b13db84088ac00e1f505000000001976a914885cd342609b2d4311bb6cd9ad4f00bb7fe9b41988ac00000000"
    }
  ],
  "time": 1517043301,
  "mediantime": 1517042517,
  "nonce": 3896292874,
  "bits": "1a047f14",
  "difficulty": 3731199.183374282,
  "chainwork": "0000000000000000000000000000000000000000000000327ee8a33c9a379f96",
  "previousblockhash": "5965c78a410b00106093e3d823560ef7ff87385de0a1312841844c7ca9854d9e",
  "nextblockhash": "08896ce3a91c650788c4d97b647ef3d9c80755f08f8b249b82f76448f820baad"
}
