{
  "hash": "4ec36d01b10ac94c555d74af69834fcaa96738c311540e499d1390796658e1be",
  "confirmations": 595,
  "strippedsize": 3363,
  "size": 3399,
  "weight": 13488,
  "height": 1360399,
  "version": 536870912,
  "versionHex": "20000000",
  "merkleroot": "3ce2ba2a47849756ea1e4709e3d14142486e8f2abb609ecaa0955294a9d583c2",
  "tx": [
    {
      "txid": "0e83a370bc8f1be372b481d026727b61ade819ac165ec78f1d129ddc8069f1d4",
      "hash": "e27cb8a9c8a7bd5fb8f03c1b737dd68264c4eca70068e17ba4ec974cfcaae21a",
      "version": 1,
      "size": 251,
      "vsize": 224,
      "locktime": 0,
      "vin": [
        {
          "coinbase": "030fc2140000000000fabe6d6d5113501c4f7780f2a1a29324d990e136e7692c4c63095c53b7c0b91c820539a5010000000000000004910f725a04191ae53508a4209ce9040000000a42570a6657042f42572f",
          "sequence": 4294967295
        }
      ],
      "vout": [
        {
          "value": 25.00541700,
          "n": 0,
          "scriptPubKey": {
            "asm": "OP_DUP OP_HASH160 5373bc9425fd49e6bfe522d3dfc85432da2cc023 OP_EQUALVERIFY OP_CHECKSIG",
            "hex": "76a9145373bc9425fd49e6bfe522d3dfc85432da2cc02388ac",
            "reqSigs": 1,
            "type": "pubkeyhash",
            "addresses": [
              "LSqCzf5bPfkqGf94pJcfxWx5bZMPJE5XRf"
            ]
          }
        }, 
        {
          "value": 0.00000000,
          "n": 1,
          "scriptPubKey": {
            "asm": "OP_RETURN aa21a9edb3a126c4477b0bc7846dd9f6aa7635ce12d1b040c398eae2606037235421b328",
            "hex": "6a24aa21a9edb3a126c4477b0bc7846dd9f6aa7635ce12d1b040c398eae2606037235421b328",
            "type": "nulldata"
          }
        }
      ],
      "hex": "010000000001010000000000000000000000000000000000000000000000000000000000000000ffffffff53030fc2140000000000fabe6d6d5113501c4f7780f2a1a29324d990e136e7692c4c63095c53b7c0b91c820539a5010000000000000004910f725a04191ae53508a4209ce9040000000a42570a6657042f42572fffffffff02043d0b95000000001976a9145373bc9425fd49e6bfe522d3dfc85432da2cc02388ac0000000000000000266a24aa21a9edb3a126c4477b0bc7846dd9f6aa7635ce12d1b040c398eae2606037235421b3280120000000000000000000000000000000000000000000000000000000000000000000000000"
    }, 
    {
      "txid": "02764a92112979668de41d42237302316c7c2cf89ed0eb863bce9fe5785d5a4b",
      "hash": "02764a92112979668de41d42237302316c7c2cf89ed0eb863bce9fe5785d5a4b",
      "version": 1,
      "size": 260,
      "vsize": 260,
      "locktime": 1360397,
      "vin": [
        {
          "txid": "23d5067da8a090850f3fd2b353cfd3d7ef597f46161dd1464c635fb25cf1bd07",
          "vout": 2,
          "scriptSig": {
            "asm": "3045022100db6f22e603c73a06474fdaa9bcc6c518f0c4e9fd8cfb1e51c2b7e87a7adb358402205743ac87d9034e303718e0eafa78db87897d8b2e00d691f3c6a9733c874eccde[ALL] 02b8c44236fc0afe681fa4706770a1d5865fbc7f70bc3c43ff19f71ea7b22a7a49",
            "hex": "483045022100db6f22e603c73a06474fdaa9bcc6c518f0c4e9fd8cfb1e51c2b7e87a7adb358402205743ac87d9034e303718e0eafa78db87897d8b2e00d691f3c6a9733c874eccde012102b8c44236fc0afe681fa4706770a1d5865fbc7f70bc3c43ff19f71ea7b22a7a49"
          },
          "sequence": 4294967294
        }
      ],
      "vout": [
        {
          "value": 461.45657151,
          "n": 0,
          "scriptPubKey": {
            "asm": "OP_DUP OP_HASH160 38d71282b1b37f7b13fc02a41c8b11ebea2e6685 OP_EQUALVERIFY OP_CHECKSIG",
            "hex": "76a91438d71282b1b37f7b13fc02a41c8b11ebea2e668588ac",
            "reqSigs": 1,
            "type": "pubkeyhash",
            "addresses": [
              "LQQVkSZ1MfVchD2Tz26nYeQNCrrfthrs8u"
            ]
          }
        }, 
        {
          "value": 0.56490000,
          "n": 1,
          "scriptPubKey": {
            "asm": "OP_DUP OP_HASH160 f8cb27a7f25cda4200de6403f8b73a59a697c7a3 OP_EQUALVERIFY OP_CHECKSIG",
            "hex": "76a914f8cb27a7f25cda4200de6403f8b73a59a697c7a388ac",
            "reqSigs": 1,
            "type": "pubkeyhash",
            "addresses": [
              "LhuTDEiaiyxfZtyU3ZR6AyHqVCMopCmTuX"
            ]
          }
        }, 
        {
          "value": 1.99598001,
          "n": 2,
          "scriptPubKey": {
            "asm": "OP_DUP OP_HASH160 b7d077962818b5f7b69ad106aaa387f0f7403e83 OP_EQUALVERIFY OP_CHECKSIG",
            "hex": "76a914b7d077962818b5f7b69ad106aaa387f0f7403e8388ac",
            "reqSigs": 1,
            "type": "pubkeyhash",
            "addresses": [
              "LbysesKiJM3hTDLXhVfQ2Qt1DL2mePRHxQ"
            ]
          }
        }
      ],
      "hex": "010000000107bdf15cb25f634c46d11d16467f59efd7d3cf53b3d23f0f8590a0a87d06d523020000006b483045022100db6f22e603c73a06474fdaa9bcc6c518f0c4e9fd8cfb1e51c2b7e87a7adb358402205743ac87d9034e303718e0eafa78db87897d8b2e00d691f3c6a9733c874eccde012102b8c44236fc0afe681fa4706770a1d5865fbc7f70bc3c43ff19f71ea7b22a7a49feffffff033fd97ebe0a0000001976a91438d71282b1b37f7b13fc02a41c8b11ebea2e668588ac10f85d03000000001976a914f8cb27a7f25cda4200de6403f8b73a59a697c7a388acb19fe50b000000001976a914b7d077962818b5f7b69ad106aaa387f0f7403e8388ac0dc21400"
    }, 
    {
      "txid": "973b316a81b12578742f8496663a1033486d47f42c4cc8320a0cbf98f4874a35",
      "hash": "973b316a81b12578742f8496663a1033486d47f42c4cc8320a0cbf98f4874a35",
      "version": 1,
      "size": 372,
      "vsize": 372,
      "locktime": 0,
      "vin": [
        {
          "txid": "629c8c60a3394cefe7c520a82ed3ba5d74d1d880d1b301a79204a0b8c04e04c9",
          "vout": 1,
          "scriptSig": {
            "asm": "304402202652941fb7f566fee519fda4fbae323f242b9f6924895e93755be85dacb75246022078b91e1ee72536b86fc8111570a0615310e48264715bccd883ed4f62512267cd[ALL] 03853eaa8475d7a93cfff4726982d9771c90c185b26a8cb93a0ae4d2a6dbacd5f1",
            "hex": "47304402202652941fb7f566fee519fda4fbae323f242b9f6924895e93755be85dacb75246022078b91e1ee72536b86fc8111570a0615310e48264715bccd883ed4f62512267cd012103853eaa8475d7a93cfff4726982d9771c90c185b26a8cb93a0ae4d2a6dbacd5f1"
          },
          "sequence": 4294967295
        }, 
        {
          "txid": "39f641342f567db402f70fd6ac729d0f508371aadd56c65a59389a3ee546ff59",
          "vout": 1,
          "scriptSig": {
            "asm": "30440220148ae531727c75ca9bce2e8f0c390f64de2bab60ed746a1bb6c0e188d878bd750220268d83b9733c41c2bb7039d970d326c44033ba02ba9a79c0408fdb8534b306fd[ALL] 0202a777f00d4cd9b6ac7636379a0ba5636b6539e59502700b0a39782539fb3440",
            "hex": "4730440220148ae531727c75ca9bce2e8f0c390f64de2bab60ed746a1bb6c0e188d878bd750220268d83b9733c41c2bb7039d970d326c44033ba02ba9a79c0408fdb8534b306fd01210202a777f00d4cd9b6ac7636379a0ba5636b6539e59502700b0a39782539fb3440"
          },
          "sequence": 4294967295
        }
      ],
      "vout": [
        {
          "value": 0.37682899,
          "n": 0,
          "scriptPubKey": {
            "asm": "OP_DUP OP_HASH160 455f89511d2eba58678f761fccd43b5eb1759b24 OP_EQUALVERIFY OP_CHECKSIG",
            "hex": "76a914455f89511d2eba58678f761fccd43b5eb1759b2488ac",
            "reqSigs": 1,
            "type": "pubkeyhash",
            "addresses": [
              "LRYmLS9MjaMpC3pXs9KiFZeK9oahApRqxc"
            ]
          }
        }, 
        {
          "value": 0.00215580,
          "n": 1,
          "scriptPubKey": {
            "asm": "OP_DUP OP_HASH160 af1598f2c151f1039b8794c1d402953f502675b6 OP_EQUALVERIFY OP_CHECKSIG",
            "hex": "76a914af1598f2c151f1039b8794c1d402953f502675b688ac",
            "reqSigs": 1,
            "type": "pubkeyhash",
            "addresses": [
              "LbBiPQCQTALePWq7dNXf1WmnzLw4aECinp"
            ]
          }
        }
      ],
      "hex": "0100000002c9044ec0b8a00492a701b3d180d8d1745dbad32ea820c5e7ef4c39a3608c9c62010000006a47304402202652941fb7f566fee519fda4fbae323f242b9f6924895e93755be85dacb75246022078b91e1ee72536b86fc8111570a0615310e48264715bccd883ed4f62512267cd012103853eaa8475d7a93cfff4726982d9771c90c185b26a8cb93a0ae4d2a6dbacd5f1ffffffff59ff46e53e9a38595ac656ddaa7183500f9d72acd60ff702b47d562f3441f639010000006a4730440220148ae531727c75ca9bce2e8f0c390f64de2bab60ed746a1bb6c0e188d878bd750220268d83b9733c41c2bb7039d970d326c44033ba02ba9a79c0408fdb8534b306fd01210202a777f00d4cd9b6ac7636379a0ba5636b6539e59502700b0a39782539fb3440ffffffff02d3fe3e02000000001976a914455f89511d2eba58678f761fccd43b5eb1759b2488ac1c4a0300000000001976a914af1598f2c151f1039b8794c1d402953f502675b688ac00000000"
    }, 
    {
      "txid": "30d54f265e2513e266221634e343ccfcd28518597c8299b46a5671fa3f71f260",
      "hash": "30d54f265e2513e266221634e343ccfcd28518597c8299b46a5671fa3f71f260",
      "version": 2,
      "size": 372,
      "vsize": 372,
      "locktime": 1360397,
      "vin": [
        {
          "txid": "666a905ae3f29ed6cb81c30587a64c15bae43444ce9e4da4ee4024e78dc9b161",
          "vout": 1,
          "scriptSig": {
            "asm": "304402206a269142b1ba66c5b5abbdd2cd6b88b851b212973a612b612eeeb269ec210ef6022066f84fb3bd4f475cd882c435058738d474686997186be45949453985d3efceab[ALL] 02e870c9c1c145ee592010d48e3c81ee15b45cee7622de0ad5720b422330adf2b4",
            "hex": "47304402206a269142b1ba66c5b5abbdd2cd6b88b851b212973a612b612eeeb269ec210ef6022066f84fb3bd4f475cd882c435058738d474686997186be45949453985d3efceab012102e870c9c1c145ee592010d48e3c81ee15b45cee7622de0ad5720b422330adf2b4"
          },
          "sequence": 4294967294
        }, 
        {
          "txid": "e1e0e5429432d174993b67b70c87ec068f853d676d47c814823d05a77264db06",
          "vout": 0,
          "scriptSig": {
            "asm": "3044022035a1b8bab153c37bbbc2197e4dc791fa31da163d90656001a85d936f71f07030022045f04b6a9ad9fe7c50bca4d407c075ab7b19c739e84b54b5441734c254861b74[ALL] 02feeb23cdf7f244c9d7c8202b6bd09c9f5a0b857339ab21fa1f70547031e789d7",
            "hex": "473044022035a1b8bab153c37bbbc2197e4dc791fa31da163d90656001a85d936f71f07030022045f04b6a9ad9fe7c50bca4d407c075ab7b19c739e84b54b5441734c254861b74012102feeb23cdf7f244c9d7c8202b6bd09c9f5a0b857339ab21fa1f70547031e789d7"
          },
          "sequence": 4294967294
        }
      ],
      "vout": [
        {
          "value": 0.60000000,
          "n": 0,
          "scriptPubKey": {
            "asm": "OP_DUP OP_HASH160 1c6a7e8945bccb35241dfdff6f15269875dded82 OP_EQUALVERIFY OP_CHECKSIG",
            "hex": "76a9141c6a7e8945bccb35241dfdff6f15269875dded8288ac",
            "reqSigs": 1,
            "type": "pubkeyhash",
            "addresses": [
              "LMpCkwHL7C9w1GtNLr8rytS4WkYtf3qCv5"
            ]
          }
        }, 
        {
          "value": 0.04537455,
          "n": 1,
          "scriptPubKey": {
            "asm": "OP_DUP OP_HASH160 939472bf9d682955e529719b3624e98a2fce4d5b OP_EQUALVERIFY OP_CHECKSIG",
            "hex": "76a914939472bf9d682955e529719b3624e98a2fce4d5b88ac",
            "reqSigs": 1,
            "type": "pubkeyhash",
            "addresses": [
              "LYgHRmyx7WezVfmNAWBTp1dscSQH8EnUgY"
            ]
          }
        }
      ],
      "hex": "020000000261b1c98de72440eea44d9ece4434e4ba154ca68705c381cbd69ef2e35a906a66010000006a47304402206a269142b1ba66c5b5abbdd2cd6b88b851b212973a612b612eeeb269ec210ef6022066f84fb3bd4f475cd882c435058738d474686997186be45949453985d3efceab012102e870c9c1c145ee592010d48e3c81ee15b45cee7622de0ad5720b422330adf2b4feffffff06db6472a7053d8214c8476d673d858f06ec870cb7673b9974d1329442e5e0e1000000006a473044022035a1b8bab153c37bbbc2197e4dc791fa31da163d90656001a85d936f71f07030022045f04b6a9ad9fe7c50bca4d407c075ab7b19c739e84b54b5441734c254861b74012102feeb23cdf7f244c9d7c8202b6bd09c9f5a0b857339ab21fa1f70547031e789d7feffffff0200879303000000001976a9141c6a7e8945bccb35241dfdff6f15269875dded8288ac6f3c4500000000001976a914939472bf9d682955e529719b3624e98a2fce4d5b88ac0dc21400"
    }, 
    {
      "txid": "182c3a0227fc8ae1cff583d36eefabf9ba216c67a3fca21eb6d37395fb5a8b1e",
      "hash": "182c3a0227fc8ae1cff583d36eefabf9ba216c67a3fca21eb6d37395fb5a8b1e",
      "version": 1,
      "size": 225,
      "vsize": 225,
      "locktime": 0,
      "vin": [
        {
          "txid": "66fb90352769b9eec785a378ed7eb585b9c2cb6553946b55d4c2ff19839db623",
          "vout": 27,
          "scriptSig": {
            "asm": "3044022044f43833ebbc4350f1b4a8b9c6da62682387e4aa166455cc8c80fc141b7acd4502207e96f0307c1255c87a549528ba6a4e3f746ed99e9c386ca4ec2e70f747331ffb[ALL] 038b18ceae1eff66d481145deb3ba85d7fe7062460470a6d9c0af82fe7f1ac24ea",
            "hex": "473044022044f43833ebbc4350f1b4a8b9c6da62682387e4aa166455cc8c80fc141b7acd4502207e96f0307c1255c87a549528ba6a4e3f746ed99e9c386ca4ec2e70f747331ffb0121038b18ceae1eff66d481145deb3ba85d7fe7062460470a6d9c0af82fe7f1ac24ea"
          },
          "sequence": 4294967295
        }
      ],
      "vout": [
        {
          "value": 0.99977400,
          "n": 0,
          "scriptPubKey": {
            "asm": "OP_DUP OP_HASH160 8e87e32e8cf13579e5d1b0bf98cbabd3726942b5 OP_EQUALVERIFY OP_CHECKSIG",
            "hex": "76a9148e87e32e8cf13579e5d1b0bf98cbabd3726942b588ac",
            "reqSigs": 1,
            "type": "pubkeyhash",
            "addresses": [
              "LYDb15RNQkMWZXUz9sBudo27eEgF7v9h9E"
            ]
          }
        }, 
        {
          "value": 0.35000000,
          "n": 1,
          "scriptPubKey": {
            "asm": "OP_DUP OP_HASH160 92dd01f5ea86fc88c12df2c681e46468310cc69b OP_EQUALVERIFY OP_CHECKSIG",
            "hex": "76a91492dd01f5ea86fc88c12df2c681e46468310cc69b88ac",
            "reqSigs": 1,
            "type": "pubkeyhash",
            "addresses": [
              "LYcVg6qyhKSUt7nDw1CoZCWxSWsTuA5v31"
            ]
          }
        }
      ],
      "hex": "010000000123b69d8319ffc2d4556b945365cbc2b985b57eed78a385c7eeb969273590fb661b0000006a473044022044f43833ebbc4350f1b4a8b9c6da62682387e4aa166455cc8c80fc141b7acd4502207e96f0307c1255c87a549528ba6a4e3f746ed99e9c386ca4ec2e70f747331ffb0121038b18ceae1eff66d481145deb3ba85d7fe7062460470a6d9c0af82fe7f1ac24eaffffffff02b888f505000000001976a9148e87e32e8cf13579e5d1b0bf98cbabd3726942b588acc00e1602000000001976a91492dd01f5ea86fc88c12df2c681e46468310cc69b88ac00000000"
    }, 
    {
      "txid": "17167a7d66651e0b071d6b941198ed0d8a96f50d5d96ea70901ba8a6b0affbdc",
      "hash": "17167a7d66651e0b071d6b941198ed0d8a96f50d5d96ea70901ba8a6b0affbdc",
      "version": 1,
      "size": 225,
      "vsize": 225,
      "locktime": 0,
      "vin": [
        {
          "txid": "66fb90352769b9eec785a378ed7eb585b9c2cb6553946b55d4c2ff19839db623",
          "vout": 18,
          "scriptSig": {
            "asm": "304402201c10f7961a34eb2443f5d073f27948bb49f3001b3cf6efe86d908b0d9866cc8c02203d02b61b0cb88b4654a622240fe3762ae52994399ea2f7aadf46ff63c88110e5[ALL] 03a514fd872ce69516c696edd0ec086c74eeedd271e7e85162c4488fca4fd7eecb",
            "hex": "47304402201c10f7961a34eb2443f5d073f27948bb49f3001b3cf6efe86d908b0d9866cc8c02203d02b61b0cb88b4654a622240fe3762ae52994399ea2f7aadf46ff63c88110e5012103a514fd872ce69516c696edd0ec086c74eeedd271e7e85162c4488fca4fd7eecb"
          },
          "sequence": 4294967295
        }
      ],
      "vout": [
        {
          "value": 0.12277400,
          "n": 0,
          "scriptPubKey": {
            "asm": "OP_DUP OP_HASH160 cfc1317de2ffaf9e975b24a563791999afe82f74 OP_EQUALVERIFY OP_CHECKSIG",
            "hex": "76a914cfc1317de2ffaf9e975b24a563791999afe82f7488ac",
            "reqSigs": 1,
            "type": "pubkeyhash",
            "addresses": [
              "LeATaEGeQqsYbuR6UUGtf8SSHS9QcxXVR4"
            ]
          }
        }, 
        {
          "value": 0.98000000,
          "n": 1,
          "scriptPubKey": {
            "asm": "OP_DUP OP_HASH160 0e867c1b865c6479c6314320e400e48c0e53a47d OP_EQUALVERIFY OP_CHECKSIG",
            "hex": "76a9140e867c1b865c6479c6314320e400e48c0e53a47d88ac",
            "reqSigs": 1,
            "type": "pubkeyhash",
            "addresses": [
              "LLYkq4nJvWEBqBe2iZgrb2YEX7b75mQfXx"
            ]
          }
        }
      ],
      "hex": "010000000123b69d8319ffc2d4556b945365cbc2b985b57eed78a385c7eeb969273590fb66120000006a47304402201c10f7961a34eb2443f5d073f27948bb49f3001b3cf6efe86d908b0d9866cc8c02203d02b61b0cb88b4654a622240fe3762ae52994399ea2f7aadf46ff63c88110e5012103a514fd872ce69516c696edd0ec086c74eeedd271e7e85162c4488fca4fd7eecbffffffff029856bb00000000001976a914cfc1317de2ffaf9e975b24a563791999afe82f7488ac805cd705000000001976a9140e867c1b865c6479c6314320e400e48c0e53a47d88ac00000000"
    }, 
    {
      "txid": "bc9a17dfc5a3668496be718552909f900791cb00ac87189bbcf7bc3fa3df22f3",
      "hash": "bc9a17dfc5a3668496be718552909f900791cb00ac87189bbcf7bc3fa3df22f3",
      "version": 1,
      "size": 225,
      "vsize": 225,
      "locktime": 0,
      "vin": [
        {
          "txid": "1d39d1484a02ed8936a9ab5ff345497450597cd92739ac4c9710a93678f7958f",
          "vout": 0,
          "scriptSig": {
            "asm": "304402203abd3dbb4b926bde065250f549f5265c8f0ed5e7caa022983ebf41333a3607c50220692ad04b68a6002e7dd520f52be29bd7e1dfc2cfaab476cc92f330e66124c8b2[ALL] 02de42d4aeebf89863bd453bbe6dfe2146e8da662cdd9ad31503dfdb3770a99792",
            "hex": "47304402203abd3dbb4b926bde065250f549f5265c8f0ed5e7caa022983ebf41333a3607c50220692ad04b68a6002e7dd520f52be29bd7e1dfc2cfaab476cc92f330e66124c8b2012102de42d4aeebf89863bd453bbe6dfe2146e8da662cdd9ad31503dfdb3770a99792"
          },
          "sequence": 4294967295
        }
      ],
      "vout": [
        {
          "value": 0.09334744,
          "n": 0,
          "scriptPubKey": {
            "asm": "OP_DUP OP_HASH160 4e86e061bd883054600836d1b36f29b458e15c04 OP_EQUALVERIFY OP_CHECKSIG",
            "hex": "76a9144e86e061bd883054600836d1b36f29b458e15c0488ac",
            "reqSigs": 1,
            "type": "pubkeyhash",
            "addresses": [
              "LSPAYZMig7RLe63CxeeszBr6dMEXkN7QGD"
            ]
          }
        }, 
        {
          "value": 0.00055283,
          "n": 1,
          "scriptPubKey": {
            "asm": "OP_DUP OP_HASH160 ffacc23089365f94ff20e31fec46bc44e1a7d040 OP_EQUALVERIFY OP_CHECKSIG",
            "hex": "76a914ffacc23089365f94ff20e31fec46bc44e1a7d04088ac",
            "reqSigs": 1,
            "type": "pubkeyhash",
            "addresses": [
              "LiXqXc1huoJanVf76XXMTjKAZzNdeL9Eq5"
            ]
          }
        }
      ],
      "hex": "01000000018f95f77836a910974cac3927d97c5950744945f35faba93689ed024a48d1391d000000006a47304402203abd3dbb4b926bde065250f549f5265c8f0ed5e7caa022983ebf41333a3607c50220692ad04b68a6002e7dd520f52be29bd7e1dfc2cfaab476cc92f330e66124c8b2012102de42d4aeebf89863bd453bbe6dfe2146e8da662cdd9ad31503dfdb3770a99792ffffffff02d86f8e00000000001976a9144e86e061bd883054600836d1b36f29b458e15c0488acf3d70000000000001976a914ffacc23089365f94ff20e31fec46bc44e1a7d04088ac00000000"
    }, 
    {
      "txid": "205c3c1b1cf970f6ed1ed701f6c318f9e171fb74c41098755391d6520ccad946",
      "hash": "205c3c1b1cf970f6ed1ed701f6c318f9e171fb74c41098755391d6520ccad946",
      "version": 1,
      "size": 226,
      "vsize": 226,
      "locktime": 0,
      "vin": [
        {
          "txid": "6fc74123bf4c15735e6d16bddfa000acd95cde854030ffcd2b01f850a40a4e03",
          "vout": 0,
          "scriptSig": {
            "asm": "3045022100d04c54ce4ee82423806002e6b08f1504d678c6314cc87c4634e8dddb8d4e1f6202206df1df2953d224726dda366076aa10f4249e4bbb924bd9d48918fa8caaeb5b04[ALL] 0281677f7b767b06b3e39ac38457e245ba07d9cb3823a3eb673d6f3f8ca65a32e1",
            "hex": "483045022100d04c54ce4ee82423806002e6b08f1504d678c6314cc87c4634e8dddb8d4e1f6202206df1df2953d224726dda366076aa10f4249e4bbb924bd9d48918fa8caaeb5b0401210281677f7b767b06b3e39ac38457e245ba07d9cb3823a3eb673d6f3f8ca65a32e1"
          },
          "sequence": 4294967295
        }
      ],
      "vout": [
        {
          "value": 0.04683012,
          "n": 0,
          "scriptPubKey": {
            "asm": "OP_DUP OP_HASH160 d9f8a0669fcfabc3eb4ceb497f441dc2e519b1cb OP_EQUALVERIFY OP_CHECKSIG",
            "hex": "76a914d9f8a0669fcfabc3eb4ceb497f441dc2e519b1cb88ac",
            "reqSigs": 1,
            "type": "pubkeyhash",
            "addresses": [
              "Lf6UjiXnK1XJ6bXjXa2UFAMKF1DQQBz6Cr"
            ]
          }
        }, 
        {
          "value": 1.10301548,
          "n": 1,
          "scriptPubKey": {
            "asm": "OP_DUP OP_HASH160 1b6c54298d74227127ff6a0a19d85db306e9f51f OP_EQUALVERIFY OP_CHECKSIG",
            "hex": "76a9141b6c54298d74227127ff6a0a19d85db306e9f51f88ac",
            "reqSigs": 1,
            "type": "pubkeyhash",
            "addresses": [
              "LMixHCw9HQeDtS1KWfEviZUGBLUef3nW8C"
            ]
          }
        }
      ],
      "hex": "0100000001034e0aa450f8012bcdff304085de5cd9ac00a0dfbd166d5e73154cbf2341c76f000000006b483045022100d04c54ce4ee82423806002e6b08f1504d678c6314cc87c4634e8dddb8d4e1f6202206df1df2953d224726dda366076aa10f4249e4bbb924bd9d48918fa8caaeb5b0401210281677f7b767b06b3e39ac38457e245ba07d9cb3823a3eb673d6f3f8ca65a32e1ffffffff0204754700000000001976a914d9f8a0669fcfabc3eb4ceb497f441dc2e519b1cb88ac6c119306000000001976a9141b6c54298d74227127ff6a0a19d85db306e9f51f88ac00000000"
    }, 
    {
      "txid": "14d1991846cd80acfcae6557afca12c4f3aba47b88080c9345491c697490341f",
      "hash": "14d1991846cd80acfcae6557afca12c4f3aba47b88080c9345491c697490341f",
      "version": 2,
      "size": 486,
      "vsize": 486,
      "locktime": 1360397,
      "vin": [
        {
          "txid": "50997f48968f623b6bb88cb57117d3c214234edd5995b6217228ca23905b01be",
          "vout": 1,
          "scriptSig": {
            "asm": "3045022100b65aca82493ceb4ed8eaeb88b89eee5e563f1456474ea3f2649b046549bab5160220685edd0d0439b8318eb76dfcb34eda9b9c361e891acca2f5c3df38821be066bb[ALL] 03a8ccbcea16f4aa3e45d6f8960f7cfa65b5474e71e1d572ef2512326169b211c4",
            "hex": "483045022100b65aca82493ceb4ed8eaeb88b89eee5e563f1456474ea3f2649b046549bab5160220685edd0d0439b8318eb76dfcb34eda9b9c361e891acca2f5c3df38821be066bb012103a8ccbcea16f4aa3e45d6f8960f7cfa65b5474e71e1d572ef2512326169b211c4"
          },
          "sequence": 4294967294
        }, 
        {
          "txid": "c32433d8f6106d78a755543a63c41cd47ffd6e16c08499bacf65843dbaa069a1",
          "vout": 0,
          "scriptSig": {
            "asm": "30440220345929b4c56c445774abef523ac3eb2be7e586165e73f7900c307aa6c1be74600220080b362509e18c96a5a102453881acafeda240e6c31200bb3b500815fecbabde[ALL] 03a8ccbcea16f4aa3e45d6f8960f7cfa65b5474e71e1d572ef2512326169b211c4",
            "hex": "4730440220345929b4c56c445774abef523ac3eb2be7e586165e73f7900c307aa6c1be74600220080b362509e18c96a5a102453881acafeda240e6c31200bb3b500815fecbabde012103a8ccbcea16f4aa3e45d6f8960f7cfa65b5474e71e1d572ef2512326169b211c4"
          },
          "sequence": 4294967294
        }, 
        {
          "txid": "b7be8306160de02f42823e202cab4b02d2d5ba522e7b2ad876e827afb55d3d9a",
          "vout": 1,
          "scriptSig": {
            "asm": "304402200416eb53421b3623fae9be63ce30ac255a0b3601a3f61da7ef2de49242b29fa20220218cf93967984a26fe75f3e53505e44d30713b40a62aeb600f7ec77342f4b1bd[ALL] 03a8ccbcea16f4aa3e45d6f8960f7cfa65b5474e71e1d572ef2512326169b211c4",
            "hex": "47304402200416eb53421b3623fae9be63ce30ac255a0b3601a3f61da7ef2de49242b29fa20220218cf93967984a26fe75f3e53505e44d30713b40a62aeb600f7ec77342f4b1bd012103a8ccbcea16f4aa3e45d6f8960f7cfa65b5474e71e1d572ef2512326169b211c4"
          },
          "sequence": 4294967294
        }
      ],
      "vout": [
        {
          "value": 2.24340424,
          "n": 0,
          "scriptPubKey": {
            "asm": "OP_DUP OP_HASH160 47e78108fc6ae38b61fc6e9ebae45e714b1d5f12 OP_EQUALVERIFY OP_CHECKSIG",
            "hex": "76a91447e78108fc6ae38b61fc6e9ebae45e714b1d5f1288ac",
            "reqSigs": 1,
            "type": "pubkeyhash",
            "addresses": [
              "LRn9a1sjavf27Vh954TJUfGNk7jifRkNTw"
            ]
          }
        }
      ],
      "hex": "0200000003be015b9023ca287221b69559dd4e2314c2d31771b58cb86b3b628f96487f9950010000006b483045022100b65aca82493ceb4ed8eaeb88b89eee5e563f1456474ea3f2649b046549bab5160220685edd0d0439b8318eb76dfcb34eda9b9c361e891acca2f5c3df38821be066bb012103a8ccbcea16f4aa3e45d6f8960f7cfa65b5474e71e1d572ef2512326169b211c4feffffffa169a0ba3d8465cfba9984c0166efd7fd41cc4633a5455a7786d10f6d83324c3000000006a4730440220345929b4c56c445774abef523ac3eb2be7e586165e73f7900c307aa6c1be74600220080b362509e18c96a5a102453881acafeda240e6c31200bb3b500815fecbabde012103a8ccbcea16f4aa3e45d6f8960f7cfa65b5474e71e1d572ef2512326169b211c4feffffff9a3d5db5af27e876d82a7b2e52bad5d2024bab2c203e82422fe00d160683beb7010000006a47304402200416eb53421b3623fae9be63ce30ac255a0b3601a3f61da7ef2de49242b29fa20220218cf93967984a26fe75f3e53505e44d30713b40a62aeb600f7ec77342f4b1bd012103a8ccbcea16f4aa3e45d6f8960f7cfa65b5474e71e1d572ef2512326169b211c4feffffff01c8295f0d000000001976a91447e78108fc6ae38b61fc6e9ebae45e714b1d5f1288ac0dc21400"
    }, 
    {
      "txid": "18c73c64d0ff27d86c6cad5aa322f7a7fabdcbecce5ea6ced2fc05be57317744",
      "hash": "18c73c64d0ff27d86c6cad5aa322f7a7fabdcbecce5ea6ced2fc05be57317744",
      "version": 1,
      "size": 224,
      "vsize": 224,
      "locktime": 0,
      "vin": [
        {
          "txid": "9c7cd27cc50070424f67eaf8b1db9bdbecbc5a242db1493434f679cca8f0ab68",
          "vout": 1,
          "scriptSig": {
            "asm": "3045022100a220e3e92c63280b0f51f59f9b8c43a67efbf2214dc458bc25f66cafba1e309402201c5e2dea55d57670129c3a6dab78a5d716a8923318ab8b8946f76d0a220d7f2d[ALL] 027845da6d7e3cfefc0001a15c410460c2da332f9231c1fbd211afb51edbe3200a",
            "hex": "483045022100a220e3e92c63280b0f51f59f9b8c43a67efbf2214dc458bc25f66cafba1e309402201c5e2dea55d57670129c3a6dab78a5d716a8923318ab8b8946f76d0a220d7f2d0121027845da6d7e3cfefc0001a15c410460c2da332f9231c1fbd211afb51edbe3200a"
          },
          "sequence": 4294967295
        }
      ],
      "vout": [
        {
          "value": 2.00000000,
          "n": 0,
          "scriptPubKey": {
            "asm": "OP_HASH160 863320db389ad614b834b4e75fdfcb179468b30c OP_EQUAL",
            "hex": "a914863320db389ad614b834b4e75fdfcb179468b30c87",
            "reqSigs": 1,
            "type": "scripthash",
            "addresses": [
              "ML8k2bUMwFYpRGpT9yLawec29xxourzW6o"
            ]
          }
        }, 
        {
          "value": 0.05904273,
          "n": 1,
          "scriptPubKey": {
            "asm": "OP_DUP OP_HASH160 20874d1b407c9facf7bda4ed23f83859cfd5026c OP_EQUALVERIFY OP_CHECKSIG",
            "hex": "76a91420874d1b407c9facf7bda4ed23f83859cfd5026c88ac",
            "reqSigs": 1,
            "type": "pubkeyhash",
            "addresses": [
              "LNBwyF5cnsT4296EVEiBHX4uR6tErTBxnm"
            ]
          }
        }
      ],
      "hex": "010000000168abf0a8cc79f6343449b12d245abcecdb9bdbb1f8ea674f427000c57cd27c9c010000006b483045022100a220e3e92c63280b0f51f59f9b8c43a67efbf2214dc458bc25f66cafba1e309402201c5e2dea55d57670129c3a6dab78a5d716a8923318ab8b8946f76d0a220d7f2d0121027845da6d7e3cfefc0001a15c410460c2da332f9231c1fbd211afb51edbe3200affffffff0200c2eb0b0000000017a914863320db389ad614b834b4e75fdfcb179468b30c8791175a00000000001976a91420874d1b407c9facf7bda4ed23f83859cfd5026c88ac00000000"
    }, 
    {
      "txid": "ff234c9a0933fece60487b71d45dcbed981e0e0e7a1f21e382e611bcbd8bb398",
      "hash": "ff234c9a0933fece60487b71d45dcbed981e0e0e7a1f21e382e611bcbd8bb398",
      "version": 1,
      "size": 226,
      "vsize": 226,
      "locktime": 0,
      "vin": [
        {
          "txid": "47e49c5428d7807a7c576106e5bf6b52671cba1ec0e8fb7b94b94fe1683e9567",
          "vout": 1,
          "scriptSig": {
            "asm": "3045022100b815d9a5b21cbbe4bfcc1f345bf506bf36e53abf09e4639f42be028dc6cf4bc902205c53132e3d2c790240ac00e514f57039f43118d40c87ada0fec2bc292fd118a0[ALL] 02854e1b35334c4117c9588df74752b666d5aed6cc116a8121e199f4b4894b5268",
            "hex": "483045022100b815d9a5b21cbbe4bfcc1f345bf506bf36e53abf09e4639f42be028dc6cf4bc902205c53132e3d2c790240ac00e514f57039f43118d40c87ada0fec2bc292fd118a0012102854e1b35334c4117c9588df74752b666d5aed6cc116a8121e199f4b4894b5268"
          },
          "sequence": 4294967295
        }
      ],
      "vout": [
        {
          "value": 0.26511000,
          "n": 0,
          "scriptPubKey": {
            "asm": "OP_DUP OP_HASH160 2ece5d5380df64708bce62e0049e5d77ea27ee9b OP_EQUALVERIFY OP_CHECKSIG",
            "hex": "76a9142ece5d5380df64708bce62e0049e5d77ea27ee9b88ac",
            "reqSigs": 1,
            "type": "pubkeyhash",
            "addresses": [
              "LPVSZVqATj8t2me4c9arASdPpMp2iiivMn"
            ]
          }
        }, 
        {
          "value": 0.08837800,
          "n": 1,
          "scriptPubKey": {
            "asm": "OP_DUP OP_HASH160 6f828571b24d912484bba11b194286c057c8f606 OP_EQUALVERIFY OP_CHECKSIG",
            "hex": "76a9146f828571b24d912484bba11b194286c057c8f60688ac",
            "reqSigs": 1,
            "type": "pubkeyhash",
            "addresses": [
              "LVPZdHMQpkYq56ojPumbNVfsuRE3GPvZZu"
            ]
          }
        }
      ],
      "hex": "010000000167953e68e14fb9947bfbe8c01eba1c67526bbfe50661577c7a80d728549ce447010000006b483045022100b815d9a5b21cbbe4bfcc1f345bf506bf36e53abf09e4639f42be028dc6cf4bc902205c53132e3d2c790240ac00e514f57039f43118d40c87ada0fec2bc292fd118a0012102854e1b35334c4117c9588df74752b666d5aed6cc116a8121e199f4b4894b5268ffffffff0298869401000000001976a9142ece5d5380df64708bce62e0049e5d77ea27ee9b88aca8da8600000000001976a9146f828571b24d912484bba11b194286c057c8f60688ac00000000"
    }, 
    {
      "txid": "c25de1567e42d472fad2eb5c297d1656493807979e4b22a3ea2b19bc3f0b6db8",
      "hash": "c25de1567e42d472fad2eb5c297d1656493807979e4b22a3ea2b19bc3f0b6db8",
      "version": 1,
      "size": 226,
      "vsize": 226,
      "locktime": 0,
      "vin": [
        {
          "txid": "3623598f9829e1f27ea89a3deef135dc30531929eb2d63056a46067f5527f2f5",
          "vout": 1,
          "scriptSig": {
            "asm": "3045022100afd0f9eb9670f1783fef885e085325a5bd3a16d109b08443b19e1260c3581f080220635391e0b5dedc8ca28aead6591d09671d0ee5489c28eef333838bb4befe5e53[ALL] 030879401be826f039571aa695cbef66321f3da8668afe3abd08cb5b0ad54c5061",
            "hex": "483045022100afd0f9eb9670f1783fef885e085325a5bd3a16d109b08443b19e1260c3581f080220635391e0b5dedc8ca28aead6591d09671d0ee5489c28eef333838bb4befe5e530121030879401be826f039571aa695cbef66321f3da8668afe3abd08cb5b0ad54c5061"
          },
          "sequence": 4294967295
        }
      ],
      "vout": [
        {
          "value": 0.11586590,
          "n": 0,
          "scriptPubKey": {
            "asm": "OP_DUP OP_HASH160 bff4d6dc7e629a81ce43212c579b2e4439c5e4b8 OP_EQUALVERIFY OP_CHECKSIG",
            "hex": "76a914bff4d6dc7e629a81ce43212c579b2e4439c5e4b888ac",
            "reqSigs": 1,
            "type": "pubkeyhash",
            "addresses": [
              "Lcivdav5NmLkWpQN8Nti9ZbjHTFPgZc3ih"
            ]
          }
        }, 
        {
          "value": 0.00210084,
          "n": 1,
          "scriptPubKey": {
            "asm": "OP_DUP OP_HASH160 e44e8e92176af2b44e4659c3ab458c97ee906f9b OP_EQUALVERIFY OP_CHECKSIG",
            "hex": "76a914e44e8e92176af2b44e4659c3ab458c97ee906f9b88ac",
            "reqSigs": 1,
            "type": "pubkeyhash",
            "addresses": [
              "Lg38SBRpcy9Qq9bP6UrTKXmzmvRh5JcZed"
            ]
          }
        }
      ],
      "hex": "0100000001f5f227557f06466a05632deb29195330dc35f1ee3d9aa87ef2e129988f592336010000006b483045022100afd0f9eb9670f1783fef885e085325a5bd3a16d109b08443b19e1260c3581f080220635391e0b5dedc8ca28aead6591d09671d0ee5489c28eef333838bb4befe5e530121030879401be826f039571aa695cbef66321f3da8668afe3abd08cb5b0ad54c5061ffffffff021eccb000000000001976a914bff4d6dc7e629a81ce43212c579b2e4439c5e4b888aca4340300000000001976a914e44e8e92176af2b44e4659c3ab458c97ee906f9b88ac00000000"
    }
  ],
  "time": 1517424529,
  "mediantime": 1517423801,
  "nonce": 3295919956,
  "bits": "1a042eae",
  "difficulty": 4011378.762614286,
  "chainwork": "000000000000000000000000000000000000000000000034e708d38199eda920",
  "previousblockhash": "cc240e3ee4f6972f360e27905429ba1e3d08070baf060f303477583b12e40e20",
  "nextblockhash": "6870e4fe912d1e3a74f83c95a417728c66dbe5569ce272691eaf708eeb954724"
}
