{
  "hash": "4eed95835ad339b6fc4cca504854e9e1ac0b451dcfc9a05bb0b569903e7c54d8",
  "confirmations": 1706,
  "strippedsize": 4961,
  "size": 4997,
  "weight": 19880,
  "height": 1359288,
  "version": 536870912,
  "versionHex": "20000000",
  "merkleroot": "0cb51709a370f3d73f43da9d787fef83ca762fbd9424e89e994079e7ef5d527d",
  "tx": [
    {
      "txid": "ca1fb7d7f21569598127d79c72743046802c2bf2a94d240d3c9d064b30bd2c05",
      "hash": "18ce860b32b438e78a14d8ab2935d2c85c3f95edc4251eb50a4a18a8dff718ea",
      "version": 1,
      "size": 277,
      "vsize": 250,
      "locktime": 950136977,
      "vin": [
        {
          "coinbase": "03b8bd142cfabe6d6ddfd47865e8c5dd3ed7cb24522b5060fe1db4b92d70d8f9c5a47007648241471308000000f09f909f0d4d696e6564206279206368353700000000000000000000000000000000000000000000000000000000000000000000000000",
          "sequence": 3761439104
        }
      ],
      "vout": [
        {
          "value": 25.01852133,
          "n": 0,
          "scriptPubKey": {
            "asm": "OP_DUP OP_HASH160 aa3750aa18b8a0f3f0590731e1fab934856680cf OP_EQUALVERIFY OP_CHECKSIG",
            "hex": "76a914aa3750aa18b8a0f3f0590731e1fab934856680cf88ac",
            "reqSigs": 1,
            "type": "pubkeyhash",
            "addresses": [
              "LajyQBeZaBA1NkZDeY8YT5RYYVRkXMvb2T"
            ]
          }
        }, 
        {
          "value": 0.00000000,
          "n": 1,
          "scriptPubKey": {
            "asm": "OP_RETURN aa21a9ed47f173d73df8e06ac0b8e21aa2d9463c99ec2e81f7c39b22df2dec277e5c41e5 0000000000000000",
            "hex": "6a24aa21a9ed47f173d73df8e06ac0b8e21aa2d9463c99ec2e81f7c39b22df2dec277e5c41e5080000000000000000",
            "type": "nulldata"
          }
        }
      ],
      "hex": "010000000001010000000000000000000000000000000000000000000000000000000000000000ffffffff6403b8bd142cfabe6d6ddfd47865e8c5dd3ed7cb24522b5060fe1db4b92d70d8f9c5a47007648241471308000000f09f909f0d4d696e6564206279206368353700000000000000000000000000000000000000000000000000000000000000000000000000800133e002e53b1f95000000001976a914aa3750aa18b8a0f3f0590731e1fab934856680cf88ac00000000000000002f6a24aa21a9ed47f173d73df8e06ac0b8e21aa2d9463c99ec2e81f7c39b22df2dec277e5c41e50800000000000000000120000000000000000000000000000000000000000000000000000000000000000091f0a138"
    }, 
    {
      "txid": "c533ab9add27caaad5533167b0fb9530feeb6f3f61d2bf5caf719f629a02c3a2",
      "hash": "c533ab9add27caaad5533167b0fb9530feeb6f3f61d2bf5caf719f629a02c3a2",
      "version": 2,
      "size": 225,
      "vsize": 225,
      "locktime": 1359226,
      "vin": [
        {
          "txid": "b261f2e120679ab9c301ddf39b8b2a4785e1f89109164c0a5873665a64195ba3",
          "vout": 0,
          "scriptSig": {
            "asm": "304402203570fe6b4a398d6e0b5806cf17096c3c8c8583cf0217fa1113193d2adc6852540220742e1013d82e328da44883a979715811378ad4ba176d4df7d1c9964d7d9adcc5[ALL] 03038d31891a2924c6960b05381782eeda1c5ed60389ae2ab721ac417a6889d688",
            "hex": "47304402203570fe6b4a398d6e0b5806cf17096c3c8c8583cf0217fa1113193d2adc6852540220742e1013d82e328da44883a979715811378ad4ba176d4df7d1c9964d7d9adcc5012103038d31891a2924c6960b05381782eeda1c5ed60389ae2ab721ac417a6889d688"
          },
          "sequence": 4294967294
        }
      ],
      "vout": [
        {
          "value": 25.00000000,
          "n": 0,
          "scriptPubKey": {
            "asm": "OP_DUP OP_HASH160 5bef7cbfb11d5766e11889c370e841aa494b5eaa OP_EQUALVERIFY OP_CHECKSIG",
            "hex": "76a9145bef7cbfb11d5766e11889c370e841aa494b5eaa88ac",
            "reqSigs": 1,
            "type": "pubkeyhash",
            "addresses": [
              "LTc4eYD7gPNoXivDApQY5FDuww8pTFatf8"
            ]
          }
        }, 
        {
          "value": 30.19427000,
          "n": 1,
          "scriptPubKey": {
            "asm": "OP_DUP OP_HASH160 d0a481a5d40e84f2901c96b5c4de80e6a008659c OP_EQUALVERIFY OP_CHECKSIG",
            "hex": "76a914d0a481a5d40e84f2901c96b5c4de80e6a008659c88ac",
            "reqSigs": 1,
            "type": "pubkeyhash",
            "addresses": [
              "LeF9tDnqM5rWzUqVNf62S9ZsSqJK1rbPkL"
            ]
          }
        }
      ],
      "hex": "0200000001a35b19645a6673580a4c160991f8e185472a8b9bf3dd01c3b99a6720e1f261b2000000006a47304402203570fe6b4a398d6e0b5806cf17096c3c8c8583cf0217fa1113193d2adc6852540220742e1013d82e328da44883a979715811378ad4ba176d4df7d1c9964d7d9adcc5012103038d31891a2924c6960b05381782eeda1c5ed60389ae2ab721ac417a6889d688feffffff0200f90295000000001976a9145bef7cbfb11d5766e11889c370e841aa494b5eaa88acb8ccf8b3000000001976a914d0a481a5d40e84f2901c96b5c4de80e6a008659c88ac7abd1400"
    }, 
    {
      "txid": "87dedb3b93b891a2a779035df53e4e7ac9e530a59448be41757f831970db433d",
      "hash": "87dedb3b93b891a2a779035df53e4e7ac9e530a59448be41757f831970db433d",
      "version": 1,
      "size": 189,
      "vsize": 189,
      "locktime": 0,
      "vin": [
        {
          "txid": "fbca65a68ee1503f010c1375a4d3835b8f2cc9e84d7c07cefd1eea4eb27b3575",
          "vout": 1,
          "scriptSig": {
            "asm": "304402205fbd45eaa31daad0df926d92b9915b6dbe4ff945638e6747e122bc87b2495b3e022041e0b90e64aae34769422dab6bcc6f4fad14dfcc14815e349dd52262d1d5a231[ALL] 02c7bae6cfc1b5357ca45170c865e8e4da506f15862c1108e799700bec4ece3276",
            "hex": "47304402205fbd45eaa31daad0df926d92b9915b6dbe4ff945638e6747e122bc87b2495b3e022041e0b90e64aae34769422dab6bcc6f4fad14dfcc14815e349dd52262d1d5a231012102c7bae6cfc1b5357ca45170c865e8e4da506f15862c1108e799700bec4ece3276"
          },
          "sequence": 4294967295
        }
      ],
      "vout": [
        {
          "value": 5.99333300,
          "n": 0,
          "scriptPubKey": {
            "asm": "OP_HASH160 d8dcaf8aa1ea3c2e1dfddacbb64b16e3f7dafa27 OP_EQUAL",
            "hex": "a914d8dcaf8aa1ea3c2e1dfddacbb64b16e3f7dafa2787",
            "reqSigs": 1,
            "type": "scripthash",
            "addresses": [
              "MTfpZNqyCW92Goyo7xxVftMPFEevqQ9dCS"
            ]
          }
        }
      ],
      "hex": "010000000175357bb24eea1efdce077c4de8c92c8f5b83d3a475130c013f50e18ea665cafb010000006a47304402205fbd45eaa31daad0df926d92b9915b6dbe4ff945638e6747e122bc87b2495b3e022041e0b90e64aae34769422dab6bcc6f4fad14dfcc14815e349dd52262d1d5a231012102c7bae6cfc1b5357ca45170c865e8e4da506f15862c1108e799700bec4ece3276ffffffff01b419b9230000000017a914d8dcaf8aa1ea3c2e1dfddacbb64b16e3f7dafa278700000000"
    }, 
    {
      "txid": "738994ef0354f8b55cb568eb89debd0e7732594259d166baf0134a12d0632886",
      "hash": "738994ef0354f8b55cb568eb89debd0e7732594259d166baf0134a12d0632886",
      "version": 1,
      "size": 225,
      "vsize": 225,
      "locktime": 0,
      "vin": [
        {
          "txid": "f17564d5e52fc8bd735e5c16b8cb2b809797f7e1872d6ce3feedbe65811da60a",
          "vout": 1,
          "scriptSig": {
            "asm": "304402202816fa22d6adcab764d15130215497f8cafa7d394ca911cc97c7cc461ffbdc2002200c0d24612320620099a337bc9794d171bc66b8a567e4fa1c2375fb357f13e656[ALL] 039e4a7ab96cf6cfbb314ae4c5fe429e12362acb62ab9e0ef37ed09875a55ba54d",
            "hex": "47304402202816fa22d6adcab764d15130215497f8cafa7d394ca911cc97c7cc461ffbdc2002200c0d24612320620099a337bc9794d171bc66b8a567e4fa1c2375fb357f13e6560121039e4a7ab96cf6cfbb314ae4c5fe429e12362acb62ab9e0ef37ed09875a55ba54d"
          },
          "sequence": 4294967295
        }
      ],
      "vout": [
        {
          "value": 0.43005705,
          "n": 0,
          "scriptPubKey": {
            "asm": "OP_DUP OP_HASH160 4a441d620c834a7636aa6b0af52da295bfeca9b9 OP_EQUALVERIFY OP_CHECKSIG",
            "hex": "76a9144a441d620c834a7636aa6b0af52da295bfeca9b988ac",
            "reqSigs": 1,
            "type": "pubkeyhash",
            "addresses": [
              "LRzds77Pg5ZA1kHAJ51rL9Zz6N3vShCiYh"
            ]
          }
        }, 
        {
          "value": 3.44228027,
          "n": 1,
          "scriptPubKey": {
            "asm": "OP_DUP OP_HASH160 2d8f5bdbcdead81c8d14f50849f71a5840463823 OP_EQUALVERIFY OP_CHECKSIG",
            "hex": "76a9142d8f5bdbcdead81c8d14f50849f71a584046382388ac",
            "reqSigs": 1,
            "type": "pubkeyhash",
            "addresses": [
              "LPNrQbEQAQQ23LVsusAKrG77unxVNECke6"
            ]
          }
        }
      ],
      "hex": "01000000010aa61d8165beedfee36c2d87e1f79797802bcbb8165c5e73bdc82fe5d56475f1010000006a47304402202816fa22d6adcab764d15130215497f8cafa7d394ca911cc97c7cc461ffbdc2002200c0d24612320620099a337bc9794d171bc66b8a567e4fa1c2375fb357f13e6560121039e4a7ab96cf6cfbb314ae4c5fe429e12362acb62ab9e0ef37ed09875a55ba54dffffffff0209379002000000001976a9144a441d620c834a7636aa6b0af52da295bfeca9b988acbb808414000000001976a9142d8f5bdbcdead81c8d14f50849f71a584046382388ac00000000"
    }, 
    {
      "txid": "6eec4fcfac9d7c27f64c4ba77ae3aa2ac4077130286b3503580e7fc1e6d66777",
      "hash": "6eec4fcfac9d7c27f64c4ba77ae3aa2ac4077130286b3503580e7fc1e6d66777",
      "version": 1,
      "size": 634,
      "vsize": 634,
      "locktime": 0,
      "vin": [
        {
          "txid": "28cd9e39fa3ff132606488610aa07dea8717a3ed89d9d156ceaf997dcfac4365",
          "vout": 1,
          "scriptSig": {
            "asm": "3045022100bec8b61b1bd0b389d8c9d2e72dac9c9f4d6887fe0fcf412efbd70cf35646ae5e0220143c0918693e588ab9166f551cd72675f67d974024f866e28519a504c9b0a27b[ALL] 03f259d016919df3df1ba4c90ad2b8aea8515f0c77272002c7120e8eb2a567a915",
            "hex": "483045022100bec8b61b1bd0b389d8c9d2e72dac9c9f4d6887fe0fcf412efbd70cf35646ae5e0220143c0918693e588ab9166f551cd72675f67d974024f866e28519a504c9b0a27b012103f259d016919df3df1ba4c90ad2b8aea8515f0c77272002c7120e8eb2a567a915"
          },
          "sequence": 4294967295
        }
      ],
      "vout": [
        {
          "value": 0.44300000,
          "n": 0,
          "scriptPubKey": {
            "asm": "OP_DUP OP_HASH160 85f8bcb464558bab0fefee0d655dcd014dee22fb OP_EQUALVERIFY OP_CHECKSIG",
            "hex": "76a91485f8bcb464558bab0fefee0d655dcd014dee22fb88ac",
            "reqSigs": 1,
            "type": "pubkeyhash",
            "addresses": [
              "LXSL7HVDNxQZxM57pPk1hY4N4wiQ89mf7X"
            ]
          }
        }, 
        {
          "value": 10.89342680,
          "n": 1,
          "scriptPubKey": {
            "asm": "OP_DUP OP_HASH160 71f8f45d598afc4e41ddf678a9a64dba3229bdef OP_EQUALVERIFY OP_CHECKSIG",
            "hex": "76a91471f8f45d598afc4e41ddf678a9a64dba3229bdef88ac",
            "reqSigs": 1,
            "type": "pubkeyhash",
            "addresses": [
              "LVcarZ9vDBom19uLswT6HbFPUWoSFQRxTq"
            ]
          }
        }, 
        {
          "value": 4.77138399,
          "n": 2,
          "scriptPubKey": {
            "asm": "OP_DUP OP_HASH160 f3b0a5c92bd8dde85af52b1840796ab9d5ead757 OP_EQUALVERIFY OP_CHECKSIG",
            "hex": "76a914f3b0a5c92bd8dde85af52b1840796ab9d5ead75788ac",
            "reqSigs": 1,
            "type": "pubkeyhash",
            "addresses": [
              "LhSU5X1maWmfD23JkLZSVWMt8Mda813Sx1"
            ]
          }
        }, 
        {
          "value": 4.99000000,
          "n": 3,
          "scriptPubKey": {
            "asm": "OP_DUP OP_HASH160 2b87a3ba660c5ba6955223373c3c50a1f79c219c OP_EQUALVERIFY OP_CHECKSIG",
            "hex": "76a9142b87a3ba660c5ba6955223373c3c50a1f79c219c88ac",
            "reqSigs": 1,
            "type": "pubkeyhash",
            "addresses": [
              "LPC7os3zvWHqzqM9Ua7dwS2sHsnte99aAj"
            ]
          }
        }, 
        {
          "value": 0.19344026,
          "n": 4,
          "scriptPubKey": {
            "asm": "OP_DUP OP_HASH160 d8e3700010a8c538bc75994b6833b0d869962fd5 OP_EQUALVERIFY OP_CHECKSIG",
            "hex": "76a914d8e3700010a8c538bc75994b6833b0d869962fd588ac",
            "reqSigs": 1,
            "type": "pubkeyhash",
            "addresses": [
              "LezkgHNEiFattZbZ1S4NH36AtcBrswE5cS"
            ]
          }
        }, 
        {
          "value": 859.67486508,
          "n": 5,
          "scriptPubKey": {
            "asm": "OP_DUP OP_HASH160 d66db05feebf0d3e5c099dbe860b6d4a49726c14 OP_EQUALVERIFY OP_CHECKSIG",
            "hex": "76a914d66db05feebf0d3e5c099dbe860b6d4a49726c1488ac",
            "reqSigs": 1,
            "type": "pubkeyhash",
            "addresses": [
              "LemkGb2jgoqs3dRHudu4WdX5GcTbdsVCaZ"
            ]
          }
        }, 
        {
          "value": 0.32936140,
          "n": 6,
          "scriptPubKey": {
            "asm": "OP_DUP OP_HASH160 ad861b62dddccf32e00b0a19e6fb4ea2f9a951b6 OP_EQUALVERIFY OP_CHECKSIG",
            "hex": "76a914ad861b62dddccf32e00b0a19e6fb4ea2f9a951b688ac",
            "reqSigs": 1,
            "type": "pubkeyhash",
            "addresses": [
              "Lb3TpKGexxtCHfc2FCuqjPf752HAT1LkCr"
            ]
          }
        }, 
        {
          "value": 0.64647004,
          "n": 7,
          "scriptPubKey": {
            "asm": "OP_DUP OP_HASH160 37b7f536b5b164a9e739ee30b18319ef4a8a9d0e OP_EQUALVERIFY OP_CHECKSIG",
            "hex": "76a91437b7f536b5b164a9e739ee30b18319ef4a8a9d0e88ac",
            "reqSigs": 1,
            "type": "pubkeyhash",
            "addresses": [
              "LQJZoP1a4mXf7LDuEgqaQiqsQbEWXDQxf6"
            ]
          }
        }, 
        {
          "value": 4.99000000,
          "n": 8,
          "scriptPubKey": {
            "asm": "OP_DUP OP_HASH160 f2d9a5e824a19d461a7a0c56b59858621d04f644 OP_EQUALVERIFY OP_CHECKSIG",
            "hex": "76a914f2d9a5e824a19d461a7a0c56b59858621d04f64488ac",
            "reqSigs": 1,
            "type": "pubkeyhash",
            "addresses": [
              "LhN2X68SHD1rE9JcTNttGYqHsdXU1Ev6Y9"
            ]
          }
        }, 
        {
          "value": 0.24876398,
          "n": 9,
          "scriptPubKey": {
            "asm": "OP_DUP OP_HASH160 c53d7102be2a0ffb84af4930b184af05ec8cbeda OP_EQUALVERIFY OP_CHECKSIG",
            "hex": "76a914c53d7102be2a0ffb84af4930b184af05ec8cbeda88ac",
            "reqSigs": 1,
            "type": "pubkeyhash",
            "addresses": [
              "LdCrz2i3wzkx49JzEaqrgfAKjubn5QdtpC"
            ]
          }
        }, 
        {
          "value": 1.99000000,
          "n": 10,
          "scriptPubKey": {
            "asm": "OP_DUP OP_HASH160 4031bfd63a743d89c9ad298ca1420ccda18fe38a OP_EQUALVERIFY OP_CHECKSIG",
            "hex": "76a9144031bfd63a743d89c9ad298ca1420ccda18fe38a88ac",
            "reqSigs": 1,
            "type": "pubkeyhash",
            "addresses": [
              "LR5P78sMHtTR5biQpK8u5gyHRxrQfJMHTx"
            ]
          }
        }, 
        {
          "value": 8.70325460,
          "n": 11,
          "scriptPubKey": {
            "asm": "OP_DUP OP_HASH160 8ff569ac56aab6a1f036c2c81811631d7b33e203 OP_EQUALVERIFY OP_CHECKSIG",
            "hex": "76a9148ff569ac56aab6a1f036c2c81811631d7b33e20388ac",
            "reqSigs": 1,
            "type": "pubkeyhash",
            "addresses": [
              "LYM8tDx1AkqhaVrpHH2bLQ3L1ekecPM2w8"
            ]
          }
        }, 
        {
          "value": 0.34726891,
          "n": 12,
          "scriptPubKey": {
            "asm": "OP_DUP OP_HASH160 7c33d58cb1c1a231f8cfe6e9d84d29efbd751885 OP_EQUALVERIFY OP_CHECKSIG",
            "hex": "76a9147c33d58cb1c1a231f8cfe6e9d84d29efbd75188588ac",
            "reqSigs": 1,
            "type": "pubkeyhash",
            "addresses": [
              "LWYg9W4N4yxh2yMukLwHkkVbvWsVtCiGLo"
            ]
          }
        }, 
        {
          "value": 3.69436504,
          "n": 13,
          "scriptPubKey": {
            "asm": "OP_DUP OP_HASH160 f9871c6dd621879729cd7d502a5af822501cf2aa OP_EQUALVERIFY OP_CHECKSIG",
            "hex": "76a914f9871c6dd621879729cd7d502a5af822501cf2aa88ac",
            "reqSigs": 1,
            "type": "pubkeyhash",
            "addresses": [
              "LhyLNfBkoKshT7R8Pce6vkB9T2cP2o84hx"
            ]
          }
        }
      ],
      "hex": "01000000016543accf7d99afce56d1d989eda31787ea7da00a6188646032f13ffa399ecd28010000006b483045022100bec8b61b1bd0b389d8c9d2e72dac9c9f4d6887fe0fcf412efbd70cf35646ae5e0220143c0918693e588ab9166f551cd72675f67d974024f866e28519a504c9b0a27b012103f259d016919df3df1ba4c90ad2b8aea8515f0c77272002c7120e8eb2a567a915ffffffff0ee0f6a302000000001976a91485f8bcb464558bab0fefee0d655dcd014dee22fb88acd80cee40000000001976a91471f8f45d598afc4e41ddf678a9a64dba3229bdef88acdf8d701c000000001976a914f3b0a5c92bd8dde85af52b1840796ab9d5ead75788acc022be1d000000001976a9142b87a3ba660c5ba6955223373c3c50a1f79c219c88ac9a2a2701000000001976a914d8e3700010a8c538bc75994b6833b0d869962fd588ac2cbe0f04140000001976a914d66db05feebf0d3e5c099dbe860b6d4a49726c1488accc90f601000000001976a914ad861b62dddccf32e00b0a19e6fb4ea2f9a951b688ac5c6fda03000000001976a91437b7f536b5b164a9e739ee30b18319ef4a8a9d0e88acc022be1d000000001976a914f2d9a5e824a19d461a7a0c56b59858621d04f64488ac6e957b01000000001976a914c53d7102be2a0ffb84af4930b184af05ec8cbeda88acc07fdc0b000000001976a9144031bfd63a743d89c9ad298ca1420ccda18fe38a88acd41ce033000000001976a9148ff569ac56aab6a1f036c2c81811631d7b33e20388acebe31102000000001976a9147c33d58cb1c1a231f8cfe6e9d84d29efbd75188588ac58270516000000001976a914f9871c6dd621879729cd7d502a5af822501cf2aa88ac00000000"
    }, 
    {
      "txid": "af3ef0169d6b8c47bae9303b372d6311149b33a74cd8371d6ae2b7246c8d559c",
      "hash": "af3ef0169d6b8c47bae9303b372d6311149b33a74cd8371d6ae2b7246c8d559c",
      "version": 1,
      "size": 406,
      "vsize": 406,
      "locktime": 0,
      "vin": [
        {
          "txid": "cdadfcb512bf1e16a7f7e50766b86ab1e125bf1a836c326c7c650768fa702b50",
          "vout": 1,
          "scriptSig": {
            "asm": "30440220175ee9c6fe5fcbfe6a9397b56f6195a93836aaf253186af58f785ca4156771a102201ca479c532bcfcd4f597c071716dc24eff098d44a07ac511b98202fc3b04d4e9[ALL] 02245dd71340393676d080f80e392e53b55d9ff76ca3bcec3e13394fedc71e2eeb",
            "hex": "4730440220175ee9c6fe5fcbfe6a9397b56f6195a93836aaf253186af58f785ca4156771a102201ca479c532bcfcd4f597c071716dc24eff098d44a07ac511b98202fc3b04d4e9012102245dd71340393676d080f80e392e53b55d9ff76ca3bcec3e13394fedc71e2eeb"
          },
          "sequence": 4294967295
        }, 
        {
          "txid": "cdadfcb512bf1e16a7f7e50766b86ab1e125bf1a836c326c7c650768fa702b50",
          "vout": 2,
          "scriptSig": {
            "asm": "30440220491b8b7ed181eb3d50fe833369c120badd6fee5227c92db1e2d600bd3ad430bf02201028a0d58079d72566aef1d5add371c865f3c6c18adb0c13de0df442343cb693[ALL] 03bd3274e00cffee3d944e1887825e7b79f2586f7700afb6bb75f466e7ea76bc00",
            "hex": "4730440220491b8b7ed181eb3d50fe833369c120badd6fee5227c92db1e2d600bd3ad430bf02201028a0d58079d72566aef1d5add371c865f3c6c18adb0c13de0df442343cb693012103bd3274e00cffee3d944e1887825e7b79f2586f7700afb6bb75f466e7ea76bc00"
          },
          "sequence": 4294967295
        }
      ],
      "vout": [
        {
          "value": 0.01200000,
          "n": 0,
          "scriptPubKey": {
            "asm": "OP_DUP OP_HASH160 9960222472290a2bbbb4f73de9b9e38bb4c2284c OP_EQUALVERIFY OP_CHECKSIG",
            "hex": "76a9149960222472290a2bbbb4f73de9b9e38bb4c2284c88ac",
            "reqSigs": 1,
            "type": "pubkeyhash",
            "addresses": [
              "LZCvp2Vo9eG7gw98BNueKCRRvD7PAzXfJK"
            ]
          }
        }, 
        {
          "value": 20.60000000,
          "n": 1,
          "scriptPubKey": {
            "asm": "OP_DUP OP_HASH160 4da08c4e6e08740a14ccd0d6f668b2216876f2da OP_EQUALVERIFY OP_CHECKSIG",
            "hex": "76a9144da08c4e6e08740a14ccd0d6f668b2216876f2da88ac",
            "reqSigs": 1,
            "type": "pubkeyhash",
            "addresses": [
              "LSJQd4QYzHq6DbQSkNikBhhVH2C9v5Fxam"
            ]
          }
        }, 
        {
          "value": 0.37266000,
          "n": 2,
          "scriptPubKey": {
            "asm": "OP_DUP OP_HASH160 95a5b8af1860a113c375c8d7c0b245bff569b632 OP_EQUALVERIFY OP_CHECKSIG",
            "hex": "76a91495a5b8af1860a113c375c8d7c0b245bff569b63288ac",
            "reqSigs": 1,
            "type": "pubkeyhash",
            "addresses": [
              "LYsDUKdS4BNKNQ2yZb3LG8x3TCCmqfLPRB"
            ]
          }
        }
      ],
      "hex": "0100000002502b70fa6807657c6c326c831abf25e1b16ab86607e5f7a7161ebf12b5fcadcd010000006a4730440220175ee9c6fe5fcbfe6a9397b56f6195a93836aaf253186af58f785ca4156771a102201ca479c532bcfcd4f597c071716dc24eff098d44a07ac511b98202fc3b04d4e9012102245dd71340393676d080f80e392e53b55d9ff76ca3bcec3e13394fedc71e2eebffffffff502b70fa6807657c6c326c831abf25e1b16ab86607e5f7a7161ebf12b5fcadcd020000006a4730440220491b8b7ed181eb3d50fe833369c120badd6fee5227c92db1e2d600bd3ad430bf02201028a0d58079d72566aef1d5add371c865f3c6c18adb0c13de0df442343cb693012103bd3274e00cffee3d944e1887825e7b79f2586f7700afb6bb75f466e7ea76bc00ffffffff03804f1200000000001976a9149960222472290a2bbbb4f73de9b9e38bb4c2284c88ac001bc97a000000001976a9144da08c4e6e08740a14ccd0d6f668b2216876f2da88ac50a23802000000001976a91495a5b8af1860a113c375c8d7c0b245bff569b63288ac00000000"
    }, 
    {
      "txid": "520e8ba11e09113336456bf474470e3dada2a835a01d1f02d5295617fbefbd23",
      "hash": "520e8ba11e09113336456bf474470e3dada2a835a01d1f02d5295617fbefbd23",
      "version": 1,
      "size": 226,
      "vsize": 226,
      "locktime": 0,
      "vin": [
        {
          "txid": "4282b2e9fbf9e3cdcb11234d368477fb8df39e471a4d90f7175ec827e6b0af48",
          "vout": 1,
          "scriptSig": {
            "asm": "3045022100eb93582c4412ff5dcdb949fb33c5e3f7ba633dc61bb024e9af5e7e78905d82e5022058f0b18182a44338c246b49f884b18ea55ed5f72799349112f9bd0ff606adc34[ALL] 0384a9a36de00797765bb8cbd04dabb5aa68695b13ab3d76e64a85d79f0c76db7f",
            "hex": "483045022100eb93582c4412ff5dcdb949fb33c5e3f7ba633dc61bb024e9af5e7e78905d82e5022058f0b18182a44338c246b49f884b18ea55ed5f72799349112f9bd0ff606adc3401210384a9a36de00797765bb8cbd04dabb5aa68695b13ab3d76e64a85d79f0c76db7f"
          },
          "sequence": 4294967295
        }
      ],
      "vout": [
        {
          "value": 42.39266844,
          "n": 0,
          "scriptPubKey": {
            "asm": "OP_DUP OP_HASH160 8a4fd1372b1dd683fede7d68f2332fae2e9c9f71 OP_EQUALVERIFY OP_CHECKSIG",
            "hex": "76a9148a4fd1372b1dd683fede7d68f2332fae2e9c9f7188ac",
            "reqSigs": 1,
            "type": "pubkeyhash",
            "addresses": [
              "LXqH8V6ZtsHBrURFbVxHR59KA24qcdosN3"
            ]
          }
        }, 
        {
          "value": 7.74134912,
          "n": 1,
          "scriptPubKey": {
            "asm": "OP_DUP OP_HASH160 3131aa4cbb2f4448a710681ba91b6d28c8a90182 OP_EQUALVERIFY OP_CHECKSIG",
            "hex": "76a9143131aa4cbb2f4448a710681ba91b6d28c8a9018288ac",
            "reqSigs": 1,
            "type": "pubkeyhash",
            "addresses": [
              "LPi4sQweGoKDtgM9LanypBWR58FoYWPz53"
            ]
          }
        }
      ],
      "hex": "010000000148afb0e627c85e17f7904d1a479ef38dfb7784364d2311cbcde3f9fbe9b28242010000006b483045022100eb93582c4412ff5dcdb949fb33c5e3f7ba633dc61bb024e9af5e7e78905d82e5022058f0b18182a44338c246b49f884b18ea55ed5f72799349112f9bd0ff606adc3401210384a9a36de00797765bb8cbd04dabb5aa68695b13ab3d76e64a85d79f0c76db7fffffffff021c14aefc000000001976a9148a4fd1372b1dd683fede7d68f2332fae2e9c9f7188ac805c242e000000001976a9143131aa4cbb2f4448a710681ba91b6d28c8a9018288ac00000000"
    }, 
    {
      "txid": "7c98103ca89e91f79b1c7d3cc5986627de9815c1c2bf39688ed0ff92055a4834",
      "hash": "7c98103ca89e91f79b1c7d3cc5986627de9815c1c2bf39688ed0ff92055a4834",
      "version": 1,
      "size": 373,
      "vsize": 373,
      "locktime": 0,
      "vin": [
        {
          "txid": "a80e64402bf9227c919c18182ea8a5e2006ad773cb27210594108105db3fb674",
          "vout": 1,
          "scriptSig": {
            "asm": "304402207053324a7009075fc2d2ad63fe69013d61306d955540f6d2352468d499ba72660220254ca63e37ed27db80c496a66bf378248e8e511dd0b85c76fc2e662711db5209[ALL] 02e27d613e211b0cfd5e6424a48b43598e9c0afee4e6c6ad44c0cf597f5df2e749",
            "hex": "47304402207053324a7009075fc2d2ad63fe69013d61306d955540f6d2352468d499ba72660220254ca63e37ed27db80c496a66bf378248e8e511dd0b85c76fc2e662711db5209012102e27d613e211b0cfd5e6424a48b43598e9c0afee4e6c6ad44c0cf597f5df2e749"
          },
          "sequence": 4294967295
        }, 
        {
          "txid": "430b43ac4e34bf2f3083f4ed5b0f2f93719087a33ccf2d6671c36b2460ed5fa5",
          "vout": 32,
          "scriptSig": {
            "asm": "3045022100ad9c575dbf3e14330c4863c41383e054b77d48f9c9c6ed59520bf57a790f513402207dd0ed835fafb842f67bef27eb0ea2d4bf3d93fae9336a2f2e32db900ed4bf7a[ALL] 02104197d8dc02dc5db2ab207d08162127805f2c20917046d8cd99a7de124a2aea",
            "hex": "483045022100ad9c575dbf3e14330c4863c41383e054b77d48f9c9c6ed59520bf57a790f513402207dd0ed835fafb842f67bef27eb0ea2d4bf3d93fae9336a2f2e32db900ed4bf7a012102104197d8dc02dc5db2ab207d08162127805f2c20917046d8cd99a7de124a2aea"
          },
          "sequence": 4294967295
        }
      ],
      "vout": [
        {
          "value": 0.19900000,
          "n": 0,
          "scriptPubKey": {
            "asm": "OP_DUP OP_HASH160 7de1d9d5dce22122e3de726daeeb81409743e4bc OP_EQUALVERIFY OP_CHECKSIG",
            "hex": "76a9147de1d9d5dce22122e3de726daeeb81409743e4bc88ac",
            "reqSigs": 1,
            "type": "pubkeyhash",
            "addresses": [
              "LWhZHb71omFCsXN7jZyd6orFhvssLKaFo3"
            ]
          }
        }, 
        {
          "value": 0.06261249,
          "n": 1,
          "scriptPubKey": {
            "asm": "OP_DUP OP_HASH160 c6e3836c2f4cd8f9c53e32813ded99ac0ce001f1 OP_EQUALVERIFY OP_CHECKSIG",
            "hex": "76a914c6e3836c2f4cd8f9c53e32813ded99ac0ce001f188ac",
            "reqSigs": 1,
            "type": "pubkeyhash",
            "addresses": [
              "LdMac6qdwFnBCVXN96dvoPjzbcE36gzs64"
            ]
          }
        }
      ],
      "hex": "010000000274b63fdb05811094052127cb73d76a00e2a5a82e18189c917c22f92b40640ea8010000006a47304402207053324a7009075fc2d2ad63fe69013d61306d955540f6d2352468d499ba72660220254ca63e37ed27db80c496a66bf378248e8e511dd0b85c76fc2e662711db5209012102e27d613e211b0cfd5e6424a48b43598e9c0afee4e6c6ad44c0cf597f5df2e749ffffffffa55fed60246bc371662dcf3ca3879071932f0f5bedf483302fbf344eac430b43200000006b483045022100ad9c575dbf3e14330c4863c41383e054b77d48f9c9c6ed59520bf57a790f513402207dd0ed835fafb842f67bef27eb0ea2d4bf3d93fae9336a2f2e32db900ed4bf7a012102104197d8dc02dc5db2ab207d08162127805f2c20917046d8cd99a7de124a2aeaffffffff0260a62f01000000001976a9147de1d9d5dce22122e3de726daeeb81409743e4bc88ac018a5f00000000001976a914c6e3836c2f4cd8f9c53e32813ded99ac0ce001f188ac00000000"
    }, 
    {
      "txid": "b99874d3444081143399c08bdd34de75e988bd8f1a30d87a0df63f6b422a4659",
      "hash": "b99874d3444081143399c08bdd34de75e988bd8f1a30d87a0df63f6b422a4659",
      "version": 1,
      "size": 374,
      "vsize": 374,
      "locktime": 0,
      "vin": [
        {
          "txid": "213c0f9897cf9dc68e73f01ce3a7265d7d23d55b835f6a100c662dda2f8da5f1",
          "vout": 1,
          "scriptSig": {
            "asm": "3045022100930680a76eeb5a4fa1d019fa1f264b9c5d5fe35d921d711cc31c0171bb4f2759022078060832ff8fdfa193d6149f87b7127dd19a41268040303f0f1b4ffabbf2da50[ALL] 02c454f9489544b6db9992bff1eae0148b638f14236dbd1e85b7913f64cd971e86",
            "hex": "483045022100930680a76eeb5a4fa1d019fa1f264b9c5d5fe35d921d711cc31c0171bb4f2759022078060832ff8fdfa193d6149f87b7127dd19a41268040303f0f1b4ffabbf2da50012102c454f9489544b6db9992bff1eae0148b638f14236dbd1e85b7913f64cd971e86"
          },
          "sequence": 4294967295
        }, 
        {
          "txid": "95a311f7fd227a30a5956a423b7700fb125065a55f6a6bc34d5d20b7a323b081",
          "vout": 1,
          "scriptSig": {
            "asm": "304502210080a3ee8bbca416034e44fef45aa224a8ac748cdc048bd0c7000a9a3a7587a4530220401a4665dde950b2b46d98733aa03c949b693efc274f2c7cc9a36689b67bf236[ALL] 03a72af4d28aa6c2f7a5b08e0d3a6b5ef6590e38baed90a46f712d8088a71a2d15",
            "hex": "48304502210080a3ee8bbca416034e44fef45aa224a8ac748cdc048bd0c7000a9a3a7587a4530220401a4665dde950b2b46d98733aa03c949b693efc274f2c7cc9a36689b67bf236012103a72af4d28aa6c2f7a5b08e0d3a6b5ef6590e38baed90a46f712d8088a71a2d15"
          },
          "sequence": 4294967295
        }
      ],
      "vout": [
        {
          "value": 1.00000000,
          "n": 0,
          "scriptPubKey": {
            "asm": "OP_DUP OP_HASH160 85c11e0c4278aed760b8a1e417ab85a40209a19f OP_EQUALVERIFY OP_CHECKSIG",
            "hex": "76a91485c11e0c4278aed760b8a1e417ab85a40209a19f88ac",
            "reqSigs": 1,
            "type": "pubkeyhash",
            "addresses": [
              "LXRBUkrPbcwVrNQgSKxKrCZWVXSmjU49SZ"
            ]
          }
        }, 
        {
          "value": 2.80557668,
          "n": 1,
          "scriptPubKey": {
            "asm": "OP_DUP OP_HASH160 846d0d4d8ce3ba19ba73fab7fafeb0dc29a65133 OP_EQUALVERIFY OP_CHECKSIG",
            "hex": "76a914846d0d4d8ce3ba19ba73fab7fafeb0dc29a6513388ac",
            "reqSigs": 1,
            "type": "pubkeyhash",
            "addresses": [
              "LXJA6bdoDy9ZkTUyvd784JSmNXcpTLx2LD"
            ]
          }
        }
      ],
      "hex": "0100000002f1a58d2fda2d660c106a5f835bd5237d5d26a7e31cf0738ec69dcf97980f3c21010000006b483045022100930680a76eeb5a4fa1d019fa1f264b9c5d5fe35d921d711cc31c0171bb4f2759022078060832ff8fdfa193d6149f87b7127dd19a41268040303f0f1b4ffabbf2da50012102c454f9489544b6db9992bff1eae0148b638f14236dbd1e85b7913f64cd971e86ffffffff81b023a3b7205d4dc36b6a5fa5655012fb00773b426a95a5307a22fdf711a395010000006b48304502210080a3ee8bbca416034e44fef45aa224a8ac748cdc048bd0c7000a9a3a7587a4530220401a4665dde950b2b46d98733aa03c949b693efc274f2c7cc9a36689b67bf236012103a72af4d28aa6c2f7a5b08e0d3a6b5ef6590e38baed90a46f712d8088a71a2d15ffffffff0200e1f505000000001976a91485c11e0c4278aed760b8a1e417ab85a40209a19f88ac64f8b810000000001976a914846d0d4d8ce3ba19ba73fab7fafeb0dc29a6513388ac00000000"
    }, 
    {
      "txid": "b56d2e61ef4e33da7d87d6b4d210d806d331b2e261945d0b3a5bee34113dbf53",
      "hash": "b56d2e61ef4e33da7d87d6b4d210d806d331b2e261945d0b3a5bee34113dbf53",
      "version": 1,
      "size": 192,
      "vsize": 192,
      "locktime": 0,
      "vin": [
        {
          "txid": "38e33995c7d8ff5252fd8d5ed515fdb370208da8f448cee3070264d15577aba0",
          "vout": 0,
          "scriptSig": {
            "asm": "3045022100a5ae6824685bf9b7ba86b43ad41015ffc2b7843154013626eeb5b1d5d3c32a1902202ea4c6b6dd9aaf1ec27b4326e467be42846356247290a387b1037811f2758d50[ALL] 02e28789eb45fb4fbb3e4a737fb041eb132b5f6401ed635a3fae1ba1e93748e7e2",
            "hex": "483045022100a5ae6824685bf9b7ba86b43ad41015ffc2b7843154013626eeb5b1d5d3c32a1902202ea4c6b6dd9aaf1ec27b4326e467be42846356247290a387b1037811f2758d50012102e28789eb45fb4fbb3e4a737fb041eb132b5f6401ed635a3fae1ba1e93748e7e2"
          },
          "sequence": 4294967295
        }
      ],
      "vout": [
        {
          "value": 1.99980500,
          "n": 0,
          "scriptPubKey": {
            "asm": "OP_DUP OP_HASH160 d3f5a56c5fdc365c668f34080d2dfd13b39a1b4a OP_EQUALVERIFY OP_CHECKSIG",
            "hex": "76a914d3f5a56c5fdc365c668f34080d2dfd13b39a1b4a88ac",
            "reqSigs": 1,
            "type": "pubkeyhash",
            "addresses": [
              "LeYh7V74jWKWHNa7952nxjX99FneepofFT"
            ]
          }
        }
      ],
      "hex": "0100000001a0ab7755d1640207e3ce48f4a88d2070b3fd15d55e8dfd5252ffd8c79539e338000000006b483045022100a5ae6824685bf9b7ba86b43ad41015ffc2b7843154013626eeb5b1d5d3c32a1902202ea4c6b6dd9aaf1ec27b4326e467be42846356247290a387b1037811f2758d50012102e28789eb45fb4fbb3e4a737fb041eb132b5f6401ed635a3fae1ba1e93748e7e2ffffffff01d475eb0b000000001976a914d3f5a56c5fdc365c668f34080d2dfd13b39a1b4a88ac00000000"
    }, 
    {
      "txid": "4a69ea158a571a1e965563e8bc15a8ee7d3dc34472acf85f01dd1fe7e54e5f21",
      "hash": "4a69ea158a571a1e965563e8bc15a8ee7d3dc34472acf85f01dd1fe7e54e5f21",
      "version": 1,
      "size": 223,
      "vsize": 223,
      "locktime": 0,
      "vin": [
        {
          "txid": "0b7a5cd5822f69caafbb2b12baf9f402959fce4589111889ebbed5e59172c30a",
          "vout": 0,
          "scriptSig": {
            "asm": "304402201ca9fe6d5f1d45887a73428c61ae4ae155824e9d88cdbc096f5fe091f97877d602202993b5c1996eb3d6ad9b234adab3b8b63d07de6fc95514c795e4b777c042368b[ALL] 02de4405947efc5f24535f4943ef2977b298fc04cff0dad841c0082c6be5baaee6",
            "hex": "47304402201ca9fe6d5f1d45887a73428c61ae4ae155824e9d88cdbc096f5fe091f97877d602202993b5c1996eb3d6ad9b234adab3b8b63d07de6fc95514c795e4b777c042368b012102de4405947efc5f24535f4943ef2977b298fc04cff0dad841c0082c6be5baaee6"
          },
          "sequence": 4294967295
        }
      ],
      "vout": [
        {
          "value": 0.00701705,
          "n": 0,
          "scriptPubKey": {
            "asm": "OP_DUP OP_HASH160 a62242e79c49b76a1ed64031b83e2c5d12332955 OP_EQUALVERIFY OP_CHECKSIG",
            "hex": "76a914a62242e79c49b76a1ed64031b83e2c5d1233295588ac",
            "reqSigs": 1,
            "type": "pubkeyhash",
            "addresses": [
              "LaNPUaR91cbXeeYF3nquNbt9V1dMcgiZyB"
            ]
          }
        }, 
        {
          "value": 0.14070195,
          "n": 1,
          "scriptPubKey": {
            "asm": "OP_HASH160 0f33016e7ef0a30d9ad58866dee7c2f8d302d031 OP_EQUAL",
            "hex": "a9140f33016e7ef0a30d9ad58866dee7c2f8d302d03187",
            "reqSigs": 1,
            "type": "scripthash",
            "addresses": [
              "M9HXUEmyodk29xMWBBSNbJVNxvLxTJShsf"
            ]
          }
        }
      ],
      "hex": "01000000010ac37291e5d5beeb8918118945ce9f9502f4f9ba122bbbafca692f82d55c7a0b000000006a47304402201ca9fe6d5f1d45887a73428c61ae4ae155824e9d88cdbc096f5fe091f97877d602202993b5c1996eb3d6ad9b234adab3b8b63d07de6fc95514c795e4b777c042368b012102de4405947efc5f24535f4943ef2977b298fc04cff0dad841c0082c6be5baaee6ffffffff0209b50a00000000001976a914a62242e79c49b76a1ed64031b83e2c5d1233295588acb3b1d6000000000017a9140f33016e7ef0a30d9ad58866dee7c2f8d302d0318700000000"
    }, 
    {
      "txid": "ee4aa0bfdea75e1ede699001010fb7d62f5b09909127bc8508d8c85736cda442",
      "hash": "ee4aa0bfdea75e1ede699001010fb7d62f5b09909127bc8508d8c85736cda442",
      "version": 1,
      "size": 225,
      "vsize": 225,
      "locktime": 0,
      "vin": [
        {
          "txid": "be9cf4fef88440885756f7cf97d5b43245bcbeafb0d672ba309a091a382388d9",
          "vout": 0,
          "scriptSig": {
            "asm": "304402203191abab780e26d0a9a2ed43ecc5790c933d288451ef2f98fe6326dd588d773802200803e324d5b58a8f545ba14744e8015ed50aa0e804b3c7f961035638db31f272[ALL] 03b48479d0d1dafa6dc1f5306b952ff31054f9981ffd82d4d44548f1653effb632",
            "hex": "47304402203191abab780e26d0a9a2ed43ecc5790c933d288451ef2f98fe6326dd588d773802200803e324d5b58a8f545ba14744e8015ed50aa0e804b3c7f961035638db31f272012103b48479d0d1dafa6dc1f5306b952ff31054f9981ffd82d4d44548f1653effb632"
          },
          "sequence": 4294967295
        }
      ],
      "vout": [
        {
          "value": 0.33000000,
          "n": 0,
          "scriptPubKey": {
            "asm": "OP_DUP OP_HASH160 3c3a1876735f4640c8750da1797b5b04619dc49d OP_EQUALVERIFY OP_CHECKSIG",
            "hex": "76a9143c3a1876735f4640c8750da1797b5b04619dc49d88ac",
            "reqSigs": 1,
            "type": "pubkeyhash",
            "addresses": [
              "LQiQQGnQ9UCzneLfFiZxjvz42yLPzLAGDR"
            ]
          }
        }, 
        {
          "value": 0.06854800,
          "n": 1,
          "scriptPubKey": {
            "asm": "OP_DUP OP_HASH160 e0099c36b0f600f418c3cb5981abeefee37bc298 OP_EQUALVERIFY OP_CHECKSIG",
            "hex": "76a914e0099c36b0f600f418c3cb5981abeefee37bc29888ac",
            "reqSigs": 1,
            "type": "pubkeyhash",
            "addresses": [
              "LfeZ8urXXV6VxFknSbU3JrX87YcoNgo3mb"
            ]
          }
        }
      ],
      "hex": "0100000001d98823381a099a30ba72d6b0afbebc4532b4d597cff75657884084f8fef49cbe000000006a47304402203191abab780e26d0a9a2ed43ecc5790c933d288451ef2f98fe6326dd588d773802200803e324d5b58a8f545ba14744e8015ed50aa0e804b3c7f961035638db31f272012103b48479d0d1dafa6dc1f5306b952ff31054f9981ffd82d4d44548f1653effb632ffffffff02408af701000000001976a9143c3a1876735f4640c8750da1797b5b04619dc49d88ac90986800000000001976a914e0099c36b0f600f418c3cb5981abeefee37bc29888ac00000000"
    }, 
    {
      "txid": "9a68594fca7233bf55d5b08a5cd68cc5bd4a7dfe50d2e9f576903b3be27a1cb4",
      "hash": "9a68594fca7233bf55d5b08a5cd68cc5bd4a7dfe50d2e9f576903b3be27a1cb4",
      "version": 2,
      "size": 669,
      "vsize": 669,
      "locktime": 1359285,
      "vin": [
        {
          "txid": "04b948ddafd94201fdc8809f6d02cadcea6d13847e4cf2e5fafdb6dfef96784d",
          "vout": 0,
          "scriptSig": {
            "asm": "3045022100fddc3f689eb8029691c0d279a03c250ffb4d48dcc34fb1a446c08984f997b378022046bbef0d9176998c9c476011e03d24d4a31cf18555389f73b90f9134104415be[ALL] 038ba189913b42ac26de55ebefa5da329631634331b2d662d2d8e96fd1f2320511",
            "hex": "483045022100fddc3f689eb8029691c0d279a03c250ffb4d48dcc34fb1a446c08984f997b378022046bbef0d9176998c9c476011e03d24d4a31cf18555389f73b90f9134104415be0121038ba189913b42ac26de55ebefa5da329631634331b2d662d2d8e96fd1f2320511"
          },
          "sequence": 4294967294
        }, 
        {
          "txid": "264ca6d5dc6967c1b4883ffc7124525836ec74aa6e4213bfe4edec09baab7af5",
          "vout": 0,
          "scriptSig": {
            "asm": "3045022100eb87318f91b82a3b35e3b648c08f22dd25cfc64900a5b3e57f8610f99896dd070220712ec1a7674340e8b09956e4be379359ed766f7313badc3eef2d4dd7b4a148c9[ALL] 02302f41a1be7864c3780d48fa25681291048f15aff85b9a31aa902497b946f591",
            "hex": "483045022100eb87318f91b82a3b35e3b648c08f22dd25cfc64900a5b3e57f8610f99896dd070220712ec1a7674340e8b09956e4be379359ed766f7313badc3eef2d4dd7b4a148c9012102302f41a1be7864c3780d48fa25681291048f15aff85b9a31aa902497b946f591"
          },
          "sequence": 4294967294
        }, 
        {
          "txid": "6e7c61040c2f882d6d8eecdd0d2bf2a2058f4e032c642756b4af3a086f6801e2",
          "vout": 0,
          "scriptSig": {
            "asm": "304402200e6a24ffb6585ca01683768dae0a991e7ca38ed0fc04675b4f46663aa068335a0220362e2208070ada1665dc572ae84074d0db645cdc0c8244cd8adb93143ab8932f[ALL] 03af269a74097b9be6b81b7d93d8f9d6c2f2da015f0013f294be9a6ddb009bbea5",
            "hex": "47304402200e6a24ffb6585ca01683768dae0a991e7ca38ed0fc04675b4f46663aa068335a0220362e2208070ada1665dc572ae84074d0db645cdc0c8244cd8adb93143ab8932f012103af269a74097b9be6b81b7d93d8f9d6c2f2da015f0013f294be9a6ddb009bbea5"
          },
          "sequence": 4294967294
        }, 
        {
          "txid": "3d8ad0cc5a5437174a128ffaf2b731a35a653949fea3ca09fc368f818dacfc50",
          "vout": 5,
          "scriptSig": {
            "asm": "3045022100f03337ec2b4fd934f241be0b123b2fe75615c9cd21fa41267108753e67c37a8802206fc9e7301032a3bf8eded8e075b59f53ab21b14b606960befadba76a30477b7e[ALL] 038ba189913b42ac26de55ebefa5da329631634331b2d662d2d8e96fd1f2320511",
            "hex": "483045022100f03337ec2b4fd934f241be0b123b2fe75615c9cd21fa41267108753e67c37a8802206fc9e7301032a3bf8eded8e075b59f53ab21b14b606960befadba76a30477b7e0121038ba189913b42ac26de55ebefa5da329631634331b2d662d2d8e96fd1f2320511"
          },
          "sequence": 4294967294
        }
      ],
      "vout": [
        {
          "value": 2.00000000,
          "n": 0,
          "scriptPubKey": {
            "asm": "OP_DUP OP_HASH160 00c584e2260c146fd92b3827b9fbe365d41d240d OP_EQUALVERIFY OP_CHECKSIG",
            "hex": "76a91400c584e2260c146fd92b3827b9fbe365d41d240d88ac",
            "reqSigs": 1,
            "type": "pubkeyhash",
            "addresses": [
              "LKJ2t5Xyxjqt44rRNyFYU2Myp9Sd6K1thK"
            ]
          }
        }, 
        {
          "value": 0.00976212,
          "n": 1,
          "scriptPubKey": {
            "asm": "OP_DUP OP_HASH160 0f5731bdb95dc71f0faa5a70f27bddd09f54af02 OP_EQUALVERIFY OP_CHECKSIG",
            "hex": "76a9140f5731bdb95dc71f0faa5a70f27bddd09f54af0288ac",
            "reqSigs": 1,
            "type": "pubkeyhash",
            "addresses": [
              "LLd4rTSgjW9Bor2kD7m8zGY6anJMREEjfs"
            ]
          }
        }
      ],
      "hex": "02000000044d7896efdfb6fdfae5f24c7e84136deadcca026d9f80c8fd0142d9afdd48b904000000006b483045022100fddc3f689eb8029691c0d279a03c250ffb4d48dcc34fb1a446c08984f997b378022046bbef0d9176998c9c476011e03d24d4a31cf18555389f73b90f9134104415be0121038ba189913b42ac26de55ebefa5da329631634331b2d662d2d8e96fd1f2320511fefffffff57aabba09ecede4bf13426eaa74ec3658522471fc3f88b4c16769dcd5a64c26000000006b483045022100eb87318f91b82a3b35e3b648c08f22dd25cfc64900a5b3e57f8610f99896dd070220712ec1a7674340e8b09956e4be379359ed766f7313badc3eef2d4dd7b4a148c9012102302f41a1be7864c3780d48fa25681291048f15aff85b9a31aa902497b946f591feffffffe201686f083aafb45627642c034e8f05a2f22b0dddec8e6d2d882f0c04617c6e000000006a47304402200e6a24ffb6585ca01683768dae0a991e7ca38ed0fc04675b4f46663aa068335a0220362e2208070ada1665dc572ae84074d0db645cdc0c8244cd8adb93143ab8932f012103af269a74097b9be6b81b7d93d8f9d6c2f2da015f0013f294be9a6ddb009bbea5feffffff50fcac8d818f36fc09caa3fe4939655aa331b7f2fa8f124a1737545accd08a3d050000006b483045022100f03337ec2b4fd934f241be0b123b2fe75615c9cd21fa41267108753e67c37a8802206fc9e7301032a3bf8eded8e075b59f53ab21b14b606960befadba76a30477b7e0121038ba189913b42ac26de55ebefa5da329631634331b2d662d2d8e96fd1f2320511feffffff0200c2eb0b000000001976a91400c584e2260c146fd92b3827b9fbe365d41d240d88ac54e50e00000000001976a9140f5731bdb95dc71f0faa5a70f27bddd09f54af0288acb5bd1400"
    }, 
    {
      "txid": "01bbd070d9f7c228d362e6463262c7f3604c8b2993f6f45283b37d9dbb807f30",
      "hash": "01bbd070d9f7c228d362e6463262c7f3604c8b2993f6f45283b37d9dbb807f30",
      "version": 1,
      "size": 226,
      "vsize": 226,
      "locktime": 0,
      "vin": [
        {
          "txid": "d86b1419fa6cc6d44b4678c48fb3d06a01c044be945312fb5cdf18c9495ebd15",
          "vout": 1179,
          "scriptSig": {
            "asm": "3045022100f45d49fd6d6cf20c73f65ffb0732a478632881d02f70fb1eebc1eeb2b0fa6ffa02207eafbb7ca316c170888e584c8ccdcd0ebf07a61aae4f3d13dc99907460d79353[ALL] 02568003227e3a2b12343be0036f35bbace4524592bc742671a3a4cc03900ae6f4",
            "hex": "483045022100f45d49fd6d6cf20c73f65ffb0732a478632881d02f70fb1eebc1eeb2b0fa6ffa02207eafbb7ca316c170888e584c8ccdcd0ebf07a61aae4f3d13dc99907460d79353012102568003227e3a2b12343be0036f35bbace4524592bc742671a3a4cc03900ae6f4"
          },
          "sequence": 4294967295
        }
      ],
      "vout": [
        {
          "value": 0.03392703,
          "n": 0,
          "scriptPubKey": {
            "asm": "OP_DUP OP_HASH160 bbcd7f5d3c087f239a29cc5e32ca5164f2901c43 OP_EQUALVERIFY OP_CHECKSIG",
            "hex": "76a914bbcd7f5d3c087f239a29cc5e32ca5164f2901c4388ac",
            "reqSigs": 1,
            "type": "pubkeyhash",
            "addresses": [
              "LcLxoJXjHD8wtqNVQWuobCMMVgcuG4ryjw"
            ]
          }
        }, 
        {
          "value": 0.00064372,
          "n": 1,
          "scriptPubKey": {
            "asm": "OP_DUP OP_HASH160 9dfca3dfdcea69356e4db2dd027bcbf0d740f5eb OP_EQUALVERIFY OP_CHECKSIG",
            "hex": "76a9149dfca3dfdcea69356e4db2dd027bcbf0d740f5eb88ac",
            "reqSigs": 1,
            "type": "pubkeyhash",
            "addresses": [
              "LZdK15HUmnBVHcqzzchkiZJsrzXKuPDdoF"
            ]
          }
        }
      ],
      "hex": "010000000115bd5e49c918df5cfb125394be44c0016ad0b38fc478464bd4c66cfa19146bd89b0400006b483045022100f45d49fd6d6cf20c73f65ffb0732a478632881d02f70fb1eebc1eeb2b0fa6ffa02207eafbb7ca316c170888e584c8ccdcd0ebf07a61aae4f3d13dc99907460d79353012102568003227e3a2b12343be0036f35bbace4524592bc742671a3a4cc03900ae6f4ffffffff02bfc43300000000001976a914bbcd7f5d3c087f239a29cc5e32ca5164f2901c4388ac74fb0000000000001976a9149dfca3dfdcea69356e4db2dd027bcbf0d740f5eb88ac00000000"
    }, 
    {
      "txid": "e2a3d8033e8764d3d03d1fbccad7f4956f77ef1109586027ecec5f0115a0f449",
      "hash": "e2a3d8033e8764d3d03d1fbccad7f4956f77ef1109586027ecec5f0115a0f449",
      "version": 1,
      "size": 226,
      "vsize": 226,
      "locktime": 0,
      "vin": [
        {
          "txid": "41823d0cf2f78067e05228413a11db3c26d410d6e2f07aff53472ca55864ca9c",
          "vout": 0,
          "scriptSig": {
            "asm": "30450221009b7eb7347a62dd79bfcccd4e8c3a9b33e564f92c1938a9615dd257f57a68812a02207c774b32f9f167015cb49abca1f54d2629e2c96232a41cd7353000ce9bcc5df4[ALL] 02eebd883f5d103d38126a690d487ab95e880b23dc48a3923b24210f1b94aa1dbd",
            "hex": "4830450221009b7eb7347a62dd79bfcccd4e8c3a9b33e564f92c1938a9615dd257f57a68812a02207c774b32f9f167015cb49abca1f54d2629e2c96232a41cd7353000ce9bcc5df4012102eebd883f5d103d38126a690d487ab95e880b23dc48a3923b24210f1b94aa1dbd"
          },
          "sequence": 4294967295
        }
      ],
      "vout": [
        {
          "value": 0.52434020,
          "n": 0,
          "scriptPubKey": {
            "asm": "OP_DUP OP_HASH160 bee64832bf32a7b053fd06c88d3dec59443d8fef OP_EQUALVERIFY OP_CHECKSIG",
            "hex": "76a914bee64832bf32a7b053fd06c88d3dec59443d8fef88ac",
            "reqSigs": 1,
            "type": "pubkeyhash",
            "addresses": [
              "LcdLWwG8Gp9G5qTSLRd3s2rzv4ZvFwk9fg"
            ]
          }
        }, 
        {
          "value": 0.05890543,
          "n": 1,
          "scriptPubKey": {
            "asm": "OP_DUP OP_HASH160 7a0a60123cc6a65e13ab225a29282c844a543ec2 OP_EQUALVERIFY OP_CHECKSIG",
            "hex": "76a9147a0a60123cc6a65e13ab225a29282c844a543ec288ac",
            "reqSigs": 1,
            "type": "pubkeyhash",
            "addresses": [
              "LWMF8W9LzxCFWyKF6vLsBfaweeQPmRMj2W"
            ]
          }
        }
      ],
      "hex": "01000000019cca6458a52c4753ff7af0e2d610d4263cdb113a412852e06780f7f20c3d8241000000006b4830450221009b7eb7347a62dd79bfcccd4e8c3a9b33e564f92c1938a9615dd257f57a68812a02207c774b32f9f167015cb49abca1f54d2629e2c96232a41cd7353000ce9bcc5df4012102eebd883f5d103d38126a690d487ab95e880b23dc48a3923b24210f1b94aa1dbdffffffff0264142003000000001976a914bee64832bf32a7b053fd06c88d3dec59443d8fef88acefe15900000000001976a9147a0a60123cc6a65e13ab225a29282c844a543ec288ac00000000"
    }, 
    {
      "txid": "07c788bd6ef2f6989cde0c07c08340c03e965f1972193a9c452e02f555355561",
      "hash": "07c788bd6ef2f6989cde0c07c08340c03e965f1972193a9c452e02f555355561",
      "version": 1,
      "size": 226,
      "vsize": 226,
      "locktime": 0,
      "vin": [
        {
          "txid": "fbff9901a4851028ef0647c855f1f28643a52572465db00af2ca59a0b44ba7a5",
          "vout": 6,
          "scriptSig": {
            "asm": "3045022100cdbce7ff05fa82d13ef06e24c2f904bd7e968e8205403c66d9c79bbf70c0e4ee02207781c3c22c6380cd4d019c39721170a30d06ad82ffb3321f151e935af5fd777d[ALL] 027fe36bbb6f4a3c87e9a14a454c2c73bf3c089a918594ef0be98685247366b088",
            "hex": "483045022100cdbce7ff05fa82d13ef06e24c2f904bd7e968e8205403c66d9c79bbf70c0e4ee02207781c3c22c6380cd4d019c39721170a30d06ad82ffb3321f151e935af5fd777d0121027fe36bbb6f4a3c87e9a14a454c2c73bf3c089a918594ef0be98685247366b088"
          },
          "sequence": 4294967295
        }
      ],
      "vout": [
        {
          "value": 0.10000000,
          "n": 0,
          "scriptPubKey": {
            "asm": "OP_DUP OP_HASH160 d0d5fce283ff0a49a8d4830b9e903352131b3135 OP_EQUALVERIFY OP_CHECKSIG",
            "hex": "76a914d0d5fce283ff0a49a8d4830b9e903352131b313588ac",
            "reqSigs": 1,
            "type": "pubkeyhash",
            "addresses": [
              "LeGBAFPci4yJDLQAFeRJfbrSr9nU9NrHqs"
            ]
          }
        }, 
        {
          "value": 0.00855053,
          "n": 1,
          "scriptPubKey": {
            "asm": "OP_DUP OP_HASH160 995a57187ea44225e2e5360ae83c0bc687bbca12 OP_EQUALVERIFY OP_CHECKSIG",
            "hex": "76a914995a57187ea44225e2e5360ae83c0bc687bbca1288ac",
            "reqSigs": 1,
            "type": "pubkeyhash",
            "addresses": [
              "LZCosWcgGVyFpiffdXoFUNerXD4aX6Q1yq"
            ]
          }
        }
      ],
      "hex": "0100000001a5a74bb4a059caf20ab05d467225a54386f2f155c84706ef281085a40199fffb060000006b483045022100cdbce7ff05fa82d13ef06e24c2f904bd7e968e8205403c66d9c79bbf70c0e4ee02207781c3c22c6380cd4d019c39721170a30d06ad82ffb3321f151e935af5fd777d0121027fe36bbb6f4a3c87e9a14a454c2c73bf3c089a918594ef0be98685247366b088ffffffff0280969800000000001976a914d0d5fce283ff0a49a8d4830b9e903352131b313588ac0d0c0d00000000001976a914995a57187ea44225e2e5360ae83c0bc687bbca1288ac00000000"
    }
  ],
  "time": 1517262760,
  "mediantime": 1517262223,
  "nonce": 186398330,
  "bits": "1a042eae",
  "difficulty": 4011378.762614286,
  "chainwork": "000000000000000000000000000000000000000000000033dd64d4d0578805f2",
  "previousblockhash": "414a44f5f893f3f7a2a01bdea2ce363b3c7e41ca6b864e723145a7e930a8b2df",
  "nextblockhash": "31562f4c01596ebb65bea29952dd7b62e46911f66a537491e3c5e7932ae9d5a6"
}
