{
  "hash": "4f01eb790660d6e229d99002b80bb9dac123f0def51c3f94efae30fd311a07b6",
  "confirmations": 243,
  "strippedsize": 4543,
  "size": 4579,
  "weight": 18208,
  "height": 1360751,
  "version": 536870912,
  "versionHex": "20000000",
  "merkleroot": "20ceb7ebd29d29f1c1f96e99937410346239bcff905c77296773be24e4d9fd4c",
  "tx": [
    {
      "txid": "9ba093b23a916a24d079576195262f54a2030cf85eec6ba335e15f8951fd45cc",
      "hash": "6ea9584c7c966ad95455a0f2ea726e493c2d4540cea349a227d3c235e81e779b",
      "version": 1,
      "size": 236,
      "vsize": 209,
      "locktime": 0,
      "vin": [
        {
          "coinbase": "036fc314045a72dba42cfabe6d6d4e8ac6aaebb5ebd67f0b037472b75c78fd2f9c8bfa1905e485c23f8d0ba59f714000000000000000042f4c502f085800125702000000",
          "sequence": 4294967295
        }
      ],
      "vout": [
        {
          "value": 25.00220001,
          "n": 0,
          "scriptPubKey": {
            "asm": "OP_DUP OP_HASH160 57757ed2ecf2052ff3126c397aca7defb9ca2cec OP_EQUALVERIFY OP_CHECKSIG",
            "hex": "76a91457757ed2ecf2052ff3126c397aca7defb9ca2cec88ac",
            "reqSigs": 1,
            "type": "pubkeyhash",
            "addresses": [
              "LTCPodGk5FwcJaRzH9yKnwicxzFUbxp6tN"
            ]
          }
        }, 
        {
          "value": 0.00000000,
          "n": 1,
          "scriptPubKey": {
            "asm": "OP_RETURN aa21a9edc1a5920d68b9eac6ba8fc3948cf361baa7407181d79c7a0877eeb4508e48184f",
            "hex": "6a24aa21a9edc1a5920d68b9eac6ba8fc3948cf361baa7407181d79c7a0877eeb4508e48184f",
            "type": "nulldata"
          }
        }
      ],
      "hex": "010000000001010000000000000000000000000000000000000000000000000000000000000000ffffffff44036fc314045a72dba42cfabe6d6d4e8ac6aaebb5ebd67f0b037472b75c78fd2f9c8bfa1905e485c23f8d0ba59f714000000000000000042f4c502f085800125702000000ffffffff0261540695000000001976a91457757ed2ecf2052ff3126c397aca7defb9ca2cec88ac0000000000000000266a24aa21a9edc1a5920d68b9eac6ba8fc3948cf361baa7407181d79c7a0877eeb4508e48184f0120000000000000000000000000000000000000000000000000000000000000000000000000"
    }, 
    {
      "txid": "a6ec50b70af20521d626bc789b855628f8fdea294467b221a1a71d58f8b2ee87",
      "hash": "a6ec50b70af20521d626bc789b855628f8fdea294467b221a1a71d58f8b2ee87",
      "version": 1,
      "size": 1520,
      "vsize": 1520,
      "locktime": 0,
      "vin": [
        {
          "txid": "406aa0defce0cfb87e30649d27ec03544d36a27e84737f92d12879dac3a36c04",
          "vout": 169,
          "scriptSig": {
            "asm": "3045022100bb6b320849bd25100dc03f9280ec38dafebd98e1e54f5d94b94bb09e4c7e69d20220053fb80efce0010633982d6fcfd203b9050a512f405183c08eaf864c527d5d93[ALL] 02de42a215d9af97c52205f02b74f3e93c30903b8bf254db904849942bd897ade5",
            "hex": "483045022100bb6b320849bd25100dc03f9280ec38dafebd98e1e54f5d94b94bb09e4c7e69d20220053fb80efce0010633982d6fcfd203b9050a512f405183c08eaf864c527d5d93012102de42a215d9af97c52205f02b74f3e93c30903b8bf254db904849942bd897ade5"
          },
          "sequence": 4294967295
        }, 
        {
          "txid": "c1e82a72916dcfd91053a765a39e52bf11d548bee77306797e6767a9435eff6e",
          "vout": 134,
          "scriptSig": {
            "asm": "30450221009ee52786260a8eb787ce156da7c71a8a365bd4d1cc67d9db0b530aaf86a2704b022054414ce6e1f530389295f525e96a69e68a642ed6d21120dcb5d23eb9137f09a1[ALL] 03079e18a44df27dbf35a8ec4a2ca68b78d52bee6e4fc2f5f587ba17f580a44512",
            "hex": "4830450221009ee52786260a8eb787ce156da7c71a8a365bd4d1cc67d9db0b530aaf86a2704b022054414ce6e1f530389295f525e96a69e68a642ed6d21120dcb5d23eb9137f09a1012103079e18a44df27dbf35a8ec4a2ca68b78d52bee6e4fc2f5f587ba17f580a44512"
          },
          "sequence": 4294967295
        }, 
        {
          "txid": "2139ed0c6b0765b51d7d65e233c8bd69118daf587f311923e4a78aa03d3195e5",
          "vout": 129,
          "scriptSig": {
            "asm": "30440220128af5876949047669fdc8c5ce3c7461f0121d89a00698378c7d840b33a593a9022019dfec4d3643931ef04f2c86b360f596549864a266972a8ebfb7eff66fde5d0b[ALL] 03079e18a44df27dbf35a8ec4a2ca68b78d52bee6e4fc2f5f587ba17f580a44512",
            "hex": "4730440220128af5876949047669fdc8c5ce3c7461f0121d89a00698378c7d840b33a593a9022019dfec4d3643931ef04f2c86b360f596549864a266972a8ebfb7eff66fde5d0b012103079e18a44df27dbf35a8ec4a2ca68b78d52bee6e4fc2f5f587ba17f580a44512"
          },
          "sequence": 4294967295
        }, 
        {
          "txid": "54b5093890a5525cacf4252e54963c8ddfefae4396ebd967e7200f7c0ba3baae",
          "vout": 122,
          "scriptSig": {
            "asm": "304402203be3e53b5b7d09a5bf77d9fac77f2e772fc9e24ff19732527a641436351f80f902202688ccd7c2e088ddad506507607c54911dfe1e1880392cedd4166c86aedc78f9[ALL] 03079e18a44df27dbf35a8ec4a2ca68b78d52bee6e4fc2f5f587ba17f580a44512",
            "hex": "47304402203be3e53b5b7d09a5bf77d9fac77f2e772fc9e24ff19732527a641436351f80f902202688ccd7c2e088ddad506507607c54911dfe1e1880392cedd4166c86aedc78f9012103079e18a44df27dbf35a8ec4a2ca68b78d52bee6e4fc2f5f587ba17f580a44512"
          },
          "sequence": 4294967295
        }, 
        {
          "txid": "c13c66681d58913b28b261c8586fc2837b47be97f32edc785a0612fc7887ae1f",
          "vout": 124,
          "scriptSig": {
            "asm": "30450221009e5ef0fc9c2e410dfb540be660deb09905c357a59b0bdc4e4a6d2912252177e1022027b0e745e2a8b237f0b5135f9a7adc3c5d4ec11534bb79e683744c9f261a29ff[ALL] 03079e18a44df27dbf35a8ec4a2ca68b78d52bee6e4fc2f5f587ba17f580a44512",
            "hex": "4830450221009e5ef0fc9c2e410dfb540be660deb09905c357a59b0bdc4e4a6d2912252177e1022027b0e745e2a8b237f0b5135f9a7adc3c5d4ec11534bb79e683744c9f261a29ff012103079e18a44df27dbf35a8ec4a2ca68b78d52bee6e4fc2f5f587ba17f580a44512"
          },
          "sequence": 4294967295
        }, 
        {
          "txid": "e1e95d035aaa8076e5b6074c6790f5d57335539618c77d804031ea2777727ef1",
          "vout": 138,
          "scriptSig": {
            "asm": "3045022100b430c4354e9111f6bc8635348356064b411194948db5343b22766695d92df86202200e32e1362c378a0651e93d533558a223cfa8d480f44bdc5252f62926fb3ad46f[ALL] 03079e18a44df27dbf35a8ec4a2ca68b78d52bee6e4fc2f5f587ba17f580a44512",
            "hex": "483045022100b430c4354e9111f6bc8635348356064b411194948db5343b22766695d92df86202200e32e1362c378a0651e93d533558a223cfa8d480f44bdc5252f62926fb3ad46f012103079e18a44df27dbf35a8ec4a2ca68b78d52bee6e4fc2f5f587ba17f580a44512"
          },
          "sequence": 4294967295
        }, 
        {
          "txid": "3799131a734a8535516954a141d8ce5ee7827e26e5767de441e63d61af866d75",
          "vout": 130,
          "scriptSig": {
            "asm": "30440220225f7cbfa1af614615e33d6826e1d2e44ed4cdb8f5e8227b6f2e1f5fcedff26e022057a8ea02a7613a3615fb608e327b19da54a737cb6a8092b54530993cf394eea6[ALL] 03079e18a44df27dbf35a8ec4a2ca68b78d52bee6e4fc2f5f587ba17f580a44512",
            "hex": "4730440220225f7cbfa1af614615e33d6826e1d2e44ed4cdb8f5e8227b6f2e1f5fcedff26e022057a8ea02a7613a3615fb608e327b19da54a737cb6a8092b54530993cf394eea6012103079e18a44df27dbf35a8ec4a2ca68b78d52bee6e4fc2f5f587ba17f580a44512"
          },
          "sequence": 4294967295
        }, 
        {
          "txid": "30b88d5609c1481a0cdc808bf4bcabefe6231e3477c8c12d8f2864b44fe958d1",
          "vout": 133,
          "scriptSig": {
            "asm": "30450221008f03965aa918ba49356ffd286b10e896288e8ce37a683718b3f06449fb3b2dd4022012b0960f7149c8e11275170755f5b1bc51c47fdc132d27871e482dd9c4c69877[ALL] 03079e18a44df27dbf35a8ec4a2ca68b78d52bee6e4fc2f5f587ba17f580a44512",
            "hex": "4830450221008f03965aa918ba49356ffd286b10e896288e8ce37a683718b3f06449fb3b2dd4022012b0960f7149c8e11275170755f5b1bc51c47fdc132d27871e482dd9c4c69877012103079e18a44df27dbf35a8ec4a2ca68b78d52bee6e4fc2f5f587ba17f580a44512"
          },
          "sequence": 4294967295
        }, 
        {
          "txid": "fb97059a3dc4b75b128e17343e0fa1cd689713d7ba28bf4eb88014f1e8f68273",
          "vout": 125,
          "scriptSig": {
            "asm": "3045022100a3dce5f1573c1e1ff15af88a6cc4f3917f6aa17241a670125207a526a9b93aba02202c5f459b09a505bb55f5ed224c0debd674d00583acd498a0cf5ffb869c413198[ALL] 03079e18a44df27dbf35a8ec4a2ca68b78d52bee6e4fc2f5f587ba17f580a44512",
            "hex": "483045022100a3dce5f1573c1e1ff15af88a6cc4f3917f6aa17241a670125207a526a9b93aba02202c5f459b09a505bb55f5ed224c0debd674d00583acd498a0cf5ffb869c413198012103079e18a44df27dbf35a8ec4a2ca68b78d52bee6e4fc2f5f587ba17f580a44512"
          },
          "sequence": 4294967295
        }, 
        {
          "txid": "d93ee99d29696b40add075b187856c730f45ccd13a3dfb7637d11b09054a1e91",
          "vout": 138,
          "scriptSig": {
            "asm": "304402205f8c26b5cb17d4ed09c1693c7ab1502e78bd9bc2d0e169ee67159e0d2b28bb4802204603842b81533f0115db104eb11671d97704a1d803cf67188f29f8e2d157c60b[ALL] 03079e18a44df27dbf35a8ec4a2ca68b78d52bee6e4fc2f5f587ba17f580a44512",
            "hex": "47304402205f8c26b5cb17d4ed09c1693c7ab1502e78bd9bc2d0e169ee67159e0d2b28bb4802204603842b81533f0115db104eb11671d97704a1d803cf67188f29f8e2d157c60b012103079e18a44df27dbf35a8ec4a2ca68b78d52bee6e4fc2f5f587ba17f580a44512"
          },
          "sequence": 4294967295
        }
      ],
      "vout": [
        {
          "value": 0.63586325,
          "n": 0,
          "scriptPubKey": {
            "asm": "OP_DUP OP_HASH160 68370611695a967141dbbbe8cd2a41a6167cad27 OP_EQUALVERIFY OP_CHECKSIG",
            "hex": "76a91468370611695a967141dbbbe8cd2a41a6167cad2788ac",
            "reqSigs": 1,
            "type": "pubkeyhash",
            "addresses": [
              "LUizTH35he8itgP2cwdcAcgD3FqikkJaSF"
            ]
          }
        }
      ],
      "hex": "010000000a046ca3c3da7928d1927f73847ea2364d5403ec279d64307eb8cfe0fcdea06a40a90000006b483045022100bb6b320849bd25100dc03f9280ec38dafebd98e1e54f5d94b94bb09e4c7e69d20220053fb80efce0010633982d6fcfd203b9050a512f405183c08eaf864c527d5d93012102de42a215d9af97c52205f02b74f3e93c30903b8bf254db904849942bd897ade5ffffffff6eff5e43a967677e790673e7be48d511bf529ea365a75310d9cf6d91722ae8c1860000006b4830450221009ee52786260a8eb787ce156da7c71a8a365bd4d1cc67d9db0b530aaf86a2704b022054414ce6e1f530389295f525e96a69e68a642ed6d21120dcb5d23eb9137f09a1012103079e18a44df27dbf35a8ec4a2ca68b78d52bee6e4fc2f5f587ba17f580a44512ffffffffe595313da08aa7e42319317f58af8d1169bdc833e2657d1db565076b0ced3921810000006a4730440220128af5876949047669fdc8c5ce3c7461f0121d89a00698378c7d840b33a593a9022019dfec4d3643931ef04f2c86b360f596549864a266972a8ebfb7eff66fde5d0b012103079e18a44df27dbf35a8ec4a2ca68b78d52bee6e4fc2f5f587ba17f580a44512ffffffffaebaa30b7c0f20e767d9eb9643aeefdf8d3c96542e25f4ac5c52a5903809b5547a0000006a47304402203be3e53b5b7d09a5bf77d9fac77f2e772fc9e24ff19732527a641436351f80f902202688ccd7c2e088ddad506507607c54911dfe1e1880392cedd4166c86aedc78f9012103079e18a44df27dbf35a8ec4a2ca68b78d52bee6e4fc2f5f587ba17f580a44512ffffffff1fae8778fc12065a78dc2ef397be477b83c26f58c861b2283b91581d68663cc17c0000006b4830450221009e5ef0fc9c2e410dfb540be660deb09905c357a59b0bdc4e4a6d2912252177e1022027b0e745e2a8b237f0b5135f9a7adc3c5d4ec11534bb79e683744c9f261a29ff012103079e18a44df27dbf35a8ec4a2ca68b78d52bee6e4fc2f5f587ba17f580a44512fffffffff17e727727ea3140807dc71896533573d5f590674c07b6e57680aa5a035de9e18a0000006b483045022100b430c4354e9111f6bc8635348356064b411194948db5343b22766695d92df86202200e32e1362c378a0651e93d533558a223cfa8d480f44bdc5252f62926fb3ad46f012103079e18a44df27dbf35a8ec4a2ca68b78d52bee6e4fc2f5f587ba17f580a44512ffffffff756d86af613de641e47d76e5267e82e75eced841a154695135854a731a139937820000006a4730440220225f7cbfa1af614615e33d6826e1d2e44ed4cdb8f5e8227b6f2e1f5fcedff26e022057a8ea02a7613a3615fb608e327b19da54a737cb6a8092b54530993cf394eea6012103079e18a44df27dbf35a8ec4a2ca68b78d52bee6e4fc2f5f587ba17f580a44512ffffffffd158e94fb464288f2dc1c877341e23e6efabbcf48b80dc0c1a48c109568db830850000006b4830450221008f03965aa918ba49356ffd286b10e896288e8ce37a683718b3f06449fb3b2dd4022012b0960f7149c8e11275170755f5b1bc51c47fdc132d27871e482dd9c4c69877012103079e18a44df27dbf35a8ec4a2ca68b78d52bee6e4fc2f5f587ba17f580a44512ffffffff7382f6e8f11480b84ebf28bad7139768cda10f3e34178e125bb7c43d9a0597fb7d0000006b483045022100a3dce5f1573c1e1ff15af88a6cc4f3917f6aa17241a670125207a526a9b93aba02202c5f459b09a505bb55f5ed224c0debd674d00583acd498a0cf5ffb869c413198012103079e18a44df27dbf35a8ec4a2ca68b78d52bee6e4fc2f5f587ba17f580a44512ffffffff911e4a05091bd13776fb3d3ad1cc450f736c8587b175d0ad406b69299de93ed98a0000006a47304402205f8c26b5cb17d4ed09c1693c7ab1502e78bd9bc2d0e169ee67159e0d2b28bb4802204603842b81533f0115db104eb11671d97704a1d803cf67188f29f8e2d157c60b012103079e18a44df27dbf35a8ec4a2ca68b78d52bee6e4fc2f5f587ba17f580a44512ffffffff011540ca03000000001976a91468370611695a967141dbbbe8cd2a41a6167cad2788ac00000000"
    }, 
    {
      "txid": "16be1cef460d42ec97287284334addeb041177816067d945f08c612e271a6735",
      "hash": "16be1cef460d42ec97287284334addeb041177816067d945f08c612e271a6735",
      "version": 1,
      "size": 338,
      "vsize": 338,
      "locktime": 0,
      "vin": [
        {
          "txid": "2c87c66bb960e364c02bc435fc29b6e672a72d44abbf03e462ea99f76075b0a4",
          "vout": 12,
          "scriptSig": {
            "asm": "304402205c1437dd487483645070f0e0ff46719c3cef0fe685ca6ea6623dc4aa8e38f6220220745ac064b1b6725f1886330a0297734880da5925521abc7ffcfa3d8891c5cd27[ALL] 0296f25e86347106cb4906e0ddc011eaae2750166fe897996c69e411f092eed679",
            "hex": "47304402205c1437dd487483645070f0e0ff46719c3cef0fe685ca6ea6623dc4aa8e38f6220220745ac064b1b6725f1886330a0297734880da5925521abc7ffcfa3d8891c5cd2701210296f25e86347106cb4906e0ddc011eaae2750166fe897996c69e411f092eed679"
          },
          "sequence": 4294967295
        }, 
        {
          "txid": "d22582adac8708e698e474c8b1d0c19a0336eefd90e57a0a511530456aabd1ed",
          "vout": 1,
          "scriptSig": {
            "asm": "304402202f38d7de349f6ce1596686df28df70df11d789e07f530f7485f6e9e2ad4bb7c802201a5bd0c95c251decf7731a058d8388edf262bfb6a3c7fa340895a27072f8c923[ALL] 0380a226ebede2ade02536dc380d295a6f69b794df73316f9c6aabb4ff52105d1c",
            "hex": "47304402202f38d7de349f6ce1596686df28df70df11d789e07f530f7485f6e9e2ad4bb7c802201a5bd0c95c251decf7731a058d8388edf262bfb6a3c7fa340895a27072f8c92301210380a226ebede2ade02536dc380d295a6f69b794df73316f9c6aabb4ff52105d1c"
          },
          "sequence": 4294967295
        }
      ],
      "vout": [
        {
          "value": 3.77519249,
          "n": 0,
          "scriptPubKey": {
            "asm": "OP_DUP OP_HASH160 bdcdbea1aa1300fa188062ff23611a880e621f43 OP_EQUALVERIFY OP_CHECKSIG",
            "hex": "76a914bdcdbea1aa1300fa188062ff23611a880e621f4388ac",
            "reqSigs": 1,
            "type": "pubkeyhash",
            "addresses": [
              "LcXYSrj6fBGGt9KgEPoTf57HprDutbqoxP"
            ]
          }
        }
      ],
      "hex": "0100000002a4b07560f799ea62e403bfab442da772e6b629fc35c42bc064e360b96bc6872c0c0000006a47304402205c1437dd487483645070f0e0ff46719c3cef0fe685ca6ea6623dc4aa8e38f6220220745ac064b1b6725f1886330a0297734880da5925521abc7ffcfa3d8891c5cd2701210296f25e86347106cb4906e0ddc011eaae2750166fe897996c69e411f092eed679ffffffffedd1ab6a453015510a7ae590fdee36039ac1d0b1c874e498e60887acad8225d2010000006a47304402202f38d7de349f6ce1596686df28df70df11d789e07f530f7485f6e9e2ad4bb7c802201a5bd0c95c251decf7731a058d8388edf262bfb6a3c7fa340895a27072f8c92301210380a226ebede2ade02536dc380d295a6f69b794df73316f9c6aabb4ff52105d1cffffffff01917c8016000000001976a914bdcdbea1aa1300fa188062ff23611a880e621f4388ac00000000"
    }, 
    {
      "txid": "d18e959e20094aa3c4478cad50e09a5a321e3432aa18aa2f1bbdb7d3e847a7ad",
      "hash": "d18e959e20094aa3c4478cad50e09a5a321e3432aa18aa2f1bbdb7d3e847a7ad",
      "version": 1,
      "size": 2404,
      "vsize": 2404,
      "locktime": 0,
      "vin": [
        {
          "txid": "510bb1ac1fa8016841e70b4af5c01e98107ac690ae80992ee2516d3e5222fa50",
          "vout": 0,
          "scriptSig": {
            "asm": "3045022100ceee9f457cadcd50d68529cbfcb74ae7955b605fc79cbe04aaa0b933369bd65602205c9cbca4f6c9de26f0f4b2f426ca487264aef2ef10a36c8024f5717a12c90fa6[ALL] 0222365ce27eb7fc9762f97712e6d20e2b7be8887e5afd78ada619d9abbb84bd61",
            "hex": "483045022100ceee9f457cadcd50d68529cbfcb74ae7955b605fc79cbe04aaa0b933369bd65602205c9cbca4f6c9de26f0f4b2f426ca487264aef2ef10a36c8024f5717a12c90fa601210222365ce27eb7fc9762f97712e6d20e2b7be8887e5afd78ada619d9abbb84bd61"
          },
          "sequence": 4294967295
        }, 
        {
          "txid": "e49a2535197a58376c29a10d94a43e8215b0b27c942b5488611cc78551c187a1",
          "vout": 0,
          "scriptSig": {
            "asm": "3044022001709823386acd72146fdc717184c20a2c708e2b115c01073c48bb2dcf9f0489022001db39ff26bb282e19a729a3ee2717f58b55530eb77abc7fe5b929e09e92b890[ALL] 03a101d6d895b4a85862d36adfe7f6a222201de80bb3cb485294be8364a5b4e1b6",
            "hex": "473044022001709823386acd72146fdc717184c20a2c708e2b115c01073c48bb2dcf9f0489022001db39ff26bb282e19a729a3ee2717f58b55530eb77abc7fe5b929e09e92b890012103a101d6d895b4a85862d36adfe7f6a222201de80bb3cb485294be8364a5b4e1b6"
          },
          "sequence": 4294967295
        }, 
        {
          "txid": "a97b1fd35a95814e2df653cb7c09568c439bec6d9f566b160aac493237503757",
          "vout": 0,
          "scriptSig": {
            "asm": "3044022079abb23c8b8f6aa4c4e886e92888d99ba8aa66027883afe67ea9727b5a6b60ad022007af576288db719547741a9d265eddabe7f4ff5d1aa77b0c8bc4adcda3737c93[ALL] 02802546cac17d9b8ef65a11421984987706c512a394a100ec8b975c7b9883e574",
            "hex": "473044022079abb23c8b8f6aa4c4e886e92888d99ba8aa66027883afe67ea9727b5a6b60ad022007af576288db719547741a9d265eddabe7f4ff5d1aa77b0c8bc4adcda3737c93012102802546cac17d9b8ef65a11421984987706c512a394a100ec8b975c7b9883e574"
          },
          "sequence": 4294967295
        }, 
        {
          "txid": "221658b3975c02b66ff10b88798f230803396bb8f962434f07aef62b86bc1daa",
          "vout": 0,
          "scriptSig": {
            "asm": "3044022036edb2a0e0a3ef0bc2f03c69d0786dc126fd551ac014cfe701e89d4b687efc2902200c15a5e4e0c7e2050642f3b26a2dfaaddc7c2400714f2c2d5704cf480b7ccec1[ALL] 031a148c359133082f47bbc0b48c6bc46ea5537386edba80fe321a51e890fc7da3",
            "hex": "473044022036edb2a0e0a3ef0bc2f03c69d0786dc126fd551ac014cfe701e89d4b687efc2902200c15a5e4e0c7e2050642f3b26a2dfaaddc7c2400714f2c2d5704cf480b7ccec10121031a148c359133082f47bbc0b48c6bc46ea5537386edba80fe321a51e890fc7da3"
          },
          "sequence": 4294967295
        }, 
        {
          "txid": "0a6e114868f029eb2864707e696240bebfdf76143db9ead38b63f65aeb24b54d",
          "vout": 0,
          "scriptSig": {
            "asm": "3045022100e2bed5e7515b4f2e6fc2d0791577f32622f21fb3428673c074eca5bbcaf4e582022036b835c1ddc864812c67bc4277d5ca3c09bd5e7c8aafa87c824dcbd7ec7e87c8[ALL] 0383a500790f560b619535aa5634ea7a7b4093a511ebb91d1afac54cdc41c87c6c",
            "hex": "483045022100e2bed5e7515b4f2e6fc2d0791577f32622f21fb3428673c074eca5bbcaf4e582022036b835c1ddc864812c67bc4277d5ca3c09bd5e7c8aafa87c824dcbd7ec7e87c801210383a500790f560b619535aa5634ea7a7b4093a511ebb91d1afac54cdc41c87c6c"
          },
          "sequence": 4294967295
        }, 
        {
          "txid": "75fc95160060bd459b49c722f15ab64d96c3812bd13a07594fba7903ed0a1eba",
          "vout": 0,
          "scriptSig": {
            "asm": "304402204682188a52978b52522661286884b48de2278bea73a7f2af581530108b5d920602203ef8fff666d29347ed527794614cd332312a28433a18ff29c1034d7a9adee32d[ALL] 03a101d6d895b4a85862d36adfe7f6a222201de80bb3cb485294be8364a5b4e1b6",
            "hex": "47304402204682188a52978b52522661286884b48de2278bea73a7f2af581530108b5d920602203ef8fff666d29347ed527794614cd332312a28433a18ff29c1034d7a9adee32d012103a101d6d895b4a85862d36adfe7f6a222201de80bb3cb485294be8364a5b4e1b6"
          },
          "sequence": 4294967295
        }, 
        {
          "txid": "44e91294924d96dcf783864496287b27b7c0b69030d9d83c63477189bd77bac1",
          "vout": 0,
          "scriptSig": {
            "asm": "3045022100c224289a6684d4fab1245b5fe18b7c47dc101783db4c43840275e4558de5199f02202f190c381fe8b12452450b7e1f263c789a083b788466167855336836916bece4[ALL] 021b83d3643165524f1a2a1844220ab99506a9874fea3c7724925f6db9d45ccbf7",
            "hex": "483045022100c224289a6684d4fab1245b5fe18b7c47dc101783db4c43840275e4558de5199f02202f190c381fe8b12452450b7e1f263c789a083b788466167855336836916bece40121021b83d3643165524f1a2a1844220ab99506a9874fea3c7724925f6db9d45ccbf7"
          },
          "sequence": 4294967295
        }, 
        {
          "txid": "62b67ec417d48eff405543facb55ce7404b3d366afca4ee203408441404823b2",
          "vout": 56,
          "scriptSig": {
            "asm": "304502210087c5c8d4343ab5e08661cf6c3c4faf3500a956af88c86a29337e40d1005485e1022058d77019a1fd06b6a69bfc1a369f3bb45f169145aa9d7bffcc52c43a64eb8c06[ALL] 02e1f85f3a3f15d81f6b8ef7f1043ad5aad2ee642f6ce739ee60bbac1bc872984f",
            "hex": "48304502210087c5c8d4343ab5e08661cf6c3c4faf3500a956af88c86a29337e40d1005485e1022058d77019a1fd06b6a69bfc1a369f3bb45f169145aa9d7bffcc52c43a64eb8c06012102e1f85f3a3f15d81f6b8ef7f1043ad5aad2ee642f6ce739ee60bbac1bc872984f"
          },
          "sequence": 4294967295
        }, 
        {
          "txid": "31952c42112a73e99e70442e7346661859bf65dd74c40fcd51e73ff591c8d38e",
          "vout": 1,
          "scriptSig": {
            "asm": "3044022012f76cfc333e014b2339dbc18284641800d8d173156a567307df4e2bf4b0a76102202e696c058f79372b0880c6e8d589b3ea86203010b680ea0ecf182e83c75d22eb[ALL] 02be98fdd2993c7c2c870b4188b4970b155de08f853be8d4a6bee5f108dc961fc7",
            "hex": "473044022012f76cfc333e014b2339dbc18284641800d8d173156a567307df4e2bf4b0a76102202e696c058f79372b0880c6e8d589b3ea86203010b680ea0ecf182e83c75d22eb012102be98fdd2993c7c2c870b4188b4970b155de08f853be8d4a6bee5f108dc961fc7"
          },
          "sequence": 4294967295
        }, 
        {
          "txid": "aaf9c56ef3282ccb3bf6e6b718058b9e35e89a075fabc6b310b5c3280c729d34",
          "vout": 0,
          "scriptSig": {
            "asm": "30450221009cf015a43d039562f681780c14ab07ba6417cc0001fca0c9d6680bf37f00d5cf022006f5c324d2620b7e545c71a2c82890fa18ffde45ba488482523aa4f0a0e0a2ed[ALL] 030f84475239ce913a664cab846223c7976ee2ab431f487f4b3fde6ac50a7ba1ef",
            "hex": "4830450221009cf015a43d039562f681780c14ab07ba6417cc0001fca0c9d6680bf37f00d5cf022006f5c324d2620b7e545c71a2c82890fa18ffde45ba488482523aa4f0a0e0a2ed0121030f84475239ce913a664cab846223c7976ee2ab431f487f4b3fde6ac50a7ba1ef"
          },
          "sequence": 4294967295
        }, 
        {
          "txid": "b08b625ed36404f408e78da84bdf1c145e917bbb5a1dbb043265e18869468c45",
          "vout": 0,
          "scriptSig": {
            "asm": "3044022060cca2e7f12c7f7d156387a0b7e19954bb32f40a6c465c826f20220dc7dbdbbc02205e3bf31f93451e137c6ba05ccfa9e23178ce9d95c3709c187112d3e731f93125[ALL] 03d98cbbd6098767a2de923e8f615ea3600a972e813ac5f1e551d0b175ba6715eb",
            "hex": "473044022060cca2e7f12c7f7d156387a0b7e19954bb32f40a6c465c826f20220dc7dbdbbc02205e3bf31f93451e137c6ba05ccfa9e23178ce9d95c3709c187112d3e731f93125012103d98cbbd6098767a2de923e8f615ea3600a972e813ac5f1e551d0b175ba6715eb"
          },
          "sequence": 4294967295
        }, 
        {
          "txid": "25c34fe32d9d03f16b45219cb4d77cba17c8be41b7bf1b9757408ac8e90093b7",
          "vout": 1,
          "scriptSig": {
            "asm": "3045022100a375880121f461612147025e1749c15bf770c3e24280c235cee0d4eb7bcdf453022030cc4f1dd19e507ff8604765ab9eb2f4c285090447c30d72da27146798714972[ALL] 02593c80d1c42dfe63760aacb7f069c79ea6115e0b2f6d265b452d55ea9fd0a959",
            "hex": "483045022100a375880121f461612147025e1749c15bf770c3e24280c235cee0d4eb7bcdf453022030cc4f1dd19e507ff8604765ab9eb2f4c285090447c30d72da27146798714972012102593c80d1c42dfe63760aacb7f069c79ea6115e0b2f6d265b452d55ea9fd0a959"
          },
          "sequence": 4294967295
        }, 
        {
          "txid": "329d78650b8a7a09872198d315454fc5717099c386079a1456f0e58d236094f1",
          "vout": 0,
          "scriptSig": {
            "asm": "3045022100de4ab5c7e71fb2d49ccdcdf4b2a10be836e3aeee788b1b2f97916c14bbb394d8022076f58c4aa43d4936c79e5099ca38b6d4d307d7a7a09e974f6ccc62f3071e4ad5[ALL] 03a6c2ed089d340fa6b9004e29a7db024b8cfa6fc077187291db8a90de70793338",
            "hex": "483045022100de4ab5c7e71fb2d49ccdcdf4b2a10be836e3aeee788b1b2f97916c14bbb394d8022076f58c4aa43d4936c79e5099ca38b6d4d307d7a7a09e974f6ccc62f3071e4ad5012103a6c2ed089d340fa6b9004e29a7db024b8cfa6fc077187291db8a90de70793338"
          },
          "sequence": 4294967295
        }, 
        {
          "txid": "7499a29b2531abf31391f0c970a1c9d4f8fa14b4f761628808ed29499d11d25e",
          "vout": 1,
          "scriptSig": {
            "asm": "3045022100b85c6484892e8e0e948ea160dfe084bbbdbc1a92ffe2d9cd95ee25b6b694ee240220472b2e92c75927d4082fb163bf38be044c635f615a772adff7f476909491a370[ALL] 0265130f43e8b47c62be94ece2418fa9f10a08071d9e673d9b075ce190b30d68ab",
            "hex": "483045022100b85c6484892e8e0e948ea160dfe084bbbdbc1a92ffe2d9cd95ee25b6b694ee240220472b2e92c75927d4082fb163bf38be044c635f615a772adff7f476909491a37001210265130f43e8b47c62be94ece2418fa9f10a08071d9e673d9b075ce190b30d68ab"
          },
          "sequence": 4294967295
        }, 
        {
          "txid": "c8b6ef84437a6aef7c76fcaad4f5cb818bfa8b6a357eaf0f6ca8b74f4ef2db30",
          "vout": 1,
          "scriptSig": {
            "asm": "30440220694a375d672f355178490777d5139b4d431af54528d979ac49812bc86c545d4d0220622c9acc54857c3747eba7a3562a53ca0a1d2e7d5214dcad282e6b9bad071f32[ALL] 0381ecbe7fec241556d513ff3c0e5805f2f06cfb29b3435ef8f3b62dfef58f3d73",
            "hex": "4730440220694a375d672f355178490777d5139b4d431af54528d979ac49812bc86c545d4d0220622c9acc54857c3747eba7a3562a53ca0a1d2e7d5214dcad282e6b9bad071f3201210381ecbe7fec241556d513ff3c0e5805f2f06cfb29b3435ef8f3b62dfef58f3d73"
          },
          "sequence": 4294967295
        }, 
        {
          "txid": "02b157e2532cbdbcc44b268a06a4221bc52474e435fe245adad0a3646d2a636b",
          "vout": 1,
          "scriptSig": {
            "asm": "304402204f6de2ad5568a2fbc9b4f00ce2984ac5b203aaed7768a0341de4892e2e38aa0802200269afcfc5fbb604ac3d57772cd3d13d94ff25cacab9ed6ac0ccc67badaa66ed[ALL] 03e60f5151c18cb44f94d537eecda12f9893ad1126c0451e467d190270137ea662",
            "hex": "47304402204f6de2ad5568a2fbc9b4f00ce2984ac5b203aaed7768a0341de4892e2e38aa0802200269afcfc5fbb604ac3d57772cd3d13d94ff25cacab9ed6ac0ccc67badaa66ed012103e60f5151c18cb44f94d537eecda12f9893ad1126c0451e467d190270137ea662"
          },
          "sequence": 4294967295
        }
      ],
      "vout": [
        {
          "value": 23.38502045,
          "n": 0,
          "scriptPubKey": {
            "asm": "OP_DUP OP_HASH160 6c2614c7b45ef8dfa8dc83e6739ddbe201d05ab0 OP_EQUALVERIFY OP_CHECKSIG",
            "hex": "76a9146c2614c7b45ef8dfa8dc83e6739ddbe201d05ab088ac",
            "reqSigs": 1,
            "type": "pubkeyhash",
            "addresses": [
              "LV5nrreyVZJVvptA9PZSD4ViegKh7Qa8MA"
            ]
          }
        }
      ],
      "hex": "010000001050fa22523e6d51e22e9980ae90c67a10981ec0f54a0be7416801a81facb10b51000000006b483045022100ceee9f457cadcd50d68529cbfcb74ae7955b605fc79cbe04aaa0b933369bd65602205c9cbca4f6c9de26f0f4b2f426ca487264aef2ef10a36c8024f5717a12c90fa601210222365ce27eb7fc9762f97712e6d20e2b7be8887e5afd78ada619d9abbb84bd61ffffffffa187c15185c71c6188542b947cb2b015823ea4940da1296c37587a1935259ae4000000006a473044022001709823386acd72146fdc717184c20a2c708e2b115c01073c48bb2dcf9f0489022001db39ff26bb282e19a729a3ee2717f58b55530eb77abc7fe5b929e09e92b890012103a101d6d895b4a85862d36adfe7f6a222201de80bb3cb485294be8364a5b4e1b6ffffffff573750373249ac0a166b569f6dec9b438c56097ccb53f62d4e81955ad31f7ba9000000006a473044022079abb23c8b8f6aa4c4e886e92888d99ba8aa66027883afe67ea9727b5a6b60ad022007af576288db719547741a9d265eddabe7f4ff5d1aa77b0c8bc4adcda3737c93012102802546cac17d9b8ef65a11421984987706c512a394a100ec8b975c7b9883e574ffffffffaa1dbc862bf6ae074f4362f9b86b390308238f79880bf16fb6025c97b3581622000000006a473044022036edb2a0e0a3ef0bc2f03c69d0786dc126fd551ac014cfe701e89d4b687efc2902200c15a5e4e0c7e2050642f3b26a2dfaaddc7c2400714f2c2d5704cf480b7ccec10121031a148c359133082f47bbc0b48c6bc46ea5537386edba80fe321a51e890fc7da3ffffffff4db524eb5af6638bd3eab93d1476dfbfbe4062697e706428eb29f06848116e0a000000006b483045022100e2bed5e7515b4f2e6fc2d0791577f32622f21fb3428673c074eca5bbcaf4e582022036b835c1ddc864812c67bc4277d5ca3c09bd5e7c8aafa87c824dcbd7ec7e87c801210383a500790f560b619535aa5634ea7a7b4093a511ebb91d1afac54cdc41c87c6cffffffffba1e0aed0379ba4f59073ad12b81c3964db65af122c7499b45bd60001695fc75000000006a47304402204682188a52978b52522661286884b48de2278bea73a7f2af581530108b5d920602203ef8fff666d29347ed527794614cd332312a28433a18ff29c1034d7a9adee32d012103a101d6d895b4a85862d36adfe7f6a222201de80bb3cb485294be8364a5b4e1b6ffffffffc1ba77bd897147633cd8d93090b6c0b7277b2896448683f7dc964d929412e944000000006b483045022100c224289a6684d4fab1245b5fe18b7c47dc101783db4c43840275e4558de5199f02202f190c381fe8b12452450b7e1f263c789a083b788466167855336836916bece40121021b83d3643165524f1a2a1844220ab99506a9874fea3c7724925f6db9d45ccbf7ffffffffb223484041844003e24ecaaf66d3b30474ce55cbfa435540ff8ed417c47eb662380000006b48304502210087c5c8d4343ab5e08661cf6c3c4faf3500a956af88c86a29337e40d1005485e1022058d77019a1fd06b6a69bfc1a369f3bb45f169145aa9d7bffcc52c43a64eb8c06012102e1f85f3a3f15d81f6b8ef7f1043ad5aad2ee642f6ce739ee60bbac1bc872984fffffffff8ed3c891f53fe751cd0fc474dd65bf59186646732e44709ee9732a11422c9531010000006a473044022012f76cfc333e014b2339dbc18284641800d8d173156a567307df4e2bf4b0a76102202e696c058f79372b0880c6e8d589b3ea86203010b680ea0ecf182e83c75d22eb012102be98fdd2993c7c2c870b4188b4970b155de08f853be8d4a6bee5f108dc961fc7ffffffff349d720c28c3b510b3c6ab5f079ae8359e8b0518b7e6f63bcb2c28f36ec5f9aa000000006b4830450221009cf015a43d039562f681780c14ab07ba6417cc0001fca0c9d6680bf37f00d5cf022006f5c324d2620b7e545c71a2c82890fa18ffde45ba488482523aa4f0a0e0a2ed0121030f84475239ce913a664cab846223c7976ee2ab431f487f4b3fde6ac50a7ba1efffffffff458c466988e1653204bb1d5abb7b915e141cdf4ba88de708f40464d35e628bb0000000006a473044022060cca2e7f12c7f7d156387a0b7e19954bb32f40a6c465c826f20220dc7dbdbbc02205e3bf31f93451e137c6ba05ccfa9e23178ce9d95c3709c187112d3e731f93125012103d98cbbd6098767a2de923e8f615ea3600a972e813ac5f1e551d0b175ba6715ebffffffffb79300e9c88a4057971bbfb741bec817ba7cd7b49c21456bf1039d2de34fc325010000006b483045022100a375880121f461612147025e1749c15bf770c3e24280c235cee0d4eb7bcdf453022030cc4f1dd19e507ff8604765ab9eb2f4c285090447c30d72da27146798714972012102593c80d1c42dfe63760aacb7f069c79ea6115e0b2f6d265b452d55ea9fd0a959fffffffff19460238de5f056149a0786c3997071c54f4515d3982187097a8a0b65789d32000000006b483045022100de4ab5c7e71fb2d49ccdcdf4b2a10be836e3aeee788b1b2f97916c14bbb394d8022076f58c4aa43d4936c79e5099ca38b6d4d307d7a7a09e974f6ccc62f3071e4ad5012103a6c2ed089d340fa6b9004e29a7db024b8cfa6fc077187291db8a90de70793338ffffffff5ed2119d4929ed08886261f7b414faf8d4c9a170c9f09113f3ab31259ba29974010000006b483045022100b85c6484892e8e0e948ea160dfe084bbbdbc1a92ffe2d9cd95ee25b6b694ee240220472b2e92c75927d4082fb163bf38be044c635f615a772adff7f476909491a37001210265130f43e8b47c62be94ece2418fa9f10a08071d9e673d9b075ce190b30d68abffffffff30dbf24e4fb7a86c0faf7e356a8bfa8b81cbf5d4aafc767cef6a7a4384efb6c8010000006a4730440220694a375d672f355178490777d5139b4d431af54528d979ac49812bc86c545d4d0220622c9acc54857c3747eba7a3562a53ca0a1d2e7d5214dcad282e6b9bad071f3201210381ecbe7fec241556d513ff3c0e5805f2f06cfb29b3435ef8f3b62dfef58f3d73ffffffff6b632a6d64a3d0da5a24fe35e47424c51b22a4068a264bc4bcbd2c53e257b102010000006a47304402204f6de2ad5568a2fbc9b4f00ce2984ac5b203aaed7768a0341de4892e2e38aa0802200269afcfc5fbb604ac3d57772cd3d13d94ff25cacab9ed6ac0ccc67badaa66ed012103e60f5151c18cb44f94d537eecda12f9893ad1126c0451e467d190270137ea662ffffffff019db5628b000000001976a9146c2614c7b45ef8dfa8dc83e6739ddbe201d05ab088ac00000000"
    }
  ],
  "time": 1517476772,
  "mediantime": 1517475449,
  "nonce": 196500033,
  "bits": "1a042eae",
  "difficulty": 4011378.762614286,
  "chainwork": "0000000000000000000000000000000000000000000000353b32a577dc96bbe0",
  "previousblockhash": "0e8abecf644c57b42a3f62fe2dde65c00be4026d7a46cdd72285ef9119d35dd3",
  "nextblockhash": "0abfb898cf2a9494cb1c85925127bf7139997ca66a6996356b394c31b9fc3ba8"
}
