{
  "hash": "4f5af71e272c938d7759ed6320e0c1cbf79a874e8f1336ae95eececc765d58cc",
  "confirmations": 2058,
  "strippedsize": 253,
  "size": 253,
  "weight": 1012,
  "height": 1358936,
  "version": 536870912,
  "versionHex": "20000000",
  "merkleroot": "819554aac8e278c2237f64e4d0bd5abc75331d528aaed4dc9d29c936f6fbe36b",
  "tx": [
    {
      "txid": "819554aac8e278c2237f64e4d0bd5abc75331d528aaed4dc9d29c936f6fbe36b",
      "hash": "819554aac8e278c2237f64e4d0bd5abc75331d528aaed4dc9d29c936f6fbe36b",
      "version": 1,
      "size": 172,
      "vsize": 172,
      "locktime": 0,
      "vin": [
        {
          "coinbase": "0358bc141a4d696e656420627920416e74506f6f6c20626a331f205a6ed8f3fabe6d6d87c963677694e004f212d8e2688d109fc6eeeffda31b94aff82529b8bc4ab9fb0400000000000000d42e00000000000002000000",
          "sequence": 4294967295
        }
      ],
      "vout": [
        {
          "value": 25.00000000,
          "n": 0,
          "scriptPubKey": {
            "asm": "OP_DUP OP_HASH160 0ff3ccc5e8be88afe24b5d634e5852d474dbdff1 OP_EQUALVERIFY OP_CHECKSIG",
            "hex": "76a9140ff3ccc5e8be88afe24b5d634e5852d474dbdff188ac",
            "reqSigs": 1,
            "type": "pubkeyhash",
            "addresses": [
              "LLgJTbzZMsRTCUF1NtvvL9SR1a4pVieW89"
            ]
          }
        }
      ],
      "hex": "01000000010000000000000000000000000000000000000000000000000000000000000000ffffffff570358bc141a4d696e656420627920416e74506f6f6c20626a331f205a6ed8f3fabe6d6d87c963677694e004f212d8e2688d109fc6eeeffda31b94aff82529b8bc4ab9fb0400000000000000d42e00000000000002000000ffffffff0100f90295000000001976a9140ff3ccc5e8be88afe24b5d634e5852d474dbdff188ac00000000"
    }
  ],
  "time": 1517213939,
  "mediantime": 1517213710,
  "nonce": 2283621177,
  "bits": "1a042eae",
  "difficulty": 4011378.762614286,
  "chainwork": "000000000000000000000000000000000000000000000033893b02da14def332",
  "previousblockhash": "c637081c10b641f6e21c1637ff8ed8610b55132fe9374cdc7b66002c35366ff6",
  "nextblockhash": "57f56a50fa6e1f90e8b5fca8f9ffc0bcab70438c927863874d78e1a70e8bbe16"
}
