{
  "hash": "4ff46fd01304b90502b1262accd57a7a7145bf086750ebaf0e83c854654f4abd",
  "confirmations": 1597,
  "strippedsize": 4801,
  "size": 4837,
  "weight": 19240,
  "height": 1359397,
  "version": 536870912,
  "versionHex": "20000000",
  "merkleroot": "120673ae3389edec0c70529d27689c76b71e81c2a1936c48cb41512145081de0",
  "tx": [
    {
      "txid": "394f37e0c16f67a2a85967b9d8485a74fccac857ecb7a253888313496c932910",
      "hash": "d4f5730eecd5c4ae7b533f3a10479c61a9335b0b23993f2afcf9e30b7f8ae358",
      "version": 1,
      "size": 244,
      "vsize": 217,
      "locktime": 0,
      "vin": [
        {
          "coinbase": "0325be1404fccb6f5a08054d0f622c000000fabe6d6dbbf55a3b51446ae033fa4f67337ffc29b2dcea7ac773ac4cfb092e23f97772e940000000000000000d2f6e6f64655374726174756d2f",
          "sequence": 0
        }
      ],
      "vout": [
        {
          "value": 25.00855247,
          "n": 0,
          "scriptPubKey": {
            "asm": "OP_DUP OP_HASH160 0c617fdb2ea42aed30a509595ee21ba3f6688db0 OP_EQUALVERIFY OP_CHECKSIG",
            "hex": "76a9140c617fdb2ea42aed30a509595ee21ba3f6688db088ac",
            "reqSigs": 1,
            "type": "pubkeyhash",
            "addresses": [
              "LLMRAtr3qBje2ySEa3CnZ55LA4TQMWnRY3"
            ]
          }
        }, 
        {
          "value": 0.00000000,
          "n": 1,
          "scriptPubKey": {
            "asm": "OP_RETURN aa21a9ed90ec0a8486d6ec2dfb19c405e3031c0b810b93c4308b34cfd17d51e1f22718c4",
            "hex": "6a24aa21a9ed90ec0a8486d6ec2dfb19c405e3031c0b810b93c4308b34cfd17d51e1f22718c4",
            "type": "nulldata"
          }
        }
      ],
      "hex": "010000000001010000000000000000000000000000000000000000000000000000000000000000ffffffff4c0325be1404fccb6f5a08054d0f622c000000fabe6d6dbbf55a3b51446ae033fa4f67337ffc29b2dcea7ac773ac4cfb092e23f97772e940000000000000000d2f6e6f64655374726174756d2f0000000002cf051095000000001976a9140c617fdb2ea42aed30a509595ee21ba3f6688db088ac0000000000000000266a24aa21a9ed90ec0a8486d6ec2dfb19c405e3031c0b810b93c4308b34cfd17d51e1f22718c40120000000000000000000000000000000000000000000000000000000000000000000000000"
    }, 
    {
      "txid": "71f752d2a755fcb55a45b9693c95b7d8fa9c68c690f12ce068324ea254a36ce7",
      "hash": "71f752d2a755fcb55a45b9693c95b7d8fa9c68c690f12ce068324ea254a36ce7",
      "version": 1,
      "size": 192,
      "vsize": 192,
      "locktime": 0,
      "vin": [
        {
          "txid": "29e1b6ca60e8dcdb4b9d0968b75d61a05c9fa6396c3e79845f0c85954ece6c0f",
          "vout": 9,
          "scriptSig": {
            "asm": "3045022100d62239208939891b230a2ca5497e879239f52860349bdb277de7418e31830aa302200e7f6a95c98486333febd67b38b2eaad55f93db7c95a03a35578b29a62e47610[ALL] 039ec2ab7c34230d3f6f10acb59693f3427981a7137b88f99cc4c302f810b71272",
            "hex": "483045022100d62239208939891b230a2ca5497e879239f52860349bdb277de7418e31830aa302200e7f6a95c98486333febd67b38b2eaad55f93db7c95a03a35578b29a62e476100121039ec2ab7c34230d3f6f10acb59693f3427981a7137b88f99cc4c302f810b71272"
          },
          "sequence": 4294967295
        }
      ],
      "vout": [
        {
          "value": 0.28364526,
          "n": 0,
          "scriptPubKey": {
            "asm": "OP_DUP OP_HASH160 426b8e610f80a05f6e73e4ff087cf28483683950 OP_EQUALVERIFY OP_CHECKSIG",
            "hex": "76a914426b8e610f80a05f6e73e4ff087cf2848368395088ac",
            "reqSigs": 1,
            "type": "pubkeyhash",
            "addresses": [
              "LRH9i1PDxTisgVYjEmKdGMdRhoNRwEfPf2"
            ]
          }
        }
      ],
      "hex": "01000000010f6cce4e95850c5f84793e6c39a69f5ca0615db768099d4bdbdce860cab6e129090000006b483045022100d62239208939891b230a2ca5497e879239f52860349bdb277de7418e31830aa302200e7f6a95c98486333febd67b38b2eaad55f93db7c95a03a35578b29a62e476100121039ec2ab7c34230d3f6f10acb59693f3427981a7137b88f99cc4c302f810b71272ffffffff01eeceb001000000001976a914426b8e610f80a05f6e73e4ff087cf2848368395088ac00000000"
    }, 
    {
      "txid": "4b0d95c0a2112333e3d5d3e104cb327ca7a431d0eb9922c5878f2549ee40fa3c",
      "hash": "4b0d95c0a2112333e3d5d3e104cb327ca7a431d0eb9922c5878f2549ee40fa3c",
      "version": 1,
      "size": 521,
      "vsize": 521,
      "locktime": 0,
      "vin": [
        {
          "txid": "35015083bbce39945eed4b238d8b2c14081a63874fedef9793fffd18e6af03e5",
          "vout": 0,
          "scriptSig": {
            "asm": "3045022100a3ff148b37f57518c72cf8d9280c001295567476b324c139943dfd39fbeb5e1d022072c7dd09bbe8ef209bae68431de276d1bd0563477e40dabfb72b304cf0931a32[ALL] 02c33b04eac8e15db2d7855bcbbaf2bdc51510eb774afeac98f95b2c2e00ee5354",
            "hex": "483045022100a3ff148b37f57518c72cf8d9280c001295567476b324c139943dfd39fbeb5e1d022072c7dd09bbe8ef209bae68431de276d1bd0563477e40dabfb72b304cf0931a32012102c33b04eac8e15db2d7855bcbbaf2bdc51510eb774afeac98f95b2c2e00ee5354"
          },
          "sequence": 4294967295
        }, 
        {
          "txid": "62ee671cd70b1a268b1c7621e070dee7ddc731ab54471164ffa07d579f7c90f7",
          "vout": 3621,
          "scriptSig": {
            "asm": "304402201c40bed9fdffb0a0f0d400bb7c29621498e60d79125034f2456270e83ad10514022022dc7dec6e45796364378ea0ed19ea0c6451308dd74c06206df7197633f43fb1[ALL] 02a765b863012e435f88e5c9228e0166e83d39b9eaae842288c68b12475e597328",
            "hex": "47304402201c40bed9fdffb0a0f0d400bb7c29621498e60d79125034f2456270e83ad10514022022dc7dec6e45796364378ea0ed19ea0c6451308dd74c06206df7197633f43fb1012102a765b863012e435f88e5c9228e0166e83d39b9eaae842288c68b12475e597328"
          },
          "sequence": 4294967295
        }, 
        {
          "txid": "bd8a28c90d5ecea824892847160663636b0a795af03a36a959fed7ae7c64d854",
          "vout": 1,
          "scriptSig": {
            "asm": "3045022100e0c43ef00488c653e17bf77784fbc8e946ad4a01d567f5f18ebcca9277113a14022061477ad807c2142ea27c0a419ef42a97472e5e7970f61fde57c43b0f8dc50248[ALL] 029acad24345e22e29373e8167c51b126ff35c09e4550f384492ca4f0c1e86600b",
            "hex": "483045022100e0c43ef00488c653e17bf77784fbc8e946ad4a01d567f5f18ebcca9277113a14022061477ad807c2142ea27c0a419ef42a97472e5e7970f61fde57c43b0f8dc502480121029acad24345e22e29373e8167c51b126ff35c09e4550f384492ca4f0c1e86600b"
          },
          "sequence": 4294967295
        }
      ],
      "vout": [
        {
          "value": 0.01000128,
          "n": 0,
          "scriptPubKey": {
            "asm": "OP_DUP OP_HASH160 aed56b7eff25de1219da4ac5f3a5082436c77313 OP_EQUALVERIFY OP_CHECKSIG",
            "hex": "76a914aed56b7eff25de1219da4ac5f3a5082436c7731388ac",
            "reqSigs": 1,
            "type": "pubkeyhash",
            "addresses": [
              "LbAPWGR2KNubzCuXBFau9uBf9jmFaeKJ33"
            ]
          }
        }, 
        {
          "value": 5.69371635,
          "n": 1,
          "scriptPubKey": {
            "asm": "OP_DUP OP_HASH160 e13d9e43e1398306ce9b143460875426919d8cce OP_EQUALVERIFY OP_CHECKSIG",
            "hex": "76a914e13d9e43e1398306ce9b143460875426919d8cce88ac",
            "reqSigs": 1,
            "type": "pubkeyhash",
            "addresses": [
              "Lfkv7gdTCgmZD3hgbArnS63agF3D5nUEw8"
            ]
          }
        }
      ],
      "hex": "0100000003e503afe618fdff9397efed4f87631a08142c8b8d234bed5e9439cebb83500135000000006b483045022100a3ff148b37f57518c72cf8d9280c001295567476b324c139943dfd39fbeb5e1d022072c7dd09bbe8ef209bae68431de276d1bd0563477e40dabfb72b304cf0931a32012102c33b04eac8e15db2d7855bcbbaf2bdc51510eb774afeac98f95b2c2e00ee5354fffffffff7907c9f577da0ff64114754ab31c7dde7de70e021761c8b261a0bd71c67ee62250e00006a47304402201c40bed9fdffb0a0f0d400bb7c29621498e60d79125034f2456270e83ad10514022022dc7dec6e45796364378ea0ed19ea0c6451308dd74c06206df7197633f43fb1012102a765b863012e435f88e5c9228e0166e83d39b9eaae842288c68b12475e597328ffffffff54d8647caed7fe59a9363af05a790a6b6363061647288924a8ce5e0dc9288abd010000006b483045022100e0c43ef00488c653e17bf77784fbc8e946ad4a01d567f5f18ebcca9277113a14022061477ad807c2142ea27c0a419ef42a97472e5e7970f61fde57c43b0f8dc502480121029acad24345e22e29373e8167c51b126ff35c09e4550f384492ca4f0c1e86600bffffffff02c0420f00000000001976a914aed56b7eff25de1219da4ac5f3a5082436c7731388acf3ebef21000000001976a914e13d9e43e1398306ce9b143460875426919d8cce88ac00000000"
    }, 
    {
      "txid": "ead657ef2227fda5aa056a9ce882ca81c7cef1280f89862bce51d47f7b5aa259",
      "hash": "ead657ef2227fda5aa056a9ce882ca81c7cef1280f89862bce51d47f7b5aa259",
      "version": 1,
      "size": 225,
      "vsize": 225,
      "locktime": 0,
      "vin": [
        {
          "txid": "e9a48f84339e97a2e2f93191294563ee4934a74c75c08fde2ad495b02d841bfd",
          "vout": 1,
          "scriptSig": {
            "asm": "3044022066472e8c28dc887d81995c95f35b418e6b8df32cfa47cbc0b61cb73fa6e265490220587b5036fdb8e957e4ed8708711eaef3c355983a1dca546a8c3ae271300bf09d[ALL] 0384a9a36de00797765bb8cbd04dabb5aa68695b13ab3d76e64a85d79f0c76db7f",
            "hex": "473044022066472e8c28dc887d81995c95f35b418e6b8df32cfa47cbc0b61cb73fa6e265490220587b5036fdb8e957e4ed8708711eaef3c355983a1dca546a8c3ae271300bf09d01210384a9a36de00797765bb8cbd04dabb5aa68695b13ab3d76e64a85d79f0c76db7f"
          },
          "sequence": 4294967295
        }
      ],
      "vout": [
        {
          "value": 0.27660000,
          "n": 0,
          "scriptPubKey": {
            "asm": "OP_DUP OP_HASH160 c0c212573ec5feeedf8a794db58e5776d83aa2ef OP_EQUALVERIFY OP_CHECKSIG",
            "hex": "76a914c0c212573ec5feeedf8a794db58e5776d83aa2ef88ac",
            "reqSigs": 1,
            "type": "pubkeyhash",
            "addresses": [
              "LcoAVNv4QmgJc4Dm2ZmUijmnJ5yHATQEsU"
            ]
          }
        }, 
        {
          "value": 3.42806397,
          "n": 1,
          "scriptPubKey": {
            "asm": "OP_DUP OP_HASH160 8a4fd1372b1dd683fede7d68f2332fae2e9c9f71 OP_EQUALVERIFY OP_CHECKSIG",
            "hex": "76a9148a4fd1372b1dd683fede7d68f2332fae2e9c9f7188ac",
            "reqSigs": 1,
            "type": "pubkeyhash",
            "addresses": [
              "LXqH8V6ZtsHBrURFbVxHR59KA24qcdosN3"
            ]
          }
        }
      ],
      "hex": "0100000001fd1b842db095d42ade8fc0754ca73449ee6345299131f9e2a2979e33848fa4e9010000006a473044022066472e8c28dc887d81995c95f35b418e6b8df32cfa47cbc0b61cb73fa6e265490220587b5036fdb8e957e4ed8708711eaef3c355983a1dca546a8c3ae271300bf09d01210384a9a36de00797765bb8cbd04dabb5aa68695b13ab3d76e64a85d79f0c76db7fffffffff02e00ea601000000001976a914c0c212573ec5feeedf8a794db58e5776d83aa2ef88ac7dcf6e14000000001976a9148a4fd1372b1dd683fede7d68f2332fae2e9c9f7188ac00000000"
    }, 
    {
      "txid": "a10fba2e782903490c1f7db38e37e2d2ddcc2c10ea465dfb3a75472f76e3a709",
      "hash": "a10fba2e782903490c1f7db38e37e2d2ddcc2c10ea465dfb3a75472f76e3a709",
      "version": 1,
      "size": 664,
      "vsize": 664,
      "locktime": 0,
      "vin": [
        {
          "txid": "c35818fc692c8005cb2a8f3d0546f7f79abca80a206f1f2e1a9a6c8a08130637",
          "vout": 1,
          "scriptSig": {
            "asm": "304402203525610a641b4945497c1991e6ef2cfc99d7829fb4473e4954bacba02735005302205038cbd92d1313ac07ff1cb527885c39bff3b91f30710f3b7202f3ce04721215[ALL] 0328c9ae635abf580c261c44815dc1aac309e16ff26250525b7e99951369d2b8c7",
            "hex": "47304402203525610a641b4945497c1991e6ef2cfc99d7829fb4473e4954bacba02735005302205038cbd92d1313ac07ff1cb527885c39bff3b91f30710f3b7202f3ce0472121501210328c9ae635abf580c261c44815dc1aac309e16ff26250525b7e99951369d2b8c7"
          },
          "sequence": 4294967295
        }, 
        {
          "txid": "ef0c54edfaa84d72846a92b832e7912e7842ee25849c7f82cc6caf5317194061",
          "vout": 44,
          "scriptSig": {
            "asm": "3044022053dce8b6469476201c2e6b43bd4b9160045576636c5ad0c6ff9657870a4bc9fc022044623830b0c0d8945dd943f641715f751bf49fe44bdc47e64142f65c76dd37ba[ALL] 03d37ac41950c70e0a0dff6cc1f619ceca523b910a4ff5bdd9c3d11ec81d99ec0a",
            "hex": "473044022053dce8b6469476201c2e6b43bd4b9160045576636c5ad0c6ff9657870a4bc9fc022044623830b0c0d8945dd943f641715f751bf49fe44bdc47e64142f65c76dd37ba012103d37ac41950c70e0a0dff6cc1f619ceca523b910a4ff5bdd9c3d11ec81d99ec0a"
          },
          "sequence": 4294967295
        }, 
        {
          "txid": "9669417f8658c950e2e827d471920037965e3cc4deb09678009ed46b1620d10c",
          "vout": 3098,
          "scriptSig": {
            "asm": "3044022073b51c46642ec0ebbb7efcca0cc48092df3375f1ce527954e0ed222f13d07c5a02200683851af8370127b67b1e2c7234acb554960abf370fd8445a35f2e5fc00babc[ALL] 02b28fa3e3fc0c13cd187217c7282be33b7477f91c6c1309759b9880aaef362654",
            "hex": "473044022073b51c46642ec0ebbb7efcca0cc48092df3375f1ce527954e0ed222f13d07c5a02200683851af8370127b67b1e2c7234acb554960abf370fd8445a35f2e5fc00babc012102b28fa3e3fc0c13cd187217c7282be33b7477f91c6c1309759b9880aaef362654"
          },
          "sequence": 4294967295
        }, 
        {
          "txid": "9669417f8658c950e2e827d471920037965e3cc4deb09678009ed46b1620d10c",
          "vout": 3097,
          "scriptSig": {
            "asm": "30440220772a7337ad92399ad0134c6f238d6e1d5f267db0c043c954dec3708085b1ccef02206c919a7d4b5eed213628008cdcfaf66e2dd866017b0e36bdea5d945a2809fdcf[ALL] 035f682fad318427af2d6d3e067bc882cc251e9ab498677f113956c3cc994567a2",
            "hex": "4730440220772a7337ad92399ad0134c6f238d6e1d5f267db0c043c954dec3708085b1ccef02206c919a7d4b5eed213628008cdcfaf66e2dd866017b0e36bdea5d945a2809fdcf0121035f682fad318427af2d6d3e067bc882cc251e9ab498677f113956c3cc994567a2"
          },
          "sequence": 4294967295
        }
      ],
      "vout": [
        {
          "value": 0.30000000,
          "n": 0,
          "scriptPubKey": {
            "asm": "OP_HASH160 77ec92e377a7d9e97fcc7168f62da3d0721d2c0b OP_EQUAL",
            "hex": "a91477ec92e377a7d9e97fcc7168f62da3d0721d2c0b87",
            "reqSigs": 1,
            "type": "scripthash",
            "addresses": [
              "MJqG3h8JvicjiPsau9iG97YYyfEM68Bb2h"
            ]
          }
        }, 
        {
          "value": 0.05100437,
          "n": 1,
          "scriptPubKey": {
            "asm": "OP_DUP OP_HASH160 c6e3836c2f4cd8f9c53e32813ded99ac0ce001f1 OP_EQUALVERIFY OP_CHECKSIG",
            "hex": "76a914c6e3836c2f4cd8f9c53e32813ded99ac0ce001f188ac",
            "reqSigs": 1,
            "type": "pubkeyhash",
            "addresses": [
              "LdMac6qdwFnBCVXN96dvoPjzbcE36gzs64"
            ]
          }
        }
      ],
      "hex": "0100000004370613088a6c9a1a2e1f6f200aa8bc9af7f746053d8f2acb05802c69fc1858c3010000006a47304402203525610a641b4945497c1991e6ef2cfc99d7829fb4473e4954bacba02735005302205038cbd92d1313ac07ff1cb527885c39bff3b91f30710f3b7202f3ce0472121501210328c9ae635abf580c261c44815dc1aac309e16ff26250525b7e99951369d2b8c7ffffffff6140191753af6ccc827f9c8425ee42782e91e732b8926a84724da8faed540cef2c0000006a473044022053dce8b6469476201c2e6b43bd4b9160045576636c5ad0c6ff9657870a4bc9fc022044623830b0c0d8945dd943f641715f751bf49fe44bdc47e64142f65c76dd37ba012103d37ac41950c70e0a0dff6cc1f619ceca523b910a4ff5bdd9c3d11ec81d99ec0affffffff0cd120166bd49e007896b0dec43c5e9637009271d427e8e250c958867f4169961a0c00006a473044022073b51c46642ec0ebbb7efcca0cc48092df3375f1ce527954e0ed222f13d07c5a02200683851af8370127b67b1e2c7234acb554960abf370fd8445a35f2e5fc00babc012102b28fa3e3fc0c13cd187217c7282be33b7477f91c6c1309759b9880aaef362654ffffffff0cd120166bd49e007896b0dec43c5e9637009271d427e8e250c958867f416996190c00006a4730440220772a7337ad92399ad0134c6f238d6e1d5f267db0c043c954dec3708085b1ccef02206c919a7d4b5eed213628008cdcfaf66e2dd866017b0e36bdea5d945a2809fdcf0121035f682fad318427af2d6d3e067bc882cc251e9ab498677f113956c3cc994567a2ffffffff0280c3c9010000000017a91477ec92e377a7d9e97fcc7168f62da3d0721d2c0b8795d34d00000000001976a914c6e3836c2f4cd8f9c53e32813ded99ac0ce001f188ac00000000"
    }, 
    {
      "txid": "7d273a52bb10273236deb5c93e9cd3c463b72b509ae9e40b4853e7c12f89522f",
      "hash": "7d273a52bb10273236deb5c93e9cd3c463b72b509ae9e40b4853e7c12f89522f",
      "version": 2,
      "size": 814,
      "vsize": 814,
      "locktime": 1359395,
      "vin": [
        {
          "txid": "31c27c10d1f93cc6126c136584ea22920b8a470af0c523e1d7a1a2986fb0860b",
          "vout": 0,
          "scriptSig": {
            "asm": "304402203f9fea560c4dd3af7302a33f0b01cd59057603a22809fde4f6b88e32bda084d902207abcb56ce23881d8f5f8f54bc065eed3dbc220b87a66e7d5214d95490d092db4[ALL] 021fd003f17fb5e8bda5ec949ea4fd2e026767b376bf72ff6cbb59ba594d05525b",
            "hex": "47304402203f9fea560c4dd3af7302a33f0b01cd59057603a22809fde4f6b88e32bda084d902207abcb56ce23881d8f5f8f54bc065eed3dbc220b87a66e7d5214d95490d092db40121021fd003f17fb5e8bda5ec949ea4fd2e026767b376bf72ff6cbb59ba594d05525b"
          },
          "sequence": 4294967294
        }, 
        {
          "txid": "3c68c11227b50b50223533073d88d0d7545238fad15ba4afb6d2c21f71d98872",
          "vout": 0,
          "scriptSig": {
            "asm": "30440220679f3511d5b420b7d7c965dbb429d7c3374253964cf7301a3325b6d8636ae46f0220367dbafbdd26aa8c8008c34853a14590a4e4734d6d48885bdd12a306565660ea[ALL] 029bb2c05f30d17f288a512e34bc1ff461bac0232b727ffbebde661181bda41d83",
            "hex": "4730440220679f3511d5b420b7d7c965dbb429d7c3374253964cf7301a3325b6d8636ae46f0220367dbafbdd26aa8c8008c34853a14590a4e4734d6d48885bdd12a306565660ea0121029bb2c05f30d17f288a512e34bc1ff461bac0232b727ffbebde661181bda41d83"
          },
          "sequence": 4294967294
        }, 
        {
          "txid": "2d64fb86d133a239e7e560dbc6f89b3d6ef85568e99fc8d0f758107c6e172d90",
          "vout": 0,
          "scriptSig": {
            "asm": "304402203d6ef0aecc7e7ba51aab845e4d44391fef8ea9ef71496bbd5fdc48bdcd39ffeb02203b845891dd5fe50a099edc029e5df641f6993ff81eeba7821faff2a6009a1142[ALL] 03e829aabbd06275702f2c3c2d607b7499e44251c20990a9d3a160351a40895e3d",
            "hex": "47304402203d6ef0aecc7e7ba51aab845e4d44391fef8ea9ef71496bbd5fdc48bdcd39ffeb02203b845891dd5fe50a099edc029e5df641f6993ff81eeba7821faff2a6009a1142012103e829aabbd06275702f2c3c2d607b7499e44251c20990a9d3a160351a40895e3d"
          },
          "sequence": 4294967294
        }, 
        {
          "txid": "61d01368cf20579d4e25df149f75c9efacd0491ea1312b9dbfd3604ff7e53ff5",
          "vout": 1,
          "scriptSig": {
            "asm": "3045022100f939ce84afc87d34938efb1d33e8dd1e6747c3d8d5f1496eebf034ba2cde6ece022004abd6556a489b88b7c51717b5b6ae99a284b12f48f43d8e415123d6d8660afb[ALL] 03aa4ccfdf8e88f4852aa78bf372a61b19dd4de302e1febe200e1877d21bcf3094",
            "hex": "483045022100f939ce84afc87d34938efb1d33e8dd1e6747c3d8d5f1496eebf034ba2cde6ece022004abd6556a489b88b7c51717b5b6ae99a284b12f48f43d8e415123d6d8660afb012103aa4ccfdf8e88f4852aa78bf372a61b19dd4de302e1febe200e1877d21bcf3094"
          },
          "sequence": 4294967294
        }, 
        {
          "txid": "ec7d85fc57b5b837a361880b7faac598a8cd62d7d7bc0e81444cfa07b486c5fd",
          "vout": 1,
          "scriptSig": {
            "asm": "304402202dd3ac5b2a1c9cc91d658c02593d79d9a5702194c3e887afc03377411ecf835202206c0a37885abd67eff5d727947004094f7c2609f2d85b8f72f8d55ceeae468d77[ALL] 03d32397d2ce84342a43c04762b892a21cb8796eae0713586810688a007231bff0",
            "hex": "47304402202dd3ac5b2a1c9cc91d658c02593d79d9a5702194c3e887afc03377411ecf835202206c0a37885abd67eff5d727947004094f7c2609f2d85b8f72f8d55ceeae468d77012103d32397d2ce84342a43c04762b892a21cb8796eae0713586810688a007231bff0"
          },
          "sequence": 4294967294
        }
      ],
      "vout": [
        {
          "value": 0.01189272,
          "n": 0,
          "scriptPubKey": {
            "asm": "OP_DUP OP_HASH160 2041b2a616e60daa79e6bf03b4847fa0c259f8aa OP_EQUALVERIFY OP_CHECKSIG",
            "hex": "76a9142041b2a616e60daa79e6bf03b4847fa0c259f8aa88ac",
            "reqSigs": 1,
            "type": "pubkeyhash",
            "addresses": [
              "LNAWb7oEkiDhBjm5DEfoQbNQLWM4MtNfRz"
            ]
          }
        }, 
        {
          "value": 0.73426757,
          "n": 1,
          "scriptPubKey": {
            "asm": "OP_DUP OP_HASH160 5b19d4a9ae6b88164697552cb341850dbc15beff OP_EQUALVERIFY OP_CHECKSIG",
            "hex": "76a9145b19d4a9ae6b88164697552cb341850dbc15beff88ac",
            "reqSigs": 1,
            "type": "pubkeyhash",
            "addresses": [
              "LTXehRFyw3Tppi49h3YFXYKReiYwQULiTm"
            ]
          }
        }
      ],
      "hex": "02000000050b86b06f98a2a1d7e123c5f00a478a0b9222ea8465136c12c63cf9d1107cc231000000006a47304402203f9fea560c4dd3af7302a33f0b01cd59057603a22809fde4f6b88e32bda084d902207abcb56ce23881d8f5f8f54bc065eed3dbc220b87a66e7d5214d95490d092db40121021fd003f17fb5e8bda5ec949ea4fd2e026767b376bf72ff6cbb59ba594d05525bfeffffff7288d9711fc2d2b6afa45bd1fa385254d7d0883d07333522500bb52712c1683c000000006a4730440220679f3511d5b420b7d7c965dbb429d7c3374253964cf7301a3325b6d8636ae46f0220367dbafbdd26aa8c8008c34853a14590a4e4734d6d48885bdd12a306565660ea0121029bb2c05f30d17f288a512e34bc1ff461bac0232b727ffbebde661181bda41d83feffffff902d176e7c1058f7d0c89fe96855f86e3d9bf8c6db60e5e739a233d186fb642d000000006a47304402203d6ef0aecc7e7ba51aab845e4d44391fef8ea9ef71496bbd5fdc48bdcd39ffeb02203b845891dd5fe50a099edc029e5df641f6993ff81eeba7821faff2a6009a1142012103e829aabbd06275702f2c3c2d607b7499e44251c20990a9d3a160351a40895e3dfefffffff53fe5f74f60d3bf9d2b31a11e49d0acefc9759f14df254e9d5720cf6813d061010000006b483045022100f939ce84afc87d34938efb1d33e8dd1e6747c3d8d5f1496eebf034ba2cde6ece022004abd6556a489b88b7c51717b5b6ae99a284b12f48f43d8e415123d6d8660afb012103aa4ccfdf8e88f4852aa78bf372a61b19dd4de302e1febe200e1877d21bcf3094fefffffffdc586b407fa4c44810ebcd7d762cda898c5aa7f0b8861a337b8b557fc857dec010000006a47304402202dd3ac5b2a1c9cc91d658c02593d79d9a5702194c3e887afc03377411ecf835202206c0a37885abd67eff5d727947004094f7c2609f2d85b8f72f8d55ceeae468d77012103d32397d2ce84342a43c04762b892a21cb8796eae0713586810688a007231bff0feffffff0298251200000000001976a9142041b2a616e60daa79e6bf03b4847fa0c259f8aa88ac45676004000000001976a9145b19d4a9ae6b88164697552cb341850dbc15beff88ac23be1400"
    }, 
    {
      "txid": "24ecef81183e10d949297517ae747670d3104173b7074360a1c8a8e0ecd15e1e",
      "hash": "24ecef81183e10d949297517ae747670d3104173b7074360a1c8a8e0ecd15e1e",
      "version": 2,
      "size": 225,
      "vsize": 225,
      "locktime": 1359395,
      "vin": [
        {
          "txid": "7047a577e78411a55df91695aa13404c82d59b616b10f026b5b31a9185cb3949",
          "vout": 0,
          "scriptSig": {
            "asm": "304402200886bfc82b4f319b19d1fef55722b296c9f30e0d4eeb561ccebd8be458c1ce4e02200645ba224a9a96c1ad27f0da7d7f28f09e946f32be0b55dda15817d5b92353ac[ALL] 030973ed4c86b6097d6b59cc851ad3d36b48701114547799116f1f64a9f6b63377",
            "hex": "47304402200886bfc82b4f319b19d1fef55722b296c9f30e0d4eeb561ccebd8be458c1ce4e02200645ba224a9a96c1ad27f0da7d7f28f09e946f32be0b55dda15817d5b92353ac0121030973ed4c86b6097d6b59cc851ad3d36b48701114547799116f1f64a9f6b63377"
          },
          "sequence": 4294967294
        }
      ],
      "vout": [
        {
          "value": 4.31545448,
          "n": 0,
          "scriptPubKey": {
            "asm": "OP_DUP OP_HASH160 2455a25fc7bf5b89380aa473c2a1e592c2b14ff4 OP_EQUALVERIFY OP_CHECKSIG",
            "hex": "76a9142455a25fc7bf5b89380aa473c2a1e592c2b14ff488ac",
            "reqSigs": 1,
            "type": "pubkeyhash",
            "addresses": [
              "LNY5B6KgBvEfu4yH8jwi9sGCbYJD8xbV7Z"
            ]
          }
        }, 
        {
          "value": 136.29515370,
          "n": 1,
          "scriptPubKey": {
            "asm": "OP_DUP OP_HASH160 ec185e6cb1ad16dd3fe8cb6507228d3678b2a026 OP_EQUALVERIFY OP_CHECKSIG",
            "hex": "76a914ec185e6cb1ad16dd3fe8cb6507228d3678b2a02688ac",
            "reqSigs": 1,
            "type": "pubkeyhash",
            "addresses": [
              "LgkJvfMZ16UjdM5ZHiQdURwpSKzGYUxRFc"
            ]
          }
        }
      ],
      "hex": "02000000014939cb85911ab3b526f0106b619bd5824c4013aa9516f95da51184e777a54770000000006a47304402200886bfc82b4f319b19d1fef55722b296c9f30e0d4eeb561ccebd8be458c1ce4e02200645ba224a9a96c1ad27f0da7d7f28f09e946f32be0b55dda15817d5b92353ac0121030973ed4c86b6097d6b59cc851ad3d36b48701114547799116f1f64a9f6b63377feffffff0268dcb819000000001976a9142455a25fc7bf5b89380aa473c2a1e592c2b14ff488ac6ae6612c030000001976a914ec185e6cb1ad16dd3fe8cb6507228d3678b2a02688ac23be1400"
    }, 
    {
      "txid": "17d5c38f0432b8a1f2fe2c3b47aadb41d9bbd4fe2cd22684293ea68d82545c39",
      "hash": "17d5c38f0432b8a1f2fe2c3b47aadb41d9bbd4fe2cd22684293ea68d82545c39",
      "version": 1,
      "size": 225,
      "vsize": 225,
      "locktime": 0,
      "vin": [
        {
          "txid": "0bf1ca4dca29f4ea54c292d5f648edc04f656fd4aba116d324092fa7e79b7e74",
          "vout": 1,
          "scriptSig": {
            "asm": "3044022061484de6ed00cdaa0877311dba825f48e1b73ea59e39b0d1d7b4b3287bc0397602203c56068ef67caa734720471853a86344780bdabe9c9615a2d785ef5a0aa6cc88[ALL] 021c0abdd8420d4bc039539a626c5c9c2c14d9cbc6773c692d3312f709d9b330f6",
            "hex": "473044022061484de6ed00cdaa0877311dba825f48e1b73ea59e39b0d1d7b4b3287bc0397602203c56068ef67caa734720471853a86344780bdabe9c9615a2d785ef5a0aa6cc880121021c0abdd8420d4bc039539a626c5c9c2c14d9cbc6773c692d3312f709d9b330f6"
          },
          "sequence": 4294967295
        }
      ],
      "vout": [
        {
          "value": 0.07799443,
          "n": 0,
          "scriptPubKey": {
            "asm": "OP_DUP OP_HASH160 af7f65d0fe073fa7f89bd8a6fbec664959a2060b OP_EQUALVERIFY OP_CHECKSIG",
            "hex": "76a914af7f65d0fe073fa7f89bd8a6fbec664959a2060b88ac",
            "reqSigs": 1,
            "type": "pubkeyhash",
            "addresses": [
              "LbDu8XpJTr877gTRiPwm2sQCLVhsDAYaru"
            ]
          }
        }, 
        {
          "value": 0.00101031,
          "n": 1,
          "scriptPubKey": {
            "asm": "OP_DUP OP_HASH160 ee07afa182494abfca3b0736356246fbd771144d OP_EQUALVERIFY OP_CHECKSIG",
            "hex": "76a914ee07afa182494abfca3b0736356246fbd771144d88ac",
            "reqSigs": 1,
            "type": "pubkeyhash",
            "addresses": [
              "LgvYHuTounQRzUg8ETVXS86rmNajfxsGKj"
            ]
          }
        }
      ],
      "hex": "0100000001747e9be7a72f0924d316a1abd46f654fc0ed48f6d592c254eaf429ca4dcaf10b010000006a473044022061484de6ed00cdaa0877311dba825f48e1b73ea59e39b0d1d7b4b3287bc0397602203c56068ef67caa734720471853a86344780bdabe9c9615a2d785ef5a0aa6cc880121021c0abdd8420d4bc039539a626c5c9c2c14d9cbc6773c692d3312f709d9b330f6ffffffff0293027700000000001976a914af7f65d0fe073fa7f89bd8a6fbec664959a2060b88aca78a0100000000001976a914ee07afa182494abfca3b0736356246fbd771144d88ac00000000"
    }, 
    {
      "txid": "0b4bd33505d389fbe7bf3b1783910830db9a95b178692a68d8ab2c2f6fc50574",
      "hash": "0b4bd33505d389fbe7bf3b1783910830db9a95b178692a68d8ab2c2f6fc50574",
      "version": 1,
      "size": 225,
      "vsize": 225,
      "locktime": 0,
      "vin": [
        {
          "txid": "88fc9ea7d33a796780ad7e88792122f73b643713138377fd1ddeb678831eace4",
          "vout": 0,
          "scriptSig": {
            "asm": "30440220157e51f7d903c0bb8de65e738e77c6e17fcff2afe869079725a801a5086037e8022071dfd513262cea9a7c620b922457cf675a655bc243011148b3e478bef3a3401c[ALL] 0201f3ee67fadbc39969ed6d2f789d91fc0174cfc52de244cff596ef4206d7cbb6",
            "hex": "4730440220157e51f7d903c0bb8de65e738e77c6e17fcff2afe869079725a801a5086037e8022071dfd513262cea9a7c620b922457cf675a655bc243011148b3e478bef3a3401c01210201f3ee67fadbc39969ed6d2f789d91fc0174cfc52de244cff596ef4206d7cbb6"
          },
          "sequence": 4294967295
        }
      ],
      "vout": [
        {
          "value": 0.00058962,
          "n": 0,
          "scriptPubKey": {
            "asm": "OP_DUP OP_HASH160 da34e61def36ec2d587dc671776c18732a089b9b OP_EQUALVERIFY OP_CHECKSIG",
            "hex": "76a914da34e61def36ec2d587dc671776c18732a089b9b88ac",
            "reqSigs": 1,
            "type": "pubkeyhash",
            "addresses": [
              "Lf7iwWdTQEoEL9v8Zfn7FsLkJgi4UngSxz"
            ]
          }
        }, 
        {
          "value": 0.07173238,
          "n": 1,
          "scriptPubKey": {
            "asm": "OP_DUP OP_HASH160 8640743362f59f580e12ad755e5e3bf8fdaad66b OP_EQUALVERIFY OP_CHECKSIG",
            "hex": "76a9148640743362f59f580e12ad755e5e3bf8fdaad66b88ac",
            "reqSigs": 1,
            "type": "pubkeyhash",
            "addresses": [
              "LXTp2Fi4vCTEtMUakDTowpwtfsfe7ocig9"
            ]
          }
        }
      ],
      "hex": "0100000001e4ac1e8378b6de1dfd7783131337643bf7222179887ead8067793ad3a79efc88000000006a4730440220157e51f7d903c0bb8de65e738e77c6e17fcff2afe869079725a801a5086037e8022071dfd513262cea9a7c620b922457cf675a655bc243011148b3e478bef3a3401c01210201f3ee67fadbc39969ed6d2f789d91fc0174cfc52de244cff596ef4206d7cbb6ffffffff0252e60000000000001976a914da34e61def36ec2d587dc671776c18732a089b9b88ac76746d00000000001976a9148640743362f59f580e12ad755e5e3bf8fdaad66b88ac00000000"
    }, 
    {
      "txid": "1cccfcaddad874eb5a85184ce80e2e37a6a3cd969fde1070eba5e0088e70d674",
      "hash": "1cccfcaddad874eb5a85184ce80e2e37a6a3cd969fde1070eba5e0088e70d674",
      "version": 1,
      "size": 225,
      "vsize": 225,
      "locktime": 0,
      "vin": [
        {
          "txid": "dab69aec0d4e1c08f8fd932a268fe2f8a21b2211cec29beba7505ee035419220",
          "vout": 0,
          "scriptSig": {
            "asm": "304402200ca0658f29153807c72bf8e9790ebf9515bc651c2778d1c8db02a6ad8729352c02204fcf347d47ceecdd41ce5f0bd2e0714bbcbd300daff0c42bd7821bb7c21b05fe[ALL] 02dc18768d2353f4d796e617d1c214db53fd1b253fae16c2fbbf49b68e8ed24617",
            "hex": "47304402200ca0658f29153807c72bf8e9790ebf9515bc651c2778d1c8db02a6ad8729352c02204fcf347d47ceecdd41ce5f0bd2e0714bbcbd300daff0c42bd7821bb7c21b05fe012102dc18768d2353f4d796e617d1c214db53fd1b253fae16c2fbbf49b68e8ed24617"
          },
          "sequence": 4294967295
        }
      ],
      "vout": [
        {
          "value": 0.27855153,
          "n": 0,
          "scriptPubKey": {
            "asm": "OP_DUP OP_HASH160 9d667cbf90a25b7a97912e78670c9566f2894344 OP_EQUALVERIFY OP_CHECKSIG",
            "hex": "76a9149d667cbf90a25b7a97912e78670c9566f289434488ac",
            "reqSigs": 1,
            "type": "pubkeyhash",
            "addresses": [
              "LZaD8GmbvePC5M5CfJfFf1jbqEfEsJHNxW"
            ]
          }
        }, 
        {
          "value": 0.02025534,
          "n": 1,
          "scriptPubKey": {
            "asm": "OP_DUP OP_HASH160 be7d204c85e1f46fbcefaa8747a03eefdf95532e OP_EQUALVERIFY OP_CHECKSIG",
            "hex": "76a914be7d204c85e1f46fbcefaa8747a03eefdf95532e88ac",
            "reqSigs": 1,
            "type": "pubkeyhash",
            "addresses": [
              "LcbAYaZ91GBFahUQqWyFVxkQrWVEeEHM8p"
            ]
          }
        }
      ],
      "hex": "010000000120924135e05e50a7eb9bc2ce11221ba2f8e28f262a93fdf8081c4e0dec9ab6da000000006a47304402200ca0658f29153807c72bf8e9790ebf9515bc651c2778d1c8db02a6ad8729352c02204fcf347d47ceecdd41ce5f0bd2e0714bbcbd300daff0c42bd7821bb7c21b05fe012102dc18768d2353f4d796e617d1c214db53fd1b253fae16c2fbbf49b68e8ed24617ffffffff023109a901000000001976a9149d667cbf90a25b7a97912e78670c9566f289434488ac3ee81e00000000001976a914be7d204c85e1f46fbcefaa8747a03eefdf95532e88ac00000000"
    }, 
    {
      "txid": "73ace141168d7845c96ab568366e3a5c4f99d1a000aee9b247298a19d45ed4ff",
      "hash": "73ace141168d7845c96ab568366e3a5c4f99d1a000aee9b247298a19d45ed4ff",
      "version": 1,
      "size": 225,
      "vsize": 225,
      "locktime": 0,
      "vin": [
        {
          "txid": "226475dd223fbb9e216e34476c9cc4d1ccff64e37015fb851d857b015c219692",
          "vout": 1,
          "scriptSig": {
            "asm": "304402203b08dc2b59a02ee29a0b7d6d70eb07d7b2580ac922b30024dc99b086a06ae2870220215b19a3966b23ef64293f3443f3afc7b23c482d607035e51123cd6861530ec9[ALL] 021f871d2ea3293753965d0a91d00db0094c5591f034ae8027dc633b8aeebbe996",
            "hex": "47304402203b08dc2b59a02ee29a0b7d6d70eb07d7b2580ac922b30024dc99b086a06ae2870220215b19a3966b23ef64293f3443f3afc7b23c482d607035e51123cd6861530ec90121021f871d2ea3293753965d0a91d00db0094c5591f034ae8027dc633b8aeebbe996"
          },
          "sequence": 4294967295
        }
      ],
      "vout": [
        {
          "value": 1.00000000,
          "n": 0,
          "scriptPubKey": {
            "asm": "OP_DUP OP_HASH160 90bb23ea3d4236a680c161d9587705a97d333c17 OP_EQUALVERIFY OP_CHECKSIG",
            "hex": "76a91490bb23ea3d4236a680c161d9587705a97d333c1788ac",
            "reqSigs": 1,
            "type": "pubkeyhash",
            "addresses": [
              "LYRDka8oYEFBJL5BHkypawWDiFLYtLeA2N"
            ]
          }
        }, 
        {
          "value": 81.56074132,
          "n": 1,
          "scriptPubKey": {
            "asm": "OP_DUP OP_HASH160 d6069f989a343ec8f1ede98400ae519be5718f5a OP_EQUALVERIFY OP_CHECKSIG",
            "hex": "76a914d6069f989a343ec8f1ede98400ae519be5718f5a88ac",
            "reqSigs": 1,
            "type": "pubkeyhash",
            "addresses": [
              "LejcoU7BNqwD3wxkv96jUAocnhDomrXcQ8"
            ]
          }
        }
      ],
      "hex": "01000000019296215c017b851d85fb1570e364ffccd1c49c6c47346e219ebb3f22dd756422010000006a47304402203b08dc2b59a02ee29a0b7d6d70eb07d7b2580ac922b30024dc99b086a06ae2870220215b19a3966b23ef64293f3443f3afc7b23c482d607035e51123cd6861530ec90121021f871d2ea3293753965d0a91d00db0094c5591f034ae8027dc633b8aeebbe996ffffffff0200e1f505000000001976a91490bb23ea3d4236a680c161d9587705a97d333c1788ac94d023e6010000001976a914d6069f989a343ec8f1ede98400ae519be5718f5a88ac00000000"
    }, 
    {
      "txid": "8fa40deb8bd8f32b4ecc87ac1fd99555559f0a6736b8c983fc2881e660d77a6c",
      "hash": "8fa40deb8bd8f32b4ecc87ac1fd99555559f0a6736b8c983fc2881e660d77a6c",
      "version": 2,
      "size": 373,
      "vsize": 373,
      "locktime": 1359395,
      "vin": [
        {
          "txid": "470bc37927fff7273105302e8bc0ce69c31360905b5a12acb3b13832e26b1666",
          "vout": 1,
          "scriptSig": {
            "asm": "3045022100f014ed39c031166f8b0cdb807e45c2a2a6036983b72f06649b47a903d464784302205d47355f3ef3f9a769efe906824395f4dd22995b985fe5a7129f8ee622a028e4[ALL] 03e7468ebb88802a8be723928780cce5e318266c3f3b700a6a603a876b2a24ac6a",
            "hex": "483045022100f014ed39c031166f8b0cdb807e45c2a2a6036983b72f06649b47a903d464784302205d47355f3ef3f9a769efe906824395f4dd22995b985fe5a7129f8ee622a028e4012103e7468ebb88802a8be723928780cce5e318266c3f3b700a6a603a876b2a24ac6a"
          },
          "sequence": 4294967294
        }, 
        {
          "txid": "2b342ec2d770c58efa3fc418e6a9370f1c5aa269d9d2e67f5948f6961e33d095",
          "vout": 0,
          "scriptSig": {
            "asm": "3044022031076fd358479a7ab4bce40795a7cb08af9b35870759e41699045f6149a00c6b0220663e012b82eb5a8d7f885ff850b8b8ef73ce1d598db5cfefd5072429d780f086[ALL] 0374a3b363b58d566d64d7ff7755b75d8cb2c9d205762ef92214f4da4ce6c11726",
            "hex": "473044022031076fd358479a7ab4bce40795a7cb08af9b35870759e41699045f6149a00c6b0220663e012b82eb5a8d7f885ff850b8b8ef73ce1d598db5cfefd5072429d780f08601210374a3b363b58d566d64d7ff7755b75d8cb2c9d205762ef92214f4da4ce6c11726"
          },
          "sequence": 4294967294
        }
      ],
      "vout": [
        {
          "value": 0.87502578,
          "n": 0,
          "scriptPubKey": {
            "asm": "OP_DUP OP_HASH160 caf0b75b029aeebf4db2b1888041467b325c8cf0 OP_EQUALVERIFY OP_CHECKSIG",
            "hex": "76a914caf0b75b029aeebf4db2b1888041467b325c8cf088ac",
            "reqSigs": 1,
            "type": "pubkeyhash",
            "addresses": [
              "Ldj18DhfjbPAZqDbGbsf81kKLuGZi8R71s"
            ]
          }
        }, 
        {
          "value": 0.18543255,
          "n": 1,
          "scriptPubKey": {
            "asm": "OP_DUP OP_HASH160 369a43f8d18ab3d67f337ee086b52e8bbff32c23 OP_EQUALVERIFY OP_CHECKSIG",
            "hex": "76a914369a43f8d18ab3d67f337ee086b52e8bbff32c2388ac",
            "reqSigs": 1,
            "type": "pubkeyhash",
            "addresses": [
              "LQCfZ8N6JQuthKUSmcgBkbh1Vy7JLtDmCz"
            ]
          }
        }
      ],
      "hex": "020000000266166be23238b1b3ac125a5b906013c369cec08b2e30053127f7ff2779c30b47010000006b483045022100f014ed39c031166f8b0cdb807e45c2a2a6036983b72f06649b47a903d464784302205d47355f3ef3f9a769efe906824395f4dd22995b985fe5a7129f8ee622a028e4012103e7468ebb88802a8be723928780cce5e318266c3f3b700a6a603a876b2a24ac6afeffffff95d0331e96f648597fe6d2d969a25a1c0f37a9e618c43ffa8ec570d7c22e342b000000006a473044022031076fd358479a7ab4bce40795a7cb08af9b35870759e41699045f6149a00c6b0220663e012b82eb5a8d7f885ff850b8b8ef73ce1d598db5cfefd5072429d780f08601210374a3b363b58d566d64d7ff7755b75d8cb2c9d205762ef92214f4da4ce6c11726feffffff02f22e3705000000001976a914caf0b75b029aeebf4db2b1888041467b325c8cf088ac97f21a01000000001976a914369a43f8d18ab3d67f337ee086b52e8bbff32c2388ac23be1400"
    }, 
    {
      "txid": "42258f04b03a59abc157b599fb00798c9728d39d7ab95c320bb5c2832b89da67",
      "hash": "42258f04b03a59abc157b599fb00798c9728d39d7ab95c320bb5c2832b89da67",
      "version": 1,
      "size": 226,
      "vsize": 226,
      "locktime": 0,
      "vin": [
        {
          "txid": "3fd68b43acd16ad497df7583dc8745331a1037adac576813a2f1956f833c7f73",
          "vout": 0,
          "scriptSig": {
            "asm": "304502210082cdb99abde611ee16588db7301b00382f6b0c270341e378ec9ab0d4d28f34c302201106eb87a41dbcb4a90bd39b15a506e6e43da539629dc6b1558878c3429700ea[ALL] 02f58bf8dbbe1091df0ea82154ba12f86b0c739ab0f94674ea9061689a0d4d5452",
            "hex": "48304502210082cdb99abde611ee16588db7301b00382f6b0c270341e378ec9ab0d4d28f34c302201106eb87a41dbcb4a90bd39b15a506e6e43da539629dc6b1558878c3429700ea012102f58bf8dbbe1091df0ea82154ba12f86b0c739ab0f94674ea9061689a0d4d5452"
          },
          "sequence": 4294967295
        }
      ],
      "vout": [
        {
          "value": 0.23311282,
          "n": 0,
          "scriptPubKey": {
            "asm": "OP_DUP OP_HASH160 ae301d2dc3ef446b52541671ff73aa02ab6653c3 OP_EQUALVERIFY OP_CHECKSIG",
            "hex": "76a914ae301d2dc3ef446b52541671ff73aa02ab6653c388ac",
            "reqSigs": 1,
            "type": "pubkeyhash",
            "addresses": [
              "Lb6yUcJKeVQwV4wbDnBc75Xz7rtgLm8eD6"
            ]
          }
        }, 
        {
          "value": 0.01454318,
          "n": 1,
          "scriptPubKey": {
            "asm": "OP_DUP OP_HASH160 78a599aebbaaa87f8a1f6cfc66f92d976bd4bc23 OP_EQUALVERIFY OP_CHECKSIG",
            "hex": "76a91478a599aebbaaa87f8a1f6cfc66f92d976bd4bc2388ac",
            "reqSigs": 1,
            "type": "pubkeyhash",
            "addresses": [
              "LWDsjLx7ApxEHrzKXAWTZRZ413Ljx1ys4f"
            ]
          }
        }
      ],
      "hex": "0100000001737f3c836f95f1a2136857acad37101a334587dc8375df97d46ad1ac438bd63f000000006b48304502210082cdb99abde611ee16588db7301b00382f6b0c270341e378ec9ab0d4d28f34c302201106eb87a41dbcb4a90bd39b15a506e6e43da539629dc6b1558878c3429700ea012102f58bf8dbbe1091df0ea82154ba12f86b0c739ab0f94674ea9061689a0d4d5452ffffffff02b2b36301000000001976a914ae301d2dc3ef446b52541671ff73aa02ab6653c388acee301600000000001976a91478a599aebbaaa87f8a1f6cfc66f92d976bd4bc2388ac00000000"
    }, 
    {
      "txid": "9025c23dbdce7c0d37e58c671992f33e2ada28f92829bfdab22968934bcd8fa7",
      "hash": "9025c23dbdce7c0d37e58c671992f33e2ada28f92829bfdab22968934bcd8fa7",
      "version": 1,
      "size": 372,
      "vsize": 372,
      "locktime": 1359395,
      "vin": [
        {
          "txid": "40daa772d815819b49610df557a4439f49fbff8ff2e444f55b0c8626bceb79eb",
          "vout": 1,
          "scriptSig": {
            "asm": "304402206538da1d25ecbb831cc625300723911a1b2f9bc9bf6f9fe4fc18152678963e6f022050377e42804c7979d9856f66d593c334289feea0b80eeba1a107629b0fd932f9[ALL] 039a4b0794835bfb29d8bfe6ba1b696eb4ec62a6686ecf2d09c914a5566ff417e4",
            "hex": "47304402206538da1d25ecbb831cc625300723911a1b2f9bc9bf6f9fe4fc18152678963e6f022050377e42804c7979d9856f66d593c334289feea0b80eeba1a107629b0fd932f90121039a4b0794835bfb29d8bfe6ba1b696eb4ec62a6686ecf2d09c914a5566ff417e4"
          },
          "sequence": 4294967294
        }, 
        {
          "txid": "7b6a87ef53998ab48f9c042f5acbed41591eb836da3e1fed4b5b0343a0a4e6b6",
          "vout": 0,
          "scriptSig": {
            "asm": "304402202114b1546f7c20d02862323ed17a5bd51e721e18d9e245604c0fdcf0d60268c502200da437d9fcedb370f9c6e4f8c7b9fa929085c19ea5e8ec59ad0f105cf209a255[ALL] 0241d1e5ca93b6fe1ae440450f685064eb6ddd2493eae57472d68a0a46fc4e91f9",
            "hex": "47304402202114b1546f7c20d02862323ed17a5bd51e721e18d9e245604c0fdcf0d60268c502200da437d9fcedb370f9c6e4f8c7b9fa929085c19ea5e8ec59ad0f105cf209a25501210241d1e5ca93b6fe1ae440450f685064eb6ddd2493eae57472d68a0a46fc4e91f9"
          },
          "sequence": 4294967294
        }
      ],
      "vout": [
        {
          "value": 0.01004507,
          "n": 0,
          "scriptPubKey": {
            "asm": "OP_DUP OP_HASH160 725c295e6e52903cfe7da71aecaff3b7fbb1d582 OP_EQUALVERIFY OP_CHECKSIG",
            "hex": "76a914725c295e6e52903cfe7da71aecaff3b7fbb1d58288ac",
            "reqSigs": 1,
            "type": "pubkeyhash",
            "addresses": [
              "LVedhah8eiRzwP872wP8WfLEzoLkgnWXv1"
            ]
          }
        }, 
        {
          "value": 0.67455825,
          "n": 1,
          "scriptPubKey": {
            "asm": "OP_DUP OP_HASH160 871fea90a7efa59b75aab2cbfee90c45bc203aa0 OP_EQUALVERIFY OP_CHECKSIG",
            "hex": "76a914871fea90a7efa59b75aab2cbfee90c45bc203aa088ac",
            "reqSigs": 1,
            "type": "pubkeyhash",
            "addresses": [
              "LXYRih4C7jcrM2D3AFddvf9XnVX7PkeKc3"
            ]
          }
        }
      ],
      "hex": "0100000002eb79ebbc26860c5bf544e4f28ffffb499f43a457f50d61499b8115d872a7da40010000006a47304402206538da1d25ecbb831cc625300723911a1b2f9bc9bf6f9fe4fc18152678963e6f022050377e42804c7979d9856f66d593c334289feea0b80eeba1a107629b0fd932f90121039a4b0794835bfb29d8bfe6ba1b696eb4ec62a6686ecf2d09c914a5566ff417e4feffffffb6e6a4a043035b4bed1f3eda36b81e5941edcb5a2f049c8fb48a9953ef876a7b000000006a47304402202114b1546f7c20d02862323ed17a5bd51e721e18d9e245604c0fdcf0d60268c502200da437d9fcedb370f9c6e4f8c7b9fa929085c19ea5e8ec59ad0f105cf209a25501210241d1e5ca93b6fe1ae440450f685064eb6ddd2493eae57472d68a0a46fc4e91f9feffffff02db530f00000000001976a914725c295e6e52903cfe7da71aecaff3b7fbb1d58288ac514b0504000000001976a914871fea90a7efa59b75aab2cbfee90c45bc203aa088ac23be1400"
    }
  ],
  "time": 1517275711,
  "mediantime": 1517275313,
  "nonce": 2626119485,
  "bits": "1a042eae",
  "difficulty": 4011378.762614286,
  "chainwork": "000000000000000000000000000000000000000000000033f774b0bd5372324c",
  "previousblockhash": "82b4122c406b7f73dd4fbe43b02d209459c2a69272e6a017705bdf22b814634d",
  "nextblockhash": "be586a9defae0194f6157ef7a086be6bd8d558fcea85af4988bf9d6a688bde70"
}
