{
  "hash": "506f1b2d11c392b86bfd156d89511441718c3a440278c211e3d1846565f35a48",
  "confirmations": 1459,
  "strippedsize": 2752,
  "size": 2788,
  "weight": 11044,
  "height": 1359535,
  "version": 536870912,
  "versionHex": "20000000",
  "merkleroot": "40a3aa4098020171f679664f61f61159dfc410ecac20be0c8a36f6c2fa23c299",
  "tx": [
    {
      "txid": "bc20518a7649f49f0a6ae8d7d439e9a8c569a012900c1398f006c7a94d73b0dd",
      "hash": "b1a7d3f27c5227798ce44579958eb03300e21d83966a261598602cd740bf024c",
      "version": 1,
      "size": 244,
      "vsize": 217,
      "locktime": 0,
      "vin": [
        {
          "coinbase": "03afbe14041c1a705a08049185d525000000fabe6d6d66e724e33626f4e9b97eb3260f45fcb4138178daac199afe4b448e7beac9280040000000000000000d2f6e6f64655374726174756d2f",
          "sequence": 0
        }
      ],
      "vout": [
        {
          "value": 25.00279900,
          "n": 0,
          "scriptPubKey": {
            "asm": "OP_DUP OP_HASH160 0c617fdb2ea42aed30a509595ee21ba3f6688db0 OP_EQUALVERIFY OP_CHECKSIG",
            "hex": "76a9140c617fdb2ea42aed30a509595ee21ba3f6688db088ac",
            "reqSigs": 1,
            "type": "pubkeyhash",
            "addresses": [
              "LLMRAtr3qBje2ySEa3CnZ55LA4TQMWnRY3"
            ]
          }
        }, 
        {
          "value": 0.00000000,
          "n": 1,
          "scriptPubKey": {
            "asm": "OP_RETURN aa21a9ed3493dbb4d12f2f9ce54618afb021531c0662ea04d0d8bc10ae1c209339940774",
            "hex": "6a24aa21a9ed3493dbb4d12f2f9ce54618afb021531c0662ea04d0d8bc10ae1c209339940774",
            "type": "nulldata"
          }
        }
      ],
      "hex": "010000000001010000000000000000000000000000000000000000000000000000000000000000ffffffff4c03afbe14041c1a705a08049185d525000000fabe6d6d66e724e33626f4e9b97eb3260f45fcb4138178daac199afe4b448e7beac9280040000000000000000d2f6e6f64655374726174756d2f00000000025c3e0795000000001976a9140c617fdb2ea42aed30a509595ee21ba3f6688db088ac0000000000000000266a24aa21a9ed3493dbb4d12f2f9ce54618afb021531c0662ea04d0d8bc10ae1c2093399407740120000000000000000000000000000000000000000000000000000000000000000000000000"
    }, 
    {
      "txid": "5dd36ecbe6076f9d5c978d652875f75dd9c3cdef16731c9880a5722fa8e8b376",
      "hash": "5dd36ecbe6076f9d5c978d652875f75dd9c3cdef16731c9880a5722fa8e8b376",
      "version": 1,
      "size": 666,
      "vsize": 666,
      "locktime": 0,
      "vin": [
        {
          "txid": "c861d92a4b896b1240fb041276777b985c7822eca921e8d46d7ed9f1133eca48",
          "vout": 0,
          "scriptSig": {
            "asm": "0 304402207e6ba0b7b091abc99d48296bfa5c028dcbb0750b80247076db342497928b2b14022048c7af7fe6e8f99a2745b0f5e7672860f87b58b9a23c41cbe4f827079e890f7b[ALL] 30440220476d8cd0944c4ae743f293c860a6b6a98aff109ad11b96c38b0855a286d12bd402206fdd21fa1f1fd8242789c3747ac0bbd26140e91af3752a070b937715a0abc86a[ALL] 522102008f07ca2c27d8a80736801bf651cb609672993fa39e8ff6efa13d2870b39eac2102bf3952ae48efc8985014dbe0bb065496837e986d512f1bc01d4c062e60a4ac93210330d7c7094d4297c55c30261c251e747d668f3f53d815991d97dce558fcee4c2353ae",
            "hex": "0047304402207e6ba0b7b091abc99d48296bfa5c028dcbb0750b80247076db342497928b2b14022048c7af7fe6e8f99a2745b0f5e7672860f87b58b9a23c41cbe4f827079e890f7b014730440220476d8cd0944c4ae743f293c860a6b6a98aff109ad11b96c38b0855a286d12bd402206fdd21fa1f1fd8242789c3747ac0bbd26140e91af3752a070b937715a0abc86a014c69522102008f07ca2c27d8a80736801bf651cb609672993fa39e8ff6efa13d2870b39eac2102bf3952ae48efc8985014dbe0bb065496837e986d512f1bc01d4c062e60a4ac93210330d7c7094d4297c55c30261c251e747d668f3f53d815991d97dce558fcee4c2353ae"
          },
          "sequence": 4294967295
        }, 
        {
          "txid": "f12c03b122db2127ec881b2b24843bb8417324d0b6c5d41cb33686b830c48bf9",
          "vout": 1,
          "scriptSig": {
            "asm": "0 3045022100c10ef014e164a9be697746ad8894f705f2f62b70c19396048d33a43ae7e23b07022016cb49836c827fa200773e263f0c28d3e783d538e8bf34f4d7b707d97be86846[ALL] 304502210081f743b22c5ac56784c246611aa67e38e8bff0013a73d569bb4d329f9195cbce022001721111952a43341cde55c85c6f08f968a3d3e5317b0a67d1d5d4f98de5c827[ALL] 5221035335be95a8e49574eb6802678cd79b45bc424838635dc186d687d25b7f142e5b2102bf3952ae48efc8985014dbe0bb065496837e986d512f1bc01d4c062e60a4ac93210330d7c7094d4297c55c30261c251e747d668f3f53d815991d97dce558fcee4c2353ae",
            "hex": "00483045022100c10ef014e164a9be697746ad8894f705f2f62b70c19396048d33a43ae7e23b07022016cb49836c827fa200773e263f0c28d3e783d538e8bf34f4d7b707d97be868460148304502210081f743b22c5ac56784c246611aa67e38e8bff0013a73d569bb4d329f9195cbce022001721111952a43341cde55c85c6f08f968a3d3e5317b0a67d1d5d4f98de5c827014c695221035335be95a8e49574eb6802678cd79b45bc424838635dc186d687d25b7f142e5b2102bf3952ae48efc8985014dbe0bb065496837e986d512f1bc01d4c062e60a4ac93210330d7c7094d4297c55c30261c251e747d668f3f53d815991d97dce558fcee4c2353ae"
          },
          "sequence": 4294967295
        }
      ],
      "vout": [
        {
          "value": 0.46265988,
          "n": 0,
          "scriptPubKey": {
            "asm": "OP_HASH160 dd0b55f456c1a7597aca67aa117320ba0aebb285 OP_EQUAL",
            "hex": "a914dd0b55f456c1a7597aca67aa117320ba0aebb28587",
            "reqSigs": 1,
            "type": "scripthash",
            "addresses": [
              "MU3w9StGvramUYb9qjKj52fwY8GALmH2XB"
            ]
          }
        }, 
        {
          "value": 1.38000000,
          "n": 1,
          "scriptPubKey": {
            "asm": "OP_DUP OP_HASH160 34218a4504f39c183b72a97407626cb70dc2476c OP_EQUALVERIFY OP_CHECKSIG",
            "hex": "76a91434218a4504f39c183b72a97407626cb70dc2476c88ac",
            "reqSigs": 1,
            "type": "pubkeyhash",
            "addresses": [
              "LPybabYA4kM4KnBhQSx7ahNvgA7vuThzX6"
            ]
          }
        }
      ],
      "hex": "010000000248ca3e13f1d97e6dd4e821a9ec22785c987b77761204fb40126b894b2ad961c800000000fc0047304402207e6ba0b7b091abc99d48296bfa5c028dcbb0750b80247076db342497928b2b14022048c7af7fe6e8f99a2745b0f5e7672860f87b58b9a23c41cbe4f827079e890f7b014730440220476d8cd0944c4ae743f293c860a6b6a98aff109ad11b96c38b0855a286d12bd402206fdd21fa1f1fd8242789c3747ac0bbd26140e91af3752a070b937715a0abc86a014c69522102008f07ca2c27d8a80736801bf651cb609672993fa39e8ff6efa13d2870b39eac2102bf3952ae48efc8985014dbe0bb065496837e986d512f1bc01d4c062e60a4ac93210330d7c7094d4297c55c30261c251e747d668f3f53d815991d97dce558fcee4c2353aefffffffff98bc430b88636b31cd4c5b6d0247341b83b84242b1b88ec2721db22b1032cf101000000fdfe0000483045022100c10ef014e164a9be697746ad8894f705f2f62b70c19396048d33a43ae7e23b07022016cb49836c827fa200773e263f0c28d3e783d538e8bf34f4d7b707d97be868460148304502210081f743b22c5ac56784c246611aa67e38e8bff0013a73d569bb4d329f9195cbce022001721111952a43341cde55c85c6f08f968a3d3e5317b0a67d1d5d4f98de5c827014c695221035335be95a8e49574eb6802678cd79b45bc424838635dc186d687d25b7f142e5b2102bf3952ae48efc8985014dbe0bb065496837e986d512f1bc01d4c062e60a4ac93210330d7c7094d4297c55c30261c251e747d668f3f53d815991d97dce558fcee4c2353aeffffffff0284f6c1020000000017a914dd0b55f456c1a7597aca67aa117320ba0aebb2858780b63908000000001976a91434218a4504f39c183b72a97407626cb70dc2476c88ac00000000"
    }, 
    {
      "txid": "c7ea51d37e8fdadfa59046c9c152e5d3e9c52ccddc7e74c6cd93242cc8c8dd96",
      "hash": "c7ea51d37e8fdadfa59046c9c152e5d3e9c52ccddc7e74c6cd93242cc8c8dd96",
      "version": 2,
      "size": 225,
      "vsize": 225,
      "locktime": 1359533,
      "vin": [
        {
          "txid": "af739dbe0645fe5afadfec410cb54d8fd489662d0be53022698f4f69f35a8234",
          "vout": 22,
          "scriptSig": {
            "asm": "304402202b34e23582142d28c8270118b2230d47527e76738505d070a91692906c34a1b102204b5b3555517e184e1c52046b367628d451763eee09deb0f59f4eaf62bd3899eb[ALL] 028aa716c2f955011722e7e77c766d2ed49ac42248d40e86d1a79e91b4ea5caca7",
            "hex": "47304402202b34e23582142d28c8270118b2230d47527e76738505d070a91692906c34a1b102204b5b3555517e184e1c52046b367628d451763eee09deb0f59f4eaf62bd3899eb0121028aa716c2f955011722e7e77c766d2ed49ac42248d40e86d1a79e91b4ea5caca7"
          },
          "sequence": 4294967294
        }
      ],
      "vout": [
        {
          "value": 0.90000000,
          "n": 0,
          "scriptPubKey": {
            "asm": "OP_DUP OP_HASH160 f9c4da86b49569d057bfebdc0f4f3f2896fa87d6 OP_EQUALVERIFY OP_CHECKSIG",
            "hex": "76a914f9c4da86b49569d057bfebdc0f4f3f2896fa87d688ac",
            "reqSigs": 1,
            "type": "pubkeyhash",
            "addresses": [
              "LhzcLcDPShvYmJFZq5miYfLtGcyKg9rN6Y"
            ]
          }
        }, 
        {
          "value": 1.08777400,
          "n": 1,
          "scriptPubKey": {
            "asm": "OP_DUP OP_HASH160 85b16068c3562a2c2cd2a26834c4f386dcf3967c OP_EQUALVERIFY OP_CHECKSIG",
            "hex": "76a91485b16068c3562a2c2cd2a26834c4f386dcf3967c88ac",
            "reqSigs": 1,
            "type": "pubkeyhash",
            "addresses": [
              "LXQrd4vynyccMqHX91QH68LfJnRCXqv5KP"
            ]
          }
        }
      ],
      "hex": "020000000134825af3694f8f692230e50b2d6689d48f4db50c41ecdffa5afe4506be9d73af160000006a47304402202b34e23582142d28c8270118b2230d47527e76738505d070a91692906c34a1b102204b5b3555517e184e1c52046b367628d451763eee09deb0f59f4eaf62bd3899eb0121028aa716c2f955011722e7e77c766d2ed49ac42248d40e86d1a79e91b4ea5caca7feffffff02804a5d05000000001976a914f9c4da86b49569d057bfebdc0f4f3f2896fa87d688acb8cf7b06000000001976a91485b16068c3562a2c2cd2a26834c4f386dcf3967c88acadbe1400"
    }, 
    {
      "txid": "5a529ac897216a05f431dddfcfe2cd8e8535659c40a0903da6afeec2bfd8272e",
      "hash": "5a529ac897216a05f431dddfcfe2cd8e8535659c40a0903da6afeec2bfd8272e",
      "version": 2,
      "size": 521,
      "vsize": 521,
      "locktime": 1359470,
      "vin": [
        {
          "txid": "ecbdf60b79e07610ebd853b266eb99362bd54ba90d90f4cb30ae5317b254be1d",
          "vout": 0,
          "scriptSig": {
            "asm": "304402201f05e4ad7e0858873fb927850c87ba8513b820374083648abd1779fd09ff769d02206a2fff0aeccf8a2ec32dceb49ae1f80b31304e575581979db7c21e5a5964411f[ALL] 03f3a247e3741b34e43c516f7f187f8e52d00fc4ea515445025ad3122c9b319e02",
            "hex": "47304402201f05e4ad7e0858873fb927850c87ba8513b820374083648abd1779fd09ff769d02206a2fff0aeccf8a2ec32dceb49ae1f80b31304e575581979db7c21e5a5964411f012103f3a247e3741b34e43c516f7f187f8e52d00fc4ea515445025ad3122c9b319e02"
          },
          "sequence": 4294967294
        }, 
        {
          "txid": "6b63cfad3c099d3ab6d053dfcfdb8e3e8a094aac4ed808ded24cfed81906f74a",
          "vout": 1,
          "scriptSig": {
            "asm": "3045022100ffc454deb76cf6493cb121e0e69d95590f720c3225b762e4cd1281b15b06e4d00220384adf03d015db710f33637604d776fcb46eab56660f9196b7a6f94b0899ee9e[ALL] 0211fb210cf0afa3fd60646ad0fd7625dede93aa5e7eabb80ad935b1379694ebf9",
            "hex": "483045022100ffc454deb76cf6493cb121e0e69d95590f720c3225b762e4cd1281b15b06e4d00220384adf03d015db710f33637604d776fcb46eab56660f9196b7a6f94b0899ee9e01210211fb210cf0afa3fd60646ad0fd7625dede93aa5e7eabb80ad935b1379694ebf9"
          },
          "sequence": 4294967294
        }, 
        {
          "txid": "b2b70aae2dca7fcacf40900a97b34b2ca9b66ce067aba1d8e956c99b6c9cbdd0",
          "vout": 1,
          "scriptSig": {
            "asm": "30450221008435d7717bd8ce39db3a32e9dd000bd6a94ddc7bf4425bb697aa813e71b49bb602204325c87eca0b985ce416c98fb1ccf81c976149f47723bfe0bb3bdf852bd4e7df[ALL] 0398148a70090ec80a2e199fbe4263e550512ee940c529f8e6dd5b99a9184622b0",
            "hex": "4830450221008435d7717bd8ce39db3a32e9dd000bd6a94ddc7bf4425bb697aa813e71b49bb602204325c87eca0b985ce416c98fb1ccf81c976149f47723bfe0bb3bdf852bd4e7df01210398148a70090ec80a2e199fbe4263e550512ee940c529f8e6dd5b99a9184622b0"
          },
          "sequence": 4294967294
        }
      ],
      "vout": [
        {
          "value": 0.00953512,
          "n": 0,
          "scriptPubKey": {
            "asm": "OP_DUP OP_HASH160 938881c620fa5be30d6fc135abc80ebac564362b OP_EQUALVERIFY OP_CHECKSIG",
            "hex": "76a914938881c620fa5be30d6fc135abc80ebac564362b88ac",
            "reqSigs": 1,
            "type": "pubkeyhash",
            "addresses": [
              "LYg385amfFcL86GtereU7uSsVP7QcNZf5x"
            ]
          }
        }, 
        {
          "value": 11.49224288,
          "n": 1,
          "scriptPubKey": {
            "asm": "OP_DUP OP_HASH160 9745d642de7a9b17792dc1cd63a4c50cb9f506ef OP_EQUALVERIFY OP_CHECKSIG",
            "hex": "76a9149745d642de7a9b17792dc1cd63a4c50cb9f506ef88ac",
            "reqSigs": 1,
            "type": "pubkeyhash",
            "addresses": [
              "LZ1oxY4PAePYqW3ss3SwvtwPEKek6NLAPW"
            ]
          }
        }
      ],
      "hex": "02000000031dbe54b21753ae30cbf4900da94bd52b3699eb66b253d8eb1076e0790bf6bdec000000006a47304402201f05e4ad7e0858873fb927850c87ba8513b820374083648abd1779fd09ff769d02206a2fff0aeccf8a2ec32dceb49ae1f80b31304e575581979db7c21e5a5964411f012103f3a247e3741b34e43c516f7f187f8e52d00fc4ea515445025ad3122c9b319e02feffffff4af70619d8fe4cd2de08d84eac4a098a3e8edbcfdf53d0b63a9d093cadcf636b010000006b483045022100ffc454deb76cf6493cb121e0e69d95590f720c3225b762e4cd1281b15b06e4d00220384adf03d015db710f33637604d776fcb46eab56660f9196b7a6f94b0899ee9e01210211fb210cf0afa3fd60646ad0fd7625dede93aa5e7eabb80ad935b1379694ebf9feffffffd0bd9c6c9bc956e9d8a1ab67e06cb6a92c4bb3970a9040cfca7fca2dae0ab7b2010000006b4830450221008435d7717bd8ce39db3a32e9dd000bd6a94ddc7bf4425bb697aa813e71b49bb602204325c87eca0b985ce416c98fb1ccf81c976149f47723bfe0bb3bdf852bd4e7df01210398148a70090ec80a2e199fbe4263e550512ee940c529f8e6dd5b99a9184622b0feffffff02a88c0e00000000001976a914938881c620fa5be30d6fc135abc80ebac564362b88ac60c57f44000000001976a9149745d642de7a9b17792dc1cd63a4c50cb9f506ef88ac6ebe1400"
    }, 
    {
      "txid": "c3c699c460579099ff985437752aebd9c5766eb7d69df056f35e0458aab8222c",
      "hash": "c3c699c460579099ff985437752aebd9c5766eb7d69df056f35e0458aab8222c",
      "version": 1,
      "size": 226,
      "vsize": 226,
      "locktime": 0,
      "vin": [
        {
          "txid": "42869371c6875a1e690aa8e6d8b0c91b796db70f015a6e7bf74345aba26a7438",
          "vout": 1,
          "scriptSig": {
            "asm": "30450221008131f81a5853951418a744592862cb6924bbe824743c19ce6c97863c5994dd3902207d2e3ed8e12a75bc2dfb419793d5371aaa70a6999e472e104043cf41a398f90f[ALL] 026ee88cf06b4c4de51971bee8428371008977076df945edb3d849ee1da7f5bbdc",
            "hex": "4830450221008131f81a5853951418a744592862cb6924bbe824743c19ce6c97863c5994dd3902207d2e3ed8e12a75bc2dfb419793d5371aaa70a6999e472e104043cf41a398f90f0121026ee88cf06b4c4de51971bee8428371008977076df945edb3d849ee1da7f5bbdc"
          },
          "sequence": 4294967295
        }
      ],
      "vout": [
        {
          "value": 0.62104408,
          "n": 0,
          "scriptPubKey": {
            "asm": "OP_DUP OP_HASH160 be19f135ceb9b3348a4b9b2928ef54b1fb3d4031 OP_EQUALVERIFY OP_CHECKSIG",
            "hex": "76a914be19f135ceb9b3348a4b9b2928ef54b1fb3d403188ac",
            "reqSigs": 1,
            "type": "pubkeyhash",
            "addresses": [
              "LcZ7jA8vch6mwK13ZrKHssJnyFvMm8Gy4y"
            ]
          }
        }, 
        {
          "value": 2.00000000,
          "n": 1,
          "scriptPubKey": {
            "asm": "OP_DUP OP_HASH160 1666652315653d14f1850c57d86b3c674a96f600 OP_EQUALVERIFY OP_CHECKSIG",
            "hex": "76a9141666652315653d14f1850c57d86b3c674a96f60088ac",
            "reqSigs": 1,
            "type": "pubkeyhash",
            "addresses": [
              "LMGPny42m2v2dnBxhF5ApvuF24mgN7qeBh"
            ]
          }
        }
      ],
      "hex": "010000000138746aa2ab4543f77b6e5a010fb76d791bc9b0d8e6a80a691e5a87c671938642010000006b4830450221008131f81a5853951418a744592862cb6924bbe824743c19ce6c97863c5994dd3902207d2e3ed8e12a75bc2dfb419793d5371aaa70a6999e472e104043cf41a398f90f0121026ee88cf06b4c4de51971bee8428371008977076df945edb3d849ee1da7f5bbdcffffffff0258a3b303000000001976a914be19f135ceb9b3348a4b9b2928ef54b1fb3d403188ac00c2eb0b000000001976a9141666652315653d14f1850c57d86b3c674a96f60088ac00000000"
    }, 
    {
      "txid": "40f7bb4c8f658636b2680ce734fb9889a44c15614e925c60abc66b832bc96771",
      "hash": "40f7bb4c8f658636b2680ce734fb9889a44c15614e925c60abc66b832bc96771",
      "version": 1,
      "size": 226,
      "vsize": 226,
      "locktime": 0,
      "vin": [
        {
          "txid": "d5453ccebc587ff133c208e79289c539404eab71081bcb04d71503e8faee2c7e",
          "vout": 1,
          "scriptSig": {
            "asm": "3045022100b7099186d155b826d8255b5f1dd612df2db1b035d68438c1c39b8fe9bfbbc6ed02200356173b730b9ac5347ea92eed0b1851b3cc56e68ed586241810a85a0fbc6bfe[ALL] 0279e987b82c8ca10dc64a082d1709678dfd9a2911d8b92d7864b4b2d5487e4e09",
            "hex": "483045022100b7099186d155b826d8255b5f1dd612df2db1b035d68438c1c39b8fe9bfbbc6ed02200356173b730b9ac5347ea92eed0b1851b3cc56e68ed586241810a85a0fbc6bfe01210279e987b82c8ca10dc64a082d1709678dfd9a2911d8b92d7864b4b2d5487e4e09"
          },
          "sequence": 4294967295
        }
      ],
      "vout": [
        {
          "value": 1.10241085,
          "n": 0,
          "scriptPubKey": {
            "asm": "OP_DUP OP_HASH160 f2d582d152e3371db51b297d13c0089903516ddd OP_EQUALVERIFY OP_CHECKSIG",
            "hex": "76a914f2d582d152e3371db51b297d13c0089903516ddd88ac",
            "reqSigs": 1,
            "type": "pubkeyhash",
            "addresses": [
              "LhMwZe7rBC1s2A9DC1HF2MoVzTyNxXJGPj"
            ]
          }
        }, 
        {
          "value": 0.30471715,
          "n": 1,
          "scriptPubKey": {
            "asm": "OP_DUP OP_HASH160 97e5d5bc92bef3999a9cbffca75cb9f41ec1b2b1 OP_EQUALVERIFY OP_CHECKSIG",
            "hex": "76a91497e5d5bc92bef3999a9cbffca75cb9f41ec1b2b188ac",
            "reqSigs": 1,
            "type": "pubkeyhash",
            "addresses": [
              "LZ57dPWEpCcku1TimpNM5DgA13ESL2P3hF"
            ]
          }
        }
      ],
      "hex": "01000000017e2ceefae80315d704cb1b0871ab4e4039c58992e708c233f17f58bcce3c45d5010000006b483045022100b7099186d155b826d8255b5f1dd612df2db1b035d68438c1c39b8fe9bfbbc6ed02200356173b730b9ac5347ea92eed0b1851b3cc56e68ed586241810a85a0fbc6bfe01210279e987b82c8ca10dc64a082d1709678dfd9a2911d8b92d7864b4b2d5487e4e09ffffffff023d259206000000001976a914f2d582d152e3371db51b297d13c0089903516ddd88ac23f6d001000000001976a91497e5d5bc92bef3999a9cbffca75cb9f41ec1b2b188ac00000000"
    }, 
    {
      "txid": "0ef8a1fa1b742448bb4bb9f6c055b666edf563b94c24f58c727cb42f16840980",
      "hash": "0ef8a1fa1b742448bb4bb9f6c055b666edf563b94c24f58c727cb42f16840980",
      "version": 1,
      "size": 373,
      "vsize": 373,
      "locktime": 1359533,
      "vin": [
        {
          "txid": "c85c1804c8d1a2b4a6b64b94a130e269aa9c943e5249f0da6392491d3b3748d3",
          "vout": 0,
          "scriptSig": {
            "asm": "304402207c787f46ec2d14843d5ec8d9af5185b5442bf42ba47847e65c03b0d15bec1fdc022057a8c5f583917ec1374254c7e0b69667032f82beeb1760208c1e2783730b56bb[ALL] 025b79460043ee265e34d93eb510eadf066831626a143d312d5e73f9de8f876a1c",
            "hex": "47304402207c787f46ec2d14843d5ec8d9af5185b5442bf42ba47847e65c03b0d15bec1fdc022057a8c5f583917ec1374254c7e0b69667032f82beeb1760208c1e2783730b56bb0121025b79460043ee265e34d93eb510eadf066831626a143d312d5e73f9de8f876a1c"
          },
          "sequence": 4294967294
        }, 
        {
          "txid": "d3c49f36a15e290ae58a47b2b44a46db58fe7c8374a8680657ed5db9e03ab0f1",
          "vout": 1,
          "scriptSig": {
            "asm": "30450221008692016523a36ec34bd62e8363d145817ca0d630326649b196a6d67056e167d402206e212a46238d634fd0537065fe09bdf1ec41c272d25a7e265568748fbf6dbdb2[ALL] 0328ed71bd30ce583327022b921c5cfbb835f6a121cef4d59e3af5b44e95253eea",
            "hex": "4830450221008692016523a36ec34bd62e8363d145817ca0d630326649b196a6d67056e167d402206e212a46238d634fd0537065fe09bdf1ec41c272d25a7e265568748fbf6dbdb201210328ed71bd30ce583327022b921c5cfbb835f6a121cef4d59e3af5b44e95253eea"
          },
          "sequence": 4294967294
        }
      ],
      "vout": [
        {
          "value": 1.00000000,
          "n": 0,
          "scriptPubKey": {
            "asm": "OP_DUP OP_HASH160 b4fa182d6cd77fb91aca33c809806df00cbd110b OP_EQUALVERIFY OP_CHECKSIG",
            "hex": "76a914b4fa182d6cd77fb91aca33c809806df00cbd110b88ac",
            "reqSigs": 1,
            "type": "pubkeyhash",
            "addresses": [
              "LbisVcH3bfWRJFtmViVq7uc2eV8AMFsFqm"
            ]
          }
        }, 
        {
          "value": 0.01005637,
          "n": 1,
          "scriptPubKey": {
            "asm": "OP_DUP OP_HASH160 849d47ebf795b55e65f4139d6eef0631ca13a4ed OP_EQUALVERIFY OP_CHECKSIG",
            "hex": "76a914849d47ebf795b55e65f4139d6eef0631ca13a4ed88ac",
            "reqSigs": 1,
            "type": "pubkeyhash",
            "addresses": [
              "LXK9sc7arXHuX2DAsX4h2zQLrSxGEM4KMz"
            ]
          }
        }
      ],
      "hex": "0100000002d348373b1d499263daf049523e949caa69e230a1944bb6a6b4a2d1c804185cc8000000006a47304402207c787f46ec2d14843d5ec8d9af5185b5442bf42ba47847e65c03b0d15bec1fdc022057a8c5f583917ec1374254c7e0b69667032f82beeb1760208c1e2783730b56bb0121025b79460043ee265e34d93eb510eadf066831626a143d312d5e73f9de8f876a1cfefffffff1b03ae0b95ded570668a874837cfe58db464ab4b2478ae50a295ea1369fc4d3010000006b4830450221008692016523a36ec34bd62e8363d145817ca0d630326649b196a6d67056e167d402206e212a46238d634fd0537065fe09bdf1ec41c272d25a7e265568748fbf6dbdb201210328ed71bd30ce583327022b921c5cfbb835f6a121cef4d59e3af5b44e95253eeafeffffff0200e1f505000000001976a914b4fa182d6cd77fb91aca33c809806df00cbd110b88ac45580f00000000001976a914849d47ebf795b55e65f4139d6eef0631ca13a4ed88acadbe1400"
    }, 
    {
      "txid": "37359bd0deefaa4c82c87c6229ee37e793706391c997407312799e10abbcd3a2",
      "hash": "37359bd0deefaa4c82c87c6229ee37e793706391c997407312799e10abbcd3a2",
      "version": 2,
      "size": 226,
      "vsize": 226,
      "locktime": 1359533,
      "vin": [
        {
          "txid": "76f76410e725619161cde3c8e56f87ecb5e4cb509573008407a7ee8374986baf",
          "vout": 0,
          "scriptSig": {
            "asm": "304502210097573a1b91c9b1dc8586f9c3164ed308aa9fd6ae15fce673aa29de6b006f70f0022073be3b1c3795e39f5dee70d5b1c3a560f8745d14ee7e25f54d31a522a709d602[ALL] 0350f87373073561e78f2cd02693aa9b01f3c5ae8099a48b5ac8940bcdfd0f98e4",
            "hex": "48304502210097573a1b91c9b1dc8586f9c3164ed308aa9fd6ae15fce673aa29de6b006f70f0022073be3b1c3795e39f5dee70d5b1c3a560f8745d14ee7e25f54d31a522a709d60201210350f87373073561e78f2cd02693aa9b01f3c5ae8099a48b5ac8940bcdfd0f98e4"
          },
          "sequence": 4294967294
        }
      ],
      "vout": [
        {
          "value": 0.25703577,
          "n": 0,
          "scriptPubKey": {
            "asm": "OP_DUP OP_HASH160 fd2dbd012ea7c84192aae162a9d2f24275688342 OP_EQUALVERIFY OP_CHECKSIG",
            "hex": "76a914fd2dbd012ea7c84192aae162a9d2f2427568834288ac",
            "reqSigs": 1,
            "type": "pubkeyhash",
            "addresses": [
              "LiJe1hVD67XHVYmVxm8duT4pj7nErtPgtZ"
            ]
          }
        }, 
        {
          "value": 15.48914443,
          "n": 1,
          "scriptPubKey": {
            "asm": "OP_DUP OP_HASH160 003a6beb1032035d144cb88525daac01c71b8b03 OP_EQUALVERIFY OP_CHECKSIG",
            "hex": "76a914003a6beb1032035d144cb88525daac01c71b8b0388ac",
            "reqSigs": 1,
            "type": "pubkeyhash",
            "addresses": [
              "LKFAFQxTYJjcY2yjQHhxBx7EGwu2vczUPU"
            ]
          }
        }
      ],
      "hex": "0200000001af6b987483eea7078400739550cbe4b5ec876fe5c8e3cd61916125e71064f776000000006b48304502210097573a1b91c9b1dc8586f9c3164ed308aa9fd6ae15fce673aa29de6b006f70f0022073be3b1c3795e39f5dee70d5b1c3a560f8745d14ee7e25f54d31a522a709d60201210350f87373073561e78f2cd02693aa9b01f3c5ae8099a48b5ac8940bcdfd0f98e4feffffff0299348801000000001976a914fd2dbd012ea7c84192aae162a9d2f2427568834288ac0b8f525c000000001976a914003a6beb1032035d144cb88525daac01c71b8b0388acadbe1400"
    }
  ],
  "time": 1517296093,
  "mediantime": 1517295475,
  "nonce": 3745462406,
  "bits": "1a042eae",
  "difficulty": 4011378.762614286,
  "chainwork": "0000000000000000000000000000000000000000000000341873a19981f19260",
  "previousblockhash": "a954023054227017943ca64cc68a4275da54d5d6bd759e24f12655f12cf8e10c",
  "nextblockhash": "2d6b7d0fd3130623b58969239424dc4ee484356726df5e3e2fc4c5571baf3fd4"
}
