{
  "hash": "507f7fe3cbf39af109a86168cf9a039804fd6338c50134bb5d084ed2535eb9bc",
  "confirmations": 346,
  "strippedsize": 234,
  "size": 234,
  "weight": 936,
  "height": 1360648,
  "version": 536870912,
  "versionHex": "20000000",
  "merkleroot": "592aeccc7f7c05bb50957bb1e3c19185fe490575a87e9bbca83db1fb364fd77f",
  "tx": [
    {
      "txid": "592aeccc7f7c05bb50957bb1e3c19185fe490575a87e9bbca83db1fb364fd77f",
      "hash": "592aeccc7f7c05bb50957bb1e3c19185fe490575a87e9bbca83db1fb364fd77f",
      "version": 1,
      "size": 153,
      "vsize": 153,
      "locktime": 0,
      "vin": [
        {
          "coinbase": "0308c314045a72a07e2cfabe6d6d008025bb46512dcf9a150a52b2da13290a6b0c8b21ce55a63cf5e1c2e0cb074d4000000000000000042f4c502f085c00615c16000000",
          "sequence": 4294967295
        }
      ],
      "vout": [
        {
          "value": 25.00000000,
          "n": 0,
          "scriptPubKey": {
            "asm": "OP_DUP OP_HASH160 57757ed2ecf2052ff3126c397aca7defb9ca2cec OP_EQUALVERIFY OP_CHECKSIG",
            "hex": "76a91457757ed2ecf2052ff3126c397aca7defb9ca2cec88ac",
            "reqSigs": 1,
            "type": "pubkeyhash",
            "addresses": [
              "LTCPodGk5FwcJaRzH9yKnwicxzFUbxp6tN"
            ]
          }
        }
      ],
      "hex": "01000000010000000000000000000000000000000000000000000000000000000000000000ffffffff440308c314045a72a07e2cfabe6d6d008025bb46512dcf9a150a52b2da13290a6b0c8b21ce55a63cf5e1c2e0cb074d4000000000000000042f4c502f085c00615c16000000ffffffff0100f90295000000001976a91457757ed2ecf2052ff3126c397aca7defb9ca2cec88ac00000000"
    }
  ],
  "time": 1517461630,
  "mediantime": 1517460909,
  "nonce": 1988088993,
  "bits": "1a042eae",
  "difficulty": 4011378.762614286,
  "chainwork": "00000000000000000000000000000000000000000000003522920baab62c8892",
  "previousblockhash": "e4ed7f5f802ff58b41292aac90565af9114beeda27697ce55aae28134f0a4f1e",
  "nextblockhash": "9582d816c21898cea41fc920a76e8d8fe58ea1a0544dc243f2a5557063154881"
}
