{
  "hash": "510bcccb0085b6ec61bb3a80f768ba26d94d0632a1ce0a48d292de1f458088ff",
  "confirmations": 456,
  "strippedsize": 1417,
  "size": 1453,
  "weight": 5704,
  "height": 1360538,
  "version": 536870912,
  "versionHex": "20000000",
  "merkleroot": "3ddf15a224c0510b84c65aad011d8a158b2789afcfda7caf04c8dcc3a582da82",
  "tx": [
    {
      "txid": "fb781efa44cb75dc3a48bf85228f4c354b67887534cfec7d0d313055f880782e",
      "hash": "7d5a011d7b24e7b22ab1814eed12e80cc5e7ce5e339265a9d28d9ec593a8b9d2",
      "version": 1,
      "size": 244,
      "vsize": 217,
      "locktime": 0,
      "vin": [
        {
          "coinbase": "039ac214046e65725a08053f850715000000fabe6d6d3848a51c6b9802ec2314cc5301449c1f0605d6e777cb4d16e40d8bf41f1ce3c440000000000000000d2f6e6f64655374726174756d2f",
          "sequence": 0
        }
      ],
      "vout": [
        {
          "value": 25.00492470,
          "n": 0,
          "scriptPubKey": {
            "asm": "OP_DUP OP_HASH160 0c617fdb2ea42aed30a509595ee21ba3f6688db0 OP_EQUALVERIFY OP_CHECKSIG",
            "hex": "76a9140c617fdb2ea42aed30a509595ee21ba3f6688db088ac",
            "reqSigs": 1,
            "type": "pubkeyhash",
            "addresses": [
              "LLMRAtr3qBje2ySEa3CnZ55LA4TQMWnRY3"
            ]
          }
        }, 
        {
          "value": 0.00000000,
          "n": 1,
          "scriptPubKey": {
            "asm": "OP_RETURN aa21a9ed4cee3d9dd10244e61cfa23bfcaf7a606c2d6b7fed1433ad5dbdf9fe36eafb7be",
            "hex": "6a24aa21a9ed4cee3d9dd10244e61cfa23bfcaf7a606c2d6b7fed1433ad5dbdf9fe36eafb7be",
            "type": "nulldata"
          }
        }
      ],
      "hex": "010000000001010000000000000000000000000000000000000000000000000000000000000000ffffffff4c039ac214046e65725a08053f850715000000fabe6d6d3848a51c6b9802ec2314cc5301449c1f0605d6e777cb4d16e40d8bf41f1ce3c440000000000000000d2f6e6f64655374726174756d2f0000000002b67c0a95000000001976a9140c617fdb2ea42aed30a509595ee21ba3f6688db088ac0000000000000000266a24aa21a9ed4cee3d9dd10244e61cfa23bfcaf7a606c2d6b7fed1433ad5dbdf9fe36eafb7be0120000000000000000000000000000000000000000000000000000000000000000000000000"
    }, 
    {
      "txid": "f00a4b7f0fcddf2cc1f05ee8027943935eb616a5857d7bf525333d1b880e3ec1",
      "hash": "f00a4b7f0fcddf2cc1f05ee8027943935eb616a5857d7bf525333d1b880e3ec1",
      "version": 1,
      "size": 338,
      "vsize": 338,
      "locktime": 0,
      "vin": [
        {
          "txid": "d4b004a35662314fff843b9ee87a2e11bf460f7ddc3dcd81eeda2818037c4e9e",
          "vout": 1,
          "scriptSig": {
            "asm": "304402206287642a6648c24bb2a2f3ce809f071fddeef99be40a4b6c735684ac495011ce022030ea40b48cec74e2171ba7a0e0344d41d120300036ceaf0e1de72b8f9d1f1a49[ALL] 0339fe73726559478b348847eff0700f035eff1183d1d65bc8c6ee8ac6c66da33a",
            "hex": "47304402206287642a6648c24bb2a2f3ce809f071fddeef99be40a4b6c735684ac495011ce022030ea40b48cec74e2171ba7a0e0344d41d120300036ceaf0e1de72b8f9d1f1a4901210339fe73726559478b348847eff0700f035eff1183d1d65bc8c6ee8ac6c66da33a"
          },
          "sequence": 4294967295
        }, 
        {
          "txid": "98591882b0cfc6eacbc23b1c62007cf943fdc3afb3865f3ea70a6583b7ac3247",
          "vout": 1,
          "scriptSig": {
            "asm": "304402201733bfe9cba4e98491da902e8c3676fdb6f3cf6557cbd0cb1c47ae614f6022b6022024f7549a5bde28472cd79e2ba784cdea71e6a069077251bcef2b0f79269477b1[ALL] 0339fe73726559478b348847eff0700f035eff1183d1d65bc8c6ee8ac6c66da33a",
            "hex": "47304402201733bfe9cba4e98491da902e8c3676fdb6f3cf6557cbd0cb1c47ae614f6022b6022024f7549a5bde28472cd79e2ba784cdea71e6a069077251bcef2b0f79269477b101210339fe73726559478b348847eff0700f035eff1183d1d65bc8c6ee8ac6c66da33a"
          },
          "sequence": 4294967295
        }
      ],
      "vout": [
        {
          "value": 4.16870561,
          "n": 0,
          "scriptPubKey": {
            "asm": "OP_DUP OP_HASH160 81ca064dfac0bf55c93e47446c40007b8b42e3e3 OP_EQUALVERIFY OP_CHECKSIG",
            "hex": "76a91481ca064dfac0bf55c93e47446c40007b8b42e3e388ac",
            "reqSigs": 1,
            "type": "pubkeyhash",
            "addresses": [
              "LX4DSsnEKaGq3JBGXA5qo9f5W22LpxKkxk"
            ]
          }
        }
      ],
      "hex": "01000000029e4e7c031828daee81cd3ddc7d0f46bf112e7ae89e3b84ff4f316256a304b0d4010000006a47304402206287642a6648c24bb2a2f3ce809f071fddeef99be40a4b6c735684ac495011ce022030ea40b48cec74e2171ba7a0e0344d41d120300036ceaf0e1de72b8f9d1f1a4901210339fe73726559478b348847eff0700f035eff1183d1d65bc8c6ee8ac6c66da33affffffff4732acb783650aa73e5f86b3afc3fd43f97c00621c3bc2cbeac6cfb082185998010000006a47304402201733bfe9cba4e98491da902e8c3676fdb6f3cf6557cbd0cb1c47ae614f6022b6022024f7549a5bde28472cd79e2ba784cdea71e6a069077251bcef2b0f79269477b101210339fe73726559478b348847eff0700f035eff1183d1d65bc8c6ee8ac6c66da33affffffff01a1f0d818000000001976a91481ca064dfac0bf55c93e47446c40007b8b42e3e388ac00000000"
    }, 
    {
      "txid": "584fd7a28d93eaab37754c139ae04582cfa0c95d5a831f8ba5202b029b6fde67",
      "hash": "584fd7a28d93eaab37754c139ae04582cfa0c95d5a831f8ba5202b029b6fde67",
      "version": 2,
      "size": 372,
      "vsize": 372,
      "locktime": 1360446,
      "vin": [
        {
          "txid": "5bf15a6fad42bc4f22450312465b80635479f4ce53bf15fcd5d029d5d0e0485e",
          "vout": 1,
          "scriptSig": {
            "asm": "30440220650932cf626f0104132a83e38a7ed675e3376868ce6c9ce05fdc94d5bbb09fa202206a78f6ce4564a0ceb80000aa5975c75f3fe42b45b89c4d72f8b45f3b12fb5f8e[ALL] 0349435e237f799e10a30e73168092adbd52d3863c2f0b3cfef5df12791acf8f08",
            "hex": "4730440220650932cf626f0104132a83e38a7ed675e3376868ce6c9ce05fdc94d5bbb09fa202206a78f6ce4564a0ceb80000aa5975c75f3fe42b45b89c4d72f8b45f3b12fb5f8e01210349435e237f799e10a30e73168092adbd52d3863c2f0b3cfef5df12791acf8f08"
          },
          "sequence": 4294967294
        }, 
        {
          "txid": "6266611e89de2440e712fe0e08413c0eafd96020c1cfb6a220462c61dde7f6e4",
          "vout": 0,
          "scriptSig": {
            "asm": "304402200a6186d76e211bbda5e2f68a2054f52af25175a2cff79fa2b22de9a45128657902207d626f7a9d6b68d93b58de2f36a3f24aa4b89d8cefb19c073709a195385b7f09[ALL] 037570a64fc09b9e0a1d6ac148a25caa4932dee85eebd91b593a79e55d5ef2ddf4",
            "hex": "47304402200a6186d76e211bbda5e2f68a2054f52af25175a2cff79fa2b22de9a45128657902207d626f7a9d6b68d93b58de2f36a3f24aa4b89d8cefb19c073709a195385b7f090121037570a64fc09b9e0a1d6ac148a25caa4932dee85eebd91b593a79e55d5ef2ddf4"
          },
          "sequence": 4294967294
        }
      ],
      "vout": [
        {
          "value": 0.01297113,
          "n": 0,
          "scriptPubKey": {
            "asm": "OP_DUP OP_HASH160 5c6654b63df91239e0060c9ee977253a15962b64 OP_EQUALVERIFY OP_CHECKSIG",
            "hex": "76a9145c6654b63df91239e0060c9ee977253a15962b6488ac",
            "reqSigs": 1,
            "type": "pubkeyhash",
            "addresses": [
              "LTeX1wKeXxwpneA2EMHoXkyLisGZXGDtH9"
            ]
          }
        }, 
        {
          "value": 0.20999999,
          "n": 1,
          "scriptPubKey": {
            "asm": "OP_DUP OP_HASH160 8732bcb6edada09c4a8876c6948fb7c2107fc767 OP_EQUALVERIFY OP_CHECKSIG",
            "hex": "76a9148732bcb6edada09c4a8876c6948fb7c2107fc76788ac",
            "reqSigs": 1,
            "type": "pubkeyhash",
            "addresses": [
              "LXYpGPb14515rpGg9VP6dPb6EXdaX66f6N"
            ]
          }
        }
      ],
      "hex": "02000000025e48e0d0d529d0d5fc15bf53cef4795463805b46120345224fbc42ad6f5af15b010000006a4730440220650932cf626f0104132a83e38a7ed675e3376868ce6c9ce05fdc94d5bbb09fa202206a78f6ce4564a0ceb80000aa5975c75f3fe42b45b89c4d72f8b45f3b12fb5f8e01210349435e237f799e10a30e73168092adbd52d3863c2f0b3cfef5df12791acf8f08feffffffe4f6e7dd612c4620a2b6cfc12060d9af0e3c41080efe12e74024de891e616662000000006a47304402200a6186d76e211bbda5e2f68a2054f52af25175a2cff79fa2b22de9a45128657902207d626f7a9d6b68d93b58de2f36a3f24aa4b89d8cefb19c073709a195385b7f090121037570a64fc09b9e0a1d6ac148a25caa4932dee85eebd91b593a79e55d5ef2ddf4feffffff02d9ca1300000000001976a9145c6654b63df91239e0060c9ee977253a15962b6488ac3f6f4001000000001976a9148732bcb6edada09c4a8876c6948fb7c2107fc76788ac3ec21400"
    }, 
    {
      "txid": "705a4df852aa7b6892e939f4537bf813919c2dc8e3ec2c51491a6e9b23d43c19",
      "hash": "705a4df852aa7b6892e939f4537bf813919c2dc8e3ec2c51491a6e9b23d43c19",
      "version": 1,
      "size": 192,
      "vsize": 192,
      "locktime": 1360536,
      "vin": [
        {
          "txid": "cac67c1557789e3775f20f7b8e73ddea2365a03a67d9b0cec4222e86c8ecdd8e",
          "vout": 0,
          "scriptSig": {
            "asm": "3045022100b9c8f29a194f1b6a46434e91da8ab751ce533c74fc23f9afb6c95cb98f9492a2022041306716c8d5fccaec1b6607651bfaf2dbd649db7531190ea3cb5c447f78053a[ALL] 03ef61e7b2fb9639c8b84a6715520bb070524313f23aebbe2d6a67d6b2d5111b0d",
            "hex": "483045022100b9c8f29a194f1b6a46434e91da8ab751ce533c74fc23f9afb6c95cb98f9492a2022041306716c8d5fccaec1b6607651bfaf2dbd649db7531190ea3cb5c447f78053a012103ef61e7b2fb9639c8b84a6715520bb070524313f23aebbe2d6a67d6b2d5111b0d"
          },
          "sequence": 4294967294
        }
      ],
      "vout": [
        {
          "value": 0.14152902,
          "n": 0,
          "scriptPubKey": {
            "asm": "OP_DUP OP_HASH160 ee6eb19191db3f9d562b9af807bb757d8d38efe9 OP_EQUALVERIFY OP_CHECKSIG",
            "hex": "76a914ee6eb19191db3f9d562b9af807bb757d8d38efe988ac",
            "reqSigs": 1,
            "type": "pubkeyhash",
            "addresses": [
              "LgxfgzmEUqDiUuPUrJSiSHdXFSzN59Xi3Q"
            ]
          }
        }
      ],
      "hex": "01000000018eddecc8862e22c4ceb0d9673aa06523eadd738e7b0ff275379e7857157cc6ca000000006b483045022100b9c8f29a194f1b6a46434e91da8ab751ce533c74fc23f9afb6c95cb98f9492a2022041306716c8d5fccaec1b6607651bfaf2dbd649db7531190ea3cb5c447f78053a012103ef61e7b2fb9639c8b84a6715520bb070524313f23aebbe2d6a67d6b2d5111b0dfeffffff01c6f4d700000000001976a914ee6eb19191db3f9d562b9af807bb757d8d38efe988ac98c21400"
    }, 
    {
      "txid": "dcbf328adc165614bb5d24d78654457d688ec7a04d14ae0033a143096d56628f",
      "hash": "dcbf328adc165614bb5d24d78654457d688ec7a04d14ae0033a143096d56628f",
      "version": 2,
      "size": 226,
      "vsize": 226,
      "locktime": 1360536,
      "vin": [
        {
          "txid": "06c01ef5778af6865b5ac9292696efea3ca3613ecf48dc45f5e23bcc69e5bc8e",
          "vout": 0,
          "scriptSig": {
            "asm": "304502210096c7758065ec00114526eb2700df59a431decbb7bbf6559fab1d10796777995d02203eea6e717f45dc224505880c2f5a12e69f63e3cd8dd58890b6b8bceca5c4819a[ALL] 02994d227bca0f7c22940df2cd423a24963e541d4e149d23e75ea676cd61306e39",
            "hex": "48304502210096c7758065ec00114526eb2700df59a431decbb7bbf6559fab1d10796777995d02203eea6e717f45dc224505880c2f5a12e69f63e3cd8dd58890b6b8bceca5c4819a012102994d227bca0f7c22940df2cd423a24963e541d4e149d23e75ea676cd61306e39"
          },
          "sequence": 4294967294
        }
      ],
      "vout": [
        {
          "value": 4.75419118,
          "n": 0,
          "scriptPubKey": {
            "asm": "OP_DUP OP_HASH160 9280941e5abc3ce49d6fe2cbb5243cd4dbee0069 OP_EQUALVERIFY OP_CHECKSIG",
            "hex": "76a9149280941e5abc3ce49d6fe2cbb5243cd4dbee006988ac",
            "reqSigs": 1,
            "type": "pubkeyhash",
            "addresses": [
              "LYaax1x3oCBcibnZeXCYi2WFztX6FTmCj7"
            ]
          }
        }, 
        {
          "value": 397.39088831,
          "n": 1,
          "scriptPubKey": {
            "asm": "OP_DUP OP_HASH160 02aa82cc64f6eb0ae7d7c57bb7a7f449e76b02f3 OP_EQUALVERIFY OP_CHECKSIG",
            "hex": "76a91402aa82cc64f6eb0ae7d7c57bb7a7f449e76b02f388ac",
            "reqSigs": 1,
            "type": "pubkeyhash",
            "addresses": [
              "LKU3suNuF7TkEFNGHUaFVP6Aexk3UKv6Zn"
            ]
          }
        }
      ],
      "hex": "02000000018ebce569cc3be2f545dc48cf3e61a33ceaef962629c95a5b86f68a77f51ec006000000006b48304502210096c7758065ec00114526eb2700df59a431decbb7bbf6559fab1d10796777995d02203eea6e717f45dc224505880c2f5a12e69f63e3cd8dd58890b6b8bceca5c4819a012102994d227bca0f7c22940df2cd423a24963e541d4e149d23e75ea676cd61306e39feffffff02ee51561c000000001976a9149280941e5abc3ce49d6fe2cbb5243cd4dbee006988acbf5fa240090000001976a91402aa82cc64f6eb0ae7d7c57bb7a7f449e76b02f388ac98c21400"
    }
  ],
  "time": 1517446241,
  "mediantime": 1517445518,
  "nonce": 244195000,
  "bits": "1a042eae",
  "difficulty": 4011378.762614286,
  "chainwork": "0000000000000000000000000000000000000000000000350844fa0dc157b2b6",
  "previousblockhash": "58d8ca2e0ac222812e9f5ee8e07d22f1004a7132a3da9169c81160f9c7a0484f",
  "nextblockhash": "7c3fede6ec8dc9b2f1987611f713def6ab946d76fe3ae6bce45807fcf2cc9831"
}
