{
  "hash": "51ba9481ca3c4105696b09e7350bf98eb9952221c2e3332b0cfcda8dff3dfd51",
  "confirmations": 3081,
  "strippedsize": 253,
  "size": 253,
  "weight": 1012,
  "height": 1357914,
  "version": 536870912,
  "versionHex": "20000000",
  "merkleroot": "77f35c8aae924a0da9eb495d0cf13c94b6692ab2ffdb320fcc35154cc03c93b7",
  "tx": [
    {
      "txid": "77f35c8aae924a0da9eb495d0cf13c94b6692ab2ffdb320fcc35154cc03c93b7",
      "hash": "77f35c8aae924a0da9eb495d0cf13c94b6692ab2ffdb320fcc35154cc03c93b7",
      "version": 1,
      "size": 172,
      "vsize": 172,
      "locktime": 0,
      "vin": [
        {
          "coinbase": "035ab8141a4d696e656420627920416e74506f6f6c20626a3532205a6c9106fabe6d6d5df4196dbd33dc0b38b5775628b4e3ef451b9e41c51f25090d4bbcf20040d541040000000000000072380000000000001a000000",
          "sequence": 4294967295
        }
      ],
      "vout": [
        {
          "value": 25.00000000,
          "n": 0,
          "scriptPubKey": {
            "asm": "OP_DUP OP_HASH160 0ff3ccc5e8be88afe24b5d634e5852d474dbdff1 OP_EQUALVERIFY OP_CHECKSIG",
            "hex": "76a9140ff3ccc5e8be88afe24b5d634e5852d474dbdff188ac",
            "reqSigs": 1,
            "type": "pubkeyhash",
            "addresses": [
              "LLgJTbzZMsRTCUF1NtvvL9SR1a4pVieW89"
            ]
          }
        }
      ],
      "hex": "01000000010000000000000000000000000000000000000000000000000000000000000000ffffffff57035ab8141a4d696e656420627920416e74506f6f6c20626a3532205a6c9106fabe6d6d5df4196dbd33dc0b38b5775628b4e3ef451b9e41c51f25090d4bbcf20040d541040000000000000072380000000000001a000000ffffffff0100f90295000000001976a9140ff3ccc5e8be88afe24b5d634e5852d474dbdff188ac00000000"
    }
  ],
  "time": 1517064454,
  "mediantime": 1517064083,
  "nonce": 3370525952,
  "bits": "1a047f14",
  "difficulty": 3731199.183374282,
  "chainwork": "000000000000000000000000000000000000000000000032a361e32fecf4203e",
  "previousblockhash": "b9d2f87438e80eac882004517af0c218bb5e2353b8cb9d83a5f610bdaffcfac1",
  "nextblockhash": "c6874e19062696029d016045dc9cc8d390eacec4991fccd534bb3ba516bb322c"
}
