{
  "hash": "51d635e005f00735d4cf99cd7c070af5c35f1f376e9ab40d7dd88fe5a93de267",
  "confirmations": 3319,
  "strippedsize": 522,
  "size": 558,
  "weight": 2124,
  "height": 1357676,
  "version": 536870912,
  "versionHex": "20000000",
  "merkleroot": "758413bcc3c4879b2b0a1a46c8b5a5743ae5b8a788ce0ef10d94ab5909897bfc",
  "tx": [
    {
      "txid": "4c14811fbaa2528865eeb2df913d5f0db655695388f5ec82c65f34eb5d0babab",
      "hash": "9902865162205051cf1cd775fe9fc63776a995285d5d846248b84a6ed7a99200",
      "version": 1,
      "size": 251,
      "vsize": 224,
      "locktime": 0,
      "vin": [
        {
          "coinbase": "036cb7140000000000fabe6d6db561f2b83c9d8c61a1cfd5ff174164c498e7b69089b387a796bdb01cebdb307e0100000000000000045d186c5a043109531908f62f9ce9010000000a42570a6657042f42572f",
          "sequence": 4294967295
        }
      ],
      "vout": [
        {
          "value": 25.00100000,
          "n": 0,
          "scriptPubKey": {
            "asm": "OP_DUP OP_HASH160 5373bc9425fd49e6bfe522d3dfc85432da2cc023 OP_EQUALVERIFY OP_CHECKSIG",
            "hex": "76a9145373bc9425fd49e6bfe522d3dfc85432da2cc02388ac",
            "reqSigs": 1,
            "type": "pubkeyhash",
            "addresses": [
              "LSqCzf5bPfkqGf94pJcfxWx5bZMPJE5XRf"
            ]
          }
        }, 
        {
          "value": 0.00000000,
          "n": 1,
          "scriptPubKey": {
            "asm": "OP_RETURN aa21a9ed02ab13c0b622d6972500be0e8246e1f2530d70bd9612f441e8e6880e45f858da",
            "hex": "6a24aa21a9ed02ab13c0b622d6972500be0e8246e1f2530d70bd9612f441e8e6880e45f858da",
            "type": "nulldata"
          }
        }
      ],
      "hex": "010000000001010000000000000000000000000000000000000000000000000000000000000000ffffffff53036cb7140000000000fabe6d6db561f2b83c9d8c61a1cfd5ff174164c498e7b69089b387a796bdb01cebdb307e0100000000000000045d186c5a043109531908f62f9ce9010000000a42570a6657042f42572fffffffff02a07f0495000000001976a9145373bc9425fd49e6bfe522d3dfc85432da2cc02388ac0000000000000000266a24aa21a9ed02ab13c0b622d6972500be0e8246e1f2530d70bd9612f441e8e6880e45f858da0120000000000000000000000000000000000000000000000000000000000000000000000000"
    }, 
    {
      "txid": "d560f10b77e848bcbcfad4f020ca7530aa25d7477be0ebcab10000284bda9bf0",
      "hash": "d560f10b77e848bcbcfad4f020ca7530aa25d7477be0ebcab10000284bda9bf0",
      "version": 1,
      "size": 226,
      "vsize": 226,
      "locktime": 0,
      "vin": [
        {
          "txid": "01b7c80aa506ae37aa509e778e6c2abf47174efd2cf382566a69522bec55e226",
          "vout": 0,
          "scriptSig": {
            "asm": "30450221008b22b5271747cf6c10689deb9307bff628cad01564da87bd4eae359dc230c31202206484cbdf2c899f08ba960829b1c13e78d3f6ca2b07f5db9515979f9d4944ea9b[ALL] 021cfe834ce6c9a147f8d2cae1200bd4caa40272161b305f5b738495c81b2af58f",
            "hex": "4830450221008b22b5271747cf6c10689deb9307bff628cad01564da87bd4eae359dc230c31202206484cbdf2c899f08ba960829b1c13e78d3f6ca2b07f5db9515979f9d4944ea9b0121021cfe834ce6c9a147f8d2cae1200bd4caa40272161b305f5b738495c81b2af58f"
          },
          "sequence": 4294967295
        }
      ],
      "vout": [
        {
          "value": 0.62000000,
          "n": 0,
          "scriptPubKey": {
            "asm": "OP_DUP OP_HASH160 7f676eb7f9c2e5f8f4b883f30f663a197daa6fd9 OP_EQUALVERIFY OP_CHECKSIG",
            "hex": "76a9147f676eb7f9c2e5f8f4b883f30f663a197daa6fd988ac",
            "reqSigs": 1,
            "type": "pubkeyhash",
            "addresses": [
              "LWqbzC3TJfHr8zKsKVwU8yc17BkWHuaHJ1"
            ]
          }
        }, 
        {
          "value": 0.00416831,
          "n": 1,
          "scriptPubKey": {
            "asm": "OP_DUP OP_HASH160 797826c492ea662ed9013dc6f2f5f4870abcb73b OP_EQUALVERIFY OP_CHECKSIG",
            "hex": "76a914797826c492ea662ed9013dc6f2f5f4870abcb73b88ac",
            "reqSigs": 1,
            "type": "pubkeyhash",
            "addresses": [
              "LWJDxh8TqUQvaq6Z72hnqrNaWGN8LLvTBk"
            ]
          }
        }
      ],
      "hex": "010000000126e255ec2b52696a5682f32cfd4e1747bf2a6c8e779e50aa37ae06a50ac8b701000000006b4830450221008b22b5271747cf6c10689deb9307bff628cad01564da87bd4eae359dc230c31202206484cbdf2c899f08ba960829b1c13e78d3f6ca2b07f5db9515979f9d4944ea9b0121021cfe834ce6c9a147f8d2cae1200bd4caa40272161b305f5b738495c81b2af58fffffffff02800bb203000000001976a9147f676eb7f9c2e5f8f4b883f30f663a197daa6fd988ac3f5c0600000000001976a914797826c492ea662ed9013dc6f2f5f4870abcb73b88ac00000000"
    }
  ],
  "time": 1517033565,
  "mediantime": 1517033160,
  "nonce": 3976010310,
  "bits": "1a047f14",
  "difficulty": 3731199.183374282,
  "chainwork": "0000000000000000000000000000000000000000000000326e737d03e2274012",
  "previousblockhash": "4459feeee0b7d83e0de03553f7845a3d078a144fe4f169aaeb876a5f18ee1e60",
  "nextblockhash": "560120ba23a1818c13c706e6003771aaa89f996f17774b58a530b9154d393b4e"
}
