{
  "hash": "51e1af7e434014b572ce34747917c752c5a1e928b7f72bbdc8da88d1720fa53d",
  "confirmations": 1414,
  "strippedsize": 256,
  "size": 256,
  "weight": 1024,
  "height": 1359580,
  "version": 536870912,
  "versionHex": "20000000",
  "merkleroot": "aeff83cf56b7716131e092b5ffea0e63384ee28f397b24eeb7eab256cc2c21d5",
  "tx": [
    {
      "txid": "aeff83cf56b7716131e092b5ffea0e63384ee28f397b24eeb7eab256cc2c21d5",
      "hash": "aeff83cf56b7716131e092b5ffea0e63384ee28f397b24eeb7eab256cc2c21d5",
      "version": 1,
      "size": 175,
      "vsize": 175,
      "locktime": 0,
      "vin": [
        {
          "coinbase": "03dcbe141d4d696e656420627920416e74506f6f6c20626a302042205a7031e60190fabe6d6debb89b2c08568e257fcabed80fec64fe53d6ac0477c930d016456ca214680c2c0400000000000000d72b00000000000011000000",
          "sequence": 4294967295
        }
      ],
      "vout": [
        {
          "value": 25.00000000,
          "n": 0,
          "scriptPubKey": {
            "asm": "OP_DUP OP_HASH160 0ff3ccc5e8be88afe24b5d634e5852d474dbdff1 OP_EQUALVERIFY OP_CHECKSIG",
            "hex": "76a9140ff3ccc5e8be88afe24b5d634e5852d474dbdff188ac",
            "reqSigs": 1,
            "type": "pubkeyhash",
            "addresses": [
              "LLgJTbzZMsRTCUF1NtvvL9SR1a4pVieW89"
            ]
          }
        }
      ],
      "hex": "01000000010000000000000000000000000000000000000000000000000000000000000000ffffffff5a03dcbe141d4d696e656420627920416e74506f6f6c20626a302042205a7031e60190fabe6d6debb89b2c08568e257fcabed80fec64fe53d6ac0477c930d016456ca214680c2c0400000000000000d72b00000000000011000000ffffffff0100f90295000000001976a9140ff3ccc5e8be88afe24b5d634e5852d474dbdff188ac00000000"
    }
  ],
  "time": 1517302246,
  "mediantime": 1517301873,
  "nonce": 3215603494,
  "bits": "1a042eae",
  "difficulty": 4011378.762614286,
  "chainwork": "0000000000000000000000000000000000000000000000342336118843315e3a",
  "previousblockhash": "33e6353beae40da09e0429142ec20ca8a0d9b6abe2787a6fbd5610e3f6344cb8",
  "nextblockhash": "d5b07e3cbbc75cf2fc59da6777f9b8e6b373fea6a9dd7fdabd1f1fae12c65239"
}
