{
  "hash": "51ea79319437bc8a222d1ade792e148d0b128d58d3ad168cc4f7dd4c1dbf060f",
  "confirmations": 1521,
  "strippedsize": 234,
  "size": 234,
  "weight": 936,
  "height": 1359473,
  "version": 536870912,
  "versionHex": "20000000",
  "merkleroot": "ae81b907352a31fd984d018b06712dc4af944596ac5fd1ceae3971c0b0394ffd",
  "tx": [
    {
      "txid": "ae81b907352a31fd984d018b06712dc4af944596ac5fd1ceae3971c0b0394ffd",
      "hash": "ae81b907352a31fd984d018b06712dc4af944596ac5fd1ceae3971c0b0394ffd",
      "version": 1,
      "size": 153,
      "vsize": 153,
      "locktime": 0,
      "vin": [
        {
          "coinbase": "0371be14045a6ff7932cfabe6d6d9d71021260f5bce64b522acf73ac1d640557fdda03135094f5c749a078e473424000000000000000042f4c502f08220097b54f020000",
          "sequence": 4294967295
        }
      ],
      "vout": [
        {
          "value": 25.00000000,
          "n": 0,
          "scriptPubKey": {
            "asm": "OP_DUP OP_HASH160 57757ed2ecf2052ff3126c397aca7defb9ca2cec OP_EQUALVERIFY OP_CHECKSIG",
            "hex": "76a91457757ed2ecf2052ff3126c397aca7defb9ca2cec88ac",
            "reqSigs": 1,
            "type": "pubkeyhash",
            "addresses": [
              "LTCPodGk5FwcJaRzH9yKnwicxzFUbxp6tN"
            ]
          }
        }
      ],
      "hex": "01000000010000000000000000000000000000000000000000000000000000000000000000ffffffff440371be14045a6ff7932cfabe6d6d9d71021260f5bce64b522acf73ac1d640557fdda03135094f5c749a078e473424000000000000000042f4c502f08220097b54f020000ffffffff0100f90295000000001976a91457757ed2ecf2052ff3126c397aca7defb9ca2cec88ac00000000"
    }
  ],
  "time": 1517287315,
  "mediantime": 1517287065,
  "nonce": 2584150966,
  "bits": "1a042eae",
  "difficulty": 4011378.762614286,
  "chainwork": "00000000000000000000000000000000000000000000003409a0a0fb391c84e4",
  "previousblockhash": "a1e658e4e94903cc1f00675441cb781bf38b7734faf3cf1c6f12020f33711771",
  "nextblockhash": "f932649ae53bd51daf22ce37b0b7e7a590f5cf04fe82b58e94675377e929be94"
}
