{
  "hash": "52192faff55c1dcacc2647a3d7ad50248658aa7f72eaf62ae60589dd9972842a",
  "confirmations": 1550,
  "strippedsize": 234,
  "size": 234,
  "weight": 936,
  "height": 1359444,
  "version": 536870912,
  "versionHex": "20000000",
  "merkleroot": "e5efb64c9c58bf2276954ed794676cd8d13d6c1427282e6110530adf897036ad",
  "tx": [
    {
      "txid": "e5efb64c9c58bf2276954ed794676cd8d13d6c1427282e6110530adf897036ad",
      "hash": "e5efb64c9c58bf2276954ed794676cd8d13d6c1427282e6110530adf897036ad",
      "version": 1,
      "size": 153,
      "vsize": 153,
      "locktime": 0,
      "vin": [
        {
          "coinbase": "0354be14045a6fe77a2cfabe6d6d0b707ca76f065e4c4cfd7f2e6ea277577ec2f259c2f38192f58704b000b672764000000000000000042f4c502f08560074c211000000",
          "sequence": 4294967295
        }
      ],
      "vout": [
        {
          "value": 25.00000000,
          "n": 0,
          "scriptPubKey": {
            "asm": "OP_DUP OP_HASH160 57757ed2ecf2052ff3126c397aca7defb9ca2cec OP_EQUALVERIFY OP_CHECKSIG",
            "hex": "76a91457757ed2ecf2052ff3126c397aca7defb9ca2cec88ac",
            "reqSigs": 1,
            "type": "pubkeyhash",
            "addresses": [
              "LTCPodGk5FwcJaRzH9yKnwicxzFUbxp6tN"
            ]
          }
        }
      ],
      "hex": "01000000010000000000000000000000000000000000000000000000000000000000000000ffffffff440354be14045a6fe77a2cfabe6d6d0b707ca76f065e4c4cfd7f2e6ea277577ec2f259c2f38192f58704b000b672764000000000000000042f4c502f08560074c211000000ffffffff0100f90295000000001976a91457757ed2ecf2052ff3126c397aca7defb9ca2cec88ac00000000"
    }
  ],
  "time": 1517283194,
  "mediantime": 1517282672,
  "nonce": 1382763717,
  "bits": "1a042eae",
  "difficulty": 4011378.762614286,
  "chainwork": "00000000000000000000000000000000000000000000003402b18c0c0687512a",
  "previousblockhash": "f012cb3a7fc1a11073d72f95a154797d76c0b0e48e27ccf88b9ca3400e2f6478",
  "nextblockhash": "9f5a795de1dba665d833533d9701668bca1ef1ff6cfff0d28faa86e4d2982bce"
}
