{
  "hash": "52227369ebb743513116acf6e8ba79911b9214cfe6acbf36d8dbb58ac808dabe",
  "confirmations": 283,
  "strippedsize": 234,
  "size": 234,
  "weight": 936,
  "height": 1360711,
  "version": 536870912,
  "versionHex": "20000000",
  "merkleroot": "d20de3c685f8b71c3ce4ff6e88cad1b46fe4c281b0e2d7524812fca8faf25e0a",
  "tx": [
    {
      "txid": "d20de3c685f8b71c3ce4ff6e88cad1b46fe4c281b0e2d7524812fca8faf25e0a",
      "hash": "d20de3c685f8b71c3ce4ff6e88cad1b46fe4c281b0e2d7524812fca8faf25e0a",
      "version": 1,
      "size": 153,
      "vsize": 153,
      "locktime": 0,
      "vin": [
        {
          "coinbase": "0347c314045a72c1652cfabe6d6ddae6dbc226634c6153c41eb5de25c3a7ef8ce67fe4e174f2815068679efc10ec4000000000000000042f4c502f08220027080d000000",
          "sequence": 4294967295
        }
      ],
      "vout": [
        {
          "value": 25.00000000,
          "n": 0,
          "scriptPubKey": {
            "asm": "OP_DUP OP_HASH160 57757ed2ecf2052ff3126c397aca7defb9ca2cec OP_EQUALVERIFY OP_CHECKSIG",
            "hex": "76a91457757ed2ecf2052ff3126c397aca7defb9ca2cec88ac",
            "reqSigs": 1,
            "type": "pubkeyhash",
            "addresses": [
              "LTCPodGk5FwcJaRzH9yKnwicxzFUbxp6tN"
            ]
          }
        }
      ],
      "hex": "01000000010000000000000000000000000000000000000000000000000000000000000000ffffffff440347c314045a72c1652cfabe6d6ddae6dbc226634c6153c41eb5de25c3a7ef8ce67fe4e174f2815068679efc10ec4000000000000000042f4c502f08220027080d000000ffffffff0100f90295000000001976a91457757ed2ecf2052ff3126c397aca7defb9ca2cec88ac00000000"
    }
  ],
  "time": 1517470053,
  "mediantime": 1517469327,
  "nonce": 3059890587,
  "bits": "1a042eae",
  "difficulty": 4011378.762614286,
  "chainwork": "00000000000000000000000000000000000000000000003531a241f8f7ec3f90",
  "previousblockhash": "e0828901cad017637dcb51878b49fc3b4fdcf7baf8f5a3b9599b56c65ca5fd77",
  "nextblockhash": "05573f3911cf8e65dd7f34b97bc92dfb9c6a88b3da5be158b22189cec09ca6af"
}
