{
  "hash": "52800b39ff5c7480faa62480c6ba019277228220263d25cc855f53ee78037d19",
  "confirmations": 3290,
  "strippedsize": 3996,
  "size": 4032,
  "weight": 16020,
  "height": 1357705,
  "version": 536870912,
  "versionHex": "20000000",
  "merkleroot": "6dd4870001ed68d1863963f082f84f048e273c6944a08d1f107ddba04e9cb3d2",
  "tx": [
    {
      "txid": "cbe2c300371d31ace2a97bea349a70df28a91e2fdd0ece2a0b3fba9c95fb4de1",
      "hash": "472eb9605c96d77de421107802498eb8fedbd7aa7024fb211fadfe53fdc649d7",
      "version": 1,
      "size": 251,
      "vsize": 224,
      "locktime": 0,
      "vin": [
        {
          "coinbase": "0389b7140000000000fabe6d6dac3213205e04e136449397d5e72813631583bacc459cac667e370eb97b6fd67901000000000000000480256c5a04b8e1782408820009c24001680c0a42570a6657042f42572f",
          "sequence": 4294967295
        }
      ],
      "vout": [
        {
          "value": 25.00692796,
          "n": 0,
          "scriptPubKey": {
            "asm": "OP_DUP OP_HASH160 5373bc9425fd49e6bfe522d3dfc85432da2cc023 OP_EQUALVERIFY OP_CHECKSIG",
            "hex": "76a9145373bc9425fd49e6bfe522d3dfc85432da2cc02388ac",
            "reqSigs": 1,
            "type": "pubkeyhash",
            "addresses": [
              "LSqCzf5bPfkqGf94pJcfxWx5bZMPJE5XRf"
            ]
          }
        }, 
        {
          "value": 0.00000000,
          "n": 1,
          "scriptPubKey": {
            "asm": "OP_RETURN aa21a9ed9dcff8a5d631a3b5cd5c1b7f8f26fb1c37c146b373d9a5d434022596df6c50da",
            "hex": "6a24aa21a9ed9dcff8a5d631a3b5cd5c1b7f8f26fb1c37c146b373d9a5d434022596df6c50da",
            "type": "nulldata"
          }
        }
      ],
      "hex": "010000000001010000000000000000000000000000000000000000000000000000000000000000ffffffff530389b7140000000000fabe6d6dac3213205e04e136449397d5e72813631583bacc459cac667e370eb97b6fd67901000000000000000480256c5a04b8e1782408820009c24001680c0a42570a6657042f42572fffffffff023c8b0d95000000001976a9145373bc9425fd49e6bfe522d3dfc85432da2cc02388ac0000000000000000266a24aa21a9ed9dcff8a5d631a3b5cd5c1b7f8f26fb1c37c146b373d9a5d434022596df6c50da0120000000000000000000000000000000000000000000000000000000000000000000000000"
    }, 
    {
      "txid": "e7e7bd71c7a4438db430f45fca187485eca3a20ffc336293613f2e547725fff5",
      "hash": "e7e7bd71c7a4438db430f45fca187485eca3a20ffc336293613f2e547725fff5",
      "version": 1,
      "size": 335,
      "vsize": 335,
      "locktime": 0,
      "vin": [
        {
          "txid": "32300b3530636dd5c752141670a0b416c1f26f514b2b756238e3023d4ae96da6",
          "vout": 1,
          "scriptSig": {
            "asm": "0 3045022100b4fb07e5987748ad67dd6e012511e5a12dafe23811fbd7c3a7143241192445670220347017bf5d46d170b5a38018385df3c11841d3793e9d3aa64108c14a64c93bbb[ALL] 304402204fe2364a4520464d85ef8a9e6c61d4b55b4e099a3549744485d17817a9f0aa3f0220754998a2a12cff50bf30dabf827277678ee682a2f4bb79be6774b575b06f8aed[ALL] 522102f77ec37a042ba4e5e6aef7760398bf59b87ac4c5dee30a2fb8798e9630d4916e210276b93401dc495b28592f66411a7c9093b468f8678db51144fc6a36f550d94aa952ae",
            "hex": "00483045022100b4fb07e5987748ad67dd6e012511e5a12dafe23811fbd7c3a7143241192445670220347017bf5d46d170b5a38018385df3c11841d3793e9d3aa64108c14a64c93bbb0147304402204fe2364a4520464d85ef8a9e6c61d4b55b4e099a3549744485d17817a9f0aa3f0220754998a2a12cff50bf30dabf827277678ee682a2f4bb79be6774b575b06f8aed0147522102f77ec37a042ba4e5e6aef7760398bf59b87ac4c5dee30a2fb8798e9630d4916e210276b93401dc495b28592f66411a7c9093b468f8678db51144fc6a36f550d94aa952ae"
          },
          "sequence": 4294967295
        }
      ],
      "vout": [
        {
          "value": 0.08134600,
          "n": 0,
          "scriptPubKey": {
            "asm": "OP_DUP OP_HASH160 516add9ea6a6ee6b40dec7cd700d7e881e5e3389 OP_EQUALVERIFY OP_CHECKSIG",
            "hex": "76a914516add9ea6a6ee6b40dec7cd700d7e881e5e338988ac",
            "reqSigs": 1,
            "type": "pubkeyhash",
            "addresses": [
              "LSeT1ukwFzHupY41uvAT6xc21SLDSv5b6j"
            ]
          }
        }, 
        {
          "value": 34.38673200,
          "n": 1,
          "scriptPubKey": {
            "asm": "OP_HASH160 75b77316f8d91ff71fb2819115d1b6b9e80ccee9 OP_EQUAL",
            "hex": "a91475b77316f8d91ff71fb2819115d1b6b9e80ccee987",
            "reqSigs": 1,
            "type": "scripthash",
            "addresses": [
              "MJdb4B3BMDrfpB1FpKsPYQ1tDHdkNa1oLB"
            ]
          }
        }
      ],
      "hex": "0100000001a66de94a3d02e33862752b4b516ff2c116b4a070161452c7d56d6330350b303201000000da00483045022100b4fb07e5987748ad67dd6e012511e5a12dafe23811fbd7c3a7143241192445670220347017bf5d46d170b5a38018385df3c11841d3793e9d3aa64108c14a64c93bbb0147304402204fe2364a4520464d85ef8a9e6c61d4b55b4e099a3549744485d17817a9f0aa3f0220754998a2a12cff50bf30dabf827277678ee682a2f4bb79be6774b575b06f8aed0147522102f77ec37a042ba4e5e6aef7760398bf59b87ac4c5dee30a2fb8798e9630d4916e210276b93401dc495b28592f66411a7c9093b468f8678db51144fc6a36f550d94aa952aeffffffff02c81f7c00000000001976a914516add9ea6a6ee6b40dec7cd700d7e881e5e338988ac30fdf5cc0000000017a91475b77316f8d91ff71fb2819115d1b6b9e80ccee98700000000"
    }, 
    {
      "txid": "97b8767eea1c47cb37061962136d6e2f0d183ab8bd7d445a3eaa0a05e581d186",
      "hash": "97b8767eea1c47cb37061962136d6e2f0d183ab8bd7d445a3eaa0a05e581d186",
      "version": 1,
      "size": 191,
      "vsize": 191,
      "locktime": 0,
      "vin": [
        {
          "txid": "93017cb9777fa99560f4ab37bf6f5c5b75b04ab5eda34f9e2b8fc609466c18aa",
          "vout": 14,
          "scriptSig": {
            "asm": "30440220258792add02811274de6616a70ed4598b9c4581ec5d8842769b536c120cb9f920220382607963cae30874741b147414aef4c6a3e9e9cc2b8038de9a46887a7821312[ALL] 037f95e49fc2c9aac97273b8f6edd1bd985b9b870a11f6db6fe80bd64c2c841694",
            "hex": "4730440220258792add02811274de6616a70ed4598b9c4581ec5d8842769b536c120cb9f920220382607963cae30874741b147414aef4c6a3e9e9cc2b8038de9a46887a78213120121037f95e49fc2c9aac97273b8f6edd1bd985b9b870a11f6db6fe80bd64c2c841694"
          },
          "sequence": 4294967295
        }
      ],
      "vout": [
        {
          "value": 0.18789200,
          "n": 0,
          "scriptPubKey": {
            "asm": "OP_DUP OP_HASH160 c5d3683c58e725e75ac6b12fe915d41b04d3ac79 OP_EQUALVERIFY OP_CHECKSIG",
            "hex": "76a914c5d3683c58e725e75ac6b12fe915d41b04d3ac7988ac",
            "reqSigs": 1,
            "type": "pubkeyhash",
            "addresses": [
              "LdFxdqAuVQFbWwzURyXDFTFJW7wQkU5PfF"
            ]
          }
        }
      ],
      "hex": "0100000001aa186c4609c68f2b9e4fa3edb54ab0755b5c6fbf37abf46095a97f77b97c01930e0000006a4730440220258792add02811274de6616a70ed4598b9c4581ec5d8842769b536c120cb9f920220382607963cae30874741b147414aef4c6a3e9e9cc2b8038de9a46887a78213120121037f95e49fc2c9aac97273b8f6edd1bd985b9b870a11f6db6fe80bd64c2c841694ffffffff0150b31e01000000001976a914c5d3683c58e725e75ac6b12fe915d41b04d3ac7988ac00000000"
    }, 
    {
      "txid": "bad1f847d78cd69da93b3e47d12fe7f75c8c9df1ef2ae469e1d67a8416c7b36e",
      "hash": "bad1f847d78cd69da93b3e47d12fe7f75c8c9df1ef2ae469e1d67a8416c7b36e",
      "version": 2,
      "size": 1260,
      "vsize": 1260,
      "locktime": 1357702,
      "vin": [
        {
          "txid": "1b8be51131c7c91050ce40b2f482154be5b9f5a76d27f27e26d305f8a4bf505c",
          "vout": 1,
          "scriptSig": {
            "asm": "3045022100e62786e45d534cb5964c645259202e299e1aa49a17daeb236366738dadabe66202200fadc00d26e69bbedc9c2562300ca54faa7c59fcb871f369d1ceafa930b593c3[ALL] 0352bb3c5726a3ddf5b7518487644a552816196ef7ec77f1ce0ab94d365bcae086",
            "hex": "483045022100e62786e45d534cb5964c645259202e299e1aa49a17daeb236366738dadabe66202200fadc00d26e69bbedc9c2562300ca54faa7c59fcb871f369d1ceafa930b593c301210352bb3c5726a3ddf5b7518487644a552816196ef7ec77f1ce0ab94d365bcae086"
          },
          "sequence": 4294967294
        }, 
        {
          "txid": "ed68c18e86b57fcfcd94c0ffb7c716d88b392deecd3b647ad10b716464172674",
          "vout": 8,
          "scriptSig": {
            "asm": "3045022100c808d1aff8f4e9d3727923aa1db4adcd232d9a5f390356b6dfa6784eb09f9b4002201a03aaee9bdd94c9404d11551697305efd53fa914cfb2ab8e7938b5efdeaf502[ALL] 02b471ffe07123d344d598491c958ce55857f424d387c007df6b69c659eb87074d",
            "hex": "483045022100c808d1aff8f4e9d3727923aa1db4adcd232d9a5f390356b6dfa6784eb09f9b4002201a03aaee9bdd94c9404d11551697305efd53fa914cfb2ab8e7938b5efdeaf502012102b471ffe07123d344d598491c958ce55857f424d387c007df6b69c659eb87074d"
          },
          "sequence": 4294967294
        }, 
        {
          "txid": "37062a778de07f86a6900b984acfe5c0f0cdf6ad175c28ae4d2da4a102821c1c",
          "vout": 0,
          "scriptSig": {
            "asm": "3045022100ecb76b5f297d677a265d8e3d596f33a327846da4373c9cb34ec5f6cbfd50448502202335757dae77d780657b66047841f67d5479f09970da87713f338f6aa5cf1800[ALL] 02bd95ceb91fb7c9b715f31df3472633a44b0bf1f6617248b7150c842b336b7b0c",
            "hex": "483045022100ecb76b5f297d677a265d8e3d596f33a327846da4373c9cb34ec5f6cbfd50448502202335757dae77d780657b66047841f67d5479f09970da87713f338f6aa5cf1800012102bd95ceb91fb7c9b715f31df3472633a44b0bf1f6617248b7150c842b336b7b0c"
          },
          "sequence": 4294967294
        }, 
        {
          "txid": "625c0890f627b789737bb422c6f8049a6177d66827a46c3847d07421d64a4a5d",
          "vout": 144,
          "scriptSig": {
            "asm": "3045022100b200c0e311160ec871d4a187340dca7e11cd63029f16d2d19dd0438026ce217002202a07fd4543fcd068c82405057f939c9a82595ec97b306f18c9fa7ee90a3a6de2[ALL] 03099da0a90cefb2dbc323b00c80a8157d9519e5c64b72fc271e0d9bd6d94c47ed",
            "hex": "483045022100b200c0e311160ec871d4a187340dca7e11cd63029f16d2d19dd0438026ce217002202a07fd4543fcd068c82405057f939c9a82595ec97b306f18c9fa7ee90a3a6de2012103099da0a90cefb2dbc323b00c80a8157d9519e5c64b72fc271e0d9bd6d94c47ed"
          },
          "sequence": 4294967294
        }, 
        {
          "txid": "da7aa2bbc594232996e69e362fc2aeb958f56a62af5651df75b94bae04e5e0d4",
          "vout": 474,
          "scriptSig": {
            "asm": "3045022100aa4ff7a6d5c8cf5b9ab03aa62e9c6ab61972575400acfead3fc5b27822038d0602202478abfb1a4d36e7c79bc368afe4a77e178f62f6fff7c7e6c8fae90db395c9d5[ALL] 033614a6ea70bd9876a1d2443b13f4b76cc4e6ed44fe23be7a6a1f22f10ddab3fb",
            "hex": "483045022100aa4ff7a6d5c8cf5b9ab03aa62e9c6ab61972575400acfead3fc5b27822038d0602202478abfb1a4d36e7c79bc368afe4a77e178f62f6fff7c7e6c8fae90db395c9d50121033614a6ea70bd9876a1d2443b13f4b76cc4e6ed44fe23be7a6a1f22f10ddab3fb"
          },
          "sequence": 4294967294
        }, 
        {
          "txid": "044c3216949019662455d17b8ccbefabf6a45f44750530ab0b1f2dc3116d5252",
          "vout": 931,
          "scriptSig": {
            "asm": "304402206931ced525d7f034d8c323c9432182aa95af8bde5ddf9ecf655bcee9994b685202206b47ef3be096dd59d2838324265c708ebbaa9fa856ebb31bd7796cbb3ec39e67[ALL] 029f82327c7d4229ddb3b5a97d18505709af43e91fb9a9aed9e13529889eed33ce",
            "hex": "47304402206931ced525d7f034d8c323c9432182aa95af8bde5ddf9ecf655bcee9994b685202206b47ef3be096dd59d2838324265c708ebbaa9fa856ebb31bd7796cbb3ec39e670121029f82327c7d4229ddb3b5a97d18505709af43e91fb9a9aed9e13529889eed33ce"
          },
          "sequence": 4294967294
        }, 
        {
          "txid": "99bbcba1fd1140c56c51c0900898625168fc59e0f4f2d230249746dcb9108c7b",
          "vout": 8,
          "scriptSig": {
            "asm": "3045022100dbdffabce12726d953351418dbd27bcbd8a891b70875590a9304a7755e7d86de022047f8753830a9b7d4e21eec66cf46ec76db1b1580e59248df7e0e19643225ff76[ALL] 02312f63d6ec8cf2a721a81c49eb7bd90edda0b29eb6e8229102343083503825ed",
            "hex": "483045022100dbdffabce12726d953351418dbd27bcbd8a891b70875590a9304a7755e7d86de022047f8753830a9b7d4e21eec66cf46ec76db1b1580e59248df7e0e19643225ff76012102312f63d6ec8cf2a721a81c49eb7bd90edda0b29eb6e8229102343083503825ed"
          },
          "sequence": 4294967294
        }, 
        {
          "txid": "5c0b98b91f069d26997d95d8fa1e887bff5f7f55df4aa056f987e22f3f4f126a",
          "vout": 1,
          "scriptSig": {
            "asm": "3044022063f5bcd9b811fe59358d2c80f713d68f2ff4130a16e847aa36700a825e7744910220580a3a0313f6743cfbf14732515385367fee57d63d1f051606b4c1534283c3e2[ALL] 02bd95ceb91fb7c9b715f31df3472633a44b0bf1f6617248b7150c842b336b7b0c",
            "hex": "473044022063f5bcd9b811fe59358d2c80f713d68f2ff4130a16e847aa36700a825e7744910220580a3a0313f6743cfbf14732515385367fee57d63d1f051606b4c1534283c3e2012102bd95ceb91fb7c9b715f31df3472633a44b0bf1f6617248b7150c842b336b7b0c"
          },
          "sequence": 4294967294
        }
      ],
      "vout": [
        {
          "value": 0.98000000,
          "n": 0,
          "scriptPubKey": {
            "asm": "OP_DUP OP_HASH160 3cc42439ae4e7b44bdd8d6262c11cf879b6e1fad OP_EQUALVERIFY OP_CHECKSIG",
            "hex": "76a9143cc42439ae4e7b44bdd8d6262c11cf879b6e1fad88ac",
            "reqSigs": 1,
            "type": "pubkeyhash",
            "addresses": [
              "LQmFmscpS6tcpUyPP1iqx62B1iKtjLvQaK"
            ]
          }
        }, 
        {
          "value": 0.00752470,
          "n": 1,
          "scriptPubKey": {
            "asm": "OP_DUP OP_HASH160 4269a5d1a9219291733bfc87c277da89a8ac797f OP_EQUALVERIFY OP_CHECKSIG",
            "hex": "76a9144269a5d1a9219291733bfc87c277da89a8ac797f88ac",
            "reqSigs": 1,
            "type": "pubkeyhash",
            "addresses": [
              "LRH7RQYnpo97uN4JtnNcpaSeegWmM8scqx"
            ]
          }
        }
      ],
      "hex": "02000000085c50bfa4f805d3267ef2276da7f5b9e54b1582f4b240ce5010c9c73111e58b1b010000006b483045022100e62786e45d534cb5964c645259202e299e1aa49a17daeb236366738dadabe66202200fadc00d26e69bbedc9c2562300ca54faa7c59fcb871f369d1ceafa930b593c301210352bb3c5726a3ddf5b7518487644a552816196ef7ec77f1ce0ab94d365bcae086feffffff7426176464710bd17a643bcdee2d398bd816c7b7ffc094cdcf7fb5868ec168ed080000006b483045022100c808d1aff8f4e9d3727923aa1db4adcd232d9a5f390356b6dfa6784eb09f9b4002201a03aaee9bdd94c9404d11551697305efd53fa914cfb2ab8e7938b5efdeaf502012102b471ffe07123d344d598491c958ce55857f424d387c007df6b69c659eb87074dfeffffff1c1c8202a1a42d4dae285c17adf6cdf0c0e5cf4a980b90a6867fe08d772a0637000000006b483045022100ecb76b5f297d677a265d8e3d596f33a327846da4373c9cb34ec5f6cbfd50448502202335757dae77d780657b66047841f67d5479f09970da87713f338f6aa5cf1800012102bd95ceb91fb7c9b715f31df3472633a44b0bf1f6617248b7150c842b336b7b0cfeffffff5d4a4ad62174d047386ca42768d677619a04f8c622b47b7389b727f690085c62900000006b483045022100b200c0e311160ec871d4a187340dca7e11cd63029f16d2d19dd0438026ce217002202a07fd4543fcd068c82405057f939c9a82595ec97b306f18c9fa7ee90a3a6de2012103099da0a90cefb2dbc323b00c80a8157d9519e5c64b72fc271e0d9bd6d94c47edfeffffffd4e0e504ae4bb975df5156af626af558b9aec22f369ee696292394c5bba27adada0100006b483045022100aa4ff7a6d5c8cf5b9ab03aa62e9c6ab61972575400acfead3fc5b27822038d0602202478abfb1a4d36e7c79bc368afe4a77e178f62f6fff7c7e6c8fae90db395c9d50121033614a6ea70bd9876a1d2443b13f4b76cc4e6ed44fe23be7a6a1f22f10ddab3fbfeffffff52526d11c32d1f0bab300575445fa4f6abefcb8c7bd155246619909416324c04a30300006a47304402206931ced525d7f034d8c323c9432182aa95af8bde5ddf9ecf655bcee9994b685202206b47ef3be096dd59d2838324265c708ebbaa9fa856ebb31bd7796cbb3ec39e670121029f82327c7d4229ddb3b5a97d18505709af43e91fb9a9aed9e13529889eed33cefeffffff7b8c10b9dc46972430d2f2f4e059fc685162980890c0516cc54011fda1cbbb99080000006b483045022100dbdffabce12726d953351418dbd27bcbd8a891b70875590a9304a7755e7d86de022047f8753830a9b7d4e21eec66cf46ec76db1b1580e59248df7e0e19643225ff76012102312f63d6ec8cf2a721a81c49eb7bd90edda0b29eb6e8229102343083503825edfeffffff6a124f3f2fe287f956a04adf557f5fff7b881efad8957d99269d061fb9980b5c010000006a473044022063f5bcd9b811fe59358d2c80f713d68f2ff4130a16e847aa36700a825e7744910220580a3a0313f6743cfbf14732515385367fee57d63d1f051606b4c1534283c3e2012102bd95ceb91fb7c9b715f31df3472633a44b0bf1f6617248b7150c842b336b7b0cfeffffff02805cd705000000001976a9143cc42439ae4e7b44bdd8d6262c11cf879b6e1fad88ac567b0b00000000001976a9144269a5d1a9219291733bfc87c277da89a8ac797f88ac86b71400"
    }, 
    {
      "txid": "2a5cbc23bb174c294e94b4039c412aa87cf6651ebf0c00cf630297af52d53824",
      "hash": "2a5cbc23bb174c294e94b4039c412aa87cf6651ebf0c00cf630297af52d53824",
      "version": 1,
      "size": 189,
      "vsize": 189,
      "locktime": 0,
      "vin": [
        {
          "txid": "231edce92dda0fbb9ee381fbaae731e8d67cfd9ec5c95cf28033aba2a16b1b6d",
          "vout": 6,
          "scriptSig": {
            "asm": "30440220640f0603bcf555c89ea9434e7532d4b43c153af7197d253bf5669b5898f1454402202e099470244792e39ec260b433d8873ca18327499a1124020b7abd6ae439c47a[ALL] 031b6e533ca3223a2abf2f476e1a1948189e8ce12db8f2166a832caec76a042ce8",
            "hex": "4730440220640f0603bcf555c89ea9434e7532d4b43c153af7197d253bf5669b5898f1454402202e099470244792e39ec260b433d8873ca18327499a1124020b7abd6ae439c47a0121031b6e533ca3223a2abf2f476e1a1948189e8ce12db8f2166a832caec76a042ce8"
          },
          "sequence": 4294967295
        }
      ],
      "vout": [
        {
          "value": 8.62285085,
          "n": 0,
          "scriptPubKey": {
            "asm": "OP_HASH160 141f39c94fafb63f508e8161e719b2eb8c12b7a1 OP_EQUAL",
            "hex": "a914141f39c94fafb63f508e8161e719b2eb8c12b7a187",
            "reqSigs": 1,
            "type": "scripthash",
            "addresses": [
              "M9jZ9sKbmz6Xq1tAbV3c4Dgz1U2RVGLnRP"
            ]
          }
        }
      ],
      "hex": "01000000016d1b6ba1a2ab3380f25cc9c59efd7cd6e831e7aafb81e39ebb0fda2de9dc1e23060000006a4730440220640f0603bcf555c89ea9434e7532d4b43c153af7197d253bf5669b5898f1454402202e099470244792e39ec260b433d8873ca18327499a1124020b7abd6ae439c47a0121031b6e533ca3223a2abf2f476e1a1948189e8ce12db8f2166a832caec76a042ce8ffffffff011d6d65330000000017a914141f39c94fafb63f508e8161e719b2eb8c12b7a18700000000"
    }, 
    {
      "txid": "679e3f5b7e2ee10f44464fd279b8e5748b52b5c2fca41376b32da1cc85f8dc0f",
      "hash": "679e3f5b7e2ee10f44464fd279b8e5748b52b5c2fca41376b32da1cc85f8dc0f",
      "version": 1,
      "size": 225,
      "vsize": 225,
      "locktime": 0,
      "vin": [
        {
          "txid": "a93818b10ef1ab09de591e6022f92270531cf7e775c44cae434d588216c44818",
          "vout": 40,
          "scriptSig": {
            "asm": "30440220336fe9a4465b4d074f9bf66e66869dbc2c00ebe4a086622107fc7f0144cb05960220301fb9c04214d6ce72135f33948bcf3c86937b954c5bfa2e57c64de8a9b173e9[ALL] 038179bb74be07abe68000e0c656d0b84bebe2aa10343da399e0a7d10137d81a1c",
            "hex": "4730440220336fe9a4465b4d074f9bf66e66869dbc2c00ebe4a086622107fc7f0144cb05960220301fb9c04214d6ce72135f33948bcf3c86937b954c5bfa2e57c64de8a9b173e90121038179bb74be07abe68000e0c656d0b84bebe2aa10343da399e0a7d10137d81a1c"
          },
          "sequence": 4294967295
        }
      ],
      "vout": [
        {
          "value": 0.29977400,
          "n": 0,
          "scriptPubKey": {
            "asm": "OP_DUP OP_HASH160 2b9c0e5573ce2dc623053459936e3c8b1b822f45 OP_EQUALVERIFY OP_CHECKSIG",
            "hex": "76a9142b9c0e5573ce2dc623053459936e3c8b1b822f4588ac",
            "reqSigs": 1,
            "type": "pubkeyhash",
            "addresses": [
              "LPCYGRSBAeNPDWJCYCTdHPpk4wo6FiHGo3"
            ]
          }
        }, 
        {
          "value": 0.70000000,
          "n": 1,
          "scriptPubKey": {
            "asm": "OP_DUP OP_HASH160 b58c07109fc6bbcbfaecec13b426a89e4b0f5e26 OP_EQUALVERIFY OP_CHECKSIG",
            "hex": "76a914b58c07109fc6bbcbfaecec13b426a89e4b0f5e2688ac",
            "reqSigs": 1,
            "type": "pubkeyhash",
            "addresses": [
              "LbmtKDrFTXAZywp3NpW4eDstxCD1aTFNog"
            ]
          }
        }
      ],
      "hex": "01000000011848c41682584d43ae4cc475e7f71c537022f922601e59de09abf10eb11838a9280000006a4730440220336fe9a4465b4d074f9bf66e66869dbc2c00ebe4a086622107fc7f0144cb05960220301fb9c04214d6ce72135f33948bcf3c86937b954c5bfa2e57c64de8a9b173e90121038179bb74be07abe68000e0c656d0b84bebe2aa10343da399e0a7d10137d81a1cffffffff02386bc901000000001976a9142b9c0e5573ce2dc623053459936e3c8b1b822f4588ac801d2c04000000001976a914b58c07109fc6bbcbfaecec13b426a89e4b0f5e2688ac00000000"
    }, 
    {
      "txid": "970bb4c3d5bf1c2c6c4781dd88d16ec0249c6c8ec3587f51a8219fbd927d0da7",
      "hash": "970bb4c3d5bf1c2c6c4781dd88d16ec0249c6c8ec3587f51a8219fbd927d0da7",
      "version": 1,
      "size": 225,
      "vsize": 225,
      "locktime": 0,
      "vin": [
        {
          "txid": "4ca98451be46dbe48c74e4c013da0155fb9438600fdb7e8c0bc28be5f0dc4138",
          "vout": 0,
          "scriptSig": {
            "asm": "3044022000a6733b1a2a53e12b4f3662b3f00903c53092bb9b8679d1682b5338f8dbb4fd02202fda6d3c6bd0eb9976ae00cff2b07c4e7c618b8b43045d5113df12aff10eff1b[ALL] 0268c7b9a20cb05744d36233d772a1790a3d83280ec01f755b6a00f6bc95beb6e6",
            "hex": "473044022000a6733b1a2a53e12b4f3662b3f00903c53092bb9b8679d1682b5338f8dbb4fd02202fda6d3c6bd0eb9976ae00cff2b07c4e7c618b8b43045d5113df12aff10eff1b01210268c7b9a20cb05744d36233d772a1790a3d83280ec01f755b6a00f6bc95beb6e6"
          },
          "sequence": 4294967295
        }
      ],
      "vout": [
        {
          "value": 0.00055476,
          "n": 0,
          "scriptPubKey": {
            "asm": "OP_DUP OP_HASH160 efbe3b7fed6ecd190ed2726c2e821bf2824533b6 OP_EQUALVERIFY OP_CHECKSIG",
            "hex": "76a914efbe3b7fed6ecd190ed2726c2e821bf2824533b688ac",
            "reqSigs": 1,
            "type": "pubkeyhash",
            "addresses": [
              "Lh5bee7u5AgD5zz8rpkuxR2rVpHHPH7bMR"
            ]
          }
        }, 
        {
          "value": 0.07522169,
          "n": 1,
          "scriptPubKey": {
            "asm": "OP_DUP OP_HASH160 f02cdb606151d1b8a5d7e6608ed53660abd75a85 OP_EQUALVERIFY OP_CHECKSIG",
            "hex": "76a914f02cdb606151d1b8a5d7e6608ed53660abd75a8588ac",
            "reqSigs": 1,
            "type": "pubkeyhash",
            "addresses": [
              "Lh7tAy3azh7VWp1hLBtVoB1dSbRwxziCJ3"
            ]
          }
        }
      ],
      "hex": "01000000013841dcf0e58bc20b8c7edb0f603894fb5501da13c0e4748ce4db46be5184a94c000000006a473044022000a6733b1a2a53e12b4f3662b3f00903c53092bb9b8679d1682b5338f8dbb4fd02202fda6d3c6bd0eb9976ae00cff2b07c4e7c618b8b43045d5113df12aff10eff1b01210268c7b9a20cb05744d36233d772a1790a3d83280ec01f755b6a00f6bc95beb6e6ffffffff02b4d80000000000001976a914efbe3b7fed6ecd190ed2726c2e821bf2824533b688ac79c77200000000001976a914f02cdb606151d1b8a5d7e6608ed53660abd75a8588ac00000000"
    }, 
    {
      "txid": "1c01d8aecc2f5ce4829eb95cf9ee0cb644cbbd5eaa9fbf0d6bfc24489cb069c2",
      "hash": "1c01d8aecc2f5ce4829eb95cf9ee0cb644cbbd5eaa9fbf0d6bfc24489cb069c2",
      "version": 1,
      "size": 225,
      "vsize": 225,
      "locktime": 0,
      "vin": [
        {
          "txid": "4b92f37d4606ce9e33d3ec05e8bad5689e2a51d8a1ab4a551aad009ec5d66e7b",
          "vout": 1,
          "scriptSig": {
            "asm": "304402205d3e976840cd375e778d7cb00872016a4366b304b217dfe5aba9512068bcdfe4022002e438fa56a81791e6179c3b46fe5d97b34ecb847c9005aa3a442040c6e205b9[ALL] 03dcfefb6c5112857963bb5f02e2b828630fa47eea3746af8cf2bf8b19badf4868",
            "hex": "47304402205d3e976840cd375e778d7cb00872016a4366b304b217dfe5aba9512068bcdfe4022002e438fa56a81791e6179c3b46fe5d97b34ecb847c9005aa3a442040c6e205b9012103dcfefb6c5112857963bb5f02e2b828630fa47eea3746af8cf2bf8b19badf4868"
          },
          "sequence": 4294967295
        }
      ],
      "vout": [
        {
          "value": 1.08164400,
          "n": 0,
          "scriptPubKey": {
            "asm": "OP_DUP OP_HASH160 b76e432bf7cccf18554577c4c7da3cdcc1a9d96f OP_EQUALVERIFY OP_CHECKSIG",
            "hex": "76a914b76e432bf7cccf18554577c4c7da3cdcc1a9d96f88ac",
            "reqSigs": 1,
            "type": "pubkeyhash",
            "addresses": [
              "Lbwr1UyUYbcdNiLR5iqZoJXzH2oqSoTnxN"
            ]
          }
        }, 
        {
          "value": 2.91513000,
          "n": 1,
          "scriptPubKey": {
            "asm": "OP_DUP OP_HASH160 b0e78a042ca90ab4ddd49c3c9763104ff1b7b91d OP_EQUALVERIFY OP_CHECKSIG",
            "hex": "76a914b0e78a042ca90ab4ddd49c3c9763104ff1b7b91d88ac",
            "reqSigs": 1,
            "type": "pubkeyhash",
            "addresses": [
              "LbMLZbW9x158op2qtSr6sX54Tny8vV8Z7z"
            ]
          }
        }
      ],
      "hex": "01000000017b6ed6c59e00ad1a554aaba1d8512a9e68d5bae805ecd3339ece06467df3924b010000006a47304402205d3e976840cd375e778d7cb00872016a4366b304b217dfe5aba9512068bcdfe4022002e438fa56a81791e6179c3b46fe5d97b34ecb847c9005aa3a442040c6e205b9012103dcfefb6c5112857963bb5f02e2b828630fa47eea3746af8cf2bf8b19badf4868ffffffff0230757206000000001976a914b76e432bf7cccf18554577c4c7da3cdcc1a9d96f88aca8226011000000001976a914b0e78a042ca90ab4ddd49c3c9763104ff1b7b91d88ac00000000"
    }, 
    {
      "txid": "0d7bcc33c6adbeaf45a28a36b0a150d64b497b33600126b98e6b6b3855ffd4bf",
      "hash": "0d7bcc33c6adbeaf45a28a36b0a150d64b497b33600126b98e6b6b3855ffd4bf",
      "version": 1,
      "size": 372,
      "vsize": 372,
      "locktime": 1357703,
      "vin": [
        {
          "txid": "4fa60d7397570af0d92e09873e3fbfbf5dd5b0747e10bab85e13aaa3fdaf4c10",
          "vout": 0,
          "scriptSig": {
            "asm": "304402203986bc848909608b96e6df11e6c67a530fe543a05d2d5262839ee5975ae907c4022045a1a99ef0c829f76f0425d8f4a7ef9e8a0b042df894d1b96c3b95113976806a[ALL] 034e07c562f361dd2d650adcfeef65a5ccb623ccdb2c566954fc21c94064d00e06",
            "hex": "47304402203986bc848909608b96e6df11e6c67a530fe543a05d2d5262839ee5975ae907c4022045a1a99ef0c829f76f0425d8f4a7ef9e8a0b042df894d1b96c3b95113976806a0121034e07c562f361dd2d650adcfeef65a5ccb623ccdb2c566954fc21c94064d00e06"
          },
          "sequence": 4294967294
        }, 
        {
          "txid": "a7d5f9c277cc4d20da2ab852b7144c0b608371541f5fdbbaab487a2846f9a6e1",
          "vout": 1,
          "scriptSig": {
            "asm": "3044022033edb7c56bc5653d9ea677dd3a3cca5c3ef74c690c3c425ff99e6e234009c162022078530f8198b6ff35662955bec1f7f0dd7794bf976133fb4b57fde37d2dd017d7[ALL] 02759850e6d34b488c5afb744137212842a5438181920b6bc430fa523d808fa723",
            "hex": "473044022033edb7c56bc5653d9ea677dd3a3cca5c3ef74c690c3c425ff99e6e234009c162022078530f8198b6ff35662955bec1f7f0dd7794bf976133fb4b57fde37d2dd017d7012102759850e6d34b488c5afb744137212842a5438181920b6bc430fa523d808fa723"
          },
          "sequence": 4294967294
        }
      ],
      "vout": [
        {
          "value": 2.76957391,
          "n": 0,
          "scriptPubKey": {
            "asm": "OP_DUP OP_HASH160 747da080dd7a241e00fe910c1761e01b8d5bfe98 OP_EQUALVERIFY OP_CHECKSIG",
            "hex": "76a914747da080dd7a241e00fe910c1761e01b8d5bfe9888ac",
            "reqSigs": 1,
            "type": "pubkeyhash",
            "addresses": [
              "LVqu9BPjFDGFjuNUCPVNmZ67zaKXyC53Ty"
            ]
          }
        }, 
        {
          "value": 0.01005309,
          "n": 1,
          "scriptPubKey": {
            "asm": "OP_DUP OP_HASH160 534faa42962f3e68de3542dcfe040e7239813a4d OP_EQUALVERIFY OP_CHECKSIG",
            "hex": "76a914534faa42962f3e68de3542dcfe040e7239813a4d88ac",
            "reqSigs": 1,
            "type": "pubkeyhash",
            "addresses": [
              "LSpTnMvngEhtpzZoeK31pubXt8nvNM3nbg"
            ]
          }
        }
      ],
      "hex": "0100000002104caffda3aa135eb8ba107e74b0d55dbfbf3f3e87092ed9f00a5797730da64f000000006a47304402203986bc848909608b96e6df11e6c67a530fe543a05d2d5262839ee5975ae907c4022045a1a99ef0c829f76f0425d8f4a7ef9e8a0b042df894d1b96c3b95113976806a0121034e07c562f361dd2d650adcfeef65a5ccb623ccdb2c566954fc21c94064d00e06feffffffe1a6f946287a48abbadb5f1f547183600b4c14b752b82ada204dcc77c2f9d5a7010000006a473044022033edb7c56bc5653d9ea677dd3a3cca5c3ef74c690c3c425ff99e6e234009c162022078530f8198b6ff35662955bec1f7f0dd7794bf976133fb4b57fde37d2dd017d7012102759850e6d34b488c5afb744137212842a5438181920b6bc430fa523d808fa723feffffff02cf088210000000001976a914747da080dd7a241e00fe910c1761e01b8d5bfe9888acfd560f00000000001976a914534faa42962f3e68de3542dcfe040e7239813a4d88ac87b71400"
    }, 
    {
      "txid": "13a1d39ff2fd7b01d21444c61f33935cb380582b21fc46be9a02ac103c94fa5e",
      "hash": "13a1d39ff2fd7b01d21444c61f33935cb380582b21fc46be9a02ac103c94fa5e",
      "version": 1,
      "size": 226,
      "vsize": 226,
      "locktime": 0,
      "vin": [
        {
          "txid": "c0a412b445d25604fc5ec6468e501919d4b8df89a1ee3c36b525bdddf854daf2",
          "vout": 191,
          "scriptSig": {
            "asm": "3045022100980b27dd9a342200b8c1fec63bd12616110a392e58db4d7072123c5328d5b8a10220620afb94df9065631f4df714d1fb6acdf1e4b1ba289272ec5c90544243db116c[ALL] 02e936194e219f1090a29066e680f86c7f5edcf66e8996175ea9c652b553cbd567",
            "hex": "483045022100980b27dd9a342200b8c1fec63bd12616110a392e58db4d7072123c5328d5b8a10220620afb94df9065631f4df714d1fb6acdf1e4b1ba289272ec5c90544243db116c012102e936194e219f1090a29066e680f86c7f5edcf66e8996175ea9c652b553cbd567"
          },
          "sequence": 4294967295
        }
      ],
      "vout": [
        {
          "value": 0.15977400,
          "n": 0,
          "scriptPubKey": {
            "asm": "OP_DUP OP_HASH160 0c4764dcea7a2e6d4ce26b287e96ae5015d53729 OP_EQUALVERIFY OP_CHECKSIG",
            "hex": "76a9140c4764dcea7a2e6d4ce26b287e96ae5015d5372988ac",
            "reqSigs": 1,
            "type": "pubkeyhash",
            "addresses": [
              "LLLsu4FFkZKj6VhK8CTuUfAVQzHNTukbLF"
            ]
          }
        }, 
        {
          "value": 0.00057163,
          "n": 1,
          "scriptPubKey": {
            "asm": "OP_DUP OP_HASH160 96551c8b4005a110b5cf47bff66dc8e7d7f2f1c9 OP_EQUALVERIFY OP_CHECKSIG",
            "hex": "76a91496551c8b4005a110b5cf47bff66dc8e7d7f2f1c988ac",
            "reqSigs": 1,
            "type": "pubkeyhash",
            "addresses": [
              "LYvqadyLnstFtKVaW7hpDedNs256sctR54"
            ]
          }
        }
      ],
      "hex": "0100000001f2da54f8ddbd25b5363ceea189dfb8d41919508e46c65efc0456d245b412a4c0bf0000006b483045022100980b27dd9a342200b8c1fec63bd12616110a392e58db4d7072123c5328d5b8a10220620afb94df9065631f4df714d1fb6acdf1e4b1ba289272ec5c90544243db116c012102e936194e219f1090a29066e680f86c7f5edcf66e8996175ea9c652b553cbd567ffffffff02b8cbf300000000001976a9140c4764dcea7a2e6d4ce26b287e96ae5015d5372988ac4bdf0000000000001976a91496551c8b4005a110b5cf47bff66dc8e7d7f2f1c988ac00000000"
    }, 
    {
      "txid": "c699893773d033b2fb79dd77e2f5a887f2416b5d0bdcbbeb891dce350b721c6a",
      "hash": "c699893773d033b2fb79dd77e2f5a887f2416b5d0bdcbbeb891dce350b721c6a",
      "version": 1,
      "size": 226,
      "vsize": 226,
      "locktime": 0,
      "vin": [
        {
          "txid": "65b784b2e8ade4a694db7c70d7dfbd60b0fcc48580488ef4db8e201aef52cbd6",
          "vout": 1,
          "scriptSig": {
            "asm": "3045022100ab9699fd5ab05b3014b4e84e9965af1f4f07c04250d253f7272a2eb156704937022075f62ba58e0094e70e56b3890c60240c43206c90a0f2f2676ce86ca49f13eb45[ALL] 0258f2a1b675e24fcabc051f60d04ffe0b16b95ea7ba9fc4dd1f3160e75f4263f4",
            "hex": "483045022100ab9699fd5ab05b3014b4e84e9965af1f4f07c04250d253f7272a2eb156704937022075f62ba58e0094e70e56b3890c60240c43206c90a0f2f2676ce86ca49f13eb4501210258f2a1b675e24fcabc051f60d04ffe0b16b95ea7ba9fc4dd1f3160e75f4263f4"
          },
          "sequence": 4294967295
        }
      ],
      "vout": [
        {
          "value": 0.21490600,
          "n": 0,
          "scriptPubKey": {
            "asm": "OP_DUP OP_HASH160 15ab43b97b4b4b37cace922fd9394616e7d54d4c OP_EQUALVERIFY OP_CHECKSIG",
            "hex": "76a91415ab43b97b4b4b37cace922fd9394616e7d54d4c88ac",
            "reqSigs": 1,
            "type": "pubkeyhash",
            "addresses": [
              "LMCXcund2QbGUrhBfHi7gsXYB1CPT8h5at"
            ]
          }
        }, 
        {
          "value": 4.78486800,
          "n": 1,
          "scriptPubKey": {
            "asm": "OP_DUP OP_HASH160 056b4fe05145ade0581cb62cf1069d862b3f40a7 OP_EQUALVERIFY OP_CHECKSIG",
            "hex": "76a914056b4fe05145ade0581cb62cf1069d862b3f40a788ac",
            "reqSigs": 1,
            "type": "pubkeyhash",
            "addresses": [
              "LKicCLn3H5An3g8KefhvxeWSuBay16Uxkq"
            ]
          }
        }
      ],
      "hex": "0100000001d6cb52ef1a208edbf48e488085c4fcb060bddfd7707cdb94a6e4ade8b284b765010000006b483045022100ab9699fd5ab05b3014b4e84e9965af1f4f07c04250d253f7272a2eb156704937022075f62ba58e0094e70e56b3890c60240c43206c90a0f2f2676ce86ca49f13eb4501210258f2a1b675e24fcabc051f60d04ffe0b16b95ea7ba9fc4dd1f3160e75f4263f4ffffffff02a8eb4701000000001976a91415ab43b97b4b4b37cace922fd9394616e7d54d4c88ac1021851c000000001976a914056b4fe05145ade0581cb62cf1069d862b3f40a788ac00000000"
    }, 
    {
      "txid": "cdd6cd11203ffd993b9f9ee11e18fd50055edaf28b0f38576f56030275927687",
      "hash": "cdd6cd11203ffd993b9f9ee11e18fd50055edaf28b0f38576f56030275927687",
      "version": 1,
      "size": 226,
      "vsize": 226,
      "locktime": 0,
      "vin": [
        {
          "txid": "93017cb9777fa99560f4ab37bf6f5c5b75b04ab5eda34f9e2b8fc609466c18aa",
          "vout": 20,
          "scriptSig": {
            "asm": "3045022100a57ad7a128d765c6667ad6829590637cd71018fe5fe31b2fe4c1f6b12510378c02202753494095cd38e66e1d0e588c006785741e893e1ff9a4e30ee5e8787f321ac4[ALL] 036ecc05943e043fb932cc1d46f7f97744664ee3b155a83ac9f5ac3a67631a6502",
            "hex": "483045022100a57ad7a128d765c6667ad6829590637cd71018fe5fe31b2fe4c1f6b12510378c02202753494095cd38e66e1d0e588c006785741e893e1ff9a4e30ee5e8787f321ac40121036ecc05943e043fb932cc1d46f7f97744664ee3b155a83ac9f5ac3a67631a6502"
          },
          "sequence": 4294967295
        }
      ],
      "vout": [
        {
          "value": 5.03780240,
          "n": 0,
          "scriptPubKey": {
            "asm": "OP_DUP OP_HASH160 ac9434251d2dfb48a76a1615b0cd676a8abdcbf2 OP_EQUALVERIFY OP_CHECKSIG",
            "hex": "76a914ac9434251d2dfb48a76a1615b0cd676a8abdcbf288ac",
            "reqSigs": 1,
            "type": "pubkeyhash",
            "addresses": [
              "LaxU2aeD5tXoTMJ5WUgEm2Lafi2naN9ue2"
            ]
          }
        }, 
        {
          "value": 4.47779682,
          "n": 1,
          "scriptPubKey": {
            "asm": "OP_DUP OP_HASH160 bbbcd08d60ee85b2c80f830473e22ce1e2b9363e OP_EQUALVERIFY OP_CHECKSIG",
            "hex": "76a914bbbcd08d60ee85b2c80f830473e22ce1e2b9363e88ac",
            "reqSigs": 1,
            "type": "pubkeyhash",
            "addresses": [
              "LcLcpA6hB7gf5ft34ZqjrVRXgFoAgJGNt7"
            ]
          }
        }
      ],
      "hex": "0100000001aa186c4609c68f2b9e4fa3edb54ab0755b5c6fbf37abf46095a97f77b97c0193140000006b483045022100a57ad7a128d765c6667ad6829590637cd71018fe5fe31b2fe4c1f6b12510378c02202753494095cd38e66e1d0e588c006785741e893e1ff9a4e30ee5e8787f321ac40121036ecc05943e043fb932cc1d46f7f97744664ee3b155a83ac9f5ac3a67631a6502ffffffff029013071e000000001976a914ac9434251d2dfb48a76a1615b0cd676a8abdcbf288ac6293b01a000000001976a914bbbcd08d60ee85b2c80f830473e22ce1e2b9363e88ac00000000"
    }
  ],
  "time": 1517036928,
  "mediantime": 1517036516,
  "nonce": 913221859,
  "bits": "1a047f14",
  "difficulty": 3731199.183374282,
  "chainwork": "00000000000000000000000000000000000000000000003274e6965f4ce18f04",
  "previousblockhash": "b1a9cd911b5d714fe32daea45e02b581604164c6fd4495c8317ba84ec4bb9913",
  "nextblockhash": "ac1e4c1348a9dfcd22a816f4def1a56a1bc7f7b33bcfb5a3ef77e71524988153"
}
