{
  "hash": "52e30f35926334db358b4d3f6906d4932261ce80fc364dfc41743acf905f8d7c",
  "confirmations": 937,
  "strippedsize": 303,
  "size": 339,
  "weight": 1248,
  "height": 1360057,
  "version": 536870912,
  "versionHex": "20000000",
  "merkleroot": "65920fce2f7398fabc19445137e44913c4f51476b72cc946da6c6d9fbe8f2941",
  "tx": [
    {
      "txid": "65920fce2f7398fabc19445137e44913c4f51476b72cc946da6c6d9fbe8f2941",
      "hash": "9633dff0f3e00915a0177d469f06a5beacdf9ef2d4a7b7f4a0832cb505dd7d95",
      "version": 1,
      "size": 258,
      "vsize": 231,
      "locktime": 0,
      "vin": [
        {
          "coinbase": "03b9c014172f5669614254432f4d696e6564206279206d7a6c30312f2cfabe6d6d566c45673c01e1cad39707335872d79b4a643f237ea66ccb96a4cdb644b90b79010000000000000010e183710017c20381fd249ff564000000",
          "sequence": 4294967295
        }
      ],
      "vout": [
        {
          "value": 25.00000000,
          "n": 0,
          "scriptPubKey": {
            "asm": "OP_DUP OP_HASH160 e16c28146ed4869c190b3f0bdc18d80d45f92134 OP_EQUALVERIFY OP_CHECKSIG",
            "hex": "76a914e16c28146ed4869c190b3f0bdc18d80d45f9213488ac",
            "reqSigs": 1,
            "type": "pubkeyhash",
            "addresses": [
              "LfmssDyX6iZvbVqHv6t9P6JWXia2JG7mdb"
            ]
          }
        }, 
        {
          "value": 0.00000000,
          "n": 1,
          "scriptPubKey": {
            "asm": "OP_RETURN aa21a9ede2f61c3f71d1defd3fa999dfa36953755c690689799962b48bebd836974e8cf9",
            "hex": "6a24aa21a9ede2f61c3f71d1defd3fa999dfa36953755c690689799962b48bebd836974e8cf9",
            "type": "nulldata"
          }
        }
      ],
      "hex": "010000000001010000000000000000000000000000000000000000000000000000000000000000ffffffff5a03b9c014172f5669614254432f4d696e6564206279206d7a6c30312f2cfabe6d6d566c45673c01e1cad39707335872d79b4a643f237ea66ccb96a4cdb644b90b79010000000000000010e183710017c20381fd249ff564000000ffffffff0200f90295000000001976a914e16c28146ed4869c190b3f0bdc18d80d45f9213488ac0000000000000000266a24aa21a9ede2f61c3f71d1defd3fa999dfa36953755c690689799962b48bebd836974e8cf90120000000000000000000000000000000000000000000000000000000000000000000000000"
    }
  ],
  "time": 1517368731,
  "mediantime": 1517367864,
  "nonce": 63044583,
  "bits": "1a042eae",
  "difficulty": 4011378.762614286,
  "chainwork": "00000000000000000000000000000000000000000000003495431a6b106f3574",
  "previousblockhash": "57d68fcdcfb2214a622bd55f13ad3dd793738ad5aa965a6619775c315905965e",
  "nextblockhash": "f2487945f16960252ebff28fa960ab2b37d5e28610604a7d23a3b6677e8d4f42"
}
