{
  "hash": "5305c28f682a28d3d69604852b8373fbb4e137989d049c2c9ec50ce6d26f92da",
  "confirmations": 1237,
  "strippedsize": 4301,
  "size": 5433,
  "weight": 18336,
  "height": 1359757,
  "version": 536870912,
  "versionHex": "20000000",
  "merkleroot": "4b3af8ae603168625a76f258e528e4f75442372f3da83d7cae402da00098f10e",
  "tx": [
    {
      "txid": "cf4fa473727c3751e51ea6f170d44d7b99430cf33fc6065ec54d7a03d1a57811",
      "hash": "5f47c452b02e3bea3a62822649a6a8aade30475e38dfdafb88bfb6f6fa9ddee9",
      "version": 1,
      "size": 251,
      "vsize": 224,
      "locktime": 0,
      "vin": [
        {
          "coinbase": "038dbf140000000000fabe6d6d2d02b2a0eaa458b762926e47ed17bd86af25dc322ccaf4f456e912c3cb3db999010000000000000004c395705a046da4240508188a404355556aac0a42570a6657042f42572f",
          "sequence": 4294967295
        }
      ],
      "vout": [
        {
          "value": 25.01528425,
          "n": 0,
          "scriptPubKey": {
            "asm": "OP_DUP OP_HASH160 5373bc9425fd49e6bfe522d3dfc85432da2cc023 OP_EQUALVERIFY OP_CHECKSIG",
            "hex": "76a9145373bc9425fd49e6bfe522d3dfc85432da2cc02388ac",
            "reqSigs": 1,
            "type": "pubkeyhash",
            "addresses": [
              "LSqCzf5bPfkqGf94pJcfxWx5bZMPJE5XRf"
            ]
          }
        }, 
        {
          "value": 0.00000000,
          "n": 1,
          "scriptPubKey": {
            "asm": "OP_RETURN aa21a9ed22add09a91488c218def349285c29dfd2b5b92604f1f357c25dbb49b607b01cb",
            "hex": "6a24aa21a9ed22add09a91488c218def349285c29dfd2b5b92604f1f357c25dbb49b607b01cb",
            "type": "nulldata"
          }
        }
      ],
      "hex": "010000000001010000000000000000000000000000000000000000000000000000000000000000ffffffff53038dbf140000000000fabe6d6d2d02b2a0eaa458b762926e47ed17bd86af25dc322ccaf4f456e912c3cb3db999010000000000000004c395705a046da4240508188a404355556aac0a42570a6657042f42572fffffffff02694b1a95000000001976a9145373bc9425fd49e6bfe522d3dfc85432da2cc02388ac0000000000000000266a24aa21a9ed22add09a91488c218def349285c29dfd2b5b92604f1f357c25dbb49b607b01cb0120000000000000000000000000000000000000000000000000000000000000000000000000"
    }, 
    {
      "txid": "bb15704fdf1506dd7794931107cbe1fa144deaf7651427739a292864d754944c",
      "hash": "bb15704fdf1506dd7794931107cbe1fa144deaf7651427739a292864d754944c",
      "version": 1,
      "size": 373,
      "vsize": 373,
      "locktime": 0,
      "vin": [
        {
          "txid": "316b3dd5b28beb3973053544c01bbc5ec0d8bf9cf4f92167e2def74152e86eaa",
          "vout": 0,
          "scriptSig": {
            "asm": "0 3045022100a35e46943a9eabf831bd64bd608ecb094eb42e337953d14800c096ff9144569a02204c7fab39c6b7a94e1b4bb70caf9e7129646b7537a4d85f46ef3361cc714b9eaf[ALL] 30450221009fcbb64459962e161b37140520cb88a6c116e1d71e2932756ce70693e9363be1022017a3d683c5ac165ab8c0fd34cd4c51d0f41e624ecd1bdbb93c0e24e2422e0efc[ALL] 5221029c94a19db6750bd7535ca9e013aa1f352de9b18cac9075f05df94d945fcf191f210271931524eeb90bdf2df1abc8eeccfa6d4aa962fa2598ba951d2abe71ad374bf521036c6cf1ee018a63261ef1056ff051de73eaae4667ee02cc2eb03b4fce637a2a1f53ae",
            "hex": "00483045022100a35e46943a9eabf831bd64bd608ecb094eb42e337953d14800c096ff9144569a02204c7fab39c6b7a94e1b4bb70caf9e7129646b7537a4d85f46ef3361cc714b9eaf014830450221009fcbb64459962e161b37140520cb88a6c116e1d71e2932756ce70693e9363be1022017a3d683c5ac165ab8c0fd34cd4c51d0f41e624ecd1bdbb93c0e24e2422e0efc014c695221029c94a19db6750bd7535ca9e013aa1f352de9b18cac9075f05df94d945fcf191f210271931524eeb90bdf2df1abc8eeccfa6d4aa962fa2598ba951d2abe71ad374bf521036c6cf1ee018a63261ef1056ff051de73eaae4667ee02cc2eb03b4fce637a2a1f53ae"
          },
          "sequence": 4294967295
        }
      ],
      "vout": [
        {
          "value": 0.70060000,
          "n": 0,
          "scriptPubKey": {
            "asm": "OP_DUP OP_HASH160 c1c115676f12ed09b38d91a5e326378befdd8348 OP_EQUALVERIFY OP_CHECKSIG",
            "hex": "76a914c1c115676f12ed09b38d91a5e326378befdd834888ac",
            "reqSigs": 1,
            "type": "pubkeyhash",
            "addresses": [
              "LctRyvMNnf8A1vNcQd5VyXBNNSFqhWYtLq"
            ]
          }
        }, 
        {
          "value": 136.39516001,
          "n": 1,
          "scriptPubKey": {
            "asm": "OP_HASH160 bdddf00357ceb971a085fb9ce68aa735d888a57b OP_EQUAL",
            "hex": "a914bdddf00357ceb971a085fb9ce68aa735d888a57b87",
            "reqSigs": 1,
            "type": "scripthash",
            "addresses": [
              "MRD5pBFS7RF4hDtioNiVvYApQzmbQeyozD"
            ]
          }
        }
      ],
      "hex": "0100000001aa6ee85241f7dee26721f9f49cbfd8c05ebc1bc04435057339eb8bb2d53d6b3100000000fdfe0000483045022100a35e46943a9eabf831bd64bd608ecb094eb42e337953d14800c096ff9144569a02204c7fab39c6b7a94e1b4bb70caf9e7129646b7537a4d85f46ef3361cc714b9eaf014830450221009fcbb64459962e161b37140520cb88a6c116e1d71e2932756ce70693e9363be1022017a3d683c5ac165ab8c0fd34cd4c51d0f41e624ecd1bdbb93c0e24e2422e0efc014c695221029c94a19db6750bd7535ca9e013aa1f352de9b18cac9075f05df94d945fcf191f210271931524eeb90bdf2df1abc8eeccfa6d4aa962fa2598ba951d2abe71ad374bf521036c6cf1ee018a63261ef1056ff051de73eaae4667ee02cc2eb03b4fce637a2a1f53aeffffffff02e0072d04000000001976a914c1c115676f12ed09b38d91a5e326378befdd834888ac617ffa2c0300000017a914bdddf00357ceb971a085fb9ce68aa735d888a57b8700000000"
    }, 
    {
      "txid": "820ed1cf7329acf2e799403c777c90509056adc482ce7205b00487ec506e9e43",
      "hash": "820ed1cf7329acf2e799403c777c90509056adc482ce7205b00487ec506e9e43",
      "version": 2,
      "size": 223,
      "vsize": 223,
      "locktime": 0,
      "vin": [
        {
          "txid": "1ed0d54deabec6fd12283583c93e839e4762c1eaf190a74e47754d8a654961ca",
          "vout": 1,
          "scriptSig": {
            "asm": "304402200e4b6013174bf4b0c492f631bd89b292893a3f87c9cefb06f6ce77546d9bf76c02204e76f78dfb239cbb118932de06515783d984d78bdbec8e66688b48015b26a32a[ALL] 03c791285eb2141be430e97711ab510385d8b61dde08d8c7323972f608f1e1269c",
            "hex": "47304402200e4b6013174bf4b0c492f631bd89b292893a3f87c9cefb06f6ce77546d9bf76c02204e76f78dfb239cbb118932de06515783d984d78bdbec8e66688b48015b26a32a012103c791285eb2141be430e97711ab510385d8b61dde08d8c7323972f608f1e1269c"
          },
          "sequence": 0
        }
      ],
      "vout": [
        {
          "value": 20.00000000,
          "n": 0,
          "scriptPubKey": {
            "asm": "OP_HASH160 3f032a645bce837984fb92b2162cacee78b600dd OP_EQUAL",
            "hex": "a9143f032a645bce837984fb92b2162cacee78b600dd87",
            "reqSigs": 1,
            "type": "scripthash",
            "addresses": [
              "MDeLbTuurDZD31ZT8ogcqutzLZ3Bk1PtBu"
            ]
          }
        }, 
        {
          "value": 17.99838675,
          "n": 1,
          "scriptPubKey": {
            "asm": "OP_DUP OP_HASH160 e9168c5e17425d4751029b6cf9a1a949994499da OP_EQUALVERIFY OP_CHECKSIG",
            "hex": "76a914e9168c5e17425d4751029b6cf9a1a949994499da88ac",
            "reqSigs": 1,
            "type": "pubkeyhash",
            "addresses": [
              "LgUQibP7BCMbiXsygDqey1Pia6purPD4LV"
            ]
          }
        }
      ],
      "hex": "0200000001ca6149658a4d75474ea790f1eac162479e833ec983352812fdc6beea4dd5d01e010000006a47304402200e4b6013174bf4b0c492f631bd89b292893a3f87c9cefb06f6ce77546d9bf76c02204e76f78dfb239cbb118932de06515783d984d78bdbec8e66688b48015b26a32a012103c791285eb2141be430e97711ab510385d8b61dde08d8c7323972f608f1e1269c0000000002009435770000000017a9143f032a645bce837984fb92b2162cacee78b600dd87d35b476b000000001976a914e9168c5e17425d4751029b6cf9a1a949994499da88ac00000000"
    }, 
    {
      "txid": "dbea9596bf4e9b4a210b9e8d14e109ad593c4ef7d7cf0890604df07390e3a8d9",
      "hash": "bc3d0f271c434edcb396945e23775dc37f3de9c0a83367f05aaae7cc6597a323",
      "version": 1,
      "size": 1258,
      "vsize": 598,
      "locktime": 0,
      "vin": [
        {
          "txid": "ccb91cb265e1c270bbde0f863d29a940f9cbca8513ff8d71988fbba2b4df7e46",
          "vout": 1,
          "scriptSig": {
            "asm": "00202a02cadabc7690229431da523ca2c32396f718d1a899c4413175c9e1769e63a0",
            "hex": "2200202a02cadabc7690229431da523ca2c32396f718d1a899c4413175c9e1769e63a0"
          },
          "txinwitness": [
            "", 
            "3045022100db5a8ceeea925ba11dd708ff04f3c63543686cd32cc08d782989e095c052d9e502207c016c4751ef48387dfbff6e9076b7dfe92a87361bb602d0dea7a449e617613901", 
            "3045022100d2da9693b8afcb3f3f8478ab031017f4053eed742312e11c13054e6aaa8d753a02206966b617b4826aa4732a099c86364f4602283f04be97add69e02a0fd61509c0801", 
            "5221034ec3e1c42c602d05fdff702023b1b2293e2ae686a2c523376c5604730f1c223f2103769fe19b09de24b3b363492ddfa51bb8ac70dad0e9dcf145cf741786d2323ae952ae"
          ],
          "sequence": 4294967295
        }, 
        {
          "txid": "e8612a190314a90e517710826ce012c04b73e051f3c73078dc574bbb4dd5d9da",
          "vout": 1,
          "scriptSig": {
            "asm": "00202a02cadabc7690229431da523ca2c32396f718d1a899c4413175c9e1769e63a0",
            "hex": "2200202a02cadabc7690229431da523ca2c32396f718d1a899c4413175c9e1769e63a0"
          },
          "txinwitness": [
            "", 
            "3045022100aa66c1b1a8283dec5cc898c001e523ed97c8ff88bc881ee1ed8636cd64f2e81a022063fd9c6cac548e8a631079de1fae5becf6b07e77ad5b50364ee31e5058b7fe3301", 
            "3045022100865d0d2975c6291080bf90d043ae65ff1a834c380b10bb003cb3806249cc6fb902201be9da203b9fde49a9022ebd08f8d7ac38afcc82b80cb4168629966ac447b4cd01", 
            "5221034ec3e1c42c602d05fdff702023b1b2293e2ae686a2c523376c5604730f1c223f2103769fe19b09de24b3b363492ddfa51bb8ac70dad0e9dcf145cf741786d2323ae952ae"
          ],
          "sequence": 4294967295
        }, 
        {
          "txid": "cc669731d9d3307dbdca614c281281f4461e7c8c062f33f5b95ef7d9f392ad75",
          "vout": 1,
          "scriptSig": {
            "asm": "00202a02cadabc7690229431da523ca2c32396f718d1a899c4413175c9e1769e63a0",
            "hex": "2200202a02cadabc7690229431da523ca2c32396f718d1a899c4413175c9e1769e63a0"
          },
          "txinwitness": [
            "", 
            "3045022100b118cc01755c581b9a1cb43d95e4fe69a1b00f5b910dff209a865e3ef3f7622202201a380a59702a1c5c810d2b6f29ee8245e7b1af61378e13961e9d62fe1c41209b01", 
            "3045022100e29d73246cf4a0b315de91609c7f599b121f0d1ad6c309aee51f2fa16f142d5c0220057c79b4987a1c2bfee99695e8bfc1a075aac242600cc7fa5c717e65509f16d401", 
            "5221034ec3e1c42c602d05fdff702023b1b2293e2ae686a2c523376c5604730f1c223f2103769fe19b09de24b3b363492ddfa51bb8ac70dad0e9dcf145cf741786d2323ae952ae"
          ],
          "sequence": 4294967295
        }, 
        {
          "txid": "080a580a3be9455dcff9d26c28ae1a97efa2ea873c0cb12178d42f61608a6938",
          "vout": 0,
          "scriptSig": {
            "asm": "00202a02cadabc7690229431da523ca2c32396f718d1a899c4413175c9e1769e63a0",
            "hex": "2200202a02cadabc7690229431da523ca2c32396f718d1a899c4413175c9e1769e63a0"
          },
          "txinwitness": [
            "", 
            "30440220791b07b7af50e924a755d1ea772b8e060d909b8c74c261bc3b13d986620d6f3402203b8657dfa6250a90e64e12d7faea30b582d74a8a560aa0e3785f294077b68b0101", 
            "304402202fb23ce8cf76e1d83cda0cf2d835f137f8757d1847f5d3148766b0679d8ae1be02205a2e091932e61d049566ca37a20499b29889be02bb35c4fe2e470a85ef6a27cb01", 
            "5221034ec3e1c42c602d05fdff702023b1b2293e2ae686a2c523376c5604730f1c223f2103769fe19b09de24b3b363492ddfa51bb8ac70dad0e9dcf145cf741786d2323ae952ae"
          ],
          "sequence": 4294967295
        }
      ],
      "vout": [
        {
          "value": 1.31000000,
          "n": 0,
          "scriptPubKey": {
            "asm": "OP_HASH160 80dbe43824f7d887910864641025f50653b3c71c OP_EQUAL",
            "hex": "a91480dbe43824f7d887910864641025f50653b3c71c87",
            "reqSigs": 1,
            "type": "scripthash",
            "addresses": [
              "MKeW9K5Rg5BzDgMZCAffMsU6CaxbBZLF3m"
            ]
          }
        }, 
        {
          "value": 0.10232173,
          "n": 1,
          "scriptPubKey": {
            "asm": "OP_HASH160 ffb058bcf7dbf601920a2b4895fd6845d0c28484 OP_EQUAL",
            "hex": "a914ffb058bcf7dbf601920a2b4895fd6845d0c2848487",
            "reqSigs": 1,
            "type": "scripthash",
            "addresses": [
              "MXD7o8FamLwTrwdB6RSSsxDamcNM7MaFto"
            ]
          }
        }
      ],
      "hex": "01000000000104467edfb4a2bb8f98718dff1385cacbf940a9293d860fdebb70c2e165b21cb9cc01000000232200202a02cadabc7690229431da523ca2c32396f718d1a899c4413175c9e1769e63a0ffffffffdad9d54dbb4b57dc7830c7f351e0734bc012e06c821077510ea91403192a61e801000000232200202a02cadabc7690229431da523ca2c32396f718d1a899c4413175c9e1769e63a0ffffffff75ad92f3d9f75eb9f5332f068c7c1e46f48112284c61cabd7d30d3d9319766cc01000000232200202a02cadabc7690229431da523ca2c32396f718d1a899c4413175c9e1769e63a0ffffffff38698a60612fd47821b10c3c87eaa2ef971aae286cd2f9cf5d45e93b0a580a0800000000232200202a02cadabc7690229431da523ca2c32396f718d1a899c4413175c9e1769e63a0ffffffff02c0e6ce070000000017a91480dbe43824f7d887910864641025f50653b3c71c876d219c000000000017a914ffb058bcf7dbf601920a2b4895fd6845d0c28484870400483045022100db5a8ceeea925ba11dd708ff04f3c63543686cd32cc08d782989e095c052d9e502207c016c4751ef48387dfbff6e9076b7dfe92a87361bb602d0dea7a449e617613901483045022100d2da9693b8afcb3f3f8478ab031017f4053eed742312e11c13054e6aaa8d753a02206966b617b4826aa4732a099c86364f4602283f04be97add69e02a0fd61509c0801475221034ec3e1c42c602d05fdff702023b1b2293e2ae686a2c523376c5604730f1c223f2103769fe19b09de24b3b363492ddfa51bb8ac70dad0e9dcf145cf741786d2323ae952ae0400483045022100aa66c1b1a8283dec5cc898c001e523ed97c8ff88bc881ee1ed8636cd64f2e81a022063fd9c6cac548e8a631079de1fae5becf6b07e77ad5b50364ee31e5058b7fe3301483045022100865d0d2975c6291080bf90d043ae65ff1a834c380b10bb003cb3806249cc6fb902201be9da203b9fde49a9022ebd08f8d7ac38afcc82b80cb4168629966ac447b4cd01475221034ec3e1c42c602d05fdff702023b1b2293e2ae686a2c523376c5604730f1c223f2103769fe19b09de24b3b363492ddfa51bb8ac70dad0e9dcf145cf741786d2323ae952ae0400483045022100b118cc01755c581b9a1cb43d95e4fe69a1b00f5b910dff209a865e3ef3f7622202201a380a59702a1c5c810d2b6f29ee8245e7b1af61378e13961e9d62fe1c41209b01483045022100e29d73246cf4a0b315de91609c7f599b121f0d1ad6c309aee51f2fa16f142d5c0220057c79b4987a1c2bfee99695e8bfc1a075aac242600cc7fa5c717e65509f16d401475221034ec3e1c42c602d05fdff702023b1b2293e2ae686a2c523376c5604730f1c223f2103769fe19b09de24b3b363492ddfa51bb8ac70dad0e9dcf145cf741786d2323ae952ae04004730440220791b07b7af50e924a755d1ea772b8e060d909b8c74c261bc3b13d986620d6f3402203b8657dfa6250a90e64e12d7faea30b582d74a8a560aa0e3785f294077b68b010147304402202fb23ce8cf76e1d83cda0cf2d835f137f8757d1847f5d3148766b0679d8ae1be02205a2e091932e61d049566ca37a20499b29889be02bb35c4fe2e470a85ef6a27cb01475221034ec3e1c42c602d05fdff702023b1b2293e2ae686a2c523376c5604730f1c223f2103769fe19b09de24b3b363492ddfa51bb8ac70dad0e9dcf145cf741786d2323ae952ae00000000"
    }, 
    {
      "txid": "ec0bc216bfef77d3c7e6905834f4ba783348ad40d1353e17bc16a19107b3bffe",
      "hash": "61033c8f365771745efb01d04d20bd65274c17ffee0bc4ac81d676a34cbceaa4",
      "version": 1,
      "size": 420,
      "vsize": 258,
      "locktime": 0,
      "vin": [
        {
          "txid": "078eb7eeaaaf0690a1ecc41a35442e5327c485895ed86613d8178a32070610c7",
          "vout": 1,
          "scriptSig": {
            "asm": "0014069ff96864bc07abe952c901114ace0a8c587ac1",
            "hex": "160014069ff96864bc07abe952c901114ace0a8c587ac1"
          },
          "txinwitness": [
            "304402207bf146cce0f65a953af2765bc698a7d43ffdd6029c9679a4a6b20b16e763c362022075167c68cf3d2c553d0320c3654d82088b4abce48bd7c2e1e6ea0d511a5071f401", 
            "0381cbd02a5d290c47ad3e805c50175552f93f63b8922ee737f4be39f7a3ada567"
          ],
          "sequence": 4294967295
        }, 
        {
          "txid": "3f0cc24ddba531e5a829df12e1ab175687bfd01a389373e5afd006d0c7f65aea",
          "vout": 1,
          "scriptSig": {
            "asm": "0014ef37d1a02e1771044fe5ed791dddb3a724b7c4f6",
            "hex": "160014ef37d1a02e1771044fe5ed791dddb3a724b7c4f6"
          },
          "txinwitness": [
            "304402206038b918d35d7711b9c55059c2738d20b06398811f2d14425bb2b9c839e4ae1202203a8a314a2d3344ed4ffda5d9f078bc529075209e91e0b3a833d78f2e58e6940101", 
            "03bc9086a484830a95f39f7be999cd9b6082afd18786e02f9cbddbdacbe1dea8bd"
          ],
          "sequence": 4294967295
        }
      ],
      "vout": [
        {
          "value": 19.49956600,
          "n": 0,
          "scriptPubKey": {
            "asm": "OP_HASH160 7b9080d0ebf5f1937df35e85692fddd0b74798e9 OP_EQUAL",
            "hex": "a9147b9080d0ebf5f1937df35e85692fddd0b74798e987",
            "reqSigs": 1,
            "type": "scripthash",
            "addresses": [
              "MKAWTHMjWj4g3uECRbapXuGb4sVWfzpnxT"
            ]
          }
        }, 
        {
          "value": 40.00000000,
          "n": 1,
          "scriptPubKey": {
            "asm": "OP_DUP OP_HASH160 c66f00885d44c7ed2ea970ba1d182ffd9419b8ae OP_EQUALVERIFY OP_CHECKSIG",
            "hex": "76a914c66f00885d44c7ed2ea970ba1d182ffd9419b8ae88ac",
            "reqSigs": 1,
            "type": "pubkeyhash",
            "addresses": [
              "LdKB2kkocyyQN8RWNPKsXr2TxpujJrWcVd"
            ]
          }
        }
      ],
      "hex": "01000000000102c7100607328a17d81366d85e8985c427532e44351ac4eca19006afaaeeb78e070100000017160014069ff96864bc07abe952c901114ace0a8c587ac1ffffffffea5af6c7d006d0afe57393381ad0bf875617abe112df29a8e531a5db4dc20c3f0100000017160014ef37d1a02e1771044fe5ed791dddb3a724b7c4f6ffffffff02f8f939740000000017a9147b9080d0ebf5f1937df35e85692fddd0b74798e98700286bee000000001976a914c66f00885d44c7ed2ea970ba1d182ffd9419b8ae88ac0247304402207bf146cce0f65a953af2765bc698a7d43ffdd6029c9679a4a6b20b16e763c362022075167c68cf3d2c553d0320c3654d82088b4abce48bd7c2e1e6ea0d511a5071f401210381cbd02a5d290c47ad3e805c50175552f93f63b8922ee737f4be39f7a3ada5670247304402206038b918d35d7711b9c55059c2738d20b06398811f2d14425bb2b9c839e4ae1202203a8a314a2d3344ed4ffda5d9f078bc529075209e91e0b3a833d78f2e58e69401012103bc9086a484830a95f39f7be999cd9b6082afd18786e02f9cbddbdacbe1dea8bd00000000"
    }, 
    {
      "txid": "cdeeb032f29a04702352230324eaa75c83d7707b6fa2b5b7e8458795d08162b4",
      "hash": "cdeeb032f29a04702352230324eaa75c83d7707b6fa2b5b7e8458795d08162b4",
      "version": 1,
      "size": 224,
      "vsize": 224,
      "locktime": 0,
      "vin": [
        {
          "txid": "4d94a1a53366e3517ee84c401bf768117ecbb7accedea4c29d50cefc37774ddf",
          "vout": 0,
          "scriptSig": {
            "asm": "3043021f6a53dc5600f7af082475ec0912b18ea543b80576722cfe0ba27b4579ee31de02201f51d330bea8b10c71a80c00818a7631b363e8289b00f28b08af69287eec00df[ALL] 0290ad7896af8763bf92bd74c145571b84782bb2ae70c5475dc0d4dcd8af933bb9",
            "hex": "463043021f6a53dc5600f7af082475ec0912b18ea543b80576722cfe0ba27b4579ee31de02201f51d330bea8b10c71a80c00818a7631b363e8289b00f28b08af69287eec00df01210290ad7896af8763bf92bd74c145571b84782bb2ae70c5475dc0d4dcd8af933bb9"
          },
          "sequence": 4294967295
        }
      ],
      "vout": [
        {
          "value": 6.00000000,
          "n": 0,
          "scriptPubKey": {
            "asm": "OP_DUP OP_HASH160 1ae5b8495b34071eee7cc8e550d2c568b8fe1819 OP_EQUALVERIFY OP_CHECKSIG",
            "hex": "76a9141ae5b8495b34071eee7cc8e550d2c568b8fe181988ac",
            "reqSigs": 1,
            "type": "pubkeyhash",
            "addresses": [
              "LMgB2R8rQqyyVcgm1G7t3JnnVfzsEguYUx"
            ]
          }
        }, 
        {
          "value": 13.99977400,
          "n": 1,
          "scriptPubKey": {
            "asm": "OP_DUP OP_HASH160 aed28cbb44dc34e2b2e69a987757c6229f77198a OP_EQUALVERIFY OP_CHECKSIG",
            "hex": "76a914aed28cbb44dc34e2b2e69a987757c6229f77198a88ac",
            "reqSigs": 1,
            "type": "pubkeyhash",
            "addresses": [
              "LbAL4qsQogMBVPdaz7V253JD3kmY5e4Kyx"
            ]
          }
        }
      ],
      "hex": "0100000001df4d7737fcce509dc2a4deceacb7cb7e1168f71b404ce87e51e36633a5a1944d0000000069463043021f6a53dc5600f7af082475ec0912b18ea543b80576722cfe0ba27b4579ee31de02201f51d330bea8b10c71a80c00818a7631b363e8289b00f28b08af69287eec00df01210290ad7896af8763bf92bd74c145571b84782bb2ae70c5475dc0d4dcd8af933bb9ffffffff020046c323000000001976a9141ae5b8495b34071eee7cc8e550d2c568b8fe181988acb8f57153000000001976a914aed28cbb44dc34e2b2e69a987757c6229f77198a88ac00000000"
    }, 
    {
      "txid": "7cab80cb69439b8a92876d52a8e2c697aeb206421296122c69e12b8798385113",
      "hash": "7cab80cb69439b8a92876d52a8e2c697aeb206421296122c69e12b8798385113",
      "version": 2,
      "size": 800,
      "vsize": 800,
      "locktime": 1359755,
      "vin": [
        {
          "txid": "c67a21dd9baaa6e8194bd98fb8b2aeac3031005d017ceeccbf770d723e8aa9aa",
          "vout": 1,
          "scriptSig": {
            "asm": "304402201e82e39b1b4aeaac2892ede0a0e9cc37b0b8ac8fecfd542ab2002963e4b62fe302201bd987bc9a363be00ca8540a36bc9aaac75c8b52042b54031cfd1e059ef4aac3[ALL] 03d8ea4d90c1566dc01a3baea749c63ae6971655ae9bf36b9fd8a1926b499f9dae",
            "hex": "47304402201e82e39b1b4aeaac2892ede0a0e9cc37b0b8ac8fecfd542ab2002963e4b62fe302201bd987bc9a363be00ca8540a36bc9aaac75c8b52042b54031cfd1e059ef4aac3012103d8ea4d90c1566dc01a3baea749c63ae6971655ae9bf36b9fd8a1926b499f9dae"
          },
          "sequence": 4294967294
        }, 
        {
          "txid": "0969e7b3f1f25955e806166f5d3c48aea574d9b7a723823f12c6321b33e6bca1",
          "vout": 2,
          "scriptSig": {
            "asm": "3044022043e95089041faca6e637a2ba9aa851a2fea39c9797ced339c6912d8fec4cf68f02205f0b8671958ab8af0b2562ca6cc668b639f58dcb702ed804bfddab3911f3c978[ALL] 032058ae0e5514d24c24011b2ecb85716fd7b16db898c54522d30decaa6a44fd37",
            "hex": "473044022043e95089041faca6e637a2ba9aa851a2fea39c9797ced339c6912d8fec4cf68f02205f0b8671958ab8af0b2562ca6cc668b639f58dcb702ed804bfddab3911f3c9780121032058ae0e5514d24c24011b2ecb85716fd7b16db898c54522d30decaa6a44fd37"
          },
          "sequence": 4294967294
        }, 
        {
          "txid": "b2df36accddc4cc028723964ee5145c1b2edc4a11967957b37fd3b84660a9a25",
          "vout": 0,
          "scriptSig": {
            "asm": "304402203420a09b9eb030b2d1260bcca63d6dfa00b3e81ecd41fe7937fa5a5d09d491a002205b3d196ba6ca2c3192610a08991148416f05eb3a75421127be95f90cc55832c6[ALL] 03636b9654513a3ad52f11af5fa98f1a64380bbc7e3e8d9427b096efbb87515428",
            "hex": "47304402203420a09b9eb030b2d1260bcca63d6dfa00b3e81ecd41fe7937fa5a5d09d491a002205b3d196ba6ca2c3192610a08991148416f05eb3a75421127be95f90cc55832c6012103636b9654513a3ad52f11af5fa98f1a64380bbc7e3e8d9427b096efbb87515428"
          },
          "sequence": 4294967294
        }, 
        {
          "txid": "9c29179343c3eb16a9250a06084eefc12cf9e1dccc5ac740af9560f27b91d52e",
          "vout": 1,
          "scriptSig": {
            "asm": "304402204fd7c50a76c1ad531817c88282375fd49208e83de545d4dad0828b3348978e4702200d9a14ed4e7489a0fba6bceb6b8ad212f2b9c9e60bbbb08b323c9f1008826dc1[ALL] 021d3a165d6216c0eec60c1e0d8377b16845a6dfb5a3472a998bc40453e9b75b8f",
            "hex": "47304402204fd7c50a76c1ad531817c88282375fd49208e83de545d4dad0828b3348978e4702200d9a14ed4e7489a0fba6bceb6b8ad212f2b9c9e60bbbb08b323c9f1008826dc10121021d3a165d6216c0eec60c1e0d8377b16845a6dfb5a3472a998bc40453e9b75b8f"
          },
          "sequence": 4294967294
        }
      ],
      "vout": [
        {
          "value": 0.19472000,
          "n": 0,
          "scriptPubKey": {
            "asm": "OP_DUP OP_HASH160 10aa02249f8362ee5f21efc755eb6e8104bf3eb6 OP_EQUALVERIFY OP_CHECKSIG",
            "hex": "76a91410aa02249f8362ee5f21efc755eb6e8104bf3eb688ac",
            "reqSigs": 1,
            "type": "pubkeyhash",
            "addresses": [
              "LLk4jfsabqZE66Rcai1YYAL711SXX6qCpk"
            ]
          }
        }, 
        {
          "value": 2.44031600,
          "n": 1,
          "scriptPubKey": {
            "asm": "OP_DUP OP_HASH160 c1e6c6fb63bd56f126a1f0cbb231eb285e686304 OP_EQUALVERIFY OP_CHECKSIG",
            "hex": "76a914c1e6c6fb63bd56f126a1f0cbb231eb285e68630488ac",
            "reqSigs": 1,
            "type": "pubkeyhash",
            "addresses": [
              "LcuD8vT2d1Ho9LX23xNp14ZAvag4Muu1gn"
            ]
          }
        }, 
        {
          "value": 3.08971100,
          "n": 2,
          "scriptPubKey": {
            "asm": "OP_HASH160 611555d9f0d5b55c931b646805f89663cf058631 OP_EQUAL",
            "hex": "a914611555d9f0d5b55c931b646805f89663cf05863187",
            "reqSigs": 1,
            "type": "scripthash",
            "addresses": [
              "MGkVLSivpfoyCmtkvoF3qTbZSTJXTGUXoj"
            ]
          }
        }, 
        {
          "value": 0.00919606,
          "n": 3,
          "scriptPubKey": {
            "asm": "OP_DUP OP_HASH160 3304134a40bfc5de99c1ba6d4dac1f2fbe1502d4 OP_EQUALVERIFY OP_CHECKSIG",
            "hex": "76a9143304134a40bfc5de99c1ba6d4dac1f2fbe1502d488ac",
            "reqSigs": 1,
            "type": "pubkeyhash",
            "addresses": [
              "LPshcA3dAS9PogTAhMrtcv3SYnpmZp6RT3"
            ]
          }
        }, 
        {
          "value": 4.29470000,
          "n": 4,
          "scriptPubKey": {
            "asm": "OP_DUP OP_HASH160 5a5fcd673f9ed229792247d08ec1a93a822fcbd7 OP_EQUALVERIFY OP_CHECKSIG",
            "hex": "76a9145a5fcd673f9ed229792247d08ec1a93a822fcbd788ac",
            "reqSigs": 1,
            "type": "pubkeyhash",
            "addresses": [
              "LTToqwbnDYDyPo3UUihbPDdm5rscG19TVc"
            ]
          }
        }, 
        {
          "value": 0.24731500,
          "n": 5,
          "scriptPubKey": {
            "asm": "OP_DUP OP_HASH160 6fe564b14cc96bdb06b2f28c26d057b15f14d169 OP_EQUALVERIFY OP_CHECKSIG",
            "hex": "76a9146fe564b14cc96bdb06b2f28c26d057b15f14d16988ac",
            "reqSigs": 1,
            "type": "pubkeyhash",
            "addresses": [
              "LVRc52wKdpXgfXvTjjJffQUJ4QF2xwEuG7"
            ]
          }
        }
      ],
      "hex": "0200000004aaa98a3e720d77bfccee7c015d003130acaeb2b88fd94b19e8a6aa9bdd217ac6010000006a47304402201e82e39b1b4aeaac2892ede0a0e9cc37b0b8ac8fecfd542ab2002963e4b62fe302201bd987bc9a363be00ca8540a36bc9aaac75c8b52042b54031cfd1e059ef4aac3012103d8ea4d90c1566dc01a3baea749c63ae6971655ae9bf36b9fd8a1926b499f9daefeffffffa1bce6331b32c6123f8223a7b7d974a5ae483c5d6f1606e85559f2f1b3e76909020000006a473044022043e95089041faca6e637a2ba9aa851a2fea39c9797ced339c6912d8fec4cf68f02205f0b8671958ab8af0b2562ca6cc668b639f58dcb702ed804bfddab3911f3c9780121032058ae0e5514d24c24011b2ecb85716fd7b16db898c54522d30decaa6a44fd37feffffff259a0a66843bfd377b956719a1c4edb2c14551ee64397228c04cdccdac36dfb2000000006a47304402203420a09b9eb030b2d1260bcca63d6dfa00b3e81ecd41fe7937fa5a5d09d491a002205b3d196ba6ca2c3192610a08991148416f05eb3a75421127be95f90cc55832c6012103636b9654513a3ad52f11af5fa98f1a64380bbc7e3e8d9427b096efbb87515428feffffff2ed5917bf26095af40c75accdce1f92cc1ef4e08060a25a916ebc3439317299c010000006a47304402204fd7c50a76c1ad531817c88282375fd49208e83de545d4dad0828b3348978e4702200d9a14ed4e7489a0fba6bceb6b8ad212f2b9c9e60bbbb08b323c9f1008826dc10121021d3a165d6216c0eec60c1e0d8377b16845a6dfb5a3472a998bc40453e9b75b8ffeffffff06801e2901000000001976a91410aa02249f8362ee5f21efc755eb6e8104bf3eb688ac70a08b0e000000001976a914c1e6c6fb63bd56f126a1f0cbb231eb285e68630488ac5c866a120000000017a914611555d9f0d5b55c931b646805f89663cf0586318736080e00000000001976a9143304134a40bfc5de99c1ba6d4dac1f2fbe1502d488ac30319919000000001976a9145a5fcd673f9ed229792247d08ec1a93a822fcbd788ac6c5f7901000000001976a9146fe564b14cc96bdb06b2f28c26d057b15f14d16988ac8bbf1400"
    }, 
    {
      "txid": "7f1fa56fb5b860fc22664c81191d716de488e50095e9b2cd2591d12f696a7e94",
      "hash": "7f1fa56fb5b860fc22664c81191d716de488e50095e9b2cd2591d12f696a7e94",
      "version": 1,
      "size": 225,
      "vsize": 225,
      "locktime": 0,
      "vin": [
        {
          "txid": "2a3f41e6c1a9b61d3dfcd449c5588ca2c0399d16f4a11d7748a6a3abaa865b8f",
          "vout": 1,
          "scriptSig": {
            "asm": "30440220585d3b78408f84fea46d0f200a78c6def44ea117eed1758ff57a39f1365c50580220156ac4d31bd4585bfb93501f224d848530b143f8834e2a48e5eb637c76a8869f[ALL] 02fab6ab2dace8c7d363b1c7599f9e6b44ca05d9a108acfd7771a4e11fe8a37dba",
            "hex": "4730440220585d3b78408f84fea46d0f200a78c6def44ea117eed1758ff57a39f1365c50580220156ac4d31bd4585bfb93501f224d848530b143f8834e2a48e5eb637c76a8869f012102fab6ab2dace8c7d363b1c7599f9e6b44ca05d9a108acfd7771a4e11fe8a37dba"
          },
          "sequence": 4294967295
        }
      ],
      "vout": [
        {
          "value": 7.13822142,
          "n": 0,
          "scriptPubKey": {
            "asm": "OP_DUP OP_HASH160 82af2bafe1a29180c816e2e4b53b8dd9edcb8ef2 OP_EQUALVERIFY OP_CHECKSIG",
            "hex": "76a91482af2bafe1a29180c816e2e4b53b8dd9edcb8ef288ac",
            "reqSigs": 1,
            "type": "pubkeyhash",
            "addresses": [
              "LX8wxDndChkUckmVp6z8LJiaTSLU6v8fQG"
            ]
          }
        }, 
        {
          "value": 23.14444739,
          "n": 1,
          "scriptPubKey": {
            "asm": "OP_DUP OP_HASH160 6f8dd8a5a8bb8592dee5f72bd426c0c745f2c35e OP_EQUALVERIFY OP_CHECKSIG",
            "hex": "76a9146f8dd8a5a8bb8592dee5f72bd426c0c745f2c35e88ac",
            "reqSigs": 1,
            "type": "pubkeyhash",
            "addresses": [
              "LVPoCA8wYjsjPLq6qoihm9fMD1v7xAVvGc"
            ]
          }
        }
      ],
      "hex": "01000000018f5b86aaaba3a648771da1f4169d39c0a28c58c549d4fc3d1db6a9c1e6413f2a010000006a4730440220585d3b78408f84fea46d0f200a78c6def44ea117eed1758ff57a39f1365c50580220156ac4d31bd4585bfb93501f224d848530b143f8834e2a48e5eb637c76a8869f012102fab6ab2dace8c7d363b1c7599f9e6b44ca05d9a108acfd7771a4e11fe8a37dbaffffffff02be0f8c2a000000001976a91482af2bafe1a29180c816e2e4b53b8dd9edcb8ef288acc39ff389000000001976a9146f8dd8a5a8bb8592dee5f72bd426c0c745f2c35e88ac00000000"
    }, 
    {
      "txid": "e9d3094a0f0a475de9eef4ed6a9e63df87f3974a8301dccb92c109f43f5b1e99",
      "hash": "e9d3094a0f0a475de9eef4ed6a9e63df87f3974a8301dccb92c109f43f5b1e99",
      "version": 1,
      "size": 225,
      "vsize": 225,
      "locktime": 0,
      "vin": [
        {
          "txid": "f6602620ef52f0db9230d0ce5018439eda88df312505c1da44a0b603dbe9324a",
          "vout": 1,
          "scriptSig": {
            "asm": "30440220651449b59b2b447e764ca53e752975fb3969eabb3cd167a633ebaec92bb783b6022042b4db72782f60a6e98eb044372dd747ff58c3229af3fc2072fd0a56be7d85ba[ALL] 023fb2c36ac6b6804ebc8f20649f785994e035fb2531945373e9e5b1243413213b",
            "hex": "4730440220651449b59b2b447e764ca53e752975fb3969eabb3cd167a633ebaec92bb783b6022042b4db72782f60a6e98eb044372dd747ff58c3229af3fc2072fd0a56be7d85ba0121023fb2c36ac6b6804ebc8f20649f785994e035fb2531945373e9e5b1243413213b"
          },
          "sequence": 4294967295
        }
      ],
      "vout": [
        {
          "value": 0.49000000,
          "n": 0,
          "scriptPubKey": {
            "asm": "OP_DUP OP_HASH160 a2bf191a742900ff4ddd2bfe4ee01f0161f00e08 OP_EQUALVERIFY OP_CHECKSIG",
            "hex": "76a914a2bf191a742900ff4ddd2bfe4ee01f0161f00e0888ac",
            "reqSigs": 1,
            "type": "pubkeyhash",
            "addresses": [
              "La4Uf1rTGm7WQb5Nfqd2nT6yKQUsQXFSRR"
            ]
          }
        }, 
        {
          "value": 23.52476797,
          "n": 1,
          "scriptPubKey": {
            "asm": "OP_DUP OP_HASH160 7a55e601e110da48a4427f8f62be5275807ca1bc OP_EQUALVERIFY OP_CHECKSIG",
            "hex": "76a9147a55e601e110da48a4427f8f62be5275807ca1bc88ac",
            "reqSigs": 1,
            "type": "pubkeyhash",
            "addresses": [
              "LWNobwqtv3odkjkrpAW8T1nU2HBErSDV1g"
            ]
          }
        }
      ],
      "hex": "01000000014a32e9db03b6a044dac1052531df88da9e431850ced03092dbf052ef202660f6010000006a4730440220651449b59b2b447e764ca53e752975fb3969eabb3cd167a633ebaec92bb783b6022042b4db72782f60a6e98eb044372dd747ff58c3229af3fc2072fd0a56be7d85ba0121023fb2c36ac6b6804ebc8f20649f785994e035fb2531945373e9e5b1243413213bffffffff0240aeeb02000000001976a914a2bf191a742900ff4ddd2bfe4ee01f0161f00e0888ac7df2378c000000001976a9147a55e601e110da48a4427f8f62be5275807ca1bc88ac00000000"
    }, 
    {
      "txid": "4f078aebc0f4a40a12b27df20f0c26a7e9ab1582d48fff0f39c269de9a7fdb9e",
      "hash": "4f078aebc0f4a40a12b27df20f0c26a7e9ab1582d48fff0f39c269de9a7fdb9e",
      "version": 1,
      "size": 225,
      "vsize": 225,
      "locktime": 0,
      "vin": [
        {
          "txid": "5617972ac42987486f4e7580b9389dd405e30374813a3e9364e69373c7042919",
          "vout": 0,
          "scriptSig": {
            "asm": "304402206f1553b3b0388eb7ab34d95444ef4a06de31591efdbda5cab86789ecd84788fa022032ff8b3aff7e3a323d5eda56c895558f2edf4138438e59f36cd5a8ecd8662f38[ALL] 0390f05598d47e06a31b4b329904837198e7b9489ef6c8bb65b9f0506a1c390607",
            "hex": "47304402206f1553b3b0388eb7ab34d95444ef4a06de31591efdbda5cab86789ecd84788fa022032ff8b3aff7e3a323d5eda56c895558f2edf4138438e59f36cd5a8ecd8662f3801210390f05598d47e06a31b4b329904837198e7b9489ef6c8bb65b9f0506a1c390607"
          },
          "sequence": 4294967295
        }
      ],
      "vout": [
        {
          "value": 18.68977401,
          "n": 0,
          "scriptPubKey": {
            "asm": "OP_DUP OP_HASH160 b2891873ec9666f0863bc4cc4683919f7398abca OP_EQUALVERIFY OP_CHECKSIG",
            "hex": "76a914b2891873ec9666f0863bc4cc4683919f7398abca88ac",
            "reqSigs": 1,
            "type": "pubkeyhash",
            "addresses": [
              "LbVxmvTTATuuHvfnwCDBbNKtmPd5P5MmLD"
            ]
          }
        }, 
        {
          "value": 2.94000000,
          "n": 1,
          "scriptPubKey": {
            "asm": "OP_DUP OP_HASH160 f613e6928e3b166bf5650a6569e3af603a0b1185 OP_EQUALVERIFY OP_CHECKSIG",
            "hex": "76a914f613e6928e3b166bf5650a6569e3af603a0b118588ac",
            "reqSigs": 1,
            "type": "pubkeyhash",
            "addresses": [
              "Lhf6L8HJ4zANJQynmj5pQDApzk6SLtKbKb"
            ]
          }
        }
      ],
      "hex": "0100000001192904c77393e664933e3a817403e305d49d38b980754e6f488729c42a971756000000006a47304402206f1553b3b0388eb7ab34d95444ef4a06de31591efdbda5cab86789ecd84788fa022032ff8b3aff7e3a323d5eda56c895558f2edf4138438e59f36cd5a8ecd8662f3801210390f05598d47e06a31b4b329904837198e7b9489ef6c8bb65b9f0506a1c390607ffffffff02f954666f000000001976a914b2891873ec9666f0863bc4cc4683919f7398abca88ac80158611000000001976a914f613e6928e3b166bf5650a6569e3af603a0b118588ac00000000"
    }, 
    {
      "txid": "7f901c14ac0848225fb8bfd58de82ae6d89ffaa61e15de0cca8e39a56c76dc0a",
      "hash": "7f901c14ac0848225fb8bfd58de82ae6d89ffaa61e15de0cca8e39a56c76dc0a",
      "version": 1,
      "size": 226,
      "vsize": 226,
      "locktime": 0,
      "vin": [
        {
          "txid": "c61400adede4f2716f48b688f2688167c3a435b29c9a42e1540160a367b08f35",
          "vout": 1,
          "scriptSig": {
            "asm": "3045022100ef879bfa5663fd8b3d93b1c4b434ab806c94baf87e54ba1de9dc87b99ad381d002202821ad08b64632633b79703bb5148a3b7ee6da048aead206b73bf7487c79480a[ALL] 03c6a43821d727122f13d977238e622f3dc6d012f9ef034f68d7f0880b114cfa4c",
            "hex": "483045022100ef879bfa5663fd8b3d93b1c4b434ab806c94baf87e54ba1de9dc87b99ad381d002202821ad08b64632633b79703bb5148a3b7ee6da048aead206b73bf7487c79480a012103c6a43821d727122f13d977238e622f3dc6d012f9ef034f68d7f0880b114cfa4c"
          },
          "sequence": 4294967295
        }
      ],
      "vout": [
        {
          "value": 18.33004794,
          "n": 0,
          "scriptPubKey": {
            "asm": "OP_DUP OP_HASH160 42cd164edae145042f3fa0cccd248104a82beb85 OP_EQUALVERIFY OP_CHECKSIG",
            "hex": "76a91442cd164edae145042f3fa0cccd248104a82beb8588ac",
            "reqSigs": 1,
            "type": "pubkeyhash",
            "addresses": [
              "LRKAYaVE9Xqe1Pgjyis29mBVDtur9LkdPc"
            ]
          }
        }, 
        {
          "value": 1.40906526,
          "n": 1,
          "scriptPubKey": {
            "asm": "OP_DUP OP_HASH160 a6a5f9cd1ab7959c3f14344d2a8423cf57464f6c OP_EQUALVERIFY OP_CHECKSIG",
            "hex": "76a914a6a5f9cd1ab7959c3f14344d2a8423cf57464f6c88ac",
            "reqSigs": 1,
            "type": "pubkeyhash",
            "addresses": [
              "LaR7GFqbAH3ayuDyDTUpg9PsdozpBCfuge"
            ]
          }
        }
      ],
      "hex": "0100000001358fb067a3600154e1429a9cb235a4c3678168f288b6486f71f2e4edad0014c6010000006b483045022100ef879bfa5663fd8b3d93b1c4b434ab806c94baf87e54ba1de9dc87b99ad381d002202821ad08b64632633b79703bb5148a3b7ee6da048aead206b73bf7487c79480a012103c6a43821d727122f13d977238e622f3dc6d012f9ef034f68d7f0880b114cfa4cffffffff02fa6e416d000000001976a91442cd164edae145042f3fa0cccd248104a82beb8588ac1e106608000000001976a914a6a5f9cd1ab7959c3f14344d2a8423cf57464f6c88ac00000000"
    }, 
    {
      "txid": "ec33e1c9d30b96ddc43b196ae0aee674ea9169837f268f3a1894974832c7f637",
      "hash": "ec33e1c9d30b96ddc43b196ae0aee674ea9169837f268f3a1894974832c7f637",
      "version": 1,
      "size": 226,
      "vsize": 226,
      "locktime": 0,
      "vin": [
        {
          "txid": "39eff8f87df22b4e4e0c284dffa2ec9d0a4b5cadc74ea34c822d6f611703c7dc",
          "vout": 0,
          "scriptSig": {
            "asm": "3045022100f4da356edba404e0adba053364b66cf380aae5b0cdba2eadd35f37e0454cefd402202847f59ee93bd20e7d024822b6686965eaa1774d709848920fca7b859907f7b8[ALL] 03373035e73d2d235345a8d7f882283d00d206463336d33efb9770f225b99d2b04",
            "hex": "483045022100f4da356edba404e0adba053364b66cf380aae5b0cdba2eadd35f37e0454cefd402202847f59ee93bd20e7d024822b6686965eaa1774d709848920fca7b859907f7b8012103373035e73d2d235345a8d7f882283d00d206463336d33efb9770f225b99d2b04"
          },
          "sequence": 4294967295
        }
      ],
      "vout": [
        {
          "value": 1.41538329,
          "n": 0,
          "scriptPubKey": {
            "asm": "OP_DUP OP_HASH160 78b4fc2fa99874c2d1f251437936069a16bd6bda OP_EQUALVERIFY OP_CHECKSIG",
            "hex": "76a91478b4fc2fa99874c2d1f251437936069a16bd6bda88ac",
            "reqSigs": 1,
            "type": "pubkeyhash",
            "addresses": [
              "LWECAJEovXMRHsAB5qeZSe69TkVubgYkyT"
            ]
          }
        }, 
        {
          "value": 22.55516471,
          "n": 1,
          "scriptPubKey": {
            "asm": "OP_DUP OP_HASH160 8a8964e93362ae4f7c4419660fbb5bfe30c42800 OP_EQUALVERIFY OP_CHECKSIG",
            "hex": "76a9148a8964e93362ae4f7c4419660fbb5bfe30c4280088ac",
            "reqSigs": 1,
            "type": "pubkeyhash",
            "addresses": [
              "LXrU7113RnGMFQqT3HoSUjqrZDoVvHY24v"
            ]
          }
        }
      ],
      "hex": "0100000001dcc70317616f2d824ca34ec7ad5c4b0a9deca2ff4d280c4e4e2bf27df8f8ef39000000006b483045022100f4da356edba404e0adba053364b66cf380aae5b0cdba2eadd35f37e0454cefd402202847f59ee93bd20e7d024822b6686965eaa1774d709848920fca7b859907f7b8012103373035e73d2d235345a8d7f882283d00d206463336d33efb9770f225b99d2b04ffffffff0219b46f08000000001976a91478b4fc2fa99874c2d1f251437936069a16bd6bda88ac37737086000000001976a9148a8964e93362ae4f7c4419660fbb5bfe30c4280088ac00000000"
    }, 
    {
      "txid": "44bf1d15f6d63d36cdf6c28ed706e3030aa98e2bff48f390082813ed10911d4f",
      "hash": "44bf1d15f6d63d36cdf6c28ed706e3030aa98e2bff48f390082813ed10911d4f",
      "version": 2,
      "size": 226,
      "vsize": 226,
      "locktime": 1359755,
      "vin": [
        {
          "txid": "9ca6382fed0e731563141288f6ad585270ad679519a6916041b93926e60df6a3",
          "vout": 16,
          "scriptSig": {
            "asm": "3045022100a83532bcde31aa07e81a6f77598ba5b66600fcacb03786bb5351bd44abb68acb0220553ca0c77325a491fdb301b19bd3750b9ffa59d1c4f79c697fd00f63816f578c[ALL] 03a8905ec86e5d9e01822fb7b7df64dbd05dad22c07e6af0822b49ca1734dd237d",
            "hex": "483045022100a83532bcde31aa07e81a6f77598ba5b66600fcacb03786bb5351bd44abb68acb0220553ca0c77325a491fdb301b19bd3750b9ffa59d1c4f79c697fd00f63816f578c012103a8905ec86e5d9e01822fb7b7df64dbd05dad22c07e6af0822b49ca1734dd237d"
          },
          "sequence": 4294967294
        }
      ],
      "vout": [
        {
          "value": 1.00000000,
          "n": 0,
          "scriptPubKey": {
            "asm": "OP_DUP OP_HASH160 7723ab3225c08809bdc07bde96bd5892df7e5466 OP_EQUALVERIFY OP_CHECKSIG",
            "hex": "76a9147723ab3225c08809bdc07bde96bd5892df7e546688ac",
            "reqSigs": 1,
            "type": "pubkeyhash",
            "addresses": [
              "LW5uQM8e2GaanHKw8MCpBdxYEkSX3XN651"
            ]
          }
        }, 
        {
          "value": 1.24286947,
          "n": 1,
          "scriptPubKey": {
            "asm": "OP_DUP OP_HASH160 776ec5a2531e6db85e1938072e1bada3cdf82375 OP_EQUALVERIFY OP_CHECKSIG",
            "hex": "76a914776ec5a2531e6db85e1938072e1bada3cdf8237588ac",
            "reqSigs": 1,
            "type": "pubkeyhash",
            "addresses": [
              "LW7TNccjeuta1owajTCW4QhhZ9h1dZ5xSs"
            ]
          }
        }
      ],
      "hex": "0200000001a3f60de62639b9416091a6199567ad705258adf68812146315730eed2f38a69c100000006b483045022100a83532bcde31aa07e81a6f77598ba5b66600fcacb03786bb5351bd44abb68acb0220553ca0c77325a491fdb301b19bd3750b9ffa59d1c4f79c697fd00f63816f578c012103a8905ec86e5d9e01822fb7b7df64dbd05dad22c07e6af0822b49ca1734dd237dfeffffff0200e1f505000000001976a9147723ab3225c08809bdc07bde96bd5892df7e546688ace3776807000000001976a914776ec5a2531e6db85e1938072e1bada3cdf8237588ac8bbf1400"
    }, 
    {
      "txid": "d5824e8dd2841a9217fb980cf4e517ce8e73cfc9aa6f05162b38c25ad364d0ba",
      "hash": "d5824e8dd2841a9217fb980cf4e517ce8e73cfc9aa6f05162b38c25ad364d0ba",
      "version": 1,
      "size": 226,
      "vsize": 226,
      "locktime": 0,
      "vin": [
        {
          "txid": "ce3ca5c5600b445721b93bda952bd30494e6f38123cd8edeab2feb11273ac5df",
          "vout": 0,
          "scriptSig": {
            "asm": "3045022100f0f069ca644a253290098474e28a7be2a300092743f9caa362022247a107cbf102203fc49e5dbe15369bf2cbe5b43eb5e94f25ba58728012669d62fd544c94f5c750[ALL] 0284e90ef01eb318d5234a2af48cf737c643fd1c51801aecddbaaf93dd67ec57d8",
            "hex": "483045022100f0f069ca644a253290098474e28a7be2a300092743f9caa362022247a107cbf102203fc49e5dbe15369bf2cbe5b43eb5e94f25ba58728012669d62fd544c94f5c75001210284e90ef01eb318d5234a2af48cf737c643fd1c51801aecddbaaf93dd67ec57d8"
          },
          "sequence": 4294967295
        }
      ],
      "vout": [
        {
          "value": 9.00000000,
          "n": 0,
          "scriptPubKey": {
            "asm": "OP_DUP OP_HASH160 132816e0c4dd5bcc7884ac5a6a284dadac90e4ae OP_EQUALVERIFY OP_CHECKSIG",
            "hex": "76a914132816e0c4dd5bcc7884ac5a6a284dadac90e4ae88ac",
            "reqSigs": 1,
            "type": "pubkeyhash",
            "addresses": [
              "LLyF8KGo6fUFBi8EGXgCt4GkZNjaEDPPwV"
            ]
          }
        }, 
        {
          "value": 25.46033474,
          "n": 1,
          "scriptPubKey": {
            "asm": "OP_DUP OP_HASH160 a6d1a2bd4b7756aed925c1ca85af7f14657949bc OP_EQUALVERIFY OP_CHECKSIG",
            "hex": "76a914a6d1a2bd4b7756aed925c1ca85af7f14657949bc88ac",
            "reqSigs": 1,
            "type": "pubkeyhash",
            "addresses": [
              "LaS1ZoPs5ioZ6NWjZEx7CEuCHxTxdijB6M"
            ]
          }
        }
      ],
      "hex": "0100000001dfc53a2711eb2fabde8ecd2381f3e69404d32b95da3bb92157440b60c5a53cce000000006b483045022100f0f069ca644a253290098474e28a7be2a300092743f9caa362022247a107cbf102203fc49e5dbe15369bf2cbe5b43eb5e94f25ba58728012669d62fd544c94f5c75001210284e90ef01eb318d5234a2af48cf737c643fd1c51801aecddbaaf93dd67ec57d8ffffffff0200e9a435000000001976a914132816e0c4dd5bcc7884ac5a6a284dadac90e4ae88ac4263c197000000001976a914a6d1a2bd4b7756aed925c1ca85af7f14657949bc88ac00000000"
    }, 
    {
      "txid": "7285a7db71db4b700ee3307d3b3649ba7fef2f40ba764be16e3e9baae5c11be9",
      "hash": "7285a7db71db4b700ee3307d3b3649ba7fef2f40ba764be16e3e9baae5c11be9",
      "version": 1,
      "size": 224,
      "vsize": 224,
      "locktime": 1359755,
      "vin": [
        {
          "txid": "e24a72230880d954093ee1eb33d60c577d0edbe5af3149d8cfd994bd38b5ce1b",
          "vout": 0,
          "scriptSig": {
            "asm": "3045022100fff972573c915ecfc02d4c2e76fca75540905f9a21ac3379e8c812ba0066daf70220478f13a4d1dde812d4ca00dadb25f815cab70bb16ef736098df2f21869225783[ALL] 03335a3ea4fc2d5f4380f0c2d85314a46e5ce88417398c4658c24a10e0e9b5ecd0",
            "hex": "483045022100fff972573c915ecfc02d4c2e76fca75540905f9a21ac3379e8c812ba0066daf70220478f13a4d1dde812d4ca00dadb25f815cab70bb16ef736098df2f21869225783012103335a3ea4fc2d5f4380f0c2d85314a46e5ce88417398c4658c24a10e0e9b5ecd0"
          },
          "sequence": 4294967294
        }
      ],
      "vout": [
        {
          "value": 0.49850863,
          "n": 0,
          "scriptPubKey": {
            "asm": "OP_HASH160 538fd062918d1aa3ce899fa24ffc647d206adcb2 OP_EQUAL",
            "hex": "a914538fd062918d1aa3ce899fa24ffc647d206adcb287",
            "reqSigs": 1,
            "type": "scripthash",
            "addresses": [
              "MFWzbixmbYPYnC4d5QHkaazqUS8pW3Q15G"
            ]
          }
        }, 
        {
          "value": 0.01043957,
          "n": 1,
          "scriptPubKey": {
            "asm": "OP_DUP OP_HASH160 25087ae66bc933ef97688434850e5b1f38e39929 OP_EQUALVERIFY OP_CHECKSIG",
            "hex": "76a91425087ae66bc933ef97688434850e5b1f38e3992988ac",
            "reqSigs": 1,
            "type": "pubkeyhash",
            "addresses": [
              "LNbmRWwAgJ9uXvbz3a8ygwdnRgg6wiRvFx"
            ]
          }
        }
      ],
      "hex": "01000000011bceb538bd94d9cfd84931afe5db0e7d570cd633ebe13e0954d9800823724ae2000000006b483045022100fff972573c915ecfc02d4c2e76fca75540905f9a21ac3379e8c812ba0066daf70220478f13a4d1dde812d4ca00dadb25f815cab70bb16ef736098df2f21869225783012103335a3ea4fc2d5f4380f0c2d85314a46e5ce88417398c4658c24a10e0e9b5ecd0feffffff02efa9f8020000000017a914538fd062918d1aa3ce899fa24ffc647d206adcb287f5ed0f00000000001976a91425087ae66bc933ef97688434850e5b1f38e3992988ac8bbf1400"
    }
  ],
  "time": 1517327811,
  "mediantime": 1517327161,
  "nonce": 3406399213,
  "bits": "1a042eae",
  "difficulty": 4011378.762614286,
  "chainwork": "0000000000000000000000000000000000000000000000344d8830335d70911c",
  "previousblockhash": "d18efddf611ae57959e9dc1ca8c23ea67ce2e50230e2e441e36b92063e252fb4",
  "nextblockhash": "7134f1925e306649ffbc1f9cce2bc33839c98fe11a414d324ac80213ae4025e9"
}
