{
  "hash": "53657766cea69539bd764336f2bdb62f8d7f0690f76923e881a38c7759d2c012",
  "confirmations": 3448,
  "strippedsize": 3443,
  "size": 5672,
  "weight": 16001,
  "height": 1357547,
  "version": 536870912,
  "versionHex": "20000000",
  "merkleroot": "63ed691efb193dd01439156dd6abf9face1e1b68b897fb305cc9d0458592ae3a",
  "tx": [
    {
      "txid": "9e2c8304a0cf9572b78d92f668fcccd62398dcd9f3fb62775fbfdd69c52b3d9c",
      "hash": "e222c65b69524d705df3fad01e759ff644b2f0828c3a2bcf3ef58b94483d07c3",
      "version": 1,
      "size": 244,
      "vsize": 217,
      "locktime": 0,
      "vin": [
        {
          "coinbase": "03ebb6140489d66b5a080599e29c03000000fabe6d6d34e67faa348b518dffcd20caae00f36369b2d4b8f1770d395c65a468a0f8b3df40000000000000000d2f6e6f64655374726174756d2f",
          "sequence": 0
        }
      ],
      "vout": [
        {
          "value": 25.00958200,
          "n": 0,
          "scriptPubKey": {
            "asm": "OP_DUP OP_HASH160 0c617fdb2ea42aed30a509595ee21ba3f6688db0 OP_EQUALVERIFY OP_CHECKSIG",
            "hex": "76a9140c617fdb2ea42aed30a509595ee21ba3f6688db088ac",
            "reqSigs": 1,
            "type": "pubkeyhash",
            "addresses": [
              "LLMRAtr3qBje2ySEa3CnZ55LA4TQMWnRY3"
            ]
          }
        }, 
        {
          "value": 0.00000000,
          "n": 1,
          "scriptPubKey": {
            "asm": "OP_RETURN aa21a9ed1fdc0c94c215134ce5c20ea025fd016fbfda6aad9ab14c6d64bd7d5a9553a9fd",
            "hex": "6a24aa21a9ed1fdc0c94c215134ce5c20ea025fd016fbfda6aad9ab14c6d64bd7d5a9553a9fd",
            "type": "nulldata"
          }
        }
      ],
      "hex": "010000000001010000000000000000000000000000000000000000000000000000000000000000ffffffff4c03ebb6140489d66b5a080599e29c03000000fabe6d6d34e67faa348b518dffcd20caae00f36369b2d4b8f1770d395c65a468a0f8b3df40000000000000000d2f6e6f64655374726174756d2f0000000002f8971195000000001976a9140c617fdb2ea42aed30a509595ee21ba3f6688db088ac0000000000000000266a24aa21a9ed1fdc0c94c215134ce5c20ea025fd016fbfda6aad9ab14c6d64bd7d5a9553a9fd0120000000000000000000000000000000000000000000000000000000000000000000000000"
    }, 
    {
      "txid": "f226fb6bf38764f5d5891a93847e8b54450d01b8a03480d0609f33ab19f99f9d",
      "hash": "babf3aeee7226811cb95b8f01cc2c43318dddf9ec2e3d520f2269d91a676412f",
      "version": 1,
      "size": 3548,
      "vsize": 1904,
      "locktime": 0,
      "vin": [
        {
          "txid": "6ec151f1df26a4817f34782e922b114960c1d4efa2d28a6ef3aa27f42867991b",
          "vout": 156,
          "scriptSig": {
            "asm": "00209c746dd1fbe141bd381391e8e0a8c3c7c7618c7d59f6d7121fe433bce1963648",
            "hex": "2200209c746dd1fbe141bd381391e8e0a8c3c7c7618c7d59f6d7121fe433bce1963648"
          },
          "txinwitness": [
            "", 
            "30440220332ff7a38f32465e70d3c28a55decc0f844d9d0245b672d5d7ecd3e11210769902207f2d0a01f3baaafba46c7f055cec84402a796db9e03fd93946682f267b8f2d8c01", 
            "304402205bd0f9e7bd7a57ffc4afebe442c70b0058252aeca03a483b95e151cc69584690022002742110694344244298a65bfbc3c5d9706266d3fd70b4fb778807a01329504b01", 
            "522102d9a275e186abcbb7be736585d4e90f54d5673b5733ccb83f721b355c359ccd3221033e339f23de16ed119edcee58aca20fd6d3d51ede956c346181653d1926aaba3152ae"
          ],
          "sequence": 4294967295
        }, 
        {
          "txid": "6f35c25384876953fcde60779ef872d1c142e613f97bae48dddec4e40d1e8f3a",
          "vout": 0,
          "scriptSig": {
            "asm": "00200b1e02f28cd0897a42083ea9973107c3d35213af36185023c9ab2459c5820b46",
            "hex": "2200200b1e02f28cd0897a42083ea9973107c3d35213af36185023c9ab2459c5820b46"
          },
          "txinwitness": [
            "", 
            "3045022100fab49517d573799b85ae87a3e50677c6fa31ec4aa652b5d09303ad9645d2ace70220075b147e02e980ce4574e5145481538f1daaab75cbf7445ad9fe7b04ba3c888d01", 
            "304402204b8e5add689a9515baf9d3485f49a19222eda9ea715fa5c5d1752c1f3d29d505022062af72d3408fa7d9f893f3399d91f4b289a7257220eb196bf459bf191f70ef3e01", 
            "522103c8305aa66ec9c36a7c0dca28b59bd838ea6188c4619916a6c84b34884d468da821033e339f23de16ed119edcee58aca20fd6d3d51ede956c346181653d1926aaba3152ae"
          ],
          "sequence": 4294967295
        }, 
        {
          "txid": "a72a8542666ff47982e88a9eca0ac1ee3af5c736f6f513ec78af70cecee8964b",
          "vout": 1,
          "scriptSig": {
            "asm": "00200b1e02f28cd0897a42083ea9973107c3d35213af36185023c9ab2459c5820b46",
            "hex": "2200200b1e02f28cd0897a42083ea9973107c3d35213af36185023c9ab2459c5820b46"
          },
          "txinwitness": [
            "", 
            "304402206db8b7f7128ce287e609d459793d342f0ff8a06c230b092247f98d1b39207ebe022019934950ecf1e81ec15c3068075e1934cf42bffa0c6280cfd7cdbbb64b0f785001", 
            "30450221008f1cbf4ffe9e2cadb2349b7196f27f53d3a5d39cf0ed14a4d397ab9a7a3c591f02204c0ea8426713c6841bea443d8ff853e4931048b83672f03d065a75d67202453001", 
            "522103c8305aa66ec9c36a7c0dca28b59bd838ea6188c4619916a6c84b34884d468da821033e339f23de16ed119edcee58aca20fd6d3d51ede956c346181653d1926aaba3152ae"
          ],
          "sequence": 4294967295
        }, 
        {
          "txid": "01d189b4a9a7c45da42170fefebcae04d5fac5c4206afed0c321b81c6685dcdd",
          "vout": 0,
          "scriptSig": {
            "asm": "0020d894e6869c3c19959f50e3c3b39b06b34436016b61bc3d3aa383eacb00f226f5",
            "hex": "220020d894e6869c3c19959f50e3c3b39b06b34436016b61bc3d3aa383eacb00f226f5"
          },
          "txinwitness": [
            "", 
            "3044022017c5d2164310cfa872d8c9549d1a0027ba64887e36f51fbce851c8219fa5185502207fcff0e99975c0c7e259ad40a47c9b5c77630048c5bc7bb8d7f0e0a39e7875bb01", 
            "3044022060154534d88501c102a6032a755e290c0b431c4b6889218903d620041095bdfd02204769e19860ee85b448641df353beb2d0b6fcb737381ca05026f57a386ee39ca801", 
            "5221038eb8421a14970971d6c5d26b1b51c12046fffdee15cf8c960da2ee4604f3cf2321033e339f23de16ed119edcee58aca20fd6d3d51ede956c346181653d1926aaba3152ae"
          ],
          "sequence": 4294967295
        }, 
        {
          "txid": "cfeb332eeade23f089271f28a154b53039047e9e6a8babbdb77a02f362252179",
          "vout": 1,
          "scriptSig": {
            "asm": "00202a3acd99757eb86a50a911d57c6551a803a4b90a10d1f67a13b0b529bab2eec9",
            "hex": "2200202a3acd99757eb86a50a911d57c6551a803a4b90a10d1f67a13b0b529bab2eec9"
          },
          "txinwitness": [
            "", 
            "3045022100e8b80ba98a8ebaa4f0703a5c302acb37377491ea9a8db9ef5c6b7ff8846a7e4802205fc1c7692e6e83e5c89721c3e5b1bdc9fbea329164b4996b14c98e8053e7365a01", 
            "3044022071ed6eb61819299ee9643325b009693ce0cd0e51ff1b1430cb90b9aeb597754402201a865e6293d15ab48447716837ae2420eb252456e3b5443af96cd556e7362a5b01", 
            "522103aa6e6d19e7c2620aa465ad752399afcf2193d8a628372fbbb8bf2720c07cb0e921033e339f23de16ed119edcee58aca20fd6d3d51ede956c346181653d1926aaba3152ae"
          ],
          "sequence": 4294967295
        }, 
        {
          "txid": "34ac0deb116aee9957cae6e15d04e61fc0fbdc1447b303ddb540b43514f0c096",
          "vout": 38,
          "scriptSig": {
            "asm": "0020eceb5049962a0a47f78667bb8b766f4c5f17f3c8d41b2edddfe01bc3e71b9b17",
            "hex": "220020eceb5049962a0a47f78667bb8b766f4c5f17f3c8d41b2edddfe01bc3e71b9b17"
          },
          "txinwitness": [
            "", 
            "304402204cd5f6fe2c7569d42697a0c2f30fdcec25421c851ad111775b2cf5ddbc4ca71002207f0338a995c55e9962345df87181b1dd2544ae9293fd6a79bdc126124caba36a01", 
            "30440220262b4065a7629717edccf997388adc12d68c97043c48fbe96bd3851a8622b5f602200a053baed6309535800dcea26230f58ed9828567f60f4d030c4964a1b6c6419701", 
            "522102df842331cc5a946a835fa1d5b19b39572ddc7ec2ea6241870f737066ca78e0b121033e339f23de16ed119edcee58aca20fd6d3d51ede956c346181653d1926aaba3152ae"
          ],
          "sequence": 4294967295
        }, 
        {
          "txid": "c407f017883a50b637be01a5abcd3f961ca4e60a8b491831cc60cdc2cc652bd3",
          "vout": 1,
          "scriptSig": {
            "asm": "0020a8385467fb4f6fb7af0b42344d51a53c39db409daf05c7318181f407db980cda",
            "hex": "220020a8385467fb4f6fb7af0b42344d51a53c39db409daf05c7318181f407db980cda"
          },
          "txinwitness": [
            "", 
            "3045022100f982ea92ccd307beba426799b9e296fb52b6f0c487c54f4c56363861192dc74d022020a5281b11ae81e49b1b9c6da24ecda9e246c51cba747c3286340e6841e3a6fa01", 
            "3045022100e2f98608dfabf527b2ece01150bfbd83e48b4037ed7f1850d4329a1f3ab75917022061a9e42231beb84a08784e81b13df7ee0fe64cb7373c78771543cb8fa280b92501", 
            "5221036fb4c236823f7dec95cfa6e3c87e29d660ae4f232f11c7df01623a0f0237513021033e339f23de16ed119edcee58aca20fd6d3d51ede956c346181653d1926aaba3152ae"
          ],
          "sequence": 4294967295
        }, 
        {
          "txid": "2f22b372d544a76ffe2863c0302cad931ea49cfddbd0b135151c49302aca7f0a",
          "vout": 0,
          "scriptSig": {
            "asm": "0020a0577949b2ae63dad295ee8807ff6d0a28408e83f966a1d67d813b4c7ab7a41b",
            "hex": "220020a0577949b2ae63dad295ee8807ff6d0a28408e83f966a1d67d813b4c7ab7a41b"
          },
          "txinwitness": [
            "", 
            "304402200484535a6f01fc6bb6bf58cdd40cbe614dfac9f4d441cbf71974aab8e271dc7002206f6258420c235368ba6f176437ac1652d7b6b0b482490c70871e90dd9d9d044101", 
            "30440220795c88e098b69019bb159834bb6f47d5bce4fcd43bb73c108d9b681f780d7ed302205c18d5ffe3a04270024409a93fd1f002eabe9fd9ae31f5348fe7d62b5b8efaa901", 
            "522102f7d230f6842aba9b9c24c8e20d890b87746a3e32921a352a0807693c63ae178021033e339f23de16ed119edcee58aca20fd6d3d51ede956c346181653d1926aaba3152ae"
          ],
          "sequence": 4294967295
        }, 
        {
          "txid": "e08449a1bc798ba63452ef1bfbd49e583af6d5506958ab91b99aef4cfe70d7ab",
          "vout": 12,
          "scriptSig": {
            "asm": "0020ae9b79d18e1a5d33171672f6d144a97cc11849f2875a68421a060943d36660ae",
            "hex": "220020ae9b79d18e1a5d33171672f6d144a97cc11849f2875a68421a060943d36660ae"
          },
          "txinwitness": [
            "", 
            "30450221008564f2faae49e8934aaecbd7adc1865ad1164dfdf013c1664aee536ec5437d7a02202615d142ddbf5fd60f67600bcc708bd8c03d877997a5f78e744f329baa77bdac01", 
            "3045022100b2d9ac40c28cee409493ba8d26644133b00344a5b0754bb80c784bac5b533e7a02207506dec44e419cfacd73f1f9e6d666a4c3c8dfc5b7f3f6a28823a7bd61dcdb3501", 
            "522102e9e3390122ae551dc2e845cb7b42af544c47d9a1393c9c316de3f43b0860017521033e339f23de16ed119edcee58aca20fd6d3d51ede956c346181653d1926aaba3152ae"
          ],
          "sequence": 4294967295
        }, 
        {
          "txid": "653816df6782d7c4f479fb0531fb080c7a5afa9c2f066e04bbecfee07edb29b0",
          "vout": 8,
          "scriptSig": {
            "asm": "0 3045022100985857be94ff3337e81e461e3a25038d0d364eefa6f5fece55ca171983168f3e022043549ae8f8f4a62648ec53ba324da035ee43fa48c14aaa8f6b16c0a8c1bbd709[ALL] 3045022100ad9b7a75ede28057ed54a9613e75153267db2ab0e7d0b6540935632912e251e30220068a8b49d102e8d26bee48adfcab859834ef9fd363c8e6a5321f756d91b618a9[ALL] 5221039db2a17d06a52caa1aa4186caf272cc491bfd6c1cb418f5c45b93169a457a73f21033e339f23de16ed119edcee58aca20fd6d3d51ede956c346181653d1926aaba3152ae",
            "hex": "00483045022100985857be94ff3337e81e461e3a25038d0d364eefa6f5fece55ca171983168f3e022043549ae8f8f4a62648ec53ba324da035ee43fa48c14aaa8f6b16c0a8c1bbd70901483045022100ad9b7a75ede28057ed54a9613e75153267db2ab0e7d0b6540935632912e251e30220068a8b49d102e8d26bee48adfcab859834ef9fd363c8e6a5321f756d91b618a901475221039db2a17d06a52caa1aa4186caf272cc491bfd6c1cb418f5c45b93169a457a73f21033e339f23de16ed119edcee58aca20fd6d3d51ede956c346181653d1926aaba3152ae"
          },
          "sequence": 4294967295
        }, 
        {
          "txid": "16804d7a299fd1be35e2be4a698ca285e8c0c665fb61aa158ec6ac8d90e394cd",
          "vout": 6,
          "scriptSig": {
            "asm": "00200bde3a2fd98fd44603569981a46bf016da6ad1480bcca80f0a54556b3a5bb843",
            "hex": "2200200bde3a2fd98fd44603569981a46bf016da6ad1480bcca80f0a54556b3a5bb843"
          },
          "txinwitness": [
            "", 
            "3045022100a3b979482ab0b7410ee26aaee0b7f9257dc77fc2aa7fc1d06dd9c873d921847502201a48610a91a79baf868d29283e42d3743c58ed59d66806cf80efd08cc0d50ad601", 
            "3045022100f11320d8e008dffb485af7cc08f66bb606d7b5e408c5775abb6af20fb101ecb6022018e82e28e60327e80a1fa236bb852d99b1628b50296ac9aeeb0bec6336aff73d01", 
            "522102533a9444e12e11e74a18890e62345688ed5bc3f7981e51eb6a89de6f5117ba4a21033e339f23de16ed119edcee58aca20fd6d3d51ede956c346181653d1926aaba3152ae"
          ],
          "sequence": 4294967295
        }, 
        {
          "txid": "2d6701a501443693722ff5b84f8c2ac2d17998c2ad00c1f17a58ed0b8020fbce",
          "vout": 13,
          "scriptSig": {
            "asm": "0 3044022010af465814c669a72aca3d157ef4f0ab5e5eecca8f2ccc1d4b55b82e8c536e5f02202f0c90aeca43d2c9d6f9ca9cbd47d327a04232c34ca8376476cdc97627ee7cdb[ALL] 3045022100ea5ab7c81b3537fe5c7e0d5c6d4f0271b7e43c1706d38c8b1f3d89b4c66ae05b02207a939bd0f62de36f99feaba5edf12a7edcac3282ae9d62f2123de3c9f1fdabf2[ALL] 5221039db2a17d06a52caa1aa4186caf272cc491bfd6c1cb418f5c45b93169a457a73f21033e339f23de16ed119edcee58aca20fd6d3d51ede956c346181653d1926aaba3152ae",
            "hex": "00473044022010af465814c669a72aca3d157ef4f0ab5e5eecca8f2ccc1d4b55b82e8c536e5f02202f0c90aeca43d2c9d6f9ca9cbd47d327a04232c34ca8376476cdc97627ee7cdb01483045022100ea5ab7c81b3537fe5c7e0d5c6d4f0271b7e43c1706d38c8b1f3d89b4c66ae05b02207a939bd0f62de36f99feaba5edf12a7edcac3282ae9d62f2123de3c9f1fdabf201475221039db2a17d06a52caa1aa4186caf272cc491bfd6c1cb418f5c45b93169a457a73f21033e339f23de16ed119edcee58aca20fd6d3d51ede956c346181653d1926aaba3152ae"
          },
          "sequence": 4294967295
        }
      ],
      "vout": [
        {
          "value": 25.15248488,
          "n": 0,
          "scriptPubKey": {
            "asm": "OP_DUP OP_HASH160 8c184560f54552e065fe1a43a555ab79bb9fd40b OP_EQUALVERIFY OP_CHECKSIG",
            "hex": "76a9148c184560f54552e065fe1a43a555ab79bb9fd40b88ac",
            "reqSigs": 1,
            "type": "pubkeyhash",
            "addresses": [
              "LXzhwSyYhTxZt4piVs7KvYPAWKDdXvMTNo"
            ]
          }
        }, 
        {
          "value": 0.04222400,
          "n": 1,
          "scriptPubKey": {
            "asm": "OP_HASH160 fb883906000cd19a2cff9c97119cac9f6d0a6c01 OP_EQUAL",
            "hex": "a914fb883906000cd19a2cff9c97119cac9f6d0a6c0187",
            "reqSigs": 1,
            "type": "scripthash",
            "addresses": [
              "MWq92W5DxE74LtRbKpDRrzG9pKo35WcMfr"
            ]
          }
        }
      ],
      "hex": "0100000000010c1b996728f427aaf36e8ad2a2efd4c16049112b922e78347f81a426dff151c16e9c000000232200209c746dd1fbe141bd381391e8e0a8c3c7c7618c7d59f6d7121fe433bce1963648ffffffff3a8f1e0de4c4dedd48ae7bf913e642c1d172f89e7760defc5369878453c2356f00000000232200200b1e02f28cd0897a42083ea9973107c3d35213af36185023c9ab2459c5820b46ffffffff4b96e8cece70af78ec13f5f636c7f53aeec10aca9e8ae88279f46f6642852aa701000000232200200b1e02f28cd0897a42083ea9973107c3d35213af36185023c9ab2459c5820b46ffffffffdddc85661cb821c3d0fe6a20c4c5fad504aebcfefe7021a45dc4a7a9b489d1010000000023220020d894e6869c3c19959f50e3c3b39b06b34436016b61bc3d3aa383eacb00f226f5ffffffff79212562f3027ab7bdab8b6a9e7e043930b554a1281f2789f023deea2e33ebcf01000000232200202a3acd99757eb86a50a911d57c6551a803a4b90a10d1f67a13b0b529bab2eec9ffffffff96c0f01435b440b5dd03b34714dcfbc01fe6045de1e6ca5799ee6a11eb0dac342600000023220020eceb5049962a0a47f78667bb8b766f4c5f17f3c8d41b2edddfe01bc3e71b9b17ffffffffd32b65ccc2cd60cc3118498b0ae6a41c963fcdaba501be37b6503a8817f007c40100000023220020a8385467fb4f6fb7af0b42344d51a53c39db409daf05c7318181f407db980cdaffffffff0a7fca2a30491c1535b1d0dbfd9ca41e93ad2c30c06328fe6fa744d572b3222f0000000023220020a0577949b2ae63dad295ee8807ff6d0a28408e83f966a1d67d813b4c7ab7a41bffffffffabd770fe4cef9ab991ab586950d5f63a589ed4fb1bef5234a68b79bca14984e00c00000023220020ae9b79d18e1a5d33171672f6d144a97cc11849f2875a68421a060943d36660aeffffffffb029db7ee0feecbb046e062f9cfa5a7a0c08fb3105fb79f4c4d78267df16386508000000db00483045022100985857be94ff3337e81e461e3a25038d0d364eefa6f5fece55ca171983168f3e022043549ae8f8f4a62648ec53ba324da035ee43fa48c14aaa8f6b16c0a8c1bbd70901483045022100ad9b7a75ede28057ed54a9613e75153267db2ab0e7d0b6540935632912e251e30220068a8b49d102e8d26bee48adfcab859834ef9fd363c8e6a5321f756d91b618a901475221039db2a17d06a52caa1aa4186caf272cc491bfd6c1cb418f5c45b93169a457a73f21033e339f23de16ed119edcee58aca20fd6d3d51ede956c346181653d1926aaba3152aeffffffffcd94e3908dacc68e15aa61fb65c6c0e885a28c694abee235bed19f297a4d801606000000232200200bde3a2fd98fd44603569981a46bf016da6ad1480bcca80f0a54556b3a5bb843ffffffffcefb20800bed587af1c100adc29879d1c22a8c4fb8f52f7293364401a501672d0d000000da00473044022010af465814c669a72aca3d157ef4f0ab5e5eecca8f2ccc1d4b55b82e8c536e5f02202f0c90aeca43d2c9d6f9ca9cbd47d327a04232c34ca8376476cdc97627ee7cdb01483045022100ea5ab7c81b3537fe5c7e0d5c6d4f0271b7e43c1706d38c8b1f3d89b4c66ae05b02207a939bd0f62de36f99feaba5edf12a7edcac3282ae9d62f2123de3c9f1fdabf201475221039db2a17d06a52caa1aa4186caf272cc491bfd6c1cb418f5c45b93169a457a73f21033e339f23de16ed119edcee58aca20fd6d3d51ede956c346181653d1926aaba3152aeffffffff0268a5eb95000000001976a9148c184560f54552e065fe1a43a555ab79bb9fd40b88acc06d40000000000017a914fb883906000cd19a2cff9c97119cac9f6d0a6c018704004730440220332ff7a38f32465e70d3c28a55decc0f844d9d0245b672d5d7ecd3e11210769902207f2d0a01f3baaafba46c7f055cec84402a796db9e03fd93946682f267b8f2d8c0147304402205bd0f9e7bd7a57ffc4afebe442c70b0058252aeca03a483b95e151cc69584690022002742110694344244298a65bfbc3c5d9706266d3fd70b4fb778807a01329504b0147522102d9a275e186abcbb7be736585d4e90f54d5673b5733ccb83f721b355c359ccd3221033e339f23de16ed119edcee58aca20fd6d3d51ede956c346181653d1926aaba3152ae0400483045022100fab49517d573799b85ae87a3e50677c6fa31ec4aa652b5d09303ad9645d2ace70220075b147e02e980ce4574e5145481538f1daaab75cbf7445ad9fe7b04ba3c888d0147304402204b8e5add689a9515baf9d3485f49a19222eda9ea715fa5c5d1752c1f3d29d505022062af72d3408fa7d9f893f3399d91f4b289a7257220eb196bf459bf191f70ef3e0147522103c8305aa66ec9c36a7c0dca28b59bd838ea6188c4619916a6c84b34884d468da821033e339f23de16ed119edcee58aca20fd6d3d51ede956c346181653d1926aaba3152ae040047304402206db8b7f7128ce287e609d459793d342f0ff8a06c230b092247f98d1b39207ebe022019934950ecf1e81ec15c3068075e1934cf42bffa0c6280cfd7cdbbb64b0f7850014830450221008f1cbf4ffe9e2cadb2349b7196f27f53d3a5d39cf0ed14a4d397ab9a7a3c591f02204c0ea8426713c6841bea443d8ff853e4931048b83672f03d065a75d6720245300147522103c8305aa66ec9c36a7c0dca28b59bd838ea6188c4619916a6c84b34884d468da821033e339f23de16ed119edcee58aca20fd6d3d51ede956c346181653d1926aaba3152ae0400473044022017c5d2164310cfa872d8c9549d1a0027ba64887e36f51fbce851c8219fa5185502207fcff0e99975c0c7e259ad40a47c9b5c77630048c5bc7bb8d7f0e0a39e7875bb01473044022060154534d88501c102a6032a755e290c0b431c4b6889218903d620041095bdfd02204769e19860ee85b448641df353beb2d0b6fcb737381ca05026f57a386ee39ca801475221038eb8421a14970971d6c5d26b1b51c12046fffdee15cf8c960da2ee4604f3cf2321033e339f23de16ed119edcee58aca20fd6d3d51ede956c346181653d1926aaba3152ae0400483045022100e8b80ba98a8ebaa4f0703a5c302acb37377491ea9a8db9ef5c6b7ff8846a7e4802205fc1c7692e6e83e5c89721c3e5b1bdc9fbea329164b4996b14c98e8053e7365a01473044022071ed6eb61819299ee9643325b009693ce0cd0e51ff1b1430cb90b9aeb597754402201a865e6293d15ab48447716837ae2420eb252456e3b5443af96cd556e7362a5b0147522103aa6e6d19e7c2620aa465ad752399afcf2193d8a628372fbbb8bf2720c07cb0e921033e339f23de16ed119edcee58aca20fd6d3d51ede956c346181653d1926aaba3152ae040047304402204cd5f6fe2c7569d42697a0c2f30fdcec25421c851ad111775b2cf5ddbc4ca71002207f0338a995c55e9962345df87181b1dd2544ae9293fd6a79bdc126124caba36a014730440220262b4065a7629717edccf997388adc12d68c97043c48fbe96bd3851a8622b5f602200a053baed6309535800dcea26230f58ed9828567f60f4d030c4964a1b6c641970147522102df842331cc5a946a835fa1d5b19b39572ddc7ec2ea6241870f737066ca78e0b121033e339f23de16ed119edcee58aca20fd6d3d51ede956c346181653d1926aaba3152ae0400483045022100f982ea92ccd307beba426799b9e296fb52b6f0c487c54f4c56363861192dc74d022020a5281b11ae81e49b1b9c6da24ecda9e246c51cba747c3286340e6841e3a6fa01483045022100e2f98608dfabf527b2ece01150bfbd83e48b4037ed7f1850d4329a1f3ab75917022061a9e42231beb84a08784e81b13df7ee0fe64cb7373c78771543cb8fa280b92501475221036fb4c236823f7dec95cfa6e3c87e29d660ae4f232f11c7df01623a0f0237513021033e339f23de16ed119edcee58aca20fd6d3d51ede956c346181653d1926aaba3152ae040047304402200484535a6f01fc6bb6bf58cdd40cbe614dfac9f4d441cbf71974aab8e271dc7002206f6258420c235368ba6f176437ac1652d7b6b0b482490c70871e90dd9d9d0441014730440220795c88e098b69019bb159834bb6f47d5bce4fcd43bb73c108d9b681f780d7ed302205c18d5ffe3a04270024409a93fd1f002eabe9fd9ae31f5348fe7d62b5b8efaa90147522102f7d230f6842aba9b9c24c8e20d890b87746a3e32921a352a0807693c63ae178021033e339f23de16ed119edcee58aca20fd6d3d51ede956c346181653d1926aaba3152ae04004830450221008564f2faae49e8934aaecbd7adc1865ad1164dfdf013c1664aee536ec5437d7a02202615d142ddbf5fd60f67600bcc708bd8c03d877997a5f78e744f329baa77bdac01483045022100b2d9ac40c28cee409493ba8d26644133b00344a5b0754bb80c784bac5b533e7a02207506dec44e419cfacd73f1f9e6d666a4c3c8dfc5b7f3f6a28823a7bd61dcdb350147522102e9e3390122ae551dc2e845cb7b42af544c47d9a1393c9c316de3f43b0860017521033e339f23de16ed119edcee58aca20fd6d3d51ede956c346181653d1926aaba3152ae000400483045022100a3b979482ab0b7410ee26aaee0b7f9257dc77fc2aa7fc1d06dd9c873d921847502201a48610a91a79baf868d29283e42d3743c58ed59d66806cf80efd08cc0d50ad601483045022100f11320d8e008dffb485af7cc08f66bb606d7b5e408c5775abb6af20fb101ecb6022018e82e28e60327e80a1fa236bb852d99b1628b50296ac9aeeb0bec6336aff73d0147522102533a9444e12e11e74a18890e62345688ed5bc3f7981e51eb6a89de6f5117ba4a21033e339f23de16ed119edcee58aca20fd6d3d51ede956c346181653d1926aaba3152ae0000000000"
    }, 
    {
      "txid": "ff6f975edc177822036f6ca5fdf022f837aaa6867b7c22ae1235d597a1e43eea",
      "hash": "ff6f975edc177822036f6ca5fdf022f837aaa6867b7c22ae1235d597a1e43eea",
      "version": 1,
      "size": 223,
      "vsize": 223,
      "locktime": 0,
      "vin": [
        {
          "txid": "3d7800f3b8b823b47a147733bc0c929d8bb90a977ac5f78ba80c515926738f26",
          "vout": 1,
          "scriptSig": {
            "asm": "304402206af48b0301adb3f2e597fd66c5adb698b34cc3ed872e04c903d2d10eb9ce75b902204d13e3388c312e4fae7cc4501fd0f93e99ca681ebca5f99578263803ac06905f[ALL] 025580ef18100f64959a38a5ffe3d2a8087e2e703dfe5c1fab829bef37b3e803a0",
            "hex": "47304402206af48b0301adb3f2e597fd66c5adb698b34cc3ed872e04c903d2d10eb9ce75b902204d13e3388c312e4fae7cc4501fd0f93e99ca681ebca5f99578263803ac06905f0121025580ef18100f64959a38a5ffe3d2a8087e2e703dfe5c1fab829bef37b3e803a0"
          },
          "sequence": 4294967295
        }
      ],
      "vout": [
        {
          "value": 93.20582720,
          "n": 0,
          "scriptPubKey": {
            "asm": "OP_DUP OP_HASH160 3559e702d87cc74abdac2baf0974774d6d1c51c6 OP_EQUALVERIFY OP_CHECKSIG",
            "hex": "76a9143559e702d87cc74abdac2baf0974774d6d1c51c688ac",
            "reqSigs": 1,
            "type": "pubkeyhash",
            "addresses": [
              "LQ63muajKR4QqXdz8WYmWeHmVvsZA5Sqqc"
            ]
          }
        }, 
        {
          "value": 0.46001000,
          "n": 1,
          "scriptPubKey": {
            "asm": "OP_HASH160 9f25158d7aff3048df8eeb964f57e9e161d3ffd3 OP_EQUAL",
            "hex": "a9149f25158d7aff3048df8eeb964f57e9e161d3ffd387",
            "reqSigs": 1,
            "type": "scripthash",
            "addresses": [
              "MNQe6awJC5oVWi9BoauzsbcPQ7tt7S2Aaa"
            ]
          }
        }
      ],
      "hex": "0100000001268f732659510ca88bf7c57a970ab98b9d920cbc3377147ab423b8b8f300783d010000006a47304402206af48b0301adb3f2e597fd66c5adb698b34cc3ed872e04c903d2d10eb9ce75b902204d13e3388c312e4fae7cc4501fd0f93e99ca681ebca5f99578263803ac06905f0121025580ef18100f64959a38a5ffe3d2a8087e2e703dfe5c1fab829bef37b3e803a0ffffffff0240ce8c2b020000001976a9143559e702d87cc74abdac2baf0974774d6d1c51c688ac68ebbd020000000017a9149f25158d7aff3048df8eeb964f57e9e161d3ffd38700000000"
    }, 
    {
      "txid": "ef7c2086f7633fd506bc97ef8c3a675373b7b3bfbcf3f72c3d23088c4bdd0a08",
      "hash": "ef7c2086f7633fd506bc97ef8c3a675373b7b3bfbcf3f72c3d23088c4bdd0a08",
      "version": 1,
      "size": 225,
      "vsize": 225,
      "locktime": 0,
      "vin": [
        {
          "txid": "428b7db7e9777d134e74493fb6f661555a2397bb26789651b3b0ad780b01fbb5",
          "vout": 1,
          "scriptSig": {
            "asm": "304402203a80068e5ecc45ff2845e3174cdca5040b21045ded4df2dab0cf1c9f8370d13e0220318d2d6968b8f37acf2935626a3ff5805db01f4d1a85669e9cc4cfe7430c637c[ALL] 03d08fec3e8feb83e9f25b66dc27cfe55534019908b42a2ca95370c1ac6ed97a56",
            "hex": "47304402203a80068e5ecc45ff2845e3174cdca5040b21045ded4df2dab0cf1c9f8370d13e0220318d2d6968b8f37acf2935626a3ff5805db01f4d1a85669e9cc4cfe7430c637c012103d08fec3e8feb83e9f25b66dc27cfe55534019908b42a2ca95370c1ac6ed97a56"
          },
          "sequence": 4294967295
        }
      ],
      "vout": [
        {
          "value": 1.00000000,
          "n": 0,
          "scriptPubKey": {
            "asm": "OP_DUP OP_HASH160 b54d8db5fe05660554271ce29310322d4dfd42e5 OP_EQUALVERIFY OP_CHECKSIG",
            "hex": "76a914b54d8db5fe05660554271ce29310322d4dfd42e588ac",
            "reqSigs": 1,
            "type": "pubkeyhash",
            "addresses": [
              "LbkbUT46QwNvvpTUHB7WbVQ4PfxTFzYiZY"
            ]
          }
        }, 
        {
          "value": 92.19954800,
          "n": 1,
          "scriptPubKey": {
            "asm": "OP_DUP OP_HASH160 6970a40918de8700274f44e4c6109ccf626b55c7 OP_EQUALVERIFY OP_CHECKSIG",
            "hex": "76a9146970a40918de8700274f44e4c6109ccf626b55c788ac",
            "reqSigs": 1,
            "type": "pubkeyhash",
            "addresses": [
              "LUqU9mmZQv16PR26HfxzM4yV2dgscJ8cd3"
            ]
          }
        }
      ],
      "hex": "0100000001b5fb010b78adb0b351967826bb97235a5561f6b63f49744e137d77e9b77d8b42010000006a47304402203a80068e5ecc45ff2845e3174cdca5040b21045ded4df2dab0cf1c9f8370d13e0220318d2d6968b8f37acf2935626a3ff5805db01f4d1a85669e9cc4cfe7430c637c012103d08fec3e8feb83e9f25b66dc27cfe55534019908b42a2ca95370c1ac6ed97a56ffffffff0200e1f505000000001976a914b54d8db5fe05660554271ce29310322d4dfd42e588ac70588d25020000001976a9146970a40918de8700274f44e4c6109ccf626b55c788ac00000000"
    }, 
    {
      "txid": "c4b06838db0308bd4f6e5046ba0019c1172400217ffc3348bc9c47992930281c",
      "hash": "c4b06838db0308bd4f6e5046ba0019c1172400217ffc3348bc9c47992930281c",
      "version": 1,
      "size": 225,
      "vsize": 225,
      "locktime": 1357545,
      "vin": [
        {
          "txid": "43d569b7435ef81a049cbcd3118aefc2d262f8350fc7f2165a1f1edb61f678cb",
          "vout": 1,
          "scriptSig": {
            "asm": "30440220443ab929ee9be131d7c4534de6ace628d853b8574bfaa59364dab7ef65c2752002204dd8b92be540fcf535a53ec1253bd192604edf5005aad1f45b3c88f9afef4766[ALL] 0335ac6e843afed7a11ee874ad48a68c0eff0bb6d3a6f00f474c2bf3ec29a41113",
            "hex": "4730440220443ab929ee9be131d7c4534de6ace628d853b8574bfaa59364dab7ef65c2752002204dd8b92be540fcf535a53ec1253bd192604edf5005aad1f45b3c88f9afef476601210335ac6e843afed7a11ee874ad48a68c0eff0bb6d3a6f00f474c2bf3ec29a41113"
          },
          "sequence": 4294967294
        }
      ],
      "vout": [
        {
          "value": 0.09297941,
          "n": 0,
          "scriptPubKey": {
            "asm": "OP_DUP OP_HASH160 23d3a0d4f6667ee9281296ca5ee7e0c896a60114 OP_EQUALVERIFY OP_CHECKSIG",
            "hex": "76a91423d3a0d4f6667ee9281296ca5ee7e0c896a6011488ac",
            "reqSigs": 1,
            "type": "pubkeyhash",
            "addresses": [
              "LNVPS7fG5cn1LLCMziqK3GcCCkjU4LjS6v"
            ]
          }
        }, 
        {
          "value": 4.93100461,
          "n": 1,
          "scriptPubKey": {
            "asm": "OP_DUP OP_HASH160 522e2babc26da425a1fe9d6b7e00bdf0d153eb92 OP_EQUALVERIFY OP_CHECKSIG",
            "hex": "76a914522e2babc26da425a1fe9d6b7e00bdf0d153eb9288ac",
            "reqSigs": 1,
            "type": "pubkeyhash",
            "addresses": [
              "LSiUyw1Cv5SwsXzUaxQ5xsVT6kkKL8FMTF"
            ]
          }
        }
      ],
      "hex": "0100000001cb78f661db1e1f5a16f2c70f35f862d2c2ef8a11d3bc9c041af85e43b769d543010000006a4730440220443ab929ee9be131d7c4534de6ace628d853b8574bfaa59364dab7ef65c2752002204dd8b92be540fcf535a53ec1253bd192604edf5005aad1f45b3c88f9afef476601210335ac6e843afed7a11ee874ad48a68c0eff0bb6d3a6f00f474c2bf3ec29a41113feffffff0215e08d00000000001976a91423d3a0d4f6667ee9281296ca5ee7e0c896a6011488acad1d641d000000001976a914522e2babc26da425a1fe9d6b7e00bdf0d153eb9288ace9b61400"
    }, 
    {
      "txid": "7b8d4a644568d32fe3c6f89eb2b10e5f48aec4c0408224cb9ed833f25732d62b",
      "hash": "7b8d4a644568d32fe3c6f89eb2b10e5f48aec4c0408224cb9ed833f25732d62b",
      "version": 2,
      "size": 225,
      "vsize": 225,
      "locktime": 1357545,
      "vin": [
        {
          "txid": "60e49f15e6eface5e44b8aab365123d22e75d767614a9143f5597ff851e4a662",
          "vout": 1,
          "scriptSig": {
            "asm": "30440220557afc8689886396401274bfe71ba4fa090cec8a53ffdfd7bb5c57ad3031177d02202c3d9a96f27119b3c7919e4446cd3f179dfa36fdc3ed928d9db1865833663eee[ALL] 0247a3bbd74469d172f80536428c05b93fb2488fea02fead6754b3b07e513bc1aa",
            "hex": "4730440220557afc8689886396401274bfe71ba4fa090cec8a53ffdfd7bb5c57ad3031177d02202c3d9a96f27119b3c7919e4446cd3f179dfa36fdc3ed928d9db1865833663eee01210247a3bbd74469d172f80536428c05b93fb2488fea02fead6754b3b07e513bc1aa"
          },
          "sequence": 4294967294
        }
      ],
      "vout": [
        {
          "value": 0.02007299,
          "n": 0,
          "scriptPubKey": {
            "asm": "OP_DUP OP_HASH160 c321771d43fa2e55fbd053790ec248d295436559 OP_EQUALVERIFY OP_CHECKSIG",
            "hex": "76a914c321771d43fa2e55fbd053790ec248d29543655988ac",
            "reqSigs": 1,
            "type": "pubkeyhash",
            "addresses": [
              "Ld1i7q3GwxdFM5pxDYLL1YxMzUoDURNEse"
            ]
          }
        }, 
        {
          "value": 0.18600000,
          "n": 1,
          "scriptPubKey": {
            "asm": "OP_DUP OP_HASH160 4dd1f7dc8c1e81063b30f6235bc2bd90aceac036 OP_EQUALVERIFY OP_CHECKSIG",
            "hex": "76a9144dd1f7dc8c1e81063b30f6235bc2bd90aceac03688ac",
            "reqSigs": 1,
            "type": "pubkeyhash",
            "addresses": [
              "LSKRpq9L715fnSLw5AyxzPRrNg1DAyYX5S"
            ]
          }
        }
      ],
      "hex": "020000000162a6e451f87f59f543914a6167d7752ed2235136ab8a4be4e5acefe6159fe460010000006a4730440220557afc8689886396401274bfe71ba4fa090cec8a53ffdfd7bb5c57ad3031177d02202c3d9a96f27119b3c7919e4446cd3f179dfa36fdc3ed928d9db1865833663eee01210247a3bbd74469d172f80536428c05b93fb2488fea02fead6754b3b07e513bc1aafeffffff0203a11e00000000001976a914c321771d43fa2e55fbd053790ec248d29543655988ac40d01b01000000001976a9144dd1f7dc8c1e81063b30f6235bc2bd90aceac03688ace9b61400"
    }, 
    {
      "txid": "98897716fc7599380f8e02b4d5e523b96996220d72d4333e1911275ea609ed3f",
      "hash": "98897716fc7599380f8e02b4d5e523b96996220d72d4333e1911275ea609ed3f",
      "version": 1,
      "size": 225,
      "vsize": 225,
      "locktime": 0,
      "vin": [
        {
          "txid": "b79366af479b91cd300f52344f6b3a508c157efbe3a8f17d917950bc3204135c",
          "vout": 0,
          "scriptSig": {
            "asm": "304402204fa3ab8c6f4c7994920a53cc68329ddf154963de04cc410a3f59e5a7fa7d0b1302204eebee5f687cb343291c2ca71a891bea6716bbbb39ed333268467eddb81b7d73[ALL] 035188969fa2b484d9bcf0868ac605e7359254e9fa8ba630e0cc32ab12ff7d58da",
            "hex": "47304402204fa3ab8c6f4c7994920a53cc68329ddf154963de04cc410a3f59e5a7fa7d0b1302204eebee5f687cb343291c2ca71a891bea6716bbbb39ed333268467eddb81b7d730121035188969fa2b484d9bcf0868ac605e7359254e9fa8ba630e0cc32ab12ff7d58da"
          },
          "sequence": 4294967295
        }
      ],
      "vout": [
        {
          "value": 91.77885498,
          "n": 0,
          "scriptPubKey": {
            "asm": "OP_DUP OP_HASH160 ed2cc5773ab0783e10f8847a0174e06bfcb822ef OP_EQUALVERIFY OP_CHECKSIG",
            "hex": "76a914ed2cc5773ab0783e10f8847a0174e06bfcb822ef88ac",
            "reqSigs": 1,
            "type": "pubkeyhash",
            "addresses": [
              "Lgr23SkYGobZVqFKoixhTy2r3PeMBk7CcP"
            ]
          }
        }, 
        {
          "value": 1.50097481,
          "n": 1,
          "scriptPubKey": {
            "asm": "OP_DUP OP_HASH160 df93168adb65748f4b8c31c42ce45c95d795f7a2 OP_EQUALVERIFY OP_CHECKSIG",
            "hex": "76a914df93168adb65748f4b8c31c42ce45c95d795f7a288ac",
            "reqSigs": 1,
            "type": "pubkeyhash",
            "addresses": [
              "Lfc79rAeuD8Qh8inDaPhnwskbs8SnFzW3A"
            ]
          }
        }
      ],
      "hex": "01000000015c130432bc5079917df1a8e3fb7e158c503a6b4f34520f30cd919b47af6693b7000000006a47304402204fa3ab8c6f4c7994920a53cc68329ddf154963de04cc410a3f59e5a7fa7d0b1302204eebee5f687cb343291c2ca71a891bea6716bbbb39ed333268467eddb81b7d730121035188969fa2b484d9bcf0868ac605e7359254e9fa8ba630e0cc32ab12ff7d58daffffffff023a6b0b23020000001976a914ed2cc5773ab0783e10f8847a0174e06bfcb822ef88ac494ef208000000001976a914df93168adb65748f4b8c31c42ce45c95d795f7a288ac00000000"
    }, 
    {
      "txid": "c880ba5e1838610dc8be839ed9a12d00373d79408422138dd37fd57348938943",
      "hash": "c880ba5e1838610dc8be839ed9a12d00373d79408422138dd37fd57348938943",
      "version": 1,
      "size": 225,
      "vsize": 225,
      "locktime": 0,
      "vin": [
        {
          "txid": "787ca3901bca1dbb91a4f299389681350368017ae65f954732a82b5abd267de0",
          "vout": 1,
          "scriptSig": {
            "asm": "30440220051f9f3c2ad9f25772cabbfd0254582b8d2f9fc7d8eecf74d19404c52cbab80302205fe2f37d30ebedb1363039c420bcc3181cf95db2d8126e3edf5a46d99446235f[ALL] 02f9592269f5fc0abc2530ca4bb003c0813f70fd407c0ff47c9544a14ad2cc414e",
            "hex": "4730440220051f9f3c2ad9f25772cabbfd0254582b8d2f9fc7d8eecf74d19404c52cbab80302205fe2f37d30ebedb1363039c420bcc3181cf95db2d8126e3edf5a46d99446235f012102f9592269f5fc0abc2530ca4bb003c0813f70fd407c0ff47c9544a14ad2cc414e"
          },
          "sequence": 4294967295
        }
      ],
      "vout": [
        {
          "value": 92.45910677,
          "n": 0,
          "scriptPubKey": {
            "asm": "OP_DUP OP_HASH160 6d684ac862c22192698420c15dc100fbaaab5a24 OP_EQUALVERIFY OP_CHECKSIG",
            "hex": "76a9146d684ac862c22192698420c15dc100fbaaab5a2488ac",
            "reqSigs": 1,
            "type": "pubkeyhash",
            "addresses": [
              "LVCSrTz8BXnVzkm4j4iCiHZxdAhTAZzC6x"
            ]
          }
        }, 
        {
          "value": 0.38928326,
          "n": 1,
          "scriptPubKey": {
            "asm": "OP_DUP OP_HASH160 e2d04927a2ccd4ac16b9d792e7a67aa68f64145c OP_EQUALVERIFY OP_CHECKSIG",
            "hex": "76a914e2d04927a2ccd4ac16b9d792e7a67aa68f64145c88ac",
            "reqSigs": 1,
            "type": "pubkeyhash",
            "addresses": [
              "LfuEVWpy8KnmoxAhgf53pQXLVNnDpMagTB"
            ]
          }
        }
      ],
      "hex": "0100000001e07d26bd5a2ba83247955fe67a0168033581963899f2a491bb1dca1b90a37c78010000006a4730440220051f9f3c2ad9f25772cabbfd0254582b8d2f9fc7d8eecf74d19404c52cbab80302205fe2f37d30ebedb1363039c420bcc3181cf95db2d8126e3edf5a46d99446235f012102f9592269f5fc0abc2530ca4bb003c0813f70fd407c0ff47c9544a14ad2cc414effffffff0295661927020000001976a9146d684ac862c22192698420c15dc100fbaaab5a2488acc6ff5102000000001976a914e2d04927a2ccd4ac16b9d792e7a67aa68f64145c88ac00000000"
    }, 
    {
      "txid": "ffc1f767e92be361f4898065e4e21ced8b76a2e12f13d82ed34109795e7ca96a",
      "hash": "ffc1f767e92be361f4898065e4e21ced8b76a2e12f13d82ed34109795e7ca96a",
      "version": 1,
      "size": 225,
      "vsize": 225,
      "locktime": 0,
      "vin": [
        {
          "txid": "f5e7ebbbf1f4fc31ea0d2e6430f20171e763efd0416b24b063c0f8413505c460",
          "vout": 0,
          "scriptSig": {
            "asm": "3044022073ecb0eef0d915091ec890a6ebcadc44f875db21684ed4a45c29a2831afaec8002204cb30245217de367845a430ae2f6719983c0af7f85e7ab74f026b319540c8904[ALL] 03156b9675b90777c93912400ea93e1a56abae72db46558e003dd8f092b3a6de87",
            "hex": "473044022073ecb0eef0d915091ec890a6ebcadc44f875db21684ed4a45c29a2831afaec8002204cb30245217de367845a430ae2f6719983c0af7f85e7ab74f026b319540c8904012103156b9675b90777c93912400ea93e1a56abae72db46558e003dd8f092b3a6de87"
          },
          "sequence": 4294967295
        }
      ],
      "vout": [
        {
          "value": 0.05727400,
          "n": 0,
          "scriptPubKey": {
            "asm": "OP_DUP OP_HASH160 423d202b65e22b737b7cc123e3e95bcf8cd3cc6a OP_EQUALVERIFY OP_CHECKSIG",
            "hex": "76a914423d202b65e22b737b7cc123e3e95bcf8cd3cc6a88ac",
            "reqSigs": 1,
            "type": "pubkeyhash",
            "addresses": [
              "LRGC5xbJ4DXVvebQRYV2CubRQGGQBx4VDJ"
            ]
          }
        }, 
        {
          "value": 0.00055800,
          "n": 1,
          "scriptPubKey": {
            "asm": "OP_DUP OP_HASH160 bdcf3830419de86356d37d6f474f8bb71369e60a OP_EQUALVERIFY OP_CHECKSIG",
            "hex": "76a914bdcf3830419de86356d37d6f474f8bb71369e60a88ac",
            "reqSigs": 1,
            "type": "pubkeyhash",
            "addresses": [
              "LcXaDLAhDHjbanbLFXiD3SCuQmAShpgigx"
            ]
          }
        }
      ],
      "hex": "010000000160c4053541f8c063b0246b41d0ef63e77101f230642e0dea31fcf4f1bbebe7f5000000006a473044022073ecb0eef0d915091ec890a6ebcadc44f875db21684ed4a45c29a2831afaec8002204cb30245217de367845a430ae2f6719983c0af7f85e7ab74f026b319540c8904012103156b9675b90777c93912400ea93e1a56abae72db46558e003dd8f092b3a6de87ffffffff02a8645700000000001976a914423d202b65e22b737b7cc123e3e95bcf8cd3cc6a88acf8d90000000000001976a914bdcf3830419de86356d37d6f474f8bb71369e60a88ac00000000"
    }, 
    {
      "txid": "d9b7b2e3a2df793d1970a27e46910990d9f64a5b070443eadead51ff40ba65ed",
      "hash": "d9b7b2e3a2df793d1970a27e46910990d9f64a5b070443eadead51ff40ba65ed",
      "version": 1,
      "size": 226,
      "vsize": 226,
      "locktime": 0,
      "vin": [
        {
          "txid": "fe42e4976fae9efc37de5fc909497a5e65fa0197a0bb66a9f5580b3a32ef9d6a",
          "vout": 1,
          "scriptSig": {
            "asm": "30450221009ad25563ba17d589381aa95255fbed6c80711f3ee2d5ade6ddeca5bdae91cb5e02203ec2f7e257973a57315684761193c6f2c614d6c588519ee7ffefe8c19d683dc1[ALL] 030651c967a21f8e2d772aa454023f3212f1caee641b65270b965779077b5f53f0",
            "hex": "4830450221009ad25563ba17d589381aa95255fbed6c80711f3ee2d5ade6ddeca5bdae91cb5e02203ec2f7e257973a57315684761193c6f2c614d6c588519ee7ffefe8c19d683dc10121030651c967a21f8e2d772aa454023f3212f1caee641b65270b965779077b5f53f0"
          },
          "sequence": 4294967295
        }
      ],
      "vout": [
        {
          "value": 93.09623985,
          "n": 0,
          "scriptPubKey": {
            "asm": "OP_DUP OP_HASH160 f01c053adaa828bbdd4c05973fe108db48abf8f1 OP_EQUALVERIFY OP_CHECKSIG",
            "hex": "76a914f01c053adaa828bbdd4c05973fe108db48abf8f188ac",
            "reqSigs": 1,
            "type": "pubkeyhash",
            "addresses": [
              "Lh7Y19Qy8HrQhSXUQmGyaaF64wL1hKLMZ3"
            ]
          }
        }, 
        {
          "value": 0.26906343,
          "n": 1,
          "scriptPubKey": {
            "asm": "OP_DUP OP_HASH160 57f00be9a9be0da0cc39105c952ddbe3ee0abdd4 OP_EQUALVERIFY OP_CHECKSIG",
            "hex": "76a91457f00be9a9be0da0cc39105c952ddbe3ee0abdd488ac",
            "reqSigs": 1,
            "type": "pubkeyhash",
            "addresses": [
              "LTEvcdNLxP3ceDVSrx2GZZEFmtYUJt7WFm"
            ]
          }
        }
      ],
      "hex": "01000000016a9def323a0b58f5a966bba09701fa655e7a4909c95fde37fc9eae6f97e442fe010000006b4830450221009ad25563ba17d589381aa95255fbed6c80711f3ee2d5ade6ddeca5bdae91cb5e02203ec2f7e257973a57315684761193c6f2c614d6c588519ee7ffefe8c19d683dc10121030651c967a21f8e2d772aa454023f3212f1caee641b65270b965779077b5f53f0ffffffff02b196e52a020000001976a914f01c053adaa828bbdd4c05973fe108db48abf8f188ace78e9a01000000001976a91457f00be9a9be0da0cc39105c952ddbe3ee0abdd488ac00000000"
    }
  ],
  "time": 1517016691,
  "mediantime": 1517016355,
  "nonce": 3797789756,
  "bits": "1a047f14",
  "difficulty": 3731199.183374282,
  "chainwork": "00000000000000000000000000000000000000000000003251c2f1bcaf1f76f8",
  "previousblockhash": "0ac7dec403fc83441c153497fe70127eee026b584e5326b9838f18191f481572",
  "nextblockhash": "89a1702a8d73f27913f3d841c04d95c8e290e3149eab03a71bc4c34c2e57a052"
}
