{
  "hash": "536744af3ae8d7cdac7e782d5645d0845ddf7b4dd7ab30bd6846f536c68f6a32",
  "confirmations": 3128,
  "strippedsize": 234,
  "size": 234,
  "weight": 936,
  "height": 1357867,
  "version": 536870912,
  "versionHex": "20000000",
  "merkleroot": "d2a4255886903f4310f9ea19adecb7b00a2f24807856636fbe0d95e7706c8301",
  "tx": [
    {
      "txid": "d2a4255886903f4310f9ea19adecb7b00a2f24807856636fbe0d95e7706c8301",
      "hash": "d2a4255886903f4310f9ea19adecb7b00a2f24807856636fbe0d95e7706c8301",
      "version": 1,
      "size": 153,
      "vsize": 153,
      "locktime": 0,
      "vin": [
        {
          "coinbase": "032bb814045a6c7a502cfabe6d6d3e3b840d9b90c37f88b4a5c194e3b8e1a537643e3c04f6ab3fb658243e9e864d4000000000000000042f4c502f081600b5330b000000",
          "sequence": 4294967295
        }
      ],
      "vout": [
        {
          "value": 25.00000000,
          "n": 0,
          "scriptPubKey": {
            "asm": "OP_DUP OP_HASH160 57757ed2ecf2052ff3126c397aca7defb9ca2cec OP_EQUALVERIFY OP_CHECKSIG",
            "hex": "76a91457757ed2ecf2052ff3126c397aca7defb9ca2cec88ac",
            "reqSigs": 1,
            "type": "pubkeyhash",
            "addresses": [
              "LTCPodGk5FwcJaRzH9yKnwicxzFUbxp6tN"
            ]
          }
        }
      ],
      "hex": "01000000010000000000000000000000000000000000000000000000000000000000000000ffffffff44032bb814045a6c7a502cfabe6d6d3e3b840d9b90c37f88b4a5c194e3b8e1a537643e3c04f6ab3fb658243e9e864d4000000000000000042f4c502f081600b5330b000000ffffffff0100f90295000000001976a91457757ed2ecf2052ff3126c397aca7defb9ca2cec88ac00000000"
    }
  ],
  "time": 1517058640,
  "mediantime": 1517058148,
  "nonce": 3353243216,
  "bits": "1a047f14",
  "difficulty": 3731199.183374282,
  "chainwork": "00000000000000000000000000000000000000000000003298edf7e2634a9778",
  "previousblockhash": "a2b33d62039938debfde882fad1dfc009b2d4ca76ee8fbe7a4cfdc6a0d2dd87f",
  "nextblockhash": "1e64165e8275978319591856f348fb515744c5a336bbd712d0f40516045b91fb"
}
