{
  "hash": "53ad290bfca781cf8b02131cde3fdf2a94bdefd4b1cffa2c5012ffe7d44d5977",
  "confirmations": 1935,
  "strippedsize": 3044,
  "size": 3080,
  "weight": 12212,
  "height": 1359059,
  "version": 536870912,
  "versionHex": "20000000",
  "merkleroot": "c4de581fd86cb201eddd5ce43845b40da811260ac4b471a6e7eb0c18d2626d45",
  "tx": [
    {
      "txid": "beb5bd7892f5f64c1d98df2f9ded2e992a6fdf17dc1e656fd06ff88d6d0471ce",
      "hash": "32da4f2e913467d99231044ce52908aa51acd9792419abfaec0be2ca91a8f713",
      "version": 1,
      "size": 253,
      "vsize": 226,
      "locktime": 0,
      "vin": [
        {
          "coinbase": "03d3bc1441d69bc6e2fef3cd41d69bc6e2f698232f4c54432e544f502ffabe6d6ddf2adbc87ec0ffe1d2f12ebfced3452e118757ea16da0efa36460b9fa2e9158501000000000000005d273a872901000000000000",
          "sequence": 4294967295
        }
      ],
      "vout": [
        {
          "value": 25.00710400,
          "n": 0,
          "scriptPubKey": {
            "asm": "OP_DUP OP_HASH160 0c617fdb2ea42aed30a509595ee21ba3f6688db0 OP_EQUALVERIFY OP_CHECKSIG",
            "hex": "76a9140c617fdb2ea42aed30a509595ee21ba3f6688db088ac",
            "reqSigs": 1,
            "type": "pubkeyhash",
            "addresses": [
              "LLMRAtr3qBje2ySEa3CnZ55LA4TQMWnRY3"
            ]
          }
        }, 
        {
          "value": 0.00000000,
          "n": 1,
          "scriptPubKey": {
            "asm": "OP_RETURN aa21a9ed8c86698db701fbc61abc3ca292523776f380cbb2326eeebfa49d5396b5aeb484",
            "hex": "6a24aa21a9ed8c86698db701fbc61abc3ca292523776f380cbb2326eeebfa49d5396b5aeb484",
            "type": "nulldata"
          }
        }
      ],
      "hex": "010000000001010000000000000000000000000000000000000000000000000000000000000000ffffffff5503d3bc1441d69bc6e2fef3cd41d69bc6e2f698232f4c54432e544f502ffabe6d6ddf2adbc87ec0ffe1d2f12ebfced3452e118757ea16da0efa36460b9fa2e9158501000000000000005d273a872901000000000000ffffffff0200d00d95000000001976a9140c617fdb2ea42aed30a509595ee21ba3f6688db088ac0000000000000000266a24aa21a9ed8c86698db701fbc61abc3ca292523776f380cbb2326eeebfa49d5396b5aeb4840120000000000000000000000000000000000000000000000000000000000000000000000000"
    }, 
    {
      "txid": "e77afa1651c5114a54f6e0be71591c0624e4526fd3865fdcbbd2890a69832f18",
      "hash": "e77afa1651c5114a54f6e0be71591c0624e4526fd3865fdcbbd2890a69832f18",
      "version": 1,
      "size": 191,
      "vsize": 191,
      "locktime": 0,
      "vin": [
        {
          "txid": "a6ec8c6f3a99e0de386e539aa51b82206d91e7f79c0b55901c09a149335ecb20",
          "vout": 35,
          "scriptSig": {
            "asm": "30440220785ff6dfb8c1cab43e06125395f4429631939892a57955746f2dbb5ce4c7509902203a0b0299e122e41307c790fcc6904f3c596ab1dd03251055eb5bfc56b4f6305c[ALL] 028de599026fb611487ab2834121a451eca8a8aad46be05694120be1f9f236df85",
            "hex": "4730440220785ff6dfb8c1cab43e06125395f4429631939892a57955746f2dbb5ce4c7509902203a0b0299e122e41307c790fcc6904f3c596ab1dd03251055eb5bfc56b4f6305c0121028de599026fb611487ab2834121a451eca8a8aad46be05694120be1f9f236df85"
          },
          "sequence": 4294967295
        }
      ],
      "vout": [
        {
          "value": 0.52700000,
          "n": 0,
          "scriptPubKey": {
            "asm": "OP_DUP OP_HASH160 840f4b7a36712d3e6f8bca705ad1699375336f96 OP_EQUALVERIFY OP_CHECKSIG",
            "hex": "76a914840f4b7a36712d3e6f8bca705ad1699375336f9688ac",
            "reqSigs": 1,
            "type": "pubkeyhash",
            "addresses": [
              "LXGDnEmsvMi2bjYKL2LPo8371XYEGWB52t"
            ]
          }
        }
      ],
      "hex": "010000000120cb5e3349a1091c90550b9cf7e7916d20821ba59a536e38dee0993a6f8ceca6230000006a4730440220785ff6dfb8c1cab43e06125395f4429631939892a57955746f2dbb5ce4c7509902203a0b0299e122e41307c790fcc6904f3c596ab1dd03251055eb5bfc56b4f6305c0121028de599026fb611487ab2834121a451eca8a8aad46be05694120be1f9f236df85ffffffff0160232403000000001976a914840f4b7a36712d3e6f8bca705ad1699375336f9688ac00000000"
    }, 
    {
      "txid": "477343020de0585a71297f240d17f9eccd996ebdd25da75a94a2e5bbfa3fda90",
      "hash": "477343020de0585a71297f240d17f9eccd996ebdd25da75a94a2e5bbfa3fda90",
      "version": 1,
      "size": 336,
      "vsize": 336,
      "locktime": 0,
      "vin": [
        {
          "txid": "84d173eaa7ba3621fe3036d05daba7e90aa944a2beb54f8f88f0e0d239f528d6",
          "vout": 1,
          "scriptSig": {
            "asm": "0 3045022100f757e140e60b3897e19b0cb2c2b7dbbffdc0028bfca28c0bb465049f2f5f26be02202e0be7f47008a034e1d960d9326e7ded957b20697d7f280925989de0279b8d8a[ALL] 3045022100a7f77cc765e2efa6ab7c90916dda8660c88f217c7fd5827bdcd417d8a89cf87202204fe1d28d7308fa5a98f4cfde821934cf19292bbabcd534590a50356a0579d488[ALL] 522102f77ec37a042ba4e5e6aef7760398bf59b87ac4c5dee30a2fb8798e9630d4916e210276b93401dc495b28592f66411a7c9093b468f8678db51144fc6a36f550d94aa952ae",
            "hex": "00483045022100f757e140e60b3897e19b0cb2c2b7dbbffdc0028bfca28c0bb465049f2f5f26be02202e0be7f47008a034e1d960d9326e7ded957b20697d7f280925989de0279b8d8a01483045022100a7f77cc765e2efa6ab7c90916dda8660c88f217c7fd5827bdcd417d8a89cf87202204fe1d28d7308fa5a98f4cfde821934cf19292bbabcd534590a50356a0579d4880147522102f77ec37a042ba4e5e6aef7760398bf59b87ac4c5dee30a2fb8798e9630d4916e210276b93401dc495b28592f66411a7c9093b468f8678db51144fc6a36f550d94aa952ae"
          },
          "sequence": 4294967295
        }
      ],
      "vout": [
        {
          "value": 0.06299300,
          "n": 0,
          "scriptPubKey": {
            "asm": "OP_DUP OP_HASH160 74615bff0edd65ae15143a0fe054afdee219fff9 OP_EQUALVERIFY OP_CHECKSIG",
            "hex": "76a91474615bff0edd65ae15143a0fe054afdee219fff988ac",
            "reqSigs": 1,
            "type": "pubkeyhash",
            "addresses": [
              "LVqKH7U4mneUL2jRgE65wRtywtVeWq2153"
            ]
          }
        }, 
        {
          "value": 4.70070400,
          "n": 1,
          "scriptPubKey": {
            "asm": "OP_HASH160 75b77316f8d91ff71fb2819115d1b6b9e80ccee9 OP_EQUAL",
            "hex": "a91475b77316f8d91ff71fb2819115d1b6b9e80ccee987",
            "reqSigs": 1,
            "type": "scripthash",
            "addresses": [
              "MJdb4B3BMDrfpB1FpKsPYQ1tDHdkNa1oLB"
            ]
          }
        }
      ],
      "hex": "0100000001d628f539d2e0f0888f4fb5bea244a90ae9a7ab5dd03630fe2136baa7ea73d18401000000db00483045022100f757e140e60b3897e19b0cb2c2b7dbbffdc0028bfca28c0bb465049f2f5f26be02202e0be7f47008a034e1d960d9326e7ded957b20697d7f280925989de0279b8d8a01483045022100a7f77cc765e2efa6ab7c90916dda8660c88f217c7fd5827bdcd417d8a89cf87202204fe1d28d7308fa5a98f4cfde821934cf19292bbabcd534590a50356a0579d4880147522102f77ec37a042ba4e5e6aef7760398bf59b87ac4c5dee30a2fb8798e9630d4916e210276b93401dc495b28592f66411a7c9093b468f8678db51144fc6a36f550d94aa952aeffffffff02a41e6000000000001976a91474615bff0edd65ae15143a0fe054afdee219fff988ac80b4041c0000000017a91475b77316f8d91ff71fb2819115d1b6b9e80ccee98700000000"
    }, 
    {
      "txid": "208f08b943d4a209a28a28d7f48873489f59efd329449e111c7f148b5889d539",
      "hash": "208f08b943d4a209a28a28d7f48873489f59efd329449e111c7f148b5889d539",
      "version": 1,
      "size": 594,
      "vsize": 594,
      "locktime": 0,
      "vin": [
        {
          "txid": "ee07eeffdbdd9344c1a6d37d449795f089a89ed48351148df8dd5778d7587cf2",
          "vout": 1,
          "scriptSig": {
            "asm": "0 3045022100da759ded8d8880f32db62333f6a779951d181670b45b0fd0f8698a7af4ca47d2022043f6c30b51acb6693f79a3cdf9ded52b35fe878ea23d901c44dc48ef1d9c7b5b[ALL] 3045022100ab9eabb2df353f16b3eabf35f23e37e0a284500a0cb240f77955f781f5896ebf02207aeb943d160c78ea6adab57334d364feefd0f1911efd407847a50f23330e1bb3[ALL] 522103af3992aa4fc73390acefa84cf24aad6d92d49c2bed2c8e39777cb836564e71a32102e538f49b591fa7d428728c2a1657c5ffb126513689718a58a7564f345074316652ae",
            "hex": "00483045022100da759ded8d8880f32db62333f6a779951d181670b45b0fd0f8698a7af4ca47d2022043f6c30b51acb6693f79a3cdf9ded52b35fe878ea23d901c44dc48ef1d9c7b5b01483045022100ab9eabb2df353f16b3eabf35f23e37e0a284500a0cb240f77955f781f5896ebf02207aeb943d160c78ea6adab57334d364feefd0f1911efd407847a50f23330e1bb30147522103af3992aa4fc73390acefa84cf24aad6d92d49c2bed2c8e39777cb836564e71a32102e538f49b591fa7d428728c2a1657c5ffb126513689718a58a7564f345074316652ae"
          },
          "sequence": 4294967295
        }, 
        {
          "txid": "e290f250b7e2784b29e265e1f5b57cccb90ba4f5b6a4465beea3368bd70e6a74",
          "vout": 1,
          "scriptSig": {
            "asm": "0 3044022022177c482a455c6a689ad193eb665b5be841e9453af59b8e1f218e8937df2ed902202ee79bbedac1d5c08edf54a113148e2cb53908bc3016f18fee38a187f366275a[ALL] 304402206a092b3293cf01b417cdc7e3b1cad014626cf9d516ed309d559387ba497692d002201c26e144601dbfe9b0614c47db5f76fa5c17010ac5b33d5103075d3a4df2192b[ALL] 522103af3992aa4fc73390acefa84cf24aad6d92d49c2bed2c8e39777cb836564e71a32102e538f49b591fa7d428728c2a1657c5ffb126513689718a58a7564f345074316652ae",
            "hex": "00473044022022177c482a455c6a689ad193eb665b5be841e9453af59b8e1f218e8937df2ed902202ee79bbedac1d5c08edf54a113148e2cb53908bc3016f18fee38a187f366275a0147304402206a092b3293cf01b417cdc7e3b1cad014626cf9d516ed309d559387ba497692d002201c26e144601dbfe9b0614c47db5f76fa5c17010ac5b33d5103075d3a4df2192b0147522103af3992aa4fc73390acefa84cf24aad6d92d49c2bed2c8e39777cb836564e71a32102e538f49b591fa7d428728c2a1657c5ffb126513689718a58a7564f345074316652ae"
          },
          "sequence": 4294967295
        }
      ],
      "vout": [
        {
          "value": 0.05506400,
          "n": 0,
          "scriptPubKey": {
            "asm": "OP_DUP OP_HASH160 bf66921004267614e9e7cb38b7cbdcf1b498da17 OP_EQUALVERIFY OP_CHECKSIG",
            "hex": "76a914bf66921004267614e9e7cb38b7cbdcf1b498da1788ac",
            "reqSigs": 1,
            "type": "pubkeyhash",
            "addresses": [
              "LcfzCaatV38HvapwngWJsiSXNQLJoPp8dQ"
            ]
          }
        }, 
        {
          "value": 0.31868600,
          "n": 1,
          "scriptPubKey": {
            "asm": "OP_HASH160 cddbe6df68eb4959c4d1969fe445011491c50a27 OP_EQUAL",
            "hex": "a914cddbe6df68eb4959c4d1969fe445011491c50a2787",
            "reqSigs": 1,
            "type": "scripthash",
            "addresses": [
              "MSfeBoZUz7gQ7WHhW4CoL8U7LuyVzp9EuY"
            ]
          }
        }
      ],
      "hex": "0100000002f27c58d77857ddf88d145183d49ea889f09597447dd3a6c14493dddbffee07ee01000000db00483045022100da759ded8d8880f32db62333f6a779951d181670b45b0fd0f8698a7af4ca47d2022043f6c30b51acb6693f79a3cdf9ded52b35fe878ea23d901c44dc48ef1d9c7b5b01483045022100ab9eabb2df353f16b3eabf35f23e37e0a284500a0cb240f77955f781f5896ebf02207aeb943d160c78ea6adab57334d364feefd0f1911efd407847a50f23330e1bb30147522103af3992aa4fc73390acefa84cf24aad6d92d49c2bed2c8e39777cb836564e71a32102e538f49b591fa7d428728c2a1657c5ffb126513689718a58a7564f345074316652aeffffffff746a0ed78b36a3ee5b46a4b6f5a40bb9cc7cb5f5e165e2294b78e2b750f290e201000000d900473044022022177c482a455c6a689ad193eb665b5be841e9453af59b8e1f218e8937df2ed902202ee79bbedac1d5c08edf54a113148e2cb53908bc3016f18fee38a187f366275a0147304402206a092b3293cf01b417cdc7e3b1cad014626cf9d516ed309d559387ba497692d002201c26e144601dbfe9b0614c47db5f76fa5c17010ac5b33d5103075d3a4df2192b0147522103af3992aa4fc73390acefa84cf24aad6d92d49c2bed2c8e39777cb836564e71a32102e538f49b591fa7d428728c2a1657c5ffb126513689718a58a7564f345074316652aeffffffff0260055400000000001976a914bf66921004267614e9e7cb38b7cbdcf1b498da1788acb846e6010000000017a914cddbe6df68eb4959c4d1969fe445011491c50a278700000000"
    }, 
    {
      "txid": "f767b61eb450485197454184c7e9aceae37085da82589c648688b71172bffe86",
      "hash": "f767b61eb450485197454184c7e9aceae37085da82589c648688b71172bffe86",
      "version": 1,
      "size": 223,
      "vsize": 223,
      "locktime": 0,
      "vin": [
        {
          "txid": "eb5e9af5e239e325a6c837c30bb65af99450f8cea31c42e863af9a0dbcd53790",
          "vout": 0,
          "scriptSig": {
            "asm": "304402204ee363f50f2fb3cef8ce160125aa54efc74d7665ed6326204773e497c7f0c3610220202a3ac3e431c4adea7d7c68f5765594133b53b523fece7f766c74cbdd47a46a[ALL] 022950d38e3fbe43570f6b63b672e134decda1b6f59043fa7e00523b1d702368be",
            "hex": "47304402204ee363f50f2fb3cef8ce160125aa54efc74d7665ed6326204773e497c7f0c3610220202a3ac3e431c4adea7d7c68f5765594133b53b523fece7f766c74cbdd47a46a0121022950d38e3fbe43570f6b63b672e134decda1b6f59043fa7e00523b1d702368be"
          },
          "sequence": 4294967295
        }
      ],
      "vout": [
        {
          "value": 0.11952191,
          "n": 0,
          "scriptPubKey": {
            "asm": "OP_HASH160 97c091966147c096e6e279b9525e06be09284c3b OP_EQUAL",
            "hex": "a91497c091966147c096e6e279b9525e06be09284c3b87",
            "reqSigs": 1,
            "type": "scripthash",
            "addresses": [
              "MMjYxJcXyKkYCoiZGUqUMaNDnJtjDkKdFv"
            ]
          }
        }, 
        {
          "value": 0.00067523,
          "n": 1,
          "scriptPubKey": {
            "asm": "OP_DUP OP_HASH160 3e704983cb179fae31a1bb46256bd3ae0c5c88b5 OP_EQUALVERIFY OP_CHECKSIG",
            "hex": "76a9143e704983cb179fae31a1bb46256bd3ae0c5c88b588ac",
            "reqSigs": 1,
            "type": "pubkeyhash",
            "addresses": [
              "LQv6fxP5ZndUX8T4tNkcKpo56EYibTMKaG"
            ]
          }
        }
      ],
      "hex": "01000000019037d5bc0d9aaf63e8421ca3cef85094f95ab60bc337c8a625e339e2f59a5eeb000000006a47304402204ee363f50f2fb3cef8ce160125aa54efc74d7665ed6326204773e497c7f0c3610220202a3ac3e431c4adea7d7c68f5765594133b53b523fece7f766c74cbdd47a46a0121022950d38e3fbe43570f6b63b672e134decda1b6f59043fa7e00523b1d702368beffffffff023f60b6000000000017a91497c091966147c096e6e279b9525e06be09284c3b87c3070100000000001976a9143e704983cb179fae31a1bb46256bd3ae0c5c88b588ac00000000"
    }, 
    {
      "txid": "7c2e187393ad877e596c85b3ac4cf51591fa004c10daca6db62d548518b1ec92",
      "hash": "7c2e187393ad877e596c85b3ac4cf51591fa004c10daca6db62d548518b1ec92",
      "version": 2,
      "size": 351,
      "vsize": 351,
      "locktime": 1359057,
      "vin": [
        {
          "txid": "190073d8f941c131ab6acbeb77696de4b84d9456e5a6d69c44c8393aa7dbd3f0",
          "vout": 2,
          "scriptSig": {
            "asm": "304402202dc223914f9b16819758f772fd8fbec0a7e22bf6d49adf2ae56a5c0cc3fce32d02202d35e6d064eb2bdfaa9ea9255cb0a49afc2536c358040db82d5fb72a5c6bfda0[ALL] 033fe1747d6402558db332d9844f0a7e182eef47e48bf3678ca4efcfa84e09c0b3",
            "hex": "47304402202dc223914f9b16819758f772fd8fbec0a7e22bf6d49adf2ae56a5c0cc3fce32d02202d35e6d064eb2bdfaa9ea9255cb0a49afc2536c358040db82d5fb72a5c6bfda00121033fe1747d6402558db332d9844f0a7e182eef47e48bf3678ca4efcfa84e09c0b3"
          },
          "sequence": 4294967294
        }
      ],
      "vout": [
        {
          "value": 1.61333357,
          "n": 0,
          "scriptPubKey": {
            "asm": "OP_DUP OP_HASH160 94ca5fa76ff9a53a8dcde54522a69e01a614f052 OP_EQUALVERIFY OP_CHECKSIG",
            "hex": "76a91494ca5fa76ff9a53a8dcde54522a69e01a614f05288ac",
            "reqSigs": 1,
            "type": "pubkeyhash",
            "addresses": [
              "LYnghmhgkwbqRfjMUaD1USEH4GiZqvSDKC"
            ]
          }
        }, 
        {
          "value": 0.03511085,
          "n": 1,
          "scriptPubKey": {
            "asm": "OP_HASH160 da543673721e440e482810107087c5a1c50ec363 OP_EQUAL",
            "hex": "a914da543673721e440e482810107087c5a1c50ec36387",
            "reqSigs": 1,
            "type": "scripthash",
            "addresses": [
              "MToaRT4VC1jTfsztE2GRRoKXDC33bjA9AH"
            ]
          }
        }, 
        {
          "value": 0.04632180,
          "n": 2,
          "scriptPubKey": {
            "asm": "OP_HASH160 e60c80372c0b54b7c31d8a8b5f62746ccf6d6cc0 OP_EQUAL",
            "hex": "a914e60c80372c0b54b7c31d8a8b5f62746ccf6d6cc087",
            "reqSigs": 1,
            "type": "scripthash",
            "addresses": [
              "MUsYd8CRva3HjSsKo8kkrwNrTqfQgXwAsw"
            ]
          }
        }, 
        {
          "value": 0.05666704,
          "n": 3,
          "scriptPubKey": {
            "asm": "OP_HASH160 ee9f4092dc8d5e869a64b4c67a69dc03d9dc99dc OP_EQUAL",
            "hex": "a914ee9f4092dc8d5e869a64b4c67a69dc03d9dc99dc87",
            "reqSigs": 1,
            "type": "scripthash",
            "addresses": [
              "MVesq8EUKmxXW5Tu1GF1gbVVsrfbJWQgBV"
            ]
          }
        }, 
        {
          "value": 0.15596071,
          "n": 4,
          "scriptPubKey": {
            "asm": "OP_HASH160 f1d9a791b0c4f50f0fe2d09814bfd547f331b430 OP_EQUAL",
            "hex": "a914f1d9a791b0c4f50f0fe2d09814bfd547f331b43087",
            "reqSigs": 1,
            "type": "scripthash",
            "addresses": [
              "MVwwpZmQzsaYgm5rij6MtwUfibPFnfWQws"
            ]
          }
        }, 
        {
          "value": 1.02798772,
          "n": 5,
          "scriptPubKey": {
            "asm": "OP_HASH160 edaa118dacb4f5b875d7326dace5fa572a47b506 OP_EQUAL",
            "hex": "a914edaa118dacb4f5b875d7326dace5fa572a47b50687",
            "reqSigs": 1,
            "type": "scripthash",
            "addresses": [
              "MVZp7TwQ27xMW8fUtC2a7V2MEpdz9Vik3F"
            ]
          }
        }
      ],
      "hex": "0200000001f0d3dba73a39c8449cd6a6e556944db8e46d6977ebcb6aab31c141f9d8730019020000006a47304402202dc223914f9b16819758f772fd8fbec0a7e22bf6d49adf2ae56a5c0cc3fce32d02202d35e6d064eb2bdfaa9ea9255cb0a49afc2536c358040db82d5fb72a5c6bfda00121033fe1747d6402558db332d9844f0a7e182eef47e48bf3678ca4efcfa84e09c0b3feffffff066dc09d09000000001976a91494ca5fa76ff9a53a8dcde54522a69e01a614f05288ac2d9335000000000017a914da543673721e440e482810107087c5a1c50ec3638774ae46000000000017a914e60c80372c0b54b7c31d8a8b5f62746ccf6d6cc087907756000000000017a914ee9f4092dc8d5e869a64b4c67a69dc03d9dc99dc8727faed000000000017a914f1d9a791b0c4f50f0fe2d09814bfd547f331b43087b49520060000000017a914edaa118dacb4f5b875d7326dace5fa572a47b50687d1bc1400"
    }, 
    {
      "txid": "504e7ca25fffbdc6ea49e000d51f7ee346513399e06f93aa8e0fe4968d6bbeac",
      "hash": "504e7ca25fffbdc6ea49e000d51f7ee346513399e06f93aa8e0fe4968d6bbeac",
      "version": 2,
      "size": 373,
      "vsize": 373,
      "locktime": 1358987,
      "vin": [
        {
          "txid": "6c6779d310cf00b2ce978a152c832a95e9a762c17f0380c55f36db55973903d0",
          "vout": 0,
          "scriptSig": {
            "asm": "3045022100af3d63047d9b61e6bbef8500e3c7792553674f3e66bed92b0a531439182e493602206908e7cc4679ea2df2ef5e24438efc84ed0fdb4cf1705b088cd150423e80aad7[ALL] 025d02f951c511758f9cb14c92a3448464bf00976782958191c89e94d79c70637d",
            "hex": "483045022100af3d63047d9b61e6bbef8500e3c7792553674f3e66bed92b0a531439182e493602206908e7cc4679ea2df2ef5e24438efc84ed0fdb4cf1705b088cd150423e80aad70121025d02f951c511758f9cb14c92a3448464bf00976782958191c89e94d79c70637d"
          },
          "sequence": 4294967294
        }, 
        {
          "txid": "d984b2570866979e46ec60deb04a0eefcafb53a2001747679b40769232ca9601",
          "vout": 0,
          "scriptSig": {
            "asm": "304402203d709477e2f31bc0cdab30886a80fdaf1f404a2ab2bfa606d4dd33e6336e22c6022050bea9d71679302b8d32e987b1498930cf4d0f31f72b8bb1dd2a36683e8c0dfd[ALL] 03b2e4122dc2d55ae035107947b722aee9f8e1fe7859a23e45797c7870aa9dae67",
            "hex": "47304402203d709477e2f31bc0cdab30886a80fdaf1f404a2ab2bfa606d4dd33e6336e22c6022050bea9d71679302b8d32e987b1498930cf4d0f31f72b8bb1dd2a36683e8c0dfd012103b2e4122dc2d55ae035107947b722aee9f8e1fe7859a23e45797c7870aa9dae67"
          },
          "sequence": 4294967294
        }
      ],
      "vout": [
        {
          "value": 1.41827432,
          "n": 0,
          "scriptPubKey": {
            "asm": "OP_DUP OP_HASH160 457c1d4245b23e1da92bc4a20521af84ecc5e386 OP_EQUALVERIFY OP_CHECKSIG",
            "hex": "76a914457c1d4245b23e1da92bc4a20521af84ecc5e38688ac",
            "reqSigs": 1,
            "type": "pubkeyhash",
            "addresses": [
              "LRZMa4XG51DAk9LPzoDASkgtJYy5CNB36X"
            ]
          }
        }, 
        {
          "value": 0.10992448,
          "n": 1,
          "scriptPubKey": {
            "asm": "OP_DUP OP_HASH160 579b653f2d9861c8367fd4d7adba0766d73a4e13 OP_EQUALVERIFY OP_CHECKSIG",
            "hex": "76a914579b653f2d9861c8367fd4d7adba0766d73a4e1388ac",
            "reqSigs": 1,
            "type": "pubkeyhash",
            "addresses": [
              "LTDBCyFCsEyK2sQPuucCM6r6DyEsfDoYYv"
            ]
          }
        }
      ],
      "hex": "0200000002d003399755db365fc580037fc162a7e9952a832c158a97ceb200cf10d379676c000000006b483045022100af3d63047d9b61e6bbef8500e3c7792553674f3e66bed92b0a531439182e493602206908e7cc4679ea2df2ef5e24438efc84ed0fdb4cf1705b088cd150423e80aad70121025d02f951c511758f9cb14c92a3448464bf00976782958191c89e94d79c70637dfeffffff0196ca329276409b67471700a253fbcaef0e4ab0de60ec469e97660857b284d9000000006a47304402203d709477e2f31bc0cdab30886a80fdaf1f404a2ab2bfa606d4dd33e6336e22c6022050bea9d71679302b8d32e987b1498930cf4d0f31f72b8bb1dd2a36683e8c0dfd012103b2e4122dc2d55ae035107947b722aee9f8e1fe7859a23e45797c7870aa9dae67feffffff02681d7408000000001976a914457c1d4245b23e1da92bc4a20521af84ecc5e38688ac40bba700000000001976a914579b653f2d9861c8367fd4d7adba0766d73a4e1388ac8bbc1400"
    }, 
    {
      "txid": "15f51b453976a69123ca911e8b05725fc038d70aa2f54675d0f401b0ce88d8c9",
      "hash": "15f51b453976a69123ca911e8b05725fc038d70aa2f54675d0f401b0ce88d8c9",
      "version": 1,
      "size": 226,
      "vsize": 226,
      "locktime": 1359057,
      "vin": [
        {
          "txid": "1855965a82d4d9e4871a9c1f0caeb6d3c25a7d7e952fa5a0ffa1aa94ff2a8116",
          "vout": 0,
          "scriptSig": {
            "asm": "304502210093d31ee6908caea13776c83f3d2d8e25459ca76aae4972278b6d5a22449e1bfd02203acb06e4419fa1ee5e5e394d3e9615ad51bec542afaaa6f8bfd1b1f7402cf789[ALL] 0303cc96f39a3c095d3e9a2f5f049cc7aad9f748ce76bae07c71d9b054b128ae0f",
            "hex": "48304502210093d31ee6908caea13776c83f3d2d8e25459ca76aae4972278b6d5a22449e1bfd02203acb06e4419fa1ee5e5e394d3e9615ad51bec542afaaa6f8bfd1b1f7402cf78901210303cc96f39a3c095d3e9a2f5f049cc7aad9f748ce76bae07c71d9b054b128ae0f"
          },
          "sequence": 4294967294
        }
      ],
      "vout": [
        {
          "value": 0.10257971,
          "n": 0,
          "scriptPubKey": {
            "asm": "OP_DUP OP_HASH160 0e1b31bc9855679f92e29b5f9c7a04a7d01b28a9 OP_EQUALVERIFY OP_CHECKSIG",
            "hex": "76a9140e1b31bc9855679f92e29b5f9c7a04a7d01b28a988ac",
            "reqSigs": 1,
            "type": "pubkeyhash",
            "addresses": [
              "LLWYJPcHMgHmUPbytM55WXmAkiq4cnb4HA"
            ]
          }
        }, 
        {
          "value": 0.01052158,
          "n": 1,
          "scriptPubKey": {
            "asm": "OP_DUP OP_HASH160 b5d7eb526b7e589a5fd0c22ec0b38efc42d49a51 OP_EQUALVERIFY OP_CHECKSIG",
            "hex": "76a914b5d7eb526b7e589a5fd0c22ec0b38efc42d49a5188ac",
            "reqSigs": 1,
            "type": "pubkeyhash",
            "addresses": [
              "LboTEGLJkSWDpDQ2CcdCx4e7rX8UEYK5sH"
            ]
          }
        }
      ],
      "hex": "010000000116812aff94aaa1ffa0a52f957e7d5ac2d3b6ae0c1f9c1a87e4d9d4825a965518000000006b48304502210093d31ee6908caea13776c83f3d2d8e25459ca76aae4972278b6d5a22449e1bfd02203acb06e4419fa1ee5e5e394d3e9615ad51bec542afaaa6f8bfd1b1f7402cf78901210303cc96f39a3c095d3e9a2f5f049cc7aad9f748ce76bae07c71d9b054b128ae0ffeffffff0233869c00000000001976a9140e1b31bc9855679f92e29b5f9c7a04a7d01b28a988acfe0d1000000000001976a914b5d7eb526b7e589a5fd0c22ec0b38efc42d49a5188acd1bc1400"
    }, 
    {
      "txid": "fb2721ea7cf411ee9c03c437a63263b00f98a42b30491ecc6d2e0147904268e1",
      "hash": "fb2721ea7cf411ee9c03c437a63263b00f98a42b30491ecc6d2e0147904268e1",
      "version": 1,
      "size": 226,
      "vsize": 226,
      "locktime": 0,
      "vin": [
        {
          "txid": "d2a56f7f3b1bf44a71d90eb475f7e70c129c08eaeae2d374e35877861d0e5ee0",
          "vout": 1529,
          "scriptSig": {
            "asm": "3045022100a133ce8eb683bd54aa1ab7d06cca4909cf7e461174fd37cebc14866755d56937022067388d9063cce40ed3c0c1ee5bfbce9a31ae10b77aef7ed197e41bfa206d7c35[ALL] 024bc22ba4dc5b1bb54d46c28d111335fd9ea8202f06a1a8e21b4c6bc6031d2456",
            "hex": "483045022100a133ce8eb683bd54aa1ab7d06cca4909cf7e461174fd37cebc14866755d56937022067388d9063cce40ed3c0c1ee5bfbce9a31ae10b77aef7ed197e41bfa206d7c350121024bc22ba4dc5b1bb54d46c28d111335fd9ea8202f06a1a8e21b4c6bc6031d2456"
          },
          "sequence": 4294967295
        }
      ],
      "vout": [
        {
          "value": 0.00055345,
          "n": 0,
          "scriptPubKey": {
            "asm": "OP_DUP OP_HASH160 46b41da2ea024288cd12202089efa8db961daf09 OP_EQUALVERIFY OP_CHECKSIG",
            "hex": "76a91446b41da2ea024288cd12202089efa8db961daf0988ac",
            "reqSigs": 1,
            "type": "pubkeyhash",
            "addresses": [
              "LRfoLJb3JWug8HFjAnVMiBTv456XUgkR5q"
            ]
          }
        }, 
        {
          "value": 0.05663797,
          "n": 1,
          "scriptPubKey": {
            "asm": "OP_DUP OP_HASH160 8f9f1af17be46267a4ef4668d5adf5d090447db5 OP_EQUALVERIFY OP_CHECKSIG",
            "hex": "76a9148f9f1af17be46267a4ef4668d5adf5d090447db588ac",
            "reqSigs": 1,
            "type": "pubkeyhash",
            "addresses": [
              "LYKMVUHByZmYDPNmsPfNTzLdQgv8SbUajY"
            ]
          }
        }
      ],
      "hex": "0100000001e05e0e1d867758e374d3e2eaea089c120ce7f775b40ed9714af41b3b7f6fa5d2f90500006b483045022100a133ce8eb683bd54aa1ab7d06cca4909cf7e461174fd37cebc14866755d56937022067388d9063cce40ed3c0c1ee5bfbce9a31ae10b77aef7ed197e41bfa206d7c350121024bc22ba4dc5b1bb54d46c28d111335fd9ea8202f06a1a8e21b4c6bc6031d2456ffffffff0231d80000000000001976a91446b41da2ea024288cd12202089efa8db961daf0988ac356c5600000000001976a9148f9f1af17be46267a4ef4668d5adf5d090447db588ac00000000"
    }, 
    {
      "txid": "93725ac8898caa91e65fe96c99513646f6c0c2cae83c351b6fca15d1f3a299fc",
      "hash": "93725ac8898caa91e65fe96c99513646f6c0c2cae83c351b6fca15d1f3a299fc",
      "version": 1,
      "size": 226,
      "vsize": 226,
      "locktime": 0,
      "vin": [
        {
          "txid": "d2789f607038ce229d17f0602fdfa4ab4c3d3008ed148bb55355dafb3468d7aa",
          "vout": 1,
          "scriptSig": {
            "asm": "3045022100c46f23edb89475a1c3852c6d90ba726abc4f43fe64b47698d70e18585115110302202fb02ca8987d722c51017a83be32b98a8c27e51e4461d99545ce301ba9cf9175[ALL] 026b1bae5a9f01b6756b5f7f9e278da5574c7e1db3b19a09e8f721cebb07892f0d",
            "hex": "483045022100c46f23edb89475a1c3852c6d90ba726abc4f43fe64b47698d70e18585115110302202fb02ca8987d722c51017a83be32b98a8c27e51e4461d99545ce301ba9cf91750121026b1bae5a9f01b6756b5f7f9e278da5574c7e1db3b19a09e8f721cebb07892f0d"
          },
          "sequence": 4294967295
        }
      ],
      "vout": [
        {
          "value": 1.31405966,
          "n": 0,
          "scriptPubKey": {
            "asm": "OP_DUP OP_HASH160 f3bf58a1a373519d3a628738bf2f23e6d8305538 OP_EQUALVERIFY OP_CHECKSIG",
            "hex": "76a914f3bf58a1a373519d3a628738bf2f23e6d830553888ac",
            "reqSigs": 1,
            "type": "pubkeyhash",
            "addresses": [
              "LhSmgo7zLQJc3aoAsPsHLLzDEJ9tdjQvrU"
            ]
          }
        }, 
        {
          "value": 70.61774427,
          "n": 1,
          "scriptPubKey": {
            "asm": "OP_DUP OP_HASH160 38b97bb17c87587a2f7c7de382a4893f099dcd9c OP_EQUALVERIFY OP_CHECKSIG",
            "hex": "76a91438b97bb17c87587a2f7c7de382a4893f099dcd9c88ac",
            "reqSigs": 1,
            "type": "pubkeyhash",
            "addresses": [
              "LQPtJZ1ABLggWHJeq1FsTYCXMys2E7vbSt"
            ]
          }
        }
      ],
      "hex": "0100000001aad76834fbda5553b58b14ed08303d4caba4df2f60f0179d22ce3870609f78d2010000006b483045022100c46f23edb89475a1c3852c6d90ba726abc4f43fe64b47698d70e18585115110302202fb02ca8987d722c51017a83be32b98a8c27e51e4461d99545ce301ba9cf91750121026b1bae5a9f01b6756b5f7f9e278da5574c7e1db3b19a09e8f721cebb07892f0dffffffff028e18d507000000001976a914f3bf58a1a373519d3a628738bf2f23e6d830553888ac5b20eaa4010000001976a91438b97bb17c87587a2f7c7de382a4893f099dcd9c88ac00000000"
    }
  ],
  "time": 1517230987,
  "mediantime": 1517230187,
  "nonce": 43388859,
  "bits": "1a042eae",
  "difficulty": 4011378.762614286,
  "chainwork": "000000000000000000000000000000000000000000000033a6a3ce66ad9e64a8",
  "previousblockhash": "d5ddb22f9febb41c314a52ee7526dbc957512cd9ac94dbae7570bedc42f27e7e",
  "nextblockhash": "6928cb806da305ff7f1fb34547d50d27becccda5122a74d8642e9327d9ea6cac"
}
