{
  "hash": "550c784d9d44c8bf35cd883e69771e09a2a2ed8570d574fdd84b6eb28d4ca654",
  "confirmations": 3230,
  "strippedsize": 253,
  "size": 253,
  "weight": 1012,
  "height": 1357765,
  "version": 536870912,
  "versionHex": "20000000",
  "merkleroot": "f7528477d8db01fb4598cb7b27a8ece0a16bee5ef4e2f17db9ab645db507db0f",
  "tx": [
    {
      "txid": "f7528477d8db01fb4598cb7b27a8ece0a16bee5ef4e2f17db9ab645db507db0f",
      "hash": "f7528477d8db01fb4598cb7b27a8ece0a16bee5ef4e2f17db9ab645db507db0f",
      "version": 1,
      "size": 172,
      "vsize": 172,
      "locktime": 0,
      "vin": [
        {
          "coinbase": "03c5b7141a4d696e656420627920416e74506f6f6c20626a3242205a6c478cfabe6d6d16cc975fbed8e8ea49ff6d242a304125d4a071e17e578caac7a6e03d65c5584a0400000000000000b10000000000000012000000",
          "sequence": 4294967295
        }
      ],
      "vout": [
        {
          "value": 25.00000000,
          "n": 0,
          "scriptPubKey": {
            "asm": "OP_DUP OP_HASH160 0ff3ccc5e8be88afe24b5d634e5852d474dbdff1 OP_EQUALVERIFY OP_CHECKSIG",
            "hex": "76a9140ff3ccc5e8be88afe24b5d634e5852d474dbdff188ac",
            "reqSigs": 1,
            "type": "pubkeyhash",
            "addresses": [
              "LLgJTbzZMsRTCUF1NtvvL9SR1a4pVieW89"
            ]
          }
        }
      ],
      "hex": "01000000010000000000000000000000000000000000000000000000000000000000000000ffffffff5703c5b7141a4d696e656420627920416e74506f6f6c20626a3242205a6c478cfabe6d6d16cc975fbed8e8ea49ff6d242a304125d4a071e17e578caac7a6e03d65c5584a0400000000000000b10000000000000012000000ffffffff0100f90295000000001976a9140ff3ccc5e8be88afe24b5d634e5852d474dbdff188ac00000000"
    }
  ],
  "time": 1517045644,
  "mediantime": 1517045052,
  "nonce": 775163801,
  "bits": "1a047f14",
  "difficulty": 3731199.183374282,
  "chainwork": "000000000000000000000000000000000000000000000032823ea7865ea9a51c",
  "previousblockhash": "0a7f266b160a3c11decfd45196bd6ac3e629e588a1fe894eae898d1672d493ef",
  "nextblockhash": "cda5f7e33177b019082bb8961afc491b2cf35236cfee2ada48018b2a0f8b5079"
}
