{
  "hash": "552c81780cf0fb1befe6058abc5910d9d755291130d16d5e0f8d54363aecd1ce",
  "confirmations": 815,
  "strippedsize": 254,
  "size": 254,
  "weight": 1016,
  "height": 1360179,
  "version": 536870912,
  "versionHex": "20000000",
  "merkleroot": "a1095c40be22ef15d67efef542ff96c3617af7f73a158170cd7c9f72fd44c2c5",
  "tx": [
    {
      "txid": "a1095c40be22ef15d67efef542ff96c3617af7f73a158170cd7c9f72fd44c2c5",
      "hash": "a1095c40be22ef15d67efef542ff96c3617af7f73a158170cd7c9f72fd44c2c5",
      "version": 1,
      "size": 173,
      "vsize": 173,
      "locktime": 0,
      "vin": [
        {
          "coinbase": "0333c1141b4d696e656420627920416e74506f6f6c20626a312045205a717927fabe6d6de301b32e7c1337db4381c57fbe888fde85fa596f9667a01988eb22a235805d1a04000000000000001b290000000000001c000000",
          "sequence": 4294967295
        }
      ],
      "vout": [
        {
          "value": 25.00000000,
          "n": 0,
          "scriptPubKey": {
            "asm": "OP_DUP OP_HASH160 0ff3ccc5e8be88afe24b5d634e5852d474dbdff1 OP_EQUALVERIFY OP_CHECKSIG",
            "hex": "76a9140ff3ccc5e8be88afe24b5d634e5852d474dbdff188ac",
            "reqSigs": 1,
            "type": "pubkeyhash",
            "addresses": [
              "LLgJTbzZMsRTCUF1NtvvL9SR1a4pVieW89"
            ]
          }
        }
      ],
      "hex": "01000000010000000000000000000000000000000000000000000000000000000000000000ffffffff580333c1141b4d696e656420627920416e74506f6f6c20626a312045205a717927fabe6d6de301b32e7c1337db4381c57fbe888fde85fa596f9667a01988eb22a235805d1a04000000000000001b290000000000001c000000ffffffff0100f90295000000001976a9140ff3ccc5e8be88afe24b5d634e5852d474dbdff188ac00000000"
    }
  ],
  "time": 1517386023,
  "mediantime": 1517385263,
  "nonce": 2842299994,
  "bits": "1a042eae",
  "difficulty": 4011378.762614286,
  "chainwork": "000000000000000000000000000000000000000000000034b26eb047b043fd68",
  "previousblockhash": "90586ba52a0a2d966b4e37a97007a8fa8cec89f4f765ea9ecfbfccdba73e9cbb",
  "nextblockhash": "7bd764c4c3f561fe6a2322a09a3c6956515a5d4e4fb7585d3558480a536e5432"
}
