{
  "hash": "55b42e7cc306733c58361d17bd3cc5e28f50eacbb03c24a84c78dfe905189422",
  "confirmations": 1381,
  "strippedsize": 234,
  "size": 234,
  "weight": 936,
  "height": 1359613,
  "version": 536870912,
  "versionHex": "20000000",
  "merkleroot": "01d6de14a51c3f9d9951561f929037e7857df20ee381d248ec7c6250ed15b674",
  "tx": [
    {
      "txid": "01d6de14a51c3f9d9951561f929037e7857df20ee381d248ec7c6250ed15b674",
      "hash": "01d6de14a51c3f9d9951561f929037e7857df20ee381d248ec7c6250ed15b674",
      "version": 1,
      "size": 153,
      "vsize": 153,
      "locktime": 0,
      "vin": [
        {
          "coinbase": "03fdbe14045a7046082cfabe6d6d5f3268c442579cb8b721a99983173e2af41b380c138ce4128ea603b72788d3984000000000000000042f4c502f085c006f7263100000",
          "sequence": 4294967295
        }
      ],
      "vout": [
        {
          "value": 25.00000000,
          "n": 0,
          "scriptPubKey": {
            "asm": "OP_DUP OP_HASH160 57757ed2ecf2052ff3126c397aca7defb9ca2cec OP_EQUALVERIFY OP_CHECKSIG",
            "hex": "76a91457757ed2ecf2052ff3126c397aca7defb9ca2cec88ac",
            "reqSigs": 1,
            "type": "pubkeyhash",
            "addresses": [
              "LTCPodGk5FwcJaRzH9yKnwicxzFUbxp6tN"
            ]
          }
        }
      ],
      "hex": "01000000010000000000000000000000000000000000000000000000000000000000000000ffffffff4403fdbe14045a7046082cfabe6d6d5f3268c442579cb8b721a99983173e2af41b380c138ce4128ea603b72788d3984000000000000000042f4c502f085c006f7263100000ffffffff0100f90295000000001976a91457757ed2ecf2052ff3126c397aca7defb9ca2cec88ac00000000"
    }
  ],
  "time": 1517307400,
  "mediantime": 1517306607,
  "nonce": 3095939080,
  "bits": "1a042eae",
  "difficulty": 4011378.762614286,
  "chainwork": "0000000000000000000000000000000000000000000000342b19fd37597137fc",
  "previousblockhash": "9c1acb26193730735076523dca8b39f6df85666b8b760763d541eb6647c8036d",
  "nextblockhash": "2d08b63dcdc386f3e687e10989ff2d6c7161f81adc7870a78e644c47bb2f63bb"
}
