{
  "hash": "55b548fc12825618c79589cd301c3e2c032a584d07d2bb6e2d520b4c72979cd5",
  "confirmations": 2567,
  "strippedsize": 3313,
  "size": 3349,
  "weight": 13288,
  "height": 1358428,
  "version": 536870912,
  "versionHex": "20000000",
  "merkleroot": "7b6f20ecee7f71bcb5b59e2a0a29954d2341025ccbb57b237b5086fe0bacd4c8",
  "tx": [
    {
      "txid": "23198ab34ca34af96bc0f330ebd6abbc2db8561df518721ec0a53ceaa764d3fe",
      "hash": "16b6c3b37aeae4db45f4058405e96e349337a53a769faeb15dfc44aa560e016e",
      "version": 1,
      "size": 236,
      "vsize": 209,
      "locktime": 0,
      "vin": [
        {
          "coinbase": "035cba14045a6dbb172cfabe6d6dd75b45c7e5a373246bdbdba5a5644be2c8a161b754bd1af8996c5aa3a4ce40ae4000000000000000042f4c502f0858002d7b3f000000",
          "sequence": 4294967295
        }
      ],
      "vout": [
        {
          "value": 25.02099637,
          "n": 0,
          "scriptPubKey": {
            "asm": "OP_DUP OP_HASH160 57757ed2ecf2052ff3126c397aca7defb9ca2cec OP_EQUALVERIFY OP_CHECKSIG",
            "hex": "76a91457757ed2ecf2052ff3126c397aca7defb9ca2cec88ac",
            "reqSigs": 1,
            "type": "pubkeyhash",
            "addresses": [
              "LTCPodGk5FwcJaRzH9yKnwicxzFUbxp6tN"
            ]
          }
        }, 
        {
          "value": 0.00000000,
          "n": 1,
          "scriptPubKey": {
            "asm": "OP_RETURN aa21a9ed8be009d81b297be86aca8e6278ab96862d4086053c467826475d0042208ccdec",
            "hex": "6a24aa21a9ed8be009d81b297be86aca8e6278ab96862d4086053c467826475d0042208ccdec",
            "type": "nulldata"
          }
        }
      ],
      "hex": "010000000001010000000000000000000000000000000000000000000000000000000000000000ffffffff44035cba14045a6dbb172cfabe6d6dd75b45c7e5a373246bdbdba5a5644be2c8a161b754bd1af8996c5aa3a4ce40ae4000000000000000042f4c502f0858002d7b3f000000ffffffff02b5022395000000001976a91457757ed2ecf2052ff3126c397aca7defb9ca2cec88ac0000000000000000266a24aa21a9ed8be009d81b297be86aca8e6278ab96862d4086053c467826475d0042208ccdec0120000000000000000000000000000000000000000000000000000000000000000000000000"
    }, 
    {
      "txid": "74f4d61683f0413ccf8bb47e69ab368e200b643b8512d6668e0b04a468095efa",
      "hash": "74f4d61683f0413ccf8bb47e69ab368e200b643b8512d6668e0b04a468095efa",
      "version": 1,
      "size": 593,
      "vsize": 593,
      "locktime": 0,
      "vin": [
        {
          "txid": "5df2edb9168ac6db2e8a8728842df9e206a9c4a90f91a0424e3b758755be8187",
          "vout": 0,
          "scriptSig": {
            "asm": "0 30440220461313ff67fa1dedbadb5731b3bd9c9cdb3db861b7383062805e9c5a3b04b61302204aa5ddc7aa3b8be7f1e3ac8d0fc4e9e255f027a24b3295ad1b7f7c4fa24da74f[ALL] 3044022036986734b3d6d9a02cce7057a8147a03db81fe4bbeb43c4796949d01d8d9298a02204b8e19998d7b6e28e936bd471ef677e977e4dc6e94f2ccc7ad02b6c0514f5753[ALL] 52210213ecd6e63951a5bc27aa5bf170cfab6ebe8012f0d67c420ef72b6e49b63195e22102dfaf587d26948a709f83c4806980a9ea83e568c44254674a06d18f50447d03072103dfceaf1479ccc7f7d0abb79326ffdd805eea0239d32cafc3adf8510b07de68a153ae",
            "hex": "004730440220461313ff67fa1dedbadb5731b3bd9c9cdb3db861b7383062805e9c5a3b04b61302204aa5ddc7aa3b8be7f1e3ac8d0fc4e9e255f027a24b3295ad1b7f7c4fa24da74f01473044022036986734b3d6d9a02cce7057a8147a03db81fe4bbeb43c4796949d01d8d9298a02204b8e19998d7b6e28e936bd471ef677e977e4dc6e94f2ccc7ad02b6c0514f5753014c6952210213ecd6e63951a5bc27aa5bf170cfab6ebe8012f0d67c420ef72b6e49b63195e22102dfaf587d26948a709f83c4806980a9ea83e568c44254674a06d18f50447d03072103dfceaf1479ccc7f7d0abb79326ffdd805eea0239d32cafc3adf8510b07de68a153ae"
          },
          "sequence": 4294967295
        }
      ],
      "vout": [
        {
          "value": 4.96416000,
          "n": 0,
          "scriptPubKey": {
            "asm": "OP_HASH160 7d673834902d95c181898f3588a6206d5ace9f29 OP_EQUAL",
            "hex": "a9147d673834902d95c181898f3588a6206d5ace9f2987",
            "reqSigs": 1,
            "type": "scripthash",
            "addresses": [
              "MKLEMEFGpcMZc93CcnbwYpynhxX5ZaZyJ1"
            ]
          }
        }, 
        {
          "value": 9.66856000,
          "n": 1,
          "scriptPubKey": {
            "asm": "OP_HASH160 2137f04c73d169f91769f149d38337e59f3a075a OP_EQUAL",
            "hex": "a9142137f04c73d169f91769f149d38337e59f3a075a87",
            "reqSigs": 1,
            "type": "scripthash",
            "addresses": [
              "MAvoYStv2Cr1ohAmUVvupwd9ZMvRWy6Hqa"
            ]
          }
        }, 
        {
          "value": 15.00000000,
          "n": 2,
          "scriptPubKey": {
            "asm": "OP_DUP OP_HASH160 a712c86cd652492fae7d0c177f6728c18f976bc6 OP_EQUALVERIFY OP_CHECKSIG",
            "hex": "76a914a712c86cd652492fae7d0c177f6728c18f976bc688ac",
            "reqSigs": 1,
            "type": "pubkeyhash",
            "addresses": [
              "LaTMcJq53Ji7RCVQeUAeLdBvXEWhwKrRha"
            ]
          }
        }, 
        {
          "value": 3.81616000,
          "n": 3,
          "scriptPubKey": {
            "asm": "OP_HASH160 0521e2233ba537a8ff0a0103814df05228045b76 OP_EQUAL",
            "hex": "a9140521e2233ba537a8ff0a0103814df05228045b7687",
            "reqSigs": 1,
            "type": "scripthash",
            "addresses": [
              "M8NJCeQergKcf8nJx7wHuVuuo1ySb34wjY"
            ]
          }
        }, 
        {
          "value": 8.91416000,
          "n": 4,
          "scriptPubKey": {
            "asm": "OP_HASH160 7200c9cc5d9297dd5ccf21b9cb449a3f59b2d6ca OP_EQUAL",
            "hex": "a9147200c9cc5d9297dd5ccf21b9cb449a3f59b2d6ca87",
            "reqSigs": 1,
            "type": "scripthash",
            "addresses": [
              "MJHxD4xq3ppFvJcouiThbr1X8P2cibGn87"
            ]
          }
        }, 
        {
          "value": 7.96716000,
          "n": 5,
          "scriptPubKey": {
            "asm": "OP_HASH160 6a59bc5d1b4301a0b23ee90a48292d582c20f9b1 OP_EQUAL",
            "hex": "a9146a59bc5d1b4301a0b23ee90a48292d582c20f9b187",
            "reqSigs": 1,
            "type": "scripthash",
            "addresses": [
              "MHbVMiWuYx2n5daw7EpwiLZWYoA2pCKVUE"
            ]
          }
        }, 
        {
          "value": 9.51424000,
          "n": 6,
          "scriptPubKey": {
            "asm": "OP_HASH160 24b94f4972df530c9971ce471a29399f70491e02 OP_EQUAL",
            "hex": "a91424b94f4972df530c9971ce471a29399f70491e0287",
            "reqSigs": 1,
            "type": "scripthash",
            "addresses": [
              "MBFLYt3AJiaXszhX4KNDZiozpk5rN67NSe"
            ]
          }
        }, 
        {
          "value": 7.93526000,
          "n": 7,
          "scriptPubKey": {
            "asm": "OP_HASH160 73fa5de68ab5f2484f44f00ac8aea00eec286b61 OP_EQUAL",
            "hex": "a91473fa5de68ab5f2484f44f00ac8aea00eec286b6187",
            "reqSigs": 1,
            "type": "scripthash",
            "addresses": [
              "MJUPsHF3Hz6Yu5goCK5unCyCt7Q5G7nDrb"
            ]
          }
        }, 
        {
          "value": 4.24226000,
          "n": 8,
          "scriptPubKey": {
            "asm": "OP_HASH160 1a2d9cc80a2abf1fdc18d43f2b6f0f6b10ccacca OP_EQUAL",
            "hex": "a9141a2d9cc80a2abf1fdc18d43f2b6f0f6b10ccacca87",
            "reqSigs": 1,
            "type": "scripthash",
            "addresses": [
              "MAHaSdC46JgercC6RxAopST9bb2FsFdKJo"
            ]
          }
        }
      ],
      "hex": "01000000018781be5587753b4e42a0910fa9c4a906e2f92d8428878a2edbc68a16b9edf25d00000000fc004730440220461313ff67fa1dedbadb5731b3bd9c9cdb3db861b7383062805e9c5a3b04b61302204aa5ddc7aa3b8be7f1e3ac8d0fc4e9e255f027a24b3295ad1b7f7c4fa24da74f01473044022036986734b3d6d9a02cce7057a8147a03db81fe4bbeb43c4796949d01d8d9298a02204b8e19998d7b6e28e936bd471ef677e977e4dc6e94f2ccc7ad02b6c0514f5753014c6952210213ecd6e63951a5bc27aa5bf170cfab6ebe8012f0d67c420ef72b6e49b63195e22102dfaf587d26948a709f83c4806980a9ea83e568c44254674a06d18f50447d03072103dfceaf1479ccc7f7d0abb79326ffdd805eea0239d32cafc3adf8510b07de68a153aeffffffff0900b5961d0000000017a9147d673834902d95c181898f3588a6206d5ace9f2987400da1390000000017a9142137f04c73d169f91769f149d38337e59f3a075a87002f6859000000001976a914a712c86cd652492fae7d0c177f6728c18f976bc688ac80ffbe160000000017a9140521e2233ba537a8ff0a0103814df05228045b7687c0ed21350000000017a9147200c9cc5d9297dd5ccf21b9cb449a3f59b2d6ca87e0eb7c2f0000000017a9146a59bc5d1b4301a0b23ee90a48292d582c20f9b1870094b5380000000017a91424b94f4972df530c9971ce471a29399f70491e0287f03e4c2f0000000017a91473fa5de68ab5f2484f44f00ac8aea00eec286b6187d02c49190000000017a9141a2d9cc80a2abf1fdc18d43f2b6f0f6b10ccacca8700000000"
    }, 
    {
      "txid": "faa118415d84751c9c27666c2e799101e9f95ad647f3a9c2458005c80384ad9f",
      "hash": "faa118415d84751c9c27666c2e799101e9f95ad647f3a9c2458005c80384ad9f",
      "version": 1,
      "size": 226,
      "vsize": 226,
      "locktime": 0,
      "vin": [
        {
          "txid": "1aaccf430997e187664cadbcab58be3e2ef516d09577b487bd4c2848992cfd01",
          "vout": 158,
          "scriptSig": {
            "asm": "3045022100dba9e6aeb346e76a7827add8ad61416225d3bedc96f04206a78cb6f4091085c5022009a2d823a0a0a6de741b6216da8d58ebc2dc9848d9d77ad31e473affc41a93f8[ALL] 03f3f7e08dd1615504b0f1917dc74eb1412c71948531eeca3c41174c07d77b076e",
            "hex": "483045022100dba9e6aeb346e76a7827add8ad61416225d3bedc96f04206a78cb6f4091085c5022009a2d823a0a0a6de741b6216da8d58ebc2dc9848d9d77ad31e473affc41a93f8012103f3f7e08dd1615504b0f1917dc74eb1412c71948531eeca3c41174c07d77b076e"
          },
          "sequence": 4294967295
        }
      ],
      "vout": [
        {
          "value": 0.06675007,
          "n": 0,
          "scriptPubKey": {
            "asm": "OP_DUP OP_HASH160 b13a34922d5d8761915abe4829362c295563f1d3 OP_EQUALVERIFY OP_CHECKSIG",
            "hex": "76a914b13a34922d5d8761915abe4829362c295563f1d388ac",
            "reqSigs": 1,
            "type": "pubkeyhash",
            "addresses": [
              "LbP3bM2BcNUU4XEJxjMr1zdEKnVUyJPSy4"
            ]
          }
        }, 
        {
          "value": 0.01002887,
          "n": 1,
          "scriptPubKey": {
            "asm": "OP_DUP OP_HASH160 0c9255489434a9a2e9246d7e871c92fdcc7e9302 OP_EQUALVERIFY OP_CHECKSIG",
            "hex": "76a9140c9255489434a9a2e9246d7e871c92fdcc7e930288ac",
            "reqSigs": 1,
            "type": "pubkeyhash",
            "addresses": [
              "LLNRfvJ8i9kpN9dH3EK7nkLrdYiVHUktyW"
            ]
          }
        }
      ],
      "hex": "010000000101fd2c9948284cbd87b47795d016f52e3ebe58abbcad4c6687e1970943cfac1a9e0000006b483045022100dba9e6aeb346e76a7827add8ad61416225d3bedc96f04206a78cb6f4091085c5022009a2d823a0a0a6de741b6216da8d58ebc2dc9848d9d77ad31e473affc41a93f8012103f3f7e08dd1615504b0f1917dc74eb1412c71948531eeca3c41174c07d77b076effffffff023fda6500000000001976a914b13a34922d5d8761915abe4829362c295563f1d388ac874d0f00000000001976a9140c9255489434a9a2e9246d7e871c92fdcc7e930288ac00000000"
    }, 
    {
      "txid": "e9e984dd27f5c47662d23304342b8b6a0956c88b120b279049b56ddeebe75e52",
      "hash": "e9e984dd27f5c47662d23304342b8b6a0956c88b120b279049b56ddeebe75e52",
      "version": 1,
      "size": 339,
      "vsize": 339,
      "locktime": 0,
      "vin": [
        {
          "txid": "f8ba1a46cb2e3084acc9419e2ce81807e328536539007c345a6d5f5e350ca211",
          "vout": 0,
          "scriptSig": {
            "asm": "3045022100c4525b935835e4045b76fbc8892650e06a5f10fefe93fc6bc7a0731958d2004d02204eee2021beaa3a78f15141f0c5937174a8cb0ee471e89c82dcdcd9b77310c383[ALL] 03f614026098ca7b32dba8928d55ec41badd35b2446c1144610d8224503693cf06",
            "hex": "483045022100c4525b935835e4045b76fbc8892650e06a5f10fefe93fc6bc7a0731958d2004d02204eee2021beaa3a78f15141f0c5937174a8cb0ee471e89c82dcdcd9b77310c383012103f614026098ca7b32dba8928d55ec41badd35b2446c1144610d8224503693cf06"
          },
          "sequence": 4294967295
        }, 
        {
          "txid": "1b7eb2191f826f9e17ae8a372cd51a2370991a7959d8d82c421608cb26431805",
          "vout": 1,
          "scriptSig": {
            "asm": "304402200931e8fe97a8ee5bd064e4757d42ae5f6d1691cac2f250f2638302433db1f59f0220599446fddb8dd102178d0471d828f22b86491380c342ce9640a5a4bf1817c395[ALL] 02e67268ce74440fca57c6273d8d74819729b64948e190f5b0fea05261e8e04adf",
            "hex": "47304402200931e8fe97a8ee5bd064e4757d42ae5f6d1691cac2f250f2638302433db1f59f0220599446fddb8dd102178d0471d828f22b86491380c342ce9640a5a4bf1817c395012102e67268ce74440fca57c6273d8d74819729b64948e190f5b0fea05261e8e04adf"
          },
          "sequence": 4294967295
        }
      ],
      "vout": [
        {
          "value": 1.99800000,
          "n": 0,
          "scriptPubKey": {
            "asm": "OP_DUP OP_HASH160 dfa3bdca8b6ab5f88c594f4cdf0e4fe170234248 OP_EQUALVERIFY OP_CHECKSIG",
            "hex": "76a914dfa3bdca8b6ab5f88c594f4cdf0e4fe17023424888ac",
            "reqSigs": 1,
            "type": "pubkeyhash",
            "addresses": [
              "LfcT6wYKtWFXvFGDxmYk22SG6hnXrrpafM"
            ]
          }
        }
      ],
      "hex": "010000000211a20c355e5f6d5a347c0039655328e30718e82c9e41c9ac84302ecb461abaf8000000006b483045022100c4525b935835e4045b76fbc8892650e06a5f10fefe93fc6bc7a0731958d2004d02204eee2021beaa3a78f15141f0c5937174a8cb0ee471e89c82dcdcd9b77310c383012103f614026098ca7b32dba8928d55ec41badd35b2446c1144610d8224503693cf06ffffffff05184326cb0816422cd8d859791a9970231ad52c378aae179e6f821f19b27e1b010000006a47304402200931e8fe97a8ee5bd064e4757d42ae5f6d1691cac2f250f2638302433db1f59f0220599446fddb8dd102178d0471d828f22b86491380c342ce9640a5a4bf1817c395012102e67268ce74440fca57c6273d8d74819729b64948e190f5b0fea05261e8e04adfffffffff01c0b4e80b000000001976a914dfa3bdca8b6ab5f88c594f4cdf0e4fe17023424888ac00000000"
    }, 
    {
      "txid": "0af361247ef31106f3ae7703dd054e459d3dc648fbda8bd6f38df33f82c9ab49",
      "hash": "0af361247ef31106f3ae7703dd054e459d3dc648fbda8bd6f38df33f82c9ab49",
      "version": 2,
      "size": 521,
      "vsize": 521,
      "locktime": 0,
      "vin": [
        {
          "txid": "6cf0e44c33bd2c4941795d1885e0cdda427fb6c54e5611d41f28bf03642e8804",
          "vout": 10,
          "scriptSig": {
            "asm": "30450221009de4f7097c2ac1902243c7fb60069df51bc3ffc8b380cc3d4511dcac250533f80220076431732e410605b94f0ec7cca0860a2c120fee442754855f2d2be306ffecb7[ALL] 02a61080ea8a78b36ebb6b3604136d2bfbe5946fe2f1f11053d6413c532244e1f5",
            "hex": "4830450221009de4f7097c2ac1902243c7fb60069df51bc3ffc8b380cc3d4511dcac250533f80220076431732e410605b94f0ec7cca0860a2c120fee442754855f2d2be306ffecb7012102a61080ea8a78b36ebb6b3604136d2bfbe5946fe2f1f11053d6413c532244e1f5"
          },
          "sequence": 4294967295
        }, 
        {
          "txid": "f3de4ba3e90089ab5ab684114fb9bd9705fa4fc6c7418e12196d79be5d83476a",
          "vout": 1,
          "scriptSig": {
            "asm": "304402204dee520418e10f6608b2ea5131ce4a01a64f5fc57bf47c52c007f743965c1c7102203484639b60689f76da1e06e530c7d15e11d441420a4ca7cd1a5ca777d6bb0ab3[ALL] 026e1da9a8b63f5a35724e07ba9e4a14c14797c5c42f82380bb8aec57d382adcb0",
            "hex": "47304402204dee520418e10f6608b2ea5131ce4a01a64f5fc57bf47c52c007f743965c1c7102203484639b60689f76da1e06e530c7d15e11d441420a4ca7cd1a5ca777d6bb0ab30121026e1da9a8b63f5a35724e07ba9e4a14c14797c5c42f82380bb8aec57d382adcb0"
          },
          "sequence": 4294967295
        }, 
        {
          "txid": "9be0c05434152356ca074aacfe3e1feee7ae7b032be24602109c3e32190c7094",
          "vout": 1,
          "scriptSig": {
            "asm": "3045022100ef35f5a09dd6ae93029e0d82013cb67217024ebfb1e70bf5425b8afd53b6234702203967e4ea5bec4971e239dcd66633fece89ee9d511a5f9b4774c27a62ddab96bf[ALL] 0249ed268845325edbf7f6f36762cf868b48ab3c0a2663f6693ccd94e889fa51ad",
            "hex": "483045022100ef35f5a09dd6ae93029e0d82013cb67217024ebfb1e70bf5425b8afd53b6234702203967e4ea5bec4971e239dcd66633fece89ee9d511a5f9b4774c27a62ddab96bf01210249ed268845325edbf7f6f36762cf868b48ab3c0a2663f6693ccd94e889fa51ad"
          },
          "sequence": 4294967295
        }
      ],
      "vout": [
        {
          "value": 0.62000000,
          "n": 0,
          "scriptPubKey": {
            "asm": "OP_DUP OP_HASH160 5d7091c13fc8f8c9d943120002901775258621e4 OP_EQUALVERIFY OP_CHECKSIG",
            "hex": "76a9145d7091c13fc8f8c9d943120002901775258621e488ac",
            "reqSigs": 1,
            "type": "pubkeyhash",
            "addresses": [
              "LTk1xWV2JiuLEqk3uoZEiW5xaMzdaTRudo"
            ]
          }
        }, 
        {
          "value": 0.23906949,
          "n": 1,
          "scriptPubKey": {
            "asm": "OP_DUP OP_HASH160 d44adc936e05c8fe03460c43a189431f4a9b8416 OP_EQUALVERIFY OP_CHECKSIG",
            "hex": "76a914d44adc936e05c8fe03460c43a189431f4a9b841688ac",
            "reqSigs": 1,
            "type": "pubkeyhash",
            "addresses": [
              "LeaTCMiKaLwzwLuJquZekKkK5GDEZ4veXP"
            ]
          }
        }
      ],
      "hex": "020000000304882e6403bf281fd411564ec5b67f42dacde085185d7941492cbd334ce4f06c0a0000006b4830450221009de4f7097c2ac1902243c7fb60069df51bc3ffc8b380cc3d4511dcac250533f80220076431732e410605b94f0ec7cca0860a2c120fee442754855f2d2be306ffecb7012102a61080ea8a78b36ebb6b3604136d2bfbe5946fe2f1f11053d6413c532244e1f5ffffffff6a47835dbe796d19128e41c7c64ffa0597bdb94f1184b65aab8900e9a34bdef3010000006a47304402204dee520418e10f6608b2ea5131ce4a01a64f5fc57bf47c52c007f743965c1c7102203484639b60689f76da1e06e530c7d15e11d441420a4ca7cd1a5ca777d6bb0ab30121026e1da9a8b63f5a35724e07ba9e4a14c14797c5c42f82380bb8aec57d382adcb0ffffffff94700c19323e9c100246e22b037baee7ee1f3efeac4a07ca5623153454c0e09b010000006b483045022100ef35f5a09dd6ae93029e0d82013cb67217024ebfb1e70bf5425b8afd53b6234702203967e4ea5bec4971e239dcd66633fece89ee9d511a5f9b4774c27a62ddab96bf01210249ed268845325edbf7f6f36762cf868b48ab3c0a2663f6693ccd94e889fa51adffffffff02800bb203000000001976a9145d7091c13fc8f8c9d943120002901775258621e488ac85ca6c01000000001976a914d44adc936e05c8fe03460c43a189431f4a9b841688ac00000000"
    }, 
    {
      "txid": "fb2eddde5dfe422a8cb7a11e68490526348658e784828cf0dfb1724b0ea42d28",
      "hash": "fb2eddde5dfe422a8cb7a11e68490526348658e784828cf0dfb1724b0ea42d28",
      "version": 2,
      "size": 225,
      "vsize": 225,
      "locktime": 1358426,
      "vin": [
        {
          "txid": "76a418418be18e895fb27a0e33c6edd28471d715d7984d13a218d9cb992fd47b",
          "vout": 1,
          "scriptSig": {
            "asm": "304402206765a3f73a6f7b41ebaf95df08eeb03278ea5e8fa6a5a859ed30e4bc9bf1e464022058654f7c13c8e351d5e5c8507d0a668d04197275ec0cf911ee8db18f80861510[ALL] 03fe73aabcdbe4b229fc0bd81455ae77f0cfb38c932b34cc4aed53ecfd0e750a25",
            "hex": "47304402206765a3f73a6f7b41ebaf95df08eeb03278ea5e8fa6a5a859ed30e4bc9bf1e464022058654f7c13c8e351d5e5c8507d0a668d04197275ec0cf911ee8db18f80861510012103fe73aabcdbe4b229fc0bd81455ae77f0cfb38c932b34cc4aed53ecfd0e750a25"
          },
          "sequence": 4294967294
        }
      ],
      "vout": [
        {
          "value": 41.92108390,
          "n": 0,
          "scriptPubKey": {
            "asm": "OP_DUP OP_HASH160 d3598df9f630efcb99c836e9c3d71322ab4884a0 OP_EQUALVERIFY OP_CHECKSIG",
            "hex": "76a914d3598df9f630efcb99c836e9c3d71322ab4884a088ac",
            "reqSigs": 1,
            "type": "pubkeyhash",
            "addresses": [
              "LeVU83wqzPg7r9opB1patqYzh7PgnU2oTn"
            ]
          }
        }, 
        {
          "value": 0.17632010,
          "n": 1,
          "scriptPubKey": {
            "asm": "OP_DUP OP_HASH160 1eb67fe56cc7585f7def4a32772a4923f3099126 OP_EQUALVERIFY OP_CHECKSIG",
            "hex": "76a9141eb67fe56cc7585f7def4a32772a4923f309912688ac",
            "reqSigs": 1,
            "type": "pubkeyhash",
            "addresses": [
              "LN2MAG9o7nKyTPRxbALyXwaNHjnTY9vowS"
            ]
          }
        }
      ],
      "hex": "02000000017bd42f99cbd918a2134d98d715d77184d2edc6330e7ab25f898ee18b4118a476010000006a47304402206765a3f73a6f7b41ebaf95df08eeb03278ea5e8fa6a5a859ed30e4bc9bf1e464022058654f7c13c8e351d5e5c8507d0a668d04197275ec0cf911ee8db18f80861510012103fe73aabcdbe4b229fc0bd81455ae77f0cfb38c932b34cc4aed53ecfd0e750a25feffffff02667fdef9000000001976a914d3598df9f630efcb99c836e9c3d71322ab4884a088ac0a0b0d01000000001976a9141eb67fe56cc7585f7def4a32772a4923f309912688ac5aba1400"
    }, 
    {
      "txid": "ba14357b9f333b63cd2ff29c46d4c684e10bead2ac5ba73c94dce0c9cb9d1b87",
      "hash": "ba14357b9f333b63cd2ff29c46d4c684e10bead2ac5ba73c94dce0c9cb9d1b87",
      "version": 1,
      "size": 225,
      "vsize": 225,
      "locktime": 1358426,
      "vin": [
        {
          "txid": "37181ce720056c3833cf1ceca15fac770d97ddf9c9877e27eb2da7753e582cac",
          "vout": 1,
          "scriptSig": {
            "asm": "3044022025c5da194fa60edef2076ec9fe8203789298154a0222d735deee4758f55a523c022019187bb020cbc6782a772cbdd9d4b2b7c3d20e52f2ee78e790954a4deb76f416[ALL] 032f842559054ffeebdd79526be9d0a5f7d4d1c31226e43895724325448de5448c",
            "hex": "473044022025c5da194fa60edef2076ec9fe8203789298154a0222d735deee4758f55a523c022019187bb020cbc6782a772cbdd9d4b2b7c3d20e52f2ee78e790954a4deb76f4160121032f842559054ffeebdd79526be9d0a5f7d4d1c31226e43895724325448de5448c"
          },
          "sequence": 4294967294
        }
      ],
      "vout": [
        {
          "value": 0.84575600,
          "n": 0,
          "scriptPubKey": {
            "asm": "OP_DUP OP_HASH160 0f6badffe2b5212704c702ba3bcb0d004922db35 OP_EQUALVERIFY OP_CHECKSIG",
            "hex": "76a9140f6badffe2b5212704c702ba3bcb0d004922db3588ac",
            "reqSigs": 1,
            "type": "pubkeyhash",
            "addresses": [
              "LLdVPoiJk5XvPDPoxR9QyUCNB5F84uk75y"
            ]
          }
        }, 
        {
          "value": 5.00000000,
          "n": 1,
          "scriptPubKey": {
            "asm": "OP_DUP OP_HASH160 0c2ab8f97445e20f02cc943a7fe2ab08d94bb3ea OP_EQUALVERIFY OP_CHECKSIG",
            "hex": "76a9140c2ab8f97445e20f02cc943a7fe2ab08d94bb3ea88ac",
            "reqSigs": 1,
            "type": "pubkeyhash",
            "addresses": [
              "LLLHYvuZaKh8TJUmfu1QEzk3rT3tTy74CA"
            ]
          }
        }
      ],
      "hex": "0100000001ac2c583e75a72deb277e87c9f9dd970d77ac5fa1ec1ccf33386c0520e71c1837010000006a473044022025c5da194fa60edef2076ec9fe8203789298154a0222d735deee4758f55a523c022019187bb020cbc6782a772cbdd9d4b2b7c3d20e52f2ee78e790954a4deb76f4160121032f842559054ffeebdd79526be9d0a5f7d4d1c31226e43895724325448de5448cfeffffff0270850a05000000001976a9140f6badffe2b5212704c702ba3bcb0d004922db3588ac0065cd1d000000001976a9140c2ab8f97445e20f02cc943a7fe2ab08d94bb3ea88ac5aba1400"
    }, 
    {
      "txid": "0320728083ca03fb35e2c0de74e26f31d6372549a4db68dc6fb8ad5f30cc728e",
      "hash": "0320728083ca03fb35e2c0de74e26f31d6372549a4db68dc6fb8ad5f30cc728e",
      "version": 2,
      "size": 225,
      "vsize": 225,
      "locktime": 1358426,
      "vin": [
        {
          "txid": "355414b88bbebd8fc5003ab081a790702ce86bbf670f42a353c4e0deb06dafa8",
          "vout": 3,
          "scriptSig": {
            "asm": "30440220038a50fe5e04c65b7875b679397e482f14a8f7dfc885475b9b9f0f0bcdbf4af2022053d24313b4f1ba083c6f8d1a63beaa08d84ab99290c2f115089c4f18000e7e0d[ALL] 02c2d6eb60f0a5ecf1cbafe15e18f798d2c07f949f18baf1754916830ff1b51caf",
            "hex": "4730440220038a50fe5e04c65b7875b679397e482f14a8f7dfc885475b9b9f0f0bcdbf4af2022053d24313b4f1ba083c6f8d1a63beaa08d84ab99290c2f115089c4f18000e7e0d012102c2d6eb60f0a5ecf1cbafe15e18f798d2c07f949f18baf1754916830ff1b51caf"
          },
          "sequence": 4294967294
        }
      ],
      "vout": [
        {
          "value": 4.84866397,
          "n": 0,
          "scriptPubKey": {
            "asm": "OP_DUP OP_HASH160 f903e1069a180fa8cf669bff7a1380d93f862521 OP_EQUALVERIFY OP_CHECKSIG",
            "hex": "76a914f903e1069a180fa8cf669bff7a1380d93f86252188ac",
            "reqSigs": 1,
            "type": "pubkeyhash",
            "addresses": [
              "LhvdAVmtLs7dWskuLaYdAF7KjBnVh4gp57"
            ]
          }
        }, 
        {
          "value": 4.95111003,
          "n": 1,
          "scriptPubKey": {
            "asm": "OP_DUP OP_HASH160 3dabb306ca620369a45dd1a8ef3dfb86e11d9723 OP_EQUALVERIFY OP_CHECKSIG",
            "hex": "76a9143dabb306ca620369a45dd1a8ef3dfb86e11d972388ac",
            "reqSigs": 1,
            "type": "pubkeyhash",
            "addresses": [
              "LQr3Anw16MwWUyDyrzTHXmpumep3TguHR3"
            ]
          }
        }
      ],
      "hex": "0200000001a8af6db0dee0c453a3420f67bf6be82c7090a781b03a00c58fbdbe8bb8145435030000006a4730440220038a50fe5e04c65b7875b679397e482f14a8f7dfc885475b9b9f0f0bcdbf4af2022053d24313b4f1ba083c6f8d1a63beaa08d84ab99290c2f115089c4f18000e7e0d012102c2d6eb60f0a5ecf1cbafe15e18f798d2c07f949f18baf1754916830ff1b51caffeffffff025d79e61c000000001976a914f903e1069a180fa8cf669bff7a1380d93f86252188ac5bcb821d000000001976a9143dabb306ca620369a45dd1a8ef3dfb86e11d972388ac5aba1400"
    }, 
    {
      "txid": "c173a42553d3fadb37a93bcedea78ec0859a0adc0819bf3cf5430d4eb14d4253",
      "hash": "c173a42553d3fadb37a93bcedea78ec0859a0adc0819bf3cf5430d4eb14d4253",
      "version": 1,
      "size": 226,
      "vsize": 226,
      "locktime": 0,
      "vin": [
        {
          "txid": "d940767b35d6949cdf21ee07c910e9807105a9439f9feb5068ce6b2869f9b5a2",
          "vout": 0,
          "scriptSig": {
            "asm": "3045022100aa1b66649c6960f5336261385f437b4616da06d5ae598a7417ba89efc2d3b8500220506c4793e8cff230563487e0447efdf77a52b27cc112ef43b750ea29a594bca5[ALL] 0392000a766f0b47b84fff5bc0e59e9b69416d154bfd6a8b7cd0372f7ffe9ca857",
            "hex": "483045022100aa1b66649c6960f5336261385f437b4616da06d5ae598a7417ba89efc2d3b8500220506c4793e8cff230563487e0447efdf77a52b27cc112ef43b750ea29a594bca501210392000a766f0b47b84fff5bc0e59e9b69416d154bfd6a8b7cd0372f7ffe9ca857"
          },
          "sequence": 4294967295
        }
      ],
      "vout": [
        {
          "value": 1.01620028,
          "n": 0,
          "scriptPubKey": {
            "asm": "OP_DUP OP_HASH160 1bffb557d7bde66a421d4d22677160cba269da3e OP_EQUALVERIFY OP_CHECKSIG",
            "hex": "76a9141bffb557d7bde66a421d4d22677160cba269da3e88ac",
            "reqSigs": 1,
            "type": "pubkeyhash",
            "addresses": [
              "LMmzqKc1quzRp5NaZRjpCz1vafeFtN8xhT"
            ]
          }
        }, 
        {
          "value": 29.96341147,
          "n": 1,
          "scriptPubKey": {
            "asm": "OP_DUP OP_HASH160 b601a93eec75b2970550d39febf40a31a85e393b OP_EQUALVERIFY OP_CHECKSIG",
            "hex": "76a914b601a93eec75b2970550d39febf40a31a85e393b88ac",
            "reqSigs": 1,
            "type": "pubkeyhash",
            "addresses": [
              "LbpKEYRMecreSBBHkPn1hYkyNdnaPMdUxS"
            ]
          }
        }
      ],
      "hex": "0100000001a2b5f969286bce6850eb9f9f43a9057180e910c907ee21df9c94d6357b7640d9000000006b483045022100aa1b66649c6960f5336261385f437b4616da06d5ae598a7417ba89efc2d3b8500220506c4793e8cff230563487e0447efdf77a52b27cc112ef43b750ea29a594bca501210392000a766f0b47b84fff5bc0e59e9b69416d154bfd6a8b7cd0372f7ffe9ca857ffffffff023c990e06000000001976a9141bffb557d7bde66a421d4d22677160cba269da3e88ac9b8998b2000000001976a914b601a93eec75b2970550d39febf40a31a85e393b88ac00000000"
    }, 
    {
      "txid": "07769ede8110e9630e3aec47ffb6196568cdd2ab8f719cf1e98d81a51a7e0158",
      "hash": "07769ede8110e9630e3aec47ffb6196568cdd2ab8f719cf1e98d81a51a7e0158",
      "version": 1,
      "size": 226,
      "vsize": 226,
      "locktime": 1358426,
      "vin": [
        {
          "txid": "6bcfa278e457ed48cc567f2c97b6e51556f7bac48e0a83965ad3cc70bc795801",
          "vout": 0,
          "scriptSig": {
            "asm": "3045022100f8f0c3d92af2eaac9bff200f7c61397f5cac0cd1b72bcd0dc5aaab4be06da68402207c8ec9ae595289ef8ff94c0e54a28e36475393bfcc3211b44eaca306982f7191[ALL] 0365d6d5b233542e10e9a5b070121dc9b008f770992bc9c70ee3f3f81d29f7a171",
            "hex": "483045022100f8f0c3d92af2eaac9bff200f7c61397f5cac0cd1b72bcd0dc5aaab4be06da68402207c8ec9ae595289ef8ff94c0e54a28e36475393bfcc3211b44eaca306982f719101210365d6d5b233542e10e9a5b070121dc9b008f770992bc9c70ee3f3f81d29f7a171"
          },
          "sequence": 4294967294
        }
      ],
      "vout": [
        {
          "value": 0.34165515,
          "n": 0,
          "scriptPubKey": {
            "asm": "OP_DUP OP_HASH160 9e542d519c83f65980402c290ff6287abef64cfb OP_EQUALVERIFY OP_CHECKSIG",
            "hex": "76a9149e542d519c83f65980402c290ff6287abef64cfb88ac",
            "reqSigs": 1,
            "type": "pubkeyhash",
            "addresses": [
              "LZf7sF8wxb2mZWseddHM5JTELkHozvq9yg"
            ]
          }
        }, 
        {
          "value": 0.01019018,
          "n": 1,
          "scriptPubKey": {
            "asm": "OP_DUP OP_HASH160 20b27d50a96575befbcbf49ca5c82bb686807d4b OP_EQUALVERIFY OP_CHECKSIG",
            "hex": "76a91420b27d50a96575befbcbf49ca5c82bb686807d4b88ac",
            "reqSigs": 1,
            "type": "pubkeyhash",
            "addresses": [
              "LNCqi28YNH16gTNDmtR1cbwwzzwG2KkvmC"
            ]
          }
        }
      ],
      "hex": "0100000001015879bc70ccd35a96830a8ec4baf75615e5b6972c7f56cc48ed57e478a2cf6b000000006b483045022100f8f0c3d92af2eaac9bff200f7c61397f5cac0cd1b72bcd0dc5aaab4be06da68402207c8ec9ae595289ef8ff94c0e54a28e36475393bfcc3211b44eaca306982f719101210365d6d5b233542e10e9a5b070121dc9b008f770992bc9c70ee3f3f81d29f7a171feffffff020b530902000000001976a9149e542d519c83f65980402c290ff6287abef64cfb88ac8a8c0f00000000001976a91420b27d50a96575befbcbf49ca5c82bb686807d4b88ac5aba1400"
    }, 
    {
      "txid": "0b7391c0a0446eddd032560c0d09ffda2a83e27e970a8c86c7d490facc7c60db",
      "hash": "0b7391c0a0446eddd032560c0d09ffda2a83e27e970a8c86c7d490facc7c60db",
      "version": 1,
      "size": 226,
      "vsize": 226,
      "locktime": 0,
      "vin": [
        {
          "txid": "fe519b8d5bbd6af33dac048a03cc5666895f13204b0a874fb0ac8ce0ac1a52b8",
          "vout": 0,
          "scriptSig": {
            "asm": "3045022100c39d91ab06373264d183a5783b4760dbb5c80ec9054c2d9a38a4e0cf98369336022039486022324b5dca86a2752fe2a889b5adfff76bffac33c3ecdc0caf960243e8[ALL] 03be214c0397118b207107016ed94b83ac46a0e3a48a30b8a0f3b0a5502222c678",
            "hex": "483045022100c39d91ab06373264d183a5783b4760dbb5c80ec9054c2d9a38a4e0cf98369336022039486022324b5dca86a2752fe2a889b5adfff76bffac33c3ecdc0caf960243e8012103be214c0397118b207107016ed94b83ac46a0e3a48a30b8a0f3b0a5502222c678"
          },
          "sequence": 4294967295
        }
      ],
      "vout": [
        {
          "value": 0.01887569,
          "n": 0,
          "scriptPubKey": {
            "asm": "OP_DUP OP_HASH160 65193a048488b420008acae66a0c0f04543b3a03 OP_EQUALVERIFY OP_CHECKSIG",
            "hex": "76a91465193a048488b420008acae66a0c0f04543b3a0388ac",
            "reqSigs": 1,
            "type": "pubkeyhash",
            "addresses": [
              "LUSWjN7zszzgfMFtiBk2M3fS6xU4eddmHH"
            ]
          }
        }, 
        {
          "value": 6.50151189,
          "n": 1,
          "scriptPubKey": {
            "asm": "OP_DUP OP_HASH160 e298b795f6a2827d5e6317910d1ad845e4c325af OP_EQUALVERIFY OP_CHECKSIG",
            "hex": "76a914e298b795f6a2827d5e6317910d1ad845e4c325af88ac",
            "reqSigs": 1,
            "type": "pubkeyhash",
            "addresses": [
              "Lft5vYDbPxPbiUhKaZTLjsCDkhMYx2Wjwa"
            ]
          }
        }
      ],
      "hex": "0100000001b8521aace08cacb04f870a4b20135f896656cc038a04ac3df36abd5b8d9b51fe000000006b483045022100c39d91ab06373264d183a5783b4760dbb5c80ec9054c2d9a38a4e0cf98369336022039486022324b5dca86a2752fe2a889b5adfff76bffac33c3ecdc0caf960243e8012103be214c0397118b207107016ed94b83ac46a0e3a48a30b8a0f3b0a5502222c678ffffffff0251cd1c00000000001976a91465193a048488b420008acae66a0c0f04543b3a0388ac1585c026000000001976a914e298b795f6a2827d5e6317910d1ad845e4c325af88ac00000000"
    }
  ],
  "time": 1517140759,
  "mediantime": 1517140214,
  "nonce": 1597771865,
  "bits": "1a047f14",
  "difficulty": 3731199.183374282,
  "chainwork": "00000000000000000000000000000000000000000000003315b231dc7cbfcc72",
  "previousblockhash": "f1f1e40ff6060c4ae51d74da8e99a8585944ba9d25a66800422326442daa1cb0",
  "nextblockhash": "e0c51515091ea85a854fe38b6b0b21e69d14806df4a9a173e573ee80e43565f1"
}
