{
  "hash": "5602003da043d669fde0b8595c6c28674f62b6d3272c945fd749bb6a74f405a8",
  "confirmations": 316,
  "strippedsize": 895,
  "size": 931,
  "weight": 3616,
  "height": 1360678,
  "version": 536870912,
  "versionHex": "20000000",
  "merkleroot": "856b11365d7c2542be7e0041291b3a7cb96b9a00ecf3e483cf8aa800b5916616",
  "tx": [
    {
      "txid": "e6afdc231b88ec56c2ecb09905ed256d2bf867dd28317ed6913f4768453efbde",
      "hash": "a0c798ddeee37a2167ae2062c2efc76ecf0152f19daec21334b8c6effe5e5a2f",
      "version": 1,
      "size": 253,
      "vsize": 226,
      "locktime": 0,
      "vin": [
        {
          "coinbase": "0326c31441d69cab7688d4a141d69cab7589e0ab2f4c54432e544f502ffabe6d6d1285ac46deae80084bd7cce302a49368d6dfce43b4a0f682c39376e7ddb1f84501000000000000007b36daea0200000000000000",
          "sequence": 4294967295
        }
      ],
      "vout": [
        {
          "value": 25.00122599,
          "n": 0,
          "scriptPubKey": {
            "asm": "OP_DUP OP_HASH160 0c617fdb2ea42aed30a509595ee21ba3f6688db0 OP_EQUALVERIFY OP_CHECKSIG",
            "hex": "76a9140c617fdb2ea42aed30a509595ee21ba3f6688db088ac",
            "reqSigs": 1,
            "type": "pubkeyhash",
            "addresses": [
              "LLMRAtr3qBje2ySEa3CnZ55LA4TQMWnRY3"
            ]
          }
        }, 
        {
          "value": 0.00000000,
          "n": 1,
          "scriptPubKey": {
            "asm": "OP_RETURN aa21a9edee5abb9576ab4b458b7505c0bc41ded1dfaaece31cecff424586482e32331fbf",
            "hex": "6a24aa21a9edee5abb9576ab4b458b7505c0bc41ded1dfaaece31cecff424586482e32331fbf",
            "type": "nulldata"
          }
        }
      ],
      "hex": "010000000001010000000000000000000000000000000000000000000000000000000000000000ffffffff550326c31441d69cab7688d4a141d69cab7589e0ab2f4c54432e544f502ffabe6d6d1285ac46deae80084bd7cce302a49368d6dfce43b4a0f682c39376e7ddb1f84501000000000000007b36daea0200000000000000ffffffff02e7d70495000000001976a9140c617fdb2ea42aed30a509595ee21ba3f6688db088ac0000000000000000266a24aa21a9edee5abb9576ab4b458b7505c0bc41ded1dfaaece31cecff424586482e32331fbf0120000000000000000000000000000000000000000000000000000000000000000000000000"
    }, 
    {
      "txid": "ac23bbfdd8937283f09296c97da6470fcb27b7395a6b35ce7217ad38f94ad36d",
      "hash": "ac23bbfdd8937283f09296c97da6470fcb27b7395a6b35ce7217ad38f94ad36d",
      "version": 1,
      "size": 372,
      "vsize": 372,
      "locktime": 0,
      "vin": [
        {
          "txid": "4ae40b289a719c8873731b9e34491f5cf963ad2333d48da0975c0f8aaa030ef6",
          "vout": 2,
          "scriptSig": {
            "asm": "30440220251b66ad1f43a64cbe900ebdc98fb4c9ae35ebdd84674b978d461130f59ec407022030a9c281078cd33f4bd1fae41e7e3ae9c71965b72b0c53d589a0ae51846dd716[ALL] 0328c9ae635abf580c261c44815dc1aac309e16ff26250525b7e99951369d2b8c7",
            "hex": "4730440220251b66ad1f43a64cbe900ebdc98fb4c9ae35ebdd84674b978d461130f59ec407022030a9c281078cd33f4bd1fae41e7e3ae9c71965b72b0c53d589a0ae51846dd71601210328c9ae635abf580c261c44815dc1aac309e16ff26250525b7e99951369d2b8c7"
          },
          "sequence": 4294967295
        }, 
        {
          "txid": "32945506923a5fb91f0544a6d65006974639394b3f1501e7d733c58088876405",
          "vout": 1,
          "scriptSig": {
            "asm": "3044022033a23548e9c2b53d26ca9745ad65d5508e084e776a30797bd9dddc1eea0cf957022071488fc7cc15653158514e07f462dfb6fb7d7ae671b6a56d585695c39ec62898[ALL] 02da543618a74fb7f305deea6739bd3d6000c007f3402e59c4c33adc816d079bd9",
            "hex": "473044022033a23548e9c2b53d26ca9745ad65d5508e084e776a30797bd9dddc1eea0cf957022071488fc7cc15653158514e07f462dfb6fb7d7ae671b6a56d585695c39ec62898012102da543618a74fb7f305deea6739bd3d6000c007f3402e59c4c33adc816d079bd9"
          },
          "sequence": 4294967295
        }
      ],
      "vout": [
        {
          "value": 2.11091100,
          "n": 0,
          "scriptPubKey": {
            "asm": "OP_DUP OP_HASH160 5349e8979d5f7c7f1ebf63b8359b6b53048b8648 OP_EQUALVERIFY OP_CHECKSIG",
            "hex": "76a9145349e8979d5f7c7f1ebf63b8359b6b53048b864888ac",
            "reqSigs": 1,
            "type": "pubkeyhash",
            "addresses": [
              "LSpLtPgncAd4fXGEohZX3TuqPzfngwF2y3"
            ]
          }
        }, 
        {
          "value": 0.00406193,
          "n": 1,
          "scriptPubKey": {
            "asm": "OP_DUP OP_HASH160 c6e3836c2f4cd8f9c53e32813ded99ac0ce001f1 OP_EQUALVERIFY OP_CHECKSIG",
            "hex": "76a914c6e3836c2f4cd8f9c53e32813ded99ac0ce001f188ac",
            "reqSigs": 1,
            "type": "pubkeyhash",
            "addresses": [
              "LdMac6qdwFnBCVXN96dvoPjzbcE36gzs64"
            ]
          }
        }
      ],
      "hex": "0100000002f60e03aa8a0f5c97a08dd43323ad63f95c1f49349e1b7373889c719a280be44a020000006a4730440220251b66ad1f43a64cbe900ebdc98fb4c9ae35ebdd84674b978d461130f59ec407022030a9c281078cd33f4bd1fae41e7e3ae9c71965b72b0c53d589a0ae51846dd71601210328c9ae635abf580c261c44815dc1aac309e16ff26250525b7e99951369d2b8c7ffffffff0564878880c533d7e701153f4b393946970650d6a644051fb95f3a9206559432010000006a473044022033a23548e9c2b53d26ca9745ad65d5508e084e776a30797bd9dddc1eea0cf957022071488fc7cc15653158514e07f462dfb6fb7d7ae671b6a56d585695c39ec62898012102da543618a74fb7f305deea6739bd3d6000c007f3402e59c4c33adc816d079bd9ffffffff029cfe940c000000001976a9145349e8979d5f7c7f1ebf63b8359b6b53048b864888acb1320600000000001976a914c6e3836c2f4cd8f9c53e32813ded99ac0ce001f188ac00000000"
    }, 
    {
      "txid": "fa3c472ed434f8deb179f32eb0616b97bea84c76a47a902898eef755ba2fbd20",
      "hash": "fa3c472ed434f8deb179f32eb0616b97bea84c76a47a902898eef755ba2fbd20",
      "version": 1,
      "size": 225,
      "vsize": 225,
      "locktime": 0,
      "vin": [
        {
          "txid": "cf8b8f6fa63a776e5098b10e5c57577f106267edfac3a6930d3587911af110e7",
          "vout": 0,
          "scriptSig": {
            "asm": "3044022037e19ab97f0644cf6e9113153fb8d08288e99ab3523ffb4a9616af3d0126b8b802203010f0ae0006d1e22098646275c83c7a5cabf8d65322a4940fbd9e7f7c97db7d[ALL] 0314c260a012e9eed44c16f186dd62c5c685fa7964e1ab669a7945c18c3e21d75f",
            "hex": "473044022037e19ab97f0644cf6e9113153fb8d08288e99ab3523ffb4a9616af3d0126b8b802203010f0ae0006d1e22098646275c83c7a5cabf8d65322a4940fbd9e7f7c97db7d01210314c260a012e9eed44c16f186dd62c5c685fa7964e1ab669a7945c18c3e21d75f"
          },
          "sequence": 4294967295
        }
      ],
      "vout": [
        {
          "value": 0.00795964,
          "n": 0,
          "scriptPubKey": {
            "asm": "OP_DUP OP_HASH160 40cc29950db0afbe4136ac6b8f386255aeaed2f5 OP_EQUALVERIFY OP_CHECKSIG",
            "hex": "76a91440cc29950db0afbe4136ac6b8f386255aeaed2f588ac",
            "reqSigs": 1,
            "type": "pubkeyhash",
            "addresses": [
              "LR8a5wjeKurtSxdXRxF3PWq4iHgxAGRALn"
            ]
          }
        }, 
        {
          "value": 0.29304596,
          "n": 1,
          "scriptPubKey": {
            "asm": "OP_DUP OP_HASH160 58e9390966df620a1e7c6949d66e91c5ec0323c3 OP_EQUALVERIFY OP_CHECKSIG",
            "hex": "76a91458e9390966df620a1e7c6949d66e91c5ec0323c388ac",
            "reqSigs": 1,
            "type": "pubkeyhash",
            "addresses": [
              "LTL57hTLKr8H2gaEjD6qFgD3GbEHvExRMQ"
            ]
          }
        }
      ],
      "hex": "0100000001e710f11a9187350d93a6c3faed6762107f57575c0eb198506e773aa66f8f8bcf000000006a473044022037e19ab97f0644cf6e9113153fb8d08288e99ab3523ffb4a9616af3d0126b8b802203010f0ae0006d1e22098646275c83c7a5cabf8d65322a4940fbd9e7f7c97db7d01210314c260a012e9eed44c16f186dd62c5c685fa7964e1ab669a7945c18c3e21d75fffffffff023c250c00000000001976a91440cc29950db0afbe4136ac6b8f386255aeaed2f588ac1427bf01000000001976a91458e9390966df620a1e7c6949d66e91c5ec0323c388ac00000000"
    }
  ],
  "time": 1517465046,
  "mediantime": 1517464532,
  "nonce": 3948899145,
  "bits": "1a042eae",
  "difficulty": 4011378.762614286,
  "chainwork": "00000000000000000000000000000000000000000000003529be5649e1ac65ce",
  "previousblockhash": "4ed77423ec0605f881cf6ec62e6b0e9a089348d0cca1d736e31c8c8194ab963a",
  "nextblockhash": "6ad10f18d6971d75364ba968166aff17cf8599553cacb49ee3faf4068400108e"
}
