{
  "hash": "56332b02349c4e5f38a4ab914a8f96fbbe006d98ec871e0e0b991caf80bbcbc5",
  "confirmations": 185,
  "strippedsize": 253,
  "size": 253,
  "weight": 1012,
  "height": 1360807,
  "version": 536870912,
  "versionHex": "20000000",
  "merkleroot": "3f7984e53c46f90f018fa313ce093e492ebf0b26f1d7c7e94727772e671e5e75",
  "tx": [
    {
      "txid": "3f7984e53c46f90f018fa313ce093e492ebf0b26f1d7c7e94727772e671e5e75",
      "hash": "3f7984e53c46f90f018fa313ce093e492ebf0b26f1d7c7e94727772e671e5e75",
      "version": 1,
      "size": 172,
      "vsize": 172,
      "locktime": 0,
      "vin": [
        {
          "coinbase": "03a7c3141a4d696e656420627920416e74506f6f6c20626a3532205a72f9b5fabe6d6dbcdce696fb62f93a1397be634cdf4daa18de3561361d775b696492b47928ac7d04000000000000004e230000000000000e000000",
          "sequence": 4294967295
        }
      ],
      "vout": [
        {
          "value": 25.00000000,
          "n": 0,
          "scriptPubKey": {
            "asm": "OP_DUP OP_HASH160 0ff3ccc5e8be88afe24b5d634e5852d474dbdff1 OP_EQUALVERIFY OP_CHECKSIG",
            "hex": "76a9140ff3ccc5e8be88afe24b5d634e5852d474dbdff188ac",
            "reqSigs": 1,
            "type": "pubkeyhash",
            "addresses": [
              "LLgJTbzZMsRTCUF1NtvvL9SR1a4pVieW89"
            ]
          }
        }
      ],
      "hex": "01000000010000000000000000000000000000000000000000000000000000000000000000ffffffff5703a7c3141a4d696e656420627920416e74506f6f6c20626a3532205a72f9b5fabe6d6dbcdce696fb62f93a1397be634cdf4daa18de3561361d775b696492b47928ac7d04000000000000004e230000000000000e000000ffffffff0100f90295000000001976a9140ff3ccc5e8be88afe24b5d634e5852d474dbdff188ac00000000"
    }
  ],
  "time": 1517484469,
  "mediantime": 1517484145,
  "nonce": 395597386,
  "bits": "1a04088e",
  "difficulty": 4159490.835685156,
  "chainwork": "00000000000000000000000000000000000000000000003548a87888fa24a8c0",
  "previousblockhash": "2eeb1241806d5a0d2cafccb4dae639c7871b63a6b436c78dbf2720537174f1e9",
  "nextblockhash": "5fbd29aa046c816fdf1784d9ed33c863c57377bb8afcb4a8f29b0fa6595d64d3"
}
