{
  "hash": "565b90926b48710f5205871e39c2525919e26ff6ae6dd8e6411084c4e674f07f",
  "confirmations": 1774,
  "strippedsize": 234,
  "size": 234,
  "weight": 936,
  "height": 1359220,
  "version": 536870912,
  "versionHex": "20000000",
  "merkleroot": "e7f74fa5313732840aebbd54890f1653bbb626d98d16d14ae66ee833596837f1",
  "tx": [
    {
      "txid": "e7f74fa5313732840aebbd54890f1653bbb626d98d16d14ae66ee833596837f1",
      "hash": "e7f74fa5313732840aebbd54890f1653bbb626d98d16d14ae66ee833596837f1",
      "version": 1,
      "size": 153,
      "vsize": 153,
      "locktime": 0,
      "vin": [
        {
          "coinbase": "0374bd14045a6f74262cfabe6d6d581cfbc8cf5e06ca3320bd2e874938cdfd0fbf9f23ed5b25f01776d96efa544e4000000000000000042f4c502f082200a7b204000000",
          "sequence": 4294967295
        }
      ],
      "vout": [
        {
          "value": 25.00000000,
          "n": 0,
          "scriptPubKey": {
            "asm": "OP_DUP OP_HASH160 57757ed2ecf2052ff3126c397aca7defb9ca2cec OP_EQUALVERIFY OP_CHECKSIG",
            "hex": "76a91457757ed2ecf2052ff3126c397aca7defb9ca2cec88ac",
            "reqSigs": 1,
            "type": "pubkeyhash",
            "addresses": [
              "LTCPodGk5FwcJaRzH9yKnwicxzFUbxp6tN"
            ]
          }
        }
      ],
      "hex": "01000000010000000000000000000000000000000000000000000000000000000000000000ffffffff440374bd14045a6f74262cfabe6d6d581cfbc8cf5e06ca3320bd2e874938cdfd0fbf9f23ed5b25f01776d96efa544e4000000000000000042f4c502f082200a7b204000000ffffffff0100f90295000000001976a91457757ed2ecf2052ff3126c397aca7defb9ca2cec88ac00000000"
    }
  ],
  "time": 1517253670,
  "mediantime": 1517253343,
  "nonce": 1201886087,
  "bits": "1a042eae",
  "difficulty": 4011378.762614286,
  "chainwork": "000000000000000000000000000000000000000000000033cd2292123932ff6a",
  "previousblockhash": "b8c38b8931678b5733cd518352cde876fb5b9b9cc7d58bbe61e843128c0a4ce3",
  "nextblockhash": "e5c85abc4ebcbf3afe047f55b9f12157814b407c32b639e04543d0cb570ff151"
}
