{
  "hash": "56648d47f11d2d7da65401c4f3373b295cc195e19f1b7e797df5747ec0f51296",
  "confirmations": 2366,
  "strippedsize": 234,
  "size": 234,
  "weight": 936,
  "height": 1358629,
  "version": 536870912,
  "versionHex": "20000000",
  "merkleroot": "786bb9991ecf9eeb60ffa41be5e98d889cb03b968a796d05f72c2a20747df8c0",
  "tx": [
    {
      "txid": "786bb9991ecf9eeb60ffa41be5e98d889cb03b968a796d05f72c2a20747df8c0",
      "hash": "786bb9991ecf9eeb60ffa41be5e98d889cb03b968a796d05f72c2a20747df8c0",
      "version": 1,
      "size": 153,
      "vsize": 153,
      "locktime": 0,
      "vin": [
        {
          "coinbase": "0325bb14045a6e27252cfabe6d6d7035741a18c4b0628d007d3366acf923f9949decb3db628b916ee2450e07f49e4000000000000000042f4c502f0856002d40770e0000",
          "sequence": 4294967295
        }
      ],
      "vout": [
        {
          "value": 25.00000000,
          "n": 0,
          "scriptPubKey": {
            "asm": "OP_DUP OP_HASH160 57757ed2ecf2052ff3126c397aca7defb9ca2cec OP_EQUALVERIFY OP_CHECKSIG",
            "hex": "76a91457757ed2ecf2052ff3126c397aca7defb9ca2cec88ac",
            "reqSigs": 1,
            "type": "pubkeyhash",
            "addresses": [
              "LTCPodGk5FwcJaRzH9yKnwicxzFUbxp6tN"
            ]
          }
        }
      ],
      "hex": "01000000010000000000000000000000000000000000000000000000000000000000000000ffffffff440325bb14045a6e27252cfabe6d6d7035741a18c4b0628d007d3366acf923f9949decb3db628b916ee2450e07f49e4000000000000000042f4c502f0856002d40770e0000ffffffff0100f90295000000001976a91457757ed2ecf2052ff3126c397aca7defb9ca2cec88ac00000000"
    }
  ],
  "time": 1517168421,
  "mediantime": 1517167995,
  "nonce": 995744784,
  "bits": "1a047f14",
  "difficulty": 3731199.183374282,
  "chainwork": "000000000000000000000000000000000000000000000033426604ec2b847cdc",
  "previousblockhash": "efab39523af40821468329b0bacca0cf5bb0e244c0c8847da369183f015a35ef",
  "nextblockhash": "06033c79f29c99ecb4df1b3353b1770acf8aa9eb6b83627217892293a54875e4"
}
