{
  "hash": "56706ea30074c6e384b2f25f37a2f1c71153b4acd912fd105b3ce47495f95fec",
  "confirmations": 3164,
  "strippedsize": 254,
  "size": 254,
  "weight": 1016,
  "height": 1357831,
  "version": 536870912,
  "versionHex": "20000000",
  "merkleroot": "c4f94243d17a73e983733c51ba6f5fd0e57577a9690fedc4c34ab2d1bb1c7945",
  "tx": [
    {
      "txid": "c4f94243d17a73e983733c51ba6f5fd0e57577a9690fedc4c34ab2d1bb1c7945",
      "hash": "c4f94243d17a73e983733c51ba6f5fd0e57577a9690fedc4c34ab2d1bb1c7945",
      "version": 1,
      "size": 173,
      "vsize": 173,
      "locktime": 0,
      "vin": [
        {
          "coinbase": "0307b8141b4d696e656420627920416e74506f6f6c20626a312045205a6c68a4fabe6d6d1887eefaab8960d1bb418c93115ee4ed00871dfecb785dc127a55d8ce464eae604000000000000007b1000000000000002000000",
          "sequence": 4294967295
        }
      ],
      "vout": [
        {
          "value": 25.00000000,
          "n": 0,
          "scriptPubKey": {
            "asm": "OP_DUP OP_HASH160 0ff3ccc5e8be88afe24b5d634e5852d474dbdff1 OP_EQUALVERIFY OP_CHECKSIG",
            "hex": "76a9140ff3ccc5e8be88afe24b5d634e5852d474dbdff188ac",
            "reqSigs": 1,
            "type": "pubkeyhash",
            "addresses": [
              "LLgJTbzZMsRTCUF1NtvvL9SR1a4pVieW89"
            ]
          }
        }
      ],
      "hex": "01000000010000000000000000000000000000000000000000000000000000000000000000ffffffff580307b8141b4d696e656420627920416e74506f6f6c20626a312045205a6c68a4fabe6d6d1887eefaab8960d1bb418c93115ee4ed00871dfecb785dc127a55d8ce464eae604000000000000007b1000000000000002000000ffffffff0100f90295000000001976a9140ff3ccc5e8be88afe24b5d634e5852d474dbdff188ac00000000"
    }
  ],
  "time": 1517054116,
  "mediantime": 1517053248,
  "nonce": 3597662857,
  "bits": "1a047f14",
  "difficulty": 3731199.183374282,
  "chainwork": "00000000000000000000000000000000000000000000003290ec53fe256c23d0",
  "previousblockhash": "74709684ec4ccd9e5b7d46bbe376758012c2f406e65c85dcdb0e385bea24b929",
  "nextblockhash": "a95dadc41ac63b19ccd6312afa743cdd7fcf035d763c4ac7838b7a6d0370f920"
}
