{
  "hash": "567ff6a91579a1523980c535e0106182e158f350ed6fbf43236a60639e668b63",
  "confirmations": 3669,
  "strippedsize": 253,
  "size": 253,
  "weight": 1012,
  "height": 1357326,
  "version": 536870912,
  "versionHex": "20000000",
  "merkleroot": "146249357772ce4d534ac7cf5b738ad87acf98b7e7c6cc225533bf5e16a75467",
  "tx": [
    {
      "txid": "146249357772ce4d534ac7cf5b738ad87acf98b7e7c6cc225533bf5e16a75467",
      "hash": "146249357772ce4d534ac7cf5b738ad87acf98b7e7c6cc225533bf5e16a75467",
      "version": 1,
      "size": 172,
      "vsize": 172,
      "locktime": 0,
      "vin": [
        {
          "coinbase": "030eb6141a4d696e656420627920416e74506f6f6c20626a3242205a6b6c59fabe6d6dea1b878b71f8528dba3ebc9eaba60ed438816de833a2fabb64517ace90d4cd370400000000000000ab010000000000001e000000",
          "sequence": 4294967295
        }
      ],
      "vout": [
        {
          "value": 25.00000000,
          "n": 0,
          "scriptPubKey": {
            "asm": "OP_DUP OP_HASH160 0ff3ccc5e8be88afe24b5d634e5852d474dbdff1 OP_EQUALVERIFY OP_CHECKSIG",
            "hex": "76a9140ff3ccc5e8be88afe24b5d634e5852d474dbdff188ac",
            "reqSigs": 1,
            "type": "pubkeyhash",
            "addresses": [
              "LLgJTbzZMsRTCUF1NtvvL9SR1a4pVieW89"
            ]
          }
        }
      ],
      "hex": "01000000010000000000000000000000000000000000000000000000000000000000000000ffffffff57030eb6141a4d696e656420627920416e74506f6f6c20626a3242205a6b6c59fabe6d6dea1b878b71f8528dba3ebc9eaba60ed438816de833a2fabb64517ace90d4cd370400000000000000ab010000000000001e000000ffffffff0100f90295000000001976a9140ff3ccc5e8be88afe24b5d634e5852d474dbdff188ac00000000"
    }
  ],
  "time": 1516989529,
  "mediantime": 1516989049,
  "nonce": 851612850,
  "bits": "1a047f14",
  "difficulty": 3731199.183374282,
  "chainwork": "000000000000000000000000000000000000000000000032209c6e4aa5181486",
  "previousblockhash": "47220063365412f1e2dae56576a329b6b17751fd4d7b6132b9737dc889ccba17",
  "nextblockhash": "223d8b8b3a01db50fa81986ec13cae9deb708e8b7c7711d2612b8b86ae12187a"
}
