{
  "hash": "56b0c5cb62c3bfbceff5de78e62d514328a667caf19da506369e951b64b5c90d",
  "confirmations": 271,
  "strippedsize": 4102,
  "size": 4797,
  "weight": 17103,
  "height": 1360723,
  "version": 536870912,
  "versionHex": "20000000",
  "merkleroot": "d3008c584841c604b388db79d1525e2527466584ce2c5fc1ad80cf4959897bb7",
  "tx": [
    {
      "txid": "aa0b3732ec185396d14e0cb9c9dd04e0a5887c58e54bd797100f78290a47bbf7",
      "hash": "b52734b20f3ae4a00d88b1191c135894ccd1190fc479402fe79ecc31ef833465",
      "version": 1,
      "size": 251,
      "vsize": 224,
      "locktime": 0,
      "vin": [
        {
          "coinbase": "0353c3140000000000fabe6d6da9ba9b3e581ba7df0e49a7e68902db9b8101fdd978f9f9f367747a8718d29238010000000000000004acc8725a04af67180f087f2705e4400003060a42570a6657042f42572f",
          "sequence": 4294967295
        }
      ],
      "vout": [
        {
          "value": 25.01131488,
          "n": 0,
          "scriptPubKey": {
            "asm": "OP_DUP OP_HASH160 5373bc9425fd49e6bfe522d3dfc85432da2cc023 OP_EQUALVERIFY OP_CHECKSIG",
            "hex": "76a9145373bc9425fd49e6bfe522d3dfc85432da2cc02388ac",
            "reqSigs": 1,
            "type": "pubkeyhash",
            "addresses": [
              "LSqCzf5bPfkqGf94pJcfxWx5bZMPJE5XRf"
            ]
          }
        }, 
        {
          "value": 0.00000000,
          "n": 1,
          "scriptPubKey": {
            "asm": "OP_RETURN aa21a9ed4063fd910dc5f93539d2237ce56c6f429d3ae67c8434e61f884fd7349b8bc32d",
            "hex": "6a24aa21a9ed4063fd910dc5f93539d2237ce56c6f429d3ae67c8434e61f884fd7349b8bc32d",
            "type": "nulldata"
          }
        }
      ],
      "hex": "010000000001010000000000000000000000000000000000000000000000000000000000000000ffffffff530353c3140000000000fabe6d6da9ba9b3e581ba7df0e49a7e68902db9b8101fdd978f9f9f367747a8718d29238010000000000000004acc8725a04af67180f087f2705e4400003060a42570a6657042f42572fffffffff02e03c1495000000001976a9145373bc9425fd49e6bfe522d3dfc85432da2cc02388ac0000000000000000266a24aa21a9ed4063fd910dc5f93539d2237ce56c6f429d3ae67c8434e61f884fd7349b8bc32d0120000000000000000000000000000000000000000000000000000000000000000000000000"
    }, 
    {
      "txid": "2b8fea336ad5132d27e8d887bb8257bdf2fc07fd3fb30f67fddde32fda3f9d7c",
      "hash": "2b8fea336ad5132d27e8d887bb8257bdf2fc07fd3fb30f67fddde32fda3f9d7c",
      "version": 1,
      "size": 189,
      "vsize": 189,
      "locktime": 0,
      "vin": [
        {
          "txid": "a3ff32545629fb9dd712550a4c05eb05fe57c1748f85c2437bb996bff1beef14",
          "vout": 1,
          "scriptSig": {
            "asm": "304402204af3c84cb64b0aab9c89919edee12ce5c0ad65e3878eedefb4171ce11cd4728a022027344b16602aca1723e9eca835adc2a3189beffa5aae597d978ef70ab0d563ad[ALL] 03c369491c56e6ee616f0c8059f47b43383ef33b2d053b15de74ce21cec18323b6",
            "hex": "47304402204af3c84cb64b0aab9c89919edee12ce5c0ad65e3878eedefb4171ce11cd4728a022027344b16602aca1723e9eca835adc2a3189beffa5aae597d978ef70ab0d563ad012103c369491c56e6ee616f0c8059f47b43383ef33b2d053b15de74ce21cec18323b6"
          },
          "sequence": 4294967295
        }
      ],
      "vout": [
        {
          "value": 68.04808829,
          "n": 0,
          "scriptPubKey": {
            "asm": "OP_HASH160 6e955349b087e90dbf1613f5ab3c5347094ea6f4 OP_EQUAL",
            "hex": "a9146e955349b087e90dbf1613f5ab3c5347094ea6f487",
            "reqSigs": 1,
            "type": "scripthash",
            "addresses": [
              "MHysSqaBuZ9vZEeFcjL4vqj2n8XvhyfVqq"
            ]
          }
        }
      ],
      "hex": "010000000114efbef1bf96b97b43c2858f74c157fe05eb054c0a5512d79dfb29565432ffa3010000006a47304402204af3c84cb64b0aab9c89919edee12ce5c0ad65e3878eedefb4171ce11cd4728a022027344b16602aca1723e9eca835adc2a3189beffa5aae597d978ef70ab0d563ad012103c369491c56e6ee616f0c8059f47b43383ef33b2d053b15de74ce21cec18323b6ffffffff017d2499950100000017a9146e955349b087e90dbf1613f5ab3c5347094ea6f48700000000"
    }, 
    {
      "txid": "a94e8af32bad174e43968d5be7b2f89d34813d75998105bc658ce5125c851099",
      "hash": "a94e8af32bad174e43968d5be7b2f89d34813d75998105bc658ce5125c851099",
      "version": 1,
      "size": 336,
      "vsize": 336,
      "locktime": 0,
      "vin": [
        {
          "txid": "f3808e0b82e805f9de67587dc245f501201f8f64d401ede66fb08ba5587803a5",
          "vout": 1,
          "scriptSig": {
            "asm": "0 3045022100a484de9c7cd8cb9b121562f8a5e0d8c278e40261bf8bebf7509144193f426f0802200c0b03e804d488ffb7f453518f9015cffdac81b37be4b6ea451822f588a63945[ALL] 3045022100875a3abcb1050dbc68a766dc64655fdf53ee73842adfac2901d670e6bdb858e00220416f25b57997ba30d9111f054a296e6dbf7bd358433c7ac760ecfa1c3ced8fbf[ALL] 522102f77ec37a042ba4e5e6aef7760398bf59b87ac4c5dee30a2fb8798e9630d4916e210276b93401dc495b28592f66411a7c9093b468f8678db51144fc6a36f550d94aa952ae",
            "hex": "00483045022100a484de9c7cd8cb9b121562f8a5e0d8c278e40261bf8bebf7509144193f426f0802200c0b03e804d488ffb7f453518f9015cffdac81b37be4b6ea451822f588a6394501483045022100875a3abcb1050dbc68a766dc64655fdf53ee73842adfac2901d670e6bdb858e00220416f25b57997ba30d9111f054a296e6dbf7bd358433c7ac760ecfa1c3ced8fbf0147522102f77ec37a042ba4e5e6aef7760398bf59b87ac4c5dee30a2fb8798e9630d4916e210276b93401dc495b28592f66411a7c9093b468f8678db51144fc6a36f550d94aa952ae"
          },
          "sequence": 4294967295
        }
      ],
      "vout": [
        {
          "value": 0.07048000,
          "n": 0,
          "scriptPubKey": {
            "asm": "OP_DUP OP_HASH160 10cd6abaaae921d7d68b2198b09a34109a7afc22 OP_EQUALVERIFY OP_CHECKSIG",
            "hex": "76a91410cd6abaaae921d7d68b2198b09a34109a7afc2288ac",
            "reqSigs": 1,
            "type": "pubkeyhash",
            "addresses": [
              "LLko9u86uxUfkVwqd2iYEJgqjjvddez6mK"
            ]
          }
        }, 
        {
          "value": 28.17378100,
          "n": 1,
          "scriptPubKey": {
            "asm": "OP_HASH160 75b77316f8d91ff71fb2819115d1b6b9e80ccee9 OP_EQUAL",
            "hex": "a91475b77316f8d91ff71fb2819115d1b6b9e80ccee987",
            "reqSigs": 1,
            "type": "scripthash",
            "addresses": [
              "MJdb4B3BMDrfpB1FpKsPYQ1tDHdkNa1oLB"
            ]
          }
        }
      ],
      "hex": "0100000001a5037858a58bb06fe6ed01d4648f1f2001f545c27d5867def905e8820b8e80f301000000db00483045022100a484de9c7cd8cb9b121562f8a5e0d8c278e40261bf8bebf7509144193f426f0802200c0b03e804d488ffb7f453518f9015cffdac81b37be4b6ea451822f588a6394501483045022100875a3abcb1050dbc68a766dc64655fdf53ee73842adfac2901d670e6bdb858e00220416f25b57997ba30d9111f054a296e6dbf7bd358433c7ac760ecfa1c3ced8fbf0147522102f77ec37a042ba4e5e6aef7760398bf59b87ac4c5dee30a2fb8798e9630d4916e210276b93401dc495b28592f66411a7c9093b468f8678db51144fc6a36f550d94aa952aeffffffff02408b6b00000000001976a91410cd6abaaae921d7d68b2198b09a34109a7afc2288ac34c7eda70000000017a91475b77316f8d91ff71fb2819115d1b6b9e80ccee98700000000"
    }, 
    {
      "txid": "274b1ccda68939db12481bb4c23ffdcc5f8059275d690b6527904d550a30ae13",
      "hash": "274b1ccda68939db12481bb4c23ffdcc5f8059275d690b6527904d550a30ae13",
      "version": 1,
      "size": 192,
      "vsize": 192,
      "locktime": 0,
      "vin": [
        {
          "txid": "e89df0b7c4bce27b39c07f15f9b85aac69c22efd6ecc9d9be68f886afa6c3096",
          "vout": 14,
          "scriptSig": {
            "asm": "3045022100ea969d342a4e7400e59f27538e4734de712bade03cce1c28edbbfd84b0f80d1c022079d283bb66bee58aaaebf6342d0447cdeb49f874c5e05c6a6c73ada777a46bd9[ALL] 02f810ef3f230da3627abbe0eaddb2654f42c591c663adfcdc596bc21b1cf39995",
            "hex": "483045022100ea969d342a4e7400e59f27538e4734de712bade03cce1c28edbbfd84b0f80d1c022079d283bb66bee58aaaebf6342d0447cdeb49f874c5e05c6a6c73ada777a46bd9012102f810ef3f230da3627abbe0eaddb2654f42c591c663adfcdc596bc21b1cf39995"
          },
          "sequence": 4294967295
        }
      ],
      "vout": [
        {
          "value": 36.95200000,
          "n": 0,
          "scriptPubKey": {
            "asm": "OP_DUP OP_HASH160 2aeed2dc953277e558fe32e93f87d03a1d14d07e OP_EQUALVERIFY OP_CHECKSIG",
            "hex": "76a9142aeed2dc953277e558fe32e93f87d03a1d14d07e88ac",
            "reqSigs": 1,
            "type": "pubkeyhash",
            "addresses": [
              "LP8xk2h4yr5mcYwzroeEyREFSb1caxaQto"
            ]
          }
        }
      ],
      "hex": "010000000196306cfa6a888fe69b9dcc6efd2ec269ac5ab8f9157fc0397be2bcc4b7f09de80e0000006b483045022100ea969d342a4e7400e59f27538e4734de712bade03cce1c28edbbfd84b0f80d1c022079d283bb66bee58aaaebf6342d0447cdeb49f874c5e05c6a6c73ada777a46bd9012102f810ef3f230da3627abbe0eaddb2654f42c591c663adfcdc596bc21b1cf39995ffffffff01004740dc000000001976a9142aeed2dc953277e558fe32e93f87d03a1d14d07e88ac00000000"
    }, 
    {
      "txid": "23d5facf865e8f1df2e399ddbfbd7f8e0e5fb44d74f27a28036f1514390edd58",
      "hash": "23d5facf865e8f1df2e399ddbfbd7f8e0e5fb44d74f27a28036f1514390edd58",
      "version": 1,
      "size": 225,
      "vsize": 225,
      "locktime": 0,
      "vin": [
        {
          "txid": "d08ed726a080800eea93f9afc5568ab1d0d62dbee2060dc70cd7d01f40daaa1e",
          "vout": 2,
          "scriptSig": {
            "asm": "304402207527b9087e30fa653c7dac67dddd3834b074969730b67beb288e3769b5b2015d0220672e6672227c349a784735e13ad37c377222fd0777d40dbfd0ce1fc1d5c2b2b6[ALL] 0328c9ae635abf580c261c44815dc1aac309e16ff26250525b7e99951369d2b8c7",
            "hex": "47304402207527b9087e30fa653c7dac67dddd3834b074969730b67beb288e3769b5b2015d0220672e6672227c349a784735e13ad37c377222fd0777d40dbfd0ce1fc1d5c2b2b601210328c9ae635abf580c261c44815dc1aac309e16ff26250525b7e99951369d2b8c7"
          },
          "sequence": 4294967295
        }
      ],
      "vout": [
        {
          "value": 0.14867842,
          "n": 0,
          "scriptPubKey": {
            "asm": "OP_DUP OP_HASH160 f2bf4511cb5be5a444f3c63d70eed8ee88e8a8db OP_EQUALVERIFY OP_CHECKSIG",
            "hex": "76a914f2bf4511cb5be5a444f3c63d70eed8ee88e8a8db88ac",
            "reqSigs": 1,
            "type": "pubkeyhash",
            "addresses": [
              "LhMUvJ49KmTSFyZE5ztJfmyDpiWvhzb7GS"
            ]
          }
        }, 
        {
          "value": 15.38095741,
          "n": 1,
          "scriptPubKey": {
            "asm": "OP_DUP OP_HASH160 c6e3836c2f4cd8f9c53e32813ded99ac0ce001f1 OP_EQUALVERIFY OP_CHECKSIG",
            "hex": "76a914c6e3836c2f4cd8f9c53e32813ded99ac0ce001f188ac",
            "reqSigs": 1,
            "type": "pubkeyhash",
            "addresses": [
              "LdMac6qdwFnBCVXN96dvoPjzbcE36gzs64"
            ]
          }
        }
      ],
      "hex": "01000000011eaada401fd0d70cc70d06e2be2dd6d0b18a56c5aff993ea0e8080a026d78ed0020000006a47304402207527b9087e30fa653c7dac67dddd3834b074969730b67beb288e3769b5b2015d0220672e6672227c349a784735e13ad37c377222fd0777d40dbfd0ce1fc1d5c2b2b601210328c9ae635abf580c261c44815dc1aac309e16ff26250525b7e99951369d2b8c7ffffffff0282dde200000000001976a914f2bf4511cb5be5a444f3c63d70eed8ee88e8a8db88ac7d7aad5b000000001976a914c6e3836c2f4cd8f9c53e32813ded99ac0ce001f188ac00000000"
    }, 
    {
      "txid": "a286e241eee9f80a8cc3dd7e662afd3ce4e86f8c890a7c14597d7ff30d79592f",
      "hash": "a286e241eee9f80a8cc3dd7e662afd3ce4e86f8c890a7c14597d7ff30d79592f",
      "version": 1,
      "size": 226,
      "vsize": 226,
      "locktime": 0,
      "vin": [
        {
          "txid": "134e0c08569d8e5677cf335ea7c9e7ab07f8969a8b9f04f4a4c8963fab0fb518",
          "vout": 1,
          "scriptSig": {
            "asm": "3045022100adba9a6e7e28e60078e3fdbd8976b6ca763a6a35e7ae1115a3f8b86a9ed903530220158b0b29c64e029bf8d3f0c8e2b3052033067e6c7754c451e6f363896c9081dc[ALL] 0318f6de35b019403f36749c07812b11db71997d208490371d4af55432b138e829",
            "hex": "483045022100adba9a6e7e28e60078e3fdbd8976b6ca763a6a35e7ae1115a3f8b86a9ed903530220158b0b29c64e029bf8d3f0c8e2b3052033067e6c7754c451e6f363896c9081dc01210318f6de35b019403f36749c07812b11db71997d208490371d4af55432b138e829"
          },
          "sequence": 4294967295
        }
      ],
      "vout": [
        {
          "value": 4.00000000,
          "n": 0,
          "scriptPubKey": {
            "asm": "OP_DUP OP_HASH160 c831fcbbd522a5f9bd3df85be3b313ecf524d958 OP_EQUALVERIFY OP_CHECKSIG",
            "hex": "76a914c831fcbbd522a5f9bd3df85be3b313ecf524d95888ac",
            "reqSigs": 1,
            "type": "pubkeyhash",
            "addresses": [
              "LdUVHkf236DKHuAV6m9f9uHofm97JZf7Xk"
            ]
          }
        }, 
        {
          "value": 10.53650000,
          "n": 1,
          "scriptPubKey": {
            "asm": "OP_DUP OP_HASH160 f06bda5dff8a849a9283eb56d0dc0dc47ee78239 OP_EQUALVERIFY OP_CHECKSIG",
            "hex": "76a914f06bda5dff8a849a9283eb56d0dc0dc47ee7823988ac",
            "reqSigs": 1,
            "type": "pubkeyhash",
            "addresses": [
              "Lh9Be1XaQbgrkBSpWxd6hnzauQusjW8LFC"
            ]
          }
        }
      ],
      "hex": "010000000118b50fab3f96c8a4f4049f8b9a96f807abe7c9a75e33cf77568e9d56080c4e13010000006b483045022100adba9a6e7e28e60078e3fdbd8976b6ca763a6a35e7ae1115a3f8b86a9ed903530220158b0b29c64e029bf8d3f0c8e2b3052033067e6c7754c451e6f363896c9081dc01210318f6de35b019403f36749c07812b11db71997d208490371d4af55432b138e829ffffffff020084d717000000001976a914c831fcbbd522a5f9bd3df85be3b313ecf524d95888ac506ccd3e000000001976a914f06bda5dff8a849a9283eb56d0dc0dc47ee7823988ac00000000"
    }, 
    {
      "txid": "1919ee9fab9bea5965b27a273ce62d580a54d0ff448ed25a9cafae20d18f1c1f",
      "hash": "1919ee9fab9bea5965b27a273ce62d580a54d0ff448ed25a9cafae20d18f1c1f",
      "version": 2,
      "size": 225,
      "vsize": 225,
      "locktime": 1360721,
      "vin": [
        {
          "txid": "8a19bd0f1d125d2acd8c6e4adf66f9a905c00a0bd49a614396e002e988d08128",
          "vout": 1,
          "scriptSig": {
            "asm": "304402200c744dfa8b097fb21401b0f9bda8a4bcf3dcf908bd15f91eef6d30763002f3aa02204f0553995ab906de7f6ea87bb81ffb214be4a0ab188165497a3e88d82922c34b[ALL] 0212a65257bd044b5e50e96acddd8c2a274d5d448de8ed9bf4181d1dce5559d304",
            "hex": "47304402200c744dfa8b097fb21401b0f9bda8a4bcf3dcf908bd15f91eef6d30763002f3aa02204f0553995ab906de7f6ea87bb81ffb214be4a0ab188165497a3e88d82922c34b01210212a65257bd044b5e50e96acddd8c2a274d5d448de8ed9bf4181d1dce5559d304"
          },
          "sequence": 4294967294
        }
      ],
      "vout": [
        {
          "value": 0.05541044,
          "n": 0,
          "scriptPubKey": {
            "asm": "OP_DUP OP_HASH160 cfa22edd718fc7db873b7fdfd3eafaeadefcba1f OP_EQUALVERIFY OP_CHECKSIG",
            "hex": "76a914cfa22edd718fc7db873b7fdfd3eafaeadefcba1f88ac",
            "reqSigs": 1,
            "type": "pubkeyhash",
            "addresses": [
              "Le9pRbh2KMLN8LkkwttKFq3wwuz52QFH9v"
            ]
          }
        }, 
        {
          "value": 9.23064361,
          "n": 1,
          "scriptPubKey": {
            "asm": "OP_DUP OP_HASH160 4c22ae16265cc464f4b73fc51612442c8961bbaa OP_EQUALVERIFY OP_CHECKSIG",
            "hex": "76a9144c22ae16265cc464f4b73fc51612442c8961bbaa88ac",
            "reqSigs": 1,
            "type": "pubkeyhash",
            "addresses": [
              "LSAXAQJPnkKnrfJvK1yeuZFyDz4pcZXVi6"
            ]
          }
        }
      ],
      "hex": "02000000012881d088e902e09643619ad40b0ac005a9f966df4a6e8ccd2a5d121d0fbd198a010000006a47304402200c744dfa8b097fb21401b0f9bda8a4bcf3dcf908bd15f91eef6d30763002f3aa02204f0553995ab906de7f6ea87bb81ffb214be4a0ab188165497a3e88d82922c34b01210212a65257bd044b5e50e96acddd8c2a274d5d448de8ed9bf4181d1dce5559d304feffffff02b48c5400000000001976a914cfa22edd718fc7db873b7fdfd3eafaeadefcba1f88ac29d80437000000001976a9144c22ae16265cc464f4b73fc51612442c8961bbaa88ac51c31400"
    }, 
    {
      "txid": "7474bab49959bb678866a044b1bc2a77db0faebc3ac195759d8dece354019f8c",
      "hash": "f8c1463622b7064486eb1b4191a4edfd0f0ad566fbde5b69a5c30407c7292776",
      "version": 1,
      "size": 373,
      "vsize": 208,
      "locktime": 0,
      "vin": [
        {
          "txid": "7e64dca5ce7d07a5e2f42d90076a8c4b8cf9522c059c4b61f76a37bbce62bc43",
          "vout": 0,
          "scriptSig": {
            "asm": "0020536b6c159e45f5d93453013c9e4acb7526c6fd9c74369be9f355c6043496c21b",
            "hex": "220020536b6c159e45f5d93453013c9e4acb7526c6fd9c74369be9f355c6043496c21b"
          },
          "txinwitness": [
            "", 
            "304402206134fb62c4b0e9e47223597f635e00213832ec67fe6e2119cec884e8b91e98b902202375e8630a97eaa070838670d7b45c8c0d9f8f61ef9dea9b72aacf87ed4ba49c01", 
            "3045022100f0ecaff154012db015f8c402f4dcdb79442bda1f8bb0c032f2472385f40aab7f02207c14ce522825601d6012d900231ff46d7d886bada8f5345f7c7eec135a57f66a01", 
            "522103793b8794614246f7110f11d50cd53a4aff25de3a806e8a50233e64092b11e36421035601f3a2305646caace0c463b02eba89c2b789e281cef04109061d879d5bb51352ae"
          ],
          "sequence": 4294967295
        }
      ],
      "vout": [
        {
          "value": 0.10000000,
          "n": 0,
          "scriptPubKey": {
            "asm": "OP_DUP OP_HASH160 ae36d42c191268577930b0f137d550c440b5fd27 OP_EQUALVERIFY OP_CHECKSIG",
            "hex": "76a914ae36d42c191268577930b0f137d550c440b5fd2788ac",
            "reqSigs": 1,
            "type": "pubkeyhash",
            "addresses": [
              "Lb77XAR9w5MFJUUw9vCQH5HdeRrFwgYCaC"
            ]
          }
        }, 
        {
          "value": 0.69614800,
          "n": 1,
          "scriptPubKey": {
            "asm": "OP_HASH160 62a08593ff74f966a263b8014a9716c127612996 OP_EQUAL",
            "hex": "a91462a08593ff74f966a263b8014a9716c12761299687",
            "reqSigs": 1,
            "type": "scripthash",
            "addresses": [
              "MGtekUjj2oYLurNMkYzpnv76qPfTQ6SRJT"
            ]
          }
        }
      ],
      "hex": "0100000000010143bc62cebb376af7614b9c052c52f98c4b8c6a07902df4e2a5077dcea5dc647e0000000023220020536b6c159e45f5d93453013c9e4acb7526c6fd9c74369be9f355c6043496c21bffffffff0280969800000000001976a914ae36d42c191268577930b0f137d550c440b5fd2788acd03c26040000000017a91462a08593ff74f966a263b8014a9716c12761299687040047304402206134fb62c4b0e9e47223597f635e00213832ec67fe6e2119cec884e8b91e98b902202375e8630a97eaa070838670d7b45c8c0d9f8f61ef9dea9b72aacf87ed4ba49c01483045022100f0ecaff154012db015f8c402f4dcdb79442bda1f8bb0c032f2472385f40aab7f02207c14ce522825601d6012d900231ff46d7d886bada8f5345f7c7eec135a57f66a0147522103793b8794614246f7110f11d50cd53a4aff25de3a806e8a50233e64092b11e36421035601f3a2305646caace0c463b02eba89c2b789e281cef04109061d879d5bb51352ae00000000"
    }, 
    {
      "txid": "234388dad0d4b62105c5bb48547c03ea5e38fe76567be285614c6b592056f3c2",
      "hash": "8682534b01f2e77e9d936f5d343eac612d22eabca2ab18be24feee2b753b84ba",
      "version": 1,
      "size": 373,
      "vsize": 208,
      "locktime": 0,
      "vin": [
        {
          "txid": "b02a3500dc6d39558bec4024457891b5365525859d99dafce1b369e0a49910bc",
          "vout": 1,
          "scriptSig": {
            "asm": "002069cb51c23f2f9709d0e1e71186d13ac8de5d72d2c5b2bc08a89f1cc3b3bc3b00",
            "hex": "22002069cb51c23f2f9709d0e1e71186d13ac8de5d72d2c5b2bc08a89f1cc3b3bc3b00"
          },
          "txinwitness": [
            "", 
            "30440220207b21c3fa4982179efe3f2c5e8be346dfa35592cc66369ae132839b10acfc0b0220284a90d3904b2a7dfc5ee77bb3afb4c94f72db8824d32bdbf6c3a9b6f038634b01", 
            "3045022100955f336339f34b48943f17e3c4d70d9dee4963826b987674fe0516207237a26d0220672b665a38ec250ba85cca81d6b6e8c9d2040ebc96ce3f407c53de3f4dfbbe6701", 
            "522103fb09a568530f604a591e84cd549837d06774e35c45f31645b7ae07459e67379b21039c1cc1923081a09ab4d6cec717bdf455a6bc2901873a72ed03e7bd3c6bb3c7e652ae"
          ],
          "sequence": 4294967295
        }
      ],
      "vout": [
        {
          "value": 0.34713000,
          "n": 0,
          "scriptPubKey": {
            "asm": "OP_DUP OP_HASH160 5ade8795921692dd28197a8e421562d1dba92422 OP_EQUALVERIFY OP_CHECKSIG",
            "hex": "76a9145ade8795921692dd28197a8e421562d1dba9242288ac",
            "reqSigs": 1,
            "type": "pubkeyhash",
            "addresses": [
              "LTWRf7AxxumyZsLQaVr9crBVV6K8MoihAi"
            ]
          }
        }, 
        {
          "value": 0.56236981,
          "n": 1,
          "scriptPubKey": {
            "asm": "OP_HASH160 48b8c6bad309aef113a92cb41c7c6a52e82305b9 OP_EQUAL",
            "hex": "a91448b8c6bad309aef113a92cb41c7c6a52e82305b987",
            "reqSigs": 1,
            "type": "scripthash",
            "addresses": [
              "MEXgEivJK688z9PDpH1T8orMnEjmgBz7Lj"
            ]
          }
        }
      ],
      "hex": "01000000000101bc1099a4e069b3e1fcda999d85255536b59178452440ec8b55396ddc00352ab0010000002322002069cb51c23f2f9709d0e1e71186d13ac8de5d72d2c5b2bc08a89f1cc3b3bc3b00ffffffff02a8ad1102000000001976a9145ade8795921692dd28197a8e421562d1dba9242288acb51b5a030000000017a91448b8c6bad309aef113a92cb41c7c6a52e82305b98704004730440220207b21c3fa4982179efe3f2c5e8be346dfa35592cc66369ae132839b10acfc0b0220284a90d3904b2a7dfc5ee77bb3afb4c94f72db8824d32bdbf6c3a9b6f038634b01483045022100955f336339f34b48943f17e3c4d70d9dee4963826b987674fe0516207237a26d0220672b665a38ec250ba85cca81d6b6e8c9d2040ebc96ce3f407c53de3f4dfbbe670147522103fb09a568530f604a591e84cd549837d06774e35c45f31645b7ae07459e67379b21039c1cc1923081a09ab4d6cec717bdf455a6bc2901873a72ed03e7bd3c6bb3c7e652ae00000000"
    }, 
    {
      "txid": "45c969095debcd120f20a389601491882988008f0ebd62d50c0032683cdeb0a1",
      "hash": "45c969095debcd120f20a389601491882988008f0ebd62d50c0032683cdeb0a1",
      "version": 2,
      "size": 225,
      "vsize": 225,
      "locktime": 1360722,
      "vin": [
        {
          "txid": "faa27f2c8a6236184c75f1232b960e9330327c888a569fa215608a66f41b07c6",
          "vout": 0,
          "scriptSig": {
            "asm": "304402206e8189eb2c560662daac5e35d8b02727d4422d4ce64991ba47df6d9157b4c1b802201e02781a3359c557d96656dfd528e4b8edad9b643a66d9bf8618f0859b47b5a6[ALL] 028b17f2b411375198341bdffdc0ff952aef2707e7cb0ee9be98c1840ba72df2ce",
            "hex": "47304402206e8189eb2c560662daac5e35d8b02727d4422d4ce64991ba47df6d9157b4c1b802201e02781a3359c557d96656dfd528e4b8edad9b643a66d9bf8618f0859b47b5a60121028b17f2b411375198341bdffdc0ff952aef2707e7cb0ee9be98c1840ba72df2ce"
          },
          "sequence": 4294967294
        }
      ],
      "vout": [
        {
          "value": 0.09683026,
          "n": 0,
          "scriptPubKey": {
            "asm": "OP_DUP OP_HASH160 7166f29a0b68f1d32664c500c400fe000f0e6dc1 OP_EQUALVERIFY OP_CHECKSIG",
            "hex": "76a9147166f29a0b68f1d32664c500c400fe000f0e6dc188ac",
            "reqSigs": 1,
            "type": "pubkeyhash",
            "addresses": [
              "LVZZwpSxUAe5L8toWmVwHEc4uVPXDSACcV"
            ]
          }
        }, 
        {
          "value": 1.51330000,
          "n": 1,
          "scriptPubKey": {
            "asm": "OP_DUP OP_HASH160 f01170368d5661483444f9cc0d339934a85295ac OP_EQUALVERIFY OP_CHECKSIG",
            "hex": "76a914f01170368d5661483444f9cc0d339934a85295ac88ac",
            "reqSigs": 1,
            "type": "pubkeyhash",
            "addresses": [
              "Lh7KKtWUqQ2jqXqoAtevSUrgDuj5PtvJ2c"
            ]
          }
        }
      ],
      "hex": "0200000001c6071bf4668a6015a29f568a887c3230930e962b23f1754c1836628a2c7fa2fa000000006a47304402206e8189eb2c560662daac5e35d8b02727d4422d4ce64991ba47df6d9157b4c1b802201e02781a3359c557d96656dfd528e4b8edad9b643a66d9bf8618f0859b47b5a60121028b17f2b411375198341bdffdc0ff952aef2707e7cb0ee9be98c1840ba72df2cefeffffff0252c09300000000001976a9147166f29a0b68f1d32664c500c400fe000f0e6dc188acd01c0509000000001976a914f01170368d5661483444f9cc0d339934a85295ac88ac52c31400"
    }, 
    {
      "txid": "12c11dd70320afcadfee98985cbf7347568f751387ba1599edbc3c335c805afe",
      "hash": "12c11dd70320afcadfee98985cbf7347568f751387ba1599edbc3c335c805afe",
      "version": 1,
      "size": 190,
      "vsize": 190,
      "locktime": 0,
      "vin": [
        {
          "txid": "43df48d479c626d704ca7ca65b1ce2c0acf12257274eef4b28fcfa6e19518d5e",
          "vout": 1,
          "scriptSig": {
            "asm": "3045022100a982ea45e4fc8c00bc0b40e25246608020ab298416ea9d2a0146e2cb7147226102200304ca3c97ef9ae28f4ddd1ae388af594c6835f6b93787094be2121f19538dc9[ALL] 02e6fb39254f0a29fc77217c4dbd8b910c88d57fc52355c8d0e3aa1337d8deb3b8",
            "hex": "483045022100a982ea45e4fc8c00bc0b40e25246608020ab298416ea9d2a0146e2cb7147226102200304ca3c97ef9ae28f4ddd1ae388af594c6835f6b93787094be2121f19538dc9012102e6fb39254f0a29fc77217c4dbd8b910c88d57fc52355c8d0e3aa1337d8deb3b8"
          },
          "sequence": 4294967295
        }
      ],
      "vout": [
        {
          "value": 0.01652649,
          "n": 0,
          "scriptPubKey": {
            "asm": "OP_HASH160 e569678963a44d693ebc01ad0592a5e4e148a5e5 OP_EQUAL",
            "hex": "a914e569678963a44d693ebc01ad0592a5e4e148a5e587",
            "reqSigs": 1,
            "type": "scripthash",
            "addresses": [
              "MUpBEzGiXSQSRFoN1ypfzJy41o25zJiH7i"
            ]
          }
        }
      ],
      "hex": "01000000015e8d51196efafc284bef4e275722f1acc0e21c5ba67cca04d726c679d448df43010000006b483045022100a982ea45e4fc8c00bc0b40e25246608020ab298416ea9d2a0146e2cb7147226102200304ca3c97ef9ae28f4ddd1ae388af594c6835f6b93787094be2121f19538dc9012102e6fb39254f0a29fc77217c4dbd8b910c88d57fc52355c8d0e3aa1337d8deb3b8ffffffff01a93719000000000017a914e569678963a44d693ebc01ad0592a5e4e148a5e58700000000"
    }, 
    {
      "txid": "d2e59d7c8ae886c5362f7b35bfdc86806ea1af4cc66d92ebb7e68ac2714858d3",
      "hash": "cf2cb60acc34ef9358a068bf335fccae0d46fc9c5d3376ccf5c0a060f2010a7b",
      "version": 1,
      "size": 421,
      "vsize": 259,
      "locktime": 0,
      "vin": [
        {
          "txid": "81c885317c816c0b6bd94fa1284b6ab87e44da4d981b5cf648450ad40a2af93f",
          "vout": 1,
          "scriptSig": {
            "asm": "001409d95d90cc72c0bcdd8c1065be111c1e29b4c9af",
            "hex": "16001409d95d90cc72c0bcdd8c1065be111c1e29b4c9af"
          },
          "txinwitness": [
            "3044022057d4ee92a9d756c32b064f55a0d937e534853fcdbf16b66746ee4c05b5067ccc02206e76837a397d917d1e13f7e294e98760f083e476f756f940c20c9825ea8b835701", 
            "02f2aa8dd91bb507800a855eedce4bbe9e0d4345d6578f56318934322d0729cee5"
          ],
          "sequence": 4294967295
        }, 
        {
          "txid": "83460facedad514af753cd0f680eea5206546213c97b107b7c75f1fb61fe389e",
          "vout": 0,
          "scriptSig": {
            "asm": "0014a36fc4a383cd94a04b39215c14974682ea37b471",
            "hex": "160014a36fc4a383cd94a04b39215c14974682ea37b471"
          },
          "txinwitness": [
            "304502210094c0128805c9e2f6e8ad359fd1459f3d9bdcdb13dd4d0e8a71654b721d157dfe022075726a87081c22ddd74f4ae31c1f43e856490ab04be0bc3ad0baa69b4b89ea4001", 
            "03dbe7c3908efa93d351dcddb52bce498a0ac1739c724266895ac969f57a057093"
          ],
          "sequence": 4294967295
        }
      ],
      "vout": [
        {
          "value": 3.09043125,
          "n": 0,
          "scriptPubKey": {
            "asm": "OP_HASH160 fa9dc94f5c6952d69b1676625d83d0aa619496f9 OP_EQUAL",
            "hex": "a914fa9dc94f5c6952d69b1676625d83d0aa619496f987",
            "reqSigs": 1,
            "type": "scripthash",
            "addresses": [
              "MWkJBaQZ6FhZj2WWAZXLxFXydkHSjTxSMZ"
            ]
          }
        }, 
        {
          "value": 50.00000000,
          "n": 1,
          "scriptPubKey": {
            "asm": "OP_DUP OP_HASH160 5ffbafd2ac0cd71644d05478a2392f3e5d3cbba4 OP_EQUALVERIFY OP_CHECKSIG",
            "hex": "76a9145ffbafd2ac0cd71644d05478a2392f3e5d3cbba488ac",
            "reqSigs": 1,
            "type": "pubkeyhash",
            "addresses": [
              "LTyTxweFQZj87A5RCXmQ59iKcXsVa2WZFV"
            ]
          }
        }
      ],
      "hex": "010000000001023ff92a0ad40a4548f65c1b984dda447eb86a4b28a14fd96b0b6c817c3185c881010000001716001409d95d90cc72c0bcdd8c1065be111c1e29b4c9afffffffff9e38fe61fbf1757c7b107bc91362540652ea0e680fcd53f74a51adedac0f46830000000017160014a36fc4a383cd94a04b39215c14974682ea37b471ffffffff02b59f6b120000000017a914fa9dc94f5c6952d69b1676625d83d0aa619496f98700f2052a010000001976a9145ffbafd2ac0cd71644d05478a2392f3e5d3cbba488ac02473044022057d4ee92a9d756c32b064f55a0d937e534853fcdbf16b66746ee4c05b5067ccc02206e76837a397d917d1e13f7e294e98760f083e476f756f940c20c9825ea8b8357012102f2aa8dd91bb507800a855eedce4bbe9e0d4345d6578f56318934322d0729cee50248304502210094c0128805c9e2f6e8ad359fd1459f3d9bdcdb13dd4d0e8a71654b721d157dfe022075726a87081c22ddd74f4ae31c1f43e856490ab04be0bc3ad0baa69b4b89ea40012103dbe7c3908efa93d351dcddb52bce498a0ac1739c724266895ac969f57a05709300000000"
    }, 
    {
      "txid": "f1e900359f3272791468aba9b5deafabe24837946e078b5d8561edd38f70eabe",
      "hash": "f1e900359f3272791468aba9b5deafabe24837946e078b5d8561edd38f70eabe",
      "version": 2,
      "size": 225,
      "vsize": 225,
      "locktime": 1360722,
      "vin": [
        {
          "txid": "e820deb43a9b0b4240a1e046f40d918e57fbd421d7c8626886f300e8609b2543",
          "vout": 0,
          "scriptSig": {
            "asm": "304402206e7f7f42a6e3af9dad002440df115eb04d60a2048450f99558f8d73aae3742bd02204b1869452791360a371c012bcfaf54c123e6cfdae8a5730e9b4751f703bea776[ALL] 03739731d315daf72a7bcf7cc6177b94068b2034d5c7705ad8faf045ceff5f788f",
            "hex": "47304402206e7f7f42a6e3af9dad002440df115eb04d60a2048450f99558f8d73aae3742bd02204b1869452791360a371c012bcfaf54c123e6cfdae8a5730e9b4751f703bea776012103739731d315daf72a7bcf7cc6177b94068b2034d5c7705ad8faf045ceff5f788f"
          },
          "sequence": 4294967294
        }
      ],
      "vout": [
        {
          "value": 0.46060000,
          "n": 0,
          "scriptPubKey": {
            "asm": "OP_DUP OP_HASH160 077646e5190e56993fe783b82c586f41b5a4c91a OP_EQUALVERIFY OP_CHECKSIG",
            "hex": "76a914077646e5190e56993fe783b82c586f41b5a4c91a88ac",
            "reqSigs": 1,
            "type": "pubkeyhash",
            "addresses": [
              "LKuQgafUjPmQyxsZFvXrrKG4xSdwmmKdpF"
            ]
          }
        }, 
        {
          "value": 0.00980629,
          "n": 1,
          "scriptPubKey": {
            "asm": "OP_DUP OP_HASH160 aedef89a3ec9fd4e588586aac5380cb50798cf5c OP_EQUALVERIFY OP_CHECKSIG",
            "hex": "76a914aedef89a3ec9fd4e588586aac5380cb50798cf5c88ac",
            "reqSigs": 1,
            "type": "pubkeyhash",
            "addresses": [
              "LbAawttKVz6QjHdGBwBCugzv72ea34Wqpj"
            ]
          }
        }
      ],
      "hex": "020000000143259b60e800f3866862c8d721d4fb578e910df446e0a140420b9b3ab4de20e8000000006a47304402206e7f7f42a6e3af9dad002440df115eb04d60a2048450f99558f8d73aae3742bd02204b1869452791360a371c012bcfaf54c123e6cfdae8a5730e9b4751f703bea776012103739731d315daf72a7bcf7cc6177b94068b2034d5c7705ad8faf045ceff5f788ffeffffff02e0d1be02000000001976a914077646e5190e56993fe783b82c586f41b5a4c91a88ac95f60e00000000001976a914aedef89a3ec9fd4e588586aac5380cb50798cf5c88ac52c31400"
    }, 
    {
      "txid": "77861941d0f0f4f6af833bbadfde6afb91a4bd747825b7a3dc470c323baec829",
      "hash": "77861941d0f0f4f6af833bbadfde6afb91a4bd747825b7a3dc470c323baec829",
      "version": 2,
      "size": 666,
      "vsize": 666,
      "locktime": 1360722,
      "vin": [
        {
          "txid": "d990c1aa2928c097cd91e8953a36945429aedad54239928a36c064e7361dc5a3",
          "vout": 73,
          "scriptSig": {
            "asm": "304402201711787f9650c551e5d38dd668b6e6811740015fe64302cfbe12ae46e2ab629a02207eb143d6b231d66ad42ff7f9be44b918061f50a4e2d98e9af0128e46c3ba0e2a[ALL] 03eeaa67e919f946f59307b2359eb97e7d863efda8f29d8fb29d9dad7f0afe2097",
            "hex": "47304402201711787f9650c551e5d38dd668b6e6811740015fe64302cfbe12ae46e2ab629a02207eb143d6b231d66ad42ff7f9be44b918061f50a4e2d98e9af0128e46c3ba0e2a012103eeaa67e919f946f59307b2359eb97e7d863efda8f29d8fb29d9dad7f0afe2097"
          },
          "sequence": 4294967294
        }, 
        {
          "txid": "51bbd6ddcefa2dfa1928122e9097f875827a03e59acddb6aff5e4f99d59933bc",
          "vout": 148,
          "scriptSig": {
            "asm": "3045022100f46d29c704c16017dcc75e99bc76e80a75c10ea39c3a4fe829a82dbb2f8a3e6b02206832c980f8f88e6946bfa9868232402a62bd96f1fedafd27fff8e8b6f203bbb7[ALL] 0366a92246e7911b78901767136ca33614e989fc5b29f52ad654f6b4b8bb021524",
            "hex": "483045022100f46d29c704c16017dcc75e99bc76e80a75c10ea39c3a4fe829a82dbb2f8a3e6b02206832c980f8f88e6946bfa9868232402a62bd96f1fedafd27fff8e8b6f203bbb701210366a92246e7911b78901767136ca33614e989fc5b29f52ad654f6b4b8bb021524"
          },
          "sequence": 4294967294
        }, 
        {
          "txid": "501348db8db79b60f4b07523d7b00aad1fd4a90843f40ba53ec1c96bbaee5ddf",
          "vout": 1,
          "scriptSig": {
            "asm": "3044022011ff9e7f5df056990808f99a522d990a172b5f0413a02dc11ef6e2775155144602207e80384eb3a00baa54ccd9e88a431d21441f414428145ee5755f3a4684c20bac[ALL] 03560dd380faea2056c83b3771e7c9bdccf25af444d0336a6267a53021a880c19a",
            "hex": "473044022011ff9e7f5df056990808f99a522d990a172b5f0413a02dc11ef6e2775155144602207e80384eb3a00baa54ccd9e88a431d21441f414428145ee5755f3a4684c20bac012103560dd380faea2056c83b3771e7c9bdccf25af444d0336a6267a53021a880c19a"
          },
          "sequence": 4294967294
        }, 
        {
          "txid": "bd0db7d748e98b131b38437da768e05ded31f4e41773c04ca39e4a1bf4769108",
          "vout": 1,
          "scriptSig": {
            "asm": "30450221009cf79252962e22dc058fee2ac5c33fce9ce3261283601809c5faa006c4a4f2ee022029a5aeb28dd63b638a4109c5e87ae6fba8280e07f2141e5088b5b4596cc8676c[ALL] 03eac27ac42a1759ce2c0278f88cdd36e7b677eeda00bed26d711526d573e78255",
            "hex": "4830450221009cf79252962e22dc058fee2ac5c33fce9ce3261283601809c5faa006c4a4f2ee022029a5aeb28dd63b638a4109c5e87ae6fba8280e07f2141e5088b5b4596cc8676c012103eac27ac42a1759ce2c0278f88cdd36e7b677eeda00bed26d711526d573e78255"
          },
          "sequence": 4294967294
        }
      ],
      "vout": [
        {
          "value": 0.00933389,
          "n": 0,
          "scriptPubKey": {
            "asm": "OP_DUP OP_HASH160 9c5b35c2fad7da18144bbf4765ac00cbd94343c9 OP_EQUALVERIFY OP_CHECKSIG",
            "hex": "76a9149c5b35c2fad7da18144bbf4765ac00cbd94343c988ac",
            "reqSigs": 1,
            "type": "pubkeyhash",
            "addresses": [
              "LZUgwXAaaLzaH6rgjnWGidaGrU1cqPb4Tr"
            ]
          }
        }, 
        {
          "value": 7.87820540,
          "n": 1,
          "scriptPubKey": {
            "asm": "OP_HASH160 0b835033cf8adf9a124f09cf7fdb6cdb0024da4b OP_EQUAL",
            "hex": "a9140b835033cf8adf9a124f09cf7fdb6cdb0024da4b87",
            "reqSigs": 1,
            "type": "scripthash",
            "addresses": [
              "M8x2yM7vaHLCDFBc3tTLS5EoSzFxH4m9ub"
            ]
          }
        }
      ],
      "hex": "0200000004a3c51d36e764c0368a923942d5daae295494363a95e891cd97c02829aac190d9490000006a47304402201711787f9650c551e5d38dd668b6e6811740015fe64302cfbe12ae46e2ab629a02207eb143d6b231d66ad42ff7f9be44b918061f50a4e2d98e9af0128e46c3ba0e2a012103eeaa67e919f946f59307b2359eb97e7d863efda8f29d8fb29d9dad7f0afe2097feffffffbc3399d5994f5eff6adbcd9ae5037a8275f897902e122819fa2dfaceddd6bb51940000006b483045022100f46d29c704c16017dcc75e99bc76e80a75c10ea39c3a4fe829a82dbb2f8a3e6b02206832c980f8f88e6946bfa9868232402a62bd96f1fedafd27fff8e8b6f203bbb701210366a92246e7911b78901767136ca33614e989fc5b29f52ad654f6b4b8bb021524feffffffdf5deeba6bc9c13ea50bf44308a9d41fad0ab0d72375b0f4609bb78ddb481350010000006a473044022011ff9e7f5df056990808f99a522d990a172b5f0413a02dc11ef6e2775155144602207e80384eb3a00baa54ccd9e88a431d21441f414428145ee5755f3a4684c20bac012103560dd380faea2056c83b3771e7c9bdccf25af444d0336a6267a53021a880c19afeffffff089176f41b4a9ea34cc07317e4f431ed5de068a77d43381b138be948d7b70dbd010000006b4830450221009cf79252962e22dc058fee2ac5c33fce9ce3261283601809c5faa006c4a4f2ee022029a5aeb28dd63b638a4109c5e87ae6fba8280e07f2141e5088b5b4596cc8676c012103eac27ac42a1759ce2c0278f88cdd36e7b677eeda00bed26d711526d573e78255feffffff020d3e0e00000000001976a9149c5b35c2fad7da18144bbf4765ac00cbd94343c988acfc2ff52e0000000017a9140b835033cf8adf9a124f09cf7fdb6cdb0024da4b8752c31400"
    }, 
    {
      "txid": "9f3d04a03a2716f085dd5f8f2300578b2b74eaf23d976af0aeee56dfcb9ce1c5",
      "hash": "9f3d04a03a2716f085dd5f8f2300578b2b74eaf23d976af0aeee56dfcb9ce1c5",
      "version": 2,
      "size": 373,
      "vsize": 373,
      "locktime": 1360664,
      "vin": [
        {
          "txid": "1c6cc3b781d84827790724e76344789e0d32831e5781c5ff0a7a81f643d55ad1",
          "vout": 0,
          "scriptSig": {
            "asm": "30440220625ce57c44f795ef13d17ec552323850bb595a8af8486c1dee6aec649dcc3f91022002c37f3992844e4a1f8e8cea26a589b69810f2c2d8d7266de4f1f25275a427cd[ALL] 03c137e29d9aa7e5b9a634f8dab4ec7ecba4029a514fb470152f1541c7849d23b5",
            "hex": "4730440220625ce57c44f795ef13d17ec552323850bb595a8af8486c1dee6aec649dcc3f91022002c37f3992844e4a1f8e8cea26a589b69810f2c2d8d7266de4f1f25275a427cd012103c137e29d9aa7e5b9a634f8dab4ec7ecba4029a514fb470152f1541c7849d23b5"
          },
          "sequence": 4294967294
        }, 
        {
          "txid": "5f71505ed75d2b00d0ba91b4bf57349964c8634c82932506df550ef7a79e8a49",
          "vout": 1,
          "scriptSig": {
            "asm": "3045022100d5eeb1e8e6758fda3ebc9a333638e4e7c029a0211a5caaa2c73c5e0124e2a40d022061cac3ca77f09522515863ec9c99b6ac4bfb7104fbc798adee4860376932d088[ALL] 03a9edf4580fc3d704ea7a15d656f0cbc725efa40c2cbae059c38bcfa88d7b0494",
            "hex": "483045022100d5eeb1e8e6758fda3ebc9a333638e4e7c029a0211a5caaa2c73c5e0124e2a40d022061cac3ca77f09522515863ec9c99b6ac4bfb7104fbc798adee4860376932d088012103a9edf4580fc3d704ea7a15d656f0cbc725efa40c2cbae059c38bcfa88d7b0494"
          },
          "sequence": 4294967294
        }
      ],
      "vout": [
        {
          "value": 1.00000000,
          "n": 0,
          "scriptPubKey": {
            "asm": "OP_DUP OP_HASH160 851f10ea4c6a346985e80567df2c98402468f3a6 OP_EQUALVERIFY OP_CHECKSIG",
            "hex": "76a914851f10ea4c6a346985e80567df2c98402468f3a688ac",
            "reqSigs": 1,
            "type": "pubkeyhash",
            "addresses": [
              "LXMqMEbTnZz7FcMpBdwUA75rVJUkchpsra"
            ]
          }
        }, 
        {
          "value": 0.01062600,
          "n": 1,
          "scriptPubKey": {
            "asm": "OP_DUP OP_HASH160 e229b5eff4da6c024f309e86c11f25b07234cd42 OP_EQUALVERIFY OP_CHECKSIG",
            "hex": "76a914e229b5eff4da6c024f309e86c11f25b07234cd4288ac",
            "reqSigs": 1,
            "type": "pubkeyhash",
            "addresses": [
              "LfqnwgBk3RNyeBLajWKHK579CNDur3mta8"
            ]
          }
        }
      ],
      "hex": "0200000002d15ad543f6817a0affc581571e83320d9e784463e72407792748d881b7c36c1c000000006a4730440220625ce57c44f795ef13d17ec552323850bb595a8af8486c1dee6aec649dcc3f91022002c37f3992844e4a1f8e8cea26a589b69810f2c2d8d7266de4f1f25275a427cd012103c137e29d9aa7e5b9a634f8dab4ec7ecba4029a514fb470152f1541c7849d23b5feffffff498a9ea7f70e55df062593824c63c864993457bfb491bad0002b5dd75e50715f010000006b483045022100d5eeb1e8e6758fda3ebc9a333638e4e7c029a0211a5caaa2c73c5e0124e2a40d022061cac3ca77f09522515863ec9c99b6ac4bfb7104fbc798adee4860376932d088012103a9edf4580fc3d704ea7a15d656f0cbc725efa40c2cbae059c38bcfa88d7b0494feffffff0200e1f505000000001976a914851f10ea4c6a346985e80567df2c98402468f3a688acc8361000000000001976a914e229b5eff4da6c024f309e86c11f25b07234cd4288ac18c31400"
    }, 
    {
      "txid": "234b672967a7f70ca01940b541bdf5e4097c2fb7f426260b9a65a62cdf54d49f",
      "hash": "234b672967a7f70ca01940b541bdf5e4097c2fb7f426260b9a65a62cdf54d49f",
      "version": 1,
      "size": 226,
      "vsize": 226,
      "locktime": 0,
      "vin": [
        {
          "txid": "2f383598d18132af2cf8a47473340b689e980bd6b8373230b16733e6caaf7a8b",
          "vout": 1,
          "scriptSig": {
            "asm": "3045022100e3dcf34fa63746907bb581ee5b5df38f7dadf684bcb16684327b63ecfa83bfd502205c058cbe04707a7ed51e3d25a9c4587444b83404739d741869abaf94922506e7[ALL] 02e548236f10cd494e2b1c592285be6eafe257449c594e9fe0eb5414b0e56117be",
            "hex": "483045022100e3dcf34fa63746907bb581ee5b5df38f7dadf684bcb16684327b63ecfa83bfd502205c058cbe04707a7ed51e3d25a9c4587444b83404739d741869abaf94922506e7012102e548236f10cd494e2b1c592285be6eafe257449c594e9fe0eb5414b0e56117be"
          },
          "sequence": 4294967295
        }
      ],
      "vout": [
        {
          "value": 0.50054000,
          "n": 0,
          "scriptPubKey": {
            "asm": "OP_DUP OP_HASH160 73358455d16abfd57fa153be8543176c56db2525 OP_EQUALVERIFY OP_CHECKSIG",
            "hex": "76a91473358455d16abfd57fa153be8543176c56db252588ac",
            "reqSigs": 1,
            "type": "pubkeyhash",
            "addresses": [
              "LVj85hHGTxipf59jf5h2SzJEGJJ5ZaJZ9T"
            ]
          }
        }, 
        {
          "value": 0.03327186,
          "n": 1,
          "scriptPubKey": {
            "asm": "OP_DUP OP_HASH160 0f1e7addb0f820108f7e306c4b1b1a5eaaee78c5 OP_EQUALVERIFY OP_CHECKSIG",
            "hex": "76a9140f1e7addb0f820108f7e306c4b1b1a5eaaee78c588ac",
            "reqSigs": 1,
            "type": "pubkeyhash",
            "addresses": [
              "LLbtusf31VfMdCSLaQQYYSGemGu9FJWWqJ"
            ]
          }
        }
      ],
      "hex": "01000000018b7aafcae63367b1303237b8d60b989e680b347374a4f82caf3281d19835382f010000006b483045022100e3dcf34fa63746907bb581ee5b5df38f7dadf684bcb16684327b63ecfa83bfd502205c058cbe04707a7ed51e3d25a9c4587444b83404739d741869abaf94922506e7012102e548236f10cd494e2b1c592285be6eafe257449c594e9fe0eb5414b0e56117beffffffff0270c3fb02000000001976a91473358455d16abfd57fa153be8543176c56db252588acd2c43200000000001976a9140f1e7addb0f820108f7e306c4b1b1a5eaaee78c588ac00000000"
    }
  ],
  "time": 1517471916,
  "mediantime": 1517471413,
  "nonce": 3326559017,
  "bits": "1a042eae",
  "difficulty": 4011378.762614286,
  "chainwork": "0000000000000000000000000000000000000000000000353480c638a2ec31a8",
  "previousblockhash": "7e99af24fd1ffe0d74a05457468d57e481227feb0be9b340fd75e5227ae038aa",
  "nextblockhash": "fad3578cb8b957b4cde699f6da9f7f38b05c6820f60a7454b9e62fca5b057105"
}
