{
  "hash": "56c0ddbe1f514763a1346b1e9769e10aff4284985fb91928479b5e79e14d2d18",
  "confirmations": 3369,
  "strippedsize": 5031,
  "size": 5067,
  "weight": 20160,
  "height": 1357626,
  "version": 536870912,
  "versionHex": "20000000",
  "merkleroot": "571e6a0a5e77fc7e5ea8f34c08ccde7dc1ea226f0ccdfa4090ffe35129d69a0c",
  "tx": [
    {
      "txid": "ca44261f64a93370d96c825b5574ba1a29fe9d80810d500e35d7b740e08df280",
      "hash": "2db9434dc76c618f2e055db06b19363e0c0e34d5b885100e7489cafda46941a7",
      "version": 1,
      "size": 277,
      "vsize": 250,
      "locktime": 949645650,
      "vin": [
        {
          "coinbase": "033ab7142cfabe6d6d933bfd7b5ef522d8ad919fc1a6c8486f2415352be7cda77e6aeba543f46dbb0308000000f09f909f104d696e65642062792078696f6e67383000000000000000000000000000000000000000000000000000000000000000000000",
          "sequence": 24
        }
      ],
      "vout": [
        {
          "value": 25.01692200,
          "n": 0,
          "scriptPubKey": {
            "asm": "OP_DUP OP_HASH160 aa3750aa18b8a0f3f0590731e1fab934856680cf OP_EQUALVERIFY OP_CHECKSIG",
            "hex": "76a914aa3750aa18b8a0f3f0590731e1fab934856680cf88ac",
            "reqSigs": 1,
            "type": "pubkeyhash",
            "addresses": [
              "LajyQBeZaBA1NkZDeY8YT5RYYVRkXMvb2T"
            ]
          }
        }, 
        {
          "value": 0.00000000,
          "n": 1,
          "scriptPubKey": {
            "asm": "OP_RETURN aa21a9edea4c04f597eb79bfa9daa5cbab3b7b543b0075050cfbc6a0ec405c4839fa65d9 0000000000000000",
            "hex": "6a24aa21a9edea4c04f597eb79bfa9daa5cbab3b7b543b0075050cfbc6a0ec405c4839fa65d9080000000000000000",
            "type": "nulldata"
          }
        }
      ],
      "hex": "010000000001010000000000000000000000000000000000000000000000000000000000000000ffffffff64033ab7142cfabe6d6d933bfd7b5ef522d8ad919fc1a6c8486f2415352be7cda77e6aeba543f46dbb0308000000f09f909f104d696e65642062792078696f6e67383000000000000000000000000000000000000000000000000000000000000000000000180000000228cb1c95000000001976a914aa3750aa18b8a0f3f0590731e1fab934856680cf88ac00000000000000002f6a24aa21a9edea4c04f597eb79bfa9daa5cbab3b7b543b0075050cfbc6a0ec405c4839fa65d90800000000000000000120000000000000000000000000000000000000000000000000000000000000000052719a38"
    }, 
    {
      "txid": "1f6afbd4f0845db360412464665d642ecd861f25bb3618a2475fc76f8a09070c",
      "hash": "1f6afbd4f0845db360412464665d642ecd861f25bb3618a2475fc76f8a09070c",
      "version": 1,
      "size": 667,
      "vsize": 667,
      "locktime": 0,
      "vin": [
        {
          "txid": "aa0ac0ac4d98bcb12ae5b769d3e1a672361eb7794e8d28be032954b479b308f4",
          "vout": 1,
          "scriptSig": {
            "asm": "30440220471754a26efb30f24307f531d65a79ce6f45f34101f9c3305a77dd0a6263475602204e891906bdcbe583b0baaa118338fd858d8cd062b6b31c02762bab5c45f8d060[ALL] 03baea01e5c7fa185cfaed49f952a614850dd52d7e86011b50e905836cec099d4b",
            "hex": "4730440220471754a26efb30f24307f531d65a79ce6f45f34101f9c3305a77dd0a6263475602204e891906bdcbe583b0baaa118338fd858d8cd062b6b31c02762bab5c45f8d060012103baea01e5c7fa185cfaed49f952a614850dd52d7e86011b50e905836cec099d4b"
          },
          "sequence": 4294967295
        }, 
        {
          "txid": "de6f7f518ef38e9b1d7130afba99d870e14b85e4e5eecf8ec340936193f10dda",
          "vout": 1,
          "scriptSig": {
            "asm": "304402206b89aa8cfd643c2651a12b7c27bd718e4c1b3a2babdf30545e474af592d44fab02204bbf89f94ca73f8394d72a3a948f6b8a9f7381815d8c99c13cb7e582f8eb1d0c[ALL] 03baea01e5c7fa185cfaed49f952a614850dd52d7e86011b50e905836cec099d4b",
            "hex": "47304402206b89aa8cfd643c2651a12b7c27bd718e4c1b3a2babdf30545e474af592d44fab02204bbf89f94ca73f8394d72a3a948f6b8a9f7381815d8c99c13cb7e582f8eb1d0c012103baea01e5c7fa185cfaed49f952a614850dd52d7e86011b50e905836cec099d4b"
          },
          "sequence": 4294967295
        }, 
        {
          "txid": "23c16c59ee8fde3855fba17cedb47edb36d0e4705a3f853adfb89f2ffeb55af3",
          "vout": 0,
          "scriptSig": {
            "asm": "30440220474bdea4042dd538dfef2ed6e50efc97f3d5ad68c20ca8c6fd1a784b3273a01602200b65bdac70a859d7284dfac6cf96004495bd660259b9174df0334ef8e19ebaad[ALL] 03baea01e5c7fa185cfaed49f952a614850dd52d7e86011b50e905836cec099d4b",
            "hex": "4730440220474bdea4042dd538dfef2ed6e50efc97f3d5ad68c20ca8c6fd1a784b3273a01602200b65bdac70a859d7284dfac6cf96004495bd660259b9174df0334ef8e19ebaad012103baea01e5c7fa185cfaed49f952a614850dd52d7e86011b50e905836cec099d4b"
          },
          "sequence": 4294967295
        }, 
        {
          "txid": "c6dab8bfbbac379aa634e49d2f0c4e01fe6816d80758d8e82e59dd83a6a05f1d",
          "vout": 1,
          "scriptSig": {
            "asm": "3045022100d924b0c7575bec74d11e282d7a740bfa898b9e639bc0fa91d915607a9892df9802206918c6daf75f9a219b63309d9910c997e1af542d5ba2bdfce5cbc715b091cd5b[ALL] 03baea01e5c7fa185cfaed49f952a614850dd52d7e86011b50e905836cec099d4b",
            "hex": "483045022100d924b0c7575bec74d11e282d7a740bfa898b9e639bc0fa91d915607a9892df9802206918c6daf75f9a219b63309d9910c997e1af542d5ba2bdfce5cbc715b091cd5b012103baea01e5c7fa185cfaed49f952a614850dd52d7e86011b50e905836cec099d4b"
          },
          "sequence": 4294967295
        }
      ],
      "vout": [
        {
          "value": 27.04726760,
          "n": 0,
          "scriptPubKey": {
            "asm": "OP_DUP OP_HASH160 90539fbf8dff1b9629a72c576d27e1707ff17c1e OP_EQUALVERIFY OP_CHECKSIG",
            "hex": "76a91490539fbf8dff1b9629a72c576d27e1707ff17c1e88ac",
            "reqSigs": 1,
            "type": "pubkeyhash",
            "addresses": [
              "LYP5k8nqPcibJVaARw61wHGQG1b3yVV2cj"
            ]
          }
        }, 
        {
          "value": 19.50162488,
          "n": 1,
          "scriptPubKey": {
            "asm": "OP_DUP OP_HASH160 660ee41243394ab8cc18f971c13d212faffc0422 OP_EQUALVERIFY OP_CHECKSIG",
            "hex": "76a914660ee41243394ab8cc18f971c13d212faffc042288ac",
            "reqSigs": 1,
            "type": "pubkeyhash",
            "addresses": [
              "LUXb2RBsTVd3p1SEfipGB2SjzrQSF1qgAK"
            ]
          }
        }
      ],
      "hex": "0100000004f408b379b4542903be288d4e79b71e3672a6e1d369b7e52ab1bc984dacc00aaa010000006a4730440220471754a26efb30f24307f531d65a79ce6f45f34101f9c3305a77dd0a6263475602204e891906bdcbe583b0baaa118338fd858d8cd062b6b31c02762bab5c45f8d060012103baea01e5c7fa185cfaed49f952a614850dd52d7e86011b50e905836cec099d4bffffffffda0df193619340c38ecfeee5e4854be170d899baaf30711d9b8ef38e517f6fde010000006a47304402206b89aa8cfd643c2651a12b7c27bd718e4c1b3a2babdf30545e474af592d44fab02204bbf89f94ca73f8394d72a3a948f6b8a9f7381815d8c99c13cb7e582f8eb1d0c012103baea01e5c7fa185cfaed49f952a614850dd52d7e86011b50e905836cec099d4bfffffffff35ab5fe2f9fb8df3a853f5a70e4d036db7eb4ed7ca1fb5538de8fee596cc123000000006a4730440220474bdea4042dd538dfef2ed6e50efc97f3d5ad68c20ca8c6fd1a784b3273a01602200b65bdac70a859d7284dfac6cf96004495bd660259b9174df0334ef8e19ebaad012103baea01e5c7fa185cfaed49f952a614850dd52d7e86011b50e905836cec099d4bffffffff1d5fa0a683dd592ee8d85807d81668fe014e0c2f9de434a69a37acbbbfb8dac6010000006b483045022100d924b0c7575bec74d11e282d7a740bfa898b9e639bc0fa91d915607a9892df9802206918c6daf75f9a219b63309d9910c997e1af542d5ba2bdfce5cbc715b091cd5b012103baea01e5c7fa185cfaed49f952a614850dd52d7e86011b50e905836cec099d4bffffffff02e8da36a1000000001976a91490539fbf8dff1b9629a72c576d27e1707ff17c1e88ac381e3d74000000001976a914660ee41243394ab8cc18f971c13d212faffc042288ac00000000"
    }, 
    {
      "txid": "2f5001f07d94e85ad8b80a50bc846686b77b668c9b37379faa2787b78b29c643",
      "hash": "2f5001f07d94e85ad8b80a50bc846686b77b668c9b37379faa2787b78b29c643",
      "version": 1,
      "size": 373,
      "vsize": 373,
      "locktime": 0,
      "vin": [
        {
          "txid": "53466ee4d8c6793409044dc12faafba7100f4784609b14d875006a1987990046",
          "vout": 1,
          "scriptSig": {
            "asm": "3045022100bb8475838c81be154bee6f2e05df3b56ea82703dd691cf7c6cd334f96d59ec8e022043ba8f87ff7a8197efa64208fabee6a1a68a2308cc493caf3c4d7282ecbf0c93[ALL] 03baea01e5c7fa185cfaed49f952a614850dd52d7e86011b50e905836cec099d4b",
            "hex": "483045022100bb8475838c81be154bee6f2e05df3b56ea82703dd691cf7c6cd334f96d59ec8e022043ba8f87ff7a8197efa64208fabee6a1a68a2308cc493caf3c4d7282ecbf0c93012103baea01e5c7fa185cfaed49f952a614850dd52d7e86011b50e905836cec099d4b"
          },
          "sequence": 4294967295
        }, 
        {
          "txid": "99c5e231c77578b672a8c6d471ca6a4c3eb90e5716013511e345e6057b6e6106",
          "vout": 1,
          "scriptSig": {
            "asm": "3044022058e0a8061dbb682abe7d2cb398e255f02a377a4aeb2c33252eb85a97ccfcd8bc0220653f24ce19f6130f39d558182d319abd59da0b9bd967c39e57756e8185e79118[ALL] 03baea01e5c7fa185cfaed49f952a614850dd52d7e86011b50e905836cec099d4b",
            "hex": "473044022058e0a8061dbb682abe7d2cb398e255f02a377a4aeb2c33252eb85a97ccfcd8bc0220653f24ce19f6130f39d558182d319abd59da0b9bd967c39e57756e8185e79118012103baea01e5c7fa185cfaed49f952a614850dd52d7e86011b50e905836cec099d4b"
          },
          "sequence": 4294967295
        }
      ],
      "vout": [
        {
          "value": 27.03619410,
          "n": 0,
          "scriptPubKey": {
            "asm": "OP_DUP OP_HASH160 316f395440df3cd4a941fedc1c1e2a998ff959cd OP_EQUALVERIFY OP_CHECKSIG",
            "hex": "76a914316f395440df3cd4a941fedc1c1e2a998ff959cd88ac",
            "reqSigs": 1,
            "type": "pubkeyhash",
            "addresses": [
              "LPjLcb3A1riJbkrwuEN65Vm6APWA8jno5V"
            ]
          }
        }, 
        {
          "value": 2.75661544,
          "n": 1,
          "scriptPubKey": {
            "asm": "OP_DUP OP_HASH160 7a448c44ec44b67bcf3bb0a91aeaefcf4840275d OP_EQUALVERIFY OP_CHECKSIG",
            "hex": "76a9147a448c44ec44b67bcf3bb0a91aeaefcf4840275d88ac",
            "reqSigs": 1,
            "type": "pubkeyhash",
            "addresses": [
              "LWNSpQiiDBb2rgvjxY8wEqcvhNSaLmNGwL"
            ]
          }
        }
      ],
      "hex": "010000000246009987196a0075d8149b6084470f10a7fbaa2fc14d04093479c6d8e46e4653010000006b483045022100bb8475838c81be154bee6f2e05df3b56ea82703dd691cf7c6cd334f96d59ec8e022043ba8f87ff7a8197efa64208fabee6a1a68a2308cc493caf3c4d7282ecbf0c93012103baea01e5c7fa185cfaed49f952a614850dd52d7e86011b50e905836cec099d4bffffffff06616e7b05e645e311350116570eb93e4c6aca71d4c6a872b67875c731e2c599010000006a473044022058e0a8061dbb682abe7d2cb398e255f02a377a4aeb2c33252eb85a97ccfcd8bc0220653f24ce19f6130f39d558182d319abd59da0b9bd967c39e57756e8185e79118012103baea01e5c7fa185cfaed49f952a614850dd52d7e86011b50e905836cec099d4bffffffff0252f525a1000000001976a914316f395440df3cd4a941fedc1c1e2a998ff959cd88ace8426e10000000001976a9147a448c44ec44b67bcf3bb0a91aeaefcf4840275d88ac00000000"
    }, 
    {
      "txid": "ec5f38ec1a81842da234381808256b8d51d7845f16d9e0b15cac8738118992c9",
      "hash": "ec5f38ec1a81842da234381808256b8d51d7845f16d9e0b15cac8738118992c9",
      "version": 1,
      "size": 334,
      "vsize": 334,
      "locktime": 0,
      "vin": [
        {
          "txid": "76df736c8d31aff2ac92f57718513e3314f493e1ab30c61091b0040dd3b87f9d",
          "vout": 1,
          "scriptSig": {
            "asm": "0 304402203286a5e08a9c11e088fa1a3d5d3e92f1c84efb93287c9a78ea153e93775e4bfe0220181694d27dfcce7c37cc0d6badb0cad9ab7a9a7a231ae2ffd342854731ba8bff[ALL] 304402200cecd7bcb8e4490ceaa0c09ae15099ed6f4fd002ab3057c8776206bad95176fc02204baa7e61c224106f7b8990475f34fe0c8e09ad51b9cf7d8a549c069e834fca28[ALL] 522102f77ec37a042ba4e5e6aef7760398bf59b87ac4c5dee30a2fb8798e9630d4916e210276b93401dc495b28592f66411a7c9093b468f8678db51144fc6a36f550d94aa952ae",
            "hex": "0047304402203286a5e08a9c11e088fa1a3d5d3e92f1c84efb93287c9a78ea153e93775e4bfe0220181694d27dfcce7c37cc0d6badb0cad9ab7a9a7a231ae2ffd342854731ba8bff0147304402200cecd7bcb8e4490ceaa0c09ae15099ed6f4fd002ab3057c8776206bad95176fc02204baa7e61c224106f7b8990475f34fe0c8e09ad51b9cf7d8a549c069e834fca280147522102f77ec37a042ba4e5e6aef7760398bf59b87ac4c5dee30a2fb8798e9630d4916e210276b93401dc495b28592f66411a7c9093b468f8678db51144fc6a36f550d94aa952ae"
          },
          "sequence": 4294967295
        }
      ],
      "vout": [
        {
          "value": 0.06493700,
          "n": 0,
          "scriptPubKey": {
            "asm": "OP_DUP OP_HASH160 34611742cefc325e15d2a3da256ba53c122916af OP_EQUALVERIFY OP_CHECKSIG",
            "hex": "76a91434611742cefc325e15d2a3da256ba53c122916af88ac",
            "reqSigs": 1,
            "type": "pubkeyhash",
            "addresses": [
              "LPzuiBNYDUSbZS5Lox7d9TbvWLxzWJddTM"
            ]
          }
        }, 
        {
          "value": 1.84775200,
          "n": 1,
          "scriptPubKey": {
            "asm": "OP_HASH160 75b77316f8d91ff71fb2819115d1b6b9e80ccee9 OP_EQUAL",
            "hex": "a91475b77316f8d91ff71fb2819115d1b6b9e80ccee987",
            "reqSigs": 1,
            "type": "scripthash",
            "addresses": [
              "MJdb4B3BMDrfpB1FpKsPYQ1tDHdkNa1oLB"
            ]
          }
        }
      ],
      "hex": "01000000019d7fb8d30d04b09110c630abe193f414333e511877f592acf2af318d6c73df7601000000d90047304402203286a5e08a9c11e088fa1a3d5d3e92f1c84efb93287c9a78ea153e93775e4bfe0220181694d27dfcce7c37cc0d6badb0cad9ab7a9a7a231ae2ffd342854731ba8bff0147304402200cecd7bcb8e4490ceaa0c09ae15099ed6f4fd002ab3057c8776206bad95176fc02204baa7e61c224106f7b8990475f34fe0c8e09ad51b9cf7d8a549c069e834fca280147522102f77ec37a042ba4e5e6aef7760398bf59b87ac4c5dee30a2fb8798e9630d4916e210276b93401dc495b28592f66411a7c9093b468f8678db51144fc6a36f550d94aa952aeffffffff0204166300000000001976a91434611742cefc325e15d2a3da256ba53c122916af88ac2072030b0000000017a91475b77316f8d91ff71fb2819115d1b6b9e80ccee98700000000"
    }, 
    {
      "txid": "e64f84622695f7ecb77a75964638db90e380fa2c86994d7bdb780c2f5f382215",
      "hash": "e64f84622695f7ecb77a75964638db90e380fa2c86994d7bdb780c2f5f382215",
      "version": 1,
      "size": 191,
      "vsize": 191,
      "locktime": 0,
      "vin": [
        {
          "txid": "fc558aac4bb56ee35cf2f547704812731c79eec1276f4078b6ce88e5907df41b",
          "vout": 0,
          "scriptSig": {
            "asm": "3044022019773916f56234658d0969c37921c5aeec864204a44199cb61731550cd7df48802200cebf75e363f98f23390210b8002b061549c4d0294da4ec0787a38a1dd07a557[ALL] 02d0520d94f5c4ffeecdf12e972a4cea3ee2f5b54d1926efa3c1a55fd7db958ea0",
            "hex": "473044022019773916f56234658d0969c37921c5aeec864204a44199cb61731550cd7df48802200cebf75e363f98f23390210b8002b061549c4d0294da4ec0787a38a1dd07a557012102d0520d94f5c4ffeecdf12e972a4cea3ee2f5b54d1926efa3c1a55fd7db958ea0"
          },
          "sequence": 4294967295
        }
      ],
      "vout": [
        {
          "value": 0.09551079,
          "n": 0,
          "scriptPubKey": {
            "asm": "OP_DUP OP_HASH160 28e446894839f47a7aa7b1691f899dfac4677ebf OP_EQUALVERIFY OP_CHECKSIG",
            "hex": "76a91428e446894839f47a7aa7b1691f899dfac4677ebf88ac",
            "reqSigs": 1,
            "type": "pubkeyhash",
            "addresses": [
              "LNxAkkMSHjJKXdDxER3kMV9RQoHe9Yb2qW"
            ]
          }
        }
      ],
      "hex": "01000000011bf47d90e588ceb678406f27c1ee791c7312487047f5f25ce36eb54bac8a55fc000000006a473044022019773916f56234658d0969c37921c5aeec864204a44199cb61731550cd7df48802200cebf75e363f98f23390210b8002b061549c4d0294da4ec0787a38a1dd07a557012102d0520d94f5c4ffeecdf12e972a4cea3ee2f5b54d1926efa3c1a55fd7db958ea0ffffffff01e7bc9100000000001976a91428e446894839f47a7aa7b1691f899dfac4677ebf88ac00000000"
    }, 
    {
      "txid": "b75fb19060462fe4b5a9ad8812e75b14310b44a38f367ee39624e9d0a531981d",
      "hash": "b75fb19060462fe4b5a9ad8812e75b14310b44a38f367ee39624e9d0a531981d",
      "version": 1,
      "size": 225,
      "vsize": 225,
      "locktime": 0,
      "vin": [
        {
          "txid": "d073ad5f8b11b81c331726a2e17246c6cc65317b6fb604a354dac4de0f99cde1",
          "vout": 8,
          "scriptSig": {
            "asm": "304402202bc18f3109189a8ccea7e8254b8310f0a2787aaa53aa434cfcd4d8ddc419676e0220794a17ba35bd1476cb5978da05dd471ab013dae2f561263895bdab556c7703d7[ALL] 0322dda9e6d9686536c7edf8dd4d2365c50efea9f52a1f6a023b7fa3ac1abc2bf9",
            "hex": "47304402202bc18f3109189a8ccea7e8254b8310f0a2787aaa53aa434cfcd4d8ddc419676e0220794a17ba35bd1476cb5978da05dd471ab013dae2f561263895bdab556c7703d701210322dda9e6d9686536c7edf8dd4d2365c50efea9f52a1f6a023b7fa3ac1abc2bf9"
          },
          "sequence": 4294967295
        }
      ],
      "vout": [
        {
          "value": 0.60000000,
          "n": 0,
          "scriptPubKey": {
            "asm": "OP_DUP OP_HASH160 20af67adcb34b64e0ba24bab89073e00331a2002 OP_EQUALVERIFY OP_CHECKSIG",
            "hex": "76a91420af67adcb34b64e0ba24bab89073e00331a200288ac",
            "reqSigs": 1,
            "type": "pubkeyhash",
            "addresses": [
              "LNCn1hofC3iBNjCyfv8GwhwoNmdgKRNUDN"
            ]
          }
        }, 
        {
          "value": 1.62448627,
          "n": 1,
          "scriptPubKey": {
            "asm": "OP_DUP OP_HASH160 5002ac8114be1184e6c61126e516acac8b004014 OP_EQUALVERIFY OP_CHECKSIG",
            "hex": "76a9145002ac8114be1184e6c61126e516acac8b00401488ac",
            "reqSigs": 1,
            "type": "pubkeyhash",
            "addresses": [
              "LSX1XLkpLifgahnvu9fiHN4qFeHQ33WwLL"
            ]
          }
        }
      ],
      "hex": "0100000001e1cd990fdec4da54a304b66f7b3165ccc64672e1a22617331cb8118b5fad73d0080000006a47304402202bc18f3109189a8ccea7e8254b8310f0a2787aaa53aa434cfcd4d8ddc419676e0220794a17ba35bd1476cb5978da05dd471ab013dae2f561263895bdab556c7703d701210322dda9e6d9686536c7edf8dd4d2365c50efea9f52a1f6a023b7fa3ac1abc2bf9ffffffff0200879303000000001976a91420af67adcb34b64e0ba24bab89073e00331a200288acf3c4ae09000000001976a9145002ac8114be1184e6c61126e516acac8b00401488ac00000000"
    }, 
    {
      "txid": "52a9b969e201030b21695dbe8934d60baf01913ce66b4b722f7152cec8528006",
      "hash": "52a9b969e201030b21695dbe8934d60baf01913ce66b4b722f7152cec8528006",
      "version": 1,
      "size": 225,
      "vsize": 225,
      "locktime": 0,
      "vin": [
        {
          "txid": "8c5dcdd349b7f3e243bd0a17b17d9726abc0dffb20d85f19131a2002ad9ba7d3",
          "vout": 1,
          "scriptSig": {
            "asm": "304402207aa5d951c7bb44d51757d3b99ac5d9090baad375a784a8e2e9ef1dd2341bd393022046246d434262a8cb785353df126ed40536332a74aeb5a28a06d7f748d16f39cf[ALL] 02506c3ec075b8bc86b5b433d70ad574f2d7a34aa4adeadf30719df14d32b037db",
            "hex": "47304402207aa5d951c7bb44d51757d3b99ac5d9090baad375a784a8e2e9ef1dd2341bd393022046246d434262a8cb785353df126ed40536332a74aeb5a28a06d7f748d16f39cf012102506c3ec075b8bc86b5b433d70ad574f2d7a34aa4adeadf30719df14d32b037db"
          },
          "sequence": 4294967295
        }
      ],
      "vout": [
        {
          "value": 1.00000000,
          "n": 0,
          "scriptPubKey": {
            "asm": "OP_DUP OP_HASH160 5fe531edd60803519f90e5f6d84e141d2f24f71d OP_EQUALVERIFY OP_CHECKSIG",
            "hex": "76a9145fe531edd60803519f90e5f6d84e141d2f24f71d88ac",
            "reqSigs": 1,
            "type": "pubkeyhash",
            "addresses": [
              "LTy12BonYZUkRqWej9vdBXwqSS5d7tpqpa"
            ]
          }
        }, 
        {
          "value": 42.70020736,
          "n": 1,
          "scriptPubKey": {
            "asm": "OP_DUP OP_HASH160 b7704dbec0ef28054b9ecfd95ee067a1d42062ca OP_EQUALVERIFY OP_CHECKSIG",
            "hex": "76a914b7704dbec0ef28054b9ecfd95ee067a1d42062ca88ac",
            "reqSigs": 1,
            "type": "pubkeyhash",
            "addresses": [
              "LbwtTKEta7r6eKx2uWSxHh3KYoJNNLra8z"
            ]
          }
        }
      ],
      "hex": "0100000001d3a79bad02201a13195fd820fbdfc0ab26977db1170abd43e2f3b749d3cd5d8c010000006a47304402207aa5d951c7bb44d51757d3b99ac5d9090baad375a784a8e2e9ef1dd2341bd393022046246d434262a8cb785353df126ed40536332a74aeb5a28a06d7f748d16f39cf012102506c3ec075b8bc86b5b433d70ad574f2d7a34aa4adeadf30719df14d32b037dbffffffff0200e1f505000000001976a9145fe531edd60803519f90e5f6d84e141d2f24f71d88ac805883fe000000001976a914b7704dbec0ef28054b9ecfd95ee067a1d42062ca88ac00000000"
    }, 
    {
      "txid": "40e1cf7552be0c23bbcd719d2a9350ccb66b432fe8ee0d562b9256ea29b0dd13",
      "hash": "40e1cf7552be0c23bbcd719d2a9350ccb66b432fe8ee0d562b9256ea29b0dd13",
      "version": 1,
      "size": 225,
      "vsize": 225,
      "locktime": 0,
      "vin": [
        {
          "txid": "e24968994699bc02fb699fe384a94537c16b4e527562a369d273e91002ab0745",
          "vout": 1558,
          "scriptSig": {
            "asm": "304402202fbb696ec8cd3e60ce2abe3a25b0b0969638cc615db83ba82c2bbde24f7d1474022032fccaf8aad46f657af3a289a30af46eab1f2b03f4b952df45b7eab1e8d402cd[ALL] 02603475a978c48a5a71a2e8e305aac4362f64c7f94525d83208e663fc295f9144",
            "hex": "47304402202fbb696ec8cd3e60ce2abe3a25b0b0969638cc615db83ba82c2bbde24f7d1474022032fccaf8aad46f657af3a289a30af46eab1f2b03f4b952df45b7eab1e8d402cd012102603475a978c48a5a71a2e8e305aac4362f64c7f94525d83208e663fc295f9144"
          },
          "sequence": 4294967295
        }
      ],
      "vout": [
        {
          "value": 0.00054608,
          "n": 0,
          "scriptPubKey": {
            "asm": "OP_DUP OP_HASH160 0c1914375204b38906d71c37622122198c56db00 OP_EQUALVERIFY OP_CHECKSIG",
            "hex": "76a9140c1914375204b38906d71c37622122198c56db0088ac",
            "reqSigs": 1,
            "type": "pubkeyhash",
            "addresses": [
              "LLKvR2pv1Eq8Xrv7QLMdXhsUUQ8N4e4EML"
            ]
          }
        }, 
        {
          "value": 0.01133677,
          "n": 1,
          "scriptPubKey": {
            "asm": "OP_DUP OP_HASH160 ab55d75a4dd24b9506982e32ab8a56f31e6514ee OP_EQUALVERIFY OP_CHECKSIG",
            "hex": "76a914ab55d75a4dd24b9506982e32ab8a56f31e6514ee88ac",
            "reqSigs": 1,
            "type": "pubkeyhash",
            "addresses": [
              "LaqteNLRX1KfPRNTHuYxKVhxXHWX15aeqJ"
            ]
          }
        }
      ],
      "hex": "01000000014507ab0210e973d269a36275524e6bc13745a984e39f69fb02bc9946996849e2160600006a47304402202fbb696ec8cd3e60ce2abe3a25b0b0969638cc615db83ba82c2bbde24f7d1474022032fccaf8aad46f657af3a289a30af46eab1f2b03f4b952df45b7eab1e8d402cd012102603475a978c48a5a71a2e8e305aac4362f64c7f94525d83208e663fc295f9144ffffffff0250d50000000000001976a9140c1914375204b38906d71c37622122198c56db0088ac6d4c1100000000001976a914ab55d75a4dd24b9506982e32ab8a56f31e6514ee88ac00000000"
    }, 
    {
      "txid": "ea94d6db7929cbb42550ee7c33fcc15fe345676963f8ff0310f6869e4a3cad6b",
      "hash": "ea94d6db7929cbb42550ee7c33fcc15fe345676963f8ff0310f6869e4a3cad6b",
      "version": 2,
      "size": 225,
      "vsize": 225,
      "locktime": 1357624,
      "vin": [
        {
          "txid": "7b057d72eb9926bee835c36b62a1f328ed392e682a2ae1c13e288eed298199b9",
          "vout": 1,
          "scriptSig": {
            "asm": "30440220355a960efbe2d320542012a0eef323ed3f22126c1fcaf874ec9aa6eda8e0deee022055806953bfb807de3c57c0e1e5765c39a2b7f643395c82be35320177e870ab75[ALL] 034ae65f279b80468e82f22f431f748342d4decb94eb6b20fffef09012802492da",
            "hex": "4730440220355a960efbe2d320542012a0eef323ed3f22126c1fcaf874ec9aa6eda8e0deee022055806953bfb807de3c57c0e1e5765c39a2b7f643395c82be35320177e870ab750121034ae65f279b80468e82f22f431f748342d4decb94eb6b20fffef09012802492da"
          },
          "sequence": 4294967294
        }
      ],
      "vout": [
        {
          "value": 0.04738214,
          "n": 0,
          "scriptPubKey": {
            "asm": "OP_DUP OP_HASH160 948ba329002e94f98f721ecf65e049a247a6ef12 OP_EQUALVERIFY OP_CHECKSIG",
            "hex": "76a914948ba329002e94f98f721ecf65e049a247a6ef1288ac",
            "reqSigs": 1,
            "type": "pubkeyhash",
            "addresses": [
              "LYmPYn13ipbG7xHqyhhe4D4se7NrFvkCjK"
            ]
          }
        }, 
        {
          "value": 1.54684671,
          "n": 1,
          "scriptPubKey": {
            "asm": "OP_DUP OP_HASH160 f4064af575794464ac0730ec35974ed3bf6065e6 OP_EQUALVERIFY OP_CHECKSIG",
            "hex": "76a914f4064af575794464ac0730ec35974ed3bf6065e688ac",
            "reqSigs": 1,
            "type": "pubkeyhash",
            "addresses": [
              "LhUEgFYcfcFtzehX6dpPHNjVxGJjpdH3P5"
            ]
          }
        }
      ],
      "hex": "0200000001b9998129ed8e283ec1e12a2a682e39ed28f3a1626bc335e8be2699eb727d057b010000006a4730440220355a960efbe2d320542012a0eef323ed3f22126c1fcaf874ec9aa6eda8e0deee022055806953bfb807de3c57c0e1e5765c39a2b7f643395c82be35320177e870ab750121034ae65f279b80468e82f22f431f748342d4decb94eb6b20fffef09012802492dafeffffff02a64c4800000000001976a914948ba329002e94f98f721ecf65e049a247a6ef1288acff4c3809000000001976a914f4064af575794464ac0730ec35974ed3bf6065e688ac38b71400"
    }, 
    {
      "txid": "2d8948986a30c4396fb2b49a366573d37b6b9231e9440dd6975be3c07f002c7c",
      "hash": "2d8948986a30c4396fb2b49a366573d37b6b9231e9440dd6975be3c07f002c7c",
      "version": 1,
      "size": 225,
      "vsize": 225,
      "locktime": 0,
      "vin": [
        {
          "txid": "191889d408cc9a4f97dbcdfd51475bc6724a476798c5f1ba10439500a7b8c696",
          "vout": 0,
          "scriptSig": {
            "asm": "30440220748d66d27201dc03a0cc98be238e6ceb664496d68474e2c8b1e4c122a67f516202203870440cb30a3b19cbf61e325e00a383cbd989d37e992c4b9f88cdff924cedc1[ALL] 026703a1c0a1293db914ce280b176ad0ca09cb3b4f5e82c4ded2f23c6e93036d82",
            "hex": "4730440220748d66d27201dc03a0cc98be238e6ceb664496d68474e2c8b1e4c122a67f516202203870440cb30a3b19cbf61e325e00a383cbd989d37e992c4b9f88cdff924cedc10121026703a1c0a1293db914ce280b176ad0ca09cb3b4f5e82c4ded2f23c6e93036d82"
          },
          "sequence": 4294967295
        }
      ],
      "vout": [
        {
          "value": 0.01335242,
          "n": 0,
          "scriptPubKey": {
            "asm": "OP_DUP OP_HASH160 256b6483c43f1710be44605b80f64dba86b1376d OP_EQUALVERIFY OP_CHECKSIG",
            "hex": "76a914256b6483c43f1710be44605b80f64dba86b1376d88ac",
            "reqSigs": 1,
            "type": "pubkeyhash",
            "addresses": [
              "LNdov5hgCbpDxZjWxqYHL6fHfPerTGZSSh"
            ]
          }
        }, 
        {
          "value": 0.45573658,
          "n": 1,
          "scriptPubKey": {
            "asm": "OP_DUP OP_HASH160 4481bd7282e1aaf5e8d2812fd3f0fd04bcefb2ce OP_EQUALVERIFY OP_CHECKSIG",
            "hex": "76a9144481bd7282e1aaf5e8d2812fd3f0fd04bcefb2ce88ac",
            "reqSigs": 1,
            "type": "pubkeyhash",
            "addresses": [
              "LRUBdkcLWp5NN51iVYnnTgK2FBnruURGdG"
            ]
          }
        }
      ],
      "hex": "010000000196c6b8a700954310baf1c59867474a72c65b4751fdcddb974f9acc08d4891819000000006a4730440220748d66d27201dc03a0cc98be238e6ceb664496d68474e2c8b1e4c122a67f516202203870440cb30a3b19cbf61e325e00a383cbd989d37e992c4b9f88cdff924cedc10121026703a1c0a1293db914ce280b176ad0ca09cb3b4f5e82c4ded2f23c6e93036d82ffffffff02ca5f1400000000001976a914256b6483c43f1710be44605b80f64dba86b1376d88ac1a66b702000000001976a9144481bd7282e1aaf5e8d2812fd3f0fd04bcefb2ce88ac00000000"
    }, 
    {
      "txid": "90d360c0ba65cb33fa7b8a1a95f4689cfa10aa60a87d8271fe549e4d3e297d80",
      "hash": "90d360c0ba65cb33fa7b8a1a95f4689cfa10aa60a87d8271fe549e4d3e297d80",
      "version": 1,
      "size": 225,
      "vsize": 225,
      "locktime": 0,
      "vin": [
        {
          "txid": "3ff83ad095365852ebd96f41b832307d3368e4925cc88e41191ccfc8346e5a2b",
          "vout": 0,
          "scriptSig": {
            "asm": "304402206aae1e438f3295add2ab49c29e1f9691c56b4bb5bf5a7b4ff085595cef73357f02200994e5bab5f9dacdaf620c913e31325be6a8151e151fcc2e557b09448f694b19[ALL] 03a7d039cce2ab4c161971563c627f5e01cb9fc8ddf5f789715c97b43b3b1e4bcf",
            "hex": "47304402206aae1e438f3295add2ab49c29e1f9691c56b4bb5bf5a7b4ff085595cef73357f02200994e5bab5f9dacdaf620c913e31325be6a8151e151fcc2e557b09448f694b19012103a7d039cce2ab4c161971563c627f5e01cb9fc8ddf5f789715c97b43b3b1e4bcf"
          },
          "sequence": 4294967295
        }
      ],
      "vout": [
        {
          "value": 0.55728751,
          "n": 0,
          "scriptPubKey": {
            "asm": "OP_DUP OP_HASH160 ed8b0f9c053917b540e4ebd70a7e85471f92cfb0 OP_EQUALVERIFY OP_CHECKSIG",
            "hex": "76a914ed8b0f9c053917b540e4ebd70a7e85471f92cfb088ac",
            "reqSigs": 1,
            "type": "pubkeyhash",
            "addresses": [
              "LgsxzoWauuVbTkqhUveBo3cSHXLagjnzNm"
            ]
          }
        }, 
        {
          "value": 0.06141276,
          "n": 1,
          "scriptPubKey": {
            "asm": "OP_DUP OP_HASH160 967329fb8d1e46a2de360b0cf30373bcbdde7a7d OP_EQUALVERIFY OP_CHECKSIG",
            "hex": "76a914967329fb8d1e46a2de360b0cf30373bcbdde7a7d88ac",
            "reqSigs": 1,
            "type": "pubkeyhash",
            "addresses": [
              "LYwTaiqjva8BXeZa2q51Rsv89djFTZMk1g"
            ]
          }
        }
      ],
      "hex": "01000000012b5a6e34c8cf1c19418ec85c92e468337d3032b8416fd9eb52583695d03af83f000000006a47304402206aae1e438f3295add2ab49c29e1f9691c56b4bb5bf5a7b4ff085595cef73357f02200994e5bab5f9dacdaf620c913e31325be6a8151e151fcc2e557b09448f694b19012103a7d039cce2ab4c161971563c627f5e01cb9fc8ddf5f789715c97b43b3b1e4bcfffffffff026f5a5203000000001976a914ed8b0f9c053917b540e4ebd70a7e85471f92cfb088ac5cb55d00000000001976a914967329fb8d1e46a2de360b0cf30373bcbdde7a7d88ac00000000"
    }, 
    {
      "txid": "76a04a3db4e9784b3efe36431fadcc44e30d55f05b37827df5ba4f321f226b99",
      "hash": "76a04a3db4e9784b3efe36431fadcc44e30d55f05b37827df5ba4f321f226b99",
      "version": 2,
      "size": 225,
      "vsize": 225,
      "locktime": 1357624,
      "vin": [
        {
          "txid": "580ef738ab08afee1c60200ac54c286c002d5490bafe44c5b950d58fd011ad70",
          "vout": 1,
          "scriptSig": {
            "asm": "3044022057ed9a62a0315c0dbe40a4ae231f810354d8ba232c4b6e8040aaf4ba8ebacc24022068d499f89c22d479b8e731b226e06cea9588a896fade3bfd459f878b945f47c6[ALL] 035caa3b10d248c6a8161f50c5eb5db244349d6afe439c236c85e8c8a0db9de816",
            "hex": "473044022057ed9a62a0315c0dbe40a4ae231f810354d8ba232c4b6e8040aaf4ba8ebacc24022068d499f89c22d479b8e731b226e06cea9588a896fade3bfd459f878b945f47c60121035caa3b10d248c6a8161f50c5eb5db244349d6afe439c236c85e8c8a0db9de816"
          },
          "sequence": 4294967294
        }
      ],
      "vout": [
        {
          "value": 12.13182309,
          "n": 0,
          "scriptPubKey": {
            "asm": "OP_DUP OP_HASH160 aa17fc16c3864e4fa38e64a777cbaf42521456ee OP_EQUALVERIFY OP_CHECKSIG",
            "hex": "76a914aa17fc16c3864e4fa38e64a777cbaf42521456ee88ac",
            "reqSigs": 1,
            "type": "pubkeyhash",
            "addresses": [
              "LajKsK3WncPaX15R3zFQ79haNjhfj9QTD6"
            ]
          }
        }, 
        {
          "value": 134.05257473,
          "n": 1,
          "scriptPubKey": {
            "asm": "OP_DUP OP_HASH160 81f5ae43295dc98ab91326ef08a28b1ad4be2b9f OP_EQUALVERIFY OP_CHECKSIG",
            "hex": "76a91481f5ae43295dc98ab91326ef08a28b1ad4be2b9f88ac",
            "reqSigs": 1,
            "type": "pubkeyhash",
            "addresses": [
              "LX57k9uHG3cNc3xtVFpsat4UCaT3eaMay7"
            ]
          }
        }
      ],
      "hex": "020000000170ad11d08fd550b9c544feba90542d006c284cc50a20601ceeaf08ab38f70e58010000006a473044022057ed9a62a0315c0dbe40a4ae231f810354d8ba232c4b6e8040aaf4ba8ebacc24022068d499f89c22d479b8e731b226e06cea9588a896fade3bfd459f878b945f47c60121035caa3b10d248c6a8161f50c5eb5db244349d6afe439c236c85e8c8a0db9de816feffffff0265b14f48000000001976a914aa17fc16c3864e4fa38e64a777cbaf42521456ee88ac01ff031f030000001976a91481f5ae43295dc98ab91326ef08a28b1ad4be2b9f88ac38b71400"
    }, 
    {
      "txid": "2d8077847297cd7c1adcfc3ec1c30ecac4cd665e751187c72a5e7b91a0b770aa",
      "hash": "2d8077847297cd7c1adcfc3ec1c30ecac4cd665e751187c72a5e7b91a0b770aa",
      "version": 1,
      "size": 225,
      "vsize": 225,
      "locktime": 0,
      "vin": [
        {
          "txid": "fa5d49f18fcff90bc8804309783abe834bb0326057b52215307023f72d3893af",
          "vout": 1,
          "scriptSig": {
            "asm": "304402201d6a0b1bf8999e5ce2d488e111dcca71afee1a6757df885923aa9f44f0efcb9c02203067d8fba8f545907e41248d833ddd0d01a6bd237fe95081ce64046c85bc9eeb[ALL] 0245ea64adc7f9bd8f84c2a35dd901f660fc85f9b033770bd4cd8437e190bc490e",
            "hex": "47304402201d6a0b1bf8999e5ce2d488e111dcca71afee1a6757df885923aa9f44f0efcb9c02203067d8fba8f545907e41248d833ddd0d01a6bd237fe95081ce64046c85bc9eeb01210245ea64adc7f9bd8f84c2a35dd901f660fc85f9b033770bd4cd8437e190bc490e"
          },
          "sequence": 4294967295
        }
      ],
      "vout": [
        {
          "value": 0.04614000,
          "n": 0,
          "scriptPubKey": {
            "asm": "OP_DUP OP_HASH160 4b77818e854a25f6a94200c342148a8ecc8b6c6d OP_EQUALVERIFY OP_CHECKSIG",
            "hex": "76a9144b77818e854a25f6a94200c342148a8ecc8b6c6d88ac",
            "reqSigs": 1,
            "type": "pubkeyhash",
            "addresses": [
              "LS6z72bgUivVsSgo9HKs4SA5TbvAiT6V14"
            ]
          }
        }, 
        {
          "value": 0.00056032,
          "n": 1,
          "scriptPubKey": {
            "asm": "OP_DUP OP_HASH160 a82080242d9b31b224816c2e82e42debe7edbc5a OP_EQUALVERIFY OP_CHECKSIG",
            "hex": "76a914a82080242d9b31b224816c2e82e42debe7edbc5a88ac",
            "reqSigs": 1,
            "type": "pubkeyhash",
            "addresses": [
              "LaYvicpn6fSrCDiurv2h1FZGpeQb34SoZ1"
            ]
          }
        }
      ],
      "hex": "0100000001af93382df72370301522b5576032b04b83be3a78094380c80bf9cf8ff1495dfa010000006a47304402201d6a0b1bf8999e5ce2d488e111dcca71afee1a6757df885923aa9f44f0efcb9c02203067d8fba8f545907e41248d833ddd0d01a6bd237fe95081ce64046c85bc9eeb01210245ea64adc7f9bd8f84c2a35dd901f660fc85f9b033770bd4cd8437e190bc490effffffff0270674600000000001976a9144b77818e854a25f6a94200c342148a8ecc8b6c6d88ace0da0000000000001976a914a82080242d9b31b224816c2e82e42debe7edbc5a88ac00000000"
    }, 
    {
      "txid": "ed33d054a71eadcd8b6214f1c1d80541a8e989799ddf12b07f95a68cc907caae",
      "hash": "ed33d054a71eadcd8b6214f1c1d80541a8e989799ddf12b07f95a68cc907caae",
      "version": 1,
      "size": 225,
      "vsize": 225,
      "locktime": 0,
      "vin": [
        {
          "txid": "1675ed262d09dd8af9d1873806a7f5c2880c5ad12caff61d6e333ab783707c62",
          "vout": 8,
          "scriptSig": {
            "asm": "304402200236485055d597262fa26005612d223a1095677ec17ce14a47a3595f1703899502200290ce0c5881cf9b41f2069b7053d4c9cee22ba53db0f804df4462a2622c3a0d[ALL] 029c91f6b0597ed7e1372adab035a4e2e3a8d68de107175a0acc4efa455172b586",
            "hex": "47304402200236485055d597262fa26005612d223a1095677ec17ce14a47a3595f1703899502200290ce0c5881cf9b41f2069b7053d4c9cee22ba53db0f804df4462a2622c3a0d0121029c91f6b0597ed7e1372adab035a4e2e3a8d68de107175a0acc4efa455172b586"
          },
          "sequence": 4294967295
        }
      ],
      "vout": [
        {
          "value": 0.02159148,
          "n": 0,
          "scriptPubKey": {
            "asm": "OP_DUP OP_HASH160 c77ca73717de0089916a292a48ce15341a047955 OP_EQUALVERIFY OP_CHECKSIG",
            "hex": "76a914c77ca73717de0089916a292a48ce15341a04795588ac",
            "reqSigs": 1,
            "type": "pubkeyhash",
            "addresses": [
              "LdQk4ScLx8ZueZnepHkKNRu7aRKNdNWDfB"
            ]
          }
        }, 
        {
          "value": 0.22818252,
          "n": 1,
          "scriptPubKey": {
            "asm": "OP_DUP OP_HASH160 db5cf69f253116a091855e8e11d55195ea1d9a3b OP_EQUALVERIFY OP_CHECKSIG",
            "hex": "76a914db5cf69f253116a091855e8e11d55195ea1d9a3b88ac",
            "reqSigs": 1,
            "type": "pubkeyhash",
            "addresses": [
              "LfDqcRzjibLuNhQunKTvwbqBjdZWButdim"
            ]
          }
        }
      ],
      "hex": "0100000001627c7083b73a336e1df6af2cd15a0c88c2f5a7063887d1f98add092d26ed7516080000006a47304402200236485055d597262fa26005612d223a1095677ec17ce14a47a3595f1703899502200290ce0c5881cf9b41f2069b7053d4c9cee22ba53db0f804df4462a2622c3a0d0121029c91f6b0597ed7e1372adab035a4e2e3a8d68de107175a0acc4efa455172b586ffffffff022cf22000000000001976a914c77ca73717de0089916a292a48ce15341a04795588accc2d5c01000000001976a914db5cf69f253116a091855e8e11d55195ea1d9a3b88ac00000000"
    }, 
    {
      "txid": "62edc4ea70103288997d159ec2bdb2290d7e38254d6ddfe5bdb14352e5d71354",
      "hash": "62edc4ea70103288997d159ec2bdb2290d7e38254d6ddfe5bdb14352e5d71354",
      "version": 1,
      "size": 667,
      "vsize": 667,
      "locktime": 1357625,
      "vin": [
        {
          "txid": "64490ebc26217fb986f203972dc8f5c2af5557a7c1a2f0a15bbb72e15ab702bb",
          "vout": 0,
          "scriptSig": {
            "asm": "304402201745ce118cbe73b6e78bd22b0cf00dfa7a303feda9e848d61855ca36d3819ce702205e2fbb4f601e32ce7b2163bc0333701acdf1c4a79414310ab57c561faa5fd3b3[ALL] 0378b6761202a0711412bfb10ff179ed37409398daac38eb60e4dd4f0148d165cd",
            "hex": "47304402201745ce118cbe73b6e78bd22b0cf00dfa7a303feda9e848d61855ca36d3819ce702205e2fbb4f601e32ce7b2163bc0333701acdf1c4a79414310ab57c561faa5fd3b301210378b6761202a0711412bfb10ff179ed37409398daac38eb60e4dd4f0148d165cd"
          },
          "sequence": 4294967294
        }, 
        {
          "txid": "efca68ec666ee215822c8912488ee063ab5a8c174bfbf91a90651aeb3d8d51a5",
          "vout": 0,
          "scriptSig": {
            "asm": "30440220081cdd9705546357564e6e74f1d041f0f5f059c56f97eb90c881a3939258c80102200f2d7ffe14b03b1fb5fea5f15649dc9b60db62df93f1c80f6e034d612f5a36da[ALL] 0322c9cd6912849b050f7fb6c5ac44b75e34aa314ec4d42c41357634e956e2e5ea",
            "hex": "4730440220081cdd9705546357564e6e74f1d041f0f5f059c56f97eb90c881a3939258c80102200f2d7ffe14b03b1fb5fea5f15649dc9b60db62df93f1c80f6e034d612f5a36da01210322c9cd6912849b050f7fb6c5ac44b75e34aa314ec4d42c41357634e956e2e5ea"
          },
          "sequence": 4294967294
        }, 
        {
          "txid": "99f91bf9b4d2561c0ec0176799d0a5a8ad94e574a8f5f065ee9c85a80b559b8e",
          "vout": 0,
          "scriptSig": {
            "asm": "3045022100911d73a41d7458fb13940e0ab3a09725c609d0c0513ee030205f7d2c83fabdb00220268d0926740a14a92134213f206e9b6cdd58bdd43df6f7468207303f2c8660e1[ALL] 03612c24292a62c574b4103acfe611436e39274b5590e8f0248be98f76adfa9304",
            "hex": "483045022100911d73a41d7458fb13940e0ab3a09725c609d0c0513ee030205f7d2c83fabdb00220268d0926740a14a92134213f206e9b6cdd58bdd43df6f7468207303f2c8660e1012103612c24292a62c574b4103acfe611436e39274b5590e8f0248be98f76adfa9304"
          },
          "sequence": 4294967294
        }, 
        {
          "txid": "9598387a1118d4b121eececfb0dddc075ea0bc4be346b3b4be198d052dd068e4",
          "vout": 1,
          "scriptSig": {
            "asm": "30440220421c41bfcd990a3215ef3b100531b3a3a26427a3a3db432b81a775dd8de7e69802204fd9fb7e50f1830ae071ade3c093f4b0e06174217574d97b7f90b85dc74e4a0f[ALL] 021de60f4ae83a2ee3597ed6411f6fb51a9c918e58e354ee90c85a57f103c161b8",
            "hex": "4730440220421c41bfcd990a3215ef3b100531b3a3a26427a3a3db432b81a775dd8de7e69802204fd9fb7e50f1830ae071ade3c093f4b0e06174217574d97b7f90b85dc74e4a0f0121021de60f4ae83a2ee3597ed6411f6fb51a9c918e58e354ee90c85a57f103c161b8"
          },
          "sequence": 4294967294
        }
      ],
      "vout": [
        {
          "value": 3.44484819,
          "n": 0,
          "scriptPubKey": {
            "asm": "OP_DUP OP_HASH160 82be2434e2945cbee3c8e16a1d475613803b696e OP_EQUALVERIFY OP_CHECKSIG",
            "hex": "76a91482be2434e2945cbee3c8e16a1d475613803b696e88ac",
            "reqSigs": 1,
            "type": "pubkeyhash",
            "addresses": [
              "LX9FtQh32D3pYmQCanQeYUUe9RFrhe4AAy"
            ]
          }
        }, 
        {
          "value": 0.01000132,
          "n": 1,
          "scriptPubKey": {
            "asm": "OP_DUP OP_HASH160 593a23bfc1c9c1374bcf63953e7ec640f01b49c5 OP_EQUALVERIFY OP_CHECKSIG",
            "hex": "76a914593a23bfc1c9c1374bcf63953e7ec640f01b49c588ac",
            "reqSigs": 1,
            "type": "pubkeyhash",
            "addresses": [
              "LTMk3u7MCB6EutDZBpUdXrdMKvDaFRMxEd"
            ]
          }
        }
      ],
      "hex": "0100000004bb02b75ae172bb5ba1f0a2c1a75755afc2f5c82d9703f286b97f2126bc0e4964000000006a47304402201745ce118cbe73b6e78bd22b0cf00dfa7a303feda9e848d61855ca36d3819ce702205e2fbb4f601e32ce7b2163bc0333701acdf1c4a79414310ab57c561faa5fd3b301210378b6761202a0711412bfb10ff179ed37409398daac38eb60e4dd4f0148d165cdfeffffffa5518d3deb1a65901af9fb4b178c5aab63e08e4812892c8215e26e66ec68caef000000006a4730440220081cdd9705546357564e6e74f1d041f0f5f059c56f97eb90c881a3939258c80102200f2d7ffe14b03b1fb5fea5f15649dc9b60db62df93f1c80f6e034d612f5a36da01210322c9cd6912849b050f7fb6c5ac44b75e34aa314ec4d42c41357634e956e2e5eafeffffff8e9b550ba8859cee65f0f5a874e594ada8a5d0996717c00e1c56d2b4f91bf999000000006b483045022100911d73a41d7458fb13940e0ab3a09725c609d0c0513ee030205f7d2c83fabdb00220268d0926740a14a92134213f206e9b6cdd58bdd43df6f7468207303f2c8660e1012103612c24292a62c574b4103acfe611436e39274b5590e8f0248be98f76adfa9304feffffffe468d02d058d19beb4b346e34bbca05e07dcddb0cfceee21b1d418117a389895010000006a4730440220421c41bfcd990a3215ef3b100531b3a3a26427a3a3db432b81a775dd8de7e69802204fd9fb7e50f1830ae071ade3c093f4b0e06174217574d97b7f90b85dc74e4a0f0121021de60f4ae83a2ee3597ed6411f6fb51a9c918e58e354ee90c85a57f103c161b8feffffff02d36b8814000000001976a91482be2434e2945cbee3c8e16a1d475613803b696e88acc4420f00000000001976a914593a23bfc1c9c1374bcf63953e7ec640f01b49c588ac39b71400"
    }, 
    {
      "txid": "3324bf8fc06b1549ba8784d8d82a25941ba1eb6c82d4ec5b561dec297a650f85",
      "hash": "3324bf8fc06b1549ba8784d8d82a25941ba1eb6c82d4ec5b561dec297a650f85",
      "version": 1,
      "size": 226,
      "vsize": 226,
      "locktime": 0,
      "vin": [
        {
          "txid": "0b8250c4fab191563a202be3b46701f876bc6322d0cda5ed52d09091e77d3845",
          "vout": 1,
          "scriptSig": {
            "asm": "30450221009e29f36f6736646d4000718dbe9813899ed0655fca453169a81096294505fc6f02202cea3a0558da663eba151383c0d5f1a2b2011e9ac341e73cecd698a33294cd05[ALL] 03daa51d86e8ab7f181847c9fd9960c01f43e6417815777f69668cd6cdbd87947d",
            "hex": "4830450221009e29f36f6736646d4000718dbe9813899ed0655fca453169a81096294505fc6f02202cea3a0558da663eba151383c0d5f1a2b2011e9ac341e73cecd698a33294cd05012103daa51d86e8ab7f181847c9fd9960c01f43e6417815777f69668cd6cdbd87947d"
          },
          "sequence": 4294967295
        }
      ],
      "vout": [
        {
          "value": 0.81817161,
          "n": 0,
          "scriptPubKey": {
            "asm": "OP_DUP OP_HASH160 b0a5180fa6d135354eee6dd0e214249b658f91b8 OP_EQUALVERIFY OP_CHECKSIG",
            "hex": "76a914b0a5180fa6d135354eee6dd0e214249b658f91b888ac",
            "reqSigs": 1,
            "type": "pubkeyhash",
            "addresses": [
              "LbKxxuY63xSew27UohyuQ39JvH7p38DW9Z"
            ]
          }
        }, 
        {
          "value": 43.86243905,
          "n": 1,
          "scriptPubKey": {
            "asm": "OP_DUP OP_HASH160 82a62755ac09dcfc1754ab29ac85e1e1088d7e79 OP_EQUALVERIFY OP_CHECKSIG",
            "hex": "76a91482a62755ac09dcfc1754ab29ac85e1e1088d7e7988ac",
            "reqSigs": 1,
            "type": "pubkeyhash",
            "addresses": [
              "LX8m9i5RimSGfV47vNjvGbTcXjTLoaE37k"
            ]
          }
        }
      ],
      "hex": "010000000145387de79190d052eda5cdd02263bc76f80167b4e32b203a5691b1fac450820b010000006b4830450221009e29f36f6736646d4000718dbe9813899ed0655fca453169a81096294505fc6f02202cea3a0558da663eba151383c0d5f1a2b2011e9ac341e73cecd698a33294cd05012103daa51d86e8ab7f181847c9fd9960c01f43e6417815777f69668cd6cdbd87947dffffffff02496ee004000000001976a914b0a5180fa6d135354eee6dd0e214249b658f91b888ac41c57005010000001976a91482a62755ac09dcfc1754ab29ac85e1e1088d7e7988ac00000000"
    }, 
    {
      "txid": "0077cef5cd2575deb3be7d99855da43a29b1e15fbeed17401fe9d45b8f23f0a5",
      "hash": "0077cef5cd2575deb3be7d99855da43a29b1e15fbeed17401fe9d45b8f23f0a5",
      "version": 1,
      "size": 226,
      "vsize": 226,
      "locktime": 1357625,
      "vin": [
        {
          "txid": "86f51d9504fbf63c441d1014c9e09c28d20cfc6faaca30dd391ed8672429d453",
          "vout": 1,
          "scriptSig": {
            "asm": "3045022100f59d42f3de76617337c1a04ff811883bcb8a098eb3ba1be81c6aabd73e72dcc102202583f38c49b5a36118a9db38d8d833ab71e4bc34867e46bbada6877bc2f76567[ALL] 02dc9b8e619638a56f57711580c0a35c9697e3ea06677eddea19d018ad3326ce27",
            "hex": "483045022100f59d42f3de76617337c1a04ff811883bcb8a098eb3ba1be81c6aabd73e72dcc102202583f38c49b5a36118a9db38d8d833ab71e4bc34867e46bbada6877bc2f76567012102dc9b8e619638a56f57711580c0a35c9697e3ea06677eddea19d018ad3326ce27"
          },
          "sequence": 4294967294
        }
      ],
      "vout": [
        {
          "value": 0.09224052,
          "n": 0,
          "scriptPubKey": {
            "asm": "OP_DUP OP_HASH160 32d90b1e575bad390c3cff85b06e64d38b02fac1 OP_EQUALVERIFY OP_CHECKSIG",
            "hex": "76a91432d90b1e575bad390c3cff85b06e64d38b02fac188ac",
            "reqSigs": 1,
            "type": "pubkeyhash",
            "addresses": [
              "LPrp4FFe8XLj56w2MCpv4LMMrM6Gm3uzbB"
            ]
          }
        }, 
        {
          "value": 4.65398092,
          "n": 1,
          "scriptPubKey": {
            "asm": "OP_DUP OP_HASH160 e2af93e97541b433026c8d38c0a2acfb42ab5063 OP_EQUALVERIFY OP_CHECKSIG",
            "hex": "76a914e2af93e97541b433026c8d38c0a2acfb42ab506388ac",
            "reqSigs": 1,
            "type": "pubkeyhash",
            "addresses": [
              "LftZJvbE2V9EoA1dXk4EFPHFqKBybn2WvB"
            ]
          }
        }
      ],
      "hex": "010000000153d4292467d81e39dd30caaa6ffc0cd2289ce0c914101d443cf6fb04951df586010000006b483045022100f59d42f3de76617337c1a04ff811883bcb8a098eb3ba1be81c6aabd73e72dcc102202583f38c49b5a36118a9db38d8d833ab71e4bc34867e46bbada6877bc2f76567012102dc9b8e619638a56f57711580c0a35c9697e3ea06677eddea19d018ad3326ce27feffffff0274bf8c00000000001976a91432d90b1e575bad390c3cff85b06e64d38b02fac188ac4c69bd1b000000001976a914e2af93e97541b433026c8d38c0a2acfb42ab506388ac39b71400"
    }
  ],
  "time": 1517026922,
  "mediantime": 1517026613,
  "nonce": 381718576,
  "bits": "1a047f14",
  "difficulty": 3731199.183374282,
  "chainwork": "0000000000000000000000000000000000000000000000326354c40dfe0082fe",
  "previousblockhash": "3aa7bd31fd3e65e29e1e657926085a256add0d08280387b5ba5d16b1e39965dd",
  "nextblockhash": "77e4e1bdf3340b9624bf94a972d3330049d111768c3985c33eae834d0a2abe10"
}
