{
  "hash": "5737fa2cc8156d6946342b6cecda3864d418fa60d71eef4a7e428eb54767ad6a",
  "confirmations": 3269,
  "strippedsize": 256,
  "size": 256,
  "weight": 1024,
  "height": 1357726,
  "version": 536870912,
  "versionHex": "20000000",
  "merkleroot": "6fed423d774992075d078edf643f512bed75cbc767008b40be75b7c799b9201d",
  "tx": [
    {
      "txid": "6fed423d774992075d078edf643f512bed75cbc767008b40be75b7c799b9201d",
      "hash": "6fed423d774992075d078edf643f512bed75cbc767008b40be75b7c799b9201d",
      "version": 1,
      "size": 175,
      "vsize": 175,
      "locktime": 0,
      "vin": [
        {
          "coinbase": "039eb7141d4d696e656420627920416e74506f6f6c20626a302042205a6c33d70191fabe6d6d67491659d7ab4c0c39af2cc24fc7971a278a7c6e392486e5d1cf1b7d993cacb904000000000000000c1e0000000000000f000000",
          "sequence": 4294967295
        }
      ],
      "vout": [
        {
          "value": 25.00000000,
          "n": 0,
          "scriptPubKey": {
            "asm": "OP_DUP OP_HASH160 0ff3ccc5e8be88afe24b5d634e5852d474dbdff1 OP_EQUALVERIFY OP_CHECKSIG",
            "hex": "76a9140ff3ccc5e8be88afe24b5d634e5852d474dbdff188ac",
            "reqSigs": 1,
            "type": "pubkeyhash",
            "addresses": [
              "LLgJTbzZMsRTCUF1NtvvL9SR1a4pVieW89"
            ]
          }
        }
      ],
      "hex": "01000000010000000000000000000000000000000000000000000000000000000000000000ffffffff5a039eb7141d4d696e656420627920416e74506f6f6c20626a302042205a6c33d70191fabe6d6d67491659d7ab4c0c39af2cc24fc7971a278a7c6e392486e5d1cf1b7d993cacb904000000000000000c1e0000000000000f000000ffffffff0100f90295000000001976a9140ff3ccc5e8be88afe24b5d634e5852d474dbdff188ac00000000"
    }
  ],
  "time": 1517040599,
  "mediantime": 1517039593,
  "nonce": 291443978,
  "bits": "1a047f14",
  "difficulty": 3731199.183374282,
  "chainwork": "000000000000000000000000000000000000000000000032799235f9c64dfd26",
  "previousblockhash": "51fd88134d444e323880b6a5b215cac3e41dbe3448af1b01b75301565ea578d6",
  "nextblockhash": "6b2aa45ba5f5e9b57f6bc9e48ec12ada9af93e1bf38ce5ab6e67cddba49c5014"
}
