{
  "hash": "573ce640e1a05cbde18d607967e135e9e0fe262263eda804947f2583b410b536",
  "confirmations": 1728,
  "strippedsize": 255,
  "size": 255,
  "weight": 1020,
  "height": 1359266,
  "version": 536870912,
  "versionHex": "20000000",
  "merkleroot": "97d52a4b7eb3dad0dfc104dac689f8c4fd4ab4e882e13ebd59bdbeb004feacd8",
  "tx": [
    {
      "txid": "97d52a4b7eb3dad0dfc104dac689f8c4fd4ab4e882e13ebd59bdbeb004feacd8",
      "hash": "97d52a4b7eb3dad0dfc104dac689f8c4fd4ab4e882e13ebd59bdbeb004feacd8",
      "version": 1,
      "size": 174,
      "vsize": 174,
      "locktime": 0,
      "vin": [
        {
          "coinbase": "03a2bd141c4d696e656420627920416e74506f6f6c20626a341e205a6f8afd1001fabe6d6d36f135e8772bf7ba1f93b22c4ebf2ffb7db43ebd11b1b27d399443f5cda597ee0400000000000000ef200000000000001a000000",
          "sequence": 4294967295
        }
      ],
      "vout": [
        {
          "value": 25.00000000,
          "n": 0,
          "scriptPubKey": {
            "asm": "OP_DUP OP_HASH160 0ff3ccc5e8be88afe24b5d634e5852d474dbdff1 OP_EQUALVERIFY OP_CHECKSIG",
            "hex": "76a9140ff3ccc5e8be88afe24b5d634e5852d474dbdff188ac",
            "reqSigs": 1,
            "type": "pubkeyhash",
            "addresses": [
              "LLgJTbzZMsRTCUF1NtvvL9SR1a4pVieW89"
            ]
          }
        }
      ],
      "hex": "01000000010000000000000000000000000000000000000000000000000000000000000000ffffffff5903a2bd141c4d696e656420627920416e74506f6f6c20626a341e205a6f8afd1001fabe6d6d36f135e8772bf7ba1f93b22c4ebf2ffb7db43ebd11b1b27d399443f5cda597ee0400000000000000ef200000000000001a000000ffffffff0100f90295000000001976a9140ff3ccc5e8be88afe24b5d634e5852d474dbdff188ac00000000"
    }
  ],
  "time": 1517259517,
  "mediantime": 1517258937,
  "nonce": 520034358,
  "bits": "1a042eae",
  "difficulty": 4011378.762614286,
  "chainwork": "000000000000000000000000000000000000000000000033d82237b0f35d74c6",
  "previousblockhash": "08707ecfe5115df4179a9ea64dabd3561454a85f6b3b7acdb796c05e9e4104d1",
  "nextblockhash": "d0871331583cbb3b3d20a04feb3160d9753fd61d168a3d623cfa18ae22a70fe1"
}
