{
  "hash": "57661ba8ec61f0bdcaf6a75ffc44f3975854c3a13f97c4a1341dd1267c3d6697",
  "confirmations": 1324,
  "strippedsize": 253,
  "size": 253,
  "weight": 1012,
  "height": 1359670,
  "version": 536870912,
  "versionHex": "20000000",
  "merkleroot": "416d89d6505fe209e6e00209caa2979fa71ed6fb0451d727f57199b77a853e46",
  "tx": [
    {
      "txid": "416d89d6505fe209e6e00209caa2979fa71ed6fb0451d727f57199b77a853e46",
      "hash": "416d89d6505fe209e6e00209caa2979fa71ed6fb0451d727f57199b77a853e46",
      "version": 1,
      "size": 172,
      "vsize": 172,
      "locktime": 0,
      "vin": [
        {
          "coinbase": "0336bf141a4d696e656420627920416e74506f6f6c20626a331f205a706937fabe6d6d08ec67118e61ff30c05304323ce4580bfc31d1fef89008c847827fc664433a4a0400000000000000bd0800000000000003000000",
          "sequence": 4294967295
        }
      ],
      "vout": [
        {
          "value": 25.00000000,
          "n": 0,
          "scriptPubKey": {
            "asm": "OP_DUP OP_HASH160 0ff3ccc5e8be88afe24b5d634e5852d474dbdff1 OP_EQUALVERIFY OP_CHECKSIG",
            "hex": "76a9140ff3ccc5e8be88afe24b5d634e5852d474dbdff188ac",
            "reqSigs": 1,
            "type": "pubkeyhash",
            "addresses": [
              "LLgJTbzZMsRTCUF1NtvvL9SR1a4pVieW89"
            ]
          }
        }
      ],
      "hex": "01000000010000000000000000000000000000000000000000000000000000000000000000ffffffff570336bf141a4d696e656420627920416e74506f6f6c20626a331f205a706937fabe6d6d08ec67118e61ff30c05304323ce4580bfc31d1fef89008c847827fc664433a4a0400000000000000bd0800000000000003000000ffffffff0100f90295000000001976a9140ff3ccc5e8be88afe24b5d634e5852d474dbdff188ac00000000"
    }
  ],
  "time": 1517316407,
  "mediantime": 1517316089,
  "nonce": 566270103,
  "bits": "1a042eae",
  "difficulty": 4011378.762614286,
  "chainwork": "00000000000000000000000000000000000000000000003438baf165c5b0f5ee",
  "previousblockhash": "34e672d51b3b82a05aa90f28796a3fa9f1d6004a7d17b0b2a3f7d5af91e65247",
  "nextblockhash": "b45c00e278b2f2f58cbec9e0958bbf94c307f8a0ac76dc65ae972d1807d5abd6"
}
