{
  "hash": "5783402514185150a80193253e4d9fd508d5e75a4fc42c2a8a184b812c37ddc3",
  "confirmations": 2691,
  "strippedsize": 3507,
  "size": 3543,
  "weight": 14064,
  "height": 1358304,
  "version": 536870912,
  "versionHex": "20000000",
  "merkleroot": "2bc5e9eb147d977174256870fcfdb4faaca48121d793046d3efc1e2db4f32cfe",
  "tx": [
    {
      "txid": "32e5c60258057110f0519088d94d1290b38ce485a243bed861cc55aa0ae5c41d",
      "hash": "5dfc104ecdd685130d1e943a58c91b0ab19d20a7128c28f41c463944f089f76f",
      "version": 1,
      "size": 236,
      "vsize": 209,
      "locktime": 0,
      "vin": [
        {
          "coinbase": "03e0b914045a6d76092cfabe6d6dcd8f0599ccb81c2005c561d22253501a3e4c30e29fe09f1258ede599e7656dc04000000000000000042f4c502f0822009a8211000000",
          "sequence": 4294967295
        }
      ],
      "vout": [
        {
          "value": 25.00851840,
          "n": 0,
          "scriptPubKey": {
            "asm": "OP_DUP OP_HASH160 57757ed2ecf2052ff3126c397aca7defb9ca2cec OP_EQUALVERIFY OP_CHECKSIG",
            "hex": "76a91457757ed2ecf2052ff3126c397aca7defb9ca2cec88ac",
            "reqSigs": 1,
            "type": "pubkeyhash",
            "addresses": [
              "LTCPodGk5FwcJaRzH9yKnwicxzFUbxp6tN"
            ]
          }
        }, 
        {
          "value": 0.00000000,
          "n": 1,
          "scriptPubKey": {
            "asm": "OP_RETURN aa21a9ed6111dbea0fd85dc89def4b8be1af0ddcc61ff4ea25bbdea36c847f49955c94c6",
            "hex": "6a24aa21a9ed6111dbea0fd85dc89def4b8be1af0ddcc61ff4ea25bbdea36c847f49955c94c6",
            "type": "nulldata"
          }
        }
      ],
      "hex": "010000000001010000000000000000000000000000000000000000000000000000000000000000ffffffff4403e0b914045a6d76092cfabe6d6dcd8f0599ccb81c2005c561d22253501a3e4c30e29fe09f1258ede599e7656dc04000000000000000042f4c502f0822009a8211000000ffffffff0280f80f95000000001976a91457757ed2ecf2052ff3126c397aca7defb9ca2cec88ac0000000000000000266a24aa21a9ed6111dbea0fd85dc89def4b8be1af0ddcc61ff4ea25bbdea36c847f49955c94c60120000000000000000000000000000000000000000000000000000000000000000000000000"
    }, 
    {
      "txid": "5b5c270f12aeb8d88b0d09c522f71be01e26dc71c17fae68a7c1d6aea2e79ddc",
      "hash": "5b5c270f12aeb8d88b0d09c522f71be01e26dc71c17fae68a7c1d6aea2e79ddc",
      "version": 1,
      "size": 226,
      "vsize": 226,
      "locktime": 1358302,
      "vin": [
        {
          "txid": "d8773cdb2e6f078013c6fa8adf2a885e903390aec456d6b590a8a82819da6b19",
          "vout": 1,
          "scriptSig": {
            "asm": "3045022100bab57217791868f210cb580323bcbc1e890b8e290b5d5582acabfdf1d23770ca0220113bf8c2e0b99cb555f088d3218a952853e4cf27aa1fec1ee893aac4bea25a0a[ALL] 0302ed015a7d3cefd7e11fc8e8b8ebdaf5cf118d58dd650bc2f310fc270cbd027c",
            "hex": "483045022100bab57217791868f210cb580323bcbc1e890b8e290b5d5582acabfdf1d23770ca0220113bf8c2e0b99cb555f088d3218a952853e4cf27aa1fec1ee893aac4bea25a0a01210302ed015a7d3cefd7e11fc8e8b8ebdaf5cf118d58dd650bc2f310fc270cbd027c"
          },
          "sequence": 4294967294
        }
      ],
      "vout": [
        {
          "value": 259.04336473,
          "n": 0,
          "scriptPubKey": {
            "asm": "OP_DUP OP_HASH160 9fd433bf622a50921d831bdc148fc0afa2ae4a81 OP_EQUALVERIFY OP_CHECKSIG",
            "hex": "76a9149fd433bf622a50921d831bdc148fc0afa2ae4a8188ac",
            "reqSigs": 1,
            "type": "pubkeyhash",
            "addresses": [
              "LZo3un2b3CFWf6kRbWRNdJyFoZPzQGuk5P"
            ]
          }
        }, 
        {
          "value": 1.05586400,
          "n": 1,
          "scriptPubKey": {
            "asm": "OP_DUP OP_HASH160 aa8af6d76bfc18f79d6259502ace75fdf3681d22 OP_EQUALVERIFY OP_CHECKSIG",
            "hex": "76a914aa8af6d76bfc18f79d6259502ace75fdf3681d2288ac",
            "reqSigs": 1,
            "type": "pubkeyhash",
            "addresses": [
              "LamhcEAW1813iyfopyRwD9AkvTBERAYYSq"
            ]
          }
        }
      ],
      "hex": "0100000001196bda1928a8a890b5d656c4ae9033905e882adf8afac61380076f2edb3c77d8010000006b483045022100bab57217791868f210cb580323bcbc1e890b8e290b5d5582acabfdf1d23770ca0220113bf8c2e0b99cb555f088d3218a952853e4cf27aa1fec1ee893aac4bea25a0a01210302ed015a7d3cefd7e11fc8e8b8ebdaf5cf118d58dd650bc2f310fc270cbd027cfeffffff0259ce0408060000001976a9149fd433bf622a50921d831bdc148fc0afa2ae4a8188ace01e4b06000000001976a914aa8af6d76bfc18f79d6259502ace75fdf3681d2288acdeb91400"
    }, 
    {
      "txid": "2b43005a5f0ba8d7e7f25175186da99f157e41d551a9558bda10d2a391718bb3",
      "hash": "2b43005a5f0ba8d7e7f25175186da99f157e41d551a9558bda10d2a391718bb3",
      "version": 1,
      "size": 189,
      "vsize": 189,
      "locktime": 0,
      "vin": [
        {
          "txid": "86307355442147ff6b0dbad9f516c24d456bddc660a2b07e01a6a6b4c97c731e",
          "vout": 1,
          "scriptSig": {
            "asm": "304402206b0af0aa8f8cb29b6b118efaaae6735635ba3b969c3cd79a2e69786d8014512302207c5d7622e3b6ee663b37bf427935e15a696ee1d893562a2356fe2184e334079f[ALL] 02c475c1e8e7390033f743b0ea1e88d99a72f10ae459f3b9927bfe7d47f5684463",
            "hex": "47304402206b0af0aa8f8cb29b6b118efaaae6735635ba3b969c3cd79a2e69786d8014512302207c5d7622e3b6ee663b37bf427935e15a696ee1d893562a2356fe2184e334079f012102c475c1e8e7390033f743b0ea1e88d99a72f10ae459f3b9927bfe7d47f5684463"
          },
          "sequence": 4294967295
        }
      ],
      "vout": [
        {
          "value": 4.07069872,
          "n": 0,
          "scriptPubKey": {
            "asm": "OP_HASH160 d67c9618d5c0704e48ec030b0e3add611a6baa7c OP_EQUAL",
            "hex": "a914d67c9618d5c0704e48ec030b0e3add611a6baa7c87",
            "reqSigs": 1,
            "type": "scripthash",
            "addresses": [
              "MTTG5tdKDLuSmpCApfEnuFG9zKoqfs4Wum"
            ]
          }
        }
      ],
      "hex": "01000000011e737cc9b4a6a6017eb0a260c6dd6b454dc216f5d9ba0d6bff47214455733086010000006a47304402206b0af0aa8f8cb29b6b118efaaae6735635ba3b969c3cd79a2e69786d8014512302207c5d7622e3b6ee663b37bf427935e15a696ee1d893562a2356fe2184e334079f012102c475c1e8e7390033f743b0ea1e88d99a72f10ae459f3b9927bfe7d47f5684463ffffffff01b06443180000000017a914d67c9618d5c0704e48ec030b0e3add611a6baa7c8700000000"
    }, 
    {
      "txid": "c6b756f8b0f3deaa6f8711ab4cfd9307f6d28809aaa567894facd270c570042b",
      "hash": "c6b756f8b0f3deaa6f8711ab4cfd9307f6d28809aaa567894facd270c570042b",
      "version": 2,
      "size": 669,
      "vsize": 669,
      "locktime": 1358302,
      "vin": [
        {
          "txid": "3c9f315cf8a503be707a0b4e8cfa5d2193f9a3ec00181f68fea3a21d8edcbced",
          "vout": 472,
          "scriptSig": {
            "asm": "3045022100de4660967d5650ba9932ae15d3d4037021dad2c73774724c295181b8ba8b86a4022012f9fbc839225dc2824b2c2474b4e94664c279fd6b3293b0aeff1f1701d449ea[ALL] 036e402f6c4db264260c72feea043023cbc3142c19cf4b00704de48b31fbf12293",
            "hex": "483045022100de4660967d5650ba9932ae15d3d4037021dad2c73774724c295181b8ba8b86a4022012f9fbc839225dc2824b2c2474b4e94664c279fd6b3293b0aeff1f1701d449ea0121036e402f6c4db264260c72feea043023cbc3142c19cf4b00704de48b31fbf12293"
          },
          "sequence": 4294967294
        }, 
        {
          "txid": "6346f2841f55fcf6bdc4306caef7e5dd0921fcadf8ddbbdcca52e57fa47267b8",
          "vout": 1,
          "scriptSig": {
            "asm": "3044022009917bb00c38ff4b2db0fc572089cbc672150b1e13dd066fdf6bab62d05b061002206958943ec5c263578dc18823cab9eb306f293d572f207b724501dd162ff68c6e[ALL] 03b5382cfec62a394dd8837af867dd124f1d367427456197446f951321f3d5b929",
            "hex": "473044022009917bb00c38ff4b2db0fc572089cbc672150b1e13dd066fdf6bab62d05b061002206958943ec5c263578dc18823cab9eb306f293d572f207b724501dd162ff68c6e012103b5382cfec62a394dd8837af867dd124f1d367427456197446f951321f3d5b929"
          },
          "sequence": 4294967294
        }, 
        {
          "txid": "4f29c06ec648ce5556ee5ac59d42884f8e3badf4833a7c4155be7b00049d10c7",
          "vout": 380,
          "scriptSig": {
            "asm": "3045022100e8f2ebf09e1d5643f2455e81573bda89bbc23a6ba909cd67481b7b477df0f1a702207a5d89b7de3422a13cdac3181d2868e20a9b4fe7ee1695bda93ec3c464c474e8[ALL] 03cb1942ff4d1d2917d8e6238b8028c6580fab52d5b9da2da2976b0338121ee3d9",
            "hex": "483045022100e8f2ebf09e1d5643f2455e81573bda89bbc23a6ba909cd67481b7b477df0f1a702207a5d89b7de3422a13cdac3181d2868e20a9b4fe7ee1695bda93ec3c464c474e8012103cb1942ff4d1d2917d8e6238b8028c6580fab52d5b9da2da2976b0338121ee3d9"
          },
          "sequence": 4294967294
        }, 
        {
          "txid": "9e0d4937101d9b138ce91376957de5f1fc51d2c9e238bedbd4390f074921f2ea",
          "vout": 0,
          "scriptSig": {
            "asm": "3045022100f1e55690369b6e270f09985a86db5b858d842945bb1a185c9b8161a494af7a3b02201f1575d3d418ab70744a5fc655d0bf33884520e748ad7985ab9d9e25ab8ec870[ALL] 029277403c30ba88f2050700a3a2045ef5495d06dc77f38014d02981f6249588ad",
            "hex": "483045022100f1e55690369b6e270f09985a86db5b858d842945bb1a185c9b8161a494af7a3b02201f1575d3d418ab70744a5fc655d0bf33884520e748ad7985ab9d9e25ab8ec8700121029277403c30ba88f2050700a3a2045ef5495d06dc77f38014d02981f6249588ad"
          },
          "sequence": 4294967294
        }
      ],
      "vout": [
        {
          "value": 9.60000000,
          "n": 0,
          "scriptPubKey": {
            "asm": "OP_DUP OP_HASH160 e59e0cc3a6a2eb200a3caf921c144308893de517 OP_EQUALVERIFY OP_CHECKSIG",
            "hex": "76a914e59e0cc3a6a2eb200a3caf921c144308893de51788ac",
            "reqSigs": 1,
            "type": "pubkeyhash",
            "addresses": [
              "LgA4Le1qs96c4b3WZnGuHNnXM9ERrudUTj"
            ]
          }
        }, 
        {
          "value": 0.00779708,
          "n": 1,
          "scriptPubKey": {
            "asm": "OP_DUP OP_HASH160 31f303aa61e6371aca89c32f50543f98e7e42bbd OP_EQUALVERIFY OP_CHECKSIG",
            "hex": "76a91431f303aa61e6371aca89c32f50543f98e7e42bbd88ac",
            "reqSigs": 1,
            "type": "pubkeyhash",
            "addresses": [
              "LPn4VYUpwzQ1FKhhayQaWLEgqrKGWDaufA"
            ]
          }
        }
      ],
      "hex": "0200000004edbcdc8e1da2a3fe681f1800eca3f993215dfa8c4e0b7a70be03a5f85c319f3cd80100006b483045022100de4660967d5650ba9932ae15d3d4037021dad2c73774724c295181b8ba8b86a4022012f9fbc839225dc2824b2c2474b4e94664c279fd6b3293b0aeff1f1701d449ea0121036e402f6c4db264260c72feea043023cbc3142c19cf4b00704de48b31fbf12293feffffffb86772a47fe552cadcbbddf8adfc2109dde5f7ae6c30c4bdf6fc551f84f24663010000006a473044022009917bb00c38ff4b2db0fc572089cbc672150b1e13dd066fdf6bab62d05b061002206958943ec5c263578dc18823cab9eb306f293d572f207b724501dd162ff68c6e012103b5382cfec62a394dd8837af867dd124f1d367427456197446f951321f3d5b929feffffffc7109d04007bbe55417c3a83f4ad3b8e4f88429dc55aee5655ce48c66ec0294f7c0100006b483045022100e8f2ebf09e1d5643f2455e81573bda89bbc23a6ba909cd67481b7b477df0f1a702207a5d89b7de3422a13cdac3181d2868e20a9b4fe7ee1695bda93ec3c464c474e8012103cb1942ff4d1d2917d8e6238b8028c6580fab52d5b9da2da2976b0338121ee3d9feffffffeaf22149070f39d4dbbe38e2c9d251fcf1e57d957613e98c139b1d1037490d9e000000006b483045022100f1e55690369b6e270f09985a86db5b858d842945bb1a185c9b8161a494af7a3b02201f1575d3d418ab70744a5fc655d0bf33884520e748ad7985ab9d9e25ab8ec8700121029277403c30ba88f2050700a3a2045ef5495d06dc77f38014d02981f6249588adfeffffff0200703839000000001976a914e59e0cc3a6a2eb200a3caf921c144308893de51788acbce50b00000000001976a91431f303aa61e6371aca89c32f50543f98e7e42bbd88acdeb91400"
    }, 
    {
      "txid": "77aa5f1a13d6430196bc855ae8557336b3b7a823f87a20433cf38d68a4a0e7ac",
      "hash": "77aa5f1a13d6430196bc855ae8557336b3b7a823f87a20433cf38d68a4a0e7ac",
      "version": 1,
      "size": 338,
      "vsize": 338,
      "locktime": 0,
      "vin": [
        {
          "txid": "0ad907526d58aa973fcfe86b636d8d40390fc7b5f27ef2a83a720b8781e19fb9",
          "vout": 1,
          "scriptSig": {
            "asm": "304402206ca9406f4534b284ea4b7b0510f0439dcc946c422ead49e54e1d495d367d564e022013db54102fd3ce421e24167465b8fc172a6cba2249aeb42895cf21e056bca379[ALL] 037936b0d82bd1f2696282043486577ac21cf5d497fdc7a792a969232182658475",
            "hex": "47304402206ca9406f4534b284ea4b7b0510f0439dcc946c422ead49e54e1d495d367d564e022013db54102fd3ce421e24167465b8fc172a6cba2249aeb42895cf21e056bca3790121037936b0d82bd1f2696282043486577ac21cf5d497fdc7a792a969232182658475"
          },
          "sequence": 4294967294
        }, 
        {
          "txid": "c8fe6742432d9d691cb8f276cf0ed874a790e79c67bbf47f14b5e4468a1a88fe",
          "vout": 0,
          "scriptSig": {
            "asm": "3044022060ea228418472843b74b0e022100c2859ca3c20dd0459af76812b66b24875c91022051338ed505f8474d2fcb61912cf23fa5e00602cf1eafc9c03c6bbc6d1f979df0[ALL] 037936b0d82bd1f2696282043486577ac21cf5d497fdc7a792a969232182658475",
            "hex": "473044022060ea228418472843b74b0e022100c2859ca3c20dd0459af76812b66b24875c91022051338ed505f8474d2fcb61912cf23fa5e00602cf1eafc9c03c6bbc6d1f979df00121037936b0d82bd1f2696282043486577ac21cf5d497fdc7a792a969232182658475"
          },
          "sequence": 4294967294
        }
      ],
      "vout": [
        {
          "value": 2.96885644,
          "n": 0,
          "scriptPubKey": {
            "asm": "OP_DUP OP_HASH160 4315a102c871d850cdc1342a2b726e81051483c1 OP_EQUALVERIFY OP_CHECKSIG",
            "hex": "76a9144315a102c871d850cdc1342a2b726e81051483c188ac",
            "reqSigs": 1,
            "type": "pubkeyhash",
            "addresses": [
              "LRLfSsVVGZQXDR5Hbj9pFkdkfX5eHWzArG"
            ]
          }
        }
      ],
      "hex": "0100000002b99fe181870b723aa8f27ef2b5c70f39408d6d636be8cf3f97aa586d5207d90a010000006a47304402206ca9406f4534b284ea4b7b0510f0439dcc946c422ead49e54e1d495d367d564e022013db54102fd3ce421e24167465b8fc172a6cba2249aeb42895cf21e056bca3790121037936b0d82bd1f2696282043486577ac21cf5d497fdc7a792a969232182658475fefffffffe881a8a46e4b5147ff4bb679ce790a774d80ecf76f2b81c699d2d434267fec8000000006a473044022060ea228418472843b74b0e022100c2859ca3c20dd0459af76812b66b24875c91022051338ed505f8474d2fcb61912cf23fa5e00602cf1eafc9c03c6bbc6d1f979df00121037936b0d82bd1f2696282043486577ac21cf5d497fdc7a792a969232182658475feffffff018c1db211000000001976a9144315a102c871d850cdc1342a2b726e81051483c188ac00000000"
    }, 
    {
      "txid": "dacfa43a509ef760018cd6e9fafb645415fbe6eebb319b84c0d0eb3d8e2ec368",
      "hash": "dacfa43a509ef760018cd6e9fafb645415fbe6eebb319b84c0d0eb3d8e2ec368",
      "version": 2,
      "size": 226,
      "vsize": 226,
      "locktime": 1358302,
      "vin": [
        {
          "txid": "2b021272ae0b52f55d8a5e702c7be7f1a6272ff79d9f92982d0cecd8c0f113ec",
          "vout": 10,
          "scriptSig": {
            "asm": "3045022100e462696a6b7e679ae806271e40c50b49d3edf9aa575cb2c827805c743347227402200988b16738a56fa8af0919649fc194547bd818ec1359fb9e12a44b9071af3fb6[ALL] 03b12bcb1d9d070d8dd39ad171887da39ddbd48800d1127f8b132aa709f7006c15",
            "hex": "483045022100e462696a6b7e679ae806271e40c50b49d3edf9aa575cb2c827805c743347227402200988b16738a56fa8af0919649fc194547bd818ec1359fb9e12a44b9071af3fb6012103b12bcb1d9d070d8dd39ad171887da39ddbd48800d1127f8b132aa709f7006c15"
          },
          "sequence": 4294967294
        }
      ],
      "vout": [
        {
          "value": 22.95614671,
          "n": 0,
          "scriptPubKey": {
            "asm": "OP_DUP OP_HASH160 a13112b5fbb8248d333b201b237c97869a866628 OP_EQUALVERIFY OP_CHECKSIG",
            "hex": "76a914a13112b5fbb8248d333b201b237c97869a86662888ac",
            "reqSigs": 1,
            "type": "pubkeyhash",
            "addresses": [
              "LZvFqknYNRUaTYTgn55TWKkjG1dBdDebEC"
            ]
          }
        }, 
        {
          "value": 13.05340129,
          "n": 1,
          "scriptPubKey": {
            "asm": "OP_DUP OP_HASH160 32ca111077ce8f85af4b773aa8f88c426238c462 OP_EQUALVERIFY OP_CHECKSIG",
            "hex": "76a91432ca111077ce8f85af4b773aa8f88c426238c46288ac",
            "reqSigs": 1,
            "type": "pubkeyhash",
            "addresses": [
              "LPrW7eC4FzAArMMpS3msiaQ6JK27oQqQP7"
            ]
          }
        }
      ],
      "hex": "0200000001ec13f1c0d8ec0c2d98929f9df72f27a6f1e77b2c705e8a5df5520bae7212022b0a0000006b483045022100e462696a6b7e679ae806271e40c50b49d3edf9aa575cb2c827805c743347227402200988b16738a56fa8af0919649fc194547bd818ec1359fb9e12a44b9071af3fb6012103b12bcb1d9d070d8dd39ad171887da39ddbd48800d1127f8b132aa709f7006c15feffffff02cf4cd488000000001976a914a13112b5fbb8248d333b201b237c97869a86662888ace1e8cd4d000000001976a91432ca111077ce8f85af4b773aa8f88c426238c46288acdeb91400"
    }, 
    {
      "txid": "3483733ea6a2395998862d731b29dbfb07e85500e458caa38c1ac211bc55693c",
      "hash": "3483733ea6a2395998862d731b29dbfb07e85500e458caa38c1ac211bc55693c",
      "version": 1,
      "size": 225,
      "vsize": 225,
      "locktime": 0,
      "vin": [
        {
          "txid": "cace84077e1567d72b78bf8580d7d456583c6a33c22243c647cd229cecd6d3e9",
          "vout": 1,
          "scriptSig": {
            "asm": "30440220314b3a5b42c600e8f5a728e6d364723d7756cabd28d8cd4b4be883049ca5f84d022004b68abcc48f37a1db86e3269c8075da3cc544fb4aad91414a3f078eb0d9048e[ALL] 021a84430e2bae2d0310d9cc9da8f8a9768a97e632261d7ca39a42a031249a33b4",
            "hex": "4730440220314b3a5b42c600e8f5a728e6d364723d7756cabd28d8cd4b4be883049ca5f84d022004b68abcc48f37a1db86e3269c8075da3cc544fb4aad91414a3f078eb0d9048e0121021a84430e2bae2d0310d9cc9da8f8a9768a97e632261d7ca39a42a031249a33b4"
          },
          "sequence": 4294967295
        }
      ],
      "vout": [
        {
          "value": 9.71273067,
          "n": 0,
          "scriptPubKey": {
            "asm": "OP_DUP OP_HASH160 f8b00aac662e0007d7ec362fb2f575a2aa4f5a2d OP_EQUALVERIFY OP_CHECKSIG",
            "hex": "76a914f8b00aac662e0007d7ec362fb2f575a2aa4f5a2d88ac",
            "reqSigs": 1,
            "type": "pubkeyhash",
            "addresses": [
              "LhttjNtcWai1AyxePyX1LVPRUaTq6mPDkw"
            ]
          }
        }, 
        {
          "value": 33.31197373,
          "n": 1,
          "scriptPubKey": {
            "asm": "OP_DUP OP_HASH160 a19ecb10e12e89e78b061cc4c73edc61908c2a42 OP_EQUALVERIFY OP_CHECKSIG",
            "hex": "76a914a19ecb10e12e89e78b061cc4c73edc61908c2a4288ac",
            "reqSigs": 1,
            "type": "pubkeyhash",
            "addresses": [
              "LZxXHF8kLi3qjUFT8JHhouSNmamC8cSBDD"
            ]
          }
        }
      ],
      "hex": "0100000001e9d3d6ec9c22cd47c64322c2336a3c5856d4d78085bf782bd767157e0784ceca010000006a4730440220314b3a5b42c600e8f5a728e6d364723d7756cabd28d8cd4b4be883049ca5f84d022004b68abcc48f37a1db86e3269c8075da3cc544fb4aad91414a3f078eb0d9048e0121021a84430e2bae2d0310d9cc9da8f8a9768a97e632261d7ca39a42a031249a33b4ffffffff026b73e439000000001976a914f8b00aac662e0007d7ec362fb2f575a2aa4f5a2d88acbd098ec6000000001976a914a19ecb10e12e89e78b061cc4c73edc61908c2a4288ac00000000"
    }, 
    {
      "txid": "3b23b1be9d10f8e0dc37a14a5d26755b7b05354b2ded92f27be669a6fe1eada4",
      "hash": "3b23b1be9d10f8e0dc37a14a5d26755b7b05354b2ded92f27be669a6fe1eada4",
      "version": 2,
      "size": 225,
      "vsize": 225,
      "locktime": 1358302,
      "vin": [
        {
          "txid": "3c07b82371f1dd101f4d4f9072e2895ed4f5d464c699a760c03390fd317a0e02",
          "vout": 0,
          "scriptSig": {
            "asm": "304402207d995e08c4f8438f7ff5d611636c46a0cc18fd9e65b4848fdb53bc1cc5d3245c02206cfe8c419b42e0011fef578d01fa616a46d0592e1070fa591710bde4eeef3c10[ALL] 02c8e8295982508f6a5aab604a300637c25945ffeb29ccbfb5078141882443c102",
            "hex": "47304402207d995e08c4f8438f7ff5d611636c46a0cc18fd9e65b4848fdb53bc1cc5d3245c02206cfe8c419b42e0011fef578d01fa616a46d0592e1070fa591710bde4eeef3c10012102c8e8295982508f6a5aab604a300637c25945ffeb29ccbfb5078141882443c102"
          },
          "sequence": 4294967294
        }
      ],
      "vout": [
        {
          "value": 0.04677211,
          "n": 0,
          "scriptPubKey": {
            "asm": "OP_DUP OP_HASH160 b4165ef5252c96a0700942952c46d545b42ab1a3 OP_EQUALVERIFY OP_CHECKSIG",
            "hex": "76a914b4165ef5252c96a0700942952c46d545b42ab1a388ac",
            "reqSigs": 1,
            "type": "pubkeyhash",
            "addresses": [
              "LbeAh6rnmknhhZSQp1gwQfUWvvdbfMbthX"
            ]
          }
        }, 
        {
          "value": 0.50900000,
          "n": 1,
          "scriptPubKey": {
            "asm": "OP_DUP OP_HASH160 510919225aa6c744800aae335b39e314477e1a2c OP_EQUALVERIFY OP_CHECKSIG",
            "hex": "76a914510919225aa6c744800aae335b39e314477e1a2c88ac",
            "reqSigs": 1,
            "type": "pubkeyhash",
            "addresses": [
              "LScRtuP6gPt3u34LkhTMqY6eDXYauv4KpK"
            ]
          }
        }
      ],
      "hex": "0200000001020e7a31fd9033c060a799c664d4f5d45e89e272904f4d1f10ddf17123b8073c000000006a47304402207d995e08c4f8438f7ff5d611636c46a0cc18fd9e65b4848fdb53bc1cc5d3245c02206cfe8c419b42e0011fef578d01fa616a46d0592e1070fa591710bde4eeef3c10012102c8e8295982508f6a5aab604a300637c25945ffeb29ccbfb5078141882443c102feffffff025b5e4700000000001976a914b4165ef5252c96a0700942952c46d545b42ab1a388ac20ac0803000000001976a914510919225aa6c744800aae335b39e314477e1a2c88acdeb91400"
    }, 
    {
      "txid": "15b5631b74f798dad63863140d6595bed9b4f9d8601708b268894d8974e1b1c7",
      "hash": "15b5631b74f798dad63863140d6595bed9b4f9d8601708b268894d8974e1b1c7",
      "version": 1,
      "size": 225,
      "vsize": 225,
      "locktime": 0,
      "vin": [
        {
          "txid": "5d1f260bd65e40e882d81643bde17f15473d8ac9400d3b008397c4b28bdb8a28",
          "vout": 1,
          "scriptSig": {
            "asm": "304402204eb70decc5dec426dad67adc963f5d2ebb72a4f2aa003b327547c08ed3c3a02902202e92b9bc7a8124db4f46204fc421e2f7683e53227f9d24e6cb7b4b60cdce2225[ALL] 03dacd24369cc18a26a5d9f760b87bcac3dd2491dda18f16fd4a706a22d8bc76bf",
            "hex": "47304402204eb70decc5dec426dad67adc963f5d2ebb72a4f2aa003b327547c08ed3c3a02902202e92b9bc7a8124db4f46204fc421e2f7683e53227f9d24e6cb7b4b60cdce2225012103dacd24369cc18a26a5d9f760b87bcac3dd2491dda18f16fd4a706a22d8bc76bf"
          },
          "sequence": 4294967295
        }
      ],
      "vout": [
        {
          "value": 1.67202444,
          "n": 0,
          "scriptPubKey": {
            "asm": "OP_DUP OP_HASH160 69c08ad52d3283b38573ab442d07efd1eaedeebf OP_EQUALVERIFY OP_CHECKSIG",
            "hex": "76a91469c08ad52d3283b38573ab442d07efd1eaedeebf88ac",
            "reqSigs": 1,
            "type": "pubkeyhash",
            "addresses": [
              "LUs7sRt8WTN3iWXXHcoienyWmFQGNB1nay"
            ]
          }
        }, 
        {
          "value": 36.69778907,
          "n": 1,
          "scriptPubKey": {
            "asm": "OP_DUP OP_HASH160 73f4cecf00434a5103dad303ad755450ddb70cd2 OP_EQUALVERIFY OP_CHECKSIG",
            "hex": "76a91473f4cecf00434a5103dad303ad755450ddb70cd288ac",
            "reqSigs": 1,
            "type": "pubkeyhash",
            "addresses": [
              "LVo5EpZcH9cPGvyUq95qbvjWPJVziRj8K4"
            ]
          }
        }
      ],
      "hex": "0100000001288adb8bb2c49783003b0d40c98a3d47157fe1bd4316d882e8405ed60b261f5d010000006a47304402204eb70decc5dec426dad67adc963f5d2ebb72a4f2aa003b327547c08ed3c3a02902202e92b9bc7a8124db4f46204fc421e2f7683e53227f9d24e6cb7b4b60cdce2225012103dacd24369cc18a26a5d9f760b87bcac3dd2491dda18f16fd4a706a22d8bc76bfffffffff028c4ef709000000001976a91469c08ad52d3283b38573ab442d07efd1eaedeebf88acdb61bcda000000001976a91473f4cecf00434a5103dad303ad755450ddb70cd288ac00000000"
    }, 
    {
      "txid": "2db4d3297e506bed14d4cb6ebee3ecf3150fe94e6de6bacd244a472493b92bf9",
      "hash": "2db4d3297e506bed14d4cb6ebee3ecf3150fe94e6de6bacd244a472493b92bf9",
      "version": 2,
      "size": 225,
      "vsize": 225,
      "locktime": 1358302,
      "vin": [
        {
          "txid": "c73ef4f9363de79b3e2caf05f91d806a2d35d746fe7d6ee0739c134a3bf981dd",
          "vout": 1,
          "scriptSig": {
            "asm": "3044022040a66896bc80915025f9fb9ff3e2f0f5c4cf26ff9549201f9fc2345b63f582d602202a49573f4d76fdfa85c6332aac170b58aadaf3c656da508dd2ced5c6bc7ab3b4[ALL] 02db6b836e0ed71dafc4ec302cc26215fd3209873b2506413220423dae3f9b43be",
            "hex": "473044022040a66896bc80915025f9fb9ff3e2f0f5c4cf26ff9549201f9fc2345b63f582d602202a49573f4d76fdfa85c6332aac170b58aadaf3c656da508dd2ced5c6bc7ab3b4012102db6b836e0ed71dafc4ec302cc26215fd3209873b2506413220423dae3f9b43be"
          },
          "sequence": 4294967294
        }
      ],
      "vout": [
        {
          "value": 2.37194672,
          "n": 0,
          "scriptPubKey": {
            "asm": "OP_DUP OP_HASH160 9e535507e2fef5815873de5d1f223ed950baa6b6 OP_EQUALVERIFY OP_CHECKSIG",
            "hex": "76a9149e535507e2fef5815873de5d1f223ed950baa6b688ac",
            "reqSigs": 1,
            "type": "pubkeyhash",
            "addresses": [
              "LZf6rYNFotwbGGm2F5ghy8yodRjc6yEvAE"
            ]
          }
        }, 
        {
          "value": 39.98000000,
          "n": 1,
          "scriptPubKey": {
            "asm": "OP_DUP OP_HASH160 0b78b479dc5b66b89109858d0386c60d770a8904 OP_EQUALVERIFY OP_CHECKSIG",
            "hex": "76a9140b78b479dc5b66b89109858d0386c60d770a890488ac",
            "reqSigs": 1,
            "type": "pubkeyhash",
            "addresses": [
              "LLGcJ3zrLx4ppShEzvFPF8GnJXuu7kbbXK"
            ]
          }
        }
      ],
      "hex": "0200000001dd81f93b4a139c73e06e7dfe46d7352d6a801df905af2c3e9be73d36f9f43ec7010000006a473044022040a66896bc80915025f9fb9ff3e2f0f5c4cf26ff9549201f9fc2345b63f582d602202a49573f4d76fdfa85c6332aac170b58aadaf3c656da508dd2ced5c6bc7ab3b4012102db6b836e0ed71dafc4ec302cc26215fd3209873b2506413220423dae3f9b43befeffffff02b04d230e000000001976a9149e535507e2fef5815873de5d1f223ed950baa6b688ac80a34cee000000001976a9140b78b479dc5b66b89109858d0386c60d770a890488acdeb91400"
    }, 
    {
      "txid": "808aa88809c5376559aab03497dda2bed799902f1fbab697dabb1cf536518f87",
      "hash": "808aa88809c5376559aab03497dda2bed799902f1fbab697dabb1cf536518f87",
      "version": 1,
      "size": 226,
      "vsize": 226,
      "locktime": 0,
      "vin": [
        {
          "txid": "21fd168f464013eaf46fdb311f722872f8cfac795316ea4acaf50b4d92be92b7",
          "vout": 1,
          "scriptSig": {
            "asm": "3045022100f42e6c615fd1dcb05531a12ab72ba50433873a6e43819d344b1c17d523dddaad0220537da758d6f55a2d8bfe920043db3e41c57a861195772232a597146b16cb9037[ALL] 0306cea08540eec83022a2b8be5ed69c2346899a336a8daea5b01936e7db183864",
            "hex": "483045022100f42e6c615fd1dcb05531a12ab72ba50433873a6e43819d344b1c17d523dddaad0220537da758d6f55a2d8bfe920043db3e41c57a861195772232a597146b16cb903701210306cea08540eec83022a2b8be5ed69c2346899a336a8daea5b01936e7db183864"
          },
          "sequence": 4294967295
        }
      ],
      "vout": [
        {
          "value": 0.90000000,
          "n": 0,
          "scriptPubKey": {
            "asm": "OP_DUP OP_HASH160 2397cb6fb1a0cb92563724bf09e622b632f0a621 OP_EQUALVERIFY OP_CHECKSIG",
            "hex": "76a9142397cb6fb1a0cb92563724bf09e622b632f0a62188ac",
            "reqSigs": 1,
            "type": "pubkeyhash",
            "addresses": [
              "LNU9kohAuDz3Pd9JH9Nm7Rkk19FGaBXFjA"
            ]
          }
        }, 
        {
          "value": 0.09454800,
          "n": 1,
          "scriptPubKey": {
            "asm": "OP_DUP OP_HASH160 c5b4ad775a18aa8483d347b9512ad9a1dacd84c2 OP_EQUALVERIFY OP_CHECKSIG",
            "hex": "76a914c5b4ad775a18aa8483d347b9512ad9a1dacd84c288ac",
            "reqSigs": 1,
            "type": "pubkeyhash",
            "addresses": [
              "LdFKphkqW9egY1fbi9EV8wsYogYEKaYSZK"
            ]
          }
        }
      ],
      "hex": "0100000001b792be924d0bf5ca4aea165379accff87228721f31db6ff4ea1340468f16fd21010000006b483045022100f42e6c615fd1dcb05531a12ab72ba50433873a6e43819d344b1c17d523dddaad0220537da758d6f55a2d8bfe920043db3e41c57a861195772232a597146b16cb903701210306cea08540eec83022a2b8be5ed69c2346899a336a8daea5b01936e7db183864ffffffff02804a5d05000000001976a9142397cb6fb1a0cb92563724bf09e622b632f0a62188acd0449000000000001976a914c5b4ad775a18aa8483d347b9512ad9a1dacd84c288ac00000000"
    }, 
    {
      "txid": "d56d6381298ce51e87bc5ac12180aaa842fb7a9d821dc38b3700883bacbe0ba4",
      "hash": "d56d6381298ce51e87bc5ac12180aaa842fb7a9d821dc38b3700883bacbe0ba4",
      "version": 1,
      "size": 226,
      "vsize": 226,
      "locktime": 0,
      "vin": [
        {
          "txid": "66cdfddd8c460b4d0cc194ad57f522a82d3f841bf041490c6eba382c5c2a2b84",
          "vout": 1,
          "scriptSig": {
            "asm": "3045022100caf5095b2c9a7c04b4ed10b7357c2cf31437875f0f76bfc2cbef7c496e7527d602205d838afe014391fc6373b8494131517aff5e6aea0a5de7171259dfc5fe5e64ca[ALL] 03204a2a225ad7ace4b38f1e699a2515bc0b9892eaf23dbd737865d42c3d2cd902",
            "hex": "483045022100caf5095b2c9a7c04b4ed10b7357c2cf31437875f0f76bfc2cbef7c496e7527d602205d838afe014391fc6373b8494131517aff5e6aea0a5de7171259dfc5fe5e64ca012103204a2a225ad7ace4b38f1e699a2515bc0b9892eaf23dbd737865d42c3d2cd902"
          },
          "sequence": 4294967295
        }
      ],
      "vout": [
        {
          "value": 36.61503367,
          "n": 0,
          "scriptPubKey": {
            "asm": "OP_DUP OP_HASH160 4ebe48df9cd6732c4cb7b837a2a60aea87243575 OP_EQUALVERIFY OP_CHECKSIG",
            "hex": "76a9144ebe48df9cd6732c4cb7b837a2a60aea8724357588ac",
            "reqSigs": 1,
            "type": "pubkeyhash",
            "addresses": [
              "LSQJvPLPFJv8z7SKVSe8LqdVckP7MHkqtY"
            ]
          }
        }, 
        {
          "value": 3.85000000,
          "n": 1,
          "scriptPubKey": {
            "asm": "OP_DUP OP_HASH160 667b1bac743bf889cbd7c2d2061900f8dc652395 OP_EQUALVERIFY OP_CHECKSIG",
            "hex": "76a914667b1bac743bf889cbd7c2d2061900f8dc65239588ac",
            "reqSigs": 1,
            "type": "pubkeyhash",
            "addresses": [
              "LUZpfUpZpeZTGN1ZEPE7BiFpT5mapXAMt7"
            ]
          }
        }
      ],
      "hex": "0100000001842b2a5c2c38ba6e0c4941f01b843f2da822f557ad94c10c4d0b468cddfdcd66010000006b483045022100caf5095b2c9a7c04b4ed10b7357c2cf31437875f0f76bfc2cbef7c496e7527d602205d838afe014391fc6373b8494131517aff5e6aea0a5de7171259dfc5fe5e64ca012103204a2a225ad7ace4b38f1e699a2515bc0b9892eaf23dbd737865d42c3d2cd902ffffffff02871b3eda000000001976a9144ebe48df9cd6732c4cb7b837a2a60aea8724357588ac40a2f216000000001976a914667b1bac743bf889cbd7c2d2061900f8dc65239588ac00000000"
    }, 
    {
      "txid": "33d9e58218a4d6434bd7b295296c34b89592dddd0ccf33fe80a1983bc0e1e8af",
      "hash": "33d9e58218a4d6434bd7b295296c34b89592dddd0ccf33fe80a1983bc0e1e8af",
      "version": 1,
      "size": 226,
      "vsize": 226,
      "locktime": 0,
      "vin": [
        {
          "txid": "8a2fdddaf9ea824086418d14448b06312e3ddcc947eef7007b3f94d63f78f3a2",
          "vout": 1,
          "scriptSig": {
            "asm": "3045022100e10711b44a8405d1fdb6c092a144b0a0679b8046dd5f691ddac277ee4524175202207c7d73bb735ee20366d73e8f5b8a7d200ff409c159b4b1ad913626a0517586cd[ALL] 02b75e4a0cbc975fddfa8946c7a8125719f3e0fb24451828fb64496f2811d4f0b8",
            "hex": "483045022100e10711b44a8405d1fdb6c092a144b0a0679b8046dd5f691ddac277ee4524175202207c7d73bb735ee20366d73e8f5b8a7d200ff409c159b4b1ad913626a0517586cd012102b75e4a0cbc975fddfa8946c7a8125719f3e0fb24451828fb64496f2811d4f0b8"
          },
          "sequence": 4294967295
        }
      ],
      "vout": [
        {
          "value": 0.01064711,
          "n": 0,
          "scriptPubKey": {
            "asm": "OP_DUP OP_HASH160 c2cd7ca047220a07b838b918a4fea0435cfd0181 OP_EQUALVERIFY OP_CHECKSIG",
            "hex": "76a914c2cd7ca047220a07b838b918a4fea0435cfd018188ac",
            "reqSigs": 1,
            "type": "pubkeyhash",
            "addresses": [
              "LcyyWuJyzWBChfJ2uJekKohZG128Y46dVj"
            ]
          }
        }, 
        {
          "value": 0.00057041,
          "n": 1,
          "scriptPubKey": {
            "asm": "OP_DUP OP_HASH160 103c752e4dff6a097a492723a480f264987513ca OP_EQUALVERIFY OP_CHECKSIG",
            "hex": "76a914103c752e4dff6a097a492723a480f264987513ca88ac",
            "reqSigs": 1,
            "type": "pubkeyhash",
            "addresses": [
              "LLhoVxcEMcEjm7Q8fSuEQfXo8WS1UFuzMJ"
            ]
          }
        }
      ],
      "hex": "0100000001a2f3783fd6943f7b00f7ee47c9dc3d2e31068b44148d41864082eaf9dadd2f8a010000006b483045022100e10711b44a8405d1fdb6c092a144b0a0679b8046dd5f691ddac277ee4524175202207c7d73bb735ee20366d73e8f5b8a7d200ff409c159b4b1ad913626a0517586cd012102b75e4a0cbc975fddfa8946c7a8125719f3e0fb24451828fb64496f2811d4f0b8ffffffff02073f1000000000001976a914c2cd7ca047220a07b838b918a4fea0435cfd018188acd1de0000000000001976a914103c752e4dff6a097a492723a480f264987513ca88ac00000000"
    }
  ],
  "time": 1517123081,
  "mediantime": 1517122522,
  "nonce": 2317384882,
  "bits": "1a047f14",
  "difficulty": 3731199.183374282,
  "chainwork": "000000000000000000000000000000000000000000000032fa1e52ade088afda",
  "previousblockhash": "c4f18364976219929898322ee148dba816716353e3e5bf70ff12b813bda1c8e2",
  "nextblockhash": "e396ed15d5fffb20871453cb0c88192c64e83a91ab61b344ed87c93142a65cda"
}
