{
  "hash": "57aa20feca314a510fffce8bfd42a00c1bfcb7217a4d3800ffee7496b9035bb0",
  "confirmations": 2070,
  "strippedsize": 1968,
  "size": 2004,
  "weight": 7908,
  "height": 1358924,
  "version": 536870912,
  "versionHex": "20000000",
  "merkleroot": "acf26ed6872b786398917a4731849709929d913375bbdc6d9dc809d7674227e3",
  "tx": [
    {
      "txid": "eb8b6c5187be63e2286fbb226cac086cd7d09665a5c19abfca5c4376c69f6a59",
      "hash": "53f2e96225fb98f718249810171e87d8408a499a88befa93cc7a5ce45b6c3b17",
      "version": 1,
      "size": 258,
      "vsize": 231,
      "locktime": 0,
      "vin": [
        {
          "coinbase": "034cbc14172f5669614254432f4d696e6564206279206d7a6c74632f2cfabe6d6d8e45fe9feff56bfbb2a5bf14dfd56c6f0f8d7b0c76e20d38f519a073505727a80100000000000000108071d500b076143024230e925a000000",
          "sequence": 4294967295
        }
      ],
      "vout": [
        {
          "value": 25.00166700,
          "n": 0,
          "scriptPubKey": {
            "asm": "OP_DUP OP_HASH160 e16c28146ed4869c190b3f0bdc18d80d45f92134 OP_EQUALVERIFY OP_CHECKSIG",
            "hex": "76a914e16c28146ed4869c190b3f0bdc18d80d45f9213488ac",
            "reqSigs": 1,
            "type": "pubkeyhash",
            "addresses": [
              "LfmssDyX6iZvbVqHv6t9P6JWXia2JG7mdb"
            ]
          }
        }, 
        {
          "value": 0.00000000,
          "n": 1,
          "scriptPubKey": {
            "asm": "OP_RETURN aa21a9edc3445641b5fd290608978cace0cfaec9f446bd65609044e81c528f032e7c0b3a",
            "hex": "6a24aa21a9edc3445641b5fd290608978cace0cfaec9f446bd65609044e81c528f032e7c0b3a",
            "type": "nulldata"
          }
        }
      ],
      "hex": "010000000001010000000000000000000000000000000000000000000000000000000000000000ffffffff5a034cbc14172f5669614254432f4d696e6564206279206d7a6c74632f2cfabe6d6d8e45fe9feff56bfbb2a5bf14dfd56c6f0f8d7b0c76e20d38f519a073505727a80100000000000000108071d500b076143024230e925a000000ffffffff022c840595000000001976a914e16c28146ed4869c190b3f0bdc18d80d45f9213488ac0000000000000000266a24aa21a9edc3445641b5fd290608978cace0cfaec9f446bd65609044e81c528f032e7c0b3a0120000000000000000000000000000000000000000000000000000000000000000000000000"
    }, 
    {
      "txid": "1e3248aa51af86ce9570e11d7e024e011cbd2511005888aca3629265a1bf901e",
      "hash": "1e3248aa51af86ce9570e11d7e024e011cbd2511005888aca3629265a1bf901e",
      "version": 2,
      "size": 703,
      "vsize": 703,
      "locktime": 1358922,
      "vin": [
        {
          "txid": "397646b36a4a38c327c6becbe916ac410f71bb4e16e000ba2b8f6519457ab730",
          "vout": 23,
          "scriptSig": {
            "asm": "3044022050e538242af337fed5672281760a452643ed1ff539ba205579b690f27041f5100220658c1cf48e315b6d82041c09baaabb1e4b9d511730e4ce9e7f36dc23181902bb[ALL] 02ca7da802da445d42cdd9cbe4cdfbb4239e7f216ef29e7e617e7069beec52f926",
            "hex": "473044022050e538242af337fed5672281760a452643ed1ff539ba205579b690f27041f5100220658c1cf48e315b6d82041c09baaabb1e4b9d511730e4ce9e7f36dc23181902bb012102ca7da802da445d42cdd9cbe4cdfbb4239e7f216ef29e7e617e7069beec52f926"
          },
          "sequence": 4294967294
        }, 
        {
          "txid": "78f705384886baf1cbc24fa6f28c24f12ded21e5f3f15e59097e1790a6eeddb7",
          "vout": 1,
          "scriptSig": {
            "asm": "3045022100d6c6130373ac39807b8b0a68d0c18bf72ca9cb5dc25ac7f71569d2d0bbbc3aea022059e31628fa8e512eb4c62905d9fac4f3569cf9642501c6e4fbdf246c8ddadfdb[ALL] 02e2712375189e61b49bc21d49f57916cd78126fbb104738b5748e5dcb75187be6",
            "hex": "483045022100d6c6130373ac39807b8b0a68d0c18bf72ca9cb5dc25ac7f71569d2d0bbbc3aea022059e31628fa8e512eb4c62905d9fac4f3569cf9642501c6e4fbdf246c8ddadfdb012102e2712375189e61b49bc21d49f57916cd78126fbb104738b5748e5dcb75187be6"
          },
          "sequence": 4294967294
        }, 
        {
          "txid": "7daa670c820176ea138205cc09b273beb4273b9d716ab7bc3f563bd95e9159d3",
          "vout": 5,
          "scriptSig": {
            "asm": "3045022100aff37463e226fd5027e777650d5b34f4183ccf3ae93df9c760cdf85328c23c8b02202ff48b9e9e54354a8666ab72d7f23b89774bcf27783e7796549e15e51c3437a8[ALL] 030230ad983e84d503ce81130be7c01e1ab28473fd74022ee9f296f852ef3538bd",
            "hex": "483045022100aff37463e226fd5027e777650d5b34f4183ccf3ae93df9c760cdf85328c23c8b02202ff48b9e9e54354a8666ab72d7f23b89774bcf27783e7796549e15e51c3437a80121030230ad983e84d503ce81130be7c01e1ab28473fd74022ee9f296f852ef3538bd"
          },
          "sequence": 4294967294
        }, 
        {
          "txid": "125cbc41c18cdc117df893287c1ff323ca48e3dab232b489583fcbc44dcee429",
          "vout": 0,
          "scriptSig": {
            "asm": "30450221008444985bca2e98b4db9c313e80cc7eec9c105547dff9e6b0559b7ce1f1b91d0b022015c7e68b201a597cf59ac4ed6e4fe9389d6595b2d890974eff4488934d30a476[ALL] 02910f032ac490758f38af245cf4c1a052aefdd862fe2f8dacaf71cb5368653971",
            "hex": "4830450221008444985bca2e98b4db9c313e80cc7eec9c105547dff9e6b0559b7ce1f1b91d0b022015c7e68b201a597cf59ac4ed6e4fe9389d6595b2d890974eff4488934d30a476012102910f032ac490758f38af245cf4c1a052aefdd862fe2f8dacaf71cb5368653971"
          },
          "sequence": 4294967294
        }
      ],
      "vout": [
        {
          "value": 2.49350200,
          "n": 0,
          "scriptPubKey": {
            "asm": "OP_DUP OP_HASH160 2da54661d5469aef661a78dcc8eb9ee853036b3d OP_EQUALVERIFY OP_CHECKSIG",
            "hex": "76a9142da54661d5469aef661a78dcc8eb9ee853036b3d88ac",
            "reqSigs": 1,
            "type": "pubkeyhash",
            "addresses": [
              "LPPJfMBpMxLXKUUVMUmStU6sM4ZcAK7p6A"
            ]
          }
        }, 
        {
          "value": 0.00929601,
          "n": 1,
          "scriptPubKey": {
            "asm": "OP_DUP OP_HASH160 cc4d1c7c4446a75fa58cf2f7c489dbb23198c42a OP_EQUALVERIFY OP_CHECKSIG",
            "hex": "76a914cc4d1c7c4446a75fa58cf2f7c489dbb23198c42a88ac",
            "reqSigs": 1,
            "type": "pubkeyhash",
            "addresses": [
              "LdrCV8aWVAQZ9Eq9Vgg3eMwcARK5t86tZY"
            ]
          }
        }, 
        {
          "value": 0.99900000,
          "n": 2,
          "scriptPubKey": {
            "asm": "OP_DUP OP_HASH160 7ab0891d90aa0f55969bd95793d57210dfadf6b8 OP_EQUALVERIFY OP_CHECKSIG",
            "hex": "76a9147ab0891d90aa0f55969bd95793d57210dfadf6b888ac",
            "reqSigs": 1,
            "type": "pubkeyhash",
            "addresses": [
              "LWQgBXRZrE6Ebm4WDrhvY5sfNsHCf2e4LE"
            ]
          }
        }
      ],
      "hex": "020000000430b77a4519658f2bba00e0164ebb710f41ac16e9cbbec627c3384a6ab3467639170000006a473044022050e538242af337fed5672281760a452643ed1ff539ba205579b690f27041f5100220658c1cf48e315b6d82041c09baaabb1e4b9d511730e4ce9e7f36dc23181902bb012102ca7da802da445d42cdd9cbe4cdfbb4239e7f216ef29e7e617e7069beec52f926feffffffb7ddeea690177e09595ef1f3e521ed2df1248cf2a64fc2cbf1ba86483805f778010000006b483045022100d6c6130373ac39807b8b0a68d0c18bf72ca9cb5dc25ac7f71569d2d0bbbc3aea022059e31628fa8e512eb4c62905d9fac4f3569cf9642501c6e4fbdf246c8ddadfdb012102e2712375189e61b49bc21d49f57916cd78126fbb104738b5748e5dcb75187be6feffffffd359915ed93b563fbcb76a719d3b27b4be73b209cc058213ea7601820c67aa7d050000006b483045022100aff37463e226fd5027e777650d5b34f4183ccf3ae93df9c760cdf85328c23c8b02202ff48b9e9e54354a8666ab72d7f23b89774bcf27783e7796549e15e51c3437a80121030230ad983e84d503ce81130be7c01e1ab28473fd74022ee9f296f852ef3538bdfeffffff29e4ce4dc4cb3f5889b432b2dae348ca23f31f7c2893f87d11dc8cc141bc5c12000000006b4830450221008444985bca2e98b4db9c313e80cc7eec9c105547dff9e6b0559b7ce1f1b91d0b022015c7e68b201a597cf59ac4ed6e4fe9389d6595b2d890974eff4488934d30a476012102910f032ac490758f38af245cf4c1a052aefdd862fe2f8dacaf71cb5368653971feffffff0338c8dc0e000000001976a9142da54661d5469aef661a78dcc8eb9ee853036b3d88ac412f0e00000000001976a914cc4d1c7c4446a75fa58cf2f7c489dbb23198c42a88ac605af405000000001976a9147ab0891d90aa0f55969bd95793d57210dfadf6b888ac4abc1400"
    }, 
    {
      "txid": "1bd24cdb712aa9823873c5f51ef70d82c248e1d498981545fb2e10fa7a402858",
      "hash": "1bd24cdb712aa9823873c5f51ef70d82c248e1d498981545fb2e10fa7a402858",
      "version": 1,
      "size": 962,
      "vsize": 962,
      "locktime": 1358922,
      "vin": [
        {
          "txid": "53b32cfadc0084b1d2da0792d7527bcf79868437e3e374d07415bd604cf0e910",
          "vout": 312,
          "scriptSig": {
            "asm": "30440220043d08eea21371aa0e148f71e62bba7ee61c70118abb51ea365918c5956d062502207992ed8836c6a81e2f3b1709cbccd207c2a54fd51f4eea94e9eb752e1e4bea33[ALL] 02c5f5a25cf8a67492293756f8304166b08d5b06194200d87cdd8512f978b0a771",
            "hex": "4730440220043d08eea21371aa0e148f71e62bba7ee61c70118abb51ea365918c5956d062502207992ed8836c6a81e2f3b1709cbccd207c2a54fd51f4eea94e9eb752e1e4bea33012102c5f5a25cf8a67492293756f8304166b08d5b06194200d87cdd8512f978b0a771"
          },
          "sequence": 4294967294
        }, 
        {
          "txid": "ace37b8137b15ad4e732b1d59cf97ee824275fafc186a09f7b74a160f5de5c54",
          "vout": 1,
          "scriptSig": {
            "asm": "30440220525520edcd0dd338b015bb65882c1c4466af3f701a0691b7da5504be25a74b3202201a75e34dfe74be927db256b1d5998b549fc8105e2144b3c8ba7db283e0b6d3e1[ALL] 038429db41aeaf3618c7f70a58e236458ef6d4b6c9fab41222dca956fbd2d57657",
            "hex": "4730440220525520edcd0dd338b015bb65882c1c4466af3f701a0691b7da5504be25a74b3202201a75e34dfe74be927db256b1d5998b549fc8105e2144b3c8ba7db283e0b6d3e10121038429db41aeaf3618c7f70a58e236458ef6d4b6c9fab41222dca956fbd2d57657"
          },
          "sequence": 4294967294
        }, 
        {
          "txid": "48f4eb459a4fce244246ae85688ec89c66269ea542cc886f727938b8ffd82982",
          "vout": 5198,
          "scriptSig": {
            "asm": "304402203c52ba80f5317eaf2f71a1eb32027ecee8754c8b3e4937cb61679c380ec5e2d002207e5c0d49a4f3136ab995e3e1a4867e0210b0ed954c68056d89eb052cc04bba42[ALL] 035420a41a688e5343b0bbfd5abfe5c9d01f78dc821ec6762a8bcaeaaf867953e6",
            "hex": "47304402203c52ba80f5317eaf2f71a1eb32027ecee8754c8b3e4937cb61679c380ec5e2d002207e5c0d49a4f3136ab995e3e1a4867e0210b0ed954c68056d89eb052cc04bba420121035420a41a688e5343b0bbfd5abfe5c9d01f78dc821ec6762a8bcaeaaf867953e6"
          },
          "sequence": 4294967294
        }, 
        {
          "txid": "79f28fdf92da7f91cbc7c62ac84f187dc2744afa116989ecd5649d045a984a83",
          "vout": 6,
          "scriptSig": {
            "asm": "3045022100865935e18d83432624b8604da5f2c70d53805522e40e594481f7d8cf40c6c32202203a7576b27b38436069da617e8d06621cb11a333b8de57876361eb445f4f84512[ALL] 03f3987a1aede015110f394e80889664ca84cd8a7db46e4a9593184815b7450559",
            "hex": "483045022100865935e18d83432624b8604da5f2c70d53805522e40e594481f7d8cf40c6c32202203a7576b27b38436069da617e8d06621cb11a333b8de57876361eb445f4f84512012103f3987a1aede015110f394e80889664ca84cd8a7db46e4a9593184815b7450559"
          },
          "sequence": 4294967294
        }, 
        {
          "txid": "9d57828a5bbccd357a381655a14b9bf64d29791bf23c5507eb3759ba4e8d210e",
          "vout": 0,
          "scriptSig": {
            "asm": "3045022100d6ffbbaeacb45db97912322b8dd8cb95941b01762aad4fee6ce8ea091cfd5ea402206fad2182ea4ebce0dc29271e180f8e3eb5f0ad9513580c72723a8bc81f4d6dd8[ALL] 0285552a61d5d9e53a2d7dff189609deffd50482fa88467f7adb4a4a3fae8a7c1c",
            "hex": "483045022100d6ffbbaeacb45db97912322b8dd8cb95941b01762aad4fee6ce8ea091cfd5ea402206fad2182ea4ebce0dc29271e180f8e3eb5f0ad9513580c72723a8bc81f4d6dd801210285552a61d5d9e53a2d7dff189609deffd50482fa88467f7adb4a4a3fae8a7c1c"
          },
          "sequence": 4294967294
        }, 
        {
          "txid": "fe530bad55d1a85c88fa54cc57273ff7347516be985ad7494b227f78f5ce3f95",
          "vout": 0,
          "scriptSig": {
            "asm": "3044022005b5b8878899430ce6f96171812296c2a6bfa86034f00ab232b12ec4551b0a8702201375d7d0dd95451b5e7a950d8bb50a8dca755f1b629a3bbfedfd5886a72f3218[ALL] 0219dabf4203a52cc0f9c0ea0c5cac4cb5a284bbb58ea6062d1440ac06746622a0",
            "hex": "473044022005b5b8878899430ce6f96171812296c2a6bfa86034f00ab232b12ec4551b0a8702201375d7d0dd95451b5e7a950d8bb50a8dca755f1b629a3bbfedfd5886a72f321801210219dabf4203a52cc0f9c0ea0c5cac4cb5a284bbb58ea6062d1440ac06746622a0"
          },
          "sequence": 4294967294
        }
      ],
      "vout": [
        {
          "value": 0.42661876,
          "n": 0,
          "scriptPubKey": {
            "asm": "OP_DUP OP_HASH160 1ca6c5c304cc776e39db50f56c0ed3f4c109bb94 OP_EQUALVERIFY OP_CHECKSIG",
            "hex": "76a9141ca6c5c304cc776e39db50f56c0ed3f4c109bb9488ac",
            "reqSigs": 1,
            "type": "pubkeyhash",
            "addresses": [
              "LMqSy99ETGFQPtcMsPE2Dr2Z7oYZffGNuy"
            ]
          }
        }, 
        {
          "value": 0.01175053,
          "n": 1,
          "scriptPubKey": {
            "asm": "OP_DUP OP_HASH160 f7091f808c5f717b2b92972b117a8275fe0ee9de OP_EQUALVERIFY OP_CHECKSIG",
            "hex": "76a914f7091f808c5f717b2b92972b117a8275fe0ee9de88ac",
            "reqSigs": 1,
            "type": "pubkeyhash",
            "addresses": [
              "LhkA6UZuw5rY7GFd6H3RzbNg79HFA87P7a"
            ]
          }
        }
      ],
      "hex": "010000000610e9f04c60bd1574d074e3e337848679cf7b52d79207dad2b18400dcfa2cb353380100006a4730440220043d08eea21371aa0e148f71e62bba7ee61c70118abb51ea365918c5956d062502207992ed8836c6a81e2f3b1709cbccd207c2a54fd51f4eea94e9eb752e1e4bea33012102c5f5a25cf8a67492293756f8304166b08d5b06194200d87cdd8512f978b0a771feffffff545cdef560a1747b9fa086c1af5f2724e87ef99cd5b132e7d45ab137817be3ac010000006a4730440220525520edcd0dd338b015bb65882c1c4466af3f701a0691b7da5504be25a74b3202201a75e34dfe74be927db256b1d5998b549fc8105e2144b3c8ba7db283e0b6d3e10121038429db41aeaf3618c7f70a58e236458ef6d4b6c9fab41222dca956fbd2d57657feffffff8229d8ffb83879726f88cc42a59e26669cc88e6885ae464224ce4f9a45ebf4484e1400006a47304402203c52ba80f5317eaf2f71a1eb32027ecee8754c8b3e4937cb61679c380ec5e2d002207e5c0d49a4f3136ab995e3e1a4867e0210b0ed954c68056d89eb052cc04bba420121035420a41a688e5343b0bbfd5abfe5c9d01f78dc821ec6762a8bcaeaaf867953e6feffffff834a985a049d64d5ec896911fa4a74c27d184fc82ac6c7cb917fda92df8ff279060000006b483045022100865935e18d83432624b8604da5f2c70d53805522e40e594481f7d8cf40c6c32202203a7576b27b38436069da617e8d06621cb11a333b8de57876361eb445f4f84512012103f3987a1aede015110f394e80889664ca84cd8a7db46e4a9593184815b7450559feffffff0e218d4eba5937eb07553cf21b79294df69b4ba15516387a35cdbc5b8a82579d000000006b483045022100d6ffbbaeacb45db97912322b8dd8cb95941b01762aad4fee6ce8ea091cfd5ea402206fad2182ea4ebce0dc29271e180f8e3eb5f0ad9513580c72723a8bc81f4d6dd801210285552a61d5d9e53a2d7dff189609deffd50482fa88467f7adb4a4a3fae8a7c1cfeffffff953fcef5787f224b49d75a98be167534f73f2757cc54fa885ca8d155ad0b53fe000000006a473044022005b5b8878899430ce6f96171812296c2a6bfa86034f00ab232b12ec4551b0a8702201375d7d0dd95451b5e7a950d8bb50a8dca755f1b629a3bbfedfd5886a72f321801210219dabf4203a52cc0f9c0ea0c5cac4cb5a284bbb58ea6062d1440ac06746622a0feffffff02f4f78a02000000001976a9141ca6c5c304cc776e39db50f56c0ed3f4c109bb9488ac0dee1100000000001976a914f7091f808c5f717b2b92972b117a8275fe0ee9de88ac4abc1400"
    }
  ],
  "time": 1517212301,
  "mediantime": 1517211342,
  "nonce": 235830239,
  "bits": "1a042eae",
  "difficulty": 4011378.762614286,
  "chainwork": "000000000000000000000000000000000000000000000033865c7e9a69df011a",
  "previousblockhash": "57df9c9678ed02e0ac6874e2af860bfb8ac62630a798be1c686ff9e33ec47a51",
  "nextblockhash": "941682fc36efb197c7031ca689a81d44b3cb50004347b10701b1042ea74d0879"
}
