{
  "hash": "582379d24774a9dd250fe1a8bebd58edc4bf030a0c120f4f6f79b32c90decd1b",
  "confirmations": 3098,
  "strippedsize": 254,
  "size": 254,
  "weight": 1016,
  "height": 1357897,
  "version": 536870912,
  "versionHex": "20000000",
  "merkleroot": "3a9654f7e69f2be5d6eb1c17bbbcd22e401a4d40bf4c182b532fc4e70c06d520",
  "tx": [
    {
      "txid": "3a9654f7e69f2be5d6eb1c17bbbcd22e401a4d40bf4c182b532fc4e70c06d520",
      "hash": "3a9654f7e69f2be5d6eb1c17bbbcd22e401a4d40bf4c182b532fc4e70c06d520",
      "version": 1,
      "size": 173,
      "vsize": 173,
      "locktime": 0,
      "vin": [
        {
          "coinbase": "0349b8141b4d696e656420627920416e74506f6f6c20626a312045205a6c899ffabe6d6d27a18934d2d15ccb878daed8f264437f3965934fc0c6c57f28fc570e49bb4f250400000000000000131000000000000004000000",
          "sequence": 4294967295
        }
      ],
      "vout": [
        {
          "value": 25.00000000,
          "n": 0,
          "scriptPubKey": {
            "asm": "OP_DUP OP_HASH160 0ff3ccc5e8be88afe24b5d634e5852d474dbdff1 OP_EQUALVERIFY OP_CHECKSIG",
            "hex": "76a9140ff3ccc5e8be88afe24b5d634e5852d474dbdff188ac",
            "reqSigs": 1,
            "type": "pubkeyhash",
            "addresses": [
              "LLgJTbzZMsRTCUF1NtvvL9SR1a4pVieW89"
            ]
          }
        }
      ],
      "hex": "01000000010000000000000000000000000000000000000000000000000000000000000000ffffffff580349b8141b4d696e656420627920416e74506f6f6c20626a312045205a6c899ffabe6d6d27a18934d2d15ccb878daed8f264437f3965934fc0c6c57f28fc570e49bb4f250400000000000000131000000000000004000000ffffffff0100f90295000000001976a9140ff3ccc5e8be88afe24b5d634e5852d474dbdff188ac00000000"
    }
  ],
  "time": 1517062559,
  "mediantime": 1517061879,
  "nonce": 914274731,
  "bits": "1a047f14",
  "difficulty": 3731199.183374282,
  "chainwork": "0000000000000000000000000000000000000000000000329f9a0075ec2ea284",
  "previousblockhash": "bddcf704047e5588787cdb566ad706d974c01dd2c54d09b4d4080f55686488e9",
  "nextblockhash": "bce19b869c4ccd6828a0ab0383dad2fdd6762ed6e4901139c3ce5969de07cc40"
}
