{
  "hash": "58e468459137ea6a33123542fc9ac74593c1b709ae8aadd5057b43e4812f1a89",
  "confirmations": 3039,
  "strippedsize": 253,
  "size": 253,
  "weight": 1012,
  "height": 1357956,
  "version": 536870912,
  "versionHex": "20000000",
  "merkleroot": "e28decf51ee1d2f55df0f0b8e322f770e51556a07dca755eec3c0981fa5a1441",
  "tx": [
    {
      "txid": "e28decf51ee1d2f55df0f0b8e322f770e51556a07dca755eec3c0981fa5a1441",
      "hash": "e28decf51ee1d2f55df0f0b8e322f770e51556a07dca755eec3c0981fa5a1441",
      "version": 1,
      "size": 172,
      "vsize": 172,
      "locktime": 0,
      "vin": [
        {
          "coinbase": "0384b8141a4d696e656420627920416e74506f6f6c20626a3532205a6ca5d5fabe6d6de63239d6ac6902654cf4f27d1a3995ed6917ad60629b6e1138b61c6b2befa8c50400000000000000742b00000000000002000000",
          "sequence": 4294967295
        }
      ],
      "vout": [
        {
          "value": 25.00000000,
          "n": 0,
          "scriptPubKey": {
            "asm": "OP_DUP OP_HASH160 0ff3ccc5e8be88afe24b5d634e5852d474dbdff1 OP_EQUALVERIFY OP_CHECKSIG",
            "hex": "76a9140ff3ccc5e8be88afe24b5d634e5852d474dbdff188ac",
            "reqSigs": 1,
            "type": "pubkeyhash",
            "addresses": [
              "LLgJTbzZMsRTCUF1NtvvL9SR1a4pVieW89"
            ]
          }
        }
      ],
      "hex": "01000000010000000000000000000000000000000000000000000000000000000000000000ffffffff570384b8141a4d696e656420627920416e74506f6f6c20626a3532205a6ca5d5fabe6d6de63239d6ac6902654cf4f27d1a3995ed6917ad60629b6e1138b61c6b2befa8c50400000000000000742b00000000000002000000ffffffff0100f90295000000001976a9140ff3ccc5e8be88afe24b5d634e5852d474dbdff188ac00000000"
    }
  ],
  "time": 1517069781,
  "mediantime": 1517069151,
  "nonce": 2219352704,
  "bits": "1a047f14",
  "difficulty": 3731199.183374282,
  "chainwork": "000000000000000000000000000000000000000000000032acb92264dfccfc82",
  "previousblockhash": "83e7e13e2812e2b67d3bb689a2dad28c87c87b9b47bfbdbb483813b318405111",
  "nextblockhash": "245c7cdce9514538d65407e54a6c4215a95b8d69ffc62b90bd7aac0a065d2c09"
}
