{
  "hash": "593e45d5fa73d3cbbeb91b486e19f4889b502dce05b50fe7e4ee905e849ae0d0",
  "confirmations": 1812,
  "strippedsize": 4681,
  "size": 4717,
  "weight": 18760,
  "height": 1359182,
  "version": 536870912,
  "versionHex": "20000000",
  "merkleroot": "031d051e34e1dfc760ee6528e912e825e03bb0c0e0e745fab4731a0bcd8d45ff",
  "tx": [
    {
      "txid": "a2c49184fb65dea1859c06d5a1179c52d20432c7838e1d579c506628886b0ce1",
      "hash": "c2772dbd549d8714caaedd8a2e41b9f2ea7d78611165134f6c451c0bb9e55646",
      "version": 1,
      "size": 277,
      "vsize": 250,
      "locktime": 954693270,
      "vin": [
        {
          "coinbase": "034ebd142cfabe6d6dd467f8e3ffc9efeaa8dd07fb66181afb81911b5687c94d240adb99801b181d3908000000f09f909f164d696e656420627920736974676c6f62616c3230313700000000000000000000000000000000000000000000000000000000",
          "sequence": 197
        }
      ],
      "vout": [
        {
          "value": 25.02056596,
          "n": 0,
          "scriptPubKey": {
            "asm": "OP_DUP OP_HASH160 aa3750aa18b8a0f3f0590731e1fab934856680cf OP_EQUALVERIFY OP_CHECKSIG",
            "hex": "76a914aa3750aa18b8a0f3f0590731e1fab934856680cf88ac",
            "reqSigs": 1,
            "type": "pubkeyhash",
            "addresses": [
              "LajyQBeZaBA1NkZDeY8YT5RYYVRkXMvb2T"
            ]
          }
        }, 
        {
          "value": 0.00000000,
          "n": 1,
          "scriptPubKey": {
            "asm": "OP_RETURN aa21a9ed053d98e4bfa948b8583491c4836582d9607d4831a5003d13bcb9b7e4c5a0c8e5 0000000000000000",
            "hex": "6a24aa21a9ed053d98e4bfa948b8583491c4836582d9607d4831a5003d13bcb9b7e4c5a0c8e5080000000000000000",
            "type": "nulldata"
          }
        }
      ],
      "hex": "010000000001010000000000000000000000000000000000000000000000000000000000000000ffffffff64034ebd142cfabe6d6dd467f8e3ffc9efeaa8dd07fb66181afb81911b5687c94d240adb99801b181d3908000000f09f909f164d696e656420627920736974676c6f62616c3230313700000000000000000000000000000000000000000000000000000000c500000002945a2295000000001976a914aa3750aa18b8a0f3f0590731e1fab934856680cf88ac00000000000000002f6a24aa21a9ed053d98e4bfa948b8583491c4836582d9607d4831a5003d13bcb9b7e4c5a0c8e5080000000000000000012000000000000000000000000000000000000000000000000000000000000000009676e738"
    }, 
    {
      "txid": "83166991c3d07a7d08bad0ebabe591288627b35d3dfb0e2d9d83e24672aba449",
      "hash": "83166991c3d07a7d08bad0ebabe591288627b35d3dfb0e2d9d83e24672aba449",
      "version": 1,
      "size": 1407,
      "vsize": 1407,
      "locktime": 0,
      "vin": [
        {
          "txid": "2b952f63a40c28d89261e84058174c07100c696e8c122d625c9b0ea11ed96487",
          "vout": 1988,
          "scriptSig": {
            "asm": "3045022100ea282e23328fefdc3c526c324d0323364c4918304e277bd9a3fe57a6b3c2f59e02206ed3ac5b3373fd6faea5b12f7b3899882078c95ea26dc6fec82f24aa130fa8fe[ALL] 020dab0195d97a943b9f0292f9649cd17875f404512785d91546906a0d04ad440e",
            "hex": "483045022100ea282e23328fefdc3c526c324d0323364c4918304e277bd9a3fe57a6b3c2f59e02206ed3ac5b3373fd6faea5b12f7b3899882078c95ea26dc6fec82f24aa130fa8fe0121020dab0195d97a943b9f0292f9649cd17875f404512785d91546906a0d04ad440e"
          },
          "sequence": 4294967295
        }, 
        {
          "txid": "04cca5a4c36ab07a5c7cf54035951a1e8b357bf727b14fafe7003bde36bd3b9e",
          "vout": 2005,
          "scriptSig": {
            "asm": "3045022100f70146fa7b715c4ff517659daea6c0c22bbf96b870f225d2be26a12c63972a180220265c5f0820e96fb37fc4073608765362521ddc3a59127087a3bbb162a177f697[ALL] 020dab0195d97a943b9f0292f9649cd17875f404512785d91546906a0d04ad440e",
            "hex": "483045022100f70146fa7b715c4ff517659daea6c0c22bbf96b870f225d2be26a12c63972a180220265c5f0820e96fb37fc4073608765362521ddc3a59127087a3bbb162a177f6970121020dab0195d97a943b9f0292f9649cd17875f404512785d91546906a0d04ad440e"
          },
          "sequence": 4294967295
        }, 
        {
          "txid": "67fd93a92bb995dd3c12de603217fafd23ac49f4e67048c97a531bf9c938bb0e",
          "vout": 2006,
          "scriptSig": {
            "asm": "304502210087c4bd1653b8fd59cd4941f54088a7d81a08de725d9eec50c5a9489185dff16002201c7d25697f8d0eab7d609d507a8c13a5e889efc5003e8763805b3d67b7356517[ALL] 020dab0195d97a943b9f0292f9649cd17875f404512785d91546906a0d04ad440e",
            "hex": "48304502210087c4bd1653b8fd59cd4941f54088a7d81a08de725d9eec50c5a9489185dff16002201c7d25697f8d0eab7d609d507a8c13a5e889efc5003e8763805b3d67b73565170121020dab0195d97a943b9f0292f9649cd17875f404512785d91546906a0d04ad440e"
          },
          "sequence": 4294967295
        }, 
        {
          "txid": "ae3bf8f668b00655ac1b7f6c6247faf9c1133bedb233d8873b19b37640ff28d6",
          "vout": 2002,
          "scriptSig": {
            "asm": "304402200d8d54bd8f91ec7d60d1e2e1cecaefd5ed158e4a3ece7e68c3db742b515397bf02202d02b8bebde632c24f1d6127435c350f995859fde6dbe506627581903203bd60[ALL] 020dab0195d97a943b9f0292f9649cd17875f404512785d91546906a0d04ad440e",
            "hex": "47304402200d8d54bd8f91ec7d60d1e2e1cecaefd5ed158e4a3ece7e68c3db742b515397bf02202d02b8bebde632c24f1d6127435c350f995859fde6dbe506627581903203bd600121020dab0195d97a943b9f0292f9649cd17875f404512785d91546906a0d04ad440e"
          },
          "sequence": 4294967295
        }, 
        {
          "txid": "7ecf4bd63eecd94d40fe5877102d23a7844678e306491949ae2c63fa6fce34aa",
          "vout": 2000,
          "scriptSig": {
            "asm": "3045022100f46891b135146d1650f398003c42d3e5d8359254cea1be10fda5503ee517159902207729bbd117ce7e1a33f6263119a656be76d00e4950f6da81998282e706ddc907[ALL] 020dab0195d97a943b9f0292f9649cd17875f404512785d91546906a0d04ad440e",
            "hex": "483045022100f46891b135146d1650f398003c42d3e5d8359254cea1be10fda5503ee517159902207729bbd117ce7e1a33f6263119a656be76d00e4950f6da81998282e706ddc9070121020dab0195d97a943b9f0292f9649cd17875f404512785d91546906a0d04ad440e"
          },
          "sequence": 4294967295
        }, 
        {
          "txid": "e24968994699bc02fb699fe384a94537c16b4e527562a369d273e91002ab0745",
          "vout": 2003,
          "scriptSig": {
            "asm": "304502210093aca768b2edd827e7c18b5fdef4710324228fad9a72eb486efaf2df459387b2022003b320e27fabc2ea988d22deeda9b6c37e9cd5738cbf2b21cc2ec37b1679853e[ALL] 020dab0195d97a943b9f0292f9649cd17875f404512785d91546906a0d04ad440e",
            "hex": "48304502210093aca768b2edd827e7c18b5fdef4710324228fad9a72eb486efaf2df459387b2022003b320e27fabc2ea988d22deeda9b6c37e9cd5738cbf2b21cc2ec37b1679853e0121020dab0195d97a943b9f0292f9649cd17875f404512785d91546906a0d04ad440e"
          },
          "sequence": 4294967295
        }, 
        {
          "txid": "2a31b60c312b34d2dc27b9c213c7c590618e73adb615da03c03306619cb00986",
          "vout": 2001,
          "scriptSig": {
            "asm": "304402206eca49057b3ad2ddb474258a60007fa2513655effef888365f9409e8a1a6af730220018be51c864c6bbed88d14d06d5c946a88b2b087941ce68ab9ec4b1c14841d91[ALL] 020dab0195d97a943b9f0292f9649cd17875f404512785d91546906a0d04ad440e",
            "hex": "47304402206eca49057b3ad2ddb474258a60007fa2513655effef888365f9409e8a1a6af730220018be51c864c6bbed88d14d06d5c946a88b2b087941ce68ab9ec4b1c14841d910121020dab0195d97a943b9f0292f9649cd17875f404512785d91546906a0d04ad440e"
          },
          "sequence": 4294967295
        }, 
        {
          "txid": "371ca7617482bc4c4be867a06e25e662ef8c743f2ee2a8a03e37152b80f9b3f5",
          "vout": 2002,
          "scriptSig": {
            "asm": "3045022100bcd6ed96f07b0ffa2793e513b1fb65d370b99de366130036242a82d2b10a176002204d91710cd6e07bff446562b8e561a084bb431e0a7d493ac5db130fd5302d7847[ALL] 020dab0195d97a943b9f0292f9649cd17875f404512785d91546906a0d04ad440e",
            "hex": "483045022100bcd6ed96f07b0ffa2793e513b1fb65d370b99de366130036242a82d2b10a176002204d91710cd6e07bff446562b8e561a084bb431e0a7d493ac5db130fd5302d78470121020dab0195d97a943b9f0292f9649cd17875f404512785d91546906a0d04ad440e"
          },
          "sequence": 4294967295
        }, 
        {
          "txid": "68b20e09339c1d214d8092138cdb461c6beceef0a3ad95967cbef5f9ad5b36c3",
          "vout": 1999,
          "scriptSig": {
            "asm": "304402200a7ae12764cc3651def31350a2139b2e2a9cd917ff2316f69757b6b6d7a0353302201a4828da45bdaf6bd99e5782304a52a9c58d37ba768aa9b7aa8bdd0fff8301be[ALL] 020dab0195d97a943b9f0292f9649cd17875f404512785d91546906a0d04ad440e",
            "hex": "47304402200a7ae12764cc3651def31350a2139b2e2a9cd917ff2316f69757b6b6d7a0353302201a4828da45bdaf6bd99e5782304a52a9c58d37ba768aa9b7aa8bdd0fff8301be0121020dab0195d97a943b9f0292f9649cd17875f404512785d91546906a0d04ad440e"
          },
          "sequence": 4294967295
        }
      ],
      "vout": [
        {
          "value": 2.00775279,
          "n": 0,
          "scriptPubKey": {
            "asm": "OP_DUP OP_HASH160 612f026da151d2ab569a92ec41c23c0a0aec5547 OP_EQUALVERIFY OP_CHECKSIG",
            "hex": "76a914612f026da151d2ab569a92ec41c23c0a0aec554788ac",
            "reqSigs": 1,
            "type": "pubkeyhash",
            "addresses": [
              "LU5p86a7Lai5zcmthyHHDAkNBwK33UqZpv"
            ]
          }
        }, 
        {
          "value": 0.03196236,
          "n": 1,
          "scriptPubKey": {
            "asm": "OP_DUP OP_HASH160 ea1c8fae1a6f1a90508ab9a3922ee85256ee04d3 OP_EQUALVERIFY OP_CHECKSIG",
            "hex": "76a914ea1c8fae1a6f1a90508ab9a3922ee85256ee04d388ac",
            "reqSigs": 1,
            "type": "pubkeyhash",
            "addresses": [
              "LgZpba7mwYxwwueMGaTp8nwL7Ve4miQ1RZ"
            ]
          }
        }
      ],
      "hex": "01000000098764d91ea10e9b5c622d128c6e690c10074c175840e86192d8280ca4632f952bc40700006b483045022100ea282e23328fefdc3c526c324d0323364c4918304e277bd9a3fe57a6b3c2f59e02206ed3ac5b3373fd6faea5b12f7b3899882078c95ea26dc6fec82f24aa130fa8fe0121020dab0195d97a943b9f0292f9649cd17875f404512785d91546906a0d04ad440effffffff9e3bbd36de3b00e7af4fb127f77b358b1e1a953540f57c5c7ab06ac3a4a5cc04d50700006b483045022100f70146fa7b715c4ff517659daea6c0c22bbf96b870f225d2be26a12c63972a180220265c5f0820e96fb37fc4073608765362521ddc3a59127087a3bbb162a177f6970121020dab0195d97a943b9f0292f9649cd17875f404512785d91546906a0d04ad440effffffff0ebb38c9f91b537ac94870e6f449ac23fdfa173260de123cdd95b92ba993fd67d60700006b48304502210087c4bd1653b8fd59cd4941f54088a7d81a08de725d9eec50c5a9489185dff16002201c7d25697f8d0eab7d609d507a8c13a5e889efc5003e8763805b3d67b73565170121020dab0195d97a943b9f0292f9649cd17875f404512785d91546906a0d04ad440effffffffd628ff4076b3193b87d833b2ed3b13c1f9fa47626c7f1bac5506b068f6f83baed20700006a47304402200d8d54bd8f91ec7d60d1e2e1cecaefd5ed158e4a3ece7e68c3db742b515397bf02202d02b8bebde632c24f1d6127435c350f995859fde6dbe506627581903203bd600121020dab0195d97a943b9f0292f9649cd17875f404512785d91546906a0d04ad440effffffffaa34ce6ffa632cae49194906e3784684a7232d107758fe404dd9ec3ed64bcf7ed00700006b483045022100f46891b135146d1650f398003c42d3e5d8359254cea1be10fda5503ee517159902207729bbd117ce7e1a33f6263119a656be76d00e4950f6da81998282e706ddc9070121020dab0195d97a943b9f0292f9649cd17875f404512785d91546906a0d04ad440effffffff4507ab0210e973d269a36275524e6bc13745a984e39f69fb02bc9946996849e2d30700006b48304502210093aca768b2edd827e7c18b5fdef4710324228fad9a72eb486efaf2df459387b2022003b320e27fabc2ea988d22deeda9b6c37e9cd5738cbf2b21cc2ec37b1679853e0121020dab0195d97a943b9f0292f9649cd17875f404512785d91546906a0d04ad440effffffff8609b09c610633c003da15b6ad738e6190c5c713c2b927dcd2342b310cb6312ad10700006a47304402206eca49057b3ad2ddb474258a60007fa2513655effef888365f9409e8a1a6af730220018be51c864c6bbed88d14d06d5c946a88b2b087941ce68ab9ec4b1c14841d910121020dab0195d97a943b9f0292f9649cd17875f404512785d91546906a0d04ad440efffffffff5b3f9802b15373ea0a8e22e3f748cef62e6256ea067e84b4cbc827461a71c37d20700006b483045022100bcd6ed96f07b0ffa2793e513b1fb65d370b99de366130036242a82d2b10a176002204d91710cd6e07bff446562b8e561a084bb431e0a7d493ac5db130fd5302d78470121020dab0195d97a943b9f0292f9649cd17875f404512785d91546906a0d04ad440effffffffc3365badf9f5be7c9695ada3f0eeec6b1c46db8c1392804d211d9c33090eb268cf0700006a47304402200a7ae12764cc3651def31350a2139b2e2a9cd917ff2316f69757b6b6d7a0353302201a4828da45bdaf6bd99e5782304a52a9c58d37ba768aa9b7aa8bdd0fff8301be0121020dab0195d97a943b9f0292f9649cd17875f404512785d91546906a0d04ad440effffffff026f96f70b000000001976a914612f026da151d2ab569a92ec41c23c0a0aec554788ac4cc53000000000001976a914ea1c8fae1a6f1a90508ab9a3922ee85256ee04d388ac00000000"
    }, 
    {
      "txid": "cbe39feba0542f70ac4e4c181c03fd3b2aa68c184ab1535b305c0229dc616b49",
      "hash": "cbe39feba0542f70ac4e4c181c03fd3b2aa68c184ab1535b305c0229dc616b49",
      "version": 1,
      "size": 336,
      "vsize": 336,
      "locktime": 0,
      "vin": [
        {
          "txid": "a462797144197d3b7a32f4c8fd1ddb0e8cc0a105a7db639dc52c38930582c6f7",
          "vout": 1,
          "scriptSig": {
            "asm": "0 3045022100b8c00e7b02b5652531676378d63424bf6d580c6cac860616a7ad7fa286c8c3f402201ec9c5ed8ec2647a62251ac3d67272ec4e0658bfe847f22745ad0d85a1bfa9d6[ALL] 3045022100c9c8a23aa938569ca1b125ca0d7a983d868aa3dcd5c1127d99ad76ff02082eb2022072031ff8e17ec0054e5fd877423a42123df9fd97da6442af742f3e1d52a580bb[ALL] 522102f77ec37a042ba4e5e6aef7760398bf59b87ac4c5dee30a2fb8798e9630d4916e210276b93401dc495b28592f66411a7c9093b468f8678db51144fc6a36f550d94aa952ae",
            "hex": "00483045022100b8c00e7b02b5652531676378d63424bf6d580c6cac860616a7ad7fa286c8c3f402201ec9c5ed8ec2647a62251ac3d67272ec4e0658bfe847f22745ad0d85a1bfa9d601483045022100c9c8a23aa938569ca1b125ca0d7a983d868aa3dcd5c1127d99ad76ff02082eb2022072031ff8e17ec0054e5fd877423a42123df9fd97da6442af742f3e1d52a580bb0147522102f77ec37a042ba4e5e6aef7760398bf59b87ac4c5dee30a2fb8798e9630d4916e210276b93401dc495b28592f66411a7c9093b468f8678db51144fc6a36f550d94aa952ae"
          },
          "sequence": 4294967295
        }
      ],
      "vout": [
        {
          "value": 0.08000200,
          "n": 0,
          "scriptPubKey": {
            "asm": "OP_DUP OP_HASH160 6f9195e06dea405c7b6214d4a9d14573663d6276 OP_EQUALVERIFY OP_CHECKSIG",
            "hex": "76a9146f9195e06dea405c7b6214d4a9d14573663d627688ac",
            "reqSigs": 1,
            "type": "pubkeyhash",
            "addresses": [
              "LVPsfxh2pjRgVsB92kC94gM2HetaeZ17uc"
            ]
          }
        }, 
        {
          "value": 0.12726100,
          "n": 1,
          "scriptPubKey": {
            "asm": "OP_HASH160 75b77316f8d91ff71fb2819115d1b6b9e80ccee9 OP_EQUAL",
            "hex": "a91475b77316f8d91ff71fb2819115d1b6b9e80ccee987",
            "reqSigs": 1,
            "type": "scripthash",
            "addresses": [
              "MJdb4B3BMDrfpB1FpKsPYQ1tDHdkNa1oLB"
            ]
          }
        }
      ],
      "hex": "0100000001f7c6820593382cc59d63dba705a1c08c0edb1dfdc8f4327a3b7d1944717962a401000000db00483045022100b8c00e7b02b5652531676378d63424bf6d580c6cac860616a7ad7fa286c8c3f402201ec9c5ed8ec2647a62251ac3d67272ec4e0658bfe847f22745ad0d85a1bfa9d601483045022100c9c8a23aa938569ca1b125ca0d7a983d868aa3dcd5c1127d99ad76ff02082eb2022072031ff8e17ec0054e5fd877423a42123df9fd97da6442af742f3e1d52a580bb0147522102f77ec37a042ba4e5e6aef7760398bf59b87ac4c5dee30a2fb8798e9630d4916e210276b93401dc495b28592f66411a7c9093b468f8678db51144fc6a36f550d94aa952aeffffffff02c8127a00000000001976a9146f9195e06dea405c7b6214d4a9d14573663d627688ac542fc2000000000017a91475b77316f8d91ff71fb2819115d1b6b9e80ccee98700000000"
    }, 
    {
      "txid": "9f42a0377c3609f0d71bbd984057013efe410658509e36fc6803cb79002d867e",
      "hash": "9f42a0377c3609f0d71bbd984057013efe410658509e36fc6803cb79002d867e",
      "version": 1,
      "size": 668,
      "vsize": 668,
      "locktime": 0,
      "vin": [
        {
          "txid": "5210ce4dcaf276fd4622240aa1388f145c9e5895c19a2230b1a44df2c5cce38c",
          "vout": 0,
          "scriptSig": {
            "asm": "304502210095ca0bce00a4b15e503e4540b61cab5ae47d129e9867b48f3ff03f9a2e71d57f0220454272f13e22908980c4b8bff6650bcdfd7168c8b6db2ce4618146fb7346166a[ALL] 03007623278489490a7c0557bfdd117ed7cef1b442a112805b86f55a9a4a5235d0",
            "hex": "48304502210095ca0bce00a4b15e503e4540b61cab5ae47d129e9867b48f3ff03f9a2e71d57f0220454272f13e22908980c4b8bff6650bcdfd7168c8b6db2ce4618146fb7346166a012103007623278489490a7c0557bfdd117ed7cef1b442a112805b86f55a9a4a5235d0"
          },
          "sequence": 4294967295
        }, 
        {
          "txid": "b8a5dba43b812dcda9ffd0b880e9cdef2909336775684b016fedd37785e3841e",
          "vout": 1,
          "scriptSig": {
            "asm": "3044022052714263a266fe9aa555c62a49d37f07a5a0dcc6b2dfe09a0079b6ac9ed636d7022038a9dc149cf6b68b8aae8f5308f8fcd10afcebb00371cbbb9c81e04c5c490d95[ALL] 035635170036481201dca472e38c4394b6b032137e1b01998fc26a206772f102d8",
            "hex": "473044022052714263a266fe9aa555c62a49d37f07a5a0dcc6b2dfe09a0079b6ac9ed636d7022038a9dc149cf6b68b8aae8f5308f8fcd10afcebb00371cbbb9c81e04c5c490d950121035635170036481201dca472e38c4394b6b032137e1b01998fc26a206772f102d8"
          },
          "sequence": 4294967295
        }, 
        {
          "txid": "565757875b758259dec0c502e159eeec769ccd45f01c4893b7178caef66b81b2",
          "vout": 24,
          "scriptSig": {
            "asm": "3045022100cd674ea43bba0299e420e6a611dc39fd4c96ac3de8f43e64fdf86f1144e8279002204d14597a2022eced84a0703638a8849c9993c484770d8c4bbe65f3c61e3646fa[ALL] 0219d22231065447e9e22d022edaaadd379cc942649976e37f715c45c58fd34fcf",
            "hex": "483045022100cd674ea43bba0299e420e6a611dc39fd4c96ac3de8f43e64fdf86f1144e8279002204d14597a2022eced84a0703638a8849c9993c484770d8c4bbe65f3c61e3646fa01210219d22231065447e9e22d022edaaadd379cc942649976e37f715c45c58fd34fcf"
          },
          "sequence": 4294967295
        }, 
        {
          "txid": "a5e50fc5b9c4d6fc0e49ab1feb9a318a891ecf461f69769349e451e9fcd4a39c",
          "vout": 1,
          "scriptSig": {
            "asm": "3044022013c9b0661e0f24729be25f0b82cea398482de47b43956b6b5894ec23e6a5097402207626cc78c23d8a363cf10f734ce0af922c3929fe2c2fc1e40be685b63ed1b01f[ALL] 03a4b9fe96f15cee5ab3264300fb983cedb7e955cbe5d6a5c9eaeac97fe0129399",
            "hex": "473044022013c9b0661e0f24729be25f0b82cea398482de47b43956b6b5894ec23e6a5097402207626cc78c23d8a363cf10f734ce0af922c3929fe2c2fc1e40be685b63ed1b01f012103a4b9fe96f15cee5ab3264300fb983cedb7e955cbe5d6a5c9eaeac97fe0129399"
          },
          "sequence": 4294967295
        }
      ],
      "vout": [
        {
          "value": 0.01005338,
          "n": 0,
          "scriptPubKey": {
            "asm": "OP_DUP OP_HASH160 c943c923a286a7ef6bb89ff972a6dc438c7ee21f OP_EQUALVERIFY OP_CHECKSIG",
            "hex": "76a914c943c923a286a7ef6bb89ff972a6dc438c7ee21f88ac",
            "reqSigs": 1,
            "type": "pubkeyhash",
            "addresses": [
              "Lda9Hbyt3yWwCf4XvUoHbv5Vuxj2tzvrWN"
            ]
          }
        }, 
        {
          "value": 2.63630783,
          "n": 1,
          "scriptPubKey": {
            "asm": "OP_DUP OP_HASH160 2b68595438b25c4e48aca237d09f4ff78cf2c3d6 OP_EQUALVERIFY OP_CHECKSIG",
            "hex": "76a9142b68595438b25c4e48aca237d09f4ff78cf2c3d688ac",
            "reqSigs": 1,
            "type": "pubkeyhash",
            "addresses": [
              "LPBUKkeGNXouHyi4pE7d1gdxzMHYsFsgFA"
            ]
          }
        }
      ],
      "hex": "01000000048ce3ccc5f24da4b130229ac195589e5c148f38a10a242246fd76f2ca4dce1052000000006b48304502210095ca0bce00a4b15e503e4540b61cab5ae47d129e9867b48f3ff03f9a2e71d57f0220454272f13e22908980c4b8bff6650bcdfd7168c8b6db2ce4618146fb7346166a012103007623278489490a7c0557bfdd117ed7cef1b442a112805b86f55a9a4a5235d0ffffffff1e84e38577d3ed6f014b687567330929efcde980b8d0ffa9cd2d813ba4dba5b8010000006a473044022052714263a266fe9aa555c62a49d37f07a5a0dcc6b2dfe09a0079b6ac9ed636d7022038a9dc149cf6b68b8aae8f5308f8fcd10afcebb00371cbbb9c81e04c5c490d950121035635170036481201dca472e38c4394b6b032137e1b01998fc26a206772f102d8ffffffffb2816bf6ae8c17b793481cf045cd9c76ecee59e102c5c0de5982755b87575756180000006b483045022100cd674ea43bba0299e420e6a611dc39fd4c96ac3de8f43e64fdf86f1144e8279002204d14597a2022eced84a0703638a8849c9993c484770d8c4bbe65f3c61e3646fa01210219d22231065447e9e22d022edaaadd379cc942649976e37f715c45c58fd34fcfffffffff9ca3d4fce951e4499376691f46cf1e898a319aeb1fab490efcd6c4b9c50fe5a5010000006a473044022013c9b0661e0f24729be25f0b82cea398482de47b43956b6b5894ec23e6a5097402207626cc78c23d8a363cf10f734ce0af922c3929fe2c2fc1e40be685b63ed1b01f012103a4b9fe96f15cee5ab3264300fb983cedb7e955cbe5d6a5c9eaeac97fe0129399ffffffff021a570f00000000001976a914c943c923a286a7ef6bb89ff972a6dc438c7ee21f88acbfafb60f000000001976a9142b68595438b25c4e48aca237d09f4ff78cf2c3d688ac00000000"
    }, 
    {
      "txid": "8138652e573276d7c132c22ce317d28157e503f13ecf4b4a0cbf0d7dbecd8b4b",
      "hash": "8138652e573276d7c132c22ce317d28157e503f13ecf4b4a0cbf0d7dbecd8b4b",
      "version": 2,
      "size": 337,
      "vsize": 337,
      "locktime": 0,
      "vin": [
        {
          "txid": "6a8d20601b891d4955a6d22c4cef417a56541337d32d6a17f74071415ed4ae95",
          "vout": 1,
          "scriptSig": {
            "asm": "3045022100f121900f076abfb1f057a87ab090e9ab2fd39a30d1842119400fcd29303922cd022078230adf4ceec2400dc45d9e37b72c56ddc3dcf090d61af3906dcca773334f96[ALL] 025f7251852c14c1291d14966e2d011d812262e24c724add5afcd0a397fdb02fe8",
            "hex": "483045022100f121900f076abfb1f057a87ab090e9ab2fd39a30d1842119400fcd29303922cd022078230adf4ceec2400dc45d9e37b72c56ddc3dcf090d61af3906dcca773334f960121025f7251852c14c1291d14966e2d011d812262e24c724add5afcd0a397fdb02fe8"
          },
          "sequence": 4294967295
        }, 
        {
          "txid": "6a8d20601b891d4955a6d22c4cef417a56541337d32d6a17f74071415ed4ae95",
          "vout": 4,
          "scriptSig": {
            "asm": "304402205c699af9267e10d105d68141e38f891c5807f66a5ffc7ff63dd67aedbd3305c702203730ab621a6caa0b56ef69bc5ba9acdead88289d7543a981b79270f2aac372f0[ALL] 024ee9796a814faea351a9812f3587886b746e98c1f27cdf3ccbc326a649c28bc5",
            "hex": "47304402205c699af9267e10d105d68141e38f891c5807f66a5ffc7ff63dd67aedbd3305c702203730ab621a6caa0b56ef69bc5ba9acdead88289d7543a981b79270f2aac372f00121024ee9796a814faea351a9812f3587886b746e98c1f27cdf3ccbc326a649c28bc5"
          },
          "sequence": 4294967295
        }
      ],
      "vout": [
        {
          "value": 0.86900000,
          "n": 0,
          "scriptPubKey": {
            "asm": "OP_HASH160 2cd426fe7d18e7e8d20a9af1e578c3bbb087e3ad OP_EQUAL",
            "hex": "a9142cd426fe7d18e7e8d20a9af1e578c3bbb087e3ad87",
            "reqSigs": 1,
            "type": "scripthash",
            "addresses": [
              "MBzC7UMNEUDRJJWAuZxt3KbbDm8SZ2vqZA"
            ]
          }
        }
      ],
      "hex": "020000000295aed45e417140f7176a2dd3371354567a41ef4c2cd2a655491d891b60208d6a010000006b483045022100f121900f076abfb1f057a87ab090e9ab2fd39a30d1842119400fcd29303922cd022078230adf4ceec2400dc45d9e37b72c56ddc3dcf090d61af3906dcca773334f960121025f7251852c14c1291d14966e2d011d812262e24c724add5afcd0a397fdb02fe8ffffffff95aed45e417140f7176a2dd3371354567a41ef4c2cd2a655491d891b60208d6a040000006a47304402205c699af9267e10d105d68141e38f891c5807f66a5ffc7ff63dd67aedbd3305c702203730ab621a6caa0b56ef69bc5ba9acdead88289d7543a981b79270f2aac372f00121024ee9796a814faea351a9812f3587886b746e98c1f27cdf3ccbc326a649c28bc5ffffffff0120fd2d050000000017a9142cd426fe7d18e7e8d20a9af1e578c3bbb087e3ad8700000000"
    }, 
    {
      "txid": "89ac70372bfc0cee88e1728d5d8840359eb3894d3e7af67b8ebb62a57a0bcda8",
      "hash": "89ac70372bfc0cee88e1728d5d8840359eb3894d3e7af67b8ebb62a57a0bcda8",
      "version": 2,
      "size": 521,
      "vsize": 521,
      "locktime": 0,
      "vin": [
        {
          "txid": "2639f157f6ea1e9eae8573551fe9cc58ec985fe0f3952a71a99e1f6060d0f834",
          "vout": 1,
          "scriptSig": {
            "asm": "304402201c6740a41981233354bc4a18ac0bbabf5c7002da45879c48978cadb128b73f2a0220480d914116ff0a927e76a317131465e9c4d0d5ad79679be8754d65d3410f1262[ALL] 025fa8320b764fd7f54db5016c0427aef49f4327700198cfb8384a38446852bb9b",
            "hex": "47304402201c6740a41981233354bc4a18ac0bbabf5c7002da45879c48978cadb128b73f2a0220480d914116ff0a927e76a317131465e9c4d0d5ad79679be8754d65d3410f12620121025fa8320b764fd7f54db5016c0427aef49f4327700198cfb8384a38446852bb9b"
          },
          "sequence": 4294967295
        }, 
        {
          "txid": "9a65f70b4aaac9a49388f6c62f23b4414c3fbd40086aaca11f249192321d1209",
          "vout": 0,
          "scriptSig": {
            "asm": "3045022100d08d9f37d48b7ca02c277495bb0b46b4ca484a429f47085917e81ef40790e6ac02202a62d6a4f3efc0560ccec42dcbe583901cb7a3fae57e290a3addce78c503d861[ALL] 025fa8320b764fd7f54db5016c0427aef49f4327700198cfb8384a38446852bb9b",
            "hex": "483045022100d08d9f37d48b7ca02c277495bb0b46b4ca484a429f47085917e81ef40790e6ac02202a62d6a4f3efc0560ccec42dcbe583901cb7a3fae57e290a3addce78c503d8610121025fa8320b764fd7f54db5016c0427aef49f4327700198cfb8384a38446852bb9b"
          },
          "sequence": 4294967295
        }, 
        {
          "txid": "b03de61acd89e7fb2957471d45fbfb26fd43b23de8b39273ddecac0780ed7215",
          "vout": 1,
          "scriptSig": {
            "asm": "3045022100ef9cbb8476068e16762d4d6b7a31133d59f622f60a2482c3bae0f3dc37a872a7022059e47a0b3523afc43d5501ccea63c2dedce1d2fb9ce0342ef60cb9c66e925a7b[ALL] 025fa8320b764fd7f54db5016c0427aef49f4327700198cfb8384a38446852bb9b",
            "hex": "483045022100ef9cbb8476068e16762d4d6b7a31133d59f622f60a2482c3bae0f3dc37a872a7022059e47a0b3523afc43d5501ccea63c2dedce1d2fb9ce0342ef60cb9c66e925a7b0121025fa8320b764fd7f54db5016c0427aef49f4327700198cfb8384a38446852bb9b"
          },
          "sequence": 4294967295
        }
      ],
      "vout": [
        {
          "value": 0.81477784,
          "n": 0,
          "scriptPubKey": {
            "asm": "OP_DUP OP_HASH160 eab0488842a0b5117021faada016121bda59ca15 OP_EQUALVERIFY OP_CHECKSIG",
            "hex": "76a914eab0488842a0b5117021faada016121bda59ca1588ac",
            "reqSigs": 1,
            "type": "pubkeyhash",
            "addresses": [
              "LgcsZUtvqjRCBLfDCZGdm9zXBSMNLijfDM"
            ]
          }
        }, 
        {
          "value": 0.00577234,
          "n": 1,
          "scriptPubKey": {
            "asm": "OP_DUP OP_HASH160 68019ba2a24b85839705d0b358f12fef4eeaac56 OP_EQUALVERIFY OP_CHECKSIG",
            "hex": "76a91468019ba2a24b85839705d0b358f12fef4eeaac5688ac",
            "reqSigs": 1,
            "type": "pubkeyhash",
            "addresses": [
              "LUhtTtKqLrmngVcryy1kbfS69JaMppH8xM"
            ]
          }
        }
      ],
      "hex": "020000000334f8d060601f9ea9712a95f3e05f98ec58cce91f557385ae9e1eeaf657f13926010000006a47304402201c6740a41981233354bc4a18ac0bbabf5c7002da45879c48978cadb128b73f2a0220480d914116ff0a927e76a317131465e9c4d0d5ad79679be8754d65d3410f12620121025fa8320b764fd7f54db5016c0427aef49f4327700198cfb8384a38446852bb9bffffffff09121d329291241fa1ac6a0840bd3f4c41b4232fc6f68893a4c9aa4a0bf7659a000000006b483045022100d08d9f37d48b7ca02c277495bb0b46b4ca484a429f47085917e81ef40790e6ac02202a62d6a4f3efc0560ccec42dcbe583901cb7a3fae57e290a3addce78c503d8610121025fa8320b764fd7f54db5016c0427aef49f4327700198cfb8384a38446852bb9bffffffff1572ed8007acecdd7392b3e83db243fd26fbfb451d475729fbe789cd1ae63db0010000006b483045022100ef9cbb8476068e16762d4d6b7a31133d59f622f60a2482c3bae0f3dc37a872a7022059e47a0b3523afc43d5501ccea63c2dedce1d2fb9ce0342ef60cb9c66e925a7b0121025fa8320b764fd7f54db5016c0427aef49f4327700198cfb8384a38446852bb9bffffffff029840db04000000001976a914eab0488842a0b5117021faada016121bda59ca1588acd2ce0800000000001976a91468019ba2a24b85839705d0b358f12fef4eeaac5688ac00000000"
    }, 
    {
      "txid": "fdc9eb70d68e4d62e722654f564b7cbadfc6e731adcd8e552ce22d8833762130",
      "hash": "fdc9eb70d68e4d62e722654f564b7cbadfc6e731adcd8e552ce22d8833762130",
      "version": 1,
      "size": 191,
      "vsize": 191,
      "locktime": 0,
      "vin": [
        {
          "txid": "43f2c7b559fb9537e3416f663c569d7a186238d202a083e714a1aa830247b4d7",
          "vout": 0,
          "scriptSig": {
            "asm": "3044022009edc5ec3137cab3a6773f659de9c9f893aecaa7c2a37a0dbac3e3f7c0761e3d0220106d2f4f1ce6ec098e78daef93b84047d8660cfa6b4be7a8e8063e5d758dfaf1[ALL] 03e49bce7e51212aba2960f820dfe89501fe9eb96fdf88de52ebf3127205849896",
            "hex": "473044022009edc5ec3137cab3a6773f659de9c9f893aecaa7c2a37a0dbac3e3f7c0761e3d0220106d2f4f1ce6ec098e78daef93b84047d8660cfa6b4be7a8e8063e5d758dfaf1012103e49bce7e51212aba2960f820dfe89501fe9eb96fdf88de52ebf3127205849896"
          },
          "sequence": 4294967295
        }
      ],
      "vout": [
        {
          "value": 223.50040104,
          "n": 0,
          "scriptPubKey": {
            "asm": "OP_DUP OP_HASH160 072eb7b13e54564bf8034bf6418f360fa8dcdf6d OP_EQUALVERIFY OP_CHECKSIG",
            "hex": "76a914072eb7b13e54564bf8034bf6418f360fa8dcdf6d88ac",
            "reqSigs": 1,
            "type": "pubkeyhash",
            "addresses": [
              "LKsvxYjgJf29txiWfasaJC2CgNL2MY3gfE"
            ]
          }
        }
      ],
      "hex": "0100000001d7b4470283aaa114e783a002d23862187a9d563c666f41e33795fb59b5c7f243000000006a473044022009edc5ec3137cab3a6773f659de9c9f893aecaa7c2a37a0dbac3e3f7c0761e3d0220106d2f4f1ce6ec098e78daef93b84047d8660cfa6b4be7a8e8063e5d758dfaf1012103e49bce7e51212aba2960f820dfe89501fe9eb96fdf88de52ebf3127205849896ffffffff01288c2a34050000001976a914072eb7b13e54564bf8034bf6418f360fa8dcdf6d88ac00000000"
    }, 
    {
      "txid": "e0b4cd0a92193c5cf2438d8c63507f67a26e9246e53c94c5d8688f207656bbbd",
      "hash": "e0b4cd0a92193c5cf2438d8c63507f67a26e9246e53c94c5d8688f207656bbbd",
      "version": 2,
      "size": 223,
      "vsize": 223,
      "locktime": 1359181,
      "vin": [
        {
          "txid": "adfda4a9daae4e2aa9267cdbd2b83c5c69f8a39eff19ad5982798392cc081579",
          "vout": 1,
          "scriptSig": {
            "asm": "304402203c543462028af11c5c900eeeac02de98be7daeb3960c89373d576537f0eeadb802206dfc42851fa50f12c34db9e5b6c654cee7a7cdfb8bf2342fa48710f0b0b68935[ALL] 035407b2f5417359bbe8b7a8070d0805cd2655a8a6c4cc98fbd2fa3e0cdaaf4c01",
            "hex": "47304402203c543462028af11c5c900eeeac02de98be7daeb3960c89373d576537f0eeadb802206dfc42851fa50f12c34db9e5b6c654cee7a7cdfb8bf2342fa48710f0b0b689350121035407b2f5417359bbe8b7a8070d0805cd2655a8a6c4cc98fbd2fa3e0cdaaf4c01"
          },
          "sequence": 4294967294
        }
      ],
      "vout": [
        {
          "value": 0.12399674,
          "n": 0,
          "scriptPubKey": {
            "asm": "OP_HASH160 8d4648dd68f45fe15003998f202afcda072b8aab OP_EQUAL",
            "hex": "a9148d4648dd68f45fe15003998f202afcda072b8aab87",
            "reqSigs": 1,
            "type": "scripthash",
            "addresses": [
              "MLn9hwTzUAP1E3mMB3YVSDhZXFzXbZgjY3"
            ]
          }
        }, 
        {
          "value": 0.09036078,
          "n": 1,
          "scriptPubKey": {
            "asm": "OP_DUP OP_HASH160 f1dcc9b05203fddbcdb02c988fcd85e898e61358 OP_EQUALVERIFY OP_CHECKSIG",
            "hex": "76a914f1dcc9b05203fddbcdb02c988fcd85e898e6135888ac",
            "reqSigs": 1,
            "type": "pubkeyhash",
            "addresses": [
              "LhGoc41SPQhf85MqS2VADLmZ44vMb1oZpR"
            ]
          }
        }
      ],
      "hex": "0200000001791508cc9283798259ad19ff9ea3f8695c3cb8d2db7c26a92a4eaedaa9a4fdad010000006a47304402203c543462028af11c5c900eeeac02de98be7daeb3960c89373d576537f0eeadb802206dfc42851fa50f12c34db9e5b6c654cee7a7cdfb8bf2342fa48710f0b0b689350121035407b2f5417359bbe8b7a8070d0805cd2655a8a6c4cc98fbd2fa3e0cdaaf4c01feffffff023a34bd000000000017a9148d4648dd68f45fe15003998f202afcda072b8aab872ee18900000000001976a914f1dcc9b05203fddbcdb02c988fcd85e898e6135888ac4dbd1400"
    }, 
    {
      "txid": "23e0946861b5cdf20897cb4ab2085fd3492a65efb2bd425d97460b01c9110e72",
      "hash": "23e0946861b5cdf20897cb4ab2085fd3492a65efb2bd425d97460b01c9110e72",
      "version": 1,
      "size": 225,
      "vsize": 225,
      "locktime": 0,
      "vin": [
        {
          "txid": "b0e1e688e0856c18a7309c97a2f34597c39ab08ee1f82d0a05ac60ed90d4daf9",
          "vout": 1,
          "scriptSig": {
            "asm": "304402205b0c4136be5fe12ee31ca08e5c93bcbae888c6c6fbbe3f2fdc2f615628310047022007ee5bd404d3e5a6f803295ef6f1d61524b935efa080273f6276e0a2b767fcc6[ALL] 039873f95c75c5093867807aded79c9113b9ed4e249aed4314e48f63431b283c9d",
            "hex": "47304402205b0c4136be5fe12ee31ca08e5c93bcbae888c6c6fbbe3f2fdc2f615628310047022007ee5bd404d3e5a6f803295ef6f1d61524b935efa080273f6276e0a2b767fcc60121039873f95c75c5093867807aded79c9113b9ed4e249aed4314e48f63431b283c9d"
          },
          "sequence": 4294967295
        }
      ],
      "vout": [
        {
          "value": 1.50686275,
          "n": 0,
          "scriptPubKey": {
            "asm": "OP_DUP OP_HASH160 bb4ca8f298becc865a4ad12a0456e2ff1678f2e4 OP_EQUALVERIFY OP_CHECKSIG",
            "hex": "76a914bb4ca8f298becc865a4ad12a0456e2ff1678f2e488ac",
            "reqSigs": 1,
            "type": "pubkeyhash",
            "addresses": [
              "LcJJTWf3g5dzxdFDMbaSXTc66ZnnrWfKm1"
            ]
          }
        }, 
        {
          "value": 0.21864125,
          "n": 1,
          "scriptPubKey": {
            "asm": "OP_DUP OP_HASH160 fc532577a2ab7099330930728b4a0f41104819c0 OP_EQUALVERIFY OP_CHECKSIG",
            "hex": "76a914fc532577a2ab7099330930728b4a0f41104819c088ac",
            "reqSigs": 1,
            "type": "pubkeyhash",
            "addresses": [
              "LiE89fVNvUWi1vTK1ABzPHuM9sPdvtmTUY"
            ]
          }
        }
      ],
      "hex": "0100000001f9dad490ed60ac050a2df8e18eb09ac39745f3a2979c30a7186c85e088e6e1b0010000006a47304402205b0c4136be5fe12ee31ca08e5c93bcbae888c6c6fbbe3f2fdc2f615628310047022007ee5bd404d3e5a6f803295ef6f1d61524b935efa080273f6276e0a2b767fcc60121039873f95c75c5093867807aded79c9113b9ed4e249aed4314e48f63431b283c9dffffffff02434afb08000000001976a914bb4ca8f298becc865a4ad12a0456e2ff1678f2e488acbd9e4d01000000001976a914fc532577a2ab7099330930728b4a0f41104819c088ac00000000"
    }, 
    {
      "txid": "6282b2b45e297c668442e3a1e22678fef5f1f730840d28ccc16518aa384c90ad",
      "hash": "6282b2b45e297c668442e3a1e22678fef5f1f730840d28ccc16518aa384c90ad",
      "version": 1,
      "size": 225,
      "vsize": 225,
      "locktime": 0,
      "vin": [
        {
          "txid": "ee3bed28bd65dc6355b177beedc64dae8f104b586b280f680b4b37d037aeaed6",
          "vout": 1,
          "scriptSig": {
            "asm": "30440220286b71161d2c3962b4a8a9f5202b50397ef4d84032d2d898df79a8f312853c1c02207e6433aaea60796309c1dc07a766778a7fd29ca66e4214cee5741693a73f54e1[ALL] 03060a4adfdf6a3f5492cb1ba658975664a28972ca936418ab4a143016ee52f339",
            "hex": "4730440220286b71161d2c3962b4a8a9f5202b50397ef4d84032d2d898df79a8f312853c1c02207e6433aaea60796309c1dc07a766778a7fd29ca66e4214cee5741693a73f54e1012103060a4adfdf6a3f5492cb1ba658975664a28972ca936418ab4a143016ee52f339"
          },
          "sequence": 4294967295
        }
      ],
      "vout": [
        {
          "value": 2.99938972,
          "n": 0,
          "scriptPubKey": {
            "asm": "OP_DUP OP_HASH160 bb6198d8f06b46bab5c36d93adf7edfeb688f357 OP_EQUALVERIFY OP_CHECKSIG",
            "hex": "76a914bb6198d8f06b46bab5c36d93adf7edfeb688f35788ac",
            "reqSigs": 1,
            "type": "pubkeyhash",
            "addresses": [
              "LcJjYFLHQB7qzcHRNVgyw6g8wLpvueeFfs"
            ]
          }
        }, 
        {
          "value": 0.10530978,
          "n": 1,
          "scriptPubKey": {
            "asm": "OP_DUP OP_HASH160 5757064176fd11f56e2277b0c250f7e78dbbfee7 OP_EQUALVERIFY OP_CHECKSIG",
            "hex": "76a9145757064176fd11f56e2277b0c250f7e78dbbfee788ac",
            "reqSigs": 1,
            "type": "pubkeyhash",
            "addresses": [
              "LTBmJTzEMDXGqHtTrrV9Vad42zXN2Xaj1K"
            ]
          }
        }
      ],
      "hex": "0100000001d6aeae37d0374b0b680f286b584b108fae4dc6edbe77b15563dc65bd28ed3bee010000006a4730440220286b71161d2c3962b4a8a9f5202b50397ef4d84032d2d898df79a8f312853c1c02207e6433aaea60796309c1dc07a766778a7fd29ca66e4214cee5741693a73f54e1012103060a4adfdf6a3f5492cb1ba658975664a28972ca936418ab4a143016ee52f339ffffffff029cb4e011000000001976a914bb6198d8f06b46bab5c36d93adf7edfeb688f35788aca2b0a000000000001976a9145757064176fd11f56e2277b0c250f7e78dbbfee788ac00000000"
    }, 
    {
      "txid": "b862c64a81171c3d9a089f55015c710bbe7727a13fc7267c6563bf44e5d5c537",
      "hash": "b862c64a81171c3d9a089f55015c710bbe7727a13fc7267c6563bf44e5d5c537",
      "version": 1,
      "size": 226,
      "vsize": 226,
      "locktime": 0,
      "vin": [
        {
          "txid": "b682036730de9e918e8c4f0c5c6eae4b087ce641e169d451333ed5f7103f4dbb",
          "vout": 2008,
          "scriptSig": {
            "asm": "3045022100d824d8e8256732d4a6b94f845ab37c524edd60170dca097d785bbf497206123902207ecfa9ab3dddd0bd731afdc2bdce27b7a872b81468b278afaae5d4e2d13e121b[ALL] 0236350935a301747b564dbcf026e1e41b8321b3ff61e99daac7912a41e5e9c502",
            "hex": "483045022100d824d8e8256732d4a6b94f845ab37c524edd60170dca097d785bbf497206123902207ecfa9ab3dddd0bd731afdc2bdce27b7a872b81468b278afaae5d4e2d13e121b01210236350935a301747b564dbcf026e1e41b8321b3ff61e99daac7912a41e5e9c502"
          },
          "sequence": 4294967295
        }
      ],
      "vout": [
        {
          "value": 0.00477400,
          "n": 0,
          "scriptPubKey": {
            "asm": "OP_DUP OP_HASH160 8449ff5542b5696db4316344440c434ba4474d1a OP_EQUALVERIFY OP_CHECKSIG",
            "hex": "76a9148449ff5542b5696db4316344440c434ba4474d1a88ac",
            "reqSigs": 1,
            "type": "pubkeyhash",
            "addresses": [
              "LXHS6xrJhNY3YiBySUV9miXAN1p6qvkEG8"
            ]
          }
        }, 
        {
          "value": 0.00056748,
          "n": 1,
          "scriptPubKey": {
            "asm": "OP_DUP OP_HASH160 1693a27e7646f857c042035342a8cd8be0862da8 OP_EQUALVERIFY OP_CHECKSIG",
            "hex": "76a9141693a27e7646f857c042035342a8cd8be0862da888ac",
            "reqSigs": 1,
            "type": "pubkeyhash",
            "addresses": [
              "LMHKzGuMN89N2kaCDpTBSZRc64ECYyVq13"
            ]
          }
        }
      ],
      "hex": "0100000001bb4d3f10f7d53e3351d469e141e67c084bae6e5c0c4f8c8e919ede30670382b6d80700006b483045022100d824d8e8256732d4a6b94f845ab37c524edd60170dca097d785bbf497206123902207ecfa9ab3dddd0bd731afdc2bdce27b7a872b81468b278afaae5d4e2d13e121b01210236350935a301747b564dbcf026e1e41b8321b3ff61e99daac7912a41e5e9c502ffffffff02d8480700000000001976a9148449ff5542b5696db4316344440c434ba4474d1a88acacdd0000000000001976a9141693a27e7646f857c042035342a8cd8be0862da888ac00000000"
    }
  ],
  "time": 1517247700,
  "mediantime": 1517247303,
  "nonce": 138430844,
  "bits": "1a042eae",
  "difficulty": 4011378.762614286,
  "chainwork": "000000000000000000000000000000000000000000000033c40c99f3465dd61e",
  "previousblockhash": "91d5a657f8a9ac9fbaebd0bfcb8762c3690a2a34d4664d61ed6087231b6dc54e",
  "nextblockhash": "18b0124dbc47b6882b7918e8a1932b73db86eb5c262b1be192a2cda37a8756f0"
}
