{
  "hash": "595fcbee182abb04122bedf8f75235eb39d6283a55e6f25a0b94ef33d69e5cba",
  "confirmations": 2664,
  "strippedsize": 234,
  "size": 234,
  "weight": 936,
  "height": 1358331,
  "version": 536870912,
  "versionHex": "20000000",
  "merkleroot": "51e318142675caf9c511372e814ced547f978980e1bc02a5be95854c103e259d",
  "tx": [
    {
      "txid": "51e318142675caf9c511372e814ced547f978980e1bc02a5be95854c103e259d",
      "hash": "51e318142675caf9c511372e814ced547f978980e1bc02a5be95854c103e259d",
      "version": 1,
      "size": 153,
      "vsize": 153,
      "locktime": 0,
      "vin": [
        {
          "coinbase": "03fbb914045a6d84e32cfabe6d6d2b8cdf704ff9bb90136ab9a1d4942d03719e524f811205cebdaebf21e83a82a44000000000000000042f4c502f085c00397321000000",
          "sequence": 4294967295
        }
      ],
      "vout": [
        {
          "value": 25.00000000,
          "n": 0,
          "scriptPubKey": {
            "asm": "OP_DUP OP_HASH160 57757ed2ecf2052ff3126c397aca7defb9ca2cec OP_EQUALVERIFY OP_CHECKSIG",
            "hex": "76a91457757ed2ecf2052ff3126c397aca7defb9ca2cec88ac",
            "reqSigs": 1,
            "type": "pubkeyhash",
            "addresses": [
              "LTCPodGk5FwcJaRzH9yKnwicxzFUbxp6tN"
            ]
          }
        }
      ],
      "hex": "01000000010000000000000000000000000000000000000000000000000000000000000000ffffffff4403fbb914045a6d84e32cfabe6d6d2b8cdf704ff9bb90136ab9a1d4942d03719e524f811205cebdaebf21e83a82a44000000000000000042f4c502f085c00397321000000ffffffff0100f90295000000001976a91457757ed2ecf2052ff3126c397aca7defb9ca2cec88ac00000000"
    }
  ],
  "time": 1517126883,
  "mediantime": 1517126411,
  "nonce": 4212823771,
  "bits": "1a047f14",
  "difficulty": 3731199.183374282,
  "chainwork": "000000000000000000000000000000000000000000000033001f8d990eef8698",
  "previousblockhash": "4f64a00a01995c2115c9f8c69435f1887cd8477000b97288f85bfa2884a3aa84",
  "nextblockhash": "d19dd93b2c218cabfda05202956e82d119386ebae56cdb8d6cabec0c4c75216f"
}
