{
  "hash": "59c435a0d81b294787eafd718bfc256a2191db8976b399d3dcf5013778c54aa8",
  "confirmations": 819,
  "strippedsize": 3611,
  "size": 3647,
  "weight": 14480,
  "height": 1360175,
  "version": 536870912,
  "versionHex": "20000000",
  "merkleroot": "a2c0ae196dac111b606287ddf1b78f92fab9bf6163262518e63eb94a4578a0bd",
  "tx": [
    {
      "txid": "9ca9b3fc6872c51d7a54aea30401ce6f12415530ac5fe995b42521fe1f157fcd",
      "hash": "d0926587f170dc7b82100eb15ce930e60c34e661f3bc3cafd3088466db56846c",
      "version": 1,
      "size": 240,
      "vsize": 213,
      "locktime": 0,
      "vin": [
        {
          "coinbase": "032fc11404c076715a0803c46e2703000000fabe6d6d7e81daec794175a5a9bf9fc06a4f1270edcae361aa4bb032fa7358f9814dd6264000000000000000092f4c54432e544f502f",
          "sequence": 0
        }
      ],
      "vout": [
        {
          "value": 25.00510800,
          "n": 0,
          "scriptPubKey": {
            "asm": "OP_DUP OP_HASH160 0c617fdb2ea42aed30a509595ee21ba3f6688db0 OP_EQUALVERIFY OP_CHECKSIG",
            "hex": "76a9140c617fdb2ea42aed30a509595ee21ba3f6688db088ac",
            "reqSigs": 1,
            "type": "pubkeyhash",
            "addresses": [
              "LLMRAtr3qBje2ySEa3CnZ55LA4TQMWnRY3"
            ]
          }
        }, 
        {
          "value": 0.00000000,
          "n": 1,
          "scriptPubKey": {
            "asm": "OP_RETURN aa21a9edd1a09b4bddad4355efcea48cdb71058b84a6ba39783ba274d82ca80860734d66",
            "hex": "6a24aa21a9edd1a09b4bddad4355efcea48cdb71058b84a6ba39783ba274d82ca80860734d66",
            "type": "nulldata"
          }
        }
      ],
      "hex": "010000000001010000000000000000000000000000000000000000000000000000000000000000ffffffff48032fc11404c076715a0803c46e2703000000fabe6d6d7e81daec794175a5a9bf9fc06a4f1270edcae361aa4bb032fa7358f9814dd6264000000000000000092f4c54432e544f502f000000000250c40a95000000001976a9140c617fdb2ea42aed30a509595ee21ba3f6688db088ac0000000000000000266a24aa21a9edd1a09b4bddad4355efcea48cdb71058b84a6ba39783ba274d82ca80860734d660120000000000000000000000000000000000000000000000000000000000000000000000000"
    }, 
    {
      "txid": "61a8203cbea8a0ebaaaa280b5ffddf30bb738ecd32f93d2cdca486fcfbc09753",
      "hash": "61a8203cbea8a0ebaaaa280b5ffddf30bb738ecd32f93d2cdca486fcfbc09753",
      "version": 1,
      "size": 336,
      "vsize": 336,
      "locktime": 0,
      "vin": [
        {
          "txid": "a39cba9780b08c7dd97ffb42b371ce6dbfe1134d0adc399cb650a69c70c1b717",
          "vout": 1,
          "scriptSig": {
            "asm": "0 3045022100c5e9ec28914c74b6d61e96e0c4abf941b918d75f2dd381c7777bb36e56506eea022007186db937779c7dd0cbd4a07340596ef6e82fc4a8fae20444d0fec17d02f055[ALL] 30450221009841f5833eb78e3ce2be56b2f27630db5456d282d4d79a1cd6af4214aa4054ce02206422072149d2c5db2734a80590fd3ec21722a528a1f8123bcbdd6ea7893f7670[ALL] 522102a618de23e72ad0b9e998bb2921f510cb4e078dcfe13c48cae85fec0587718f78210235de611525feac0afecdd7faefde5b645b007e2de1e7e9477ff773a9529a435e52ae",
            "hex": "00483045022100c5e9ec28914c74b6d61e96e0c4abf941b918d75f2dd381c7777bb36e56506eea022007186db937779c7dd0cbd4a07340596ef6e82fc4a8fae20444d0fec17d02f055014830450221009841f5833eb78e3ce2be56b2f27630db5456d282d4d79a1cd6af4214aa4054ce02206422072149d2c5db2734a80590fd3ec21722a528a1f8123bcbdd6ea7893f76700147522102a618de23e72ad0b9e998bb2921f510cb4e078dcfe13c48cae85fec0587718f78210235de611525feac0afecdd7faefde5b645b007e2de1e7e9477ff773a9529a435e52ae"
          },
          "sequence": 4294967295
        }
      ],
      "vout": [
        {
          "value": 0.10612895,
          "n": 0,
          "scriptPubKey": {
            "asm": "OP_DUP OP_HASH160 d186f12455e258e784e3de119c4ddad766c1bf64 OP_EQUALVERIFY OP_CHECKSIG",
            "hex": "76a914d186f12455e258e784e3de119c4ddad766c1bf6488ac",
            "reqSigs": 1,
            "type": "pubkeyhash",
            "addresses": [
              "LeKq9EimUUeYGCJQVHoa9jdbnfMTGJxuXi"
            ]
          }
        }, 
        {
          "value": 22.30116561,
          "n": 1,
          "scriptPubKey": {
            "asm": "OP_HASH160 8bfc0bc6105a628bd82effe05523aea40f0eb873 OP_EQUAL",
            "hex": "a9148bfc0bc6105a628bd82effe05523aea40f0eb87387",
            "reqSigs": 1,
            "type": "scripthash",
            "addresses": [
              "MLfL6ZGHAz972E3kEmnAurRy8FnjCvjfab"
            ]
          }
        }
      ],
      "hex": "010000000117b7c1709ca650b69c39dc0a4d13e1bf6dce71b342fb7fd97d8cb08097ba9ca301000000db00483045022100c5e9ec28914c74b6d61e96e0c4abf941b918d75f2dd381c7777bb36e56506eea022007186db937779c7dd0cbd4a07340596ef6e82fc4a8fae20444d0fec17d02f055014830450221009841f5833eb78e3ce2be56b2f27630db5456d282d4d79a1cd6af4214aa4054ce02206422072149d2c5db2734a80590fd3ec21722a528a1f8123bcbdd6ea7893f76700147522102a618de23e72ad0b9e998bb2921f510cb4e078dcfe13c48cae85fec0587718f78210235de611525feac0afecdd7faefde5b645b007e2de1e7e9477ff773a9529a435e52aeffffffff029ff0a100000000001976a914d186f12455e258e784e3de119c4ddad766c1bf6488acd1e0ec840000000017a9148bfc0bc6105a628bd82effe05523aea40f0eb8738700000000"
    }, 
    {
      "txid": "302ad5e47b556deb3a69e5b34edbadcd58396c3d6a3a62e4c67efc8c6250bb6f",
      "hash": "302ad5e47b556deb3a69e5b34edbadcd58396c3d6a3a62e4c67efc8c6250bb6f",
      "version": 1,
      "size": 964,
      "vsize": 964,
      "locktime": 0,
      "vin": [
        {
          "txid": "873e8f4fab48579cbfec47e37d2b06fa0bd14f194af58574bcb18e352677d3d9",
          "vout": 46,
          "scriptSig": {
            "asm": "3045022100c31dd00a913c81aad3d56dca08357f1df1c0c8925cd3ee97e78bc198d2cfa69f022037ce274aabd6e799b1a0f4d96764d078ac96484b178e1b28ee05683d93fac64e[ALL] 034b5f5c9ce02e41b60f29f107bd2b1f282acda434cb3debd99cad921720d309ae",
            "hex": "483045022100c31dd00a913c81aad3d56dca08357f1df1c0c8925cd3ee97e78bc198d2cfa69f022037ce274aabd6e799b1a0f4d96764d078ac96484b178e1b28ee05683d93fac64e0121034b5f5c9ce02e41b60f29f107bd2b1f282acda434cb3debd99cad921720d309ae"
          },
          "sequence": 4294967295
        }, 
        {
          "txid": "9478cb11c0ccb9b2f12db894db024f44dbaa2fb9030b48d34acd8608622e8972",
          "vout": 56,
          "scriptSig": {
            "asm": "304402203a9805be1acadbbb3b7081c46eeaf3955a46e867fd24339d53f8655615ca88b5022057689345750645b01427fbb636dc8ac1fb89c74dc3ba7e6027901378df2a6973[ALL] 034b5f5c9ce02e41b60f29f107bd2b1f282acda434cb3debd99cad921720d309ae",
            "hex": "47304402203a9805be1acadbbb3b7081c46eeaf3955a46e867fd24339d53f8655615ca88b5022057689345750645b01427fbb636dc8ac1fb89c74dc3ba7e6027901378df2a69730121034b5f5c9ce02e41b60f29f107bd2b1f282acda434cb3debd99cad921720d309ae"
          },
          "sequence": 4294967295
        }, 
        {
          "txid": "2387592214e296a1f23d03e52762fe3dccf703f33aa099a55024129645be3c54",
          "vout": 40,
          "scriptSig": {
            "asm": "3045022100c685b2e7670fceae17e1925fbf7931742f59712f547f2a23291348e4619bf34702203224a6a15f2250bc56bce8e22ff948b865df3165f266e2dfe294189882796974[ALL] 034b5f5c9ce02e41b60f29f107bd2b1f282acda434cb3debd99cad921720d309ae",
            "hex": "483045022100c685b2e7670fceae17e1925fbf7931742f59712f547f2a23291348e4619bf34702203224a6a15f2250bc56bce8e22ff948b865df3165f266e2dfe2941898827969740121034b5f5c9ce02e41b60f29f107bd2b1f282acda434cb3debd99cad921720d309ae"
          },
          "sequence": 4294967295
        }, 
        {
          "txid": "0ccec5c72e29b0dbfb3195ddd85f5afbcd75aa6b4421da450f98db9d39394f6c",
          "vout": 53,
          "scriptSig": {
            "asm": "30450221008d171489596e3171a05f042e7a9a25e9fc6f00b26848dab2aab13f99f01bcad7022071e963fd0b3f169dc272a01be080621e5752ec88d80e8cd45cace9e2240c3e8b[ALL] 034b5f5c9ce02e41b60f29f107bd2b1f282acda434cb3debd99cad921720d309ae",
            "hex": "4830450221008d171489596e3171a05f042e7a9a25e9fc6f00b26848dab2aab13f99f01bcad7022071e963fd0b3f169dc272a01be080621e5752ec88d80e8cd45cace9e2240c3e8b0121034b5f5c9ce02e41b60f29f107bd2b1f282acda434cb3debd99cad921720d309ae"
          },
          "sequence": 4294967295
        }, 
        {
          "txid": "b9cd1679adc5824d6df2f135b23e97e4a77a82f960141a22f4c53dc23128bdf1",
          "vout": 50,
          "scriptSig": {
            "asm": "3044022021fc86d27a11e2bf18b45e010df7f256970789b4206cf69be8c144c82af11c4402201f1597de1fa045fc9e1350f2a9ddedf00cbd7a5864d98ef71404af4e440cc3aa[ALL] 034b5f5c9ce02e41b60f29f107bd2b1f282acda434cb3debd99cad921720d309ae",
            "hex": "473044022021fc86d27a11e2bf18b45e010df7f256970789b4206cf69be8c144c82af11c4402201f1597de1fa045fc9e1350f2a9ddedf00cbd7a5864d98ef71404af4e440cc3aa0121034b5f5c9ce02e41b60f29f107bd2b1f282acda434cb3debd99cad921720d309ae"
          },
          "sequence": 4294967295
        }, 
        {
          "txid": "6b43fb803f1f8fceed89b6d692068d5bed9b92043f15e879d46211e9da96df26",
          "vout": 43,
          "scriptSig": {
            "asm": "3045022100ed15b61c1d7a7d0a9337a22c16ed8cb2d62890902cfc84372df93cf69a514a9c022064dfe1b20b2a2df64b7c5f648c52df9f3ded982bf91d7395473f76b257adb24f[ALL] 034b5f5c9ce02e41b60f29f107bd2b1f282acda434cb3debd99cad921720d309ae",
            "hex": "483045022100ed15b61c1d7a7d0a9337a22c16ed8cb2d62890902cfc84372df93cf69a514a9c022064dfe1b20b2a2df64b7c5f648c52df9f3ded982bf91d7395473f76b257adb24f0121034b5f5c9ce02e41b60f29f107bd2b1f282acda434cb3debd99cad921720d309ae"
          },
          "sequence": 4294967295
        }
      ],
      "vout": [
        {
          "value": 0.56246869,
          "n": 0,
          "scriptPubKey": {
            "asm": "OP_DUP OP_HASH160 c204f7dc8f5af2f78389aaf66447e29818b54dfd OP_EQUALVERIFY OP_CHECKSIG",
            "hex": "76a914c204f7dc8f5af2f78389aaf66447e29818b54dfd88ac",
            "reqSigs": 1,
            "type": "pubkeyhash",
            "addresses": [
              "LcuqJdDufrvLPAQxUWr2A3CdYM5tNA3gsB"
            ]
          }
        }, 
        {
          "value": 0.09284356,
          "n": 1,
          "scriptPubKey": {
            "asm": "OP_DUP OP_HASH160 7bcadeca03af0d0972946f33a47b40dcd713028a OP_EQUALVERIFY OP_CHECKSIG",
            "hex": "76a9147bcadeca03af0d0972946f33a47b40dcd713028a88ac",
            "reqSigs": 1,
            "type": "pubkeyhash",
            "addresses": [
              "LWWWQUtT1wXM9VauwxEzdKvAL4FsJdLKsK"
            ]
          }
        }
      ],
      "hex": "0100000006d9d37726358eb1bc7485f54a194fd10bfa062b7de347ecbf9c5748ab4f8f3e872e0000006b483045022100c31dd00a913c81aad3d56dca08357f1df1c0c8925cd3ee97e78bc198d2cfa69f022037ce274aabd6e799b1a0f4d96764d078ac96484b178e1b28ee05683d93fac64e0121034b5f5c9ce02e41b60f29f107bd2b1f282acda434cb3debd99cad921720d309aeffffffff72892e620886cd4ad3480b03b92faadb444f02db94b82df1b2b9ccc011cb7894380000006a47304402203a9805be1acadbbb3b7081c46eeaf3955a46e867fd24339d53f8655615ca88b5022057689345750645b01427fbb636dc8ac1fb89c74dc3ba7e6027901378df2a69730121034b5f5c9ce02e41b60f29f107bd2b1f282acda434cb3debd99cad921720d309aeffffffff543cbe4596122450a599a03af303f7cc3dfe6227e5033df2a196e21422598723280000006b483045022100c685b2e7670fceae17e1925fbf7931742f59712f547f2a23291348e4619bf34702203224a6a15f2250bc56bce8e22ff948b865df3165f266e2dfe2941898827969740121034b5f5c9ce02e41b60f29f107bd2b1f282acda434cb3debd99cad921720d309aeffffffff6c4f39399ddb980f45da21446baa75cdfb5a5fd8dd9531fbdbb0292ec7c5ce0c350000006b4830450221008d171489596e3171a05f042e7a9a25e9fc6f00b26848dab2aab13f99f01bcad7022071e963fd0b3f169dc272a01be080621e5752ec88d80e8cd45cace9e2240c3e8b0121034b5f5c9ce02e41b60f29f107bd2b1f282acda434cb3debd99cad921720d309aefffffffff1bd2831c23dc5f4221a1460f9827aa7e4973eb235f1f26d4d82c5ad7916cdb9320000006a473044022021fc86d27a11e2bf18b45e010df7f256970789b4206cf69be8c144c82af11c4402201f1597de1fa045fc9e1350f2a9ddedf00cbd7a5864d98ef71404af4e440cc3aa0121034b5f5c9ce02e41b60f29f107bd2b1f282acda434cb3debd99cad921720d309aeffffffff26df96dae91162d479e8153f04929bed5b8d0692d6b689edce8f1f3f80fb436b2b0000006b483045022100ed15b61c1d7a7d0a9337a22c16ed8cb2d62890902cfc84372df93cf69a514a9c022064dfe1b20b2a2df64b7c5f648c52df9f3ded982bf91d7395473f76b257adb24f0121034b5f5c9ce02e41b60f29f107bd2b1f282acda434cb3debd99cad921720d309aeffffffff0255425a03000000001976a914c204f7dc8f5af2f78389aaf66447e29818b54dfd88ac04ab8d00000000001976a9147bcadeca03af0d0972946f33a47b40dcd713028a88ac00000000"
    }, 
    {
      "txid": "e78f76af009d707acc00ec4e4b1da5ef7e0bb7699e294a12cc1bbb99e6ef5e08",
      "hash": "e78f76af009d707acc00ec4e4b1da5ef7e0bb7699e294a12cc1bbb99e6ef5e08",
      "version": 1,
      "size": 225,
      "vsize": 225,
      "locktime": 1360172,
      "vin": [
        {
          "txid": "a1ac90b720f6e120df5cc9073946c2c82de378909bfce051227458afc4796875",
          "vout": 1,
          "scriptSig": {
            "asm": "304402205f5c92357587ccfd5ff9e85d3e88b8642fb3b5332ed489ba628e194db31ccff702206d51502b6b260779f28e0ad8e38cb32b586de9ff63fd64d7ac62032423b91c5f[ALL] 03f4cbf27f99ca68bd29cedd3f15487949d89805be6d545d91f3f6f4945f274a0d",
            "hex": "47304402205f5c92357587ccfd5ff9e85d3e88b8642fb3b5332ed489ba628e194db31ccff702206d51502b6b260779f28e0ad8e38cb32b586de9ff63fd64d7ac62032423b91c5f012103f4cbf27f99ca68bd29cedd3f15487949d89805be6d545d91f3f6f4945f274a0d"
          },
          "sequence": 4294967293
        }
      ],
      "vout": [
        {
          "value": 1.28028600,
          "n": 0,
          "scriptPubKey": {
            "asm": "OP_DUP OP_HASH160 e737d639db132e5c5512220a7fdbcbadb1c36104 OP_EQUALVERIFY OP_CHECKSIG",
            "hex": "76a914e737d639db132e5c5512220a7fdbcbadb1c3610488ac",
            "reqSigs": 1,
            "type": "pubkeyhash",
            "addresses": [
              "LgJXF8rC7gW5yd4PqUkVT4e23S8NTtzMHc"
            ]
          }
        }, 
        {
          "value": 6.65500000,
          "n": 1,
          "scriptPubKey": {
            "asm": "OP_DUP OP_HASH160 3ef7b079101b41dec85003edf2c2a10086b52979 OP_EQUALVERIFY OP_CHECKSIG",
            "hex": "76a9143ef7b079101b41dec85003edf2c2a10086b5297988ac",
            "reqSigs": 1,
            "type": "pubkeyhash",
            "addresses": [
              "LQxtss4wAgTToKfJ8ojPBvu7jAzYS9w3AK"
            ]
          }
        }
      ],
      "hex": "0100000001756879c4af58742251e0fc9b9078e32dc8c2463907c95cdf20e1f620b790aca1010000006a47304402205f5c92357587ccfd5ff9e85d3e88b8642fb3b5332ed489ba628e194db31ccff702206d51502b6b260779f28e0ad8e38cb32b586de9ff63fd64d7ac62032423b91c5f012103f4cbf27f99ca68bd29cedd3f15487949d89805be6d545d91f3f6f4945f274a0dfdffffff02b88fa107000000001976a914e737d639db132e5c5512220a7fdbcbadb1c3610488ac60b9aa27000000001976a9143ef7b079101b41dec85003edf2c2a10086b5297988ac2cc11400"
    }, 
    {
      "txid": "48e6d70f2c675278bf9ef13c842182383c1f4c28c923b0f5b17473c78f79a32e",
      "hash": "48e6d70f2c675278bf9ef13c842182383c1f4c28c923b0f5b17473c78f79a32e",
      "version": 1,
      "size": 225,
      "vsize": 225,
      "locktime": 0,
      "vin": [
        {
          "txid": "32def22b5350927bb6a60aa59f2a19ab10bde02e2690b29e974a7d8865383316",
          "vout": 809,
          "scriptSig": {
            "asm": "304402202297f96789ed8e4f30a69123baa325caa8edac2325f25f938f55e9df7d3ebcad02206dd0159f8df486d1d8b2235f2a79c5eba3763b95aed3ccaee557fc54aca76f21[ALL] 02acb6310365a18ce74b89820b379ad8f21dcf28bf4de395fa0b18d9a7ce2071a9",
            "hex": "47304402202297f96789ed8e4f30a69123baa325caa8edac2325f25f938f55e9df7d3ebcad02206dd0159f8df486d1d8b2235f2a79c5eba3763b95aed3ccaee557fc54aca76f21012102acb6310365a18ce74b89820b379ad8f21dcf28bf4de395fa0b18d9a7ce2071a9"
          },
          "sequence": 4294967295
        }
      ],
      "vout": [
        {
          "value": 0.00066048,
          "n": 0,
          "scriptPubKey": {
            "asm": "OP_DUP OP_HASH160 b44e9a212852cc4f0652f7d7cac49336ba5a3d4b OP_EQUALVERIFY OP_CHECKSIG",
            "hex": "76a914b44e9a212852cc4f0652f7d7cac49336ba5a3d4b88ac",
            "reqSigs": 1,
            "type": "pubkeyhash",
            "addresses": [
              "LbfL47L7uB28uQG5LP8zrZd1EYnVrM8tZ1"
            ]
          }
        }, 
        {
          "value": 0.05584098,
          "n": 1,
          "scriptPubKey": {
            "asm": "OP_DUP OP_HASH160 bdf19526e960568668a79d8251ae3bd98258f78c OP_EQUALVERIFY OP_CHECKSIG",
            "hex": "76a914bdf19526e960568668a79d8251ae3bd98258f78c88ac",
            "reqSigs": 1,
            "type": "pubkeyhash",
            "addresses": [
              "LcYHNvYeEyU7GFfvveX77ZqtgVtrtS5VEN"
            ]
          }
        }
      ],
      "hex": "010000000116333865887d4a979eb290262ee0bd10ab192a9fa50aa6b67b9250532bf2de32290300006a47304402202297f96789ed8e4f30a69123baa325caa8edac2325f25f938f55e9df7d3ebcad02206dd0159f8df486d1d8b2235f2a79c5eba3763b95aed3ccaee557fc54aca76f21012102acb6310365a18ce74b89820b379ad8f21dcf28bf4de395fa0b18d9a7ce2071a9ffffffff0200020100000000001976a914b44e9a212852cc4f0652f7d7cac49336ba5a3d4b88ace2345500000000001976a914bdf19526e960568668a79d8251ae3bd98258f78c88ac00000000"
    }, 
    {
      "txid": "29450e2f36eeaf95a621e1831d3b6c4c47d3783f244e404227813d0502117e4b",
      "hash": "29450e2f36eeaf95a621e1831d3b6c4c47d3783f244e404227813d0502117e4b",
      "version": 1,
      "size": 225,
      "vsize": 225,
      "locktime": 0,
      "vin": [
        {
          "txid": "ec91ebeac8126e3a861b3cd70d2b260365d86b4eb9bc15f34a74b2ee54c42d13",
          "vout": 1,
          "scriptSig": {
            "asm": "30440220566998acfac799a6577431fc5cbaa7d50f941e4e313e80c786ea8c2d29e46e6e02202149d6f629b2421517c887660654fe5c5112c8a2ff9e43428615db12d65b9df5[ALL] 02c9d3dab5fc3833d0d4004f9cfc193864eb048816e20a7c1f6db0a2d6559e5c7c",
            "hex": "4730440220566998acfac799a6577431fc5cbaa7d50f941e4e313e80c786ea8c2d29e46e6e02202149d6f629b2421517c887660654fe5c5112c8a2ff9e43428615db12d65b9df5012102c9d3dab5fc3833d0d4004f9cfc193864eb048816e20a7c1f6db0a2d6559e5c7c"
          },
          "sequence": 4294967295
        }
      ],
      "vout": [
        {
          "value": 1.40000000,
          "n": 0,
          "scriptPubKey": {
            "asm": "OP_DUP OP_HASH160 bad70ca14038f2bcb24ec0426ec67ec685f05e4a OP_EQUALVERIFY OP_CHECKSIG",
            "hex": "76a914bad70ca14038f2bcb24ec0426ec67ec685f05e4a88ac",
            "reqSigs": 1,
            "type": "pubkeyhash",
            "addresses": [
              "LcFsZnP7Aiw6r681RXfCgbpaTxQgvUwM1Q"
            ]
          }
        }, 
        {
          "value": 10.62565261,
          "n": 1,
          "scriptPubKey": {
            "asm": "OP_DUP OP_HASH160 6834d94c793b51d6e622abc18c5226db16cde926 OP_EQUALVERIFY OP_CHECKSIG",
            "hex": "76a9146834d94c793b51d6e622abc18c5226db16cde92688ac",
            "reqSigs": 1,
            "type": "pubkeyhash",
            "addresses": [
              "LUiwrATtmspyLhq6paf8Mn69ToRDmY5h4u"
            ]
          }
        }
      ],
      "hex": "0100000001132dc454eeb2744af315bcb94e6bd86503262b0dd73c1b863a6e12c8eaeb91ec010000006a4730440220566998acfac799a6577431fc5cbaa7d50f941e4e313e80c786ea8c2d29e46e6e02202149d6f629b2421517c887660654fe5c5112c8a2ff9e43428615db12d65b9df5012102c9d3dab5fc3833d0d4004f9cfc193864eb048816e20a7c1f6db0a2d6559e5c7cffffffff02003b5808000000001976a914bad70ca14038f2bcb24ec0426ec67ec685f05e4a88ac8d75553f000000001976a9146834d94c793b51d6e622abc18c5226db16cde92688ac00000000"
    }, 
    {
      "txid": "7e1d8a180e3e9dbe623caa07d17da6ac87e6f580d46ed956bbc3fa2a995f2367",
      "hash": "7e1d8a180e3e9dbe623caa07d17da6ac87e6f580d46ed956bbc3fa2a995f2367",
      "version": 1,
      "size": 225,
      "vsize": 225,
      "locktime": 0,
      "vin": [
        {
          "txid": "62a1ee64b6dd3b6f36debb266da288694efa8f833d9a5782c504785e0c6c421d",
          "vout": 0,
          "scriptSig": {
            "asm": "3044022021c47af07a2f9a2d44d6e70f89054261e007855b7c984daa23ade0bd8e068d7902207e0508f026e4f509f87edf1dfbac8d2104c5fb9c116fc5c2598a5211845f176a[ALL] 03e3a453d0127ddcd8af58c61b72b456935db51e8181dc8b24166390733716ccff",
            "hex": "473044022021c47af07a2f9a2d44d6e70f89054261e007855b7c984daa23ade0bd8e068d7902207e0508f026e4f509f87edf1dfbac8d2104c5fb9c116fc5c2598a5211845f176a012103e3a453d0127ddcd8af58c61b72b456935db51e8181dc8b24166390733716ccff"
          },
          "sequence": 4294967295
        }
      ],
      "vout": [
        {
          "value": 0.00055243,
          "n": 0,
          "scriptPubKey": {
            "asm": "OP_DUP OP_HASH160 b5f861bdd50ba1433175b0bd683344dfff936210 OP_EQUALVERIFY OP_CHECKSIG",
            "hex": "76a914b5f861bdd50ba1433175b0bd683344dfff93621088ac",
            "reqSigs": 1,
            "type": "pubkeyhash",
            "addresses": [
              "Lbp87ochcvCNTsdeXFaTzouY392Bzm68BG"
            ]
          }
        }, 
        {
          "value": 0.14938991,
          "n": 1,
          "scriptPubKey": {
            "asm": "OP_DUP OP_HASH160 69c343a57e64136b528bbdf65dd577c16a896acd OP_EQUALVERIFY OP_CHECKSIG",
            "hex": "76a91469c343a57e64136b528bbdf65dd577c16a896acd88ac",
            "reqSigs": 1,
            "type": "pubkeyhash",
            "addresses": [
              "LUsB8Z1dZ5AxM7yxx3hFSvg5ngTz1H3vdk"
            ]
          }
        }
      ],
      "hex": "01000000011d426c0c5e7804c582579a3d838ffa4e6988a26d26bbde366f3bddb664eea162000000006a473044022021c47af07a2f9a2d44d6e70f89054261e007855b7c984daa23ade0bd8e068d7902207e0508f026e4f509f87edf1dfbac8d2104c5fb9c116fc5c2598a5211845f176a012103e3a453d0127ddcd8af58c61b72b456935db51e8181dc8b24166390733716ccffffffffff02cbd70000000000001976a914b5f861bdd50ba1433175b0bd683344dfff93621088ac6ff3e300000000001976a91469c343a57e64136b528bbdf65dd577c16a896acd88ac00000000"
    }, 
    {
      "txid": "fbc2ca3a4d34e7ae3e4081480c3cb3a264a25dbc1d946c88f61c0a47aef639cf",
      "hash": "fbc2ca3a4d34e7ae3e4081480c3cb3a264a25dbc1d946c88f61c0a47aef639cf",
      "version": 1,
      "size": 225,
      "vsize": 225,
      "locktime": 0,
      "vin": [
        {
          "txid": "280192003154311bfbaeb1e9b40c8823468eb9c5c30e8f2fd9e6b9fbdfdfe6dd",
          "vout": 1,
          "scriptSig": {
            "asm": "304402201b8dd8a9724a996f44f890eb784c0e775b058957917a1038c026bd7632529fc1022044edc799f47cd44cfef5c74427c419afc7aa96d1c6a5946259315bdbd5f359bb[ALL] 02df8fbbd10246de5894aa1d1e299fee217571fa60a06a73d77d903873c6a90304",
            "hex": "47304402201b8dd8a9724a996f44f890eb784c0e775b058957917a1038c026bd7632529fc1022044edc799f47cd44cfef5c74427c419afc7aa96d1c6a5946259315bdbd5f359bb012102df8fbbd10246de5894aa1d1e299fee217571fa60a06a73d77d903873c6a90304"
          },
          "sequence": 4294967295
        }
      ],
      "vout": [
        {
          "value": 1.44000000,
          "n": 0,
          "scriptPubKey": {
            "asm": "OP_DUP OP_HASH160 c24414a205014d3534e7fa505a6f98d10cf41e2f OP_EQUALVERIFY OP_CHECKSIG",
            "hex": "76a914c24414a205014d3534e7fa505a6f98d10cf41e2f88ac",
            "reqSigs": 1,
            "type": "pubkeyhash",
            "addresses": [
              "Lcw8ukWQcW1WVmqYzR3DufSEqaqq9vnYmW"
            ]
          }
        }, 
        {
          "value": 23.68011222,
          "n": 1,
          "scriptPubKey": {
            "asm": "OP_DUP OP_HASH160 d2c8572d37a5ce679928257e796b094fd15f7b41 OP_EQUALVERIFY OP_CHECKSIG",
            "hex": "76a914d2c8572d37a5ce679928257e796b094fd15f7b4188ac",
            "reqSigs": 1,
            "type": "pubkeyhash",
            "addresses": [
              "LeSUAQFdFr8trAsKzDW9YGNLKfoAX5hxca"
            ]
          }
        }
      ],
      "hex": "0100000001dde6dfdffbb9e6d92f8f0ec3c5b98e4623880cb4e9b1aefb1b31543100920128010000006a47304402201b8dd8a9724a996f44f890eb784c0e775b058957917a1038c026bd7632529fc1022044edc799f47cd44cfef5c74427c419afc7aa96d1c6a5946259315bdbd5f359bb012102df8fbbd10246de5894aa1d1e299fee217571fa60a06a73d77d903873c6a90304ffffffff0200449508000000001976a914c24414a205014d3534e7fa505a6f98d10cf41e2f88acd6fb248d000000001976a914d2c8572d37a5ce679928257e796b094fd15f7b4188ac00000000"
    }, 
    {
      "txid": "59c81b1c72d2c42e015b7edc4bbdb2c6b60a5988a01e0e3520c13d143a5d3dd3",
      "hash": "59c81b1c72d2c42e015b7edc4bbdb2c6b60a5988a01e0e3520c13d143a5d3dd3",
      "version": 1,
      "size": 225,
      "vsize": 225,
      "locktime": 0,
      "vin": [
        {
          "txid": "f51d172a64d20e45e4a61ad315a8bc28c8c34cfe64886752bb0c2a27d645f4db",
          "vout": 0,
          "scriptSig": {
            "asm": "3044022071bc689784c0818071ca65331d82514f8154b1fe168a758c63a8dcbc85336cd702203161b470610988f3367029ce448203236bf324c949acf4d41e32ddcfff21b0c9[ALL] 02b289839f367b437c5f55a7bc4a11b36a4aaee30c34920800f73e05f8190d225c",
            "hex": "473044022071bc689784c0818071ca65331d82514f8154b1fe168a758c63a8dcbc85336cd702203161b470610988f3367029ce448203236bf324c949acf4d41e32ddcfff21b0c9012102b289839f367b437c5f55a7bc4a11b36a4aaee30c34920800f73e05f8190d225c"
          },
          "sequence": 4294967295
        }
      ],
      "vout": [
        {
          "value": 0.95788656,
          "n": 0,
          "scriptPubKey": {
            "asm": "OP_DUP OP_HASH160 057ac682d436d98687f132cbde316f209e55c141 OP_EQUALVERIFY OP_CHECKSIG",
            "hex": "76a914057ac682d436d98687f132cbde316f209e55c14188ac",
            "reqSigs": 1,
            "type": "pubkeyhash",
            "addresses": [
              "LKiviky3deZepscnXRuwJxqmcncqoBxtDp"
            ]
          }
        }, 
        {
          "value": 25.64887109,
          "n": 1,
          "scriptPubKey": {
            "asm": "OP_DUP OP_HASH160 53d69ffd59072e0337b47cebb64d3145debf8589 OP_EQUALVERIFY OP_CHECKSIG",
            "hex": "76a91453d69ffd59072e0337b47cebb64d3145debf858988ac",
            "reqSigs": 1,
            "type": "pubkeyhash",
            "addresses": [
              "LSsFTYBxp7dkWSeJDXe4nCWaNEyCESXAXU"
            ]
          }
        }
      ],
      "hex": "0100000001dbf445d6272a0cbb52678864fe4cc3c828bca815d31aa6e4450ed2642a171df5000000006a473044022071bc689784c0818071ca65331d82514f8154b1fe168a758c63a8dcbc85336cd702203161b470610988f3367029ce448203236bf324c949acf4d41e32ddcfff21b0c9012102b289839f367b437c5f55a7bc4a11b36a4aaee30c34920800f73e05f8190d225cffffffff02709eb505000000001976a914057ac682d436d98687f132cbde316f209e55c14188ac4512e198000000001976a91453d69ffd59072e0337b47cebb64d3145debf858988ac00000000"
    }, 
    {
      "txid": "9205296c60e18dd81f3eca77fa87161349a3271855911a54767fe734fe215a28",
      "hash": "9205296c60e18dd81f3eca77fa87161349a3271855911a54767fe734fe215a28",
      "version": 1,
      "size": 226,
      "vsize": 226,
      "locktime": 0,
      "vin": [
        {
          "txid": "820a39e48dc710e8f1c27ab39b045bab327b54170146d7717ec3da78feafcbf2",
          "vout": 0,
          "scriptSig": {
            "asm": "3045022100dc2ed6cd57c8620d639402508f09be8ded38207e985ddf5797b857891f05ca1f02200409e5aa34eee53fb0bad007aa1c11782ca241aaa1cda434c27aa97de8e84069[ALL] 032ff14a1d3c70cbe534d0bd32885213041b0fe920f13373b7d079e2f5b6ce82ae",
            "hex": "483045022100dc2ed6cd57c8620d639402508f09be8ded38207e985ddf5797b857891f05ca1f02200409e5aa34eee53fb0bad007aa1c11782ca241aaa1cda434c27aa97de8e840690121032ff14a1d3c70cbe534d0bd32885213041b0fe920f13373b7d079e2f5b6ce82ae"
          },
          "sequence": 4294967295
        }
      ],
      "vout": [
        {
          "value": 0.36328392,
          "n": 0,
          "scriptPubKey": {
            "asm": "OP_DUP OP_HASH160 ffd50f4ec0a2b0739e80184d8207242b20006da1 OP_EQUALVERIFY OP_CHECKSIG",
            "hex": "76a914ffd50f4ec0a2b0739e80184d8207242b20006da188ac",
            "reqSigs": 1,
            "type": "pubkeyhash",
            "addresses": [
              "LiYfonREJJLb8qVDGhWQ6RyyuRdhfQkxqZ"
            ]
          }
        }, 
        {
          "value": 0.04888329,
          "n": 1,
          "scriptPubKey": {
            "asm": "OP_DUP OP_HASH160 a2ed309cb0487c8e952ff4fa839bb406868d51bc OP_EQUALVERIFY OP_CHECKSIG",
            "hex": "76a914a2ed309cb0487c8e952ff4fa839bb406868d51bc88ac",
            "reqSigs": 1,
            "type": "pubkeyhash",
            "addresses": [
              "La5RsXpAMCp8HEwhR3ACTbghtN9pFpszg7"
            ]
          }
        }
      ],
      "hex": "0100000001f2cbaffe78dac37e71d7460117547b32ab5b049bb37ac2f1e810c78de4390a82000000006b483045022100dc2ed6cd57c8620d639402508f09be8ded38207e985ddf5797b857891f05ca1f02200409e5aa34eee53fb0bad007aa1c11782ca241aaa1cda434c27aa97de8e840690121032ff14a1d3c70cbe534d0bd32885213041b0fe920f13373b7d079e2f5b6ce82aeffffffff02c8532a02000000001976a914ffd50f4ec0a2b0739e80184d8207242b20006da188ac09974a00000000001976a914a2ed309cb0487c8e952ff4fa839bb406868d51bc88ac00000000"
    }, 
    {
      "txid": "83c5c5c338783fc745f429a1727d9d8f10cca916b2398b9d5217cd25d7d07463",
      "hash": "83c5c5c338783fc745f429a1727d9d8f10cca916b2398b9d5217cd25d7d07463",
      "version": 1,
      "size": 226,
      "vsize": 226,
      "locktime": 0,
      "vin": [
        {
          "txid": "ddbfe23325c5d20b7133f2ab21c8645b1059d3a2dde953b66b01cec1694f4fcd",
          "vout": 0,
          "scriptSig": {
            "asm": "30450221008ac7b47b742116e52c4a1e9cc631aec2eb8c35688581726ea6e6c57a6480822202204027404db83bb7ad5c453790135ea47ab4af483de3da29461634e811b48fec8a[ALL] 02ccae6ca0c2c3ee6e7da71a1bfba9cf3bed47a9ad760235440c45038ad59ef59e",
            "hex": "4830450221008ac7b47b742116e52c4a1e9cc631aec2eb8c35688581726ea6e6c57a6480822202204027404db83bb7ad5c453790135ea47ab4af483de3da29461634e811b48fec8a012102ccae6ca0c2c3ee6e7da71a1bfba9cf3bed47a9ad760235440c45038ad59ef59e"
          },
          "sequence": 4294967295
        }
      ],
      "vout": [
        {
          "value": 2.22461007,
          "n": 0,
          "scriptPubKey": {
            "asm": "OP_DUP OP_HASH160 ac4cc3f2cac1b73be0b336f7c50a95419292125a OP_EQUALVERIFY OP_CHECKSIG",
            "hex": "76a914ac4cc3f2cac1b73be0b336f7c50a95419292125a88ac",
            "reqSigs": 1,
            "type": "pubkeyhash",
            "addresses": [
              "LavzSxohY9zh3vnLbzo4NnD5mE1YzmMtLM"
            ]
          }
        }, 
        {
          "value": 24.20281454,
          "n": 1,
          "scriptPubKey": {
            "asm": "OP_DUP OP_HASH160 ecf5445a71f4c030354f8f91e4dbf3e149c3602a OP_EQUALVERIFY OP_CHECKSIG",
            "hex": "76a914ecf5445a71f4c030354f8f91e4dbf3e149c3602a88ac",
            "reqSigs": 1,
            "type": "pubkeyhash",
            "addresses": [
              "LgpsYwCUWd34RRHs9SWPKckYzB2dSSoNdw"
            ]
          }
        }
      ],
      "hex": "0100000001cd4f4f69c1ce016bb653e9dda2d359105b64c821abf233710bd2c52533e2bfdd000000006b4830450221008ac7b47b742116e52c4a1e9cc631aec2eb8c35688581726ea6e6c57a6480822202204027404db83bb7ad5c453790135ea47ab4af483de3da29461634e811b48fec8a012102ccae6ca0c2c3ee6e7da71a1bfba9cf3bed47a9ad760235440c45038ad59ef59effffffff024f7c420d000000001976a914ac4cc3f2cac1b73be0b336f7c50a95419292125a88ac6e904290000000001976a914ecf5445a71f4c030354f8f91e4dbf3e149c3602a88ac00000000"
    }, 
    {
      "txid": "9b6f2a60d657ab9e8705ca89104cba32782e88f53084bd741a518cc136ed946e",
      "hash": "9b6f2a60d657ab9e8705ca89104cba32782e88f53084bd741a518cc136ed946e",
      "version": 1,
      "size": 224,
      "vsize": 224,
      "locktime": 0,
      "vin": [
        {
          "txid": "0ea7635be7e266cf48c994b314b067cbbee8d7dfe4a972e8cc82060350146eb8",
          "vout": 1,
          "scriptSig": {
            "asm": "30450221009ed093db2deb0912d5709b293ffef550e0c34b47f34463658a27a0908bd5029902207bcea8d117ee60b9cce436149d97a706dac67a80b4bcba2fb8943f057434a812[ALL] 027422889ba62577e3cd87e3683e4c2ccd34690dd22c3b1acfd23304b767b41c3f",
            "hex": "4830450221009ed093db2deb0912d5709b293ffef550e0c34b47f34463658a27a0908bd5029902207bcea8d117ee60b9cce436149d97a706dac67a80b4bcba2fb8943f057434a8120121027422889ba62577e3cd87e3683e4c2ccd34690dd22c3b1acfd23304b767b41c3f"
          },
          "sequence": 4294967295
        }
      ],
      "vout": [
        {
          "value": 1.37796250,
          "n": 0,
          "scriptPubKey": {
            "asm": "OP_DUP OP_HASH160 10cafea6655fdbaffc2747ac1f62683fdbc34294 OP_EQUALVERIFY OP_CHECKSIG",
            "hex": "76a91410cafea6655fdbaffc2747ac1f62683fdbc3429488ac",
            "reqSigs": 1,
            "type": "pubkeyhash",
            "addresses": [
              "LLkkFbwHubxnwJhxDrobb7tSpnd1u2aDa9"
            ]
          }
        }, 
        {
          "value": 27.41047396,
          "n": 1,
          "scriptPubKey": {
            "asm": "OP_HASH160 c98acd991e65c1e1ecd328030b35497c719b72fa OP_EQUAL",
            "hex": "a914c98acd991e65c1e1ecd328030b35497c719b72fa87",
            "reqSigs": 1,
            "type": "scripthash",
            "addresses": [
              "MSGpLCRd9hshu6UGCHmKzi4cRsjeseEmpe"
            ]
          }
        }
      ],
      "hex": "0100000001b86e1450030682cce872a9e4dfd7e8becb67b014b394c948cf66e2e75b63a70e010000006b4830450221009ed093db2deb0912d5709b293ffef550e0c34b47f34463658a27a0908bd5029902207bcea8d117ee60b9cce436149d97a706dac67a80b4bcba2fb8943f057434a8120121027422889ba62577e3cd87e3683e4c2ccd34690dd22c3b1acfd23304b767b41c3fffffffff029a9a3608000000001976a91410cafea6655fdbaffc2747ac1f62683fdbc3429488ac641061a30000000017a914c98acd991e65c1e1ecd328030b35497c719b72fa8700000000"
    }
  ],
  "time": 1517385282,
  "mediantime": 1517384972,
  "nonce": 2332007299,
  "bits": "1a042eae",
  "difficulty": 4011378.762614286,
  "chainwork": "000000000000000000000000000000000000000000000034b179d987cc995760",
  "previousblockhash": "bcbfad991a2cb9314f6de56a92a8dba2bd347864c67d8be3037e9b1b14656c01",
  "nextblockhash": "3bc6da94eaa4425eb492f24f8b66e875400bc76401c7d423af79b29b7799a531"
}
