{
  "hash": "59cd00ee63e8a794ce860f49a2c2538e2323288153b789986d6a2090e75320fa",
  "confirmations": 2669,
  "strippedsize": 3409,
  "size": 4208,
  "weight": 14435,
  "height": 1358326,
  "version": 536870912,
  "versionHex": "20000000",
  "merkleroot": "1b9c67c90ac4fbd68bd3505bf4627bd34fd494f55f950512234f2960ba9c070c",
  "tx": [
    {
      "txid": "d92d1121cea9244dd82b115bd156a85545226988735f81c724d2d3e15bf9cef0",
      "hash": "d7b7f1d8fa854f4426388be4b44f6d2cc9e4fb89ce17e4eef41f32d868248785",
      "version": 1,
      "size": 253,
      "vsize": 226,
      "locktime": 0,
      "vin": [
        {
          "coinbase": "03f6b91441d69b60c31750d341d69b60c2ca18c22f4c54432e544f502ffabe6d6d06de2b2562b8daa0300194a8ce602db05fc2811c55ad33934ba7b4b9e6c0b20601000000000000007930e36a0400000000000000",
          "sequence": 4294967295
        }
      ],
      "vout": [
        {
          "value": 25.00603359,
          "n": 0,
          "scriptPubKey": {
            "asm": "OP_DUP OP_HASH160 0c617fdb2ea42aed30a509595ee21ba3f6688db0 OP_EQUALVERIFY OP_CHECKSIG",
            "hex": "76a9140c617fdb2ea42aed30a509595ee21ba3f6688db088ac",
            "reqSigs": 1,
            "type": "pubkeyhash",
            "addresses": [
              "LLMRAtr3qBje2ySEa3CnZ55LA4TQMWnRY3"
            ]
          }
        }, 
        {
          "value": 0.00000000,
          "n": 1,
          "scriptPubKey": {
            "asm": "OP_RETURN aa21a9eddbd67f615be6feebbd53e507b9fc8324282528e3b2b14c80e469aa645a80a553",
            "hex": "6a24aa21a9eddbd67f615be6feebbd53e507b9fc8324282528e3b2b14c80e469aa645a80a553",
            "type": "nulldata"
          }
        }
      ],
      "hex": "010000000001010000000000000000000000000000000000000000000000000000000000000000ffffffff5503f6b91441d69b60c31750d341d69b60c2ca18c22f4c54432e544f502ffabe6d6d06de2b2562b8daa0300194a8ce602db05fc2811c55ad33934ba7b4b9e6c0b20601000000000000007930e36a0400000000000000ffffffff02df2d0c95000000001976a9140c617fdb2ea42aed30a509595ee21ba3f6688db088ac0000000000000000266a24aa21a9eddbd67f615be6feebbd53e507b9fc8324282528e3b2b14c80e469aa645a80a5530120000000000000000000000000000000000000000000000000000000000000000000000000"
    }, 
    {
      "txid": "7154bcf872e0c27c234a550995f2834bbf38fe09db11277f0c830e6a3e3c0b11",
      "hash": "7154bcf872e0c27c234a550995f2834bbf38fe09db11277f0c830e6a3e3c0b11",
      "version": 1,
      "size": 192,
      "vsize": 192,
      "locktime": 0,
      "vin": [
        {
          "txid": "ffaa713781b90ace079a2cd6a713e6a3c15d9ea903f29806a42c8f1ef6052bb0",
          "vout": 1,
          "scriptSig": {
            "asm": "3045022100dbc9a587ed4b2fb99da84bc12b347df4d6b4409d88dc302bef32d36dcac4363b02201779a1a3d685d3e08915f881fd3aac173afa2e280c079d4f64eeeebeeb25971d[ALL] 0228b1545dc8bf9af5c38f377e5561faf6eceaa4ba79cff8141bb954bab2d8e6a0",
            "hex": "483045022100dbc9a587ed4b2fb99da84bc12b347df4d6b4409d88dc302bef32d36dcac4363b02201779a1a3d685d3e08915f881fd3aac173afa2e280c079d4f64eeeebeeb25971d01210228b1545dc8bf9af5c38f377e5561faf6eceaa4ba79cff8141bb954bab2d8e6a0"
          },
          "sequence": 4294967295
        }
      ],
      "vout": [
        {
          "value": 0.02624403,
          "n": 0,
          "scriptPubKey": {
            "asm": "OP_DUP OP_HASH160 5bf6e631ecd9ea6f1554b83af6fc7a1abb65c84b OP_EQUALVERIFY OP_CHECKSIG",
            "hex": "76a9145bf6e631ecd9ea6f1554b83af6fc7a1abb65c84b88ac",
            "reqSigs": 1,
            "type": "pubkeyhash",
            "addresses": [
              "LTcDXXW3s8r6ZFrtzUZkMWXsEHaxuJy9kY"
            ]
          }
        }
      ],
      "hex": "0100000001b02b05f61e8f2ca40698f203a99e5dc1a3e613a7d62c9a07ce0ab9813771aaff010000006b483045022100dbc9a587ed4b2fb99da84bc12b347df4d6b4409d88dc302bef32d36dcac4363b02201779a1a3d685d3e08915f881fd3aac173afa2e280c079d4f64eeeebeeb25971d01210228b1545dc8bf9af5c38f377e5561faf6eceaa4ba79cff8141bb954bab2d8e6a0ffffffff01930b2800000000001976a9145bf6e631ecd9ea6f1554b83af6fc7a1abb65c84b88ac00000000"
    }, 
    {
      "txid": "6874730b2ea70a05d12dbc28defcb02a8bb61f303884fd68ee15ebd574856b72",
      "hash": "3f7144b861456ce6fb195157dcee6b706954244dad31aeecadf5988be88f8637",
      "version": 2,
      "size": 1054,
      "vsize": 648,
      "locktime": 0,
      "vin": [
        {
          "txid": "efe1c8970c5335478d9e82ca6c00b5cdcde02454add871914e2d1a8700fd1552",
          "vout": 10,
          "scriptSig": {
            "asm": "30450221008c4b87a318ac8a7367de2871dcb5d53a5efe5c674f5bfc82a54df5403dc8714c022021874f8f955d50bc0bdb5de23bdbcd56b468ea801f6ef5a0002f9f363009d05a[ALL] 0278501401d45f648e4491869cf557912766d8fce43748cfcfa30ca20b41fec139",
            "hex": "4830450221008c4b87a318ac8a7367de2871dcb5d53a5efe5c674f5bfc82a54df5403dc8714c022021874f8f955d50bc0bdb5de23bdbcd56b468ea801f6ef5a0002f9f363009d05a01210278501401d45f648e4491869cf557912766d8fce43748cfcfa30ca20b41fec139"
          },
          "sequence": 4294967295
        }, 
        {
          "txid": "ce9b3599e3039ea49266b9ecfb25201af494d2d5a20c58de57d605d0b2a0b2af",
          "vout": 0,
          "scriptSig": {
            "asm": "0014f46519f5fe22fc9f1299b07eac9a5b6747824224",
            "hex": "160014f46519f5fe22fc9f1299b07eac9a5b6747824224"
          },
          "txinwitness": [
            "304402200f4d2e072be70d5f1149882118384c29acad7d135e7242bb4940203545ed74d302205747c1b7315bdeb974a519cbbe957a3c97d556343ba46fc4e3570d01c87ad9b401", 
            "03e5c42d64f0ea54a823484f75984e287b9c956f9e18edb8f013de698f3949ce7f"
          ],
          "sequence": 4294967295
        }, 
        {
          "txid": "da4ac25d8262d81ff569f9ac5a2a9dd3cd7f922a1ca8fb4e45e8713d718201b5",
          "vout": 1,
          "scriptSig": {
            "asm": "0014e4e2aac851044bbd4a9d5059fcc3a65422012bb9",
            "hex": "160014e4e2aac851044bbd4a9d5059fcc3a65422012bb9"
          },
          "txinwitness": [
            "3045022100c11f7d77bfa996ae7d4595080c886aa7e6c49ab1954f1db95a75e5b9ee105abd02200a57aca20c0e3a253a4a5415f533cae775b2676f53dc5b24f1093e11a5d56f8e01", 
            "023fd22c94e8135c35c50ca03401ecbf7fb5838d666e61e853c4d9cb0797d7c444"
          ],
          "sequence": 4294967295
        }, 
        {
          "txid": "1ac4fe7122f01bf6c7e2d9544c2245703265755e24897ce03336f57be73408c4",
          "vout": 0,
          "scriptSig": {
            "asm": "00147a8f20d30404f21463620194d3bb79284155f308",
            "hex": "1600147a8f20d30404f21463620194d3bb79284155f308"
          },
          "txinwitness": [
            "3045022100a33c1044cb1bbe9cdac7f1a557218dd9e6e141091dbff16dbe52609ded4a886c0220654db68319015d1f139b51dd963415090157ff882826a7b54d3c77f3ea05f1ca01", 
            "023209e36fcb1e1092b29288dca5aadb3a98bf5168849f319147826617ea984d74"
          ],
          "sequence": 4294967295
        }, 
        {
          "txid": "bc8c4c8b544d57f0250f686771b569cf96ab8e819530e3a592241e16e93300f3",
          "vout": 2,
          "scriptSig": {
            "asm": "001404eeed034509430048566e33490fd82aecda5524",
            "hex": "16001404eeed034509430048566e33490fd82aecda5524"
          },
          "txinwitness": [
            "3045022100f56bdc4d00e573a9005d58c1c9f7c6d7eebff77435ac720ecd7771d816011a920220361164ca07c4955a0f94e151c593ac9b23cd545306c00326d440b79d1f510d1e01", 
            "0374277476df69b23352d747dde3754ccc627b68289e182dcc227b4ac897b9c3ae"
          ],
          "sequence": 4294967295
        }, 
        {
          "txid": "9a97653323defbd210868b3ec7feab1cbd22e5818e60ba01656f2862a8b618f4",
          "vout": 0,
          "scriptSig": {
            "asm": "00145eba6ef96d75f8bb5b63d8342d133bad1bd57045",
            "hex": "1600145eba6ef96d75f8bb5b63d8342d133bad1bd57045"
          },
          "txinwitness": [
            "30450221009dacb3c3473d3b6c5c137ce677e4cc1ee10506d437d2242c5670d2aaec93624302207e0fb1fe55752ca3186bcf0ffec876b35291949a63e9fb0838c832bfde17573601", 
            "030c9dc32db266dbecc33ac90d706412ac5fe6b46ef4c6b9bdc3e380394ec711b6"
          ],
          "sequence": 4294967295
        }
      ],
      "vout": [
        {
          "value": 8.84783032,
          "n": 0,
          "scriptPubKey": {
            "asm": "OP_DUP OP_HASH160 0c5e0b0b4e6a036f4ba7893b45b88828dff8d6c0 OP_EQUALVERIFY OP_CHECKSIG",
            "hex": "76a9140c5e0b0b4e6a036f4ba7893b45b88828dff8d6c088ac",
            "reqSigs": 1,
            "type": "pubkeyhash",
            "addresses": [
              "LLMM2kH7gJYN98tGZkLxieQG8SeeZTk1dr"
            ]
          }
        }
      ],
      "hex": "020000000001065215fd00871a2d4e9171d8ad5424e0cdcdb5006cca829e8d4735530c97c8e1ef0a0000006b4830450221008c4b87a318ac8a7367de2871dcb5d53a5efe5c674f5bfc82a54df5403dc8714c022021874f8f955d50bc0bdb5de23bdbcd56b468ea801f6ef5a0002f9f363009d05a01210278501401d45f648e4491869cf557912766d8fce43748cfcfa30ca20b41fec139ffffffffafb2a0b2d005d657de580ca2d5d294f41a2025fbecb96692a49e03e399359bce0000000017160014f46519f5fe22fc9f1299b07eac9a5b6747824224ffffffffb50182713d71e8454efba81c2a927fcdd39d2a5aacf969f51fd862825dc24ada0100000017160014e4e2aac851044bbd4a9d5059fcc3a65422012bb9ffffffffc40834e77bf53633e07c89245e7565327045224c54d9e2c7f61bf02271fec41a00000000171600147a8f20d30404f21463620194d3bb79284155f308fffffffff30033e9161e2492a5e33095818eab96cf69b57167680f25f0574d548b4c8cbc020000001716001404eeed034509430048566e33490fd82aecda5524fffffffff418b6a862286f6501ba608e81e522bd1cabfec73e8b8610d2fbde233365979a00000000171600145eba6ef96d75f8bb5b63d8342d133bad1bd57045ffffffff01b8b7bc34000000001976a9140c5e0b0b4e6a036f4ba7893b45b88828dff8d6c088ac000247304402200f4d2e072be70d5f1149882118384c29acad7d135e7242bb4940203545ed74d302205747c1b7315bdeb974a519cbbe957a3c97d556343ba46fc4e3570d01c87ad9b4012103e5c42d64f0ea54a823484f75984e287b9c956f9e18edb8f013de698f3949ce7f02483045022100c11f7d77bfa996ae7d4595080c886aa7e6c49ab1954f1db95a75e5b9ee105abd02200a57aca20c0e3a253a4a5415f533cae775b2676f53dc5b24f1093e11a5d56f8e0121023fd22c94e8135c35c50ca03401ecbf7fb5838d666e61e853c4d9cb0797d7c44402483045022100a33c1044cb1bbe9cdac7f1a557218dd9e6e141091dbff16dbe52609ded4a886c0220654db68319015d1f139b51dd963415090157ff882826a7b54d3c77f3ea05f1ca0121023209e36fcb1e1092b29288dca5aadb3a98bf5168849f319147826617ea984d7402483045022100f56bdc4d00e573a9005d58c1c9f7c6d7eebff77435ac720ecd7771d816011a920220361164ca07c4955a0f94e151c593ac9b23cd545306c00326d440b79d1f510d1e01210374277476df69b23352d747dde3754ccc627b68289e182dcc227b4ac897b9c3ae024830450221009dacb3c3473d3b6c5c137ce677e4cc1ee10506d437d2242c5670d2aaec93624302207e0fb1fe55752ca3186bcf0ffec876b35291949a63e9fb0838c832bfde1757360121030c9dc32db266dbecc33ac90d706412ac5fe6b46ef4c6b9bdc3e380394ec711b600000000"
    }, 
    {
      "txid": "ff562c46fd611e01f8a3fa143510df81545802d3e7dad5ac3ba2d8e77791e9ed",
      "hash": "5700021dec98fbf04d68f469688f4af45a76c662d29b7958b6626976de17ab9e",
      "version": 1,
      "size": 373,
      "vsize": 208,
      "locktime": 0,
      "vin": [
        {
          "txid": "8fec1a72bb5523bcaebd8fdae0494ac928caf2d54a87af066cd3f190efc44299",
          "vout": 1,
          "scriptSig": {
            "asm": "00207975c3f0d1bf8b6205e1c664d703c93d68409676bf17c5e78cdece78bdbf3dbf",
            "hex": "2200207975c3f0d1bf8b6205e1c664d703c93d68409676bf17c5e78cdece78bdbf3dbf"
          },
          "txinwitness": [
            "", 
            "3044022022cf41a9036dfab5d888670ee330db689e4a9a550381a5ff06d7ad0788af1958022014eefc6ee794f05b22936d4635221bdb2727d8dc5edd0a88b609d4f39db6ed6701", 
            "3045022100cfa6d14df31a8d4c34acd2db82b047f99f579fe96b9466552585dcaed31c498302203cecf8033bdad3afc051fc595c6bb710644899b76fa1098b2352ab6786425db701", 
            "522102611be09a0c6a571c8f68adb2481e938888756d93d4ee5b670f08c16e939b7f1a21022cc7a96a72ef014bf078a6489644e2edb05bb216d30b4f28363b637fe4463fd652ae"
          ],
          "sequence": 4294967295
        }
      ],
      "vout": [
        {
          "value": 0.00531800,
          "n": 0,
          "scriptPubKey": {
            "asm": "OP_DUP OP_HASH160 a69484d81c9dca6789f7cf52522128e3fd2f1fe2 OP_EQUALVERIFY OP_CHECKSIG",
            "hex": "76a914a69484d81c9dca6789f7cf52522128e3fd2f1fe288ac",
            "reqSigs": 1,
            "type": "pubkeyhash",
            "addresses": [
              "LaQkMLEqD3iwZRJGpYLj6rrprjXgGE6Sov"
            ]
          }
        }, 
        {
          "value": 6.26031756,
          "n": 1,
          "scriptPubKey": {
            "asm": "OP_HASH160 486ce63d83e8406016f310cd321d36bbdd10d412 OP_EQUAL",
            "hex": "a914486ce63d83e8406016f310cd321d36bbdd10d41287",
            "reqSigs": 1,
            "type": "scripthash",
            "addresses": [
              "MEW7Lhk6QzBLmCNp5pmpYzwv1KAcKYsSQp"
            ]
          }
        }
      ],
      "hex": "010000000001019942c4ef90f1d36c06af874ad5f2ca28c94a49e0da8fbdaebc2355bb721aec8f01000000232200207975c3f0d1bf8b6205e1c664d703c93d68409676bf17c5e78cdece78bdbf3dbfffffffff02581d0800000000001976a914a69484d81c9dca6789f7cf52522128e3fd2f1fe288ac8c7c50250000000017a914486ce63d83e8406016f310cd321d36bbdd10d412870400473044022022cf41a9036dfab5d888670ee330db689e4a9a550381a5ff06d7ad0788af1958022014eefc6ee794f05b22936d4635221bdb2727d8dc5edd0a88b609d4f39db6ed6701483045022100cfa6d14df31a8d4c34acd2db82b047f99f579fe96b9466552585dcaed31c498302203cecf8033bdad3afc051fc595c6bb710644899b76fa1098b2352ab6786425db70147522102611be09a0c6a571c8f68adb2481e938888756d93d4ee5b670f08c16e939b7f1a21022cc7a96a72ef014bf078a6489644e2edb05bb216d30b4f28363b637fe4463fd652ae00000000"
    }, 
    {
      "txid": "b370692eb0d74ac9f2f8e2b180626538fafc9c15cc06eaf8c0c6c4c2e965335b",
      "hash": "b370692eb0d74ac9f2f8e2b180626538fafc9c15cc06eaf8c0c6c4c2e965335b",
      "version": 1,
      "size": 521,
      "vsize": 521,
      "locktime": 1358324,
      "vin": [
        {
          "txid": "e1e95d035aaa8076e5b6074c6790f5d57335539618c77d804031ea2777727ef1",
          "vout": 200,
          "scriptSig": {
            "asm": "3045022100a8bcea1923b1dcf5bcf94b6389461208c19f32965123b63cbc6d9f189db9bd7b022042882f9536e45cdbed0beb115a5b02b4ee926c5826fe4a941e0a051d882dd18b[ALL] 03860afd54cacdb2823725cbdb5794df7ee322e7a55459936813419c10d43685b0",
            "hex": "483045022100a8bcea1923b1dcf5bcf94b6389461208c19f32965123b63cbc6d9f189db9bd7b022042882f9536e45cdbed0beb115a5b02b4ee926c5826fe4a941e0a051d882dd18b012103860afd54cacdb2823725cbdb5794df7ee322e7a55459936813419c10d43685b0"
          },
          "sequence": 4294967294
        }, 
        {
          "txid": "469df808d29634f23b8358ded75dd694450535f4c0582d3bd11ca5545f891020",
          "vout": 284,
          "scriptSig": {
            "asm": "3045022100d82ba386a9ade12bb0de9a52a7cee30a4acd381d915fdc24b4a1a274d489979c022025dfc97ee16df4d337699775b53ed6670409de0c9f5cd6b37ab1293940f76145[ALL] 020e6e5e9c26b1e73d0f6936cff2c160034b441309661fdeeffb80bc97ac75d4bf",
            "hex": "483045022100d82ba386a9ade12bb0de9a52a7cee30a4acd381d915fdc24b4a1a274d489979c022025dfc97ee16df4d337699775b53ed6670409de0c9f5cd6b37ab1293940f761450121020e6e5e9c26b1e73d0f6936cff2c160034b441309661fdeeffb80bc97ac75d4bf"
          },
          "sequence": 4294967294
        }, 
        {
          "txid": "687827fd83b2edf7ae202803d3be370d8dbd41ebea6b8ed008d86ab64c9704b3",
          "vout": 297,
          "scriptSig": {
            "asm": "304402206c4c5db39ada937724b55722573e743687cf4cb150df49f691b85548b39c244402205530b481bb02b8b9a580fe61aee7accecac3db83a37bb35a2bfc0d937a011d07[ALL] 02ab53eeb871651fb3db61b08112205e0351207a6844ed7dcd03354499989aee23",
            "hex": "47304402206c4c5db39ada937724b55722573e743687cf4cb150df49f691b85548b39c244402205530b481bb02b8b9a580fe61aee7accecac3db83a37bb35a2bfc0d937a011d07012102ab53eeb871651fb3db61b08112205e0351207a6844ed7dcd03354499989aee23"
          },
          "sequence": 4294967294
        }
      ],
      "vout": [
        {
          "value": 0.26900000,
          "n": 0,
          "scriptPubKey": {
            "asm": "OP_DUP OP_HASH160 b7a5e79e005fc27764b8e9f4e40bde33d3863059 OP_EQUALVERIFY OP_CHECKSIG",
            "hex": "76a914b7a5e79e005fc27764b8e9f4e40bde33d386305988ac",
            "reqSigs": 1,
            "type": "pubkeyhash",
            "addresses": [
              "LbxzfajWrHW8tEh74BoDfAGkVFEWHhCzi7"
            ]
          }
        }, 
        {
          "value": 0.01002678,
          "n": 1,
          "scriptPubKey": {
            "asm": "OP_DUP OP_HASH160 f5a414c58706ff42b6acb53710642510b93d32be OP_EQUALVERIFY OP_CHECKSIG",
            "hex": "76a914f5a414c58706ff42b6acb53710642510b93d32be88ac",
            "reqSigs": 1,
            "type": "pubkeyhash",
            "addresses": [
              "LhcnNmYjc8hNmtUnx1zJkqwxRLHSz4vukm"
            ]
          }
        }
      ],
      "hex": "0100000003f17e727727ea3140807dc71896533573d5f590674c07b6e57680aa5a035de9e1c80000006b483045022100a8bcea1923b1dcf5bcf94b6389461208c19f32965123b63cbc6d9f189db9bd7b022042882f9536e45cdbed0beb115a5b02b4ee926c5826fe4a941e0a051d882dd18b012103860afd54cacdb2823725cbdb5794df7ee322e7a55459936813419c10d43685b0feffffff2010895f54a51cd13b2d58c0f435054594d65dd7de58833bf23496d208f89d461c0100006b483045022100d82ba386a9ade12bb0de9a52a7cee30a4acd381d915fdc24b4a1a274d489979c022025dfc97ee16df4d337699775b53ed6670409de0c9f5cd6b37ab1293940f761450121020e6e5e9c26b1e73d0f6936cff2c160034b441309661fdeeffb80bc97ac75d4bffeffffffb304974cb66ad808d08e6beaeb41bd8d0d37bed3032820aef7edb283fd277868290100006a47304402206c4c5db39ada937724b55722573e743687cf4cb150df49f691b85548b39c244402205530b481bb02b8b9a580fe61aee7accecac3db83a37bb35a2bfc0d937a011d07012102ab53eeb871651fb3db61b08112205e0351207a6844ed7dcd03354499989aee23feffffff0220769a01000000001976a914b7a5e79e005fc27764b8e9f4e40bde33d386305988acb64c0f00000000001976a914f5a414c58706ff42b6acb53710642510b93d32be88acf4b91400"
    }, 
    {
      "txid": "4249a47b63b8b12f8aee34b48afd110fcb79cb17fefea187696c1f750aabf7f8",
      "hash": "4249a47b63b8b12f8aee34b48afd110fcb79cb17fefea187696c1f750aabf7f8",
      "version": 1,
      "size": 280,
      "vsize": 280,
      "locktime": 0,
      "vin": [
        {
          "txid": "4035adef8273ec92ee11924953938d2ce59c76e1c54730702fc92206d2d27eb7",
          "vout": 1,
          "scriptSig": {
            "asm": "304502210090ef3936fd4091b912e29ba8f59bc03bc185b02f31e6a1101f5b6f49502fbcb7022052f44b192b426940a268c26307e35f0978e39e8250f274a2ea80ceaffd8cfe92[ALL] 039183df657ecce4343d0d270c89c1a2c2ee6957f38d42ae4151e4888fee4166f8",
            "hex": "48304502210090ef3936fd4091b912e29ba8f59bc03bc185b02f31e6a1101f5b6f49502fbcb7022052f44b192b426940a268c26307e35f0978e39e8250f274a2ea80ceaffd8cfe920121039183df657ecce4343d0d270c89c1a2c2ee6957f38d42ae4151e4888fee4166f8"
          },
          "sequence": 4294967293
        }
      ],
      "vout": [
        {
          "value": 0.00000000,
          "n": 0,
          "scriptPubKey": {
            "asm": "OP_RETURN 4070726f6f662e6c696e6b4033636639386637636130303034306235656562363134373463653462323831646163613933643437356636303336316539623639346463323665643339323164",
            "hex": "6a4c4c4070726f6f662e6c696e6b4033636639386637636130303034306235656562363134373463653462323831646163613933643437356636303336316539623639346463323665643339323164",
            "type": "nulldata"
          }
        }, 
        {
          "value": 0.11662108,
          "n": 1,
          "scriptPubKey": {
            "asm": "OP_DUP OP_HASH160 69c116d8601702cdb1336d9f3f37cccdc5d4395e OP_EQUALVERIFY OP_CHECKSIG",
            "hex": "76a91469c116d8601702cdb1336d9f3f37cccdc5d4395e88ac",
            "reqSigs": 1,
            "type": "pubkeyhash",
            "addresses": [
              "LUs8XRwGTA1RixzDEdsWrWBsdLoxrnmcE5"
            ]
          }
        }
      ],
      "hex": "0100000001b77ed2d20622c92f703047c5e1769ce52c8d9353499211ee92ec7382efad3540010000006b48304502210090ef3936fd4091b912e29ba8f59bc03bc185b02f31e6a1101f5b6f49502fbcb7022052f44b192b426940a268c26307e35f0978e39e8250f274a2ea80ceaffd8cfe920121039183df657ecce4343d0d270c89c1a2c2ee6957f38d42ae4151e4888fee4166f8fdffffff0200000000000000004f6a4c4c4070726f6f662e6c696e6b40336366393866376361303030343062356565623631343734636534623238316461636139336434373566363033363165396236393464633236656433393231641cf3b100000000001976a91469c116d8601702cdb1336d9f3f37cccdc5d4395e88ac00000000"
    }, 
    {
      "txid": "ee26874923a1635b3a2fba6155ebcdbc0552fa17e1135ebd0f46c90047baf4ce",
      "hash": "ee26874923a1635b3a2fba6155ebcdbc0552fa17e1135ebd0f46c90047baf4ce",
      "version": 1,
      "size": 191,
      "vsize": 191,
      "locktime": 0,
      "vin": [
        {
          "txid": "49934b664ef5ddd14f588a5d710daeb49078cb113a2c8fff511ed3e7f0167ee2",
          "vout": 1,
          "scriptSig": {
            "asm": "30440220297e197a3ae04c7bc8c7aa9893ecf786e84c5ef222fcf61c51040c4088b0efcd02202be3d592c8b24a5f074aeb5d05e6ed02b31c34dc2c81f233723c8a85637a7024[ALL] 02457c7776968f2253ffd09f8d7cf44d90d4d5f5ef721a8ff8f8e7f01e43e0b507",
            "hex": "4730440220297e197a3ae04c7bc8c7aa9893ecf786e84c5ef222fcf61c51040c4088b0efcd02202be3d592c8b24a5f074aeb5d05e6ed02b31c34dc2c81f233723c8a85637a7024012102457c7776968f2253ffd09f8d7cf44d90d4d5f5ef721a8ff8f8e7f01e43e0b507"
          },
          "sequence": 4294967295
        }
      ],
      "vout": [
        {
          "value": 2.63492310,
          "n": 0,
          "scriptPubKey": {
            "asm": "OP_DUP OP_HASH160 899cd0cfc224291fd48ab611bbed2ee5e21095ae OP_EQUALVERIFY OP_CHECKSIG",
            "hex": "76a914899cd0cfc224291fd48ab611bbed2ee5e21095ae88ac",
            "reqSigs": 1,
            "type": "pubkeyhash",
            "addresses": [
              "LXmahEjPvzAY6BnhY2brvktfkoDMzp69a9"
            ]
          }
        }
      ],
      "hex": "0100000001e27e16f0e7d31e51ff8f2c3a11cb7890b4ae0d715d8a584fd1ddf54e664b9349010000006a4730440220297e197a3ae04c7bc8c7aa9893ecf786e84c5ef222fcf61c51040c4088b0efcd02202be3d592c8b24a5f074aeb5d05e6ed02b31c34dc2c81f233723c8a85637a7024012102457c7776968f2253ffd09f8d7cf44d90d4d5f5ef721a8ff8f8e7f01e43e0b507ffffffff01d692b40f000000001976a914899cd0cfc224291fd48ab611bbed2ee5e21095ae88ac00000000"
    }, 
    {
      "txid": "af0f2219f93662e014cd26e92c2fb33de563a331ffc97da6bd7d6193c6c4c146",
      "hash": "af0f2219f93662e014cd26e92c2fb33de563a331ffc97da6bd7d6193c6c4c146",
      "version": 1,
      "size": 225,
      "vsize": 225,
      "locktime": 0,
      "vin": [
        {
          "txid": "3b9893fd4292dee60f34f65171916c000e8795bad41ada569fb91b3a16653b2b",
          "vout": 0,
          "scriptSig": {
            "asm": "3044022010e3067f5ae20e7b19192f8e451c1f1a81fe65e09aa978e62abb27fe3ae82c3c02204893994712fcb021ef86c8c6e410d563faa1da945a6d8385d5e25cdfdcc2b821[ALL] 030f405bd8b61ca44569abcfa696c4736cfda45a9f8057a388d10e0473e2e81e60",
            "hex": "473044022010e3067f5ae20e7b19192f8e451c1f1a81fe65e09aa978e62abb27fe3ae82c3c02204893994712fcb021ef86c8c6e410d563faa1da945a6d8385d5e25cdfdcc2b8210121030f405bd8b61ca44569abcfa696c4736cfda45a9f8057a388d10e0473e2e81e60"
          },
          "sequence": 4294967295
        }
      ],
      "vout": [
        {
          "value": 0.00877400,
          "n": 0,
          "scriptPubKey": {
            "asm": "OP_DUP OP_HASH160 cad93c404d2bd26cb59a803757d578c140e6d552 OP_EQUALVERIFY OP_CHECKSIG",
            "hex": "76a914cad93c404d2bd26cb59a803757d578c140e6d55288ac",
            "reqSigs": 1,
            "type": "pubkeyhash",
            "addresses": [
              "LdiWzjsL6ve9FD3ycJqf4mjGW2PCoc4bqP"
            ]
          }
        }, 
        {
          "value": 0.49000000,
          "n": 1,
          "scriptPubKey": {
            "asm": "OP_DUP OP_HASH160 d937b544ac9e2bc2d16b10090588aebca3ddcfd9 OP_EQUALVERIFY OP_CHECKSIG",
            "hex": "76a914d937b544ac9e2bc2d16b10090588aebca3ddcfd988ac",
            "reqSigs": 1,
            "type": "pubkeyhash",
            "addresses": [
              "Lf2VdWGTCgcK1fW3WP6UX3niwb7cQG1kMq"
            ]
          }
        }
      ],
      "hex": "01000000012b3b65163a1bb99f56da1ad4ba95870e006c917151f6340fe6de9242fd93983b000000006a473044022010e3067f5ae20e7b19192f8e451c1f1a81fe65e09aa978e62abb27fe3ae82c3c02204893994712fcb021ef86c8c6e410d563faa1da945a6d8385d5e25cdfdcc2b8210121030f405bd8b61ca44569abcfa696c4736cfda45a9f8057a388d10e0473e2e81e60ffffffff0258630d00000000001976a914cad93c404d2bd26cb59a803757d578c140e6d55288ac40aeeb02000000001976a914d937b544ac9e2bc2d16b10090588aebca3ddcfd988ac00000000"
    }, 
    {
      "txid": "bfb11de7dd4db449e3e55b7a678dc3fd484e205602b72461992c954e93086167",
      "hash": "bfb11de7dd4db449e3e55b7a678dc3fd484e205602b72461992c954e93086167",
      "version": 1,
      "size": 225,
      "vsize": 225,
      "locktime": 0,
      "vin": [
        {
          "txid": "5ef9cfca2043aad0344209d66130fd991f4a6ea789537462ba93cc5fe9b68431",
          "vout": 427,
          "scriptSig": {
            "asm": "304402205842213b7d0166810f622f458a56afe923fa319b591019c7790a62339fcc4b110220359bd693ac8d8a3cf44ec9da36533e9106aa19a0b97cb1c84b4280b7fdf2ddde[ALL] 03a29f5636c782955da050970cf082a0e1cb8137e7ff17932c669eb6efca367410",
            "hex": "47304402205842213b7d0166810f622f458a56afe923fa319b591019c7790a62339fcc4b110220359bd693ac8d8a3cf44ec9da36533e9106aa19a0b97cb1c84b4280b7fdf2ddde012103a29f5636c782955da050970cf082a0e1cb8137e7ff17932c669eb6efca367410"
          },
          "sequence": 4294967295
        }
      ],
      "vout": [
        {
          "value": 0.00140393,
          "n": 0,
          "scriptPubKey": {
            "asm": "OP_DUP OP_HASH160 a11a45dd5787d7e169214d059bd510a2db62cbcb OP_EQUALVERIFY OP_CHECKSIG",
            "hex": "76a914a11a45dd5787d7e169214d059bd510a2db62cbcb88ac",
            "reqSigs": 1,
            "type": "pubkeyhash",
            "addresses": [
              "LZunXa6U3C8spiF3SMXawPSmPznQs1cdkG"
            ]
          }
        }, 
        {
          "value": 0.18087855,
          "n": 1,
          "scriptPubKey": {
            "asm": "OP_DUP OP_HASH160 53ac8926101ffc6f5ba34297a95afab668f3860f OP_EQUALVERIFY OP_CHECKSIG",
            "hex": "76a91453ac8926101ffc6f5ba34297a95afab668f3860f88ac",
            "reqSigs": 1,
            "type": "pubkeyhash",
            "addresses": [
              "LSrP38PDkcEwE3r65Ftxi6WMnt5PoXbJnw"
            ]
          }
        }
      ],
      "hex": "01000000013184b6e95fcc93ba62745389a76e4a1f99fd3061d6094234d0aa4320cacff95eab0100006a47304402205842213b7d0166810f622f458a56afe923fa319b591019c7790a62339fcc4b110220359bd693ac8d8a3cf44ec9da36533e9106aa19a0b97cb1c84b4280b7fdf2ddde012103a29f5636c782955da050970cf082a0e1cb8137e7ff17932c669eb6efca367410ffffffff0269240200000000001976a914a11a45dd5787d7e169214d059bd510a2db62cbcb88acafff1301000000001976a91453ac8926101ffc6f5ba34297a95afab668f3860f88ac00000000"
    }, 
    {
      "txid": "116944f1414d43c10df64a0d267a6bde1aecdc8af74547fcc037b54701744a71",
      "hash": "116944f1414d43c10df64a0d267a6bde1aecdc8af74547fcc037b54701744a71",
      "version": 2,
      "size": 813,
      "vsize": 813,
      "locktime": 1358288,
      "vin": [
        {
          "txid": "7182d68982e4c484db4cce59f9fd0f5c3f88e56c10a11454e20739fa3d7d05a0",
          "vout": 1,
          "scriptSig": {
            "asm": "3045022100b13e0227b9af6afae645a8014efe5bfaca62ef58fb7a990d7a2794ae304a4382022025abf2308f31f92fbad1dc201310701aa1d238df528b187269f519399bd11d52[ALL] 03310daea2c4ca04b35a7d41d25431fc2a9f9a3eeaa1e0cf2002ce5fca5b0aefc5",
            "hex": "483045022100b13e0227b9af6afae645a8014efe5bfaca62ef58fb7a990d7a2794ae304a4382022025abf2308f31f92fbad1dc201310701aa1d238df528b187269f519399bd11d52012103310daea2c4ca04b35a7d41d25431fc2a9f9a3eeaa1e0cf2002ce5fca5b0aefc5"
          },
          "sequence": 4294967294
        }, 
        {
          "txid": "cdb0b8911b93b2094725a42948962fe79d356b10354a461135a7cdc277c4276b",
          "vout": 1,
          "scriptSig": {
            "asm": "30440220220f9b5df7b75eca1d380bd065feb3c9023a6789f62157ee01489d35fbb7e0ae02207068be5dd49871bb629e6b0ba2c75311fd6dbf0a1e55f904ab49ade304b22fd7[ALL] 03a6cf99fbd18ce930700cee4a9404ddd8e34a33a0d2d46ea8189d65df73463a56",
            "hex": "4730440220220f9b5df7b75eca1d380bd065feb3c9023a6789f62157ee01489d35fbb7e0ae02207068be5dd49871bb629e6b0ba2c75311fd6dbf0a1e55f904ab49ade304b22fd7012103a6cf99fbd18ce930700cee4a9404ddd8e34a33a0d2d46ea8189d65df73463a56"
          },
          "sequence": 4294967294
        }, 
        {
          "txid": "12e82ee3d293ad8f8f457232a7d595b075a27b6079cc39ae6d426626d55e74b9",
          "vout": 0,
          "scriptSig": {
            "asm": "30440220044066ad45fdae7ac932e1c25430ac058b11020af2462b0cccf47c1fb585f727022027275ab7dd8cd8d7ecae23aa7cd35936c434802354b4bacd4ceb18609e0febc5[ALL] 03dc1d4a144468410890271db5dae4c0c6de5d77d3f20a2fdb4b6c7fe94932ba67",
            "hex": "4730440220044066ad45fdae7ac932e1c25430ac058b11020af2462b0cccf47c1fb585f727022027275ab7dd8cd8d7ecae23aa7cd35936c434802354b4bacd4ceb18609e0febc5012103dc1d4a144468410890271db5dae4c0c6de5d77d3f20a2fdb4b6c7fe94932ba67"
          },
          "sequence": 4294967294
        }, 
        {
          "txid": "3b23b1be9d10f8e0dc37a14a5d26755b7b05354b2ded92f27be669a6fe1eada4",
          "vout": 0,
          "scriptSig": {
            "asm": "304402201460f15ca675a72787768595d2bc0f7fc1d52d04f708cb991f14fa9700e3871502205bbb7c707aa9eaa4cdc747795e67cfb86eaa17f366040d3c1b71f4f4eb8b9e82[ALL] 02d1c5c7a6b3296e56e8a28a5e97f8ba160eb8bb4b64f818515cc004463626be00",
            "hex": "47304402201460f15ca675a72787768595d2bc0f7fc1d52d04f708cb991f14fa9700e3871502205bbb7c707aa9eaa4cdc747795e67cfb86eaa17f366040d3c1b71f4f4eb8b9e82012102d1c5c7a6b3296e56e8a28a5e97f8ba160eb8bb4b64f818515cc004463626be00"
          },
          "sequence": 4294967294
        }, 
        {
          "txid": "ad13ea8dcac14e718d2950e73fafbdb6f27033a5f5fa6c278f8df18851487a70",
          "vout": 0,
          "scriptSig": {
            "asm": "3045022100976322fc85c830f775f777eada7d5288c6aebab88db7436eb61f1ca51821ac0002204adbd50a73552f5dca5a228c6cc9df0619fa1deb6a3533f7ed21aab9d7e71cd5[ALL] 0349421795659f2a3088836b32bf81e4e0d3529f6a21b9a36b7146aa2f34194549",
            "hex": "483045022100976322fc85c830f775f777eada7d5288c6aebab88db7436eb61f1ca51821ac0002204adbd50a73552f5dca5a228c6cc9df0619fa1deb6a3533f7ed21aab9d7e71cd501210349421795659f2a3088836b32bf81e4e0d3529f6a21b9a36b7146aa2f34194549"
          },
          "sequence": 4294967294
        }
      ],
      "vout": [
        {
          "value": 0.01004771,
          "n": 0,
          "scriptPubKey": {
            "asm": "OP_DUP OP_HASH160 ebaff47f8c3adbd96bcdf87bf9d27081953ab965 OP_EQUALVERIFY OP_CHECKSIG",
            "hex": "76a914ebaff47f8c3adbd96bcdf87bf9d27081953ab96588ac",
            "reqSigs": 1,
            "type": "pubkeyhash",
            "addresses": [
              "Lgi9qsAwGHr39UahGohzUjrwDYDZiGLRNK"
            ]
          }
        }, 
        {
          "value": 25.00900000,
          "n": 1,
          "scriptPubKey": {
            "asm": "OP_HASH160 9439ff4a18997cfe58dc2ce503907475b7998ea8 OP_EQUAL",
            "hex": "a9149439ff4a18997cfe58dc2ce503907475b7998ea887",
            "reqSigs": 1,
            "type": "scripthash",
            "addresses": [
              "MMQuiYD4YucjKtYDFHc6p3g3uijgRoWaBh"
            ]
          }
        }
      ],
      "hex": "0200000005a0057d3dfa3907e25414a1106ce5883f5c0ffdf959ce4cdb84c4e48289d68271010000006b483045022100b13e0227b9af6afae645a8014efe5bfaca62ef58fb7a990d7a2794ae304a4382022025abf2308f31f92fbad1dc201310701aa1d238df528b187269f519399bd11d52012103310daea2c4ca04b35a7d41d25431fc2a9f9a3eeaa1e0cf2002ce5fca5b0aefc5feffffff6b27c477c2cda73511464a35106b359de72f964829a4254709b2931b91b8b0cd010000006a4730440220220f9b5df7b75eca1d380bd065feb3c9023a6789f62157ee01489d35fbb7e0ae02207068be5dd49871bb629e6b0ba2c75311fd6dbf0a1e55f904ab49ade304b22fd7012103a6cf99fbd18ce930700cee4a9404ddd8e34a33a0d2d46ea8189d65df73463a56feffffffb9745ed52666426dae39cc79607ba275b095d5a73272458f8fad93d2e32ee812000000006a4730440220044066ad45fdae7ac932e1c25430ac058b11020af2462b0cccf47c1fb585f727022027275ab7dd8cd8d7ecae23aa7cd35936c434802354b4bacd4ceb18609e0febc5012103dc1d4a144468410890271db5dae4c0c6de5d77d3f20a2fdb4b6c7fe94932ba67feffffffa4ad1efea669e67bf292ed2d4b35057b5b75265d4aa137dce0f8109dbeb1233b000000006a47304402201460f15ca675a72787768595d2bc0f7fc1d52d04f708cb991f14fa9700e3871502205bbb7c707aa9eaa4cdc747795e67cfb86eaa17f366040d3c1b71f4f4eb8b9e82012102d1c5c7a6b3296e56e8a28a5e97f8ba160eb8bb4b64f818515cc004463626be00feffffff707a485188f18d8f276cfaf5a53370f2b6bdaf3fe750298d714ec1ca8dea13ad000000006b483045022100976322fc85c830f775f777eada7d5288c6aebab88db7436eb61f1ca51821ac0002204adbd50a73552f5dca5a228c6cc9df0619fa1deb6a3533f7ed21aab9d7e71cd501210349421795659f2a3088836b32bf81e4e0d3529f6a21b9a36b7146aa2f34194549feffffff02e3540f00000000001976a914ebaff47f8c3adbd96bcdf87bf9d27081953ab96588aca0b410950000000017a9149439ff4a18997cfe58dc2ce503907475b7998ea887d0b91400"
    }
  ],
  "time": 1517126411,
  "mediantime": 1517125528,
  "nonce": 4001736326,
  "bits": "1a047f14",
  "difficulty": 3731199.183374282,
  "chainwork": "000000000000000000000000000000000000000000000032ff02e180781eda16",
  "previousblockhash": "11819bd4e2b3408e43800e9c791a5ded0d6ba727d0362a623dfa8617589fe31f",
  "nextblockhash": "19561ec7eaf0c400082b73b5d4e8f70cfbbc25c36dd23b2c14156fdf05fa1d1f"
}
