{
  "hash": "59e5432d7f2a65a7152e93aa8214274150cc484a0d890335a0ae1809ba930471",
  "confirmations": 781,
  "strippedsize": 234,
  "size": 234,
  "weight": 936,
  "height": 1360213,
  "version": 536870912,
  "versionHex": "20000000",
  "merkleroot": "68de32c6fb7ac34996114ae6c36bd6d67d78026f394bb5854159e6a7ad7e2d89",
  "tx": [
    {
      "txid": "68de32c6fb7ac34996114ae6c36bd6d67d78026f394bb5854159e6a7ad7e2d89",
      "hash": "68de32c6fb7ac34996114ae6c36bd6d67d78026f394bb5854159e6a7ad7e2d89",
      "version": 1,
      "size": 153,
      "vsize": 153,
      "locktime": 0,
      "vin": [
        {
          "coinbase": "0355c114045a718fb52cfabe6d6d8e1134cab289def8a06730b25e096e7638e395ecdd2e3444f22fc1333da3b17a4000000000000000042f4c502f0822009ccc08000000",
          "sequence": 4294967295
        }
      ],
      "vout": [
        {
          "value": 25.00000000,
          "n": 0,
          "scriptPubKey": {
            "asm": "OP_DUP OP_HASH160 57757ed2ecf2052ff3126c397aca7defb9ca2cec OP_EQUALVERIFY OP_CHECKSIG",
            "hex": "76a91457757ed2ecf2052ff3126c397aca7defb9ca2cec88ac",
            "reqSigs": 1,
            "type": "pubkeyhash",
            "addresses": [
              "LTCPodGk5FwcJaRzH9yKnwicxzFUbxp6tN"
            ]
          }
        }
      ],
      "hex": "01000000010000000000000000000000000000000000000000000000000000000000000000ffffffff440355c114045a718fb52cfabe6d6d8e1134cab289def8a06730b25e096e7638e395ecdd2e3444f22fc1333da3b17a4000000000000000042f4c502f0822009ccc08000000ffffffff0100f90295000000001976a91457757ed2ecf2052ff3126c397aca7defb9ca2cec88ac00000000"
    }
  ],
  "time": 1517391797,
  "mediantime": 1517390869,
  "nonce": 785597074,
  "bits": "1a042eae",
  "difficulty": 4011378.762614286,
  "chainwork": "000000000000000000000000000000000000000000000034ba8fd1a6bf6e80ac",
  "previousblockhash": "218ccb0cbec38ad5223ba4d8c3052b4bf4ad8eceba580ad3dbb12f1d66f3c0a3",
  "nextblockhash": "61375d9007f10d9aa1f2e4a959fb5d7ab3f364d241324226eba0996719981c9a"
}
