{
  "hash": "5a6fab08368e4322e075e3d6fdd459889bbf6a7ac03816ea9f119d31d5aaa05b",
  "confirmations": 966,
  "strippedsize": 3075,
  "size": 3111,
  "weight": 12336,
  "height": 1360028,
  "version": 536870912,
  "versionHex": "20000000",
  "merkleroot": "25348af518197c67f261b4a0fbc396a995e02d84bb8333050847d477462b0f4f",
  "tx": [
    {
      "txid": "1dbc73bc00be96ce6d5b255f998c155c57b119a3a230a1da60b4b6a7404fb530",
      "hash": "7644dd632b565df1548ade5733de64c7042f52b354ac273b7c109711a1f31738",
      "version": 1,
      "size": 240,
      "vsize": 213,
      "locktime": 0,
      "vin": [
        {
          "coinbase": "039cc014045a27715a080351878202000000fabe6d6d4005dd0870c696d90d8cb0b02f8e22249411744a299ced5d99efe5f0ed7604764000000000000000092f4c54432e544f502f",
          "sequence": 0
        }
      ],
      "vout": [
        {
          "value": 25.02537400,
          "n": 0,
          "scriptPubKey": {
            "asm": "OP_DUP OP_HASH160 0c617fdb2ea42aed30a509595ee21ba3f6688db0 OP_EQUALVERIFY OP_CHECKSIG",
            "hex": "76a9140c617fdb2ea42aed30a509595ee21ba3f6688db088ac",
            "reqSigs": 1,
            "type": "pubkeyhash",
            "addresses": [
              "LLMRAtr3qBje2ySEa3CnZ55LA4TQMWnRY3"
            ]
          }
        }, 
        {
          "value": 0.00000000,
          "n": 1,
          "scriptPubKey": {
            "asm": "OP_RETURN aa21a9edd938d24f608ac097bf16b924c1e27559de4cc20be5c69ad22e8a82ecee1952f0",
            "hex": "6a24aa21a9edd938d24f608ac097bf16b924c1e27559de4cc20be5c69ad22e8a82ecee1952f0",
            "type": "nulldata"
          }
        }
      ],
      "hex": "010000000001010000000000000000000000000000000000000000000000000000000000000000ffffffff48039cc014045a27715a080351878202000000fabe6d6d4005dd0870c696d90d8cb0b02f8e22249411744a299ced5d99efe5f0ed7604764000000000000000092f4c54432e544f502f0000000002b8b02995000000001976a9140c617fdb2ea42aed30a509595ee21ba3f6688db088ac0000000000000000266a24aa21a9edd938d24f608ac097bf16b924c1e27559de4cc20be5c69ad22e8a82ecee1952f00120000000000000000000000000000000000000000000000000000000000000000000000000"
    }, 
    {
      "txid": "bb943f18d64c02187877d6bc7f243745ea1070eb1621f86ed87afaea595b1a81",
      "hash": "bb943f18d64c02187877d6bc7f243745ea1070eb1621f86ed87afaea595b1a81",
      "version": 1,
      "size": 1101,
      "vsize": 1101,
      "locktime": 0,
      "vin": [
        {
          "txid": "5990d40e17f138e8a2ea47cde86a38ceeeef9e8e8cfd180d84ee9101905a5ddc",
          "vout": 0,
          "scriptSig": {
            "asm": "0 304402207403a73ccef6e18167d8ce45ae18a57d12401fe8afff48edb23933ac86ca171d02204d1d69d3ee3dcdcb1ed5bd57c884571138989968c24c67326a87ffadafe6f472[ALL] 3045022100d4743829c224c5c14461677136fefb09d198db937786574d6f20192c2fcd5a9c02207f6d88cc5279628353b95958af9b5867dc2e7ff28f78ea0740c522a38c0532a8[ALL] 5221038e78665006f36029c32c004a51b81c2929b43491a5813f2f79574f8feec8a2b221035393430acb33f9f82539233a3bc98dd79eb1dcdd121b66039e11ee8ce90b68c621038e79401cd543ce2a01999aa8e12c24f3575f5f35c01b742a9c89477c5a0c9e7b53ae",
            "hex": "0047304402207403a73ccef6e18167d8ce45ae18a57d12401fe8afff48edb23933ac86ca171d02204d1d69d3ee3dcdcb1ed5bd57c884571138989968c24c67326a87ffadafe6f47201483045022100d4743829c224c5c14461677136fefb09d198db937786574d6f20192c2fcd5a9c02207f6d88cc5279628353b95958af9b5867dc2e7ff28f78ea0740c522a38c0532a8014c695221038e78665006f36029c32c004a51b81c2929b43491a5813f2f79574f8feec8a2b221035393430acb33f9f82539233a3bc98dd79eb1dcdd121b66039e11ee8ce90b68c621038e79401cd543ce2a01999aa8e12c24f3575f5f35c01b742a9c89477c5a0c9e7b53ae"
          },
          "sequence": 4294967295
        }, 
        {
          "txid": "47b48a1375707d6349a3d39ca1ccc8a84be4ef856f9660044e4edfd57dd7140c",
          "vout": 4,
          "scriptSig": {
            "asm": "0 3045022100949b65f748d6d682e9678609c513f8f1c81b501022f9e2f22b64e574dc7d461b02204d02cc073047d6cf3c40857f47dcfe49c10bb5b2bf8214add7b57d99aaf340d1[ALL] 3045022100a64108db30d1a62e62210b36504d45de351ddbbd2bf5f676294e6b9a58545cd00220185250829875af676e2387a7f39fd8cc90a0a3f8af665f37e4f0934679cacc40[ALL] 522102755a62097b53b29de102aa6dbed7f5775124e03e0c3a3df674dca408e3e01d9b21023e4f8b7bdd0eca5c93521c8eb405b546d70a217181a0c01a1f7d0b7e8b23212a2103d40d68b4187d80e3ad9f08bbd9484b756b31ef4907d154ab81f07e40bae9282c53ae",
            "hex": "00483045022100949b65f748d6d682e9678609c513f8f1c81b501022f9e2f22b64e574dc7d461b02204d02cc073047d6cf3c40857f47dcfe49c10bb5b2bf8214add7b57d99aaf340d101483045022100a64108db30d1a62e62210b36504d45de351ddbbd2bf5f676294e6b9a58545cd00220185250829875af676e2387a7f39fd8cc90a0a3f8af665f37e4f0934679cacc40014c69522102755a62097b53b29de102aa6dbed7f5775124e03e0c3a3df674dca408e3e01d9b21023e4f8b7bdd0eca5c93521c8eb405b546d70a217181a0c01a1f7d0b7e8b23212a2103d40d68b4187d80e3ad9f08bbd9484b756b31ef4907d154ab81f07e40bae9282c53ae"
          },
          "sequence": 4294967295
        }, 
        {
          "txid": "cb396c3469c4d54d1c387bfa5a5c6f0a81f37ff25ee73d2e9d9e6776650f0e45",
          "vout": 0,
          "scriptSig": {
            "asm": "0 3045022100ab1ffd4b8cbbc3f19868ae9689448b5588eba6a1b34bb88e21771adc498d1e5002206dda7cad4c10dfd6add688e5ff542bd12584fd6cf6ca7871ea2d002314f0c0b2[ALL] 304402202d80dbf11b4624f9e611bfe8ab17d419c5c9f4800eaa624d31a556b9d9e1065602205cec4eb3d1b9d5eca820142353d052153912e1c5d8c109749010d7fae0c6e64f[ALL] 522102250c201ba1c8ec2a6e571a2b2aa98bfbe6e4b3307114db453d6fedab9bf976d5210399dbc2cff457e350277988ebc537cb3ce083e073151f492942a2663f6a2af3ac2102017559c9f09b4a8d973b7e608e051db53bb3fdb11db32198ba53924888f3c23b53ae",
            "hex": "00483045022100ab1ffd4b8cbbc3f19868ae9689448b5588eba6a1b34bb88e21771adc498d1e5002206dda7cad4c10dfd6add688e5ff542bd12584fd6cf6ca7871ea2d002314f0c0b20147304402202d80dbf11b4624f9e611bfe8ab17d419c5c9f4800eaa624d31a556b9d9e1065602205cec4eb3d1b9d5eca820142353d052153912e1c5d8c109749010d7fae0c6e64f014c69522102250c201ba1c8ec2a6e571a2b2aa98bfbe6e4b3307114db453d6fedab9bf976d5210399dbc2cff457e350277988ebc537cb3ce083e073151f492942a2663f6a2af3ac2102017559c9f09b4a8d973b7e608e051db53bb3fdb11db32198ba53924888f3c23b53ae"
          },
          "sequence": 4294967295
        }
      ],
      "vout": [
        {
          "value": 100.00000000,
          "n": 0,
          "scriptPubKey": {
            "asm": "OP_DUP OP_HASH160 f811ddf07c7dfa686300beed1afecc0c5dfe4c6e OP_EQUALVERIFY OP_CHECKSIG",
            "hex": "76a914f811ddf07c7dfa686300beed1afecc0c5dfe4c6e88ac",
            "reqSigs": 1,
            "type": "pubkeyhash",
            "addresses": [
              "LhqdFCp4SBu33qShr4aHt6Nb92mXLQHd3o"
            ]
          }
        }, 
        {
          "value": 12.30204481,
          "n": 1,
          "scriptPubKey": {
            "asm": "OP_DUP OP_HASH160 79941dca9b96d90e13d9a6da0d3329b7e7f5c45f OP_EQUALVERIFY OP_CHECKSIG",
            "hex": "76a91479941dca9b96d90e13d9a6da0d3329b7e7f5c45f88ac",
            "reqSigs": 1,
            "type": "pubkeyhash",
            "addresses": [
              "LWJoTjKdwtjQwTcBnmvvMi3USh8bKKZdwz"
            ]
          }
        }, 
        {
          "value": 2.55000000,
          "n": 2,
          "scriptPubKey": {
            "asm": "OP_DUP OP_HASH160 1a1a85bfdf2953552474ca5bda156fa0133a56df OP_EQUALVERIFY OP_CHECKSIG",
            "hex": "76a9141a1a85bfdf2953552474ca5bda156fa0133a56df88ac",
            "reqSigs": 1,
            "type": "pubkeyhash",
            "addresses": [
              "LMbyc1jCVHbHC4pbdPB6r4Gr5qjjAwgrNq"
            ]
          }
        }, 
        {
          "value": 20.89000000,
          "n": 3,
          "scriptPubKey": {
            "asm": "OP_DUP OP_HASH160 27df324393f0080d73f4257cd93f5e6d9594e384 OP_EQUALVERIFY OP_CHECKSIG",
            "hex": "76a91427df324393f0080d73f4257cd93f5e6d9594e38488ac",
            "reqSigs": 1,
            "type": "pubkeyhash",
            "addresses": [
              "LNrmzeYu1Rv6ZMwYSVpqHm6yCRGnDT1WBR"
            ]
          }
        }, 
        {
          "value": 705.79361519,
          "n": 4,
          "scriptPubKey": {
            "asm": "OP_HASH160 1f8ae751d8ff7114b67cbdc73e202e2169f9bab6 OP_EQUAL",
            "hex": "a9141f8ae751d8ff7114b67cbdc73e202e2169f9bab687",
            "reqSigs": 1,
            "type": "scripthash",
            "addresses": [
              "MAmwaZt9Uv6xugzqWShda7fmebr3vvsa32"
            ]
          }
        }, 
        {
          "value": 5.05000000,
          "n": 5,
          "scriptPubKey": {
            "asm": "OP_DUP OP_HASH160 6ec646ed7e78e439d599cdb628cc0668ee6c1eeb OP_EQUALVERIFY OP_CHECKSIG",
            "hex": "76a9146ec646ed7e78e439d599cdb628cc0668ee6c1eeb88ac",
            "reqSigs": 1,
            "type": "pubkeyhash",
            "addresses": [
              "LVKg7r2YMYN3xKJNvffaeYXzhbXspEoVP8"
            ]
          }
        }
      ],
      "hex": "0100000003dc5d5a900191ee840d18fd8c8e9eefeece386ae8cd47eaa2e838f1170ed4905900000000fdfd000047304402207403a73ccef6e18167d8ce45ae18a57d12401fe8afff48edb23933ac86ca171d02204d1d69d3ee3dcdcb1ed5bd57c884571138989968c24c67326a87ffadafe6f47201483045022100d4743829c224c5c14461677136fefb09d198db937786574d6f20192c2fcd5a9c02207f6d88cc5279628353b95958af9b5867dc2e7ff28f78ea0740c522a38c0532a8014c695221038e78665006f36029c32c004a51b81c2929b43491a5813f2f79574f8feec8a2b221035393430acb33f9f82539233a3bc98dd79eb1dcdd121b66039e11ee8ce90b68c621038e79401cd543ce2a01999aa8e12c24f3575f5f35c01b742a9c89477c5a0c9e7b53aeffffffff0c14d77dd5df4e4e0460966f85efe44ba8c8cca19cd3a349637d7075138ab44704000000fdfe0000483045022100949b65f748d6d682e9678609c513f8f1c81b501022f9e2f22b64e574dc7d461b02204d02cc073047d6cf3c40857f47dcfe49c10bb5b2bf8214add7b57d99aaf340d101483045022100a64108db30d1a62e62210b36504d45de351ddbbd2bf5f676294e6b9a58545cd00220185250829875af676e2387a7f39fd8cc90a0a3f8af665f37e4f0934679cacc40014c69522102755a62097b53b29de102aa6dbed7f5775124e03e0c3a3df674dca408e3e01d9b21023e4f8b7bdd0eca5c93521c8eb405b546d70a217181a0c01a1f7d0b7e8b23212a2103d40d68b4187d80e3ad9f08bbd9484b756b31ef4907d154ab81f07e40bae9282c53aeffffffff450e0f6576679e9d2e3de75ef27ff3810a6f5c5afa7b381c4dd5c469346c39cb00000000fdfd0000483045022100ab1ffd4b8cbbc3f19868ae9689448b5588eba6a1b34bb88e21771adc498d1e5002206dda7cad4c10dfd6add688e5ff542bd12584fd6cf6ca7871ea2d002314f0c0b20147304402202d80dbf11b4624f9e611bfe8ab17d419c5c9f4800eaa624d31a556b9d9e1065602205cec4eb3d1b9d5eca820142353d052153912e1c5d8c109749010d7fae0c6e64f014c69522102250c201ba1c8ec2a6e571a2b2aa98bfbe6e4b3307114db453d6fedab9bf976d5210399dbc2cff457e350277988ebc537cb3ce083e073151f492942a2663f6a2af3ac2102017559c9f09b4a8d973b7e608e051db53bb3fdb11db32198ba53924888f3c23b53aeffffffff0600e40b54020000001976a914f811ddf07c7dfa686300beed1afecc0c5dfe4c6e88ac416e5349000000001976a91479941dca9b96d90e13d9a6da0d3329b7e7f5c45f88acc0fd320f000000001976a9141a1a85bfdf2953552474ca5bda156fa0133a56df88ac409c837c000000001976a91427df324393f0080d73f4257cd93f5e6d9594e38488acef96db6e1000000017a9141f8ae751d8ff7114b67cbdc73e202e2169f9bab68740b0191e000000001976a9146ec646ed7e78e439d599cdb628cc0668ee6c1eeb88ac00000000"
    }, 
    {
      "txid": "18dcbb1317f054b3392be8be5171d309ed140b6f37f68ea42e2b9e82635ce1f0",
      "hash": "18dcbb1317f054b3392be8be5171d309ed140b6f37f68ea42e2b9e82635ce1f0",
      "version": 1,
      "size": 260,
      "vsize": 260,
      "locktime": 0,
      "vin": [
        {
          "txid": "cb46f9107e02d0bfdf60b8e3b7f82e9b59ed48cd8f140809bd09ea517582e987",
          "vout": 5,
          "scriptSig": {
            "asm": "3045022100ee9016b4db46461de05106d8f055c4450805ce232f4a62589ca0af9611bedb3502202c5349850dc14952dc389cd007128a87e6f9baf50f504f5e1775558e231fbff9[ALL] 03388f05ae0915c24f1862b1c89363d7024e3adf8b23d329c6305fdee670a2cb2b",
            "hex": "483045022100ee9016b4db46461de05106d8f055c4450805ce232f4a62589ca0af9611bedb3502202c5349850dc14952dc389cd007128a87e6f9baf50f504f5e1775558e231fbff9012103388f05ae0915c24f1862b1c89363d7024e3adf8b23d329c6305fdee670a2cb2b"
          },
          "sequence": 4294967295
        }
      ],
      "vout": [
        {
          "value": 0.63183180,
          "n": 0,
          "scriptPubKey": {
            "asm": "OP_DUP OP_HASH160 be356fc3e99a063e0ae7acaca0ec4d95188b1a97 OP_EQUALVERIFY OP_CHECKSIG",
            "hex": "76a914be356fc3e99a063e0ae7acaca0ec4d95188b1a9788ac",
            "reqSigs": 1,
            "type": "pubkeyhash",
            "addresses": [
              "LcZgfVwBAkfNk4Bxcm9DmcekLHviwrFVWo"
            ]
          }
        }, 
        {
          "value": 9.99900000,
          "n": 1,
          "scriptPubKey": {
            "asm": "OP_DUP OP_HASH160 16e7998efa824bba9065f2b2a6760def12951970 OP_EQUALVERIFY OP_CHECKSIG",
            "hex": "76a91416e7998efa824bba9065f2b2a6760def1295197088ac",
            "reqSigs": 1,
            "type": "pubkeyhash",
            "addresses": [
              "LMK4aGjhcBcKKtZj1VvS6kXQgJeMQbx9vM"
            ]
          }
        }, 
        {
          "value": 0.00067276,
          "n": 2,
          "scriptPubKey": {
            "asm": "OP_DUP OP_HASH160 68449ae73c7c1f033ebbc839ede65361194db599 OP_EQUALVERIFY OP_CHECKSIG",
            "hex": "76a91468449ae73c7c1f033ebbc839ede65361194db59988ac",
            "reqSigs": 1,
            "type": "pubkeyhash",
            "addresses": [
              "LUjGivpG5em6BJEwN31Yi6v1DvteSLrSFc"
            ]
          }
        }
      ],
      "hex": "010000000187e9827551ea09bd0908148fcd48ed599b2ef8b7e3b860dfbfd0027e10f946cb050000006b483045022100ee9016b4db46461de05106d8f055c4450805ce232f4a62589ca0af9611bedb3502202c5349850dc14952dc389cd007128a87e6f9baf50f504f5e1775558e231fbff9012103388f05ae0915c24f1862b1c89363d7024e3adf8b23d329c6305fdee670a2cb2bffffffff034c19c403000000001976a914be356fc3e99a063e0ae7acaca0ec4d95188b1a9788ac6043993b000000001976a91416e7998efa824bba9065f2b2a6760def1295197088accc060100000000001976a91468449ae73c7c1f033ebbc839ede65361194db59988ac00000000"
    }, 
    {
      "txid": "9eff7019c23fdab1a9d362c964434af5498bdc14e986097f2898965037c60758",
      "hash": "9eff7019c23fdab1a9d362c964434af5498bdc14e986097f2898965037c60758",
      "version": 1,
      "size": 264,
      "vsize": 264,
      "locktime": 0,
      "vin": [
        {
          "txid": "930fa580e0d931c901ad1b5300891606e7f99e4991a56ac5a67aa3ddd022f233",
          "vout": 1,
          "scriptSig": {
            "asm": "0 30440220698ed2a5f8d27dd7e76cfeb004917d18e53e5b9b25afca398421aaae32e59fc402203c7fd2f313da9759b287567d445d329dbd98b0ebb3ba4a43b54faf5ed162dae8[ALL] 512103220ee4b1a1b10d2dad793f814aaf87ae262afde2b3a76aa690a07d3771b71f3e21036090442630216e9a44b53cc0c95f6af16846611dbe4d000c6d81b7450f3cf6c452ae",
            "hex": "004730440220698ed2a5f8d27dd7e76cfeb004917d18e53e5b9b25afca398421aaae32e59fc402203c7fd2f313da9759b287567d445d329dbd98b0ebb3ba4a43b54faf5ed162dae80147512103220ee4b1a1b10d2dad793f814aaf87ae262afde2b3a76aa690a07d3771b71f3e21036090442630216e9a44b53cc0c95f6af16846611dbe4d000c6d81b7450f3cf6c452ae"
          },
          "sequence": 4294967295
        }
      ],
      "vout": [
        {
          "value": 0.12000000,
          "n": 0,
          "scriptPubKey": {
            "asm": "OP_DUP OP_HASH160 4792686032a2f26c8e1eef799b79ddf7e075054c OP_EQUALVERIFY OP_CHECKSIG",
            "hex": "76a9144792686032a2f26c8e1eef799b79ddf7e075054c88ac",
            "reqSigs": 1,
            "type": "pubkeyhash",
            "addresses": [
              "LRkPdRHcPpP8S7oxHq3iaZ4w59VE3d7BC3"
            ]
          }
        }, 
        {
          "value": 2.86000000,
          "n": 1,
          "scriptPubKey": {
            "asm": "OP_DUP OP_HASH160 2d34283c8003b03fc67ccbc0ffcb6c1cdd3ed965 OP_EQUALVERIFY OP_CHECKSIG",
            "hex": "76a9142d34283c8003b03fc67ccbc0ffcb6c1cdd3ed96588ac",
            "reqSigs": 1,
            "type": "pubkeyhash",
            "addresses": [
              "LPLy9njUYPnUHAugNwBvrZyj748fDoMMYS"
            ]
          }
        }
      ],
      "hex": "010000000133f222d0dda37aa6c56aa591499ef9e706168900531bad01c931d9e080a50f930100000091004730440220698ed2a5f8d27dd7e76cfeb004917d18e53e5b9b25afca398421aaae32e59fc402203c7fd2f313da9759b287567d445d329dbd98b0ebb3ba4a43b54faf5ed162dae80147512103220ee4b1a1b10d2dad793f814aaf87ae262afde2b3a76aa690a07d3771b71f3e21036090442630216e9a44b53cc0c95f6af16846611dbe4d000c6d81b7450f3cf6c452aeffffffff02001bb700000000001976a9144792686032a2f26c8e1eef799b79ddf7e075054c88ac80030c11000000001976a9142d34283c8003b03fc67ccbc0ffcb6c1cdd3ed96588ac00000000"
    }, 
    {
      "txid": "67aa21f61113451c2208fb45785db28526647df600d4197dc8c6537f7151b3c1",
      "hash": "67aa21f61113451c2208fb45785db28526647df600d4197dc8c6537f7151b3c1",
      "version": 1,
      "size": 264,
      "vsize": 264,
      "locktime": 0,
      "vin": [
        {
          "txid": "28a79cc1037b6c0be5ef1a500439952c2dbbf27009c827e3f42771afefbd9100",
          "vout": 1,
          "scriptSig": {
            "asm": "0 3044022041033ea6d7d1bb1db0c80477eb74d454656208c966d2b464c405fb3678feb2ec02201242dc9705bab6561825df93360e24a06f9d9887c5bbf2f8e572f9435e456fbe[ALL] 512103220ee4b1a1b10d2dad793f814aaf87ae262afde2b3a76aa690a07d3771b71f3e210328e25b43ee222ec5cc3648f2187fe31b2580d5d11335725b2964d8f8cfa0123852ae",
            "hex": "00473044022041033ea6d7d1bb1db0c80477eb74d454656208c966d2b464c405fb3678feb2ec02201242dc9705bab6561825df93360e24a06f9d9887c5bbf2f8e572f9435e456fbe0147512103220ee4b1a1b10d2dad793f814aaf87ae262afde2b3a76aa690a07d3771b71f3e210328e25b43ee222ec5cc3648f2187fe31b2580d5d11335725b2964d8f8cfa0123852ae"
          },
          "sequence": 4294967295
        }
      ],
      "vout": [
        {
          "value": 0.07300000,
          "n": 0,
          "scriptPubKey": {
            "asm": "OP_DUP OP_HASH160 91ab38b892578c4562f52c190bc991455418bb97 OP_EQUALVERIFY OP_CHECKSIG",
            "hex": "76a91491ab38b892578c4562f52c190bc991455418bb9788ac",
            "reqSigs": 1,
            "type": "pubkeyhash",
            "addresses": [
              "LYWBMiDTVFHVmmmGiS4zaViVEtqp39iFsj"
            ]
          }
        }, 
        {
          "value": 1.72800000,
          "n": 1,
          "scriptPubKey": {
            "asm": "OP_DUP OP_HASH160 4916f0a49349fec27c7c32d7154123ca836b107f OP_EQUALVERIFY OP_CHECKSIG",
            "hex": "76a9144916f0a49349fec27c7c32d7154123ca836b107f88ac",
            "reqSigs": 1,
            "type": "pubkeyhash",
            "addresses": [
              "LRtR57iMCR4YcfXZ8sdZbiCdwXYWPosGcT"
            ]
          }
        }
      ],
      "hex": "01000000010091bdefaf7127f4e327c80970f2bb2d2c953904501aefe50b6c7b03c19ca728010000009100473044022041033ea6d7d1bb1db0c80477eb74d454656208c966d2b464c405fb3678feb2ec02201242dc9705bab6561825df93360e24a06f9d9887c5bbf2f8e572f9435e456fbe0147512103220ee4b1a1b10d2dad793f814aaf87ae262afde2b3a76aa690a07d3771b71f3e210328e25b43ee222ec5cc3648f2187fe31b2580d5d11335725b2964d8f8cfa0123852aeffffffff02a0636f00000000001976a91491ab38b892578c4562f52c190bc991455418bb9788ac00b84c0a000000001976a9144916f0a49349fec27c7c32d7154123ca836b107f88ac00000000"
    }, 
    {
      "txid": "481cec0499bc4cc55a768769b4494c52633357cd1634c3e48ea65a801e63860b",
      "hash": "481cec0499bc4cc55a768769b4494c52633357cd1634c3e48ea65a801e63860b",
      "version": 1,
      "size": 225,
      "vsize": 225,
      "locktime": 0,
      "vin": [
        {
          "txid": "9f0786e63af43b654f17357f02e5e3288a178e8f58b8a5c3385e1bd5e6cac41b",
          "vout": 0,
          "scriptSig": {
            "asm": "304402200ecd39c872fb981c9b20500e0fe8684266fd41d477f3fcefaf34a1456b122c3a02200ac54d83c38704a69ca323a9461985a3b88b5272cc62d9ad00011c6a5f8ff63b[ALL] 03693a558422d18bb6603e754c3c3a5bace202426e65c5f1edccc7120c5f7c247c",
            "hex": "47304402200ecd39c872fb981c9b20500e0fe8684266fd41d477f3fcefaf34a1456b122c3a02200ac54d83c38704a69ca323a9461985a3b88b5272cc62d9ad00011c6a5f8ff63b012103693a558422d18bb6603e754c3c3a5bace202426e65c5f1edccc7120c5f7c247c"
          },
          "sequence": 4294967295
        }
      ],
      "vout": [
        {
          "value": 1.23408384,
          "n": 0,
          "scriptPubKey": {
            "asm": "OP_DUP OP_HASH160 c1ef22ee2fe611ba857466f2acc96184ff791d85 OP_EQUALVERIFY OP_CHECKSIG",
            "hex": "76a914c1ef22ee2fe611ba857466f2acc96184ff791d8588ac",
            "reqSigs": 1,
            "type": "pubkeyhash",
            "addresses": [
              "LcuP9jAw5Qc7sT6tHtctRddLAtfC6ojnYi"
            ]
          }
        }, 
        {
          "value": 0.99947194,
          "n": 1,
          "scriptPubKey": {
            "asm": "OP_DUP OP_HASH160 c2cc8fc2c76b03f239cb5d4289b21fd316e4c07b OP_EQUALVERIFY OP_CHECKSIG",
            "hex": "76a914c2cc8fc2c76b03f239cb5d4289b21fd316e4c07b88ac",
            "reqSigs": 1,
            "type": "pubkeyhash",
            "addresses": [
              "LcyxQccijXQaZQAtBpX5muaUekPCHLJEHj"
            ]
          }
        }
      ],
      "hex": "01000000011bc4cae6d51b5e38c3a5b8588f8e178a28e3e5027f35174f653bf43ae686079f000000006a47304402200ecd39c872fb981c9b20500e0fe8684266fd41d477f3fcefaf34a1456b122c3a02200ac54d83c38704a69ca323a9461985a3b88b5272cc62d9ad00011c6a5f8ff63b012103693a558422d18bb6603e754c3c3a5bace202426e65c5f1edccc7120c5f7c247cffffffff0200105b07000000001976a914c1ef22ee2fe611ba857466f2acc96184ff791d8588acba12f505000000001976a914c2cc8fc2c76b03f239cb5d4289b21fd316e4c07b88ac00000000"
    }, 
    {
      "txid": "cc224028fa4123a79bc14b879f386bc91fe149129ee86a294473d62936b2c628",
      "hash": "cc224028fa4123a79bc14b879f386bc91fe149129ee86a294473d62936b2c628",
      "version": 1,
      "size": 225,
      "vsize": 225,
      "locktime": 0,
      "vin": [
        {
          "txid": "13d3b81d1cc078f4c0241a052f27b9b735fcdde7bb3bebccfd8b58d6c8eb05a8",
          "vout": 1,
          "scriptSig": {
            "asm": "304402200145392f0eddf3d3393fe8111658d362ae03e2cd781066f75119e3cbb56e6a95022058ab4b0031992376364657387a73beb71ba72c5c35cec7270b17f470b9c164c1[ALL] 03532e64e3fc15a8b9a2af947cda8820de13f5f112663bc24061e08924f72d18e2",
            "hex": "47304402200145392f0eddf3d3393fe8111658d362ae03e2cd781066f75119e3cbb56e6a95022058ab4b0031992376364657387a73beb71ba72c5c35cec7270b17f470b9c164c1012103532e64e3fc15a8b9a2af947cda8820de13f5f112663bc24061e08924f72d18e2"
          },
          "sequence": 4294967295
        }
      ],
      "vout": [
        {
          "value": 6.91457080,
          "n": 0,
          "scriptPubKey": {
            "asm": "OP_DUP OP_HASH160 b820b60bd53292f000bc07d9b853ac9cf86c8c0f OP_EQUALVERIFY OP_CHECKSIG",
            "hex": "76a914b820b60bd53292f000bc07d9b853ac9cf86c8c0f88ac",
            "reqSigs": 1,
            "type": "pubkeyhash",
            "addresses": [
              "Lc1XnKQUA6ZhdmiVoGmgnkJ8RrSRZ58Vd7"
            ]
          }
        }, 
        {
          "value": 1.99977400,
          "n": 1,
          "scriptPubKey": {
            "asm": "OP_DUP OP_HASH160 aee243b1d059b826f30e32b15492e4d1f1347a06 OP_EQUALVERIFY OP_CHECKSIG",
            "hex": "76a914aee243b1d059b826f30e32b15492e4d1f1347a0688ac",
            "reqSigs": 1,
            "type": "pubkeyhash",
            "addresses": [
              "LbAetihpxj5puwJQTtjcS4xVjEozqXQTny"
            ]
          }
        }
      ],
      "hex": "0100000001a805ebc8d6588bfdcceb3bbbe7ddfc35b7b9272f051a24c0f478c01c1db8d313010000006a47304402200145392f0eddf3d3393fe8111658d362ae03e2cd781066f75119e3cbb56e6a95022058ab4b0031992376364657387a73beb71ba72c5c35cec7270b17f470b9c164c1012103532e64e3fc15a8b9a2af947cda8820de13f5f112663bc24061e08924f72d18e2ffffffff0238cc3629000000001976a914b820b60bd53292f000bc07d9b853ac9cf86c8c0f88acb869eb0b000000001976a914aee243b1d059b826f30e32b15492e4d1f1347a0688ac00000000"
    }, 
    {
      "txid": "f292c25bb60dc949bf568c03459d80a430dc7a366e82a6c19376a20268cb4df5",
      "hash": "f292c25bb60dc949bf568c03459d80a430dc7a366e82a6c19376a20268cb4df5",
      "version": 1,
      "size": 225,
      "vsize": 225,
      "locktime": 0,
      "vin": [
        {
          "txid": "80712e4d72045e087fc35fa6d07b63bbe5cbd2217ac4b7a4206bdc36b31d94f4",
          "vout": 0,
          "scriptSig": {
            "asm": "304402205b82538a5e15aca36993266cf53af5f6a8fbb4ca96d1ba83526732f7f1474fe80220585e46d4d86805dd353fef5c36f5f83848bff6ebcb123623b8547a6ae4ba1666[ALL] 02f2f0a15647674b9f27abbd80fdae7b52aba22ad3d735b1ba7ab41b99de0990a3",
            "hex": "47304402205b82538a5e15aca36993266cf53af5f6a8fbb4ca96d1ba83526732f7f1474fe80220585e46d4d86805dd353fef5c36f5f83848bff6ebcb123623b8547a6ae4ba1666012102f2f0a15647674b9f27abbd80fdae7b52aba22ad3d735b1ba7ab41b99de0990a3"
          },
          "sequence": 4294967295
        }
      ],
      "vout": [
        {
          "value": 0.00054826,
          "n": 0,
          "scriptPubKey": {
            "asm": "OP_DUP OP_HASH160 fea311e6a7ba767739af04bdc14f8d9bd1ae0cf7 OP_EQUALVERIFY OP_CHECKSIG",
            "hex": "76a914fea311e6a7ba767739af04bdc14f8d9bd1ae0cf788ac",
            "reqSigs": 1,
            "type": "pubkeyhash",
            "addresses": [
              "LiSMFEar2QVi4avoKesxFNbrwMM4wKgAdP"
            ]
          }
        }, 
        {
          "value": 0.03102507,
          "n": 1,
          "scriptPubKey": {
            "asm": "OP_DUP OP_HASH160 4bba42cb89e5fdd58a33bd972b1c1bac20305bc0 OP_EQUALVERIFY OP_CHECKSIG",
            "hex": "76a9144bba42cb89e5fdd58a33bd972b1c1bac20305bc088ac",
            "reqSigs": 1,
            "type": "pubkeyhash",
            "addresses": [
              "LS8N5EdQaaJcf9hT17JrbaYTz7QA1n8BFs"
            ]
          }
        }
      ],
      "hex": "0100000001f4941db336dc6b20a4b7c47a21d2cbe5bb637bd0a65fc37f085e04724d2e7180000000006a47304402205b82538a5e15aca36993266cf53af5f6a8fbb4ca96d1ba83526732f7f1474fe80220585e46d4d86805dd353fef5c36f5f83848bff6ebcb123623b8547a6ae4ba1666012102f2f0a15647674b9f27abbd80fdae7b52aba22ad3d735b1ba7ab41b99de0990a3ffffffff022ad60000000000001976a914fea311e6a7ba767739af04bdc14f8d9bd1ae0cf788ac2b572f00000000001976a9144bba42cb89e5fdd58a33bd972b1c1bac20305bc088ac00000000"
    }, 
    {
      "txid": "fe31a244e292c16189bf30054c1fc34df5532785eaab1d5e9c64c85914d07f0b",
      "hash": "fe31a244e292c16189bf30054c1fc34df5532785eaab1d5e9c64c85914d07f0b",
      "version": 1,
      "size": 226,
      "vsize": 226,
      "locktime": 0,
      "vin": [
        {
          "txid": "8cd16779ab60da1d01c71ee15cb5bc2475456a0f3aa6e763e81fc8da5d06bc9a",
          "vout": 0,
          "scriptSig": {
            "asm": "3045022100b9c14d9f542d6306d89f5fa28804fe645ac958159b77dd9429f9551fcfe2b9ed022043577732a61e101769e0d91d59117904f89bc8e042d9c6744442c8fd7904614e[ALL] 02f939699d8e497b5ffec60b9ab50768656d00a364e35490b0e509dd3cb4fecdb7",
            "hex": "483045022100b9c14d9f542d6306d89f5fa28804fe645ac958159b77dd9429f9551fcfe2b9ed022043577732a61e101769e0d91d59117904f89bc8e042d9c6744442c8fd7904614e012102f939699d8e497b5ffec60b9ab50768656d00a364e35490b0e509dd3cb4fecdb7"
          },
          "sequence": 4294967295
        }
      ],
      "vout": [
        {
          "value": 0.44998759,
          "n": 0,
          "scriptPubKey": {
            "asm": "OP_DUP OP_HASH160 2001ad6679033061367dc3363245f56ab9365510 OP_EQUALVERIFY OP_CHECKSIG",
            "hex": "76a9142001ad6679033061367dc3363245f56ab936551088ac",
            "reqSigs": 1,
            "type": "pubkeyhash",
            "addresses": [
              "LN9BttttKYmiWhnYpkrwHdgkjst1c19Bff"
            ]
          }
        }, 
        {
          "value": 0.00968564,
          "n": 1,
          "scriptPubKey": {
            "asm": "OP_DUP OP_HASH160 45475b508d2a5ca9e47d02a79521b4751577a660 OP_EQUALVERIFY OP_CHECKSIG",
            "hex": "76a91445475b508d2a5ca9e47d02a79521b4751577a66088ac",
            "reqSigs": 1,
            "type": "pubkeyhash",
            "addresses": [
              "LRYGNQ8W9Uc2pAThjvKPv3HwcyRtnj9Q5j"
            ]
          }
        }
      ],
      "hex": "01000000019abc065ddac81fe863e7a63a0f6a457524bcb55ce11ec7011dda60ab7967d18c000000006b483045022100b9c14d9f542d6306d89f5fa28804fe645ac958159b77dd9429f9551fcfe2b9ed022043577732a61e101769e0d91d59117904f89bc8e042d9c6744442c8fd7904614e012102f939699d8e497b5ffec60b9ab50768656d00a364e35490b0e509dd3cb4fecdb7ffffffff0267a0ae02000000001976a9142001ad6679033061367dc3363245f56ab936551088ac74c70e00000000001976a91445475b508d2a5ca9e47d02a79521b4751577a66088ac00000000"
    }
  ],
  "time": 1517365082,
  "mediantime": 1517364522,
  "nonce": 875115731,
  "bits": "1a042eae",
  "difficulty": 4011378.762614286,
  "chainwork": "0000000000000000000000000000000000000000000000348e54057bddda01ba",
  "previousblockhash": "da8f3dba94683acd3296ecb2fc7b537c788d5e19e701afc48d7cbaf9dd6e6cfc",
  "nextblockhash": "ec9c2d3e116857daf8a278dca89232775ef5ce68dd96e24277efe39e1cf67dd4"
}
