{
  "hash": "5a82546a5a82dd1047ad1808074c034e065ba1264d09cf7575b3f9f5dff2309c",
  "confirmations": 21,
  "strippedsize": 253,
  "size": 253,
  "weight": 1012,
  "height": 1360973,
  "version": 536870912,
  "versionHex": "20000000",
  "merkleroot": "691644a84d5e97f4ef7f34b7fec7d4241322992bf70e65a898f31d78bb2dcdc2",
  "tx": [
    {
      "txid": "691644a84d5e97f4ef7f34b7fec7d4241322992bf70e65a898f31d78bb2dcdc2",
      "hash": "691644a84d5e97f4ef7f34b7fec7d4241322992bf70e65a898f31d78bb2dcdc2",
      "version": 1,
      "size": 172,
      "vsize": 172,
      "locktime": 0,
      "vin": [
        {
          "coinbase": "034dc4141a4d696e656420627920416e74506f6f6c20626a341e205a734a18fabe6d6d17ff2a0a84d179bffde43bd7e2d602ec6e66ef2869d3a92d065ab6ffdb90c5220400000000000000211b00000000000002000000",
          "sequence": 4294967295
        }
      ],
      "vout": [
        {
          "value": 25.00000000,
          "n": 0,
          "scriptPubKey": {
            "asm": "OP_DUP OP_HASH160 0ff3ccc5e8be88afe24b5d634e5852d474dbdff1 OP_EQUALVERIFY OP_CHECKSIG",
            "hex": "76a9140ff3ccc5e8be88afe24b5d634e5852d474dbdff188ac",
            "reqSigs": 1,
            "type": "pubkeyhash",
            "addresses": [
              "LLgJTbzZMsRTCUF1NtvvL9SR1a4pVieW89"
            ]
          }
        }
      ],
      "hex": "01000000010000000000000000000000000000000000000000000000000000000000000000ffffffff57034dc4141a4d696e656420627920416e74506f6f6c20626a341e205a734a18fabe6d6d17ff2a0a84d179bffde43bd7e2d602ec6e66ef2869d3a92d065ab6ffdb90c5220400000000000000211b00000000000002000000ffffffff0100f90295000000001976a9140ff3ccc5e8be88afe24b5d634e5852d474dbdff188ac00000000"
    }
  ],
  "time": 1517505048,
  "mediantime": 1517504654,
  "nonce": 157848485,
  "bits": "1a04088e",
  "difficulty": 4159490.835685156,
  "chainwork": "00000000000000000000000000000000000000000000003571d07387ae6a1e20",
  "previousblockhash": "5e1c5966594f585c93de5069b159ada50541ba7ef78c31c8bc92ff124aaaa295",
  "nextblockhash": "03b1e330d4ea89cc82ce34ab794c5968751a9dc00e5f176ccd1d0fa6fd089963"
}
