{
  "hash": "5bbd9a2e151185e9e3fb1682b440287c52d8d6b89283cb586f4ee2a91158d009",
  "confirmations": 1806,
  "strippedsize": 1145,
  "size": 1181,
  "weight": 4616,
  "height": 1359188,
  "version": 536870912,
  "versionHex": "20000000",
  "merkleroot": "c2f4d9e1cbf22624c530575c534bd456970e9ae6d9544ee21698047a1bdc4373",
  "tx": [
    {
      "txid": "1c17bbddf69cae043ee6c212f2249040e6211a34a30988ae48f7b323c31a39a6",
      "hash": "0e69ad2b5accefa9d3cc4d91e4d001bd799f63ab710ceb878e6c240802025949",
      "version": 1,
      "size": 277,
      "vsize": 250,
      "locktime": 956940535,
      "vin": [
        {
          "coinbase": "0354bd142cfabe6d6d0216779bfe561b4ded966c0d16bea3739d6ad86922a3376309bfd890030bde6808000000f09f909f104d696e656420627920626f6f6d6b696e00000000000000000000000000000000000000000000000000000000000000000000",
          "sequence": 15
        }
      ],
      "vout": [
        {
          "value": 25.00097284,
          "n": 0,
          "scriptPubKey": {
            "asm": "OP_DUP OP_HASH160 aa3750aa18b8a0f3f0590731e1fab934856680cf OP_EQUALVERIFY OP_CHECKSIG",
            "hex": "76a914aa3750aa18b8a0f3f0590731e1fab934856680cf88ac",
            "reqSigs": 1,
            "type": "pubkeyhash",
            "addresses": [
              "LajyQBeZaBA1NkZDeY8YT5RYYVRkXMvb2T"
            ]
          }
        }, 
        {
          "value": 0.00000000,
          "n": 1,
          "scriptPubKey": {
            "asm": "OP_RETURN aa21a9ed91f7a495a52d7dc38a20a84800fa6170181f2778212636568db10539fa06cf1b 0000000000000000",
            "hex": "6a24aa21a9ed91f7a495a52d7dc38a20a84800fa6170181f2778212636568db10539fa06cf1b080000000000000000",
            "type": "nulldata"
          }
        }
      ],
      "hex": "010000000001010000000000000000000000000000000000000000000000000000000000000000ffffffff640354bd142cfabe6d6d0216779bfe561b4ded966c0d16bea3739d6ad86922a3376309bfd890030bde6808000000f09f909f104d696e656420627920626f6f6d6b696e000000000000000000000000000000000000000000000000000000000000000000000f0000000204750495000000001976a914aa3750aa18b8a0f3f0590731e1fab934856680cf88ac00000000000000002f6a24aa21a9ed91f7a495a52d7dc38a20a84800fa6170181f2778212636568db10539fa06cf1b08000000000000000001200000000000000000000000000000000000000000000000000000000000000000f7c00939"
    }, 
    {
      "txid": "498f5416cfd85a6facb35ed29fb3f2cf6d5b194b39e5621c10eff036ce6fbfd7",
      "hash": "498f5416cfd85a6facb35ed29fb3f2cf6d5b194b39e5621c10eff036ce6fbfd7",
      "version": 2,
      "size": 373,
      "vsize": 373,
      "locktime": 1359185,
      "vin": [
        {
          "txid": "d3eb354b9f93c97503222e1d28585bcd7114505981f79420da046f55611b2a5a",
          "vout": 1,
          "scriptSig": {
            "asm": "3045022100c296f6eeaa3f7b9f29c16e790332e960ee07dc1b4a119678864edbc257b5187902204497733cc856b7ed541147e9c7e32b0915dbafadf8de730e1048b4ec68598e91[ALL] 026e939ae6745fb78f206ebd30304fd77ea68265f05ea20b43088ba63dcc2c0ec8",
            "hex": "483045022100c296f6eeaa3f7b9f29c16e790332e960ee07dc1b4a119678864edbc257b5187902204497733cc856b7ed541147e9c7e32b0915dbafadf8de730e1048b4ec68598e910121026e939ae6745fb78f206ebd30304fd77ea68265f05ea20b43088ba63dcc2c0ec8"
          },
          "sequence": 4294967294
        }, 
        {
          "txid": "351db6592b77d35794fcb1eeea67975b835d535a8f3e9ac6a3409b406a4c615f",
          "vout": 1,
          "scriptSig": {
            "asm": "304402204fbcbb99806d556dc82104c913f7437cc0341ba5d056a1d99b427455038db87a022028329ef4bb210c75dc0b299e7acc8b7d78c77e293f10b915a9d26d71dcede4a2[ALL] 03557f9c7d473fbd6ec9d355f1d2eb427c6b0774d1e692eb029a9c0f7a6f943acf",
            "hex": "47304402204fbcbb99806d556dc82104c913f7437cc0341ba5d056a1d99b427455038db87a022028329ef4bb210c75dc0b299e7acc8b7d78c77e293f10b915a9d26d71dcede4a2012103557f9c7d473fbd6ec9d355f1d2eb427c6b0774d1e692eb029a9c0f7a6f943acf"
          },
          "sequence": 4294967294
        }
      ],
      "vout": [
        {
          "value": 0.12747204,
          "n": 0,
          "scriptPubKey": {
            "asm": "OP_DUP OP_HASH160 5ae3bcb2774256057a30b22aa079fa272e94bf54 OP_EQUALVERIFY OP_CHECKSIG",
            "hex": "76a9145ae3bcb2774256057a30b22aa079fa272e94bf5488ac",
            "reqSigs": 1,
            "type": "pubkeyhash",
            "addresses": [
              "LTWXtvpX8zw83w3jyuUBxds6L9D6WzxE3y"
            ]
          }
        }, 
        {
          "value": 0.01137196,
          "n": 1,
          "scriptPubKey": {
            "asm": "OP_DUP OP_HASH160 688e799c47d1314fc193b0246f1f4ebe6abff138 OP_EQUALVERIFY OP_CHECKSIG",
            "hex": "76a914688e799c47d1314fc193b0246f1f4ebe6abff13888ac",
            "reqSigs": 1,
            "type": "pubkeyhash",
            "addresses": [
              "LUkoDW7ZHUg9Dhb61ATBqYDWHSXaN5umaf"
            ]
          }
        }
      ],
      "hex": "02000000025a2a1b61556f04da2094f78159501471cd5b58281d2e220375c9939f4b35ebd3010000006b483045022100c296f6eeaa3f7b9f29c16e790332e960ee07dc1b4a119678864edbc257b5187902204497733cc856b7ed541147e9c7e32b0915dbafadf8de730e1048b4ec68598e910121026e939ae6745fb78f206ebd30304fd77ea68265f05ea20b43088ba63dcc2c0ec8feffffff5f614c6a409b40a3c69a3e8f5a535d835b9767eaeeb1fc9457d3772b59b61d35010000006a47304402204fbcbb99806d556dc82104c913f7437cc0341ba5d056a1d99b427455038db87a022028329ef4bb210c75dc0b299e7acc8b7d78c77e293f10b915a9d26d71dcede4a2012103557f9c7d473fbd6ec9d355f1d2eb427c6b0774d1e692eb029a9c0f7a6f943acffeffffff02c481c200000000001976a9145ae3bcb2774256057a30b22aa079fa272e94bf5488ac2c5a1100000000001976a914688e799c47d1314fc193b0246f1f4ebe6abff13888ac51bd1400"
    }, 
    {
      "txid": "06e6646dc24c23221c22724aaab85a4a815b55329969536b0ce2074651e1aa1d",
      "hash": "06e6646dc24c23221c22724aaab85a4a815b55329969536b0ce2074651e1aa1d",
      "version": 1,
      "size": 225,
      "vsize": 225,
      "locktime": 0,
      "vin": [
        {
          "txid": "739529896863ef2a0726469c702e7a7624d7c34f326c2281d1ee7bd726662ef0",
          "vout": 1,
          "scriptSig": {
            "asm": "304402201c09e696cb0f832cdd790bc4f24299ebacc679a5380ffcea7d79c66d4e06ce88022037fb94a55131c14f320513e855dc4bcfd542317dc14924e8820d858f0ba88895[ALL] 03880d6841dda16d8778ba26b234b58997b7b7bf382aeeb3c365870daefabfca5d",
            "hex": "47304402201c09e696cb0f832cdd790bc4f24299ebacc679a5380ffcea7d79c66d4e06ce88022037fb94a55131c14f320513e855dc4bcfd542317dc14924e8820d858f0ba88895012103880d6841dda16d8778ba26b234b58997b7b7bf382aeeb3c365870daefabfca5d"
          },
          "sequence": 4294967295
        }
      ],
      "vout": [
        {
          "value": 0.11761000,
          "n": 0,
          "scriptPubKey": {
            "asm": "OP_DUP OP_HASH160 0d4b5bcda8eb0ac9f1ef96904525c77c20b4be13 OP_EQUALVERIFY OP_CHECKSIG",
            "hex": "76a9140d4b5bcda8eb0ac9f1ef96904525c77c20b4be1388ac",
            "reqSigs": 1,
            "type": "pubkeyhash",
            "addresses": [
              "LLSFKiQC85ZcftvbbRFn14ERXfasqPDva9"
            ]
          }
        }, 
        {
          "value": 0.00108624,
          "n": 1,
          "scriptPubKey": {
            "asm": "OP_DUP OP_HASH160 b0551f8179967d1fe3a3c2597c8aed588485aed2 OP_EQUALVERIFY OP_CHECKSIG",
            "hex": "76a914b0551f8179967d1fe3a3c2597c8aed588485aed288ac",
            "reqSigs": 1,
            "type": "pubkeyhash",
            "addresses": [
              "LbJKARspCiXuZxbF3WoWgQDCg19sEN5eWD"
            ]
          }
        }
      ],
      "hex": "0100000001f02e6626d77beed181226c324fc3d724767a2e709c4626072aef636889299573010000006a47304402201c09e696cb0f832cdd790bc4f24299ebacc679a5380ffcea7d79c66d4e06ce88022037fb94a55131c14f320513e855dc4bcfd542317dc14924e8820d858f0ba88895012103880d6841dda16d8778ba26b234b58997b7b7bf382aeeb3c365870daefabfca5dffffffff026875b300000000001976a9140d4b5bcda8eb0ac9f1ef96904525c77c20b4be1388ac50a80100000000001976a914b0551f8179967d1fe3a3c2597c8aed588485aed288ac00000000"
    }, 
    {
      "txid": "9e365b4a392ee3d7b99dbe18a8fc165de48a3481b84bb44f570afb1561cc27bb",
      "hash": "9e365b4a392ee3d7b99dbe18a8fc165de48a3481b84bb44f570afb1561cc27bb",
      "version": 1,
      "size": 225,
      "vsize": 225,
      "locktime": 0,
      "vin": [
        {
          "txid": "ec84dc6593b59e64b5dea8169142dedd1f1279869ed5acdd0901b48d589dba03",
          "vout": 0,
          "scriptSig": {
            "asm": "3044022025d0da9e95ee2db00c8a4de0ccdef17fe62c8588a9dbfe98b3d5b6f5a32304780220682d98a205c8a1fdc173ff5d25fae30910ef0017c6c85825af49e53a92b1a440[ALL] 03a30f0c903992e0e16d6feb6427d6149ceaf5691547770a745f4ac0d873895d95",
            "hex": "473044022025d0da9e95ee2db00c8a4de0ccdef17fe62c8588a9dbfe98b3d5b6f5a32304780220682d98a205c8a1fdc173ff5d25fae30910ef0017c6c85825af49e53a92b1a440012103a30f0c903992e0e16d6feb6427d6149ceaf5691547770a745f4ac0d873895d95"
          },
          "sequence": 4294967295
        }
      ],
      "vout": [
        {
          "value": 2.47590974,
          "n": 0,
          "scriptPubKey": {
            "asm": "OP_DUP OP_HASH160 2040c6ada6a4918505faecff48674ebd88210753 OP_EQUALVERIFY OP_CHECKSIG",
            "hex": "76a9142040c6ada6a4918505faecff48674ebd8821075388ac",
            "reqSigs": 1,
            "type": "pubkeyhash",
            "addresses": [
              "LNAVV5BvNqRozkr8d1TLj1oM45QYdMhZUv"
            ]
          }
        }, 
        {
          "value": 0.61421480,
          "n": 1,
          "scriptPubKey": {
            "asm": "OP_DUP OP_HASH160 b94d86095ccc51ed5b36e68cf4ab3ba440bb1a5d OP_EQUALVERIFY OP_CHECKSIG",
            "hex": "76a914b94d86095ccc51ed5b36e68cf4ab3ba440bb1a5d88ac",
            "reqSigs": 1,
            "type": "pubkeyhash",
            "addresses": [
              "Lc7k98kVVF8KCBJqjaz1jyUqt1sMjpDvXF"
            ]
          }
        }
      ],
      "hex": "010000000103ba9d588db40109ddacd59e8679121fddde429116a8deb5649eb59365dc84ec000000006a473044022025d0da9e95ee2db00c8a4de0ccdef17fe62c8588a9dbfe98b3d5b6f5a32304780220682d98a205c8a1fdc173ff5d25fae30910ef0017c6c85825af49e53a92b1a440012103a30f0c903992e0e16d6feb6427d6149ceaf5691547770a745f4ac0d873895d95ffffffff023ef0c10e000000001976a9142040c6ada6a4918505faecff48674ebd8821075388aca837a903000000001976a914b94d86095ccc51ed5b36e68cf4ab3ba440bb1a5d88ac00000000"
    }
  ],
  "time": 1517248364,
  "mediantime": 1517247986,
  "nonce": 61111833,
  "bits": "1a042eae",
  "difficulty": 4011378.762614286,
  "chainwork": "000000000000000000000000000000000000000000000033c57bdc131bddcf2a",
  "previousblockhash": "3370269eb4d804045a3c6d28834fd0fb83e338f7b118084251f2e08831c863ca",
  "nextblockhash": "84ed19525b664c95284dbb1ad138d20ebd5dee4981b895300aafadffce20477d"
}
