{
  "hash": "5bf6894961934c445bedc008ac5e0356697c67f00b771d27f5ffa289f8a80579",
  "confirmations": 1672,
  "strippedsize": 4717,
  "size": 4753,
  "weight": 18904,
  "height": 1359322,
  "version": 536870912,
  "versionHex": "20000000",
  "merkleroot": "1c87e4c185cebd609b4260b036ebc840f08453bd6bf1ca3c86ef6f016f815575",
  "tx": [
    {
      "txid": "678e62c409f70f00bc95ff51abcc124989641747e24b8c57a8e4e7a0f40b8bd1",
      "hash": "325741e10170f41426ef3111c995f86bbd73e085ff9437e917cd3092bede0a26",
      "version": 1,
      "size": 236,
      "vsize": 209,
      "locktime": 0,
      "vin": [
        {
          "coinbase": "03dabd14045a6faaf52cfabe6d6daa47f1c1e7fbfd52b0da59dfc4c4b5e792f7437d0ac3ac744a227b619470278a4000000000000000042f4c502f0816007d1c49000000",
          "sequence": 4294967295
        }
      ],
      "vout": [
        {
          "value": 25.01398449,
          "n": 0,
          "scriptPubKey": {
            "asm": "OP_DUP OP_HASH160 57757ed2ecf2052ff3126c397aca7defb9ca2cec OP_EQUALVERIFY OP_CHECKSIG",
            "hex": "76a91457757ed2ecf2052ff3126c397aca7defb9ca2cec88ac",
            "reqSigs": 1,
            "type": "pubkeyhash",
            "addresses": [
              "LTCPodGk5FwcJaRzH9yKnwicxzFUbxp6tN"
            ]
          }
        }, 
        {
          "value": 0.00000000,
          "n": 1,
          "scriptPubKey": {
            "asm": "OP_RETURN aa21a9ed5ad378ffdc438fffdb9bed01fced9a9510e8fb340cfd1971cb92e7f1ee8106dc",
            "hex": "6a24aa21a9ed5ad378ffdc438fffdb9bed01fced9a9510e8fb340cfd1971cb92e7f1ee8106dc",
            "type": "nulldata"
          }
        }
      ],
      "hex": "010000000001010000000000000000000000000000000000000000000000000000000000000000ffffffff4403dabd14045a6faaf52cfabe6d6daa47f1c1e7fbfd52b0da59dfc4c4b5e792f7437d0ac3ac744a227b619470278a4000000000000000042f4c502f0816007d1c49000000ffffffff02b14f1895000000001976a91457757ed2ecf2052ff3126c397aca7defb9ca2cec88ac0000000000000000266a24aa21a9ed5ad378ffdc438fffdb9bed01fced9a9510e8fb340cfd1971cb92e7f1ee8106dc0120000000000000000000000000000000000000000000000000000000000000000000000000"
    }, 
    {
      "txid": "6250ba799a49e0086dcfd6ade78dc65f4799be73e84a3c6c1b7d9150a82372c4",
      "hash": "6250ba799a49e0086dcfd6ade78dc65f4799be73e84a3c6c1b7d9150a82372c4",
      "version": 1,
      "size": 191,
      "vsize": 191,
      "locktime": 0,
      "vin": [
        {
          "txid": "0e08440302e200f50ff73a52259be5e62d53d756957c2624a5d788f8fd4c6c98",
          "vout": 1,
          "scriptSig": {
            "asm": "3044022014bf858294477d5085d4abb931a72f21cac109c859bd2a6048d8c1ecdb37d17702203c55ac6fb59110a3c8b6cf4d51c3877938751c6f6954ad9d378959590b6dee1a[ALL] 024d4db9703928b519b2104447d0dcd98275c437b8cc3ffd0603387d37d337ada2",
            "hex": "473044022014bf858294477d5085d4abb931a72f21cac109c859bd2a6048d8c1ecdb37d17702203c55ac6fb59110a3c8b6cf4d51c3877938751c6f6954ad9d378959590b6dee1a0121024d4db9703928b519b2104447d0dcd98275c437b8cc3ffd0603387d37d337ada2"
          },
          "sequence": 4294967295
        }
      ],
      "vout": [
        {
          "value": 11.17693242,
          "n": 0,
          "scriptPubKey": {
            "asm": "OP_DUP OP_HASH160 b6d039e0fc0fe9afaab78899be12f39f4f917872 OP_EQUALVERIFY OP_CHECKSIG",
            "hex": "76a914b6d039e0fc0fe9afaab78899be12f39f4f91787288ac",
            "reqSigs": 1,
            "type": "pubkeyhash",
            "addresses": [
              "LbtagvocrXVUKsKe9WU7DPnSYUxcPuzzt2"
            ]
          }
        }
      ],
      "hex": "0100000001986c4cfdf888d7a524267c9556d7532de6e59b25523af70ff500e2020344080e010000006a473044022014bf858294477d5085d4abb931a72f21cac109c859bd2a6048d8c1ecdb37d17702203c55ac6fb59110a3c8b6cf4d51c3877938751c6f6954ad9d378959590b6dee1a0121024d4db9703928b519b2104447d0dcd98275c437b8cc3ffd0603387d37d337ada2ffffffff013aa59e42000000001976a914b6d039e0fc0fe9afaab78899be12f39f4f91787288ac00000000"
    }, 
    {
      "txid": "eac58bc31ded6951728997e770ae0e2f3a410b2e20259f22df48c9954a0639cb",
      "hash": "eac58bc31ded6951728997e770ae0e2f3a410b2e20259f22df48c9954a0639cb",
      "version": 1,
      "size": 372,
      "vsize": 372,
      "locktime": 0,
      "vin": [
        {
          "txid": "6f9783f93622cd5187556d13d5465ce36ffcc08be293000475d6aa3a1fb1ce90",
          "vout": 1,
          "scriptSig": {
            "asm": "304402207ac74f17451cc791eefd662ce5c57229d9e92295b771e988b4b0a4dd5ff2325902206b13a36c7ad47828336c7a2b7777011f4f30cf4a2345eb73b311929b8fd6cb58[ALL] 020937b4e91deccdb8847c1bb8b1e1f5457b9588f3aa1ae63b3be00fa8ce73c8e8",
            "hex": "47304402207ac74f17451cc791eefd662ce5c57229d9e92295b771e988b4b0a4dd5ff2325902206b13a36c7ad47828336c7a2b7777011f4f30cf4a2345eb73b311929b8fd6cb580121020937b4e91deccdb8847c1bb8b1e1f5457b9588f3aa1ae63b3be00fa8ce73c8e8"
          },
          "sequence": 4294967295
        }, 
        {
          "txid": "97ea6f6a33e497dda1ae09c769ee29990ac63151ddc8f5ff5cf38a8d049bc395",
          "vout": 1,
          "scriptSig": {
            "asm": "3044022025a855ef5d458d32762a1f78bc7ce871de67b838d16b3e9c1f781c8a62050bff02206011c0ea935fa6358f02b9922782e5c0e368e01926b4c60361323a084535c62e[ALL] 02a0a221492940929157739199a7474bfd34973141f96d837e22fa57ac7e1442a6",
            "hex": "473044022025a855ef5d458d32762a1f78bc7ce871de67b838d16b3e9c1f781c8a62050bff02206011c0ea935fa6358f02b9922782e5c0e368e01926b4c60361323a084535c62e012102a0a221492940929157739199a7474bfd34973141f96d837e22fa57ac7e1442a6"
          },
          "sequence": 4294967295
        }
      ],
      "vout": [
        {
          "value": 26.48431582,
          "n": 0,
          "scriptPubKey": {
            "asm": "OP_DUP OP_HASH160 6bae21c947522ca1f4a7a99a61a57cc159bb529f OP_EQUALVERIFY OP_CHECKSIG",
            "hex": "76a9146bae21c947522ca1f4a7a99a61a57cc159bb529f88ac",
            "reqSigs": 1,
            "type": "pubkeyhash",
            "addresses": [
              "LV3KAe7pMM2RwUTYVa6cZushRxZtFmRW82"
            ]
          }
        }, 
        {
          "value": 73.51410341,
          "n": 1,
          "scriptPubKey": {
            "asm": "OP_DUP OP_HASH160 608a8c1f1b00eda2c8776c07d78b4ba415f88e4b OP_EQUALVERIFY OP_CHECKSIG",
            "hex": "76a914608a8c1f1b00eda2c8776c07d78b4ba415f88e4b88ac",
            "reqSigs": 1,
            "type": "pubkeyhash",
            "addresses": [
              "LU2R74rpCBCwFLsA8DupkPFmzENHd12kns"
            ]
          }
        }
      ],
      "hex": "010000000290ceb11f3aaad675040093e28bc0fc6fe35c46d5136d558751cd2236f983976f010000006a47304402207ac74f17451cc791eefd662ce5c57229d9e92295b771e988b4b0a4dd5ff2325902206b13a36c7ad47828336c7a2b7777011f4f30cf4a2345eb73b311929b8fd6cb580121020937b4e91deccdb8847c1bb8b1e1f5457b9588f3aa1ae63b3be00fa8ce73c8e8ffffffff95c39b048d8af35cfff5c8dd5131c60a9929ee69c709aea1dd97e4336a6fea97010000006a473044022025a855ef5d458d32762a1f78bc7ce871de67b838d16b3e9c1f781c8a62050bff02206011c0ea935fa6358f02b9922782e5c0e368e01926b4c60361323a084535c62e012102a0a221492940929157739199a7474bfd34973141f96d837e22fa57ac7e1442a6ffffffff02dedbdb9d000000001976a9146bae21c947522ca1f4a7a99a61a57cc159bb529f88aca59e2db6010000001976a914608a8c1f1b00eda2c8776c07d78b4ba415f88e4b88ac00000000"
    }, 
    {
      "txid": "f638beb089da773b1d00c009f0547c5f0e6689062e51ebc01eaf970e760588ee",
      "hash": "f638beb089da773b1d00c009f0547c5f0e6689062e51ebc01eaf970e760588ee",
      "version": 1,
      "size": 374,
      "vsize": 374,
      "locktime": 0,
      "vin": [
        {
          "txid": "018506b3964a369efe8eebb38e757640119021a7f745828cdc97a809dea50ed4",
          "vout": 0,
          "scriptSig": {
            "asm": "3045022100f00116a5d20aaef3055c20e6441c62b4964cb9a139d1c2cf5cce995fe1e41a52022032b7c805b4be3454193f3eb09a2693b8fa659121511afe6fcde0d73aa6915d25[ALL] 02bcaff1b182922a59e190eac3af818697a76598e467e7a7aab5f670fd4d4183ea",
            "hex": "483045022100f00116a5d20aaef3055c20e6441c62b4964cb9a139d1c2cf5cce995fe1e41a52022032b7c805b4be3454193f3eb09a2693b8fa659121511afe6fcde0d73aa6915d25012102bcaff1b182922a59e190eac3af818697a76598e467e7a7aab5f670fd4d4183ea"
          },
          "sequence": 4294967295
        }, 
        {
          "txid": "da51b93651c6ae3b579a67878f77ea61f9f2c8b1a74d4c1139ef68686e644d03",
          "vout": 1,
          "scriptSig": {
            "asm": "3045022100f13fc066577a385571f0ee218fb48e78a9f657c0f328f772f45f025cdadb48ae02207a758e3bc96827bfe934a188185f2b57a6b76929c73bcb4d42b4bb2e96606505[ALL] 02bcaff1b182922a59e190eac3af818697a76598e467e7a7aab5f670fd4d4183ea",
            "hex": "483045022100f13fc066577a385571f0ee218fb48e78a9f657c0f328f772f45f025cdadb48ae02207a758e3bc96827bfe934a188185f2b57a6b76929c73bcb4d42b4bb2e96606505012102bcaff1b182922a59e190eac3af818697a76598e467e7a7aab5f670fd4d4183ea"
          },
          "sequence": 4294967295
        }
      ],
      "vout": [
        {
          "value": 2.24215247,
          "n": 0,
          "scriptPubKey": {
            "asm": "OP_DUP OP_HASH160 8c17904ab4202f05c74221600ecdbc3c3ca0515a OP_EQUALVERIFY OP_CHECKSIG",
            "hex": "76a9148c17904ab4202f05c74221600ecdbc3c3ca0515a88ac",
            "reqSigs": 1,
            "type": "pubkeyhash",
            "addresses": [
              "LXzh6JLMccsxsz9Whth9TfLMCWeoA6DMaN"
            ]
          }
        }, 
        {
          "value": 1.71830075,
          "n": 1,
          "scriptPubKey": {
            "asm": "OP_DUP OP_HASH160 0ae1153f4762a4d797a02fbe4a79f0828c18169a OP_EQUALVERIFY OP_CHECKSIG",
            "hex": "76a9140ae1153f4762a4d797a02fbe4a79f0828c18169a88ac",
            "reqSigs": 1,
            "type": "pubkeyhash",
            "addresses": [
              "LLDUfAwDghyEK3EsSDJeqJQuHLbJpfRbCW"
            ]
          }
        }
      ],
      "hex": "0100000002d40ea5de09a897dc8c8245f7a72190114076758eb3eb8efe9e364a96b3068501000000006b483045022100f00116a5d20aaef3055c20e6441c62b4964cb9a139d1c2cf5cce995fe1e41a52022032b7c805b4be3454193f3eb09a2693b8fa659121511afe6fcde0d73aa6915d25012102bcaff1b182922a59e190eac3af818697a76598e467e7a7aab5f670fd4d4183eaffffffff034d646e6868ef39114c4da7b1c8f2f961ea778f87679a573baec65136b951da010000006b483045022100f13fc066577a385571f0ee218fb48e78a9f657c0f328f772f45f025cdadb48ae02207a758e3bc96827bfe934a188185f2b57a6b76929c73bcb4d42b4bb2e96606505012102bcaff1b182922a59e190eac3af818697a76598e467e7a7aab5f670fd4d4183eaffffffff02cf405d0d000000001976a9148c17904ab4202f05c74221600ecdbc3c3ca0515a88ac3beb3d0a000000001976a9140ae1153f4762a4d797a02fbe4a79f0828c18169a88ac00000000"
    }, 
    {
      "txid": "b562d3eb21cedce6165b36fb0febd81e090bbae84db0670967262d320137e68e",
      "hash": "b562d3eb21cedce6165b36fb0febd81e090bbae84db0670967262d320137e68e",
      "version": 1,
      "size": 226,
      "vsize": 226,
      "locktime": 0,
      "vin": [
        {
          "txid": "0e88c2d9808944d591a6fad0917135ecfc846a6ac9d22afe040cd4f82af39663",
          "vout": 0,
          "scriptSig": {
            "asm": "3045022100c66ffe1803ac2c6241fa5d58b36853494e66ece0a2428aec32716ac77880343b02200f55587e386e1bd0e732b4abb9f6747253c06045fbe6d8d61f895883631b4137[ALL] 025a22cf072a32848bb8e1fee2d18f3ad86f131814739ad7d5bfa5a8b2eb4e298d",
            "hex": "483045022100c66ffe1803ac2c6241fa5d58b36853494e66ece0a2428aec32716ac77880343b02200f55587e386e1bd0e732b4abb9f6747253c06045fbe6d8d61f895883631b41370121025a22cf072a32848bb8e1fee2d18f3ad86f131814739ad7d5bfa5a8b2eb4e298d"
          },
          "sequence": 4294967295
        }
      ],
      "vout": [
        {
          "value": 0.27739251,
          "n": 0,
          "scriptPubKey": {
            "asm": "OP_DUP OP_HASH160 0e713122402d1526a29286ddc55eeff556cc8230 OP_EQUALVERIFY OP_CHECKSIG",
            "hex": "76a9140e713122402d1526a29286ddc55eeff556cc823088ac",
            "reqSigs": 1,
            "type": "pubkeyhash",
            "addresses": [
              "LLYKKcS8UTXoFqYtQwBh6rSTvyEX9eLRec"
            ]
          }
        }, 
        {
          "value": 1.42530600,
          "n": 1,
          "scriptPubKey": {
            "asm": "OP_DUP OP_HASH160 d67d7ca1fa8471c90782a9b783d767271f758c1f OP_EQUALVERIFY OP_CHECKSIG",
            "hex": "76a914d67d7ca1fa8471c90782a9b783d767271f758c1f88ac",
            "reqSigs": 1,
            "type": "pubkeyhash",
            "addresses": [
              "Len5CF5zFn9tMkXtLPaSy61AhCHQmAonGP"
            ]
          }
        }
      ],
      "hex": "01000000016396f32af8d40c04fe2ad2c96a6a84fcec357191d0faa691d5448980d9c2880e000000006b483045022100c66ffe1803ac2c6241fa5d58b36853494e66ece0a2428aec32716ac77880343b02200f55587e386e1bd0e732b4abb9f6747253c06045fbe6d8d61f895883631b41370121025a22cf072a32848bb8e1fee2d18f3ad86f131814739ad7d5bfa5a8b2eb4e298dffffffff027344a701000000001976a9140e713122402d1526a29286ddc55eeff556cc823088ac28d87e08000000001976a914d67d7ca1fa8471c90782a9b783d767271f758c1f88ac00000000"
    }, 
    {
      "txid": "22acc43152630791bd3de788de2680e849b5a1997c37e14f4b07d1bbbc747f10",
      "hash": "22acc43152630791bd3de788de2680e849b5a1997c37e14f4b07d1bbbc747f10",
      "version": 1,
      "size": 668,
      "vsize": 668,
      "locktime": 1359265,
      "vin": [
        {
          "txid": "4653d94e1c813d4bf46f3d2a42322d09e9eeb2dc58c1f3afaacaaf9ae4f119f4",
          "vout": 0,
          "scriptSig": {
            "asm": "3044022017e2beb34d6393be8d088231c2faa52ab3ff89de995687cf65b0175fa35fa53802204162099d242f20833435deb704be507316ecb4702a3cd70012afa06924934182[ALL] 037cfbe6edeaa4aad5e045d3a482fd0ae7d0edb199d3bfc28efc49a77b2328ad5f",
            "hex": "473044022017e2beb34d6393be8d088231c2faa52ab3ff89de995687cf65b0175fa35fa53802204162099d242f20833435deb704be507316ecb4702a3cd70012afa069249341820121037cfbe6edeaa4aad5e045d3a482fd0ae7d0edb199d3bfc28efc49a77b2328ad5f"
          },
          "sequence": 4294967294
        }, 
        {
          "txid": "aa4dac7bebe2ce0445bd23a0145e287aadced934f2bb82ff253cad877686591a",
          "vout": 26,
          "scriptSig": {
            "asm": "3044022016c6400bb976932acdd6f0b5639e6b9ded6dab7e417a01147ce39bc4d8cefba70220191bd55a7fdb69dd78ded677c74d4e89111bb59aea9e35ec87ec88dc72a5bafc[ALL] 03f02d8fbdb81a49d2780ab04f6b6fdadec7310ade5369b6e42c4af6a44f5ce37f",
            "hex": "473044022016c6400bb976932acdd6f0b5639e6b9ded6dab7e417a01147ce39bc4d8cefba70220191bd55a7fdb69dd78ded677c74d4e89111bb59aea9e35ec87ec88dc72a5bafc012103f02d8fbdb81a49d2780ab04f6b6fdadec7310ade5369b6e42c4af6a44f5ce37f"
          },
          "sequence": 4294967294
        }, 
        {
          "txid": "b1cc7c3c6d86ed1f310ba9aa4d736b29f36d3ee1e949a8276b2ff9acb3b5a7f7",
          "vout": 1,
          "scriptSig": {
            "asm": "3045022100ed7a317ab52cd90f7bac5c1b6292c841fd07d5d5f96b757e98922d39559655c60220725ced355b06a0506049d9ebbffd571c0493d441554c8713d2fc1bb4a17b3543[ALL] 028421f43430d2daa1058d29ac134177ce32ee7d4e3ff6b1bcd97d6d1b78dce5eb",
            "hex": "483045022100ed7a317ab52cd90f7bac5c1b6292c841fd07d5d5f96b757e98922d39559655c60220725ced355b06a0506049d9ebbffd571c0493d441554c8713d2fc1bb4a17b35430121028421f43430d2daa1058d29ac134177ce32ee7d4e3ff6b1bcd97d6d1b78dce5eb"
          },
          "sequence": 4294967294
        }, 
        {
          "txid": "8b16fb30b8ca2cbbbe8ac2d62c4fb1183dc8e59a0b3444610a43a2dd275f32e8",
          "vout": 6,
          "scriptSig": {
            "asm": "3045022100b7ebfc9c84f5267d80d8facc6003c5bbc1e69e70e6858145d3e9fc28aa794c28022076a7ce1343e6ba3d602517de1e864b8846ba148dbeb0f88cab5065c21b74fcae[ALL] 03e9252dcadb96e6f306004d9093ba0751f457bce1a724a03e1bf9bc119a9355e8",
            "hex": "483045022100b7ebfc9c84f5267d80d8facc6003c5bbc1e69e70e6858145d3e9fc28aa794c28022076a7ce1343e6ba3d602517de1e864b8846ba148dbeb0f88cab5065c21b74fcae012103e9252dcadb96e6f306004d9093ba0751f457bce1a724a03e1bf9bc119a9355e8"
          },
          "sequence": 4294967294
        }
      ],
      "vout": [
        {
          "value": 0.01000000,
          "n": 0,
          "scriptPubKey": {
            "asm": "OP_DUP OP_HASH160 613d49d53625e68c2cc80c8ea1b62bf56a52ab87 OP_EQUALVERIFY OP_CHECKSIG",
            "hex": "76a914613d49d53625e68c2cc80c8ea1b62bf56a52ab8788ac",
            "reqSigs": 1,
            "type": "pubkeyhash",
            "addresses": [
              "LU67EDMsXXHnNWxiFobD3kprrTkwyscX5n"
            ]
          }
        }, 
        {
          "value": 21.50000000,
          "n": 1,
          "scriptPubKey": {
            "asm": "OP_DUP OP_HASH160 897252025a9eb1a83ca6ab0380ebf27d1fa30095 OP_EQUALVERIFY OP_CHECKSIG",
            "hex": "76a914897252025a9eb1a83ca6ab0380ebf27d1fa3009588ac",
            "reqSigs": 1,
            "type": "pubkeyhash",
            "addresses": [
              "LXkhncP84kxWp16NpFP83a6TEA4FuwYnbv"
            ]
          }
        }
      ],
      "hex": "0100000004f419f1e49aafcaaaaff3c158dcb2eee9092d32422a3d6ff44b3d811c4ed95346000000006a473044022017e2beb34d6393be8d088231c2faa52ab3ff89de995687cf65b0175fa35fa53802204162099d242f20833435deb704be507316ecb4702a3cd70012afa069249341820121037cfbe6edeaa4aad5e045d3a482fd0ae7d0edb199d3bfc28efc49a77b2328ad5ffeffffff1a59867687ad3c25ff82bbf234d9cead7a285e14a023bd4504cee2eb7bac4daa1a0000006a473044022016c6400bb976932acdd6f0b5639e6b9ded6dab7e417a01147ce39bc4d8cefba70220191bd55a7fdb69dd78ded677c74d4e89111bb59aea9e35ec87ec88dc72a5bafc012103f02d8fbdb81a49d2780ab04f6b6fdadec7310ade5369b6e42c4af6a44f5ce37ffefffffff7a7b5b3acf92f6b27a849e9e13e6df3296b734daaa90b311fed866d3c7cccb1010000006b483045022100ed7a317ab52cd90f7bac5c1b6292c841fd07d5d5f96b757e98922d39559655c60220725ced355b06a0506049d9ebbffd571c0493d441554c8713d2fc1bb4a17b35430121028421f43430d2daa1058d29ac134177ce32ee7d4e3ff6b1bcd97d6d1b78dce5ebfeffffffe8325f27dda2430a6144340b9ae5c83d18b14f2cd6c28abebb2ccab830fb168b060000006b483045022100b7ebfc9c84f5267d80d8facc6003c5bbc1e69e70e6858145d3e9fc28aa794c28022076a7ce1343e6ba3d602517de1e864b8846ba148dbeb0f88cab5065c21b74fcae012103e9252dcadb96e6f306004d9093ba0751f457bce1a724a03e1bf9bc119a9355e8feffffff0240420f00000000001976a914613d49d53625e68c2cc80c8ea1b62bf56a52ab8788ac80652680000000001976a914897252025a9eb1a83ca6ab0380ebf27d1fa3009588aca1bd1400"
    }, 
    {
      "txid": "c7f08638f50c70967874905709e4901d81e7c80194af5998ac0f3d5d9028fe4f",
      "hash": "c7f08638f50c70967874905709e4901d81e7c80194af5998ac0f3d5d9028fe4f",
      "version": 1,
      "size": 225,
      "vsize": 225,
      "locktime": 0,
      "vin": [
        {
          "txid": "3d5ce9b5277cf681a1e023fe5d9329f3726d52505d866e09bcfba433785d7847",
          "vout": 1,
          "scriptSig": {
            "asm": "304402202647520578054f72f915896643d5339f40c3aeb438e0924ba486d4564f2964a902204bf0d977bd65ee999c5a6251c366bc8610f5a30f84ef4335c48e13367bf35ecc[ALL] 0361b06c2f4238a79b7e8c94023ef5aa56cd1b490ab169e16d07633042dab4db60",
            "hex": "47304402202647520578054f72f915896643d5339f40c3aeb438e0924ba486d4564f2964a902204bf0d977bd65ee999c5a6251c366bc8610f5a30f84ef4335c48e13367bf35ecc01210361b06c2f4238a79b7e8c94023ef5aa56cd1b490ab169e16d07633042dab4db60"
          },
          "sequence": 4294967295
        }
      ],
      "vout": [
        {
          "value": 0.31496000,
          "n": 0,
          "scriptPubKey": {
            "asm": "OP_DUP OP_HASH160 9b22174c78eff6ef6e97d01ae7dfabd5391eea9d OP_EQUALVERIFY OP_CHECKSIG",
            "hex": "76a9149b22174c78eff6ef6e97d01ae7dfabd5391eea9d88ac",
            "reqSigs": 1,
            "type": "pubkeyhash",
            "addresses": [
              "LZNDqdbCWr3x79V5n23GgBYsVK5ciEnei1"
            ]
          }
        }, 
        {
          "value": 0.02856203,
          "n": 1,
          "scriptPubKey": {
            "asm": "OP_DUP OP_HASH160 98ff375f8452d364c03c24b714b8528a8a6dbe24 OP_EQUALVERIFY OP_CHECKSIG",
            "hex": "76a91498ff375f8452d364c03c24b714b8528a8a6dbe2488ac",
            "reqSigs": 1,
            "type": "pubkeyhash",
            "addresses": [
              "LZAvi7NinJLvBzQyDXgGk5169wHcwCbedy"
            ]
          }
        }
      ],
      "hex": "010000000147785d7833a4fbbc096e865d50526d72f329935dfe23e0a181f67c27b5e95c3d010000006a47304402202647520578054f72f915896643d5339f40c3aeb438e0924ba486d4564f2964a902204bf0d977bd65ee999c5a6251c366bc8610f5a30f84ef4335c48e13367bf35ecc01210361b06c2f4238a79b7e8c94023ef5aa56cd1b490ab169e16d07633042dab4db60ffffffff024097e001000000001976a9149b22174c78eff6ef6e97d01ae7dfabd5391eea9d88ac0b952b00000000001976a91498ff375f8452d364c03c24b714b8528a8a6dbe2488ac00000000"
    }, 
    {
      "txid": "eb5eff7a742bcfaa690cbf497398d7358bcc53821137dcd741b4c7222a067a7a",
      "hash": "eb5eff7a742bcfaa690cbf497398d7358bcc53821137dcd741b4c7222a067a7a",
      "version": 1,
      "size": 225,
      "vsize": 225,
      "locktime": 0,
      "vin": [
        {
          "txid": "2300cf44bcd0ac4a5e9ff93d8038668fbf80bc1f61168222baa0e5da96ac4dd8",
          "vout": 0,
          "scriptSig": {
            "asm": "304402202b363622c40d3a06b918d7d5e301859b715ca0a8cd7d0499f30390f8c412f33902202ca9e428db357e2b99bb9bf649d0248fed55ee2cf39cce659f3685f83c195488[ALL] 03add3f6dc81f758dded517d0ac594b479f6beeed220203d59f3b59e7bb26c1ad2",
            "hex": "47304402202b363622c40d3a06b918d7d5e301859b715ca0a8cd7d0499f30390f8c412f33902202ca9e428db357e2b99bb9bf649d0248fed55ee2cf39cce659f3685f83c195488012103add3f6dc81f758dded517d0ac594b479f6beeed220203d59f3b59e7bb26c1ad2"
          },
          "sequence": 4294967295
        }
      ],
      "vout": [
        {
          "value": 0.20000000,
          "n": 0,
          "scriptPubKey": {
            "asm": "OP_DUP OP_HASH160 e606ad2fb7cb5a5dc45f1340bb515db38e496d5d OP_EQUALVERIFY OP_CHECKSIG",
            "hex": "76a914e606ad2fb7cb5a5dc45f1340bb515db38e496d5d88ac",
            "reqSigs": 1,
            "type": "pubkeyhash",
            "addresses": [
              "LgCDgE4ZXvYRZjfWNBnutcbcXhDz9Gymdi"
            ]
          }
        }, 
        {
          "value": 0.00329434,
          "n": 1,
          "scriptPubKey": {
            "asm": "OP_DUP OP_HASH160 1a01985941a2c6769143971424b239acee719231 OP_EQUALVERIFY OP_CHECKSIG",
            "hex": "76a9141a01985941a2c6769143971424b239acee71923188ac",
            "reqSigs": 1,
            "type": "pubkeyhash",
            "addresses": [
              "LMbTk2kHVDn8yAgwjYhDVpV18D48e48R2w"
            ]
          }
        }
      ],
      "hex": "0100000001d84dac96dae5a0ba228216611fbc80bf8f6638803df99f5e4aacd0bc44cf0023000000006a47304402202b363622c40d3a06b918d7d5e301859b715ca0a8cd7d0499f30390f8c412f33902202ca9e428db357e2b99bb9bf649d0248fed55ee2cf39cce659f3685f83c195488012103add3f6dc81f758dded517d0ac594b479f6beeed220203d59f3b59e7bb26c1ad2ffffffff02002d3101000000001976a914e606ad2fb7cb5a5dc45f1340bb515db38e496d5d88acda060500000000001976a9141a01985941a2c6769143971424b239acee71923188ac00000000"
    }, 
    {
      "txid": "952a8adf9af0157e34f4a93ab007b6f5b14db7875a0d0ac245c7245a5e1b438a",
      "hash": "952a8adf9af0157e34f4a93ab007b6f5b14db7875a0d0ac245c7245a5e1b438a",
      "version": 1,
      "size": 225,
      "vsize": 225,
      "locktime": 0,
      "vin": [
        {
          "txid": "e6dc5ea6cc5d2e8310b68659cbbb23a6bcb493550925bfe138737a2402e3d614",
          "vout": 7,
          "scriptSig": {
            "asm": "304402200c7a6bf3d648817013de9741c305bb889899de86810da43e041860d2cd4550fe02201147ec2de2be6767febbf68b29f988e62a17e03e2eb6570e21aba3ebc0f7da1a[ALL] 038d7a1ed8178f5fdcebb20f75641162d48a3a4659abdf9942721be8ba74213103",
            "hex": "47304402200c7a6bf3d648817013de9741c305bb889899de86810da43e041860d2cd4550fe02201147ec2de2be6767febbf68b29f988e62a17e03e2eb6570e21aba3ebc0f7da1a0121038d7a1ed8178f5fdcebb20f75641162d48a3a4659abdf9942721be8ba74213103"
          },
          "sequence": 4294967295
        }
      ],
      "vout": [
        {
          "value": 0.07839263,
          "n": 0,
          "scriptPubKey": {
            "asm": "OP_DUP OP_HASH160 ac2d3a9a0683ecb1d26524060126045029f915a5 OP_EQUALVERIFY OP_CHECKSIG",
            "hex": "76a914ac2d3a9a0683ecb1d26524060126045029f915a588ac",
            "reqSigs": 1,
            "type": "pubkeyhash",
            "addresses": [
              "LavLfmV7ksMUDwgmdWhMWxdunPAuiTqKbd"
            ]
          }
        }, 
        {
          "value": 0.00073866,
          "n": 1,
          "scriptPubKey": {
            "asm": "OP_DUP OP_HASH160 a10ac6c701f4fe863fba3b4906481df71575b7c8 OP_EQUALVERIFY OP_CHECKSIG",
            "hex": "76a914a10ac6c701f4fe863fba3b4906481df71575b7c888ac",
            "reqSigs": 1,
            "type": "pubkeyhash",
            "addresses": [
              "LZuTxrrAWFTsB69868CYr7UMQqJ7MCp7NN"
            ]
          }
        }
      ],
      "hex": "010000000114d6e302247a7338e1bf25095593b4bca623bbcb5986b610832e5dcca65edce6070000006a47304402200c7a6bf3d648817013de9741c305bb889899de86810da43e041860d2cd4550fe02201147ec2de2be6767febbf68b29f988e62a17e03e2eb6570e21aba3ebc0f7da1a0121038d7a1ed8178f5fdcebb20f75641162d48a3a4659abdf9942721be8ba74213103ffffffff021f9e7700000000001976a914ac2d3a9a0683ecb1d26524060126045029f915a588ac8a200100000000001976a914a10ac6c701f4fe863fba3b4906481df71575b7c888ac00000000"
    }, 
    {
      "txid": "fa63909af961e2694f77769d7128d355c703e4723ce189e7d168f04f03769ec6",
      "hash": "fa63909af961e2694f77769d7128d355c703e4723ce189e7d168f04f03769ec6",
      "version": 1,
      "size": 225,
      "vsize": 225,
      "locktime": 0,
      "vin": [
        {
          "txid": "1037c52206d51c805b519707628c10f73edd6efaec3cc9a310d57fd29faf7e6f",
          "vout": 0,
          "scriptSig": {
            "asm": "304402202a8a6130eaaca37c6bc12d2b6cda99f002193ed8ebecab5c1b627e6acfb82a2102206ef2dd49c1aa62bb15b13e2715c07208459d196780ce69d1f34cf5a3cccaff5d[ALL] 0307841c2ff0242810b126d75e71600f36fa2e8731bd7feab19e2ded3e9f760bf1",
            "hex": "47304402202a8a6130eaaca37c6bc12d2b6cda99f002193ed8ebecab5c1b627e6acfb82a2102206ef2dd49c1aa62bb15b13e2715c07208459d196780ce69d1f34cf5a3cccaff5d01210307841c2ff0242810b126d75e71600f36fa2e8731bd7feab19e2ded3e9f760bf1"
          },
          "sequence": 4294967295
        }
      ],
      "vout": [
        {
          "value": 0.11856770,
          "n": 0,
          "scriptPubKey": {
            "asm": "OP_DUP OP_HASH160 01dca9db126de9e4a10e95324d0bc435ab029895 OP_EQUALVERIFY OP_CHECKSIG",
            "hex": "76a91401dca9db126de9e4a10e95324d0bc435ab02989588ac",
            "reqSigs": 1,
            "type": "pubkeyhash",
            "addresses": [
              "LKPoHNcrR2tewWjcmb33V89TAY2veK7DnV"
            ]
          }
        }, 
        {
          "value": 0.00126752,
          "n": 1,
          "scriptPubKey": {
            "asm": "OP_DUP OP_HASH160 444610b9805e4cf8f654c50556b1f3410cbf3a58 OP_EQUALVERIFY OP_CHECKSIG",
            "hex": "76a914444610b9805e4cf8f654c50556b1f3410cbf3a5888ac",
            "reqSigs": 1,
            "type": "pubkeyhash",
            "addresses": [
              "LRSx9UugAdpr2PP78PZEPBp2HoUUhCgRvV"
            ]
          }
        }
      ],
      "hex": "01000000016f7eaf9fd27fd510a3c93cecfa6edd3ef7108c620797515b801cd50622c53710000000006a47304402202a8a6130eaaca37c6bc12d2b6cda99f002193ed8ebecab5c1b627e6acfb82a2102206ef2dd49c1aa62bb15b13e2715c07208459d196780ce69d1f34cf5a3cccaff5d01210307841c2ff0242810b126d75e71600f36fa2e8731bd7feab19e2ded3e9f760bf1ffffffff0282ebb400000000001976a91401dca9db126de9e4a10e95324d0bc435ab02989588ac20ef0100000000001976a914444610b9805e4cf8f654c50556b1f3410cbf3a5888ac00000000"
    }, 
    {
      "txid": "3bdfdbd26b649364cfb9d7dca8c334af4bc2080cbaea1d76c016d465942d6bd3",
      "hash": "3bdfdbd26b649364cfb9d7dca8c334af4bc2080cbaea1d76c016d465942d6bd3",
      "version": 2,
      "size": 225,
      "vsize": 225,
      "locktime": 1359320,
      "vin": [
        {
          "txid": "37a3deb8061f3b88a8499de98fc840734e1426fe767c398f000df71a99a62ef3",
          "vout": 1,
          "scriptSig": {
            "asm": "304402203311f036c3ff4ddf45182d446e1d0fc7003d650d3ebb7fce298a5b7577ba69af022032d09a4655591347061bcfecca4ef2284cd8b77d7eed196005f0efaf23bf8307[ALL] 037ab760a7eb96bf6d8d4d77875dfb3348ac10bdc68a9fe9c2145d2fae5558f2f6",
            "hex": "47304402203311f036c3ff4ddf45182d446e1d0fc7003d650d3ebb7fce298a5b7577ba69af022032d09a4655591347061bcfecca4ef2284cd8b77d7eed196005f0efaf23bf83070121037ab760a7eb96bf6d8d4d77875dfb3348ac10bdc68a9fe9c2145d2fae5558f2f6"
          },
          "sequence": 4294967294
        }
      ],
      "vout": [
        {
          "value": 197.25416202,
          "n": 0,
          "scriptPubKey": {
            "asm": "OP_DUP OP_HASH160 fd4dba329f8cd1dd1aa1f31d7f02009e0bec51ea OP_EQUALVERIFY OP_CHECKSIG",
            "hex": "76a914fd4dba329f8cd1dd1aa1f31d7f02009e0bec51ea88ac",
            "reqSigs": 1,
            "type": "pubkeyhash",
            "addresses": [
              "LiKJLLSdFbogi8wTZQj7BC9QWGL2VcX4Pc"
            ]
          }
        }, 
        {
          "value": 0.97610720,
          "n": 1,
          "scriptPubKey": {
            "asm": "OP_DUP OP_HASH160 923ed72733d691dd39175ec8cd413f8721da7487 OP_EQUALVERIFY OP_CHECKSIG",
            "hex": "76a914923ed72733d691dd39175ec8cd413f8721da748788ac",
            "reqSigs": 1,
            "type": "pubkeyhash",
            "addresses": [
              "LYZECT6Rd8gtbjyujxm7uPTiNqd6BRiJ8H"
            ]
          }
        }
      ],
      "hex": "0200000001f32ea6991af70d008f397c76fe26144e7340c88fe99d49a8883b1f06b8dea337010000006a47304402203311f036c3ff4ddf45182d446e1d0fc7003d650d3ebb7fce298a5b7577ba69af022032d09a4655591347061bcfecca4ef2284cd8b77d7eed196005f0efaf23bf83070121037ab760a7eb96bf6d8d4d77875dfb3348ac10bdc68a9fe9c2145d2fae5558f2f6feffffff020af7b997040000001976a914fd4dba329f8cd1dd1aa1f31d7f02009e0bec51ea88ace06bd105000000001976a914923ed72733d691dd39175ec8cd413f8721da748788acd8bd1400"
    }, 
    {
      "txid": "de0cccef9cd934e52d8da63b9250edcecf05ce583834195bb191f11ebc5e72fe",
      "hash": "de0cccef9cd934e52d8da63b9250edcecf05ce583834195bb191f11ebc5e72fe",
      "version": 1,
      "size": 225,
      "vsize": 225,
      "locktime": 0,
      "vin": [
        {
          "txid": "52869b57df193a8a20fc627c80c627d05b877fa0af8007c89bf21c8e3258c6b9",
          "vout": 27,
          "scriptSig": {
            "asm": "304402207615a7cd05cce1bc444b7ecd3314983fe2c504244b5fdfc00555919c1fa5bdb4022068aa98485c57315aef3c953a4876bc1677d8cb72e65dcd962cef0a09884666e5[ALL] 029aafd244bb9e3fa16ab0d1f51f2e88966a45ce1e97bc95066374475cb02c4772",
            "hex": "47304402207615a7cd05cce1bc444b7ecd3314983fe2c504244b5fdfc00555919c1fa5bdb4022068aa98485c57315aef3c953a4876bc1677d8cb72e65dcd962cef0a09884666e50121029aafd244bb9e3fa16ab0d1f51f2e88966a45ce1e97bc95066374475cb02c4772"
          },
          "sequence": 4294967295
        }
      ],
      "vout": [
        {
          "value": 0.00323968,
          "n": 0,
          "scriptPubKey": {
            "asm": "OP_DUP OP_HASH160 1ce305fdefbccbcb7989edfbd49cf31068913c6c OP_EQUALVERIFY OP_CHECKSIG",
            "hex": "76a9141ce305fdefbccbcb7989edfbd49cf31068913c6c88ac",
            "reqSigs": 1,
            "type": "pubkeyhash",
            "addresses": [
              "LMrh9St8JLBcqYTsXVTNrK4D9w3qXoguc8"
            ]
          }
        }, 
        {
          "value": 0.49653432,
          "n": 1,
          "scriptPubKey": {
            "asm": "OP_DUP OP_HASH160 a8baa33e3b98727daeaed1e8a6f224a5746bdecd OP_EQUALVERIFY OP_CHECKSIG",
            "hex": "76a914a8baa33e3b98727daeaed1e8a6f224a5746bdecd88ac",
            "reqSigs": 1,
            "type": "pubkeyhash",
            "addresses": [
              "Lac7NFdYyrjS2hQMfPY5cqrXiMk2d1LNSv"
            ]
          }
        }
      ],
      "hex": "0100000001b9c658328e1cf29bc80780afa07f875bd027c6807c62fc208a3a19df579b86521b0000006a47304402207615a7cd05cce1bc444b7ecd3314983fe2c504244b5fdfc00555919c1fa5bdb4022068aa98485c57315aef3c953a4876bc1677d8cb72e65dcd962cef0a09884666e50121029aafd244bb9e3fa16ab0d1f51f2e88966a45ce1e97bc95066374475cb02c4772ffffffff0280f10400000000001976a9141ce305fdefbccbcb7989edfbd49cf31068913c6c88acb8a6f502000000001976a914a8baa33e3b98727daeaed1e8a6f224a5746bdecd88ac00000000"
    }, 
    {
      "txid": "143be46f1a6f3607a8776770eaed3991d8301c876e04a8ca0901f0932c96ee03",
      "hash": "143be46f1a6f3607a8776770eaed3991d8301c876e04a8ca0901f0932c96ee03",
      "version": 2,
      "size": 1031,
      "vsize": 1031,
      "locktime": 1359320,
      "vin": [
        {
          "txid": "fcd9f508177ce4149a44f411a56839971de8420e35600676706d6a67fcfb4d85",
          "vout": 1,
          "scriptSig": {
            "asm": "304402207af2daeed1c38bf72f9a2763173581e206c2425a6b6a0f1354c2f8a1cf8eebe802203fb7f441d8283fd9d0303c6af110e1b7b8ebbe6a0249c362e1faaf672910eb73[ALL] 03c9ed6ac80fa2679835b821348af08e2883161638a7c7fda924de88b770bd1f0b",
            "hex": "47304402207af2daeed1c38bf72f9a2763173581e206c2425a6b6a0f1354c2f8a1cf8eebe802203fb7f441d8283fd9d0303c6af110e1b7b8ebbe6a0249c362e1faaf672910eb73012103c9ed6ac80fa2679835b821348af08e2883161638a7c7fda924de88b770bd1f0b"
          },
          "sequence": 4294967294
        }, 
        {
          "txid": "f461446e01caf8a8df4622f5a73145d75b6d826bcfaec68861aab9953a2f12a2",
          "vout": 0,
          "scriptSig": {
            "asm": "30450221008d82aeabb2417348cd1b0b799a8c9decfda91c06bbf2c550229dd2ef322c44260220065b5d9af58aff431ccc297d49be4e9333250e5253f17233c633ba90933af476[ALL] 031436bcd37697558ccf6ba9f8be8d2d33934187516fabcd7a240b3fd176ff360c",
            "hex": "4830450221008d82aeabb2417348cd1b0b799a8c9decfda91c06bbf2c550229dd2ef322c44260220065b5d9af58aff431ccc297d49be4e9333250e5253f17233c633ba90933af4760121031436bcd37697558ccf6ba9f8be8d2d33934187516fabcd7a240b3fd176ff360c"
          },
          "sequence": 4294967294
        }, 
        {
          "txid": "cd76eb3c8fe97466e82b9f69d6c934736411be1ffe321b0add71c122550f77b1",
          "vout": 1,
          "scriptSig": {
            "asm": "304402203f832c844b034141d2e74faa9072a24dc61b1892ff3d048bb094904eb19e5f35022006a8da630088e268b2fd768b895e7342ff91ce0145aa87ba88afdb516e671fac[ALL] 03bc05bc7a72e9cfcc1f8dcea53f95bf59b4b33472da3316beb4760d6cbbcdf8c1",
            "hex": "47304402203f832c844b034141d2e74faa9072a24dc61b1892ff3d048bb094904eb19e5f35022006a8da630088e268b2fd768b895e7342ff91ce0145aa87ba88afdb516e671fac012103bc05bc7a72e9cfcc1f8dcea53f95bf59b4b33472da3316beb4760d6cbbcdf8c1"
          },
          "sequence": 4294967294
        }, 
        {
          "txid": "e520f0c4427cb55670704f96777adad740aa459b498358c070ade329f4173124",
          "vout": 717,
          "scriptSig": {
            "asm": "30440220522affc50d2b4c00e9558cb11127a5c55cb98fb47c257b3bf57def7d5e4a338802207345ebf5e70424e485d874d49530110cd2ae60384d9da1189b783338a697b06c[ALL] 0341882be47fc16a51029dfecbed153b3f0e8a886101c24ad2b2498a34bed3ab45",
            "hex": "4730440220522affc50d2b4c00e9558cb11127a5c55cb98fb47c257b3bf57def7d5e4a338802207345ebf5e70424e485d874d49530110cd2ae60384d9da1189b783338a697b06c01210341882be47fc16a51029dfecbed153b3f0e8a886101c24ad2b2498a34bed3ab45"
          },
          "sequence": 4294967294
        }, 
        {
          "txid": "ae3f4967063350f55b457789d5fc24d2b4f2d4861955d73cb4c0f0ae2f46346c",
          "vout": 0,
          "scriptSig": {
            "asm": "3045022100c64f755c7328c89a86e3191e31ba30e9a7754c8aa7548fb6668a11e411db10150220690141575a4b517e59f957c8be81de43d239fde519e479eceb2edf6a4600e480[ALL] 02f88cd92108de08078b8fe87b436acebe044ca12ee37aee9b5566fc46036f15de",
            "hex": "483045022100c64f755c7328c89a86e3191e31ba30e9a7754c8aa7548fb6668a11e411db10150220690141575a4b517e59f957c8be81de43d239fde519e479eceb2edf6a4600e480012102f88cd92108de08078b8fe87b436acebe044ca12ee37aee9b5566fc46036f15de"
          },
          "sequence": 4294967294
        }, 
        {
          "txid": "701acac88d97dd4f4d320abb8ff63adf17ce1e0685244678899598e58acf4172",
          "vout": 1,
          "scriptSig": {
            "asm": "304502210095ea710cc318094bcb47ee8d295b9371b86012b47add018caad9c784741a10700220461b6c1c29351c0e2a27307f68f40f3c8362ac4062efe5f02887de53476ed49c[ALL] 02a0d07b786984b99fe392ad9da351e41d8e233d869c83f899d90a195cfc65acf0",
            "hex": "48304502210095ea710cc318094bcb47ee8d295b9371b86012b47add018caad9c784741a10700220461b6c1c29351c0e2a27307f68f40f3c8362ac4062efe5f02887de53476ed49c012102a0d07b786984b99fe392ad9da351e41d8e233d869c83f899d90a195cfc65acf0"
          },
          "sequence": 4294967294
        }
      ],
      "vout": [
        {
          "value": 1.10147500,
          "n": 0,
          "scriptPubKey": {
            "asm": "OP_DUP OP_HASH160 b08d8b999943a723625fbbab0895e712cb9ba4f9 OP_EQUALVERIFY OP_CHECKSIG",
            "hex": "76a914b08d8b999943a723625fbbab0895e712cb9ba4f988ac",
            "reqSigs": 1,
            "type": "pubkeyhash",
            "addresses": [
              "LbKUkiUWv6ouAM6yhADXDWZcmwpd8y1Gne"
            ]
          }
        }, 
        {
          "value": 0.92607000,
          "n": 1,
          "scriptPubKey": {
            "asm": "OP_DUP OP_HASH160 b113328626f2946a90823d41cc7225ebce697d3a OP_EQUALVERIFY OP_CHECKSIG",
            "hex": "76a914b113328626f2946a90823d41cc7225ebce697d3a88ac",
            "reqSigs": 1,
            "type": "pubkeyhash",
            "addresses": [
              "LbNEs2HMXZr4hegnK5fYvqMTyCLMgb4mBx"
            ]
          }
        }, 
        {
          "value": 19.78000000,
          "n": 2,
          "scriptPubKey": {
            "asm": "OP_DUP OP_HASH160 2a36bc62cf6f44dc4f77e583395cbe7f12ee3641 OP_EQUALVERIFY OP_CHECKSIG",
            "hex": "76a9142a36bc62cf6f44dc4f77e583395cbe7f12ee364188ac",
            "reqSigs": 1,
            "type": "pubkeyhash",
            "addresses": [
              "LP5ADPKjWJKrk66VJJQgya3e8fJr3GLy6s"
            ]
          }
        }, 
        {
          "value": 0.00896606,
          "n": 3,
          "scriptPubKey": {
            "asm": "OP_DUP OP_HASH160 4fa293a554058af1d91b2ac9e4b2971cdb90cc97 OP_EQUALVERIFY OP_CHECKSIG",
            "hex": "76a9144fa293a554058af1d91b2ac9e4b2971cdb90cc9788ac",
            "reqSigs": 1,
            "type": "pubkeyhash",
            "addresses": [
              "LSV2QQ1w5GHFxsmiMory87pQNzHLyVp8hX"
            ]
          }
        }
      ],
      "hex": "0200000006854dfbfc676a6d70760660350e42e81d973968a511f4449a14e47c1708f5d9fc010000006a47304402207af2daeed1c38bf72f9a2763173581e206c2425a6b6a0f1354c2f8a1cf8eebe802203fb7f441d8283fd9d0303c6af110e1b7b8ebbe6a0249c362e1faaf672910eb73012103c9ed6ac80fa2679835b821348af08e2883161638a7c7fda924de88b770bd1f0bfeffffffa2122f3a95b9aa6188c6aecf6b826d5bd74531a7f52246dfa8f8ca016e4461f4000000006b4830450221008d82aeabb2417348cd1b0b799a8c9decfda91c06bbf2c550229dd2ef322c44260220065b5d9af58aff431ccc297d49be4e9333250e5253f17233c633ba90933af4760121031436bcd37697558ccf6ba9f8be8d2d33934187516fabcd7a240b3fd176ff360cfeffffffb1770f5522c171dd0a1b32fe1fbe11647334c9d6699f2be86674e98f3ceb76cd010000006a47304402203f832c844b034141d2e74faa9072a24dc61b1892ff3d048bb094904eb19e5f35022006a8da630088e268b2fd768b895e7342ff91ce0145aa87ba88afdb516e671fac012103bc05bc7a72e9cfcc1f8dcea53f95bf59b4b33472da3316beb4760d6cbbcdf8c1feffffff243117f429e3ad70c05883499b45aa40d7da7a77964f707056b57c42c4f020e5cd0200006a4730440220522affc50d2b4c00e9558cb11127a5c55cb98fb47c257b3bf57def7d5e4a338802207345ebf5e70424e485d874d49530110cd2ae60384d9da1189b783338a697b06c01210341882be47fc16a51029dfecbed153b3f0e8a886101c24ad2b2498a34bed3ab45feffffff6c34462faef0c0b43cd7551986d4f2b4d224fcd58977455bf550330667493fae000000006b483045022100c64f755c7328c89a86e3191e31ba30e9a7754c8aa7548fb6668a11e411db10150220690141575a4b517e59f957c8be81de43d239fde519e479eceb2edf6a4600e480012102f88cd92108de08078b8fe87b436acebe044ca12ee37aee9b5566fc46036f15defeffffff7241cf8ae598958978462485061ece17df3af68fbb0a324d4fdd978dc8ca1a70010000006b48304502210095ea710cc318094bcb47ee8d295b9371b86012b47add018caad9c784741a10700220461b6c1c29351c0e2a27307f68f40f3c8362ac4062efe5f02887de53476ed49c012102a0d07b786984b99fe392ad9da351e41d8e233d869c83f899d90a195cfc65acf0feffffff04acb79006000000001976a914b08d8b999943a723625fbbab0895e712cb9ba4f988ac18128505000000001976a914b113328626f2946a90823d41cc7225ebce697d3a88ac80e2e575000000001976a9142a36bc62cf6f44dc4f77e583395cbe7f12ee364188ac5eae0d00000000001976a9144fa293a554058af1d91b2ac9e4b2971cdb90cc9788acd8bd1400"
    }, 
    {
      "txid": "cea8c4c09fdb9f75c91832f66fe84ab79730419fade762aef055a30ea5391a91",
      "hash": "cea8c4c09fdb9f75c91832f66fe84ab79730419fade762aef055a30ea5391a91",
      "version": 1,
      "size": 224,
      "vsize": 224,
      "locktime": 6047,
      "vin": [
        {
          "txid": "dc12d22d82d29597c20ccd7ec8b82ea4db5f5a27b50c541362abc3fa2b17af19",
          "vout": 1,
          "scriptSig": {
            "asm": "3045022100faab2fb40b977944cd3be705c1d96a5450713b7696668f41121947715cedd900022018bf8d97e27f5d47c478663d30938d34681b3e1f382851ee99c9b1a8cd114a2d[ALL] 02f211669b64a71e5356e76ab4a81c7ac46d616893a2603bdf9de20bcf23d40910",
            "hex": "483045022100faab2fb40b977944cd3be705c1d96a5450713b7696668f41121947715cedd900022018bf8d97e27f5d47c478663d30938d34681b3e1f382851ee99c9b1a8cd114a2d012102f211669b64a71e5356e76ab4a81c7ac46d616893a2603bdf9de20bcf23d40910"
          },
          "sequence": 4294967294
        }
      ],
      "vout": [
        {
          "value": 0.42605000,
          "n": 0,
          "scriptPubKey": {
            "asm": "OP_DUP OP_HASH160 8ece984e21e9086b8d055dcfeca9517173a3e5ea OP_EQUALVERIFY OP_CHECKSIG",
            "hex": "76a9148ece984e21e9086b8d055dcfeca9517173a3e5ea88ac",
            "reqSigs": 1,
            "type": "pubkeyhash",
            "addresses": [
              "LYF3hvP4b9PohjRJQK3i4Wo2ebjP36FK4i"
            ]
          }
        }, 
        {
          "value": 0.60000000,
          "n": 1,
          "scriptPubKey": {
            "asm": "OP_HASH160 ef1d8b95d653423d45a4f783bfa4a5bd3c57ed90 OP_EQUAL",
            "hex": "a914ef1d8b95d653423d45a4f783bfa4a5bd3c57ed9087",
            "reqSigs": 1,
            "type": "scripthash",
            "addresses": [
              "MVhV87o75EYz3k49MsNo59M9NGDa1uxDbZ"
            ]
          }
        }
      ],
      "hex": "010000000119af172bfac3ab6213540cb5275a5fdba42eb8c87ecd0cc29795d2822dd212dc010000006b483045022100faab2fb40b977944cd3be705c1d96a5450713b7696668f41121947715cedd900022018bf8d97e27f5d47c478663d30938d34681b3e1f382851ee99c9b1a8cd114a2d012102f211669b64a71e5356e76ab4a81c7ac46d616893a2603bdf9de20bcf23d40910feffffff02c8198a02000000001976a9148ece984e21e9086b8d055dcfeca9517173a3e5ea88ac008793030000000017a914ef1d8b95d653423d45a4f783bfa4a5bd3c57ed90879f170000"
    }
  ],
  "time": 1517267701,
  "mediantime": 1517267163,
  "nonce": 3279533578,
  "bits": "1a042eae",
  "difficulty": 4011378.762614286,
  "chainwork": "000000000000000000000000000000000000000000000033e585f62f66b28936",
  "previousblockhash": "92cfd65b362c726a43e46e930b1c8eef1c534e179dae3a1a21e84a62dce29fe9",
  "nextblockhash": "242f3fd0c1d568099ebf13649b37a25dbc424c6c73ac51a472d88c9fdf610014"
}
