{
  "hash": "5cb826e504a8d4a5be0ac6fcd4653137552a6593c6e140c5110bd4081534b162",
  "confirmations": 3302,
  "strippedsize": 253,
  "size": 253,
  "weight": 1012,
  "height": 1357693,
  "version": 536870912,
  "versionHex": "20000000",
  "merkleroot": "8685b8b0b037e2667fd352401dc97b6c9f993267bf55528b66f2d5b7249f090b",
  "tx": [
    {
      "txid": "8685b8b0b037e2667fd352401dc97b6c9f993267bf55528b66f2d5b7249f090b",
      "hash": "8685b8b0b037e2667fd352401dc97b6c9f993267bf55528b66f2d5b7249f090b",
      "version": 1,
      "size": 172,
      "vsize": 172,
      "locktime": 0,
      "vin": [
        {
          "coinbase": "037db7141a4d696e656420627920416e74506f6f6c20626a3532205a6c200dfabe6d6d7786992542ee97c446999a377b9e7bed572df37f26f197640d4ecec895d2633e0400000000000000c01200000000000046000000",
          "sequence": 4294967295
        }
      ],
      "vout": [
        {
          "value": 25.00000000,
          "n": 0,
          "scriptPubKey": {
            "asm": "OP_DUP OP_HASH160 0ff3ccc5e8be88afe24b5d634e5852d474dbdff1 OP_EQUALVERIFY OP_CHECKSIG",
            "hex": "76a9140ff3ccc5e8be88afe24b5d634e5852d474dbdff188ac",
            "reqSigs": 1,
            "type": "pubkeyhash",
            "addresses": [
              "LLgJTbzZMsRTCUF1NtvvL9SR1a4pVieW89"
            ]
          }
        }
      ],
      "hex": "01000000010000000000000000000000000000000000000000000000000000000000000000ffffffff57037db7141a4d696e656420627920416e74506f6f6c20626a3532205a6c200dfabe6d6d7786992542ee97c446999a377b9e7bed572df37f26f197640d4ecec895d2633e0400000000000000c01200000000000046000000ffffffff0100f90295000000001976a9140ff3ccc5e8be88afe24b5d634e5852d474dbdff188ac00000000"
    }
  ],
  "time": 1517035533,
  "mediantime": 1517035378,
  "nonce": 8191886,
  "bits": "1a047f14",
  "difficulty": 3731199.183374282,
  "chainwork": "000000000000000000000000000000000000000000000032723b5fbde2ecbdcc",
  "previousblockhash": "307e826cc19359459a02c56582f7dc384ece277ae1c8a0ca7ec4846dd39e8657",
  "nextblockhash": "8f6af8653ef8baa079ede9cfda49a7c9d1e1c6ff9a152da4c6f53503b32b8e4e"
}
