{
  "hash": "5ce674cea9e92937247dcc2cc4bc938bf4a66aea9051e984507a1be4e89aca18",
  "confirmations": 1747,
  "strippedsize": 4373,
  "size": 5069,
  "weight": 18188,
  "height": 1359247,
  "version": 536870912,
  "versionHex": "20000000",
  "merkleroot": "396366b1ac7debb7a95bcf9a916e852e07b9648c819130fd4cbbcefd198d32c9",
  "tx": [
    {
      "txid": "3f7030d67c22f7a7ae7504f2bfd1f93ad87ae810aee9c2b7d5fe3e6ed4008517",
      "hash": "e64f4bd259a6e41962c3450bb37d79e2987d4b3ac7f3574c98922f38fae4cf5a",
      "version": 1,
      "size": 253,
      "vsize": 226,
      "locktime": 0,
      "vin": [
        {
          "coinbase": "038fbd1441d69be075dbad4a41d69be075d497302f4c54432e544f502ffabe6d6d10de692362fe75ec287afdf78bf9ba23e0e599fb4be1ce5b8b76a19f2bedc30301000000000000006206c79ea100000000000000",
          "sequence": 4294967295
        }
      ],
      "vout": [
        {
          "value": 25.01423500,
          "n": 0,
          "scriptPubKey": {
            "asm": "OP_DUP OP_HASH160 0c617fdb2ea42aed30a509595ee21ba3f6688db0 OP_EQUALVERIFY OP_CHECKSIG",
            "hex": "76a9140c617fdb2ea42aed30a509595ee21ba3f6688db088ac",
            "reqSigs": 1,
            "type": "pubkeyhash",
            "addresses": [
              "LLMRAtr3qBje2ySEa3CnZ55LA4TQMWnRY3"
            ]
          }
        }, 
        {
          "value": 0.00000000,
          "n": 1,
          "scriptPubKey": {
            "asm": "OP_RETURN aa21a9ed117eb52766cfa18f83f2806363a983a0b962e25fa0217605e33a495e96b12b42",
            "hex": "6a24aa21a9ed117eb52766cfa18f83f2806363a983a0b962e25fa0217605e33a495e96b12b42",
            "type": "nulldata"
          }
        }
      ],
      "hex": "010000000001010000000000000000000000000000000000000000000000000000000000000000ffffffff55038fbd1441d69be075dbad4a41d69be075d497302f4c54432e544f502ffabe6d6d10de692362fe75ec287afdf78bf9ba23e0e599fb4be1ce5b8b76a19f2bedc30301000000000000006206c79ea100000000000000ffffffff028cb11895000000001976a9140c617fdb2ea42aed30a509595ee21ba3f6688db088ac0000000000000000266a24aa21a9ed117eb52766cfa18f83f2806363a983a0b962e25fa0217605e33a495e96b12b420120000000000000000000000000000000000000000000000000000000000000000000000000"
    }, 
    {
      "txid": "9dac25f926e7ffc3a09fc709fa43ad55b981f778dc34397098031653cd82d47a",
      "hash": "9dac25f926e7ffc3a09fc709fa43ad55b981f778dc34397098031653cd82d47a",
      "version": 1,
      "size": 338,
      "vsize": 338,
      "locktime": 0,
      "vin": [
        {
          "txid": "4a86717dde921ba5418f653751b4b8236edde7d3721ee5a1113a12bfdab540f6",
          "vout": 1,
          "scriptSig": {
            "asm": "30440220744025a30f129427890f252592191bd3a9e6e78add35f3f38716f5623402696702200527907d4ce49c8e772baf6d93d208fba7b1e639215ba6ac6363392ebb914c70[ALL] 03bf29d6274971f2f52dddfed3b8593e447b652b437ee9f5b54e6aa1a4e84a9ae8",
            "hex": "4730440220744025a30f129427890f252592191bd3a9e6e78add35f3f38716f5623402696702200527907d4ce49c8e772baf6d93d208fba7b1e639215ba6ac6363392ebb914c70012103bf29d6274971f2f52dddfed3b8593e447b652b437ee9f5b54e6aa1a4e84a9ae8"
          },
          "sequence": 4294967295
        }, 
        {
          "txid": "839fce72ae1a8449aa8a0b7d57807710822e8d5bec4a6aa428d770e79df0662b",
          "vout": 1,
          "scriptSig": {
            "asm": "304402207c47c5d88827b4da10d2fdc1363cad9a0de6879f4a95c7c0b4f5b67279ec4448022013709c47edc7f9f15dba3f1cffd77a288221f7d04a29d1afc131fd7851060797[ALL] 03bf29d6274971f2f52dddfed3b8593e447b652b437ee9f5b54e6aa1a4e84a9ae8",
            "hex": "47304402207c47c5d88827b4da10d2fdc1363cad9a0de6879f4a95c7c0b4f5b67279ec4448022013709c47edc7f9f15dba3f1cffd77a288221f7d04a29d1afc131fd7851060797012103bf29d6274971f2f52dddfed3b8593e447b652b437ee9f5b54e6aa1a4e84a9ae8"
          },
          "sequence": 4294967295
        }
      ],
      "vout": [
        {
          "value": 0.43824392,
          "n": 0,
          "scriptPubKey": {
            "asm": "OP_DUP OP_HASH160 7691c0c0a404d3771d4536eb86d6946e819239ce OP_EQUALVERIFY OP_CHECKSIG",
            "hex": "76a9147691c0c0a404d3771d4536eb86d6946e819239ce88ac",
            "reqSigs": 1,
            "type": "pubkeyhash",
            "addresses": [
              "LW2tbwX2SCQkhSUWfkV3xuBqJk37fGzs7M"
            ]
          }
        }
      ],
      "hex": "0100000002f640b5dabf123a11a1e51e72d3e7dd6e23b8b45137658f41a51b92de7d71864a010000006a4730440220744025a30f129427890f252592191bd3a9e6e78add35f3f38716f5623402696702200527907d4ce49c8e772baf6d93d208fba7b1e639215ba6ac6363392ebb914c70012103bf29d6274971f2f52dddfed3b8593e447b652b437ee9f5b54e6aa1a4e84a9ae8ffffffff2b66f09de770d728a46a4aec5b8d2e82107780577d0b8aaa49841aae72ce9f83010000006a47304402207c47c5d88827b4da10d2fdc1363cad9a0de6879f4a95c7c0b4f5b67279ec4448022013709c47edc7f9f15dba3f1cffd77a288221f7d04a29d1afc131fd7851060797012103bf29d6274971f2f52dddfed3b8593e447b652b437ee9f5b54e6aa1a4e84a9ae8ffffffff0108b59c02000000001976a9147691c0c0a404d3771d4536eb86d6946e819239ce88ac00000000"
    }, 
    {
      "txid": "50330f21c678a3707c490e5843423ab9e2d19c08f63bf586980772a3844cb3b9",
      "hash": "50330f21c678a3707c490e5843423ab9e2d19c08f63bf586980772a3844cb3b9",
      "version": 1,
      "size": 225,
      "vsize": 225,
      "locktime": 0,
      "vin": [
        {
          "txid": "b50e06a72256fd8ca66d3d206ea7d5cdc3441680ba12ff150140e348152dc646",
          "vout": 1,
          "scriptSig": {
            "asm": "30440220451760e850efc23130e0dcab3afe2e15ff3ef94832fad28e50098b54f9c0af0b0220046a2bad605229671fd5044275a9c411dedc701d00d543fe272197069f473a98[ALL] 0224d40454c78fd6407620d42950b532c60ec3bea6f5dbdd010715e6fd07aa54ea",
            "hex": "4730440220451760e850efc23130e0dcab3afe2e15ff3ef94832fad28e50098b54f9c0af0b0220046a2bad605229671fd5044275a9c411dedc701d00d543fe272197069f473a9801210224d40454c78fd6407620d42950b532c60ec3bea6f5dbdd010715e6fd07aa54ea"
          },
          "sequence": 4294967295
        }
      ],
      "vout": [
        {
          "value": 0.81765849,
          "n": 0,
          "scriptPubKey": {
            "asm": "OP_DUP OP_HASH160 1764b7e621b9338cce2f2d18974660318dafb006 OP_EQUALVERIFY OP_CHECKSIG",
            "hex": "76a9141764b7e621b9338cce2f2d18974660318dafb00688ac",
            "reqSigs": 1,
            "type": "pubkeyhash",
            "addresses": [
              "LMMeTfBYBVLBGS55wvhkz3sHLCfrBtSr4Z"
            ]
          }
        }, 
        {
          "value": 0.25976172,
          "n": 1,
          "scriptPubKey": {
            "asm": "OP_DUP OP_HASH160 fb42dafc9bfb4939eec7d635a188f740d32f32c3 OP_EQUALVERIFY OP_CHECKSIG",
            "hex": "76a914fb42dafc9bfb4939eec7d635a188f740d32f32c388ac",
            "reqSigs": 1,
            "type": "pubkeyhash",
            "addresses": [
              "Li8VxZLEYEDHPR1zn4hp4TKuH5t8Q6oUg7"
            ]
          }
        }
      ],
      "hex": "010000000146c62d1548e3400115ff12ba801644c3cdd5a76e203d6da68cfd5622a7060eb5010000006a4730440220451760e850efc23130e0dcab3afe2e15ff3ef94832fad28e50098b54f9c0af0b0220046a2bad605229671fd5044275a9c411dedc701d00d543fe272197069f473a9801210224d40454c78fd6407620d42950b532c60ec3bea6f5dbdd010715e6fd07aa54eaffffffff02d9a5df04000000001976a9141764b7e621b9338cce2f2d18974660318dafb00688ac6c5d8c01000000001976a914fb42dafc9bfb4939eec7d635a188f740d32f32c388ac00000000"
    }, 
    {
      "txid": "7927e94ae51543e9638f5c868754201b349ade9baa340b636e5f4cc87563108e",
      "hash": "7927e94ae51543e9638f5c868754201b349ade9baa340b636e5f4cc87563108e",
      "version": 1,
      "size": 336,
      "vsize": 336,
      "locktime": 0,
      "vin": [
        {
          "txid": "6fc5e0cd11024317c11a1837129b49d61a7b6b28e9059258c6667150afdc8be6",
          "vout": 1,
          "scriptSig": {
            "asm": "0 30450221009cd3dad1eb5a681bfdee4dd176fd2c12e7407197be1bbd671412075ff3543d4802202222b40ed8178b36101d8107bfbaa1f751cb52b330fc5b9b5bf71c1bc2c601a6[ALL] 30450221009dbe097dd182c75e8d06dfad63671c5f27c79d26427f192389c267830140281e02203e0b1f4d582a53077112ff6707351bf0b4a77decee8d7a659468883e9a18d299[ALL] 522102f77ec37a042ba4e5e6aef7760398bf59b87ac4c5dee30a2fb8798e9630d4916e210276b93401dc495b28592f66411a7c9093b468f8678db51144fc6a36f550d94aa952ae",
            "hex": "004830450221009cd3dad1eb5a681bfdee4dd176fd2c12e7407197be1bbd671412075ff3543d4802202222b40ed8178b36101d8107bfbaa1f751cb52b330fc5b9b5bf71c1bc2c601a6014830450221009dbe097dd182c75e8d06dfad63671c5f27c79d26427f192389c267830140281e02203e0b1f4d582a53077112ff6707351bf0b4a77decee8d7a659468883e9a18d2990147522102f77ec37a042ba4e5e6aef7760398bf59b87ac4c5dee30a2fb8798e9630d4916e210276b93401dc495b28592f66411a7c9093b468f8678db51144fc6a36f550d94aa952ae"
          },
          "sequence": 4294967295
        }
      ],
      "vout": [
        {
          "value": 0.03159400,
          "n": 0,
          "scriptPubKey": {
            "asm": "OP_DUP OP_HASH160 fbe3584f80f6d6cedc4f333267f8077c4e5abe68 OP_EQUALVERIFY OP_CHECKSIG",
            "hex": "76a914fbe3584f80f6d6cedc4f333267f8077c4e5abe6888ac",
            "reqSigs": 1,
            "type": "pubkeyhash",
            "addresses": [
              "LiBpDZs2j875MScqSP7f3d3DrQ8Fw8ZqLT"
            ]
          }
        }, 
        {
          "value": 21.51348200,
          "n": 1,
          "scriptPubKey": {
            "asm": "OP_HASH160 75b77316f8d91ff71fb2819115d1b6b9e80ccee9 OP_EQUAL",
            "hex": "a91475b77316f8d91ff71fb2819115d1b6b9e80ccee987",
            "reqSigs": 1,
            "type": "scripthash",
            "addresses": [
              "MJdb4B3BMDrfpB1FpKsPYQ1tDHdkNa1oLB"
            ]
          }
        }
      ],
      "hex": "0100000001e68bdcaf507166c6589205e9286b7b1ad6499b1237181ac117430211cde0c56f01000000db004830450221009cd3dad1eb5a681bfdee4dd176fd2c12e7407197be1bbd671412075ff3543d4802202222b40ed8178b36101d8107bfbaa1f751cb52b330fc5b9b5bf71c1bc2c601a6014830450221009dbe097dd182c75e8d06dfad63671c5f27c79d26427f192389c267830140281e02203e0b1f4d582a53077112ff6707351bf0b4a77decee8d7a659468883e9a18d2990147522102f77ec37a042ba4e5e6aef7760398bf59b87ac4c5dee30a2fb8798e9630d4916e210276b93401dc495b28592f66411a7c9093b468f8678db51144fc6a36f550d94aa952aeffffffff0268353000000000001976a914fbe3584f80f6d6cedc4f333267f8077c4e5abe6888ace8f73a800000000017a91475b77316f8d91ff71fb2819115d1b6b9e80ccee98700000000"
    }, 
    {
      "txid": "d0a9ca4db6b59cf0e7bad0e1d3e7cb8cc90ed265e4409def1cfa504ba2a18cd5",
      "hash": "d0a9ca4db6b59cf0e7bad0e1d3e7cb8cc90ed265e4409def1cfa504ba2a18cd5",
      "version": 1,
      "size": 192,
      "vsize": 192,
      "locktime": 0,
      "vin": [
        {
          "txid": "d4a7eb420dbed6994dce13f82441ecfbf08f8d94ebcac954244b633f64f742a8",
          "vout": 646,
          "scriptSig": {
            "asm": "3045022100ee8128a107fc46e6c7b37c9d20eadedc516e8444ec22b198b641abf21894c8ac0220316998b3c089f72c8bd74669d50a3357b9948d2f9aea9673a977b6f1f3081eea[ALL] 021e018462526ac74f772b21586184819f739b5810563a2fd14c3c7d9866b106c4",
            "hex": "483045022100ee8128a107fc46e6c7b37c9d20eadedc516e8444ec22b198b641abf21894c8ac0220316998b3c089f72c8bd74669d50a3357b9948d2f9aea9673a977b6f1f3081eea0121021e018462526ac74f772b21586184819f739b5810563a2fd14c3c7d9866b106c4"
          },
          "sequence": 4294967295
        }
      ],
      "vout": [
        {
          "value": 0.00149207,
          "n": 0,
          "scriptPubKey": {
            "asm": "OP_DUP OP_HASH160 ec1242e670510f000fcad605a8713a06b1102f1a OP_EQUALVERIFY OP_CHECKSIG",
            "hex": "76a914ec1242e670510f000fcad605a8713a06b1102f1a88ac",
            "reqSigs": 1,
            "type": "pubkeyhash",
            "addresses": [
              "LgkBcJc72T248v6XtrTauPKS6o6n9Mq5Df"
            ]
          }
        }
      ],
      "hex": "0100000001a842f7643f634b2454c9caeb948d8ff0fbec4124f813ce4d99d6be0d42eba7d4860200006b483045022100ee8128a107fc46e6c7b37c9d20eadedc516e8444ec22b198b641abf21894c8ac0220316998b3c089f72c8bd74669d50a3357b9948d2f9aea9673a977b6f1f3081eea0121021e018462526ac74f772b21586184819f739b5810563a2fd14c3c7d9866b106c4ffffffff01d7460200000000001976a914ec1242e670510f000fcad605a8713a06b1102f1a88ac00000000"
    }, 
    {
      "txid": "e958feb153d6b1702e8d32614956925128fc1b971de218d571a51fb027bf957c",
      "hash": "e958feb153d6b1702e8d32614956925128fc1b971de218d571a51fb027bf957c",
      "version": 1,
      "size": 226,
      "vsize": 226,
      "locktime": 0,
      "vin": [
        {
          "txid": "557f6d7d2cc5eb7dfe2cc48bd88314f6cbc47c59d38a3f5e9f9b86f287486adf",
          "vout": 0,
          "scriptSig": {
            "asm": "3045022100a170bb0862e3c07d79b32af9956d916fc8cff678a9be1ec1dde0294ff794aafe022040e9e1d0127b20311f5405e4e72f7f2bc708706414327b121bacd1ca63269e8c[ALL] 03fa6d9b029c50da4e004ac9c795165aeb0c8db8e042b9cd553b583dc362a28442",
            "hex": "483045022100a170bb0862e3c07d79b32af9956d916fc8cff678a9be1ec1dde0294ff794aafe022040e9e1d0127b20311f5405e4e72f7f2bc708706414327b121bacd1ca63269e8c012103fa6d9b029c50da4e004ac9c795165aeb0c8db8e042b9cd553b583dc362a28442"
          },
          "sequence": 4294967295
        }
      ],
      "vout": [
        {
          "value": 0.55800000,
          "n": 0,
          "scriptPubKey": {
            "asm": "OP_DUP OP_HASH160 cb59b7ac9ad767738a0614956df932b4435c9e70 OP_EQUALVERIFY OP_CHECKSIG",
            "hex": "76a914cb59b7ac9ad767738a0614956df932b4435c9e7088ac",
            "reqSigs": 1,
            "type": "pubkeyhash",
            "addresses": [
              "LdmAuqLXgSjGkUzmcsixQoUEduheHRCB6r"
            ]
          }
        }, 
        {
          "value": 0.44101138,
          "n": 1,
          "scriptPubKey": {
            "asm": "OP_DUP OP_HASH160 8303879cc1a5ac2bfef72f0fc403f3e91f018801 OP_EQUALVERIFY OP_CHECKSIG",
            "hex": "76a9148303879cc1a5ac2bfef72f0fc403f3e91f01880188ac",
            "reqSigs": 1,
            "type": "pubkeyhash",
            "addresses": [
              "LXAh1bMYju8jrukdb6WYZ2aZBn1KvNs4uh"
            ]
          }
        }
      ],
      "hex": "0100000001df6a4887f2869b9f5e3f8ad3597cc4cbf61483d88bc42cfe7debc52c7d6d7f55000000006b483045022100a170bb0862e3c07d79b32af9956d916fc8cff678a9be1ec1dde0294ff794aafe022040e9e1d0127b20311f5405e4e72f7f2bc708706414327b121bacd1ca63269e8c012103fa6d9b029c50da4e004ac9c795165aeb0c8db8e042b9cd553b583dc362a28442ffffffff02c0705303000000001976a914cb59b7ac9ad767738a0614956df932b4435c9e7088ac12eea002000000001976a9148303879cc1a5ac2bfef72f0fc403f3e91f01880188ac00000000"
    }, 
    {
      "txid": "ec83ae437f2b9238338dc09041250806777a1d7e88c0488548ad0f3a285dac15",
      "hash": "028df1871246097cbf44e374e6c3977f4a816dd4b69f21863dba9a6f2b730068",
      "version": 1,
      "size": 421,
      "vsize": 259,
      "locktime": 0,
      "vin": [
        {
          "txid": "ea3225fbaa75eafbf2d30ddd61f1a777ecc1c99b405cd6a0f6afacbf1a185113",
          "vout": 1,
          "scriptSig": {
            "asm": "0014db91cd159a010f3edac757e28a874ba652466a7d",
            "hex": "160014db91cd159a010f3edac757e28a874ba652466a7d"
          },
          "txinwitness": [
            "3045022100e905e779b58c13c3bfd13e08278804bf4d58e7c26dc893546c1033195092295b022065b68008d1856952ec56da8258bc917f29cdc52cabff0252051caf88a083399d01", 
            "02258b88ea5cb77f79c66d877d8b8adb2dea86334a14a79fffa65a6778703ead5d"
          ],
          "sequence": 4294967295
        }, 
        {
          "txid": "f3ef44f7fd67da353f23a6799f456156fda5134e076ee58f02c5dc907834645d",
          "vout": 0,
          "scriptSig": {
            "asm": "001475438565a5a7076d75bf9385b77188b5196deafe",
            "hex": "16001475438565a5a7076d75bf9385b77188b5196deafe"
          },
          "txinwitness": [
            "3044022042326e9e4284f11f0abbf909b420804ae696bbf7e0259e112c166f42a9a8010c022054dc21cc6da2562535b9c97f77ddc9a92beaff702409998e96612df7dd090d3001", 
            "024991156a8fc2cd85a16d904933e6a05e637489749d7c189a86796b4de12c0069"
          ],
          "sequence": 4294967295
        }
      ],
      "vout": [
        {
          "value": 0.92021020,
          "n": 0,
          "scriptPubKey": {
            "asm": "OP_DUP OP_HASH160 7029504a7e161718687799e1e99bded4b066ff9d OP_EQUALVERIFY OP_CHECKSIG",
            "hex": "76a9147029504a7e161718687799e1e99bded4b066ff9d88ac",
            "reqSigs": 1,
            "type": "pubkeyhash",
            "addresses": [
              "LVT1SDhj3Z3CnKNHdduAY675z1kLAy5jPm"
            ]
          }
        }, 
        {
          "value": 0.41053300,
          "n": 1,
          "scriptPubKey": {
            "asm": "OP_HASH160 b0222e6a6fc4e7a4d19226dddf01e931d57a6bdf OP_EQUAL",
            "hex": "a914b0222e6a6fc4e7a4d19226dddf01e931d57a6bdf87",
            "reqSigs": 1,
            "type": "scripthash",
            "addresses": [
              "MPxU79jvXymHcL47Gs58p2yFtK4x6ch1g3"
            ]
          }
        }
      ],
      "hex": "010000000001021351181abfacaff6a0d65c409bc9c1ec77a7f161dd0dd3f2fbea75aafb2532ea0100000017160014db91cd159a010f3edac757e28a874ba652466a7dffffffff5d64347890dcc5028fe56e074e13a5fd5661459f79a6233f35da67fdf744eff3000000001716001475438565a5a7076d75bf9385b77188b5196deafeffffffff021c217c05000000001976a9147029504a7e161718687799e1e99bded4b066ff9d88ac746c72020000000017a914b0222e6a6fc4e7a4d19226dddf01e931d57a6bdf8702483045022100e905e779b58c13c3bfd13e08278804bf4d58e7c26dc893546c1033195092295b022065b68008d1856952ec56da8258bc917f29cdc52cabff0252051caf88a083399d012102258b88ea5cb77f79c66d877d8b8adb2dea86334a14a79fffa65a6778703ead5d02473044022042326e9e4284f11f0abbf909b420804ae696bbf7e0259e112c166f42a9a8010c022054dc21cc6da2562535b9c97f77ddc9a92beaff702409998e96612df7dd090d300121024991156a8fc2cd85a16d904933e6a05e637489749d7c189a86796b4de12c006900000000"
    }, 
    {
      "txid": "076628cea5e3292e7ad9867f72054ebc3c12f878ca1d8de0866f9121ad2e009d",
      "hash": "076628cea5e3292e7ad9867f72054ebc3c12f878ca1d8de0866f9121ad2e009d",
      "version": 1,
      "size": 225,
      "vsize": 225,
      "locktime": 0,
      "vin": [
        {
          "txid": "a9626fb048e05fb7aea999816ddd263f137985fc534174c1249a62c4f6b0fd29",
          "vout": 1,
          "scriptSig": {
            "asm": "304402203b1dcfccb315b8592e638a48a824d7da0ababdb485a7f5b6e2428b503484df08022065c710a993bdd494722c7343d296bcc2b08d4c1a5401cd5255ae5ac86fff3396[ALL] 0257e6898d139d345c10a4277b9a54a381e4f8a7c45091ebea1b81115b20f1fff9",
            "hex": "47304402203b1dcfccb315b8592e638a48a824d7da0ababdb485a7f5b6e2428b503484df08022065c710a993bdd494722c7343d296bcc2b08d4c1a5401cd5255ae5ac86fff339601210257e6898d139d345c10a4277b9a54a381e4f8a7c45091ebea1b81115b20f1fff9"
          },
          "sequence": 4294967295
        }
      ],
      "vout": [
        {
          "value": 0.00250000,
          "n": 0,
          "scriptPubKey": {
            "asm": "OP_DUP OP_HASH160 beff4f2a25ddaac0d6d6fc148887e3e55628eefd OP_EQUALVERIFY OP_CHECKSIG",
            "hex": "76a914beff4f2a25ddaac0d6d6fc148887e3e55628eefd88ac",
            "reqSigs": 1,
            "type": "pubkeyhash",
            "addresses": [
              "LcdrVrh5v15ekE2JLLV36uTDwWrSoTrKyw"
            ]
          }
        }, 
        {
          "value": 10.47149000,
          "n": 1,
          "scriptPubKey": {
            "asm": "OP_DUP OP_HASH160 0d64db691a51cb00afa1eb9eac1a1a82ca2187d8 OP_EQUALVERIFY OP_CHECKSIG",
            "hex": "76a9140d64db691a51cb00afa1eb9eac1a1a82ca2187d888ac",
            "reqSigs": 1,
            "type": "pubkeyhash",
            "addresses": [
              "LLSmsNwQSL8rRCgKh8gPnPkbE8XfijQCbD"
            ]
          }
        }
      ],
      "hex": "010000000129fdb0f6c4629a24c1744153fc8579133f26dd6d8199a9aeb75fe048b06f62a9010000006a47304402203b1dcfccb315b8592e638a48a824d7da0ababdb485a7f5b6e2428b503484df08022065c710a993bdd494722c7343d296bcc2b08d4c1a5401cd5255ae5ac86fff339601210257e6898d139d345c10a4277b9a54a381e4f8a7c45091ebea1b81115b20f1fff9ffffffff0290d00300000000001976a914beff4f2a25ddaac0d6d6fc148887e3e55628eefd88acc8396a3e000000001976a9140d64db691a51cb00afa1eb9eac1a1a82ca2187d888ac00000000"
    }, 
    {
      "txid": "05a70c3019db174c36ebaac8f9adcb1068c6e3959ed3804d8672b19654efc568",
      "hash": "514ccaaf4935d8eb1773ed8023706c891873fbd945814c86d55631f2a5629e8b",
      "version": 1,
      "size": 374,
      "vsize": 208,
      "locktime": 0,
      "vin": [
        {
          "txid": "dbc098b472c6fc8eba760f35a08b91adae0a47ae95d8cb92759c973bd97cb3c0",
          "vout": 1,
          "scriptSig": {
            "asm": "0020409fd93c7351b461fa46963fa28755038f397ee054ab9e56eda0b1081d768cc4",
            "hex": "220020409fd93c7351b461fa46963fa28755038f397ee054ab9e56eda0b1081d768cc4"
          },
          "txinwitness": [
            "", 
            "3045022100e175c305e098008e52eb9f69d48f59510513efe0c9fde429a7fe8ac26e36dae0022069d1aba983ce3591b85b88d70d938998d68449edafed1b0f3931d057be91b49301", 
            "3045022100943613dc0418649de4ba4e977ff7c9baaa2d18d4540b25222429cea97f11c7840220731c48ff7846b21a7ee746d54eff4904af16e5b583ad9b984f343c4d71a7e78001", 
            "522103ceb293b39e087131961da42b3deaef48432d57a08bfd111247901be2936525b32103fa185b0d6c2a6d812d1a9418c54b3cea527d229a73a0c6c72345a1851ebcdad352ae"
          ],
          "sequence": 4294967295
        }
      ],
      "vout": [
        {
          "value": 0.05618000,
          "n": 0,
          "scriptPubKey": {
            "asm": "OP_DUP OP_HASH160 4dbd79fa58e78f619fed99466be8dd472b8bfa00 OP_EQUALVERIFY OP_CHECKSIG",
            "hex": "76a9144dbd79fa58e78f619fed99466be8dd472b8bfa0088ac",
            "reqSigs": 1,
            "type": "pubkeyhash",
            "addresses": [
              "LSK1H3HuMcjdgp2dx9TCZQzdJbALq4Dv1s"
            ]
          }
        }, 
        {
          "value": 3.27519500,
          "n": 1,
          "scriptPubKey": {
            "asm": "OP_HASH160 2d9ba1f1c217fd18a576b17eaf8a1c6f1cd2f1de OP_EQUAL",
            "hex": "a9142d9ba1f1c217fd18a576b17eaf8a1c6f1cd2f1de87",
            "reqSigs": 1,
            "type": "scripthash",
            "addresses": [
              "MC4K5c2x6rcVohDBLrLNQRsqL5atuzztot"
            ]
          }
        }
      ],
      "hex": "01000000000101c0b37cd93b979c7592cbd895ae470aaead918ba0350f76ba8efcc672b498c0db0100000023220020409fd93c7351b461fa46963fa28755038f397ee054ab9e56eda0b1081d768cc4ffffffff0250b95500000000001976a9144dbd79fa58e78f619fed99466be8dd472b8bfa0088ac0c8d85130000000017a9142d9ba1f1c217fd18a576b17eaf8a1c6f1cd2f1de870400483045022100e175c305e098008e52eb9f69d48f59510513efe0c9fde429a7fe8ac26e36dae0022069d1aba983ce3591b85b88d70d938998d68449edafed1b0f3931d057be91b49301483045022100943613dc0418649de4ba4e977ff7c9baaa2d18d4540b25222429cea97f11c7840220731c48ff7846b21a7ee746d54eff4904af16e5b583ad9b984f343c4d71a7e7800147522103ceb293b39e087131961da42b3deaef48432d57a08bfd111247901be2936525b32103fa185b0d6c2a6d812d1a9418c54b3cea527d229a73a0c6c72345a1851ebcdad352ae00000000"
    }, 
    {
      "txid": "32ebad822390e597283844d37d1b7877e14034472fa2aa544acab8451b633782",
      "hash": "cbaa3155d0a0e94d7a8d57bd9034c626d19dab764f325f913d91bc18794adf9a",
      "version": 1,
      "size": 373,
      "vsize": 208,
      "locktime": 0,
      "vin": [
        {
          "txid": "c5490d61c1b43ede620ea4f3e5f8d54a3fc1e926a9b65019632bc8347f9f3880",
          "vout": 1,
          "scriptSig": {
            "asm": "0020409fd93c7351b461fa46963fa28755038f397ee054ab9e56eda0b1081d768cc4",
            "hex": "220020409fd93c7351b461fa46963fa28755038f397ee054ab9e56eda0b1081d768cc4"
          },
          "txinwitness": [
            "", 
            "304402204537e4e4fb821fdcd4cd558c5146badc85b762946cb28bd9a425c9919b4579f1022011bc963fc3279e5493a0975820c764fce3ce955a6804a18e5ffe9834ddb0833801", 
            "3045022100941b07023b9a8e61d28945ba082fea62f9d16a212ab395cf97fbe5810cb596230220793bf1e385bdd914e4ffdc8db4a40cada6c6a9ff85f9e720a89ea8d1eba3f18d01", 
            "522103ceb293b39e087131961da42b3deaef48432d57a08bfd111247901be2936525b32103fa185b0d6c2a6d812d1a9418c54b3cea527d229a73a0c6c72345a1851ebcdad352ae"
          ],
          "sequence": 4294967295
        }
      ],
      "vout": [
        {
          "value": 0.01123600,
          "n": 0,
          "scriptPubKey": {
            "asm": "OP_DUP OP_HASH160 3f18b9636eb6c3e3a59c96fa6c1df69d6441d336 OP_EQUALVERIFY OP_CHECKSIG",
            "hex": "76a9143f18b9636eb6c3e3a59c96fa6c1df69d6441d33688ac",
            "reqSigs": 1,
            "type": "pubkeyhash",
            "addresses": [
              "LQyaTAU1dA1jCFkoWU8CagQFxjcuGYK14z"
            ]
          }
        }, 
        {
          "value": 0.86727900,
          "n": 1,
          "scriptPubKey": {
            "asm": "OP_HASH160 2d9ba1f1c217fd18a576b17eaf8a1c6f1cd2f1de OP_EQUAL",
            "hex": "a9142d9ba1f1c217fd18a576b17eaf8a1c6f1cd2f1de87",
            "reqSigs": 1,
            "type": "scripthash",
            "addresses": [
              "MC4K5c2x6rcVohDBLrLNQRsqL5atuzztot"
            ]
          }
        }
      ],
      "hex": "0100000000010180389f7f34c82b631950b6a926e9c13f4ad5f8e5f3a40e62de3eb4c1610d49c50100000023220020409fd93c7351b461fa46963fa28755038f397ee054ab9e56eda0b1081d768cc4ffffffff0210251100000000001976a9143f18b9636eb6c3e3a59c96fa6c1df69d6441d33688acdc5c2b050000000017a9142d9ba1f1c217fd18a576b17eaf8a1c6f1cd2f1de87040047304402204537e4e4fb821fdcd4cd558c5146badc85b762946cb28bd9a425c9919b4579f1022011bc963fc3279e5493a0975820c764fce3ce955a6804a18e5ffe9834ddb0833801483045022100941b07023b9a8e61d28945ba082fea62f9d16a212ab395cf97fbe5810cb596230220793bf1e385bdd914e4ffdc8db4a40cada6c6a9ff85f9e720a89ea8d1eba3f18d0147522103ceb293b39e087131961da42b3deaef48432d57a08bfd111247901be2936525b32103fa185b0d6c2a6d812d1a9418c54b3cea527d229a73a0c6c72345a1851ebcdad352ae00000000"
    }, 
    {
      "txid": "2d4ea6f9b8df2ab3c8b091c0b8f23d88cae7183c248bc2c36cd0885ac53d004b",
      "hash": "2d4ea6f9b8df2ab3c8b091c0b8f23d88cae7183c248bc2c36cd0885ac53d004b",
      "version": 1,
      "size": 223,
      "vsize": 223,
      "locktime": 0,
      "vin": [
        {
          "txid": "3a2cb65085851e6f1b3592660f7386249825f152ffc76389f961aec8285bc880",
          "vout": 1,
          "scriptSig": {
            "asm": "304402202911482bbb613979192eff97cc744ea7bb54142fdd7b9a620b7ac7fc3cf26e8f022035c009a4a69f17a3069848f529e3507076d074eb3ebf144fdf3182de2d4b884c[ALL] 0268af9f067a82b228ff378a325f2e64aa13278426493d51542186afcbccf9e509",
            "hex": "47304402202911482bbb613979192eff97cc744ea7bb54142fdd7b9a620b7ac7fc3cf26e8f022035c009a4a69f17a3069848f529e3507076d074eb3ebf144fdf3182de2d4b884c01210268af9f067a82b228ff378a325f2e64aa13278426493d51542186afcbccf9e509"
          },
          "sequence": 4294967295
        }
      ],
      "vout": [
        {
          "value": 3.17898685,
          "n": 0,
          "scriptPubKey": {
            "asm": "OP_DUP OP_HASH160 d1ce0718649622c52972d2926b2ba3caa7c53a4f OP_EQUALVERIFY OP_CHECKSIG",
            "hex": "76a914d1ce0718649622c52972d2926b2ba3caa7c53a4f88ac",
            "reqSigs": 1,
            "type": "pubkeyhash",
            "addresses": [
              "LeMJJMxp7ZEQFmXHNWfiTFzJ5Dn8s8MXJP"
            ]
          }
        }, 
        {
          "value": 7.81978915,
          "n": 1,
          "scriptPubKey": {
            "asm": "OP_HASH160 6c163dabf9f0d60e683534d50b9d723628e5f742 OP_EQUAL",
            "hex": "a9146c163dabf9f0d60e683534d50b9d723628e5f74287",
            "reqSigs": 1,
            "type": "scripthash",
            "addresses": [
              "MHkfrUPffkiAfZaAvkyuVTnk3KtABKfhYj"
            ]
          }
        }
      ],
      "hex": "010000000180c85b28c8ae61f98963c7ff52f125982486730f6692351b6f1e858550b62c3a010000006a47304402202911482bbb613979192eff97cc744ea7bb54142fdd7b9a620b7ac7fc3cf26e8f022035c009a4a69f17a3069848f529e3507076d074eb3ebf144fdf3182de2d4b884c01210268af9f067a82b228ff378a325f2e64aa13278426493d51542186afcbccf9e509ffffffff02bdbff212000000001976a914d1ce0718649622c52972d2926b2ba3caa7c53a4f88ac230d9c2e0000000017a9146c163dabf9f0d60e683534d50b9d723628e5f7428700000000"
    }, 
    {
      "txid": "0831f618b30d010119c7b730550306b4958a637727c601c083a97e749eff3d0d",
      "hash": "0831f618b30d010119c7b730550306b4958a637727c601c083a97e749eff3d0d",
      "version": 1,
      "size": 225,
      "vsize": 225,
      "locktime": 0,
      "vin": [
        {
          "txid": "af6dda8796a50fccceb5ee565a0eda2061f79d9e759d4acc77a4be7c1d351749",
          "vout": 71,
          "scriptSig": {
            "asm": "304402202a5b05de4ccb8bd2a4fd2f59909fa556b08c7f2a7015508273f99fb1ad75eb3102200f8b990abfebc8228519a0c37fb1e57dd7e56c01c5ff6a8baffbbe7ca293d92b[ALL] 032c72979d7fbd04c984f75418f112d7b0c46f2f08322789f4db2b471b7e9f02f1",
            "hex": "47304402202a5b05de4ccb8bd2a4fd2f59909fa556b08c7f2a7015508273f99fb1ad75eb3102200f8b990abfebc8228519a0c37fb1e57dd7e56c01c5ff6a8baffbbe7ca293d92b0121032c72979d7fbd04c984f75418f112d7b0c46f2f08322789f4db2b471b7e9f02f1"
          },
          "sequence": 4294967295
        }
      ],
      "vout": [
        {
          "value": 0.00096288,
          "n": 0,
          "scriptPubKey": {
            "asm": "OP_DUP OP_HASH160 0ed94bd6e53840735ce3970a431f48e5886c7a0e OP_EQUALVERIFY OP_CHECKSIG",
            "hex": "76a9140ed94bd6e53840735ce3970a431f48e5886c7a0e88ac",
            "reqSigs": 1,
            "type": "pubkeyhash",
            "addresses": [
              "LLaU2uY8Qb8B2zxduf5PsUyaa3oNpDJrEL"
            ]
          }
        }, 
        {
          "value": 0.19586000,
          "n": 1,
          "scriptPubKey": {
            "asm": "OP_DUP OP_HASH160 9c3d9957a406b8f2fa31d4b2f6d1fcb6b79b3f0f OP_EQUALVERIFY OP_CHECKSIG",
            "hex": "76a9149c3d9957a406b8f2fa31d4b2f6d1fcb6b79b3f0f88ac",
            "reqSigs": 1,
            "type": "pubkeyhash",
            "addresses": [
              "LZU5U7RtRFAw9NvESHfHMAKmBGHXP8Qiy3"
            ]
          }
        }
      ],
      "hex": "01000000014917351d7cbea477cc4a9d759e9df76120da0e5a56eeb5cecc0fa59687da6daf470000006a47304402202a5b05de4ccb8bd2a4fd2f59909fa556b08c7f2a7015508273f99fb1ad75eb3102200f8b990abfebc8228519a0c37fb1e57dd7e56c01c5ff6a8baffbbe7ca293d92b0121032c72979d7fbd04c984f75418f112d7b0c46f2f08322789f4db2b471b7e9f02f1ffffffff0220780100000000001976a9140ed94bd6e53840735ce3970a431f48e5886c7a0e88acd0db2a01000000001976a9149c3d9957a406b8f2fa31d4b2f6d1fcb6b79b3f0f88ac00000000"
    }, 
    {
      "txid": "b857bb744381566b177f4a6f1f5498d934c9c08e30e90dd4f2a1e3f7686a43ad",
      "hash": "b857bb744381566b177f4a6f1f5498d934c9c08e30e90dd4f2a1e3f7686a43ad",
      "version": 1,
      "size": 225,
      "vsize": 225,
      "locktime": 0,
      "vin": [
        {
          "txid": "526efb1b02fd75d3f9bebd31580c633a82af76a202eeff36f2d6f4faed4d480f",
          "vout": 0,
          "scriptSig": {
            "asm": "3044022073366be65f13ae2efde3083d5e2cdf72830fbba3c2395a9353072b7a71f5c49902202854abc6d0ca16b5d0fcdb13cd7df3d5bd3ebe6adc46fe59405adaf1d97a7f91[ALL] 025fbb60d9f39c6dc2a0c00a8338484a559897c2e45731038c9283bd4f67d4c895",
            "hex": "473044022073366be65f13ae2efde3083d5e2cdf72830fbba3c2395a9353072b7a71f5c49902202854abc6d0ca16b5d0fcdb13cd7df3d5bd3ebe6adc46fe59405adaf1d97a7f910121025fbb60d9f39c6dc2a0c00a8338484a559897c2e45731038c9283bd4f67d4c895"
          },
          "sequence": 4294967295
        }
      ],
      "vout": [
        {
          "value": 0.53000000,
          "n": 0,
          "scriptPubKey": {
            "asm": "OP_DUP OP_HASH160 42a9fc3ea1779676e34e82528f63f036e67b0f97 OP_EQUALVERIFY OP_CHECKSIG",
            "hex": "76a91442a9fc3ea1779676e34e82528f63f036e67b0f9788ac",
            "reqSigs": 1,
            "type": "pubkeyhash",
            "addresses": [
              "LRJSVfL43xgYt6GfK3gJugwLqC3N7atRQp"
            ]
          }
        }, 
        {
          "value": 0.46977400,
          "n": 1,
          "scriptPubKey": {
            "asm": "OP_DUP OP_HASH160 3f11e457c0f608983b01cc2305cc41fabdfc39cf OP_EQUALVERIFY OP_CHECKSIG",
            "hex": "76a9143f11e457c0f608983b01cc2305cc41fabdfc39cf88ac",
            "reqSigs": 1,
            "type": "pubkeyhash",
            "addresses": [
              "LQySGTGnFE3cRCCpRKgJNuU2vvqankyJR1"
            ]
          }
        }
      ],
      "hex": "01000000010f484dedfaf4d6f236ffee02a276af823a630c5831bdbef9d375fd021bfb6e52000000006a473044022073366be65f13ae2efde3083d5e2cdf72830fbba3c2395a9353072b7a71f5c49902202854abc6d0ca16b5d0fcdb13cd7df3d5bd3ebe6adc46fe59405adaf1d97a7f910121025fbb60d9f39c6dc2a0c00a8338484a559897c2e45731038c9283bd4f67d4c895ffffffff0240b72803000000001976a91442a9fc3ea1779676e34e82528f63f036e67b0f9788ac78d1cc02000000001976a9143f11e457c0f608983b01cc2305cc41fabdfc39cf88ac00000000"
    }, 
    {
      "txid": "ad5365c749183b0bf132b626da131a62d89f30d8934eb9bc562aa9602235edbd",
      "hash": "ad5365c749183b0bf132b626da131a62d89f30d8934eb9bc562aa9602235edbd",
      "version": 1,
      "size": 225,
      "vsize": 225,
      "locktime": 0,
      "vin": [
        {
          "txid": "6863873eaf021bbc11e5caa5796f874b8bbbb6228c35903730d119635a2cd303",
          "vout": 1,
          "scriptSig": {
            "asm": "304402205d08e3075c4c6caddf723ac9771e517dda6785e6dbf7dd1fa812e6ef464eb0ec02203416e94b7682eda15841fea4a1b77c6d6958f5ce0297999fc3c6dde937adfbba[ALL] 027de6a271ff038b2a58005ad79ea34d7eb330d946d4e481d34680f40a91b47e4b",
            "hex": "47304402205d08e3075c4c6caddf723ac9771e517dda6785e6dbf7dd1fa812e6ef464eb0ec02203416e94b7682eda15841fea4a1b77c6d6958f5ce0297999fc3c6dde937adfbba0121027de6a271ff038b2a58005ad79ea34d7eb330d946d4e481d34680f40a91b47e4b"
          },
          "sequence": 4294967295
        }
      ],
      "vout": [
        {
          "value": 1.25956334,
          "n": 0,
          "scriptPubKey": {
            "asm": "OP_DUP OP_HASH160 583fe82e26efe1082028791a5aac45a69c02f667 OP_EQUALVERIFY OP_CHECKSIG",
            "hex": "76a914583fe82e26efe1082028791a5aac45a69c02f66788ac",
            "reqSigs": 1,
            "type": "pubkeyhash",
            "addresses": [
              "LTGaHRj4i1sgJCsqSFMpuDgGdxZuiYuKQx"
            ]
          }
        }, 
        {
          "value": 1.11922600,
          "n": 1,
          "scriptPubKey": {
            "asm": "OP_DUP OP_HASH160 06aa2996be73da3823ca65b89ade3c8f2c4e35fc OP_EQUALVERIFY OP_CHECKSIG",
            "hex": "76a91406aa2996be73da3823ca65b89ade3c8f2c4e35fc88ac",
            "reqSigs": 1,
            "type": "pubkeyhash",
            "addresses": [
              "LKqCATZTSShw7GmaEtgdJ37RZTBMT8se57"
            ]
          }
        }
      ],
      "hex": "010000000103d32c5a6319d1303790358c22b6bb8b4b876f79a5cae511bc1b02af3e876368010000006a47304402205d08e3075c4c6caddf723ac9771e517dda6785e6dbf7dd1fa812e6ef464eb0ec02203416e94b7682eda15841fea4a1b77c6d6958f5ce0297999fc3c6dde937adfbba0121027de6a271ff038b2a58005ad79ea34d7eb330d946d4e481d34680f40a91b47e4bffffffff02eef08107000000001976a914583fe82e26efe1082028791a5aac45a69c02f66788aca8cdab06000000001976a91406aa2996be73da3823ca65b89ade3c8f2c4e35fc88ac00000000"
    }, 
    {
      "txid": "07a105cd025a0ecf6c38070c0ef6096b205975c9de48e4964b3c9ca04f7035fd",
      "hash": "07a105cd025a0ecf6c38070c0ef6096b205975c9de48e4964b3c9ca04f7035fd",
      "version": 1,
      "size": 225,
      "vsize": 225,
      "locktime": 0,
      "vin": [
        {
          "txid": "e97a149dc61ff8558c64925af17bb141514706c01ef613251d81f73adf68dc6c",
          "vout": 0,
          "scriptSig": {
            "asm": "3044022001a1198b863df4dd7bfbe998df2b75989ecc259005b7d74e9529dc85f0eac60202201b3537e41df80d55549a1e326e7b652577a4a8d1086f2765d23ce8b457d3459e[ALL] 03da4aebd2e76c2b8bb6b900d25c6dcc8c34ce9c2a229bf1dc188be1313ed5e739",
            "hex": "473044022001a1198b863df4dd7bfbe998df2b75989ecc259005b7d74e9529dc85f0eac60202201b3537e41df80d55549a1e326e7b652577a4a8d1086f2765d23ce8b457d3459e012103da4aebd2e76c2b8bb6b900d25c6dcc8c34ce9c2a229bf1dc188be1313ed5e739"
          },
          "sequence": 4294967295
        }
      ],
      "vout": [
        {
          "value": 0.00058958,
          "n": 0,
          "scriptPubKey": {
            "asm": "OP_DUP OP_HASH160 645e0ab9b9f5455a428f6485c8377dea3fadbd37 OP_EQUALVERIFY OP_CHECKSIG",
            "hex": "76a914645e0ab9b9f5455a428f6485c8377dea3fadbd3788ac",
            "reqSigs": 1,
            "type": "pubkeyhash",
            "addresses": [
              "LUNeVYN6wHGCWQ3fgoPHDY3BvV35J8VbaJ"
            ]
          }
        }, 
        {
          "value": 0.09977400,
          "n": 1,
          "scriptPubKey": {
            "asm": "OP_DUP OP_HASH160 8e5bf5f5d6b4cda0d6bc82849d55b2ce3df25d18 OP_EQUALVERIFY OP_CHECKSIG",
            "hex": "76a9148e5bf5f5d6b4cda0d6bc82849d55b2ce3df25d1888ac",
            "reqSigs": 1,
            "type": "pubkeyhash",
            "addresses": [
              "LYCgNzxdqy6SJGtvvQsputxuwq54HpTeQN"
            ]
          }
        }
      ],
      "hex": "01000000016cdc68df3af7811d2513f61ec006475141b17bf15a92648c55f81fc69d147ae9000000006a473044022001a1198b863df4dd7bfbe998df2b75989ecc259005b7d74e9529dc85f0eac60202201b3537e41df80d55549a1e326e7b652577a4a8d1086f2765d23ce8b457d3459e012103da4aebd2e76c2b8bb6b900d25c6dcc8c34ce9c2a229bf1dc188be1313ed5e739ffffffff024ee60000000000001976a914645e0ab9b9f5455a428f6485c8377dea3fadbd3788ac383e9800000000001976a9148e5bf5f5d6b4cda0d6bc82849d55b2ce3df25d1888ac00000000"
    }, 
    {
      "txid": "e18b3a24625cd3410762bb22fb7a30835372261de0d2f753ef0cde59ef8be125",
      "hash": "e18b3a24625cd3410762bb22fb7a30835372261de0d2f753ef0cde59ef8be125",
      "version": 1,
      "size": 226,
      "vsize": 226,
      "locktime": 0,
      "vin": [
        {
          "txid": "0f0bf1e6a116124efcf0b280285c9d75818e909c88414b51d468361f99ec2965",
          "vout": 34,
          "scriptSig": {
            "asm": "3045022100a08ca8239b270666a9a9813b2cd6ff2a61df44a9efc1939147171ed9ae88b6cf02200910878031c26b1593a18ad4c9be9d62d341661e2ed0be025657fda2e697f4e3[ALL] 02476c0ea30c569cae2d68b81e895444e161212ec0da2a7d7f1371daff1f301393",
            "hex": "483045022100a08ca8239b270666a9a9813b2cd6ff2a61df44a9efc1939147171ed9ae88b6cf02200910878031c26b1593a18ad4c9be9d62d341661e2ed0be025657fda2e697f4e3012102476c0ea30c569cae2d68b81e895444e161212ec0da2a7d7f1371daff1f301393"
          },
          "sequence": 4294967295
        }
      ],
      "vout": [
        {
          "value": 0.00528995,
          "n": 0,
          "scriptPubKey": {
            "asm": "OP_DUP OP_HASH160 3ee07447c6363ed7529dbc76f9ccf10b57d12de5 OP_EQUALVERIFY OP_CHECKSIG",
            "hex": "76a9143ee07447c6363ed7529dbc76f9ccf10b57d12de588ac",
            "reqSigs": 1,
            "type": "pubkeyhash",
            "addresses": [
              "LQxR3Tak1zfSif9JGd2FnqeENu4iYvHVz3"
            ]
          }
        }, 
        {
          "value": 0.49448405,
          "n": 1,
          "scriptPubKey": {
            "asm": "OP_DUP OP_HASH160 8289f55ee48b7629d65c75ed57419c04c19e2a7c OP_EQUALVERIFY OP_CHECKSIG",
            "hex": "76a9148289f55ee48b7629d65c75ed57419c04c19e2a7c88ac",
            "reqSigs": 1,
            "type": "pubkeyhash",
            "addresses": [
              "LX8BNg461VDyWaQEKcYs7U4PxH1BbjhuG6"
            ]
          }
        }
      ],
      "hex": "01000000016529ec991f3668d4514b41889c908e81759d5c2880b2f0fc4e1216a1e6f10b0f220000006b483045022100a08ca8239b270666a9a9813b2cd6ff2a61df44a9efc1939147171ed9ae88b6cf02200910878031c26b1593a18ad4c9be9d62d341661e2ed0be025657fda2e697f4e3012102476c0ea30c569cae2d68b81e895444e161212ec0da2a7d7f1371daff1f301393ffffffff0263120800000000001976a9143ee07447c6363ed7529dbc76f9ccf10b57d12de588acd585f202000000001976a9148289f55ee48b7629d65c75ed57419c04c19e2a7c88ac00000000"
    }, 
    {
      "txid": "c85a3aa7a04171d8ff32421529e81e3ff156cbbfc62ac93d9a0fa73cb59b6a3e",
      "hash": "c85a3aa7a04171d8ff32421529e81e3ff156cbbfc62ac93d9a0fa73cb59b6a3e",
      "version": 1,
      "size": 226,
      "vsize": 226,
      "locktime": 0,
      "vin": [
        {
          "txid": "c3318a66fde9f559ee3142d56ba7f5813230a216e8f5647f278c37aea0c6ccb1",
          "vout": 0,
          "scriptSig": {
            "asm": "3045022100b853555295098d3c20bfc75cc85d1e9a184c0e9b63f2d33d589cf44684e026d5022024d1da8231f95f71e8d81f01190fdc03eb9eba4ccdf5d3ffb7c2a4f37fa69ca9[ALL] 03f998dd074758b18613bc509858168db834d914c8018a2b7cd9fce8c078aac3b2",
            "hex": "483045022100b853555295098d3c20bfc75cc85d1e9a184c0e9b63f2d33d589cf44684e026d5022024d1da8231f95f71e8d81f01190fdc03eb9eba4ccdf5d3ffb7c2a4f37fa69ca9012103f998dd074758b18613bc509858168db834d914c8018a2b7cd9fce8c078aac3b2"
          },
          "sequence": 4294967295
        }
      ],
      "vout": [
        {
          "value": 0.03911913,
          "n": 0,
          "scriptPubKey": {
            "asm": "OP_DUP OP_HASH160 f72dce89d5ca31391fdfca18c8626951c7631d79 OP_EQUALVERIFY OP_CHECKSIG",
            "hex": "76a914f72dce89d5ca31391fdfca18c8626951c7631d7988ac",
            "reqSigs": 1,
            "type": "pubkeyhash",
            "addresses": [
              "Lhkv3Jk8Xipso9c78m1RvGUW1v7cabBAvb"
            ]
          }
        }, 
        {
          "value": 0.80359583,
          "n": 1,
          "scriptPubKey": {
            "asm": "OP_DUP OP_HASH160 988db2b23d549bf7cdd55656b14028ae15c619ed OP_EQUALVERIFY OP_CHECKSIG",
            "hex": "76a914988db2b23d549bf7cdd55656b14028ae15c619ed88ac",
            "reqSigs": 1,
            "type": "pubkeyhash",
            "addresses": [
              "LZ8aiitpJjVAma7R8GRMew8ETaZARD7KoU"
            ]
          }
        }
      ],
      "hex": "0100000001b1ccc6a0ae378c277f64f5e816a2303281f5a76bd54231ee59f5e9fd668a31c3000000006b483045022100b853555295098d3c20bfc75cc85d1e9a184c0e9b63f2d33d589cf44684e026d5022024d1da8231f95f71e8d81f01190fdc03eb9eba4ccdf5d3ffb7c2a4f37fa69ca9012103f998dd074758b18613bc509858168db834d914c8018a2b7cd9fce8c078aac3b2ffffffff02e9b03b00000000001976a914f72dce89d5ca31391fdfca18c8626951c7631d7988ac9f30ca04000000001976a914988db2b23d549bf7cdd55656b14028ae15c619ed88ac00000000"
    }, 
    {
      "txid": "43d6caf697efe9e71b79f29cb4c2d0a1bb5681fa3a3f51679e3d69d4c9504c9d",
      "hash": "43d6caf697efe9e71b79f29cb4c2d0a1bb5681fa3a3f51679e3d69d4c9504c9d",
      "version": 1,
      "size": 224,
      "vsize": 224,
      "locktime": 0,
      "vin": [
        {
          "txid": "0a9452772856cf3ba3fe0b81355a31f046e2811f28843466c9c12f00c118cf9a",
          "vout": 0,
          "scriptSig": {
            "asm": "3045022100a4502ff4a52fb425da4b3a22b4efe8e1c66132d784c96596d0b550d1ccb5fea80220657f4695de9363f3d7fa28f19857c90460b4f9cce535d3f3ca17c82a02f3b811[ALL] 0241d604c41c83cae9799eee9de08489a8a6975a5bbd07cb7394197afce69bf74f",
            "hex": "483045022100a4502ff4a52fb425da4b3a22b4efe8e1c66132d784c96596d0b550d1ccb5fea80220657f4695de9363f3d7fa28f19857c90460b4f9cce535d3f3ca17c82a02f3b81101210241d604c41c83cae9799eee9de08489a8a6975a5bbd07cb7394197afce69bf74f"
          },
          "sequence": 4294967295
        }
      ],
      "vout": [
        {
          "value": 0.13350000,
          "n": 0,
          "scriptPubKey": {
            "asm": "OP_HASH160 08004ee1968a77194d37be6a762a90398ecedf17 OP_EQUAL",
            "hex": "a91408004ee1968a77194d37be6a762a90398ecedf1787",
            "reqSigs": 1,
            "type": "scripthash",
            "addresses": [
              "M8dU1NeavDJM3YuSLRKqCowmwuvLFNfVRH"
            ]
          }
        }, 
        {
          "value": 0.00073349,
          "n": 1,
          "scriptPubKey": {
            "asm": "OP_DUP OP_HASH160 c40e50f8857023e66f0d0095df73649c07acaac8 OP_EQUALVERIFY OP_CHECKSIG",
            "hex": "76a914c40e50f8857023e66f0d0095df73649c07acaac888ac",
            "reqSigs": 1,
            "type": "pubkeyhash",
            "addresses": [
              "Ld6brXQznafvqZojCwD6BzQvBwtm7kvWMF"
            ]
          }
        }
      ],
      "hex": "01000000019acf18c1002fc1c9663484281f81e246f0315a35810bfea33bcf56287752940a000000006b483045022100a4502ff4a52fb425da4b3a22b4efe8e1c66132d784c96596d0b550d1ccb5fea80220657f4695de9363f3d7fa28f19857c90460b4f9cce535d3f3ca17c82a02f3b81101210241d604c41c83cae9799eee9de08489a8a6975a5bbd07cb7394197afce69bf74fffffffff0270b4cb000000000017a91408004ee1968a77194d37be6a762a90398ecedf1787851e0100000000001976a914c40e50f8857023e66f0d0095df73649c07acaac888ac00000000"
    }, 
    {
      "txid": "50b876be173f77142710b5a93334bedddeea307ae6973c5605dbb59b88fba5c5",
      "hash": "50b876be173f77142710b5a93334bedddeea307ae6973c5605dbb59b88fba5c5",
      "version": 1,
      "size": 226,
      "vsize": 226,
      "locktime": 0,
      "vin": [
        {
          "txid": "6b7f20561d9b7e99fe53d16deb76bd51c29d83d8529467b6ff1853a18fb37623",
          "vout": 1,
          "scriptSig": {
            "asm": "3045022100f184d6840d5f91ec8834e94cef2988fbff1193b67d4bb00acdb344b2a19286fa0220481415dd91d8e48bc83892849c6fa4c30136bf18224efd02dc1dbccbbab3b42c[ALL] 02512447505acbffad5a9cd2fca6f8047fd8335d1340835a78078ba6842479fde7",
            "hex": "483045022100f184d6840d5f91ec8834e94cef2988fbff1193b67d4bb00acdb344b2a19286fa0220481415dd91d8e48bc83892849c6fa4c30136bf18224efd02dc1dbccbbab3b42c012102512447505acbffad5a9cd2fca6f8047fd8335d1340835a78078ba6842479fde7"
          },
          "sequence": 4294967295
        }
      ],
      "vout": [
        {
          "value": 3.75063170,
          "n": 0,
          "scriptPubKey": {
            "asm": "OP_DUP OP_HASH160 bbc4fe9ec4badfc9dcf9848096ba6d6db60b307a OP_EQUALVERIFY OP_CHECKSIG",
            "hex": "76a914bbc4fe9ec4badfc9dcf9848096ba6d6db60b307a88ac",
            "reqSigs": 1,
            "type": "pubkeyhash",
            "addresses": [
              "LcLncWaUqRmdTS3fXk4ox931yczb4WrXfM"
            ]
          }
        }, 
        {
          "value": 0.02093230,
          "n": 1,
          "scriptPubKey": {
            "asm": "OP_DUP OP_HASH160 34c629de14515fb8f8e7c306f609abaf295fec2c OP_EQUALVERIFY OP_CHECKSIG",
            "hex": "76a91434c629de14515fb8f8e7c306f609abaf295fec2c88ac",
            "reqSigs": 1,
            "type": "pubkeyhash",
            "addresses": [
              "LQ2znqFNk6Gostdx2NqfJ9aAjSvWw8R24X"
            ]
          }
        }
      ],
      "hex": "01000000012376b38fa15318ffb6679452d8839dc251bd76eb6dd153fe997e9b1d56207f6b010000006b483045022100f184d6840d5f91ec8834e94cef2988fbff1193b67d4bb00acdb344b2a19286fa0220481415dd91d8e48bc83892849c6fa4c30136bf18224efd02dc1dbccbbab3b42c012102512447505acbffad5a9cd2fca6f8047fd8335d1340835a78078ba6842479fde7ffffffff0282025b16000000001976a914bbc4fe9ec4badfc9dcf9848096ba6d6db60b307a88acaef01f00000000001976a91434c629de14515fb8f8e7c306f609abaf295fec2c88ac00000000"
    }
  ],
  "time": 1517257175,
  "mediantime": 1517256882,
  "nonce": 44358210,
  "bits": "1a042eae",
  "difficulty": 4011378.762614286,
  "chainwork": "000000000000000000000000000000000000000000000033d3973ba179f2e020",
  "previousblockhash": "40775134ef0b7675d67adcbfc1572c11e544303f7e0fab1e320945e8069624b7",
  "nextblockhash": "69c1843adf37e383202bfdc9daa5cc7f756074fd4febd8c4b7a551cfb788d5c8"
}
