{
  "hash": "5d75c442549ccaff076ee2c2994bff81fd8c259b6d8b7208aaf1a3a7e6d174a3",
  "confirmations": 719,
  "strippedsize": 234,
  "size": 234,
  "weight": 936,
  "height": 1360275,
  "version": 536870912,
  "versionHex": "20000000",
  "merkleroot": "fbd4fb016745d5bdd0bce5dd51c949c5e1e92daab804dd356cf0d1f51104851f",
  "tx": [
    {
      "txid": "fbd4fb016745d5bdd0bce5dd51c949c5e1e92daab804dd356cf0d1f51104851f",
      "hash": "fbd4fb016745d5bdd0bce5dd51c949c5e1e92daab804dd356cf0d1f51104851f",
      "version": 1,
      "size": 153,
      "vsize": 153,
      "locktime": 0,
      "vin": [
        {
          "coinbase": "0393c114045a71beae2cfabe6d6df3f359427db8c6d913f33e98c087e8653eb8ec3b6acf7c66b20f917f298f56464000000000000000042f4c502f082200530f03000000",
          "sequence": 4294967295
        }
      ],
      "vout": [
        {
          "value": 25.00000000,
          "n": 0,
          "scriptPubKey": {
            "asm": "OP_DUP OP_HASH160 57757ed2ecf2052ff3126c397aca7defb9ca2cec OP_EQUALVERIFY OP_CHECKSIG",
            "hex": "76a91457757ed2ecf2052ff3126c397aca7defb9ca2cec88ac",
            "reqSigs": 1,
            "type": "pubkeyhash",
            "addresses": [
              "LTCPodGk5FwcJaRzH9yKnwicxzFUbxp6tN"
            ]
          }
        }
      ],
      "hex": "01000000010000000000000000000000000000000000000000000000000000000000000000ffffffff440393c114045a71beae2cfabe6d6df3f359427db8c6d913f33e98c087e8653eb8ec3b6acf7c66b20f917f298f56464000000000000000042f4c502f082200530f03000000ffffffff0100f90295000000001976a91457757ed2ecf2052ff3126c397aca7defb9ca2cec88ac00000000"
    }
  ],
  "time": 1517403822,
  "mediantime": 1517402718,
  "nonce": 863658777,
  "bits": "1a042eae",
  "difficulty": 4011378.762614286,
  "chainwork": "000000000000000000000000000000000000000000000034c962d24508438e28",
  "previousblockhash": "a0401da63691713137cae4d0be7294f114506c038399976c473290398cd41807",
  "nextblockhash": "7d0d9befb81151054c7f5b6974be0934fceaa2a9e6a21cb27459801e5a41726e"
}
