{
  "hash": "5d7b09398fb696a8a92ae336df39c422ce4c6d458ad8a31bf8790bc0f87d5544",
  "confirmations": 1999,
  "strippedsize": 251,
  "size": 251,
  "weight": 1004,
  "height": 1358995,
  "version": 536870912,
  "versionHex": "20000000",
  "merkleroot": "3051d26cc08143b7a6ff4a3b08ec8cf504c03d424ee532629b5c44f869b2ff9a",
  "tx": [
    {
      "txid": "3051d26cc08143b7a6ff4a3b08ec8cf504c03d424ee532629b5c44f869b2ff9a",
      "hash": "3051d26cc08143b7a6ff4a3b08ec8cf504c03d424ee532629b5c44f869b2ff9a",
      "version": 1,
      "size": 170,
      "vsize": 170,
      "locktime": 0,
      "vin": [
        {
          "coinbase": "0393bc1441d69bbdc37b3ba841d69bbdc37b2b042f4c54432e544f502ffabe6d6dc105fe3b4c3acc1b1b79acc1652ec69c10bd939a759dcac30c99a4a4bb83891401000000000000007a3276920600000000000000",
          "sequence": 4294967295
        }
      ],
      "vout": [
        {
          "value": 25.00000000,
          "n": 0,
          "scriptPubKey": {
            "asm": "OP_DUP OP_HASH160 0c617fdb2ea42aed30a509595ee21ba3f6688db0 OP_EQUALVERIFY OP_CHECKSIG",
            "hex": "76a9140c617fdb2ea42aed30a509595ee21ba3f6688db088ac",
            "reqSigs": 1,
            "type": "pubkeyhash",
            "addresses": [
              "LLMRAtr3qBje2ySEa3CnZ55LA4TQMWnRY3"
            ]
          }
        }
      ],
      "hex": "01000000010000000000000000000000000000000000000000000000000000000000000000ffffffff550393bc1441d69bbdc37b3ba841d69bbdc37b2b042f4c54432e544f502ffabe6d6dc105fe3b4c3acc1b1b79acc1652ec69c10bd939a759dcac30c99a4a4bb83891401000000000000007a3276920600000000000000ffffffff0100f90295000000001976a9140c617fdb2ea42aed30a509595ee21ba3f6688db088ac00000000"
    }
  ],
  "time": 1517221655,
  "mediantime": 1517221378,
  "nonce": 168428089,
  "bits": "1a042eae",
  "difficulty": 4011378.762614286,
  "chainwork": "0000000000000000000000000000000000000000000000339756626872f40428",
  "previousblockhash": "5aa662e6cc1998fa796ea82a542650704ce075f565c391e1ffc4821113823716",
  "nextblockhash": "327c0fd2ead002559aa666d7f00c645aca42a806eaa289498e59f3a5853e66d7"
}
