{
  "hash": "5dab5e6fe79c8738d11c7b5157a4259b69cfbb961cccdeefcdc3b2075a464db8",
  "confirmations": 3028,
  "strippedsize": 254,
  "size": 254,
  "weight": 1016,
  "height": 1357967,
  "version": 536870912,
  "versionHex": "20000000",
  "merkleroot": "8206a8ba346c732ce6d8818e91167e04a287203998de921d85d5e76c219a0977",
  "tx": [
    {
      "txid": "8206a8ba346c732ce6d8818e91167e04a287203998de921d85d5e76c219a0977",
      "hash": "8206a8ba346c732ce6d8818e91167e04a287203998de921d85d5e76c219a0977",
      "version": 1,
      "size": 173,
      "vsize": 173,
      "locktime": 0,
      "vin": [
        {
          "coinbase": "038fb8141b4d696e656420627920416e74506f6f6c20626a302042205a6caa49fabe6d6d588ff20f89ef2caeca27436411e91780db34f9a36f5e977ae54bbf80610ec1b704000000000000007b1e0000000000001c000000",
          "sequence": 4294967295
        }
      ],
      "vout": [
        {
          "value": 25.00000000,
          "n": 0,
          "scriptPubKey": {
            "asm": "OP_DUP OP_HASH160 0ff3ccc5e8be88afe24b5d634e5852d474dbdff1 OP_EQUALVERIFY OP_CHECKSIG",
            "hex": "76a9140ff3ccc5e8be88afe24b5d634e5852d474dbdff188ac",
            "reqSigs": 1,
            "type": "pubkeyhash",
            "addresses": [
              "LLgJTbzZMsRTCUF1NtvvL9SR1a4pVieW89"
            ]
          }
        }
      ],
      "hex": "01000000010000000000000000000000000000000000000000000000000000000000000000ffffffff58038fb8141b4d696e656420627920416e74506f6f6c20626a302042205a6caa49fabe6d6d588ff20f89ef2caeca27436411e91780db34f9a36f5e977ae54bbf80610ec1b704000000000000007b1e0000000000001c000000ffffffff0100f90295000000001976a9140ff3ccc5e8be88afe24b5d634e5852d474dbdff188ac00000000"
    }
  ],
  "time": 1517070921,
  "mediantime": 1517070634,
  "nonce": 1658210584,
  "bits": "1a047f14",
  "difficulty": 3731199.183374282,
  "chainwork": "000000000000000000000000000000000000000000000032af2b69ce2b9811a0",
  "previousblockhash": "abda4f7d660af9b01c0c7a020a924e5459560a2a7d003b05a927c64e1f5964e4",
  "nextblockhash": "62de86ca5476f435719411a4ccac723415452317a74f31d0aca7f090cb8fc3a0"
}
