{
  "hash": "5e6af6d3ec78a8922e207af6d0a205b0dedb38f6dc99078cf83ff5806bb44b35",
  "confirmations": 2548,
  "strippedsize": 507,
  "size": 543,
  "weight": 2064,
  "height": 1358447,
  "version": 536870912,
  "versionHex": "20000000",
  "merkleroot": "35f347bed3a9e3f38ff184d7ed40bb496286d692a2f6e8d16f92bc7060fecc74",
  "tx": [
    {
      "txid": "7e0e0846c21c261e646ec089e50b9aeee7abf5f55d1925566d747379ebbeb076",
      "hash": "a6583db5eea92ba0eaf9049e9fce620e37ded363ead95890b9991fd86b5f77a2",
      "version": 1,
      "size": 236,
      "vsize": 209,
      "locktime": 0,
      "vin": [
        {
          "coinbase": "036fba14045a6dc47d2cfabe6d6de145a85856717cc5f814b717ca34d4a23e51e7b2a0711214efa15abe7e4146404000000000000000042f4c502f081600bce568000000",
          "sequence": 4294967295
        }
      ],
      "vout": [
        {
          "value": 25.00022642,
          "n": 0,
          "scriptPubKey": {
            "asm": "OP_DUP OP_HASH160 57757ed2ecf2052ff3126c397aca7defb9ca2cec OP_EQUALVERIFY OP_CHECKSIG",
            "hex": "76a91457757ed2ecf2052ff3126c397aca7defb9ca2cec88ac",
            "reqSigs": 1,
            "type": "pubkeyhash",
            "addresses": [
              "LTCPodGk5FwcJaRzH9yKnwicxzFUbxp6tN"
            ]
          }
        }, 
        {
          "value": 0.00000000,
          "n": 1,
          "scriptPubKey": {
            "asm": "OP_RETURN aa21a9ed8da4d9275593f3442560d013ef039f45092a99bc68a528abcc22acb7c8dcdff7",
            "hex": "6a24aa21a9ed8da4d9275593f3442560d013ef039f45092a99bc68a528abcc22acb7c8dcdff7",
            "type": "nulldata"
          }
        }
      ],
      "hex": "010000000001010000000000000000000000000000000000000000000000000000000000000000ffffffff44036fba14045a6dc47d2cfabe6d6de145a85856717cc5f814b717ca34d4a23e51e7b2a0711214efa15abe7e4146404000000000000000042f4c502f081600bce568000000ffffffff0272510395000000001976a91457757ed2ecf2052ff3126c397aca7defb9ca2cec88ac0000000000000000266a24aa21a9ed8da4d9275593f3442560d013ef039f45092a99bc68a528abcc22acb7c8dcdff70120000000000000000000000000000000000000000000000000000000000000000000000000"
    }, 
    {
      "txid": "c4d69b96d8edcfaf771f1fa8a6d2586c776888367cd72367794243e4fcf27162",
      "hash": "c4d69b96d8edcfaf771f1fa8a6d2586c776888367cd72367794243e4fcf27162",
      "version": 1,
      "size": 226,
      "vsize": 226,
      "locktime": 1358445,
      "vin": [
        {
          "txid": "d93fe8a2e9e1ce022f3769c9a1191f3303584f6ab5aec6fe4c9eff327f2c0552",
          "vout": 1,
          "scriptSig": {
            "asm": "3045022100ec985f435b420563c6a1b058968145839e43147f39396acdf263907bf0add1e502203d0620069863bf6fe3979689f1d1f9d343d29a5204b66329674dbe8707174fb3[ALL] 035497b734b934e0d6556bc50701b0dd41cd2f25e076522a181b629d783661c7fc",
            "hex": "483045022100ec985f435b420563c6a1b058968145839e43147f39396acdf263907bf0add1e502203d0620069863bf6fe3979689f1d1f9d343d29a5204b66329674dbe8707174fb30121035497b734b934e0d6556bc50701b0dd41cd2f25e076522a181b629d783661c7fc"
          },
          "sequence": 4294967294
        }
      ],
      "vout": [
        {
          "value": 0.90880000,
          "n": 0,
          "scriptPubKey": {
            "asm": "OP_DUP OP_HASH160 0d5846cb68403175f64930bdf7f959e1a1cd1e6f OP_EQUALVERIFY OP_CHECKSIG",
            "hex": "76a9140d5846cb68403175f64930bdf7f959e1a1cd1e6f88ac",
            "reqSigs": 1,
            "type": "pubkeyhash",
            "addresses": [
              "LLSWoGXEDrcjWdjmra25njhhgGbXJz3wZh"
            ]
          }
        }, 
        {
          "value": 3.65832100,
          "n": 1,
          "scriptPubKey": {
            "asm": "OP_DUP OP_HASH160 3a9f883bc0c6e6c9bc89303dcd083ee07728c100 OP_EQUALVERIFY OP_CHECKSIG",
            "hex": "76a9143a9f883bc0c6e6c9bc89303dcd083ee07728c10088ac",
            "reqSigs": 1,
            "type": "pubkeyhash",
            "addresses": [
              "LQZvZpyz2qqYjZMk43Pmygd1dkMmVQFwp1"
            ]
          }
        }
      ],
      "hex": "010000000152052c7f32ff9e4cfec6aeb56a4f5803331f19a1c969372f02cee1e9a2e83fd9010000006b483045022100ec985f435b420563c6a1b058968145839e43147f39396acdf263907bf0add1e502203d0620069863bf6fe3979689f1d1f9d343d29a5204b66329674dbe8707174fb30121035497b734b934e0d6556bc50701b0dd41cd2f25e076522a181b629d783661c7fcfeffffff0200b86a05000000001976a9140d5846cb68403175f64930bdf7f959e1a1cd1e6f88aca427ce15000000001976a9143a9f883bc0c6e6c9bc89303dcd083ee07728c10088ac6dba1400"
    }
  ],
  "time": 1517143165,
  "mediantime": 1517142603,
  "nonce": 449857318,
  "bits": "1a047f14",
  "difficulty": 3731199.183374282,
  "chainwork": "00000000000000000000000000000000000000000000003319ebf306b9d8c260",
  "previousblockhash": "76870f6ec9150fb2816b6b0fd1526dc0bf7ab8521b6c3380046657059460dfd4",
  "nextblockhash": "8de2e4f90464a68518e9abe87ca439edfc4a88984d8ce19aabd4d1eabd0f8f8c"
}
