{
  "hash": "5e7aa60ecbeaa4321d73d8a3f3ebf53b97598d77464ff10121fb377ec08d212d",
  "confirmations": 2266,
  "strippedsize": 667,
  "size": 924,
  "weight": 2925,
  "height": 1358729,
  "version": 536870912,
  "versionHex": "20000000",
  "merkleroot": "2299aac03a237a35654a34bc2bfdc95349e38a71fc71de924163a9e69fffc829",
  "tx": [
    {
      "txid": "908904c1081a121b0ad68272bcad3095ad3d273657363f150a929acf88fe8b37",
      "hash": "a83972fba36f6b991afe93028ec1fae473948c8bbce70519976ca5ba73faba91",
      "version": 1,
      "size": 244,
      "vsize": 217,
      "locktime": 0,
      "vin": [
        {
          "coinbase": "0389bb140422646e5a0804d138fb3c000000fabe6d6db4dd866aaaca0116d3ce4540cd648df1d7be25d1e57f1c9fc7b81d61e51622c140000000000000000d2f6e6f64655374726174756d2f",
          "sequence": 0
        }
      ],
      "vout": [
        {
          "value": 25.00065800,
          "n": 0,
          "scriptPubKey": {
            "asm": "OP_DUP OP_HASH160 0c617fdb2ea42aed30a509595ee21ba3f6688db0 OP_EQUALVERIFY OP_CHECKSIG",
            "hex": "76a9140c617fdb2ea42aed30a509595ee21ba3f6688db088ac",
            "reqSigs": 1,
            "type": "pubkeyhash",
            "addresses": [
              "LLMRAtr3qBje2ySEa3CnZ55LA4TQMWnRY3"
            ]
          }
        }, 
        {
          "value": 0.00000000,
          "n": 1,
          "scriptPubKey": {
            "asm": "OP_RETURN aa21a9ed8988d8e31158b694f5821aac5d2d1cee2f3691a94d705a5749288437645d88fb",
            "hex": "6a24aa21a9ed8988d8e31158b694f5821aac5d2d1cee2f3691a94d705a5749288437645d88fb",
            "type": "nulldata"
          }
        }
      ],
      "hex": "010000000001010000000000000000000000000000000000000000000000000000000000000000ffffffff4c0389bb140422646e5a0804d138fb3c000000fabe6d6db4dd866aaaca0116d3ce4540cd648df1d7be25d1e57f1c9fc7b81d61e51622c140000000000000000d2f6e6f64655374726174756d2f000000000208fa0395000000001976a9140c617fdb2ea42aed30a509595ee21ba3f6688db088ac0000000000000000266a24aa21a9ed8988d8e31158b694f5821aac5d2d1cee2f3691a94d705a5749288437645d88fb0120000000000000000000000000000000000000000000000000000000000000000000000000"
    }, 
    {
      "txid": "3df2276a542e75789702f76facd0039120156321697caf369d9186718fc67c59",
      "hash": "6b31e988737a9d73cf7c7e47c11141a601b382df32f92085a7926c367c59063b",
      "version": 1,
      "size": 373,
      "vsize": 208,
      "locktime": 0,
      "vin": [
        {
          "txid": "12e659023e4623afc5af0340ba57430220a6d854112c93113d11f828988fc058",
          "vout": 1,
          "scriptSig": {
            "asm": "0020808588d861db184aed3f44edd9fd22eb405f88bb8969c14bf4648f070052a697",
            "hex": "220020808588d861db184aed3f44edd9fd22eb405f88bb8969c14bf4648f070052a697"
          },
          "txinwitness": [
            "", 
            "304402202308b1529436911964e7bc3b6ee8251efad90a1ce5f1058b91f07fc0c327451a02205061fbbb025f924a8e07518ce7b7eaad84efe28ef18811d5693d78ef6391761b01", 
            "3045022100c50d323bafa1160fc22f9cb1b0f713f5bd27f602afb1442fd62d9cffdd0a4f2402206a3c25b3006f0036399e7738459e0dabe22de23a447e8b2fcf251d6bf9b532ab01", 
            "5221031b304889cf069a34b2a9411346c8a346cd880c3ead477f09ebddcca1f7b463f621035601f3a2305646caace0c463b02eba89c2b789e281cef04109061d879d5bb51352ae"
          ],
          "sequence": 4294967295
        }
      ],
      "vout": [
        {
          "value": 0.10000000,
          "n": 0,
          "scriptPubKey": {
            "asm": "OP_DUP OP_HASH160 5d0aab75f3bcd93db5a8c963d700d29959227645 OP_EQUALVERIFY OP_CHECKSIG",
            "hex": "76a9145d0aab75f3bcd93db5a8c963d700d2995922764588ac",
            "reqSigs": 1,
            "type": "pubkeyhash",
            "addresses": [
              "LThutQFmVyeVWaae5uyGfLepiGN66c6sfD"
            ]
          }
        }, 
        {
          "value": 0.89956800,
          "n": 1,
          "scriptPubKey": {
            "asm": "OP_HASH160 10dc6c0aafe5430b7be5e4d8fa17e908797f2e0f OP_EQUAL",
            "hex": "a91410dc6c0aafe5430b7be5e4d8fa17e908797f2e0f87",
            "reqSigs": 1,
            "type": "scripthash",
            "addresses": [
              "M9SK6h3MsDsVy2eLtrHSu7mQzPTkJj5r1k"
            ]
          }
        }
      ],
      "hex": "0100000000010158c08f9828f8113d11932c1154d8a620024357ba4003afc5af23463e0259e6120100000023220020808588d861db184aed3f44edd9fd22eb405f88bb8969c14bf4648f070052a697ffffffff0280969800000000001976a9145d0aab75f3bcd93db5a8c963d700d2995922764588acc0a15c050000000017a91410dc6c0aafe5430b7be5e4d8fa17e908797f2e0f87040047304402202308b1529436911964e7bc3b6ee8251efad90a1ce5f1058b91f07fc0c327451a02205061fbbb025f924a8e07518ce7b7eaad84efe28ef18811d5693d78ef6391761b01483045022100c50d323bafa1160fc22f9cb1b0f713f5bd27f602afb1442fd62d9cffdd0a4f2402206a3c25b3006f0036399e7738459e0dabe22de23a447e8b2fcf251d6bf9b532ab01475221031b304889cf069a34b2a9411346c8a346cd880c3ead477f09ebddcca1f7b463f621035601f3a2305646caace0c463b02eba89c2b789e281cef04109061d879d5bb51352ae00000000"
    }, 
    {
      "txid": "2e79bb5058633fc354689c088de6d75802eeb3441b2ee124d24da8771c1684de",
      "hash": "2e79bb5058633fc354689c088de6d75802eeb3441b2ee124d24da8771c1684de",
      "version": 1,
      "size": 226,
      "vsize": 226,
      "locktime": 0,
      "vin": [
        {
          "txid": "d6696c8ae115b2be93da08cf2ebc19bd687092c33a18fb8101329fe4351b94bb",
          "vout": 0,
          "scriptSig": {
            "asm": "3045022100db2e25b6b615f0d40682d50ca72cf46480f90fbb056beaa7d78d3a490eef6f7802206d5cf6285365c6d2f055f5fc82ff6225349bc29f43a188f90ce347cb88b3e9fd[ALL] 03b267227c1cb6f3b060930743b9e21ec01f52ce86b2358fc5480b22df589e50a3",
            "hex": "483045022100db2e25b6b615f0d40682d50ca72cf46480f90fbb056beaa7d78d3a490eef6f7802206d5cf6285365c6d2f055f5fc82ff6225349bc29f43a188f90ce347cb88b3e9fd012103b267227c1cb6f3b060930743b9e21ec01f52ce86b2358fc5480b22df589e50a3"
          },
          "sequence": 4294967295
        }
      ],
      "vout": [
        {
          "value": 0.10455000,
          "n": 0,
          "scriptPubKey": {
            "asm": "OP_DUP OP_HASH160 6ac36238cb8ab8d00a699c5163d5af42dc6c1764 OP_EQUALVERIFY OP_CHECKSIG",
            "hex": "76a9146ac36238cb8ab8d00a699c5163d5af42dc6c176488ac",
            "reqSigs": 1,
            "type": "pubkeyhash",
            "addresses": [
              "LUxTx3T6iXd8FEfUK3fi2jeW4xHnDiFCPD"
            ]
          }
        }, 
        {
          "value": 0.00301879,
          "n": 1,
          "scriptPubKey": {
            "asm": "OP_DUP OP_HASH160 d90b711522886e428e3b43f227217a66ca08718e OP_EQUALVERIFY OP_CHECKSIG",
            "hex": "76a914d90b711522886e428e3b43f227217a66ca08718e88ac",
            "reqSigs": 1,
            "type": "pubkeyhash",
            "addresses": [
              "Lf1abpq7ebDk5Vma87mbUAVmbHLQyLcVAb"
            ]
          }
        }
      ],
      "hex": "0100000001bb941b35e49f320181fb183ac3927068bd19bc2ecf08da93beb215e18a6c69d6000000006b483045022100db2e25b6b615f0d40682d50ca72cf46480f90fbb056beaa7d78d3a490eef6f7802206d5cf6285365c6d2f055f5fc82ff6225349bc29f43a188f90ce347cb88b3e9fd012103b267227c1cb6f3b060930743b9e21ec01f52ce86b2358fc5480b22df589e50a3ffffffff02d8879f00000000001976a9146ac36238cb8ab8d00a699c5163d5af42dc6c176488ac379b0400000000001976a914d90b711522886e428e3b43f227217a66ca08718e88ac00000000"
    }
  ],
  "time": 1517183698,
  "mediantime": 1517183200,
  "nonce": 1386638256,
  "bits": "1a047f14",
  "difficulty": 3731199.183374282,
  "chainwork": "00000000000000000000000000000000000000000000003358a376d7f3d1f704",
  "previousblockhash": "98be6fe98acb01b1847c1d5269867e3ba8290ebbdad3e6d364207b042e9da18a",
  "nextblockhash": "63d60e26cccd750dde404742b2f4481cfe5c5cf985da817eb962fbe1ef65912e"
}
