{
  "hash": "5eaa7529ab27743d7278ae27ce58748c79010c96e4cc2a6a83d0ea9ca14b3109",
  "confirmations": 3044,
  "strippedsize": 256,
  "size": 256,
  "weight": 1024,
  "height": 1357951,
  "version": 536870912,
  "versionHex": "20000000",
  "merkleroot": "b81b927a080cdfe8a1c995b92eaa64d78a122acba64db19adf53da6b2c28f69f",
  "tx": [
    {
      "txid": "b81b927a080cdfe8a1c995b92eaa64d78a122acba64db19adf53da6b2c28f69f",
      "hash": "b81b927a080cdfe8a1c995b92eaa64d78a122acba64db19adf53da6b2c28f69f",
      "version": 1,
      "size": 175,
      "vsize": 175,
      "locktime": 0,
      "vin": [
        {
          "coinbase": "037fb8141d4d696e656420627920416e74506f6f6c20626a302042205a6ca35f0468fabe6d6d0cd524fb5c34a2c93d11769ab9433e691337efcf227133a527a567ae277f96470400000000000000b11700000000000004000000",
          "sequence": 4294967295
        }
      ],
      "vout": [
        {
          "value": 25.00000000,
          "n": 0,
          "scriptPubKey": {
            "asm": "OP_DUP OP_HASH160 0ff3ccc5e8be88afe24b5d634e5852d474dbdff1 OP_EQUALVERIFY OP_CHECKSIG",
            "hex": "76a9140ff3ccc5e8be88afe24b5d634e5852d474dbdff188ac",
            "reqSigs": 1,
            "type": "pubkeyhash",
            "addresses": [
              "LLgJTbzZMsRTCUF1NtvvL9SR1a4pVieW89"
            ]
          }
        }
      ],
      "hex": "01000000010000000000000000000000000000000000000000000000000000000000000000ffffffff5a037fb8141d4d696e656420627920416e74506f6f6c20626a302042205a6ca35f0468fabe6d6d0cd524fb5c34a2c93d11769ab9433e691337efcf227133a527a567ae277f96470400000000000000b11700000000000004000000ffffffff0100f90295000000001976a9140ff3ccc5e8be88afe24b5d634e5852d474dbdff188ac00000000"
    }
  ],
  "time": 1517069151,
  "mediantime": 1517068547,
  "nonce": 1966770852,
  "bits": "1a047f14",
  "difficulty": 3731199.183374282,
  "chainwork": "000000000000000000000000000000000000000000000032ab9c764c48fc5000",
  "previousblockhash": "96310808f2eb94ca5d72a6ab67c71ec73aeb1d392d5bd45058bc3c00dfaa6095",
  "nextblockhash": "8a8e38677e6ddc70a5f44fa36476efbf52b1c8b1f08f461f34f5731ad4b3be71"
}
