{
  "hash": "5ed132405aab5820fb08ebc453353343eae7f76481a8bc2fe2e579161f9b32b7",
  "confirmations": 1294,
  "strippedsize": 3879,
  "size": 3915,
  "weight": 15552,
  "height": 1359700,
  "version": 536870912,
  "versionHex": "20000000",
  "merkleroot": "52cfddd8f65dca042135fb3bbca2117b9747e5ec2bc6f06b789bd759cf15b70f",
  "tx": [
    {
      "txid": "1ec1fd0380d77ae82c83f2a08ef2a4b8173e006f51bc2f4ad9ee7ff091b790e4",
      "hash": "b61aaadf5ebb851afa59f881b41e401ef97bd0bb5ca3419ff82a78567fa94a9d",
      "version": 1,
      "size": 277,
      "vsize": 250,
      "locktime": 958140107,
      "vin": [
        {
          "coinbase": "0354bf142cfabe6d6d894574bde707682f7e5095be4c4a01448e3c9487a4b6ec30ab9c3044f052b55708000000f09f909f114d696e6564206279206e69636530333033000000000000000000000000000000000000000000000000000000000000000000",
          "sequence": 10
        }
      ],
      "vout": [
        {
          "value": 25.00677604,
          "n": 0,
          "scriptPubKey": {
            "asm": "OP_DUP OP_HASH160 aa3750aa18b8a0f3f0590731e1fab934856680cf OP_EQUALVERIFY OP_CHECKSIG",
            "hex": "76a914aa3750aa18b8a0f3f0590731e1fab934856680cf88ac",
            "reqSigs": 1,
            "type": "pubkeyhash",
            "addresses": [
              "LajyQBeZaBA1NkZDeY8YT5RYYVRkXMvb2T"
            ]
          }
        }, 
        {
          "value": 0.00000000,
          "n": 1,
          "scriptPubKey": {
            "asm": "OP_RETURN aa21a9edb6a2b882d46c0f20e574e5e18027d6b14bd0763b5c2318edc6d436721edfd98a 0000000000000000",
            "hex": "6a24aa21a9edb6a2b882d46c0f20e574e5e18027d6b14bd0763b5c2318edc6d436721edfd98a080000000000000000",
            "type": "nulldata"
          }
        }
      ],
      "hex": "010000000001010000000000000000000000000000000000000000000000000000000000000000ffffffff640354bf142cfabe6d6d894574bde707682f7e5095be4c4a01448e3c9487a4b6ec30ab9c3044f052b55708000000f09f909f114d696e6564206279206e696365303330330000000000000000000000000000000000000000000000000000000000000000000a00000002e44f0d95000000001976a914aa3750aa18b8a0f3f0590731e1fab934856680cf88ac00000000000000002f6a24aa21a9edb6a2b882d46c0f20e574e5e18027d6b14bd0763b5c2318edc6d436721edfd98a08000000000000000001200000000000000000000000000000000000000000000000000000000000000000cb0e1c39"
    }, 
    {
      "txid": "b4c2431a401b115a461fe7ada7025c5075e11bca370067adc5d43a28cb317765",
      "hash": "b4c2431a401b115a461fe7ada7025c5075e11bca370067adc5d43a28cb317765",
      "version": 1,
      "size": 339,
      "vsize": 339,
      "locktime": 0,
      "vin": [
        {
          "txid": "ac47469d79507e59bae517cbb8ec148cb28d66a3152f86af950704291c2bf714",
          "vout": 0,
          "scriptSig": {
            "asm": "304502210084179be706e5f8a75d85089c6e403699940f400c94d0a7010ed9c2801be49a2902202f7c3394e4eb44ed4b24549366f7cac0b61f87783d4cd3d63193ae9acb6df6d4[ALL] 028ed35781ec482f0d5d43363a36162f315368de6cb54794972df10f5d672b6d58",
            "hex": "48304502210084179be706e5f8a75d85089c6e403699940f400c94d0a7010ed9c2801be49a2902202f7c3394e4eb44ed4b24549366f7cac0b61f87783d4cd3d63193ae9acb6df6d40121028ed35781ec482f0d5d43363a36162f315368de6cb54794972df10f5d672b6d58"
          },
          "sequence": 4294967295
        }, 
        {
          "txid": "14aadaa0db35e0991429f3ea05f8f10d662ab9d110a0cc3c4e880ae407a4abdb",
          "vout": 1,
          "scriptSig": {
            "asm": "304402201ca0905eee52df2cd4a5c87b17594489923c36476ebd93f19afd4b4e0deac4af0220509f52fd8598393e3644e4f55778c848b41d7e324e597f4a340365852f17cb00[ALL] 028ed35781ec482f0d5d43363a36162f315368de6cb54794972df10f5d672b6d58",
            "hex": "47304402201ca0905eee52df2cd4a5c87b17594489923c36476ebd93f19afd4b4e0deac4af0220509f52fd8598393e3644e4f55778c848b41d7e324e597f4a340365852f17cb000121028ed35781ec482f0d5d43363a36162f315368de6cb54794972df10f5d672b6d58"
          },
          "sequence": 4294967295
        }
      ],
      "vout": [
        {
          "value": 3.21519700,
          "n": 0,
          "scriptPubKey": {
            "asm": "OP_DUP OP_HASH160 62ec418671a6973294613439725121a9e5cee695 OP_EQUALVERIFY OP_CHECKSIG",
            "hex": "76a91462ec418671a6973294613439725121a9e5cee69588ac",
            "reqSigs": 1,
            "type": "pubkeyhash",
            "addresses": [
              "LUF1WN592iAYdUqmbGygKJKgnMQFsFLPJq"
            ]
          }
        }
      ],
      "hex": "010000000214f72b1c29040795af862f15a3668db28c14ecb8cb17e5ba597e50799d4647ac000000006b48304502210084179be706e5f8a75d85089c6e403699940f400c94d0a7010ed9c2801be49a2902202f7c3394e4eb44ed4b24549366f7cac0b61f87783d4cd3d63193ae9acb6df6d40121028ed35781ec482f0d5d43363a36162f315368de6cb54794972df10f5d672b6d58ffffffffdbaba407e40a884e3ccca010d1b92a660df1f805eaf3291499e035dba0daaa14010000006a47304402201ca0905eee52df2cd4a5c87b17594489923c36476ebd93f19afd4b4e0deac4af0220509f52fd8598393e3644e4f55778c848b41d7e324e597f4a340365852f17cb000121028ed35781ec482f0d5d43363a36162f315368de6cb54794972df10f5d672b6d58ffffffff0154002a13000000001976a91462ec418671a6973294613439725121a9e5cee69588ac00000000"
    }, 
    {
      "txid": "0f329b8ef7fb64aea25f25fbc1d7c05010aa3671ff46a6f3e37daf7387e43283",
      "hash": "0f329b8ef7fb64aea25f25fbc1d7c05010aa3671ff46a6f3e37daf7387e43283",
      "version": 2,
      "size": 225,
      "vsize": 225,
      "locktime": 1359698,
      "vin": [
        {
          "txid": "0b803e4f70d9d58e8a06eef4d749dd72f72daaf4f95222709705baf10b388cb6",
          "vout": 0,
          "scriptSig": {
            "asm": "3044022025925370b7f4fa56a0e07e85d38ec2ef3a0d625571b38dd0a4583797f152a4a3022016f13c61550185f7dfbf032b9bd4ae93251ed0eb94e27421c4d265ff8f66214e[ALL] 02114017ee320f71128e4b6fb9c7d898c78a077e2883c99ddaf23d6da20a16b191",
            "hex": "473044022025925370b7f4fa56a0e07e85d38ec2ef3a0d625571b38dd0a4583797f152a4a3022016f13c61550185f7dfbf032b9bd4ae93251ed0eb94e27421c4d265ff8f66214e012102114017ee320f71128e4b6fb9c7d898c78a077e2883c99ddaf23d6da20a16b191"
          },
          "sequence": 4294967294
        }
      ],
      "vout": [
        {
          "value": 0.00982312,
          "n": 0,
          "scriptPubKey": {
            "asm": "OP_DUP OP_HASH160 dcc617cd26eacf9de9f8cc16ab986c04b7e5cf31 OP_EQUALVERIFY OP_CHECKSIG",
            "hex": "76a914dcc617cd26eacf9de9f8cc16ab986c04b7e5cf3188ac",
            "reqSigs": 1,
            "type": "pubkeyhash",
            "addresses": [
              "LfMJEA3sRFE1vUukGY5tKV9v9WKxYc1DmL"
            ]
          }
        }, 
        {
          "value": 0.30595000,
          "n": 1,
          "scriptPubKey": {
            "asm": "OP_DUP OP_HASH160 3b5cfc2a83a5ad718ebb115337bccfb819ae07cc OP_EQUALVERIFY OP_CHECKSIG",
            "hex": "76a9143b5cfc2a83a5ad718ebb115337bccfb819ae07cc88ac",
            "reqSigs": 1,
            "type": "pubkeyhash",
            "addresses": [
              "LQdqXF68GzzpxjEZi6SmqowUUQCJwFukQf"
            ]
          }
        }
      ],
      "hex": "0200000001b68c380bf1ba0597702252f9f4aa2df772dd49d7f4ee068a8ed5d9704f3e800b000000006a473044022025925370b7f4fa56a0e07e85d38ec2ef3a0d625571b38dd0a4583797f152a4a3022016f13c61550185f7dfbf032b9bd4ae93251ed0eb94e27421c4d265ff8f66214e012102114017ee320f71128e4b6fb9c7d898c78a077e2883c99ddaf23d6da20a16b191feffffff0228fd0e00000000001976a914dcc617cd26eacf9de9f8cc16ab986c04b7e5cf3188acb8d7d201000000001976a9143b5cfc2a83a5ad718ebb115337bccfb819ae07cc88ac52bf1400"
    }, 
    {
      "txid": "e25142cf127d1bbf914ba05df73ec73d2687211f1c76ae1b43839286f3c8548e",
      "hash": "e25142cf127d1bbf914ba05df73ec73d2687211f1c76ae1b43839286f3c8548e",
      "version": 1,
      "size": 225,
      "vsize": 225,
      "locktime": 1359698,
      "vin": [
        {
          "txid": "94560fd820b838b2c8d8586ece93f4ac8e50a586cfdafddff69808e0606d3149",
          "vout": 0,
          "scriptSig": {
            "asm": "3044022063a6963dc7133f723eb1cf1a88468314f7c3d1e2cb7d914f136846ffdc47e21102206aa747acf6a5582440bbeaf4ad0302373326184101d7f67195f766753fe708bc[ALL] 02096e732e51f0c4587d1a9149e583d1edc88fb1331f7b99761d9d7222c3ec56a2",
            "hex": "473044022063a6963dc7133f723eb1cf1a88468314f7c3d1e2cb7d914f136846ffdc47e21102206aa747acf6a5582440bbeaf4ad0302373326184101d7f67195f766753fe708bc012102096e732e51f0c4587d1a9149e583d1edc88fb1331f7b99761d9d7222c3ec56a2"
          },
          "sequence": 4294967294
        }
      ],
      "vout": [
        {
          "value": 0.75579608,
          "n": 0,
          "scriptPubKey": {
            "asm": "OP_DUP OP_HASH160 6be213ddd2e511d4732db19a33d64195e04b5a95 OP_EQUALVERIFY OP_CHECKSIG",
            "hex": "76a9146be213ddd2e511d4732db19a33d64195e04b5a9588ac",
            "reqSigs": 1,
            "type": "pubkeyhash",
            "addresses": [
              "LV4PPtMEgVxPYNLoa41iLc1j6iXTnNS7Xs"
            ]
          }
        }, 
        {
          "value": 0.14397792,
          "n": 1,
          "scriptPubKey": {
            "asm": "OP_DUP OP_HASH160 dc15897ec26b0eb293eb24a499a8b0f5de96635c OP_EQUALVERIFY OP_CHECKSIG",
            "hex": "76a914dc15897ec26b0eb293eb24a499a8b0f5de96635c88ac",
            "reqSigs": 1,
            "type": "pubkeyhash",
            "addresses": [
              "LfHeiqcbSqbbNYEXKir3rNrULJe3PSMWXb"
            ]
          }
        }
      ],
      "hex": "010000000149316d60e00898f6dffddacf86a5508eacf493ce6e58d8c8b238b820d80f5694000000006a473044022063a6963dc7133f723eb1cf1a88468314f7c3d1e2cb7d914f136846ffdc47e21102206aa747acf6a5582440bbeaf4ad0302373326184101d7f67195f766753fe708bc012102096e732e51f0c4587d1a9149e583d1edc88fb1331f7b99761d9d7222c3ec56a2feffffff02d8408104000000001976a9146be213ddd2e511d4732db19a33d64195e04b5a9588ac60b1db00000000001976a914dc15897ec26b0eb293eb24a499a8b0f5de96635c88ac52bf1400"
    }, 
    {
      "txid": "73b697be936b1d1c22c9fd7644ed022ff48f8aefb8953d907b7f1a13d9f20e9a",
      "hash": "73b697be936b1d1c22c9fd7644ed022ff48f8aefb8953d907b7f1a13d9f20e9a",
      "version": 1,
      "size": 225,
      "vsize": 225,
      "locktime": 0,
      "vin": [
        {
          "txid": "16631d7bbd8c1f13792163a8dafdf3ccdb047b15a7dc048389f6febc39fd5826",
          "vout": 0,
          "scriptSig": {
            "asm": "3044022021492e55ce21c47022cdea026800a7610161914e9af371b0f0ba75887716cfe2022036c08cd5e4f2af33bc54a639f5e1ca33996688a29f73a17f98dbef1817b10f49[ALL] 024258bfc40902326e57e312a4d14bc78d3fbe9e6cc40a42685e253462b5c948fb",
            "hex": "473044022021492e55ce21c47022cdea026800a7610161914e9af371b0f0ba75887716cfe2022036c08cd5e4f2af33bc54a639f5e1ca33996688a29f73a17f98dbef1817b10f490121024258bfc40902326e57e312a4d14bc78d3fbe9e6cc40a42685e253462b5c948fb"
          },
          "sequence": 4294967295
        }
      ],
      "vout": [
        {
          "value": 0.08605928,
          "n": 0,
          "scriptPubKey": {
            "asm": "OP_DUP OP_HASH160 debbdcacc415fd5ca2923ae771757385deed8db5 OP_EQUALVERIFY OP_CHECKSIG",
            "hex": "76a914debbdcacc415fd5ca2923ae771757385deed8db588ac",
            "reqSigs": 1,
            "type": "pubkeyhash",
            "addresses": [
              "LfXfKgSFaiqCnJHBB7FEbpsmNiEBWasZES"
            ]
          }
        }, 
        {
          "value": 0.40048872,
          "n": 1,
          "scriptPubKey": {
            "asm": "OP_DUP OP_HASH160 2e40e83893afc0f515c078d7026fabdad0a67540 OP_EQUALVERIFY OP_CHECKSIG",
            "hex": "76a9142e40e83893afc0f515c078d7026fabdad0a6754088ac",
            "reqSigs": 1,
            "type": "pubkeyhash",
            "addresses": [
              "LPSX6ryj5FDczSc4pdbc5SJJvJb6WyoLbp"
            ]
          }
        }
      ],
      "hex": "01000000012658fd39bcfef6898304dca7157b04dbccf3fddaa8632179131f8cbd7b1d6316000000006a473044022021492e55ce21c47022cdea026800a7610161914e9af371b0f0ba75887716cfe2022036c08cd5e4f2af33bc54a639f5e1ca33996688a29f73a17f98dbef1817b10f490121024258bfc40902326e57e312a4d14bc78d3fbe9e6cc40a42685e253462b5c948fbffffffff02e8508300000000001976a914debbdcacc415fd5ca2923ae771757385deed8db588ace8186302000000001976a9142e40e83893afc0f515c078d7026fabdad0a6754088ac00000000"
    }, 
    {
      "txid": "9499ad01d4c6ca62b6fd22c5cc36597f190d741ad80d3bab45d7618bd4f554d4",
      "hash": "9499ad01d4c6ca62b6fd22c5cc36597f190d741ad80d3bab45d7618bd4f554d4",
      "version": 1,
      "size": 225,
      "vsize": 225,
      "locktime": 0,
      "vin": [
        {
          "txid": "2fa9b93ec27b7ca0dd399ce896a3596a2fa26e19ee53e2d04feb06e23813d273",
          "vout": 0,
          "scriptSig": {
            "asm": "304402202dfac413628888d7d38f63556249f253fd5963db9ea3e9cfa5b3010a33b6e2110220129a30f982d9d9df7133f7f30e713d79e95c236eaaa09cca35c61ec51ff80501[ALL] 023b92f667b975af6587013c2fb62bfa9ff71d179aabcc4b23060d6ee8e60cd105",
            "hex": "47304402202dfac413628888d7d38f63556249f253fd5963db9ea3e9cfa5b3010a33b6e2110220129a30f982d9d9df7133f7f30e713d79e95c236eaaa09cca35c61ec51ff805010121023b92f667b975af6587013c2fb62bfa9ff71d179aabcc4b23060d6ee8e60cd105"
          },
          "sequence": 4294967295
        }
      ],
      "vout": [
        {
          "value": 55.87754652,
          "n": 0,
          "scriptPubKey": {
            "asm": "OP_DUP OP_HASH160 fab778cf0071a2823d06e36cee401eeb6278f65e OP_EQUALVERIFY OP_CHECKSIG",
            "hex": "76a914fab778cf0071a2823d06e36cee401eeb6278f65e88ac",
            "reqSigs": 1,
            "type": "pubkeyhash",
            "addresses": [
              "Li5cz2FK2XPmzJXTQ6Zk4EN4yshQF5NsQm"
            ]
          }
        }, 
        {
          "value": 21.00000000,
          "n": 1,
          "scriptPubKey": {
            "asm": "OP_DUP OP_HASH160 c4aafb299a285c11e0c841d9ea3cb85cdf58752f OP_EQUALVERIFY OP_CHECKSIG",
            "hex": "76a914c4aafb299a285c11e0c841d9ea3cb85cdf58752f88ac",
            "reqSigs": 1,
            "type": "pubkeyhash",
            "addresses": [
              "Ld9qXnc8CkzfGU1Mm3Y8cu4QjB4G7bTc8C"
            ]
          }
        }
      ],
      "hex": "010000000173d21338e206eb4fd0e253ee196ea22f6a59a396e89c39dda07c7bc23eb9a92f000000006a47304402202dfac413628888d7d38f63556249f253fd5963db9ea3e9cfa5b3010a33b6e2110220129a30f982d9d9df7133f7f30e713d79e95c236eaaa09cca35c61ec51ff805010121023b92f667b975af6587013c2fb62bfa9ff71d179aabcc4b23060d6ee8e60cd105ffffffff029c5e0e4d010000001976a914fab778cf0071a2823d06e36cee401eeb6278f65e88ac00752b7d000000001976a914c4aafb299a285c11e0c841d9ea3cb85cdf58752f88ac00000000"
    }, 
    {
      "txid": "dcd62591d01f11bb448eea9a7f72eed8424e996aaaa95407bcb539fde18194d2",
      "hash": "dcd62591d01f11bb448eea9a7f72eed8424e996aaaa95407bcb539fde18194d2",
      "version": 1,
      "size": 373,
      "vsize": 373,
      "locktime": 1359698,
      "vin": [
        {
          "txid": "192094c20c4f91414f44f192be469dc89ed1360af11deacea8d1b66ddef3b0cb",
          "vout": 0,
          "scriptSig": {
            "asm": "304402203106cb6d83ee82052c67b539ffc2ceefbe609b3ef0579496a32724b82d0f9bb002204aa35b8e7c7d2d3c982b1f7594547e1a7d39fb43a5e033171290bec3bc41e43a[ALL] 03e49bbafb9b87f53f2342739511ff1710f1b166ce55da87a93a3143226961b2a5",
            "hex": "47304402203106cb6d83ee82052c67b539ffc2ceefbe609b3ef0579496a32724b82d0f9bb002204aa35b8e7c7d2d3c982b1f7594547e1a7d39fb43a5e033171290bec3bc41e43a012103e49bbafb9b87f53f2342739511ff1710f1b166ce55da87a93a3143226961b2a5"
          },
          "sequence": 4294967294
        }, 
        {
          "txid": "aa51750636dbeb4599bf0a3ca2d7818dd41f66f8d7224166f3a4e53134336034",
          "vout": 0,
          "scriptSig": {
            "asm": "3045022100e09f01d01d7268dfe2a7df8b8598c4eeec75c3b141993bf596952d07ac94f85e02203884b9ee73cc9939bdf245c9594f78054c05fad8cefcdb3ec16ee4a6c30dc65a[ALL] 02b82ba355af9a51db347140f01acb849eb89dafe0280d02f198821b7c3669970e",
            "hex": "483045022100e09f01d01d7268dfe2a7df8b8598c4eeec75c3b141993bf596952d07ac94f85e02203884b9ee73cc9939bdf245c9594f78054c05fad8cefcdb3ec16ee4a6c30dc65a012102b82ba355af9a51db347140f01acb849eb89dafe0280d02f198821b7c3669970e"
          },
          "sequence": 4294967294
        }
      ],
      "vout": [
        {
          "value": 0.01000580,
          "n": 0,
          "scriptPubKey": {
            "asm": "OP_DUP OP_HASH160 8fe5d5b89b4d2d52322c937c328c0d9f0cffda69 OP_EQUALVERIFY OP_CHECKSIG",
            "hex": "76a9148fe5d5b89b4d2d52322c937c328c0d9f0cffda6988ac",
            "reqSigs": 1,
            "type": "pubkeyhash",
            "addresses": [
              "LYLpDrFYxnz6PNCgD7ZtX9esHhrgbZ1daJ"
            ]
          }
        }, 
        {
          "value": 4.07683618,
          "n": 1,
          "scriptPubKey": {
            "asm": "OP_DUP OP_HASH160 c80efcfc94a437ea25d272036a9da415f0156fe7 OP_EQUALVERIFY OP_CHECKSIG",
            "hex": "76a914c80efcfc94a437ea25d272036a9da415f0156fe788ac",
            "reqSigs": 1,
            "type": "pubkeyhash",
            "addresses": [
              "LdTmMymKqwEXWWsi7HseR14B16UjBYStyK"
            ]
          }
        }
      ],
      "hex": "0100000002cbb0f3de6db6d1a8ceea1df10a36d19ec89d46be92f1444f41914f0cc2942019000000006a47304402203106cb6d83ee82052c67b539ffc2ceefbe609b3ef0579496a32724b82d0f9bb002204aa35b8e7c7d2d3c982b1f7594547e1a7d39fb43a5e033171290bec3bc41e43a012103e49bbafb9b87f53f2342739511ff1710f1b166ce55da87a93a3143226961b2a5feffffff3460333431e5a4f3664122d7f8661fd48d81d7a23c0abf9945ebdb36067551aa000000006b483045022100e09f01d01d7268dfe2a7df8b8598c4eeec75c3b141993bf596952d07ac94f85e02203884b9ee73cc9939bdf245c9594f78054c05fad8cefcdb3ec16ee4a6c30dc65a012102b82ba355af9a51db347140f01acb849eb89dafe0280d02f198821b7c3669970efeffffff0284440f00000000001976a9148fe5d5b89b4d2d52322c937c328c0d9f0cffda6988ac22c24c18000000001976a914c80efcfc94a437ea25d272036a9da415f0156fe788ac52bf1400"
    }, 
    {
      "txid": "0180cddfba74a034627f1ce021b11271a2308b0505acd56d257fb3129ddc2528",
      "hash": "0180cddfba74a034627f1ce021b11271a2308b0505acd56d257fb3129ddc2528",
      "version": 1,
      "size": 226,
      "vsize": 226,
      "locktime": 1359698,
      "vin": [
        {
          "txid": "b7b13a7450e19472d50629ca32b901f08e1c683a749705ea3cb21d5f6dab5c19",
          "vout": 1,
          "scriptSig": {
            "asm": "3045022100eaa1385652f33d149533e873881684477f836f467a47e0a9b7091324c0ee915d022017371fd7ac6703aff183d2b4bd2f21609e4bdbc457db867e5d6d776a30f2ce01[ALL] 021b97642b9c5f7d5e46108def6939268afe0b544e1a97ecc3c1d5da680308ed73",
            "hex": "483045022100eaa1385652f33d149533e873881684477f836f467a47e0a9b7091324c0ee915d022017371fd7ac6703aff183d2b4bd2f21609e4bdbc457db867e5d6d776a30f2ce010121021b97642b9c5f7d5e46108def6939268afe0b544e1a97ecc3c1d5da680308ed73"
          },
          "sequence": 4294967294
        }
      ],
      "vout": [
        {
          "value": 0.12370200,
          "n": 0,
          "scriptPubKey": {
            "asm": "OP_DUP OP_HASH160 f60e4bf800d4571b7abb2ef63ceb389475a2e120 OP_EQUALVERIFY OP_CHECKSIG",
            "hex": "76a914f60e4bf800d4571b7abb2ef63ceb389475a2e12088ac",
            "reqSigs": 1,
            "type": "pubkeyhash",
            "addresses": [
              "LheyckytkcBxgqiDPFaVmhf4YfQaSMUavC"
            ]
          }
        }, 
        {
          "value": 0.35000000,
          "n": 1,
          "scriptPubKey": {
            "asm": "OP_DUP OP_HASH160 dabf9230f9a7ced44f18261200ad90e7f25702ab OP_EQUALVERIFY OP_CHECKSIG",
            "hex": "76a914dabf9230f9a7ced44f18261200ad90e7f25702ab88ac",
            "reqSigs": 1,
            "type": "pubkeyhash",
            "addresses": [
              "LfAb4d4nFWxGvBG27aeSNcD6ST4zo5vCsY"
            ]
          }
        }
      ],
      "hex": "0100000001195cab6d5f1db23cea0597743a681c8ef001b932ca2906d57294e150743ab1b7010000006b483045022100eaa1385652f33d149533e873881684477f836f467a47e0a9b7091324c0ee915d022017371fd7ac6703aff183d2b4bd2f21609e4bdbc457db867e5d6d776a30f2ce010121021b97642b9c5f7d5e46108def6939268afe0b544e1a97ecc3c1d5da680308ed73feffffff0218c1bc00000000001976a914f60e4bf800d4571b7abb2ef63ceb389475a2e12088acc00e1602000000001976a914dabf9230f9a7ced44f18261200ad90e7f25702ab88ac52bf1400"
    }, 
    {
      "txid": "b3cce93c41556ebaef2af4f08c402e6447150b2b43f5304a5167b12325439c30",
      "hash": "b3cce93c41556ebaef2af4f08c402e6447150b2b43f5304a5167b12325439c30",
      "version": 1,
      "size": 668,
      "vsize": 668,
      "locktime": 1359698,
      "vin": [
        {
          "txid": "fad05a5651922086d50d44fabc19e6c4a8553b0826175227ccb56a10f5fa511e",
          "vout": 1,
          "scriptSig": {
            "asm": "3045022100b4163ccd6439084617f853f16c9f20b89b484d762a9be99292243809399369a802200dd2df12415bef040851069817757242d42103d8b4af13a9ba994be0ca1ea97b[ALL] 037afe98e11e3df78163f7c80434fddbb828260ac8633a2fb86114961af0f7cb31",
            "hex": "483045022100b4163ccd6439084617f853f16c9f20b89b484d762a9be99292243809399369a802200dd2df12415bef040851069817757242d42103d8b4af13a9ba994be0ca1ea97b0121037afe98e11e3df78163f7c80434fddbb828260ac8633a2fb86114961af0f7cb31"
          },
          "sequence": 4294967294
        }, 
        {
          "txid": "e2fef7c21322d1b847682a6ebec2f02b76828c389db754c3fdc9dfa5e1a15a7b",
          "vout": 0,
          "scriptSig": {
            "asm": "3045022100c0aedb354bb56a9dbac71046718334c16ae134d5b5b00549d13d61ae707190680220683c3712dba9702929b9f19477b1111ccd980299c96ebcb5f2f3d360f174b57d[ALL] 03d45c20d456a27e312db8807866af675691cfcff33891800ffeeb57be9a98c0f7",
            "hex": "483045022100c0aedb354bb56a9dbac71046718334c16ae134d5b5b00549d13d61ae707190680220683c3712dba9702929b9f19477b1111ccd980299c96ebcb5f2f3d360f174b57d012103d45c20d456a27e312db8807866af675691cfcff33891800ffeeb57be9a98c0f7"
          },
          "sequence": 4294967294
        }, 
        {
          "txid": "f5d8eecf1b0cf28d2bc65a7a2e07fea3f3c34dfe6b6e5a44f9788bc73564dda2",
          "vout": 0,
          "scriptSig": {
            "asm": "3044022019fd9a3b0fad32c636fd7c04b5f6aaeddc8d5105a0e4731dd53f81420166ebde02203c2eb27e38801bb3b9b27d0b4916baafb96cc0132f996825dedc2d8850508ee8[ALL] 02fd044d1dede2a0f69ef07261312154cafdb1f4d19a1aa8da0a9aed205952937b",
            "hex": "473044022019fd9a3b0fad32c636fd7c04b5f6aaeddc8d5105a0e4731dd53f81420166ebde02203c2eb27e38801bb3b9b27d0b4916baafb96cc0132f996825dedc2d8850508ee8012102fd044d1dede2a0f69ef07261312154cafdb1f4d19a1aa8da0a9aed205952937b"
          },
          "sequence": 4294967294
        }, 
        {
          "txid": "3738c8b8290592026f3a605dc1a1573c4b2c994e096077dd79b898305832ef4e",
          "vout": 0,
          "scriptSig": {
            "asm": "3044022060519ad1fda1882a441059e49518608fcbdb6255be60511aa1668610cbf889bb02204ad60cab87f57729707fa179e47ac01604eab383deb302165f440d9df86d6c73[ALL] 02319374e9132b839f8526ef4f72506883112857a739b53e3accb75411a1a32ae2",
            "hex": "473044022060519ad1fda1882a441059e49518608fcbdb6255be60511aa1668610cbf889bb02204ad60cab87f57729707fa179e47ac01604eab383deb302165f440d9df86d6c73012102319374e9132b839f8526ef4f72506883112857a739b53e3accb75411a1a32ae2"
          },
          "sequence": 4294967294
        }
      ],
      "vout": [
        {
          "value": 7.00666752,
          "n": 0,
          "scriptPubKey": {
            "asm": "OP_DUP OP_HASH160 e25f7f7b071bb0a856396f49e82ec3b450fb2e8b OP_EQUALVERIFY OP_CHECKSIG",
            "hex": "76a914e25f7f7b071bb0a856396f49e82ec3b450fb2e8b88ac",
            "reqSigs": 1,
            "type": "pubkeyhash",
            "addresses": [
              "LfruNt7RuxzARHVFxegzHAqLecciTjG5GW"
            ]
          }
        }, 
        {
          "value": 0.01009365,
          "n": 1,
          "scriptPubKey": {
            "asm": "OP_DUP OP_HASH160 f7f688b488dc8eec4a1ed4e7cfcdb56b43f47e48 OP_EQUALVERIFY OP_CHECKSIG",
            "hex": "76a914f7f688b488dc8eec4a1ed4e7cfcdb56b43f47e4888ac",
            "reqSigs": 1,
            "type": "pubkeyhash",
            "addresses": [
              "Lhq4W5UuFGLDj8c8X8SLbrwKAgUZvgBtrX"
            ]
          }
        }
      ],
      "hex": "01000000041e51faf5106ab5cc27521726083b55a8c4e619bcfa440dd586209251565ad0fa010000006b483045022100b4163ccd6439084617f853f16c9f20b89b484d762a9be99292243809399369a802200dd2df12415bef040851069817757242d42103d8b4af13a9ba994be0ca1ea97b0121037afe98e11e3df78163f7c80434fddbb828260ac8633a2fb86114961af0f7cb31feffffff7b5aa1e1a5dfc9fdc354b79d388c82762bf0c2be6e2a6847b8d12213c2f7fee2000000006b483045022100c0aedb354bb56a9dbac71046718334c16ae134d5b5b00549d13d61ae707190680220683c3712dba9702929b9f19477b1111ccd980299c96ebcb5f2f3d360f174b57d012103d45c20d456a27e312db8807866af675691cfcff33891800ffeeb57be9a98c0f7feffffffa2dd6435c78b78f9445a6e6bfe4dc3f3a3fe072e7a5ac62b8df20c1bcfeed8f5000000006a473044022019fd9a3b0fad32c636fd7c04b5f6aaeddc8d5105a0e4731dd53f81420166ebde02203c2eb27e38801bb3b9b27d0b4916baafb96cc0132f996825dedc2d8850508ee8012102fd044d1dede2a0f69ef07261312154cafdb1f4d19a1aa8da0a9aed205952937bfeffffff4eef32583098b879dd7760094e992c4b3c57a1c15d603a6f02920529b8c83837000000006a473044022060519ad1fda1882a441059e49518608fcbdb6255be60511aa1668610cbf889bb02204ad60cab87f57729707fa179e47ac01604eab383deb302165f440d9df86d6c73012102319374e9132b839f8526ef4f72506883112857a739b53e3accb75411a1a32ae2feffffff028053c329000000001976a914e25f7f7b071bb0a856396f49e82ec3b450fb2e8b88acd5660f00000000001976a914f7f688b488dc8eec4a1ed4e7cfcdb56b43f47e4888ac52bf1400"
    }, 
    {
      "txid": "6e6b7730ed85ed4a8e3d3a1914356b8a0d89f6143a6c2a9b7bc665fbd6672f39",
      "hash": "6e6b7730ed85ed4a8e3d3a1914356b8a0d89f6143a6c2a9b7bc665fbd6672f39",
      "version": 1,
      "size": 373,
      "vsize": 373,
      "locktime": 1359698,
      "vin": [
        {
          "txid": "6edb79d4b7b16b2bc5788062e79a9ae69d2f42daa5639aeee416cc593a92eaae",
          "vout": 0,
          "scriptSig": {
            "asm": "3045022100a24a62d0da13fe24ca6e183ebcf2767ed91ead3124e7da711fad005a6a1b200202200d169981d6237813669b327ad6d42fb5421162af8760a22f614fb047fc24e3ea[ALL] 03ff9c931839ce8f54566199514a61ee638a77d04bbe475965d8b8a6ab9dd83bca",
            "hex": "483045022100a24a62d0da13fe24ca6e183ebcf2767ed91ead3124e7da711fad005a6a1b200202200d169981d6237813669b327ad6d42fb5421162af8760a22f614fb047fc24e3ea012103ff9c931839ce8f54566199514a61ee638a77d04bbe475965d8b8a6ab9dd83bca"
          },
          "sequence": 4294967294
        }, 
        {
          "txid": "a033505657f51e45ae49ba73ecaddef5cf7137bdf4259272bca2d0f7ffa9b4eb",
          "vout": 0,
          "scriptSig": {
            "asm": "30440220645314c70447e63a46929847cb775cc56a2b79893772901c3f66bd15cafb19d90220553068de213da49f0b333765c88b8d687e25428d50dfad34f1697c3cfb81dafc[ALL] 02fec6e8df9cc63cd5992957ea7c60d3b9ae716bc316a768d9c828659e3b117ad8",
            "hex": "4730440220645314c70447e63a46929847cb775cc56a2b79893772901c3f66bd15cafb19d90220553068de213da49f0b333765c88b8d687e25428d50dfad34f1697c3cfb81dafc012102fec6e8df9cc63cd5992957ea7c60d3b9ae716bc316a768d9c828659e3b117ad8"
          },
          "sequence": 4294967294
        }
      ],
      "vout": [
        {
          "value": 0.01012324,
          "n": 0,
          "scriptPubKey": {
            "asm": "OP_DUP OP_HASH160 60ace317088734ac6f0be8fe9a9441a7a016b7c8 OP_EQUALVERIFY OP_CHECKSIG",
            "hex": "76a91460ace317088734ac6f0be8fe9a9441a7a016b7c888ac",
            "reqSigs": 1,
            "type": "pubkeyhash",
            "addresses": [
              "LU38F2s9BhBN5v4CMB4y9KxCZbjU1cA8dP"
            ]
          }
        }, 
        {
          "value": 1.34035550,
          "n": 1,
          "scriptPubKey": {
            "asm": "OP_DUP OP_HASH160 c021186bd73bf80c604573149b8ec1abc708dbc5 OP_EQUALVERIFY OP_CHECKSIG",
            "hex": "76a914c021186bd73bf80c604573149b8ec1abc708dbc588ac",
            "reqSigs": 1,
            "type": "pubkeyhash",
            "addresses": [
              "LcjqeZ22qhChFwWzbtWXWJZikHqqgSDzFu"
            ]
          }
        }
      ],
      "hex": "0100000002aeea923a59cc16e4ee9a63a5da422f9de69a9ae7628078c52b6bb1b7d479db6e000000006b483045022100a24a62d0da13fe24ca6e183ebcf2767ed91ead3124e7da711fad005a6a1b200202200d169981d6237813669b327ad6d42fb5421162af8760a22f614fb047fc24e3ea012103ff9c931839ce8f54566199514a61ee638a77d04bbe475965d8b8a6ab9dd83bcafeffffffebb4a9fff7d0a2bc729225f4bd3771cff5deadec73ba49ae451ef557565033a0000000006a4730440220645314c70447e63a46929847cb775cc56a2b79893772901c3f66bd15cafb19d90220553068de213da49f0b333765c88b8d687e25428d50dfad34f1697c3cfb81dafc012102fec6e8df9cc63cd5992957ea7c60d3b9ae716bc316a768d9c828659e3b117ad8feffffff0264720f00000000001976a91460ace317088734ac6f0be8fe9a9441a7a016b7c888ac5e38fd07000000001976a914c021186bd73bf80c604573149b8ec1abc708dbc588ac52bf1400"
    }, 
    {
      "txid": "1e98572716eded4752918a41308322586d4b8e1ec85afe5519dd0b579f474f52",
      "hash": "1e98572716eded4752918a41308322586d4b8e1ec85afe5519dd0b579f474f52",
      "version": 1,
      "size": 226,
      "vsize": 226,
      "locktime": 0,
      "vin": [
        {
          "txid": "21dd6ed63ca05352c25e283fa8c87c43e0df10291c35e088c8c16a5c04afa98d",
          "vout": 1,
          "scriptSig": {
            "asm": "3045022100a2c7bf9dc4581cffc8396194d1f6a99e72a2c07cbdd1f9994e8219281c792f5602203331ba61a153aad1dec50b78d5561d424b23ca2a5373d0c28209c8c6fb93bab7[ALL] 031eedae84c0f4f7db59e08e8030521eda6ef1828190ff66f3a3f33e95d024e3e4",
            "hex": "483045022100a2c7bf9dc4581cffc8396194d1f6a99e72a2c07cbdd1f9994e8219281c792f5602203331ba61a153aad1dec50b78d5561d424b23ca2a5373d0c28209c8c6fb93bab70121031eedae84c0f4f7db59e08e8030521eda6ef1828190ff66f3a3f33e95d024e3e4"
          },
          "sequence": 4294967295
        }
      ],
      "vout": [
        {
          "value": 1.69895059,
          "n": 0,
          "scriptPubKey": {
            "asm": "OP_DUP OP_HASH160 da01beefc3a45399f7a5a90f9d5b43ca6cccc031 OP_EQUALVERIFY OP_CHECKSIG",
            "hex": "76a914da01beefc3a45399f7a5a90f9d5b43ca6cccc03188ac",
            "reqSigs": 1,
            "type": "pubkeyhash",
            "addresses": [
              "Lf6ffLR3uRqjN3FcoSzVKHRoWCsjcZL63f"
            ]
          }
        }, 
        {
          "value": 72.78960959,
          "n": 1,
          "scriptPubKey": {
            "asm": "OP_DUP OP_HASH160 972163196fd0610b4d5fbde4ab31247ab88cba48 OP_EQUALVERIFY OP_CHECKSIG",
            "hex": "76a914972163196fd0610b4d5fbde4ab31247ab88cba4888ac",
            "reqSigs": 1,
            "type": "pubkeyhash",
            "addresses": [
              "LZ14HxR7hvoGmtT5BAVYUCFX7pNFzB823G"
            ]
          }
        }
      ],
      "hex": "01000000018da9af045c6ac1c888e0351c2910dfe0437cc8a83f285ec25253a03cd66edd21010000006b483045022100a2c7bf9dc4581cffc8396194d1f6a99e72a2c07cbdd1f9994e8219281c792f5602203331ba61a153aad1dec50b78d5561d424b23ca2a5373d0c28209c8c6fb93bab70121031eedae84c0f4f7db59e08e8030521eda6ef1828190ff66f3a3f33e95d024e3e4ffffffff029364200a000000001976a914da01beefc3a45399f7a5a90f9d5b43ca6cccc03188ac3f21dcb1010000001976a914972163196fd0610b4d5fbde4ab31247ab88cba4888ac00000000"
    }, 
    {
      "txid": "57cd21c8a0b5cde67fa7fc3012d6f8ddfc6be205e2ca78321319bde7cc8b636b",
      "hash": "57cd21c8a0b5cde67fa7fc3012d6f8ddfc6be205e2ca78321319bde7cc8b636b",
      "version": 1,
      "size": 226,
      "vsize": 226,
      "locktime": 0,
      "vin": [
        {
          "txid": "c704da567a3305d0fba8397579c619a4ff1ce17c55be28dda2d868b07852256b",
          "vout": 1,
          "scriptSig": {
            "asm": "3045022100db7476cb10935cc54d3a9d77e8df680d330cc2fff144a57420dcfa2fafd706a902204a9af6b113ec8ddae8112d3e7290208b7f63843e61312e093b2449a639e4e4e7[ALL] 0277e6ed884df2def12f303428678a08442a3a9648c67ab8b7bb68294fd143ea81",
            "hex": "483045022100db7476cb10935cc54d3a9d77e8df680d330cc2fff144a57420dcfa2fafd706a902204a9af6b113ec8ddae8112d3e7290208b7f63843e61312e093b2449a639e4e4e701210277e6ed884df2def12f303428678a08442a3a9648c67ab8b7bb68294fd143ea81"
          },
          "sequence": 4294967295
        }
      ],
      "vout": [
        {
          "value": 0.02174716,
          "n": 0,
          "scriptPubKey": {
            "asm": "OP_DUP OP_HASH160 050a1a95e5d13127a11fde1ef1f69a4712264b09 OP_EQUALVERIFY OP_CHECKSIG",
            "hex": "76a914050a1a95e5d13127a11fde1ef1f69a4712264b0988ac",
            "reqSigs": 1,
            "type": "pubkeyhash",
            "addresses": [
              "LKgbkCYu3TpJ9bN3ZppAQsLHcLE5NMbMvf"
            ]
          }
        }, 
        {
          "value": 0.63811000,
          "n": 1,
          "scriptPubKey": {
            "asm": "OP_DUP OP_HASH160 b98342550009d73130b313af8a5948cc090f5845 OP_EQUALVERIFY OP_CHECKSIG",
            "hex": "76a914b98342550009d73130b313af8a5948cc090f584588ac",
            "reqSigs": 1,
            "type": "pubkeyhash",
            "addresses": [
              "Lc8rWk8bYeyupVNPVGCaWAuDRfuyfgLKko"
            ]
          }
        }
      ],
      "hex": "01000000016b255278b068d8a2dd28be557ce11cffa419c6797539a8fbd005337a56da04c7010000006b483045022100db7476cb10935cc54d3a9d77e8df680d330cc2fff144a57420dcfa2fafd706a902204a9af6b113ec8ddae8112d3e7290208b7f63843e61312e093b2449a639e4e4e701210277e6ed884df2def12f303428678a08442a3a9648c67ab8b7bb68294fd143ea81ffffffff02fc2e2100000000001976a914050a1a95e5d13127a11fde1ef1f69a4712264b0988acb8adcd03000000001976a914b98342550009d73130b313af8a5948cc090f584588ac00000000"
    }, 
    {
      "txid": "6f89bebceb0e861eb8824f4ff45fef01f9b4f74f51d23e76f14c87a7440eb28b",
      "hash": "6f89bebceb0e861eb8824f4ff45fef01f9b4f74f51d23e76f14c87a7440eb28b",
      "version": 1,
      "size": 226,
      "vsize": 226,
      "locktime": 0,
      "vin": [
        {
          "txid": "7e7cfb7d35bfeab43895321db9ac1585c55d8265a69e3e4be26ba3d0e93f91c8",
          "vout": 0,
          "scriptSig": {
            "asm": "3045022100f3fde5da8756733d0e1ce8610677eb89f2a847d838958c890fc65e4309b6e7490220788a2e956a24f8a15ae4ee65405372cac78abc9375dbcd76fefa3c0d876cf6db[ALL] 028ed55a87cc5a2cc016b4af15783248f0f41884d1008f9dabf3fdd1c9b2cc5ee7",
            "hex": "483045022100f3fde5da8756733d0e1ce8610677eb89f2a847d838958c890fc65e4309b6e7490220788a2e956a24f8a15ae4ee65405372cac78abc9375dbcd76fefa3c0d876cf6db0121028ed55a87cc5a2cc016b4af15783248f0f41884d1008f9dabf3fdd1c9b2cc5ee7"
          },
          "sequence": 4294967295
        }
      ],
      "vout": [
        {
          "value": 74.63420013,
          "n": 0,
          "scriptPubKey": {
            "asm": "OP_DUP OP_HASH160 37f4c25ac9b0cbf2e2aef00c53fe2cbd54d821d7 OP_EQUALVERIFY OP_CHECKSIG",
            "hex": "76a91437f4c25ac9b0cbf2e2aef00c53fe2cbd54d821d788ac",
            "reqSigs": 1,
            "type": "pubkeyhash",
            "addresses": [
              "LQKpdvwmA191i8JNhJbVRPdz9N3vX8Ba2N"
            ]
          }
        }, 
        {
          "value": 0.74682988,
          "n": 1,
          "scriptPubKey": {
            "asm": "OP_DUP OP_HASH160 7bdfa2bae1ea97dbe2d152d339a3c05fd04a8189 OP_EQUALVERIFY OP_CHECKSIG",
            "hex": "76a9147bdfa2bae1ea97dbe2d152d339a3c05fd04a818988ac",
            "reqSigs": 1,
            "type": "pubkeyhash",
            "addresses": [
              "LWWwHHa45pbfJKLJ6QsJvSgTGw9m3jmadP"
            ]
          }
        }
      ],
      "hex": "0100000001c8913fe9d0a36be24b3e9ea665825dc58515acb91d329538b4eabf357dfb7c7e000000006b483045022100f3fde5da8756733d0e1ce8610677eb89f2a847d838958c890fc65e4309b6e7490220788a2e956a24f8a15ae4ee65405372cac78abc9375dbcd76fefa3c0d876cf6db0121028ed55a87cc5a2cc016b4af15783248f0f41884d1008f9dabf3fdd1c9b2cc5ee7ffffffff026dc0dabc010000001976a91437f4c25ac9b0cbf2e2aef00c53fe2cbd54d821d788ac6c927304000000001976a9147bdfa2bae1ea97dbe2d152d339a3c05fd04a818988ac00000000"
    }
  ],
  "time": 1517319880,
  "mediantime": 1517319450,
  "nonce": 164192777,
  "bits": "1a042eae",
  "difficulty": 4011378.762614286,
  "chainwork": "0000000000000000000000000000000000000000000000343fe73c04f130d32a",
  "previousblockhash": "dbfc6204c79a1e8c9baa24fb7feb8b13ac4c73c5d69428b2f0ae24b011e580f6",
  "nextblockhash": "a3be339cb3803f9f9f9127359c5e4846eadffb4a52b94df8b76a4a75e6006823"
}
