{
  "hash": "5fdea08a63a0e844ad45c5856146469a2f9d701ab21f4ed8a67ac0b7d4a06824",
  "confirmations": 408,
  "strippedsize": 256,
  "size": 256,
  "weight": 1024,
  "height": 1360586,
  "version": 536870912,
  "versionHex": "20000000",
  "merkleroot": "91992330291348c661db663bc71ddb2293952f0c3adb815b742e01c456662a3c",
  "tx": [
    {
      "txid": "91992330291348c661db663bc71ddb2293952f0c3adb815b742e01c456662a3c",
      "hash": "91992330291348c661db663bc71ddb2293952f0c3adb815b742e01c456662a3c",
      "version": 1,
      "size": 175,
      "vsize": 175,
      "locktime": 0,
      "vin": [
        {
          "coinbase": "03cac2141d4d696e656420627920416e74506f6f6c20626a302042205a727cfd1001fabe6d6dd1dc680d1b00daeb13327e2f08fccddd3fc351dfee18266e4d1e6739aee7c9ba04000000000000001d210000000000000f000000",
          "sequence": 4294967295
        }
      ],
      "vout": [
        {
          "value": 25.00000000,
          "n": 0,
          "scriptPubKey": {
            "asm": "OP_DUP OP_HASH160 0ff3ccc5e8be88afe24b5d634e5852d474dbdff1 OP_EQUALVERIFY OP_CHECKSIG",
            "hex": "76a9140ff3ccc5e8be88afe24b5d634e5852d474dbdff188ac",
            "reqSigs": 1,
            "type": "pubkeyhash",
            "addresses": [
              "LLgJTbzZMsRTCUF1NtvvL9SR1a4pVieW89"
            ]
          }
        }
      ],
      "hex": "01000000010000000000000000000000000000000000000000000000000000000000000000ffffffff5a03cac2141d4d696e656420627920416e74506f6f6c20626a302042205a727cfd1001fabe6d6dd1dc680d1b00daeb13327e2f08fccddd3fc351dfee18266e4d1e6739aee7c9ba04000000000000001d210000000000000f000000ffffffff0100f90295000000001976a9140ff3ccc5e8be88afe24b5d634e5852d474dbdff188ac00000000"
    }
  ],
  "time": 1517452541,
  "mediantime": 1517452295,
  "nonce": 717984693,
  "bits": "1a042eae",
  "difficulty": 4011378.762614286,
  "chainwork": "00000000000000000000000000000000000000000000003513bf0b0c6d577b16",
  "previousblockhash": "0d28d2ed3b4eac73dd48481a5621514763d2dd7c1411f353a8fc6badf23aa235",
  "nextblockhash": "729809fdbaaeecd5201e80b7617d3a1a5756c031a6268fa89e35e2b467db9d4a"
}
