{
  "hash": "5fe470512a61e1883d10138fdaf1f8f1599db95b8eaec4a621115e994add1f46",
  "confirmations": 651,
  "strippedsize": 234,
  "size": 234,
  "weight": 936,
  "height": 1360343,
  "version": 536870912,
  "versionHex": "20000000",
  "merkleroot": "c86bd8e1636563e1c683136519ec4341e81a3c77f39cdaf68a3b0b707153f213",
  "tx": [
    {
      "txid": "c86bd8e1636563e1c683136519ec4341e81a3c77f39cdaf68a3b0b707153f213",
      "hash": "c86bd8e1636563e1c683136519ec4341e81a3c77f39cdaf68a3b0b707153f213",
      "version": 1,
      "size": 153,
      "vsize": 153,
      "locktime": 0,
      "vin": [
        {
          "coinbase": "03d7c114045a71ed002cfabe6d6d7a5744c55f17735c1076c357b5bf23c44f785ea9bed70b7ccc8f56e87fe5fbc84000000000000000042f4c502f085c0052bb470d0000",
          "sequence": 4294967295
        }
      ],
      "vout": [
        {
          "value": 25.00000000,
          "n": 0,
          "scriptPubKey": {
            "asm": "OP_DUP OP_HASH160 57757ed2ecf2052ff3126c397aca7defb9ca2cec OP_EQUALVERIFY OP_CHECKSIG",
            "hex": "76a91457757ed2ecf2052ff3126c397aca7defb9ca2cec88ac",
            "reqSigs": 1,
            "type": "pubkeyhash",
            "addresses": [
              "LTCPodGk5FwcJaRzH9yKnwicxzFUbxp6tN"
            ]
          }
        }
      ],
      "hex": "01000000010000000000000000000000000000000000000000000000000000000000000000ffffffff4403d7c114045a71ed002cfabe6d6d7a5744c55f17735c1076c357b5bf23c44f785ea9bed70b7ccc8f56e87fe5fbc84000000000000000042f4c502f085c0052bb470d0000ffffffff0100f90295000000001976a91457757ed2ecf2052ff3126c397aca7defb9ca2cec88ac00000000"
    }
  ],
  "time": 1517415680,
  "mediantime": 1517415107,
  "nonce": 3590839590,
  "bits": "1a042eae",
  "difficulty": 4011378.762614286,
  "chainwork": "000000000000000000000000000000000000000000000034d9a51503269894b0",
  "previousblockhash": "f64a81e7c6666529027aab5a7c1699efb9bc473e6a294e0b9c52752bbfc54cdc",
  "nextblockhash": "d336d79bdc53857b102b04b2e8d85ddfbfe13d6532d3cebc0d7aa36dfdb5905d"
}
