{
  "hash": "6090180bc9b27e72834f1e20e66adbe86c77cca98eda2a1f330499a893f8992c",
  "confirmations": 1019,
  "strippedsize": 253,
  "size": 253,
  "weight": 1012,
  "height": 1359975,
  "version": 536870912,
  "versionHex": "20000000",
  "merkleroot": "791995c141bc6510ac03235ce82d9fd2041b8eb2d6a4de8c57d33a2b8b3cd494",
  "tx": [
    {
      "txid": "791995c141bc6510ac03235ce82d9fd2041b8eb2d6a4de8c57d33a2b8b3cd494",
      "hash": "791995c141bc6510ac03235ce82d9fd2041b8eb2d6a4de8c57d33a2b8b3cd494",
      "version": 1,
      "size": 172,
      "vsize": 172,
      "locktime": 0,
      "vin": [
        {
          "coinbase": "0367c0141a4d696e656420627920416e74506f6f6c20626a341e205a71073bfabe6d6d427db5047607371541ed6652b1223ae054c1876958101e8008f1bd39aab66c2b0400000000000000361c00000000000011000000",
          "sequence": 4294967295
        }
      ],
      "vout": [
        {
          "value": 25.00000000,
          "n": 0,
          "scriptPubKey": {
            "asm": "OP_DUP OP_HASH160 0ff3ccc5e8be88afe24b5d634e5852d474dbdff1 OP_EQUALVERIFY OP_CHECKSIG",
            "hex": "76a9140ff3ccc5e8be88afe24b5d634e5852d474dbdff188ac",
            "reqSigs": 1,
            "type": "pubkeyhash",
            "addresses": [
              "LLgJTbzZMsRTCUF1NtvvL9SR1a4pVieW89"
            ]
          }
        }
      ],
      "hex": "01000000010000000000000000000000000000000000000000000000000000000000000000ffffffff570367c0141a4d696e656420627920416e74506f6f6c20626a341e205a71073bfabe6d6d427db5047607371541ed6652b1223ae054c1876958101e8008f1bd39aab66c2b0400000000000000361c00000000000011000000ffffffff0100f90295000000001976a9140ff3ccc5e8be88afe24b5d634e5852d474dbdff188ac00000000"
    }
  ],
  "time": 1517356859,
  "mediantime": 1517356092,
  "nonce": 1036192897,
  "bits": "1a042eae",
  "difficulty": 4011378.762614286,
  "chainwork": "00000000000000000000000000000000000000000000003481a7e80d5544e9d0",
  "previousblockhash": "23238348a371430e3c0ef8b6f9a64448e2dd1049b1a56d379ae47c71085bb65e",
  "nextblockhash": "349151664080aca2113c61abb4c0cb1baff3cc2d4185abfcfa7a08742ddad52f"
}
