{
  "hash": "618ffb3f73131303cf3d045b16faf4ebb03a04d03437cc64dd35fa75046d4755",
  "confirmations": 716,
  "strippedsize": 1893,
  "size": 2592,
  "weight": 8271,
  "height": 1360278,
  "version": 536870912,
  "versionHex": "20000000",
  "merkleroot": "58f73bece35e19bca36ea7c7f6c0abdff1588bc139b417f5beff001f855e5713",
  "tx": [
    {
      "txid": "76c42e76c6938d0ca3f77482023412bb14cdae334c5d43dea5de31a0f44caa44",
      "hash": "98479d1c9111865a3d27d839d590fe0cefff6fb60967baa7a7bdd1c51e8753b3",
      "version": 1,
      "size": 240,
      "vsize": 213,
      "locktime": 0,
      "vin": [
        {
          "coinbase": "0396c11404b3c1715a08038ebaf503000000fabe6d6d37845667181b79dfc5812934838d22dc012de88557a3f7e25985cccfa2bf88e94000000000000000092f4c54432e544f502f",
          "sequence": 0
        }
      ],
      "vout": [
        {
          "value": 25.00325080,
          "n": 0,
          "scriptPubKey": {
            "asm": "OP_DUP OP_HASH160 0c617fdb2ea42aed30a509595ee21ba3f6688db0 OP_EQUALVERIFY OP_CHECKSIG",
            "hex": "76a9140c617fdb2ea42aed30a509595ee21ba3f6688db088ac",
            "reqSigs": 1,
            "type": "pubkeyhash",
            "addresses": [
              "LLMRAtr3qBje2ySEa3CnZ55LA4TQMWnRY3"
            ]
          }
        }, 
        {
          "value": 0.00000000,
          "n": 1,
          "scriptPubKey": {
            "asm": "OP_RETURN aa21a9ed8da108d74e7ab1c00cb998a1b67f158a5377ba2f52e6cd898c750fae8d7a1688",
            "hex": "6a24aa21a9ed8da108d74e7ab1c00cb998a1b67f158a5377ba2f52e6cd898c750fae8d7a1688",
            "type": "nulldata"
          }
        }
      ],
      "hex": "010000000001010000000000000000000000000000000000000000000000000000000000000000ffffffff480396c11404b3c1715a08038ebaf503000000fabe6d6d37845667181b79dfc5812934838d22dc012de88557a3f7e25985cccfa2bf88e94000000000000000092f4c54432e544f502f0000000002d8ee0795000000001976a9140c617fdb2ea42aed30a509595ee21ba3f6688db088ac0000000000000000266a24aa21a9ed8da108d74e7ab1c00cb998a1b67f158a5377ba2f52e6cd898c750fae8d7a16880120000000000000000000000000000000000000000000000000000000000000000000000000"
    }, 
    {
      "txid": "0762a17c14dcd0a45040bdcc19f6ae5d0ba60abe98aeff29d5f9e57bc544da07",
      "hash": "0762a17c14dcd0a45040bdcc19f6ae5d0ba60abe98aeff29d5f9e57bc544da07",
      "version": 1,
      "size": 260,
      "vsize": 260,
      "locktime": 0,
      "vin": [
        {
          "txid": "9ef8eca1661cdd5ec3b1ab3a6e37c3a6fed828a27b5e4751f4639bc8f56351ba",
          "vout": 1,
          "scriptSig": {
            "asm": "3045022100dec0c06b7ccc1256b432566331e2e4543d94d0d47e247e4783dbea1d0cea2b670220682d008abedf854024c6fd5b3c4b97cbaf26bf0ffe823ea3859e1219d8adb818[ALL] 033df7e43bb168746ece4c62d25438cb22c8f21b9a628ae5f72fe5f9e34acf152a",
            "hex": "483045022100dec0c06b7ccc1256b432566331e2e4543d94d0d47e247e4783dbea1d0cea2b670220682d008abedf854024c6fd5b3c4b97cbaf26bf0ffe823ea3859e1219d8adb8180121033df7e43bb168746ece4c62d25438cb22c8f21b9a628ae5f72fe5f9e34acf152a"
          },
          "sequence": 4294967295
        }
      ],
      "vout": [
        {
          "value": 0.11308204,
          "n": 0,
          "scriptPubKey": {
            "asm": "OP_DUP OP_HASH160 dd404c70890fa73e9ec04902edf948112d5e32b1 OP_EQUALVERIFY OP_CHECKSIG",
            "hex": "76a914dd404c70890fa73e9ec04902edf948112d5e32b188ac",
            "reqSigs": 1,
            "type": "pubkeyhash",
            "addresses": [
              "LfPpd9miVt8rfrQXsZYQLRR7ZYXYp25L3p"
            ]
          }
        }, 
        {
          "value": 0.09294334,
          "n": 1,
          "scriptPubKey": {
            "asm": "OP_DUP OP_HASH160 72ae750283f4d3f36425d76db10fb636248a7499 OP_EQUALVERIFY OP_CHECKSIG",
            "hex": "76a91472ae750283f4d3f36425d76db10fb636248a749988ac",
            "reqSigs": 1,
            "type": "pubkeyhash",
            "addresses": [
              "LVgLHa6PMMgmTGqgq47oess6uEZv3w8M3Z"
            ]
          }
        }, 
        {
          "value": 5.16213544,
          "n": 2,
          "scriptPubKey": {
            "asm": "OP_DUP OP_HASH160 0734fedbedf33434f04f4c279b3e5d71bf76579a OP_EQUALVERIFY OP_CHECKSIG",
            "hex": "76a9140734fedbedf33434f04f4c279b3e5d71bf76579a88ac",
            "reqSigs": 1,
            "type": "pubkeyhash",
            "addresses": [
              "LKt4UkViSZYXyXUWBBvYXR8SA1hB5cWksP"
            ]
          }
        }
      ],
      "hex": "0100000001ba5163f5c89b63f451475e7ba228d8fea6c3376e3aabb1c35edd1c66a1ecf89e010000006b483045022100dec0c06b7ccc1256b432566331e2e4543d94d0d47e247e4783dbea1d0cea2b670220682d008abedf854024c6fd5b3c4b97cbaf26bf0ffe823ea3859e1219d8adb8180121033df7e43bb168746ece4c62d25438cb22c8f21b9a628ae5f72fe5f9e34acf152affffffff03ac8cac00000000001976a914dd404c70890fa73e9ec04902edf948112d5e32b188acfed18d00000000001976a91472ae750283f4d3f36425d76db10fb636248a749988ac28cbc41e000000001976a9140734fedbedf33434f04f4c279b3e5d71bf76579a88ac00000000"
    }, 
    {
      "txid": "91a8e20b6500e0fa3ff4644f49d0311c2b3def9cc5850564c014b7eb3fe2efa2",
      "hash": "33a89cc10548521077fb357c2634adf71b23247677cd909b03b6135d96965771",
      "version": 1,
      "size": 372,
      "vsize": 207,
      "locktime": 0,
      "vin": [
        {
          "txid": "a8c77a33f57a2d2c73ef3f205b9d88fefa3fbfe2114bec13eb3dddc02d35d784",
          "vout": 1,
          "scriptSig": {
            "asm": "00207975c3f0d1bf8b6205e1c664d703c93d68409676bf17c5e78cdece78bdbf3dbf",
            "hex": "2200207975c3f0d1bf8b6205e1c664d703c93d68409676bf17c5e78cdece78bdbf3dbf"
          },
          "txinwitness": [
            "", 
            "304402202ddaafe6d4f55e38683738dd312fc93bbc319f9b7fc294180feee4dae86a806802204afa92a3852b672da426b3b603f7cc2c3dceda90c4725d4509a03e3fae14b9d201", 
            "304402205dc1b3c830f0fe4fce218fb414f465c2171f22e9185d0e06382ae39e38fc0e60022040f423cf837aa2bdd0ff5ef1c4cb810b10cc825328ccb9a3de1132f780019b3901", 
            "522102611be09a0c6a571c8f68adb2481e938888756d93d4ee5b670f08c16e939b7f1a21022cc7a96a72ef014bf078a6489644e2edb05bb216d30b4f28363b637fe4463fd652ae"
          ],
          "sequence": 4294967295
        }
      ],
      "vout": [
        {
          "value": 0.12235650,
          "n": 0,
          "scriptPubKey": {
            "asm": "OP_DUP OP_HASH160 2d9bab5a561213b3a7ba7631c4b9d59194dcf4bb OP_EQUALVERIFY OP_CHECKSIG",
            "hex": "76a9142d9bab5a561213b3a7ba7631c4b9d59194dcf4bb88ac",
            "reqSigs": 1,
            "type": "pubkeyhash",
            "addresses": [
              "LPP79wYbLvLD4MFnhWtWDqNaJV66GWwyCN"
            ]
          }
        }, 
        {
          "value": 2.01486982,
          "n": 1,
          "scriptPubKey": {
            "asm": "OP_HASH160 486ce63d83e8406016f310cd321d36bbdd10d412 OP_EQUAL",
            "hex": "a914486ce63d83e8406016f310cd321d36bbdd10d41287",
            "reqSigs": 1,
            "type": "scripthash",
            "addresses": [
              "MEW7Lhk6QzBLmCNp5pmpYzwv1KAcKYsSQp"
            ]
          }
        }
      ],
      "hex": "0100000000010184d7352dc0dd3deb13ec4b11e2bf3ffafe889d5b203fef732c2d7af5337ac7a801000000232200207975c3f0d1bf8b6205e1c664d703c93d68409676bf17c5e78cdece78bdbf3dbfffffffff0282b3ba00000000001976a9142d9bab5a561213b3a7ba7631c4b9d59194dcf4bb88ac8672020c0000000017a914486ce63d83e8406016f310cd321d36bbdd10d41287040047304402202ddaafe6d4f55e38683738dd312fc93bbc319f9b7fc294180feee4dae86a806802204afa92a3852b672da426b3b603f7cc2c3dceda90c4725d4509a03e3fae14b9d20147304402205dc1b3c830f0fe4fce218fb414f465c2171f22e9185d0e06382ae39e38fc0e60022040f423cf837aa2bdd0ff5ef1c4cb810b10cc825328ccb9a3de1132f780019b390147522102611be09a0c6a571c8f68adb2481e938888756d93d4ee5b670f08c16e939b7f1a21022cc7a96a72ef014bf078a6489644e2edb05bb216d30b4f28363b637fe4463fd652ae00000000"
    }, 
    {
      "txid": "6d6a7c0e763f79e3e439cce2f3588fa6296f741a4d854571a79ff2a1ea57da4b",
      "hash": "017ceb37c704398f08dafbb477f2b502135326987ea14ea14a06222c7ce930de",
      "version": 1,
      "size": 373,
      "vsize": 208,
      "locktime": 0,
      "vin": [
        {
          "txid": "0881816ae00b0fcc5d75d4692ef076af42007485f050e65ea27f21efda702266",
          "vout": 1,
          "scriptSig": {
            "asm": "00207975c3f0d1bf8b6205e1c664d703c93d68409676bf17c5e78cdece78bdbf3dbf",
            "hex": "2200207975c3f0d1bf8b6205e1c664d703c93d68409676bf17c5e78cdece78bdbf3dbf"
          },
          "txinwitness": [
            "", 
            "3044022022800a2eb5b45b428d0ed30946a00c0d80fcbcecd40b43c48a7a1f13c16aec6702205f3b2f278ec8e62a0cb46046e77113ea62e719394f476cb1a3bdc5a3714a2f4a01", 
            "3045022100e257608ba55bfc240d948ae967bb0c4cd60ae45a793c9daa6eba1f643597d0e1022027331f416c61be0c7243367be95ba5ba4b303a2339fe3752e7553e639812808101", 
            "522102611be09a0c6a571c8f68adb2481e938888756d93d4ee5b670f08c16e939b7f1a21022cc7a96a72ef014bf078a6489644e2edb05bb216d30b4f28363b637fe4463fd652ae"
          ],
          "sequence": 4294967295
        }
      ],
      "vout": [
        {
          "value": 0.00572400,
          "n": 0,
          "scriptPubKey": {
            "asm": "OP_DUP OP_HASH160 640d1733e73850fd5e8580d1a713648f9c4220bf OP_EQUALVERIFY OP_CHECKSIG",
            "hex": "76a914640d1733e73850fd5e8580d1a713648f9c4220bf88ac",
            "reqSigs": 1,
            "type": "pubkeyhash",
            "addresses": [
              "LULyWx1wNKgt1Tgp3Ltsei2zRNwmDXfVSC"
            ]
          }
        }, 
        {
          "value": 2.09882118,
          "n": 1,
          "scriptPubKey": {
            "asm": "OP_HASH160 486ce63d83e8406016f310cd321d36bbdd10d412 OP_EQUAL",
            "hex": "a914486ce63d83e8406016f310cd321d36bbdd10d41287",
            "reqSigs": 1,
            "type": "scripthash",
            "addresses": [
              "MEW7Lhk6QzBLmCNp5pmpYzwv1KAcKYsSQp"
            ]
          }
        }
      ],
      "hex": "01000000000101662270daef217fa25ee650f085740042af76f02e69d4755dcc0f0be06a81810801000000232200207975c3f0d1bf8b6205e1c664d703c93d68409676bf17c5e78cdece78bdbf3dbfffffffff02f0bb0800000000001976a914640d1733e73850fd5e8580d1a713648f9c4220bf88ac068c820c0000000017a914486ce63d83e8406016f310cd321d36bbdd10d412870400473044022022800a2eb5b45b428d0ed30946a00c0d80fcbcecd40b43c48a7a1f13c16aec6702205f3b2f278ec8e62a0cb46046e77113ea62e719394f476cb1a3bdc5a3714a2f4a01483045022100e257608ba55bfc240d948ae967bb0c4cd60ae45a793c9daa6eba1f643597d0e1022027331f416c61be0c7243367be95ba5ba4b303a2339fe3752e7553e63981280810147522102611be09a0c6a571c8f68adb2481e938888756d93d4ee5b670f08c16e939b7f1a21022cc7a96a72ef014bf078a6489644e2edb05bb216d30b4f28363b637fe4463fd652ae00000000"
    }, 
    {
      "txid": "618d3fde8decf9c7adc94b8c185e0b9fa3e18d6d2a517950bbd295aac791bdbe",
      "hash": "5e5f10eb2328c5dd589fef13d107ba17036dbf7c7fe9819581669de664960ed2",
      "version": 1,
      "size": 374,
      "vsize": 208,
      "locktime": 0,
      "vin": [
        {
          "txid": "5819e013c28dabf0a0ca34a4940dbccbdb2f54fe7511f533a4a60474ddd9710d",
          "vout": 1,
          "scriptSig": {
            "asm": "00207975c3f0d1bf8b6205e1c664d703c93d68409676bf17c5e78cdece78bdbf3dbf",
            "hex": "2200207975c3f0d1bf8b6205e1c664d703c93d68409676bf17c5e78cdece78bdbf3dbf"
          },
          "txinwitness": [
            "", 
            "304502210088befe0af5ed1e578cedef47c077683845ca37cf47313fccee7bcad309dc2a8f0220636f3bfd16db4e8c1360431ce596763c2be2522e06143e30c918321a3006942d01", 
            "3045022100b8c1da6d470856068eaf645520e4f5243867c47cee920e7cc925582a0eadd623022031eca18a37b59bfc53e59e0dd31be60d4a854496cea85167fbe018bb0216987f01", 
            "522102611be09a0c6a571c8f68adb2481e938888756d93d4ee5b670f08c16e939b7f1a21022cc7a96a72ef014bf078a6489644e2edb05bb216d30b4f28363b637fe4463fd652ae"
          ],
          "sequence": 4294967295
        }
      ],
      "vout": [
        {
          "value": 0.32035504,
          "n": 0,
          "scriptPubKey": {
            "asm": "OP_DUP OP_HASH160 23ccc1aa62d54aa947ec9a9275fdb65626f37441 OP_EQUALVERIFY OP_CHECKSIG",
            "hex": "76a91423ccc1aa62d54aa947ec9a9275fdb65626f3744188ac",
            "reqSigs": 1,
            "type": "pubkeyhash",
            "addresses": [
              "LNVFCf9Zq4yMfPhMUzmzn4JfmFxK7BSeoh"
            ]
          }
        }, 
        {
          "value": 10.72195106,
          "n": 1,
          "scriptPubKey": {
            "asm": "OP_HASH160 486ce63d83e8406016f310cd321d36bbdd10d412 OP_EQUAL",
            "hex": "a914486ce63d83e8406016f310cd321d36bbdd10d41287",
            "reqSigs": 1,
            "type": "scripthash",
            "addresses": [
              "MEW7Lhk6QzBLmCNp5pmpYzwv1KAcKYsSQp"
            ]
          }
        }
      ],
      "hex": "010000000001010d71d9dd7404a6a433f51175fe542fdbcbbc0d94a434caa0f0ab8dc213e0195801000000232200207975c3f0d1bf8b6205e1c664d703c93d68409676bf17c5e78cdece78bdbf3dbfffffffff02b0d2e801000000001976a91423ccc1aa62d54aa947ec9a9275fdb65626f3744188ac2266e83f0000000017a914486ce63d83e8406016f310cd321d36bbdd10d41287040048304502210088befe0af5ed1e578cedef47c077683845ca37cf47313fccee7bcad309dc2a8f0220636f3bfd16db4e8c1360431ce596763c2be2522e06143e30c918321a3006942d01483045022100b8c1da6d470856068eaf645520e4f5243867c47cee920e7cc925582a0eadd623022031eca18a37b59bfc53e59e0dd31be60d4a854496cea85167fbe018bb0216987f0147522102611be09a0c6a571c8f68adb2481e938888756d93d4ee5b670f08c16e939b7f1a21022cc7a96a72ef014bf078a6489644e2edb05bb216d30b4f28363b637fe4463fd652ae00000000"
    }, 
    {
      "txid": "2342b590c0cf8311f251a1d033245dd396b1369e4d840085de02ff423a631768",
      "hash": "2342b590c0cf8311f251a1d033245dd396b1369e4d840085de02ff423a631768",
      "version": 1,
      "size": 223,
      "vsize": 223,
      "locktime": 0,
      "vin": [
        {
          "txid": "97320c026eafe6773d37a2430ec053ec979b5cdd59a0092d32795a375ce54da6",
          "vout": 0,
          "scriptSig": {
            "asm": "304402207e6cf1ed43593bf97c4c943d6125405d9265dece790944ade37a66b3f43bf07b0220650e7b3f2f0b8599ad0d5bfb9d83161b8c6ad35fa3045a0899f49c246a061342[ALL] 020283103102328680b344e23ad12e8028f9d6e49cfd71e2611fea28b68ce6a160",
            "hex": "47304402207e6cf1ed43593bf97c4c943d6125405d9265dece790944ade37a66b3f43bf07b0220650e7b3f2f0b8599ad0d5bfb9d83161b8c6ad35fa3045a0899f49c246a0613420121020283103102328680b344e23ad12e8028f9d6e49cfd71e2611fea28b68ce6a160"
          },
          "sequence": 4294967295
        }
      ],
      "vout": [
        {
          "value": 0.18800000,
          "n": 0,
          "scriptPubKey": {
            "asm": "OP_HASH160 35e4f781c069bde949cad6c161445086ff65c052 OP_EQUAL",
            "hex": "a91435e4f781c069bde949cad6c161445086ff65c05287",
            "reqSigs": 1,
            "type": "scripthash",
            "addresses": [
              "MCp8LVRznFTxWJVc4kKWiDCgSgnXwepB1z"
            ]
          }
        }, 
        {
          "value": 0.00070019,
          "n": 1,
          "scriptPubKey": {
            "asm": "OP_DUP OP_HASH160 4624a897a6b87987eb3a35cd5bfdc9883479d1d6 OP_EQUALVERIFY OP_CHECKSIG",
            "hex": "76a9144624a897a6b87987eb3a35cd5bfdc9883479d1d688ac",
            "reqSigs": 1,
            "type": "pubkeyhash",
            "addresses": [
              "LRcqUisqDUpA3yJng2zwdQHNrbYfuYMFUQ"
            ]
          }
        }
      ],
      "hex": "0100000001a64de55c375a79322d09a059dd5c9b97ec53c00e43a2373d77e6af6e020c3297000000006a47304402207e6cf1ed43593bf97c4c943d6125405d9265dece790944ade37a66b3f43bf07b0220650e7b3f2f0b8599ad0d5bfb9d83161b8c6ad35fa3045a0899f49c246a0613420121020283103102328680b344e23ad12e8028f9d6e49cfd71e2611fea28b68ce6a160ffffffff0280dd1e010000000017a91435e4f781c069bde949cad6c161445086ff65c0528783110100000000001976a9144624a897a6b87987eb3a35cd5bfdc9883479d1d688ac00000000"
    }, 
    {
      "txid": "bb4c6c8902bf83ea0c8fb017b9680f3b4e06736cfa3a345e1da9a923d6b38880",
      "hash": "bb4c6c8902bf83ea0c8fb017b9680f3b4e06736cfa3a345e1da9a923d6b38880",
      "version": 1,
      "size": 669,
      "vsize": 669,
      "locktime": 0,
      "vin": [
        {
          "txid": "c7e8b6b8b6bd4abfac5674bf4fc4678ffa95cc4b614973f948b9b0fbbd9096b1",
          "vout": 0,
          "scriptSig": {
            "asm": "304402203f70f0f2b4c18472d2e052ae8060de86664c25fe2898cb458e64041e3539befe0220176237cd91ad472b86b38279a2a36b9374b2d4fce71a14b3b9483611eaa3b075[ALL] 03a06c376743a85ba229edc5559d337831383d8a1a5f27f5821daab9b7e2245f8b",
            "hex": "47304402203f70f0f2b4c18472d2e052ae8060de86664c25fe2898cb458e64041e3539befe0220176237cd91ad472b86b38279a2a36b9374b2d4fce71a14b3b9483611eaa3b075012103a06c376743a85ba229edc5559d337831383d8a1a5f27f5821daab9b7e2245f8b"
          },
          "sequence": 4294967295
        }, 
        {
          "txid": "9005a9b19961642639461c6b816a97c406d694e49f5492db04c88025ad8c653b",
          "vout": 3,
          "scriptSig": {
            "asm": "3045022100c105150e46822471e0ca90b91160a732e87ec9d3e428734a91f65b878ef6d75402206d03e016a6d45ee95ebb961a31a77b567ab92615050a826113238fa5bf663102[ALL] 03e111a1a97fe1523198d9b74132dad92a19b1760cd1b5654a61e79aca84d0ea4d",
            "hex": "483045022100c105150e46822471e0ca90b91160a732e87ec9d3e428734a91f65b878ef6d75402206d03e016a6d45ee95ebb961a31a77b567ab92615050a826113238fa5bf663102012103e111a1a97fe1523198d9b74132dad92a19b1760cd1b5654a61e79aca84d0ea4d"
          },
          "sequence": 4294967295
        }, 
        {
          "txid": "84d9c50dd51b6fb53afef20c2695e71f99d95f3d38f647ca7664b715ab57668f",
          "vout": 0,
          "scriptSig": {
            "asm": "3045022100f6bdf02cd73b4cedf2c2e5b9c3be9ade8d8e17b54123194acda4618e24f8cade022065d20cf679bc2bd94350daddb63ed9f7c4e80d7bf2c019943de3bd12257eb7e8[ALL] 037f94cc7395164224d7cb0a6c7ac9218e0bb8b7ec934d779cfc956ce1240be71c",
            "hex": "483045022100f6bdf02cd73b4cedf2c2e5b9c3be9ade8d8e17b54123194acda4618e24f8cade022065d20cf679bc2bd94350daddb63ed9f7c4e80d7bf2c019943de3bd12257eb7e80121037f94cc7395164224d7cb0a6c7ac9218e0bb8b7ec934d779cfc956ce1240be71c"
          },
          "sequence": 4294967295
        }, 
        {
          "txid": "931ddebe936f914ef52b526a0bc7966a32691156c378a0f045a35d75667518e1",
          "vout": 1,
          "scriptSig": {
            "asm": "3045022100a842e4efecbc4041ee7503245bf35f8d9ad10a2796a3ebf7c5397f37d607903502207d5b9f4cdf6118ae0a59b865b486955579a478c2c09dadac7917a75da0a895a4[ALL] 0263aa5eed4a67b31dcc213f7a7552e85b9e8afa459298fb952669f130c540ab5a",
            "hex": "483045022100a842e4efecbc4041ee7503245bf35f8d9ad10a2796a3ebf7c5397f37d607903502207d5b9f4cdf6118ae0a59b865b486955579a478c2c09dadac7917a75da0a895a401210263aa5eed4a67b31dcc213f7a7552e85b9e8afa459298fb952669f130c540ab5a"
          },
          "sequence": 4294967295
        }
      ],
      "vout": [
        {
          "value": 30.00000000,
          "n": 0,
          "scriptPubKey": {
            "asm": "OP_DUP OP_HASH160 968e73d9514f461422adef4da9a20306d88c5551 OP_EQUALVERIFY OP_CHECKSIG",
            "hex": "76a914968e73d9514f461422adef4da9a20306d88c555188ac",
            "reqSigs": 1,
            "type": "pubkeyhash",
            "addresses": [
              "LYx2GmDhB7vUKCs3mBd5zH76Ud36bLeLyR"
            ]
          }
        }, 
        {
          "value": 52.02999593,
          "n": 1,
          "scriptPubKey": {
            "asm": "OP_DUP OP_HASH160 576cdebb569dd1ea33ab9d32f62c342b92d02615 OP_EQUALVERIFY OP_CHECKSIG",
            "hex": "76a914576cdebb569dd1ea33ab9d32f62c342b92d0261588ac",
            "reqSigs": 1,
            "type": "pubkeyhash",
            "addresses": [
              "LTCDUKqpMH1chyDnRko33EQS6eRpg5AKnb"
            ]
          }
        }
      ],
      "hex": "0100000004b19690bdfbb0b948f97349614bcc95fa8f67c44fbf7456acbf4abdb6b8b6e8c7000000006a47304402203f70f0f2b4c18472d2e052ae8060de86664c25fe2898cb458e64041e3539befe0220176237cd91ad472b86b38279a2a36b9374b2d4fce71a14b3b9483611eaa3b075012103a06c376743a85ba229edc5559d337831383d8a1a5f27f5821daab9b7e2245f8bffffffff3b658cad2580c804db92549fe494d606c4976a816b1c463926646199b1a90590030000006b483045022100c105150e46822471e0ca90b91160a732e87ec9d3e428734a91f65b878ef6d75402206d03e016a6d45ee95ebb961a31a77b567ab92615050a826113238fa5bf663102012103e111a1a97fe1523198d9b74132dad92a19b1760cd1b5654a61e79aca84d0ea4dffffffff8f6657ab15b76476ca47f6383d5fd9991fe795260cf2fe3ab56f1bd50dc5d984000000006b483045022100f6bdf02cd73b4cedf2c2e5b9c3be9ade8d8e17b54123194acda4618e24f8cade022065d20cf679bc2bd94350daddb63ed9f7c4e80d7bf2c019943de3bd12257eb7e80121037f94cc7395164224d7cb0a6c7ac9218e0bb8b7ec934d779cfc956ce1240be71cffffffffe1187566755da345f0a078c3561169326a96c70b6a522bf54e916f93bede1d93010000006b483045022100a842e4efecbc4041ee7503245bf35f8d9ad10a2796a3ebf7c5397f37d607903502207d5b9f4cdf6118ae0a59b865b486955579a478c2c09dadac7917a75da0a895a401210263aa5eed4a67b31dcc213f7a7552e85b9e8afa459298fb952669f130c540ab5affffffff02005ed0b2000000001976a914968e73d9514f461422adef4da9a20306d88c555188ac29791f36010000001976a914576cdebb569dd1ea33ab9d32f62c342b92d0261588ac00000000"
    }
  ],
  "time": 1517404219,
  "mediantime": 1517403564,
  "nonce": 3291312658,
  "bits": "1a042eae",
  "difficulty": 4011378.762614286,
  "chainwork": "000000000000000000000000000000000000000000000034ca1a7354f3038aae",
  "previousblockhash": "bbe4b632a1ff5b5288bc98ef9d8b8e9e795c159a3982d188e49412048809051a",
  "nextblockhash": "0d35b926c03e577df9745930abb8c1bf8bab40f82bbbf89d5b4ac799ed5b5f30"
}
