{
  "hash": "61b1fda6bf8df426f21b950f0053baea7652945f60e88fa3ed5d93a0ae050b48",
  "confirmations": 2129,
  "strippedsize": 2754,
  "size": 3045,
  "weight": 11307,
  "height": 1358865,
  "version": 536870912,
  "versionHex": "20000000",
  "merkleroot": "dab7e8198dc8cde718a602d73628a1c0811d0568df11e0bebda172e51a59ac7f",
  "tx": [
    {
      "txid": "0b0b59461633279d77bbb62b726a6ab6ccababd81bb6bb621afcf41d3f82f260",
      "hash": "1734a7ccad34a3efe6eccdb809bd04ccc98d04b4ce81edde2348fd62556a7edf",
      "version": 1,
      "size": 236,
      "vsize": 209,
      "locktime": 0,
      "vin": [
        {
          "coinbase": "0311bc14045a6eaea72cfabe6d6dbbc1c7010462e86850c9a5b6a36d7f3807660fbef955067dbad189c5d07d484c4000000000000000042f4c502f0822005b8636000000",
          "sequence": 4294967295
        }
      ],
      "vout": [
        {
          "value": 25.01037844,
          "n": 0,
          "scriptPubKey": {
            "asm": "OP_DUP OP_HASH160 57757ed2ecf2052ff3126c397aca7defb9ca2cec OP_EQUALVERIFY OP_CHECKSIG",
            "hex": "76a91457757ed2ecf2052ff3126c397aca7defb9ca2cec88ac",
            "reqSigs": 1,
            "type": "pubkeyhash",
            "addresses": [
              "LTCPodGk5FwcJaRzH9yKnwicxzFUbxp6tN"
            ]
          }
        }, 
        {
          "value": 0.00000000,
          "n": 1,
          "scriptPubKey": {
            "asm": "OP_RETURN aa21a9ed3c39e753d1f2102aee91fcd1bfbeeaaafa48112d5ce9e9e1db5f789d3856a03e",
            "hex": "6a24aa21a9ed3c39e753d1f2102aee91fcd1bfbeeaaafa48112d5ce9e9e1db5f789d3856a03e",
            "type": "nulldata"
          }
        }
      ],
      "hex": "010000000001010000000000000000000000000000000000000000000000000000000000000000ffffffff440311bc14045a6eaea72cfabe6d6dbbc1c7010462e86850c9a5b6a36d7f3807660fbef955067dbad189c5d07d484c4000000000000000042f4c502f0822005b8636000000ffffffff0214cf1295000000001976a91457757ed2ecf2052ff3126c397aca7defb9ca2cec88ac0000000000000000266a24aa21a9ed3c39e753d1f2102aee91fcd1bfbeeaaafa48112d5ce9e9e1db5f789d3856a03e0120000000000000000000000000000000000000000000000000000000000000000000000000"
    }, 
    {
      "txid": "48b0dd7c5ed5e8d3393529bb2d9ff994439cc7756f9f6e303510874db35dba8c",
      "hash": "48b0dd7c5ed5e8d3393529bb2d9ff994439cc7756f9f6e303510874db35dba8c",
      "version": 1,
      "size": 338,
      "vsize": 338,
      "locktime": 0,
      "vin": [
        {
          "txid": "43110156ddbb04880fcca3ad665b30e8e6cdb7816add26ddca8ba4ed501ee143",
          "vout": 1,
          "scriptSig": {
            "asm": "304402203296d694e2ba02769980acb716b72ffada51781d982d6517b32056e61ea304f30220666aa2b19623ca6b9142ab93d849125dd5343d97b3c0374449c928e6b679eb45[ALL] 03675fea3eba08e3142038f21cd94fa031d80fad28a605954bff8a2236e21aa533",
            "hex": "47304402203296d694e2ba02769980acb716b72ffada51781d982d6517b32056e61ea304f30220666aa2b19623ca6b9142ab93d849125dd5343d97b3c0374449c928e6b679eb45012103675fea3eba08e3142038f21cd94fa031d80fad28a605954bff8a2236e21aa533"
          },
          "sequence": 4294967295
        }, 
        {
          "txid": "90085a24ab3b99c6693e6a58455af2ecceffb4623b12ef58c665c1c5f54c9d58",
          "vout": 0,
          "scriptSig": {
            "asm": "304402202b5c09201fdd72f857f2f1f9a34464548aa04595b9d970a473af5c7a18bf9730022059355352b8ac214d1b134b75aa3572f26bcb3b7f1412d2d13194d19fed87be4e[ALL] 03675fea3eba08e3142038f21cd94fa031d80fad28a605954bff8a2236e21aa533",
            "hex": "47304402202b5c09201fdd72f857f2f1f9a34464548aa04595b9d970a473af5c7a18bf9730022059355352b8ac214d1b134b75aa3572f26bcb3b7f1412d2d13194d19fed87be4e012103675fea3eba08e3142038f21cd94fa031d80fad28a605954bff8a2236e21aa533"
          },
          "sequence": 4294967295
        }
      ],
      "vout": [
        {
          "value": 39.15973300,
          "n": 0,
          "scriptPubKey": {
            "asm": "OP_DUP OP_HASH160 3e551a009500626427712508dd06c1eb8434714b OP_EQUALVERIFY OP_CHECKSIG",
            "hex": "76a9143e551a009500626427712508dd06c1eb8434714b88ac",
            "reqSigs": 1,
            "type": "pubkeyhash",
            "addresses": [
              "LQuY74rnUtsxwDWFcquGehEy74B4GShBGZ"
            ]
          }
        }
      ],
      "hex": "010000000243e11e50eda48bcadd26dd6a81b7cde6e8305b66ada3cc0f8804bbdd56011143010000006a47304402203296d694e2ba02769980acb716b72ffada51781d982d6517b32056e61ea304f30220666aa2b19623ca6b9142ab93d849125dd5343d97b3c0374449c928e6b679eb45012103675fea3eba08e3142038f21cd94fa031d80fad28a605954bff8a2236e21aa533ffffffff589d4cf5c5c165c658ef123b62b4ffceecf25a45586a3e69c6993bab245a0890000000006a47304402202b5c09201fdd72f857f2f1f9a34464548aa04595b9d970a473af5c7a18bf9730022059355352b8ac214d1b134b75aa3572f26bcb3b7f1412d2d13194d19fed87be4e012103675fea3eba08e3142038f21cd94fa031d80fad28a605954bff8a2236e21aa533ffffffff01b40269e9000000001976a9143e551a009500626427712508dd06c1eb8434714b88ac00000000"
    }, 
    {
      "txid": "4dc9e1e6f80b7b2e3849b919fb1f1d57957fcead8d2914c20fcce3ff796f4f8d",
      "hash": "4dc9e1e6f80b7b2e3849b919fb1f1d57957fcead8d2914c20fcce3ff796f4f8d",
      "version": 1,
      "size": 192,
      "vsize": 192,
      "locktime": 0,
      "vin": [
        {
          "txid": "edd332056b432ea33279f26d9a74dc0a153e53d8b8670006f37698f533466236",
          "vout": 0,
          "scriptSig": {
            "asm": "3045022100d96e0e29bb1ed11e02a241e294810204104bb6801497d77a998d67bcc18522bb02205222cd2e4b65160b5896c40eade273d971b6cbbaa489f055435107fbc58ad4dc[ALL] 02dff80b777b458a52cd3ab3f22f4927b93a0f660cc077ed51cadd48e950a2c8d6",
            "hex": "483045022100d96e0e29bb1ed11e02a241e294810204104bb6801497d77a998d67bcc18522bb02205222cd2e4b65160b5896c40eade273d971b6cbbaa489f055435107fbc58ad4dc012102dff80b777b458a52cd3ab3f22f4927b93a0f660cc077ed51cadd48e950a2c8d6"
          },
          "sequence": 4294967295
        }
      ],
      "vout": [
        {
          "value": 0.04766123,
          "n": 0,
          "scriptPubKey": {
            "asm": "OP_DUP OP_HASH160 cdc4739c037db705872c058c6964e2c342d6a92e OP_EQUALVERIFY OP_CHECKSIG",
            "hex": "76a914cdc4739c037db705872c058c6964e2c342d6a92e88ac",
            "reqSigs": 1,
            "type": "pubkeyhash",
            "addresses": [
              "Ldyx8EZfn1CcGR3cMHrWBo36ST9KaVAuhu"
            ]
          }
        }
      ],
      "hex": "010000000136624633f59876f3060067b8d8533e150adc749a6df27932a32e436b0532d3ed000000006b483045022100d96e0e29bb1ed11e02a241e294810204104bb6801497d77a998d67bcc18522bb02205222cd2e4b65160b5896c40eade273d971b6cbbaa489f055435107fbc58ad4dc012102dff80b777b458a52cd3ab3f22f4927b93a0f660cc077ed51cadd48e950a2c8d6ffffffff01abb94800000000001976a914cdc4739c037db705872c058c6964e2c342d6a92e88ac00000000"
    }, 
    {
      "txid": "0e898b24769f486edb96b1a4481cbd5ba093ebdb4be05dd7da7b594cea94c91f",
      "hash": "0e898b24769f486edb96b1a4481cbd5ba093ebdb4be05dd7da7b594cea94c91f",
      "version": 1,
      "size": 334,
      "vsize": 334,
      "locktime": 0,
      "vin": [
        {
          "txid": "8e0c9f18eb5b7834768b7f77b01d857ea9b408f192da1ae0aa5b270e648da348",
          "vout": 1,
          "scriptSig": {
            "asm": "0 30440220714d035ba28e7e43f566b3bc77aa6550766cc5c51c240294cd465d08ca82fa3b02200bc0d0ea9634295e5390ac72ce852d9f19b32afb5fd7da860fb6bd65a40c49eb[ALL] 3044022059bcc8f05e1cf1933036c6bb3f245bf989ba4d51ea9c562ea394a341a47fd20e022068134e90eeeed27423d42590e23c52a341bdad7db3d868f633e664b1d6714090[ALL] 522102a618de23e72ad0b9e998bb2921f510cb4e078dcfe13c48cae85fec0587718f78210235de611525feac0afecdd7faefde5b645b007e2de1e7e9477ff773a9529a435e52ae",
            "hex": "004730440220714d035ba28e7e43f566b3bc77aa6550766cc5c51c240294cd465d08ca82fa3b02200bc0d0ea9634295e5390ac72ce852d9f19b32afb5fd7da860fb6bd65a40c49eb01473044022059bcc8f05e1cf1933036c6bb3f245bf989ba4d51ea9c562ea394a341a47fd20e022068134e90eeeed27423d42590e23c52a341bdad7db3d868f633e664b1d67140900147522102a618de23e72ad0b9e998bb2921f510cb4e078dcfe13c48cae85fec0587718f78210235de611525feac0afecdd7faefde5b645b007e2de1e7e9477ff773a9529a435e52ae"
          },
          "sequence": 4294967295
        }
      ],
      "vout": [
        {
          "value": 0.09581756,
          "n": 0,
          "scriptPubKey": {
            "asm": "OP_DUP OP_HASH160 a9e4ea14c19303c9c95495a03e7a9cbf78fa97a1 OP_EQUALVERIFY OP_CHECKSIG",
            "hex": "76a914a9e4ea14c19303c9c95495a03e7a9cbf78fa97a188ac",
            "reqSigs": 1,
            "type": "pubkeyhash",
            "addresses": [
              "LaiGgt8B6R2CnZDHdUqaXjRFNZnbLBsZ9y"
            ]
          }
        }, 
        {
          "value": 46.78543240,
          "n": 1,
          "scriptPubKey": {
            "asm": "OP_HASH160 8bfc0bc6105a628bd82effe05523aea40f0eb873 OP_EQUAL",
            "hex": "a9148bfc0bc6105a628bd82effe05523aea40f0eb87387",
            "reqSigs": 1,
            "type": "scripthash",
            "addresses": [
              "MLfL6ZGHAz972E3kEmnAurRy8FnjCvjfab"
            ]
          }
        }
      ],
      "hex": "010000000148a38d640e275baae01ada92f108b4a97e851db0777f8b7634785beb189f0c8e01000000d9004730440220714d035ba28e7e43f566b3bc77aa6550766cc5c51c240294cd465d08ca82fa3b02200bc0d0ea9634295e5390ac72ce852d9f19b32afb5fd7da860fb6bd65a40c49eb01473044022059bcc8f05e1cf1933036c6bb3f245bf989ba4d51ea9c562ea394a341a47fd20e022068134e90eeeed27423d42590e23c52a341bdad7db3d868f633e664b1d67140900147522102a618de23e72ad0b9e998bb2921f510cb4e078dcfe13c48cae85fec0587718f78210235de611525feac0afecdd7faefde5b645b007e2de1e7e9477ff773a9529a435e52aeffffffff02bc349200000000001976a914a9e4ea14c19303c9c95495a03e7a9cbf78fa97a188ac88e7dc160100000017a9148bfc0bc6105a628bd82effe05523aea40f0eb8738700000000"
    }, 
    {
      "txid": "1dae1538cbb37008f82777a1f791a5935be7b5e6bde15850c4640339d97d450c",
      "hash": "1dae1538cbb37008f82777a1f791a5935be7b5e6bde15850c4640339d97d450c",
      "version": 1,
      "size": 335,
      "vsize": 335,
      "locktime": 0,
      "vin": [
        {
          "txid": "46db5891a2b7a3aa16d9e57ac3e5483115fbe7a702d1a393c7f2cf57b7299480",
          "vout": 1,
          "scriptSig": {
            "asm": "0 30450221009323e63a4af699e9e4de3948c2e5fd499e523584b6a94c37f2791a7f350dd11802206db33799b0d215f01f8faf3b6be8c2642167b6b91aa7c174ff667ae93b84e203[ALL] 304402202608be328d440b8686e4228a4741dfbfe2344bbeff07feb2b7ca4f43af52147702202ca7d3ba2029650036423ba77502afad2823adac38fb6d68fb1a23ed8852d96c[ALL] 522102f77ec37a042ba4e5e6aef7760398bf59b87ac4c5dee30a2fb8798e9630d4916e210276b93401dc495b28592f66411a7c9093b468f8678db51144fc6a36f550d94aa952ae",
            "hex": "004830450221009323e63a4af699e9e4de3948c2e5fd499e523584b6a94c37f2791a7f350dd11802206db33799b0d215f01f8faf3b6be8c2642167b6b91aa7c174ff667ae93b84e2030147304402202608be328d440b8686e4228a4741dfbfe2344bbeff07feb2b7ca4f43af52147702202ca7d3ba2029650036423ba77502afad2823adac38fb6d68fb1a23ed8852d96c0147522102f77ec37a042ba4e5e6aef7760398bf59b87ac4c5dee30a2fb8798e9630d4916e210276b93401dc495b28592f66411a7c9093b468f8678db51144fc6a36f550d94aa952ae"
          },
          "sequence": 4294967295
        }
      ],
      "vout": [
        {
          "value": 0.12826400,
          "n": 0,
          "scriptPubKey": {
            "asm": "OP_DUP OP_HASH160 fd06c00cddce1f904ce989dd619eda92fb97462d OP_EQUALVERIFY OP_CHECKSIG",
            "hex": "76a914fd06c00cddce1f904ce989dd619eda92fb97462d88ac",
            "reqSigs": 1,
            "type": "pubkeyhash",
            "addresses": [
              "LiHqJkv5AfC2FhUh9ZC8hPcAr9xLP9vt8z"
            ]
          }
        }, 
        {
          "value": 10.53320900,
          "n": 1,
          "scriptPubKey": {
            "asm": "OP_HASH160 75b77316f8d91ff71fb2819115d1b6b9e80ccee9 OP_EQUAL",
            "hex": "a91475b77316f8d91ff71fb2819115d1b6b9e80ccee987",
            "reqSigs": 1,
            "type": "scripthash",
            "addresses": [
              "MJdb4B3BMDrfpB1FpKsPYQ1tDHdkNa1oLB"
            ]
          }
        }
      ],
      "hex": "0100000001809429b757cff2c793a3d102a7e7fb153148e5c37ae5d916aaa3b7a29158db4601000000da004830450221009323e63a4af699e9e4de3948c2e5fd499e523584b6a94c37f2791a7f350dd11802206db33799b0d215f01f8faf3b6be8c2642167b6b91aa7c174ff667ae93b84e2030147304402202608be328d440b8686e4228a4741dfbfe2344bbeff07feb2b7ca4f43af52147702202ca7d3ba2029650036423ba77502afad2823adac38fb6d68fb1a23ed8852d96c0147522102f77ec37a042ba4e5e6aef7760398bf59b87ac4c5dee30a2fb8798e9630d4916e210276b93401dc495b28592f66411a7c9093b468f8678db51144fc6a36f550d94aa952aeffffffff0220b7c300000000001976a914fd06c00cddce1f904ce989dd619eda92fb97462d88acc466c83e0000000017a91475b77316f8d91ff71fb2819115d1b6b9e80ccee98700000000"
    }, 
    {
      "txid": "f2022b336165c253e5ae6fb379351014bddd6763803d45d8cf57d82d29085236",
      "hash": "ae42fd69d89b606ddd6c4eaeda834b6ae19b3cf4643f9ce32343eaf16b4978ac",
      "version": 1,
      "size": 405,
      "vsize": 214,
      "locktime": 0,
      "vin": [
        {
          "txid": "2949fa7974c703c43724a03030acb1334eab646c01010f83ea1e41d179f96fa8",
          "vout": 0,
          "scriptSig": {
            "asm": "0020bcf9f822194145acea0f3235f4107b5bf1a91b6b9f8489f63bf79ec29b360913",
            "hex": "220020bcf9f822194145acea0f3235f4107b5bf1a91b6b9f8489f63bf79ec29b360913"
          },
          "txinwitness": [
            "", 
            "30440220749ba03bc41ca4e38a38818bf155f84d6fbf86bb11bf59408e31ee290194fc76022048de526ed95ce4fb0887ee65189011bd7f5f15efa8e5377cc367a04cdf6d977701", 
            "3045022100e0f5165702d5281b631552495b92bca365cc69c75d5c2f198b21ebaa666d10f402203c43497e9a74d6a7ea852cfb00837c9624ac78943439e671b855684466f8848601", 
            "5221026c8f72b9e63db63907115e65d4da86eaae595b22fdc85ec75301bb4adbf203582103806535be3e3920e5eedee92de5714188fd6a784f2bf7b04f87de0b9c3ae1ecdb21024b23bfdce2afcae7e28c42f7f79aa100f22931712c52d7414a526ba494d44a2553ae"
          ],
          "sequence": 4294967295
        }
      ],
      "vout": [
        {
          "value": 0.01089914,
          "n": 0,
          "scriptPubKey": {
            "asm": "OP_HASH160 30897cc6c9d69f6a2c2f1c651d51f22219f1a4f6 OP_EQUAL",
            "hex": "a91430897cc6c9d69f6a2c2f1c651d51f22219f1a4f687",
            "reqSigs": 1,
            "type": "scripthash",
            "addresses": [
              "MCKoNRvwxc3gPLTk3UTCpaxRuiHURQD1E9"
            ]
          }
        }, 
        {
          "value": 0.01033634,
          "n": 1,
          "scriptPubKey": {
            "asm": "OP_HASH160 bba08663202e8fac43d15a553e209406eb6e4242 OP_EQUAL",
            "hex": "a914bba08663202e8fac43d15a553e209406eb6e424287",
            "reqSigs": 1,
            "type": "scripthash",
            "addresses": [
              "MR1Etmhi6W9pa1XpjZjEgJoaqqpzgcipY7"
            ]
          }
        }
      ],
      "hex": "01000000000101a86ff979d1411eea830f01016c64ab4e33b1ac3030a02437c403c77479fa49290000000023220020bcf9f822194145acea0f3235f4107b5bf1a91b6b9f8489f63bf79ec29b360913ffffffff027aa110000000000017a91430897cc6c9d69f6a2c2f1c651d51f22219f1a4f687a2c50f000000000017a914bba08663202e8fac43d15a553e209406eb6e42428704004730440220749ba03bc41ca4e38a38818bf155f84d6fbf86bb11bf59408e31ee290194fc76022048de526ed95ce4fb0887ee65189011bd7f5f15efa8e5377cc367a04cdf6d977701483045022100e0f5165702d5281b631552495b92bca365cc69c75d5c2f198b21ebaa666d10f402203c43497e9a74d6a7ea852cfb00837c9624ac78943439e671b855684466f8848601695221026c8f72b9e63db63907115e65d4da86eaae595b22fdc85ec75301bb4adbf203582103806535be3e3920e5eedee92de5714188fd6a784f2bf7b04f87de0b9c3ae1ecdb21024b23bfdce2afcae7e28c42f7f79aa100f22931712c52d7414a526ba494d44a2553ae00000000"
    }, 
    {
      "txid": "066765006f5c1a4b1b994db3c764079762bb443d867987231f818bc7bc6e7f0e",
      "hash": "066765006f5c1a4b1b994db3c764079762bb443d867987231f818bc7bc6e7f0e",
      "version": 1,
      "size": 225,
      "vsize": 225,
      "locktime": 0,
      "vin": [
        {
          "txid": "221c1053271d4ad4eb8eea186b21a22316521355888c66c47e629ea4571cdb10",
          "vout": 0,
          "scriptSig": {
            "asm": "3044022005d8258af959ec3a7c4de69f10a1721b642abaa696ef741bd2b3b6f679f7c48502206a390d2acdccfabdd00bbeafa33ee25f5fbc29ea0c19dc9befc280b247488954[ALL] 02082ba557d62d9a28ee032fb5c356190394c804321c2df9f6e83f8ed9ae9a44bf",
            "hex": "473044022005d8258af959ec3a7c4de69f10a1721b642abaa696ef741bd2b3b6f679f7c48502206a390d2acdccfabdd00bbeafa33ee25f5fbc29ea0c19dc9befc280b247488954012102082ba557d62d9a28ee032fb5c356190394c804321c2df9f6e83f8ed9ae9a44bf"
          },
          "sequence": 4294967295
        }
      ],
      "vout": [
        {
          "value": 0.04917444,
          "n": 0,
          "scriptPubKey": {
            "asm": "OP_DUP OP_HASH160 acab93ea2fa4b6723c131028bf2b2833441b4c95 OP_EQUALVERIFY OP_CHECKSIG",
            "hex": "76a914acab93ea2fa4b6723c131028bf2b2833441b4c9588ac",
            "reqSigs": 1,
            "type": "pubkeyhash",
            "addresses": [
              "Laxx2eBQRwJVGkJh8fKXrUTKzaJ9R4q7et"
            ]
          }
        }, 
        {
          "value": 0.00058038,
          "n": 1,
          "scriptPubKey": {
            "asm": "OP_DUP OP_HASH160 5f9e38d2cbfdf8119ca78a7a4c287aa7bbdf4e13 OP_EQUALVERIFY OP_CHECKSIG",
            "hex": "76a9145f9e38d2cbfdf8119ca78a7a4c287aa7bbdf4e1388ac",
            "reqSigs": 1,
            "type": "pubkeyhash",
            "addresses": [
              "LTwXztgV2CGrSDQnRDvX5wiREtuvXCfrwg"
            ]
          }
        }
      ],
      "hex": "010000000110db1c57a49e627ec4668c885513521623a2216b18ea8eebd44a1d2753101c22000000006a473044022005d8258af959ec3a7c4de69f10a1721b642abaa696ef741bd2b3b6f679f7c48502206a390d2acdccfabdd00bbeafa33ee25f5fbc29ea0c19dc9befc280b247488954012102082ba557d62d9a28ee032fb5c356190394c804321c2df9f6e83f8ed9ae9a44bfffffffff02c4084b00000000001976a914acab93ea2fa4b6723c131028bf2b2833441b4c9588acb6e20000000000001976a9145f9e38d2cbfdf8119ca78a7a4c287aa7bbdf4e1388ac00000000"
    }, 
    {
      "txid": "a19c223189b107c88e2e155661cac5194531214754e7a41b5bd4a3b94df7a230",
      "hash": "a19c223189b107c88e2e155661cac5194531214754e7a41b5bd4a3b94df7a230",
      "version": 1,
      "size": 225,
      "vsize": 225,
      "locktime": 0,
      "vin": [
        {
          "txid": "8b49585dace841f3ff33bef5286db19836e728660f062888738dfdccf7f49b5e",
          "vout": 0,
          "scriptSig": {
            "asm": "304402200c13b9d04f835469f5a035022a81472c6d5a052c21a2d372a9afa3503113ef1902207032e1bbe9dcdec6cd4bf74cc9f55d1f659f23ac9243b310fac025256b253e42[ALL] 036187cc65adc881bac54f90900c7971534dd1dc75d545a6e0d6ef9ba0320e8181",
            "hex": "47304402200c13b9d04f835469f5a035022a81472c6d5a052c21a2d372a9afa3503113ef1902207032e1bbe9dcdec6cd4bf74cc9f55d1f659f23ac9243b310fac025256b253e420121036187cc65adc881bac54f90900c7971534dd1dc75d545a6e0d6ef9ba0320e8181"
          },
          "sequence": 4294967295
        }
      ],
      "vout": [
        {
          "value": 0.52703000,
          "n": 0,
          "scriptPubKey": {
            "asm": "OP_DUP OP_HASH160 ba2dc02c3cdfe31d5150c99370ce1bbb954cdc4c OP_EQUALVERIFY OP_CHECKSIG",
            "hex": "76a914ba2dc02c3cdfe31d5150c99370ce1bbb954cdc4c88ac",
            "reqSigs": 1,
            "type": "pubkeyhash",
            "addresses": [
              "LcCNkhuaAJ6jUEcHE1ggVbwBCfDosu2pwr"
            ]
          }
        }, 
        {
          "value": 0.00559303,
          "n": 1,
          "scriptPubKey": {
            "asm": "OP_DUP OP_HASH160 c3eb2383d9903650d836a8dd9f6c4034871e3355 OP_EQUALVERIFY OP_CHECKSIG",
            "hex": "76a914c3eb2383d9903650d836a8dd9f6c4034871e335588ac",
            "reqSigs": 1,
            "type": "pubkeyhash",
            "addresses": [
              "Ld5siLz56PLSJdx3BKhXedzLoEojqBb5b9"
            ]
          }
        }
      ],
      "hex": "01000000015e9bf4f7ccfd8d738828060f6628e73698b16d28f5be33fff341e8ac5d58498b000000006a47304402200c13b9d04f835469f5a035022a81472c6d5a052c21a2d372a9afa3503113ef1902207032e1bbe9dcdec6cd4bf74cc9f55d1f659f23ac9243b310fac025256b253e420121036187cc65adc881bac54f90900c7971534dd1dc75d545a6e0d6ef9ba0320e8181ffffffff02182f2403000000001976a914ba2dc02c3cdfe31d5150c99370ce1bbb954cdc4c88acc7880800000000001976a914c3eb2383d9903650d836a8dd9f6c4034871e335588ac00000000"
    }, 
    {
      "txid": "8729729575c0400837f0242f27c34a4a2caef01c7c0a1150ef60d1060f9be483",
      "hash": "8729729575c0400837f0242f27c34a4a2caef01c7c0a1150ef60d1060f9be483",
      "version": 2,
      "size": 225,
      "vsize": 225,
      "locktime": 1358863,
      "vin": [
        {
          "txid": "072aa875d150de6ed632535d86a56d37382586c879e147814e219c0e558ce9b8",
          "vout": 1,
          "scriptSig": {
            "asm": "304402207b79d2645a8a89a8153d9281e8e200a99462b4206e5e7d8738e565e613079b5c02206504b05e9d21da3b0531b5669d5e39d873577017a8dded2631c1ef242987cbe4[ALL] 033a4720875218bb601c8e93ae96dc3c9b03029b5ab2ef4e44d94cd4e27aa06cee",
            "hex": "47304402207b79d2645a8a89a8153d9281e8e200a99462b4206e5e7d8738e565e613079b5c02206504b05e9d21da3b0531b5669d5e39d873577017a8dded2631c1ef242987cbe40121033a4720875218bb601c8e93ae96dc3c9b03029b5ab2ef4e44d94cd4e27aa06cee"
          },
          "sequence": 4294967294
        }
      ],
      "vout": [
        {
          "value": 2.48100000,
          "n": 0,
          "scriptPubKey": {
            "asm": "OP_DUP OP_HASH160 82d84b38e72c59d944cea31a382a5a5c102428c3 OP_EQUALVERIFY OP_CHECKSIG",
            "hex": "76a91482d84b38e72c59d944cea31a382a5a5c102428c388ac",
            "reqSigs": 1,
            "type": "pubkeyhash",
            "addresses": [
              "LX9oDWYfR3JinW1gvKPQw1uuMSnNL4ANg3"
            ]
          }
        }, 
        {
          "value": 22.24894252,
          "n": 1,
          "scriptPubKey": {
            "asm": "OP_DUP OP_HASH160 7b4e7414265c1133fbe9d0879679cdf0bb8a6e40 OP_EQUALVERIFY OP_CHECKSIG",
            "hex": "76a9147b4e7414265c1133fbe9d0879679cdf0bb8a6e4088ac",
            "reqSigs": 1,
            "type": "pubkeyhash",
            "addresses": [
              "LWTwMr9ci6rJwz2mm2bzE5MsG5jYdyfMbc"
            ]
          }
        }
      ],
      "hex": "0200000001b8e98c550e9c214e8147e179c8862538376da5865d5332d66ede50d175a82a07010000006a47304402207b79d2645a8a89a8153d9281e8e200a99462b4206e5e7d8738e565e613079b5c02206504b05e9d21da3b0531b5669d5e39d873577017a8dded2631c1ef242987cbe40121033a4720875218bb601c8e93ae96dc3c9b03029b5ab2ef4e44d94cd4e27aa06ceefeffffff02a0b4c90e000000001976a91482d84b38e72c59d944cea31a382a5a5c102428c388ac2c319d84000000001976a9147b4e7414265c1133fbe9d0879679cdf0bb8a6e4088ac0fbc1400"
    }, 
    {
      "txid": "ae7613262d3749164171d15488262a6eeb1e2a3ba6329308c402abdda4040295",
      "hash": "ae7613262d3749164171d15488262a6eeb1e2a3ba6329308c402abdda4040295",
      "version": 1,
      "size": 225,
      "vsize": 225,
      "locktime": 0,
      "vin": [
        {
          "txid": "45d2e613d8126554e8fcf2253002f747a7ba0c401d3105d5860371a5980b5dc7",
          "vout": 0,
          "scriptSig": {
            "asm": "30440220685ae8a1fda48cf5e1561638734cbd72c2fae49b3bab146571b252efaa91f8fb022050dcbd929e601aa40524ff1f9261ae456f004c54e9328f23b1555a310f094610[ALL] 0207e3347376b29c5e6afac102384f93a876bcbce1783c8f65991dde3183106ab3",
            "hex": "4730440220685ae8a1fda48cf5e1561638734cbd72c2fae49b3bab146571b252efaa91f8fb022050dcbd929e601aa40524ff1f9261ae456f004c54e9328f23b1555a310f09461001210207e3347376b29c5e6afac102384f93a876bcbce1783c8f65991dde3183106ab3"
          },
          "sequence": 4294967295
        }
      ],
      "vout": [
        {
          "value": 1.99977400,
          "n": 0,
          "scriptPubKey": {
            "asm": "OP_DUP OP_HASH160 a28f9bf14ce05dcbd39823a343243e21281decf8 OP_EQUALVERIFY OP_CHECKSIG",
            "hex": "76a914a28f9bf14ce05dcbd39823a343243e21281decf888ac",
            "reqSigs": 1,
            "type": "pubkeyhash",
            "addresses": [
              "La3VmRnvPLCwKZFtLvkk7UwhcN4w2KYdxb"
            ]
          }
        }, 
        {
          "value": 0.03900000,
          "n": 1,
          "scriptPubKey": {
            "asm": "OP_DUP OP_HASH160 50d65f20506b384052db999d180fafa82e06324d OP_EQUALVERIFY OP_CHECKSIG",
            "hex": "76a91450d65f20506b384052db999d180fafa82e06324d88ac",
            "reqSigs": 1,
            "type": "pubkeyhash",
            "addresses": [
              "LSbP8MjzDo7g52XGu311eWn6NYGNLACT35"
            ]
          }
        }
      ],
      "hex": "0100000001c75d0b98a5710386d505311d400cbaa747f7023025f2fce8546512d813e6d245000000006a4730440220685ae8a1fda48cf5e1561638734cbd72c2fae49b3bab146571b252efaa91f8fb022050dcbd929e601aa40524ff1f9261ae456f004c54e9328f23b1555a310f09461001210207e3347376b29c5e6afac102384f93a876bcbce1783c8f65991dde3183106ab3ffffffff02b869eb0b000000001976a914a28f9bf14ce05dcbd39823a343243e21281decf888ac60823b00000000001976a91450d65f20506b384052db999d180fafa82e06324d88ac00000000"
    }, 
    {
      "txid": "56bb2f9e4d0f4aa711734fec5e6d31b6ae2f6e9845f8042004b51fca7ddc8a20",
      "hash": "56bb2f9e4d0f4aa711734fec5e6d31b6ae2f6e9845f8042004b51fca7ddc8a20",
      "version": 2,
      "size": 224,
      "vsize": 224,
      "locktime": 1358863,
      "vin": [
        {
          "txid": "07eb597c70f10d5b76b17fccc0eca80511ef5daa04844647bcbb4d5fd9161817",
          "vout": 0,
          "scriptSig": {
            "asm": "3045022100a073e8f873e7f7d67ecb20c2c2e8950b619b823d0a1a4948291c1e58070097cb02206d2a72895d99e5f019e04192e4c7b98dbcbd45b2a135b6bdc8d47dc5e8cf2760[ALL] 0320cc8a483d3978b7c126456b14616a53dadc7c26ac6731827374f4430906b8a9",
            "hex": "483045022100a073e8f873e7f7d67ecb20c2c2e8950b619b823d0a1a4948291c1e58070097cb02206d2a72895d99e5f019e04192e4c7b98dbcbd45b2a135b6bdc8d47dc5e8cf276001210320cc8a483d3978b7c126456b14616a53dadc7c26ac6731827374f4430906b8a9"
          },
          "sequence": 4294967294
        }
      ],
      "vout": [
        {
          "value": 0.30645117,
          "n": 0,
          "scriptPubKey": {
            "asm": "OP_DUP OP_HASH160 1b1b342d3f1f8a92d1ebd9a4ee5e69829689194f OP_EQUALVERIFY OP_CHECKSIG",
            "hex": "76a9141b1b342d3f1f8a92d1ebd9a4ee5e69829689194f88ac",
            "reqSigs": 1,
            "type": "pubkeyhash",
            "addresses": [
              "LMhH6YfEgtDYtmyHDDPPB9Jkb1j6BSGWDZ"
            ]
          }
        }, 
        {
          "value": 0.25000000,
          "n": 1,
          "scriptPubKey": {
            "asm": "OP_HASH160 7c16eeb467095280e0574db4970f803357463725 OP_EQUAL",
            "hex": "a9147c16eeb467095280e0574db4970f80335746372587",
            "reqSigs": 1,
            "type": "scripthash",
            "addresses": [
              "MKDHVbEWkVtNmrHe3M98qhUVt8TgDkwcdM"
            ]
          }
        }
      ],
      "hex": "0200000001171816d95f4dbbbc47468404aa5def1105a8ecc0cc7fb1765b0df1707c59eb07000000006b483045022100a073e8f873e7f7d67ecb20c2c2e8950b619b823d0a1a4948291c1e58070097cb02206d2a72895d99e5f019e04192e4c7b98dbcbd45b2a135b6bdc8d47dc5e8cf276001210320cc8a483d3978b7c126456b14616a53dadc7c26ac6731827374f4430906b8a9feffffff027d9bd301000000001976a9141b1b342d3f1f8a92d1ebd9a4ee5e69829689194f88ac40787d010000000017a9147c16eeb467095280e0574db4970f803357463725870fbc1400"
    }
  ],
  "time": 1517203111,
  "mediantime": 1517202182,
  "nonce": 1677022760,
  "bits": "1a042eae",
  "difficulty": 4011378.762614286,
  "chainwork": "00000000000000000000000000000000000000000000003378411f0c0bc9f024",
  "previousblockhash": "8fcc4ec252effd3f5f2604c0112f1f4343c79ecdff73db97b46bd1858ed7b02f",
  "nextblockhash": "0a1d067b2cf44f5334e472c5d3788e0b0b79b8aa9f477b9a830595ee745ac5fa"
}
