{
  "hash": "6219d4d1801dfd1b6fea575006dce4dbd7e98e53f72ba2b03d6ebcfdcfd0c81e",
  "confirmations": 2830,
  "strippedsize": 253,
  "size": 253,
  "weight": 1012,
  "height": 1358165,
  "version": 536870912,
  "versionHex": "20000000",
  "merkleroot": "a0c9dfaddba68cd312fa34e2558cebd01caeb1f21f893bebdc7039870f4c28f2",
  "tx": [
    {
      "txid": "a0c9dfaddba68cd312fa34e2558cebd01caeb1f21f893bebdc7039870f4c28f2",
      "hash": "a0c9dfaddba68cd312fa34e2558cebd01caeb1f21f893bebdc7039870f4c28f2",
      "version": 1,
      "size": 172,
      "vsize": 172,
      "locktime": 0,
      "vin": [
        {
          "coinbase": "0355b9141a4d696e656420627920416e74506f6f6c20626a3532205a6d1b51fabe6d6df3ed872ea0253c49be35a38324f9af7246531535e3230e38a12095cbdc402dcd0400000000000000ad2f00000000000002000000",
          "sequence": 4294967295
        }
      ],
      "vout": [
        {
          "value": 25.00000000,
          "n": 0,
          "scriptPubKey": {
            "asm": "OP_DUP OP_HASH160 0ff3ccc5e8be88afe24b5d634e5852d474dbdff1 OP_EQUALVERIFY OP_CHECKSIG",
            "hex": "76a9140ff3ccc5e8be88afe24b5d634e5852d474dbdff188ac",
            "reqSigs": 1,
            "type": "pubkeyhash",
            "addresses": [
              "LLgJTbzZMsRTCUF1NtvvL9SR1a4pVieW89"
            ]
          }
        }
      ],
      "hex": "01000000010000000000000000000000000000000000000000000000000000000000000000ffffffff570355b9141a4d696e656420627920416e74506f6f6c20626a3532205a6d1b51fabe6d6df3ed872ea0253c49be35a38324f9af7246531535e3230e38a12095cbdc402dcd0400000000000000ad2f00000000000002000000ffffffff0100f90295000000001976a9140ff3ccc5e8be88afe24b5d634e5852d474dbdff188ac00000000"
    }
  ],
  "time": 1517099857,
  "mediantime": 1517098879,
  "nonce": 3236241586,
  "bits": "1a047f14",
  "difficulty": 3731199.183374282,
  "chainwork": "000000000000000000000000000000000000000000000032db346f357fdf8dbc",
  "previousblockhash": "5784637a97526b718e524c2f54f5396b5c2c044d69de51782b5fdd1625640459",
  "nextblockhash": "28813fa9dbcaf427f0501b5a275bc0012fd2dcf8ef61990f55c0424d97cab892"
}
