{
  "hash": "6256c8cc1b723cf52558dfa7765407aa65dbfef05ae8fa80293119f0f9ef4b9b",
  "confirmations": 2801,
  "strippedsize": 254,
  "size": 254,
  "weight": 1016,
  "height": 1358194,
  "version": 536870912,
  "versionHex": "20000000",
  "merkleroot": "20789c38ce77c8dfd7864254ac9fafc22819b296696b40499a88e9e083108397",
  "tx": [
    {
      "txid": "20789c38ce77c8dfd7864254ac9fafc22819b296696b40499a88e9e083108397",
      "hash": "20789c38ce77c8dfd7864254ac9fafc22819b296696b40499a88e9e083108397",
      "version": 1,
      "size": 173,
      "vsize": 173,
      "locktime": 0,
      "vin": [
        {
          "coinbase": "0372b9141b4d696e656420627920416e74506f6f6c20626a302042205a6d2c5afabe6d6d9c0d63101ff236e7a73196a08203d96aa028fd8819c2f676053d12d0b15dec7b0400000000000000e20400000000000002000000",
          "sequence": 4294967295
        }
      ],
      "vout": [
        {
          "value": 25.00000000,
          "n": 0,
          "scriptPubKey": {
            "asm": "OP_DUP OP_HASH160 0ff3ccc5e8be88afe24b5d634e5852d474dbdff1 OP_EQUALVERIFY OP_CHECKSIG",
            "hex": "76a9140ff3ccc5e8be88afe24b5d634e5852d474dbdff188ac",
            "reqSigs": 1,
            "type": "pubkeyhash",
            "addresses": [
              "LLgJTbzZMsRTCUF1NtvvL9SR1a4pVieW89"
            ]
          }
        }
      ],
      "hex": "01000000010000000000000000000000000000000000000000000000000000000000000000ffffffff580372b9141b4d696e656420627920416e74506f6f6c20626a302042205a6d2c5afabe6d6d9c0d63101ff236e7a73196a08203d96aa028fd8819c2f676053d12d0b15dec7b0400000000000000e20400000000000002000000ffffffff0100f90295000000001976a9140ff3ccc5e8be88afe24b5d634e5852d474dbdff188ac00000000"
    }
  ],
  "time": 1517104218,
  "mediantime": 1517103793,
  "nonce": 1757840978,
  "bits": "1a047f14",
  "difficulty": 3731199.183374282,
  "chainwork": "000000000000000000000000000000000000000000000032e1a78890ea99dcae",
  "previousblockhash": "c4ff4b7186aa3ad1dbab28feaa6b6149dfb23ccdc188a71940fe91b228a0673e",
  "nextblockhash": "9f74362a145a19b361fcb59c6e133b601c8d940ef954b7926c83bb82110b9b66"
}
