{
  "hash": "6269d49dcdf6936fd4f9bbb8d34aa4ec8c6ea9bbe532def119c9c709f027ed24",
  "confirmations": 791,
  "strippedsize": 3379,
  "size": 3524,
  "weight": 13661,
  "height": 1360203,
  "version": 536870912,
  "versionHex": "20000000",
  "merkleroot": "33ce754d7f9e7bd0600120098fd601ad7e86208eac5137c52cfcc3fad93407d1",
  "tx": [
    {
      "txid": "af9265279c3fe2f9aa4d48a124fbcdcd25dac6a21a3b4519c5e315b4e25b6412",
      "hash": "6f59a03b509255fbf958a729bb065277188037b066ccd7d4141ff34797325ad4",
      "version": 1,
      "size": 251,
      "vsize": 224,
      "locktime": 0,
      "vin": [
        {
          "coinbase": "034bc1140000000000fabe6d6dc7c780f286702c64f1cbedb8eb0eff15289f2f972806a79a97864bab101a46ed010000000000000004198a715a04af8bf5320819fb05e4555555cb0a42570a6657042f42572f",
          "sequence": 4294967295
        }
      ],
      "vout": [
        {
          "value": 25.00372900,
          "n": 0,
          "scriptPubKey": {
            "asm": "OP_DUP OP_HASH160 5373bc9425fd49e6bfe522d3dfc85432da2cc023 OP_EQUALVERIFY OP_CHECKSIG",
            "hex": "76a9145373bc9425fd49e6bfe522d3dfc85432da2cc02388ac",
            "reqSigs": 1,
            "type": "pubkeyhash",
            "addresses": [
              "LSqCzf5bPfkqGf94pJcfxWx5bZMPJE5XRf"
            ]
          }
        }, 
        {
          "value": 0.00000000,
          "n": 1,
          "scriptPubKey": {
            "asm": "OP_RETURN aa21a9ed70f0f6be0c43dc69b93dbfee5ecb98035564e46cbac59fcec6f3012e477e8368",
            "hex": "6a24aa21a9ed70f0f6be0c43dc69b93dbfee5ecb98035564e46cbac59fcec6f3012e477e8368",
            "type": "nulldata"
          }
        }
      ],
      "hex": "010000000001010000000000000000000000000000000000000000000000000000000000000000ffffffff53034bc1140000000000fabe6d6dc7c780f286702c64f1cbedb8eb0eff15289f2f972806a79a97864bab101a46ed010000000000000004198a715a04af8bf5320819fb05e4555555cb0a42570a6657042f42572fffffffff02a4a90895000000001976a9145373bc9425fd49e6bfe522d3dfc85432da2cc02388ac0000000000000000266a24aa21a9ed70f0f6be0c43dc69b93dbfee5ecb98035564e46cbac59fcec6f3012e477e83680120000000000000000000000000000000000000000000000000000000000000000000000000"
    }, 
    {
      "txid": "f3782b8a6cc250f224448ce598284408a02ce6ef6f30d7ec9b2d6af29272bb71",
      "hash": "f3782b8a6cc250f224448ce598284408a02ce6ef6f30d7ec9b2d6af29272bb71",
      "version": 1,
      "size": 487,
      "vsize": 487,
      "locktime": 0,
      "vin": [
        {
          "txid": "706c818627b02357141e9f22edfb9f7e4ab38043bad70dc386005ee95c78eb11",
          "vout": 0,
          "scriptSig": {
            "asm": "304502210080440b3f03d125dc6e6a30610687e60f2174faf24a0a9973ae1bb0270b1c88b1022022f0182d663296a5166db77af7b1fcf99925cc3f60052654ebfc558b1c5b6e47[ALL] 0320251083a92cbfb1e9f315b6c967dd872111708b7fec9035231eec8cdca7105d",
            "hex": "48304502210080440b3f03d125dc6e6a30610687e60f2174faf24a0a9973ae1bb0270b1c88b1022022f0182d663296a5166db77af7b1fcf99925cc3f60052654ebfc558b1c5b6e4701210320251083a92cbfb1e9f315b6c967dd872111708b7fec9035231eec8cdca7105d"
          },
          "sequence": 4294967295
        }, 
        {
          "txid": "39e5135bcd442315ff774b859ec7e4d7edd92d501142b85b605f7a27f17c54b0",
          "vout": 1,
          "scriptSig": {
            "asm": "3044022070f3eae50e2d10040b3c68c6666005eca9918f48866c5a9ead39a4b41f64485002201c395e8238325bd7962ef011e92061432ab456f4fb27ede7ce157f788ab54075[ALL] 02bb620669aceeb46bad7ce660d483c08c9cd0dc4674463114dd2acf9f1dbbbbc6",
            "hex": "473044022070f3eae50e2d10040b3c68c6666005eca9918f48866c5a9ead39a4b41f64485002201c395e8238325bd7962ef011e92061432ab456f4fb27ede7ce157f788ab54075012102bb620669aceeb46bad7ce660d483c08c9cd0dc4674463114dd2acf9f1dbbbbc6"
          },
          "sequence": 4294967295
        }, 
        {
          "txid": "7536bfd5fb271f6ac4caa9c0b1bcd9cebccc6083c7835aa22e8c3491b68c9937",
          "vout": 1,
          "scriptSig": {
            "asm": "3045022100f4823ff003a4b6fa3c5f3788b84aef50158691e299fc44b908931ff7d60d9b6302207979961866914d95ec882ca43f30b9ae497349c0ff6fad1d39fdf9520bf86e1a[ALL] 03a89db81f049f4136b478f2c855c9b8118b473993040f9b3ad818507f98027358",
            "hex": "483045022100f4823ff003a4b6fa3c5f3788b84aef50158691e299fc44b908931ff7d60d9b6302207979961866914d95ec882ca43f30b9ae497349c0ff6fad1d39fdf9520bf86e1a012103a89db81f049f4136b478f2c855c9b8118b473993040f9b3ad818507f98027358"
          },
          "sequence": 4294967295
        }
      ],
      "vout": [
        {
          "value": 3.03086773,
          "n": 0,
          "scriptPubKey": {
            "asm": "OP_DUP OP_HASH160 c41964358e3354d054f97f168a68cccbb3f12573 OP_EQUALVERIFY OP_CHECKSIG",
            "hex": "76a914c41964358e3354d054f97f168a68cccbb3f1257388ac",
            "reqSigs": 1,
            "type": "pubkeyhash",
            "addresses": [
              "Ld6q83HBBnkLyb2fDFCYUWmycPb12joPTh"
            ]
          }
        }
      ],
      "hex": "010000000311eb785ce95e0086c30dd7ba4380b34a7e9ffbed229f1e145723b02786816c70000000006b48304502210080440b3f03d125dc6e6a30610687e60f2174faf24a0a9973ae1bb0270b1c88b1022022f0182d663296a5166db77af7b1fcf99925cc3f60052654ebfc558b1c5b6e4701210320251083a92cbfb1e9f315b6c967dd872111708b7fec9035231eec8cdca7105dffffffffb0547cf1277a5f605bb84211502dd9edd7e4c79e854b77ff152344cd5b13e539010000006a473044022070f3eae50e2d10040b3c68c6666005eca9918f48866c5a9ead39a4b41f64485002201c395e8238325bd7962ef011e92061432ab456f4fb27ede7ce157f788ab54075012102bb620669aceeb46bad7ce660d483c08c9cd0dc4674463114dd2acf9f1dbbbbc6ffffffff37998cb691348c2ea25a83c78360ccbcced9bcb1c0a9cac46a1f27fbd5bf3675010000006b483045022100f4823ff003a4b6fa3c5f3788b84aef50158691e299fc44b908931ff7d60d9b6302207979961866914d95ec882ca43f30b9ae497349c0ff6fad1d39fdf9520bf86e1a012103a89db81f049f4136b478f2c855c9b8118b473993040f9b3ad818507f98027358ffffffff01b5bc1012000000001976a914c41964358e3354d054f97f168a68cccbb3f1257388ac00000000"
    }, 
    {
      "txid": "287425599fea6d407dcfccf3b676b82ac9c2319b9b141cfd54dee69603bdb97b",
      "hash": "43f05de16e0449a31ec55a73736452a210699e0a8b0b218c374ea7e89cce8505",
      "version": 1,
      "size": 249,
      "vsize": 168,
      "locktime": 0,
      "vin": [
        {
          "txid": "fac7759a3e3dc65b77eb4785f659a62a5b804d7618fed7669b40cb09fdcf5dee",
          "vout": 1,
          "scriptSig": {
            "asm": "0014f92d2f5f4cbf265a2d2a6fa34d428f778f23be4b",
            "hex": "160014f92d2f5f4cbf265a2d2a6fa34d428f778f23be4b"
          },
          "txinwitness": [
            "30440220031f0900ed0e2abcdcb4332bb3875ddfe05ebaab81f080ba0d8d011ff05055ec0220692c8725ecbd2caa95966efe5c7e509f0e59c9376623a04defbc4daf03a2a77501", 
            "03326191b12b4fa29a2c674d05add27f68ba64e43287c5e28ff5b5930c354153ae"
          ],
          "sequence": 4294967295
        }
      ],
      "vout": [
        {
          "value": 11.67567273,
          "n": 0,
          "scriptPubKey": {
            "asm": "OP_HASH160 44374b84982335e0622049a96ac0c2f2d198103e OP_EQUAL",
            "hex": "a91444374b84982335e0622049a96ac0c2f2d198103e87",
            "reqSigs": 1,
            "type": "scripthash",
            "addresses": [
              "ME7rRSMs7y8f1SevBAajPspx4zqip9ARdY"
            ]
          }
        }, 
        {
          "value": 100.00000000,
          "n": 1,
          "scriptPubKey": {
            "asm": "OP_DUP OP_HASH160 ce2f5573670fa284954c49c0bbdfeae53483082d OP_EQUALVERIFY OP_CHECKSIG",
            "hex": "76a914ce2f5573670fa284954c49c0bbdfeae53483082d88ac",
            "reqSigs": 1,
            "type": "pubkeyhash",
            "addresses": [
              "Le2AAYFX3isAcmD9WDS6QbZRBS6NGKu1ez"
            ]
          }
        }
      ],
      "hex": "01000000000101ee5dcffd09cb409b66d7fe18764d805b2aa659f68547eb775bc63d3e9a75c7fa0100000017160014f92d2f5f4cbf265a2d2a6fa34d428f778f23be4bffffffff02a9a997450000000017a91444374b84982335e0622049a96ac0c2f2d198103e8700e40b54020000001976a914ce2f5573670fa284954c49c0bbdfeae53483082d88ac024730440220031f0900ed0e2abcdcb4332bb3875ddfe05ebaab81f080ba0d8d011ff05055ec0220692c8725ecbd2caa95966efe5c7e509f0e59c9376623a04defbc4daf03a2a775012103326191b12b4fa29a2c674d05add27f68ba64e43287c5e28ff5b5930c354153ae00000000"
    }, 
    {
      "txid": "554b1ee900fc54e1d0eefdf442f66743089e166633e3393af2a9de7a9bf6c913",
      "hash": "554b1ee900fc54e1d0eefdf442f66743089e166633e3393af2a9de7a9bf6c913",
      "version": 2,
      "size": 373,
      "vsize": 373,
      "locktime": 1360201,
      "vin": [
        {
          "txid": "0f74b21bbca4c1255245a3ea35b3eb019ab19448b1498eb3308bd9b927ba768a",
          "vout": 1,
          "scriptSig": {
            "asm": "3045022100c8629256f65022515a913bdfc8fda6f4087bc654a679e1465d29f562efa21faa022055b06853ad7ad54cee48b2e646ba9b54eb37bf3bb82379d2c2198a0778875bab[ALL] 02b5322c37d224856c26dfeb161731b05fabadd66ee6f95e25f28c38ab7885d027",
            "hex": "483045022100c8629256f65022515a913bdfc8fda6f4087bc654a679e1465d29f562efa21faa022055b06853ad7ad54cee48b2e646ba9b54eb37bf3bb82379d2c2198a0778875bab012102b5322c37d224856c26dfeb161731b05fabadd66ee6f95e25f28c38ab7885d027"
          },
          "sequence": 4294967294
        }, 
        {
          "txid": "b6ea3dd40912f432bec424572043a70f4b5c3ebb02c7fe9fdff766178c5483d6",
          "vout": 0,
          "scriptSig": {
            "asm": "304402201cbf7866de396780be42fb01a9e32573d5581a95345924f05508ac376fc6c35a02205afb83aa09e8ae8fd47174e470ea536cba5d5c2235009079ffb79f86d7aaca8f[ALL] 03f6b1711f344326272b1bd0471070bc66c9ac5a7e52cfd7ad8e1fc2ae1c0a2941",
            "hex": "47304402201cbf7866de396780be42fb01a9e32573d5581a95345924f05508ac376fc6c35a02205afb83aa09e8ae8fd47174e470ea536cba5d5c2235009079ffb79f86d7aaca8f012103f6b1711f344326272b1bd0471070bc66c9ac5a7e52cfd7ad8e1fc2ae1c0a2941"
          },
          "sequence": 4294967294
        }
      ],
      "vout": [
        {
          "value": 0.01021898,
          "n": 0,
          "scriptPubKey": {
            "asm": "OP_DUP OP_HASH160 d4bcf4cceb0aa4b380674c44c13e502000b02feb OP_EQUALVERIFY OP_CHECKSIG",
            "hex": "76a914d4bcf4cceb0aa4b380674c44c13e502000b02feb88ac",
            "reqSigs": 1,
            "type": "pubkeyhash",
            "addresses": [
              "LecosnsCq39Q3cL5eHDnW7NCtdbrS94nm9"
            ]
          }
        }, 
        {
          "value": 0.15000000,
          "n": 1,
          "scriptPubKey": {
            "asm": "OP_DUP OP_HASH160 81154c9c4ad92a494c93f4fb988442090a8a85e2 OP_EQUALVERIFY OP_CHECKSIG",
            "hex": "76a91481154c9c4ad92a494c93f4fb988442090a8a85e288ac",
            "reqSigs": 1,
            "type": "pubkeyhash",
            "addresses": [
              "LWzUwrhQQLSqF4SLorfMMyZks6SYypReBq"
            ]
          }
        }
      ],
      "hex": "02000000028a76ba27b9d98b30b38e49b14894b19a01ebb335eaa3455225c1a4bc1bb2740f010000006b483045022100c8629256f65022515a913bdfc8fda6f4087bc654a679e1465d29f562efa21faa022055b06853ad7ad54cee48b2e646ba9b54eb37bf3bb82379d2c2198a0778875bab012102b5322c37d224856c26dfeb161731b05fabadd66ee6f95e25f28c38ab7885d027feffffffd683548c1766f7df9ffec702bb3e5c4b0fa743205724c4be32f41209d43deab6000000006a47304402201cbf7866de396780be42fb01a9e32573d5581a95345924f05508ac376fc6c35a02205afb83aa09e8ae8fd47174e470ea536cba5d5c2235009079ffb79f86d7aaca8f012103f6b1711f344326272b1bd0471070bc66c9ac5a7e52cfd7ad8e1fc2ae1c0a2941feffffff02ca970f00000000001976a914d4bcf4cceb0aa4b380674c44c13e502000b02feb88acc0e1e400000000001976a91481154c9c4ad92a494c93f4fb988442090a8a85e288ac49c11400"
    }, 
    {
      "txid": "8275e18a4ca3b24398beb8129bb02bcde046d2e0a1e27df1136855466ba8ab79",
      "hash": "8275e18a4ca3b24398beb8129bb02bcde046d2e0a1e27df1136855466ba8ab79",
      "version": 2,
      "size": 1405,
      "vsize": 1405,
      "locktime": 1360201,
      "vin": [
        {
          "txid": "30d8dd75b4e71305b70efed570a16061d00be83b6b00ecc0ca78621eb84971b5",
          "vout": 0,
          "scriptSig": {
            "asm": "3045022100d0d5a75bee65d962fb441d9109d3a9c59a0b8409fb74e8607e2259b574350b0c02205084a0c743098ce6d67de2a9766e98bbd27e741068a6c773021e50e4d0d69366[ALL] 02e2037bd3b8ff3ee3e1c67e232b207d138124a826a4f761eeba99ff99c4b60c29",
            "hex": "483045022100d0d5a75bee65d962fb441d9109d3a9c59a0b8409fb74e8607e2259b574350b0c02205084a0c743098ce6d67de2a9766e98bbd27e741068a6c773021e50e4d0d69366012102e2037bd3b8ff3ee3e1c67e232b207d138124a826a4f761eeba99ff99c4b60c29"
          },
          "sequence": 4294967294
        }, 
        {
          "txid": "333277f27b71ff3a1feb3cc89091f29487506a35a3e3076d4c27d3acbd7b126f",
          "vout": 0,
          "scriptSig": {
            "asm": "3045022100870d4e20f4c6118d6f5977225b9bb5d5479fa3f70bcdbd76e93bb69c9caaf5d9022038e146cad0e4a50bf41c371a8cfb46e6dd198870844dfd4c03957c52348d72b8[ALL] 02e2037bd3b8ff3ee3e1c67e232b207d138124a826a4f761eeba99ff99c4b60c29",
            "hex": "483045022100870d4e20f4c6118d6f5977225b9bb5d5479fa3f70bcdbd76e93bb69c9caaf5d9022038e146cad0e4a50bf41c371a8cfb46e6dd198870844dfd4c03957c52348d72b8012102e2037bd3b8ff3ee3e1c67e232b207d138124a826a4f761eeba99ff99c4b60c29"
          },
          "sequence": 4294967294
        }, 
        {
          "txid": "f258ed84d230bb7c8389e68889be8f9ef8170d92787452032ebb3b61fde63495",
          "vout": 1,
          "scriptSig": {
            "asm": "304402206bd5151ff3e89eab079ee134bba529f601f4a5e079eb6e9738b8e2f52453435a0220452747fb98c2d0341dd53e6c35ae037c0cc4dbb132f5e3e5c74f1f27823acda6[ALL] 037dc254e5f3a5a82a9f6e83b0c9026eeaa89a472de04be3f046355d868bce6a0c",
            "hex": "47304402206bd5151ff3e89eab079ee134bba529f601f4a5e079eb6e9738b8e2f52453435a0220452747fb98c2d0341dd53e6c35ae037c0cc4dbb132f5e3e5c74f1f27823acda60121037dc254e5f3a5a82a9f6e83b0c9026eeaa89a472de04be3f046355d868bce6a0c"
          },
          "sequence": 4294967294
        }
      ],
      "vout": [
        {
          "value": 240.00000000,
          "n": 0,
          "scriptPubKey": {
            "asm": "OP_DUP OP_HASH160 df9c665a533fb7ca69fcd0a45ad37ac10ac3bf01 OP_EQUALVERIFY OP_CHECKSIG",
            "hex": "76a914df9c665a533fb7ca69fcd0a45ad37ac10ac3bf0188ac",
            "reqSigs": 1,
            "type": "pubkeyhash",
            "addresses": [
              "LfcJJqj475De2Le9xuUFPPciFUwAatCQ9Z"
            ]
          }
        }, 
        {
          "value": 68.68949378,
          "n": 1,
          "scriptPubKey": {
            "asm": "OP_DUP OP_HASH160 e5c4833a2a40bc11b77d82f3ebb8c129dcaf8cbe OP_EQUALVERIFY OP_CHECKSIG",
            "hex": "76a914e5c4833a2a40bc11b77d82f3ebb8c129dcaf8cbe88ac",
            "reqSigs": 1,
            "type": "pubkeyhash",
            "addresses": [
              "LgArR5Sjmh14jVNhBRup4qWoCnbTYC9s82"
            ]
          }
        }, 
        {
          "value": 0.15983000,
          "n": 2,
          "scriptPubKey": {
            "asm": "OP_DUP OP_HASH160 33b4a7cf6f7031122a273fa1ee25524b384a9c23 OP_EQUALVERIFY OP_CHECKSIG",
            "hex": "76a91433b4a7cf6f7031122a273fa1ee25524b384a9c2388ac",
            "reqSigs": 1,
            "type": "pubkeyhash",
            "addresses": [
              "LPwM9AJU6EmQBiwc2rfjHow95pFBRWC5tc"
            ]
          }
        }, 
        {
          "value": 1.48850000,
          "n": 3,
          "scriptPubKey": {
            "asm": "OP_DUP OP_HASH160 d7829220f2c7722f2c5838abb986b4ebcf202e85 OP_EQUALVERIFY OP_CHECKSIG",
            "hex": "76a914d7829220f2c7722f2c5838abb986b4ebcf202e8588ac",
            "reqSigs": 1,
            "type": "pubkeyhash",
            "addresses": [
              "LesTxg9ntWhEtoi9oZidPFeAvVVc4g2ChY"
            ]
          }
        }, 
        {
          "value": 0.06980732,
          "n": 4,
          "scriptPubKey": {
            "asm": "OP_DUP OP_HASH160 29c59ef440cbab0117e6455c597ea878c3c640c1 OP_EQUALVERIFY OP_CHECKSIG",
            "hex": "76a91429c59ef440cbab0117e6455c597ea878c3c640c188ac",
            "reqSigs": 1,
            "type": "pubkeyhash",
            "addresses": [
              "LP2pi27GGC6gLeYcRgzDs12FobKaUZg1gH"
            ]
          }
        }, 
        {
          "value": 1.24000000,
          "n": 5,
          "scriptPubKey": {
            "asm": "OP_DUP OP_HASH160 cfdbdce54af0186e88731bf5387bcdfc8296b55f OP_EQUALVERIFY OP_CHECKSIG",
            "hex": "76a914cfdbdce54af0186e88731bf5387bcdfc8296b55f88ac",
            "reqSigs": 1,
            "type": "pubkeyhash",
            "addresses": [
              "LeB1XGAFsZkDb14r6ytghozsjqbypg6cYV"
            ]
          }
        }, 
        {
          "value": 1.54144700,
          "n": 6,
          "scriptPubKey": {
            "asm": "OP_DUP OP_HASH160 1702b05ac77f42bd8ba36b8a5d85ea065f05c8c7 OP_EQUALVERIFY OP_CHECKSIG",
            "hex": "76a9141702b05ac77f42bd8ba36b8a5d85ea065f05c8c788ac",
            "reqSigs": 1,
            "type": "pubkeyhash",
            "addresses": [
              "LMKd2TBDkgBdqQbXqvS9ziJuroQtCiKwEY"
            ]
          }
        }, 
        {
          "value": 1.09240000,
          "n": 7,
          "scriptPubKey": {
            "asm": "OP_DUP OP_HASH160 d07203c90054e0627080af5f7776b755aefdd0b2 OP_EQUALVERIFY OP_CHECKSIG",
            "hex": "76a914d07203c90054e0627080af5f7776b755aefdd0b288ac",
            "reqSigs": 1,
            "type": "pubkeyhash",
            "addresses": [
              "LeE7Pzx3LjQenTXdbSUrrXFsLoDM8aiAok"
            ]
          }
        }, 
        {
          "value": 19.99508169,
          "n": 8,
          "scriptPubKey": {
            "asm": "OP_DUP OP_HASH160 5858bbc48ed310e38684ec98f907cee731ea92bf OP_EQUALVERIFY OP_CHECKSIG",
            "hex": "76a9145858bbc48ed310e38684ec98f907cee731ea92bf88ac",
            "reqSigs": 1,
            "type": "pubkeyhash",
            "addresses": [
              "LTH62QMjNXKKjEPRp2Vp1nzCgFLUHRWicU"
            ]
          }
        }, 
        {
          "value": 0.08626400,
          "n": 9,
          "scriptPubKey": {
            "asm": "OP_DUP OP_HASH160 bdcd05dbc4ae933aed593ffc9b3faa663f06e4f5 OP_EQUALVERIFY OP_CHECKSIG",
            "hex": "76a914bdcd05dbc4ae933aed593ffc9b3faa663f06e4f588ac",
            "reqSigs": 1,
            "type": "pubkeyhash",
            "addresses": [
              "LcXXai4Q9KvMszxa94hE2aCobtrmRyGKm6"
            ]
          }
        }, 
        {
          "value": 0.54929834,
          "n": 10,
          "scriptPubKey": {
            "asm": "OP_DUP OP_HASH160 db1d162344519fe541f0f61d93cdbd0a5720a778 OP_EQUALVERIFY OP_CHECKSIG",
            "hex": "76a914db1d162344519fe541f0f61d93cdbd0a5720a77888ac",
            "reqSigs": 1,
            "type": "pubkeyhash",
            "addresses": [
              "LfCX6BqSrLyqARDPFTRynyzvwJxERn2hHH"
            ]
          }
        }, 
        {
          "value": 0.10000000,
          "n": 11,
          "scriptPubKey": {
            "asm": "OP_DUP OP_HASH160 6ebc9e4c305ebf792d0e1315f02f70eaf76d19d4 OP_EQUALVERIFY OP_CHECKSIG",
            "hex": "76a9146ebc9e4c305ebf792d0e1315f02f70eaf76d19d488ac",
            "reqSigs": 1,
            "type": "pubkeyhash",
            "addresses": [
              "LVKUYkHQs5soYtaQnEVaGb5omktjXKiAyT"
            ]
          }
        }, 
        {
          "value": 4.04169470,
          "n": 12,
          "scriptPubKey": {
            "asm": "OP_DUP OP_HASH160 03bdb3df4969f64a772d865b8b3bd30deef936b9 OP_EQUALVERIFY OP_CHECKSIG",
            "hex": "76a91403bdb3df4969f64a772d865b8b3bd30deef936b988ac",
            "reqSigs": 1,
            "type": "pubkeyhash",
            "addresses": [
              "LKZjYZKSRgpYGuvXyUnYL7JRrdpYK3GBis"
            ]
          }
        }, 
        {
          "value": 0.35259917,
          "n": 13,
          "scriptPubKey": {
            "asm": "OP_DUP OP_HASH160 bf4516cbb44149997608144647a9ae4222a9d1b7 OP_EQUALVERIFY OP_CHECKSIG",
            "hex": "76a914bf4516cbb44149997608144647a9ae4222a9d1b788ac",
            "reqSigs": 1,
            "type": "pubkeyhash",
            "addresses": [
              "LcfJ6F5zeNN2a4FCatXTDGG7xnYNvU3T6g"
            ]
          }
        }, 
        {
          "value": 0.15684000,
          "n": 14,
          "scriptPubKey": {
            "asm": "OP_DUP OP_HASH160 4da5e2d25108581c4f18e9886ef627af2f7a7ec4 OP_EQUALVERIFY OP_CHECKSIG",
            "hex": "76a9144da5e2d25108581c4f18e9886ef627af2f7a7ec488ac",
            "reqSigs": 1,
            "type": "pubkeyhash",
            "addresses": [
              "LSJX1wsJiJbFvVWgRDHzRhEf4hYRapzKup"
            ]
          }
        }, 
        {
          "value": 0.09000000,
          "n": 15,
          "scriptPubKey": {
            "asm": "OP_DUP OP_HASH160 ddc877eeb936c91a9e3952c019374661dcac9910 OP_EQUALVERIFY OP_CHECKSIG",
            "hex": "76a914ddc877eeb936c91a9e3952c019374661dcac991088ac",
            "reqSigs": 1,
            "type": "pubkeyhash",
            "addresses": [
              "LfSdkQH7UpUfD8ja5pMt5yA3Jttr9UtBQh"
            ]
          }
        }, 
        {
          "value": 6.08390000,
          "n": 16,
          "scriptPubKey": {
            "asm": "OP_DUP OP_HASH160 cdecbd8ab25d970889fbf72e5f432d249d2832f2 OP_EQUALVERIFY OP_CHECKSIG",
            "hex": "76a914cdecbd8ab25d970889fbf72e5f432d249d2832f288ac",
            "reqSigs": 1,
            "type": "pubkeyhash",
            "addresses": [
              "LdznPYpatRUyYh2Gvz8eTAA6AeC41zfs46"
            ]
          }
        }, 
        {
          "value": 0.28957000,
          "n": 17,
          "scriptPubKey": {
            "asm": "OP_DUP OP_HASH160 4e86e061bd883054600836d1b36f29b458e15c04 OP_EQUALVERIFY OP_CHECKSIG",
            "hex": "76a9144e86e061bd883054600836d1b36f29b458e15c0488ac",
            "reqSigs": 1,
            "type": "pubkeyhash",
            "addresses": [
              "LSPAYZMig7RLe63CxeeszBr6dMEXkN7QGD"
            ]
          }
        }, 
        {
          "value": 36.60334999,
          "n": 18,
          "scriptPubKey": {
            "asm": "OP_DUP OP_HASH160 62bf8692f4c4915cbc87a6af4c2b8d53d32a457d OP_EQUALVERIFY OP_CHECKSIG",
            "hex": "76a91462bf8692f4c4915cbc87a6af4c2b8d53d32a457d88ac",
            "reqSigs": 1,
            "type": "pubkeyhash",
            "addresses": [
              "LUE5vT3onnuJFTsSDQ8zwH9c4fo3bTRftr"
            ]
          }
        }, 
        {
          "value": 0.59000000,
          "n": 19,
          "scriptPubKey": {
            "asm": "OP_DUP OP_HASH160 de90fb7b88efdfdfa13c3f86828145e299d7e401 OP_EQUALVERIFY OP_CHECKSIG",
            "hex": "76a914de90fb7b88efdfdfa13c3f86828145e299d7e40188ac",
            "reqSigs": 1,
            "type": "pubkeyhash",
            "addresses": [
              "LfWmxMFLSNDz7vYKQzfJAASpkZ8LwsQrHs"
            ]
          }
        }, 
        {
          "value": 33.06888800,
          "n": 20,
          "scriptPubKey": {
            "asm": "OP_DUP OP_HASH160 63373e68ad60ca72f82f618ef72bf08be641df0f OP_EQUALVERIFY OP_CHECKSIG",
            "hex": "76a91463373e68ad60ca72f82f618ef72bf08be641df0f88ac",
            "reqSigs": 1,
            "type": "pubkeyhash",
            "addresses": [
              "LUGZLcKDhAEsdaWcvzKywG4yN7bVMb9J9J"
            ]
          }
        }, 
        {
          "value": 0.16800000,
          "n": 21,
          "scriptPubKey": {
            "asm": "OP_DUP OP_HASH160 861872ca38e87aaff4d4bcdee6b2c02f4a07800f OP_EQUALVERIFY OP_CHECKSIG",
            "hex": "76a914861872ca38e87aaff4d4bcdee6b2c02f4a07800f88ac",
            "reqSigs": 1,
            "type": "pubkeyhash",
            "addresses": [
              "LXSz6d5GQY4Xgez99fX1C3YAoagmAUmHtv"
            ]
          }
        }, 
        {
          "value": 0.53279999,
          "n": 22,
          "scriptPubKey": {
            "asm": "OP_DUP OP_HASH160 62d94ea0a514fbe35e86fcc2a057bb5b1df29049 OP_EQUALVERIFY OP_CHECKSIG",
            "hex": "76a91462d94ea0a514fbe35e86fcc2a057bb5b1df2904988ac",
            "reqSigs": 1,
            "type": "pubkeyhash",
            "addresses": [
              "LUEcon2PvJ6FRj9jvE5tviTezo49Zx4aSf"
            ]
          }
        }, 
        {
          "value": 0.36962000,
          "n": 23,
          "scriptPubKey": {
            "asm": "OP_DUP OP_HASH160 ac5f57be04230c13a6eec1381b92d18c5fe93489 OP_EQUALVERIFY OP_CHECKSIG",
            "hex": "76a914ac5f57be04230c13a6eec1381b92d18c5fe9348988ac",
            "reqSigs": 1,
            "type": "pubkeyhash",
            "addresses": [
              "LawNhjk8gH3ebnKHrzwNQ5aefYeAbrbDbh"
            ]
          }
        }, 
        {
          "value": 12.41756000,
          "n": 24,
          "scriptPubKey": {
            "asm": "OP_DUP OP_HASH160 cf3f0cf7e91bcb050172dd7bcc71c2194796a171 OP_EQUALVERIFY OP_CHECKSIG",
            "hex": "76a914cf3f0cf7e91bcb050172dd7bcc71c2194796a17188ac",
            "reqSigs": 1,
            "type": "pubkeyhash",
            "addresses": [
              "Le7mfkwZmZVGafxkSzCu2ndN9Yh3sC5DWx"
            ]
          }
        }, 
        {
          "value": 0.30868100,
          "n": 25,
          "scriptPubKey": {
            "asm": "OP_DUP OP_HASH160 6955b6e89c0444da0da8f9c740586c74c5cdf07f OP_EQUALVERIFY OP_CHECKSIG",
            "hex": "76a9146955b6e89c0444da0da8f9c740586c74c5cdf07f88ac",
            "reqSigs": 1,
            "type": "pubkeyhash",
            "addresses": [
              "LUputuH7zpeHSAQ9cbEzBiquQTFVbPa1L3"
            ]
          }
        }, 
        {
          "value": 0.45253700,
          "n": 26,
          "scriptPubKey": {
            "asm": "OP_DUP OP_HASH160 6d75e379443e6985b67acdc4f711802a4c3f5e50 OP_EQUALVERIFY OP_CHECKSIG",
            "hex": "76a9146d75e379443e6985b67acdc4f711802a4c3f5e5088ac",
            "reqSigs": 1,
            "type": "pubkeyhash",
            "addresses": [
              "LVCj9ATecEUoqC1CmSP8GE37NVNQxtUpWi"
            ]
          }
        }, 
        {
          "value": 1.14937946,
          "n": 27,
          "scriptPubKey": {
            "asm": "OP_DUP OP_HASH160 110e093d380288ffd6044a1cfb0b78b9cecf6de9 OP_EQUALVERIFY OP_CHECKSIG",
            "hex": "76a914110e093d380288ffd6044a1cfb0b78b9cecf6de988ac",
            "reqSigs": 1,
            "type": "pubkeyhash",
            "addresses": [
              "LLn8ZieFZyzgVCzjj3kxiq4CfTXEjY9ctE"
            ]
          }
        }
      ],
      "hex": "0200000003b57149b81e6278cac0ec006b3be80bd06160a170d5fe0eb70513e7b475ddd830000000006b483045022100d0d5a75bee65d962fb441d9109d3a9c59a0b8409fb74e8607e2259b574350b0c02205084a0c743098ce6d67de2a9766e98bbd27e741068a6c773021e50e4d0d69366012102e2037bd3b8ff3ee3e1c67e232b207d138124a826a4f761eeba99ff99c4b60c29feffffff6f127bbdacd3274c6d07e3a3356a508794f29190c83ceb1f3aff717bf2773233000000006b483045022100870d4e20f4c6118d6f5977225b9bb5d5479fa3f70bcdbd76e93bb69c9caaf5d9022038e146cad0e4a50bf41c371a8cfb46e6dd198870844dfd4c03957c52348d72b8012102e2037bd3b8ff3ee3e1c67e232b207d138124a826a4f761eeba99ff99c4b60c29feffffff9534e6fd613bbb2e03527478920d17f89e8fbe8988e689837cbb30d284ed58f2010000006a47304402206bd5151ff3e89eab079ee134bba529f601f4a5e079eb6e9738b8e2f52453435a0220452747fb98c2d0341dd53e6c35ae037c0cc4dbb132f5e3e5c74f1f27823acda60121037dc254e5f3a5a82a9f6e83b0c9026eeaa89a472de04be3f046355d868bce6a0cfeffffff1c00f08296050000001976a914df9c665a533fb7ca69fcd0a45ad37ac10ac3bf0188ac82d96b99010000001976a914e5c4833a2a40bc11b77d82f3ebb8c129dcaf8cbe88ac98e1f300000000001976a91433b4a7cf6f7031122a273fa1ee25524b384a9c2388ac5045df08000000001976a914d7829220f2c7722f2c5838abb986b4ebcf202e8588ac7c846a00000000001976a91429c59ef440cbab0117e6455c597ea878c3c640c188ac00176407000000001976a914cfdbdce54af0186e88731bf5387bcdfc8296b55f88acbc0f3009000000001976a9141702b05ac77f42bd8ba36b8a5d85ea065f05c8c788acc0de8206000000001976a914d07203c90054e0627080af5f7776b755aefdd0b288acc9122e77000000001976a9145858bbc48ed310e38684ec98f907cee731ea92bf88ace0a08300000000001976a914bdcd05dbc4ae933aed593ffc9b3faa663f06e4f588acaa294603000000001976a914db1d162344519fe541f0f61d93cdbd0a5720a77888ac80969800000000001976a9146ebc9e4c305ebf792d0e1315f02f70eaf76d19d488acfe221718000000001976a91403bdb3df4969f64a772d865b8b3bd30deef936b988ac0d061a02000000001976a914bf4516cbb44149997608144647a9ae4222a9d1b788aca051ef00000000001976a9144da5e2d25108581c4f18e9886ef627af2f7a7ec488ac40548900000000001976a914ddc877eeb936c91a9e3952c019374661dcac991088ac704b4324000000001976a914cdecbd8ab25d970889fbf72e5f432d249d2832f288ac48d9b901000000001976a9144e86e061bd883054600836d1b36f29b458e15c0488ac97472cda000000001976a91462bf8692f4c4915cbc87a6af4c2b8d53d32a457d88acc0448403000000001976a914de90fb7b88efdfdfa13c3f86828145e299d7e40188ac601e1bc5000000001976a91463373e68ad60ca72f82f618ef72bf08be641df0f88ac00590001000000001976a914861872ca38e87aaff4d4bcdee6b2c02f4a07800f88acfffc2c03000000001976a91462d94ea0a514fbe35e86fcc2a057bb5b1df2904988acd0fe3302000000001976a914ac5f57be04230c13a6eec1381b92d18c5fe9348988ac60b1034a000000001976a914cf3f0cf7e91bcb050172dd7bcc71c2194796a17188ac8402d701000000001976a9146955b6e89c0444da0da8f9c740586c74c5cdf07f88ac4484b202000000001976a9146d75e379443e6985b67acdc4f711802a4c3f5e5088ac5ad0d906000000001976a914110e093d380288ffd6044a1cfb0b78b9cecf6de988ac49c11400"
    }, 
    {
      "txid": "79598019a0c47852fc2de877ace30af6439623b64deb159eb73f6880e8434420",
      "hash": "79598019a0c47852fc2de877ace30af6439623b64deb159eb73f6880e8434420",
      "version": 1,
      "size": 226,
      "vsize": 226,
      "locktime": 0,
      "vin": [
        {
          "txid": "51f32ab2c8e3ad1a7a20bedd658691cf84f04a794f2575d2d67b965d0294765b",
          "vout": 1,
          "scriptSig": {
            "asm": "3045022100e53cf484f554c21de357ea28b195e07fdd07e6aebd8c9869697ea75838dd0ac3022058dd53d27a83faf5100c70d123e9732fa234e54d2a9158899eb41f11f048d2e2[ALL] 02d2a70cc62d9ecf097f22fd30520054ccde5188804f891de95f21561a9cc2e3a9",
            "hex": "483045022100e53cf484f554c21de357ea28b195e07fdd07e6aebd8c9869697ea75838dd0ac3022058dd53d27a83faf5100c70d123e9732fa234e54d2a9158899eb41f11f048d2e2012102d2a70cc62d9ecf097f22fd30520054ccde5188804f891de95f21561a9cc2e3a9"
          },
          "sequence": 4294967295
        }
      ],
      "vout": [
        {
          "value": 2.18353000,
          "n": 0,
          "scriptPubKey": {
            "asm": "OP_DUP OP_HASH160 603e40c86de263a508d2c0896a7c65a15fa4ed37 OP_EQUALVERIFY OP_CHECKSIG",
            "hex": "76a914603e40c86de263a508d2c0896a7c65a15fa4ed3788ac",
            "reqSigs": 1,
            "type": "pubkeyhash",
            "addresses": [
              "LTzqi3gYX8oenkgPxYxiP7boQ9MPM77k8L"
            ]
          }
        }, 
        {
          "value": 38.23559612,
          "n": 1,
          "scriptPubKey": {
            "asm": "OP_DUP OP_HASH160 1dcd8018fa46f9fd8c721d257ed6cc1f405d043d OP_EQUALVERIFY OP_CHECKSIG",
            "hex": "76a9141dcd8018fa46f9fd8c721d257ed6cc1f405d043d88ac",
            "reqSigs": 1,
            "type": "pubkeyhash",
            "addresses": [
              "LMwY3C99Wpo31hRK8y2fqDg8BrEXTXjhTz"
            ]
          }
        }
      ],
      "hex": "01000000015b7694025d967bd6d275254f794af084cf918665ddbe207a1aade3c8b22af351010000006b483045022100e53cf484f554c21de357ea28b195e07fdd07e6aebd8c9869697ea75838dd0ac3022058dd53d27a83faf5100c70d123e9732fa234e54d2a9158899eb41f11f048d2e2012102d2a70cc62d9ecf097f22fd30520054ccde5188804f891de95f21561a9cc2e3a9ffffffff0268cd030d000000001976a914603e40c86de263a508d2c0896a7c65a15fa4ed3788acbce3e6e3000000001976a9141dcd8018fa46f9fd8c721d257ed6cc1f405d043d88ac00000000"
    }, 
    {
      "txid": "324d85b2aa16c7010b35bba92354beb988aa5c3cf6a639bbe1887e9aafee4bcc",
      "hash": "324d85b2aa16c7010b35bba92354beb988aa5c3cf6a639bbe1887e9aafee4bcc",
      "version": 1,
      "size": 226,
      "vsize": 226,
      "locktime": 1360201,
      "vin": [
        {
          "txid": "c33375526ab1f3bbc83124b0be301eba00556f57f18c385728c9427007deb817",
          "vout": 0,
          "scriptSig": {
            "asm": "304502210099bfeb788bd18ec18e73daa5328505e16a0d8cbb3f6645f60cccc5c2d2d13b82022014e183925addaad7855c783f573c042dcf9e38b5bf408626dad3e9b21b868628[ALL] 0388cf9a7ea96dfaf4ba03b9d2bac32e9ffd2b180b81cf9699b132866d20955989",
            "hex": "48304502210099bfeb788bd18ec18e73daa5328505e16a0d8cbb3f6645f60cccc5c2d2d13b82022014e183925addaad7855c783f573c042dcf9e38b5bf408626dad3e9b21b86862801210388cf9a7ea96dfaf4ba03b9d2bac32e9ffd2b180b81cf9699b132866d20955989"
          },
          "sequence": 4294967294
        }
      ],
      "vout": [
        {
          "value": 0.19849347,
          "n": 0,
          "scriptPubKey": {
            "asm": "OP_DUP OP_HASH160 d2062053cd154095daf6894398b1f8f4ce072b37 OP_EQUALVERIFY OP_CHECKSIG",
            "hex": "76a914d2062053cd154095daf6894398b1f8f4ce072b3788ac",
            "reqSigs": 1,
            "type": "pubkeyhash",
            "addresses": [
              "LeNTWAA9Ur2iq3MQ7n1AUiDuKaqHECwMYu"
            ]
          }
        }, 
        {
          "value": 1.04672312,
          "n": 1,
          "scriptPubKey": {
            "asm": "OP_DUP OP_HASH160 5d458e5f3838cec1008217257e119f1a88433ebf OP_EQUALVERIFY OP_CHECKSIG",
            "hex": "76a9145d458e5f3838cec1008217257e119f1a88433ebf88ac",
            "reqSigs": 1,
            "type": "pubkeyhash",
            "addresses": [
              "LTj8Ru5AJi727ssFN4WEYCZPNRtw6pj5w8"
            ]
          }
        }
      ],
      "hex": "010000000117b8de077042c92857388cf1576f5500ba1e30beb02431c8bbf3b16a527533c3000000006b48304502210099bfeb788bd18ec18e73daa5328505e16a0d8cbb3f6645f60cccc5c2d2d13b82022014e183925addaad7855c783f573c042dcf9e38b5bf408626dad3e9b21b86862801210388cf9a7ea96dfaf4ba03b9d2bac32e9ffd2b180b81cf9699b132866d20955989feffffff0283e02e01000000001976a914d2062053cd154095daf6894398b1f8f4ce072b3788ac382c3d06000000001976a9145d458e5f3838cec1008217257e119f1a88433ebf88ac49c11400"
    }, 
    {
      "txid": "4292d211a051428cc54b19301c9a1aa94cc7f940f9a77122fe502bcdece9b2d8",
      "hash": "4292d211a051428cc54b19301c9a1aa94cc7f940f9a77122fe502bcdece9b2d8",
      "version": 1,
      "size": 226,
      "vsize": 226,
      "locktime": 0,
      "vin": [
        {
          "txid": "9127dda5cb9a1a67b1cd824509c05593fdcc5a4a9d1f9e015f5b37f125bf0a54",
          "vout": 0,
          "scriptSig": {
            "asm": "3045022100936ca88d0291abbee24815a8fbcdda0f65d8fbcab3c59aad9e605d970d61226a022057b787e8167946700e37884b27260fe4d6655873423d6be955d2bcf531df5e47[ALL] 03035375c5305de138ead33fb7230838b02906ad5e1fca2e3b6ecb07138a8acc69",
            "hex": "483045022100936ca88d0291abbee24815a8fbcdda0f65d8fbcab3c59aad9e605d970d61226a022057b787e8167946700e37884b27260fe4d6655873423d6be955d2bcf531df5e47012103035375c5305de138ead33fb7230838b02906ad5e1fca2e3b6ecb07138a8acc69"
          },
          "sequence": 4294967295
        }
      ],
      "vout": [
        {
          "value": 39.11406392,
          "n": 0,
          "scriptPubKey": {
            "asm": "OP_DUP OP_HASH160 3daae5c75ed4519e18da52df63361051aa704195 OP_EQUALVERIFY OP_CHECKSIG",
            "hex": "76a9143daae5c75ed4519e18da52df63361051aa70419588ac",
            "reqSigs": 1,
            "type": "pubkeyhash",
            "addresses": [
              "LQr2D5xMWWuWU6u1jY2hVJHHMq8j5eFwfe"
            ]
          }
        }, 
        {
          "value": 4.71066474,
          "n": 1,
          "scriptPubKey": {
            "asm": "OP_DUP OP_HASH160 c13626b04dc6189299277eef1f9d7c519b1e07bd OP_EQUALVERIFY OP_CHECKSIG",
            "hex": "76a914c13626b04dc6189299277eef1f9d7c519b1e07bd88ac",
            "reqSigs": 1,
            "type": "pubkeyhash",
            "addresses": [
              "LcqZYis4snZL1DXLbkjuBtb2zPutEQfQeS"
            ]
          }
        }
      ],
      "hex": "0100000001540abf25f1375b5f019e1f9d4a5accfd9355c0094582cdb1671a9acba5dd2791000000006b483045022100936ca88d0291abbee24815a8fbcdda0f65d8fbcab3c59aad9e605d970d61226a022057b787e8167946700e37884b27260fe4d6655873423d6be955d2bcf531df5e47012103035375c5305de138ead33fb7230838b02906ad5e1fca2e3b6ecb07138a8acc69ffffffff02385323e9000000001976a9143daae5c75ed4519e18da52df63361051aa70419588ac6ae7131c000000001976a914c13626b04dc6189299277eef1f9d7c519b1e07bd88ac00000000"
    }
  ],
  "time": 1517390361,
  "mediantime": 1517389167,
  "nonce": 659097475,
  "bits": "1a042eae",
  "difficulty": 4011378.762614286,
  "chainwork": "000000000000000000000000000000000000000000000034b82bb8c70643e198",
  "previousblockhash": "715b546813ece4f6fded75554ee66d259e3b5956e72f020340a552340f8ca687",
  "nextblockhash": "a3d0de2a920e3e446d4f273d6cc634f567124d2e2d457caac91f634d28af17df"
}
