{
  "hash": "6291701bc1aa2a130c32d1dde7896fcf5eafbdec6d4129be3d6c587840fea9f4",
  "confirmations": 2387,
  "strippedsize": 2069,
  "size": 2214,
  "weight": 8421,
  "height": 1358608,
  "version": 536870912,
  "versionHex": "20000000",
  "merkleroot": "a85247326b73d50f67733ba0a402be6c2ecd8aa9ab7a5fead76e2071965da57b",
  "tx": [
    {
      "txid": "e5f572ef7b483b70bfc9f4aeb36f903b83f765bf6675b590204cb4504e87e55d",
      "hash": "843a120f44c033ccfaff1f6e79f3fb44a5e246feb057eecdb1e336568e8e5046",
      "version": 1,
      "size": 236,
      "vsize": 209,
      "locktime": 0,
      "vin": [
        {
          "coinbase": "0310bb14045a6e1c952cfabe6d6d4d5ee754b6f9a180115737fb3efdc03aace9c4c845f6ef8bee0374a8113142234000000000000000042f4c502f0858004ee20d000000",
          "sequence": 4294967295
        }
      ],
      "vout": [
        {
          "value": 25.01171800,
          "n": 0,
          "scriptPubKey": {
            "asm": "OP_DUP OP_HASH160 57757ed2ecf2052ff3126c397aca7defb9ca2cec OP_EQUALVERIFY OP_CHECKSIG",
            "hex": "76a91457757ed2ecf2052ff3126c397aca7defb9ca2cec88ac",
            "reqSigs": 1,
            "type": "pubkeyhash",
            "addresses": [
              "LTCPodGk5FwcJaRzH9yKnwicxzFUbxp6tN"
            ]
          }
        }, 
        {
          "value": 0.00000000,
          "n": 1,
          "scriptPubKey": {
            "asm": "OP_RETURN aa21a9edd76ca456fb806790ad717c70dc881ea6a4c2febf2d9de93a8766af9619046d0d",
            "hex": "6a24aa21a9edd76ca456fb806790ad717c70dc881ea6a4c2febf2d9de93a8766af9619046d0d",
            "type": "nulldata"
          }
        }
      ],
      "hex": "010000000001010000000000000000000000000000000000000000000000000000000000000000ffffffff440310bb14045a6e1c952cfabe6d6d4d5ee754b6f9a180115737fb3efdc03aace9c4c845f6ef8bee0374a8113142234000000000000000042f4c502f0858004ee20d000000ffffffff0258da1495000000001976a91457757ed2ecf2052ff3126c397aca7defb9ca2cec88ac0000000000000000266a24aa21a9edd76ca456fb806790ad717c70dc881ea6a4c2febf2d9de93a8766af9619046d0d0120000000000000000000000000000000000000000000000000000000000000000000000000"
    }, 
    {
      "txid": "0dfac8c2a52546611ead5c367adf729bf14073d2ad8327725e1e041a74e53dca",
      "hash": "0dfac8c2a52546611ead5c367adf729bf14073d2ad8327725e1e041a74e53dca",
      "version": 1,
      "size": 373,
      "vsize": 373,
      "locktime": 0,
      "vin": [
        {
          "txid": "f1e5e23370498b45be5120fad6f1823740587513b28b1b4c8c7d60b9b4b48836",
          "vout": 0,
          "scriptSig": {
            "asm": "0 3045022100f9a1aa2748e2612f5041b443f2e2e5ce8b607df4aac111ac474c4e73f354e6b8022055430989100fd48531c6716669e80791e2c10910fcf2de7670ae6892a99b10a2[ALL] 3045022100e322105e928e5fc18cd20ee00f5c03b401ed2a262d36bc8563937641a71c8fad02203d9b1c4fd930faf7f31d3fd67d0034819e23d47b252fe05fe08706e1693d4ab5[ALL] 5221021faf859820be30633a6f7b7c80ca9b7fe0e59583de28c5cc0b3348c0b8aa021a21027f91d4d7861e2919b88facee6c41458f58978dfd4a43c96281185017f0576e2821037c4af3b09e10942d7e33975da48cd41fc320ad709c17bde4baf3d02927a1f44b53ae",
            "hex": "00483045022100f9a1aa2748e2612f5041b443f2e2e5ce8b607df4aac111ac474c4e73f354e6b8022055430989100fd48531c6716669e80791e2c10910fcf2de7670ae6892a99b10a201483045022100e322105e928e5fc18cd20ee00f5c03b401ed2a262d36bc8563937641a71c8fad02203d9b1c4fd930faf7f31d3fd67d0034819e23d47b252fe05fe08706e1693d4ab5014c695221021faf859820be30633a6f7b7c80ca9b7fe0e59583de28c5cc0b3348c0b8aa021a21027f91d4d7861e2919b88facee6c41458f58978dfd4a43c96281185017f0576e2821037c4af3b09e10942d7e33975da48cd41fc320ad709c17bde4baf3d02927a1f44b53ae"
          },
          "sequence": 4294967295
        }
      ],
      "vout": [
        {
          "value": 0.11475700,
          "n": 0,
          "scriptPubKey": {
            "asm": "OP_DUP OP_HASH160 707c3839862b4c9256228d4e2016d2dc3c33cfaa OP_EQUALVERIFY OP_CHECKSIG",
            "hex": "76a914707c3839862b4c9256228d4e2016d2dc3c33cfaa88ac",
            "reqSigs": 1,
            "type": "pubkeyhash",
            "addresses": [
              "LVUikdSS5QSMaCVAXRQhypFp2CPiVb1Ke7"
            ]
          }
        }, 
        {
          "value": 0.57550307,
          "n": 1,
          "scriptPubKey": {
            "asm": "OP_HASH160 5246a57827247927cd7b6ca16bad368a83499022 OP_EQUAL",
            "hex": "a9145246a57827247927cd7b6ca16bad368a8349902287",
            "reqSigs": 1,
            "type": "scripthash",
            "addresses": [
              "MFQCGknbjHYzGb7dHtK3qsdEWLLPdt7sdo"
            ]
          }
        }
      ],
      "hex": "01000000013688b4b4b9607d8c4c1b8bb2137558403782f1d6fa2051be458b497033e2e5f100000000fdfe0000483045022100f9a1aa2748e2612f5041b443f2e2e5ce8b607df4aac111ac474c4e73f354e6b8022055430989100fd48531c6716669e80791e2c10910fcf2de7670ae6892a99b10a201483045022100e322105e928e5fc18cd20ee00f5c03b401ed2a262d36bc8563937641a71c8fad02203d9b1c4fd930faf7f31d3fd67d0034819e23d47b252fe05fe08706e1693d4ab5014c695221021faf859820be30633a6f7b7c80ca9b7fe0e59583de28c5cc0b3348c0b8aa021a21027f91d4d7861e2919b88facee6c41458f58978dfd4a43c96281185017f0576e2821037c4af3b09e10942d7e33975da48cd41fc320ad709c17bde4baf3d02927a1f44b53aeffffffff02f41aaf00000000001976a914707c3839862b4c9256228d4e2016d2dc3c33cfaa88ace3256e030000000017a9145246a57827247927cd7b6ca16bad368a834990228700000000"
    }, 
    {
      "txid": "0d7c20178bb692f94bafbed3b4cbf866ffb7b5a8f87c1607e5e243b65730d443",
      "hash": "0d7c20178bb692f94bafbed3b4cbf866ffb7b5a8f87c1607e5e243b65730d443",
      "version": 2,
      "size": 225,
      "vsize": 225,
      "locktime": 1358606,
      "vin": [
        {
          "txid": "7a5fb88e4633b3761135e9ad8d74c9109482e59c3b87ee2191453178fc5d10a6",
          "vout": 0,
          "scriptSig": {
            "asm": "3044022077d3ff9a8d7a34a3de07f9e3d7d550749854df69fdda8b56eeecdf61def813f502205bf56cb2f0ed50f15e4b4bf9793ae7600469f8a1b9ba763d1e4854297e504eea[ALL] 03f97f0cd265d2653587ed056f9b267d8d204538beae4fd547432171b55ca029bd",
            "hex": "473044022077d3ff9a8d7a34a3de07f9e3d7d550749854df69fdda8b56eeecdf61def813f502205bf56cb2f0ed50f15e4b4bf9793ae7600469f8a1b9ba763d1e4854297e504eea012103f97f0cd265d2653587ed056f9b267d8d204538beae4fd547432171b55ca029bd"
          },
          "sequence": 4294967294
        }
      ],
      "vout": [
        {
          "value": 3.75900000,
          "n": 0,
          "scriptPubKey": {
            "asm": "OP_DUP OP_HASH160 b1af243e1406ec2acd0aa7ce13235c555818163e OP_EQUALVERIFY OP_CHECKSIG",
            "hex": "76a914b1af243e1406ec2acd0aa7ce13235c555818163e88ac",
            "reqSigs": 1,
            "type": "pubkeyhash",
            "addresses": [
              "LbRTgDXUw8qafxvHJXQtLr9hPK4baS4Pt5"
            ]
          }
        }, 
        {
          "value": 437.89005836,
          "n": 1,
          "scriptPubKey": {
            "asm": "OP_DUP OP_HASH160 181aabac4d6b462f22f50bd2d1c2887f028a5126 OP_EQUALVERIFY OP_CHECKSIG",
            "hex": "76a914181aabac4d6b462f22f50bd2d1c2887f028a512688ac",
            "reqSigs": 1,
            "type": "pubkeyhash",
            "addresses": [
              "LMRQRvTnHpk8xgJbmR4BN2Yad5SF93zy1f"
            ]
          }
        }
      ],
      "hex": "0200000001a6105dfc7831459121ee873b9ce5829410c9748dade9351176b333468eb85f7a000000006a473044022077d3ff9a8d7a34a3de07f9e3d7d550749854df69fdda8b56eeecdf61def813f502205bf56cb2f0ed50f15e4b4bf9793ae7600469f8a1b9ba763d1e4854297e504eea012103f97f0cd265d2653587ed056f9b267d8d204538beae4fd547432171b55ca029bdfeffffff0260c76716000000001976a914b1af243e1406ec2acd0aa7ce13235c555818163e88ac0c3407320a0000001976a914181aabac4d6b462f22f50bd2d1c2887f028a512688ac0ebb1400"
    }, 
    {
      "txid": "ed3e89fbaaf9d33babee75927fa8141ca82e9c7b6f8d4a16ad0de3450acc5748",
      "hash": "ed3e89fbaaf9d33babee75927fa8141ca82e9c7b6f8d4a16ad0de3450acc5748",
      "version": 1,
      "size": 225,
      "vsize": 225,
      "locktime": 0,
      "vin": [
        {
          "txid": "8c648dcc3b9839e058e94a6db5f8fdd997bb8a5460f1b4f919c0949f312ac111",
          "vout": 1,
          "scriptSig": {
            "asm": "304402201dfe05c78480501a4ad441b44f14c90e8bc7273c6ce6fdecab924bb5f482077f022014c94001abb0985b44123c7e3bd68be143a0fe8505cd734f794ee7580768173a[ALL] 03c9b2842db90e430f21f458b95798229da5e54eb25a178b6bbba5a6381575674f",
            "hex": "47304402201dfe05c78480501a4ad441b44f14c90e8bc7273c6ce6fdecab924bb5f482077f022014c94001abb0985b44123c7e3bd68be143a0fe8505cd734f794ee7580768173a012103c9b2842db90e430f21f458b95798229da5e54eb25a178b6bbba5a6381575674f"
          },
          "sequence": 4294967295
        }
      ],
      "vout": [
        {
          "value": 0.01348296,
          "n": 0,
          "scriptPubKey": {
            "asm": "OP_DUP OP_HASH160 60dc2adeadd0f8f4b88f07a2ea5c65f7ac765855 OP_EQUALVERIFY OP_CHECKSIG",
            "hex": "76a91460dc2adeadd0f8f4b88f07a2ea5c65f7ac76585588ac",
            "reqSigs": 1,
            "type": "pubkeyhash",
            "addresses": [
              "LU46t8cVyih9dDwcNx1XWuGfZwW61ebDnt"
            ]
          }
        }, 
        {
          "value": 0.20380056,
          "n": 1,
          "scriptPubKey": {
            "asm": "OP_DUP OP_HASH160 2652f22529f43caf6d776d43b2b124edbe50721f OP_EQUALVERIFY OP_CHECKSIG",
            "hex": "76a9142652f22529f43caf6d776d43b2b124edbe50721f88ac",
            "reqSigs": 1,
            "type": "pubkeyhash",
            "addresses": [
              "LNibJgaw5WE4SubPidDt4vXQyub5frasWD"
            ]
          }
        }
      ],
      "hex": "010000000111c12a319f94c019f9b4f160548abb97d9fdf8b56d4ae958e039983bcc8d648c010000006a47304402201dfe05c78480501a4ad441b44f14c90e8bc7273c6ce6fdecab924bb5f482077f022014c94001abb0985b44123c7e3bd68be143a0fe8505cd734f794ee7580768173a012103c9b2842db90e430f21f458b95798229da5e54eb25a178b6bbba5a6381575674fffffffff02c8921400000000001976a91460dc2adeadd0f8f4b88f07a2ea5c65f7ac76585588ac98f93601000000001976a9142652f22529f43caf6d776d43b2b124edbe50721f88ac00000000"
    }, 
    {
      "txid": "bc09cdd5b4fb4bf1dbe6674de132b3f22b410e44bd398e4ba0588fbfcbabb0f8",
      "hash": "bc09cdd5b4fb4bf1dbe6674de132b3f22b410e44bd398e4ba0588fbfcbabb0f8",
      "version": 2,
      "size": 225,
      "vsize": 225,
      "locktime": 1358606,
      "vin": [
        {
          "txid": "c12958c1931cc3e329667643573837480b2aec3077a514676dec024911c6d9da",
          "vout": 1,
          "scriptSig": {
            "asm": "3044022017ef2000ccdb7b31798b3b7919edc6758e38aeb869a1f82bff91933e3387f5d3022022c061410b2d9b1da95cdf74eff7544cc4c0483d07246c85c19db6e66dbd4b5f[ALL] 0382c65795c7c6b4314db8c9c2a06713b947205e7833547d9255fb68e453344376",
            "hex": "473044022017ef2000ccdb7b31798b3b7919edc6758e38aeb869a1f82bff91933e3387f5d3022022c061410b2d9b1da95cdf74eff7544cc4c0483d07246c85c19db6e66dbd4b5f01210382c65795c7c6b4314db8c9c2a06713b947205e7833547d9255fb68e453344376"
          },
          "sequence": 4294967294
        }
      ],
      "vout": [
        {
          "value": 1.44679588,
          "n": 0,
          "scriptPubKey": {
            "asm": "OP_DUP OP_HASH160 0eddd66e38b91bb0e5b127d6a4aa7b5fbd524883 OP_EQUALVERIFY OP_CHECKSIG",
            "hex": "76a9140eddd66e38b91bb0e5b127d6a4aa7b5fbd52488388ac",
            "reqSigs": 1,
            "type": "pubkeyhash",
            "addresses": [
              "LLaZUSrnEKCWrDPn77JGfwZEhkFP44x1if"
            ]
          }
        }, 
        {
          "value": 440.66813193,
          "n": 1,
          "scriptPubKey": {
            "asm": "OP_DUP OP_HASH160 9c4c0894159bb944a5b2e0edb8798f18de880bc0 OP_EQUALVERIFY OP_CHECKSIG",
            "hex": "76a9149c4c0894159bb944a5b2e0edb8798f18de880bc088ac",
            "reqSigs": 1,
            "type": "pubkeyhash",
            "addresses": [
              "LZUNm3Es319E12ET9TxAaD1pf4HRGBK4PA"
            ]
          }
        }
      ],
      "hex": "0200000001dad9c6114902ec6d6714a57730ec2a0b4837385743766629e3c31c93c15829c1010000006a473044022017ef2000ccdb7b31798b3b7919edc6758e38aeb869a1f82bff91933e3387f5d3022022c061410b2d9b1da95cdf74eff7544cc4c0483d07246c85c19db6e66dbd4b5f01210382c65795c7c6b4314db8c9c2a06713b947205e7833547d9255fb68e453344376feffffff02a4a29f08000000001976a9140eddd66e38b91bb0e5b127d6a4aa7b5fbd52488388ac093596420a0000001976a9149c4c0894159bb944a5b2e0edb8798f18de880bc088ac0ebb1400"
    }, 
    {
      "txid": "b5091439db20b47d537561a7e1c93a0587d22e2cfdf0c075052b7f1a8212dac6",
      "hash": "b5091439db20b47d537561a7e1c93a0587d22e2cfdf0c075052b7f1a8212dac6",
      "version": 1,
      "size": 226,
      "vsize": 226,
      "locktime": 0,
      "vin": [
        {
          "txid": "54ab63996737cd92314debaaa3e55d89e74fc45bf9f93473d0b4085b6c6cc2dd",
          "vout": 1,
          "scriptSig": {
            "asm": "3045022100b8f0fa63889e2aa14214d56abe8c01f791e90a234b252b02cc83affdde41ca0b022002a0fd05f2eaef2d87a8ef454ee60a0a1e443d004edb84e836fbfbf707e7457c[ALL] 022b5b69d2906f790547cc2d540edb2e4606dbc1c36efa0384fafdb2967ee879e0",
            "hex": "483045022100b8f0fa63889e2aa14214d56abe8c01f791e90a234b252b02cc83affdde41ca0b022002a0fd05f2eaef2d87a8ef454ee60a0a1e443d004edb84e836fbfbf707e7457c0121022b5b69d2906f790547cc2d540edb2e4606dbc1c36efa0384fafdb2967ee879e0"
          },
          "sequence": 4294967295
        }
      ],
      "vout": [
        {
          "value": 10.85000000,
          "n": 0,
          "scriptPubKey": {
            "asm": "OP_DUP OP_HASH160 79747b8f78f9a1ff83fe75db902b84761a5bf3fe OP_EQUALVERIFY OP_CHECKSIG",
            "hex": "76a91479747b8f78f9a1ff83fe75db902b84761a5bf3fe88ac",
            "reqSigs": 1,
            "type": "pubkeyhash",
            "addresses": [
              "LWJ9ZnH52EJ2R2Nnycb1Rz9rej91C8vdnp"
            ]
          }
        }, 
        {
          "value": 86.45041900,
          "n": 1,
          "scriptPubKey": {
            "asm": "OP_DUP OP_HASH160 b7491494d5ee37016a4770670c6a5fa2cb9fc738 OP_EQUALVERIFY OP_CHECKSIG",
            "hex": "76a914b7491494d5ee37016a4770670c6a5fa2cb9fc73888ac",
            "reqSigs": 1,
            "type": "pubkeyhash",
            "addresses": [
              "Lbw5U2ryxYV3cFGdkoJfwTz9CAxxQJZKfB"
            ]
          }
        }
      ],
      "hex": "0100000001ddc26c6c5b08b4d07334f9f95bc44fe7895de5a3aaeb4d3192cd37679963ab54010000006b483045022100b8f0fa63889e2aa14214d56abe8c01f791e90a234b252b02cc83affdde41ca0b022002a0fd05f2eaef2d87a8ef454ee60a0a1e443d004edb84e836fbfbf707e7457c0121022b5b69d2906f790547cc2d540edb2e4606dbc1c36efa0384fafdb2967ee879e0ffffffff0240c9ab40000000001976a91479747b8f78f9a1ff83fe75db902b84761a5bf3fe88acecde4803020000001976a914b7491494d5ee37016a4770670c6a5fa2cb9fc73888ac00000000"
    }, 
    {
      "txid": "4ca3d762e3bb841166835b880f8f5adac9b2113f1368f4257b1af223d5173cd6",
      "hash": "4ca3d762e3bb841166835b880f8f5adac9b2113f1368f4257b1af223d5173cd6",
      "version": 2,
      "size": 374,
      "vsize": 374,
      "locktime": 1358606,
      "vin": [
        {
          "txid": "8cb26b79ddc69192040a66c7494093e9d61b4d46ce89ba5fbc73f6fdfe0330d0",
          "vout": 93,
          "scriptSig": {
            "asm": "3045022100f9c07c855bfc480a4c9146008f17fa3d87bd4c2b891af6a71cf1ead917226121022040a902762e2cff50b4108b001ef669ce88ad3f762e172df3ae2635331752cb70[ALL] 03b7e1afc9d4578c9ec69f6d38006ce63b28e9ad3add4666173a4b905df2af315e",
            "hex": "483045022100f9c07c855bfc480a4c9146008f17fa3d87bd4c2b891af6a71cf1ead917226121022040a902762e2cff50b4108b001ef669ce88ad3f762e172df3ae2635331752cb70012103b7e1afc9d4578c9ec69f6d38006ce63b28e9ad3add4666173a4b905df2af315e"
          },
          "sequence": 4294967294
        }, 
        {
          "txid": "c3e0a9117fa086962a03ccd1de303f42d3ffdfc6813f9e0b07b5dc2661c26087",
          "vout": 1,
          "scriptSig": {
            "asm": "3045022100a95898945264c1d9e35022dac0f6382beea5c0fc1f4325e82828f88cca881ab2022031f0b940ad696441106442774cbec98c458d57350e675595f4a74a6efa778da9[ALL] 030ab051916dec79a24ccd567c2dff94566d93e0cd0f5c3162ec155d985cfc6cc3",
            "hex": "483045022100a95898945264c1d9e35022dac0f6382beea5c0fc1f4325e82828f88cca881ab2022031f0b940ad696441106442774cbec98c458d57350e675595f4a74a6efa778da90121030ab051916dec79a24ccd567c2dff94566d93e0cd0f5c3162ec155d985cfc6cc3"
          },
          "sequence": 4294967294
        }
      ],
      "vout": [
        {
          "value": 0.01176753,
          "n": 0,
          "scriptPubKey": {
            "asm": "OP_DUP OP_HASH160 260f2fcf2a1b63ebdb7184107358bec73eb23b1f OP_EQUALVERIFY OP_CHECKSIG",
            "hex": "76a914260f2fcf2a1b63ebdb7184107358bec73eb23b1f88ac",
            "reqSigs": 1,
            "type": "pubkeyhash",
            "addresses": [
              "LNhC8hNGR9gDNXGPViR1eRuJFiGNrpTxj9"
            ]
          }
        }, 
        {
          "value": 0.13027734,
          "n": 1,
          "scriptPubKey": {
            "asm": "OP_DUP OP_HASH160 ef2808f539f7025006501c973c7821ec5fe04eef OP_EQUALVERIFY OP_CHECKSIG",
            "hex": "76a914ef2808f539f7025006501c973c7821ec5fe04eef88ac",
            "reqSigs": 1,
            "type": "pubkeyhash",
            "addresses": [
              "Lh2VijuEx79mfDyQui9JL3kHaMcujACEZB"
            ]
          }
        }
      ],
      "hex": "0200000002d03003fefdf673bc5fba89ce464d1bd6e9934049c7660a049291c6dd796bb28c5d0000006b483045022100f9c07c855bfc480a4c9146008f17fa3d87bd4c2b891af6a71cf1ead917226121022040a902762e2cff50b4108b001ef669ce88ad3f762e172df3ae2635331752cb70012103b7e1afc9d4578c9ec69f6d38006ce63b28e9ad3add4666173a4b905df2af315efeffffff8760c26126dcb5070b9e3f81c6dfffd3423f30ded1cc032a9686a07f11a9e0c3010000006b483045022100a95898945264c1d9e35022dac0f6382beea5c0fc1f4325e82828f88cca881ab2022031f0b940ad696441106442774cbec98c458d57350e675595f4a74a6efa778da90121030ab051916dec79a24ccd567c2dff94566d93e0cd0f5c3162ec155d985cfc6cc3feffffff02b1f41100000000001976a914260f2fcf2a1b63ebdb7184107358bec73eb23b1f88ac96c9c600000000001976a914ef2808f539f7025006501c973c7821ec5fe04eef88ac0ebb1400"
    }, 
    {
      "txid": "538308e4bc110528f1d1ee39f3555401da77c371a4417ca9d848d866eeafad9a",
      "hash": "cf8e369792d81590abbad1b3fed5467731d519e40631ab2c02c98d1c2aa6b160",
      "version": 1,
      "size": 249,
      "vsize": 168,
      "locktime": 0,
      "vin": [
        {
          "txid": "4b2b9c7bc784cc78238cecff157cbe919867c57c476eb011b9fed8cc321904fe",
          "vout": 1,
          "scriptSig": {
            "asm": "00149a636d0c8241c3263865b3fb21836351b0280d27",
            "hex": "1600149a636d0c8241c3263865b3fb21836351b0280d27"
          },
          "txinwitness": [
            "304402203a5f90bab786bcabe9aa60e2cd44fcd0022da5a1d2de76f1d16aba27440f7386022064730b1ccd340d29b5cc057cc7997833e8ffa95b778525822c268f313cbfcc5201", 
            "03edc57bade7a3fbafa50b70d8ea2225c074d96a1b646833b42af67b366f52760d"
          ],
          "sequence": 4294967295
        }
      ],
      "vout": [
        {
          "value": 2.49890000,
          "n": 0,
          "scriptPubKey": {
            "asm": "OP_DUP OP_HASH160 27914d0bee19ad2fbf67761a03d4ed58411e0e18 OP_EQUALVERIFY OP_CHECKSIG",
            "hex": "76a91427914d0bee19ad2fbf67761a03d4ed58411e0e1888ac",
            "reqSigs": 1,
            "type": "pubkeyhash",
            "addresses": [
              "LNqAgP8NWVHuRfQi84rHsf7j4daHuuT5TQ"
            ]
          }
        }, 
        {
          "value": 0.00090000,
          "n": 1,
          "scriptPubKey": {
            "asm": "OP_HASH160 96cac5eb04fd74345400b4d4cb14d34fbbfd0dc0 OP_EQUAL",
            "hex": "a91496cac5eb04fd74345400b4d4cb14d34fbbfd0dc087",
            "reqSigs": 1,
            "type": "scripthash",
            "addresses": [
              "MMeUW8NeS2E5srwBcaTxcUNZgSrxwv9KdH"
            ]
          }
        }
      ],
      "hex": "01000000000101fe041932ccd8feb911b06e477cc5679891be7c15ffec8c2378cc84c77b9c2b4b01000000171600149a636d0c8241c3263865b3fb21836351b0280d27ffffffff02d004e50e000000001976a91427914d0bee19ad2fbf67761a03d4ed58411e0e1888ac905f01000000000017a91496cac5eb04fd74345400b4d4cb14d34fbbfd0dc0870247304402203a5f90bab786bcabe9aa60e2cd44fcd0022da5a1d2de76f1d16aba27440f7386022064730b1ccd340d29b5cc057cc7997833e8ffa95b778525822c268f313cbfcc52012103edc57bade7a3fbafa50b70d8ea2225c074d96a1b646833b42af67b366f52760d00000000"
    }
  ],
  "time": 1517165717,
  "mediantime": 1517164870,
  "nonce": 3614565920,
  "bits": "1a047f14",
  "difficulty": 3731199.183374282,
  "chainwork": "0000000000000000000000000000000000000000000000333dba6551b2180eba",
  "previousblockhash": "4393d0a0c2f4e36bcbab2ad35e8be41aa2c698179620b77ed680f839c4abed68",
  "nextblockhash": "200f48e457d5398f1eb968801fc765014782617069a4462398a053a441525443"
}
