{
  "hash": "62d480e38a2555939aec2de9b5cd2321cea5be3335ad52785548583592a543af",
  "confirmations": 2767,
  "strippedsize": 266,
  "size": 266,
  "weight": 1064,
  "height": 1358228,
  "version": 536870912,
  "versionHex": "20000000",
  "merkleroot": "a9fa6162ed50b17d8d109480d4da166b807aa1f3d3f50108f9439a0ed4253cfa",
  "tx": [
    {
      "txid": "a9fa6162ed50b17d8d109480d4da166b807aa1f3d3f50108f9439a0ed4253cfa",
      "hash": "a9fa6162ed50b17d8d109480d4da166b807aa1f3d3f50108f9439a0ed4253cfa",
      "version": 1,
      "size": 185,
      "vsize": 185,
      "locktime": 957656930,
      "vin": [
        {
          "coinbase": "0394b9142cfabe6d6dd1be8b321ee77872dc06155078362ca954bfe5f1282740de63b16b4077bc077a08000000f09f909f134d696e65642062792064617572656e3139383900000000000000000000000000000000000000000000000000000000000000",
          "sequence": 3
        }
      ],
      "vout": [
        {
          "value": 25.00000000,
          "n": 0,
          "scriptPubKey": {
            "asm": "OP_DUP OP_HASH160 aa3750aa18b8a0f3f0590731e1fab934856680cf OP_EQUALVERIFY OP_CHECKSIG",
            "hex": "76a914aa3750aa18b8a0f3f0590731e1fab934856680cf88ac",
            "reqSigs": 1,
            "type": "pubkeyhash",
            "addresses": [
              "LajyQBeZaBA1NkZDeY8YT5RYYVRkXMvb2T"
            ]
          }
        }
      ],
      "hex": "01000000010000000000000000000000000000000000000000000000000000000000000000ffffffff640394b9142cfabe6d6dd1be8b321ee77872dc06155078362ca954bfe5f1282740de63b16b4077bc077a08000000f09f909f134d696e65642062792064617572656e3139383900000000000000000000000000000000000000000000000000000000000000030000000100f90295000000001976a914aa3750aa18b8a0f3f0590731e1fab934856680cf88ac62af1439"
    }
  ],
  "time": 1517110440,
  "mediantime": 1517109123,
  "nonce": 3658830292,
  "bits": "1a047f14",
  "difficulty": 3731199.183374282,
  "chainwork": "000000000000000000000000000000000000000000000032e9374e04ec24d822",
  "previousblockhash": "b30dd7b7b1509b7cb0ce9286317783010f8efafa6b8050dc13c1efddaea06da1",
  "nextblockhash": "7e535f42c22c85e520b56fc0a5ca73f3d7bd42d9c18cd0daf5ac743a85651d3e"
}
