{
  "hash": "62de86ca5476f435719411a4ccac723415452317a74f31d0aca7f090cb8fc3a0",
  "confirmations": 3027,
  "strippedsize": 234,
  "size": 234,
  "weight": 936,
  "height": 1357968,
  "version": 536870912,
  "versionHex": "20000000",
  "merkleroot": "5df72eb90df0a3be426dff2bfa08cf89a3e25191697ddda128102701e9f08285",
  "tx": [
    {
      "txid": "5df72eb90df0a3be426dff2bfa08cf89a3e25191697ddda128102701e9f08285",
      "hash": "5df72eb90df0a3be426dff2bfa08cf89a3e25191697ddda128102701e9f08285",
      "version": 1,
      "size": 153,
      "vsize": 153,
      "locktime": 0,
      "vin": [
        {
          "coinbase": "0390b814045a6caa942cfabe6d6dad24c0cdfeb5fea79d4a2e52255fd3f108a939834bbace01fc961bd2b1654bba4000000000000000042f4c502f085600034a0e000000",
          "sequence": 4294967295
        }
      ],
      "vout": [
        {
          "value": 25.00000000,
          "n": 0,
          "scriptPubKey": {
            "asm": "OP_DUP OP_HASH160 57757ed2ecf2052ff3126c397aca7defb9ca2cec OP_EQUALVERIFY OP_CHECKSIG",
            "hex": "76a91457757ed2ecf2052ff3126c397aca7defb9ca2cec88ac",
            "reqSigs": 1,
            "type": "pubkeyhash",
            "addresses": [
              "LTCPodGk5FwcJaRzH9yKnwicxzFUbxp6tN"
            ]
          }
        }
      ],
      "hex": "01000000010000000000000000000000000000000000000000000000000000000000000000ffffffff440390b814045a6caa942cfabe6d6dad24c0cdfeb5fea79d4a2e52255fd3f108a939834bbace01fc961bd2b1654bba4000000000000000042f4c502f085600034a0e000000ffffffff0100f90295000000001976a91457757ed2ecf2052ff3126c397aca7defb9ca2cec88ac00000000"
    }
  ],
  "time": 1517070996,
  "mediantime": 1517070828,
  "nonce": 1669481986,
  "bits": "1a047f14",
  "difficulty": 3731199.183374282,
  "chainwork": "000000000000000000000000000000000000000000000032af64590649c1cdba",
  "previousblockhash": "5dab5e6fe79c8738d11c7b5157a4259b69cfbb961cccdeefcdc3b2075a464db8",
  "nextblockhash": "6e134299d1ee3e5c1cfe68e7538f151ce84141d97609dedab5fdb7b890e7821f"
}
