{
  "hash": "62e52bc0c0d0b27d2c39fc8643d07a2d266fa0d553bfc5691ebd9ca1acbe9eab",
  "confirmations": 1073,
  "strippedsize": 3397,
  "size": 3433,
  "weight": 13624,
  "height": 1359921,
  "version": 536870912,
  "versionHex": "20000000",
  "merkleroot": "c4ecef133296bba81c30bbd71f56d6da6286efad47869d73b6ee072cd062fc9f",
  "tx": [
    {
      "txid": "34d427b69ddb00d0eeb0f1f153ee26a93a04ea7e13738d6199dcf3a3afb4eedd",
      "hash": "6b8441043d57fb7da93cef88a434960a187d4cb2b723cb955dde1be8e84d929b",
      "version": 1,
      "size": 258,
      "vsize": 231,
      "locktime": 0,
      "vin": [
        {
          "coinbase": "0331c014172f5669614254432f4d696e65642062792073327835322f2cfabe6d6d6ac659256e7daa4165c05a322fd61dd23debd97c652b4b0f41e863074e400db70100000000000000103b84cd002474dbcbb9f6e0d646010000",
          "sequence": 4294967295
        }
      ],
      "vout": [
        {
          "value": 25.00363600,
          "n": 0,
          "scriptPubKey": {
            "asm": "OP_DUP OP_HASH160 e16c28146ed4869c190b3f0bdc18d80d45f92134 OP_EQUALVERIFY OP_CHECKSIG",
            "hex": "76a914e16c28146ed4869c190b3f0bdc18d80d45f9213488ac",
            "reqSigs": 1,
            "type": "pubkeyhash",
            "addresses": [
              "LfmssDyX6iZvbVqHv6t9P6JWXia2JG7mdb"
            ]
          }
        }, 
        {
          "value": 0.00000000,
          "n": 1,
          "scriptPubKey": {
            "asm": "OP_RETURN aa21a9edb86482ce59264d35682e8c50affa6f4cc1c5e64780856278dbff40e32fb16eac",
            "hex": "6a24aa21a9edb86482ce59264d35682e8c50affa6f4cc1c5e64780856278dbff40e32fb16eac",
            "type": "nulldata"
          }
        }
      ],
      "hex": "010000000001010000000000000000000000000000000000000000000000000000000000000000ffffffff5a0331c014172f5669614254432f4d696e65642062792073327835322f2cfabe6d6d6ac659256e7daa4165c05a322fd61dd23debd97c652b4b0f41e863074e400db70100000000000000103b84cd002474dbcbb9f6e0d646010000ffffffff0250850895000000001976a914e16c28146ed4869c190b3f0bdc18d80d45f9213488ac0000000000000000266a24aa21a9edb86482ce59264d35682e8c50affa6f4cc1c5e64780856278dbff40e32fb16eac0120000000000000000000000000000000000000000000000000000000000000000000000000"
    }, 
    {
      "txid": "5b4dac01cce3163433c82beacc4ee9bb2753a2dcbf4c893f72493592394f8ca2",
      "hash": "5b4dac01cce3163433c82beacc4ee9bb2753a2dcbf4c893f72493592394f8ca2",
      "version": 1,
      "size": 225,
      "vsize": 225,
      "locktime": 0,
      "vin": [
        {
          "txid": "cc590cf8d1a8ffd4016f218e5f4cb2a29f10a35df1af14a423862944bbf6326b",
          "vout": 1,
          "scriptSig": {
            "asm": "3044022063b1741d0e05396e6fe1498e60841b0a53871fefdc803d0b21558bb9602e975f02202954825bdb87e35fcf76cacfe77a9a2b6ea04077859b1448b19c5a9dbecb42cd[ALL] 026d99635c53523b6ead732ac985c594ee2e4da36c8ac06be438c7c7e2828a514c",
            "hex": "473044022063b1741d0e05396e6fe1498e60841b0a53871fefdc803d0b21558bb9602e975f02202954825bdb87e35fcf76cacfe77a9a2b6ea04077859b1448b19c5a9dbecb42cd0121026d99635c53523b6ead732ac985c594ee2e4da36c8ac06be438c7c7e2828a514c"
          },
          "sequence": 4294967295
        }
      ],
      "vout": [
        {
          "value": 2.99900000,
          "n": 0,
          "scriptPubKey": {
            "asm": "OP_DUP OP_HASH160 5789c3a532ba94756dd42a4133d98ca9f57462fa OP_EQUALVERIFY OP_CHECKSIG",
            "hex": "76a9145789c3a532ba94756dd42a4133d98ca9f57462fa88ac",
            "reqSigs": 1,
            "type": "pubkeyhash",
            "addresses": [
              "LTCp5vrr4X6hqb7WcCHDSh3S9HFS2v4JGS"
            ]
          }
        }, 
        {
          "value": 0.03000000,
          "n": 1,
          "scriptPubKey": {
            "asm": "OP_DUP OP_HASH160 d278cac30d3983e9b6cb9edc50378f95b780f9a3 OP_EQUALVERIFY OP_CHECKSIG",
            "hex": "76a914d278cac30d3983e9b6cb9edc50378f95b780f9a388ac",
            "reqSigs": 1,
            "type": "pubkeyhash",
            "addresses": [
              "LeQpsGvfNK17SYqNAJytA4H4prz9eZeAWM"
            ]
          }
        }
      ],
      "hex": "01000000016b32f6bb44298623a414aff15da3109fa2b24c5f8e216f01d4ffa8d1f80c59cc010000006a473044022063b1741d0e05396e6fe1498e60841b0a53871fefdc803d0b21558bb9602e975f02202954825bdb87e35fcf76cacfe77a9a2b6ea04077859b1448b19c5a9dbecb42cd0121026d99635c53523b6ead732ac985c594ee2e4da36c8ac06be438c7c7e2828a514cffffffff02601ce011000000001976a9145789c3a532ba94756dd42a4133d98ca9f57462fa88acc0c62d00000000001976a914d278cac30d3983e9b6cb9edc50378f95b780f9a388ac00000000"
    }, 
    {
      "txid": "5d2c56e659bd30f5d2ae31003c5013782a5aac4ccc006112b3712f0aeeacf739",
      "hash": "5d2c56e659bd30f5d2ae31003c5013782a5aac4ccc006112b3712f0aeeacf739",
      "version": 1,
      "size": 225,
      "vsize": 225,
      "locktime": 0,
      "vin": [
        {
          "txid": "f4d8cd9ef4da9aacda618d245da110795b09322e34e281fa4cc71793c33608be",
          "vout": 13,
          "scriptSig": {
            "asm": "3044022034980290eb58326895e1c5a8d150db4d3af5e113167df7fe1d472ca6ba3089f70220483405885aa5f19d26b2b4272e4b8bae155887861e4ffb0a442c4e785b76c13a[ALL] 02a85228ff718c408a4b9b25d8610478961a8c949acbeea55e13f6e414bb512f02",
            "hex": "473044022034980290eb58326895e1c5a8d150db4d3af5e113167df7fe1d472ca6ba3089f70220483405885aa5f19d26b2b4272e4b8bae155887861e4ffb0a442c4e785b76c13a012102a85228ff718c408a4b9b25d8610478961a8c949acbeea55e13f6e414bb512f02"
          },
          "sequence": 4294967295
        }
      ],
      "vout": [
        {
          "value": 12.09677400,
          "n": 0,
          "scriptPubKey": {
            "asm": "OP_DUP OP_HASH160 d1b6cfc1b15e5f97d2cf8a92ebf4e3c31487544c OP_EQUALVERIFY OP_CHECKSIG",
            "hex": "76a914d1b6cfc1b15e5f97d2cf8a92ebf4e3c31487544c88ac",
            "reqSigs": 1,
            "type": "pubkeyhash",
            "addresses": [
              "LeLpVGtKrK4UGRXj38ZA2fkAXmk7cNpSDg"
            ]
          }
        }, 
        {
          "value": 1.00000000,
          "n": 1,
          "scriptPubKey": {
            "asm": "OP_DUP OP_HASH160 a221738d662187e107f1ed3dc62c64ce1634adab OP_EQUALVERIFY OP_CHECKSIG",
            "hex": "76a914a221738d662187e107f1ed3dc62c64ce1634adab88ac",
            "reqSigs": 1,
            "type": "pubkeyhash",
            "addresses": [
              "La1DoXocfP6gN1fCwa4Geifj7MU43NfePq"
            ]
          }
        }
      ],
      "hex": "0100000001be0836c39317c74cfa81e2342e32095b7910a15d248d61daac9adaf49ecdd8f40d0000006a473044022034980290eb58326895e1c5a8d150db4d3af5e113167df7fe1d472ca6ba3089f70220483405885aa5f19d26b2b4272e4b8bae155887861e4ffb0a442c4e785b76c13a012102a85228ff718c408a4b9b25d8610478961a8c949acbeea55e13f6e414bb512f02ffffffff0258361a48000000001976a914d1b6cfc1b15e5f97d2cf8a92ebf4e3c31487544c88ac00e1f505000000001976a914a221738d662187e107f1ed3dc62c64ce1634adab88ac00000000"
    }, 
    {
      "txid": "f7cb5ddd01918888fa478cc4b3620016e75dc658e426800d82babc7cc0b85e62",
      "hash": "f7cb5ddd01918888fa478cc4b3620016e75dc658e426800d82babc7cc0b85e62",
      "version": 2,
      "size": 225,
      "vsize": 225,
      "locktime": 1359919,
      "vin": [
        {
          "txid": "4052307bb4eb90a3db1581da3b449c049908872ab2de5630e7aa8f5c0877b13a",
          "vout": 0,
          "scriptSig": {
            "asm": "304402205ee3614974fece9c824ae49f8165186f409f0611dc71f9df954ebf33990ae69e0220701380af0814865e4c6ac41ffeeda2206b16e0a2d7eb1f369ac7af401f4cb1c4[ALL] 035760afc5ab0d3e433ea6f18d2b3a7dfdcbc8e9cf0c801da47d655d629a8a1276",
            "hex": "47304402205ee3614974fece9c824ae49f8165186f409f0611dc71f9df954ebf33990ae69e0220701380af0814865e4c6ac41ffeeda2206b16e0a2d7eb1f369ac7af401f4cb1c40121035760afc5ab0d3e433ea6f18d2b3a7dfdcbc8e9cf0c801da47d655d629a8a1276"
          },
          "sequence": 4294967294
        }
      ],
      "vout": [
        {
          "value": 0.98029638,
          "n": 0,
          "scriptPubKey": {
            "asm": "OP_DUP OP_HASH160 857348be5faf4aaf9f406844a5221ecb1384dca0 OP_EQUALVERIFY OP_CHECKSIG",
            "hex": "76a914857348be5faf4aaf9f406844a5221ecb1384dca088ac",
            "reqSigs": 1,
            "type": "pubkeyhash",
            "addresses": [
              "LXPaEovyhLFneK5LuWpU9ZoM8nd5LPtKLb"
            ]
          }
        }, 
        {
          "value": 404.91447572,
          "n": 1,
          "scriptPubKey": {
            "asm": "OP_DUP OP_HASH160 6525fb6e60f2a77b1f18cf77bec10993b2ea8dbc OP_EQUALVERIFY OP_CHECKSIG",
            "hex": "76a9146525fb6e60f2a77b1f18cf77bec10993b2ea8dbc88ac",
            "reqSigs": 1,
            "type": "pubkeyhash",
            "addresses": [
              "LUSn1djWDz6469ynwLrFrb94oPAv2zQTQx"
            ]
          }
        }
      ],
      "hex": "02000000013ab177085c8faae73056deb22a870899049c443bda8115dba390ebb47b305240000000006a47304402205ee3614974fece9c824ae49f8165186f409f0611dc71f9df954ebf33990ae69e0220701380af0814865e4c6ac41ffeeda2206b16e0a2d7eb1f369ac7af401f4cb1c40121035760afc5ab0d3e433ea6f18d2b3a7dfdcbc8e9cf0c801da47d655d629a8a1276feffffff0246d0d705000000001976a914857348be5faf4aaf9f406844a5221ecb1384dca088ac14757a6d090000001976a9146525fb6e60f2a77b1f18cf77bec10993b2ea8dbc88ac2fc01400"
    }, 
    {
      "txid": "903d1cacff74d7105fcfe8e5e251bf5fe28a34b7f6701ca16571098c479702ec",
      "hash": "903d1cacff74d7105fcfe8e5e251bf5fe28a34b7f6701ca16571098c479702ec",
      "version": 1,
      "size": 225,
      "vsize": 225,
      "locktime": 0,
      "vin": [
        {
          "txid": "98e5f74c8822f2ded8f2a40e08808e8a232f8ccd1a75737d795775e08dd0857b",
          "vout": 44,
          "scriptSig": {
            "asm": "30440220704a2d6af887a7fe6f4aaf1574639c63cf3308fbfc1c7bc6411331de87a4083302206fc8c8537f3b2de9bd2cf13f14131a8b149420343ca2bc36a4e2a651ec295bd7[ALL] 03e91846a05b49a5d07ea59f82621dff2555b10a048fc7460975c83d900fd366db",
            "hex": "4730440220704a2d6af887a7fe6f4aaf1574639c63cf3308fbfc1c7bc6411331de87a4083302206fc8c8537f3b2de9bd2cf13f14131a8b149420343ca2bc36a4e2a651ec295bd7012103e91846a05b49a5d07ea59f82621dff2555b10a048fc7460975c83d900fd366db"
          },
          "sequence": 4294967295
        }
      ],
      "vout": [
        {
          "value": 1.02370476,
          "n": 0,
          "scriptPubKey": {
            "asm": "OP_DUP OP_HASH160 e27b6ecf7fc001708edd8d6d173384d471534a77 OP_EQUALVERIFY OP_CHECKSIG",
            "hex": "76a914e27b6ecf7fc001708edd8d6d173384d471534a7788ac",
            "reqSigs": 1,
            "type": "pubkeyhash",
            "addresses": [
              "LfsUqqC92y6Vcy5DG1iTofyD65BDjd1H3k"
            ]
          }
        }, 
        {
          "value": 11.58815452,
          "n": 1,
          "scriptPubKey": {
            "asm": "OP_DUP OP_HASH160 adaafb53c315064ed1e01d36aed146a1e94561ac OP_EQUALVERIFY OP_CHECKSIG",
            "hex": "76a914adaafb53c315064ed1e01d36aed146a1e94561ac88ac",
            "reqSigs": 1,
            "type": "pubkeyhash",
            "addresses": [
              "Lb4DzRJBhn5BuXKPXFvEfnCpTbUAoMAgNh"
            ]
          }
        }
      ],
      "hex": "01000000017b85d08de07557797d73751acd8c2f238a8e80080ea4f2d8def222884cf7e5982c0000006a4730440220704a2d6af887a7fe6f4aaf1574639c63cf3308fbfc1c7bc6411331de87a4083302206fc8c8537f3b2de9bd2cf13f14131a8b149420343ca2bc36a4e2a651ec295bd7012103e91846a05b49a5d07ea59f82621dff2555b10a048fc7460975c83d900fd366dbffffffff02ac0c1a06000000001976a914e27b6ecf7fc001708edd8d6d173384d471534a7788acdc1e1245000000001976a914adaafb53c315064ed1e01d36aed146a1e94561ac88ac00000000"
    }, 
    {
      "txid": "544515c4bcbe5407b88409d51ce9237b66bbee7fd3fdae55b1e28be68d48fd25",
      "hash": "544515c4bcbe5407b88409d51ce9237b66bbee7fd3fdae55b1e28be68d48fd25",
      "version": 1,
      "size": 226,
      "vsize": 226,
      "locktime": 0,
      "vin": [
        {
          "txid": "996ade3e090a80a991cbad1c3d34dcafa263f718d0bd47dba5f8e3d52d6cf290",
          "vout": 1,
          "scriptSig": {
            "asm": "30450221009357a5a80b81d7b9b3cde1259faec371890c19b6c6375382901aa487128bc3a902206b1e17f4c187070fc5def9b1b197e2e8e2ea76f49d25b356e4171d4cce05976a[ALL] 026def2a6444a2571b939c4b747702b0fc9706600df569aa35000b85ae65dbc513",
            "hex": "4830450221009357a5a80b81d7b9b3cde1259faec371890c19b6c6375382901aa487128bc3a902206b1e17f4c187070fc5def9b1b197e2e8e2ea76f49d25b356e4171d4cce05976a0121026def2a6444a2571b939c4b747702b0fc9706600df569aa35000b85ae65dbc513"
          },
          "sequence": 4294967295
        }
      ],
      "vout": [
        {
          "value": 0.00093052,
          "n": 0,
          "scriptPubKey": {
            "asm": "OP_DUP OP_HASH160 932b566388f45d22d3940a0bcb3acdc0e4bc93d1 OP_EQUALVERIFY OP_CHECKSIG",
            "hex": "76a914932b566388f45d22d3940a0bcb3acdc0e4bc93d188ac",
            "reqSigs": 1,
            "type": "pubkeyhash",
            "addresses": [
              "LYe7WYvwyFeuQRBTzDfcn9tgdrkVza4ZTP"
            ]
          }
        }, 
        {
          "value": 0.15736000,
          "n": 1,
          "scriptPubKey": {
            "asm": "OP_DUP OP_HASH160 7ed8be4c3687dd4627a67acb8c5722a9589822c3 OP_EQUALVERIFY OP_CHECKSIG",
            "hex": "76a9147ed8be4c3687dd4627a67acb8c5722a9589822c388ac",
            "reqSigs": 1,
            "type": "pubkeyhash",
            "addresses": [
              "LWnf3yYKoDsAzGzRGC6YigoaXT29udkzzN"
            ]
          }
        }
      ],
      "hex": "010000000190f26c2dd5e3f8a5db47bdd018f763a2afdc343d1cadcb91a9800a093ede6a99010000006b4830450221009357a5a80b81d7b9b3cde1259faec371890c19b6c6375382901aa487128bc3a902206b1e17f4c187070fc5def9b1b197e2e8e2ea76f49d25b356e4171d4cce05976a0121026def2a6444a2571b939c4b747702b0fc9706600df569aa35000b85ae65dbc513ffffffff027c6b0100000000001976a914932b566388f45d22d3940a0bcb3acdc0e4bc93d188acc01cf000000000001976a9147ed8be4c3687dd4627a67acb8c5722a9589822c388ac00000000"
    }, 
    {
      "txid": "7f877efb06ecaf16fe08e16e7d93121e43029db94b600c4998aacc0ae187766b",
      "hash": "7f877efb06ecaf16fe08e16e7d93121e43029db94b600c4998aacc0ae187766b",
      "version": 2,
      "size": 226,
      "vsize": 226,
      "locktime": 1359919,
      "vin": [
        {
          "txid": "a011c9c699491f25429c3d504e7fde2e8f6ff7b5de1604dcba7e15ac9a34320d",
          "vout": 1,
          "scriptSig": {
            "asm": "3045022100f089731a1d17b265329bb3b20cce7d5dd378228b9b8c2612dd220d5d4040170102206d96b6176171934758f8337f0ed45da168be7aea83d388fe11695d4bc63ae3a1[ALL] 02877e71063e3396cf80adb3543bcde66cc3dfa6df655cbc6a4800d0ea146e51eb",
            "hex": "483045022100f089731a1d17b265329bb3b20cce7d5dd378228b9b8c2612dd220d5d4040170102206d96b6176171934758f8337f0ed45da168be7aea83d388fe11695d4bc63ae3a1012102877e71063e3396cf80adb3543bcde66cc3dfa6df655cbc6a4800d0ea146e51eb"
          },
          "sequence": 4294967294
        }
      ],
      "vout": [
        {
          "value": 422.40211087,
          "n": 0,
          "scriptPubKey": {
            "asm": "OP_DUP OP_HASH160 45a48c98a3e7e6ffec9b7a8d6b849d167d8dabaa OP_EQUALVERIFY OP_CHECKSIG",
            "hex": "76a91445a48c98a3e7e6ffec9b7a8d6b849d167d8dabaa88ac",
            "reqSigs": 1,
            "type": "pubkeyhash",
            "addresses": [
              "LRaC1XbxLkPg7eHWzx12vWRTC28TxPvNN4"
            ]
          }
        }, 
        {
          "value": 3.60621306,
          "n": 1,
          "scriptPubKey": {
            "asm": "OP_DUP OP_HASH160 be008431cef53292e5482f76be3604d4d97a3c94 OP_EQUALVERIFY OP_CHECKSIG",
            "hex": "76a914be008431cef53292e5482f76be3604d4d97a3c9488ac",
            "reqSigs": 1,
            "type": "pubkeyhash",
            "addresses": [
              "LcYbGYGKRSD2y2hK8Azwg2gDVio7uJDZwx"
            ]
          }
        }
      ],
      "hex": "02000000010d32349aac157ebadc0416deb5f76f8f2ede7f4e503d9c42251f4999c6c911a0010000006b483045022100f089731a1d17b265329bb3b20cce7d5dd378228b9b8c2612dd220d5d4040170102206d96b6176171934758f8337f0ed45da168be7aea83d388fe11695d4bc63ae3a1012102877e71063e3396cf80adb3543bcde66cc3dfa6df655cbc6a4800d0ea146e51ebfeffffff028f78b6d5090000001976a91445a48c98a3e7e6ffec9b7a8d6b849d167d8dabaa88acfaa47e15000000001976a914be008431cef53292e5482f76be3604d4d97a3c9488ac2fc01400"
    }, 
    {
      "txid": "54524035b64c6e694729c145c09998d1d20224506b41d41cb8bdab97cbadba6d",
      "hash": "54524035b64c6e694729c145c09998d1d20224506b41d41cb8bdab97cbadba6d",
      "version": 2,
      "size": 374,
      "vsize": 374,
      "locktime": 1359919,
      "vin": [
        {
          "txid": "7a111d03ef40b2201b0e93f1ebe6b6b8537ec26f159c521a45810209e1c8cf37",
          "vout": 0,
          "scriptSig": {
            "asm": "3045022100ce29d58cdf7c74ade6c4d857fbc4596cbd055ab078f753a90082d079c8d4985c02201c9ffbfccfaa37570eb39b69c3f2266c8a15eac078d785e19bbd9031451d38f7[ALL] 03adad4df51ea6a8b42ba998dd9e7bda6a12a91155abe50289ff8f42f924702323",
            "hex": "483045022100ce29d58cdf7c74ade6c4d857fbc4596cbd055ab078f753a90082d079c8d4985c02201c9ffbfccfaa37570eb39b69c3f2266c8a15eac078d785e19bbd9031451d38f7012103adad4df51ea6a8b42ba998dd9e7bda6a12a91155abe50289ff8f42f924702323"
          },
          "sequence": 4294967294
        }, 
        {
          "txid": "407ca226656ee39d4856ab12c331a36cbfb797722d7249ff62a6709e80dfc863",
          "vout": 1,
          "scriptSig": {
            "asm": "3045022100cd02c731d31f1e13715c7ef8760cbd6484ac6d3f900b4131830b60708909730302200bafa001a7b73689aa4eadb504c30ba82590bb7ae90328d1e5df16da6a145222[ALL] 03adad4df51ea6a8b42ba998dd9e7bda6a12a91155abe50289ff8f42f924702323",
            "hex": "483045022100cd02c731d31f1e13715c7ef8760cbd6484ac6d3f900b4131830b60708909730302200bafa001a7b73689aa4eadb504c30ba82590bb7ae90328d1e5df16da6a145222012103adad4df51ea6a8b42ba998dd9e7bda6a12a91155abe50289ff8f42f924702323"
          },
          "sequence": 4294967294
        }
      ],
      "vout": [
        {
          "value": 16.55978000,
          "n": 0,
          "scriptPubKey": {
            "asm": "OP_DUP OP_HASH160 4499cac3fc996f36ea6b966a64adaccca427f426 OP_EQUALVERIFY OP_CHECKSIG",
            "hex": "76a9144499cac3fc996f36ea6b966a64adaccca427f42688ac",
            "reqSigs": 1,
            "type": "pubkeyhash",
            "addresses": [
              "LRUgSv7taQo6eoJWPURQTx5CFDdjpb2nHa"
            ]
          }
        }, 
        {
          "value": 3.25656713,
          "n": 1,
          "scriptPubKey": {
            "asm": "OP_DUP OP_HASH160 b9d7ed93203120f354a4b44a93f867ba5928e68e OP_EQUALVERIFY OP_CHECKSIG",
            "hex": "76a914b9d7ed93203120f354a4b44a93f867ba5928e68e88ac",
            "reqSigs": 1,
            "type": "pubkeyhash",
            "addresses": [
              "LcAbweJQQMtokTHzv1zxoJFfj4473hRcpq"
            ]
          }
        }
      ],
      "hex": "020000000237cfc8e1090281451a529c156fc27e53b8b6e6ebf1930e1b20b240ef031d117a000000006b483045022100ce29d58cdf7c74ade6c4d857fbc4596cbd055ab078f753a90082d079c8d4985c02201c9ffbfccfaa37570eb39b69c3f2266c8a15eac078d785e19bbd9031451d38f7012103adad4df51ea6a8b42ba998dd9e7bda6a12a91155abe50289ff8f42f924702323feffffff63c8df809e70a662ff49722d7297b7bf6ca331c312ab56489de36e6526a27c40010000006b483045022100cd02c731d31f1e13715c7ef8760cbd6484ac6d3f900b4131830b60708909730302200bafa001a7b73689aa4eadb504c30ba82590bb7ae90328d1e5df16da6a145222012103adad4df51ea6a8b42ba998dd9e7bda6a12a91155abe50289ff8f42f924702323feffffff021038b462000000001976a9144499cac3fc996f36ea6b966a64adaccca427f42688ac89206913000000001976a914b9d7ed93203120f354a4b44a93f867ba5928e68e88ac2fc01400"
    }, 
    {
      "txid": "4469956b4d1872c58b950dd947c30c18f30c01330bf786dee54780c94d796292",
      "hash": "4469956b4d1872c58b950dd947c30c18f30c01330bf786dee54780c94d796292",
      "version": 1,
      "size": 520,
      "vsize": 520,
      "locktime": 1359919,
      "vin": [
        {
          "txid": "d4c4f5236e905cf61a0fabaa73c34c5d2b5c4875265b50988bf60132fa61a68e",
          "vout": 1,
          "scriptSig": {
            "asm": "3044022039be0486b4eed63614efc80ad5465c3c3d0bd4376ed7669dc2aa2fb4ea6eca6c022048c514f023e4b02cffebd28bc47aacc4f14a37d27b9421007530ebbe1dd1fddf[ALL] 02411763d7d00fe58315732cdd8fd9ecccc67f3c6057720908409e0175b4bb1930",
            "hex": "473044022039be0486b4eed63614efc80ad5465c3c3d0bd4376ed7669dc2aa2fb4ea6eca6c022048c514f023e4b02cffebd28bc47aacc4f14a37d27b9421007530ebbe1dd1fddf012102411763d7d00fe58315732cdd8fd9ecccc67f3c6057720908409e0175b4bb1930"
          },
          "sequence": 4294967294
        }, 
        {
          "txid": "3d3a6b211b88c3072d9a973283d23e4ec0a633958ac60b52d5b751b59d57f5e4",
          "vout": 1,
          "scriptSig": {
            "asm": "3045022100847b4746c5029f3ef72b1a3c43ad62fb994ee75edf42cf2e3b54190e34e7dcfe02202028e2810ca05a45612cb5d631cd21d689123e8283251227aa4b4e3f2d16f36f[ALL] 02deeba338fdb2b4ebd2dcfca8a7792657e001799c05301def40a10fde037ae859",
            "hex": "483045022100847b4746c5029f3ef72b1a3c43ad62fb994ee75edf42cf2e3b54190e34e7dcfe02202028e2810ca05a45612cb5d631cd21d689123e8283251227aa4b4e3f2d16f36f012102deeba338fdb2b4ebd2dcfca8a7792657e001799c05301def40a10fde037ae859"
          },
          "sequence": 4294967294
        }, 
        {
          "txid": "a2c0f1efc96700e7e928d438c2218a02c6464572fc23846e7ec98ae9344a5661",
          "vout": 0,
          "scriptSig": {
            "asm": "30440220525c32f835460d2a507fd7db5fb5498f5bcc24c264db4ff1df15bc95506ae12902201d47941af311f410a23820e75ed4cfad7653bd461853e966b77286459573d8f9[ALL] 03ba993f476407ec4afe2ecf185d5b1b0bbeac3d6181cc609729fec952ab7cd733",
            "hex": "4730440220525c32f835460d2a507fd7db5fb5498f5bcc24c264db4ff1df15bc95506ae12902201d47941af311f410a23820e75ed4cfad7653bd461853e966b77286459573d8f9012103ba993f476407ec4afe2ecf185d5b1b0bbeac3d6181cc609729fec952ab7cd733"
          },
          "sequence": 4294967294
        }
      ],
      "vout": [
        {
          "value": 0.01000246,
          "n": 0,
          "scriptPubKey": {
            "asm": "OP_DUP OP_HASH160 50f3e648170aa1d3db32bb3312c716dc90ef2528 OP_EQUALVERIFY OP_CHECKSIG",
            "hex": "76a91450f3e648170aa1d3db32bb3312c716dc90ef252888ac",
            "reqSigs": 1,
            "type": "pubkeyhash",
            "addresses": [
              "LSbzVzk9y6WUzQJpqdQj2of8TBygzSLydp"
            ]
          }
        }, 
        {
          "value": 10.06827400,
          "n": 1,
          "scriptPubKey": {
            "asm": "OP_DUP OP_HASH160 daf59ceb6e2193e616a0b037dab28895ae92457f OP_EQUALVERIFY OP_CHECKSIG",
            "hex": "76a914daf59ceb6e2193e616a0b037dab28895ae92457f88ac",
            "reqSigs": 1,
            "type": "pubkeyhash",
            "addresses": [
              "LfBhoX8CCKvxBhGxCFhKHWoUBbW8Eyt4pe"
            ]
          }
        }
      ],
      "hex": "01000000038ea661fa3201f68b98505b2675485c2b5d4cc373aaab0f1af65c906e23f5c4d4010000006a473044022039be0486b4eed63614efc80ad5465c3c3d0bd4376ed7669dc2aa2fb4ea6eca6c022048c514f023e4b02cffebd28bc47aacc4f14a37d27b9421007530ebbe1dd1fddf012102411763d7d00fe58315732cdd8fd9ecccc67f3c6057720908409e0175b4bb1930feffffffe4f5579db551b7d5520bc68a9533a6c04e3ed28332979a2d07c3881b216b3a3d010000006b483045022100847b4746c5029f3ef72b1a3c43ad62fb994ee75edf42cf2e3b54190e34e7dcfe02202028e2810ca05a45612cb5d631cd21d689123e8283251227aa4b4e3f2d16f36f012102deeba338fdb2b4ebd2dcfca8a7792657e001799c05301def40a10fde037ae859feffffff61564a34e98ac97e6e8423fc724546c6028a21c238d428e9e70067c9eff1c0a2000000006a4730440220525c32f835460d2a507fd7db5fb5498f5bcc24c264db4ff1df15bc95506ae12902201d47941af311f410a23820e75ed4cfad7653bd461853e966b77286459573d8f9012103ba993f476407ec4afe2ecf185d5b1b0bbeac3d6181cc609729fec952ab7cd733feffffff0236430f00000000001976a91450f3e648170aa1d3db32bb3312c716dc90ef252888ac88f7023c000000001976a914daf59ceb6e2193e616a0b037dab28895ae92457f88ac2fc01400"
    }, 
    {
      "txid": "8bf1a6b36a324ec474aeab6948f75524e38c4991b5a267796e45f06c85e4a9bd",
      "hash": "8bf1a6b36a324ec474aeab6948f75524e38c4991b5a267796e45f06c85e4a9bd",
      "version": 1,
      "size": 226,
      "vsize": 226,
      "locktime": 0,
      "vin": [
        {
          "txid": "b1305dc5b473a22c47aae9e2570e3a677b157926bc1fa2e290ca3767b687778a",
          "vout": 0,
          "scriptSig": {
            "asm": "3045022100ff74cbe7b0aa206fb75537966ca1d1e8f664194ff1932098e311f4079715766e02202a5879f32bed9f94d3e2c89ad1507a952201eb4bc9ef657c89f6ac199071caf1[ALL] 034dff88e33e29e71d15fb7c7b25786ddd02ba2063c895c6fcfee8a9e336a3edb2",
            "hex": "483045022100ff74cbe7b0aa206fb75537966ca1d1e8f664194ff1932098e311f4079715766e02202a5879f32bed9f94d3e2c89ad1507a952201eb4bc9ef657c89f6ac199071caf10121034dff88e33e29e71d15fb7c7b25786ddd02ba2063c895c6fcfee8a9e336a3edb2"
          },
          "sequence": 4294967295
        }
      ],
      "vout": [
        {
          "value": 9.90000000,
          "n": 0,
          "scriptPubKey": {
            "asm": "OP_DUP OP_HASH160 1d9c44ac4eb49204270c4a578c9e70c14b6e1575 OP_EQUALVERIFY OP_CHECKSIG",
            "hex": "76a9141d9c44ac4eb49204270c4a578c9e70c14b6e157588ac",
            "reqSigs": 1,
            "type": "pubkeyhash",
            "addresses": [
              "LMvX4V4wNdM3Mm7m3tVZPfhb2qb22DmD6N"
            ]
          }
        }, 
        {
          "value": 3.64616404,
          "n": 1,
          "scriptPubKey": {
            "asm": "OP_DUP OP_HASH160 d021dc1af081e9c67f3cef14a1af12972c3b8895 OP_EQUALVERIFY OP_CHECKSIG",
            "hex": "76a914d021dc1af081e9c67f3cef14a1af12972c3b889588ac",
            "reqSigs": 1,
            "type": "pubkeyhash",
            "addresses": [
              "LeCTNjToDGKQgn9rU8ocbLxDUu6N6bGkvj"
            ]
          }
        }
      ],
      "hex": "01000000018a7787b66737ca90e2a21fbc2679157b673a0e57e2e9aa472ca273b4c55d30b1000000006b483045022100ff74cbe7b0aa206fb75537966ca1d1e8f664194ff1932098e311f4079715766e02202a5879f32bed9f94d3e2c89ad1507a952201eb4bc9ef657c89f6ac199071caf10121034dff88e33e29e71d15fb7c7b25786ddd02ba2063c895c6fcfee8a9e336a3edb2ffffffff028033023b000000001976a9141d9c44ac4eb49204270c4a578c9e70c14b6e157588acd49abb15000000001976a914d021dc1af081e9c67f3cef14a1af12972c3b889588ac00000000"
    }, 
    {
      "txid": "71a9757dcfd7afcd2eb5081f3cc491d95523a93ee6133824a77aa6ea527efef6",
      "hash": "71a9757dcfd7afcd2eb5081f3cc491d95523a93ee6133824a77aa6ea527efef6",
      "version": 1,
      "size": 226,
      "vsize": 226,
      "locktime": 1359919,
      "vin": [
        {
          "txid": "f9a8ae224d99a1ae5d7434221e0504baf6d898faeebd9cb31db1af51a8020221",
          "vout": 0,
          "scriptSig": {
            "asm": "3045022100fcbef9a3ab3b44e331dac5080cb760d2ac6889e2d9da991ced4eed85872d4f88022003173dc394c5f88c8f0838f534d4a29e0a4706fdd7190da8a754b4de9da03236[ALL] 0225070c567cf6de09a046fa180796fb4008769a9c56151111c9aef840d3c13474",
            "hex": "483045022100fcbef9a3ab3b44e331dac5080cb760d2ac6889e2d9da991ced4eed85872d4f88022003173dc394c5f88c8f0838f534d4a29e0a4706fdd7190da8a754b4de9da0323601210225070c567cf6de09a046fa180796fb4008769a9c56151111c9aef840d3c13474"
          },
          "sequence": 4294967294
        }
      ],
      "vout": [
        {
          "value": 0.17106800,
          "n": 0,
          "scriptPubKey": {
            "asm": "OP_DUP OP_HASH160 01a75603f695348f68a2c5085fd873084bc7ebb0 OP_EQUALVERIFY OP_CHECKSIG",
            "hex": "76a91401a75603f695348f68a2c5085fd873084bc7ebb088ac",
            "reqSigs": 1,
            "type": "pubkeyhash",
            "addresses": [
              "LKNhQ7Z7t5sfSmjR3tMVCXMXbP3X2JmjoU"
            ]
          }
        }, 
        {
          "value": 0.01003629,
          "n": 1,
          "scriptPubKey": {
            "asm": "OP_DUP OP_HASH160 0f27fcc22e78fa4d22b0a41ed55386a715e2a2cf OP_EQUALVERIFY OP_CHECKSIG",
            "hex": "76a9140f27fcc22e78fa4d22b0a41ed55386a715e2a2cf88ac",
            "reqSigs": 1,
            "type": "pubkeyhash",
            "addresses": [
              "LLc6JTbk29SJNB59K3XtQjJXvPh5Ar2JrG"
            ]
          }
        }
      ],
      "hex": "0100000001210202a851afb11db39cbdeefa98d8f6ba04051e2234745daea1994d22aea8f9000000006b483045022100fcbef9a3ab3b44e331dac5080cb760d2ac6889e2d9da991ced4eed85872d4f88022003173dc394c5f88c8f0838f534d4a29e0a4706fdd7190da8a754b4de9da0323601210225070c567cf6de09a046fa180796fb4008769a9c56151111c9aef840d3c13474feffffff0270070501000000001976a91401a75603f695348f68a2c5085fd873084bc7ebb088ac6d500f00000000001976a9140f27fcc22e78fa4d22b0a41ed55386a715e2a2cf88ac2fc01400"
    }, 
    {
      "txid": "bb5712b71e68e7790ba1406e01df99312d854c35f1a9f1451df8890a9f1cd13c",
      "hash": "bb5712b71e68e7790ba1406e01df99312d854c35f1a9f1451df8890a9f1cd13c",
      "version": 1,
      "size": 396,
      "vsize": 396,
      "locktime": 0,
      "vin": [
        {
          "txid": "a8f68a3acb7c19598d9c062cd0e4b0a4ba60d9b6a455d2b86dca69d482419bbb",
          "vout": 0,
          "scriptSig": {
            "asm": "30450221009e201f7c21ab65c4c9dfeadbb6079d58381d7633e2f049cf652c4c81811f6432022074ed77dabd727058dc4d3d7a82d844fad3da96ed491502ede4409732e907f0e5[ALL] 02d1026b5e1be2af860e7f8503c8a65f548f0ccf30119f937b9ac753e8491f0c04",
            "hex": "4830450221009e201f7c21ab65c4c9dfeadbb6079d58381d7633e2f049cf652c4c81811f6432022074ed77dabd727058dc4d3d7a82d844fad3da96ed491502ede4409732e907f0e5012102d1026b5e1be2af860e7f8503c8a65f548f0ccf30119f937b9ac753e8491f0c04"
          },
          "sequence": 4294967295
        }
      ],
      "vout": [
        {
          "value": 0.04000000,
          "n": 0,
          "scriptPubKey": {
            "asm": "OP_DUP OP_HASH160 6e23074757424045fa24773029fc364c3452c398 OP_EQUALVERIFY OP_CHECKSIG",
            "hex": "76a9146e23074757424045fa24773029fc364c3452c39888ac",
            "reqSigs": 1,
            "type": "pubkeyhash",
            "addresses": [
              "LVGJZ8dzxyAJ3FUpMVRSLSx9YQfLgt7Snx"
            ]
          }
        }, 
        {
          "value": 0.17900000,
          "n": 1,
          "scriptPubKey": {
            "asm": "OP_DUP OP_HASH160 42c8f6bf00ad85e8e1927bee292b5006953e256f OP_EQUALVERIFY OP_CHECKSIG",
            "hex": "76a91442c8f6bf00ad85e8e1927bee292b5006953e256f88ac",
            "reqSigs": 1,
            "type": "pubkeyhash",
            "addresses": [
              "LRK5c615cqzXL8UVZW3rUX5orx2Vtxx38f"
            ]
          }
        }, 
        {
          "value": 2.06000000,
          "n": 2,
          "scriptPubKey": {
            "asm": "OP_DUP OP_HASH160 afde9350ad67bd04d7b9a71c7415056701e3bd1b OP_EQUALVERIFY OP_CHECKSIG",
            "hex": "76a914afde9350ad67bd04d7b9a71c7415056701e3bd1b88ac",
            "reqSigs": 1,
            "type": "pubkeyhash",
            "addresses": [
              "LbFs9bZZq7eLUKSwBAL1k5FeSvYgakvoJi"
            ]
          }
        }, 
        {
          "value": 0.09000000,
          "n": 3,
          "scriptPubKey": {
            "asm": "OP_DUP OP_HASH160 5d44b42656a6ad494d030db0efed1e55f5342283 OP_EQUALVERIFY OP_CHECKSIG",
            "hex": "76a9145d44b42656a6ad494d030db0efed1e55f534228388ac",
            "reqSigs": 1,
            "type": "pubkeyhash",
            "addresses": [
              "LTj7QfrVHP68gkYDS2Za9utiKvDGRQzZnw"
            ]
          }
        }, 
        {
          "value": 0.08849276,
          "n": 4,
          "scriptPubKey": {
            "asm": "OP_DUP OP_HASH160 1bad37e886ed87c26e98d652ab6fe0bf78694671 OP_EQUALVERIFY OP_CHECKSIG",
            "hex": "76a9141bad37e886ed87c26e98d652ab6fe0bf7869467188ac",
            "reqSigs": 1,
            "type": "pubkeyhash",
            "addresses": [
              "LMkJ1pMdYa5TdGNnaSgia3AVHbyD5VMUtL"
            ]
          }
        }, 
        {
          "value": 1.05292245,
          "n": 5,
          "scriptPubKey": {
            "asm": "OP_DUP OP_HASH160 7ef5b306dc5a7b754a8c902e79e4b72f0403f093 OP_EQUALVERIFY OP_CHECKSIG",
            "hex": "76a9147ef5b306dc5a7b754a8c902e79e4b72f0403f09388ac",
            "reqSigs": 1,
            "type": "pubkeyhash",
            "addresses": [
              "LWoFjsXQ3ipbszBf9ZpwbHJxh7aRwSxm6v"
            ]
          }
        }, 
        {
          "value": 67.39469010,
          "n": 6,
          "scriptPubKey": {
            "asm": "OP_DUP OP_HASH160 d03135f2f46776b93126830da160846edbe57fae OP_EQUALVERIFY OP_CHECKSIG",
            "hex": "76a914d03135f2f46776b93126830da160846edbe57fae88ac",
            "reqSigs": 1,
            "type": "pubkeyhash",
            "addresses": [
              "LeCmmLRrReLX5xmocu6XDsVx9arQJ8iqgw"
            ]
          }
        }
      ],
      "hex": "0100000001bb9b4182d469ca6db8d255a4b6d960baa4b0e4d02c069c8d59197ccb3a8af6a8000000006b4830450221009e201f7c21ab65c4c9dfeadbb6079d58381d7633e2f049cf652c4c81811f6432022074ed77dabd727058dc4d3d7a82d844fad3da96ed491502ede4409732e907f0e5012102d1026b5e1be2af860e7f8503c8a65f548f0ccf30119f937b9ac753e8491f0c04ffffffff0700093d00000000001976a9146e23074757424045fa24773029fc364c3452c39888ace0211101000000001976a91442c8f6bf00ad85e8e1927bee292b5006953e256f88ac804f470c000000001976a914afde9350ad67bd04d7b9a71c7415056701e3bd1b88ac40548900000000001976a9145d44b42656a6ad494d030db0efed1e55f534228388ac7c078700000000001976a9141bad37e886ed87c26e98d652ab6fe0bf7869467188acd5a14606000000001976a9147ef5b306dc5a7b754a8c902e79e4b72f0403f09388acd222b491010000001976a914d03135f2f46776b93126830da160846edbe57fae88ac00000000"
    }
  ],
  "time": 1517348819,
  "mediantime": 1517348250,
  "nonce": 5544321,
  "bits": "1a042eae",
  "difficulty": 4011378.762614286,
  "chainwork": "00000000000000000000000000000000000000000000003474be94eed3c52864",
  "previousblockhash": "25152c1cc47175dfe409a0ad7450d49f195894303fadd64f92a2e78281ebaecf",
  "nextblockhash": "c3228145c8ee293003234c6a3271380d4993371fb14b673bfd25a0333b79b1e0"
}
