{
  "hash": "638d4b84778528fdb501a91983e98c1bb0c7521fca4acf6c6086f1e35ca29e29",
  "confirmations": 3121,
  "strippedsize": 253,
  "size": 253,
  "weight": 1012,
  "height": 1357874,
  "version": 536870912,
  "versionHex": "20000000",
  "merkleroot": "0e5e40e93fd9dc46123fc3d5e73374e7791eaf567306de66a1deb880c4b198ec",
  "tx": [
    {
      "txid": "0e5e40e93fd9dc46123fc3d5e73374e7791eaf567306de66a1deb880c4b198ec",
      "hash": "0e5e40e93fd9dc46123fc3d5e73374e7791eaf567306de66a1deb880c4b198ec",
      "version": 1,
      "size": 172,
      "vsize": 172,
      "locktime": 0,
      "vin": [
        {
          "coinbase": "0332b8141a4d696e656420627920416e74506f6f6c20626a3532205a6c7de8fabe6d6d7af1257d5cd80765e6fd8b615b36cb28dd748fd34fcf09887b00d5de7f9863210400000000000000df3b0000000000001c000000",
          "sequence": 4294967295
        }
      ],
      "vout": [
        {
          "value": 25.00000000,
          "n": 0,
          "scriptPubKey": {
            "asm": "OP_DUP OP_HASH160 0ff3ccc5e8be88afe24b5d634e5852d474dbdff1 OP_EQUALVERIFY OP_CHECKSIG",
            "hex": "76a9140ff3ccc5e8be88afe24b5d634e5852d474dbdff188ac",
            "reqSigs": 1,
            "type": "pubkeyhash",
            "addresses": [
              "LLgJTbzZMsRTCUF1NtvvL9SR1a4pVieW89"
            ]
          }
        }
      ],
      "hex": "01000000010000000000000000000000000000000000000000000000000000000000000000ffffffff570332b8141a4d696e656420627920416e74506f6f6c20626a3532205a6c7de8fabe6d6d7af1257d5cd80765e6fd8b615b36cb28dd748fd34fcf09887b00d5de7f9863210400000000000000df3b0000000000001c000000ffffffff0100f90295000000001976a9140ff3ccc5e8be88afe24b5d634e5852d474dbdff188ac00000000"
    }
  ],
  "time": 1517059560,
  "mediantime": 1517059073,
  "nonce": 3104558241,
  "bits": "1a047f14",
  "difficulty": 3731199.183374282,
  "chainwork": "0000000000000000000000000000000000000000000000329a7c826b366ebc2e",
  "previousblockhash": "86ea60531bbe9dbbce17100d6fe5505f02889546e97f6362971555f5e46bf5f9",
  "nextblockhash": "030c069a8a59ab8c80ffb14ab71605e624653883bb79fd355308288320737655"
}
