{
  "hash": "63f09cb1a66ea6ef996f0888b8a2b1270885ade130411283d8e15bec61080f18",
  "confirmations": 3063,
  "strippedsize": 2322,
  "size": 2358,
  "weight": 9324,
  "height": 1357932,
  "version": 536870912,
  "versionHex": "20000000",
  "merkleroot": "9dbaae99537d7bd19e0b43f0bddd1f8adfa181da207f44d6970f5795cec856a6",
  "tx": [
    {
      "txid": "2d26217e7e54295f44071fef33465ec9821321661615b3e0a991c4f64cee68bd",
      "hash": "96aef798384703035c50fc5c19ea94de22fd75840bfa002fe971fda7818d080a",
      "version": 1,
      "size": 260,
      "vsize": 233,
      "locktime": 0,
      "vin": [
        {
          "coinbase": "036cb814192f5669614254432f4d696e656420627920706f6e6f6d61722f2cfabe6d6df3a24ae080457c45c363bbe061b7b7b7e7e2f62416dd9add1b32322fd44d3a94010000000000000010d65d69000eddf31e678c447403000000",
          "sequence": 4294967295
        }
      ],
      "vout": [
        {
          "value": 25.00523800,
          "n": 0,
          "scriptPubKey": {
            "asm": "OP_DUP OP_HASH160 e16c28146ed4869c190b3f0bdc18d80d45f92134 OP_EQUALVERIFY OP_CHECKSIG",
            "hex": "76a914e16c28146ed4869c190b3f0bdc18d80d45f9213488ac",
            "reqSigs": 1,
            "type": "pubkeyhash",
            "addresses": [
              "LfmssDyX6iZvbVqHv6t9P6JWXia2JG7mdb"
            ]
          }
        }, 
        {
          "value": 0.00000000,
          "n": 1,
          "scriptPubKey": {
            "asm": "OP_RETURN aa21a9edf9270efebbf75eccfd6e44770b0df8d250cb3a6831a84111e238cd94c4f0acf8",
            "hex": "6a24aa21a9edf9270efebbf75eccfd6e44770b0df8d250cb3a6831a84111e238cd94c4f0acf8",
            "type": "nulldata"
          }
        }
      ],
      "hex": "010000000001010000000000000000000000000000000000000000000000000000000000000000ffffffff5c036cb814192f5669614254432f4d696e656420627920706f6e6f6d61722f2cfabe6d6df3a24ae080457c45c363bbe061b7b7b7e7e2f62416dd9add1b32322fd44d3a94010000000000000010d65d69000eddf31e678c447403000000ffffffff0218f70a95000000001976a914e16c28146ed4869c190b3f0bdc18d80d45f9213488ac0000000000000000266a24aa21a9edf9270efebbf75eccfd6e44770b0df8d250cb3a6831a84111e238cd94c4f0acf80120000000000000000000000000000000000000000000000000000000000000000000000000"
    }, 
    {
      "txid": "5c5ba95c97b70c6e8791ea9bb6de82f00880c65986a346f6d9200a0181db9a55",
      "hash": "5c5ba95c97b70c6e8791ea9bb6de82f00880c65986a346f6d9200a0181db9a55",
      "version": 1,
      "size": 192,
      "vsize": 192,
      "locktime": 0,
      "vin": [
        {
          "txid": "1fa237e493ec420d243f4de7609d6399116413e76820e1daa9bf6c649521a5c8",
          "vout": 0,
          "scriptSig": {
            "asm": "30450221009397999c1c9432ea4c8d5eeb1435bee66c25b58d1a9afdbadb3bffb714465d9902207ba9daebecc3fef6f2adaccf5fc152f1ee641abfe79af373338024eb4b9328bf[ALL] 023a4016535eac7be6a53bc3a82bd00a1dd58f654816324c664dbdfc09176940cc",
            "hex": "4830450221009397999c1c9432ea4c8d5eeb1435bee66c25b58d1a9afdbadb3bffb714465d9902207ba9daebecc3fef6f2adaccf5fc152f1ee641abfe79af373338024eb4b9328bf0121023a4016535eac7be6a53bc3a82bd00a1dd58f654816324c664dbdfc09176940cc"
          },
          "sequence": 4294967295
        }
      ],
      "vout": [
        {
          "value": 4.33506026,
          "n": 0,
          "scriptPubKey": {
            "asm": "OP_DUP OP_HASH160 12d926b84202a88940bc8c805ad450acb66e6abc OP_EQUALVERIFY OP_CHECKSIG",
            "hex": "76a91412d926b84202a88940bc8c805ad450acb66e6abc88ac",
            "reqSigs": 1,
            "type": "pubkeyhash",
            "addresses": [
              "LLwcZbi9KKSvzxyJwk9ZXGFC7EcdbYKpVM"
            ]
          }
        }
      ],
      "hex": "0100000001c8a52195646cbfa9dae12068e713641199639d60e74d3f240d42ec93e437a21f000000006b4830450221009397999c1c9432ea4c8d5eeb1435bee66c25b58d1a9afdbadb3bffb714465d9902207ba9daebecc3fef6f2adaccf5fc152f1ee641abfe79af373338024eb4b9328bf0121023a4016535eac7be6a53bc3a82bd00a1dd58f654816324c664dbdfc09176940ccffffffff01eac6d619000000001976a91412d926b84202a88940bc8c805ad450acb66e6abc88ac00000000"
    }, 
    {
      "txid": "eb95b01729a7d5d351d8379bc4c4ccee0b2206b9fc23efe4c1dc81518b61f60d",
      "hash": "eb95b01729a7d5d351d8379bc4c4ccee0b2206b9fc23efe4c1dc81518b61f60d",
      "version": 1,
      "size": 225,
      "vsize": 225,
      "locktime": 0,
      "vin": [
        {
          "txid": "a591ced9786944507b37914ad6eb0b80fe3bf8a693d127dafb8f288a40caf67f",
          "vout": 1,
          "scriptSig": {
            "asm": "304402203e8dea168e28794d5e3755ff8c14698f981bcdfdb328fa11ed6b2da130a1e98102203a771dfb28adfee3486dba60bfd593dc40b905d48ba74846b48cbdcf5c2bdf78[ALL] 03da39d65914d1d53d8ba3da84f57aae466f192b806f50798f59d0cc549ba83386",
            "hex": "47304402203e8dea168e28794d5e3755ff8c14698f981bcdfdb328fa11ed6b2da130a1e98102203a771dfb28adfee3486dba60bfd593dc40b905d48ba74846b48cbdcf5c2bdf78012103da39d65914d1d53d8ba3da84f57aae466f192b806f50798f59d0cc549ba83386"
          },
          "sequence": 4294967295
        }
      ],
      "vout": [
        {
          "value": 0.02853400,
          "n": 0,
          "scriptPubKey": {
            "asm": "OP_DUP OP_HASH160 3c6764e6358a731b8d0c4a7fb23886d56f82303a OP_EQUALVERIFY OP_CHECKSIG",
            "hex": "76a9143c6764e6358a731b8d0c4a7fb23886d56f82303a88ac",
            "reqSigs": 1,
            "type": "pubkeyhash",
            "addresses": [
              "LQjLfg1ogf7opeiLQG5z99ehDJAJj5R4nK"
            ]
          }
        }, 
        {
          "value": 0.20076188,
          "n": 1,
          "scriptPubKey": {
            "asm": "OP_DUP OP_HASH160 d56927ed442666d2d75138955ed74cd936cd1bec OP_EQUALVERIFY OP_CHECKSIG",
            "hex": "76a914d56927ed442666d2d75138955ed74cd936cd1bec88ac",
            "reqSigs": 1,
            "type": "pubkeyhash",
            "addresses": [
              "LegNASKZtmgMUFvKUwvb7PzrLMzyqfBDRV"
            ]
          }
        }
      ],
      "hex": "01000000017ff6ca408a288ffbda27d193a6f83bfe800bebd64a91377b50446978d9ce91a5010000006a47304402203e8dea168e28794d5e3755ff8c14698f981bcdfdb328fa11ed6b2da130a1e98102203a771dfb28adfee3486dba60bfd593dc40b905d48ba74846b48cbdcf5c2bdf78012103da39d65914d1d53d8ba3da84f57aae466f192b806f50798f59d0cc549ba83386ffffffff02188a2b00000000001976a9143c6764e6358a731b8d0c4a7fb23886d56f82303a88ac9c563201000000001976a914d56927ed442666d2d75138955ed74cd936cd1bec88ac00000000"
    }, 
    {
      "txid": "5f9881b466ffbd0b4a781b2053c3390ac2de9b8f685708af1d35e909375b538b",
      "hash": "5f9881b466ffbd0b4a781b2053c3390ac2de9b8f685708af1d35e909375b538b",
      "version": 1,
      "size": 189,
      "vsize": 189,
      "locktime": 0,
      "vin": [
        {
          "txid": "eb95b01729a7d5d351d8379bc4c4ccee0b2206b9fc23efe4c1dc81518b61f60d",
          "vout": 0,
          "scriptSig": {
            "asm": "3044022019d6e069269d74c6c523bb5f7df9be7b4b29c090048f68738c9b58bd636bbdfd022070162f4a7509ff2eaefdd25d920eae3e7d8f69f7f1f57dd768a60e7f8650b8a5[ALL] 03595d780b9808737530fd9ca51129cf3a715a1dcc1a853095b9246a644bd14312",
            "hex": "473044022019d6e069269d74c6c523bb5f7df9be7b4b29c090048f68738c9b58bd636bbdfd022070162f4a7509ff2eaefdd25d920eae3e7d8f69f7f1f57dd768a60e7f8650b8a5012103595d780b9808737530fd9ca51129cf3a715a1dcc1a853095b9246a644bd14312"
          },
          "sequence": 4294967295
        }
      ],
      "vout": [
        {
          "value": 0.02753400,
          "n": 0,
          "scriptPubKey": {
            "asm": "OP_HASH160 100180e2cca7fa864c8dd6718b78495d452350a7 OP_EQUAL",
            "hex": "a914100180e2cca7fa864c8dd6718b78495d452350a787",
            "reqSigs": 1,
            "type": "scripthash",
            "addresses": [
              "M9MnqxjbVWe6rYgJxZF7vZZzHuU5XHJGwN"
            ]
          }
        }
      ],
      "hex": "01000000010df6618b5181dcc1e4ef23fcb906220beeccc4c49b37d851d3d5a72917b095eb000000006a473044022019d6e069269d74c6c523bb5f7df9be7b4b29c090048f68738c9b58bd636bbdfd022070162f4a7509ff2eaefdd25d920eae3e7d8f69f7f1f57dd768a60e7f8650b8a5012103595d780b9808737530fd9ca51129cf3a715a1dcc1a853095b9246a644bd14312ffffffff0178032a000000000017a914100180e2cca7fa864c8dd6718b78495d452350a78700000000"
    }, 
    {
      "txid": "e031a031acc10b233aaa03c69adee8858f52a8e9e3d198a83f44329b13a53edf",
      "hash": "e031a031acc10b233aaa03c69adee8858f52a8e9e3d198a83f44329b13a53edf",
      "version": 2,
      "size": 225,
      "vsize": 225,
      "locktime": 1357929,
      "vin": [
        {
          "txid": "641a6ba00f883ba24b0b491ce7ea17137ac0d582c2b1d6339fa5e91cf1c9c7d8",
          "vout": 1,
          "scriptSig": {
            "asm": "304402204fd62ce9f549ee4280706a38f96517be670ed923ee24f4a7372c364d1f55d04f02207e8443bd74e42f90b3e62a8492da1badbf6ce134a9830c9b1d58ff2a22f09e39[ALL] 0237d518b4567736946647efb19a7b31435b4ae2829f879b0188a341a2a22da19f",
            "hex": "47304402204fd62ce9f549ee4280706a38f96517be670ed923ee24f4a7372c364d1f55d04f02207e8443bd74e42f90b3e62a8492da1badbf6ce134a9830c9b1d58ff2a22f09e3901210237d518b4567736946647efb19a7b31435b4ae2829f879b0188a341a2a22da19f"
          },
          "sequence": 4294967294
        }
      ],
      "vout": [
        {
          "value": 0.17030000,
          "n": 0,
          "scriptPubKey": {
            "asm": "OP_DUP OP_HASH160 8554523d9031a28f1f315f000558d8ac605c64b9 OP_EQUALVERIFY OP_CHECKSIG",
            "hex": "76a9148554523d9031a28f1f315f000558d8ac605c64b988ac",
            "reqSigs": 1,
            "type": "pubkeyhash",
            "addresses": [
              "LXNw9UCVafBQRc5c9tS9M3oa6P9YpU7oi1"
            ]
          }
        }, 
        {
          "value": 2.62476025,
          "n": 1,
          "scriptPubKey": {
            "asm": "OP_DUP OP_HASH160 2a8ba6941f081f68b64b505b26234fc78db8f61a OP_EQUALVERIFY OP_CHECKSIG",
            "hex": "76a9142a8ba6941f081f68b64b505b26234fc78db8f61a88ac",
            "reqSigs": 1,
            "type": "pubkeyhash",
            "addresses": [
              "LP6uwNSWrvwSCGHe5f6W67duSgydC1sZan"
            ]
          }
        }
      ],
      "hex": "0200000001d8c7c9f11ce9a59f33d6b1c282d5c07a1317eae71c490b4ba23b880fa06b1a64010000006a47304402204fd62ce9f549ee4280706a38f96517be670ed923ee24f4a7372c364d1f55d04f02207e8443bd74e42f90b3e62a8492da1badbf6ce134a9830c9b1d58ff2a22f09e3901210237d518b4567736946647efb19a7b31435b4ae2829f879b0188a341a2a22da19ffeffffff0270db0301000000001976a9148554523d9031a28f1f315f000558d8ac605c64b988acf910a50f000000001976a9142a8ba6941f081f68b64b505b26234fc78db8f61a88ac69b81400"
    }, 
    {
      "txid": "0c9dbc4342b41646c10efaddcff250c2d4d17816bdfa22cdde5f4190730ed818",
      "hash": "0c9dbc4342b41646c10efaddcff250c2d4d17816bdfa22cdde5f4190730ed818",
      "version": 1,
      "size": 962,
      "vsize": 962,
      "locktime": 1357930,
      "vin": [
        {
          "txid": "88f2a3738d110dceef51eb20522480123e322e2c92712cc8d541e973ecb81518",
          "vout": 0,
          "scriptSig": {
            "asm": "304402206d00a5e7905756f688e42c251cf495731d060cc8a20a5d1b66ff90f9a8d167e702200de71ae53bebb97c3f1e13587c01553c74f68b4296eab8ab41010f1754c8af95[ALL] 02457aaa6fe35033f9c85199d7ff7e3da36334347457eec3f6dc9acc79c5f9c367",
            "hex": "47304402206d00a5e7905756f688e42c251cf495731d060cc8a20a5d1b66ff90f9a8d167e702200de71ae53bebb97c3f1e13587c01553c74f68b4296eab8ab41010f1754c8af95012102457aaa6fe35033f9c85199d7ff7e3da36334347457eec3f6dc9acc79c5f9c367"
          },
          "sequence": 4294967294
        }, 
        {
          "txid": "97ff3d8dce9c69478ed586334eba7095d871b6a4ba4bc8eec51387a07f2f3115",
          "vout": 0,
          "scriptSig": {
            "asm": "3044022051bbd4ff4d46f6ab51a289a7fed9efe2416af0168dee12e0139925bababf2f5d022073b92bcaee4116dd28d1c38f762ce207f619fdc03a0b0de25d15def1b74eb3fb[ALL] 03975529dccfad1028507ea84a866fb1e5f94e19ee738b74580eea428281c63678",
            "hex": "473044022051bbd4ff4d46f6ab51a289a7fed9efe2416af0168dee12e0139925bababf2f5d022073b92bcaee4116dd28d1c38f762ce207f619fdc03a0b0de25d15def1b74eb3fb012103975529dccfad1028507ea84a866fb1e5f94e19ee738b74580eea428281c63678"
          },
          "sequence": 4294967294
        }, 
        {
          "txid": "2361d4f47fbbad6bae075818d0ac4280d78eebc045282d1e423c1c863a7ac0b3",
          "vout": 1,
          "scriptSig": {
            "asm": "3044022049bb3e73564846145d8aeab3006f00e7b4339726a9214ecb7acefa9943b3751e0220224ed645d82c49f195104f129e46e2b51d4a5089004cca70f059fcadab527f32[ALL] 022170fc51ed10a765bd062b2a2d235a0710b39369fc200c4a5c94f624d1f5cc69",
            "hex": "473044022049bb3e73564846145d8aeab3006f00e7b4339726a9214ecb7acefa9943b3751e0220224ed645d82c49f195104f129e46e2b51d4a5089004cca70f059fcadab527f320121022170fc51ed10a765bd062b2a2d235a0710b39369fc200c4a5c94f624d1f5cc69"
          },
          "sequence": 4294967294
        }, 
        {
          "txid": "ba841fbcfc95d11f7bba45344669ef19640c69d526c29d6e5954c6f0ee8e6c2a",
          "vout": 1,
          "scriptSig": {
            "asm": "30450221009383dd2f2158851cd894efd3d2a5c9933ec9d286cb34b4e24bb43f68fb8f823302203a15153b833d37f3c8cd89dd6db77b406f3f9fcadc2a60a83cb08046caf5fb18[ALL] 0228a24f4e30f79d9681c24a2b0566c28ae97e12643da6b023bad502c18c6f48f9",
            "hex": "4830450221009383dd2f2158851cd894efd3d2a5c9933ec9d286cb34b4e24bb43f68fb8f823302203a15153b833d37f3c8cd89dd6db77b406f3f9fcadc2a60a83cb08046caf5fb1801210228a24f4e30f79d9681c24a2b0566c28ae97e12643da6b023bad502c18c6f48f9"
          },
          "sequence": 4294967294
        }, 
        {
          "txid": "c5940c822713e91bf5c49b5dbf5594a030dacc881a72365c5e03f5a5a6d4e592",
          "vout": 1,
          "scriptSig": {
            "asm": "30440220511c23946c19c152543c0ebaf95f913c0805f87f7020edd90cc49e4a28d6d9da02200c827629677c842950ce0f939e46bf48d4d7066d850c10ad81dd040dc8e8a193[ALL] 02b22a2ab975a0366bcb67404fe0dc8f157daee48d62c5e41ac1a2e766b44d4d01",
            "hex": "4730440220511c23946c19c152543c0ebaf95f913c0805f87f7020edd90cc49e4a28d6d9da02200c827629677c842950ce0f939e46bf48d4d7066d850c10ad81dd040dc8e8a193012102b22a2ab975a0366bcb67404fe0dc8f157daee48d62c5e41ac1a2e766b44d4d01"
          },
          "sequence": 4294967294
        }, 
        {
          "txid": "063350c91bbefcfaf83d29f56e887a970a7a2f07f34bd44f9bf039aecf9c9aa6",
          "vout": 0,
          "scriptSig": {
            "asm": "3045022100b0638db421160c073793fcebb0f0ae6ada0ed57a6230108171d98bdd336574090220249177accc5dd16790890f43e5ec56137cfd4436607935f399cf97213ec07d2e[ALL] 028e4a672382aca31f8ca6035e2e1184e6cd79c4e53bce3d240ecf865775fcb7bf",
            "hex": "483045022100b0638db421160c073793fcebb0f0ae6ada0ed57a6230108171d98bdd336574090220249177accc5dd16790890f43e5ec56137cfd4436607935f399cf97213ec07d2e0121028e4a672382aca31f8ca6035e2e1184e6cd79c4e53bce3d240ecf865775fcb7bf"
          },
          "sequence": 4294967294
        }
      ],
      "vout": [
        {
          "value": 1.85651266,
          "n": 0,
          "scriptPubKey": {
            "asm": "OP_DUP OP_HASH160 e6f7ef9641c7f60e71d0e546b00ec6ff07729c84 OP_EQUALVERIFY OP_CHECKSIG",
            "hex": "76a914e6f7ef9641c7f60e71d0e546b00ec6ff07729c8488ac",
            "reqSigs": 1,
            "type": "pubkeyhash",
            "addresses": [
              "LgHChDo5WvJNvsAYv4Y19QKD5ZNMxF2eJ7"
            ]
          }
        }, 
        {
          "value": 0.01009580,
          "n": 1,
          "scriptPubKey": {
            "asm": "OP_DUP OP_HASH160 fc624aa8ce29da8bd3383ff24fea8b44b0b61758 OP_EQUALVERIFY OP_CHECKSIG",
            "hex": "76a914fc624aa8ce29da8bd3383ff24fea8b44b0b6175888ac",
            "reqSigs": 1,
            "type": "pubkeyhash",
            "addresses": [
              "LiESHyczbMsTk1nkXtnDoG1r9NSVoFXAgi"
            ]
          }
        }
      ],
      "hex": "01000000061815b8ec73e941d5c82c71922c2e323e1280245220eb51efce0d118d73a3f288000000006a47304402206d00a5e7905756f688e42c251cf495731d060cc8a20a5d1b66ff90f9a8d167e702200de71ae53bebb97c3f1e13587c01553c74f68b4296eab8ab41010f1754c8af95012102457aaa6fe35033f9c85199d7ff7e3da36334347457eec3f6dc9acc79c5f9c367feffffff15312f7fa08713c5eec84bbaa4b671d89570ba4e3386d58e47699cce8d3dff97000000006a473044022051bbd4ff4d46f6ab51a289a7fed9efe2416af0168dee12e0139925bababf2f5d022073b92bcaee4116dd28d1c38f762ce207f619fdc03a0b0de25d15def1b74eb3fb012103975529dccfad1028507ea84a866fb1e5f94e19ee738b74580eea428281c63678feffffffb3c07a3a861c3c421e2d2845c0eb8ed78042acd0185807ae6badbb7ff4d46123010000006a473044022049bb3e73564846145d8aeab3006f00e7b4339726a9214ecb7acefa9943b3751e0220224ed645d82c49f195104f129e46e2b51d4a5089004cca70f059fcadab527f320121022170fc51ed10a765bd062b2a2d235a0710b39369fc200c4a5c94f624d1f5cc69feffffff2a6c8eeef0c654596e9dc226d5690c6419ef69463445ba7b1fd195fcbc1f84ba010000006b4830450221009383dd2f2158851cd894efd3d2a5c9933ec9d286cb34b4e24bb43f68fb8f823302203a15153b833d37f3c8cd89dd6db77b406f3f9fcadc2a60a83cb08046caf5fb1801210228a24f4e30f79d9681c24a2b0566c28ae97e12643da6b023bad502c18c6f48f9feffffff92e5d4a6a5f5035e5c36721a88ccda30a09455bf5d9bc4f51be91327820c94c5010000006a4730440220511c23946c19c152543c0ebaf95f913c0805f87f7020edd90cc49e4a28d6d9da02200c827629677c842950ce0f939e46bf48d4d7066d850c10ad81dd040dc8e8a193012102b22a2ab975a0366bcb67404fe0dc8f157daee48d62c5e41ac1a2e766b44d4d01feffffffa69a9ccfae39f09b4fd44bf3072f7a0a977a886ef5293df8fafcbe1bc9503306000000006b483045022100b0638db421160c073793fcebb0f0ae6ada0ed57a6230108171d98bdd336574090220249177accc5dd16790890f43e5ec56137cfd4436607935f399cf97213ec07d2e0121028e4a672382aca31f8ca6035e2e1184e6cd79c4e53bce3d240ecf865775fcb7bffeffffff0242d0100b000000001976a914e6f7ef9641c7f60e71d0e546b00ec6ff07729c8488acac670f00000000001976a914fc624aa8ce29da8bd3383ff24fea8b44b0b6175888ac6ab81400"
    }, 
    {
      "txid": "1fdb593ed5eabadecd876710693124ac7ce2be9f33b1fe2946c2b16cbea83cd2",
      "hash": "1fdb593ed5eabadecd876710693124ac7ce2be9f33b1fe2946c2b16cbea83cd2",
      "version": 2,
      "size": 224,
      "vsize": 224,
      "locktime": 1357929,
      "vin": [
        {
          "txid": "5f20602b9d5e109b1dd1a665f3ead344c1bca31b3d4e658e852d4ba7a1191d90",
          "vout": 0,
          "scriptSig": {
            "asm": "3045022100c3c999d0534c5e5b696471ea7245304b23469a7ee2f1314d0d24c1163759fa3502203e628766540a06e89cf5d4e724dd6cf9ad226c9172f87ab75f4cf605a1f01ee6[ALL] 0240346c7c5b73da921c907a5b5984c1781bdb7a20e9aea2dea993b7abfbc90d67",
            "hex": "483045022100c3c999d0534c5e5b696471ea7245304b23469a7ee2f1314d0d24c1163759fa3502203e628766540a06e89cf5d4e724dd6cf9ad226c9172f87ab75f4cf605a1f01ee601210240346c7c5b73da921c907a5b5984c1781bdb7a20e9aea2dea993b7abfbc90d67"
          },
          "sequence": 4294967294
        }
      ],
      "vout": [
        {
          "value": 0.30977530,
          "n": 0,
          "scriptPubKey": {
            "asm": "OP_HASH160 6828d278a68d33410e298d8ebf1a08d36affbb5f OP_EQUAL",
            "hex": "a9146828d278a68d33410e298d8ebf1a08d36affbb5f87",
            "reqSigs": 1,
            "type": "scripthash",
            "addresses": [
              "MHPuQkf2ev5Z971TzsXRJTcPGvDeTbaMev"
            ]
          }
        }, 
        {
          "value": 1.30392030,
          "n": 1,
          "scriptPubKey": {
            "asm": "OP_DUP OP_HASH160 66af477e6af079a837a284e79f47c8b8492bed2f OP_EQUALVERIFY OP_CHECKSIG",
            "hex": "76a91466af477e6af079a837a284e79f47c8b8492bed2f88ac",
            "reqSigs": 1,
            "type": "pubkeyhash",
            "addresses": [
              "LUauAPz4r8SN7es4PU5SwVowhX5cgmZj4A"
            ]
          }
        }
      ],
      "hex": "0200000001901d19a1a74b2d858e654e3d1ba3bcc144d3eaf365a6d11d9b105e9d2b60205f000000006b483045022100c3c999d0534c5e5b696471ea7245304b23469a7ee2f1314d0d24c1163759fa3502203e628766540a06e89cf5d4e724dd6cf9ad226c9172f87ab75f4cf605a1f01ee601210240346c7c5b73da921c907a5b5984c1781bdb7a20e9aea2dea993b7abfbc90d67feffffff02faadd8010000000017a9146828d278a68d33410e298d8ebf1a08d36affbb5f87de9fc507000000001976a91466af477e6af079a837a284e79f47c8b8492bed2f88ac69b81400"
    }
  ],
  "time": 1517066915,
  "mediantime": 1517066343,
  "nonce": 2163166344,
  "bits": "1a047f14",
  "difficulty": 3731199.183374282,
  "chainwork": "000000000000000000000000000000000000000000000032a762b5220be35a12",
  "previousblockhash": "7bbfccf5b61428179bf13fd9109ad134cb2d19efa5c325d5b64bda2c5675ee5d",
  "nextblockhash": "40f6573a5a978244d42fc51e943dfea5353018d448355f786503600850dbeefd"
}
