{
  "hash": "646501b97b0026f806c3ad9091b8c550394c2d8aa5b349899cc2a88c3f1f209d",
  "confirmations": 855,
  "strippedsize": 1896,
  "size": 2041,
  "weight": 7729,
  "height": 1360139,
  "version": 536870912,
  "versionHex": "20000000",
  "merkleroot": "d0d31eb415505c90cb273aee42755fd519642b257c427ab7d4b99174f12722c0",
  "tx": [
    {
      "txid": "e890ca0fe57ce7b7937350105c0f054474a4df3a4c44851d663244087aec900b",
      "hash": "116844c4cc1e78646cc9b554e73ad179576fbe5ee4d4ff9a920cd20c09f0c507",
      "version": 1,
      "size": 244,
      "vsize": 217,
      "locktime": 0,
      "vin": [
        {
          "coinbase": "030bc114049066715a0802ac80b901000000fabe6d6d2a6c7feca9775ca2b48ea80c8a78052dd5f7f7b44c6f036c81dca590adc13fce40000000000000000d2f6e6f64655374726174756d2f",
          "sequence": 0
        }
      ],
      "vout": [
        {
          "value": 25.00866050,
          "n": 0,
          "scriptPubKey": {
            "asm": "OP_DUP OP_HASH160 0c617fdb2ea42aed30a509595ee21ba3f6688db0 OP_EQUALVERIFY OP_CHECKSIG",
            "hex": "76a9140c617fdb2ea42aed30a509595ee21ba3f6688db088ac",
            "reqSigs": 1,
            "type": "pubkeyhash",
            "addresses": [
              "LLMRAtr3qBje2ySEa3CnZ55LA4TQMWnRY3"
            ]
          }
        }, 
        {
          "value": 0.00000000,
          "n": 1,
          "scriptPubKey": {
            "asm": "OP_RETURN aa21a9edc6fb1d9b7c26987d7732fab619a30a5fa621dd9e247b3e83890e07ed415bcc55",
            "hex": "6a24aa21a9edc6fb1d9b7c26987d7732fab619a30a5fa621dd9e247b3e83890e07ed415bcc55",
            "type": "nulldata"
          }
        }
      ],
      "hex": "010000000001010000000000000000000000000000000000000000000000000000000000000000ffffffff4c030bc114049066715a0802ac80b901000000fabe6d6d2a6c7feca9775ca2b48ea80c8a78052dd5f7f7b44c6f036c81dca590adc13fce40000000000000000d2f6e6f64655374726174756d2f000000000202301095000000001976a9140c617fdb2ea42aed30a509595ee21ba3f6688db088ac0000000000000000266a24aa21a9edc6fb1d9b7c26987d7732fab619a30a5fa621dd9e247b3e83890e07ed415bcc550120000000000000000000000000000000000000000000000000000000000000000000000000"
    }, 
    {
      "txid": "e85ab27e959cb8a45b5863b69bacea5d5c911513a58d5813e67f066d56e3431f",
      "hash": "e85ab27e959cb8a45b5863b69bacea5d5c911513a58d5813e67f066d56e3431f",
      "version": 1,
      "size": 225,
      "vsize": 225,
      "locktime": 0,
      "vin": [
        {
          "txid": "e40e619ec17a53e0307a019c6f951e2beb1d3e0f98841633af9502ac0a452faf",
          "vout": 1,
          "scriptSig": {
            "asm": "304402207a1bc8b3f3bc5d62161e3148989c5bd879dd9c13fe85dc19582cbdfc282bfe9202200873730e6144ec35e84e9cea1a18fe8b75977c28d267bc0eab41d2a2b519d74c[ALL] 02a7bfd69716eb8dd09f45f2c025f1ab6fcc0df0528b40f077e9ee44f5e79db904",
            "hex": "47304402207a1bc8b3f3bc5d62161e3148989c5bd879dd9c13fe85dc19582cbdfc282bfe9202200873730e6144ec35e84e9cea1a18fe8b75977c28d267bc0eab41d2a2b519d74c012102a7bfd69716eb8dd09f45f2c025f1ab6fcc0df0528b40f077e9ee44f5e79db904"
          },
          "sequence": 4294967295
        }
      ],
      "vout": [
        {
          "value": 0.01005837,
          "n": 0,
          "scriptPubKey": {
            "asm": "OP_DUP OP_HASH160 1b695ba0cdb6fa1fbd1cc2a0dd8af232744ed627 OP_EQUALVERIFY OP_CHECKSIG",
            "hex": "76a9141b695ba0cdb6fa1fbd1cc2a0dd8af232744ed62788ac",
            "reqSigs": 1,
            "type": "pubkeyhash",
            "addresses": [
              "LMitinjBodtJaXDVXKdjStBHZHu2ynDah2"
            ]
          }
        }, 
        {
          "value": 0.23622845,
          "n": 1,
          "scriptPubKey": {
            "asm": "OP_DUP OP_HASH160 288c7e5f1c744f93ff6681a4bd6c7ad4c7f82f07 OP_EQUALVERIFY OP_CHECKSIG",
            "hex": "76a914288c7e5f1c744f93ff6681a4bd6c7ad4c7f82f0788ac",
            "reqSigs": 1,
            "type": "pubkeyhash",
            "addresses": [
              "LNvMbZAa8a9vAw2sXbUk3a7kVh6o7phTQD"
            ]
          }
        }
      ],
      "hex": "0100000001af2f450aac0295af331684980f3e1deb2b1e956f9c017a30e0537ac19e610ee4010000006a47304402207a1bc8b3f3bc5d62161e3148989c5bd879dd9c13fe85dc19582cbdfc282bfe9202200873730e6144ec35e84e9cea1a18fe8b75977c28d267bc0eab41d2a2b519d74c012102a7bfd69716eb8dd09f45f2c025f1ab6fcc0df0528b40f077e9ee44f5e79db904ffffffff020d590f00000000001976a9141b695ba0cdb6fa1fbd1cc2a0dd8af232744ed62788acbd746801000000001976a914288c7e5f1c744f93ff6681a4bd6c7ad4c7f82f0788ac00000000"
    }, 
    {
      "txid": "de2cef3c6a2c639608da89e17e5ba21c9c0322591d1a354caf12fa74e934e049",
      "hash": "de2cef3c6a2c639608da89e17e5ba21c9c0322591d1a354caf12fa74e934e049",
      "version": 1,
      "size": 226,
      "vsize": 226,
      "locktime": 0,
      "vin": [
        {
          "txid": "3e45a79a680c0157bd89283922bdb5c268b9f66310f762723262c4de64487938",
          "vout": 0,
          "scriptSig": {
            "asm": "30450221009d4c125b8b6250c3cac7e69f281770233e7600a3a5456b0426694e6060e8e2310220247c968adcf64710f30edd75e3c880d45b56fe9e7201eb5cdd9ae844d92c9bcc[ALL] 03ec5b7cc403ccfef4e1d1952f8344f50cf18e90b7df52df79617a1ad701eab499",
            "hex": "4830450221009d4c125b8b6250c3cac7e69f281770233e7600a3a5456b0426694e6060e8e2310220247c968adcf64710f30edd75e3c880d45b56fe9e7201eb5cdd9ae844d92c9bcc012103ec5b7cc403ccfef4e1d1952f8344f50cf18e90b7df52df79617a1ad701eab499"
          },
          "sequence": 4294967295
        }
      ],
      "vout": [
        {
          "value": 0.01000255,
          "n": 0,
          "scriptPubKey": {
            "asm": "OP_DUP OP_HASH160 228b6273e6a00e9cfc33b5f8ea44b0690d5466d6 OP_EQUALVERIFY OP_CHECKSIG",
            "hex": "76a914228b6273e6a00e9cfc33b5f8ea44b0690d5466d688ac",
            "reqSigs": 1,
            "type": "pubkeyhash",
            "addresses": [
              "LNNcDM1FUGcB6fYBMu1xZ4Fw1vdEKEBbDg"
            ]
          }
        }, 
        {
          "value": 0.14141102,
          "n": 1,
          "scriptPubKey": {
            "asm": "OP_DUP OP_HASH160 63ad094726f929ba9ec8b2c8134178dae380cb7b OP_EQUALVERIFY OP_CHECKSIG",
            "hex": "76a91463ad094726f929ba9ec8b2c8134178dae380cb7b88ac",
            "reqSigs": 1,
            "type": "pubkeyhash",
            "addresses": [
              "LUJzSyPity4vYb1mKYtvVC7tdVocay4S7t"
            ]
          }
        }
      ],
      "hex": "010000000138794864dec462327262f71063f6b968c2b5bd22392889bd57010c689aa7453e000000006b4830450221009d4c125b8b6250c3cac7e69f281770233e7600a3a5456b0426694e6060e8e2310220247c968adcf64710f30edd75e3c880d45b56fe9e7201eb5cdd9ae844d92c9bcc012103ec5b7cc403ccfef4e1d1952f8344f50cf18e90b7df52df79617a1ad701eab499ffffffff023f430f00000000001976a914228b6273e6a00e9cfc33b5f8ea44b0690d5466d688acaec6d700000000001976a91463ad094726f929ba9ec8b2c8134178dae380cb7b88ac00000000"
    }, 
    {
      "txid": "d18f35b2a50a0f67ec8ad5bb71d158e310f04479204fbb988c3f1037aecfa24e",
      "hash": "babb369175498cda8754dc12a879cec1d5cc287e49b729c5036b98b194301088",
      "version": 1,
      "size": 217,
      "vsize": 136,
      "locktime": 0,
      "vin": [
        {
          "txid": "47ef59cece01fb76e30e551b3d2eb2434316b96435d2ce48fd13830565c99f1c",
          "vout": 1,
          "scriptSig": {
            "asm": "0014d054bb92cfadb690e58aa34eb5a23abf5b1b0e44",
            "hex": "160014d054bb92cfadb690e58aa34eb5a23abf5b1b0e44"
          },
          "txinwitness": [
            "304402202188b5602eba892b24e77cbc02c7a0d5a153335386d8a8114f9f90451d3b61be02200906c972bff2df05ca4362d7784e352998eaa6c012fd915ba0cecc108292dfa601", 
            "028055cca0c19d9b3f02787dc105a7d19358612ed521b7763d806dc9b3f1e2ecb4"
          ],
          "sequence": 4294967295
        }
      ],
      "vout": [
        {
          "value": 2.74920909,
          "n": 0,
          "scriptPubKey": {
            "asm": "OP_DUP OP_HASH160 12fd4f9d780dae6cc2da9d9ccaf1b6aba33a00ed OP_EQUALVERIFY OP_CHECKSIG",
            "hex": "76a91412fd4f9d780dae6cc2da9d9ccaf1b6aba33a00ed88ac",
            "reqSigs": 1,
            "type": "pubkeyhash",
            "addresses": [
              "LLxMt2G8QW8fdcfCAJPJ7cTTQDnpKMVYf6"
            ]
          }
        }
      ],
      "hex": "010000000001011c9fc965058313fd48ced23564b9164343b22e3d1b550ee376fb01cece59ef470100000017160014d054bb92cfadb690e58aa34eb5a23abf5b1b0e44ffffffff01cdf56210000000001976a91412fd4f9d780dae6cc2da9d9ccaf1b6aba33a00ed88ac0247304402202188b5602eba892b24e77cbc02c7a0d5a153335386d8a8114f9f90451d3b61be02200906c972bff2df05ca4362d7784e352998eaa6c012fd915ba0cecc108292dfa60121028055cca0c19d9b3f02787dc105a7d19358612ed521b7763d806dc9b3f1e2ecb400000000"
    }, 
    {
      "txid": "efcac04b0cd8678d0f3d15514c5a4377bef093e4f2d8505aed151ce1095d5924",
      "hash": "efcac04b0cd8678d0f3d15514c5a4377bef093e4f2d8505aed151ce1095d5924",
      "version": 1,
      "size": 372,
      "vsize": 372,
      "locktime": 0,
      "vin": [
        {
          "txid": "05bd88f62bdbe5603a20a6965b8205851cce0dc98e911ae9a15c4d2ee170f5ad",
          "vout": 345,
          "scriptSig": {
            "asm": "3044022004ae771eea7d5d104c6db5be5216675c8b403aba7fb5f7b444fa1d32156e891d022069c696dba45127c1cd2b512eba58da951694ebc4d63c7bfd11bae47cfd7ed53e[ALL] 0393c0b18974f5c572cdf196f41d549ca746f6b45e965a05752d9ee92219e0c249",
            "hex": "473044022004ae771eea7d5d104c6db5be5216675c8b403aba7fb5f7b444fa1d32156e891d022069c696dba45127c1cd2b512eba58da951694ebc4d63c7bfd11bae47cfd7ed53e01210393c0b18974f5c572cdf196f41d549ca746f6b45e965a05752d9ee92219e0c249"
          },
          "sequence": 4294967295
        }, 
        {
          "txid": "fb24b036c94086fcaa817ddb6642b4a79eb45fa21e898a9a76aed1fd0185d372",
          "vout": 1,
          "scriptSig": {
            "asm": "3044022006bd67f2600805695ca01f7f687a0b3342c854f96435e2471e4ff964449a072b02205a49ffbc6d676898c18582e69c7f3c97ce62374e41898fdb279a7335c6edfb49[ALL] 03a205a67a1c9c65b8e6d281322f0ba686220168257b97694f877c1b3f5698d932",
            "hex": "473044022006bd67f2600805695ca01f7f687a0b3342c854f96435e2471e4ff964449a072b02205a49ffbc6d676898c18582e69c7f3c97ce62374e41898fdb279a7335c6edfb49012103a205a67a1c9c65b8e6d281322f0ba686220168257b97694f877c1b3f5698d932"
          },
          "sequence": 4294967295
        }
      ],
      "vout": [
        {
          "value": 0.73000000,
          "n": 0,
          "scriptPubKey": {
            "asm": "OP_DUP OP_HASH160 8bbcf05dd616b6704839c7ce5c257b40697fa086 OP_EQUALVERIFY OP_CHECKSIG",
            "hex": "76a9148bbcf05dd616b6704839c7ce5c257b40697fa08688ac",
            "reqSigs": 1,
            "type": "pubkeyhash",
            "addresses": [
              "LXxpXark6cmFcNc57sFGkftd3zUo2wTokv"
            ]
          }
        }, 
        {
          "value": 0.01009220,
          "n": 1,
          "scriptPubKey": {
            "asm": "OP_DUP OP_HASH160 e12c97ff80bda0e529fb13aa378955f709fd4f21 OP_EQUALVERIFY OP_CHECKSIG",
            "hex": "76a914e12c97ff80bda0e529fb13aa378955f709fd4f2188ac",
            "reqSigs": 1,
            "type": "pubkeyhash",
            "addresses": [
              "LfkZioVXTPggC9HWmae6XHysbK92JzdffM"
            ]
          }
        }
      ],
      "hex": "0100000002adf570e12e4d5ca1e91a918ec90dce1c8505825b96a6203a60e5db2bf688bd05590100006a473044022004ae771eea7d5d104c6db5be5216675c8b403aba7fb5f7b444fa1d32156e891d022069c696dba45127c1cd2b512eba58da951694ebc4d63c7bfd11bae47cfd7ed53e01210393c0b18974f5c572cdf196f41d549ca746f6b45e965a05752d9ee92219e0c249ffffffff72d38501fdd1ae769a8a891ea25fb49ea7b44266db7d81aafc8640c936b024fb010000006a473044022006bd67f2600805695ca01f7f687a0b3342c854f96435e2471e4ff964449a072b02205a49ffbc6d676898c18582e69c7f3c97ce62374e41898fdb279a7335c6edfb49012103a205a67a1c9c65b8e6d281322f0ba686220168257b97694f877c1b3f5698d932ffffffff0240e45904000000001976a9148bbcf05dd616b6704839c7ce5c257b40697fa08688ac44660f00000000001976a914e12c97ff80bda0e529fb13aa378955f709fd4f2188ac00000000"
    }, 
    {
      "txid": "f082b5285821eb448db8431dda2c0f0944d235da75d8d5623d186f0a4eecf37c",
      "hash": "f082b5285821eb448db8431dda2c0f0944d235da75d8d5623d186f0a4eecf37c",
      "version": 1,
      "size": 225,
      "vsize": 225,
      "locktime": 0,
      "vin": [
        {
          "txid": "9c8ce27adb8fc9bdb948746774257a7ac8599812cf89c5e0ad60cfeea340a190",
          "vout": 0,
          "scriptSig": {
            "asm": "304402203c7b8adfa4d7e99d699e60dad90dad271d9aa80a06d05cd9093355c942e29f6c02202a1007409138c5c09e2d7043190bee46a6ee64d9ab08a1dc4e986c33f0885a89[ALL] 02c9f9c0fe4e0767ec5bccd83bf83a8af2ad55871ad2dc7d9f7379db19f9fc2cc7",
            "hex": "47304402203c7b8adfa4d7e99d699e60dad90dad271d9aa80a06d05cd9093355c942e29f6c02202a1007409138c5c09e2d7043190bee46a6ee64d9ab08a1dc4e986c33f0885a89012102c9f9c0fe4e0767ec5bccd83bf83a8af2ad55871ad2dc7d9f7379db19f9fc2cc7"
          },
          "sequence": 4294967295
        }
      ],
      "vout": [
        {
          "value": 7.99000000,
          "n": 0,
          "scriptPubKey": {
            "asm": "OP_DUP OP_HASH160 f153439c4ec73b3efd4bfd2314957ad822e991b6 OP_EQUALVERIFY OP_CHECKSIG",
            "hex": "76a914f153439c4ec73b3efd4bfd2314957ad822e991b688ac",
            "reqSigs": 1,
            "type": "pubkeyhash",
            "addresses": [
              "LhDxrjcUcueejtzbqWE3NYGoL1JCTGFhhU"
            ]
          }
        }, 
        {
          "value": 8.06113081,
          "n": 1,
          "scriptPubKey": {
            "asm": "OP_DUP OP_HASH160 f9871c6dd621879729cd7d502a5af822501cf2aa OP_EQUALVERIFY OP_CHECKSIG",
            "hex": "76a914f9871c6dd621879729cd7d502a5af822501cf2aa88ac",
            "reqSigs": 1,
            "type": "pubkeyhash",
            "addresses": [
              "LhyLNfBkoKshT7R8Pce6vkB9T2cP2o84hx"
            ]
          }
        }
      ],
      "hex": "010000000190a140a3eecf60ade0c589cf129859c87a7a2574677448b9bdc98fdb7ae28c9c000000006a47304402203c7b8adfa4d7e99d699e60dad90dad271d9aa80a06d05cd9093355c942e29f6c02202a1007409138c5c09e2d7043190bee46a6ee64d9ab08a1dc4e986c33f0885a89012102c9f9c0fe4e0767ec5bccd83bf83a8af2ad55871ad2dc7d9f7379db19f9fc2cc7ffffffff02c0c59f2f000000001976a914f153439c4ec73b3efd4bfd2314957ad822e991b688ac394f0c30000000001976a914f9871c6dd621879729cd7d502a5af822501cf2aa88ac00000000"
    }, 
    {
      "txid": "bca51068649d7df5078f037e11178cce506e6fc53c2528b94239deebf14d2740",
      "hash": "bca51068649d7df5078f037e11178cce506e6fc53c2528b94239deebf14d2740",
      "version": 2,
      "size": 225,
      "vsize": 225,
      "locktime": 1360137,
      "vin": [
        {
          "txid": "5284dac4ca3bd837e1e09ce195f11ce082ae49ef988fd9cb6f8848bcd1192e2f",
          "vout": 0,
          "scriptSig": {
            "asm": "304402206715fd2ae6065ac929fc3486a127675dccbcf952513207952a6318022946c5e6022016107163ac91ac5e4bcab3cb570c4a2fa05810b5af662afb23ad3be5e101829b[ALL] 0220bcbd8ae5c7891ac40294d31bf414d84e94fe2e8f6b6ff4a1fc0f98472f9068",
            "hex": "47304402206715fd2ae6065ac929fc3486a127675dccbcf952513207952a6318022946c5e6022016107163ac91ac5e4bcab3cb570c4a2fa05810b5af662afb23ad3be5e101829b01210220bcbd8ae5c7891ac40294d31bf414d84e94fe2e8f6b6ff4a1fc0f98472f9068"
          },
          "sequence": 4294967294
        }
      ],
      "vout": [
        {
          "value": 1.00000000,
          "n": 0,
          "scriptPubKey": {
            "asm": "OP_DUP OP_HASH160 32f2829760916261d3715e145f73a502f721e0e9 OP_EQUALVERIFY OP_CHECKSIG",
            "hex": "76a91432f2829760916261d3715e145f73a502f721e0e988ac",
            "reqSigs": 1,
            "type": "pubkeyhash",
            "addresses": [
              "LPsLZhjvjq65eCgeSu5YJsxTScmC9MTC49"
            ]
          }
        }, 
        {
          "value": 218.53972949,
          "n": 1,
          "scriptPubKey": {
            "asm": "OP_DUP OP_HASH160 678c80f068321c7759db4bb66b5e4b34b1110d29 OP_EQUALVERIFY OP_CHECKSIG",
            "hex": "76a914678c80f068321c7759db4bb66b5e4b34b1110d2988ac",
            "reqSigs": 1,
            "type": "pubkeyhash",
            "addresses": [
              "LUfUBLXq2xhpQrreJnakW6gDXYbKw7d7iP"
            ]
          }
        }
      ],
      "hex": "02000000012f2e19d1bc48886fcbd98f98ef49ae82e01cf195e19ce0e137d83bcac4da8452000000006a47304402206715fd2ae6065ac929fc3486a127675dccbcf952513207952a6318022946c5e6022016107163ac91ac5e4bcab3cb570c4a2fa05810b5af662afb23ad3be5e101829b01210220bcbd8ae5c7891ac40294d31bf414d84e94fe2e8f6b6ff4a1fc0f98472f9068feffffff0200e1f505000000001976a91432f2829760916261d3715e145f73a502f721e0e988acd5299916050000001976a914678c80f068321c7759db4bb66b5e4b34b1110d2988ac09c11400"
    }, 
    {
      "txid": "ee09d57a121dee874d9ad3f0594a8b49e790c16c7e6e7c30621ec65c8c1f2dec",
      "hash": "ee09d57a121dee874d9ad3f0594a8b49e790c16c7e6e7c30621ec65c8c1f2dec",
      "version": 1,
      "size": 226,
      "vsize": 226,
      "locktime": 0,
      "vin": [
        {
          "txid": "8583bb96b6396b7c00da70bf677f1a3918e301d2fb1ee11f1a850a7ac33a074e",
          "vout": 0,
          "scriptSig": {
            "asm": "3045022100d8113c110f7fd63cf6161ff64b1f3d719074e1adac136cc71019f7827d24d196022053e62b917299ba01273ed42105d77c5becf86640d1ac41a49bf0c5e44396acc8[ALL] 034f45093def7d82bbb4f450170ed95a0081927eb577c530778ec3e0114a5409d7",
            "hex": "483045022100d8113c110f7fd63cf6161ff64b1f3d719074e1adac136cc71019f7827d24d196022053e62b917299ba01273ed42105d77c5becf86640d1ac41a49bf0c5e44396acc80121034f45093def7d82bbb4f450170ed95a0081927eb577c530778ec3e0114a5409d7"
          },
          "sequence": 4294967295
        }
      ],
      "vout": [
        {
          "value": 72.78726508,
          "n": 0,
          "scriptPubKey": {
            "asm": "OP_DUP OP_HASH160 01ed63698fdb9948b96e96293dcc0c18341d4198 OP_EQUALVERIFY OP_CHECKSIG",
            "hex": "76a91401ed63698fdb9948b96e96293dcc0c18341d419888ac",
            "reqSigs": 1,
            "type": "pubkeyhash",
            "addresses": [
              "LKQ9KSC45N4fPGZFzvLfoJ9MtXHTxXwZJ2"
            ]
          }
        }, 
        {
          "value": 5.00000000,
          "n": 1,
          "scriptPubKey": {
            "asm": "OP_DUP OP_HASH160 e933f68e6380072adf4d42b2a4627099bfb510f7 OP_EQUALVERIFY OP_CHECKSIG",
            "hex": "76a914e933f68e6380072adf4d42b2a4627099bfb510f788ac",
            "reqSigs": 1,
            "type": "pubkeyhash",
            "addresses": [
              "LgV1xNPtxY8NQLPdb3Dr7p481gKQvD4pfF"
            ]
          }
        }
      ],
      "hex": "01000000014e073ac37a0a851a1fe11efbd201e318391a7f67bf70da007c6b39b696bb8385000000006b483045022100d8113c110f7fd63cf6161ff64b1f3d719074e1adac136cc71019f7827d24d196022053e62b917299ba01273ed42105d77c5becf86640d1ac41a49bf0c5e44396acc80121034f45093def7d82bbb4f450170ed95a0081927eb577c530778ec3e0114a5409d7ffffffff026c8dd8b1010000001976a91401ed63698fdb9948b96e96293dcc0c18341d419888ac0065cd1d000000001976a914e933f68e6380072adf4d42b2a4627099bfb510f788ac00000000"
    }
  ],
  "time": 1517381238,
  "mediantime": 1517379324,
  "nonce": 2815196843,
  "bits": "1a042eae",
  "difficulty": 4011378.762614286,
  "chainwork": "000000000000000000000000000000000000000000000034a8de4cc8cb998118",
  "previousblockhash": "dff5bbc3bea97b9ee187da0de78ef072d4be8f5874b1bef2bbadb820c6c4b3a9",
  "nextblockhash": "047cdd5afdf7e9e4644a4db7d7932bb21f9aa2895f443abf7fc3549a9858bc5d"
}
