{
  "hash": "6544b9ae2d8d062333d064652e8aaa3192164a14e495ed354acd3e2bddecfcbd",
  "confirmations": 2607,
  "strippedsize": 1214,
  "size": 1250,
  "weight": 4892,
  "height": 1358388,
  "version": 536870912,
  "versionHex": "20000000",
  "merkleroot": "f3e981b0314ddfec5c7145a4ccc52a804663da9d5267cd232a62f4d5c5bb28d0",
  "tx": [
    {
      "txid": "9232c82704739e1567a4fbd1498fcce899f92d129c03827ae03cd0d013600b45",
      "hash": "32b079b9f78b56e886d678fb23c8c7c34273e4e1c5bb9fe95df3623ca64939c7",
      "version": 1,
      "size": 268,
      "vsize": 241,
      "locktime": 0,
      "vin": [
        {
          "coinbase": "0334ba14bee53d9209220f7e34edcaa81a40e9c163565e6df9086111d2600a1586a23e040828bad3a001000000000000000007000000c9118000c002f3132f425443432f2000000000000000000000000000000000000000000000000000000000000000",
          "sequence": 0
        }
      ],
      "vout": [
        {
          "value": 25.00392050,
          "n": 0,
          "scriptPubKey": {
            "asm": "OP_DUP OP_HASH160 088b3b2a325c12f47e60b87f7bdd7f280e144e03 OP_EQUALVERIFY OP_CHECKSIG",
            "hex": "76a914088b3b2a325c12f47e60b87f7bdd7f280e144e0388ac",
            "reqSigs": 1,
            "type": "pubkeyhash",
            "addresses": [
              "LL18ThG68KnAnBk6yaoJWgEU7UqLg7eMw3"
            ]
          }
        }, 
        {
          "value": 0.00000000,
          "n": 1,
          "scriptPubKey": {
            "asm": "OP_RETURN aa21a9edab5f8078486d0d056fafa2bd30009b031a0b6482f1fbdbe2c681e209dc803dd4",
            "hex": "6a24aa21a9edab5f8078486d0d056fafa2bd30009b031a0b6482f1fbdbe2c681e209dc803dd4",
            "type": "nulldata"
          }
        }
      ],
      "hex": "010000000001010000000000000000000000000000000000000000000000000000000000000000ffffffff640334ba14bee53d9209220f7e34edcaa81a40e9c163565e6df9086111d2600a1586a23e040828bad3a001000000000000000007000000c9118000c002f3132f425443432f2000000000000000000000000000000000000000000000000000000000000000000000000272f40895000000001976a914088b3b2a325c12f47e60b87f7bdd7f280e144e0388ac0000000000000000266a24aa21a9edab5f8078486d0d056fafa2bd30009b031a0b6482f1fbdbe2c681e209dc803dd40120000000000000000000000000000000000000000000000000000000000000000000000000"
    }, 
    {
      "txid": "d193eacb53626f9f35b0b7e146ef93675f6f5f591821e776cbb5265d6ff37314",
      "hash": "d193eacb53626f9f35b0b7e146ef93675f6f5f591821e776cbb5265d6ff37314",
      "version": 1,
      "size": 225,
      "vsize": 225,
      "locktime": 0,
      "vin": [
        {
          "txid": "cd83707beaba29134e205b426b29738a8247efbfdaa7ab44819ee7b7153001fa",
          "vout": 1,
          "scriptSig": {
            "asm": "3044022064e38c8b299f2afa4079616170f083c588a1f438338275405ce6a76b4af8ea3102201dc399af6105e46945feaa942570150014f7db51082d59cef50e76f4bdff8988[ALL] 03548b4aca136fb33bd0e1680f4110d9a0b1985228732c184a94c8c831403cd31c",
            "hex": "473044022064e38c8b299f2afa4079616170f083c588a1f438338275405ce6a76b4af8ea3102201dc399af6105e46945feaa942570150014f7db51082d59cef50e76f4bdff8988012103548b4aca136fb33bd0e1680f4110d9a0b1985228732c184a94c8c831403cd31c"
          },
          "sequence": 4294967295
        }
      ],
      "vout": [
        {
          "value": 0.13463299,
          "n": 0,
          "scriptPubKey": {
            "asm": "OP_DUP OP_HASH160 1ed48dc91c8060f13a0ffa3a39c379a7f9cbba01 OP_EQUALVERIFY OP_CHECKSIG",
            "hex": "76a9141ed48dc91c8060f13a0ffa3a39c379a7f9cbba0188ac",
            "reqSigs": 1,
            "type": "pubkeyhash",
            "addresses": [
              "LN2yAU7iZtZopMiqFVYBhTwq5igPJERRTJ"
            ]
          }
        }, 
        {
          "value": 0.73257969,
          "n": 1,
          "scriptPubKey": {
            "asm": "OP_DUP OP_HASH160 b6848662004fe657a00fe2023d479806a6aeb06a OP_EQUALVERIFY OP_CHECKSIG",
            "hex": "76a914b6848662004fe657a00fe2023d479806a6aeb06a88ac",
            "reqSigs": 1,
            "type": "pubkeyhash",
            "addresses": [
              "Lbs217ue88qzbsDbc4KVL5nZ4vWTRXz8TC"
            ]
          }
        }
      ],
      "hex": "0100000001fa013015b7e79e8144aba7dabfef47828a73296b425b204e1329baea7b7083cd010000006a473044022064e38c8b299f2afa4079616170f083c588a1f438338275405ce6a76b4af8ea3102201dc399af6105e46945feaa942570150014f7db51082d59cef50e76f4bdff8988012103548b4aca136fb33bd0e1680f4110d9a0b1985228732c184a94c8c831403cd31cffffffff02036fcd00000000001976a9141ed48dc91c8060f13a0ffa3a39c379a7f9cbba0188acf1d35d04000000001976a914b6848662004fe657a00fe2023d479806a6aeb06a88ac00000000"
    }, 
    {
      "txid": "7f4ca03284b27a55faa765c15350713f1fa0e8fbd8d63f8e0cf9834bb867cc82",
      "hash": "7f4ca03284b27a55faa765c15350713f1fa0e8fbd8d63f8e0cf9834bb867cc82",
      "version": 1,
      "size": 225,
      "vsize": 225,
      "locktime": 0,
      "vin": [
        {
          "txid": "c92471b477e4f4a8ce8f25d24135ddfc7d5cb3a103ec52f0d3154a928f314f4e",
          "vout": 1,
          "scriptSig": {
            "asm": "304402201d310f2e48703c653630cf066a4903f5b854546df00b38c3d37dbf96038a071402202c4164dec3b8d29e94fbf30425cfc3510e8b76dc7ee5b286ae58a7ef319867ca[ALL] 03c98153502642514597b7d61cb367080295257b6c939229d1de7b9c6208c4c958",
            "hex": "47304402201d310f2e48703c653630cf066a4903f5b854546df00b38c3d37dbf96038a071402202c4164dec3b8d29e94fbf30425cfc3510e8b76dc7ee5b286ae58a7ef319867ca012103c98153502642514597b7d61cb367080295257b6c939229d1de7b9c6208c4c958"
          },
          "sequence": 4294967295
        }
      ],
      "vout": [
        {
          "value": 0.27003307,
          "n": 0,
          "scriptPubKey": {
            "asm": "OP_DUP OP_HASH160 3bb01b438969f876a2d86d1422bfabe8a2725e7b OP_EQUALVERIFY OP_CHECKSIG",
            "hex": "76a9143bb01b438969f876a2d86d1422bfabe8a2725e7b88ac",
            "reqSigs": 1,
            "type": "pubkeyhash",
            "addresses": [
              "LQfZ6dD4QkxLhpk9UsSTRoQ56BUhMmwbrK"
            ]
          }
        }, 
        {
          "value": 0.11179281,
          "n": 1,
          "scriptPubKey": {
            "asm": "OP_DUP OP_HASH160 f9871c6dd621879729cd7d502a5af822501cf2aa OP_EQUALVERIFY OP_CHECKSIG",
            "hex": "76a914f9871c6dd621879729cd7d502a5af822501cf2aa88ac",
            "reqSigs": 1,
            "type": "pubkeyhash",
            "addresses": [
              "LhyLNfBkoKshT7R8Pce6vkB9T2cP2o84hx"
            ]
          }
        }
      ],
      "hex": "01000000014e4f318f924a15d3f052ec03a1b35c7dfcdd3541d2258fcea8f4e477b47124c9010000006a47304402201d310f2e48703c653630cf066a4903f5b854546df00b38c3d37dbf96038a071402202c4164dec3b8d29e94fbf30425cfc3510e8b76dc7ee5b286ae58a7ef319867ca012103c98153502642514597b7d61cb367080295257b6c939229d1de7b9c6208c4c958ffffffff02ab099c01000000001976a9143bb01b438969f876a2d86d1422bfabe8a2725e7b88ac1195aa00000000001976a914f9871c6dd621879729cd7d502a5af822501cf2aa88ac00000000"
    }, 
    {
      "txid": "7f6d9babba86dfa43a8612cc0a945a47f884714f403cddfd158160e3c6760b1b",
      "hash": "7f6d9babba86dfa43a8612cc0a945a47f884714f403cddfd158160e3c6760b1b",
      "version": 2,
      "size": 226,
      "vsize": 226,
      "locktime": 1358386,
      "vin": [
        {
          "txid": "037e7cf3679351971463cf34b8547eb9308668d8804ffcd51fca206b340e950a",
          "vout": 4,
          "scriptSig": {
            "asm": "3045022100bfb2a156868dd1078c67f494af9e41e16f50ec8d80f41e58bcd326eac386530a02206d6bad22eac2c0bcc866a46da7a2452c0855e759610e4ab2d2a01f0e0b9e24da[ALL] 02809a6be42c13a2febbbe11a4e63f667217236e15b9e045797e732d88b7ab47b6",
            "hex": "483045022100bfb2a156868dd1078c67f494af9e41e16f50ec8d80f41e58bcd326eac386530a02206d6bad22eac2c0bcc866a46da7a2452c0855e759610e4ab2d2a01f0e0b9e24da012102809a6be42c13a2febbbe11a4e63f667217236e15b9e045797e732d88b7ab47b6"
          },
          "sequence": 4294967294
        }
      ],
      "vout": [
        {
          "value": 0.10307003,
          "n": 0,
          "scriptPubKey": {
            "asm": "OP_DUP OP_HASH160 2203d0c8d3829e4707e36620f38d02745fcbda6e OP_EQUALVERIFY OP_CHECKSIG",
            "hex": "76a9142203d0c8d3829e4707e36620f38d02745fcbda6e88ac",
            "reqSigs": 1,
            "type": "pubkeyhash",
            "addresses": [
              "LNKooqysEURvCK3HeTao5i4LHEkmvTKTqr"
            ]
          }
        }, 
        {
          "value": 0.52295461,
          "n": 1,
          "scriptPubKey": {
            "asm": "OP_DUP OP_HASH160 b79b7361f572f3a8cbf0715f733edbf819be315a OP_EQUALVERIFY OP_CHECKSIG",
            "hex": "76a914b79b7361f572f3a8cbf0715f733edbf819be315a88ac",
            "reqSigs": 1,
            "type": "pubkeyhash",
            "addresses": [
              "Lbxn9Dt79ypJ9R6uuqxktDHFjTXPMJxcf5"
            ]
          }
        }
      ],
      "hex": "02000000010a950e346b20ca1fd5fc4f80d8688630b97e54b834cf631497519367f37c7e03040000006b483045022100bfb2a156868dd1078c67f494af9e41e16f50ec8d80f41e58bcd326eac386530a02206d6bad22eac2c0bcc866a46da7a2452c0855e759610e4ab2d2a01f0e0b9e24da012102809a6be42c13a2febbbe11a4e63f667217236e15b9e045797e732d88b7ab47b6feffffff02bb459d00000000001976a9142203d0c8d3829e4707e36620f38d02745fcbda6e88ac25f71d03000000001976a914b79b7361f572f3a8cbf0715f733edbf819be315a88ac32ba1400"
    }, 
    {
      "txid": "b80866b769ddef9409b41db73e50f14d29766e5bbf2d699ba462877e5c76c173",
      "hash": "b80866b769ddef9409b41db73e50f14d29766e5bbf2d699ba462877e5c76c173",
      "version": 1,
      "size": 225,
      "vsize": 225,
      "locktime": 0,
      "vin": [
        {
          "txid": "980e4c81a4fc29083535d45718397ac8ce349e32f1933c514dcc7d290aa5c383",
          "vout": 1,
          "scriptSig": {
            "asm": "3044022051bcd919b72655c76301b85d7780d8f6d9aa008fcfcfe587aff91537c59640ce022043a6ce64fab93143415a2f55e221053a8714acbda2df2c50f3bfa1bf243e08d1[ALL] 031f861145f23e82ddc05a3547be44399d05354b6c7df3405f63a11dad7e2b3ec4",
            "hex": "473044022051bcd919b72655c76301b85d7780d8f6d9aa008fcfcfe587aff91537c59640ce022043a6ce64fab93143415a2f55e221053a8714acbda2df2c50f3bfa1bf243e08d10121031f861145f23e82ddc05a3547be44399d05354b6c7df3405f63a11dad7e2b3ec4"
          },
          "sequence": 4294967295
        }
      ],
      "vout": [
        {
          "value": 1.06395381,
          "n": 0,
          "scriptPubKey": {
            "asm": "OP_DUP OP_HASH160 e1a6cd4187611fd71ea521249ef35042fbac436a OP_EQUALVERIFY OP_CHECKSIG",
            "hex": "76a914e1a6cd4187611fd71ea521249ef35042fbac436a88ac",
            "reqSigs": 1,
            "type": "pubkeyhash",
            "addresses": [
              "Lfo67xyAxH8Uu1uy6UdQ5taZ5pw9DUf1qa"
            ]
          }
        }, 
        {
          "value": 2.64691494,
          "n": 1,
          "scriptPubKey": {
            "asm": "OP_DUP OP_HASH160 ad04756f224850ebddeff3d4ffdddaf47c5654c1 OP_EQUALVERIFY OP_CHECKSIG",
            "hex": "76a914ad04756f224850ebddeff3d4ffdddaf47c5654c188ac",
            "reqSigs": 1,
            "type": "pubkeyhash",
            "addresses": [
              "LaznWCQWW9fZGWav68sM2WbimhvvQA8xBt"
            ]
          }
        }
      ],
      "hex": "010000000183c3a50a297dcc4d513c93f1329e34cec87a391857d435350829fca4814c0e98010000006a473044022051bcd919b72655c76301b85d7780d8f6d9aa008fcfcfe587aff91537c59640ce022043a6ce64fab93143415a2f55e221053a8714acbda2df2c50f3bfa1bf243e08d10121031f861145f23e82ddc05a3547be44399d05354b6c7df3405f63a11dad7e2b3ec4ffffffff02f5765706000000001976a914e1a6cd4187611fd71ea521249ef35042fbac436a88ac26dfc60f000000001976a914ad04756f224850ebddeff3d4ffdddaf47c5654c188ac00000000"
    }
  ],
  "time": 1517134473,
  "mediantime": 1517133905,
  "nonce": 397263568,
  "bits": "1a047f14",
  "difficulty": 3731199.183374282,
  "chainwork": "0000000000000000000000000000000000000000000000330cccd117c63a6862",
  "previousblockhash": "39ab58a68cbff0d284fc4057f4be878ca5ab45cc296bac273588e417549dfe48",
  "nextblockhash": "57f55cbfe3b3eb09ec58c56ae6c47a326fe7ecadec2986f8995c9da09a1b1ad7"
}
