{
  "hash": "65737e79b5eb2ada2a6737f20b9da638c0c8c5831ea14ad8a7e167e25c7e8feb",
  "confirmations": 1213,
  "strippedsize": 254,
  "size": 254,
  "weight": 1016,
  "height": 1359781,
  "version": 536870912,
  "versionHex": "20000000",
  "merkleroot": "9074e5f89e0830ba53afb06cab48159e2c4d108fcd604866aaae638fb510051d",
  "tx": [
    {
      "txid": "9074e5f89e0830ba53afb06cab48159e2c4d108fcd604866aaae638fb510051d",
      "hash": "9074e5f89e0830ba53afb06cab48159e2c4d108fcd604866aaae638fb510051d",
      "version": 1,
      "size": 173,
      "vsize": 173,
      "locktime": 0,
      "vin": [
        {
          "coinbase": "03a5bf141b4d696e656420627920416e74506f6f6c20626a302042205a70a41dfabe6d6dddb4a2f4b58137e2e12f5134ad39823a8c55ff945b76071dbaa5bc343ab387f70400000000000000932a0000000000001d000000",
          "sequence": 4294967295
        }
      ],
      "vout": [
        {
          "value": 25.00000000,
          "n": 0,
          "scriptPubKey": {
            "asm": "OP_DUP OP_HASH160 0ff3ccc5e8be88afe24b5d634e5852d474dbdff1 OP_EQUALVERIFY OP_CHECKSIG",
            "hex": "76a9140ff3ccc5e8be88afe24b5d634e5852d474dbdff188ac",
            "reqSigs": 1,
            "type": "pubkeyhash",
            "addresses": [
              "LLgJTbzZMsRTCUF1NtvvL9SR1a4pVieW89"
            ]
          }
        }
      ],
      "hex": "01000000010000000000000000000000000000000000000000000000000000000000000000ffffffff5803a5bf141b4d696e656420627920416e74506f6f6c20626a302042205a70a41dfabe6d6dddb4a2f4b58137e2e12f5134ad39823a8c55ff945b76071dbaa5bc343ab387f70400000000000000932a0000000000001d000000ffffffff0100f90295000000001976a9140ff3ccc5e8be88afe24b5d634e5852d474dbdff188ac00000000"
    }
  ],
  "time": 1517331485,
  "mediantime": 1517330302,
  "nonce": 715984060,
  "bits": "1a042eae",
  "difficulty": 4011378.762614286,
  "chainwork": "000000000000000000000000000000000000000000000034534538b2b370754c",
  "previousblockhash": "21c90962da85354dd7274be7aa95a2713b69ef08a3abd5c94b06128a62e3a5e7",
  "nextblockhash": "2d2f98493e79b99f5d545cd55fca0f5462ea33071652c2b287f1df835935a55b"
}
