{
  "hash": "659b1e53b249751af7836d2d8bf2799f9de72d7f13ae5f0c5790d878aa83597b",
  "confirmations": 3265,
  "strippedsize": 5236,
  "size": 5272,
  "weight": 20980,
  "height": 1357730,
  "version": 536870912,
  "versionHex": "20000000",
  "merkleroot": "f4b3dfd9eec144b92ee193a1ff9b71a6a7d5e1557ed5e16f083e440a85069fbc",
  "tx": [
    {
      "txid": "1c2426c9f00d316fe9ecef06d6008e26e24590af61fd27abbac690cff6ac946b",
      "hash": "8a05f0468881879803fdcc5dbfde9cf9247b7497c82f98de6f6c01dcaf2e1017",
      "version": 1,
      "size": 277,
      "vsize": 250,
      "locktime": 954531239,
      "vin": [
        {
          "coinbase": "03a2b7142cfabe6d6d5039dd94a55d0e86f7d9f830772ef20d51f92a07916e791e79e29e94e8f53fdb08000000f09f909f144d696e65642062792068616e6c616274656d7030000000000000000000000000000000000000000000000000000000000000",
          "sequence": 359
        }
      ],
      "vout": [
        {
          "value": 25.03599500,
          "n": 0,
          "scriptPubKey": {
            "asm": "OP_DUP OP_HASH160 aa3750aa18b8a0f3f0590731e1fab934856680cf OP_EQUALVERIFY OP_CHECKSIG",
            "hex": "76a914aa3750aa18b8a0f3f0590731e1fab934856680cf88ac",
            "reqSigs": 1,
            "type": "pubkeyhash",
            "addresses": [
              "LajyQBeZaBA1NkZDeY8YT5RYYVRkXMvb2T"
            ]
          }
        }, 
        {
          "value": 0.00000000,
          "n": 1,
          "scriptPubKey": {
            "asm": "OP_RETURN aa21a9ed9cd841e40260334ba74f23e93edcd348fc10ce671d19727369615b7e798dd832 0000000000000000",
            "hex": "6a24aa21a9ed9cd841e40260334ba74f23e93edcd348fc10ce671d19727369615b7e798dd832080000000000000000",
            "type": "nulldata"
          }
        }
      ],
      "hex": "010000000001010000000000000000000000000000000000000000000000000000000000000000ffffffff6403a2b7142cfabe6d6d5039dd94a55d0e86f7d9f830772ef20d51f92a07916e791e79e29e94e8f53fdb08000000f09f909f144d696e65642062792068616e6c616274656d703000000000000000000000000000000000000000000000000000000000000067010000028ce53995000000001976a914aa3750aa18b8a0f3f0590731e1fab934856680cf88ac00000000000000002f6a24aa21a9ed9cd841e40260334ba74f23e93edcd348fc10ce671d19727369615b7e798dd83208000000000000000001200000000000000000000000000000000000000000000000000000000000000000a7fde438"
    }, 
    {
      "txid": "29e385186940b56374ef2bad367ca383c486275943f57c9fb6398453cf3a0039",
      "hash": "29e385186940b56374ef2bad367ca383c486275943f57c9fb6398453cf3a0039",
      "version": 1,
      "size": 2446,
      "vsize": 2446,
      "locktime": 0,
      "vin": [
        {
          "txid": "7fa1f9a71acdd1c99addafdb25c86e19cb4f1cad59797d0b2c330671d953c1a1",
          "vout": 1,
          "scriptSig": {
            "asm": "0 3045022100f59fa366bdff134404ca1664778189e5d100703ba08429c4de7e646c0be685a402200dbfbe2fdae9f5988b8818303e96a23caf9608900da5ee57af13aa0dc0403950[ALL] 304402201addd69acf771e64f1fe53ea0650b21f1be54a89482f863059c4f7f220daf72b02200c7cd65b9e2edc948e6d0b4e2977421407669863b0c27ceb0174ad9fe66b4ec1[ALL] 522103b92f6183603394d33187764ece7604a3a933225d268d33a4e9ad6f23b6b511032103fd2ce26afbeb145214ce5d45908f323635b4056893cfcf1e1dedd1775703cda12103c39999b1262a21e3ec399b4fa7f4541647d013dfa9c45493713b8e4c64cd51e453ae",
            "hex": "00483045022100f59fa366bdff134404ca1664778189e5d100703ba08429c4de7e646c0be685a402200dbfbe2fdae9f5988b8818303e96a23caf9608900da5ee57af13aa0dc04039500147304402201addd69acf771e64f1fe53ea0650b21f1be54a89482f863059c4f7f220daf72b02200c7cd65b9e2edc948e6d0b4e2977421407669863b0c27ceb0174ad9fe66b4ec1014c69522103b92f6183603394d33187764ece7604a3a933225d268d33a4e9ad6f23b6b511032103fd2ce26afbeb145214ce5d45908f323635b4056893cfcf1e1dedd1775703cda12103c39999b1262a21e3ec399b4fa7f4541647d013dfa9c45493713b8e4c64cd51e453ae"
          },
          "sequence": 4294967295
        }, 
        {
          "txid": "e5f40b42505a17b7615da485a6840fb24a8307e7ae96896fb519e0f106186ae4",
          "vout": 2,
          "scriptSig": {
            "asm": "0 3045022100bb4b836f5cd9ba4efd994c1d39cee3ae770b34dc74abedd98d0b61713f6e921102202884896f6443c129960a8c570c90b155b45bd67bc7d52fdbcbe5d41e67774c70[ALL] 3044022062dcd2e4f2179ec4b0ab9b29b1dcdd747bbd73297b550a3413d9337069ee7a7e0220422c3b4e565c06ecf7d1510b1dc8503141069aef37f0a398c890b78fa608639e[ALL] 5221030efe1288e4667a15d13e7cdb69c6b6adc350b045be5f75af82d9dccf604a83d82102a96723ccba7fa2a2d9df0ecdb84b7bbda0e4ab4207bf299ddaddbdce4ceede99210245e23b13afb108eebbf51f5bbe701d0f9208f71144c56cdf18e5d369776fb70753ae",
            "hex": "00483045022100bb4b836f5cd9ba4efd994c1d39cee3ae770b34dc74abedd98d0b61713f6e921102202884896f6443c129960a8c570c90b155b45bd67bc7d52fdbcbe5d41e67774c7001473044022062dcd2e4f2179ec4b0ab9b29b1dcdd747bbd73297b550a3413d9337069ee7a7e0220422c3b4e565c06ecf7d1510b1dc8503141069aef37f0a398c890b78fa608639e014c695221030efe1288e4667a15d13e7cdb69c6b6adc350b045be5f75af82d9dccf604a83d82102a96723ccba7fa2a2d9df0ecdb84b7bbda0e4ab4207bf299ddaddbdce4ceede99210245e23b13afb108eebbf51f5bbe701d0f9208f71144c56cdf18e5d369776fb70753ae"
          },
          "sequence": 4294967295
        }, 
        {
          "txid": "d4e30316a145ee5cb8833419d44cb872cab577398b9584f08ebc74ea2d0cbe28",
          "vout": 0,
          "scriptSig": {
            "asm": "0 304502210088bd3691daf2e2643f0dd60b94ff064dafb423dbfc159d31fa1a3f254cd0c37902204f5fbd9d4a61a791cd16e9b3d9ebc277f1b037eb1c2f2c9eb63d7b48562f9a1e[ALL] 30440220533956b697d17c9e2c61562a54fb8963e96beba37dd1054d72753f46b64fa83502204d61aa75212e8948dd33b6189a40f526e063d6890cac8dfb76afe280c9409c19[ALL] 52210290db972bc926dccaff39fe5e92c64aec3babb1d7b9368e2cfa0877758b422d712102376157240a909bbe99a15506c476df0132ba25c7d44256ac2717f01f051478eb21020e5d564cde45a8aae8ce356c37d4a81b15061410b98bd3148677489f4743a1c353ae",
            "hex": "0048304502210088bd3691daf2e2643f0dd60b94ff064dafb423dbfc159d31fa1a3f254cd0c37902204f5fbd9d4a61a791cd16e9b3d9ebc277f1b037eb1c2f2c9eb63d7b48562f9a1e014730440220533956b697d17c9e2c61562a54fb8963e96beba37dd1054d72753f46b64fa83502204d61aa75212e8948dd33b6189a40f526e063d6890cac8dfb76afe280c9409c19014c6952210290db972bc926dccaff39fe5e92c64aec3babb1d7b9368e2cfa0877758b422d712102376157240a909bbe99a15506c476df0132ba25c7d44256ac2717f01f051478eb21020e5d564cde45a8aae8ce356c37d4a81b15061410b98bd3148677489f4743a1c353ae"
          },
          "sequence": 4294967295
        }, 
        {
          "txid": "ff95c114b8c6104cc55bf6a45b6d7f8cbcbdc9d19c2622b931a9f80ffe8d0d2d",
          "vout": 0,
          "scriptSig": {
            "asm": "0 304402202ebd30f6b95ec56b85fd59de69f05be97ef2feaddd78495ec64b2986569a9389022001560a49859a3e2bae6f9758bb0f48699858b7919bb131a531f93940389eba61[ALL] 30450221008c46d54f8a04e9349ffc6b5748edf2bf299d0da9c624d70e17aaf8803b7560520220600f079fb02d35df3a8a5d96297404f3bdfb0382a322af41f728a48069f17313[ALL] 522102e8f56bc231be33b7943530799ea7c7ad291187726863cb74dba081967bb499a72102a10637a146d698257d34c3d3dbbb4de96fe359ccab41ac4e31b6009977ed42ba210331470aa16444973e09c75df0cfd7f0955e939eb73dab9a5a87aff16b4bf8ac8f53ae",
            "hex": "0047304402202ebd30f6b95ec56b85fd59de69f05be97ef2feaddd78495ec64b2986569a9389022001560a49859a3e2bae6f9758bb0f48699858b7919bb131a531f93940389eba61014830450221008c46d54f8a04e9349ffc6b5748edf2bf299d0da9c624d70e17aaf8803b7560520220600f079fb02d35df3a8a5d96297404f3bdfb0382a322af41f728a48069f17313014c69522102e8f56bc231be33b7943530799ea7c7ad291187726863cb74dba081967bb499a72102a10637a146d698257d34c3d3dbbb4de96fe359ccab41ac4e31b6009977ed42ba210331470aa16444973e09c75df0cfd7f0955e939eb73dab9a5a87aff16b4bf8ac8f53ae"
          },
          "sequence": 4294967295
        }, 
        {
          "txid": "4e3196d63d8bf974f322b3768a9a1eb390f2c0bfc91ef7d7f2d38a3e81b7bda9",
          "vout": 0,
          "scriptSig": {
            "asm": "0 3045022100f7b1e8b814b7b79b052cd9e664b70d1545ad6f6ff7211853fd47ece7cbae8d950220059bbed6e23aa0f23cc6f616bc18404423e61b2685261a0a7f668ba261a31195[ALL] 3045022100fdb3f4df11ec9af534a6649778c5a4f65c047928be27f4643767df62dbb3d3a8022071fd031abd414b25631393d30b05b85bce62f46c7f92be5da637170cdf8f7567[ALL] 52210233c452c22c061072be24b69435814eea74a67bfeba45eca6dee0d4a0595b8ca02102d868f753618bfe08a064d64114955fd72e1a057b3c228d9ae96cd3952e0a11a72102f6287a6dd274332b5eac3dbdd0f15327d9a7d0aedabb6ea0ffbbea84c27135f253ae",
            "hex": "00483045022100f7b1e8b814b7b79b052cd9e664b70d1545ad6f6ff7211853fd47ece7cbae8d950220059bbed6e23aa0f23cc6f616bc18404423e61b2685261a0a7f668ba261a3119501483045022100fdb3f4df11ec9af534a6649778c5a4f65c047928be27f4643767df62dbb3d3a8022071fd031abd414b25631393d30b05b85bce62f46c7f92be5da637170cdf8f7567014c6952210233c452c22c061072be24b69435814eea74a67bfeba45eca6dee0d4a0595b8ca02102d868f753618bfe08a064d64114955fd72e1a057b3c228d9ae96cd3952e0a11a72102f6287a6dd274332b5eac3dbdd0f15327d9a7d0aedabb6ea0ffbbea84c27135f253ae"
          },
          "sequence": 4294967295
        }, 
        {
          "txid": "0b29b102087b4bc85bb51738c0d2be6622895460c7a58eeb527d85206d090a3c",
          "vout": 1,
          "scriptSig": {
            "asm": "0 3045022100f88d15f159e15cce7ba33b4bd0ed99683c765fb02fd51f00d3044c23607758d002205ce42b1ce371ec9162d992abaf509b2fdaf013384cdd870a95d808db2f43823c[ALL] 304402200e26aa8e0c1d23d42350d1668744711a19718a9a6d2d07c3e1c392acf459055202204d123124ca3952c29694509ebe68df0900b412d706f90f6d7333ba750b9efecf[ALL] 5221039c0e6524e5e4236e96c37ff7cee47ffc45b1233fba8b2ef3f92d587e9c19a8092103f6507a70d7268ebb26534a377e1ab904df072bd57797fd218bd52fd5460c3eb42103549ac851b59a4f0b0eb6d3ab823e79f90dcf84bf2ffce8dbea0dde17b6194ad453ae",
            "hex": "00483045022100f88d15f159e15cce7ba33b4bd0ed99683c765fb02fd51f00d3044c23607758d002205ce42b1ce371ec9162d992abaf509b2fdaf013384cdd870a95d808db2f43823c0147304402200e26aa8e0c1d23d42350d1668744711a19718a9a6d2d07c3e1c392acf459055202204d123124ca3952c29694509ebe68df0900b412d706f90f6d7333ba750b9efecf014c695221039c0e6524e5e4236e96c37ff7cee47ffc45b1233fba8b2ef3f92d587e9c19a8092103f6507a70d7268ebb26534a377e1ab904df072bd57797fd218bd52fd5460c3eb42103549ac851b59a4f0b0eb6d3ab823e79f90dcf84bf2ffce8dbea0dde17b6194ad453ae"
          },
          "sequence": 4294967295
        }, 
        {
          "txid": "3eca4d595e1deca90805c1eea3386d917bd010b9bf032095ea1e31d62e25fdec",
          "vout": 0,
          "scriptSig": {
            "asm": "0 3045022100a8203f7abd4b51ac60499eff9d6328b88df71c28de3d5d67d8bc168217f4981102203852358bc246e824a29673264f1d268a04acdc709b3e32972b28d0aa931399dc[ALL] 304502210098de7aa2ebb78d84aac4a1bd4610ddebaddd1874aba00df6086a759f0716648d02202fc50c8892fb9a78bd87b29cd098c61826feb7df273ff3845f4aa0b8e15f63fa[ALL] 5221037ab8e123345beb00ae08851fb443567cd4eca6df1bbca744eec85c149ca8428c21026c385b9de0c63d1ae9a7aa76656102adbb26eed03245dceb368e091a84381c0f21038fefd29d685131f42b38eeca70517b25a7f86c43dab9060af7a954e5f888d03753ae",
            "hex": "00483045022100a8203f7abd4b51ac60499eff9d6328b88df71c28de3d5d67d8bc168217f4981102203852358bc246e824a29673264f1d268a04acdc709b3e32972b28d0aa931399dc0148304502210098de7aa2ebb78d84aac4a1bd4610ddebaddd1874aba00df6086a759f0716648d02202fc50c8892fb9a78bd87b29cd098c61826feb7df273ff3845f4aa0b8e15f63fa014c695221037ab8e123345beb00ae08851fb443567cd4eca6df1bbca744eec85c149ca8428c21026c385b9de0c63d1ae9a7aa76656102adbb26eed03245dceb368e091a84381c0f21038fefd29d685131f42b38eeca70517b25a7f86c43dab9060af7a954e5f888d03753ae"
          },
          "sequence": 4294967295
        }, 
        {
          "txid": "f53abbfa461c0a0dcf1fa4ab6f543f01b3e7ff7c4f0828e2023da6fe838bde3f",
          "vout": 0,
          "scriptSig": {
            "asm": "0 30440220389109dc350cebd0c15ce3a5ce9dd56dd0df45c7350b48d7a65fcb07ecb6b8f902205f2af874d5cb59fb58acef868a6832647a73f940a565541a24dbd5dbec44209f[ALL] 3045022100c9faa8c1832a0b3ca729594c114a70c7b214b8548704d1861018e6b5a96c58fd022049efd43edcd8afb1283e40bdbe46089e4750d8cdbb7626c251e91624f28022a1[ALL] 5221032eef69490bb4467fdc9b0b14784d56ee3a2e1ba506130372735e6077f242d628210332d989ff978d6a0e065186cb086d1fc4c09a04f1413f26d3bfb0a6fbbb1d3cf52103cc82a6e041df5cbcf5626521ffc0c71c4d34458f9207aa22c1f1e3a6a301a7ac53ae",
            "hex": "004730440220389109dc350cebd0c15ce3a5ce9dd56dd0df45c7350b48d7a65fcb07ecb6b8f902205f2af874d5cb59fb58acef868a6832647a73f940a565541a24dbd5dbec44209f01483045022100c9faa8c1832a0b3ca729594c114a70c7b214b8548704d1861018e6b5a96c58fd022049efd43edcd8afb1283e40bdbe46089e4750d8cdbb7626c251e91624f28022a1014c695221032eef69490bb4467fdc9b0b14784d56ee3a2e1ba506130372735e6077f242d628210332d989ff978d6a0e065186cb086d1fc4c09a04f1413f26d3bfb0a6fbbb1d3cf52103cc82a6e041df5cbcf5626521ffc0c71c4d34458f9207aa22c1f1e3a6a301a7ac53ae"
          },
          "sequence": 4294967295
        }
      ],
      "vout": [
        {
          "value": 0.33951210,
          "n": 0,
          "scriptPubKey": {
            "asm": "OP_HASH160 92487043f42ebabee0226432a6d08d67959dbc86 OP_EQUAL",
            "hex": "a91492487043f42ebabee0226432a6d08d67959dbc8687",
            "reqSigs": 1,
            "type": "scripthash",
            "addresses": [
              "MMEdfZ9ycjEhEKwpkzrrbkyi8c5sSdSJkE"
            ]
          }
        }, 
        {
          "value": 35.28971796,
          "n": 1,
          "scriptPubKey": {
            "asm": "OP_DUP OP_HASH160 0c8ba35d9f3766ba9fcf6775b17933269e04c6ab OP_EQUALVERIFY OP_CHECKSIG",
            "hex": "76a9140c8ba35d9f3766ba9fcf6775b17933269e04c6ab88ac",
            "reqSigs": 1,
            "type": "pubkeyhash",
            "addresses": [
              "LLNHek5Y8fZLfRSTsVDw7NCkfCKv1w4fh9"
            ]
          }
        }
      ],
      "hex": "0100000008a1c153d97106332c0b7d7959ad1c4fcb196ec825dbafdd9ac9d1cd1aa7f9a17f01000000fdfd0000483045022100f59fa366bdff134404ca1664778189e5d100703ba08429c4de7e646c0be685a402200dbfbe2fdae9f5988b8818303e96a23caf9608900da5ee57af13aa0dc04039500147304402201addd69acf771e64f1fe53ea0650b21f1be54a89482f863059c4f7f220daf72b02200c7cd65b9e2edc948e6d0b4e2977421407669863b0c27ceb0174ad9fe66b4ec1014c69522103b92f6183603394d33187764ece7604a3a933225d268d33a4e9ad6f23b6b511032103fd2ce26afbeb145214ce5d45908f323635b4056893cfcf1e1dedd1775703cda12103c39999b1262a21e3ec399b4fa7f4541647d013dfa9c45493713b8e4c64cd51e453aeffffffffe46a1806f1e019b56f8996aee707834ab20f84a685a45d61b7175a50420bf4e502000000fdfd0000483045022100bb4b836f5cd9ba4efd994c1d39cee3ae770b34dc74abedd98d0b61713f6e921102202884896f6443c129960a8c570c90b155b45bd67bc7d52fdbcbe5d41e67774c7001473044022062dcd2e4f2179ec4b0ab9b29b1dcdd747bbd73297b550a3413d9337069ee7a7e0220422c3b4e565c06ecf7d1510b1dc8503141069aef37f0a398c890b78fa608639e014c695221030efe1288e4667a15d13e7cdb69c6b6adc350b045be5f75af82d9dccf604a83d82102a96723ccba7fa2a2d9df0ecdb84b7bbda0e4ab4207bf299ddaddbdce4ceede99210245e23b13afb108eebbf51f5bbe701d0f9208f71144c56cdf18e5d369776fb70753aeffffffff28be0c2dea74bc8ef084958b3977b5ca72b84cd4193483b85cee45a11603e3d400000000fdfd000048304502210088bd3691daf2e2643f0dd60b94ff064dafb423dbfc159d31fa1a3f254cd0c37902204f5fbd9d4a61a791cd16e9b3d9ebc277f1b037eb1c2f2c9eb63d7b48562f9a1e014730440220533956b697d17c9e2c61562a54fb8963e96beba37dd1054d72753f46b64fa83502204d61aa75212e8948dd33b6189a40f526e063d6890cac8dfb76afe280c9409c19014c6952210290db972bc926dccaff39fe5e92c64aec3babb1d7b9368e2cfa0877758b422d712102376157240a909bbe99a15506c476df0132ba25c7d44256ac2717f01f051478eb21020e5d564cde45a8aae8ce356c37d4a81b15061410b98bd3148677489f4743a1c353aeffffffff2d0d8dfe0ff8a931b922269cd1c9bdbc8c7f6d5ba4f65bc54c10c6b814c195ff00000000fdfd000047304402202ebd30f6b95ec56b85fd59de69f05be97ef2feaddd78495ec64b2986569a9389022001560a49859a3e2bae6f9758bb0f48699858b7919bb131a531f93940389eba61014830450221008c46d54f8a04e9349ffc6b5748edf2bf299d0da9c624d70e17aaf8803b7560520220600f079fb02d35df3a8a5d96297404f3bdfb0382a322af41f728a48069f17313014c69522102e8f56bc231be33b7943530799ea7c7ad291187726863cb74dba081967bb499a72102a10637a146d698257d34c3d3dbbb4de96fe359ccab41ac4e31b6009977ed42ba210331470aa16444973e09c75df0cfd7f0955e939eb73dab9a5a87aff16b4bf8ac8f53aeffffffffa9bdb7813e8ad3f2d7f71ec9bfc0f290b31e9a8a76b322f374f98b3dd696314e00000000fdfe0000483045022100f7b1e8b814b7b79b052cd9e664b70d1545ad6f6ff7211853fd47ece7cbae8d950220059bbed6e23aa0f23cc6f616bc18404423e61b2685261a0a7f668ba261a3119501483045022100fdb3f4df11ec9af534a6649778c5a4f65c047928be27f4643767df62dbb3d3a8022071fd031abd414b25631393d30b05b85bce62f46c7f92be5da637170cdf8f7567014c6952210233c452c22c061072be24b69435814eea74a67bfeba45eca6dee0d4a0595b8ca02102d868f753618bfe08a064d64114955fd72e1a057b3c228d9ae96cd3952e0a11a72102f6287a6dd274332b5eac3dbdd0f15327d9a7d0aedabb6ea0ffbbea84c27135f253aeffffffff3c0a096d20857d52eb8ea5c76054892266bed2c03817b55bc84b7b0802b1290b01000000fdfd0000483045022100f88d15f159e15cce7ba33b4bd0ed99683c765fb02fd51f00d3044c23607758d002205ce42b1ce371ec9162d992abaf509b2fdaf013384cdd870a95d808db2f43823c0147304402200e26aa8e0c1d23d42350d1668744711a19718a9a6d2d07c3e1c392acf459055202204d123124ca3952c29694509ebe68df0900b412d706f90f6d7333ba750b9efecf014c695221039c0e6524e5e4236e96c37ff7cee47ffc45b1233fba8b2ef3f92d587e9c19a8092103f6507a70d7268ebb26534a377e1ab904df072bd57797fd218bd52fd5460c3eb42103549ac851b59a4f0b0eb6d3ab823e79f90dcf84bf2ffce8dbea0dde17b6194ad453aeffffffffecfd252ed6311eea952003bfb910d07b916d38a3eec10508a9ec1d5e594dca3e00000000fdfe0000483045022100a8203f7abd4b51ac60499eff9d6328b88df71c28de3d5d67d8bc168217f4981102203852358bc246e824a29673264f1d268a04acdc709b3e32972b28d0aa931399dc0148304502210098de7aa2ebb78d84aac4a1bd4610ddebaddd1874aba00df6086a759f0716648d02202fc50c8892fb9a78bd87b29cd098c61826feb7df273ff3845f4aa0b8e15f63fa014c695221037ab8e123345beb00ae08851fb443567cd4eca6df1bbca744eec85c149ca8428c21026c385b9de0c63d1ae9a7aa76656102adbb26eed03245dceb368e091a84381c0f21038fefd29d685131f42b38eeca70517b25a7f86c43dab9060af7a954e5f888d03753aeffffffff3fde8b83fea63d02e228084f7cffe7b3013f546faba41fcf0d0a1c46fabb3af500000000fdfd00004730440220389109dc350cebd0c15ce3a5ce9dd56dd0df45c7350b48d7a65fcb07ecb6b8f902205f2af874d5cb59fb58acef868a6832647a73f940a565541a24dbd5dbec44209f01483045022100c9faa8c1832a0b3ca729594c114a70c7b214b8548704d1861018e6b5a96c58fd022049efd43edcd8afb1283e40bdbe46089e4750d8cdbb7626c251e91624f28022a1014c695221032eef69490bb4467fdc9b0b14784d56ee3a2e1ba506130372735e6077f242d628210332d989ff978d6a0e065186cb086d1fc4c09a04f1413f26d3bfb0a6fbbb1d3cf52103cc82a6e041df5cbcf5626521ffc0c71c4d34458f9207aa22c1f1e3a6a301a7ac53aeffffffff02ea0d06020000000017a91492487043f42ebabee0226432a6d08d67959dbc868714d657d2000000001976a9140c8ba35d9f3766ba9fcf6775b17933269e04c6ab88ac00000000"
    }, 
    {
      "txid": "9fa61ef2f5057974eb6474f43f79485a415d9d1d0a0d62ff55b75148644fc4d1",
      "hash": "9fa61ef2f5057974eb6474f43f79485a415d9d1d0a0d62ff55b75148644fc4d1",
      "version": 1,
      "size": 372,
      "vsize": 372,
      "locktime": 0,
      "vin": [
        {
          "txid": "cbf0921643fbe09ae4f3cad380e9f39ebac8ee614c1a7463a363d5ccea61e06c",
          "vout": 0,
          "scriptSig": {
            "asm": "304402202433b2508c17ed67d1b394ead758cd40cb2655c443272f8571df73bd3c65e9de022079a1d4128b2b6cbcdcfa31f8a108dbe20321c0b17e97d770571c869f10fbe472[ALL] 0372dc13c12134da03c84058adf9e49faeba4d5137b0218bce19621a99a1e825da",
            "hex": "47304402202433b2508c17ed67d1b394ead758cd40cb2655c443272f8571df73bd3c65e9de022079a1d4128b2b6cbcdcfa31f8a108dbe20321c0b17e97d770571c869f10fbe47201210372dc13c12134da03c84058adf9e49faeba4d5137b0218bce19621a99a1e825da"
          },
          "sequence": 4294967295
        }, 
        {
          "txid": "b444eca57767cc7c3b6af7f9d85254b8064ed013ff1767cf262a7ffcf23ef11a",
          "vout": 1,
          "scriptSig": {
            "asm": "304402200d9f507239c0513ed5172aca0d0896852ce48eeb0426bffc1745f73f886117c70220347829b71c275ff18fe39f585186a10b0e5c59adbfc4fdfa6fc52650a6cc5af0[ALL] 0372dc13c12134da03c84058adf9e49faeba4d5137b0218bce19621a99a1e825da",
            "hex": "47304402200d9f507239c0513ed5172aca0d0896852ce48eeb0426bffc1745f73f886117c70220347829b71c275ff18fe39f585186a10b0e5c59adbfc4fdfa6fc52650a6cc5af001210372dc13c12134da03c84058adf9e49faeba4d5137b0218bce19621a99a1e825da"
          },
          "sequence": 4294967295
        }
      ],
      "vout": [
        {
          "value": 0.27821055,
          "n": 0,
          "scriptPubKey": {
            "asm": "OP_DUP OP_HASH160 61c427802ffeca91b21085a73e05b8c751f73a12 OP_EQUALVERIFY OP_CHECKSIG",
            "hex": "76a91461c427802ffeca91b21085a73e05b8c751f73a1288ac",
            "reqSigs": 1,
            "type": "pubkeyhash",
            "addresses": [
              "LU8tnrr7KFWPwTsNxM4AdmsSyhyHTrs21b"
            ]
          }
        }, 
        {
          "value": 0.18299629,
          "n": 1,
          "scriptPubKey": {
            "asm": "OP_DUP OP_HASH160 724a13cf4768dcd6b7365fc0babed46c170cb4c5 OP_EQUALVERIFY OP_CHECKSIG",
            "hex": "76a914724a13cf4768dcd6b7365fc0babed46c170cb4c588ac",
            "reqSigs": 1,
            "type": "pubkeyhash",
            "addresses": [
              "LVeG34vJWdEwLMGriR1pKLHqfZHVSAdGE9"
            ]
          }
        }
      ],
      "hex": "01000000026ce061eaccd563a363741a4c61eec8ba9ef3e980d3caf3e49ae0fb431692f0cb000000006a47304402202433b2508c17ed67d1b394ead758cd40cb2655c443272f8571df73bd3c65e9de022079a1d4128b2b6cbcdcfa31f8a108dbe20321c0b17e97d770571c869f10fbe47201210372dc13c12134da03c84058adf9e49faeba4d5137b0218bce19621a99a1e825daffffffff1af13ef2fc7f2a26cf6717ff13d04e06b85452d8f9f76a3b7ccc6777a5ec44b4010000006a47304402200d9f507239c0513ed5172aca0d0896852ce48eeb0426bffc1745f73f886117c70220347829b71c275ff18fe39f585186a10b0e5c59adbfc4fdfa6fc52650a6cc5af001210372dc13c12134da03c84058adf9e49faeba4d5137b0218bce19621a99a1e825daffffffff02ff83a801000000001976a91461c427802ffeca91b21085a73e05b8c751f73a1288aced3a1701000000001976a914724a13cf4768dcd6b7365fc0babed46c170cb4c588ac00000000"
    }, 
    {
      "txid": "0248a3b28e37443c9c35572689c8fb9be68d1e09bedbd5622c27c8d903d9483b",
      "hash": "0248a3b28e37443c9c35572689c8fb9be68d1e09bedbd5622c27c8d903d9483b",
      "version": 2,
      "size": 223,
      "vsize": 223,
      "locktime": 1357728,
      "vin": [
        {
          "txid": "85896f2bb70ff6b14732496f2365de2771cb97df72ce915575b52b76681281fb",
          "vout": 1,
          "scriptSig": {
            "asm": "304402206f43e1fcf15784fd6bc6788068b623e9b0c245b49b201f12ad3db992ac7b18430220365df5ad48e9dd035c1be010738adff2314ff8c4903750c8b551d0fd3528b3cc[ALL] 035749176b8a59b62e236dcfb125486978583508ac75da8ca2c6e227bb4deccfb0",
            "hex": "47304402206f43e1fcf15784fd6bc6788068b623e9b0c245b49b201f12ad3db992ac7b18430220365df5ad48e9dd035c1be010738adff2314ff8c4903750c8b551d0fd3528b3cc0121035749176b8a59b62e236dcfb125486978583508ac75da8ca2c6e227bb4deccfb0"
          },
          "sequence": 4294967294
        }
      ],
      "vout": [
        {
          "value": 7.38000000,
          "n": 0,
          "scriptPubKey": {
            "asm": "OP_HASH160 1e4b0b7278b37acd1abff1daea8a05937b250583 OP_EQUAL",
            "hex": "a9141e4b0b7278b37acd1abff1daea8a05937b25058387",
            "reqSigs": 1,
            "type": "scripthash",
            "addresses": [
              "MAfLQPBp4FNjsjg5oHuX6amo1CRPEo6wpR"
            ]
          }
        }, 
        {
          "value": 12.64829655,
          "n": 1,
          "scriptPubKey": {
            "asm": "OP_DUP OP_HASH160 d21cd638719f4134c4e826c8de6bea5ae15dfdba OP_EQUALVERIFY OP_CHECKSIG",
            "hex": "76a914d21cd638719f4134c4e826c8de6bea5ae15dfdba88ac",
            "reqSigs": 1,
            "type": "pubkeyhash",
            "addresses": [
              "LeNvi7XQrriMQVJmGfszTgH1mggGyoMuAK"
            ]
          }
        }
      ],
      "hex": "0200000001fb811268762bb5755591ce72df97cb7127de65236f493247b1f60fb72b6f8985010000006a47304402206f43e1fcf15784fd6bc6788068b623e9b0c245b49b201f12ad3db992ac7b18430220365df5ad48e9dd035c1be010738adff2314ff8c4903750c8b551d0fd3528b3cc0121035749176b8a59b62e236dcfb125486978583508ac75da8ca2c6e227bb4deccfb0feffffff0280fcfc2b0000000017a9141e4b0b7278b37acd1abff1daea8a05937b25058387d7c4634b000000001976a914d21cd638719f4134c4e826c8de6bea5ae15dfdba88aca0b71400"
    }, 
    {
      "txid": "912e71cfef8f38cfab58cc57e91e3fa3db658a20e9c4fef4352c7b6cbb973c0b",
      "hash": "912e71cfef8f38cfab58cc57e91e3fa3db658a20e9c4fef4352c7b6cbb973c0b",
      "version": 1,
      "size": 225,
      "vsize": 225,
      "locktime": 0,
      "vin": [
        {
          "txid": "086b3d6126ad60eded16e0ee075049906c803a3cb724cef3bde9eb7fb229d0c3",
          "vout": 1,
          "scriptSig": {
            "asm": "3044022074dd3f8b07d7c1efc7c36c166e9e04fa2e8ae06f785bddd6c022515906ce8df702200881dd42892b4015cb6e851bd63c2a4e922fb8233b062e850a3ec6e208ad200e[ALL] 02339adf53febdd5428608dd09725ef6a4318500319a1c76a8a91978676793051b",
            "hex": "473044022074dd3f8b07d7c1efc7c36c166e9e04fa2e8ae06f785bddd6c022515906ce8df702200881dd42892b4015cb6e851bd63c2a4e922fb8233b062e850a3ec6e208ad200e012102339adf53febdd5428608dd09725ef6a4318500319a1c76a8a91978676793051b"
          },
          "sequence": 4294967295
        }
      ],
      "vout": [
        {
          "value": 1.03314865,
          "n": 0,
          "scriptPubKey": {
            "asm": "OP_DUP OP_HASH160 c6d2b3f771502a189151ae2b2f0f86c331effcaa OP_EQUALVERIFY OP_CHECKSIG",
            "hex": "76a914c6d2b3f771502a189151ae2b2f0f86c331effcaa88ac",
            "reqSigs": 1,
            "type": "pubkeyhash",
            "addresses": [
              "LdMEU6XgRdKzxyZ1nkhPS5TsJjonQ5pRFM"
            ]
          }
        }, 
        {
          "value": 0.28201154,
          "n": 1,
          "scriptPubKey": {
            "asm": "OP_DUP OP_HASH160 3ae3602b7f9f2522a9690e99b5912ed551d23ad2 OP_EQUALVERIFY OP_CHECKSIG",
            "hex": "76a9143ae3602b7f9f2522a9690e99b5912ed551d23ad288ac",
            "reqSigs": 1,
            "type": "pubkeyhash",
            "addresses": [
              "LQbKqgEYgBhtGAoeVn2so8NU5xgdNWbZrU"
            ]
          }
        }
      ],
      "hex": "0100000001c3d029b27febe9bdf3ce24b73c3a806c90495007eee016eded60ad26613d6b08010000006a473044022074dd3f8b07d7c1efc7c36c166e9e04fa2e8ae06f785bddd6c022515906ce8df702200881dd42892b4015cb6e851bd63c2a4e922fb8233b062e850a3ec6e208ad200e012102339adf53febdd5428608dd09725ef6a4318500319a1c76a8a91978676793051bffffffff02b1752806000000001976a914c6d2b3f771502a189151ae2b2f0f86c331effcaa88acc250ae01000000001976a9143ae3602b7f9f2522a9690e99b5912ed551d23ad288ac00000000"
    }, 
    {
      "txid": "887be848cf654482811239e026d78eafe934eb44dd7bdd3322b95fc8b1f3ef4f",
      "hash": "887be848cf654482811239e026d78eafe934eb44dd7bdd3322b95fc8b1f3ef4f",
      "version": 2,
      "size": 225,
      "vsize": 225,
      "locktime": 1357728,
      "vin": [
        {
          "txid": "754e40bd088fe5ef2ec81afe4c0a4dfed8db3f988dbc819f28a26d8d421e6e66",
          "vout": 0,
          "scriptSig": {
            "asm": "304402204fae34f0ea5917d65a0adaa472a52c713400686ae890c86f2ced8d43ba0ac44202207335f7835eaa0eaec6479415b25bf7dcf5e74b2275d27e3a069d604baf853e09[ALL] 028273b0391f4dc2f42569fd58c6e39a036b239a3755786aea5ed5add4f6c63699",
            "hex": "47304402204fae34f0ea5917d65a0adaa472a52c713400686ae890c86f2ced8d43ba0ac44202207335f7835eaa0eaec6479415b25bf7dcf5e74b2275d27e3a069d604baf853e090121028273b0391f4dc2f42569fd58c6e39a036b239a3755786aea5ed5add4f6c63699"
          },
          "sequence": 4294967294
        }
      ],
      "vout": [
        {
          "value": 0.50000000,
          "n": 0,
          "scriptPubKey": {
            "asm": "OP_DUP OP_HASH160 e0bbedffc610314dc5ec8a1491590a2689e65e2b OP_EQUALVERIFY OP_CHECKSIG",
            "hex": "76a914e0bbedffc610314dc5ec8a1491590a2689e65e2b88ac",
            "reqSigs": 1,
            "type": "pubkeyhash",
            "addresses": [
              "LfiEkmQPTDGvdUff3AdSr85i3dD46uAKjZ"
            ]
          }
        }, 
        {
          "value": 0.01070172,
          "n": 1,
          "scriptPubKey": {
            "asm": "OP_DUP OP_HASH160 47eecb5f01db6821980f087ff4950f83577b6c53 OP_EQUALVERIFY OP_CHECKSIG",
            "hex": "76a91447eecb5f01db6821980f087ff4950f83577b6c5388ac",
            "reqSigs": 1,
            "type": "pubkeyhash",
            "addresses": [
              "LRnJJZSE11XG2dLc7v7M3qfKoB8GgRGqkH"
            ]
          }
        }
      ],
      "hex": "0200000001666e1e428d6da2289f81bc8d983fdbd8fe4d0a4cfe1ac82eefe58f08bd404e75000000006a47304402204fae34f0ea5917d65a0adaa472a52c713400686ae890c86f2ced8d43ba0ac44202207335f7835eaa0eaec6479415b25bf7dcf5e74b2275d27e3a069d604baf853e090121028273b0391f4dc2f42569fd58c6e39a036b239a3755786aea5ed5add4f6c63699feffffff0280f0fa02000000001976a914e0bbedffc610314dc5ec8a1491590a2689e65e2b88ac5c541000000000001976a91447eecb5f01db6821980f087ff4950f83577b6c5388aca0b71400"
    }, 
    {
      "txid": "33c683995107c9d4a9bd916bec3bc2b7fdda5cd0a0cba78b87e2c9481e564a82",
      "hash": "33c683995107c9d4a9bd916bec3bc2b7fdda5cd0a0cba78b87e2c9481e564a82",
      "version": 1,
      "size": 225,
      "vsize": 225,
      "locktime": 0,
      "vin": [
        {
          "txid": "c0a412b445d25604fc5ec6468e501919d4b8df89a1ee3c36b525bdddf854daf2",
          "vout": 405,
          "scriptSig": {
            "asm": "30440220506b9e2952296a5a583513e25d973d3d3e935c929ed9aee3aae399bbee87638602206b5f4107693711000258a9ba53a2165e5647969fb35254762d864d33b2b0374a[ALL] 02ecc8bda57732b52c15166b24b285b7f60846075558b161a6a8b67eddbae164c9",
            "hex": "4730440220506b9e2952296a5a583513e25d973d3d3e935c929ed9aee3aae399bbee87638602206b5f4107693711000258a9ba53a2165e5647969fb35254762d864d33b2b0374a012102ecc8bda57732b52c15166b24b285b7f60846075558b161a6a8b67eddbae164c9"
          },
          "sequence": 4294967295
        }
      ],
      "vout": [
        {
          "value": 0.15969639,
          "n": 0,
          "scriptPubKey": {
            "asm": "OP_DUP OP_HASH160 2310ad63f447761f5f88eedbdd1d6509e4ea369d OP_EQUALVERIFY OP_CHECKSIG",
            "hex": "76a9142310ad63f447761f5f88eedbdd1d6509e4ea369d88ac",
            "reqSigs": 1,
            "type": "pubkeyhash",
            "addresses": [
              "LNRMtgn7xLofhSBmEWDeyrjVvm74c3v1so"
            ]
          }
        }, 
        {
          "value": 0.00130109,
          "n": 1,
          "scriptPubKey": {
            "asm": "OP_DUP OP_HASH160 645d2d9493d19f9c8b683fea8af407951aed688d OP_EQUALVERIFY OP_CHECKSIG",
            "hex": "76a914645d2d9493d19f9c8b683fea8af407951aed688d88ac",
            "reqSigs": 1,
            "type": "pubkeyhash",
            "addresses": [
              "LUNdTX8j2TgKZouecSJsSWeSQMcLJpgzJ4"
            ]
          }
        }
      ],
      "hex": "0100000001f2da54f8ddbd25b5363ceea189dfb8d41919508e46c65efc0456d245b412a4c0950100006a4730440220506b9e2952296a5a583513e25d973d3d3e935c929ed9aee3aae399bbee87638602206b5f4107693711000258a9ba53a2165e5647969fb35254762d864d33b2b0374a012102ecc8bda57732b52c15166b24b285b7f60846075558b161a6a8b67eddbae164c9ffffffff0267adf300000000001976a9142310ad63f447761f5f88eedbdd1d6509e4ea369d88ac3dfc0100000000001976a914645d2d9493d19f9c8b683fea8af407951aed688d88ac00000000"
    }, 
    {
      "txid": "df08d79cb89de3e8d2c37edf688f3b4a73bf65fb16bb07d3bf3a68e30bf4a8b9",
      "hash": "df08d79cb89de3e8d2c37edf688f3b4a73bf65fb16bb07d3bf3a68e30bf4a8b9",
      "version": 1,
      "size": 225,
      "vsize": 225,
      "locktime": 0,
      "vin": [
        {
          "txid": "8fc4683a2dbaa0b7f866ffda3f8a748d637bc1eb33e4e7debb40f0a58d733c4b",
          "vout": 0,
          "scriptSig": {
            "asm": "30440220035dcc9b77d0cba1bbdc08b01564b850e67ea3a84ea00c50298084405fb6a4e6022011234baa06b6d9e3663bd7797897db990168d69ad01808a19ba6b98bc3c53546[ALL] 02986c81079544855dd94b907874983cc69aca73432ed9287abaa345f744145423",
            "hex": "4730440220035dcc9b77d0cba1bbdc08b01564b850e67ea3a84ea00c50298084405fb6a4e6022011234baa06b6d9e3663bd7797897db990168d69ad01808a19ba6b98bc3c53546012102986c81079544855dd94b907874983cc69aca73432ed9287abaa345f744145423"
          },
          "sequence": 4294967295
        }
      ],
      "vout": [
        {
          "value": 10.73446262,
          "n": 0,
          "scriptPubKey": {
            "asm": "OP_DUP OP_HASH160 ac89a48d0affe4c00712675107079956ea119cd4 OP_EQUALVERIFY OP_CHECKSIG",
            "hex": "76a914ac89a48d0affe4c00712675107079956ea119cd488ac",
            "reqSigs": 1,
            "type": "pubkeyhash",
            "addresses": [
              "LaxFNo6rvZGt4FFZ9PQCqSgXDaitmrEkkv"
            ]
          }
        }, 
        {
          "value": 5.00000000,
          "n": 1,
          "scriptPubKey": {
            "asm": "OP_DUP OP_HASH160 7c5aaf9fb964a1ebabad8a8e74ec04e31efd4f3e OP_EQUALVERIFY OP_CHECKSIG",
            "hex": "76a9147c5aaf9fb964a1ebabad8a8e74ec04e31efd4f3e88ac",
            "reqSigs": 1,
            "type": "pubkeyhash",
            "addresses": [
              "LWZUgyZ7MaAcjoSEjm5Cr6oMTsYyWC7Hjj"
            ]
          }
        }
      ],
      "hex": "01000000014b3c738da5f040bbdee7e433ebc17b638d748a3fdaff66f8b7a0ba2d3a68c48f000000006a4730440220035dcc9b77d0cba1bbdc08b01564b850e67ea3a84ea00c50298084405fb6a4e6022011234baa06b6d9e3663bd7797897db990168d69ad01808a19ba6b98bc3c53546012102986c81079544855dd94b907874983cc69aca73432ed9287abaa345f744145423ffffffff02767dfb3f000000001976a914ac89a48d0affe4c00712675107079956ea119cd488ac0065cd1d000000001976a9147c5aaf9fb964a1ebabad8a8e74ec04e31efd4f3e88ac00000000"
    }, 
    {
      "txid": "c493f2eca33572288a33f196e45ba2711bd34e1fff2bd706972475ad081f6924",
      "hash": "c493f2eca33572288a33f196e45ba2711bd34e1fff2bd706972475ad081f6924",
      "version": 2,
      "size": 373,
      "vsize": 373,
      "locktime": 1357728,
      "vin": [
        {
          "txid": "a74a3e5c0033ab11624b59acf9b2f73cbed18c736930170b4b4de162193b22eb",
          "vout": 817,
          "scriptSig": {
            "asm": "30440220101d1877ed75fbda01df570e617cb29209daedf7a095a11ec6ad4ea44b8db667022078a52f012d6ec82e0a54849b415b90056658b34be1d596f67251e97752ac2ded[ALL] 0366fb33ac2cd59764802093cf027a0f68cb8cd3f03a902700906e0c6cfa30dcfa",
            "hex": "4730440220101d1877ed75fbda01df570e617cb29209daedf7a095a11ec6ad4ea44b8db667022078a52f012d6ec82e0a54849b415b90056658b34be1d596f67251e97752ac2ded01210366fb33ac2cd59764802093cf027a0f68cb8cd3f03a902700906e0c6cfa30dcfa"
          },
          "sequence": 4294967294
        }, 
        {
          "txid": "b9ad4e0c9350b0fba4da64b594dd348be02fd770b07737f0b936a7889bd87089",
          "vout": 50,
          "scriptSig": {
            "asm": "3045022100ff29504d25a8420fabb050e13e776070793d1b65643b5b5ce361d54d20fab4f802207eaf06dc9c68b70aa6469409eb6e77f11481a78f9e4689c7141a231b5d5774f8[ALL] 028423ba22f7bd79dfc4b57cb226c2326c8ff10602ea8648f9f1bd04471985c65e",
            "hex": "483045022100ff29504d25a8420fabb050e13e776070793d1b65643b5b5ce361d54d20fab4f802207eaf06dc9c68b70aa6469409eb6e77f11481a78f9e4689c7141a231b5d5774f80121028423ba22f7bd79dfc4b57cb226c2326c8ff10602ea8648f9f1bd04471985c65e"
          },
          "sequence": 4294967294
        }
      ],
      "vout": [
        {
          "value": 0.00981852,
          "n": 0,
          "scriptPubKey": {
            "asm": "OP_DUP OP_HASH160 c3d5fbf7ea321aa41ccd29f51d737f46e8676a39 OP_EQUALVERIFY OP_CHECKSIG",
            "hex": "76a914c3d5fbf7ea321aa41ccd29f51d737f46e8676a3988ac",
            "reqSigs": 1,
            "type": "pubkeyhash",
            "addresses": [
              "Ld5SNWKnLSJVMzfkHmzK7oiXsGuWNxJWqy"
            ]
          }
        }, 
        {
          "value": 1.75000000,
          "n": 1,
          "scriptPubKey": {
            "asm": "OP_DUP OP_HASH160 1c6a9db2942aee8255e2ca671dc4cd746c6a3894 OP_EQUALVERIFY OP_CHECKSIG",
            "hex": "76a9141c6a9db2942aee8255e2ca671dc4cd746c6a389488ac",
            "reqSigs": 1,
            "type": "pubkeyhash",
            "addresses": [
              "LMpCuPpUXWkWQ5Bm6vDbeHHMr7p3j3Jttq"
            ]
          }
        }
      ],
      "hex": "0200000002eb223b1962e14d4b0b173069738cd1be3cf7b2f9ac594b6211ab33005c3e4aa7310300006a4730440220101d1877ed75fbda01df570e617cb29209daedf7a095a11ec6ad4ea44b8db667022078a52f012d6ec82e0a54849b415b90056658b34be1d596f67251e97752ac2ded01210366fb33ac2cd59764802093cf027a0f68cb8cd3f03a902700906e0c6cfa30dcfafeffffff8970d89b88a736b9f03777b070d72fe08b34dd94b564daa4fbb050930c4eadb9320000006b483045022100ff29504d25a8420fabb050e13e776070793d1b65643b5b5ce361d54d20fab4f802207eaf06dc9c68b70aa6469409eb6e77f11481a78f9e4689c7141a231b5d5774f80121028423ba22f7bd79dfc4b57cb226c2326c8ff10602ea8648f9f1bd04471985c65efeffffff025cfb0e00000000001976a914c3d5fbf7ea321aa41ccd29f51d737f46e8676a3988acc0496e0a000000001976a9141c6a9db2942aee8255e2ca671dc4cd746c6a389488aca0b71400"
    }, 
    {
      "txid": "903901a4a38e30790f6db0dab72ea30a7091f6eba7272d78d8880d1bdb14f551",
      "hash": "903901a4a38e30790f6db0dab72ea30a7091f6eba7272d78d8880d1bdb14f551",
      "version": 1,
      "size": 226,
      "vsize": 226,
      "locktime": 0,
      "vin": [
        {
          "txid": "db50b549192ecec1aee430306e269e6ed6d2c21e3e913f2de1b4cdcc4dd80705",
          "vout": 50,
          "scriptSig": {
            "asm": "3045022100afdc02407a09f5c2fe93d428ad4d24f3cb8643f4cea5f2eda3750be0c035132d022046eb288797cb88e006d60d734747dc56fac42abf816cfaf5a5331de430115916[ALL] 03234a3cf04899b5c14d8dcef7e8ec5d6f906c7e3ca861ddf1b50d60ce9e7daeb7",
            "hex": "483045022100afdc02407a09f5c2fe93d428ad4d24f3cb8643f4cea5f2eda3750be0c035132d022046eb288797cb88e006d60d734747dc56fac42abf816cfaf5a5331de430115916012103234a3cf04899b5c14d8dcef7e8ec5d6f906c7e3ca861ddf1b50d60ce9e7daeb7"
          },
          "sequence": 4294967295
        }
      ],
      "vout": [
        {
          "value": 0.66180000,
          "n": 0,
          "scriptPubKey": {
            "asm": "OP_DUP OP_HASH160 6d5e31ebe5329b3641aa3ed24fabbfac0ec3edad OP_EQUALVERIFY OP_CHECKSIG",
            "hex": "76a9146d5e31ebe5329b3641aa3ed24fabbfac0ec3edad88ac",
            "reqSigs": 1,
            "type": "pubkeyhash",
            "addresses": [
              "LVCEkuWvkJwNTpvyTpms934Vh9DWzntWg9"
            ]
          }
        }, 
        {
          "value": 0.08797400,
          "n": 1,
          "scriptPubKey": {
            "asm": "OP_DUP OP_HASH160 d42f58a98fc28a3551fbcb41b7c2aafccc0af676 OP_EQUALVERIFY OP_CHECKSIG",
            "hex": "76a914d42f58a98fc28a3551fbcb41b7c2aafccc0af67688ac",
            "reqSigs": 1,
            "type": "pubkeyhash",
            "addresses": [
              "LeZtEZZfNwGcAmFhZfJVSxd9XJ419mge14"
            ]
          }
        }
      ],
      "hex": "01000000010507d84dcccdb4e12d3f913e1ec2d2d66e9e266e3030e4aec1ce2e1949b550db320000006b483045022100afdc02407a09f5c2fe93d428ad4d24f3cb8643f4cea5f2eda3750be0c035132d022046eb288797cb88e006d60d734747dc56fac42abf816cfaf5a5331de430115916012103234a3cf04899b5c14d8dcef7e8ec5d6f906c7e3ca861ddf1b50d60ce9e7daeb7ffffffff02a0d3f103000000001976a9146d5e31ebe5329b3641aa3ed24fabbfac0ec3edad88acd83c8600000000001976a914d42f58a98fc28a3551fbcb41b7c2aafccc0af67688ac00000000"
    }, 
    {
      "txid": "c196ec16bca7ce94b9f239c72a81548213923745e27b25d0388c4ce722782453",
      "hash": "c196ec16bca7ce94b9f239c72a81548213923745e27b25d0388c4ce722782453",
      "version": 2,
      "size": 374,
      "vsize": 374,
      "locktime": 1357728,
      "vin": [
        {
          "txid": "b1a2869b76509947e2bb76164c01dbef82623824f756d863846d3be64a83b40e",
          "vout": 1,
          "scriptSig": {
            "asm": "30450221009f1314e9a42ff1251e3cdd165db6e337ccdee4f22ab064e1c4bae2e5dd2f844902205c14a7da248a748760213d085b65cfd33210b58ed377646d0c4cad6407f2517f[ALL] 03a064f6380bcabba77acb25174c9bda7ada2e3ef72babcd547da171a51e27b354",
            "hex": "4830450221009f1314e9a42ff1251e3cdd165db6e337ccdee4f22ab064e1c4bae2e5dd2f844902205c14a7da248a748760213d085b65cfd33210b58ed377646d0c4cad6407f2517f012103a064f6380bcabba77acb25174c9bda7ada2e3ef72babcd547da171a51e27b354"
          },
          "sequence": 4294967294
        }, 
        {
          "txid": "6d8049d987ea04c7450960b6bf89bb02d705b7ee08e51a171c8dd4a595bcf73a",
          "vout": 0,
          "scriptSig": {
            "asm": "3045022100ab03961610e2cb684a21d658f5f3e274f49afcfa6c4d1ece65494ba4a58377e202200d3931a77e55d4eb84fbc4d757b40c0628c9c15ee05827683cf7934bbcf5045c[ALL] 038ba189913b42ac26de55ebefa5da329631634331b2d662d2d8e96fd1f2320511",
            "hex": "483045022100ab03961610e2cb684a21d658f5f3e274f49afcfa6c4d1ece65494ba4a58377e202200d3931a77e55d4eb84fbc4d757b40c0628c9c15ee05827683cf7934bbcf5045c0121038ba189913b42ac26de55ebefa5da329631634331b2d662d2d8e96fd1f2320511"
          },
          "sequence": 4294967294
        }
      ],
      "vout": [
        {
          "value": 0.08496582,
          "n": 0,
          "scriptPubKey": {
            "asm": "OP_DUP OP_HASH160 e8f37881dff4aabbe786bcda346827a9d011d6af OP_EQUALVERIFY OP_CHECKSIG",
            "hex": "76a914e8f37881dff4aabbe786bcda346827a9d011d6af88ac",
            "reqSigs": 1,
            "type": "pubkeyhash",
            "addresses": [
              "LgTghMsaeX5FzDQeakBzunfEBSt3A9w6pi"
            ]
          }
        }, 
        {
          "value": 0.33312955,
          "n": 1,
          "scriptPubKey": {
            "asm": "OP_DUP OP_HASH160 240b28509c6e645c7a54ef59512f4d64313dd079 OP_EQUALVERIFY OP_CHECKSIG",
            "hex": "76a914240b28509c6e645c7a54ef59512f4d64313dd07988ac",
            "reqSigs": 1,
            "type": "pubkeyhash",
            "addresses": [
              "LNWXxMVpYK88ZbVXiKFaf9cREBngYPZ76X"
            ]
          }
        }
      ],
      "hex": "02000000020eb4834ae63b6d8463d856f724386282efdb014c1676bbe2479950769b86a2b1010000006b4830450221009f1314e9a42ff1251e3cdd165db6e337ccdee4f22ab064e1c4bae2e5dd2f844902205c14a7da248a748760213d085b65cfd33210b58ed377646d0c4cad6407f2517f012103a064f6380bcabba77acb25174c9bda7ada2e3ef72babcd547da171a51e27b354feffffff3af7bc95a5d48d1c171ae508eeb705d702bb89bfb6600945c704ea87d949806d000000006b483045022100ab03961610e2cb684a21d658f5f3e274f49afcfa6c4d1ece65494ba4a58377e202200d3931a77e55d4eb84fbc4d757b40c0628c9c15ee05827683cf7934bbcf5045c0121038ba189913b42ac26de55ebefa5da329631634331b2d662d2d8e96fd1f2320511feffffff02c6a58100000000001976a914e8f37881dff4aabbe786bcda346827a9d011d6af88acbb50fc01000000001976a914240b28509c6e645c7a54ef59512f4d64313dd07988aca0b71400"
    }
  ],
  "time": 1517040751,
  "mediantime": 1517040576,
  "nonce": 85820491,
  "bits": "1a047f14",
  "difficulty": 3731199.183374282,
  "chainwork": "0000000000000000000000000000000000000000000000327a75f2da3ef4ed8e",
  "previousblockhash": "ec1068db109c7f437e6a714f9a4fc4be9d58b4b8a1f40df070e3d4416a258b40",
  "nextblockhash": "5bd1c6d5885aa81f51d444523012b5ce8f7642929b1659ab4b79b86529973bd0"
}
