{
  "hash": "65cddd26be529e77cb152f78502c6daf8302633398c08f069a7522ce4f657753",
  "confirmations": 746,
  "strippedsize": 234,
  "size": 234,
  "weight": 936,
  "height": 1360248,
  "version": 536870912,
  "versionHex": "20000000",
  "merkleroot": "5b16a0f7583b3c050b150728d2c0e3eb0da31942c2b95ea04aa8f03b086d6337",
  "tx": [
    {
      "txid": "5b16a0f7583b3c050b150728d2c0e3eb0da31942c2b95ea04aa8f03b086d6337",
      "hash": "5b16a0f7583b3c050b150728d2c0e3eb0da31942c2b95ea04aa8f03b086d6337",
      "version": 1,
      "size": 153,
      "vsize": 153,
      "locktime": 0,
      "vin": [
        {
          "coinbase": "0378c114045a71adfc2cfabe6d6dc2d761ee809584e79efa9c61bf9f8ca5e34e32bad1855ca1e1d1cf0dc61f4cb64000000000000000042f4c502f085800319422000000",
          "sequence": 4294967295
        }
      ],
      "vout": [
        {
          "value": 25.00000000,
          "n": 0,
          "scriptPubKey": {
            "asm": "OP_DUP OP_HASH160 57757ed2ecf2052ff3126c397aca7defb9ca2cec OP_EQUALVERIFY OP_CHECKSIG",
            "hex": "76a91457757ed2ecf2052ff3126c397aca7defb9ca2cec88ac",
            "reqSigs": 1,
            "type": "pubkeyhash",
            "addresses": [
              "LTCPodGk5FwcJaRzH9yKnwicxzFUbxp6tN"
            ]
          }
        }
      ],
      "hex": "01000000010000000000000000000000000000000000000000000000000000000000000000ffffffff440378c114045a71adfc2cfabe6d6dc2d761ee809584e79efa9c61bf9f8ca5e34e32bad1855ca1e1d1cf0dc61f4cb64000000000000000042f4c502f085800319422000000ffffffff0100f90295000000001976a91457757ed2ecf2052ff3126c397aca7defb9ca2cec88ac00000000"
    }
  ],
  "time": 1517399548,
  "mediantime": 1517398671,
  "nonce": 1110621380,
  "bits": "1a042eae",
  "difficulty": 4011378.762614286,
  "chainwork": "000000000000000000000000000000000000000000000034c2ee28b5c783ad72",
  "previousblockhash": "fea94092283ca11196ebe9767414b8156a3120b6f1b6042b3178fa783e85da7e",
  "nextblockhash": "cf7201ebfae98d93190da048121cff52fdf0e5e6bcb1451ebcc3fb787dda89c8"
}
