{
  "hash": "65d414bd2b254d04a9f53841efdf089531f1a30c9a4ace38c14fc01f9d84e6a9",
  "confirmations": 2299,
  "strippedsize": 253,
  "size": 253,
  "weight": 1012,
  "height": 1358696,
  "version": 536870912,
  "versionHex": "20000000",
  "merkleroot": "42cdc1e4932dd0743b71bcc04de8183780f85589c61085e58a55cddff86e59ed",
  "tx": [
    {
      "txid": "42cdc1e4932dd0743b71bcc04de8183780f85589c61085e58a55cddff86e59ed",
      "hash": "42cdc1e4932dd0743b71bcc04de8183780f85589c61085e58a55cddff86e59ed",
      "version": 1,
      "size": 172,
      "vsize": 172,
      "locktime": 0,
      "vin": [
        {
          "coinbase": "0368bb141a4d696e656420627920416e74506f6f6c20626a3242205a6e51b9fabe6d6df08eec23a99f5557be9d518fd7b0d597e26269c12d7c24b9767554f1c95ce8340400000000000000e22900000000000001000000",
          "sequence": 4294967295
        }
      ],
      "vout": [
        {
          "value": 25.00000000,
          "n": 0,
          "scriptPubKey": {
            "asm": "OP_DUP OP_HASH160 0ff3ccc5e8be88afe24b5d634e5852d474dbdff1 OP_EQUALVERIFY OP_CHECKSIG",
            "hex": "76a9140ff3ccc5e8be88afe24b5d634e5852d474dbdff188ac",
            "reqSigs": 1,
            "type": "pubkeyhash",
            "addresses": [
              "LLgJTbzZMsRTCUF1NtvvL9SR1a4pVieW89"
            ]
          }
        }
      ],
      "hex": "01000000010000000000000000000000000000000000000000000000000000000000000000ffffffff570368bb141a4d696e656420627920416e74506f6f6c20626a3242205a6e51b9fabe6d6df08eec23a99f5557be9d518fd7b0d597e26269c12d7c24b9767554f1c95ce8340400000000000000e22900000000000001000000ffffffff0100f90295000000001976a9140ff3ccc5e8be88afe24b5d634e5852d474dbdff188ac00000000"
    }
  ],
  "time": 1517179321,
  "mediantime": 1517178449,
  "nonce": 945778977,
  "bits": "1a047f14",
  "difficulty": 3731199.183374282,
  "chainwork": "000000000000000000000000000000000000000000000033514ca09c1070b7aa",
  "previousblockhash": "5434ad86f7817d43a2336727a4db7e208e2b8ccb0e1128c12e54e434d94cfb0c",
  "nextblockhash": "6e4e62747b6e7834926bd9f442a5376606fbd9133c250bb637c11d412830cd16"
}
