{
  "hash": "664793a31edbaf54d90273643399b7d0a5b071064a4ada4fc74ef723979e4082",
  "confirmations": 2602,
  "strippedsize": 253,
  "size": 253,
  "weight": 1012,
  "height": 1358393,
  "version": 536870912,
  "versionHex": "20000000",
  "merkleroot": "b9ec5eb7065ce27c93a537d6f9a394e29ef4d32d781ae804f00dcd368ce82ffc",
  "tx": [
    {
      "txid": "b9ec5eb7065ce27c93a537d6f9a394e29ef4d32d781ae804f00dcd368ce82ffc",
      "hash": "b9ec5eb7065ce27c93a537d6f9a394e29ef4d32d781ae804f00dcd368ce82ffc",
      "version": 1,
      "size": 172,
      "vsize": 172,
      "locktime": 0,
      "vin": [
        {
          "coinbase": "0339ba141a4d696e656420627920416e74506f6f6c20626a3242205a6da4d0fabe6d6de283e35550f481ae08cc57faef609c1d47d87ca6708e6519030f2848ff35a1b3040000000000000091300000000000001c000000",
          "sequence": 4294967295
        }
      ],
      "vout": [
        {
          "value": 25.00000000,
          "n": 0,
          "scriptPubKey": {
            "asm": "OP_DUP OP_HASH160 0ff3ccc5e8be88afe24b5d634e5852d474dbdff1 OP_EQUALVERIFY OP_CHECKSIG",
            "hex": "76a9140ff3ccc5e8be88afe24b5d634e5852d474dbdff188ac",
            "reqSigs": 1,
            "type": "pubkeyhash",
            "addresses": [
              "LLgJTbzZMsRTCUF1NtvvL9SR1a4pVieW89"
            ]
          }
        }
      ],
      "hex": "01000000010000000000000000000000000000000000000000000000000000000000000000ffffffff570339ba141a4d696e656420627920416e74506f6f6c20626a3242205a6da4d0fabe6d6de283e35550f481ae08cc57faef609c1d47d87ca6708e6519030f2848ff35a1b3040000000000000091300000000000001c000000ffffffff0100f90295000000001976a9140ff3ccc5e8be88afe24b5d634e5852d474dbdff188ac00000000"
    }
  ],
  "time": 1517135056,
  "mediantime": 1517134473,
  "nonce": 1996074632,
  "bits": "1a047f14",
  "difficulty": 3731199.183374282,
  "chainwork": "0000000000000000000000000000000000000000000000330de97d305d0b14e4",
  "previousblockhash": "300de40a7fcbee3be573bb686134dbbc08a992c4c9a247e72ec58db241e54f0f",
  "nextblockhash": "f5f985b8c17950ea8820237a15675ebb2ee88bc886f9f15619ba71af929586fb"
}
