{
  "hash": "668926a266f14b90c6d7cd4e112955a9d3dace9b01964d40115a5799a76f4ce3",
  "confirmations": 3635,
  "strippedsize": 4490,
  "size": 4490,
  "weight": 17960,
  "height": 1357360,
  "version": 536870912,
  "versionHex": "20000000",
  "merkleroot": "7659d2c2bc0897ef9f52df8079fd952c3229c7ca927d4c163a6262baff811086",
  "tx": [
    {
      "txid": "a5f15f3717e2493c61934409f6178d62c072ddb20a03a057bd5145a98b50b8d1",
      "hash": "a5f15f3717e2493c61934409f6178d62c072ddb20a03a057bd5145a98b50b8d1",
      "version": 1,
      "size": 159,
      "vsize": 159,
      "locktime": 0,
      "vin": [
        {
          "coinbase": "0330b61404657f6b5a08810021921f0400007777772e7a706f6f6c2e6361fabe6d6dd9abae5cd100bf168b655d838d437c3cedccf69bba8b22a7934103b70c62574e1000000000000000",
          "sequence": 0
        }
      ],
      "vout": [
        {
          "value": 25.01066700,
          "n": 0,
          "scriptPubKey": {
            "asm": "OP_DUP OP_HASH160 7e8b2484743e97504f410dd61d25fa4e26ac31bb OP_EQUALVERIFY OP_CHECKSIG",
            "hex": "76a9147e8b2484743e97504f410dd61d25fa4e26ac31bb88ac",
            "reqSigs": 1,
            "type": "pubkeyhash",
            "addresses": [
              "LWm46BdrD3ZBDUdAxfqHqNK4TLJgDeqZU5"
            ]
          }
        }
      ],
      "hex": "01000000010000000000000000000000000000000000000000000000000000000000000000ffffffff4a0330b61404657f6b5a08810021921f0400007777772e7a706f6f6c2e6361fabe6d6dd9abae5cd100bf168b655d838d437c3cedccf69bba8b22a7934103b70c62574e10000000000000000000000001cc3f1395000000001976a9147e8b2484743e97504f410dd61d25fa4e26ac31bb88ac00000000"
    }, 
    {
      "txid": "0f0c31cb859db9e6b8075d6c6432e436081616a5a7df933db36e4ad189251efb",
      "hash": "0f0c31cb859db9e6b8075d6c6432e436081616a5a7df933db36e4ad189251efb",
      "version": 1,
      "size": 192,
      "vsize": 192,
      "locktime": 0,
      "vin": [
        {
          "txid": "bd89bcacd4ca55e69d8646b39b99975a9302562c504c3b811162424a9c60989b",
          "vout": 1,
          "scriptSig": {
            "asm": "3045022100b8856dd967bcd5f337e2519a84767ca99136454354262d97b96fd35c1d40722202201ab357a3c58a21023b4149c8443d59aa83feed4a0a41e049254f048abfca0a18[ALL] 036c197475a2008183e4a3a0d26160a47575c2be1fcfcf76774965bb38d013df90",
            "hex": "483045022100b8856dd967bcd5f337e2519a84767ca99136454354262d97b96fd35c1d40722202201ab357a3c58a21023b4149c8443d59aa83feed4a0a41e049254f048abfca0a180121036c197475a2008183e4a3a0d26160a47575c2be1fcfcf76774965bb38d013df90"
          },
          "sequence": 4294967295
        }
      ],
      "vout": [
        {
          "value": 2.22320702,
          "n": 0,
          "scriptPubKey": {
            "asm": "OP_DUP OP_HASH160 949402b9da736297200d94e89b94a0cd6c9dd72c OP_EQUALVERIFY OP_CHECKSIG",
            "hex": "76a914949402b9da736297200d94e89b94a0cd6c9dd72c88ac",
            "reqSigs": 1,
            "type": "pubkeyhash",
            "addresses": [
              "LYmZaZfjiGKyBQZD8x9MqL4TTLvsX7J3dN"
            ]
          }
        }
      ],
      "hex": "01000000019b98609c4a426211813b4c502c5602935a97999bb346869de655cad4acbc89bd010000006b483045022100b8856dd967bcd5f337e2519a84767ca99136454354262d97b96fd35c1d40722202201ab357a3c58a21023b4149c8443d59aa83feed4a0a41e049254f048abfca0a180121036c197475a2008183e4a3a0d26160a47575c2be1fcfcf76774965bb38d013df90ffffffff013e58400d000000001976a914949402b9da736297200d94e89b94a0cd6c9dd72c88ac00000000"
    }, 
    {
      "txid": "40072361617132d1ac89d494f1df937f9dfb0556f43cc5a7762cc56508be9208",
      "hash": "40072361617132d1ac89d494f1df937f9dfb0556f43cc5a7762cc56508be9208",
      "version": 1,
      "size": 225,
      "vsize": 225,
      "locktime": 0,
      "vin": [
        {
          "txid": "62e90556ca267c092d37e25bedcb526ea4b6e91f075b70c5cea89066311c5dc3",
          "vout": 0,
          "scriptSig": {
            "asm": "3044022001dd65c1775c0a2c00a87ee7567f0bb79e3061e7a22e637a5c35010e88058cd30220600864af9220b296eb9eac202736de0a57284f503431a37ae8a8cf13f408f560[ALL] 03718f7a6d73057f495402e07642709253a7c03f8dacb961ba74bdfeca0d6508c7",
            "hex": "473044022001dd65c1775c0a2c00a87ee7567f0bb79e3061e7a22e637a5c35010e88058cd30220600864af9220b296eb9eac202736de0a57284f503431a37ae8a8cf13f408f560012103718f7a6d73057f495402e07642709253a7c03f8dacb961ba74bdfeca0d6508c7"
          },
          "sequence": 4294967295
        }
      ],
      "vout": [
        {
          "value": 0.01010059,
          "n": 0,
          "scriptPubKey": {
            "asm": "OP_DUP OP_HASH160 b5bcdc56e38e400737fa9fbffe61c5e798f56eef OP_EQUALVERIFY OP_CHECKSIG",
            "hex": "76a914b5bcdc56e38e400737fa9fbffe61c5e798f56eef88ac",
            "reqSigs": 1,
            "type": "pubkeyhash",
            "addresses": [
              "LbntpCtmbE8LMxdNMNWjWWFL7wDhWVetuw"
            ]
          }
        }, 
        {
          "value": 0.93761417,
          "n": 1,
          "scriptPubKey": {
            "asm": "OP_DUP OP_HASH160 3581356418bfcec68af8e079cd3754f534a1efdb OP_EQUALVERIFY OP_CHECKSIG",
            "hex": "76a9143581356418bfcec68af8e079cd3754f534a1efdb88ac",
            "reqSigs": 1,
            "type": "pubkeyhash",
            "addresses": [
              "LQ6rrwwYRoBkP5LYozwtyAnWCig7r4ztdY"
            ]
          }
        }
      ],
      "hex": "0100000001c35d1c316690a8cec5705b071fe9b6a46e52cbed5be2372d097c26ca5605e962000000006a473044022001dd65c1775c0a2c00a87ee7567f0bb79e3061e7a22e637a5c35010e88058cd30220600864af9220b296eb9eac202736de0a57284f503431a37ae8a8cf13f408f560012103718f7a6d73057f495402e07642709253a7c03f8dacb961ba74bdfeca0d6508c7ffffffff028b690f00000000001976a914b5bcdc56e38e400737fa9fbffe61c5e798f56eef88ac89af9605000000001976a9143581356418bfcec68af8e079cd3754f534a1efdb88ac00000000"
    }, 
    {
      "txid": "b4bedc743cd780fc32a98583ae4c12cd822e50e6eebe23cced9530ba99f5304b",
      "hash": "b4bedc743cd780fc32a98583ae4c12cd822e50e6eebe23cced9530ba99f5304b",
      "version": 1,
      "size": 225,
      "vsize": 225,
      "locktime": 0,
      "vin": [
        {
          "txid": "eefcd191652ddc79673b67fd15efc2a37637ffd86e1dd317dc48a127798b0ae6",
          "vout": 1,
          "scriptSig": {
            "asm": "304402200d5851167b4cfea210c259600fd766988857a928f01c650c4c8fd2e66a8b7ab8022046b2e953bb9390b6a345ab08b5ab10979c301cc22f448be6b7d659578789a242[ALL] 037e34076d9dff21d9e4af652bc37c9b887c358ef56827bd987255870fc65a1db3",
            "hex": "47304402200d5851167b4cfea210c259600fd766988857a928f01c650c4c8fd2e66a8b7ab8022046b2e953bb9390b6a345ab08b5ab10979c301cc22f448be6b7d659578789a2420121037e34076d9dff21d9e4af652bc37c9b887c358ef56827bd987255870fc65a1db3"
          },
          "sequence": 4294967295
        }
      ],
      "vout": [
        {
          "value": 0.18616000,
          "n": 0,
          "scriptPubKey": {
            "asm": "OP_DUP OP_HASH160 a4657245ab73ff7fb6219d173ccbd01f0ddf9fa7 OP_EQUALVERIFY OP_CHECKSIG",
            "hex": "76a914a4657245ab73ff7fb6219d173ccbd01f0ddf9fa788ac",
            "reqSigs": 1,
            "type": "pubkeyhash",
            "addresses": [
              "LaDCcHq11z6cf22oqg3BLbh9LYT8VTZJc3"
            ]
          }
        }, 
        {
          "value": 0.01006800,
          "n": 1,
          "scriptPubKey": {
            "asm": "OP_DUP OP_HASH160 e0d53e0b58944b9b3d29450df1ac171631771d1d OP_EQUALVERIFY OP_CHECKSIG",
            "hex": "76a914e0d53e0b58944b9b3d29450df1ac171631771d1d88ac",
            "reqSigs": 1,
            "type": "pubkeyhash",
            "addresses": [
              "Lfim5XEES8ntimJbgSeVixjoaV8oCwLdS8"
            ]
          }
        }
      ],
      "hex": "0100000001e60a8b7927a148dc17d31d6ed8ff3776a3c2ef15fd673b6779dc2d6591d1fcee010000006a47304402200d5851167b4cfea210c259600fd766988857a928f01c650c4c8fd2e66a8b7ab8022046b2e953bb9390b6a345ab08b5ab10979c301cc22f448be6b7d659578789a2420121037e34076d9dff21d9e4af652bc37c9b887c358ef56827bd987255870fc65a1db3ffffffff02c00e1c01000000001976a914a4657245ab73ff7fb6219d173ccbd01f0ddf9fa788acd05c0f00000000001976a914e0d53e0b58944b9b3d29450df1ac171631771d1d88ac00000000"
    }, 
    {
      "txid": "f28fe7d0a84a07150cb9c8fb2c883dc01c40cb6b83121fe1eee708e6506a22f7",
      "hash": "f28fe7d0a84a07150cb9c8fb2c883dc01c40cb6b83121fe1eee708e6506a22f7",
      "version": 1,
      "size": 225,
      "vsize": 225,
      "locktime": 0,
      "vin": [
        {
          "txid": "6d8fc84b2b87cfb98a16971d51386f8f59a9e629194373173868bcc6f36acd04",
          "vout": 0,
          "scriptSig": {
            "asm": "304402203d7b46bd9959c3d0ef8b4ccf19513254561e79f46d6c1225d612feab1fe498b402201a48305ac35729f966b0ac94685771d6ec8449ad4484d8d2d5104b19250ff40e[ALL] 027853244924266d0fe2fdc0013430998d65f780e81c642fbabe396329e127193d",
            "hex": "47304402203d7b46bd9959c3d0ef8b4ccf19513254561e79f46d6c1225d612feab1fe498b402201a48305ac35729f966b0ac94685771d6ec8449ad4484d8d2d5104b19250ff40e0121027853244924266d0fe2fdc0013430998d65f780e81c642fbabe396329e127193d"
          },
          "sequence": 4294967295
        }
      ],
      "vout": [
        {
          "value": 0.10889400,
          "n": 0,
          "scriptPubKey": {
            "asm": "OP_DUP OP_HASH160 67ed37ae2da1010ce392ba7019e34f64ef9c8331 OP_EQUALVERIFY OP_CHECKSIG",
            "hex": "76a91467ed37ae2da1010ce392ba7019e34f64ef9c833188ac",
            "reqSigs": 1,
            "type": "pubkeyhash",
            "addresses": [
              "LUhU38dzRyXQU3Wua6iTha36wwFujYXf8V"
            ]
          }
        }, 
        {
          "value": 0.02340000,
          "n": 1,
          "scriptPubKey": {
            "asm": "OP_DUP OP_HASH160 52ef01013be0e073a7218e5d4c93c5d063426569 OP_EQUALVERIFY OP_CHECKSIG",
            "hex": "76a91452ef01013be0e073a7218e5d4c93c5d06342656988ac",
            "reqSigs": 1,
            "type": "pubkeyhash",
            "addresses": [
              "LSnTzE7iGLRVg99pxrUnFzvMdDDBZZF71S"
            ]
          }
        }
      ],
      "hex": "010000000104cd6af3c6bc68381773431929e6a9598f6f38511d97168ab9cf872b4bc88f6d000000006a47304402203d7b46bd9959c3d0ef8b4ccf19513254561e79f46d6c1225d612feab1fe498b402201a48305ac35729f966b0ac94685771d6ec8449ad4484d8d2d5104b19250ff40e0121027853244924266d0fe2fdc0013430998d65f780e81c642fbabe396329e127193dffffffff02b828a600000000001976a91467ed37ae2da1010ce392ba7019e34f64ef9c833188aca0b42300000000001976a91452ef01013be0e073a7218e5d4c93c5d06342656988ac00000000"
    }, 
    {
      "txid": "edc03e3891ef21cc77b0832aaf5e50a1496b4205cae6e4f35f6a5f535f74660d",
      "hash": "edc03e3891ef21cc77b0832aaf5e50a1496b4205cae6e4f35f6a5f535f74660d",
      "version": 1,
      "size": 225,
      "vsize": 225,
      "locktime": 0,
      "vin": [
        {
          "txid": "838fa54eac0731e1d78a473a83d4dc30400d4718e7d009bab625df1455113e85",
          "vout": 1,
          "scriptSig": {
            "asm": "304402205c993897e19913e23bd9aecfde4df08bd05a34ed3d51f4123c89a6cdd51bd78a02205a19f9dc81911abe040f944f341b823890d44c257c509b292bc976dc60e081da[ALL] 02a688bf541bf4c9b211a58a3412a6fb0e01341f33021d0ea515457e347ea26bc7",
            "hex": "47304402205c993897e19913e23bd9aecfde4df08bd05a34ed3d51f4123c89a6cdd51bd78a02205a19f9dc81911abe040f944f341b823890d44c257c509b292bc976dc60e081da012102a688bf541bf4c9b211a58a3412a6fb0e01341f33021d0ea515457e347ea26bc7"
          },
          "sequence": 4294967295
        }
      ],
      "vout": [
        {
          "value": 0.04000000,
          "n": 0,
          "scriptPubKey": {
            "asm": "OP_DUP OP_HASH160 ced9792ebf0803a9e7a739630c2709b261a8fa94 OP_EQUALVERIFY OP_CHECKSIG",
            "hex": "76a914ced9792ebf0803a9e7a739630c2709b261a8fa9488ac",
            "reqSigs": 1,
            "type": "pubkeyhash",
            "addresses": [
              "Le5fz3YcZNBiZHVN6MpvQHJZxeV9iNykxZ"
            ]
          }
        }, 
        {
          "value": 0.00058851,
          "n": 1,
          "scriptPubKey": {
            "asm": "OP_DUP OP_HASH160 481a74019264ce15a488350d14d1e7b5230bfbcc OP_EQUALVERIFY OP_CHECKSIG",
            "hex": "76a914481a74019264ce15a488350d14d1e7b5230bfbcc88ac",
            "reqSigs": 1,
            "type": "pubkeyhash",
            "addresses": [
              "LRoCc2DeRtbuPHPWMcWScSjovJ6x4tiFmg"
            ]
          }
        }
      ],
      "hex": "0100000001853e115514df25b6ba09d0e718470d4030dcd4833a478ad7e13107ac4ea58f83010000006a47304402205c993897e19913e23bd9aecfde4df08bd05a34ed3d51f4123c89a6cdd51bd78a02205a19f9dc81911abe040f944f341b823890d44c257c509b292bc976dc60e081da012102a688bf541bf4c9b211a58a3412a6fb0e01341f33021d0ea515457e347ea26bc7ffffffff0200093d00000000001976a914ced9792ebf0803a9e7a739630c2709b261a8fa9488ace3e50000000000001976a914481a74019264ce15a488350d14d1e7b5230bfbcc88ac00000000"
    }, 
    {
      "txid": "b6e1a3c44f5652379f153c25cd184ae35337cf2db21094b4d748631e6de34e2d",
      "hash": "b6e1a3c44f5652379f153c25cd184ae35337cf2db21094b4d748631e6de34e2d",
      "version": 1,
      "size": 225,
      "vsize": 225,
      "locktime": 0,
      "vin": [
        {
          "txid": "f2dd776ee6a51000ede72680f350c545136f2a33c80556115755d6d9744729ca",
          "vout": 0,
          "scriptSig": {
            "asm": "30440220551e252d66cc1747de95b636bcb1721500c60b5b059b293ddcfadedfe2cb176d02201a96fd979021373f708517461f09fefc4ff54f9588804d9dc6da142c48ebc22f[ALL] 02c2e14d6817d9e846317e32f34af61b801ff2f599bc58c513f75bf1c65c40167a",
            "hex": "4730440220551e252d66cc1747de95b636bcb1721500c60b5b059b293ddcfadedfe2cb176d02201a96fd979021373f708517461f09fefc4ff54f9588804d9dc6da142c48ebc22f012102c2e14d6817d9e846317e32f34af61b801ff2f599bc58c513f75bf1c65c40167a"
          },
          "sequence": 4294967295
        }
      ],
      "vout": [
        {
          "value": 0.00054742,
          "n": 0,
          "scriptPubKey": {
            "asm": "OP_DUP OP_HASH160 26d9932c31669ae77bc42d0993471e993d6e2e52 OP_EQUALVERIFY OP_CHECKSIG",
            "hex": "76a91426d9932c31669ae77bc42d0993471e993d6e2e5288ac",
            "reqSigs": 1,
            "type": "pubkeyhash",
            "addresses": [
              "LNmNasUrXr5Pi3Cm4QpGXgXKAY2Sag6oxU"
            ]
          }
        }, 
        {
          "value": 0.04589788,
          "n": 1,
          "scriptPubKey": {
            "asm": "OP_DUP OP_HASH160 0b599090c2d306212e9cfde6ff9a3738eed236c7 OP_EQUALVERIFY OP_CHECKSIG",
            "hex": "76a9140b599090c2d306212e9cfde6ff9a3738eed236c788ac",
            "reqSigs": 1,
            "type": "pubkeyhash",
            "addresses": [
              "LLFxzPUDhjL7V8yLpiBkVcwnrRZmVzR7tR"
            ]
          }
        }
      ],
      "hex": "0100000001ca294774d9d65557115605c8332a6f1345c550f38026e7ed0010a5e66e77ddf2000000006a4730440220551e252d66cc1747de95b636bcb1721500c60b5b059b293ddcfadedfe2cb176d02201a96fd979021373f708517461f09fefc4ff54f9588804d9dc6da142c48ebc22f012102c2e14d6817d9e846317e32f34af61b801ff2f599bc58c513f75bf1c65c40167affffffff02d6d50000000000001976a91426d9932c31669ae77bc42d0993471e993d6e2e5288acdc084600000000001976a9140b599090c2d306212e9cfde6ff9a3738eed236c788ac00000000"
    }, 
    {
      "txid": "5ae501b758a603abea195d624bb4250ae749cd01115bc9291b66c01f66d3343f",
      "hash": "5ae501b758a603abea195d624bb4250ae749cd01115bc9291b66c01f66d3343f",
      "version": 1,
      "size": 225,
      "vsize": 225,
      "locktime": 0,
      "vin": [
        {
          "txid": "c6b72e848151dd74805130f8aaa0d029368f2f076f713980f029b86e0444f658",
          "vout": 1,
          "scriptSig": {
            "asm": "304402206a4a3f3ccec4d95f344fed91964c9760084819c0de2920a5c48802ffe5f3fdc30220288ce3f9ddd4bc085d32d644de0b03ef1e10ef8207ca39a33ceaa3480192054a[ALL] 026ca8aac6d069829769636f5c8abdc550782b6881e944b0f4d9824831406dea09",
            "hex": "47304402206a4a3f3ccec4d95f344fed91964c9760084819c0de2920a5c48802ffe5f3fdc30220288ce3f9ddd4bc085d32d644de0b03ef1e10ef8207ca39a33ceaa3480192054a0121026ca8aac6d069829769636f5c8abdc550782b6881e944b0f4d9824831406dea09"
          },
          "sequence": 4294967295
        }
      ],
      "vout": [
        {
          "value": 0.00324769,
          "n": 0,
          "scriptPubKey": {
            "asm": "OP_DUP OP_HASH160 ebbcb5b1a667cfb1f1227fc3c39088e350dfbf96 OP_EQUALVERIFY OP_CHECKSIG",
            "hex": "76a914ebbcb5b1a667cfb1f1227fc3c39088e350dfbf9688ac",
            "reqSigs": 1,
            "type": "pubkeyhash",
            "addresses": [
              "LgiR85MaVLciqRKRGzowEehokb3FnvPzwo"
            ]
          }
        }, 
        {
          "value": 0.18932874,
          "n": 1,
          "scriptPubKey": {
            "asm": "OP_DUP OP_HASH160 bb04475e6e0920b6617f3e47eb930eda0aaf2c80 OP_EQUALVERIFY OP_CHECKSIG",
            "hex": "76a914bb04475e6e0920b6617f3e47eb930eda0aaf2c8088ac",
            "reqSigs": 1,
            "type": "pubkeyhash",
            "addresses": [
              "LcGokP29vEmMN5Ycw2ZSezi2hSmzeHX8ok"
            ]
          }
        }
      ],
      "hex": "010000000158f644046eb829f08039716f072f8f3629d0a0aaf830518074dd5181842eb7c6010000006a47304402206a4a3f3ccec4d95f344fed91964c9760084819c0de2920a5c48802ffe5f3fdc30220288ce3f9ddd4bc085d32d644de0b03ef1e10ef8207ca39a33ceaa3480192054a0121026ca8aac6d069829769636f5c8abdc550782b6881e944b0f4d9824831406dea09ffffffff02a1f40400000000001976a914ebbcb5b1a667cfb1f1227fc3c39088e350dfbf9688ac8ae42001000000001976a914bb04475e6e0920b6617f3e47eb930eda0aaf2c8088ac00000000"
    }, 
    {
      "txid": "db9b5928502fb6447efa9dfb60bc140868b98e1b57d15fa35f904f256c6fb46e",
      "hash": "db9b5928502fb6447efa9dfb60bc140868b98e1b57d15fa35f904f256c6fb46e",
      "version": 1,
      "size": 225,
      "vsize": 225,
      "locktime": 0,
      "vin": [
        {
          "txid": "fde02713c4561e5787521c1eb2b689486dcc9462ed1648c6448f1da6c5975461",
          "vout": 0,
          "scriptSig": {
            "asm": "3044022033577c63b96176d6d0af681e031cce09a4670e7891b28954a1c5bdc4845cbe6002206a6e31e1a5adf066d7ecbcfc7bdd99565b541cba4e367473c1374ed2b42c9eac[ALL] 0275378054771610659b586feb0a370c02d4e65b606a98585a04044fc544dfbcdc",
            "hex": "473044022033577c63b96176d6d0af681e031cce09a4670e7891b28954a1c5bdc4845cbe6002206a6e31e1a5adf066d7ecbcfc7bdd99565b541cba4e367473c1374ed2b42c9eac01210275378054771610659b586feb0a370c02d4e65b606a98585a04044fc544dfbcdc"
          },
          "sequence": 4294967295
        }
      ],
      "vout": [
        {
          "value": 0.11474800,
          "n": 0,
          "scriptPubKey": {
            "asm": "OP_DUP OP_HASH160 b48b1d472cdac661365b44055427927db240d31e OP_EQUALVERIFY OP_CHECKSIG",
            "hex": "76a914b48b1d472cdac661365b44055427927db240d31e88ac",
            "reqSigs": 1,
            "type": "pubkeyhash",
            "addresses": [
              "LbgaYaVFuWbPhA4BzJ4TGDPjtdyTNQjQFR"
            ]
          }
        }, 
        {
          "value": 0.00246541,
          "n": 1,
          "scriptPubKey": {
            "asm": "OP_DUP OP_HASH160 e6ba06cc51b4a9670cfa9ab9c38b02866f285cdf OP_EQUALVERIFY OP_CHECKSIG",
            "hex": "76a914e6ba06cc51b4a9670cfa9ab9c38b02866f285cdf88ac",
            "reqSigs": 1,
            "type": "pubkeyhash",
            "addresses": [
              "LgFvXgioxr2Qf8e9LrmNWdcy2aQNKM3KF8"
            ]
          }
        }
      ],
      "hex": "0100000001615497c5a61d8f44c64816ed6294cc6d4889b6b21e1c5287571e56c41327e0fd000000006a473044022033577c63b96176d6d0af681e031cce09a4670e7891b28954a1c5bdc4845cbe6002206a6e31e1a5adf066d7ecbcfc7bdd99565b541cba4e367473c1374ed2b42c9eac01210275378054771610659b586feb0a370c02d4e65b606a98585a04044fc544dfbcdcffffffff027017af00000000001976a914b48b1d472cdac661365b44055427927db240d31e88ac0dc30300000000001976a914e6ba06cc51b4a9670cfa9ab9c38b02866f285cdf88ac00000000"
    }, 
    {
      "txid": "f6739ce955e7cba37272b1581eb4afa475b11d8150e3fa78d0b43a290419d87f",
      "hash": "f6739ce955e7cba37272b1581eb4afa475b11d8150e3fa78d0b43a290419d87f",
      "version": 1,
      "size": 225,
      "vsize": 225,
      "locktime": 0,
      "vin": [
        {
          "txid": "e108447ae5be85e21bbe359574c0046745fe03fe34105d05a6eb666c8160a879",
          "vout": 0,
          "scriptSig": {
            "asm": "304402206fe6fc0d9fca96ae9753cfcbad195c72dfafc333179e33aee4a4deaa82d4fe8002201aba72f93740a4daaf7e6c25656cc67ededf085c40df4ef41075b08a14ee225c[ALL] 03de4eae89e860135c9ae1bb511d7187223a61ab11555b0a5c3af176958e5d34f9",
            "hex": "47304402206fe6fc0d9fca96ae9753cfcbad195c72dfafc333179e33aee4a4deaa82d4fe8002201aba72f93740a4daaf7e6c25656cc67ededf085c40df4ef41075b08a14ee225c012103de4eae89e860135c9ae1bb511d7187223a61ab11555b0a5c3af176958e5d34f9"
          },
          "sequence": 4294967295
        }
      ],
      "vout": [
        {
          "value": 0.68164228,
          "n": 0,
          "scriptPubKey": {
            "asm": "OP_DUP OP_HASH160 b3613035eb5013aa1c31506db69e05dfbcc712d0 OP_EQUALVERIFY OP_CHECKSIG",
            "hex": "76a914b3613035eb5013aa1c31506db69e05dfbcc712d088ac",
            "reqSigs": 1,
            "type": "pubkeyhash",
            "addresses": [
              "LbaReK9ZWa9zVEQMWHd1fpV4uvcTEmX1EU"
            ]
          }
        }, 
        {
          "value": 0.03103572,
          "n": 1,
          "scriptPubKey": {
            "asm": "OP_DUP OP_HASH160 a21e4dc43f194b091bb419c269a132b61593540b OP_EQUALVERIFY OP_CHECKSIG",
            "hex": "76a914a21e4dc43f194b091bb419c269a132b61593540b88ac",
            "reqSigs": 1,
            "type": "pubkeyhash",
            "addresses": [
              "La1A2qFmKnYHq7Wk8JvUVNWkpsChm18i63"
            ]
          }
        }
      ],
      "hex": "010000000179a860816c66eba6055d1034fe03fe456704c0749535be1be285bee57a4408e1000000006a47304402206fe6fc0d9fca96ae9753cfcbad195c72dfafc333179e33aee4a4deaa82d4fe8002201aba72f93740a4daaf7e6c25656cc67ededf085c40df4ef41075b08a14ee225c012103de4eae89e860135c9ae1bb511d7187223a61ab11555b0a5c3af176958e5d34f9ffffffff02841a1004000000001976a914b3613035eb5013aa1c31506db69e05dfbcc712d088ac545b2f00000000001976a914a21e4dc43f194b091bb419c269a132b61593540b88ac00000000"
    }, 
    {
      "txid": "5a7aa35c2db0e992f52c8d7be748a006ae6d66d79ec45ef2a8ebe959f040998b",
      "hash": "5a7aa35c2db0e992f52c8d7be748a006ae6d66d79ec45ef2a8ebe959f040998b",
      "version": 2,
      "size": 225,
      "vsize": 225,
      "locktime": 1357358,
      "vin": [
        {
          "txid": "19ba7b3a453c6a7a6e1f651044704eb280875918f17e93077de6ea61f34bc79b",
          "vout": 1,
          "scriptSig": {
            "asm": "304402200f838b6519898796c465e612554d88c86e5b25db19aa525599467027f56b310b022038bc5c3427869a9d26725a88ab4b9d40be45cd677410ceae79f01f2d97a6d99b[ALL] 03a33fdfe86bcb9c3b19d038a0e669b6283196bdcd4f4e4ba738e65db43a4f377f",
            "hex": "47304402200f838b6519898796c465e612554d88c86e5b25db19aa525599467027f56b310b022038bc5c3427869a9d26725a88ab4b9d40be45cd677410ceae79f01f2d97a6d99b012103a33fdfe86bcb9c3b19d038a0e669b6283196bdcd4f4e4ba738e65db43a4f377f"
          },
          "sequence": 4294967294
        }
      ],
      "vout": [
        {
          "value": 0.01924952,
          "n": 0,
          "scriptPubKey": {
            "asm": "OP_DUP OP_HASH160 36f56b4d3492b7bbd43473174b0a36d84f402106 OP_EQUALVERIFY OP_CHECKSIG",
            "hex": "76a91436f56b4d3492b7bbd43473174b0a36d84f40210688ac",
            "reqSigs": 1,
            "type": "pubkeyhash",
            "addresses": [
              "LQEYkbMW92a4yq3MDYnWTceo26xWTzrJkq"
            ]
          }
        }, 
        {
          "value": 0.52284422,
          "n": 1,
          "scriptPubKey": {
            "asm": "OP_DUP OP_HASH160 9eb0a6bd41f4030283a48d29ca04bd19fef80a38 OP_EQUALVERIFY OP_CHECKSIG",
            "hex": "76a9149eb0a6bd41f4030283a48d29ca04bd19fef80a3888ac",
            "reqSigs": 1,
            "type": "pubkeyhash",
            "addresses": [
              "LZh2eUJKGEq8D9C4DEkZTM7AuTNKTgfbpc"
            ]
          }
        }
      ],
      "hex": "02000000019bc74bf361eae67d07937ef118598780b24e704410651f6e7a6a3c453a7bba19010000006a47304402200f838b6519898796c465e612554d88c86e5b25db19aa525599467027f56b310b022038bc5c3427869a9d26725a88ab4b9d40be45cd677410ceae79f01f2d97a6d99b012103a33fdfe86bcb9c3b19d038a0e669b6283196bdcd4f4e4ba738e65db43a4f377ffeffffff02585f1d00000000001976a91436f56b4d3492b7bbd43473174b0a36d84f40210688ac06cc1d03000000001976a9149eb0a6bd41f4030283a48d29ca04bd19fef80a3888ac2eb61400"
    }, 
    {
      "txid": "7dd2d1a599b95b1b67dcdc7cbe2d3a05009cab179fc6b83e873aa3281cd8eda4",
      "hash": "7dd2d1a599b95b1b67dcdc7cbe2d3a05009cab179fc6b83e873aa3281cd8eda4",
      "version": 1,
      "size": 225,
      "vsize": 225,
      "locktime": 0,
      "vin": [
        {
          "txid": "75c6b61d35e417128a71f7dc792283df265030081fb7bf77178ed485d6d2f29f",
          "vout": 1,
          "scriptSig": {
            "asm": "304402207dee0427d6a88d277d43f424ff6577250ef4b51094ce4abaf066225f419e9a7d022009dabd0fbe38df46dddc1525fc5f95b25bb63c6e50793f48922e50a0b3d3001d[ALL] 03b6ce78b26840b1d02a925ce1fabf28e3451f0da244a3d33f1704f5fc3cbeef38",
            "hex": "47304402207dee0427d6a88d277d43f424ff6577250ef4b51094ce4abaf066225f419e9a7d022009dabd0fbe38df46dddc1525fc5f95b25bb63c6e50793f48922e50a0b3d3001d012103b6ce78b26840b1d02a925ce1fabf28e3451f0da244a3d33f1704f5fc3cbeef38"
          },
          "sequence": 4294967295
        }
      ],
      "vout": [
        {
          "value": 0.57374000,
          "n": 0,
          "scriptPubKey": {
            "asm": "OP_DUP OP_HASH160 be1fdeeaba0e2d6b016d99d9d9c7e13ce547bdfa OP_EQUALVERIFY OP_CHECKSIG",
            "hex": "76a914be1fdeeaba0e2d6b016d99d9d9c7e13ce547bdfa88ac",
            "reqSigs": 1,
            "type": "pubkeyhash",
            "addresses": [
              "LcZEq5daLDYm6Ns6jngsiAarRr2ySgeX3x"
            ]
          }
        }, 
        {
          "value": 0.02594970,
          "n": 1,
          "scriptPubKey": {
            "asm": "OP_DUP OP_HASH160 9e524b574b3198f5a6c21f4432c2ea0cf0e076fb OP_EQUALVERIFY OP_CHECKSIG",
            "hex": "76a9149e524b574b3198f5a6c21f4432c2ea0cf0e076fb88ac",
            "reqSigs": 1,
            "type": "pubkeyhash",
            "addresses": [
              "LZf5cRvNtJwH2ko6hsTUzjGJpnf3iwPsov"
            ]
          }
        }
      ],
      "hex": "01000000019ff2d2d685d48e1777bfb71f08305026df832279dcf7718a1217e4351db6c675010000006a47304402207dee0427d6a88d277d43f424ff6577250ef4b51094ce4abaf066225f419e9a7d022009dabd0fbe38df46dddc1525fc5f95b25bb63c6e50793f48922e50a0b3d3001d012103b6ce78b26840b1d02a925ce1fabf28e3451f0da244a3d33f1704f5fc3cbeef38ffffffff0230756b03000000001976a914be1fdeeaba0e2d6b016d99d9d9c7e13ce547bdfa88ac9a982700000000001976a9149e524b574b3198f5a6c21f4432c2ea0cf0e076fb88ac00000000"
    }, 
    {
      "txid": "29d97475a388d5a8e0c02397727aa3430f22f942a7d282016d23f4c76b2a3f1d",
      "hash": "29d97475a388d5a8e0c02397727aa3430f22f942a7d282016d23f4c76b2a3f1d",
      "version": 1,
      "size": 226,
      "vsize": 226,
      "locktime": 0,
      "vin": [
        {
          "txid": "2b64ab88b01b2fcfd97df5cd230b352aef2d32bc4f0ac7ce7687fa04546483ec",
          "vout": 0,
          "scriptSig": {
            "asm": "3045022100916a973e2d6ba35582e4aa4113b9db636e66c11c67971272350d77c874972c1202200e521c7b733ba5a711556537da39f85a39722adb667999354245695e1ff4373f[ALL] 023864c7fa976d551ce35b8b13fb98f4f06ea00b67090c7884986a01418aadcdf2",
            "hex": "483045022100916a973e2d6ba35582e4aa4113b9db636e66c11c67971272350d77c874972c1202200e521c7b733ba5a711556537da39f85a39722adb667999354245695e1ff4373f0121023864c7fa976d551ce35b8b13fb98f4f06ea00b67090c7884986a01418aadcdf2"
          },
          "sequence": 4294967295
        }
      ],
      "vout": [
        {
          "value": 0.05737235,
          "n": 0,
          "scriptPubKey": {
            "asm": "OP_DUP OP_HASH160 71eb1e248f5bc8479dc5138e4df1d330aa0b3bfe OP_EQUALVERIFY OP_CHECKSIG",
            "hex": "76a91471eb1e248f5bc8479dc5138e4df1d330aa0b3bfe88ac",
            "reqSigs": 1,
            "type": "pubkeyhash",
            "addresses": [
              "LVcJHA53kvVfPWZvAvzuuzqvBieG1VjKs6"
            ]
          }
        }, 
        {
          "value": 0.00054926,
          "n": 1,
          "scriptPubKey": {
            "asm": "OP_DUP OP_HASH160 65ff15d10d374a20c908ac7a799878e643cf945d OP_EQUALVERIFY OP_CHECKSIG",
            "hex": "76a91465ff15d10d374a20c908ac7a799878e643cf945d88ac",
            "reqSigs": 1,
            "type": "pubkeyhash",
            "addresses": [
              "LUXG6DhYXcUsgGZbc1s8HNLyG9KdEe7mtk"
            ]
          }
        }
      ],
      "hex": "0100000001ec83645404fa8776cec70a4fbc322def2a350b23cdf57dd9cf2f1bb088ab642b000000006b483045022100916a973e2d6ba35582e4aa4113b9db636e66c11c67971272350d77c874972c1202200e521c7b733ba5a711556537da39f85a39722adb667999354245695e1ff4373f0121023864c7fa976d551ce35b8b13fb98f4f06ea00b67090c7884986a01418aadcdf2ffffffff02138b5700000000001976a91471eb1e248f5bc8479dc5138e4df1d330aa0b3bfe88ac8ed60000000000001976a91465ff15d10d374a20c908ac7a799878e643cf945d88ac00000000"
    }, 
    {
      "txid": "8ce3ac16a5d1d76031b50e596d4391ec9096e2e60b2b7c4a5a92e66ca2383d1f",
      "hash": "8ce3ac16a5d1d76031b50e596d4391ec9096e2e60b2b7c4a5a92e66ca2383d1f",
      "version": 2,
      "size": 226,
      "vsize": 226,
      "locktime": 1357359,
      "vin": [
        {
          "txid": "f329e8678612598e2fac20091a537de988f059e48e074afe0bee87d597c36e7d",
          "vout": 0,
          "scriptSig": {
            "asm": "3045022100ff8f94fbb91cba6413e28e08f5c2be743f77366306804bb392a01e62b946b7b102205ff2f9701df40b37f3f04d4c1daa83147a9419d9184e42d333cb28f7673d57fd[ALL] 03493f30d78e6dda0b4a4e00605c81e1a06b079f5a3a1d032444562c78e5a7ead9",
            "hex": "483045022100ff8f94fbb91cba6413e28e08f5c2be743f77366306804bb392a01e62b946b7b102205ff2f9701df40b37f3f04d4c1daa83147a9419d9184e42d333cb28f7673d57fd012103493f30d78e6dda0b4a4e00605c81e1a06b079f5a3a1d032444562c78e5a7ead9"
          },
          "sequence": 4294967294
        }
      ],
      "vout": [
        {
          "value": 30.99376675,
          "n": 0,
          "scriptPubKey": {
            "asm": "OP_DUP OP_HASH160 f50c6bff2685fa974f3404f78db9a8cc1f05576b OP_EQUALVERIFY OP_CHECKSIG",
            "hex": "76a914f50c6bff2685fa974f3404f78db9a8cc1f05576b88ac",
            "reqSigs": 1,
            "type": "pubkeyhash",
            "addresses": [
              "LhZehJDHNsswFTiEjze57HfJSW384UK34y"
            ]
          }
        }, 
        {
          "value": 10.07299964,
          "n": 1,
          "scriptPubKey": {
            "asm": "OP_DUP OP_HASH160 6faf262f329368cfdbc5d6cd27f927f7b879cdad OP_EQUALVERIFY OP_CHECKSIG",
            "hex": "76a9146faf262f329368cfdbc5d6cd27f927f7b879cdad88ac",
            "reqSigs": 1,
            "type": "pubkeyhash",
            "addresses": [
              "LVQV65mWLG27ikQ3n4H4ZUMNyJmxt8uPEU"
            ]
          }
        }
      ],
      "hex": "02000000017d6ec397d587ee0bfe4a078ee459f088e97d531a0920ac2f8e59128667e829f3000000006b483045022100ff8f94fbb91cba6413e28e08f5c2be743f77366306804bb392a01e62b946b7b102205ff2f9701df40b37f3f04d4c1daa83147a9419d9184e42d333cb28f7673d57fd012103493f30d78e6dda0b4a4e00605c81e1a06b079f5a3a1d032444562c78e5a7ead9feffffff0223bcbcb8000000001976a914f50c6bff2685fa974f3404f78db9a8cc1f05576b88ac7c2d0a3c000000001976a9146faf262f329368cfdbc5d6cd27f927f7b879cdad88ac2fb61400"
    }, 
    {
      "txid": "6945f78f8cb9c58354576777ac9c7628d978a9282e68e577812a6eed01164a63",
      "hash": "6945f78f8cb9c58354576777ac9c7628d978a9282e68e577812a6eed01164a63",
      "version": 1,
      "size": 226,
      "vsize": 226,
      "locktime": 0,
      "vin": [
        {
          "txid": "e2d318c62785f03def07caa155260103250751cdd9628163d973d0cd78997cc3",
          "vout": 1,
          "scriptSig": {
            "asm": "3045022100a2e2ba7712041ee5443abcb831182fb8d3d828e133a73424574b2576e3edbdc502204b8d8144d11e69a31f8d985406237deee091cf2561790c05276aca335ef03dbb[ALL] 03b3f6e10f8610b7c1a52b1d86a63daf584a4be257d6376bfa80ec7b9b71b6cfe4",
            "hex": "483045022100a2e2ba7712041ee5443abcb831182fb8d3d828e133a73424574b2576e3edbdc502204b8d8144d11e69a31f8d985406237deee091cf2561790c05276aca335ef03dbb012103b3f6e10f8610b7c1a52b1d86a63daf584a4be257d6376bfa80ec7b9b71b6cfe4"
          },
          "sequence": 4294967295
        }
      ],
      "vout": [
        {
          "value": 0.00574000,
          "n": 0,
          "scriptPubKey": {
            "asm": "OP_DUP OP_HASH160 48950349130b54aa974af3a04172820e07d95e26 OP_EQUALVERIFY OP_CHECKSIG",
            "hex": "76a91448950349130b54aa974af3a04172820e07d95e2688ac",
            "reqSigs": 1,
            "type": "pubkeyhash",
            "addresses": [
              "LRqjRcoDpe7TVodD4UmVFUoeowYxi5uY9x"
            ]
          }
        }, 
        {
          "value": 0.00055066,
          "n": 1,
          "scriptPubKey": {
            "asm": "OP_DUP OP_HASH160 9cc2d965f21984bb0fbbacbadcaa61b1ab34307b OP_EQUALVERIFY OP_CHECKSIG",
            "hex": "76a9149cc2d965f21984bb0fbbacbadcaa61b1ab34307b88ac",
            "reqSigs": 1,
            "type": "pubkeyhash",
            "addresses": [
              "LZWq6VuMhAHGpHYfnhKgYWeQfyVZCC8KDs"
            ]
          }
        }
      ],
      "hex": "0100000001c37c9978cdd073d9638162d9cd51072503012655a1ca07ef3df08527c618d3e2010000006b483045022100a2e2ba7712041ee5443abcb831182fb8d3d828e133a73424574b2576e3edbdc502204b8d8144d11e69a31f8d985406237deee091cf2561790c05276aca335ef03dbb012103b3f6e10f8610b7c1a52b1d86a63daf584a4be257d6376bfa80ec7b9b71b6cfe4ffffffff0230c20800000000001976a91448950349130b54aa974af3a04172820e07d95e2688ac1ad70000000000001976a9149cc2d965f21984bb0fbbacbadcaa61b1ab34307b88ac00000000"
    }, 
    {
      "txid": "11b0b5e39938bca75949ab2be0621fce685ade19600970669121b9a555cd44ab",
      "hash": "11b0b5e39938bca75949ab2be0621fce685ade19600970669121b9a555cd44ab",
      "version": 1,
      "size": 226,
      "vsize": 226,
      "locktime": 0,
      "vin": [
        {
          "txid": "6555a0694f624f2b49593dfa5594c2519091c73744d823db61aebdf7a65e8a01",
          "vout": 0,
          "scriptSig": {
            "asm": "3045022100e1fe33eeabd6a7ef400ea53421c4fbc4a76a2603edbb077da46499f0cc9d2f7502205408dda27d7b1cba479be929fb3d0844ecfa72f7731e8ec61476b6da68e5173a[ALL] 03f9158942ec905476cb73ade8fbcbb3044bd0c18a8a6ca5582e12eb8bd2237b47",
            "hex": "483045022100e1fe33eeabd6a7ef400ea53421c4fbc4a76a2603edbb077da46499f0cc9d2f7502205408dda27d7b1cba479be929fb3d0844ecfa72f7731e8ec61476b6da68e5173a012103f9158942ec905476cb73ade8fbcbb3044bd0c18a8a6ca5582e12eb8bd2237b47"
          },
          "sequence": 4294967295
        }
      ],
      "vout": [
        {
          "value": 0.00055079,
          "n": 0,
          "scriptPubKey": {
            "asm": "OP_DUP OP_HASH160 6909b2de259bcbf8efd11c4ef4862385e1b687fa OP_EQUALVERIFY OP_CHECKSIG",
            "hex": "76a9146909b2de259bcbf8efd11c4ef4862385e1b687fa88ac",
            "reqSigs": 1,
            "type": "pubkeyhash",
            "addresses": [
              "LUoLqETZNvj9eRBBSva4Xw2cAQfgNzTHe1"
            ]
          }
        }, 
        {
          "value": 0.00574000,
          "n": 1,
          "scriptPubKey": {
            "asm": "OP_DUP OP_HASH160 7b32ef40c815e5c5ec89796d937965c55681605d OP_EQUALVERIFY OP_CHECKSIG",
            "hex": "76a9147b32ef40c815e5c5ec89796d937965c55681605d88ac",
            "reqSigs": 1,
            "type": "pubkeyhash",
            "addresses": [
              "LWTNPoeBFjTq3QsfJuE95hKdvijX9XX8fW"
            ]
          }
        }
      ],
      "hex": "0100000001018a5ea6f7bdae61db23d84437c7919051c29455fa3d59492b4f624f69a05565000000006b483045022100e1fe33eeabd6a7ef400ea53421c4fbc4a76a2603edbb077da46499f0cc9d2f7502205408dda27d7b1cba479be929fb3d0844ecfa72f7731e8ec61476b6da68e5173a012103f9158942ec905476cb73ade8fbcbb3044bd0c18a8a6ca5582e12eb8bd2237b47ffffffff0227d70000000000001976a9146909b2de259bcbf8efd11c4ef4862385e1b687fa88ac30c20800000000001976a9147b32ef40c815e5c5ec89796d937965c55681605d88ac00000000"
    }, 
    {
      "txid": "991a55d34c949a4976df62045ae57303b727f6609a96b3f25a212ce7d26ea7b4",
      "hash": "991a55d34c949a4976df62045ae57303b727f6609a96b3f25a212ce7d26ea7b4",
      "version": 1,
      "size": 226,
      "vsize": 226,
      "locktime": 0,
      "vin": [
        {
          "txid": "9869abdaa00fb8a4ec427b3042290cbcd1cf167e67c9146b17753fe410e818f5",
          "vout": 0,
          "scriptSig": {
            "asm": "30450221009f8b5596d9483f20017e79a1220eb09b3798536206ac25a24073639bbc478b3502204df82ffaf404b22e306578cc3f552aebb4dbef55b7a7b107e384ed2a171054fb[ALL] 033582ce86884d41f2f00fd5d8b1d7497677011fcfa2079044cf32daa01361ec31",
            "hex": "4830450221009f8b5596d9483f20017e79a1220eb09b3798536206ac25a24073639bbc478b3502204df82ffaf404b22e306578cc3f552aebb4dbef55b7a7b107e384ed2a171054fb0121033582ce86884d41f2f00fd5d8b1d7497677011fcfa2079044cf32daa01361ec31"
          },
          "sequence": 4294967295
        }
      ],
      "vout": [
        {
          "value": 4.09977400,
          "n": 0,
          "scriptPubKey": {
            "asm": "OP_DUP OP_HASH160 1a0affa672403d02bcd56565ffb339a41327bf4d OP_EQUALVERIFY OP_CHECKSIG",
            "hex": "76a9141a0affa672403d02bcd56565ffb339a41327bf4d88ac",
            "reqSigs": 1,
            "type": "pubkeyhash",
            "addresses": [
              "LMbf1Q6giJ7RqGpPvmGXPAK4PjBjcsKHem"
            ]
          }
        }, 
        {
          "value": 3.40000000,
          "n": 1,
          "scriptPubKey": {
            "asm": "OP_DUP OP_HASH160 21327daacc47a2f5b488e8299b2dbe50896658ed OP_EQUALVERIFY OP_CHECKSIG",
            "hex": "76a91421327daacc47a2f5b488e8299b2dbe50896658ed88ac",
            "reqSigs": 1,
            "type": "pubkeyhash",
            "addresses": [
              "LNFV3iEfwsc8ZYhHYeFq8P7YAQgRJEgLsA"
            ]
          }
        }
      ],
      "hex": "0100000001f518e810e43f75176b14c9677e16cfd1bc0c2942307b42eca4b80fa0daab6998000000006b4830450221009f8b5596d9483f20017e79a1220eb09b3798536206ac25a24073639bbc478b3502204df82ffaf404b22e306578cc3f552aebb4dbef55b7a7b107e384ed2a171054fb0121033582ce86884d41f2f00fd5d8b1d7497677011fcfa2079044cf32daa01361ec31ffffffff0238c26f18000000001976a9141a0affa672403d02bcd56565ffb339a41327bf4d88ac00fd4314000000001976a91421327daacc47a2f5b488e8299b2dbe50896658ed88ac00000000"
    }, 
    {
      "txid": "5ae48c3b28c31324effb2640d2589cc9d58b1dd01367688c25a806ec936079be",
      "hash": "5ae48c3b28c31324effb2640d2589cc9d58b1dd01367688c25a806ec936079be",
      "version": 1,
      "size": 226,
      "vsize": 226,
      "locktime": 0,
      "vin": [
        {
          "txid": "bf41069a473a9aafd24b946ef8d373f4659a944f31f8ecab4acfced9c1365526",
          "vout": 1,
          "scriptSig": {
            "asm": "30450221009e170437b47333baba8c02c301504a56206ff228d6d2fabc72f8708aca2f013202206d4f31f9eec5227bfcad681d67680eba4d7223f985649442784d3a86e5d58db0[ALL] 03d15a6146f65c1d8a7440ae1176cb173a3f15cc8fdbf4dfd66d5e9133a69d95c1",
            "hex": "4830450221009e170437b47333baba8c02c301504a56206ff228d6d2fabc72f8708aca2f013202206d4f31f9eec5227bfcad681d67680eba4d7223f985649442784d3a86e5d58db0012103d15a6146f65c1d8a7440ae1176cb173a3f15cc8fdbf4dfd66d5e9133a69d95c1"
          },
          "sequence": 4294967295
        }
      ],
      "vout": [
        {
          "value": 0.20000000,
          "n": 0,
          "scriptPubKey": {
            "asm": "OP_DUP OP_HASH160 b3913c2bb078df23959ace7ee5bf6df1e09a3dee OP_EQUALVERIFY OP_CHECKSIG",
            "hex": "76a914b3913c2bb078df23959ace7ee5bf6df1e09a3dee88ac",
            "reqSigs": 1,
            "type": "pubkeyhash",
            "addresses": [
              "LbbRCf8eFczvZVTP49t9572PW9rzfFS9nb"
            ]
          }
        }, 
        {
          "value": 0.00854539,
          "n": 1,
          "scriptPubKey": {
            "asm": "OP_DUP OP_HASH160 e6f58f57997387d46cfd5100cd9fb96c64824f69 OP_EQUALVERIFY OP_CHECKSIG",
            "hex": "76a914e6f58f57997387d46cfd5100cd9fb96c64824f6988ac",
            "reqSigs": 1,
            "type": "pubkeyhash",
            "addresses": [
              "LgH9r8uRCSc5rEo9s8a4R2RUspoTY5Xhpd"
            ]
          }
        }
      ],
      "hex": "0100000001265536c1d9cecf4aabecf8314f949a65f473d3f86e944bd2af9a3a479a0641bf010000006b4830450221009e170437b47333baba8c02c301504a56206ff228d6d2fabc72f8708aca2f013202206d4f31f9eec5227bfcad681d67680eba4d7223f985649442784d3a86e5d58db0012103d15a6146f65c1d8a7440ae1176cb173a3f15cc8fdbf4dfd66d5e9133a69d95c1ffffffff02002d3101000000001976a914b3913c2bb078df23959ace7ee5bf6df1e09a3dee88ac0b0a0d00000000001976a914e6f58f57997387d46cfd5100cd9fb96c64824f6988ac00000000"
    }, 
    {
      "txid": "19a7134f827d3e956d11981048cbbc82d671becfe87d5f234bf0d5b8cf3048e8",
      "hash": "19a7134f827d3e956d11981048cbbc82d671becfe87d5f234bf0d5b8cf3048e8",
      "version": 1,
      "size": 226,
      "vsize": 226,
      "locktime": 0,
      "vin": [
        {
          "txid": "41bdae1fbae5c072ec95ce77223f4a3e5e1b7df7dd314f2428173140e7143791",
          "vout": 0,
          "scriptSig": {
            "asm": "3045022100f16c990c267c51b3cbd1cdcd5637b72e7cb2ab5ba2fb7588561fd3139b2b0346022039778c75ccdfa9affd6cd25ed98c27a964644223deb08c4ce8b210c287b4dc4e[ALL] 03947beada75186bb05062f3c80b95ca80af035048d1805b5ef71c5575d4869ea1",
            "hex": "483045022100f16c990c267c51b3cbd1cdcd5637b72e7cb2ab5ba2fb7588561fd3139b2b0346022039778c75ccdfa9affd6cd25ed98c27a964644223deb08c4ce8b210c287b4dc4e012103947beada75186bb05062f3c80b95ca80af035048d1805b5ef71c5575d4869ea1"
          },
          "sequence": 4294967295
        }
      ],
      "vout": [
        {
          "value": 0.57098950,
          "n": 0,
          "scriptPubKey": {
            "asm": "OP_DUP OP_HASH160 156f0b98ee54bd41488b43ae7fefb6eb15135e84 OP_EQUALVERIFY OP_CHECKSIG",
            "hex": "76a914156f0b98ee54bd41488b43ae7fefb6eb15135e8488ac",
            "reqSigs": 1,
            "type": "pubkeyhash",
            "addresses": [
              "LMBHUobymadS4EVBrLprGtW9RcEftvg2DK"
            ]
          }
        }, 
        {
          "value": 9.42878450,
          "n": 1,
          "scriptPubKey": {
            "asm": "OP_DUP OP_HASH160 6eb6839e571cf7ec0b588bc1dfe89255bcc746b0 OP_EQUALVERIFY OP_CHECKSIG",
            "hex": "76a9146eb6839e571cf7ec0b588bc1dfe89255bcc746b088ac",
            "reqSigs": 1,
            "type": "pubkeyhash",
            "addresses": [
              "LVKMEcqnFHtQYnwBFtBVZfHqytvmwf13Mt"
            ]
          }
        }
      ],
      "hex": "0100000001913714e740311728244f31ddf77d1b5e3e4a3f2277ce95ec72c0e5ba1faebd41000000006b483045022100f16c990c267c51b3cbd1cdcd5637b72e7cb2ab5ba2fb7588561fd3139b2b0346022039778c75ccdfa9affd6cd25ed98c27a964644223deb08c4ce8b210c287b4dc4e012103947beada75186bb05062f3c80b95ca80af035048d1805b5ef71c5575d4869ea1ffffffff02c6426703000000001976a914156f0b98ee54bd41488b43ae7fefb6eb15135e8488acf22e3338000000001976a9146eb6839e571cf7ec0b588bc1dfe89255bcc746b088ac00000000"
    }, 
    {
      "txid": "2b8bb0e25ea129b03f5c88781a6471a339bb883d0102574d8c191a588d78f4f0",
      "hash": "2b8bb0e25ea129b03f5c88781a6471a339bb883d0102574d8c191a588d78f4f0",
      "version": 1,
      "size": 226,
      "vsize": 226,
      "locktime": 0,
      "vin": [
        {
          "txid": "4dad6014312979bcc47b3e7982bbbea818f33da1408100a3eeb183e6f1d1b141",
          "vout": 0,
          "scriptSig": {
            "asm": "3045022100f25958b2055c6d78136ef4a0c7aa97bee5eecec3e78cc40fe3f5b90d78db680202200c098781b0ca891160b8baf97a3f7ece09b228a4076a310827a02edd17b49415[ALL] 033582ce86884d41f2f00fd5d8b1d7497677011fcfa2079044cf32daa01361ec31",
            "hex": "483045022100f25958b2055c6d78136ef4a0c7aa97bee5eecec3e78cc40fe3f5b90d78db680202200c098781b0ca891160b8baf97a3f7ece09b228a4076a310827a02edd17b494150121033582ce86884d41f2f00fd5d8b1d7497677011fcfa2079044cf32daa01361ec31"
          },
          "sequence": 4294967295
        }
      ],
      "vout": [
        {
          "value": 1.46237400,
          "n": 0,
          "scriptPubKey": {
            "asm": "OP_DUP OP_HASH160 3e40745e49efc29773a5289db3f4d8b94dd0fca4 OP_EQUALVERIFY OP_CHECKSIG",
            "hex": "76a9143e40745e49efc29773a5289db3f4d8b94dd0fca488ac",
            "reqSigs": 1,
            "type": "pubkeyhash",
            "addresses": [
              "LQu7NVGDZcFZT7fzG7v39uG3ctz4fhJDwT"
            ]
          }
        }, 
        {
          "value": 5.73740000,
          "n": 1,
          "scriptPubKey": {
            "asm": "OP_DUP OP_HASH160 4611809d17ca8d1f45ca603e5749bd35f212b22c OP_EQUALVERIFY OP_CHECKSIG",
            "hex": "76a9144611809d17ca8d1f45ca603e5749bd35f212b22c88ac",
            "reqSigs": 1,
            "type": "pubkeyhash",
            "addresses": [
              "LRcSXjEe39K3vDbdCK1YDr5TUKx6AGhpFu"
            ]
          }
        }
      ],
      "hex": "010000000141b1d1f1e683b1eea3008140a13df318a8bebb82793e7bc4bc7929311460ad4d000000006b483045022100f25958b2055c6d78136ef4a0c7aa97bee5eecec3e78cc40fe3f5b90d78db680202200c098781b0ca891160b8baf97a3f7ece09b228a4076a310827a02edd17b494150121033582ce86884d41f2f00fd5d8b1d7497677011fcfa2079044cf32daa01361ec31ffffffff02d867b708000000001976a9143e40745e49efc29773a5289db3f4d8b94dd0fca488ace0933222000000001976a9144611809d17ca8d1f45ca603e5749bd35f212b22c88ac00000000"
    }
  ],
  "time": 1516994405,
  "mediantime": 1516994112,
  "nonce": 3002328491,
  "bits": "1a047f14",
  "difficulty": 3731199.183374282,
  "chainwork": "000000000000000000000000000000000000000000000032282c33bea6a30ffa",
  "previousblockhash": "5f5f1fb1f28dd1614311a08f1f41c1b122b3c67720ef8d1ac9dc7875140b9a15",
  "nextblockhash": "dd2fa504b122acae5c4728ab91e3385cc4193ba26adc9c52b0ebce4fb3552e35"
}
