{
  "hash": "66b0958089657dd218fa4cb8bf36f6f6916139e2b91ac01f86a99a7dcd6c9f76",
  "confirmations": 3681,
  "strippedsize": 3871,
  "size": 3907,
  "weight": 15520,
  "height": 1357314,
  "version": 536870912,
  "versionHex": "20000000",
  "merkleroot": "212d5c160bcaa3de8c828f2566a7cc85beadef526235b1e31e0881802bd13d01",
  "tx": [
    {
      "txid": "c975d912ed467b51c493a69909a612ed95ad3ba939f87754cd2286948e9f9315",
      "hash": "f98e2ed099b5cb0a18cc70cbf6880526381e70cf9b74d848503d82472659d7ff",
      "version": 1,
      "size": 236,
      "vsize": 209,
      "locktime": 0,
      "vin": [
        {
          "coinbase": "0302b614045a6b652f2cfabe6d6d6beaa8fc964acb622680624c140732b766acb6c8ab03c2e47665bf7837822bd94000000000000000042f4c502f081600778b23000000",
          "sequence": 4294967295
        }
      ],
      "vout": [
        {
          "value": 25.00750800,
          "n": 0,
          "scriptPubKey": {
            "asm": "OP_DUP OP_HASH160 57757ed2ecf2052ff3126c397aca7defb9ca2cec OP_EQUALVERIFY OP_CHECKSIG",
            "hex": "76a91457757ed2ecf2052ff3126c397aca7defb9ca2cec88ac",
            "reqSigs": 1,
            "type": "pubkeyhash",
            "addresses": [
              "LTCPodGk5FwcJaRzH9yKnwicxzFUbxp6tN"
            ]
          }
        }, 
        {
          "value": 0.00000000,
          "n": 1,
          "scriptPubKey": {
            "asm": "OP_RETURN aa21a9edfd9d9d3ff1ad3c5ae27bc0434b8fc6908f4cc2e8a01b6edadd7220129aa6d791",
            "hex": "6a24aa21a9edfd9d9d3ff1ad3c5ae27bc0434b8fc6908f4cc2e8a01b6edadd7220129aa6d791",
            "type": "nulldata"
          }
        }
      ],
      "hex": "010000000001010000000000000000000000000000000000000000000000000000000000000000ffffffff440302b614045a6b652f2cfabe6d6d6beaa8fc964acb622680624c140732b766acb6c8ab03c2e47665bf7837822bd94000000000000000042f4c502f081600778b23000000ffffffff02d06d0e95000000001976a91457757ed2ecf2052ff3126c397aca7defb9ca2cec88ac0000000000000000266a24aa21a9edfd9d9d3ff1ad3c5ae27bc0434b8fc6908f4cc2e8a01b6edadd7220129aa6d7910120000000000000000000000000000000000000000000000000000000000000000000000000"
    }, 
    {
      "txid": "233b72ece25a3f57ce19a267aac24b250457033f1b6cd8eb2a2666976926aa2c",
      "hash": "233b72ece25a3f57ce19a267aac24b250457033f1b6cd8eb2a2666976926aa2c",
      "version": 1,
      "size": 226,
      "vsize": 226,
      "locktime": 0,
      "vin": [
        {
          "txid": "3fade11b5a404ec6840ea84f4de46b98c761b366a3ff2d36f1238d387237e90e",
          "vout": 0,
          "scriptSig": {
            "asm": "30450221008f623c12c5cd97469e7a6d4d4ab1a20469ebceee716186c72b9db4de46a6f12002206b92c2025cad1745ec589dc9f276d68e0c0057a0afeba8bf64c202fe005152a5[ALL] 03ae768058c800130eb92509a1bbf355444524c85458f11c466bffe8c3f463f7f2",
            "hex": "4830450221008f623c12c5cd97469e7a6d4d4ab1a20469ebceee716186c72b9db4de46a6f12002206b92c2025cad1745ec589dc9f276d68e0c0057a0afeba8bf64c202fe005152a5012103ae768058c800130eb92509a1bbf355444524c85458f11c466bffe8c3f463f7f2"
          },
          "sequence": 4294967295
        }
      ],
      "vout": [
        {
          "value": 0.16496740,
          "n": 0,
          "scriptPubKey": {
            "asm": "OP_DUP OP_HASH160 afd4f5216e248637009b03d99c30c53a71afc1a8 OP_EQUALVERIFY OP_CHECKSIG",
            "hex": "76a914afd4f5216e248637009b03d99c30c53a71afc1a888ac",
            "reqSigs": 1,
            "type": "pubkeyhash",
            "addresses": [
              "LbFfdLFVYSTpkviXpsKNuXua2SvPEXA42G"
            ]
          }
        }, 
        {
          "value": 0.83207260,
          "n": 1,
          "scriptPubKey": {
            "asm": "OP_DUP OP_HASH160 77637112f81a4162df77555afb7e6a953873e41e OP_EQUALVERIFY OP_CHECKSIG",
            "hex": "76a91477637112f81a4162df77555afb7e6a953873e41e88ac",
            "reqSigs": 1,
            "type": "pubkeyhash",
            "addresses": [
              "LW7DoNUE4pqBiCez9bvKZfZp8GC75tBbnT"
            ]
          }
        }
      ],
      "hex": "01000000010ee93772388d23f1362dffa366b361c7986be44d4fa80e84c64e405a1be1ad3f000000006b4830450221008f623c12c5cd97469e7a6d4d4ab1a20469ebceee716186c72b9db4de46a6f12002206b92c2025cad1745ec589dc9f276d68e0c0057a0afeba8bf64c202fe005152a5012103ae768058c800130eb92509a1bbf355444524c85458f11c466bffe8c3f463f7f2ffffffff0264b8fb00000000001976a914afd4f5216e248637009b03d99c30c53a71afc1a888ac5ca4f504000000001976a91477637112f81a4162df77555afb7e6a953873e41e88ac00000000"
    }, 
    {
      "txid": "79fd2f9ba2cb04f6bc17401f61c8609f27ad86798cf73ddfd0a4840c1c63ff24",
      "hash": "79fd2f9ba2cb04f6bc17401f61c8609f27ad86798cf73ddfd0a4840c1c63ff24",
      "version": 1,
      "size": 225,
      "vsize": 225,
      "locktime": 0,
      "vin": [
        {
          "txid": "cfaae95aff4a9700aaf7e81973edacf172eacf0a233456a1d2c5ac368a38f3c2",
          "vout": 0,
          "scriptSig": {
            "asm": "304402204061c743a986862104347835a04d4991d8a27bcfaba0f4811f7d66838f2dd131022073458961b21859cab73e27ea0315d2266f0b64e7af71b7635ce2d0553c8e8d79[ALL] 0374555f91a73201d001d94035d3aa3d09c29de5acf1a0fadf02d81fd3233b8205",
            "hex": "47304402204061c743a986862104347835a04d4991d8a27bcfaba0f4811f7d66838f2dd131022073458961b21859cab73e27ea0315d2266f0b64e7af71b7635ce2d0553c8e8d7901210374555f91a73201d001d94035d3aa3d09c29de5acf1a0fadf02d81fd3233b8205"
          },
          "sequence": 4294967295
        }
      ],
      "vout": [
        {
          "value": 0.00406477,
          "n": 0,
          "scriptPubKey": {
            "asm": "OP_DUP OP_HASH160 081175012dcde6e1796d3cd28ea30b499a544255 OP_EQUALVERIFY OP_CHECKSIG",
            "hex": "76a914081175012dcde6e1796d3cd28ea30b499a54425588ac",
            "reqSigs": 1,
            "type": "pubkeyhash",
            "addresses": [
              "LKxcagfbCsVknQuGSvAKMhnvxnfduEfKaN"
            ]
          }
        }, 
        {
          "value": 0.05623348,
          "n": 1,
          "scriptPubKey": {
            "asm": "OP_DUP OP_HASH160 e2ac7c579cef79308f25c9c19ada85bede3cf307 OP_EQUALVERIFY OP_CHECKSIG",
            "hex": "76a914e2ac7c579cef79308f25c9c19ada85bede3cf30788ac",
            "reqSigs": 1,
            "type": "pubkeyhash",
            "addresses": [
              "LftVc5q15jk4TvdNzNF3R8FYzVjkQFHi5Q"
            ]
          }
        }
      ],
      "hex": "0100000001c2f3388a36acc5d2a15634230acfea72f1aced7319e8f7aa00974aff5ae9aacf000000006a47304402204061c743a986862104347835a04d4991d8a27bcfaba0f4811f7d66838f2dd131022073458961b21859cab73e27ea0315d2266f0b64e7af71b7635ce2d0553c8e8d7901210374555f91a73201d001d94035d3aa3d09c29de5acf1a0fadf02d81fd3233b8205ffffffff02cd330600000000001976a914081175012dcde6e1796d3cd28ea30b499a54425588ac34ce5500000000001976a914e2ac7c579cef79308f25c9c19ada85bede3cf30788ac00000000"
    }, 
    {
      "txid": "0ef012e6af520e94813a7dfcd43ac1df52aa6a900db0f9a0ba4531cc1aa72771",
      "hash": "0ef012e6af520e94813a7dfcd43ac1df52aa6a900db0f9a0ba4531cc1aa72771",
      "version": 1,
      "size": 225,
      "vsize": 225,
      "locktime": 0,
      "vin": [
        {
          "txid": "e976c5f0fecea60c4da162839991604f344dfa506a12a143761bc29a44a449ea",
          "vout": 0,
          "scriptSig": {
            "asm": "304402205d2f8c5625bc29b34d9b423cd3aea349ea0f31c1590c8edd96312a8d3ea169fc02202e923054a59ed88de0b8ac285a2bfe97118dbe6f11ec04b0822de8e8a0a10a1e[ALL] 0234a47d5e403947ed78b397d5ad808fb9fe124d456ca86f8aad47a799b8a2cd29",
            "hex": "47304402205d2f8c5625bc29b34d9b423cd3aea349ea0f31c1590c8edd96312a8d3ea169fc02202e923054a59ed88de0b8ac285a2bfe97118dbe6f11ec04b0822de8e8a0a10a1e01210234a47d5e403947ed78b397d5ad808fb9fe124d456ca86f8aad47a799b8a2cd29"
          },
          "sequence": 4294967295
        }
      ],
      "vout": [
        {
          "value": 0.72412100,
          "n": 0,
          "scriptPubKey": {
            "asm": "OP_DUP OP_HASH160 c1265c3bbc73489305efbcb57b931dd62c4365c3 OP_EQUALVERIFY OP_CHECKSIG",
            "hex": "76a914c1265c3bbc73489305efbcb57b931dd62c4365c388ac",
            "reqSigs": 1,
            "type": "pubkeyhash",
            "addresses": [
              "LcqEdZBgbsWnpx2hx4dxEHdePwuWxMqytD"
            ]
          }
        }, 
        {
          "value": 3.27287900,
          "n": 1,
          "scriptPubKey": {
            "asm": "OP_DUP OP_HASH160 0521f843c9123c43cfcac001ff37c34bf6e92ebf OP_EQUALVERIFY OP_CHECKSIG",
            "hex": "76a9140521f843c9123c43cfcac001ff37c34bf6e92ebf88ac",
            "reqSigs": 1,
            "type": "pubkeyhash",
            "addresses": [
              "LKh6LS8m93WYppPdFGECMNoXckpQm972FA"
            ]
          }
        }
      ],
      "hex": "0100000001ea49a4449ac21b7643a1126a50fa4d344f6091998362a14d0ca6cefef0c576e9000000006a47304402205d2f8c5625bc29b34d9b423cd3aea349ea0f31c1590c8edd96312a8d3ea169fc02202e923054a59ed88de0b8ac285a2bfe97118dbe6f11ec04b0822de8e8a0a10a1e01210234a47d5e403947ed78b397d5ad808fb9fe124d456ca86f8aad47a799b8a2cd29ffffffff02c4eb5004000000001976a914c1265c3bbc73489305efbcb57b931dd62c4365c388ac5c048213000000001976a9140521f843c9123c43cfcac001ff37c34bf6e92ebf88ac00000000"
    }, 
    {
      "txid": "0272fb29000bdc37d4186283bfe970d21fc16216c0050c13249ca89c4729c032",
      "hash": "0272fb29000bdc37d4186283bfe970d21fc16216c0050c13249ca89c4729c032",
      "version": 1,
      "size": 592,
      "vsize": 592,
      "locktime": 0,
      "vin": [
        {
          "txid": "ff6fa7b474d9fc0544c81278cd7fbd09c844d5838242b4e7f7bbf1fa51f2755d",
          "vout": 1,
          "scriptSig": {
            "asm": "0 30440220542d4717a886064b226272e9c9740e376f44f5827e8f734fb3e686082f793b9202201bba9efeb9dd1b5f4be1d8f57d196c6e2081cda95314b26694bad94b8d851181[ALL] 30440220385c16a521584417bcc9365f1781652af3b3a5e81f65a407af5e7f6c49dd5d9202202a08060e0317acb8c253c763585fcf09da4b34aa4c4efd3a582979e6cc965be7[ALL] 52210205524bf509852fc78c3a0b4c0f4e6c978ce0160c45b7776637387071d3ec0f9221027620c5d3bb33b1f38a12561570e4ac804564abd8484304e39fe1c96282182d1e52ae",
            "hex": "004730440220542d4717a886064b226272e9c9740e376f44f5827e8f734fb3e686082f793b9202201bba9efeb9dd1b5f4be1d8f57d196c6e2081cda95314b26694bad94b8d851181014730440220385c16a521584417bcc9365f1781652af3b3a5e81f65a407af5e7f6c49dd5d9202202a08060e0317acb8c253c763585fcf09da4b34aa4c4efd3a582979e6cc965be7014752210205524bf509852fc78c3a0b4c0f4e6c978ce0160c45b7776637387071d3ec0f9221027620c5d3bb33b1f38a12561570e4ac804564abd8484304e39fe1c96282182d1e52ae"
          },
          "sequence": 4294967295
        }, 
        {
          "txid": "7b3695945cd532b5ee5717f7813096f757aabe62c91a08d43d3a53996f16fdc7",
          "vout": 0,
          "scriptSig": {
            "asm": "0 304402206dc368cb221b935e39f4dd00d95f98f4669da61d3c4775dafb8dce522aa284cf0220630d47e982de5334c86301f89f75b6179746d356eb0b9dcf50cc9c54536cf316[ALL] 304402202690c9a449b78b57ade76123fc5495f993e27a74e3f8c5372b9be0fd6996d47e02201ccf43c083b088ee5b8bfedf975aa19538d7f6c9c9e05b4441681a5d60f5c0b3[ALL] 52210205524bf509852fc78c3a0b4c0f4e6c978ce0160c45b7776637387071d3ec0f9221027620c5d3bb33b1f38a12561570e4ac804564abd8484304e39fe1c96282182d1e52ae",
            "hex": "0047304402206dc368cb221b935e39f4dd00d95f98f4669da61d3c4775dafb8dce522aa284cf0220630d47e982de5334c86301f89f75b6179746d356eb0b9dcf50cc9c54536cf3160147304402202690c9a449b78b57ade76123fc5495f993e27a74e3f8c5372b9be0fd6996d47e02201ccf43c083b088ee5b8bfedf975aa19538d7f6c9c9e05b4441681a5d60f5c0b3014752210205524bf509852fc78c3a0b4c0f4e6c978ce0160c45b7776637387071d3ec0f9221027620c5d3bb33b1f38a12561570e4ac804564abd8484304e39fe1c96282182d1e52ae"
          },
          "sequence": 4294967295
        }
      ],
      "vout": [
        {
          "value": 0.09443147,
          "n": 0,
          "scriptPubKey": {
            "asm": "OP_DUP OP_HASH160 2acbe62267354be136d3469f414ccb5ff8c99bd6 OP_EQUALVERIFY OP_CHECKSIG",
            "hex": "76a9142acbe62267354be136d3469f414ccb5ff8c99bd688ac",
            "reqSigs": 1,
            "type": "pubkeyhash",
            "addresses": [
              "LP8EuRCyNpm7z3iWvW3pG1MVZm6RQ5bvoQ"
            ]
          }
        }, 
        {
          "value": 1.92632340,
          "n": 1,
          "scriptPubKey": {
            "asm": "OP_HASH160 fca5e4e9a1c8cbb80695c1873a4390ab9469370f OP_EQUAL",
            "hex": "a914fca5e4e9a1c8cbb80695c1873a4390ab9469370f87",
            "reqSigs": 1,
            "type": "scripthash",
            "addresses": [
              "MWw3FJTf9HXavvA1SsvjX5s7aB5XD4QyuG"
            ]
          }
        }
      ],
      "hex": "01000000025d75f251faf1bbf7e7b4428283d544c809bd7fcd7812c84405fcd974b4a76fff01000000d9004730440220542d4717a886064b226272e9c9740e376f44f5827e8f734fb3e686082f793b9202201bba9efeb9dd1b5f4be1d8f57d196c6e2081cda95314b26694bad94b8d851181014730440220385c16a521584417bcc9365f1781652af3b3a5e81f65a407af5e7f6c49dd5d9202202a08060e0317acb8c253c763585fcf09da4b34aa4c4efd3a582979e6cc965be7014752210205524bf509852fc78c3a0b4c0f4e6c978ce0160c45b7776637387071d3ec0f9221027620c5d3bb33b1f38a12561570e4ac804564abd8484304e39fe1c96282182d1e52aeffffffffc7fd166f99533a3dd4081ac962beaa57f7963081f71757eeb532d55c9495367b00000000d90047304402206dc368cb221b935e39f4dd00d95f98f4669da61d3c4775dafb8dce522aa284cf0220630d47e982de5334c86301f89f75b6179746d356eb0b9dcf50cc9c54536cf3160147304402202690c9a449b78b57ade76123fc5495f993e27a74e3f8c5372b9be0fd6996d47e02201ccf43c083b088ee5b8bfedf975aa19538d7f6c9c9e05b4441681a5d60f5c0b3014752210205524bf509852fc78c3a0b4c0f4e6c978ce0160c45b7776637387071d3ec0f9221027620c5d3bb33b1f38a12561570e4ac804564abd8484304e39fe1c96282182d1e52aeffffffff024b179000000000001976a9142acbe62267354be136d3469f414ccb5ff8c99bd688ac14567b0b0000000017a914fca5e4e9a1c8cbb80695c1873a4390ab9469370f8700000000"
    }, 
    {
      "txid": "55d25f6383ff53de6688ec30c55ac1ca6c4f54ec5b51ac27b5128aa26e5f32dc",
      "hash": "55d25f6383ff53de6688ec30c55ac1ca6c4f54ec5b51ac27b5128aa26e5f32dc",
      "version": 1,
      "size": 372,
      "vsize": 372,
      "locktime": 1357312,
      "vin": [
        {
          "txid": "9262c5532f22c8dbfbe83db144872d4065b425558e43d723d471c6ef928d8c84",
          "vout": 1,
          "scriptSig": {
            "asm": "30440220661e02cf8f6a2af7c6d45c93db8f7265f9ac26b92e1d514fcc3d122774c45fcf0220266447710b40388b09cbee181a57c3f201d4d01cbcb0c2e9b69df48753deafae[ALL] 0365bdf683fdad998542f605bcf32b25433052a027816ce18ecdb2d5687d761939",
            "hex": "4730440220661e02cf8f6a2af7c6d45c93db8f7265f9ac26b92e1d514fcc3d122774c45fcf0220266447710b40388b09cbee181a57c3f201d4d01cbcb0c2e9b69df48753deafae01210365bdf683fdad998542f605bcf32b25433052a027816ce18ecdb2d5687d761939"
          },
          "sequence": 4294967294
        }, 
        {
          "txid": "6cda4fce7790ded0ffefca2380dcf8b501efa913887bbc833949a9057ba352bd",
          "vout": 0,
          "scriptSig": {
            "asm": "304402207aea2c91adc0263e2295e91c18c4f0d692c5f5fb7b170737c339e46ad920cddc02206bc244a6a73e3d2cc592b5a60c3bbe27fe7da33b5e0fe4a868f1cd5d0d5c7c31[ALL] 03e67e4b7c4c5154ef8a3bb3463aff4c0dbee38e3813dac5dcc6ac43be480d3073",
            "hex": "47304402207aea2c91adc0263e2295e91c18c4f0d692c5f5fb7b170737c339e46ad920cddc02206bc244a6a73e3d2cc592b5a60c3bbe27fe7da33b5e0fe4a868f1cd5d0d5c7c31012103e67e4b7c4c5154ef8a3bb3463aff4c0dbee38e3813dac5dcc6ac43be480d3073"
          },
          "sequence": 4294967294
        }
      ],
      "vout": [
        {
          "value": 0.03154100,
          "n": 0,
          "scriptPubKey": {
            "asm": "OP_DUP OP_HASH160 689785d13a7cc2b578aa376c9717addaf9e2a33c OP_EQUALVERIFY OP_CHECKSIG",
            "hex": "76a914689785d13a7cc2b578aa376c9717addaf9e2a33c88ac",
            "reqSigs": 1,
            "type": "pubkeyhash",
            "addresses": [
              "LUkz49U5K8wNwZtzTmJz7fZh7BCX8o8kna"
            ]
          }
        }, 
        {
          "value": 2.11782400,
          "n": 1,
          "scriptPubKey": {
            "asm": "OP_DUP OP_HASH160 06c35ddb309f1d5a944acdd96c8bb78745f06e8b OP_EQUALVERIFY OP_CHECKSIG",
            "hex": "76a91406c35ddb309f1d5a944acdd96c8bb78745f06e8b88ac",
            "reqSigs": 1,
            "type": "pubkeyhash",
            "addresses": [
              "LKqiMg7Pv8W8HHXfFjBNiv1bF8snJALgwX"
            ]
          }
        }
      ],
      "hex": "0100000002848c8d92efc671d423d7438e5525b465402d8744b13de8fbdbc8222f53c56292010000006a4730440220661e02cf8f6a2af7c6d45c93db8f7265f9ac26b92e1d514fcc3d122774c45fcf0220266447710b40388b09cbee181a57c3f201d4d01cbcb0c2e9b69df48753deafae01210365bdf683fdad998542f605bcf32b25433052a027816ce18ecdb2d5687d761939feffffffbd52a37b05a9493983bc7b8813a9ef01b5f8dc8023caefffd0de9077ce4fda6c000000006a47304402207aea2c91adc0263e2295e91c18c4f0d692c5f5fb7b170737c339e46ad920cddc02206bc244a6a73e3d2cc592b5a60c3bbe27fe7da33b5e0fe4a868f1cd5d0d5c7c31012103e67e4b7c4c5154ef8a3bb3463aff4c0dbee38e3813dac5dcc6ac43be480d3073feffffff02b4203000000000001976a914689785d13a7cc2b578aa376c9717addaf9e2a33c88ac008b9f0c000000001976a91406c35ddb309f1d5a944acdd96c8bb78745f06e8b88ac00b61400"
    }, 
    {
      "txid": "3e46f2d8f12253875fd07d27b25f3b3bc759abf767084acaa07aa8bec40c6a13",
      "hash": "3e46f2d8f12253875fd07d27b25f3b3bc759abf767084acaa07aa8bec40c6a13",
      "version": 1,
      "size": 225,
      "vsize": 225,
      "locktime": 0,
      "vin": [
        {
          "txid": "b60758adca118e7888d25c65871dc117af85bfd40a882a0f7fed27833f2464bf",
          "vout": 0,
          "scriptSig": {
            "asm": "30440220230f70318dbde518baae928d6263f9ffef3c29d873927fdcb101b1fd698979a70220129abf3d34844b6fd2a7d37ec076ef392227127657b69e87ea9a0d6ef3476c3c[ALL] 02a0686bfa5168c20a355a6f6ff553059b8ab3449edfbe4d8818232d3b11f0b933",
            "hex": "4730440220230f70318dbde518baae928d6263f9ffef3c29d873927fdcb101b1fd698979a70220129abf3d34844b6fd2a7d37ec076ef392227127657b69e87ea9a0d6ef3476c3c012102a0686bfa5168c20a355a6f6ff553059b8ab3449edfbe4d8818232d3b11f0b933"
          },
          "sequence": 4294967295
        }
      ],
      "vout": [
        {
          "value": 45.82676511,
          "n": 0,
          "scriptPubKey": {
            "asm": "OP_DUP OP_HASH160 f4414c4aca808bd78d93b404d4d004871e1753b6 OP_EQUALVERIFY OP_CHECKSIG",
            "hex": "76a914f4414c4aca808bd78d93b404d4d004871e1753b688ac",
            "reqSigs": 1,
            "type": "pubkeyhash",
            "addresses": [
              "LhVTN1GDoLBhjt4mCRphEF7eWRQDa6az4x"
            ]
          }
        }, 
        {
          "value": 37.22919608,
          "n": 1,
          "scriptPubKey": {
            "asm": "OP_DUP OP_HASH160 34c8fcf16e79d20861816894fc3742a47c8190ec OP_EQUALVERIFY OP_CHECKSIG",
            "hex": "76a91434c8fcf16e79d20861816894fc3742a47c8190ec88ac",
            "reqSigs": 1,
            "type": "pubkeyhash",
            "addresses": [
              "LQ34B5neekEzxLi7uSXJZ3AmuWKjmThtX4"
            ]
          }
        }
      ],
      "hex": "0100000001bf64243f8327ed7f0f2a880ad4bf85af17c11d87655cd288788e11caad5807b6000000006a4730440220230f70318dbde518baae928d6263f9ffef3c29d873927fdcb101b1fd698979a70220129abf3d34844b6fd2a7d37ec076ef392227127657b69e87ea9a0d6ef3476c3c012102a0686bfa5168c20a355a6f6ff553059b8ab3449edfbe4d8818232d3b11f0b933ffffffff021f182611010000001976a914f4414c4aca808bd78d93b404d4d004871e1753b688acb83ee7dd000000001976a91434c8fcf16e79d20861816894fc3742a47c8190ec88ac00000000"
    }, 
    {
      "txid": "455de5d09aeab057aee77a1ade9d9f913a45199b7e92369702b7f7332ac21633",
      "hash": "455de5d09aeab057aee77a1ade9d9f913a45199b7e92369702b7f7332ac21633",
      "version": 2,
      "size": 225,
      "vsize": 225,
      "locktime": 1357312,
      "vin": [
        {
          "txid": "41d0a5820e9184fc280de4494ed8215eb57fff319ec221852ae1d981e3f682ab",
          "vout": 1,
          "scriptSig": {
            "asm": "304402206837263b7711b7170ccf2dea4158ff13bdcd55e5dc148b116ff834f10d921b780220180bb9b0350c8ae4c88957f300e07170d756852fd8e689ebd5f0b8d8386563b6[ALL] 030d89bfeef39770a0b3e2d6992a843950e504fa3627404d1ed65a60c8231ce96e",
            "hex": "47304402206837263b7711b7170ccf2dea4158ff13bdcd55e5dc148b116ff834f10d921b780220180bb9b0350c8ae4c88957f300e07170d756852fd8e689ebd5f0b8d8386563b60121030d89bfeef39770a0b3e2d6992a843950e504fa3627404d1ed65a60c8231ce96e"
          },
          "sequence": 4294967294
        }
      ],
      "vout": [
        {
          "value": 1.24857400,
          "n": 0,
          "scriptPubKey": {
            "asm": "OP_DUP OP_HASH160 b071d0b9c6575c24de0fdfedcf52d4331ac61d74 OP_EQUALVERIFY OP_CHECKSIG",
            "hex": "76a914b071d0b9c6575c24de0fdfedcf52d4331ac61d7488ac",
            "reqSigs": 1,
            "type": "pubkeyhash",
            "addresses": [
              "LbJuY19DWCPwGFiWfUvAAp8s3vPmZbMV7C"
            ]
          }
        }, 
        {
          "value": 0.10120000,
          "n": 1,
          "scriptPubKey": {
            "asm": "OP_DUP OP_HASH160 b9d07a31ca048f7afb88532956758ab11983a0b7 OP_EQUALVERIFY OP_CHECKSIG",
            "hex": "76a914b9d07a31ca048f7afb88532956758ab11983a0b788ac",
            "reqSigs": 1,
            "type": "pubkeyhash",
            "addresses": [
              "LcAT1xdTzJAC8w4uwg4KUqqmQCfsgkpVFh"
            ]
          }
        }
      ],
      "hex": "0200000001ab82f6e381d9e12a8521c29e31ff7fb55e21d84e49e40d28fc84910e82a5d041010000006a47304402206837263b7711b7170ccf2dea4158ff13bdcd55e5dc148b116ff834f10d921b780220180bb9b0350c8ae4c88957f300e07170d756852fd8e689ebd5f0b8d8386563b60121030d89bfeef39770a0b3e2d6992a843950e504fa3627404d1ed65a60c8231ce96efeffffff02382c7107000000001976a914b071d0b9c6575c24de0fdfedcf52d4331ac61d7488ac406b9a00000000001976a914b9d07a31ca048f7afb88532956758ab11983a0b788ac00b61400"
    }, 
    {
      "txid": "1df9a13f760d275d336245d9859c661d4046fdaaf1c6f626d4ad751819e54690",
      "hash": "1df9a13f760d275d336245d9859c661d4046fdaaf1c6f626d4ad751819e54690",
      "version": 1,
      "size": 225,
      "vsize": 225,
      "locktime": 0,
      "vin": [
        {
          "txid": "4af6b59a312b3e3ffa1769e41f219a02fd3eb1e5cf953a26a568796e8aa6439c",
          "vout": 0,
          "scriptSig": {
            "asm": "30440220385e785c66d98940c6f98007fef596e07ccbc2b9eb8b5f242a2b41f772cf894202204f816c8753f5270aa9df354c171471f7d8e739daae275c25bd67b63d17fd2b68[ALL] 02cbdec9e49bca44fcf37131f297ecfbb1a561a754d7422edb91e7ab46ff2413b4",
            "hex": "4730440220385e785c66d98940c6f98007fef596e07ccbc2b9eb8b5f242a2b41f772cf894202204f816c8753f5270aa9df354c171471f7d8e739daae275c25bd67b63d17fd2b68012102cbdec9e49bca44fcf37131f297ecfbb1a561a754d7422edb91e7ab46ff2413b4"
          },
          "sequence": 4294967295
        }
      ],
      "vout": [
        {
          "value": 1.00000000,
          "n": 0,
          "scriptPubKey": {
            "asm": "OP_DUP OP_HASH160 4d89e783baa40e751f097a981c15917cdf8130ce OP_EQUALVERIFY OP_CHECKSIG",
            "hex": "76a9144d89e783baa40e751f097a981c15917cdf8130ce88ac",
            "reqSigs": 1,
            "type": "pubkeyhash",
            "addresses": [
              "LSHwVkFGARa9E23mnVJm8ZL5nRjAscz2HJ"
            ]
          }
        }, 
        {
          "value": 79.78998819,
          "n": 1,
          "scriptPubKey": {
            "asm": "OP_DUP OP_HASH160 4a8f0d4f63dbacc128d5d585f40ebb404392e2ce OP_EQUALVERIFY OP_CHECKSIG",
            "hex": "76a9144a8f0d4f63dbacc128d5d585f40ebb404392e2ce88ac",
            "reqSigs": 1,
            "type": "pubkeyhash",
            "addresses": [
              "LS2BdqPk1NhtVrKKHycM4d6TKNpNF1iDjn"
            ]
          }
        }
      ],
      "hex": "01000000019c43a68a6e7968a5263a95cfe5b13efd029a211fe46917fa3f3e2b319ab5f64a000000006a4730440220385e785c66d98940c6f98007fef596e07ccbc2b9eb8b5f242a2b41f772cf894202204f816c8753f5270aa9df354c171471f7d8e739daae275c25bd67b63d17fd2b68012102cbdec9e49bca44fcf37131f297ecfbb1a561a754d7422edb91e7ab46ff2413b4ffffffff0200e1f505000000001976a9144d89e783baa40e751f097a981c15917cdf8130ce88ac23dc95db010000001976a9144a8f0d4f63dbacc128d5d585f40ebb404392e2ce88ac00000000"
    }, 
    {
      "txid": "fe5468634228ce1f3c02bdc53c46961e843cd355d2fa11aed618cd160c60afa5",
      "hash": "fe5468634228ce1f3c02bdc53c46961e843cd355d2fa11aed618cd160c60afa5",
      "version": 1,
      "size": 225,
      "vsize": 225,
      "locktime": 0,
      "vin": [
        {
          "txid": "4e60ba8aeda10825ed8d98fcb830d47f84e5d9d52a91b380113888083f99bd6c",
          "vout": 0,
          "scriptSig": {
            "asm": "304402202bf770251fc41df9fd7c22d806a145f1578d1353c06113b6299274dc40b13c5d02206153381837022626f12dbc674d4ba7296c4c9449d9630fcd31ca4f32569e85e4[ALL] 0346a9117e9f23784796b572ed251a484566dcdfd7b879a599b445a989ae43a975",
            "hex": "47304402202bf770251fc41df9fd7c22d806a145f1578d1353c06113b6299274dc40b13c5d02206153381837022626f12dbc674d4ba7296c4c9449d9630fcd31ca4f32569e85e401210346a9117e9f23784796b572ed251a484566dcdfd7b879a599b445a989ae43a975"
          },
          "sequence": 4294967295
        }
      ],
      "vout": [
        {
          "value": 55.22516435,
          "n": 0,
          "scriptPubKey": {
            "asm": "OP_DUP OP_HASH160 6b396daf55a58b722c10593cc9573f73920b5e6a OP_EQUALVERIFY OP_CHECKSIG",
            "hex": "76a9146b396daf55a58b722c10593cc9573f73920b5e6a88ac",
            "reqSigs": 1,
            "type": "pubkeyhash",
            "addresses": [
              "LUzuMwMeUHWVLyHXA6nvD7rThqSXJa1Lc9"
            ]
          }
        }, 
        {
          "value": 25.84537113,
          "n": 1,
          "scriptPubKey": {
            "asm": "OP_DUP OP_HASH160 d125c683db97b0f2fcb5f084131b5e928a0084c9 OP_EQUALVERIFY OP_CHECKSIG",
            "hex": "76a914d125c683db97b0f2fcb5f084131b5e928a0084c988ac",
            "reqSigs": 1,
            "type": "pubkeyhash",
            "addresses": [
              "LeHpjzMzVK7i8EPFZhN7S7rsnvHUb2QjWc"
            ]
          }
        }
      ],
      "hex": "01000000016cbd993f0888381180b3912ad5d9e5847fd430b8fc988ded2508a1ed8aba604e000000006a47304402202bf770251fc41df9fd7c22d806a145f1578d1353c06113b6299274dc40b13c5d02206153381837022626f12dbc674d4ba7296c4c9449d9630fcd31ca4f32569e85e401210346a9117e9f23784796b572ed251a484566dcdfd7b879a599b445a989ae43a975ffffffff02d3e92a49010000001976a9146b396daf55a58b722c10593cc9573f73920b5e6a88ac19e80c9a000000001976a914d125c683db97b0f2fcb5f084131b5e928a0084c988ac00000000"
    }, 
    {
      "txid": "31ca3c5e5c494eb4455c0527016f454ee2aeef8ad5295f2ff459ccb46ac0e62a",
      "hash": "31ca3c5e5c494eb4455c0527016f454ee2aeef8ad5295f2ff459ccb46ac0e62a",
      "version": 2,
      "size": 374,
      "vsize": 374,
      "locktime": 1357312,
      "vin": [
        {
          "txid": "c82434e5be13a11da5ba39a159b8181c0bce144725b08debd8161bb6c08299f6",
          "vout": 0,
          "scriptSig": {
            "asm": "3045022100e1f7c41991e915e95e4c0a2ce71ad219d80ce577ed289231413a8de3dd538a69022042523e64f8a3007a9867c7d4bbdf2361f115869ec301bcf538c4ffc744794fc5[ALL] 02eba61ecf0dc6f615802e38dcb174f76e9897927c065a1e9ace2587f981156885",
            "hex": "483045022100e1f7c41991e915e95e4c0a2ce71ad219d80ce577ed289231413a8de3dd538a69022042523e64f8a3007a9867c7d4bbdf2361f115869ec301bcf538c4ffc744794fc5012102eba61ecf0dc6f615802e38dcb174f76e9897927c065a1e9ace2587f981156885"
          },
          "sequence": 4294967294
        }, 
        {
          "txid": "5d7a3184fc6502935d3cb8aa98f8469e0c45de61641dd334d3a6dc4500d03f8e",
          "vout": 1,
          "scriptSig": {
            "asm": "30450221008e1b4b5e117008d7737b8429a88f2929763f8336826e2f8a0920485e1ecaa68b02203dc59dc6323b9772555846090d54d891d0fd650070920c573d81b6cebedafcef[ALL] 02e8351d93c35a5ea6dcb1ba0b97ebd34c821c6ad06c4433a6769adb7f929d4bdc",
            "hex": "4830450221008e1b4b5e117008d7737b8429a88f2929763f8336826e2f8a0920485e1ecaa68b02203dc59dc6323b9772555846090d54d891d0fd650070920c573d81b6cebedafcef012102e8351d93c35a5ea6dcb1ba0b97ebd34c821c6ad06c4433a6769adb7f929d4bdc"
          },
          "sequence": 4294967294
        }
      ],
      "vout": [
        {
          "value": 1.27002014,
          "n": 0,
          "scriptPubKey": {
            "asm": "OP_DUP OP_HASH160 95d3b5a33b971a2d59c15cba1a972fe45ef35587 OP_EQUALVERIFY OP_CHECKSIG",
            "hex": "76a91495d3b5a33b971a2d59c15cba1a972fe45ef3558788ac",
            "reqSigs": 1,
            "type": "pubkeyhash",
            "addresses": [
              "LYtAZdZf4iuwx9e2yWY6HmUYcqP3AaTDUZ"
            ]
          }
        }, 
        {
          "value": 0.34960586,
          "n": 1,
          "scriptPubKey": {
            "asm": "OP_DUP OP_HASH160 6ef03a19ee24c63c9c1bde400cc655cff1a063cf OP_EQUALVERIFY OP_CHECKSIG",
            "hex": "76a9146ef03a19ee24c63c9c1bde400cc655cff1a063cf88ac",
            "reqSigs": 1,
            "type": "pubkeyhash",
            "addresses": [
              "LVLYNaN22kJ6wRJYA2KqzKYUKESNy1oo9M"
            ]
          }
        }
      ],
      "hex": "0200000002f69982c0b61b16d8eb8db0254714ce0b1c18b859a139baa51da113bee53424c8000000006b483045022100e1f7c41991e915e95e4c0a2ce71ad219d80ce577ed289231413a8de3dd538a69022042523e64f8a3007a9867c7d4bbdf2361f115869ec301bcf538c4ffc744794fc5012102eba61ecf0dc6f615802e38dcb174f76e9897927c065a1e9ace2587f981156885feffffff8e3fd00045dca6d334d31d6461de450c9e46f898aab83c5d930265fc84317a5d010000006b4830450221008e1b4b5e117008d7737b8429a88f2929763f8336826e2f8a0920485e1ecaa68b02203dc59dc6323b9772555846090d54d891d0fd650070920c573d81b6cebedafcef012102e8351d93c35a5ea6dcb1ba0b97ebd34c821c6ad06c4433a6769adb7f929d4bdcfeffffff029ee59107000000001976a91495d3b5a33b971a2d59c15cba1a972fe45ef3558788acca741502000000001976a9146ef03a19ee24c63c9c1bde400cc655cff1a063cf88ac00b61400"
    }, 
    {
      "txid": "fbcc7fd02ba26235c0ab2ba623ee3ab7d13078bd5afe586589900f3efe8fdd77",
      "hash": "fbcc7fd02ba26235c0ab2ba623ee3ab7d13078bd5afe586589900f3efe8fdd77",
      "version": 2,
      "size": 226,
      "vsize": 226,
      "locktime": 1357312,
      "vin": [
        {
          "txid": "a197d0d3a533ca722578b5c4ff361746473eb058ac2570c113a3702fbad4709f",
          "vout": 0,
          "scriptSig": {
            "asm": "3045022100f9a3d81bf7c309b7254056ed0f4597419cc6ab301305686d83d31980b130871402205175af2ccc6409b14acfc265ab422803ef75013253ccb9bb417387bab6adec70[ALL] 024ca8c4a070b3a4614f35e414626176b5918e52fecf1b9f5374be917ab1ae5735",
            "hex": "483045022100f9a3d81bf7c309b7254056ed0f4597419cc6ab301305686d83d31980b130871402205175af2ccc6409b14acfc265ab422803ef75013253ccb9bb417387bab6adec700121024ca8c4a070b3a4614f35e414626176b5918e52fecf1b9f5374be917ab1ae5735"
          },
          "sequence": 4294967294
        }
      ],
      "vout": [
        {
          "value": 1.47164981,
          "n": 0,
          "scriptPubKey": {
            "asm": "OP_DUP OP_HASH160 c5c144948677256148ae645eefb5cef089c392c9 OP_EQUALVERIFY OP_CHECKSIG",
            "hex": "76a914c5c144948677256148ae645eefb5cef089c392c988ac",
            "reqSigs": 1,
            "type": "pubkeyhash",
            "addresses": [
              "LdFauVViYbsEX5eXEBJi8tQVPncYUsyvGm"
            ]
          }
        }, 
        {
          "value": 0.52812419,
          "n": 1,
          "scriptPubKey": {
            "asm": "OP_DUP OP_HASH160 af99a7713b95d0e00fc0b9bfb4582c7bff0e89b2 OP_EQUALVERIFY OP_CHECKSIG",
            "hex": "76a914af99a7713b95d0e00fc0b9bfb4582c7bff0e89b288ac",
            "reqSigs": 1,
            "type": "pubkeyhash",
            "addresses": [
              "LbESarZnq9afM8Cht2A4JZwxmnQDqtdFkR"
            ]
          }
        }
      ],
      "hex": "02000000019f70d4ba2f70a313c17025ac58b03e47461736ffc4b5782572ca33a5d3d097a1000000006b483045022100f9a3d81bf7c309b7254056ed0f4597419cc6ab301305686d83d31980b130871402205175af2ccc6409b14acfc265ab422803ef75013253ccb9bb417387bab6adec700121024ca8c4a070b3a4614f35e414626176b5918e52fecf1b9f5374be917ab1ae5735feffffff02358fc508000000001976a914c5c144948677256148ae645eefb5cef089c392c988ac83da2503000000001976a914af99a7713b95d0e00fc0b9bfb4582c7bff0e89b288ac00b61400"
    }, 
    {
      "txid": "3f9c09792c20d3f38d9cae3b647dabcd5f5a218c1ff599316d7f672c49b01e7a",
      "hash": "3f9c09792c20d3f38d9cae3b647dabcd5f5a218c1ff599316d7f672c49b01e7a",
      "version": 2,
      "size": 224,
      "vsize": 224,
      "locktime": 1357312,
      "vin": [
        {
          "txid": "28422f156af913ecc41253297a84ee63e39ddf52b2b283d24c998a97fd8bc8ce",
          "vout": 1,
          "scriptSig": {
            "asm": "3045022100bc526068dea5bf20fd9f892993fc151e1f4d4932867169d3403b9a49002d249b02202a65aa65db420b8cd68acda9d251c6da00f5a84b9b2287ce7feeb20f893f990a[ALL] 03c6f8c65d29b7cd7647149b9b9ee74a729385a13a64c0701be8642e5f73ecf6fa",
            "hex": "483045022100bc526068dea5bf20fd9f892993fc151e1f4d4932867169d3403b9a49002d249b02202a65aa65db420b8cd68acda9d251c6da00f5a84b9b2287ce7feeb20f893f990a012103c6f8c65d29b7cd7647149b9b9ee74a729385a13a64c0701be8642e5f73ecf6fa"
          },
          "sequence": 4294967294
        }
      ],
      "vout": [
        {
          "value": 0.33798617,
          "n": 0,
          "scriptPubKey": {
            "asm": "OP_HASH160 c89973508f65725fa0cb831ec89bb411eecad969 OP_EQUAL",
            "hex": "a914c89973508f65725fa0cb831ec89bb411eecad96987",
            "reqSigs": 1,
            "type": "scripthash",
            "addresses": [
              "MSBqCijPmoXu4ZvQrmmvSKVF4BrUPXH9mv"
            ]
          }
        }, 
        {
          "value": 11.67580883,
          "n": 1,
          "scriptPubKey": {
            "asm": "OP_DUP OP_HASH160 0f6a3ca279b47322c17cce927d83b50847b5f46e OP_EQUALVERIFY OP_CHECKSIG",
            "hex": "76a9140f6a3ca279b47322c17cce927d83b50847b5f46e88ac",
            "reqSigs": 1,
            "type": "pubkeyhash",
            "addresses": [
              "LLdTfZELB7KKA4RUVrH47vDqiN1ceFu2Su"
            ]
          }
        }
      ],
      "hex": "0200000001cec88bfd978a994cd283b2b252df9de363ee847a295312c4ec13f96a152f4228010000006b483045022100bc526068dea5bf20fd9f892993fc151e1f4d4932867169d3403b9a49002d249b02202a65aa65db420b8cd68acda9d251c6da00f5a84b9b2287ce7feeb20f893f990a012103c6f8c65d29b7cd7647149b9b9ee74a729385a13a64c0701be8642e5f73ecf6fafeffffff02d9b903020000000017a914c89973508f65725fa0cb831ec89bb411eecad96987d3de9745000000001976a9140f6a3ca279b47322c17cce927d83b50847b5f46e88ac00b61400"
    }, 
    {
      "txid": "659ec25d723dbf9e7aa3d49a55e7458932973233f019377c3ce6545bccdb87d2",
      "hash": "659ec25d723dbf9e7aa3d49a55e7458932973233f019377c3ce6545bccdb87d2",
      "version": 1,
      "size": 226,
      "vsize": 226,
      "locktime": 0,
      "vin": [
        {
          "txid": "b3deb4a0efe9b9865a8e31b61cca3faf6de18ccd51238dc957d38cfb21928c9e",
          "vout": 0,
          "scriptSig": {
            "asm": "3045022100e43e58edaa663e68707e2dbbed20b336623e0fed4a96cb4e575746b0429219c802204accafbb432ecce9f6e98c275139124918dbff07e30961370f26a707aa03100d[ALL] 033afe20f956bc1fe5da78a936c8cd69217dc39581b8da76b3175587ea0fd0d924",
            "hex": "483045022100e43e58edaa663e68707e2dbbed20b336623e0fed4a96cb4e575746b0429219c802204accafbb432ecce9f6e98c275139124918dbff07e30961370f26a707aa03100d0121033afe20f956bc1fe5da78a936c8cd69217dc39581b8da76b3175587ea0fd0d924"
          },
          "sequence": 4294967295
        }
      ],
      "vout": [
        {
          "value": 5.19977400,
          "n": 0,
          "scriptPubKey": {
            "asm": "OP_DUP OP_HASH160 3e779a0819c3f71fcb974c868e408480ece02a20 OP_EQUALVERIFY OP_CHECKSIG",
            "hex": "76a9143e779a0819c3f71fcb974c868e408480ece02a2088ac",
            "reqSigs": 1,
            "type": "pubkeyhash",
            "addresses": [
              "LQvFSBEosedMKAcNAHjKT3tALpzLLnAjL1"
            ]
          }
        }, 
        {
          "value": 77.19581000,
          "n": 1,
          "scriptPubKey": {
            "asm": "OP_DUP OP_HASH160 09d3e1cf433c4e54cf3663584e8a02a26343ab7a OP_EQUALVERIFY OP_CHECKSIG",
            "hex": "76a91409d3e1cf433c4e54cf3663584e8a02a26343ab7a88ac",
            "reqSigs": 1,
            "type": "pubkeyhash",
            "addresses": [
              "LL7vAmFQanYtZrJ2fBAzY8SJ2qXnGd51ba"
            ]
          }
        }
      ],
      "hex": "01000000019e8c9221fb8cd357c98d2351cd8ce16daf3fca1cb6318e5a86b9e9efa0b4deb3000000006b483045022100e43e58edaa663e68707e2dbbed20b336623e0fed4a96cb4e575746b0429219c802204accafbb432ecce9f6e98c275139124918dbff07e30961370f26a707aa03100d0121033afe20f956bc1fe5da78a936c8cd69217dc39581b8da76b3175587ea0fd0d924ffffffff02b839fe1e000000001976a9143e779a0819c3f71fcb974c868e408480ece02a2088ac48751fcc010000001976a91409d3e1cf433c4e54cf3663584e8a02a26343ab7a88ac00000000"
    }
  ],
  "time": 1516987695,
  "mediantime": 1516986483,
  "nonce": 837935655,
  "bits": "1a047f14",
  "difficulty": 3731199.183374282,
  "chainwork": "0000000000000000000000000000000000000000000000321df137a93b23434e",
  "previousblockhash": "bc8a06525ec5b6b656d905b282c27ea996903f090d28db91202b8c75f25389d2",
  "nextblockhash": "cd21d08b6e9372f7eb8a58f349931cda657ce1e85b0c2acf2534c47d85c71fc7"
}
