{
  "hash": "66c000e3a79ca5a41a48c8ce629a52e7499534ca0dc72f728ae5cefa9e8813cd",
  "confirmations": 3227,
  "strippedsize": 4021,
  "size": 4279,
  "weight": 16342,
  "height": 1357768,
  "version": 536870912,
  "versionHex": "20000000",
  "merkleroot": "0799d5441af38bc8c09d76f00dc6c6c955ed2608075287c31edb32eef6f9abca",
  "tx": [
    {
      "txid": "39e8cd5722b6ae4216449010b4564187ccb079ab52826ffae758bce1e3d975a9",
      "hash": "f7ad4c823d46f58610a1524f27b8453c5bec1300be3d2a851b01da7bda4a5bf7",
      "version": 1,
      "size": 236,
      "vsize": 209,
      "locktime": 0,
      "vin": [
        {
          "coinbase": "03c8b714045a6c48c62cfabe6d6dba80c17da0ecddc94c64d02076999a9185ccb9e3462b9654c7176d72e5e1c94f4000000000000000042f4c502f081600aaac4f000000",
          "sequence": 4294967295
        }
      ],
      "vout": [
        {
          "value": 25.01922500,
          "n": 0,
          "scriptPubKey": {
            "asm": "OP_DUP OP_HASH160 57757ed2ecf2052ff3126c397aca7defb9ca2cec OP_EQUALVERIFY OP_CHECKSIG",
            "hex": "76a91457757ed2ecf2052ff3126c397aca7defb9ca2cec88ac",
            "reqSigs": 1,
            "type": "pubkeyhash",
            "addresses": [
              "LTCPodGk5FwcJaRzH9yKnwicxzFUbxp6tN"
            ]
          }
        }, 
        {
          "value": 0.00000000,
          "n": 1,
          "scriptPubKey": {
            "asm": "OP_RETURN aa21a9ed3ab33e39c9b63e9cccbd99a2970685eb2afb607100a73ac777d3e6f1feb8bf01",
            "hex": "6a24aa21a9ed3ab33e39c9b63e9cccbd99a2970685eb2afb607100a73ac777d3e6f1feb8bf01",
            "type": "nulldata"
          }
        }
      ],
      "hex": "010000000001010000000000000000000000000000000000000000000000000000000000000000ffffffff4403c8b714045a6c48c62cfabe6d6dba80c17da0ecddc94c64d02076999a9185ccb9e3462b9654c7176d72e5e1c94f4000000000000000042f4c502f081600aaac4f000000ffffffff02c44e2095000000001976a91457757ed2ecf2052ff3126c397aca7defb9ca2cec88ac0000000000000000266a24aa21a9ed3ab33e39c9b63e9cccbd99a2970685eb2afb607100a73ac777d3e6f1feb8bf010120000000000000000000000000000000000000000000000000000000000000000000000000"
    }, 
    {
      "txid": "6eb274ec7321f5edf1c616bb2a79961b872fac52d09890fd56b59098d5487957",
      "hash": "6eb274ec7321f5edf1c616bb2a79961b872fac52d09890fd56b59098d5487957",
      "version": 1,
      "size": 226,
      "vsize": 226,
      "locktime": 0,
      "vin": [
        {
          "txid": "3eeb9c6612b31a85aa809f5a26a0c8eaddcdff1eac9519c6458c0369bf7edbc5",
          "vout": 1,
          "scriptSig": {
            "asm": "3045022100c2f5cfe6ab7c2595b22c041c6971d1f4c87614c4f3fd69d7b64f3181c1952df602200970bf0d48b2557bb861dedd0b960224829106df502250e8d1ca47e43ac820e8[ALL] 03045557468cb480ae3fdf7b18f7869def61be4e141fdfcba7f53ba667d2007c9a",
            "hex": "483045022100c2f5cfe6ab7c2595b22c041c6971d1f4c87614c4f3fd69d7b64f3181c1952df602200970bf0d48b2557bb861dedd0b960224829106df502250e8d1ca47e43ac820e8012103045557468cb480ae3fdf7b18f7869def61be4e141fdfcba7f53ba667d2007c9a"
          },
          "sequence": 4294967295
        }
      ],
      "vout": [
        {
          "value": 3.26788077,
          "n": 0,
          "scriptPubKey": {
            "asm": "OP_DUP OP_HASH160 ff382f6937539a5ef1aa54a467915d8e234539da OP_EQUALVERIFY OP_CHECKSIG",
            "hex": "76a914ff382f6937539a5ef1aa54a467915d8e234539da88ac",
            "reqSigs": 1,
            "type": "pubkeyhash",
            "addresses": [
              "LiVRswp6SYu4RHYV6rUo3Y13yYr25D5asG"
            ]
          }
        }, 
        {
          "value": 53.55661679,
          "n": 1,
          "scriptPubKey": {
            "asm": "OP_DUP OP_HASH160 8c184560f54552e065fe1a43a555ab79bb9fd40b OP_EQUALVERIFY OP_CHECKSIG",
            "hex": "76a9148c184560f54552e065fe1a43a555ab79bb9fd40b88ac",
            "reqSigs": 1,
            "type": "pubkeyhash",
            "addresses": [
              "LXzhwSyYhTxZt4piVs7KvYPAWKDdXvMTNo"
            ]
          }
        }
      ],
      "hex": "0100000001c5db7ebf69038c45c61995ac1effcdddeac8a0265a9f80aa851ab312669ceb3e010000006b483045022100c2f5cfe6ab7c2595b22c041c6971d1f4c87614c4f3fd69d7b64f3181c1952df602200970bf0d48b2557bb861dedd0b960224829106df502250e8d1ca47e43ac820e8012103045557468cb480ae3fdf7b18f7869def61be4e141fdfcba7f53ba667d2007c9affffffff02ed637a13000000001976a914ff382f6937539a5ef1aa54a467915d8e234539da88ac6fe9383f010000001976a9148c184560f54552e065fe1a43a555ab79bb9fd40b88ac00000000"
    }, 
    {
      "txid": "dcca0c7d6dd16267bf1e066d614272f6087673de9cf97ff66608cc1d22733b95",
      "hash": "dcca0c7d6dd16267bf1e066d614272f6087673de9cf97ff66608cc1d22733b95",
      "version": 1,
      "size": 226,
      "vsize": 226,
      "locktime": 0,
      "vin": [
        {
          "txid": "9fca38498da2841a54416a1ac8637d9504df76056672c4f94aeb5b1dec11d9bd",
          "vout": 1,
          "scriptSig": {
            "asm": "3045022100b85c67533a31086ea99f944235740de1544d9843c679b6d94b7db397660f584d02206edb13f327bc0753a57d3744fc028c5cad5d18b02987a0886fd11354156fcfa7[ALL] 03045557468cb480ae3fdf7b18f7869def61be4e141fdfcba7f53ba667d2007c9a",
            "hex": "483045022100b85c67533a31086ea99f944235740de1544d9843c679b6d94b7db397660f584d02206edb13f327bc0753a57d3744fc028c5cad5d18b02987a0886fd11354156fcfa7012103045557468cb480ae3fdf7b18f7869def61be4e141fdfcba7f53ba667d2007c9a"
          },
          "sequence": 4294967295
        }
      ],
      "vout": [
        {
          "value": 0.21437181,
          "n": 0,
          "scriptPubKey": {
            "asm": "OP_DUP OP_HASH160 0edecdff3837f8d2195139211f94f8a3c98f2c07 OP_EQUALVERIFY OP_CHECKSIG",
            "hex": "76a9140edecdff3837f8d2195139211f94f8a3c98f2c0788ac",
            "reqSigs": 1,
            "type": "pubkeyhash",
            "addresses": [
              "LLaade1VhKwTCbxSNNwrKJXqigG8AMiTo4"
            ]
          }
        }, 
        {
          "value": 31.31743860,
          "n": 1,
          "scriptPubKey": {
            "asm": "OP_DUP OP_HASH160 8c184560f54552e065fe1a43a555ab79bb9fd40b OP_EQUALVERIFY OP_CHECKSIG",
            "hex": "76a9148c184560f54552e065fe1a43a555ab79bb9fd40b88ac",
            "reqSigs": 1,
            "type": "pubkeyhash",
            "addresses": [
              "LXzhwSyYhTxZt4piVs7KvYPAWKDdXvMTNo"
            ]
          }
        }
      ],
      "hex": "0100000001bdd911ec1d5beb4af9c472660576df04957d63c81a6a41541a84a28d4938ca9f010000006b483045022100b85c67533a31086ea99f944235740de1544d9843c679b6d94b7db397660f584d02206edb13f327bc0753a57d3744fc028c5cad5d18b02987a0886fd11354156fcfa7012103045557468cb480ae3fdf7b18f7869def61be4e141fdfcba7f53ba667d2007c9affffffff02fd1a4701000000001976a9140edecdff3837f8d2195139211f94f8a3c98f2c0788ac749eaaba000000001976a9148c184560f54552e065fe1a43a555ab79bb9fd40b88ac00000000"
    }, 
    {
      "txid": "d0761130be1759abdaa18046926f545ea3d66a828f31a9779036a8173f8f3543",
      "hash": "d0761130be1759abdaa18046926f545ea3d66a828f31a9779036a8173f8f3543",
      "version": 1,
      "size": 226,
      "vsize": 226,
      "locktime": 0,
      "vin": [
        {
          "txid": "c638113f9104992f7649af7857b432b6ff8d9fe28f0035470a0555aa49008afc",
          "vout": 1,
          "scriptSig": {
            "asm": "3045022100f2e2a4e81ec25e65086da589cf91608eae4cc72937fb774355426916ad0f56a402200216dd620259eb9b51c55d710d90d985124b0b5138426ba9825d80941753c28e[ALL] 03632bda761d6f22810f784d868ad8345f22d188e47e11cf3dde4655dac5931aba",
            "hex": "483045022100f2e2a4e81ec25e65086da589cf91608eae4cc72937fb774355426916ad0f56a402200216dd620259eb9b51c55d710d90d985124b0b5138426ba9825d80941753c28e012103632bda761d6f22810f784d868ad8345f22d188e47e11cf3dde4655dac5931aba"
          },
          "sequence": 4294967295
        }
      ],
      "vout": [
        {
          "value": 0.29604969,
          "n": 0,
          "scriptPubKey": {
            "asm": "OP_DUP OP_HASH160 08d9985a73a13cca52fc4f78387594b4fb64c65d OP_EQUALVERIFY OP_CHECKSIG",
            "hex": "76a91408d9985a73a13cca52fc4f78387594b4fb64c65d88ac",
            "reqSigs": 1,
            "type": "pubkeyhash",
            "addresses": [
              "LL2kLXFSiThF9EghHr8WaeHTrTtMzG3NbH"
            ]
          }
        }, 
        {
          "value": 27.46094134,
          "n": 1,
          "scriptPubKey": {
            "asm": "OP_DUP OP_HASH160 863c80039aa63c6f62d732b0f804e959cceff19f OP_EQUALVERIFY OP_CHECKSIG",
            "hex": "76a914863c80039aa63c6f62d732b0f804e959cceff19f88ac",
            "reqSigs": 1,
            "type": "pubkeyhash",
            "addresses": [
              "LXTjHY2hbRmNTCN1ywGU2e52AYGRkSvrmh"
            ]
          }
        }
      ],
      "hex": "0100000001fc8a0049aa55050a4735008fe29f8dffb632b45778af49762f9904913f1138c6010000006b483045022100f2e2a4e81ec25e65086da589cf91608eae4cc72937fb774355426916ad0f56a402200216dd620259eb9b51c55d710d90d985124b0b5138426ba9825d80941753c28e012103632bda761d6f22810f784d868ad8345f22d188e47e11cf3dde4655dac5931abaffffffff0269bcc301000000001976a91408d9985a73a13cca52fc4f78387594b4fb64c65d88ac3612aea3000000001976a914863c80039aa63c6f62d732b0f804e959cceff19f88ac00000000"
    }, 
    {
      "txid": "61add772768593787c7076477c13c1c24a85c88812cbe26c9e9dae431b45e5e4",
      "hash": "61add772768593787c7076477c13c1c24a85c88812cbe26c9e9dae431b45e5e4",
      "version": 1,
      "size": 226,
      "vsize": 226,
      "locktime": 0,
      "vin": [
        {
          "txid": "4ec463cf171b0211f54a120ff6d49f75a76ab946488aea41f827c273b1114926",
          "vout": 1,
          "scriptSig": {
            "asm": "30450221008ae73c811384b75bae2ba017fab45fc0a227f2c0b2dc2bd4e6d109e885bd264902202397a8fe1f98a06ccae6c2719672e4a511979a01df0210a65ea516b7338668b1[ALL] 033dec5d3a0742c088d3a1e5ffea91e25029fd7d3c42d9afcf5c992d3d950bb100",
            "hex": "4830450221008ae73c811384b75bae2ba017fab45fc0a227f2c0b2dc2bd4e6d109e885bd264902202397a8fe1f98a06ccae6c2719672e4a511979a01df0210a65ea516b7338668b10121033dec5d3a0742c088d3a1e5ffea91e25029fd7d3c42d9afcf5c992d3d950bb100"
          },
          "sequence": 4294967295
        }
      ],
      "vout": [
        {
          "value": 0.01002987,
          "n": 0,
          "scriptPubKey": {
            "asm": "OP_DUP OP_HASH160 33d422788eb7e0e7832367acf28d95cd4d7f3d23 OP_EQUALVERIFY OP_CHECKSIG",
            "hex": "76a91433d422788eb7e0e7832367acf28d95cd4d7f3d2388ac",
            "reqSigs": 1,
            "type": "pubkeyhash",
            "addresses": [
              "LPwzrNSEsakguLprnvGsXF2jdamz41tzH8"
            ]
          }
        }, 
        {
          "value": 0.08302756,
          "n": 1,
          "scriptPubKey": {
            "asm": "OP_DUP OP_HASH160 886a77ae2069e6019083e1e2a19c80f207a9e5e9 OP_EQUALVERIFY OP_CHECKSIG",
            "hex": "76a914886a77ae2069e6019083e1e2a19c80f207a9e5e988ac",
            "reqSigs": 1,
            "type": "pubkeyhash",
            "addresses": [
              "LXfFhnystKAAfK6FnRua5HijgPUN4NePKC"
            ]
          }
        }
      ],
      "hex": "0100000001264911b173c227f841ea8a4846b96aa7759fd4f60f124af511021b17cf63c44e010000006b4830450221008ae73c811384b75bae2ba017fab45fc0a227f2c0b2dc2bd4e6d109e885bd264902202397a8fe1f98a06ccae6c2719672e4a511979a01df0210a65ea516b7338668b10121033dec5d3a0742c088d3a1e5ffea91e25029fd7d3c42d9afcf5c992d3d950bb100ffffffff02eb4d0f00000000001976a91433d422788eb7e0e7832367acf28d95cd4d7f3d2388aca4b07e00000000001976a914886a77ae2069e6019083e1e2a19c80f207a9e5e988ac00000000"
    }, 
    {
      "txid": "dab183eab0c41ce2c5481a9bca46e74864283298f4dea4759f8b940ae8a99fd8",
      "hash": "dab183eab0c41ce2c5481a9bca46e74864283298f4dea4759f8b940ae8a99fd8",
      "version": 1,
      "size": 293,
      "vsize": 293,
      "locktime": 0,
      "vin": [
        {
          "txid": "a5cfac64610ab6d0ab4cf9e3ae8b9a3947dac75e355dd8e60b6b02362b281f4a",
          "vout": 1,
          "scriptSig": {
            "asm": "304402204393b226aaf4260cb0140c59128cb8697cf8a1a5e4a62cc47abff173c3ac3972022017725a684b558bc2366be183d0e9fb994a2b8357623e5545b3b01568973b912a[ALL] 038ff3ac5e2db4c74a5e0f23e470c4a5acb455f8edb1e742cdb68cf21dcac4a33b",
            "hex": "47304402204393b226aaf4260cb0140c59128cb8697cf8a1a5e4a62cc47abff173c3ac3972022017725a684b558bc2366be183d0e9fb994a2b8357623e5545b3b01568973b912a0121038ff3ac5e2db4c74a5e0f23e470c4a5acb455f8edb1e742cdb68cf21dcac4a33b"
          },
          "sequence": 4294967295
        }
      ],
      "vout": [
        {
          "value": 0.99760136,
          "n": 0,
          "scriptPubKey": {
            "asm": "OP_DUP OP_HASH160 d9ea53b09b83f0bb09e40acccb10efbcefa432c4 OP_EQUALVERIFY OP_CHECKSIG",
            "hex": "76a914d9ea53b09b83f0bb09e40acccb10efbcefa432c488ac",
            "reqSigs": 1,
            "type": "pubkeyhash",
            "addresses": [
              "Lf6BcAD9SK5xHVGocjqxpNvZChRCz2Be1h"
            ]
          }
        }, 
        {
          "value": 2.92000000,
          "n": 1,
          "scriptPubKey": {
            "asm": "OP_DUP OP_HASH160 5e21e58978b6898282c49269d65893691688d16e OP_EQUALVERIFY OP_CHECKSIG",
            "hex": "76a9145e21e58978b6898282c49269d65893691688d16e88ac",
            "reqSigs": 1,
            "type": "pubkeyhash",
            "addresses": [
              "LTogPRZ3zLSaCr7SfqL5cx3c3R1pei2LEe"
            ]
          }
        }, 
        {
          "value": 6.43155854,
          "n": 2,
          "scriptPubKey": {
            "asm": "OP_DUP OP_HASH160 a3d8334b9523b15e4b439326fff7eaedec585ed6 OP_EQUALVERIFY OP_CHECKSIG",
            "hex": "76a914a3d8334b9523b15e4b439326fff7eaedec585ed688ac",
            "reqSigs": 1,
            "type": "pubkeyhash",
            "addresses": [
              "LaAHQM487D5DqppxWG3dgC8SYUxzto9cTN"
            ]
          }
        }, 
        {
          "value": 0.87860410,
          "n": 3,
          "scriptPubKey": {
            "asm": "OP_DUP OP_HASH160 ddba176bba0bd6174cac054d67736284e5577f4f OP_EQUALVERIFY OP_CHECKSIG",
            "hex": "76a914ddba176bba0bd6174cac054d67736284e5577f4f88ac",
            "reqSigs": 1,
            "type": "pubkeyhash",
            "addresses": [
              "LfSLXUFubThXbHpCJWjR9DqeaRCBd6fTdP"
            ]
          }
        }
      ],
      "hex": "01000000014a1f282b36026b0be6d85d355ec7da47399a8baee3f94cabd0b60a6164accfa5010000006a47304402204393b226aaf4260cb0140c59128cb8697cf8a1a5e4a62cc47abff173c3ac3972022017725a684b558bc2366be183d0e9fb994a2b8357623e5545b3b01568973b912a0121038ff3ac5e2db4c74a5e0f23e470c4a5acb455f8edb1e742cdb68cf21dcac4a33bffffffff040838f205000000001976a914d9ea53b09b83f0bb09e40acccb10efbcefa432c488ac00916711000000001976a9145e21e58978b6898282c49269d65893691688d16e88ac8ec75526000000001976a914a3d8334b9523b15e4b439326fff7eaedec585ed688acbaa43c05000000001976a914ddba176bba0bd6174cac054d67736284e5577f4f88ac00000000"
    }, 
    {
      "txid": "8b2ccfb87aa0b7fb9c650123d7906e473fccd706faa100bf25d6bb7d516834c3",
      "hash": "8b2ccfb87aa0b7fb9c650123d7906e473fccd706faa100bf25d6bb7d516834c3",
      "version": 1,
      "size": 226,
      "vsize": 226,
      "locktime": 0,
      "vin": [
        {
          "txid": "07bcde41c425ce85b4166e21d698a566aca06cf2e4c71aaabe30567e3c3b20f9",
          "vout": 1,
          "scriptSig": {
            "asm": "3045022100bd4a81df2e8ccb6284ad7994289b404956b2cef635e71d7e5d6eb9ad74036911022060df86f6ab713762ed5c26f81efefc8eb01d8e3d4f2d2593593476830374ddb9[ALL] 029ce082553960b5d178463e00225c821b510a1da16180f3c982dbcfadc451081d",
            "hex": "483045022100bd4a81df2e8ccb6284ad7994289b404956b2cef635e71d7e5d6eb9ad74036911022060df86f6ab713762ed5c26f81efefc8eb01d8e3d4f2d2593593476830374ddb90121029ce082553960b5d178463e00225c821b510a1da16180f3c982dbcfadc451081d"
          },
          "sequence": 4294967295
        }
      ],
      "vout": [
        {
          "value": 0.28000000,
          "n": 0,
          "scriptPubKey": {
            "asm": "OP_DUP OP_HASH160 b2e05db9411db857662fc2f52f0bfb0e3118ae71 OP_EQUALVERIFY OP_CHECKSIG",
            "hex": "76a914b2e05db9411db857662fc2f52f0bfb0e3118ae7188ac",
            "reqSigs": 1,
            "type": "pubkeyhash",
            "addresses": [
              "LbXmKb8h4g7PzCrMrviNxMwZ8j9FJvfr1f"
            ]
          }
        }, 
        {
          "value": 1.07900000,
          "n": 1,
          "scriptPubKey": {
            "asm": "OP_DUP OP_HASH160 35629f3afc09afaf2bd731e36532b940b19050fa OP_EQUALVERIFY OP_CHECKSIG",
            "hex": "76a91435629f3afc09afaf2bd731e36532b940b19050fa88ac",
            "reqSigs": 1,
            "type": "pubkeyhash",
            "addresses": [
              "LQ6EDkpPfitd6LWxYwB1EjvFxnk7s8BPEh"
            ]
          }
        }
      ],
      "hex": "0100000001f9203b3c7e5630beaa1ac7e4f26ca0ac66a598d6216e16b485ce25c441debc07010000006b483045022100bd4a81df2e8ccb6284ad7994289b404956b2cef635e71d7e5d6eb9ad74036911022060df86f6ab713762ed5c26f81efefc8eb01d8e3d4f2d2593593476830374ddb90121029ce082553960b5d178463e00225c821b510a1da16180f3c982dbcfadc451081dffffffff02003fab01000000001976a914b2e05db9411db857662fc2f52f0bfb0e3118ae7188ac606c6e06000000001976a91435629f3afc09afaf2bd731e36532b940b19050fa88ac00000000"
    }, 
    {
      "txid": "686df432eeecd5db07e300a27b0f10839515b1b70d50bc551278cd5c846440a1",
      "hash": "686df432eeecd5db07e300a27b0f10839515b1b70d50bc551278cd5c846440a1",
      "version": 1,
      "size": 440,
      "vsize": 440,
      "locktime": 0,
      "vin": [
        {
          "txid": "aefb656758fdcf944e61edce709a9772b458095b233ccdf35f5346d86e74d837",
          "vout": 0,
          "scriptSig": {
            "asm": "30440220524930eeba1defaffe7ad63efc5e81598bd9c372b7901e3c23cec9ad3eef647002207cf61ba9fe3c1e56a18b6697a58f629f10ef451534090c70162b221fb993130d[ALL] 039762aeac7f2dfa57183ab23600f5107f0cc2007a223bbea994de8e876041974f",
            "hex": "4730440220524930eeba1defaffe7ad63efc5e81598bd9c372b7901e3c23cec9ad3eef647002207cf61ba9fe3c1e56a18b6697a58f629f10ef451534090c70162b221fb993130d0121039762aeac7f2dfa57183ab23600f5107f0cc2007a223bbea994de8e876041974f"
          },
          "sequence": 4294967295
        }, 
        {
          "txid": "54ff540fb382afbab6bcf40ac99c5d2c9d106252a775232d72952f5e33a501df",
          "vout": 0,
          "scriptSig": {
            "asm": "304402205f282ea2bd5630b802e9154b3d129b50cb8d74e254410aec4383bc94f1c2a5b102207f2dacd604744b4823d9f6b6d159ea1ecc18d5d0f13cb23204670346f481943f[ALL] 039762aeac7f2dfa57183ab23600f5107f0cc2007a223bbea994de8e876041974f",
            "hex": "47304402205f282ea2bd5630b802e9154b3d129b50cb8d74e254410aec4383bc94f1c2a5b102207f2dacd604744b4823d9f6b6d159ea1ecc18d5d0f13cb23204670346f481943f0121039762aeac7f2dfa57183ab23600f5107f0cc2007a223bbea994de8e876041974f"
          },
          "sequence": 4294967295
        }
      ],
      "vout": [
        {
          "value": 0.06900000,
          "n": 0,
          "scriptPubKey": {
            "asm": "OP_DUP OP_HASH160 579cb34b423e19f3098064b0cecb02d8f2c15ab0 OP_EQUALVERIFY OP_CHECKSIG",
            "hex": "76a914579cb34b423e19f3098064b0cecb02d8f2c15ab088ac",
            "reqSigs": 1,
            "type": "pubkeyhash",
            "addresses": [
              "LTDCmdmBkECkV8y8QdJrWbm5XyaWdP9mrS"
            ]
          }
        }, 
        {
          "value": 5.11302969,
          "n": 1,
          "scriptPubKey": {
            "asm": "OP_DUP OP_HASH160 0d90701d9e691293db2176436bf09d2dd21c2325 OP_EQUALVERIFY OP_CHECKSIG",
            "hex": "76a9140d90701d9e691293db2176436bf09d2dd21c232588ac",
            "reqSigs": 1,
            "type": "pubkeyhash",
            "addresses": [
              "LLTg5RzKMVZLUHGSV3nuSogvofY9pDYw2f"
            ]
          }
        }, 
        {
          "value": 2.66423062,
          "n": 2,
          "scriptPubKey": {
            "asm": "OP_DUP OP_HASH160 8054d8d8dd6bce91125bcfe8bbb473f54afcdc60 OP_EQUALVERIFY OP_CHECKSIG",
            "hex": "76a9148054d8d8dd6bce91125bcfe8bbb473f54afcdc6088ac",
            "reqSigs": 1,
            "type": "pubkeyhash",
            "addresses": [
              "LWvWQ3XMoipFsAqE1EZPQFUovLea7DC1ef"
            ]
          }
        }, 
        {
          "value": 0.22000000,
          "n": 3,
          "scriptPubKey": {
            "asm": "OP_DUP OP_HASH160 189a1e79683f5c865ac7e922f302fe52cde83881 OP_EQUALVERIFY OP_CHECKSIG",
            "hex": "76a914189a1e79683f5c865ac7e922f302fe52cde8388188ac",
            "reqSigs": 1,
            "type": "pubkeyhash",
            "addresses": [
              "LMU37CJAeZboxx2FckwG9rYTXH1478RDJ7"
            ]
          }
        }
      ],
      "hex": "010000000237d8746ed846535ff3cd3c235b0958b472979a70ceed614e94cffd586765fbae000000006a4730440220524930eeba1defaffe7ad63efc5e81598bd9c372b7901e3c23cec9ad3eef647002207cf61ba9fe3c1e56a18b6697a58f629f10ef451534090c70162b221fb993130d0121039762aeac7f2dfa57183ab23600f5107f0cc2007a223bbea994de8e876041974fffffffffdf01a5335e2f95722d2375a75262109d2c5d9cc90af4bcb6baaf82b30f54ff54000000006a47304402205f282ea2bd5630b802e9154b3d129b50cb8d74e254410aec4383bc94f1c2a5b102207f2dacd604744b4823d9f6b6d159ea1ecc18d5d0f13cb23204670346f481943f0121039762aeac7f2dfa57183ab23600f5107f0cc2007a223bbea994de8e876041974fffffffff0420496900000000001976a914579cb34b423e19f3098064b0cecb02d8f2c15ab088ac39dd791e000000001976a9140d90701d9e691293db2176436bf09d2dd21c232588ac164be10f000000001976a9148054d8d8dd6bce91125bcfe8bbb473f54afcdc6088ac80b14f01000000001976a914189a1e79683f5c865ac7e922f302fe52cde8388188ac00000000"
    }, 
    {
      "txid": "29576f84082a32047cc049dea49ec466bdb6f8c110b1a2a35e0f0b9854daa662",
      "hash": "ef8b331794a8872583cd79a9e27d3f4f65bae1c946f46e34c45b8dbe70f86c07",
      "version": 1,
      "size": 374,
      "vsize": 208,
      "locktime": 0,
      "vin": [
        {
          "txid": "92e801c73e36cbbe3dd91dc69139d084647716f8b6502fc1a4805e48ab684979",
          "vout": 1,
          "scriptSig": {
            "asm": "00207975c3f0d1bf8b6205e1c664d703c93d68409676bf17c5e78cdece78bdbf3dbf",
            "hex": "2200207975c3f0d1bf8b6205e1c664d703c93d68409676bf17c5e78cdece78bdbf3dbf"
          },
          "txinwitness": [
            "", 
            "3045022100ef497159d16ca9c80a39a9dcb4872d50a068220e387e54a114e16641ed4956f9022011a4e06c74a3be1a2b8289362f8837d80d889e223f1d361db767f1e5a4b3ca7c01", 
            "3045022100b56a5c1c3be048b5abafd1af20b0442a0a177d3094ebe06a497d5a66f563dd590220180a3286f265b9e70493923ac67b4e42aaa860f0d38fbc8897a0a86a12fcd36001", 
            "522102611be09a0c6a571c8f68adb2481e938888756d93d4ee5b670f08c16e939b7f1a21022cc7a96a72ef014bf078a6489644e2edb05bb216d30b4f28363b637fe4463fd652ae"
          ],
          "sequence": 4294967295
        }
      ],
      "vout": [
        {
          "value": 0.00531800,
          "n": 0,
          "scriptPubKey": {
            "asm": "OP_DUP OP_HASH160 b1dcc5ae52da5c7677e3db19938894be3b405a0d OP_EQUALVERIFY OP_CHECKSIG",
            "hex": "76a914b1dcc5ae52da5c7677e3db19938894be3b405a0d88ac",
            "reqSigs": 1,
            "type": "pubkeyhash",
            "addresses": [
              "LbSQLgqtVXS1Wnm7vGaDe8uUdfenmVDUMp"
            ]
          }
        }, 
        {
          "value": 13.39238812,
          "n": 1,
          "scriptPubKey": {
            "asm": "OP_HASH160 486ce63d83e8406016f310cd321d36bbdd10d412 OP_EQUAL",
            "hex": "a914486ce63d83e8406016f310cd321d36bbdd10d41287",
            "reqSigs": 1,
            "type": "scripthash",
            "addresses": [
              "MEW7Lhk6QzBLmCNp5pmpYzwv1KAcKYsSQp"
            ]
          }
        }
      ],
      "hex": "01000000000101794968ab485e80a4c12f50b6f816776484d03991c61dd93dbecb363ec701e89201000000232200207975c3f0d1bf8b6205e1c664d703c93d68409676bf17c5e78cdece78bdbf3dbfffffffff02581d0800000000001976a914b1dcc5ae52da5c7677e3db19938894be3b405a0d88ac9c29d34f0000000017a914486ce63d83e8406016f310cd321d36bbdd10d412870400483045022100ef497159d16ca9c80a39a9dcb4872d50a068220e387e54a114e16641ed4956f9022011a4e06c74a3be1a2b8289362f8837d80d889e223f1d361db767f1e5a4b3ca7c01483045022100b56a5c1c3be048b5abafd1af20b0442a0a177d3094ebe06a497d5a66f563dd590220180a3286f265b9e70493923ac67b4e42aaa860f0d38fbc8897a0a86a12fcd3600147522102611be09a0c6a571c8f68adb2481e938888756d93d4ee5b670f08c16e939b7f1a21022cc7a96a72ef014bf078a6489644e2edb05bb216d30b4f28363b637fe4463fd652ae00000000"
    }, 
    {
      "txid": "4288d6eade7d93f3bf4d866862d5949917351fdda2695e35b4e2d3eaedfc9015",
      "hash": "4288d6eade7d93f3bf4d866862d5949917351fdda2695e35b4e2d3eaedfc9015",
      "version": 2,
      "size": 372,
      "vsize": 372,
      "locktime": 1357766,
      "vin": [
        {
          "txid": "f3ca2d466888be685f570dae4aaa0481151bc81fac8dc48452ad0814be339470",
          "vout": 0,
          "scriptSig": {
            "asm": "304402206bfd4489114868b85ebbb14797b87409ce7938feefea89b73740191a14731d6102200c47fba7ebf983a79ea6cd33c5227c4dfeac37f20762f84d1ed5154c809b3f7e[ALL] 03efc9e8e776790f7e855132312acfb8cd0fd1071a4d9df5a1d22924279519450d",
            "hex": "47304402206bfd4489114868b85ebbb14797b87409ce7938feefea89b73740191a14731d6102200c47fba7ebf983a79ea6cd33c5227c4dfeac37f20762f84d1ed5154c809b3f7e012103efc9e8e776790f7e855132312acfb8cd0fd1071a4d9df5a1d22924279519450d"
          },
          "sequence": 4294967294
        }, 
        {
          "txid": "d4f8b3a849f9f03ab519d902cf73f359761c9aa3869c9644154a4fc031e38fbc",
          "vout": 0,
          "scriptSig": {
            "asm": "30440220583e9d881fcaed7b54f30ab75a110f2b37546941df15fd0de025aeb71f776f6102201d6cdab39e47c8138f8a558cdb1592340e0f8a3c8872a7209548d1062d662b10[ALL] 02a790cb4d223198dbb53b6e157b3b31728cc0143ef4d9055a25408e8e361a0b27",
            "hex": "4730440220583e9d881fcaed7b54f30ab75a110f2b37546941df15fd0de025aeb71f776f6102201d6cdab39e47c8138f8a558cdb1592340e0f8a3c8872a7209548d1062d662b10012102a790cb4d223198dbb53b6e157b3b31728cc0143ef4d9055a25408e8e361a0b27"
          },
          "sequence": 4294967294
        }
      ],
      "vout": [
        {
          "value": 0.24228358,
          "n": 0,
          "scriptPubKey": {
            "asm": "OP_DUP OP_HASH160 d6c1e43fb7760a7a8800a6ecdd44f3ead1243f0b OP_EQUALVERIFY OP_CHECKSIG",
            "hex": "76a914d6c1e43fb7760a7a8800a6ecdd44f3ead1243f0b88ac",
            "reqSigs": 1,
            "type": "pubkeyhash",
            "addresses": [
              "LeoV967uTzgGYB56moiBkN5LHrN5jhGnJv"
            ]
          }
        }, 
        {
          "value": 4.99000000,
          "n": 1,
          "scriptPubKey": {
            "asm": "OP_DUP OP_HASH160 b11e35e35da6103dfecad461306d46129183c286 OP_EQUALVERIFY OP_CHECKSIG",
            "hex": "76a914b11e35e35da6103dfecad461306d46129183c28688ac",
            "reqSigs": 1,
            "type": "pubkeyhash",
            "addresses": [
              "LbNU4EFsn2pEUtUBeWMvgV6pWtjskFx1K4"
            ]
          }
        }
      ],
      "hex": "0200000002709433be1408ad5284c48dac1fc81b158104aa4aae0d575f68be8868462dcaf3000000006a47304402206bfd4489114868b85ebbb14797b87409ce7938feefea89b73740191a14731d6102200c47fba7ebf983a79ea6cd33c5227c4dfeac37f20762f84d1ed5154c809b3f7e012103efc9e8e776790f7e855132312acfb8cd0fd1071a4d9df5a1d22924279519450dfeffffffbc8fe331c04f4a1544969c86a39a1c7659f373cf02d919b53af0f949a8b3f8d4000000006a4730440220583e9d881fcaed7b54f30ab75a110f2b37546941df15fd0de025aeb71f776f6102201d6cdab39e47c8138f8a558cdb1592340e0f8a3c8872a7209548d1062d662b10012102a790cb4d223198dbb53b6e157b3b31728cc0143ef4d9055a25408e8e361a0b27feffffff0206b27101000000001976a914d6c1e43fb7760a7a8800a6ecdd44f3ead1243f0b88acc022be1d000000001976a914b11e35e35da6103dfecad461306d46129183c28688acc6b71400"
    }, 
    {
      "txid": "9e4851e9f8569afff20608cdb916d1ef9e479237274435515b832434845cea42",
      "hash": "9e4851e9f8569afff20608cdb916d1ef9e479237274435515b832434845cea42",
      "version": 2,
      "size": 225,
      "vsize": 225,
      "locktime": 1357766,
      "vin": [
        {
          "txid": "e24968994699bc02fb699fe384a94537c16b4e527562a369d273e91002ab0745",
          "vout": 2093,
          "scriptSig": {
            "asm": "304402201450bd3f1a7e6e673afe4e8c0cd37743eedc65e0d2cbc9f4a08ae26f2c0ebfff02207de57b739aa324a572e13b4f50aa017fc35d3b16b68187262bbbbd003222d44f[ALL] 0294fc654b9753e5c08741989940088b9ca4f7e9853d070e45b6be18ba3d13f042",
            "hex": "47304402201450bd3f1a7e6e673afe4e8c0cd37743eedc65e0d2cbc9f4a08ae26f2c0ebfff02207de57b739aa324a572e13b4f50aa017fc35d3b16b68187262bbbbd003222d44f01210294fc654b9753e5c08741989940088b9ca4f7e9853d070e45b6be18ba3d13f042"
          },
          "sequence": 4294967294
        }
      ],
      "vout": [
        {
          "value": 0.00200000,
          "n": 0,
          "scriptPubKey": {
            "asm": "OP_DUP OP_HASH160 3eb22d7e7852144db60972a8f94da045094c792e OP_EQUALVERIFY OP_CHECKSIG",
            "hex": "76a9143eb22d7e7852144db60972a8f94da045094c792e88ac",
            "reqSigs": 1,
            "type": "pubkeyhash",
            "addresses": [
              "LQwTc7PK6bYMRQG1fpxrjFsaYuCYSFSDnU"
            ]
          }
        }, 
        {
          "value": 0.01036470,
          "n": 1,
          "scriptPubKey": {
            "asm": "OP_DUP OP_HASH160 24297a93cc984d463f672ac87cca9e4655a222c8 OP_EQUALVERIFY OP_CHECKSIG",
            "hex": "76a91424297a93cc984d463f672ac87cca9e4655a222c888ac",
            "reqSigs": 1,
            "type": "pubkeyhash",
            "addresses": [
              "LNXAH7nAHJaMaNVFprMTDcYgnjtpd2oj8X"
            ]
          }
        }
      ],
      "hex": "02000000014507ab0210e973d269a36275524e6bc13745a984e39f69fb02bc9946996849e22d0800006a47304402201450bd3f1a7e6e673afe4e8c0cd37743eedc65e0d2cbc9f4a08ae26f2c0ebfff02207de57b739aa324a572e13b4f50aa017fc35d3b16b68187262bbbbd003222d44f01210294fc654b9753e5c08741989940088b9ca4f7e9853d070e45b6be18ba3d13f042feffffff02400d0300000000001976a9143eb22d7e7852144db60972a8f94da045094c792e88acb6d00f00000000001976a91424297a93cc984d463f672ac87cca9e4655a222c888acc6b71400"
    }, 
    {
      "txid": "dffe34c2ab02a98843e2b76eb314769258f191452f83e7d92047a5429e6d6c9c",
      "hash": "dffe34c2ab02a98843e2b76eb314769258f191452f83e7d92047a5429e6d6c9c",
      "version": 1,
      "size": 225,
      "vsize": 225,
      "locktime": 0,
      "vin": [
        {
          "txid": "c81ebfc4fda098ddf3df8ec24665d4bd4fc57e86b9e875d93a9a764ccf5148c1",
          "vout": 1,
          "scriptSig": {
            "asm": "304402204a7dd3b82e0cb93099cdd77221f9b0c7366abcdb6e11ea400d1c6308293afc8d02202807140fd27586dde726b06f318069729a616a61dc202abb351ea71169b7a4b6[ALL] 03bf665d61de1be84bc8c3b254597ab9ed77326e1f74c8217ccb949a083e730b97",
            "hex": "47304402204a7dd3b82e0cb93099cdd77221f9b0c7366abcdb6e11ea400d1c6308293afc8d02202807140fd27586dde726b06f318069729a616a61dc202abb351ea71169b7a4b6012103bf665d61de1be84bc8c3b254597ab9ed77326e1f74c8217ccb949a083e730b97"
          },
          "sequence": 4294967295
        }
      ],
      "vout": [
        {
          "value": 0.00055233,
          "n": 0,
          "scriptPubKey": {
            "asm": "OP_DUP OP_HASH160 8c9e7faaf72935bb947eca8e50abafe3bb9013de OP_EQUALVERIFY OP_CHECKSIG",
            "hex": "76a9148c9e7faaf72935bb947eca8e50abafe3bb9013de88ac",
            "reqSigs": 1,
            "type": "pubkeyhash",
            "addresses": [
              "LY3Ujkac2S5tDQ2VvyKZw4y6CfDdKp7hV3"
            ]
          }
        }, 
        {
          "value": 0.05614000,
          "n": 1,
          "scriptPubKey": {
            "asm": "OP_DUP OP_HASH160 13b13ffa0da4e195ba53a2f57dc54050f16d5ab2 OP_EQUALVERIFY OP_CHECKSIG",
            "hex": "76a91413b13ffa0da4e195ba53a2f57dc54050f16d5ab288ac",
            "reqSigs": 1,
            "type": "pubkeyhash",
            "addresses": [
              "LM25SQ15hLhcharXW9B6T5syPGDx2Yj7gF"
            ]
          }
        }
      ],
      "hex": "0100000001c14851cf4c769a3ad975e8b9867ec54fbdd46546c28edff3dd98a0fdc4bf1ec8010000006a47304402204a7dd3b82e0cb93099cdd77221f9b0c7366abcdb6e11ea400d1c6308293afc8d02202807140fd27586dde726b06f318069729a616a61dc202abb351ea71169b7a4b6012103bf665d61de1be84bc8c3b254597ab9ed77326e1f74c8217ccb949a083e730b97ffffffff02c1d70000000000001976a9148c9e7faaf72935bb947eca8e50abafe3bb9013de88acb0a95500000000001976a91413b13ffa0da4e195ba53a2f57dc54050f16d5ab288ac00000000"
    }, 
    {
      "txid": "655b44bae0db839a30e1a3870931aacc735ba55876d5df43a613c3622e5aa4bc",
      "hash": "655b44bae0db839a30e1a3870931aacc735ba55876d5df43a613c3622e5aa4bc",
      "version": 1,
      "size": 225,
      "vsize": 225,
      "locktime": 0,
      "vin": [
        {
          "txid": "d877e7d932ddbfc68be9ad10397ac82b76bfd0c49f606c3ae6312ba09744b1ac",
          "vout": 2,
          "scriptSig": {
            "asm": "3044022009981966e3cd740fd9e57850ffd773a5d169710480c576de3b08876334b2832802205878ba9250e99934821bab5d41e1f915501c7d56bc542e5e56de8ec8efca331f[ALL] 02d7afc9821fbb71ccab801398b8b5213d6fcdeb5386f4da3899c634e72b178662",
            "hex": "473044022009981966e3cd740fd9e57850ffd773a5d169710480c576de3b08876334b2832802205878ba9250e99934821bab5d41e1f915501c7d56bc542e5e56de8ec8efca331f012102d7afc9821fbb71ccab801398b8b5213d6fcdeb5386f4da3899c634e72b178662"
          },
          "sequence": 4294967295
        }
      ],
      "vout": [
        {
          "value": 2.00000000,
          "n": 0,
          "scriptPubKey": {
            "asm": "OP_DUP OP_HASH160 b5b8a1b4c56f920ca230f92b0dc2cbaccfb4b6af OP_EQUALVERIFY OP_CHECKSIG",
            "hex": "76a914b5b8a1b4c56f920ca230f92b0dc2cbaccfb4b6af88ac",
            "reqSigs": 1,
            "type": "pubkeyhash",
            "addresses": [
              "LbnokNFm3HbMdSkJryDyoPDce46KkTUdmj"
            ]
          }
        }, 
        {
          "value": 0.85551850,
          "n": 1,
          "scriptPubKey": {
            "asm": "OP_DUP OP_HASH160 4f918a155409924cdf96957792ced1ee0a1b039a OP_EQUALVERIFY OP_CHECKSIG",
            "hex": "76a9144f918a155409924cdf96957792ced1ee0a1b039a88ac",
            "reqSigs": 1,
            "type": "pubkeyhash",
            "addresses": [
              "LSUfzd1DVVS5Y63pBK6q2kYrC6HbMzx2nw"
            ]
          }
        }
      ],
      "hex": "0100000001acb14497a02b31e63a6c609fc4d0bf762bc87a3910ade98bc6bfdd32d9e777d8020000006a473044022009981966e3cd740fd9e57850ffd773a5d169710480c576de3b08876334b2832802205878ba9250e99934821bab5d41e1f915501c7d56bc542e5e56de8ec8efca331f012102d7afc9821fbb71ccab801398b8b5213d6fcdeb5386f4da3899c634e72b178662ffffffff0200c2eb0b000000001976a914b5b8a1b4c56f920ca230f92b0dc2cbaccfb4b6af88acea6a1905000000001976a9144f918a155409924cdf96957792ced1ee0a1b039a88ac00000000"
    }, 
    {
      "txid": "d09a425c8fcda28c2ce652ddb1518bcf1d2925c236f98896d041584bbfee4753",
      "hash": "d09a425c8fcda28c2ce652ddb1518bcf1d2925c236f98896d041584bbfee4753",
      "version": 1,
      "size": 226,
      "vsize": 226,
      "locktime": 0,
      "vin": [
        {
          "txid": "7d6b196fef576e265a6cf143f1247c44d896a8c924d4d9db3ea0e975a62969f3",
          "vout": 18,
          "scriptSig": {
            "asm": "3045022100ba5cb432a9e1e94395378ad0ab50d3772e7853bdee2534ce75c13f2dc37872c302202a679818f1fc97f7e9eda8492219738a62c0c7785ecdb11f30f696bc24954bae[ALL] 035b8a97c5d8d003e37720ed939e7c932f238af496e1491c1fe6c1e279889d6291",
            "hex": "483045022100ba5cb432a9e1e94395378ad0ab50d3772e7853bdee2534ce75c13f2dc37872c302202a679818f1fc97f7e9eda8492219738a62c0c7785ecdb11f30f696bc24954bae0121035b8a97c5d8d003e37720ed939e7c932f238af496e1491c1fe6c1e279889d6291"
          },
          "sequence": 4294967295
        }
      ],
      "vout": [
        {
          "value": 0.02390319,
          "n": 0,
          "scriptPubKey": {
            "asm": "OP_DUP OP_HASH160 3c5880d15ba03c88cae982d4fac136633a95231d OP_EQUALVERIFY OP_CHECKSIG",
            "hex": "76a9143c5880d15ba03c88cae982d4fac136633a95231d88ac",
            "reqSigs": 1,
            "type": "pubkeyhash",
            "addresses": [
              "LQj2q2qvM2dt2KSPeb8UoayF5S3iA8hJy8"
            ]
          }
        }, 
        {
          "value": 0.40722018,
          "n": 1,
          "scriptPubKey": {
            "asm": "OP_DUP OP_HASH160 44ef1148f3aab5c03276d58fca2681ac2ad4f55e OP_EQUALVERIFY OP_CHECKSIG",
            "hex": "76a91444ef1148f3aab5c03276d58fca2681ac2ad4f55e88ac",
            "reqSigs": 1,
            "type": "pubkeyhash",
            "addresses": [
              "LRWSbxdUYKGj5toiqv7bkgaFrSmTM1ZPgz"
            ]
          }
        }
      ],
      "hex": "0100000001f36929a675e9a03edbd9d424c9a896d8447c24f143f16c5a266e57ef6f196b7d120000006b483045022100ba5cb432a9e1e94395378ad0ab50d3772e7853bdee2534ce75c13f2dc37872c302202a679818f1fc97f7e9eda8492219738a62c0c7785ecdb11f30f696bc24954bae0121035b8a97c5d8d003e37720ed939e7c932f238af496e1491c1fe6c1e279889d6291ffffffff022f792400000000001976a9143c5880d15ba03c88cae982d4fac136633a95231d88ac625e6d02000000001976a91444ef1148f3aab5c03276d58fca2681ac2ad4f55e88ac00000000"
    }, 
    {
      "txid": "adff0b758c8d1233ca032352d6b75fa1b0db8bc69682bec6c3aa26014a212290",
      "hash": "adff0b758c8d1233ca032352d6b75fa1b0db8bc69682bec6c3aa26014a212290",
      "version": 2,
      "size": 226,
      "vsize": 226,
      "locktime": 1357763,
      "vin": [
        {
          "txid": "c5f5edd5857bb6b33310243e8e0ef6d16cb1be0a449866876eb54da7c21027d1",
          "vout": 1,
          "scriptSig": {
            "asm": "3045022100b9a2924e59859d5011a5978c00e86c3340323c7d30d19bf54a3573ebfb0b7e3402207f2209c444d3484341130d5618faeac940e24d4fbc100740b7c85aa118406f48[ALL] 0221f50233cb777fa0a28bdaa6d06a49911c9fc40c27a9b5658143b7fa60799773",
            "hex": "483045022100b9a2924e59859d5011a5978c00e86c3340323c7d30d19bf54a3573ebfb0b7e3402207f2209c444d3484341130d5618faeac940e24d4fbc100740b7c85aa118406f4801210221f50233cb777fa0a28bdaa6d06a49911c9fc40c27a9b5658143b7fa60799773"
          },
          "sequence": 4294967294
        }
      ],
      "vout": [
        {
          "value": 0.86000000,
          "n": 0,
          "scriptPubKey": {
            "asm": "OP_DUP OP_HASH160 b12784788ed06b4fac16ab6d537a44100ec7cdfd OP_EQUALVERIFY OP_CHECKSIG",
            "hex": "76a914b12784788ed06b4fac16ab6d537a44100ec7cdfd88ac",
            "reqSigs": 1,
            "type": "pubkeyhash",
            "addresses": [
              "LbNfCtVQaX26rVEGxVW4ymJCppEh1Z9HTa"
            ]
          }
        }, 
        {
          "value": 374.53744074,
          "n": 1,
          "scriptPubKey": {
            "asm": "OP_DUP OP_HASH160 9c99b545dbb93199e6a737b96491cd2fa9a6ca71 OP_EQUALVERIFY OP_CHECKSIG",
            "hex": "76a9149c99b545dbb93199e6a737b96491cd2fa9a6ca7188ac",
            "reqSigs": 1,
            "type": "pubkeyhash",
            "addresses": [
              "LZVyoxtSCWSrPGZGFjUVg3NCsGQqLc9d9i"
            ]
          }
        }
      ],
      "hex": "0200000001d12710c2a74db56e876698440abeb16cd1f60e8e3e241033b3b67b85d5edf5c5010000006b483045022100b9a2924e59859d5011a5978c00e86c3340323c7d30d19bf54a3573ebfb0b7e3402207f2209c444d3484341130d5618faeac940e24d4fbc100740b7c85aa118406f4801210221f50233cb777fa0a28bdaa6d06a49911c9fc40c27a9b5658143b7fa60799773feffffff0280412005000000001976a914b12784788ed06b4fac16ab6d537a44100ec7cdfd88accac76ab8080000001976a9149c99b545dbb93199e6a737b96491cd2fa9a6ca7188acc3b71400"
    }, 
    {
      "txid": "5dd6c093fdd90ff47655ce90d919b271676ca55f4923e5dec4a23113f1eaa0e4",
      "hash": "5dd6c093fdd90ff47655ce90d919b271676ca55f4923e5dec4a23113f1eaa0e4",
      "version": 1,
      "size": 226,
      "vsize": 226,
      "locktime": 0,
      "vin": [
        {
          "txid": "888bcfacd51956ec328371a47109ba59cf8cce7350c13a0550141437824da2f1",
          "vout": 0,
          "scriptSig": {
            "asm": "30450221008f4dacfe17c6654e03de7dd3abb85105d3430357e156335d4a32c292e3859bf702201ceaf8f0485974feba9b9d79d0d380350c3eaac43e3789add4affdf761c579c0[ALL] 03f1625ec7ebeaa36964aba2b031921e661df0e50fcf66195e8ea7b40f096289fd",
            "hex": "4830450221008f4dacfe17c6654e03de7dd3abb85105d3430357e156335d4a32c292e3859bf702201ceaf8f0485974feba9b9d79d0d380350c3eaac43e3789add4affdf761c579c0012103f1625ec7ebeaa36964aba2b031921e661df0e50fcf66195e8ea7b40f096289fd"
          },
          "sequence": 4294967295
        }
      ],
      "vout": [
        {
          "value": 0.24737233,
          "n": 0,
          "scriptPubKey": {
            "asm": "OP_DUP OP_HASH160 beb5ce739286ec9cd2d09239553c76d21d0c8d99 OP_EQUALVERIFY OP_CHECKSIG",
            "hex": "76a914beb5ce739286ec9cd2d09239553c76d21d0c8d9988ac",
            "reqSigs": 1,
            "type": "pubkeyhash",
            "addresses": [
              "LccLSo2q9ccPbk5zv7Fdf2SQWC1e4UgUEJ"
            ]
          }
        }, 
        {
          "value": 0.75240167,
          "n": 1,
          "scriptPubKey": {
            "asm": "OP_DUP OP_HASH160 3d28eb96df38c9e7ad51b40c9f2050f4267708ef OP_EQUALVERIFY OP_CHECKSIG",
            "hex": "76a9143d28eb96df38c9e7ad51b40c9f2050f4267708ef88ac",
            "reqSigs": 1,
            "type": "pubkeyhash",
            "addresses": [
              "LQoLW73FSoga2EcThz4hyEW7LDsQ3mvi5K"
            ]
          }
        }
      ],
      "hex": "0100000001f1a24d8237141450053ac15073ce8ccf59ba0971a4718332ec5619d5accf8b88000000006b4830450221008f4dacfe17c6654e03de7dd3abb85105d3430357e156335d4a32c292e3859bf702201ceaf8f0485974feba9b9d79d0d380350c3eaac43e3789add4affdf761c579c0012103f1625ec7ebeaa36964aba2b031921e661df0e50fcf66195e8ea7b40f096289fdffffffff02d1757901000000001976a914beb5ce739286ec9cd2d09239553c76d21d0c8d9988ace7127c04000000001976a9143d28eb96df38c9e7ad51b40c9f2050f4267708ef88ac00000000"
    }
  ],
  "time": 1517045958,
  "mediantime": 1517045591,
  "nonce": 3402414475,
  "bits": "1a047f14",
  "difficulty": 3731199.183374282,
  "chainwork": "00000000000000000000000000000000000000000000003282e9752eb926d96a",
  "previousblockhash": "9c9a217809e0817f5bfec36ec64eae6ad20d2c99e51ccaeb76970e2cc29e667e",
  "nextblockhash": "9f9cbe3782a33cf3e244f49e7feda6f5d928133266c6846f9c59f68a0b551928"
}
