{
  "hash": "66d315e6d51fefe617a8b5f56bc4a50db67c4a1e188485f51ec5af06360b2f73",
  "confirmations": 2207,
  "strippedsize": 234,
  "size": 234,
  "weight": 936,
  "height": 1358787,
  "version": 536870912,
  "versionHex": "20000000",
  "merkleroot": "a0890b5015191baf7fe60eb4587a5c55e4354cc793218e39ccb11e9a110a0e6b",
  "tx": [
    {
      "txid": "a0890b5015191baf7fe60eb4587a5c55e4354cc793218e39ccb11e9a110a0e6b",
      "hash": "a0890b5015191baf7fe60eb4587a5c55e4354cc793218e39ccb11e9a110a0e6b",
      "version": 1,
      "size": 153,
      "vsize": 153,
      "locktime": 0,
      "vin": [
        {
          "coinbase": "03c3bb14045a6e83e32cfabe6d6db9becbb413bc2976db514fcaa798add81e7b874e4b575f7bd02667ece80d2eef4000000000000000042f4c502f0822000b0d02000000",
          "sequence": 4294967295
        }
      ],
      "vout": [
        {
          "value": 25.00000000,
          "n": 0,
          "scriptPubKey": {
            "asm": "OP_DUP OP_HASH160 57757ed2ecf2052ff3126c397aca7defb9ca2cec OP_EQUALVERIFY OP_CHECKSIG",
            "hex": "76a91457757ed2ecf2052ff3126c397aca7defb9ca2cec88ac",
            "reqSigs": 1,
            "type": "pubkeyhash",
            "addresses": [
              "LTCPodGk5FwcJaRzH9yKnwicxzFUbxp6tN"
            ]
          }
        }
      ],
      "hex": "01000000010000000000000000000000000000000000000000000000000000000000000000ffffffff4403c3bb14045a6e83e32cfabe6d6db9becbb413bc2976db514fcaa798add81e7b874e4b575f7bd02667ece80d2eef4000000000000000042f4c502f0822000b0d02000000ffffffff0100f90295000000001976a91457757ed2ecf2052ff3126c397aca7defb9ca2cec88ac00000000"
    }
  ],
  "time": 1517192163,
  "mediantime": 1517191793,
  "nonce": 3204146864,
  "bits": "1a042eae",
  "difficulty": 4011378.762614286,
  "chainwork": "000000000000000000000000000000000000000000000033659ac36e344a4a88",
  "previousblockhash": "453216ba3437c0654de22df476bb65f27137cf5682da147b93e21dfd8ed18102",
  "nextblockhash": "69875c6becfeb570c181b026170c5aeb918aafa50f21f538ca902ccbb6393bf9"
}
