{
  "hash": "66f87cf689cf21ecc5c9ef49c2f21bb32dd510d5c6bc7df5400958bb59cdd6a4",
  "confirmations": 3703,
  "strippedsize": 255,
  "size": 255,
  "weight": 1020,
  "height": 1357292,
  "version": 536870912,
  "versionHex": "20000000",
  "merkleroot": "58c787ce030b7d4144ec1aec314b58c68f3fecdc0a946df80cf9ea7997e57c8e",
  "tx": [
    {
      "txid": "58c787ce030b7d4144ec1aec314b58c68f3fecdc0a946df80cf9ea7997e57c8e",
      "hash": "58c787ce030b7d4144ec1aec314b58c68f3fecdc0a946df80cf9ea7997e57c8e",
      "version": 1,
      "size": 174,
      "vsize": 174,
      "locktime": 0,
      "vin": [
        {
          "coinbase": "03ecb5141c4d696e656420627920416e74506f6f6c20626a3242205a6b589d0566fabe6d6d9236bbef3153eca4901cd6c13badfce0dfaa39f52131e9d75395c89cc420993b04000000000000002f0e00000000000002000000",
          "sequence": 4294967295
        }
      ],
      "vout": [
        {
          "value": 25.00000000,
          "n": 0,
          "scriptPubKey": {
            "asm": "OP_DUP OP_HASH160 0ff3ccc5e8be88afe24b5d634e5852d474dbdff1 OP_EQUALVERIFY OP_CHECKSIG",
            "hex": "76a9140ff3ccc5e8be88afe24b5d634e5852d474dbdff188ac",
            "reqSigs": 1,
            "type": "pubkeyhash",
            "addresses": [
              "LLgJTbzZMsRTCUF1NtvvL9SR1a4pVieW89"
            ]
          }
        }
      ],
      "hex": "01000000010000000000000000000000000000000000000000000000000000000000000000ffffffff5903ecb5141c4d696e656420627920416e74506f6f6c20626a3242205a6b589d0566fabe6d6d9236bbef3153eca4901cd6c13badfce0dfaa39f52131e9d75395c89cc420993b04000000000000002f0e00000000000002000000ffffffff0100f90295000000001976a9140ff3ccc5e8be88afe24b5d634e5852d474dbdff188ac00000000"
    }
  ],
  "time": 1516984477,
  "mediantime": 1516983054,
  "nonce": 1923725422,
  "bits": "1a047f14",
  "difficulty": 3731199.183374282,
  "chainwork": "000000000000000000000000000000000000000000000032190ca8d6a38d1912",
  "previousblockhash": "84f6195b138a7442b9b0a027b546f64421bffad13581f54f5337d958944b3dba",
  "nextblockhash": "5006c2c52317eb38292b09df71dda9988d7a0a056132285072aeffc6d1016f54"
}
