{
  "hash": "6747d491cacad025d9910f211b71a037cae03a30c0b85b72caad3d6cda0570ef",
  "confirmations": 3414,
  "strippedsize": 234,
  "size": 234,
  "weight": 936,
  "height": 1357581,
  "version": 536870912,
  "versionHex": "20000000",
  "merkleroot": "c3feaaf965b238524c7a9bae23439f833305877b6e999b2d7ffe11727c5de3a5",
  "tx": [
    {
      "txid": "c3feaaf965b238524c7a9bae23439f833305877b6e999b2d7ffe11727c5de3a5",
      "hash": "c3feaaf965b238524c7a9bae23439f833305877b6e999b2d7ffe11727c5de3a5",
      "version": 1,
      "size": 153,
      "vsize": 153,
      "locktime": 0,
      "vin": [
        {
          "coinbase": "030db714045a6be5592cfabe6d6dd2cf9a327566ccfb03843ec44f45f23cfb540aff225c59d311213e757dea3dca4000000000000000042f4c502f0816009c97bc020000",
          "sequence": 4294967295
        }
      ],
      "vout": [
        {
          "value": 25.00000000,
          "n": 0,
          "scriptPubKey": {
            "asm": "OP_DUP OP_HASH160 57757ed2ecf2052ff3126c397aca7defb9ca2cec OP_EQUALVERIFY OP_CHECKSIG",
            "hex": "76a91457757ed2ecf2052ff3126c397aca7defb9ca2cec88ac",
            "reqSigs": 1,
            "type": "pubkeyhash",
            "addresses": [
              "LTCPodGk5FwcJaRzH9yKnwicxzFUbxp6tN"
            ]
          }
        }
      ],
      "hex": "01000000010000000000000000000000000000000000000000000000000000000000000000ffffffff44030db714045a6be5592cfabe6d6dd2cf9a327566ccfb03843ec44f45f23cfb540aff225c59d311213e757dea3dca4000000000000000042f4c502f0816009c97bc020000ffffffff0100f90295000000001976a91457757ed2ecf2052ff3126c397aca7defb9ca2cec88ac00000000"
    }
  ],
  "time": 1517020505,
  "mediantime": 1517020174,
  "nonce": 2184434444,
  "bits": "1a047f14",
  "difficulty": 3731199.183374282,
  "chainwork": "0000000000000000000000000000000000000000000000325952b730b0aa726c",
  "previousblockhash": "9317208b0ae794f7b504c23738bff889df085b1c752cc86d1a998c56da214270",
  "nextblockhash": "9310e4214e9a6c54a38ccda15a86f945dcc12dbd86a36aec7580ba8e1e12fd02"
}
