{
  "hash": "67f8ec60cf88511a7bea7f2ef83ca7db14ee9ade6b0c6e41723cbfecf6a5fa68",
  "confirmations": 2270,
  "strippedsize": 3273,
  "size": 3309,
  "weight": 13128,
  "height": 1358725,
  "version": 536870912,
  "versionHex": "20000000",
  "merkleroot": "c6d596d7a4a531033e133525a18c97e90737f49589d3d92cd64f7e59fa63b589",
  "tx": [
    {
      "txid": "9ad08ee218604dae910d63833c575330e77732aa8813d96d3a121927a4fa8b61",
      "hash": "e544f4dbc8d212782bb76e0a0f82be9eddf4d12955e67b452d963e0f35f4fe79",
      "version": 1,
      "size": 244,
      "vsize": 217,
      "locktime": 0,
      "vin": [
        {
          "coinbase": "0385bb14046c616e5a080575211d09000000fabe6d6ddd39f137cba836befafe9efe69e7f27c8263cc9fb985246e8a471971e711437f40000000000000000d2f6e6f64655374726174756d2f",
          "sequence": 0
        }
      ],
      "vout": [
        {
          "value": 25.00404797,
          "n": 0,
          "scriptPubKey": {
            "asm": "OP_DUP OP_HASH160 0c617fdb2ea42aed30a509595ee21ba3f6688db0 OP_EQUALVERIFY OP_CHECKSIG",
            "hex": "76a9140c617fdb2ea42aed30a509595ee21ba3f6688db088ac",
            "reqSigs": 1,
            "type": "pubkeyhash",
            "addresses": [
              "LLMRAtr3qBje2ySEa3CnZ55LA4TQMWnRY3"
            ]
          }
        }, 
        {
          "value": 0.00000000,
          "n": 1,
          "scriptPubKey": {
            "asm": "OP_RETURN aa21a9ed4d56be83ca897858c0f82e1232952ae7267cdc815e61a9ad2b1c5452cfc4a4b1",
            "hex": "6a24aa21a9ed4d56be83ca897858c0f82e1232952ae7267cdc815e61a9ad2b1c5452cfc4a4b1",
            "type": "nulldata"
          }
        }
      ],
      "hex": "010000000001010000000000000000000000000000000000000000000000000000000000000000ffffffff4c0385bb14046c616e5a080575211d09000000fabe6d6ddd39f137cba836befafe9efe69e7f27c8263cc9fb985246e8a471971e711437f40000000000000000d2f6e6f64655374726174756d2f00000000023d260995000000001976a9140c617fdb2ea42aed30a509595ee21ba3f6688db088ac0000000000000000266a24aa21a9ed4d56be83ca897858c0f82e1232952ae7267cdc815e61a9ad2b1c5452cfc4a4b10120000000000000000000000000000000000000000000000000000000000000000000000000"
    }, 
    {
      "txid": "a0370a8a56a51cb89dc9c092d514a2c9f9f7b4e8f1b6f0186b1270d6528d32a4",
      "hash": "a0370a8a56a51cb89dc9c092d514a2c9f9f7b4e8f1b6f0186b1270d6528d32a4",
      "version": 2,
      "size": 225,
      "vsize": 225,
      "locktime": 1358722,
      "vin": [
        {
          "txid": "63f5764e5a82366475f0ccc1caad0c96e34cd4b93707a71922e2407242a8020c",
          "vout": 0,
          "scriptSig": {
            "asm": "3044022048bf4c846d72188d1f51bbfe9617e0b849819007cd0156c078fc3366b281d689022053b65aad583482b7a1d1e1ca8c5f9cf6c640a299f095ce2ca1206b87d09384bc[ALL] 023e9a69703604ad1e28c9d9c6f81c670abbd11c2c3a454a186007bff0bb2c5828",
            "hex": "473044022048bf4c846d72188d1f51bbfe9617e0b849819007cd0156c078fc3366b281d689022053b65aad583482b7a1d1e1ca8c5f9cf6c640a299f095ce2ca1206b87d09384bc0121023e9a69703604ad1e28c9d9c6f81c670abbd11c2c3a454a186007bff0bb2c5828"
          },
          "sequence": 4294967294
        }
      ],
      "vout": [
        {
          "value": 0.05650921,
          "n": 0,
          "scriptPubKey": {
            "asm": "OP_DUP OP_HASH160 6cbb916274e25ebc5c6c13379cf028a1cdb0708f OP_EQUALVERIFY OP_CHECKSIG",
            "hex": "76a9146cbb916274e25ebc5c6c13379cf028a1cdb0708f88ac",
            "reqSigs": 1,
            "type": "pubkeyhash",
            "addresses": [
              "LV8swNr2kp2oyQ4V15Qx9wydjSJJrNso7S"
            ]
          }
        }, 
        {
          "value": 7.02699946,
          "n": 1,
          "scriptPubKey": {
            "asm": "OP_DUP OP_HASH160 2813f3d6b8a3350e66baf706d8262c5b95ac8229 OP_EQUALVERIFY OP_CHECKSIG",
            "hex": "76a9142813f3d6b8a3350e66baf706d8262c5b95ac822988ac",
            "reqSigs": 1,
            "type": "pubkeyhash",
            "addresses": [
              "LNssCD8Ls5Mu6eH5FRGzi1hdoUafnGSaan"
            ]
          }
        }
      ],
      "hex": "02000000010c02a8427240e22219a70737b9d44ce3960cadcac1ccf0756436825a4e76f563000000006a473044022048bf4c846d72188d1f51bbfe9617e0b849819007cd0156c078fc3366b281d689022053b65aad583482b7a1d1e1ca8c5f9cf6c640a299f095ce2ca1206b87d09384bc0121023e9a69703604ad1e28c9d9c6f81c670abbd11c2c3a454a186007bff0bb2c5828feffffff02e9395600000000001976a9146cbb916274e25ebc5c6c13379cf028a1cdb0708f88acaa59e229000000001976a9142813f3d6b8a3350e66baf706d8262c5b95ac822988ac82bb1400"
    }, 
    {
      "txid": "db31d87b138584584ab8e7d3354a04cf1c33d4156697ef906cb537ef269f012b",
      "hash": "db31d87b138584584ab8e7d3354a04cf1c33d4156697ef906cb537ef269f012b",
      "version": 1,
      "size": 373,
      "vsize": 373,
      "locktime": 1358722,
      "vin": [
        {
          "txid": "aa1aa8cc80471e65f7c3533d0b1fb8f9af6b69b94b1366ae93d56e46478bd484",
          "vout": 1,
          "scriptSig": {
            "asm": "304402206fb32e7259f7f7f7cdf35f6633c8127f739442ca9743e96be57d1f7f5c93784e022058b1813ba83c5e7cb141c9193c5af0d45c1766d0b1552fee176dc15cb16dde50[ALL] 026de28c5ca8994ad47a47f7eaaf427f574aa3c591a6cc00ba05321814ee01662a",
            "hex": "47304402206fb32e7259f7f7f7cdf35f6633c8127f739442ca9743e96be57d1f7f5c93784e022058b1813ba83c5e7cb141c9193c5af0d45c1766d0b1552fee176dc15cb16dde500121026de28c5ca8994ad47a47f7eaaf427f574aa3c591a6cc00ba05321814ee01662a"
          },
          "sequence": 4294967294
        }, 
        {
          "txid": "0ec562f6ee0bfee17117184bce1ee34e5cfaa39e31e128e6d89f7954fbb551f9",
          "vout": 2161,
          "scriptSig": {
            "asm": "3045022100b844c0e6f8129107fa540dd227b77aa09333402337b3fb43ff0b39f405ef047f02200b669e1fa5847c20cf4c31b1ee7282eedc78b833d2910f18c61a9a8541712ae8[ALL] 03888a7d820cefeef3d67e43dee23d0886f655ae7ee4962c4e198b104d638d2173",
            "hex": "483045022100b844c0e6f8129107fa540dd227b77aa09333402337b3fb43ff0b39f405ef047f02200b669e1fa5847c20cf4c31b1ee7282eedc78b833d2910f18c61a9a8541712ae8012103888a7d820cefeef3d67e43dee23d0886f655ae7ee4962c4e198b104d638d2173"
          },
          "sequence": 4294967294
        }
      ],
      "vout": [
        {
          "value": 0.01000017,
          "n": 0,
          "scriptPubKey": {
            "asm": "OP_DUP OP_HASH160 b68751d5d6214b3b2b1aaf681ec8eabcb587e7e1 OP_EQUALVERIFY OP_CHECKSIG",
            "hex": "76a914b68751d5d6214b3b2b1aaf681ec8eabcb587e7e188ac",
            "reqSigs": 1,
            "type": "pubkeyhash",
            "addresses": [
              "Lbs5MJSoveemeVVRw5aSEkWtFqEeVejvWg"
            ]
          }
        }, 
        {
          "value": 0.50000000,
          "n": 1,
          "scriptPubKey": {
            "asm": "OP_DUP OP_HASH160 732a0f26e3e459155451d483d9d5925282367bed OP_EQUALVERIFY OP_CHECKSIG",
            "hex": "76a914732a0f26e3e459155451d483d9d5925282367bed88ac",
            "reqSigs": 1,
            "type": "pubkeyhash",
            "addresses": [
              "LVitMbanhzvVnks9ai5VwKXpEsCZJgYNWk"
            ]
          }
        }
      ],
      "hex": "010000000284d48b47466ed593ae66134bb9696baff9b81f0b3d53c3f7651e4780cca81aaa010000006a47304402206fb32e7259f7f7f7cdf35f6633c8127f739442ca9743e96be57d1f7f5c93784e022058b1813ba83c5e7cb141c9193c5af0d45c1766d0b1552fee176dc15cb16dde500121026de28c5ca8994ad47a47f7eaaf427f574aa3c591a6cc00ba05321814ee01662afefffffff951b5fb54799fd8e628e1319ea3fa5c4ee31ece4b181771e1fe0beef662c50e710800006b483045022100b844c0e6f8129107fa540dd227b77aa09333402337b3fb43ff0b39f405ef047f02200b669e1fa5847c20cf4c31b1ee7282eedc78b833d2910f18c61a9a8541712ae8012103888a7d820cefeef3d67e43dee23d0886f655ae7ee4962c4e198b104d638d2173feffffff0251420f00000000001976a914b68751d5d6214b3b2b1aaf681ec8eabcb587e7e188ac80f0fa02000000001976a914732a0f26e3e459155451d483d9d5925282367bed88ac82bb1400"
    }, 
    {
      "txid": "a53cb9af0c5a7bf3965450f53263568e01c1492d9916af38a75aec85c43d0c7d",
      "hash": "a53cb9af0c5a7bf3965450f53263568e01c1492d9916af38a75aec85c43d0c7d",
      "version": 2,
      "size": 225,
      "vsize": 225,
      "locktime": 1358723,
      "vin": [
        {
          "txid": "e0c8ec823bd199837a529be26fa374ec9f5753aa65f475726aa922c22ae1ffa8",
          "vout": 0,
          "scriptSig": {
            "asm": "304402207a2845f57bac5dd9d419bfbffe13a01b5795889349c75a657184e4341f2269df022020ef83e37e0648407feb6431b5330f476e43c817f3a5dfcfb862c065244cd9a3[ALL] 033388dd7137ed1530fd5d598c2cddcdde0cd3da9f623a6efa731c3ca2171a176c",
            "hex": "47304402207a2845f57bac5dd9d419bfbffe13a01b5795889349c75a657184e4341f2269df022020ef83e37e0648407feb6431b5330f476e43c817f3a5dfcfb862c065244cd9a30121033388dd7137ed1530fd5d598c2cddcdde0cd3da9f623a6efa731c3ca2171a176c"
          },
          "sequence": 4294967294
        }
      ],
      "vout": [
        {
          "value": 10.97868293,
          "n": 0,
          "scriptPubKey": {
            "asm": "OP_DUP OP_HASH160 f3002971a6b61978fcedb72ac9ae55b6506abce8 OP_EQUALVERIFY OP_CHECKSIG",
            "hex": "76a914f3002971a6b61978fcedb72ac9ae55b6506abce888ac",
            "reqSigs": 1,
            "type": "pubkeyhash",
            "addresses": [
              "LhNpf5NRKU4Kbh6TKTENjUUY4Xh4EpsiNY"
            ]
          }
        }, 
        {
          "value": 0.03840690,
          "n": 1,
          "scriptPubKey": {
            "asm": "OP_DUP OP_HASH160 d1d12237d99afe205cc6dbed74e21e5942c76586 OP_EQUALVERIFY OP_CHECKSIG",
            "hex": "76a914d1d12237d99afe205cc6dbed74e21e5942c7658688ac",
            "reqSigs": 1,
            "type": "pubkeyhash",
            "addresses": [
              "LeMN2AfBEKEoxgTfLAEprkHvQDNGyTueMn"
            ]
          }
        }
      ],
      "hex": "0200000001a8ffe12ac222a96a7275f465aa53579fec74a36fe29b527a8399d13b82ecc8e0000000006a47304402207a2845f57bac5dd9d419bfbffe13a01b5795889349c75a657184e4341f2269df022020ef83e37e0648407feb6431b5330f476e43c817f3a5dfcfb862c065244cd9a30121033388dd7137ed1530fd5d598c2cddcdde0cd3da9f623a6efa731c3ca2171a176cfeffffff0205247041000000001976a914f3002971a6b61978fcedb72ac9ae55b6506abce888acb29a3a00000000001976a914d1d12237d99afe205cc6dbed74e21e5942c7658688ac83bb1400"
    }, 
    {
      "txid": "107882e456c87ecf2b3ba6bac230e4a34c4360e049446ca43df0663f917a1193",
      "hash": "107882e456c87ecf2b3ba6bac230e4a34c4360e049446ca43df0663f917a1193",
      "version": 2,
      "size": 816,
      "vsize": 816,
      "locktime": 1358722,
      "vin": [
        {
          "txid": "b32de33db937b9b8e143ea853a941254e2ad5b760ff3621560cc270702da144a",
          "vout": 0,
          "scriptSig": {
            "asm": "304402207b936711e05cf5ebf2d260809282c342611948dc45ea4d6f97aade880309fc2a022000f75af3124a4503c08f7947a0c20ca0a0007a94459aaca84037269e0fddbb88[ALL] 03ab462a3a9cfd7494d9bef075e7f741f4564d66a0f486edf145e9cea9177b24ef",
            "hex": "47304402207b936711e05cf5ebf2d260809282c342611948dc45ea4d6f97aade880309fc2a022000f75af3124a4503c08f7947a0c20ca0a0007a94459aaca84037269e0fddbb88012103ab462a3a9cfd7494d9bef075e7f741f4564d66a0f486edf145e9cea9177b24ef"
          },
          "sequence": 4294967294
        }, 
        {
          "txid": "d625d470f1c8cea6b4ebfbe6af4fa367dac3ea1865cc2ca546fb4d848f9cac74",
          "vout": 0,
          "scriptSig": {
            "asm": "3044022010d5befa3e3b3afaaa3b6462fa35c5889d309365491f5f95b982ae348e46481702205eb402a96f5b55e3d6da7c70ef0fc771cba64893aa992f0db9549ad6647a7d61[ALL] 020096971f836275eb1e6a50318076022d6ef879d85e72bb068ed063320b0e944a",
            "hex": "473044022010d5befa3e3b3afaaa3b6462fa35c5889d309365491f5f95b982ae348e46481702205eb402a96f5b55e3d6da7c70ef0fc771cba64893aa992f0db9549ad6647a7d610121020096971f836275eb1e6a50318076022d6ef879d85e72bb068ed063320b0e944a"
          },
          "sequence": 4294967294
        }, 
        {
          "txid": "b3198d453695979ba6c31a414b0b765cebb80b8b82189c4319e87979bcc4ff8e",
          "vout": 1,
          "scriptSig": {
            "asm": "3045022100c447c378d8836703199e9b5a597e818ea2919e6c85fd4e77399f7f5339db584f0220260ab2be7c0f67b66b949060d579ca4ca2b74f25a470f414f28c6bbc526b1636[ALL] 02e437b05ad4186ca292977102f15f390f0a24bfcfc6a07c30efee720d09e47a86",
            "hex": "483045022100c447c378d8836703199e9b5a597e818ea2919e6c85fd4e77399f7f5339db584f0220260ab2be7c0f67b66b949060d579ca4ca2b74f25a470f414f28c6bbc526b1636012102e437b05ad4186ca292977102f15f390f0a24bfcfc6a07c30efee720d09e47a86"
          },
          "sequence": 4294967294
        }, 
        {
          "txid": "bd9c15e237e73f994de08235c1fc2080ee00a602d57cf475badc17b5d355aaaa",
          "vout": 1,
          "scriptSig": {
            "asm": "3045022100ba4b418279d8426fce8a9e4c590eb70e06149e0b5b78632e50092fb59607031e02206bfff0460c8d8a9158cf6472d0edc4895a96a2f6ac62374813a1da0857191411[ALL] 0207c6ca37410c40c66933c896c71314664a26b856db7cc9adad8b4ae8e0d12584",
            "hex": "483045022100ba4b418279d8426fce8a9e4c590eb70e06149e0b5b78632e50092fb59607031e02206bfff0460c8d8a9158cf6472d0edc4895a96a2f6ac62374813a1da085719141101210207c6ca37410c40c66933c896c71314664a26b856db7cc9adad8b4ae8e0d12584"
          },
          "sequence": 4294967294
        }, 
        {
          "txid": "b19fc0fbd4d6957ffd57fbc83837d47221c3de946938fad186aef8a36f4c75c0",
          "vout": 0,
          "scriptSig": {
            "asm": "3045022100a59fe052ffcc53a054a3aa24316926a4b14581754518d40d41762df4f1da514f02201aaacf181fc9f1697540d65f2e749282a83a4476fc55bf0befbd52984c504f31[ALL] 028bb2e492a117c503924707ffaef4a9fd1105b73e836b240ac3a5d0bad5374343",
            "hex": "483045022100a59fe052ffcc53a054a3aa24316926a4b14581754518d40d41762df4f1da514f02201aaacf181fc9f1697540d65f2e749282a83a4476fc55bf0befbd52984c504f310121028bb2e492a117c503924707ffaef4a9fd1105b73e836b240ac3a5d0bad5374343"
          },
          "sequence": 4294967294
        }
      ],
      "vout": [
        {
          "value": 0.01473107,
          "n": 0,
          "scriptPubKey": {
            "asm": "OP_DUP OP_HASH160 115536fdc2b9018e0812ed56bbb8128c97ff2208 OP_EQUALVERIFY OP_CHECKSIG",
            "hex": "76a914115536fdc2b9018e0812ed56bbb8128c97ff220888ac",
            "reqSigs": 1,
            "type": "pubkeyhash",
            "addresses": [
              "LLobqJXCtZgpsdnmMAsPhZodhyoLyD1Z4s"
            ]
          }
        }, 
        {
          "value": 0.88781520,
          "n": 1,
          "scriptPubKey": {
            "asm": "OP_DUP OP_HASH160 73e63c11828880244bc5f1f3b71e616fc86249ac OP_EQUALVERIFY OP_CHECKSIG",
            "hex": "76a91473e63c11828880244bc5f1f3b71e616fc86249ac88ac",
            "reqSigs": 1,
            "type": "pubkeyhash",
            "addresses": [
              "LVnmnFrT9xcSWftEBhEod66WozK2oXaztv"
            ]
          }
        }
      ],
      "hex": "02000000054a14da020727cc601562f30f765bade25412943a85ea43e1b8b937b93de32db3000000006a47304402207b936711e05cf5ebf2d260809282c342611948dc45ea4d6f97aade880309fc2a022000f75af3124a4503c08f7947a0c20ca0a0007a94459aaca84037269e0fddbb88012103ab462a3a9cfd7494d9bef075e7f741f4564d66a0f486edf145e9cea9177b24effeffffff74ac9c8f844dfb46a52ccc6518eac3da67a34fafe6fbebb4a6cec8f170d425d6000000006a473044022010d5befa3e3b3afaaa3b6462fa35c5889d309365491f5f95b982ae348e46481702205eb402a96f5b55e3d6da7c70ef0fc771cba64893aa992f0db9549ad6647a7d610121020096971f836275eb1e6a50318076022d6ef879d85e72bb068ed063320b0e944afeffffff8effc4bc7979e819439c18828b0bb8eb5c760b4b411ac3a69b979536458d19b3010000006b483045022100c447c378d8836703199e9b5a597e818ea2919e6c85fd4e77399f7f5339db584f0220260ab2be7c0f67b66b949060d579ca4ca2b74f25a470f414f28c6bbc526b1636012102e437b05ad4186ca292977102f15f390f0a24bfcfc6a07c30efee720d09e47a86feffffffaaaa55d3b517dcba75f47cd502a600ee8020fcc13582e04d993fe737e2159cbd010000006b483045022100ba4b418279d8426fce8a9e4c590eb70e06149e0b5b78632e50092fb59607031e02206bfff0460c8d8a9158cf6472d0edc4895a96a2f6ac62374813a1da085719141101210207c6ca37410c40c66933c896c71314664a26b856db7cc9adad8b4ae8e0d12584feffffffc0754c6fa3f8ae86d1fa386994dec32172d43738c8fb57fd7f95d6d4fbc09fb1000000006b483045022100a59fe052ffcc53a054a3aa24316926a4b14581754518d40d41762df4f1da514f02201aaacf181fc9f1697540d65f2e749282a83a4476fc55bf0befbd52984c504f310121028bb2e492a117c503924707ffaef4a9fd1105b73e836b240ac3a5d0bad5374343feffffff02537a1600000000001976a914115536fdc2b9018e0812ed56bbb8128c97ff220888acd0b24a05000000001976a91473e63c11828880244bc5f1f3b71e616fc86249ac88ac82bb1400"
    }, 
    {
      "txid": "dac2e573ace5c3da0ae79f4e40922751fc4d852b2e005d5ce06192f549fa812f",
      "hash": "dac2e573ace5c3da0ae79f4e40922751fc4d852b2e005d5ce06192f549fa812f",
      "version": 1,
      "size": 520,
      "vsize": 520,
      "locktime": 0,
      "vin": [
        {
          "txid": "e82c56765111bd4ce89b967c115dac820671d1ce02cf0c9d64800248a6ee504c",
          "vout": 0,
          "scriptSig": {
            "asm": "304402200dd84960285a25b36afbe159d3b0ffe7215ac33ce4360f0a2e8eeb1815d89d110220626e60a8e55e7cc24cc9ffdd64d3894aa54accf0d94bc8f23b0ff7de5824f197[ALL] 02d9628dd97edee7cb20c3afd29f51f47681cb6ca2619e92f2d25fa3eee8415c3f",
            "hex": "47304402200dd84960285a25b36afbe159d3b0ffe7215ac33ce4360f0a2e8eeb1815d89d110220626e60a8e55e7cc24cc9ffdd64d3894aa54accf0d94bc8f23b0ff7de5824f197012102d9628dd97edee7cb20c3afd29f51f47681cb6ca2619e92f2d25fa3eee8415c3f"
          },
          "sequence": 4294967295
        }, 
        {
          "txid": "b20cbd4ce3418a625bd4213723fe2e011541b3daf847e8e0df59abf6e049ac1f",
          "vout": 1,
          "scriptSig": {
            "asm": "304402204c4bc4a313f0bac6c7036db4d454c85ae9a22934845eb0270a561e9b51af4893022020ce254b8414ed32a84b31fff605adbabeb006747ca3587f552c6bd17e94085d[ALL] 02d9628dd97edee7cb20c3afd29f51f47681cb6ca2619e92f2d25fa3eee8415c3f",
            "hex": "47304402204c4bc4a313f0bac6c7036db4d454c85ae9a22934845eb0270a561e9b51af4893022020ce254b8414ed32a84b31fff605adbabeb006747ca3587f552c6bd17e94085d012102d9628dd97edee7cb20c3afd29f51f47681cb6ca2619e92f2d25fa3eee8415c3f"
          },
          "sequence": 4294967295
        }, 
        {
          "txid": "0dda247c4e9e3993a13a6b695cf73b692554366da18b498726dc75845eadb4a0",
          "vout": 0,
          "scriptSig": {
            "asm": "3045022100934d9e3fd9d34255a75b65b2cb3afac649bf85925170d6767f645bb8be7d4649022058a99b0afa18c444fb36269cdfb66373c921f34b79aac3f0e5f958d569089661[ALL] 025f928f4a6a994e771ad7296b513382c67cf5d9bd4905132307ce20f7a3328a6a",
            "hex": "483045022100934d9e3fd9d34255a75b65b2cb3afac649bf85925170d6767f645bb8be7d4649022058a99b0afa18c444fb36269cdfb66373c921f34b79aac3f0e5f958d5690896610121025f928f4a6a994e771ad7296b513382c67cf5d9bd4905132307ce20f7a3328a6a"
          },
          "sequence": 4294967295
        }
      ],
      "vout": [
        {
          "value": 0.39637430,
          "n": 0,
          "scriptPubKey": {
            "asm": "OP_DUP OP_HASH160 63df5296c0b6eda57a565201a78ef47855dae6c8 OP_EQUALVERIFY OP_CHECKSIG",
            "hex": "76a91463df5296c0b6eda57a565201a78ef47855dae6c888ac",
            "reqSigs": 1,
            "type": "pubkeyhash",
            "addresses": [
              "LUL2gvySoqCiBAhMqTLa9XytuwZwZSz3gi"
            ]
          }
        }, 
        {
          "value": 0.00110000,
          "n": 1,
          "scriptPubKey": {
            "asm": "OP_DUP OP_HASH160 574678107c28e7d06687bcdd5ba203e1dd962de1 OP_EQUALVERIFY OP_CHECKSIG",
            "hex": "76a914574678107c28e7d06687bcdd5ba203e1dd962de188ac",
            "reqSigs": 1,
            "type": "pubkeyhash",
            "addresses": [
              "LTBRUB4gPku33Mn9BiKwVMBhS2nJkQ4qb2"
            ]
          }
        }
      ],
      "hex": "01000000034c50eea6480280649d0ccf02ced1710682ac5d117c969be84cbd115176562ce8000000006a47304402200dd84960285a25b36afbe159d3b0ffe7215ac33ce4360f0a2e8eeb1815d89d110220626e60a8e55e7cc24cc9ffdd64d3894aa54accf0d94bc8f23b0ff7de5824f197012102d9628dd97edee7cb20c3afd29f51f47681cb6ca2619e92f2d25fa3eee8415c3fffffffff1fac49e0f6ab59dfe0e847f8dab34115012efe233721d45b628a41e34cbd0cb2010000006a47304402204c4bc4a313f0bac6c7036db4d454c85ae9a22934845eb0270a561e9b51af4893022020ce254b8414ed32a84b31fff605adbabeb006747ca3587f552c6bd17e94085d012102d9628dd97edee7cb20c3afd29f51f47681cb6ca2619e92f2d25fa3eee8415c3fffffffffa0b4ad5e8475dc2687498ba16d365425693bf75c696b3aa193399e4e7c24da0d000000006b483045022100934d9e3fd9d34255a75b65b2cb3afac649bf85925170d6767f645bb8be7d4649022058a99b0afa18c444fb36269cdfb66373c921f34b79aac3f0e5f958d5690896610121025f928f4a6a994e771ad7296b513382c67cf5d9bd4905132307ce20f7a3328a6affffffff02b6d15c02000000001976a91463df5296c0b6eda57a565201a78ef47855dae6c888acb0ad0100000000001976a914574678107c28e7d06687bcdd5ba203e1dd962de188ac00000000"
    }, 
    {
      "txid": "298c8dd499a3bdbd89eefcf2690f3032496e9724d63a5df269771b6d65fb0432",
      "hash": "298c8dd499a3bdbd89eefcf2690f3032496e9724d63a5df269771b6d65fb0432",
      "version": 2,
      "size": 373,
      "vsize": 373,
      "locktime": 1358722,
      "vin": [
        {
          "txid": "ba2b64324096728f658ef669bf24b6b67afc24bedf06e54154138075f8b728f0",
          "vout": 1,
          "scriptSig": {
            "asm": "3045022100a573e014b5e36270f0fcffc2dbc8d6ba99e0572fa815f1331be915b9916c46a6022008a4d83e0a04c24872b2041f6f159d6acf37641e4005a5502daa0924ea291811[ALL] 030deb55864266edf75d45027e81702d79d1211fcc582df26c0f0b0f70eb2a1964",
            "hex": "483045022100a573e014b5e36270f0fcffc2dbc8d6ba99e0572fa815f1331be915b9916c46a6022008a4d83e0a04c24872b2041f6f159d6acf37641e4005a5502daa0924ea2918110121030deb55864266edf75d45027e81702d79d1211fcc582df26c0f0b0f70eb2a1964"
          },
          "sequence": 4294967294
        }, 
        {
          "txid": "9d6e1cafadd4d16c39ad122a93dac058db51cb2c6bea25d1f84aefe4ab08a203",
          "vout": 0,
          "scriptSig": {
            "asm": "304402207b31335925208666a16815e56c1fcb9bf9ccfc699a9bdb3cd31e12960e1c7645022071d3390b85000e01def2c92caa00317b3237e04b8242b27667721c6f22c6e5f2[ALL] 02ee848522119aeb0b50ae5f4beb089a4eadc4b4887dca6df38fe4b649792f34e9",
            "hex": "47304402207b31335925208666a16815e56c1fcb9bf9ccfc699a9bdb3cd31e12960e1c7645022071d3390b85000e01def2c92caa00317b3237e04b8242b27667721c6f22c6e5f2012102ee848522119aeb0b50ae5f4beb089a4eadc4b4887dca6df38fe4b649792f34e9"
          },
          "sequence": 4294967294
        }
      ],
      "vout": [
        {
          "value": 0.15423100,
          "n": 0,
          "scriptPubKey": {
            "asm": "OP_DUP OP_HASH160 6a42184ad8caf89f712d7052769c837a812f6a90 OP_EQUALVERIFY OP_CHECKSIG",
            "hex": "76a9146a42184ad8caf89f712d7052769c837a812f6a9088ac",
            "reqSigs": 1,
            "type": "pubkeyhash",
            "addresses": [
              "LUuo4uC2vi28FERJTK3TBPpXNxARRz4jsk"
            ]
          }
        }, 
        {
          "value": 0.01272524,
          "n": 1,
          "scriptPubKey": {
            "asm": "OP_DUP OP_HASH160 2c74dc40130136e0b4dd0680ceb41549246779b3 OP_EQUALVERIFY OP_CHECKSIG",
            "hex": "76a9142c74dc40130136e0b4dd0680ceb41549246779b388ac",
            "reqSigs": 1,
            "type": "pubkeyhash",
            "addresses": [
              "LPH1zFe2cDrUBXkJy9wgdrQj7yfMCKY5Gk"
            ]
          }
        }
      ],
      "hex": "0200000002f028b7f87580135441e506dfbe24fc7ab6b624bf69f68e658f72964032642bba010000006b483045022100a573e014b5e36270f0fcffc2dbc8d6ba99e0572fa815f1331be915b9916c46a6022008a4d83e0a04c24872b2041f6f159d6acf37641e4005a5502daa0924ea2918110121030deb55864266edf75d45027e81702d79d1211fcc582df26c0f0b0f70eb2a1964feffffff03a208abe4ef4af8d125ea6b2ccb51db58c0da932a12ad396cd1d4adaf1c6e9d000000006a47304402207b31335925208666a16815e56c1fcb9bf9ccfc699a9bdb3cd31e12960e1c7645022071d3390b85000e01def2c92caa00317b3237e04b8242b27667721c6f22c6e5f2012102ee848522119aeb0b50ae5f4beb089a4eadc4b4887dca6df38fe4b649792f34e9feffffff027c56eb00000000001976a9146a42184ad8caf89f712d7052769c837a812f6a9088accc6a1300000000001976a9142c74dc40130136e0b4dd0680ceb41549246779b388ac82bb1400"
    }, 
    {
      "txid": "d30b2c310c83b379196da10d3513f3e69dde702619325147530d13b1a162cb37",
      "hash": "d30b2c310c83b379196da10d3513f3e69dde702619325147530d13b1a162cb37",
      "version": 2,
      "size": 226,
      "vsize": 226,
      "locktime": 1358723,
      "vin": [
        {
          "txid": "28195f17be7bea04e0f25c40f45209955bdf99d7f4188e2a703ac8afa9bff573",
          "vout": 0,
          "scriptSig": {
            "asm": "3045022100de6b5cc7c76a5bb34a60dd8510a7539ed574c99bd25e2fddfe98827265dddcb50220122304b9aa0cb4680772897a563b568c2fcac431a2727809bd59d838b13922a5[ALL] 0212513cb6fc914058875a02db87d1d311cb1579bcf507eff4b94be11911cd99bc",
            "hex": "483045022100de6b5cc7c76a5bb34a60dd8510a7539ed574c99bd25e2fddfe98827265dddcb50220122304b9aa0cb4680772897a563b568c2fcac431a2727809bd59d838b13922a501210212513cb6fc914058875a02db87d1d311cb1579bcf507eff4b94be11911cd99bc"
          },
          "sequence": 4294967294
        }
      ],
      "vout": [
        {
          "value": 0.01000000,
          "n": 0,
          "scriptPubKey": {
            "asm": "OP_DUP OP_HASH160 b126235c08c87a04c29a9bd5a9bfd57ad2d2052b OP_EQUALVERIFY OP_CHECKSIG",
            "hex": "76a914b126235c08c87a04c29a9bd5a9bfd57ad2d2052b88ac",
            "reqSigs": 1,
            "type": "pubkeyhash",
            "addresses": [
              "LbNdZ3sH1eZ3xkSiSt1jZwzQy81npd6gTi"
            ]
          }
        }, 
        {
          "value": 0.47977340,
          "n": 1,
          "scriptPubKey": {
            "asm": "OP_DUP OP_HASH160 1ff21634b90deebf32480196eca50cba860bd206 OP_EQUALVERIFY OP_CHECKSIG",
            "hex": "76a9141ff21634b90deebf32480196eca50cba860bd20688ac",
            "reqSigs": 1,
            "type": "pubkeyhash",
            "addresses": [
              "LN8sDeAAbfXVDja8jDBFq3xpCwwmp3EUxo"
            ]
          }
        }
      ],
      "hex": "020000000173f5bfa9afc83a702a8e18f4d799df5b950952f4405cf2e004ea7bbe175f1928000000006b483045022100de6b5cc7c76a5bb34a60dd8510a7539ed574c99bd25e2fddfe98827265dddcb50220122304b9aa0cb4680772897a563b568c2fcac431a2727809bd59d838b13922a501210212513cb6fc914058875a02db87d1d311cb1579bcf507eff4b94be11911cd99bcfeffffff0240420f00000000001976a914b126235c08c87a04c29a9bd5a9bfd57ad2d2052b88ac7c13dc02000000001976a9141ff21634b90deebf32480196eca50cba860bd20688ac83bb1400"
    }, 
    {
      "txid": "e1ce60b5d02ba52a3df12fde25719ba5579736f343b04297321f99153ccbd7e0",
      "hash": "e1ce60b5d02ba52a3df12fde25719ba5579736f343b04297321f99153ccbd7e0",
      "version": 2,
      "size": 226,
      "vsize": 226,
      "locktime": 1358723,
      "vin": [
        {
          "txid": "f23ae2c63beb33d6d47d86e8c915963c70d8b234297359bae32562466c9ab38d",
          "vout": 1,
          "scriptSig": {
            "asm": "3045022100de5262850296c08bb10e6c7f7711ce8fe1737da1805acdce6919b9404edf785402206f1dfb1382c01e797ee1a67529b805801e7c0c2e66a54ec1b6fd25d8c3d433df[ALL] 0267ddd8e29bbd87a15efca1854848032721d73813d74060b4703e749e60d99833",
            "hex": "483045022100de5262850296c08bb10e6c7f7711ce8fe1737da1805acdce6919b9404edf785402206f1dfb1382c01e797ee1a67529b805801e7c0c2e66a54ec1b6fd25d8c3d433df01210267ddd8e29bbd87a15efca1854848032721d73813d74060b4703e749e60d99833"
          },
          "sequence": 4294967294
        }
      ],
      "vout": [
        {
          "value": 0.01220224,
          "n": 0,
          "scriptPubKey": {
            "asm": "OP_DUP OP_HASH160 27e2448476b1049a83bc28b11a7a66ff98c0acf8 OP_EQUALVERIFY OP_CHECKSIG",
            "hex": "76a91427e2448476b1049a83bc28b11a7a66ff98c0acf888ac",
            "reqSigs": 1,
            "type": "pubkeyhash",
            "addresses": [
              "LNrqg3dFCBvFWakDrZDikJUsNQwBFTZpzK"
            ]
          }
        }, 
        {
          "value": 0.05775908,
          "n": 1,
          "scriptPubKey": {
            "asm": "OP_DUP OP_HASH160 da5c13dddc508dbf858cf82147b4562bda140991 OP_EQUALVERIFY OP_CHECKSIG",
            "hex": "76a914da5c13dddc508dbf858cf82147b4562bda14099188ac",
            "reqSigs": 1,
            "type": "pubkeyhash",
            "addresses": [
              "Lf8XshL3p6V7iyn4yPBrr8umV87oQJNxjh"
            ]
          }
        }
      ],
      "hex": "02000000018db39a6c466225e3ba59732934b2d8703c9615c9e8867dd4d633eb3bc6e23af2010000006b483045022100de5262850296c08bb10e6c7f7711ce8fe1737da1805acdce6919b9404edf785402206f1dfb1382c01e797ee1a67529b805801e7c0c2e66a54ec1b6fd25d8c3d433df01210267ddd8e29bbd87a15efca1854848032721d73813d74060b4703e749e60d99833feffffff02809e1200000000001976a91427e2448476b1049a83bc28b11a7a66ff98c0acf888ac24225800000000001976a914da5c13dddc508dbf858cf82147b4562bda14099188ac83bb1400"
    }
  ],
  "time": 1517183207,
  "mediantime": 1517182920,
  "nonce": 1643472984,
  "bits": "1a047f14",
  "difficulty": 3731199.183374282,
  "chainwork": "00000000000000000000000000000000000000000000003357bfb9f77b2b069c",
  "previousblockhash": "7b289e8bc209d54854e0acaac5e51e63850ab2077e2d9c5dc32038f3e8b0fd42",
  "nextblockhash": "f98bcf8a92d1804e3776259b2440f07be48cf13e608016931e77346a1a57e818"
}
