{
  "hash": "68ef4214572c0bcb364013e295e20a3b5849723a55657ef551caee46e84f653c",
  "confirmations": 2048,
  "strippedsize": 2138,
  "size": 2174,
  "weight": 8588,
  "height": 1358946,
  "version": 536870912,
  "versionHex": "20000000",
  "merkleroot": "2e6d25486c5aee077c8579b3d42ec4591767746257684a76747bfd0acdf688b1",
  "tx": [
    {
      "txid": "e9355b3bb5c33f2bfca7a2e4df4db2b2c332f2219feac51ac725766bc0ce48f3",
      "hash": "7e5f4b8f2469dd42eec149749aa58cc0e2261eab98af0c2455ac32456891827d",
      "version": 1,
      "size": 243,
      "vsize": 216,
      "locktime": 0,
      "vin": [
        {
          "coinbase": "0362bc140486de6e5afabe6d6d4970378f7121b161c02aadc08c822598da3378afd1f93b61975c3f2953ed8fad100000000000000008e00fdbc0030000000c2f545741324b51593830392f",
          "sequence": 0
        }
      ],
      "vout": [
        {
          "value": 25.00791200,
          "n": 0,
          "scriptPubKey": {
            "asm": "OP_DUP OP_HASH160 81308472f5a29a68cec40cbb4cd3f4be72094456 OP_EQUALVERIFY OP_CHECKSIG",
            "hex": "76a91481308472f5a29a68cec40cbb4cd3f4be7209445688ac",
            "reqSigs": 1,
            "type": "pubkeyhash",
            "addresses": [
              "LX13Z1HZKVzRDabi8CsPdGhp7YbC7Q8qtn"
            ]
          }
        }, 
        {
          "value": 0.00000000,
          "n": 1,
          "scriptPubKey": {
            "asm": "OP_RETURN aa21a9ed5a66a831ca472e897c51bbd7974bab7f32f701e95a90ddf181b334bd75fe1149",
            "hex": "6a24aa21a9ed5a66a831ca472e897c51bbd7974bab7f32f701e95a90ddf181b334bd75fe1149",
            "type": "nulldata"
          }
        }
      ],
      "hex": "010000000001010000000000000000000000000000000000000000000000000000000000000000ffffffff4b0362bc140486de6e5afabe6d6d4970378f7121b161c02aadc08c822598da3378afd1f93b61975c3f2953ed8fad100000000000000008e00fdbc0030000000c2f545741324b51593830392f0000000002a00b0f95000000001976a91481308472f5a29a68cec40cbb4cd3f4be7209445688ac0000000000000000266a24aa21a9ed5a66a831ca472e897c51bbd7974bab7f32f701e95a90ddf181b334bd75fe11490120000000000000000000000000000000000000000000000000000000000000000000000000"
    }, 
    {
      "txid": "ea7dbe7672a6cff65c588812765dd59199dc198b3ed97861715d9b4cb3ed3ad7",
      "hash": "ea7dbe7672a6cff65c588812765dd59199dc198b3ed97861715d9b4cb3ed3ad7",
      "version": 1,
      "size": 224,
      "vsize": 224,
      "locktime": 0,
      "vin": [
        {
          "txid": "3c19722a521d77a9f979f9915a67d3ca65441e6054bba8a39833ef4ba920d28f",
          "vout": 1,
          "scriptSig": {
            "asm": "30450221008e6461fdde4255fb1b5a50aade6d821ac9594a9fc78712a954a95d71c76d791502207ddbce2b7105cab3f2844d67424c55c42c4fa6212e15184e3e84787de4e48771[ALL] 03045557468cb480ae3fdf7b18f7869def61be4e141fdfcba7f53ba667d2007c9a",
            "hex": "4830450221008e6461fdde4255fb1b5a50aade6d821ac9594a9fc78712a954a95d71c76d791502207ddbce2b7105cab3f2844d67424c55c42c4fa6212e15184e3e84787de4e48771012103045557468cb480ae3fdf7b18f7869def61be4e141fdfcba7f53ba667d2007c9a"
          },
          "sequence": 4294967295
        }
      ],
      "vout": [
        {
          "value": 5.89156852,
          "n": 0,
          "scriptPubKey": {
            "asm": "OP_HASH160 686a9acd0885f493ffd85e063040b159451539ea OP_EQUAL",
            "hex": "a914686a9acd0885f493ffd85e063040b159451539ea87",
            "reqSigs": 1,
            "type": "scripthash",
            "addresses": [
              "MHRGDQQTJvCp7ZhzrFc9j29DDyucaBfj5M"
            ]
          }
        }, 
        {
          "value": 118.12623717,
          "n": 1,
          "scriptPubKey": {
            "asm": "OP_DUP OP_HASH160 8c184560f54552e065fe1a43a555ab79bb9fd40b OP_EQUALVERIFY OP_CHECKSIG",
            "hex": "76a9148c184560f54552e065fe1a43a555ab79bb9fd40b88ac",
            "reqSigs": 1,
            "type": "pubkeyhash",
            "addresses": [
              "LXzhwSyYhTxZt4piVs7KvYPAWKDdXvMTNo"
            ]
          }
        }
      ],
      "hex": "01000000018fd220a94bef3398a3a8bb54601e4465cad3675a91f979f9a9771d522a72193c010000006b4830450221008e6461fdde4255fb1b5a50aade6d821ac9594a9fc78712a954a95d71c76d791502207ddbce2b7105cab3f2844d67424c55c42c4fa6212e15184e3e84787de4e48771012103045557468cb480ae3fdf7b18f7869def61be4e141fdfcba7f53ba667d2007c9affffffff02f4d11d230000000017a914686a9acd0885f493ffd85e063040b159451539ea87655516c0020000001976a9148c184560f54552e065fe1a43a555ab79bb9fd40b88ac00000000"
    }, 
    {
      "txid": "b8cc02641d79604a4747e0ae889c3bb31b2977afb628add20d6697c10b5de968",
      "hash": "b8cc02641d79604a4747e0ae889c3bb31b2977afb628add20d6697c10b5de968",
      "version": 1,
      "size": 225,
      "vsize": 225,
      "locktime": 0,
      "vin": [
        {
          "txid": "908a4166b5d9d456499fc34ce0eadbcd0d7c9f443c1e178d9509b758c5e762d4",
          "vout": 1,
          "scriptSig": {
            "asm": "3044022024b72c402263ff50c933da3aa9817cebacaaccdf59c316ac7542ecceae3751b3022064fb85480ffb02c070f31553fbf2ca205d433a55215cb0427ff56ec40857a0f6[ALL] 02e9cc5a6e0ba0d224569cc4b2b504279564536b94c7faf9b06bc03bd034cc5068",
            "hex": "473044022024b72c402263ff50c933da3aa9817cebacaaccdf59c316ac7542ecceae3751b3022064fb85480ffb02c070f31553fbf2ca205d433a55215cb0427ff56ec40857a0f6012102e9cc5a6e0ba0d224569cc4b2b504279564536b94c7faf9b06bc03bd034cc5068"
          },
          "sequence": 4294967295
        }
      ],
      "vout": [
        {
          "value": 0.05497526,
          "n": 0,
          "scriptPubKey": {
            "asm": "OP_DUP OP_HASH160 9ccaa677fc0a80fd89639e61cd6a59adb5015d27 OP_EQUALVERIFY OP_CHECKSIG",
            "hex": "76a9149ccaa677fc0a80fd89639e61cd6a59adb5015d2788ac",
            "reqSigs": 1,
            "type": "pubkeyhash",
            "addresses": [
              "LZWzSXTsmv1U7xb8Vi7h7PWcJxZcsGqb88"
            ]
          }
        }, 
        {
          "value": 0.67804090,
          "n": 1,
          "scriptPubKey": {
            "asm": "OP_DUP OP_HASH160 1a8787964935c06311f2bb9ab7d574e3c51ebf9b OP_EQUALVERIFY OP_CHECKSIG",
            "hex": "76a9141a8787964935c06311f2bb9ab7d574e3c51ebf9b88ac",
            "reqSigs": 1,
            "type": "pubkeyhash",
            "addresses": [
              "LMeEBxv4QqRpgbkzxb3Bo98xG2LeFLqScd"
            ]
          }
        }
      ],
      "hex": "0100000001d462e7c558b709958d171e3c449f7c0dcddbeae04cc39f4956d4d9b566418a90010000006a473044022024b72c402263ff50c933da3aa9817cebacaaccdf59c316ac7542ecceae3751b3022064fb85480ffb02c070f31553fbf2ca205d433a55215cb0427ff56ec40857a0f6012102e9cc5a6e0ba0d224569cc4b2b504279564536b94c7faf9b06bc03bd034cc5068ffffffff02b6e25300000000001976a9149ccaa677fc0a80fd89639e61cd6a59adb5015d2788acba9b0a04000000001976a9141a8787964935c06311f2bb9ab7d574e3c51ebf9b88ac00000000"
    }, 
    {
      "txid": "7e365ef4497737cddd54337cef8db968580a3386712438ca07655cb68db49d96",
      "hash": "7e365ef4497737cddd54337cef8db968580a3386712438ca07655cb68db49d96",
      "version": 1,
      "size": 225,
      "vsize": 225,
      "locktime": 0,
      "vin": [
        {
          "txid": "655043cfadb15b5d1aa03c825c41a733a4f6f408c3fc8885aca6add2ce6be1dc",
          "vout": 1,
          "scriptSig": {
            "asm": "304402201c601f05e0cc04ef8e0448d7dd7510c7a71499218c0a710f2f20093430e7b6b5022043f2d3a6262b8764c40b2a5e6cf31d6c3218df319da738b9e50f4cbbca209230[ALL] 024e6f9cbe7aebad4efcc68964ae317fd0c3e85e8827d05f2d9b719503caf2b894",
            "hex": "47304402201c601f05e0cc04ef8e0448d7dd7510c7a71499218c0a710f2f20093430e7b6b5022043f2d3a6262b8764c40b2a5e6cf31d6c3218df319da738b9e50f4cbbca2092300121024e6f9cbe7aebad4efcc68964ae317fd0c3e85e8827d05f2d9b719503caf2b894"
          },
          "sequence": 4294967295
        }
      ],
      "vout": [
        {
          "value": 0.34630865,
          "n": 0,
          "scriptPubKey": {
            "asm": "OP_DUP OP_HASH160 9d83e9a4c8a7b51acee3894dab20a7fc1f6a55ac OP_EQUALVERIFY OP_CHECKSIG",
            "hex": "76a9149d83e9a4c8a7b51acee3894dab20a7fc1f6a55ac88ac",
            "reqSigs": 1,
            "type": "pubkeyhash",
            "addresses": [
              "LZapNnPhgaGXBMUG93knUqwUthuWysoGFS"
            ]
          }
        }, 
        {
          "value": 0.65023935,
          "n": 1,
          "scriptPubKey": {
            "asm": "OP_DUP OP_HASH160 1c27d5725b8794342601d0a6f758792e5bef9d7d OP_EQUALVERIFY OP_CHECKSIG",
            "hex": "76a9141c27d5725b8794342601d0a6f758792e5bef9d7d88ac",
            "reqSigs": 1,
            "type": "pubkeyhash",
            "addresses": [
              "LMnpuHQ8zucANCcKebbW5DsxJKSTECRHxz"
            ]
          }
        }
      ],
      "hex": "0100000001dce16bced2ada6ac8588fcc308f4f6a433a7415c823ca01a5d5bb1adcf435065010000006a47304402201c601f05e0cc04ef8e0448d7dd7510c7a71499218c0a710f2f20093430e7b6b5022043f2d3a6262b8764c40b2a5e6cf31d6c3218df319da738b9e50f4cbbca2092300121024e6f9cbe7aebad4efcc68964ae317fd0c3e85e8827d05f2d9b719503caf2b894ffffffff02d16c1002000000001976a9149d83e9a4c8a7b51acee3894dab20a7fc1f6a55ac88acbf2fe003000000001976a9141c27d5725b8794342601d0a6f758792e5bef9d7d88ac00000000"
    }, 
    {
      "txid": "74d6eeabe330db716b3ac1362302072fed7b4ebfc960d6bb7386ec15e56dd312",
      "hash": "74d6eeabe330db716b3ac1362302072fed7b4ebfc960d6bb7386ec15e56dd312",
      "version": 2,
      "size": 951,
      "vsize": 951,
      "locktime": 1358851,
      "vin": [
        {
          "txid": "3c500ea801c78a3c1b74b51acdf488a605e12c57e4c8a3710f8d6e102ce1a4d4",
          "vout": 5,
          "scriptSig": {
            "asm": "30450221008acc75e1f157105bef72040cb94232515a6ee8f4f354e535a9f008afe0ea98db02205c169e7b0e07369a5aec1ce36260eb372bc4dfd7933e164cb1830f8a18a6237d[ALL] 029d9da9faa5943184756ddd25daa03c16c660fc5ddda05f2d8d10c8e3224f5248",
            "hex": "4830450221008acc75e1f157105bef72040cb94232515a6ee8f4f354e535a9f008afe0ea98db02205c169e7b0e07369a5aec1ce36260eb372bc4dfd7933e164cb1830f8a18a6237d0121029d9da9faa5943184756ddd25daa03c16c660fc5ddda05f2d8d10c8e3224f5248"
          },
          "sequence": 4294967294
        }, 
        {
          "txid": "9e2b9f5ac01b898840c8438d063259a12385d75f5f44f419aeb72829350c07a7",
          "vout": 11,
          "scriptSig": {
            "asm": "304402200ddfbd58326b702dfc69d665ff9a58c9609e295e9f2e2c79a31fba999534e1ae022061dbc6c4a7f54a2b7425a8158e53dc007158b67336e41d9060b34c1841f8f4e2[ALL] 02e6210cc307cfc56827935e43278a584e06aec33a088ac17227645a8b5d29ecf9",
            "hex": "47304402200ddfbd58326b702dfc69d665ff9a58c9609e295e9f2e2c79a31fba999534e1ae022061dbc6c4a7f54a2b7425a8158e53dc007158b67336e41d9060b34c1841f8f4e2012102e6210cc307cfc56827935e43278a584e06aec33a088ac17227645a8b5d29ecf9"
          },
          "sequence": 4294967294
        }, 
        {
          "txid": "368fe04b9fb9bd710bd6a096faa2cdbb1346f2f91a4ff5b266dd277255889fb1",
          "vout": 2,
          "scriptSig": {
            "asm": "3045022100a7ecd2ca983eeaa03548d20b7acb65629c57b2e8349586e53aef0d0d116ab1f902204b658b0f0b82ec127aa0a8aa0b575503620bab375f4b7e286fcc2417a37cb8a8[ALL] 02c1a1026a190df39931e58d55a9142aae249211e36e0af9574406a78eee053316",
            "hex": "483045022100a7ecd2ca983eeaa03548d20b7acb65629c57b2e8349586e53aef0d0d116ab1f902204b658b0f0b82ec127aa0a8aa0b575503620bab375f4b7e286fcc2417a37cb8a8012102c1a1026a190df39931e58d55a9142aae249211e36e0af9574406a78eee053316"
          },
          "sequence": 4294967294
        }, 
        {
          "txid": "2e7ee446e43b523a199f3b8fe6369a976f61182a68b7d747832c67f2a6ef6dea",
          "vout": 1,
          "scriptSig": {
            "asm": "30440220773611136fc670c5fad330c128de94a55edae0ff1a1588f3652f6fde78e0313402207141e5e635af580c5d6dc49c415d1b7e587dd6163a537c69a65018b3ed5f2604[ALL] 03100a684b186617a5ebdca56847f144c6847a61b32afab8fa37a3c1f6c9b89bf0",
            "hex": "4730440220773611136fc670c5fad330c128de94a55edae0ff1a1588f3652f6fde78e0313402207141e5e635af580c5d6dc49c415d1b7e587dd6163a537c69a65018b3ed5f2604012103100a684b186617a5ebdca56847f144c6847a61b32afab8fa37a3c1f6c9b89bf0"
          },
          "sequence": 4294967294
        }, 
        {
          "txid": "31d7c3ac069d0c4bea68364c1b56bd9e6153e31f7c3b4d8443fea1ec81c03d88",
          "vout": 0,
          "scriptSig": {
            "asm": "304402206766f6f2462d746edc75280b06341c8083ceead7e0aeb5ee67fa0fee5faea203022051eda387e7e5b6f94646c5135bc5a34abd17b2da5019e9cdbd2939e838ef4e0d[ALL] 02e4ce593aaa5efdc8ddd7ade6f7e52d2eb123dcdef1959723ad6916b5f6b87f03",
            "hex": "47304402206766f6f2462d746edc75280b06341c8083ceead7e0aeb5ee67fa0fee5faea203022051eda387e7e5b6f94646c5135bc5a34abd17b2da5019e9cdbd2939e838ef4e0d012102e4ce593aaa5efdc8ddd7ade6f7e52d2eb123dcdef1959723ad6916b5f6b87f03"
          },
          "sequence": 4294967294
        }
      ],
      "vout": [
        {
          "value": 0.17184700,
          "n": 0,
          "scriptPubKey": {
            "asm": "OP_DUP OP_HASH160 082948fe94f065a99a6c192f9df52571133ccffc OP_EQUALVERIFY OP_CHECKSIG",
            "hex": "76a914082948fe94f065a99a6c192f9df52571133ccffc88ac",
            "reqSigs": 1,
            "type": "pubkeyhash",
            "addresses": [
              "LKy78HinApU58t2GpZBvDnw62SXVZLMMwM"
            ]
          }
        }, 
        {
          "value": 0.10313400,
          "n": 1,
          "scriptPubKey": {
            "asm": "OP_DUP OP_HASH160 8bae9dd4990d20fbf71794ad5aa1ee8716708b0a OP_EQUALVERIFY OP_CHECKSIG",
            "hex": "76a9148bae9dd4990d20fbf71794ad5aa1ee8716708b0a88ac",
            "reqSigs": 1,
            "type": "pubkeyhash",
            "addresses": [
              "LXxXNSqehTM9KTvQSpoJKwWNbn4hjFVUDd"
            ]
          }
        }, 
        {
          "value": 3.00000000,
          "n": 2,
          "scriptPubKey": {
            "asm": "OP_DUP OP_HASH160 97d42a13af92155b682eceb586ec5570917e8bc7 OP_EQUALVERIFY OP_CHECKSIG",
            "hex": "76a91497d42a13af92155b682eceb586ec5570917e8bc788ac",
            "reqSigs": 1,
            "type": "pubkeyhash",
            "addresses": [
              "LZ4kTcnSqoW8CCVSdxe1Emg3NEW4gkCSxS"
            ]
          }
        }, 
        {
          "value": 28.01626300,
          "n": 3,
          "scriptPubKey": {
            "asm": "OP_DUP OP_HASH160 29709b200170faba4888e30219032e2d0ed3f712 OP_EQUALVERIFY OP_CHECKSIG",
            "hex": "76a91429709b200170faba4888e30219032e2d0ed3f71288ac",
            "reqSigs": 1,
            "type": "pubkeyhash",
            "addresses": [
              "LP14s5RhdP9APRQ5xn4bqyYa5xMFCmrfUX"
            ]
          }
        }, 
        {
          "value": 10.84600000,
          "n": 4,
          "scriptPubKey": {
            "asm": "OP_DUP OP_HASH160 9d8d81b1bd7d701e8ce36b9975c58cc46bc4cab3 OP_EQUALVERIFY OP_CHECKSIG",
            "hex": "76a9149d8d81b1bd7d701e8ce36b9975c58cc46bc4cab388ac",
            "reqSigs": 1,
            "type": "pubkeyhash",
            "addresses": [
              "LZb1sP9KQQEBVus4RXK1fYm5n8UK9eFdKi"
            ]
          }
        }, 
        {
          "value": 0.00904601,
          "n": 5,
          "scriptPubKey": {
            "asm": "OP_DUP OP_HASH160 fe6b55de7a6f1e4b3e661e1fcc6c409959e9ed28 OP_EQUALVERIFY OP_CHECKSIG",
            "hex": "76a914fe6b55de7a6f1e4b3e661e1fcc6c409959e9ed2888ac",
            "reqSigs": 1,
            "type": "pubkeyhash",
            "addresses": [
              "LiRCUjXhtAWe5Qd7KjDkKVjiDYb4tLtcw4"
            ]
          }
        }
      ],
      "hex": "0200000005d4a4e12c106e8d0f71a3c8e4572ce105a688f4cd1ab5741b3c8ac701a80e503c050000006b4830450221008acc75e1f157105bef72040cb94232515a6ee8f4f354e535a9f008afe0ea98db02205c169e7b0e07369a5aec1ce36260eb372bc4dfd7933e164cb1830f8a18a6237d0121029d9da9faa5943184756ddd25daa03c16c660fc5ddda05f2d8d10c8e3224f5248feffffffa7070c352928b7ae19f4445f5fd78523a15932068d43c84088891bc05a9f2b9e0b0000006a47304402200ddfbd58326b702dfc69d665ff9a58c9609e295e9f2e2c79a31fba999534e1ae022061dbc6c4a7f54a2b7425a8158e53dc007158b67336e41d9060b34c1841f8f4e2012102e6210cc307cfc56827935e43278a584e06aec33a088ac17227645a8b5d29ecf9feffffffb19f88557227dd66b2f54f1af9f24613bbcda2fa96a0d60b71bdb99f4be08f36020000006b483045022100a7ecd2ca983eeaa03548d20b7acb65629c57b2e8349586e53aef0d0d116ab1f902204b658b0f0b82ec127aa0a8aa0b575503620bab375f4b7e286fcc2417a37cb8a8012102c1a1026a190df39931e58d55a9142aae249211e36e0af9574406a78eee053316feffffffea6defa6f2672c8347d7b7682a18616f979a36e68f3b9f193a523be446e47e2e010000006a4730440220773611136fc670c5fad330c128de94a55edae0ff1a1588f3652f6fde78e0313402207141e5e635af580c5d6dc49c415d1b7e587dd6163a537c69a65018b3ed5f2604012103100a684b186617a5ebdca56847f144c6847a61b32afab8fa37a3c1f6c9b89bf0feffffff883dc081eca1fe43844d3b7c1fe353619ebd561b4c3668ea4b0c9d06acc3d731000000006a47304402206766f6f2462d746edc75280b06341c8083ceead7e0aeb5ee67fa0fee5faea203022051eda387e7e5b6f94646c5135bc5a34abd17b2da5019e9cdbd2939e838ef4e0d012102e4ce593aaa5efdc8ddd7ade6f7e52d2eb123dcdef1959723ad6916b5f6b87f03feffffff06bc370601000000001976a914082948fe94f065a99a6c192f9df52571133ccffc88acb85e9d00000000001976a9148bae9dd4990d20fbf71794ad5aa1ee8716708b0a88ac00a3e111000000001976a91497d42a13af92155b682eceb586ec5570917e8bc788acbc6cfda6000000001976a91429709b200170faba4888e30219032e2d0ed3f71288acc0aea540000000001976a9149d8d81b1bd7d701e8ce36b9975c58cc46bc4cab388ac99cd0d00000000001976a914fe6b55de7a6f1e4b3e661e1fcc6c409959e9ed2888ac03bc1400"
    }, 
    {
      "txid": "9e4903eee68129b7deb9a0ed041e7c7cce8733482a460255f89b5e64ffb844db",
      "hash": "9e4903eee68129b7deb9a0ed041e7c7cce8733482a460255f89b5e64ffb844db",
      "version": 1,
      "size": 225,
      "vsize": 225,
      "locktime": 1358855,
      "vin": [
        {
          "txid": "293737c23165adffb548ff3c45afb65bf1095039b687ccbc8c17da04d3194fc7",
          "vout": 1,
          "scriptSig": {
            "asm": "304402200b89c0e53e85df2141332059451cf5770f0bac1ec469ef83af30bb849251955a02200a4744856ab384aa298705fe4c09e479c03760ab94c583004d26419409653614[ALL] 03d05704f8671f45ec70ecd48c5045645cea6c382c3feb7dce12e8706132fe3d3c",
            "hex": "47304402200b89c0e53e85df2141332059451cf5770f0bac1ec469ef83af30bb849251955a02200a4744856ab384aa298705fe4c09e479c03760ab94c583004d26419409653614012103d05704f8671f45ec70ecd48c5045645cea6c382c3feb7dce12e8706132fe3d3c"
          },
          "sequence": 4294967294
        }
      ],
      "vout": [
        {
          "value": 0.34259778,
          "n": 0,
          "scriptPubKey": {
            "asm": "OP_DUP OP_HASH160 877d1f03601ad74c0b2dd55f5ea5343be1e5f231 OP_EQUALVERIFY OP_CHECKSIG",
            "hex": "76a914877d1f03601ad74c0b2dd55f5ea5343be1e5f23188ac",
            "reqSigs": 1,
            "type": "pubkeyhash",
            "addresses": [
              "LXaMNgNmQQSZxakDGpsetmCghKGy3ntFKw"
            ]
          }
        }, 
        {
          "value": 0.07046167,
          "n": 1,
          "scriptPubKey": {
            "asm": "OP_DUP OP_HASH160 7bdbda562593a10ac1782a75dbf5376f7fe2cc74 OP_EQUALVERIFY OP_CHECKSIG",
            "hex": "76a9147bdbda562593a10ac1782a75dbf5376f7fe2cc7488ac",
            "reqSigs": 1,
            "type": "pubkeyhash",
            "addresses": [
              "LWWrkTGzwghEpUAXd2yEQdjaczeYFt2JiV"
            ]
          }
        }
      ],
      "hex": "0100000001c74f19d304da178cbccc87b6395009f15bb6af453cff48b5ffad6531c2373729010000006a47304402200b89c0e53e85df2141332059451cf5770f0bac1ec469ef83af30bb849251955a02200a4744856ab384aa298705fe4c09e479c03760ab94c583004d26419409653614012103d05704f8671f45ec70ecd48c5045645cea6c382c3feb7dce12e8706132fe3d3cfeffffff0242c30a02000000001976a914877d1f03601ad74c0b2dd55f5ea5343be1e5f23188ac17846b00000000001976a9147bdbda562593a10ac1782a75dbf5376f7fe2cc7488ac07bc1400"
    }
  ],
  "time": 1517215331,
  "mediantime": 1517215154,
  "nonce": 2073686230,
  "bits": "1a042eae",
  "difficulty": 4011378.762614286,
  "chainwork": "0000000000000000000000000000000000000000000000338b9f1bb9ce099246",
  "previousblockhash": "ae627c6fd87258b709c790245c08dcea04e65fa8d54a8fd6d7e842bc72895a3f",
  "nextblockhash": "f038378c021492fa79c6367cff086f2dc9b67493e7eec153d0b0a5082fa82cd6"
}
