{
  "hash": "6908f8a5b8fb5d244434ccff22e6f4541be7b9c2c9c651c17701b2a977c4ce81",
  "confirmations": 180,
  "strippedsize": 2715,
  "size": 2751,
  "weight": 10896,
  "height": 1360814,
  "version": 536870912,
  "versionHex": "20000000",
  "merkleroot": "79bdc642c6071556d872ad7b54adeeb444b717d089e21738f0c291fbb5dc7cc7",
  "tx": [
    {
      "txid": "34baec0f26994b5dfd9e315ccacf7f9e1fb5df09c08365921e41834439bc1743",
      "hash": "17879b36825e355141a8a5a09ef0379abe80f2220da4671d7a5f5dc4b6476c9a",
      "version": 1,
      "size": 244,
      "vsize": 217,
      "locktime": 0,
      "vin": [
        {
          "coinbase": "03aec3140498fb725a08fabe6d6d1077a79c03c11dae35b2366ef595be89c80984b7acdd022101b493695be6bced010000000000000017ffffd0020000000d2f6e6f64655374726174756d2f",
          "sequence": 0
        }
      ],
      "vout": [
        {
          "value": 0.00000000,
          "n": 0,
          "scriptPubKey": {
            "asm": "OP_RETURN aa21a9ed37920aecd3127d84a918be784a10b85167219edd79e99dd99f0e7932320be670",
            "hex": "6a24aa21a9ed37920aecd3127d84a918be784a10b85167219edd79e99dd99f0e7932320be670",
            "type": "nulldata"
          }
        }, 
        {
          "value": 25.01520452,
          "n": 1,
          "scriptPubKey": {
            "asm": "OP_DUP OP_HASH160 64043c9c485c391d590861bd5455431d5da57e8f OP_EQUALVERIFY OP_CHECKSIG",
            "hex": "76a91464043c9c485c391d590861bd5455431d5da57e8f88ac",
            "reqSigs": 1,
            "type": "pubkeyhash",
            "addresses": [
              "LULnumgqPdNgb5Uf8N8fksiL6YB6jjLrvj"
            ]
          }
        }
      ],
      "hex": "010000000001010000000000000000000000000000000000000000000000000000000000000000ffffffff4c03aec3140498fb725a08fabe6d6d1077a79c03c11dae35b2366ef595be89c80984b7acdd022101b493695be6bced010000000000000017ffffd0020000000d2f6e6f64655374726174756d2f00000000020000000000000000266a24aa21a9ed37920aecd3127d84a918be784a10b85167219edd79e99dd99f0e7932320be670442c1a95000000001976a91464043c9c485c391d590861bd5455431d5da57e8f88ac0120000000000000000000000000000000000000000000000000000000000000000000000000"
    }, 
    {
      "txid": "60283592a30013b1b26a01a3a18707063cb8393123ad2cbc034d849ac3fdf7b2",
      "hash": "60283592a30013b1b26a01a3a18707063cb8393123ad2cbc034d849ac3fdf7b2",
      "version": 1,
      "size": 369,
      "vsize": 369,
      "locktime": 0,
      "vin": [
        {
          "txid": "2c7d636c76a327a1347bad8e888d0577df95002f9240206b63edcb244f70bdbd",
          "vout": 1,
          "scriptSig": {
            "asm": "0 304402200b098c442b6d9706b06d687d54f6c1d6930d003db639558df2a2fa1564450a7c0220344781c81a02384fee85124f1506f2e0d7252570ce27d462af26dbddfc52b8ae[ALL] 30440220410a9a21827e6953dad18c073cacfa2bf24222e6b76f196b8a79fd44572efbdf02200a2141dcf6f91e94936c294b9c8f38271eb0b96182cc7d88cca9c02aaa5f30a3[ALL] 5221035b8f1eaba2de1515f5bd1a269a2417238f0c0b8c11605c608817acc8ba402ac62103734006d62654b7ca1f2303691784060edf931c373d5ba2bde8a8edf963625f55210267790ee9bee16d182fde07137f3dac29d60dc55490e2ee494bb8f1cdff3dfd3b53ae",
            "hex": "0047304402200b098c442b6d9706b06d687d54f6c1d6930d003db639558df2a2fa1564450a7c0220344781c81a02384fee85124f1506f2e0d7252570ce27d462af26dbddfc52b8ae014730440220410a9a21827e6953dad18c073cacfa2bf24222e6b76f196b8a79fd44572efbdf02200a2141dcf6f91e94936c294b9c8f38271eb0b96182cc7d88cca9c02aaa5f30a3014c695221035b8f1eaba2de1515f5bd1a269a2417238f0c0b8c11605c608817acc8ba402ac62103734006d62654b7ca1f2303691784060edf931c373d5ba2bde8a8edf963625f55210267790ee9bee16d182fde07137f3dac29d60dc55490e2ee494bb8f1cdff3dfd3b53ae"
          },
          "sequence": 4294967295
        }
      ],
      "vout": [
        {
          "value": 9.36368872,
          "n": 0,
          "scriptPubKey": {
            "asm": "OP_HASH160 87fb9275190e9a32877c89291d2177963d39d0a8 OP_EQUAL",
            "hex": "a91487fb9275190e9a32877c89291d2177963d39d0a887",
            "reqSigs": 1,
            "type": "scripthash",
            "addresses": [
              "MLJAps22B3t9sYvETsCaP7hrLPrdPRjd5W"
            ]
          }
        }, 
        {
          "value": 1.50800000,
          "n": 1,
          "scriptPubKey": {
            "asm": "OP_DUP OP_HASH160 cac95fcd74ff2d6e9c781fde05cf70fe927b6da6 OP_EQUALVERIFY OP_CHECKSIG",
            "hex": "76a914cac95fcd74ff2d6e9c781fde05cf70fe927b6da688ac",
            "reqSigs": 1,
            "type": "pubkeyhash",
            "addresses": [
              "LdiBzgwcVPrcVhxy1V33Anwvbi1TPwvULi"
            ]
          }
        }
      ],
      "hex": "0100000001bdbd704f24cbed636b2040922f0095df77058d888ead7b34a127a3766c637d2c01000000fc0047304402200b098c442b6d9706b06d687d54f6c1d6930d003db639558df2a2fa1564450a7c0220344781c81a02384fee85124f1506f2e0d7252570ce27d462af26dbddfc52b8ae014730440220410a9a21827e6953dad18c073cacfa2bf24222e6b76f196b8a79fd44572efbdf02200a2141dcf6f91e94936c294b9c8f38271eb0b96182cc7d88cca9c02aaa5f30a3014c695221035b8f1eaba2de1515f5bd1a269a2417238f0c0b8c11605c608817acc8ba402ac62103734006d62654b7ca1f2303691784060edf931c373d5ba2bde8a8edf963625f55210267790ee9bee16d182fde07137f3dac29d60dc55490e2ee494bb8f1cdff3dfd3b53aeffffffff02e8dacf370000000017a91487fb9275190e9a32877c89291d2177963d39d0a8878006fd08000000001976a914cac95fcd74ff2d6e9c781fde05cf70fe927b6da688ac00000000"
    }, 
    {
      "txid": "632ca01731485508b98846167b9391f20cc329d0172500044ef5c861673767f6",
      "hash": "632ca01731485508b98846167b9391f20cc329d0172500044ef5c861673767f6",
      "version": 1,
      "size": 225,
      "vsize": 225,
      "locktime": 0,
      "vin": [
        {
          "txid": "223c828e2d4e5af5cd4365d49783fa2d8fd7db8f204c988ab505bb79a5a68bf2",
          "vout": 1,
          "scriptSig": {
            "asm": "304402206354cb86df20e7011697012005658fb6b16c0cba4eefac0f8aabffcaf36ea95102207fe5bfa78071e6342ed5b275f49f6e5dd5a508162777d1ed16eda33eb0b469ab[ALL] 0324c3f616ba06f28d88b59b1a33cb61d206bc68924a949e9519519e15f07dc890",
            "hex": "47304402206354cb86df20e7011697012005658fb6b16c0cba4eefac0f8aabffcaf36ea95102207fe5bfa78071e6342ed5b275f49f6e5dd5a508162777d1ed16eda33eb0b469ab01210324c3f616ba06f28d88b59b1a33cb61d206bc68924a949e9519519e15f07dc890"
          },
          "sequence": 4294967295
        }
      ],
      "vout": [
        {
          "value": 6.00000000,
          "n": 0,
          "scriptPubKey": {
            "asm": "OP_DUP OP_HASH160 57a3a2e982a6519d9242b87e00be37c277e9cea0 OP_EQUALVERIFY OP_CHECKSIG",
            "hex": "76a91457a3a2e982a6519d9242b87e00be37c277e9cea088ac",
            "reqSigs": 1,
            "type": "pubkeyhash",
            "addresses": [
              "LTDM5ZFrzhT131LsApMdPGc3W3VtJumvuY"
            ]
          }
        }, 
        {
          "value": 2.74777001,
          "n": 1,
          "scriptPubKey": {
            "asm": "OP_DUP OP_HASH160 439176fca25090e12952f6980d9189eb5079a1bb OP_EQUALVERIFY OP_CHECKSIG",
            "hex": "76a914439176fca25090e12952f6980d9189eb5079a1bb88ac",
            "reqSigs": 1,
            "type": "pubkeyhash",
            "addresses": [
              "LRPDo8spxF2niShLxo2Xk5WqkAWJW8dLh5"
            ]
          }
        }
      ],
      "hex": "0100000001f28ba6a579bb05b58a984c208fdbd78f2dfa8397d46543cdf55a4e2d8e823c22010000006a47304402206354cb86df20e7011697012005658fb6b16c0cba4eefac0f8aabffcaf36ea95102207fe5bfa78071e6342ed5b275f49f6e5dd5a508162777d1ed16eda33eb0b469ab01210324c3f616ba06f28d88b59b1a33cb61d206bc68924a949e9519519e15f07dc890ffffffff020046c323000000001976a91457a3a2e982a6519d9242b87e00be37c277e9cea088aca9c36010000000001976a914439176fca25090e12952f6980d9189eb5079a1bb88ac00000000"
    }, 
    {
      "txid": "190a73550151c0321de28b99e24fcd2e8b7c1d3b4c1daffc55b2f9e9f68d90b2",
      "hash": "190a73550151c0321de28b99e24fcd2e8b7c1d3b4c1daffc55b2f9e9f68d90b2",
      "version": 1,
      "size": 192,
      "vsize": 192,
      "locktime": 0,
      "vin": [
        {
          "txid": "5b07392645b0858304f7377d5cef73c075aa7261e958124dde30fad7fadb4353",
          "vout": 1,
          "scriptSig": {
            "asm": "3045022100846b7282106fa12551841ab9716e94d60f0d9fb4a7bec5f1b447f93abd9b5a05022013f7ae90a7e16a50f5e329d315ea6fd3d3019331a755056971e1d815d393aaa3[ALL] 03df51e02b5cd1043982338f3cca15fd75026e21dd6ecc13bf4074c5ecd23c8a9a",
            "hex": "483045022100846b7282106fa12551841ab9716e94d60f0d9fb4a7bec5f1b447f93abd9b5a05022013f7ae90a7e16a50f5e329d315ea6fd3d3019331a755056971e1d815d393aaa3012103df51e02b5cd1043982338f3cca15fd75026e21dd6ecc13bf4074c5ecd23c8a9a"
          },
          "sequence": 4294967295
        }
      ],
      "vout": [
        {
          "value": 0.09827340,
          "n": 0,
          "scriptPubKey": {
            "asm": "OP_DUP OP_HASH160 13ccb7e27b82706cfc27026e262d208c006e4e9b OP_EQUALVERIFY OP_CHECKSIG",
            "hex": "76a91413ccb7e27b82706cfc27026e262d208c006e4e9b88ac",
            "reqSigs": 1,
            "type": "pubkeyhash",
            "addresses": [
              "LM2eLwAHgKgsxQgBotkAy5zhAdwaaMhmHu"
            ]
          }
        }
      ],
      "hex": "01000000015343dbfad7fa30de4d1258e96172aa75c073ef5c7d37f7048385b0452639075b010000006b483045022100846b7282106fa12551841ab9716e94d60f0d9fb4a7bec5f1b447f93abd9b5a05022013f7ae90a7e16a50f5e329d315ea6fd3d3019331a755056971e1d815d393aaa3012103df51e02b5cd1043982338f3cca15fd75026e21dd6ecc13bf4074c5ecd23c8a9affffffff010cf49500000000001976a91413ccb7e27b82706cfc27026e262d208c006e4e9b88ac00000000"
    }, 
    {
      "txid": "64722bfc60db6b41a33a745cb2b50458e621de42aabd0da9658fcb33a6883e42",
      "hash": "64722bfc60db6b41a33a745cb2b50458e621de42aabd0da9658fcb33a6883e42",
      "version": 2,
      "size": 372,
      "vsize": 372,
      "locktime": 0,
      "vin": [
        {
          "txid": "b3e3bfabc194148d86f9a78f2d3fe1f909eeb1b261aae748bca03c2381906d11",
          "vout": 0,
          "scriptSig": {
            "asm": "30440220632d782778ef1af60b9bef5a3a113d6dc86841fd490e8a97e0f513c00187768c0220035106a1dcab956a6fa027c61d2fcf78f7cec3e2cdeaec42dbc377ee67ea9832[ALL] 02f24a1e9132d7ad2ec556d94a49823c2ff12604e8f1e363b11e79035258ef27a6",
            "hex": "4730440220632d782778ef1af60b9bef5a3a113d6dc86841fd490e8a97e0f513c00187768c0220035106a1dcab956a6fa027c61d2fcf78f7cec3e2cdeaec42dbc377ee67ea9832012102f24a1e9132d7ad2ec556d94a49823c2ff12604e8f1e363b11e79035258ef27a6"
          },
          "sequence": 4294967295
        }, 
        {
          "txid": "213bd3cf4c55764742fbac6f909e000b44ce71203dbb2e125988a5acaddd4b87",
          "vout": 0,
          "scriptSig": {
            "asm": "304402205dcc02861d554bb71786feb7e63563ee203280a69afc75baafd036900ceb15a302206c4ac15ba5ec1f7592e138e56f59cd4e60b1e835c01417276dcf38b3174b97b8[ALL] 03f39a40b07b3c2ec7b0700f011f5ff22f8bcfb8bf5d2fca0111abf35d5d6323bc",
            "hex": "47304402205dcc02861d554bb71786feb7e63563ee203280a69afc75baafd036900ceb15a302206c4ac15ba5ec1f7592e138e56f59cd4e60b1e835c01417276dcf38b3174b97b8012103f39a40b07b3c2ec7b0700f011f5ff22f8bcfb8bf5d2fca0111abf35d5d6323bc"
          },
          "sequence": 4294967295
        }
      ],
      "vout": [
        {
          "value": 10.58600000,
          "n": 0,
          "scriptPubKey": {
            "asm": "OP_DUP OP_HASH160 b4a559e0108aafbec0f49d1a549207c37843ac42 OP_EQUALVERIFY OP_CHECKSIG",
            "hex": "76a914b4a559e0108aafbec0f49d1a549207c37843ac4288ac",
            "reqSigs": 1,
            "type": "pubkeyhash",
            "addresses": [
              "Lbh7yY5PvqSaMT6UzrJ8vGNE6q5MCAduwZ"
            ]
          }
        }, 
        {
          "value": 4.41629934,
          "n": 1,
          "scriptPubKey": {
            "asm": "OP_DUP OP_HASH160 042f3dc50a5924c49c357e437b0048b5c0ea614b OP_EQUALVERIFY OP_CHECKSIG",
            "hex": "76a914042f3dc50a5924c49c357e437b0048b5c0ea614b88ac",
            "reqSigs": 1,
            "type": "pubkeyhash",
            "addresses": [
              "LKc5ZMyuBb3SHAoC1QftidjqwZ9Ek4Pbmu"
            ]
          }
        }
      ],
      "hex": "0200000002116d9081233ca0bc48e7aa61b2b1ee09f9e13f2d8fa7f9868d1494c1abbfe3b3000000006a4730440220632d782778ef1af60b9bef5a3a113d6dc86841fd490e8a97e0f513c00187768c0220035106a1dcab956a6fa027c61d2fcf78f7cec3e2cdeaec42dbc377ee67ea9832012102f24a1e9132d7ad2ec556d94a49823c2ff12604e8f1e363b11e79035258ef27a6ffffffff874bddadaca58859122ebb3d2071ce440b009e906facfb424776554ccfd33b21000000006a47304402205dcc02861d554bb71786feb7e63563ee203280a69afc75baafd036900ceb15a302206c4ac15ba5ec1f7592e138e56f59cd4e60b1e835c01417276dcf38b3174b97b8012103f39a40b07b3c2ec7b0700f011f5ff22f8bcfb8bf5d2fca0111abf35d5d6323bcffffffff0240f4183f000000001976a914b4a559e0108aafbec0f49d1a549207c37843ac4288aceebc521a000000001976a914042f3dc50a5924c49c357e437b0048b5c0ea614b88ac00000000"
    }, 
    {
      "txid": "0743cc3a6134424f9c65c2cb539af672348b68101226d4d3c0abb94c2e691729",
      "hash": "0743cc3a6134424f9c65c2cb539af672348b68101226d4d3c0abb94c2e691729",
      "version": 1,
      "size": 817,
      "vsize": 817,
      "locktime": 0,
      "vin": [
        {
          "txid": "94f06bca1bb8eb4d085cf2e54ac366fa997bd2de7dd66fb29299342ca54cdbd3",
          "vout": 0,
          "scriptSig": {
            "asm": "3045022100c44b37ff0f6ac05db21ed68feb9794f5c1b2983c8c54a092c486d76b45e85c7202203f7fd465f4f8b1ea01b502d6e4453a7939d5cb36674e1553603908cf5852f23d[ALL] 025475046c538b94acdaae6381402a03f30c62c66f1c3ee8b48cad6ebf84b46537",
            "hex": "483045022100c44b37ff0f6ac05db21ed68feb9794f5c1b2983c8c54a092c486d76b45e85c7202203f7fd465f4f8b1ea01b502d6e4453a7939d5cb36674e1553603908cf5852f23d0121025475046c538b94acdaae6381402a03f30c62c66f1c3ee8b48cad6ebf84b46537"
          },
          "sequence": 4294967295
        }, 
        {
          "txid": "d7ad577b20896c003276287bdf1fa14b67283d39b962dff66850fe5a607ea010",
          "vout": 0,
          "scriptSig": {
            "asm": "3045022100a7e0fbc6e7eec6dc84d6c583b9ef8904585a190446237e5c105d7a1418eae0ac022074755a50fa0bd4d77ce58aef58e2fdcddf5e66cbb2f0b09cf66be6671450d55f[ALL] 03b10747998d3ce1669e01b67e37c897228a4d3ff46d43b55367be904a4bc75368",
            "hex": "483045022100a7e0fbc6e7eec6dc84d6c583b9ef8904585a190446237e5c105d7a1418eae0ac022074755a50fa0bd4d77ce58aef58e2fdcddf5e66cbb2f0b09cf66be6671450d55f012103b10747998d3ce1669e01b67e37c897228a4d3ff46d43b55367be904a4bc75368"
          },
          "sequence": 4294967295
        }, 
        {
          "txid": "b201d66068c040bd42602a2178fb1d7d526a0632c6cd68482f5b530996318a0c",
          "vout": 0,
          "scriptSig": {
            "asm": "3045022100d809ce52eec9d67dfeeb9b8f240d6f4ac89be2f060fbaa589bd9252f848852dc02201e2e55fcbd75fcf8d60ddc61de731f68000d325ba6eeaf004bfadaad3e680aa3[ALL] 02ecb913fef49ccffe4c4f07565717ede8e125f3c5aaa9ef4dd0da3e0ebb794e97",
            "hex": "483045022100d809ce52eec9d67dfeeb9b8f240d6f4ac89be2f060fbaa589bd9252f848852dc02201e2e55fcbd75fcf8d60ddc61de731f68000d325ba6eeaf004bfadaad3e680aa3012102ecb913fef49ccffe4c4f07565717ede8e125f3c5aaa9ef4dd0da3e0ebb794e97"
          },
          "sequence": 4294967295
        }, 
        {
          "txid": "23a52dcff0d2b9f680588b8de2c9bdc82a3e2f37640fec71209734124d87d51a",
          "vout": 2,
          "scriptSig": {
            "asm": "304402205339dd6411df64a2846c0e0831ded5382f34841d4620e2362c6d03638ca5fbfb02207e0c2548ede368560883df2b6852cc1a04cbc9731f6750e8e16a9707babfab1e[ALL] 0328c9ae635abf580c261c44815dc1aac309e16ff26250525b7e99951369d2b8c7",
            "hex": "47304402205339dd6411df64a2846c0e0831ded5382f34841d4620e2362c6d03638ca5fbfb02207e0c2548ede368560883df2b6852cc1a04cbc9731f6750e8e16a9707babfab1e01210328c9ae635abf580c261c44815dc1aac309e16ff26250525b7e99951369d2b8c7"
          },
          "sequence": 4294967295
        }, 
        {
          "txid": "9e713b8535bffd752e593ebc6d1c0e9b0773782769ef1ae328370a8120b596ef",
          "vout": 1,
          "scriptSig": {
            "asm": "30450221008e9525c2fd639bf87b2096b8c10fc419095594578dc5d62d2d6f4e0a2bc6f31702205b63620fd16c8de54d0eb8f34d8da2f82f5bd9afbb808655f92814431b4b1178[ALL] 038bf6eb1e75941495638a846c443ae7931d3770b957a3ff3020336a7c86761111",
            "hex": "4830450221008e9525c2fd639bf87b2096b8c10fc419095594578dc5d62d2d6f4e0a2bc6f31702205b63620fd16c8de54d0eb8f34d8da2f82f5bd9afbb808655f92814431b4b11780121038bf6eb1e75941495638a846c443ae7931d3770b957a3ff3020336a7c86761111"
          },
          "sequence": 4294967295
        }
      ],
      "vout": [
        {
          "value": 1.99900000,
          "n": 0,
          "scriptPubKey": {
            "asm": "OP_DUP OP_HASH160 878e7ab6534be9df933e175eb60b09b7139f414b OP_EQUALVERIFY OP_CHECKSIG",
            "hex": "76a914878e7ab6534be9df933e175eb60b09b7139f414b88ac",
            "reqSigs": 1,
            "type": "pubkeyhash",
            "addresses": [
              "LXaiAkNKKnayKF5n1dCSUaos4kmYjxfqBY"
            ]
          }
        }, 
        {
          "value": 0.73940929,
          "n": 1,
          "scriptPubKey": {
            "asm": "OP_DUP OP_HASH160 c6e3836c2f4cd8f9c53e32813ded99ac0ce001f1 OP_EQUALVERIFY OP_CHECKSIG",
            "hex": "76a914c6e3836c2f4cd8f9c53e32813ded99ac0ce001f188ac",
            "reqSigs": 1,
            "type": "pubkeyhash",
            "addresses": [
              "LdMac6qdwFnBCVXN96dvoPjzbcE36gzs64"
            ]
          }
        }
      ],
      "hex": "0100000005d3db4ca52c349992b26fd67dded27b99fa66c34ae5f25c084debb81bca6bf094000000006b483045022100c44b37ff0f6ac05db21ed68feb9794f5c1b2983c8c54a092c486d76b45e85c7202203f7fd465f4f8b1ea01b502d6e4453a7939d5cb36674e1553603908cf5852f23d0121025475046c538b94acdaae6381402a03f30c62c66f1c3ee8b48cad6ebf84b46537ffffffff10a07e605afe5068f6df62b9393d28674ba11fdf7b287632006c89207b57add7000000006b483045022100a7e0fbc6e7eec6dc84d6c583b9ef8904585a190446237e5c105d7a1418eae0ac022074755a50fa0bd4d77ce58aef58e2fdcddf5e66cbb2f0b09cf66be6671450d55f012103b10747998d3ce1669e01b67e37c897228a4d3ff46d43b55367be904a4bc75368ffffffff0c8a319609535b2f4868cdc632066a527d1dfb78212a6042bd40c06860d601b2000000006b483045022100d809ce52eec9d67dfeeb9b8f240d6f4ac89be2f060fbaa589bd9252f848852dc02201e2e55fcbd75fcf8d60ddc61de731f68000d325ba6eeaf004bfadaad3e680aa3012102ecb913fef49ccffe4c4f07565717ede8e125f3c5aaa9ef4dd0da3e0ebb794e97ffffffff1ad5874d1234972071ec0f64372f3e2ac8bdc9e28d8b5880f6b9d2f0cf2da523020000006a47304402205339dd6411df64a2846c0e0831ded5382f34841d4620e2362c6d03638ca5fbfb02207e0c2548ede368560883df2b6852cc1a04cbc9731f6750e8e16a9707babfab1e01210328c9ae635abf580c261c44815dc1aac309e16ff26250525b7e99951369d2b8c7ffffffffef96b520810a3728e31aef69277873079b0e1c6dbc3e592e75fdbf35853b719e010000006b4830450221008e9525c2fd639bf87b2096b8c10fc419095594578dc5d62d2d6f4e0a2bc6f31702205b63620fd16c8de54d0eb8f34d8da2f82f5bd9afbb808655f92814431b4b11780121038bf6eb1e75941495638a846c443ae7931d3770b957a3ff3020336a7c86761111ffffffff02603bea0b000000001976a914878e7ab6534be9df933e175eb60b09b7139f414b88acc13f6804000000001976a914c6e3836c2f4cd8f9c53e32813ded99ac0ce001f188ac00000000"
    }, 
    {
      "txid": "eae00f02d0a57ab37b997dcf9cec3355d128f63c83682fecb4d3c796ab5eef18",
      "hash": "eae00f02d0a57ab37b997dcf9cec3355d128f63c83682fecb4d3c796ab5eef18",
      "version": 2,
      "size": 226,
      "vsize": 226,
      "locktime": 1360753,
      "vin": [
        {
          "txid": "cdc716fda3d4f07388bc5933b2836b71ff889ab28b49f81883fb5ac0878dbab2",
          "vout": 4,
          "scriptSig": {
            "asm": "3045022100c420b13802c4b9d5a7420bac2710f2d1c74978804ccb4c41d2f38f9fd21f5db50220275ff1d9862e34509983a7a05c63d0dbf3ef951aaa5300fca4920cdab85e6cf5[ALL] 038ba189913b42ac26de55ebefa5da329631634331b2d662d2d8e96fd1f2320511",
            "hex": "483045022100c420b13802c4b9d5a7420bac2710f2d1c74978804ccb4c41d2f38f9fd21f5db50220275ff1d9862e34509983a7a05c63d0dbf3ef951aaa5300fca4920cdab85e6cf50121038ba189913b42ac26de55ebefa5da329631634331b2d662d2d8e96fd1f2320511"
          },
          "sequence": 4294967294
        }
      ],
      "vout": [
        {
          "value": 0.45451333,
          "n": 0,
          "scriptPubKey": {
            "asm": "OP_DUP OP_HASH160 af99cadf76efe34c8f4991eefd74c1136e942634 OP_EQUALVERIFY OP_CHECKSIG",
            "hex": "76a914af99cadf76efe34c8f4991eefd74c1136e94263488ac",
            "reqSigs": 1,
            "type": "pubkeyhash",
            "addresses": [
              "LbESkUJsBnqNGM6pG1LhSyc4bYBthq9uib"
            ]
          }
        }, 
        {
          "value": 0.73415967,
          "n": 1,
          "scriptPubKey": {
            "asm": "OP_DUP OP_HASH160 923d29be8dee89aef1594ef3ac36b74dcda77eee OP_EQUALVERIFY OP_CHECKSIG",
            "hex": "76a914923d29be8dee89aef1594ef3ac36b74dcda77eee88ac",
            "reqSigs": 1,
            "type": "pubkeyhash",
            "addresses": [
              "LYZCBuQmjQTDN1Rbku54NN1haaC5pTHoG4"
            ]
          }
        }
      ],
      "hex": "0200000001b2ba8d87c05afb8318f8498bb29a88ff716b83b23359bc8873f0d4a3fd16c7cd040000006b483045022100c420b13802c4b9d5a7420bac2710f2d1c74978804ccb4c41d2f38f9fd21f5db50220275ff1d9862e34509983a7a05c63d0dbf3ef951aaa5300fca4920cdab85e6cf50121038ba189913b42ac26de55ebefa5da329631634331b2d662d2d8e96fd1f2320511feffffff024588b502000000001976a914af99cadf76efe34c8f4991eefd74c1136e94263488ac1f3d6004000000001976a914923d29be8dee89aef1594ef3ac36b74dcda77eee88ac71c31400"
    }, 
    {
      "txid": "84a2aecaa012472c19d56704b1750b36dca0cf353286cbf98736a81dd0a231ff",
      "hash": "84a2aecaa012472c19d56704b1750b36dca0cf353286cbf98736a81dd0a231ff",
      "version": 1,
      "size": 225,
      "vsize": 225,
      "locktime": 1360812,
      "vin": [
        {
          "txid": "d341e871e310fdbcaf0743c61e22bbadbcf262815497b14951ef732004ab6438",
          "vout": 13,
          "scriptSig": {
            "asm": "304402206d562171dc2efc006bae91a2b7408521a75bca8110d4cd7a77fafd4d6e7ee40d02202f727477143052e1172b05e4f5ef31920a98c44551d7cf747412862ad3ecda13[ALL] 03ea8edd62a9b4b6ebf6acf85370421aee12e98ff5fba4b0edffc479ab29c3ca17",
            "hex": "47304402206d562171dc2efc006bae91a2b7408521a75bca8110d4cd7a77fafd4d6e7ee40d02202f727477143052e1172b05e4f5ef31920a98c44551d7cf747412862ad3ecda13012103ea8edd62a9b4b6ebf6acf85370421aee12e98ff5fba4b0edffc479ab29c3ca17"
          },
          "sequence": 4294967294
        }
      ],
      "vout": [
        {
          "value": 0.24128552,
          "n": 0,
          "scriptPubKey": {
            "asm": "OP_DUP OP_HASH160 34c4c8c07e4af374fdff993a977d7b5750f802d6 OP_EQUALVERIFY OP_CHECKSIG",
            "hex": "76a91434c4c8c07e4af374fdff993a977d7b5750f802d688ac",
            "reqSigs": 1,
            "type": "pubkeyhash",
            "addresses": [
              "LQ2y8zZTPuBNAAMtH5TPGCqBdns7cMSGJT"
            ]
          }
        }, 
        {
          "value": 14.07661049,
          "n": 1,
          "scriptPubKey": {
            "asm": "OP_DUP OP_HASH160 b1579220206f967f8351de6e052992d9aa3edc2f OP_EQUALVERIFY OP_CHECKSIG",
            "hex": "76a914b1579220206f967f8351de6e052992d9aa3edc2f88ac",
            "reqSigs": 1,
            "type": "pubkeyhash",
            "addresses": [
              "LbPemh9dscEeSEGn8VK22vXWyvJUKe9aq3"
            ]
          }
        }
      ],
      "hex": "01000000013864ab042073ef5149b197548162f2bcadbb221ec64307afbcfd10e371e841d30d0000006a47304402206d562171dc2efc006bae91a2b7408521a75bca8110d4cd7a77fafd4d6e7ee40d02202f727477143052e1172b05e4f5ef31920a98c44551d7cf747412862ad3ecda13012103ea8edd62a9b4b6ebf6acf85370421aee12e98ff5fba4b0edffc479ab29c3ca17feffffff02282c7001000000001976a91434c4c8c07e4af374fdff993a977d7b5750f802d688acf933e753000000001976a914b1579220206f967f8351de6e052992d9aa3edc2f88acacc31400"
    }
  ],
  "time": 1517484952,
  "mediantime": 1517484702,
  "nonce": 1944252946,
  "bits": "1a04088e",
  "difficulty": 4159490.835685156,
  "chainwork": "0000000000000000000000000000000000000000000000354a64c2591d8108b0",
  "previousblockhash": "63fb3e03e177cf92ba11e7c99a7d0ae81cc201076322344b267ffb5782b9e94d",
  "nextblockhash": "ca66c221bdb931c52d878611f68d139ab25d203ee9ab660ccca7ca35e0d1ef66"
}
