{
  "hash": "69c1843adf37e383202bfdc9daa5cc7f756074fd4febd8c4b7a551cfb788d5c8",
  "confirmations": 1746,
  "strippedsize": 3552,
  "size": 3588,
  "weight": 14244,
  "height": 1359248,
  "version": 536870912,
  "versionHex": "20000000",
  "merkleroot": "8f1dd590d8c50695be516fd95e6293d330200060731c6eef0df54aa2b9ad5ab8",
  "tx": [
    {
      "txid": "7bb6a15c61d25e09a4b68e805441f9ef1bb7f84a327fe7cea00b26130009e29b",
      "hash": "2ca33dd737d7b1bcb8a4e1f79c76801111d3e7cf045986d421ac983893c70706",
      "version": 1,
      "size": 253,
      "vsize": 226,
      "locktime": 0,
      "vin": [
        {
          "coinbase": "0390bd1441d69be07be363ac41d69be07bad05b62f4c54432e544f502ffabe6d6d2a125c4e369d1e242423d0c51b99640892a895a2ddd83cee02dc9ede721346ac01000000000000006128564d3d01000000000000",
          "sequence": 4294967295
        }
      ],
      "vout": [
        {
          "value": 25.01181426,
          "n": 0,
          "scriptPubKey": {
            "asm": "OP_DUP OP_HASH160 0c617fdb2ea42aed30a509595ee21ba3f6688db0 OP_EQUALVERIFY OP_CHECKSIG",
            "hex": "76a9140c617fdb2ea42aed30a509595ee21ba3f6688db088ac",
            "reqSigs": 1,
            "type": "pubkeyhash",
            "addresses": [
              "LLMRAtr3qBje2ySEa3CnZ55LA4TQMWnRY3"
            ]
          }
        }, 
        {
          "value": 0.00000000,
          "n": 1,
          "scriptPubKey": {
            "asm": "OP_RETURN aa21a9ed81b4e2d3aef30c08a1cc095a4b58f661ce05b735960d44c7bcebb12ea828aed6",
            "hex": "6a24aa21a9ed81b4e2d3aef30c08a1cc095a4b58f661ce05b735960d44c7bcebb12ea828aed6",
            "type": "nulldata"
          }
        }
      ],
      "hex": "010000000001010000000000000000000000000000000000000000000000000000000000000000ffffffff550390bd1441d69be07be363ac41d69be07bad05b62f4c54432e544f502ffabe6d6d2a125c4e369d1e242423d0c51b99640892a895a2ddd83cee02dc9ede721346ac01000000000000006128564d3d01000000000000ffffffff02f2ff1495000000001976a9140c617fdb2ea42aed30a509595ee21ba3f6688db088ac0000000000000000266a24aa21a9ed81b4e2d3aef30c08a1cc095a4b58f661ce05b735960d44c7bcebb12ea828aed60120000000000000000000000000000000000000000000000000000000000000000000000000"
    }, 
    {
      "txid": "97a991f6b91ec10f3f544574967cc00ba54dc411700cf27f0ac16e2a9ebb1897",
      "hash": "97a991f6b91ec10f3f544574967cc00ba54dc411700cf27f0ac16e2a9ebb1897",
      "version": 1,
      "size": 191,
      "vsize": 191,
      "locktime": 0,
      "vin": [
        {
          "txid": "42113514b15531401bf642c39be8bf6f35013fdb31e89492240564a32bf234b8",
          "vout": 0,
          "scriptSig": {
            "asm": "304402207e09e6ba0d887a5c9980942d1cdbf5d62087ea32dfca6a0f633cfc73b1dff2a3022073a6bee873d6fc6e2fc78b233ba36316a88337910e0ba5a2f95f4b0f3602f4e1[ALL] 02145f93a702cc9667f319d52accc054a7eb0516c087431811dfb0ad86f82683e3",
            "hex": "47304402207e09e6ba0d887a5c9980942d1cdbf5d62087ea32dfca6a0f633cfc73b1dff2a3022073a6bee873d6fc6e2fc78b233ba36316a88337910e0ba5a2f95f4b0f3602f4e1012102145f93a702cc9667f319d52accc054a7eb0516c087431811dfb0ad86f82683e3"
          },
          "sequence": 4294967294
        }
      ],
      "vout": [
        {
          "value": 0.06267000,
          "n": 0,
          "scriptPubKey": {
            "asm": "OP_DUP OP_HASH160 45239cace588b803cd47574028d85d61e44128cd OP_EQUALVERIFY OP_CHECKSIG",
            "hex": "76a91445239cace588b803cd47574028d85d61e44128cd88ac",
            "reqSigs": 1,
            "type": "pubkeyhash",
            "addresses": [
              "LRXXYpF9c4WtTrpoy9U7smEggELdQc4NpC"
            ]
          }
        }
      ],
      "hex": "0100000001b834f22ba36405249294e831db3f01356fbfe89bc342f61b403155b114351142000000006a47304402207e09e6ba0d887a5c9980942d1cdbf5d62087ea32dfca6a0f633cfc73b1dff2a3022073a6bee873d6fc6e2fc78b233ba36316a88337910e0ba5a2f95f4b0f3602f4e1012102145f93a702cc9667f319d52accc054a7eb0516c087431811dfb0ad86f82683e3feffffff0178a05f00000000001976a91445239cace588b803cd47574028d85d61e44128cd88ac00000000"
    }, 
    {
      "txid": "0a0a84105c275fb3fea17fd4df73c6ae0c67424d5bbc17b3aec702a432ffe571",
      "hash": "0a0a84105c275fb3fea17fd4df73c6ae0c67424d5bbc17b3aec702a432ffe571",
      "version": 1,
      "size": 226,
      "vsize": 226,
      "locktime": 0,
      "vin": [
        {
          "txid": "9dd798f0457ac64da809bd20632a9aea788d295ec5e2f91bba277afebc0f9d0f",
          "vout": 1,
          "scriptSig": {
            "asm": "3045022100d2237fb6caccc89cabddc0088be591e3d6d54e4331ae3c199d68c2fb89e8b78202202c1084f5dd8c9817aaabd2d7cd774de540a35a2a4aaaa23dca93bde64095071c[ALL] 02d3474f43316e95f52ba46a241c16f09b016bca6e106c5f3a9a181d68146ac8de",
            "hex": "483045022100d2237fb6caccc89cabddc0088be591e3d6d54e4331ae3c199d68c2fb89e8b78202202c1084f5dd8c9817aaabd2d7cd774de540a35a2a4aaaa23dca93bde64095071c012102d3474f43316e95f52ba46a241c16f09b016bca6e106c5f3a9a181d68146ac8de"
          },
          "sequence": 4294967295
        }
      ],
      "vout": [
        {
          "value": 0.29390632,
          "n": 0,
          "scriptPubKey": {
            "asm": "OP_DUP OP_HASH160 bbaaac17044abaf9f3c6a7bdf1203ababa5723df OP_EQUALVERIFY OP_CHECKSIG",
            "hex": "76a914bbaaac17044abaf9f3c6a7bdf1203ababa5723df88ac",
            "reqSigs": 1,
            "type": "pubkeyhash",
            "addresses": [
              "LcLF5bistk6ZqvsKkJgyi3X4Jh515pNHHD"
            ]
          }
        }, 
        {
          "value": 0.26216656,
          "n": 1,
          "scriptPubKey": {
            "asm": "OP_DUP OP_HASH160 8c620a62b3a4442f340f8d3d644b7ddec5ab667f OP_EQUALVERIFY OP_CHECKSIG",
            "hex": "76a9148c620a62b3a4442f340f8d3d644b7ddec5ab667f88ac",
            "reqSigs": 1,
            "type": "pubkeyhash",
            "addresses": [
              "LY2EK3hhb8sATfW9rts2UgMwH3HmLxdhrK"
            ]
          }
        }
      ],
      "hex": "01000000010f9d0fbcfe7a27ba1bf9e2c55e298d78ea9a2a6320bd09a84dc67a45f098d79d010000006b483045022100d2237fb6caccc89cabddc0088be591e3d6d54e4331ae3c199d68c2fb89e8b78202202c1084f5dd8c9817aaabd2d7cd774de540a35a2a4aaaa23dca93bde64095071c012102d3474f43316e95f52ba46a241c16f09b016bca6e106c5f3a9a181d68146ac8deffffffff022877c001000000001976a914bbaaac17044abaf9f3c6a7bdf1203ababa5723df88acd0089001000000001976a9148c620a62b3a4442f340f8d3d644b7ddec5ab667f88ac00000000"
    }, 
    {
      "txid": "3b64b3776c6ec0fb5eb243ef953918bf8351fabdf32e4de1a9e6b54aef6b136c",
      "hash": "3b64b3776c6ec0fb5eb243ef953918bf8351fabdf32e4de1a9e6b54aef6b136c",
      "version": 1,
      "size": 225,
      "vsize": 225,
      "locktime": 0,
      "vin": [
        {
          "txid": "5d471ed950f49f387e45ad2bb28e8b3d612ac99e396a0c285eee999398fa9072",
          "vout": 1,
          "scriptSig": {
            "asm": "3044022071d8eb2019f82cf54762c00b5fd74b2f8ea97ab810b8c16eebbe9097d9043cde022057ab74ace78ab8157772748093de0048f4f6b09cf3ac3c8f0c6c2481416857d7[ALL] 03b598db0388c3d663e29e3882394d1a5e2bc105efe3275835912f05fce671ff14",
            "hex": "473044022071d8eb2019f82cf54762c00b5fd74b2f8ea97ab810b8c16eebbe9097d9043cde022057ab74ace78ab8157772748093de0048f4f6b09cf3ac3c8f0c6c2481416857d7012103b598db0388c3d663e29e3882394d1a5e2bc105efe3275835912f05fce671ff14"
          },
          "sequence": 4294967295
        }
      ],
      "vout": [
        {
          "value": 1.50000000,
          "n": 0,
          "scriptPubKey": {
            "asm": "OP_DUP OP_HASH160 e7756679270b05f0d5197fa91b2d1ea5cac04ca7 OP_EQUALVERIFY OP_CHECKSIG",
            "hex": "76a914e7756679270b05f0d5197fa91b2d1ea5cac04ca788ac",
            "reqSigs": 1,
            "type": "pubkeyhash",
            "addresses": [
              "LgKnze7enijpKj5UcNi4NkpTQBDVVv4WBV"
            ]
          }
        }, 
        {
          "value": 3.39979806,
          "n": 1,
          "scriptPubKey": {
            "asm": "OP_DUP OP_HASH160 bc0d3fb399b54c29c1b9b6580f75fa6501e73afa OP_EQUALVERIFY OP_CHECKSIG",
            "hex": "76a914bc0d3fb399b54c29c1b9b6580f75fa6501e73afa88ac",
            "reqSigs": 1,
            "type": "pubkeyhash",
            "addresses": [
              "LcNHApeNyVVyDYBFbcPDzfcBLvF2LeKMEX"
            ]
          }
        }
      ],
      "hex": "01000000017290fa989399ee5e280c6a399ec92a613d8b8eb22bad457e389ff450d91e475d010000006a473044022071d8eb2019f82cf54762c00b5fd74b2f8ea97ab810b8c16eebbe9097d9043cde022057ab74ace78ab8157772748093de0048f4f6b09cf3ac3c8f0c6c2481416857d7012103b598db0388c3d663e29e3882394d1a5e2bc105efe3275835912f05fce671ff14ffffffff0280d1f008000000001976a914e7756679270b05f0d5197fa91b2d1ea5cac04ca788ac1eae4314000000001976a914bc0d3fb399b54c29c1b9b6580f75fa6501e73afa88ac00000000"
    }, 
    {
      "txid": "f026f76336ae260a8778b78cd8971a208545c6769ed0a59b71bc7c19e7cf7ac8",
      "hash": "f026f76336ae260a8778b78cd8971a208545c6769ed0a59b71bc7c19e7cf7ac8",
      "version": 1,
      "size": 226,
      "vsize": 226,
      "locktime": 0,
      "vin": [
        {
          "txid": "3a2cb65085851e6f1b3592660f7386249825f152ffc76389f961aec8285bc880",
          "vout": 2,
          "scriptSig": {
            "asm": "3045022100962748f5b64af0cbb923d81c89a65ca7d57820d9d4b1368e31fcc337c171512a0220406156ab91d9e80c6866d8c220d05336fd6fe930ad63cf2aff427c8ff06155bc[ALL] 0328c9ae635abf580c261c44815dc1aac309e16ff26250525b7e99951369d2b8c7",
            "hex": "483045022100962748f5b64af0cbb923d81c89a65ca7d57820d9d4b1368e31fcc337c171512a0220406156ab91d9e80c6866d8c220d05336fd6fe930ad63cf2aff427c8ff06155bc01210328c9ae635abf580c261c44815dc1aac309e16ff26250525b7e99951369d2b8c7"
          },
          "sequence": 4294967295
        }
      ],
      "vout": [
        {
          "value": 0.50925456,
          "n": 0,
          "scriptPubKey": {
            "asm": "OP_DUP OP_HASH160 ae87eeb983fc3fcdc0e56e1a5f6b63214129c8f6 OP_EQUALVERIFY OP_CHECKSIG",
            "hex": "76a914ae87eeb983fc3fcdc0e56e1a5f6b63214129c8f688ac",
            "reqSigs": 1,
            "type": "pubkeyhash",
            "addresses": [
              "Lb8ngMASi2mqupWZnCey2HxXEstskWvyEN"
            ]
          }
        }, 
        {
          "value": 29.79912995,
          "n": 1,
          "scriptPubKey": {
            "asm": "OP_DUP OP_HASH160 c6e3836c2f4cd8f9c53e32813ded99ac0ce001f1 OP_EQUALVERIFY OP_CHECKSIG",
            "hex": "76a914c6e3836c2f4cd8f9c53e32813ded99ac0ce001f188ac",
            "reqSigs": 1,
            "type": "pubkeyhash",
            "addresses": [
              "LdMac6qdwFnBCVXN96dvoPjzbcE36gzs64"
            ]
          }
        }
      ],
      "hex": "010000000180c85b28c8ae61f98963c7ff52f125982486730f6692351b6f1e858550b62c3a020000006b483045022100962748f5b64af0cbb923d81c89a65ca7d57820d9d4b1368e31fcc337c171512a0220406156ab91d9e80c6866d8c220d05336fd6fe930ad63cf2aff427c8ff06155bc01210328c9ae635abf580c261c44815dc1aac309e16ff26250525b7e99951369d2b8c7ffffffff02900f0903000000001976a914ae87eeb983fc3fcdc0e56e1a5f6b63214129c8f688ac23dd9db1000000001976a914c6e3836c2f4cd8f9c53e32813ded99ac0ce001f188ac00000000"
    }, 
    {
      "txid": "97f60c984610567a993b5cb7ff39c78c137ae6c30746cd62205d78cf613eb16d",
      "hash": "97f60c984610567a993b5cb7ff39c78c137ae6c30746cd62205d78cf613eb16d",
      "version": 2,
      "size": 1259,
      "vsize": 1259,
      "locktime": 1359246,
      "vin": [
        {
          "txid": "559a2b3e7431ca49034eb59880c3916f7afecbaa1bf0212b8346e533bd6df8c7",
          "vout": 1,
          "scriptSig": {
            "asm": "3045022100d954432975f72cf5e042e16456a9e565c9b61b6948d35c2191cd3ccea984bbc902205da94afecf7909dd394e330cb96162d1daba9a88903a8b30f571e0c4090489fb[ALL] 02ed224512dc1b91e3956cd577d424a53e62ffc522c952e7f1cf68269fdc3ab024",
            "hex": "483045022100d954432975f72cf5e042e16456a9e565c9b61b6948d35c2191cd3ccea984bbc902205da94afecf7909dd394e330cb96162d1daba9a88903a8b30f571e0c4090489fb012102ed224512dc1b91e3956cd577d424a53e62ffc522c952e7f1cf68269fdc3ab024"
          },
          "sequence": 4294967294
        }, 
        {
          "txid": "93986cb5841f252a39e40662a9b2f15aa621e4bac4c08a3cd1783c264adbcf08",
          "vout": 0,
          "scriptSig": {
            "asm": "3045022100fc977ed85093490a890bee7819e42d23349f6ee895bfb5a197359b23337c5f680220729a5a536f7dacfb7fc31e15295c7b07b4e4cff9b6834f049f709a6efe57bdb8[ALL] 02387edc2610d63d655561c42d757f121be4ee0423270be84548eafe4c1f7ff2fb",
            "hex": "483045022100fc977ed85093490a890bee7819e42d23349f6ee895bfb5a197359b23337c5f680220729a5a536f7dacfb7fc31e15295c7b07b4e4cff9b6834f049f709a6efe57bdb8012102387edc2610d63d655561c42d757f121be4ee0423270be84548eafe4c1f7ff2fb"
          },
          "sequence": 4294967294
        }, 
        {
          "txid": "beccb4e2c8e29a2bb01dab5c2fb66eecd9a54cf7259bb7404db92323357cabba",
          "vout": 0,
          "scriptSig": {
            "asm": "304402206dcc14704d0cbb31fb8df98cba3e8ef3f00c29b1414478dae866b4c586f21eaa02203afa8e643d28e50b54f793bed2e247e5986f730ba869bfc79aa092f71d52a26c[ALL] 03f303ed35b3b9ff57770943ae7027c7c77303982efa8cb5a40b62c84d5b47ef33",
            "hex": "47304402206dcc14704d0cbb31fb8df98cba3e8ef3f00c29b1414478dae866b4c586f21eaa02203afa8e643d28e50b54f793bed2e247e5986f730ba869bfc79aa092f71d52a26c012103f303ed35b3b9ff57770943ae7027c7c77303982efa8cb5a40b62c84d5b47ef33"
          },
          "sequence": 4294967294
        }, 
        {
          "txid": "01bb56edb166b2f9bb821917a1f3a579cf837dccdb05ccf7ce5edc863b1c5964",
          "vout": 1,
          "scriptSig": {
            "asm": "30440220048495bb776ce0e752adb2cc8c13370774cf0c6e8eea95447aafa7a5567668d7022074ea945e2546b541c5c989b9896aa7a8dfb04276fed94f55ac8f28161d098e1e[ALL] 03a8d84eaf585e1831060030942be066aab7a857d2a03355304e61304c81aaad5a",
            "hex": "4730440220048495bb776ce0e752adb2cc8c13370774cf0c6e8eea95447aafa7a5567668d7022074ea945e2546b541c5c989b9896aa7a8dfb04276fed94f55ac8f28161d098e1e012103a8d84eaf585e1831060030942be066aab7a857d2a03355304e61304c81aaad5a"
          },
          "sequence": 4294967294
        }, 
        {
          "txid": "0b02840b1d3016e06bb9dba3d5af61522fd1b3fc8537d28d493fd85db751f42f",
          "vout": 1,
          "scriptSig": {
            "asm": "3045022100899c2fdfdfef27f6fe327a9819ba8dff6ea779dca4ac456f1d04269c7b38e8f202203412f83fa4666ab1d80be1f055a7f88edd064f7abd8dc03e7e43b6ae74d711f3[ALL] 030dce8c1454459c000a3268932a4f24d5e1de77ad8372c0758522b28f7f454fa3",
            "hex": "483045022100899c2fdfdfef27f6fe327a9819ba8dff6ea779dca4ac456f1d04269c7b38e8f202203412f83fa4666ab1d80be1f055a7f88edd064f7abd8dc03e7e43b6ae74d711f30121030dce8c1454459c000a3268932a4f24d5e1de77ad8372c0758522b28f7f454fa3"
          },
          "sequence": 4294967294
        }, 
        {
          "txid": "8224b71de72cb5aa6b15b04f1988f3514bf30b0aa0edc61f53f438102b2d1a8c",
          "vout": 1,
          "scriptSig": {
            "asm": "3045022100ebc807341c4289a7d42e6e08a7eaa4a05bbd39a9cda17558cd3f81e65bb23605022078014996d39093ed09f5633478ba9ecd289244785f83f806f3280a880aa65861[ALL] 03676a79e284113b0e8e410a581a18733aa0c200c9facdf4be081ef544ded210a1",
            "hex": "483045022100ebc807341c4289a7d42e6e08a7eaa4a05bbd39a9cda17558cd3f81e65bb23605022078014996d39093ed09f5633478ba9ecd289244785f83f806f3280a880aa65861012103676a79e284113b0e8e410a581a18733aa0c200c9facdf4be081ef544ded210a1"
          },
          "sequence": 4294967294
        }, 
        {
          "txid": "f33cf4320bd582d6bdad380061050a51d828da9beca42f1d2d2d7f9866bb4ff4",
          "vout": 0,
          "scriptSig": {
            "asm": "304402205caccaedc840c0f7f150f505b757577dfb85fe6a6b5959d64d06419160beef9902205d94a01973740889bb7970ed935d7a93295313cafa5c9331b235a77491ecf10d[ALL] 025bc52aa59ef482d0ca88432d827cfc341c16294fc9aba37f89cd33c698bb5ae2",
            "hex": "47304402205caccaedc840c0f7f150f505b757577dfb85fe6a6b5959d64d06419160beef9902205d94a01973740889bb7970ed935d7a93295313cafa5c9331b235a77491ecf10d0121025bc52aa59ef482d0ca88432d827cfc341c16294fc9aba37f89cd33c698bb5ae2"
          },
          "sequence": 4294967294
        }, 
        {
          "txid": "0b352a4cf7c2f921eb4c93705821dbb40de8d47024ac463af63468f59505e690",
          "vout": 26,
          "scriptSig": {
            "asm": "3045022100c6d54bf12b070cc1005fa3e13c33057715dd7ffceb79c4d83da080bc236455ee0220331392f6d353a2f56f1bacc5ebfa7f27f102527270f196f03de3d388a34ae484[ALL] 02df844958b6b7f5bed0119f124f3da378f13c84e8c2c1c939a7692deba10d60c5",
            "hex": "483045022100c6d54bf12b070cc1005fa3e13c33057715dd7ffceb79c4d83da080bc236455ee0220331392f6d353a2f56f1bacc5ebfa7f27f102527270f196f03de3d388a34ae484012102df844958b6b7f5bed0119f124f3da378f13c84e8c2c1c939a7692deba10d60c5"
          },
          "sequence": 4294967294
        }
      ],
      "vout": [
        {
          "value": 31.79534899,
          "n": 0,
          "scriptPubKey": {
            "asm": "OP_DUP OP_HASH160 cf6482df21bb7876c62b22ef65b085c7cdefa129 OP_EQUALVERIFY OP_CHECKSIG",
            "hex": "76a914cf6482df21bb7876c62b22ef65b085c7cdefa12988ac",
            "reqSigs": 1,
            "type": "pubkeyhash",
            "addresses": [
              "Le8YYZeb22Gt2eL7ENPfKcVnZMCxgAur2J"
            ]
          }
        }, 
        {
          "value": 0.00649860,
          "n": 1,
          "scriptPubKey": {
            "asm": "OP_DUP OP_HASH160 6459917da748d399f0fc6b607984d23c3a9b710f OP_EQUALVERIFY OP_CHECKSIG",
            "hex": "76a9146459917da748d399f0fc6b607984d23c3a9b710f88ac",
            "reqSigs": 1,
            "type": "pubkeyhash",
            "addresses": [
              "LUNZ8iGMoGX8u8HcAgGXjcXEwSHevUaW9N"
            ]
          }
        }
      ],
      "hex": "0200000008c7f86dbd33e546832b21f01baacbfe7a6f91c38098b54e0349ca31743e2b9a55010000006b483045022100d954432975f72cf5e042e16456a9e565c9b61b6948d35c2191cd3ccea984bbc902205da94afecf7909dd394e330cb96162d1daba9a88903a8b30f571e0c4090489fb012102ed224512dc1b91e3956cd577d424a53e62ffc522c952e7f1cf68269fdc3ab024feffffff08cfdb4a263c78d13c8ac0c4bae421a65af1b2a96206e4392a251f84b56c9893000000006b483045022100fc977ed85093490a890bee7819e42d23349f6ee895bfb5a197359b23337c5f680220729a5a536f7dacfb7fc31e15295c7b07b4e4cff9b6834f049f709a6efe57bdb8012102387edc2610d63d655561c42d757f121be4ee0423270be84548eafe4c1f7ff2fbfeffffffbaab7c352323b94d40b79b25f74ca5d9ec6eb62f5cab1db02b9ae2c8e2b4ccbe000000006a47304402206dcc14704d0cbb31fb8df98cba3e8ef3f00c29b1414478dae866b4c586f21eaa02203afa8e643d28e50b54f793bed2e247e5986f730ba869bfc79aa092f71d52a26c012103f303ed35b3b9ff57770943ae7027c7c77303982efa8cb5a40b62c84d5b47ef33feffffff64591c3b86dc5ecef7cc05dbcc7d83cf79a5f3a1171982bbf9b266b1ed56bb01010000006a4730440220048495bb776ce0e752adb2cc8c13370774cf0c6e8eea95447aafa7a5567668d7022074ea945e2546b541c5c989b9896aa7a8dfb04276fed94f55ac8f28161d098e1e012103a8d84eaf585e1831060030942be066aab7a857d2a03355304e61304c81aaad5afeffffff2ff451b75dd83f498dd23785fcb3d12f5261afd5a3dbb96be016301d0b84020b010000006b483045022100899c2fdfdfef27f6fe327a9819ba8dff6ea779dca4ac456f1d04269c7b38e8f202203412f83fa4666ab1d80be1f055a7f88edd064f7abd8dc03e7e43b6ae74d711f30121030dce8c1454459c000a3268932a4f24d5e1de77ad8372c0758522b28f7f454fa3feffffff8c1a2d2b1038f4531fc6eda00a0bf34b51f388194fb0156baab52ce71db72482010000006b483045022100ebc807341c4289a7d42e6e08a7eaa4a05bbd39a9cda17558cd3f81e65bb23605022078014996d39093ed09f5633478ba9ecd289244785f83f806f3280a880aa65861012103676a79e284113b0e8e410a581a18733aa0c200c9facdf4be081ef544ded210a1fefffffff44fbb66987f2d2d1d2fa4ec9bda28d8510a05610038adbdd682d50b32f43cf3000000006a47304402205caccaedc840c0f7f150f505b757577dfb85fe6a6b5959d64d06419160beef9902205d94a01973740889bb7970ed935d7a93295313cafa5c9331b235a77491ecf10d0121025bc52aa59ef482d0ca88432d827cfc341c16294fc9aba37f89cd33c698bb5ae2feffffff90e60595f56834f63a46ac2470d4e80db4db215870934ceb21f9c2f74c2a350b1a0000006b483045022100c6d54bf12b070cc1005fa3e13c33057715dd7ffceb79c4d83da080bc236455ee0220331392f6d353a2f56f1bacc5ebfa7f27f102527270f196f03de3d388a34ae484012102df844958b6b7f5bed0119f124f3da378f13c84e8c2c1c939a7692deba10d60c5feffffff0233da83bd000000001976a914cf6482df21bb7876c62b22ef65b085c7cdefa12988ac84ea0900000000001976a9146459917da748d399f0fc6b607984d23c3a9b710f88ac8ebd1400"
    }, 
    {
      "txid": "da447a95dd3d0e28387fea084abe1c7750a07061ea6c301548a1399936606e86",
      "hash": "da447a95dd3d0e28387fea084abe1c7750a07061ea6c301548a1399936606e86",
      "version": 1,
      "size": 226,
      "vsize": 226,
      "locktime": 0,
      "vin": [
        {
          "txid": "e92cb5ba6ced023ff7e4097cc5590b82a65729b1c1741b7fa79a9455adb63c5e",
          "vout": 0,
          "scriptSig": {
            "asm": "3045022100f75c183a059054c309006c5515bb0b67f8baffd49dc886c6ba246503b9e785d702206f55afa0d64d73d7ee315f0342554e7b453dd2e28dbb388c2fe13c26a362dc05[ALL] 0384a9a36de00797765bb8cbd04dabb5aa68695b13ab3d76e64a85d79f0c76db7f",
            "hex": "483045022100f75c183a059054c309006c5515bb0b67f8baffd49dc886c6ba246503b9e785d702206f55afa0d64d73d7ee315f0342554e7b453dd2e28dbb388c2fe13c26a362dc0501210384a9a36de00797765bb8cbd04dabb5aa68695b13ab3d76e64a85d79f0c76db7f"
          },
          "sequence": 4294967295
        }
      ],
      "vout": [
        {
          "value": 1.14830000,
          "n": 0,
          "scriptPubKey": {
            "asm": "OP_DUP OP_HASH160 ecbcb216b97d3fcc0de6533ad0dab9193c7b886a OP_EQUALVERIFY OP_CHECKSIG",
            "hex": "76a914ecbcb216b97d3fcc0de6533ad0dab9193c7b886a88ac",
            "reqSigs": 1,
            "type": "pubkeyhash",
            "addresses": [
              "LgohnHjGmLsLy2te5ruotjAHrLQyyaCXWT"
            ]
          }
        }, 
        {
          "value": 86.72012565,
          "n": 1,
          "scriptPubKey": {
            "asm": "OP_DUP OP_HASH160 8a4fd1372b1dd683fede7d68f2332fae2e9c9f71 OP_EQUALVERIFY OP_CHECKSIG",
            "hex": "76a9148a4fd1372b1dd683fede7d68f2332fae2e9c9f7188ac",
            "reqSigs": 1,
            "type": "pubkeyhash",
            "addresses": [
              "LXqH8V6ZtsHBrURFbVxHR59KA24qcdosN3"
            ]
          }
        }
      ],
      "hex": "01000000015e3cb6ad55949aa77f1b74c1b12957a6820b59c57c09e4f73f02ed6cbab52ce9000000006b483045022100f75c183a059054c309006c5515bb0b67f8baffd49dc886c6ba246503b9e785d702206f55afa0d64d73d7ee315f0342554e7b453dd2e28dbb388c2fe13c26a362dc0501210384a9a36de00797765bb8cbd04dabb5aa68695b13ab3d76e64a85d79f0c76db7fffffffff02b02ad806000000001976a914ecbcb216b97d3fcc0de6533ad0dab9193c7b886a88ac1569e404020000001976a9148a4fd1372b1dd683fede7d68f2332fae2e9c9f7188ac00000000"
    }, 
    {
      "txid": "4eabcc262d9cf8d991700fe5e346156f883bbeb68e8c463dc27963cbf2bc9a05",
      "hash": "4eabcc262d9cf8d991700fe5e346156f883bbeb68e8c463dc27963cbf2bc9a05",
      "version": 1,
      "size": 225,
      "vsize": 225,
      "locktime": 0,
      "vin": [
        {
          "txid": "1ba555c61207a7f2b4209e27f8ab27ed8204ae721edb78df5bf56b9e0b12f267",
          "vout": 6,
          "scriptSig": {
            "asm": "3044022074107d2f214f0701baf52b4f84f620dbfdd3bd3a76be17401245038fe9a4620602207b8202e3db256392e0835f93fd9797dc144d6b91c9fc0725f3497e8bb62b3998[ALL] 0395f6882764ea7ddd242637ceeee8589e93c69b399d9cb199e4165115929d44a3",
            "hex": "473044022074107d2f214f0701baf52b4f84f620dbfdd3bd3a76be17401245038fe9a4620602207b8202e3db256392e0835f93fd9797dc144d6b91c9fc0725f3497e8bb62b399801210395f6882764ea7ddd242637ceeee8589e93c69b399d9cb199e4165115929d44a3"
          },
          "sequence": 4294967295
        }
      ],
      "vout": [
        {
          "value": 1.10290771,
          "n": 0,
          "scriptPubKey": {
            "asm": "OP_DUP OP_HASH160 03d6b227054edff9a194d1dc68013af88429f60c OP_EQUALVERIFY OP_CHECKSIG",
            "hex": "76a91403d6b227054edff9a194d1dc68013af88429f60c88ac",
            "reqSigs": 1,
            "type": "pubkeyhash",
            "addresses": [
              "LKaFV81fe458ik4Rqo2qErDpmVv2cWw6cg"
            ]
          }
        }, 
        {
          "value": 1.40686393,
          "n": 1,
          "scriptPubKey": {
            "asm": "OP_DUP OP_HASH160 bbb1f2319a4889f35369ef59f461242acd9f3690 OP_EQUALVERIFY OP_CHECKSIG",
            "hex": "76a914bbb1f2319a4889f35369ef59f461242acd9f369088ac",
            "reqSigs": 1,
            "type": "pubkeyhash",
            "addresses": [
              "LcLPnzfHUdpxaJ4crsP9horfETpKcR8Y43"
            ]
          }
        }
      ],
      "hex": "010000000167f2120b9e6bf55bdf78db1e72ae0482ed27abf8279e20b4f2a70712c655a51b060000006a473044022074107d2f214f0701baf52b4f84f620dbfdd3bd3a76be17401245038fe9a4620602207b8202e3db256392e0835f93fd9797dc144d6b91c9fc0725f3497e8bb62b399801210395f6882764ea7ddd242637ceeee8589e93c69b399d9cb199e4165115929d44a3ffffffff0253e79206000000001976a91403d6b227054edff9a194d1dc68013af88429f60c88ac39b46208000000001976a914bbb1f2319a4889f35369ef59f461242acd9f369088ac00000000"
    }, 
    {
      "txid": "5c6335da65df83cdda3471cbf375d8a13ef104c142fd9272966dc38d46a3d3c9",
      "hash": "5c6335da65df83cdda3471cbf375d8a13ef104c142fd9272966dc38d46a3d3c9",
      "version": 1,
      "size": 225,
      "vsize": 225,
      "locktime": 0,
      "vin": [
        {
          "txid": "d21c88268a37ad288cf1eb9a50f7414f2fba2096cabc6aff90a55a521793345f",
          "vout": 0,
          "scriptSig": {
            "asm": "304402207dd3a622ff8b53aa6f30e24f35b576b03d4406db9f95c6704fa00c8455cf385e02201078dcecba869e27e9806f591115bc17e074f29e9d226abb6b4e046523b59842[ALL] 027a1f1f540fc4b005a74b781588a5ca771e32fa99c955860f8734519c6f98808d",
            "hex": "47304402207dd3a622ff8b53aa6f30e24f35b576b03d4406db9f95c6704fa00c8455cf385e02201078dcecba869e27e9806f591115bc17e074f29e9d226abb6b4e046523b598420121027a1f1f540fc4b005a74b781588a5ca771e32fa99c955860f8734519c6f98808d"
          },
          "sequence": 4294967295
        }
      ],
      "vout": [
        {
          "value": 1.10040099,
          "n": 0,
          "scriptPubKey": {
            "asm": "OP_DUP OP_HASH160 a2c697b75479a222372169224df88c9d20de11ee OP_EQUALVERIFY OP_CHECKSIG",
            "hex": "76a914a2c697b75479a222372169224df88c9d20de11ee88ac",
            "reqSigs": 1,
            "type": "pubkeyhash",
            "addresses": [
              "La4ddkM2u86igKfmTWykFCzCjb2vpZfqJP"
            ]
          }
        }, 
        {
          "value": 0.07246299,
          "n": 1,
          "scriptPubKey": {
            "asm": "OP_DUP OP_HASH160 26fee353ca84070b1e97ddde89440596fda9364a OP_EQUALVERIFY OP_CHECKSIG",
            "hex": "76a91426fee353ca84070b1e97ddde89440596fda9364a88ac",
            "reqSigs": 1,
            "type": "pubkeyhash",
            "addresses": [
              "LNn9HRxTwXfgQEcrsfFzGRm9eDBTraiC6D"
            ]
          }
        }
      ],
      "hex": "01000000015f349317525aa590ff6abcca9620ba2f4f41f7509aebf18c28ad378a26881cd2000000006a47304402207dd3a622ff8b53aa6f30e24f35b576b03d4406db9f95c6704fa00c8455cf385e02201078dcecba869e27e9806f591115bc17e074f29e9d226abb6b4e046523b598420121027a1f1f540fc4b005a74b781588a5ca771e32fa99c955860f8734519c6f98808dffffffff0223148f06000000001976a914a2c697b75479a222372169224df88c9d20de11ee88acdb916e00000000001976a91426fee353ca84070b1e97ddde89440596fda9364a88ac00000000"
    }, 
    {
      "txid": "348eb645321f26a14772dd4a0f480a87eaf34f2d813a46d7159bbd080dfb66fc",
      "hash": "348eb645321f26a14772dd4a0f480a87eaf34f2d813a46d7159bbd080dfb66fc",
      "version": 2,
      "size": 225,
      "vsize": 225,
      "locktime": 1359246,
      "vin": [
        {
          "txid": "a332d2ade84d93e679a121dc09989f150c7fa85138a0f706f55249e2d167203a",
          "vout": 1,
          "scriptSig": {
            "asm": "3044022068c73a96296c36db436209a12363497e9025fad04ae9f95ffbe4307f50fb467f02203cce63a0d691a7c9ccbfe7f75ec29b6c2b8e32748d02d11cd2349dfdfb608135[ALL] 0235517695ab1bc11ef3915d4bcfce041f8fa4ea7f9fdc49da05466447a064f772",
            "hex": "473044022068c73a96296c36db436209a12363497e9025fad04ae9f95ffbe4307f50fb467f02203cce63a0d691a7c9ccbfe7f75ec29b6c2b8e32748d02d11cd2349dfdfb60813501210235517695ab1bc11ef3915d4bcfce041f8fa4ea7f9fdc49da05466447a064f772"
          },
          "sequence": 4294967294
        }
      ],
      "vout": [
        {
          "value": 154.45818408,
          "n": 0,
          "scriptPubKey": {
            "asm": "OP_DUP OP_HASH160 c38609aeefc8b5974673cc86afb304824ead9d90 OP_EQUALVERIFY OP_CHECKSIG",
            "hex": "76a914c38609aeefc8b5974673cc86afb304824ead9d9088ac",
            "reqSigs": 1,
            "type": "pubkeyhash",
            "addresses": [
              "Ld3nbjNTzTPvjQ7Fj9dD974Qf8pAbrQnJe"
            ]
          }
        }, 
        {
          "value": 8.86120135,
          "n": 1,
          "scriptPubKey": {
            "asm": "OP_DUP OP_HASH160 6201316e9723740a5d69ad90f4317bd5c696cd25 OP_EQUALVERIFY OP_CHECKSIG",
            "hex": "76a9146201316e9723740a5d69ad90f4317bd5c696cd2588ac",
            "reqSigs": 1,
            "type": "pubkeyhash",
            "addresses": [
              "LUA9uujVW5qGWpKNTKHFB55eAHYr22oYVC"
            ]
          }
        }
      ],
      "hex": "02000000013a2067d1e24952f506f7a03851a87f0c159f9809dc21a179e6934de8add232a3010000006a473044022068c73a96296c36db436209a12363497e9025fad04ae9f95ffbe4307f50fb467f02203cce63a0d691a7c9ccbfe7f75ec29b6c2b8e32748d02d11cd2349dfdfb60813501210235517695ab1bc11ef3915d4bcfce041f8fa4ea7f9fdc49da05466447a064f772feffffff02287ca498030000001976a914c38609aeefc8b5974673cc86afb304824ead9d9088acc71ed134000000001976a9146201316e9723740a5d69ad90f4317bd5c696cd2588ac8ebd1400"
    }, 
    {
      "txid": "24be7c21d3fc4c83e44db980dbaad7306ec1e1d5d8e53d1bd442b0a99de2c4d6",
      "hash": "24be7c21d3fc4c83e44db980dbaad7306ec1e1d5d8e53d1bd442b0a99de2c4d6",
      "version": 1,
      "size": 226,
      "vsize": 226,
      "locktime": 0,
      "vin": [
        {
          "txid": "d2a56f7f3b1bf44a71d90eb475f7e70c129c08eaeae2d374e35877861d0e5ee0",
          "vout": 937,
          "scriptSig": {
            "asm": "3045022100a43177beacde9979de60e56e8c7aaa54bafdbd23f9c6d71ce83f15119b442c80022029b78bfce13eee1b29012759f1c202e32ecef257511c6145f44629a4b80f2b48[ALL] 0256309c496de1335cbd56c23e985d191dc8433d0e43db2771c950d2c7ca0f0881",
            "hex": "483045022100a43177beacde9979de60e56e8c7aaa54bafdbd23f9c6d71ce83f15119b442c80022029b78bfce13eee1b29012759f1c202e32ecef257511c6145f44629a4b80f2b4801210256309c496de1335cbd56c23e985d191dc8433d0e43db2771c950d2c7ca0f0881"
          },
          "sequence": 4294967295
        }
      ],
      "vout": [
        {
          "value": 0.06140726,
          "n": 0,
          "scriptPubKey": {
            "asm": "OP_DUP OP_HASH160 48a6075ad0b0a70f7f7198bfce2b855188eac742 OP_EQUALVERIFY OP_CHECKSIG",
            "hex": "76a91448a6075ad0b0a70f7f7198bfce2b855188eac74288ac",
            "reqSigs": 1,
            "type": "pubkeyhash",
            "addresses": [
              "LRr5ouLW28UyKfS4Mc36B4hskz1uis1d5S"
            ]
          }
        }, 
        {
          "value": 0.00055476,
          "n": 1,
          "scriptPubKey": {
            "asm": "OP_DUP OP_HASH160 fb99d3cb0dcbb56270bcde8985bdeea61fa7dce2 OP_EQUALVERIFY OP_CHECKSIG",
            "hex": "76a914fb99d3cb0dcbb56270bcde8985bdeea61fa7dce288ac",
            "reqSigs": 1,
            "type": "pubkeyhash",
            "addresses": [
              "LiAJ9UKSf7ZgA8dKhdvCyBBRh7SAVvm3PQ"
            ]
          }
        }
      ],
      "hex": "0100000001e05e0e1d867758e374d3e2eaea089c120ce7f775b40ed9714af41b3b7f6fa5d2a90300006b483045022100a43177beacde9979de60e56e8c7aaa54bafdbd23f9c6d71ce83f15119b442c80022029b78bfce13eee1b29012759f1c202e32ecef257511c6145f44629a4b80f2b4801210256309c496de1335cbd56c23e985d191dc8433d0e43db2771c950d2c7ca0f0881ffffffff0236b35d00000000001976a91448a6075ad0b0a70f7f7198bfce2b855188eac74288acb4d80000000000001976a914fb99d3cb0dcbb56270bcde8985bdeea61fa7dce288ac00000000"
    }
  ],
  "time": 1517257198,
  "mediantime": 1517257045,
  "nonce": 77309492,
  "bits": "1a042eae",
  "difficulty": 4011378.762614286,
  "chainwork": "000000000000000000000000000000000000000000000033d3d4715172dd89a2",
  "previousblockhash": "5ce674cea9e92937247dcc2cc4bc938bf4a66aea9051e984507a1be4e89aca18",
  "nextblockhash": "84272c34f24a607ad6bf4e0533a93ab8b72c8c48991821bfc8b216f87d770026"
}
