{
  "hash": "69fcb56c24fe73aad441e8975214221188afe1e3afdbefdc4dac5e0cfe2699c3",
  "confirmations": 1674,
  "strippedsize": 253,
  "size": 253,
  "weight": 1012,
  "height": 1359320,
  "version": 536870912,
  "versionHex": "20000000",
  "merkleroot": "d474fc5b979723091a37787761d3fb22e017fd4932d0ff8bf78425fac8d88630",
  "tx": [
    {
      "txid": "d474fc5b979723091a37787761d3fb22e017fd4932d0ff8bf78425fac8d88630",
      "hash": "d474fc5b979723091a37787761d3fb22e017fd4932d0ff8bf78425fac8d88630",
      "version": 1,
      "size": 172,
      "vsize": 172,
      "locktime": 0,
      "vin": [
        {
          "coinbase": "03d8bd141a4d696e656420627920416e74506f6f6c20626a331f205a6faa07fabe6d6ddbb11d188f1310a442ef64a0161584154dbafa5ab90905209df36e1c8c9b1b55040000000000000021230000000000001f000000",
          "sequence": 4294967295
        }
      ],
      "vout": [
        {
          "value": 25.00000000,
          "n": 0,
          "scriptPubKey": {
            "asm": "OP_DUP OP_HASH160 0ff3ccc5e8be88afe24b5d634e5852d474dbdff1 OP_EQUALVERIFY OP_CHECKSIG",
            "hex": "76a9140ff3ccc5e8be88afe24b5d634e5852d474dbdff188ac",
            "reqSigs": 1,
            "type": "pubkeyhash",
            "addresses": [
              "LLgJTbzZMsRTCUF1NtvvL9SR1a4pVieW89"
            ]
          }
        }
      ],
      "hex": "01000000010000000000000000000000000000000000000000000000000000000000000000ffffffff5703d8bd141a4d696e656420627920416e74506f6f6c20626a331f205a6faa07fabe6d6ddbb11d188f1310a442ef64a0161584154dbafa5ab90905209df36e1c8c9b1b55040000000000000021230000000000001f000000ffffffff0100f90295000000001976a9140ff3ccc5e8be88afe24b5d634e5852d474dbdff188ac00000000"
    }
  ],
  "time": 1517267463,
  "mediantime": 1517267034,
  "nonce": 2898279116,
  "bits": "1a042eae",
  "difficulty": 4011378.762614286,
  "chainwork": "000000000000000000000000000000000000000000000033e50b8acf74dd3632",
  "previousblockhash": "ec1bac6be2c23657869fe0475ad82aab68a76fd1852ab09841ec4e13d9b481f9",
  "nextblockhash": "92cfd65b362c726a43e46e930b1c8eef1c534e179dae3a1a21e84a62dce29fe9"
}
