{
  "hash": "6a266c32bda20a456a742c0b0423f4a21d4f91693a0d7a6a49bb8fc4b7e6614d",
  "confirmations": 1445,
  "strippedsize": 1431,
  "size": 1467,
  "weight": 5760,
  "height": 1359549,
  "version": 536870912,
  "versionHex": "20000000",
  "merkleroot": "eafbdfdcab235461355737b606c679338ecff705a2394a8e0881ad4e94ee4901",
  "tx": [
    {
      "txid": "6ca6780a6f9b124fe240db8f8607b3e4b2b33a1016d4e8331c236fbdd316ccbd",
      "hash": "ee5b85c32c0c7af54010e26a55a790a24d8a37f2fe855516e7b817fc8ea98439",
      "version": 1,
      "size": 258,
      "vsize": 231,
      "locktime": 0,
      "vin": [
        {
          "coinbase": "03bdbe14172f5669614254432f4d696e6564206279206d7a6c74632f2cfabe6d6d318470f8e70fbf70c77ed5526790bce3d48d2d1c12b61da65841fa2b460d60950100000000000000102f7dce0025a6cdec0314abff4f000000",
          "sequence": 4294967295
        }
      ],
      "vout": [
        {
          "value": 25.00299900,
          "n": 0,
          "scriptPubKey": {
            "asm": "OP_DUP OP_HASH160 e16c28146ed4869c190b3f0bdc18d80d45f92134 OP_EQUALVERIFY OP_CHECKSIG",
            "hex": "76a914e16c28146ed4869c190b3f0bdc18d80d45f9213488ac",
            "reqSigs": 1,
            "type": "pubkeyhash",
            "addresses": [
              "LfmssDyX6iZvbVqHv6t9P6JWXia2JG7mdb"
            ]
          }
        }, 
        {
          "value": 0.00000000,
          "n": 1,
          "scriptPubKey": {
            "asm": "OP_RETURN aa21a9edc484d4d684821ba348dca5fd38e93f55ce4842719e362f995b73a52179756ac7",
            "hex": "6a24aa21a9edc484d4d684821ba348dca5fd38e93f55ce4842719e362f995b73a52179756ac7",
            "type": "nulldata"
          }
        }
      ],
      "hex": "010000000001010000000000000000000000000000000000000000000000000000000000000000ffffffff5a03bdbe14172f5669614254432f4d696e6564206279206d7a6c74632f2cfabe6d6d318470f8e70fbf70c77ed5526790bce3d48d2d1c12b61da65841fa2b460d60950100000000000000102f7dce0025a6cdec0314abff4f000000ffffffff027c8c0795000000001976a914e16c28146ed4869c190b3f0bdc18d80d45f9213488ac0000000000000000266a24aa21a9edc484d4d684821ba348dca5fd38e93f55ce4842719e362f995b73a52179756ac70120000000000000000000000000000000000000000000000000000000000000000000000000"
    }, 
    {
      "txid": "2f510a8a1dca3c8e227739d48c461ab0d89aa84e1b804cb94e8cb3cde6a97e53",
      "hash": "2f510a8a1dca3c8e227739d48c461ab0d89aa84e1b804cb94e8cb3cde6a97e53",
      "version": 1,
      "size": 259,
      "vsize": 259,
      "locktime": 0,
      "vin": [
        {
          "txid": "649f3094c3a9cb9b783b9bf878db984a80074ee73ac863e2180ddc0fa941be8c",
          "vout": 3,
          "scriptSig": {
            "asm": "30440220280a72c548ce1d2093b31a35ac403d98694a5fcd756745e2e6f62a46cf2341b4022059eff2f9aeedc76d5c90f87f956f201db545969d78b311c020b6cb558b5438e0[ALL] 02a39318a09e04ebd804d7827b8ae5a4130cdb89c9498327b6a5dd4093c12219b5",
            "hex": "4730440220280a72c548ce1d2093b31a35ac403d98694a5fcd756745e2e6f62a46cf2341b4022059eff2f9aeedc76d5c90f87f956f201db545969d78b311c020b6cb558b5438e0012102a39318a09e04ebd804d7827b8ae5a4130cdb89c9498327b6a5dd4093c12219b5"
          },
          "sequence": 4294967295
        }
      ],
      "vout": [
        {
          "value": 0.99971460,
          "n": 0,
          "scriptPubKey": {
            "asm": "OP_DUP OP_HASH160 67f2a0adbe9d2432821aeafd663b1c0c67de85de OP_EQUALVERIFY OP_CHECKSIG",
            "hex": "76a91467f2a0adbe9d2432821aeafd663b1c0c67de85de88ac",
            "reqSigs": 1,
            "type": "pubkeyhash",
            "addresses": [
              "LUhaX34L2hARf8KFAhCFcEzarmJS1D59Sc"
            ]
          }
        }, 
        {
          "value": 0.75253496,
          "n": 1,
          "scriptPubKey": {
            "asm": "OP_DUP OP_HASH160 8cb1d00df2de54b8d808fa81a160016cffd4e312 OP_EQUALVERIFY OP_CHECKSIG",
            "hex": "76a9148cb1d00df2de54b8d808fa81a160016cffd4e31288ac",
            "reqSigs": 1,
            "type": "pubkeyhash",
            "addresses": [
              "LY3ssiKJ5L472yC31sM4BtRkroRyrAJ5Dh"
            ]
          }
        }, 
        {
          "value": 3.61282681,
          "n": 2,
          "scriptPubKey": {
            "asm": "OP_DUP OP_HASH160 820e2974aead0607e85e0dcc41228cbd7be15b19 OP_EQUALVERIFY OP_CHECKSIG",
            "hex": "76a914820e2974aead0607e85e0dcc41228cbd7be15b1988ac",
            "reqSigs": 1,
            "type": "pubkeyhash",
            "addresses": [
              "LX5d593o9u5JWw4arHA7FZzexw79mTCGCu"
            ]
          }
        }
      ],
      "hex": "01000000018cbe41a90fdc0d18e263c83ae74e07804a98db78f89b3b789bcba9c394309f64030000006a4730440220280a72c548ce1d2093b31a35ac403d98694a5fcd756745e2e6f62a46cf2341b4022059eff2f9aeedc76d5c90f87f956f201db545969d78b311c020b6cb558b5438e0012102a39318a09e04ebd804d7827b8ae5a4130cdb89c9498327b6a5dd4093c12219b5ffffffff038471f505000000001976a91467f2a0adbe9d2432821aeafd663b1c0c67de85de88acf8467c04000000001976a9148cb1d00df2de54b8d808fa81a160016cffd4e31288ac79bc8815000000001976a914820e2974aead0607e85e0dcc41228cbd7be15b1988ac00000000"
    }, 
    {
      "txid": "2934ed2c7796b4bf631fa8b2788a90a2b389b85028477b73e3f01b02c39ff607",
      "hash": "2934ed2c7796b4bf631fa8b2788a90a2b389b85028477b73e3f01b02c39ff607",
      "version": 1,
      "size": 226,
      "vsize": 226,
      "locktime": 0,
      "vin": [
        {
          "txid": "7b07dc7480648d67e8c5fc0658ca6cffbd633ddf9639f6f4e49351f0c507cae5",
          "vout": 1,
          "scriptSig": {
            "asm": "3045022100deb00579ef40135b4269e2142f922807348987119f69d507e12c825eb3b451c102201bcda6f2798d46887879a21c09e251118b70762db011424cc5f7cf9530086b0e[ALL] 0309d1e10462211bdbdaf5859261213e1334fa52fd1a9045f118785434a75c59d0",
            "hex": "483045022100deb00579ef40135b4269e2142f922807348987119f69d507e12c825eb3b451c102201bcda6f2798d46887879a21c09e251118b70762db011424cc5f7cf9530086b0e01210309d1e10462211bdbdaf5859261213e1334fa52fd1a9045f118785434a75c59d0"
          },
          "sequence": 4294967295
        }
      ],
      "vout": [
        {
          "value": 4.16553449,
          "n": 0,
          "scriptPubKey": {
            "asm": "OP_DUP OP_HASH160 46b7421832ca3911ae0f06100c083471675e4816 OP_EQUALVERIFY OP_CHECKSIG",
            "hex": "76a91446b7421832ca3911ae0f06100c083471675e481688ac",
            "reqSigs": 1,
            "type": "pubkeyhash",
            "addresses": [
              "LRfs6eEkKzskiHRFvpprQv4kcSoKCvsw5E"
            ]
          }
        }, 
        {
          "value": 0.83323951,
          "n": 1,
          "scriptPubKey": {
            "asm": "OP_DUP OP_HASH160 f16ccad4742686a3161a7d2a0436da150df28bac OP_EQUALVERIFY OP_CHECKSIG",
            "hex": "76a914f16ccad4742686a3161a7d2a0436da150df28bac88ac",
            "reqSigs": 1,
            "type": "pubkeyhash",
            "addresses": [
              "LhEVSTykxMSxA5pDKQERNJLX51xoJUAPyq"
            ]
          }
        }
      ],
      "hex": "0100000001e5ca07c5f05193e4f4f63996df3d63bdff6cca5806fcc5e8678d648074dc077b010000006b483045022100deb00579ef40135b4269e2142f922807348987119f69d507e12c825eb3b451c102201bcda6f2798d46887879a21c09e251118b70762db011424cc5f7cf9530086b0e01210309d1e10462211bdbdaf5859261213e1334fa52fd1a9045f118785434a75c59d0ffffffff02e919d418000000001976a91446b7421832ca3911ae0f06100c083471675e481688ac2f6cf704000000001976a914f16ccad4742686a3161a7d2a0436da150df28bac88ac00000000"
    }, 
    {
      "txid": "cfcc07930d93653c51ebdd163b14ba1871c372ce959281274f819e37c15c835b",
      "hash": "cfcc07930d93653c51ebdd163b14ba1871c372ce959281274f819e37c15c835b",
      "version": 1,
      "size": 226,
      "vsize": 226,
      "locktime": 0,
      "vin": [
        {
          "txid": "e678603bf270436351819f06ecf59a8fab675f073d3ad0cbb68ba758b23e5a32",
          "vout": 1,
          "scriptSig": {
            "asm": "3045022100c30b40781de1bf5655fff6627161e0f3eb8eae42a53507f5685cf30152b8fca3022007120af2bbbad2ae0d50f3fccb42b266dc02ff2db3465af5e0b3ae40316168e4[ALL] 03a2a3d949619403f73744d87a88f9e1c8309d7cf2347656f029be12acf938d730",
            "hex": "483045022100c30b40781de1bf5655fff6627161e0f3eb8eae42a53507f5685cf30152b8fca3022007120af2bbbad2ae0d50f3fccb42b266dc02ff2db3465af5e0b3ae40316168e4012103a2a3d949619403f73744d87a88f9e1c8309d7cf2347656f029be12acf938d730"
          },
          "sequence": 4294967295
        }
      ],
      "vout": [
        {
          "value": 4.03040920,
          "n": 0,
          "scriptPubKey": {
            "asm": "OP_DUP OP_HASH160 a8cf1e589c9a7fd8565a94f5c55868b13df0b863 OP_EQUALVERIFY OP_CHECKSIG",
            "hex": "76a914a8cf1e589c9a7fd8565a94f5c55868b13df0b86388ac",
            "reqSigs": 1,
            "type": "pubkeyhash",
            "addresses": [
              "LacXuHiG87Uybj2JjhdF4gVzQG2YeT9dUk"
            ]
          }
        }, 
        {
          "value": 0.76484080,
          "n": 1,
          "scriptPubKey": {
            "asm": "OP_DUP OP_HASH160 8831b32e7b33a682074b726dd742dff07c06c3f1 OP_EQUALVERIFY OP_CHECKSIG",
            "hex": "76a9148831b32e7b33a682074b726dd742dff07c06c3f188ac",
            "reqSigs": 1,
            "type": "pubkeyhash",
            "addresses": [
              "LXe5hWjd1ba8oYBqPrVYCN7Neqi8rMzGWW"
            ]
          }
        }
      ],
      "hex": "0100000001325a3eb258a78bb6cbd03a3d075f67ab8f9af5ec069f8151634370f23b6078e6010000006b483045022100c30b40781de1bf5655fff6627161e0f3eb8eae42a53507f5685cf30152b8fca3022007120af2bbbad2ae0d50f3fccb42b266dc02ff2db3465af5e0b3ae40316168e4012103a2a3d949619403f73744d87a88f9e1c8309d7cf2347656f029be12acf938d730ffffffff0298ea0518000000001976a914a8cf1e589c9a7fd8565a94f5c55868b13df0b86388acf00d8f04000000001976a9148831b32e7b33a682074b726dd742dff07c06c3f188ac00000000"
    }, 
    {
      "txid": "59193f3156553b2ee93f91f132b27bea57e2888c89dbbd46d07874ba6c41895f",
      "hash": "59193f3156553b2ee93f91f132b27bea57e2888c89dbbd46d07874ba6c41895f",
      "version": 1,
      "size": 226,
      "vsize": 226,
      "locktime": 0,
      "vin": [
        {
          "txid": "795088c9a885f7495696f206105850c8d5bc8c64c951ebe65c43e2ea407ff08e",
          "vout": 1,
          "scriptSig": {
            "asm": "3045022100a790da80dd6fb3676afb7aff4295dac2a86d9ff9f5909e08c0c626f8a3ea1fce02204dc5974f2fa9039c4b4b80f11ba938f75b8e003294862dec327b3f96c000762c[ALL] 020ce8b1c45e94c52a5371a70514d5b9e80732ee7f4f1b4475ebf5d8b2195b3950",
            "hex": "483045022100a790da80dd6fb3676afb7aff4295dac2a86d9ff9f5909e08c0c626f8a3ea1fce02204dc5974f2fa9039c4b4b80f11ba938f75b8e003294862dec327b3f96c000762c0121020ce8b1c45e94c52a5371a70514d5b9e80732ee7f4f1b4475ebf5d8b2195b3950"
          },
          "sequence": 4294967295
        }
      ],
      "vout": [
        {
          "value": 2.99955000,
          "n": 0,
          "scriptPubKey": {
            "asm": "OP_DUP OP_HASH160 c5174f27c3a3e8aa82455ab10e3975a7977e0e1d OP_EQUALVERIFY OP_CHECKSIG",
            "hex": "76a914c5174f27c3a3e8aa82455ab10e3975a7977e0e1d88ac",
            "reqSigs": 1,
            "type": "pubkeyhash",
            "addresses": [
              "LdC5JZA7Vdw8Aw6ydBWf3LB69aU6bf4Tf5"
            ]
          }
        }, 
        {
          "value": 2.00000000,
          "n": 1,
          "scriptPubKey": {
            "asm": "OP_DUP OP_HASH160 987de953fae567a279b03d929a2bc0d52433f745 OP_EQUALVERIFY OP_CHECKSIG",
            "hex": "76a914987de953fae567a279b03d929a2bc0d52433f74588ac",
            "reqSigs": 1,
            "type": "pubkeyhash",
            "addresses": [
              "LZ8ForL2BvsedzTSTqbUd2t42aSmg1epzf"
            ]
          }
        }
      ],
      "hex": "01000000018ef07f40eae2435ce6eb51c9648cbcd5c850581006f2965649f785a8c9885079010000006b483045022100a790da80dd6fb3676afb7aff4295dac2a86d9ff9f5909e08c0c626f8a3ea1fce02204dc5974f2fa9039c4b4b80f11ba938f75b8e003294862dec327b3f96c000762c0121020ce8b1c45e94c52a5371a70514d5b9e80732ee7f4f1b4475ebf5d8b2195b3950ffffffff0238f3e011000000001976a914c5174f27c3a3e8aa82455ab10e3975a7977e0e1d88ac00c2eb0b000000001976a914987de953fae567a279b03d929a2bc0d52433f74588ac00000000"
    }, 
    {
      "txid": "c2ac2d0006d9377ca3b3e200937be98960ef2b8eda39c71b3f763984217b83af",
      "hash": "c2ac2d0006d9377ca3b3e200937be98960ef2b8eda39c71b3f763984217b83af",
      "version": 1,
      "size": 191,
      "vsize": 191,
      "locktime": 1359547,
      "vin": [
        {
          "txid": "51a2c346dfe7083b4c0f2a4411761bf2bd086365b28a5cb03d270ea57b79a79e",
          "vout": 3,
          "scriptSig": {
            "asm": "304402207f07fbb2f698992c283626fb84efe368fc488b5d9467e20e55ce09acf8f4896a02202c291908be122940fe20c1d1c113a78545cc9177c7bc0bc2e9de3a11d7c3ff8b[ALL] 023e4984ccfb18ced4b2ae99dfb47f3f8b877f46dbab55dd4c8f894b12c187c27b",
            "hex": "47304402207f07fbb2f698992c283626fb84efe368fc488b5d9467e20e55ce09acf8f4896a02202c291908be122940fe20c1d1c113a78545cc9177c7bc0bc2e9de3a11d7c3ff8b0121023e4984ccfb18ced4b2ae99dfb47f3f8b877f46dbab55dd4c8f894b12c187c27b"
          },
          "sequence": 4294967294
        }
      ],
      "vout": [
        {
          "value": 0.76780900,
          "n": 0,
          "scriptPubKey": {
            "asm": "OP_DUP OP_HASH160 479929fc2251918f6993318d131f326d3607732d OP_EQUALVERIFY OP_CHECKSIG",
            "hex": "76a914479929fc2251918f6993318d131f326d3607732d88ac",
            "reqSigs": 1,
            "type": "pubkeyhash",
            "addresses": [
              "LRkXirWoeUquHqCG6xe2VZiLustiuxD14a"
            ]
          }
        }
      ],
      "hex": "01000000019ea7797ba50e273db05c8ab2656308bdf21b7611442a0f4c3b08e7df46c3a251030000006a47304402207f07fbb2f698992c283626fb84efe368fc488b5d9467e20e55ce09acf8f4896a02202c291908be122940fe20c1d1c113a78545cc9177c7bc0bc2e9de3a11d7c3ff8b0121023e4984ccfb18ced4b2ae99dfb47f3f8b877f46dbab55dd4c8f894b12c187c27bfeffffff0164959304000000001976a914479929fc2251918f6993318d131f326d3607732d88acbbbe1400"
    }
  ],
  "time": 1517297265,
  "mediantime": 1517296746,
  "nonce": 384278145,
  "bits": "1a042eae",
  "difficulty": 4011378.762614286,
  "chainwork": "0000000000000000000000000000000000000000000000341bcc91391ec6d77c",
  "previousblockhash": "da6dabf6f657be7750441d50a5662401c14ce39099a3a532e1272809af987069",
  "nextblockhash": "99445f237717b8f3f5355e247ef0ceffb7b70796d41ea43e0e8f48e8c4923baf"
}
