{
  "hash": "6a5efe59a305135393a82a3b43606c4bba2068e5945f1cc9063373cc36116b16",
  "confirmations": 2429,
  "strippedsize": 5069,
  "size": 5214,
  "weight": 20421,
  "height": 1358566,
  "version": 536870912,
  "versionHex": "20000000",
  "merkleroot": "80a58c8afbee5f3cfee0f756644623ff5e4fc36bad3b13b3a41d7bf98e3f8408",
  "tx": [
    {
      "txid": "9ce01d8e213a5f74c0e3c3f00b3ee91b424ce7c0296a858cc89b1c8bc617af0d",
      "hash": "e08ba1195d2a4ef3d45edebd6bde56c9f5fe45a0399eb842b7d9f68ea078b1af",
      "version": 1,
      "size": 200,
      "vsize": 173,
      "locktime": 0,
      "vin": [
        {
          "coinbase": "03e6ba140481006e5a0870000182de0100000d2f6e6f64655374726174756d2f",
          "sequence": 0
        }
      ],
      "vout": [
        {
          "value": 0.00000000,
          "n": 0,
          "scriptPubKey": {
            "asm": "OP_RETURN aa21a9edd4214aec954f6e79b7a4456f3d97f4f29949a45fd04f56ec4ab506d1f154ceed",
            "hex": "6a24aa21a9edd4214aec954f6e79b7a4456f3d97f4f29949a45fd04f56ec4ab506d1f154ceed",
            "type": "nulldata"
          }
        }, 
        {
          "value": 25.01195900,
          "n": 1,
          "scriptPubKey": {
            "asm": "OP_DUP OP_HASH160 8836a0d567257e801254e29be08629fb71f36f9f OP_EQUALVERIFY OP_CHECKSIG",
            "hex": "76a9148836a0d567257e801254e29be08629fb71f36f9f88ac",
            "reqSigs": 1,
            "type": "pubkeyhash",
            "addresses": [
              "LXeBbwTXnzwSUzSbVubDZu4brFzmMjehn3"
            ]
          }
        }
      ],
      "hex": "010000000001010000000000000000000000000000000000000000000000000000000000000000ffffffff2003e6ba140481006e5a0870000182de0100000d2f6e6f64655374726174756d2f00000000020000000000000000266a24aa21a9edd4214aec954f6e79b7a4456f3d97f4f29949a45fd04f56ec4ab506d1f154ceed7c381595000000001976a9148836a0d567257e801254e29be08629fb71f36f9f88ac0120000000000000000000000000000000000000000000000000000000000000000000000000"
    }, 
    {
      "txid": "f99041a3be537c8020592778034b924b54027827c6d3b0cd7742a65a44f7b36a",
      "hash": "f99041a3be537c8020592778034b924b54027827c6d3b0cd7742a65a44f7b36a",
      "version": 1,
      "size": 225,
      "vsize": 225,
      "locktime": 0,
      "vin": [
        {
          "txid": "c8827db0a380927e3182e23f402787f3b523f3aedf59ba3448d200c748c365b2",
          "vout": 1,
          "scriptSig": {
            "asm": "30440220582e1e13ddbb3ac3a5765a0c38dff8ad9f4730ce3ff3c25c51ba47b95354e4e70220539401011ca6dc05926b5b69045eb7bebae5b5025216cfbf1c207a519c0b31c7[ALL] 025143acc9c58ac624521deb7fd07074f19b2abaf3696a8cf3488d53f85afeb60a",
            "hex": "4730440220582e1e13ddbb3ac3a5765a0c38dff8ad9f4730ce3ff3c25c51ba47b95354e4e70220539401011ca6dc05926b5b69045eb7bebae5b5025216cfbf1c207a519c0b31c70121025143acc9c58ac624521deb7fd07074f19b2abaf3696a8cf3488d53f85afeb60a"
          },
          "sequence": 4294967295
        }
      ],
      "vout": [
        {
          "value": 0.33300000,
          "n": 0,
          "scriptPubKey": {
            "asm": "OP_DUP OP_HASH160 b038733f2462cf95a7183738487a7948f32f6dba OP_EQUALVERIFY OP_CHECKSIG",
            "hex": "76a914b038733f2462cf95a7183738487a7948f32f6dba88ac",
            "reqSigs": 1,
            "type": "pubkeyhash",
            "addresses": [
              "LbHipChmDpkzWXrQXgPfLfkYtxcZ1U3kAz"
            ]
          }
        }, 
        {
          "value": 0.47884419,
          "n": 1,
          "scriptPubKey": {
            "asm": "OP_DUP OP_HASH160 5ca900f69f059421f4d1142f8457e2a620b671ef OP_EQUALVERIFY OP_CHECKSIG",
            "hex": "76a9145ca900f69f059421f4d1142f8457e2a620b671ef88ac",
            "reqSigs": 1,
            "type": "pubkeyhash",
            "addresses": [
              "LTfttSyoU12Kbop4KH3oNF5Lm6ebLTCUDV"
            ]
          }
        }
      ],
      "hex": "0100000001b265c348c700d24834ba59dfaef323b5f38727403fe282317e9280a3b07d82c8010000006a4730440220582e1e13ddbb3ac3a5765a0c38dff8ad9f4730ce3ff3c25c51ba47b95354e4e70220539401011ca6dc05926b5b69045eb7bebae5b5025216cfbf1c207a519c0b31c70121025143acc9c58ac624521deb7fd07074f19b2abaf3696a8cf3488d53f85afeb60affffffff02201efc01000000001976a914b038733f2462cf95a7183738487a7948f32f6dba88ac83a8da02000000001976a9145ca900f69f059421f4d1142f8457e2a620b671ef88ac00000000"
    }, 
    {
      "txid": "5b758dfa4d056cfe759f826f101199ebec330f85b7a296749e993eefd5ba5def",
      "hash": "5b758dfa4d056cfe759f826f101199ebec330f85b7a296749e993eefd5ba5def",
      "version": 1,
      "size": 225,
      "vsize": 225,
      "locktime": 0,
      "vin": [
        {
          "txid": "49010b89394cc0563478feba78832793de9f60fccf8c0938ead82be54fab1e9b",
          "vout": 1,
          "scriptSig": {
            "asm": "304402206866c1ce3c99a984af2e2fdfe4de4e5638eb797097d8c78e1002d22a42cb68e702207e83df947284b14338d6aa4defe58ddad8266e0c5a7417403df2f4a7ab82c7dd[ALL] 03460b90e89bf8f1385f4e6cdd776859201246d1fa18ed25657a93c3154b95a137",
            "hex": "47304402206866c1ce3c99a984af2e2fdfe4de4e5638eb797097d8c78e1002d22a42cb68e702207e83df947284b14338d6aa4defe58ddad8266e0c5a7417403df2f4a7ab82c7dd012103460b90e89bf8f1385f4e6cdd776859201246d1fa18ed25657a93c3154b95a137"
          },
          "sequence": 4294967295
        }
      ],
      "vout": [
        {
          "value": 0.01001530,
          "n": 0,
          "scriptPubKey": {
            "asm": "OP_DUP OP_HASH160 f6896086c87c3f58f9c9fbaedaf2d35528eb1c3c OP_EQUALVERIFY OP_CHECKSIG",
            "hex": "76a914f6896086c87c3f58f9c9fbaedaf2d35528eb1c3c88ac",
            "reqSigs": 1,
            "type": "pubkeyhash",
            "addresses": [
              "LhhX4XcDqusKZJATgGrAD1UNfS9Mz7Uky5"
            ]
          }
        }, 
        {
          "value": 0.32020223,
          "n": 1,
          "scriptPubKey": {
            "asm": "OP_DUP OP_HASH160 fd4b3751fb8be2879965d85929fc3a6a8570b87c OP_EQUALVERIFY OP_CHECKSIG",
            "hex": "76a914fd4b3751fb8be2879965d85929fc3a6a8570b87c88ac",
            "reqSigs": 1,
            "type": "pubkeyhash",
            "addresses": [
              "LiKFKrNLyuM2YTe9gXFrzJH5LvhBYn7236"
            ]
          }
        }
      ],
      "hex": "01000000019b1eab4fe52bd8ea38098ccffc609fde93278378bafe783456c04c39890b0149010000006a47304402206866c1ce3c99a984af2e2fdfe4de4e5638eb797097d8c78e1002d22a42cb68e702207e83df947284b14338d6aa4defe58ddad8266e0c5a7417403df2f4a7ab82c7dd012103460b90e89bf8f1385f4e6cdd776859201246d1fa18ed25657a93c3154b95a137ffffffff023a480f00000000001976a914f6896086c87c3f58f9c9fbaedaf2d35528eb1c3c88acff96e801000000001976a914fd4b3751fb8be2879965d85929fc3a6a8570b87c88ac00000000"
    }, 
    {
      "txid": "d606399226162572f9dc93b12dfc03b4b05bd1cd2e2c92d0a0c6e0e4cb7a1de7",
      "hash": "d606399226162572f9dc93b12dfc03b4b05bd1cd2e2c92d0a0c6e0e4cb7a1de7",
      "version": 1,
      "size": 668,
      "vsize": 668,
      "locktime": 1358564,
      "vin": [
        {
          "txid": "7fbb2a2001f51d5dd74db809fa4252c6ca9c45ec6102e9bd416c4afb5bd6312d",
          "vout": 92,
          "scriptSig": {
            "asm": "3045022100bbab4bb483d6c0656732e128ac9d90c8fcc24ed1e30672381cdb41f70d7a365102207a65f3838169436d7928fdf7190c21d4d80042f9f05268317b1f755b069e13d0[ALL] 03256f336df1609c1bd77d0081338eca2556a004bdc8583c83874396b9ec6dbec4",
            "hex": "483045022100bbab4bb483d6c0656732e128ac9d90c8fcc24ed1e30672381cdb41f70d7a365102207a65f3838169436d7928fdf7190c21d4d80042f9f05268317b1f755b069e13d0012103256f336df1609c1bd77d0081338eca2556a004bdc8583c83874396b9ec6dbec4"
          },
          "sequence": 4294967294
        }, 
        {
          "txid": "ea66d8edbbdd757a9fb0c399a63731390a8fa16caeca5b73bb864dc352b0bbb1",
          "vout": 1,
          "scriptSig": {
            "asm": "3044022030abe3f7ea49d6f8fa7c17fae404f9383c416138872e4dd377b2af907f929d5202204d1f2e285ac1520b2f5b2e860546cf099daf93110366b262e0a44d466e737deb[ALL] 025cb2b769b02f3413aaa10abf838742b037338a1186a05f395ab8cb233826a7a7",
            "hex": "473044022030abe3f7ea49d6f8fa7c17fae404f9383c416138872e4dd377b2af907f929d5202204d1f2e285ac1520b2f5b2e860546cf099daf93110366b262e0a44d466e737deb0121025cb2b769b02f3413aaa10abf838742b037338a1186a05f395ab8cb233826a7a7"
          },
          "sequence": 4294967294
        }, 
        {
          "txid": "8f4f11f3714391e5b57f72c69a813638430ebb84ca503b7c21fdd64c9d9399c4",
          "vout": 21,
          "scriptSig": {
            "asm": "3044022055579e1e138cbdc85d73539995fbf27080c53d03d363ee1c8cb9baf2df1afaff02204712047bbe1132121aa8a1eda7bd9ac50b6e836da8068281ac9525f9a6a77ec3[ALL] 034fc7e93754a4e100fa6874fb0df16f6b198bc57bbb62b4b18db6b853b1385706",
            "hex": "473044022055579e1e138cbdc85d73539995fbf27080c53d03d363ee1c8cb9baf2df1afaff02204712047bbe1132121aa8a1eda7bd9ac50b6e836da8068281ac9525f9a6a77ec30121034fc7e93754a4e100fa6874fb0df16f6b198bc57bbb62b4b18db6b853b1385706"
          },
          "sequence": 4294967294
        }, 
        {
          "txid": "c30e118019f2972f668ddfeb2e3437f7272e132093e264223ee2c963c1b9cdee",
          "vout": 1,
          "scriptSig": {
            "asm": "3045022100f875ddfa82a6d385e7f645f92c09083a8ecf6a02b119e3e8744a9fb0f4c7de000220225ef96fe760dc60c58e645218559f0a3358c8c3376629c0baee0bcebc96b16d[ALL] 02cc1601f0c1648fb6eae945ecfa5a352cd96ca142e98b3c2bebc176edd749c6d1",
            "hex": "483045022100f875ddfa82a6d385e7f645f92c09083a8ecf6a02b119e3e8744a9fb0f4c7de000220225ef96fe760dc60c58e645218559f0a3358c8c3376629c0baee0bcebc96b16d012102cc1601f0c1648fb6eae945ecfa5a352cd96ca142e98b3c2bebc176edd749c6d1"
          },
          "sequence": 4294967294
        }
      ],
      "vout": [
        {
          "value": 0.01000002,
          "n": 0,
          "scriptPubKey": {
            "asm": "OP_DUP OP_HASH160 67899e08c9af97737ebcfbca26f3219c8437e6a5 OP_EQUALVERIFY OP_CHECKSIG",
            "hex": "76a91467899e08c9af97737ebcfbca26f3219c8437e6a588ac",
            "reqSigs": 1,
            "type": "pubkeyhash",
            "addresses": [
              "LUfQinp6v6Ja3wn1XbDo9o7XxbZyFeLYF4"
            ]
          }
        }, 
        {
          "value": 1.78504183,
          "n": 1,
          "scriptPubKey": {
            "asm": "OP_DUP OP_HASH160 bf0faeeb624270347442759b7494889b5b75eed0 OP_EQUALVERIFY OP_CHECKSIG",
            "hex": "76a914bf0faeeb624270347442759b7494889b5b75eed088ac",
            "reqSigs": 1,
            "type": "pubkeyhash",
            "addresses": [
              "LceC7YcskEgaPmDdvGjWjhH9uKaadUYTx8"
            ]
          }
        }
      ],
      "hex": "01000000042d31d65bfb4a6c41bde90261ec459ccac65242fa09b84dd75d1df501202abb7f5c0000006b483045022100bbab4bb483d6c0656732e128ac9d90c8fcc24ed1e30672381cdb41f70d7a365102207a65f3838169436d7928fdf7190c21d4d80042f9f05268317b1f755b069e13d0012103256f336df1609c1bd77d0081338eca2556a004bdc8583c83874396b9ec6dbec4feffffffb1bbb052c34d86bb735bcaae6ca18f0a393137a699c3b09f7a75ddbbedd866ea010000006a473044022030abe3f7ea49d6f8fa7c17fae404f9383c416138872e4dd377b2af907f929d5202204d1f2e285ac1520b2f5b2e860546cf099daf93110366b262e0a44d466e737deb0121025cb2b769b02f3413aaa10abf838742b037338a1186a05f395ab8cb233826a7a7feffffffc499939d4cd6fd217c3b50ca84bb0e433836819ac6727fb5e5914371f3114f8f150000006a473044022055579e1e138cbdc85d73539995fbf27080c53d03d363ee1c8cb9baf2df1afaff02204712047bbe1132121aa8a1eda7bd9ac50b6e836da8068281ac9525f9a6a77ec30121034fc7e93754a4e100fa6874fb0df16f6b198bc57bbb62b4b18db6b853b1385706feffffffeecdb9c163c9e23e2264e29320132e27f737342eebdf8d662f97f21980110ec3010000006b483045022100f875ddfa82a6d385e7f645f92c09083a8ecf6a02b119e3e8744a9fb0f4c7de000220225ef96fe760dc60c58e645218559f0a3358c8c3376629c0baee0bcebc96b16d012102cc1601f0c1648fb6eae945ecfa5a352cd96ca142e98b3c2bebc176edd749c6d1feffffff0242420f00000000001976a91467899e08c9af97737ebcfbca26f3219c8437e6a588acf7c1a30a000000001976a914bf0faeeb624270347442759b7494889b5b75eed088ace4ba1400"
    }, 
    {
      "txid": "8bdb9fbaac0b4301c208e80e67eeb8dff97bd85fa91567e1b917b99fc7b7a676",
      "hash": "9e49faea7d76728b989b6617e133a98e8687cc169ed50b9307679da6f0db4678",
      "version": 1,
      "size": 249,
      "vsize": 168,
      "locktime": 0,
      "vin": [
        {
          "txid": "d1eb9ef1570f1b17f050fbe376f74e3d0599ec56c7cda01fecf0d065ee0f1844",
          "vout": 0,
          "scriptSig": {
            "asm": "00149b7b4e2ab8b9972974df6239461f800b674c78ab",
            "hex": "1600149b7b4e2ab8b9972974df6239461f800b674c78ab"
          },
          "txinwitness": [
            "3044022055894aa05dd7883b387474b301f18cf9dd5f877a68d1dea20ebfb43c731d416c02202f8a3ced7298e3e2d2dd65fef34dff3a5ebefe0bda8811543637e17a19af702001", 
            "0280144012461ccb56d4b8ace7679afa9a1a1d90e7c494aae503272f9d2aaaa0d8"
          ],
          "sequence": 4294967295
        }
      ],
      "vout": [
        {
          "value": 5.18882900,
          "n": 0,
          "scriptPubKey": {
            "asm": "OP_HASH160 a3364181529542dc357a09fe3fe38e0c6664db93 OP_EQUAL",
            "hex": "a914a3364181529542dc357a09fe3fe38e0c6664db9387",
            "reqSigs": 1,
            "type": "scripthash",
            "addresses": [
              "MNn9NTpH5KG9P6bAmSkAo1amU12qpwRB3a"
            ]
          }
        }, 
        {
          "value": 15.00000000,
          "n": 1,
          "scriptPubKey": {
            "asm": "OP_DUP OP_HASH160 4e2a2a4bd1361b0471367178a5f948157acccda8 OP_EQUALVERIFY OP_CHECKSIG",
            "hex": "76a9144e2a2a4bd1361b0471367178a5f948157acccda888ac",
            "reqSigs": 1,
            "type": "pubkeyhash",
            "addresses": [
              "LSMFUsDTdG5QgLywkXAAkge5phQyV171Ej"
            ]
          }
        }
      ],
      "hex": "0100000000010144180fee65d0f0ec1fa0cdc756ec99053d4ef776e3fb50f0171b0f57f19eebd100000000171600149b7b4e2ab8b9972974df6239461f800b674c78abffffffff025486ed1e0000000017a914a3364181529542dc357a09fe3fe38e0c6664db9387002f6859000000001976a9144e2a2a4bd1361b0471367178a5f948157acccda888ac02473044022055894aa05dd7883b387474b301f18cf9dd5f877a68d1dea20ebfb43c731d416c02202f8a3ced7298e3e2d2dd65fef34dff3a5ebefe0bda8811543637e17a19af702001210280144012461ccb56d4b8ace7679afa9a1a1d90e7c494aae503272f9d2aaaa0d800000000"
    }, 
    {
      "txid": "2f211f552f360e635d869ec4010be655c73bd87036cf87c2cf59f8783c880147",
      "hash": "2f211f552f360e635d869ec4010be655c73bd87036cf87c2cf59f8783c880147",
      "version": 2,
      "size": 225,
      "vsize": 225,
      "locktime": 1358564,
      "vin": [
        {
          "txid": "9299cf1cbec48db10d3c5bcdecbf5fb035aa3f7d55ad3a5418ea9a6f6d8d67d7",
          "vout": 0,
          "scriptSig": {
            "asm": "3044022058d5539879f21146f3c1fd70e48bca693c5c5f494dbd1ab32ea10a3c2f100b840220577a7a9c7ffe9ec3a5e34c3d19c7bbedb9f1bc5818ebce6b5c27418a004113a5[ALL] 0328a335712846144deb57660f3dcaf7c804bf8476d40a78ad1e84976f77654ed7",
            "hex": "473044022058d5539879f21146f3c1fd70e48bca693c5c5f494dbd1ab32ea10a3c2f100b840220577a7a9c7ffe9ec3a5e34c3d19c7bbedb9f1bc5818ebce6b5c27418a004113a501210328a335712846144deb57660f3dcaf7c804bf8476d40a78ad1e84976f77654ed7"
          },
          "sequence": 4294967294
        }
      ],
      "vout": [
        {
          "value": 0.93234106,
          "n": 0,
          "scriptPubKey": {
            "asm": "OP_DUP OP_HASH160 2d272901770f8827427b46194e120e628110ee58 OP_EQUALVERIFY OP_CHECKSIG",
            "hex": "76a9142d272901770f8827427b46194e120e628110ee5888ac",
            "reqSigs": 1,
            "type": "pubkeyhash",
            "addresses": [
              "LPLhak1KkLbwXWsap3ApxV3bDt99n9qMhw"
            ]
          }
        }, 
        {
          "value": 1.06743294,
          "n": 1,
          "scriptPubKey": {
            "asm": "OP_DUP OP_HASH160 8e939b6a8f43191e2214b8518cd8fda810083281 OP_EQUALVERIFY OP_CHECKSIG",
            "hex": "76a9148e939b6a8f43191e2214b8518cd8fda81008328188ac",
            "reqSigs": 1,
            "type": "pubkeyhash",
            "addresses": [
              "LYDq3NdHcKUJfmjnjKe3wQxFcEupRUUjry"
            ]
          }
        }
      ],
      "hex": "0200000001d7678d6d6f9aea18543aad557d3faa35b05fbfeccd5b3c0db18dc4be1ccf9992000000006a473044022058d5539879f21146f3c1fd70e48bca693c5c5f494dbd1ab32ea10a3c2f100b840220577a7a9c7ffe9ec3a5e34c3d19c7bbedb9f1bc5818ebce6b5c27418a004113a501210328a335712846144deb57660f3dcaf7c804bf8476d40a78ad1e84976f77654ed7feffffff02baa38e05000000001976a9142d272901770f8827427b46194e120e628110ee5888acfec55c06000000001976a9148e939b6a8f43191e2214b8518cd8fda81008328188ace4ba1400"
    }, 
    {
      "txid": "a8e5877fb65f24d64a1d11ba8aba5be839a1e50d5300af814cd2de1b2e20b24a",
      "hash": "a8e5877fb65f24d64a1d11ba8aba5be839a1e50d5300af814cd2de1b2e20b24a",
      "version": 1,
      "size": 225,
      "vsize": 225,
      "locktime": 0,
      "vin": [
        {
          "txid": "bd7804807d60a895d41b55b2736429c650dd2393fa8029e083aaf0e37cf9a74a",
          "vout": 1,
          "scriptSig": {
            "asm": "3044022025531a4d0893e02dfec84ff5302c162d34cd290c2073d2bfa22feb3fc62b82500220129574444cdd30951430e29a4ee4f8d5d1de56495b5f0618ea738662138c1ddc[ALL] 02ab80208c75080a5803dc6f78e882bc3d022fe4d5b2bc8efee9b834053d9661cd",
            "hex": "473044022025531a4d0893e02dfec84ff5302c162d34cd290c2073d2bfa22feb3fc62b82500220129574444cdd30951430e29a4ee4f8d5d1de56495b5f0618ea738662138c1ddc012102ab80208c75080a5803dc6f78e882bc3d022fe4d5b2bc8efee9b834053d9661cd"
          },
          "sequence": 4294967295
        }
      ],
      "vout": [
        {
          "value": 91.07155901,
          "n": 0,
          "scriptPubKey": {
            "asm": "OP_DUP OP_HASH160 cd9dd88bc84d1b58811d114a08a5491af7d46da1 OP_EQUALVERIFY OP_CHECKSIG",
            "hex": "76a914cd9dd88bc84d1b58811d114a08a5491af7d46da188ac",
            "reqSigs": 1,
            "type": "pubkeyhash",
            "addresses": [
              "Ldy9sryaib9KZFQugz7ZATB74kTA34LQJm"
            ]
          }
        }, 
        {
          "value": 1.08633009,
          "n": 1,
          "scriptPubKey": {
            "asm": "OP_DUP OP_HASH160 a8e2dc5a8a5d91c1c43649473f4a4c3f6a8dd7c6 OP_EQUALVERIFY OP_CHECKSIG",
            "hex": "76a914a8e2dc5a8a5d91c1c43649473f4a4c3f6a8dd7c688ac",
            "reqSigs": 1,
            "type": "pubkeyhash",
            "addresses": [
              "LacwZ15jdJ3xMTrUbxAidMfKYXi34pv3Pn"
            ]
          }
        }
      ],
      "hex": "01000000014aa7f97ce3f0aa83e02980fa9323dd50c6296473b2551bd495a8607d800478bd010000006a473044022025531a4d0893e02dfec84ff5302c162d34cd290c2073d2bfa22feb3fc62b82500220129574444cdd30951430e29a4ee4f8d5d1de56495b5f0618ea738662138c1ddc012102ab80208c75080a5803dc6f78e882bc3d022fe4d5b2bc8efee9b834053d9661cdffffffff02bd2bd41e020000001976a914cd9dd88bc84d1b58811d114a08a5491af7d46da188acb19b7906000000001976a914a8e2dc5a8a5d91c1c43649473f4a4c3f6a8dd7c688ac00000000"
    }, 
    {
      "txid": "acb1b09839a24fb6afac64aa1e58afd8cdd3402780f36e731d36ea11bcf649fd",
      "hash": "acb1b09839a24fb6afac64aa1e58afd8cdd3402780f36e731d36ea11bcf649fd",
      "version": 1,
      "size": 225,
      "vsize": 225,
      "locktime": 0,
      "vin": [
        {
          "txid": "78cf3c6d6fae3acbb30d99ac1c75252792e03ba8e53d24fc05c881fa6d67bbf3",
          "vout": 1,
          "scriptSig": {
            "asm": "304402202a449ed84d77205a410abf26f1073e74795c68fd7cd3793395d299b455e877910220606c1e2eb63c174d1b4ffbc946b5a395fe7dbe83f282b911f5270d9f3a32f5e1[ALL] 03a5ace2da02b695de814900ecaa41bdcd2e2014f4204cdec668fd603ef1b76d7d",
            "hex": "47304402202a449ed84d77205a410abf26f1073e74795c68fd7cd3793395d299b455e877910220606c1e2eb63c174d1b4ffbc946b5a395fe7dbe83f282b911f5270d9f3a32f5e1012103a5ace2da02b695de814900ecaa41bdcd2e2014f4204cdec668fd603ef1b76d7d"
          },
          "sequence": 4294967295
        }
      ],
      "vout": [
        {
          "value": 89.40756037,
          "n": 0,
          "scriptPubKey": {
            "asm": "OP_DUP OP_HASH160 ea93e3993402a6c2dae669b17d05bcbcd751b55d OP_EQUALVERIFY OP_CHECKSIG",
            "hex": "76a914ea93e3993402a6c2dae669b17d05bcbcd751b55d88ac",
            "reqSigs": 1,
            "type": "pubkeyhash",
            "addresses": [
              "LgcHYcWmk67MH6TMgZTyTXHTNC3Jawkftk"
            ]
          }
        }, 
        {
          "value": 2.60837830,
          "n": 1,
          "scriptPubKey": {
            "asm": "OP_DUP OP_HASH160 773c5730f477f893d7fd9d9aa3df606edc6e9b72 OP_EQUALVERIFY OP_CHECKSIG",
            "hex": "76a914773c5730f477f893d7fd9d9aa3df606edc6e9b7288ac",
            "reqSigs": 1,
            "type": "pubkeyhash",
            "addresses": [
              "LW6QxaWbBUivASCQexF7wmotiHqFK99khS"
            ]
          }
        }
      ],
      "hex": "0100000001f3bb676dfa81c805fc243de5a83be0922725751cac990db3cb3aae6f6d3ccf78010000006a47304402202a449ed84d77205a410abf26f1073e74795c68fd7cd3793395d299b455e877910220606c1e2eb63c174d1b4ffbc946b5a395fe7dbe83f282b911f5270d9f3a32f5e1012103a5ace2da02b695de814900ecaa41bdcd2e2014f4204cdec668fd603ef1b76d7dffffffff02451ce914020000001976a914ea93e3993402a6c2dae669b17d05bcbcd751b55d88acc6118c0f000000001976a914773c5730f477f893d7fd9d9aa3df606edc6e9b7288ac00000000"
    }, 
    {
      "txid": "bb5085eeee4aebee0319b0c5232da805aa848c37cc246c1779dc306278ce2367",
      "hash": "bb5085eeee4aebee0319b0c5232da805aa848c37cc246c1779dc306278ce2367",
      "version": 2,
      "size": 2439,
      "vsize": 2439,
      "locktime": 1358534,
      "vin": [
        {
          "txid": "fa0ce50ce6ed1fbc99d334bf635f8bfaa6e20168182212e48d6b91b1ee88514f",
          "vout": 225,
          "scriptSig": {
            "asm": "304402202703e2e33e7d098e0bc1cb99115f6f7bc4e69bfca9a50fa833c0cbcb6a0c2ecf02203e6cf1597a387eda00002259e5867d51c620cd434ca13bc01040d31a8bc460fc[ALL] 031e43d7ef44fa1ebf59da8fb618a397cb91cd59e5be151dd1e5bedb1ed505c2ca",
            "hex": "47304402202703e2e33e7d098e0bc1cb99115f6f7bc4e69bfca9a50fa833c0cbcb6a0c2ecf02203e6cf1597a387eda00002259e5867d51c620cd434ca13bc01040d31a8bc460fc0121031e43d7ef44fa1ebf59da8fb618a397cb91cd59e5be151dd1e5bedb1ed505c2ca"
          },
          "sequence": 4294967294
        }, 
        {
          "txid": "c862b2636ed8e08a81e2fb4fd354c74cdb922f587a0e55b232468e3a05ab1422",
          "vout": 223,
          "scriptSig": {
            "asm": "30440220465721d04f8b450312ff566b2213d68d175b7ab699ca745dab1f06f7c11472670220619e6059bc42b84fb4809b22c833e8966152e213233f61612180b680724a101b[ALL] 031e43d7ef44fa1ebf59da8fb618a397cb91cd59e5be151dd1e5bedb1ed505c2ca",
            "hex": "4730440220465721d04f8b450312ff566b2213d68d175b7ab699ca745dab1f06f7c11472670220619e6059bc42b84fb4809b22c833e8966152e213233f61612180b680724a101b0121031e43d7ef44fa1ebf59da8fb618a397cb91cd59e5be151dd1e5bedb1ed505c2ca"
          },
          "sequence": 4294967294
        }, 
        {
          "txid": "dbd70cc723700f76059d55e4d35c5714d5a900205eaabe8cfa7db94a9b853a1e",
          "vout": 228,
          "scriptSig": {
            "asm": "3045022100ee8e7963f8849bbb4e3326017307bd45d01f6d0b0c49b1a1590f5c967eb87771022028108d1f9e127145af2024480dc4f57408c81205fca57b14b0e30939419679d5[ALL] 031e43d7ef44fa1ebf59da8fb618a397cb91cd59e5be151dd1e5bedb1ed505c2ca",
            "hex": "483045022100ee8e7963f8849bbb4e3326017307bd45d01f6d0b0c49b1a1590f5c967eb87771022028108d1f9e127145af2024480dc4f57408c81205fca57b14b0e30939419679d50121031e43d7ef44fa1ebf59da8fb618a397cb91cd59e5be151dd1e5bedb1ed505c2ca"
          },
          "sequence": 4294967294
        }, 
        {
          "txid": "72f91d5011723f00d041f45288be90221fad7780fdf5c89ea380e9c718207d18",
          "vout": 224,
          "scriptSig": {
            "asm": "304402200beb050d4ef81918bad2c02921839245268b6d190f3d841ef4c5d820c452d1d60220235abe59fda3c5a9d15832206ec98cdae08888a6c8c2b6f3deab78058fa37621[ALL] 031e43d7ef44fa1ebf59da8fb618a397cb91cd59e5be151dd1e5bedb1ed505c2ca",
            "hex": "47304402200beb050d4ef81918bad2c02921839245268b6d190f3d841ef4c5d820c452d1d60220235abe59fda3c5a9d15832206ec98cdae08888a6c8c2b6f3deab78058fa376210121031e43d7ef44fa1ebf59da8fb618a397cb91cd59e5be151dd1e5bedb1ed505c2ca"
          },
          "sequence": 4294967294
        }, 
        {
          "txid": "4f427b06a6f74defb32323fdb214133f52fe004ea5f0f8d51662c8c61d7816cf",
          "vout": 1,
          "scriptSig": {
            "asm": "3045022100b954d0dfa164c20181263c4e0bd1b0a4b86b068f0abf9985f52f5aee018f501902205f99b053ac80671a77945f57dabdd849a96513d4f9bd6a1f4a02e91a4df81608[ALL] 035c014621b84cd390afbad1e93cea5a7ed37a125d2469f5e21cb4d7904ca9f880",
            "hex": "483045022100b954d0dfa164c20181263c4e0bd1b0a4b86b068f0abf9985f52f5aee018f501902205f99b053ac80671a77945f57dabdd849a96513d4f9bd6a1f4a02e91a4df816080121035c014621b84cd390afbad1e93cea5a7ed37a125d2469f5e21cb4d7904ca9f880"
          },
          "sequence": 4294967294
        }, 
        {
          "txid": "baa4f2766b1969937506e6726522e901433269038ed18be8eb23e1ca32e1b88d",
          "vout": 220,
          "scriptSig": {
            "asm": "3045022100ab300fa62d9b1ab2eabe5905d31c8659979666e2b4c0bbfaea9769a1aa8676b302207d66248d1f2288617e9fe5811b2397b32ee0406a05a611005481875363915cc1[ALL] 031e43d7ef44fa1ebf59da8fb618a397cb91cd59e5be151dd1e5bedb1ed505c2ca",
            "hex": "483045022100ab300fa62d9b1ab2eabe5905d31c8659979666e2b4c0bbfaea9769a1aa8676b302207d66248d1f2288617e9fe5811b2397b32ee0406a05a611005481875363915cc10121031e43d7ef44fa1ebf59da8fb618a397cb91cd59e5be151dd1e5bedb1ed505c2ca"
          },
          "sequence": 4294967294
        }, 
        {
          "txid": "935838ea236cb17cf239abd2e8cd31465d9a5e02175ae5c9996fcabbdcaa7b94",
          "vout": 215,
          "scriptSig": {
            "asm": "3045022100f7fe0c13f24393b50fc457fce740c6ab1e4ff8883d00e70b9365345aea46589e0220183b61593226f54f2e41432008dc4db47325c876e04710f9103089ad1cbe9ecc[ALL] 031e43d7ef44fa1ebf59da8fb618a397cb91cd59e5be151dd1e5bedb1ed505c2ca",
            "hex": "483045022100f7fe0c13f24393b50fc457fce740c6ab1e4ff8883d00e70b9365345aea46589e0220183b61593226f54f2e41432008dc4db47325c876e04710f9103089ad1cbe9ecc0121031e43d7ef44fa1ebf59da8fb618a397cb91cd59e5be151dd1e5bedb1ed505c2ca"
          },
          "sequence": 4294967294
        }, 
        {
          "txid": "d12db30834d8f6762f3af14352aa8c242b2731991d04b57c63f941daf049e5ed",
          "vout": 233,
          "scriptSig": {
            "asm": "3044022013baa84a3a9beaa50bc7f6dd53e6be8b5bd4c33c65473a589b5451d31007eba60220155ee96c2ef4218044a02421ce1057fe0d161e4c03533933d88e6580d91797ec[ALL] 031e43d7ef44fa1ebf59da8fb618a397cb91cd59e5be151dd1e5bedb1ed505c2ca",
            "hex": "473044022013baa84a3a9beaa50bc7f6dd53e6be8b5bd4c33c65473a589b5451d31007eba60220155ee96c2ef4218044a02421ce1057fe0d161e4c03533933d88e6580d91797ec0121031e43d7ef44fa1ebf59da8fb618a397cb91cd59e5be151dd1e5bedb1ed505c2ca"
          },
          "sequence": 4294967294
        }, 
        {
          "txid": "e4382979f88d1e14d1770998890a79da5ee557746265caabd7edf161471d3189",
          "vout": 229,
          "scriptSig": {
            "asm": "3045022100eee0b5402c858c8b6aaa37916fc348c625e8642ee9b08c31923d0268cb40ffe60220709e3e45c7dae13f5d8f855bf9a7bbfef773bc36bf96d72ea37a65d5122dacaf[ALL] 031e43d7ef44fa1ebf59da8fb618a397cb91cd59e5be151dd1e5bedb1ed505c2ca",
            "hex": "483045022100eee0b5402c858c8b6aaa37916fc348c625e8642ee9b08c31923d0268cb40ffe60220709e3e45c7dae13f5d8f855bf9a7bbfef773bc36bf96d72ea37a65d5122dacaf0121031e43d7ef44fa1ebf59da8fb618a397cb91cd59e5be151dd1e5bedb1ed505c2ca"
          },
          "sequence": 4294967294
        }, 
        {
          "txid": "432998a5e3e87169d682af2a7b0bb0b5c994357297809834f9151047f2cd6fbf",
          "vout": 219,
          "scriptSig": {
            "asm": "3045022100d8ab10216baa852dce33864424d96ee7bf1a435312fbd655dbd6749adee54b41022018b807e238d6b779513bc9a395e5ab75c0b4cb92c00e68e14681966beda86aba[ALL] 031e43d7ef44fa1ebf59da8fb618a397cb91cd59e5be151dd1e5bedb1ed505c2ca",
            "hex": "483045022100d8ab10216baa852dce33864424d96ee7bf1a435312fbd655dbd6749adee54b41022018b807e238d6b779513bc9a395e5ab75c0b4cb92c00e68e14681966beda86aba0121031e43d7ef44fa1ebf59da8fb618a397cb91cd59e5be151dd1e5bedb1ed505c2ca"
          },
          "sequence": 4294967294
        }, 
        {
          "txid": "8bc2b598d244cfeed55d4baea3683124bcfe5f15060ef64c7a97c24b242ce486",
          "vout": 241,
          "scriptSig": {
            "asm": "3044022069ae484228651959b12f76eabe55a3f37f922e441f8bc99f1042f5dab458f5c6022068af250181badf69d5d17dea8ceb6a04390ef434b521b081cc0400d6b4eba4ed[ALL] 031e43d7ef44fa1ebf59da8fb618a397cb91cd59e5be151dd1e5bedb1ed505c2ca",
            "hex": "473044022069ae484228651959b12f76eabe55a3f37f922e441f8bc99f1042f5dab458f5c6022068af250181badf69d5d17dea8ceb6a04390ef434b521b081cc0400d6b4eba4ed0121031e43d7ef44fa1ebf59da8fb618a397cb91cd59e5be151dd1e5bedb1ed505c2ca"
          },
          "sequence": 4294967294
        }, 
        {
          "txid": "4a6cb51412bd78e26c2465725807f0e3cabe1f2146530bf09daf5d82db9d5fd3",
          "vout": 219,
          "scriptSig": {
            "asm": "3045022100aa2fde47b1a40d8e8e2c33ff7a22a61e935685aedf453eff1fcc62b0ebc55065022016d63f1ac4af3f66189e7b7b9382510c1f3f9abb16d4212de707edfbc4494f36[ALL] 031e43d7ef44fa1ebf59da8fb618a397cb91cd59e5be151dd1e5bedb1ed505c2ca",
            "hex": "483045022100aa2fde47b1a40d8e8e2c33ff7a22a61e935685aedf453eff1fcc62b0ebc55065022016d63f1ac4af3f66189e7b7b9382510c1f3f9abb16d4212de707edfbc4494f360121031e43d7ef44fa1ebf59da8fb618a397cb91cd59e5be151dd1e5bedb1ed505c2ca"
          },
          "sequence": 4294967294
        }, 
        {
          "txid": "119bbcec203b494a4c005e3f1a6141027a8cc2929dd8caafec7cabe31f394f8f",
          "vout": 212,
          "scriptSig": {
            "asm": "304502210096df1e5f4f6fa8b8182a0b79a502c93dd5c13ad743fbe9b4d06664c08924c97802206cbeec6ed5e6d8230bea90cb465d66b1be2a87351bc498db1bba036e24c2e994[ALL] 031e43d7ef44fa1ebf59da8fb618a397cb91cd59e5be151dd1e5bedb1ed505c2ca",
            "hex": "48304502210096df1e5f4f6fa8b8182a0b79a502c93dd5c13ad743fbe9b4d06664c08924c97802206cbeec6ed5e6d8230bea90cb465d66b1be2a87351bc498db1bba036e24c2e9940121031e43d7ef44fa1ebf59da8fb618a397cb91cd59e5be151dd1e5bedb1ed505c2ca"
          },
          "sequence": 4294967294
        }, 
        {
          "txid": "4c19ab8ff95915c9e0647417e859d7baa4ff76d433fe46eeb7aae4858e73e613",
          "vout": 220,
          "scriptSig": {
            "asm": "304402202a5128007f03adcb45573d2f24a1ab4cae0b60f422b8c44a9bcea84004f57f8d02201fda5a3a1a4ac4317376a807c90a8d5ff707d746dd469f448a1d5d2bb7bcaccf[ALL] 031e43d7ef44fa1ebf59da8fb618a397cb91cd59e5be151dd1e5bedb1ed505c2ca",
            "hex": "47304402202a5128007f03adcb45573d2f24a1ab4cae0b60f422b8c44a9bcea84004f57f8d02201fda5a3a1a4ac4317376a807c90a8d5ff707d746dd469f448a1d5d2bb7bcaccf0121031e43d7ef44fa1ebf59da8fb618a397cb91cd59e5be151dd1e5bedb1ed505c2ca"
          },
          "sequence": 4294967294
        }, 
        {
          "txid": "177c5f4ab18e06411083537a81dd033386328495e1fc9af7e47b57cf227f8a8c",
          "vout": 222,
          "scriptSig": {
            "asm": "3045022100e525b5b9b8f363246e413f47aa351554ff38d00bdaa91dc7707d5cac1cad6b670220618a2ed62b1103d681fb2b3423d2af08cb23217348d366103901d6b8f9601df2[ALL] 031e43d7ef44fa1ebf59da8fb618a397cb91cd59e5be151dd1e5bedb1ed505c2ca",
            "hex": "483045022100e525b5b9b8f363246e413f47aa351554ff38d00bdaa91dc7707d5cac1cad6b670220618a2ed62b1103d681fb2b3423d2af08cb23217348d366103901d6b8f9601df20121031e43d7ef44fa1ebf59da8fb618a397cb91cd59e5be151dd1e5bedb1ed505c2ca"
          },
          "sequence": 4294967294
        }, 
        {
          "txid": "da7aa2bbc594232996e69e362fc2aeb958f56a62af5651df75b94bae04e5e0d4",
          "vout": 208,
          "scriptSig": {
            "asm": "30440220423dd732573321099551354481a6f1f08f8011f6d8583b8a076bb6c512dc6af902202ccdf2d5786010e0cc5ce39eb3d609a5cf89b4f1a53f564f7a367a24d4dea334[ALL] 031e43d7ef44fa1ebf59da8fb618a397cb91cd59e5be151dd1e5bedb1ed505c2ca",
            "hex": "4730440220423dd732573321099551354481a6f1f08f8011f6d8583b8a076bb6c512dc6af902202ccdf2d5786010e0cc5ce39eb3d609a5cf89b4f1a53f564f7a367a24d4dea3340121031e43d7ef44fa1ebf59da8fb618a397cb91cd59e5be151dd1e5bedb1ed505c2ca"
          },
          "sequence": 4294967294
        }
      ],
      "vout": [
        {
          "value": 0.00081787,
          "n": 0,
          "scriptPubKey": {
            "asm": "OP_DUP OP_HASH160 28f142cc3b3b6b87aa7f9b58a6f8991fd9da90ee OP_EQUALVERIFY OP_CHECKSIG",
            "hex": "76a91428f142cc3b3b6b87aa7f9b58a6f8991fd9da90ee88ac",
            "reqSigs": 1,
            "type": "pubkeyhash",
            "addresses": [
              "LNxSJzLjaKr1LnhhYwfVXpnTpeTQ3LUqoL"
            ]
          }
        }, 
        {
          "value": 1.21000000,
          "n": 1,
          "scriptPubKey": {
            "asm": "OP_DUP OP_HASH160 c72da942f88250754d936a26b470e8b5b150c268 OP_EQUALVERIFY OP_CHECKSIG",
            "hex": "76a914c72da942f88250754d936a26b470e8b5b150c26888ac",
            "reqSigs": 1,
            "type": "pubkeyhash",
            "addresses": [
              "LdP7RytAY4mVuATfNCoyocDu1UGpHYeNf6"
            ]
          }
        }
      ],
      "hex": "02000000104f5188eeb1916b8de41222186801e2a6fa8b5f63bf34d399bc1fede60ce50cfae10000006a47304402202703e2e33e7d098e0bc1cb99115f6f7bc4e69bfca9a50fa833c0cbcb6a0c2ecf02203e6cf1597a387eda00002259e5867d51c620cd434ca13bc01040d31a8bc460fc0121031e43d7ef44fa1ebf59da8fb618a397cb91cd59e5be151dd1e5bedb1ed505c2cafeffffff2214ab053a8e4632b2550e7a582f92db4cc754d34ffbe2818ae0d86e63b262c8df0000006a4730440220465721d04f8b450312ff566b2213d68d175b7ab699ca745dab1f06f7c11472670220619e6059bc42b84fb4809b22c833e8966152e213233f61612180b680724a101b0121031e43d7ef44fa1ebf59da8fb618a397cb91cd59e5be151dd1e5bedb1ed505c2cafeffffff1e3a859b4ab97dfa8cbeaa5e2000a9d514575cd3e4559d05760f7023c70cd7dbe40000006b483045022100ee8e7963f8849bbb4e3326017307bd45d01f6d0b0c49b1a1590f5c967eb87771022028108d1f9e127145af2024480dc4f57408c81205fca57b14b0e30939419679d50121031e43d7ef44fa1ebf59da8fb618a397cb91cd59e5be151dd1e5bedb1ed505c2cafeffffff187d2018c7e980a39ec8f5fd8077ad1f2290be8852f441d0003f7211501df972e00000006a47304402200beb050d4ef81918bad2c02921839245268b6d190f3d841ef4c5d820c452d1d60220235abe59fda3c5a9d15832206ec98cdae08888a6c8c2b6f3deab78058fa376210121031e43d7ef44fa1ebf59da8fb618a397cb91cd59e5be151dd1e5bedb1ed505c2cafeffffffcf16781dc6c86216d5f8f0a54e00fe523f1314b2fd2323b3ef4df7a6067b424f010000006b483045022100b954d0dfa164c20181263c4e0bd1b0a4b86b068f0abf9985f52f5aee018f501902205f99b053ac80671a77945f57dabdd849a96513d4f9bd6a1f4a02e91a4df816080121035c014621b84cd390afbad1e93cea5a7ed37a125d2469f5e21cb4d7904ca9f880feffffff8db8e132cae123ebe88bd18e0369324301e9226572e606759369196b76f2a4badc0000006b483045022100ab300fa62d9b1ab2eabe5905d31c8659979666e2b4c0bbfaea9769a1aa8676b302207d66248d1f2288617e9fe5811b2397b32ee0406a05a611005481875363915cc10121031e43d7ef44fa1ebf59da8fb618a397cb91cd59e5be151dd1e5bedb1ed505c2cafeffffff947baadcbbca6f99c9e55a17025e9a5d4631cde8d2ab39f27cb16c23ea385893d70000006b483045022100f7fe0c13f24393b50fc457fce740c6ab1e4ff8883d00e70b9365345aea46589e0220183b61593226f54f2e41432008dc4db47325c876e04710f9103089ad1cbe9ecc0121031e43d7ef44fa1ebf59da8fb618a397cb91cd59e5be151dd1e5bedb1ed505c2cafeffffffede549f0da41f9637cb5041d9931272b248caa5243f13a2f76f6d83408b32dd1e90000006a473044022013baa84a3a9beaa50bc7f6dd53e6be8b5bd4c33c65473a589b5451d31007eba60220155ee96c2ef4218044a02421ce1057fe0d161e4c03533933d88e6580d91797ec0121031e43d7ef44fa1ebf59da8fb618a397cb91cd59e5be151dd1e5bedb1ed505c2cafeffffff89311d4761f1edd7abca65627457e55eda790a89980977d1141e8df8792938e4e50000006b483045022100eee0b5402c858c8b6aaa37916fc348c625e8642ee9b08c31923d0268cb40ffe60220709e3e45c7dae13f5d8f855bf9a7bbfef773bc36bf96d72ea37a65d5122dacaf0121031e43d7ef44fa1ebf59da8fb618a397cb91cd59e5be151dd1e5bedb1ed505c2cafeffffffbf6fcdf2471015f934988097723594c9b5b00b7b2aaf82d66971e8e3a5982943db0000006b483045022100d8ab10216baa852dce33864424d96ee7bf1a435312fbd655dbd6749adee54b41022018b807e238d6b779513bc9a395e5ab75c0b4cb92c00e68e14681966beda86aba0121031e43d7ef44fa1ebf59da8fb618a397cb91cd59e5be151dd1e5bedb1ed505c2cafeffffff86e42c244bc2977a4cf60e06155ffebc243168a3ae4b5dd5eecf44d298b5c28bf10000006a473044022069ae484228651959b12f76eabe55a3f37f922e441f8bc99f1042f5dab458f5c6022068af250181badf69d5d17dea8ceb6a04390ef434b521b081cc0400d6b4eba4ed0121031e43d7ef44fa1ebf59da8fb618a397cb91cd59e5be151dd1e5bedb1ed505c2cafeffffffd35f9ddb825daf9df00b5346211fbecae3f007587265246ce278bd1214b56c4adb0000006b483045022100aa2fde47b1a40d8e8e2c33ff7a22a61e935685aedf453eff1fcc62b0ebc55065022016d63f1ac4af3f66189e7b7b9382510c1f3f9abb16d4212de707edfbc4494f360121031e43d7ef44fa1ebf59da8fb618a397cb91cd59e5be151dd1e5bedb1ed505c2cafeffffff8f4f391fe3ab7cecafcad89d92c28c7a0241611a3f5e004c4a493b20ecbc9b11d40000006b48304502210096df1e5f4f6fa8b8182a0b79a502c93dd5c13ad743fbe9b4d06664c08924c97802206cbeec6ed5e6d8230bea90cb465d66b1be2a87351bc498db1bba036e24c2e9940121031e43d7ef44fa1ebf59da8fb618a397cb91cd59e5be151dd1e5bedb1ed505c2cafeffffff13e6738e85e4aab7ee46fe33d476ffa4bad759e8177464e0c91559f98fab194cdc0000006a47304402202a5128007f03adcb45573d2f24a1ab4cae0b60f422b8c44a9bcea84004f57f8d02201fda5a3a1a4ac4317376a807c90a8d5ff707d746dd469f448a1d5d2bb7bcaccf0121031e43d7ef44fa1ebf59da8fb618a397cb91cd59e5be151dd1e5bedb1ed505c2cafeffffff8c8a7f22cf577be4f79afce1958432863303dd817a53831041068eb14a5f7c17de0000006b483045022100e525b5b9b8f363246e413f47aa351554ff38d00bdaa91dc7707d5cac1cad6b670220618a2ed62b1103d681fb2b3423d2af08cb23217348d366103901d6b8f9601df20121031e43d7ef44fa1ebf59da8fb618a397cb91cd59e5be151dd1e5bedb1ed505c2cafeffffffd4e0e504ae4bb975df5156af626af558b9aec22f369ee696292394c5bba27adad00000006a4730440220423dd732573321099551354481a6f1f08f8011f6d8583b8a076bb6c512dc6af902202ccdf2d5786010e0cc5ce39eb3d609a5cf89b4f1a53f564f7a367a24d4dea3340121031e43d7ef44fa1ebf59da8fb618a397cb91cd59e5be151dd1e5bedb1ed505c2cafeffffff027b3f0100000000001976a91428f142cc3b3b6b87aa7f9b58a6f8991fd9da90ee88ac40503607000000001976a914c72da942f88250754d936a26b470e8b5b150c26888acc6ba1400"
    }, 
    {
      "txid": "243a88345dfead872362b24d51ed75ba0f28070789a59e4a0f0f6abe5f019e66",
      "hash": "243a88345dfead872362b24d51ed75ba0f28070789a59e4a0f0f6abe5f019e66",
      "version": 2,
      "size": 226,
      "vsize": 226,
      "locktime": 1358564,
      "vin": [
        {
          "txid": "33ea70ec2d6f38c382d3e69bf0703ba59c4315560fe8846db3eec3ff8e052b0d",
          "vout": 1,
          "scriptSig": {
            "asm": "3045022100d78f537294ca795dad453aef767da62ecf9ea6c2c9228b187006d669692ea59402200f6131791b9d2d20dd4b8e5fc0ce9ffbf0820b6819e91fef92394804c74dc7e0[ALL] 03bc568cffa0e708f0753063a2242886491fead8885a478435998ca30b8874e8c0",
            "hex": "483045022100d78f537294ca795dad453aef767da62ecf9ea6c2c9228b187006d669692ea59402200f6131791b9d2d20dd4b8e5fc0ce9ffbf0820b6819e91fef92394804c74dc7e0012103bc568cffa0e708f0753063a2242886491fead8885a478435998ca30b8874e8c0"
          },
          "sequence": 4294967294
        }
      ],
      "vout": [
        {
          "value": 332.52937714,
          "n": 0,
          "scriptPubKey": {
            "asm": "OP_DUP OP_HASH160 f7a376d4262ed8be628069ec3ec9531cb26f2720 OP_EQUALVERIFY OP_CHECKSIG",
            "hex": "76a914f7a376d4262ed8be628069ec3ec9531cb26f272088ac",
            "reqSigs": 1,
            "type": "pubkeyhash",
            "addresses": [
              "LhoLzHVJzwp5c9hizE8Kwrw8zc8nX6Uf8q"
            ]
          }
        }, 
        {
          "value": 7.38113279,
          "n": 1,
          "scriptPubKey": {
            "asm": "OP_DUP OP_HASH160 f90e9b4cf1cabbb9524f838d4f521e7bd0bfd124 OP_EQUALVERIFY OP_CHECKSIG",
            "hex": "76a914f90e9b4cf1cabbb9524f838d4f521e7bd0bfd12488ac",
            "reqSigs": 1,
            "type": "pubkeyhash",
            "addresses": [
              "Lhvr1sBtmoDaCBPimJgqjx7Qgy3fGwpwBU"
            ]
          }
        }
      ],
      "hex": "02000000010d2b058effc3eeb36d84e80f5615439ca53b70f09be6d382c3386f2dec70ea33010000006b483045022100d78f537294ca795dad453aef767da62ecf9ea6c2c9228b187006d669692ea59402200f6131791b9d2d20dd4b8e5fc0ce9ffbf0820b6819e91fef92394804c74dc7e0012103bc568cffa0e708f0753063a2242886491fead8885a478435998ca30b8874e8c0feffffff02f28f07be070000001976a914f7a376d4262ed8be628069ec3ec9531cb26f272088acffb6fe2b000000001976a914f90e9b4cf1cabbb9524f838d4f521e7bd0bfd12488ace4ba1400"
    }, 
    {
      "txid": "b83c42de24e9fe860fa9ccc5e44a9182e55e19816d804df4a23e35f957ae54c5",
      "hash": "b83c42de24e9fe860fa9ccc5e44a9182e55e19816d804df4a23e35f957ae54c5",
      "version": 1,
      "size": 226,
      "vsize": 226,
      "locktime": 0,
      "vin": [
        {
          "txid": "e467949c10e757450bb74fa6537bd873185b7795053d1ff8695165de626fd539",
          "vout": 1,
          "scriptSig": {
            "asm": "3045022100deb1b6abbfc781ea0e2f745ac6942d554e34c4f0b8dc3d53751236f75a3c230302204ddc56c0165b703c6c12e2fc78fcaeadd74ae574cf2bdabd8b9cc6ea29979788[ALL] 03e4f4c43f3f0ace7c1bcee4d284dbd071f7b8027a7ef6eb8b1d5d0f4d4f21adc3",
            "hex": "483045022100deb1b6abbfc781ea0e2f745ac6942d554e34c4f0b8dc3d53751236f75a3c230302204ddc56c0165b703c6c12e2fc78fcaeadd74ae574cf2bdabd8b9cc6ea29979788012103e4f4c43f3f0ace7c1bcee4d284dbd071f7b8027a7ef6eb8b1d5d0f4d4f21adc3"
          },
          "sequence": 4294967295
        }
      ],
      "vout": [
        {
          "value": 2.99977400,
          "n": 0,
          "scriptPubKey": {
            "asm": "OP_DUP OP_HASH160 264fc3256fd2147b0194eb46795284e28d1d36ed OP_EQUALVERIFY OP_CHECKSIG",
            "hex": "76a914264fc3256fd2147b0194eb46795284e28d1d36ed88ac",
            "reqSigs": 1,
            "type": "pubkeyhash",
            "addresses": [
              "LNiXVV1CfYx9sYJwU7uTRuyhHWCyWjhwJy"
            ]
          }
        }, 
        {
          "value": 89.47314734,
          "n": 1,
          "scriptPubKey": {
            "asm": "OP_DUP OP_HASH160 662d29b02c23581bf726f77cdfc529fa86973df3 OP_EQUALVERIFY OP_CHECKSIG",
            "hex": "76a914662d29b02c23581bf726f77cdfc529fa86973df388ac",
            "reqSigs": 1,
            "type": "pubkeyhash",
            "addresses": [
              "LUYDHkQRb3SYcHZZ9M6Kk5tpgMRFLjLbYe"
            ]
          }
        }
      ],
      "hex": "010000000139d56f62de655169f81f3d0595775b1873d87b53a64fb70b4557e7109c9467e4010000006b483045022100deb1b6abbfc781ea0e2f745ac6942d554e34c4f0b8dc3d53751236f75a3c230302204ddc56c0165b703c6c12e2fc78fcaeadd74ae574cf2bdabd8b9cc6ea29979788012103e4f4c43f3f0ace7c1bcee4d284dbd071f7b8027a7ef6eb8b1d5d0f4d4f21adc3ffffffff02b84ae111000000001976a914264fc3256fd2147b0194eb46795284e28d1d36ed88ac2e304d15020000001976a914662d29b02c23581bf726f77cdfc529fa86973df388ac00000000"
    }
  ],
  "time": 1517158529,
  "mediantime": 1517158261,
  "nonce": 1156680089,
  "bits": "1a047f14",
  "difficulty": 3731199.183374282,
  "chainwork": "0000000000000000000000000000000000000000000000333463261cbf3f3276",
  "previousblockhash": "8c654d456cbddcc2d729f7e60c1f31c77e0d6b312d018918b947dc5bc8ddaaf8",
  "nextblockhash": "06e5bf24148bfbf9abd7a475d920d26a85e956954254ca5b809ca94c782075a4"
}
