{
  "hash": "6a7e69c60a324c359d10cc8b703df7ac6572175136062033a6fdf46d43ce0d82",
  "confirmations": 1389,
  "strippedsize": 975,
  "size": 1011,
  "weight": 3936,
  "height": 1359605,
  "version": 536870912,
  "versionHex": "20000000",
  "merkleroot": "3c6b4896d912af8bbc4853f579899317b670dafbfc27b5b61ee1d3133ad6aaf8",
  "tx": [
    {
      "txid": "ef9e0037fbcc3e3d248c1f3b81d2c373940e43b1114c543a7d763181dc8b32e9",
      "hash": "3dd422e143e1251510dbdacdfa48c9a74852912764448b0ccc551a066f99395d",
      "version": 1,
      "size": 253,
      "vsize": 226,
      "locktime": 0,
      "vin": [
        {
          "coinbase": "03f5be1441d69c1022b35ea441d69c102196962a2f4c54432e544f502ffabe6d6d23e93206795a5773973b62e2ea10bb7351ff80877dd31e63df0cbdde8ee4810701000000000000000106271a0f00000000000000",
          "sequence": 4294967295
        }
      ],
      "vout": [
        {
          "value": 25.00145200,
          "n": 0,
          "scriptPubKey": {
            "asm": "OP_DUP OP_HASH160 0c617fdb2ea42aed30a509595ee21ba3f6688db0 OP_EQUALVERIFY OP_CHECKSIG",
            "hex": "76a9140c617fdb2ea42aed30a509595ee21ba3f6688db088ac",
            "reqSigs": 1,
            "type": "pubkeyhash",
            "addresses": [
              "LLMRAtr3qBje2ySEa3CnZ55LA4TQMWnRY3"
            ]
          }
        }, 
        {
          "value": 0.00000000,
          "n": 1,
          "scriptPubKey": {
            "asm": "OP_RETURN aa21a9edc16af8f2f8f025162b041d02a3555e78f6062f593ea54fafeb08ffa36d933ca1",
            "hex": "6a24aa21a9edc16af8f2f8f025162b041d02a3555e78f6062f593ea54fafeb08ffa36d933ca1",
            "type": "nulldata"
          }
        }
      ],
      "hex": "010000000001010000000000000000000000000000000000000000000000000000000000000000ffffffff5503f5be1441d69c1022b35ea441d69c102196962a2f4c54432e544f502ffabe6d6d23e93206795a5773973b62e2ea10bb7351ff80877dd31e63df0cbdde8ee4810701000000000000000106271a0f00000000000000ffffffff0230300595000000001976a9140c617fdb2ea42aed30a509595ee21ba3f6688db088ac0000000000000000266a24aa21a9edc16af8f2f8f025162b041d02a3555e78f6062f593ea54fafeb08ffa36d933ca10120000000000000000000000000000000000000000000000000000000000000000000000000"
    }, 
    {
      "txid": "23c7a11b8d6cc31454bfefcc7c21c48c76e19045c9abd65e8212a72ac4aff28d",
      "hash": "23c7a11b8d6cc31454bfefcc7c21c48c76e19045c9abd65e8212a72ac4aff28d",
      "version": 1,
      "size": 225,
      "vsize": 225,
      "locktime": 0,
      "vin": [
        {
          "txid": "99aa2b3bf89b48e738732570671d5fce251e98a208ddd556140873379a3d8e1f",
          "vout": 0,
          "scriptSig": {
            "asm": "304402205a5baeec7bca85e36d4ce60028808be5fc9c1d57a69236e885f9cc76769303af02202da0036bf24c1f564d12f295b74404f394923dcc667c22088b020df28492f08b[ALL] 02c001f081e7bd86d6267db0179e32e0658713420babc10488b980f194eade4a15",
            "hex": "47304402205a5baeec7bca85e36d4ce60028808be5fc9c1d57a69236e885f9cc76769303af02202da0036bf24c1f564d12f295b74404f394923dcc667c22088b020df28492f08b012102c001f081e7bd86d6267db0179e32e0658713420babc10488b980f194eade4a15"
          },
          "sequence": 4294967295
        }
      ],
      "vout": [
        {
          "value": 30.00000000,
          "n": 0,
          "scriptPubKey": {
            "asm": "OP_DUP OP_HASH160 408c42d64240cf55606bf7cf96f54147f36c9168 OP_EQUALVERIFY OP_CHECKSIG",
            "hex": "76a914408c42d64240cf55606bf7cf96f54147f36c916888ac",
            "reqSigs": 1,
            "type": "pubkeyhash",
            "addresses": [
              "LR7FY11Y48nNoB9KqXYJ82ZSL132wSPNTR"
            ]
          }
        }, 
        {
          "value": 275.54226680,
          "n": 1,
          "scriptPubKey": {
            "asm": "OP_DUP OP_HASH160 1f2bc779b34215a1d86f02a36458d18735b6792c OP_EQUALVERIFY OP_CHECKSIG",
            "hex": "76a9141f2bc779b34215a1d86f02a36458d18735b6792c88ac",
            "reqSigs": 1,
            "type": "pubkeyhash",
            "addresses": [
              "LN4mezVBD98prKEDjyV2o2Rj7rDtGpBVu5"
            ]
          }
        }
      ],
      "hex": "01000000011f8e3d9a3773081456d5dd08a2981e25ce5f1d6770257338e7489bf83b2baa99000000006a47304402205a5baeec7bca85e36d4ce60028808be5fc9c1d57a69236e885f9cc76769303af02202da0036bf24c1f564d12f295b74404f394923dcc667c22088b020df28492f08b012102c001f081e7bd86d6267db0179e32e0658713420babc10488b980f194eade4a15ffffffff02005ed0b2000000001976a914408c42d64240cf55606bf7cf96f54147f36c916888acf8215c6a060000001976a9141f2bc779b34215a1d86f02a36458d18735b6792c88ac00000000"
    }, 
    {
      "txid": "88d3250485f6bbea12f78871e27279309b14fa5752e414ac57be70f4b807af73",
      "hash": "88d3250485f6bbea12f78871e27279309b14fa5752e414ac57be70f4b807af73",
      "version": 1,
      "size": 226,
      "vsize": 226,
      "locktime": 0,
      "vin": [
        {
          "txid": "63a1ef1247fa2bd21207bb18b69abbef1a0e3c2da13448561af8ee8123cabc1a",
          "vout": 73,
          "scriptSig": {
            "asm": "3045022100b7e6760ebe1df90afd461966f3f047e2eaddd20015fc850549dfee404ea87d99022014d064be45b39d68b654e6cb2882e288bedaaa284181ace21feb9a856ca0a124[ALL] 034f6c36049173d0a29706c8b95cc16639e19ce2efc72dbca002e0b35ccc346652",
            "hex": "483045022100b7e6760ebe1df90afd461966f3f047e2eaddd20015fc850549dfee404ea87d99022014d064be45b39d68b654e6cb2882e288bedaaa284181ace21feb9a856ca0a1240121034f6c36049173d0a29706c8b95cc16639e19ce2efc72dbca002e0b35ccc346652"
          },
          "sequence": 4294967295
        }
      ],
      "vout": [
        {
          "value": 0.05000000,
          "n": 0,
          "scriptPubKey": {
            "asm": "OP_DUP OP_HASH160 07ba16fb52765e5db8b612801e00505043f9de4d OP_EQUALVERIFY OP_CHECKSIG",
            "hex": "76a91407ba16fb52765e5db8b612801e00505043f9de4d88ac",
            "reqSigs": 1,
            "type": "pubkeyhash",
            "addresses": [
              "LKvovJM4eAmTZNURoxaVP7bAhQYadHtYJq"
            ]
          }
        }, 
        {
          "value": 0.00074089,
          "n": 1,
          "scriptPubKey": {
            "asm": "OP_DUP OP_HASH160 48ce187f787ac3e0b2a74d45268e5d16972d712c OP_EQUALVERIFY OP_CHECKSIG",
            "hex": "76a91448ce187f787ac3e0b2a74d45268e5d16972d712c88ac",
            "reqSigs": 1,
            "type": "pubkeyhash",
            "addresses": [
              "LRruoodPfy8c6KqgHH4L7Dbg89VTUd4tSi"
            ]
          }
        }
      ],
      "hex": "01000000011abcca2381eef81a564834a12d3c0e1aefbb9ab618bb0712d22bfa4712efa163490000006b483045022100b7e6760ebe1df90afd461966f3f047e2eaddd20015fc850549dfee404ea87d99022014d064be45b39d68b654e6cb2882e288bedaaa284181ace21feb9a856ca0a1240121034f6c36049173d0a29706c8b95cc16639e19ce2efc72dbca002e0b35ccc346652ffffffff02404b4c00000000001976a91407ba16fb52765e5db8b612801e00505043f9de4d88ac69210100000000001976a91448ce187f787ac3e0b2a74d45268e5d16972d712c88ac00000000"
    }, 
    {
      "txid": "e7aa9adb46fcff3af02b8e9d7b0b717e39265fd4b1c83692076ca541d3d579e8",
      "hash": "e7aa9adb46fcff3af02b8e9d7b0b717e39265fd4b1c83692076ca541d3d579e8",
      "version": 1,
      "size": 226,
      "vsize": 226,
      "locktime": 0,
      "vin": [
        {
          "txid": "b236d7370d8b344b5c744aa359726ce74488d6d691e18aa1e5af07e276e6d94c",
          "vout": 401,
          "scriptSig": {
            "asm": "3045022100bc01502aabb1fd6612ed973199027b8160a585f11c9a9f2e7a07c09b3999f1cf02200143b8ebc9c4dd2296f599c9c064f5aff432fedceba73ad8312dbf1a4fa119cf[ALL] 035a2e6550aac72ab1bb2b624daab036b7657c69f7a6d0c5286410c67f7766e35f",
            "hex": "483045022100bc01502aabb1fd6612ed973199027b8160a585f11c9a9f2e7a07c09b3999f1cf02200143b8ebc9c4dd2296f599c9c064f5aff432fedceba73ad8312dbf1a4fa119cf0121035a2e6550aac72ab1bb2b624daab036b7657c69f7a6d0c5286410c67f7766e35f"
          },
          "sequence": 4294967295
        }
      ],
      "vout": [
        {
          "value": 0.04798492,
          "n": 0,
          "scriptPubKey": {
            "asm": "OP_DUP OP_HASH160 db384ac5bd28a4c266026eee124af4062d126fde OP_EQUALVERIFY OP_CHECKSIG",
            "hex": "76a914db384ac5bd28a4c266026eee124af4062d126fde88ac",
            "reqSigs": 1,
            "type": "pubkeyhash",
            "addresses": [
              "LfD5gTzNBQuP5GZzK5bDoDbQgaciakLMMx"
            ]
          }
        }, 
        {
          "value": 0.00054934,
          "n": 1,
          "scriptPubKey": {
            "asm": "OP_DUP OP_HASH160 5901b57a96fbe16780bd27639e2ff1c9f2a919e5 OP_EQUALVERIFY OP_CHECKSIG",
            "hex": "76a9145901b57a96fbe16780bd27639e2ff1c9f2a919e588ac",
            "reqSigs": 1,
            "type": "pubkeyhash",
            "addresses": [
              "LTLaT2Fwomjyt2oiBBLWs4c2b2sSstuajk"
            ]
          }
        }
      ],
      "hex": "01000000014cd9e676e207afe5a18ae191d6d68844e76c7259a34a745c4b348b0d37d736b2910100006b483045022100bc01502aabb1fd6612ed973199027b8160a585f11c9a9f2e7a07c09b3999f1cf02200143b8ebc9c4dd2296f599c9c064f5aff432fedceba73ad8312dbf1a4fa119cf0121035a2e6550aac72ab1bb2b624daab036b7657c69f7a6d0c5286410c67f7766e35fffffffff021c384900000000001976a914db384ac5bd28a4c266026eee124af4062d126fde88ac96d60000000000001976a9145901b57a96fbe16780bd27639e2ff1c9f2a919e588ac00000000"
    }
  ],
  "time": 1517305990,
  "mediantime": 1517305334,
  "nonce": 2657863620,
  "bits": "1a042eae",
  "difficulty": 4011378.762614286,
  "chainwork": "00000000000000000000000000000000000000000000003429304fb7921bebec",
  "previousblockhash": "40a537c9e57d6126b734325e4ab352523ff3018ada8fd63b3ecb34466a9aeb84",
  "nextblockhash": "9c59d0636b32da85561b1412e0aae36b5e3e091de934b5608501047131115a5b"
}
