{
  "hash": "6a85c2c03d1a589d88525a8d1c27e8eccd334c84553171642b50b84bb38b7bd9",
  "confirmations": 1467,
  "strippedsize": 253,
  "size": 253,
  "weight": 1012,
  "height": 1359527,
  "version": 536870912,
  "versionHex": "20000000",
  "merkleroot": "84169fb7dac84199ff6991f8fee0c3c74a147617bacd52509dfaed538ce0a49c",
  "tx": [
    {
      "txid": "84169fb7dac84199ff6991f8fee0c3c74a147617bacd52509dfaed538ce0a49c",
      "hash": "84169fb7dac84199ff6991f8fee0c3c74a147617bacd52509dfaed538ce0a49c",
      "version": 1,
      "size": 172,
      "vsize": 172,
      "locktime": 0,
      "vin": [
        {
          "coinbase": "03a7be141a4d696e656420627920416e74506f6f6c20626a331f205a7016a2fabe6d6d608983a4671ec8f25689894f91aafed74a618ae2ad85d746041dd24a3aea4d430400000000000000443b00000000000026000000",
          "sequence": 4294967295
        }
      ],
      "vout": [
        {
          "value": 25.00000000,
          "n": 0,
          "scriptPubKey": {
            "asm": "OP_DUP OP_HASH160 0ff3ccc5e8be88afe24b5d634e5852d474dbdff1 OP_EQUALVERIFY OP_CHECKSIG",
            "hex": "76a9140ff3ccc5e8be88afe24b5d634e5852d474dbdff188ac",
            "reqSigs": 1,
            "type": "pubkeyhash",
            "addresses": [
              "LLgJTbzZMsRTCUF1NtvvL9SR1a4pVieW89"
            ]
          }
        }
      ],
      "hex": "01000000010000000000000000000000000000000000000000000000000000000000000000ffffffff5703a7be141a4d696e656420627920416e74506f6f6c20626a331f205a7016a2fabe6d6d608983a4671ec8f25689894f91aafed74a618ae2ad85d746041dd24a3aea4d430400000000000000443b00000000000026000000ffffffff0100f90295000000001976a9140ff3ccc5e8be88afe24b5d634e5852d474dbdff188ac00000000"
    }
  ],
  "time": 1517295266,
  "mediantime": 1517294546,
  "nonce": 2221299672,
  "bits": "1a042eae",
  "difficulty": 4011378.762614286,
  "chainwork": "0000000000000000000000000000000000000000000000341689f419ba9c4650",
  "previousblockhash": "a6f011bce09f62860920c4721a16bfcdebff38aebbeefaf2b9d436add9820cbe",
  "nextblockhash": "58fed4435a41d4acc86f4da6f5f3014d527d0195572971b22450f9a23b03b3cc"
}
