{
  "hash": "6b2aa45ba5f5e9b57f6bc9e48ec12ada9af93e1bf38ce5ab6e67cddba49c5014",
  "confirmations": 3268,
  "strippedsize": 234,
  "size": 234,
  "weight": 936,
  "height": 1357727,
  "version": 536870912,
  "versionHex": "20000000",
  "merkleroot": "9c9e2ea50f8f8a0b9ea5efdddb01a3af1f51aeedc6725c62207d67b6abb8ba70",
  "tx": [
    {
      "txid": "9c9e2ea50f8f8a0b9ea5efdddb01a3af1f51aeedc6725c62207d67b6abb8ba70",
      "hash": "9c9e2ea50f8f8a0b9ea5efdddb01a3af1f51aeedc6725c62207d67b6abb8ba70",
      "version": 1,
      "size": 153,
      "vsize": 153,
      "locktime": 0,
      "vin": [
        {
          "coinbase": "039fb714045a6c33fc2cfabe6d6d03a989f4fc6c0ffb3abd24986433d4904e07ca450d0a20a23d1a30b15926ce584000000000000000042f4c502f085c00598f03000000",
          "sequence": 4294967295
        }
      ],
      "vout": [
        {
          "value": 25.00000000,
          "n": 0,
          "scriptPubKey": {
            "asm": "OP_DUP OP_HASH160 57757ed2ecf2052ff3126c397aca7defb9ca2cec OP_EQUALVERIFY OP_CHECKSIG",
            "hex": "76a91457757ed2ecf2052ff3126c397aca7defb9ca2cec88ac",
            "reqSigs": 1,
            "type": "pubkeyhash",
            "addresses": [
              "LTCPodGk5FwcJaRzH9yKnwicxzFUbxp6tN"
            ]
          }
        }
      ],
      "hex": "01000000010000000000000000000000000000000000000000000000000000000000000000ffffffff44039fb714045a6c33fc2cfabe6d6d03a989f4fc6c0ffb3abd24986433d4904e07ca450d0a20a23d1a30b15926ce584000000000000000042f4c502f085c00598f03000000ffffffff0100f90295000000001976a91457757ed2ecf2052ff3126c397aca7defb9ca2cec88ac00000000"
    }
  ],
  "time": 1517040636,
  "mediantime": 1517039610,
  "nonce": 932438935,
  "bits": "1a047f14",
  "difficulty": 3731199.183374282,
  "chainwork": "00000000000000000000000000000000000000000000003279cb2531e477b940",
  "previousblockhash": "5737fa2cc8156d6946342b6cecda3864d418fa60d71eef4a7e428eb54767ad6a",
  "nextblockhash": "ee20130dea5ea9720285642cb9f861814f9e0d69bf469ad5c7acd8989cead4f8"
}
