{
  "hash": "6c216d9bb5f49572da8c0d05efd32c9ce765fb91835067c1f796fd28dcd2e017",
  "confirmations": 2240,
  "strippedsize": 4762,
  "size": 4798,
  "weight": 19084,
  "height": 1358754,
  "version": 536870912,
  "versionHex": "20000000",
  "merkleroot": "c76e2fa801f13de90790081975f4336c2ce4f099585169d1029e1e79cd5508b2",
  "tx": [
    {
      "txid": "9dd6112f9298c446cdf3ffde4929f4c95bc68623ec52c65132927e32e7c82253",
      "hash": "5965b038d45ded9f9682312a96192c65dd37098e5ae3a6edcbc790823e994e43",
      "version": 1,
      "size": 259,
      "vsize": 232,
      "locktime": 0,
      "vin": [
        {
          "coinbase": "03a2bb14182f5669614254432f4d696e6564206279207332636967312f2cfabe6d6dfd03dfff515f282a4779e719d147b75cb4eec1ff898432dd52f57cbbfa738c53010000000000000010366ed000d7bb4e84e754430e3e010000",
          "sequence": 4294967295
        }
      ],
      "vout": [
        {
          "value": 25.00587426,
          "n": 0,
          "scriptPubKey": {
            "asm": "OP_DUP OP_HASH160 e16c28146ed4869c190b3f0bdc18d80d45f92134 OP_EQUALVERIFY OP_CHECKSIG",
            "hex": "76a914e16c28146ed4869c190b3f0bdc18d80d45f9213488ac",
            "reqSigs": 1,
            "type": "pubkeyhash",
            "addresses": [
              "LfmssDyX6iZvbVqHv6t9P6JWXia2JG7mdb"
            ]
          }
        }, 
        {
          "value": 0.00000000,
          "n": 1,
          "scriptPubKey": {
            "asm": "OP_RETURN aa21a9edcc0a3e747e19c267d766c7ff8f5aa843625e9640ea00e82b18048126df735c33",
            "hex": "6a24aa21a9edcc0a3e747e19c267d766c7ff8f5aa843625e9640ea00e82b18048126df735c33",
            "type": "nulldata"
          }
        }
      ],
      "hex": "010000000001010000000000000000000000000000000000000000000000000000000000000000ffffffff5b03a2bb14182f5669614254432f4d696e6564206279207332636967312f2cfabe6d6dfd03dfff515f282a4779e719d147b75cb4eec1ff898432dd52f57cbbfa738c53010000000000000010366ed000d7bb4e84e754430e3e010000ffffffff02a2ef0b95000000001976a914e16c28146ed4869c190b3f0bdc18d80d45f9213488ac0000000000000000266a24aa21a9edcc0a3e747e19c267d766c7ff8f5aa843625e9640ea00e82b18048126df735c330120000000000000000000000000000000000000000000000000000000000000000000000000"
    }, 
    {
      "txid": "753d5808d1b0b847866bcec7c9d921f8979086a1f321d4653928c2915e419930",
      "hash": "753d5808d1b0b847866bcec7c9d921f8979086a1f321d4653928c2915e419930",
      "version": 1,
      "size": 335,
      "vsize": 335,
      "locktime": 0,
      "vin": [
        {
          "txid": "6ae0449d22352b95d3084bf36d392dff2cc6a936486adbd84a0ad154cd541d40",
          "vout": 1,
          "scriptSig": {
            "asm": "0 3045022100ca9b853c0f1676537a2fde2d2f5e06453766e043c8b6b8f179a133b2b5345d4102206697a6c3b577a12f055a33e7a081e0572d057351a3eaba003f9603c8c3491d00[ALL] 304402201be1de170f8182fed04dddbd681a6a58e14c476de577a64b1a25ded6bc6a18d702203416bcab30fb75509adfc48540ddc35ce7156a28ea71afc37d486e113729a50e[ALL] 522102f77ec37a042ba4e5e6aef7760398bf59b87ac4c5dee30a2fb8798e9630d4916e210276b93401dc495b28592f66411a7c9093b468f8678db51144fc6a36f550d94aa952ae",
            "hex": "00483045022100ca9b853c0f1676537a2fde2d2f5e06453766e043c8b6b8f179a133b2b5345d4102206697a6c3b577a12f055a33e7a081e0572d057351a3eaba003f9603c8c3491d000147304402201be1de170f8182fed04dddbd681a6a58e14c476de577a64b1a25ded6bc6a18d702203416bcab30fb75509adfc48540ddc35ce7156a28ea71afc37d486e113729a50e0147522102f77ec37a042ba4e5e6aef7760398bf59b87ac4c5dee30a2fb8798e9630d4916e210276b93401dc495b28592f66411a7c9093b468f8678db51144fc6a36f550d94aa952ae"
          },
          "sequence": 4294967295
        }
      ],
      "vout": [
        {
          "value": 0.05856400,
          "n": 0,
          "scriptPubKey": {
            "asm": "OP_DUP OP_HASH160 0c28ad7fcfcb4f8e6f848c4e7b117d2ae482d00f OP_EQUALVERIFY OP_CHECKSIG",
            "hex": "76a9140c28ad7fcfcb4f8e6f848c4e7b117d2ae482d00f88ac",
            "reqSigs": 1,
            "type": "pubkeyhash",
            "addresses": [
              "LLLF6rSo4dDQkEYS77aeLN3sdDW9xkuwgd"
            ]
          }
        }, 
        {
          "value": 18.47611000,
          "n": 1,
          "scriptPubKey": {
            "asm": "OP_HASH160 75b77316f8d91ff71fb2819115d1b6b9e80ccee9 OP_EQUAL",
            "hex": "a91475b77316f8d91ff71fb2819115d1b6b9e80ccee987",
            "reqSigs": 1,
            "type": "scripthash",
            "addresses": [
              "MJdb4B3BMDrfpB1FpKsPYQ1tDHdkNa1oLB"
            ]
          }
        }
      ],
      "hex": "0100000001401d54cd54d10a4ad8db6a4836a9c62cff2d396df34b08d3952b35229d44e06a01000000da00483045022100ca9b853c0f1676537a2fde2d2f5e06453766e043c8b6b8f179a133b2b5345d4102206697a6c3b577a12f055a33e7a081e0572d057351a3eaba003f9603c8c3491d000147304402201be1de170f8182fed04dddbd681a6a58e14c476de577a64b1a25ded6bc6a18d702203416bcab30fb75509adfc48540ddc35ce7156a28ea71afc37d486e113729a50e0147522102f77ec37a042ba4e5e6aef7760398bf59b87ac4c5dee30a2fb8798e9630d4916e210276b93401dc495b28592f66411a7c9093b468f8678db51144fc6a36f550d94aa952aeffffffff02905c5900000000001976a9140c28ad7fcfcb4f8e6f848c4e7b117d2ae482d00f88ac784e206e0000000017a91475b77316f8d91ff71fb2819115d1b6b9e80ccee98700000000"
    }, 
    {
      "txid": "219394246342f868f947931bcc34195d102949f611887e32869149ecab8e1549",
      "hash": "219394246342f868f947931bcc34195d102949f611887e32869149ecab8e1549",
      "version": 1,
      "size": 223,
      "vsize": 223,
      "locktime": 0,
      "vin": [
        {
          "txid": "fab385cd1822af019ff5aaa49d60786689b856330ee69d5af5da3d50a61d1c51",
          "vout": 1,
          "scriptSig": {
            "asm": "3044022061c198aa70233918f90bacf02d747630008d35747d2997e937b153a11d9ef3bf022024ab37e5e317f38c7f66360f6fd0286b6e42dc6e05f2dc0154edff797627f8ce[ALL] 03b2456e7b5b1cafce92a6a1c064ddeeaa5fe375e46ac451fde7de09f9987a42d7",
            "hex": "473044022061c198aa70233918f90bacf02d747630008d35747d2997e937b153a11d9ef3bf022024ab37e5e317f38c7f66360f6fd0286b6e42dc6e05f2dc0154edff797627f8ce012103b2456e7b5b1cafce92a6a1c064ddeeaa5fe375e46ac451fde7de09f9987a42d7"
          },
          "sequence": 4294967295
        }
      ],
      "vout": [
        {
          "value": 73.91644369,
          "n": 0,
          "scriptPubKey": {
            "asm": "OP_DUP OP_HASH160 0f85d58f25b8a85694a65c96b80c9717c7e7098a OP_EQUALVERIFY OP_CHECKSIG",
            "hex": "76a9140f85d58f25b8a85694a65c96b80c9717c7e7098a88ac",
            "reqSigs": 1,
            "type": "pubkeyhash",
            "addresses": [
              "LLe2j48YnExsHQ1QGJYJwjs7vZqJopfnNn"
            ]
          }
        }, 
        {
          "value": 2.64124000,
          "n": 1,
          "scriptPubKey": {
            "asm": "OP_HASH160 44c06f07d7d9b686f2b49c3932c00d70754a9cc5 OP_EQUAL",
            "hex": "a91444c06f07d7d9b686f2b49c3932c00d70754a9cc587",
            "reqSigs": 1,
            "type": "scripthash",
            "addresses": [
              "MEAgi19v2huTPZS9tJJ7JMUizKBCn6MRFB"
            ]
          }
        }
      ],
      "hex": "0100000001511c1da6503ddaf55a9de60e3356b8896678609da4aaf59f01af2218cd85b3fa010000006a473044022061c198aa70233918f90bacf02d747630008d35747d2997e937b153a11d9ef3bf022024ab37e5e317f38c7f66360f6fd0286b6e42dc6e05f2dc0154edff797627f8ce012103b2456e7b5b1cafce92a6a1c064ddeeaa5fe375e46ac451fde7de09f9987a42d7ffffffff02d18a93b8010000001976a9140f85d58f25b8a85694a65c96b80c9717c7e7098a88ac6036be0f0000000017a91444c06f07d7d9b686f2b49c3932c00d70754a9cc58700000000"
    }, 
    {
      "txid": "cd73a59f59adc8a20a915f3a5d6541f25a2ee04cf942e6e27e84947afd9bbf17",
      "hash": "cd73a59f59adc8a20a915f3a5d6541f25a2ee04cf942e6e27e84947afd9bbf17",
      "version": 1,
      "size": 225,
      "vsize": 225,
      "locktime": 0,
      "vin": [
        {
          "txid": "bb161a72be77fc266b6d2fb458a214fda4285196b87ee8229348c81c22de90c0",
          "vout": 1,
          "scriptSig": {
            "asm": "304402206324d2c9e9f48ecfe22f4fb58a51941d96a228c019cfcb5be27d52bca5c5a4880220722ab337560fc9e8d63a07ab2daba0f286393c089a2e1cf53462e5bfaffc1f70[ALL] 023959614354402c41bc7884ce4574e84efb207e777d364ea688684844ca1db4d7",
            "hex": "47304402206324d2c9e9f48ecfe22f4fb58a51941d96a228c019cfcb5be27d52bca5c5a4880220722ab337560fc9e8d63a07ab2daba0f286393c089a2e1cf53462e5bfaffc1f700121023959614354402c41bc7884ce4574e84efb207e777d364ea688684844ca1db4d7"
          },
          "sequence": 4294967295
        }
      ],
      "vout": [
        {
          "value": 0.29582673,
          "n": 0,
          "scriptPubKey": {
            "asm": "OP_DUP OP_HASH160 9c2e18492f00c97c155c8b91c59d809b1e8e4e3c OP_EQUALVERIFY OP_CHECKSIG",
            "hex": "76a9149c2e18492f00c97c155c8b91c59d809b1e8e4e3c88ac",
            "reqSigs": 1,
            "type": "pubkeyhash",
            "addresses": [
              "LZTktsBdF8XFhUC88nsthzNzDs8AHrSvKe"
            ]
          }
        }, 
        {
          "value": 0.06694727,
          "n": 1,
          "scriptPubKey": {
            "asm": "OP_DUP OP_HASH160 cd688642f27ddc68da9ee844c2817fe303e543c1 OP_EQUALVERIFY OP_CHECKSIG",
            "hex": "76a914cd688642f27ddc68da9ee844c2817fe303e543c188ac",
            "reqSigs": 1,
            "type": "pubkeyhash",
            "addresses": [
              "Ldx412QJ6knXgC6gXXXNcZrgoi3Y8QoboH"
            ]
          }
        }
      ],
      "hex": "0100000001c090de221cc8489322e87eb8965128a4fd14a258b42f6d6b26fc77be721a16bb010000006a47304402206324d2c9e9f48ecfe22f4fb58a51941d96a228c019cfcb5be27d52bca5c5a4880220722ab337560fc9e8d63a07ab2daba0f286393c089a2e1cf53462e5bfaffc1f700121023959614354402c41bc7884ce4574e84efb207e777d364ea688684844ca1db4d7ffffffff025165c301000000001976a9149c2e18492f00c97c155c8b91c59d809b1e8e4e3c88ac47276600000000001976a914cd688642f27ddc68da9ee844c2817fe303e543c188ac00000000"
    }, 
    {
      "txid": "888e56b2c72a52ad4cbcf4367ef5bc9f3eb54cd3568d09889dcec4520b75e54a",
      "hash": "888e56b2c72a52ad4cbcf4367ef5bc9f3eb54cd3568d09889dcec4520b75e54a",
      "version": 1,
      "size": 225,
      "vsize": 225,
      "locktime": 0,
      "vin": [
        {
          "txid": "b039f382fb93bf62375e65f9772997b6f8a315623ad2658bc6d1df550cd43ece",
          "vout": 0,
          "scriptSig": {
            "asm": "304402203e50d66c2043148c3223645d6ccd46de2f8a24284d536ebc7c55a9b83ccddb9e02207a4f044ea90023c3acf860a4cc8a6476992aa4201d31b8a6d1f0dcfa78a52d93[ALL] 02eb1eec86a77da22f204b1a1a09e550bf19674cdcaaffd737466f357480c45081",
            "hex": "47304402203e50d66c2043148c3223645d6ccd46de2f8a24284d536ebc7c55a9b83ccddb9e02207a4f044ea90023c3acf860a4cc8a6476992aa4201d31b8a6d1f0dcfa78a52d93012102eb1eec86a77da22f204b1a1a09e550bf19674cdcaaffd737466f357480c45081"
          },
          "sequence": 4294967295
        }
      ],
      "vout": [
        {
          "value": 7.85124458,
          "n": 0,
          "scriptPubKey": {
            "asm": "OP_DUP OP_HASH160 b1f52fec6d1d98af54ef70ba9ce657b9bc4b4715 OP_EQUALVERIFY OP_CHECKSIG",
            "hex": "76a914b1f52fec6d1d98af54ef70ba9ce657b9bc4b471588ac",
            "reqSigs": 1,
            "type": "pubkeyhash",
            "addresses": [
              "LbSub59pn8V29tajFCgHVdPSWry2yAHeMU"
            ]
          }
        }, 
        {
          "value": 66.73957455,
          "n": 1,
          "scriptPubKey": {
            "asm": "OP_DUP OP_HASH160 9ab64859bf76ee19fa951817274b160d6ca76e60 OP_EQUALVERIFY OP_CHECKSIG",
            "hex": "76a9149ab64859bf76ee19fa951817274b160d6ca76e6088ac",
            "reqSigs": 1,
            "type": "pubkeyhash",
            "addresses": [
              "LZKzgyQYborzSvnMkxa97Kahd8fYUrYgn8"
            ]
          }
        }
      ],
      "hex": "0100000001ce3ed40c55dfd1c68b65d23a6215a3f8b6972977f9655e3762bf93fb82f339b0000000006a47304402203e50d66c2043148c3223645d6ccd46de2f8a24284d536ebc7c55a9b83ccddb9e02207a4f044ea90023c3acf860a4cc8a6476992aa4201d31b8a6d1f0dcfa78a52d93012102eb1eec86a77da22f204b1a1a09e550bf19674cdcaaffd737466f357480c45081ffffffff026a0ccc2e000000001976a914b1f52fec6d1d98af54ef70ba9ce657b9bc4b471588ac4f82cc8d010000001976a9149ab64859bf76ee19fa951817274b160d6ca76e6088ac00000000"
    }, 
    {
      "txid": "5df768472611163b37f89bbb59a95d0f7b4418fa90de3ee7756193fe35a9e163",
      "hash": "5df768472611163b37f89bbb59a95d0f7b4418fa90de3ee7756193fe35a9e163",
      "version": 1,
      "size": 225,
      "vsize": 225,
      "locktime": 0,
      "vin": [
        {
          "txid": "f73222f095c7a014aabf7ef63c7c0bd2d66d3d312ce8c696fe3459142f86c80d",
          "vout": 1,
          "scriptSig": {
            "asm": "30440220637ec3a003969a04319fff86d2ce0c30efa8fec9257e5c86ea14f5709a03e6200220247c710a3ed26deda09c168cef1a60cfbdd52b507eaa01e48225a7e34560f276[ALL] 02028ec5a38fb75ff1d85224c9024aea9363a409db24c5277cd558c0fc967371ab",
            "hex": "4730440220637ec3a003969a04319fff86d2ce0c30efa8fec9257e5c86ea14f5709a03e6200220247c710a3ed26deda09c168cef1a60cfbdd52b507eaa01e48225a7e34560f276012102028ec5a38fb75ff1d85224c9024aea9363a409db24c5277cd558c0fc967371ab"
          },
          "sequence": 4294967295
        }
      ],
      "vout": [
        {
          "value": 0.08219539,
          "n": 0,
          "scriptPubKey": {
            "asm": "OP_DUP OP_HASH160 39090459b39e012dca253bfbed0c66d1801a6d68 OP_EQUALVERIFY OP_CHECKSIG",
            "hex": "76a91439090459b39e012dca253bfbed0c66d1801a6d6888ac",
            "reqSigs": 1,
            "type": "pubkeyhash",
            "addresses": [
              "LQRXafBKJ2LVUyD2Lxzf6omxk4NYZUc9ie"
            ]
          }
        }, 
        {
          "value": 0.00060825,
          "n": 1,
          "scriptPubKey": {
            "asm": "OP_DUP OP_HASH160 c13fe8f4985c1daa683044f97cecede7f1f5fdd1 OP_EQUALVERIFY OP_CHECKSIG",
            "hex": "76a914c13fe8f4985c1daa683044f97cecede7f1f5fdd188ac",
            "reqSigs": 1,
            "type": "pubkeyhash",
            "addresses": [
              "LcqmEnB9vsf1t69iLVuXBnZBoyPzYgu2xa"
            ]
          }
        }
      ],
      "hex": "01000000010dc8862f145934fe96c6e82c313d6dd6d20b7c3cf67ebfaa14a0c795f02232f7010000006a4730440220637ec3a003969a04319fff86d2ce0c30efa8fec9257e5c86ea14f5709a03e6200220247c710a3ed26deda09c168cef1a60cfbdd52b507eaa01e48225a7e34560f276012102028ec5a38fb75ff1d85224c9024aea9363a409db24c5277cd558c0fc967371abffffffff02936b7d00000000001976a91439090459b39e012dca253bfbed0c66d1801a6d6888ac99ed0000000000001976a914c13fe8f4985c1daa683044f97cecede7f1f5fdd188ac00000000"
    }, 
    {
      "txid": "46895a700ae3cd06819e1de8eef46bc7bb3a43c070b34406811fb6bbef6685af",
      "hash": "46895a700ae3cd06819e1de8eef46bc7bb3a43c070b34406811fb6bbef6685af",
      "version": 1,
      "size": 225,
      "vsize": 225,
      "locktime": 0,
      "vin": [
        {
          "txid": "93a7cfd9e43f2cb647fbef6172f1bfadb5899d57fa4bd562b6b1ce19eb8ab419",
          "vout": 0,
          "scriptSig": {
            "asm": "30440220233b8376aa2dc462b24c42c21a64e92ff28851658066567214bb5c5ac4be52df022067e0a6f098b6fdd6edf93a88f3336640108b0e8a681b7c4e69dfdeb6bc28000a[ALL] 02b5cdc29d615d4c1c044af8cb5eeac9933e341631f6d024a08c8d8b72ecf4de42",
            "hex": "4730440220233b8376aa2dc462b24c42c21a64e92ff28851658066567214bb5c5ac4be52df022067e0a6f098b6fdd6edf93a88f3336640108b0e8a681b7c4e69dfdeb6bc28000a012102b5cdc29d615d4c1c044af8cb5eeac9933e341631f6d024a08c8d8b72ecf4de42"
          },
          "sequence": 4294967295
        }
      ],
      "vout": [
        {
          "value": 1.00000000,
          "n": 0,
          "scriptPubKey": {
            "asm": "OP_DUP OP_HASH160 a5f903a96582184415ac4705c617db6295aaf974 OP_EQUALVERIFY OP_CHECKSIG",
            "hex": "76a914a5f903a96582184415ac4705c617db6295aaf97488ac",
            "reqSigs": 1,
            "type": "pubkeyhash",
            "addresses": [
              "LaMY4gX3uEh8r7Supb81NVEk1ZixC14mQz"
            ]
          }
        }, 
        {
          "value": 72.00322734,
          "n": 1,
          "scriptPubKey": {
            "asm": "OP_DUP OP_HASH160 17bfdb5a0dac7a13beee4ed80f952621c3b491b7 OP_EQUALVERIFY OP_CHECKSIG",
            "hex": "76a91417bfdb5a0dac7a13beee4ed80f952621c3b491b788ac",
            "reqSigs": 1,
            "type": "pubkeyhash",
            "addresses": [
              "LMPXe59K4aWFRuEtjobzB8B8gU92bkQQpp"
            ]
          }
        }
      ],
      "hex": "010000000119b48aeb19ceb1b662d54bfa579d89b5adbff17261effb47b62c3fe4d9cfa793000000006a4730440220233b8376aa2dc462b24c42c21a64e92ff28851658066567214bb5c5ac4be52df022067e0a6f098b6fdd6edf93a88f3336640108b0e8a681b7c4e69dfdeb6bc28000a012102b5cdc29d615d4c1c044af8cb5eeac9933e341631f6d024a08c8d8b72ecf4de42ffffffff0200e1f505000000001976a914a5f903a96582184415ac4705c617db6295aaf97488acae342cad010000001976a91417bfdb5a0dac7a13beee4ed80f952621c3b491b788ac00000000"
    }, 
    {
      "txid": "c27d8b4027e728063eb5fee3321d04f9ed14b9e5007cdddd32114cb4882a83ca",
      "hash": "c27d8b4027e728063eb5fee3321d04f9ed14b9e5007cdddd32114cb4882a83ca",
      "version": 1,
      "size": 225,
      "vsize": 225,
      "locktime": 0,
      "vin": [
        {
          "txid": "2b1c687d9725c7e447ed15ab351eae71e3744a3ff6aa1d9d1db4186fb52333da",
          "vout": 1,
          "scriptSig": {
            "asm": "304402204879439c5cbc690bf89f0716d47f19f837f22a472a389807ef21b4fc04661508022049c3420f1f020559635a79b8ca3cf1ff888d621f96e5e096f0ce360b61a170aa[ALL] 02d58aa08fbff4a4255493bdf81c855538e0d1979f6fd63d179404c075270a144c",
            "hex": "47304402204879439c5cbc690bf89f0716d47f19f837f22a472a389807ef21b4fc04661508022049c3420f1f020559635a79b8ca3cf1ff888d621f96e5e096f0ce360b61a170aa012102d58aa08fbff4a4255493bdf81c855538e0d1979f6fd63d179404c075270a144c"
          },
          "sequence": 4294967295
        }
      ],
      "vout": [
        {
          "value": 73.56526224,
          "n": 0,
          "scriptPubKey": {
            "asm": "OP_DUP OP_HASH160 c7cb9cf8d8ab1d4d6910ef4869ec4bf401ab51e5 OP_EQUALVERIFY OP_CHECKSIG",
            "hex": "76a914c7cb9cf8d8ab1d4d6910ef4869ec4bf401ab51e588ac",
            "reqSigs": 1,
            "type": "pubkeyhash",
            "addresses": [
              "LdSNegJfiwXhuo7fcg3o6TJxGdoHo1bULi"
            ]
          }
        }, 
        {
          "value": 1.00000000,
          "n": 1,
          "scriptPubKey": {
            "asm": "OP_DUP OP_HASH160 1e5e38e6bf0e00f56731b7c9c2dcacabcf5dff03 OP_EQUALVERIFY OP_CHECKSIG",
            "hex": "76a9141e5e38e6bf0e00f56731b7c9c2dcacabcf5dff0388ac",
            "reqSigs": 1,
            "type": "pubkeyhash",
            "addresses": [
              "LMzXQeRfXAbccSXcdfuRV37sr68obDnZ3v"
            ]
          }
        }
      ],
      "hex": "0100000001da3323b56f18b41d9d1daaf63f4a74e371ae1e35ab15ed47e4c725977d681c2b010000006a47304402204879439c5cbc690bf89f0716d47f19f837f22a472a389807ef21b4fc04661508022049c3420f1f020559635a79b8ca3cf1ff888d621f96e5e096f0ce360b61a170aa012102d58aa08fbff4a4255493bdf81c855538e0d1979f6fd63d179404c075270a144cffffffff0290ae7bb6010000001976a914c7cb9cf8d8ab1d4d6910ef4869ec4bf401ab51e588ac00e1f505000000001976a9141e5e38e6bf0e00f56731b7c9c2dcacabcf5dff0388ac00000000"
    }, 
    {
      "txid": "b5f205bbc4f0c4aa12c7ad0d05504553988f768fdc9de4f7e02d3ebd8234f6f6",
      "hash": "b5f205bbc4f0c4aa12c7ad0d05504553988f768fdc9de4f7e02d3ebd8234f6f6",
      "version": 1,
      "size": 225,
      "vsize": 225,
      "locktime": 0,
      "vin": [
        {
          "txid": "a5f2512f7727221b8d897b9f86d2442786a40041b74a823bca6a78040c9ef0f8",
          "vout": 0,
          "scriptSig": {
            "asm": "3044022005f1ead8636d154e99bb1b2baffba92401382518e866e4206153ae15096a823502200f98129c89c7e328774535838b216f52a76c62d19e0f389fcfeeaee68bcf6081[ALL] 037f26dc077e75497dfbac256b62fdd401055428dd23884a0f9d8e8375b3385cb4",
            "hex": "473044022005f1ead8636d154e99bb1b2baffba92401382518e866e4206153ae15096a823502200f98129c89c7e328774535838b216f52a76c62d19e0f389fcfeeaee68bcf60810121037f26dc077e75497dfbac256b62fdd401055428dd23884a0f9d8e8375b3385cb4"
          },
          "sequence": 4294967295
        }
      ],
      "vout": [
        {
          "value": 0.43606391,
          "n": 0,
          "scriptPubKey": {
            "asm": "OP_DUP OP_HASH160 8f62de9554856f04b05e55ed8fa5be02912ea266 OP_EQUALVERIFY OP_CHECKSIG",
            "hex": "76a9148f62de9554856f04b05e55ed8fa5be02912ea26688ac",
            "reqSigs": 1,
            "type": "pubkeyhash",
            "addresses": [
              "LYJ7LDTsBBwT8X7fgb6LZsgddHsUPWyUYp"
            ]
          }
        }, 
        {
          "value": 2.20785009,
          "n": 1,
          "scriptPubKey": {
            "asm": "OP_DUP OP_HASH160 bc243e2abbae8bf4870381fee9ded0309fd4a5a3 OP_EQUALVERIFY OP_CHECKSIG",
            "hex": "76a914bc243e2abbae8bf4870381fee9ded0309fd4a5a388ac",
            "reqSigs": 1,
            "type": "pubkeyhash",
            "addresses": [
              "LcNkiUS28cTbgBgswJKcKnid9G1fK69YvY"
            ]
          }
        }
      ],
      "hex": "0100000001f8f09e0c04786aca3b824ab74100a4862744d2869f7b898d1b2227772f51f2a5000000006a473044022005f1ead8636d154e99bb1b2baffba92401382518e866e4206153ae15096a823502200f98129c89c7e328774535838b216f52a76c62d19e0f389fcfeeaee68bcf60810121037f26dc077e75497dfbac256b62fdd401055428dd23884a0f9d8e8375b3385cb4ffffffff0277619902000000001976a9148f62de9554856f04b05e55ed8fa5be02912ea26688ac71e9280d000000001976a914bc243e2abbae8bf4870381fee9ded0309fd4a5a388ac00000000"
    }, 
    {
      "txid": "e6209029770a8ad4bcb95f89628e7f0e98ba10c992876a5a581eef805dc08d42",
      "hash": "e6209029770a8ad4bcb95f89628e7f0e98ba10c992876a5a581eef805dc08d42",
      "version": 1,
      "size": 520,
      "vsize": 520,
      "locktime": 0,
      "vin": [
        {
          "txid": "86964698d8928412f214baca96c8dc3301e102e043ce9cdbfb22b77d0fc9e21c",
          "vout": 0,
          "scriptSig": {
            "asm": "3045022100d1415ff18f71aa528dd1531e18b5e446fa8212b76e9825d60de10db3d83df63a02200ca83b6fd0dc45edf5acf33a1f84729e902b6dfce7f21f9eaf8b74ac07a7456d[ALL] 035cd8c489364cf717ca2d7e6ce36f1560d32d0134f2d2bf15450c80a8e97717ed",
            "hex": "483045022100d1415ff18f71aa528dd1531e18b5e446fa8212b76e9825d60de10db3d83df63a02200ca83b6fd0dc45edf5acf33a1f84729e902b6dfce7f21f9eaf8b74ac07a7456d0121035cd8c489364cf717ca2d7e6ce36f1560d32d0134f2d2bf15450c80a8e97717ed"
          },
          "sequence": 4294967295
        }, 
        {
          "txid": "925596a0b5156c8a227acb8d22e14219238e8e64626a66cf12cf9e68b1a4c087",
          "vout": 0,
          "scriptSig": {
            "asm": "3045022100af71761b78286e3a493ef6c15794c7e2bb75d9576677267049b7c06ce2e6c26b022075237ffba1e4aed09b98128e21c00bc1de24b9796d9f8d8b4c1b8d6de433e788[ALL] 039c494c0a57c0bc9f3fa85dc5f53e18edba9bde6cb738fc7faebd15501b5c9164",
            "hex": "483045022100af71761b78286e3a493ef6c15794c7e2bb75d9576677267049b7c06ce2e6c26b022075237ffba1e4aed09b98128e21c00bc1de24b9796d9f8d8b4c1b8d6de433e7880121039c494c0a57c0bc9f3fa85dc5f53e18edba9bde6cb738fc7faebd15501b5c9164"
          },
          "sequence": 4294967295
        }, 
        {
          "txid": "6474b35e3a427ed8df4e88d72f61221539709d2720e80ab609cecf863402aa84",
          "vout": 1,
          "scriptSig": {
            "asm": "3045022100f5c4f0ad92bbe7a643ee4a61e2d69b213112283d114270c0cbb4a91ced79d6c402200455af6ce2e11b23f2c0c95a980a5c9ae79d87b7fcadee895340bfd83fc5877b[ALL] 02aad3db2af343c818899d0ecbd0aba37d71149f49304ce8ea8f85a9341ec4c45d",
            "hex": "483045022100f5c4f0ad92bbe7a643ee4a61e2d69b213112283d114270c0cbb4a91ced79d6c402200455af6ce2e11b23f2c0c95a980a5c9ae79d87b7fcadee895340bfd83fc5877b012102aad3db2af343c818899d0ecbd0aba37d71149f49304ce8ea8f85a9341ec4c45d"
          },
          "sequence": 4294967295
        }
      ],
      "vout": [
        {
          "value": 2.30000000,
          "n": 0,
          "scriptPubKey": {
            "asm": "OP_HASH160 d31460b4e1adbd80dc6c71c0641af347621fbf49 OP_EQUAL",
            "hex": "a914d31460b4e1adbd80dc6c71c0641af347621fbf4987",
            "reqSigs": 1,
            "type": "scripthash",
            "addresses": [
              "MT9FDn5Rvz4ZFHqsf3pXA9ckgkkB3ti1Qt"
            ]
          }
        }, 
        {
          "value": 0.01437450,
          "n": 1,
          "scriptPubKey": {
            "asm": "OP_DUP OP_HASH160 9cec916579b8ac4a9e7b878cac46e0ffc89ca0c2 OP_EQUALVERIFY OP_CHECKSIG",
            "hex": "76a9149cec916579b8ac4a9e7b878cac46e0ffc89ca0c288ac",
            "reqSigs": 1,
            "type": "pubkeyhash",
            "addresses": [
              "LZXh5Ai6zoG3aLHhmLfB89rpDocmPzeprM"
            ]
          }
        }
      ],
      "hex": "01000000031ce2c90f7db722fbdb9cce43e002e10133dcc896caba14f2128492d898469686000000006b483045022100d1415ff18f71aa528dd1531e18b5e446fa8212b76e9825d60de10db3d83df63a02200ca83b6fd0dc45edf5acf33a1f84729e902b6dfce7f21f9eaf8b74ac07a7456d0121035cd8c489364cf717ca2d7e6ce36f1560d32d0134f2d2bf15450c80a8e97717edffffffff87c0a4b1689ecf12cf666a62648e8e231942e1228dcb7a228a6c15b5a0965592000000006b483045022100af71761b78286e3a493ef6c15794c7e2bb75d9576677267049b7c06ce2e6c26b022075237ffba1e4aed09b98128e21c00bc1de24b9796d9f8d8b4c1b8d6de433e7880121039c494c0a57c0bc9f3fa85dc5f53e18edba9bde6cb738fc7faebd15501b5c9164ffffffff84aa023486cfce09b60ae820279d70391522612fd7884edfd87e423a5eb37464010000006b483045022100f5c4f0ad92bbe7a643ee4a61e2d69b213112283d114270c0cbb4a91ced79d6c402200455af6ce2e11b23f2c0c95a980a5c9ae79d87b7fcadee895340bfd83fc5877b012102aad3db2af343c818899d0ecbd0aba37d71149f49304ce8ea8f85a9341ec4c45dffffffff028085b50d0000000017a914d31460b4e1adbd80dc6c71c0641af347621fbf49870aef1500000000001976a9149cec916579b8ac4a9e7b878cac46e0ffc89ca0c288ac00000000"
    }, 
    {
      "txid": "05fef7756c33c17eb5bb8ecd4087184bc7274d4a81d6f358211b05f8c965f314",
      "hash": "05fef7756c33c17eb5bb8ecd4087184bc7274d4a81d6f358211b05f8c965f314",
      "version": 2,
      "size": 226,
      "vsize": 226,
      "locktime": 1358753,
      "vin": [
        {
          "txid": "780c350f520e2baaec24767ceecc422639a5df2ad1bdf97f588d4f2e407d28d0",
          "vout": 0,
          "scriptSig": {
            "asm": "3045022100ad45f0ab706e088480735d7446cbe20136277c2248f3f8313bb92972da9774e002204012ea0101374658dfd0d37da4bdd89caec549f8be04beb7edd382f0ca758833[ALL] 026198fd48856b099ea6396c2a74ea6dc353f322005f5b7e09b9f7715f54f45ed6",
            "hex": "483045022100ad45f0ab706e088480735d7446cbe20136277c2248f3f8313bb92972da9774e002204012ea0101374658dfd0d37da4bdd89caec549f8be04beb7edd382f0ca7588330121026198fd48856b099ea6396c2a74ea6dc353f322005f5b7e09b9f7715f54f45ed6"
          },
          "sequence": 4294967294
        }
      ],
      "vout": [
        {
          "value": 0.88970100,
          "n": 0,
          "scriptPubKey": {
            "asm": "OP_DUP OP_HASH160 92feaab7fd4fb56ea4de6d81f79f85ca79df9fef OP_EQUALVERIFY OP_CHECKSIG",
            "hex": "76a91492feaab7fd4fb56ea4de6d81f79f85ca79df9fef88ac",
            "reqSigs": 1,
            "type": "pubkeyhash",
            "addresses": [
              "LYdBznTbiimMKwCuiPDRQ11apxPJu5Bfdj"
            ]
          }
        }, 
        {
          "value": 0.04890000,
          "n": 1,
          "scriptPubKey": {
            "asm": "OP_DUP OP_HASH160 806225ae9e6947807cf8737d804bd4cc3726edd4 OP_EQUALVERIFY OP_CHECKSIG",
            "hex": "76a914806225ae9e6947807cf8737d804bd4cc3726edd488ac",
            "reqSigs": 1,
            "type": "pubkeyhash",
            "addresses": [
              "LWvnL9tNKCCD2FpGCF9raP9tWroQsQXFvf"
            ]
          }
        }
      ],
      "hex": "0200000001d0287d402e4f8d587ff9bdd12adfa5392642ccee7c7624ecaa2b0e520f350c78000000006b483045022100ad45f0ab706e088480735d7446cbe20136277c2248f3f8313bb92972da9774e002204012ea0101374658dfd0d37da4bdd89caec549f8be04beb7edd382f0ca7588330121026198fd48856b099ea6396c2a74ea6dc353f322005f5b7e09b9f7715f54f45ed6feffffff0274934d05000000001976a91492feaab7fd4fb56ea4de6d81f79f85ca79df9fef88ac909d4a00000000001976a914806225ae9e6947807cf8737d804bd4cc3726edd488aca1bb1400"
    }, 
    {
      "txid": "ea146efd1b1d18c23c38604e706084765d19c7743937620091f3027aaf1f7d5d",
      "hash": "ea146efd1b1d18c23c38604e706084765d19c7743937620091f3027aaf1f7d5d",
      "version": 1,
      "size": 226,
      "vsize": 226,
      "locktime": 0,
      "vin": [
        {
          "txid": "d4ab4064cac8583070720926b720b8ec78674e1b2805c6de63c4c340925d20d3",
          "vout": 1,
          "scriptSig": {
            "asm": "3045022100b63eb84844debbc1581738e4c5c38adb0b935c4a3fdf8f94b9a5499825332bc2022009b39f8be39fb62e2c5f4a3e977a4b7f0059c7ee295df1ac0840973ae2d15bf0[ALL] 02bbc3f6cf2a76e5e707898e8ca079a3182c7e3b7fc4b8191c13a1de7dcc4263ec",
            "hex": "483045022100b63eb84844debbc1581738e4c5c38adb0b935c4a3fdf8f94b9a5499825332bc2022009b39f8be39fb62e2c5f4a3e977a4b7f0059c7ee295df1ac0840973ae2d15bf0012102bbc3f6cf2a76e5e707898e8ca079a3182c7e3b7fc4b8191c13a1de7dcc4263ec"
          },
          "sequence": 4294967295
        }
      ],
      "vout": [
        {
          "value": 0.15970464,
          "n": 0,
          "scriptPubKey": {
            "asm": "OP_DUP OP_HASH160 9c7a2ea3b7634481f1ec590ebf065871b11bde67 OP_EQUALVERIFY OP_CHECKSIG",
            "hex": "76a9149c7a2ea3b7634481f1ec590ebf065871b11bde6788ac",
            "reqSigs": 1,
            "type": "pubkeyhash",
            "addresses": [
              "LZVL3WHEoMQSnV2KLm7RBnPcWSxCqB6eE1"
            ]
          }
        }, 
        {
          "value": 0.69411526,
          "n": 1,
          "scriptPubKey": {
            "asm": "OP_DUP OP_HASH160 a793197192ee7fab3b4f0acdbb8f399f2b8674a0 OP_EQUALVERIFY OP_CHECKSIG",
            "hex": "76a914a793197192ee7fab3b4f0acdbb8f399f2b8674a088ac",
            "reqSigs": 1,
            "type": "pubkeyhash",
            "addresses": [
              "LaW1KtmnCSAGdPnUqzrFMmxJAwTBZRt1Aj"
            ]
          }
        }
      ],
      "hex": "0100000001d3205d9240c3c463dec605281b4e6778ecb820b7260972703058c8ca6440abd4010000006b483045022100b63eb84844debbc1581738e4c5c38adb0b935c4a3fdf8f94b9a5499825332bc2022009b39f8be39fb62e2c5f4a3e977a4b7f0059c7ee295df1ac0840973ae2d15bf0012102bbc3f6cf2a76e5e707898e8ca079a3182c7e3b7fc4b8191c13a1de7dcc4263ecffffffff02a0b0f300000000001976a9149c7a2ea3b7634481f1ec590ebf065871b11bde6788acc6222304000000001976a914a793197192ee7fab3b4f0acdbb8f399f2b8674a088ac00000000"
    }, 
    {
      "txid": "9d41b6a9e8b21f302cc9d286776b2410e5c736388d90f5367dcbd0bab3749965",
      "hash": "9d41b6a9e8b21f302cc9d286776b2410e5c736388d90f5367dcbd0bab3749965",
      "version": 1,
      "size": 226,
      "vsize": 226,
      "locktime": 0,
      "vin": [
        {
          "txid": "a9266cd18bb702f328cf28eca2803dbc9975e30062899a89871f7554e07b74f9",
          "vout": 1,
          "scriptSig": {
            "asm": "3045022100b5195a5437c19ded999f039923bad5cfdb9a0f2b201e3024ffb9a364b3bc5e5c022040d0054c643254e4e79def5edb7a38ca3d2df81dee7fef6997457d0d90e78b8d[ALL] 03d7480f76c3aed4a59a675c0ea8dac756a22843ae61f26010e906ea7251aba1b8",
            "hex": "483045022100b5195a5437c19ded999f039923bad5cfdb9a0f2b201e3024ffb9a364b3bc5e5c022040d0054c643254e4e79def5edb7a38ca3d2df81dee7fef6997457d0d90e78b8d012103d7480f76c3aed4a59a675c0ea8dac756a22843ae61f26010e906ea7251aba1b8"
          },
          "sequence": 4294967295
        }
      ],
      "vout": [
        {
          "value": 2.00000000,
          "n": 0,
          "scriptPubKey": {
            "asm": "OP_DUP OP_HASH160 beb0e7c89f05f93754227ca9de84b041c19b75d6 OP_EQUALVERIFY OP_CHECKSIG",
            "hex": "76a914beb0e7c89f05f93754227ca9de84b041c19b75d688ac",
            "reqSigs": 1,
            "type": "pubkeyhash",
            "addresses": [
              "LccEaGFje724PAJEV5RNq7BLNRWDmgbXay"
            ]
          }
        }, 
        {
          "value": 0.58699197,
          "n": 1,
          "scriptPubKey": {
            "asm": "OP_DUP OP_HASH160 4e091e61c6795ab0a89bb8c00272ef2066ed0882 OP_EQUALVERIFY OP_CHECKSIG",
            "hex": "76a9144e091e61c6795ab0a89bb8c00272ef2066ed088288ac",
            "reqSigs": 1,
            "type": "pubkeyhash",
            "addresses": [
              "LSLZtkcUJhCiJHN611wqbQSURd4PNH9TsQ"
            ]
          }
        }
      ],
      "hex": "0100000001f9747be054751f87899a896200e37599bc3d80a2ec28cf28f302b78bd16c26a9010000006b483045022100b5195a5437c19ded999f039923bad5cfdb9a0f2b201e3024ffb9a364b3bc5e5c022040d0054c643254e4e79def5edb7a38ca3d2df81dee7fef6997457d0d90e78b8d012103d7480f76c3aed4a59a675c0ea8dac756a22843ae61f26010e906ea7251aba1b8ffffffff0200c2eb0b000000001976a914beb0e7c89f05f93754227ca9de84b041c19b75d688acbdad7f03000000001976a9144e091e61c6795ab0a89bb8c00272ef2066ed088288ac00000000"
    }, 
    {
      "txid": "7d58a4f76162d17ded4e219f494dbfba6e15b82cadc83296bce47d1ce74a148d",
      "hash": "7d58a4f76162d17ded4e219f494dbfba6e15b82cadc83296bce47d1ce74a148d",
      "version": 1,
      "size": 226,
      "vsize": 226,
      "locktime": 0,
      "vin": [
        {
          "txid": "4abf45b9a3e93052a916f05148f5cb8c8f2e997520e4ffdf06fefaba04c3f170",
          "vout": 1,
          "scriptSig": {
            "asm": "304502210091cb1e98337bcf11da2c914ea17b45be9704189e6e172d13b811f98d63c793e6022012f9a97573e91959df78a945fbdff7a20bdb02f2fb3b3f5974ce32e9bb93e821[ALL] 03a277e31813aba0913662729c0211066e6d403fe62e15493c98ffd5980b6bb214",
            "hex": "48304502210091cb1e98337bcf11da2c914ea17b45be9704189e6e172d13b811f98d63c793e6022012f9a97573e91959df78a945fbdff7a20bdb02f2fb3b3f5974ce32e9bb93e821012103a277e31813aba0913662729c0211066e6d403fe62e15493c98ffd5980b6bb214"
          },
          "sequence": 4294967295
        }
      ],
      "vout": [
        {
          "value": 0.25530085,
          "n": 0,
          "scriptPubKey": {
            "asm": "OP_DUP OP_HASH160 3f1699ac89774c66741380d3cc513773e9127708 OP_EQUALVERIFY OP_CHECKSIG",
            "hex": "76a9143f1699ac89774c66741380d3cc513773e912770888ac",
            "reqSigs": 1,
            "type": "pubkeyhash",
            "addresses": [
              "LQyXubQFa3ExrvzmA916eT97nZhU37okPn"
            ]
          }
        }, 
        {
          "value": 0.52296552,
          "n": 1,
          "scriptPubKey": {
            "asm": "OP_DUP OP_HASH160 f5a88ad198e51cc841fde01c7a3bca0f28e6985a OP_EQUALVERIFY OP_CHECKSIG",
            "hex": "76a914f5a88ad198e51cc841fde01c7a3bca0f28e6985a88ac",
            "reqSigs": 1,
            "type": "pubkeyhash",
            "addresses": [
              "LhcsijUCJ4WLh7MEBMyBnv1r1xKAfB5nCm"
            ]
          }
        }
      ],
      "hex": "010000000170f1c304bafafe06dfffe42075992e8f8ccbf54851f016a95230e9a3b945bf4a010000006b48304502210091cb1e98337bcf11da2c914ea17b45be9704189e6e172d13b811f98d63c793e6022012f9a97573e91959df78a945fbdff7a20bdb02f2fb3b3f5974ce32e9bb93e821012103a277e31813aba0913662729c0211066e6d403fe62e15493c98ffd5980b6bb214ffffffff02e58e8501000000001976a9143f1699ac89774c66741380d3cc513773e912770888ac68fb1d03000000001976a914f5a88ad198e51cc841fde01c7a3bca0f28e6985a88ac00000000"
    }, 
    {
      "txid": "7eb171f0a356fa1f3ad0b28615f3663a80ab0a7144f9ec444ba039a168a18aa4",
      "hash": "7eb171f0a356fa1f3ad0b28615f3663a80ab0a7144f9ec444ba039a168a18aa4",
      "version": 1,
      "size": 226,
      "vsize": 226,
      "locktime": 0,
      "vin": [
        {
          "txid": "6c6ec0952f9d7096716d6403ada4bf261d1eaa4bb7ab0ebd6ecf39669376a97f",
          "vout": 1,
          "scriptSig": {
            "asm": "304502210080bff4d63b9eb98629d1559e54062c19eade9cc59cb2ea681b733b6a26496004022052c1ba3981093394ba3148a5e3198b42f9bf7c3e9e0754894b95f85088569592[ALL] 02618d782260a61a6489e291191c0d933d2899343b217a023476f29232d8fce627",
            "hex": "48304502210080bff4d63b9eb98629d1559e54062c19eade9cc59cb2ea681b733b6a26496004022052c1ba3981093394ba3148a5e3198b42f9bf7c3e9e0754894b95f85088569592012102618d782260a61a6489e291191c0d933d2899343b217a023476f29232d8fce627"
          },
          "sequence": 4294967295
        }
      ],
      "vout": [
        {
          "value": 0.09316794,
          "n": 0,
          "scriptPubKey": {
            "asm": "OP_DUP OP_HASH160 ee3faf3fbb7e091e73d11e5fb2e44f8161c746bd OP_EQUALVERIFY OP_CHECKSIG",
            "hex": "76a914ee3faf3fbb7e091e73d11e5fb2e44f8161c746bd88ac",
            "reqSigs": 1,
            "type": "pubkeyhash",
            "addresses": [
              "LgwhNkSsomod1i4tsb1tqdhvFUpjzDbQsE"
            ]
          }
        }, 
        {
          "value": 0.26940648,
          "n": 1,
          "scriptPubKey": {
            "asm": "OP_DUP OP_HASH160 2031b8cbaa3182077bf5eaee2c48f4a6a61d0db0 OP_EQUALVERIFY OP_CHECKSIG",
            "hex": "76a9142031b8cbaa3182077bf5eaee2c48f4a6a61d0db088ac",
            "reqSigs": 1,
            "type": "pubkeyhash",
            "addresses": [
              "LNABT5zKzmigTPMxXWbNv9nx6WRjzxhcaa"
            ]
          }
        }
      ],
      "hex": "01000000017fa976936639cf6ebd0eabb74baa1e1d26bfa4ad03646d7196709d2f95c06e6c010000006b48304502210080bff4d63b9eb98629d1559e54062c19eade9cc59cb2ea681b733b6a26496004022052c1ba3981093394ba3148a5e3198b42f9bf7c3e9e0754894b95f85088569592012102618d782260a61a6489e291191c0d933d2899343b217a023476f29232d8fce627ffffffff02ba298e00000000001976a914ee3faf3fbb7e091e73d11e5fb2e44f8161c746bd88ace8149b01000000001976a9142031b8cbaa3182077bf5eaee2c48f4a6a61d0db088ac00000000"
    }, 
    {
      "txid": "54e6425972d8b5ed987ef53f3112392a8bece635ead25846b694ee9230680fcb",
      "hash": "54e6425972d8b5ed987ef53f3112392a8bece635ead25846b694ee9230680fcb",
      "version": 1,
      "size": 226,
      "vsize": 226,
      "locktime": 0,
      "vin": [
        {
          "txid": "43ef2037a7731615f379d38a51de38bd5f806820aa83fabbc7736c0b9340c16b",
          "vout": 0,
          "scriptSig": {
            "asm": "30450221009115979bd5c244a8b17af72525ca93ad33c57d43ce51f65dbe7692bdf03b9ca902205de013017815069264bc640f66759cdbcc49bbec64ae3a3e90536f29d63c26b5[ALL] 03fe30ef713043dda2f9968ef2b0f6bf65d920b14a4a9663941ca2feb70da5d202",
            "hex": "4830450221009115979bd5c244a8b17af72525ca93ad33c57d43ce51f65dbe7692bdf03b9ca902205de013017815069264bc640f66759cdbcc49bbec64ae3a3e90536f29d63c26b5012103fe30ef713043dda2f9968ef2b0f6bf65d920b14a4a9663941ca2feb70da5d202"
          },
          "sequence": 4294967295
        }
      ],
      "vout": [
        {
          "value": 68.27652482,
          "n": 0,
          "scriptPubKey": {
            "asm": "OP_DUP OP_HASH160 34525902ff612f16eb187a55e344a8f0fc51fb94 OP_EQUALVERIFY OP_CHECKSIG",
            "hex": "76a91434525902ff612f16eb187a55e344a8f0fc51fb9488ac",
            "reqSigs": 1,
            "type": "pubkeyhash",
            "addresses": [
              "LPzc3okT2WYz2rJpVGtyV9tCd5ebqybyLn"
            ]
          }
        }, 
        {
          "value": 5.00000000,
          "n": 1,
          "scriptPubKey": {
            "asm": "OP_DUP OP_HASH160 0d00291eaeff4d2772841eef658f60aa03f8a7ea OP_EQUALVERIFY OP_CHECKSIG",
            "hex": "76a9140d00291eaeff4d2772841eef658f60aa03f8a7ea88ac",
            "reqSigs": 1,
            "type": "pubkeyhash",
            "addresses": [
              "LLQhEsFUxjm5aEGGATJnCjMWBjYiA8xxHo"
            ]
          }
        }
      ],
      "hex": "01000000016bc140930b6c73c7bbfa83aa2068805fbd38de518ad379f3151673a73720ef43000000006b4830450221009115979bd5c244a8b17af72525ca93ad33c57d43ce51f65dbe7692bdf03b9ca902205de013017815069264bc640f66759cdbcc49bbec64ae3a3e90536f29d63c26b5012103fe30ef713043dda2f9968ef2b0f6bf65d920b14a4a9663941ca2feb70da5d202ffffffff0282b5f596010000001976a91434525902ff612f16eb187a55e344a8f0fc51fb9488ac0065cd1d000000001976a9140d00291eaeff4d2772841eef658f60aa03f8a7ea88ac00000000"
    }, 
    {
      "txid": "15e14a388458df34a1e6dcc39d1fceff23999d605efab082b7046742c06964cf",
      "hash": "15e14a388458df34a1e6dcc39d1fceff23999d605efab082b7046742c06964cf",
      "version": 1,
      "size": 226,
      "vsize": 226,
      "locktime": 0,
      "vin": [
        {
          "txid": "7bc9975954531ca8713a7c3c8914d52dadae907327cb5049cf24a7f700753035",
          "vout": 1,
          "scriptSig": {
            "asm": "3045022100c505a07d17d2c5d22c2faba6b4fd6acdf9f9268909201e60e34231ced5f54859022073bbbd821abe7a0397ba5c938076556bcd76a753c9da3b9c9c3990496928dab0[ALL] 039246f86612566372f5f8d28ec0900042177b2950fd10a50849adff5652c01491",
            "hex": "483045022100c505a07d17d2c5d22c2faba6b4fd6acdf9f9268909201e60e34231ced5f54859022073bbbd821abe7a0397ba5c938076556bcd76a753c9da3b9c9c3990496928dab00121039246f86612566372f5f8d28ec0900042177b2950fd10a50849adff5652c01491"
          },
          "sequence": 4294967295
        }
      ],
      "vout": [
        {
          "value": 1.96513471,
          "n": 0,
          "scriptPubKey": {
            "asm": "OP_DUP OP_HASH160 0145811b363b24a8dc6852e60449909c8e071385 OP_EQUALVERIFY OP_CHECKSIG",
            "hex": "76a9140145811b363b24a8dc6852e60449909c8e07138588ac",
            "reqSigs": 1,
            "type": "pubkeyhash",
            "addresses": [
              "LKLgCee3xAQCebJr6qAsJnftMsdFX9ybtq"
            ]
          }
        }, 
        {
          "value": 69.79954761,
          "n": 1,
          "scriptPubKey": {
            "asm": "OP_DUP OP_HASH160 54142bca2a1b3d11c87c9a1b87ad20f32fec9c85 OP_EQUALVERIFY OP_CHECKSIG",
            "hex": "76a91454142bca2a1b3d11c87c9a1b87ad20f32fec9c8588ac",
            "reqSigs": 1,
            "type": "pubkeyhash",
            "addresses": [
              "LStXBqT2F13E5K6KX6zhteJ3hezXydAVzy"
            ]
          }
        }
      ],
      "hex": "010000000135307500f7a724cf4950cb277390aead2dd514893c7c3a71a81c53545997c97b010000006b483045022100c505a07d17d2c5d22c2faba6b4fd6acdf9f9268909201e60e34231ced5f54859022073bbbd821abe7a0397ba5c938076556bcd76a753c9da3b9c9c3990496928dab00121039246f86612566372f5f8d28ec0900042177b2950fd10a50849adff5652c01491ffffffff02bf8eb60b000000001976a9140145811b363b24a8dc6852e60449909c8e07138588ac49a809a0010000001976a91454142bca2a1b3d11c87c9a1b87ad20f32fec9c8588ac00000000"
    }, 
    {
      "txid": "ccfca9c41c026b46354a920941ff1bd457aa8a54cac7486228708b0f45f25e26",
      "hash": "ccfca9c41c026b46354a920941ff1bd457aa8a54cac7486228708b0f45f25e26",
      "version": 1,
      "size": 223,
      "vsize": 223,
      "locktime": 0,
      "vin": [
        {
          "txid": "60cbf031a65ab524984b9d0b09ba1d804e70798c6a99c6413845b9136a6888c2",
          "vout": 1,
          "scriptSig": {
            "asm": "30440220509752abbcc968c6f5d8cfd1147f2679d3e0144d8ea140973e60a719a0442d9402206f514b03b87366f94773a0623b8057130b60ba9a1e80da0f9059751dd85c49a7[ALL] 04afb73c652889f0322845831115d803180a0ffedeb2763084e43c22ae4455c3cbfb2c420e903b99e43c8ac641fd4fcd09e866d3d410b2310ba9ffc9cb9b2057b3",
            "hex": "4730440220509752abbcc968c6f5d8cfd1147f2679d3e0144d8ea140973e60a719a0442d9402206f514b03b87366f94773a0623b8057130b60ba9a1e80da0f9059751dd85c49a7014104afb73c652889f0322845831115d803180a0ffedeb2763084e43c22ae4455c3cbfb2c420e903b99e43c8ac641fd4fcd09e866d3d410b2310ba9ffc9cb9b2057b3"
          },
          "sequence": 4294967295
        }
      ],
      "vout": [
        {
          "value": 189.99988800,
          "n": 0,
          "scriptPubKey": {
            "asm": "OP_DUP OP_HASH160 b716ae9884cefd22ac1b5e3c52bbfc1004f92308 OP_EQUALVERIFY OP_CHECKSIG",
            "hex": "76a914b716ae9884cefd22ac1b5e3c52bbfc1004f9230888ac",
            "reqSigs": 1,
            "type": "pubkeyhash",
            "addresses": [
              "Lbv36HtX7UnCc2a4hzieBp2cR7iP3XEUXz"
            ]
          }
        }
      ],
      "hex": "0100000001c288686a13b9453841c6996a8c79704e801dba090b9d4b9824b55aa631f0cb60010000008a4730440220509752abbcc968c6f5d8cfd1147f2679d3e0144d8ea140973e60a719a0442d9402206f514b03b87366f94773a0623b8057130b60ba9a1e80da0f9059751dd85c49a7014104afb73c652889f0322845831115d803180a0ffedeb2763084e43c22ae4455c3cbfb2c420e903b99e43c8ac641fd4fcd09e866d3d410b2310ba9ffc9cb9b2057b3ffffffff0140d27c6c040000001976a914b716ae9884cefd22ac1b5e3c52bbfc1004f9230888ac00000000"
    }, 
    {
      "txid": "8cad4eb4eb2e481fb9be465b139dd7faf5b1c8c87f235bc6d3886c0a53109ab7",
      "hash": "8cad4eb4eb2e481fb9be465b139dd7faf5b1c8c87f235bc6d3886c0a53109ab7",
      "version": 1,
      "size": 225,
      "vsize": 225,
      "locktime": 0,
      "vin": [
        {
          "txid": "155bd708b1ed36d2ccb01a3a1ad1be098ade59ad828828828ef5aecc1da36cf0",
          "vout": 1,
          "scriptSig": {
            "asm": "30440220603cf1df6e072a1acfa967c84094ed45baef7d7e59b16f06ff3d576e316ec7510220414ec9454741edb999f5de653737967f12c363f5eb3d7d23114842f6a9b058f0[ALL] 027dc69647f25b4c97cc86fd9ef136a6cc90ade5e19a618e33c7e3ce9177723d06",
            "hex": "4730440220603cf1df6e072a1acfa967c84094ed45baef7d7e59b16f06ff3d576e316ec7510220414ec9454741edb999f5de653737967f12c363f5eb3d7d23114842f6a9b058f00121027dc69647f25b4c97cc86fd9ef136a6cc90ade5e19a618e33c7e3ce9177723d06"
          },
          "sequence": 4294967295
        }
      ],
      "vout": [
        {
          "value": 0.05300000,
          "n": 0,
          "scriptPubKey": {
            "asm": "OP_DUP OP_HASH160 b486e2397d1bbda7ddfb224417a4a9ad5fed0d18 OP_EQUALVERIFY OP_CHECKSIG",
            "hex": "76a914b486e2397d1bbda7ddfb224417a4a9ad5fed0d1888ac",
            "reqSigs": 1,
            "type": "pubkeyhash",
            "addresses": [
              "LbgVUdEbvNqkaXG43a5rrGj6dTxZNi1DWS"
            ]
          }
        }, 
        {
          "value": 0.33068921,
          "n": 1,
          "scriptPubKey": {
            "asm": "OP_DUP OP_HASH160 6e40ba71f9b443adfdf2e8862bf14eac81859c7a OP_EQUALVERIFY OP_CHECKSIG",
            "hex": "76a9146e40ba71f9b443adfdf2e8862bf14eac81859c7a88ac",
            "reqSigs": 1,
            "type": "pubkeyhash",
            "addresses": [
              "LVGv8iTY1siYvCEznCnzgtY88ocNDF1jBH"
            ]
          }
        }
      ],
      "hex": "0100000001f06ca31dccaef58e82288882ad59de8a09bed11a3a1ab0ccd236edb108d75b15010000006a4730440220603cf1df6e072a1acfa967c84094ed45baef7d7e59b16f06ff3d576e316ec7510220414ec9454741edb999f5de653737967f12c363f5eb3d7d23114842f6a9b058f00121027dc69647f25b4c97cc86fd9ef136a6cc90ade5e19a618e33c7e3ce9177723d06ffffffff0220df5000000000001976a914b486e2397d1bbda7ddfb224417a4a9ad5fed0d1888ac7997f801000000001976a9146e40ba71f9b443adfdf2e8862bf14eac81859c7a88ac00000000"
    }
  ],
  "time": 1517187573,
  "mediantime": 1517187025,
  "nonce": 12134792,
  "bits": "1a047f14",
  "difficulty": 3731199.183374282,
  "chainwork": "0000000000000000000000000000000000000000000000335e32d352e5e5558e",
  "previousblockhash": "83e5eeb618401ca029dcaf84baaaee6d5918e2806d20ca84bf84801c67418ef0",
  "nextblockhash": "ad1d82a8f148b80a0355f9f28028b3746f6d8c1f00ab745d19badbba769504d8"
}
