{
  "hash": "6c5bd6cb683fc4a8242e443942148d3e6fa71caf79192403a76fc529903e755b",
  "confirmations": 3649,
  "strippedsize": 1600,
  "size": 1636,
  "weight": 6436,
  "height": 1357346,
  "version": 536870912,
  "versionHex": "20000000",
  "merkleroot": "ef3e444a216e1eb30e7adf61486a2a614ffec48ca13fc05e99c227de5e7fc5df",
  "tx": [
    {
      "txid": "78ead2fe9543dfd070e004f09b6fafaf262da270d935327002318315cf009136",
      "hash": "ce3f0f13fcedd053828023e7328a65ffed919522a1af967e1b30191864841f10",
      "version": 1,
      "size": 244,
      "vsize": 217,
      "locktime": 0,
      "vin": [
        {
          "coinbase": "0322b614048e7a6b5a08015d756c03000000fabe6d6d6d5fc7f8cf27bfe6a3145ca7436e590916ea0865856a2f71b7c11a3996b701a440000000000000000d2f6e6f64655374726174756d2f",
          "sequence": 0
        }
      ],
      "vout": [
        {
          "value": 25.00131200,
          "n": 0,
          "scriptPubKey": {
            "asm": "OP_DUP OP_HASH160 0c617fdb2ea42aed30a509595ee21ba3f6688db0 OP_EQUALVERIFY OP_CHECKSIG",
            "hex": "76a9140c617fdb2ea42aed30a509595ee21ba3f6688db088ac",
            "reqSigs": 1,
            "type": "pubkeyhash",
            "addresses": [
              "LLMRAtr3qBje2ySEa3CnZ55LA4TQMWnRY3"
            ]
          }
        }, 
        {
          "value": 0.00000000,
          "n": 1,
          "scriptPubKey": {
            "asm": "OP_RETURN aa21a9edc3239e17b3eb901095260fd78f56ef00905e3357a1d61eadf960a1be92a56343",
            "hex": "6a24aa21a9edc3239e17b3eb901095260fd78f56ef00905e3357a1d61eadf960a1be92a56343",
            "type": "nulldata"
          }
        }
      ],
      "hex": "010000000001010000000000000000000000000000000000000000000000000000000000000000ffffffff4c0322b614048e7a6b5a08015d756c03000000fabe6d6d6d5fc7f8cf27bfe6a3145ca7436e590916ea0865856a2f71b7c11a3996b701a440000000000000000d2f6e6f64655374726174756d2f000000000280f90495000000001976a9140c617fdb2ea42aed30a509595ee21ba3f6688db088ac0000000000000000266a24aa21a9edc3239e17b3eb901095260fd78f56ef00905e3357a1d61eadf960a1be92a563430120000000000000000000000000000000000000000000000000000000000000000000000000"
    }, 
    {
      "txid": "6998dd98ff476141297ce90d7227f898b0ec766da0482f085f6a7018450b7579",
      "hash": "6998dd98ff476141297ce90d7227f898b0ec766da0482f085f6a7018450b7579",
      "version": 1,
      "size": 225,
      "vsize": 225,
      "locktime": 0,
      "vin": [
        {
          "txid": "57539e4e60bfa8879a1cd0b899590b8686ee8427e8da779f31f5412eb81f49c9",
          "vout": 0,
          "scriptSig": {
            "asm": "3044022003ca67622108ca3d908f016f6d0d11aa7757e7855c02fff04ea7fbfd09a8411402204fd9c28eab3f89bc9dc3fa371f4a777ab1b01a77574a880694321121208641b8[ALL] 02a2e7416b274f98f2cfab3c1614ab730db38cb46a8b3e499a0224aaf334c5352a",
            "hex": "473044022003ca67622108ca3d908f016f6d0d11aa7757e7855c02fff04ea7fbfd09a8411402204fd9c28eab3f89bc9dc3fa371f4a777ab1b01a77574a880694321121208641b8012102a2e7416b274f98f2cfab3c1614ab730db38cb46a8b3e499a0224aaf334c5352a"
          },
          "sequence": 4294967295
        }
      ],
      "vout": [
        {
          "value": 0.57925213,
          "n": 0,
          "scriptPubKey": {
            "asm": "OP_DUP OP_HASH160 ac119e9854aceff8a721ace957a6470046dab227 OP_EQUALVERIFY OP_CHECKSIG",
            "hex": "76a914ac119e9854aceff8a721ace957a6470046dab22788ac",
            "reqSigs": 1,
            "type": "pubkeyhash",
            "addresses": [
              "LaumbS4qoW5Hu5JU2Q7dKA6bQinmZejzPZ"
            ]
          }
        }, 
        {
          "value": 57.59592804,
          "n": 1,
          "scriptPubKey": {
            "asm": "OP_DUP OP_HASH160 63096edffd7ee0f7b6abd54e21e3450d7bb51f2e OP_EQUALVERIFY OP_CHECKSIG",
            "hex": "76a91463096edffd7ee0f7b6abd54e21e3450d7bb51f2e88ac",
            "reqSigs": 1,
            "type": "pubkeyhash",
            "addresses": [
              "LUFcTdNR9R2PjrBVfumCmp7UGugoG4ffkS"
            ]
          }
        }
      ],
      "hex": "0100000001c9491fb82e41f5319f77dae82784ee86860b5999b8d01c9a87a8bf604e9e5357000000006a473044022003ca67622108ca3d908f016f6d0d11aa7757e7855c02fff04ea7fbfd09a8411402204fd9c28eab3f89bc9dc3fa371f4a777ab1b01a77574a880694321121208641b8012102a2e7416b274f98f2cfab3c1614ab730db38cb46a8b3e499a0224aaf334c5352affffffff025dde7303000000001976a914ac119e9854aceff8a721ace957a6470046dab22788ac64694c57010000001976a91463096edffd7ee0f7b6abd54e21e3450d7bb51f2e88ac00000000"
    }, 
    {
      "txid": "ccd15a1a8cd035ee9e5638c066f6dac4134f9cce57c2c1ac881731a176d6c540",
      "hash": "ccd15a1a8cd035ee9e5638c066f6dac4134f9cce57c2c1ac881731a176d6c540",
      "version": 1,
      "size": 226,
      "vsize": 226,
      "locktime": 0,
      "vin": [
        {
          "txid": "f9e5d56d75e8a3edaba6d877bec3f82589dcacd0c77de3cae55a4afb1eaf6d79",
          "vout": 1,
          "scriptSig": {
            "asm": "3045022100b2f68823f6f234f31fac2f581de2ee7b94a1050486b6fa35c61346a9d749897202200d963fa86a180a19f618bd61165b4fca64318f733b66614be22dfec72da04669[ALL] 036f05847e2acf3388aefe5a0c7dc6cb2ef4d077f5dc326c79074a9c26df28db57",
            "hex": "483045022100b2f68823f6f234f31fac2f581de2ee7b94a1050486b6fa35c61346a9d749897202200d963fa86a180a19f618bd61165b4fca64318f733b66614be22dfec72da046690121036f05847e2acf3388aefe5a0c7dc6cb2ef4d077f5dc326c79074a9c26df28db57"
          },
          "sequence": 4294967295
        }
      ],
      "vout": [
        {
          "value": 1.00382488,
          "n": 0,
          "scriptPubKey": {
            "asm": "OP_DUP OP_HASH160 9c602f21c37a6ac32a0fd9dd591eb4fb9baf0909 OP_EQUALVERIFY OP_CHECKSIG",
            "hex": "76a9149c602f21c37a6ac32a0fd9dd591eb4fb9baf090988ac",
            "reqSigs": 1,
            "type": "pubkeyhash",
            "addresses": [
              "LZUnu8MXcevbYWEE5ALGwEhFa1B9LmmXib"
            ]
          }
        }, 
        {
          "value": 57.00252393,
          "n": 1,
          "scriptPubKey": {
            "asm": "OP_DUP OP_HASH160 f2fe9c401e827600ccfa07373e9f199f7d73a4e7 OP_EQUALVERIFY OP_CHECKSIG",
            "hex": "76a914f2fe9c401e827600ccfa07373e9f199f7d73a4e788ac",
            "reqSigs": 1,
            "type": "pubkeyhash",
            "addresses": [
              "LhNnoGpC2SCEqutuFNoyWPrHntfLYu2ehn"
            ]
          }
        }
      ],
      "hex": "0100000001796daf1efb4a5ae5cae37dc7d0acdc8925f8c3be77d8a6abeda3e8756dd5e5f9010000006b483045022100b2f68823f6f234f31fac2f581de2ee7b94a1050486b6fa35c61346a9d749897202200d963fa86a180a19f618bd61165b4fca64318f733b66614be22dfec72da046690121036f05847e2acf3388aefe5a0c7dc6cb2ef4d077f5dc326c79074a9c26df28db57ffffffff0218b7fb05000000001976a9149c602f21c37a6ac32a0fd9dd591eb4fb9baf090988ace9f2c253010000001976a914f2fe9c401e827600ccfa07373e9f199f7d73a4e788ac00000000"
    }, 
    {
      "txid": "8b99025d111f210344672fe01f55fb2bee87baa585d450a3e4a3b014d2f8dbac",
      "hash": "8b99025d111f210344672fe01f55fb2bee87baa585d450a3e4a3b014d2f8dbac",
      "version": 2,
      "size": 374,
      "vsize": 374,
      "locktime": 1357344,
      "vin": [
        {
          "txid": "2657b5f426692039acd93937ac20a29cf66d75701600dfbf86f8627124aff3cc",
          "vout": 0,
          "scriptSig": {
            "asm": "30450221009962699a31431c2cc2a4f31d167a7d1b397defba37bd4f1596731990515186fa0220644aa72e0f1cdd9f0b3a27d835a7d92c050f14da162f37d1904e526b6e31ed56[ALL] 035a8bf4cce45c8b83be6a0c53dbaba331ca2a5dfc78814dc8b79d2b606dff70c4",
            "hex": "4830450221009962699a31431c2cc2a4f31d167a7d1b397defba37bd4f1596731990515186fa0220644aa72e0f1cdd9f0b3a27d835a7d92c050f14da162f37d1904e526b6e31ed560121035a8bf4cce45c8b83be6a0c53dbaba331ca2a5dfc78814dc8b79d2b606dff70c4"
          },
          "sequence": 4294967294
        }, 
        {
          "txid": "30f8398cc7bc71278544bbbab1bdd34399e84a18209a0e656b939c8204bfdf12",
          "vout": 0,
          "scriptSig": {
            "asm": "3045022100d3907f86e16c8cd6cae5ffa2738f927ec48a1e25e6bddb5ecfbdcf353e1134cc022066ced4d38f014c6a4e73e0063cd84db663645d495b1213358bad02cb01825e36[ALL] 02b3b702b661b5c1fa10e3c14bf25250d4b405ebd8778b8d3c84e67a90656e4bb4",
            "hex": "483045022100d3907f86e16c8cd6cae5ffa2738f927ec48a1e25e6bddb5ecfbdcf353e1134cc022066ced4d38f014c6a4e73e0063cd84db663645d495b1213358bad02cb01825e36012102b3b702b661b5c1fa10e3c14bf25250d4b405ebd8778b8d3c84e67a90656e4bb4"
          },
          "sequence": 4294967294
        }
      ],
      "vout": [
        {
          "value": 0.56328700,
          "n": 0,
          "scriptPubKey": {
            "asm": "OP_DUP OP_HASH160 e2814756dd7fe1a0c78418ea2184fa0d23a48bcc OP_EQUALVERIFY OP_CHECKSIG",
            "hex": "76a914e2814756dd7fe1a0c78418ea2184fa0d23a48bcc88ac",
            "reqSigs": 1,
            "type": "pubkeyhash",
            "addresses": [
              "Lfsbr1JmKUqfaSs6QsPrxABRArKwPqCm2T"
            ]
          }
        }, 
        {
          "value": 0.02082298,
          "n": 1,
          "scriptPubKey": {
            "asm": "OP_DUP OP_HASH160 6816d3fe58a58142d2a87107a65d5b72e86a661d OP_EQUALVERIFY OP_CHECKSIG",
            "hex": "76a9146816d3fe58a58142d2a87107a65d5b72e86a661d88ac",
            "reqSigs": 1,
            "type": "pubkeyhash",
            "addresses": [
              "LUiKtHdb88a46CdpvXk2wxzdpkMcUHPf7x"
            ]
          }
        }
      ],
      "hex": "0200000002ccf3af247162f886bfdf001670756df69ca220ac3739d9ac39206926f4b55726000000006b4830450221009962699a31431c2cc2a4f31d167a7d1b397defba37bd4f1596731990515186fa0220644aa72e0f1cdd9f0b3a27d835a7d92c050f14da162f37d1904e526b6e31ed560121035a8bf4cce45c8b83be6a0c53dbaba331ca2a5dfc78814dc8b79d2b606dff70c4feffffff12dfbf04829c936b650e9a20184ae89943d3bdb1babb44852771bcc78c39f830000000006b483045022100d3907f86e16c8cd6cae5ffa2738f927ec48a1e25e6bddb5ecfbdcf353e1134cc022066ced4d38f014c6a4e73e0063cd84db663645d495b1213358bad02cb01825e36012102b3b702b661b5c1fa10e3c14bf25250d4b405ebd8778b8d3c84e67a90656e4bb4feffffff02fc815b03000000001976a914e2814756dd7fe1a0c78418ea2184fa0d23a48bcc88acfac51f00000000001976a9146816d3fe58a58142d2a87107a65d5b72e86a661d88ac20b61400"
    }, 
    {
      "txid": "f2b17d0ed176979da637df48011c74a3873f9890c9e5629af40cdcfae21811bc",
      "hash": "f2b17d0ed176979da637df48011c74a3873f9890c9e5629af40cdcfae21811bc",
      "version": 2,
      "size": 260,
      "vsize": 260,
      "locktime": 1357344,
      "vin": [
        {
          "txid": "dac3ac10f757211b910af6c20e7370cc24205f1557f40364cd72d50accc42b2b",
          "vout": 0,
          "scriptSig": {
            "asm": "3045022100d879aa759ef7a4d5ffa9cebdcee6c2c49c63b5716bf59e222c31ffcc373822cc02207f48840912211f7c9373a9ca644b4aa32f9c7b9585977ddc0bc209d198eac70d[ALL] 02bf6892eac0f637dcb1f844d81b0a676d6997bb17ccdec8f43b66feba94958ca3",
            "hex": "483045022100d879aa759ef7a4d5ffa9cebdcee6c2c49c63b5716bf59e222c31ffcc373822cc02207f48840912211f7c9373a9ca644b4aa32f9c7b9585977ddc0bc209d198eac70d012102bf6892eac0f637dcb1f844d81b0a676d6997bb17ccdec8f43b66feba94958ca3"
          },
          "sequence": 4294967294
        }
      ],
      "vout": [
        {
          "value": 21.32152797,
          "n": 0,
          "scriptPubKey": {
            "asm": "OP_DUP OP_HASH160 4744160fb9d73b9a3c2b93ce734668e6ad7bef9a OP_EQUALVERIFY OP_CHECKSIG",
            "hex": "76a9144744160fb9d73b9a3c2b93ce734668e6ad7bef9a88ac",
            "reqSigs": 1,
            "type": "pubkeyhash",
            "addresses": [
              "LRimoYUeVBQxyxkpKxwzw5tLMmeeUBUotH"
            ]
          }
        }, 
        {
          "value": 0.05539967,
          "n": 1,
          "scriptPubKey": {
            "asm": "OP_DUP OP_HASH160 9a450773e55e95fa238646d9941258e4309b8626 OP_EQUALVERIFY OP_CHECKSIG",
            "hex": "76a9149a450773e55e95fa238646d9941258e4309b862688ac",
            "reqSigs": 1,
            "type": "pubkeyhash",
            "addresses": [
              "LZHf1ytgGensLzPs1Ed8SwLJQzJps7rtby"
            ]
          }
        }, 
        {
          "value": 0.13828049,
          "n": 2,
          "scriptPubKey": {
            "asm": "OP_DUP OP_HASH160 4346ab0a84eea14a9bcc4ad77ef697de93b32624 OP_EQUALVERIFY OP_CHECKSIG",
            "hex": "76a9144346ab0a84eea14a9bcc4ad77ef697de93b3262488ac",
            "reqSigs": 1,
            "type": "pubkeyhash",
            "addresses": [
              "LRMgCB1QmuXitwqtHafkBN4RkCGLJt14PD"
            ]
          }
        }
      ],
      "hex": "02000000012b2bc4cc0ad572cd6403f457155f2024cc70730ec2f60a911b2157f710acc3da000000006b483045022100d879aa759ef7a4d5ffa9cebdcee6c2c49c63b5716bf59e222c31ffcc373822cc02207f48840912211f7c9373a9ca644b4aa32f9c7b9585977ddc0bc209d198eac70d012102bf6892eac0f637dcb1f844d81b0a676d6997bb17ccdec8f43b66feba94958ca3feffffff03dd11167f000000001976a9144744160fb9d73b9a3c2b93ce734668e6ad7bef9a88ac7f885400000000001976a9149a450773e55e95fa238646d9941258e4309b862688acd1ffd200000000001976a9144346ab0a84eea14a9bcc4ad77ef697de93b3262488ac20b61400"
    }, 
    {
      "txid": "bf7ab98be1f3e3253d5d5eab0c23388c8eb07641cc7eddf4d95f8d0d8d7c6cd0",
      "hash": "bf7ab98be1f3e3253d5d5eab0c23388c8eb07641cc7eddf4d95f8d0d8d7c6cd0",
      "version": 1,
      "size": 226,
      "vsize": 226,
      "locktime": 0,
      "vin": [
        {
          "txid": "f7dcdfdfd56c4f394c4c4d5ccb245b2e0cdd8a23041d726700ea290c51b9a00b",
          "vout": 0,
          "scriptSig": {
            "asm": "3045022100a35f23294a2161b8d2fb0079557a98b939b089e557aadbfd49924d937efe5b74022034c5feeca9b1f51b1765456f0af32be594d911ab14496a087adcf9407d2364e7[ALL] 02852ded81c9f98e99783d7f5e1364a14cb65a98761c6f3a72068de34d90972c82",
            "hex": "483045022100a35f23294a2161b8d2fb0079557a98b939b089e557aadbfd49924d937efe5b74022034c5feeca9b1f51b1765456f0af32be594d911ab14496a087adcf9407d2364e7012102852ded81c9f98e99783d7f5e1364a14cb65a98761c6f3a72068de34d90972c82"
          },
          "sequence": 4294967295
        }
      ],
      "vout": [
        {
          "value": 58.09966973,
          "n": 0,
          "scriptPubKey": {
            "asm": "OP_DUP OP_HASH160 32d05df3cf8196a439b4b5dccc34a037045c36f0 OP_EQUALVERIFY OP_CHECKSIG",
            "hex": "76a91432d05df3cf8196a439b4b5dccc34a037045c36f088ac",
            "reqSigs": 1,
            "type": "pubkeyhash",
            "addresses": [
              "LPrdfQ1ojJmdyiXH9mh7rHbzmcE66HZBKV"
            ]
          }
        }, 
        {
          "value": 2.07364194,
          "n": 1,
          "scriptPubKey": {
            "asm": "OP_DUP OP_HASH160 afed51bab5ee5c0b9ce717b9fd9865864a7b4962 OP_EQUALVERIFY OP_CHECKSIG",
            "hex": "76a914afed51bab5ee5c0b9ce717b9fd9865864a7b496288ac",
            "reqSigs": 1,
            "type": "pubkeyhash",
            "addresses": [
              "LbGAp1nF2pdoB3XDe2QMpsVwXvF7r1kkUJ"
            ]
          }
        }
      ],
      "hex": "01000000010ba0b9510c29ea0067721d04238add0c2e5b24cb5c4d4c4c394f6cd5dfdfdcf7000000006b483045022100a35f23294a2161b8d2fb0079557a98b939b089e557aadbfd49924d937efe5b74022034c5feeca9b1f51b1765456f0af32be594d911ab14496a087adcf9407d2364e7012102852ded81c9f98e99783d7f5e1364a14cb65a98761c6f3a72068de34d90972c82ffffffff027d0f4d5a010000001976a91432d05df3cf8196a439b4b5dccc34a037045c36f088ac62205c0c000000001976a914afed51bab5ee5c0b9ce717b9fd9865864a7b496288ac00000000"
    }
  ],
  "time": 1516993166,
  "mediantime": 1516992458,
  "nonce": 2063892999,
  "bits": "1a047f14",
  "difficulty": 3731199.183374282,
  "chainwork": "000000000000000000000000000000000000000000000032250f1ead005ac68e",
  "previousblockhash": "54c533a9d2c5ad2453cbf47e980cc96b0aff3332f7b7b26da959279e3bf1450a",
  "nextblockhash": "fca3e15c1f5f8fd3b289bc32405910d2bdba010c97424f5d43b299b69ba41654"
}
