{
  "hash": "6d02bb903ef80315d7155de624977c2be88c976ac5e7a480fbe75ca675078b7b",
  "confirmations": 2493,
  "strippedsize": 2600,
  "size": 2636,
  "weight": 10436,
  "height": 1358502,
  "version": 536870912,
  "versionHex": "20000000",
  "merkleroot": "f2160a5d3205c5730eba161a1cc5ab8bb327813c876949abdf7695286c5918dd",
  "tx": [
    {
      "txid": "4aae63679b1e6d66afd782da6b64d3fafc99ec4d8082cc16f6af20d1099b3c4e",
      "hash": "5822b3c6d2052a8f19c03dffe7c23c0fa4a49cf400f1a8a70671b65cbd864c49",
      "version": 1,
      "size": 244,
      "vsize": 217,
      "locktime": 0,
      "vin": [
        {
          "coinbase": "03a6ba14045ee36d5a08056689080d000000fabe6d6d768ac0ac1f5585e3fc4af7daa0b54281ff9e91d509ad517007226f08ef8b748840000000000000000d2f6e6f64655374726174756d2f",
          "sequence": 0
        }
      ],
      "vout": [
        {
          "value": 25.01379913,
          "n": 0,
          "scriptPubKey": {
            "asm": "OP_DUP OP_HASH160 0c617fdb2ea42aed30a509595ee21ba3f6688db0 OP_EQUALVERIFY OP_CHECKSIG",
            "hex": "76a9140c617fdb2ea42aed30a509595ee21ba3f6688db088ac",
            "reqSigs": 1,
            "type": "pubkeyhash",
            "addresses": [
              "LLMRAtr3qBje2ySEa3CnZ55LA4TQMWnRY3"
            ]
          }
        }, 
        {
          "value": 0.00000000,
          "n": 1,
          "scriptPubKey": {
            "asm": "OP_RETURN aa21a9edead4ccdb3101e78966223ecfb6bd8ae760f1901866ede819e064f279818ef543",
            "hex": "6a24aa21a9edead4ccdb3101e78966223ecfb6bd8ae760f1901866ede819e064f279818ef543",
            "type": "nulldata"
          }
        }
      ],
      "hex": "010000000001010000000000000000000000000000000000000000000000000000000000000000ffffffff4c03a6ba14045ee36d5a08056689080d000000fabe6d6d768ac0ac1f5585e3fc4af7daa0b54281ff9e91d509ad517007226f08ef8b748840000000000000000d2f6e6f64655374726174756d2f000000000249071895000000001976a9140c617fdb2ea42aed30a509595ee21ba3f6688db088ac0000000000000000266a24aa21a9edead4ccdb3101e78966223ecfb6bd8ae760f1901866ede819e064f279818ef5430120000000000000000000000000000000000000000000000000000000000000000000000000"
    }, 
    {
      "txid": "693f5006d8d812baa96aec418acfa80fcfe401dff0e2bb5d798c687d78c5ade4",
      "hash": "693f5006d8d812baa96aec418acfa80fcfe401dff0e2bb5d798c687d78c5ade4",
      "version": 1,
      "size": 437,
      "vsize": 437,
      "locktime": 0,
      "vin": [
        {
          "txid": "7c41ef87dc272ea3c4d6e9b64583dee6e4b25ad79c9afa736e6768302b6fcab1",
          "vout": 2,
          "scriptSig": {
            "asm": "0 304402205feadb6176a224e378baafc38157a800ce315cdb71921bc6dec38c5fb16b3bc0022049ed23521d95bbd8cb2c5993e77bbf64f7df5e88236b1ec6afae833d665931b4[ALL] 30440220247bba293b26c0f5667881aad1591475c20e33c89c2c6616784b3fd926225c5b0220761e84343d3eb47386febab54634eccc1a4cf9b3e0e36d37fc8340d56b608260[ALL] 5221022cd45814a12f1c5db1dafb2a55dc0a1efada834a8f3eeefff5187567990e7ad821028baa71eb29b20ebec0c192c142c87b03b67a7d36de6abf3fac4f1f6d4ed7be132103cd6a07f54df4bef46a2d9c098bd582c9001853f6c1e7aaffa8dba0beb97cace153ae",
            "hex": "0047304402205feadb6176a224e378baafc38157a800ce315cdb71921bc6dec38c5fb16b3bc0022049ed23521d95bbd8cb2c5993e77bbf64f7df5e88236b1ec6afae833d665931b4014730440220247bba293b26c0f5667881aad1591475c20e33c89c2c6616784b3fd926225c5b0220761e84343d3eb47386febab54634eccc1a4cf9b3e0e36d37fc8340d56b608260014c695221022cd45814a12f1c5db1dafb2a55dc0a1efada834a8f3eeefff5187567990e7ad821028baa71eb29b20ebec0c192c142c87b03b67a7d36de6abf3fac4f1f6d4ed7be132103cd6a07f54df4bef46a2d9c098bd582c9001853f6c1e7aaffa8dba0beb97cace153ae"
          },
          "sequence": 4294967295
        }
      ],
      "vout": [
        {
          "value": 114.55387689,
          "n": 0,
          "scriptPubKey": {
            "asm": "OP_HASH160 14c24d4b4667644820a304804e8f23caa5a217e9 OP_EQUAL",
            "hex": "a91414c24d4b4667644820a304804e8f23caa5a217e987",
            "reqSigs": 1,
            "type": "scripthash",
            "addresses": [
              "M9nvWbqu9CXpuA9DdW1GJQxox7ofuPrzBG"
            ]
          }
        }, 
        {
          "value": 8.62424308,
          "n": 1,
          "scriptPubKey": {
            "asm": "OP_DUP OP_HASH160 73182a5e5d7abae28b9d68b8bdf5c5e0e6e0d140 OP_EQUALVERIFY OP_CHECKSIG",
            "hex": "76a91473182a5e5d7abae28b9d68b8bdf5c5e0e6e0d14088ac",
            "reqSigs": 1,
            "type": "pubkeyhash",
            "addresses": [
              "LViWvKdeCp1MMS5jTy6AyWpN3bPxTkwAxt"
            ]
          }
        }, 
        {
          "value": 0.66316559,
          "n": 2,
          "scriptPubKey": {
            "asm": "OP_DUP OP_HASH160 0beb9724e41d02e469082af167512f5fe0ae405b OP_EQUALVERIFY OP_CHECKSIG",
            "hex": "76a9140beb9724e41d02e469082af167512f5fe0ae405b88ac",
            "reqSigs": 1,
            "type": "pubkeyhash",
            "addresses": [
              "LLJyvRz4dDgSwsgeiqM649wKS93EWMqCB7"
            ]
          }
        }, 
        {
          "value": 1.79914792,
          "n": 3,
          "scriptPubKey": {
            "asm": "OP_DUP OP_HASH160 43397a1a1e528361f853d8bfd06fd2046151894d OP_EQUALVERIFY OP_CHECKSIG",
            "hex": "76a91443397a1a1e528361f853d8bfd06fd2046151894d88ac",
            "reqSigs": 1,
            "type": "pubkeyhash",
            "addresses": [
              "LRMQPdn7Pghj8FBoKKT4rHDJdKizQ5o5fX"
            ]
          }
        }
      ],
      "hex": "0100000001b1ca6f2b3068676e73fa9a9cd75ab2e4e6de8345b6e9d6c4a32e27dc87ef417c02000000fc0047304402205feadb6176a224e378baafc38157a800ce315cdb71921bc6dec38c5fb16b3bc0022049ed23521d95bbd8cb2c5993e77bbf64f7df5e88236b1ec6afae833d665931b4014730440220247bba293b26c0f5667881aad1591475c20e33c89c2c6616784b3fd926225c5b0220761e84343d3eb47386febab54634eccc1a4cf9b3e0e36d37fc8340d56b608260014c695221022cd45814a12f1c5db1dafb2a55dc0a1efada834a8f3eeefff5187567990e7ad821028baa71eb29b20ebec0c192c142c87b03b67a7d36de6abf3fac4f1f6d4ed7be132103cd6a07f54df4bef46a2d9c098bd582c9001853f6c1e7aaffa8dba0beb97cace153aeffffffff042958cbaa0200000017a91414c24d4b4667644820a304804e8f23caa5a217e987f48c6733000000001976a91473182a5e5d7abae28b9d68b8bdf5c5e0e6e0d14088ac0fe9f303000000001976a9140beb9724e41d02e469082af167512f5fe0ae405b88ac2848b90a000000001976a91443397a1a1e528361f853d8bfd06fd2046151894d88ac00000000"
    }, 
    {
      "txid": "323cb982cbf09816dc28b36d80c7a19278cdca76a6e08d4d992940fc2be7a06e",
      "hash": "323cb982cbf09816dc28b36d80c7a19278cdca76a6e08d4d992940fc2be7a06e",
      "version": 1,
      "size": 226,
      "vsize": 226,
      "locktime": 0,
      "vin": [
        {
          "txid": "8ec7f466bfc6843687d735b9258f2620bf4bb0b7840e93da609c4e4029d6b16d",
          "vout": 0,
          "scriptSig": {
            "asm": "3045022100910c630a7486348503e62c6c043ccffcf07ff2e12c141a86db384edc1fa1ea90022062d439bd5b8971d8dd87a477f7c799161ab3ebd78e77b479cbf130196ac7eca3[ALL] 039a0fe61592fb15144a627c8c2c7d0388f7f717e54dba26713db164114608a396",
            "hex": "483045022100910c630a7486348503e62c6c043ccffcf07ff2e12c141a86db384edc1fa1ea90022062d439bd5b8971d8dd87a477f7c799161ab3ebd78e77b479cbf130196ac7eca30121039a0fe61592fb15144a627c8c2c7d0388f7f717e54dba26713db164114608a396"
          },
          "sequence": 4294967295
        }
      ],
      "vout": [
        {
          "value": 0.00322900,
          "n": 0,
          "scriptPubKey": {
            "asm": "OP_DUP OP_HASH160 42a4cb802e9b0e0b4a872f68710e7ed9c9d99aa8 OP_EQUALVERIFY OP_CHECKSIG",
            "hex": "76a91442a4cb802e9b0e0b4a872f68710e7ed9c9d99aa888ac",
            "reqSigs": 1,
            "type": "pubkeyhash",
            "addresses": [
              "LRJLH2TT36237FUZnDqbMJAizrTg7nUedG"
            ]
          }
        }, 
        {
          "value": 0.93138287,
          "n": 1,
          "scriptPubKey": {
            "asm": "OP_DUP OP_HASH160 d6609b1da832a810a73151a74845be628effa28c OP_EQUALVERIFY OP_CHECKSIG",
            "hex": "76a914d6609b1da832a810a73151a74845be628effa28c88ac",
            "reqSigs": 1,
            "type": "pubkeyhash",
            "addresses": [
              "LemUbZYB8vWeGf4i4HuPP52TQjswbP74cd"
            ]
          }
        }
      ],
      "hex": "01000000016db1d629404e9c60da930e84b7b04bbf20268f25b935d7873684c6bf66f4c78e000000006b483045022100910c630a7486348503e62c6c043ccffcf07ff2e12c141a86db384edc1fa1ea90022062d439bd5b8971d8dd87a477f7c799161ab3ebd78e77b479cbf130196ac7eca30121039a0fe61592fb15144a627c8c2c7d0388f7f717e54dba26713db164114608a396ffffffff0254ed0400000000001976a91442a4cb802e9b0e0b4a872f68710e7ed9c9d99aa888ac6f2d8d05000000001976a914d6609b1da832a810a73151a74845be628effa28c88ac00000000"
    }, 
    {
      "txid": "f7e8007488238a12c83a889b422df6e8dfcb57455a59e8556bd4040013294d8f",
      "hash": "f7e8007488238a12c83a889b422df6e8dfcb57455a59e8556bd4040013294d8f",
      "version": 2,
      "size": 226,
      "vsize": 226,
      "locktime": 1358500,
      "vin": [
        {
          "txid": "97d91bc0bbdd79773eaeeaa6f9fdfbee0b17f63b4ea22293d2de16d7df035bf3",
          "vout": 1,
          "scriptSig": {
            "asm": "304502210090ff6693e9b6fff3ebdb3ab9ab168716cb31e68ae8aa74f31e08e111bcd1eec602206b07323ec7855eb63d7951f330d589b5f5147680d12f32a97c59105174358456[ALL] 02c05c0724150fd8d36bab10b42759644987bbdb9941ca35f3d5d15b41587104b8",
            "hex": "48304502210090ff6693e9b6fff3ebdb3ab9ab168716cb31e68ae8aa74f31e08e111bcd1eec602206b07323ec7855eb63d7951f330d589b5f5147680d12f32a97c59105174358456012102c05c0724150fd8d36bab10b42759644987bbdb9941ca35f3d5d15b41587104b8"
          },
          "sequence": 4294967294
        }
      ],
      "vout": [
        {
          "value": 0.32278535,
          "n": 0,
          "scriptPubKey": {
            "asm": "OP_DUP OP_HASH160 383b6c8a79b76e2051ef15314b0ce710e58bdf59 OP_EQUALVERIFY OP_CHECKSIG",
            "hex": "76a914383b6c8a79b76e2051ef15314b0ce710e58bdf5988ac",
            "reqSigs": 1,
            "type": "pubkeyhash",
            "addresses": [
              "LQMHHojbvst5ywaNbbKnbAAtPGwBdZArtj"
            ]
          }
        }, 
        {
          "value": 0.07736911,
          "n": 1,
          "scriptPubKey": {
            "asm": "OP_DUP OP_HASH160 3f35466f0c77850a04c3ce5b5041fbb3f2c16826 OP_EQUALVERIFY OP_CHECKSIG",
            "hex": "76a9143f35466f0c77850a04c3ce5b5041fbb3f2c1682688ac",
            "reqSigs": 1,
            "type": "pubkeyhash",
            "addresses": [
              "LQzAevH6BGyu2QDRtYL3kKHzUkJZjdsmP9"
            ]
          }
        }
      ],
      "hex": "0200000001f35b03dfd716ded29322a24e3bf6170beefbfdf9a6eaae3e7779ddbbc01bd997010000006b48304502210090ff6693e9b6fff3ebdb3ab9ab168716cb31e68ae8aa74f31e08e111bcd1eec602206b07323ec7855eb63d7951f330d589b5f5147680d12f32a97c59105174358456012102c05c0724150fd8d36bab10b42759644987bbdb9941ca35f3d5d15b41587104b8feffffff020788ec01000000001976a914383b6c8a79b76e2051ef15314b0ce710e58bdf5988ac4f0e7600000000001976a9143f35466f0c77850a04c3ce5b5041fbb3f2c1682688aca4ba1400"
    }, 
    {
      "txid": "4914564e30c4c967746ba6ad8880093f181193b0a3cf4ee7e74c91b4e7ea430e",
      "hash": "4914564e30c4c967746ba6ad8880093f181193b0a3cf4ee7e74c91b4e7ea430e",
      "version": 1,
      "size": 225,
      "vsize": 225,
      "locktime": 0,
      "vin": [
        {
          "txid": "687827fd83b2edf7ae202803d3be370d8dbd41ebea6b8ed008d86ab64c9704b3",
          "vout": 255,
          "scriptSig": {
            "asm": "3044022011209095a6e7ffc133ac6e328c21d2ba20f4f4a092439a11e60de72c099d6974022074dd7ea8b6a4d3f76cbaa48aa95241d75fe9d756303d01bd0d469e801a6e49ea[ALL] 03d8f86bbfb6ae9875690a37298dbafe0f5d115d109a646e61f149f3f67d7ac01e",
            "hex": "473044022011209095a6e7ffc133ac6e328c21d2ba20f4f4a092439a11e60de72c099d6974022074dd7ea8b6a4d3f76cbaa48aa95241d75fe9d756303d01bd0d469e801a6e49ea012103d8f86bbfb6ae9875690a37298dbafe0f5d115d109a646e61f149f3f67d7ac01e"
          },
          "sequence": 4294967295
        }
      ],
      "vout": [
        {
          "value": 0.13669800,
          "n": 0,
          "scriptPubKey": {
            "asm": "OP_DUP OP_HASH160 0837e879c19438c6fb8aaa6a14c4437ff7751d91 OP_EQUALVERIFY OP_CHECKSIG",
            "hex": "76a9140837e879c19438c6fb8aaa6a14c4437ff7751d9188ac",
            "reqSigs": 1,
            "type": "pubkeyhash",
            "addresses": [
              "LKyQeJzmFQrYxDPrna8X887Vn9ugh1NGnq"
            ]
          }
        }, 
        {
          "value": 0.00077122,
          "n": 1,
          "scriptPubKey": {
            "asm": "OP_DUP OP_HASH160 681c50c07e9c15e0f989a2a5a6aca1a1f62e5621 OP_EQUALVERIFY OP_CHECKSIG",
            "hex": "76a914681c50c07e9c15e0f989a2a5a6aca1a1f62e562188ac",
            "reqSigs": 1,
            "type": "pubkeyhash",
            "addresses": [
              "LUiSTZ7QpjoUmT3u1RZqxm9sZTt7CwVSU2"
            ]
          }
        }
      ],
      "hex": "0100000001b304974cb66ad808d08e6beaeb41bd8d0d37bed3032820aef7edb283fd277868ff0000006a473044022011209095a6e7ffc133ac6e328c21d2ba20f4f4a092439a11e60de72c099d6974022074dd7ea8b6a4d3f76cbaa48aa95241d75fe9d756303d01bd0d469e801a6e49ea012103d8f86bbfb6ae9875690a37298dbafe0f5d115d109a646e61f149f3f67d7ac01effffffff02a895d000000000001976a9140837e879c19438c6fb8aaa6a14c4437ff7751d9188ac422d0100000000001976a914681c50c07e9c15e0f989a2a5a6aca1a1f62e562188ac00000000"
    }, 
    {
      "txid": "fb7a1fc85ded24eb72a5f43df159053ef9ec14b00c6c93a19eecd05d825aed34",
      "hash": "fb7a1fc85ded24eb72a5f43df159053ef9ec14b00c6c93a19eecd05d825aed34",
      "version": 1,
      "size": 225,
      "vsize": 225,
      "locktime": 0,
      "vin": [
        {
          "txid": "03f6e6068ff33b3f2b8dadcd33253aafe0ddfb71adeab7f3f1c3561774b3172a",
          "vout": 1,
          "scriptSig": {
            "asm": "304402204e7e0757490d95abb939b1f59d5babedacb2c7f0d7ad77dc44c07b163d4474ea022058d960c74831dbf77fbec8bde024ec5eae6991a5ca71b49e08c932a6c1e3d608[ALL] 038fc88bc0a6e80a692d853118057c39107170dba3619fc628358771168265e93b",
            "hex": "47304402204e7e0757490d95abb939b1f59d5babedacb2c7f0d7ad77dc44c07b163d4474ea022058d960c74831dbf77fbec8bde024ec5eae6991a5ca71b49e08c932a6c1e3d6080121038fc88bc0a6e80a692d853118057c39107170dba3619fc628358771168265e93b"
          },
          "sequence": 4294967295
        }
      ],
      "vout": [
        {
          "value": 0.32699848,
          "n": 0,
          "scriptPubKey": {
            "asm": "OP_DUP OP_HASH160 7dcaa09217d9d154fbe2752d2447ab6e1d27b485 OP_EQUALVERIFY OP_CHECKSIG",
            "hex": "76a9147dcaa09217d9d154fbe2752d2447ab6e1d27b48588ac",
            "reqSigs": 1,
            "type": "pubkeyhash",
            "addresses": [
              "LWh5TyhzMWX59kCVAUbxLXSdrungCiaH2s"
            ]
          }
        }, 
        {
          "value": 2.05000928,
          "n": 1,
          "scriptPubKey": {
            "asm": "OP_DUP OP_HASH160 50f61a98a88f40670a11c085c0d24235fec52901 OP_EQUALVERIFY OP_CHECKSIG",
            "hex": "76a91450f61a98a88f40670a11c085c0d24235fec5290188ac",
            "reqSigs": 1,
            "type": "pubkeyhash",
            "addresses": [
              "LSc39A6XKve4qcurvsVUFTYTpCTKMkcQKk"
            ]
          }
        }
      ],
      "hex": "01000000012a17b3741756c3f1f3b7eaad71fbdde0af3a2533cdad8d2b3f3bf38f06e6f603010000006a47304402204e7e0757490d95abb939b1f59d5babedacb2c7f0d7ad77dc44c07b163d4474ea022058d960c74831dbf77fbec8bde024ec5eae6991a5ca71b49e08c932a6c1e3d6080121038fc88bc0a6e80a692d853118057c39107170dba3619fc628358771168265e93bffffffff02c8f5f201000000001976a9147dcaa09217d9d154fbe2752d2447ab6e1d27b48588ace010380c000000001976a91450f61a98a88f40670a11c085c0d24235fec5290188ac00000000"
    }, 
    {
      "txid": "7152e279bb9d116aeb6d2cac80f7f9f9cc0bce4578c5f83cadcf52a64e8673dc",
      "hash": "7152e279bb9d116aeb6d2cac80f7f9f9cc0bce4578c5f83cadcf52a64e8673dc",
      "version": 2,
      "size": 225,
      "vsize": 225,
      "locktime": 1358499,
      "vin": [
        {
          "txid": "8dea5c099b4df0d4fdde27ac80ef67f66f931d97a596b2609c6585f04272f104",
          "vout": 1,
          "scriptSig": {
            "asm": "304402206164080ef8e4a9576789432b8aca10bf96af891d5a9e7e34af53cd8b31b8e6f402205e87a67003875fdefccabdc1e2f4c13551f484d3f0b046ebebdeef5fc7c69d79[ALL] 039b340f05b9c186f07f55f2e4a50d3e3bbf00f0f28279b6826a1e21856dced5f0",
            "hex": "47304402206164080ef8e4a9576789432b8aca10bf96af891d5a9e7e34af53cd8b31b8e6f402205e87a67003875fdefccabdc1e2f4c13551f484d3f0b046ebebdeef5fc7c69d790121039b340f05b9c186f07f55f2e4a50d3e3bbf00f0f28279b6826a1e21856dced5f0"
          },
          "sequence": 4294967294
        }
      ],
      "vout": [
        {
          "value": 36.58904049,
          "n": 0,
          "scriptPubKey": {
            "asm": "OP_DUP OP_HASH160 430d27435b0f276b2b1890c7543e9ddc10003a80 OP_EQUALVERIFY OP_CHECKSIG",
            "hex": "76a914430d27435b0f276b2b1890c7543e9ddc10003a8088ac",
            "reqSigs": 1,
            "type": "pubkeyhash",
            "addresses": [
              "LRLVHyfznxYNsKm7BVEx9teXWKwXp4k1Qn"
            ]
          }
        }, 
        {
          "value": 0.79396038,
          "n": 1,
          "scriptPubKey": {
            "asm": "OP_DUP OP_HASH160 5057ed94cf435e0074714af016a6cda0d4d1bebe OP_EQUALVERIFY OP_CHECKSIG",
            "hex": "76a9145057ed94cf435e0074714af016a6cda0d4d1bebe88ac",
            "reqSigs": 1,
            "type": "pubkeyhash",
            "addresses": [
              "LSYmeubQkQFo1x9vnSvy9bwNn34fkuZ43j"
            ]
          }
        }
      ],
      "hex": "020000000104f17242f085659c60b296a5971d936ff667ef80ac27defdd4f04d9b095cea8d010000006a47304402206164080ef8e4a9576789432b8aca10bf96af891d5a9e7e34af53cd8b31b8e6f402205e87a67003875fdefccabdc1e2f4c13551f484d3f0b046ebebdeef5fc7c69d790121039b340f05b9c186f07f55f2e4a50d3e3bbf00f0f28279b6826a1e21856dced5f0feffffff02f17116da000000001976a914430d27435b0f276b2b1890c7543e9ddc10003a8088acc67cbb04000000001976a9145057ed94cf435e0074714af016a6cda0d4d1bebe88aca3ba1400"
    }, 
    {
      "txid": "ce4a1fc122e60bff51dee6c72232f35c0f6f2bf50c77b64877441cad22fc8e81",
      "hash": "ce4a1fc122e60bff51dee6c72232f35c0f6f2bf50c77b64877441cad22fc8e81",
      "version": 1,
      "size": 226,
      "vsize": 226,
      "locktime": 0,
      "vin": [
        {
          "txid": "0a04152e9bb30b3f4de5e614c9462c02780e207bb23808844df09edf2789087c",
          "vout": 1,
          "scriptSig": {
            "asm": "3045022100d969230b7bc7581a0ab70bb1c27a663a485bcb69ce3a83f618ac5768ea7bfea90220470103f51622cae9da44397f9907010c51eb9f8e4e1c2f94a8d7a92a2afd4b53[ALL] 0346a11977a95419567b4a35f3cbd73b498053ebfeeca6b721d765284ed1854dcb",
            "hex": "483045022100d969230b7bc7581a0ab70bb1c27a663a485bcb69ce3a83f618ac5768ea7bfea90220470103f51622cae9da44397f9907010c51eb9f8e4e1c2f94a8d7a92a2afd4b5301210346a11977a95419567b4a35f3cbd73b498053ebfeeca6b721d765284ed1854dcb"
          },
          "sequence": 4294967295
        }
      ],
      "vout": [
        {
          "value": 0.02734000,
          "n": 0,
          "scriptPubKey": {
            "asm": "OP_DUP OP_HASH160 d89be003ed0a17b52bc23039c69023d7bac84b3a OP_EQUALVERIFY OP_CHECKSIG",
            "hex": "76a914d89be003ed0a17b52bc23039c69023d7bac84b3a88ac",
            "reqSigs": 1,
            "type": "pubkeyhash",
            "addresses": [
              "LeyGx387sAsL3grQSzjE9HG1dQvSo4nQSc"
            ]
          }
        }, 
        {
          "value": 0.00148589,
          "n": 1,
          "scriptPubKey": {
            "asm": "OP_DUP OP_HASH160 160673b13abfe6dccd404f7ac316a55547a271e7 OP_EQUALVERIFY OP_CHECKSIG",
            "hex": "76a914160673b13abfe6dccd404f7ac316a55547a271e788ac",
            "reqSigs": 1,
            "type": "pubkeyhash",
            "addresses": [
              "LMEQriksh1XpqC4q6qwExuxGG55pDxUR66"
            ]
          }
        }
      ],
      "hex": "01000000017c088927df9ef04d840838b27b200e78022c46c914e6e54d3f0bb39b2e15040a010000006b483045022100d969230b7bc7581a0ab70bb1c27a663a485bcb69ce3a83f618ac5768ea7bfea90220470103f51622cae9da44397f9907010c51eb9f8e4e1c2f94a8d7a92a2afd4b5301210346a11977a95419567b4a35f3cbd73b498053ebfeeca6b721d765284ed1854dcbffffffff02b0b72900000000001976a914d89be003ed0a17b52bc23039c69023d7bac84b3a88ac6d440200000000001976a914160673b13abfe6dccd404f7ac316a55547a271e788ac00000000"
    }, 
    {
      "txid": "e4f397d74a263edee36f6d4d7a5d4122cb0d326e6e9399840f0a9a0d21897197",
      "hash": "e4f397d74a263edee36f6d4d7a5d4122cb0d326e6e9399840f0a9a0d21897197",
      "version": 1,
      "size": 521,
      "vsize": 521,
      "locktime": 1358500,
      "vin": [
        {
          "txid": "4f6d2f77f3e75cc4b842dd17ed99544317982b6f6bd5412a69a3b5760b4adda8",
          "vout": 1,
          "scriptSig": {
            "asm": "30440220118cbe08e9c14f2523d09e0178079b63c401c50dddceb154d341f6be605f5992022008615f6dd78ccdb27ca94f2cdf1d9acf85cdf50533b98d9faf253c4d08c2af50[ALL] 033ed715e38f45681f8828ad85649d73c0e75b1c3cbf56ba7c8a4bcf931518328e",
            "hex": "4730440220118cbe08e9c14f2523d09e0178079b63c401c50dddceb154d341f6be605f5992022008615f6dd78ccdb27ca94f2cdf1d9acf85cdf50533b98d9faf253c4d08c2af500121033ed715e38f45681f8828ad85649d73c0e75b1c3cbf56ba7c8a4bcf931518328e"
          },
          "sequence": 4294967294
        }, 
        {
          "txid": "d7cb3562c5e8ccbf1af61f8b259498fcf45421c926b2eec46f7c520d5e949eba",
          "vout": 0,
          "scriptSig": {
            "asm": "3045022100b4186d67ae53b0714e63780295cfb6cbfbf0fe7f5050be7e433b3dbd84976929022044ae34c4b3ba4bb43efc02f15602ad46e16275864539182b47f9a936142c8b11[ALL] 033ed715e38f45681f8828ad85649d73c0e75b1c3cbf56ba7c8a4bcf931518328e",
            "hex": "483045022100b4186d67ae53b0714e63780295cfb6cbfbf0fe7f5050be7e433b3dbd84976929022044ae34c4b3ba4bb43efc02f15602ad46e16275864539182b47f9a936142c8b110121033ed715e38f45681f8828ad85649d73c0e75b1c3cbf56ba7c8a4bcf931518328e"
          },
          "sequence": 4294967294
        }, 
        {
          "txid": "1f9853143119b4270b1b4c36abb6a1046ca14ffe886e13e65c1400f0b7bd5485",
          "vout": 1,
          "scriptSig": {
            "asm": "30450221008ee06ac1ba0aaaf7a18a16c23c05f1311ff1495b9ccc8ab06ea8a64ac3faf23d02203816de6cac1a4e34e06b388369c53e643ed432cbfbec432f5f54d3b367870c01[ALL] 03445b1db17bf63303f00b3b338f42eaa9751e9bb8aac31d5c2178609a3cae4f8f",
            "hex": "4830450221008ee06ac1ba0aaaf7a18a16c23c05f1311ff1495b9ccc8ab06ea8a64ac3faf23d02203816de6cac1a4e34e06b388369c53e643ed432cbfbec432f5f54d3b367870c01012103445b1db17bf63303f00b3b338f42eaa9751e9bb8aac31d5c2178609a3cae4f8f"
          },
          "sequence": 4294967294
        }
      ],
      "vout": [
        {
          "value": 0.01001160,
          "n": 0,
          "scriptPubKey": {
            "asm": "OP_DUP OP_HASH160 4fc8d2818401de5fb4cfeb07eff991c958b34c29 OP_EQUALVERIFY OP_CHECKSIG",
            "hex": "76a9144fc8d2818401de5fb4cfeb07eff991c958b34c2988ac",
            "reqSigs": 1,
            "type": "pubkeyhash",
            "addresses": [
              "LSVpDk9xNxhAXLZasJjN1Eyk9AX33iLvJx"
            ]
          }
        }, 
        {
          "value": 0.77214981,
          "n": 1,
          "scriptPubKey": {
            "asm": "OP_DUP OP_HASH160 a4ce0067a45381e53411bc4ed590aa426754ca67 OP_EQUALVERIFY OP_CHECKSIG",
            "hex": "76a914a4ce0067a45381e53411bc4ed590aa426754ca6788ac",
            "reqSigs": 1,
            "type": "pubkeyhash",
            "addresses": [
              "LaFMruxyoEvP74QWyd1kthJGc7MqjJDsPC"
            ]
          }
        }
      ],
      "hex": "0100000003a8dd4a0b76b5a3692a41d56b6f2b9817435499ed17dd42b8c45ce7f3772f6d4f010000006a4730440220118cbe08e9c14f2523d09e0178079b63c401c50dddceb154d341f6be605f5992022008615f6dd78ccdb27ca94f2cdf1d9acf85cdf50533b98d9faf253c4d08c2af500121033ed715e38f45681f8828ad85649d73c0e75b1c3cbf56ba7c8a4bcf931518328efeffffffba9e945e0d527c6fc4eeb226c92154f4fc9894258b1ff61abfcce8c56235cbd7000000006b483045022100b4186d67ae53b0714e63780295cfb6cbfbf0fe7f5050be7e433b3dbd84976929022044ae34c4b3ba4bb43efc02f15602ad46e16275864539182b47f9a936142c8b110121033ed715e38f45681f8828ad85649d73c0e75b1c3cbf56ba7c8a4bcf931518328efeffffff8554bdb7f000145ce6136e88fe4fa16c04a1b6ab364c1b0b27b419311453981f010000006b4830450221008ee06ac1ba0aaaf7a18a16c23c05f1311ff1495b9ccc8ab06ea8a64ac3faf23d02203816de6cac1a4e34e06b388369c53e643ed432cbfbec432f5f54d3b367870c01012103445b1db17bf63303f00b3b338f42eaa9751e9bb8aac31d5c2178609a3cae4f8ffeffffff02c8460f00000000001976a9144fc8d2818401de5fb4cfeb07eff991c958b34c2988ac05359a04000000001976a914a4ce0067a45381e53411bc4ed590aa426754ca6788aca4ba1400"
    }
  ],
  "time": 1517150981,
  "mediantime": 1517150746,
  "nonce": 2771584145,
  "bits": "1a047f14",
  "difficulty": 3731199.183374282,
  "chainwork": "0000000000000000000000000000000000000000000000332627581534d02bf6",
  "previousblockhash": "8d24761f4a9115f01bcd68cf999470ba562c2d503a863a8211523312cf7174e7",
  "nextblockhash": "bed2dd7b2fd7882409bdc062b094691b932a93d8eba7163eee8c55c31042b643"
}
