{
  "hash": "6dd27bc64c761ddfaaf6e0a2b0f85ce61e48e19e14418afc0dbdfc0014a8bd2a",
  "confirmations": 1891,
  "strippedsize": 234,
  "size": 234,
  "weight": 936,
  "height": 1359103,
  "version": 536870912,
  "versionHex": "20000000",
  "merkleroot": "b0622033f81896362406d804a06cd47670f1ec526698ce2f99fc9fc0a65d5592",
  "tx": [
    {
      "txid": "b0622033f81896362406d804a06cd47670f1ec526698ce2f99fc9fc0a65d5592",
      "hash": "b0622033f81896362406d804a06cd47670f1ec526698ce2f99fc9fc0a65d5592",
      "version": 1,
      "size": 153,
      "vsize": 153,
      "locktime": 0,
      "vin": [
        {
          "coinbase": "03ffbc14045a6f324d2cfabe6d6dcdd54685d071b242aa856bb2414fc1c580c3e650cf7e08c8af7b4b5a6789b3c84000000000000000042f4c502f085c0038b9e32c0000",
          "sequence": 4294967295
        }
      ],
      "vout": [
        {
          "value": 25.00000000,
          "n": 0,
          "scriptPubKey": {
            "asm": "OP_DUP OP_HASH160 57757ed2ecf2052ff3126c397aca7defb9ca2cec OP_EQUALVERIFY OP_CHECKSIG",
            "hex": "76a91457757ed2ecf2052ff3126c397aca7defb9ca2cec88ac",
            "reqSigs": 1,
            "type": "pubkeyhash",
            "addresses": [
              "LTCPodGk5FwcJaRzH9yKnwicxzFUbxp6tN"
            ]
          }
        }
      ],
      "hex": "01000000010000000000000000000000000000000000000000000000000000000000000000ffffffff4403ffbc14045a6f324d2cfabe6d6dcdd54685d071b242aa856bb2414fc1c580c3e650cf7e08c8af7b4b5a6789b3c84000000000000000042f4c502f085c0038b9e32c0000ffffffff0100f90295000000001976a91457757ed2ecf2052ff3126c397aca7defb9ca2cec88ac00000000"
    }
  ],
  "time": 1517236813,
  "mediantime": 1517236458,
  "nonce": 3594382533,
  "bits": "1a042eae",
  "difficulty": 4011378.762614286,
  "chainwork": "000000000000000000000000000000000000000000000033b12908a575f38700",
  "previousblockhash": "c420c1b9a7e70c8633cc6666aae0f3ab0c3f50146325642db0dc3ca10ab037dc",
  "nextblockhash": "85cb7c8dc51f206b007ce8dfa48246e8bbed43ef0dff16477119aba893120f3d"
}
