{
  "hash": "6e134299d1ee3e5c1cfe68e7538f151ce84141d97609dedab5fdb7b890e7821f",
  "confirmations": 3026,
  "strippedsize": 253,
  "size": 253,
  "weight": 1012,
  "height": 1357969,
  "version": 536870912,
  "versionHex": "20000000",
  "merkleroot": "c139446c5c34d94121921f3bcdae56c57823b1b1e047dd23cff521d0c5dcd0d7",
  "tx": [
    {
      "txid": "c139446c5c34d94121921f3bcdae56c57823b1b1e047dd23cff521d0c5dcd0d7",
      "hash": "c139446c5c34d94121921f3bcdae56c57823b1b1e047dd23cff521d0c5dcd0d7",
      "version": 1,
      "size": 172,
      "vsize": 172,
      "locktime": 0,
      "vin": [
        {
          "coinbase": "0391b8141a4d696e656420627920416e74506f6f6c20626a331f205a6caaabfabe6d6d20cab4e247f2add33b683cf785083f487fe32bfc10a1c45585414b152ffdaf640400000000000000452d00000000000010000000",
          "sequence": 4294967295
        }
      ],
      "vout": [
        {
          "value": 25.00000000,
          "n": 0,
          "scriptPubKey": {
            "asm": "OP_DUP OP_HASH160 0ff3ccc5e8be88afe24b5d634e5852d474dbdff1 OP_EQUALVERIFY OP_CHECKSIG",
            "hex": "76a9140ff3ccc5e8be88afe24b5d634e5852d474dbdff188ac",
            "reqSigs": 1,
            "type": "pubkeyhash",
            "addresses": [
              "LLgJTbzZMsRTCUF1NtvvL9SR1a4pVieW89"
            ]
          }
        }
      ],
      "hex": "01000000010000000000000000000000000000000000000000000000000000000000000000ffffffff570391b8141a4d696e656420627920416e74506f6f6c20626a331f205a6caaabfabe6d6d20cab4e247f2add33b683cf785083f487fe32bfc10a1c45585414b152ffdaf640400000000000000452d00000000000010000000ffffffff0100f90295000000001976a9140ff3ccc5e8be88afe24b5d634e5852d474dbdff188ac00000000"
    }
  ],
  "time": 1517071019,
  "mediantime": 1517070837,
  "nonce": 2787212955,
  "bits": "1a047f14",
  "difficulty": 3731199.183374282,
  "chainwork": "000000000000000000000000000000000000000000000032af9d483e67eb89d4",
  "previousblockhash": "62de86ca5476f435719411a4ccac723415452317a74f31d0aca7f090cb8fc3a0",
  "nextblockhash": "47b385c037dbb733809a25473f26879ec34de483eac0d1efb007ed41b418433f"
}
