{
  "hash": "6e23ee31ba42fefd82b2b261fd754cad7d35bb186baf4ac3b892a8a257ce6913",
  "confirmations": 3541,
  "strippedsize": 2206,
  "size": 2242,
  "weight": 8860,
  "height": 1357454,
  "version": 536870912,
  "versionHex": "20000000",
  "merkleroot": "88f3f3be769f08f56157f177028afa262dd651bbf39015e51032e804c37362a1",
  "tx": [
    {
      "txid": "73f0fcf3153e4999fc5ac1328c4c1b0f21ad2814dc0198d94bf44d22a818f310",
      "hash": "b05a28e597b16abaf7cf7c1bc5eefb7bb4005b47dd67352ee9c494a0d5f3fc90",
      "version": 1,
      "size": 277,
      "vsize": 250,
      "locktime": 956783188,
      "vin": [
        {
          "coinbase": "038eb6142cfabe6d6d9cbaad80e5f588b44881f964f0029de609d23f420c23990b781896b55472af1308000000f09f909f0f4d696e6564206279206d61736c63630000000000000000000000000000000000000000000000000000000000000000000000",
          "sequence": 49
        }
      ],
      "vout": [
        {
          "value": 25.00919800,
          "n": 0,
          "scriptPubKey": {
            "asm": "OP_DUP OP_HASH160 aa3750aa18b8a0f3f0590731e1fab934856680cf OP_EQUALVERIFY OP_CHECKSIG",
            "hex": "76a914aa3750aa18b8a0f3f0590731e1fab934856680cf88ac",
            "reqSigs": 1,
            "type": "pubkeyhash",
            "addresses": [
              "LajyQBeZaBA1NkZDeY8YT5RYYVRkXMvb2T"
            ]
          }
        }, 
        {
          "value": 0.00000000,
          "n": 1,
          "scriptPubKey": {
            "asm": "OP_RETURN aa21a9edddcda2e5f715d4e2dc504d77ca5d71f8bf17e3fe68a9bb26ede5867be0779b75 0000000000000000",
            "hex": "6a24aa21a9edddcda2e5f715d4e2dc504d77ca5d71f8bf17e3fe68a9bb26ede5867be0779b75080000000000000000",
            "type": "nulldata"
          }
        }
      ],
      "hex": "010000000001010000000000000000000000000000000000000000000000000000000000000000ffffffff64038eb6142cfabe6d6d9cbaad80e5f588b44881f964f0029de609d23f420c23990b781896b55472af1308000000f09f909f0f4d696e6564206279206d61736c636300000000000000000000000000000000000000000000000000000000000000000000003100000002f8011195000000001976a914aa3750aa18b8a0f3f0590731e1fab934856680cf88ac00000000000000002f6a24aa21a9edddcda2e5f715d4e2dc504d77ca5d71f8bf17e3fe68a9bb26ede5867be0779b7508000000000000000001200000000000000000000000000000000000000000000000000000000000000000545a0739"
    }, 
    {
      "txid": "1318a38a1855d43553d8e28df1ec16f74d43bb13e56b4bedf67b774665cddffc",
      "hash": "1318a38a1855d43553d8e28df1ec16f74d43bb13e56b4bedf67b774665cddffc",
      "version": 1,
      "size": 192,
      "vsize": 192,
      "locktime": 0,
      "vin": [
        {
          "txid": "4a4e09db4ba9d7a05b955f51e4bad72b362ae9b7f293dcad96e750aac65de3d4",
          "vout": 1,
          "scriptSig": {
            "asm": "3045022100fcf1691786138b889e49fcda0ea5c3ec610922fbd7d5dffa738ba7c5446b0c0b0220490f3695c6f8389bb00c0257d954f890f6564c93572d86bfdf9e5d2f0c199641[ALL] 037dd4e86e1413b5a38b048358dfe6284a25ba36b858c34efc92ce7982edd335b3",
            "hex": "483045022100fcf1691786138b889e49fcda0ea5c3ec610922fbd7d5dffa738ba7c5446b0c0b0220490f3695c6f8389bb00c0257d954f890f6564c93572d86bfdf9e5d2f0c1996410121037dd4e86e1413b5a38b048358dfe6284a25ba36b858c34efc92ce7982edd335b3"
          },
          "sequence": 4294967295
        }
      ],
      "vout": [
        {
          "value": 0.06654206,
          "n": 0,
          "scriptPubKey": {
            "asm": "OP_DUP OP_HASH160 ef5bb23059174657b6bb52fc8af0a13019c166bf OP_EQUALVERIFY OP_CHECKSIG",
            "hex": "76a914ef5bb23059174657b6bb52fc8af0a13019c166bf88ac",
            "reqSigs": 1,
            "type": "pubkeyhash",
            "addresses": [
              "Lh3ZcDMJLgERtrX3F1xcrPnFUoEd3vdz75"
            ]
          }
        }
      ],
      "hex": "0100000001d4e35dc6aa50e796addc93f2b7e92a362bd7bae4515f955ba0d7a94bdb094e4a010000006b483045022100fcf1691786138b889e49fcda0ea5c3ec610922fbd7d5dffa738ba7c5446b0c0b0220490f3695c6f8389bb00c0257d954f890f6564c93572d86bfdf9e5d2f0c1996410121037dd4e86e1413b5a38b048358dfe6284a25ba36b858c34efc92ce7982edd335b3ffffffff01fe886500000000001976a914ef5bb23059174657b6bb52fc8af0a13019c166bf88ac00000000"
    }, 
    {
      "txid": "ead8243f0da483997ed493bd804a0758ea67c50b09fa6f3fa69563546fdfc656",
      "hash": "ead8243f0da483997ed493bd804a0758ea67c50b09fa6f3fa69563546fdfc656",
      "version": 1,
      "size": 191,
      "vsize": 191,
      "locktime": 0,
      "vin": [
        {
          "txid": "68b4fc37a8f3be749653f2c6150727c7326b56642af2ddd13267cff5d7d8feb1",
          "vout": 1,
          "scriptSig": {
            "asm": "3044022025beec79be98fd8e75d63a20de39b14cbc28ef201b83908c70c10f0cc74f0e5302203565c78283cc0a8ed0786f8981fb4e8fce377bb2d1372656dd23deb97d62c0f3[ALL] 02ecf90d071c691ba8ee02e282efba37944c8a769c1a6284fe6b9512ea3a2d29b1",
            "hex": "473044022025beec79be98fd8e75d63a20de39b14cbc28ef201b83908c70c10f0cc74f0e5302203565c78283cc0a8ed0786f8981fb4e8fce377bb2d1372656dd23deb97d62c0f3012102ecf90d071c691ba8ee02e282efba37944c8a769c1a6284fe6b9512ea3a2d29b1"
          },
          "sequence": 4294967295
        }
      ],
      "vout": [
        {
          "value": 0.99800000,
          "n": 0,
          "scriptPubKey": {
            "asm": "OP_DUP OP_HASH160 b51d97ba621acd6cd387ab32adc914e4aee57cc6 OP_EQUALVERIFY OP_CHECKSIG",
            "hex": "76a914b51d97ba621acd6cd387ab32adc914e4aee57cc688ac",
            "reqSigs": 1,
            "type": "pubkeyhash",
            "addresses": [
              "Lbjc252mqHUPJYr2o31qrSCygWHbAHRJ1f"
            ]
          }
        }
      ],
      "hex": "0100000001b1fed8d7f5cf6732d1ddf22a64566b32c7270715c6f2539674bef3a837fcb468010000006a473044022025beec79be98fd8e75d63a20de39b14cbc28ef201b83908c70c10f0cc74f0e5302203565c78283cc0a8ed0786f8981fb4e8fce377bb2d1372656dd23deb97d62c0f3012102ecf90d071c691ba8ee02e282efba37944c8a769c1a6284fe6b9512ea3a2d29b1ffffffff01c0d3f205000000001976a914b51d97ba621acd6cd387ab32adc914e4aee57cc688ac00000000"
    }, 
    {
      "txid": "8af24a331368ac0609bf1429a269f05db8689ac538a3065266675c39a0029e9a",
      "hash": "8af24a331368ac0609bf1429a269f05db8689ac538a3065266675c39a0029e9a",
      "version": 1,
      "size": 225,
      "vsize": 225,
      "locktime": 0,
      "vin": [
        {
          "txid": "2c993ea54b421e273ad967217cacc2b1944af2865f811399684d8ae3b4cf3bc5",
          "vout": 799,
          "scriptSig": {
            "asm": "3044022009fb00d8e7c1044f30034604ea0fd7b16440a80320eab06fa2c970466366d641022061746f8bff9eaf550ba07872372d71d01e9744e66ec501232d11c21b52c83353[ALL] 027bd3b22860d018629a611e37dd5cc118553977db12bfa80c8229a82139056792",
            "hex": "473044022009fb00d8e7c1044f30034604ea0fd7b16440a80320eab06fa2c970466366d641022061746f8bff9eaf550ba07872372d71d01e9744e66ec501232d11c21b52c833530121027bd3b22860d018629a611e37dd5cc118553977db12bfa80c8229a82139056792"
          },
          "sequence": 4294967295
        }
      ],
      "vout": [
        {
          "value": 0.01011407,
          "n": 0,
          "scriptPubKey": {
            "asm": "OP_DUP OP_HASH160 9ba99ed62fcdec4f9acba771613b681bdb062842 OP_EQUALVERIFY OP_CHECKSIG",
            "hex": "76a9149ba99ed62fcdec4f9acba771613b681bdb06284288ac",
            "reqSigs": 1,
            "type": "pubkeyhash",
            "addresses": [
              "LZR2CP9LU1hEyoVrPQoFHNyACrqRz9XoX2"
            ]
          }
        }, 
        {
          "value": 0.22002428,
          "n": 1,
          "scriptPubKey": {
            "asm": "OP_DUP OP_HASH160 1fd12d5d2133bcc968a7e025738bac4135745655 OP_EQUALVERIFY OP_CHECKSIG",
            "hex": "76a9141fd12d5d2133bcc968a7e025738bac413574565588ac",
            "reqSigs": 1,
            "type": "pubkeyhash",
            "addresses": [
              "LN8Bo3eucEUhnyj6BSGidvZ53ECA6SawJz"
            ]
          }
        }
      ],
      "hex": "0100000001c53bcfb4e38a4d689913815f86f24a94b1c2ac7c2167d93a271e424ba53e992c1f0300006a473044022009fb00d8e7c1044f30034604ea0fd7b16440a80320eab06fa2c970466366d641022061746f8bff9eaf550ba07872372d71d01e9744e66ec501232d11c21b52c833530121027bd3b22860d018629a611e37dd5cc118553977db12bfa80c8229a82139056792ffffffff02cf6e0f00000000001976a9149ba99ed62fcdec4f9acba771613b681bdb06284288acfcba4f01000000001976a9141fd12d5d2133bcc968a7e025738bac413574565588ac00000000"
    }, 
    {
      "txid": "81630f01d92f6a197d3f6cd6bd52c66749916547aaf484e8e1a5fc4511aefc8c",
      "hash": "81630f01d92f6a197d3f6cd6bd52c66749916547aaf484e8e1a5fc4511aefc8c",
      "version": 1,
      "size": 226,
      "vsize": 226,
      "locktime": 0,
      "vin": [
        {
          "txid": "99f87635ca0ee85c518c0389b644da95bb92844b1f6055d768307c450179002d",
          "vout": 249,
          "scriptSig": {
            "asm": "3045022100bb66e014879656d07a4a7d243a8d7ab90cbf86c20d62adb4feb90f4fe6deeda702206ab00bb23487cfc056886a9a3a4bfced348fd923ac1407f31d6c14248a1717d9[ALL] 029cdd7287361424b63eddf8c75294998cea60bc3ce7d5d051b66ca3aeca545ce5",
            "hex": "483045022100bb66e014879656d07a4a7d243a8d7ab90cbf86c20d62adb4feb90f4fe6deeda702206ab00bb23487cfc056886a9a3a4bfced348fd923ac1407f31d6c14248a1717d90121029cdd7287361424b63eddf8c75294998cea60bc3ce7d5d051b66ca3aeca545ce5"
          },
          "sequence": 4294967295
        }
      ],
      "vout": [
        {
          "value": 0.01010271,
          "n": 0,
          "scriptPubKey": {
            "asm": "OP_DUP OP_HASH160 ac8aeabfa05d264c4d487e8b4180ddff51a37dea OP_EQUALVERIFY OP_CHECKSIG",
            "hex": "76a914ac8aeabfa05d264c4d487e8b4180ddff51a37dea88ac",
            "reqSigs": 1,
            "type": "pubkeyhash",
            "addresses": [
              "LaxGuL3x3T8rvhefCWAVxmMxeznrNmEeDR"
            ]
          }
        }, 
        {
          "value": 0.18362753,
          "n": 1,
          "scriptPubKey": {
            "asm": "OP_DUP OP_HASH160 d679b79e63113ba104c0e93bd581136f03fc0ec8 OP_EQUALVERIFY OP_CHECKSIG",
            "hex": "76a914d679b79e63113ba104c0e93bd581136f03fc0ec888ac",
            "reqSigs": 1,
            "type": "pubkeyhash",
            "addresses": [
              "LemzgKzUk7xTN4LDHtpNKbQyZnY5JNKEdb"
            ]
          }
        }
      ],
      "hex": "01000000012d007901457c3068d755601f4b8492bb95da44b689038c515ce80eca3576f899f90000006b483045022100bb66e014879656d07a4a7d243a8d7ab90cbf86c20d62adb4feb90f4fe6deeda702206ab00bb23487cfc056886a9a3a4bfced348fd923ac1407f31d6c14248a1717d90121029cdd7287361424b63eddf8c75294998cea60bc3ce7d5d051b66ca3aeca545ce5ffffffff025f6a0f00000000001976a914ac8aeabfa05d264c4d487e8b4180ddff51a37dea88ac81311801000000001976a914d679b79e63113ba104c0e93bd581136f03fc0ec888ac00000000"
    }, 
    {
      "txid": "eafb07c239118953849bc173f47bfdc6d6753c20849eebf02f40261a9fc2dcd4",
      "hash": "eafb07c239118953849bc173f47bfdc6d6753c20849eebf02f40261a9fc2dcd4",
      "version": 2,
      "size": 225,
      "vsize": 225,
      "locktime": 1357452,
      "vin": [
        {
          "txid": "903095fa0173cf67beaecf43b20ffc5620051e113f5c4ed660215d0017bf35e4",
          "vout": 1,
          "scriptSig": {
            "asm": "304402207e2373aaf928f2578d27b750f740a9c7480345a271c4d5d68243fb1fe60af8dc022064545661b18f2f535f4036e23fde4498fc8e6cedcaf8c4a56c171686b15b9ed2[ALL] 027afc9b45c95fb4a3764604991ae96cd9dab233df43f92d02d68b2f30ebf6fce1",
            "hex": "47304402207e2373aaf928f2578d27b750f740a9c7480345a271c4d5d68243fb1fe60af8dc022064545661b18f2f535f4036e23fde4498fc8e6cedcaf8c4a56c171686b15b9ed20121027afc9b45c95fb4a3764604991ae96cd9dab233df43f92d02d68b2f30ebf6fce1"
          },
          "sequence": 4294967294
        }
      ],
      "vout": [
        {
          "value": 0.60314406,
          "n": 0,
          "scriptPubKey": {
            "asm": "OP_DUP OP_HASH160 c69e5e1d1b823b9b93c1457523b2812976d6ece8 OP_EQUALVERIFY OP_CHECKSIG",
            "hex": "76a914c69e5e1d1b823b9b93c1457523b2812976d6ece888ac",
            "reqSigs": 1,
            "type": "pubkeyhash",
            "addresses": [
              "LdL9mmhCpaWZecAH46SJQgvh6P2T9PRqtc"
            ]
          }
        }, 
        {
          "value": 380.82121962,
          "n": 1,
          "scriptPubKey": {
            "asm": "OP_DUP OP_HASH160 d75b821794aaddb28227fb79753ee90b40159098 OP_EQUALVERIFY OP_CHECKSIG",
            "hex": "76a914d75b821794aaddb28227fb79753ee90b4015909888ac",
            "reqSigs": 1,
            "type": "pubkeyhash",
            "addresses": [
              "LerfAZC4tpYDjSmQGP69ee6x68cFiWbJDD"
            ]
          }
        }
      ],
      "hex": "0200000001e435bf17005d2160d64e5c3f111e052056fc0fb243cfaebe67cf7301fa953090010000006a47304402207e2373aaf928f2578d27b750f740a9c7480345a271c4d5d68243fb1fe60af8dc022064545661b18f2f535f4036e23fde4498fc8e6cedcaf8c4a56c171686b15b9ed20121027afc9b45c95fb4a3764604991ae96cd9dab233df43f92d02d68b2f30ebf6fce1feffffff0226539803000000001976a914c69e5e1d1b823b9b93c1457523b2812976d6ece888acea10dfdd080000001976a914d75b821794aaddb28227fb79753ee90b4015909888ac8cb61400"
    }, 
    {
      "txid": "003c1fb6c0a0a416f83b0568871da5222304c235a8adc254b9f6cd2c7f97b61e",
      "hash": "003c1fb6c0a0a416f83b0568871da5222304c235a8adc254b9f6cd2c7f97b61e",
      "version": 1,
      "size": 225,
      "vsize": 225,
      "locktime": 1357452,
      "vin": [
        {
          "txid": "b85376a6cb3f08382e51d15cc53776464c41d62b3aaad24f3907860fcb33158e",
          "vout": 0,
          "scriptSig": {
            "asm": "3044022036024a9cbf702c9d791a5f577787e29cb500e3bd8b31e40da288878a2b784a9d02207770ed73b3806444045e31abc0ff44ca379681b96e77b7808b78ff1313b91f17[ALL] 02c2720c57234e124159a18b9f985a9bb8b17351df0985537e1b6401796fc2eeb5",
            "hex": "473044022036024a9cbf702c9d791a5f577787e29cb500e3bd8b31e40da288878a2b784a9d02207770ed73b3806444045e31abc0ff44ca379681b96e77b7808b78ff1313b91f17012102c2720c57234e124159a18b9f985a9bb8b17351df0985537e1b6401796fc2eeb5"
          },
          "sequence": 4294967294
        }
      ],
      "vout": [
        {
          "value": 3.77408826,
          "n": 0,
          "scriptPubKey": {
            "asm": "OP_DUP OP_HASH160 cd622af6db306935459427b095465a87726a217b OP_EQUALVERIFY OP_CHECKSIG",
            "hex": "76a914cd622af6db306935459427b095465a87726a217b88ac",
            "reqSigs": 1,
            "type": "pubkeyhash",
            "addresses": [
              "LdwvPMkazUHYc5iEUXdZWS3NPtgJAsZETt"
            ]
          }
        }, 
        {
          "value": 77.49289920,
          "n": 1,
          "scriptPubKey": {
            "asm": "OP_DUP OP_HASH160 d431972cd729a836ed23b5094936084a5026f195 OP_EQUALVERIFY OP_CHECKSIG",
            "hex": "76a914d431972cd729a836ed23b5094936084a5026f19588ac",
            "reqSigs": 1,
            "type": "pubkeyhash",
            "addresses": [
              "LeZvvVTA2vGt2rE1Q4J2k2AXia8YJ6SkwL"
            ]
          }
        }
      ],
      "hex": "01000000018e1533cb0f8607394fd2aa3a2bd6414c467637c55cd1512e38083fcba67653b8000000006a473044022036024a9cbf702c9d791a5f577787e29cb500e3bd8b31e40da288878a2b784a9d02207770ed73b3806444045e31abc0ff44ca379681b96e77b7808b78ff1313b91f17012102c2720c57234e124159a18b9f985a9bb8b17351df0985537e1b6401796fc2eeb5feffffff023acd7e16000000001976a914cd622af6db306935459427b095465a87726a217b88acc0c7e4cd010000001976a914d431972cd729a836ed23b5094936084a5026f19588ac8cb61400"
    }, 
    {
      "txid": "22ff0e6a613059def5eff6481ff2f6ae206e1c6c8e6995d9f1e4397b64ec7c86",
      "hash": "22ff0e6a613059def5eff6481ff2f6ae206e1c6c8e6995d9f1e4397b64ec7c86",
      "version": 2,
      "size": 226,
      "vsize": 226,
      "locktime": 1357452,
      "vin": [
        {
          "txid": "9cdc122a3217b8c17ecab586f63cdf5afb77428cf6d61604009b18af5e1ffdc4",
          "vout": 0,
          "scriptSig": {
            "asm": "3045022100825622099f94295e55ec42795ffbaccc4bc3f21beca9d14ad0cfa2aa46342ab702203113333dea639eb6da5c0825e7ab0f73517218b4971f9df73fbb9419eed7c7cb[ALL] 0291aabae8280bc49dc44b67eb0622d88a1798fa40a1c9afe12a9df07f6c48a86d",
            "hex": "483045022100825622099f94295e55ec42795ffbaccc4bc3f21beca9d14ad0cfa2aa46342ab702203113333dea639eb6da5c0825e7ab0f73517218b4971f9df73fbb9419eed7c7cb01210291aabae8280bc49dc44b67eb0622d88a1798fa40a1c9afe12a9df07f6c48a86d"
          },
          "sequence": 4294967294
        }
      ],
      "vout": [
        {
          "value": 398.37761591,
          "n": 0,
          "scriptPubKey": {
            "asm": "OP_DUP OP_HASH160 05f76f80f7aa1b9197be50606c0d91340f155552 OP_EQUALVERIFY OP_CHECKSIG",
            "hex": "76a91405f76f80f7aa1b9197be50606c0d91340f15555288ac",
            "reqSigs": 1,
            "type": "pubkeyhash",
            "addresses": [
              "LKmW4J9J7pCETjyhjP3XdMJXEmTXsHEZNs"
            ]
          }
        }, 
        {
          "value": 1.33000000,
          "n": 1,
          "scriptPubKey": {
            "asm": "OP_DUP OP_HASH160 3a3e578e8179927ebec8ac08b2ef9b9b022046fe OP_EQUALVERIFY OP_CHECKSIG",
            "hex": "76a9143a3e578e8179927ebec8ac08b2ef9b9b022046fe88ac",
            "reqSigs": 1,
            "type": "pubkeyhash",
            "addresses": [
              "LQXv8wPWJ8uFhk8evCZaJk95cd5FV43d7A"
            ]
          }
        }
      ],
      "hex": "0200000001c4fd1f5eaf189b000416d6f68c4277fb5adf3cf686b5ca7ec1b817322a12dc9c000000006b483045022100825622099f94295e55ec42795ffbaccc4bc3f21beca9d14ad0cfa2aa46342ab702203113333dea639eb6da5c0825e7ab0f73517218b4971f9df73fbb9419eed7c7cb01210291aabae8280bc49dc44b67eb0622d88a1798fa40a1c9afe12a9df07f6c48a86dfeffffff0237008446090000001976a91405f76f80f7aa1b9197be50606c0d91340f15555288ac406bed07000000001976a9143a3e578e8179927ebec8ac08b2ef9b9b022046fe88ac8cb61400"
    }, 
    {
      "txid": "9984a62ace800d7a56664c4d9275be435f53c064edd8fa72b3de94e18c24adb5",
      "hash": "9984a62ace800d7a56664c4d9275be435f53c064edd8fa72b3de94e18c24adb5",
      "version": 2,
      "size": 374,
      "vsize": 374,
      "locktime": 1357452,
      "vin": [
        {
          "txid": "fc2e083fdfa3fa986c96712d9f430df069f2cc0c00a6b7f82147188bda2af2ce",
          "vout": 0,
          "scriptSig": {
            "asm": "3045022100d3ad7a9b074acfef4569cd23576f3cce6946df64c201bfd086e14a866f61db3f022004a50d36d16cde504ec957f80fae2aa51f177e1ac3ace47b3eadd28fafa93fb9[ALL] 038e5ac36ea252f64200208ebbfd41fd00f68213ea6ecedf8a376475b9edcd2e7b",
            "hex": "483045022100d3ad7a9b074acfef4569cd23576f3cce6946df64c201bfd086e14a866f61db3f022004a50d36d16cde504ec957f80fae2aa51f177e1ac3ace47b3eadd28fafa93fb90121038e5ac36ea252f64200208ebbfd41fd00f68213ea6ecedf8a376475b9edcd2e7b"
          },
          "sequence": 4294967294
        }, 
        {
          "txid": "cae691c9660fb959916bd02b902f825e0db121acadfd8fb4e7dcbcfcf87e4522",
          "vout": 1,
          "scriptSig": {
            "asm": "304502210094fda81c9afed586816d0e05899057260dac1d90e1063209c58c161eb97a6c6302204780981ce03df6bf93c735f9753bea090bc61629fcf7ca1b5720aec5eea75196[ALL] 0374ae4b4eacecb490c2db9401aa1ce461dbea8c4c27edb4840596f9c2a4b255fc",
            "hex": "48304502210094fda81c9afed586816d0e05899057260dac1d90e1063209c58c161eb97a6c6302204780981ce03df6bf93c735f9753bea090bc61629fcf7ca1b5720aec5eea7519601210374ae4b4eacecb490c2db9401aa1ce461dbea8c4c27edb4840596f9c2a4b255fc"
          },
          "sequence": 4294967294
        }
      ],
      "vout": [
        {
          "value": 53.10534599,
          "n": 0,
          "scriptPubKey": {
            "asm": "OP_DUP OP_HASH160 e9d1cae3f745f879deb7662d191ec4fd8798d9bf OP_EQUALVERIFY OP_CHECKSIG",
            "hex": "76a914e9d1cae3f745f879deb7662d191ec4fd8798d9bf88ac",
            "reqSigs": 1,
            "type": "pubkeyhash",
            "addresses": [
              "LgYH2Yu8DA6m5Nvf77dQ6oKDEmh4fmiYit"
            ]
          }
        }, 
        {
          "value": 73.73755437,
          "n": 1,
          "scriptPubKey": {
            "asm": "OP_DUP OP_HASH160 fb41d5b9fdd7872174635d5f2e4477f44859e555 OP_EQUALVERIFY OP_CHECKSIG",
            "hex": "76a914fb41d5b9fdd7872174635d5f2e4477f44859e55588ac",
            "reqSigs": 1,
            "type": "pubkeyhash",
            "addresses": [
              "Li8Ujech1SkMFzwB54oXUu46p4MUPgZBs6"
            ]
          }
        }
      ],
      "hex": "0200000002cef22ada8b184721f8b7a6000cccf269f00d439f2d71966c98faa3df3f082efc000000006b483045022100d3ad7a9b074acfef4569cd23576f3cce6946df64c201bfd086e14a866f61db3f022004a50d36d16cde504ec957f80fae2aa51f177e1ac3ace47b3eadd28fafa93fb90121038e5ac36ea252f64200208ebbfd41fd00f68213ea6ecedf8a376475b9edcd2e7bfeffffff22457ef8fcbcdce7b48ffdadac21b10d5e822f902bd06b9159b90f66c991e6ca010000006b48304502210094fda81c9afed586816d0e05899057260dac1d90e1063209c58c161eb97a6c6302204780981ce03df6bf93c735f9753bea090bc61629fcf7ca1b5720aec5eea7519601210374ae4b4eacecb490c2db9401aa1ce461dbea8c4c27edb4840596f9c2a4b255fcfeffffff02c753883c010000001976a914e9d1cae3f745f879deb7662d191ec4fd8798d9bf88ac2d9482b7010000001976a914fb41d5b9fdd7872174635d5f2e4477f44859e55588ac8cb61400"
    }
  ],
  "time": 1517005177,
  "mediantime": 1517004655,
  "nonce": 74771354,
  "bits": "1a047f14",
  "difficulty": 3731199.183374282,
  "chainwork": "0000000000000000000000000000000000000000000000323d140a59b9f62186",
  "previousblockhash": "a7d7a2fa7b1cc20deff130d1084c2a3597935bec0865a051a15a171e210a4251",
  "nextblockhash": "e37fca96e3175e5bd276460226baf0ae82fec492c064734f35f9ce0048c843fe"
}
