{
  "hash": "6ef737b7457eacc8f51c8852c31ca26470db06b49c3c782f4e91a0e5e244febd",
  "confirmations": 548,
  "strippedsize": 234,
  "size": 234,
  "weight": 936,
  "height": 1360446,
  "version": 536870912,
  "versionHex": "20000000",
  "merkleroot": "c933950e85cd7f6a27548a280f62cd4681aa287216be9cb72f0da7d4fe8c38ac",
  "tx": [
    {
      "txid": "c933950e85cd7f6a27548a280f62cd4681aa287216be9cb72f0da7d4fe8c38ac",
      "hash": "c933950e85cd7f6a27548a280f62cd4681aa287216be9cb72f0da7d4fe8c38ac",
      "version": 1,
      "size": 153,
      "vsize": 153,
      "locktime": 0,
      "vin": [
        {
          "coinbase": "033ec214045a722cdb2cfabe6d6d4e4b145d33350edea243c92d78932538f81e28db8648e64d10d85204f9a988404000000000000000042f4c502f0822005b230e000000",
          "sequence": 4294967295
        }
      ],
      "vout": [
        {
          "value": 25.00000000,
          "n": 0,
          "scriptPubKey": {
            "asm": "OP_DUP OP_HASH160 57757ed2ecf2052ff3126c397aca7defb9ca2cec OP_EQUALVERIFY OP_CHECKSIG",
            "hex": "76a91457757ed2ecf2052ff3126c397aca7defb9ca2cec88ac",
            "reqSigs": 1,
            "type": "pubkeyhash",
            "addresses": [
              "LTCPodGk5FwcJaRzH9yKnwicxzFUbxp6tN"
            ]
          }
        }
      ],
      "hex": "01000000010000000000000000000000000000000000000000000000000000000000000000ffffffff44033ec214045a722cdb2cfabe6d6d4e4b145d33350edea243c92d78932538f81e28db8648e64d10d85204f9a988404000000000000000042f4c502f0822005b230e000000ffffffff0100f90295000000001976a91457757ed2ecf2052ff3126c397aca7defb9ca2cec88ac00000000"
    }
  ],
  "time": 1517432027,
  "mediantime": 1517431532,
  "nonce": 2446627513,
  "bits": "1a042eae",
  "difficulty": 4011378.762614286,
  "chainwork": "000000000000000000000000000000000000000000000034f245aed04d02c7fe",
  "previousblockhash": "c2079cde1c4a4585c18ea7a4f00c2532a88d8279b49a46a627643ee8b396260a",
  "nextblockhash": "dd389b10351d206480adb4eb4b8f1f681224d7b65e7cd7509af4f81b7e3db355"
}
