{
  "hash": "6f6cbfbcc6685c919357739a26fb98f519d50076f879ecf527f1a50cdad5c0a6",
  "confirmations": 3428,
  "strippedsize": 254,
  "size": 254,
  "weight": 1016,
  "height": 1357567,
  "version": 536870912,
  "versionHex": "20000000",
  "merkleroot": "dd29d706105bab5e368aeeeb0a3264e3dd7bf154c9ca92a3a5dc6e22cdd15468",
  "tx": [
    {
      "txid": "dd29d706105bab5e368aeeeb0a3264e3dd7bf154c9ca92a3a5dc6e22cdd15468",
      "hash": "dd29d706105bab5e368aeeeb0a3264e3dd7bf154c9ca92a3a5dc6e22cdd15468",
      "version": 1,
      "size": 173,
      "vsize": 173,
      "locktime": 0,
      "vin": [
        {
          "coinbase": "03ffb6141b4d696e656420627920416e74506f6f6c20626a302042205a6be124fabe6d6d9fb128418105c29f9152ca22dc1180e39681380c36ba0dd878525f4bfdd7500704000000000000004c1a00000000000001000000",
          "sequence": 4294967295
        }
      ],
      "vout": [
        {
          "value": 25.00000000,
          "n": 0,
          "scriptPubKey": {
            "asm": "OP_DUP OP_HASH160 0ff3ccc5e8be88afe24b5d634e5852d474dbdff1 OP_EQUALVERIFY OP_CHECKSIG",
            "hex": "76a9140ff3ccc5e8be88afe24b5d634e5852d474dbdff188ac",
            "reqSigs": 1,
            "type": "pubkeyhash",
            "addresses": [
              "LLgJTbzZMsRTCUF1NtvvL9SR1a4pVieW89"
            ]
          }
        }
      ],
      "hex": "01000000010000000000000000000000000000000000000000000000000000000000000000ffffffff5803ffb6141b4d696e656420627920416e74506f6f6c20626a302042205a6be124fabe6d6d9fb128418105c29f9152ca22dc1180e39681380c36ba0dd878525f4bfdd7500704000000000000004c1a00000000000001000000ffffffff0100f90295000000001976a9140ff3ccc5e8be88afe24b5d634e5852d474dbdff188ac00000000"
    }
  ],
  "time": 1517019428,
  "mediantime": 1517018788,
  "nonce": 358200876,
  "bits": "1a047f14",
  "difficulty": 3731199.183374282,
  "chainwork": "0000000000000000000000000000000000000000000000325635a21f0a622900",
  "previousblockhash": "c42c5c11b0e1bd711333c68b44d61cd393d2fb193e8c0c0cd4f9acf9dedf5375",
  "nextblockhash": "806b6843f7e9a440396dec219ac36c83eef067e8ee8c7266009703d076590177"
}
