{
  "hash": "70a8e506408fda79592018027baeffd20d1ebd565d772ec315297c4c4d20c9c5",
  "confirmations": 364,
  "strippedsize": 256,
  "size": 256,
  "weight": 1024,
  "height": 1360630,
  "version": 536870912,
  "versionHex": "20000000",
  "merkleroot": "605126ccfec8d1b490e8fa3e97092a52e9b2eca097b2531dbb4882b6a38ce4e3",
  "tx": [
    {
      "txid": "605126ccfec8d1b490e8fa3e97092a52e9b2eca097b2531dbb4882b6a38ce4e3",
      "hash": "605126ccfec8d1b490e8fa3e97092a52e9b2eca097b2531dbb4882b6a38ce4e3",
      "version": 1,
      "size": 175,
      "vsize": 175,
      "locktime": 0,
      "vin": [
        {
          "coinbase": "03f6c2141d4d696e656420627920416e74506f6f6c20626a312045205a72996804c6fabe6d6d17ff2a0a84d179bffde43bd7e2d602ec6e66ef2869d3a92d065ab6ffdb90c52204000000000000002b0200000000000004000000",
          "sequence": 4294967295
        }
      ],
      "vout": [
        {
          "value": 25.00000000,
          "n": 0,
          "scriptPubKey": {
            "asm": "OP_DUP OP_HASH160 0ff3ccc5e8be88afe24b5d634e5852d474dbdff1 OP_EQUALVERIFY OP_CHECKSIG",
            "hex": "76a9140ff3ccc5e8be88afe24b5d634e5852d474dbdff188ac",
            "reqSigs": 1,
            "type": "pubkeyhash",
            "addresses": [
              "LLgJTbzZMsRTCUF1NtvvL9SR1a4pVieW89"
            ]
          }
        }
      ],
      "hex": "01000000010000000000000000000000000000000000000000000000000000000000000000ffffffff5a03f6c2141d4d696e656420627920416e74506f6f6c20626a312045205a72996804c6fabe6d6d17ff2a0a84d179bffde43bd7e2d602ec6e66ef2869d3a92d065ab6ffdb90c52204000000000000002b0200000000000004000000ffffffff0100f90295000000001976a9140ff3ccc5e8be88afe24b5d634e5852d474dbdff188ac00000000"
    }
  ],
  "time": 1517459816,
  "mediantime": 1517458331,
  "nonce": 574455388,
  "bits": "1a042eae",
  "difficulty": 4011378.762614286,
  "chainwork": "0000000000000000000000000000000000000000000000351e44454b35ac9d6e",
  "previousblockhash": "b51e67c510890063b72ab78023b84306181e88c18614b026ddf3039db195f3c6",
  "nextblockhash": "90e52562cf7723c27417c98661a479cce918679afb2aced289d9f8e00a9de8d4"
}
