{
  "hash": "70b0d2ab1adec36613dc725a30b231b250945e02f67f405381746c9226a4eecb",
  "confirmations": 424,
  "strippedsize": 281,
  "size": 317,
  "weight": 1160,
  "height": 1360570,
  "version": 536870912,
  "versionHex": "20000000",
  "merkleroot": "1e251de904de11930e07ab55c27fc0bb2c8b71aac6874efc11d6b56ab52db556",
  "tx": [
    {
      "txid": "1e251de904de11930e07ab55c27fc0bb2c8b71aac6874efc11d6b56ab52db556",
      "hash": "6d0240beda63d885e89c4d123413add9073b3f54aa05366d8f5fd87ba4f8f123",
      "version": 1,
      "size": 236,
      "vsize": 209,
      "locktime": 0,
      "vin": [
        {
          "coinbase": "03bac214045a7277412cfabe6d6dbd0d0547e8a3033fb8439cdb18fd5d124aedab4b081cebe27bbc7d575d4cc5d14000000000000000042f4c502f08560028c615020000",
          "sequence": 4294967295
        }
      ],
      "vout": [
        {
          "value": 25.00000000,
          "n": 0,
          "scriptPubKey": {
            "asm": "OP_DUP OP_HASH160 57757ed2ecf2052ff3126c397aca7defb9ca2cec OP_EQUALVERIFY OP_CHECKSIG",
            "hex": "76a91457757ed2ecf2052ff3126c397aca7defb9ca2cec88ac",
            "reqSigs": 1,
            "type": "pubkeyhash",
            "addresses": [
              "LTCPodGk5FwcJaRzH9yKnwicxzFUbxp6tN"
            ]
          }
        }, 
        {
          "value": 0.00000000,
          "n": 1,
          "scriptPubKey": {
            "asm": "OP_RETURN aa21a9ede2f61c3f71d1defd3fa999dfa36953755c690689799962b48bebd836974e8cf9",
            "hex": "6a24aa21a9ede2f61c3f71d1defd3fa999dfa36953755c690689799962b48bebd836974e8cf9",
            "type": "nulldata"
          }
        }
      ],
      "hex": "010000000001010000000000000000000000000000000000000000000000000000000000000000ffffffff4403bac214045a7277412cfabe6d6dbd0d0547e8a3033fb8439cdb18fd5d124aedab4b081cebe27bbc7d575d4cc5d14000000000000000042f4c502f08560028c615020000ffffffff0200f90295000000001976a91457757ed2ecf2052ff3126c397aca7defb9ca2cec88ac0000000000000000266a24aa21a9ede2f61c3f71d1defd3fa999dfa36953755c690689799962b48bebd836974e8cf90120000000000000000000000000000000000000000000000000000000000000000000000000"
    }
  ],
  "time": 1517451073,
  "mediantime": 1517450205,
  "nonce": 975032402,
  "bits": "1a042eae",
  "difficulty": 4011378.762614286,
  "chainwork": "0000000000000000000000000000000000000000000000350febb00cdeace2f6",
  "previousblockhash": "3e567e785fcb30b836b12437cc12d078df460f9bff79c3ede4f41fce3608c7eb",
  "nextblockhash": "19be62ff4e3596b4db8a9cd839e23631857131848020f4e055e38cdbd80e74a4"
}
