{
  "hash": "711fa49e646f16d5dd5aa9ba367783d556a2749bd16e9f55569d6191a46e6f12",
  "confirmations": 3346,
  "strippedsize": 1797,
  "size": 1833,
  "weight": 7224,
  "height": 1357649,
  "version": 536870912,
  "versionHex": "20000000",
  "merkleroot": "73995b24117295bd69a7f87dad4f43daef4018a8f9a8892942c99208746614d4",
  "tx": [
    {
      "txid": "45220b73fef5d9ea2e07880afa54010186a6b2f1678068f6276d3065f37b8445",
      "hash": "cd54c9a9c50a16d9380b372cf0b07aa6c0ab92ae556f54d6c44f0b67be1f6d2f",
      "version": 2,
      "size": 234,
      "vsize": 207,
      "locktime": 0,
      "vin": [
        {
          "coinbase": "0351b71404300c6c5a2ffabe6d6ddc0ed799c67695b5abfc9314d21e7f2026819c699a7298f9cb924d64b5ff6a3d0100000000000000020395ef0200000000000000",
          "sequence": 4294967295
        }
      ],
      "vout": [
        {
          "value": 25.01343100,
          "n": 0,
          "scriptPubKey": {
            "asm": "OP_DUP OP_HASH160 3d29d474d0a98b5b2669d990d2917780837edf0c OP_EQUALVERIFY OP_CHECKSIG",
            "hex": "76a9143d29d474d0a98b5b2669d990d2917780837edf0c88ac",
            "reqSigs": 1,
            "type": "pubkeyhash",
            "addresses": [
              "LQoMbJnzRK2sDXazJuUNXPTx7FrKKPJgt6"
            ]
          }
        }, 
        {
          "value": 0.00000000,
          "n": 1,
          "scriptPubKey": {
            "asm": "OP_RETURN aa21a9ed8f0e1c841dd95981afaaeca362c53b27661c929940fe63f4d335f8baf650ac71",
            "hex": "6a24aa21a9ed8f0e1c841dd95981afaaeca362c53b27661c929940fe63f4d335f8baf650ac71",
            "type": "nulldata"
          }
        }
      ],
      "hex": "020000000001010000000000000000000000000000000000000000000000000000000000000000ffffffff420351b71404300c6c5a2ffabe6d6ddc0ed799c67695b5abfc9314d21e7f2026819c699a7298f9cb924d64b5ff6a3d0100000000000000020395ef0200000000000000ffffffff027c771795000000001976a9143d29d474d0a98b5b2669d990d2917780837edf0c88ac0000000000000000266a24aa21a9ed8f0e1c841dd95981afaaeca362c53b27661c929940fe63f4d335f8baf650ac710120000000000000000000000000000000000000000000000000000000000000000000000000"
    }, 
    {
      "txid": "447a5216d06da408ce3b74560baec8e908ee30508147e3afd7ec60f72fcf5526",
      "hash": "447a5216d06da408ce3b74560baec8e908ee30508147e3afd7ec60f72fcf5526",
      "version": 1,
      "size": 468,
      "vsize": 468,
      "locktime": 0,
      "vin": [
        {
          "txid": "fa18165ff0d140f08a06393eac12a2f65a007eb82129846a108fcd7d3294f0bf",
          "vout": 3,
          "scriptSig": {
            "asm": "0 3045022100dded6436b667f7769f799ffa1aa3d45b9608f5e804deee0578733170cf67ce8a0220728bd8f0621aebcb78aaac13cd9320f915a197a985144629f6a927b3a851a533[ALL] 304402202faa47b3671e8cb4162f1bb4c78d9b8ba949e43c16a623353c78daa9fc2e836a02202fc87d53fd3ff8460179610b82d2ea79806058e40a465a6e83fdce8714f61229[ALL] 522103b3a5ed3344e82ddcfa9a8812746fd4ab53ca0e9ecd40f9b2fd22c7b82591b6c321030f3617687d319f0c789eeffd328291dd3430e07307e1f27e80e67c0a2582cb1b2103ca2b4a35448097db76d822911e0b1a24056503d46661df67735f7ad996e9eaba53ae",
            "hex": "00483045022100dded6436b667f7769f799ffa1aa3d45b9608f5e804deee0578733170cf67ce8a0220728bd8f0621aebcb78aaac13cd9320f915a197a985144629f6a927b3a851a5330147304402202faa47b3671e8cb4162f1bb4c78d9b8ba949e43c16a623353c78daa9fc2e836a02202fc87d53fd3ff8460179610b82d2ea79806058e40a465a6e83fdce8714f61229014c69522103b3a5ed3344e82ddcfa9a8812746fd4ab53ca0e9ecd40f9b2fd22c7b82591b6c321030f3617687d319f0c789eeffd328291dd3430e07307e1f27e80e67c0a2582cb1b2103ca2b4a35448097db76d822911e0b1a24056503d46661df67735f7ad996e9eaba53ae"
          },
          "sequence": 4294967295
        }
      ],
      "vout": [
        {
          "value": 0.48000000,
          "n": 0,
          "scriptPubKey": {
            "asm": "OP_DUP OP_HASH160 dcbae3c3fa30dd68b4883b5d292b797e8c8a74f9 OP_EQUALVERIFY OP_CHECKSIG",
            "hex": "76a914dcbae3c3fa30dd68b4883b5d292b797e8c8a74f988ac",
            "reqSigs": 1,
            "type": "pubkeyhash",
            "addresses": [
              "LfM4ojtmaedanjbohm1LnXfqRYRunaTAy4"
            ]
          }
        }, 
        {
          "value": 1.84096000,
          "n": 1,
          "scriptPubKey": {
            "asm": "OP_HASH160 5055073baef3f55c5118824787dfff5eb2502b7a OP_EQUAL",
            "hex": "a9145055073baef3f55c5118824787dfff5eb2502b7a87",
            "reqSigs": 1,
            "type": "scripthash",
            "addresses": [
              "MFDv9eGMdCSYZ88keVQUk1t2JEV6vXNgJu"
            ]
          }
        }, 
        {
          "value": 1.66296000,
          "n": 2,
          "scriptPubKey": {
            "asm": "OP_HASH160 7aec3e630f7aaa81b77dbf9f0139fe1edfc76889 OP_EQUAL",
            "hex": "a9147aec3e630f7aaa81b77dbf9f0139fe1edfc7688987",
            "reqSigs": 1,
            "type": "scripthash",
            "addresses": [
              "MK77gLJ4UhKWUN8mxSoLVcaeNRatNmK3bg"
            ]
          }
        }, 
        {
          "value": 2.30796000,
          "n": 3,
          "scriptPubKey": {
            "asm": "OP_HASH160 1ddd0c25cc8cc6be1001506a00a3368af0652c72 OP_EQUAL",
            "hex": "a9141ddd0c25cc8cc6be1001506a00a3368af0652c7287",
            "reqSigs": 1,
            "type": "scripthash",
            "addresses": [
              "MAd4de3SjXxYqeLY66e49kdwXoWYqkraDV"
            ]
          }
        }, 
        {
          "value": 5.52280000,
          "n": 4,
          "scriptPubKey": {
            "asm": "OP_HASH160 e669da3585dca7488751fd31c764ca01ff5d2188 OP_EQUAL",
            "hex": "a914e669da3585dca7488751fd31c764ca01ff5d218887",
            "reqSigs": 1,
            "type": "scripthash",
            "addresses": [
              "MUuUTJYzBorcwVAuDVsf9MhqWUV4vHkFbJ"
            ]
          }
        }
      ],
      "hex": "0100000001bff094327dcd8f106a842921b87e005af6a212ac3e39068af040d1f05f1618fa03000000fdfd0000483045022100dded6436b667f7769f799ffa1aa3d45b9608f5e804deee0578733170cf67ce8a0220728bd8f0621aebcb78aaac13cd9320f915a197a985144629f6a927b3a851a5330147304402202faa47b3671e8cb4162f1bb4c78d9b8ba949e43c16a623353c78daa9fc2e836a02202fc87d53fd3ff8460179610b82d2ea79806058e40a465a6e83fdce8714f61229014c69522103b3a5ed3344e82ddcfa9a8812746fd4ab53ca0e9ecd40f9b2fd22c7b82591b6c321030f3617687d319f0c789eeffd328291dd3430e07307e1f27e80e67c0a2582cb1b2103ca2b4a35448097db76d822911e0b1a24056503d46661df67735f7ad996e9eaba53aeffffffff05006cdc02000000001976a914dcbae3c3fa30dd68b4883b5d292b797e8c8a74f988ac0015f90a0000000017a9145055073baef3f55c5118824787dfff5eb2502b7a87c079e9090000000017a9147aec3e630f7aaa81b77dbf9f0139fe1edfc7688987e0aac10d0000000017a9141ddd0c25cc8cc6be1001506a00a3368af0652c7287c01feb200000000017a914e669da3585dca7488751fd31c764ca01ff5d21888700000000"
    }, 
    {
      "txid": "b9723102e3ffc2bf9dfb30170ec70748e03b63922735692a100f31a12f95f392",
      "hash": "b9723102e3ffc2bf9dfb30170ec70748e03b63922735692a100f31a12f95f392",
      "version": 1,
      "size": 372,
      "vsize": 372,
      "locktime": 1357647,
      "vin": [
        {
          "txid": "8752a8c0925adadfd3a4e2333215bd85e71fbc074fa1b3cd54627060d028109e",
          "vout": 1,
          "scriptSig": {
            "asm": "3044022076ee09d7fc66fb66cb814dab15d8169da405b0d0012da7dd8a0ebb67c4598fa1022018115a8e0962f35a11671b13cca08ed560371937bf19e204900efa54f2824d86[ALL] 02a453511e3eea37f484d5e32da022d503bfaeed75e44f1d33c9c17895dda9a002",
            "hex": "473044022076ee09d7fc66fb66cb814dab15d8169da405b0d0012da7dd8a0ebb67c4598fa1022018115a8e0962f35a11671b13cca08ed560371937bf19e204900efa54f2824d86012102a453511e3eea37f484d5e32da022d503bfaeed75e44f1d33c9c17895dda9a002"
          },
          "sequence": 4294967294
        }, 
        {
          "txid": "b121222fa88614d62cc8271dd4a98216f5302151c0422cf7e20a0d85423ca684",
          "vout": 1,
          "scriptSig": {
            "asm": "30440220526e7f163cebed9bd2fe374a7cb6e2eafa214f994c47925347c18c93952f783b0220254aeedb0ff5f1781bd8850b8a13b254105648e94a9ee843e4de95cec15a0f50[ALL] 03c93635b69bb9ed1fd9b8401074ac5974601a70be8d4aacefb8b1d4ba0fb4a056",
            "hex": "4730440220526e7f163cebed9bd2fe374a7cb6e2eafa214f994c47925347c18c93952f783b0220254aeedb0ff5f1781bd8850b8a13b254105648e94a9ee843e4de95cec15a0f50012103c93635b69bb9ed1fd9b8401074ac5974601a70be8d4aacefb8b1d4ba0fb4a056"
          },
          "sequence": 4294967294
        }
      ],
      "vout": [
        {
          "value": 2.01189600,
          "n": 0,
          "scriptPubKey": {
            "asm": "OP_DUP OP_HASH160 7379e44f33500abe1f1db0a8847442efe4a9cb9c OP_EQUALVERIFY OP_CHECKSIG",
            "hex": "76a9147379e44f33500abe1f1db0a8847442efe4a9cb9c88ac",
            "reqSigs": 1,
            "type": "pubkeyhash",
            "addresses": [
              "LVkXzU1peXmS6uQEmjW66BhxPPfwGJqto7"
            ]
          }
        }, 
        {
          "value": 0.06937172,
          "n": 1,
          "scriptPubKey": {
            "asm": "OP_DUP OP_HASH160 0f2392a91d7fb349fdbb589a6d12bfdbec9050b9 OP_EQUALVERIFY OP_CHECKSIG",
            "hex": "76a9140f2392a91d7fb349fdbb589a6d12bfdbec9050b988ac",
            "reqSigs": 1,
            "type": "pubkeyhash",
            "addresses": [
              "LLc11jnFSYQJpTLnZ3MW4fK1wqeR6592qs"
            ]
          }
        }
      ],
      "hex": "01000000029e1028d060706254cdb3a14f07bc1fe785bd153233e2a4d3dfda5a92c0a85287010000006a473044022076ee09d7fc66fb66cb814dab15d8169da405b0d0012da7dd8a0ebb67c4598fa1022018115a8e0962f35a11671b13cca08ed560371937bf19e204900efa54f2824d86012102a453511e3eea37f484d5e32da022d503bfaeed75e44f1d33c9c17895dda9a002feffffff84a63c42850d0ae2f72c42c0512130f51682a9d41d27c82cd61486a82f2221b1010000006a4730440220526e7f163cebed9bd2fe374a7cb6e2eafa214f994c47925347c18c93952f783b0220254aeedb0ff5f1781bd8850b8a13b254105648e94a9ee843e4de95cec15a0f50012103c93635b69bb9ed1fd9b8401074ac5974601a70be8d4aacefb8b1d4ba0fb4a056feffffff02e0e8fd0b000000001976a9147379e44f33500abe1f1db0a8847442efe4a9cb9c88ac54da6900000000001976a9140f2392a91d7fb349fdbb589a6d12bfdbec9050b988ac4fb71400"
    }, 
    {
      "txid": "68b1d2e73958873b97ddeb4c812192c7ce6b0b7cfa642b07c26ed5b4f4730c6e",
      "hash": "68b1d2e73958873b97ddeb4c812192c7ce6b0b7cfa642b07c26ed5b4f4730c6e",
      "version": 2,
      "size": 226,
      "vsize": 226,
      "locktime": 1357647,
      "vin": [
        {
          "txid": "25c5cc09e915e4d01887af4676ebdaecb5abdacf7c683c6ceac740d849339183",
          "vout": 1,
          "scriptSig": {
            "asm": "30450221008c0389e573f3314493b16d528b1f750afa9f5ebf69c5526eb93b74beae4513950220053891f6073952c09608f677bb5d266cf6f3830b9983dc5f090a14c0420e7979[ALL] 0325651477da193aaf522fb588f19180ba6cb49a9efcdaaa18be95988f01258cb3",
            "hex": "4830450221008c0389e573f3314493b16d528b1f750afa9f5ebf69c5526eb93b74beae4513950220053891f6073952c09608f677bb5d266cf6f3830b9983dc5f090a14c0420e797901210325651477da193aaf522fb588f19180ba6cb49a9efcdaaa18be95988f01258cb3"
          },
          "sequence": 4294967294
        }
      ],
      "vout": [
        {
          "value": 0.33249400,
          "n": 0,
          "scriptPubKey": {
            "asm": "OP_DUP OP_HASH160 f0f5ba9269253d155dd007848a454dd24e9bba27 OP_EQUALVERIFY OP_CHECKSIG",
            "hex": "76a914f0f5ba9269253d155dd007848a454dd24e9bba2788ac",
            "reqSigs": 1,
            "type": "pubkeyhash",
            "addresses": [
              "LhC2ongVMHJNbporETgqmEVouy53dSvrtj"
            ]
          }
        }, 
        {
          "value": 0.01002467,
          "n": 1,
          "scriptPubKey": {
            "asm": "OP_DUP OP_HASH160 43aebc077f3ae98bdce9d29c9493c2b647ff8e43 OP_EQUALVERIFY OP_CHECKSIG",
            "hex": "76a91443aebc077f3ae98bdce9d29c9493c2b647ff8e4388ac",
            "reqSigs": 1,
            "type": "pubkeyhash",
            "addresses": [
              "LRPprq97u2H2JCfm1BQ9gYJdbwNYMr8QRj"
            ]
          }
        }
      ],
      "hex": "020000000183913349d840c7ea6c3c687ccfdaabb5ecdaeb7646af8718d0e415e909ccc525010000006b4830450221008c0389e573f3314493b16d528b1f750afa9f5ebf69c5526eb93b74beae4513950220053891f6073952c09608f677bb5d266cf6f3830b9983dc5f090a14c0420e797901210325651477da193aaf522fb588f19180ba6cb49a9efcdaaa18be95988f01258cb3feffffff027858fb01000000001976a914f0f5ba9269253d155dd007848a454dd24e9bba2788ace34b0f00000000001976a91443aebc077f3ae98bdce9d29c9493c2b647ff8e4388ac4fb71400"
    }, 
    {
      "txid": "1ac48e155158a252f43a3faec236c92fd076201e23268ded2597213f6f78f8af",
      "hash": "1ac48e155158a252f43a3faec236c92fd076201e23268ded2597213f6f78f8af",
      "version": 1,
      "size": 226,
      "vsize": 226,
      "locktime": 0,
      "vin": [
        {
          "txid": "8d3a45d39e10393189eccabda4c7795c1218cc71a2ed37d19d70e290fad2aac7",
          "vout": 1,
          "scriptSig": {
            "asm": "3045022100ed8040b8437f50393ed2f74b08069f95ac88e81b5609d996dfcdc15d50569cda022063ab8cf0536d12f215e6014756a5246b293eb6e247c2a1a8d2fb823281a548bf[ALL] 03b0390bf96a9e849f987207046063db27e4184a40eb7f2219ebd0ccd2779d0674",
            "hex": "483045022100ed8040b8437f50393ed2f74b08069f95ac88e81b5609d996dfcdc15d50569cda022063ab8cf0536d12f215e6014756a5246b293eb6e247c2a1a8d2fb823281a548bf012103b0390bf96a9e849f987207046063db27e4184a40eb7f2219ebd0ccd2779d0674"
          },
          "sequence": 4294967295
        }
      ],
      "vout": [
        {
          "value": 59.08499622,
          "n": 0,
          "scriptPubKey": {
            "asm": "OP_DUP OP_HASH160 64627f3b0e05e4f56643ba00a380528cd02cf4ea OP_EQUALVERIFY OP_CHECKSIG",
            "hex": "76a91464627f3b0e05e4f56643ba00a380528cd02cf4ea88ac",
            "reqSigs": 1,
            "type": "pubkeyhash",
            "addresses": [
              "LUNjq61iN6RyYm8DLDKJgr359Mcxm32PQJ"
            ]
          }
        }, 
        {
          "value": 2.00000000,
          "n": 1,
          "scriptPubKey": {
            "asm": "OP_DUP OP_HASH160 b0f45995ae4a932c195837cdce8e35ad6a177ee8 OP_EQUALVERIFY OP_CHECKSIG",
            "hex": "76a914b0f45995ae4a932c195837cdce8e35ad6a177ee888ac",
            "reqSigs": 1,
            "type": "pubkeyhash",
            "addresses": [
              "LbMbuhwRsCPWBmj6qa8WMBqchryLKrECqR"
            ]
          }
        }
      ],
      "hex": "0100000001c7aad2fa90e2709dd137eda271cc18125c79c7a4bdcaec893139109ed3453a8d010000006b483045022100ed8040b8437f50393ed2f74b08069f95ac88e81b5609d996dfcdc15d50569cda022063ab8cf0536d12f215e6014756a5246b293eb6e247c2a1a8d2fb823281a548bf012103b0390bf96a9e849f987207046063db27e4184a40eb7f2219ebd0ccd2779d0674ffffffff02a68c2c60010000001976a91464627f3b0e05e4f56643ba00a380528cd02cf4ea88ac00c2eb0b000000001976a914b0f45995ae4a932c195837cdce8e35ad6a177ee888ac00000000"
    }, 
    {
      "txid": "4e1c03ce86477f44e6f63fad5bcc2d318d463f9fe99cc6fab35fc3236c1c97b2",
      "hash": "4e1c03ce86477f44e6f63fad5bcc2d318d463f9fe99cc6fab35fc3236c1c97b2",
      "version": 1,
      "size": 226,
      "vsize": 226,
      "locktime": 0,
      "vin": [
        {
          "txid": "744f7ca5552959dea3e6307ac39a962d7409523374a2bef1a3c5464831ca7643",
          "vout": 1,
          "scriptSig": {
            "asm": "3045022100908c072806b9ea8fa461c2e0d883d86e1432a1332aceb4821d08bdc88840846e02203f654b7c4a1867ebbc17329257a29886178fc19c8428e7e939a9f07342c5efbf[ALL] 03cd1390efba27bd1be910ed6967c138c1b64d21ccde2ffc4b7c96729c7a9b6cfe",
            "hex": "483045022100908c072806b9ea8fa461c2e0d883d86e1432a1332aceb4821d08bdc88840846e02203f654b7c4a1867ebbc17329257a29886178fc19c8428e7e939a9f07342c5efbf012103cd1390efba27bd1be910ed6967c138c1b64d21ccde2ffc4b7c96729c7a9b6cfe"
          },
          "sequence": 4294967295
        }
      ],
      "vout": [
        {
          "value": 62.25597477,
          "n": 0,
          "scriptPubKey": {
            "asm": "OP_DUP OP_HASH160 5ec662cb21c60f3e5be5591e78bafc34ab3a8656 OP_EQUALVERIFY OP_CHECKSIG",
            "hex": "76a9145ec662cb21c60f3e5be5591e78bafc34ab3a865688ac",
            "reqSigs": 1,
            "type": "pubkeyhash",
            "addresses": [
              "LTs5SLfesaXyk6wtZKCFG4yFaAefcywk2K"
            ]
          }
        }, 
        {
          "value": 2.99977400,
          "n": 1,
          "scriptPubKey": {
            "asm": "OP_DUP OP_HASH160 c2deba498631f6467344db9237979eaf6435eb82 OP_EQUALVERIFY OP_CHECKSIG",
            "hex": "76a914c2deba498631f6467344db9237979eaf6435eb8288ac",
            "reqSigs": 1,
            "type": "pubkeyhash",
            "addresses": [
              "LczLApT8JbXxj7bzXHvYuTkuktm9sABe79"
            ]
          }
        }
      ],
      "hex": "01000000014376ca314846c5a3f1bea274335209742d969ac37a30e6a3de592955a57c4f74010000006b483045022100908c072806b9ea8fa461c2e0d883d86e1432a1332aceb4821d08bdc88840846e02203f654b7c4a1867ebbc17329257a29886178fc19c8428e7e939a9f07342c5efbf012103cd1390efba27bd1be910ed6967c138c1b64d21ccde2ffc4b7c96729c7a9b6cfeffffffff0225141373010000001976a9145ec662cb21c60f3e5be5591e78bafc34ab3a865688acb84ae111000000001976a914c2deba498631f6467344db9237979eaf6435eb8288ac00000000"
    }
  ],
  "time": 1517030448,
  "mediantime": 1517030115,
  "nonce": 2813926229,
  "bits": "1a047f14",
  "difficulty": 3731199.183374282,
  "chainwork": "00000000000000000000000000000000000000000000003268724218b3c06954",
  "previousblockhash": "8b90769294d977cce47feef1760e738645293eba9fe16e6a5e1f9931733df380",
  "nextblockhash": "d3a1f5117f20ab0fd2e80fb7703f96884c5c2b4f4277b2cee3cd5f11b2ea9bdf"
}
