{
  "hash": "71b2d70997e45ce59ca933077e751fccb0f3b8503f4f3327c920afe0d1408e73",
  "confirmations": 2371,
  "strippedsize": 4225,
  "size": 4261,
  "weight": 16936,
  "height": 1358624,
  "version": 536870912,
  "versionHex": "20000000",
  "merkleroot": "1c32cb914f3b3fb5b70c8201312371ca93db0c5e095375f86107f53b729520df",
  "tx": [
    {
      "txid": "252a3500812466cf3d5501327769b008209602a47d94db88bf27ddadbce36bd7",
      "hash": "a0c70bc5170a5aaf7c5c25bdf89eb3c89a32a086e1432908608f991e8f4f81f7",
      "version": 1,
      "size": 253,
      "vsize": 226,
      "locktime": 0,
      "vin": [
        {
          "coinbase": "0320bb1441d69b895f426e7741d69b895ed8db6b2f4c54432e544f502ffabe6d6d5a1b013171bb0995b4c2dc2c73d1afd6371106b78f5f3cee041f313a94840f5b01000000000000005a28786ac000000000000000",
          "sequence": 4294967295
        }
      ],
      "vout": [
        {
          "value": 25.00910717,
          "n": 0,
          "scriptPubKey": {
            "asm": "OP_DUP OP_HASH160 0c617fdb2ea42aed30a509595ee21ba3f6688db0 OP_EQUALVERIFY OP_CHECKSIG",
            "hex": "76a9140c617fdb2ea42aed30a509595ee21ba3f6688db088ac",
            "reqSigs": 1,
            "type": "pubkeyhash",
            "addresses": [
              "LLMRAtr3qBje2ySEa3CnZ55LA4TQMWnRY3"
            ]
          }
        }, 
        {
          "value": 0.00000000,
          "n": 1,
          "scriptPubKey": {
            "asm": "OP_RETURN aa21a9ed1fea9e637d654c7f81b50f0ce7340a5af27c5f8b74fc8713ed9629388b349ec8",
            "hex": "6a24aa21a9ed1fea9e637d654c7f81b50f0ce7340a5af27c5f8b74fc8713ed9629388b349ec8",
            "type": "nulldata"
          }
        }
      ],
      "hex": "010000000001010000000000000000000000000000000000000000000000000000000000000000ffffffff550320bb1441d69b895f426e7741d69b895ed8db6b2f4c54432e544f502ffabe6d6d5a1b013171bb0995b4c2dc2c73d1afd6371106b78f5f3cee041f313a94840f5b01000000000000005a28786ac000000000000000ffffffff027dde1095000000001976a9140c617fdb2ea42aed30a509595ee21ba3f6688db088ac0000000000000000266a24aa21a9ed1fea9e637d654c7f81b50f0ce7340a5af27c5f8b74fc8713ed9629388b349ec80120000000000000000000000000000000000000000000000000000000000000000000000000"
    }, 
    {
      "txid": "5178094551503f7a4e5b5285ba7fcd9cdde786e994b58e33d4a64f80512aa950",
      "hash": "5178094551503f7a4e5b5285ba7fcd9cdde786e994b58e33d4a64f80512aa950",
      "version": 1,
      "size": 191,
      "vsize": 191,
      "locktime": 0,
      "vin": [
        {
          "txid": "50c9dfbe258d1affb2ded13ae81120a774bb8d23f017a665f13e916705dd5c7a",
          "vout": 1,
          "scriptSig": {
            "asm": "3044022044ee22b003eed6384c6dc5ec692a85d6be7571224a03245813352abd5513301902201a8d5b807a8db5b057fe5cca685765c085482f1525b2a1155f2e3196611c69fc[ALL] 02a0b5c805973ed5261bf6fc3d9e1bea0edf58871f3f23d2c43263239b5186834c",
            "hex": "473044022044ee22b003eed6384c6dc5ec692a85d6be7571224a03245813352abd5513301902201a8d5b807a8db5b057fe5cca685765c085482f1525b2a1155f2e3196611c69fc012102a0b5c805973ed5261bf6fc3d9e1bea0edf58871f3f23d2c43263239b5186834c"
          },
          "sequence": 4294967295
        }
      ],
      "vout": [
        {
          "value": 0.20817310,
          "n": 0,
          "scriptPubKey": {
            "asm": "OP_DUP OP_HASH160 a9ca3d9b9c738f9ad9a3b6e54c22d6d7801d55a2 OP_EQUALVERIFY OP_CHECKSIG",
            "hex": "76a914a9ca3d9b9c738f9ad9a3b6e54c22d6d7801d55a288ac",
            "reqSigs": 1,
            "type": "pubkeyhash",
            "addresses": [
              "LahijZQGeCJRwWy3cmu2u8KrAwYdwdgdKd"
            ]
          }
        }
      ],
      "hex": "01000000017a5cdd0567913ef165a617f0238dbb74a72011e83ad1deb2ff1a8d25bedfc950010000006a473044022044ee22b003eed6384c6dc5ec692a85d6be7571224a03245813352abd5513301902201a8d5b807a8db5b057fe5cca685765c085482f1525b2a1155f2e3196611c69fc012102a0b5c805973ed5261bf6fc3d9e1bea0edf58871f3f23d2c43263239b5186834cffffffff019ea53d01000000001976a914a9ca3d9b9c738f9ad9a3b6e54c22d6d7801d55a288ac00000000"
    }, 
    {
      "txid": "069c368043e98ef452cb391f5c340a7c7d9cd157d1183e3c0546ebeec629e1be",
      "hash": "069c368043e98ef452cb391f5c340a7c7d9cd157d1183e3c0546ebeec629e1be",
      "version": 1,
      "size": 339,
      "vsize": 339,
      "locktime": 0,
      "vin": [
        {
          "txid": "1813ded727e00e2884d3137a131240dd99631e84850ef2e8e10c0aad540514a2",
          "vout": 153,
          "scriptSig": {
            "asm": "3045022100c0e3645561e1488280780c60d195eb34b5b0dafee52c77014e9f6739fabffa6a02201aeb11502bc7197cedad6e6bfd2057b7677db2f938dbf6ceba93aa26531032f5[ALL] 02ae76f961391d38e113f4980698b62d309f63695f4b56b3f0ab5fbd06041f84d6",
            "hex": "483045022100c0e3645561e1488280780c60d195eb34b5b0dafee52c77014e9f6739fabffa6a02201aeb11502bc7197cedad6e6bfd2057b7677db2f938dbf6ceba93aa26531032f5012102ae76f961391d38e113f4980698b62d309f63695f4b56b3f0ab5fbd06041f84d6"
          },
          "sequence": 4294967295
        }, 
        {
          "txid": "6a0feb252b50789f26a05c4f2c4bc87975f4beba2eee4125e4faa0bbb97b4560",
          "vout": 122,
          "scriptSig": {
            "asm": "304402203eb3531047da087d042df32803396e31238dd374419a70bb67036fba040c22be02205657d11e97adb2993c396319bf4d4ad1943f1a652f5233de39e52742a8e54753[ALL] 02ae76f961391d38e113f4980698b62d309f63695f4b56b3f0ab5fbd06041f84d6",
            "hex": "47304402203eb3531047da087d042df32803396e31238dd374419a70bb67036fba040c22be02205657d11e97adb2993c396319bf4d4ad1943f1a652f5233de39e52742a8e54753012102ae76f961391d38e113f4980698b62d309f63695f4b56b3f0ab5fbd06041f84d6"
          },
          "sequence": 4294967295
        }
      ],
      "vout": [
        {
          "value": 0.05661521,
          "n": 0,
          "scriptPubKey": {
            "asm": "OP_DUP OP_HASH160 c362dd17e39d836fa5d99a09d5ccfd794d37b1f0 OP_EQUALVERIFY OP_CHECKSIG",
            "hex": "76a914c362dd17e39d836fa5d99a09d5ccfd794d37b1f088ac",
            "reqSigs": 1,
            "type": "pubkeyhash",
            "addresses": [
              "Ld34TnZxsjgzh2WPPS8QB1FS7FNYPywRis"
            ]
          }
        }
      ],
      "hex": "0100000002a2140554ad0a0ce1e8f20e85841e6399dd4012137a13d384280ee027d7de1318990000006b483045022100c0e3645561e1488280780c60d195eb34b5b0dafee52c77014e9f6739fabffa6a02201aeb11502bc7197cedad6e6bfd2057b7677db2f938dbf6ceba93aa26531032f5012102ae76f961391d38e113f4980698b62d309f63695f4b56b3f0ab5fbd06041f84d6ffffffff60457bb9bba0fae42541ee2ebabef47579c84b2c4f5ca0269f78502b25eb0f6a7a0000006a47304402203eb3531047da087d042df32803396e31238dd374419a70bb67036fba040c22be02205657d11e97adb2993c396319bf4d4ad1943f1a652f5233de39e52742a8e54753012102ae76f961391d38e113f4980698b62d309f63695f4b56b3f0ab5fbd06041f84d6ffffffff0151635600000000001976a914c362dd17e39d836fa5d99a09d5ccfd794d37b1f088ac00000000"
    }, 
    {
      "txid": "50da1d4323caca59026cd22fefb3dfa5d18f393ae3bddbc482b89f1407632eac",
      "hash": "50da1d4323caca59026cd22fefb3dfa5d18f393ae3bddbc482b89f1407632eac",
      "version": 1,
      "size": 485,
      "vsize": 485,
      "locktime": 1358622,
      "vin": [
        {
          "txid": "783fe1399ce5b430abd905aea6212d05da0cb09a5ab350f3a8f24163987e1372",
          "vout": 0,
          "scriptSig": {
            "asm": "304402205e159555194bde4de0943b0aa17d8029a0dba1c0acd8fb53d5966ca51dcf437c022028879d6352a59b1ca2b501fcaca71b8b50ccd635d342ba5b8374782b25abfa0f[ALL] 030d52912305d215bd69c238f41e51ed6c83e6aee42ed7bfff2f4f8d23e8ddeaab",
            "hex": "47304402205e159555194bde4de0943b0aa17d8029a0dba1c0acd8fb53d5966ca51dcf437c022028879d6352a59b1ca2b501fcaca71b8b50ccd635d342ba5b8374782b25abfa0f0121030d52912305d215bd69c238f41e51ed6c83e6aee42ed7bfff2f4f8d23e8ddeaab"
          },
          "sequence": 4294967294
        }, 
        {
          "txid": "e960dc107b8402146d6de1e3d8326f2f54c9c58a53603feffc2ad98a207a8053",
          "vout": 0,
          "scriptSig": {
            "asm": "3044022079da099e18f3a6c5de311a9f7e2f12bb9e377b1b44b14681f1540278560b0b7902204fdd44bf27c48256554cdb728ff66673c69250e8c0eccebd415acd665fc14acc[ALL] 030d52912305d215bd69c238f41e51ed6c83e6aee42ed7bfff2f4f8d23e8ddeaab",
            "hex": "473044022079da099e18f3a6c5de311a9f7e2f12bb9e377b1b44b14681f1540278560b0b7902204fdd44bf27c48256554cdb728ff66673c69250e8c0eccebd415acd665fc14acc0121030d52912305d215bd69c238f41e51ed6c83e6aee42ed7bfff2f4f8d23e8ddeaab"
          },
          "sequence": 4294967294
        }, 
        {
          "txid": "a61f23b481a30123cf4cfb515124daaedf163bc24fcddbe4dd3f2ddf8c853e91",
          "vout": 0,
          "scriptSig": {
            "asm": "304402201366f5bc52cf2228b7eea23ab926771aa2dd22b60e4463f2fcdce8182382b8360220159c3d951fce7498619008c3d875d0183f7044bbba68bdd1deb069acd54d2481[ALL] 0252910a85ec2010dfd799d9832113ac60d442d2ba650e214bc7028d7eb658ccdc",
            "hex": "47304402201366f5bc52cf2228b7eea23ab926771aa2dd22b60e4463f2fcdce8182382b8360220159c3d951fce7498619008c3d875d0183f7044bbba68bdd1deb069acd54d248101210252910a85ec2010dfd799d9832113ac60d442d2ba650e214bc7028d7eb658ccdc"
          },
          "sequence": 4294967294
        }
      ],
      "vout": [
        {
          "value": 520.95850983,
          "n": 0,
          "scriptPubKey": {
            "asm": "OP_DUP OP_HASH160 8ec878ec743eb68d712fbe1c0856eba331797b7a OP_EQUALVERIFY OP_CHECKSIG",
            "hex": "76a9148ec878ec743eb68d712fbe1c0856eba331797b7a88ac",
            "reqSigs": 1,
            "type": "pubkeyhash",
            "addresses": [
              "LYEvNWuxefmeFFgNjtyLPAKUCY6LcC4FFc"
            ]
          }
        }
      ],
      "hex": "010000000372137e986341f2a8f350b35a9ab00cda052d21a6ae05d9ab30b4e59c39e13f78000000006a47304402205e159555194bde4de0943b0aa17d8029a0dba1c0acd8fb53d5966ca51dcf437c022028879d6352a59b1ca2b501fcaca71b8b50ccd635d342ba5b8374782b25abfa0f0121030d52912305d215bd69c238f41e51ed6c83e6aee42ed7bfff2f4f8d23e8ddeaabfeffffff53807a208ad92afcef3f60538ac5c9542f6f32d8e3e16d6d1402847b10dc60e9000000006a473044022079da099e18f3a6c5de311a9f7e2f12bb9e377b1b44b14681f1540278560b0b7902204fdd44bf27c48256554cdb728ff66673c69250e8c0eccebd415acd665fc14acc0121030d52912305d215bd69c238f41e51ed6c83e6aee42ed7bfff2f4f8d23e8ddeaabfeffffff913e858cdf2d3fdde4dbcd4fc23b16dfaeda245151fb4ccf2301a381b4231fa6000000006a47304402201366f5bc52cf2228b7eea23ab926771aa2dd22b60e4463f2fcdce8182382b8360220159c3d951fce7498619008c3d875d0183f7044bbba68bdd1deb069acd54d248101210252910a85ec2010dfd799d9832113ac60d442d2ba650e214bc7028d7eb658ccdcfeffffff01e79927210c0000001976a9148ec878ec743eb68d712fbe1c0856eba331797b7a88ac1ebb1400"
    }, 
    {
      "txid": "bee574bd89de5f57a6c4e5d87bfe14ac8f0a14d877e756ab17c713d24459134e",
      "hash": "bee574bd89de5f57a6c4e5d87bfe14ac8f0a14d877e756ab17c713d24459134e",
      "version": 1,
      "size": 225,
      "vsize": 225,
      "locktime": 0,
      "vin": [
        {
          "txid": "78d7b00c0f2316891ac901206cdff4769374b77ea102b408e3e8d4bf4de0b41d",
          "vout": 0,
          "scriptSig": {
            "asm": "304402201126a56814ffc3e9b9f020a88868959bf09bdd656fb824a8190408e05513239402202e3231e7da5ae60370eecc98afdb0bf113026ed9991643e601945f87b010d53f[ALL] 03314b1ada6e63447736cbc8c1d14b4d5ae9f987d7da216d22ac9945a5c66c0e55",
            "hex": "47304402201126a56814ffc3e9b9f020a88868959bf09bdd656fb824a8190408e05513239402202e3231e7da5ae60370eecc98afdb0bf113026ed9991643e601945f87b010d53f012103314b1ada6e63447736cbc8c1d14b4d5ae9f987d7da216d22ac9945a5c66c0e55"
          },
          "sequence": 4294967295
        }
      ],
      "vout": [
        {
          "value": 2.95932583,
          "n": 0,
          "scriptPubKey": {
            "asm": "OP_DUP OP_HASH160 afee30b49065836b48fbb9c2a5ebdc47ebdff283 OP_EQUALVERIFY OP_CHECKSIG",
            "hex": "76a914afee30b49065836b48fbb9c2a5ebdc47ebdff28388ac",
            "reqSigs": 1,
            "type": "pubkeyhash",
            "addresses": [
              "LbGBrXqG1S2QX1L7Z4qvdZ5uKNRHWQWnd8"
            ]
          }
        }, 
        {
          "value": 0.04044817,
          "n": 1,
          "scriptPubKey": {
            "asm": "OP_DUP OP_HASH160 1e28a68e263d0aa1892856320052d4207cd95386 OP_EQUALVERIFY OP_CHECKSIG",
            "hex": "76a9141e28a68e263d0aa1892856320052d4207cd9538688ac",
            "reqSigs": 1,
            "type": "pubkeyhash",
            "addresses": [
              "LMyRERQTcN7eFtmfuBLdndc5sFx1zFVTAd"
            ]
          }
        }
      ],
      "hex": "01000000011db4e04dbfd4e8e308b402a17eb7749376f4df6c2001c91a8916230f0cb0d778000000006a47304402201126a56814ffc3e9b9f020a88868959bf09bdd656fb824a8190408e05513239402202e3231e7da5ae60370eecc98afdb0bf113026ed9991643e601945f87b010d53f012103314b1ada6e63447736cbc8c1d14b4d5ae9f987d7da216d22ac9945a5c66c0e55ffffffff02a792a311000000001976a914afee30b49065836b48fbb9c2a5ebdc47ebdff28388ac11b83d00000000001976a9141e28a68e263d0aa1892856320052d4207cd9538688ac00000000"
    }, 
    {
      "txid": "4b09ec6d3cfc5197be4d9f5f6396b462d5a0e73f28cf37b4a10bafa567e98898",
      "hash": "4b09ec6d3cfc5197be4d9f5f6396b462d5a0e73f28cf37b4a10bafa567e98898",
      "version": 1,
      "size": 225,
      "vsize": 225,
      "locktime": 0,
      "vin": [
        {
          "txid": "544d5242864cedf32a9667b9c6c3a1d9a335850f8ce2e4db63da0b3b3f2e42c6",
          "vout": 0,
          "scriptSig": {
            "asm": "304402200ce0f780f8ed8f2d187f19728933f1527fad150dd81639a6bf741d403cb2b6c702204581f0981521511b28a41019ea44f4f491f2b3d7b32d05fccf00bc9f704cb23f[ALL] 03d619094b6002093dcb55cc165fcfed9c82978de697d6c15e53cbf252722220c7",
            "hex": "47304402200ce0f780f8ed8f2d187f19728933f1527fad150dd81639a6bf741d403cb2b6c702204581f0981521511b28a41019ea44f4f491f2b3d7b32d05fccf00bc9f704cb23f012103d619094b6002093dcb55cc165fcfed9c82978de697d6c15e53cbf252722220c7"
          },
          "sequence": 4294967295
        }
      ],
      "vout": [
        {
          "value": 0.42217288,
          "n": 0,
          "scriptPubKey": {
            "asm": "OP_DUP OP_HASH160 165a5ab8246d8f8fae57e591492002271cf3b90b OP_EQUALVERIFY OP_CHECKSIG",
            "hex": "76a914165a5ab8246d8f8fae57e591492002271cf3b90b88ac",
            "reqSigs": 1,
            "type": "pubkeyhash",
            "addresses": [
              "LMG9NN8YcfipRvjjwVXKng39cEME9ZGA9W"
            ]
          }
        }, 
        {
          "value": 0.03778085,
          "n": 1,
          "scriptPubKey": {
            "asm": "OP_DUP OP_HASH160 5d13e541221762278c4a02d1b5fa55c59b9a7a18 OP_EQUALVERIFY OP_CHECKSIG",
            "hex": "76a9145d13e541221762278c4a02d1b5fa55c59b9a7a1888ac",
            "reqSigs": 1,
            "type": "pubkeyhash",
            "addresses": [
              "LTi6wREHuKrEQV3nuGUfW6aqF5XiCqYsPX"
            ]
          }
        }
      ],
      "hex": "0100000001c6422e3f3b0bda63dbe4e28c0f8535a3d9a1c3c6b967962af3ed4c8642524d54000000006a47304402200ce0f780f8ed8f2d187f19728933f1527fad150dd81639a6bf741d403cb2b6c702204581f0981521511b28a41019ea44f4f491f2b3d7b32d05fccf00bc9f704cb23f012103d619094b6002093dcb55cc165fcfed9c82978de697d6c15e53cbf252722220c7ffffffff02482f8402000000001976a914165a5ab8246d8f8fae57e591492002271cf3b90b88ac25a63900000000001976a9145d13e541221762278c4a02d1b5fa55c59b9a7a1888ac00000000"
    }, 
    {
      "txid": "6154e5ccfac4fc2621edef0ffc60e9270215f3cd89780542f37eee2e12693899",
      "hash": "6154e5ccfac4fc2621edef0ffc60e9270215f3cd89780542f37eee2e12693899",
      "version": 1,
      "size": 225,
      "vsize": 225,
      "locktime": 0,
      "vin": [
        {
          "txid": "8b520be7028fc7bd0208a9f1accc5266c6f46e121d7962e8303103381a9e22d6",
          "vout": 1,
          "scriptSig": {
            "asm": "30440220692832f634f8f1a64ae6b632f81e0b594baa7cad888582c3e1a18133f44072d502200b23e1ce112ff469a9f863125ffa0e898669a1c73d3cb8c181d38b1317453395[ALL] 02105cef8c2f258b32404066c91bc5960edfba95e21ca0ace0c55246416f44417b",
            "hex": "4730440220692832f634f8f1a64ae6b632f81e0b594baa7cad888582c3e1a18133f44072d502200b23e1ce112ff469a9f863125ffa0e898669a1c73d3cb8c181d38b1317453395012102105cef8c2f258b32404066c91bc5960edfba95e21ca0ace0c55246416f44417b"
          },
          "sequence": 4294967295
        }
      ],
      "vout": [
        {
          "value": 0.00057176,
          "n": 0,
          "scriptPubKey": {
            "asm": "OP_DUP OP_HASH160 7239214af8434772af553f4f60a8278f7651b1ec OP_EQUALVERIFY OP_CHECKSIG",
            "hex": "76a9147239214af8434772af553f4f60a8278f7651b1ec88ac",
            "reqSigs": 1,
            "type": "pubkeyhash",
            "addresses": [
              "LVdujYgtnDksXyGKxcteVaSiVdXsu9YRGP"
            ]
          }
        }, 
        {
          "value": 0.01953124,
          "n": 1,
          "scriptPubKey": {
            "asm": "OP_DUP OP_HASH160 2e4f6b5ba968785b37dbce8b5f30920f5cc8b462 OP_EQUALVERIFY OP_CHECKSIG",
            "hex": "76a9142e4f6b5ba968785b37dbce8b5f30920f5cc8b46288ac",
            "reqSigs": 1,
            "type": "pubkeyhash",
            "addresses": [
              "LPSpVC4nv6uqnfAyeZD9QkXeW2XKKRmQsM"
            ]
          }
        }
      ],
      "hex": "0100000001d6229e1a38033130e862791d126ef4c66652ccacf1a90802bdc78f02e70b528b010000006a4730440220692832f634f8f1a64ae6b632f81e0b594baa7cad888582c3e1a18133f44072d502200b23e1ce112ff469a9f863125ffa0e898669a1c73d3cb8c181d38b1317453395012102105cef8c2f258b32404066c91bc5960edfba95e21ca0ace0c55246416f44417bffffffff0258df0000000000001976a9147239214af8434772af553f4f60a8278f7651b1ec88ac64cd1d00000000001976a9142e4f6b5ba968785b37dbce8b5f30920f5cc8b46288ac00000000"
    }, 
    {
      "txid": "a07e0b6c7025ec12048070e65e575ec4fe9c2d0405a7339bf0be44261dea319c",
      "hash": "a07e0b6c7025ec12048070e65e575ec4fe9c2d0405a7339bf0be44261dea319c",
      "version": 1,
      "size": 225,
      "vsize": 225,
      "locktime": 0,
      "vin": [
        {
          "txid": "e1de508c7456d918d368546ac53d8685b76e3d856e7d22033f2ee88781a60057",
          "vout": 1,
          "scriptSig": {
            "asm": "304402205b57c84cbc007d6697e2cd98560a55ffd5e1d690b41d34345bd2ac0c1dfaf0ff022005ac1b5edba723df82e4074e45de9af4953af6319839e9fe3475ea8e7a7fdf3d[ALL] 03741cf2e824a5bedf625a33103e595f615d084afc1f4eccaf5ce0587e975f97bf",
            "hex": "47304402205b57c84cbc007d6697e2cd98560a55ffd5e1d690b41d34345bd2ac0c1dfaf0ff022005ac1b5edba723df82e4074e45de9af4953af6319839e9fe3475ea8e7a7fdf3d012103741cf2e824a5bedf625a33103e595f615d084afc1f4eccaf5ce0587e975f97bf"
          },
          "sequence": 4294967295
        }
      ],
      "vout": [
        {
          "value": 0.02620000,
          "n": 0,
          "scriptPubKey": {
            "asm": "OP_DUP OP_HASH160 42b8d340588b61769bd651625049be28bdf534fa OP_EQUALVERIFY OP_CHECKSIG",
            "hex": "76a91442b8d340588b61769bd651625049be28bdf534fa88ac",
            "reqSigs": 1,
            "type": "pubkeyhash",
            "addresses": [
              "LRJkGkgLsAkq1UmBknr7FiwcKXZFwpo4Js"
            ]
          }
        }, 
        {
          "value": 0.00059400,
          "n": 1,
          "scriptPubKey": {
            "asm": "OP_DUP OP_HASH160 d0233e6d41a319ed07f7cd2f9e5f90a3edf5059e OP_EQUALVERIFY OP_CHECKSIG",
            "hex": "76a914d0233e6d41a319ed07f7cd2f9e5f90a3edf5059e88ac",
            "reqSigs": 1,
            "type": "pubkeyhash",
            "addresses": [
              "LeCV2u8otRq5TL9XMi7jDjYC4XNjBRYZoj"
            ]
          }
        }
      ],
      "hex": "01000000015700a68187e82e3f03227d6e853d6eb785863dc56a5468d318d956748c50dee1010000006a47304402205b57c84cbc007d6697e2cd98560a55ffd5e1d690b41d34345bd2ac0c1dfaf0ff022005ac1b5edba723df82e4074e45de9af4953af6319839e9fe3475ea8e7a7fdf3d012103741cf2e824a5bedf625a33103e595f615d084afc1f4eccaf5ce0587e975f97bfffffffff0260fa2700000000001976a91442b8d340588b61769bd651625049be28bdf534fa88ac08e80000000000001976a914d0233e6d41a319ed07f7cd2f9e5f90a3edf5059e88ac00000000"
    }, 
    {
      "txid": "6f537d2b33dfe8f692b9da80e908d2f04277a309464ddc7131607a4c6ca869b4",
      "hash": "6f537d2b33dfe8f692b9da80e908d2f04277a309464ddc7131607a4c6ca869b4",
      "version": 1,
      "size": 520,
      "vsize": 520,
      "locktime": 1358622,
      "vin": [
        {
          "txid": "3ade4677258c52132325c3bd939864f31e22d01bbc26744db1aeebe6f1becdad",
          "vout": 0,
          "scriptSig": {
            "asm": "3045022100f859e38a981d0f8a2060a2c56b7b28c6ebeaf5e5ac84984b58ee1ae9c2304aa102206c0eeec1fca42831bd55e1e0d677c0cced9bc0f7ef3b0bebddbe2009a3f7221f[ALL] 024cd80d0292d8a08b3ac68ab8ab5fc8aae9d9b2c5033b872b60983cebba919909",
            "hex": "483045022100f859e38a981d0f8a2060a2c56b7b28c6ebeaf5e5ac84984b58ee1ae9c2304aa102206c0eeec1fca42831bd55e1e0d677c0cced9bc0f7ef3b0bebddbe2009a3f7221f0121024cd80d0292d8a08b3ac68ab8ab5fc8aae9d9b2c5033b872b60983cebba919909"
          },
          "sequence": 4294967294
        }, 
        {
          "txid": "06dd4340fdcfc613245eb3c9273db735c739a09a95d01caa0902bcc14195421d",
          "vout": 0,
          "scriptSig": {
            "asm": "3044022071d29431e1290a1878f849e8ff66d06445999384920ac812a395b354cbc0e1fe02201e678f35154560d47902363cfb0bd98c6a2d7859fd8a1dd6bd103e72d4367f00[ALL] 02bd94ceb81c7b564d8910177d2e96cee483a950fa19162e289e75d9f808f80e79",
            "hex": "473044022071d29431e1290a1878f849e8ff66d06445999384920ac812a395b354cbc0e1fe02201e678f35154560d47902363cfb0bd98c6a2d7859fd8a1dd6bd103e72d4367f00012102bd94ceb81c7b564d8910177d2e96cee483a950fa19162e289e75d9f808f80e79"
          },
          "sequence": 4294967294
        }, 
        {
          "txid": "ec37ac5435e4566044cdea66961ffca2fc9256dc9045ca9976f51e10b8ad17d3",
          "vout": 1,
          "scriptSig": {
            "asm": "304402203b30b80667ca3683b8401212b674641604e0852619be1807a684fbd742124ab4022078a4612f3dec777f8767eb656cd8be3dde683aeb7a5205ea65ec13b8305de38e[ALL] 03dbb5ee689df2332ce860339979cf89c25284fb0741309a2bfc8a5aac1c78db09",
            "hex": "47304402203b30b80667ca3683b8401212b674641604e0852619be1807a684fbd742124ab4022078a4612f3dec777f8767eb656cd8be3dde683aeb7a5205ea65ec13b8305de38e012103dbb5ee689df2332ce860339979cf89c25284fb0741309a2bfc8a5aac1c78db09"
          },
          "sequence": 4294967294
        }
      ],
      "vout": [
        {
          "value": 0.02338158,
          "n": 0,
          "scriptPubKey": {
            "asm": "OP_DUP OP_HASH160 862786aa7ef1f2e5edc08752486095a7b3dd1834 OP_EQUALVERIFY OP_CHECKSIG",
            "hex": "76a914862786aa7ef1f2e5edc08752486095a7b3dd183488ac",
            "reqSigs": 1,
            "type": "pubkeyhash",
            "addresses": [
              "LXTJAEcuoQyg1LRU1AXac61Eauxq6xPQvP"
            ]
          }
        }, 
        {
          "value": 0.01001313,
          "n": 1,
          "scriptPubKey": {
            "asm": "OP_DUP OP_HASH160 a6c1a183b14e214d2b260064f31f1f1771a9f3ab OP_EQUALVERIFY OP_CHECKSIG",
            "hex": "76a914a6c1a183b14e214d2b260064f31f1f1771a9f3ab88ac",
            "reqSigs": 1,
            "type": "pubkeyhash",
            "addresses": [
              "LaRgPmYKJyUU1dt5subGxV7SxJ87jcxPWw"
            ]
          }
        }
      ],
      "hex": "0100000003adcdbef1e6ebaeb14d7426bc1bd0221ef3649893bdc3252313528c257746de3a000000006b483045022100f859e38a981d0f8a2060a2c56b7b28c6ebeaf5e5ac84984b58ee1ae9c2304aa102206c0eeec1fca42831bd55e1e0d677c0cced9bc0f7ef3b0bebddbe2009a3f7221f0121024cd80d0292d8a08b3ac68ab8ab5fc8aae9d9b2c5033b872b60983cebba919909feffffff1d429541c1bc0209aa1cd0959aa039c735b73d27c9b35e2413c6cffd4043dd06000000006a473044022071d29431e1290a1878f849e8ff66d06445999384920ac812a395b354cbc0e1fe02201e678f35154560d47902363cfb0bd98c6a2d7859fd8a1dd6bd103e72d4367f00012102bd94ceb81c7b564d8910177d2e96cee483a950fa19162e289e75d9f808f80e79feffffffd317adb8101ef57699ca4590dc5692fca2fc1f9666eacd446056e43554ac37ec010000006a47304402203b30b80667ca3683b8401212b674641604e0852619be1807a684fbd742124ab4022078a4612f3dec777f8767eb656cd8be3dde683aeb7a5205ea65ec13b8305de38e012103dbb5ee689df2332ce860339979cf89c25284fb0741309a2bfc8a5aac1c78db09feffffff026ead2300000000001976a914862786aa7ef1f2e5edc08752486095a7b3dd183488ac61470f00000000001976a914a6c1a183b14e214d2b260064f31f1f1771a9f3ab88ac1ebb1400"
    }, 
    {
      "txid": "4a1b2a6605b56fc7f124856b81f3c03df4939dc5ac9467d45f660d9dce08ef04",
      "hash": "4a1b2a6605b56fc7f124856b81f3c03df4939dc5ac9467d45f660d9dce08ef04",
      "version": 1,
      "size": 226,
      "vsize": 226,
      "locktime": 0,
      "vin": [
        {
          "txid": "f335b0501cdf0c647612142a109a1b1ab39f72d52d8a2e68201d47f2339d3076",
          "vout": 0,
          "scriptSig": {
            "asm": "3045022100d3563b500ae904a3e1d94ec1c92668507480c2ee9c5f5cf777e444037bb885de022025c4a2c51be2507d18da844c3f685f7771d60846e0e5318989999b47dd2416ae[ALL] 029d4ed3f0b6d472f2c27a478a6d2607a7149810c24afd145251e4ce4130e16cc8",
            "hex": "483045022100d3563b500ae904a3e1d94ec1c92668507480c2ee9c5f5cf777e444037bb885de022025c4a2c51be2507d18da844c3f685f7771d60846e0e5318989999b47dd2416ae0121029d4ed3f0b6d472f2c27a478a6d2607a7149810c24afd145251e4ce4130e16cc8"
          },
          "sequence": 4294967295
        }
      ],
      "vout": [
        {
          "value": 0.67754669,
          "n": 0,
          "scriptPubKey": {
            "asm": "OP_DUP OP_HASH160 a4dec4477485c79bcd29cf90ea6833ba905c854b OP_EQUALVERIFY OP_CHECKSIG",
            "hex": "76a914a4dec4477485c79bcd29cf90ea6833ba905c854b88ac",
            "reqSigs": 1,
            "type": "pubkeyhash",
            "addresses": [
              "LaFhwmxVFTMxZNfAGFwK6fJ93bgUW7wdRM"
            ]
          }
        }, 
        {
          "value": 1.00000000,
          "n": 1,
          "scriptPubKey": {
            "asm": "OP_DUP OP_HASH160 c5641108b7653f37ead262925b598c411ec99887 OP_EQUALVERIFY OP_CHECKSIG",
            "hex": "76a914c5641108b7653f37ead262925b598c411ec9988788ac",
            "reqSigs": 1,
            "type": "pubkeyhash",
            "addresses": [
              "LdDfFkNgriRgm9dHKnFcyYZHumAvvVKSM3"
            ]
          }
        }
      ],
      "hex": "010000000176309d33f2471d20682e8a2dd5729fb31a1b9a102a141276640cdf1c50b035f3000000006b483045022100d3563b500ae904a3e1d94ec1c92668507480c2ee9c5f5cf777e444037bb885de022025c4a2c51be2507d18da844c3f685f7771d60846e0e5318989999b47dd2416ae0121029d4ed3f0b6d472f2c27a478a6d2607a7149810c24afd145251e4ce4130e16cc8ffffffff02adda0904000000001976a914a4dec4477485c79bcd29cf90ea6833ba905c854b88ac00e1f505000000001976a914c5641108b7653f37ead262925b598c411ec9988788ac00000000"
    }, 
    {
      "txid": "e99c66859960cf5229cdb734bd635d07e114b723fbb2039503ca037a144aad2e",
      "hash": "e99c66859960cf5229cdb734bd635d07e114b723fbb2039503ca037a144aad2e",
      "version": 1,
      "size": 226,
      "vsize": 226,
      "locktime": 0,
      "vin": [
        {
          "txid": "a43826ce93611eb2e872444634a3ec1f529051445f6e10b31e3af529b21b1ec1",
          "vout": 484,
          "scriptSig": {
            "asm": "3045022100dd19db31e2c7c006d6d54f0921f6c12e87d0251cbb617200fe99b49f1114364602207fda1dc1e6ea75a95de8c6e410b90b48622e0255fe81b9da761128953067461e[ALL] 035052c4a9e50cdb8e34013bb32e3eb81e0d24612506cbfe6019b0fab684beca08",
            "hex": "483045022100dd19db31e2c7c006d6d54f0921f6c12e87d0251cbb617200fe99b49f1114364602207fda1dc1e6ea75a95de8c6e410b90b48622e0255fe81b9da761128953067461e0121035052c4a9e50cdb8e34013bb32e3eb81e0d24612506cbfe6019b0fab684beca08"
          },
          "sequence": 4294967295
        }
      ],
      "vout": [
        {
          "value": 0.05954183,
          "n": 0,
          "scriptPubKey": {
            "asm": "OP_DUP OP_HASH160 e1e17ec84e6a9f8a16ae5a1f0abfc15cd22c6a0f OP_EQUALVERIFY OP_CHECKSIG",
            "hex": "76a914e1e17ec84e6a9f8a16ae5a1f0abfc15cd22c6a0f88ac",
            "reqSigs": 1,
            "type": "pubkeyhash",
            "addresses": [
              "LfpJS4NzfPY6ZXgv2aeMobxbQuMYxg6bU2"
            ]
          }
        }, 
        {
          "value": 0.00057816,
          "n": 1,
          "scriptPubKey": {
            "asm": "OP_DUP OP_HASH160 1099a6cb0bb1c0057124dc9b5a873fa128d5e9b3 OP_EQUALVERIFY OP_CHECKSIG",
            "hex": "76a9141099a6cb0bb1c0057124dc9b5a873fa128d5e9b388ac",
            "reqSigs": 1,
            "type": "pubkeyhash",
            "addresses": [
              "LLjj9BHbVgv59LmfXwnejWCniBcQXvT5wy"
            ]
          }
        }
      ],
      "hex": "0100000001c11e1bb229f53a1eb3106e5f445190521feca334464472e8b21e6193ce2638a4e40100006b483045022100dd19db31e2c7c006d6d54f0921f6c12e87d0251cbb617200fe99b49f1114364602207fda1dc1e6ea75a95de8c6e410b90b48622e0255fe81b9da761128953067461e0121035052c4a9e50cdb8e34013bb32e3eb81e0d24612506cbfe6019b0fab684beca08ffffffff0287da5a00000000001976a914e1e17ec84e6a9f8a16ae5a1f0abfc15cd22c6a0f88acd8e10000000000001976a9141099a6cb0bb1c0057124dc9b5a873fa128d5e9b388ac00000000"
    }, 
    {
      "txid": "b750c5129f858b2021f68d0d227f413805108184272a48e4f42ea2568af64d64",
      "hash": "b750c5129f858b2021f68d0d227f413805108184272a48e4f42ea2568af64d64",
      "version": 2,
      "size": 362,
      "vsize": 362,
      "locktime": 1358622,
      "vin": [
        {
          "txid": "5879c56a66f84231b1d332a18a0b6dd046979b096296bbeabe9d6db403ded00b",
          "vout": 1,
          "scriptSig": {
            "asm": "30450221009c53af2fa0bd370e1cd1d1cb9f7856261e766b6034016b0e03126affebca76260220133c5d173b37d16458bfa7864634ab1bce24eefcb3cab6493e831c5311e2a7e9[ALL] 0350ae00d3c1536a53d422869e6b7017cc00db3e7e80f4c64eb8890da57b5ba259",
            "hex": "4830450221009c53af2fa0bd370e1cd1d1cb9f7856261e766b6034016b0e03126affebca76260220133c5d173b37d16458bfa7864634ab1bce24eefcb3cab6493e831c5311e2a7e901210350ae00d3c1536a53d422869e6b7017cc00db3e7e80f4c64eb8890da57b5ba259"
          },
          "sequence": 4294967294
        }
      ],
      "vout": [
        {
          "value": 0.07812624,
          "n": 0,
          "scriptPubKey": {
            "asm": "OP_DUP OP_HASH160 2b11842c55b4cce665c52c38f09597e603819f82 OP_EQUALVERIFY OP_CHECKSIG",
            "hex": "76a9142b11842c55b4cce665c52c38f09597e603819f8288ac",
            "reqSigs": 1,
            "type": "pubkeyhash",
            "addresses": [
              "LP9gJWs25mSS2S6de1MEcdaor8zDW1ND7S"
            ]
          }
        }, 
        {
          "value": 0.00273628,
          "n": 1,
          "scriptPubKey": {
            "asm": "OP_DUP OP_HASH160 667d50463d5460f4ea16c4eb728cc6e06f2183af OP_EQUALVERIFY OP_CHECKSIG",
            "hex": "76a914667d50463d5460f4ea16c4eb728cc6e06f2183af88ac",
            "reqSigs": 1,
            "type": "pubkeyhash",
            "addresses": [
              "LUZsJig4hEdbcyFix87DKLoe5oeFFq2iRP"
            ]
          }
        }, 
        {
          "value": 0.05776948,
          "n": 2,
          "scriptPubKey": {
            "asm": "OP_DUP OP_HASH160 0527764b91f43a43ad5278598b0b4b20b9c45e69 OP_EQUALVERIFY OP_CHECKSIG",
            "hex": "76a9140527764b91f43a43ad5278598b0b4b20b9c45e6988ac",
            "reqSigs": 1,
            "type": "pubkeyhash",
            "addresses": [
              "LKhCv3dyCkrGWPQ7zU8ys9SZ9TyRJHDtM8"
            ]
          }
        }, 
        {
          "value": 0.56285036,
          "n": 3,
          "scriptPubKey": {
            "asm": "OP_DUP OP_HASH160 ed9f8229a88f8fc4765abc8589c6e3b9900a9a92 OP_EQUALVERIFY OP_CHECKSIG",
            "hex": "76a914ed9f8229a88f8fc4765abc8589c6e3b9900a9a9288ac",
            "reqSigs": 1,
            "type": "pubkeyhash",
            "addresses": [
              "LgtPVX18NexZcz7X1ahi2uxtF3WApKEicA"
            ]
          }
        }, 
        {
          "value": 0.06074864,
          "n": 4,
          "scriptPubKey": {
            "asm": "OP_DUP OP_HASH160 bda64b6d1da431da23824c786e92f3fd85914099 OP_EQUALVERIFY OP_CHECKSIG",
            "hex": "76a914bda64b6d1da431da23824c786e92f3fd8591409988ac",
            "reqSigs": 1,
            "type": "pubkeyhash",
            "addresses": [
              "LcWjBpfjSWx3RSCHfg2gprvAqugzJbY9J8"
            ]
          }
        }, 
        {
          "value": 1.94680100,
          "n": 5,
          "scriptPubKey": {
            "asm": "OP_DUP OP_HASH160 0b63099b1cae666260eece000d9a55b991c92d2b OP_EQUALVERIFY OP_CHECKSIG",
            "hex": "76a9140b63099b1cae666260eece000d9a55b991c92d2b88ac",
            "reqSigs": 1,
            "type": "pubkeyhash",
            "addresses": [
              "LLGALa4ibcx5jKNDw7dczovu29DbgPohPZ"
            ]
          }
        }
      ],
      "hex": "02000000010bd0de03b46d9dbeeabb9662099b9746d06d0b8aa132d3b13142f8666ac57958010000006b4830450221009c53af2fa0bd370e1cd1d1cb9f7856261e766b6034016b0e03126affebca76260220133c5d173b37d16458bfa7864634ab1bce24eefcb3cab6493e831c5311e2a7e901210350ae00d3c1536a53d422869e6b7017cc00db3e7e80f4c64eb8890da57b5ba259feffffff0610367700000000001976a9142b11842c55b4cce665c52c38f09597e603819f8288acdc2c0400000000001976a914667d50463d5460f4ea16c4eb728cc6e06f2183af88ac34265800000000001976a9140527764b91f43a43ad5278598b0b4b20b9c45e6988ac6cd75a03000000001976a914ed9f8229a88f8fc4765abc8589c6e3b9900a9a9288acf0b15c00000000001976a914bda64b6d1da431da23824c786e92f3fd8591409988ac24959a0b000000001976a9140b63099b1cae666260eece000d9a55b991c92d2b88ac1ebb1400"
    }, 
    {
      "txid": "79b53d228206df5cec8068c7404c983c193088f5375f72fb144cf47e847e5a9a",
      "hash": "79b53d228206df5cec8068c7404c983c193088f5375f72fb144cf47e847e5a9a",
      "version": 1,
      "size": 226,
      "vsize": 226,
      "locktime": 0,
      "vin": [
        {
          "txid": "9aec717e24062b7b338b37f38627ba16a3d13a9804aba24dbf343b0141004e2c",
          "vout": 1,
          "scriptSig": {
            "asm": "3045022100e57601d90350a0979fc42bba3408d6d13a12829d1665828a138c73a7fe8be08f02201d809df59b16230b5ae49babd85d7a98037faac83cc2c6d59598a7a15d92a109[ALL] 03b41597e8b181fd79f2f380aeebd13512736738bde4b84e78f59b2422c14c1ddc",
            "hex": "483045022100e57601d90350a0979fc42bba3408d6d13a12829d1665828a138c73a7fe8be08f02201d809df59b16230b5ae49babd85d7a98037faac83cc2c6d59598a7a15d92a109012103b41597e8b181fd79f2f380aeebd13512736738bde4b84e78f59b2422c14c1ddc"
          },
          "sequence": 4294967295
        }
      ],
      "vout": [
        {
          "value": 0.00154091,
          "n": 0,
          "scriptPubKey": {
            "asm": "OP_DUP OP_HASH160 098b86ebae1de7a42202d715ced444a37384210f OP_EQUALVERIFY OP_CHECKSIG",
            "hex": "76a914098b86ebae1de7a42202d715ced444a37384210f88ac",
            "reqSigs": 1,
            "type": "pubkeyhash",
            "addresses": [
              "LL6RVSvTuZrbDvXT4RVhs4mGWwzhDCNUzz"
            ]
          }
        }, 
        {
          "value": 0.13761000,
          "n": 1,
          "scriptPubKey": {
            "asm": "OP_DUP OP_HASH160 a3385511a3f695949db908676d46e628e4abddce OP_EQUALVERIFY OP_CHECKSIG",
            "hex": "76a914a3385511a3f695949db908676d46e628e4abddce88ac",
            "reqSigs": 1,
            "type": "pubkeyhash",
            "addresses": [
              "La6ytX1Z6snCTaxibp6zRe8HawDhaXkaWg"
            ]
          }
        }
      ],
      "hex": "01000000012c4e0041013b34bf4da2ab04983ad1a316ba2786f3378b337b2b06247e71ec9a010000006b483045022100e57601d90350a0979fc42bba3408d6d13a12829d1665828a138c73a7fe8be08f02201d809df59b16230b5ae49babd85d7a98037faac83cc2c6d59598a7a15d92a109012103b41597e8b181fd79f2f380aeebd13512736738bde4b84e78f59b2422c14c1ddcffffffff02eb590200000000001976a914098b86ebae1de7a42202d715ced444a37384210f88ace8f9d100000000001976a914a3385511a3f695949db908676d46e628e4abddce88ac00000000"
    }, 
    {
      "txid": "bc2edceef3a9e21d08bdf11b18a6e563ca4fee6d70e7b7cf6a6fc8e68054c5a2",
      "hash": "bc2edceef3a9e21d08bdf11b18a6e563ca4fee6d70e7b7cf6a6fc8e68054c5a2",
      "version": 1,
      "size": 226,
      "vsize": 226,
      "locktime": 0,
      "vin": [
        {
          "txid": "ef7c85fa73390af14ef8c535a1ed493830648ffa33aa4a81778d2cc236a70a66",
          "vout": 0,
          "scriptSig": {
            "asm": "3045022100e3ee4d57d1a9f992aa9aba9a1801093be6af1f24a3f7d65953d5983438305f1b0220543091a95911e3c9ae0835f71e2c29014fdaa37704458a7fd771bae3e2c31c89[ALL] 0328a3a8c37e093636910e4e9eba579ef28ae17e243fb979a2f2fe88601eeaaf31",
            "hex": "483045022100e3ee4d57d1a9f992aa9aba9a1801093be6af1f24a3f7d65953d5983438305f1b0220543091a95911e3c9ae0835f71e2c29014fdaa37704458a7fd771bae3e2c31c8901210328a3a8c37e093636910e4e9eba579ef28ae17e243fb979a2f2fe88601eeaaf31"
          },
          "sequence": 4294967295
        }
      ],
      "vout": [
        {
          "value": 0.64354856,
          "n": 0,
          "scriptPubKey": {
            "asm": "OP_DUP OP_HASH160 4fa31e46b1ab9940f40c54e035554a89a199c5b0 OP_EQUALVERIFY OP_CHECKSIG",
            "hex": "76a9144fa31e46b1ab9940f40c54e035554a89a199c5b088ac",
            "reqSigs": 1,
            "type": "pubkeyhash",
            "addresses": [
              "LSV342K7ycbpezTKprQKBjBCdMJEKoJmgQ"
            ]
          }
        }, 
        {
          "value": 3.55622544,
          "n": 1,
          "scriptPubKey": {
            "asm": "OP_DUP OP_HASH160 e0a76b73eecfbae93038b7487a2658b489963148 OP_EQUALVERIFY OP_CHECKSIG",
            "hex": "76a914e0a76b73eecfbae93038b7487a2658b48996314888ac",
            "reqSigs": 1,
            "type": "pubkeyhash",
            "addresses": [
              "LfhpBi9q3XDH4h74NEk7a4pm57ur7yPwZq"
            ]
          }
        }
      ],
      "hex": "0100000001660aa736c22c8d77814aaa33fa8f64303849eda135c5f84ef10a3973fa857cef000000006b483045022100e3ee4d57d1a9f992aa9aba9a1801093be6af1f24a3f7d65953d5983438305f1b0220543091a95911e3c9ae0835f71e2c29014fdaa37704458a7fd771bae3e2c31c8901210328a3a8c37e093636910e4e9eba579ef28ae17e243fb979a2f2fe88601eeaaf31ffffffff0228fad503000000001976a9144fa31e46b1ab9940f40c54e035554a89a199c5b088ac905e3215000000001976a914e0a76b73eecfbae93038b7487a2658b48996314888ac00000000"
    }, 
    {
      "txid": "18ad5cd25dac62f8e0fa53d1d9a9d4fe2f06ccd7b01de5132fc990c6c78838d5",
      "hash": "18ad5cd25dac62f8e0fa53d1d9a9d4fe2f06ccd7b01de5132fc990c6c78838d5",
      "version": 1,
      "size": 226,
      "vsize": 226,
      "locktime": 0,
      "vin": [
        {
          "txid": "b6175179c865848d66bfaae625fbb55dbdcaf30edb9377efa3f4973bed8ca44f",
          "vout": 27,
          "scriptSig": {
            "asm": "30450221009a0435e6caa8d956f19ded088beca42781dab102be1005aeae577bca90dca6c8022053e4fb783289c392aa326e2b3db984941aa9af118b201187a3a9da22bf441fe5[ALL] 0366fd5b9f27b048cfe26dd3787b977d5fd9fb94e0e6195453de11360219d231c5",
            "hex": "4830450221009a0435e6caa8d956f19ded088beca42781dab102be1005aeae577bca90dca6c8022053e4fb783289c392aa326e2b3db984941aa9af118b201187a3a9da22bf441fe501210366fd5b9f27b048cfe26dd3787b977d5fd9fb94e0e6195453de11360219d231c5"
          },
          "sequence": 4294967295
        }
      ],
      "vout": [
        {
          "value": 0.05402581,
          "n": 0,
          "scriptPubKey": {
            "asm": "OP_DUP OP_HASH160 717e3a69761194c5806afc6ad3a6ee2534c7799e OP_EQUALVERIFY OP_CHECKSIG",
            "hex": "76a914717e3a69761194c5806afc6ad3a6ee2534c7799e88ac",
            "reqSigs": 1,
            "type": "pubkeyhash",
            "addresses": [
              "LVa3qNpQas7WXdPkVhZ5imxFchMtFRhmfd"
            ]
          }
        }, 
        {
          "value": 0.27175000,
          "n": 1,
          "scriptPubKey": {
            "asm": "OP_DUP OP_HASH160 120ba779f1a37560b71a4a1495357910b3fa0042 OP_EQUALVERIFY OP_CHECKSIG",
            "hex": "76a914120ba779f1a37560b71a4a1495357910b3fa004288ac",
            "reqSigs": 1,
            "type": "pubkeyhash",
            "addresses": [
              "LLsNPQyuDXtn3JoTacJqCo1QzVd8ytiWSi"
            ]
          }
        }
      ],
      "hex": "01000000014fa48ced3b97f4a3ef7793db0ef3cabd5db5fb25e6aabf668d8465c8795117b61b0000006b4830450221009a0435e6caa8d956f19ded088beca42781dab102be1005aeae577bca90dca6c8022053e4fb783289c392aa326e2b3db984941aa9af118b201187a3a9da22bf441fe501210366fd5b9f27b048cfe26dd3787b977d5fd9fb94e0e6195453de11360219d231c5ffffffff02d56f5200000000001976a914717e3a69761194c5806afc6ad3a6ee2534c7799e88ac58a89e01000000001976a914120ba779f1a37560b71a4a1495357910b3fa004288ac00000000"
    }
  ],
  "time": 1517167995,
  "mediantime": 1517166831,
  "nonce": 50154153,
  "bits": "1a047f14",
  "difficulty": 3731199.183374282,
  "chainwork": "000000000000000000000000000000000000000000000033414958d394b3d05a",
  "previousblockhash": "566b2c717efe8a2af5b5c6e0d6f45d3e92e5d54a3991b74b5dbf43c9818de0e5",
  "nextblockhash": "2bbfdea898e2358ff44074ebb9bed4ef858077c9cb59c8baa33d33a4915026a0"
}
