{
  "hash": "71f2659de1a999e96070f72574878cf1ef007906c33d6754a90025df8a4f143c",
  "confirmations": 1114,
  "strippedsize": 313,
  "size": 349,
  "weight": 1288,
  "height": 1359880,
  "version": 536870912,
  "versionHex": "20000000",
  "merkleroot": "a5d15be28ea60c4adea2c650360113980725cf38d07987db5d036a15361a4466",
  "tx": [
    {
      "txid": "a5d15be28ea60c4adea2c650360113980725cf38d07987db5d036a15361a4466",
      "hash": "c31c8fcc9137fb86b5cf8b09f282792b4e65e52feae4bf7c37afd6078bfc5665",
      "version": 1,
      "size": 268,
      "vsize": 241,
      "locktime": 0,
      "vin": [
        {
          "coinbase": "0308c014c7649160097915b01e52985d86b864a5fbe72fbae27512eece7ef4d6f4a6baba9143d434c00100000000000000001e030000a9b28500e80295362f425443432f2000000000000000000000000000000000000000000000000000000000000000",
          "sequence": 0
        }
      ],
      "vout": [
        {
          "value": 25.00000000,
          "n": 0,
          "scriptPubKey": {
            "asm": "OP_DUP OP_HASH160 088b3b2a325c12f47e60b87f7bdd7f280e144e03 OP_EQUALVERIFY OP_CHECKSIG",
            "hex": "76a914088b3b2a325c12f47e60b87f7bdd7f280e144e0388ac",
            "reqSigs": 1,
            "type": "pubkeyhash",
            "addresses": [
              "LL18ThG68KnAnBk6yaoJWgEU7UqLg7eMw3"
            ]
          }
        }, 
        {
          "value": 0.00000000,
          "n": 1,
          "scriptPubKey": {
            "asm": "OP_RETURN aa21a9ede2f61c3f71d1defd3fa999dfa36953755c690689799962b48bebd836974e8cf9",
            "hex": "6a24aa21a9ede2f61c3f71d1defd3fa999dfa36953755c690689799962b48bebd836974e8cf9",
            "type": "nulldata"
          }
        }
      ],
      "hex": "010000000001010000000000000000000000000000000000000000000000000000000000000000ffffffff640308c014c7649160097915b01e52985d86b864a5fbe72fbae27512eece7ef4d6f4a6baba9143d434c00100000000000000001e030000a9b28500e80295362f425443432f2000000000000000000000000000000000000000000000000000000000000000000000000200f90295000000001976a914088b3b2a325c12f47e60b87f7bdd7f280e144e0388ac0000000000000000266a24aa21a9ede2f61c3f71d1defd3fa999dfa36953755c690689799962b48bebd836974e8cf90120000000000000000000000000000000000000000000000000000000000000000000000000"
    }
  ],
  "time": 1517343260,
  "mediantime": 1517342913,
  "nonce": 96466160,
  "bits": "1a042eae",
  "difficulty": 4011378.762614286,
  "chainwork": "0000000000000000000000000000000000000000000000346af0fbbff6300292",
  "previousblockhash": "73b8e6be733079bafdecd9a029d8cbaa495e02af284e3b2853d8a2eddcb1f847",
  "nextblockhash": "8b87fa664d9b76ecf6804628c34f111de16f5d1c2f314d759d2e4be5205a0edf"
}
