{
  "hash": "7205e80b72e9f3f5d1d4feddef743464619c79714fee610aa58cf9e76366e157",
  "confirmations": 2624,
  "strippedsize": 1364,
  "size": 1400,
  "weight": 5492,
  "height": 1358371,
  "version": 536870912,
  "versionHex": "20000000",
  "merkleroot": "16e695b6266ff91350da316eea88c8147094b17f3f3090f404fa19e13c0c93a3",
  "tx": [
    {
      "txid": "fd183bcb02280e93e713f0564866530102b1a0659c7670e8f0008ca4ea4e624e",
      "hash": "941bf5727182c1f3fffa91dde3bb914ceda05539987c5d778ad29db1627d572f",
      "version": 1,
      "size": 253,
      "vsize": 226,
      "locktime": 0,
      "vin": [
        {
          "coinbase": "0323ba1441d69b66ec44a3cd41d69b66ec43bb902f4c54432e544f502ffabe6d6d3f87cfe155a4152b2017e58876456f55f79bae42a1b0e9162af7befc0c5128d00100000000000000183080f90100000000000000",
          "sequence": 4294967295
        }
      ],
      "vout": [
        {
          "value": 25.00106800,
          "n": 0,
          "scriptPubKey": {
            "asm": "OP_DUP OP_HASH160 0c617fdb2ea42aed30a509595ee21ba3f6688db0 OP_EQUALVERIFY OP_CHECKSIG",
            "hex": "76a9140c617fdb2ea42aed30a509595ee21ba3f6688db088ac",
            "reqSigs": 1,
            "type": "pubkeyhash",
            "addresses": [
              "LLMRAtr3qBje2ySEa3CnZ55LA4TQMWnRY3"
            ]
          }
        }, 
        {
          "value": 0.00000000,
          "n": 1,
          "scriptPubKey": {
            "asm": "OP_RETURN aa21a9ed4e45c500ac26ad935f851c74739fe88442b69cac0f300e11b4ded2bb5140f31c",
            "hex": "6a24aa21a9ed4e45c500ac26ad935f851c74739fe88442b69cac0f300e11b4ded2bb5140f31c",
            "type": "nulldata"
          }
        }
      ],
      "hex": "010000000001010000000000000000000000000000000000000000000000000000000000000000ffffffff550323ba1441d69b66ec44a3cd41d69b66ec43bb902f4c54432e544f502ffabe6d6d3f87cfe155a4152b2017e58876456f55f79bae42a1b0e9162af7befc0c5128d00100000000000000183080f90100000000000000ffffffff02309a0495000000001976a9140c617fdb2ea42aed30a509595ee21ba3f6688db088ac0000000000000000266a24aa21a9ed4e45c500ac26ad935f851c74739fe88442b69cac0f300e11b4ded2bb5140f31c0120000000000000000000000000000000000000000000000000000000000000000000000000"
    }, 
    {
      "txid": "6a0cb770837fd14346737f25271dc195fd521cb6fdc7e816845b0562477fbf41",
      "hash": "6a0cb770837fd14346737f25271dc195fd521cb6fdc7e816845b0562477fbf41",
      "version": 2,
      "size": 1066,
      "vsize": 1066,
      "locktime": 1358369,
      "vin": [
        {
          "txid": "6fc7818b1797c480e02b5a01ee4d98babb61bc2fb5c71fb3fdcb61fe49cb92b6",
          "vout": 0,
          "scriptSig": {
            "asm": "3045022100a7ee16bbe8b8ab22f9e8d780505bd9ff7b0f45c5c19980b0b9153ad8ea519d1402206c0e3a6c94979b6358bb1e9c9c577e7efdf8a834c603fcde79057c5c0844233e[ALL] 037ebe90d15aeb5d725dc971c31226fcef545bf62a10ebe6b2d2f36261f1a3b57a",
            "hex": "483045022100a7ee16bbe8b8ab22f9e8d780505bd9ff7b0f45c5c19980b0b9153ad8ea519d1402206c0e3a6c94979b6358bb1e9c9c577e7efdf8a834c603fcde79057c5c0844233e0121037ebe90d15aeb5d725dc971c31226fcef545bf62a10ebe6b2d2f36261f1a3b57a"
          },
          "sequence": 4294967294
        }, 
        {
          "txid": "85917ca356e36e48af1bd82304601d390c35ea38fca8cb820d1cc0fe56cc685c",
          "vout": 9,
          "scriptSig": {
            "asm": "3045022100bf403d51fde16c63408ef408d37c47a6cf12c8da1fca566cefb545cf18f8146502203054917256efb7585d1738c9ced238a347187c564011f596d648a3e350930e50[ALL] 02a877c4e908598c391ac01d142ddf3a21040cdb67e2e6ab2822851c177eab8256",
            "hex": "483045022100bf403d51fde16c63408ef408d37c47a6cf12c8da1fca566cefb545cf18f8146502203054917256efb7585d1738c9ced238a347187c564011f596d648a3e350930e50012102a877c4e908598c391ac01d142ddf3a21040cdb67e2e6ab2822851c177eab8256"
          },
          "sequence": 4294967294
        }, 
        {
          "txid": "dbd19b69e248969a77fca7795b9d850460d6d9852d6643dca8e12ad19d49e74f",
          "vout": 23,
          "scriptSig": {
            "asm": "304402200b4c88265531d92c0de3c257d73fcdd91a4baa4ac30de4fd6acbcc62bbf29fc7022044a67fb6a9a21de5991a1c3f9cb871a87295cdfa59dfbc5bcc5ab3508b7b9675[ALL] 02b46b7d35f869442fefafedf0d0b965f2c36de552e76b55adbb029118ea8aea66",
            "hex": "47304402200b4c88265531d92c0de3c257d73fcdd91a4baa4ac30de4fd6acbcc62bbf29fc7022044a67fb6a9a21de5991a1c3f9cb871a87295cdfa59dfbc5bcc5ab3508b7b9675012102b46b7d35f869442fefafedf0d0b965f2c36de552e76b55adbb029118ea8aea66"
          },
          "sequence": 4294967294
        }, 
        {
          "txid": "1940b8272c5de4f1134476ae1f8bb57331e18826be11f1844920089c156c2157",
          "vout": 1,
          "scriptSig": {
            "asm": "3045022100d958733dd83caaa5c9c96eda63efc42e8ae625c3daf5b25d51b3af02f6252950022058d4c85d47484da466f87e707a4aa9499ef59b5e4d49e5d4119d549c1a426e1d[ALL] 0337fdf9784c114c97c75fad6b5015491dfbaae5a623b8faae98d2fb7ec43a9460",
            "hex": "483045022100d958733dd83caaa5c9c96eda63efc42e8ae625c3daf5b25d51b3af02f6252950022058d4c85d47484da466f87e707a4aa9499ef59b5e4d49e5d4119d549c1a426e1d01210337fdf9784c114c97c75fad6b5015491dfbaae5a623b8faae98d2fb7ec43a9460"
          },
          "sequence": 4294967294
        }, 
        {
          "txid": "203ae78ca315f8cb32479139e3b2b34badf8d1bb977392995b9ac903a19f6ba2",
          "vout": 1,
          "scriptSig": {
            "asm": "3045022100d61ed8e8ad88f72b66708322cbe867dfb3a6ad61787af36de686d1d58292512f022056525315368de957f2434ee11ce5da37a87a28c019581e6c2e7eb05a81b64ef7[ALL] 0327ca0de6ce1b89ab3aad6e3c7e360e20e79b80fa8f198d34a7d13958a473c0a2",
            "hex": "483045022100d61ed8e8ad88f72b66708322cbe867dfb3a6ad61787af36de686d1d58292512f022056525315368de957f2434ee11ce5da37a87a28c019581e6c2e7eb05a81b64ef701210327ca0de6ce1b89ab3aad6e3c7e360e20e79b80fa8f198d34a7d13958a473c0a2"
          },
          "sequence": 4294967294
        }, 
        {
          "txid": "86568db7949241ddc469207dc5946d74b8e5ff869694763f48afb2a9f9211de3",
          "vout": 34,
          "scriptSig": {
            "asm": "304402203252484fb16e012ec41f0d3176c78787904413894426aa2fd70a3229339c737702200505a0a4bc592aaf86c458798d1ff521ca5a4aefe310b536d584bc62a64e5830[ALL] 021a97813f33b0b53726d80686b688780288aeb00671c55aaecc83bc3ce47c9bc7",
            "hex": "47304402203252484fb16e012ec41f0d3176c78787904413894426aa2fd70a3229339c737702200505a0a4bc592aaf86c458798d1ff521ca5a4aefe310b536d584bc62a64e58300121021a97813f33b0b53726d80686b688780288aeb00671c55aaecc83bc3ce47c9bc7"
          },
          "sequence": 4294967294
        }
      ],
      "vout": [
        {
          "value": 6.58144200,
          "n": 0,
          "scriptPubKey": {
            "asm": "OP_DUP OP_HASH160 c275fc673557f7a7ffebd9e2eba69ee8287404e8 OP_EQUALVERIFY OP_CHECKSIG",
            "hex": "76a914c275fc673557f7a7ffebd9e2eba69ee8287404e888ac",
            "reqSigs": 1,
            "type": "pubkeyhash",
            "addresses": [
              "LcxAhEcuBHy6K9R3tQivJ5XnJNQJJmJGMC"
            ]
          }
        }, 
        {
          "value": 0.14861000,
          "n": 1,
          "scriptPubKey": {
            "asm": "OP_DUP OP_HASH160 1a974892f4bb81887d67611cd9d3b5eeb09045cf OP_EQUALVERIFY OP_CHECKSIG",
            "hex": "76a9141a974892f4bb81887d67611cd9d3b5eeb09045cf88ac",
            "reqSigs": 1,
            "type": "pubkeyhash",
            "addresses": [
              "LMeZ4ZYb3S8qJBta14QJ6BF9YbJgNDbncB"
            ]
          }
        }, 
        {
          "value": 0.00893230,
          "n": 2,
          "scriptPubKey": {
            "asm": "OP_DUP OP_HASH160 cdf8b5cec9924ebfd26d0e428c48bde66c6b0956 OP_EQUALVERIFY OP_CHECKSIG",
            "hex": "76a914cdf8b5cec9924ebfd26d0e428c48bde66c6b095688ac",
            "reqSigs": 1,
            "type": "pubkeyhash",
            "addresses": [
              "Le12jE12gQeXYZ1rkYNnUGjnfPq4Kdaimr"
            ]
          }
        }, 
        {
          "value": 6.99900000,
          "n": 3,
          "scriptPubKey": {
            "asm": "OP_DUP OP_HASH160 873a79b1c39cc5e88cad3de8fd52dc50533e0950 OP_EQUALVERIFY OP_CHECKSIG",
            "hex": "76a914873a79b1c39cc5e88cad3de8fd52dc50533e095088ac",
            "reqSigs": 1,
            "type": "pubkeyhash",
            "addresses": [
              "LXYyY3rLg16EJco9QjXXnvvGPJ4xW2hqrv"
            ]
          }
        }, 
        {
          "value": 0.99900000,
          "n": 4,
          "scriptPubKey": {
            "asm": "OP_DUP OP_HASH160 581bf650f043649f535751cb008407e39cfb6d33 OP_EQUALVERIFY OP_CHECKSIG",
            "hex": "76a914581bf650f043649f535751cb008407e39cfb6d3388ac",
            "reqSigs": 1,
            "type": "pubkeyhash",
            "addresses": [
              "LTFqDwU4vYYV7rWe8U5UgShW9cQpBK3fBT"
            ]
          }
        }
      ],
      "hex": "0200000006b692cb49fe61cbfdb31fc7b52fbc61bbba984dee015a2be080c497178b81c76f000000006b483045022100a7ee16bbe8b8ab22f9e8d780505bd9ff7b0f45c5c19980b0b9153ad8ea519d1402206c0e3a6c94979b6358bb1e9c9c577e7efdf8a834c603fcde79057c5c0844233e0121037ebe90d15aeb5d725dc971c31226fcef545bf62a10ebe6b2d2f36261f1a3b57afeffffff5c68cc56fec01c0d82cba8fc38ea350c391d600423d81baf486ee356a37c9185090000006b483045022100bf403d51fde16c63408ef408d37c47a6cf12c8da1fca566cefb545cf18f8146502203054917256efb7585d1738c9ced238a347187c564011f596d648a3e350930e50012102a877c4e908598c391ac01d142ddf3a21040cdb67e2e6ab2822851c177eab8256feffffff4fe7499dd12ae1a8dc43662d85d9d66004859d5b79a7fc779a9648e2699bd1db170000006a47304402200b4c88265531d92c0de3c257d73fcdd91a4baa4ac30de4fd6acbcc62bbf29fc7022044a67fb6a9a21de5991a1c3f9cb871a87295cdfa59dfbc5bcc5ab3508b7b9675012102b46b7d35f869442fefafedf0d0b965f2c36de552e76b55adbb029118ea8aea66feffffff57216c159c08204984f111be2688e13173b58b1fae764413f1e45d2c27b84019010000006b483045022100d958733dd83caaa5c9c96eda63efc42e8ae625c3daf5b25d51b3af02f6252950022058d4c85d47484da466f87e707a4aa9499ef59b5e4d49e5d4119d549c1a426e1d01210337fdf9784c114c97c75fad6b5015491dfbaae5a623b8faae98d2fb7ec43a9460feffffffa26b9fa103c99a5b99927397bbd1f8ad4bb3b2e339914732cbf815a38ce73a20010000006b483045022100d61ed8e8ad88f72b66708322cbe867dfb3a6ad61787af36de686d1d58292512f022056525315368de957f2434ee11ce5da37a87a28c019581e6c2e7eb05a81b64ef701210327ca0de6ce1b89ab3aad6e3c7e360e20e79b80fa8f198d34a7d13958a473c0a2feffffffe31d21f9a9b2af483f76949686ffe5b8746d94c57d2069c4dd419294b78d5686220000006a47304402203252484fb16e012ec41f0d3176c78787904413894426aa2fd70a3229339c737702200505a0a4bc592aaf86c458798d1ff521ca5a4aefe310b536d584bc62a64e58300121021a97813f33b0b53726d80686b688780288aeb00671c55aaecc83bc3ce47c9bc7feffffff05c87b3a27000000001976a914c275fc673557f7a7ffebd9e2eba69ee8287404e888acc8c2e200000000001976a9141a974892f4bb81887d67611cd9d3b5eeb09045cf88ac2ea10d00000000001976a914cdf8b5cec9924ebfd26d0e428c48bde66c6b095688ac60a0b729000000001976a914873a79b1c39cc5e88cad3de8fd52dc50533e095088ac605af405000000001976a914581bf650f043649f535751cb008407e39cfb6d3388ac21ba1400"
    }
  ],
  "time": 1517132721,
  "mediantime": 1517132199,
  "nonce": 3662968232,
  "bits": "1a047f14",
  "difficulty": 3731199.183374282,
  "chainwork": "0000000000000000000000000000000000000000000000330904ee5dc574eaa8",
  "previousblockhash": "dfc003c591863db46cffae40298fdf68cc5e8d979ca48d2ab324764f26052c56",
  "nextblockhash": "d9a586cb6477c51ecdbb17894a39f747852d15f3ef73d32806afda7e0620346f"
}
