{
  "hash": "72c6c6713b76c4f8aba8af446a6eb9c128934217e4190e293cf9a97aafbdcc5d",
  "confirmations": 2323,
  "strippedsize": 4387,
  "size": 4533,
  "weight": 17694,
  "height": 1358672,
  "version": 536870912,
  "versionHex": "20000000",
  "merkleroot": "e2be321226738164f332897b0cac167153eefd185ffad721be281a6380225c2f",
  "tx": [
    {
      "txid": "789231305d7bcbe6e88ac6fd250e0a34e93493b6b108ebe6a6c60d8c449b8d50",
      "hash": "ee46387c88bfa9e8f95238cd55e382c738699f6c709fed7b3f97b64b7f7ec19d",
      "version": 1,
      "size": 244,
      "vsize": 217,
      "locktime": 0,
      "vin": [
        {
          "coinbase": "0350bb1404ef406e5a0805e80d2701000000fabe6d6d1897c3fe2ccb08da66df9d80497709ed89d83da3ed1a635b1bfb42f318e7793b40000000000000000d2f6e6f64655374726174756d2f",
          "sequence": 0
        }
      ],
      "vout": [
        {
          "value": 25.00664900,
          "n": 0,
          "scriptPubKey": {
            "asm": "OP_DUP OP_HASH160 0c617fdb2ea42aed30a509595ee21ba3f6688db0 OP_EQUALVERIFY OP_CHECKSIG",
            "hex": "76a9140c617fdb2ea42aed30a509595ee21ba3f6688db088ac",
            "reqSigs": 1,
            "type": "pubkeyhash",
            "addresses": [
              "LLMRAtr3qBje2ySEa3CnZ55LA4TQMWnRY3"
            ]
          }
        }, 
        {
          "value": 0.00000000,
          "n": 1,
          "scriptPubKey": {
            "asm": "OP_RETURN aa21a9ed3af5e38714334bba475cee7bc2232c3334b90e8f7d67c1e02f995bc77d86c10d",
            "hex": "6a24aa21a9ed3af5e38714334bba475cee7bc2232c3334b90e8f7d67c1e02f995bc77d86c10d",
            "type": "nulldata"
          }
        }
      ],
      "hex": "010000000001010000000000000000000000000000000000000000000000000000000000000000ffffffff4c0350bb1404ef406e5a0805e80d2701000000fabe6d6d1897c3fe2ccb08da66df9d80497709ed89d83da3ed1a635b1bfb42f318e7793b40000000000000000d2f6e6f64655374726174756d2f0000000002441e0d95000000001976a9140c617fdb2ea42aed30a509595ee21ba3f6688db088ac0000000000000000266a24aa21a9ed3af5e38714334bba475cee7bc2232c3334b90e8f7d67c1e02f995bc77d86c10d0120000000000000000000000000000000000000000000000000000000000000000000000000"
    }, 
    {
      "txid": "c4f8bec3052703c0f57f295333c01706c91c9f3e686d011ccafcafdf47792058",
      "hash": "c4f8bec3052703c0f57f295333c01706c91c9f3e686d011ccafcafdf47792058",
      "version": 1,
      "size": 335,
      "vsize": 335,
      "locktime": 0,
      "vin": [
        {
          "txid": "bdc2a2c76d3bc59c0799fd3062f45e357022f904ada8b876ef0aa454b3a11485",
          "vout": 1,
          "scriptSig": {
            "asm": "0 304402200fb2175c2f1622b9114d3d47005c9166bcdb2a065c29442f1db8d3b7dced0afe02204ecf801d3942d16238d3e94e69a34ee68f6b5b541622481f4186f3a859321b77[ALL] 3045022100fbb3e8d2c43af31921b74b75db585194148c62c3b9b724a97e3a61cec16ec42a02204df7df7d24792b2a2bba56d837e0836833d21aa6e0cd4ba08aecda4ee3630eee[ALL] 522102f77ec37a042ba4e5e6aef7760398bf59b87ac4c5dee30a2fb8798e9630d4916e210276b93401dc495b28592f66411a7c9093b468f8678db51144fc6a36f550d94aa952ae",
            "hex": "0047304402200fb2175c2f1622b9114d3d47005c9166bcdb2a065c29442f1db8d3b7dced0afe02204ecf801d3942d16238d3e94e69a34ee68f6b5b541622481f4186f3a859321b7701483045022100fbb3e8d2c43af31921b74b75db585194148c62c3b9b724a97e3a61cec16ec42a02204df7df7d24792b2a2bba56d837e0836833d21aa6e0cd4ba08aecda4ee3630eee0147522102f77ec37a042ba4e5e6aef7760398bf59b87ac4c5dee30a2fb8798e9630d4916e210276b93401dc495b28592f66411a7c9093b468f8678db51144fc6a36f550d94aa952ae"
          },
          "sequence": 4294967295
        }
      ],
      "vout": [
        {
          "value": 0.04390500,
          "n": 0,
          "scriptPubKey": {
            "asm": "OP_DUP OP_HASH160 9d5d9922cff1f3a13f1519278bbb0a392a73d6da OP_EQUALVERIFY OP_CHECKSIG",
            "hex": "76a9149d5d9922cff1f3a13f1519278bbb0a392a73d6da88ac",
            "reqSigs": 1,
            "type": "pubkeyhash",
            "addresses": [
              "LZa2UeSxRW5XNubR6B3idWbKqVTKX6DeCy"
            ]
          }
        }, 
        {
          "value": 21.75142600,
          "n": 1,
          "scriptPubKey": {
            "asm": "OP_HASH160 75b77316f8d91ff71fb2819115d1b6b9e80ccee9 OP_EQUAL",
            "hex": "a91475b77316f8d91ff71fb2819115d1b6b9e80ccee987",
            "reqSigs": 1,
            "type": "scripthash",
            "addresses": [
              "MJdb4B3BMDrfpB1FpKsPYQ1tDHdkNa1oLB"
            ]
          }
        }
      ],
      "hex": "01000000018514a1b354a40aef76b8a8ad04f92270355ef46230fd99079cc53b6dc7a2c2bd01000000da0047304402200fb2175c2f1622b9114d3d47005c9166bcdb2a065c29442f1db8d3b7dced0afe02204ecf801d3942d16238d3e94e69a34ee68f6b5b541622481f4186f3a859321b7701483045022100fbb3e8d2c43af31921b74b75db585194148c62c3b9b724a97e3a61cec16ec42a02204df7df7d24792b2a2bba56d837e0836833d21aa6e0cd4ba08aecda4ee3630eee0147522102f77ec37a042ba4e5e6aef7760398bf59b87ac4c5dee30a2fb8798e9630d4916e210276b93401dc495b28592f66411a7c9093b468f8678db51144fc6a36f550d94aa952aeffffffff0264fe4200000000001976a9149d5d9922cff1f3a13f1519278bbb0a392a73d6da88acc80aa6810000000017a91475b77316f8d91ff71fb2819115d1b6b9e80ccee98700000000"
    }, 
    {
      "txid": "6f5e1bc5d405065410b92caf47e62f32174b699fe7d556c599eb8584683eb200",
      "hash": "6f5e1bc5d405065410b92caf47e62f32174b699fe7d556c599eb8584683eb200",
      "version": 1,
      "size": 225,
      "vsize": 225,
      "locktime": 0,
      "vin": [
        {
          "txid": "db041c12de077aebd6c78fb7afbee7d9a174536ba35b9d34640291954d56f376",
          "vout": 2,
          "scriptSig": {
            "asm": "30440220398df4f445add131be088e4ebac6ed07823aa32b352f336d4b27dbad3c2c786b0220707f21fd66a7f0afd1150330a4bb16cb4a75463be4f8467cc23d9ebad17f871b[ALL] 03f7f81029d43d6ed9165be941f8594f7870973d6196d99c2101585f4b3454edde",
            "hex": "4730440220398df4f445add131be088e4ebac6ed07823aa32b352f336d4b27dbad3c2c786b0220707f21fd66a7f0afd1150330a4bb16cb4a75463be4f8467cc23d9ebad17f871b012103f7f81029d43d6ed9165be941f8594f7870973d6196d99c2101585f4b3454edde"
          },
          "sequence": 4294967295
        }
      ],
      "vout": [
        {
          "value": 0.02022200,
          "n": 0,
          "scriptPubKey": {
            "asm": "OP_DUP OP_HASH160 4298d766747ea684e5c6a29c5f5b4da1296858d9 OP_EQUALVERIFY OP_CHECKSIG",
            "hex": "76a9144298d766747ea684e5c6a29c5f5b4da1296858d988ac",
            "reqSigs": 1,
            "type": "pubkeyhash",
            "addresses": [
              "LRJ5xUrCfZez33db7mTEuZ7iznuSvJGHfx"
            ]
          }
        }, 
        {
          "value": 115.82943952,
          "n": 1,
          "scriptPubKey": {
            "asm": "OP_DUP OP_HASH160 36b137e9b6521a7df851d215546b3092f23f3577 OP_EQUALVERIFY OP_CHECKSIG",
            "hex": "76a91436b137e9b6521a7df851d215546b3092f23f357788ac",
            "reqSigs": 1,
            "type": "pubkeyhash",
            "addresses": [
              "LQD93vUheTA3KQTiAx8CtrnDNjxe8PVuiq"
            ]
          }
        }
      ],
      "hex": "010000000176f3564d95910264349d5ba36b5374a1d9e7beafb78fc7d6eb7a07de121c04db020000006a4730440220398df4f445add131be088e4ebac6ed07823aa32b352f336d4b27dbad3c2c786b0220707f21fd66a7f0afd1150330a4bb16cb4a75463be4f8467cc23d9ebad17f871b012103f7f81029d43d6ed9165be941f8594f7870973d6196d99c2101585f4b3454eddeffffffff0238db1e00000000001976a9144298d766747ea684e5c6a29c5f5b4da1296858d988acd0b265b2020000001976a91436b137e9b6521a7df851d215546b3092f23f357788ac00000000"
    }, 
    {
      "txid": "dd2c9f71b2fc0ae6f62a8b75b25502c2dac3d785445f0cb8ff4012ffbe1227af",
      "hash": "51bb77cbaac29a55318bcf3ccfeaab2e0d0f1e1c3289c0ce2653b8fb0f898346",
      "version": 1,
      "size": 250,
      "vsize": 168,
      "locktime": 0,
      "vin": [
        {
          "txid": "64d2b43ffe12dcb814b21e1fc08db48922661c4d2bd43a8681bed41a2bb7563b",
          "vout": 1,
          "scriptSig": {
            "asm": "001436aadfa751c37500d983009991e2d805343a902b",
            "hex": "16001436aadfa751c37500d983009991e2d805343a902b"
          },
          "txinwitness": [
            "3045022100d7379c3078cdd6061f0bb317c1193250015cc2553f66519130b203596cca482b02202dbd36cfb97e6b1ce7b1c5ff43181a8c984fb7542441a7fe509d65427fe635b101", 
            "0323e129e1385c9a3d11f629c938e3d55f05465c3c23f02f806fce2962b451ad99"
          ],
          "sequence": 4294967295
        }
      ],
      "vout": [
        {
          "value": 2.00000000,
          "n": 0,
          "scriptPubKey": {
            "asm": "OP_DUP OP_HASH160 d72ff5a34b59aff52bf2a49a83f91f5c43edc26b OP_EQUALVERIFY OP_CHECKSIG",
            "hex": "76a914d72ff5a34b59aff52bf2a49a83f91f5c43edc26b88ac",
            "reqSigs": 1,
            "type": "pubkeyhash",
            "addresses": [
              "Leqkzk2SiGJty8WUKSW74GMPv2tfYPLEXY"
            ]
          }
        }, 
        {
          "value": 5.64649621,
          "n": 1,
          "scriptPubKey": {
            "asm": "OP_HASH160 4b4c2cb598a045eb9d3cca5a84a119d0333997e2 OP_EQUAL",
            "hex": "a9144b4c2cb598a045eb9d3cca5a84a119d0333997e287",
            "reqSigs": 1,
            "type": "scripthash",
            "addresses": [
              "MEmJAXPCTyw9PETYsX3d1M7FfJXrmfLkYx"
            ]
          }
        }
      ],
      "hex": "010000000001013b56b72b1ad4be81863ad42b4d1c662289b48dc01f1eb214b8dc12fe3fb4d264010000001716001436aadfa751c37500d983009991e2d805343a902bffffffff0200c2eb0b000000001976a914d72ff5a34b59aff52bf2a49a83f91f5c43edc26b88ac95dea7210000000017a9144b4c2cb598a045eb9d3cca5a84a119d0333997e28702483045022100d7379c3078cdd6061f0bb317c1193250015cc2553f66519130b203596cca482b02202dbd36cfb97e6b1ce7b1c5ff43181a8c984fb7542441a7fe509d65427fe635b101210323e129e1385c9a3d11f629c938e3d55f05465c3c23f02f806fce2962b451ad9900000000"
    }, 
    {
      "txid": "64aaef38cd941b171afd55dd6da6436eae7123cba36e07f704d874f6fe3084c4",
      "hash": "64aaef38cd941b171afd55dd6da6436eae7123cba36e07f704d874f6fe3084c4",
      "version": 1,
      "size": 225,
      "vsize": 225,
      "locktime": 0,
      "vin": [
        {
          "txid": "cf349bcaf75073c1419ae72acf410f350516b80a284ab812d6e4f993b8727d0e",
          "vout": 1,
          "scriptSig": {
            "asm": "3044022014f4b64f8851a3ee43d6fb741f01168775aa86180c7d2226da27f98c3a80036c022020a136fdd2b11296b608ded43cc0b1abe4acd8d3cc664bb36da98f98fc5567ac[ALL] 0246444b6c052471a3e0ac3a2efb7a0252fae2ef5cab96eee920ef00e135b5b661",
            "hex": "473044022014f4b64f8851a3ee43d6fb741f01168775aa86180c7d2226da27f98c3a80036c022020a136fdd2b11296b608ded43cc0b1abe4acd8d3cc664bb36da98f98fc5567ac01210246444b6c052471a3e0ac3a2efb7a0252fae2ef5cab96eee920ef00e135b5b661"
          },
          "sequence": 4294967295
        }
      ],
      "vout": [
        {
          "value": 3.96919537,
          "n": 0,
          "scriptPubKey": {
            "asm": "OP_DUP OP_HASH160 67bf70b0bcc191533fcd7db3ed80cf36486b9c67 OP_EQUALVERIFY OP_CHECKSIG",
            "hex": "76a91467bf70b0bcc191533fcd7db3ed80cf36486b9c6788ac",
            "reqSigs": 1,
            "type": "pubkeyhash",
            "addresses": [
              "LUgXCUC2Mu387fuw2eMSY461STYG4vscZ7"
            ]
          }
        }, 
        {
          "value": 1.03057863,
          "n": 1,
          "scriptPubKey": {
            "asm": "OP_DUP OP_HASH160 b0ac9944cd12b17c63c5f171f64d6894f3494fc0 OP_EQUALVERIFY OP_CHECKSIG",
            "hex": "76a914b0ac9944cd12b17c63c5f171f64d6894f3494fc088ac",
            "reqSigs": 1,
            "type": "pubkeyhash",
            "addresses": [
              "LbL7xLsodvTiQ62yA3HdWRdCSu1sMeYqn7"
            ]
          }
        }
      ],
      "hex": "01000000010e7d72b893f9e4d612b84a280ab81605350f41cf2ae79a41c17350f7ca9b34cf010000006a473044022014f4b64f8851a3ee43d6fb741f01168775aa86180c7d2226da27f98c3a80036c022020a136fdd2b11296b608ded43cc0b1abe4acd8d3cc664bb36da98f98fc5567ac01210246444b6c052471a3e0ac3a2efb7a0252fae2ef5cab96eee920ef00e135b5b661ffffffff02f182a817000000001976a91467bf70b0bcc191533fcd7db3ed80cf36486b9c6788acc7892406000000001976a914b0ac9944cd12b17c63c5f171f64d6894f3494fc088ac00000000"
    }, 
    {
      "txid": "e0a862b675f22f8ab1afa7dccadb50d1eaa1c52cc52caddf2c3e74f2c9b136cf",
      "hash": "e0a862b675f22f8ab1afa7dccadb50d1eaa1c52cc52caddf2c3e74f2c9b136cf",
      "version": 2,
      "size": 373,
      "vsize": 373,
      "locktime": 1358670,
      "vin": [
        {
          "txid": "06143f1525d8b2868e81b5aff29c06b6499f7625c359e78ebd9531049a527ce1",
          "vout": 1,
          "scriptSig": {
            "asm": "3044022074620290cf85537236f9d984246fcc8f424a3fc2d75e62add51a3c1781fe580702201d1fcb161dfd1538941c981eeb48cd0cddb4607a2f96a3a216c505fe7178ddd9[ALL] 026fc97202125f14069fb4c07d52ec8a481e7fcdc0833fedd77f1d15095abd1cfa",
            "hex": "473044022074620290cf85537236f9d984246fcc8f424a3fc2d75e62add51a3c1781fe580702201d1fcb161dfd1538941c981eeb48cd0cddb4607a2f96a3a216c505fe7178ddd90121026fc97202125f14069fb4c07d52ec8a481e7fcdc0833fedd77f1d15095abd1cfa"
          },
          "sequence": 4294967294
        }, 
        {
          "txid": "97addd8f7d4d8114909717737ff03b8cde7599ca0d009c21dd7d3dc81451e612",
          "vout": 1,
          "scriptSig": {
            "asm": "3045022100fc9a7d53120d7b85b776f2e435b0951436de3608c7c06cde1c03d47bae76a7f402205ee2d6f02613a04fbcd4de73a191dd9c611ea66f00c898b6c3377fbfeaa7c47a[ALL] 023fda51f29b1ea560811c2ace580f9fe8c2ab5e48208af143538ec9d9764a5bdd",
            "hex": "483045022100fc9a7d53120d7b85b776f2e435b0951436de3608c7c06cde1c03d47bae76a7f402205ee2d6f02613a04fbcd4de73a191dd9c611ea66f00c898b6c3377fbfeaa7c47a0121023fda51f29b1ea560811c2ace580f9fe8c2ab5e48208af143538ec9d9764a5bdd"
          },
          "sequence": 4294967294
        }
      ],
      "vout": [
        {
          "value": 0.53528126,
          "n": 0,
          "scriptPubKey": {
            "asm": "OP_DUP OP_HASH160 d974ccc1377aad24f604bb0bc1217171e28b5c2c OP_EQUALVERIFY OP_CHECKSIG",
            "hex": "76a914d974ccc1377aad24f604bb0bc1217171e28b5c2c88ac",
            "reqSigs": 1,
            "type": "pubkeyhash",
            "addresses": [
              "Lf3kpEY87JCc5iDc7u6FVvmTqddNUgBUwU"
            ]
          }
        }, 
        {
          "value": 0.00962810,
          "n": 1,
          "scriptPubKey": {
            "asm": "OP_DUP OP_HASH160 a78e0ee1eb1448ae42d6958119dda768af6902ad OP_EQUALVERIFY OP_CHECKSIG",
            "hex": "76a914a78e0ee1eb1448ae42d6958119dda768af6902ad88ac",
            "reqSigs": 1,
            "type": "pubkeyhash",
            "addresses": [
              "LaVuHcy5NEZdts928rTcUPU6kKdFk4ytdy"
            ]
          }
        }
      ],
      "hex": "0200000002e17c529a043195bd8ee759c325769f49b6069cf2afb5818e86b2d825153f1406010000006a473044022074620290cf85537236f9d984246fcc8f424a3fc2d75e62add51a3c1781fe580702201d1fcb161dfd1538941c981eeb48cd0cddb4607a2f96a3a216c505fe7178ddd90121026fc97202125f14069fb4c07d52ec8a481e7fcdc0833fedd77f1d15095abd1cfafeffffff12e65114c83d7ddd219c000dca9975de8c3bf07f7317979014814d7d8fddad97010000006b483045022100fc9a7d53120d7b85b776f2e435b0951436de3608c7c06cde1c03d47bae76a7f402205ee2d6f02613a04fbcd4de73a191dd9c611ea66f00c898b6c3377fbfeaa7c47a0121023fda51f29b1ea560811c2ace580f9fe8c2ab5e48208af143538ec9d9764a5bddfeffffff023ec63003000000001976a914d974ccc1377aad24f604bb0bc1217171e28b5c2c88acfab00e00000000001976a914a78e0ee1eb1448ae42d6958119dda768af6902ad88ac4ebb1400"
    }, 
    {
      "txid": "fc6da0cf3f71ac9554a5b02af28c97d400731acc12f64f2ea25b7921f5fbf6a1",
      "hash": "fc6da0cf3f71ac9554a5b02af28c97d400731acc12f64f2ea25b7921f5fbf6a1",
      "version": 2,
      "size": 667,
      "vsize": 667,
      "locktime": 1358670,
      "vin": [
        {
          "txid": "baf560f6753e9766d8946d0253b3b6543800fc5e04994446044b40c5830ac12d",
          "vout": 1,
          "scriptSig": {
            "asm": "3045022100c11e00b84490031c45e76bc12609fc69d829c311f395a03652e28055842bcb22022017b4b462cb41ee7c69920950b0c39316fdf19095cdc6608330c5b436891d0ed5[ALL] 0267f9801468b7647e8dc23d3c8e8e696fc5dfc862cc36d4dcbf6e06ed3b2c1e7a",
            "hex": "483045022100c11e00b84490031c45e76bc12609fc69d829c311f395a03652e28055842bcb22022017b4b462cb41ee7c69920950b0c39316fdf19095cdc6608330c5b436891d0ed501210267f9801468b7647e8dc23d3c8e8e696fc5dfc862cc36d4dcbf6e06ed3b2c1e7a"
          },
          "sequence": 4294967294
        }, 
        {
          "txid": "326ccfd74f6f2f725e6a32f82f7959039390369b5fbaa5d7c8e717cb644bb39a",
          "vout": 0,
          "scriptSig": {
            "asm": "304402202b95307ea72868595ae94d2ba4406b717a352bac8da49c76061a68ff643ec2df022028b0ba2bdcbc229ff230a260d4f6d593f4ffbb91f0d361fc79f4597f63de5573[ALL] 02e125824903eac7f45b6d0611b8c3945a65ec4ba329f53434c812c112f41d0f05",
            "hex": "47304402202b95307ea72868595ae94d2ba4406b717a352bac8da49c76061a68ff643ec2df022028b0ba2bdcbc229ff230a260d4f6d593f4ffbb91f0d361fc79f4597f63de5573012102e125824903eac7f45b6d0611b8c3945a65ec4ba329f53434c812c112f41d0f05"
          },
          "sequence": 4294967294
        }, 
        {
          "txid": "b028a07dfa3f232be7dba72226af203ccfce2a112e945321df1eec3d5a57526f",
          "vout": 1,
          "scriptSig": {
            "asm": "3045022100f92642ad37be155edc06f3054d0b48397043c817ec2af18ea24a6d229b92420002204fb70de2e03f41a8d0c3b758fe3da9fe6fafc06c2ab9183a094b34385f7ba50b[ALL] 0243ec2607b56d0e9e4654b45f832698f5c8ee194ceee9445a2da90078536a9ac7",
            "hex": "483045022100f92642ad37be155edc06f3054d0b48397043c817ec2af18ea24a6d229b92420002204fb70de2e03f41a8d0c3b758fe3da9fe6fafc06c2ab9183a094b34385f7ba50b01210243ec2607b56d0e9e4654b45f832698f5c8ee194ceee9445a2da90078536a9ac7"
          },
          "sequence": 4294967294
        }, 
        {
          "txid": "63433a71f6e15dda7a007cb9b691cc25130c12adb7b15ea2f0f3e1ff26be467e",
          "vout": 1,
          "scriptSig": {
            "asm": "3045022100b80de2cdbdff796fc09b2a05b434a54c4790ed0b8aed49dba944892b66e8903f022043be1a51f5ae188ebd829189bfd9feda3e1fa32941835a0c244a276be3fc1166[ALL] 0266d9e2024acdf1ec715010f1987aeec3d8faf9d5305b6c5af45978c4f30aac08",
            "hex": "483045022100b80de2cdbdff796fc09b2a05b434a54c4790ed0b8aed49dba944892b66e8903f022043be1a51f5ae188ebd829189bfd9feda3e1fa32941835a0c244a276be3fc116601210266d9e2024acdf1ec715010f1987aeec3d8faf9d5305b6c5af45978c4f30aac08"
          },
          "sequence": 4294967294
        }
      ],
      "vout": [
        {
          "value": 0.02285155,
          "n": 0,
          "scriptPubKey": {
            "asm": "OP_DUP OP_HASH160 83919488b01c205f8908fac42c14e4c4b30d34c2 OP_EQUALVERIFY OP_CHECKSIG",
            "hex": "76a91483919488b01c205f8908fac42c14e4c4b30d34c288ac",
            "reqSigs": 1,
            "type": "pubkeyhash",
            "addresses": [
              "LXDdBS5RdoRDNpfRcrRSBCzy8qpjyeHzys"
            ]
          }
        }, 
        {
          "value": 0.05200000,
          "n": 1,
          "scriptPubKey": {
            "asm": "OP_HASH160 d13d6be30b7de1673233c42b3bc3f7697b199dda OP_EQUAL",
            "hex": "a914d13d6be30b7de1673233c42b3bc3f7697b199dda87",
            "reqSigs": 1,
            "type": "scripthash",
            "addresses": [
              "MSyX3AAFgsma7AY4bbJT66LgTSwXfs1Wbc"
            ]
          }
        }
      ],
      "hex": "02000000042dc10a83c5404b04464499045efc003854b6b353026d94d866973e75f660f5ba010000006b483045022100c11e00b84490031c45e76bc12609fc69d829c311f395a03652e28055842bcb22022017b4b462cb41ee7c69920950b0c39316fdf19095cdc6608330c5b436891d0ed501210267f9801468b7647e8dc23d3c8e8e696fc5dfc862cc36d4dcbf6e06ed3b2c1e7afeffffff9ab34b64cb17e7c8d7a5ba5f9b3690930359792ff8326a5e722f6f4fd7cf6c32000000006a47304402202b95307ea72868595ae94d2ba4406b717a352bac8da49c76061a68ff643ec2df022028b0ba2bdcbc229ff230a260d4f6d593f4ffbb91f0d361fc79f4597f63de5573012102e125824903eac7f45b6d0611b8c3945a65ec4ba329f53434c812c112f41d0f05feffffff6f52575a3dec1edf2153942e112acecf3c20af2622a7dbe72b233ffa7da028b0010000006b483045022100f92642ad37be155edc06f3054d0b48397043c817ec2af18ea24a6d229b92420002204fb70de2e03f41a8d0c3b758fe3da9fe6fafc06c2ab9183a094b34385f7ba50b01210243ec2607b56d0e9e4654b45f832698f5c8ee194ceee9445a2da90078536a9ac7feffffff7e46be26ffe1f3f0a25eb1b7ad120c1325cc91b6b97c007ada5de1f6713a4363010000006b483045022100b80de2cdbdff796fc09b2a05b434a54c4790ed0b8aed49dba944892b66e8903f022043be1a51f5ae188ebd829189bfd9feda3e1fa32941835a0c244a276be3fc116601210266d9e2024acdf1ec715010f1987aeec3d8faf9d5305b6c5af45978c4f30aac08feffffff0263de2200000000001976a91483919488b01c205f8908fac42c14e4c4b30d34c288ac80584f000000000017a914d13d6be30b7de1673233c42b3bc3f7697b199dda874ebb1400"
    }, 
    {
      "txid": "3b413cc423fa6de7a59536691999c507727abb6dedccf0747aa504c8e513d580",
      "hash": "3b413cc423fa6de7a59536691999c507727abb6dedccf0747aa504c8e513d580",
      "version": 2,
      "size": 669,
      "vsize": 669,
      "locktime": 1358670,
      "vin": [
        {
          "txid": "1f90965b103682857b6d4c43ae9550c5208e3cbe43359ea397438c4f7c7bd323",
          "vout": 0,
          "scriptSig": {
            "asm": "304402207773bbc9ef4612b832318e57efe9bcdede9417cb2b4afca5a8291e5466c50eec02206c1db2a4795abc4fd7462c332be961c271a38073440de99da7508107f20af1c2[ALL] 02f851eabb8b9bd4bb313a939253c4aacd7a69fdf808f11f5ac7c981a40fcca7b8",
            "hex": "47304402207773bbc9ef4612b832318e57efe9bcdede9417cb2b4afca5a8291e5466c50eec02206c1db2a4795abc4fd7462c332be961c271a38073440de99da7508107f20af1c2012102f851eabb8b9bd4bb313a939253c4aacd7a69fdf808f11f5ac7c981a40fcca7b8"
          },
          "sequence": 4294967294
        }, 
        {
          "txid": "fda8aca48ec20a8fb8266ed490d9c0b883c4c233609f88964810841a622fc435",
          "vout": 13,
          "scriptSig": {
            "asm": "3045022100a6a7fd7abbeaf4031e990cbe03b21f34926c4d4497d95c16fa66d3cee0f5414d02203f35ae52f9fc1d6d11ad3b1bca5eae494f1effd2620af9c87b2e3599b82f5853[ALL] 038ba189913b42ac26de55ebefa5da329631634331b2d662d2d8e96fd1f2320511",
            "hex": "483045022100a6a7fd7abbeaf4031e990cbe03b21f34926c4d4497d95c16fa66d3cee0f5414d02203f35ae52f9fc1d6d11ad3b1bca5eae494f1effd2620af9c87b2e3599b82f58530121038ba189913b42ac26de55ebefa5da329631634331b2d662d2d8e96fd1f2320511"
          },
          "sequence": 4294967294
        }, 
        {
          "txid": "a01dbf4ca571354c469bade3bdc4871856d46538cd807cf92acc9deac6f37273",
          "vout": 3,
          "scriptSig": {
            "asm": "3045022100e76d386ae9895bbe3ba1b8a6eaabbcfaf9c209c94f7468a1956b9043d0801ac502206914c72c7fcc36d2401d88c1df2606c961b34158d2ab0f1ee253ce7ddb015173[ALL] 038ba189913b42ac26de55ebefa5da329631634331b2d662d2d8e96fd1f2320511",
            "hex": "483045022100e76d386ae9895bbe3ba1b8a6eaabbcfaf9c209c94f7468a1956b9043d0801ac502206914c72c7fcc36d2401d88c1df2606c961b34158d2ab0f1ee253ce7ddb0151730121038ba189913b42ac26de55ebefa5da329631634331b2d662d2d8e96fd1f2320511"
          },
          "sequence": 4294967294
        }, 
        {
          "txid": "6eb3a864362ca9b66388030bb0a4bdd44e9e0ffbfd13842be6f7a439c1cd7208",
          "vout": 9,
          "scriptSig": {
            "asm": "3045022100f07ccee8e43c09a36c0ee740671f407710cb4f2cef2467a48179c22232a8fe18022031a8a619b8305991e02802b71ce164a99155819c8ab4adf4aae4c995ba215919[ALL] 038ba189913b42ac26de55ebefa5da329631634331b2d662d2d8e96fd1f2320511",
            "hex": "483045022100f07ccee8e43c09a36c0ee740671f407710cb4f2cef2467a48179c22232a8fe18022031a8a619b8305991e02802b71ce164a99155819c8ab4adf4aae4c995ba2159190121038ba189913b42ac26de55ebefa5da329631634331b2d662d2d8e96fd1f2320511"
          },
          "sequence": 4294967294
        }
      ],
      "vout": [
        {
          "value": 3.11465000,
          "n": 0,
          "scriptPubKey": {
            "asm": "OP_DUP OP_HASH160 0eabeaa59e85d39f029b340459d4fc0cec7e48a1 OP_EQUALVERIFY OP_CHECKSIG",
            "hex": "76a9140eabeaa59e85d39f029b340459d4fc0cec7e48a188ac",
            "reqSigs": 1,
            "type": "pubkeyhash",
            "addresses": [
              "LLZXfsa1NcQeAz6K4vbFnjd1ScM6aBr7y1"
            ]
          }
        }, 
        {
          "value": 0.01027249,
          "n": 1,
          "scriptPubKey": {
            "asm": "OP_DUP OP_HASH160 a113da5ce5f47702962d5e27b8e7a629149d00ed OP_EQUALVERIFY OP_CHECKSIG",
            "hex": "76a914a113da5ce5f47702962d5e27b8e7a629149d00ed88ac",
            "reqSigs": 1,
            "type": "pubkeyhash",
            "addresses": [
              "LZueqWMcgEKhT82QaXjEWYozGoci7UvVMs"
            ]
          }
        }
      ],
      "hex": "020000000423d37b7c4f8c4397a39e3543be3c8e20c55095ae434c6d7b858236105b96901f000000006a47304402207773bbc9ef4612b832318e57efe9bcdede9417cb2b4afca5a8291e5466c50eec02206c1db2a4795abc4fd7462c332be961c271a38073440de99da7508107f20af1c2012102f851eabb8b9bd4bb313a939253c4aacd7a69fdf808f11f5ac7c981a40fcca7b8feffffff35c42f621a84104896889f6033c2c483b8c0d990d46e26b88f0ac28ea4aca8fd0d0000006b483045022100a6a7fd7abbeaf4031e990cbe03b21f34926c4d4497d95c16fa66d3cee0f5414d02203f35ae52f9fc1d6d11ad3b1bca5eae494f1effd2620af9c87b2e3599b82f58530121038ba189913b42ac26de55ebefa5da329631634331b2d662d2d8e96fd1f2320511feffffff7372f3c6ea9dcc2af97c80cd3865d4561887c4bde3ad9b464c3571a54cbf1da0030000006b483045022100e76d386ae9895bbe3ba1b8a6eaabbcfaf9c209c94f7468a1956b9043d0801ac502206914c72c7fcc36d2401d88c1df2606c961b34158d2ab0f1ee253ce7ddb0151730121038ba189913b42ac26de55ebefa5da329631634331b2d662d2d8e96fd1f2320511feffffff0872cdc139a4f7e62b8413fdfb0f9e4ed4bda4b00b038863b6a92c3664a8b36e090000006b483045022100f07ccee8e43c09a36c0ee740671f407710cb4f2cef2467a48179c22232a8fe18022031a8a619b8305991e02802b71ce164a99155819c8ab4adf4aae4c995ba2159190121038ba189913b42ac26de55ebefa5da329631634331b2d662d2d8e96fd1f2320511feffffff0228949012000000001976a9140eabeaa59e85d39f029b340459d4fc0cec7e48a188acb1ac0f00000000001976a914a113da5ce5f47702962d5e27b8e7a629149d00ed88ac4ebb1400"
    }, 
    {
      "txid": "ac90e0f7705848ab0d2c008662a80accb31989611c33140f86c42c2fc774f18f",
      "hash": "ac90e0f7705848ab0d2c008662a80accb31989611c33140f86c42c2fc774f18f",
      "version": 1,
      "size": 226,
      "vsize": 226,
      "locktime": 0,
      "vin": [
        {
          "txid": "473adc9a0af333d94872ace081369084aae4141f9d795b67c751dfcb5664040f",
          "vout": 1,
          "scriptSig": {
            "asm": "30450221009349889119884662c3b1fe343413ceabcecabd6e31ccd1bfe0e4ddcb294b028e02207dce8e9895f79fa373327d0a7cd2ab165d0878b46707765c5d96bdb1ad8261d1[ALL] 02d74db66896a596f768a2c6301c621d882bc2610edc83ef81a14bf7279590c093",
            "hex": "4830450221009349889119884662c3b1fe343413ceabcecabd6e31ccd1bfe0e4ddcb294b028e02207dce8e9895f79fa373327d0a7cd2ab165d0878b46707765c5d96bdb1ad8261d1012102d74db66896a596f768a2c6301c621d882bc2610edc83ef81a14bf7279590c093"
          },
          "sequence": 4294967295
        }
      ],
      "vout": [
        {
          "value": 9.45026100,
          "n": 0,
          "scriptPubKey": {
            "asm": "OP_DUP OP_HASH160 2ebace03e2be2d4f196558b7910e02fb9329d36a OP_EQUALVERIFY OP_CHECKSIG",
            "hex": "76a9142ebace03e2be2d4f196558b7910e02fb9329d36a88ac",
            "reqSigs": 1,
            "type": "pubkeyhash",
            "addresses": [
              "LPV38TYs1UrVZvCAyp8CaxRm8QZSR8WtN4"
            ]
          }
        }, 
        {
          "value": 0.65149000,
          "n": 1,
          "scriptPubKey": {
            "asm": "OP_DUP OP_HASH160 1cfc08214035464a3923482ba7fd7fc60b1305da OP_EQUALVERIFY OP_CHECKSIG",
            "hex": "76a9141cfc08214035464a3923482ba7fd7fc60b1305da88ac",
            "reqSigs": 1,
            "type": "pubkeyhash",
            "addresses": [
              "LMsD74Ja1ri8bJUSRoEQLaMnNhSS2o3ug3"
            ]
          }
        }
      ],
      "hex": "01000000010f046456cbdf51c7675b799d1f14e4aa84903681e0ac7248d933f30a9adc3a47010000006b4830450221009349889119884662c3b1fe343413ceabcecabd6e31ccd1bfe0e4ddcb294b028e02207dce8e9895f79fa373327d0a7cd2ab165d0878b46707765c5d96bdb1ad8261d1012102d74db66896a596f768a2c6301c621d882bc2610edc83ef81a14bf7279590c093ffffffff0234f45338000000001976a9142ebace03e2be2d4f196558b7910e02fb9329d36a88ac4818e203000000001976a9141cfc08214035464a3923482ba7fd7fc60b1305da88ac00000000"
    }, 
    {
      "txid": "123b11897df5492203a25942c70f275cb55d04b23f17e7e60bef1eb001b74abe",
      "hash": "123b11897df5492203a25942c70f275cb55d04b23f17e7e60bef1eb001b74abe",
      "version": 1,
      "size": 226,
      "vsize": 226,
      "locktime": 0,
      "vin": [
        {
          "txid": "f53f6377d3c8be8166bb8fbd51c75d6055185812fe54f668069b2008169cbbe3",
          "vout": 0,
          "scriptSig": {
            "asm": "3045022100b753e62edb19a51b07561de9675694799a63028d267784d5ad8936b2910f65ad02205365f2a3a3ad1b2ce30da64727f60359e0e4d6abed719f3b6371e775d602ca82[ALL] 025b27a2137a54ca5f82a55931b3303dedc50941859a6c0f15d7c629c753937e7a",
            "hex": "483045022100b753e62edb19a51b07561de9675694799a63028d267784d5ad8936b2910f65ad02205365f2a3a3ad1b2ce30da64727f60359e0e4d6abed719f3b6371e775d602ca820121025b27a2137a54ca5f82a55931b3303dedc50941859a6c0f15d7c629c753937e7a"
          },
          "sequence": 4294967295
        }
      ],
      "vout": [
        {
          "value": 2.00000000,
          "n": 0,
          "scriptPubKey": {
            "asm": "OP_DUP OP_HASH160 93e3d81e59a3c7cfb29eb2e735cf8887233bdcb5 OP_EQUALVERIFY OP_CHECKSIG",
            "hex": "76a91493e3d81e59a3c7cfb29eb2e735cf8887233bdcb588ac",
            "reqSigs": 1,
            "type": "pubkeyhash",
            "addresses": [
              "LYhvYJg7HmwPcM244qytV9rdb47sgxEf6x"
            ]
          }
        }, 
        {
          "value": 2.90304026,
          "n": 1,
          "scriptPubKey": {
            "asm": "OP_DUP OP_HASH160 3ac348e89c29b10962e379d8250bf07c2c7d4035 OP_EQUALVERIFY OP_CHECKSIG",
            "hex": "76a9143ac348e89c29b10962e379d8250bf07c2c7d403588ac",
            "reqSigs": 1,
            "type": "pubkeyhash",
            "addresses": [
              "LQafPxvDCdjQBg74RNwoYgJPUje5fHxXYT"
            ]
          }
        }
      ],
      "hex": "0100000001e3bb9c1608209b0668f654fe12581855605dc751bd8fbb6681bec8d377633ff5000000006b483045022100b753e62edb19a51b07561de9675694799a63028d267784d5ad8936b2910f65ad02205365f2a3a3ad1b2ce30da64727f60359e0e4d6abed719f3b6371e775d602ca820121025b27a2137a54ca5f82a55931b3303dedc50941859a6c0f15d7c629c753937e7affffffff0200c2eb0b000000001976a91493e3d81e59a3c7cfb29eb2e735cf8887233bdcb588ac1ab04d11000000001976a9143ac348e89c29b10962e379d8250bf07c2c7d403588ac00000000"
    }, 
    {
      "txid": "bb81e536250a3fae4f2c1b1f9171da34bae1026540b7286d52f718d3590bc0f9",
      "hash": "bb81e536250a3fae4f2c1b1f9171da34bae1026540b7286d52f718d3590bc0f9",
      "version": 2,
      "size": 226,
      "vsize": 226,
      "locktime": 1358670,
      "vin": [
        {
          "txid": "626f7c0850053bc817b5d5494f5a023c27a076477883a2f5d9dd5759a8955d05",
          "vout": 0,
          "scriptSig": {
            "asm": "3045022100b13147b2ef75f49fd2f34bc8acfd21c04cb68fcf10d9cf0aea83ded7e95cbe7e02203ec2873b997a8e71724a38f1301ea524391c790b4daa93fcf96436eed12acec8[ALL] 0391af73150fe28e21d5a53633ae11dae9d493c3151eb5f8ee52e6e8fdfca12930",
            "hex": "483045022100b13147b2ef75f49fd2f34bc8acfd21c04cb68fcf10d9cf0aea83ded7e95cbe7e02203ec2873b997a8e71724a38f1301ea524391c790b4daa93fcf96436eed12acec801210391af73150fe28e21d5a53633ae11dae9d493c3151eb5f8ee52e6e8fdfca12930"
          },
          "sequence": 4294967294
        }
      ],
      "vout": [
        {
          "value": 0.03834029,
          "n": 0,
          "scriptPubKey": {
            "asm": "OP_DUP OP_HASH160 cec4df006fa5d90057c301cf9f1f332c2db3b121 OP_EQUALVERIFY OP_CHECKSIG",
            "hex": "76a914cec4df006fa5d90057c301cf9f1f332c2db3b12188ac",
            "reqSigs": 1,
            "type": "pubkeyhash",
            "addresses": [
              "Le5FJaEzd4d75aTXonpWaUqCJbPxpjzRfL"
            ]
          }
        }, 
        {
          "value": 0.03437987,
          "n": 1,
          "scriptPubKey": {
            "asm": "OP_DUP OP_HASH160 0bf6821622310e6ed37009b619f3fe486876fbb1 OP_EQUALVERIFY OP_CHECKSIG",
            "hex": "76a9140bf6821622310e6ed37009b619f3fe486876fbb188ac",
            "reqSigs": 1,
            "type": "pubkeyhash",
            "addresses": [
              "LLKD11Ws9KwiKfdT3k9KCADcVGur4vhV7i"
            ]
          }
        }
      ],
      "hex": "0200000001055d95a85957ddd9f5a283784776a0273c025a4f49d5b517c83b0550087c6f62000000006b483045022100b13147b2ef75f49fd2f34bc8acfd21c04cb68fcf10d9cf0aea83ded7e95cbe7e02203ec2873b997a8e71724a38f1301ea524391c790b4daa93fcf96436eed12acec801210391af73150fe28e21d5a53633ae11dae9d493c3151eb5f8ee52e6e8fdfca12930feffffff02ad803a00000000001976a914cec4df006fa5d90057c301cf9f1f332c2db3b12188aca3753400000000001976a9140bf6821622310e6ed37009b619f3fe486876fbb188ac4ebb1400"
    }, 
    {
      "txid": "aa55871a03855c75d42628cf748ee5a0e080c881535fce925a87612a270ef6fd",
      "hash": "aa55871a03855c75d42628cf748ee5a0e080c881535fce925a87612a270ef6fd",
      "version": 2,
      "size": 786,
      "vsize": 786,
      "locktime": 1358670,
      "vin": [
        {
          "txid": "d8d763690179fbb08c6ab026548ca2cd803800b390038a0defad9dbe21bdc85e",
          "vout": 26,
          "scriptSig": {
            "asm": "3045022100cf6019b8a6e963927dc162dda7207a88f7d765377427bfae85a061a0ac6e9fb2022005d5a4eda030007c5ae3761a2fa8abd5e7ab71fbaef4b7a43f34b9f351805bdc[ALL] 02e11ccaed18ddc80f18f67910807b7594bcb370a6ac293433e60e1de18baf1db3",
            "hex": "483045022100cf6019b8a6e963927dc162dda7207a88f7d765377427bfae85a061a0ac6e9fb2022005d5a4eda030007c5ae3761a2fa8abd5e7ab71fbaef4b7a43f34b9f351805bdc012102e11ccaed18ddc80f18f67910807b7594bcb370a6ac293433e60e1de18baf1db3"
          },
          "sequence": 4294967294
        }, 
        {
          "txid": "f6a1537869dfa731b06c4d2a95e382816922ba30f0a18e77d6a953ffe282531c",
          "vout": 0,
          "scriptSig": {
            "asm": "3045022100af5fa31c5e31af3cf2dd9e1b7f7edbc4920c49638543493a8f4a58c8bd2959680220330f23d9a0f13e83726d468664298a99345fb06af621ca0b775daf78c298b844[ALL] 0303cfa434f80704ea1527bbc2ed25c73e93a10bc044fd9eb41adaf7c63b101c56",
            "hex": "483045022100af5fa31c5e31af3cf2dd9e1b7f7edbc4920c49638543493a8f4a58c8bd2959680220330f23d9a0f13e83726d468664298a99345fb06af621ca0b775daf78c298b84401210303cfa434f80704ea1527bbc2ed25c73e93a10bc044fd9eb41adaf7c63b101c56"
          },
          "sequence": 4294967294
        }, 
        {
          "txid": "44280093db98525431bb1f1a38bee1f829c607bb6504edb855244df3ddd37c60",
          "vout": 0,
          "scriptSig": {
            "asm": "3045022100f2b15897e92bc6e2674db748421c01ef6e56e260ee1f8077469c25f8998ad3d502205b8d7ea45844d8e9e51e75988c9b22f4b4d82c4fc5e657b2107220cc664b5138[ALL] 039e788857ee0af54849b1dee41a9a76a2d6439d24456a785f3c92d5db656142fb",
            "hex": "483045022100f2b15897e92bc6e2674db748421c01ef6e56e260ee1f8077469c25f8998ad3d502205b8d7ea45844d8e9e51e75988c9b22f4b4d82c4fc5e657b2107220cc664b51380121039e788857ee0af54849b1dee41a9a76a2d6439d24456a785f3c92d5db656142fb"
          },
          "sequence": 4294967294
        }
      ],
      "vout": [
        {
          "value": 3.19193507,
          "n": 0,
          "scriptPubKey": {
            "asm": "OP_DUP OP_HASH160 ae0da445e5f4f596e6800ef0831483df6c743bc2 OP_EQUALVERIFY OP_CHECKSIG",
            "hex": "76a914ae0da445e5f4f596e6800ef0831483df6c743bc288ac",
            "reqSigs": 1,
            "type": "pubkeyhash",
            "addresses": [
              "Lb6GBS4NRSg8AdXR8YWtJbgZsePC8xdEbT"
            ]
          }
        }, 
        {
          "value": 0.15800000,
          "n": 1,
          "scriptPubKey": {
            "asm": "OP_DUP OP_HASH160 9784d2667cf2313362dad89360c8f110ce6a76dd OP_EQUALVERIFY OP_CHECKSIG",
            "hex": "76a9149784d2667cf2313362dad89360c8f110ce6a76dd88ac",
            "reqSigs": 1,
            "type": "pubkeyhash",
            "addresses": [
              "LZ37QoepjScTzhURH4ymEGeyLHc5JCE9zr"
            ]
          }
        }, 
        {
          "value": 0.00100000,
          "n": 2,
          "scriptPubKey": {
            "asm": "OP_HASH160 a3f99f178074c8d135574c65baaaf7455f88a907 OP_EQUAL",
            "hex": "a914a3f99f178074c8d135574c65baaaf7455f88a90787",
            "reqSigs": 1,
            "type": "scripthash",
            "addresses": [
              "MNrBQhcp1pVXeTHMBb36erHdCYG3Fqs6Th"
            ]
          }
        }, 
        {
          "value": 10.36640569,
          "n": 3,
          "scriptPubKey": {
            "asm": "OP_DUP OP_HASH160 b9b1d34556923726cc8a78281d32a34de9d79d71 OP_EQUALVERIFY OP_CHECKSIG",
            "hex": "76a914b9b1d34556923726cc8a78281d32a34de9d79d7188ac",
            "reqSigs": 1,
            "type": "pubkeyhash",
            "addresses": [
              "Lc9pJDdDCT55KaMA1nchXoLXdvCtxBYk2t"
            ]
          }
        }, 
        {
          "value": 0.31913737,
          "n": 4,
          "scriptPubKey": {
            "asm": "OP_DUP OP_HASH160 cb3bd06f6b0cfb5b15cadcd8a7935e7901da66e0 OP_EQUALVERIFY OP_CHECKSIG",
            "hex": "76a914cb3bd06f6b0cfb5b15cadcd8a7935e7901da66e088ac",
            "reqSigs": 1,
            "type": "pubkeyhash",
            "addresses": [
              "LdkZ67oSfJstQqaoEzY5nPcBjvCKFbNXqS"
            ]
          }
        }, 
        {
          "value": 2.98500000,
          "n": 5,
          "scriptPubKey": {
            "asm": "OP_HASH160 c17a59e6c3dc4f7765068cf7bd57e47f15d783d5 OP_EQUAL",
            "hex": "a914c17a59e6c3dc4f7765068cf7bd57e47f15d783d587",
            "reqSigs": 1,
            "type": "scripthash",
            "addresses": [
              "MRYBDZZqbhstDczfLgLsN7FjvpqTQf4Hq8"
            ]
          }
        }, 
        {
          "value": 5.47250000,
          "n": 6,
          "scriptPubKey": {
            "asm": "OP_HASH160 279aff52f2f25a562503b31230154150bd8d166e OP_EQUAL",
            "hex": "a914279aff52f2f25a562503b31230154150bd8d166e87",
            "reqSigs": 1,
            "type": "scripthash",
            "addresses": [
              "MBWaGKLLVKV7S7hCo5aXUUSwEzuwgaQDFy"
            ]
          }
        }, 
        {
          "value": 0.16559830,
          "n": 7,
          "scriptPubKey": {
            "asm": "OP_DUP OP_HASH160 5111e3b6b3e87f262846861b6b161da0e581dae5 OP_EQUALVERIFY OP_CHECKSIG",
            "hex": "76a9145111e3b6b3e87f262846861b6b161da0e581dae588ac",
            "reqSigs": 1,
            "type": "pubkeyhash",
            "addresses": [
              "LSccRje78Rwaz4DbD4nkukGUoUHsqqWaXa"
            ]
          }
        }, 
        {
          "value": 0.50400000,
          "n": 8,
          "scriptPubKey": {
            "asm": "OP_DUP OP_HASH160 4d11228b855b760c982d83aaf88ec4ea50006787 OP_EQUALVERIFY OP_CHECKSIG",
            "hex": "76a9144d11228b855b760c982d83aaf88ec4ea5000678788ac",
            "reqSigs": 1,
            "type": "pubkeyhash",
            "addresses": [
              "LSFSpYJgrhu5XB36wGLL6qMLrQC455c9hw"
            ]
          }
        }, 
        {
          "value": 17.53615664,
          "n": 9,
          "scriptPubKey": {
            "asm": "OP_HASH160 36a1cd84523e565dc752335c086367f6103214f4 OP_EQUAL",
            "hex": "a91436a1cd84523e565dc752335c086367f6103214f487",
            "reqSigs": 1,
            "type": "scripthash",
            "addresses": [
              "MCt2Z3YaVzEvRyY3pfxjRRKT2gSBVVcJHR"
            ]
          }
        }
      ],
      "hex": "02000000035ec8bd21be9dadef0d8a0390b3003880cda28c5426b06a8cb0fb79016963d7d81a0000006b483045022100cf6019b8a6e963927dc162dda7207a88f7d765377427bfae85a061a0ac6e9fb2022005d5a4eda030007c5ae3761a2fa8abd5e7ab71fbaef4b7a43f34b9f351805bdc012102e11ccaed18ddc80f18f67910807b7594bcb370a6ac293433e60e1de18baf1db3feffffff1c5382e2ff53a9d6778ea1f030ba22698182e3952a4d6cb031a7df697853a1f6000000006b483045022100af5fa31c5e31af3cf2dd9e1b7f7edbc4920c49638543493a8f4a58c8bd2959680220330f23d9a0f13e83726d468664298a99345fb06af621ca0b775daf78c298b84401210303cfa434f80704ea1527bbc2ed25c73e93a10bc044fd9eb41adaf7c63b101c56feffffff607cd3ddf34d2455b8ed0465bb07c629f8e1be381a1fbb31545298db93002844000000006b483045022100f2b15897e92bc6e2674db748421c01ef6e56e260ee1f8077469c25f8998ad3d502205b8d7ea45844d8e9e51e75988c9b22f4b4d82c4fc5e657b2107220cc664b51380121039e788857ee0af54849b1dee41a9a76a2d6439d24456a785f3c92d5db656142fbfeffffff0aa3810613000000001976a914ae0da445e5f4f596e6800ef0831483df6c743bc288acc016f100000000001976a9149784d2667cf2313362dad89360c8f110ce6a76dd88aca08601000000000017a914a3f99f178074c8d135574c65baaaf7455f88a9078739e1c93d000000001976a914b9b1d34556923726cc8a78281d32a34de9d79d7188ac09f7e601000000001976a914cb3bd06f6b0cfb5b15cadcd8a7935e7901da66e088aca0bfca110000000017a914c17a59e6c3dc4f7765068cf7bd57e47f15d783d587505f9e200000000017a914279aff52f2f25a562503b31230154150bd8d166e87d6aefc00000000001976a9145111e3b6b3e87f262846861b6b161da0e581dae588ac000b0103000000001976a9144d11228b855b760c982d83aaf88ec4ea5000678788ac300d86680000000017a91436a1cd84523e565dc752335c086367f6103214f4874ebb1400"
    }
  ],
  "time": 1517175022,
  "mediantime": 1517174611,
  "nonce": 4111274837,
  "bits": "1a047f14",
  "difficulty": 3731199.183374282,
  "chainwork": "0000000000000000000000000000000000000000000000334bf633593c87153a",
  "previousblockhash": "9860601e3f5da0b61b6d20a8c1127875e90be2ffd0310fb399ff3b7517efb74e",
  "nextblockhash": "9aaef7c4edebef9c470b5ac00f279484b68269c4b9ec2d5c3dc4e3fcfb41e724"
}
