{
  "hash": "72e0ae3462b4ad32a1a0fb9f410d27be7a8722087e3c3a73057c884ebc32df33",
  "confirmations": 1360,
  "strippedsize": 253,
  "size": 253,
  "weight": 1012,
  "height": 1359634,
  "version": 536870912,
  "versionHex": "20000000",
  "merkleroot": "4557760f70c4ffe69aa6a13d8c2373633f35a2ab69d913158e3c6e3f36a78834",
  "tx": [
    {
      "txid": "4557760f70c4ffe69aa6a13d8c2373633f35a2ab69d913158e3c6e3f36a78834",
      "hash": "4557760f70c4ffe69aa6a13d8c2373633f35a2ab69d913158e3c6e3f36a78834",
      "version": 1,
      "size": 172,
      "vsize": 172,
      "locktime": 0,
      "vin": [
        {
          "coinbase": "0312bf141a4d696e656420627920416e74506f6f6c20626a331f205a705393fabe6d6d74cbfdeb2531873751b420fc9f5916af105f5be39e545995c97cca7eb9ff37ee04000000000000004c2a0000000000000f000000",
          "sequence": 4294967295
        }
      ],
      "vout": [
        {
          "value": 25.00000000,
          "n": 0,
          "scriptPubKey": {
            "asm": "OP_DUP OP_HASH160 0ff3ccc5e8be88afe24b5d634e5852d474dbdff1 OP_EQUALVERIFY OP_CHECKSIG",
            "hex": "76a9140ff3ccc5e8be88afe24b5d634e5852d474dbdff188ac",
            "reqSigs": 1,
            "type": "pubkeyhash",
            "addresses": [
              "LLgJTbzZMsRTCUF1NtvvL9SR1a4pVieW89"
            ]
          }
        }
      ],
      "hex": "01000000010000000000000000000000000000000000000000000000000000000000000000ffffffff570312bf141a4d696e656420627920416e74506f6f6c20626a331f205a705393fabe6d6d74cbfdeb2531873751b420fc9f5916af105f5be39e545995c97cca7eb9ff37ee04000000000000004c2a0000000000000f000000ffffffff0100f90295000000001976a9140ff3ccc5e8be88afe24b5d634e5852d474dbdff188ac00000000"
    }
  ],
  "time": 1517310867,
  "mediantime": 1517309913,
  "nonce": 958340774,
  "bits": "1a042eae",
  "difficulty": 4011378.762614286,
  "chainwork": "000000000000000000000000000000000000000000000034301f64a6c4b11fa6",
  "previousblockhash": "363fe7491ba08a4445ae3d2776042d186fef3f49411ff3168705aa7822d2e007",
  "nextblockhash": "e39dae48933185bf8464495877d366f13736081c00adf56a84c33d8098c93828"
}
