{
  "hash": "72fcb0d6348f8b6ee7d79f85eb828bffab054fb5af7ee9287c9201874e441d0f",
  "confirmations": 2483,
  "strippedsize": 234,
  "size": 234,
  "weight": 936,
  "height": 1358512,
  "version": 536870912,
  "versionHex": "20000000",
  "merkleroot": "d8709989cfbc4a7ad795f644d64a31be30acf49bde771ed7ef667e63f8c2f5a3",
  "tx": [
    {
      "txid": "d8709989cfbc4a7ad795f644d64a31be30acf49bde771ed7ef667e63f8c2f5a3",
      "hash": "d8709989cfbc4a7ad795f644d64a31be30acf49bde771ed7ef667e63f8c2f5a3",
      "version": 1,
      "size": 153,
      "vsize": 153,
      "locktime": 0,
      "vin": [
        {
          "coinbase": "03b0ba14045a6de77b2cfabe6d6df6f0ffa94ad84b7d1abe44df6e79c797fef270520df08440416b7e03070e10b24000000000000000042f4c502f082200533a1f000000",
          "sequence": 4294967295
        }
      ],
      "vout": [
        {
          "value": 25.00000000,
          "n": 0,
          "scriptPubKey": {
            "asm": "OP_DUP OP_HASH160 57757ed2ecf2052ff3126c397aca7defb9ca2cec OP_EQUALVERIFY OP_CHECKSIG",
            "hex": "76a91457757ed2ecf2052ff3126c397aca7defb9ca2cec88ac",
            "reqSigs": 1,
            "type": "pubkeyhash",
            "addresses": [
              "LTCPodGk5FwcJaRzH9yKnwicxzFUbxp6tN"
            ]
          }
        }
      ],
      "hex": "01000000010000000000000000000000000000000000000000000000000000000000000000ffffffff4403b0ba14045a6de77b2cfabe6d6df6f0ffa94ad84b7d1abe44df6e79c797fef270520df08440416b7e03070e10b24000000000000000042f4c502f082200533a1f000000ffffffff0100f90295000000001976a91457757ed2ecf2052ff3126c397aca7defb9ca2cec88ac00000000"
    }
  ],
  "time": 1517152123,
  "mediantime": 1517151633,
  "nonce": 704047937,
  "bits": "1a047f14",
  "difficulty": 3731199.183374282,
  "chainwork": "0000000000000000000000000000000000000000000000332860b046627184fa",
  "previousblockhash": "472fca1d29c3fb717fa0ddbab86677862db0a5db550a50f329713213f36ca002",
  "nextblockhash": "753eb15a3d9a0245aa60f0d8a56f437e4f819ebb227714a7d83482a739312917"
}
