{
  "hash": "7307e3c65eb33d796d2af319ab801beae0177cf747011d9da8ce61e6aed16749",
  "confirmations": 902,
  "strippedsize": 2606,
  "size": 2642,
  "weight": 10460,
  "height": 1360092,
  "version": 536870912,
  "versionHex": "20000000",
  "merkleroot": "1dc2b8123a386f5cd385aa8e006bdc7b1cb607037f988335f4fad60831e591e1",
  "tx": [
    {
      "txid": "bfa3cb6d612461a42794e820e9cd82ca7d4a285213e58e0568823a25d1d6fd5a",
      "hash": "9ecaba97360e280a4f99d5a17e24fb4d1b9a144b2e728f249439f6df42b8c394",
      "version": 2,
      "size": 234,
      "vsize": 207,
      "locktime": 0,
      "vin": [
        {
          "coinbase": "03dcc014043e45715a2ffabe6d6d1490da65902e75101a89bfd3fcb8cc5166b355f7371836dd34ececa6a3cefeb401000000000000000403af58ca03000000000000",
          "sequence": 4294967295
        }
      ],
      "vout": [
        {
          "value": 25.00910550,
          "n": 0,
          "scriptPubKey": {
            "asm": "OP_DUP OP_HASH160 3d29d474d0a98b5b2669d990d2917780837edf0c OP_EQUALVERIFY OP_CHECKSIG",
            "hex": "76a9143d29d474d0a98b5b2669d990d2917780837edf0c88ac",
            "reqSigs": 1,
            "type": "pubkeyhash",
            "addresses": [
              "LQoMbJnzRK2sDXazJuUNXPTx7FrKKPJgt6"
            ]
          }
        }, 
        {
          "value": 0.00000000,
          "n": 1,
          "scriptPubKey": {
            "asm": "OP_RETURN aa21a9ed5749682c17545fa75a4c84deb5a80c8c285f3b53402fc500d0466ed8896c48d5",
            "hex": "6a24aa21a9ed5749682c17545fa75a4c84deb5a80c8c285f3b53402fc500d0466ed8896c48d5",
            "type": "nulldata"
          }
        }
      ],
      "hex": "020000000001010000000000000000000000000000000000000000000000000000000000000000ffffffff4203dcc014043e45715a2ffabe6d6d1490da65902e75101a89bfd3fcb8cc5166b355f7371836dd34ececa6a3cefeb401000000000000000403af58ca03000000000000ffffffff02d6dd1095000000001976a9143d29d474d0a98b5b2669d990d2917780837edf0c88ac0000000000000000266a24aa21a9ed5749682c17545fa75a4c84deb5a80c8c285f3b53402fc500d0466ed8896c48d50120000000000000000000000000000000000000000000000000000000000000000000000000"
    }, 
    {
      "txid": "53be1f66a9b811c940d755dedf3ce31aa826bacc610f8c276e329ed09bd96255",
      "hash": "53be1f66a9b811c940d755dedf3ce31aa826bacc610f8c276e329ed09bd96255",
      "version": 1,
      "size": 520,
      "vsize": 520,
      "locktime": 0,
      "vin": [
        {
          "txid": "e2b257567a92fd4ed14bc8bd7efb52cde04ad1e754917724ab115f0153478510",
          "vout": 1,
          "scriptSig": {
            "asm": "3045022100dc36558a11c2b1af54b82a979d5f999f4645d973a34e1667740f7124e43850270220156eee725b6c0fea94829ac91e25b7a1f85519092174038ab0a473236abdf3e5[ALL] 036b34aaf440d40c47175451e6a6d8dab897d329e6c1eefcece93eaf17dbb117da",
            "hex": "483045022100dc36558a11c2b1af54b82a979d5f999f4645d973a34e1667740f7124e43850270220156eee725b6c0fea94829ac91e25b7a1f85519092174038ab0a473236abdf3e50121036b34aaf440d40c47175451e6a6d8dab897d329e6c1eefcece93eaf17dbb117da"
          },
          "sequence": 4294967295
        }, 
        {
          "txid": "7a1444753aba18732ea488b9847fe08062a82e42751b622b077a4f91f279f72e",
          "vout": 1,
          "scriptSig": {
            "asm": "304402201dd3c2429d0e976bd2b928bfc431f27db55129fdc0ce2c56a40b0d2f863a3b8502207ef84f7f6fb848b48b05827a4aa07057391f857a3529ae9d7680a3adf5278801[ALL] 035973c5412114e512ee133343a6b92da5fbe549c8b25b3f917c658af13b7bd488",
            "hex": "47304402201dd3c2429d0e976bd2b928bfc431f27db55129fdc0ce2c56a40b0d2f863a3b8502207ef84f7f6fb848b48b05827a4aa07057391f857a3529ae9d7680a3adf52788010121035973c5412114e512ee133343a6b92da5fbe549c8b25b3f917c658af13b7bd488"
          },
          "sequence": 4294967295
        }, 
        {
          "txid": "04148eabe0bd5dc6a31426cd51065d93f1df8a67a929b950cdf71f99b2fdd0a5",
          "vout": 52,
          "scriptSig": {
            "asm": "30440220492b05f8cf890c31df0667d931b7a1c2f25bc8d87c3260cc93eb3a1a9c92352902200888379bd104a8a7b783482187098041c2efdaa9b299bc4fad9a582c12e570a6[ALL] 02c42d6d76a34b5fa2f65b0487508edbfa194af001b207e488faf096b8a16aa81b",
            "hex": "4730440220492b05f8cf890c31df0667d931b7a1c2f25bc8d87c3260cc93eb3a1a9c92352902200888379bd104a8a7b783482187098041c2efdaa9b299bc4fad9a582c12e570a6012102c42d6d76a34b5fa2f65b0487508edbfa194af001b207e488faf096b8a16aa81b"
          },
          "sequence": 4294967295
        }
      ],
      "vout": [
        {
          "value": 0.64550583,
          "n": 0,
          "scriptPubKey": {
            "asm": "OP_DUP OP_HASH160 c0d7e75bc9c5379972b5bcc9ca7dd605c6b06a04 OP_EQUALVERIFY OP_CHECKSIG",
            "hex": "76a914c0d7e75bc9c5379972b5bcc9ca7dd605c6b06a0488ac",
            "reqSigs": 1,
            "type": "pubkeyhash",
            "addresses": [
              "LcoceJL7468pfYj5HQv9KpZeGtURAhEcWn"
            ]
          }
        }, 
        {
          "value": 0.64550582,
          "n": 1,
          "scriptPubKey": {
            "asm": "OP_DUP OP_HASH160 c3d2be077628dcca13e79cd6616a6be5bc2759a1 OP_EQUALVERIFY OP_CHECKSIG",
            "hex": "76a914c3d2be077628dcca13e79cd6616a6be5bc2759a188ac",
            "reqSigs": 1,
            "type": "pubkeyhash",
            "addresses": [
              "Ld5NVFZ8FxseUwjsEpi3gaHdayEya7HDyH"
            ]
          }
        }
      ],
      "hex": "010000000310854753015f11ab24779154e7d14ae0cd52fb7ebdc84bd14efd927a5657b2e2010000006b483045022100dc36558a11c2b1af54b82a979d5f999f4645d973a34e1667740f7124e43850270220156eee725b6c0fea94829ac91e25b7a1f85519092174038ab0a473236abdf3e50121036b34aaf440d40c47175451e6a6d8dab897d329e6c1eefcece93eaf17dbb117daffffffff2ef779f2914f7a072b621b75422ea86280e07f84b988a42e7318ba3a7544147a010000006a47304402201dd3c2429d0e976bd2b928bfc431f27db55129fdc0ce2c56a40b0d2f863a3b8502207ef84f7f6fb848b48b05827a4aa07057391f857a3529ae9d7680a3adf52788010121035973c5412114e512ee133343a6b92da5fbe549c8b25b3f917c658af13b7bd488ffffffffa5d0fdb2991ff7cd50b929a9678adff1935d0651cd2614a3c65dbde0ab8e1404340000006a4730440220492b05f8cf890c31df0667d931b7a1c2f25bc8d87c3260cc93eb3a1a9c92352902200888379bd104a8a7b783482187098041c2efdaa9b299bc4fad9a582c12e570a6012102c42d6d76a34b5fa2f65b0487508edbfa194af001b207e488faf096b8a16aa81bffffffff02b7f6d803000000001976a914c0d7e75bc9c5379972b5bcc9ca7dd605c6b06a0488acb6f6d803000000001976a914c3d2be077628dcca13e79cd6616a6be5bc2759a188ac00000000"
    }, 
    {
      "txid": "de90096411e169e1ae9799a7a00cbfb770438e166d63dcea88f540a070d1441f",
      "hash": "de90096411e169e1ae9799a7a00cbfb770438e166d63dcea88f540a070d1441f",
      "version": 1,
      "size": 226,
      "vsize": 226,
      "locktime": 0,
      "vin": [
        {
          "txid": "e6462aefd8aaa8ef17368dce80b90d284ac900872fd1670f9e480e0a3b6fb984",
          "vout": 0,
          "scriptSig": {
            "asm": "3045022100dfedfbf4645cf053bf5271b5fc14c761ac6a7070ad17725c57aada0a0fc0837e02205290061209cc4a48c0508b0280907a0e51a2b1b9456291767b8dda10b0e8aad7[ALL] 02efe2ed2d2d75d55382926257e774377cb0b451f0e68e13a5afb3dfdad3603f65",
            "hex": "483045022100dfedfbf4645cf053bf5271b5fc14c761ac6a7070ad17725c57aada0a0fc0837e02205290061209cc4a48c0508b0280907a0e51a2b1b9456291767b8dda10b0e8aad7012102efe2ed2d2d75d55382926257e774377cb0b451f0e68e13a5afb3dfdad3603f65"
          },
          "sequence": 4294967295
        }
      ],
      "vout": [
        {
          "value": 0.63000000,
          "n": 0,
          "scriptPubKey": {
            "asm": "OP_DUP OP_HASH160 dcccd3b24681eb8f71686d96c061504c0e597318 OP_EQUALVERIFY OP_CHECKSIG",
            "hex": "76a914dcccd3b24681eb8f71686d96c061504c0e59731888ac",
            "reqSigs": 1,
            "type": "pubkeyhash",
            "addresses": [
              "LfMSJ3KviiPuGcKoL4XB7GzndFgsj5buKB"
            ]
          }
        }, 
        {
          "value": 23.02779150,
          "n": 1,
          "scriptPubKey": {
            "asm": "OP_DUP OP_HASH160 f9871c6dd621879729cd7d502a5af822501cf2aa OP_EQUALVERIFY OP_CHECKSIG",
            "hex": "76a914f9871c6dd621879729cd7d502a5af822501cf2aa88ac",
            "reqSigs": 1,
            "type": "pubkeyhash",
            "addresses": [
              "LhyLNfBkoKshT7R8Pce6vkB9T2cP2o84hx"
            ]
          }
        }
      ],
      "hex": "010000000184b96f3b0a0e489e0f67d12f8700c94a280db980ce8d3617efa8aad8ef2a46e6000000006b483045022100dfedfbf4645cf053bf5271b5fc14c761ac6a7070ad17725c57aada0a0fc0837e02205290061209cc4a48c0508b0280907a0e51a2b1b9456291767b8dda10b0e8aad7012102efe2ed2d2d75d55382926257e774377cb0b451f0e68e13a5afb3dfdad3603f65ffffffff02c04dc103000000001976a914dcccd3b24681eb8f71686d96c061504c0e59731888ac0e9f4189000000001976a914f9871c6dd621879729cd7d502a5af822501cf2aa88ac00000000"
    }, 
    {
      "txid": "83004e48c5a6055d46a2d946723d38d4ee341911f9af597aa6708d6efbf22523",
      "hash": "83004e48c5a6055d46a2d946723d38d4ee341911f9af597aa6708d6efbf22523",
      "version": 2,
      "size": 226,
      "vsize": 226,
      "locktime": 1360090,
      "vin": [
        {
          "txid": "f96eeda61f3181192812e7425a562da088f7da09986a581b867ec5957ab63d2e",
          "vout": 1,
          "scriptSig": {
            "asm": "30450221008fcce707969dae91b21a9e0ebdb30a6db5a3252ce19bdb264c6fb708585eb06b022038b11e47569c2ba3a87db0070f57bd440ef000880e14f319bf4cfe2b366d9abd[ALL] 0205cc36379cee313d3551b400a9f042c76806f1da7e8644117c3acd9d67630e96",
            "hex": "4830450221008fcce707969dae91b21a9e0ebdb30a6db5a3252ce19bdb264c6fb708585eb06b022038b11e47569c2ba3a87db0070f57bd440ef000880e14f319bf4cfe2b366d9abd01210205cc36379cee313d3551b400a9f042c76806f1da7e8644117c3acd9d67630e96"
          },
          "sequence": 4294967294
        }
      ],
      "vout": [
        {
          "value": 7.59718385,
          "n": 0,
          "scriptPubKey": {
            "asm": "OP_DUP OP_HASH160 822d836710d08f142dd2f79dea2d8f5a46df5c74 OP_EQUALVERIFY OP_CHECKSIG",
            "hex": "76a914822d836710d08f142dd2f79dea2d8f5a46df5c7488ac",
            "reqSigs": 1,
            "type": "pubkeyhash",
            "addresses": [
              "LX6GdUCybK4yoz4XYhp8KK4feGwTjGRB4c"
            ]
          }
        }, 
        {
          "value": 17.83793090,
          "n": 1,
          "scriptPubKey": {
            "asm": "OP_DUP OP_HASH160 4443e120dfe4fd73092c9cceef83a04c94e8810b OP_EQUALVERIFY OP_CHECKSIG",
            "hex": "76a9144443e120dfe4fd73092c9cceef83a04c94e8810b88ac",
            "reqSigs": 1,
            "type": "pubkeyhash",
            "addresses": [
              "LRSuXbqShW73QrnEqvDETEL2VqS1KcteoR"
            ]
          }
        }
      ],
      "hex": "02000000012e3db67a95c57e861b586a9809daf788a02d565a42e712281981311fa6ed6ef9010000006b4830450221008fcce707969dae91b21a9e0ebdb30a6db5a3252ce19bdb264c6fb708585eb06b022038b11e47569c2ba3a87db0070f57bd440ef000880e14f319bf4cfe2b366d9abd01210205cc36379cee313d3551b400a9f042c76806f1da7e8644117c3acd9d67630e96feffffff02f161482d000000001976a914822d836710d08f142dd2f79dea2d8f5a46df5c7488acc285526a000000001976a9144443e120dfe4fd73092c9cceef83a04c94e8810b88acdac01400"
    }, 
    {
      "txid": "9688e42da38905f456a264ef55efa2578634aec0a20b9128794ab4a79cfe00ea",
      "hash": "9688e42da38905f456a264ef55efa2578634aec0a20b9128794ab4a79cfe00ea",
      "version": 2,
      "size": 226,
      "vsize": 226,
      "locktime": 1360090,
      "vin": [
        {
          "txid": "875f9f9768d17a0789d5b578cad5af7b425e60dd3116b76373a0fbc4a6355645",
          "vout": 1,
          "scriptSig": {
            "asm": "3045022100e72d0863e3d238c69be6829e4a9705af6ab22ee9a8e5fc5c4253ae1b7c0c28c4022034b0da4845eddfee94334f20218017564ed9592765b4d43cb66feb1a87cb528b[ALL] 03620d21534997575c5d9cb7dcf75582df12395dfd42d76e7892309edd85b18e33",
            "hex": "483045022100e72d0863e3d238c69be6829e4a9705af6ab22ee9a8e5fc5c4253ae1b7c0c28c4022034b0da4845eddfee94334f20218017564ed9592765b4d43cb66feb1a87cb528b012103620d21534997575c5d9cb7dcf75582df12395dfd42d76e7892309edd85b18e33"
          },
          "sequence": 4294967294
        }
      ],
      "vout": [
        {
          "value": 43.79600892,
          "n": 0,
          "scriptPubKey": {
            "asm": "OP_DUP OP_HASH160 750795f9cddca5ce5552efd3066114ded94c1fa3 OP_EQUALVERIFY OP_CHECKSIG",
            "hex": "76a914750795f9cddca5ce5552efd3066114ded94c1fa388ac",
            "reqSigs": 1,
            "type": "pubkeyhash",
            "addresses": [
              "LVtkQjLbrFKsQ5YsYDvMmjnyQKjR52QRDr"
            ]
          }
        }, 
        {
          "value": 3.00000000,
          "n": 1,
          "scriptPubKey": {
            "asm": "OP_DUP OP_HASH160 3c9009687bd7a1c5734fd5f501be3936b952c37f OP_EQUALVERIFY OP_CHECKSIG",
            "hex": "76a9143c9009687bd7a1c5734fd5f501be3936b952c37f88ac",
            "reqSigs": 1,
            "type": "pubkeyhash",
            "addresses": [
              "LQkBMa7WEgEyPgMYFSvMfHQCS7V9N3BUQL"
            ]
          }
        }
      ],
      "hex": "0200000001455635a6c4fba07363b71631dd605e427bafd5ca78b5d589077ad168979f5f87010000006b483045022100e72d0863e3d238c69be6829e4a9705af6ab22ee9a8e5fc5c4253ae1b7c0c28c4022034b0da4845eddfee94334f20218017564ed9592765b4d43cb66feb1a87cb528b012103620d21534997575c5d9cb7dcf75582df12395dfd42d76e7892309edd85b18e33feffffff02fc670b05010000001976a914750795f9cddca5ce5552efd3066114ded94c1fa388ac00a3e111000000001976a9143c9009687bd7a1c5734fd5f501be3936b952c37f88acdac01400"
    }, 
    {
      "txid": "a68ab3823a4b1b2d7e9484a9045636c4aacffe8ae12b814bb3f9f05224a980a0",
      "hash": "a68ab3823a4b1b2d7e9484a9045636c4aacffe8ae12b814bb3f9f05224a980a0",
      "version": 1,
      "size": 225,
      "vsize": 225,
      "locktime": 0,
      "vin": [
        {
          "txid": "94da3b8e7228833e73fcf17dcdaae9066b9f35710f51f15f5a88ce09f1ba1a65",
          "vout": 1,
          "scriptSig": {
            "asm": "304402202738437099562d2f8a1e31832bfd906c58e565a4b1b4a1ca9e8f08c639f9d5640220388005f6f2fb1138ab45418aa3bd5291a00e475517a049e9f40a6368b13eee04[ALL] 03d5a51e15b561bf3d6c458c773627bed26292aeab60c938cb397da6f39c45502f",
            "hex": "47304402202738437099562d2f8a1e31832bfd906c58e565a4b1b4a1ca9e8f08c639f9d5640220388005f6f2fb1138ab45418aa3bd5291a00e475517a049e9f40a6368b13eee04012103d5a51e15b561bf3d6c458c773627bed26292aeab60c938cb397da6f39c45502f"
          },
          "sequence": 4294967295
        }
      ],
      "vout": [
        {
          "value": 0.00625000,
          "n": 0,
          "scriptPubKey": {
            "asm": "OP_DUP OP_HASH160 613ecbfac82a1a0a1edca406a6eebad0b9b6de55 OP_EQUALVERIFY OP_CHECKSIG",
            "hex": "76a914613ecbfac82a1a0a1edca406a6eebad0b9b6de5588ac",
            "reqSigs": 1,
            "type": "pubkeyhash",
            "addresses": [
              "LU693229UBAUZ96yn563iVKc8bQrR3giC7"
            ]
          }
        }, 
        {
          "value": 0.00054930,
          "n": 1,
          "scriptPubKey": {
            "asm": "OP_DUP OP_HASH160 7b26155185aa55bdfe56afc60d3798c2bc01aae2 OP_EQUALVERIFY OP_CHECKSIG",
            "hex": "76a9147b26155185aa55bdfe56afc60d3798c2bc01aae288ac",
            "reqSigs": 1,
            "type": "pubkeyhash",
            "addresses": [
              "LWT6zt2GMVTTQ4ZGwA5dNyJevx71GiLMBB"
            ]
          }
        }
      ],
      "hex": "0100000001651abaf109ce885a5ff1510f71359f6b06e9aacd7df1fc733e8328728e3bda94010000006a47304402202738437099562d2f8a1e31832bfd906c58e565a4b1b4a1ca9e8f08c639f9d5640220388005f6f2fb1138ab45418aa3bd5291a00e475517a049e9f40a6368b13eee04012103d5a51e15b561bf3d6c458c773627bed26292aeab60c938cb397da6f39c45502fffffffff0268890900000000001976a914613ecbfac82a1a0a1edca406a6eebad0b9b6de5588ac92d60000000000001976a9147b26155185aa55bdfe56afc60d3798c2bc01aae288ac00000000"
    }, 
    {
      "txid": "acf0a52a175566f46255e5794cd421f3b7fea0c8d5eaeccc61020c37d6190749",
      "hash": "acf0a52a175566f46255e5794cd421f3b7fea0c8d5eaeccc61020c37d6190749",
      "version": 1,
      "size": 226,
      "vsize": 226,
      "locktime": 0,
      "vin": [
        {
          "txid": "61d400ffc4300b651e377a5654e190402c6c3a8865ed390f842a8d7ea455bfae",
          "vout": 0,
          "scriptSig": {
            "asm": "3045022100c37a4049000e5355e488efcf2218d1a5d1539266a70f289f7223cb57f634940202204ed7c9adff3d0521186069f41a2d61f1a6e21427e79b7f3520009f837dd85025[ALL] 03131f63747dc2654db8946999636e2b4992fc0dff181a45eabaa2df3eeece6066",
            "hex": "483045022100c37a4049000e5355e488efcf2218d1a5d1539266a70f289f7223cb57f634940202204ed7c9adff3d0521186069f41a2d61f1a6e21427e79b7f3520009f837dd85025012103131f63747dc2654db8946999636e2b4992fc0dff181a45eabaa2df3eeece6066"
          },
          "sequence": 4294967295
        }
      ],
      "vout": [
        {
          "value": 0.50825014,
          "n": 0,
          "scriptPubKey": {
            "asm": "OP_DUP OP_HASH160 136f0c2f2f408f618a241c4e5a8408a6a0fea8d2 OP_EQUALVERIFY OP_CHECKSIG",
            "hex": "76a914136f0c2f2f408f618a241c4e5a8408a6a0fea8d288ac",
            "reqSigs": 1,
            "type": "pubkeyhash",
            "addresses": [
              "LLzi8abE2vQHoxr5XTss6eWLzLQb5pFWLB"
            ]
          }
        }, 
        {
          "value": 15.00000000,
          "n": 1,
          "scriptPubKey": {
            "asm": "OP_DUP OP_HASH160 aa706157816c3ee7a7300e2ab05edd923bc1bf40 OP_EQUALVERIFY OP_CHECKSIG",
            "hex": "76a914aa706157816c3ee7a7300e2ab05edd923bc1bf4088ac",
            "reqSigs": 1,
            "type": "pubkeyhash",
            "addresses": [
              "Lam9m964Pmmu5CzHgBDqRtPyfWsSDFwgAa"
            ]
          }
        }
      ],
      "hex": "0100000001aebf55a47e8d2a840f39ed65883a6c2c4090e154567a371e650b30c4ff00d461000000006b483045022100c37a4049000e5355e488efcf2218d1a5d1539266a70f289f7223cb57f634940202204ed7c9adff3d0521186069f41a2d61f1a6e21427e79b7f3520009f837dd85025012103131f63747dc2654db8946999636e2b4992fc0dff181a45eabaa2df3eeece6066ffffffff0236870703000000001976a914136f0c2f2f408f618a241c4e5a8408a6a0fea8d288ac002f6859000000001976a914aa706157816c3ee7a7300e2ab05edd923bc1bf4088ac00000000"
    }, 
    {
      "txid": "4457646ebb22877bfa5d66a654dfb4e5cf5ec3193ae88f178193f32e80de6491",
      "hash": "4457646ebb22877bfa5d66a654dfb4e5cf5ec3193ae88f178193f32e80de6491",
      "version": 1,
      "size": 226,
      "vsize": 226,
      "locktime": 0,
      "vin": [
        {
          "txid": "774fcfab7e9168705fd843102c4db240a8655c02c83d9789a1aa04e4b8659cee",
          "vout": 0,
          "scriptSig": {
            "asm": "3045022100ea5068a25fd14cd5b5f5a442bb8eaae8c9300ebd4186f74f45624d23277fe9ea022035b623fb1ef825e33037cbcf0f2b73cd2921a879bd593e3e46843088cb3d22c0[ALL] 038309c302dc4e165b39c8d2e7c20e7296851e0464bb54094c3361c361c7ed7855",
            "hex": "483045022100ea5068a25fd14cd5b5f5a442bb8eaae8c9300ebd4186f74f45624d23277fe9ea022035b623fb1ef825e33037cbcf0f2b73cd2921a879bd593e3e46843088cb3d22c00121038309c302dc4e165b39c8d2e7c20e7296851e0464bb54094c3361c361c7ed7855"
          },
          "sequence": 4294967295
        }
      ],
      "vout": [
        {
          "value": 0.02108193,
          "n": 0,
          "scriptPubKey": {
            "asm": "OP_DUP OP_HASH160 e3d62ffe8a93c16b9a0a7f69ae1266221ff1862f OP_EQUALVERIFY OP_CHECKSIG",
            "hex": "76a914e3d62ffe8a93c16b9a0a7f69ae1266221ff1862f88ac",
            "reqSigs": 1,
            "type": "pubkeyhash",
            "addresses": [
              "LfzeEmLxjaNi8SyiwZupj3p7uF41f4xFyP"
            ]
          }
        }, 
        {
          "value": 0.35000000,
          "n": 1,
          "scriptPubKey": {
            "asm": "OP_DUP OP_HASH160 b09d2115e0093f568effbf9baee06bc5d473d0cb OP_EQUALVERIFY OP_CHECKSIG",
            "hex": "76a914b09d2115e0093f568effbf9baee06bc5d473d0cb88ac",
            "reqSigs": 1,
            "type": "pubkeyhash",
            "addresses": [
              "LbKoRWJywpTZgSbnbqpDwAeETJgsQBLBvA"
            ]
          }
        }
      ],
      "hex": "0100000001ee9c65b8e404aaa189973dc8025c65a840b24d2c1043d85f7068917eabcf4f77000000006b483045022100ea5068a25fd14cd5b5f5a442bb8eaae8c9300ebd4186f74f45624d23277fe9ea022035b623fb1ef825e33037cbcf0f2b73cd2921a879bd593e3e46843088cb3d22c00121038309c302dc4e165b39c8d2e7c20e7296851e0464bb54094c3361c361c7ed7855ffffffff02212b2000000000001976a914e3d62ffe8a93c16b9a0a7f69ae1266221ff1862f88acc00e1602000000001976a914b09d2115e0093f568effbf9baee06bc5d473d0cb88ac00000000"
    }, 
    {
      "txid": "5f4061fa8fa0cc9a281553702e529f433c908c9c40ede756517d6713e2ccce9b",
      "hash": "5f4061fa8fa0cc9a281553702e529f433c908c9c40ede756517d6713e2ccce9b",
      "version": 1,
      "size": 226,
      "vsize": 226,
      "locktime": 0,
      "vin": [
        {
          "txid": "939e6b42b0fb2a2b8bcae2dcdc04221d3a98f1c5ab99644836186ed23a9d30ea",
          "vout": 0,
          "scriptSig": {
            "asm": "3045022100f3e47e0b7c88b0172bfb52d1f0539d94e82bf0252519bc717909ea8f6b206b5602201045f34de0bb43919aad0832e598988d7112a756e5b82a0fbfa9e7c9d8986465[ALL] 0326439a5370b66e3bc07efd006d11ccdb2d22d20a94bb5d29fb6d2b284937de76",
            "hex": "483045022100f3e47e0b7c88b0172bfb52d1f0539d94e82bf0252519bc717909ea8f6b206b5602201045f34de0bb43919aad0832e598988d7112a756e5b82a0fbfa9e7c9d898646501210326439a5370b66e3bc07efd006d11ccdb2d22d20a94bb5d29fb6d2b284937de76"
          },
          "sequence": 4294967295
        }
      ],
      "vout": [
        {
          "value": 0.54194891,
          "n": 0,
          "scriptPubKey": {
            "asm": "OP_DUP OP_HASH160 3f376d2f3e85bd35b4fb9611368ceb8e8a8ae78a OP_EQUALVERIFY OP_CHECKSIG",
            "hex": "76a9143f376d2f3e85bd35b4fb9611368ceb8e8a8ae78a88ac",
            "reqSigs": 1,
            "type": "pubkeyhash",
            "addresses": [
              "LQzDEQ7CprYDusPcxSq9SkM3MWkFBxS4zq"
            ]
          }
        }, 
        {
          "value": 0.02157446,
          "n": 1,
          "scriptPubKey": {
            "asm": "OP_DUP OP_HASH160 0cd41adbc38005aad92cb293d215513c524e2141 OP_EQUALVERIFY OP_CHECKSIG",
            "hex": "76a9140cd41adbc38005aad92cb293d215513c524e214188ac",
            "reqSigs": 1,
            "type": "pubkeyhash",
            "addresses": [
              "LLPnTpgTozaYu4kDmf2iSffp1Fmanw16qa"
            ]
          }
        }
      ],
      "hex": "0100000001ea309d3ad26e1836486499abc5f1983a1d2204dcdce2ca8b2b2afbb0426b9e93000000006b483045022100f3e47e0b7c88b0172bfb52d1f0539d94e82bf0252519bc717909ea8f6b206b5602201045f34de0bb43919aad0832e598988d7112a756e5b82a0fbfa9e7c9d898646501210326439a5370b66e3bc07efd006d11ccdb2d22d20a94bb5d29fb6d2b284937de76ffffffff02cbf23a03000000001976a9143f376d2f3e85bd35b4fb9611368ceb8e8a8ae78a88ac86eb2000000000001976a9140cd41adbc38005aad92cb293d215513c524e214188ac00000000"
    }, 
    {
      "txid": "ec34320d286a5fc22475053bdcfc77d854e6a47a3e0d89639a8af397740a1afb",
      "hash": "ec34320d286a5fc22475053bdcfc77d854e6a47a3e0d89639a8af397740a1afb",
      "version": 1,
      "size": 226,
      "vsize": 226,
      "locktime": 0,
      "vin": [
        {
          "txid": "fce5508f5a9e6590f6e9120bbafca8bef0b500f69971db25e9894c4b1e29674c",
          "vout": 0,
          "scriptSig": {
            "asm": "3045022100c3b3295a7cd50c461fdaa2e6b17d0d213a239d886007914214dd6b4c29b4af5c02205b3f0f7a77cb437b03621fce9402b9a41e01a4084bc229bdb0c1878f82fdc216[ALL] 03264b0bc7029520179798aaa2fb0f35ac898fc62f9a2b51a94e5d6faeb3c8cd99",
            "hex": "483045022100c3b3295a7cd50c461fdaa2e6b17d0d213a239d886007914214dd6b4c29b4af5c02205b3f0f7a77cb437b03621fce9402b9a41e01a4084bc229bdb0c1878f82fdc216012103264b0bc7029520179798aaa2fb0f35ac898fc62f9a2b51a94e5d6faeb3c8cd99"
          },
          "sequence": 4294967295
        }
      ],
      "vout": [
        {
          "value": 8.16244764,
          "n": 0,
          "scriptPubKey": {
            "asm": "OP_DUP OP_HASH160 8db38c3dfa3a88535911890a110d6010a9fbb57b OP_EQUALVERIFY OP_CHECKSIG",
            "hex": "76a9148db38c3dfa3a88535911890a110d6010a9fbb57b88ac",
            "reqSigs": 1,
            "type": "pubkeyhash",
            "addresses": [
              "LY9CdTmjR8T8B3bWDdPYb3W6rUWC9gowon"
            ]
          }
        }, 
        {
          "value": 6.24218115,
          "n": 1,
          "scriptPubKey": {
            "asm": "OP_DUP OP_HASH160 281055e64376e9e80b55d50881766e9d0edbb6d4 OP_EQUALVERIFY OP_CHECKSIG",
            "hex": "76a914281055e64376e9e80b55d50881766e9d0edbb6d488ac",
            "reqSigs": 1,
            "type": "pubkeyhash",
            "addresses": [
              "LNsnru97arm1jfUuHCks7V41avHDFrsmEw"
            ]
          }
        }
      ],
      "hex": "01000000014c67291e4b4c89e925db7199f600b5f0bea8fcba0b12e9f690659e5a8f50e5fc000000006b483045022100c3b3295a7cd50c461fdaa2e6b17d0d213a239d886007914214dd6b4c29b4af5c02205b3f0f7a77cb437b03621fce9402b9a41e01a4084bc229bdb0c1878f82fdc216012103264b0bc7029520179798aaa2fb0f35ac898fc62f9a2b51a94e5d6faeb3c8cd99ffffffff021ce8a630000000001976a9148db38c3dfa3a88535911890a110d6010a9fbb57b88ac03d03425000000001976a914281055e64376e9e80b55d50881766e9d0edbb6d488ac00000000"
    }
  ],
  "time": 1517372733,
  "mediantime": 1517372401,
  "nonce": 25745369,
  "bits": "1a042eae",
  "difficulty": 4011378.762614286,
  "chainwork": "0000000000000000000000000000000000000000000000349da1717a1884623a",
  "previousblockhash": "d56cd1d57b0533da22937d0bad5adfc4028a810c5a057cee24626c5c93a29f53",
  "nextblockhash": "8e44c7fbd24b344e7088945351c1f677dbb1f1adf6dbe69d445e59e9d88f25ce"
}
