{
  "hash": "733a3577a347587093667b731cf1dfc326c435002cf5d12b7aefb36a12fe959d",
  "confirmations": 3737,
  "strippedsize": 234,
  "size": 234,
  "weight": 936,
  "height": 1357258,
  "version": 536870912,
  "versionHex": "20000000",
  "merkleroot": "5c9356887e86b481c895d683d53fdf46e4ef4b45f0a157ce001f56c537705880",
  "tx": [
    {
      "txid": "5c9356887e86b481c895d683d53fdf46e4ef4b45f0a157ce001f56c537705880",
      "hash": "5c9356887e86b481c895d683d53fdf46e4ef4b45f0a157ce001f56c537705880",
      "version": 1,
      "size": 153,
      "vsize": 153,
      "locktime": 0,
      "vin": [
        {
          "coinbase": "03cab514045a6b45fb2cfabe6d6d20dbf56a01c7f495026c370b66d01b22af31dba3b73257798f29a8ca097751514000000000000000042f4c502f0858002c7f1c000000",
          "sequence": 4294967295
        }
      ],
      "vout": [
        {
          "value": 25.00000000,
          "n": 0,
          "scriptPubKey": {
            "asm": "OP_DUP OP_HASH160 57757ed2ecf2052ff3126c397aca7defb9ca2cec OP_EQUALVERIFY OP_CHECKSIG",
            "hex": "76a91457757ed2ecf2052ff3126c397aca7defb9ca2cec88ac",
            "reqSigs": 1,
            "type": "pubkeyhash",
            "addresses": [
              "LTCPodGk5FwcJaRzH9yKnwicxzFUbxp6tN"
            ]
          }
        }
      ],
      "hex": "01000000010000000000000000000000000000000000000000000000000000000000000000ffffffff4403cab514045a6b45fb2cfabe6d6d20dbf56a01c7f495026c370b66d01b22af31dba3b73257798f29a8ca097751514000000000000000042f4c502f0858002c7f1c000000ffffffff0100f90295000000001976a91457757ed2ecf2052ff3126c397aca7defb9ca2cec88ac00000000"
    }
  ],
  "time": 1516979707,
  "mediantime": 1516979344,
  "nonce": 3244482138,
  "bits": "1a047f14",
  "difficulty": 3731199.183374282,
  "chainwork": "000000000000000000000000000000000000000000000032117ce362a2021d9e",
  "previousblockhash": "ac021efc752a2b924ba7b91e53d7a3f27ade4b69382a1767d027d160dedb5137",
  "nextblockhash": "bb6bd5e6a87f1bc3b6efd06f3b6eb545eca8a20c43054265a60c9682d8121b1a"
}
