{
  "hash": "73f5179878b1c4eda494f176823fb06deedd145565fceb43d4cb872978ab55dc",
  "confirmations": 3084,
  "strippedsize": 253,
  "size": 253,
  "weight": 1012,
  "height": 1357911,
  "version": 536870912,
  "versionHex": "20000000",
  "merkleroot": "41838e4b3063abf6c028c3def59ce1fbf79b2b1b25ec1f18b08b498795f9dd12",
  "tx": [
    {
      "txid": "41838e4b3063abf6c028c3def59ce1fbf79b2b1b25ec1f18b08b498795f9dd12",
      "hash": "41838e4b3063abf6c028c3def59ce1fbf79b2b1b25ec1f18b08b498795f9dd12",
      "version": 1,
      "size": 172,
      "vsize": 172,
      "locktime": 0,
      "vin": [
        {
          "coinbase": "0357b8141a4d696e656420627920416e74506f6f6c20626a3242205a6c9010fabe6d6d446c396615bd5a968d2ba3642b0dd67c59dbebdd85548e1220572eb10b2bd3870400000000000000eb0500000000000004000000",
          "sequence": 4294967295
        }
      ],
      "vout": [
        {
          "value": 25.00000000,
          "n": 0,
          "scriptPubKey": {
            "asm": "OP_DUP OP_HASH160 0ff3ccc5e8be88afe24b5d634e5852d474dbdff1 OP_EQUALVERIFY OP_CHECKSIG",
            "hex": "76a9140ff3ccc5e8be88afe24b5d634e5852d474dbdff188ac",
            "reqSigs": 1,
            "type": "pubkeyhash",
            "addresses": [
              "LLgJTbzZMsRTCUF1NtvvL9SR1a4pVieW89"
            ]
          }
        }
      ],
      "hex": "01000000010000000000000000000000000000000000000000000000000000000000000000ffffffff570357b8141a4d696e656420627920416e74506f6f6c20626a3242205a6c9010fabe6d6d446c396615bd5a968d2ba3642b0dd67c59dbebdd85548e1220572eb10b2bd3870400000000000000eb0500000000000004000000ffffffff0100f90295000000001976a9140ff3ccc5e8be88afe24b5d634e5852d474dbdff188ac00000000"
    }
  ],
  "time": 1517064208,
  "mediantime": 1517063562,
  "nonce": 669266732,
  "bits": "1a047f14",
  "difficulty": 3731199.183374282,
  "chainwork": "000000000000000000000000000000000000000000000032a2b715879276ebf0",
  "previousblockhash": "e0c92d7129f8338e31cfdcf903f6a6d9441df4ff62c23af2233971e1b062218d",
  "nextblockhash": "ece7ea4f5be63313197970cfe9ad4f28ecc14631ca0987a0396a1a49006d5f3a"
}
