{
  "hash": "7423212baf07c708108af0dc455b38e70c226847010b03f229b2606e8111add8",
  "confirmations": 3073,
  "strippedsize": 515,
  "size": 551,
  "weight": 2096,
  "height": 1357922,
  "version": 536870912,
  "versionHex": "20000000",
  "merkleroot": "f5dc47766238e1ec156a0c78a40180a0beca22b84b2fdb3a14333b291ba78f33",
  "tx": [
    {
      "txid": "c3cf431b6d97e40eb471ccdefa0bfe23a9a22e015581be7fd85d4ed1771c47bc",
      "hash": "a71885e8fda93766a83b050d4d1db6382637da049795bfc7ad23cf35abb41ff1",
      "version": 1,
      "size": 244,
      "vsize": 217,
      "locktime": 0,
      "vin": [
        {
          "coinbase": "0362b814045e956c5a08059c541c03000000fabe6d6db02ecb1266f7745715b6f1adae40aa75e570a1f66a400959c1e34a14fdc57b2340000000000000000d2f6e6f64655374726174756d2f",
          "sequence": 0
        }
      ],
      "vout": [
        {
          "value": 25.00022600,
          "n": 0,
          "scriptPubKey": {
            "asm": "OP_DUP OP_HASH160 0c617fdb2ea42aed30a509595ee21ba3f6688db0 OP_EQUALVERIFY OP_CHECKSIG",
            "hex": "76a9140c617fdb2ea42aed30a509595ee21ba3f6688db088ac",
            "reqSigs": 1,
            "type": "pubkeyhash",
            "addresses": [
              "LLMRAtr3qBje2ySEa3CnZ55LA4TQMWnRY3"
            ]
          }
        }, 
        {
          "value": 0.00000000,
          "n": 1,
          "scriptPubKey": {
            "asm": "OP_RETURN aa21a9edee9f815045b82fa86d35ba34c3b8835c646677f67b64cc196879c448bc88c90d",
            "hex": "6a24aa21a9edee9f815045b82fa86d35ba34c3b8835c646677f67b64cc196879c448bc88c90d",
            "type": "nulldata"
          }
        }
      ],
      "hex": "010000000001010000000000000000000000000000000000000000000000000000000000000000ffffffff4c0362b814045e956c5a08059c541c03000000fabe6d6db02ecb1266f7745715b6f1adae40aa75e570a1f66a400959c1e34a14fdc57b2340000000000000000d2f6e6f64655374726174756d2f000000000248510395000000001976a9140c617fdb2ea42aed30a509595ee21ba3f6688db088ac0000000000000000266a24aa21a9edee9f815045b82fa86d35ba34c3b8835c646677f67b64cc196879c448bc88c90d0120000000000000000000000000000000000000000000000000000000000000000000000000"
    }, 
    {
      "txid": "405cf4b060695aab73c52afd91348b7e0b8892f8c68a20358585eccd7f77a0cc",
      "hash": "405cf4b060695aab73c52afd91348b7e0b8892f8c68a20358585eccd7f77a0cc",
      "version": 1,
      "size": 226,
      "vsize": 226,
      "locktime": 0,
      "vin": [
        {
          "txid": "cbe55d6bb673ce2aabd489baf23899249592a995dead6427de62bb9477f0cca2",
          "vout": 1,
          "scriptSig": {
            "asm": "3045022100c5bff4b8488f0e386a07c490613234255c99f7c105e3beeca0d6ac618483af1002205ba0461662cb5baaa946d1d92ad0f217644f8e3d9ad1e7b0cf82119f386898ab[ALL] 03c2b074448d288915e03b1bc96b68b2fca03b5eeab19a130795c1e115bb20b680",
            "hex": "483045022100c5bff4b8488f0e386a07c490613234255c99f7c105e3beeca0d6ac618483af1002205ba0461662cb5baaa946d1d92ad0f217644f8e3d9ad1e7b0cf82119f386898ab012103c2b074448d288915e03b1bc96b68b2fca03b5eeab19a130795c1e115bb20b680"
          },
          "sequence": 4294967295
        }
      ],
      "vout": [
        {
          "value": 0.00444439,
          "n": 0,
          "scriptPubKey": {
            "asm": "OP_DUP OP_HASH160 1fd90cf7516cc5e99fa8fd6e20fa6e8986eae49d OP_EQUALVERIFY OP_CHECKSIG",
            "hex": "76a9141fd90cf7516cc5e99fa8fd6e20fa6e8986eae49d88ac",
            "reqSigs": 1,
            "type": "pubkeyhash",
            "addresses": [
              "LN8ME6wV4PzUsgsb3k3ZGXRuV8ZqrxQxCk"
            ]
          }
        }, 
        {
          "value": 0.12032937,
          "n": 1,
          "scriptPubKey": {
            "asm": "OP_DUP OP_HASH160 26943793664b0f842a27c4f3793f10b0fa0c76ed OP_EQUALVERIFY OP_CHECKSIG",
            "hex": "76a91426943793664b0f842a27c4f3793f10b0fa0c76ed88ac",
            "reqSigs": 1,
            "type": "pubkeyhash",
            "addresses": [
              "LNjwVok5H2FqtP3L7BQqHWct25MLapF7QM"
            ]
          }
        }
      ],
      "hex": "0100000001a2ccf07794bb62de2764adde95a99295249938f2ba89d4ab2ace73b66b5de5cb010000006b483045022100c5bff4b8488f0e386a07c490613234255c99f7c105e3beeca0d6ac618483af1002205ba0461662cb5baaa946d1d92ad0f217644f8e3d9ad1e7b0cf82119f386898ab012103c2b074448d288915e03b1bc96b68b2fca03b5eeab19a130795c1e115bb20b680ffffffff0217c80600000000001976a9141fd90cf7516cc5e99fa8fd6e20fa6e8986eae49d88aca99bb700000000001976a91426943793664b0f842a27c4f3793f10b0fa0c76ed88ac00000000"
    }
  ],
  "time": 1517065449,
  "mediantime": 1517065012,
  "nonce": 1636165716,
  "bits": "1a047f14",
  "difficulty": 3731199.183374282,
  "chainwork": "000000000000000000000000000000000000000000000032a5295cf0de42010e",
  "previousblockhash": "d4d9d1e97649be238feb84e380a0f6fa72141f739d3a50044e3c5510c0c15686",
  "nextblockhash": "6df8028dac0355446ca68cf4cab0f5cdbac8d4766ef90f6f992548435e232276"
}
