{
  "hash": "743460f9010ada85cb68a4054a042dab454fcffb6f4e32b6559214548c457c9e",
  "confirmations": 2133,
  "strippedsize": 1192,
  "size": 1228,
  "weight": 4804,
  "height": 1358861,
  "version": 536870912,
  "versionHex": "20000000",
  "merkleroot": "b0a9600effbe11053333b6490898e5b151ca1f0a40436a1083c26891070853a6",
  "tx": [
    {
      "txid": "4a096d3e7b606f8936ff0fa2365e02d48fc72ddf5e01187ac24f4ed0a4ccc825",
      "hash": "3c3c8342df8aaa3cb538ec8fb550f286d6376f061b27e777da5fa26da20f435e",
      "version": 1,
      "size": 244,
      "vsize": 217,
      "locktime": 0,
      "vin": [
        {
          "coinbase": "030dbc140490ab6e5a08023d73c913000000fabe6d6d8300374dd324d7fb0d12b4b328325fd73c85329e165be037f6f8e7c2adcc178940000000000000000d2f6e6f64655374726174756d2f",
          "sequence": 0
        }
      ],
      "vout": [
        {
          "value": 25.00126777,
          "n": 0,
          "scriptPubKey": {
            "asm": "OP_DUP OP_HASH160 0c617fdb2ea42aed30a509595ee21ba3f6688db0 OP_EQUALVERIFY OP_CHECKSIG",
            "hex": "76a9140c617fdb2ea42aed30a509595ee21ba3f6688db088ac",
            "reqSigs": 1,
            "type": "pubkeyhash",
            "addresses": [
              "LLMRAtr3qBje2ySEa3CnZ55LA4TQMWnRY3"
            ]
          }
        }, 
        {
          "value": 0.00000000,
          "n": 1,
          "scriptPubKey": {
            "asm": "OP_RETURN aa21a9ed2644a90c3f341a82febd13be953203665990984abf78b23e9a08b6edb598d8e2",
            "hex": "6a24aa21a9ed2644a90c3f341a82febd13be953203665990984abf78b23e9a08b6edb598d8e2",
            "type": "nulldata"
          }
        }
      ],
      "hex": "010000000001010000000000000000000000000000000000000000000000000000000000000000ffffffff4c030dbc140490ab6e5a08023d73c913000000fabe6d6d8300374dd324d7fb0d12b4b328325fd73c85329e165be037f6f8e7c2adcc178940000000000000000d2f6e6f64655374726174756d2f000000000239e80495000000001976a9140c617fdb2ea42aed30a509595ee21ba3f6688db088ac0000000000000000266a24aa21a9ed2644a90c3f341a82febd13be953203665990984abf78b23e9a08b6edb598d8e20120000000000000000000000000000000000000000000000000000000000000000000000000"
    }, 
    {
      "txid": "8fcb1c7c07e92f58937141cd8157d3f7bdbc9b0b258ec341828fb5a8cce953b8",
      "hash": "8fcb1c7c07e92f58937141cd8157d3f7bdbc9b0b258ec341828fb5a8cce953b8",
      "version": 1,
      "size": 226,
      "vsize": 226,
      "locktime": 0,
      "vin": [
        {
          "txid": "1f7eaa8c2027d77a5ccab59aec1c83d90886e0a4ff51b45bdce3431aa414d857",
          "vout": 0,
          "scriptSig": {
            "asm": "3045022100db89522c0dcf50c89f5c25b4754765fba9c5794cc92e5726f6d340b8d28d535f022001487e5ab66189a209e600d7a6fa54d51792fb6a7e8bcb2b32ac574a7c7088b7[ALL] 0384a9a36de00797765bb8cbd04dabb5aa68695b13ab3d76e64a85d79f0c76db7f",
            "hex": "483045022100db89522c0dcf50c89f5c25b4754765fba9c5794cc92e5726f6d340b8d28d535f022001487e5ab66189a209e600d7a6fa54d51792fb6a7e8bcb2b32ac574a7c7088b701210384a9a36de00797765bb8cbd04dabb5aa68695b13ab3d76e64a85d79f0c76db7f"
          },
          "sequence": 4294967295
        }
      ],
      "vout": [
        {
          "value": 84.16424001,
          "n": 0,
          "scriptPubKey": {
            "asm": "OP_DUP OP_HASH160 8a4fd1372b1dd683fede7d68f2332fae2e9c9f71 OP_EQUALVERIFY OP_CHECKSIG",
            "hex": "76a9148a4fd1372b1dd683fede7d68f2332fae2e9c9f7188ac",
            "reqSigs": 1,
            "type": "pubkeyhash",
            "addresses": [
              "LXqH8V6ZtsHBrURFbVxHR59KA24qcdosN3"
            ]
          }
        }, 
        {
          "value": 0.35110000,
          "n": 1,
          "scriptPubKey": {
            "asm": "OP_DUP OP_HASH160 55fd9fe46d10446406b6ba02439cc1c93ddc02bc OP_EQUALVERIFY OP_CHECKSIG",
            "hex": "76a91455fd9fe46d10446406b6ba02439cc1c93ddc02bc88ac",
            "reqSigs": 1,
            "type": "pubkeyhash",
            "addresses": [
              "LT4dXfRbuuTNELHbWcfRAZ5Xo3JA72cM1x"
            ]
          }
        }
      ],
      "hex": "010000000157d814a41a43e3dc5bb451ffa4e08608d9831cec9ab5ca5c7ad727208caa7e1f000000006b483045022100db89522c0dcf50c89f5c25b4754765fba9c5794cc92e5726f6d340b8d28d535f022001487e5ab66189a209e600d7a6fa54d51792fb6a7e8bcb2b32ac574a7c7088b701210384a9a36de00797765bb8cbd04dabb5aa68695b13ab3d76e64a85d79f0c76db7fffffffff024170a8f5010000001976a9148a4fd1372b1dd683fede7d68f2332fae2e9c9f7188ac70bc1702000000001976a91455fd9fe46d10446406b6ba02439cc1c93ddc02bc88ac00000000"
    }, 
    {
      "txid": "896f00e322b3195243ef82157e0db21a3824c4c590df623aa28a14d3f1e31376",
      "hash": "896f00e322b3195243ef82157e0db21a3824c4c590df623aa28a14d3f1e31376",
      "version": 2,
      "size": 225,
      "vsize": 225,
      "locktime": 1358859,
      "vin": [
        {
          "txid": "4324cc7fb44fd87a1df0c2fd68b1cb4914cee64bc142a900db530b10a47ba008",
          "vout": 0,
          "scriptSig": {
            "asm": "3044022032c6b46993f953bcf30e58e677364a501825d3163732128b95893a65ce425caf0220072b4a80403912c600529fa4f624510f447045b9a67debb58343b1fd89d8bb4e[ALL] 0391adda52cc1fbfba47e9824689ddba924c1c11355d6ad5b7c3d7a135aab9d269",
            "hex": "473044022032c6b46993f953bcf30e58e677364a501825d3163732128b95893a65ce425caf0220072b4a80403912c600529fa4f624510f447045b9a67debb58343b1fd89d8bb4e01210391adda52cc1fbfba47e9824689ddba924c1c11355d6ad5b7c3d7a135aab9d269"
          },
          "sequence": 4294967294
        }
      ],
      "vout": [
        {
          "value": 0.04926505,
          "n": 0,
          "scriptPubKey": {
            "asm": "OP_DUP OP_HASH160 f1059eba83d3c112ccddbbc58369e623d26a4b03 OP_EQUALVERIFY OP_CHECKSIG",
            "hex": "76a914f1059eba83d3c112ccddbbc58369e623d26a4b0388ac",
            "reqSigs": 1,
            "type": "pubkeyhash",
            "addresses": [
              "LhCMqvwrjvAXDaLU9YCza8H5tK3ZVJaDyz"
            ]
          }
        }, 
        {
          "value": 0.09987000,
          "n": 1,
          "scriptPubKey": {
            "asm": "OP_DUP OP_HASH160 c95ee3bcd4472e087783930a8f251406dfecf08e OP_EQUALVERIFY OP_CHECKSIG",
            "hex": "76a914c95ee3bcd4472e087783930a8f251406dfecf08e88ac",
            "reqSigs": 1,
            "type": "pubkeyhash",
            "addresses": [
              "LdahkpH24UBhdChbiQopgqeHU4jqKnYA1T"
            ]
          }
        }
      ],
      "hex": "020000000108a07ba4100b53db00a942c14be6ce1449cbb168fdc2f01d7ad84fb47fcc2443000000006a473044022032c6b46993f953bcf30e58e677364a501825d3163732128b95893a65ce425caf0220072b4a80403912c600529fa4f624510f447045b9a67debb58343b1fd89d8bb4e01210391adda52cc1fbfba47e9824689ddba924c1c11355d6ad5b7c3d7a135aab9d269feffffff02292c4b00000000001976a914f1059eba83d3c112ccddbbc58369e623d26a4b0388acb8639800000000001976a914c95ee3bcd4472e087783930a8f251406dfecf08e88ac0bbc1400"
    }, 
    {
      "txid": "743c124d7ab6fd4142cbc21798bf19c520a150359fcdfc5b1709cb383503e55b",
      "hash": "743c124d7ab6fd4142cbc21798bf19c520a150359fcdfc5b1709cb383503e55b",
      "version": 1,
      "size": 226,
      "vsize": 226,
      "locktime": 0,
      "vin": [
        {
          "txid": "a046c7c81d4a93cf94500be5cbdd60e4b8eda6953abdc520d6a41ea954723a80",
          "vout": 1,
          "scriptSig": {
            "asm": "3045022100ab6ce537e3427a6138e4de2eff8db112191ef470d8c8020dfcdc39791dffc19002203cd50dad68356e375b72fca8a8bf983050c5dac4dc78e54991fac617cd40b37c[ALL] 02efc1b548beb11d098817c0922936af0afde6375269a37d33fe16c9c4e5cc2e2a",
            "hex": "483045022100ab6ce537e3427a6138e4de2eff8db112191ef470d8c8020dfcdc39791dffc19002203cd50dad68356e375b72fca8a8bf983050c5dac4dc78e54991fac617cd40b37c012102efc1b548beb11d098817c0922936af0afde6375269a37d33fe16c9c4e5cc2e2a"
          },
          "sequence": 4294967295
        }
      ],
      "vout": [
        {
          "value": 35.99991337,
          "n": 0,
          "scriptPubKey": {
            "asm": "OP_DUP OP_HASH160 050b4b8d4bf449b428eadf48d737e6e56b75f9ef OP_EQUALVERIFY OP_CHECKSIG",
            "hex": "76a914050b4b8d4bf449b428eadf48d737e6e56b75f9ef88ac",
            "reqSigs": 1,
            "type": "pubkeyhash",
            "addresses": [
              "LKgdAyHLxxKmPfpP5DkQzUtCBiU2E9dLKC"
            ]
          }
        }, 
        {
          "value": 11.37297091,
          "n": 1,
          "scriptPubKey": {
            "asm": "OP_DUP OP_HASH160 e9cc586abd135c93da006fc229d0959e0b1e3625 OP_EQUALVERIFY OP_CHECKSIG",
            "hex": "76a914e9cc586abd135c93da006fc229d0959e0b1e362588ac",
            "reqSigs": 1,
            "type": "pubkeyhash",
            "addresses": [
              "LgYAW5KeDBSuJRQjF8qpjB9bWwpsCPc6B6"
            ]
          }
        }
      ],
      "hex": "0100000001803a7254a91ea4d620c5bd3a95a6edb8e460ddcbe50b5094cf934a1dc8c746a0010000006b483045022100ab6ce537e3427a6138e4de2eff8db112191ef470d8c8020dfcdc39791dffc19002203cd50dad68356e375b72fca8a8bf983050c5dac4dc78e54991fac617cd40b37c012102efc1b548beb11d098817c0922936af0afde6375269a37d33fe16c9c4e5cc2e2affffffff02298293d6000000001976a914050b4b8d4bf449b428eadf48d737e6e56b75f9ef88acc3c6c943000000001976a914e9cc586abd135c93da006fc229d0959e0b1e362588ac00000000"
    }, 
    {
      "txid": "433d9b14132b25406ca1fafec7dd0ceb0df4f1b220e27f314edaab38eeaa4e75",
      "hash": "433d9b14132b25406ca1fafec7dd0ceb0df4f1b220e27f314edaab38eeaa4e75",
      "version": 1,
      "size": 226,
      "vsize": 226,
      "locktime": 0,
      "vin": [
        {
          "txid": "0b040f967b6858817bce782a97fe1c39e37d4473fe85f28d7e6e70431c4326d5",
          "vout": 0,
          "scriptSig": {
            "asm": "3045022100d356873c818741e10094eafaf09751b6bce5b861eebe2e0e8df698c45b4aee67022041d6cc927dd0a48dd9396c5ec7d2cc86c9f2f0ecbe4fdb97c148b5bae86a93ef[ALL] 02245535130697e2e7eea4a7d534680481e5143ae61b63a5281dac6f364f94d111",
            "hex": "483045022100d356873c818741e10094eafaf09751b6bce5b861eebe2e0e8df698c45b4aee67022041d6cc927dd0a48dd9396c5ec7d2cc86c9f2f0ecbe4fdb97c148b5bae86a93ef012102245535130697e2e7eea4a7d534680481e5143ae61b63a5281dac6f364f94d111"
          },
          "sequence": 4294967295
        }
      ],
      "vout": [
        {
          "value": 0.02306337,
          "n": 0,
          "scriptPubKey": {
            "asm": "OP_DUP OP_HASH160 3412313260fa75ac6a38ee21b311e3dfc8fe28ac OP_EQUALVERIFY OP_CHECKSIG",
            "hex": "76a9143412313260fa75ac6a38ee21b311e3dfc8fe28ac88ac",
            "reqSigs": 1,
            "type": "pubkeyhash",
            "addresses": [
              "LPyHCCi3Jpvim2sZQGtPytx3LGn8yVeVeH"
            ]
          }
        }, 
        {
          "value": 0.32779000,
          "n": 1,
          "scriptPubKey": {
            "asm": "OP_DUP OP_HASH160 1353c3d4e63f0464a265fdb808d7875a21767f5f OP_EQUALVERIFY OP_CHECKSIG",
            "hex": "76a9141353c3d4e63f0464a265fdb808d7875a21767f5f88ac",
            "reqSigs": 1,
            "type": "pubkeyhash",
            "addresses": [
              "LLz9Sx3EDCoQXYsiCPU622Bdcrs6JJwQ7Y"
            ]
          }
        }
      ],
      "hex": "0100000001d526431c43706e7e8df285fe73447de3391cfe972a78ce7b8158687b960f040b000000006b483045022100d356873c818741e10094eafaf09751b6bce5b861eebe2e0e8df698c45b4aee67022041d6cc927dd0a48dd9396c5ec7d2cc86c9f2f0ecbe4fdb97c148b5bae86a93ef012102245535130697e2e7eea4a7d534680481e5143ae61b63a5281dac6f364f94d111ffffffff0221312300000000001976a9143412313260fa75ac6a38ee21b311e3dfc8fe28ac88acf82af401000000001976a9141353c3d4e63f0464a265fdb808d7875a21767f5f88ac00000000"
    }
  ],
  "time": 1517202188,
  "mediantime": 1517201551,
  "nonce": 1812162227,
  "bits": "1a042eae",
  "difficulty": 4011378.762614286,
  "chainwork": "000000000000000000000000000000000000000000000033774c484c281f4a1c",
  "previousblockhash": "984bddeba5b6321ef1103ab2deeb9530c40f332cea86d44e39bfa64a904756f6",
  "nextblockhash": "93ec2d2de176e72d033b026327878a164f4fedc232ba18ddeab410171f35ea90"
}
