{
  "hash": "7448a9103f0fa990619d3576652df5981c8db42841079ecfec0849496304418c",
  "confirmations": 3380,
  "strippedsize": 234,
  "size": 234,
  "weight": 936,
  "height": 1357615,
  "version": 536870912,
  "versionHex": "20000000",
  "merkleroot": "c44a85b4ddb57b5a67205f2ac9287f7c7763ba690295308eb1c0aca8e23508fd",
  "tx": [
    {
      "txid": "c44a85b4ddb57b5a67205f2ac9287f7c7763ba690295308eb1c0aca8e23508fd",
      "hash": "c44a85b4ddb57b5a67205f2ac9287f7c7763ba690295308eb1c0aca8e23508fd",
      "version": 1,
      "size": 153,
      "vsize": 153,
      "locktime": 0,
      "vin": [
        {
          "coinbase": "032fb714045a6bfba02cfabe6d6dd981490a0651434478151a4e226d3ac348417ba161716e8fae30b7b09c60c2914000000000000000042f4c502f0816005fd604000000",
          "sequence": 4294967295
        }
      ],
      "vout": [
        {
          "value": 25.00000000,
          "n": 0,
          "scriptPubKey": {
            "asm": "OP_DUP OP_HASH160 57757ed2ecf2052ff3126c397aca7defb9ca2cec OP_EQUALVERIFY OP_CHECKSIG",
            "hex": "76a91457757ed2ecf2052ff3126c397aca7defb9ca2cec88ac",
            "reqSigs": 1,
            "type": "pubkeyhash",
            "addresses": [
              "LTCPodGk5FwcJaRzH9yKnwicxzFUbxp6tN"
            ]
          }
        }
      ],
      "hex": "01000000010000000000000000000000000000000000000000000000000000000000000000ffffffff44032fb714045a6bfba02cfabe6d6dd981490a0651434478151a4e226d3ac348417ba161716e8fae30b7b09c60c2914000000000000000042f4c502f0816005fd604000000ffffffff0100f90295000000001976a91457757ed2ecf2052ff3126c397aca7defb9ca2cec88ac00000000"
    }
  ],
  "time": 1517026208,
  "mediantime": 1517025807,
  "nonce": 4207738931,
  "bits": "1a047f14",
  "difficulty": 3731199.183374282,
  "chainwork": "00000000000000000000000000000000000000000000003260e27ca4b2356de0",
  "previousblockhash": "191dd43fe29d07371cbe60f3ac713b71d9045fbffac08c555e21ee260efbc794",
  "nextblockhash": "a4d4610b2072e7061c5d1546900372ac0935571cae791d1c993610906669a90f"
}
