{
  "hash": "7464dd162b5698473dc850d3bf51a46e7bf0f98c270ea3a0cfeb67acccb3a3dc",
  "confirmations": 1917,
  "strippedsize": 4023,
  "size": 4023,
  "weight": 16092,
  "height": 1359077,
  "version": 536870912,
  "versionHex": "20000000",
  "merkleroot": "52fafd8ee30696775cf7cc011ea455ecbe8457b6c3b316da0cd23c3c31c19392",
  "tx": [
    {
      "txid": "f10254c94de3c86e48971fef1647492f68aced18e6d62782c6596999816234c9",
      "hash": "f10254c94de3c86e48971fef1647492f68aced18e6d62782c6596999816234c9",
      "version": 1,
      "size": 174,
      "vsize": 174,
      "locktime": 0,
      "vin": [
        {
          "coinbase": "03e5bc14204d696e656420627920474956452d4d452d434f494e532e636f6d5a6f24ee1ec6fabe6d6dd600fa875c3f178adf16edf1664198797b3c6f69af0a014e91722dd17bf1c296080000000000000018010000ceb80600",
          "sequence": 4294967295
        }
      ],
      "vout": [
        {
          "value": 25.02354600,
          "n": 0,
          "scriptPubKey": {
            "asm": "OP_DUP OP_HASH160 819c78ab0b69f30c8f652e5496bc4ed568af53dc OP_EQUALVERIFY OP_CHECKSIG",
            "hex": "76a914819c78ab0b69f30c8f652e5496bc4ed568af53dc88ac",
            "reqSigs": 1,
            "type": "pubkeyhash",
            "addresses": [
              "LX3GsnBa9RYgLFKRyS7NDK26J9shCWBqmA"
            ]
          }
        }
      ],
      "hex": "01000000010000000000000000000000000000000000000000000000000000000000000000ffffffff5903e5bc14204d696e656420627920474956452d4d452d434f494e532e636f6d5a6f24ee1ec6fabe6d6dd600fa875c3f178adf16edf1664198797b3c6f69af0a014e91722dd17bf1c296080000000000000018010000ceb80600ffffffff01a8e62695000000001976a914819c78ab0b69f30c8f652e5496bc4ed568af53dc88ac00000000"
    }, 
    {
      "txid": "be8cd96af6fc29a4bccac5053e4542809aad091593645c50d98894d4fd9113b8",
      "hash": "be8cd96af6fc29a4bccac5053e4542809aad091593645c50d98894d4fd9113b8",
      "version": 1,
      "size": 226,
      "vsize": 226,
      "locktime": 0,
      "vin": [
        {
          "txid": "e0d395272b48d2db7993790679fe0d56f0ba0043a28e6fe6ef8c9345a087b9b2",
          "vout": 0,
          "scriptSig": {
            "asm": "3045022100f6739119fc1349d649ed9046a50c61730facb1a14ede2ee2fb19663b2927b67002202d859b024b13a276676689b2a24c5d3f61ab7c383de403081f0cf4b0d3f0d488[ALL] 024c34a8eb92972e554c0c6a23f7282777a63407c6faea8bfc7f190bdc20e31df6",
            "hex": "483045022100f6739119fc1349d649ed9046a50c61730facb1a14ede2ee2fb19663b2927b67002202d859b024b13a276676689b2a24c5d3f61ab7c383de403081f0cf4b0d3f0d4880121024c34a8eb92972e554c0c6a23f7282777a63407c6faea8bfc7f190bdc20e31df6"
          },
          "sequence": 4294967295
        }
      ],
      "vout": [
        {
          "value": 0.07566000,
          "n": 0,
          "scriptPubKey": {
            "asm": "OP_DUP OP_HASH160 91543abb67325048ed7f277f7345d2b60bf3e065 OP_EQUALVERIFY OP_CHECKSIG",
            "hex": "76a91491543abb67325048ed7f277f7345d2b60bf3e06588ac",
            "reqSigs": 1,
            "type": "pubkeyhash",
            "addresses": [
              "LYUP9PeUSavHM4pXDPa1guMgqFzaFeL3oN"
            ]
          }
        }, 
        {
          "value": 4.85912000,
          "n": 1,
          "scriptPubKey": {
            "asm": "OP_DUP OP_HASH160 bd2be2d3ccedc49e1e125e2bb74c75fbe21b7eee OP_EQUALVERIFY OP_CHECKSIG",
            "hex": "76a914bd2be2d3ccedc49e1e125e2bb74c75fbe21b7eee88ac",
            "reqSigs": 1,
            "type": "pubkeyhash",
            "addresses": [
              "LcUCYizQheCryMYc5TFx43A1kEmAMec1Se"
            ]
          }
        }
      ],
      "hex": "0100000001b2b987a045938cefe66f8ea24300baf0560dfe7906799379dbd2482b2795d3e0000000006b483045022100f6739119fc1349d649ed9046a50c61730facb1a14ede2ee2fb19663b2927b67002202d859b024b13a276676689b2a24c5d3f61ab7c383de403081f0cf4b0d3f0d4880121024c34a8eb92972e554c0c6a23f7282777a63407c6faea8bfc7f190bdc20e31df6ffffffff02b0727300000000001976a91491543abb67325048ed7f277f7345d2b60bf3e06588acc06df61c000000001976a914bd2be2d3ccedc49e1e125e2bb74c75fbe21b7eee88ac00000000"
    }, 
    {
      "txid": "850e7802df3c9f04359b0da7155e84e905c3e503db652e3294d4ef0ce50a2f64",
      "hash": "850e7802df3c9f04359b0da7155e84e905c3e503db652e3294d4ef0ce50a2f64",
      "version": 2,
      "size": 225,
      "vsize": 225,
      "locktime": 1358996,
      "vin": [
        {
          "txid": "b41caab1f276d582e2056a1d88164908f585aa4b5e85633bff8f334ea6ecd43f",
          "vout": 0,
          "scriptSig": {
            "asm": "304402206180bc0d96fdde35241e5526b66e942ac09b7f4d60a0906dba7527e41875ea150220403186713d991c359a42074b54737144849ad5789dd6bbfd134d5dc9f6d01352[ALL] 02f0efb63317a0634872245b6974012d820862be96ed7faf660d27fee4496f5f6c",
            "hex": "47304402206180bc0d96fdde35241e5526b66e942ac09b7f4d60a0906dba7527e41875ea150220403186713d991c359a42074b54737144849ad5789dd6bbfd134d5dc9f6d01352012102f0efb63317a0634872245b6974012d820862be96ed7faf660d27fee4496f5f6c"
          },
          "sequence": 4294967294
        }
      ],
      "vout": [
        {
          "value": 0.07717529,
          "n": 0,
          "scriptPubKey": {
            "asm": "OP_DUP OP_HASH160 56b33295016a4cefb61e6ee40437988ca132fcf7 OP_EQUALVERIFY OP_CHECKSIG",
            "hex": "76a91456b33295016a4cefb61e6ee40437988ca132fcf788ac",
            "reqSigs": 1,
            "type": "pubkeyhash",
            "addresses": [
              "LT8P3aRFtjDWYPen5M9Ti3BcW1K3Aq49zG"
            ]
          }
        }, 
        {
          "value": 0.02442095,
          "n": 1,
          "scriptPubKey": {
            "asm": "OP_DUP OP_HASH160 fdff01113c033c5b4846e1a168c2d253b6298c78 OP_EQUALVERIFY OP_CHECKSIG",
            "hex": "76a914fdff01113c033c5b4846e1a168c2d253b6298c7888ac",
            "reqSigs": 1,
            "type": "pubkeyhash",
            "addresses": [
              "LiNxhkFA9fY1by71oYAMG4TcQTQKNmvi9U"
            ]
          }
        }
      ],
      "hex": "02000000013fd4eca64e338fff3b63855e4baa85f5084916881d6a05e282d576f2b1aa1cb4000000006a47304402206180bc0d96fdde35241e5526b66e942ac09b7f4d60a0906dba7527e41875ea150220403186713d991c359a42074b54737144849ad5789dd6bbfd134d5dc9f6d01352012102f0efb63317a0634872245b6974012d820862be96ed7faf660d27fee4496f5f6cfeffffff0299c27500000000001976a91456b33295016a4cefb61e6ee40437988ca132fcf788ac6f432500000000001976a914fdff01113c033c5b4846e1a168c2d253b6298c7888ac94bc1400"
    }, 
    {
      "txid": "019a17f891aac66d7ee39ef0a03d2c0bd6dfb2571d13500ac790eb90ffebd2e4",
      "hash": "019a17f891aac66d7ee39ef0a03d2c0bd6dfb2571d13500ac790eb90ffebd2e4",
      "version": 2,
      "size": 668,
      "vsize": 668,
      "locktime": 1359075,
      "vin": [
        {
          "txid": "58cffa5d7aba86cf5ead332da20a4b1e4a794e45c6bf3f3fa3328a3b0c51b733",
          "vout": 0,
          "scriptSig": {
            "asm": "304402203f430ed82ca7892bfe3c18f649d7f52152475bb42b0e73bebb496969197829d802202fa4b729b9d2c2d9fab42ee43c905913ecf2f3e426e1ac9b2214f80ddb59f7eb[ALL] 03ee2bfeafa3cdc8a52fb64c28a8a1297042ab34ef0b07dd721494014c053ff09b",
            "hex": "47304402203f430ed82ca7892bfe3c18f649d7f52152475bb42b0e73bebb496969197829d802202fa4b729b9d2c2d9fab42ee43c905913ecf2f3e426e1ac9b2214f80ddb59f7eb012103ee2bfeafa3cdc8a52fb64c28a8a1297042ab34ef0b07dd721494014c053ff09b"
          },
          "sequence": 4294967294
        }, 
        {
          "txid": "1a483cc040122974afd7343ce352fb7c9a6b2bfbff0614e596548c60a719c0e4",
          "vout": 0,
          "scriptSig": {
            "asm": "3045022100982db8aafb5b63458aeb66c79604a9fb0eba5c0538d44c26316ccd3dc770d79802207c1e638b24d699b4eb95075b79ef2a40dc6f3e714e13702bb889d937051be966[ALL] 025b6c8d2499948b62c43c973ceafe48b869f90cc7cd037a68e6f49f3bc2eb4794",
            "hex": "483045022100982db8aafb5b63458aeb66c79604a9fb0eba5c0538d44c26316ccd3dc770d79802207c1e638b24d699b4eb95075b79ef2a40dc6f3e714e13702bb889d937051be9660121025b6c8d2499948b62c43c973ceafe48b869f90cc7cd037a68e6f49f3bc2eb4794"
          },
          "sequence": 4294967294
        }, 
        {
          "txid": "465f6e5ef719c453735c77c276284c513c12922022da5f63a8440e5e4dc15959",
          "vout": 52,
          "scriptSig": {
            "asm": "304402202efbd60430eec84af10cf8fbe98c19ee8f2e4429d92c4db747a0790b76f984dd022032aad81ac7bb1dc98b253b88f74ba40aef489769b485ab9201b3d9cd75065ccc[ALL] 0278b9d8f91dd21169a11a77c65d0931f54aa9234ef65f82a70c641cdf2da6ea0a",
            "hex": "47304402202efbd60430eec84af10cf8fbe98c19ee8f2e4429d92c4db747a0790b76f984dd022032aad81ac7bb1dc98b253b88f74ba40aef489769b485ab9201b3d9cd75065ccc01210278b9d8f91dd21169a11a77c65d0931f54aa9234ef65f82a70c641cdf2da6ea0a"
          },
          "sequence": 4294967294
        }, 
        {
          "txid": "e78b8a85beefb0269a099ecde1cfe15fa163e627d006d57153f7b029e583e328",
          "vout": 1,
          "scriptSig": {
            "asm": "3045022100e319f272c3874f4abb978eb5cb7c182db86081500a43b1f68cab71fb10157f12022020e476fbe44672cd0f531d245125b0e0ca8f2acef54c9f0e501f51d2fbaf6d78[ALL] 03af8103a4bf80415230e7dead1107220ac16e4c4cea64d452cd8c96d76a56c328",
            "hex": "483045022100e319f272c3874f4abb978eb5cb7c182db86081500a43b1f68cab71fb10157f12022020e476fbe44672cd0f531d245125b0e0ca8f2acef54c9f0e501f51d2fbaf6d78012103af8103a4bf80415230e7dead1107220ac16e4c4cea64d452cd8c96d76a56c328"
          },
          "sequence": 4294967294
        }
      ],
      "vout": [
        {
          "value": 1.09600895,
          "n": 0,
          "scriptPubKey": {
            "asm": "OP_DUP OP_HASH160 49e80dcc999e8e67d14a74614750f310948d5ee7 OP_EQUALVERIFY OP_CHECKSIG",
            "hex": "76a91449e80dcc999e8e67d14a74614750f310948d5ee788ac",
            "reqSigs": 1,
            "type": "pubkeyhash",
            "addresses": [
              "LRxjac1kvUjzMA1o8FWHvfcyg3PJYEAz4p"
            ]
          }
        }, 
        {
          "value": 0.01013019,
          "n": 1,
          "scriptPubKey": {
            "asm": "OP_DUP OP_HASH160 efb897b07fa167fad9024eca540dfdb80f5afe46 OP_EQUALVERIFY OP_CHECKSIG",
            "hex": "76a914efb897b07fa167fad9024eca540dfdb80f5afe4688ac",
            "reqSigs": 1,
            "type": "pubkeyhash",
            "addresses": [
              "Lh5UtmtfwArN1BBchksD8GXwAHms5ZMfYW"
            ]
          }
        }
      ],
      "hex": "020000000433b7510c3b8a32a33f3fbfc6454e794a1e4b0aa22d33ad5ecf86ba7a5dfacf58000000006a47304402203f430ed82ca7892bfe3c18f649d7f52152475bb42b0e73bebb496969197829d802202fa4b729b9d2c2d9fab42ee43c905913ecf2f3e426e1ac9b2214f80ddb59f7eb012103ee2bfeafa3cdc8a52fb64c28a8a1297042ab34ef0b07dd721494014c053ff09bfeffffffe4c019a7608c5496e51406fffb2b6b9a7cfb52e33c34d7af74291240c03c481a000000006b483045022100982db8aafb5b63458aeb66c79604a9fb0eba5c0538d44c26316ccd3dc770d79802207c1e638b24d699b4eb95075b79ef2a40dc6f3e714e13702bb889d937051be9660121025b6c8d2499948b62c43c973ceafe48b869f90cc7cd037a68e6f49f3bc2eb4794feffffff5959c14d5e0e44a8635fda222092123c514c2876c2775c7353c419f75e6e5f46340000006a47304402202efbd60430eec84af10cf8fbe98c19ee8f2e4429d92c4db747a0790b76f984dd022032aad81ac7bb1dc98b253b88f74ba40aef489769b485ab9201b3d9cd75065ccc01210278b9d8f91dd21169a11a77c65d0931f54aa9234ef65f82a70c641cdf2da6ea0afeffffff28e383e529b0f75371d506d027e663a15fe1cfe1cd9e099a26b0efbe858a8be7010000006b483045022100e319f272c3874f4abb978eb5cb7c182db86081500a43b1f68cab71fb10157f12022020e476fbe44672cd0f531d245125b0e0ca8f2acef54c9f0e501f51d2fbaf6d78012103af8103a4bf80415230e7dead1107220ac16e4c4cea64d452cd8c96d76a56c328feffffff027f608806000000001976a91449e80dcc999e8e67d14a74614750f310948d5ee788ac1b750f00000000001976a914efb897b07fa167fad9024eca540dfdb80f5afe4688ace3bc1400"
    }, 
    {
      "txid": "1f3d89196feaca8d7a1066886dc7a241ea8549be86b109a586c0f08c1a9e1a04",
      "hash": "1f3d89196feaca8d7a1066886dc7a241ea8549be86b109a586c0f08c1a9e1a04",
      "version": 2,
      "size": 1597,
      "vsize": 1597,
      "locktime": 1359002,
      "vin": [
        {
          "txid": "bfb7e3efe1cfe17c0b1d3bbb71f9e2aca4682c4377adbe7bb638675a29e58ffe",
          "vout": 0,
          "scriptSig": {
            "asm": "3045022100bcf514ccbccff6c209d5aed3925936cc3f6dad4db3c7efd073dee274dc3042cc0220297708e0dadab61c36b729266f49927e449422da077ef9b2d0453b7cae2de2da[ALL] 02e2037bd3b8ff3ee3e1c67e232b207d138124a826a4f761eeba99ff99c4b60c29",
            "hex": "483045022100bcf514ccbccff6c209d5aed3925936cc3f6dad4db3c7efd073dee274dc3042cc0220297708e0dadab61c36b729266f49927e449422da077ef9b2d0453b7cae2de2da012102e2037bd3b8ff3ee3e1c67e232b207d138124a826a4f761eeba99ff99c4b60c29"
          },
          "sequence": 4294967294
        }, 
        {
          "txid": "8d0d1cf6236a0bcd82dafe770ad88c95275175bbc0b53f49ab68105a592376a3",
          "vout": 0,
          "scriptSig": {
            "asm": "3044022012af79a82fd3b8c79a5dcfd3a1c7645d95ae53870ab69634605ca6c9bf9bf99502205aa71fe0abfa4b661932da45940b53b34a66762a982acfdf4d7571b44c326bcd[ALL] 02e2037bd3b8ff3ee3e1c67e232b207d138124a826a4f761eeba99ff99c4b60c29",
            "hex": "473044022012af79a82fd3b8c79a5dcfd3a1c7645d95ae53870ab69634605ca6c9bf9bf99502205aa71fe0abfa4b661932da45940b53b34a66762a982acfdf4d7571b44c326bcd012102e2037bd3b8ff3ee3e1c67e232b207d138124a826a4f761eeba99ff99c4b60c29"
          },
          "sequence": 4294967294
        }
      ],
      "vout": [
        {
          "value": 0.54444500,
          "n": 0,
          "scriptPubKey": {
            "asm": "OP_DUP OP_HASH160 b2b46cb141b2112e236b128b2048908959ad2283 OP_EQUALVERIFY OP_CHECKSIG",
            "hex": "76a914b2b46cb141b2112e236b128b2048908959ad228388ac",
            "reqSigs": 1,
            "type": "pubkeyhash",
            "addresses": [
              "LbWrgUhbCx4xRHHWhau5c9zYuMGeiMK3j6"
            ]
          }
        }, 
        {
          "value": 0.38457312,
          "n": 1,
          "scriptPubKey": {
            "asm": "OP_DUP OP_HASH160 c4f5cdcee6f70b5f6a28256d03b362eac172825e OP_EQUALVERIFY OP_CHECKSIG",
            "hex": "76a914c4f5cdcee6f70b5f6a28256d03b362eac172825e88ac",
            "reqSigs": 1,
            "type": "pubkeyhash",
            "addresses": [
              "LdBPAZwmUokjCNRHEsFBiQN3ssmbZXR5ao"
            ]
          }
        }, 
        {
          "value": 7.59000000,
          "n": 2,
          "scriptPubKey": {
            "asm": "OP_DUP OP_HASH160 bb12183fcfa24ec848793f448ac72ee86ded8f7b OP_EQUALVERIFY OP_CHECKSIG",
            "hex": "76a914bb12183fcfa24ec848793f448ac72ee86ded8f7b88ac",
            "reqSigs": 1,
            "type": "pubkeyhash",
            "addresses": [
              "LcH6JL29Xaq8aJUskDMAVTXsKAcaW8cPey"
            ]
          }
        }, 
        {
          "value": 0.40167764,
          "n": 3,
          "scriptPubKey": {
            "asm": "OP_DUP OP_HASH160 b53c61182770c346fb43ca4adde7ad257950740c OP_EQUALVERIFY OP_CHECKSIG",
            "hex": "76a914b53c61182770c346fb43ca4adde7ad257950740c88ac",
            "reqSigs": 1,
            "type": "pubkeyhash",
            "addresses": [
              "LbkEuAE6DeFdzWjcfydF9r8wEowSj83F9L"
            ]
          }
        }, 
        {
          "value": 0.56724076,
          "n": 4,
          "scriptPubKey": {
            "asm": "OP_DUP OP_HASH160 dbab87b711d91642ee0de4c292d0adc50510d55b OP_EQUALVERIFY OP_CHECKSIG",
            "hex": "76a914dbab87b711d91642ee0de4c292d0adc50510d55b88ac",
            "reqSigs": 1,
            "type": "pubkeyhash",
            "addresses": [
              "LfFTjM4hg1QCwdz7DKG3Gh4qpNh4Pnw8ZF"
            ]
          }
        }, 
        {
          "value": 2.28370400,
          "n": 5,
          "scriptPubKey": {
            "asm": "OP_DUP OP_HASH160 209d753d49d1a03c661f9a972cd430fe705b83c7 OP_EQUALVERIFY OP_CHECKSIG",
            "hex": "76a914209d753d49d1a03c661f9a972cd430fe705b83c788ac",
            "reqSigs": 1,
            "type": "pubkeyhash",
            "addresses": [
              "LNCQWit4bKgjMBb7BKW5Nb2b5ubreaHEQe"
            ]
          }
        }, 
        {
          "value": 0.47867989,
          "n": 6,
          "scriptPubKey": {
            "asm": "OP_DUP OP_HASH160 6e4c46ba55e1d5cab96daebbefd9fde887bcbc0a OP_EQUALVERIFY OP_CHECKSIG",
            "hex": "76a9146e4c46ba55e1d5cab96daebbefd9fde887bcbc0a88ac",
            "reqSigs": 1,
            "type": "pubkeyhash",
            "addresses": [
              "LVH9y5nL9m9PcoUk93Mojcw54PRuPk8pKb"
            ]
          }
        }, 
        {
          "value": 4.77300000,
          "n": 7,
          "scriptPubKey": {
            "asm": "OP_DUP OP_HASH160 b49854f539a8cf79ada32a5a2d4b1018a31144db OP_EQUALVERIFY OP_CHECKSIG",
            "hex": "76a914b49854f539a8cf79ada32a5a2d4b1018a31144db88ac",
            "reqSigs": 1,
            "type": "pubkeyhash",
            "addresses": [
              "LbgrNwq6w9tCgqjX1gGf4s2WeUSHqpTosW"
            ]
          }
        }, 
        {
          "value": 0.76922000,
          "n": 8,
          "scriptPubKey": {
            "asm": "OP_DUP OP_HASH160 774e573a4ce82ab325b293ccaf5df9badb021aa4 OP_EQUALVERIFY OP_CHECKSIG",
            "hex": "76a914774e573a4ce82ab325b293ccaf5df9badb021aa488ac",
            "reqSigs": 1,
            "type": "pubkeyhash",
            "addresses": [
              "LW6nXFUdz3Y3zUutepZTkBXGG6jjhqi7Ne"
            ]
          }
        }, 
        {
          "value": 4.75450000,
          "n": 9,
          "scriptPubKey": {
            "asm": "OP_DUP OP_HASH160 dad4ecec5fd06afdb154f2fb247bedf60995957b OP_EQUALVERIFY OP_CHECKSIG",
            "hex": "76a914dad4ecec5fd06afdb154f2fb247bedf60995957b88ac",
            "reqSigs": 1,
            "type": "pubkeyhash",
            "addresses": [
              "LfB2eMUi5YoNCMwH9n4kNQaESvJh9ANrBa"
            ]
          }
        }, 
        {
          "value": 0.05000000,
          "n": 10,
          "scriptPubKey": {
            "asm": "OP_DUP OP_HASH160 b0484bff54bdb4dcf70543dbff686903717cfebc OP_EQUALVERIFY OP_CHECKSIG",
            "hex": "76a914b0484bff54bdb4dcf70543dbff686903717cfebc88ac",
            "reqSigs": 1,
            "type": "pubkeyhash",
            "addresses": [
              "LbJ3oFRDwiaCpUk6wVFfDM3XfacAvY23Hp"
            ]
          }
        }, 
        {
          "value": 3.10000000,
          "n": 11,
          "scriptPubKey": {
            "asm": "OP_DUP OP_HASH160 4c9327fa0c28145b067fec95d4adfc17e7b3d7a8 OP_EQUALVERIFY OP_CHECKSIG",
            "hex": "76a9144c9327fa0c28145b067fec95d4adfc17e7b3d7a888ac",
            "reqSigs": 1,
            "type": "pubkeyhash",
            "addresses": [
              "LSCquP4zUg8UmBChPQU6D6ifUhgxVhi1Td"
            ]
          }
        }, 
        {
          "value": 4.65533000,
          "n": 12,
          "scriptPubKey": {
            "asm": "OP_DUP OP_HASH160 c4aa743e000a1811d2676eeda74bfa6137ed08dd OP_EQUALVERIFY OP_CHECKSIG",
            "hex": "76a914c4aa743e000a1811d2676eeda74bfa6137ed08dd88ac",
            "reqSigs": 1,
            "type": "pubkeyhash",
            "addresses": [
              "Ld9puAiH9ysY2ZdYSfdVnCzpafN95xz2EQ"
            ]
          }
        }, 
        {
          "value": 0.99000000,
          "n": 13,
          "scriptPubKey": {
            "asm": "OP_DUP OP_HASH160 f40bea0517660de3d5fb07701597b0ed9b6a9643 OP_EQUALVERIFY OP_CHECKSIG",
            "hex": "76a914f40bea0517660de3d5fb07701597b0ed9b6a964388ac",
            "reqSigs": 1,
            "type": "pubkeyhash",
            "addresses": [
              "LhUMQq1h5rFrgiSFUgvpRXhwWaprwBDG5i"
            ]
          }
        }, 
        {
          "value": 0.22963000,
          "n": 14,
          "scriptPubKey": {
            "asm": "OP_DUP OP_HASH160 669f2f5905cee66f8661cd0141699ad8f67ee68f OP_EQUALVERIFY OP_CHECKSIG",
            "hex": "76a914669f2f5905cee66f8661cd0141699ad8f67ee68f88ac",
            "reqSigs": 1,
            "type": "pubkeyhash",
            "addresses": [
              "LUaZt9JyYyH1tVb48Ewc5upmBehpuVcVqG"
            ]
          }
        }, 
        {
          "value": 12.20000000,
          "n": 15,
          "scriptPubKey": {
            "asm": "OP_DUP OP_HASH160 72ab30c02978ef8bc9a7128f917d6b550df76c49 OP_EQUALVERIFY OP_CHECKSIG",
            "hex": "76a91472ab30c02978ef8bc9a7128f917d6b550df76c4988ac",
            "reqSigs": 1,
            "type": "pubkeyhash",
            "addresses": [
              "LVgGNbqULADCryvj2HogjFyoWRYWSyMJAX"
            ]
          }
        }, 
        {
          "value": 6.15378000,
          "n": 16,
          "scriptPubKey": {
            "asm": "OP_DUP OP_HASH160 dd72b9dc26cc1fee8e4936dd380acb43eab79e78 OP_EQUALVERIFY OP_CHECKSIG",
            "hex": "76a914dd72b9dc26cc1fee8e4936dd380acb43eab79e7888ac",
            "reqSigs": 1,
            "type": "pubkeyhash",
            "addresses": [
              "LfQs2unKFtDSLVPJALjfcpbFkDWZDDemRs"
            ]
          }
        }, 
        {
          "value": 1.09307667,
          "n": 17,
          "scriptPubKey": {
            "asm": "OP_DUP OP_HASH160 2c57d689be6644fbff04f3f4837052c2c78b50cb OP_EQUALVERIFY OP_CHECKSIG",
            "hex": "76a9142c57d689be6644fbff04f3f4837052c2c78b50cb88ac",
            "reqSigs": 1,
            "type": "pubkeyhash",
            "addresses": [
              "LPGRDkJuA3EixFFAY6fmzUYHDU6CgjVXEp"
            ]
          }
        }, 
        {
          "value": 1.00000000,
          "n": 18,
          "scriptPubKey": {
            "asm": "OP_DUP OP_HASH160 c9584234ac111d4ae3d330505d7f7d758d8535ba OP_EQUALVERIFY OP_CHECKSIG",
            "hex": "76a914c9584234ac111d4ae3d330505d7f7d758d8535ba88ac",
            "reqSigs": 1,
            "type": "pubkeyhash",
            "addresses": [
              "LdaZp61Di8tNt6XBBESDX1b1TcvJ9vZDz1"
            ]
          }
        }, 
        {
          "value": 1.24461862,
          "n": 19,
          "scriptPubKey": {
            "asm": "OP_DUP OP_HASH160 09e4a93da072d7bbbc125842bef09fb0f2d52b82 OP_EQUALVERIFY OP_CHECKSIG",
            "hex": "76a91409e4a93da072d7bbbc125842bef09fb0f2d52b8288ac",
            "reqSigs": 1,
            "type": "pubkeyhash",
            "addresses": [
              "LL8GGbEQPqaukcvq7nKEsUYd1orghPuTB7"
            ]
          }
        }, 
        {
          "value": 0.13857637,
          "n": 20,
          "scriptPubKey": {
            "asm": "OP_DUP OP_HASH160 646b28bf03cf8a72e2df7b933f71dc5c6201bc47 OP_EQUALVERIFY OP_CHECKSIG",
            "hex": "76a914646b28bf03cf8a72e2df7b933f71dc5c6201bc4788ac",
            "reqSigs": 1,
            "type": "pubkeyhash",
            "addresses": [
              "LUNvCwnPk92n9jXsnLyvFZpKnnfRRnVSsK"
            ]
          }
        }, 
        {
          "value": 0.61800000,
          "n": 21,
          "scriptPubKey": {
            "asm": "OP_DUP OP_HASH160 4b77a79abd07d0a67f34838bca5265343ffc40b5 OP_EQUALVERIFY OP_CHECKSIG",
            "hex": "76a9144b77a79abd07d0a67f34838bca5265343ffc40b588ac",
            "reqSigs": 1,
            "type": "pubkeyhash",
            "addresses": [
              "LS6zHMYGWKcvbJM226dAUJ1h45MiFT9448"
            ]
          }
        }, 
        {
          "value": 0.49700192,
          "n": 22,
          "scriptPubKey": {
            "asm": "OP_DUP OP_HASH160 c94761e6f526576ec4a0831d5c3c28aa40cce475 OP_EQUALVERIFY OP_CHECKSIG",
            "hex": "76a914c94761e6f526576ec4a0831d5c3c28aa40cce47588ac",
            "reqSigs": 1,
            "type": "pubkeyhash",
            "addresses": [
              "LdaDbWV16jZTNWAJX6sQ1vV2binoJEJVHV"
            ]
          }
        }, 
        {
          "value": 0.28640000,
          "n": 23,
          "scriptPubKey": {
            "asm": "OP_DUP OP_HASH160 b6ca8762354d03af84def79cc2f2f21c5dce4258 OP_EQUALVERIFY OP_CHECKSIG",
            "hex": "76a914b6ca8762354d03af84def79cc2f2f21c5dce425888ac",
            "reqSigs": 1,
            "type": "pubkeyhash",
            "addresses": [
              "LbtTs5Qe8XVHTn75zVdt56Mn57L7mHSCQr"
            ]
          }
        }, 
        {
          "value": 62.13779000,
          "n": 24,
          "scriptPubKey": {
            "asm": "OP_DUP OP_HASH160 9e38c89453f501375497064f8fe7364d9e007260 OP_EQUALVERIFY OP_CHECKSIG",
            "hex": "76a9149e38c89453f501375497064f8fe7364d9e00726088ac",
            "reqSigs": 1,
            "type": "pubkeyhash",
            "addresses": [
              "LZeZ3uj8M4aBN2Am4tFRd4WC2DhoEemYVQ"
            ]
          }
        }, 
        {
          "value": 3.82890000,
          "n": 25,
          "scriptPubKey": {
            "asm": "OP_DUP OP_HASH160 f3e474d2db70e0561549604b3947266c125a54f8 OP_EQUALVERIFY OP_CHECKSIG",
            "hex": "76a914f3e474d2db70e0561549604b3947266c125a54f888ac",
            "reqSigs": 1,
            "type": "pubkeyhash",
            "addresses": [
              "LhTY9FcXX4AfjR486iJNj34XvbbX92o1y9"
            ]
          }
        }, 
        {
          "value": 0.14000000,
          "n": 26,
          "scriptPubKey": {
            "asm": "OP_DUP OP_HASH160 0e927bb2f5c21c80c49897d506afc36e8c1ace4c OP_EQUALVERIFY OP_CHECKSIG",
            "hex": "76a9140e927bb2f5c21c80c49897d506afc36e8c1ace4c88ac",
            "reqSigs": 1,
            "type": "pubkeyhash",
            "addresses": [
              "LLZ1CjHByGaMGmHWHUe786w779vYAV2yjG"
            ]
          }
        }, 
        {
          "value": 9.80968000,
          "n": 27,
          "scriptPubKey": {
            "asm": "OP_DUP OP_HASH160 b88ddf1d29de5b72e5836eaf70c811cc5f7dcc15 OP_EQUALVERIFY OP_CHECKSIG",
            "hex": "76a914b88ddf1d29de5b72e5836eaf70c811cc5f7dcc1588ac",
            "reqSigs": 1,
            "type": "pubkeyhash",
            "addresses": [
              "Lc3nYv9VePs6ZNb4GKmtkQm1HgEgskVksq"
            ]
          }
        }, 
        {
          "value": 1.11000000,
          "n": 28,
          "scriptPubKey": {
            "asm": "OP_DUP OP_HASH160 2c7afa2addeb2521a5b143221076ef53974837cf OP_EQUALVERIFY OP_CHECKSIG",
            "hex": "76a9142c7afa2addeb2521a5b143221076ef53974837cf88ac",
            "reqSigs": 1,
            "type": "pubkeyhash",
            "addresses": [
              "LPH9KG46akDwzGCQXuLSksXg3cw95yCT8Q"
            ]
          }
        }, 
        {
          "value": 0.51603842,
          "n": 29,
          "scriptPubKey": {
            "asm": "OP_DUP OP_HASH160 09d40dc6b0e2d74230a30461c8f5840082435d01 OP_EQUALVERIFY OP_CHECKSIG",
            "hex": "76a91409d40dc6b0e2d74230a30461c8f5840082435d0188ac",
            "reqSigs": 1,
            "type": "pubkeyhash",
            "addresses": [
              "LL7vNhN1Ru8niwgaw9Ytm3ognfVzHi167s"
            ]
          }
        }, 
        {
          "value": 0.11200000,
          "n": 30,
          "scriptPubKey": {
            "asm": "OP_DUP OP_HASH160 945888ca70b3d0c3f93e90a9a8f848d02ac8c6cd OP_EQUALVERIFY OP_CHECKSIG",
            "hex": "76a914945888ca70b3d0c3f93e90a9a8f848d02ac8c6cd88ac",
            "reqSigs": 1,
            "type": "pubkeyhash",
            "addresses": [
              "LYkLL5TQQrXwif7JyEzsxZAP6nVyxrLiDH"
            ]
          }
        }, 
        {
          "value": 0.61100000,
          "n": 31,
          "scriptPubKey": {
            "asm": "OP_DUP OP_HASH160 b1ddc7d8ee0e15c71f02cef7151303256d1d3627 OP_EQUALVERIFY OP_CHECKSIG",
            "hex": "76a914b1ddc7d8ee0e15c71f02cef7151303256d1d362788ac",
            "reqSigs": 1,
            "type": "pubkeyhash",
            "addresses": [
              "LbSRYkriS6VAKLoXCrzfd5TF6Da96oyxhj"
            ]
          }
        }, 
        {
          "value": 0.09752858,
          "n": 32,
          "scriptPubKey": {
            "asm": "OP_DUP OP_HASH160 f4dbbe347979980618f9fcf90996ba85b35f100e OP_EQUALVERIFY OP_CHECKSIG",
            "hex": "76a914f4dbbe347979980618f9fcf90996ba85b35f100e88ac",
            "reqSigs": 1,
            "type": "pubkeyhash",
            "addresses": [
              "LhYeP2hamPGiwLQSsCiTTQzBaFcyxFw8Ze"
            ]
          }
        }, 
        {
          "value": 6.38360000,
          "n": 33,
          "scriptPubKey": {
            "asm": "OP_DUP OP_HASH160 29f798b7254b29e57164fdc7486f67591cb10e02 OP_EQUALVERIFY OP_CHECKSIG",
            "hex": "76a91429f798b7254b29e57164fdc7486f67591cb10e0288ac",
            "reqSigs": 1,
            "type": "pubkeyhash",
            "addresses": [
              "LP3raPS3djc753bGz4LJh836pobzLwWArY"
            ]
          }
        }, 
        {
          "value": 49.50694393,
          "n": 34,
          "scriptPubKey": {
            "asm": "OP_DUP OP_HASH160 a311f7d90e4a98668796fff1d2eda4bb21d042be OP_EQUALVERIFY OP_CHECKSIG",
            "hex": "76a914a311f7d90e4a98668796fff1d2eda4bb21d042be88ac",
            "reqSigs": 1,
            "type": "pubkeyhash",
            "addresses": [
              "La6BvvwCPm2CotQuZ52pUzUjFnmiZjqnKU"
            ]
          }
        }, 
        {
          "value": 122.64000000,
          "n": 35,
          "scriptPubKey": {
            "asm": "OP_DUP OP_HASH160 8fc73e8c071fc5f6882b9bd8fc1ed321c1c26403 OP_EQUALVERIFY OP_CHECKSIG",
            "hex": "76a9148fc73e8c071fc5f6882b9bd8fc1ed321c1c2640388ac",
            "reqSigs": 1,
            "type": "pubkeyhash",
            "addresses": [
              "LYLBaPB1Yzq6FB1TiNG5x5ogMvWEkBNf5F"
            ]
          }
        }, 
        {
          "value": 1.31867000,
          "n": 36,
          "scriptPubKey": {
            "asm": "OP_DUP OP_HASH160 f9339cefc6f813bcb1139eb5d3ce6bc608204070 OP_EQUALVERIFY OP_CHECKSIG",
            "hex": "76a914f9339cefc6f813bcb1139eb5d3ce6bc60820407088ac",
            "reqSigs": 1,
            "type": "pubkeyhash",
            "addresses": [
              "LhwcM7dvAzbJPaet9VpF1TSpG5KxTedDaT"
            ]
          }
        }, 
        {
          "value": 0.55943000,
          "n": 37,
          "scriptPubKey": {
            "asm": "OP_DUP OP_HASH160 fdcdc017f5e2f59644413edb36d65f360ace9fc0 OP_EQUALVERIFY OP_CHECKSIG",
            "hex": "76a914fdcdc017f5e2f59644413edb36d65f360ace9fc088ac",
            "reqSigs": 1,
            "type": "pubkeyhash",
            "addresses": [
              "LiMwhXpMLUxyR3GnyvCiHtB545SegNG4XE"
            ]
          }
        }
      ],
      "hex": "0200000002fe8fe5295a6738b67bbead77432c68a4ace2f971bb3b1d0b7ce1cfe1efe3b7bf000000006b483045022100bcf514ccbccff6c209d5aed3925936cc3f6dad4db3c7efd073dee274dc3042cc0220297708e0dadab61c36b729266f49927e449422da077ef9b2d0453b7cae2de2da012102e2037bd3b8ff3ee3e1c67e232b207d138124a826a4f761eeba99ff99c4b60c29feffffffa37623595a1068ab493fb5c0bb755127958cd80a77feda82cd0b6a23f61c0d8d000000006a473044022012af79a82fd3b8c79a5dcfd3a1c7645d95ae53870ab69634605ca6c9bf9bf99502205aa71fe0abfa4b661932da45940b53b34a66762a982acfdf4d7571b44c326bcd012102e2037bd3b8ff3ee3e1c67e232b207d138124a826a4f761eeba99ff99c4b60c29feffffff26d4c13e03000000001976a914b2b46cb141b2112e236b128b2048908959ad228388ace0cf4a02000000001976a914c4f5cdcee6f70b5f6a28256d03b362eac172825e88acc06b3d2d000000001976a914bb12183fcfa24ec848793f448ac72ee86ded8f7b88ac54e96402000000001976a914b53c61182770c346fb43ca4adde7ad257950740c88ac6c8a6103000000001976a914dbab87b711d91642ee0de4c292d0adc50510d55b88ace0a79c0d000000001976a914209d753d49d1a03c661f9a972cd430fe705b83c788ac5568da02000000001976a9146e4c46ba55e1d5cab96daebbefd9fde887bcbc0a88ac2005731c000000001976a914b49854f539a8cf79ada32a5a2d4b1018a31144db88ac90bc9504000000001976a914774e573a4ce82ab325b293ccaf5df9badb021aa488ac90ca561c000000001976a914dad4ecec5fd06afdb154f2fb247bedf60995957b88ac404b4c00000000001976a914b0484bff54bdb4dcf70543dbff686903717cfebc88ac80397a12000000001976a9144c9327fa0c28145b067fec95d4adfc17e7b3d7a888ac4878bf1b000000001976a914c4aa743e000a1811d2676eeda74bfa6137ed08dd88acc09ee605000000001976a914f40bea0517660de3d5fb07701597b0ed9b6a964388ac38635e01000000001976a914669f2f5905cee66f8661cd0141699ad8f67ee68f88ac00b9b748000000001976a91472ab30c02978ef8bc9a7128f917d6b550df76c4988ac50ecad24000000001976a914dd72b9dc26cc1fee8e4936dd380acb43eab79e7888ac13e78306000000001976a9142c57d689be6644fbff04f3f4837052c2c78b50cb88ac00e1f505000000001976a914c9584234ac111d4ae3d330505d7f7d758d8535ba88ac26236b07000000001976a91409e4a93da072d7bbbc125842bef09fb0f2d52b8288ac6573d300000000001976a914646b28bf03cf8a72e2df7b933f71dc5c6201bc4788ac40feae03000000001976a9144b77a79abd07d0a67f34838bca5265343ffc40b588ac605df602000000001976a914c94761e6f526576ec4a0831d5c3c28aa40cce47588ac0003b501000000001976a914b6ca8762354d03af84def79cc2f2f21c5dce425888ac38be5e72010000001976a9149e38c89453f501375497064f8fe7364d9e00726088ac1070d216000000001976a914f3e474d2db70e0561549604b3947266c125a54f888ac809fd500000000001976a9140e927bb2f5c21c80c49897d506afc36e8c1ace4c88ac4062783a000000001976a914b88ddf1d29de5b72e5836eaf70c811cc5f7dcc1588acc0b99d06000000001976a9142c7afa2addeb2521a5b143221076ef53974837cf88ac82691303000000001976a91409d40dc6b0e2d74230a30461c8f5840082435d0188ac00e6aa00000000001976a914945888ca70b3d0c3f93e90a9a8f848d02ac8c6cd88ace04fa403000000001976a914b1ddc7d8ee0e15c71f02cef7151303256d1d362788ac1ad19400000000001976a914f4dbbe347979980618f9fcf90996ba85b35f100e88acc0990c26000000001976a91429f798b7254b29e57164fdc7486f67591cb10e0288acf9991527010000001976a914a311f7d90e4a98668796fff1d2eda4bb21d042be88ac00cafdda020000001976a9148fc73e8c071fc5f6882b9bd8fc1ed321c1c2640388ac7821dc07000000001976a914f9339cefc6f813bcb1139eb5d3ce6bc60820407088ac589f5503000000001976a914fdcdc017f5e2f59644413edb36d65f360ace9fc088ac9abc1400"
    }, 
    {
      "txid": "4e95c1b206808f572832a9158bceed217de2faa93e447e5a3be5fc00512d904f",
      "hash": "4e95c1b206808f572832a9158bceed217de2faa93e447e5a3be5fc00512d904f",
      "version": 2,
      "size": 226,
      "vsize": 226,
      "locktime": 1359075,
      "vin": [
        {
          "txid": "cd4edf8b7ac6ccd830c8d940ac5b1918de9e2804e8e529939277854425000e2a",
          "vout": 1,
          "scriptSig": {
            "asm": "3045022100a17b03a2f3bfb8a88533af0763f072f1b70f37ce32a4c230946f5ca0ad9cf6ee0220101109ca584ebb1f9a2f97fcb24eab1eaefe05e899299c62e232e904561dfad7[ALL] 035147fb8affcb2044c067212d73cfd6395170d5c1b66f486ffb45b97321fd090f",
            "hex": "483045022100a17b03a2f3bfb8a88533af0763f072f1b70f37ce32a4c230946f5ca0ad9cf6ee0220101109ca584ebb1f9a2f97fcb24eab1eaefe05e899299c62e232e904561dfad70121035147fb8affcb2044c067212d73cfd6395170d5c1b66f486ffb45b97321fd090f"
          },
          "sequence": 4294967294
        }
      ],
      "vout": [
        {
          "value": 2.99900000,
          "n": 0,
          "scriptPubKey": {
            "asm": "OP_DUP OP_HASH160 62879d3c0aaa5a06d1fd38a75dbbf1eaef3af649 OP_EQUALVERIFY OP_CHECKSIG",
            "hex": "76a91462879d3c0aaa5a06d1fd38a75dbbf1eaef3af64988ac",
            "reqSigs": 1,
            "type": "pubkeyhash",
            "addresses": [
              "LUCvwemegc9hPspT2Sd827DjZUutqcAxmv"
            ]
          }
        }, 
        {
          "value": 197.57775920,
          "n": 1,
          "scriptPubKey": {
            "asm": "OP_DUP OP_HASH160 39c8b89c770b2987f6a51923f41c0a306f955e1b OP_EQUALVERIFY OP_CHECKSIG",
            "hex": "76a91439c8b89c770b2987f6a51923f41c0a306f955e1b88ac",
            "reqSigs": 1,
            "type": "pubkeyhash",
            "addresses": [
              "LQVVEVkPjDv9frpcVoCdcQjPyhbNm8Gd1f"
            ]
          }
        }
      ],
      "hex": "02000000012a0e0025448577929329e5e804289ede18195bac40d9c830d8ccc67a8bdf4ecd010000006b483045022100a17b03a2f3bfb8a88533af0763f072f1b70f37ce32a4c230946f5ca0ad9cf6ee0220101109ca584ebb1f9a2f97fcb24eab1eaefe05e899299c62e232e904561dfad70121035147fb8affcb2044c067212d73cfd6395170d5c1b66f486ffb45b97321fd090ffeffffff02601ce011000000001976a91462879d3c0aaa5a06d1fd38a75dbbf1eaef3af64988ac30bca799040000001976a91439c8b89c770b2987f6a51923f41c0a306f955e1b88ace3bc1400"
    }, 
    {
      "txid": "56c549dbd79bcb36230996fefd8586b44b051722de3a0684a7c9f82c053a3556",
      "hash": "56c549dbd79bcb36230996fefd8586b44b051722de3a0684a7c9f82c053a3556",
      "version": 1,
      "size": 226,
      "vsize": 226,
      "locktime": 0,
      "vin": [
        {
          "txid": "8faa2c4a91ca1d3781848d040fa5ea265d46be17842697c8ae695b9bbf981652",
          "vout": 23,
          "scriptSig": {
            "asm": "3045022100e1676bfe9ef9d105eaf8acd91f59e06217a5243c172ffc2be4d50c0d1b09b083022069e211f44079eed15df947dda9f129da5ef440ba550def564a7ddd69f05f69e3[ALL] 023030b2673872425356b870c6d76e2a569c8a4a66c910206162f6de26fde706cc",
            "hex": "483045022100e1676bfe9ef9d105eaf8acd91f59e06217a5243c172ffc2be4d50c0d1b09b083022069e211f44079eed15df947dda9f129da5ef440ba550def564a7ddd69f05f69e30121023030b2673872425356b870c6d76e2a569c8a4a66c910206162f6de26fde706cc"
          },
          "sequence": 4294967295
        }
      ],
      "vout": [
        {
          "value": 0.45125066,
          "n": 0,
          "scriptPubKey": {
            "asm": "OP_DUP OP_HASH160 63e63581d89a7614b65afd08af02649f2463e1ba OP_EQUALVERIFY OP_CHECKSIG",
            "hex": "76a91463e63581d89a7614b65afd08af02649f2463e1ba88ac",
            "reqSigs": 1,
            "type": "pubkeyhash",
            "addresses": [
              "LULAwQYqGk2tsBWu96BhPpdpK5LspbT7tZ"
            ]
          }
        }, 
        {
          "value": 0.03852334,
          "n": 1,
          "scriptPubKey": {
            "asm": "OP_DUP OP_HASH160 f08979057a15e1c30a1fcc190b1ac6a317c26ac0 OP_EQUALVERIFY OP_CHECKSIG",
            "hex": "76a914f08979057a15e1c30a1fcc190b1ac6a317c26ac088ac",
            "reqSigs": 1,
            "type": "pubkeyhash",
            "addresses": [
              "Lh9o82SoyijrLWbfEkq1aUb33xae4X7EgQ"
            ]
          }
        }
      ],
      "hex": "0100000001521698bf9b5b69aec897268417be465d26eaa50f048d8481371dca914a2caa8f170000006b483045022100e1676bfe9ef9d105eaf8acd91f59e06217a5243c172ffc2be4d50c0d1b09b083022069e211f44079eed15df947dda9f129da5ef440ba550def564a7ddd69f05f69e30121023030b2673872425356b870c6d76e2a569c8a4a66c910206162f6de26fde706ccffffffff02ca8db002000000001976a91463e63581d89a7614b65afd08af02649f2463e1ba88ac2ec83a00000000001976a914f08979057a15e1c30a1fcc190b1ac6a317c26ac088ac00000000"
    }, 
    {
      "txid": "8653159ae69165b1a90edc014d3151716ac2aaf175a8e708017a0c4bcc162aa1",
      "hash": "8653159ae69165b1a90edc014d3151716ac2aaf175a8e708017a0c4bcc162aa1",
      "version": 2,
      "size": 226,
      "vsize": 226,
      "locktime": 1359032,
      "vin": [
        {
          "txid": "2ff5aa7727b142bc6913bf87f5cf99e8c6bdc9a25ac15b5968b866a3cd47f57c",
          "vout": 1,
          "scriptSig": {
            "asm": "304502210091ba4e346823c2fa0f2b0a844a89c7d2f46fe222f0e922d0d41da48cde7c95c602203abf4627692f829ec9ba5fb941d30a962544cdf6b96a8c8639033b2eabf28062[ALL] 02c316a9a242e6f43a8acd1cf2ecd5fb53055f3dd8667e8ab0d079735e172f43d5",
            "hex": "48304502210091ba4e346823c2fa0f2b0a844a89c7d2f46fe222f0e922d0d41da48cde7c95c602203abf4627692f829ec9ba5fb941d30a962544cdf6b96a8c8639033b2eabf28062012102c316a9a242e6f43a8acd1cf2ecd5fb53055f3dd8667e8ab0d079735e172f43d5"
          },
          "sequence": 4294967294
        }
      ],
      "vout": [
        {
          "value": 1.94374700,
          "n": 0,
          "scriptPubKey": {
            "asm": "OP_DUP OP_HASH160 553afe238b7cc08fa1d12d05d7ae72564654b3c4 OP_EQUALVERIFY OP_CHECKSIG",
            "hex": "76a914553afe238b7cc08fa1d12d05d7ae72564654b3c488ac",
            "reqSigs": 1,
            "type": "pubkeyhash",
            "addresses": [
              "LSzcNQTn8sS57b3KzwXrYem5Z2g36Jjx6p"
            ]
          }
        }, 
        {
          "value": 317.43321178,
          "n": 1,
          "scriptPubKey": {
            "asm": "OP_DUP OP_HASH160 eb736aaf596edd8107c9943fa1bbf421aa248473 OP_EQUALVERIFY OP_CHECKSIG",
            "hex": "76a914eb736aaf596edd8107c9943fa1bbf421aa24847388ac",
            "reqSigs": 1,
            "type": "pubkeyhash",
            "addresses": [
              "LgguKb6gpELJWRwZGWhBmj6FYhrVTMH96y"
            ]
          }
        }
      ],
      "hex": "02000000017cf547cda366b868595bc15aa2c9bdc6e899cff587bf1369bc42b12777aaf52f010000006b48304502210091ba4e346823c2fa0f2b0a844a89c7d2f46fe222f0e922d0d41da48cde7c95c602203abf4627692f829ec9ba5fb941d30a962544cdf6b96a8c8639033b2eabf28062012102c316a9a242e6f43a8acd1cf2ecd5fb53055f3dd8667e8ab0d079735e172f43d5feffffff022cec950b000000001976a914553afe238b7cc08fa1d12d05d7ae72564654b3c488ac5aa40c64070000001976a914eb736aaf596edd8107c9943fa1bbf421aa24847388acb8bc1400"
    }, 
    {
      "txid": "f9aad930c336dc151ca3f654835bc8c5b2053a590f2d98cd0c43251e7f8abfe7",
      "hash": "f9aad930c336dc151ca3f654835bc8c5b2053a590f2d98cd0c43251e7f8abfe7",
      "version": 1,
      "size": 374,
      "vsize": 374,
      "locktime": 1359075,
      "vin": [
        {
          "txid": "c50960c8235759c0e32c7219d5fbbd662fa74a56ee442e6df7057843ee3328ed",
          "vout": 0,
          "scriptSig": {
            "asm": "3045022100b5c7c3d324067f446b8d711911411f2d8ee9124e773ed83ba15b0e851215ca3a02203a87a4be83fb005f4b46f3807a6969e4ba214e2370370bab1c96171e5859e47a[ALL] 02b3bfe2ca4f5ee0035d58fff7359db1a39d36a7c6e138fc5c5b4da3113086032f",
            "hex": "483045022100b5c7c3d324067f446b8d711911411f2d8ee9124e773ed83ba15b0e851215ca3a02203a87a4be83fb005f4b46f3807a6969e4ba214e2370370bab1c96171e5859e47a012102b3bfe2ca4f5ee0035d58fff7359db1a39d36a7c6e138fc5c5b4da3113086032f"
          },
          "sequence": 4294967294
        }, 
        {
          "txid": "82c76a8e953fba9224ced53cf11055ca5d69390ca7a8ec3200dc1aad0f5bd76a",
          "vout": 12,
          "scriptSig": {
            "asm": "3045022100dbb5ea984fe1e535b10cbf2380c8f6fad9b088f94bab9b800eed4cbe2d6b6c1d0220202dc64788210cf3859389b766b10f461ea77cb78afc1f1aec6ed2afa8c529d0[ALL] 034462986c46f911f55d7854926592b41a60defeb908a4182eca61e5320f0b9da2",
            "hex": "483045022100dbb5ea984fe1e535b10cbf2380c8f6fad9b088f94bab9b800eed4cbe2d6b6c1d0220202dc64788210cf3859389b766b10f461ea77cb78afc1f1aec6ed2afa8c529d00121034462986c46f911f55d7854926592b41a60defeb908a4182eca61e5320f0b9da2"
          },
          "sequence": 4294967294
        }
      ],
      "vout": [
        {
          "value": 1.35718598,
          "n": 0,
          "scriptPubKey": {
            "asm": "OP_DUP OP_HASH160 b0800a3ae0d3b6651e975d872146eb72e7ecb9b4 OP_EQUALVERIFY OP_CHECKSIG",
            "hex": "76a914b0800a3ae0d3b6651e975d872146eb72e7ecb9b488ac",
            "reqSigs": 1,
            "type": "pubkeyhash",
            "addresses": [
              "LbKCaM7dWRgJubL6mPiwmjTsLbd9Sqpmpu"
            ]
          }
        }, 
        {
          "value": 0.01003132,
          "n": 1,
          "scriptPubKey": {
            "asm": "OP_DUP OP_HASH160 2b3a2257d4aa52de436e05c6c796480949df7a3c OP_EQUALVERIFY OP_CHECKSIG",
            "hex": "76a9142b3a2257d4aa52de436e05c6c796480949df7a3c88ac",
            "reqSigs": 1,
            "type": "pubkeyhash",
            "addresses": [
              "LPAWxhB4Y9jGRN89ETL2R5zSuYqPhyuGQo"
            ]
          }
        }
      ],
      "hex": "0100000002ed2833ee437805f76d2e44ee564aa72f66bdfbd519722ce3c0595723c86009c5000000006b483045022100b5c7c3d324067f446b8d711911411f2d8ee9124e773ed83ba15b0e851215ca3a02203a87a4be83fb005f4b46f3807a6969e4ba214e2370370bab1c96171e5859e47a012102b3bfe2ca4f5ee0035d58fff7359db1a39d36a7c6e138fc5c5b4da3113086032ffeffffff6ad75b0fad1adc0032eca8a70c39695dca5510f13cd5ce2492ba3f958e6ac7820c0000006b483045022100dbb5ea984fe1e535b10cbf2380c8f6fad9b088f94bab9b800eed4cbe2d6b6c1d0220202dc64788210cf3859389b766b10f461ea77cb78afc1f1aec6ed2afa8c529d00121034462986c46f911f55d7854926592b41a60defeb908a4182eca61e5320f0b9da2feffffff02c6e61608000000001976a914b0800a3ae0d3b6651e975d872146eb72e7ecb9b488ac7c4e0f00000000001976a9142b3a2257d4aa52de436e05c6c796480949df7a3c88ace3bc1400"
    }
  ],
  "time": 1517233390,
  "mediantime": 1517232793,
  "nonce": 2001295447,
  "bits": "1a042eae",
  "difficulty": 4011378.762614286,
  "chainwork": "000000000000000000000000000000000000000000000033aaf194c62e1e4fcc",
  "previousblockhash": "a797424991f42aef698044311ade0dafce4b1e1cd206e5e49dc6bf0772ae3f1e",
  "nextblockhash": "3e8ca1ef8f2d344ffb88d696e4246b33df5647834a5d9e34c95ff7f737f45b5a"
}
