{
  "hash": "746b364cdf50c228abd0f6b8689796560363c01e6c6bbd6b1b8ba0e606b1910b",
  "confirmations": 1086,
  "strippedsize": 255,
  "size": 255,
  "weight": 1020,
  "height": 1359908,
  "version": 536870912,
  "versionHex": "20000000",
  "merkleroot": "68483c25683b5ac4093676bb53159130c38a8bcfe37108e699673e53fc11dc5b",
  "tx": [
    {
      "txid": "68483c25683b5ac4093676bb53159130c38a8bcfe37108e699673e53fc11dc5b",
      "hash": "68483c25683b5ac4093676bb53159130c38a8bcfe37108e699673e53fc11dc5b",
      "version": 1,
      "size": 174,
      "vsize": 174,
      "locktime": 0,
      "vin": [
        {
          "coinbase": "0324c0141c4d696e656420627920416e74506f6f6c20626a341e205a70e13c0e79fabe6d6d0584ac60672c6291ed4b99905524c8e9525c2deb082ba2a6313e1419796cc3210400000000000000f9010000000000001c000000",
          "sequence": 4294967295
        }
      ],
      "vout": [
        {
          "value": 25.00000000,
          "n": 0,
          "scriptPubKey": {
            "asm": "OP_DUP OP_HASH160 0ff3ccc5e8be88afe24b5d634e5852d474dbdff1 OP_EQUALVERIFY OP_CHECKSIG",
            "hex": "76a9140ff3ccc5e8be88afe24b5d634e5852d474dbdff188ac",
            "reqSigs": 1,
            "type": "pubkeyhash",
            "addresses": [
              "LLgJTbzZMsRTCUF1NtvvL9SR1a4pVieW89"
            ]
          }
        }
      ],
      "hex": "01000000010000000000000000000000000000000000000000000000000000000000000000ffffffff590324c0141c4d696e656420627920416e74506f6f6c20626a341e205a70e13c0e79fabe6d6d0584ac60672c6291ed4b99905524c8e9525c2deb082ba2a6313e1419796cc3210400000000000000f9010000000000001c000000ffffffff0100f90295000000001976a9140ff3ccc5e8be88afe24b5d634e5852d474dbdff188ac00000000"
    }
  ],
  "time": 1517347132,
  "mediantime": 1517346739,
  "nonce": 672572486,
  "bits": "1a042eae",
  "difficulty": 4011378.762614286,
  "chainwork": "00000000000000000000000000000000000000000000003471a2daff2fda8cca",
  "previousblockhash": "bd766ac427167b5f885ca74c82f0f652668c89da5856d47621239647d4d00a09",
  "nextblockhash": "745a3f800ceac70d18fc344e5aed2af818b8f41a000d06a530670b7fd11aca0b"
}
