{
  "hash": "747f2e783d95db85e7e4ec9780620a38386d6aa8d2327298b1c6225b9d1e9ec4",
  "confirmations": 1084,
  "strippedsize": 1586,
  "size": 1622,
  "weight": 6380,
  "height": 1359910,
  "version": 536870912,
  "versionHex": "20000000",
  "merkleroot": "eb621fd2f63c5ab2f40d4166565d14ed99cea0336130dabca2f54606b9b227af",
  "tx": [
    {
      "txid": "8de17dd6225195f84b1045c1f1bc43dd036d57d5d627ae7b5b747c75bca9e712",
      "hash": "14900f3a0db6cbf9072cdd94120ac24af2fc750095e344ade917c6ac68e821d2",
      "version": 1,
      "size": 243,
      "vsize": 216,
      "locktime": 0,
      "vin": [
        {
          "coinbase": "0326c014042de2705afabe6d6d5a8c2c56280518eaeb30a368a0cda194815cebc303088920fd23d877211efd141000000000000000087800ed413333341a0c2f4a3939395034423555472f",
          "sequence": 0
        }
      ],
      "vout": [
        {
          "value": 25.00543300,
          "n": 0,
          "scriptPubKey": {
            "asm": "OP_DUP OP_HASH160 81308472f5a29a68cec40cbb4cd3f4be72094456 OP_EQUALVERIFY OP_CHECKSIG",
            "hex": "76a91481308472f5a29a68cec40cbb4cd3f4be7209445688ac",
            "reqSigs": 1,
            "type": "pubkeyhash",
            "addresses": [
              "LX13Z1HZKVzRDabi8CsPdGhp7YbC7Q8qtn"
            ]
          }
        }, 
        {
          "value": 0.00000000,
          "n": 1,
          "scriptPubKey": {
            "asm": "OP_RETURN aa21a9edd050ace67de2ca16a58b1df8f00f674c7da5122476595a87441ff10f4f0ec7d2",
            "hex": "6a24aa21a9edd050ace67de2ca16a58b1df8f00f674c7da5122476595a87441ff10f4f0ec7d2",
            "type": "nulldata"
          }
        }
      ],
      "hex": "010000000001010000000000000000000000000000000000000000000000000000000000000000ffffffff4b0326c014042de2705afabe6d6d5a8c2c56280518eaeb30a368a0cda194815cebc303088920fd23d877211efd141000000000000000087800ed413333341a0c2f4a3939395034423555472f000000000244430b95000000001976a91481308472f5a29a68cec40cbb4cd3f4be7209445688ac0000000000000000266a24aa21a9edd050ace67de2ca16a58b1df8f00f674c7da5122476595a87441ff10f4f0ec7d20120000000000000000000000000000000000000000000000000000000000000000000000000"
    }, 
    {
      "txid": "e58641305f7e385f3fac759929fcef80a1591b85615ee4f44b913d69a5ec9696",
      "hash": "e58641305f7e385f3fac759929fcef80a1591b85615ee4f44b913d69a5ec9696",
      "version": 1,
      "size": 226,
      "vsize": 226,
      "locktime": 0,
      "vin": [
        {
          "txid": "f8a14491fb935e9a1bea730dba84503202978dbc2f096a4c5d9c9f7f95de34fd",
          "vout": 1,
          "scriptSig": {
            "asm": "3045022100fbdec035cdb7ccbf21be85ed44bfd3ea5f2c6f96f24188509051c1aede08278e02206bfb62fb237ce5247b810d90b3103d1d06b6030a654d3eccc058f3ab23c3ca54[ALL] 03045557468cb480ae3fdf7b18f7869def61be4e141fdfcba7f53ba667d2007c9a",
            "hex": "483045022100fbdec035cdb7ccbf21be85ed44bfd3ea5f2c6f96f24188509051c1aede08278e02206bfb62fb237ce5247b810d90b3103d1d06b6030a654d3eccc058f3ab23c3ca54012103045557468cb480ae3fdf7b18f7869def61be4e141fdfcba7f53ba667d2007c9a"
          },
          "sequence": 4294967295
        }
      ],
      "vout": [
        {
          "value": 1.90000000,
          "n": 0,
          "scriptPubKey": {
            "asm": "OP_DUP OP_HASH160 d72bf9c92cddbae8dc21b1998d6b36f57bd2ba2b OP_EQUALVERIFY OP_CHECKSIG",
            "hex": "76a914d72bf9c92cddbae8dc21b1998d6b36f57bd2ba2b88ac",
            "reqSigs": 1,
            "type": "pubkeyhash",
            "addresses": [
              "LeqgDwgP9pzoPqXsHwawFD2ZwExYKYWwuU"
            ]
          }
        }, 
        {
          "value": 40.02721637,
          "n": 1,
          "scriptPubKey": {
            "asm": "OP_DUP OP_HASH160 8c184560f54552e065fe1a43a555ab79bb9fd40b OP_EQUALVERIFY OP_CHECKSIG",
            "hex": "76a9148c184560f54552e065fe1a43a555ab79bb9fd40b88ac",
            "reqSigs": 1,
            "type": "pubkeyhash",
            "addresses": [
              "LXzhwSyYhTxZt4piVs7KvYPAWKDdXvMTNo"
            ]
          }
        }
      ],
      "hex": "0100000001fd34de957f9f9c5d4c6a092fbc8d9702325084ba0d73ea1b9a5e93fb9144a1f8010000006b483045022100fbdec035cdb7ccbf21be85ed44bfd3ea5f2c6f96f24188509051c1aede08278e02206bfb62fb237ce5247b810d90b3103d1d06b6030a654d3eccc058f3ab23c3ca54012103045557468cb480ae3fdf7b18f7869def61be4e141fdfcba7f53ba667d2007c9affffffff02802b530b000000001976a914d72bf9c92cddbae8dc21b1998d6b36f57bd2ba2b88ac65af94ee000000001976a9148c184560f54552e065fe1a43a555ab79bb9fd40b88ac00000000"
    }, 
    {
      "txid": "b36160ff3f078292a39e1a02afb038813325b153b8fe71498683e7828239fee0",
      "hash": "b36160ff3f078292a39e1a02afb038813325b153b8fe71498683e7828239fee0",
      "version": 1,
      "size": 225,
      "vsize": 225,
      "locktime": 0,
      "vin": [
        {
          "txid": "772040ed8b4c1780d51e6aee9edef6beb19f53c6db223e0888347346198bc8d3",
          "vout": 0,
          "scriptSig": {
            "asm": "30440220296b4e50c9ea9ffa91d02f723de006145ac2c578eb0fb508129ac6efb27bc5d3022024dd40cb853fd23cc09a7dc6c455d3fc6e3f380d489bedf04dc629bd2986f370[ALL] 02a8f7674ccdef000336fa33c2459ac8bbf7f191621b05900e50e7a95a4b1fbc16",
            "hex": "4730440220296b4e50c9ea9ffa91d02f723de006145ac2c578eb0fb508129ac6efb27bc5d3022024dd40cb853fd23cc09a7dc6c455d3fc6e3f380d489bedf04dc629bd2986f370012102a8f7674ccdef000336fa33c2459ac8bbf7f191621b05900e50e7a95a4b1fbc16"
          },
          "sequence": 4294967295
        }
      ],
      "vout": [
        {
          "value": 0.90847000,
          "n": 0,
          "scriptPubKey": {
            "asm": "OP_DUP OP_HASH160 2a5ff7f425408cf82091ce9db2e3cde2f48b3293 OP_EQUALVERIFY OP_CHECKSIG",
            "hex": "76a9142a5ff7f425408cf82091ce9db2e3cde2f48b329388ac",
            "reqSigs": 1,
            "type": "pubkeyhash",
            "addresses": [
              "LP61cHNAhQswpUSPfwH1dwMrdw81GEX574"
            ]
          }
        }, 
        {
          "value": 0.08873500,
          "n": 1,
          "scriptPubKey": {
            "asm": "OP_DUP OP_HASH160 b668c33ca30067769393dba2890e1d906db6d768 OP_EQUALVERIFY OP_CHECKSIG",
            "hex": "76a914b668c33ca30067769393dba2890e1d906db6d76888ac",
            "reqSigs": 1,
            "type": "pubkeyhash",
            "addresses": [
              "LbrSkAN7MjY7oQWvRj6nShMug7vxRYCicx"
            ]
          }
        }
      ],
      "hex": "0100000001d3c88b1946733488083e22dbc6539fb1bef6de9eee6a1ed580174c8bed402077000000006a4730440220296b4e50c9ea9ffa91d02f723de006145ac2c578eb0fb508129ac6efb27bc5d3022024dd40cb853fd23cc09a7dc6c455d3fc6e3f380d489bedf04dc629bd2986f370012102a8f7674ccdef000336fa33c2459ac8bbf7f191621b05900e50e7a95a4b1fbc16ffffffff0218376a05000000001976a9142a5ff7f425408cf82091ce9db2e3cde2f48b329388ac1c668700000000001976a914b668c33ca30067769393dba2890e1d906db6d76888ac00000000"
    }, 
    {
      "txid": "68852fd33c049aa3bdd69abb7cecf00e68164cdffbe1e212725cfdfe77c47e8b",
      "hash": "68852fd33c049aa3bdd69abb7cecf00e68164cdffbe1e212725cfdfe77c47e8b",
      "version": 2,
      "size": 226,
      "vsize": 226,
      "locktime": 1359908,
      "vin": [
        {
          "txid": "ff5b9897a577c5f09b2612ad81e2183c72a06b20b42f1af8d90f0d918114028b",
          "vout": 0,
          "scriptSig": {
            "asm": "3045022100fa66bd2b56d9aab145c729abb9916859ea31d61795b5082b47fddffc788ea10b022029090de8d4c682d045f9b30c4440a2a91c4238180d288f63ea4b8629fac02797[ALL] 0398c010f78448970ecbee362074b068ddd84cbb0194f735e68fcdb4eafd00608d",
            "hex": "483045022100fa66bd2b56d9aab145c729abb9916859ea31d61795b5082b47fddffc788ea10b022029090de8d4c682d045f9b30c4440a2a91c4238180d288f63ea4b8629fac0279701210398c010f78448970ecbee362074b068ddd84cbb0194f735e68fcdb4eafd00608d"
          },
          "sequence": 4294967294
        }
      ],
      "vout": [
        {
          "value": 124.60917432,
          "n": 0,
          "scriptPubKey": {
            "asm": "OP_DUP OP_HASH160 1192efb4e9cbc3122a2529a5267d19f1793b6f89 OP_EQUALVERIFY OP_CHECKSIG",
            "hex": "76a9141192efb4e9cbc3122a2529a5267d19f1793b6f8988ac",
            "reqSigs": 1,
            "type": "pubkeyhash",
            "addresses": [
              "LLpsmnqCSso4Lc55fUHtTg642WiUB1ioqj"
            ]
          }
        }, 
        {
          "value": 1.14007328,
          "n": 1,
          "scriptPubKey": {
            "asm": "OP_DUP OP_HASH160 6cd696a24e8747fb68fe52d07cdacae124f502d0 OP_EQUALVERIFY OP_CHECKSIG",
            "hex": "76a9146cd696a24e8747fb68fe52d07cdacae124f502d088ac",
            "reqSigs": 1,
            "type": "pubkeyhash",
            "addresses": [
              "LV9SJo4xomLLavn7rQv8LCoeLrjFidwps7"
            ]
          }
        }
      ],
      "hex": "02000000018b021481910d0fd9f81a2fb4206ba0723c18e281ad12269bf0c577a597985bff000000006b483045022100fa66bd2b56d9aab145c729abb9916859ea31d61795b5082b47fddffc788ea10b022029090de8d4c682d045f9b30c4440a2a91c4238180d288f63ea4b8629fac0279701210398c010f78448970ecbee362074b068ddd84cbb0194f735e68fcdb4eafd00608dfeffffff02b882bae6020000001976a9141192efb4e9cbc3122a2529a5267d19f1793b6f8988ac209dcb06000000001976a9146cd696a24e8747fb68fe52d07cdacae124f502d088ac24c01400"
    }, 
    {
      "txid": "d54fdaa025584f5b0aa7581164aa3f5bbeaae77ffd51147ce07f41bf8729388f",
      "hash": "d54fdaa025584f5b0aa7581164aa3f5bbeaae77ffd51147ce07f41bf8729388f",
      "version": 1,
      "size": 395,
      "vsize": 395,
      "locktime": 1359908,
      "vin": [
        {
          "txid": "8e254d9691c33ed97d4007f4913ddd6c89ab9d0c2e2eb2825fe9be5aa16a5545",
          "vout": 6,
          "scriptSig": {
            "asm": "304402200af40d6fb3bc6efa2e69b2d6676b4289898fd79ed6b187eab517a6301cba3d20022062a535d32207e35bbb1e1c5ea8df7bd2eae938c610b022691f460885e985c828[ALL] 02dbe1e27887cb9afbfba770a19364ca93317b86beb622b7a1c697a8c35aec5e20",
            "hex": "47304402200af40d6fb3bc6efa2e69b2d6676b4289898fd79ed6b187eab517a6301cba3d20022062a535d32207e35bbb1e1c5ea8df7bd2eae938c610b022691f460885e985c828012102dbe1e27887cb9afbfba770a19364ca93317b86beb622b7a1c697a8c35aec5e20"
          },
          "sequence": 4294967294
        }
      ],
      "vout": [
        {
          "value": 598.79900000,
          "n": 0,
          "scriptPubKey": {
            "asm": "OP_DUP OP_HASH160 52b6dfb4557adb52c4cc6bca268f0b064c758a97 OP_EQUALVERIFY OP_CHECKSIG",
            "hex": "76a91452b6dfb4557adb52c4cc6bca268f0b064c758a9788ac",
            "reqSigs": 1,
            "type": "pubkeyhash",
            "addresses": [
              "LSmJkEunECzdcU55KpKzKpEqoc5tLC4G6M"
            ]
          }
        }, 
        {
          "value": 26.12460177,
          "n": 1,
          "scriptPubKey": {
            "asm": "OP_DUP OP_HASH160 7617aeeb6e12282283293df87ff0f9566745722e OP_EQUALVERIFY OP_CHECKSIG",
            "hex": "76a9147617aeeb6e12282283293df87ff0f9566745722e88ac",
            "reqSigs": 1,
            "type": "pubkeyhash",
            "addresses": [
              "LVzNNPhQFQxd7gnxFtKZi65jDFGUJovXYJ"
            ]
          }
        }, 
        {
          "value": 11.97500000,
          "n": 2,
          "scriptPubKey": {
            "asm": "OP_DUP OP_HASH160 5313074a81d34ac481ca78cd139200f16e25f51b OP_EQUALVERIFY OP_CHECKSIG",
            "hex": "76a9145313074a81d34ac481ca78cd139200f16e25f51b88ac",
            "reqSigs": 1,
            "type": "pubkeyhash",
            "addresses": [
              "LSoD9FrduM4sJqkMTXuVCVocM2HYywSzLo"
            ]
          }
        }, 
        {
          "value": 8.38900000,
          "n": 3,
          "scriptPubKey": {
            "asm": "OP_DUP OP_HASH160 2d59ff70636a5a62f14e028a1e602e58768d9b7a OP_EQUALVERIFY OP_CHECKSIG",
            "hex": "76a9142d59ff70636a5a62f14e028a1e602e58768d9b7a88ac",
            "reqSigs": 1,
            "type": "pubkeyhash",
            "addresses": [
              "LPMkV17WnsFN8iJkQrs6XsPJopXhvVNX5y"
            ]
          }
        }, 
        {
          "value": 3.99900000,
          "n": 4,
          "scriptPubKey": {
            "asm": "OP_DUP OP_HASH160 d75279e5cf25bb074330cd4f048619a37b0f8c02 OP_EQUALVERIFY OP_CHECKSIG",
            "hex": "76a914d75279e5cf25bb074330cd4f048619a37b0f8c0288ac",
            "reqSigs": 1,
            "type": "pubkeyhash",
            "addresses": [
              "LerULzzz6kP2cjMi6ankVFMsAsYUPekEUa"
            ]
          }
        }, 
        {
          "value": 24101.87432988,
          "n": 5,
          "scriptPubKey": {
            "asm": "OP_DUP OP_HASH160 c463bc1671e3a7e3985f13dcd0f1a9c85b6f191c OP_EQUALVERIFY OP_CHECKSIG",
            "hex": "76a914c463bc1671e3a7e3985f13dcd0f1a9c85b6f191c88ac",
            "reqSigs": 1,
            "type": "pubkeyhash",
            "addresses": [
              "Ld8NBW34zRaaMbPzjSi2baTTh7ReGyDGMY"
            ]
          }
        }, 
        {
          "value": 2.99900000,
          "n": 6,
          "scriptPubKey": {
            "asm": "OP_DUP OP_HASH160 ce788b7e8207faed70a9c4237202cf196d317ba5 OP_EQUALVERIFY OP_CHECKSIG",
            "hex": "76a914ce788b7e8207faed70a9c4237202cf196d317ba588ac",
            "reqSigs": 1,
            "type": "pubkeyhash",
            "addresses": [
              "Le3fsLUFbj6XV3vtPcZmFcPiAFKqo2McXb"
            ]
          }
        }
      ],
      "hex": "010000000145556aa15abee95f82b22e2e0c9dab896cdd3d91f407407dd93ec391964d258e060000006a47304402200af40d6fb3bc6efa2e69b2d6676b4289898fd79ed6b187eab517a6301cba3d20022062a535d32207e35bbb1e1c5ea8df7bd2eae938c610b022691f460885e985c828012102dbe1e27887cb9afbfba770a19364ca93317b86beb622b7a1c697a8c35aec5e20feffffff0760c31ef10d0000001976a91452b6dfb4557adb52c4cc6bca268f0b064c758a9788ac91fab69b000000001976a9147617aeeb6e12282283293df87ff0f9566745722e88ac60666047000000001976a9145313074a81d34ac481ca78cd139200f16e25f51b88ac20990032000000001976a9142d59ff70636a5a62f14e028a1e602e58768d9b7a88ac60fdd517000000001976a914d75279e5cf25bb074330cd4f048619a37b0f8c0288ac1ca45d2a310200001976a914c463bc1671e3a7e3985f13dcd0f1a9c85b6f191c88ac601ce011000000001976a914ce788b7e8207faed70a9c4237202cf196d317ba588ac24c01400"
    }, 
    {
      "txid": "67294f66e86bd9113ebfb37c3daf877072ea393efaa815ae89da7c36787e59ed",
      "hash": "67294f66e86bd9113ebfb37c3daf877072ea393efaa815ae89da7c36787e59ed",
      "version": 1,
      "size": 226,
      "vsize": 226,
      "locktime": 0,
      "vin": [
        {
          "txid": "42d26caaa14c412397920676cbccb37b298a47e5278f764f183f72c2a19d832d",
          "vout": 49,
          "scriptSig": {
            "asm": "3045022100dd62af7aad22031f28486b9b8e159c601b2c29ab91f7246450fc52bf96cb312802201db3aa2e3c7956eb9af41b70a9048af30d3f4c5f237e83f8b03727f1fda6a23a[ALL] 02eff8c0d44d348e0531a8ee0f98c5d7fa63f363509595503a32cea24b6ea5cc94",
            "hex": "483045022100dd62af7aad22031f28486b9b8e159c601b2c29ab91f7246450fc52bf96cb312802201db3aa2e3c7956eb9af41b70a9048af30d3f4c5f237e83f8b03727f1fda6a23a012102eff8c0d44d348e0531a8ee0f98c5d7fa63f363509595503a32cea24b6ea5cc94"
          },
          "sequence": 4294967295
        }
      ],
      "vout": [
        {
          "value": 0.00090672,
          "n": 0,
          "scriptPubKey": {
            "asm": "OP_DUP OP_HASH160 c97de47ba951b24511dcecd3dd5eb331d298c6bd OP_EQUALVERIFY OP_CHECKSIG",
            "hex": "76a914c97de47ba951b24511dcecd3dd5eb331d298c6bd88ac",
            "reqSigs": 1,
            "type": "pubkeyhash",
            "addresses": [
              "LdbLtwEyH4MiL1LPVg9rsErZkwnWHptn78"
            ]
          }
        }, 
        {
          "value": 0.30856728,
          "n": 1,
          "scriptPubKey": {
            "asm": "OP_DUP OP_HASH160 32087ec6e5f4f5559582597b624d9cfb6fdc8480 OP_EQUALVERIFY OP_CHECKSIG",
            "hex": "76a91432087ec6e5f4f5559582597b624d9cfb6fdc848088ac",
            "reqSigs": 1,
            "type": "pubkeyhash",
            "addresses": [
              "LPnWE4byYvonf1T3ZapFDKwFdA6ZV7GYxf"
            ]
          }
        }
      ],
      "hex": "01000000012d839da1c2723f184f768f27e5478a297bb3cccb7606929723414ca1aa6cd242310000006b483045022100dd62af7aad22031f28486b9b8e159c601b2c29ab91f7246450fc52bf96cb312802201db3aa2e3c7956eb9af41b70a9048af30d3f4c5f237e83f8b03727f1fda6a23a012102eff8c0d44d348e0531a8ee0f98c5d7fa63f363509595503a32cea24b6ea5cc94ffffffff0230620100000000001976a914c97de47ba951b24511dcecd3dd5eb331d298c6bd88ac18d6d601000000001976a91432087ec6e5f4f5559582597b624d9cfb6fdc848088ac00000000"
    }
  ],
  "time": 1517347266,
  "mediantime": 1517346855,
  "nonce": 3407398629,
  "bits": "1a042eae",
  "difficulty": 4011378.762614286,
  "chainwork": "000000000000000000000000000000000000000000000034721d465f21afdfce",
  "previousblockhash": "745a3f800ceac70d18fc344e5aed2af818b8f41a000d06a530670b7fd11aca0b",
  "nextblockhash": "f23e2ac0cfbd7cf6a3ca79eff0c6172c3d9322944689f664174ffd3145e909ba"
}
