{
  "hash": "74ebd1dd384d9e6a0ef69c7d8051da6cfac734129d6b3cdce036477dd6533a39",
  "confirmations": 20,
  "strippedsize": 255,
  "size": 255,
  "weight": 1020,
  "height": 1360971,
  "version": 536870912,
  "versionHex": "20000000",
  "merkleroot": "1c99f548888749be04efed986a0b29999552448420dce24a966f1bdf1123cc8c",
  "tx": [
    {
      "txid": "1c99f548888749be04efed986a0b29999552448420dce24a966f1bdf1123cc8c",
      "hash": "1c99f548888749be04efed986a0b29999552448420dce24a966f1bdf1123cc8c",
      "version": 1,
      "size": 174,
      "vsize": 174,
      "locktime": 0,
      "vin": [
        {
          "coinbase": "034bc4141c4d696e656420627920416e74506f6f6c20626a341e205a73492103a7fabe6d6d17ff2a0a84d179bffde43bd7e2d602ec6e66ef2869d3a92d065ab6ffdb90c5220400000000000000e00f00000000000012000000",
          "sequence": 4294967295
        }
      ],
      "vout": [
        {
          "value": 25.00000000,
          "n": 0,
          "scriptPubKey": {
            "asm": "OP_DUP OP_HASH160 0ff3ccc5e8be88afe24b5d634e5852d474dbdff1 OP_EQUALVERIFY OP_CHECKSIG",
            "hex": "76a9140ff3ccc5e8be88afe24b5d634e5852d474dbdff188ac",
            "reqSigs": 1,
            "type": "pubkeyhash",
            "addresses": [
              "LLgJTbzZMsRTCUF1NtvvL9SR1a4pVieW89"
            ]
          }
        }
      ],
      "hex": "01000000010000000000000000000000000000000000000000000000000000000000000000ffffffff59034bc4141c4d696e656420627920416e74506f6f6c20626a341e205a73492103a7fabe6d6d17ff2a0a84d179bffde43bd7e2d602ec6e66ef2869d3a92d065ab6ffdb90c5220400000000000000e00f00000000000012000000ffffffff0100f90295000000001976a9140ff3ccc5e8be88afe24b5d634e5852d474dbdff188ac00000000"
    }
  ],
  "time": 1517504801,
  "mediantime": 1517504508,
  "nonce": 2708172609,
  "bits": "1a04088e",
  "difficulty": 4159490.835685156,
  "chainwork": "0000000000000000000000000000000000000000000000357151830312069500",
  "previousblockhash": "3cf11a2edbd74cac7c1c419067afca9eb5bdb9a81342b7f9a7fbab459e4cf672",
  "nextblockhash": "5e1c5966594f585c93de5069b159ada50541ba7ef78c31c8bc92ff124aaaa295"
}
