{
  "hash": "74f74e7ea33666dd0492c6abc92cc50b7da6161dfa8cee87901be0c13ee3e6c9",
  "confirmations": 1095,
  "strippedsize": 2314,
  "size": 2459,
  "weight": 9401,
  "height": 1359899,
  "version": 536870912,
  "versionHex": "20000000",
  "merkleroot": "0122a8692c3329f7104f289f96001446a06946ef17b69dee8b836975cb7d71d6",
  "tx": [
    {
      "txid": "16adbf1e561d06b3f392a7d5585c46eb74c070718c3b810852d29a9ab03d1f07",
      "hash": "6df9ca8f7a58972d643e8cddec9e266686c9ea2acc3be0276abb896a6be750de",
      "version": 1,
      "size": 257,
      "vsize": 230,
      "locktime": 0,
      "vin": [
        {
          "coinbase": "031bc014204d696e656420627920474956452d4d452d434f494e532e636f6d5a70ddd9016ffabe6d6d7f4034590fd7aa21188a146e1b7cab7534201c1fb5395c80b5e0e8080629484908000000000000005e00000046710000",
          "sequence": 4294967295
        }
      ],
      "vout": [
        {
          "value": 25.00757029,
          "n": 0,
          "scriptPubKey": {
            "asm": "OP_DUP OP_HASH160 819c78ab0b69f30c8f652e5496bc4ed568af53dc OP_EQUALVERIFY OP_CHECKSIG",
            "hex": "76a914819c78ab0b69f30c8f652e5496bc4ed568af53dc88ac",
            "reqSigs": 1,
            "type": "pubkeyhash",
            "addresses": [
              "LX3GsnBa9RYgLFKRyS7NDK26J9shCWBqmA"
            ]
          }
        }, 
        {
          "value": 0.00000000,
          "n": 1,
          "scriptPubKey": {
            "asm": "OP_RETURN aa21a9edf0fcefd80e8f98daaae6775448338f23f5ac816edc6391ff32a6da8587b04948",
            "hex": "6a24aa21a9edf0fcefd80e8f98daaae6775448338f23f5ac816edc6391ff32a6da8587b04948",
            "type": "nulldata"
          }
        }
      ],
      "hex": "010000000001010000000000000000000000000000000000000000000000000000000000000000ffffffff59031bc014204d696e656420627920474956452d4d452d434f494e532e636f6d5a70ddd9016ffabe6d6d7f4034590fd7aa21188a146e1b7cab7534201c1fb5395c80b5e0e8080629484908000000000000005e00000046710000ffffffff0225860e95000000001976a914819c78ab0b69f30c8f652e5496bc4ed568af53dc88ac0000000000000000266a24aa21a9edf0fcefd80e8f98daaae6775448338f23f5ac816edc6391ff32a6da8587b049480120000000000000000000000000000000000000000000000000000000000000000000000000"
    }, 
    {
      "txid": "74fbdde6f3104171a3e6f101bca1f4c17c9852444aa7d3311df790bff0582cb0",
      "hash": "74fbdde6f3104171a3e6f101bca1f4c17c9852444aa7d3311df790bff0582cb0",
      "version": 1,
      "size": 225,
      "vsize": 225,
      "locktime": 0,
      "vin": [
        {
          "txid": "7f0887f96f65b55006975f4ba741eee61145ce181d8aff249e3b7b732fab4d16",
          "vout": 1,
          "scriptSig": {
            "asm": "304402201033a39c14eb3a8dc6e8d56eae5012b9fb0e9e116d2697722bba801575046de6022063e90b8139e228774e0f8386106461770e443af3e366d6e13bef89c0b0e82735[ALL] 03538d98650a56aa50ef0e7657eefae0294e403b8c209effab45f625cb8cb38f92",
            "hex": "47304402201033a39c14eb3a8dc6e8d56eae5012b9fb0e9e116d2697722bba801575046de6022063e90b8139e228774e0f8386106461770e443af3e366d6e13bef89c0b0e82735012103538d98650a56aa50ef0e7657eefae0294e403b8c209effab45f625cb8cb38f92"
          },
          "sequence": 4294967295
        }
      ],
      "vout": [
        {
          "value": 0.37400000,
          "n": 0,
          "scriptPubKey": {
            "asm": "OP_DUP OP_HASH160 a8e2c706c9dc7a136d69d4f0d4a718b577549bfe OP_EQUALVERIFY OP_CHECKSIG",
            "hex": "76a914a8e2c706c9dc7a136d69d4f0d4a718b577549bfe88ac",
            "reqSigs": 1,
            "type": "pubkeyhash",
            "addresses": [
              "LacwTDMUTY7vFMYrrDzzMYHt1FTakkkU9A"
            ]
          }
        }, 
        {
          "value": 488.25036009,
          "n": 1,
          "scriptPubKey": {
            "asm": "OP_DUP OP_HASH160 6b09f07ebd28bbe86b9a2cef63b1d8c95c647342 OP_EQUALVERIFY OP_CHECKSIG",
            "hex": "76a9146b09f07ebd28bbe86b9a2cef63b1d8c95c64734288ac",
            "reqSigs": 1,
            "type": "pubkeyhash",
            "addresses": [
              "LUyvULqa7F3N3L5tDWfh6kz8bKdRasYCt4"
            ]
          }
        }
      ],
      "hex": "0100000001164dab2f737b3b9e24ff8a1d18ce4511e6ee41a74b5f970650b5656ff987087f010000006a47304402201033a39c14eb3a8dc6e8d56eae5012b9fb0e9e116d2697722bba801575046de6022063e90b8139e228774e0f8386106461770e443af3e366d6e13bef89c0b0e82735012103538d98650a56aa50ef0e7657eefae0294e403b8c209effab45f625cb8cb38f92ffffffff02c0ad3a02000000001976a914a8e2c706c9dc7a136d69d4f0d4a718b577549bfe88ace9ec325e0b0000001976a9146b09f07ebd28bbe86b9a2cef63b1d8c95c64734288ac00000000"
    }, 
    {
      "txid": "f85ef5c7871d714c03f4584f70bb46acb5128a8e9774e7d8d39a3aa997448c59",
      "hash": "f85ef5c7871d714c03f4584f70bb46acb5128a8e9774e7d8d39a3aa997448c59",
      "version": 1,
      "size": 226,
      "vsize": 226,
      "locktime": 0,
      "vin": [
        {
          "txid": "88bafa39c1c5a3c3c887deaa89c8e373447b88f78b7dd7291af7023fd9931d8c",
          "vout": 1,
          "scriptSig": {
            "asm": "3045022100d14923bad242c85a76b78d740307a00b46a5169329f298b4244b40af84f1151002201b1bacd9dbd74ccdb9b9b14b2cab1908a94bcc22c6c101ce7107be16e0342680[ALL] 0216d1e6015c050299303fdefc770db3db81c6085f853ca38cc6e5e6d74852632a",
            "hex": "483045022100d14923bad242c85a76b78d740307a00b46a5169329f298b4244b40af84f1151002201b1bacd9dbd74ccdb9b9b14b2cab1908a94bcc22c6c101ce7107be16e034268001210216d1e6015c050299303fdefc770db3db81c6085f853ca38cc6e5e6d74852632a"
          },
          "sequence": 4294967295
        }
      ],
      "vout": [
        {
          "value": 1.33900000,
          "n": 0,
          "scriptPubKey": {
            "asm": "OP_DUP OP_HASH160 fb59b0b1c438ac39e39a7a18cf57d87eb3917d9e OP_EQUALVERIFY OP_CHECKSIG",
            "hex": "76a914fb59b0b1c438ac39e39a7a18cf57d87eb3917d9e88ac",
            "reqSigs": 1,
            "type": "pubkeyhash",
            "addresses": [
              "Li8yK9Wzbpd4fteH6Vc47poQ2pzkUXqLzU"
            ]
          }
        }, 
        {
          "value": 472.02625775,
          "n": 1,
          "scriptPubKey": {
            "asm": "OP_DUP OP_HASH160 c8610892896b04419b3fda13fa6be08de7cb9b6e OP_EQUALVERIFY OP_CHECKSIG",
            "hex": "76a914c8610892896b04419b3fda13fa6be08de7cb9b6e88ac",
            "reqSigs": 1,
            "type": "pubkeyhash",
            "addresses": [
              "LdVTeapV8g2x4BvbESH4742jnYxAjKqsfk"
            ]
          }
        }
      ],
      "hex": "01000000018c1d93d93f02f71a29d77d8bf7887b4473e3c889aade87c8c3a3c5c139faba88010000006b483045022100d14923bad242c85a76b78d740307a00b46a5169329f298b4244b40af84f1151002201b1bacd9dbd74ccdb9b9b14b2cab1908a94bcc22c6c101ce7107be16e034268001210216d1e6015c050299303fdefc770db3db81c6085f853ca38cc6e5e6d74852632affffffff02e026fb07000000001976a914fb59b0b1c438ac39e39a7a18cf57d87eb3917d9e88acefe87efd0a0000001976a914c8610892896b04419b3fda13fa6be08de7cb9b6e88ac00000000"
    }, 
    {
      "txid": "42b00553869b87a4ce277910f92d1fac62dace2952d891ccbceaf1545bf628c3",
      "hash": "42b00553869b87a4ce277910f92d1fac62dace2952d891ccbceaf1545bf628c3",
      "version": 1,
      "size": 226,
      "vsize": 226,
      "locktime": 0,
      "vin": [
        {
          "txid": "7bc57280f4bea3edf4b477559dd562169eeab25d22c7c9a091c1094246d01786",
          "vout": 1,
          "scriptSig": {
            "asm": "3045022100bb951d3cf228212cca813ccf1729186bca78701085579d5429f38e90dea575f802201bb8b24d4c3eb15a338a125afe70472f626fca71a0016294bf72d60bf1ee49ff[ALL] 02395031f6a03ad1a0e379aaa302a0c1b5c911d25036b948ae047616c607979d27",
            "hex": "483045022100bb951d3cf228212cca813ccf1729186bca78701085579d5429f38e90dea575f802201bb8b24d4c3eb15a338a125afe70472f626fca71a0016294bf72d60bf1ee49ff012102395031f6a03ad1a0e379aaa302a0c1b5c911d25036b948ae047616c607979d27"
          },
          "sequence": 4294967295
        }
      ],
      "vout": [
        {
          "value": 8.84780000,
          "n": 0,
          "scriptPubKey": {
            "asm": "OP_DUP OP_HASH160 6085da1d55e75d0cabbbedd9b74927320e8494f3 OP_EQUALVERIFY OP_CHECKSIG",
            "hex": "76a9146085da1d55e75d0cabbbedd9b74927320e8494f388ac",
            "reqSigs": 1,
            "type": "pubkeyhash",
            "addresses": [
              "LU2KUq4VSBJip9z43d9m1916zDwhXdrTin"
            ]
          }
        }, 
        {
          "value": 471.81854845,
          "n": 1,
          "scriptPubKey": {
            "asm": "OP_DUP OP_HASH160 fd325a4842497371a8ac661ac80ffe0f4627cd0f OP_EQUALVERIFY OP_CHECKSIG",
            "hex": "76a914fd325a4842497371a8ac661ac80ffe0f4627cd0f88ac",
            "reqSigs": 1,
            "type": "pubkeyhash",
            "addresses": [
              "LiJjYJyA3Lc9FYDuMKc667mrsM4khf4T3R"
            ]
          }
        }
      ],
      "hex": "01000000018617d0464209c191a0c9c7225db2ea9e1662d59d5577b4f4eda3bef48072c57b010000006b483045022100bb951d3cf228212cca813ccf1729186bca78701085579d5429f38e90dea575f802201bb8b24d4c3eb15a338a125afe70472f626fca71a0016294bf72d60bf1ee49ff012102395031f6a03ad1a0e379aaa302a0c1b5c911d25036b948ae047616c607979d27ffffffff02e0abbc34000000001976a9146085da1d55e75d0cabbbedd9b74927320e8494f388ac7df841fc0a0000001976a914fd325a4842497371a8ac661ac80ffe0f4627cd0f88ac00000000"
    }, 
    {
      "txid": "2530f35c24b6a7d872674e99fcd6c66926a5b0f51a8a89b64a454628468dd51f",
      "hash": "2530f35c24b6a7d872674e99fcd6c66926a5b0f51a8a89b64a454628468dd51f",
      "version": 1,
      "size": 373,
      "vsize": 373,
      "locktime": 0,
      "vin": [
        {
          "txid": "9067f183d95c1712a33b44e3fb98dfb3150382d9626bad9d674999a88fa555b1",
          "vout": 32,
          "scriptSig": {
            "asm": "3044022018091cb9b0720c8f194df1a937900e999295b33a289b2a871e46f60361f0a00f02202a4561f3ad848676ea720486c1a2303105d3e48c5a52215e7c80523f7b4583a8[ALL] 02a726d1b0f1e2c3eac9d5602be4b2363c2e46f96cef1f35084bf1816418612ef7",
            "hex": "473044022018091cb9b0720c8f194df1a937900e999295b33a289b2a871e46f60361f0a00f02202a4561f3ad848676ea720486c1a2303105d3e48c5a52215e7c80523f7b4583a8012102a726d1b0f1e2c3eac9d5602be4b2363c2e46f96cef1f35084bf1816418612ef7"
          },
          "sequence": 4294967295
        }, 
        {
          "txid": "71c62398e3b5f0af025a864f3aca32175537ac03382ec23017896cc17c06f273",
          "vout": 321,
          "scriptSig": {
            "asm": "3045022100a1005f9bfd19bccf239b9f945f096e892b9b86b25dd9bdd890294eceb13db39302206a07fab23cb711d5360879632c920ce5e919f9444c69d64a201cdc5055b4610f[ALL] 0276a6b9ec5b9c5e4971c0be9c252d45d85ddbf259dd06676c22ce98f58e3bae81",
            "hex": "483045022100a1005f9bfd19bccf239b9f945f096e892b9b86b25dd9bdd890294eceb13db39302206a07fab23cb711d5360879632c920ce5e919f9444c69d64a201cdc5055b4610f01210276a6b9ec5b9c5e4971c0be9c252d45d85ddbf259dd06676c22ce98f58e3bae81"
          },
          "sequence": 4294967295
        }
      ],
      "vout": [
        {
          "value": 0.10000000,
          "n": 0,
          "scriptPubKey": {
            "asm": "OP_DUP OP_HASH160 81f659b6c8b68f26f7d3c98f9b913af37262b835 OP_EQUALVERIFY OP_CHECKSIG",
            "hex": "76a91481f659b6c8b68f26f7d3c98f9b913af37262b83588ac",
            "reqSigs": 1,
            "type": "pubkeyhash",
            "addresses": [
              "LX58YgsCmksC7MtniWSusGJ6Ri26BQHXgk"
            ]
          }
        }, 
        {
          "value": 0.01195345,
          "n": 1,
          "scriptPubKey": {
            "asm": "OP_DUP OP_HASH160 4bfe3aec9b7fe56b517d8d9cf5dd1f47480b9bf9 OP_EQUALVERIFY OP_CHECKSIG",
            "hex": "76a9144bfe3aec9b7fe56b517d8d9cf5dd1f47480b9bf988ac",
            "reqSigs": 1,
            "type": "pubkeyhash",
            "addresses": [
              "LS9mVpejYWKYBYBXsCQdrdeR2N6YqtW3a3"
            ]
          }
        }
      ],
      "hex": "0100000002b155a58fa89949679dad6b62d9820315b3df98fbe3443ba312175cd983f16790200000006a473044022018091cb9b0720c8f194df1a937900e999295b33a289b2a871e46f60361f0a00f02202a4561f3ad848676ea720486c1a2303105d3e48c5a52215e7c80523f7b4583a8012102a726d1b0f1e2c3eac9d5602be4b2363c2e46f96cef1f35084bf1816418612ef7ffffffff73f2067cc16c891730c22e3803ac37551732ca3a4f865a02aff0b5e39823c671410100006b483045022100a1005f9bfd19bccf239b9f945f096e892b9b86b25dd9bdd890294eceb13db39302206a07fab23cb711d5360879632c920ce5e919f9444c69d64a201cdc5055b4610f01210276a6b9ec5b9c5e4971c0be9c252d45d85ddbf259dd06676c22ce98f58e3bae81ffffffff0280969800000000001976a91481f659b6c8b68f26f7d3c98f9b913af37262b83588ac513d1200000000001976a9144bfe3aec9b7fe56b517d8d9cf5dd1f47480b9bf988ac00000000"
    }, 
    {
      "txid": "49bf08d322c57f51209d37d8c43db906c914d4198af2d24d7e8ac04d7daede5b",
      "hash": "49bf08d322c57f51209d37d8c43db906c914d4198af2d24d7e8ac04d7daede5b",
      "version": 1,
      "size": 225,
      "vsize": 225,
      "locktime": 0,
      "vin": [
        {
          "txid": "6c48e6bf45c749356a2c69b41fc110c6050e51ace2c45f1d542312bf6982b3ef",
          "vout": 2,
          "scriptSig": {
            "asm": "3044022007072d732e32ec2e3923052a790c7fc936f51d92d942bfb8304d185bb3754aae022009f5b9a27007aba3a599ba79e1d1951f586d330e71131c690f30f847fc332c2b[ALL] 0328c9ae635abf580c261c44815dc1aac309e16ff26250525b7e99951369d2b8c7",
            "hex": "473044022007072d732e32ec2e3923052a790c7fc936f51d92d942bfb8304d185bb3754aae022009f5b9a27007aba3a599ba79e1d1951f586d330e71131c690f30f847fc332c2b01210328c9ae635abf580c261c44815dc1aac309e16ff26250525b7e99951369d2b8c7"
          },
          "sequence": 4294967295
        }
      ],
      "vout": [
        {
          "value": 0.25656328,
          "n": 0,
          "scriptPubKey": {
            "asm": "OP_DUP OP_HASH160 da3480f008ba413d27c39f204361a9c7b2c786c8 OP_EQUALVERIFY OP_CHECKSIG",
            "hex": "76a914da3480f008ba413d27c39f204361a9c7b2c786c888ac",
            "reqSigs": 1,
            "type": "pubkeyhash",
            "addresses": [
              "Lf7iU3t4ZU5XJ4Mzgv9pjwrETnWKjzGjZ9"
            ]
          }
        }, 
        {
          "value": 5.84358944,
          "n": 1,
          "scriptPubKey": {
            "asm": "OP_DUP OP_HASH160 c6e3836c2f4cd8f9c53e32813ded99ac0ce001f1 OP_EQUALVERIFY OP_CHECKSIG",
            "hex": "76a914c6e3836c2f4cd8f9c53e32813ded99ac0ce001f188ac",
            "reqSigs": 1,
            "type": "pubkeyhash",
            "addresses": [
              "LdMac6qdwFnBCVXN96dvoPjzbcE36gzs64"
            ]
          }
        }
      ],
      "hex": "0100000001efb38269bf1223541d5fc4e2ac510e05c610c11fb4692c6a3549c745bfe6486c020000006a473044022007072d732e32ec2e3923052a790c7fc936f51d92d942bfb8304d185bb3754aae022009f5b9a27007aba3a599ba79e1d1951f586d330e71131c690f30f847fc332c2b01210328c9ae635abf580c261c44815dc1aac309e16ff26250525b7e99951369d2b8c7ffffffff02087c8701000000001976a914da3480f008ba413d27c39f204361a9c7b2c786c888ac209cd422000000001976a914c6e3836c2f4cd8f9c53e32813ded99ac0ce001f188ac00000000"
    }, 
    {
      "txid": "4c067889959cd40d1acde745d45569d61fa2d5cc24700f79d137bb54d9d748be",
      "hash": "469858bad328599612aed0cec42d9b19084990b1d4d775acbf6765312b6a9f70",
      "version": 1,
      "size": 249,
      "vsize": 168,
      "locktime": 0,
      "vin": [
        {
          "txid": "53d86e7de8439a01b59a0f1dfb6a7ebd8e3721e3e0cafc9df366f9d9d845494c",
          "vout": 1,
          "scriptSig": {
            "asm": "00141e22a4787399d9a7c1150f2a097c9c2153fb68a3",
            "hex": "1600141e22a4787399d9a7c1150f2a097c9c2153fb68a3"
          },
          "txinwitness": [
            "304402204ac2dedc6ee2ddf9ce9f18c59cfd7f1a113a99283b8fda604c23d4cfa44702c2022004db1c170f79dea706dd58fa3d18139a52902cec9b9a7429806a588b93f2da7f01", 
            "02758248200da4a7023003a8bc751f03b70f7f4b1da3066cf7a39b23fd83a72bd1"
          ],
          "sequence": 4294967295
        }
      ],
      "vout": [
        {
          "value": 59.26079057,
          "n": 0,
          "scriptPubKey": {
            "asm": "OP_DUP OP_HASH160 8e459a71b5d0752ce55f6e02028dd8f8212dc1c6 OP_EQUALVERIFY OP_CHECKSIG",
            "hex": "76a9148e459a71b5d0752ce55f6e02028dd8f8212dc1c688ac",
            "reqSigs": 1,
            "type": "pubkeyhash",
            "addresses": [
              "LYCDbaHzBnBmBPVxb7pxtnGEapuCLkKZY3"
            ]
          }
        }, 
        {
          "value": 282.04047355,
          "n": 1,
          "scriptPubKey": {
            "asm": "OP_HASH160 1bd8f3afee8109e198159edc4a1f24f1baef87ef OP_EQUAL",
            "hex": "a9141bd8f3afee8109e198159edc4a1f24f1baef87ef87",
            "reqSigs": 1,
            "type": "scripthash",
            "addresses": [
              "MASQNh6XNj5fZAbqLKsUzkWWZRp1AL93Vs"
            ]
          }
        }
      ],
      "hex": "010000000001014c4945d8d9f966f39dfccae0e321378ebd7e6afb1d0f9ab5019a43e87d6ed85301000000171600141e22a4787399d9a7c1150f2a097c9c2153fb68a3ffffffff0251ca3861010000001976a9148e459a71b5d0752ce55f6e02028dd8f8212dc1c688acfb9b17910600000017a9141bd8f3afee8109e198159edc4a1f24f1baef87ef870247304402204ac2dedc6ee2ddf9ce9f18c59cfd7f1a113a99283b8fda604c23d4cfa44702c2022004db1c170f79dea706dd58fa3d18139a52902cec9b9a7429806a588b93f2da7f012102758248200da4a7023003a8bc751f03b70f7f4b1da3066cf7a39b23fd83a72bd100000000"
    }, 
    {
      "txid": "4307bb4c869ee3557b7ab4b89ad5d4153725be611edc4373836156a729034b58",
      "hash": "4307bb4c869ee3557b7ab4b89ad5d4153725be611edc4373836156a729034b58",
      "version": 1,
      "size": 371,
      "vsize": 371,
      "locktime": 0,
      "vin": [
        {
          "txid": "bb297d186fda31a798ca71257e5e650eb77a6d5ad30208fda1c95a22d1292ccc",
          "vout": 0,
          "scriptSig": {
            "asm": "3044022030fb87b32528d1c43e6c3cb5a056d8b2fa75aeb31fb37da398b10d1b1bf273c002204fd03a8f11cf5e2271211db88f3d34e8fac9445e3619faa01bbd8ef1f5cb9fbd[ALL] 02d21d86b3ce72ed5a66922ccb5a5a4fdeb0306078e953b0c650101c57cde43851",
            "hex": "473044022030fb87b32528d1c43e6c3cb5a056d8b2fa75aeb31fb37da398b10d1b1bf273c002204fd03a8f11cf5e2271211db88f3d34e8fac9445e3619faa01bbd8ef1f5cb9fbd012102d21d86b3ce72ed5a66922ccb5a5a4fdeb0306078e953b0c650101c57cde43851"
          },
          "sequence": 4294967295
        }, 
        {
          "txid": "38773f98a3f0b7bf17f67a57fa6bcfc692cfa5a64267e339bd6b6296a1dd118d",
          "vout": 1,
          "scriptSig": {
            "asm": "3045022100e04eec42a178411a43af9f3fe2b07820e94b57b9a73419d26124264f67f1226702205f154a2b5f1ccf661106cdcb7c748fca73d80937aa705f5cd4f5d3f002f2b2ab[ALL] 030c154c9162c426bbe6ddcb6d09e60bb95c52673d07d7ffa77564485921f59895",
            "hex": "483045022100e04eec42a178411a43af9f3fe2b07820e94b57b9a73419d26124264f67f1226702205f154a2b5f1ccf661106cdcb7c748fca73d80937aa705f5cd4f5d3f002f2b2ab0121030c154c9162c426bbe6ddcb6d09e60bb95c52673d07d7ffa77564485921f59895"
          },
          "sequence": 4294967295
        }
      ],
      "vout": [
        {
          "value": 0.04162605,
          "n": 0,
          "scriptPubKey": {
            "asm": "OP_DUP OP_HASH160 8b818ebe975129d9f0f519ae719f8a1667200ec7 OP_EQUALVERIFY OP_CHECKSIG",
            "hex": "76a9148b818ebe975129d9f0f519ae719f8a1667200ec788ac",
            "reqSigs": 1,
            "type": "pubkeyhash",
            "addresses": [
              "LXwbPhNyCigwQJPa6A7rbzGBMy82NVPuys"
            ]
          }
        }, 
        {
          "value": 1.81500000,
          "n": 1,
          "scriptPubKey": {
            "asm": "OP_HASH160 a11b6d00c0e7aae6be4a4e4c5de6d40b7d6bb51d OP_EQUAL",
            "hex": "a914a11b6d00c0e7aae6be4a4e4c5de6d40b7d6bb51d87",
            "reqSigs": 1,
            "type": "scripthash",
            "addresses": [
              "MNb1stiCHTwiNR5YPM6xt1C4bGSD7MuBKh"
            ]
          }
        }
      ],
      "hex": "0100000002cc2c29d1225ac9a1fd0802d35a6d7ab70e655e7e2571ca98a731da6f187d29bb000000006a473044022030fb87b32528d1c43e6c3cb5a056d8b2fa75aeb31fb37da398b10d1b1bf273c002204fd03a8f11cf5e2271211db88f3d34e8fac9445e3619faa01bbd8ef1f5cb9fbd012102d21d86b3ce72ed5a66922ccb5a5a4fdeb0306078e953b0c650101c57cde43851ffffffff8d11dda196626bbd39e36742a6a5cf92c6cf6bfa577af617bfb7f0a3983f7738010000006b483045022100e04eec42a178411a43af9f3fe2b07820e94b57b9a73419d26124264f67f1226702205f154a2b5f1ccf661106cdcb7c748fca73d80937aa705f5cd4f5d3f002f2b2ab0121030c154c9162c426bbe6ddcb6d09e60bb95c52673d07d7ffa77564485921f59895ffffffff022d843f00000000001976a9148b818ebe975129d9f0f519ae719f8a1667200ec788ac6078d10a0000000017a914a11b6d00c0e7aae6be4a4e4c5de6d40b7d6bb51d8700000000"
    }, 
    {
      "txid": "3c9d9bbe8fb8ff3c3612fd1cb8dfe0a4847900efec14eaeba31e2e2ce3cae73f",
      "hash": "3c9d9bbe8fb8ff3c3612fd1cb8dfe0a4847900efec14eaeba31e2e2ce3cae73f",
      "version": 2,
      "size": 226,
      "vsize": 226,
      "locktime": 1359897,
      "vin": [
        {
          "txid": "7dedb4be22cf5b442dc2441bfebe7fc3fd0a4b280b59cdee38a7a1680d42a170",
          "vout": 1,
          "scriptSig": {
            "asm": "3045022100cb0860f4f5772a614f7445829a6a8d3fded8fd9124f345def33b27d59d44e8be022026a335958169a387505960d9c0a714708eca403c674643eabdd8cc0b15b89d60[ALL] 039c6080b347a9245beb324c0a717d32b2b15c49909fb07153f2cecbd6490612e3",
            "hex": "483045022100cb0860f4f5772a614f7445829a6a8d3fded8fd9124f345def33b27d59d44e8be022026a335958169a387505960d9c0a714708eca403c674643eabdd8cc0b15b89d600121039c6080b347a9245beb324c0a717d32b2b15c49909fb07153f2cecbd6490612e3"
          },
          "sequence": 4294967294
        }
      ],
      "vout": [
        {
          "value": 295.34491991,
          "n": 0,
          "scriptPubKey": {
            "asm": "OP_DUP OP_HASH160 b537f3a6ebf6f987a6b6b3e3725fa30f4345ef03 OP_EQUALVERIFY OP_CHECKSIG",
            "hex": "76a914b537f3a6ebf6f987a6b6b3e3725fa30f4345ef0388ac",
            "reqSigs": 1,
            "type": "pubkeyhash",
            "addresses": [
              "Lbk9bXm5CCRm11BiUFGKwogB8vJaY723H8"
            ]
          }
        }, 
        {
          "value": 0.20000000,
          "n": 1,
          "scriptPubKey": {
            "asm": "OP_DUP OP_HASH160 32f2829760916261d3715e145f73a502f721e0e9 OP_EQUALVERIFY OP_CHECKSIG",
            "hex": "76a91432f2829760916261d3715e145f73a502f721e0e988ac",
            "reqSigs": 1,
            "type": "pubkeyhash",
            "addresses": [
              "LPsLZhjvjq65eCgeSu5YJsxTScmC9MTC49"
            ]
          }
        }
      ],
      "hex": "020000000170a1420d68a1a738eecd590b284b0afdc37fbefe1b44c22d445bcf22beb4ed7d010000006b483045022100cb0860f4f5772a614f7445829a6a8d3fded8fd9124f345def33b27d59d44e8be022026a335958169a387505960d9c0a714708eca403c674643eabdd8cc0b15b89d600121039c6080b347a9245beb324c0a717d32b2b15c49909fb07153f2cecbd6490612e3feffffff02579564e0060000001976a914b537f3a6ebf6f987a6b6b3e3725fa30f4345ef0388ac002d3101000000001976a91432f2829760916261d3715e145f73a502f721e0e988ac19c01400"
    }
  ],
  "time": 1517346265,
  "mediantime": 1517345621,
  "nonce": 1645192521,
  "bits": "1a042eae",
  "difficulty": 4011378.762614286,
  "chainwork": "0000000000000000000000000000000000000000000000346f7bf7cf6f9a9738",
  "previousblockhash": "9abcd04489e5b7642302a96f45a9fd148ab2b7ea12fd033d1270bbbc6ec9ccaf",
  "nextblockhash": "62e183d003e38f5a150d6747de3443c0ba41020c268a840d6a47e85f5fe691b0"
}
