{
  "hash": "754818612ee1a3e8f486d3cb2f984c7d801bbf1961b6d170d05deeef2af903c9",
  "confirmations": 1268,
  "strippedsize": 255,
  "size": 255,
  "weight": 1020,
  "height": 1359726,
  "version": 536870912,
  "versionHex": "20000000",
  "merkleroot": "c49a26861e547cda20f5686a63dabf2074d8f2e2a95813e0e703ebdb3bf2a988",
  "tx": [
    {
      "txid": "c49a26861e547cda20f5686a63dabf2074d8f2e2a95813e0e703ebdb3bf2a988",
      "hash": "c49a26861e547cda20f5686a63dabf2074d8f2e2a95813e0e703ebdb3bf2a988",
      "version": 1,
      "size": 174,
      "vsize": 174,
      "locktime": 0,
      "vin": [
        {
          "coinbase": "036ebf141c4d696e656420627920416e74506f6f6c20626a341e205a70849b1001fabe6d6dd256335185e1846169c215dcbd4f1aa649ed8c326b3f3b80755880d27dc879250400000000000000ba200000000000001e000000",
          "sequence": 4294967295
        }
      ],
      "vout": [
        {
          "value": 25.00000000,
          "n": 0,
          "scriptPubKey": {
            "asm": "OP_DUP OP_HASH160 0ff3ccc5e8be88afe24b5d634e5852d474dbdff1 OP_EQUALVERIFY OP_CHECKSIG",
            "hex": "76a9140ff3ccc5e8be88afe24b5d634e5852d474dbdff188ac",
            "reqSigs": 1,
            "type": "pubkeyhash",
            "addresses": [
              "LLgJTbzZMsRTCUF1NtvvL9SR1a4pVieW89"
            ]
          }
        }
      ],
      "hex": "01000000010000000000000000000000000000000000000000000000000000000000000000ffffffff59036ebf141c4d696e656420627920416e74506f6f6c20626a341e205a70849b1001fabe6d6dd256335185e1846169c215dcbd4f1aa649ed8c326b3f3b80755880d27dc879250400000000000000ba200000000000001e000000ffffffff0100f90295000000001976a9140ff3ccc5e8be88afe24b5d634e5852d474dbdff188ac00000000"
    }
  ],
  "time": 1517323419,
  "mediantime": 1517323072,
  "nonce": 686297008,
  "bits": "1a042eae",
  "difficulty": 4011378.762614286,
  "chainwork": "000000000000000000000000000000000000000000000034461eafe439060a5e",
  "previousblockhash": "a1c916b8813561395abffd430ca4b6363e120b02015c101d6592a4713ae3061b",
  "nextblockhash": "50eb0ee0a517b3359e3c938e992629f611c92190f6819f7886d4923bf9d79b22"
}
