{
  "hash": "758a6c35fccbf4699feba97894677c87441ba5810116444cb16288880f8c896f",
  "confirmations": 3500,
  "strippedsize": 2590,
  "size": 2626,
  "weight": 10396,
  "height": 1357495,
  "version": 536870912,
  "versionHex": "20000000",
  "merkleroot": "accb0ef4ed1ea5916ee8d4f550f4ecb51bbbeca68b9cc185ff7d2c5d137b5bbd",
  "tx": [
    {
      "txid": "09fc68936b81e91ce2df7786809d5c0e64583969a9778c2e217d13472366293c",
      "hash": "72a091c45ec8fc99fd19db8f78fb1504856592de9ae50edced27adcb29637abf",
      "version": 1,
      "size": 236,
      "vsize": 209,
      "locktime": 0,
      "vin": [
        {
          "coinbase": "03b7b614045a6bb9542cfabe6d6d481ef91741b4421b9c7ebc3b0492a36420612ffc1a01a2e637a755b2af2adde34000000000000000042f4c502f08220092280e000000",
          "sequence": 4294967295
        }
      ],
      "vout": [
        {
          "value": 25.00245200,
          "n": 0,
          "scriptPubKey": {
            "asm": "OP_DUP OP_HASH160 57757ed2ecf2052ff3126c397aca7defb9ca2cec OP_EQUALVERIFY OP_CHECKSIG",
            "hex": "76a91457757ed2ecf2052ff3126c397aca7defb9ca2cec88ac",
            "reqSigs": 1,
            "type": "pubkeyhash",
            "addresses": [
              "LTCPodGk5FwcJaRzH9yKnwicxzFUbxp6tN"
            ]
          }
        }, 
        {
          "value": 0.00000000,
          "n": 1,
          "scriptPubKey": {
            "asm": "OP_RETURN aa21a9ed9dd7ce03bf0e261da3cfeb5a09f82b013c2c8da92b908d8d76e46aa15055bc34",
            "hex": "6a24aa21a9ed9dd7ce03bf0e261da3cfeb5a09f82b013c2c8da92b908d8d76e46aa15055bc34",
            "type": "nulldata"
          }
        }
      ],
      "hex": "010000000001010000000000000000000000000000000000000000000000000000000000000000ffffffff4403b7b614045a6bb9542cfabe6d6d481ef91741b4421b9c7ebc3b0492a36420612ffc1a01a2e637a755b2af2adde34000000000000000042f4c502f08220092280e000000ffffffff02d0b60695000000001976a91457757ed2ecf2052ff3126c397aca7defb9ca2cec88ac0000000000000000266a24aa21a9ed9dd7ce03bf0e261da3cfeb5a09f82b013c2c8da92b908d8d76e46aa15055bc340120000000000000000000000000000000000000000000000000000000000000000000000000"
    }, 
    {
      "txid": "b84759a2f5ba69cd336614294c6e16e364fd6ebc566d6305b5a332599e1033da",
      "hash": "b84759a2f5ba69cd336614294c6e16e364fd6ebc566d6305b5a332599e1033da",
      "version": 1,
      "size": 191,
      "vsize": 191,
      "locktime": 0,
      "vin": [
        {
          "txid": "6adb71cc23e1759792171a5ea555b9d26f765ce56917725ac82e6a832c6df772",
          "vout": 1,
          "scriptSig": {
            "asm": "3044022048672baa6614aa12b91a7322c9283d638c6db183cdba873b0056c99ba4f5b78b02201055fe183c6415d882a1a334a7a4ccc671198ba17186b365128cf3e2c3d9b6af[ALL] 0369c0f2a367303831b7f17739739b8f421a231499fc7508f80d2480f138514171",
            "hex": "473044022048672baa6614aa12b91a7322c9283d638c6db183cdba873b0056c99ba4f5b78b02201055fe183c6415d882a1a334a7a4ccc671198ba17186b365128cf3e2c3d9b6af01210369c0f2a367303831b7f17739739b8f421a231499fc7508f80d2480f138514171"
          },
          "sequence": 4294967295
        }
      ],
      "vout": [
        {
          "value": 4.00900000,
          "n": 0,
          "scriptPubKey": {
            "asm": "OP_DUP OP_HASH160 0bcf77d3eeb9cf74e34a584698c439901ca52d21 OP_EQUALVERIFY OP_CHECKSIG",
            "hex": "76a9140bcf77d3eeb9cf74e34a584698c439901ca52d2188ac",
            "reqSigs": 1,
            "type": "pubkeyhash",
            "addresses": [
              "LLJQETWbzbeHifdb2PYRs3thFVo33K1tLg"
            ]
          }
        }
      ],
      "hex": "010000000172f76d2c836a2ec85a721769e55c766fd2b955a55e1a17929775e123cc71db6a010000006a473044022048672baa6614aa12b91a7322c9283d638c6db183cdba873b0056c99ba4f5b78b02201055fe183c6415d882a1a334a7a4ccc671198ba17186b365128cf3e2c3d9b6af01210369c0f2a367303831b7f17739739b8f421a231499fc7508f80d2480f138514171ffffffff01a03fe517000000001976a9140bcf77d3eeb9cf74e34a584698c439901ca52d2188ac00000000"
    }, 
    {
      "txid": "3ab391fc809f437fc083996b9b47fecbaaa48c27640782c94ad58f6ac85b953f",
      "hash": "3ab391fc809f437fc083996b9b47fecbaaa48c27640782c94ad58f6ac85b953f",
      "version": 1,
      "size": 226,
      "vsize": 226,
      "locktime": 0,
      "vin": [
        {
          "txid": "8cd688e26202b4e054264e63baa7129476a6e5752682f4cd077092d591f32cb0",
          "vout": 26,
          "scriptSig": {
            "asm": "3045022100939cd7963b197ffce5723ebac14b96a7f7e857050e3ee0e9ae616599f744a0e50220403a0e192bf71ccf5de3660bced0fbf9b71d47a2b016750188ba98df3fb65df5[ALL] 038873ebe14783f212c25affdd700ffae84d694425d519a92fa1cc3dc1e81dc477",
            "hex": "483045022100939cd7963b197ffce5723ebac14b96a7f7e857050e3ee0e9ae616599f744a0e50220403a0e192bf71ccf5de3660bced0fbf9b71d47a2b016750188ba98df3fb65df50121038873ebe14783f212c25affdd700ffae84d694425d519a92fa1cc3dc1e81dc477"
          },
          "sequence": 4294967295
        }
      ],
      "vout": [
        {
          "value": 0.88548360,
          "n": 0,
          "scriptPubKey": {
            "asm": "OP_DUP OP_HASH160 dae52aba34de8d06811d82ee2684a2f2e6135147 OP_EQUALVERIFY OP_CHECKSIG",
            "hex": "76a914dae52aba34de8d06811d82ee2684a2f2e613514788ac",
            "reqSigs": 1,
            "type": "pubkeyhash",
            "addresses": [
              "LfBN6pxX3LXm5svJHAaUiyVurnEGDaLjji"
            ]
          }
        }, 
        {
          "value": 5.00000000,
          "n": 1,
          "scriptPubKey": {
            "asm": "OP_DUP OP_HASH160 d6a7da27476c2aae4e76d56e83cf7dc123e74c14 OP_EQUALVERIFY OP_CHECKSIG",
            "hex": "76a914d6a7da27476c2aae4e76d56e83cf7dc123e74c1488ac",
            "reqSigs": 1,
            "type": "pubkeyhash",
            "addresses": [
              "LenwwqXDtssRy3V8hCANi9xkQbuE8KNkpQ"
            ]
          }
        }
      ],
      "hex": "0100000001b02cf391d5927007cdf4822675e5a6769412a7ba634e2654e0b40262e288d68c1a0000006b483045022100939cd7963b197ffce5723ebac14b96a7f7e857050e3ee0e9ae616599f744a0e50220403a0e192bf71ccf5de3660bced0fbf9b71d47a2b016750188ba98df3fb65df50121038873ebe14783f212c25affdd700ffae84d694425d519a92fa1cc3dc1e81dc477ffffffff0208244705000000001976a914dae52aba34de8d06811d82ee2684a2f2e613514788ac0065cd1d000000001976a914d6a7da27476c2aae4e76d56e83cf7dc123e74c1488ac00000000"
    }, 
    {
      "txid": "ca2a27a8c18a2f39a774e461d15aa8fe1ffa2fd47f7b6d5ba88590690421ea48",
      "hash": "ca2a27a8c18a2f39a774e461d15aa8fe1ffa2fd47f7b6d5ba88590690421ea48",
      "version": 1,
      "size": 226,
      "vsize": 226,
      "locktime": 0,
      "vin": [
        {
          "txid": "c17a928da2c4640c49f8cce36f306a8f87852785525c220b10d5e0e5e7b6f3d9",
          "vout": 1,
          "scriptSig": {
            "asm": "3045022100c16b92738dee9be8f4167787c2d3510d9363c7d3a79c160fb4f9f53d951ec51602205ea1311375d465b6f7a4341a031eab580d1ed6218ac8f6c6f4aa1ed3b2a756e7[ALL] 025b97c8c7b6adfad9156ce857b6ff92e85b5314f28d1fad44a1545cc3030e6277",
            "hex": "483045022100c16b92738dee9be8f4167787c2d3510d9363c7d3a79c160fb4f9f53d951ec51602205ea1311375d465b6f7a4341a031eab580d1ed6218ac8f6c6f4aa1ed3b2a756e70121025b97c8c7b6adfad9156ce857b6ff92e85b5314f28d1fad44a1545cc3030e6277"
          },
          "sequence": 4294967295
        }
      ],
      "vout": [
        {
          "value": 16.15000000,
          "n": 0,
          "scriptPubKey": {
            "asm": "OP_DUP OP_HASH160 e75566460376183be7d060c73dea63249edbde6f OP_EQUALVERIFY OP_CHECKSIG",
            "hex": "76a914e75566460376183be7d060c73dea63249edbde6f88ac",
            "reqSigs": 1,
            "type": "pubkeyhash",
            "addresses": [
              "LgK8fBq6kM9rod9ZfkdiSjxJe2xAFhXZms"
            ]
          }
        }, 
        {
          "value": 29.80118894,
          "n": 1,
          "scriptPubKey": {
            "asm": "OP_DUP OP_HASH160 9b7453b0806675dfc4b886dff30519afbb53ff66 OP_EQUALVERIFY OP_CHECKSIG",
            "hex": "76a9149b7453b0806675dfc4b886dff30519afbb53ff6688ac",
            "reqSigs": 1,
            "type": "pubkeyhash",
            "addresses": [
              "LZPvMUvbi8XPFEKCn5Ygoynq3Xj5vpGY94"
            ]
          }
        }
      ],
      "hex": "0100000001d9f3b6e7e5e0d5100b225c52852785878f6a306fe3ccf8490c64c4a28d927ac1010000006b483045022100c16b92738dee9be8f4167787c2d3510d9363c7d3a79c160fb4f9f53d951ec51602205ea1311375d465b6f7a4341a031eab580d1ed6218ac8f6c6f4aa1ed3b2a756e70121025b97c8c7b6adfad9156ce857b6ff92e85b5314f28d1fad44a1545cc3030e6277ffffffff02c0f14260000000001976a914e75566460376183be7d060c73dea63249edbde6f88ac6e01a1b1000000001976a9149b7453b0806675dfc4b886dff30519afbb53ff6688ac00000000"
    }, 
    {
      "txid": "09d508b538043a5b0c954fa1425aba028c4bb363088530e00a58e2ff3a583a44",
      "hash": "09d508b538043a5b0c954fa1425aba028c4bb363088530e00a58e2ff3a583a44",
      "version": 1,
      "size": 1666,
      "vsize": 1666,
      "locktime": 0,
      "vin": [
        {
          "txid": "8bf457584d63b4725ef801574f975974605ddc7193815261d403701d5528f044",
          "vout": 4,
          "scriptSig": {
            "asm": "3045022100afcd67160c7d321d7d7a4248e14cd57c21b6ef80678a40b47a300568ff2f8ac3022049497d20f6dbfcb941e1f1fbcf5e536512bf720d98ab710c7fcb9b9c4d2749eb[ALL] 021de3cb03fe752dbbc88076f63cebc9989704289a2710ed7faeeddcf29ac97ec9",
            "hex": "483045022100afcd67160c7d321d7d7a4248e14cd57c21b6ef80678a40b47a300568ff2f8ac3022049497d20f6dbfcb941e1f1fbcf5e536512bf720d98ab710c7fcb9b9c4d2749eb0121021de3cb03fe752dbbc88076f63cebc9989704289a2710ed7faeeddcf29ac97ec9"
          },
          "sequence": 4294967295
        }, 
        {
          "txid": "cff604d6608fec70ceaa3a229aa5cab2619d828522aa7d517a1a4b44fd5abb0e",
          "vout": 5,
          "scriptSig": {
            "asm": "3045022100a5ef7f538bfc6f30048fd25751aea519d9f0980adda26756444006e873f6cedf02202ac6d272c9fb3eedbf5e116d8cc718381ef1ce022130c8bbce9d657c9002107c[ALL] 02c897033df6e75a050063fc93de1944767853d6b5a6428c217436cb0608eee78e",
            "hex": "483045022100a5ef7f538bfc6f30048fd25751aea519d9f0980adda26756444006e873f6cedf02202ac6d272c9fb3eedbf5e116d8cc718381ef1ce022130c8bbce9d657c9002107c012102c897033df6e75a050063fc93de1944767853d6b5a6428c217436cb0608eee78e"
          },
          "sequence": 4294967295
        }, 
        {
          "txid": "c8e777c8d5020760aa8fd6a607b2c1050ebb0cea5098ec831829598e3d8d4322",
          "vout": 3,
          "scriptSig": {
            "asm": "304402206bb6e4a89f70e0e06c98b8a0512cc0dd1e3f4efacafa0216725e0a98720fa9f9022014bfb94f1887d20b975c3462820667b017a2e70aa427e38c3b093a98c1ae158e[ALL] 02d972017188ddc1bf1c4def19458c2509de5fbecef5c38bd12ef48a95334abe6e",
            "hex": "47304402206bb6e4a89f70e0e06c98b8a0512cc0dd1e3f4efacafa0216725e0a98720fa9f9022014bfb94f1887d20b975c3462820667b017a2e70aa427e38c3b093a98c1ae158e012102d972017188ddc1bf1c4def19458c2509de5fbecef5c38bd12ef48a95334abe6e"
          },
          "sequence": 4294967295
        }, 
        {
          "txid": "daf77aab6a88eee3551c2ce32ca91bc2264053cf560d07a55f653ef77c80adea",
          "vout": 58,
          "scriptSig": {
            "asm": "30440220434173a6253d83d0a732de18a286fedeadf01f7310c18e48eedf70c21d2340c00220255c8f10f9942c325a98f5f8bbf3baa1d422ba30f475fbab2ae97f05fadbc967[ALL] 021828ceb254b77ccd676e7f579dbe030b2fe9241bc364ceccbdd7c094ce59e1aa",
            "hex": "4730440220434173a6253d83d0a732de18a286fedeadf01f7310c18e48eedf70c21d2340c00220255c8f10f9942c325a98f5f8bbf3baa1d422ba30f475fbab2ae97f05fadbc9670121021828ceb254b77ccd676e7f579dbe030b2fe9241bc364ceccbdd7c094ce59e1aa"
          },
          "sequence": 4294967295
        }, 
        {
          "txid": "0ec8ffb0bd271bf16415f42c64de6e2bf47c39c31f52d88b3f1b34f51d19cfa4",
          "vout": 0,
          "scriptSig": {
            "asm": "30450221008ed35fee2b27be8814ffbd42c777a78a7b12b2cb4a234eea3e4d80630ab23b2902203d77be189a710308eb756705b2d2d08330741fd28a14a13f6c80599167d987ba[ALL] 03452568554a3dfa12a03fc4e035f9e587f8c5bcae2f6c715b73b23b380e9ad7d7",
            "hex": "4830450221008ed35fee2b27be8814ffbd42c777a78a7b12b2cb4a234eea3e4d80630ab23b2902203d77be189a710308eb756705b2d2d08330741fd28a14a13f6c80599167d987ba012103452568554a3dfa12a03fc4e035f9e587f8c5bcae2f6c715b73b23b380e9ad7d7"
          },
          "sequence": 4294967295
        }, 
        {
          "txid": "e523ad4455f50491b93f435995c1b5d57dd7ec0fc6bb5cb0c2b9354158ef20ae",
          "vout": 0,
          "scriptSig": {
            "asm": "3045022100b4c19f489d0c50be56011a112e9c41371d24dc26859be5f919ba2ccd48fafde10220367ef377cd7d19f468d5e4aed9ecf2870169937fb94c21cb6062a0a3423953f5[ALL] 03f0727b69e878b04a5d3707e9c863ead73d15e54b91f7e8263e7e7995c95e79ad",
            "hex": "483045022100b4c19f489d0c50be56011a112e9c41371d24dc26859be5f919ba2ccd48fafde10220367ef377cd7d19f468d5e4aed9ecf2870169937fb94c21cb6062a0a3423953f5012103f0727b69e878b04a5d3707e9c863ead73d15e54b91f7e8263e7e7995c95e79ad"
          },
          "sequence": 4294967295
        }, 
        {
          "txid": "b62860a8ddd98b126d6a117eadeff948b46ae436efa91f777f48551237ea5e9d",
          "vout": 19,
          "scriptSig": {
            "asm": "304402203c42a55408b2d620d798f788a39c0fbc71cbcd7feb7284c9df990201fc5fc1a302200e81725b178f4170a9da69ecf0f06391a439bbcf2de750ab74e8dd9fb270f5f4[ALL] 0290d684b3e8c3c8b8231468a5a611a9056aa2434305ea8f315a9e05ef0754abec",
            "hex": "47304402203c42a55408b2d620d798f788a39c0fbc71cbcd7feb7284c9df990201fc5fc1a302200e81725b178f4170a9da69ecf0f06391a439bbcf2de750ab74e8dd9fb270f5f401210290d684b3e8c3c8b8231468a5a611a9056aa2434305ea8f315a9e05ef0754abec"
          },
          "sequence": 4294967295
        }, 
        {
          "txid": "0c3ebdb2e5ee9d5296d9d92bd04329146b3b6f960a4255795e2a47233fd4e138",
          "vout": 1,
          "scriptSig": {
            "asm": "304402202fa794f364d37a3ec7d8f16de0c83f7d7fd6da996c02ec8f24ec9754ffa81ba4022004166a5c873fd9918498e31bea491ab1d399446a8f9e02e55cb70a99e37e9ba5[ALL] 030fb1f0db39823fb210c25ba028b0c1cfcc55e6727cdb5140cb0f99a6ec140040",
            "hex": "47304402202fa794f364d37a3ec7d8f16de0c83f7d7fd6da996c02ec8f24ec9754ffa81ba4022004166a5c873fd9918498e31bea491ab1d399446a8f9e02e55cb70a99e37e9ba50121030fb1f0db39823fb210c25ba028b0c1cfcc55e6727cdb5140cb0f99a6ec140040"
          },
          "sequence": 4294967295
        }, 
        {
          "txid": "cd63d453ced1b2cdc8492b45be4a7f6b3923285448b3a61462b173e0dbbae97e",
          "vout": 0,
          "scriptSig": {
            "asm": "30440220767b1f858a4a716085538b876a499dc6ac415dc246185d6877454c2c4566cd5302205c1e64621983faeb8e5f23b2563cd26b2b6a6e8a967c3e389ad763153943546f[ALL] 02c9083d5f2982c1c64927fe36860a2d091207c3dcb9ece443a86429e595ead884",
            "hex": "4730440220767b1f858a4a716085538b876a499dc6ac415dc246185d6877454c2c4566cd5302205c1e64621983faeb8e5f23b2563cd26b2b6a6e8a967c3e389ad763153943546f012102c9083d5f2982c1c64927fe36860a2d091207c3dcb9ece443a86429e595ead884"
          },
          "sequence": 4294967295
        }, 
        {
          "txid": "99014cede725d4770c4b8d30a9359b99d3ad5903d5a3e1e65a7dd99b27be954d",
          "vout": 0,
          "scriptSig": {
            "asm": "30440220411d5741c10526077b2af93e2bf713f6e35730f63dbfa24859f875c6d8335b2602207acd6cd42c9f65e4bc9f759d8f3c7dd7f0986bd443942f577f7cc9cae0c52e63[ALL] 0260213d97cac3ac59cf379a9871517aa1da6dad585d7e30af8ffcc752fa1bc083",
            "hex": "4730440220411d5741c10526077b2af93e2bf713f6e35730f63dbfa24859f875c6d8335b2602207acd6cd42c9f65e4bc9f759d8f3c7dd7f0986bd443942f577f7cc9cae0c52e6301210260213d97cac3ac59cf379a9871517aa1da6dad585d7e30af8ffcc752fa1bc083"
          },
          "sequence": 4294967295
        }, 
        {
          "txid": "10cf9308500aa4c0d7b69de2484ef5261d7653778d9031a9708998372aa07df3",
          "vout": 0,
          "scriptSig": {
            "asm": "30450221008626d8032ba50d6d2c1f04ba589cf10f0f7f22c3c39a724408389938a5b1927b02204666ff4b853f6ca16af08ecc8e7dc6e259b87d1bfa8aad46aaec6d308d8d58cf[ALL] 027e50afd4760cdd39b653a4455e83ee1b5a9b5bf254ac1e508f33e21ecdd02aeb",
            "hex": "4830450221008626d8032ba50d6d2c1f04ba589cf10f0f7f22c3c39a724408389938a5b1927b02204666ff4b853f6ca16af08ecc8e7dc6e259b87d1bfa8aad46aaec6d308d8d58cf0121027e50afd4760cdd39b653a4455e83ee1b5a9b5bf254ac1e508f33e21ecdd02aeb"
          },
          "sequence": 4294967295
        }
      ],
      "vout": [
        {
          "value": 66.66290888,
          "n": 0,
          "scriptPubKey": {
            "asm": "OP_DUP OP_HASH160 6c2614c7b45ef8dfa8dc83e6739ddbe201d05ab0 OP_EQUALVERIFY OP_CHECKSIG",
            "hex": "76a9146c2614c7b45ef8dfa8dc83e6739ddbe201d05ab088ac",
            "reqSigs": 1,
            "type": "pubkeyhash",
            "addresses": [
              "LV5nrreyVZJVvptA9PZSD4ViegKh7Qa8MA"
            ]
          }
        }
      ],
      "hex": "010000000b44f028551d7003d46152819371dc5d607459974f5701f85e72b4634d5857f48b040000006b483045022100afcd67160c7d321d7d7a4248e14cd57c21b6ef80678a40b47a300568ff2f8ac3022049497d20f6dbfcb941e1f1fbcf5e536512bf720d98ab710c7fcb9b9c4d2749eb0121021de3cb03fe752dbbc88076f63cebc9989704289a2710ed7faeeddcf29ac97ec9ffffffff0ebb5afd444b1a7a517daa2285829d61b2caa59a223aaace70ec8f60d604f6cf050000006b483045022100a5ef7f538bfc6f30048fd25751aea519d9f0980adda26756444006e873f6cedf02202ac6d272c9fb3eedbf5e116d8cc718381ef1ce022130c8bbce9d657c9002107c012102c897033df6e75a050063fc93de1944767853d6b5a6428c217436cb0608eee78effffffff22438d3d8e59291883ec9850ea0cbb0e05c1b207a6d68faa600702d5c877e7c8030000006a47304402206bb6e4a89f70e0e06c98b8a0512cc0dd1e3f4efacafa0216725e0a98720fa9f9022014bfb94f1887d20b975c3462820667b017a2e70aa427e38c3b093a98c1ae158e012102d972017188ddc1bf1c4def19458c2509de5fbecef5c38bd12ef48a95334abe6effffffffeaad807cf73e655fa5070d56cf534026c21ba92ce32c1c55e3ee886aab7af7da3a0000006a4730440220434173a6253d83d0a732de18a286fedeadf01f7310c18e48eedf70c21d2340c00220255c8f10f9942c325a98f5f8bbf3baa1d422ba30f475fbab2ae97f05fadbc9670121021828ceb254b77ccd676e7f579dbe030b2fe9241bc364ceccbdd7c094ce59e1aaffffffffa4cf191df5341b3f8bd8521fc3397cf42b6ede642cf41564f11b27bdb0ffc80e000000006b4830450221008ed35fee2b27be8814ffbd42c777a78a7b12b2cb4a234eea3e4d80630ab23b2902203d77be189a710308eb756705b2d2d08330741fd28a14a13f6c80599167d987ba012103452568554a3dfa12a03fc4e035f9e587f8c5bcae2f6c715b73b23b380e9ad7d7ffffffffae20ef584135b9c2b05cbbc60fecd77dd5b5c19559433fb99104f55544ad23e5000000006b483045022100b4c19f489d0c50be56011a112e9c41371d24dc26859be5f919ba2ccd48fafde10220367ef377cd7d19f468d5e4aed9ecf2870169937fb94c21cb6062a0a3423953f5012103f0727b69e878b04a5d3707e9c863ead73d15e54b91f7e8263e7e7995c95e79adffffffff9d5eea371255487f771fa9ef36e46ab448f9efad7e116a6d128bd9dda86028b6130000006a47304402203c42a55408b2d620d798f788a39c0fbc71cbcd7feb7284c9df990201fc5fc1a302200e81725b178f4170a9da69ecf0f06391a439bbcf2de750ab74e8dd9fb270f5f401210290d684b3e8c3c8b8231468a5a611a9056aa2434305ea8f315a9e05ef0754abecffffffff38e1d43f23472a5e7955420a966f3b6b142943d02bd9d996529deee5b2bd3e0c010000006a47304402202fa794f364d37a3ec7d8f16de0c83f7d7fd6da996c02ec8f24ec9754ffa81ba4022004166a5c873fd9918498e31bea491ab1d399446a8f9e02e55cb70a99e37e9ba50121030fb1f0db39823fb210c25ba028b0c1cfcc55e6727cdb5140cb0f99a6ec140040ffffffff7ee9badbe073b16214a6b348542823396b7f4abe452b49c8cdb2d1ce53d463cd000000006a4730440220767b1f858a4a716085538b876a499dc6ac415dc246185d6877454c2c4566cd5302205c1e64621983faeb8e5f23b2563cd26b2b6a6e8a967c3e389ad763153943546f012102c9083d5f2982c1c64927fe36860a2d091207c3dcb9ece443a86429e595ead884ffffffff4d95be279bd97d5ae6e1a3d50359add3999b35a9308d4b0c77d425e7ed4c0199000000006a4730440220411d5741c10526077b2af93e2bf713f6e35730f63dbfa24859f875c6d8335b2602207acd6cd42c9f65e4bc9f759d8f3c7dd7f0986bd443942f577f7cc9cae0c52e6301210260213d97cac3ac59cf379a9871517aa1da6dad585d7e30af8ffcc752fa1bc083fffffffff37da02a37988970a931908d7753761d26f54e48e29db6d7c0a40a500893cf10000000006b4830450221008626d8032ba50d6d2c1f04ba589cf10f0f7f22c3c39a724408389938a5b1927b02204666ff4b853f6ca16af08ecc8e7dc6e259b87d1bfa8aad46aaec6d308d8d58cf0121027e50afd4760cdd39b653a4455e83ee1b5a9b5bf254ac1e508f33e21ecdd02aebffffffff01c886578d010000001976a9146c2614c7b45ef8dfa8dc83e6739ddbe201d05ab088ac00000000"
    }
  ],
  "time": 1517009236,
  "mediantime": 1517008844,
  "nonce": 572728893,
  "bits": "1a047f14",
  "difficulty": 3731199.183374282,
  "chainwork": "00000000000000000000000000000000000000000000003246325a568ea541b0",
  "previousblockhash": "307c2d05233065b37c373a3f710b27167355109a65fa5cd0334f81033d00bc1e",
  "nextblockhash": "1d2a1fb574628ee419946d45ceff561caf7afab729097f9ff5bc47facca39e49"
}
