{
  "hash": "75dd4f4560791ada882bc174289527d359c2baedd48a502d574d74b455c33b19",
  "confirmations": 2297,
  "strippedsize": 255,
  "size": 255,
  "weight": 1020,
  "height": 1358698,
  "version": 536870912,
  "versionHex": "20000000",
  "merkleroot": "8fc809b3b98275e25350604896204dd25c8f2c311a58852beaa351f6659f6913",
  "tx": [
    {
      "txid": "8fc809b3b98275e25350604896204dd25c8f2c311a58852beaa351f6659f6913",
      "hash": "8fc809b3b98275e25350604896204dd25c8f2c311a58852beaa351f6659f6913",
      "version": 1,
      "size": 174,
      "vsize": 174,
      "locktime": 0,
      "vin": [
        {
          "coinbase": "036abb141c4d696e656420627920416e74506f6f6c20626a3242205a6e521304bffabe6d6df08eec23a99f5557be9d518fd7b0d597e26269c12d7c24b9767554f1c95ce8340400000000000000930700000000000001000000",
          "sequence": 4294967295
        }
      ],
      "vout": [
        {
          "value": 25.00000000,
          "n": 0,
          "scriptPubKey": {
            "asm": "OP_DUP OP_HASH160 0ff3ccc5e8be88afe24b5d634e5852d474dbdff1 OP_EQUALVERIFY OP_CHECKSIG",
            "hex": "76a9140ff3ccc5e8be88afe24b5d634e5852d474dbdff188ac",
            "reqSigs": 1,
            "type": "pubkeyhash",
            "addresses": [
              "LLgJTbzZMsRTCUF1NtvvL9SR1a4pVieW89"
            ]
          }
        }
      ],
      "hex": "01000000010000000000000000000000000000000000000000000000000000000000000000ffffffff59036abb141c4d696e656420627920416e74506f6f6c20626a3242205a6e521304bffabe6d6df08eec23a99f5557be9d518fd7b0d597e26269c12d7c24b9767554f1c95ce8340400000000000000930700000000000001000000ffffffff0100f90295000000001976a9140ff3ccc5e8be88afe24b5d634e5852d474dbdff188ac00000000"
    }
  ],
  "time": 1517179411,
  "mediantime": 1517178680,
  "nonce": 583967697,
  "bits": "1a047f14",
  "difficulty": 3731199.183374282,
  "chainwork": "00000000000000000000000000000000000000000000003351be7f0c4cc42fde",
  "previousblockhash": "6e4e62747b6e7834926bd9f442a5376606fbd9133c250bb637c11d412830cd16",
  "nextblockhash": "afee619c68a39f339d018417cf18966ad7ed764452b6c3de9130bdf1060f0208"
}
