{
  "hash": "763bdf07eb05b155d945830e59b8a85751d394174aada0156a051b4f1b459157",
  "confirmations": 1518,
  "strippedsize": 253,
  "size": 253,
  "weight": 1012,
  "height": 1359476,
  "version": 536870912,
  "versionHex": "20000000",
  "merkleroot": "e8ee8cfd3dafab3cdcc8a814e3d6a5e066d7dd61ffd78b2fa543b3918d297df7",
  "tx": [
    {
      "txid": "e8ee8cfd3dafab3cdcc8a814e3d6a5e066d7dd61ffd78b2fa543b3918d297df7",
      "hash": "e8ee8cfd3dafab3cdcc8a814e3d6a5e066d7dd61ffd78b2fa543b3918d297df7",
      "version": 1,
      "size": 172,
      "vsize": 172,
      "locktime": 0,
      "vin": [
        {
          "coinbase": "0374be141a4d696e656420627920416e74506f6f6c20626a341e205a6ff852fabe6d6d03da5a7c5fb3c13ebf31b20dc92a2104369c51c731f69924b0f8986e96fa11960400000000000000032900000000000002000000",
          "sequence": 4294967295
        }
      ],
      "vout": [
        {
          "value": 25.00000000,
          "n": 0,
          "scriptPubKey": {
            "asm": "OP_DUP OP_HASH160 0ff3ccc5e8be88afe24b5d634e5852d474dbdff1 OP_EQUALVERIFY OP_CHECKSIG",
            "hex": "76a9140ff3ccc5e8be88afe24b5d634e5852d474dbdff188ac",
            "reqSigs": 1,
            "type": "pubkeyhash",
            "addresses": [
              "LLgJTbzZMsRTCUF1NtvvL9SR1a4pVieW89"
            ]
          }
        }
      ],
      "hex": "01000000010000000000000000000000000000000000000000000000000000000000000000ffffffff570374be141a4d696e656420627920416e74506f6f6c20626a341e205a6ff852fabe6d6d03da5a7c5fb3c13ebf31b20dc92a2104369c51c731f69924b0f8986e96fa11960400000000000000032900000000000002000000ffffffff0100f90295000000001976a9140ff3ccc5e8be88afe24b5d634e5852d474dbdff188ac00000000"
    }
  ],
  "time": 1517287506,
  "mediantime": 1517287294,
  "nonce": 1074816987,
  "bits": "1a042eae",
  "difficulty": 4011378.762614286,
  "chainwork": "0000000000000000000000000000000000000000000000340a58420b23dc816a",
  "previousblockhash": "b2eaa6142b2820b877ae15b1b56f1a95f23308adb0105156e2a0689f3acc9438",
  "nextblockhash": "c64473e6eaa2abd71cf9d710f2d398b313b2d5a734c9640cfa414a0dd6e43465"
}
