{
  "hash": "768a6c0941db97f4d33e393eec677d016ee1ca6d7d0377f0e4bfa40d98e5ef4d",
  "confirmations": 1678,
  "strippedsize": 3413,
  "size": 3449,
  "weight": 13688,
  "height": 1359316,
  "version": 536870912,
  "versionHex": "20000000",
  "merkleroot": "45534e0758b74d55e0bb4f78cbfd3eeddcf09efba7267537208ced2007727fe1",
  "tx": [
    {
      "txid": "4138c350244ecf7f83ca659ecb30d0b9d06624a54318c361de0297070df8ee4f",
      "hash": "1d78213f1b103320a058f61a9c83ef457b2ffe59d97216c5a8d00d4afb2cf30c",
      "version": 1,
      "size": 253,
      "vsize": 226,
      "locktime": 0,
      "vin": [
        {
          "coinbase": "03d4bd1441d69bea1ac029d841d69bea1abd5bda2f4c54432e544f502ffabe6d6d59a260ef405039e83873cf08e3ecbfb656270214f0eca9f92d443d91370bb06801000000000000007c17d3bb0400000000000000",
          "sequence": 4294967295
        }
      ],
      "vout": [
        {
          "value": 25.00696000,
          "n": 0,
          "scriptPubKey": {
            "asm": "OP_DUP OP_HASH160 0c617fdb2ea42aed30a509595ee21ba3f6688db0 OP_EQUALVERIFY OP_CHECKSIG",
            "hex": "76a9140c617fdb2ea42aed30a509595ee21ba3f6688db088ac",
            "reqSigs": 1,
            "type": "pubkeyhash",
            "addresses": [
              "LLMRAtr3qBje2ySEa3CnZ55LA4TQMWnRY3"
            ]
          }
        }, 
        {
          "value": 0.00000000,
          "n": 1,
          "scriptPubKey": {
            "asm": "OP_RETURN aa21a9ed83ff2315045d015f07b391bd994ed4e9eb0abc00cd8a95de46a4e21570eb889b",
            "hex": "6a24aa21a9ed83ff2315045d015f07b391bd994ed4e9eb0abc00cd8a95de46a4e21570eb889b",
            "type": "nulldata"
          }
        }
      ],
      "hex": "010000000001010000000000000000000000000000000000000000000000000000000000000000ffffffff5503d4bd1441d69bea1ac029d841d69bea1abd5bda2f4c54432e544f502ffabe6d6d59a260ef405039e83873cf08e3ecbfb656270214f0eca9f92d443d91370bb06801000000000000007c17d3bb0400000000000000ffffffff02c0970d95000000001976a9140c617fdb2ea42aed30a509595ee21ba3f6688db088ac0000000000000000266a24aa21a9ed83ff2315045d015f07b391bd994ed4e9eb0abc00cd8a95de46a4e21570eb889b0120000000000000000000000000000000000000000000000000000000000000000000000000"
    }, 
    {
      "txid": "def9e17f347191310d63f12b678f45237503c30f2c7e0ffb0e870a18d8c29421",
      "hash": "def9e17f347191310d63f12b678f45237503c30f2c7e0ffb0e870a18d8c29421",
      "version": 1,
      "size": 374,
      "vsize": 374,
      "locktime": 0,
      "vin": [
        {
          "txid": "e2c8ab8f8b63d2c9f18e93516e05155dcbe8b5592bbcafabf207eb9a573459b7",
          "vout": 1,
          "scriptSig": {
            "asm": "3045022100faa51fc02fd1fda167e54b2be9c85f9f6170d8e6476e88d2646394c444297aaf0220117f09f249de7ba1ec39aac8ddf5c67c6aaf459c03e2d5a16e8e308db1011508[ALL] 025c30b6911c9ba1e2ac3566547dcb1eeae37002726d201742937deafae0126f32",
            "hex": "483045022100faa51fc02fd1fda167e54b2be9c85f9f6170d8e6476e88d2646394c444297aaf0220117f09f249de7ba1ec39aac8ddf5c67c6aaf459c03e2d5a16e8e308db10115080121025c30b6911c9ba1e2ac3566547dcb1eeae37002726d201742937deafae0126f32"
          },
          "sequence": 4294967295
        }, 
        {
          "txid": "7d3a0a350d9a567b458afc489d37f990e4a6a2813d370ebdfa795afe32f52c8b",
          "vout": 1,
          "scriptSig": {
            "asm": "3045022100aad9e5a3c2afe65c2d3cb619cfa39af2ed32dffb5c47e6fac0cd476bcdca74450220428c569eec509207217cd5795c2a9d7269d23bcabb83550420e37737628b35f2[ALL] 025c30b6911c9ba1e2ac3566547dcb1eeae37002726d201742937deafae0126f32",
            "hex": "483045022100aad9e5a3c2afe65c2d3cb619cfa39af2ed32dffb5c47e6fac0cd476bcdca74450220428c569eec509207217cd5795c2a9d7269d23bcabb83550420e37737628b35f20121025c30b6911c9ba1e2ac3566547dcb1eeae37002726d201742937deafae0126f32"
          },
          "sequence": 4294967295
        }
      ],
      "vout": [
        {
          "value": 9.73209000,
          "n": 0,
          "scriptPubKey": {
            "asm": "OP_DUP OP_HASH160 54d7bd53381956ad3dca05ab3de08a6b696acf3c OP_EQUALVERIFY OP_CHECKSIG",
            "hex": "76a91454d7bd53381956ad3dca05ab3de08a6b696acf3c88ac",
            "reqSigs": 1,
            "type": "pubkeyhash",
            "addresses": [
              "LSxZUB28bLk9BxPaaMyzK9HFrhmezTYd2P"
            ]
          }
        }, 
        {
          "value": 5.84581000,
          "n": 1,
          "scriptPubKey": {
            "asm": "OP_DUP OP_HASH160 a95a2003526dea1b4e22bf81dc68d40c2f4f8822 OP_EQUALVERIFY OP_CHECKSIG",
            "hex": "76a914a95a2003526dea1b4e22bf81dc68d40c2f4f882288ac",
            "reqSigs": 1,
            "type": "pubkeyhash",
            "addresses": [
              "LafQRdXnFN4RyFKf81DoMwbyZUKa91fEX4"
            ]
          }
        }
      ],
      "hex": "0100000002b75934579aeb07f2abafbc2b59b5e8cb5d15056e51938ef1c9d2638b8fabc8e2010000006b483045022100faa51fc02fd1fda167e54b2be9c85f9f6170d8e6476e88d2646394c444297aaf0220117f09f249de7ba1ec39aac8ddf5c67c6aaf459c03e2d5a16e8e308db10115080121025c30b6911c9ba1e2ac3566547dcb1eeae37002726d201742937deafae0126f32ffffffff8b2cf532fe5a79fabd0e373d81a2a6e490f9379d48fc8a457b569a0d350a3a7d010000006b483045022100aad9e5a3c2afe65c2d3cb619cfa39af2ed32dffb5c47e6fac0cd476bcdca74450220428c569eec509207217cd5795c2a9d7269d23bcabb83550420e37737628b35f20121025c30b6911c9ba1e2ac3566547dcb1eeae37002726d201742937deafae0126f32ffffffff02a8fd013a000000001976a91454d7bd53381956ad3dca05ab3de08a6b696acf3c88ac88ffd722000000001976a914a95a2003526dea1b4e22bf81dc68d40c2f4f882288ac00000000"
    }, 
    {
      "txid": "e39a045b76d7d0473ea9994788274830f93359c2332f73cf3680cd1d3800ed4d",
      "hash": "e39a045b76d7d0473ea9994788274830f93359c2332f73cf3680cd1d3800ed4d",
      "version": 2,
      "size": 226,
      "vsize": 226,
      "locktime": 1359314,
      "vin": [
        {
          "txid": "ee417801afdc37a26acfb8f387108134fa7b6f1b037b579676af1e92769565f1",
          "vout": 1,
          "scriptSig": {
            "asm": "3045022100f6e8d453bf7a116d1b5a34f99d4293dbe7d2137193b0321116a1aa7a191b3db602206b1c315ce7440ef35debd72b995f3cbbc4d2bd46dd562667d9bc247368f963ed[ALL] 03e0a6f4354dd65c8494d73e3d96cc594c5f3e7988d96da1b89965124e53cfbb2e",
            "hex": "483045022100f6e8d453bf7a116d1b5a34f99d4293dbe7d2137193b0321116a1aa7a191b3db602206b1c315ce7440ef35debd72b995f3cbbc4d2bd46dd562667d9bc247368f963ed012103e0a6f4354dd65c8494d73e3d96cc594c5f3e7988d96da1b89965124e53cfbb2e"
          },
          "sequence": 4294967294
        }
      ],
      "vout": [
        {
          "value": 0.50000000,
          "n": 0,
          "scriptPubKey": {
            "asm": "OP_DUP OP_HASH160 0a5e1211f4ff4f17257c17d1206bce7654bad6fb OP_EQUALVERIFY OP_CHECKSIG",
            "hex": "76a9140a5e1211f4ff4f17257c17d1206bce7654bad6fb88ac",
            "reqSigs": 1,
            "type": "pubkeyhash",
            "addresses": [
              "LLAmiGdPQdLU7XnKvCdo7VSk59B4jXcBbf"
            ]
          }
        }, 
        {
          "value": 26.25791700,
          "n": 1,
          "scriptPubKey": {
            "asm": "OP_DUP OP_HASH160 afd34124817d2abc4e41753bd960b2f7c13f4f2a OP_EQUALVERIFY OP_CHECKSIG",
            "hex": "76a914afd34124817d2abc4e41753bd960b2f7c13f4f2a88ac",
            "reqSigs": 1,
            "type": "pubkeyhash",
            "addresses": [
              "LbFdazzrHvFDncL14e5xrFLymWxTsVZpgn"
            ]
          }
        }
      ],
      "hex": "0200000001f1659576921eaf7696577b031b6f7bfa34811087f3b8cf6aa237dcaf017841ee010000006b483045022100f6e8d453bf7a116d1b5a34f99d4293dbe7d2137193b0321116a1aa7a191b3db602206b1c315ce7440ef35debd72b995f3cbbc4d2bd46dd562667d9bc247368f963ed012103e0a6f4354dd65c8494d73e3d96cc594c5f3e7988d96da1b89965124e53cfbb2efeffffff0280f0fa02000000001976a9140a5e1211f4ff4f17257c17d1206bce7654bad6fb88acd466829c000000001976a914afd34124817d2abc4e41753bd960b2f7c13f4f2a88acd2bd1400"
    }, 
    {
      "txid": "a6fc6000aeb0e9839aae8c2e9385c15ce19a5e36555eb8c9cf14b183172b2b0a",
      "hash": "a6fc6000aeb0e9839aae8c2e9385c15ce19a5e36555eb8c9cf14b183172b2b0a",
      "version": 1,
      "size": 226,
      "vsize": 226,
      "locktime": 0,
      "vin": [
        {
          "txid": "dcb3995c6a0c2410c831c530244cd1d7ef6072fa069ee5b4bd0ec9c8dc28f663",
          "vout": 35,
          "scriptSig": {
            "asm": "3045022100b990aba4e42c95fc56dd11d7d6cc672c886c237d657d55d4386aa9365c70e05f02204c007e1ab75384a5eea10657ed03655b8a2dd2994f6b9cfcfc7a383022e05f84[ALL] 03d40e834da5e6e75b95e0507a0903dfd6e9f217ff6e8c1d1026d3bdd890aa737a",
            "hex": "483045022100b990aba4e42c95fc56dd11d7d6cc672c886c237d657d55d4386aa9365c70e05f02204c007e1ab75384a5eea10657ed03655b8a2dd2994f6b9cfcfc7a383022e05f84012103d40e834da5e6e75b95e0507a0903dfd6e9f217ff6e8c1d1026d3bdd890aa737a"
          },
          "sequence": 4294967295
        }
      ],
      "vout": [
        {
          "value": 0.13035802,
          "n": 0,
          "scriptPubKey": {
            "asm": "OP_DUP OP_HASH160 bd28f7d08bc37b74bdbde51b44cb8f62e3b82aa4 OP_EQUALVERIFY OP_CHECKSIG",
            "hex": "76a914bd28f7d08bc37b74bdbde51b44cb8f62e3b82aa488ac",
            "reqSigs": 1,
            "type": "pubkeyhash",
            "addresses": [
              "LcU93ydue3EF8HtAWKeKY1zS17QyYN4pwQ"
            ]
          }
        }, 
        {
          "value": 1.68941598,
          "n": 1,
          "scriptPubKey": {
            "asm": "OP_DUP OP_HASH160 fd61614dc7e9a9dd280f1fdeb67a36ca651392d4 OP_EQUALVERIFY OP_CHECKSIG",
            "hex": "76a914fd61614dc7e9a9dd280f1fdeb67a36ca651392d488ac",
            "reqSigs": 1,
            "type": "pubkeyhash",
            "addresses": [
              "LiKhsqJU2AEdqmddhJ6Mmf9FAcpZ4XwNQi"
            ]
          }
        }
      ],
      "hex": "010000000163f628dcc8c90ebdb4e59e06fa7260efd7d14c2430c531c810240c6a5c99b3dc230000006b483045022100b990aba4e42c95fc56dd11d7d6cc672c886c237d657d55d4386aa9365c70e05f02204c007e1ab75384a5eea10657ed03655b8a2dd2994f6b9cfcfc7a383022e05f84012103d40e834da5e6e75b95e0507a0903dfd6e9f217ff6e8c1d1026d3bdd890aa737affffffff021ae9c600000000001976a914bd28f7d08bc37b74bdbde51b44cb8f62e3b82aa488ac1ed8110a000000001976a914fd61614dc7e9a9dd280f1fdeb67a36ca651392d488ac00000000"
    }, 
    {
      "txid": "464406f5a9a1e1bc7ecf846a43c05cef3640674c2cebbb3ede9361c69eae9f96",
      "hash": "464406f5a9a1e1bc7ecf846a43c05cef3640674c2cebbb3ede9361c69eae9f96",
      "version": 1,
      "size": 192,
      "vsize": 192,
      "locktime": 0,
      "vin": [
        {
          "txid": "a6fc6000aeb0e9839aae8c2e9385c15ce19a5e36555eb8c9cf14b183172b2b0a",
          "vout": 1,
          "scriptSig": {
            "asm": "3045022100f27c6ca548191f675b71035274d5a3af572896b919738b6f4004bdc4a7c602d3022000d855547bbd8ba3c77ef935e79fda59dd91e361eb2681150cc1c656ba63f939[ALL] 03b071ba8ae82ee0a27cd43407d59147803129b2402efda6dd005b02ccf954a883",
            "hex": "483045022100f27c6ca548191f675b71035274d5a3af572896b919738b6f4004bdc4a7c602d3022000d855547bbd8ba3c77ef935e79fda59dd91e361eb2681150cc1c656ba63f939012103b071ba8ae82ee0a27cd43407d59147803129b2402efda6dd005b02ccf954a883"
          },
          "sequence": 4294967295
        }
      ],
      "vout": [
        {
          "value": 1.68891598,
          "n": 0,
          "scriptPubKey": {
            "asm": "OP_DUP OP_HASH160 4848f1e0e33b1539629f5c2182eed26f202f3e93 OP_EQUALVERIFY OP_CHECKSIG",
            "hex": "76a9144848f1e0e33b1539629f5c2182eed26f202f3e9388ac",
            "reqSigs": 1,
            "type": "pubkeyhash",
            "addresses": [
              "LRpAJKa3Yz7FwrwUsBM5rZh57qVJd1ZvH4"
            ]
          }
        }
      ],
      "hex": "01000000010a2b2b1783b114cfc9b85e55365e9ae15cc185932e8cae9a83e9b0ae0060fca6010000006b483045022100f27c6ca548191f675b71035274d5a3af572896b919738b6f4004bdc4a7c602d3022000d855547bbd8ba3c77ef935e79fda59dd91e361eb2681150cc1c656ba63f939012103b071ba8ae82ee0a27cd43407d59147803129b2402efda6dd005b02ccf954a883ffffffff01ce14110a000000001976a9144848f1e0e33b1539629f5c2182eed26f202f3e9388ac00000000"
    }, 
    {
      "txid": "f266e0883086704f35f2a4d4ada124f215bf705dbab649e513b2f6199651abe4",
      "hash": "f266e0883086704f35f2a4d4ada124f215bf705dbab649e513b2f6199651abe4",
      "version": 1,
      "size": 372,
      "vsize": 372,
      "locktime": 1359314,
      "vin": [
        {
          "txid": "48b58ce783fa00c5cfd8e440fe75cb9ffd03899ec7145c11bea1e82c3bd6ac37",
          "vout": 1,
          "scriptSig": {
            "asm": "304402205fec9c2e2bc96239f3e7305eda46da27e4e7e8a71a516cd11c215ee7cb0fb8e902200b32b54f8aa4475db1974966428a91f0aba8b609845f644359d65382cab2061f[ALL] 03ca9e90dc3b8095ef8bf8fe6c31222330f7eb5268a44e006d265191d7ffbf11d1",
            "hex": "47304402205fec9c2e2bc96239f3e7305eda46da27e4e7e8a71a516cd11c215ee7cb0fb8e902200b32b54f8aa4475db1974966428a91f0aba8b609845f644359d65382cab2061f012103ca9e90dc3b8095ef8bf8fe6c31222330f7eb5268a44e006d265191d7ffbf11d1"
          },
          "sequence": 4294967294
        }, 
        {
          "txid": "c4ab0c24096c23e2041cce1138e907b270f98162de6112f5aa5ff565122258c4",
          "vout": 0,
          "scriptSig": {
            "asm": "3044022020db30a3813418b4b6efb67d37d903e0f8666b8159e0e3b76314a2d03d7e22a0022036c2b2f07e296182f18c75d1fdf9d95fe886f9eec41d837311d06898e75629be[ALL] 022fd0e3a7b8c50288e52dc7b989d92df90d1bbe667298f7cb79c1ffe75302c175",
            "hex": "473044022020db30a3813418b4b6efb67d37d903e0f8666b8159e0e3b76314a2d03d7e22a0022036c2b2f07e296182f18c75d1fdf9d95fe886f9eec41d837311d06898e75629be0121022fd0e3a7b8c50288e52dc7b989d92df90d1bbe667298f7cb79c1ffe75302c175"
          },
          "sequence": 4294967294
        }
      ],
      "vout": [
        {
          "value": 0.01002336,
          "n": 0,
          "scriptPubKey": {
            "asm": "OP_DUP OP_HASH160 14855807c271195f6517f94dc03959b47549db35 OP_EQUALVERIFY OP_CHECKSIG",
            "hex": "76a91414855807c271195f6517f94dc03959b47549db3588ac",
            "reqSigs": 1,
            "type": "pubkeyhash",
            "addresses": [
              "LM6TWwhwnn2fKJr9R7cfNd6FNRHmE5VHom"
            ]
          }
        }, 
        {
          "value": 1.15885428,
          "n": 1,
          "scriptPubKey": {
            "asm": "OP_DUP OP_HASH160 c479138deefeb795ac21a46814d71a621c08a61c OP_EQUALVERIFY OP_CHECKSIG",
            "hex": "76a914c479138deefeb795ac21a46814d71a621c08a61c88ac",
            "reqSigs": 1,
            "type": "pubkeyhash",
            "addresses": [
              "Ld8okM3iQmrz16rPBMXB4DKxUKjdrDtAfh"
            ]
          }
        }
      ],
      "hex": "010000000237acd63b2ce8a1be115c14c79e8903fd9fcb75fe40e4d8cfc500fa83e78cb548010000006a47304402205fec9c2e2bc96239f3e7305eda46da27e4e7e8a71a516cd11c215ee7cb0fb8e902200b32b54f8aa4475db1974966428a91f0aba8b609845f644359d65382cab2061f012103ca9e90dc3b8095ef8bf8fe6c31222330f7eb5268a44e006d265191d7ffbf11d1feffffffc458221265f55faaf51261de6281f970b207e93811ce1c04e2236c09240cabc4000000006a473044022020db30a3813418b4b6efb67d37d903e0f8666b8159e0e3b76314a2d03d7e22a0022036c2b2f07e296182f18c75d1fdf9d95fe886f9eec41d837311d06898e75629be0121022fd0e3a7b8c50288e52dc7b989d92df90d1bbe667298f7cb79c1ffe75302c175feffffff02604b0f00000000001976a91414855807c271195f6517f94dc03959b47549db3588ac7445e806000000001976a914c479138deefeb795ac21a46814d71a621c08a61c88acd2bd1400"
    }, 
    {
      "txid": "3d511bff6a8906e9790b4628b22b69bd62933db48e6c380155b753cf5cba8bf0",
      "hash": "3d511bff6a8906e9790b4628b22b69bd62933db48e6c380155b753cf5cba8bf0",
      "version": 2,
      "size": 372,
      "vsize": 372,
      "locktime": 1359314,
      "vin": [
        {
          "txid": "12c521afb8486c076493b118fb12d74e627cfba31efa04005b73695e7b2d50ae",
          "vout": 1,
          "scriptSig": {
            "asm": "3044022017eccdf05d51cbf839a3a2a93eee24dd67c5a3a3a9d4f17455065ff4ba08b971022032844632d36961be99ba9548be2ff275f6e511007616021fc7bc2f6edb7ba528[ALL] 03b30bdb6e050edb172e9ed0b88e851ea0622eeb1279eb31ca1b40d8ef099b3528",
            "hex": "473044022017eccdf05d51cbf839a3a2a93eee24dd67c5a3a3a9d4f17455065ff4ba08b971022032844632d36961be99ba9548be2ff275f6e511007616021fc7bc2f6edb7ba528012103b30bdb6e050edb172e9ed0b88e851ea0622eeb1279eb31ca1b40d8ef099b3528"
          },
          "sequence": 4294967294
        }, 
        {
          "txid": "0f2dc8beb8d24985ebcb62da2d0b9d876e49688abd4222daa1d53c18ba108364",
          "vout": 1,
          "scriptSig": {
            "asm": "3044022069bb1d55047705f985d6a48d2ba501b2ea196caf65911ac452df2d2cd49a314e02203fb083c908ac34340d1011bb77f6ffcaafa0a13df2b347e39f942772da3c5485[ALL] 02f4030fe043bce4b59debd643418d98ed18bd804777c5891199592c61039619bd",
            "hex": "473044022069bb1d55047705f985d6a48d2ba501b2ea196caf65911ac452df2d2cd49a314e02203fb083c908ac34340d1011bb77f6ffcaafa0a13df2b347e39f942772da3c5485012102f4030fe043bce4b59debd643418d98ed18bd804777c5891199592c61039619bd"
          },
          "sequence": 4294967294
        }
      ],
      "vout": [
        {
          "value": 13.24128037,
          "n": 0,
          "scriptPubKey": {
            "asm": "OP_DUP OP_HASH160 e7d589520c0a26ba0dc66fc456c96bce84372d31 OP_EQUALVERIFY OP_CHECKSIG",
            "hex": "76a914e7d589520c0a26ba0dc66fc456c96bce84372d3188ac",
            "reqSigs": 1,
            "type": "pubkeyhash",
            "addresses": [
              "LgMnAJ6cEwcxTp6Z3j8wytimhs5bbpUiH3"
            ]
          }
        }, 
        {
          "value": 0.60154583,
          "n": 1,
          "scriptPubKey": {
            "asm": "OP_DUP OP_HASH160 508b4ee4be0cca7d1a074840669727b4548c5ff5 OP_EQUALVERIFY OP_CHECKSIG",
            "hex": "76a914508b4ee4be0cca7d1a074840669727b4548c5ff588ac",
            "reqSigs": 1,
            "type": "pubkeyhash",
            "addresses": [
              "LSZqCrumshmjFhJCv267Qt9hZJ1HpmaKkg"
            ]
          }
        }
      ],
      "hex": "0200000002ae502d7b5e69735b0004fa1ea3fb7c624ed712fb18b19364076c48b8af21c512010000006a473044022017eccdf05d51cbf839a3a2a93eee24dd67c5a3a3a9d4f17455065ff4ba08b971022032844632d36961be99ba9548be2ff275f6e511007616021fc7bc2f6edb7ba528012103b30bdb6e050edb172e9ed0b88e851ea0622eeb1279eb31ca1b40d8ef099b3528feffffff648310ba183cd5a1da2242bd8a68496e879d0b2dda62cbeb8549d2b8bec82d0f010000006a473044022069bb1d55047705f985d6a48d2ba501b2ea196caf65911ac452df2d2cd49a314e02203fb083c908ac34340d1011bb77f6ffcaafa0a13df2b347e39f942772da3c5485012102f4030fe043bce4b59debd643418d98ed18bd804777c5891199592c61039619bdfeffffff022597ec4e000000001976a914e7d589520c0a26ba0dc66fc456c96bce84372d3188acd7e29503000000001976a914508b4ee4be0cca7d1a074840669727b4548c5ff588acd2bd1400"
    }, 
    {
      "txid": "909a84ee1fcddc3cab75f3c1529cd71fc19abdf069fde37242754482cdb3c805",
      "hash": "909a84ee1fcddc3cab75f3c1529cd71fc19abdf069fde37242754482cdb3c805",
      "version": 2,
      "size": 225,
      "vsize": 225,
      "locktime": 1359314,
      "vin": [
        {
          "txid": "b94d7c7eef95918489e92b5ef5ddb35d6f6079af1cf58b2f82f756e56ece1a43",
          "vout": 1,
          "scriptSig": {
            "asm": "30440220445d041e4d2de234de0cb8d5ab96c7f1bb85f1b4ae5357867cd79be9eeb3ae3e02201f69a7a8e4e28569711149e27eb66fb847703b15008ef692b805003e6cf4b23f[ALL] 0222f0dfed3b6374b06d02b8e3df9c9f73c6ed2095edc5a86f58edcc20c6308002",
            "hex": "4730440220445d041e4d2de234de0cb8d5ab96c7f1bb85f1b4ae5357867cd79be9eeb3ae3e02201f69a7a8e4e28569711149e27eb66fb847703b15008ef692b805003e6cf4b23f01210222f0dfed3b6374b06d02b8e3df9c9f73c6ed2095edc5a86f58edcc20c6308002"
          },
          "sequence": 4294967294
        }
      ],
      "vout": [
        {
          "value": 160.28630517,
          "n": 0,
          "scriptPubKey": {
            "asm": "OP_DUP OP_HASH160 a4aca4dd409e82042007d3bde6660a52cf3a937d OP_EQUALVERIFY OP_CHECKSIG",
            "hex": "76a914a4aca4dd409e82042007d3bde6660a52cf3a937d88ac",
            "reqSigs": 1,
            "type": "pubkeyhash",
            "addresses": [
              "LaEfuBu1M3kRELdxEwTw645mZrZPoe59KH"
            ]
          }
        }, 
        {
          "value": 107.98000000,
          "n": 1,
          "scriptPubKey": {
            "asm": "OP_DUP OP_HASH160 6faa9f99d411034089580127cd7cb6e649a9cc8a OP_EQUALVERIFY OP_CHECKSIG",
            "hex": "76a9146faa9f99d411034089580127cd7cb6e649a9cc8a88ac",
            "reqSigs": 1,
            "type": "pubkeyhash",
            "addresses": [
              "LVQPfdXwWZKrePAR9ct9dG2RXrQwkmcVaw"
            ]
          }
        }
      ],
      "hex": "0200000001431ace6ee556f7822f8bf51caf79606f5db3ddf55e2be989849195ef7e7c4db9010000006a4730440220445d041e4d2de234de0cb8d5ab96c7f1bb85f1b4ae5357867cd79be9eeb3ae3e02201f69a7a8e4e28569711149e27eb66fb847703b15008ef692b805003e6cf4b23f01210222f0dfed3b6374b06d02b8e3df9c9f73c6ed2095edc5a86f58edcc20c6308002feffffff02f57d61bb030000001976a914a4aca4dd409e82042007d3bde6660a52cf3a937d88ac80679c83020000001976a9146faa9f99d411034089580127cd7cb6e649a9cc8a88acd2bd1400"
    }, 
    {
      "txid": "eb3685156cb404b8bf76524dc01835ee7bc8f676f63b066cdb270bf372f42931",
      "hash": "eb3685156cb404b8bf76524dc01835ee7bc8f676f63b066cdb270bf372f42931",
      "version": 2,
      "size": 225,
      "vsize": 225,
      "locktime": 1359314,
      "vin": [
        {
          "txid": "296a70c6453b0913b1fa25ba07dbb1c5764161d251cf5d99814ab5725c8dad36",
          "vout": 0,
          "scriptSig": {
            "asm": "3044022051cfc00c783d039cf54f17e6915b87cac131708d8677134ead2e75604b33b4e302202c3768829e8639584a81bba20a6e0ed3a5dda47200e61f3b2308124726fb5942[ALL] 02be83956396a0289aa4fb0c223b017c6ee82583b4effa36c332ab9b62bce9fe90",
            "hex": "473044022051cfc00c783d039cf54f17e6915b87cac131708d8677134ead2e75604b33b4e302202c3768829e8639584a81bba20a6e0ed3a5dda47200e61f3b2308124726fb5942012102be83956396a0289aa4fb0c223b017c6ee82583b4effa36c332ab9b62bce9fe90"
          },
          "sequence": 4294967294
        }
      ],
      "vout": [
        {
          "value": 0.96557709,
          "n": 0,
          "scriptPubKey": {
            "asm": "OP_DUP OP_HASH160 655f920f2097dabc30f1df01ed248d1dda32ea94 OP_EQUALVERIFY OP_CHECKSIG",
            "hex": "76a914655f920f2097dabc30f1df01ed248d1dda32ea9488ac",
            "reqSigs": 1,
            "type": "pubkeyhash",
            "addresses": [
              "LUTxzwoR8Ux568L6yN4gsdAEkg5XxytExG"
            ]
          }
        }, 
        {
          "value": 199.84370249,
          "n": 1,
          "scriptPubKey": {
            "asm": "OP_DUP OP_HASH160 e3682c1079154d744039b41e9d24287f4b8d6b12 OP_EQUALVERIFY OP_CHECKSIG",
            "hex": "76a914e3682c1079154d744039b41e9d24287f4b8d6b1288ac",
            "reqSigs": 1,
            "type": "pubkeyhash",
            "addresses": [
              "LfxNSmJsGjChbGuLTgSF1u4q6m9q1vMuTb"
            ]
          }
        }
      ],
      "hex": "020000000136ad8d5c72b54a81995dcf51d2614176c5b1db07ba25fab113093b45c6706a29000000006a473044022051cfc00c783d039cf54f17e6915b87cac131708d8677134ead2e75604b33b4e302202c3768829e8639584a81bba20a6e0ed3a5dda47200e61f3b2308124726fb5942012102be83956396a0289aa4fb0c223b017c6ee82583b4effa36c332ab9b62bce9fe90feffffff028d5ac105000000001976a914655f920f2097dabc30f1df01ed248d1dda32ea9488ac494a29a7040000001976a914e3682c1079154d744039b41e9d24287f4b8d6b1288acd2bd1400"
    }, 
    {
      "txid": "81d064878e89daf82af408694c593c5e318f1c6454b5a773524bb60877c02ab5",
      "hash": "81d064878e89daf82af408694c593c5e318f1c6454b5a773524bb60877c02ab5",
      "version": 1,
      "size": 225,
      "vsize": 225,
      "locktime": 0,
      "vin": [
        {
          "txid": "843a231ba84fd2d1f5df657f456a12d5248a8dd6e792a1999c07ebfa4f7935e7",
          "vout": 0,
          "scriptSig": {
            "asm": "304402207d7f468261db411d2faea5323d242bf8abff616b98ce06cca4b7d940de5a61db02203ea266faef4f32ca52d3e4617045f18d115524b1a50460e44421d96c82da2a27[ALL] 02ffa8c6cb8c723f56cbfeebaed3412031c78c2623d90e3ac077fe8b7c586a8652",
            "hex": "47304402207d7f468261db411d2faea5323d242bf8abff616b98ce06cca4b7d940de5a61db02203ea266faef4f32ca52d3e4617045f18d115524b1a50460e44421d96c82da2a27012102ffa8c6cb8c723f56cbfeebaed3412031c78c2623d90e3ac077fe8b7c586a8652"
          },
          "sequence": 4294967295
        }
      ],
      "vout": [
        {
          "value": 1.37568091,
          "n": 0,
          "scriptPubKey": {
            "asm": "OP_DUP OP_HASH160 9efed06f510d2d854f82f6f810ffba6faccd8935 OP_EQUALVERIFY OP_CHECKSIG",
            "hex": "76a9149efed06f510d2d854f82f6f810ffba6faccd893588ac",
            "reqSigs": 1,
            "type": "pubkeyhash",
            "addresses": [
              "LZieHKhEUhp3vR7Dk9cdgj4ei2Y4FtbVYX"
            ]
          }
        }, 
        {
          "value": 0.53344573,
          "n": 1,
          "scriptPubKey": {
            "asm": "OP_DUP OP_HASH160 7de3985fb7847ddf70f13e98ff48e4c24eb90473 OP_EQUALVERIFY OP_CHECKSIG",
            "hex": "76a9147de3985fb7847ddf70f13e98ff48e4c24eb9047388ac",
            "reqSigs": 1,
            "type": "pubkeyhash",
            "addresses": [
              "LWhbNnSYs5iBPeEScngoHK5qKJKAZQvcak"
            ]
          }
        }
      ],
      "hex": "0100000001e735794ffaeb079c99a192e7d68d8a24d5126a457f65dff5d1d24fa81b233a84000000006a47304402207d7f468261db411d2faea5323d242bf8abff616b98ce06cca4b7d940de5a61db02203ea266faef4f32ca52d3e4617045f18d115524b1a50460e44421d96c82da2a27012102ffa8c6cb8c723f56cbfeebaed3412031c78c2623d90e3ac077fe8b7c586a8652ffffffff025b1f3308000000001976a9149efed06f510d2d854f82f6f810ffba6faccd893588ac3df92d03000000001976a9147de3985fb7847ddf70f13e98ff48e4c24eb9047388ac00000000"
    }, 
    {
      "txid": "63a4433ec58cd8664015f0e50f2e1126646aa421aa568704e4312eed7c8c11a4",
      "hash": "63a4433ec58cd8664015f0e50f2e1126646aa421aa568704e4312eed7c8c11a4",
      "version": 2,
      "size": 226,
      "vsize": 226,
      "locktime": 1359314,
      "vin": [
        {
          "txid": "b2825ea2ad00aef2801abcb6cffd4b9653198e3428bde283d9861c3a2850143e",
          "vout": 0,
          "scriptSig": {
            "asm": "3045022100c7e763d57e390ebd5fbe6ce96743795be2beadb169835647a70318f7df6c70a802207b511477d1f9fb245cf179b2ccaaddc75c568a01f04aeb7cc3d80b2c2a0761f8[ALL] 039505e0d7ffebc432184f7fd32f00de6031e6dfa9eebafd830d3cc68775b3797e",
            "hex": "483045022100c7e763d57e390ebd5fbe6ce96743795be2beadb169835647a70318f7df6c70a802207b511477d1f9fb245cf179b2ccaaddc75c568a01f04aeb7cc3d80b2c2a0761f80121039505e0d7ffebc432184f7fd32f00de6031e6dfa9eebafd830d3cc68775b3797e"
          },
          "sequence": 4294967294
        }
      ],
      "vout": [
        {
          "value": 0.98000000,
          "n": 0,
          "scriptPubKey": {
            "asm": "OP_DUP OP_HASH160 d89925bce95c5e24965430210c0765df9faad224 OP_EQUALVERIFY OP_CHECKSIG",
            "hex": "76a914d89925bce95c5e24965430210c0765df9faad22488ac",
            "reqSigs": 1,
            "type": "pubkeyhash",
            "addresses": [
              "LeyDgWxFrffS2fAeKd4RBH2zXPD3d4GfVe"
            ]
          }
        }, 
        {
          "value": 273.87398228,
          "n": 1,
          "scriptPubKey": {
            "asm": "OP_DUP OP_HASH160 63ce2612dc52a20e88fdc3fa60acb36e5c96ee1b OP_EQUALVERIFY OP_CHECKSIG",
            "hex": "76a91463ce2612dc52a20e88fdc3fa60acb36e5c96ee1b88ac",
            "reqSigs": 1,
            "type": "pubkeyhash",
            "addresses": [
              "LUKg7fjykWpZE2wga7SgpAPizPAR7EKYF5"
            ]
          }
        }
      ],
      "hex": "02000000013e1450283a1c86d983e2bd28348e1953964bfdcfb6bc1a80f2ae00ada25e82b2000000006b483045022100c7e763d57e390ebd5fbe6ce96743795be2beadb169835647a70318f7df6c70a802207b511477d1f9fb245cf179b2ccaaddc75c568a01f04aeb7cc3d80b2c2a0761f80121039505e0d7ffebc432184f7fd32f00de6031e6dfa9eebafd830d3cc68775b3797efeffffff02805cd705000000001976a914d89925bce95c5e24965430210c0765df9faad22488ac54886a60060000001976a91463ce2612dc52a20e88fdc3fa60acb36e5c96ee1b88acd2bd1400"
    }, 
    {
      "txid": "c41751fa1dda697b91928c221c15c373b88af81ad6bc8bb380c3e50870e527f5",
      "hash": "c41751fa1dda697b91928c221c15c373b88af81ad6bc8bb380c3e50870e527f5",
      "version": 1,
      "size": 226,
      "vsize": 226,
      "locktime": 0,
      "vin": [
        {
          "txid": "2949266e05cd9dbdf32571aac744e1c5401d2b1b752984db6bf2b6867e5056ec",
          "vout": 0,
          "scriptSig": {
            "asm": "3045022100cd1f6fe24334bd1f3f19a6b0a0e18ce125b21493bee803364e8234ce0b1d2c4d022043f1a206cefbe6374e84af30edaa5a0318754c571ed2ef524bc665c63531f28a[ALL] 039e4caead5728fbc434d5252efbb7a60fb60308e32dac3975f6e1541e1a4af1d9",
            "hex": "483045022100cd1f6fe24334bd1f3f19a6b0a0e18ce125b21493bee803364e8234ce0b1d2c4d022043f1a206cefbe6374e84af30edaa5a0318754c571ed2ef524bc665c63531f28a0121039e4caead5728fbc434d5252efbb7a60fb60308e32dac3975f6e1541e1a4af1d9"
          },
          "sequence": 4294967295
        }
      ],
      "vout": [
        {
          "value": 1.79271709,
          "n": 0,
          "scriptPubKey": {
            "asm": "OP_DUP OP_HASH160 e70575dc0dfd6ef9e62160d9f7028e38f5f6dd6c OP_EQUALVERIFY OP_CHECKSIG",
            "hex": "76a914e70575dc0dfd6ef9e62160d9f7028e38f5f6dd6c88ac",
            "reqSigs": 1,
            "type": "pubkeyhash",
            "addresses": [
              "LgHUtvLDBe6NMR3GRzSLtubYfq6qC1j51U"
            ]
          }
        }, 
        {
          "value": 0.15935617,
          "n": 1,
          "scriptPubKey": {
            "asm": "OP_DUP OP_HASH160 03e062f76b6813c75f4dc8970b36ba9ebdc76d0f OP_EQUALVERIFY OP_CHECKSIG",
            "hex": "76a91403e062f76b6813c75f4dc8970b36ba9ebdc76d0f88ac",
            "reqSigs": 1,
            "type": "pubkeyhash",
            "addresses": [
              "LKaT6SayBdzYKLpvede1sqf8q6XPapLQsg"
            ]
          }
        }
      ],
      "hex": "0100000001ec56507e86b6f26bdb8429751b2b1d40c5e144c7aa7125f3bd9dcd056e264929000000006b483045022100cd1f6fe24334bd1f3f19a6b0a0e18ce125b21493bee803364e8234ce0b1d2c4d022043f1a206cefbe6374e84af30edaa5a0318754c571ed2ef524bc665c63531f28a0121039e4caead5728fbc434d5252efbb7a60fb60308e32dac3975f6e1541e1a4af1d9ffffffff021d78af0a000000001976a914e70575dc0dfd6ef9e62160d9f7028e38f5f6dd6c88ac8128f300000000001976a91403e062f76b6813c75f4dc8970b36ba9ebdc76d0f88ac00000000"
    }, 
    {
      "txid": "99905abb51a87297b4fdab4945c9bc85d5e9c10889823e84963d28d9d611cdf9",
      "hash": "99905abb51a87297b4fdab4945c9bc85d5e9c10889823e84963d28d9d611cdf9",
      "version": 1,
      "size": 226,
      "vsize": 226,
      "locktime": 0,
      "vin": [
        {
          "txid": "f27754d6abc95eb33a10eccce124099233f2df027ca8108a2946bd7e4fa55ae0",
          "vout": 0,
          "scriptSig": {
            "asm": "3045022100e063ee8489d4fed9f6843891447db6cf836851afdf6a04f9e8f026d167eb5bc902203a063d75fbc4079b2c4cc9ffec34190bfa5db0011e068fae9b8f1489bacf5510[ALL] 03e7ad4f3d9a52f1cec78320c7ac56a5997fa1237005eacb6563b206d7fdac9245",
            "hex": "483045022100e063ee8489d4fed9f6843891447db6cf836851afdf6a04f9e8f026d167eb5bc902203a063d75fbc4079b2c4cc9ffec34190bfa5db0011e068fae9b8f1489bacf5510012103e7ad4f3d9a52f1cec78320c7ac56a5997fa1237005eacb6563b206d7fdac9245"
          },
          "sequence": 4294967295
        }
      ],
      "vout": [
        {
          "value": 1.69919313,
          "n": 0,
          "scriptPubKey": {
            "asm": "OP_DUP OP_HASH160 87a3d8e7548308b1cae5c7f29803bf7ddd043250 OP_EQUALVERIFY OP_CHECKSIG",
            "hex": "76a91487a3d8e7548308b1cae5c7f29803bf7ddd04325088ac",
            "reqSigs": 1,
            "type": "pubkeyhash",
            "addresses": [
              "LXb9mREmR9KAyjnDDp7qCL5eFSmC7zbTSe"
            ]
          }
        }, 
        {
          "value": 4.08621077,
          "n": 1,
          "scriptPubKey": {
            "asm": "OP_DUP OP_HASH160 e0fa18e21113ba069c15b7396978bf2e63541bff OP_EQUALVERIFY OP_CHECKSIG",
            "hex": "76a914e0fa18e21113ba069c15b7396978bf2e63541bff88ac",
            "reqSigs": 1,
            "type": "pubkeyhash",
            "addresses": [
              "LfjXEEwH1p6U4oMHveARnsTNyoxdCqwA5x"
            ]
          }
        }
      ],
      "hex": "0100000001e05aa54f7ebd46298a10a87c02dff233920924e1ccec103ab35ec9abd65477f2000000006b483045022100e063ee8489d4fed9f6843891447db6cf836851afdf6a04f9e8f026d167eb5bc902203a063d75fbc4079b2c4cc9ffec34190bfa5db0011e068fae9b8f1489bacf5510012103e7ad4f3d9a52f1cec78320c7ac56a5997fa1237005eacb6563b206d7fdac9245ffffffff0251c3200a000000001976a91487a3d8e7548308b1cae5c7f29803bf7ddd04325088ac15105b18000000001976a914e0fa18e21113ba069c15b7396978bf2e63541bff88ac00000000"
    }
  ],
  "time": 1517267050,
  "mediantime": 1517266824,
  "nonce": 1367602179,
  "bits": "1a042eae",
  "difficulty": 4011378.762614286,
  "chainwork": "000000000000000000000000000000000000000000000033e416b40f9132902a",
  "previousblockhash": "8ee8b3476b73973e6843946d9d4fa499d5d7bd1a5d29e93e19d4c3ed1edbf44e",
  "nextblockhash": "ea420ae6f9bd64a6afbbe83a0a1e0777578c897de7f9959aa995f0e674456ddb"
}
