{
  "hash": "76d3d993ef9718cb0539e4947f3109b9cd3299e2ec2b0b6b8a8ce64a103f9a5a",
  "confirmations": 2084,
  "strippedsize": 255,
  "size": 255,
  "weight": 1020,
  "height": 1358910,
  "version": 536870912,
  "versionHex": "20000000",
  "merkleroot": "5ef8a88055f40927bc2deb47950d82803fced419220ca3d727fae9e723629a1b",
  "tx": [
    {
      "txid": "5ef8a88055f40927bc2deb47950d82803fced419220ca3d727fae9e723629a1b",
      "hash": "5ef8a88055f40927bc2deb47950d82803fced419220ca3d727fae9e723629a1b",
      "version": 1,
      "size": 174,
      "vsize": 174,
      "locktime": 0,
      "vin": [
        {
          "coinbase": "033ebc141c4d696e656420627920416e74506f6f6c20626a3242205a6ec92a049efabe6d6db932d9af7e2b7cc6a74d47622182fd04b7e96d60d810ae31a240802c0a0f596a0400000000000000a2050000000000000f000000",
          "sequence": 4294967295
        }
      ],
      "vout": [
        {
          "value": 25.00000000,
          "n": 0,
          "scriptPubKey": {
            "asm": "OP_DUP OP_HASH160 0ff3ccc5e8be88afe24b5d634e5852d474dbdff1 OP_EQUALVERIFY OP_CHECKSIG",
            "hex": "76a9140ff3ccc5e8be88afe24b5d634e5852d474dbdff188ac",
            "reqSigs": 1,
            "type": "pubkeyhash",
            "addresses": [
              "LLgJTbzZMsRTCUF1NtvvL9SR1a4pVieW89"
            ]
          }
        }
      ],
      "hex": "01000000010000000000000000000000000000000000000000000000000000000000000000ffffffff59033ebc141c4d696e656420627920416e74506f6f6c20626a3242205a6ec92a049efabe6d6db932d9af7e2b7cc6a74d47622182fd04b7e96d60d810ae31a240802c0a0f596a0400000000000000a2050000000000000f000000ffffffff0100f90295000000001976a9140ff3ccc5e8be88afe24b5d634e5852d474dbdff188ac00000000"
    }
  ],
  "time": 1517209898,
  "mediantime": 1517209117,
  "nonce": 501566265,
  "bits": "1a042eae",
  "difficulty": 4011378.762614286,
  "chainwork": "00000000000000000000000000000000000000000000003383038efacd09bbfe",
  "previousblockhash": "c82b9c7dea7bd1bad81c3838e62624309d4dc19f3fafc2bb05c8a1beb4ca8dcc",
  "nextblockhash": "39db97c601d9d7f5fd3b97d5bd60b1517ac0ecc515ee7d6e41760f3f4ded8131"
}
