{
  "hash": "7782b189787455342be2e91fc6bd8d7f88140966e10f812e809007ff3596cfd5",
  "confirmations": 3240,
  "strippedsize": 234,
  "size": 234,
  "weight": 936,
  "height": 1357755,
  "version": 536870912,
  "versionHex": "20000000",
  "merkleroot": "942430b986e95e781029b380671e21303d4055d2188f5a8a8a464a3118c61aa6",
  "tx": [
    {
      "txid": "942430b986e95e781029b380671e21303d4055d2188f5a8a8a464a3118c61aa6",
      "hash": "942430b986e95e781029b380671e21303d4055d2188f5a8a8a464a3118c61aa6",
      "version": 1,
      "size": 153,
      "vsize": 153,
      "locktime": 0,
      "vin": [
        {
          "coinbase": "03bbb714045a6c42302cfabe6d6d26105da3b5879332aed46de19cd6328e7418e6a18cb0c12eb2945a8e59e6a0194000000000000000042f4c502f0816009f6501000000",
          "sequence": 4294967295
        }
      ],
      "vout": [
        {
          "value": 25.00000000,
          "n": 0,
          "scriptPubKey": {
            "asm": "OP_DUP OP_HASH160 57757ed2ecf2052ff3126c397aca7defb9ca2cec OP_EQUALVERIFY OP_CHECKSIG",
            "hex": "76a91457757ed2ecf2052ff3126c397aca7defb9ca2cec88ac",
            "reqSigs": 1,
            "type": "pubkeyhash",
            "addresses": [
              "LTCPodGk5FwcJaRzH9yKnwicxzFUbxp6tN"
            ]
          }
        }
      ],
      "hex": "01000000010000000000000000000000000000000000000000000000000000000000000000ffffffff4403bbb714045a6c42302cfabe6d6d26105da3b5879332aed46de19cd6328e7418e6a18cb0c12eb2945a8e59e6a0194000000000000000042f4c502f0816009f6501000000ffffffff0100f90295000000001976a91457757ed2ecf2052ff3126c397aca7defb9ca2cec88ac00000000"
    }
  ],
  "time": 1517044272,
  "mediantime": 1517043301,
  "nonce": 1877419591,
  "bits": "1a047f14",
  "difficulty": 3731199.183374282,
  "chainwork": "00000000000000000000000000000000000000000000003280054f5531084c18",
  "previousblockhash": "9338786f271cb9fc804b0906fb54fda42654464c4732a65e44921490bc495eee",
  "nextblockhash": "0624c4878a7dafe33969151f5ad6dfe3512a08439d79759026b3b565c72d799c"
}
