{
  "hash": "77e13f46032838a7ac29ffe7648b44928ab2792a1c60d38166a3f4220d25a67a",
  "confirmations": 3288,
  "strippedsize": 2419,
  "size": 2455,
  "weight": 9712,
  "height": 1357707,
  "version": 536870912,
  "versionHex": "20000000",
  "merkleroot": "c8ee90efb69143bba7ffda9b9d32a4d5ae007888837cae18811d92405d792cbb",
  "tx": [
    {
      "txid": "1e0abbf828ad72da221023f479f83b76adf46a45b9ad4c97e2d61ba96b350d34",
      "hash": "c6a63f8cdcc02edbd795e83af2af2ac6f7e397f67b8c592ef15da11843746747",
      "version": 1,
      "size": 243,
      "vsize": 216,
      "locktime": 0,
      "vin": [
        {
          "coinbase": "038bb71404c9266c5afabe6d6d1b8eca30971682cdf5158cfc67d816af3fc45f1fa56170229cfcbb17a0a293be100000000000000008500002762d0000000c2f413458565641464c52362f",
          "sequence": 0
        }
      ],
      "vout": [
        {
          "value": 25.00579600,
          "n": 0,
          "scriptPubKey": {
            "asm": "OP_DUP OP_HASH160 81308472f5a29a68cec40cbb4cd3f4be72094456 OP_EQUALVERIFY OP_CHECKSIG",
            "hex": "76a91481308472f5a29a68cec40cbb4cd3f4be7209445688ac",
            "reqSigs": 1,
            "type": "pubkeyhash",
            "addresses": [
              "LX13Z1HZKVzRDabi8CsPdGhp7YbC7Q8qtn"
            ]
          }
        }, 
        {
          "value": 0.00000000,
          "n": 1,
          "scriptPubKey": {
            "asm": "OP_RETURN aa21a9ed34a848f9bd722e4cdc61191197d19841acc4b62ed78fa90d2b24357184cb1b30",
            "hex": "6a24aa21a9ed34a848f9bd722e4cdc61191197d19841acc4b62ed78fa90d2b24357184cb1b30",
            "type": "nulldata"
          }
        }
      ],
      "hex": "010000000001010000000000000000000000000000000000000000000000000000000000000000ffffffff4b038bb71404c9266c5afabe6d6d1b8eca30971682cdf5158cfc67d816af3fc45f1fa56170229cfcbb17a0a293be100000000000000008500002762d0000000c2f413458565641464c52362f000000000210d10b95000000001976a91481308472f5a29a68cec40cbb4cd3f4be7209445688ac0000000000000000266a24aa21a9ed34a848f9bd722e4cdc61191197d19841acc4b62ed78fa90d2b24357184cb1b300120000000000000000000000000000000000000000000000000000000000000000000000000"
    }, 
    {
      "txid": "d94546ac69fd92df82a6b819dd2c86e2acf7b6e7d1e83f67254199599d03ab45",
      "hash": "d94546ac69fd92df82a6b819dd2c86e2acf7b6e7d1e83f67254199599d03ab45",
      "version": 1,
      "size": 225,
      "vsize": 225,
      "locktime": 0,
      "vin": [
        {
          "txid": "d4d03983cd5373103f6004f5cf957658914a4ab5b12fd825453bac57a482b44d",
          "vout": 1,
          "scriptSig": {
            "asm": "304402205028df5090414eb8a2c9c9b9eeb46c894278d5678ad39872151fc5f65426a63802206f3fe5c3b6f871e474879b26093fd57848c2139d15677ed445e474355b5ea167[ALL] 02036cff53eaf3f0a369e72e6feda29a22836ee67cc1a01c61164d921c5d73371d",
            "hex": "47304402205028df5090414eb8a2c9c9b9eeb46c894278d5678ad39872151fc5f65426a63802206f3fe5c3b6f871e474879b26093fd57848c2139d15677ed445e474355b5ea167012102036cff53eaf3f0a369e72e6feda29a22836ee67cc1a01c61164d921c5d73371d"
          },
          "sequence": 4294967295
        }
      ],
      "vout": [
        {
          "value": 0.13782648,
          "n": 0,
          "scriptPubKey": {
            "asm": "OP_DUP OP_HASH160 94d71706c7bf3a5561f64a92396a5bcaf6d55040 OP_EQUALVERIFY OP_CHECKSIG",
            "hex": "76a91494d71706c7bf3a5561f64a92396a5bcaf6d5504088ac",
            "reqSigs": 1,
            "type": "pubkeyhash",
            "addresses": [
              "LYnwwKFQuDL2m1Vc66NDp7UhjTqEdesWXB"
            ]
          }
        }, 
        {
          "value": 3.41575630,
          "n": 1,
          "scriptPubKey": {
            "asm": "OP_DUP OP_HASH160 7b4bbe0b10a1ba240bae15df4fe647291170c489 OP_EQUALVERIFY OP_CHECKSIG",
            "hex": "76a9147b4bbe0b10a1ba240bae15df4fe647291170c48988ac",
            "reqSigs": 1,
            "type": "pubkeyhash",
            "addresses": [
              "LWTt7UkjTxyjDx7eETgTWfHNW3FWK297KR"
            ]
          }
        }
      ],
      "hex": "01000000014db482a457ac3b4525d82fb1b54a4a91587695cff504603f107353cd8339d0d4010000006a47304402205028df5090414eb8a2c9c9b9eeb46c894278d5678ad39872151fc5f65426a63802206f3fe5c3b6f871e474879b26093fd57848c2139d15677ed445e474355b5ea167012102036cff53eaf3f0a369e72e6feda29a22836ee67cc1a01c61164d921c5d73371dffffffff02784ed200000000001976a91494d71706c7bf3a5561f64a92396a5bcaf6d5504088acce075c14000000001976a9147b4bbe0b10a1ba240bae15df4fe647291170c48988ac00000000"
    }, 
    {
      "txid": "fcab72c10dbc097fc532c4362ac800195e7d828ce015e7d63c2ec24026b8d4b7",
      "hash": "fcab72c10dbc097fc532c4362ac800195e7d828ce015e7d63c2ec24026b8d4b7",
      "version": 1,
      "size": 335,
      "vsize": 335,
      "locktime": 0,
      "vin": [
        {
          "txid": "9db1d534cdd19c78bd1dd3dca729d74728215dcd750ecb56533ff8972e34d8d6",
          "vout": 1,
          "scriptSig": {
            "asm": "0 3045022100d57991c2782a4c585c084955f48abeefea025ca4af6c4b2c3e05bf895e62ee8002203e26ec2b3caf557e1b4cb18afd42f76dedc8bd075eb209f9d63a5dfe25e46a96[ALL] 304402207d17917ab16f0920135d9fbbfb8dccb67da04424e3a5f9b24eb3528b144ae7c2022038cb9cbc41cd29513d74d0bb7f76be892378a2658131f471da8eb55d052be21a[ALL] 522102f77ec37a042ba4e5e6aef7760398bf59b87ac4c5dee30a2fb8798e9630d4916e210276b93401dc495b28592f66411a7c9093b468f8678db51144fc6a36f550d94aa952ae",
            "hex": "00483045022100d57991c2782a4c585c084955f48abeefea025ca4af6c4b2c3e05bf895e62ee8002203e26ec2b3caf557e1b4cb18afd42f76dedc8bd075eb209f9d63a5dfe25e46a960147304402207d17917ab16f0920135d9fbbfb8dccb67da04424e3a5f9b24eb3528b144ae7c2022038cb9cbc41cd29513d74d0bb7f76be892378a2658131f471da8eb55d052be21a0147522102f77ec37a042ba4e5e6aef7760398bf59b87ac4c5dee30a2fb8798e9630d4916e210276b93401dc495b28592f66411a7c9093b468f8678db51144fc6a36f550d94aa952ae"
          },
          "sequence": 4294967295
        }
      ],
      "vout": [
        {
          "value": 0.08158600,
          "n": 0,
          "scriptPubKey": {
            "asm": "OP_DUP OP_HASH160 09a3b7b0bf8fec26fa4d38263911d2c46e1f2647 OP_EQUALVERIFY OP_CHECKSIG",
            "hex": "76a91409a3b7b0bf8fec26fa4d38263911d2c46e1f264788ac",
            "reqSigs": 1,
            "type": "pubkeyhash",
            "addresses": [
              "LL6vUEWDFojzq2KbBFe5ST8F6KM9jB2sEC"
            ]
          }
        }, 
        {
          "value": 34.00708600,
          "n": 1,
          "scriptPubKey": {
            "asm": "OP_HASH160 75b77316f8d91ff71fb2819115d1b6b9e80ccee9 OP_EQUAL",
            "hex": "a91475b77316f8d91ff71fb2819115d1b6b9e80ccee987",
            "reqSigs": 1,
            "type": "scripthash",
            "addresses": [
              "MJdb4B3BMDrfpB1FpKsPYQ1tDHdkNa1oLB"
            ]
          }
        }
      ],
      "hex": "0100000001d6d8342e97f83f5356cb0e75cd5d212847d729a7dcd31dbd789cd1cd34d5b19d01000000da00483045022100d57991c2782a4c585c084955f48abeefea025ca4af6c4b2c3e05bf895e62ee8002203e26ec2b3caf557e1b4cb18afd42f76dedc8bd075eb209f9d63a5dfe25e46a960147304402207d17917ab16f0920135d9fbbfb8dccb67da04424e3a5f9b24eb3528b144ae7c2022038cb9cbc41cd29513d74d0bb7f76be892378a2658131f471da8eb55d052be21a0147522102f77ec37a042ba4e5e6aef7760398bf59b87ac4c5dee30a2fb8798e9630d4916e210276b93401dc495b28592f66411a7c9093b468f8678db51144fc6a36f550d94aa952aeffffffff02887d7c00000000001976a91409a3b7b0bf8fec26fa4d38263911d2c46e1f264788acf8b1b2ca0000000017a91475b77316f8d91ff71fb2819115d1b6b9e80ccee98700000000"
    }, 
    {
      "txid": "12e3d34aef1bb3263979db39f668ffebb8186ac0be632ae7d91187313dba1850",
      "hash": "12e3d34aef1bb3263979db39f668ffebb8186ac0be632ae7d91187313dba1850",
      "version": 2,
      "size": 225,
      "vsize": 225,
      "locktime": 1357705,
      "vin": [
        {
          "txid": "277aeaf1fa349a8c7455dfdbd4c04ef962657d73b18c547e98b8d1b26eb050d3",
          "vout": 0,
          "scriptSig": {
            "asm": "304402201be9bc0663315e48cd3ef0819c4828c8424991fda309cd46bcecef27a6b80be1022064d850b2b1d6217629f6df77fe2e15ef852ca1c346cfa2e96c10a49a32af7660[ALL] 02d68292076d2a649fcb0ba7b8738f915f9841b520b4d1412e78e9b0ba17f417b0",
            "hex": "47304402201be9bc0663315e48cd3ef0819c4828c8424991fda309cd46bcecef27a6b80be1022064d850b2b1d6217629f6df77fe2e15ef852ca1c346cfa2e96c10a49a32af7660012102d68292076d2a649fcb0ba7b8738f915f9841b520b4d1412e78e9b0ba17f417b0"
          },
          "sequence": 4294967294
        }
      ],
      "vout": [
        {
          "value": 0.12592896,
          "n": 0,
          "scriptPubKey": {
            "asm": "OP_DUP OP_HASH160 6f1d1eaa781403918e05f1c817b3ae3f376faebd OP_EQUALVERIFY OP_CHECKSIG",
            "hex": "76a9146f1d1eaa781403918e05f1c817b3ae3f376faebd88ac",
            "reqSigs": 1,
            "type": "pubkeyhash",
            "addresses": [
              "LVMU9nTZnjHrYyPSxAkPCoB9HMr6TUJKzf"
            ]
          }
        }, 
        {
          "value": 0.08401522,
          "n": 1,
          "scriptPubKey": {
            "asm": "OP_DUP OP_HASH160 cfc7e2f8c4953a47a7d116b310a8e04eba2e9e23 OP_EQUALVERIFY OP_CHECKSIG",
            "hex": "76a914cfc7e2f8c4953a47a7d116b310a8e04eba2e9e2388ac",
            "reqSigs": 1,
            "type": "pubkeyhash",
            "addresses": [
              "LeAbbHbXFwSRapkeyF8PhTwRJjC2RtKudX"
            ]
          }
        }
      ],
      "hex": "0200000001d350b06eb2d1b8987e548cb1737d6562f94ec0d4dbdf55748c9a34faf1ea7a27000000006a47304402201be9bc0663315e48cd3ef0819c4828c8424991fda309cd46bcecef27a6b80be1022064d850b2b1d6217629f6df77fe2e15ef852ca1c346cfa2e96c10a49a32af7660012102d68292076d2a649fcb0ba7b8738f915f9841b520b4d1412e78e9b0ba17f417b0feffffff020027c000000000001976a9146f1d1eaa781403918e05f1c817b3ae3f376faebd88ac72328000000000001976a914cfc7e2f8c4953a47a7d116b310a8e04eba2e9e2388ac89b71400"
    }, 
    {
      "txid": "79008469a06e50b84a188a99ed5a6bc483c098d5935e0520d8c2fea5417d37eb",
      "hash": "79008469a06e50b84a188a99ed5a6bc483c098d5935e0520d8c2fea5417d37eb",
      "version": 2,
      "size": 669,
      "vsize": 669,
      "locktime": 1357705,
      "vin": [
        {
          "txid": "bb568b1844898d3d52dea717636ce3ce59cbfdbdd26ef6507828b8c1c6be7727",
          "vout": 1,
          "scriptSig": {
            "asm": "3045022100b88b85e631013efd2b97d57e0732173350f583e98c98b528288665a3dcdaceb302201798ab44cb69889d2dd34bfb8945f73d1c1b31af294eccdf0a307a9208c9a438[ALL] 031a1653844ad57266c8aeb77b79943dc94a6d5b0ffcf90a537deb3e4d851ec2a8",
            "hex": "483045022100b88b85e631013efd2b97d57e0732173350f583e98c98b528288665a3dcdaceb302201798ab44cb69889d2dd34bfb8945f73d1c1b31af294eccdf0a307a9208c9a4380121031a1653844ad57266c8aeb77b79943dc94a6d5b0ffcf90a537deb3e4d851ec2a8"
          },
          "sequence": 4294967294
        }, 
        {
          "txid": "4365f9ed3607e493c10888ece3018d814978311d2a0814ba207b8bd440066041",
          "vout": 1,
          "scriptSig": {
            "asm": "30440220577178c8b4b4ce7cddb825f588c3c3de4a58e0e7422442a1d65d8969c2160b9902201feb9e1a3cbb839408db8684cb6e62a526a35cccfbb62d884602fb67a11d558e[ALL] 0251c39030ac4fc4f60e656092de5c2b8e26f88579716d9e63999f486114db77c8",
            "hex": "4730440220577178c8b4b4ce7cddb825f588c3c3de4a58e0e7422442a1d65d8969c2160b9902201feb9e1a3cbb839408db8684cb6e62a526a35cccfbb62d884602fb67a11d558e01210251c39030ac4fc4f60e656092de5c2b8e26f88579716d9e63999f486114db77c8"
          },
          "sequence": 4294967294
        }, 
        {
          "txid": "b18135cdca3eb857c9a6c30331b40587e64f5a66b0d5cce26e888fec431fb1d9",
          "vout": 0,
          "scriptSig": {
            "asm": "3045022100a426e00f5f41f5b33addea50a8cd11a3a62e72e0b656e104100d0b9e1086edf2022058c83cf5576288273eec542302f109f3c5098866f18100b14785e0d67375e4c2[ALL] 03454a07dc086452d1c68def6720786805f78a999d8eefd44259775981a361cc52",
            "hex": "483045022100a426e00f5f41f5b33addea50a8cd11a3a62e72e0b656e104100d0b9e1086edf2022058c83cf5576288273eec542302f109f3c5098866f18100b14785e0d67375e4c2012103454a07dc086452d1c68def6720786805f78a999d8eefd44259775981a361cc52"
          },
          "sequence": 4294967294
        }, 
        {
          "txid": "8d230d69b181b123ecc2a51dbfeb220c9695f1b7c23cdd7ec2f064e7ecff9753",
          "vout": 0,
          "scriptSig": {
            "asm": "3045022100958423ac2a66841dce8e42d58cdba1e381b31787a07fc12792cb0d0931b88fc00220749634bf3a9f84542daf379f5653bb45f7295211692da9e95f246d548f15a900[ALL] 0388be4c69cf5d8ce9183e6cce9bb6df7a66c93fe8d0e46023e18fb98d77052dfd",
            "hex": "483045022100958423ac2a66841dce8e42d58cdba1e381b31787a07fc12792cb0d0931b88fc00220749634bf3a9f84542daf379f5653bb45f7295211692da9e95f246d548f15a90001210388be4c69cf5d8ce9183e6cce9bb6df7a66c93fe8d0e46023e18fb98d77052dfd"
          },
          "sequence": 4294967294
        }
      ],
      "vout": [
        {
          "value": 0.49800000,
          "n": 0,
          "scriptPubKey": {
            "asm": "OP_DUP OP_HASH160 d7b426e7d39b39d94f3de27be6f94fe2ad60e6ed OP_EQUALVERIFY OP_CHECKSIG",
            "hex": "76a914d7b426e7d39b39d94f3de27be6f94fe2ad60e6ed88ac",
            "reqSigs": 1,
            "type": "pubkeyhash",
            "addresses": [
              "LetVMdo6iahFh1p5Wfs5PgLN5Qs7wGvgVB"
            ]
          }
        }, 
        {
          "value": 0.01033003,
          "n": 1,
          "scriptPubKey": {
            "asm": "OP_DUP OP_HASH160 e6791e64001ecaf62d550783cd5a1c41148375a2 OP_EQUALVERIFY OP_CHECKSIG",
            "hex": "76a914e6791e64001ecaf62d550783cd5a1c41148375a288ac",
            "reqSigs": 1,
            "type": "pubkeyhash",
            "addresses": [
              "LgEamovFPjhudwbm1d9T2DEdNcyTgHUniq"
            ]
          }
        }
      ],
      "hex": "02000000042777bec6c1b8287850f66ed2bdfdcb59cee36c6317a7de523d8d8944188b56bb010000006b483045022100b88b85e631013efd2b97d57e0732173350f583e98c98b528288665a3dcdaceb302201798ab44cb69889d2dd34bfb8945f73d1c1b31af294eccdf0a307a9208c9a4380121031a1653844ad57266c8aeb77b79943dc94a6d5b0ffcf90a537deb3e4d851ec2a8feffffff41600640d48b7b20ba14082a1d317849818d01e3ec8808c193e40736edf96543010000006a4730440220577178c8b4b4ce7cddb825f588c3c3de4a58e0e7422442a1d65d8969c2160b9902201feb9e1a3cbb839408db8684cb6e62a526a35cccfbb62d884602fb67a11d558e01210251c39030ac4fc4f60e656092de5c2b8e26f88579716d9e63999f486114db77c8feffffffd9b11f43ec8f886ee2ccd5b0665a4fe68705b43103c3a6c957b83ecacd3581b1000000006b483045022100a426e00f5f41f5b33addea50a8cd11a3a62e72e0b656e104100d0b9e1086edf2022058c83cf5576288273eec542302f109f3c5098866f18100b14785e0d67375e4c2012103454a07dc086452d1c68def6720786805f78a999d8eefd44259775981a361cc52feffffff5397ffece764f0c27edd3cc2b7f195960c22ebbf1da5c2ec23b181b1690d238d000000006b483045022100958423ac2a66841dce8e42d58cdba1e381b31787a07fc12792cb0d0931b88fc00220749634bf3a9f84542daf379f5653bb45f7295211692da9e95f246d548f15a90001210388be4c69cf5d8ce9183e6cce9bb6df7a66c93fe8d0e46023e18fb98d77052dfdfeffffff0240e3f702000000001976a914d7b426e7d39b39d94f3de27be6f94fe2ad60e6ed88ac2bc30f00000000001976a914e6791e64001ecaf62d550783cd5a1c41148375a288ac89b71400"
    }, 
    {
      "txid": "10dae5d2eb4a84c116a499fa72e52d2cede7b801ccab495874e0525a3adf7b34",
      "hash": "10dae5d2eb4a84c116a499fa72e52d2cede7b801ccab495874e0525a3adf7b34",
      "version": 1,
      "size": 226,
      "vsize": 226,
      "locktime": 0,
      "vin": [
        {
          "txid": "9c2ea30b28ccf52df73b85866474b23c951ea3497186fd7d64b5df1d9c8d3b04",
          "vout": 1,
          "scriptSig": {
            "asm": "3045022100f28fd52cb98f3e76e79dcddbc6f6acd50f91775de07bc54d5bb97f470b2674cc022049293cf8767012c8b23b13588c9b2f05ec377cd23ba4e45dc82264625681b689[ALL] 03e5bed645c0c1e7a3b217d15b638bc07f6c45d162b5afca2b6fe37b1f54a78a9b",
            "hex": "483045022100f28fd52cb98f3e76e79dcddbc6f6acd50f91775de07bc54d5bb97f470b2674cc022049293cf8767012c8b23b13588c9b2f05ec377cd23ba4e45dc82264625681b689012103e5bed645c0c1e7a3b217d15b638bc07f6c45d162b5afca2b6fe37b1f54a78a9b"
          },
          "sequence": 4294967295
        }
      ],
      "vout": [
        {
          "value": 4.73734000,
          "n": 0,
          "scriptPubKey": {
            "asm": "OP_DUP OP_HASH160 e14e4997281be4ad81fc1c7d5a2f55e1b01d4c73 OP_EQUALVERIFY OP_CHECKSIG",
            "hex": "76a914e14e4997281be4ad81fc1c7d5a2f55e1b01d4c7388ac",
            "reqSigs": 1,
            "type": "pubkeyhash",
            "addresses": [
              "LfmG5tB6Zp7YRycmMb5i3g35rKic8aVjPX"
            ]
          }
        }, 
        {
          "value": 66.89098588,
          "n": 1,
          "scriptPubKey": {
            "asm": "OP_DUP OP_HASH160 a7ebeead5b27eb4afe4928397a6cafa5fc50f9d0 OP_EQUALVERIFY OP_CHECKSIG",
            "hex": "76a914a7ebeead5b27eb4afe4928397a6cafa5fc50f9d088ac",
            "reqSigs": 1,
            "type": "pubkeyhash",
            "addresses": [
              "LaXqk7bcri77jTmntujmGTSPqKi5iFfFia"
            ]
          }
        }
      ],
      "hex": "0100000001043b8d9c1ddfb5647dfd867149a31e953cb2746486853bf72df5cc280ba32e9c010000006b483045022100f28fd52cb98f3e76e79dcddbc6f6acd50f91775de07bc54d5bb97f470b2674cc022049293cf8767012c8b23b13588c9b2f05ec377cd23ba4e45dc82264625681b689012103e5bed645c0c1e7a3b217d15b638bc07f6c45d162b5afca2b6fe37b1f54a78a9bffffffff02709b3c1c000000001976a914e14e4997281be4ad81fc1c7d5a2f55e1b01d4c7388ac5c8bb38e010000001976a914a7ebeead5b27eb4afe4928397a6cafa5fc50f9d088ac00000000"
    }, 
    {
      "txid": "d4dbf9ab0a8d9de2f3857f63ef16bfa108efaee66abfa42a7ffa957f4988edc9",
      "hash": "d4dbf9ab0a8d9de2f3857f63ef16bfa108efaee66abfa42a7ffa957f4988edc9",
      "version": 2,
      "size": 226,
      "vsize": 226,
      "locktime": 1357705,
      "vin": [
        {
          "txid": "27c085e7a83b43adb62fbc430e6dbad9d9bfb7ad75705229489512edd68192c4",
          "vout": 0,
          "scriptSig": {
            "asm": "3045022100f4f51dedad2ac7821291d3464c55fa71184d864b78389e602dec72291eed1faa0220204237dcf1e6c8ae0d0cc0d251583e88fd3761456a3f549332548b8cb1699134[ALL] 036e60c5bec77cbcfd158f97ee76b884023e475c4c4ebbdc41e0c6bd01268d8c9f",
            "hex": "483045022100f4f51dedad2ac7821291d3464c55fa71184d864b78389e602dec72291eed1faa0220204237dcf1e6c8ae0d0cc0d251583e88fd3761456a3f549332548b8cb16991340121036e60c5bec77cbcfd158f97ee76b884023e475c4c4ebbdc41e0c6bd01268d8c9f"
          },
          "sequence": 4294967294
        }
      ],
      "vout": [
        {
          "value": 8.66127300,
          "n": 0,
          "scriptPubKey": {
            "asm": "OP_DUP OP_HASH160 f292da319355ee0cb9d493b1120c46dd2e8e822b OP_EQUALVERIFY OP_CHECKSIG",
            "hex": "76a914f292da319355ee0cb9d493b1120c46dd2e8e822b88ac",
            "reqSigs": 1,
            "type": "pubkeyhash",
            "addresses": [
              "LhLZi7ZfbA35UFGFBvc9DXVwgt4g6ozLrg"
            ]
          }
        }, 
        {
          "value": 0.32827500,
          "n": 1,
          "scriptPubKey": {
            "asm": "OP_DUP OP_HASH160 c9f0a23d0aafb132107df34d2c3f00403d24d200 OP_EQUALVERIFY OP_CHECKSIG",
            "hex": "76a914c9f0a23d0aafb132107df34d2c3f00403d24d20088ac",
            "reqSigs": 1,
            "type": "pubkeyhash",
            "addresses": [
              "LddiMJ9ugaXA9BQmYkBBbLbr7yipjkKpKG"
            ]
          }
        }
      ],
      "hex": "0200000001c49281d6ed12954829527075adb7bfd9d9ba6d0e43bc2fb6ad433ba8e785c027000000006b483045022100f4f51dedad2ac7821291d3464c55fa71184d864b78389e602dec72291eed1faa0220204237dcf1e6c8ae0d0cc0d251583e88fd3761456a3f549332548b8cb16991340121036e60c5bec77cbcfd158f97ee76b884023e475c4c4ebbdc41e0c6bd01268d8c9ffeffffff02c40da033000000001976a914f292da319355ee0cb9d493b1120c46dd2e8e822b88ac6ce8f401000000001976a914c9f0a23d0aafb132107df34d2c3f00403d24d20088ac89b71400"
    }, 
    {
      "txid": "d949ddc69a784065500fba85fcf428a9b4d2bbb27ceb9d78e31205cd6e3dc3f7",
      "hash": "d949ddc69a784065500fba85fcf428a9b4d2bbb27ceb9d78e31205cd6e3dc3f7",
      "version": 1,
      "size": 225,
      "vsize": 225,
      "locktime": 1357705,
      "vin": [
        {
          "txid": "dd0c7534f33d539b5c5bd7443b422e81cba050cdb5e541474a079530e4d3b0d6",
          "vout": 0,
          "scriptSig": {
            "asm": "304402204b8b64d33e55a18b36a210d47108f3c3a86718e16c4125ba3e0ad5a78bf46fea022040711d268eed0050b9933b9d25aa1d82f43cfbbb83a1a19dd5a04dd149187827[ALL] 03e6dff4434c3f40f36bd008531ef8922006f7555d67542d2df526bdb5732869f0",
            "hex": "47304402204b8b64d33e55a18b36a210d47108f3c3a86718e16c4125ba3e0ad5a78bf46fea022040711d268eed0050b9933b9d25aa1d82f43cfbbb83a1a19dd5a04dd149187827012103e6dff4434c3f40f36bd008531ef8922006f7555d67542d2df526bdb5732869f0"
          },
          "sequence": 4294967294
        }
      ],
      "vout": [
        {
          "value": 0.01006368,
          "n": 0,
          "scriptPubKey": {
            "asm": "OP_DUP OP_HASH160 9693f682f9f0eebb3f1a91a845f26b333bd0613a OP_EQUALVERIFY OP_CHECKSIG",
            "hex": "76a9149693f682f9f0eebb3f1a91a845f26b333bd0613a88ac",
            "reqSigs": 1,
            "type": "pubkeyhash",
            "addresses": [
              "LYx8sdeLHfUAAL6qKET1RCJWpSU7yALq62"
            ]
          }
        }, 
        {
          "value": 1.10000000,
          "n": 1,
          "scriptPubKey": {
            "asm": "OP_DUP OP_HASH160 7ee433f52c0f8e5589fb0ae0bdc4a2cb6ac21e0b OP_EQUALVERIFY OP_CHECKSIG",
            "hex": "76a9147ee433f52c0f8e5589fb0ae0bdc4a2cb6ac21e0b88ac",
            "reqSigs": 1,
            "type": "pubkeyhash",
            "addresses": [
              "LWntnCk2ehbzszEwg5Zj4qdeFEAZ5QwMqF"
            ]
          }
        }
      ],
      "hex": "0100000001d6b0d3e43095074a4741e5b5cd50a0cb812e423b44d75b5c9b533df334750cdd000000006a47304402204b8b64d33e55a18b36a210d47108f3c3a86718e16c4125ba3e0ad5a78bf46fea022040711d268eed0050b9933b9d25aa1d82f43cfbbb83a1a19dd5a04dd149187827012103e6dff4434c3f40f36bd008531ef8922006f7555d67542d2df526bdb5732869f0feffffff02205b0f00000000001976a9149693f682f9f0eebb3f1a91a845f26b333bd0613a88ac80778e06000000001976a9147ee433f52c0f8e5589fb0ae0bdc4a2cb6ac21e0b88ac89b71400"
    }
  ],
  "time": 1517037204,
  "mediantime": 1517036834,
  "nonce": 2546497294,
  "bits": "1a047f14",
  "difficulty": 3731199.183374282,
  "chainwork": "000000000000000000000000000000000000000000000032755874cf89350738",
  "previousblockhash": "ac1e4c1348a9dfcd22a816f4def1a56a1bc7f7b33bcfb5a3ef77e71524988153",
  "nextblockhash": "d512d7b972e845d0e112ba4f6d37a0daf4727da902c703b8a3e4ed5a82aa9dee"
}
