{
  "hash": "7835189bd496b70c3f759d790f2e78ba62d0457e4979545a4e3ada430a0bb4ab",
  "confirmations": 840,
  "strippedsize": 253,
  "size": 253,
  "weight": 1012,
  "height": 1360154,
  "version": 536870912,
  "versionHex": "20000000",
  "merkleroot": "dc85f6e933a7c37ac57d4aa5bd41bba01181fbe41e8130f59b2cbbc0a6136616",
  "tx": [
    {
      "txid": "dc85f6e933a7c37ac57d4aa5bd41bba01181fbe41e8130f59b2cbbc0a6136616",
      "hash": "dc85f6e933a7c37ac57d4aa5bd41bba01181fbe41e8130f59b2cbbc0a6136616",
      "version": 1,
      "size": 172,
      "vsize": 172,
      "locktime": 0,
      "vin": [
        {
          "coinbase": "031ac1141a4d696e656420627920416e74506f6f6c20626a341e205a716d1ffabe6d6d3b27a391240727e3f36bfc5ab9186682739c1324be804fa01408296a84340d7f0400000000000000583c0000000000000d000000",
          "sequence": 4294967295
        }
      ],
      "vout": [
        {
          "value": 25.00000000,
          "n": 0,
          "scriptPubKey": {
            "asm": "OP_DUP OP_HASH160 0ff3ccc5e8be88afe24b5d634e5852d474dbdff1 OP_EQUALVERIFY OP_CHECKSIG",
            "hex": "76a9140ff3ccc5e8be88afe24b5d634e5852d474dbdff188ac",
            "reqSigs": 1,
            "type": "pubkeyhash",
            "addresses": [
              "LLgJTbzZMsRTCUF1NtvvL9SR1a4pVieW89"
            ]
          }
        }
      ],
      "hex": "01000000010000000000000000000000000000000000000000000000000000000000000000ffffffff57031ac1141a4d696e656420627920416e74506f6f6c20626a341e205a716d1ffabe6d6d3b27a391240727e3f36bfc5ab9186682739c1324be804fa01408296a84340d7f0400000000000000583c0000000000000d000000ffffffff0100f90295000000001976a9140ff3ccc5e8be88afe24b5d634e5852d474dbdff188ac00000000"
    }
  ],
  "time": 1517382943,
  "mediantime": 1517382161,
  "nonce": 1267266716,
  "bits": "1a042eae",
  "difficulty": 4011378.762614286,
  "chainwork": "000000000000000000000000000000000000000000000034ac74721861596fb6",
  "previousblockhash": "91b7df4d9b5dd20992f138aaa1bb923ebad0d828c9ed88ec53920cbfc39bbd03",
  "nextblockhash": "e4f822070c190a30c91059ccab62204b9fdd3b6c0f2495c64af84e744ad980c7"
}
