{
  "hash": "788ae800e31957186eacc071774d49bef75998794a767194450d497715e39c76",
  "confirmations": 2447,
  "strippedsize": 4380,
  "size": 4633,
  "weight": 17773,
  "height": 1358548,
  "version": 536870912,
  "versionHex": "20000000",
  "merkleroot": "f1ac9b2fe1183eef0b78930e056e653123ed09e893c1e1401e9bf5c151db038a",
  "tx": [
    {
      "txid": "7fe7c88b3439ae28e95f8396ce975b80e61dfe31314098f4a0a452d559296efb",
      "hash": "98b881a1f0c3ffd3727ea46b88e1def2dc93d22e8ca58fdc4c059ad08759b6db",
      "version": 1,
      "size": 253,
      "vsize": 226,
      "locktime": 0,
      "vin": [
        {
          "coinbase": "03d4ba1441d69b7e3eb4e59141d69b7e3e4ae7e92f4c54432e544f502ffabe6d6da0ae736a71371cdf9d58a96aa755ce53a5375de6bef6c45adf53b83f8ff6b1d70100000000000000163065300200000000000000",
          "sequence": 4294967295
        }
      ],
      "vout": [
        {
          "value": 25.00847800,
          "n": 0,
          "scriptPubKey": {
            "asm": "OP_DUP OP_HASH160 0c617fdb2ea42aed30a509595ee21ba3f6688db0 OP_EQUALVERIFY OP_CHECKSIG",
            "hex": "76a9140c617fdb2ea42aed30a509595ee21ba3f6688db088ac",
            "reqSigs": 1,
            "type": "pubkeyhash",
            "addresses": [
              "LLMRAtr3qBje2ySEa3CnZ55LA4TQMWnRY3"
            ]
          }
        }, 
        {
          "value": 0.00000000,
          "n": 1,
          "scriptPubKey": {
            "asm": "OP_RETURN aa21a9ede2ae5ad6c21edd3b0a46d6bd659bb70ee8aafb077761a6e56d6d752d7436a43f",
            "hex": "6a24aa21a9ede2ae5ad6c21edd3b0a46d6bd659bb70ee8aafb077761a6e56d6d752d7436a43f",
            "type": "nulldata"
          }
        }
      ],
      "hex": "010000000001010000000000000000000000000000000000000000000000000000000000000000ffffffff5503d4ba1441d69b7e3eb4e59141d69b7e3e4ae7e92f4c54432e544f502ffabe6d6da0ae736a71371cdf9d58a96aa755ce53a5375de6bef6c45adf53b83f8ff6b1d70100000000000000163065300200000000000000ffffffff02b8e80f95000000001976a9140c617fdb2ea42aed30a509595ee21ba3f6688db088ac0000000000000000266a24aa21a9ede2ae5ad6c21edd3b0a46d6bd659bb70ee8aafb077761a6e56d6d752d7436a43f0120000000000000000000000000000000000000000000000000000000000000000000000000"
    }, 
    {
      "txid": "29d057dc3ef2eaf96c2f5c2a1c9e8a8dce0bb9568185e745bc8bd23abbd368ca",
      "hash": "29d057dc3ef2eaf96c2f5c2a1c9e8a8dce0bb9568185e745bc8bd23abbd368ca",
      "version": 1,
      "size": 192,
      "vsize": 192,
      "locktime": 0,
      "vin": [
        {
          "txid": "229f9e2b5961d137faec4565d1de232eb3cd73cda1586bbe8e60d0cc65770c56",
          "vout": 1,
          "scriptSig": {
            "asm": "3045022100ec82b9f7f32c3b5ac9a1ff93b3fd9cfe3581c32656b8d266a69061ba9da9cc8a022012437bca2f9dbe3ab17b785804b553acd03f6ac8a9189cae6e37ef03c4e8baf3[ALL] 0298763a80631ba671b6bb501b2d0b8043af28d97adbf31722cac9ea76a3ac166f",
            "hex": "483045022100ec82b9f7f32c3b5ac9a1ff93b3fd9cfe3581c32656b8d266a69061ba9da9cc8a022012437bca2f9dbe3ab17b785804b553acd03f6ac8a9189cae6e37ef03c4e8baf301210298763a80631ba671b6bb501b2d0b8043af28d97adbf31722cac9ea76a3ac166f"
          },
          "sequence": 4294967295
        }
      ],
      "vout": [
        {
          "value": 0.99785300,
          "n": 0,
          "scriptPubKey": {
            "asm": "OP_DUP OP_HASH160 e1fb5b90a0d68f5a0b454c16712abf5660e4b5a0 OP_EQUALVERIFY OP_CHECKSIG",
            "hex": "76a914e1fb5b90a0d68f5a0b454c16712abf5660e4b5a088ac",
            "reqSigs": 1,
            "type": "pubkeyhash",
            "addresses": [
              "LfpqR1fkBm7mXJLn4qVhSmL4598UQqV8fc"
            ]
          }
        }
      ],
      "hex": "0100000001560c7765ccd0608ebe6b58a1cd73cdb32e23ded16545ecfa37d161592b9e9f22010000006b483045022100ec82b9f7f32c3b5ac9a1ff93b3fd9cfe3581c32656b8d266a69061ba9da9cc8a022012437bca2f9dbe3ab17b785804b553acd03f6ac8a9189cae6e37ef03c4e8baf301210298763a80631ba671b6bb501b2d0b8043af28d97adbf31722cac9ea76a3ac166fffffffff01549af205000000001976a914e1fb5b90a0d68f5a0b454c16712abf5660e4b5a088ac00000000"
    }, 
    {
      "txid": "3d8a59e536d7b4684279a0cfb5ba5dbd2bcfb6c0251ad6074743d12907464176",
      "hash": "3d8a59e536d7b4684279a0cfb5ba5dbd2bcfb6c0251ad6074743d12907464176",
      "version": 1,
      "size": 225,
      "vsize": 225,
      "locktime": 0,
      "vin": [
        {
          "txid": "bc6a51a26bfad971f0b28cf0446bcdd6571d295e362836faab946d0a92280379",
          "vout": 1,
          "scriptSig": {
            "asm": "3044022015875b35b585046c22f6a8c125c06566f05a9c83e7d6f3b6c7fdb53f7122c9a002205582eea5701ad0aa4fb70c934d90202af7536988c48378f8b579725f487bfc62[ALL] 03007f37a988b281632fc428c7da8912d2dc58c3ed948f5efd93c9399b8fc03baf",
            "hex": "473044022015875b35b585046c22f6a8c125c06566f05a9c83e7d6f3b6c7fdb53f7122c9a002205582eea5701ad0aa4fb70c934d90202af7536988c48378f8b579725f487bfc62012103007f37a988b281632fc428c7da8912d2dc58c3ed948f5efd93c9399b8fc03baf"
          },
          "sequence": 4294967295
        }
      ],
      "vout": [
        {
          "value": 1.83714607,
          "n": 0,
          "scriptPubKey": {
            "asm": "OP_DUP OP_HASH160 bcdc33f94197ab9bef6e228cf111c8df94e79f26 OP_EQUALVERIFY OP_CHECKSIG",
            "hex": "76a914bcdc33f94197ab9bef6e228cf111c8df94e79f2688ac",
            "reqSigs": 1,
            "type": "pubkeyhash",
            "addresses": [
              "LcSZ6FXjwD28suwYLyf5n81nkYbwD6BS1h"
            ]
          }
        }, 
        {
          "value": 23.59298074,
          "n": 1,
          "scriptPubKey": {
            "asm": "OP_DUP OP_HASH160 56a9380a274c43ca7512a9aeb46e4979330ba747 OP_EQUALVERIFY OP_CHECKSIG",
            "hex": "76a91456a9380a274c43ca7512a9aeb46e4979330ba74788ac",
            "reqSigs": 1,
            "type": "pubkeyhash",
            "addresses": [
              "LT8B6FE2L6pQq2zkYpqC2rp1UrTJyVTGqh"
            ]
          }
        }
      ],
      "hex": "0100000001790328920a6d94abfa3628365e291d57d6cd6b44f08cb2f071d9fa6ba2516abc010000006a473044022015875b35b585046c22f6a8c125c06566f05a9c83e7d6f3b6c7fdb53f7122c9a002205582eea5701ad0aa4fb70c934d90202af7536988c48378f8b579725f487bfc62012103007f37a988b281632fc428c7da8912d2dc58c3ed948f5efd93c9399b8fc03bafffffffff022f43f30a000000001976a914bcdc33f94197ab9bef6e228cf111c8df94e79f2688ac1a08a08c000000001976a91456a9380a274c43ca7512a9aeb46e4979330ba74788ac00000000"
    }, 
    {
      "txid": "df77c84f84337a3f8d0014f99a6c7731b6d566b6414fcc1426b6604d6bb89190",
      "hash": "df77c84f84337a3f8d0014f99a6c7731b6d566b6414fcc1426b6604d6bb89190",
      "version": 1,
      "size": 225,
      "vsize": 225,
      "locktime": 0,
      "vin": [
        {
          "txid": "f44ca8b8880a47710f9d3ca0525b7f8bee6edffd0f067ad50f06dd81b31757db",
          "vout": 21,
          "scriptSig": {
            "asm": "304402207b2b0678875fbd6fd4653e15bbcc5cd1ab84d6ca21357f3c023e3a899f0184fb02201b7686bafc8e94b8d371d0ac961221c57d8e562e3be0209b635e649e950cee70[ALL] 031525c58a7205877dd5ea9a0c755da176733de082f1a356be2178153adb6e5977",
            "hex": "47304402207b2b0678875fbd6fd4653e15bbcc5cd1ab84d6ca21357f3c023e3a899f0184fb02201b7686bafc8e94b8d371d0ac961221c57d8e562e3be0209b635e649e950cee700121031525c58a7205877dd5ea9a0c755da176733de082f1a356be2178153adb6e5977"
          },
          "sequence": 4294967295
        }
      ],
      "vout": [
        {
          "value": 0.84841325,
          "n": 0,
          "scriptPubKey": {
            "asm": "OP_DUP OP_HASH160 fc6ec888a2a6973890b472df66464d25bcc2faf6 OP_EQUALVERIFY OP_CHECKSIG",
            "hex": "76a914fc6ec888a2a6973890b472df66464d25bcc2faf688ac",
            "reqSigs": 1,
            "type": "pubkeyhash",
            "addresses": [
              "LiEhFv3RhFSXyqZEZx2gYBMRMeabkgiMKW"
            ]
          }
        }, 
        {
          "value": 0.02369196,
          "n": 1,
          "scriptPubKey": {
            "asm": "OP_DUP OP_HASH160 3cdf693a3d54d9d03a2521bd03b3ab7c8be780c1 OP_EQUALVERIFY OP_CHECKSIG",
            "hex": "76a9143cdf693a3d54d9d03a2521bd03b3ab7c8be780c188ac",
            "reqSigs": 1,
            "type": "pubkeyhash",
            "addresses": [
              "LQmpSbRj1vFSwDMNWu1vZyRMwAGaHQagLG"
            ]
          }
        }
      ],
      "hex": "0100000001db5717b381dd060fd57a060ffddf6eee8b7f5b52a03c9d0f71470a88b8a84cf4150000006a47304402207b2b0678875fbd6fd4653e15bbcc5cd1ab84d6ca21357f3c023e3a899f0184fb02201b7686bafc8e94b8d371d0ac961221c57d8e562e3be0209b635e649e950cee700121031525c58a7205877dd5ea9a0c755da176733de082f1a356be2178153adb6e5977ffffffff026d930e05000000001976a914fc6ec888a2a6973890b472df66464d25bcc2faf688acac262400000000001976a9143cdf693a3d54d9d03a2521bd03b3ab7c8be780c188ac00000000"
    }, 
    {
      "txid": "c49b8cedd0d0953dd6c6d95068a13e8efa902f9b236895f64a46371fc21cfedf",
      "hash": "c49b8cedd0d0953dd6c6d95068a13e8efa902f9b236895f64a46371fc21cfedf",
      "version": 1,
      "size": 192,
      "vsize": 192,
      "locktime": 0,
      "vin": [
        {
          "txid": "df77c84f84337a3f8d0014f99a6c7731b6d566b6414fcc1426b6604d6bb89190",
          "vout": 0,
          "scriptSig": {
            "asm": "3045022100c26517d17114232d294633862925cd7a085d6cb6476fae34c141eb547f0fafa5022057f99806512e57312371b2f0852b65009cbd9d76e5fbad1eb65a4cba61737eae[ALL] 03d3b774ddd7757e439045ec749523b8eeaa0fa45aab813086bec283fab8aefd91",
            "hex": "483045022100c26517d17114232d294633862925cd7a085d6cb6476fae34c141eb547f0fafa5022057f99806512e57312371b2f0852b65009cbd9d76e5fbad1eb65a4cba61737eae012103d3b774ddd7757e439045ec749523b8eeaa0fa45aab813086bec283fab8aefd91"
          },
          "sequence": 4294967295
        }
      ],
      "vout": [
        {
          "value": 0.84791325,
          "n": 0,
          "scriptPubKey": {
            "asm": "OP_DUP OP_HASH160 4848f1e0e33b1539629f5c2182eed26f202f3e93 OP_EQUALVERIFY OP_CHECKSIG",
            "hex": "76a9144848f1e0e33b1539629f5c2182eed26f202f3e9388ac",
            "reqSigs": 1,
            "type": "pubkeyhash",
            "addresses": [
              "LRpAJKa3Yz7FwrwUsBM5rZh57qVJd1ZvH4"
            ]
          }
        }
      ],
      "hex": "01000000019091b86b4d60b62614cc4f41b666d5b631776c9af914008d3f7a33844fc877df000000006b483045022100c26517d17114232d294633862925cd7a085d6cb6476fae34c141eb547f0fafa5022057f99806512e57312371b2f0852b65009cbd9d76e5fbad1eb65a4cba61737eae012103d3b774ddd7757e439045ec749523b8eeaa0fa45aab813086bec283fab8aefd91ffffffff011dd00d05000000001976a9144848f1e0e33b1539629f5c2182eed26f202f3e9388ac00000000"
    }, 
    {
      "txid": "b2010cb1f54d5e19c70886382920d8d83ef3b6c4e975578c26c8e23d039abcc2",
      "hash": "b2010cb1f54d5e19c70886382920d8d83ef3b6c4e975578c26c8e23d039abcc2",
      "version": 1,
      "size": 225,
      "vsize": 225,
      "locktime": 1358546,
      "vin": [
        {
          "txid": "01f68eb267f58d55dbbb350bba87f225ad9c5ea645881e43dbf3446279651bc3",
          "vout": 0,
          "scriptSig": {
            "asm": "304402207f52b09691595dd4dfac0042ab57c2f76600d8ff3426b0d708efa2f70cb82bb302202f083e7297a573d615b4ea20ddbd371a890e3ad94f0e9204d6269d89b41968c4[ALL] 032d2a285a91f68c4913fabc4df531b2d21d0aa4de9fe4a309df3518724c5e03e2",
            "hex": "47304402207f52b09691595dd4dfac0042ab57c2f76600d8ff3426b0d708efa2f70cb82bb302202f083e7297a573d615b4ea20ddbd371a890e3ad94f0e9204d6269d89b41968c40121032d2a285a91f68c4913fabc4df531b2d21d0aa4de9fe4a309df3518724c5e03e2"
          },
          "sequence": 4294967294
        }
      ],
      "vout": [
        {
          "value": 0.01197666,
          "n": 0,
          "scriptPubKey": {
            "asm": "OP_DUP OP_HASH160 43ab87429f44c4a605c3aa404e99c2d383161f71 OP_EQUALVERIFY OP_CHECKSIG",
            "hex": "76a91443ab87429f44c4a605c3aa404e99c2d383161f7188ac",
            "reqSigs": 1,
            "type": "pubkeyhash",
            "addresses": [
              "LRPm24j8FNsrqrEpbjUb4tz7GDLMJPxAqS"
            ]
          }
        }, 
        {
          "value": 0.68058357,
          "n": 1,
          "scriptPubKey": {
            "asm": "OP_DUP OP_HASH160 fab5028eea0fac29f952e7f30f6c7e5a14cee80a OP_EQUALVERIFY OP_CHECKSIG",
            "hex": "76a914fab5028eea0fac29f952e7f30f6c7e5a14cee80a88ac",
            "reqSigs": 1,
            "type": "pubkeyhash",
            "addresses": [
              "Li5a2xwxwcQht4sicoAa9n3uH8rf3n8z8w"
            ]
          }
        }
      ],
      "hex": "0100000001c31b65796244f3db431e8845a65e9cad25f287ba0b35bbdb558df567b28ef601000000006a47304402207f52b09691595dd4dfac0042ab57c2f76600d8ff3426b0d708efa2f70cb82bb302202f083e7297a573d615b4ea20ddbd371a890e3ad94f0e9204d6269d89b41968c40121032d2a285a91f68c4913fabc4df531b2d21d0aa4de9fe4a309df3518724c5e03e2feffffff0262461200000000001976a91443ab87429f44c4a605c3aa404e99c2d383161f7188acf57c0e04000000001976a914fab5028eea0fac29f952e7f30f6c7e5a14cee80a88acd2ba1400"
    }, 
    {
      "txid": "d925d47de6274e133bac56c9b3856c000cf6c0efca44d214509e0559bbdfdb6d",
      "hash": "844362c9dd5d83c2652a4b2dd830a4e78345e5a07f789224b9f39f5f0e6db87e",
      "version": 1,
      "size": 389,
      "vsize": 227,
      "locktime": 0,
      "vin": [
        {
          "txid": "1815cec8d109457ba1095d95637dd82201591a4a56f04ff1f7b426c381a23695",
          "vout": 1,
          "scriptSig": {
            "asm": "0014df0e2987137a704139c2d86d867af9ed6fa2900a",
            "hex": "160014df0e2987137a704139c2d86d867af9ed6fa2900a"
          },
          "txinwitness": [
            "3044022069f420ac36a16c369c41d8ce80155bf968f3c7cf386b5cebd8dd181629e6299f0220454c1a03c7bdcac58d2bf09754aab56e7fe29dae9b768da503524686813e972501", 
            "0267bef65cc28968e32726d0529c131580cb8eafabd9363fc3ae2d4310c88f04ea"
          ],
          "sequence": 4294967295
        }, 
        {
          "txid": "bcaf114478cb457a9610789ad3e832a521234a36bb560dbe557333cdd888ecb4",
          "vout": 1,
          "scriptSig": {
            "asm": "00148c4922432c8868d4f933055da2e294cafdede0ec",
            "hex": "1600148c4922432c8868d4f933055da2e294cafdede0ec"
          },
          "txinwitness": [
            "3045022100ec9eab44edb256febfc60cbc04dee677a819d5f43a5aeeabdeb49b4c781d01d5022013eb73e4c2663af85e29250a62649ed19e477cde82492a2b3b71f0264d0c183a01", 
            "0260bd9722fdfbbd46cb308387a4824a6d4763131040654124a97780e8ddaf7985"
          ],
          "sequence": 4294967295
        }
      ],
      "vout": [
        {
          "value": 8.71271739,
          "n": 0,
          "scriptPubKey": {
            "asm": "OP_DUP OP_HASH160 4e2a2a4bd1361b0471367178a5f948157acccda8 OP_EQUALVERIFY OP_CHECKSIG",
            "hex": "76a9144e2a2a4bd1361b0471367178a5f948157acccda888ac",
            "reqSigs": 1,
            "type": "pubkeyhash",
            "addresses": [
              "LSMFUsDTdG5QgLywkXAAkge5phQyV171Ej"
            ]
          }
        }
      ],
      "hex": "010000000001029536a281c326b4f7f14ff0564a1a590122d87d63955d09a17b4509d1c8ce15180100000017160014df0e2987137a704139c2d86d867af9ed6fa2900affffffffb4ec88d8cd337355be0d56bb364a2321a532e8d39a7810967a45cb784411afbc01000000171600148c4922432c8868d4f933055da2e294cafdede0ecffffffff013b8dee33000000001976a9144e2a2a4bd1361b0471367178a5f948157acccda888ac02473044022069f420ac36a16c369c41d8ce80155bf968f3c7cf386b5cebd8dd181629e6299f0220454c1a03c7bdcac58d2bf09754aab56e7fe29dae9b768da503524686813e972501210267bef65cc28968e32726d0529c131580cb8eafabd9363fc3ae2d4310c88f04ea02483045022100ec9eab44edb256febfc60cbc04dee677a819d5f43a5aeeabdeb49b4c781d01d5022013eb73e4c2663af85e29250a62649ed19e477cde82492a2b3b71f0264d0c183a01210260bd9722fdfbbd46cb308387a4824a6d4763131040654124a97780e8ddaf798500000000"
    }, 
    {
      "txid": "1b9e509cb4ee525a35f7df65905509344be98aeb738b1b08cd46ea0ed921ff40",
      "hash": "1b9e509cb4ee525a35f7df65905509344be98aeb738b1b08cd46ea0ed921ff40",
      "version": 2,
      "size": 370,
      "vsize": 370,
      "locktime": 1358546,
      "vin": [
        {
          "txid": "0edc98cf2e3221724f7d7bfc7a4265122d8d69a5443dc830a27b47077eefcc70",
          "vout": 0,
          "scriptSig": {
            "asm": "304402205180249eb4265165ddc0a7e76cb071adedc85f9fe65e6c45b388441753eed4260220719d02dc4a3d6ce57b2b96e97c74b6e2b7310db3a00294ffbf4502a2acea920e[ALL] 02b154e14b134e3945136849e12d02f8833a16b0bc5c88a27ee23d3beb04b250b4",
            "hex": "47304402205180249eb4265165ddc0a7e76cb071adedc85f9fe65e6c45b388441753eed4260220719d02dc4a3d6ce57b2b96e97c74b6e2b7310db3a00294ffbf4502a2acea920e012102b154e14b134e3945136849e12d02f8833a16b0bc5c88a27ee23d3beb04b250b4"
          },
          "sequence": 4294967294
        }, 
        {
          "txid": "1d347637b74d1ab794f5914b36685fcdfa025b524ba2ba12ca12382b11619aed",
          "vout": 19,
          "scriptSig": {
            "asm": "304402203bd627abe8d954f70da4a00220f18bfd16cfe58a2300529d45fbf37fb4f97a3a02205ec5a727e311e32bc2c024a95188e74bbd89773a0084a9689dba259e86bc97cb[ALL] 02dc5140eb5dd13aac641e0bc0011cb8ae2bb0622f18e2accb517da167d7bbcfd9",
            "hex": "47304402203bd627abe8d954f70da4a00220f18bfd16cfe58a2300529d45fbf37fb4f97a3a02205ec5a727e311e32bc2c024a95188e74bbd89773a0084a9689dba259e86bc97cb012102dc5140eb5dd13aac641e0bc0011cb8ae2bb0622f18e2accb517da167d7bbcfd9"
          },
          "sequence": 4294967294
        }
      ],
      "vout": [
        {
          "value": 0.01315787,
          "n": 0,
          "scriptPubKey": {
            "asm": "OP_DUP OP_HASH160 d9c4ade76147d26b90301545034a0bfde198c317 OP_EQUALVERIFY OP_CHECKSIG",
            "hex": "76a914d9c4ade76147d26b90301545034a0bfde198c31788ac",
            "reqSigs": 1,
            "type": "pubkeyhash",
            "addresses": [
              "Lf5QWMjpULBkgNDws4214sY6r8tdXbADoV"
            ]
          }
        }, 
        {
          "value": 1.00000000,
          "n": 1,
          "scriptPubKey": {
            "asm": "OP_HASH160 e275c9185e6cd5c7165786d590bfcc4c3d85ff2d OP_EQUAL",
            "hex": "a914e275c9185e6cd5c7165786d590bfcc4c3d85ff2d87",
            "reqSigs": 1,
            "type": "scripthash",
            "addresses": [
              "MUYa3fa6c8kLMhNBKmEt5VsfTmKNvg2hrY"
            ]
          }
        }
      ],
      "hex": "020000000270ccef7e07477ba230c83d44a5698d2d1265427afc7b7d4f7221322ecf98dc0e000000006a47304402205180249eb4265165ddc0a7e76cb071adedc85f9fe65e6c45b388441753eed4260220719d02dc4a3d6ce57b2b96e97c74b6e2b7310db3a00294ffbf4502a2acea920e012102b154e14b134e3945136849e12d02f8833a16b0bc5c88a27ee23d3beb04b250b4feffffffed9a61112b3812ca12baa24b525b02facd5f68364b91f594b71a4db73776341d130000006a47304402203bd627abe8d954f70da4a00220f18bfd16cfe58a2300529d45fbf37fb4f97a3a02205ec5a727e311e32bc2c024a95188e74bbd89773a0084a9689dba259e86bc97cb012102dc5140eb5dd13aac641e0bc0011cb8ae2bb0622f18e2accb517da167d7bbcfd9feffffff02cb131400000000001976a914d9c4ade76147d26b90301545034a0bfde198c31788ac00e1f5050000000017a914e275c9185e6cd5c7165786d590bfcc4c3d85ff2d87d2ba1400"
    }, 
    {
      "txid": "67d8a2fa663fec273b48c3491f63a7fdd4f3ef4c02f53f9b31cde79c9e755b1b",
      "hash": "67d8a2fa663fec273b48c3491f63a7fdd4f3ef4c02f53f9b31cde79c9e755b1b",
      "version": 1,
      "size": 225,
      "vsize": 225,
      "locktime": 0,
      "vin": [
        {
          "txid": "f55ff5fee48ca1c9fcdc3d59ba7c1f17d03fa822084c9c5e9a43426d1efb040f",
          "vout": 1,
          "scriptSig": {
            "asm": "304402205c0886da55e88a1b8f59a89846e785491ad644dac0138f940cea38c44784393d022046660dcc7d288d589984af73a0be591818426f5b223694e50fd62dd828032c9e[ALL] 03b86fcbb29321b7eb54dfa60e0d8e5c7d176ce7dab8b06cc74bf50b666df65e70",
            "hex": "47304402205c0886da55e88a1b8f59a89846e785491ad644dac0138f940cea38c44784393d022046660dcc7d288d589984af73a0be591818426f5b223694e50fd62dd828032c9e012103b86fcbb29321b7eb54dfa60e0d8e5c7d176ce7dab8b06cc74bf50b666df65e70"
          },
          "sequence": 4294967295
        }
      ],
      "vout": [
        {
          "value": 1.37390916,
          "n": 0,
          "scriptPubKey": {
            "asm": "OP_DUP OP_HASH160 5113950fe248a861eb964e6649f0f64a1daec35a OP_EQUALVERIFY OP_CHECKSIG",
            "hex": "76a9145113950fe248a861eb964e6649f0f64a1daec35a88ac",
            "reqSigs": 1,
            "type": "pubkeyhash",
            "addresses": [
              "LSceTMLhkTJ5WwCBxoJgjechL8KSpQmGyD"
            ]
          }
        }, 
        {
          "value": 1.00000000,
          "n": 1,
          "scriptPubKey": {
            "asm": "OP_DUP OP_HASH160 d34f0f2fdd634981b1dbae2030e773d557339c27 OP_EQUALVERIFY OP_CHECKSIG",
            "hex": "76a914d34f0f2fdd634981b1dbae2030e773d557339c2788ac",
            "reqSigs": 1,
            "type": "pubkeyhash",
            "addresses": [
              "LeVFYpwXrcyJjNEEY8xi6x6DCYGEKRiFBt"
            ]
          }
        }
      ],
      "hex": "01000000010f04fb1e6d42439a5e9c4c0822a83fd0171f7cba593ddcfcc9a18ce4fef55ff5010000006a47304402205c0886da55e88a1b8f59a89846e785491ad644dac0138f940cea38c44784393d022046660dcc7d288d589984af73a0be591818426f5b223694e50fd62dd828032c9e012103b86fcbb29321b7eb54dfa60e0d8e5c7d176ce7dab8b06cc74bf50b666df65e70ffffffff02446b3008000000001976a9145113950fe248a861eb964e6649f0f64a1daec35a88ac00e1f505000000001976a914d34f0f2fdd634981b1dbae2030e773d557339c2788ac00000000"
    }, 
    {
      "txid": "a8878fb1efe6dcbbf5b1ea7f06da48f2b82e0c914ed7adda5787c0ca029dcc6d",
      "hash": "a8878fb1efe6dcbbf5b1ea7f06da48f2b82e0c914ed7adda5787c0ca029dcc6d",
      "version": 1,
      "size": 225,
      "vsize": 225,
      "locktime": 0,
      "vin": [
        {
          "txid": "a69248f47152c7ef66443cb12638727658775f5ac6502ed9a8289e206ac4ab58",
          "vout": 0,
          "scriptSig": {
            "asm": "3044022062b1c085210d8b8cdf9c5e3588fb957b23443e55789b1bf16b23aa4632203f9a0220791c12e27f6954c7679c9d39f2c0ac6092cae5d1c0660bb806ae8a5005c6eb24[ALL] 02bec4759189b559b693c3cf96d7b520929872403b540c55595b425972703e6fe4",
            "hex": "473044022062b1c085210d8b8cdf9c5e3588fb957b23443e55789b1bf16b23aa4632203f9a0220791c12e27f6954c7679c9d39f2c0ac6092cae5d1c0660bb806ae8a5005c6eb24012102bec4759189b559b693c3cf96d7b520929872403b540c55595b425972703e6fe4"
          },
          "sequence": 4294967295
        }
      ],
      "vout": [
        {
          "value": 0.04448355,
          "n": 0,
          "scriptPubKey": {
            "asm": "OP_DUP OP_HASH160 0f42be55e1f6c4b3e956f8852edc6f04b9a90443 OP_EQUALVERIFY OP_CHECKSIG",
            "hex": "76a9140f42be55e1f6c4b3e956f8852edc6f04b9a9044388ac",
            "reqSigs": 1,
            "type": "pubkeyhash",
            "addresses": [
              "LLceMWXvFEnooF3PziPuJhNNzP7tnFvxNN"
            ]
          }
        }, 
        {
          "value": 1.00000000,
          "n": 1,
          "scriptPubKey": {
            "asm": "OP_DUP OP_HASH160 b898ee2717972c9fc7e59289b8ee7fedaeb2c136 OP_EQUALVERIFY OP_CHECKSIG",
            "hex": "76a914b898ee2717972c9fc7e59289b8ee7fedaeb2c13688ac",
            "reqSigs": 1,
            "type": "pubkeyhash",
            "addresses": [
              "Lc41oHuJHCHDAJettPWPDdn9B6HEQM3KH3"
            ]
          }
        }
      ],
      "hex": "010000000158abc46a209e28a8d92e50c65a5f775876723826b13c4466efc75271f44892a6000000006a473044022062b1c085210d8b8cdf9c5e3588fb957b23443e55789b1bf16b23aa4632203f9a0220791c12e27f6954c7679c9d39f2c0ac6092cae5d1c0660bb806ae8a5005c6eb24012102bec4759189b559b693c3cf96d7b520929872403b540c55595b425972703e6fe4ffffffff0263e04300000000001976a9140f42be55e1f6c4b3e956f8852edc6f04b9a9044388ac00e1f505000000001976a914b898ee2717972c9fc7e59289b8ee7fedaeb2c13688ac00000000"
    }, 
    {
      "txid": "1314b93aecaf6e18ed9f3a3ff0f75ff983e065f5464deb8996758e1cf9de5fce",
      "hash": "1314b93aecaf6e18ed9f3a3ff0f75ff983e065f5464deb8996758e1cf9de5fce",
      "version": 1,
      "size": 225,
      "vsize": 225,
      "locktime": 0,
      "vin": [
        {
          "txid": "cb881ea65c10bd898243e6b2fd0a246967d96c09f2e1899587306b2bf1803993",
          "vout": 1,
          "scriptSig": {
            "asm": "304402201f049aa6f3bbd5069d2819e2c0195a68ccb78d4349e55c71f4ee33ba57b9bc3e022035e57b5a1956b0ffd15f99e65aec68e810edc7ded606892276a4ee5c40259d4c[ALL] 021c1d69881d4d9a5ec2d94bf34538f80639c8c34c26e36ffb84af86e13dbdd0b8",
            "hex": "47304402201f049aa6f3bbd5069d2819e2c0195a68ccb78d4349e55c71f4ee33ba57b9bc3e022035e57b5a1956b0ffd15f99e65aec68e810edc7ded606892276a4ee5c40259d4c0121021c1d69881d4d9a5ec2d94bf34538f80639c8c34c26e36ffb84af86e13dbdd0b8"
          },
          "sequence": 4294967295
        }
      ],
      "vout": [
        {
          "value": 0.98814996,
          "n": 0,
          "scriptPubKey": {
            "asm": "OP_DUP OP_HASH160 22e3d796c011cd0c2627a4369b6343030f520032 OP_EQUALVERIFY OP_CHECKSIG",
            "hex": "76a91422e3d796c011cd0c2627a4369b6343030f52003288ac",
            "reqSigs": 1,
            "type": "pubkeyhash",
            "addresses": [
              "LNQSBV5cKc4X3ALKPnvykaY2J9ncbnSNRJ"
            ]
          }
        }, 
        {
          "value": 2.00000000,
          "n": 1,
          "scriptPubKey": {
            "asm": "OP_DUP OP_HASH160 44ec516b6d2f0a5015cf4a30b61e06795aefe281 OP_EQUALVERIFY OP_CHECKSIG",
            "hex": "76a91444ec516b6d2f0a5015cf4a30b61e06795aefe28188ac",
            "reqSigs": 1,
            "type": "pubkeyhash",
            "addresses": [
              "LRWPJvVgUUmonXbpXtsddv62wVueJaG2Uc"
            ]
          }
        }
      ],
      "hex": "0100000001933980f12b6b30879589e1f2096cd96769240afdb2e6438289bd105ca61e88cb010000006a47304402201f049aa6f3bbd5069d2819e2c0195a68ccb78d4349e55c71f4ee33ba57b9bc3e022035e57b5a1956b0ffd15f99e65aec68e810edc7ded606892276a4ee5c40259d4c0121021c1d69881d4d9a5ec2d94bf34538f80639c8c34c26e36ffb84af86e13dbdd0b8ffffffff0214cce305000000001976a91422e3d796c011cd0c2627a4369b6343030f52003288ac00c2eb0b000000001976a91444ec516b6d2f0a5015cf4a30b61e06795aefe28188ac00000000"
    }, 
    {
      "txid": "6fc3802040d5411cb2bed00dd085ca84fbe5c75c01b9d7fbaf8af5512d277c05",
      "hash": "6fc3802040d5411cb2bed00dd085ca84fbe5c75c01b9d7fbaf8af5512d277c05",
      "version": 1,
      "size": 226,
      "vsize": 226,
      "locktime": 0,
      "vin": [
        {
          "txid": "56fd586aaf06dbed61d2cb31218a97ab20321514793b0c93726b9592023b510d",
          "vout": 0,
          "scriptSig": {
            "asm": "3045022100f0a2017a9a07cdcf4406bc161dc4fff15fb677a8e4d46df5350b1b689a46fcc602203910dc61baf2a806dcad1812d31811ee0389ad546460510f3470b45dfd5e639e[ALL] 032691436f9ea61254dee35b06d1f160ea76bd1770a28cb24597553e041b39bb48",
            "hex": "483045022100f0a2017a9a07cdcf4406bc161dc4fff15fb677a8e4d46df5350b1b689a46fcc602203910dc61baf2a806dcad1812d31811ee0389ad546460510f3470b45dfd5e639e0121032691436f9ea61254dee35b06d1f160ea76bd1770a28cb24597553e041b39bb48"
          },
          "sequence": 4294967295
        }
      ],
      "vout": [
        {
          "value": 0.83693606,
          "n": 0,
          "scriptPubKey": {
            "asm": "OP_DUP OP_HASH160 1bad1312290e844c770a6d13d16ca2b826f61b6a OP_EQUALVERIFY OP_CHECKSIG",
            "hex": "76a9141bad1312290e844c770a6d13d16ca2b826f61b6a88ac",
            "reqSigs": 1,
            "type": "pubkeyhash",
            "addresses": [
              "LMkHqpU8ZXrg9VxSryDqNX2oFDsMhEZQ8e"
            ]
          }
        }, 
        {
          "value": 5.47000000,
          "n": 1,
          "scriptPubKey": {
            "asm": "OP_DUP OP_HASH160 0fe75597d14469530330ae41951ec3e1f70931cd OP_EQUALVERIFY OP_CHECKSIG",
            "hex": "76a9140fe75597d14469530330ae41951ec3e1f70931cd88ac",
            "reqSigs": 1,
            "type": "pubkeyhash",
            "addresses": [
              "LLg3XUxC3n4ovuMux6gDY438f2RCgaFePF"
            ]
          }
        }
      ],
      "hex": "01000000010d513b0292956b72930c3b7914153220ab978a2131cbd261eddb06af6a58fd56000000006b483045022100f0a2017a9a07cdcf4406bc161dc4fff15fb677a8e4d46df5350b1b689a46fcc602203910dc61baf2a806dcad1812d31811ee0389ad546460510f3470b45dfd5e639e0121032691436f9ea61254dee35b06d1f160ea76bd1770a28cb24597553e041b39bb48ffffffff022610fd04000000001976a9141bad1312290e844c770a6d13d16ca2b826f61b6a88acc08e9a20000000001976a9140fe75597d14469530330ae41951ec3e1f70931cd88ac00000000"
    }, 
    {
      "txid": "04c3d8ee3b051bb07693115bdd72f9084ab0039e83d750a69d9229c13160200f",
      "hash": "04c3d8ee3b051bb07693115bdd72f9084ab0039e83d750a69d9229c13160200f",
      "version": 1,
      "size": 226,
      "vsize": 226,
      "locktime": 0,
      "vin": [
        {
          "txid": "8ff23b51a09194e45738323023e0b0a8694fbc322c9647eb5d54f4b10afdafcc",
          "vout": 1,
          "scriptSig": {
            "asm": "3045022100d575ee20ac7603e0c321b5f3b6edd2809ccc80753eedd8a3cba8b888cc2946f8022037f20fec2a50687bd25ee462a6e82bf5ba9dcbd02f0241d44c71240172f404eb[ALL] 02700924bd4a85d629bd100494ae718528e8ae22779c0762fc2805ee9fc98add4d",
            "hex": "483045022100d575ee20ac7603e0c321b5f3b6edd2809ccc80753eedd8a3cba8b888cc2946f8022037f20fec2a50687bd25ee462a6e82bf5ba9dcbd02f0241d44c71240172f404eb012102700924bd4a85d629bd100494ae718528e8ae22779c0762fc2805ee9fc98add4d"
          },
          "sequence": 4294967295
        }
      ],
      "vout": [
        {
          "value": 0.25750918,
          "n": 0,
          "scriptPubKey": {
            "asm": "OP_DUP OP_HASH160 eb5c07e8ad9679906b9e71016a6827505dc884b0 OP_EQUALVERIFY OP_CHECKSIG",
            "hex": "76a914eb5c07e8ad9679906b9e71016a6827505dc884b088ac",
            "reqSigs": 1,
            "type": "pubkeyhash",
            "addresses": [
              "LggRJiEi3GtNnCKVPLwErAJvuZnAxaeAwc"
            ]
          }
        }, 
        {
          "value": 1.06956482,
          "n": 1,
          "scriptPubKey": {
            "asm": "OP_DUP OP_HASH160 a1fc64318389d6ab886ad10695b0bf69e41d90c5 OP_EQUALVERIFY OP_CHECKSIG",
            "hex": "76a914a1fc64318389d6ab886ad10695b0bf69e41d90c588ac",
            "reqSigs": 1,
            "type": "pubkeyhash",
            "addresses": [
              "LZzTQZLFgoYWZga8US1yt1EyUfEjruxpew"
            ]
          }
        }
      ],
      "hex": "0100000001ccaffd0ab1f4545deb47962c32bc4f69a8b0e02330323857e49491a0513bf28f010000006b483045022100d575ee20ac7603e0c321b5f3b6edd2809ccc80753eedd8a3cba8b888cc2946f8022037f20fec2a50687bd25ee462a6e82bf5ba9dcbd02f0241d44c71240172f404eb012102700924bd4a85d629bd100494ae718528e8ae22779c0762fc2805ee9fc98add4dffffffff0286ed8801000000001976a914eb5c07e8ad9679906b9e71016a6827505dc884b088acc2066006000000001976a914a1fc64318389d6ab886ad10695b0bf69e41d90c588ac00000000"
    }, 
    {
      "txid": "8f4ba14fb0585b07818beab0b0485392ade79dfa2e798aa85d119db5333ead2a",
      "hash": "8f4ba14fb0585b07818beab0b0485392ade79dfa2e798aa85d119db5333ead2a",
      "version": 1,
      "size": 226,
      "vsize": 226,
      "locktime": 0,
      "vin": [
        {
          "txid": "a4df8fe3d3522e6c12f5388d73283c5dadf3dcd953501ac217b465291ddbb975",
          "vout": 0,
          "scriptSig": {
            "asm": "3045022100b51fbebb5551e0c3d1604e6417c8e6fb4358f72bd030120141b6986b6d9e5950022069e086cca13f6910c810b640b53ffe72a2bc627bf29064044031901a4df99ac7[ALL] 035e15362b1a8b035ad5f20559648a9a7b1e3d7cff2eaf94894f6cd24a0153e055",
            "hex": "483045022100b51fbebb5551e0c3d1604e6417c8e6fb4358f72bd030120141b6986b6d9e5950022069e086cca13f6910c810b640b53ffe72a2bc627bf29064044031901a4df99ac70121035e15362b1a8b035ad5f20559648a9a7b1e3d7cff2eaf94894f6cd24a0153e055"
          },
          "sequence": 4294967295
        }
      ],
      "vout": [
        {
          "value": 25.00000000,
          "n": 0,
          "scriptPubKey": {
            "asm": "OP_DUP OP_HASH160 842fcb2bb26b37d73595a57aa4514251e8ef04be OP_EQUALVERIFY OP_CHECKSIG",
            "hex": "76a914842fcb2bb26b37d73595a57aa4514251e8ef04be88ac",
            "reqSigs": 1,
            "type": "pubkeyhash",
            "addresses": [
              "LXGtiJ3RcUF6yuxbw6VBj8o4hNA9REkMJN"
            ]
          }
        }, 
        {
          "value": 2.20641883,
          "n": 1,
          "scriptPubKey": {
            "asm": "OP_DUP OP_HASH160 e95def886ddac9b7f2ed18e04bbc01d7c123bc91 OP_EQUALVERIFY OP_CHECKSIG",
            "hex": "76a914e95def886ddac9b7f2ed18e04bbc01d7c123bc9188ac",
            "reqSigs": 1,
            "type": "pubkeyhash",
            "addresses": [
              "LgVtEg5o9udfoMbQAbmj7W9WzhB8cCXSuF"
            ]
          }
        }
      ],
      "hex": "010000000175b9db1d2965b417c21a5053d9dcf3ad5d3c28738d38f5126c2e52d3e38fdfa4000000006b483045022100b51fbebb5551e0c3d1604e6417c8e6fb4358f72bd030120141b6986b6d9e5950022069e086cca13f6910c810b640b53ffe72a2bc627bf29064044031901a4df99ac70121035e15362b1a8b035ad5f20559648a9a7b1e3d7cff2eaf94894f6cd24a0153e055ffffffff0200f90295000000001976a914842fcb2bb26b37d73595a57aa4514251e8ef04be88ac5bba260d000000001976a914e95def886ddac9b7f2ed18e04bbc01d7c123bc9188ac00000000"
    }, 
    {
      "txid": "c0ef6634cb310a0990fc6aaa657cdb361f436512b6538e29d8be4272c822da52",
      "hash": "c0ef6634cb310a0990fc6aaa657cdb361f436512b6538e29d8be4272c822da52",
      "version": 1,
      "size": 224,
      "vsize": 224,
      "locktime": 0,
      "vin": [
        {
          "txid": "2948616adcf94e3efd8a898bdd1bc1bb8167226480bcf1e79e22ec236d77b7f0",
          "vout": 2,
          "scriptSig": {
            "asm": "3045022100a78fe79af90688dbb1ca6da4446c5cf3418bf06d4c988b188a163315ae7a9d2f0220446046f648e0af29977775e768b8e7013f96eb5d77e5637731c6a1871d48b960[ALL] 03f4e5ca8c7160099d96639443a1fd411d416c29a3a7accb81fa6de8c547367a3f",
            "hex": "483045022100a78fe79af90688dbb1ca6da4446c5cf3418bf06d4c988b188a163315ae7a9d2f0220446046f648e0af29977775e768b8e7013f96eb5d77e5637731c6a1871d48b960012103f4e5ca8c7160099d96639443a1fd411d416c29a3a7accb81fa6de8c547367a3f"
          },
          "sequence": 4294967295
        }
      ],
      "vout": [
        {
          "value": 0.04452608,
          "n": 0,
          "scriptPubKey": {
            "asm": "OP_DUP OP_HASH160 0de154ea5cb45b8db61b2e26b4f117499107bb35 OP_EQUALVERIFY OP_CHECKSIG",
            "hex": "76a9140de154ea5cb45b8db61b2e26b4f117499107bb3588ac",
            "reqSigs": 1,
            "type": "pubkeyhash",
            "addresses": [
              "LLVLz2a285SNUTkfHXRzTgHFNCsG1rGhLn"
            ]
          }
        }, 
        {
          "value": 0.50000000,
          "n": 1,
          "scriptPubKey": {
            "asm": "OP_HASH160 36662eb9406aab10ab8854238808ad40a2a82630 OP_EQUAL",
            "hex": "a91436662eb9406aab10ab8854238808ad40a2a8263087",
            "reqSigs": 1,
            "type": "scripthash",
            "addresses": [
              "MCro8Z7sy2AbipQr1dSCWH1kGNCd1dQKEP"
            ]
          }
        }
      ],
      "hex": "0100000001f0b7776d23ec229ee7f1bc8064226781bbc11bdd8b898afd3e4ef9dc6a614829020000006b483045022100a78fe79af90688dbb1ca6da4446c5cf3418bf06d4c988b188a163315ae7a9d2f0220446046f648e0af29977775e768b8e7013f96eb5d77e5637731c6a1871d48b960012103f4e5ca8c7160099d96639443a1fd411d416c29a3a7accb81fa6de8c547367a3fffffffff0200f14300000000001976a9140de154ea5cb45b8db61b2e26b4f117499107bb3588ac80f0fa020000000017a91436662eb9406aab10ab8854238808ad40a2a826308700000000"
    }, 
    {
      "txid": "88c651f8c64304f07c2190a7e172a417f4dcaa297ed7d5c8555c3c95719e4d6d",
      "hash": "88c651f8c64304f07c2190a7e172a417f4dcaa297ed7d5c8555c3c95719e4d6d",
      "version": 1,
      "size": 226,
      "vsize": 226,
      "locktime": 0,
      "vin": [
        {
          "txid": "3931821ce84e8fcc7cdae9ad3e842e56cd823852863c84916f369a6363ee8154",
          "vout": 1,
          "scriptSig": {
            "asm": "3045022100f0ed13a05e3e126218d3b7dc20b1d0dc39cbe4681aaa27de6b9a0e8b59da8f33022056e52d1dbc5f45f968d0a6300fd103b7037002f6faf6ad91cd1d57b24987371d[ALL] 02650d0afbe1d06de0b05a963f5d5f653e36409351b81b98fd10531aeb822291d2",
            "hex": "483045022100f0ed13a05e3e126218d3b7dc20b1d0dc39cbe4681aaa27de6b9a0e8b59da8f33022056e52d1dbc5f45f968d0a6300fd103b7037002f6faf6ad91cd1d57b24987371d012102650d0afbe1d06de0b05a963f5d5f653e36409351b81b98fd10531aeb822291d2"
          },
          "sequence": 4294967295
        }
      ],
      "vout": [
        {
          "value": 0.07983028,
          "n": 0,
          "scriptPubKey": {
            "asm": "OP_DUP OP_HASH160 4af3e04f5d51d118a4055b937389ad13156aefcf OP_EQUALVERIFY OP_CHECKSIG",
            "hex": "76a9144af3e04f5d51d118a4055b937389ad13156aefcf88ac",
            "reqSigs": 1,
            "type": "pubkeyhash",
            "addresses": [
              "LS4GRDz2zMcH2h1ukYagabC7jW4YHWDYuv"
            ]
          }
        }, 
        {
          "value": 0.61099670,
          "n": 1,
          "scriptPubKey": {
            "asm": "OP_DUP OP_HASH160 02a8e8d10bef07b47935055efd2327e101d74b6a OP_EQUALVERIFY OP_CHECKSIG",
            "hex": "76a91402a8e8d10bef07b47935055efd2327e101d74b6a88ac",
            "reqSigs": 1,
            "type": "pubkeyhash",
            "addresses": [
              "LKU1xdWaJ9NeMyttksS6jdxDoTgMFGeJH1"
            ]
          }
        }
      ],
      "hex": "01000000015481ee63639a366f91843c86523882cd562e843eade9da7ccc8f4ee81c823139010000006b483045022100f0ed13a05e3e126218d3b7dc20b1d0dc39cbe4681aaa27de6b9a0e8b59da8f33022056e52d1dbc5f45f968d0a6300fd103b7037002f6faf6ad91cd1d57b24987371d012102650d0afbe1d06de0b05a963f5d5f653e36409351b81b98fd10531aeb822291d2ffffffff02b4cf7900000000001976a9144af3e04f5d51d118a4055b937389ad13156aefcf88ac964ea403000000001976a91402a8e8d10bef07b47935055efd2327e101d74b6a88ac00000000"
    }, 
    {
      "txid": "41bf58eebee710bc6e3e7a3d4d7698f4b6feb889b80600f21e8e2ea9b6420f81",
      "hash": "41bf58eebee710bc6e3e7a3d4d7698f4b6feb889b80600f21e8e2ea9b6420f81",
      "version": 1,
      "size": 226,
      "vsize": 226,
      "locktime": 0,
      "vin": [
        {
          "txid": "f44ca8b8880a47710f9d3ca0525b7f8bee6edffd0f067ad50f06dd81b31757db",
          "vout": 28,
          "scriptSig": {
            "asm": "3045022100f3df768e7003ee2ad1975f245dcb200a4bb2c4d95214e3cf0b8fd241804553ca022066eee8c3cd1e2cedfc8c96f01e07b395507834e7f5cd987805bd5f368112268d[ALL] 03c98eeed98cbd17f1092d394effb3d455e67bbf14825bc6d87c195f194908e590",
            "hex": "483045022100f3df768e7003ee2ad1975f245dcb200a4bb2c4d95214e3cf0b8fd241804553ca022066eee8c3cd1e2cedfc8c96f01e07b395507834e7f5cd987805bd5f368112268d012103c98eeed98cbd17f1092d394effb3d455e67bbf14825bc6d87c195f194908e590"
          },
          "sequence": 4294967295
        }
      ],
      "vout": [
        {
          "value": 0.81205991,
          "n": 0,
          "scriptPubKey": {
            "asm": "OP_DUP OP_HASH160 44163069386b66b8ce056491902d47e37e05d9d4 OP_EQUALVERIFY OP_CHECKSIG",
            "hex": "76a91444163069386b66b8ce056491902d47e37e05d9d488ac",
            "reqSigs": 1,
            "type": "pubkeyhash",
            "addresses": [
              "LRRxnyzxXDAX5BaXiKfmD845efYPX2U8tJ"
            ]
          }
        }, 
        {
          "value": 0.06960163,
          "n": 1,
          "scriptPubKey": {
            "asm": "OP_DUP OP_HASH160 231549184d24ed7d93799d23d5a848c7d14cf2fd OP_EQUALVERIFY OP_CHECKSIG",
            "hex": "76a914231549184d24ed7d93799d23d5a848c7d14cf2fd88ac",
            "reqSigs": 1,
            "type": "pubkeyhash",
            "addresses": [
              "LNRTQsVjEpyDq2svQJg1hauk9XW3GcqTz3"
            ]
          }
        }
      ],
      "hex": "0100000001db5717b381dd060fd57a060ffddf6eee8b7f5b52a03c9d0f71470a88b8a84cf41c0000006b483045022100f3df768e7003ee2ad1975f245dcb200a4bb2c4d95214e3cf0b8fd241804553ca022066eee8c3cd1e2cedfc8c96f01e07b395507834e7f5cd987805bd5f368112268d012103c98eeed98cbd17f1092d394effb3d455e67bbf14825bc6d87c195f194908e590ffffffff02e71ad704000000001976a91444163069386b66b8ce056491902d47e37e05d9d488ac23346a00000000001976a914231549184d24ed7d93799d23d5a848c7d14cf2fd88ac00000000"
    }, 
    {
      "txid": "144ce4d585778562761c2acbb550204344aa83d5b0185de8da2e7825118f94cc",
      "hash": "144ce4d585778562761c2acbb550204344aa83d5b0185de8da2e7825118f94cc",
      "version": 1,
      "size": 226,
      "vsize": 226,
      "locktime": 0,
      "vin": [
        {
          "txid": "288572012708353bac1783c982dfe38a586252ea9a66af2dd12fa3a572147c9c",
          "vout": 0,
          "scriptSig": {
            "asm": "304502210084974f5151abfcbc3d48dfcbf0ae61c9742b8e7ae7a1f428e2bbdb03e379543402202ec070e2d49df27115bff11bf9ca4ad492f1dfa7669ac964d6af7acaf400e03e[ALL] 02dc63aec076f730ec96e66ac551aab22fdd882e3b8c361ef87990ffef13200df9",
            "hex": "48304502210084974f5151abfcbc3d48dfcbf0ae61c9742b8e7ae7a1f428e2bbdb03e379543402202ec070e2d49df27115bff11bf9ca4ad492f1dfa7669ac964d6af7acaf400e03e012102dc63aec076f730ec96e66ac551aab22fdd882e3b8c361ef87990ffef13200df9"
          },
          "sequence": 4294967295
        }
      ],
      "vout": [
        {
          "value": 0.22325428,
          "n": 0,
          "scriptPubKey": {
            "asm": "OP_DUP OP_HASH160 7555ba237d752f8c0ec053282887fd007d430071 OP_EQUALVERIFY OP_CHECKSIG",
            "hex": "76a9147555ba237d752f8c0ec053282887fd007d43007188ac",
            "reqSigs": 1,
            "type": "pubkeyhash",
            "addresses": [
              "LVvN25e1YDf2gdPtVaTJaPuXjR6s5hgRcK"
            ]
          }
        }, 
        {
          "value": 0.30000000,
          "n": 1,
          "scriptPubKey": {
            "asm": "OP_DUP OP_HASH160 b899404f8c803ebb361c7d9cd58fdb4906f4458b OP_EQUALVERIFY OP_CHECKSIG",
            "hex": "76a914b899404f8c803ebb361c7d9cd58fdb4906f4458b88ac",
            "reqSigs": 1,
            "type": "pubkeyhash",
            "addresses": [
              "Lc42BbDmiBzkeq1jTz6MUk2hsrkm6Uxugg"
            ]
          }
        }
      ],
      "hex": "01000000019c7c1472a5a32fd12daf669aea5262588ae3df82c98317ac3b35082701728528000000006b48304502210084974f5151abfcbc3d48dfcbf0ae61c9742b8e7ae7a1f428e2bbdb03e379543402202ec070e2d49df27115bff11bf9ca4ad492f1dfa7669ac964d6af7acaf400e03e012102dc63aec076f730ec96e66ac551aab22fdd882e3b8c361ef87990ffef13200df9ffffffff02b4a85401000000001976a9147555ba237d752f8c0ec053282887fd007d43007188ac80c3c901000000001976a914b899404f8c803ebb361c7d9cd58fdb4906f4458b88ac00000000"
    }, 
    {
      "txid": "b3a655744507557eb2607bad9bfb116c6e0fe850475879085deb77930f5c40d8",
      "hash": "b3a655744507557eb2607bad9bfb116c6e0fe850475879085deb77930f5c40d8",
      "version": 1,
      "size": 226,
      "vsize": 226,
      "locktime": 0,
      "vin": [
        {
          "txid": "cf17afee2fb695eca0d79d59a38fec332af091986225376f2466506608180965",
          "vout": 1,
          "scriptSig": {
            "asm": "3045022100af0a5d5b9cce3e0bbc235cc1231f2116f77e33fdf58fac522daac6083535753302205b42b40586a48ba16223c4d5e3c4488daa7e7827000c2bf80476e937dc5b0f93[ALL] 03473f3a643254b667dc94c7b26220c14c0b5ccd20e520a57acb69bc7cff7759f1",
            "hex": "483045022100af0a5d5b9cce3e0bbc235cc1231f2116f77e33fdf58fac522daac6083535753302205b42b40586a48ba16223c4d5e3c4488daa7e7827000c2bf80476e937dc5b0f93012103473f3a643254b667dc94c7b26220c14c0b5ccd20e520a57acb69bc7cff7759f1"
          },
          "sequence": 4294967295
        }
      ],
      "vout": [
        {
          "value": 0.26782238,
          "n": 0,
          "scriptPubKey": {
            "asm": "OP_DUP OP_HASH160 87edd6b5f9cec15bd8ec63151a5e1cbd37b4ec95 OP_EQUALVERIFY OP_CHECKSIG",
            "hex": "76a91487edd6b5f9cec15bd8ec63151a5e1cbd37b4ec9588ac",
            "reqSigs": 1,
            "type": "pubkeyhash",
            "addresses": [
              "LXcgQS7CMPvdu7Ez8v2yzGipcKBrGigBE2"
            ]
          }
        }, 
        {
          "value": 1.38000000,
          "n": 1,
          "scriptPubKey": {
            "asm": "OP_DUP OP_HASH160 01362ec0a2dacb61041466222a4ae17b27b726c2 OP_EQUALVERIFY OP_CHECKSIG",
            "hex": "76a91401362ec0a2dacb61041466222a4ae17b27b726c288ac",
            "reqSigs": 1,
            "type": "pubkeyhash",
            "addresses": [
              "LKLMr5aZfsP2gAYBYbNuZsoqkYGRUcv8nY"
            ]
          }
        }
      ],
      "hex": "010000000165091808665066246f3725629891f02a33ec8fa3599dd7a0ec95b62feeaf17cf010000006b483045022100af0a5d5b9cce3e0bbc235cc1231f2116f77e33fdf58fac522daac6083535753302205b42b40586a48ba16223c4d5e3c4488daa7e7827000c2bf80476e937dc5b0f93012103473f3a643254b667dc94c7b26220c14c0b5ccd20e520a57acb69bc7cff7759f1ffffffff021eaa9801000000001976a91487edd6b5f9cec15bd8ec63151a5e1cbd37b4ec9588ac80b63908000000001976a91401362ec0a2dacb61041466222a4ae17b27b726c288ac00000000"
    }
  ],
  "time": 1517156601,
  "mediantime": 1517156105,
  "nonce": 336779220,
  "bits": "1a047f14",
  "difficulty": 3731199.183374282,
  "chainwork": "0000000000000000000000000000000000000000000000333062542aa04ff8a2",
  "previousblockhash": "5f8eabb78431e1db98a0fe3fc8261612080412452a7d91f6fabc8f4d22d7ee7f",
  "nextblockhash": "ea7a3b1883b9ac166550f3d7acb3110a87ec3992066f1db4b9596317ad233253"
}
