{
  "hash": "78a18f8e50c5263a776a7b4e5fb8b1f121fcd22db8f967ec17fa1ff1392bed78",
  "confirmations": 132,
  "strippedsize": 4403,
  "size": 4660,
  "weight": 17869,
  "height": 1360862,
  "version": 536870912,
  "versionHex": "20000000",
  "merkleroot": "dedab9fef1b302901e1aa52696c046ff70dc33a3bda3104a8d0d760ebcc7ff96",
  "tx": [
    {
      "txid": "ad1905f786e374a2ce171259ab858635b4c6ff749ac99fcb7fa033b39d829d71",
      "hash": "b58e59854c21e15ba2247bdbf67c1bd4ffdf37e53e1ab93e68b4cff78b1f0f47",
      "version": 1,
      "size": 244,
      "vsize": 217,
      "locktime": 0,
      "vin": [
        {
          "coinbase": "03dec31404e715735a0802df87d802000000fabe6d6d3cecfadbf63abe28f9453fe89fc0a799ed89647a7b47f61255d28dcab2b0d28840000000000000000d2f6e6f64655374726174756d2f",
          "sequence": 0
        }
      ],
      "vout": [
        {
          "value": 25.00654099,
          "n": 0,
          "scriptPubKey": {
            "asm": "OP_DUP OP_HASH160 0c617fdb2ea42aed30a509595ee21ba3f6688db0 OP_EQUALVERIFY OP_CHECKSIG",
            "hex": "76a9140c617fdb2ea42aed30a509595ee21ba3f6688db088ac",
            "reqSigs": 1,
            "type": "pubkeyhash",
            "addresses": [
              "LLMRAtr3qBje2ySEa3CnZ55LA4TQMWnRY3"
            ]
          }
        }, 
        {
          "value": 0.00000000,
          "n": 1,
          "scriptPubKey": {
            "asm": "OP_RETURN aa21a9edfc1ccc1105032e1135df505f08a6efe4f016149e45d013c0ebced88803b1e433",
            "hex": "6a24aa21a9edfc1ccc1105032e1135df505f08a6efe4f016149e45d013c0ebced88803b1e433",
            "type": "nulldata"
          }
        }
      ],
      "hex": "010000000001010000000000000000000000000000000000000000000000000000000000000000ffffffff4c03dec31404e715735a0802df87d802000000fabe6d6d3cecfadbf63abe28f9453fe89fc0a799ed89647a7b47f61255d28dcab2b0d28840000000000000000d2f6e6f64655374726174756d2f000000000213f40c95000000001976a9140c617fdb2ea42aed30a509595ee21ba3f6688db088ac0000000000000000266a24aa21a9edfc1ccc1105032e1135df505f08a6efe4f016149e45d013c0ebced88803b1e4330120000000000000000000000000000000000000000000000000000000000000000000000000"
    }, 
    {
      "txid": "b38d59a44a44f343310742906751192011f7df8231c0de8d27a6fd599fcf63a3",
      "hash": "b38d59a44a44f343310742906751192011f7df8231c0de8d27a6fd599fcf63a3",
      "version": 1,
      "size": 190,
      "vsize": 190,
      "locktime": 0,
      "vin": [
        {
          "txid": "a6e564b2bc793d58fafaab95b827d2b33ab9b03f2598634820b58282278988c0",
          "vout": 4,
          "scriptSig": {
            "asm": "30450221009fcf44adbc169095b976f6d9ca0e65d7e359bb543f0fb099d9ea27a3b7e372c802207d71fbe65129e922be25c6657a0e9d9ddf72341a71f003891199cea8ced20b63[ALL] 02835f902d64c6036829e86940a8270d6519ffbbe4b2e907ce2aaf2e4d4f5dd021",
            "hex": "4830450221009fcf44adbc169095b976f6d9ca0e65d7e359bb543f0fb099d9ea27a3b7e372c802207d71fbe65129e922be25c6657a0e9d9ddf72341a71f003891199cea8ced20b63012102835f902d64c6036829e86940a8270d6519ffbbe4b2e907ce2aaf2e4d4f5dd021"
          },
          "sequence": 4294967295
        }
      ],
      "vout": [
        {
          "value": 1.67190900,
          "n": 0,
          "scriptPubKey": {
            "asm": "OP_HASH160 a2a546896b18d09019ec4816ab1365819ada56ef OP_EQUAL",
            "hex": "a914a2a546896b18d09019ec4816ab1365819ada56ef87",
            "reqSigs": 1,
            "type": "scripthash",
            "addresses": [
              "MNj9h3yj4PbKx9CRona426tt3emHRAi1d1"
            ]
          }
        }
      ],
      "hex": "0100000001c08889278282b520486398253fb0b93ab3d227b895abfafa583d79bcb264e5a6040000006b4830450221009fcf44adbc169095b976f6d9ca0e65d7e359bb543f0fb099d9ea27a3b7e372c802207d71fbe65129e922be25c6657a0e9d9ddf72341a71f003891199cea8ced20b63012102835f902d64c6036829e86940a8270d6519ffbbe4b2e907ce2aaf2e4d4f5dd021ffffffff017421f7090000000017a914a2a546896b18d09019ec4816ab1365819ada56ef8700000000"
    }, 
    {
      "txid": "ff937718b61be92ff83edea1af82b8aefaa66b55b989e9f34ae9a3088cfdbad3",
      "hash": "ff937718b61be92ff83edea1af82b8aefaa66b55b989e9f34ae9a3088cfdbad3",
      "version": 1,
      "size": 374,
      "vsize": 374,
      "locktime": 1360860,
      "vin": [
        {
          "txid": "86b18a3e1f0c722f2848fae2922b5b0e61b1ebe5da5212df99c37ba62d7ea605",
          "vout": 1,
          "scriptSig": {
            "asm": "3045022100d6abd2e33695603fd5c0e42b49e47eda1a0c2366fb4a1e0362a0fbc725238fc502206fe69454e9165c52da5d412e557e4336aa49d9d47c7b89b33f7a13c32634b01a[ALL] 03029e2068e2a71c553c8a4b1f24c1d59bc87a6a6686110bcc5efa99114a8b45bc",
            "hex": "483045022100d6abd2e33695603fd5c0e42b49e47eda1a0c2366fb4a1e0362a0fbc725238fc502206fe69454e9165c52da5d412e557e4336aa49d9d47c7b89b33f7a13c32634b01a012103029e2068e2a71c553c8a4b1f24c1d59bc87a6a6686110bcc5efa99114a8b45bc"
          },
          "sequence": 4294967294
        }, 
        {
          "txid": "3cc9f2b98e1de7bb2f5324aa0625fd3a6c800df1a24646c27a01822405af1d74",
          "vout": 38,
          "scriptSig": {
            "asm": "3045022100a946760e9984575fe4c6a39b4310f27bb947e2ffead68c7db7cd927abd876086022024ca626357c39fe1b6d6870430ecb0c0376dc1cb5f1d9be6a2ef385e360c06ed[ALL] 022dca5a8075503707155823f6d333cb500272bb6c40588d8d7b908daedd8e6864",
            "hex": "483045022100a946760e9984575fe4c6a39b4310f27bb947e2ffead68c7db7cd927abd876086022024ca626357c39fe1b6d6870430ecb0c0376dc1cb5f1d9be6a2ef385e360c06ed0121022dca5a8075503707155823f6d333cb500272bb6c40588d8d7b908daedd8e6864"
          },
          "sequence": 4294967294
        }
      ],
      "vout": [
        {
          "value": 1.80528683,
          "n": 0,
          "scriptPubKey": {
            "asm": "OP_DUP OP_HASH160 4c8f1311b6d4a51dafd1577c4a4eb7516b3b4548 OP_EQUALVERIFY OP_CHECKSIG",
            "hex": "76a9144c8f1311b6d4a51dafd1577c4a4eb7516b3b454888ac",
            "reqSigs": 1,
            "type": "pubkeyhash",
            "addresses": [
              "LSCm1nJZywr87JyoAtZA5pBCuTzPxrPsto"
            ]
          }
        }, 
        {
          "value": 0.01051117,
          "n": 1,
          "scriptPubKey": {
            "asm": "OP_DUP OP_HASH160 cdc79e26f144dc605a3a8303e4011e52eb0bf1ac OP_EQUALVERIFY OP_CHECKSIG",
            "hex": "76a914cdc79e26f144dc605a3a8303e4011e52eb0bf1ac88ac",
            "reqSigs": 1,
            "type": "pubkeyhash",
            "addresses": [
              "Ldz1vDzjQLUVUTB52ZfBMfsWbn873ZezyN"
            ]
          }
        }
      ],
      "hex": "010000000205a67e2da67bc399df1252dae5ebb1610e5b2b92e2fa48282f720c1f3e8ab186010000006b483045022100d6abd2e33695603fd5c0e42b49e47eda1a0c2366fb4a1e0362a0fbc725238fc502206fe69454e9165c52da5d412e557e4336aa49d9d47c7b89b33f7a13c32634b01a012103029e2068e2a71c553c8a4b1f24c1d59bc87a6a6686110bcc5efa99114a8b45bcfeffffff741daf052482017ac24646a2f10d806c3afd2506aa24532fbbe71d8eb9f2c93c260000006b483045022100a946760e9984575fe4c6a39b4310f27bb947e2ffead68c7db7cd927abd876086022024ca626357c39fe1b6d6870430ecb0c0376dc1cb5f1d9be6a2ef385e360c06ed0121022dca5a8075503707155823f6d333cb500272bb6c40588d8d7b908daedd8e6864feffffff022ba6c20a000000001976a9144c8f1311b6d4a51dafd1577c4a4eb7516b3b454888aced091000000000001976a914cdc79e26f144dc605a3a8303e4011e52eb0bf1ac88acdcc31400"
    }, 
    {
      "txid": "d1c508a6d25ded7dd6445bb739b0b16a94e3cc9ab58a91472e434dc58d300f3d",
      "hash": "9922e53bd3a22572102e8b6768df423eda2222186327f762d2ec11b1c141c1c1",
      "version": 1,
      "size": 373,
      "vsize": 208,
      "locktime": 0,
      "vin": [
        {
          "txid": "2b5863dd6c86521618c341c811de7701128d1248ecee081a7c32d4af268d2e36",
          "vout": 1,
          "scriptSig": {
            "asm": "00207975c3f0d1bf8b6205e1c664d703c93d68409676bf17c5e78cdece78bdbf3dbf",
            "hex": "2200207975c3f0d1bf8b6205e1c664d703c93d68409676bf17c5e78cdece78bdbf3dbf"
          },
          "txinwitness": [
            "", 
            "3044022011a38bb94012e9f0277eae53e2b09b78c23fa5d41777d0d4f0604e045bfa9816022022a6befe417eac4ff3b74d7af0eead5d730cfeef28446530003eb5b087a54bc901", 
            "3045022100c93c2a18f1eeae178cf5278796d6ecd718372672eba975a9fd20914328f64209022074b22741f51327c606103d2c50c93705b47657c94dc7bacf8c4dfb6aeb9c236b01", 
            "522102611be09a0c6a571c8f68adb2481e938888756d93d4ee5b670f08c16e939b7f1a21022cc7a96a72ef014bf078a6489644e2edb05bb216d30b4f28363b637fe4463fd652ae"
          ],
          "sequence": 4294967295
        }
      ],
      "vout": [
        {
          "value": 0.00572400,
          "n": 0,
          "scriptPubKey": {
            "asm": "OP_DUP OP_HASH160 0243a24231bde7dc22c6a89c2358c345d7203721 OP_EQUALVERIFY OP_CHECKSIG",
            "hex": "76a9140243a24231bde7dc22c6a89c2358c345d720372188ac",
            "reqSigs": 1,
            "type": "pubkeyhash",
            "addresses": [
              "LKRvdspeK7TBQsXTYsvK2pqifCaCZLfNiG"
            ]
          }
        }, 
        {
          "value": 15.20140383,
          "n": 1,
          "scriptPubKey": {
            "asm": "OP_HASH160 486ce63d83e8406016f310cd321d36bbdd10d412 OP_EQUAL",
            "hex": "a914486ce63d83e8406016f310cd321d36bbdd10d41287",
            "reqSigs": 1,
            "type": "scripthash",
            "addresses": [
              "MEW7Lhk6QzBLmCNp5pmpYzwv1KAcKYsSQp"
            ]
          }
        }
      ],
      "hex": "01000000000101362e8d26afd4327c1a08eeec48128d120177de11c841c3181652866cdd63582b01000000232200207975c3f0d1bf8b6205e1c664d703c93d68409676bf17c5e78cdece78bdbf3dbfffffffff02f0bb0800000000001976a9140243a24231bde7dc22c6a89c2358c345d720372188ac5f809b5a0000000017a914486ce63d83e8406016f310cd321d36bbdd10d412870400473044022011a38bb94012e9f0277eae53e2b09b78c23fa5d41777d0d4f0604e045bfa9816022022a6befe417eac4ff3b74d7af0eead5d730cfeef28446530003eb5b087a54bc901483045022100c93c2a18f1eeae178cf5278796d6ecd718372672eba975a9fd20914328f64209022074b22741f51327c606103d2c50c93705b47657c94dc7bacf8c4dfb6aeb9c236b0147522102611be09a0c6a571c8f68adb2481e938888756d93d4ee5b670f08c16e939b7f1a21022cc7a96a72ef014bf078a6489644e2edb05bb216d30b4f28363b637fe4463fd652ae00000000"
    }, 
    {
      "txid": "58afd4d75f8a59e052deb5b9e3052d807051660d1b33e716078dddec93fb9a4b",
      "hash": "58afd4d75f8a59e052deb5b9e3052d807051660d1b33e716078dddec93fb9a4b",
      "version": 1,
      "size": 554,
      "vsize": 554,
      "locktime": 0,
      "vin": [
        {
          "txid": "fa08d7a83d12828ce69cc83e4e36e0a2432f6bb4e537c07d531de7b0ba16c26d",
          "vout": 1,
          "scriptSig": {
            "asm": "3045022100b797aab98046bd2ae23a552865dd2e77dd4d46a511086d6b1e1af0acbfae58f602200dbca44752434670d8173f03584f0f1a704604763b7c41052c4b3eed113d07f5[ALL] 0328c9ae635abf580c261c44815dc1aac309e16ff26250525b7e99951369d2b8c7",
            "hex": "483045022100b797aab98046bd2ae23a552865dd2e77dd4d46a511086d6b1e1af0acbfae58f602200dbca44752434670d8173f03584f0f1a704604763b7c41052c4b3eed113d07f501210328c9ae635abf580c261c44815dc1aac309e16ff26250525b7e99951369d2b8c7"
          },
          "sequence": 4294967295
        }, 
        {
          "txid": "712d572c925b27ec1c23c84c9e284e75fa9324efa127ccb463adebfbdb992aef",
          "vout": 1,
          "scriptSig": {
            "asm": "304402207e5918539b8744a8bca0fc52295aa37abd7083f2242db64863c41b1e1037269e022039361357903947f16f489cb158db6c3228de785c98a64a01488bf92541e4b472[ALL] 03b556cba42d792ef0067e66ac19588fa99ff5bb89e9b829dec1b879be9c26fd87",
            "hex": "47304402207e5918539b8744a8bca0fc52295aa37abd7083f2242db64863c41b1e1037269e022039361357903947f16f489cb158db6c3228de785c98a64a01488bf92541e4b472012103b556cba42d792ef0067e66ac19588fa99ff5bb89e9b829dec1b879be9c26fd87"
          },
          "sequence": 4294967295
        }, 
        {
          "txid": "7b996f171f1165a053a47ef05ece7051090c80abba0da0020c5bfec6301e71b2",
          "vout": 1,
          "scriptSig": {
            "asm": "3044022049f4260f8785dc55d75bb7dfb8bc85fb4d208836271cf6905d02072559c890b9022064b1e94f2268e965cddd52ca3caefd0a6e09545cd5625516eeac951cb951b90c[ALL] 02a3e7cec2a2cb6202ac2d228fb74311b69205a3608a7e3597698666929332dad2",
            "hex": "473044022049f4260f8785dc55d75bb7dfb8bc85fb4d208836271cf6905d02072559c890b9022064b1e94f2268e965cddd52ca3caefd0a6e09545cd5625516eeac951cb951b90c012102a3e7cec2a2cb6202ac2d228fb74311b69205a3608a7e3597698666929332dad2"
          },
          "sequence": 4294967295
        }
      ],
      "vout": [
        {
          "value": 2.17613413,
          "n": 0,
          "scriptPubKey": {
            "asm": "OP_DUP OP_HASH160 d2260a619d4debeac65c22123a9e404afe9d92f0 OP_EQUALVERIFY OP_CHECKSIG",
            "hex": "76a914d2260a619d4debeac65c22123a9e404afe9d92f088ac",
            "reqSigs": 1,
            "type": "pubkeyhash",
            "addresses": [
              "LeP7jbpzT6VHwo5htnE7vMoCL8t69gtt7i"
            ]
          }
        }, 
        {
          "value": 8.59134319,
          "n": 1,
          "scriptPubKey": {
            "asm": "OP_DUP OP_HASH160 fd8478f5a4e4f42ede6cdd41209879b1013e20d2 OP_EQUALVERIFY OP_CHECKSIG",
            "hex": "76a914fd8478f5a4e4f42ede6cdd41209879b1013e20d288ac",
            "reqSigs": 1,
            "type": "pubkeyhash",
            "addresses": [
              "LiLRv6ZP9dwdUDRM5dFCKUKG24jjzbDS8k"
            ]
          }
        }, 
        {
          "value": 3.46637451,
          "n": 2,
          "scriptPubKey": {
            "asm": "OP_DUP OP_HASH160 c6e3836c2f4cd8f9c53e32813ded99ac0ce001f1 OP_EQUALVERIFY OP_CHECKSIG",
            "hex": "76a914c6e3836c2f4cd8f9c53e32813ded99ac0ce001f188ac",
            "reqSigs": 1,
            "type": "pubkeyhash",
            "addresses": [
              "LdMac6qdwFnBCVXN96dvoPjzbcE36gzs64"
            ]
          }
        }
      ],
      "hex": "01000000036dc216bab0e71d537dc037e5b46b2f43a2e0364e3ec89ce68c82123da8d708fa010000006b483045022100b797aab98046bd2ae23a552865dd2e77dd4d46a511086d6b1e1af0acbfae58f602200dbca44752434670d8173f03584f0f1a704604763b7c41052c4b3eed113d07f501210328c9ae635abf580c261c44815dc1aac309e16ff26250525b7e99951369d2b8c7ffffffffef2a99dbfbebad63b4cc27a1ef2493fa754e289e4cc8231cec275b922c572d71010000006a47304402207e5918539b8744a8bca0fc52295aa37abd7083f2242db64863c41b1e1037269e022039361357903947f16f489cb158db6c3228de785c98a64a01488bf92541e4b472012103b556cba42d792ef0067e66ac19588fa99ff5bb89e9b829dec1b879be9c26fd87ffffffffb2711e30c6fe5b0c02a00dbaab800c095170ce5ef07ea453a065111f176f997b010000006a473044022049f4260f8785dc55d75bb7dfb8bc85fb4d208836271cf6905d02072559c890b9022064b1e94f2268e965cddd52ca3caefd0a6e09545cd5625516eeac951cb951b90c012102a3e7cec2a2cb6202ac2d228fb74311b69205a3608a7e3597698666929332dad2ffffffff036584f80c000000001976a914d2260a619d4debeac65c22123a9e404afe9d92f088ac6f593533000000001976a914fd8478f5a4e4f42ede6cdd41209879b1013e20d288ac8b44a914000000001976a914c6e3836c2f4cd8f9c53e32813ded99ac0ce001f188ac00000000"
    }, 
    {
      "txid": "4ea68798fa198b7bdf4b4d73964dc14b75ce07cd93d767c79f7904be6503ed1c",
      "hash": "4ea68798fa198b7bdf4b4d73964dc14b75ce07cd93d767c79f7904be6503ed1c",
      "version": 1,
      "size": 372,
      "vsize": 372,
      "locktime": 1360860,
      "vin": [
        {
          "txid": "114192da6a1a56c09d8519cdb34f9e791fa5cfddbae9dbe7c4f067d8a5da258a",
          "vout": 0,
          "scriptSig": {
            "asm": "304402203553c52cf38c743d1af60210cce3f13fb7d605b934f3d167e7e093e50da4a4ae022014fd0e287d2811c2415fcbd28b3b2135696bc8352038100864739446066c40d0[ALL] 02516a07088c4802093ce11dd701629786d153ff5b7ca8c46a9105031c2317b1cc",
            "hex": "47304402203553c52cf38c743d1af60210cce3f13fb7d605b934f3d167e7e093e50da4a4ae022014fd0e287d2811c2415fcbd28b3b2135696bc8352038100864739446066c40d0012102516a07088c4802093ce11dd701629786d153ff5b7ca8c46a9105031c2317b1cc"
          },
          "sequence": 4294967294
        }, 
        {
          "txid": "133d83a43b7699b548657084280e8bf2a3c9a2eeb9795edb4ce6ae3bb57c4e4b",
          "vout": 0,
          "scriptSig": {
            "asm": "3044022062baf8c65bc2f6a74d2bf8640d0ccd80932770ca2dae5a8c538519f9c160580c022029f3f7bc9e6fc5351bf5f53009fc206d51f2e7894abc133a96192e4d94440c16[ALL] 02cf1f70b8f177ad0faf2fcec438d38adbfbc8cf841749560ea3292abd36bb9f63",
            "hex": "473044022062baf8c65bc2f6a74d2bf8640d0ccd80932770ca2dae5a8c538519f9c160580c022029f3f7bc9e6fc5351bf5f53009fc206d51f2e7894abc133a96192e4d94440c16012102cf1f70b8f177ad0faf2fcec438d38adbfbc8cf841749560ea3292abd36bb9f63"
          },
          "sequence": 4294967294
        }
      ],
      "vout": [
        {
          "value": 0.01002811,
          "n": 0,
          "scriptPubKey": {
            "asm": "OP_DUP OP_HASH160 ee93c9d4cd0f3dcd63de63fad2108b2b91ae4936 OP_EQUALVERIFY OP_CHECKSIG",
            "hex": "76a914ee93c9d4cd0f3dcd63de63fad2108b2b91ae493688ac",
            "reqSigs": 1,
            "type": "pubkeyhash",
            "addresses": [
              "LgyS8PPuX2Wqu5uYU4qmhLiYHC4Y4rs6dy"
            ]
          }
        }, 
        {
          "value": 15.82884118,
          "n": 1,
          "scriptPubKey": {
            "asm": "OP_DUP OP_HASH160 b41df1f447cb818f96e5c9e210974e0bba356282 OP_EQUALVERIFY OP_CHECKSIG",
            "hex": "76a914b41df1f447cb818f96e5c9e210974e0bba35628288ac",
            "reqSigs": 1,
            "type": "pubkeyhash",
            "addresses": [
              "LbeKmNELuxTCDDcpwdzS1L7Uvk8NyCUYKx"
            ]
          }
        }
      ],
      "hex": "01000000028a25daa5d867f0c4e7dbe9baddcfa51f799e4fb3cd19859dc0561a6ada924111000000006a47304402203553c52cf38c743d1af60210cce3f13fb7d605b934f3d167e7e093e50da4a4ae022014fd0e287d2811c2415fcbd28b3b2135696bc8352038100864739446066c40d0012102516a07088c4802093ce11dd701629786d153ff5b7ca8c46a9105031c2317b1ccfeffffff4b4e7cb53baee64cdb5e79b9eea2c9a3f28b0e2884706548b599763ba4833d13000000006a473044022062baf8c65bc2f6a74d2bf8640d0ccd80932770ca2dae5a8c538519f9c160580c022029f3f7bc9e6fc5351bf5f53009fc206d51f2e7894abc133a96192e4d94440c16012102cf1f70b8f177ad0faf2fcec438d38adbfbc8cf841749560ea3292abd36bb9f63feffffff023b4d0f00000000001976a914ee93c9d4cd0f3dcd63de63fad2108b2b91ae493688ac16e5585e000000001976a914b41df1f447cb818f96e5c9e210974e0bba35628288acdcc31400"
    }, 
    {
      "txid": "ace793ea7918c756b261c9cdb6857fc02a8057b7d53cb976ea202442ace4363e",
      "hash": "ace793ea7918c756b261c9cdb6857fc02a8057b7d53cb976ea202442ace4363e",
      "version": 1,
      "size": 372,
      "vsize": 372,
      "locktime": 1360860,
      "vin": [
        {
          "txid": "e9d7a7ff8fc10108784415cb6532817376ffb8e9b0aa20ccabf4c0a8d1204fd0",
          "vout": 29,
          "scriptSig": {
            "asm": "3044022002e4bf74a687fc7987a82d03eb9afd7790e44f361b90a42b1e3dbbf9b51f69ab022064ca457b3450b38014be43c59c7854b80ad978d2610bfe8e50d3694b80f78d30[ALL] 02851b22987fc88956f7ff2ad694d36e127890141d7d31122176746353c224493f",
            "hex": "473044022002e4bf74a687fc7987a82d03eb9afd7790e44f361b90a42b1e3dbbf9b51f69ab022064ca457b3450b38014be43c59c7854b80ad978d2610bfe8e50d3694b80f78d30012102851b22987fc88956f7ff2ad694d36e127890141d7d31122176746353c224493f"
          },
          "sequence": 4294967294
        }, 
        {
          "txid": "558e1743a252dc399ce488b0dcf5b2a8bc9e6758d916161454f3d5879444f23d",
          "vout": 0,
          "scriptSig": {
            "asm": "304402204c962951d2005a6475587a8f0f2667d1844cc6756560d7e12c5617dfc3ddb28602205b64d285d714a804c715d1988060b97d3ece3271f49ae05d7567ad9663690ac3[ALL] 02b5bceeec79d314a87cf7c6d9440953ca60b60e408954e0f978e75bb8721cf0e9",
            "hex": "47304402204c962951d2005a6475587a8f0f2667d1844cc6756560d7e12c5617dfc3ddb28602205b64d285d714a804c715d1988060b97d3ece3271f49ae05d7567ad9663690ac3012102b5bceeec79d314a87cf7c6d9440953ca60b60e408954e0f978e75bb8721cf0e9"
          },
          "sequence": 4294967294
        }
      ],
      "vout": [
        {
          "value": 8.74319049,
          "n": 0,
          "scriptPubKey": {
            "asm": "OP_DUP OP_HASH160 000ce09e8bda3cd88ee31af21a7dc3ca512d9dfb OP_EQUALVERIFY OP_CHECKSIG",
            "hex": "76a914000ce09e8bda3cd88ee31af21a7dc3ca512d9dfb88ac",
            "reqSigs": 1,
            "type": "pubkeyhash",
            "addresses": [
              "LKEDgxA4fXLVfe8rwfgA25wS2c1k3tvXM6"
            ]
          }
        }, 
        {
          "value": 0.01004652,
          "n": 1,
          "scriptPubKey": {
            "asm": "OP_DUP OP_HASH160 b425a895d58f1a0006da193fbf57d3836546e0c9 OP_EQUALVERIFY OP_CHECKSIG",
            "hex": "76a914b425a895d58f1a0006da193fbf57d3836546e0c988ac",
            "reqSigs": 1,
            "type": "pubkeyhash",
            "addresses": [
              "LbeV1JZ6d7SLNeWDY17upZzVPLAJi79b28"
            ]
          }
        }
      ],
      "hex": "0100000002d04f20d1a8c0f4abcc20aab0e9b8ff7673813265cb1544780801c18fffa7d7e91d0000006a473044022002e4bf74a687fc7987a82d03eb9afd7790e44f361b90a42b1e3dbbf9b51f69ab022064ca457b3450b38014be43c59c7854b80ad978d2610bfe8e50d3694b80f78d30012102851b22987fc88956f7ff2ad694d36e127890141d7d31122176746353c224493ffeffffff3df2449487d5f354141616d958679ebca8b2f5dcb088e49c39dc52a243178e55000000006a47304402204c962951d2005a6475587a8f0f2667d1844cc6756560d7e12c5617dfc3ddb28602205b64d285d714a804c715d1988060b97d3ece3271f49ae05d7567ad9663690ac3012102b5bceeec79d314a87cf7c6d9440953ca60b60e408954e0f978e75bb8721cf0e9feffffff02c90c1d34000000001976a914000ce09e8bda3cd88ee31af21a7dc3ca512d9dfb88ac6c540f00000000001976a914b425a895d58f1a0006da193fbf57d3836546e0c988acdcc31400"
    }, 
    {
      "txid": "df7cb8025d80d8a2c3f1206416ebd29ff949d256f9e9beec6688d4ca9358b866",
      "hash": "df7cb8025d80d8a2c3f1206416ebd29ff949d256f9e9beec6688d4ca9358b866",
      "version": 2,
      "size": 372,
      "vsize": 372,
      "locktime": 1360860,
      "vin": [
        {
          "txid": "9e7058e9b8f5ad6c628e898ffc4f6b04576798fc756a4c2081e7f8e8aefc80af",
          "vout": 0,
          "scriptSig": {
            "asm": "3044022071672c0788baaf4e49b0312bd4450bc6ee4a0081d31943ef3de7663eef0bf093022072a61a81e96fb58fb303b1a0d0f4ca572d01e0f0957bbecd4f497ab18e8a855a[ALL] 02c2e841c76448cfc26dd429125f8290c16b69c6dc08b9f9d6806e08b11863749c",
            "hex": "473044022071672c0788baaf4e49b0312bd4450bc6ee4a0081d31943ef3de7663eef0bf093022072a61a81e96fb58fb303b1a0d0f4ca572d01e0f0957bbecd4f497ab18e8a855a012102c2e841c76448cfc26dd429125f8290c16b69c6dc08b9f9d6806e08b11863749c"
          },
          "sequence": 4294967294
        }, 
        {
          "txid": "6b488edcb50216b1cdb5ccb10b10a57a2ce37a240623a017caabd3c6aaff129f",
          "vout": 1,
          "scriptSig": {
            "asm": "3044022016690ed74f1251b23116c0889d0cee6caef2958bcdf0a709c28b73baaf70a3520220775e25532ea0b3d04f07ae263fde3d199f94eaa7020bda897afd87315440f2d6[ALL] 0361e5319b126bc9dd5c68ef817f12656af44a10a0e78bf1fd84ec9ad31c701b53",
            "hex": "473044022016690ed74f1251b23116c0889d0cee6caef2958bcdf0a709c28b73baaf70a3520220775e25532ea0b3d04f07ae263fde3d199f94eaa7020bda897afd87315440f2d601210361e5319b126bc9dd5c68ef817f12656af44a10a0e78bf1fd84ec9ad31c701b53"
          },
          "sequence": 4294967294
        }
      ],
      "vout": [
        {
          "value": 5.28786494,
          "n": 0,
          "scriptPubKey": {
            "asm": "OP_DUP OP_HASH160 eca253756465345bfcba99f79844aed7df3b82a3 OP_EQUALVERIFY OP_CHECKSIG",
            "hex": "76a914eca253756465345bfcba99f79844aed7df3b82a388ac",
            "reqSigs": 1,
            "type": "pubkeyhash",
            "addresses": [
              "LgoAC6Q7j9ywU73nL1uWktqi49WXf8hpDd"
            ]
          }
        }, 
        {
          "value": 11.87000000,
          "n": 1,
          "scriptPubKey": {
            "asm": "OP_DUP OP_HASH160 d72ffbe7403cf5841780b5e6923286d220c38c33 OP_EQUALVERIFY OP_CHECKSIG",
            "hex": "76a914d72ffbe7403cf5841780b5e6923286d220c38c3388ac",
            "reqSigs": 1,
            "type": "pubkeyhash",
            "addresses": [
              "Leqm2SeyKNATykpkNEoBZZ4XRZpewuLs5v"
            ]
          }
        }
      ],
      "hex": "0200000002af80fcaee8f8e781204c6a75fc986757046b4ffc8f898e626cadf5b8e958709e000000006a473044022071672c0788baaf4e49b0312bd4450bc6ee4a0081d31943ef3de7663eef0bf093022072a61a81e96fb58fb303b1a0d0f4ca572d01e0f0957bbecd4f497ab18e8a855a012102c2e841c76448cfc26dd429125f8290c16b69c6dc08b9f9d6806e08b11863749cfeffffff9f12ffaac6d3abca17a02306247ae32c7aa5100bb1ccb5cdb11602b5dc8e486b010000006a473044022016690ed74f1251b23116c0889d0cee6caef2958bcdf0a709c28b73baaf70a3520220775e25532ea0b3d04f07ae263fde3d199f94eaa7020bda897afd87315440f2d601210361e5319b126bc9dd5c68ef817f12656af44a10a0e78bf1fd84ec9ad31c701b53feffffff023ea4841f000000001976a914eca253756465345bfcba99f79844aed7df3b82a388acc02ec046000000001976a914d72ffbe7403cf5841780b5e6923286d220c38c3388acdcc31400"
    }, 
    {
      "txid": "ad34679e9dac843d9af74cbfb503f5efb1f06359658e9299b7e80086bb82f806",
      "hash": "ad34679e9dac843d9af74cbfb503f5efb1f06359658e9299b7e80086bb82f806",
      "version": 1,
      "size": 225,
      "vsize": 225,
      "locktime": 0,
      "vin": [
        {
          "txid": "7c8f5653135115f09369af56cfe1ce8365bf8c234661da9771b34eae120a687b",
          "vout": 1,
          "scriptSig": {
            "asm": "30440220112dcec437c524afae1f55bfa778e3e69be588585ada7382cddab68773de20b5022062e653cc20afec0aec2b41919477ffc2aa2ddd971f6e82332f583849054415e8[ALL] 02dc9c0e2ddec2747d96fd13d52caf646b8a3e2d813852a38c391ab1c359813e56",
            "hex": "4730440220112dcec437c524afae1f55bfa778e3e69be588585ada7382cddab68773de20b5022062e653cc20afec0aec2b41919477ffc2aa2ddd971f6e82332f583849054415e8012102dc9c0e2ddec2747d96fd13d52caf646b8a3e2d813852a38c391ab1c359813e56"
          },
          "sequence": 4294967295
        }
      ],
      "vout": [
        {
          "value": 6.74055000,
          "n": 0,
          "scriptPubKey": {
            "asm": "OP_DUP OP_HASH160 64dc489883d229ae081619e2fc619a2c9cb22d71 OP_EQUALVERIFY OP_CHECKSIG",
            "hex": "76a91464dc489883d229ae081619e2fc619a2c9cb22d7188ac",
            "reqSigs": 1,
            "type": "pubkeyhash",
            "addresses": [
              "LURFiy4L24tND1kLrAxYDLC4wjXQ78yozh"
            ]
          }
        }, 
        {
          "value": 1.11448738,
          "n": 1,
          "scriptPubKey": {
            "asm": "OP_DUP OP_HASH160 de39c09db02694a79b728378b5e83c5047b5d0c0 OP_EQUALVERIFY OP_CHECKSIG",
            "hex": "76a914de39c09db02694a79b728378b5e83c5047b5d0c088ac",
            "reqSigs": 1,
            "type": "pubkeyhash",
            "addresses": [
              "LfUyTWMSJeM9iVFcJX9GdtuHhx54w5DYbM"
            ]
          }
        }
      ],
      "hex": "01000000017b680a12ae4eb37197da6146238cbf6583cee1cf56af6993f015511353568f7c010000006a4730440220112dcec437c524afae1f55bfa778e3e69be588585ada7382cddab68773de20b5022062e653cc20afec0aec2b41919477ffc2aa2ddd971f6e82332f583849054415e8012102dc9c0e2ddec2747d96fd13d52caf646b8a3e2d813852a38c391ab1c359813e56ffffffff0258432d28000000001976a91464dc489883d229ae081619e2fc619a2c9cb22d7188aca292a406000000001976a914de39c09db02694a79b728378b5e83c5047b5d0c088ac00000000"
    }, 
    {
      "txid": "6e4c0a198f0aabf82d03f7be3a3c32590bbdef2e3c72d9d3941031c7e7f94472",
      "hash": "6e4c0a198f0aabf82d03f7be3a3c32590bbdef2e3c72d9d3941031c7e7f94472",
      "version": 2,
      "size": 225,
      "vsize": 225,
      "locktime": 1360860,
      "vin": [
        {
          "txid": "60a178f1aac2c8dfbdbd30ac9a90381d7df845af085a6b068d2468a599a5a063",
          "vout": 0,
          "scriptSig": {
            "asm": "30440220622832881d7e8ca91065b391a4e91a93119186b1fc1254144dee9c722f9005570220669fec16dec50921dc9346a2ff30bd22739c92ede4d2648a1da7ab7e1102a202[ALL] 02572bbc5710babe34cc89289cb784d62bf66cef30f241d573bf51a0d89a878e85",
            "hex": "4730440220622832881d7e8ca91065b391a4e91a93119186b1fc1254144dee9c722f9005570220669fec16dec50921dc9346a2ff30bd22739c92ede4d2648a1da7ab7e1102a202012102572bbc5710babe34cc89289cb784d62bf66cef30f241d573bf51a0d89a878e85"
          },
          "sequence": 4294967294
        }
      ],
      "vout": [
        {
          "value": 0.57094829,
          "n": 0,
          "scriptPubKey": {
            "asm": "OP_DUP OP_HASH160 b079717da9980353c57e8d9ba211961be464b86d OP_EQUALVERIFY OP_CHECKSIG",
            "hex": "76a914b079717da9980353c57e8d9ba211961be464b86d88ac",
            "reqSigs": 1,
            "type": "pubkeyhash",
            "addresses": [
              "LbK4g1FqU7TH8soXBjJAB7ZtAyfXhj6HxG"
            ]
          }
        }, 
        {
          "value": 0.71000000,
          "n": 1,
          "scriptPubKey": {
            "asm": "OP_DUP OP_HASH160 0db3143a90116a2283b32b20ae07f14e589ed1cb OP_EQUALVERIFY OP_CHECKSIG",
            "hex": "76a9140db3143a90116a2283b32b20ae07f14e589ed1cb88ac",
            "reqSigs": 1,
            "type": "pubkeyhash",
            "addresses": [
              "LLUPaLPiMQ65zT4igwkLU78VXaz6X5AaCM"
            ]
          }
        }
      ],
      "hex": "020000000163a0a599a568248d066b5a08af45f87d1d38909aac30bdbddfc8c2aaf178a160000000006a4730440220622832881d7e8ca91065b391a4e91a93119186b1fc1254144dee9c722f9005570220669fec16dec50921dc9346a2ff30bd22739c92ede4d2648a1da7ab7e1102a202012102572bbc5710babe34cc89289cb784d62bf66cef30f241d573bf51a0d89a878e85feffffff02ad326703000000001976a914b079717da9980353c57e8d9ba211961be464b86d88acc05f3b04000000001976a9140db3143a90116a2283b32b20ae07f14e589ed1cb88acdcc31400"
    }, 
    {
      "txid": "f5037aa4e9845a09431b47ea9be824a48d9da540911fd5bfeb6f646041856525",
      "hash": "f5037aa4e9845a09431b47ea9be824a48d9da540911fd5bfeb6f646041856525",
      "version": 1,
      "size": 226,
      "vsize": 226,
      "locktime": 0,
      "vin": [
        {
          "txid": "8ba862496b474cf66cd9efc381da4886d8fc49411e24ea2f01e2098c27e837ba",
          "vout": 0,
          "scriptSig": {
            "asm": "3045022100ddda5a4a7b2ff5a71e558f806e404b50239a7954d43c9dbc3e23119a7d502c1002202b777548a3c367da7efb0cf5bd657c38b0ea2f3257f101a05244380ee261c4de[ALL] 03edcc7e10acd8e4591256431f1a6047dd0c8a2244054198d1b6e53e6a8f8e3492",
            "hex": "483045022100ddda5a4a7b2ff5a71e558f806e404b50239a7954d43c9dbc3e23119a7d502c1002202b777548a3c367da7efb0cf5bd657c38b0ea2f3257f101a05244380ee261c4de012103edcc7e10acd8e4591256431f1a6047dd0c8a2244054198d1b6e53e6a8f8e3492"
          },
          "sequence": 4294967295
        }
      ],
      "vout": [
        {
          "value": 1.08827400,
          "n": 0,
          "scriptPubKey": {
            "asm": "OP_DUP OP_HASH160 28879ca36e525076811535194f31ea3906a2c4f7 OP_EQUALVERIFY OP_CHECKSIG",
            "hex": "76a91428879ca36e525076811535194f31ea3906a2c4f788ac",
            "reqSigs": 1,
            "type": "pubkeyhash",
            "addresses": [
              "LNvFkN4wpZaMi1MgrHu7Wb8JUL8Jg9jQ3w"
            ]
          }
        }, 
        {
          "value": 3.90150000,
          "n": 1,
          "scriptPubKey": {
            "asm": "OP_DUP OP_HASH160 b84559c46e82ea94efdf377e0f8424ba976c4fe4 OP_EQUALVERIFY OP_CHECKSIG",
            "hex": "76a914b84559c46e82ea94efdf377e0f8424ba976c4fe488ac",
            "reqSigs": 1,
            "type": "pubkeyhash",
            "addresses": [
              "Lc2Hg5Tcrjj1AiHHj5GuWdDyY1ujMi1X7n"
            ]
          }
        }
      ],
      "hex": "0100000001ba37e8278c09e2012fea241e4149fcd88648da81c3efd96cf64c476b4962a88b000000006b483045022100ddda5a4a7b2ff5a71e558f806e404b50239a7954d43c9dbc3e23119a7d502c1002202b777548a3c367da7efb0cf5bd657c38b0ea2f3257f101a05244380ee261c4de012103edcc7e10acd8e4591256431f1a6047dd0c8a2244054198d1b6e53e6a8f8e3492ffffffff0208937c06000000001976a91428879ca36e525076811535194f31ea3906a2c4f788ac70374117000000001976a914b84559c46e82ea94efdf377e0f8424ba976c4fe488ac00000000"
    }, 
    {
      "txid": "8251e4ae9742c66a2c090500272a462caf43ab9e90699e7d9ee7b5ff304be386",
      "hash": "8251e4ae9742c66a2c090500272a462caf43ab9e90699e7d9ee7b5ff304be386",
      "version": 1,
      "size": 226,
      "vsize": 226,
      "locktime": 0,
      "vin": [
        {
          "txid": "5ac5f594502aeee73b11408566edd1786630bc33d0b94d6c87c373de6a031fe6",
          "vout": 0,
          "scriptSig": {
            "asm": "3045022100ce87a86278328a69c34a8c1f789c47d41a5940f5a26c4d19d27202355c2aba0b02202f91b3ef91cbb56a093b6e30825d935346b0cd26b9551592448fd2a445e8e1e8[ALL] 035d93ddb6e42363e7b771f1ba96b30ad8b55d8ad61d8fb82ef05ff59db6f3ae31",
            "hex": "483045022100ce87a86278328a69c34a8c1f789c47d41a5940f5a26c4d19d27202355c2aba0b02202f91b3ef91cbb56a093b6e30825d935346b0cd26b9551592448fd2a445e8e1e80121035d93ddb6e42363e7b771f1ba96b30ad8b55d8ad61d8fb82ef05ff59db6f3ae31"
          },
          "sequence": 4294967295
        }
      ],
      "vout": [
        {
          "value": 4.99000000,
          "n": 0,
          "scriptPubKey": {
            "asm": "OP_DUP OP_HASH160 7a96a72dc6ad86a5f4cfb0dcf076ea2dc0060139 OP_EQUALVERIFY OP_CHECKSIG",
            "hex": "76a9147a96a72dc6ad86a5f4cfb0dcf076ea2dc006013988ac",
            "reqSigs": 1,
            "type": "pubkeyhash",
            "addresses": [
              "LWQ9BAzvYV5VBtebPdhnEKDJfsYYQVspks"
            ]
          }
        }, 
        {
          "value": 0.86739544,
          "n": 1,
          "scriptPubKey": {
            "asm": "OP_DUP OP_HASH160 af295b7666d250d8c9f10f41f9e6340ffa35c743 OP_EQUALVERIFY OP_CHECKSIG",
            "hex": "76a914af295b7666d250d8c9f10f41f9e6340ffa35c74388ac",
            "reqSigs": 1,
            "type": "pubkeyhash",
            "addresses": [
              "LbC84LWdEPzbys72VQEs86rGEdwTT7WfzY"
            ]
          }
        }
      ],
      "hex": "0100000001e61f036ade73c3876c4db9d033bc306678d1ed668540113be7ee2a5094f5c55a000000006b483045022100ce87a86278328a69c34a8c1f789c47d41a5940f5a26c4d19d27202355c2aba0b02202f91b3ef91cbb56a093b6e30825d935346b0cd26b9551592448fd2a445e8e1e80121035d93ddb6e42363e7b771f1ba96b30ad8b55d8ad61d8fb82ef05ff59db6f3ae31ffffffff02c022be1d000000001976a9147a96a72dc6ad86a5f4cfb0dcf076ea2dc006013988ac588a2b05000000001976a914af295b7666d250d8c9f10f41f9e6340ffa35c74388ac00000000"
    }, 
    {
      "txid": "5b06585a08f577b41fed7661ab03e3362094f6a3dd439f29cf348a589aa8d9a3",
      "hash": "5b06585a08f577b41fed7661ab03e3362094f6a3dd439f29cf348a589aa8d9a3",
      "version": 1,
      "size": 226,
      "vsize": 226,
      "locktime": 0,
      "vin": [
        {
          "txid": "2bff5b6d68ca149e08d1011dbd02dfac8eaefac2f416e977f3106003f7ad7cde",
          "vout": 1,
          "scriptSig": {
            "asm": "3045022100a26fa9f26aea187e70939686b5961846bd91c9ff37b5871c9c074462d63aa62002205c666318ceed42dfe5a06758733469ccb109626d91bb145b1a369cbc440b024e[ALL] 0324343b7207f3d97ec70d16b69084d5250e7f50cc1a1cef5db6a1059f423798bf",
            "hex": "483045022100a26fa9f26aea187e70939686b5961846bd91c9ff37b5871c9c074462d63aa62002205c666318ceed42dfe5a06758733469ccb109626d91bb145b1a369cbc440b024e01210324343b7207f3d97ec70d16b69084d5250e7f50cc1a1cef5db6a1059f423798bf"
          },
          "sequence": 4294967295
        }
      ],
      "vout": [
        {
          "value": 1.04000000,
          "n": 0,
          "scriptPubKey": {
            "asm": "OP_DUP OP_HASH160 cb176c9d73204e9d1421e964a76020a10f95a78a OP_EQUALVERIFY OP_CHECKSIG",
            "hex": "76a914cb176c9d73204e9d1421e964a76020a10f95a78a88ac",
            "reqSigs": 1,
            "type": "pubkeyhash",
            "addresses": [
              "LdjoVhfWvkhzjLMf5XpTFJeX5Gbfw3DQfk"
            ]
          }
        }, 
        {
          "value": 0.16538149,
          "n": 1,
          "scriptPubKey": {
            "asm": "OP_DUP OP_HASH160 dfe3e508847f28ed7e3457ca1a2844393d59ce6f OP_EQUALVERIFY OP_CHECKSIG",
            "hex": "76a914dfe3e508847f28ed7e3457ca1a2844393d59ce6f88ac",
            "reqSigs": 1,
            "type": "pubkeyhash",
            "addresses": [
              "LfdmxPZip5m9Tae9Gt2AwkDYDLga7rB5EQ"
            ]
          }
        }
      ],
      "hex": "0100000001de7cadf7036010f377e916f4c2faae8eacdf02bd1d01d1089e14ca686d5bff2b010000006b483045022100a26fa9f26aea187e70939686b5961846bd91c9ff37b5871c9c074462d63aa62002205c666318ceed42dfe5a06758733469ccb109626d91bb145b1a369cbc440b024e01210324343b7207f3d97ec70d16b69084d5250e7f50cc1a1cef5db6a1059f423798bfffffffff0200ea3206000000001976a914cb176c9d73204e9d1421e964a76020a10f95a78a88ac255afc00000000001976a914dfe3e508847f28ed7e3457ca1a2844393d59ce6f88ac00000000"
    }, 
    {
      "txid": "e17baede25304b6513252d3d17be328dcfe0e5621f145a883ff36ab23a23acdb",
      "hash": "e17baede25304b6513252d3d17be328dcfe0e5621f145a883ff36ab23a23acdb",
      "version": 2,
      "size": 374,
      "vsize": 374,
      "locktime": 1360860,
      "vin": [
        {
          "txid": "f44aeffba9c093aeea34adccb97eafddac7245e900e9da6de218a3b296f6ea53",
          "vout": 0,
          "scriptSig": {
            "asm": "3045022100d33010154a393c580cbea480eae07379a38a928c2023540edc3e94fb5d5f89c602204b2d2281b9e57318b1f63b5b9ff023e8b5d34a94a5bc56ba8520917691514816[ALL] 02f04a1d01cc11a6f555c44cc71544ab075afcfdaceb6f75681244fe2e8b0d84cf",
            "hex": "483045022100d33010154a393c580cbea480eae07379a38a928c2023540edc3e94fb5d5f89c602204b2d2281b9e57318b1f63b5b9ff023e8b5d34a94a5bc56ba8520917691514816012102f04a1d01cc11a6f555c44cc71544ab075afcfdaceb6f75681244fe2e8b0d84cf"
          },
          "sequence": 4294967294
        }, 
        {
          "txid": "8ca7fdf03765236d1766c40596ff98a5e0f5d7d878bb2ad8aecc13e64ebf4643",
          "vout": 0,
          "scriptSig": {
            "asm": "3045022100f2fd398eac19225b7770268f260485b5b398c49e835ce585e0b834670aea08a902205f342af40d1db9fc01f6233b5d051948e7a4f808db6bc6b4b2bbb15cd14db69c[ALL] 022be79737747a0f073248177d8b3123bd8566b7142357a53570d999961d699e34",
            "hex": "483045022100f2fd398eac19225b7770268f260485b5b398c49e835ce585e0b834670aea08a902205f342af40d1db9fc01f6233b5d051948e7a4f808db6bc6b4b2bbb15cd14db69c0121022be79737747a0f073248177d8b3123bd8566b7142357a53570d999961d699e34"
          },
          "sequence": 4294967294
        }
      ],
      "vout": [
        {
          "value": 0.00987781,
          "n": 0,
          "scriptPubKey": {
            "asm": "OP_DUP OP_HASH160 0aa17ba86d4f0b6b09b8c052b72b8b92f5fb6d11 OP_EQUALVERIFY OP_CHECKSIG",
            "hex": "76a9140aa17ba86d4f0b6b09b8c052b72b8b92f5fb6d1188ac",
            "reqSigs": 1,
            "type": "pubkeyhash",
            "addresses": [
              "LLCAUAncpjtx3R9VD1sBi9VKrfxZKxjCyP"
            ]
          }
        }, 
        {
          "value": 0.16545232,
          "n": 1,
          "scriptPubKey": {
            "asm": "OP_DUP OP_HASH160 8bd1d7ddb504d87c63b6413d2047edfdf9eb19e8 OP_EQUALVERIFY OP_CHECKSIG",
            "hex": "76a9148bd1d7ddb504d87c63b6413d2047edfdf9eb19e888ac",
            "reqSigs": 1,
            "type": "pubkeyhash",
            "addresses": [
              "LXyFa3JJRgQxdzoMNp3PiTTCjWCLrBKHno"
            ]
          }
        }
      ],
      "hex": "020000000253eaf696b2a318e26ddae900e94572acddaf7eb9ccad34eaae93c0a9fbef4af4000000006b483045022100d33010154a393c580cbea480eae07379a38a928c2023540edc3e94fb5d5f89c602204b2d2281b9e57318b1f63b5b9ff023e8b5d34a94a5bc56ba8520917691514816012102f04a1d01cc11a6f555c44cc71544ab075afcfdaceb6f75681244fe2e8b0d84cffeffffff4346bf4ee613ccaed82abb78d8d7f5e0a598ff9605c466176d236537f0fda78c000000006b483045022100f2fd398eac19225b7770268f260485b5b398c49e835ce585e0b834670aea08a902205f342af40d1db9fc01f6233b5d051948e7a4f808db6bc6b4b2bbb15cd14db69c0121022be79737747a0f073248177d8b3123bd8566b7142357a53570d999961d699e34feffffff0285120f00000000001976a9140aa17ba86d4f0b6b09b8c052b72b8b92f5fb6d1188acd075fc00000000001976a9148bd1d7ddb504d87c63b6413d2047edfdf9eb19e888acdcc31400"
    }, 
    {
      "txid": "4dbdacdec5df69cf3fe8eab1cf8b030b87c5463a5b09ce9fa34ea22a75bb8aff",
      "hash": "4dbdacdec5df69cf3fe8eab1cf8b030b87c5463a5b09ce9fa34ea22a75bb8aff",
      "version": 1,
      "size": 226,
      "vsize": 226,
      "locktime": 0,
      "vin": [
        {
          "txid": "6de64389d20f97445dc8c813dd87b209ba3f3b836226558a86d486c42797657a",
          "vout": 0,
          "scriptSig": {
            "asm": "3045022100b102caec686c90fbe4f83ea12c3d3e359c9bf4b8e7630313a9b2b86ebcda6e5802203dd6033e23f7e773e92b23935301bb6be3e62aaddff230f01cba512039eac56f[ALL] 0210d61afa9cdf7b46ec64a428d683f19bb519d461f35c4f27cac52a91a49790c4",
            "hex": "483045022100b102caec686c90fbe4f83ea12c3d3e359c9bf4b8e7630313a9b2b86ebcda6e5802203dd6033e23f7e773e92b23935301bb6be3e62aaddff230f01cba512039eac56f01210210d61afa9cdf7b46ec64a428d683f19bb519d461f35c4f27cac52a91a49790c4"
          },
          "sequence": 4294967295
        }
      ],
      "vout": [
        {
          "value": 0.40376434,
          "n": 0,
          "scriptPubKey": {
            "asm": "OP_DUP OP_HASH160 9cb4d26d39f6eb498c741e0596978e7939cbd4aa OP_EQUALVERIFY OP_CHECKSIG",
            "hex": "76a9149cb4d26d39f6eb498c741e0596978e7939cbd4aa88ac",
            "reqSigs": 1,
            "type": "pubkeyhash",
            "addresses": [
              "LZWYHsQh2NdEYjUnH8jFsSQSDhskbSL92Z"
            ]
          }
        }, 
        {
          "value": 0.78517588,
          "n": 1,
          "scriptPubKey": {
            "asm": "OP_DUP OP_HASH160 41b539341c9b6398a66d511ca766ed2b26bb7080 OP_EQUALVERIFY OP_CHECKSIG",
            "hex": "76a91441b539341c9b6398a66d511ca766ed2b26bb708088ac",
            "reqSigs": 1,
            "type": "pubkeyhash",
            "addresses": [
              "LRDPHJpqaoXm4r9ByBJTnKyLDGfXD3xfuu"
            ]
          }
        }
      ],
      "hex": "01000000017a659727c486d4868a552662833b3fba09b287dd13c8c85d44970fd28943e66d000000006b483045022100b102caec686c90fbe4f83ea12c3d3e359c9bf4b8e7630313a9b2b86ebcda6e5802203dd6033e23f7e773e92b23935301bb6be3e62aaddff230f01cba512039eac56f01210210d61afa9cdf7b46ec64a428d683f19bb519d461f35c4f27cac52a91a49790c4ffffffff0272186802000000001976a9149cb4d26d39f6eb498c741e0596978e7939cbd4aa88ac5415ae04000000001976a91441b539341c9b6398a66d511ca766ed2b26bb708088ac00000000"
    }
  ],
  "time": 1517491687,
  "mediantime": 1517491030,
  "nonce": 765691402,
  "bits": "1a04088e",
  "difficulty": 4159490.835685156,
  "chainwork": "000000000000000000000000000000000000000000000035564b4ec7c6d5e3b0",
  "previousblockhash": "fa9d14ea409470eee4cc3020b948c88320df6aa9cd71aa7a50922f2f17c7cf1c",
  "nextblockhash": "b954c0c589cea4baceaeab5bda8aa5cb152aefb06a0a0b44ba8344bf3aa1686b"
}
