{
  "hash": "790b7a1fe2adb3338cfe02d2b02be4763e94fa7429d260a6862933f2f31a6740",
  "confirmations": 1069,
  "strippedsize": 253,
  "size": 253,
  "weight": 1012,
  "height": 1359925,
  "version": 536870912,
  "versionHex": "20000000",
  "merkleroot": "d5146e25fefc538b48d1d511b9a4f935207a1f90866e5d019f82413029d4b671",
  "tx": [
    {
      "txid": "d5146e25fefc538b48d1d511b9a4f935207a1f90866e5d019f82413029d4b671",
      "hash": "d5146e25fefc538b48d1d511b9a4f935207a1f90866e5d019f82413029d4b671",
      "version": 1,
      "size": 172,
      "vsize": 172,
      "locktime": 0,
      "vin": [
        {
          "coinbase": "0335c0141a4d696e656420627920416e74506f6f6c20626a3242205a70eb5cfabe6d6db0d022bb2f7838d9ca6d99c2956e649ea285f1becf9a75eead4b4fa2988ad1060400000000000000f8240000000000001e000000",
          "sequence": 4294967295
        }
      ],
      "vout": [
        {
          "value": 25.00000000,
          "n": 0,
          "scriptPubKey": {
            "asm": "OP_DUP OP_HASH160 0ff3ccc5e8be88afe24b5d634e5852d474dbdff1 OP_EQUALVERIFY OP_CHECKSIG",
            "hex": "76a9140ff3ccc5e8be88afe24b5d634e5852d474dbdff188ac",
            "reqSigs": 1,
            "type": "pubkeyhash",
            "addresses": [
              "LLgJTbzZMsRTCUF1NtvvL9SR1a4pVieW89"
            ]
          }
        }
      ],
      "hex": "01000000010000000000000000000000000000000000000000000000000000000000000000ffffffff570335c0141a4d696e656420627920416e74506f6f6c20626a3242205a70eb5cfabe6d6db0d022bb2f7838d9ca6d99c2956e649ea285f1becf9a75eead4b4fa2988ad1060400000000000000f8240000000000001e000000ffffffff0100f90295000000001976a9140ff3ccc5e8be88afe24b5d634e5852d474dbdff188ac00000000"
    }
  ],
  "time": 1517349724,
  "mediantime": 1517348797,
  "nonce": 4143381521,
  "bits": "1a042eae",
  "difficulty": 4011378.762614286,
  "chainwork": "00000000000000000000000000000000000000000000003475b36baeb76fce6c",
  "previousblockhash": "2998a627dc3bc40c9aa501b1063ade17cb3a213bc8737ce860afa5b55c81441a",
  "nextblockhash": "338b624640ad0b68a637d1af3c980363403440e8aaf4f065ca496d9a4d6957fa"
}
