{
  "hash": "790e81c5e47a2174c1f98ac5be84e9e75d5cb020d31e0c8913146ad4e65fcfe7",
  "confirmations": 466,
  "strippedsize": 1158,
  "size": 1194,
  "weight": 4668,
  "height": 1360528,
  "version": 536870912,
  "versionHex": "20000000",
  "merkleroot": "028392afffa719cdbb22ed419d535ee559708bb9892f5a9cb33478620e40506b",
  "tx": [
    {
      "txid": "04cbeb0d5a6801b9e3cf7b0f10e0187be2fe2fe38c795cca87c8460474e8243b",
      "hash": "2147dd0b116a68fd5b74510d9d9d667988a9228a01b4ee232d745493a92451ed",
      "version": 1,
      "size": 244,
      "vsize": 217,
      "locktime": 0,
      "vin": [
        {
          "coinbase": "0390c214046a5c725a08032dca6c2f000000fabe6d6db5676135f30abad81d6b24cdc093e0ecbb7fc38a55874e5da141de800b2da07340000000000000000d2f6e6f64655374726174756d2f",
          "sequence": 0
        }
      ],
      "vout": [
        {
          "value": 25.00087000,
          "n": 0,
          "scriptPubKey": {
            "asm": "OP_DUP OP_HASH160 0c617fdb2ea42aed30a509595ee21ba3f6688db0 OP_EQUALVERIFY OP_CHECKSIG",
            "hex": "76a9140c617fdb2ea42aed30a509595ee21ba3f6688db088ac",
            "reqSigs": 1,
            "type": "pubkeyhash",
            "addresses": [
              "LLMRAtr3qBje2ySEa3CnZ55LA4TQMWnRY3"
            ]
          }
        }, 
        {
          "value": 0.00000000,
          "n": 1,
          "scriptPubKey": {
            "asm": "OP_RETURN aa21a9edd075147e3cf255b0e4b549d71ab626750be70b054ab0ae1672285667d20e197f",
            "hex": "6a24aa21a9edd075147e3cf255b0e4b549d71ab626750be70b054ab0ae1672285667d20e197f",
            "type": "nulldata"
          }
        }
      ],
      "hex": "010000000001010000000000000000000000000000000000000000000000000000000000000000ffffffff4c0390c214046a5c725a08032dca6c2f000000fabe6d6db5676135f30abad81d6b24cdc093e0ecbb7fc38a55874e5da141de800b2da07340000000000000000d2f6e6f64655374726174756d2f0000000002d84c0495000000001976a9140c617fdb2ea42aed30a509595ee21ba3f6688db088ac0000000000000000266a24aa21a9edd075147e3cf255b0e4b549d71ab626750be70b054ab0ae1672285667d20e197f0120000000000000000000000000000000000000000000000000000000000000000000000000"
    }, 
    {
      "txid": "4bcf3163a66cdbe960abf94ff409463eb081e49301e2a92eaa17378dbd61e6e8",
      "hash": "4bcf3163a66cdbe960abf94ff409463eb081e49301e2a92eaa17378dbd61e6e8",
      "version": 1,
      "size": 225,
      "vsize": 225,
      "locktime": 0,
      "vin": [
        {
          "txid": "f16a4ba409ba7f2de029d23c2235a4c716591e759fa63cce5b3ebb177425fdcb",
          "vout": 1,
          "scriptSig": {
            "asm": "304402203ba5e713f1f151a822a0b83a74831352333b0b759f90ad753172337503ac36e70220251ad03784b37775171772d8133dcc10e8ffd8102fd95ba37591c168dd1fe708[ALL] 03a696c2989b4d524662b983b429c87a92ef304e1512c4d0c2bfb610505437f5bf",
            "hex": "47304402203ba5e713f1f151a822a0b83a74831352333b0b759f90ad753172337503ac36e70220251ad03784b37775171772d8133dcc10e8ffd8102fd95ba37591c168dd1fe708012103a696c2989b4d524662b983b429c87a92ef304e1512c4d0c2bfb610505437f5bf"
          },
          "sequence": 4294967295
        }
      ],
      "vout": [
        {
          "value": 0.03404820,
          "n": 0,
          "scriptPubKey": {
            "asm": "OP_DUP OP_HASH160 1378fd37a4b986d78715954012b56d9545a1308a OP_EQUALVERIFY OP_CHECKSIG",
            "hex": "76a9141378fd37a4b986d78715954012b56d9545a1308a88ac",
            "reqSigs": 1,
            "type": "pubkeyhash",
            "addresses": [
              "LLzv3L6At9JAtUziXbbFZmUDHrX2jP5Xa5"
            ]
          }
        }, 
        {
          "value": 0.59203665,
          "n": 1,
          "scriptPubKey": {
            "asm": "OP_DUP OP_HASH160 641908d98bc467469b51e4c79d8ae764f01fa030 OP_EQUALVERIFY OP_CHECKSIG",
            "hex": "76a914641908d98bc467469b51e4c79d8ae764f01fa03088ac",
            "reqSigs": 1,
            "type": "pubkeyhash",
            "addresses": [
              "LUMDpq17k9qRGfkGsHjnLLEAABBWyFedcE"
            ]
          }
        }
      ],
      "hex": "0100000001cbfd257417bb3e5bce3ca69f751e5916c7a435223cd229e02d7fba09a44b6af1010000006a47304402203ba5e713f1f151a822a0b83a74831352333b0b759f90ad753172337503ac36e70220251ad03784b37775171772d8133dcc10e8ffd8102fd95ba37591c168dd1fe708012103a696c2989b4d524662b983b429c87a92ef304e1512c4d0c2bfb610505437f5bfffffffff0214f43300000000001976a9141378fd37a4b986d78715954012b56d9545a1308a88ac51608703000000001976a914641908d98bc467469b51e4c79d8ae764f01fa03088ac00000000"
    }, 
    {
      "txid": "f7551ebf70a57e9e16ccfc7c2abbd7e14ea343133734462ddea47c7b18d21214",
      "hash": "f7551ebf70a57e9e16ccfc7c2abbd7e14ea343133734462ddea47c7b18d21214",
      "version": 2,
      "size": 192,
      "vsize": 192,
      "locktime": 1360526,
      "vin": [
        {
          "txid": "9be9a865d85a131ae4dc10421c448bd9d6a0ae0ebbb9951a754346e98eb999de",
          "vout": 1,
          "scriptSig": {
            "asm": "304502210082eceec3f24b008d3a8e3d82e52f41f6d611c9405b271b1e4eead2ff4379bc5102207ede87190112bb8f1dd735f7facb3ccdb9a155a8afecde4ed4cce6e511026e61[ALL] 0207ee51f3dc05a9db5b059685490b178547ca6c90263a5f8dd972b42b845e533c",
            "hex": "48304502210082eceec3f24b008d3a8e3d82e52f41f6d611c9405b271b1e4eead2ff4379bc5102207ede87190112bb8f1dd735f7facb3ccdb9a155a8afecde4ed4cce6e511026e6101210207ee51f3dc05a9db5b059685490b178547ca6c90263a5f8dd972b42b845e533c"
          },
          "sequence": 4294967294
        }
      ],
      "vout": [
        {
          "value": 0.05518800,
          "n": 0,
          "scriptPubKey": {
            "asm": "OP_DUP OP_HASH160 112a7591d13894a7470d443310a7f2859fb8119a OP_EQUALVERIFY OP_CHECKSIG",
            "hex": "76a914112a7591d13894a7470d443310a7f2859fb8119a88ac",
            "reqSigs": 1,
            "type": "pubkeyhash",
            "addresses": [
              "LLnicbTk5u6eXpCTmnjPAniyi4NPVjgtH3"
            ]
          }
        }
      ],
      "hex": "0200000001de99b98ee94643751a95b9bb0eaea0d6d98b441c4210dce41a135ad865a8e99b010000006b48304502210082eceec3f24b008d3a8e3d82e52f41f6d611c9405b271b1e4eead2ff4379bc5102207ede87190112bb8f1dd735f7facb3ccdb9a155a8afecde4ed4cce6e511026e6101210207ee51f3dc05a9db5b059685490b178547ca6c90263a5f8dd972b42b845e533cfeffffff01d0355400000000001976a914112a7591d13894a7470d443310a7f2859fb8119a88ac8ec21400"
    }, 
    {
      "txid": "d635bbb0c9cc02b3448e4ce4463f2630e3b165c904e172253fdcbcf2692aa26d",
      "hash": "d635bbb0c9cc02b3448e4ce4463f2630e3b165c904e172253fdcbcf2692aa26d",
      "version": 2,
      "size": 226,
      "vsize": 226,
      "locktime": 1360526,
      "vin": [
        {
          "txid": "25672af58ef2ff311f7f2acb17484e2a16cfaa5cd7e638f540dcc96298cc0891",
          "vout": 0,
          "scriptSig": {
            "asm": "3045022100fcdb621ea381a7139e31eb384bacff1ebfaea9a70b28deb173cdf8441c849af902202fb0839307381d39605143a7510d77d89e789fc8a7478a175e4cdf7093564e4c[ALL] 031281da1ee2a1dc04af6ff85ce0d859c58e38577d79b06b5ed8884da3913c7a0d",
            "hex": "483045022100fcdb621ea381a7139e31eb384bacff1ebfaea9a70b28deb173cdf8441c849af902202fb0839307381d39605143a7510d77d89e789fc8a7478a175e4cdf7093564e4c0121031281da1ee2a1dc04af6ff85ce0d859c58e38577d79b06b5ed8884da3913c7a0d"
          },
          "sequence": 4294967294
        }
      ],
      "vout": [
        {
          "value": 0.21863897,
          "n": 0,
          "scriptPubKey": {
            "asm": "OP_DUP OP_HASH160 e55a360c613999b0f55aade596dd3c73c3a9849b OP_EQUALVERIFY OP_CHECKSIG",
            "hex": "76a914e55a360c613999b0f55aade596dd3c73c3a9849b88ac",
            "reqSigs": 1,
            "type": "pubkeyhash",
            "addresses": [
              "Lg8f57yiuyNSgPAL8c7AcVh2xmWX5PMYfW"
            ]
          }
        }, 
        {
          "value": 12.60765139,
          "n": 1,
          "scriptPubKey": {
            "asm": "OP_DUP OP_HASH160 1f2546e2e4e5380a75b1006886ff0861e38e631c OP_EQUALVERIFY OP_CHECKSIG",
            "hex": "76a9141f2546e2e4e5380a75b1006886ff0861e38e631c88ac",
            "reqSigs": 1,
            "type": "pubkeyhash",
            "addresses": [
              "LN4dsCo1ZxfxzJ2jZFBqXELfqwpyv9xkxN"
            ]
          }
        }
      ],
      "hex": "02000000019108cc9862c9dc40f538e6d75caacf162a4e4817cb2a7f1f31fff28ef52a6725000000006b483045022100fcdb621ea381a7139e31eb384bacff1ebfaea9a70b28deb173cdf8441c849af902202fb0839307381d39605143a7510d77d89e789fc8a7478a175e4cdf7093564e4c0121031281da1ee2a1dc04af6ff85ce0d859c58e38577d79b06b5ed8884da3913c7a0dfeffffff02d99d4d01000000001976a914e55a360c613999b0f55aade596dd3c73c3a9849b88acd3bf254b000000001976a9141f2546e2e4e5380a75b1006886ff0861e38e631c88ac8ec21400"
    }, 
    {
      "txid": "d2d8e2c7278d60e61f09e1b3723045add284c7965df31b01b0a8728941ce50f4",
      "hash": "d2d8e2c7278d60e61f09e1b3723045add284c7965df31b01b0a8728941ce50f4",
      "version": 1,
      "size": 226,
      "vsize": 226,
      "locktime": 0,
      "vin": [
        {
          "txid": "f00c777d1a8315e1441c03103907d3bf0cae0643b5bc517d895a302549607a3a",
          "vout": 1,
          "scriptSig": {
            "asm": "3045022100a13762b131e40b0892389f8a780c807241ff262bc4c3f0010fc6511e8dabc16d02204f60c38d79dc27a522ab39d9ac9088de4a07339a10bba8a10861b39318150851[ALL] 0237ade80335a8fc4d910c8a4c0ef0600474ab963047407a38de2ef68c4e495122",
            "hex": "483045022100a13762b131e40b0892389f8a780c807241ff262bc4c3f0010fc6511e8dabc16d02204f60c38d79dc27a522ab39d9ac9088de4a07339a10bba8a10861b3931815085101210237ade80335a8fc4d910c8a4c0ef0600474ab963047407a38de2ef68c4e495122"
          },
          "sequence": 4294967295
        }
      ],
      "vout": [
        {
          "value": 0.01787201,
          "n": 0,
          "scriptPubKey": {
            "asm": "OP_DUP OP_HASH160 61508eb4a3e8f81116f7066294950064d3d3728c OP_EQUALVERIFY OP_CHECKSIG",
            "hex": "76a91461508eb4a3e8f81116f7066294950064d3d3728c88ac",
            "reqSigs": 1,
            "type": "pubkeyhash",
            "addresses": [
              "LU6WK3r5YVPv2LCXMkv6Q5PPZKpCFoCETC"
            ]
          }
        }, 
        {
          "value": 0.23167599,
          "n": 1,
          "scriptPubKey": {
            "asm": "OP_DUP OP_HASH160 47f6d4a974b54a76135465e8fcda17c8e9891c68 OP_EQUALVERIFY OP_CHECKSIG",
            "hex": "76a91447f6d4a974b54a76135465e8fcda17c8e9891c6888ac",
            "reqSigs": 1,
            "type": "pubkeyhash",
            "addresses": [
              "LRnTvvyXZF5NV6qZgZGc6dPFpCA41wfpJX"
            ]
          }
        }
      ],
      "hex": "01000000013a7a604925305a897d51bcb54306ae0cbfd3073910031c44e115831a7d770cf0010000006b483045022100a13762b131e40b0892389f8a780c807241ff262bc4c3f0010fc6511e8dabc16d02204f60c38d79dc27a522ab39d9ac9088de4a07339a10bba8a10861b3931815085101210237ade80335a8fc4d910c8a4c0ef0600474ab963047407a38de2ef68c4e495122ffffffff0241451b00000000001976a91461508eb4a3e8f81116f7066294950064d3d3728c88ac6f826101000000001976a91447f6d4a974b54a76135465e8fcda17c8e9891c6888ac00000000"
    }
  ],
  "time": 1517444162,
  "mediantime": 1517443763,
  "nonce": 316266711,
  "bits": "1a042eae",
  "difficulty": 4011378.762614286,
  "chainwork": "00000000000000000000000000000000000000000000003505e0e12e082d13a2",
  "previousblockhash": "7e7e545adb96c794041fe2149b37b55e793a58988c41eab8d2838976b63a6c96",
  "nextblockhash": "630910d31210b493de2bf3e2964f4b8bee29e50cf39394611e07256bfdb5c9df"
}
