{
  "hash": "7924e91c8d5d54e136d41bac6f2227932acd16c33b2642dbfba511a8e9996dbd",
  "confirmations": 1232,
  "strippedsize": 254,
  "size": 254,
  "weight": 1016,
  "height": 1359762,
  "version": 536870912,
  "versionHex": "20000000",
  "merkleroot": "3dc25aa8f8b86272ba556548f68603661e33651e916a942c39ee69cef66daec6",
  "tx": [
    {
      "txid": "3dc25aa8f8b86272ba556548f68603661e33651e916a942c39ee69cef66daec6",
      "hash": "3dc25aa8f8b86272ba556548f68603661e33651e916a942c39ee69cef66daec6",
      "version": 1,
      "size": 173,
      "vsize": 173,
      "locktime": 0,
      "vin": [
        {
          "coinbase": "0392bf141b4d696e656420627920416e74506f6f6c20626a312045205a7097ddfabe6d6de3ceb642e7516f2a178f71e41c52d0475b1c87e1ea41f663fe1b64a1e80a750f0400000000000000222400000000000003000000",
          "sequence": 4294967295
        }
      ],
      "vout": [
        {
          "value": 25.00000000,
          "n": 0,
          "scriptPubKey": {
            "asm": "OP_DUP OP_HASH160 0ff3ccc5e8be88afe24b5d634e5852d474dbdff1 OP_EQUALVERIFY OP_CHECKSIG",
            "hex": "76a9140ff3ccc5e8be88afe24b5d634e5852d474dbdff188ac",
            "reqSigs": 1,
            "type": "pubkeyhash",
            "addresses": [
              "LLgJTbzZMsRTCUF1NtvvL9SR1a4pVieW89"
            ]
          }
        }
      ],
      "hex": "01000000010000000000000000000000000000000000000000000000000000000000000000ffffffff580392bf141b4d696e656420627920416e74506f6f6c20626a312045205a7097ddfabe6d6de3ceb642e7516f2a178f71e41c52d0475b1c87e1ea41f663fe1b64a1e80a750f0400000000000000222400000000000003000000ffffffff0100f90295000000001976a9140ff3ccc5e8be88afe24b5d634e5852d474dbdff188ac00000000"
    }
  ],
  "time": 1517328349,
  "mediantime": 1517327811,
  "nonce": 782747977,
  "bits": "1a042eae",
  "difficulty": 4011378.762614286,
  "chainwork": "0000000000000000000000000000000000000000000000344eba3ca33a05e0a6",
  "previousblockhash": "be10debe35d546bf00f83bb4886a1e25a602459176d435384896d0301fe38246",
  "nextblockhash": "7185bca4b5124bdd08540cce05c189c80f71ac59441db99a09fbde7dfaff3ac0"
}
