{
  "hash": "79b8d3d6a013e158475d9bc4e1145a3c2117156709e69c6919f053a1c3138a7c",
  "confirmations": 1284,
  "strippedsize": 253,
  "size": 253,
  "weight": 1012,
  "height": 1359710,
  "version": 536870912,
  "versionHex": "20000000",
  "merkleroot": "38e31cd48b81d27380bf6f9a6e6a1ad6143ee4cc20d851d4e165dfd364df6821",
  "tx": [
    {
      "txid": "38e31cd48b81d27380bf6f9a6e6a1ad6143ee4cc20d851d4e165dfd364df6821",
      "hash": "38e31cd48b81d27380bf6f9a6e6a1ad6143ee4cc20d851d4e165dfd364df6821",
      "version": 1,
      "size": 172,
      "vsize": 172,
      "locktime": 0,
      "vin": [
        {
          "coinbase": "035ebf141a4d696e656420627920416e74506f6f6c20626a341e205a707db5fabe6d6d2d4eecd062885cc1d64d4bd476b6b4772487a520fd465c0c543b1dd991a86afd040000000000000010230000000000000f000000",
          "sequence": 4294967295
        }
      ],
      "vout": [
        {
          "value": 25.00000000,
          "n": 0,
          "scriptPubKey": {
            "asm": "OP_DUP OP_HASH160 0ff3ccc5e8be88afe24b5d634e5852d474dbdff1 OP_EQUALVERIFY OP_CHECKSIG",
            "hex": "76a9140ff3ccc5e8be88afe24b5d634e5852d474dbdff188ac",
            "reqSigs": 1,
            "type": "pubkeyhash",
            "addresses": [
              "LLgJTbzZMsRTCUF1NtvvL9SR1a4pVieW89"
            ]
          }
        }
      ],
      "hex": "01000000010000000000000000000000000000000000000000000000000000000000000000ffffffff57035ebf141a4d696e656420627920416e74506f6f6c20626a341e205a707db5fabe6d6d2d4eecd062885cc1d64d4bd476b6b4772487a520fd465c0c543b1dd991a86afd040000000000000010230000000000000f000000ffffffff0100f90295000000001976a9140ff3ccc5e8be88afe24b5d634e5852d474dbdff188ac00000000"
    }
  ],
  "time": 1517321653,
  "mediantime": 1517320488,
  "nonce": 92120208,
  "bits": "1a042eae",
  "difficulty": 4011378.762614286,
  "chainwork": "000000000000000000000000000000000000000000000034424b54e4aa5b723e",
  "previousblockhash": "f7a36503723e473e2d39120f466b63c3125e17788bb18f0e83c795e2116c8736",
  "nextblockhash": "077362b212a9182642599a2e76e6f76fa3498ad3d6c4eb38817732efe6f2d155"
}
