{
  "hash": "79cfa1d7ae402092364ba1eaf03afd74faf6b044ce248e3be84c8383789cf416",
  "confirmations": 3437,
  "strippedsize": 3796,
  "size": 3832,
  "weight": 15220,
  "height": 1357558,
  "version": 536870912,
  "versionHex": "20000000",
  "merkleroot": "86ab93d4c21def7f1c98109910346824cbe0b84b08bca486e042bfd1acf9238d",
  "tx": [
    {
      "txid": "7379f433ea21d5f2c4b043ae202f1e5abe9d89ce3433955c7cb5e8fd7f346507",
      "hash": "b1313b4478f350698e99ff1f2f8d3872a8e215b2e5282191eaa32805374c2b9a",
      "version": 1,
      "size": 244,
      "vsize": 217,
      "locktime": 0,
      "vin": [
        {
          "coinbase": "03f6b6140431dc6b5a0803b9b6e301000000fabe6d6db906dbc5f970e8a7ed06174213d85da67e25374e905142552d21ea9bcade1b7340000000000000000d2f6e6f64655374726174756d2f",
          "sequence": 0
        }
      ],
      "vout": [
        {
          "value": 25.01768078,
          "n": 0,
          "scriptPubKey": {
            "asm": "OP_DUP OP_HASH160 0c617fdb2ea42aed30a509595ee21ba3f6688db0 OP_EQUALVERIFY OP_CHECKSIG",
            "hex": "76a9140c617fdb2ea42aed30a509595ee21ba3f6688db088ac",
            "reqSigs": 1,
            "type": "pubkeyhash",
            "addresses": [
              "LLMRAtr3qBje2ySEa3CnZ55LA4TQMWnRY3"
            ]
          }
        }, 
        {
          "value": 0.00000000,
          "n": 1,
          "scriptPubKey": {
            "asm": "OP_RETURN aa21a9edcea9d8151401545a37b4dcf85f268a09817b85d7bfb8da2f3e82dffc88d8512f",
            "hex": "6a24aa21a9edcea9d8151401545a37b4dcf85f268a09817b85d7bfb8da2f3e82dffc88d8512f",
            "type": "nulldata"
          }
        }
      ],
      "hex": "010000000001010000000000000000000000000000000000000000000000000000000000000000ffffffff4c03f6b6140431dc6b5a0803b9b6e301000000fabe6d6db906dbc5f970e8a7ed06174213d85da67e25374e905142552d21ea9bcade1b7340000000000000000d2f6e6f64655374726174756d2f00000000028ef31d95000000001976a9140c617fdb2ea42aed30a509595ee21ba3f6688db088ac0000000000000000266a24aa21a9edcea9d8151401545a37b4dcf85f268a09817b85d7bfb8da2f3e82dffc88d8512f0120000000000000000000000000000000000000000000000000000000000000000000000000"
    }, 
    {
      "txid": "102030818cd2f1e3ecaed4e51ef07a7b3a781292c8759eb136e2cbb53a6ed842",
      "hash": "102030818cd2f1e3ecaed4e51ef07a7b3a781292c8759eb136e2cbb53a6ed842",
      "version": 2,
      "size": 336,
      "vsize": 336,
      "locktime": 1357555,
      "vin": [
        {
          "txid": "4efa7c9bb1e86043a9209f6463c517baad6a6d96521654be5fa703143619bc72",
          "vout": 1,
          "scriptSig": {
            "asm": "30440220305a16590694ae248723d164b14b1c383a317308358318bef4ee9c069a8a2c85022038be02425d4f324820862b8ddd800791e4d5eaebe036ade4f096111aa23ec5b7[ALL] 0355e58d3e224ddc7739239f9ae2f66714e5786def37b94568db9e95ace8c40e8c",
            "hex": "4730440220305a16590694ae248723d164b14b1c383a317308358318bef4ee9c069a8a2c85022038be02425d4f324820862b8ddd800791e4d5eaebe036ade4f096111aa23ec5b701210355e58d3e224ddc7739239f9ae2f66714e5786def37b94568db9e95ace8c40e8c"
          },
          "sequence": 4294967294
        }, 
        {
          "txid": "5267efba5c5369ca3db3291ba476fdb8fae395a9e109706dc7460e85f9331a08",
          "vout": 1,
          "scriptSig": {
            "asm": "3044022017553cedd9dea966c091107ef9130608168019bcaec54d741444464dbadac81302200a91411a2687ee0fca413e2f83a98d8cc97480a790d68bedf5481592ea6de215[ALL] 026e24dcdf3956c06d1da7e72ce2eb4b9dee2fdfa1600664195b48a80b3a1a524c",
            "hex": "473044022017553cedd9dea966c091107ef9130608168019bcaec54d741444464dbadac81302200a91411a2687ee0fca413e2f83a98d8cc97480a790d68bedf5481592ea6de2150121026e24dcdf3956c06d1da7e72ce2eb4b9dee2fdfa1600664195b48a80b3a1a524c"
          },
          "sequence": 4294967294
        }
      ],
      "vout": [
        {
          "value": 8.99324000,
          "n": 0,
          "scriptPubKey": {
            "asm": "OP_HASH160 0a68a2663fc7e3e63308cdfe88ffd08ddeab824f OP_EQUAL",
            "hex": "a9140a68a2663fc7e3e63308cdfe88ffd08ddeab824f87",
            "reqSigs": 1,
            "type": "scripthash",
            "addresses": [
              "M8rCLULbxLYwF1oZ9wPRQweNLN2SAjR9Wi"
            ]
          }
        }
      ],
      "hex": "020000000272bc19361403a75fbe541652966d6aadba17c563649f20a94360e8b19b7cfa4e010000006a4730440220305a16590694ae248723d164b14b1c383a317308358318bef4ee9c069a8a2c85022038be02425d4f324820862b8ddd800791e4d5eaebe036ade4f096111aa23ec5b701210355e58d3e224ddc7739239f9ae2f66714e5786def37b94568db9e95ace8c40e8cfeffffff081a33f9850e46c76d7009e1a995e3fab8fd76a41b29b33dca69535cbaef6752010000006a473044022017553cedd9dea966c091107ef9130608168019bcaec54d741444464dbadac81302200a91411a2687ee0fca413e2f83a98d8cc97480a790d68bedf5481592ea6de2150121026e24dcdf3956c06d1da7e72ce2eb4b9dee2fdfa1600664195b48a80b3a1a524cfeffffff0160989a350000000017a9140a68a2663fc7e3e63308cdfe88ffd08ddeab824f87f3b61400"
    }, 
    {
      "txid": "6de2f98071714f43047fc38fbca9dc398385cb21feb2470279151f131bf25338",
      "hash": "6de2f98071714f43047fc38fbca9dc398385cb21feb2470279151f131bf25338",
      "version": 1,
      "size": 192,
      "vsize": 192,
      "locktime": 0,
      "vin": [
        {
          "txid": "c7008243fee9880a8965e295f09ee13795c13ab4c665086d21b288fe0fb5ed42",
          "vout": 1,
          "scriptSig": {
            "asm": "30450221009764744c769947403ce21ed05cc7c8c63e3452039c7bb5173d2fa0c86f41e492022057c695fac4d2d9878ee32fa2b020c6ebbddce04f6f7939780c94300f1373a6df[ALL] 03c726dac9f77c8344740eafca5e3bd063336ca912b83a2ec208960218078ac750",
            "hex": "4830450221009764744c769947403ce21ed05cc7c8c63e3452039c7bb5173d2fa0c86f41e492022057c695fac4d2d9878ee32fa2b020c6ebbddce04f6f7939780c94300f1373a6df012103c726dac9f77c8344740eafca5e3bd063336ca912b83a2ec208960218078ac750"
          },
          "sequence": 4294967295
        }
      ],
      "vout": [
        {
          "value": 0.09158033,
          "n": 0,
          "scriptPubKey": {
            "asm": "OP_DUP OP_HASH160 23470f1db92376f48315f419382205c66c7eef67 OP_EQUALVERIFY OP_CHECKSIG",
            "hex": "76a91423470f1db92376f48315f419382205c66c7eef6788ac",
            "reqSigs": 1,
            "type": "pubkeyhash",
            "addresses": [
              "LNSV3CLQNrfz92zb7UPiQZYHZQedZjbjVj"
            ]
          }
        }
      ],
      "hex": "010000000142edb50ffe88b2216d0865c6b43ac19537e19ef095e265890a88e9fe438200c7010000006b4830450221009764744c769947403ce21ed05cc7c8c63e3452039c7bb5173d2fa0c86f41e492022057c695fac4d2d9878ee32fa2b020c6ebbddce04f6f7939780c94300f1373a6df012103c726dac9f77c8344740eafca5e3bd063336ca912b83a2ec208960218078ac750ffffffff0191bd8b00000000001976a91423470f1db92376f48315f419382205c66c7eef6788ac00000000"
    }, 
    {
      "txid": "49bc15af447bf84793d3d5c8c540fd2db54e2ac90c810ea9f441f89d32741fb9",
      "hash": "49bc15af447bf84793d3d5c8c540fd2db54e2ac90c810ea9f441f89d32741fb9",
      "version": 1,
      "size": 259,
      "vsize": 259,
      "locktime": 0,
      "vin": [
        {
          "txid": "9f2d29547a898f851ce152868eff4075e2f011467cba6c706ec72815347c0344",
          "vout": 1,
          "scriptSig": {
            "asm": "30440220266e894a4399c470441cb4aff3ec76ef5b29f4fd468f12de3a4e72b402c3d37e0220100bccf552338b1dfad3c32bc96488451356e5b592819fb3486aac17eda3f456[ALL] 03c965417994435650bbd775b4731c522c1b662eda011cdfd3368a3d94495c6b5a",
            "hex": "4730440220266e894a4399c470441cb4aff3ec76ef5b29f4fd468f12de3a4e72b402c3d37e0220100bccf552338b1dfad3c32bc96488451356e5b592819fb3486aac17eda3f456012103c965417994435650bbd775b4731c522c1b662eda011cdfd3368a3d94495c6b5a"
          },
          "sequence": 4294967295
        }
      ],
      "vout": [
        {
          "value": 7.13080241,
          "n": 0,
          "scriptPubKey": {
            "asm": "OP_DUP OP_HASH160 a7c8dc0ef5f0ed60c2aded77ae20aac755cf863d OP_EQUALVERIFY OP_CHECKSIG",
            "hex": "76a914a7c8dc0ef5f0ed60c2aded77ae20aac755cf863d88ac",
            "reqSigs": 1,
            "type": "pubkeyhash",
            "addresses": [
              "LaX7jDdbwrCHR7w8ri9QKmA8G3Yt29uzrs"
            ]
          }
        }, 
        {
          "value": 1.31504617,
          "n": 1,
          "scriptPubKey": {
            "asm": "OP_DUP OP_HASH160 2cafe420069d248f4722eddb53e5b61ba5de43db OP_EQUALVERIFY OP_CHECKSIG",
            "hex": "76a9142cafe420069d248f4722eddb53e5b61ba5de43db88ac",
            "reqSigs": 1,
            "type": "pubkeyhash",
            "addresses": [
              "LPJEhnLBVk3KpZUG28HnibKznhHzQVXm3h"
            ]
          }
        }, 
        {
          "value": 16.83523170,
          "n": 2,
          "scriptPubKey": {
            "asm": "OP_DUP OP_HASH160 f9871c6dd621879729cd7d502a5af822501cf2aa OP_EQUALVERIFY OP_CHECKSIG",
            "hex": "76a914f9871c6dd621879729cd7d502a5af822501cf2aa88ac",
            "reqSigs": 1,
            "type": "pubkeyhash",
            "addresses": [
              "LhyLNfBkoKshT7R8Pce6vkB9T2cP2o84hx"
            ]
          }
        }
      ],
      "hex": "010000000144037c341528c76e706cba7c4611f0e27540ff8e8652e11c858f897a54292d9f010000006a4730440220266e894a4399c470441cb4aff3ec76ef5b29f4fd468f12de3a4e72b402c3d37e0220100bccf552338b1dfad3c32bc96488451356e5b592819fb3486aac17eda3f456012103c965417994435650bbd775b4731c522c1b662eda011cdfd3368a3d94495c6b5affffffff03b1bd802a000000001976a914a7c8dc0ef5f0ed60c2aded77ae20aac755cf863d88ace999d607000000001976a9142cafe420069d248f4722eddb53e5b61ba5de43db88ac62865864000000001976a914f9871c6dd621879729cd7d502a5af822501cf2aa88ac00000000"
    }, 
    {
      "txid": "ae407a4064830b1c8bf1f3c9187595ed7632ba61edd56189202357e5e313bcc1",
      "hash": "ae407a4064830b1c8bf1f3c9187595ed7632ba61edd56189202357e5e313bcc1",
      "version": 2,
      "size": 1110,
      "vsize": 1110,
      "locktime": 1357555,
      "vin": [
        {
          "txid": "5644c478c6069ea7fa7afaaad8a3bb5523cf8028f6764a5b104f5b6744c0dde4",
          "vout": 0,
          "scriptSig": {
            "asm": "304402206926e5530791095cfe3d5b2c236a4ef8fdbf8052f39bf04bde330c967d6a0d51022002bd6cfa1d345ab46136a4a6b7f344365d76c5314a32dcfc574c56fb74bbd402[ALL] 02d54b5f572e81875c757b457f7b2ee9fdfe52ae36ef26b237d4328657341daa03",
            "hex": "47304402206926e5530791095cfe3d5b2c236a4ef8fdbf8052f39bf04bde330c967d6a0d51022002bd6cfa1d345ab46136a4a6b7f344365d76c5314a32dcfc574c56fb74bbd402012102d54b5f572e81875c757b457f7b2ee9fdfe52ae36ef26b237d4328657341daa03"
          },
          "sequence": 4294967294
        }, 
        {
          "txid": "c087a2de99ca2307d3cbb5c7204aac6a14c75b48162d18280d7275ae607c32f0",
          "vout": 1,
          "scriptSig": {
            "asm": "30450221009a38411974ef5d18791e8502e08ac9f7517cb30cdba08948fd4816e7b515a9b202202feebfd0540b4c9f864179fb34d75afe8cfa5282d58813d820a8ca04542eab5a[ALL] 02d54b5f572e81875c757b457f7b2ee9fdfe52ae36ef26b237d4328657341daa03",
            "hex": "4830450221009a38411974ef5d18791e8502e08ac9f7517cb30cdba08948fd4816e7b515a9b202202feebfd0540b4c9f864179fb34d75afe8cfa5282d58813d820a8ca04542eab5a012102d54b5f572e81875c757b457f7b2ee9fdfe52ae36ef26b237d4328657341daa03"
          },
          "sequence": 4294967294
        }, 
        {
          "txid": "9fb7fa89ccbde1704efdbcab3141e794bd824412cf90e0d96ebd33dc552fcffd",
          "vout": 0,
          "scriptSig": {
            "asm": "30440220186ce2e53385ec888df0b1846002cda4a20f5858215a6b27ac00e7947f4abcb802204c41089c21104df987667bca58ebf5a15591f60a464a7b37be8ce8604786ed17[ALL] 02dc72e1165d53ba201bb2bd80946d87d02211b8ded63d4eaff4b7885a7f3ea123",
            "hex": "4730440220186ce2e53385ec888df0b1846002cda4a20f5858215a6b27ac00e7947f4abcb802204c41089c21104df987667bca58ebf5a15591f60a464a7b37be8ce8604786ed17012102dc72e1165d53ba201bb2bd80946d87d02211b8ded63d4eaff4b7885a7f3ea123"
          },
          "sequence": 4294967294
        }, 
        {
          "txid": "5e342a6172ee6a49966fa5651d9bd3ac130da6dd9d66b0029b48494739c789ad",
          "vout": 0,
          "scriptSig": {
            "asm": "3045022100d9e20aefa72d2e1a6743df3988b977300c8f276db68507adada5cabd3d60257602203134d1ff6318e389af0c9cfd746080314d664002952a57f12306820c43928114[ALL] 02d54b5f572e81875c757b457f7b2ee9fdfe52ae36ef26b237d4328657341daa03",
            "hex": "483045022100d9e20aefa72d2e1a6743df3988b977300c8f276db68507adada5cabd3d60257602203134d1ff6318e389af0c9cfd746080314d664002952a57f12306820c43928114012102d54b5f572e81875c757b457f7b2ee9fdfe52ae36ef26b237d4328657341daa03"
          },
          "sequence": 4294967294
        }, 
        {
          "txid": "ca15cbe2a3111032847f6ca6b61048dee179ab2a14b4041edfee43be08121806",
          "vout": 1,
          "scriptSig": {
            "asm": "304402207004c322fb47de2d4a971b9c03b3b54e0334a66704c672338d0ac6ce2947ad390220054a462988948695145ea0fdb5c2fdd6175b5000510973e4095956c98e356c85[ALL] 02d54b5f572e81875c757b457f7b2ee9fdfe52ae36ef26b237d4328657341daa03",
            "hex": "47304402207004c322fb47de2d4a971b9c03b3b54e0334a66704c672338d0ac6ce2947ad390220054a462988948695145ea0fdb5c2fdd6175b5000510973e4095956c98e356c85012102d54b5f572e81875c757b457f7b2ee9fdfe52ae36ef26b237d4328657341daa03"
          },
          "sequence": 4294967294
        }, 
        {
          "txid": "a7d9cdabfa2365139a8f3c41008fdd1ddbd9f46bdb078adc09717ae922b05380",
          "vout": 0,
          "scriptSig": {
            "asm": "3045022100e825577a38021bd892524550c080fa502bddbe8c4b6b986b770b8ab3756dde5b022009a28a775de0472d7e94598fc16971e35e3d5a48ee682e7b05462a19eccff97d[ALL] 02d54b5f572e81875c757b457f7b2ee9fdfe52ae36ef26b237d4328657341daa03",
            "hex": "483045022100e825577a38021bd892524550c080fa502bddbe8c4b6b986b770b8ab3756dde5b022009a28a775de0472d7e94598fc16971e35e3d5a48ee682e7b05462a19eccff97d012102d54b5f572e81875c757b457f7b2ee9fdfe52ae36ef26b237d4328657341daa03"
          },
          "sequence": 4294967294
        }, 
        {
          "txid": "c1994c57c198809170a30f2e876a52ddb064980d348bde593c2fa91c3a0cc882",
          "vout": 1,
          "scriptSig": {
            "asm": "304402200b9edd0a95155f4e26b78e480ed566287b0ca7e3d8af78af4bf0200fabc365440220075e0ea29b832a253ee6302af48fb77461c7f3bf15a10f122e926256eded4324[ALL] 02d54b5f572e81875c757b457f7b2ee9fdfe52ae36ef26b237d4328657341daa03",
            "hex": "47304402200b9edd0a95155f4e26b78e480ed566287b0ca7e3d8af78af4bf0200fabc365440220075e0ea29b832a253ee6302af48fb77461c7f3bf15a10f122e926256eded4324012102d54b5f572e81875c757b457f7b2ee9fdfe52ae36ef26b237d4328657341daa03"
          },
          "sequence": 4294967294
        }
      ],
      "vout": [
        {
          "value": 0.01089621,
          "n": 0,
          "scriptPubKey": {
            "asm": "OP_DUP OP_HASH160 c1507ea5954df84a945e64220dfc1d3d20e51583 OP_EQUALVERIFY OP_CHECKSIG",
            "hex": "76a914c1507ea5954df84a945e64220dfc1d3d20e5158388ac",
            "reqSigs": 1,
            "type": "pubkeyhash",
            "addresses": [
              "Lcr777ASBQqovbkXx7N7uNdbdfZFuvgujR"
            ]
          }
        }, 
        {
          "value": 28.00000000,
          "n": 1,
          "scriptPubKey": {
            "asm": "OP_DUP OP_HASH160 bb62f7b1869289e9e6039fa49557caaafcdeb370 OP_EQUALVERIFY OP_CHECKSIG",
            "hex": "76a914bb62f7b1869289e9e6039fa49557caaafcdeb37088ac",
            "reqSigs": 1,
            "type": "pubkeyhash",
            "addresses": [
              "LcJmBUJ4b6tPjUReybmhtPVh2kse8cE3xJ"
            ]
          }
        }
      ],
      "hex": "0200000007e4ddc044675b4f105b4a76f62880cf2355bba3d8aafa7afaa79e06c678c44456000000006a47304402206926e5530791095cfe3d5b2c236a4ef8fdbf8052f39bf04bde330c967d6a0d51022002bd6cfa1d345ab46136a4a6b7f344365d76c5314a32dcfc574c56fb74bbd402012102d54b5f572e81875c757b457f7b2ee9fdfe52ae36ef26b237d4328657341daa03fefffffff0327c60ae75720d28182d16485bc7146aac4a20c7b5cbd30723ca99dea287c0010000006b4830450221009a38411974ef5d18791e8502e08ac9f7517cb30cdba08948fd4816e7b515a9b202202feebfd0540b4c9f864179fb34d75afe8cfa5282d58813d820a8ca04542eab5a012102d54b5f572e81875c757b457f7b2ee9fdfe52ae36ef26b237d4328657341daa03fefffffffdcf2f55dc33bd6ed9e090cf124482bd94e74131abbcfd4e70e1bdcc89fab79f000000006a4730440220186ce2e53385ec888df0b1846002cda4a20f5858215a6b27ac00e7947f4abcb802204c41089c21104df987667bca58ebf5a15591f60a464a7b37be8ce8604786ed17012102dc72e1165d53ba201bb2bd80946d87d02211b8ded63d4eaff4b7885a7f3ea123feffffffad89c7394749489b02b0669ddda60d13acd39b1d65a56f96496aee72612a345e000000006b483045022100d9e20aefa72d2e1a6743df3988b977300c8f276db68507adada5cabd3d60257602203134d1ff6318e389af0c9cfd746080314d664002952a57f12306820c43928114012102d54b5f572e81875c757b457f7b2ee9fdfe52ae36ef26b237d4328657341daa03feffffff06181208be43eedf1e04b4142aab79e1de4810b6a66c7f84321011a3e2cb15ca010000006a47304402207004c322fb47de2d4a971b9c03b3b54e0334a66704c672338d0ac6ce2947ad390220054a462988948695145ea0fdb5c2fdd6175b5000510973e4095956c98e356c85012102d54b5f572e81875c757b457f7b2ee9fdfe52ae36ef26b237d4328657341daa03feffffff8053b022e97a7109dc8a07db6bf4d9db1ddd8f00413c8f9a136523faabcdd9a7000000006b483045022100e825577a38021bd892524550c080fa502bddbe8c4b6b986b770b8ab3756dde5b022009a28a775de0472d7e94598fc16971e35e3d5a48ee682e7b05462a19eccff97d012102d54b5f572e81875c757b457f7b2ee9fdfe52ae36ef26b237d4328657341daa03feffffff82c80c3a1ca92f3c59de8b340d9864b0dd526a872e0fa370918098c1574c99c1010000006a47304402200b9edd0a95155f4e26b78e480ed566287b0ca7e3d8af78af4bf0200fabc365440220075e0ea29b832a253ee6302af48fb77461c7f3bf15a10f122e926256eded4324012102d54b5f572e81875c757b457f7b2ee9fdfe52ae36ef26b237d4328657341daa03feffffff0255a01000000000001976a914c1507ea5954df84a945e64220dfc1d3d20e5158388ac009ce4a6000000001976a914bb62f7b1869289e9e6039fa49557caaafcdeb37088acf3b61400"
    }, 
    {
      "txid": "b5b640a0197b9be4bb5d433db12c74c91625870237418a345851b8003a8399ab",
      "hash": "b5b640a0197b9be4bb5d433db12c74c91625870237418a345851b8003a8399ab",
      "version": 1,
      "size": 260,
      "vsize": 260,
      "locktime": 0,
      "vin": [
        {
          "txid": "791f0aacb68738e1e42c5032d45db1de2ccf0c7dd260c93f5e272171ba3d9967",
          "vout": 0,
          "scriptSig": {
            "asm": "3045022100aeef45b1d2f9deebd128aec8a2ebf4763ef02707bd8b89f1fa1c46ab81677043022073ddebf3db0de591a8d886ed94f7d5a3d90c0a6ddd6471ccfc3bb98f30c973f0[ALL] 039762aeac7f2dfa57183ab23600f5107f0cc2007a223bbea994de8e876041974f",
            "hex": "483045022100aeef45b1d2f9deebd128aec8a2ebf4763ef02707bd8b89f1fa1c46ab81677043022073ddebf3db0de591a8d886ed94f7d5a3d90c0a6ddd6471ccfc3bb98f30c973f00121039762aeac7f2dfa57183ab23600f5107f0cc2007a223bbea994de8e876041974f"
          },
          "sequence": 4294967295
        }
      ],
      "vout": [
        {
          "value": 0.01736874,
          "n": 0,
          "scriptPubKey": {
            "asm": "OP_DUP OP_HASH160 26ffb57e960d32103aea4f78f036c71367a823da OP_EQUALVERIFY OP_CHECKSIG",
            "hex": "76a91426ffb57e960d32103aea4f78f036c71367a823da88ac",
            "reqSigs": 1,
            "type": "pubkeyhash",
            "addresses": [
              "LNnAGUNgo62ps227UB53f6xRo3t8SH8wJ4"
            ]
          }
        }, 
        {
          "value": 2.45801161,
          "n": 1,
          "scriptPubKey": {
            "asm": "OP_DUP OP_HASH160 8054d8d8dd6bce91125bcfe8bbb473f54afcdc60 OP_EQUALVERIFY OP_CHECKSIG",
            "hex": "76a9148054d8d8dd6bce91125bcfe8bbb473f54afcdc6088ac",
            "reqSigs": 1,
            "type": "pubkeyhash",
            "addresses": [
              "LWvWQ3XMoipFsAqE1EZPQFUovLea7DC1ef"
            ]
          }
        }, 
        {
          "value": 0.28298950,
          "n": 2,
          "scriptPubKey": {
            "asm": "OP_DUP OP_HASH160 f893408be900102d24072d05da400f0b061f08d9 OP_EQUALVERIFY OP_CHECKSIG",
            "hex": "76a914f893408be900102d24072d05da400f0b061f08d988ac",
            "reqSigs": 1,
            "type": "pubkeyhash",
            "addresses": [
              "LhtJF3YU3dRs7J81xsQRwAxHNr5W4Nmjyu"
            ]
          }
        }
      ],
      "hex": "010000000167993dba7121275e3fc960d27d0ccf2cdeb15dd432502ce4e13887b6ac0a1f79000000006b483045022100aeef45b1d2f9deebd128aec8a2ebf4763ef02707bd8b89f1fa1c46ab81677043022073ddebf3db0de591a8d886ed94f7d5a3d90c0a6ddd6471ccfc3bb98f30c973f00121039762aeac7f2dfa57183ab23600f5107f0cc2007a223bbea994de8e876041974fffffffff03aa801a00000000001976a91426ffb57e960d32103aea4f78f036c71367a823da88acc9a0a60e000000001976a9148054d8d8dd6bce91125bcfe8bbb473f54afcdc6088acc6ceaf01000000001976a914f893408be900102d24072d05da400f0b061f08d988ac00000000"
    }, 
    {
      "txid": "595a8a711e1adc97642c92af20feab07f1fbceb143c3bcd8a2b5f0e69cb90326",
      "hash": "595a8a711e1adc97642c92af20feab07f1fbceb143c3bcd8a2b5f0e69cb90326",
      "version": 1,
      "size": 225,
      "vsize": 225,
      "locktime": 0,
      "vin": [
        {
          "txid": "c557bb171eeade16d7199a6877c0437974c5056b5bf854100e769c9552e3a5e3",
          "vout": 0,
          "scriptSig": {
            "asm": "304402207bab084449b33dcd6da5e080868a6c976c8625107d6ce0cdc2ca906bfb2a557e02207d4372f2e1714b0b779e9ca559a58174a680f48fa73903b6af1a9709e1a167f0[ALL] 024d917323d3a74d08bf5a937247cd8fead8eccb94917f93f9573c4e111022dde7",
            "hex": "47304402207bab084449b33dcd6da5e080868a6c976c8625107d6ce0cdc2ca906bfb2a557e02207d4372f2e1714b0b779e9ca559a58174a680f48fa73903b6af1a9709e1a167f00121024d917323d3a74d08bf5a937247cd8fead8eccb94917f93f9573c4e111022dde7"
          },
          "sequence": 4294967295
        }
      ],
      "vout": [
        {
          "value": 1.23110583,
          "n": 0,
          "scriptPubKey": {
            "asm": "OP_DUP OP_HASH160 5c59992a8cea4927550ea29822caddd1d7f1abcd OP_EQUALVERIFY OP_CHECKSIG",
            "hex": "76a9145c59992a8cea4927550ea29822caddd1d7f1abcd88ac",
            "reqSigs": 1,
            "type": "pubkeyhash",
            "addresses": [
              "LTeFmG5eLGLxmcpnL7xvbXhS1BZMqyTJNU"
            ]
          }
        }, 
        {
          "value": 0.12598265,
          "n": 1,
          "scriptPubKey": {
            "asm": "OP_DUP OP_HASH160 00b9d3d3d680024c9d4ba0ea88bb7ad54102a019 OP_EQUALVERIFY OP_CHECKSIG",
            "hex": "76a91400b9d3d3d680024c9d4ba0ea88bb7ad54102a01988ac",
            "reqSigs": 1,
            "type": "pubkeyhash",
            "addresses": [
              "LKHnsjLEd1G6WcZKdxtpwvoLC9Dsz9AkRY"
            ]
          }
        }
      ],
      "hex": "0100000001e3a5e352959c760e1054f85b6b05c5747943c077689a19d716deea1e17bb57c5000000006a47304402207bab084449b33dcd6da5e080868a6c976c8625107d6ce0cdc2ca906bfb2a557e02207d4372f2e1714b0b779e9ca559a58174a680f48fa73903b6af1a9709e1a167f00121024d917323d3a74d08bf5a937247cd8fead8eccb94917f93f9573c4e111022dde7ffffffff02b7845607000000001976a9145c59992a8cea4927550ea29822caddd1d7f1abcd88acf93bc000000000001976a91400b9d3d3d680024c9d4ba0ea88bb7ad54102a01988ac00000000"
    }, 
    {
      "txid": "57bd873fc9230902ae01f53817662323260afb83601c230c8cbc5cd2b47d63ad",
      "hash": "57bd873fc9230902ae01f53817662323260afb83601c230c8cbc5cd2b47d63ad",
      "version": 2,
      "size": 225,
      "vsize": 225,
      "locktime": 1357556,
      "vin": [
        {
          "txid": "afdb4c2452560700d225cae398124a3f5b6f84e6a5b9f9473e8c1788c5b651fa",
          "vout": 0,
          "scriptSig": {
            "asm": "30440220229ddec0530ae55dece42109d8fbfe43663e62d5625fa17341863eb4cba0e5a302204a467a54045f59ce087b78c8849844d817e13fff7e1a3a15aad9fc97679a5497[ALL] 026ccecadcfbdbfbf0d5e0f32fac35a11695f329b97e836967adb34708811815c2",
            "hex": "4730440220229ddec0530ae55dece42109d8fbfe43663e62d5625fa17341863eb4cba0e5a302204a467a54045f59ce087b78c8849844d817e13fff7e1a3a15aad9fc97679a54970121026ccecadcfbdbfbf0d5e0f32fac35a11695f329b97e836967adb34708811815c2"
          },
          "sequence": 4294967294
        }
      ],
      "vout": [
        {
          "value": 231.38846217,
          "n": 0,
          "scriptPubKey": {
            "asm": "OP_DUP OP_HASH160 5b6632e6863cd275381dc6afd2b5ce2e87092f03 OP_EQUALVERIFY OP_CHECKSIG",
            "hex": "76a9145b6632e6863cd275381dc6afd2b5ce2e87092f0388ac",
            "reqSigs": 1,
            "type": "pubkeyhash",
            "addresses": [
              "LTZEBZwdA7Cnjp1aVFpg4VnwhR34dbXEYp"
            ]
          }
        }, 
        {
          "value": 3.98000000,
          "n": 1,
          "scriptPubKey": {
            "asm": "OP_DUP OP_HASH160 2b89b8ad5dbd5a47d42b74a0654650185c557e70 OP_EQUALVERIFY OP_CHECKSIG",
            "hex": "76a9142b89b8ad5dbd5a47d42b74a0654650185c557e7088ac",
            "reqSigs": 1,
            "type": "pubkeyhash",
            "addresses": [
              "LPCAJWeiLxnPeYD48oeR3ABcih1YZ36hh9"
            ]
          }
        }
      ],
      "hex": "0200000001fa51b6c588178c3e47f9b9a5e6846f5b3f4a1298e3ca25d200075652244cdbaf000000006a4730440220229ddec0530ae55dece42109d8fbfe43663e62d5625fa17341863eb4cba0e5a302204a467a54045f59ce087b78c8849844d817e13fff7e1a3a15aad9fc97679a54970121026ccecadcfbdbfbf0d5e0f32fac35a11695f329b97e836967adb34708811815c2feffffff0209c62e63050000001976a9145b6632e6863cd275381dc6afd2b5ce2e87092f0388ac80ffb817000000001976a9142b89b8ad5dbd5a47d42b74a0654650185c557e7088acf4b61400"
    }, 
    {
      "txid": "c82ad736ce84e797d6916a1af930fb59e5b8bfc44471439d9ca952f5817f5ebe",
      "hash": "c82ad736ce84e797d6916a1af930fb59e5b8bfc44471439d9ca952f5817f5ebe",
      "version": 2,
      "size": 225,
      "vsize": 225,
      "locktime": 1357556,
      "vin": [
        {
          "txid": "a0d86ecaafcaa8ec6b528286d3b2b4ef6695cca14c14e288188b8e9e66eedeb0",
          "vout": 1,
          "scriptSig": {
            "asm": "304402203cf1e361dd752e6d45d7c2ccf96c4681766af614d10fb16b4022320326deb75f02204a5fabc53847b6beb02d8c41385b127adb9de5d53eba78acc90b5ca6966e3679[ALL] 03905a39d5029256e3c58e954c1fe3530b6fa3397695f308283759880862afebab",
            "hex": "47304402203cf1e361dd752e6d45d7c2ccf96c4681766af614d10fb16b4022320326deb75f02204a5fabc53847b6beb02d8c41385b127adb9de5d53eba78acc90b5ca6966e3679012103905a39d5029256e3c58e954c1fe3530b6fa3397695f308283759880862afebab"
          },
          "sequence": 4294967294
        }
      ],
      "vout": [
        {
          "value": 10.05919535,
          "n": 0,
          "scriptPubKey": {
            "asm": "OP_DUP OP_HASH160 da62ea47284df09a2e668c1be6de7e65d7c97dd8 OP_EQUALVERIFY OP_CHECKSIG",
            "hex": "76a914da62ea47284df09a2e668c1be6de7e65d7c97dd888ac",
            "reqSigs": 1,
            "type": "pubkeyhash",
            "addresses": [
              "Lf8g4n2CMSuLE33enetYpXgGGmFznSrHom"
            ]
          }
        }, 
        {
          "value": 131.13421267,
          "n": 1,
          "scriptPubKey": {
            "asm": "OP_DUP OP_HASH160 9062226a526747936ec93b2f4f6f71a6da632f87 OP_EQUALVERIFY OP_CHECKSIG",
            "hex": "76a9149062226a526747936ec93b2f4f6f71a6da632f8788ac",
            "reqSigs": 1,
            "type": "pubkeyhash",
            "addresses": [
              "LYPP8LUnchTzBkSbHKbLiuL598wPtMmrQq"
            ]
          }
        }
      ],
      "hex": "0200000001b0deee669e8e8b1888e2144ca1cc9566efb4b2d38682526beca8caafca6ed8a0010000006a47304402203cf1e361dd752e6d45d7c2ccf96c4681766af614d10fb16b4022320326deb75f02204a5fabc53847b6beb02d8c41385b127adb9de5d53eba78acc90b5ca6966e3679012103905a39d5029256e3c58e954c1fe3530b6fa3397695f308283759880862afebabfeffffff022f1df53b000000001976a914da62ea47284df09a2e668c1be6de7e65d7c97dd888acd3ed9e0d030000001976a9149062226a526747936ec93b2f4f6f71a6da632f8788acf4b61400"
    }, 
    {
      "txid": "354bbbb64038b2fb759d94d3e8f47347db215720c649dd75d5efb483fbec95c9",
      "hash": "354bbbb64038b2fb759d94d3e8f47347db215720c649dd75d5efb483fbec95c9",
      "version": 1,
      "size": 225,
      "vsize": 225,
      "locktime": 0,
      "vin": [
        {
          "txid": "40c556027018836121764a65886cbee3e78a072ad874352ab39e4fc5073405f6",
          "vout": 0,
          "scriptSig": {
            "asm": "304402202164b4500b3bb93a973a4747b2317381a5fff0c333d79f896474df7d5f32534a022079fb223a4a59efef3125ca0f296d849defb02fa0d6857cd497bc71387b7eb5da[ALL] 03ff4334c4bdfdec9bd4daf470599097b393043c25e59d3e1538bd34d84f4ebed9",
            "hex": "47304402202164b4500b3bb93a973a4747b2317381a5fff0c333d79f896474df7d5f32534a022079fb223a4a59efef3125ca0f296d849defb02fa0d6857cd497bc71387b7eb5da012103ff4334c4bdfdec9bd4daf470599097b393043c25e59d3e1538bd34d84f4ebed9"
          },
          "sequence": 4294967295
        }
      ],
      "vout": [
        {
          "value": 0.00054622,
          "n": 0,
          "scriptPubKey": {
            "asm": "OP_DUP OP_HASH160 924d520f96ebb6243791cb547946b3f0fd90aac4 OP_EQUALVERIFY OP_CHECKSIG",
            "hex": "76a914924d520f96ebb6243791cb547946b3f0fd90aac488ac",
            "reqSigs": 1,
            "type": "pubkeyhash",
            "addresses": [
              "LYZXYYdw2Cwcu5UPYaXxEoQat9jxQHpWGa"
            ]
          }
        }, 
        {
          "value": 0.00623711,
          "n": 1,
          "scriptPubKey": {
            "asm": "OP_DUP OP_HASH160 b50f26aff59977e2cdd9c9e319a0666cf2f9f139 OP_EQUALVERIFY OP_CHECKSIG",
            "hex": "76a914b50f26aff59977e2cdd9c9e319a0666cf2f9f13988ac",
            "reqSigs": 1,
            "type": "pubkeyhash",
            "addresses": [
              "LbjJiep97JyVRiaiAsmKbQShrMisfHBt5N"
            ]
          }
        }
      ],
      "hex": "0100000001f6053407c54f9eb32a3574d82a078ae7e3be6c88654a7621618318700256c540000000006a47304402202164b4500b3bb93a973a4747b2317381a5fff0c333d79f896474df7d5f32534a022079fb223a4a59efef3125ca0f296d849defb02fa0d6857cd497bc71387b7eb5da012103ff4334c4bdfdec9bd4daf470599097b393043c25e59d3e1538bd34d84f4ebed9ffffffff025ed50000000000001976a914924d520f96ebb6243791cb547946b3f0fd90aac488ac5f840900000000001976a914b50f26aff59977e2cdd9c9e319a0666cf2f9f13988ac00000000"
    }, 
    {
      "txid": "4f558d83fd8cf752b41d62647497112e2753dfc2dfd945161f0bb747f7a919eb",
      "hash": "4f558d83fd8cf752b41d62647497112e2753dfc2dfd945161f0bb747f7a919eb",
      "version": 1,
      "size": 225,
      "vsize": 225,
      "locktime": 0,
      "vin": [
        {
          "txid": "857ae74a972c1802b8c0c80ef0d71accb190f2a5f41442100db61cc34a8f15e5",
          "vout": 0,
          "scriptSig": {
            "asm": "304402200728423fd5e2f819b4b4a773ef8b5d4ea312fdd7e6630a9d0760fb0d6274ae1902203a9c7366257653ed6ff4907744f2771775542c7f09a5cddd3dd1bc852f115994[ALL] 02f0693f598bd9f3ade9915b2d17db464b3e77ff2235e62e253ec3b807c687301f",
            "hex": "47304402200728423fd5e2f819b4b4a773ef8b5d4ea312fdd7e6630a9d0760fb0d6274ae1902203a9c7366257653ed6ff4907744f2771775542c7f09a5cddd3dd1bc852f115994012102f0693f598bd9f3ade9915b2d17db464b3e77ff2235e62e253ec3b807c687301f"
          },
          "sequence": 4294967295
        }
      ],
      "vout": [
        {
          "value": 0.57173900,
          "n": 0,
          "scriptPubKey": {
            "asm": "OP_DUP OP_HASH160 a603b55c3d5aa9e84a5da70f56d2e306f2b886c1 OP_EQUALVERIFY OP_CHECKSIG",
            "hex": "76a914a603b55c3d5aa9e84a5da70f56d2e306f2b886c188ac",
            "reqSigs": 1,
            "type": "pubkeyhash",
            "addresses": [
              "LaMksivnbfeARajSitNgUaqmkptsfu7Ccw"
            ]
          }
        }, 
        {
          "value": 0.12491497,
          "n": 1,
          "scriptPubKey": {
            "asm": "OP_DUP OP_HASH160 30171c9e7678d9124e1139f563433b9cd4334d9b OP_EQUALVERIFY OP_CHECKSIG",
            "hex": "76a91430171c9e7678d9124e1139f563433b9cd4334d9b88ac",
            "reqSigs": 1,
            "type": "pubkeyhash",
            "addresses": [
              "LPcEPFpnJtwqAGRcNFJtAQVi4jPpzo9LKK"
            ]
          }
        }
      ],
      "hex": "0100000001e5158f4ac31cb60d104214f4a5f290b1cc1ad7f00ec8c0b802182c974ae77a85000000006a47304402200728423fd5e2f819b4b4a773ef8b5d4ea312fdd7e6630a9d0760fb0d6274ae1902203a9c7366257653ed6ff4907744f2771775542c7f09a5cddd3dd1bc852f115994012102f0693f598bd9f3ade9915b2d17db464b3e77ff2235e62e253ec3b807c687301fffffffff028c676803000000001976a914a603b55c3d5aa9e84a5da70f56d2e306f2b886c188ace99abe00000000001976a91430171c9e7678d9124e1139f563433b9cd4334d9b88ac00000000"
    }, 
    {
      "txid": "5900e2b6ff69aa804a92d6ec666fcb19648c322f2069a8d2f08ed066b15c5ef6",
      "hash": "5900e2b6ff69aa804a92d6ec666fcb19648c322f2069a8d2f08ed066b15c5ef6",
      "version": 1,
      "size": 225,
      "vsize": 225,
      "locktime": 0,
      "vin": [
        {
          "txid": "df49ca5e835bef8e1ab9eff61d450dab46c5d0aef3e8d4c053a4a1efd1981225",
          "vout": 0,
          "scriptSig": {
            "asm": "304402204cb905c0f591d8ac3a3ddcbd9c22cc8631e0fd912522b0b0439668dcd1b4c7dd0220424f49d6ac39af5af8379015daafb549b4ecbbe08460cbaec465a987263dd532[ALL] 0324f39515e50d77b5d8d2fc937ad5b122e9562635a416ef6791ef2ba278cc1622",
            "hex": "47304402204cb905c0f591d8ac3a3ddcbd9c22cc8631e0fd912522b0b0439668dcd1b4c7dd0220424f49d6ac39af5af8379015daafb549b4ecbbe08460cbaec465a987263dd53201210324f39515e50d77b5d8d2fc937ad5b122e9562635a416ef6791ef2ba278cc1622"
          },
          "sequence": 4294967295
        }
      ],
      "vout": [
        {
          "value": 14.09832589,
          "n": 0,
          "scriptPubKey": {
            "asm": "OP_DUP OP_HASH160 e9cea8b6c7ebe99a89ffea1142834b4737997fbb OP_EQUALVERIFY OP_CHECKSIG",
            "hex": "76a914e9cea8b6c7ebe99a89ffea1142834b4737997fbb88ac",
            "reqSigs": 1,
            "type": "pubkeyhash",
            "addresses": [
              "LgYDGqAcZwx2u8hAk4jG4Zjfk4SP7YA53e"
            ]
          }
        }, 
        {
          "value": 1.75633668,
          "n": 1,
          "scriptPubKey": {
            "asm": "OP_DUP OP_HASH160 5b0f3690b5b91ab24d5df4e34d82bd1c3b586dbd OP_EQUALVERIFY OP_CHECKSIG",
            "hex": "76a9145b0f3690b5b91ab24d5df4e34d82bd1c3b586dbd88ac",
            "reqSigs": 1,
            "type": "pubkeyhash",
            "addresses": [
              "LTXRyhQY7EdE7X9mDchLpvZz3dsAH3msHo"
            ]
          }
        }
      ],
      "hex": "0100000001251298d1efa1a453c0d4e8f3aed0c546ab0d451df6efb91a8eef5b835eca49df000000006a47304402204cb905c0f591d8ac3a3ddcbd9c22cc8631e0fd912522b0b0439668dcd1b4c7dd0220424f49d6ac39af5af8379015daafb549b4ecbbe08460cbaec465a987263dd53201210324f39515e50d77b5d8d2fc937ad5b122e9562635a416ef6791ef2ba278cc1622ffffffff028d560854000000001976a914e9cea8b6c7ebe99a89ffea1142834b4737997fbb88ac04f5770a000000001976a9145b0f3690b5b91ab24d5df4e34d82bd1c3b586dbd88ac00000000"
    }
  ],
  "time": 1517017767,
  "mediantime": 1517017362,
  "nonce": 3667954340,
  "bits": "1a047f14",
  "difficulty": 3731199.183374282,
  "chainwork": "00000000000000000000000000000000000000000000003254353925faea8c16",
  "previousblockhash": "f01d742a3f2429cbbb33bfac912404ced462ce68f6661a905fac3a0d864f1be8",
  "nextblockhash": "a3885dfb82996df32f51bf209b22313b11e489dd3583793c7552981a87b3e31f"
}
