{
  "hash": "7a049e5f8454c6f0670b30deece4198a3f1040bfd3fbe87dc862bdec8da7db79",
  "confirmations": 3505,
  "strippedsize": 253,
  "size": 253,
  "weight": 1012,
  "height": 1357490,
  "version": 536870912,
  "versionHex": "20000000",
  "merkleroot": "679872ff4b6358803da7abbc5a1dcc306fe5d6b425bdf8fe3e893f4a8ded7e59",
  "tx": [
    {
      "txid": "679872ff4b6358803da7abbc5a1dcc306fe5d6b425bdf8fe3e893f4a8ded7e59",
      "hash": "679872ff4b6358803da7abbc5a1dcc306fe5d6b425bdf8fe3e893f4a8ded7e59",
      "version": 1,
      "size": 172,
      "vsize": 172,
      "locktime": 0,
      "vin": [
        {
          "coinbase": "03b2b6141a4d696e656420627920416e74506f6f6c20626a341e205a6bb7ccfabe6d6d0fe2c1d0e24ec413a6c20a47ff8cc390700ccb4e851482f415a48a762d8976ac04000000000000006d220000000000001a000000",
          "sequence": 4294967295
        }
      ],
      "vout": [
        {
          "value": 25.00000000,
          "n": 0,
          "scriptPubKey": {
            "asm": "OP_DUP OP_HASH160 0ff3ccc5e8be88afe24b5d634e5852d474dbdff1 OP_EQUALVERIFY OP_CHECKSIG",
            "hex": "76a9140ff3ccc5e8be88afe24b5d634e5852d474dbdff188ac",
            "reqSigs": 1,
            "type": "pubkeyhash",
            "addresses": [
              "LLgJTbzZMsRTCUF1NtvvL9SR1a4pVieW89"
            ]
          }
        }
      ],
      "hex": "01000000010000000000000000000000000000000000000000000000000000000000000000ffffffff5703b2b6141a4d696e656420627920416e74506f6f6c20626a341e205a6bb7ccfabe6d6d0fe2c1d0e24ec413a6c20a47ff8cc390700ccb4e851482f415a48a762d8976ac04000000000000006d220000000000001a000000ffffffff0100f90295000000001976a9140ff3ccc5e8be88afe24b5d634e5852d474dbdff188ac00000000"
    }
  ],
  "time": 1517008844,
  "mediantime": 1517008531,
  "nonce": 393758800,
  "bits": "1a047f14",
  "difficulty": 3731199.183374282,
  "chainwork": "0000000000000000000000000000000000000000000000324515ae3df7d4952e",
  "previousblockhash": "3227cabda50c184aee114bf3027cef2e33299b3b6dba82176f377f74bad3c501",
  "nextblockhash": "0ebee21c49cf51cb0c2bf5fadfd798cc7ddce607cbe6ddaff9473634c959bc16"
}
