{
  "hash": "7a1a14ae0a88e0723f0110e23c4269d5968bac65b745640e20bd18a5ddb009c9",
  "confirmations": 1339,
  "strippedsize": 3764,
  "size": 4561,
  "weight": 15853,
  "height": 1359655,
  "version": 536870912,
  "versionHex": "20000000",
  "merkleroot": "0c99b496a17f714d2f1ba4d5b12dcd79c43b88dd842eaaa50d0826688d0337e9",
  "tx": [
    {
      "txid": "f827706c0e331ee9e98011aefe49e81501bd14001fed053aac46afceb7db75a1",
      "hash": "30c6a987fe51e50b9f661a7f6aedf67bea59a7375e8ebc370193aaae6a78451a",
      "version": 1,
      "size": 244,
      "vsize": 217,
      "locktime": 0,
      "vin": [
        {
          "coinbase": "0327bf1404c15e705a08059f2aae32000000fabe6d6d09b91299c964cf8124e093ef008c9d98a48d771efef603bfc4884c87242c539140000000000000000d2f6e6f64655374726174756d2f",
          "sequence": 0
        }
      ],
      "vout": [
        {
          "value": 25.01181560,
          "n": 0,
          "scriptPubKey": {
            "asm": "OP_DUP OP_HASH160 0c617fdb2ea42aed30a509595ee21ba3f6688db0 OP_EQUALVERIFY OP_CHECKSIG",
            "hex": "76a9140c617fdb2ea42aed30a509595ee21ba3f6688db088ac",
            "reqSigs": 1,
            "type": "pubkeyhash",
            "addresses": [
              "LLMRAtr3qBje2ySEa3CnZ55LA4TQMWnRY3"
            ]
          }
        }, 
        {
          "value": 0.00000000,
          "n": 1,
          "scriptPubKey": {
            "asm": "OP_RETURN aa21a9edacb36ed1724de1d9bcefde0f6c3f13e9ddd1eb3733e695846c9442193d268130",
            "hex": "6a24aa21a9edacb36ed1724de1d9bcefde0f6c3f13e9ddd1eb3733e695846c9442193d268130",
            "type": "nulldata"
          }
        }
      ],
      "hex": "010000000001010000000000000000000000000000000000000000000000000000000000000000ffffffff4c0327bf1404c15e705a08059f2aae32000000fabe6d6d09b91299c964cf8124e093ef008c9d98a48d771efef603bfc4884c87242c539140000000000000000d2f6e6f64655374726174756d2f000000000278001595000000001976a9140c617fdb2ea42aed30a509595ee21ba3f6688db088ac0000000000000000266a24aa21a9edacb36ed1724de1d9bcefde0f6c3f13e9ddd1eb3733e695846c9442193d2681300120000000000000000000000000000000000000000000000000000000000000000000000000"
    }, 
    {
      "txid": "25d5bb462ea4008ebea05c136dee6f39a980600a8971f25a65a0a97e2e9055ab",
      "hash": "25d5bb462ea4008ebea05c136dee6f39a980600a8971f25a65a0a97e2e9055ab",
      "version": 1,
      "size": 226,
      "vsize": 226,
      "locktime": 0,
      "vin": [
        {
          "txid": "10533e91a09fa3b18ab7d45100eab2e4b6db075358d46e0bc996eaa1a08829d6",
          "vout": 1,
          "scriptSig": {
            "asm": "3045022100821a8c981a29dd4917c08a029624898f47767c4243d4b21b1f296d57716d948302201d6e8ead9cf48ef90d6b09cc18b22ec7d5772dfbbfd7b0a242a43ab89e0045f1[ALL] 03045557468cb480ae3fdf7b18f7869def61be4e141fdfcba7f53ba667d2007c9a",
            "hex": "483045022100821a8c981a29dd4917c08a029624898f47767c4243d4b21b1f296d57716d948302201d6e8ead9cf48ef90d6b09cc18b22ec7d5772dfbbfd7b0a242a43ab89e0045f1012103045557468cb480ae3fdf7b18f7869def61be4e141fdfcba7f53ba667d2007c9a"
          },
          "sequence": 4294967295
        }
      ],
      "vout": [
        {
          "value": 1.32111700,
          "n": 0,
          "scriptPubKey": {
            "asm": "OP_DUP OP_HASH160 3eb1ba340d64e0068d271f6e7758799f42ee769c OP_EQUALVERIFY OP_CHECKSIG",
            "hex": "76a9143eb1ba340d64e0068d271f6e7758799f42ee769c88ac",
            "reqSigs": 1,
            "type": "pubkeyhash",
            "addresses": [
              "LQwT4pVqbvCZTKdpZCzjXBa3CFro7kJbMu"
            ]
          }
        }, 
        {
          "value": 66.29767546,
          "n": 1,
          "scriptPubKey": {
            "asm": "OP_DUP OP_HASH160 8c184560f54552e065fe1a43a555ab79bb9fd40b OP_EQUALVERIFY OP_CHECKSIG",
            "hex": "76a9148c184560f54552e065fe1a43a555ab79bb9fd40b88ac",
            "reqSigs": 1,
            "type": "pubkeyhash",
            "addresses": [
              "LXzhwSyYhTxZt4piVs7KvYPAWKDdXvMTNo"
            ]
          }
        }
      ],
      "hex": "0100000001d62988a0a1ea96c90b6ed4585307dbb6e4b2ea0051d4b78ab1a39fa0913e5310010000006b483045022100821a8c981a29dd4917c08a029624898f47767c4243d4b21b1f296d57716d948302201d6e8ead9cf48ef90d6b09cc18b22ec7d5772dfbbfd7b0a242a43ab89e0045f1012103045557468cb480ae3fdf7b18f7869def61be4e141fdfcba7f53ba667d2007c9affffffff0254dddf07000000001976a9143eb1ba340d64e0068d271f6e7758799f42ee769c88ac7a392a8b010000001976a9148c184560f54552e065fe1a43a555ab79bb9fd40b88ac00000000"
    }, 
    {
      "txid": "bd76052b224e0e5f889a3fffba84ced587b97338f6561648e3fa0f43298dbb67",
      "hash": "bd76052b224e0e5f889a3fffba84ced587b97338f6561648e3fa0f43298dbb67",
      "version": 1,
      "size": 334,
      "vsize": 334,
      "locktime": 0,
      "vin": [
        {
          "txid": "81bfab48c3a476c81dcffe6468a3010f8b5c95c68d54bda367702244f4d85906",
          "vout": 1,
          "scriptSig": {
            "asm": "0 304402202e310d8ce3c9b395f76f8f49b2e73c18676646aee38a58fb3b50882a7a63025402204cdae827a67d1a47e04939b4a2571eae2b872baf9aa8c4626675d78408537b7c[ALL] 304402206598c2032328d00e71977b58c1975d1ec480797ef91bdf5bd9d85704a729d20a02203ccf665111c754996e085b599a42ab87a3a953fafef30d674429e943360dcaa6[ALL] 522102f77ec37a042ba4e5e6aef7760398bf59b87ac4c5dee30a2fb8798e9630d4916e210276b93401dc495b28592f66411a7c9093b468f8678db51144fc6a36f550d94aa952ae",
            "hex": "0047304402202e310d8ce3c9b395f76f8f49b2e73c18676646aee38a58fb3b50882a7a63025402204cdae827a67d1a47e04939b4a2571eae2b872baf9aa8c4626675d78408537b7c0147304402206598c2032328d00e71977b58c1975d1ec480797ef91bdf5bd9d85704a729d20a02203ccf665111c754996e085b599a42ab87a3a953fafef30d674429e943360dcaa60147522102f77ec37a042ba4e5e6aef7760398bf59b87ac4c5dee30a2fb8798e9630d4916e210276b93401dc495b28592f66411a7c9093b468f8678db51144fc6a36f550d94aa952ae"
          },
          "sequence": 4294967295
        }
      ],
      "vout": [
        {
          "value": 0.19365200,
          "n": 0,
          "scriptPubKey": {
            "asm": "OP_DUP OP_HASH160 044b8223f70f56fc8e6ad6c559647aa91846d9bc OP_EQUALVERIFY OP_CHECKSIG",
            "hex": "76a914044b8223f70f56fc8e6ad6c559647aa91846d9bc88ac",
            "reqSigs": 1,
            "type": "pubkeyhash",
            "addresses": [
              "LKcfRPm9xjgaoRxeF2GPGE93PswtjUxqAc"
            ]
          }
        }, 
        {
          "value": 37.15294400,
          "n": 1,
          "scriptPubKey": {
            "asm": "OP_HASH160 75b77316f8d91ff71fb2819115d1b6b9e80ccee9 OP_EQUAL",
            "hex": "a91475b77316f8d91ff71fb2819115d1b6b9e80ccee987",
            "reqSigs": 1,
            "type": "scripthash",
            "addresses": [
              "MJdb4B3BMDrfpB1FpKsPYQ1tDHdkNa1oLB"
            ]
          }
        }
      ],
      "hex": "01000000010659d8f444227067a3bd548dc6955c8b0f01a36864fecf1dc876a4c348abbf8101000000d90047304402202e310d8ce3c9b395f76f8f49b2e73c18676646aee38a58fb3b50882a7a63025402204cdae827a67d1a47e04939b4a2571eae2b872baf9aa8c4626675d78408537b7c0147304402206598c2032328d00e71977b58c1975d1ec480797ef91bdf5bd9d85704a729d20a02203ccf665111c754996e085b599a42ab87a3a953fafef30d674429e943360dcaa60147522102f77ec37a042ba4e5e6aef7760398bf59b87ac4c5dee30a2fb8798e9630d4916e210276b93401dc495b28592f66411a7c9093b468f8678db51144fc6a36f550d94aa952aeffffffff02507d2701000000001976a914044b8223f70f56fc8e6ad6c559647aa91846d9bc88acc0e472dd0000000017a91475b77316f8d91ff71fb2819115d1b6b9e80ccee98700000000"
    }, 
    {
      "txid": "debb97cfdf2d27be54e9317854a463383bea65a08d00a2fb98fd2d29099cc9ab",
      "hash": "debb97cfdf2d27be54e9317854a463383bea65a08d00a2fb98fd2d29099cc9ab",
      "version": 1,
      "size": 223,
      "vsize": 223,
      "locktime": 0,
      "vin": [
        {
          "txid": "ebedd5c7a7ea89c5749214baffd6b6d4b4cf37ddeb450bf411e33cc98f447748",
          "vout": 4,
          "scriptSig": {
            "asm": "304402207bfe6e009ebb04e9563f94f877840da86fe9c3b730a06b2d3e32b10f40615e0d0220565cf8508ce55dc97bab7d5fc8e2209b579376dcc012d4901b4c642cb875e211[ALL] 0328c9ae635abf580c261c44815dc1aac309e16ff26250525b7e99951369d2b8c7",
            "hex": "47304402207bfe6e009ebb04e9563f94f877840da86fe9c3b730a06b2d3e32b10f40615e0d0220565cf8508ce55dc97bab7d5fc8e2209b579376dcc012d4901b4c642cb875e21101210328c9ae635abf580c261c44815dc1aac309e16ff26250525b7e99951369d2b8c7"
          },
          "sequence": 4294967295
        }
      ],
      "vout": [
        {
          "value": 10.00900000,
          "n": 0,
          "scriptPubKey": {
            "asm": "OP_HASH160 79d57386b0bec1d3a460a3508cca27dbd67fea2f OP_EQUAL",
            "hex": "a91479d57386b0bec1d3a460a3508cca27dbd67fea2f87",
            "reqSigs": 1,
            "type": "scripthash",
            "addresses": [
              "MK1MhVjRWaRzFVjqeZrG9EV6v7aL5d8mz8"
            ]
          }
        }, 
        {
          "value": 18.96067835,
          "n": 1,
          "scriptPubKey": {
            "asm": "OP_DUP OP_HASH160 c6e3836c2f4cd8f9c53e32813ded99ac0ce001f1 OP_EQUALVERIFY OP_CHECKSIG",
            "hex": "76a914c6e3836c2f4cd8f9c53e32813ded99ac0ce001f188ac",
            "reqSigs": 1,
            "type": "pubkeyhash",
            "addresses": [
              "LdMac6qdwFnBCVXN96dvoPjzbcE36gzs64"
            ]
          }
        }
      ],
      "hex": "01000000014877448fc93ce311f40b45ebdd37cfb4d4b6d6ffba149274c589eaa7c7d5edeb040000006a47304402207bfe6e009ebb04e9563f94f877840da86fe9c3b730a06b2d3e32b10f40615e0d0220565cf8508ce55dc97bab7d5fc8e2209b579376dcc012d4901b4c642cb875e21101210328c9ae635abf580c261c44815dc1aac309e16ff26250525b7e99951369d2b8c7ffffffff02a085a83b0000000017a91479d57386b0bec1d3a460a3508cca27dbd67fea2f87fbb20371000000001976a914c6e3836c2f4cd8f9c53e32813ded99ac0ce001f188ac00000000"
    }, 
    {
      "txid": "db01c20604ee6996866cffae31c70f64d9b071f1a253b95df431c2f60632ec95",
      "hash": "5a1c45abc42c2d33c963c6373fec03651a954d16cf4db7334c5917d426aa3970",
      "version": 2,
      "size": 903,
      "vsize": 499,
      "locktime": 0,
      "vin": [
        {
          "txid": "a4f233d59a89c2ff336a166163f6caa7080452c82430c648b33f1dee6448380a",
          "vout": 6,
          "scriptSig": {
            "asm": "0014fcd5d0c4124948185e9ae8218e432d358926a196",
            "hex": "160014fcd5d0c4124948185e9ae8218e432d358926a196"
          },
          "txinwitness": [
            "3044022069b227ad9f9a8d28a17b2d509cd18c4b1265090d94ac179a650da6f68656b7c6022053f114acc64749275340684a1f3b9de0562d77996db0646e5d09359d813c9a6c01", 
            "033165986365bab47e894c7ac9fd3bf89d1da717a6be4631b9c65eb88e277c414e"
          ],
          "sequence": 4294967295
        }, 
        {
          "txid": "4811b271b87814aa7861a0c0227ea9ff35ea8b5296806a7a39912b00f8d94829",
          "vout": 0,
          "scriptSig": {
            "asm": "0014a160a23b6d673021d1f167e6819a780249a1efd9",
            "hex": "160014a160a23b6d673021d1f167e6819a780249a1efd9"
          },
          "txinwitness": [
            "3045022100950a2059ceb065281f0a8ec7072693b969fafe113e420bf7176ec49cdfc1c7660220602d43f6e679c05023b56bbc2960123b5227dc95ece721bf78fb2bc7c344572801", 
            "03bc685da430ec9abc025c79bb77e5f2277fc08f03561f44da9b02a2993b2d2132"
          ],
          "sequence": 4294967295
        }, 
        {
          "txid": "229a2c5c0536109448e4dbe8a21cfa06c3aebd5495753ccf54a514824f47c739",
          "vout": 1,
          "scriptSig": {
            "asm": "0014d80db19cea2b32428da7ebbc277e574618592690",
            "hex": "160014d80db19cea2b32428da7ebbc277e574618592690"
          },
          "txinwitness": [
            "304402200d41b9e233fea631a90124fcea5579268dd9a4d5e0cc01ec1ab25cc0cb0cb8580220773ab4ccb5dea6880d616c4c9d8176d41d20725fdfde985838ef6df671a65f0201", 
            "02657f57d92824b7fe2db81efef8934c35287b36c493e80ec5e54d8f8a6e266414"
          ],
          "sequence": 4294967295
        }, 
        {
          "txid": "8f12f9e0eaa1762127409d43a857079108e9fa26a78d3eee435509889b152c4c",
          "vout": 1,
          "scriptSig": {
            "asm": "0014113a3ad4bd79a3fabd0c783bb7a6d05a5aa429c3",
            "hex": "160014113a3ad4bd79a3fabd0c783bb7a6d05a5aa429c3"
          },
          "txinwitness": [
            "3044022049935f6e60481c1d60c652946fee9a70455e9542341f5de434b5dfcbad9fd39202205150381ca5522bb28ff9f4856879a7cdddd414e175f349aa827da54f7367975a01", 
            "025c0deae52a7d141eb7986dde4e60a39a5e79e8a9f249cb1a128d769a59f35fcb"
          ],
          "sequence": 4294967295
        }, 
        {
          "txid": "4d314501b14d354217135cc794a2f23de703aa8bbfdb4859303f392f5c9cd14c",
          "vout": 0,
          "scriptSig": {
            "asm": "0014113a3ad4bd79a3fabd0c783bb7a6d05a5aa429c3",
            "hex": "160014113a3ad4bd79a3fabd0c783bb7a6d05a5aa429c3"
          },
          "txinwitness": [
            "3045022100d2d9dcb6ceaab8027c4ea5ac7c023083fc1f59cc0ea6ac663e017e80dcc78ff002202feed2f2d420e281f6edcc5cd0c2784d6a304c927fef589f935d7e2f965c10db01", 
            "025c0deae52a7d141eb7986dde4e60a39a5e79e8a9f249cb1a128d769a59f35fcb"
          ],
          "sequence": 4294967295
        }
      ],
      "vout": [
        {
          "value": 52.12844251,
          "n": 0,
          "scriptPubKey": {
            "asm": "OP_DUP OP_HASH160 8e8088daa70dc9faec1ef3c2305a60de722f7354 OP_EQUALVERIFY OP_CHECKSIG",
            "hex": "76a9148e8088daa70dc9faec1ef3c2305a60de722f735488ac",
            "reqSigs": 1,
            "type": "pubkeyhash",
            "addresses": [
              "LYDSCC82VRBQHiQcpTiQMxbYsng98rhmw3"
            ]
          }
        }
      ],
      "hex": "020000000001050a384864ee1d3fb348c63024c8520408a7caf66361166a33ffc2899ad533f2a40600000017160014fcd5d0c4124948185e9ae8218e432d358926a196ffffffff2948d9f8002b91397a6a8096528bea35ffa97e22c0a06178aa1478b871b211480000000017160014a160a23b6d673021d1f167e6819a780249a1efd9ffffffff39c7474f8214a554cf3c759554bdaec306fa1ca2e8dbe448941036055c2c9a220100000017160014d80db19cea2b32428da7ebbc277e574618592690ffffffff4c2c159b88095543ee3e8da726fae908910757a8439d40272176a1eae0f9128f0100000017160014113a3ad4bd79a3fabd0c783bb7a6d05a5aa429c3ffffffff4cd19c5c2f393f305948dbbf8baa03e73df2a294c75c131742354db10145314d0000000017160014113a3ad4bd79a3fabd0c783bb7a6d05a5aa429c3ffffffff01dbb0b536010000001976a9148e8088daa70dc9faec1ef3c2305a60de722f735488ac02473044022069b227ad9f9a8d28a17b2d509cd18c4b1265090d94ac179a650da6f68656b7c6022053f114acc64749275340684a1f3b9de0562d77996db0646e5d09359d813c9a6c0121033165986365bab47e894c7ac9fd3bf89d1da717a6be4631b9c65eb88e277c414e02483045022100950a2059ceb065281f0a8ec7072693b969fafe113e420bf7176ec49cdfc1c7660220602d43f6e679c05023b56bbc2960123b5227dc95ece721bf78fb2bc7c3445728012103bc685da430ec9abc025c79bb77e5f2277fc08f03561f44da9b02a2993b2d21320247304402200d41b9e233fea631a90124fcea5579268dd9a4d5e0cc01ec1ab25cc0cb0cb8580220773ab4ccb5dea6880d616c4c9d8176d41d20725fdfde985838ef6df671a65f02012102657f57d92824b7fe2db81efef8934c35287b36c493e80ec5e54d8f8a6e26641402473044022049935f6e60481c1d60c652946fee9a70455e9542341f5de434b5dfcbad9fd39202205150381ca5522bb28ff9f4856879a7cdddd414e175f349aa827da54f7367975a0121025c0deae52a7d141eb7986dde4e60a39a5e79e8a9f249cb1a128d769a59f35fcb02483045022100d2d9dcb6ceaab8027c4ea5ac7c023083fc1f59cc0ea6ac663e017e80dcc78ff002202feed2f2d420e281f6edcc5cd0c2784d6a304c927fef589f935d7e2f965c10db0121025c0deae52a7d141eb7986dde4e60a39a5e79e8a9f249cb1a128d769a59f35fcb00000000"
    }, 
    {
      "txid": "a82eb1c2b99da7888bf3174beb7819847b29292bb7b2a1ab49d166acf6192442",
      "hash": "d6bdee6ba3c4f2dbd49316e9ad42fe275b7017f051d59b0d0e32e669b3b8aa5f",
      "version": 1,
      "size": 374,
      "vsize": 208,
      "locktime": 0,
      "vin": [
        {
          "txid": "a24617d85f011fe8641e3a92caf3b67afa6a748f7ef9120713f9a38f32fa732e",
          "vout": 1,
          "scriptSig": {
            "asm": "00207975c3f0d1bf8b6205e1c664d703c93d68409676bf17c5e78cdece78bdbf3dbf",
            "hex": "2200207975c3f0d1bf8b6205e1c664d703c93d68409676bf17c5e78cdece78bdbf3dbf"
          },
          "txinwitness": [
            "", 
            "3045022100bba0533d4b5c4c271233bfc998ed6195659809e56a08ac5132e56a16c8bb23f902206defec6e1fa2551234735e0e08f3df4e30b0bc1043eb240821fae262240ab92601", 
            "3045022100c0e6dcede9b4dda7162948e66f0601b857ed3b927521ec9d6ccaf8cca7bce04302205a82ce00c0fac3fe5efd88394e76979bd97fa1a34c1a6ac8ef75fd0e634d58ce01", 
            "522102611be09a0c6a571c8f68adb2481e938888756d93d4ee5b670f08c16e939b7f1a21022cc7a96a72ef014bf078a6489644e2edb05bb216d30b4f28363b637fe4463fd652ae"
          ],
          "sequence": 4294967295
        }
      ],
      "vout": [
        {
          "value": 0.02542400,
          "n": 0,
          "scriptPubKey": {
            "asm": "OP_DUP OP_HASH160 fde9a21fd1ac61433a3d096df37d8d503d5e631e OP_EQUALVERIFY OP_CHECKSIG",
            "hex": "76a914fde9a21fd1ac61433a3d096df37d8d503d5e631e88ac",
            "reqSigs": 1,
            "type": "pubkeyhash",
            "addresses": [
              "LiNX6sYUTMkca1Yx7oh4YJdDuHKBSKNhv4"
            ]
          }
        }, 
        {
          "value": 6.33676361,
          "n": 1,
          "scriptPubKey": {
            "asm": "OP_HASH160 486ce63d83e8406016f310cd321d36bbdd10d412 OP_EQUAL",
            "hex": "a914486ce63d83e8406016f310cd321d36bbdd10d41287",
            "reqSigs": 1,
            "type": "scripthash",
            "addresses": [
              "MEW7Lhk6QzBLmCNp5pmpYzwv1KAcKYsSQp"
            ]
          }
        }
      ],
      "hex": "010000000001012e73fa328fa3f9130712f97e8f746afa7ab6f3ca923a1e64e81f015fd81746a201000000232200207975c3f0d1bf8b6205e1c664d703c93d68409676bf17c5e78cdece78bdbf3dbfffffffff0240cb2600000000001976a914fde9a21fd1ac61433a3d096df37d8d503d5e631e88ac4922c5250000000017a914486ce63d83e8406016f310cd321d36bbdd10d412870400483045022100bba0533d4b5c4c271233bfc998ed6195659809e56a08ac5132e56a16c8bb23f902206defec6e1fa2551234735e0e08f3df4e30b0bc1043eb240821fae262240ab92601483045022100c0e6dcede9b4dda7162948e66f0601b857ed3b927521ec9d6ccaf8cca7bce04302205a82ce00c0fac3fe5efd88394e76979bd97fa1a34c1a6ac8ef75fd0e634d58ce0147522102611be09a0c6a571c8f68adb2481e938888756d93d4ee5b670f08c16e939b7f1a21022cc7a96a72ef014bf078a6489644e2edb05bb216d30b4f28363b637fe4463fd652ae00000000"
    }, 
    {
      "txid": "b321c2217e21f299779b5c8f1d43bbdbb8043ea70dea6032e57e387a2ca3131b",
      "hash": "b321c2217e21f299779b5c8f1d43bbdbb8043ea70dea6032e57e387a2ca3131b",
      "version": 2,
      "size": 372,
      "vsize": 372,
      "locktime": 1359653,
      "vin": [
        {
          "txid": "561b3a9c8be4ca10e405d7a21a65fc70bb6e31c6d3c8a1d4552c049512748299",
          "vout": 0,
          "scriptSig": {
            "asm": "304402205018f5177be3acb8e7c71c3c9e7663744ee473e9a48bf5e2c75126286ad7220e02203108e5977960e072492c8e88c6e730882bc525663736d81265712cef0911d026[ALL] 02caf184cdbbb8933a4bc68e7c080201d7ba13e467f26c3c579de5983e73e1f473",
            "hex": "47304402205018f5177be3acb8e7c71c3c9e7663744ee473e9a48bf5e2c75126286ad7220e02203108e5977960e072492c8e88c6e730882bc525663736d81265712cef0911d026012102caf184cdbbb8933a4bc68e7c080201d7ba13e467f26c3c579de5983e73e1f473"
          },
          "sequence": 4294967294
        }, 
        {
          "txid": "e2b80b36c9e7b0fa870c2f7943799d019b8c644a516787d7b0d52a48b1d415d5",
          "vout": 0,
          "scriptSig": {
            "asm": "30440220359f32dcc591d56d57353824fbbc15a8ef019f0bded9bcb9f88a37ba2a9ae19b02202a201af335ad128accc1edc45f47e0c044d9a42f44be5b3a7f676cb4567d171d[ALL] 02fd76b1d4f3ebf1a0d9923178f85b901c9dccf6ec5aa21b9f1d0f3188edba4136",
            "hex": "4730440220359f32dcc591d56d57353824fbbc15a8ef019f0bded9bcb9f88a37ba2a9ae19b02202a201af335ad128accc1edc45f47e0c044d9a42f44be5b3a7f676cb4567d171d012102fd76b1d4f3ebf1a0d9923178f85b901c9dccf6ec5aa21b9f1d0f3188edba4136"
          },
          "sequence": 4294967294
        }
      ],
      "vout": [
        {
          "value": 0.55300000,
          "n": 0,
          "scriptPubKey": {
            "asm": "OP_DUP OP_HASH160 f5804459a41841de0ac274d9945d13def019f2e1 OP_EQUALVERIFY OP_CHECKSIG",
            "hex": "76a914f5804459a41841de0ac274d9945d13def019f2e188ac",
            "reqSigs": 1,
            "type": "pubkeyhash",
            "addresses": [
              "Lhc3UMjoNPKgjGRYQpSKuY4UMekZ5z2CQC"
            ]
          }
        }, 
        {
          "value": 0.00962600,
          "n": 1,
          "scriptPubKey": {
            "asm": "OP_DUP OP_HASH160 5f341978f6455ca42aba875c131c7b1893d90f57 OP_EQUALVERIFY OP_CHECKSIG",
            "hex": "76a9145f341978f6455ca42aba875c131c7b1893d90f5788ac",
            "reqSigs": 1,
            "type": "pubkeyhash",
            "addresses": [
              "LTuLsNdbE4YxxpKk38ygeQ7MTT151U5jKL"
            ]
          }
        }
      ],
      "hex": "02000000029982741295042c55d4a1c8d3c6316ebb70fc651aa2d705e410cae48b9c3a1b56000000006a47304402205018f5177be3acb8e7c71c3c9e7663744ee473e9a48bf5e2c75126286ad7220e02203108e5977960e072492c8e88c6e730882bc525663736d81265712cef0911d026012102caf184cdbbb8933a4bc68e7c080201d7ba13e467f26c3c579de5983e73e1f473feffffffd515d4b1482ad5b0d78767514a648c9b019d7943792f0c87fab0e7c9360bb8e2000000006a4730440220359f32dcc591d56d57353824fbbc15a8ef019f0bded9bcb9f88a37ba2a9ae19b02202a201af335ad128accc1edc45f47e0c044d9a42f44be5b3a7f676cb4567d171d012102fd76b1d4f3ebf1a0d9923178f85b901c9dccf6ec5aa21b9f1d0f3188edba4136feffffff02a0cf4b03000000001976a914f5804459a41841de0ac274d9945d13def019f2e188ac28b00e00000000001976a9145f341978f6455ca42aba875c131c7b1893d90f5788ac25bf1400"
    }, 
    {
      "txid": "43a4874756fa4a6d22c0530ecf20931bbf2bf6ddaf788e6cec782c495802a509",
      "hash": "43a4874756fa4a6d22c0530ecf20931bbf2bf6ddaf788e6cec782c495802a509",
      "version": 1,
      "size": 225,
      "vsize": 225,
      "locktime": 0,
      "vin": [
        {
          "txid": "63e7cf708c80d633ece217b0de4d8829907d06087be201cbecbfccf49b3676ca",
          "vout": 0,
          "scriptSig": {
            "asm": "30440220643e9da432c4e03394a06611669b5e1002fbcb0111f48c2393d5509c89df044802200cb2b9f92b56716dd3c1d819d8ddbd9f1ca02fa36a81c86895cc6e267089c89f[ALL] 03bf35d8735025a9412dc5d2ecb7ca583ac252ca06f885b9e1dc376553a5ab1142",
            "hex": "4730440220643e9da432c4e03394a06611669b5e1002fbcb0111f48c2393d5509c89df044802200cb2b9f92b56716dd3c1d819d8ddbd9f1ca02fa36a81c86895cc6e267089c89f012103bf35d8735025a9412dc5d2ecb7ca583ac252ca06f885b9e1dc376553a5ab1142"
          },
          "sequence": 4294967295
        }
      ],
      "vout": [
        {
          "value": 0.22012546,
          "n": 0,
          "scriptPubKey": {
            "asm": "OP_DUP OP_HASH160 c296e68d77b3828ef2fb0bbe88e654fc0c602531 OP_EQUALVERIFY OP_CHECKSIG",
            "hex": "76a914c296e68d77b3828ef2fb0bbe88e654fc0c60253188ac",
            "reqSigs": 1,
            "type": "pubkeyhash",
            "addresses": [
              "Lcxr8BhkP1QfuHeMB4dEaGpafnvxdV6QPM"
            ]
          }
        }, 
        {
          "value": 0.00287976,
          "n": 1,
          "scriptPubKey": {
            "asm": "OP_DUP OP_HASH160 a84405898b17170b376de6c6544305e979578d62 OP_EQUALVERIFY OP_CHECKSIG",
            "hex": "76a914a84405898b17170b376de6c6544305e979578d6288ac",
            "reqSigs": 1,
            "type": "pubkeyhash",
            "addresses": [
              "LaZfGfbTWdcByjobp8b9jE7ipUGuFfeSXZ"
            ]
          }
        }
      ],
      "hex": "0100000001ca76369bf4ccbfeccb01e27b08067d9029884ddeb017e2ec33d6808c70cfe763000000006a4730440220643e9da432c4e03394a06611669b5e1002fbcb0111f48c2393d5509c89df044802200cb2b9f92b56716dd3c1d819d8ddbd9f1ca02fa36a81c86895cc6e267089c89f012103bf35d8735025a9412dc5d2ecb7ca583ac252ca06f885b9e1dc376553a5ab1142ffffffff0282e24f01000000001976a914c296e68d77b3828ef2fb0bbe88e654fc0c60253188ace8640400000000001976a914a84405898b17170b376de6c6544305e979578d6288ac00000000"
    }, 
    {
      "txid": "eac258d6a04003797987551391a964438e4aa17ddb22c1750d806fd86154532f",
      "hash": "eac258d6a04003797987551391a964438e4aa17ddb22c1750d806fd86154532f",
      "version": 2,
      "size": 225,
      "vsize": 225,
      "locktime": 1359653,
      "vin": [
        {
          "txid": "97973156f4c32b5c41e90fc62375079a3d9b856e28864882e0a5b1dedc90aeb1",
          "vout": 2,
          "scriptSig": {
            "asm": "30440220114186e2a62403f71bacffe1bff57b730feac763a8b0ae679b98b497714877340220609e2daa315503506c7d95c148a50206f887413d0b8381deedfc556f93b19504[ALL] 038ba189913b42ac26de55ebefa5da329631634331b2d662d2d8e96fd1f2320511",
            "hex": "4730440220114186e2a62403f71bacffe1bff57b730feac763a8b0ae679b98b497714877340220609e2daa315503506c7d95c148a50206f887413d0b8381deedfc556f93b195040121038ba189913b42ac26de55ebefa5da329631634331b2d662d2d8e96fd1f2320511"
          },
          "sequence": 4294967294
        }
      ],
      "vout": [
        {
          "value": 1.10001900,
          "n": 0,
          "scriptPubKey": {
            "asm": "OP_DUP OP_HASH160 68ce640bad398afb01f5aad6dde133da251aa08c OP_EQUALVERIFY OP_CHECKSIG",
            "hex": "76a91468ce640bad398afb01f5aad6dde133da251aa08c88ac",
            "reqSigs": 1,
            "type": "pubkeyhash",
            "addresses": [
              "LUn7nSvbYNfiHj4b12uTaA8FW39fdFaBiV"
            ]
          }
        }, 
        {
          "value": 2.32358400,
          "n": 1,
          "scriptPubKey": {
            "asm": "OP_DUP OP_HASH160 a04f990c96dae7011518528deaf13c7936703019 OP_EQUALVERIFY OP_CHECKSIG",
            "hex": "76a914a04f990c96dae7011518528deaf13c793670301988ac",
            "reqSigs": 1,
            "type": "pubkeyhash",
            "addresses": [
              "LZqbjTiCkGBomhq1686KAhovmoEW6MUGuR"
            ]
          }
        }
      ],
      "hex": "0200000001b1ae90dcdeb1a5e0824886286e859b3d9a077523c60fe9415c2bc3f456319797020000006a4730440220114186e2a62403f71bacffe1bff57b730feac763a8b0ae679b98b497714877340220609e2daa315503506c7d95c148a50206f887413d0b8381deedfc556f93b195040121038ba189913b42ac26de55ebefa5da329631634331b2d662d2d8e96fd1f2320511feffffff02ec7e8e06000000001976a91468ce640bad398afb01f5aad6dde133da251aa08c88ac0082d90d000000001976a914a04f990c96dae7011518528deaf13c793670301988ac25bf1400"
    }, 
    {
      "txid": "49b1a917b79f69ce2a995acf43a7d2731a03b03644810389558208f2be508d4c",
      "hash": "49b1a917b79f69ce2a995acf43a7d2731a03b03644810389558208f2be508d4c",
      "version": 1,
      "size": 225,
      "vsize": 225,
      "locktime": 0,
      "vin": [
        {
          "txid": "ce7b7d5f029415c60e7155e32ec8bdb9249c933ec9726e164e2993c4dd816f05",
          "vout": 1,
          "scriptSig": {
            "asm": "30440220788bf51bcdeb0089432b1b9e44c034ea873caaa94c69b4a52198afee5289ff9c0220276e11833c4a55a078a2d2c760feef8e4db9eda7c2dc84b66f8e3115222ece5c[ALL] 0373da4a7662c599e369e947c088679ca4d84c9c1951f69497a57aabcb7b537f30",
            "hex": "4730440220788bf51bcdeb0089432b1b9e44c034ea873caaa94c69b4a52198afee5289ff9c0220276e11833c4a55a078a2d2c760feef8e4db9eda7c2dc84b66f8e3115222ece5c01210373da4a7662c599e369e947c088679ca4d84c9c1951f69497a57aabcb7b537f30"
          },
          "sequence": 4294967295
        }
      ],
      "vout": [
        {
          "value": 2.44486709,
          "n": 0,
          "scriptPubKey": {
            "asm": "OP_DUP OP_HASH160 79709472d91311f8b64e1014bbdb123e24dc2771 OP_EQUALVERIFY OP_CHECKSIG",
            "hex": "76a91479709472d91311f8b64e1014bbdb123e24dc277188ac",
            "reqSigs": 1,
            "type": "pubkeyhash",
            "addresses": [
              "LWJ4tcRNj1jbemB5sLKAwpDsUfvzR2Td6k"
            ]
          }
        }, 
        {
          "value": 82.67156812,
          "n": 1,
          "scriptPubKey": {
            "asm": "OP_DUP OP_HASH160 0b6f04ed6db9b506a8b478993d03992811396762 OP_EQUALVERIFY OP_CHECKSIG",
            "hex": "76a9140b6f04ed6db9b506a8b478993d0399281139676288ac",
            "reqSigs": 1,
            "type": "pubkeyhash",
            "addresses": [
              "LLGQh5LymPuikPwkV2ctr3DCNXAhZZpj7i"
            ]
          }
        }
      ],
      "hex": "0100000001056f81ddc493294e166e72c93e939c24b9bdc82ee355710ec61594025f7d7bce010000006a4730440220788bf51bcdeb0089432b1b9e44c034ea873caaa94c69b4a52198afee5289ff9c0220276e11833c4a55a078a2d2c760feef8e4db9eda7c2dc84b66f8e3115222ece5c01210373da4a7662c599e369e947c088679ca4d84c9c1951f69497a57aabcb7b537f30ffffffff023592920e000000001976a91479709472d91311f8b64e1014bbdb123e24dc277188ac4ccdc2ec010000001976a9140b6f04ed6db9b506a8b478993d0399281139676288ac00000000"
    }, 
    {
      "txid": "75b14c625ddabc75a9cfa4a1dd28ecf709a3373a54db765ef19ff64555bf9e9d",
      "hash": "75b14c625ddabc75a9cfa4a1dd28ecf709a3373a54db765ef19ff64555bf9e9d",
      "version": 2,
      "size": 225,
      "vsize": 225,
      "locktime": 1359653,
      "vin": [
        {
          "txid": "e7a3ec0c8b3ce1c97eb336ddf7587eeccf0b25470e169a9226735db3cffb0de5",
          "vout": 1,
          "scriptSig": {
            "asm": "304402206f33e637aeb28182a9fafb5aa72ca002ec5f4a45c8cfcf6715596c716443e1ab02207cfb3168ba0a73ac3e0ce5eb22c522580d5c90816409ab07ff226bd5e2460ca1[ALL] 02b0bdbf3f11ef8608fd63fbd721a4ae3cc762c7f8f75bf0860dd2a761cd1a066f",
            "hex": "47304402206f33e637aeb28182a9fafb5aa72ca002ec5f4a45c8cfcf6715596c716443e1ab02207cfb3168ba0a73ac3e0ce5eb22c522580d5c90816409ab07ff226bd5e2460ca1012102b0bdbf3f11ef8608fd63fbd721a4ae3cc762c7f8f75bf0860dd2a761cd1a066f"
          },
          "sequence": 4294967294
        }
      ],
      "vout": [
        {
          "value": 25.40020776,
          "n": 0,
          "scriptPubKey": {
            "asm": "OP_DUP OP_HASH160 f8638155fb035c1cd97bfcdb1a44bed49d47b3f7 OP_EQUALVERIFY OP_CHECKSIG",
            "hex": "76a914f8638155fb035c1cd97bfcdb1a44bed49d47b3f788ac",
            "reqSigs": 1,
            "type": "pubkeyhash",
            "addresses": [
              "LhsK3XjcN2avzzuMTmte13s8dxr2maQmGg"
            ]
          }
        }, 
        {
          "value": 8.85688628,
          "n": 1,
          "scriptPubKey": {
            "asm": "OP_DUP OP_HASH160 c6e47697f4125b64029421345ad76a354c50bbb7 OP_EQUALVERIFY OP_CHECKSIG",
            "hex": "76a914c6e47697f4125b64029421345ad76a354c50bbb788ac",
            "reqSigs": 1,
            "type": "pubkeyhash",
            "addresses": [
              "LdMbk6oD9wqZwQkVWiaMAQuzWRo9jBpBxv"
            ]
          }
        }
      ],
      "hex": "0200000001e50dfbcfb35d7326929a160e47250bcfec7e58f7dd36b37ec9e13c8b0ceca3e7010000006a47304402206f33e637aeb28182a9fafb5aa72ca002ec5f4a45c8cfcf6715596c716443e1ab02207cfb3168ba0a73ac3e0ce5eb22c522580d5c90816409ab07ff226bd5e2460ca1012102b0bdbf3f11ef8608fd63fbd721a4ae3cc762c7f8f75bf0860dd2a761cd1a066ffeffffff0228a46597000000001976a914f8638155fb035c1cd97bfcdb1a44bed49d47b3f788ac3489ca34000000001976a914c6e47697f4125b64029421345ad76a354c50bbb788ac25bf1400"
    }, 
    {
      "txid": "de2af6c0a57a8d417b840369378522b41b87c2914bdbcb830d49fc20ce3c940a",
      "hash": "de2af6c0a57a8d417b840369378522b41b87c2914bdbcb830d49fc20ce3c940a",
      "version": 1,
      "size": 226,
      "vsize": 226,
      "locktime": 0,
      "vin": [
        {
          "txid": "5288f4aaca3f5977021370330fae47825df861264d22696407fbcf476d1f26dc",
          "vout": 0,
          "scriptSig": {
            "asm": "3045022100a1a7c23a57e5fbbd280ea25ad4325e4e439eb09db535adb3b23f7ff3bb208a0a022071be1074c09db7945432a2cc8330189ee085d7b8c145d51de754d2105a157789[ALL] 022a7cf77e6d731c0c405a0cf4218ea4b189cb789bf181f6b6043d1997382878eb",
            "hex": "483045022100a1a7c23a57e5fbbd280ea25ad4325e4e439eb09db535adb3b23f7ff3bb208a0a022071be1074c09db7945432a2cc8330189ee085d7b8c145d51de754d2105a1577890121022a7cf77e6d731c0c405a0cf4218ea4b189cb789bf181f6b6043d1997382878eb"
          },
          "sequence": 4294967295
        }
      ],
      "vout": [
        {
          "value": 7.99900000,
          "n": 0,
          "scriptPubKey": {
            "asm": "OP_DUP OP_HASH160 55b901b36c962422b6de447d12677daba551367e OP_EQUALVERIFY OP_CHECKSIG",
            "hex": "76a91455b901b36c962422b6de447d12677daba551367e88ac",
            "reqSigs": 1,
            "type": "pubkeyhash",
            "addresses": [
              "LT3DL1H2f358TLtHSBvtpF1SB5AY9CB4en"
            ]
          }
        }, 
        {
          "value": 78.64645352,
          "n": 1,
          "scriptPubKey": {
            "asm": "OP_DUP OP_HASH160 c109d4cb0e6cc8fc369c934e4ff31f11a8bd09c5 OP_EQUALVERIFY OP_CHECKSIG",
            "hex": "76a914c109d4cb0e6cc8fc369c934e4ff31f11a8bd09c588ac",
            "reqSigs": 1,
            "type": "pubkeyhash",
            "addresses": [
              "LcpeTKcKYrYpgFEYYWfRnncTP3iP4FaSas"
            ]
          }
        }
      ],
      "hex": "0100000001dc261f6d47cffb076469224d2661f85d8247ae0f3370130277593fcaaaf48852000000006b483045022100a1a7c23a57e5fbbd280ea25ad4325e4e439eb09db535adb3b23f7ff3bb208a0a022071be1074c09db7945432a2cc8330189ee085d7b8c145d51de754d2105a1577890121022a7cf77e6d731c0c405a0cf4218ea4b189cb789bf181f6b6043d1997382878ebffffffff026081ad2f000000001976a91455b901b36c962422b6de447d12677daba551367e88ace8f6c4d4010000001976a914c109d4cb0e6cc8fc369c934e4ff31f11a8bd09c588ac00000000"
    }, 
    {
      "txid": "36b03482b541d0b62625b585eabc058fc3f9fa7c6b4477ef30aa2e49012c525c",
      "hash": "36b03482b541d0b62625b585eabc058fc3f9fa7c6b4477ef30aa2e49012c525c",
      "version": 2,
      "size": 226,
      "vsize": 226,
      "locktime": 1359653,
      "vin": [
        {
          "txid": "e924568db753b13f1a4eb73f6b7bb4d0faf8bbed1ab080f188f395ec28500083",
          "vout": 1,
          "scriptSig": {
            "asm": "30450221008dce230dd891e6c6b03d826c1e2f2292a9f83f6441e49ff3425c2bb91a251dc002204053c7f89618256bc77ee6e233f1a82417ede6c615327d6663b7831bc01e4e21[ALL] 03ff2fb60467e5b64b0013e3409c97dca93808be064d2522806abaa737b71e73f6",
            "hex": "4830450221008dce230dd891e6c6b03d826c1e2f2292a9f83f6441e49ff3425c2bb91a251dc002204053c7f89618256bc77ee6e233f1a82417ede6c615327d6663b7831bc01e4e21012103ff2fb60467e5b64b0013e3409c97dca93808be064d2522806abaa737b71e73f6"
          },
          "sequence": 4294967294
        }
      ],
      "vout": [
        {
          "value": 1.65155500,
          "n": 0,
          "scriptPubKey": {
            "asm": "OP_DUP OP_HASH160 32f2829760916261d3715e145f73a502f721e0e9 OP_EQUALVERIFY OP_CHECKSIG",
            "hex": "76a91432f2829760916261d3715e145f73a502f721e0e988ac",
            "reqSigs": 1,
            "type": "pubkeyhash",
            "addresses": [
              "LPsLZhjvjq65eCgeSu5YJsxTScmC9MTC49"
            ]
          }
        }, 
        {
          "value": 477.42353727,
          "n": 1,
          "scriptPubKey": {
            "asm": "OP_DUP OP_HASH160 08045feffc996efae8b0b8795a48641968ae686e OP_EQUALVERIFY OP_CHECKSIG",
            "hex": "76a91408045feffc996efae8b0b8795a48641968ae686e88ac",
            "reqSigs": 1,
            "type": "pubkeyhash",
            "addresses": [
              "LKxLuiC5vZWQ4F4m725ij3wrD2g4iBrV9M"
            ]
          }
        }
      ],
      "hex": "020000000183005028ec95f388f180b01aedbbf8fad0b47b6b3fb74e1a3fb153b78d5624e9010000006b4830450221008dce230dd891e6c6b03d826c1e2f2292a9f83f6441e49ff3425c2bb91a251dc002204053c7f89618256bc77ee6e233f1a82417ede6c615327d6663b7831bc01e4e21012103ff2fb60467e5b64b0013e3409c97dca93808be064d2522806abaa737b71e73f6feffffff02ac12d809000000001976a91432f2829760916261d3715e145f73a502f721e0e988ac3f81aa1d0b0000001976a91408045feffc996efae8b0b8795a48641968ae686e88ac25bf1400"
    }, 
    {
      "txid": "bc6fbfb817dde728c0f02035758c4faf69d641353ad0404cc78ea731cbe0088b",
      "hash": "bc6fbfb817dde728c0f02035758c4faf69d641353ad0404cc78ea731cbe0088b",
      "version": 1,
      "size": 226,
      "vsize": 226,
      "locktime": 0,
      "vin": [
        {
          "txid": "971ee3e8aa808a5039557cc6f2316f20ccf7b4604b5eff0f7a42db63d8f4d368",
          "vout": 1,
          "scriptSig": {
            "asm": "3045022100b0bee02ccd87b0eff7b2f1aa127ef030c017161999869b9a068795e82b7f82af0220074f8422ed0bccba9cf034b40a7190cd49bf2f5a83ff506b9d1354f63bd8717f[ALL] 03a3cdc0d02794cf7a19f44d86ea31756ff65972bc287e0fbdfefd3a392c52f705",
            "hex": "483045022100b0bee02ccd87b0eff7b2f1aa127ef030c017161999869b9a068795e82b7f82af0220074f8422ed0bccba9cf034b40a7190cd49bf2f5a83ff506b9d1354f63bd8717f012103a3cdc0d02794cf7a19f44d86ea31756ff65972bc287e0fbdfefd3a392c52f705"
          },
          "sequence": 4294967295
        }
      ],
      "vout": [
        {
          "value": 84.67358258,
          "n": 0,
          "scriptPubKey": {
            "asm": "OP_DUP OP_HASH160 9fad0cc1e1c083447bade19642e51fd3e073d17f OP_EQUALVERIFY OP_CHECKSIG",
            "hex": "76a9149fad0cc1e1c083447bade19642e51fd3e073d17f88ac",
            "reqSigs": 1,
            "type": "pubkeyhash",
            "addresses": [
              "LZnF1Rja6Gv5BuabnGL8BmZLU25nex2hh2"
            ]
          }
        }, 
        {
          "value": 1.49000000,
          "n": 1,
          "scriptPubKey": {
            "asm": "OP_DUP OP_HASH160 b1127406bf1a7221eb3ab03c0e78b9fb44172b97 OP_EQUALVERIFY OP_CHECKSIG",
            "hex": "76a914b1127406bf1a7221eb3ab03c0e78b9fb44172b9788ac",
            "reqSigs": 1,
            "type": "pubkeyhash",
            "addresses": [
              "LbNDyKVuDz1XQmznq6FfYNrtAgSjnS1Ugo"
            ]
          }
        }
      ],
      "hex": "010000000168d3f4d863db427a0fff5e4b60b4f7cc206f31f2c67c5539508a80aae8e31e97010000006b483045022100b0bee02ccd87b0eff7b2f1aa127ef030c017161999869b9a068795e82b7f82af0220074f8422ed0bccba9cf034b40a7190cd49bf2f5a83ff506b9d1354f63bd8717f012103a3cdc0d02794cf7a19f44d86ea31756ff65972bc287e0fbdfefd3a392c52f705ffffffff0232a2b1f8010000001976a9149fad0cc1e1c083447bade19642e51fd3e073d17f88ac408fe108000000001976a914b1127406bf1a7221eb3ab03c0e78b9fb44172b9788ac00000000"
    }, 
    {
      "txid": "9fa7cfc46b7bfce31def299d1675f3cdb70f989314453f968039819fb9f0558f",
      "hash": "9fa7cfc46b7bfce31def299d1675f3cdb70f989314453f968039819fb9f0558f",
      "version": 1,
      "size": 226,
      "vsize": 226,
      "locktime": 0,
      "vin": [
        {
          "txid": "39a690210027bf1bdbf3746ad9be59f2fafe321c3809bb052423cacbc5a7df84",
          "vout": 1,
          "scriptSig": {
            "asm": "30450221009577ddd119e53d61cc07f62e8882f1f914364096de7ec88edcf72c38f872dc33022055fedb41489612c667c5ac69047d77ad984e0f134581263a7f935e01478fb5aa[ALL] 039569b10944b598c064f29b3edf8da1b59c3d80300ce74bac58c78a01d38a47a1",
            "hex": "4830450221009577ddd119e53d61cc07f62e8882f1f914364096de7ec88edcf72c38f872dc33022055fedb41489612c667c5ac69047d77ad984e0f134581263a7f935e01478fb5aa0121039569b10944b598c064f29b3edf8da1b59c3d80300ce74bac58c78a01d38a47a1"
          },
          "sequence": 4294967295
        }
      ],
      "vout": [
        {
          "value": 0.00064617,
          "n": 0,
          "scriptPubKey": {
            "asm": "OP_DUP OP_HASH160 bd85e0eb3e413f300404cfb778b79ae9297acd29 OP_EQUALVERIFY OP_CHECKSIG",
            "hex": "76a914bd85e0eb3e413f300404cfb778b79ae9297acd2988ac",
            "reqSigs": 1,
            "type": "pubkeyhash",
            "addresses": [
              "LcW4MWuZ2M48n5VAMpULSNwYNapxQmv82w"
            ]
          }
        }, 
        {
          "value": 0.17562350,
          "n": 1,
          "scriptPubKey": {
            "asm": "OP_DUP OP_HASH160 bb6506ac8af68dba9fd20799f0d954ac600256f3 OP_EQUALVERIFY OP_CHECKSIG",
            "hex": "76a914bb6506ac8af68dba9fd20799f0d954ac600256f388ac",
            "reqSigs": 1,
            "type": "pubkeyhash",
            "addresses": [
              "LcJoeVwKs83uwiS8vivvSsRmTB1ntGbJBQ"
            ]
          }
        }
      ],
      "hex": "010000000184dfa7c5cbca232405bb09381c32fefaf259bed96a74f3db1bbf27002190a639010000006b4830450221009577ddd119e53d61cc07f62e8882f1f914364096de7ec88edcf72c38f872dc33022055fedb41489612c667c5ac69047d77ad984e0f134581263a7f935e01478fb5aa0121039569b10944b598c064f29b3edf8da1b59c3d80300ce74bac58c78a01d38a47a1ffffffff0269fc0000000000001976a914bd85e0eb3e413f300404cfb778b79ae9297acd2988aceefa0b01000000001976a914bb6506ac8af68dba9fd20799f0d954ac600256f388ac00000000"
    }
  ],
  "time": 1517313618,
  "mediantime": 1517312788,
  "nonce": 1849941816,
  "bits": "1a042eae",
  "difficulty": 4011378.762614286,
  "chainwork": "0000000000000000000000000000000000000000000000343524cc162ff10750",
  "previousblockhash": "13d9dbfd93276e0d8660b3e054e25f8c78c7f1e40612a8886d03f47b1775c9b2",
  "nextblockhash": "e7b68c2a73e21fc2090ef1a40cde9b0d16e63fe163b4a05263f7b375d6c9e5aa"
}
