{
  "hash": "7a3fc13a6aca39b9e1757d20fc10d15902e53034ee6e3138663cdd22c1de2639",
  "confirmations": 3151,
  "strippedsize": 4593,
  "size": 4883,
  "weight": 18662,
  "height": 1357844,
  "version": 536870912,
  "versionHex": "20000000",
  "merkleroot": "e0785374559de1cb2e7f84fc06825e5349c2ab0439acefcf50cd2a593c136736",
  "tx": [
    {
      "txid": "09334af753438031693795184a681a232834dacf540acc5598bcfb405873057a",
      "hash": "bfcfe865c152e67133a886bf69de29c97768578090f7839c3141c7e16d30ae32",
      "version": 1,
      "size": 257,
      "vsize": 230,
      "locktime": 0,
      "vin": [
        {
          "coinbase": "0314b814162f5669614254432f4d696e656420627920746f6d612f2cfabe6d6d66ec8e552a554e573bf0a02778d2827e3ab97dfd4e65e8e3ecc13fbc7315dcf0010000000000000010595ccf0042362f412d4d2b0304000000",
          "sequence": 4294967295
        }
      ],
      "vout": [
        {
          "value": 25.00395658,
          "n": 0,
          "scriptPubKey": {
            "asm": "OP_DUP OP_HASH160 e16c28146ed4869c190b3f0bdc18d80d45f92134 OP_EQUALVERIFY OP_CHECKSIG",
            "hex": "76a914e16c28146ed4869c190b3f0bdc18d80d45f9213488ac",
            "reqSigs": 1,
            "type": "pubkeyhash",
            "addresses": [
              "LfmssDyX6iZvbVqHv6t9P6JWXia2JG7mdb"
            ]
          }
        }, 
        {
          "value": 0.00000000,
          "n": 1,
          "scriptPubKey": {
            "asm": "OP_RETURN aa21a9edd4e75a3eed8a7574789a350f3f2cf07e7a5765e58a8be15c1a24b9812334aed2",
            "hex": "6a24aa21a9edd4e75a3eed8a7574789a350f3f2cf07e7a5765e58a8be15c1a24b9812334aed2",
            "type": "nulldata"
          }
        }
      ],
      "hex": "010000000001010000000000000000000000000000000000000000000000000000000000000000ffffffff590314b814162f5669614254432f4d696e656420627920746f6d612f2cfabe6d6d66ec8e552a554e573bf0a02778d2827e3ab97dfd4e65e8e3ecc13fbc7315dcf0010000000000000010595ccf0042362f412d4d2b0304000000ffffffff028a020995000000001976a914e16c28146ed4869c190b3f0bdc18d80d45f9213488ac0000000000000000266a24aa21a9edd4e75a3eed8a7574789a350f3f2cf07e7a5765e58a8be15c1a24b9812334aed20120000000000000000000000000000000000000000000000000000000000000000000000000"
    }, 
    {
      "txid": "a5ba64d03159889ce735c9141fe739aa2f4e2bff645f5aa40f8298ec94b4449e",
      "hash": "a5ba64d03159889ce735c9141fe739aa2f4e2bff645f5aa40f8298ec94b4449e",
      "version": 1,
      "size": 226,
      "vsize": 226,
      "locktime": 0,
      "vin": [
        {
          "txid": "84fb43cea2811dde277eabb3feb8f103100615ef5b608cb1d6a2ef1f5ef43635",
          "vout": 1,
          "scriptSig": {
            "asm": "3045022100ff9a00e44c88178826c00e81250fdf4b068dbf49cd377962a43be0b7b340baaa02203277094bf626cfaa30d97395ea09efd67c9cd3c2d2e2381836aac46bc25de6df[ALL] 0227883fddc1f78f9c51d8cabe09e5323317c509624c38b8c6cb2ab17721985cf1",
            "hex": "483045022100ff9a00e44c88178826c00e81250fdf4b068dbf49cd377962a43be0b7b340baaa02203277094bf626cfaa30d97395ea09efd67c9cd3c2d2e2381836aac46bc25de6df01210227883fddc1f78f9c51d8cabe09e5323317c509624c38b8c6cb2ab17721985cf1"
          },
          "sequence": 4294967294
        }
      ],
      "vout": [
        {
          "value": 0.01000000,
          "n": 0,
          "scriptPubKey": {
            "asm": "OP_DUP OP_HASH160 1609f2e4af20940b67db995e1f0d6dbdb87dd39d OP_EQUALVERIFY OP_CHECKSIG",
            "hex": "76a9141609f2e4af20940b67db995e1f0d6dbdb87dd39d88ac",
            "reqSigs": 1,
            "type": "pubkeyhash",
            "addresses": [
              "LMEV3gsDuLXCB6bLhAsNsagkJs9L8oJqUW"
            ]
          }
        }, 
        {
          "value": 114.96772300,
          "n": 1,
          "scriptPubKey": {
            "asm": "OP_DUP OP_HASH160 83483e628506e345867143546998a3320f34c1ec OP_EQUALVERIFY OP_CHECKSIG",
            "hex": "76a91483483e628506e345867143546998a3320f34c1ec88ac",
            "reqSigs": 1,
            "type": "pubkeyhash",
            "addresses": [
              "LXC7KvTKUqFpQKqWryVAbscttXJjK3nKmh"
            ]
          }
        }
      ],
      "hex": "01000000013536f45e1fefa2d6b18c605bef15061003f1b8feb3ab7e27de1d81a2ce43fb84010000006b483045022100ff9a00e44c88178826c00e81250fdf4b068dbf49cd377962a43be0b7b340baaa02203277094bf626cfaa30d97395ea09efd67c9cd3c2d2e2381836aac46bc25de6df01210227883fddc1f78f9c51d8cabe09e5323317c509624c38b8c6cb2ab17721985cf1feffffff0240420f00000000001976a9141609f2e4af20940b67db995e1f0d6dbdb87dd39d88acccd242ad020000001976a91483483e628506e345867143546998a3320f34c1ec88ac00000000"
    }, 
    {
      "txid": "3d44e03bb7def6af50f271816ebdd1780bdbe44d99559b3c51651613559a36d6",
      "hash": "3d44e03bb7def6af50f271816ebdd1780bdbe44d99559b3c51651613559a36d6",
      "version": 2,
      "size": 225,
      "vsize": 225,
      "locktime": 0,
      "vin": [
        {
          "txid": "8343889cd9a7b0b40f8c551ae181ce3af4f8a9d41a3eeb33b813e35b8ad3647d",
          "vout": 2,
          "scriptSig": {
            "asm": "304402205c5956c7242511ecb530cc2462afc8320ce1cca2233fd3cb9e270bed5bae69fe02204a35adc3f2edb3e75152699f3f19da34c9ec0bdd6639fd372c7db04761bae3a2[ALL] 03367b8632f260f489b44a0a8d830a734fb56cc8a8869acdf85e58b3a714fd92f1",
            "hex": "47304402205c5956c7242511ecb530cc2462afc8320ce1cca2233fd3cb9e270bed5bae69fe02204a35adc3f2edb3e75152699f3f19da34c9ec0bdd6639fd372c7db04761bae3a2012103367b8632f260f489b44a0a8d830a734fb56cc8a8869acdf85e58b3a714fd92f1"
          },
          "sequence": 4294967295
        }
      ],
      "vout": [
        {
          "value": 0.49161865,
          "n": 0,
          "scriptPubKey": {
            "asm": "OP_DUP OP_HASH160 b08769295a6f069588f122333e28165664aeea3e OP_EQUALVERIFY OP_CHECKSIG",
            "hex": "76a914b08769295a6f069588f122333e28165664aeea3e88ac",
            "reqSigs": 1,
            "type": "pubkeyhash",
            "addresses": [
              "LbKMQUtP39kWjjTELatsxVwu3zH288CV1i"
            ]
          }
        }, 
        {
          "value": 0.50435591,
          "n": 1,
          "scriptPubKey": {
            "asm": "OP_DUP OP_HASH160 2f9ceabcbdc9a00f9692860a6e48829e3f6e9aff OP_EQUALVERIFY OP_CHECKSIG",
            "hex": "76a9142f9ceabcbdc9a00f9692860a6e48829e3f6e9aff88ac",
            "reqSigs": 1,
            "type": "pubkeyhash",
            "addresses": [
              "LPZi11VgmHS8wHcNgH8mw92EQqKaftcHbL"
            ]
          }
        }
      ],
      "hex": "02000000017d64d38a5be313b833eb3e1ad4a9f8f43ace81e11a558c0fb4b0a7d99c884383020000006a47304402205c5956c7242511ecb530cc2462afc8320ce1cca2233fd3cb9e270bed5bae69fe02204a35adc3f2edb3e75152699f3f19da34c9ec0bdd6639fd372c7db04761bae3a2012103367b8632f260f489b44a0a8d830a734fb56cc8a8869acdf85e58b3a714fd92f1ffffffff028926ee02000000001976a914b08769295a6f069588f122333e28165664aeea3e88ac07960103000000001976a9142f9ceabcbdc9a00f9692860a6e48829e3f6e9aff88ac00000000"
    }, 
    {
      "txid": "d3cee2b1c8b45ef8d70407e4a040ebf0af0f869d4d0be53373712ae800776568",
      "hash": "d3cee2b1c8b45ef8d70407e4a040ebf0af0f869d4d0be53373712ae800776568",
      "version": 2,
      "size": 226,
      "vsize": 226,
      "locktime": 1357842,
      "vin": [
        {
          "txid": "0ab384e9ef2916413e45b56ae4bf4b1055c63f2de4e991c98d8aa6d4adafe7b1",
          "vout": 9,
          "scriptSig": {
            "asm": "3045022100efceb69c38ebb9576d0a60341aae0a6f65e8066623dea4fcbb3bced7ac29d56b022002e15ee5093379c0d36c32566128dfd416f2bd0fa9631915e763f2fe65940abc[ALL] 0201239b8bd9df4b1544fca8d81b595c278060c5fbea6364c3ca9e5d8a6e1471b2",
            "hex": "483045022100efceb69c38ebb9576d0a60341aae0a6f65e8066623dea4fcbb3bced7ac29d56b022002e15ee5093379c0d36c32566128dfd416f2bd0fa9631915e763f2fe65940abc01210201239b8bd9df4b1544fca8d81b595c278060c5fbea6364c3ca9e5d8a6e1471b2"
          },
          "sequence": 4294967294
        }
      ],
      "vout": [
        {
          "value": 25.92424472,
          "n": 0,
          "scriptPubKey": {
            "asm": "OP_DUP OP_HASH160 4fd1168525ca5e91c5771dc42a8e9c9b36e141f9 OP_EQUALVERIFY OP_CHECKSIG",
            "hex": "76a9144fd1168525ca5e91c5771dc42a8e9c9b36e141f988ac",
            "reqSigs": 1,
            "type": "pubkeyhash",
            "addresses": [
              "LSVz847G6qmCD9JLqQduwdQw4vWGbxshiC"
            ]
          }
        }, 
        {
          "value": 2.49960000,
          "n": 1,
          "scriptPubKey": {
            "asm": "OP_DUP OP_HASH160 4df7cf394c26e53217adf0f40740225382d935ff OP_EQUALVERIFY OP_CHECKSIG",
            "hex": "76a9144df7cf394c26e53217adf0f40740225382d935ff88ac",
            "reqSigs": 1,
            "type": "pubkeyhash",
            "addresses": [
              "LSLDA636wGJVxnngBJwDeHh6iWipFe2uPj"
            ]
          }
        }
      ],
      "hex": "0200000001b1e7afadd4a68a8dc991e9e42d3fc655104bbfe46ab5453e411629efe984b30a090000006b483045022100efceb69c38ebb9576d0a60341aae0a6f65e8066623dea4fcbb3bced7ac29d56b022002e15ee5093379c0d36c32566128dfd416f2bd0fa9631915e763f2fe65940abc01210201239b8bd9df4b1544fca8d81b595c278060c5fbea6364c3ca9e5d8a6e1471b2feffffff021842859a000000001976a9144fd1168525ca5e91c5771dc42a8e9c9b36e141f988ac4016e60e000000001976a9144df7cf394c26e53217adf0f40740225382d935ff88ac12b81400"
    }, 
    {
      "txid": "edb2eca27014c68cbc4934386152239bccf775b109782dbb97314f5cc841e097",
      "hash": "52589033772bddf73bee486b3193d720462df4b33a38ad0012501c40871fbcb8",
      "version": 1,
      "size": 404,
      "vsize": 214,
      "locktime": 0,
      "vin": [
        {
          "txid": "8270a58f454d74f66052d63ade77514f9adcb15ae4919a9529439a5d9395a8ec",
          "vout": 0,
          "scriptSig": {
            "asm": "0020bcf9f822194145acea0f3235f4107b5bf1a91b6b9f8489f63bf79ec29b360913",
            "hex": "220020bcf9f822194145acea0f3235f4107b5bf1a91b6b9f8489f63bf79ec29b360913"
          },
          "txinwitness": [
            "", 
            "304402202c04c03fa4b7e6912992348b01e8f1b52529751659188256af910745b390d73902207008fde29a142a1d69e4515104f3cbe7f3b45bbb7b6a63f2a2029fcd7dc6506c01", 
            "304402207901bc5a52fac93cd40151ccf07b0ab3a9a8dce5c4d7f27956791600f59fd05502206474460d09db56a4b150b8fa4c5ed3c96adef43949a4e5212fe8a4e34e074cba01", 
            "5221026c8f72b9e63db63907115e65d4da86eaae595b22fdc85ec75301bb4adbf203582103806535be3e3920e5eedee92de5714188fd6a784f2bf7b04f87de0b9c3ae1ecdb21024b23bfdce2afcae7e28c42f7f79aa100f22931712c52d7414a526ba494d44a2553ae"
          ],
          "sequence": 4294967295
        }
      ],
      "vout": [
        {
          "value": 11.21869410,
          "n": 0,
          "scriptPubKey": {
            "asm": "OP_HASH160 30897cc6c9d69f6a2c2f1c651d51f22219f1a4f6 OP_EQUAL",
            "hex": "a91430897cc6c9d69f6a2c2f1c651d51f22219f1a4f687",
            "reqSigs": 1,
            "type": "scripthash",
            "addresses": [
              "MCKoNRvwxc3gPLTk3UTCpaxRuiHURQD1E9"
            ]
          }
        }, 
        {
          "value": 6.00000000,
          "n": 1,
          "scriptPubKey": {
            "asm": "OP_HASH160 a1267d836f61b525d843739dccdb1062b2ad711e OP_EQUAL",
            "hex": "a914a1267d836f61b525d843739dccdb1062b2ad711e87",
            "reqSigs": 1,
            "type": "scripthash",
            "addresses": [
              "MNbF8fdh8QH6h3cZsw1qf53frYXUkZqtVz"
            ]
          }
        }
      ],
      "hex": "01000000000101eca895935d9a4329959a91e45ab1dc9a4f5177de3ad65260f6744d458fa570820000000023220020bcf9f822194145acea0f3235f4107b5bf1a91b6b9f8489f63bf79ec29b360913ffffffff02625ede420000000017a91430897cc6c9d69f6a2c2f1c651d51f22219f1a4f6870046c3230000000017a914a1267d836f61b525d843739dccdb1062b2ad711e87040047304402202c04c03fa4b7e6912992348b01e8f1b52529751659188256af910745b390d73902207008fde29a142a1d69e4515104f3cbe7f3b45bbb7b6a63f2a2029fcd7dc6506c0147304402207901bc5a52fac93cd40151ccf07b0ab3a9a8dce5c4d7f27956791600f59fd05502206474460d09db56a4b150b8fa4c5ed3c96adef43949a4e5212fe8a4e34e074cba01695221026c8f72b9e63db63907115e65d4da86eaae595b22fdc85ec75301bb4adbf203582103806535be3e3920e5eedee92de5714188fd6a784f2bf7b04f87de0b9c3ae1ecdb21024b23bfdce2afcae7e28c42f7f79aa100f22931712c52d7414a526ba494d44a2553ae00000000"
    }, 
    {
      "txid": "1fbbc5146f3bae591178f27706cf3e43b8daae3cae2ed423dea5679e0c313c16",
      "hash": "1fbbc5146f3bae591178f27706cf3e43b8daae3cae2ed423dea5679e0c313c16",
      "version": 1,
      "size": 225,
      "vsize": 225,
      "locktime": 0,
      "vin": [
        {
          "txid": "5944d47e30c8becbfd30610304c7fe3ac93912a4c1b130abc2aadae4009c4975",
          "vout": 0,
          "scriptSig": {
            "asm": "304402200655dff5f8a055852fe6bc2a417393fd90f8be2daf7df0e8b19f32824a38f04d0220418b2d6be81ac293e694580ff94ed2c2c3b9d300a38f343eef7b1fe5ec52f80c[ALL] 0261276835f500cc5cba6aae13a825114bb4a66a7b0d58ffac677ad7d9a23a5674",
            "hex": "47304402200655dff5f8a055852fe6bc2a417393fd90f8be2daf7df0e8b19f32824a38f04d0220418b2d6be81ac293e694580ff94ed2c2c3b9d300a38f343eef7b1fe5ec52f80c01210261276835f500cc5cba6aae13a825114bb4a66a7b0d58ffac677ad7d9a23a5674"
          },
          "sequence": 4294967295
        }
      ],
      "vout": [
        {
          "value": 0.28789400,
          "n": 0,
          "scriptPubKey": {
            "asm": "OP_DUP OP_HASH160 f4fa4931fff5ae0e7b414fe0c3c3877d00a16c48 OP_EQUALVERIFY OP_CHECKSIG",
            "hex": "76a914f4fa4931fff5ae0e7b414fe0c3c3877d00a16c4888ac",
            "reqSigs": 1,
            "type": "pubkeyhash",
            "addresses": [
              "LhZGyByzGbPcpEPN6SD5HncC1xuFWbHere"
            ]
          }
        }, 
        {
          "value": 0.16451850,
          "n": 1,
          "scriptPubKey": {
            "asm": "OP_DUP OP_HASH160 09b063b6e3dc57919ca6550eddece414c5a5d5fd OP_EQUALVERIFY OP_CHECKSIG",
            "hex": "76a91409b063b6e3dc57919ca6550eddece414c5a5d5fd88ac",
            "reqSigs": 1,
            "type": "pubkeyhash",
            "addresses": [
              "LL7BehQWVLhvqc3YGQPPvG4RFcAm2g79Ki"
            ]
          }
        }
      ],
      "hex": "010000000175499c00e4daaac2ab30b1c1a41239c93afec704036130fdcbbec8307ed44459000000006a47304402200655dff5f8a055852fe6bc2a417393fd90f8be2daf7df0e8b19f32824a38f04d0220418b2d6be81ac293e694580ff94ed2c2c3b9d300a38f343eef7b1fe5ec52f80c01210261276835f500cc5cba6aae13a825114bb4a66a7b0d58ffac677ad7d9a23a5674ffffffff02984ab701000000001976a914f4fa4931fff5ae0e7b414fe0c3c3877d00a16c4888ac0a09fb00000000001976a91409b063b6e3dc57919ca6550eddece414c5a5d5fd88ac00000000"
    }, 
    {
      "txid": "8e0d5d4a84f623460e9f0000d01adb65a389550b3d0512381b96bf207e4250a3",
      "hash": "8e0d5d4a84f623460e9f0000d01adb65a389550b3d0512381b96bf207e4250a3",
      "version": 2,
      "size": 226,
      "vsize": 226,
      "locktime": 1357843,
      "vin": [
        {
          "txid": "5958a792217a564288ec2ecf70ed1b8495ad4f40a473ec9a0a2f4fc106ad34cd",
          "vout": 0,
          "scriptSig": {
            "asm": "3045022100983a526f5857d3e01858c93ebf28291a139bd3acb69e006fd47d8c8acf60ba970220550bc378a13670c6312646c95829699cec8d21a47873dafb5aeb0fbac155e79c[ALL] 03dce295e5430b682752e7d7294e091bca7238528b9553312131271efe8c732cdf",
            "hex": "483045022100983a526f5857d3e01858c93ebf28291a139bd3acb69e006fd47d8c8acf60ba970220550bc378a13670c6312646c95829699cec8d21a47873dafb5aeb0fbac155e79c012103dce295e5430b682752e7d7294e091bca7238528b9553312131271efe8c732cdf"
          },
          "sequence": 4294967294
        }
      ],
      "vout": [
        {
          "value": 3.36983004,
          "n": 0,
          "scriptPubKey": {
            "asm": "OP_DUP OP_HASH160 5380a18aee3d0bb2e732cd226cd1a167b1c382ce OP_EQUALVERIFY OP_CHECKSIG",
            "hex": "76a9145380a18aee3d0bb2e732cd226cd1a167b1c382ce88ac",
            "reqSigs": 1,
            "type": "pubkeyhash",
            "addresses": [
              "LSqUSaKdRcSb6g1A5QhcgGTaMoUsK4LF8W"
            ]
          }
        }, 
        {
          "value": 249.56142337,
          "n": 1,
          "scriptPubKey": {
            "asm": "OP_DUP OP_HASH160 f65c879a142dcd1acf5baa606d6461b73e8f4b04 OP_EQUALVERIFY OP_CHECKSIG",
            "hex": "76a914f65c879a142dcd1acf5baa606d6461b73e8f4b0488ac",
            "reqSigs": 1,
            "type": "pubkeyhash",
            "addresses": [
              "LhgbLUkHV3aAfS2yEE6dsLeB67HecSyJ7Z"
            ]
          }
        }
      ],
      "hex": "0200000001cd34ad06c14f2f0a9aec73a4404fad95841bed70cf2eec8842567a2192a75859000000006b483045022100983a526f5857d3e01858c93ebf28291a139bd3acb69e006fd47d8c8acf60ba970220550bc378a13670c6312646c95829699cec8d21a47873dafb5aeb0fbac155e79c012103dce295e5430b682752e7d7294e091bca7238528b9553312131271efe8c732cdffeffffff02dcf31514000000001976a9145380a18aee3d0bb2e732cd226cd1a167b1c382ce88ac018380cf050000001976a914f65c879a142dcd1acf5baa606d6461b73e8f4b0488ac13b81400"
    }, 
    {
      "txid": "2d81ebc9504ec34196e3eef6e8706893e028eee37e1d36e6f28896c07dd0afb6",
      "hash": "2d81ebc9504ec34196e3eef6e8706893e028eee37e1d36e6f28896c07dd0afb6",
      "version": 1,
      "size": 226,
      "vsize": 226,
      "locktime": 0,
      "vin": [
        {
          "txid": "14f9682b4e0e4d845082b9aef3a9000739eb89e441713ce25ea578ba7287963f",
          "vout": 0,
          "scriptSig": {
            "asm": "3045022100d570819dedff949847a1952f72cf9a375f452b8ccc214dcd2266eab21c73ae780220273f0c8990ef53a9a51f6d5f58ae45c703a240175a8f4249f892434fea6bb4fc[ALL] 02d4fd11a31d37258e124fe6407609c79a130ea787b6e8b99db8a4fb36e8aa6313",
            "hex": "483045022100d570819dedff949847a1952f72cf9a375f452b8ccc214dcd2266eab21c73ae780220273f0c8990ef53a9a51f6d5f58ae45c703a240175a8f4249f892434fea6bb4fc012102d4fd11a31d37258e124fe6407609c79a130ea787b6e8b99db8a4fb36e8aa6313"
          },
          "sequence": 4294967295
        }
      ],
      "vout": [
        {
          "value": 0.29686078,
          "n": 0,
          "scriptPubKey": {
            "asm": "OP_DUP OP_HASH160 d552e1370f39ad4845cae292487ff0d289abb012 OP_EQUALVERIFY OP_CHECKSIG",
            "hex": "76a914d552e1370f39ad4845cae292487ff0d289abb01288ac",
            "reqSigs": 1,
            "type": "pubkeyhash",
            "addresses": [
              "LefuUf9sc3iAbVySAyowxQqXsqifeQjpZd"
            ]
          }
        }, 
        {
          "value": 0.04811107,
          "n": 1,
          "scriptPubKey": {
            "asm": "OP_DUP OP_HASH160 fab342135dc59e5d0dce0e89a2bc580c892f9ae5 OP_EQUALVERIFY OP_CHECKSIG",
            "hex": "76a914fab342135dc59e5d0dce0e89a2bc580c892f9ae588ac",
            "reqSigs": 1,
            "type": "pubkeyhash",
            "addresses": [
              "Li5XwF1Q7DJxujP6ywbEsqmRAq8hNhpLP2"
            ]
          }
        }
      ],
      "hex": "01000000013f968772ba78a55ee23c7141e489eb390700a9f3aeb98250844d0e4e2b68f914000000006b483045022100d570819dedff949847a1952f72cf9a375f452b8ccc214dcd2266eab21c73ae780220273f0c8990ef53a9a51f6d5f58ae45c703a240175a8f4249f892434fea6bb4fc012102d4fd11a31d37258e124fe6407609c79a130ea787b6e8b99db8a4fb36e8aa6313ffffffff023ef9c401000000001976a914d552e1370f39ad4845cae292487ff0d289abb01288ac63694900000000001976a914fab342135dc59e5d0dce0e89a2bc580c892f9ae588ac00000000"
    }, 
    {
      "txid": "dfb15ca7ef8921a4bc3d84f0141df9f2321c82b6789a35a08f3743bacdf60bd0",
      "hash": "dfb15ca7ef8921a4bc3d84f0141df9f2321c82b6789a35a08f3743bacdf60bd0",
      "version": 2,
      "size": 226,
      "vsize": 226,
      "locktime": 1357843,
      "vin": [
        {
          "txid": "5e3a72a6b5532ab77c255f4cff4de086f017d6ac951401fd795c2a763a409aaf",
          "vout": 1,
          "scriptSig": {
            "asm": "3045022100dc196d82d5b67ae900b984d93fe1af48edf71f88f505c492b28c9cb614f0f8c402206da0677ba0373758fa5a62d79a3a674673fcf3c4cac3011d2fd299f739421f8c[ALL] 0271046f46d80868e5806f2f7282b6a64fb7ee23920d480d144494dd86e5c6908b",
            "hex": "483045022100dc196d82d5b67ae900b984d93fe1af48edf71f88f505c492b28c9cb614f0f8c402206da0677ba0373758fa5a62d79a3a674673fcf3c4cac3011d2fd299f739421f8c01210271046f46d80868e5806f2f7282b6a64fb7ee23920d480d144494dd86e5c6908b"
          },
          "sequence": 4294967294
        }
      ],
      "vout": [
        {
          "value": 1.50730626,
          "n": 0,
          "scriptPubKey": {
            "asm": "OP_DUP OP_HASH160 6d57562a3d523aae23ab96abbb9be1435269c707 OP_EQUALVERIFY OP_CHECKSIG",
            "hex": "76a9146d57562a3d523aae23ab96abbb9be1435269c70788ac",
            "reqSigs": 1,
            "type": "pubkeyhash",
            "addresses": [
              "LVC6YNgWmUATgGVMyAG13Dv1PNyJHcwbte"
            ]
          }
        }, 
        {
          "value": 2.39101374,
          "n": 1,
          "scriptPubKey": {
            "asm": "OP_DUP OP_HASH160 8140db97e758321773341b87767d0974b2d3d136 OP_EQUALVERIFY OP_CHECKSIG",
            "hex": "76a9148140db97e758321773341b87767d0974b2d3d13688ac",
            "reqSigs": 1,
            "type": "pubkeyhash",
            "addresses": [
              "LX1P8MfifLFdacHZmzJf4hSo1PqQ82svPR"
            ]
          }
        }
      ],
      "hex": "0200000001af9a403a762a5c79fd011495acd617f086e04dff4c5f257cb72a53b5a6723a5e010000006b483045022100dc196d82d5b67ae900b984d93fe1af48edf71f88f505c492b28c9cb614f0f8c402206da0677ba0373758fa5a62d79a3a674673fcf3c4cac3011d2fd299f739421f8c01210271046f46d80868e5806f2f7282b6a64fb7ee23920d480d144494dd86e5c6908bfeffffff0282f7fb08000000001976a9146d57562a3d523aae23ab96abbb9be1435269c70788acbe65400e000000001976a9148140db97e758321773341b87767d0974b2d3d13688ac13b81400"
    }, 
    {
      "txid": "6a94cfbd7400874267b0a92a1e5767859590e5e79eb4fd0c113de05497a01de4",
      "hash": "6a94cfbd7400874267b0a92a1e5767859590e5e79eb4fd0c113de05497a01de4",
      "version": 1,
      "size": 224,
      "vsize": 224,
      "locktime": 0,
      "vin": [
        {
          "txid": "606ae589f37e9fff67401d3bb5de0cd5e5ee33511404c26e3df7b5b7036a5422",
          "vout": 1,
          "scriptSig": {
            "asm": "3045022100b682a938e9c3f6c3a8b18e79c15b15bd9fdf3d501d81586791474b41962f1c320220705a8e219549a410689256bf6e09d7835ef8d28e197817450875779cbeff4a88[ALL] 03663b9258253ea3fe4aed60c8dfa691a515517e6014bc47742ba37f54898ee80f",
            "hex": "483045022100b682a938e9c3f6c3a8b18e79c15b15bd9fdf3d501d81586791474b41962f1c320220705a8e219549a410689256bf6e09d7835ef8d28e197817450875779cbeff4a88012103663b9258253ea3fe4aed60c8dfa691a515517e6014bc47742ba37f54898ee80f"
          },
          "sequence": 4294967295
        }
      ],
      "vout": [
        {
          "value": 1.50187268,
          "n": 0,
          "scriptPubKey": {
            "asm": "OP_HASH160 caf553cac8e8f796ca1a02704329123e46b87ddc OP_EQUAL",
            "hex": "a914caf553cac8e8f796ca1a02704329123e46b87ddc87",
            "reqSigs": 1,
            "type": "scripthash",
            "addresses": [
              "MSQJcpYKEx1L7QKo3VndJo8ojmBhVN3pPp"
            ]
          }
        }, 
        {
          "value": 82.35102161,
          "n": 1,
          "scriptPubKey": {
            "asm": "OP_DUP OP_HASH160 a509cddea8a50bbfaa901af5c5dd603d76d365fc OP_EQUALVERIFY OP_CHECKSIG",
            "hex": "76a914a509cddea8a50bbfaa901af5c5dd603d76d365fc88ac",
            "reqSigs": 1,
            "type": "pubkeyhash",
            "addresses": [
              "LaGbW569yZKb36WPWKdqdeVhU2PaJZxUCL"
            ]
          }
        }
      ],
      "hex": "010000000122546a03b7b5f73d6ec204145133eee5d50cdeb53b1d4067ff9f7ef389e56a60010000006b483045022100b682a938e9c3f6c3a8b18e79c15b15bd9fdf3d501d81586791474b41962f1c320220705a8e219549a410689256bf6e09d7835ef8d28e197817450875779cbeff4a88012103663b9258253ea3fe4aed60c8dfa691a515517e6014bc47742ba37f54898ee80fffffffff0204adf3080000000017a914caf553cac8e8f796ca1a02704329123e46b87ddc87d1afd9ea010000001976a914a509cddea8a50bbfaa901af5c5dd603d76d365fc88ac00000000"
    }, 
    {
      "txid": "6ad0aaec664e2398133db62cdaf280e0a6ae12c41a2ccab7a6ed085d68eef5eb",
      "hash": "6ad0aaec664e2398133db62cdaf280e0a6ae12c41a2ccab7a6ed085d68eef5eb",
      "version": 2,
      "size": 226,
      "vsize": 226,
      "locktime": 1357842,
      "vin": [
        {
          "txid": "22b0e7172e4ebf340db3ed03961a6c474984e2f08ce2dbb22952c15463fc453f",
          "vout": 1,
          "scriptSig": {
            "asm": "3045022100d0964390cc869f1f6cee336d35414e5f8386573c12c7ab58327b446072ad86c802202719d2d83c10cfbf774cc9a60b4cfec9c1e4a76623d3aad95195b45c0bc21661[ALL] 03ff082119d4baec1da1ee8fd9a79046a9c13bea4dffd0aa5f82f88b0c904aabe0",
            "hex": "483045022100d0964390cc869f1f6cee336d35414e5f8386573c12c7ab58327b446072ad86c802202719d2d83c10cfbf774cc9a60b4cfec9c1e4a76623d3aad95195b45c0bc21661012103ff082119d4baec1da1ee8fd9a79046a9c13bea4dffd0aa5f82f88b0c904aabe0"
          },
          "sequence": 4294967294
        }
      ],
      "vout": [
        {
          "value": 0.12000000,
          "n": 0,
          "scriptPubKey": {
            "asm": "OP_DUP OP_HASH160 bae55538e60e1cc924848d5586d96098a214e9e8 OP_EQUALVERIFY OP_CHECKSIG",
            "hex": "76a914bae55538e60e1cc924848d5586d96098a214e9e888ac",
            "reqSigs": 1,
            "type": "pubkeyhash",
            "addresses": [
              "LcGAgDsKoiyxjFdbJaoCt4uPp4axUsFKf5"
            ]
          }
        }, 
        {
          "value": 132.13146096,
          "n": 1,
          "scriptPubKey": {
            "asm": "OP_DUP OP_HASH160 062f165e362c4efcd0b6326d95550dadf171abe6 OP_EQUALVERIFY OP_CHECKSIG",
            "hex": "76a914062f165e362c4efcd0b6326d95550dadf171abe688ac",
            "reqSigs": 1,
            "type": "pubkeyhash",
            "addresses": [
              "LKnej3ykrdLt2JiiFUEshES8Mc6fPvKmqC"
            ]
          }
        }
      ],
      "hex": "02000000013f45fc6354c15229b2dbe28cf0e28449476c1a9603edb30d34bf4e2e17e7b022010000006b483045022100d0964390cc869f1f6cee336d35414e5f8386573c12c7ab58327b446072ad86c802202719d2d83c10cfbf774cc9a60b4cfec9c1e4a76623d3aad95195b45c0bc21661012103ff082119d4baec1da1ee8fd9a79046a9c13bea4dffd0aa5f82f88b0c904aabe0feffffff02001bb700000000001976a914bae55538e60e1cc924848d5586d96098a214e9e888acf09b9013030000001976a914062f165e362c4efcd0b6326d95550dadf171abe688ac12b81400"
    }, 
    {
      "txid": "efa0fe7447dd584cec787320e2eb7c7936d5b931efb71545229d264fe976d710",
      "hash": "efa0fe7447dd584cec787320e2eb7c7936d5b931efb71545229d264fe976d710",
      "version": 1,
      "size": 2111,
      "vsize": 2111,
      "locktime": 0,
      "vin": [
        {
          "txid": "bf02f9218d54e7db646ecbd590c2fbf84d981b697fada126c190111be287064a",
          "vout": 1,
          "scriptSig": {
            "asm": "304402206781b55e512c31acb052f3faca552e243dc5a27fbd4e2e14d54311f19de6bcaa022058939afc510c0b497343dca4a2ada0ed060798dfd12415c65cbf22f0632ae1b5[ALL] 039d07c418d4e5a3b3009436a3bc24ab8915b73798a94fea9320105210fc321c51",
            "hex": "47304402206781b55e512c31acb052f3faca552e243dc5a27fbd4e2e14d54311f19de6bcaa022058939afc510c0b497343dca4a2ada0ed060798dfd12415c65cbf22f0632ae1b50121039d07c418d4e5a3b3009436a3bc24ab8915b73798a94fea9320105210fc321c51"
          },
          "sequence": 4294967295
        }, 
        {
          "txid": "a999888d94a3f0a01f1cba8cbb5d6445bbcebc2f329172f44fb288bd3bf99061",
          "vout": 10,
          "scriptSig": {
            "asm": "3045022100ae2509489f304a358fde7d481e08001fd5066757eb3e258675b104e58930f76b02207fa41b7bdc86736971b1e34b56f78cb23c05b34e1960d77c8f6f3ca803067c14[ALL] 03692b519fd3e57a7504ba34ccba892b29390d3211a64f60162b3dc656154ef1ae",
            "hex": "483045022100ae2509489f304a358fde7d481e08001fd5066757eb3e258675b104e58930f76b02207fa41b7bdc86736971b1e34b56f78cb23c05b34e1960d77c8f6f3ca803067c14012103692b519fd3e57a7504ba34ccba892b29390d3211a64f60162b3dc656154ef1ae"
          },
          "sequence": 4294967295
        }, 
        {
          "txid": "b3c54568eb8617017387c913747d49f69364aa5e74b0b4c6f0b4bd6905a17f4f",
          "vout": 6,
          "scriptSig": {
            "asm": "3045022100838d372e995999a7de10487941d2917de555384f432c55e357cc24c136cab28b02206dc5ae28f6fa4adba0a6ee54e75cde60e7d25e15632c3965b23b0c4763d40e86[ALL] 032ce74ecd1ff134901de41fd698cadc3bc1a85e4b9aef560ce191689646ca246d",
            "hex": "483045022100838d372e995999a7de10487941d2917de555384f432c55e357cc24c136cab28b02206dc5ae28f6fa4adba0a6ee54e75cde60e7d25e15632c3965b23b0c4763d40e860121032ce74ecd1ff134901de41fd698cadc3bc1a85e4b9aef560ce191689646ca246d"
          },
          "sequence": 4294967295
        }, 
        {
          "txid": "adc4465abef8a1619850625bd02052cffe56ae71912e4d3a052d438afa64d2cd",
          "vout": 49,
          "scriptSig": {
            "asm": "3045022100a4cdf88c089039ec68b28d50cf5a8b8e4c34f8fa167d77e3b0ac82b71a45b38e0220356e46d00d13163283989ffab8ade7cbaf904e7788a52f516611ef1263dc85f1[ALL] 02e1f85f3a3f15d81f6b8ef7f1043ad5aad2ee642f6ce739ee60bbac1bc872984f",
            "hex": "483045022100a4cdf88c089039ec68b28d50cf5a8b8e4c34f8fa167d77e3b0ac82b71a45b38e0220356e46d00d13163283989ffab8ade7cbaf904e7788a52f516611ef1263dc85f1012102e1f85f3a3f15d81f6b8ef7f1043ad5aad2ee642f6ce739ee60bbac1bc872984f"
          },
          "sequence": 4294967295
        }, 
        {
          "txid": "9d4c46827dee596a72e2e4f559b80f6d7a6146825801032030442d435d2f0291",
          "vout": 38,
          "scriptSig": {
            "asm": "30440220321bfd41873897c4b6e5c9341ba80ceb33c5b06386d1f3bbbba0264d206208b202201a1f02a7d823e0c549b8a7d35de93a2c0f78e08f1fcdba879bb4a67e575f4507[ALL] 03a1d06ebabcf4c18c02df41d09b2c1582efabe8b114c689d62963dfcde9a781c2",
            "hex": "4730440220321bfd41873897c4b6e5c9341ba80ceb33c5b06386d1f3bbbba0264d206208b202201a1f02a7d823e0c549b8a7d35de93a2c0f78e08f1fcdba879bb4a67e575f4507012103a1d06ebabcf4c18c02df41d09b2c1582efabe8b114c689d62963dfcde9a781c2"
          },
          "sequence": 4294967295
        }, 
        {
          "txid": "b3c54568eb8617017387c913747d49f69364aa5e74b0b4c6f0b4bd6905a17f4f",
          "vout": 10,
          "scriptSig": {
            "asm": "3044022028a257cf8de78b18a99f41bec8c04a0f9ba40fa8d4d882f3bcbde9e5727307f102203d3d8c13332c4233fe627cc9c9271f9795cd8507098085962b62dadcca1a3282[ALL] 02236059dfa1760c73686826859a24de71354edb557c9a21d6346b9ac6ccd06531",
            "hex": "473044022028a257cf8de78b18a99f41bec8c04a0f9ba40fa8d4d882f3bcbde9e5727307f102203d3d8c13332c4233fe627cc9c9271f9795cd8507098085962b62dadcca1a3282012102236059dfa1760c73686826859a24de71354edb557c9a21d6346b9ac6ccd06531"
          },
          "sequence": 4294967295
        }, 
        {
          "txid": "bf94aa35383407364100ec01107a188f35d68d5d54b4c2745b25e47a7c0341a6",
          "vout": 1,
          "scriptSig": {
            "asm": "3045022100f35d7556a74cd680a215fa78661b5d7c89219c15f55a94caaba58fc642680e5a0220697029578ac7eab4fe86f71aa062127f7faa7150646fb8fbd20751fd866bdc3e[ALL] 029f3f171400bf8227f03be274628b100971725adbb734c6c23d7c9b24bdc00548",
            "hex": "483045022100f35d7556a74cd680a215fa78661b5d7c89219c15f55a94caaba58fc642680e5a0220697029578ac7eab4fe86f71aa062127f7faa7150646fb8fbd20751fd866bdc3e0121029f3f171400bf8227f03be274628b100971725adbb734c6c23d7c9b24bdc00548"
          },
          "sequence": 4294967295
        }, 
        {
          "txid": "c9f98c5960542a066fbd996424fe0a37db2bee411dbbdc67742139eb36582bf9",
          "vout": 0,
          "scriptSig": {
            "asm": "304402203bed022f837d0b3ba5e27416ca3de95d1d1ed8201a156596c054f5bc57b0cc380220793d4a57597bd25a1f920bccb1da60f503f2635549b3d94991960a99a4636fd6[ALL] 02e68b728aa16ae439b0c4f0a36ac7ffc61e45415d47d9859d74a1df0685f3772d",
            "hex": "47304402203bed022f837d0b3ba5e27416ca3de95d1d1ed8201a156596c054f5bc57b0cc380220793d4a57597bd25a1f920bccb1da60f503f2635549b3d94991960a99a4636fd6012102e68b728aa16ae439b0c4f0a36ac7ffc61e45415d47d9859d74a1df0685f3772d"
          },
          "sequence": 4294967295
        }, 
        {
          "txid": "8fa0c7419be163ac64d81bc8650f48325ccf71c149ace3fde69b6e6e52348725",
          "vout": 0,
          "scriptSig": {
            "asm": "3045022100b233e231f5b3f95ffe9d624552810dc730ad9fe866852ba6ffa5e9a50fbaf8d30220792ce57b2eabe92ffc23cf137abc94d3113f4b40ce9a0f34b8dfd18749c3b7c7[ALL] 03553af7f53eec0556d3f5eee6f2ecc2cbbb8d3c8cc4c8f01bba75b3f8bfa2842a",
            "hex": "483045022100b233e231f5b3f95ffe9d624552810dc730ad9fe866852ba6ffa5e9a50fbaf8d30220792ce57b2eabe92ffc23cf137abc94d3113f4b40ce9a0f34b8dfd18749c3b7c7012103553af7f53eec0556d3f5eee6f2ecc2cbbb8d3c8cc4c8f01bba75b3f8bfa2842a"
          },
          "sequence": 4294967295
        }, 
        {
          "txid": "ad7c560dd9fda9f623ef9b25d1558983ce2d4d9552e9294ce86d276433777a5c",
          "vout": 25,
          "scriptSig": {
            "asm": "3045022100880d85f294933fa0481fdad57589460445ff5ed57db69da0a785bc5e1bf3f57102202993fcbc2fc29afee927482eb30abcf3a537c69080a0b99357da38d2d8c47e73[ALL] 03602e195eecc3bd5740dc6ce1a677dab48d94b10156a070073e61d1ee5bbd0bb4",
            "hex": "483045022100880d85f294933fa0481fdad57589460445ff5ed57db69da0a785bc5e1bf3f57102202993fcbc2fc29afee927482eb30abcf3a537c69080a0b99357da38d2d8c47e73012103602e195eecc3bd5740dc6ce1a677dab48d94b10156a070073e61d1ee5bbd0bb4"
          },
          "sequence": 4294967295
        }, 
        {
          "txid": "989ff0a479ae78cfb374878dd9119473109403d4ee2880e8df8153e0c4bf61de",
          "vout": 0,
          "scriptSig": {
            "asm": "3045022100e6cf11209696c04233cb7fefc4f3f993fd35a958f953774547265ec0baa4a99702203fca258ae6806a32cf9d41870e6f3fc7cce5e30efe5790a7cc84ec6044b53e62[ALL] 029fd2bbc347a7614d7a79acf7e54102205072e8ad6e145fea492049bb4ddc3d38",
            "hex": "483045022100e6cf11209696c04233cb7fefc4f3f993fd35a958f953774547265ec0baa4a99702203fca258ae6806a32cf9d41870e6f3fc7cce5e30efe5790a7cc84ec6044b53e620121029fd2bbc347a7614d7a79acf7e54102205072e8ad6e145fea492049bb4ddc3d38"
          },
          "sequence": 4294967295
        }, 
        {
          "txid": "719f4d88c13da8e9861c9d3b26ac35fe08a30cfcfbfe4c8b693e5ce3bb1ba354",
          "vout": 1,
          "scriptSig": {
            "asm": "304402204effbd3e686410c64168aa0a56fe07a7f40bf29975435a0fa72845e41c147ac70220360f0523ad2fd48846bcd79512e69e2cfa91f83725227c369669e5d9ea8d5a06[ALL] 02ff35b4fe856c2503696c174ee026bbdb8b29fb4d2f07c604c63c19f09ec1ea31",
            "hex": "47304402204effbd3e686410c64168aa0a56fe07a7f40bf29975435a0fa72845e41c147ac70220360f0523ad2fd48846bcd79512e69e2cfa91f83725227c369669e5d9ea8d5a06012102ff35b4fe856c2503696c174ee026bbdb8b29fb4d2f07c604c63c19f09ec1ea31"
          },
          "sequence": 4294967295
        }, 
        {
          "txid": "adc4465abef8a1619850625bd02052cffe56ae71912e4d3a052d438afa64d2cd",
          "vout": 16,
          "scriptSig": {
            "asm": "3045022100ff070b7130deab67155d73542bc7729005295a43f48999e90193da219d7093bc022057a04daf495698176fe18da0a1c67f06e401e8bf4a67079896d32b83eecffbb6[ALL] 0290d684b3e8c3c8b8231468a5a611a9056aa2434305ea8f315a9e05ef0754abec",
            "hex": "483045022100ff070b7130deab67155d73542bc7729005295a43f48999e90193da219d7093bc022057a04daf495698176fe18da0a1c67f06e401e8bf4a67079896d32b83eecffbb601210290d684b3e8c3c8b8231468a5a611a9056aa2434305ea8f315a9e05ef0754abec"
          },
          "sequence": 4294967295
        }, 
        {
          "txid": "655a3846de9c740f8a2de83dc13688e135fab526cc14f785b71447c19840e46c",
          "vout": 1,
          "scriptSig": {
            "asm": "304502210096991cfeec38c27f44d8af90ddb5fa2ab816a9e2615b902eb241b991ec46332b022023e506906758efa6bb1618876119c6700d3ee1dd6fd82d486cc9017acae687e3[ALL] 030c7d114845dc55a8e1f292877eccc780905ba562ede33b4951bd2a58365d2291",
            "hex": "48304502210096991cfeec38c27f44d8af90ddb5fa2ab816a9e2615b902eb241b991ec46332b022023e506906758efa6bb1618876119c6700d3ee1dd6fd82d486cc9017acae687e30121030c7d114845dc55a8e1f292877eccc780905ba562ede33b4951bd2a58365d2291"
          },
          "sequence": 4294967295
        }
      ],
      "vout": [
        {
          "value": 24.81855582,
          "n": 0,
          "scriptPubKey": {
            "asm": "OP_DUP OP_HASH160 6c2614c7b45ef8dfa8dc83e6739ddbe201d05ab0 OP_EQUALVERIFY OP_CHECKSIG",
            "hex": "76a9146c2614c7b45ef8dfa8dc83e6739ddbe201d05ab088ac",
            "reqSigs": 1,
            "type": "pubkeyhash",
            "addresses": [
              "LV5nrreyVZJVvptA9PZSD4ViegKh7Qa8MA"
            ]
          }
        }
      ],
      "hex": "010000000e4a0687e21b1190c126a1ad7f691b984df8fbc290d5cb6e64dbe7548d21f902bf010000006a47304402206781b55e512c31acb052f3faca552e243dc5a27fbd4e2e14d54311f19de6bcaa022058939afc510c0b497343dca4a2ada0ed060798dfd12415c65cbf22f0632ae1b50121039d07c418d4e5a3b3009436a3bc24ab8915b73798a94fea9320105210fc321c51ffffffff6190f93bbd88b24ff47291322fbccebb45645dbb8cba1c1fa0f0a3948d8899a90a0000006b483045022100ae2509489f304a358fde7d481e08001fd5066757eb3e258675b104e58930f76b02207fa41b7bdc86736971b1e34b56f78cb23c05b34e1960d77c8f6f3ca803067c14012103692b519fd3e57a7504ba34ccba892b29390d3211a64f60162b3dc656154ef1aeffffffff4f7fa10569bdb4f0c6b4b0745eaa6493f6497d7413c98773011786eb6845c5b3060000006b483045022100838d372e995999a7de10487941d2917de555384f432c55e357cc24c136cab28b02206dc5ae28f6fa4adba0a6ee54e75cde60e7d25e15632c3965b23b0c4763d40e860121032ce74ecd1ff134901de41fd698cadc3bc1a85e4b9aef560ce191689646ca246dffffffffcdd264fa8a432d053a4d2e9171ae56fecf5220d05b62509861a1f8be5a46c4ad310000006b483045022100a4cdf88c089039ec68b28d50cf5a8b8e4c34f8fa167d77e3b0ac82b71a45b38e0220356e46d00d13163283989ffab8ade7cbaf904e7788a52f516611ef1263dc85f1012102e1f85f3a3f15d81f6b8ef7f1043ad5aad2ee642f6ce739ee60bbac1bc872984fffffffff91022f5d432d4430200301588246617a6d0fb859f5e4e2726a59ee7d82464c9d260000006a4730440220321bfd41873897c4b6e5c9341ba80ceb33c5b06386d1f3bbbba0264d206208b202201a1f02a7d823e0c549b8a7d35de93a2c0f78e08f1fcdba879bb4a67e575f4507012103a1d06ebabcf4c18c02df41d09b2c1582efabe8b114c689d62963dfcde9a781c2ffffffff4f7fa10569bdb4f0c6b4b0745eaa6493f6497d7413c98773011786eb6845c5b30a0000006a473044022028a257cf8de78b18a99f41bec8c04a0f9ba40fa8d4d882f3bcbde9e5727307f102203d3d8c13332c4233fe627cc9c9271f9795cd8507098085962b62dadcca1a3282012102236059dfa1760c73686826859a24de71354edb557c9a21d6346b9ac6ccd06531ffffffffa641037c7ae4255b74c2b4545d8dd6358f187a1001ec00413607343835aa94bf010000006b483045022100f35d7556a74cd680a215fa78661b5d7c89219c15f55a94caaba58fc642680e5a0220697029578ac7eab4fe86f71aa062127f7faa7150646fb8fbd20751fd866bdc3e0121029f3f171400bf8227f03be274628b100971725adbb734c6c23d7c9b24bdc00548fffffffff92b5836eb39217467dcbb1d41ee2bdb370afe246499bd6f062a5460598cf9c9000000006a47304402203bed022f837d0b3ba5e27416ca3de95d1d1ed8201a156596c054f5bc57b0cc380220793d4a57597bd25a1f920bccb1da60f503f2635549b3d94991960a99a4636fd6012102e68b728aa16ae439b0c4f0a36ac7ffc61e45415d47d9859d74a1df0685f3772dffffffff258734526e6e9be6fde3ac49c171cf5c32480f65c81bd864ac63e19b41c7a08f000000006b483045022100b233e231f5b3f95ffe9d624552810dc730ad9fe866852ba6ffa5e9a50fbaf8d30220792ce57b2eabe92ffc23cf137abc94d3113f4b40ce9a0f34b8dfd18749c3b7c7012103553af7f53eec0556d3f5eee6f2ecc2cbbb8d3c8cc4c8f01bba75b3f8bfa2842affffffff5c7a773364276de84c29e952954d2dce838955d1259bef23f6a9fdd90d567cad190000006b483045022100880d85f294933fa0481fdad57589460445ff5ed57db69da0a785bc5e1bf3f57102202993fcbc2fc29afee927482eb30abcf3a537c69080a0b99357da38d2d8c47e73012103602e195eecc3bd5740dc6ce1a677dab48d94b10156a070073e61d1ee5bbd0bb4ffffffffde61bfc4e05381dfe88028eed4039410739411d98d8774b3cf78ae79a4f09f98000000006b483045022100e6cf11209696c04233cb7fefc4f3f993fd35a958f953774547265ec0baa4a99702203fca258ae6806a32cf9d41870e6f3fc7cce5e30efe5790a7cc84ec6044b53e620121029fd2bbc347a7614d7a79acf7e54102205072e8ad6e145fea492049bb4ddc3d38ffffffff54a31bbbe35c3e698b4cfefbfc0ca308fe35ac263b9d1c86e9a83dc1884d9f71010000006a47304402204effbd3e686410c64168aa0a56fe07a7f40bf29975435a0fa72845e41c147ac70220360f0523ad2fd48846bcd79512e69e2cfa91f83725227c369669e5d9ea8d5a06012102ff35b4fe856c2503696c174ee026bbdb8b29fb4d2f07c604c63c19f09ec1ea31ffffffffcdd264fa8a432d053a4d2e9171ae56fecf5220d05b62509861a1f8be5a46c4ad100000006b483045022100ff070b7130deab67155d73542bc7729005295a43f48999e90193da219d7093bc022057a04daf495698176fe18da0a1c67f06e401e8bf4a67079896d32b83eecffbb601210290d684b3e8c3c8b8231468a5a611a9056aa2434305ea8f315a9e05ef0754abecffffffff6ce44098c14714b785f714cc26b5fa35e18836c13de82d8a0f749cde46385a65010000006b48304502210096991cfeec38c27f44d8af90ddb5fa2ab816a9e2615b902eb241b991ec46332b022023e506906758efa6bb1618876119c6700d3ee1dd6fd82d486cc9017acae687e30121030c7d114845dc55a8e1f292877eccc780905ba562ede33b4951bd2a58365d2291ffffffff015e1cee93000000001976a9146c2614c7b45ef8dfa8dc83e6739ddbe201d05ab088ac00000000"
    }
  ],
  "time": 1517056134,
  "mediantime": 1517055579,
  "nonce": 2412568644,
  "bits": "1a047f14",
  "difficulty": 3731199.183374282,
  "chainwork": "00000000000000000000000000000000000000000000003293d079d7ad8ab122",
  "previousblockhash": "18c2627133ff9ecc2a05b3683234a01a49dc4c1cbaa2700a4382ddf9db58603c",
  "nextblockhash": "7fd1643cd499d3e8bca2d73c557bd30e39d3a2f1f24eebe96da13c653aaa6ac4"
}
