{
  "hash": "7af202d1b794a42ba9666dffd87518b6d7e830fa1a268318c51a382b71005f37",
  "confirmations": 3159,
  "strippedsize": 972,
  "size": 1008,
  "weight": 3924,
  "height": 1357836,
  "version": 536870912,
  "versionHex": "20000000",
  "merkleroot": "8573f885f7acf03512647b12b570784616943ac1604fed71547307e372af8e16",
  "tx": [
    {
      "txid": "e3545af7c98ff46f4adadcfe6f6bc554024b550df447fe0aed5c7f09dca56214",
      "hash": "3569550f66315eac92df324ea239414e58ca0795422a331189896dd4999dfd2d",
      "version": 1,
      "size": 251,
      "vsize": 224,
      "locktime": 0,
      "vin": [
        {
          "coinbase": "030cb8140000000000fabe6d6d5d5d9e9ff4b017c156626e8ff239db4ada9116f17722008ba34a08bacf11d6bf010000000000000004416c6c5a04d38e072008b2d3ac7355557ddd0a42570a6657042f42572f",
          "sequence": 4294967295
        }
      ],
      "vout": [
        {
          "value": 25.00259900,
          "n": 0,
          "scriptPubKey": {
            "asm": "OP_DUP OP_HASH160 5373bc9425fd49e6bfe522d3dfc85432da2cc023 OP_EQUALVERIFY OP_CHECKSIG",
            "hex": "76a9145373bc9425fd49e6bfe522d3dfc85432da2cc02388ac",
            "reqSigs": 1,
            "type": "pubkeyhash",
            "addresses": [
              "LSqCzf5bPfkqGf94pJcfxWx5bZMPJE5XRf"
            ]
          }
        }, 
        {
          "value": 0.00000000,
          "n": 1,
          "scriptPubKey": {
            "asm": "OP_RETURN aa21a9ed38dbeadf65d1edd19d0ba983a3670f5bc5e4a7b2d64dde177024d44dd2cd738d",
            "hex": "6a24aa21a9ed38dbeadf65d1edd19d0ba983a3670f5bc5e4a7b2d64dde177024d44dd2cd738d",
            "type": "nulldata"
          }
        }
      ],
      "hex": "010000000001010000000000000000000000000000000000000000000000000000000000000000ffffffff53030cb8140000000000fabe6d6d5d5d9e9ff4b017c156626e8ff239db4ada9116f17722008ba34a08bacf11d6bf010000000000000004416c6c5a04d38e072008b2d3ac7355557ddd0a42570a6657042f42572fffffffff023cf00695000000001976a9145373bc9425fd49e6bfe522d3dfc85432da2cc02388ac0000000000000000266a24aa21a9ed38dbeadf65d1edd19d0ba983a3670f5bc5e4a7b2d64dde177024d44dd2cd738d0120000000000000000000000000000000000000000000000000000000000000000000000000"
    }, 
    {
      "txid": "477f333fb098ab8b133f18453824407af798f6a102dc1b72bc7780ca609b92ab",
      "hash": "477f333fb098ab8b133f18453824407af798f6a102dc1b72bc7780ca609b92ab",
      "version": 1,
      "size": 225,
      "vsize": 225,
      "locktime": 0,
      "vin": [
        {
          "txid": "250d699ddca4a2f14b500269cede05e93ec9777a91ea418a88852b094bcd166d",
          "vout": 1,
          "scriptSig": {
            "asm": "304402202e0dd02da2d63810ef192b1cd54ba3c35d265cebba6d2eb696597077a473f09802203806808c156e8150e039d8d929219cc57b7b483bbed3d23ec3863a47540fa0f7[ALL] 02e715d98c7843e4c70e3afda138c0a547cc546a7698f6b30b70ce5594dd97f201",
            "hex": "47304402202e0dd02da2d63810ef192b1cd54ba3c35d265cebba6d2eb696597077a473f09802203806808c156e8150e039d8d929219cc57b7b483bbed3d23ec3863a47540fa0f7012102e715d98c7843e4c70e3afda138c0a547cc546a7698f6b30b70ce5594dd97f201"
          },
          "sequence": 4294967295
        }
      ],
      "vout": [
        {
          "value": 0.30000000,
          "n": 0,
          "scriptPubKey": {
            "asm": "OP_DUP OP_HASH160 ff5f484a529e5f2d682374d3ed165aacd5fc2ff8 OP_EQUALVERIFY OP_CHECKSIG",
            "hex": "76a914ff5f484a529e5f2d682374d3ed165aacd5fc2ff888ac",
            "reqSigs": 1,
            "type": "pubkeyhash",
            "addresses": [
              "LiWEiTyU3LQPQRwgrPj49FnM9KphHXwFnY"
            ]
          }
        }, 
        {
          "value": 0.53570600,
          "n": 1,
          "scriptPubKey": {
            "asm": "OP_DUP OP_HASH160 a303a93cc5247aa507cd78a2f1405f8cd419974f OP_EQUALVERIFY OP_CHECKSIG",
            "hex": "76a914a303a93cc5247aa507cd78a2f1405f8cd419974f88ac",
            "reqSigs": 1,
            "type": "pubkeyhash",
            "addresses": [
              "La5tnriH6G7p1bF5HgJqWPGkB6bagXZtqd"
            ]
          }
        }
      ],
      "hex": "01000000016d16cd4b092b85888a41ea917a77c93ee905dece6902504bf1a2a4dc9d690d25010000006a47304402202e0dd02da2d63810ef192b1cd54ba3c35d265cebba6d2eb696597077a473f09802203806808c156e8150e039d8d929219cc57b7b483bbed3d23ec3863a47540fa0f7012102e715d98c7843e4c70e3afda138c0a547cc546a7698f6b30b70ce5594dd97f201ffffffff0280c3c901000000001976a914ff5f484a529e5f2d682374d3ed165aacd5fc2ff888ac286c3103000000001976a914a303a93cc5247aa507cd78a2f1405f8cd419974f88ac00000000"
    }, 
    {
      "txid": "8b1ea9d1552baf998efbe64d87e5d1ed06cc0aa659e8473fc219680a68327097",
      "hash": "8b1ea9d1552baf998efbe64d87e5d1ed06cc0aa659e8473fc219680a68327097",
      "version": 2,
      "size": 225,
      "vsize": 225,
      "locktime": 1357834,
      "vin": [
        {
          "txid": "91d9fa5b87cb927d45040ab5248696b34fff3b22d57ced814b8a480b5ac263b1",
          "vout": 0,
          "scriptSig": {
            "asm": "304402206d8117cab8c39b908c111769133d3c5d2cf94e016d30c292cde48607bfe3c95c02202af1fb7f6f70b152b96c1c4b017f4cab7fbd4ad8551aec101ce7e1055f581c4e[ALL] 036f59fdf538954f1255004b792508bd7b74774886ef26eeff28d60d739b84d07b",
            "hex": "47304402206d8117cab8c39b908c111769133d3c5d2cf94e016d30c292cde48607bfe3c95c02202af1fb7f6f70b152b96c1c4b017f4cab7fbd4ad8551aec101ce7e1055f581c4e0121036f59fdf538954f1255004b792508bd7b74774886ef26eeff28d60d739b84d07b"
          },
          "sequence": 4294967294
        }
      ],
      "vout": [
        {
          "value": 12.40193658,
          "n": 0,
          "scriptPubKey": {
            "asm": "OP_DUP OP_HASH160 3b6430d6c1c0ab8e60b3944c565726221acd4e03 OP_EQUALVERIFY OP_CHECKSIG",
            "hex": "76a9143b6430d6c1c0ab8e60b3944c565726221acd4e0388ac",
            "reqSigs": 1,
            "type": "pubkeyhash",
            "addresses": [
              "LQdz9udYFYru3eiT6chUvE8qHCW9gvhxuR"
            ]
          }
        }, 
        {
          "value": 0.14779235,
          "n": 1,
          "scriptPubKey": {
            "asm": "OP_DUP OP_HASH160 1fd054232b671e7d0fd3d3a2afcf23c62ec4af17 OP_EQUALVERIFY OP_CHECKSIG",
            "hex": "76a9141fd054232b671e7d0fd3d3a2afcf23c62ec4af1788ac",
            "reqSigs": 1,
            "type": "pubkeyhash",
            "addresses": [
              "LN8An67QviqAH9SFPFEh8zf999z1ZzRQqx"
            ]
          }
        }
      ],
      "hex": "0200000001b163c25a0b488a4b81ed7cd5223bff4fb3968624b50a04457d92cb875bfad991000000006a47304402206d8117cab8c39b908c111769133d3c5d2cf94e016d30c292cde48607bfe3c95c02202af1fb7f6f70b152b96c1c4b017f4cab7fbd4ad8551aec101ce7e1055f581c4e0121036f59fdf538954f1255004b792508bd7b74774886ef26eeff28d60d739b84d07bfeffffff027adaeb49000000001976a9143b6430d6c1c0ab8e60b3944c565726221acd4e0388ac6383e100000000001976a9141fd054232b671e7d0fd3d3a2afcf23c62ec4af1788ac0ab81400"
    }, 
    {
      "txid": "52bdde9373d3d2b7b441658cfd7638a70aa166667130c5fa60805d3eb794a7f8",
      "hash": "52bdde9373d3d2b7b441658cfd7638a70aa166667130c5fa60805d3eb794a7f8",
      "version": 1,
      "size": 226,
      "vsize": 226,
      "locktime": 0,
      "vin": [
        {
          "txid": "810feae71419d879ed0f264d152151437a9af548d2288c97818ae399c6030e09",
          "vout": 116,
          "scriptSig": {
            "asm": "30450221009e90d5ac9bb4b47deeca9ef8a5e7848575de72fb49357394c7e90cbd1e2157cc022041f5a09f217e778e0c89cba80eaddcac42d76de3a1879aa0b3cfa798fa693f1f[ALL] 02f06fdfd8bcebf02d90170555c98f2fc69f2f898072ace740e29041dd12464cb5",
            "hex": "4830450221009e90d5ac9bb4b47deeca9ef8a5e7848575de72fb49357394c7e90cbd1e2157cc022041f5a09f217e778e0c89cba80eaddcac42d76de3a1879aa0b3cfa798fa693f1f012102f06fdfd8bcebf02d90170555c98f2fc69f2f898072ace740e29041dd12464cb5"
          },
          "sequence": 4294967295
        }
      ],
      "vout": [
        {
          "value": 0.00069503,
          "n": 0,
          "scriptPubKey": {
            "asm": "OP_DUP OP_HASH160 9e79c2b88812583cb5573ae51281da09fc37e47a OP_EQUALVERIFY OP_CHECKSIG",
            "hex": "76a9149e79c2b88812583cb5573ae51281da09fc37e47a88ac",
            "reqSigs": 1,
            "type": "pubkeyhash",
            "addresses": [
              "LZfttbhEbDNNWPdw79AThL21FVC3F7KaCp"
            ]
          }
        }, 
        {
          "value": 0.13293107,
          "n": 1,
          "scriptPubKey": {
            "asm": "OP_DUP OP_HASH160 7ee689bc6ee6c9741d21f7a58f061733b45fcbcf OP_EQUALVERIFY OP_CHECKSIG",
            "hex": "76a9147ee689bc6ee6c9741d21f7a58f061733b45fcbcf88ac",
            "reqSigs": 1,
            "type": "pubkeyhash",
            "addresses": [
              "LWnwaSsbTmGmoBTq84gXqG8rDzRfaKUh8g"
            ]
          }
        }
      ],
      "hex": "0100000001090e03c699e38a81978c28d248f59a7a435121154d260fed79d81914e7ea0f81740000006b4830450221009e90d5ac9bb4b47deeca9ef8a5e7848575de72fb49357394c7e90cbd1e2157cc022041f5a09f217e778e0c89cba80eaddcac42d76de3a1879aa0b3cfa798fa693f1f012102f06fdfd8bcebf02d90170555c98f2fc69f2f898072ace740e29041dd12464cb5ffffffff027f0f0100000000001976a9149e79c2b88812583cb5573ae51281da09fc37e47a88ac33d6ca00000000001976a9147ee689bc6ee6c9741d21f7a58f061733b45fcbcf88ac00000000"
    }
  ],
  "time": 1517055041,
  "mediantime": 1517054116,
  "nonce": 399412636,
  "bits": "1a047f14",
  "difficulty": 3731199.183374282,
  "chainwork": "00000000000000000000000000000000000000000000003292090016bc3cd052",
  "previousblockhash": "d5f6b1bc71a1324c4c268ee19e87b893a05746a53aaf0595665b960c1c1b855b",
  "nextblockhash": "765596dabb20749538443fe1d9187342d0caaa1cd070847ca0d6b15e213464ab"
}
