{
  "hash": "7b620398bc323dc708d363480727a6dc8d9410d05068dd42afe5a3046eb2cac5",
  "confirmations": 3531,
  "strippedsize": 3994,
  "size": 4139,
  "weight": 16121,
  "height": 1357464,
  "version": 536870912,
  "versionHex": "20000000",
  "merkleroot": "db1194fd24e65e7c485f8c8bb69ff6c8adc2178432619d7bc13119d676c2c766",
  "tx": [
    {
      "txid": "c8b1262575cde4799f9eacb34dd7bdf75914b37a2f53640f2e2423570dbcf8b2",
      "hash": "59324c78da16ea923cb6903c718df943902976a4de51a79ef0d3eb419e7ceba5",
      "version": 1,
      "size": 253,
      "vsize": 226,
      "locktime": 0,
      "vin": [
        {
          "coinbase": "0398b61441d69aeb3d03a8fd41d69aeb3c1bb5c32f4c54432e544f502ffabe6d6ddf9cebba8826944a2206804c8f21df847c2742eb64715dc7e27962df7bc38b8501000000000000006735a2cf0d00000000000000",
          "sequence": 4294967295
        }
      ],
      "vout": [
        {
          "value": 25.01485871,
          "n": 0,
          "scriptPubKey": {
            "asm": "OP_DUP OP_HASH160 0c617fdb2ea42aed30a509595ee21ba3f6688db0 OP_EQUALVERIFY OP_CHECKSIG",
            "hex": "76a9140c617fdb2ea42aed30a509595ee21ba3f6688db088ac",
            "reqSigs": 1,
            "type": "pubkeyhash",
            "addresses": [
              "LLMRAtr3qBje2ySEa3CnZ55LA4TQMWnRY3"
            ]
          }
        }, 
        {
          "value": 0.00000000,
          "n": 1,
          "scriptPubKey": {
            "asm": "OP_RETURN aa21a9ed768f29b896555e03e93823ee4638bb9e20ba0efc561f6818524029605912c823",
            "hex": "6a24aa21a9ed768f29b896555e03e93823ee4638bb9e20ba0efc561f6818524029605912c823",
            "type": "nulldata"
          }
        }
      ],
      "hex": "010000000001010000000000000000000000000000000000000000000000000000000000000000ffffffff550398b61441d69aeb3d03a8fd41d69aeb3c1bb5c32f4c54432e544f502ffabe6d6ddf9cebba8826944a2206804c8f21df847c2742eb64715dc7e27962df7bc38b8501000000000000006735a2cf0d00000000000000ffffffff022fa51995000000001976a9140c617fdb2ea42aed30a509595ee21ba3f6688db088ac0000000000000000266a24aa21a9ed768f29b896555e03e93823ee4638bb9e20ba0efc561f6818524029605912c8230120000000000000000000000000000000000000000000000000000000000000000000000000"
    }, 
    {
      "txid": "92a72e86f225939a292d03135751897724709c19f01c8b099908a1ff2ccafef9",
      "hash": "92a72e86f225939a292d03135751897724709c19f01c8b099908a1ff2ccafef9",
      "version": 1,
      "size": 191,
      "vsize": 191,
      "locktime": 0,
      "vin": [
        {
          "txid": "c3525ab5c7eff4c944fd566184b99d77780c6002bc08c917dfeb493cb6c276d3",
          "vout": 1,
          "scriptSig": {
            "asm": "304402200682a239d57d56867c667a4a44f0692f9879a0901cc85a156318b5153348a0f302200d33f06a56419c775efa9736a0fc5da5b20fa9c0e09173cca6a8c9460b356783[ALL] 03635471ae794c3b8c139b4bf127cee6b31bed2bc49c56baeb4a73474b60141bed",
            "hex": "47304402200682a239d57d56867c667a4a44f0692f9879a0901cc85a156318b5153348a0f302200d33f06a56419c775efa9736a0fc5da5b20fa9c0e09173cca6a8c9460b356783012103635471ae794c3b8c139b4bf127cee6b31bed2bc49c56baeb4a73474b60141bed"
          },
          "sequence": 4294967295
        }
      ],
      "vout": [
        {
          "value": 0.06440178,
          "n": 0,
          "scriptPubKey": {
            "asm": "OP_DUP OP_HASH160 fd41d2c7788524b779bc878fd3ea9d11d15ca6aa OP_EQUALVERIFY OP_CHECKSIG",
            "hex": "76a914fd41d2c7788524b779bc878fd3ea9d11d15ca6aa88ac",
            "reqSigs": 1,
            "type": "pubkeyhash",
            "addresses": [
              "LiK45EUKV7oLTPLVCZacLP3u9qaA2F5jRD"
            ]
          }
        }
      ],
      "hex": "0100000001d376c2b63c49ebdf17c908bc02600c78779db9846156fd44c9f4efc7b55a52c3010000006a47304402200682a239d57d56867c667a4a44f0692f9879a0901cc85a156318b5153348a0f302200d33f06a56419c775efa9736a0fc5da5b20fa9c0e09173cca6a8c9460b356783012103635471ae794c3b8c139b4bf127cee6b31bed2bc49c56baeb4a73474b60141bedffffffff01f2446200000000001976a914fd41d2c7788524b779bc878fd3ea9d11d15ca6aa88ac00000000"
    }, 
    {
      "txid": "138200ccfd2194086749dfed6871c5b20c1657239e91b2ad65f85cdbaa8f8e0f",
      "hash": "138200ccfd2194086749dfed6871c5b20c1657239e91b2ad65f85cdbaa8f8e0f",
      "version": 1,
      "size": 226,
      "vsize": 226,
      "locktime": 0,
      "vin": [
        {
          "txid": "8b9beb2b4c0974d0d4f4339ebae94960faa1483640334ccd8d18e89bc80d0ab0",
          "vout": 1,
          "scriptSig": {
            "asm": "3045022100b986dbbe8e448990acb178ce8491b22ff0c508bea695bf440e6e9537357cb75902201ad8b0f8ca35a4737a00431feeb205759df3d8505df3fc2a4b637736309760c6[ALL] 0305ad10c948dc96c8b9e48aad38799b50f96edeed6e20b462b8e451f8000566e3",
            "hex": "483045022100b986dbbe8e448990acb178ce8491b22ff0c508bea695bf440e6e9537357cb75902201ad8b0f8ca35a4737a00431feeb205759df3d8505df3fc2a4b637736309760c601210305ad10c948dc96c8b9e48aad38799b50f96edeed6e20b462b8e451f8000566e3"
          },
          "sequence": 4294967295
        }
      ],
      "vout": [
        {
          "value": 0.12089949,
          "n": 0,
          "scriptPubKey": {
            "asm": "OP_DUP OP_HASH160 45d745fff6e56167fbeda38f546e21244a92a007 OP_EQUALVERIFY OP_CHECKSIG",
            "hex": "76a91445d745fff6e56167fbeda38f546e21244a92a00788ac",
            "reqSigs": 1,
            "type": "pubkeyhash",
            "addresses": [
              "LRbEmujGfRZJtRfUzrvVx7rp4wjwudhV4v"
            ]
          }
        }, 
        {
          "value": 0.47642015,
          "n": 1,
          "scriptPubKey": {
            "asm": "OP_DUP OP_HASH160 75573656dafe1331ec858dc481ac0333fb9545bc OP_EQUALVERIFY OP_CHECKSIG",
            "hex": "76a91475573656dafe1331ec858dc481ac0333fb9545bc88ac",
            "reqSigs": 1,
            "type": "pubkeyhash",
            "addresses": [
              "LVvPoGhKp6VDAtiK1ekZA7YporaJbA2k9D"
            ]
          }
        }
      ],
      "hex": "0100000001b00a0dc89be8188dcd4c33403648a1fa6049e9ba9e33f4d4d074094c2beb9b8b010000006b483045022100b986dbbe8e448990acb178ce8491b22ff0c508bea695bf440e6e9537357cb75902201ad8b0f8ca35a4737a00431feeb205759df3d8505df3fc2a4b637736309760c601210305ad10c948dc96c8b9e48aad38799b50f96edeed6e20b462b8e451f8000566e3ffffffff025d7ab800000000001976a91445d745fff6e56167fbeda38f546e21244a92a00788ac9ff5d602000000001976a91475573656dafe1331ec858dc481ac0333fb9545bc88ac00000000"
    }, 
    {
      "txid": "4a2a4573e30d96ba7c0a438eb30815cb63fee07b39cb470a7ae11958dd60cf32",
      "hash": "4a2a4573e30d96ba7c0a438eb30815cb63fee07b39cb470a7ae11958dd60cf32",
      "version": 1,
      "size": 226,
      "vsize": 226,
      "locktime": 0,
      "vin": [
        {
          "txid": "96c7bdeddb3e2a6f0d9ac5c4f1a19bd172b54bbd4e76201b2b01947924cdca37",
          "vout": 0,
          "scriptSig": {
            "asm": "30450221009c61d01c019c182b4ae29fc9fdb53ffa6401e6ba76c65b11fdc33faae2fd47f102207af8d6d194009aa6b3b55d65c149127b0719d6eb62fba497e356d5a2e74802c4[ALL] 037d938c21042ddf77a2c27a47c141d4606db8189ce785d6310a224ef29bad2d7f",
            "hex": "4830450221009c61d01c019c182b4ae29fc9fdb53ffa6401e6ba76c65b11fdc33faae2fd47f102207af8d6d194009aa6b3b55d65c149127b0719d6eb62fba497e356d5a2e74802c40121037d938c21042ddf77a2c27a47c141d4606db8189ce785d6310a224ef29bad2d7f"
          },
          "sequence": 4294967295
        }
      ],
      "vout": [
        {
          "value": 0.01000000,
          "n": 0,
          "scriptPubKey": {
            "asm": "OP_DUP OP_HASH160 f34b33d4a6c8c8ee0b2919e7d0ac70e7a9782140 OP_EQUALVERIFY OP_CHECKSIG",
            "hex": "76a914f34b33d4a6c8c8ee0b2919e7d0ac70e7a978214088ac",
            "reqSigs": 1,
            "type": "pubkeyhash",
            "addresses": [
              "LhQNYzB6VKriHCG4eSEg2yndt16AypBAjw"
            ]
          }
        }, 
        {
          "value": 2.64085300,
          "n": 1,
          "scriptPubKey": {
            "asm": "OP_DUP OP_HASH160 ac0396f38b0468d9eb4ca057122a160cfab43725 OP_EQUALVERIFY OP_CHECKSIG",
            "hex": "76a914ac0396f38b0468d9eb4ca057122a160cfab4372588ac",
            "reqSigs": 1,
            "type": "pubkeyhash",
            "addresses": [
              "LauUnczVU6HpQqzVSpPZJYQtDC8uo1z8Cq"
            ]
          }
        }
      ],
      "hex": "010000000137cacd247994012b1b20764ebd4bb572d19ba1f1c4c59a0d6f2a3edbedbdc796000000006b4830450221009c61d01c019c182b4ae29fc9fdb53ffa6401e6ba76c65b11fdc33faae2fd47f102207af8d6d194009aa6b3b55d65c149127b0719d6eb62fba497e356d5a2e74802c40121037d938c21042ddf77a2c27a47c141d4606db8189ce785d6310a224ef29bad2d7fffffffff0240420f00000000001976a914f34b33d4a6c8c8ee0b2919e7d0ac70e7a978214088ac349fbd0f000000001976a914ac0396f38b0468d9eb4ca057122a160cfab4372588ac00000000"
    }, 
    {
      "txid": "58fe3914b3dabbd27dea3202b9294049c2e8ba221b14a2f7b8a1348f415d2a84",
      "hash": "715600ed177c060f92330561b3e0c378102690ced6c8852c954c9a1f5589bf37",
      "version": 1,
      "size": 249,
      "vsize": 168,
      "locktime": 0,
      "vin": [
        {
          "txid": "df699536aee43e8bd37ed809c15c1a940dc1e3089a73c2c3780dd81a8bd81a88",
          "vout": 1,
          "scriptSig": {
            "asm": "00145faa2dd85345f764567a1e3cedc0852c41d8a4e9",
            "hex": "1600145faa2dd85345f764567a1e3cedc0852c41d8a4e9"
          },
          "txinwitness": [
            "304402200fb8def9bcef71c2c0c689fe8433aa7e61124ab7505468378f66515e1349da24022033eb868f980e87d23940538e96b9d384fabd63d19c307a5db43e0d7ff9e629ee01", 
            "026d54fecf1740fdb677fa3da7fc9f4e022423f461f41bd18af1f6db7f3364a467"
          ],
          "sequence": 4294967295
        }
      ],
      "vout": [
        {
          "value": 1.00000000,
          "n": 0,
          "scriptPubKey": {
            "asm": "OP_DUP OP_HASH160 c4774fdb90bba884ae1ca7d19959a97242182bb0 OP_EQUALVERIFY OP_CHECKSIG",
            "hex": "76a914c4774fdb90bba884ae1ca7d19959a97242182bb088ac",
            "reqSigs": 1,
            "type": "pubkeyhash",
            "addresses": [
              "Ld8mdkWYy1D4DUH8TFZx6uGY2i4ubY1TtM"
            ]
          }
        }, 
        {
          "value": 0.96633461,
          "n": 1,
          "scriptPubKey": {
            "asm": "OP_HASH160 724e2dc9b349d92a56a822b85ef6ad895ef20e7c OP_EQUAL",
            "hex": "a914724e2dc9b349d92a56a822b85ef6ad895ef20e7c87",
            "reqSigs": 1,
            "type": "scripthash",
            "addresses": [
              "MJKYvG6woxRE6mtzhm9JgDfNujySSwC8is"
            ]
          }
        }
      ],
      "hex": "01000000000101881ad88b1ad80d78c3c2739a08e3c10d941a5cc109d87ed38b3ee4ae369569df01000000171600145faa2dd85345f764567a1e3cedc0852c41d8a4e9ffffffff0200e1f505000000001976a914c4774fdb90bba884ae1ca7d19959a97242182bb088ac7582c2050000000017a914724e2dc9b349d92a56a822b85ef6ad895ef20e7c870247304402200fb8def9bcef71c2c0c689fe8433aa7e61124ab7505468378f66515e1349da24022033eb868f980e87d23940538e96b9d384fabd63d19c307a5db43e0d7ff9e629ee0121026d54fecf1740fdb677fa3da7fc9f4e022423f461f41bd18af1f6db7f3364a46700000000"
    }, 
    {
      "txid": "7c2c414653b1024f2d6e47d52924132bf68bc6baeb6b8b99c6f5950424c72fcc",
      "hash": "7c2c414653b1024f2d6e47d52924132bf68bc6baeb6b8b99c6f5950424c72fcc",
      "version": 1,
      "size": 734,
      "vsize": 734,
      "locktime": 0,
      "vin": [
        {
          "txid": "917b7e783a1add2d48482cde4eb45eb2f2eca27d04dfa41db63db3e7c1f80cd4",
          "vout": 15,
          "scriptSig": {
            "asm": "3045022100bb1eabc2ba26a051f44911a65dab37f57ef4dd55ff56066b1d3fed0035d406a3022028fcb5c4570f70fce2af4588aa2affcc9fb5c4699f4dc3c94d67d574da092a7a[ALL] 0294a923650a9a8f247b2be51a2064d0710c99dfbd0d4c37a26e76946253611554",
            "hex": "483045022100bb1eabc2ba26a051f44911a65dab37f57ef4dd55ff56066b1d3fed0035d406a3022028fcb5c4570f70fce2af4588aa2affcc9fb5c4699f4dc3c94d67d574da092a7a01210294a923650a9a8f247b2be51a2064d0710c99dfbd0d4c37a26e76946253611554"
          },
          "sequence": 4294967295
        }
      ],
      "vout": [
        {
          "value": 0.35227200,
          "n": 0,
          "scriptPubKey": {
            "asm": "OP_DUP OP_HASH160 9192657c27664d7b9e78ef2f0f16b0930d100fe7 OP_EQUALVERIFY OP_CHECKSIG",
            "hex": "76a9149192657c27664d7b9e78ef2f0f16b0930d100fe788ac",
            "reqSigs": 1,
            "type": "pubkeyhash",
            "addresses": [
              "LYVfcq7jYDgBoTrMtVYzCae9n82eTEdkiG"
            ]
          }
        }, 
        {
          "value": 0.39371979,
          "n": 1,
          "scriptPubKey": {
            "asm": "OP_DUP OP_HASH160 c09e5b2f4b29456b82ad40684fff76c66f094d44 OP_EQUALVERIFY OP_CHECKSIG",
            "hex": "76a914c09e5b2f4b29456b82ad40684fff76c66f094d4488ac",
            "reqSigs": 1,
            "type": "pubkeyhash",
            "addresses": [
              "LcnRhpq5dNkABz9WtVvgiCdtp47gWsQmC2"
            ]
          }
        }, 
        {
          "value": 3.89000000,
          "n": 2,
          "scriptPubKey": {
            "asm": "OP_HASH160 bab254b1bffd1c45e40e383e1e5b1e4c23e4c3ed OP_EQUAL",
            "hex": "a914bab254b1bffd1c45e40e383e1e5b1e4c23e4c3ed87",
            "reqSigs": 1,
            "type": "scripthash",
            "addresses": [
              "MQvKYkiC6Mgpp1VHBYNn2RByj22crFCfcG"
            ]
          }
        }, 
        {
          "value": 0.50000000,
          "n": 3,
          "scriptPubKey": {
            "asm": "OP_DUP OP_HASH160 71127a3334962952f57da73b9e120c9ea02eb4e8 OP_EQUALVERIFY OP_CHECKSIG",
            "hex": "76a91471127a3334962952f57da73b9e120c9ea02eb4e888ac",
            "reqSigs": 1,
            "type": "pubkeyhash",
            "addresses": [
              "LVXpkicJUo1MiyT7GtbZY281etAWQwjfHa"
            ]
          }
        }, 
        {
          "value": 0.09000000,
          "n": 4,
          "scriptPubKey": {
            "asm": "OP_DUP OP_HASH160 016be557516a7b8bc9edfd00a9d95fa3c17ec62e OP_EQUALVERIFY OP_CHECKSIG",
            "hex": "76a914016be557516a7b8bc9edfd00a9d95fa3c17ec62e88ac",
            "reqSigs": 1,
            "type": "pubkeyhash",
            "addresses": [
              "LKMUC989vsAYFwj5nd5rat8pKs8VaKzUf2"
            ]
          }
        }, 
        {
          "value": 4.14685393,
          "n": 5,
          "scriptPubKey": {
            "asm": "OP_DUP OP_HASH160 b24cf8aa59a6ff254caf2b6b57422fbeb0dfddf4 OP_EQUALVERIFY OP_CHECKSIG",
            "hex": "76a914b24cf8aa59a6ff254caf2b6b57422fbeb0dfddf488ac",
            "reqSigs": 1,
            "type": "pubkeyhash",
            "addresses": [
              "LbUikRRemJ5XbNNeufaM8j1TP7UmJsKD9E"
            ]
          }
        }, 
        {
          "value": 0.49327247,
          "n": 6,
          "scriptPubKey": {
            "asm": "OP_DUP OP_HASH160 c01d99b507fabab7c2165d6a98da70c11d30bd76 OP_EQUALVERIFY OP_CHECKSIG",
            "hex": "76a914c01d99b507fabab7c2165d6a98da70c11d30bd7688ac",
            "reqSigs": 1,
            "type": "pubkeyhash",
            "addresses": [
              "LcjmTiaEPsYR6EjcU2bpMZXpusUKVbTmkq"
            ]
          }
        }, 
        {
          "value": 0.99000000,
          "n": 7,
          "scriptPubKey": {
            "asm": "OP_DUP OP_HASH160 a4f87496c588c41b382c63d89390b781850a0a8b OP_EQUALVERIFY OP_CHECKSIG",
            "hex": "76a914a4f87496c588c41b382c63d89390b781850a0a8b88ac",
            "reqSigs": 1,
            "type": "pubkeyhash",
            "addresses": [
              "LaGEifAVuG29TCr2MWanjofqqQ3Kf6JA1f"
            ]
          }
        }, 
        {
          "value": 0.53524000,
          "n": 8,
          "scriptPubKey": {
            "asm": "OP_DUP OP_HASH160 5adab08310ed697886211654eea8691842a4e61c OP_EQUALVERIFY OP_CHECKSIG",
            "hex": "76a9145adab08310ed697886211654eea8691842a4e61c88ac",
            "reqSigs": 1,
            "type": "pubkeyhash",
            "addresses": [
              "LTWM4HonoAmXVYjVz7Z9irxbrypLVhNS7H"
            ]
          }
        }, 
        {
          "value": 3.46089039,
          "n": 9,
          "scriptPubKey": {
            "asm": "OP_DUP OP_HASH160 e91a9dfe039f6a64f12b8b61189c969c781758a1 OP_EQUALVERIFY OP_CHECKSIG",
            "hex": "76a914e91a9dfe039f6a64f12b8b61189c969c781758a188ac",
            "reqSigs": 1,
            "type": "pubkeyhash",
            "addresses": [
              "LgUVbJUCUekpeezFZ9wAikVdgMcDXRhTXj"
            ]
          }
        }, 
        {
          "value": 2.20654239,
          "n": 10,
          "scriptPubKey": {
            "asm": "OP_DUP OP_HASH160 f6e09fc95c3a2a56011d2f83d7f077246a063948 OP_EQUALVERIFY OP_CHECKSIG",
            "hex": "76a914f6e09fc95c3a2a56011d2f83d7f077246a06394888ac",
            "reqSigs": 1,
            "type": "pubkeyhash",
            "addresses": [
              "LhjKaZfUywHNKYL6d1FuPSkJo9HHmKBDVE"
            ]
          }
        }, 
        {
          "value": 12.42435735,
          "n": 11,
          "scriptPubKey": {
            "asm": "OP_DUP OP_HASH160 279611daedddc6a63c7f8a475360c3b2a403889b OP_EQUALVERIFY OP_CHECKSIG",
            "hex": "76a914279611daedddc6a63c7f8a475360c3b2a403889b88ac",
            "reqSigs": 1,
            "type": "pubkeyhash",
            "addresses": [
              "LNqGPiu8HMFm8vYDhygWYAgsNsfhavKd87"
            ]
          }
        }, 
        {
          "value": 0.11000000,
          "n": 12,
          "scriptPubKey": {
            "asm": "OP_DUP OP_HASH160 532b7edd55aaf1f62edecc57e8ecad6a3a9f77e4 OP_EQUALVERIFY OP_CHECKSIG",
            "hex": "76a914532b7edd55aaf1f62edecc57e8ecad6a3a9f77e488ac",
            "reqSigs": 1,
            "type": "pubkeyhash",
            "addresses": [
              "LSoiTG26GDe8jNNxEDBHQBAw736SGmoSGA"
            ]
          }
        }, 
        {
          "value": 0.98750000,
          "n": 13,
          "scriptPubKey": {
            "asm": "OP_DUP OP_HASH160 e30772102c264f344da50f7037ac64f70497a37a OP_EQUALVERIFY OP_CHECKSIG",
            "hex": "76a914e30772102c264f344da50f7037ac64f70497a37a88ac",
            "reqSigs": 1,
            "type": "pubkeyhash",
            "addresses": [
              "LfvNa5tM9gnRXPs8B8oHsfbVAqNbXRq9Jn"
            ]
          }
        }, 
        {
          "value": 0.49000000,
          "n": 14,
          "scriptPubKey": {
            "asm": "OP_DUP OP_HASH160 e472090f74afdaef7c2e03a06a5acaad4d44ab06 OP_EQUALVERIFY OP_CHECKSIG",
            "hex": "76a914e472090f74afdaef7c2e03a06a5acaad4d44ab0688ac",
            "reqSigs": 1,
            "type": "pubkeyhash",
            "addresses": [
              "Lg3rwGWoTB5pB1gArw69Z6XBrsZHx947cL"
            ]
          }
        }, 
        {
          "value": 0.10380956,
          "n": 15,
          "scriptPubKey": {
            "asm": "OP_DUP OP_HASH160 729e6d9a612b09f4fa065b5d12e58367d7ad201f OP_EQUALVERIFY OP_CHECKSIG",
            "hex": "76a914729e6d9a612b09f4fa065b5d12e58367d7ad201f88ac",
            "reqSigs": 1,
            "type": "pubkeyhash",
            "addresses": [
              "LVg15rviTpNqLwM2dU2boJcDxMNE5pJiYC"
            ]
          }
        }, 
        {
          "value": 2.16711429,
          "n": 16,
          "scriptPubKey": {
            "asm": "OP_DUP OP_HASH160 f9871c6dd621879729cd7d502a5af822501cf2aa OP_EQUALVERIFY OP_CHECKSIG",
            "hex": "76a914f9871c6dd621879729cd7d502a5af822501cf2aa88ac",
            "reqSigs": 1,
            "type": "pubkeyhash",
            "addresses": [
              "LhyLNfBkoKshT7R8Pce6vkB9T2cP2o84hx"
            ]
          }
        }
      ],
      "hex": "0100000001d40cf8c1e7b33db61da4df047da2ecf2b25eb44ede2c48482ddd1a3a787e7b910f0000006b483045022100bb1eabc2ba26a051f44911a65dab37f57ef4dd55ff56066b1d3fed0035d406a3022028fcb5c4570f70fce2af4588aa2affcc9fb5c4699f4dc3c94d67d574da092a7a01210294a923650a9a8f247b2be51a2064d0710c99dfbd0d4c37a26e76946253611554ffffffff1140861902000000001976a9149192657c27664d7b9e78ef2f0f16b0930d100fe788accbc45802000000001976a914c09e5b2f4b29456b82ad40684fff76c66f094d4488ac40ab2f170000000017a914bab254b1bffd1c45e40e383e1e5b1e4c23e4c3ed8780f0fa02000000001976a91471127a3334962952f57da73b9e120c9ea02eb4e888ac40548900000000001976a914016be557516a7b8bc9edfd00a9d95fa3c17ec62e88acd198b718000000001976a914b24cf8aa59a6ff254caf2b6b57422fbeb0dfddf488ac8facf002000000001976a914c01d99b507fabab7c2165d6a98da70c11d30bd7688acc09ee605000000001976a914a4f87496c588c41b382c63d89390b781850a0a8b88ac20b63003000000001976a9145adab08310ed697886211654eea8691842a4e61c88ac4fe6a014000000001976a914e91a9dfe039f6a64f12b8b61189c969c781758a188ac9fea260d000000001976a914f6e09fc95c3a2a56011d2f83d7f077246a06394888ac97100e4a000000001976a914279611daedddc6a63c7f8a475360c3b2a403889b88acc0d8a700000000001976a914532b7edd55aaf1f62edecc57e8ecad6a3a9f77e488ac30cee205000000001976a914e30772102c264f344da50f7037ac64f70497a37a88ac40aeeb02000000001976a914e472090f74afdaef7c2e03a06a5acaad4d44ab0688ac9c669e00000000001976a914729e6d9a612b09f4fa065b5d12e58367d7ad201f88ac05c1ea0c000000001976a914f9871c6dd621879729cd7d502a5af822501cf2aa88ac00000000"
    }, 
    {
      "txid": "3cd8e0f61b3e0762269b6a56dbeab775759aec55177cadc932902c1d29750b40",
      "hash": "3cd8e0f61b3e0762269b6a56dbeab775759aec55177cadc932902c1d29750b40",
      "version": 1,
      "size": 225,
      "vsize": 225,
      "locktime": 0,
      "vin": [
        {
          "txid": "d7abe87c7956520bbed60f616601f0a3d153cbb0c2c899d4e31ba3bc1f70c501",
          "vout": 2,
          "scriptSig": {
            "asm": "30440220283e4aacd6a3abc168ecadbf1b1f0d21d6a086f52baab39db4287a7d8ac98b3102204448d8d43a152a32415fb3980105d24784ddb702530562c90a63742033af9aa6[ALL] 0328c9ae635abf580c261c44815dc1aac309e16ff26250525b7e99951369d2b8c7",
            "hex": "4730440220283e4aacd6a3abc168ecadbf1b1f0d21d6a086f52baab39db4287a7d8ac98b3102204448d8d43a152a32415fb3980105d24784ddb702530562c90a63742033af9aa601210328c9ae635abf580c261c44815dc1aac309e16ff26250525b7e99951369d2b8c7"
          },
          "sequence": 4294967295
        }
      ],
      "vout": [
        {
          "value": 0.03368352,
          "n": 0,
          "scriptPubKey": {
            "asm": "OP_DUP OP_HASH160 b4f25c66ac9a48b58eccd01d64f1ec0936850dac OP_EQUALVERIFY OP_CHECKSIG",
            "hex": "76a914b4f25c66ac9a48b58eccd01d64f1ec0936850dac88ac",
            "reqSigs": 1,
            "type": "pubkeyhash",
            "addresses": [
              "LbiiEGxVebQYbGr3PJDevBBT4ewbb8SdGA"
            ]
          }
        }, 
        {
          "value": 2.13574564,
          "n": 1,
          "scriptPubKey": {
            "asm": "OP_DUP OP_HASH160 c6e3836c2f4cd8f9c53e32813ded99ac0ce001f1 OP_EQUALVERIFY OP_CHECKSIG",
            "hex": "76a914c6e3836c2f4cd8f9c53e32813ded99ac0ce001f188ac",
            "reqSigs": 1,
            "type": "pubkeyhash",
            "addresses": [
              "LdMac6qdwFnBCVXN96dvoPjzbcE36gzs64"
            ]
          }
        }
      ],
      "hex": "010000000101c5701fbca31be3d499c8c2b0cb53d1a3f00166610fd6be0b5256797ce8abd7020000006a4730440220283e4aacd6a3abc168ecadbf1b1f0d21d6a086f52baab39db4287a7d8ac98b3102204448d8d43a152a32415fb3980105d24784ddb702530562c90a63742033af9aa601210328c9ae635abf580c261c44815dc1aac309e16ff26250525b7e99951369d2b8c7ffffffff02a0653300000000001976a914b4f25c66ac9a48b58eccd01d64f1ec0936850dac88aca4e3ba0c000000001976a914c6e3836c2f4cd8f9c53e32813ded99ac0ce001f188ac00000000"
    }, 
    {
      "txid": "dece0a82cb98fae1221d09d5b5a187da6048d956fbb880bc47d4ae703d7cf14c",
      "hash": "dece0a82cb98fae1221d09d5b5a187da6048d956fbb880bc47d4ae703d7cf14c",
      "version": 1,
      "size": 487,
      "vsize": 487,
      "locktime": 0,
      "vin": [
        {
          "txid": "adfe973d4da9ee270521812331007a79030e66d92134d21d2702fc7701c61998",
          "vout": 1,
          "scriptSig": {
            "asm": "3045022100a8fd8afdbb97f0be23bd49d15a2cba4e2ad822913ad8fdadf1d12aad1fa40af802207fc8ed4d452c77853ca59f4c31e02a2decfee9e0c010edb84736e8713d26cacc[ALL] 03c553b885b4738b7d271e79a2535ed624f1fda5882376f0dcd20ff75061ce7999",
            "hex": "483045022100a8fd8afdbb97f0be23bd49d15a2cba4e2ad822913ad8fdadf1d12aad1fa40af802207fc8ed4d452c77853ca59f4c31e02a2decfee9e0c010edb84736e8713d26cacc012103c553b885b4738b7d271e79a2535ed624f1fda5882376f0dcd20ff75061ce7999"
          },
          "sequence": 4294967295
        }, 
        {
          "txid": "3cae042553d687bbe1bd6234431457269de53f77cddb3ccf1997ed74109c6a67",
          "vout": 1,
          "scriptSig": {
            "asm": "30450221008c0847ac3b2b55c59b2277e36cfb7b47ce3beb03e2d10e8186c5ab4391259a8f022064dad1422855e7444676082c112211062f98612f14e07fc9e86a6ceb86be4519[ALL] 020cfeaa71f476e23969f5369b225ba07756b2c820225c9a9e99a427260ea3fed0",
            "hex": "4830450221008c0847ac3b2b55c59b2277e36cfb7b47ce3beb03e2d10e8186c5ab4391259a8f022064dad1422855e7444676082c112211062f98612f14e07fc9e86a6ceb86be45190121020cfeaa71f476e23969f5369b225ba07756b2c820225c9a9e99a427260ea3fed0"
          },
          "sequence": 4294967295
        }, 
        {
          "txid": "45fe36fedd1a42c357bea99f8a3355ec3a0731c7c2f7d70f52ade54572e344a9",
          "vout": 1,
          "scriptSig": {
            "asm": "304402205994c40c8c1ebb38cf8b92952e3bc76062664bbdc40b910a132b6556ab8b997002203831e377020266f1fe41254b4c3ec4453a144fdb6a8dded4b5422698a26674a7[ALL] 03194bb7989d5b98eb881ded948d02fd39ddcfec5cb94d4ae7814fe1957c969554",
            "hex": "47304402205994c40c8c1ebb38cf8b92952e3bc76062664bbdc40b910a132b6556ab8b997002203831e377020266f1fe41254b4c3ec4453a144fdb6a8dded4b5422698a26674a7012103194bb7989d5b98eb881ded948d02fd39ddcfec5cb94d4ae7814fe1957c969554"
          },
          "sequence": 4294967295
        }
      ],
      "vout": [
        {
          "value": 9.67765481,
          "n": 0,
          "scriptPubKey": {
            "asm": "OP_DUP OP_HASH160 a1d2f066751fa3e83b28b56ce04a3f002861687c OP_EQUALVERIFY OP_CHECKSIG",
            "hex": "76a914a1d2f066751fa3e83b28b56ce04a3f002861687c88ac",
            "reqSigs": 1,
            "type": "pubkeyhash",
            "addresses": [
              "LZybkQCTxAsS3Jmx2XvRbZ7y79T1wYincY"
            ]
          }
        }
      ],
      "hex": "01000000039819c60177fc02271dd23421d9660e03797a00312381210527eea94d3d97fead010000006b483045022100a8fd8afdbb97f0be23bd49d15a2cba4e2ad822913ad8fdadf1d12aad1fa40af802207fc8ed4d452c77853ca59f4c31e02a2decfee9e0c010edb84736e8713d26cacc012103c553b885b4738b7d271e79a2535ed624f1fda5882376f0dcd20ff75061ce7999ffffffff676a9c1074ed9719cf3cdbcd773fe59d265714433462bde1bb87d6532504ae3c010000006b4830450221008c0847ac3b2b55c59b2277e36cfb7b47ce3beb03e2d10e8186c5ab4391259a8f022064dad1422855e7444676082c112211062f98612f14e07fc9e86a6ceb86be45190121020cfeaa71f476e23969f5369b225ba07756b2c820225c9a9e99a427260ea3fed0ffffffffa944e37245e5ad520fd7f7c2c731073aec55338a9fa9be57c3421addfe36fe45010000006a47304402205994c40c8c1ebb38cf8b92952e3bc76062664bbdc40b910a132b6556ab8b997002203831e377020266f1fe41254b4c3ec4453a144fdb6a8dded4b5422698a26674a7012103194bb7989d5b98eb881ded948d02fd39ddcfec5cb94d4ae7814fe1957c969554ffffffff01e9edae39000000001976a914a1d2f066751fa3e83b28b56ce04a3f002861687c88ac00000000"
    }, 
    {
      "txid": "f8a4addfd1af8baf147f407c1e772558c1dbcc74b029de471989aae77684de82",
      "hash": "f8a4addfd1af8baf147f407c1e772558c1dbcc74b029de471989aae77684de82",
      "version": 1,
      "size": 372,
      "vsize": 372,
      "locktime": 1357462,
      "vin": [
        {
          "txid": "7562345edb8fa9e2fb4d36cd528c9b5b1db6490087898b097a4543936aa03127",
          "vout": 0,
          "scriptSig": {
            "asm": "304402206b716d7ae4f45633c04ecfe557bfbc2e1cfe460b75eaa727aaf0e6bc48e4167302200ab06528a9c5f4709146818076a68cbe068ca6547b966240a414f196c8fd0bfa[ALL] 0292bab94935859746a6d147b3e6df1f3b3b3e146180c00defe6d968a0b3a448fe",
            "hex": "47304402206b716d7ae4f45633c04ecfe557bfbc2e1cfe460b75eaa727aaf0e6bc48e4167302200ab06528a9c5f4709146818076a68cbe068ca6547b966240a414f196c8fd0bfa01210292bab94935859746a6d147b3e6df1f3b3b3e146180c00defe6d968a0b3a448fe"
          },
          "sequence": 4294967294
        }, 
        {
          "txid": "a31921efb21aafc91181ee34b80fbd94360401caad30f2e2a3794c146ce2815d",
          "vout": 0,
          "scriptSig": {
            "asm": "304402201ef43bf0e648c99e1b8e1d4b7294b813c87365e5443946dba07aca2a341e1381022042577c66e46232ff58a9e0c718d13053f07b961853fa0ead24deabb84f3a6988[ALL] 02e39efbe3a5a505e50f475b695656e5833b532d855662f9b1662ba10871488383",
            "hex": "47304402201ef43bf0e648c99e1b8e1d4b7294b813c87365e5443946dba07aca2a341e1381022042577c66e46232ff58a9e0c718d13053f07b961853fa0ead24deabb84f3a6988012102e39efbe3a5a505e50f475b695656e5833b532d855662f9b1662ba10871488383"
          },
          "sequence": 4294967294
        }
      ],
      "vout": [
        {
          "value": 0.01506551,
          "n": 0,
          "scriptPubKey": {
            "asm": "OP_DUP OP_HASH160 85764dc7d3790b83ec8acb84ffa50a543bcc3daa OP_EQUALVERIFY OP_CHECKSIG",
            "hex": "76a91485764dc7d3790b83ec8acb84ffa50a543bcc3daa88ac",
            "reqSigs": 1,
            "type": "pubkeyhash",
            "addresses": [
              "LXPdrcxGyB1kVZ7unp6oD2R4FPnaWp5XVF"
            ]
          }
        }, 
        {
          "value": 0.01504517,
          "n": 1,
          "scriptPubKey": {
            "asm": "OP_DUP OP_HASH160 473d3134cff9347b92568d413592e626d8d11555 OP_EQUALVERIFY OP_CHECKSIG",
            "hex": "76a914473d3134cff9347b92568d413592e626d8d1155588ac",
            "reqSigs": 1,
            "type": "pubkeyhash",
            "addresses": [
              "LRidYYQuqo2Hruqq5T3zCssAg1iEQ2812L"
            ]
          }
        }
      ],
      "hex": "01000000022731a06a9343457a098b89870049b61d5b9b8c52cd364dfbe2a98fdb5e346275000000006a47304402206b716d7ae4f45633c04ecfe557bfbc2e1cfe460b75eaa727aaf0e6bc48e4167302200ab06528a9c5f4709146818076a68cbe068ca6547b966240a414f196c8fd0bfa01210292bab94935859746a6d147b3e6df1f3b3b3e146180c00defe6d968a0b3a448fefeffffff5d81e26c144c79a3e2f230adca01043694bd0fb834ee8111c9af1ab2ef2119a3000000006a47304402201ef43bf0e648c99e1b8e1d4b7294b813c87365e5443946dba07aca2a341e1381022042577c66e46232ff58a9e0c718d13053f07b961853fa0ead24deabb84f3a6988012102e39efbe3a5a505e50f475b695656e5833b532d855662f9b1662ba10871488383feffffff02f7fc1600000000001976a91485764dc7d3790b83ec8acb84ffa50a543bcc3daa88ac05f51600000000001976a914473d3134cff9347b92568d413592e626d8d1155588ac96b61400"
    }, 
    {
      "txid": "9b5e55b9b7fcccfaa77e2236790312034c26614fc3c45db7969c1fbacc912342",
      "hash": "9b5e55b9b7fcccfaa77e2236790312034c26614fc3c45db7969c1fbacc912342",
      "version": 1,
      "size": 192,
      "vsize": 192,
      "locktime": 0,
      "vin": [
        {
          "txid": "bb3441e445d0166715d9e3c18fb0e8874092c3da7759016a0e413d4982f30d87",
          "vout": 0,
          "scriptSig": {
            "asm": "3045022100d107969a1c7769bd4bef4fbc2aefa61d9b27fa1f770545a5351f6cdab408f05002203f9c2416152c7029c33c835a015d4bbade21adc8d6f29ffd9ad939f2f3fbe551[ALL] 0269fb90956d372abc6184f3f5dc0dd9b33e64a1351b31a9bb4e16baf0fcedcf74",
            "hex": "483045022100d107969a1c7769bd4bef4fbc2aefa61d9b27fa1f770545a5351f6cdab408f05002203f9c2416152c7029c33c835a015d4bbade21adc8d6f29ffd9ad939f2f3fbe55101210269fb90956d372abc6184f3f5dc0dd9b33e64a1351b31a9bb4e16baf0fcedcf74"
          },
          "sequence": 4294967295
        }
      ],
      "vout": [
        {
          "value": 0.63980704,
          "n": 0,
          "scriptPubKey": {
            "asm": "OP_DUP OP_HASH160 eb84d4ea02473c290f2d67395476153d551cbb7d OP_EQUALVERIFY OP_CHECKSIG",
            "hex": "76a914eb84d4ea02473c290f2d67395476153d551cbb7d88ac",
            "reqSigs": 1,
            "type": "pubkeyhash",
            "addresses": [
              "LghGBbpcvEFhjTCawvaSuQzmpnvi56jmWE"
            ]
          }
        }
      ],
      "hex": "0100000001870df382493d410e6a015977dac3924087e8b08fc1e3d9156716d045e44134bb000000006b483045022100d107969a1c7769bd4bef4fbc2aefa61d9b27fa1f770545a5351f6cdab408f05002203f9c2416152c7029c33c835a015d4bbade21adc8d6f29ffd9ad939f2f3fbe55101210269fb90956d372abc6184f3f5dc0dd9b33e64a1351b31a9bb4e16baf0fcedcf74ffffffff01a044d003000000001976a914eb84d4ea02473c290f2d67395476153d551cbb7d88ac00000000"
    }, 
    {
      "txid": "8d49cee804a0d522a962155962f8ba6eec26447cb0176c57f3554a1aa3985b24",
      "hash": "8d49cee804a0d522a962155962f8ba6eec26447cb0176c57f3554a1aa3985b24",
      "version": 1,
      "size": 226,
      "vsize": 226,
      "locktime": 0,
      "vin": [
        {
          "txid": "82169d20a52d1d6232568bd1be713fab648518a87d2e98a79d8116a5de715e54",
          "vout": 1,
          "scriptSig": {
            "asm": "3045022100b1a56daf160b99a3eb8790a0123abbcbb48e413f29b5cf8c70f06ee9b9261485022075a0feeaa52183f73771948dfb5bc52144186793dbb7c88aac84dac745d7056b[ALL] 0364e3d8c01ded891026a0b5128f41f7481d2ccb3451b32aed94a7c84372dd1518",
            "hex": "483045022100b1a56daf160b99a3eb8790a0123abbcbb48e413f29b5cf8c70f06ee9b9261485022075a0feeaa52183f73771948dfb5bc52144186793dbb7c88aac84dac745d7056b01210364e3d8c01ded891026a0b5128f41f7481d2ccb3451b32aed94a7c84372dd1518"
          },
          "sequence": 4294967295
        }
      ],
      "vout": [
        {
          "value": 13.06805316,
          "n": 0,
          "scriptPubKey": {
            "asm": "OP_DUP OP_HASH160 59989472edd025ffa02b26c0ae6b71cbcf38ae64 OP_EQUALVERIFY OP_CHECKSIG",
            "hex": "76a91459989472edd025ffa02b26c0ae6b71cbcf38ae6488ac",
            "reqSigs": 1,
            "type": "pubkeyhash",
            "addresses": [
              "LTPhBipD5qCBaUjRY4rt8rbeckXr62TBjr"
            ]
          }
        }, 
        {
          "value": 75.60172253,
          "n": 1,
          "scriptPubKey": {
            "asm": "OP_DUP OP_HASH160 60b2f65b213e90c71debc0449c8c16043d86124e OP_EQUALVERIFY OP_CHECKSIG",
            "hex": "76a91460b2f65b213e90c71debc0449c8c16043d86124e88ac",
            "reqSigs": 1,
            "type": "pubkeyhash",
            "addresses": [
              "LU3FX9cRMxnjJSQBipZMS7UVcgUp6ANmgw"
            ]
          }
        }
      ],
      "hex": "0100000001545e71dea516819da7982e7da8188564ab3f71bed18b5632621d2da5209d1682010000006b483045022100b1a56daf160b99a3eb8790a0123abbcbb48e413f29b5cf8c70f06ee9b9261485022075a0feeaa52183f73771948dfb5bc52144186793dbb7c88aac84dac745d7056b01210364e3d8c01ded891026a0b5128f41f7481d2ccb3451b32aed94a7c84372dd1518ffffffff024444e44d000000001976a91459989472edd025ffa02b26c0ae6b71cbcf38ae6488acdd129fc2010000001976a91460b2f65b213e90c71debc0449c8c16043d86124e88ac00000000"
    }, 
    {
      "txid": "c5c51274bf0ce487bb6b29e47acdcee025b5c869e3348a3cf065f792c256ef51",
      "hash": "c5c51274bf0ce487bb6b29e47acdcee025b5c869e3348a3cf065f792c256ef51",
      "version": 1,
      "size": 226,
      "vsize": 226,
      "locktime": 0,
      "vin": [
        {
          "txid": "acdd45814766e8bd13a872a1d8e9402a1b4cec992f18d61e18222708354e11ef",
          "vout": 0,
          "scriptSig": {
            "asm": "304502210096ebf2bceda5810cc01c8d2ea1af6046191b4b7c8d549f00a2d3f20082e4b98002200a08882ec346ac553665f3ace510df623b392b877cffd25d162c80f66287743c[ALL] 03141fcd715b8776cdecc2e93af10f7fbfb41213fabfbb30b7afff7dc59cb33aa3",
            "hex": "48304502210096ebf2bceda5810cc01c8d2ea1af6046191b4b7c8d549f00a2d3f20082e4b98002200a08882ec346ac553665f3ace510df623b392b877cffd25d162c80f66287743c012103141fcd715b8776cdecc2e93af10f7fbfb41213fabfbb30b7afff7dc59cb33aa3"
          },
          "sequence": 4294967295
        }
      ],
      "vout": [
        {
          "value": 2.18725867,
          "n": 0,
          "scriptPubKey": {
            "asm": "OP_DUP OP_HASH160 ae97e2f5c2d63157ddf931ae4c658f527e860c92 OP_EQUALVERIFY OP_CHECKSIG",
            "hex": "76a914ae97e2f5c2d63157ddf931ae4c658f527e860c9288ac",
            "reqSigs": 1,
            "type": "pubkeyhash",
            "addresses": [
              "Lb97nrY5C2CK7PSGr9PxwcCMPGfVAXc14H"
            ]
          }
        }, 
        {
          "value": 0.25605312,
          "n": 1,
          "scriptPubKey": {
            "asm": "OP_DUP OP_HASH160 4791e4ced8e87a9bc951893c1ad9bbe380e97aea OP_EQUALVERIFY OP_CHECKSIG",
            "hex": "76a9144791e4ced8e87a9bc951893c1ad9bbe380e97aea88ac",
            "reqSigs": 1,
            "type": "pubkeyhash",
            "addresses": [
              "LRkP1iAjCAKLkYVThib87R6FsSxTVpVQxb"
            ]
          }
        }
      ],
      "hex": "0100000001ef114e35082722181ed6182f99ec4c1b2a40e9d8a172a813bde866478145ddac000000006b48304502210096ebf2bceda5810cc01c8d2ea1af6046191b4b7c8d549f00a2d3f20082e4b98002200a08882ec346ac553665f3ace510df623b392b877cffd25d162c80f66287743c012103141fcd715b8776cdecc2e93af10f7fbfb41213fabfbb30b7afff7dc59cb33aa3ffffffff02eb7d090d000000001976a914ae97e2f5c2d63157ddf931ae4c658f527e860c9288acc0b48601000000001976a9144791e4ced8e87a9bc951893c1ad9bbe380e97aea88ac00000000"
    }, 
    {
      "txid": "7d2ff1f8bb6e813c325fdb99625569ca831b8d0aca52e8c93e930eaadf218172",
      "hash": "7d2ff1f8bb6e813c325fdb99625569ca831b8d0aca52e8c93e930eaadf218172",
      "version": 1,
      "size": 225,
      "vsize": 225,
      "locktime": 1357461,
      "vin": [
        {
          "txid": "b1270a303a255c3ba5828a59137a0b740f5deece22065651b658d86081ccf0ba",
          "vout": 0,
          "scriptSig": {
            "asm": "304402207cf10cfeed488bd92ac9557921f3df6867e9d4b131da4ea7230eb3351de3573e02204fac82cf7cd22a9fb9ad22746e83ac611c82b9338141c38fb3afd35316a8e9a1[ALL] 023916fa91ca62b06da89d3f9d852881e73b8a9623aa0de6cf05a22109e2f3c72b",
            "hex": "47304402207cf10cfeed488bd92ac9557921f3df6867e9d4b131da4ea7230eb3351de3573e02204fac82cf7cd22a9fb9ad22746e83ac611c82b9338141c38fb3afd35316a8e9a10121023916fa91ca62b06da89d3f9d852881e73b8a9623aa0de6cf05a22109e2f3c72b"
          },
          "sequence": 4294967294
        }
      ],
      "vout": [
        {
          "value": 0.07546984,
          "n": 0,
          "scriptPubKey": {
            "asm": "OP_DUP OP_HASH160 ff10d6272b6b17cd3180e14eefcaa631677e6d37 OP_EQUALVERIFY OP_CHECKSIG",
            "hex": "76a914ff10d6272b6b17cd3180e14eefcaa631677e6d3788ac",
            "reqSigs": 1,
            "type": "pubkeyhash",
            "addresses": [
              "LiUcjxDHEGdDhsnTmWDRPqJEkBH3SAEmtw"
            ]
          }
        }, 
        {
          "value": 20.92430516,
          "n": 1,
          "scriptPubKey": {
            "asm": "OP_DUP OP_HASH160 73c1ef127d02138889cd434986f25b770cbcc2d9 OP_EQUALVERIFY OP_CHECKSIG",
            "hex": "76a91473c1ef127d02138889cd434986f25b770cbcc2d988ac",
            "reqSigs": 1,
            "type": "pubkeyhash",
            "addresses": [
              "LVn2J31TNCUrW2EpTkGXUNDWZhXF7d2Dcb"
            ]
          }
        }
      ],
      "hex": "0100000001baf0cc8160d858b651560622ceee5d0f740b7a13598a82a53b5c253a300a27b1000000006a47304402207cf10cfeed488bd92ac9557921f3df6867e9d4b131da4ea7230eb3351de3573e02204fac82cf7cd22a9fb9ad22746e83ac611c82b9338141c38fb3afd35316a8e9a10121023916fa91ca62b06da89d3f9d852881e73b8a9623aa0de6cf05a22109e2f3c72bfeffffff0268287300000000001976a914ff10d6272b6b17cd3180e14eefcaa631677e6d3788acb4f4b77c000000001976a91473c1ef127d02138889cd434986f25b770cbcc2d988ac95b61400"
    }, 
    {
      "txid": "ec9134c7d2fecd324b7a534f37887a7dbd9e40ede995d782edd27d2b037884ea",
      "hash": "ec9134c7d2fecd324b7a534f37887a7dbd9e40ede995d782edd27d2b037884ea",
      "version": 1,
      "size": 226,
      "vsize": 226,
      "locktime": 0,
      "vin": [
        {
          "txid": "caf27ff14815b53b8f4e4f526005bf992045f2e652ce9b0feaef930c7db65f67",
          "vout": 1,
          "scriptSig": {
            "asm": "3045022100ccc962fe146fb25af55b24b7026f3b8e937228eb2c0081edf54ec4db6ee0f3d8022039da26815404274e4588dbf055ae46fcd0989635f3566b2db1f18cd0aa2a17dc[ALL] 038eb4dea4694b456b594fb24516ed6abb2f2caea07dd490c3a9dad778ac1495f7",
            "hex": "483045022100ccc962fe146fb25af55b24b7026f3b8e937228eb2c0081edf54ec4db6ee0f3d8022039da26815404274e4588dbf055ae46fcd0989635f3566b2db1f18cd0aa2a17dc0121038eb4dea4694b456b594fb24516ed6abb2f2caea07dd490c3a9dad778ac1495f7"
          },
          "sequence": 4294967295
        }
      ],
      "vout": [
        {
          "value": 0.00702871,
          "n": 0,
          "scriptPubKey": {
            "asm": "OP_DUP OP_HASH160 3562636821d8e845da133197bae6c299a42c3f6e OP_EQUALVERIFY OP_CHECKSIG",
            "hex": "76a9143562636821d8e845da133197bae6c299a42c3f6e88ac",
            "reqSigs": 1,
            "type": "pubkeyhash",
            "addresses": [
              "LQ6DwX5p8kByJYwMLYeNDyUckTcLy8cuuX"
            ]
          }
        }, 
        {
          "value": 0.22193423,
          "n": 1,
          "scriptPubKey": {
            "asm": "OP_DUP OP_HASH160 00629facd2c9e9aeece918f155a23c26d06f8dc3 OP_EQUALVERIFY OP_CHECKSIG",
            "hex": "76a91400629facd2c9e9aeece918f155a23c26d06f8dc388ac",
            "reqSigs": 1,
            "type": "pubkeyhash",
            "addresses": [
              "LKFzQi8a1cAR9cgSLUi3d63oK5141QtvNj"
            ]
          }
        }
      ],
      "hex": "0100000001675fb67d0c93efea0f9bce52e6f2452099bf0560524f4e8f3bb51548f17ff2ca010000006b483045022100ccc962fe146fb25af55b24b7026f3b8e937228eb2c0081edf54ec4db6ee0f3d8022039da26815404274e4588dbf055ae46fcd0989635f3566b2db1f18cd0aa2a17dc0121038eb4dea4694b456b594fb24516ed6abb2f2caea07dd490c3a9dad778ac1495f7ffffffff0297b90a00000000001976a9143562636821d8e845da133197bae6c299a42c3f6e88ac0fa55201000000001976a91400629facd2c9e9aeece918f155a23c26d06f8dc388ac00000000"
    }
  ],
  "time": 1517006064,
  "mediantime": 1517005793,
  "nonce": 767040854,
  "bits": "1a047f14",
  "difficulty": 3731199.183374282,
  "chainwork": "0000000000000000000000000000000000000000000000323f4d628ae7977a8a",
  "previousblockhash": "f3fedad993225f5378703ea1fdf11676eff3850e759efa0662ba0535967e9ba0",
  "nextblockhash": "490effce80c93418c975269eff03ab78811612e6d314664807dc90f79fe20280"
}
