{
  "hash": "7b6e07f7573304f79f958373fb7499aa8599e66cc1c0703cfda88e5590715520",
  "confirmations": 1009,
  "strippedsize": 892,
  "size": 1149,
  "weight": 3825,
  "height": 1359985,
  "version": 536870912,
  "versionHex": "20000000",
  "merkleroot": "a2871dcf0b5fd3b411b3d8773f495bba9717a32ab322b87ee17a419f1b70c8df",
  "tx": [
    {
      "txid": "380f1b9c5a998e7429241a7034f5ad30cd361e0167d6f977de1855afc7fbb201",
      "hash": "662da5d3a6c60b1c1ec6af24a8fe695db255e5bc825844cc1be6ee7b0e0df7f9",
      "version": 1,
      "size": 243,
      "vsize": 216,
      "locktime": 0,
      "vin": [
        {
          "coinbase": "0371c01404c10b715afabe6d6d2f841edf1d34c6b4aae878cac0e40dd22fdd8088b9ccc7f4f6f5dd697ece057308000000000000000858000bb40f0000000c2f554b3951424b5553324e2f",
          "sequence": 0
        }
      ],
      "vout": [
        {
          "value": 25.00177896,
          "n": 0,
          "scriptPubKey": {
            "asm": "OP_DUP OP_HASH160 81308472f5a29a68cec40cbb4cd3f4be72094456 OP_EQUALVERIFY OP_CHECKSIG",
            "hex": "76a91481308472f5a29a68cec40cbb4cd3f4be7209445688ac",
            "reqSigs": 1,
            "type": "pubkeyhash",
            "addresses": [
              "LX13Z1HZKVzRDabi8CsPdGhp7YbC7Q8qtn"
            ]
          }
        }, 
        {
          "value": 0.00000000,
          "n": 1,
          "scriptPubKey": {
            "asm": "OP_RETURN aa21a9ed9b5bc79afb4f89bd592cc9d75cefda980e0600f97a436815c7b8cdf91e0debd3",
            "hex": "6a24aa21a9ed9b5bc79afb4f89bd592cc9d75cefda980e0600f97a436815c7b8cdf91e0debd3",
            "type": "nulldata"
          }
        }
      ],
      "hex": "010000000001010000000000000000000000000000000000000000000000000000000000000000ffffffff4b0371c01404c10b715afabe6d6d2f841edf1d34c6b4aae878cac0e40dd22fdd8088b9ccc7f4f6f5dd697ece057308000000000000000858000bb40f0000000c2f554b3951424b5553324e2f0000000002e8af0595000000001976a91481308472f5a29a68cec40cbb4cd3f4be7209445688ac0000000000000000266a24aa21a9ed9b5bc79afb4f89bd592cc9d75cefda980e0600f97a436815c7b8cdf91e0debd30120000000000000000000000000000000000000000000000000000000000000000000000000"
    }, 
    {
      "txid": "d8cae9fbbdc26bc0d047e2f83bfeaf799ba6c7a30dc092aaf12c01a7e28544c9",
      "hash": "d8cae9fbbdc26bc0d047e2f83bfeaf799ba6c7a30dc092aaf12c01a7e28544c9",
      "version": 1,
      "size": 226,
      "vsize": 226,
      "locktime": 0,
      "vin": [
        {
          "txid": "62943b57df457ec4a37b6c859d6738eb6c1873a2affb1bfa6d29fb4f2ead45c1",
          "vout": 1,
          "scriptSig": {
            "asm": "3045022100fb30227bc18d77fcd61615d0c16220ca161a436dd312feee1f791c4623969dc602201d9a3f87bf2beb90d4b81d0b4b760d8fe2ffc2e15e1176eef148f512a9cbea25[ALL] 02d222dc49c99145d02a31131b7ee370a77b04c5b77eef7f2f389f14710cf4d118",
            "hex": "483045022100fb30227bc18d77fcd61615d0c16220ca161a436dd312feee1f791c4623969dc602201d9a3f87bf2beb90d4b81d0b4b760d8fe2ffc2e15e1176eef148f512a9cbea25012102d222dc49c99145d02a31131b7ee370a77b04c5b77eef7f2f389f14710cf4d118"
          },
          "sequence": 4294967295
        }
      ],
      "vout": [
        {
          "value": 16.30215568,
          "n": 0,
          "scriptPubKey": {
            "asm": "OP_DUP OP_HASH160 37c0d59d4d5be93ccaed62fe357006330afdaf61 OP_EQUALVERIFY OP_CHECKSIG",
            "hex": "76a91437c0d59d4d5be93ccaed62fe357006330afdaf6188ac",
            "reqSigs": 1,
            "type": "pubkeyhash",
            "addresses": [
              "LQJkS8myUZj5cRyoMxLPvjBXBmtMA7KZoB"
            ]
          }
        }, 
        {
          "value": 24.26976073,
          "n": 1,
          "scriptPubKey": {
            "asm": "OP_DUP OP_HASH160 fbcc9e08c05a3af90271a10012f777e260065a61 OP_EQUALVERIFY OP_CHECKSIG",
            "hex": "76a914fbcc9e08c05a3af90271a10012f777e260065a6188ac",
            "reqSigs": 1,
            "type": "pubkeyhash",
            "addresses": [
              "LiBLzRVkSXJ31B8v752nFBvWDC6Bnw8yRv"
            ]
          }
        }
      ],
      "hex": "0100000001c145ad2e4ffb296dfa1bfbafa273186ceb38679d856c7ba3c47e45df573b9462010000006b483045022100fb30227bc18d77fcd61615d0c16220ca161a436dd312feee1f791c4623969dc602201d9a3f87bf2beb90d4b81d0b4b760d8fe2ffc2e15e1176eef148f512a9cbea25012102d222dc49c99145d02a31131b7ee370a77b04c5b77eef7f2f389f14710cf4d118ffffffff02901d2b61000000001976a91437c0d59d4d5be93ccaed62fe357006330afdaf6188ac49b7a890000000001976a914fbcc9e08c05a3af90271a10012f777e260065a6188ac00000000"
    }, 
    {
      "txid": "8d2f309f030f8281c2a23785dfedcc8d67c96d2ad01e3822680925598fdad7d0",
      "hash": "42a07016eb4ac1cd8a34df22a94130542ff31264083111098415bd7179bb646b",
      "version": 1,
      "size": 373,
      "vsize": 208,
      "locktime": 0,
      "vin": [
        {
          "txid": "bb484f3aecfce85f96f77f12442d8afa37f09af0d77bf50bf057ec2478012696",
          "vout": 1,
          "scriptSig": {
            "asm": "0020bd494613781b3c6d9fe35ed9714b16476e0c1f3d6b0e74407a8d5ab7b9b2d12c",
            "hex": "220020bd494613781b3c6d9fe35ed9714b16476e0c1f3d6b0e74407a8d5ab7b9b2d12c"
          },
          "txinwitness": [
            "", 
            "3044022025d673ff4770ad177e580ffa975cae3dc0754782fc531dc77bd4434545dd2340022053e6598d22390fee67d93e665e854231f0b29be592060ce7f68fb6c89cec2c9d01", 
            "3045022100e96ca5391a3de5f9cb9334600dceb35fd6100ae1252a8252de2de6e2a253d6360220769594c319292afe1b5b18a8435f5c7ed3ad23e0c2cb147bfd37ece06a0eb6c801", 
            "522102bc11e2ced528173da01a33a1a46e18c46ab0d92d2fae282dbebd9261804723ba2102f7a5c4fb349468584e63cd3eb44d784d2c96867861a475ba1da1337b2997d7b052ae"
          ],
          "sequence": 4294967295
        }
      ],
      "vout": [
        {
          "value": 1.84484800,
          "n": 0,
          "scriptPubKey": {
            "asm": "OP_DUP OP_HASH160 ef18df3c331a4d579ec9161d5718d4c43ec53e39 OP_EQUALVERIFY OP_CHECKSIG",
            "hex": "76a914ef18df3c331a4d579ec9161d5718d4c43ec53e3988ac",
            "reqSigs": 1,
            "type": "pubkeyhash",
            "addresses": [
              "Lh2BZCSz4wFqxsz4KpkNh2k1wU37hPrHfp"
            ]
          }
        }, 
        {
          "value": 22.42309900,
          "n": 1,
          "scriptPubKey": {
            "asm": "OP_HASH160 b24dd99dc6265af9b1621848900dea4f9185ccde OP_EQUAL",
            "hex": "a914b24dd99dc6265af9b1621848900dea4f9185ccde87",
            "reqSigs": 1,
            "type": "scripthash",
            "addresses": [
              "MQ9wmhANFDpxeAUoo58JPnHWPQPHzPHNd9"
            ]
          }
        }
      ],
      "hex": "010000000001019626017824ec57f00bf57bd7f09af037fa8a2d44127ff7965fe8fcec3a4f48bb0100000023220020bd494613781b3c6d9fe35ed9714b16476e0c1f3d6b0e74407a8d5ab7b9b2d12cffffffff02c003ff0a000000001976a914ef18df3c331a4d579ec9161d5718d4c43ec53e3988ac0cefa6850000000017a914b24dd99dc6265af9b1621848900dea4f9185ccde870400473044022025d673ff4770ad177e580ffa975cae3dc0754782fc531dc77bd4434545dd2340022053e6598d22390fee67d93e665e854231f0b29be592060ce7f68fb6c89cec2c9d01483045022100e96ca5391a3de5f9cb9334600dceb35fd6100ae1252a8252de2de6e2a253d6360220769594c319292afe1b5b18a8435f5c7ed3ad23e0c2cb147bfd37ece06a0eb6c80147522102bc11e2ced528173da01a33a1a46e18c46ab0d92d2fae282dbebd9261804723ba2102f7a5c4fb349468584e63cd3eb44d784d2c96867861a475ba1da1337b2997d7b052ae00000000"
    }, 
    {
      "txid": "8091d2299d64326ec1c5d98ed51e0595b5187863d9906d338ebf85c2d1ba4034",
      "hash": "8091d2299d64326ec1c5d98ed51e0595b5187863d9906d338ebf85c2d1ba4034",
      "version": 1,
      "size": 226,
      "vsize": 226,
      "locktime": 0,
      "vin": [
        {
          "txid": "19ce4410033e0ca4266bdac2d5da3135bbba286a0671e8d77ebb3c6f60518093",
          "vout": 1,
          "scriptSig": {
            "asm": "3045022100ce42b9c2ead37ad1bc1137100b1cf43933d4b271af3ad8000ab5765cbed31ff10220280bbb0c9cc5a3bb7dd0be5c6f20960a934533d02b02daf68713af3dc093b256[ALL] 02258694c5d1a7dcba48cec8a52b5455ac262424f2dd0f12749568d42b37dfbe22",
            "hex": "483045022100ce42b9c2ead37ad1bc1137100b1cf43933d4b271af3ad8000ab5765cbed31ff10220280bbb0c9cc5a3bb7dd0be5c6f20960a934533d02b02daf68713af3dc093b256012102258694c5d1a7dcba48cec8a52b5455ac262424f2dd0f12749568d42b37dfbe22"
          },
          "sequence": 4294967295
        }
      ],
      "vout": [
        {
          "value": 19.10540933,
          "n": 0,
          "scriptPubKey": {
            "asm": "OP_DUP OP_HASH160 c4eddaad394efaec0b2dd4be124fc985945c05ed OP_EQUALVERIFY OP_CHECKSIG",
            "hex": "76a914c4eddaad394efaec0b2dd4be124fc985945c05ed88ac",
            "reqSigs": 1,
            "type": "pubkeyhash",
            "addresses": [
              "LdBDeDETYthsrwof38e5aNfm5vUHVCgXhk"
            ]
          }
        }, 
        {
          "value": 1.04124021,
          "n": 1,
          "scriptPubKey": {
            "asm": "OP_DUP OP_HASH160 5d9d84a5c115ba29c35cb2f31b8fd32a7258a409 OP_EQUALVERIFY OP_CHECKSIG",
            "hex": "76a9145d9d84a5c115ba29c35cb2f31b8fd32a7258a40988ac",
            "reqSigs": 1,
            "type": "pubkeyhash",
            "addresses": [
              "LTkwoc8QkUPFY7MT6PfMtEvrhbWJEktruE"
            ]
          }
        }
      ],
      "hex": "0100000001938051606f3cbb7ed7e871066a28babb3531dad5c2da6b26a40c3e031044ce19010000006b483045022100ce42b9c2ead37ad1bc1137100b1cf43933d4b271af3ad8000ab5765cbed31ff10220280bbb0c9cc5a3bb7dd0be5c6f20960a934533d02b02daf68713af3dc093b256012102258694c5d1a7dcba48cec8a52b5455ac262424f2dd0f12749568d42b37dfbe22ffffffff02858ae071000000001976a914c4eddaad394efaec0b2dd4be124fc985945c05ed88ac75ce3406000000001976a9145d9d84a5c115ba29c35cb2f31b8fd32a7258a40988ac00000000"
    }
  ],
  "time": 1517358016,
  "mediantime": 1517357462,
  "nonce": 871885354,
  "bits": "1a042eae",
  "difficulty": 4011378.762614286,
  "chainwork": "000000000000000000000000000000000000000000000034840c00ed0e6f88e4",
  "previousblockhash": "293c67cb43cc620bc359c81fef12a99056d5c8e1e0e47c0133f51dfd1e31e4c7",
  "nextblockhash": "49110ac97301c348ddec5734b517c450ead9c6ef46c25d67086190b0506f85e2"
}
