{
  "hash": "7c2a95e29faab24428f7b4a3aabcc592ddf5d48ef5d3dd3bf64dd901e1e40bbb",
  "confirmations": 2039,
  "strippedsize": 1016,
  "size": 1052,
  "weight": 4100,
  "height": 1358955,
  "version": 536870912,
  "versionHex": "20000000",
  "merkleroot": "a8efcacca65f1f990000d191e775b8ec27134c541d858bf629f1a3416dd2f28c",
  "tx": [
    {
      "txid": "12ad8c9c01c4cbcfd305a7f57c7bc24157eb383fa9751bf6a6367d5658b6f1e0",
      "hash": "de673943e680fba7c3da73be6bdd4c99113cb4c4a64fba9bbfc4daa3f3126e15",
      "version": 1,
      "size": 243,
      "vsize": 216,
      "locktime": 0,
      "vin": [
        {
          "coinbase": "036bbc1404bde26e5afabe6d6dc7541c9e699e85926058cb5ad6d9780d6082b9099e54aa05506a535deeea233e100000000000000008e0100c00100000000c2f31354e4f4942443752432f",
          "sequence": 0
        }
      ],
      "vout": [
        {
          "value": 25.00073800,
          "n": 0,
          "scriptPubKey": {
            "asm": "OP_DUP OP_HASH160 81308472f5a29a68cec40cbb4cd3f4be72094456 OP_EQUALVERIFY OP_CHECKSIG",
            "hex": "76a91481308472f5a29a68cec40cbb4cd3f4be7209445688ac",
            "reqSigs": 1,
            "type": "pubkeyhash",
            "addresses": [
              "LX13Z1HZKVzRDabi8CsPdGhp7YbC7Q8qtn"
            ]
          }
        }, 
        {
          "value": 0.00000000,
          "n": 1,
          "scriptPubKey": {
            "asm": "OP_RETURN aa21a9edbbb29e4fb69ce566f3adfb222b3ad189b153306ad991e0388c40134044f84542",
            "hex": "6a24aa21a9edbbb29e4fb69ce566f3adfb222b3ad189b153306ad991e0388c40134044f84542",
            "type": "nulldata"
          }
        }
      ],
      "hex": "010000000001010000000000000000000000000000000000000000000000000000000000000000ffffffff4b036bbc1404bde26e5afabe6d6dc7541c9e699e85926058cb5ad6d9780d6082b9099e54aa05506a535deeea233e100000000000000008e0100c00100000000c2f31354e4f4942443752432f000000000248190495000000001976a91481308472f5a29a68cec40cbb4cd3f4be7209445688ac0000000000000000266a24aa21a9edbbb29e4fb69ce566f3adfb222b3ad189b153306ad991e0388c40134044f845420120000000000000000000000000000000000000000000000000000000000000000000000000"
    }, 
    {
      "txid": "a75ef77fcd0e184b6114e7a6c81712726cc3891064a300bcdf9aa95ae736e3ca",
      "hash": "a75ef77fcd0e184b6114e7a6c81712726cc3891064a300bcdf9aa95ae736e3ca",
      "version": 1,
      "size": 277,
      "vsize": 277,
      "locktime": 0,
      "vin": [
        {
          "txid": "16b3b1beebcb2af260b1be5f0f07a7bf970eae0ea90e1d968c6966023ba2748c",
          "vout": 1,
          "scriptSig": {
            "asm": "3045022100a57c7bc0c1c8f9072dca6a7c350f5fdd370faffa21ccf2a160db17f156eda560022012b30c4b0ec0700b81c8baa024d8d4e58da294371e7ec3b309d4efb13a734592[ALL] 02c9aa038097380585b8700a2818bb639d285a02674019e3d5f5eef9ca7d1e3569",
            "hex": "483045022100a57c7bc0c1c8f9072dca6a7c350f5fdd370faffa21ccf2a160db17f156eda560022012b30c4b0ec0700b81c8baa024d8d4e58da294371e7ec3b309d4efb13a734592012102c9aa038097380585b8700a2818bb639d285a02674019e3d5f5eef9ca7d1e3569"
          },
          "sequence": 4294967293
        }
      ],
      "vout": [
        {
          "value": 0.00000000,
          "n": 0,
          "scriptPubKey": {
            "asm": "OP_RETURN 40434f5059524f424f4030363666383633363866333865613033393035613632616561393364336564373639663566653032386262316238343766633766393861613032653962333031",
            "hex": "6a4a40434f5059524f424f4030363666383633363866333865613033393035613632616561393364336564373639663566653032386262316238343766633766393861613032653962333031",
            "type": "nulldata"
          }
        }, 
        {
          "value": 0.07553852,
          "n": 1,
          "scriptPubKey": {
            "asm": "OP_DUP OP_HASH160 21628d11a546e6d6f056201bf1e56a0431a20d8a OP_EQUALVERIFY OP_CHECKSIG",
            "hex": "76a91421628d11a546e6d6f056201bf1e56a0431a20d8a88ac",
            "reqSigs": 1,
            "type": "pubkeyhash",
            "addresses": [
              "LNGUczQ8G6LJzzpCZjzUwQM81fJzXtg8Tr"
            ]
          }
        }
      ],
      "hex": "01000000018c74a23b0266698c961d0ea90eae0e97bfa7070f5fbeb160f22acbebbeb1b316010000006b483045022100a57c7bc0c1c8f9072dca6a7c350f5fdd370faffa21ccf2a160db17f156eda560022012b30c4b0ec0700b81c8baa024d8d4e58da294371e7ec3b309d4efb13a734592012102c9aa038097380585b8700a2818bb639d285a02674019e3d5f5eef9ca7d1e3569fdffffff0200000000000000004c6a4a40434f5059524f424f40303636663836333638663338656130333930356136326165613933643365643736396635666530323862623162383437666337663938616130326539623330313c437300000000001976a91421628d11a546e6d6f056201bf1e56a0431a20d8a88ac00000000"
    }, 
    {
      "txid": "f0db8073873cda8409b3b0fbf5719dd3665f57b13e77f477c3d4e571ec36ef88",
      "hash": "f0db8073873cda8409b3b0fbf5719dd3665f57b13e77f477c3d4e571ec36ef88",
      "version": 1,
      "size": 225,
      "vsize": 225,
      "locktime": 0,
      "vin": [
        {
          "txid": "ce56b4e390d0f2fba4a2dc5154c8d65abb9e924df9f425b156a2ac94af5fb06f",
          "vout": 1,
          "scriptSig": {
            "asm": "304402201de51319e5ad45fed7f0b800c90639a0725164c1fc58c9137c1f4b58fbe8ce22022075a2b09274802bffa50cc76a8b910a15c30b9b53c68f8a169bb23302eab306d9[ALL] 02260658ecdfc36c889050c850295d60f4b35266a9abef6e856f94125a49908fa2",
            "hex": "47304402201de51319e5ad45fed7f0b800c90639a0725164c1fc58c9137c1f4b58fbe8ce22022075a2b09274802bffa50cc76a8b910a15c30b9b53c68f8a169bb23302eab306d9012102260658ecdfc36c889050c850295d60f4b35266a9abef6e856f94125a49908fa2"
          },
          "sequence": 4294967295
        }
      ],
      "vout": [
        {
          "value": 0.06900448,
          "n": 0,
          "scriptPubKey": {
            "asm": "OP_DUP OP_HASH160 4a9b0135ae5c27e57dc13e5ef5d7c8230ae80df5 OP_EQUALVERIFY OP_CHECKSIG",
            "hex": "76a9144a9b0135ae5c27e57dc13e5ef5d7c8230ae80df588ac",
            "reqSigs": 1,
            "type": "pubkeyhash",
            "addresses": [
              "LS2RxKqYTSPt4qW77qheVza7xD9wZKVT7h"
            ]
          }
        }, 
        {
          "value": 0.29977400,
          "n": 1,
          "scriptPubKey": {
            "asm": "OP_DUP OP_HASH160 8d51fc73b960eb759f0daa3113105bb7f79eb5f8 OP_EQUALVERIFY OP_CHECKSIG",
            "hex": "76a9148d51fc73b960eb759f0daa3113105bb7f79eb5f888ac",
            "reqSigs": 1,
            "type": "pubkeyhash",
            "addresses": [
              "LY7BkkvGpXSTYRKVREEh7KH7CkXT2mqiRd"
            ]
          }
        }
      ],
      "hex": "01000000016fb05faf94aca256b125f4f94d929ebb5ad6c85451dca2a4fbf2d090e3b456ce010000006a47304402201de51319e5ad45fed7f0b800c90639a0725164c1fc58c9137c1f4b58fbe8ce22022075a2b09274802bffa50cc76a8b910a15c30b9b53c68f8a169bb23302eab306d9012102260658ecdfc36c889050c850295d60f4b35266a9abef6e856f94125a49908fa2ffffffff02e04a6900000000001976a9144a9b0135ae5c27e57dc13e5ef5d7c8230ae80df588ac386bc901000000001976a9148d51fc73b960eb759f0daa3113105bb7f79eb5f888ac00000000"
    }, 
    {
      "txid": "71554ab3450956bbca6dab46ef7391a13ce702aa26cbd07134098ed965e2dbd2",
      "hash": "71554ab3450956bbca6dab46ef7391a13ce702aa26cbd07134098ed965e2dbd2",
      "version": 1,
      "size": 226,
      "vsize": 226,
      "locktime": 0,
      "vin": [
        {
          "txid": "80d1300fc32bf4915c9327556770d8168f8a2eb9ea54635f0d0ad55c78a501e8",
          "vout": 0,
          "scriptSig": {
            "asm": "3045022100c2de0e87fcc8db5f1914efede45875a0db75c464d3501db4108f56893ee412190220294b3654e2261555caf6c0221acb267a5e62ea3993fe5aa95034f8ed092f3da2[ALL] 027f98cbe10a1f82fdc0c3eecd245825bfe13d4b42bb34e2760133339108443e12",
            "hex": "483045022100c2de0e87fcc8db5f1914efede45875a0db75c464d3501db4108f56893ee412190220294b3654e2261555caf6c0221acb267a5e62ea3993fe5aa95034f8ed092f3da20121027f98cbe10a1f82fdc0c3eecd245825bfe13d4b42bb34e2760133339108443e12"
          },
          "sequence": 4294967295
        }
      ],
      "vout": [
        {
          "value": 1.46494044,
          "n": 0,
          "scriptPubKey": {
            "asm": "OP_DUP OP_HASH160 0e4ac7333a9c015d97ad7ea997ab02555756b41c OP_EQUALVERIFY OP_CHECKSIG",
            "hex": "76a9140e4ac7333a9c015d97ad7ea997ab02555756b41c88ac",
            "reqSigs": 1,
            "type": "pubkeyhash",
            "addresses": [
              "LLXXJaEnjQxxieoqiVrXnHPJ4NjRR7pBTh"
            ]
          }
        }, 
        {
          "value": 26.61152345,
          "n": 1,
          "scriptPubKey": {
            "asm": "OP_DUP OP_HASH160 cec9c6a9caf1d7e8ecb675c73c82c30326a0314d OP_EQUALVERIFY OP_CHECKSIG",
            "hex": "76a914cec9c6a9caf1d7e8ecb675c73c82c30326a0314d88ac",
            "reqSigs": 1,
            "type": "pubkeyhash",
            "addresses": [
              "Le5MBNfRq4u8ukho17rwB8PczSgq5zHzux"
            ]
          }
        }
      ],
      "hex": "0100000001e801a5785cd50a0d5f6354eab92e8a8f16d870675527935c91f42bc30f30d180000000006b483045022100c2de0e87fcc8db5f1914efede45875a0db75c464d3501db4108f56893ee412190220294b3654e2261555caf6c0221acb267a5e62ea3993fe5aa95034f8ed092f3da20121027f98cbe10a1f82fdc0c3eecd245825bfe13d4b42bb34e2760133339108443e12ffffffff025c52bb08000000001976a9140e4ac7333a9c015d97ad7ea997ab02555756b41c88ac59f69d9e000000001976a914cec9c6a9caf1d7e8ecb675c73c82c30326a0314d88ac00000000"
    }
  ],
  "time": 1517216417,
  "mediantime": 1517216039,
  "nonce": 443548477,
  "bits": "1a042eae",
  "difficulty": 4011378.762614286,
  "chainwork": "0000000000000000000000000000000000000000000000338dc5fee98e4987d8",
  "previousblockhash": "24d0ba0794136394ba6cd5a493a153a396066051e18da124f0616fe88471d103",
  "nextblockhash": "a5d8eac05d35fef6d3e7cb9116762a771bef18a17bf3da16afab66596de7f248"
}
