{
  "hash": "7c386dbded773db2f5785b09b5e8f36d3e3b9b7669328f348793e9f55ed0fff3",
  "confirmations": 3594,
  "strippedsize": 254,
  "size": 254,
  "weight": 1016,
  "height": 1357401,
  "version": 536870912,
  "versionHex": "20000000",
  "merkleroot": "14e26b45089c2020a53feed2bc1fbc0dab611ee3ab9d0cf5213f20a837d81ab4",
  "tx": [
    {
      "txid": "14e26b45089c2020a53feed2bc1fbc0dab611ee3ab9d0cf5213f20a837d81ab4",
      "hash": "14e26b45089c2020a53feed2bc1fbc0dab611ee3ab9d0cf5213f20a837d81ab4",
      "version": 1,
      "size": 173,
      "vsize": 173,
      "locktime": 0,
      "vin": [
        {
          "coinbase": "0359b6141b4d696e656420627920416e74506f6f6c20626a312045205a6b8e54fabe6d6dfed3ab90b8dcac2935eff5e3cf972a05999ac44503aa7d2d088aca933e10989204000000000000008b2800000000000004000000",
          "sequence": 4294967295
        }
      ],
      "vout": [
        {
          "value": 25.00000000,
          "n": 0,
          "scriptPubKey": {
            "asm": "OP_DUP OP_HASH160 0ff3ccc5e8be88afe24b5d634e5852d474dbdff1 OP_EQUALVERIFY OP_CHECKSIG",
            "hex": "76a9140ff3ccc5e8be88afe24b5d634e5852d474dbdff188ac",
            "reqSigs": 1,
            "type": "pubkeyhash",
            "addresses": [
              "LLgJTbzZMsRTCUF1NtvvL9SR1a4pVieW89"
            ]
          }
        }
      ],
      "hex": "01000000010000000000000000000000000000000000000000000000000000000000000000ffffffff580359b6141b4d696e656420627920416e74506f6f6c20626a312045205a6b8e54fabe6d6dfed3ab90b8dcac2935eff5e3cf972a05999ac44503aa7d2d088aca933e10989204000000000000008b2800000000000004000000ffffffff0100f90295000000001976a9140ff3ccc5e8be88afe24b5d634e5852d474dbdff188ac00000000"
    }
  ],
  "time": 1516998228,
  "mediantime": 1516997609,
  "nonce": 3619217676,
  "bits": "1a047f14",
  "difficulty": 3731199.183374282,
  "chainwork": "000000000000000000000000000000000000000000000032314a83bb7b523024",
  "previousblockhash": "2d228a11820e94b3c6918b24629ea464612f3035d739a5d3dcc853f4dba9068b",
  "nextblockhash": "91e796f91478877f3f9e5f3264ea8a282ad980938b3a37f4a4475c1a41135997"
}
