{
  "hash": "7c3d0670b8ce41e060f35a1118dafcab5862c7b7cf04bfde741dbc4fe205d8ea",
  "confirmations": 1300,
  "strippedsize": 2275,
  "size": 2311,
  "weight": 9136,
  "height": 1359694,
  "version": 536870912,
  "versionHex": "20000000",
  "merkleroot": "d07092d12ae32075856a0c8e90462697da57135585723cf356059fffe9e9b2fb",
  "tx": [
    {
      "txid": "4c88184deeeeadffb9d8aa1fd2ce153482104630e4bdee8ab817141602c2eaa3",
      "hash": "33e574bc0525ff1ee9ff4c0be185339e446151f54cf3420ee739a58eff0ce810",
      "version": 1,
      "size": 243,
      "vsize": 216,
      "locktime": 0,
      "vin": [
        {
          "coinbase": "034ebf1404c174705afabe6d6d22e5050e819b22c30db0e02b0fd6f32efff63ec4268bf4e795a5bb666e9d0dac100000000000000008e039af28010000000c2f4b3248505044464e4b462f",
          "sequence": 0
        }
      ],
      "vout": [
        {
          "value": 25.00297200,
          "n": 0,
          "scriptPubKey": {
            "asm": "OP_DUP OP_HASH160 81308472f5a29a68cec40cbb4cd3f4be72094456 OP_EQUALVERIFY OP_CHECKSIG",
            "hex": "76a91481308472f5a29a68cec40cbb4cd3f4be7209445688ac",
            "reqSigs": 1,
            "type": "pubkeyhash",
            "addresses": [
              "LX13Z1HZKVzRDabi8CsPdGhp7YbC7Q8qtn"
            ]
          }
        }, 
        {
          "value": 0.00000000,
          "n": 1,
          "scriptPubKey": {
            "asm": "OP_RETURN aa21a9ed927fee6de0d5b5c1aa1be343870e3a88d4b4d3e2e22425a8cbcc8afcb08ea10e",
            "hex": "6a24aa21a9ed927fee6de0d5b5c1aa1be343870e3a88d4b4d3e2e22425a8cbcc8afcb08ea10e",
            "type": "nulldata"
          }
        }
      ],
      "hex": "010000000001010000000000000000000000000000000000000000000000000000000000000000ffffffff4b034ebf1404c174705afabe6d6d22e5050e819b22c30db0e02b0fd6f32efff63ec4268bf4e795a5bb666e9d0dac100000000000000008e039af28010000000c2f4b3248505044464e4b462f0000000002f0810795000000001976a91481308472f5a29a68cec40cbb4cd3f4be7209445688ac0000000000000000266a24aa21a9ed927fee6de0d5b5c1aa1be343870e3a88d4b4d3e2e22425a8cbcc8afcb08ea10e0120000000000000000000000000000000000000000000000000000000000000000000000000"
    }, 
    {
      "txid": "eea42d2a4f96dd0c2c880218124be87f16cc524f1d2a71061efbc23c924c8146",
      "hash": "eea42d2a4f96dd0c2c880218124be87f16cc524f1d2a71061efbc23c924c8146",
      "version": 2,
      "size": 522,
      "vsize": 522,
      "locktime": 1359692,
      "vin": [
        {
          "txid": "e5ed4d496d1aa809c7b3ade0e85721d913cae4473e13b124a26418e5d8126e05",
          "vout": 1,
          "scriptSig": {
            "asm": "3045022100cb8d0c8733faf99fc1ad82081d30012d5faa0346fefcc94dace5d8d203db718a022023a0ed4990efdf3457b5eafa87eeb502465a83084be6a5d2323422103ccd2cf6[ALL] 021e71f29646827b36abd34ea7e7c0f8d67dd86f7515f8b4506058bb862930a05c",
            "hex": "483045022100cb8d0c8733faf99fc1ad82081d30012d5faa0346fefcc94dace5d8d203db718a022023a0ed4990efdf3457b5eafa87eeb502465a83084be6a5d2323422103ccd2cf60121021e71f29646827b36abd34ea7e7c0f8d67dd86f7515f8b4506058bb862930a05c"
          },
          "sequence": 4294967294
        }, 
        {
          "txid": "bf1d91724961c28858aeab02b35d54c8073533d341127316eb4bd1346f546439",
          "vout": 1,
          "scriptSig": {
            "asm": "3045022100d94a92915b717e64362fedc34858655d9ea19158095faf233eb40a70b4f310660220641b0ba1fc338230e12b28398c4bb7efc07924cee16b6755d3f68cf3aa2fd62f[ALL] 0286984859c05e4a1ddd7341501b26373fa2f4c9c6d8248de041eb3a2f2a4ebe16",
            "hex": "483045022100d94a92915b717e64362fedc34858655d9ea19158095faf233eb40a70b4f310660220641b0ba1fc338230e12b28398c4bb7efc07924cee16b6755d3f68cf3aa2fd62f01210286984859c05e4a1ddd7341501b26373fa2f4c9c6d8248de041eb3a2f2a4ebe16"
          },
          "sequence": 4294967294
        }, 
        {
          "txid": "98209e8433441654af52802f51e23b7caaee299b270c721b129636f327a24b84",
          "vout": 0,
          "scriptSig": {
            "asm": "3045022100c94aca95527156053b2f4982bf7c3f34664310942f3b154d9600dde1a60ef0d40220201088aee70afa69c7bf00a5827e57da431ab7f67f086e8ca7110c676a5edc4f[ALL] 0366930074faa357f6abbd43447e0dbd59932aceb378376df49e5e7f7dc1373e82",
            "hex": "483045022100c94aca95527156053b2f4982bf7c3f34664310942f3b154d9600dde1a60ef0d40220201088aee70afa69c7bf00a5827e57da431ab7f67f086e8ca7110c676a5edc4f01210366930074faa357f6abbd43447e0dbd59932aceb378376df49e5e7f7dc1373e82"
          },
          "sequence": 4294967294
        }
      ],
      "vout": [
        {
          "value": 0.10503860,
          "n": 0,
          "scriptPubKey": {
            "asm": "OP_DUP OP_HASH160 5ef3b63585fc23d22a996b6057b0758eb1531a48 OP_EQUALVERIFY OP_CHECKSIG",
            "hex": "76a9145ef3b63585fc23d22a996b6057b0758eb1531a4888ac",
            "reqSigs": 1,
            "type": "pubkeyhash",
            "addresses": [
              "LTt1jdm71ksZ4iKoNhiYv4ex846hX3ctpJ"
            ]
          }
        }, 
        {
          "value": 0.01304321,
          "n": 1,
          "scriptPubKey": {
            "asm": "OP_DUP OP_HASH160 7503672c301f4b369d428f7b7dd1b91298c311b1 OP_EQUALVERIFY OP_CHECKSIG",
            "hex": "76a9147503672c301f4b369d428f7b7dd1b91298c311b188ac",
            "reqSigs": 1,
            "type": "pubkeyhash",
            "addresses": [
              "LVtfQ6vmqU57euidGfyHLfofnppx35RfGN"
            ]
          }
        }
      ],
      "hex": "0200000003056e12d8e51864a224b1133e47e4ca13d92157e8e0adb3c709a81a6d494dede5010000006b483045022100cb8d0c8733faf99fc1ad82081d30012d5faa0346fefcc94dace5d8d203db718a022023a0ed4990efdf3457b5eafa87eeb502465a83084be6a5d2323422103ccd2cf60121021e71f29646827b36abd34ea7e7c0f8d67dd86f7515f8b4506058bb862930a05cfeffffff3964546f34d14beb16731241d3333507c8545db302abae5888c2614972911dbf010000006b483045022100d94a92915b717e64362fedc34858655d9ea19158095faf233eb40a70b4f310660220641b0ba1fc338230e12b28398c4bb7efc07924cee16b6755d3f68cf3aa2fd62f01210286984859c05e4a1ddd7341501b26373fa2f4c9c6d8248de041eb3a2f2a4ebe16feffffff844ba227f33696121b720c279b29eeaa7c3be2512f8052af54164433849e2098000000006b483045022100c94aca95527156053b2f4982bf7c3f34664310942f3b154d9600dde1a60ef0d40220201088aee70afa69c7bf00a5827e57da431ab7f67f086e8ca7110c676a5edc4f01210366930074faa357f6abbd43447e0dbd59932aceb378376df49e5e7f7dc1373e82feffffff02b446a000000000001976a9145ef3b63585fc23d22a996b6057b0758eb1531a4888ac01e71300000000001976a9147503672c301f4b369d428f7b7dd1b91298c311b188ac4cbf1400"
    }, 
    {
      "txid": "27fd331ef429d6edb977ecf84498c44850191637230cee0c9b8102be2c866d88",
      "hash": "27fd331ef429d6edb977ecf84498c44850191637230cee0c9b8102be2c866d88",
      "version": 1,
      "size": 338,
      "vsize": 338,
      "locktime": 0,
      "vin": [
        {
          "txid": "5527233129d787acaf350ee045cd6c6882d7469eb888cd0da2994fa4b62956b1",
          "vout": 0,
          "scriptSig": {
            "asm": "3044022014a6166159bb1dc4bce4b8cfb2233d4d23f2f7a7e5678ebe2366c0ca0b559d3502203a38f91292f87092b746bdea63c0a1d03de2fb257f9d62e69136c8989e728057[ALL] 0252561d962b420d6f20ee52988608447ed4d7a1f7df161e4107670236003d5a98",
            "hex": "473044022014a6166159bb1dc4bce4b8cfb2233d4d23f2f7a7e5678ebe2366c0ca0b559d3502203a38f91292f87092b746bdea63c0a1d03de2fb257f9d62e69136c8989e72805701210252561d962b420d6f20ee52988608447ed4d7a1f7df161e4107670236003d5a98"
          },
          "sequence": 4294967295
        }, 
        {
          "txid": "71cd03966b61d70dba82b59288283a9f3481081ad5bf3e43e1ff9ccfcb80ddc0",
          "vout": 0,
          "scriptSig": {
            "asm": "3044022068110fa706be014fb9a45b8ff2b3a9a85d89b2d77f6293f75f500d9464bcfbfe022063d7d0ea3cc3399adaaf045929de1e4acb5bd2a879414d6ac9f737b1b10a28f6[ALL] 0252561d962b420d6f20ee52988608447ed4d7a1f7df161e4107670236003d5a98",
            "hex": "473044022068110fa706be014fb9a45b8ff2b3a9a85d89b2d77f6293f75f500d9464bcfbfe022063d7d0ea3cc3399adaaf045929de1e4acb5bd2a879414d6ac9f737b1b10a28f601210252561d962b420d6f20ee52988608447ed4d7a1f7df161e4107670236003d5a98"
          },
          "sequence": 4294967295
        }
      ],
      "vout": [
        {
          "value": 3.69965800,
          "n": 0,
          "scriptPubKey": {
            "asm": "OP_DUP OP_HASH160 4a9af47e74d6026fc7e2a8da01f48f979bb72001 OP_EQUALVERIFY OP_CHECKSIG",
            "hex": "76a9144a9af47e74d6026fc7e2a8da01f48f979bb7200188ac",
            "reqSigs": 1,
            "type": "pubkeyhash",
            "addresses": [
              "LS2RtsfkVvbZ3hauCjNh1pM6yKCav4iWY9"
            ]
          }
        }
      ],
      "hex": "0100000002b15629b6a44f99a20dcd88b89e46d782686ccd45e00e35afac87d72931232755000000006a473044022014a6166159bb1dc4bce4b8cfb2233d4d23f2f7a7e5678ebe2366c0ca0b559d3502203a38f91292f87092b746bdea63c0a1d03de2fb257f9d62e69136c8989e72805701210252561d962b420d6f20ee52988608447ed4d7a1f7df161e4107670236003d5a98ffffffffc0dd80cbcf9cffe1433ebfd51a0881349f3a288892b582ba0dd7616b9603cd71000000006a473044022068110fa706be014fb9a45b8ff2b3a9a85d89b2d77f6293f75f500d9464bcfbfe022063d7d0ea3cc3399adaaf045929de1e4acb5bd2a879414d6ac9f737b1b10a28f601210252561d962b420d6f20ee52988608447ed4d7a1f7df161e4107670236003d5a98ffffffff01e83a0d16000000001976a9144a9af47e74d6026fc7e2a8da01f48f979bb7200188ac00000000"
    }, 
    {
      "txid": "93fd44b55cb3397fc6ec96e3bb653b223f8daa891e6441060385a8d350ac4c10",
      "hash": "93fd44b55cb3397fc6ec96e3bb653b223f8daa891e6441060385a8d350ac4c10",
      "version": 1,
      "size": 225,
      "vsize": 225,
      "locktime": 0,
      "vin": [
        {
          "txid": "90b74f736827e0847efd3e23fbf545b4478f0890e2a623c2a22ba754754b0d95",
          "vout": 0,
          "scriptSig": {
            "asm": "3044022020343a8c2d89cde98c494d9f2065df821700f84095dd94507fb5da3d0eebdb060220126ab59e92c85a2c97ceef2ce84b6866f4e5a31141be96dcdec189060fba4642[ALL] 02331ead12212d06f22e0617f13c18f3072fa85840ffe7ef15a2bf36e8eae8239b",
            "hex": "473044022020343a8c2d89cde98c494d9f2065df821700f84095dd94507fb5da3d0eebdb060220126ab59e92c85a2c97ceef2ce84b6866f4e5a31141be96dcdec189060fba4642012102331ead12212d06f22e0617f13c18f3072fa85840ffe7ef15a2bf36e8eae8239b"
          },
          "sequence": 4294967295
        }
      ],
      "vout": [
        {
          "value": 0.34652456,
          "n": 0,
          "scriptPubKey": {
            "asm": "OP_DUP OP_HASH160 ce4732bd0dae2915a91abfb21440e004a1dcc7e3 OP_EQUALVERIFY OP_CHECKSIG",
            "hex": "76a914ce4732bd0dae2915a91abfb21440e004a1dcc7e388ac",
            "reqSigs": 1,
            "type": "pubkeyhash",
            "addresses": [
              "Le2ekfftPXHUvbW445crTAEM9ah4ERxhxv"
            ]
          }
        }, 
        {
          "value": 1.55336927,
          "n": 1,
          "scriptPubKey": {
            "asm": "OP_DUP OP_HASH160 d9e9d425ac4d387524fe06bda9676770581dd16a OP_EQUALVERIFY OP_CHECKSIG",
            "hex": "76a914d9e9d425ac4d387524fe06bda9676770581dd16a88ac",
            "reqSigs": 1,
            "type": "pubkeyhash",
            "addresses": [
              "Lf6B1YTFdPM4omxMRxtNKDe9uF3XQt9QzX"
            ]
          }
        }
      ],
      "hex": "0100000001950d4b7554a72ba2c223a6e290088f47b445f5fb233efd7e84e02768734fb790000000006a473044022020343a8c2d89cde98c494d9f2065df821700f84095dd94507fb5da3d0eebdb060220126ab59e92c85a2c97ceef2ce84b6866f4e5a31141be96dcdec189060fba4642012102331ead12212d06f22e0617f13c18f3072fa85840ffe7ef15a2bf36e8eae8239bffffffff0228c11002000000001976a914ce4732bd0dae2915a91abfb21440e004a1dcc7e388acdf404209000000001976a914d9e9d425ac4d387524fe06bda9676770581dd16a88ac00000000"
    }, 
    {
      "txid": "066d9f4c694ce6c9b37ba85591243a735872a7cb640f558b9e48f1e87c8d3816",
      "hash": "066d9f4c694ce6c9b37ba85591243a735872a7cb640f558b9e48f1e87c8d3816",
      "version": 1,
      "size": 225,
      "vsize": 225,
      "locktime": 0,
      "vin": [
        {
          "txid": "c26bd9ad7e6e045c6788f35a9fd86946b1025e51c9036e1ecac705feb2f29e97",
          "vout": 1,
          "scriptSig": {
            "asm": "304402201b4b2e47c6f4f8fef1f9a96a3741f8aa1aebd04dfe831534f0ac5ebb5349631002207484540ce7b402ca1a8f45b2b9bd914506614e23167850fc3c10ec0bedc58fa7[ALL] 034084ff72c52aeef40e65bc3010929b8d61bfc537c6cbd9cdac2c32bee2ed7981",
            "hex": "47304402201b4b2e47c6f4f8fef1f9a96a3741f8aa1aebd04dfe831534f0ac5ebb5349631002207484540ce7b402ca1a8f45b2b9bd914506614e23167850fc3c10ec0bedc58fa70121034084ff72c52aeef40e65bc3010929b8d61bfc537c6cbd9cdac2c32bee2ed7981"
          },
          "sequence": 4294967295
        }
      ],
      "vout": [
        {
          "value": 5.35483374,
          "n": 0,
          "scriptPubKey": {
            "asm": "OP_DUP OP_HASH160 a3c2b256fc6c91e02e885a2be7263c7b7a986e88 OP_EQUALVERIFY OP_CHECKSIG",
            "hex": "76a914a3c2b256fc6c91e02e885a2be7263c7b7a986e8888ac",
            "reqSigs": 1,
            "type": "pubkeyhash",
            "addresses": [
              "La9qeEwBrDVd1tvn9X4fncE9sHTx1wprnE"
            ]
          }
        }, 
        {
          "value": 26.29893812,
          "n": 1,
          "scriptPubKey": {
            "asm": "OP_DUP OP_HASH160 8bee57029d76e41b8f0d9db906fb1204cb35ba22 OP_EQUALVERIFY OP_CHECKSIG",
            "hex": "76a9148bee57029d76e41b8f0d9db906fb1204cb35ba2288ac",
            "reqSigs": 1,
            "type": "pubkeyhash",
            "addresses": [
              "LXyqi2HD9dmYhrjQ3zuo34xmwiXS5TCSkv"
            ]
          }
        }
      ],
      "hex": "0100000001979ef2b2fe05c7ca1e6e03c9515e02b14669d89f5af388675c046e7eadd96bc2010000006a47304402201b4b2e47c6f4f8fef1f9a96a3741f8aa1aebd04dfe831534f0ac5ebb5349631002207484540ce7b402ca1a8f45b2b9bd914506614e23167850fc3c10ec0bedc58fa70121034084ff72c52aeef40e65bc3010929b8d61bfc537c6cbd9cdac2c32bee2ed7981ffffffff02eed3ea1f000000001976a914a3c2b256fc6c91e02e885a2be7263c7b7a986e8888acb4fec09c000000001976a9148bee57029d76e41b8f0d9db906fb1204cb35ba2288ac00000000"
    }, 
    {
      "txid": "761c260916d738e74c69fb7e7c61c3f915fcc71b36f759f20ddd3c10a5df8f5c",
      "hash": "761c260916d738e74c69fb7e7c61c3f915fcc71b36f759f20ddd3c10a5df8f5c",
      "version": 1,
      "size": 225,
      "vsize": 225,
      "locktime": 0,
      "vin": [
        {
          "txid": "9aac087dff22503e3647f72d10a24e70c5a7b2e00917f4452f5078957c6c9538",
          "vout": 0,
          "scriptSig": {
            "asm": "30440220377a58413f94fb3ef84acd58cda4fc6a7aa89c12ddb46b66fc7a21fd2e7c031e022028bb68bcdae9fdaf8feb97753b54b7b3f34b0febaf836973a66e867b3bc55c6f[ALL] 03b6f8fd4abdb846b05fede6cd1b28e54ee5db28e366ff9a07df63826b3524cf58",
            "hex": "4730440220377a58413f94fb3ef84acd58cda4fc6a7aa89c12ddb46b66fc7a21fd2e7c031e022028bb68bcdae9fdaf8feb97753b54b7b3f34b0febaf836973a66e867b3bc55c6f012103b6f8fd4abdb846b05fede6cd1b28e54ee5db28e366ff9a07df63826b3524cf58"
          },
          "sequence": 4294967295
        }
      ],
      "vout": [
        {
          "value": 0.00155322,
          "n": 0,
          "scriptPubKey": {
            "asm": "OP_DUP OP_HASH160 e8b3c0138363d65a67e4656b0c1852bc25e7d502 OP_EQUALVERIFY OP_CHECKSIG",
            "hex": "76a914e8b3c0138363d65a67e4656b0c1852bc25e7d50288ac",
            "reqSigs": 1,
            "type": "pubkeyhash",
            "addresses": [
              "LgSNMzDZd9xmUEAp1XLNgxfnbxDeh8skVV"
            ]
          }
        }, 
        {
          "value": 0.98641656,
          "n": 1,
          "scriptPubKey": {
            "asm": "OP_DUP OP_HASH160 c1d32658dc44a69eec8ae25905b95b00b30e2d8f OP_EQUALVERIFY OP_CHECKSIG",
            "hex": "76a914c1d32658dc44a69eec8ae25905b95b00b30e2d8f88ac",
            "reqSigs": 1,
            "type": "pubkeyhash",
            "addresses": [
              "LctodBTa3CdcbZv6YrrUMfdXMckJEafeTN"
            ]
          }
        }
      ],
      "hex": "010000000138956c7c9578502f45f41709e0b2a7c5704ea2102df747363e5022ff7d08ac9a000000006a4730440220377a58413f94fb3ef84acd58cda4fc6a7aa89c12ddb46b66fc7a21fd2e7c031e022028bb68bcdae9fdaf8feb97753b54b7b3f34b0febaf836973a66e867b3bc55c6f012103b6f8fd4abdb846b05fede6cd1b28e54ee5db28e366ff9a07df63826b3524cf58ffffffff02ba5e0200000000001976a914e8b3c0138363d65a67e4656b0c1852bc25e7d50288acf826e105000000001976a914c1d32658dc44a69eec8ae25905b95b00b30e2d8f88ac00000000"
    }, 
    {
      "txid": "e2e6278b82f4af05c9adf039a3f42e155d49856dfd2780d933758e76be19627e",
      "hash": "e2e6278b82f4af05c9adf039a3f42e155d49856dfd2780d933758e76be19627e",
      "version": 1,
      "size": 226,
      "vsize": 226,
      "locktime": 0,
      "vin": [
        {
          "txid": "e3904ecd1c012f9c42ea392229d7f78604580d291c60f8b252dd4767cf361e34",
          "vout": 0,
          "scriptSig": {
            "asm": "3045022100c699b7441046d2f55ae46776d220ca159758369be698c912b6ab99b913e832d0022070a70e507199110ebe538308b47e616475aeb4b25a3c5c6fb4f03987a7ed32fb[ALL] 0396bb9419a65a2d6237bb28c6e2910a320e55444ef18e84436bfafb8fe5be2ad1",
            "hex": "483045022100c699b7441046d2f55ae46776d220ca159758369be698c912b6ab99b913e832d0022070a70e507199110ebe538308b47e616475aeb4b25a3c5c6fb4f03987a7ed32fb01210396bb9419a65a2d6237bb28c6e2910a320e55444ef18e84436bfafb8fe5be2ad1"
          },
          "sequence": 4294967295
        }
      ],
      "vout": [
        {
          "value": 0.30000000,
          "n": 0,
          "scriptPubKey": {
            "asm": "OP_DUP OP_HASH160 6d4addf8cb3e430fda98664a35399b2f25ea1af8 OP_EQUALVERIFY OP_CHECKSIG",
            "hex": "76a9146d4addf8cb3e430fda98664a35399b2f25ea1af888ac",
            "reqSigs": 1,
            "type": "pubkeyhash",
            "addresses": [
              "LVBqbyhA8Ss7FDT94RxLvwCx9M8n7jPSK8"
            ]
          }
        }, 
        {
          "value": 0.08357878,
          "n": 1,
          "scriptPubKey": {
            "asm": "OP_DUP OP_HASH160 8c7767cb454f1b7dc36dc9dec14dc86a37ef6a7b OP_EQUALVERIFY OP_CHECKSIG",
            "hex": "76a9148c7767cb454f1b7dc36dc9dec14dc86a37ef6a7b88ac",
            "reqSigs": 1,
            "type": "pubkeyhash",
            "addresses": [
              "LY2fuWFJ2YwzxZqVWk9vkSzMqN5WURUWYY"
            ]
          }
        }
      ],
      "hex": "0100000001341e36cf6747dd52b2f8601c290d580486f7d7292239ea429c2f011ccd4e90e3000000006b483045022100c699b7441046d2f55ae46776d220ca159758369be698c912b6ab99b913e832d0022070a70e507199110ebe538308b47e616475aeb4b25a3c5c6fb4f03987a7ed32fb01210396bb9419a65a2d6237bb28c6e2910a320e55444ef18e84436bfafb8fe5be2ad1ffffffff0280c3c901000000001976a9146d4addf8cb3e430fda98664a35399b2f25ea1af888acf6877f00000000001976a9148c7767cb454f1b7dc36dc9dec14dc86a37ef6a7b88ac00000000"
    }, 
    {
      "txid": "47cfdc6c5638240ccf75ce8191038936e9e6876762db8ab16b9e4e77e224c3a3",
      "hash": "47cfdc6c5638240ccf75ce8191038936e9e6876762db8ab16b9e4e77e224c3a3",
      "version": 1,
      "size": 226,
      "vsize": 226,
      "locktime": 0,
      "vin": [
        {
          "txid": "e97176bc984786d744f3437bf04e7b5cdb55bcf3e12a549eef43121a16cf8145",
          "vout": 1,
          "scriptSig": {
            "asm": "304502210082b38b1b07d7fb514f2351ba6c5dce2187539567815eeb491003369e55595d860220669a3d54ec4e53729b46d3e3b086ba06fd7f016f0b5b47722bbc21bc598cfd19[ALL] 026e50c84836e7e050703f414bdd535dfda351f101597ff11e13dee8ed310677c3",
            "hex": "48304502210082b38b1b07d7fb514f2351ba6c5dce2187539567815eeb491003369e55595d860220669a3d54ec4e53729b46d3e3b086ba06fd7f016f0b5b47722bbc21bc598cfd190121026e50c84836e7e050703f414bdd535dfda351f101597ff11e13dee8ed310677c3"
          },
          "sequence": 4294967295
        }
      ],
      "vout": [
        {
          "value": 0.00602335,
          "n": 0,
          "scriptPubKey": {
            "asm": "OP_DUP OP_HASH160 b45a2f221dcd6901e5e4efde80947ee1b5745831 OP_EQUALVERIFY OP_CHECKSIG",
            "hex": "76a914b45a2f221dcd6901e5e4efde80947ee1b574583188ac",
            "reqSigs": 1,
            "type": "pubkeyhash",
            "addresses": [
              "LbfZvqwW4fGEDRy13NWCHqW25ZqTmst9HF"
            ]
          }
        }, 
        {
          "value": 0.23252465,
          "n": 1,
          "scriptPubKey": {
            "asm": "OP_DUP OP_HASH160 85ad34881506114d6549beffe0129e963ab0efd0 OP_EQUALVERIFY OP_CHECKSIG",
            "hex": "76a91485ad34881506114d6549beffe0129e963ab0efd088ac",
            "reqSigs": 1,
            "type": "pubkeyhash",
            "addresses": [
              "LXQmdEaEjAdbLeq4gro2t9uq8FHqrPuUCs"
            ]
          }
        }
      ],
      "hex": "01000000014581cf161a1243ef9e542ae1f3bc55db5c7b4ef07b43f344d7864798bc7671e9010000006b48304502210082b38b1b07d7fb514f2351ba6c5dce2187539567815eeb491003369e55595d860220669a3d54ec4e53729b46d3e3b086ba06fd7f016f0b5b47722bbc21bc598cfd190121026e50c84836e7e050703f414bdd535dfda351f101597ff11e13dee8ed310677c3ffffffff02df300900000000001976a914b45a2f221dcd6901e5e4efde80947ee1b574583188acf1cd6201000000001976a91485ad34881506114d6549beffe0129e963ab0efd088ac00000000"
    }
  ],
  "time": 1517319361,
  "mediantime": 1517319061,
  "nonce": 1654944085,
  "bits": "1a042eae",
  "difficulty": 4011378.762614286,
  "chainwork": "0000000000000000000000000000000000000000000000343e77f9e51bb0da1e",
  "previousblockhash": "93bdedec20dff0a0079823d320a4c69660e7cc6a92de8b291ddb11fefbdaf18a",
  "nextblockhash": "646f9d70c2cbbb30defa494c929c5f26d41403d1d27cf2ef957f8231ec9cf7c7"
}
