{
  "hash": "7c44674d8de9b9be8b832d98ca1205619fea15eee20071d98c0e368d982d0b52",
  "confirmations": 433,
  "strippedsize": 4537,
  "size": 4573,
  "weight": 18184,
  "height": 1360561,
  "version": 536870912,
  "versionHex": "20000000",
  "merkleroot": "f08f3a12a9b05851402706635c57303b553cf2a6723223656da1b26dfba5f02d",
  "tx": [
    {
      "txid": "7bd729e96f175923ebb874315e71bc0962eb860caefbd1c98c6a51c5605e1b25",
      "hash": "2a48d676831e389306378c300c5f5e346b0c542ee2fa06a84d08b4e36a59d332",
      "version": 1,
      "size": 240,
      "vsize": 213,
      "locktime": 0,
      "vin": [
        {
          "coinbase": "03b1c21404a371725a080192102329000000fabe6d6d193fca1c901d2ab8df5c871684d0d4b048004a05b9a869258aa071fc5c1c86f84000000000000000092f4c54432e544f502f",
          "sequence": 0
        }
      ],
      "vout": [
        {
          "value": 25.00762755,
          "n": 0,
          "scriptPubKey": {
            "asm": "OP_DUP OP_HASH160 0c617fdb2ea42aed30a509595ee21ba3f6688db0 OP_EQUALVERIFY OP_CHECKSIG",
            "hex": "76a9140c617fdb2ea42aed30a509595ee21ba3f6688db088ac",
            "reqSigs": 1,
            "type": "pubkeyhash",
            "addresses": [
              "LLMRAtr3qBje2ySEa3CnZ55LA4TQMWnRY3"
            ]
          }
        }, 
        {
          "value": 0.00000000,
          "n": 1,
          "scriptPubKey": {
            "asm": "OP_RETURN aa21a9ed2b8f8f916429e2fc8a263842c8bf9f7025bddbd1f4f97b146312fab311db5e3b",
            "hex": "6a24aa21a9ed2b8f8f916429e2fc8a263842c8bf9f7025bddbd1f4f97b146312fab311db5e3b",
            "type": "nulldata"
          }
        }
      ],
      "hex": "010000000001010000000000000000000000000000000000000000000000000000000000000000ffffffff4803b1c21404a371725a080192102329000000fabe6d6d193fca1c901d2ab8df5c871684d0d4b048004a05b9a869258aa071fc5c1c86f84000000000000000092f4c54432e544f502f0000000002839c0e95000000001976a9140c617fdb2ea42aed30a509595ee21ba3f6688db088ac0000000000000000266a24aa21a9ed2b8f8f916429e2fc8a263842c8bf9f7025bddbd1f4f97b146312fab311db5e3b0120000000000000000000000000000000000000000000000000000000000000000000000000"
    }, 
    {
      "txid": "9d66c9249c91b6bc768908c0012ead68beddc6b4343b23e6a0e8970c7392d847",
      "hash": "9d66c9249c91b6bc768908c0012ead68beddc6b4343b23e6a0e8970c7392d847",
      "version": 1,
      "size": 225,
      "vsize": 225,
      "locktime": 0,
      "vin": [
        {
          "txid": "ecf978ff9c54d70facca72f08a202d8223298f837f3f6a91f4676f5caf43b2bc",
          "vout": 1,
          "scriptSig": {
            "asm": "304402205495ec06fa6cb9e7adf57b577e4b4bd8d3cb9da1beb3eb7bac29998d3370e991022022c7b9e9d30964cc40d3c688ecde053377e85c79806e38711e64c357c772721f[ALL] 03930e35f4ed848b3110b32083768d0f57139d6d9a7ba889826cf01b629df3f32c",
            "hex": "47304402205495ec06fa6cb9e7adf57b577e4b4bd8d3cb9da1beb3eb7bac29998d3370e991022022c7b9e9d30964cc40d3c688ecde053377e85c79806e38711e64c357c772721f012103930e35f4ed848b3110b32083768d0f57139d6d9a7ba889826cf01b629df3f32c"
          },
          "sequence": 4294967295
        }
      ],
      "vout": [
        {
          "value": 0.02113000,
          "n": 0,
          "scriptPubKey": {
            "asm": "OP_DUP OP_HASH160 788239084727343afc99595694d66d23f2479520 OP_EQUALVERIFY OP_CHECKSIG",
            "hex": "76a914788239084727343afc99595694d66d23f247952088ac",
            "reqSigs": 1,
            "type": "pubkeyhash",
            "addresses": [
              "LWD9MGdGZBDrSmWK7YuntzVLsLpSAK9Yj8"
            ]
          }
        }, 
        {
          "value": 0.20257600,
          "n": 1,
          "scriptPubKey": {
            "asm": "OP_DUP OP_HASH160 1d331882f0d348a61a3ff52c9de75c8a52fd4ee3 OP_EQUALVERIFY OP_CHECKSIG",
            "hex": "76a9141d331882f0d348a61a3ff52c9de75c8a52fd4ee388ac",
            "reqSigs": 1,
            "type": "pubkeyhash",
            "addresses": [
              "LMtM4yGNvTEiP5pWqyvH41Qpz2jsHpwXB3"
            ]
          }
        }
      ],
      "hex": "0100000001bcb243af5c6f67f4916a3f7f838f2923822d208af072caac0fd7549cff78f9ec010000006a47304402205495ec06fa6cb9e7adf57b577e4b4bd8d3cb9da1beb3eb7bac29998d3370e991022022c7b9e9d30964cc40d3c688ecde053377e85c79806e38711e64c357c772721f012103930e35f4ed848b3110b32083768d0f57139d6d9a7ba889826cf01b629df3f32cffffffff02e83d2000000000001976a914788239084727343afc99595694d66d23f247952088ac401b3501000000001976a9141d331882f0d348a61a3ff52c9de75c8a52fd4ee388ac00000000"
    }, 
    {
      "txid": "6632bc757447292236864c8da02385f7319c9e048fae57f5fbc24b0abffc3d86",
      "hash": "6632bc757447292236864c8da02385f7319c9e048fae57f5fbc24b0abffc3d86",
      "version": 1,
      "size": 226,
      "vsize": 226,
      "locktime": 0,
      "vin": [
        {
          "txid": "dcc08a493f9641314e9c1e3fdb18d93d52cb60c2286edba73007e2f9f6ca666e",
          "vout": 0,
          "scriptSig": {
            "asm": "3045022100b97630d0ab4a3dbfee82471095004f3951d791a2da622fb41ce99b0ca0ac8efc02203a7e7cb4ee10115ed5d1018c334e9ea426c498ab8a2fe10a02f8fd206d3e747d[ALL] 0356b9f7cb1cb99e8943b5447598c608debb1753f0cb22907e7cd592f00fe4e5f9",
            "hex": "483045022100b97630d0ab4a3dbfee82471095004f3951d791a2da622fb41ce99b0ca0ac8efc02203a7e7cb4ee10115ed5d1018c334e9ea426c498ab8a2fe10a02f8fd206d3e747d01210356b9f7cb1cb99e8943b5447598c608debb1753f0cb22907e7cd592f00fe4e5f9"
          },
          "sequence": 4294967295
        }
      ],
      "vout": [
        {
          "value": 0.92057604,
          "n": 0,
          "scriptPubKey": {
            "asm": "OP_DUP OP_HASH160 c07c2f9c21b95c9e386241013bd16140aa3d3394 OP_EQUALVERIFY OP_CHECKSIG",
            "hex": "76a914c07c2f9c21b95c9e386241013bd16140aa3d339488ac",
            "reqSigs": 1,
            "type": "pubkeyhash",
            "addresses": [
              "LcmimdvHG57nkfcKtYV5RCpt8HRcYqVs2n"
            ]
          }
        }, 
        {
          "value": 1.00000000,
          "n": 1,
          "scriptPubKey": {
            "asm": "OP_DUP OP_HASH160 7297d8bf9dd3dd4f256fa9f45681e27a8277fe8c OP_EQUALVERIFY OP_CHECKSIG",
            "hex": "76a9147297d8bf9dd3dd4f256fa9f45681e27a8277fe8c88ac",
            "reqSigs": 1,
            "type": "pubkeyhash",
            "addresses": [
              "LVfsCaDeX5t4kdiSYU4fZwnWCacPQuKQDT"
            ]
          }
        }
      ],
      "hex": "01000000016e66caf6f9e20730a7db6e28c260cb523dd918db3f1e9c4e3141963f498ac0dc000000006b483045022100b97630d0ab4a3dbfee82471095004f3951d791a2da622fb41ce99b0ca0ac8efc02203a7e7cb4ee10115ed5d1018c334e9ea426c498ab8a2fe10a02f8fd206d3e747d01210356b9f7cb1cb99e8943b5447598c608debb1753f0cb22907e7cd592f00fe4e5f9ffffffff0204b07c05000000001976a914c07c2f9c21b95c9e386241013bd16140aa3d339488ac00e1f505000000001976a9147297d8bf9dd3dd4f256fa9f45681e27a8277fe8c88ac00000000"
    }, 
    {
      "txid": "8466d3941ff55b4d80cf15be9590b977d65c1bac57842b44d64b1cc01fb8ab79",
      "hash": "8466d3941ff55b4d80cf15be9590b977d65c1bac57842b44d64b1cc01fb8ab79",
      "version": 2,
      "size": 226,
      "vsize": 226,
      "locktime": 1360559,
      "vin": [
        {
          "txid": "662dfa73d916d4857332c7a481fd400e0b02ad9369bb6d96c804f4d0cd6d0b53",
          "vout": 0,
          "scriptSig": {
            "asm": "3045022100ef45619c781e96364e12767b57921875be1372c9b1d0fa95120677b5c04ddcd1022022abe8167b0e769190342b861d3890741f414f3ae81cb9ac336dc69b4b90a4e3[ALL] 02e6b840b491aa13355ff5589e9c1e105970d2aeb31a0810b0e1d4858a123e83b4",
            "hex": "483045022100ef45619c781e96364e12767b57921875be1372c9b1d0fa95120677b5c04ddcd1022022abe8167b0e769190342b861d3890741f414f3ae81cb9ac336dc69b4b90a4e3012102e6b840b491aa13355ff5589e9c1e105970d2aeb31a0810b0e1d4858a123e83b4"
          },
          "sequence": 4294967294
        }
      ],
      "vout": [
        {
          "value": 0.60292574,
          "n": 0,
          "scriptPubKey": {
            "asm": "OP_DUP OP_HASH160 8e665e244d795856d15273424df3ba21639435c5 OP_EQUALVERIFY OP_CHECKSIG",
            "hex": "76a9148e665e244d795856d15273424df3ba21639435c588ac",
            "reqSigs": 1,
            "type": "pubkeyhash",
            "addresses": [
              "LYCtr65J92FfDUbBgEfosHWSwTP5GVzep1"
            ]
          }
        }, 
        {
          "value": 0.09091364,
          "n": 1,
          "scriptPubKey": {
            "asm": "OP_DUP OP_HASH160 e54cffd031efc9d9dfc18e77eca7166624b3ce26 OP_EQUALVERIFY OP_CHECKSIG",
            "hex": "76a914e54cffd031efc9d9dfc18e77eca7166624b3ce2688ac",
            "reqSigs": 1,
            "type": "pubkeyhash",
            "addresses": [
              "Lg8PF9P1LEXnVYus4HiqixYgr8VQg7cbju"
            ]
          }
        }
      ],
      "hex": "0200000001530b6dcdd0f404c8966dbb6993ad020b0e40fd81a4c7327385d416d973fa2d66000000006b483045022100ef45619c781e96364e12767b57921875be1372c9b1d0fa95120677b5c04ddcd1022022abe8167b0e769190342b861d3890741f414f3ae81cb9ac336dc69b4b90a4e3012102e6b840b491aa13355ff5589e9c1e105970d2aeb31a0810b0e1d4858a123e83b4feffffff02defd9703000000001976a9148e665e244d795856d15273424df3ba21639435c588ac24b98a00000000001976a914e54cffd031efc9d9dfc18e77eca7166624b3ce2688acafc21400"
    }, 
    {
      "txid": "1bab5029f9394f7cd4c2a9b10cb728c9e1db27cfc0ef9d5d6d45af8d0472bf38",
      "hash": "1bab5029f9394f7cd4c2a9b10cb728c9e1db27cfc0ef9d5d6d45af8d0472bf38",
      "version": 1,
      "size": 225,
      "vsize": 225,
      "locktime": 0,
      "vin": [
        {
          "txid": "2a2ea8c6d8c79bf5a7faf70f6c9f769ece77b83c598b6620aac8722d01768229",
          "vout": 0,
          "scriptSig": {
            "asm": "304402206ac2703207ca236b0827101a0a10e90098c68a835a173cd2d138dc805d8269810220291385aa59aa50587d3db8e9a13ff6fd8a3c4c24b56fb5530a9b1ed9f99fc6c0[ALL] 02e1575d4de19dbd9eed55ff585c08f8b43de5def4681f6bf76fbab6f94583c270",
            "hex": "47304402206ac2703207ca236b0827101a0a10e90098c68a835a173cd2d138dc805d8269810220291385aa59aa50587d3db8e9a13ff6fd8a3c4c24b56fb5530a9b1ed9f99fc6c0012102e1575d4de19dbd9eed55ff585c08f8b43de5def4681f6bf76fbab6f94583c270"
          },
          "sequence": 4294967295
        }
      ],
      "vout": [
        {
          "value": 0.05552000,
          "n": 0,
          "scriptPubKey": {
            "asm": "OP_DUP OP_HASH160 42b65a4587cecec65d2ef3787005a2c0afdac71c OP_EQUALVERIFY OP_CHECKSIG",
            "hex": "76a91442b65a4587cecec65d2ef3787005a2c0afdac71c88ac",
            "reqSigs": 1,
            "type": "pubkeyhash",
            "addresses": [
              "LRJhJxQybdnS1SptKwxK7f5nzLsZ4jRyK1"
            ]
          }
        }, 
        {
          "value": 0.00057479,
          "n": 1,
          "scriptPubKey": {
            "asm": "OP_DUP OP_HASH160 6bb1e6e260163167269ac51b775f037cfd89eb06 OP_EQUALVERIFY OP_CHECKSIG",
            "hex": "76a9146bb1e6e260163167269ac51b775f037cfd89eb0688ac",
            "reqSigs": 1,
            "type": "pubkeyhash",
            "addresses": [
              "LV3PgaY2N5yseByWjRjyw5XcAHAnYNixfR"
            ]
          }
        }
      ],
      "hex": "0100000001298276012d72c8aa20668b593cb877ce9e769f6c0ff7faa7f59bc7d8c6a82e2a000000006a47304402206ac2703207ca236b0827101a0a10e90098c68a835a173cd2d138dc805d8269810220291385aa59aa50587d3db8e9a13ff6fd8a3c4c24b56fb5530a9b1ed9f99fc6c0012102e1575d4de19dbd9eed55ff585c08f8b43de5def4681f6bf76fbab6f94583c270ffffffff0280b75400000000001976a91442b65a4587cecec65d2ef3787005a2c0afdac71c88ac87e00000000000001976a9146bb1e6e260163167269ac51b775f037cfd89eb0688ac00000000"
    }, 
    {
      "txid": "e1994d0103306a06234b25af23b4e31ca1d8d81e7ef028ed7c09081ec5c06c4d",
      "hash": "e1994d0103306a06234b25af23b4e31ca1d8d81e7ef028ed7c09081ec5c06c4d",
      "version": 1,
      "size": 192,
      "vsize": 192,
      "locktime": 0,
      "vin": [
        {
          "txid": "1bab5029f9394f7cd4c2a9b10cb728c9e1db27cfc0ef9d5d6d45af8d0472bf38",
          "vout": 0,
          "scriptSig": {
            "asm": "3045022100861da835a20db22d517e07715e634df5b121f748a42369248417c80b3f4c0f460220580a2b149d507a425db041f7f64c5d63bb057bb3cb9cd32c352473dc6a9ea181[ALL] 02c860789686ccfaad850dceb61c3ade7803075d3e4a7ba11f243497a99e2ac68d",
            "hex": "483045022100861da835a20db22d517e07715e634df5b121f748a42369248417c80b3f4c0f460220580a2b149d507a425db041f7f64c5d63bb057bb3cb9cd32c352473dc6a9ea181012102c860789686ccfaad850dceb61c3ade7803075d3e4a7ba11f243497a99e2ac68d"
          },
          "sequence": 4294967295
        }
      ],
      "vout": [
        {
          "value": 0.05504823,
          "n": 0,
          "scriptPubKey": {
            "asm": "OP_DUP OP_HASH160 57e985aff7d58229d9ab7722d47df9c599f0bb43 OP_EQUALVERIFY OP_CHECKSIG",
            "hex": "76a91457e985aff7d58229d9ab7722d47df9c599f0bb4388ac",
            "reqSigs": 1,
            "type": "pubkeyhash",
            "addresses": [
              "LTEnoJx6o6NF5KUPWUKUH4Pb1jyYmqCgUJ"
            ]
          }
        }
      ],
      "hex": "010000000138bf72048daf456d5d9defc0cf27dbe1c928b70cb1a9c2d47c4f39f92950ab1b000000006b483045022100861da835a20db22d517e07715e634df5b121f748a42369248417c80b3f4c0f460220580a2b149d507a425db041f7f64c5d63bb057bb3cb9cd32c352473dc6a9ea181012102c860789686ccfaad850dceb61c3ade7803075d3e4a7ba11f243497a99e2ac68dffffffff0137ff5300000000001976a91457e985aff7d58229d9ab7722d47df9c599f0bb4388ac00000000"
    }, 
    {
      "txid": "b866c5bf936d16e901564d371f165ab39d31f71d6b746850674a78d05b660714",
      "hash": "b866c5bf936d16e901564d371f165ab39d31f71d6b746850674a78d05b660714",
      "version": 1,
      "size": 225,
      "vsize": 225,
      "locktime": 0,
      "vin": [
        {
          "txid": "a29824ae80c4d6bb2a78c081fd57f279bf1ebb629f450b2d6774a97956f69ff0",
          "vout": 1,
          "scriptSig": {
            "asm": "304402201d8e300a89ee669d4cc3396ce9e6c012698455bced31743135556159a2135eda022016861a66ee52d0ae08a9490d0a92c019478c68cf96ff1c62815aa7f50d7b9de0[ALL] 035d03c4e263496d95e28d88ab20fec6d9cfbd00bc783d7a532c8433cc9be1ef0f",
            "hex": "47304402201d8e300a89ee669d4cc3396ce9e6c012698455bced31743135556159a2135eda022016861a66ee52d0ae08a9490d0a92c019478c68cf96ff1c62815aa7f50d7b9de00121035d03c4e263496d95e28d88ab20fec6d9cfbd00bc783d7a532c8433cc9be1ef0f"
          },
          "sequence": 4294967295
        }
      ],
      "vout": [
        {
          "value": 0.52458722,
          "n": 0,
          "scriptPubKey": {
            "asm": "OP_DUP OP_HASH160 205a541f234a17ff4646ee384fd6f2c2fdfcf04a OP_EQUALVERIFY OP_CHECKSIG",
            "hex": "76a914205a541f234a17ff4646ee384fd6f2c2fdfcf04a88ac",
            "reqSigs": 1,
            "type": "pubkeyhash",
            "addresses": [
              "LNB26VXsPEghxFbgec3TuiauPs6bR6xHoQ"
            ]
          }
        }, 
        {
          "value": 89.44393072,
          "n": 1,
          "scriptPubKey": {
            "asm": "OP_DUP OP_HASH160 aee154139b1700d6efdafc24879185e5505685af OP_EQUALVERIFY OP_CHECKSIG",
            "hex": "76a914aee154139b1700d6efdafc24879185e5505685af88ac",
            "reqSigs": 1,
            "type": "pubkeyhash",
            "addresses": [
              "LbAdmggDG2e9wUbUKRnPeb4FjET2t7X64T"
            ]
          }
        }
      ],
      "hex": "0100000001f09ff65679a974672d0b459f62bb1ebf79f257fd81c0782abbd6c480ae2498a2010000006a47304402201d8e300a89ee669d4cc3396ce9e6c012698455bced31743135556159a2135eda022016861a66ee52d0ae08a9490d0a92c019478c68cf96ff1c62815aa7f50d7b9de00121035d03c4e263496d95e28d88ab20fec6d9cfbd00bc783d7a532c8433cc9be1ef0fffffffff02e2742003000000001976a914205a541f234a17ff4646ee384fd6f2c2fdfcf04a88ac709b2015020000001976a914aee154139b1700d6efdafc24879185e5505685af88ac00000000"
    }, 
    {
      "txid": "e81ad663002edf6d6b4e63760d9772ba5edcfe3c89b858da09e50b14f3662d25",
      "hash": "e81ad663002edf6d6b4e63760d9772ba5edcfe3c89b858da09e50b14f3662d25",
      "version": 1,
      "size": 225,
      "vsize": 225,
      "locktime": 0,
      "vin": [
        {
          "txid": "144bc20949ce763a234b11fd7786f80c1e00c05095142f8ce8fd16752c856d2c",
          "vout": 0,
          "scriptSig": {
            "asm": "3044022040d0e5e4c1cec9184902883c29aadf4fca7afd10c63fe146a9d7f84edd02ec9202205a11934a3cb3b09557e2fd0426c41ce96bb14f85f1c476fb87eb8714a24b4d79[ALL] 034a22cac0fc598bf09da9ca14c14faea037e70168525bd32d980e85b29f016059",
            "hex": "473044022040d0e5e4c1cec9184902883c29aadf4fca7afd10c63fe146a9d7f84edd02ec9202205a11934a3cb3b09557e2fd0426c41ce96bb14f85f1c476fb87eb8714a24b4d790121034a22cac0fc598bf09da9ca14c14faea037e70168525bd32d980e85b29f016059"
          },
          "sequence": 4294967295
        }
      ],
      "vout": [
        {
          "value": 88.08094088,
          "n": 0,
          "scriptPubKey": {
            "asm": "OP_DUP OP_HASH160 09c4972d9294f198c1f3c11b224354f794fc518a OP_EQUALVERIFY OP_CHECKSIG",
            "hex": "76a91409c4972d9294f198c1f3c11b224354f794fc518a88ac",
            "reqSigs": 1,
            "type": "pubkeyhash",
            "addresses": [
              "LL7brHkW7VnhgGzXGXVRjyhCY7U6fHSwut"
            ]
          }
        }, 
        {
          "value": 0.99977400,
          "n": 1,
          "scriptPubKey": {
            "asm": "OP_DUP OP_HASH160 dab6fd803111808d37254fffcdac6d14c2017bbf OP_EQUALVERIFY OP_CHECKSIG",
            "hex": "76a914dab6fd803111808d37254fffcdac6d14c2017bbf88ac",
            "reqSigs": 1,
            "type": "pubkeyhash",
            "addresses": [
              "LfAQnR7oEseh9wADzBfP1ENouHsS7Tvv4R"
            ]
          }
        }
      ],
      "hex": "01000000012c6d852c7516fde88c2f149550c0001e0cf88677fd114b233a76ce4909c24b14000000006a473044022040d0e5e4c1cec9184902883c29aadf4fca7afd10c63fe146a9d7f84edd02ec9202205a11934a3cb3b09557e2fd0426c41ce96bb14f85f1c476fb87eb8714a24b4d790121034a22cac0fc598bf09da9ca14c14faea037e70168525bd32d980e85b29f016059ffffffff0288d9000d020000001976a91409c4972d9294f198c1f3c11b224354f794fc518a88acb888f505000000001976a914dab6fd803111808d37254fffcdac6d14c2017bbf88ac00000000"
    }, 
    {
      "txid": "47665b59c0619dcc6f744cf9b20c25d2fe8bbe12e2622ea2e36b3ed2d054dc4f",
      "hash": "47665b59c0619dcc6f744cf9b20c25d2fe8bbe12e2622ea2e36b3ed2d054dc4f",
      "version": 1,
      "size": 225,
      "vsize": 225,
      "locktime": 0,
      "vin": [
        {
          "txid": "9f3b180af72b11be5c9945d7ea5f0e2506c6b83e44fd209b1c018fb3cbaa59ba",
          "vout": 0,
          "scriptSig": {
            "asm": "304402205f0be1f85826bd87b59c702f1e3fc86052967e4bbe6457d7b16efb4d3c600b8d0220791e3b1c3b27e1df4e5a3df7ec61c3e8fd215046234cc0d01e70af85f84e976e[ALL] 0248d24e12288a1bf7708d29898a7c91bf965b8aeacfd8ae0dc31bab42e285e721",
            "hex": "47304402205f0be1f85826bd87b59c702f1e3fc86052967e4bbe6457d7b16efb4d3c600b8d0220791e3b1c3b27e1df4e5a3df7ec61c3e8fd215046234cc0d01e70af85f84e976e01210248d24e12288a1bf7708d29898a7c91bf965b8aeacfd8ae0dc31bab42e285e721"
          },
          "sequence": 4294967295
        }
      ],
      "vout": [
        {
          "value": 0.73619632,
          "n": 0,
          "scriptPubKey": {
            "asm": "OP_DUP OP_HASH160 0bf325b3408cd578070557a1173b338181ee5463 OP_EQUALVERIFY OP_CHECKSIG",
            "hex": "76a9140bf325b3408cd578070557a1173b338181ee546388ac",
            "reqSigs": 1,
            "type": "pubkeyhash",
            "addresses": [
              "LLK8yVTJPzthQFWdpD5XR9gDtG75QodiM1"
            ]
          }
        }, 
        {
          "value": 87.08853118,
          "n": 1,
          "scriptPubKey": {
            "asm": "OP_DUP OP_HASH160 a124baa5641a3b99953b99a5826eae9102b7a348 OP_EQUALVERIFY OP_CHECKSIG",
            "hex": "76a914a124baa5641a3b99953b99a5826eae9102b7a34888ac",
            "reqSigs": 1,
            "type": "pubkeyhash",
            "addresses": [
              "LZv145ZD8Mj5At2KmtWkgXJYRyRxYPWpUz"
            ]
          }
        }
      ],
      "hex": "0100000001ba59aacbb38f011c9b20fd443eb8c606250e5fead745995cbe112bf70a183b9f000000006a47304402205f0be1f85826bd87b59c702f1e3fc86052967e4bbe6457d7b16efb4d3c600b8d0220791e3b1c3b27e1df4e5a3df7ec61c3e8fd215046234cc0d01e70af85f84e976e01210248d24e12288a1bf7708d29898a7c91bf965b8aeacfd8ae0dc31bab42e285e721ffffffff02b0586304000000001976a9140bf325b3408cd578070557a1173b338181ee546388ac7e8d1607020000001976a914a124baa5641a3b99953b99a5826eae9102b7a34888ac00000000"
    }, 
    {
      "txid": "2d87fea15f65a0272b82634e13735eee72b60ac9a2163eb262843a20abd9f15f",
      "hash": "2d87fea15f65a0272b82634e13735eee72b60ac9a2163eb262843a20abd9f15f",
      "version": 1,
      "size": 225,
      "vsize": 225,
      "locktime": 0,
      "vin": [
        {
          "txid": "39477164357d71a9fac210bb3593edb2cc99484cdb46764e14cf2b5036071c40",
          "vout": 0,
          "scriptSig": {
            "asm": "304402202143ab9ac347f59852f84f4cc9188227c23c38e3fe4f8666190169d053fbc588022070db2281d37dbc6079bb73737d803b6b970c5e79360acff688c4ed423aa9e80e[ALL] 0263d1deb9ce0dbc3a5f123e9aa61d0a2e6e835e64a97bd6213d50a1df2d4369c2",
            "hex": "47304402202143ab9ac347f59852f84f4cc9188227c23c38e3fe4f8666190169d053fbc588022070db2281d37dbc6079bb73737d803b6b970c5e79360acff688c4ed423aa9e80e01210263d1deb9ce0dbc3a5f123e9aa61d0a2e6e835e64a97bd6213d50a1df2d4369c2"
          },
          "sequence": 4294967295
        }
      ],
      "vout": [
        {
          "value": 88.35982496,
          "n": 0,
          "scriptPubKey": {
            "asm": "OP_DUP OP_HASH160 a320eb0576aa5916fc9c7919c41da73a4f583034 OP_EQUALVERIFY OP_CHECKSIG",
            "hex": "76a914a320eb0576aa5916fc9c7919c41da73a4f58303488ac",
            "reqSigs": 1,
            "type": "pubkeyhash",
            "addresses": [
              "La6VqfgVjkyQ2UFhneTnk88gS5Q8wi3YiH"
            ]
          }
        }, 
        {
          "value": 1.00000000,
          "n": 1,
          "scriptPubKey": {
            "asm": "OP_DUP OP_HASH160 078e4daccf08a1dd18d2bcabe7e5116842ef477b OP_EQUALVERIFY OP_CHECKSIG",
            "hex": "76a914078e4daccf08a1dd18d2bcabe7e5116842ef477b88ac",
            "reqSigs": 1,
            "type": "pubkeyhash",
            "addresses": [
              "LKuuTyFXsQuPyTUcddmDsp8fGJRDGX2Vz7"
            ]
          }
        }
      ],
      "hex": "0100000001401c0736502bcf144e7646db4c4899ccb2ed9335bb10c2faa9717d3564714739000000006a47304402202143ab9ac347f59852f84f4cc9188227c23c38e3fe4f8666190169d053fbc588022070db2281d37dbc6079bb73737d803b6b970c5e79360acff688c4ed423aa9e80e01210263d1deb9ce0dbc3a5f123e9aa61d0a2e6e835e64a97bd6213d50a1df2d4369c2ffffffff02a064aa0e020000001976a914a320eb0576aa5916fc9c7919c41da73a4f58303488ac00e1f505000000001976a914078e4daccf08a1dd18d2bcabe7e5116842ef477b88ac00000000"
    }, 
    {
      "txid": "3a1f3e2b564bff9f0f259e9ee7e137218676509c111d5eed1f1f8bc1e16b069c",
      "hash": "3a1f3e2b564bff9f0f259e9ee7e137218676509c111d5eed1f1f8bc1e16b069c",
      "version": 1,
      "size": 225,
      "vsize": 225,
      "locktime": 0,
      "vin": [
        {
          "txid": "10da1ba6ee6f280dac191b1459d73194554dd2663e6f12741f9e5b69740aede6",
          "vout": 0,
          "scriptSig": {
            "asm": "304402204d4d4e519947e361da14970cd955ce0f5995dbf7a1eafb4512d49a0c0c8b651f022025a10766e4184ded8d592a37b3ac0b5835f3704f74b26acae396315cc42fa09a[ALL] 02595be55e8db91a0a6e1d64c9f6ed90cad8ef6a651c19ffd920970587f41d5e97",
            "hex": "47304402204d4d4e519947e361da14970cd955ce0f5995dbf7a1eafb4512d49a0c0c8b651f022025a10766e4184ded8d592a37b3ac0b5835f3704f74b26acae396315cc42fa09a012102595be55e8db91a0a6e1d64c9f6ed90cad8ef6a651c19ffd920970587f41d5e97"
          },
          "sequence": 4294967295
        }
      ],
      "vout": [
        {
          "value": 0.47538673,
          "n": 0,
          "scriptPubKey": {
            "asm": "OP_DUP OP_HASH160 06aad7c510058848bbf143f99b84c4a8bea4cfe7 OP_EQUALVERIFY OP_CHECKSIG",
            "hex": "76a91406aad7c510058848bbf143f99b84c4a8bea4cfe788ac",
            "reqSigs": 1,
            "type": "pubkeyhash",
            "addresses": [
              "LKqCyjVHZgBmbFgu1BopLpu8LTzUm4NYhX"
            ]
          }
        }, 
        {
          "value": 0.04511735,
          "n": 1,
          "scriptPubKey": {
            "asm": "OP_DUP OP_HASH160 222e31507c8693e1dc8b5b35363c11bdf4bc1af5 OP_EQUALVERIFY OP_CHECKSIG",
            "hex": "76a914222e31507c8693e1dc8b5b35363c11bdf4bc1af588ac",
            "reqSigs": 1,
            "type": "pubkeyhash",
            "addresses": [
              "LNLgaFnbeg7vrQfuSdd5eEKKRw13xeJ4kV"
            ]
          }
        }
      ],
      "hex": "0100000001e6ed0a74695b9e1f74126f3e66d24d559431d759141b19ac0d286feea61bda10000000006a47304402204d4d4e519947e361da14970cd955ce0f5995dbf7a1eafb4512d49a0c0c8b651f022025a10766e4184ded8d592a37b3ac0b5835f3704f74b26acae396315cc42fa09a012102595be55e8db91a0a6e1d64c9f6ed90cad8ef6a651c19ffd920970587f41d5e97ffffffff02f161d502000000001976a91406aad7c510058848bbf143f99b84c4a8bea4cfe788acf7d74400000000001976a914222e31507c8693e1dc8b5b35363c11bdf4bc1af588ac00000000"
    }, 
    {
      "txid": "532e295b1f588e4d3a98d359d032fc588bfdde3d7f0722182a8981e3cca89dec",
      "hash": "532e295b1f588e4d3a98d359d032fc588bfdde3d7f0722182a8981e3cca89dec",
      "version": 1,
      "size": 225,
      "vsize": 225,
      "locktime": 0,
      "vin": [
        {
          "txid": "04af7d1c1993fb0ccd1b5e5dd69287135425277c241788733c6ae765c8e76b13",
          "vout": 0,
          "scriptSig": {
            "asm": "30440220593c0a16085494a18710fa96015a70da007cd54ad71881448a0ffb8ab26fd94c022020163fca435ca5049a497f56126c8c28d5946c80b2a64c17f50fcdd83b830416[ALL] 0378498486514d6685668ba08da0c341dd1354844519232e4221522d13aeed35a7",
            "hex": "4730440220593c0a16085494a18710fa96015a70da007cd54ad71881448a0ffb8ab26fd94c022020163fca435ca5049a497f56126c8c28d5946c80b2a64c17f50fcdd83b83041601210378498486514d6685668ba08da0c341dd1354844519232e4221522d13aeed35a7"
          },
          "sequence": 4294967295
        }
      ],
      "vout": [
        {
          "value": 0.60131434,
          "n": 0,
          "scriptPubKey": {
            "asm": "OP_DUP OP_HASH160 282d2567483b79bd4b2d216757ba0ad934187105 OP_EQUALVERIFY OP_CHECKSIG",
            "hex": "76a914282d2567483b79bd4b2d216757ba0ad93418710588ac",
            "reqSigs": 1,
            "type": "pubkeyhash",
            "addresses": [
              "LNtPNh8ffMdrrDWkfe7cQf5xGy2eko9goF"
            ]
          }
        }, 
        {
          "value": 86.35307481,
          "n": 1,
          "scriptPubKey": {
            "asm": "OP_DUP OP_HASH160 ca9d844b53a516f43777b69922a6df69fc76e21a OP_EQUALVERIFY OP_CHECKSIG",
            "hex": "76a914ca9d844b53a516f43777b69922a6df69fc76e21a88ac",
            "reqSigs": 1,
            "type": "pubkeyhash",
            "addresses": [
              "LdhHTRKWa2MdbrsQ9DXqYWChqbmJGZQBCP"
            ]
          }
        }
      ],
      "hex": "0100000001136be7c865e76a3c738817247c272554138792d65d5e1bcd0cfb93191c7daf04000000006a4730440220593c0a16085494a18710fa96015a70da007cd54ad71881448a0ffb8ab26fd94c022020163fca435ca5049a497f56126c8c28d5946c80b2a64c17f50fcdd83b83041601210378498486514d6685668ba08da0c341dd1354844519232e4221522d13aeed35a7ffffffff026a889503000000001976a914282d2567483b79bd4b2d216757ba0ad93418710588acd955b402020000001976a914ca9d844b53a516f43777b69922a6df69fc76e21a88ac00000000"
    }, 
    {
      "txid": "e945f3442bc5d1460fc1ead45f904f2555d6e0c8e58476da373e8c5ca4e5d90f",
      "hash": "e945f3442bc5d1460fc1ead45f904f2555d6e0c8e58476da373e8c5ca4e5d90f",
      "version": 1,
      "size": 226,
      "vsize": 226,
      "locktime": 0,
      "vin": [
        {
          "txid": "9ab5fbc34a8f60442118ee657d68d2b0df79d57b2c22f8778f714480aa8c15d6",
          "vout": 0,
          "scriptSig": {
            "asm": "3045022100fb0920cfb524b837ab6f6b6a32596240da827e8c2ada941d72f890f42faa4bfd02202e184b7371282bcd140741c67d86ac18475a6b6ee497903b1381378a4ccd3622[ALL] 03fd705cc8cabf68e4eb2bdd398a2d026f3c21931313f899844cc215600779fcfc",
            "hex": "483045022100fb0920cfb524b837ab6f6b6a32596240da827e8c2ada941d72f890f42faa4bfd02202e184b7371282bcd140741c67d86ac18475a6b6ee497903b1381378a4ccd3622012103fd705cc8cabf68e4eb2bdd398a2d026f3c21931313f899844cc215600779fcfc"
          },
          "sequence": 4294967295
        }
      ],
      "vout": [
        {
          "value": 0.00054923,
          "n": 0,
          "scriptPubKey": {
            "asm": "OP_DUP OP_HASH160 b411e9080f46fc28f7ea988364f5c5de487f2bce OP_EQUALVERIFY OP_CHECKSIG",
            "hex": "76a914b411e9080f46fc28f7ea988364f5c5de487f2bce88ac",
            "reqSigs": 1,
            "type": "pubkeyhash",
            "addresses": [
              "Lbe5MAqqQx5UMyU5z2giFmue4xuVobQ4c3"
            ]
          }
        }, 
        {
          "value": 0.04860000,
          "n": 1,
          "scriptPubKey": {
            "asm": "OP_DUP OP_HASH160 96ba953f5de9ebf170083db8c494623d03d734f8 OP_EQUALVERIFY OP_CHECKSIG",
            "hex": "76a91496ba953f5de9ebf170083db8c494623d03d734f888ac",
            "reqSigs": 1,
            "type": "pubkeyhash",
            "addresses": [
              "LYxw913WSZ4rzgVjumuwwHS8nRDvz7qDJZ"
            ]
          }
        }
      ],
      "hex": "0100000001d6158caa8044718f77f8222c7bd579dfb0d2687d65ee182144608f4ac3fbb59a000000006b483045022100fb0920cfb524b837ab6f6b6a32596240da827e8c2ada941d72f890f42faa4bfd02202e184b7371282bcd140741c67d86ac18475a6b6ee497903b1381378a4ccd3622012103fd705cc8cabf68e4eb2bdd398a2d026f3c21931313f899844cc215600779fcfcffffffff028bd60000000000001976a914b411e9080f46fc28f7ea988364f5c5de487f2bce88ac60284a00000000001976a91496ba953f5de9ebf170083db8c494623d03d734f888ac00000000"
    }, 
    {
      "txid": "0ffbaa67c65cd98dd3cfc8bb1393a0f47ec2e6cbb131548c7cb4bb8931a6852d",
      "hash": "0ffbaa67c65cd98dd3cfc8bb1393a0f47ec2e6cbb131548c7cb4bb8931a6852d",
      "version": 1,
      "size": 226,
      "vsize": 226,
      "locktime": 0,
      "vin": [
        {
          "txid": "eacbaaca78d9add90fa4e450d2051631e251930324c9ff048c3d6959683db8f7",
          "vout": 1,
          "scriptSig": {
            "asm": "3045022100eba87aeb21d94b97c01dbcb13b6168986a5e77495359783fafe4a37b03c991f4022071a7c9e70d1fe6b7d76df38a64f0eb70fd0af0c29e8a26ba864d7694dbcaa713[ALL] 037bf68995fb320f0681bb0fd4e7437295691feb8cf3f9365497022e822d5d2c0a",
            "hex": "483045022100eba87aeb21d94b97c01dbcb13b6168986a5e77495359783fafe4a37b03c991f4022071a7c9e70d1fe6b7d76df38a64f0eb70fd0af0c29e8a26ba864d7694dbcaa7130121037bf68995fb320f0681bb0fd4e7437295691feb8cf3f9365497022e822d5d2c0a"
          },
          "sequence": 4294967295
        }
      ],
      "vout": [
        {
          "value": 2.02326143,
          "n": 0,
          "scriptPubKey": {
            "asm": "OP_DUP OP_HASH160 6f791b8cd6bac6559702129f88db94ffbfbf1f82 OP_EQUALVERIFY OP_CHECKSIG",
            "hex": "76a9146f791b8cd6bac6559702129f88db94ffbfbf1f8288ac",
            "reqSigs": 1,
            "type": "pubkeyhash",
            "addresses": [
              "LVPNMDC2sWbS18STrdUXBwfUkgxLB64x28"
            ]
          }
        }, 
        {
          "value": 85.84800092,
          "n": 1,
          "scriptPubKey": {
            "asm": "OP_DUP OP_HASH160 14ddcc207ebb226ec90b69c960699f83150ec527 OP_EQUALVERIFY OP_CHECKSIG",
            "hex": "76a91414ddcc207ebb226ec90b69c960699f83150ec52788ac",
            "reqSigs": 1,
            "type": "pubkeyhash",
            "addresses": [
              "LM8HUoRCxjJTDvcuiqddrGEN6GMPx4Z4ok"
            ]
          }
        }
      ],
      "hex": "0100000001f7b83d6859693d8c04ffc924039351e2311605d250e4a40fd9add978caaacbea010000006b483045022100eba87aeb21d94b97c01dbcb13b6168986a5e77495359783fafe4a37b03c991f4022071a7c9e70d1fe6b7d76df38a64f0eb70fd0af0c29e8a26ba864d7694dbcaa7130121037bf68995fb320f0681bb0fd4e7437295691feb8cf3f9365497022e822d5d2c0affffffff027f400f0c000000001976a9146f791b8cd6bac6559702129f88db94ffbfbf1f8288ac5ca7b1ff010000001976a91414ddcc207ebb226ec90b69c960699f83150ec52788ac00000000"
    }, 
    {
      "txid": "9d77d98617615b5972d9ed0799210395d51c1f1d56d2d6c06916189b246d432e",
      "hash": "9d77d98617615b5972d9ed0799210395d51c1f1d56d2d6c06916189b246d432e",
      "version": 1,
      "size": 226,
      "vsize": 226,
      "locktime": 0,
      "vin": [
        {
          "txid": "b20946ffba2480fca69825eb281f60331ec8939add5d81c126953ff1aaadcc89",
          "vout": 0,
          "scriptSig": {
            "asm": "3045022100a5a901f39ad2aac3be65351ecf0591d0c8467bbc3dd952245b67fa0c8ea636cb02207b621e8d760c46b39de222d2693106c2cf5080a6afbfa060a2b081a4ed0e0929[ALL] 021d4251bc541ab3e6a9d44ad81eccee10ef9439d8700832b68778629b48f74812",
            "hex": "483045022100a5a901f39ad2aac3be65351ecf0591d0c8467bbc3dd952245b67fa0c8ea636cb02207b621e8d760c46b39de222d2693106c2cf5080a6afbfa060a2b081a4ed0e09290121021d4251bc541ab3e6a9d44ad81eccee10ef9439d8700832b68778629b48f74812"
          },
          "sequence": 4294967295
        }
      ],
      "vout": [
        {
          "value": 0.00095050,
          "n": 0,
          "scriptPubKey": {
            "asm": "OP_DUP OP_HASH160 3147b649deea774b0b166bbd55f1d272aefdddb2 OP_EQUALVERIFY OP_CHECKSIG",
            "hex": "76a9143147b649deea774b0b166bbd55f1d272aefdddb288ac",
            "reqSigs": 1,
            "type": "pubkeyhash",
            "addresses": [
              "LPiXHFhkRcTuztXAHMeX1kSAAKovc1YH3U"
            ]
          }
        }, 
        {
          "value": 0.19460753,
          "n": 1,
          "scriptPubKey": {
            "asm": "OP_DUP OP_HASH160 5b66c9da843bd6ab8708c77c1b61e39b02aa5dea OP_EQUALVERIFY OP_CHECKSIG",
            "hex": "76a9145b66c9da843bd6ab8708c77c1b61e39b02aa5dea88ac",
            "reqSigs": 1,
            "type": "pubkeyhash",
            "addresses": [
              "LTZEtYDpV7kRp52R6Knezt1gdoFH6KJgZp"
            ]
          }
        }
      ],
      "hex": "010000000189ccadaaf13f9526c1815ddd9a93c81e33601f28eb2598a6fc8024baff4609b2000000006b483045022100a5a901f39ad2aac3be65351ecf0591d0c8467bbc3dd952245b67fa0c8ea636cb02207b621e8d760c46b39de222d2693106c2cf5080a6afbfa060a2b081a4ed0e09290121021d4251bc541ab3e6a9d44ad81eccee10ef9439d8700832b68778629b48f74812ffffffff024a730100000000001976a9143147b649deea774b0b166bbd55f1d272aefdddb288ac91f22801000000001976a9145b66c9da843bd6ab8708c77c1b61e39b02aa5dea88ac00000000"
    }, 
    {
      "txid": "4a32f3fc0a5e6d4be25e925bb8e18608e8d9bf63bc546a25f8839323d4176594",
      "hash": "4a32f3fc0a5e6d4be25e925bb8e18608e8d9bf63bc546a25f8839323d4176594",
      "version": 1,
      "size": 226,
      "vsize": 226,
      "locktime": 0,
      "vin": [
        {
          "txid": "cf61e7e24d76887fe09c479c26c50041ec71c317ae5491927c6c4de69bf5eef5",
          "vout": 75,
          "scriptSig": {
            "asm": "3045022100b4835d14c6caa7a9bd12d76f27de4b96eed3cbe736fed678cfc27feb882a0d8102205746b2a3850b836fa7604fa995edd95c98572831dbe3fb97a2e3ecc0232c2f9c[ALL] 02c72c7481440893acb4e13f85b6083fa7115bb6dea603fd06615cedc3961611de",
            "hex": "483045022100b4835d14c6caa7a9bd12d76f27de4b96eed3cbe736fed678cfc27feb882a0d8102205746b2a3850b836fa7604fa995edd95c98572831dbe3fb97a2e3ecc0232c2f9c012102c72c7481440893acb4e13f85b6083fa7115bb6dea603fd06615cedc3961611de"
          },
          "sequence": 4294967295
        }
      ],
      "vout": [
        {
          "value": 0.10000000,
          "n": 0,
          "scriptPubKey": {
            "asm": "OP_DUP OP_HASH160 a89e95c4b6271c09098ce4aa9f7b47ec6f0a3f7f OP_EQUALVERIFY OP_CHECKSIG",
            "hex": "76a914a89e95c4b6271c09098ce4aa9f7b47ec6f0a3f7f88ac",
            "reqSigs": 1,
            "type": "pubkeyhash",
            "addresses": [
              "LabXm81uStB955PwVgw5rJunNsRNJSBJ13"
            ]
          }
        }, 
        {
          "value": 0.00915701,
          "n": 1,
          "scriptPubKey": {
            "asm": "OP_DUP OP_HASH160 fcbefeee10398d498a5dd53982f4d85815e10205 OP_EQUALVERIFY OP_CHECKSIG",
            "hex": "76a914fcbefeee10398d498a5dd53982f4d85815e1020588ac",
            "reqSigs": 1,
            "type": "pubkeyhash",
            "addresses": [
              "LiGMMBC29BQAzT7EorXYuFMtFJDg9Yumxu"
            ]
          }
        }
      ],
      "hex": "0100000001f5eef59be64d6c7c929154ae17c371ec4100c5269c479ce07f88764de2e761cf4b0000006b483045022100b4835d14c6caa7a9bd12d76f27de4b96eed3cbe736fed678cfc27feb882a0d8102205746b2a3850b836fa7604fa995edd95c98572831dbe3fb97a2e3ecc0232c2f9c012102c72c7481440893acb4e13f85b6083fa7115bb6dea603fd06615cedc3961611deffffffff0280969800000000001976a914a89e95c4b6271c09098ce4aa9f7b47ec6f0a3f7f88acf5f80d00000000001976a914fcbefeee10398d498a5dd53982f4d85815e1020588ac00000000"
    }, 
    {
      "txid": "03565d78ed4f3c8ea156ded9c3e0b712164e11f830f6d4d3e1cc523c42516594",
      "hash": "03565d78ed4f3c8ea156ded9c3e0b712164e11f830f6d4d3e1cc523c42516594",
      "version": 1,
      "size": 226,
      "vsize": 226,
      "locktime": 0,
      "vin": [
        {
          "txid": "0f405a0ad18560af892cccd7b834a11a7efc78584d5f54888400bf4fbabf27f4",
          "vout": 2,
          "scriptSig": {
            "asm": "3045022100f3e680a84f1971e2b0ca111f1aa49da7e1b2bae10d76fcf2d6e8879b8165be5702203e6dae4227c4863085f81d59eedbbdb5a9850190684d2d0a19eab58e14a80b24[ALL] 03f1eaa3e40c38ffa05d8c3d03ef9cbd034d8e2b9373ffb54672aa65e738cc1459",
            "hex": "483045022100f3e680a84f1971e2b0ca111f1aa49da7e1b2bae10d76fcf2d6e8879b8165be5702203e6dae4227c4863085f81d59eedbbdb5a9850190684d2d0a19eab58e14a80b24012103f1eaa3e40c38ffa05d8c3d03ef9cbd034d8e2b9373ffb54672aa65e738cc1459"
          },
          "sequence": 4294967295
        }
      ],
      "vout": [
        {
          "value": 0.00076060,
          "n": 0,
          "scriptPubKey": {
            "asm": "OP_DUP OP_HASH160 34ab607c771865bd0ee2e6fc0464f2d529e91322 OP_EQUALVERIFY OP_CHECKSIG",
            "hex": "76a91434ab607c771865bd0ee2e6fc0464f2d529e9132288ac",
            "reqSigs": 1,
            "type": "pubkeyhash",
            "addresses": [
              "LQ2ShfTd2ycjNbfTjYrisZUG3d2vrHpjzE"
            ]
          }
        }, 
        {
          "value": 0.05000000,
          "n": 1,
          "scriptPubKey": {
            "asm": "OP_DUP OP_HASH160 39698881dcb2fad04d3bb117cde5f74e26d39fbd OP_EQUALVERIFY OP_CHECKSIG",
            "hex": "76a91439698881dcb2fad04d3bb117cde5f74e26d39fbd88ac",
            "reqSigs": 1,
            "type": "pubkeyhash",
            "addresses": [
              "LQTXCizZLhaQrGiRue3nRbLj7nnucqeyJx"
            ]
          }
        }
      ],
      "hex": "0100000001f427bfba4fbf008488545f4d5878fc7e1aa134b8d7cc2c89af6085d10a5a400f020000006b483045022100f3e680a84f1971e2b0ca111f1aa49da7e1b2bae10d76fcf2d6e8879b8165be5702203e6dae4227c4863085f81d59eedbbdb5a9850190684d2d0a19eab58e14a80b24012103f1eaa3e40c38ffa05d8c3d03ef9cbd034d8e2b9373ffb54672aa65e738cc1459ffffffff021c290100000000001976a91434ab607c771865bd0ee2e6fc0464f2d529e9132288ac404b4c00000000001976a91439698881dcb2fad04d3bb117cde5f74e26d39fbd88ac00000000"
    }, 
    {
      "txid": "ff3bb188cfd49b907e5ed2d5e198284441eb3f5c22d00b7f37a9e6c0f7d7a9a0",
      "hash": "ff3bb188cfd49b907e5ed2d5e198284441eb3f5c22d00b7f37a9e6c0f7d7a9a0",
      "version": 1,
      "size": 226,
      "vsize": 226,
      "locktime": 0,
      "vin": [
        {
          "txid": "de13258fd3aed393262d82706d7b9309184f2f0f56c53ef90e315e38154c0742",
          "vout": 1,
          "scriptSig": {
            "asm": "3045022100dc08b10597c308c81355f27f10a90d6a2e13569405e9f245618e4455b3258a1a0220779310de103d1efb59acd48230ff1dc9d9556c845e6e7b6ae7b542aba751e7db[ALL] 03420935e37dce37e92a7897099d10f51cef6c6a3567fb377398ede9558fd27790",
            "hex": "483045022100dc08b10597c308c81355f27f10a90d6a2e13569405e9f245618e4455b3258a1a0220779310de103d1efb59acd48230ff1dc9d9556c845e6e7b6ae7b542aba751e7db012103420935e37dce37e92a7897099d10f51cef6c6a3567fb377398ede9558fd27790"
          },
          "sequence": 4294967295
        }
      ],
      "vout": [
        {
          "value": 2.93937921,
          "n": 0,
          "scriptPubKey": {
            "asm": "OP_DUP OP_HASH160 c5a958b98d133295d02726865efcf2e786e33de1 OP_EQUALVERIFY OP_CHECKSIG",
            "hex": "76a914c5a958b98d133295d02726865efcf2e786e33de188ac",
            "reqSigs": 1,
            "type": "pubkeyhash",
            "addresses": [
              "LdF6FQkgM1qAL1AcaWKHU2CireB9CHGdsU"
            ]
          }
        }, 
        {
          "value": 86.98982356,
          "n": 1,
          "scriptPubKey": {
            "asm": "OP_DUP OP_HASH160 e00f4783f5a54736ac5a26a1c652d4e956a8fbb5 OP_EQUALVERIFY OP_CHECKSIG",
            "hex": "76a914e00f4783f5a54736ac5a26a1c652d4e956a8fbb588ac",
            "reqSigs": 1,
            "type": "pubkeyhash",
            "addresses": [
              "Lfefvp1kJtGUrkYw4yWndf7FpAUojsBrEq"
            ]
          }
        }
      ],
      "hex": "010000000142074c15385e310ef93ec5560f2f4f1809937b6d70822d2693d3aed38f2513de010000006b483045022100dc08b10597c308c81355f27f10a90d6a2e13569405e9f245618e4455b3258a1a0220779310de103d1efb59acd48230ff1dc9d9556c845e6e7b6ae7b542aba751e7db012103420935e37dce37e92a7897099d10f51cef6c6a3567fb377398ede9558fd27790ffffffff0201238511000000001976a914c5a958b98d133295d02726865efcf2e786e33de188acd4ef7f06020000001976a914e00f4783f5a54736ac5a26a1c652d4e956a8fbb588ac00000000"
    }, 
    {
      "txid": "36b8fddf2d7ab65054de080300a68c33e869e16ae467cb6c997fc2ae3e1c33ba",
      "hash": "36b8fddf2d7ab65054de080300a68c33e869e16ae467cb6c997fc2ae3e1c33ba",
      "version": 1,
      "size": 226,
      "vsize": 226,
      "locktime": 0,
      "vin": [
        {
          "txid": "d372eeca624cbceb17ab36f802f0a2a35ac4e3a98a1720157d65cf36a499f0e5",
          "vout": 1,
          "scriptSig": {
            "asm": "3045022100cc398bf483f83a379d843b96dd8d3b9fa5a7f17976328abe6760f38653e6b25d02207d123df899034054bc3b499fd89e60eb16812d3f49af151ee269e504e5042c99[ALL] 032babc1bfae840547a47e3d49f9eb3ee926ba6daebe381fb4dbf986eac7215103",
            "hex": "483045022100cc398bf483f83a379d843b96dd8d3b9fa5a7f17976328abe6760f38653e6b25d02207d123df899034054bc3b499fd89e60eb16812d3f49af151ee269e504e5042c990121032babc1bfae840547a47e3d49f9eb3ee926ba6daebe381fb4dbf986eac7215103"
          },
          "sequence": 4294967295
        }
      ],
      "vout": [
        {
          "value": 84.96065925,
          "n": 0,
          "scriptPubKey": {
            "asm": "OP_DUP OP_HASH160 8d57de96a59a94e81a49e9b542ed659fab35c7b5 OP_EQUALVERIFY OP_CHECKSIG",
            "hex": "76a9148d57de96a59a94e81a49e9b542ed659fab35c7b588ac",
            "reqSigs": 1,
            "type": "pubkeyhash",
            "addresses": [
              "LY7JoYGw4QwhxhmBmXTGWYwWyMg9ZF7STc"
            ]
          }
        }, 
        {
          "value": 2.99977400,
          "n": 1,
          "scriptPubKey": {
            "asm": "OP_DUP OP_HASH160 272944af244e2c5168f8461ee372be39c66d44a1 OP_EQUALVERIFY OP_CHECKSIG",
            "hex": "76a914272944af244e2c5168f8461ee372be39c66d44a188ac",
            "reqSigs": 1,
            "type": "pubkeyhash",
            "addresses": [
              "LNo244nC9iq3vRnzff63yxMMixa5wAj6aU"
            ]
          }
        }
      ],
      "hex": "0100000001e5f099a436cf657d1520178aa9e3c45aa3a2f002f836ab17ebbc4c62caee72d3010000006b483045022100cc398bf483f83a379d843b96dd8d3b9fa5a7f17976328abe6760f38653e6b25d02207d123df899034054bc3b499fd89e60eb16812d3f49af151ee269e504e5042c990121032babc1bfae840547a47e3d49f9eb3ee926ba6daebe381fb4dbf986eac7215103ffffffff0285ad67fa010000001976a9148d57de96a59a94e81a49e9b542ed659fab35c7b588acb84ae111000000001976a914272944af244e2c5168f8461ee372be39c66d44a188ac00000000"
    }, 
    {
      "txid": "0efbd0f8ef14cb0e88f721e81db316463bd74dfa5d3bfc7db2693d15600974ea",
      "hash": "0efbd0f8ef14cb0e88f721e81db316463bd74dfa5d3bfc7db2693d15600974ea",
      "version": 1,
      "size": 226,
      "vsize": 226,
      "locktime": 0,
      "vin": [
        {
          "txid": "de0129eeace4f0f842f9de7dd0b02064648ecb9a1644e1418e727c82f6798ab2",
          "vout": 0,
          "scriptSig": {
            "asm": "3045022100a39fbcf937c83b2f53cac46e35ade2e2e533509206da11681b4b8c73bdc22f6f02207c6ac5a7b47799441ca1bfebe7de4a842f3128b50b5d4d9673113246bfbbf2d1[ALL] 032677ece4b5a5fada224e23c188df911fbce425acbc35eab251cb58e445d92484",
            "hex": "483045022100a39fbcf937c83b2f53cac46e35ade2e2e533509206da11681b4b8c73bdc22f6f02207c6ac5a7b47799441ca1bfebe7de4a842f3128b50b5d4d9673113246bfbbf2d10121032677ece4b5a5fada224e23c188df911fbce425acbc35eab251cb58e445d92484"
          },
          "sequence": 4294967295
        }
      ],
      "vout": [
        {
          "value": 2.40264933,
          "n": 0,
          "scriptPubKey": {
            "asm": "OP_DUP OP_HASH160 efae21663e608915a18b9e532098e22e25de1540 OP_EQUALVERIFY OP_CHECKSIG",
            "hex": "76a914efae21663e608915a18b9e532098e22e25de154088ac",
            "reqSigs": 1,
            "type": "pubkeyhash",
            "addresses": [
              "Lh5GMrgXFA9Lh6dnZ1y1BUcdFcMagvLUck"
            ]
          }
        }, 
        {
          "value": 87.13942288,
          "n": 1,
          "scriptPubKey": {
            "asm": "OP_DUP OP_HASH160 e05166c057df82a5cac7192a58c18ddea7d284b2 OP_EQUALVERIFY OP_CHECKSIG",
            "hex": "76a914e05166c057df82a5cac7192a58c18ddea7d284b288ac",
            "reqSigs": 1,
            "type": "pubkeyhash",
            "addresses": [
              "Lfg393ptyGVTGAaYc9qAVLCwUZGt3nE2ZE"
            ]
          }
        }
      ],
      "hex": "0100000001b28a79f6827c728e41e144169acb8e646420b0d07ddef942f8f0e4acee2901de000000006b483045022100a39fbcf937c83b2f53cac46e35ade2e2e533509206da11681b4b8c73bdc22f6f02207c6ac5a7b47799441ca1bfebe7de4a842f3128b50b5d4d9673113246bfbbf2d10121032677ece4b5a5fada224e23c188df911fbce425acbc35eab251cb58e445d92484ffffffff02e526520e000000001976a914efae21663e608915a18b9e532098e22e25de154088ac10356407020000001976a914e05166c057df82a5cac7192a58c18ddea7d284b288ac00000000"
    }
  ],
  "time": 1517449424,
  "mediantime": 1517448985,
  "nonce": 1199111632,
  "bits": "1a042eae",
  "difficulty": 4011378.762614286,
  "chainwork": "0000000000000000000000000000000000000000000000350dc4ccdd1e6ced64",
  "previousblockhash": "d2cf91288fad78f13a54f52294202a6595f13d3c59145473fecd0837765a4bd6",
  "nextblockhash": "bdf0e8e9fc21788249b625f1ed8ab0c29728ba8008e537a1dcd3b25f3fd4f69e"
}
