{
  "hash": "7cbcbfbdaf3d513db1313db6326c52c29f8741b06abace2d48456e667fa73285",
  "confirmations": 1691,
  "strippedsize": 253,
  "size": 253,
  "weight": 1012,
  "height": 1359303,
  "version": 536870912,
  "versionHex": "20000000",
  "merkleroot": "3486fa59f91b913ad80d41ef65fc0103670a6935e50d7a371c72a3dc8736d90c",
  "tx": [
    {
      "txid": "3486fa59f91b913ad80d41ef65fc0103670a6935e50d7a371c72a3dc8736d90c",
      "hash": "3486fa59f91b913ad80d41ef65fc0103670a6935e50d7a371c72a3dc8736d90c",
      "version": 1,
      "size": 172,
      "vsize": 172,
      "locktime": 0,
      "vin": [
        {
          "coinbase": "03c7bd141a4d696e656420627920416e74506f6f6c20626a3242205a6fa221fabe6d6d4a6fb6197092f350811ae95e84955fae3b37f06031d202860bc967d4c624bdf8040000000000000033080000000000001d000000",
          "sequence": 4294967295
        }
      ],
      "vout": [
        {
          "value": 25.00000000,
          "n": 0,
          "scriptPubKey": {
            "asm": "OP_DUP OP_HASH160 0ff3ccc5e8be88afe24b5d634e5852d474dbdff1 OP_EQUALVERIFY OP_CHECKSIG",
            "hex": "76a9140ff3ccc5e8be88afe24b5d634e5852d474dbdff188ac",
            "reqSigs": 1,
            "type": "pubkeyhash",
            "addresses": [
              "LLgJTbzZMsRTCUF1NtvvL9SR1a4pVieW89"
            ]
          }
        }
      ],
      "hex": "01000000010000000000000000000000000000000000000000000000000000000000000000ffffffff5703c7bd141a4d696e656420627920416e74506f6f6c20626a3242205a6fa221fabe6d6d4a6fb6197092f350811ae95e84955fae3b37f06031d202860bc967d4c624bdf8040000000000000033080000000000001d000000ffffffff0100f90295000000001976a9140ff3ccc5e8be88afe24b5d634e5852d474dbdff188ac00000000"
    }
  ],
  "time": 1517265441,
  "mediantime": 1517264763,
  "nonce": 914875190,
  "bits": "1a042eae",
  "difficulty": 4011378.762614286,
  "chainwork": "000000000000000000000000000000000000000000000033e0fafa1fed47f490",
  "previousblockhash": "a1907aba4dd49bf7036c8c5555f96145a3a9dd60081ba0c430fc4dc8555645e9",
  "nextblockhash": "9b5df7b5f22a722fc3619d9f6d58a309a6f053e81fb7ab47d10fe25ea4226fd9"
}
