{
  "hash": "7cc893e35f133199cbb2a4297b3bf246f62872891b3eaa9c8f557e3f32674864",
  "confirmations": 1686,
  "strippedsize": 4662,
  "size": 4698,
  "weight": 18684,
  "height": 1359308,
  "version": 536870912,
  "versionHex": "20000000",
  "merkleroot": "7d93c84f05329f1984644c35c411b79de7ee1ed6bf26d025aa2f590e577edc32",
  "tx": [
    {
      "txid": "2d7d5fc8d1dc92f3289a8a99076f0a7dea7efa6eb6d062e7dfc4075741e8895f",
      "hash": "cda135af610dc29834df731734b500efdc8b6ee7eb82b77cac8f4f13dca9e944",
      "version": 1,
      "size": 200,
      "vsize": 173,
      "locktime": 0,
      "vin": [
        {
          "coinbase": "03ccbd1404f4a56f5a08300000cf510200000d2f6e6f64655374726174756d2f",
          "sequence": 0
        }
      ],
      "vout": [
        {
          "value": 0.00000000,
          "n": 0,
          "scriptPubKey": {
            "asm": "OP_RETURN aa21a9edb1060b825b856b73b0f4cd98fda9bae777b3b640ffe8fb54148e0d81946d4251",
            "hex": "6a24aa21a9edb1060b825b856b73b0f4cd98fda9bae777b3b640ffe8fb54148e0d81946d4251",
            "type": "nulldata"
          }
        }, 
        {
          "value": 25.00694395,
          "n": 1,
          "scriptPubKey": {
            "asm": "OP_DUP OP_HASH160 8836a0d567257e801254e29be08629fb71f36f9f OP_EQUALVERIFY OP_CHECKSIG",
            "hex": "76a9148836a0d567257e801254e29be08629fb71f36f9f88ac",
            "reqSigs": 1,
            "type": "pubkeyhash",
            "addresses": [
              "LXeBbwTXnzwSUzSbVubDZu4brFzmMjehn3"
            ]
          }
        }
      ],
      "hex": "010000000001010000000000000000000000000000000000000000000000000000000000000000ffffffff2003ccbd1404f4a56f5a08300000cf510200000d2f6e6f64655374726174756d2f00000000020000000000000000266a24aa21a9edb1060b825b856b73b0f4cd98fda9bae777b3b640ffe8fb54148e0d81946d42517b910d95000000001976a9148836a0d567257e801254e29be08629fb71f36f9f88ac0120000000000000000000000000000000000000000000000000000000000000000000000000"
    }, 
    {
      "txid": "6759de93abe0ab3bc3201955e9b88b0e254475dd207a796044a19d9e1ba7879d",
      "hash": "6759de93abe0ab3bc3201955e9b88b0e254475dd207a796044a19d9e1ba7879d",
      "version": 1,
      "size": 335,
      "vsize": 335,
      "locktime": 0,
      "vin": [
        {
          "txid": "10b1e8a250b781e33077c7f9559f3b1979f3055cf215cce087dbe7df3364b77d",
          "vout": 1,
          "scriptSig": {
            "asm": "0 3044022058ffbb6759aeffc7d3d5a91e90b5ada7c0e37a578aef8b7e80ab44096ab1c534022019d6f596a94361484f035cd4f657256e179c1862ba144556caf71b135c5cb657[ALL] 3045022100cd3f95cdcb77833bfc758a86e24c2266c9f83315ee242e6c0dcec965fe2ab5ea022067c60ebd909edaff31ea21ace564653a3e41b673d9ff9a42fc83a8c2b3a89860[ALL] 522102f77ec37a042ba4e5e6aef7760398bf59b87ac4c5dee30a2fb8798e9630d4916e210276b93401dc495b28592f66411a7c9093b468f8678db51144fc6a36f550d94aa952ae",
            "hex": "00473044022058ffbb6759aeffc7d3d5a91e90b5ada7c0e37a578aef8b7e80ab44096ab1c534022019d6f596a94361484f035cd4f657256e179c1862ba144556caf71b135c5cb65701483045022100cd3f95cdcb77833bfc758a86e24c2266c9f83315ee242e6c0dcec965fe2ab5ea022067c60ebd909edaff31ea21ace564653a3e41b673d9ff9a42fc83a8c2b3a898600147522102f77ec37a042ba4e5e6aef7760398bf59b87ac4c5dee30a2fb8798e9630d4916e210276b93401dc495b28592f66411a7c9093b468f8678db51144fc6a36f550d94aa952ae"
          },
          "sequence": 4294967295
        }
      ],
      "vout": [
        {
          "value": 0.03178100,
          "n": 0,
          "scriptPubKey": {
            "asm": "OP_DUP OP_HASH160 5319208a94bd7597b6acb831a0880b2c8710389e OP_EQUALVERIFY OP_CHECKSIG",
            "hex": "76a9145319208a94bd7597b6acb831a0880b2c8710389e88ac",
            "reqSigs": 1,
            "type": "pubkeyhash",
            "addresses": [
              "LSoLSzojEHaxVmajnp92J8F3w3nuhVrApt"
            ]
          }
        }, 
        {
          "value": 15.49530900,
          "n": 1,
          "scriptPubKey": {
            "asm": "OP_HASH160 75b77316f8d91ff71fb2819115d1b6b9e80ccee9 OP_EQUAL",
            "hex": "a91475b77316f8d91ff71fb2819115d1b6b9e80ccee987",
            "reqSigs": 1,
            "type": "scripthash",
            "addresses": [
              "MJdb4B3BMDrfpB1FpKsPYQ1tDHdkNa1oLB"
            ]
          }
        }
      ],
      "hex": "01000000017db76433dfe7db87e0cc15f25c05f379193b9f55f9c77730e381b750a2e8b11001000000da00473044022058ffbb6759aeffc7d3d5a91e90b5ada7c0e37a578aef8b7e80ab44096ab1c534022019d6f596a94361484f035cd4f657256e179c1862ba144556caf71b135c5cb65701483045022100cd3f95cdcb77833bfc758a86e24c2266c9f83315ee242e6c0dcec965fe2ab5ea022067c60ebd909edaff31ea21ace564653a3e41b673d9ff9a42fc83a8c2b3a898600147522102f77ec37a042ba4e5e6aef7760398bf59b87ac4c5dee30a2fb8798e9630d4916e210276b93401dc495b28592f66411a7c9093b468f8678db51144fc6a36f550d94aa952aeffffffff02747e3000000000001976a9145319208a94bd7597b6acb831a0880b2c8710389e88ac14f75b5c0000000017a91475b77316f8d91ff71fb2819115d1b6b9e80ccee98700000000"
    }, 
    {
      "txid": "fffce5323564862143c47e8f1a97087db8fd85f0ab447f016b4e0035a0350667",
      "hash": "fffce5323564862143c47e8f1a97087db8fd85f0ab447f016b4e0035a0350667",
      "version": 1,
      "size": 226,
      "vsize": 226,
      "locktime": 0,
      "vin": [
        {
          "txid": "3bddea962b57b009a4a4ed70c82919db58090db532985931530b7b5009278e2a",
          "vout": 1,
          "scriptSig": {
            "asm": "3045022100f23207db7695c5d1a83e8e4e10f4b58d85be5751e291e087711c710f717b811202203dc3338d37e046c49c78e50e4efddd77af7dced0db518105fbf36d2c82873b70[ALL] 021656cbab6d00c5a508d56a54f685ecc959a5d9ef4606a329beccfb6d207e1593",
            "hex": "483045022100f23207db7695c5d1a83e8e4e10f4b58d85be5751e291e087711c710f717b811202203dc3338d37e046c49c78e50e4efddd77af7dced0db518105fbf36d2c82873b700121021656cbab6d00c5a508d56a54f685ecc959a5d9ef4606a329beccfb6d207e1593"
          },
          "sequence": 4294967295
        }
      ],
      "vout": [
        {
          "value": 1.99742700,
          "n": 0,
          "scriptPubKey": {
            "asm": "OP_DUP OP_HASH160 a932016c685088303fcc3ce16cd2dd6b195fdf48 OP_EQUALVERIFY OP_CHECKSIG",
            "hex": "76a914a932016c685088303fcc3ce16cd2dd6b195fdf4888ac",
            "reqSigs": 1,
            "type": "pubkeyhash",
            "addresses": [
              "LaeaN5a3A3N7kZQ13jqom4HhrcYXYM1kyj"
            ]
          }
        }, 
        {
          "value": 0.99900092,
          "n": 1,
          "scriptPubKey": {
            "asm": "OP_DUP OP_HASH160 63d3f5cc817e215df720ac389ec8cd5a7cd0a0ea OP_EQUALVERIFY OP_CHECKSIG",
            "hex": "76a91463d3f5cc817e215df720ac389ec8cd5a7cd0a0ea88ac",
            "reqSigs": 1,
            "type": "pubkeyhash",
            "addresses": [
              "LUKo5TGgixswGtUCB53YGH9gXzSe79Ja9N"
            ]
          }
        }
      ],
      "hex": "01000000012a8e2709507b0b5331599832b50d0958db1929c870eda4a409b0572b96eadd3b010000006b483045022100f23207db7695c5d1a83e8e4e10f4b58d85be5751e291e087711c710f717b811202203dc3338d37e046c49c78e50e4efddd77af7dced0db518105fbf36d2c82873b700121021656cbab6d00c5a508d56a54f685ecc959a5d9ef4606a329beccfb6d207e1593ffffffff02ecd4e70b000000001976a914a932016c685088303fcc3ce16cd2dd6b195fdf4888acbc5af405000000001976a91463d3f5cc817e215df720ac389ec8cd5a7cd0a0ea88ac00000000"
    }, 
    {
      "txid": "948c087475640b4777abe117d75127e7a2f9fa7958ea7b6121c4d249ed21392c",
      "hash": "948c087475640b4777abe117d75127e7a2f9fa7958ea7b6121c4d249ed21392c",
      "version": 1,
      "size": 224,
      "vsize": 224,
      "locktime": 0,
      "vin": [
        {
          "txid": "b357fd41d1f341e1439b7927febef73e811b27968b8cdc53129ecb88e285d0b4",
          "vout": 1,
          "scriptSig": {
            "asm": "3043021f5c08d1a657861d27c78cb346094fb6c9786eba697a89fabea5b0720b60755802206c251ddaed85e47d0b568adca86cc0cc26acb892a06a4038b897715da654bedb[ALL] 0241527153ab07feb0cbf85125b5f0d35a9ea84c7aaf1bddb7649a9fecb76fb0b9",
            "hex": "463043021f5c08d1a657861d27c78cb346094fb6c9786eba697a89fabea5b0720b60755802206c251ddaed85e47d0b568adca86cc0cc26acb892a06a4038b897715da654bedb01210241527153ab07feb0cbf85125b5f0d35a9ea84c7aaf1bddb7649a9fecb76fb0b9"
          },
          "sequence": 4294967295
        }
      ],
      "vout": [
        {
          "value": 0.00121107,
          "n": 0,
          "scriptPubKey": {
            "asm": "OP_DUP OP_HASH160 c259f90cc0e79addda87ff3a503906a23f238618 OP_EQUALVERIFY OP_CHECKSIG",
            "hex": "76a914c259f90cc0e79addda87ff3a503906a23f23861888ac",
            "reqSigs": 1,
            "type": "pubkeyhash",
            "addresses": [
              "Lcwb8rLKR4VdSbwKx3XmUC3UBcc4anxKms"
            ]
          }
        }, 
        {
          "value": 0.12608505,
          "n": 1,
          "scriptPubKey": {
            "asm": "OP_DUP OP_HASH160 2d3254a8a498bcec17502e2b22a174d71300cf27 OP_EQUALVERIFY OP_CHECKSIG",
            "hex": "76a9142d3254a8a498bcec17502e2b22a174d71300cf2788ac",
            "reqSigs": 1,
            "type": "pubkeyhash",
            "addresses": [
              "LPLvxtChqbZcYa3PC5Z4KQkfhQ7kxD9w2b"
            ]
          }
        }
      ],
      "hex": "0100000001b4d085e288cb9e1253dc8c8b96271b813ef7befe27799b43e141f3d141fd57b30100000069463043021f5c08d1a657861d27c78cb346094fb6c9786eba697a89fabea5b0720b60755802206c251ddaed85e47d0b568adca86cc0cc26acb892a06a4038b897715da654bedb01210241527153ab07feb0cbf85125b5f0d35a9ea84c7aaf1bddb7649a9fecb76fb0b9ffffffff0213d90100000000001976a914c259f90cc0e79addda87ff3a503906a23f23861888acf963c000000000001976a9142d3254a8a498bcec17502e2b22a174d71300cf2788ac00000000"
    }, 
    {
      "txid": "00f40cd5d5caae6eb06b13d98dcdfd9e2303cf941469b4e5b5ccfd4f7aabf743",
      "hash": "00f40cd5d5caae6eb06b13d98dcdfd9e2303cf941469b4e5b5ccfd4f7aabf743",
      "version": 1,
      "size": 488,
      "vsize": 488,
      "locktime": 0,
      "vin": [
        {
          "txid": "4d388db0e43de5301555b113b660834ce01b72b696a5579ec2f823da4313be92",
          "vout": 1,
          "scriptSig": {
            "asm": "3045022100fb2cc687a15622298a376271eb8fc77f1410a1eb71b40377bb48e0052e32cb29022000a9ba1e73742533bd1bb15bd66228972fb2f9a5df78c1e55d847ab518edfdc7[ALL] 022204bff3f22e6fb2df9d748b10784bb4d5a1afd6c34f4752ce3621f00ece877d",
            "hex": "483045022100fb2cc687a15622298a376271eb8fc77f1410a1eb71b40377bb48e0052e32cb29022000a9ba1e73742533bd1bb15bd66228972fb2f9a5df78c1e55d847ab518edfdc70121022204bff3f22e6fb2df9d748b10784bb4d5a1afd6c34f4752ce3621f00ece877d"
          },
          "sequence": 4294967295
        }, 
        {
          "txid": "16fdedae85010d18c40358522f81a2462be6c1479815c188ee04cc1b468ad351",
          "vout": 0,
          "scriptSig": {
            "asm": "3045022100bba0100078603d5dc7257b18595a40e459f1325afcd40d3104d6f8b97be0280802202d066fb93a1eec0e43aefc8de69466304ec8a41b4ef465be14a56cf3ca5af5d6[ALL] 022204bff3f22e6fb2df9d748b10784bb4d5a1afd6c34f4752ce3621f00ece877d",
            "hex": "483045022100bba0100078603d5dc7257b18595a40e459f1325afcd40d3104d6f8b97be0280802202d066fb93a1eec0e43aefc8de69466304ec8a41b4ef465be14a56cf3ca5af5d60121022204bff3f22e6fb2df9d748b10784bb4d5a1afd6c34f4752ce3621f00ece877d"
          },
          "sequence": 4294967295
        }, 
        {
          "txid": "64c9d9bd369bbe4edf12c4eea68662b056db053f8442688f28dfb1e4644271fc",
          "vout": 0,
          "scriptSig": {
            "asm": "3045022100d1168b851e345518e01367b3a837c35a00d954fb545928bbf94cd71fc2d203060220558c970cfc5c4dea27e296f2e31e887aed3bb58017d402a359a8f16d1bf94fe1[ALL] 03971cfdc87b23bb66c44cce91fca6003901704ed3a03c0a6180dc22de9af9a7a6",
            "hex": "483045022100d1168b851e345518e01367b3a837c35a00d954fb545928bbf94cd71fc2d203060220558c970cfc5c4dea27e296f2e31e887aed3bb58017d402a359a8f16d1bf94fe1012103971cfdc87b23bb66c44cce91fca6003901704ed3a03c0a6180dc22de9af9a7a6"
          },
          "sequence": 4294967295
        }
      ],
      "vout": [
        {
          "value": 1.09783105,
          "n": 0,
          "scriptPubKey": {
            "asm": "OP_DUP OP_HASH160 2ceeffd9bd4615ea163c35c2743e0b74a0ff5c55 OP_EQUALVERIFY OP_CHECKSIG",
            "hex": "76a9142ceeffd9bd4615ea163c35c2743e0b74a0ff5c5588ac",
            "reqSigs": 1,
            "type": "pubkeyhash",
            "addresses": [
              "LPKYJd9m8gZCAVLJo95TCXct4ej9zVYwr3"
            ]
          }
        }
      ],
      "hex": "010000000392be1343da23f8c29e57a596b6721be04c8360b613b1551530e53de4b08d384d010000006b483045022100fb2cc687a15622298a376271eb8fc77f1410a1eb71b40377bb48e0052e32cb29022000a9ba1e73742533bd1bb15bd66228972fb2f9a5df78c1e55d847ab518edfdc70121022204bff3f22e6fb2df9d748b10784bb4d5a1afd6c34f4752ce3621f00ece877dffffffff51d38a461bcc04ee88c1159847c1e62b46a2812f525803c4180d0185aeedfd16000000006b483045022100bba0100078603d5dc7257b18595a40e459f1325afcd40d3104d6f8b97be0280802202d066fb93a1eec0e43aefc8de69466304ec8a41b4ef465be14a56cf3ca5af5d60121022204bff3f22e6fb2df9d748b10784bb4d5a1afd6c34f4752ce3621f00ece877dfffffffffc714264e4b1df288f6842843f05db56b06286a6eec412df4ebe9b36bdd9c964000000006b483045022100d1168b851e345518e01367b3a837c35a00d954fb545928bbf94cd71fc2d203060220558c970cfc5c4dea27e296f2e31e887aed3bb58017d402a359a8f16d1bf94fe1012103971cfdc87b23bb66c44cce91fca6003901704ed3a03c0a6180dc22de9af9a7a6ffffffff0141288b06000000001976a9142ceeffd9bd4615ea163c35c2743e0b74a0ff5c5588ac00000000"
    }, 
    {
      "txid": "579127e0444c43c073d7244593f72f26c8ae7b1f43ef23149b0f1b4ab3f75b09",
      "hash": "579127e0444c43c073d7244593f72f26c8ae7b1f43ef23149b0f1b4ab3f75b09",
      "version": 1,
      "size": 223,
      "vsize": 223,
      "locktime": 0,
      "vin": [
        {
          "txid": "26d45034b2c3639195ad9a6feb3f8dec70e3ce9889a72e6e7c6df795c82b98ad",
          "vout": 1,
          "scriptSig": {
            "asm": "3044022076f2011490b85598cf8f7f4d2f4a16af849ebf237614e36a4d59a74a521f0b4102204864090ad3477c3785092a8850853e1504d90a5d5e17fff726a0ab5cb36d3c6d[ALL] 023d8f9509ab35ddee794aac2fb5cff1734ecc73d15ca2f64cd005aafdf19c232f",
            "hex": "473044022076f2011490b85598cf8f7f4d2f4a16af849ebf237614e36a4d59a74a521f0b4102204864090ad3477c3785092a8850853e1504d90a5d5e17fff726a0ab5cb36d3c6d0121023d8f9509ab35ddee794aac2fb5cff1734ecc73d15ca2f64cd005aafdf19c232f"
          },
          "sequence": 4294967295
        }
      ],
      "vout": [
        {
          "value": 20.86618530,
          "n": 0,
          "scriptPubKey": {
            "asm": "OP_HASH160 65a0c557c2cc461064bf0996a0c6904d9065f458 OP_EQUAL",
            "hex": "a91465a0c557c2cc461064bf0996a0c6904d9065f45887",
            "reqSigs": 1,
            "type": "scripthash",
            "addresses": [
              "MHAX5MtYfgdjcKYxPWB5uztS648hwMBa9p"
            ]
          }
        }, 
        {
          "value": 2.14120964,
          "n": 1,
          "scriptPubKey": {
            "asm": "OP_DUP OP_HASH160 58372de04eca7096b82ee5671bb7fc82f8de9b32 OP_EQUALVERIFY OP_CHECKSIG",
            "hex": "76a91458372de04eca7096b82ee5671bb7fc82f8de9b3288ac",
            "reqSigs": 1,
            "type": "pubkeyhash",
            "addresses": [
              "LTGPq1fwL9LfCsLJLHNeQNipf1em1CgM5V"
            ]
          }
        }
      ],
      "hex": "0100000001ad982bc895f76d7c6e2ea78998cee370ec8d3feb6f9aad959163c3b23450d426010000006a473044022076f2011490b85598cf8f7f4d2f4a16af849ebf237614e36a4d59a74a521f0b4102204864090ad3477c3785092a8850853e1504d90a5d5e17fff726a0ab5cb36d3c6d0121023d8f9509ab35ddee794aac2fb5cff1734ecc73d15ca2f64cd005aafdf19c232fffffffff02a2455f7c0000000017a91465a0c557c2cc461064bf0996a0c6904d9065f45887043ac30c000000001976a91458372de04eca7096b82ee5671bb7fc82f8de9b3288ac00000000"
    }, 
    {
      "txid": "39e449d6624751bbe317546fc2d1f696fe7d734f4040c25e358d43ce77f02108",
      "hash": "39e449d6624751bbe317546fc2d1f696fe7d734f4040c25e358d43ce77f02108",
      "version": 1,
      "size": 225,
      "vsize": 225,
      "locktime": 0,
      "vin": [
        {
          "txid": "c390612b077879d7f40572ac9d5c886e64c8b7c8bd9598ae8fb7a2b85098c7b7",
          "vout": 32,
          "scriptSig": {
            "asm": "304402205a6e6664e736bbd84ff2fbe6fa6e66ac29b73df38bfa9ceed829b915bc9e9121022070ebd47e8bdd2aba61cea4cbd8dbc39d5c5015d3ee747634152b8ef2ef0709a3[ALL] 0272dc2c0428b3460e20e0e8970027f54e9ea3f9b2775e1a29f7b1362bf695c5c7",
            "hex": "47304402205a6e6664e736bbd84ff2fbe6fa6e66ac29b73df38bfa9ceed829b915bc9e9121022070ebd47e8bdd2aba61cea4cbd8dbc39d5c5015d3ee747634152b8ef2ef0709a301210272dc2c0428b3460e20e0e8970027f54e9ea3f9b2775e1a29f7b1362bf695c5c7"
          },
          "sequence": 4294967295
        }
      ],
      "vout": [
        {
          "value": 0.02868220,
          "n": 0,
          "scriptPubKey": {
            "asm": "OP_DUP OP_HASH160 905d6d41fec9e98676624cc763b0f5b7eac26d90 OP_EQUALVERIFY OP_CHECKSIG",
            "hex": "76a914905d6d41fec9e98676624cc763b0f5b7eac26d9088ac",
            "reqSigs": 1,
            "type": "pubkeyhash",
            "addresses": [
              "LYPHVF5sUfguoU4kjNnvGU4ficwgeegdhz"
            ]
          }
        }, 
        {
          "value": 0.95010180,
          "n": 1,
          "scriptPubKey": {
            "asm": "OP_DUP OP_HASH160 c071bc7b18071f24b5110007de49afe1aa0bfcc4 OP_EQUALVERIFY OP_CHECKSIG",
            "hex": "76a914c071bc7b18071f24b5110007de49afe1aa0bfcc488ac",
            "reqSigs": 1,
            "type": "pubkeyhash",
            "addresses": [
              "LcmWFaUDFwQW1tncBrFhKRW8SvLqyagKHw"
            ]
          }
        }
      ],
      "hex": "0100000001b7c79850b8a2b78fae9895bdc8b7c8646e885c9dac7205f4d77978072b6190c3200000006a47304402205a6e6664e736bbd84ff2fbe6fa6e66ac29b73df38bfa9ceed829b915bc9e9121022070ebd47e8bdd2aba61cea4cbd8dbc39d5c5015d3ee747634152b8ef2ef0709a301210272dc2c0428b3460e20e0e8970027f54e9ea3f9b2775e1a29f7b1362bf695c5c7ffffffff02fcc32b00000000001976a914905d6d41fec9e98676624cc763b0f5b7eac26d9088ac84bda905000000001976a914c071bc7b18071f24b5110007de49afe1aa0bfcc488ac00000000"
    }, 
    {
      "txid": "40959cd4ea5f59608303eed9ce99ab3d0110b59f8258fdfea16294dc4bd604b3",
      "hash": "40959cd4ea5f59608303eed9ce99ab3d0110b59f8258fdfea16294dc4bd604b3",
      "version": 1,
      "size": 225,
      "vsize": 225,
      "locktime": 0,
      "vin": [
        {
          "txid": "6d683866497d116dc003a5a74ad9db6c1c290ea87476306f564aa365ff9adf61",
          "vout": 0,
          "scriptSig": {
            "asm": "3044022066b62bb2024d90354fd284f86ec08902a89ebdc6bdc7315ba24cf1be59157c1402201df1bc8a5a4a6785a19745fb587d695987c713ed30492e6dd6e7e6b937a642e4[ALL] 031675c1da2b1c9d6ae297ac66163d5830463561dcebdfbab5e62fcdb744177ae0",
            "hex": "473044022066b62bb2024d90354fd284f86ec08902a89ebdc6bdc7315ba24cf1be59157c1402201df1bc8a5a4a6785a19745fb587d695987c713ed30492e6dd6e7e6b937a642e40121031675c1da2b1c9d6ae297ac66163d5830463561dcebdfbab5e62fcdb744177ae0"
          },
          "sequence": 4294967295
        }
      ],
      "vout": [
        {
          "value": 1.00000000,
          "n": 0,
          "scriptPubKey": {
            "asm": "OP_DUP OP_HASH160 b619e3c8fc27c58a7ecef50323e7372e2952580d OP_EQUALVERIFY OP_CHECKSIG",
            "hex": "76a914b619e3c8fc27c58a7ecef50323e7372e2952580d88ac",
            "reqSigs": 1,
            "type": "pubkeyhash",
            "addresses": [
              "LbppFynvS3HUeHnDhvCVCyBpQBZ79t4TVy"
            ]
          }
        }, 
        {
          "value": 0.25584409,
          "n": 1,
          "scriptPubKey": {
            "asm": "OP_DUP OP_HASH160 ec1a4413df2def47d44b4c243b0fadddf7fd3c22 OP_EQUALVERIFY OP_CHECKSIG",
            "hex": "76a914ec1a4413df2def47d44b4c243b0fadddf7fd3c2288ac",
            "reqSigs": 1,
            "type": "pubkeyhash",
            "addresses": [
              "LgkMCURi8aqhdysAZJJH9EXDfoQpZgkMPy"
            ]
          }
        }
      ],
      "hex": "010000000161df9aff65a34a566f307674a80e291c6cdbd94aa7a503c06d117d496638686d000000006a473044022066b62bb2024d90354fd284f86ec08902a89ebdc6bdc7315ba24cf1be59157c1402201df1bc8a5a4a6785a19745fb587d695987c713ed30492e6dd6e7e6b937a642e40121031675c1da2b1c9d6ae297ac66163d5830463561dcebdfbab5e62fcdb744177ae0ffffffff0200e1f505000000001976a914b619e3c8fc27c58a7ecef50323e7372e2952580d88ac19638601000000001976a914ec1a4413df2def47d44b4c243b0fadddf7fd3c2288ac00000000"
    }, 
    {
      "txid": "0f1ad15060e5b3138c85573d7113b69b06332c942eacc504e20fb286d191bdd9",
      "hash": "0f1ad15060e5b3138c85573d7113b69b06332c942eacc504e20fb286d191bdd9",
      "version": 1,
      "size": 225,
      "vsize": 225,
      "locktime": 0,
      "vin": [
        {
          "txid": "201d1f705eee05351fc19b851e991a5c4c5f1b5e679ae8aa59863a1abc46a063",
          "vout": 14,
          "scriptSig": {
            "asm": "30440220794831e6220f18b38a0a85244073b00b64d3ee51f4b3a52a14dec5d19845fd480220112be05be88c31815e5307327bd8ac57d9d3412f11c09b208cd7570cfae70dfa[ALL] 02993dffa2307a99553f57349414a922e956d2cb185ccd31827a6381dafa00e016",
            "hex": "4730440220794831e6220f18b38a0a85244073b00b64d3ee51f4b3a52a14dec5d19845fd480220112be05be88c31815e5307327bd8ac57d9d3412f11c09b208cd7570cfae70dfa012102993dffa2307a99553f57349414a922e956d2cb185ccd31827a6381dafa00e016"
          },
          "sequence": 4294967295
        }
      ],
      "vout": [
        {
          "value": 0.00065537,
          "n": 0,
          "scriptPubKey": {
            "asm": "OP_DUP OP_HASH160 a8ae04366c6b6e45b0da6c97b271e7d5f07b4a3d OP_EQUALVERIFY OP_CHECKSIG",
            "hex": "76a914a8ae04366c6b6e45b0da6c97b271e7d5f07b4a3d88ac",
            "reqSigs": 1,
            "type": "pubkeyhash",
            "addresses": [
              "LabrFKGetrznLmJTP7zewypwobqZ8j4p5j"
            ]
          }
        }, 
        {
          "value": 0.01119000,
          "n": 1,
          "scriptPubKey": {
            "asm": "OP_DUP OP_HASH160 b57f378768c3acd1898944798232cdc37fd1c83b OP_EQUALVERIFY OP_CHECKSIG",
            "hex": "76a914b57f378768c3acd1898944798232cdc37fd1c83b88ac",
            "reqSigs": 1,
            "type": "pubkeyhash",
            "addresses": [
              "Lbmcy7vYhMoGQ1DuuLmfNG3PbUtXv8ocwJ"
            ]
          }
        }
      ],
      "hex": "010000000163a046bc1a3a8659aae89a675e1b5f4c5c1a991e859bc11f3505ee5e701f1d200e0000006a4730440220794831e6220f18b38a0a85244073b00b64d3ee51f4b3a52a14dec5d19845fd480220112be05be88c31815e5307327bd8ac57d9d3412f11c09b208cd7570cfae70dfa012102993dffa2307a99553f57349414a922e956d2cb185ccd31827a6381dafa00e016ffffffff0201000100000000001976a914a8ae04366c6b6e45b0da6c97b271e7d5f07b4a3d88ac18131100000000001976a914b57f378768c3acd1898944798232cdc37fd1c83b88ac00000000"
    }, 
    {
      "txid": "70773c45f92ebc1debbd90fdd801d0267b2bf71a8ac3a3be7f7d0b0085d0e7da",
      "hash": "70773c45f92ebc1debbd90fdd801d0267b2bf71a8ac3a3be7f7d0b0085d0e7da",
      "version": 1,
      "size": 225,
      "vsize": 225,
      "locktime": 0,
      "vin": [
        {
          "txid": "fa7ac69ea98aebf9a9d927a9d957b5f61899f70031d5e1d1f920bb9dbeeb5f58",
          "vout": 0,
          "scriptSig": {
            "asm": "30440220015d5a5e1beb373cbd190e61124756f5e7baa5c38002ba3595f6c941a0c936f8022068b7b78666f2e6e0ba3b078d96073e1cdbe24d98b53b87b2ef76f64368d1dfb3[ALL] 027d820469d32d949d56c90350c050874ac8e4d25dd55257b1035a0d6a4b7cf18e",
            "hex": "4730440220015d5a5e1beb373cbd190e61124756f5e7baa5c38002ba3595f6c941a0c936f8022068b7b78666f2e6e0ba3b078d96073e1cdbe24d98b53b87b2ef76f64368d1dfb30121027d820469d32d949d56c90350c050874ac8e4d25dd55257b1035a0d6a4b7cf18e"
          },
          "sequence": 4294967295
        }
      ],
      "vout": [
        {
          "value": 1.34262000,
          "n": 0,
          "scriptPubKey": {
            "asm": "OP_DUP OP_HASH160 0eddb053e7c80c895655fa992ef6e6a37e54f1c3 OP_EQUALVERIFY OP_CHECKSIG",
            "hex": "76a9140eddb053e7c80c895655fa992ef6e6a37e54f1c388ac",
            "reqSigs": 1,
            "type": "pubkeyhash",
            "addresses": [
              "LLaZJ73uqHWU7C8aKE8mUu9Cn4AcGTdJG2"
            ]
          }
        }, 
        {
          "value": 0.23458375,
          "n": 1,
          "scriptPubKey": {
            "asm": "OP_DUP OP_HASH160 82177427046f874e6c2b43ffd54d561268846678 OP_EQUALVERIFY OP_CHECKSIG",
            "hex": "76a91482177427046f874e6c2b43ffd54d56126884667888ac",
            "reqSigs": 1,
            "type": "pubkeyhash",
            "addresses": [
              "LX5pCk7ADYbUUdecrTsemELSHwuHQB8p44"
            ]
          }
        }
      ],
      "hex": "0100000001585febbe9dbb20f9d1e1d53100f79918f6b557d9a927d9a9f9eb8aa99ec67afa000000006a4730440220015d5a5e1beb373cbd190e61124756f5e7baa5c38002ba3595f6c941a0c936f8022068b7b78666f2e6e0ba3b078d96073e1cdbe24d98b53b87b2ef76f64368d1dfb30121027d820469d32d949d56c90350c050874ac8e4d25dd55257b1035a0d6a4b7cf18effffffff02f0ac0008000000001976a9140eddb053e7c80c895655fa992ef6e6a37e54f1c388ac47f26501000000001976a91482177427046f874e6c2b43ffd54d56126884667888ac00000000"
    }, 
    {
      "txid": "7f9ab1e385e1cac7caa2bdb1f033833d80458edbb683aa3c106aed8b550876f0",
      "hash": "7f9ab1e385e1cac7caa2bdb1f033833d80458edbb683aa3c106aed8b550876f0",
      "version": 1,
      "size": 225,
      "vsize": 225,
      "locktime": 0,
      "vin": [
        {
          "txid": "8bf81aecc372992f50571d4a8cbb786af6e866e4ce5b1e3b8edc36c741176ff3",
          "vout": 0,
          "scriptSig": {
            "asm": "304402200566a78b1906061cb69e14bc9361cca1f879433630891206d6eb7928a95bf9870220439d8a308b839039e0e410d4b1cbdf17b8b8a285bcc63d030efeff0c6edd8254[ALL] 02ee50443cfd50442f8ee0ee600229d09767dced58faaf20725775eb9a8a54e5a5",
            "hex": "47304402200566a78b1906061cb69e14bc9361cca1f879433630891206d6eb7928a95bf9870220439d8a308b839039e0e410d4b1cbdf17b8b8a285bcc63d030efeff0c6edd8254012102ee50443cfd50442f8ee0ee600229d09767dced58faaf20725775eb9a8a54e5a5"
          },
          "sequence": 4294967295
        }
      ],
      "vout": [
        {
          "value": 0.02780000,
          "n": 0,
          "scriptPubKey": {
            "asm": "OP_DUP OP_HASH160 c005574afe4ab711f0337b03c0cdb79642b15d2a OP_EQUALVERIFY OP_CHECKSIG",
            "hex": "76a914c005574afe4ab711f0337b03c0cdb79642b15d2a88ac",
            "reqSigs": 1,
            "type": "pubkeyhash",
            "addresses": [
              "LcjGQ9EfZ22pKNo4vSnmB6ZicWc4nrGLkq"
            ]
          }
        }, 
        {
          "value": 0.00078641,
          "n": 1,
          "scriptPubKey": {
            "asm": "OP_DUP OP_HASH160 fed4b33d8ff73b6264b3600f048a98ac75970a87 OP_EQUALVERIFY OP_CHECKSIG",
            "hex": "76a914fed4b33d8ff73b6264b3600f048a98ac75970a8788ac",
            "reqSigs": 1,
            "type": "pubkeyhash",
            "addresses": [
              "LiTNhbz9sTcCyS5mAmBvyRwg1Cg52K756a"
            ]
          }
        }
      ],
      "hex": "0100000001f36f1741c736dc8e3b1e5bcee466e8f66a78bb8c4a1d57502f9972c3ec1af88b000000006a47304402200566a78b1906061cb69e14bc9361cca1f879433630891206d6eb7928a95bf9870220439d8a308b839039e0e410d4b1cbdf17b8b8a285bcc63d030efeff0c6edd8254012102ee50443cfd50442f8ee0ee600229d09767dced58faaf20725775eb9a8a54e5a5ffffffff02606b2a00000000001976a914c005574afe4ab711f0337b03c0cdb79642b15d2a88ac31330100000000001976a914fed4b33d8ff73b6264b3600f048a98ac75970a8788ac00000000"
    }, 
    {
      "txid": "99f842b8c7005de5b0f808ff105f0fbbe450b562c249a4691f0aed2ef26ccb10",
      "hash": "99f842b8c7005de5b0f808ff105f0fbbe450b562c249a4691f0aed2ef26ccb10",
      "version": 1,
      "size": 440,
      "vsize": 440,
      "locktime": 1359306,
      "vin": [
        {
          "txid": "1a5fc61634ea3c207f2795a70e6ff5f72038ee9d02e85daa5c01f46e585fbbd4",
          "vout": 1,
          "scriptSig": {
            "asm": "3044022013ea2fa6e8cc6424489049427b995211844d9ab91874b583320ade4f0bf6e59b022076d6fb6a5ce48431b93faa640d7630a5564c0a2022cc4f685e893070629c41be[ALL] 03e8e7d96540eec7001be23a87c577469c8927fa079a4c02e009543fce5e8afdd7",
            "hex": "473044022013ea2fa6e8cc6424489049427b995211844d9ab91874b583320ade4f0bf6e59b022076d6fb6a5ce48431b93faa640d7630a5564c0a2022cc4f685e893070629c41be012103e8e7d96540eec7001be23a87c577469c8927fa079a4c02e009543fce5e8afdd7"
          },
          "sequence": 4294967294
        }, 
        {
          "txid": "7f6411377583418b78d25eb85970a21a910fab0c7453fd7815715919e69529ac",
          "vout": 4,
          "scriptSig": {
            "asm": "304402200a69d0ff32a04d47cf94afdca1bf3e9cf5b401c93367fe232b7f0db8984c977e02200566e29bbffc5307f9fb255bb0a0fccee75f5dfd80b9b98c0a9bc9fe76c9202e[ALL] 026db09dc0ca39bc278b5c949ae6c28d9b5c5ee90bfa69b5fe94d3beac723c805a",
            "hex": "47304402200a69d0ff32a04d47cf94afdca1bf3e9cf5b401c93367fe232b7f0db8984c977e02200566e29bbffc5307f9fb255bb0a0fccee75f5dfd80b9b98c0a9bc9fe76c9202e0121026db09dc0ca39bc278b5c949ae6c28d9b5c5ee90bfa69b5fe94d3beac723c805a"
          },
          "sequence": 4294967294
        }
      ],
      "vout": [
        {
          "value": 0.05168722,
          "n": 0,
          "scriptPubKey": {
            "asm": "OP_DUP OP_HASH160 b7528f1e4bfea4eee5ba917b5b853cb029b8a598 OP_EQUALVERIFY OP_CHECKSIG",
            "hex": "76a914b7528f1e4bfea4eee5ba917b5b853cb029b8a59888ac",
            "reqSigs": 1,
            "type": "pubkeyhash",
            "addresses": [
              "LbwGpd1r73K7NsmCXxbVdUXKagoGBr3B6x"
            ]
          }
        }, 
        {
          "value": 0.04975495,
          "n": 1,
          "scriptPubKey": {
            "asm": "OP_DUP OP_HASH160 94b610ee4329cdaacea9900dbba9615599fe3ec5 OP_EQUALVERIFY OP_CHECKSIG",
            "hex": "76a91494b610ee4329cdaacea9900dbba9615599fe3ec588ac",
            "reqSigs": 1,
            "type": "pubkeyhash",
            "addresses": [
              "LYnGNnEpwdnqx6ntYtzW34cbyPu29JSHjU"
            ]
          }
        }, 
        {
          "value": 0.09468995,
          "n": 2,
          "scriptPubKey": {
            "asm": "OP_DUP OP_HASH160 0f2e5136d109192f3c7f44473ca2969a2bfce8f0 OP_EQUALVERIFY OP_CHECKSIG",
            "hex": "76a9140f2e5136d109192f3c7f44473ca2969a2bfce8f088ac",
            "reqSigs": 1,
            "type": "pubkeyhash",
            "addresses": [
              "LLcDtGYs9YJp4fhtLb9v1buQ3ytJUXvKr9"
            ]
          }
        }, 
        {
          "value": 0.59974017,
          "n": 3,
          "scriptPubKey": {
            "asm": "OP_DUP OP_HASH160 1d484b1f68e19e11ed1d5f826d49e0603f8971df OP_EQUALVERIFY OP_CHECKSIG",
            "hex": "76a9141d484b1f68e19e11ed1d5f826d49e0603f8971df88ac",
            "reqSigs": 1,
            "type": "pubkeyhash",
            "addresses": [
              "LMtnTp6vqnKoPTLnqcQVB4BNipL7SoLN3F"
            ]
          }
        }
      ],
      "hex": "0100000002d4bb5f586ef4015caa5de8029dee3820f7f56f0ea795277f203cea3416c65f1a010000006a473044022013ea2fa6e8cc6424489049427b995211844d9ab91874b583320ade4f0bf6e59b022076d6fb6a5ce48431b93faa640d7630a5564c0a2022cc4f685e893070629c41be012103e8e7d96540eec7001be23a87c577469c8927fa079a4c02e009543fce5e8afdd7feffffffac2995e61959711578fd53740cab0f911aa27059b85ed2788b4183753711647f040000006a47304402200a69d0ff32a04d47cf94afdca1bf3e9cf5b401c93367fe232b7f0db8984c977e02200566e29bbffc5307f9fb255bb0a0fccee75f5dfd80b9b98c0a9bc9fe76c9202e0121026db09dc0ca39bc278b5c949ae6c28d9b5c5ee90bfa69b5fe94d3beac723c805afeffffff0452de4e00000000001976a914b7528f1e4bfea4eee5ba917b5b853cb029b8a59888ac87eb4b00000000001976a91494b610ee4329cdaacea9900dbba9615599fe3ec588ac437c9000000000001976a9140f2e5136d109192f3c7f44473ca2969a2bfce8f088ac81219303000000001976a9141d484b1f68e19e11ed1d5f826d49e0603f8971df88accabd1400"
    }, 
    {
      "txid": "abb1dbb9da406736b9d8563b58fc55e7abcf7cbf65f2d121ec4e1063fd5efb27",
      "hash": "abb1dbb9da406736b9d8563b58fc55e7abcf7cbf65f2d121ec4e1063fd5efb27",
      "version": 1,
      "size": 226,
      "vsize": 226,
      "locktime": 0,
      "vin": [
        {
          "txid": "516a700aefae50c617e5613fec5b3e8081214f0243ec533065ac34691b1533f2",
          "vout": 0,
          "scriptSig": {
            "asm": "3045022100b16e201d83b7e3f04ad65c78f3baae1b29aa2d98247a2775bc31d6a0717da7b50220177743a6b490af60e604e5951b82a74aea3dd84d7c40c034f65c3600aa5dec75[ALL] 02601d5be39d128b1b060460efb7a01853b276f58ba61ae3b4a344aae8331fdde0",
            "hex": "483045022100b16e201d83b7e3f04ad65c78f3baae1b29aa2d98247a2775bc31d6a0717da7b50220177743a6b490af60e604e5951b82a74aea3dd84d7c40c034f65c3600aa5dec75012102601d5be39d128b1b060460efb7a01853b276f58ba61ae3b4a344aae8331fdde0"
          },
          "sequence": 4294967295
        }
      ],
      "vout": [
        {
          "value": 0.33877594,
          "n": 0,
          "scriptPubKey": {
            "asm": "OP_DUP OP_HASH160 15eacce2c3a771ff6d571cdd08d88339a49772d0 OP_EQUALVERIFY OP_CHECKSIG",
            "hex": "76a91415eacce2c3a771ff6d571cdd08d88339a49772d088ac",
            "reqSigs": 1,
            "type": "pubkeyhash",
            "addresses": [
              "LMDqjTL1x4YJPaukcceYqAakDB7VA2mpoa"
            ]
          }
        }, 
        {
          "value": 0.04615659,
          "n": 1,
          "scriptPubKey": {
            "asm": "OP_DUP OP_HASH160 6d4657cf5c7ccfa2aefae02b9a5978131376843e OP_EQUALVERIFY OP_CHECKSIG",
            "hex": "76a9146d4657cf5c7ccfa2aefae02b9a5978131376843e88ac",
            "reqSigs": 1,
            "type": "pubkeyhash",
            "addresses": [
              "LVBkBe6YoKq3fLS2vHMngeyQbgayNen53U"
            ]
          }
        }
      ],
      "hex": "0100000001f233151b6934ac653053ec43024f2181803e5bec3f61e517c650aeef0a706a51000000006b483045022100b16e201d83b7e3f04ad65c78f3baae1b29aa2d98247a2775bc31d6a0717da7b50220177743a6b490af60e604e5951b82a74aea3dd84d7c40c034f65c3600aa5dec75012102601d5be39d128b1b060460efb7a01853b276f58ba61ae3b4a344aae8331fdde0ffffffff025aee0402000000001976a91415eacce2c3a771ff6d571cdd08d88339a49772d088aceb6d4600000000001976a9146d4657cf5c7ccfa2aefae02b9a5978131376843e88ac00000000"
    }, 
    {
      "txid": "fe9a5efbf57cd8bc70af593cb701fe9abfa16a859bf440213663592a84eceb35",
      "hash": "fe9a5efbf57cd8bc70af593cb701fe9abfa16a859bf440213663592a84eceb35",
      "version": 1,
      "size": 226,
      "vsize": 226,
      "locktime": 0,
      "vin": [
        {
          "txid": "2ba41059bbb240cb8a4b228579b0c68262f60843b5c2193e28733e2994ebbd08",
          "vout": 1,
          "scriptSig": {
            "asm": "3045022100e7e584f04e49ff83656debc8485bb8a12f7ad08a4974f0749b176155a675895d02200712e4073505504d3d5544d700441e5744230dfbcdb4d3b97a7028158e757345[ALL] 02723aa843b9098d2d03d731b0c909aabb7271fba076b0ed4318163daae2ae26f5",
            "hex": "483045022100e7e584f04e49ff83656debc8485bb8a12f7ad08a4974f0749b176155a675895d02200712e4073505504d3d5544d700441e5744230dfbcdb4d3b97a7028158e757345012102723aa843b9098d2d03d731b0c909aabb7271fba076b0ed4318163daae2ae26f5"
          },
          "sequence": 4294967295
        }
      ],
      "vout": [
        {
          "value": 0.12776554,
          "n": 0,
          "scriptPubKey": {
            "asm": "OP_DUP OP_HASH160 76bca41ab883cfb84be7ea5d52c23444cc7ffd31 OP_EQUALVERIFY OP_CHECKSIG",
            "hex": "76a91476bca41ab883cfb84be7ea5d52c23444cc7ffd3188ac",
            "reqSigs": 1,
            "type": "pubkeyhash",
            "addresses": [
              "LW3myrhgbagiynwRi12Be6J9g5n25E3FFr"
            ]
          }
        }, 
        {
          "value": 2.79329608,
          "n": 1,
          "scriptPubKey": {
            "asm": "OP_DUP OP_HASH160 9a872832174577479bd937bb0796c60614e5d5e3 OP_EQUALVERIFY OP_CHECKSIG",
            "hex": "76a9149a872832174577479bd937bb0796c60614e5d5e388ac",
            "reqSigs": 1,
            "type": "pubkeyhash",
            "addresses": [
              "LZK2EdRpv4ct6wb7tMWiXsCpSTBQ3STJfQ"
            ]
          }
        }
      ],
      "hex": "010000000108bdeb94293e73283e19c2b54308f66282c6b07985224b8acb40b2bb5910a42b010000006b483045022100e7e584f04e49ff83656debc8485bb8a12f7ad08a4974f0749b176155a675895d02200712e4073505504d3d5544d700441e5744230dfbcdb4d3b97a7028158e757345012102723aa843b9098d2d03d731b0c909aabb7271fba076b0ed4318163daae2ae26f5ffffffff026af4c200000000001976a91476bca41ab883cfb84be7ea5d52c23444cc7ffd3188ac483ba610000000001976a9149a872832174577479bd937bb0796c60614e5d5e388ac00000000"
    }, 
    {
      "txid": "d1dccd7e6b5f1752cb199c6f276626d382ada975f0d0c134a048900f5e77713c",
      "hash": "d1dccd7e6b5f1752cb199c6f276626d382ada975f0d0c134a048900f5e77713c",
      "version": 1,
      "size": 226,
      "vsize": 226,
      "locktime": 0,
      "vin": [
        {
          "txid": "a721e940da7fa92a7235a937228dc5afe47ea0824e92a486485faa8c74878ed8",
          "vout": 0,
          "scriptSig": {
            "asm": "3045022100c3c2a46829297b1bf623df557ae35506b5e2f7739b9929044ce46c7c12de1319022009908281e96f6cf032b3a1787cc2592420035db62376a64fe4a38e3064550a96[ALL] 03a06c0ef60f33897e39b9f8be55680c8e41f8f215856b95dbaef52eb05ad13d7e",
            "hex": "483045022100c3c2a46829297b1bf623df557ae35506b5e2f7739b9929044ce46c7c12de1319022009908281e96f6cf032b3a1787cc2592420035db62376a64fe4a38e3064550a96012103a06c0ef60f33897e39b9f8be55680c8e41f8f215856b95dbaef52eb05ad13d7e"
          },
          "sequence": 4294967295
        }
      ],
      "vout": [
        {
          "value": 2.00000000,
          "n": 0,
          "scriptPubKey": {
            "asm": "OP_DUP OP_HASH160 d63eb7399a97c3f16c125263e505eeb451e44f0e OP_EQUALVERIFY OP_CHECKSIG",
            "hex": "76a914d63eb7399a97c3f16c125263e505eeb451e44f0e88ac",
            "reqSigs": 1,
            "type": "pubkeyhash",
            "addresses": [
              "Lekmzq4o1MzP8zrkgxmhs8R7AQ3fYA665x"
            ]
          }
        }, 
        {
          "value": 0.79911469,
          "n": 1,
          "scriptPubKey": {
            "asm": "OP_DUP OP_HASH160 829fbc4017cfeeac575303c583546a02d2fc4b29 OP_EQUALVERIFY OP_CHECKSIG",
            "hex": "76a914829fbc4017cfeeac575303c583546a02d2fc4b2988ac",
            "reqSigs": 1,
            "type": "pubkeyhash",
            "addresses": [
              "LX8dTkui875sUSnfa6hyXNXWFazmT7rU9w"
            ]
          }
        }
      ],
      "hex": "0100000001d88e87748caa5f4886a4924e82a07ee4afc58d2237a935722aa97fda40e921a7000000006b483045022100c3c2a46829297b1bf623df557ae35506b5e2f7739b9929044ce46c7c12de1319022009908281e96f6cf032b3a1787cc2592420035db62376a64fe4a38e3064550a96012103a06c0ef60f33897e39b9f8be55680c8e41f8f215856b95dbaef52eb05ad13d7effffffff0200c2eb0b000000001976a914d63eb7399a97c3f16c125263e505eeb451e44f0e88ac2d5ac304000000001976a914829fbc4017cfeeac575303c583546a02d2fc4b2988ac00000000"
    }, 
    {
      "txid": "ac83416f4a164899f810169c1f5ce7c5739514c21278cabadf8bcbf5ccfa8772",
      "hash": "ac83416f4a164899f810169c1f5ce7c5739514c21278cabadf8bcbf5ccfa8772",
      "version": 1,
      "size": 226,
      "vsize": 226,
      "locktime": 0,
      "vin": [
        {
          "txid": "3d01ac7a3ae0a4674fd2c1f3dc195f0d25c2d94962a2dfc7d5124014b1ee4dad",
          "vout": 1,
          "scriptSig": {
            "asm": "3045022100add7aad1190fef6893b24046abcec129ce55f00d3c8c141e33fe077770485ab702205368c834959fc7b7f1d9fff425a529b842f11fd9085adbff38df7b8d57f49a10[ALL] 031f088eb0682f751509a5028459cd0fd8385c8a70dbfd7521b85a8288d7912ecf",
            "hex": "483045022100add7aad1190fef6893b24046abcec129ce55f00d3c8c141e33fe077770485ab702205368c834959fc7b7f1d9fff425a529b842f11fd9085adbff38df7b8d57f49a100121031f088eb0682f751509a5028459cd0fd8385c8a70dbfd7521b85a8288d7912ecf"
          },
          "sequence": 4294967295
        }
      ],
      "vout": [
        {
          "value": 0.00676134,
          "n": 0,
          "scriptPubKey": {
            "asm": "OP_DUP OP_HASH160 e208a5bd012777bcaec8fefba4f84f0934329a88 OP_EQUALVERIFY OP_CHECKSIG",
            "hex": "76a914e208a5bd012777bcaec8fefba4f84f0934329a8888ac",
            "reqSigs": 1,
            "type": "pubkeyhash",
            "addresses": [
              "Lfq7LQ8cZ9x6J4Pt8kPUmB5iArLQZUUuAx"
            ]
          }
        }, 
        {
          "value": 0.21545506,
          "n": 1,
          "scriptPubKey": {
            "asm": "OP_DUP OP_HASH160 8a0f85af452b5fd26b3d3ac6fb7a1cdbdc7b162e OP_EQUALVERIFY OP_CHECKSIG",
            "hex": "76a9148a0f85af452b5fd26b3d3ac6fb7a1cdbdc7b162e88ac",
            "reqSigs": 1,
            "type": "pubkeyhash",
            "addresses": [
              "LXox7BpZMzZQnWmTySF8doqckVUJhGRg9A"
            ]
          }
        }
      ],
      "hex": "0100000001ad4deeb1144012d5c7dfa26249d9c2250d5f19dcf3c1d24f67a4e03a7aac013d010000006b483045022100add7aad1190fef6893b24046abcec129ce55f00d3c8c141e33fe077770485ab702205368c834959fc7b7f1d9fff425a529b842f11fd9085adbff38df7b8d57f49a100121031f088eb0682f751509a5028459cd0fd8385c8a70dbfd7521b85a8288d7912ecfffffffff0226510a00000000001976a914e208a5bd012777bcaec8fefba4f84f0934329a8888ac22c24801000000001976a9148a0f85af452b5fd26b3d3ac6fb7a1cdbdc7b162e88ac00000000"
    }, 
    {
      "txid": "c38ae654ccdbd0a6fbead809ee03833788902e822f83a7f0587acb065aed587c",
      "hash": "c38ae654ccdbd0a6fbead809ee03833788902e822f83a7f0587acb065aed587c",
      "version": 1,
      "size": 226,
      "vsize": 226,
      "locktime": 0,
      "vin": [
        {
          "txid": "d07b41de0ecbb94cde42a4f6da9e7fa1b696ae6d9c5896c7708f78d4d5ada917",
          "vout": 0,
          "scriptSig": {
            "asm": "3045022100e69759dc1b6074aebfd9806fb6219fcbd0fd05bcd971be10a6ade69bcaf5fe5602202e9022b483b2f68fe73994119ed37d771f6c2cef4dd3d0b793ac22ff14a9364d[ALL] 03280dd9c0043867812f19c10c1cc43c8a6ec37ae5f8f6d30b1adbe4c9dd4a4bea",
            "hex": "483045022100e69759dc1b6074aebfd9806fb6219fcbd0fd05bcd971be10a6ade69bcaf5fe5602202e9022b483b2f68fe73994119ed37d771f6c2cef4dd3d0b793ac22ff14a9364d012103280dd9c0043867812f19c10c1cc43c8a6ec37ae5f8f6d30b1adbe4c9dd4a4bea"
          },
          "sequence": 4294967295
        }
      ],
      "vout": [
        {
          "value": 1.15059853,
          "n": 0,
          "scriptPubKey": {
            "asm": "OP_DUP OP_HASH160 8d0be17cd130303d16211b779b64784280abdaf7 OP_EQUALVERIFY OP_CHECKSIG",
            "hex": "76a9148d0be17cd130303d16211b779b64784280abdaf788ac",
            "reqSigs": 1,
            "type": "pubkeyhash",
            "addresses": [
              "LY5jmkhkRkjEXXq9ZmCdbU9hGLffcreypM"
            ]
          }
        }, 
        {
          "value": 0.84517549,
          "n": 1,
          "scriptPubKey": {
            "asm": "OP_DUP OP_HASH160 4f0ba720d1a2a22c1b4c9ad69d6aec7887216b5f OP_EQUALVERIFY OP_CHECKSIG",
            "hex": "76a9144f0ba720d1a2a22c1b4c9ad69d6aec7887216b5f88ac",
            "reqSigs": 1,
            "type": "pubkeyhash",
            "addresses": [
              "LSRuc2CQTX47CMJmNCA7rAhKUAXumsCEuc"
            ]
          }
        }
      ],
      "hex": "010000000117a9add5d4788f70c796589c6dae96b6a17f9edaf6a442de4cb9cb0ede417bd0000000006b483045022100e69759dc1b6074aebfd9806fb6219fcbd0fd05bcd971be10a6ade69bcaf5fe5602202e9022b483b2f68fe73994119ed37d771f6c2cef4dd3d0b793ac22ff14a9364d012103280dd9c0043867812f19c10c1cc43c8a6ec37ae5f8f6d30b1adbe4c9dd4a4beaffffffff028dacdb06000000001976a9148d0be17cd130303d16211b779b64784280abdaf788acada20905000000001976a9144f0ba720d1a2a22c1b4c9ad69d6aec7887216b5f88ac00000000"
    }, 
    {
      "txid": "7b14a1fe5362a8d7f62c4c3e1844420a52f5e15e7782b94636b18be9119811d0",
      "hash": "7b14a1fe5362a8d7f62c4c3e1844420a52f5e15e7782b94636b18be9119811d0",
      "version": 1,
      "size": 226,
      "vsize": 226,
      "locktime": 0,
      "vin": [
        {
          "txid": "5877a0a6403a1edeced8e62d44891d06a7822ddc89d7b57f049a920c65cad5c8",
          "vout": 1,
          "scriptSig": {
            "asm": "3045022100c555b62b3bfa688e764eaff61baae84f57ff07677c7f1cf1b8cc85d354d376eb022050ab71a9be05b7e5383663c7d94253e836b61ed7db7fd358397ebdebc095767e[ALL] 03cedabe2db80bf264d34e83d07b6dfa253bfb5dfdbd8ed670969d12bea1ccbbf1",
            "hex": "483045022100c555b62b3bfa688e764eaff61baae84f57ff07677c7f1cf1b8cc85d354d376eb022050ab71a9be05b7e5383663c7d94253e836b61ed7db7fd358397ebdebc095767e012103cedabe2db80bf264d34e83d07b6dfa253bfb5dfdbd8ed670969d12bea1ccbbf1"
          },
          "sequence": 4294967295
        }
      ],
      "vout": [
        {
          "value": 0.10069650,
          "n": 0,
          "scriptPubKey": {
            "asm": "OP_DUP OP_HASH160 c57411672ef044efc9019268a6e977eb14d67618 OP_EQUALVERIFY OP_CHECKSIG",
            "hex": "76a914c57411672ef044efc9019268a6e977eb14d6761888ac",
            "reqSigs": 1,
            "type": "pubkeyhash",
            "addresses": [
              "LdDzRYkgqsBzx79S484VtKkZfyuU9M7Dba"
            ]
          }
        }, 
        {
          "value": 0.00696255,
          "n": 1,
          "scriptPubKey": {
            "asm": "OP_DUP OP_HASH160 2cde075fe19b4b4152b157cb2fd3f6afa12f4f3c OP_EQUALVERIFY OP_CHECKSIG",
            "hex": "76a9142cde075fe19b4b4152b157cb2fd3f6afa12f4f3c88ac",
            "reqSigs": 1,
            "type": "pubkeyhash",
            "addresses": [
              "LPKByV7U2F8rinLrbHGgEvepVMGMrkGS2q"
            ]
          }
        }
      ],
      "hex": "0100000001c8d5ca650c929a047fb5d789dc2d82a7061d89442de6d8cede1e3a40a6a07758010000006b483045022100c555b62b3bfa688e764eaff61baae84f57ff07677c7f1cf1b8cc85d354d376eb022050ab71a9be05b7e5383663c7d94253e836b61ed7db7fd358397ebdebc095767e012103cedabe2db80bf264d34e83d07b6dfa253bfb5dfdbd8ed670969d12bea1ccbbf1ffffffff0292a69900000000001976a914c57411672ef044efc9019268a6e977eb14d6761888acbf9f0a00000000001976a9142cde075fe19b4b4152b157cb2fd3f6afa12f4f3c88ac00000000"
    }
  ],
  "time": 1517266420,
  "mediantime": 1517265441,
  "nonce": 2822684754,
  "bits": "1a042eae",
  "difficulty": 4011378.762614286,
  "chainwork": "000000000000000000000000000000000000000000000033e22d068fc9dd441a",
  "previousblockhash": "1ae2fc874c08f6f5502553a035ffdc9338903d18148850c0d98e591cfdfecf78",
  "nextblockhash": "f39792c09e9ee7085206a908ccd14c6f17eede9d57eb0e01098120c8f4e782a0"
}
