{
  "hash": "7cdf9b54a2e57759310cdd1028b118602fb9a60fea07b485c5dab360637503e7",
  "confirmations": 1078,
  "strippedsize": 234,
  "size": 234,
  "weight": 936,
  "height": 1359916,
  "version": 536870912,
  "versionHex": "20000000",
  "merkleroot": "bc207602169625aa9bf190e7a56f6324401a033a9316430625726edf580f9dc9",
  "tx": [
    {
      "txid": "bc207602169625aa9bf190e7a56f6324401a033a9316430625726edf580f9dc9",
      "hash": "bc207602169625aa9bf190e7a56f6324401a033a9316430625726edf580f9dc9",
      "version": 1,
      "size": 153,
      "vsize": 153,
      "locktime": 0,
      "vin": [
        {
          "coinbase": "032cc014045a70e59a2cfabe6d6da06f2fa191353edcd714b79ed42073e1ea7a1a966fd35922a052f0434e9ef03f4000000000000000042f4c502f085700571d10000000",
          "sequence": 4294967295
        }
      ],
      "vout": [
        {
          "value": 25.00000000,
          "n": 0,
          "scriptPubKey": {
            "asm": "OP_DUP OP_HASH160 57757ed2ecf2052ff3126c397aca7defb9ca2cec OP_EQUALVERIFY OP_CHECKSIG",
            "hex": "76a91457757ed2ecf2052ff3126c397aca7defb9ca2cec88ac",
            "reqSigs": 1,
            "type": "pubkeyhash",
            "addresses": [
              "LTCPodGk5FwcJaRzH9yKnwicxzFUbxp6tN"
            ]
          }
        }
      ],
      "hex": "01000000010000000000000000000000000000000000000000000000000000000000000000ffffffff44032cc014045a70e59a2cfabe6d6da06f2fa191353edcd714b79ed42073e1ea7a1a966fd35922a052f0434e9ef03f4000000000000000042f4c502f085700571d10000000ffffffff0100f90295000000001976a91457757ed2ecf2052ff3126c397aca7defb9ca2cec88ac00000000"
    }
  ],
  "time": 1517348250,
  "mediantime": 1517347437,
  "nonce": 481694099,
  "bits": "1a042eae",
  "difficulty": 4011378.762614286,
  "chainwork": "000000000000000000000000000000000000000000000034738c887ef72fd8da",
  "previousblockhash": "11f8aeda09350e688dce57f2ea218b7bc2d1a3696692b5199db6b4ed4acd33fe",
  "nextblockhash": "29c31952546d99558051cba581f1a09d136e446773942d70f5da4f370dc4cd22"
}
