{
  "hash": "7d2b7373502481f780283af6b37b832835892b59c1c4ca166437f58f3943cc32",
  "confirmations": 3334,
  "strippedsize": 255,
  "size": 255,
  "weight": 1020,
  "height": 1357661,
  "version": 536870912,
  "versionHex": "20000000",
  "merkleroot": "697e461eab75db42fa64ceb103145f83d81d827cf20b84b19cbfaf58be013785",
  "tx": [
    {
      "txid": "697e461eab75db42fa64ceb103145f83d81d827cf20b84b19cbfaf58be013785",
      "hash": "697e461eab75db42fa64ceb103145f83d81d827cf20b84b19cbfaf58be013785",
      "version": 1,
      "size": 174,
      "vsize": 174,
      "locktime": 0,
      "vin": [
        {
          "coinbase": "035db7141c4d696e656420627920416e74506f6f6c20626a3532205a6c11361001fabe6d6d7b7a95acd06df5281b5a7a8aec9a650797b42f6fb24d3c566a480175ff6ca50f0400000000000000821d00000000000023000000",
          "sequence": 4294967295
        }
      ],
      "vout": [
        {
          "value": 25.00000000,
          "n": 0,
          "scriptPubKey": {
            "asm": "OP_DUP OP_HASH160 0ff3ccc5e8be88afe24b5d634e5852d474dbdff1 OP_EQUALVERIFY OP_CHECKSIG",
            "hex": "76a9140ff3ccc5e8be88afe24b5d634e5852d474dbdff188ac",
            "reqSigs": 1,
            "type": "pubkeyhash",
            "addresses": [
              "LLgJTbzZMsRTCUF1NtvvL9SR1a4pVieW89"
            ]
          }
        }
      ],
      "hex": "01000000010000000000000000000000000000000000000000000000000000000000000000ffffffff59035db7141c4d696e656420627920416e74506f6f6c20626a3532205a6c11361001fabe6d6d7b7a95acd06df5281b5a7a8aec9a650797b42f6fb24d3c566a480175ff6ca50f0400000000000000821d00000000000023000000ffffffff0100f90295000000001976a9140ff3ccc5e8be88afe24b5d634e5852d474dbdff188ac00000000"
    }
  ],
  "time": 1517031734,
  "mediantime": 1517031403,
  "nonce": 2192773177,
  "bits": "1a047f14",
  "difficulty": 3731199.183374282,
  "chainwork": "0000000000000000000000000000000000000000000000326b1d78ba1db53a8c",
  "previousblockhash": "f34044bf133f8f643c6877902febd1ffc72920cac8eb66b6905781a71b744da1",
  "nextblockhash": "198294bdbb7a1b1b7647fb5f855b302113c6b5fc0bf0308fe77a428f27e91d16"
}
