{
  "hash": "7e2d424ba6bec79da99343d99ded612d788e1ed3326c8718876f2e6713440c6e",
  "confirmations": 303,
  "strippedsize": 234,
  "size": 234,
  "weight": 936,
  "height": 1360691,
  "version": 536870912,
  "versionHex": "20000000",
  "merkleroot": "13a03d56d3e6906c9a24fce976de14e56bab6e51bc022e3a9647b8c1cc2a4800",
  "tx": [
    {
      "txid": "13a03d56d3e6906c9a24fce976de14e56bab6e51bc022e3a9647b8c1cc2a4800",
      "hash": "13a03d56d3e6906c9a24fce976de14e56bab6e51bc022e3a9647b8c1cc2a4800",
      "version": 1,
      "size": 153,
      "vsize": 153,
      "locktime": 0,
      "vin": [
        {
          "coinbase": "0333c314045a72b5642cfabe6d6da2f146aaa54062cef1866470c6e3f0014accbaef36503f3303eaf8bc57769ff94000000000000000042f4c502f085c0043cc98070000",
          "sequence": 4294967295
        }
      ],
      "vout": [
        {
          "value": 25.00000000,
          "n": 0,
          "scriptPubKey": {
            "asm": "OP_DUP OP_HASH160 57757ed2ecf2052ff3126c397aca7defb9ca2cec OP_EQUALVERIFY OP_CHECKSIG",
            "hex": "76a91457757ed2ecf2052ff3126c397aca7defb9ca2cec88ac",
            "reqSigs": 1,
            "type": "pubkeyhash",
            "addresses": [
              "LTCPodGk5FwcJaRzH9yKnwicxzFUbxp6tN"
            ]
          }
        }
      ],
      "hex": "01000000010000000000000000000000000000000000000000000000000000000000000000ffffffff440333c314045a72b5642cfabe6d6da2f146aaa54062cef1866470c6e3f0014accbaef36503f3303eaf8bc57769ff94000000000000000042f4c502f085c0043cc98070000ffffffff0100f90295000000001976a91457757ed2ecf2052ff3126c397aca7defb9ca2cec88ac00000000"
    }
  ],
  "time": 1517466980,
  "mediantime": 1517466280,
  "nonce": 30499135,
  "bits": "1a042eae",
  "difficulty": 4011378.762614286,
  "chainwork": "0000000000000000000000000000000000000000000000352cda103985970168",
  "previousblockhash": "88214c34efe8f52a9cfc4cfdc6e46cc2f9b8ad7379eca628f0acb14c02c73740",
  "nextblockhash": "d2307912beab64cc1a7e1140ca156e093d9720cdd491862eb21a4653d7593a22"
}
