{
  "hash": "7efde49093ab3f538ac1922ced06995a62199d30f43c7b18da71565a2f307e56",
  "confirmations": 3596,
  "strippedsize": 731,
  "size": 767,
  "weight": 2960,
  "height": 1357399,
  "version": 536870912,
  "versionHex": "20000000",
  "merkleroot": "980de4abc51e418927a7ee3a9c80de0a0db7a174c2a4d942ab759103125365ba",
  "tx": [
    {
      "txid": "5118b3ddcd8a4229577fae60cb7f98f2829fecd024ca0de985d247cba5b3a490",
      "hash": "953a4350d9c89ba60c1a0c89ea0db0a20f12c0591e2cf387c938183d64d3d32e",
      "version": 1,
      "size": 236,
      "vsize": 209,
      "locktime": 0,
      "vin": [
        {
          "coinbase": "0357b614045a6b8cb22cfabe6d6d76c68d09c2059722cbc851fc8bcc4c1b0b4046ae2f0f22dfe08be2a2b386dc534000000000000000042f4c502f0856005c8601000000",
          "sequence": 4294967295
        }
      ],
      "vout": [
        {
          "value": 25.00045200,
          "n": 0,
          "scriptPubKey": {
            "asm": "OP_DUP OP_HASH160 57757ed2ecf2052ff3126c397aca7defb9ca2cec OP_EQUALVERIFY OP_CHECKSIG",
            "hex": "76a91457757ed2ecf2052ff3126c397aca7defb9ca2cec88ac",
            "reqSigs": 1,
            "type": "pubkeyhash",
            "addresses": [
              "LTCPodGk5FwcJaRzH9yKnwicxzFUbxp6tN"
            ]
          }
        }, 
        {
          "value": 0.00000000,
          "n": 1,
          "scriptPubKey": {
            "asm": "OP_RETURN aa21a9ed4acb999399df8c189b4df85602190012edd0db3b07d67062027a8c2b186f014c",
            "hex": "6a24aa21a9ed4acb999399df8c189b4df85602190012edd0db3b07d67062027a8c2b186f014c",
            "type": "nulldata"
          }
        }
      ],
      "hex": "010000000001010000000000000000000000000000000000000000000000000000000000000000ffffffff440357b614045a6b8cb22cfabe6d6d76c68d09c2059722cbc851fc8bcc4c1b0b4046ae2f0f22dfe08be2a2b386dc534000000000000000042f4c502f0856005c8601000000ffffffff0290a90395000000001976a91457757ed2ecf2052ff3126c397aca7defb9ca2cec88ac0000000000000000266a24aa21a9ed4acb999399df8c189b4df85602190012edd0db3b07d67062027a8c2b186f014c0120000000000000000000000000000000000000000000000000000000000000000000000000"
    }, 
    {
      "txid": "8f6b7c7ca3826b116e21a69a85962206e9853c23fe9a7276091d2e26c867d679",
      "hash": "8f6b7c7ca3826b116e21a69a85962206e9853c23fe9a7276091d2e26c867d679",
      "version": 1,
      "size": 225,
      "vsize": 225,
      "locktime": 0,
      "vin": [
        {
          "txid": "222e090bd4db873d270d7d21fd6a49f979ebfa85fdf06ea911befa7ab508e462",
          "vout": 1,
          "scriptSig": {
            "asm": "304402201347423ffde48190f410bc1278e4fe35a1cd7b2ba872d9cddcb611c38fcc85fe022036b00e81d8f3c36bdae39f57525bdcb443a1a2e85950788b6dd0f8e5a586b440[ALL] 02acc194cd28d6bd036c224dcb521c99157baea29f04216a67f3f8bc666b720da6",
            "hex": "47304402201347423ffde48190f410bc1278e4fe35a1cd7b2ba872d9cddcb611c38fcc85fe022036b00e81d8f3c36bdae39f57525bdcb443a1a2e85950788b6dd0f8e5a586b440012102acc194cd28d6bd036c224dcb521c99157baea29f04216a67f3f8bc666b720da6"
          },
          "sequence": 4294967295
        }
      ],
      "vout": [
        {
          "value": 0.51711000,
          "n": 0,
          "scriptPubKey": {
            "asm": "OP_DUP OP_HASH160 5455910d11f4e32e77f3abe98ae79d71b9f3aff7 OP_EQUALVERIFY OP_CHECKSIG",
            "hex": "76a9145455910d11f4e32e77f3abe98ae79d71b9f3aff788ac",
            "reqSigs": 1,
            "type": "pubkeyhash",
            "addresses": [
              "LSusXbgUipXh7NLQyKjgGPQUwPPBtHbdJ5"
            ]
          }
        }, 
        {
          "value": 0.36085138,
          "n": 1,
          "scriptPubKey": {
            "asm": "OP_DUP OP_HASH160 5ac57f6e57067e3a1e814b0abc00528ec358fdb8 OP_EQUALVERIFY OP_CHECKSIG",
            "hex": "76a9145ac57f6e57067e3a1e814b0abc00528ec358fdb888ac",
            "reqSigs": 1,
            "type": "pubkeyhash",
            "addresses": [
              "LTVufs4PrCGoEuWzpcSvku6zf93Ymc6rKR"
            ]
          }
        }
      ],
      "hex": "010000000162e408b57afabe11a96ef0fd85faeb79f9496afd217d0d273d87dbd40b092e22010000006a47304402201347423ffde48190f410bc1278e4fe35a1cd7b2ba872d9cddcb611c38fcc85fe022036b00e81d8f3c36bdae39f57525bdcb443a1a2e85950788b6dd0f8e5a586b440012102acc194cd28d6bd036c224dcb521c99157baea29f04216a67f3f8bc666b720da6ffffffff02180c1503000000001976a9145455910d11f4e32e77f3abe98ae79d71b9f3aff788ac929d2602000000001976a9145ac57f6e57067e3a1e814b0abc00528ec358fdb888ac00000000"
    }, 
    {
      "txid": "baffbb86c6759ef044d9072f16b7e454c3fcf358c170af45f234fd423b9fe38b",
      "hash": "baffbb86c6759ef044d9072f16b7e454c3fcf358c170af45f234fd423b9fe38b",
      "version": 1,
      "size": 225,
      "vsize": 225,
      "locktime": 0,
      "vin": [
        {
          "txid": "4706547eea827f67c811a1c240372f3a19c82dee8a05670635cf95ac7da9a7e5",
          "vout": 0,
          "scriptSig": {
            "asm": "304402200118e107e4f7be0cf1a34748de76875e99d3aee28b6175d3b1efe0ab13b8c0ed0220225c7792f33d395531fcc5ee3de666ea821f0d487ed84d4f45e2202dd85ecc15[ALL] 029a6d7db776e592deb8da8c7f6e5bf3ad6e953ac08a2618a46577c1e047c76045",
            "hex": "47304402200118e107e4f7be0cf1a34748de76875e99d3aee28b6175d3b1efe0ab13b8c0ed0220225c7792f33d395531fcc5ee3de666ea821f0d487ed84d4f45e2202dd85ecc150121029a6d7db776e592deb8da8c7f6e5bf3ad6e953ac08a2618a46577c1e047c76045"
          },
          "sequence": 4294967295
        }
      ],
      "vout": [
        {
          "value": 0.17798021,
          "n": 0,
          "scriptPubKey": {
            "asm": "OP_DUP OP_HASH160 0366f50cf4689c7e75291072a38ae61a93d1be78 OP_EQUALVERIFY OP_CHECKSIG",
            "hex": "76a9140366f50cf4689c7e75291072a38ae61a93d1be7888ac",
            "reqSigs": 1,
            "type": "pubkeyhash",
            "addresses": [
              "LKXwdP7uk7XZYByqAi4R53VmrYFiwJwDoe"
            ]
          }
        }, 
        {
          "value": 0.20830000,
          "n": 1,
          "scriptPubKey": {
            "asm": "OP_DUP OP_HASH160 ef58687b669a9d3121ed69e5ef12b02959411ee1 OP_EQUALVERIFY OP_CHECKSIG",
            "hex": "76a914ef58687b669a9d3121ed69e5ef12b02959411ee188ac",
            "reqSigs": 1,
            "type": "pubkeyhash",
            "addresses": [
              "Lh3VfmLZ1K93iydkqRsKVV5y26phBi8FDX"
            ]
          }
        }
      ],
      "hex": "0100000001e5a7a97dac95cf350667058aee2dc8193a2f3740c2a111c8677f82ea7e540647000000006a47304402200118e107e4f7be0cf1a34748de76875e99d3aee28b6175d3b1efe0ab13b8c0ed0220225c7792f33d395531fcc5ee3de666ea821f0d487ed84d4f45e2202dd85ecc150121029a6d7db776e592deb8da8c7f6e5bf3ad6e953ac08a2618a46577c1e047c76045ffffffff0285930f01000000001976a9140366f50cf4689c7e75291072a38ae61a93d1be7888ac30d73d01000000001976a914ef58687b669a9d3121ed69e5ef12b02959411ee188ac00000000"
    }
  ],
  "time": 1516997810,
  "mediantime": 1516997527,
  "nonce": 122797975,
  "bits": "1a047f14",
  "difficulty": 3731199.183374282,
  "chainwork": "00000000000000000000000000000000000000000000003230d8a54b3efeb7f0",
  "previousblockhash": "6d014bc4e3149c330a03b2085b1d42044f05407a9ae7960c35ce40eb9932b365",
  "nextblockhash": "2d228a11820e94b3c6918b24629ea464612f3035d739a5d3dcc853f4dba9068b"
}
