{
  "hash": "7f3de9127228442e70f87928940ee161e9e1f468c281ef0cd81cde2fd10b687f",
  "confirmations": 2217,
  "strippedsize": 234,
  "size": 234,
  "weight": 936,
  "height": 1358777,
  "version": 536870912,
  "versionHex": "20000000",
  "merkleroot": "96364ce123fb03f8b2e09b88c9453b147b771c49850622f68922bd9c92603293",
  "tx": [
    {
      "txid": "96364ce123fb03f8b2e09b88c9453b147b771c49850622f68922bd9c92603293",
      "hash": "96364ce123fb03f8b2e09b88c9453b147b771c49850622f68922bd9c92603293",
      "version": 1,
      "size": 153,
      "vsize": 153,
      "locktime": 0,
      "vin": [
        {
          "coinbase": "03b9bb14045a6e80822cfabe6d6d6f5a126a3e7ff064c1e7a2b8b9da05e1bd127aabd93fef6260d05f5ad1462c8b4000000000000000042f4c502f08220049f915000000",
          "sequence": 4294967295
        }
      ],
      "vout": [
        {
          "value": 25.00000000,
          "n": 0,
          "scriptPubKey": {
            "asm": "OP_DUP OP_HASH160 57757ed2ecf2052ff3126c397aca7defb9ca2cec OP_EQUALVERIFY OP_CHECKSIG",
            "hex": "76a91457757ed2ecf2052ff3126c397aca7defb9ca2cec88ac",
            "reqSigs": 1,
            "type": "pubkeyhash",
            "addresses": [
              "LTCPodGk5FwcJaRzH9yKnwicxzFUbxp6tN"
            ]
          }
        }
      ],
      "hex": "01000000010000000000000000000000000000000000000000000000000000000000000000ffffffff4403b9bb14045a6e80822cfabe6d6d6f5a126a3e7ff064c1e7a2b8b9da05e1bd127aabd93fef6260d05f5ad1462c8b4000000000000000042f4c502f08220049f915000000ffffffff0100f90295000000001976a91457757ed2ecf2052ff3126c397aca7defb9ca2cec88ac00000000"
    }
  ],
  "time": 1517191298,
  "mediantime": 1517190978,
  "nonce": 2441885110,
  "bits": "1a047f14",
  "difficulty": 3731199.183374282,
  "chainwork": "0000000000000000000000000000000000000000000000336350515d9ba53be4",
  "previousblockhash": "598d698e525fbd1013d92f8e765356cb2d7f41520b649b45df55e4ae14c68a90",
  "nextblockhash": "c899095fca488e32cfd2dab18d16f91d5054641ee82cb4345db943e0dac28ad6"
}
