{
  "hash": "7f479471d2d9e44d62545072ba8361fd942dea81d27e79fa378c4b1dcad44966",
  "confirmations": 1035,
  "strippedsize": 254,
  "size": 254,
  "weight": 1016,
  "height": 1359959,
  "version": 536870912,
  "versionHex": "20000000",
  "merkleroot": "c36f39d7dcf4356f167f59e95951d3ab8add34a8d4bffbdb0eda8a38a3d5d9b3",
  "tx": [
    {
      "txid": "c36f39d7dcf4356f167f59e95951d3ab8add34a8d4bffbdb0eda8a38a3d5d9b3",
      "hash": "c36f39d7dcf4356f167f59e95951d3ab8add34a8d4bffbdb0eda8a38a3d5d9b3",
      "version": 1,
      "size": 173,
      "vsize": 173,
      "locktime": 0,
      "vin": [
        {
          "coinbase": "0357c0141b4d696e656420627920416e74506f6f6c20626a312045205a70ff3dfabe6d6d2357329bac1f68463d4193df44bff407f6bd0f4a4477889d302970ee1fd2e90c0400000000000000fd1b00000000000012000000",
          "sequence": 4294967295
        }
      ],
      "vout": [
        {
          "value": 25.00000000,
          "n": 0,
          "scriptPubKey": {
            "asm": "OP_DUP OP_HASH160 0ff3ccc5e8be88afe24b5d634e5852d474dbdff1 OP_EQUALVERIFY OP_CHECKSIG",
            "hex": "76a9140ff3ccc5e8be88afe24b5d634e5852d474dbdff188ac",
            "reqSigs": 1,
            "type": "pubkeyhash",
            "addresses": [
              "LLgJTbzZMsRTCUF1NtvvL9SR1a4pVieW89"
            ]
          }
        }
      ],
      "hex": "01000000010000000000000000000000000000000000000000000000000000000000000000ffffffff580357c0141b4d696e656420627920416e74506f6f6c20626a312045205a70ff3dfabe6d6d2357329bac1f68463d4193df44bff407f6bd0f4a4477889d302970ee1fd2e90c0400000000000000fd1b00000000000012000000ffffffff0100f90295000000001976a9140ff3ccc5e8be88afe24b5d634e5852d474dbdff188ac00000000"
    }
  ],
  "time": 1517354813,
  "mediantime": 1517354357,
  "nonce": 19422469,
  "bits": "1a042eae",
  "difficulty": 4011378.762614286,
  "chainwork": "0000000000000000000000000000000000000000000000347dd48d0dc69a51b0",
  "previousblockhash": "767e3e07ae9d881b0d2761a72d4e615d0e5038b1a1ff41778d5da07924b1b359",
  "nextblockhash": "7af2f0790e5842af778294cd0be84bf24ba96fddaeb3f5628fcb4edd812bcace"
}
