{
  "hash": "7f732d98103d99ef47c2fe64646b8d0182e9a72c7cabea09325d3a0184e3c724",
  "confirmations": 3119,
  "strippedsize": 1150,
  "size": 1627,
  "weight": 5077,
  "height": 1357876,
  "version": 536870912,
  "versionHex": "20000000",
  "merkleroot": "48af5afa65ba1dbe5411062e3e0b2c5a87dfd349929128a64534082cedb72794",
  "tx": [
    {
      "txid": "622ec02d316faf8c8a844ed17cdd66cc470b331314cb83709914c7e48e01b769",
      "hash": "ab763e1f6ae2e6494542067304fa8a829bcd63c4187142a6bd548c03075412df",
      "version": 1,
      "size": 277,
      "vsize": 250,
      "locktime": 950484984,
      "vin": [
        {
          "coinbase": "0334b8142cfabe6d6d0617d24a94c7aec66aae9ddfdfd51463c78039f5fde5417f1f3daf6fe872aa3e08000000f09f909f114d696e6564206279207332743638393635000000000000000000000000000000000000000000000000000000000000000000",
          "sequence": 448
        }
      ],
      "vout": [
        {
          "value": 25.00129800,
          "n": 0,
          "scriptPubKey": {
            "asm": "OP_DUP OP_HASH160 aa3750aa18b8a0f3f0590731e1fab934856680cf OP_EQUALVERIFY OP_CHECKSIG",
            "hex": "76a914aa3750aa18b8a0f3f0590731e1fab934856680cf88ac",
            "reqSigs": 1,
            "type": "pubkeyhash",
            "addresses": [
              "LajyQBeZaBA1NkZDeY8YT5RYYVRkXMvb2T"
            ]
          }
        }, 
        {
          "value": 0.00000000,
          "n": 1,
          "scriptPubKey": {
            "asm": "OP_RETURN aa21a9ed2b82c91d0c14c499056690127539e713d835d397b38b7fee85ec3ae5d0504041 0000000000000000",
            "hex": "6a24aa21a9ed2b82c91d0c14c499056690127539e713d835d397b38b7fee85ec3ae5d0504041080000000000000000",
            "type": "nulldata"
          }
        }
      ],
      "hex": "010000000001010000000000000000000000000000000000000000000000000000000000000000ffffffff640334b8142cfabe6d6d0617d24a94c7aec66aae9ddfdfd51463c78039f5fde5417f1f3daf6fe872aa3e08000000f09f909f114d696e6564206279207332743638393635000000000000000000000000000000000000000000000000000000000000000000c00100000208f40495000000001976a914aa3750aa18b8a0f3f0590731e1fab934856680cf88ac00000000000000002f6a24aa21a9ed2b82c91d0c14c499056690127539e713d835d397b38b7fee85ec3ae5d050404108000000000000000001200000000000000000000000000000000000000000000000000000000000000000f83fa738"
    }, 
    {
      "txid": "d59bd79ff57fb874507a2512ca331685a01dfd50fe63e16c553d7238e9ce6f7f",
      "hash": "fd9161aedcbbe6e4965d5a5761ad33aca74e3ba21b4ab32bb8953117cb0cf715",
      "version": 1,
      "size": 669,
      "vsize": 339,
      "locktime": 0,
      "vin": [
        {
          "txid": "5c996a246a084a8aa7322bb96f2d02d3177637397c447fcf6a80d287f4e8c039",
          "vout": 1,
          "scriptSig": {
            "asm": "00207ceb7475af6ec5e0e99516cabf11ea738a75eeee9ba79dd5a9920e2bc8f121b8",
            "hex": "2200207ceb7475af6ec5e0e99516cabf11ea738a75eeee9ba79dd5a9920e2bc8f121b8"
          },
          "txinwitness": [
            "", 
            "3045022100e603e0c506c20b9eea9dcf366500898c50f45edadaa2044362d98176f3be79f002202588df3532ccd997b7163c427a2fda1ebdddb1208d21e03940d1f232545b65ef01", 
            "3045022100f763d8ebb4d2dc4a2a37b504ba429309802371a59940337bd12367e2a7c6ffb6022056f3436e34d56231a41239dd85a879de4a24256d7ecbf7ede862a43ac45d7e0301", 
            "522103ee7513ae714767a5530b87df1a029948abb55bed9e5f4771d64861a3d098ee58210293cd75ae63055fa43e4bf0ee7d36f8616043752d372979d4cf2fba3170c1702d52ae"
          ],
          "sequence": 4294967295
        }, 
        {
          "txid": "3fb5a25ce36ce0a9a01a158569f0cdf64bb79290bad345d3ea14cc2ac33bfde7",
          "vout": 0,
          "scriptSig": {
            "asm": "002083ed040858a77d8414b03cc2f9fb0adf767de194922c8ec7da6c65a64f5c4cb5",
            "hex": "22002083ed040858a77d8414b03cc2f9fb0adf767de194922c8ec7da6c65a64f5c4cb5"
          },
          "txinwitness": [
            "", 
            "304402201e6d9739311e0e1c8074b41b1ad9e4e3e3b7fe0bab3ae62dbe277d9e74bbb8410220708fdd63b32bd17ae731ac20b76db1b34376b134d8d89c50995c8cf799f46f3601", 
            "3045022100de9da92b9a38efb0c293cf1ae778a66e72db87c69cea5c866a97fec128a4ffbd02205138ea7b1320c4bfbe3fa430339cc010a30aa229a4e3665adc423de7e601606801", 
            "52210219d96814dc7f75d6ffe194a32267752b049a3df642a1a198e18abfd2935e8ec4210293cd75ae63055fa43e4bf0ee7d36f8616043752d372979d4cf2fba3170c1702d52ae"
          ],
          "sequence": 4294967295
        }
      ],
      "vout": [
        {
          "value": 0.42900000,
          "n": 0,
          "scriptPubKey": {
            "asm": "OP_DUP OP_HASH160 67c1ce38258593908c7df176032dfc36761194c5 OP_EQUALVERIFY OP_CHECKSIG",
            "hex": "76a91467c1ce38258593908c7df176032dfc36761194c588ac",
            "reqSigs": 1,
            "type": "pubkeyhash",
            "addresses": [
              "LUga2pL5HfX14KEbGzirtAj9boyaSY73NS"
            ]
          }
        }, 
        {
          "value": 3.61461775,
          "n": 1,
          "scriptPubKey": {
            "asm": "OP_HASH160 2cb8c6afa966f6c0a98bceeb0bf2a454e68d27e6 OP_EQUAL",
            "hex": "a9142cb8c6afa966f6c0a98bceeb0bf2a454e68d27e687",
            "reqSigs": 1,
            "type": "scripthash",
            "addresses": [
              "MBydKLhbZhV4xuzibVbeRCgnpCf4Lg4Mc6"
            ]
          }
        }
      ],
      "hex": "0100000000010239c0e8f487d2806acf7f447c39377617d3022d6fb92b32a78a4a086a246a995c01000000232200207ceb7475af6ec5e0e99516cabf11ea738a75eeee9ba79dd5a9920e2bc8f121b8ffffffffe7fd3bc32acc14ead345d3ba9092b74bf6cdf06985151aa0a9e06ce35ca2b53f000000002322002083ed040858a77d8414b03cc2f9fb0adf767de194922c8ec7da6c65a64f5c4cb5ffffffff02209a8e02000000001976a91467c1ce38258593908c7df176032dfc36761194c588ac0f788b150000000017a9142cb8c6afa966f6c0a98bceeb0bf2a454e68d27e6870400483045022100e603e0c506c20b9eea9dcf366500898c50f45edadaa2044362d98176f3be79f002202588df3532ccd997b7163c427a2fda1ebdddb1208d21e03940d1f232545b65ef01483045022100f763d8ebb4d2dc4a2a37b504ba429309802371a59940337bd12367e2a7c6ffb6022056f3436e34d56231a41239dd85a879de4a24256d7ecbf7ede862a43ac45d7e030147522103ee7513ae714767a5530b87df1a029948abb55bed9e5f4771d64861a3d098ee58210293cd75ae63055fa43e4bf0ee7d36f8616043752d372979d4cf2fba3170c1702d52ae040047304402201e6d9739311e0e1c8074b41b1ad9e4e3e3b7fe0bab3ae62dbe277d9e74bbb8410220708fdd63b32bd17ae731ac20b76db1b34376b134d8d89c50995c8cf799f46f3601483045022100de9da92b9a38efb0c293cf1ae778a66e72db87c69cea5c866a97fec128a4ffbd02205138ea7b1320c4bfbe3fa430339cc010a30aa229a4e3665adc423de7e6016068014752210219d96814dc7f75d6ffe194a32267752b049a3df642a1a198e18abfd2935e8ec4210293cd75ae63055fa43e4bf0ee7d36f8616043752d372979d4cf2fba3170c1702d52ae00000000"
    }, 
    {
      "txid": "e622f5fb2be147723f6c90fc43ff8ccebc127553e8711fa4f6e3438d09a89762",
      "hash": "e622f5fb2be147723f6c90fc43ff8ccebc127553e8711fa4f6e3438d09a89762",
      "version": 1,
      "size": 374,
      "vsize": 374,
      "locktime": 0,
      "vin": [
        {
          "txid": "9cad5859a9ad803cb0e21840065237fcc44fce7f63e8df905abf96e87efa2c7e",
          "vout": 15,
          "scriptSig": {
            "asm": "3045022100c5b99fb8455905bd415435e270e813c9dce226846a9fb3dca2ba82697dd3ebe1022070d16396144c184b8d49f468877c062e7e8ee5d43a0913e3aa82acae0c6bba0b[ALL] 02f39bb6fe8b9ce0f7c7c3aac1a6b550c44aa895ca4f862366898ae8bfc43c8ec5",
            "hex": "483045022100c5b99fb8455905bd415435e270e813c9dce226846a9fb3dca2ba82697dd3ebe1022070d16396144c184b8d49f468877c062e7e8ee5d43a0913e3aa82acae0c6bba0b012102f39bb6fe8b9ce0f7c7c3aac1a6b550c44aa895ca4f862366898ae8bfc43c8ec5"
          },
          "sequence": 4294967295
        }, 
        {
          "txid": "9cad5859a9ad803cb0e21840065237fcc44fce7f63e8df905abf96e87efa2c7e",
          "vout": 14,
          "scriptSig": {
            "asm": "3045022100fd2abc3cd6aa0225bff9904cb46df74e7daeded2b8032b1e001ec0f461f6325802203e72ad5b9abb52cba66e0b46fe14cf9a7558a3e9e697d42d978660a234fc5975[ALL] 02791f5f5ff6509c26d1b0f7ff8ac9a13367814de2fb26751d29bd0ec47c3a338e",
            "hex": "483045022100fd2abc3cd6aa0225bff9904cb46df74e7daeded2b8032b1e001ec0f461f6325802203e72ad5b9abb52cba66e0b46fe14cf9a7558a3e9e697d42d978660a234fc5975012102791f5f5ff6509c26d1b0f7ff8ac9a13367814de2fb26751d29bd0ec47c3a338e"
          },
          "sequence": 4294967295
        }
      ],
      "vout": [
        {
          "value": 63.69883158,
          "n": 0,
          "scriptPubKey": {
            "asm": "OP_DUP OP_HASH160 51a8a89c39b9791ff27b97308f1bcfd9925f6de9 OP_EQUALVERIFY OP_CHECKSIG",
            "hex": "76a91451a8a89c39b9791ff27b97308f1bcfd9925f6de988ac",
            "reqSigs": 1,
            "type": "pubkeyhash",
            "addresses": [
              "LSfj3MkZvEc7FAF4mdDTSB76C55ndBYBfN"
            ]
          }
        }, 
        {
          "value": 136.30079442,
          "n": 1,
          "scriptPubKey": {
            "asm": "OP_DUP OP_HASH160 d1fc53e5cf7a861925822c9afe70a3a621bb451d OP_EQUALVERIFY OP_CHECKSIG",
            "hex": "76a914d1fc53e5cf7a861925822c9afe70a3a621bb451d88ac",
            "reqSigs": 1,
            "type": "pubkeyhash",
            "addresses": [
              "LeNFmLs5Ac6niikzaNM7sBZkrpgW2AsVQo"
            ]
          }
        }
      ],
      "hex": "01000000027e2cfa7ee896bf5a90dfe8637fce4fc4fc3752064018e2b03c80ada95958ad9c0f0000006b483045022100c5b99fb8455905bd415435e270e813c9dce226846a9fb3dca2ba82697dd3ebe1022070d16396144c184b8d49f468877c062e7e8ee5d43a0913e3aa82acae0c6bba0b012102f39bb6fe8b9ce0f7c7c3aac1a6b550c44aa895ca4f862366898ae8bfc43c8ec5ffffffff7e2cfa7ee896bf5a90dfe8637fce4fc4fc3752064018e2b03c80ada95958ad9c0e0000006b483045022100fd2abc3cd6aa0225bff9904cb46df74e7daeded2b8032b1e001ec0f461f6325802203e72ad5b9abb52cba66e0b46fe14cf9a7558a3e9e697d42d978660a234fc5975012102791f5f5ff6509c26d1b0f7ff8ac9a13367814de2fb26751d29bd0ec47c3a338effffffff0216b4ac7b010000001976a91451a8a89c39b9791ff27b97308f1bcfd9925f6de988acd2816a2c030000001976a914d1fc53e5cf7a861925822c9afe70a3a621bb451d88ac00000000"
    }, 
    {
      "txid": "825503771e11b74faee31251bd390c7a25921ee9ee7a1cc58dee11fd41a9dee6",
      "hash": "825503771e11b74faee31251bd390c7a25921ee9ee7a1cc58dee11fd41a9dee6",
      "version": 1,
      "size": 226,
      "vsize": 226,
      "locktime": 0,
      "vin": [
        {
          "txid": "777a6dcc8755a233755628f7e5bf2f1142ac1640097765703613315f59873d6e",
          "vout": 0,
          "scriptSig": {
            "asm": "3045022100f8a01c22e02cd3e54b2dac4bfacf1cf24b3b5b34edabef69a1200ea3427a5f1602200690b11ede89526bafb0e61b22d2e76509d9cfcfab23d97580f1c68ff11bb095[ALL] 030ba54e3f42ac82beeec4f4864160bee2d6b5131426c319c328403a54e42eff58",
            "hex": "483045022100f8a01c22e02cd3e54b2dac4bfacf1cf24b3b5b34edabef69a1200ea3427a5f1602200690b11ede89526bafb0e61b22d2e76509d9cfcfab23d97580f1c68ff11bb0950121030ba54e3f42ac82beeec4f4864160bee2d6b5131426c319c328403a54e42eff58"
          },
          "sequence": 4294967295
        }
      ],
      "vout": [
        {
          "value": 42.01272239,
          "n": 0,
          "scriptPubKey": {
            "asm": "OP_DUP OP_HASH160 57129e05e7b7c4e3e1aade5f02d2efa3019169cf OP_EQUALVERIFY OP_CHECKSIG",
            "hex": "76a91457129e05e7b7c4e3e1aade5f02d2efa3019169cf88ac",
            "reqSigs": 1,
            "type": "pubkeyhash",
            "addresses": [
              "LTAMMTFSYWW9xnr2hbaCEAzd3KeF2J8LqV"
            ]
          }
        }, 
        {
          "value": 4.42619408,
          "n": 1,
          "scriptPubKey": {
            "asm": "OP_DUP OP_HASH160 e92ce4a75b72c3862ab8a5503ea0a2d5355e41fc OP_EQUALVERIFY OP_CHECKSIG",
            "hex": "76a914e92ce4a75b72c3862ab8a5503ea0a2d5355e41fc88ac",
            "reqSigs": 1,
            "type": "pubkeyhash",
            "addresses": [
              "LgUsV9Ck8AYtK53ivehXv1MCSJxthHvqou"
            ]
          }
        }
      ],
      "hex": "01000000016e3d87595f311336706577094016ac42112fbfe5f728567533a25587cc6d7a77000000006b483045022100f8a01c22e02cd3e54b2dac4bfacf1cf24b3b5b34edabef69a1200ea3427a5f1602200690b11ede89526bafb0e61b22d2e76509d9cfcfab23d97580f1c68ff11bb0950121030ba54e3f42ac82beeec4f4864160bee2d6b5131426c319c328403a54e42eff58ffffffff02af536afa000000001976a91457129e05e7b7c4e3e1aade5f02d2efa3019169cf88ac10d6611a000000001976a914e92ce4a75b72c3862ab8a5503ea0a2d5355e41fc88ac00000000"
    }
  ],
  "time": 1517059617,
  "mediantime": 1517059212,
  "nonce": 177131891,
  "bits": "1a047f14",
  "difficulty": 3731199.183374282,
  "chainwork": "0000000000000000000000000000000000000000000000329aee60db72c23462",
  "previousblockhash": "030c069a8a59ab8c80ffb14ab71605e624653883bb79fd355308288320737655",
  "nextblockhash": "77bee19b31b3ac7d3e13c3b102cffea9a64713cf919d59681a9d043ff17170d9"
}
