{
  "hash": "7f8a5732e9eeb0dbaa460868094892ce9df89b1815280a77af9e0e5a08363e56",
  "confirmations": 487,
  "strippedsize": 4890,
  "size": 4926,
  "weight": 19596,
  "height": 1360507,
  "version": 536870912,
  "versionHex": "20000000",
  "merkleroot": "ddd090f80833fcdcd2b55569c1043d1cf4d90ca9561ec2867882448125e2bb9b",
  "tx": [
    {
      "txid": "589f99a72a8719157dfb4142ceab8505758ce96f5fe00c737e841e0f40a26722",
      "hash": "d2549c8f25a72701624ba87030bb36a78fbcbef8f9642667a80f23c705271c89",
      "version": 1,
      "size": 236,
      "vsize": 209,
      "locktime": 0,
      "vin": [
        {
          "coinbase": "037bc214045a724e432cfabe6d6d20cb6d7434506c65b11832aa83474750012ee46da6b1a22bddd0ddaf32cb4d234000000000000000042f4c502f08220048b31e000000",
          "sequence": 4294967295
        }
      ],
      "vout": [
        {
          "value": 25.00365239,
          "n": 0,
          "scriptPubKey": {
            "asm": "OP_DUP OP_HASH160 57757ed2ecf2052ff3126c397aca7defb9ca2cec OP_EQUALVERIFY OP_CHECKSIG",
            "hex": "76a91457757ed2ecf2052ff3126c397aca7defb9ca2cec88ac",
            "reqSigs": 1,
            "type": "pubkeyhash",
            "addresses": [
              "LTCPodGk5FwcJaRzH9yKnwicxzFUbxp6tN"
            ]
          }
        }, 
        {
          "value": 0.00000000,
          "n": 1,
          "scriptPubKey": {
            "asm": "OP_RETURN aa21a9edd9ce5e8b8943df80dc839859919c20e3e5131a950ff8581939da0bd0169520e8",
            "hex": "6a24aa21a9edd9ce5e8b8943df80dc839859919c20e3e5131a950ff8581939da0bd0169520e8",
            "type": "nulldata"
          }
        }
      ],
      "hex": "010000000001010000000000000000000000000000000000000000000000000000000000000000ffffffff44037bc214045a724e432cfabe6d6d20cb6d7434506c65b11832aa83474750012ee46da6b1a22bddd0ddaf32cb4d234000000000000000042f4c502f08220048b31e000000ffffffff02b78b0895000000001976a91457757ed2ecf2052ff3126c397aca7defb9ca2cec88ac0000000000000000266a24aa21a9edd9ce5e8b8943df80dc839859919c20e3e5131a950ff8581939da0bd0169520e80120000000000000000000000000000000000000000000000000000000000000000000000000"
    }, 
    {
      "txid": "7cb38369191570074d60f3c8c3bcf702b16a94486fd4f97e2593e25e8bc77926",
      "hash": "7cb38369191570074d60f3c8c3bcf702b16a94486fd4f97e2593e25e8bc77926",
      "version": 1,
      "size": 668,
      "vsize": 668,
      "locktime": 0,
      "vin": [
        {
          "txid": "e0577712ebab680085ed3581cbec61775c83ecd8e447296c6097971eed5d7339",
          "vout": 17,
          "scriptSig": {
            "asm": "3045022100ff575dfead909ec47f8ff9bded4eeeb17e2d9f1fd26ff94b4d1323a8f6aaa35202207a28fd3800e55af89ebd412b1911accab83f7619c1c9fc2a516d4f36588648c3[ALL] 02ab8f0d66218556601e7b3ce19f6ac1bcb1a0f48cd5c2bc43de6a9aba056e0464",
            "hex": "483045022100ff575dfead909ec47f8ff9bded4eeeb17e2d9f1fd26ff94b4d1323a8f6aaa35202207a28fd3800e55af89ebd412b1911accab83f7619c1c9fc2a516d4f36588648c3012102ab8f0d66218556601e7b3ce19f6ac1bcb1a0f48cd5c2bc43de6a9aba056e0464"
          },
          "sequence": 4294967295
        }
      ],
      "vout": [
        {
          "value": 0.02847000,
          "n": 0,
          "scriptPubKey": {
            "asm": "OP_DUP OP_HASH160 5830beee34849420e42a9ce58d5918c0c4087dd1 OP_EQUALVERIFY OP_CHECKSIG",
            "hex": "76a9145830beee34849420e42a9ce58d5918c0c4087dd188ac",
            "reqSigs": 1,
            "type": "pubkeyhash",
            "addresses": [
              "LTGG81ie7YHYRbRMSt1R214sMwss8GNbVW"
            ]
          }
        }, 
        {
          "value": 0.00700000,
          "n": 1,
          "scriptPubKey": {
            "asm": "OP_DUP OP_HASH160 3fa2fd1083d5d2a29e83f1000d7596783f2cb2ab OP_EQUALVERIFY OP_CHECKSIG",
            "hex": "76a9143fa2fd1083d5d2a29e83f1000d7596783f2cb2ab88ac",
            "reqSigs": 1,
            "type": "pubkeyhash",
            "addresses": [
              "LR2S5wUvzH2J38Bigzsdm8NRKzqYA86aQm"
            ]
          }
        }, 
        {
          "value": 0.17363883,
          "n": 2,
          "scriptPubKey": {
            "asm": "OP_DUP OP_HASH160 c9f670ed97dc34e6affca8c9e6e359fb19339562 OP_EQUALVERIFY OP_CHECKSIG",
            "hex": "76a914c9f670ed97dc34e6affca8c9e6e359fb1933956288ac",
            "reqSigs": 1,
            "type": "pubkeyhash",
            "addresses": [
              "LddqJoPA1AyGr3KZJggzfE1jYwavEsrdhi"
            ]
          }
        }, 
        {
          "value": 0.09020800,
          "n": 3,
          "scriptPubKey": {
            "asm": "OP_DUP OP_HASH160 7cdebf9fc12b6ddbbf3067a6b71745e42e1b2e49 OP_EQUALVERIFY OP_CHECKSIG",
            "hex": "76a9147cdebf9fc12b6ddbbf3067a6b71745e42e1b2e4988ac",
            "reqSigs": 1,
            "type": "pubkeyhash",
            "addresses": [
              "LWcCtqdaFnFPckTrdHYSwuQqRTGiMZjWfg"
            ]
          }
        }, 
        {
          "value": 2.37811516,
          "n": 4,
          "scriptPubKey": {
            "asm": "OP_DUP OP_HASH160 7e52e97738a5c653d40cfde58fc2f0daaae2c99e OP_EQUALVERIFY OP_CHECKSIG",
            "hex": "76a9147e52e97738a5c653d40cfde58fc2f0daaae2c99e88ac",
            "reqSigs": 1,
            "type": "pubkeyhash",
            "addresses": [
              "LWjtjD4J46eJ62JSTXjC4X8xNmW2D74aix"
            ]
          }
        }, 
        {
          "value": 0.34200000,
          "n": 5,
          "scriptPubKey": {
            "asm": "OP_DUP OP_HASH160 57b9c90b4901bbf9e6d6fd5c0fc323656274506a OP_EQUALVERIFY OP_CHECKSIG",
            "hex": "76a91457b9c90b4901bbf9e6d6fd5c0fc323656274506a88ac",
            "reqSigs": 1,
            "type": "pubkeyhash",
            "addresses": [
              "LTDocVZKb7c4SNY1SYsmWKs9fbudk1DDwp"
            ]
          }
        }, 
        {
          "value": 0.09560000,
          "n": 6,
          "scriptPubKey": {
            "asm": "OP_DUP OP_HASH160 cc9a751813b4664d43c1304d5bcb827ce63ef329 OP_EQUALVERIFY OP_CHECKSIG",
            "hex": "76a914cc9a751813b4664d43c1304d5bcb827ce63ef32988ac",
            "reqSigs": 1,
            "type": "pubkeyhash",
            "addresses": [
              "Ldso9EZWZTr65VyxQSLc5a3Us84M4soMPf"
            ]
          }
        }, 
        {
          "value": 0.05870548,
          "n": 7,
          "scriptPubKey": {
            "asm": "OP_DUP OP_HASH160 6c2614c7b45ef8dfa8dc83e6739ddbe201d05ab0 OP_EQUALVERIFY OP_CHECKSIG",
            "hex": "76a9146c2614c7b45ef8dfa8dc83e6739ddbe201d05ab088ac",
            "reqSigs": 1,
            "type": "pubkeyhash",
            "addresses": [
              "LV5nrreyVZJVvptA9PZSD4ViegKh7Qa8MA"
            ]
          }
        }, 
        {
          "value": 0.70714600,
          "n": 8,
          "scriptPubKey": {
            "asm": "OP_DUP OP_HASH160 9454373729bd9c3767a4908356a4c013b49f1a19 OP_EQUALVERIFY OP_CHECKSIG",
            "hex": "76a9149454373729bd9c3767a4908356a4c013b49f1a1988ac",
            "reqSigs": 1,
            "type": "pubkeyhash",
            "addresses": [
              "LYkFA1fiCPj9MS9QrQxzgnCS2EkjcCWtEq"
            ]
          }
        }, 
        {
          "value": 2.10978000,
          "n": 9,
          "scriptPubKey": {
            "asm": "OP_DUP OP_HASH160 8ce8d0b4ea33fd18d3f66d1374234802e7bfb577 OP_EQUALVERIFY OP_CHECKSIG",
            "hex": "76a9148ce8d0b4ea33fd18d3f66d1374234802e7bfb57788ac",
            "reqSigs": 1,
            "type": "pubkeyhash",
            "addresses": [
              "LY51mMfkasFhTCmizdS1YGpELGq7vUgvcL"
            ]
          }
        }, 
        {
          "value": 1.05700000,
          "n": 10,
          "scriptPubKey": {
            "asm": "OP_DUP OP_HASH160 d1df2d39637368cee62645466507f23274407e96 OP_EQUALVERIFY OP_CHECKSIG",
            "hex": "76a914d1df2d39637368cee62645466507f23274407e9688ac",
            "reqSigs": 1,
            "type": "pubkeyhash",
            "addresses": [
              "LeMeqtfQPhHtA5jaLcaNXXq7QDGyxsLoa4"
            ]
          }
        }, 
        {
          "value": 0.99700000,
          "n": 11,
          "scriptPubKey": {
            "asm": "OP_DUP OP_HASH160 5d6493757de6c82f7720760e5e8328ba738a680c OP_EQUALVERIFY OP_CHECKSIG",
            "hex": "76a9145d6493757de6c82f7720760e5e8328ba738a680c88ac",
            "reqSigs": 1,
            "type": "pubkeyhash",
            "addresses": [
              "LTjmbCP5L1xzp1NMS9WixA5dTWKipL71WP"
            ]
          }
        }, 
        {
          "value": 2.07900000,
          "n": 12,
          "scriptPubKey": {
            "asm": "OP_DUP OP_HASH160 7eba889b81282798359b2e549456e16e921e115b OP_EQUALVERIFY OP_CHECKSIG",
            "hex": "76a9147eba889b81282798359b2e549456e16e921e115b88ac",
            "reqSigs": 1,
            "type": "pubkeyhash",
            "addresses": [
              "LWn2ry39jWoUCea87bHHAaznhR3u2JVSPi"
            ]
          }
        }, 
        {
          "value": 0.30798403,
          "n": 13,
          "scriptPubKey": {
            "asm": "OP_DUP OP_HASH160 877e325b04a237dc749f2c70b2a76bc2d611f825 OP_EQUALVERIFY OP_CHECKSIG",
            "hex": "76a914877e325b04a237dc749f2c70b2a76bc2d611f82588ac",
            "reqSigs": 1,
            "type": "pubkeyhash",
            "addresses": [
              "LXaNfQmfjQhB8FsTMsf8qMLkdrbVMneTy4"
            ]
          }
        }, 
        {
          "value": 2.78015521,
          "n": 14,
          "scriptPubKey": {
            "asm": "OP_DUP OP_HASH160 10d68716553f324743169abd3d2e8a4fd08dc0a3 OP_EQUALVERIFY OP_CHECKSIG",
            "hex": "76a91410d68716553f324743169abd3d2e8a4fd08dc0a388ac",
            "reqSigs": 1,
            "type": "pubkeyhash",
            "addresses": [
              "LLkz4vj8etguiZFRKTnD9nQPAjosdsqHZz"
            ]
          }
        }
      ],
      "hex": "010000000139735ded1e9797606c2947e4d8ec835c7761eccb8135ed850068abeb127757e0110000006b483045022100ff575dfead909ec47f8ff9bded4eeeb17e2d9f1fd26ff94b4d1323a8f6aaa35202207a28fd3800e55af89ebd412b1911accab83f7619c1c9fc2a516d4f36588648c3012102ab8f0d66218556601e7b3ce19f6ac1bcb1a0f48cd5c2bc43de6a9aba056e0464ffffffff0f18712b00000000001976a9145830beee34849420e42a9ce58d5918c0c4087dd188ac60ae0a00000000001976a9143fa2fd1083d5d2a29e83f1000d7596783f2cb2ab88acabf30801000000001976a914c9f670ed97dc34e6affca8c9e6e359fb1933956288ac80a58900000000001976a9147cdebf9fc12b6ddbbf3067a6b71745e42e1b2e4988ac3cb72c0e000000001976a9147e52e97738a5c653d40cfde58fc2f0daaae2c99e88acc0d90902000000001976a91457b9c90b4901bbf9e6d6fd5c0fc323656274506a88acc0df9100000000001976a914cc9a751813b4664d43c1304d5bcb827ce63ef32988acd4935900000000001976a9146c2614c7b45ef8dfa8dc83e6739ddbe201d05ab088ace8043704000000001976a9149454373729bd9c3767a4908356a4c013b49f1a1988acd044930c000000001976a9148ce8d0b4ea33fd18d3f66d1374234802e7bfb57788aca0da4c06000000001976a914d1df2d39637368cee62645466507f23274407e9688ac204df105000000001976a9145d6493757de6c82f7720760e5e8328ba738a680c88ac604d640c000000001976a9147eba889b81282798359b2e549456e16e921e115b88ac43f2d501000000001976a914877e325b04a237dc749f2c70b2a76bc2d611f82588ac212e9210000000001976a91410d68716553f324743169abd3d2e8a4fd08dc0a388ac00000000"
    }, 
    {
      "txid": "d9b4eb4d646eede107dbf92712a42acfa240063dc88901ffdca6d87cdc600e10",
      "hash": "d9b4eb4d646eede107dbf92712a42acfa240063dc88901ffdca6d87cdc600e10",
      "version": 1,
      "size": 225,
      "vsize": 225,
      "locktime": 0,
      "vin": [
        {
          "txid": "a417347224eb244d909c8b36868ea0912bccca53eb426b44f42ade9a5acdda99",
          "vout": 43,
          "scriptSig": {
            "asm": "304402202c6d846ae3f084af72bff91f210713b04a69d3b8cb571b8ed18864b92c3d58c602202546baff55e93fdec025cc913aac92298553ce6ff8cebd37acb4005148f25b36[ALL] 024fc6ea6c1b028022aeeabc391be60cab621001c56b0e18a57d3a019ae2dd43f2",
            "hex": "47304402202c6d846ae3f084af72bff91f210713b04a69d3b8cb571b8ed18864b92c3d58c602202546baff55e93fdec025cc913aac92298553ce6ff8cebd37acb4005148f25b360121024fc6ea6c1b028022aeeabc391be60cab621001c56b0e18a57d3a019ae2dd43f2"
          },
          "sequence": 4294967295
        }
      ],
      "vout": [
        {
          "value": 0.00054818,
          "n": 0,
          "scriptPubKey": {
            "asm": "OP_DUP OP_HASH160 1ba6b855a96f515849f4ba6aebf68c557e2cfa15 OP_EQUALVERIFY OP_CHECKSIG",
            "hex": "76a9141ba6b855a96f515849f4ba6aebf68c557e2cfa1588ac",
            "reqSigs": 1,
            "type": "pubkeyhash",
            "addresses": [
              "LMkAEJeYeqtRC6zxt2uzLjhcZ2WNUjrtNq"
            ]
          }
        }, 
        {
          "value": 0.07675256,
          "n": 1,
          "scriptPubKey": {
            "asm": "OP_DUP OP_HASH160 6ab36df4087809fdf760609ae2d9b45ea4a816ce OP_EQUALVERIFY OP_CHECKSIG",
            "hex": "76a9146ab36df4087809fdf760609ae2d9b45ea4a816ce88ac",
            "reqSigs": 1,
            "type": "pubkeyhash",
            "addresses": [
              "LUx8qXZ6XtgKQRwtyRivNUXRdbZBcb3RLT"
            ]
          }
        }
      ],
      "hex": "010000000199dacd5a9ade2af4446b42eb53cacc2b91a08e86368b9c904d24eb24723417a42b0000006a47304402202c6d846ae3f084af72bff91f210713b04a69d3b8cb571b8ed18864b92c3d58c602202546baff55e93fdec025cc913aac92298553ce6ff8cebd37acb4005148f25b360121024fc6ea6c1b028022aeeabc391be60cab621001c56b0e18a57d3a019ae2dd43f2ffffffff0222d60000000000001976a9141ba6b855a96f515849f4ba6aebf68c557e2cfa1588ac781d7500000000001976a9146ab36df4087809fdf760609ae2d9b45ea4a816ce88ac00000000"
    }, 
    {
      "txid": "23eb9e3a74351aed57f96b23cca838fd150a85ce58963f68e86953334a2fa93e",
      "hash": "23eb9e3a74351aed57f96b23cca838fd150a85ce58963f68e86953334a2fa93e",
      "version": 1,
      "size": 225,
      "vsize": 225,
      "locktime": 0,
      "vin": [
        {
          "txid": "4fc9ce933d06858e323fccf9a9c4ff8726f40c58443f89fe1a27ad166dc2ef72",
          "vout": 1,
          "scriptSig": {
            "asm": "3044022005ba19a8f9a240daba5a605558d3ca19c503ca2bcd6e9a7f5a1b694e52e0e0a602206c6f95daed34577106d33819a25714833a03a2ba1afa420f78c5dae4f16170ad[ALL] 02d51fdf8b1dd24c19e2a3c7f4586e09f346837755a294f7bbd0523bf48ea4e887",
            "hex": "473044022005ba19a8f9a240daba5a605558d3ca19c503ca2bcd6e9a7f5a1b694e52e0e0a602206c6f95daed34577106d33819a25714833a03a2ba1afa420f78c5dae4f16170ad012102d51fdf8b1dd24c19e2a3c7f4586e09f346837755a294f7bbd0523bf48ea4e887"
          },
          "sequence": 4294967295
        }
      ],
      "vout": [
        {
          "value": 0.31175000,
          "n": 0,
          "scriptPubKey": {
            "asm": "OP_DUP OP_HASH160 22055e54d4c244cb71554efc10b6935447520ca8 OP_EQUALVERIFY OP_CHECKSIG",
            "hex": "76a91422055e54d4c244cb71554efc10b6935447520ca888ac",
            "reqSigs": 1,
            "type": "pubkeyhash",
            "addresses": [
              "LNKqfk6mXAU835VS1TTdTRFnWuJHQ3PQti"
            ]
          }
        }, 
        {
          "value": 0.03799462,
          "n": 1,
          "scriptPubKey": {
            "asm": "OP_DUP OP_HASH160 92ceec67eb1ad6a77e18fb9622bfc360eb3b33f1 OP_EQUALVERIFY OP_CHECKSIG",
            "hex": "76a91492ceec67eb1ad6a77e18fb9622bfc360eb3b33f188ac",
            "reqSigs": 1,
            "type": "pubkeyhash",
            "addresses": [
              "LYcCoWnY1zHPLUNCDYU7vGspUeT3LzQsST"
            ]
          }
        }
      ],
      "hex": "010000000172efc26d16ad271afe893f44580cf42687ffc4a9f9cc3f328e85063d93cec94f010000006a473044022005ba19a8f9a240daba5a605558d3ca19c503ca2bcd6e9a7f5a1b694e52e0e0a602206c6f95daed34577106d33819a25714833a03a2ba1afa420f78c5dae4f16170ad012102d51fdf8b1dd24c19e2a3c7f4586e09f346837755a294f7bbd0523bf48ea4e887ffffffff0258b1db01000000001976a91422055e54d4c244cb71554efc10b6935447520ca888aca6f93900000000001976a91492ceec67eb1ad6a77e18fb9622bfc360eb3b33f188ac00000000"
    }, 
    {
      "txid": "ad009aea044bc27b52cca084f9ac1e3835f052dc12248e4cc3f4ff45f1bcb396",
      "hash": "ad009aea044bc27b52cca084f9ac1e3835f052dc12248e4cc3f4ff45f1bcb396",
      "version": 2,
      "size": 522,
      "vsize": 522,
      "locktime": 1360505,
      "vin": [
        {
          "txid": "58d39c892922ae5b2aa098d306da2640239bd939c0900b05297770562a83de39",
          "vout": 0,
          "scriptSig": {
            "asm": "30450221008dbbaa3b2b66cdd3ff34a6e3c4aed745e128d6846e528fd6948231844a5b3ed302202a17303efe9fe4c165174400decc08f9d7897af2fdff30520dcaec15d67b889d[ALL] 02937ba42d444da6867736ad3fb399a3fc1b21a7dba7aa1eac55f83a24531230fd",
            "hex": "4830450221008dbbaa3b2b66cdd3ff34a6e3c4aed745e128d6846e528fd6948231844a5b3ed302202a17303efe9fe4c165174400decc08f9d7897af2fdff30520dcaec15d67b889d012102937ba42d444da6867736ad3fb399a3fc1b21a7dba7aa1eac55f83a24531230fd"
          },
          "sequence": 4294967294
        }, 
        {
          "txid": "a63d67a59ac8f11282836f1ce153cbf5f444384e4c6dfc32e91b364c6150328e",
          "vout": 1,
          "scriptSig": {
            "asm": "3045022100f204a864f1f921d70bb37306c769f2613dc716c7edf2f6253f30ecd6b58fc61802205f83ddad56ec20ff087046737d7ca909fcd613cdf5defac02d813c467fd8d79a[ALL] 03bda7075799a0a69acdd059a4740a6358c821500ea6c945c94b2f873f3cc73aee",
            "hex": "483045022100f204a864f1f921d70bb37306c769f2613dc716c7edf2f6253f30ecd6b58fc61802205f83ddad56ec20ff087046737d7ca909fcd613cdf5defac02d813c467fd8d79a012103bda7075799a0a69acdd059a4740a6358c821500ea6c945c94b2f873f3cc73aee"
          },
          "sequence": 4294967294
        }, 
        {
          "txid": "19482291e5c2b7c3bdeed2db0af147b0f2d11ccf90310e5b9d50a85588ac0493",
          "vout": 0,
          "scriptSig": {
            "asm": "30450221009f90579428faec79a132b441f55972d77a455a618b69a05f9247dbfccc49d02f022024ea0f83266438ee84b0ef324d113c0be3d597910bc6e85d6c96fb61b8111990[ALL] 03802af9b7f1acdd6cc49ce5333ba2dd1bb39ce85f0a57f23ef722752c0e64c139",
            "hex": "4830450221009f90579428faec79a132b441f55972d77a455a618b69a05f9247dbfccc49d02f022024ea0f83266438ee84b0ef324d113c0be3d597910bc6e85d6c96fb61b8111990012103802af9b7f1acdd6cc49ce5333ba2dd1bb39ce85f0a57f23ef722752c0e64c139"
          },
          "sequence": 4294967294
        }
      ],
      "vout": [
        {
          "value": 0.01084814,
          "n": 0,
          "scriptPubKey": {
            "asm": "OP_DUP OP_HASH160 86ee0f5de882b2b3598efac9aa07f101d7692c8a OP_EQUALVERIFY OP_CHECKSIG",
            "hex": "76a91486ee0f5de882b2b3598efac9aa07f101d7692c8a88ac",
            "reqSigs": 1,
            "type": "pubkeyhash",
            "addresses": [
              "LXXPzcrJXvXSojYo6y2Bh9CVzPrNQBu2HU"
            ]
          }
        }, 
        {
          "value": 0.19638214,
          "n": 1,
          "scriptPubKey": {
            "asm": "OP_DUP OP_HASH160 4dfbb0ec43e196ca5e2e47de0bcb85ee16796cb7 OP_EQUALVERIFY OP_CHECKSIG",
            "hex": "76a9144dfbb0ec43e196ca5e2e47de0bcb85ee16796cb788ac",
            "reqSigs": 1,
            "type": "pubkeyhash",
            "addresses": [
              "LSLHongqaENXsbCQQcQhWSagvoZS8CMpKU"
            ]
          }
        }
      ],
      "hex": "020000000339de832a56707729050b90c039d99b234026da06d398a02a5bae2229899cd358000000006b4830450221008dbbaa3b2b66cdd3ff34a6e3c4aed745e128d6846e528fd6948231844a5b3ed302202a17303efe9fe4c165174400decc08f9d7897af2fdff30520dcaec15d67b889d012102937ba42d444da6867736ad3fb399a3fc1b21a7dba7aa1eac55f83a24531230fdfeffffff8e3250614c361be932fc6d4c4e3844f4f5cb53e11c6f838212f1c89aa5673da6010000006b483045022100f204a864f1f921d70bb37306c769f2613dc716c7edf2f6253f30ecd6b58fc61802205f83ddad56ec20ff087046737d7ca909fcd613cdf5defac02d813c467fd8d79a012103bda7075799a0a69acdd059a4740a6358c821500ea6c945c94b2f873f3cc73aeefeffffff9304ac8855a8509d5b0e3190cf1cd1f2b047f10adbd2eebdc3b7c2e591224819000000006b4830450221009f90579428faec79a132b441f55972d77a455a618b69a05f9247dbfccc49d02f022024ea0f83266438ee84b0ef324d113c0be3d597910bc6e85d6c96fb61b8111990012103802af9b7f1acdd6cc49ce5333ba2dd1bb39ce85f0a57f23ef722752c0e64c139feffffff028e8d1000000000001976a91486ee0f5de882b2b3598efac9aa07f101d7692c8a88acc6a72b01000000001976a9144dfbb0ec43e196ca5e2e47de0bcb85ee16796cb788ac79c21400"
    }, 
    {
      "txid": "bd36dbccb5acb68b37f3fdc94c290f5bd2ccad3eaa74e52c547243ce380af315",
      "hash": "bd36dbccb5acb68b37f3fdc94c290f5bd2ccad3eaa74e52c547243ce380af315",
      "version": 1,
      "size": 226,
      "vsize": 226,
      "locktime": 0,
      "vin": [
        {
          "txid": "94645a210e43c1957a19beae42ab5886ce5654a5d24bb07eb21fe9b4106f5998",
          "vout": 0,
          "scriptSig": {
            "asm": "3045022100be277e09ad5320864be9030a07c284da13e699d8556bf5889263dd23b4dc807b022050a08979e9ef4bca3d227cf49eb03a22eda5a8c3235810657ab0285ce840d5a2[ALL] 02f885092aa73c4d9072117953e3d0c2aca01900ed43cd7222b0491a29f2828531",
            "hex": "483045022100be277e09ad5320864be9030a07c284da13e699d8556bf5889263dd23b4dc807b022050a08979e9ef4bca3d227cf49eb03a22eda5a8c3235810657ab0285ce840d5a2012102f885092aa73c4d9072117953e3d0c2aca01900ed43cd7222b0491a29f2828531"
          },
          "sequence": 4294967295
        }
      ],
      "vout": [
        {
          "value": 0.11198155,
          "n": 0,
          "scriptPubKey": {
            "asm": "OP_DUP OP_HASH160 95f4486365b22c3110fb2c21fe138636c5d747b7 OP_EQUALVERIFY OP_CHECKSIG",
            "hex": "76a91495f4486365b22c3110fb2c21fe138636c5d747b788ac",
            "reqSigs": 1,
            "type": "pubkeyhash",
            "addresses": [
              "LYtqarq4p94Y2Bid8accNcrkfz827CLoya"
            ]
          }
        }, 
        {
          "value": 0.03818665,
          "n": 1,
          "scriptPubKey": {
            "asm": "OP_DUP OP_HASH160 ec2596f57cd51f20023524a3a4824e03db919e2c OP_EQUALVERIFY OP_CHECKSIG",
            "hex": "76a914ec2596f57cd51f20023524a3a4824e03db919e2c88ac",
            "reqSigs": 1,
            "type": "pubkeyhash",
            "addresses": [
              "LgkamG9YoEUpDGdC8XdMqqnhsmfEzRJuF1"
            ]
          }
        }
      ],
      "hex": "010000000198596f10b4e91fb27eb04bd2a55456ce8658ab42aebe197a95c1430e215a6494000000006b483045022100be277e09ad5320864be9030a07c284da13e699d8556bf5889263dd23b4dc807b022050a08979e9ef4bca3d227cf49eb03a22eda5a8c3235810657ab0285ce840d5a2012102f885092aa73c4d9072117953e3d0c2aca01900ed43cd7222b0491a29f2828531ffffffff02cbdeaa00000000001976a91495f4486365b22c3110fb2c21fe138636c5d747b788aca9443a00000000001976a914ec2596f57cd51f20023524a3a4824e03db919e2c88ac00000000"
    }, 
    {
      "txid": "15aebf1d883d657315567a938a29191931e1611fe4d0c778e78f8f3862035862",
      "hash": "15aebf1d883d657315567a938a29191931e1611fe4d0c778e78f8f3862035862",
      "version": 1,
      "size": 226,
      "vsize": 226,
      "locktime": 0,
      "vin": [
        {
          "txid": "1f29807ddbe12e3e74605d08e0696ea06445ef7450fa64cabda835c59809bfe7",
          "vout": 0,
          "scriptSig": {
            "asm": "304502210097f493fc8b0286314d03e84cf271f53f41ab29f7b65c7e332e1f8ce09048775202203c3b33007f1591e3db6593c7375325fb64069bfb42f04cd45acb6239a79c904f[ALL] 03ce60758a0b1266d1b0d36f6eb8da9ab094b8da9e3a9d372b1d122e6d304510ca",
            "hex": "48304502210097f493fc8b0286314d03e84cf271f53f41ab29f7b65c7e332e1f8ce09048775202203c3b33007f1591e3db6593c7375325fb64069bfb42f04cd45acb6239a79c904f012103ce60758a0b1266d1b0d36f6eb8da9ab094b8da9e3a9d372b1d122e6d304510ca"
          },
          "sequence": 4294967295
        }
      ],
      "vout": [
        {
          "value": 0.96178857,
          "n": 0,
          "scriptPubKey": {
            "asm": "OP_DUP OP_HASH160 69e235be7489697fb695ee637d28f97af5d6ee22 OP_EQUALVERIFY OP_CHECKSIG",
            "hex": "76a91469e235be7489697fb695ee637d28f97af5d6ee2288ac",
            "reqSigs": 1,
            "type": "pubkeyhash",
            "addresses": [
              "LUspChPdXz7oYus6Voogk4ZoL2HyeGaU9G"
            ]
          }
        }, 
        {
          "value": 78.44427458,
          "n": 1,
          "scriptPubKey": {
            "asm": "OP_DUP OP_HASH160 ce3aeff7b80ae994bb508e2274b68bea98ee57af OP_EQUALVERIFY OP_CHECKSIG",
            "hex": "76a914ce3aeff7b80ae994bb508e2274b68bea98ee57af88ac",
            "reqSigs": 1,
            "type": "pubkeyhash",
            "addresses": [
              "Le2Q4meXDYSLH4P8hzp1wtXTKkwMXkNWNJ"
            ]
          }
        }
      ],
      "hex": "0100000001e7bf0998c535a8bdca64fa5074ef4564a06e69e0085d60743e2ee1db7d80291f000000006b48304502210097f493fc8b0286314d03e84cf271f53f41ab29f7b65c7e332e1f8ce09048775202203c3b33007f1591e3db6593c7375325fb64069bfb42f04cd45acb6239a79c904f012103ce60758a0b1266d1b0d36f6eb8da9ab094b8da9e3a9d372b1d122e6d304510caffffffff02a992bb05000000001976a91469e235be7489697fb695ee637d28f97af5d6ee2288acc27690d3010000001976a914ce3aeff7b80ae994bb508e2274b68bea98ee57af88ac00000000"
    }, 
    {
      "txid": "23795cd187b22a4d7d419ffc69b07e50feacdc78a6b5c8bf249fb9543f4fb97e",
      "hash": "23795cd187b22a4d7d419ffc69b07e50feacdc78a6b5c8bf249fb9543f4fb97e",
      "version": 1,
      "size": 225,
      "vsize": 225,
      "locktime": 1360505,
      "vin": [
        {
          "txid": "ea583d67c1d3eebfede8c11d7def92997c0888430e4109830d7828935f223570",
          "vout": 0,
          "scriptSig": {
            "asm": "304402203c68e4d5af3a8c3221dedfc50c7f3e2722a534be351cdb3d119be756fa026e150220014200cc6f362ff90051fbf1c0b81c2c347bb0112b93bb114c4b56c0e83388e6[ALL] 0295dc548f5ce44992c425562a4b94b6e6824f1df48ce638da49dcb18ec3eaaf02",
            "hex": "47304402203c68e4d5af3a8c3221dedfc50c7f3e2722a534be351cdb3d119be756fa026e150220014200cc6f362ff90051fbf1c0b81c2c347bb0112b93bb114c4b56c0e83388e601210295dc548f5ce44992c425562a4b94b6e6824f1df48ce638da49dcb18ec3eaaf02"
          },
          "sequence": 4294967294
        }
      ],
      "vout": [
        {
          "value": 17.50000000,
          "n": 0,
          "scriptPubKey": {
            "asm": "OP_DUP OP_HASH160 ca3b1d71e46fd0f8d9058d887a8e798bcf958dc9 OP_EQUALVERIFY OP_CHECKSIG",
            "hex": "76a914ca3b1d71e46fd0f8d9058d887a8e798bcf958dc988ac",
            "reqSigs": 1,
            "type": "pubkeyhash",
            "addresses": [
              "LdfFaM3BZEkZFkmUH8dwD3T6FvPKi6KS8u"
            ]
          }
        }, 
        {
          "value": 2.24227076,
          "n": 1,
          "scriptPubKey": {
            "asm": "OP_DUP OP_HASH160 90e4c32e308d1ab59b5574bf0f5fffa598c81f2b OP_EQUALVERIFY OP_CHECKSIG",
            "hex": "76a91490e4c32e308d1ab59b5574bf0f5fffa598c81f2b88ac",
            "reqSigs": 1,
            "type": "pubkeyhash",
            "addresses": [
              "LYS5cXbuYeG3NgSTtoRm5MzjVzKbCFd6HP"
            ]
          }
        }
      ],
      "hex": "01000000017035225f9328780d8309410e4388087c9992ef7d1dc1e8edbfeed3c1673d58ea000000006a47304402203c68e4d5af3a8c3221dedfc50c7f3e2722a534be351cdb3d119be756fa026e150220014200cc6f362ff90051fbf1c0b81c2c347bb0112b93bb114c4b56c0e83388e601210295dc548f5ce44992c425562a4b94b6e6824f1df48ce638da49dcb18ec3eaaf02feffffff0280e14e68000000001976a914ca3b1d71e46fd0f8d9058d887a8e798bcf958dc988ac046f5d0d000000001976a91490e4c32e308d1ab59b5574bf0f5fffa598c81f2b88ac79c21400"
    }, 
    {
      "txid": "636bb87d93706f7c14abf53743df3f27179607e91d6368a9c684642ab3c7f16e",
      "hash": "636bb87d93706f7c14abf53743df3f27179607e91d6368a9c684642ab3c7f16e",
      "version": 1,
      "size": 2292,
      "vsize": 2292,
      "locktime": 0,
      "vin": [
        {
          "txid": "b55681dd7058064cbb58a02e60ddc74968832aa01143b43b9d4462bb841faa81",
          "vout": 1287,
          "scriptSig": {
            "asm": "304402202719fbd2edf6d7561a60c063fe5de48ee650d98ee91a5ce27a33d92064bb7279022072a30c330eaf89ff063e2414b45c8ed836a1000f0ba062b814e572777b89c5b7[ALL] 027d8fb680f690f81d7f81f2af61495566463293c69134728ce5436998fbd2cb15",
            "hex": "47304402202719fbd2edf6d7561a60c063fe5de48ee650d98ee91a5ce27a33d92064bb7279022072a30c330eaf89ff063e2414b45c8ed836a1000f0ba062b814e572777b89c5b70121027d8fb680f690f81d7f81f2af61495566463293c69134728ce5436998fbd2cb15"
          },
          "sequence": 4294967295
        }, 
        {
          "txid": "2e6a3bf0609143545ff7d6ded0d27e81c96d0e354b93fd357fb6f549af89d203",
          "vout": 1290,
          "scriptSig": {
            "asm": "30450221009bb1fc51a3b8f3f8d21141b507192ee84c779330145e6b1db1af93cd2c7b374e0220228fa2f35ca91c3cdc76fa805b0cc8b325a17e4ef3d9a4496363bde90817116a[ALL] 027d8fb680f690f81d7f81f2af61495566463293c69134728ce5436998fbd2cb15",
            "hex": "4830450221009bb1fc51a3b8f3f8d21141b507192ee84c779330145e6b1db1af93cd2c7b374e0220228fa2f35ca91c3cdc76fa805b0cc8b325a17e4ef3d9a4496363bde90817116a0121027d8fb680f690f81d7f81f2af61495566463293c69134728ce5436998fbd2cb15"
          },
          "sequence": 4294967295
        }, 
        {
          "txid": "90bbb47941ea3930c89c8d5ae9b68ac3f99e8666113499cbe4752d63a089a567",
          "vout": 1317,
          "scriptSig": {
            "asm": "3045022100e72689aae3218648dd93b4d88b67758ee978afada149e08f7da36d10545c5b0a022041256cb87d34984a637f440fe2881b93479ee5c2e0e63710b2b1d34e7f16a332[ALL] 027d8fb680f690f81d7f81f2af61495566463293c69134728ce5436998fbd2cb15",
            "hex": "483045022100e72689aae3218648dd93b4d88b67758ee978afada149e08f7da36d10545c5b0a022041256cb87d34984a637f440fe2881b93479ee5c2e0e63710b2b1d34e7f16a3320121027d8fb680f690f81d7f81f2af61495566463293c69134728ce5436998fbd2cb15"
          },
          "sequence": 4294967295
        }, 
        {
          "txid": "cc16e2adbe39610bde5093f8a31393d089d272df6508286042deb2c6fcbcd3e7",
          "vout": 1347,
          "scriptSig": {
            "asm": "30440220241d7b2615ff02ba71f46adfc8e1ffb909d6dfcc55d167cfe93a56004add8df0022052fb2c6fe7651b322c898bc7e49296000c4c00961a2b14b4825ba712fa8914c9[ALL] 027d8fb680f690f81d7f81f2af61495566463293c69134728ce5436998fbd2cb15",
            "hex": "4730440220241d7b2615ff02ba71f46adfc8e1ffb909d6dfcc55d167cfe93a56004add8df0022052fb2c6fe7651b322c898bc7e49296000c4c00961a2b14b4825ba712fa8914c90121027d8fb680f690f81d7f81f2af61495566463293c69134728ce5436998fbd2cb15"
          },
          "sequence": 4294967295
        }, 
        {
          "txid": "ce1ae9cda5c120045f9f2e8cc8b505f62e3c2cc22187cf3fd3975a1b25f0b4d2",
          "vout": 1320,
          "scriptSig": {
            "asm": "3045022100d8d16ca9618638093324759a33270c367a32e70a968a5cd2cdb5776a96c4b8df02207755d51463d95f05a4df25406d9ce4c50621105252e49558a405ec46e5914027[ALL] 027d8fb680f690f81d7f81f2af61495566463293c69134728ce5436998fbd2cb15",
            "hex": "483045022100d8d16ca9618638093324759a33270c367a32e70a968a5cd2cdb5776a96c4b8df02207755d51463d95f05a4df25406d9ce4c50621105252e49558a405ec46e59140270121027d8fb680f690f81d7f81f2af61495566463293c69134728ce5436998fbd2cb15"
          },
          "sequence": 4294967295
        }, 
        {
          "txid": "3dd38652a793dfe06419977c86bfbd8da77bd6dac1b88db9ec163b014a5a06ed",
          "vout": 1357,
          "scriptSig": {
            "asm": "3045022100bfaf9e48f790ae84b3e62cf8cd7e6696ef255e4079b866f9edf7dd99654bbd1502200eb98bfa2f77c8b1e1b97cb7112c0b911530da0b76a14fdeb8f1f1a94a9c00d8[ALL] 027d8fb680f690f81d7f81f2af61495566463293c69134728ce5436998fbd2cb15",
            "hex": "483045022100bfaf9e48f790ae84b3e62cf8cd7e6696ef255e4079b866f9edf7dd99654bbd1502200eb98bfa2f77c8b1e1b97cb7112c0b911530da0b76a14fdeb8f1f1a94a9c00d80121027d8fb680f690f81d7f81f2af61495566463293c69134728ce5436998fbd2cb15"
          },
          "sequence": 4294967295
        }, 
        {
          "txid": "c7daa521fd239474b62a1f1bec5fc18a06df2aa897da173301ad84f742dd306d",
          "vout": 1368,
          "scriptSig": {
            "asm": "3045022100abf2046382e8146c283c4314051bb612990fa43d1b0b024775ee48e4d9cbc608022061e4d75909dc73ffeae1d2542d67f7a7c8147bc7b4329b13d5b5e58a3ec14d9f[ALL] 027d8fb680f690f81d7f81f2af61495566463293c69134728ce5436998fbd2cb15",
            "hex": "483045022100abf2046382e8146c283c4314051bb612990fa43d1b0b024775ee48e4d9cbc608022061e4d75909dc73ffeae1d2542d67f7a7c8147bc7b4329b13d5b5e58a3ec14d9f0121027d8fb680f690f81d7f81f2af61495566463293c69134728ce5436998fbd2cb15"
          },
          "sequence": 4294967295
        }, 
        {
          "txid": "044c3216949019662455d17b8ccbefabf6a45f44750530ab0b1f2dc3116d5252",
          "vout": 1349,
          "scriptSig": {
            "asm": "3045022100ed4f56e8dda6fe3ff93176a5565ec4d353d832bb68d94b513d64174c97acb576022034a717c84b5b2045e1defb450105bdc7ece4908d0a3fe30b032ee42a522cdda0[ALL] 027d8fb680f690f81d7f81f2af61495566463293c69134728ce5436998fbd2cb15",
            "hex": "483045022100ed4f56e8dda6fe3ff93176a5565ec4d353d832bb68d94b513d64174c97acb576022034a717c84b5b2045e1defb450105bdc7ece4908d0a3fe30b032ee42a522cdda00121027d8fb680f690f81d7f81f2af61495566463293c69134728ce5436998fbd2cb15"
          },
          "sequence": 4294967295
        }, 
        {
          "txid": "0d6e8a95cce48cd9d84c1c593fe66cb089cab474ca1c75cbe2c89adb6e67f62b",
          "vout": 1373,
          "scriptSig": {
            "asm": "3045022100c9e7b850ea93750b5bc767131c7733e4b4d266166a3cecdc1a1d9b82a334b32702202024a6bd05b91ef90cf229d63d1c41fdea23e5732e3f35ae8afa0453fd29f1f4[ALL] 027d8fb680f690f81d7f81f2af61495566463293c69134728ce5436998fbd2cb15",
            "hex": "483045022100c9e7b850ea93750b5bc767131c7733e4b4d266166a3cecdc1a1d9b82a334b32702202024a6bd05b91ef90cf229d63d1c41fdea23e5732e3f35ae8afa0453fd29f1f40121027d8fb680f690f81d7f81f2af61495566463293c69134728ce5436998fbd2cb15"
          },
          "sequence": 4294967295
        }, 
        {
          "txid": "1f3de6cf4917fbc89bd5107a5df9ef0d608ae9e815bf98cc2e134be18b2b4266",
          "vout": 1378,
          "scriptSig": {
            "asm": "3045022100b4a85ed759830ea4bbeb2cda25b4afc34d00081513628646df13751374090236022013fb5e8b4647768e0f92c54eff6db4302a75c1e472bfb8af924aa30efc98d0c8[ALL] 027d8fb680f690f81d7f81f2af61495566463293c69134728ce5436998fbd2cb15",
            "hex": "483045022100b4a85ed759830ea4bbeb2cda25b4afc34d00081513628646df13751374090236022013fb5e8b4647768e0f92c54eff6db4302a75c1e472bfb8af924aa30efc98d0c80121027d8fb680f690f81d7f81f2af61495566463293c69134728ce5436998fbd2cb15"
          },
          "sequence": 4294967295
        }, 
        {
          "txid": "fc421b52241a88384adb46f544232e90768f2af20956eb171c89bad8b9d77d55",
          "vout": 1362,
          "scriptSig": {
            "asm": "304402207701173b84d78ff40e4233252dec1b19422798fbe86e386d5c91b26de478b90602203b258455b3b03aa1ff114b082ecda7743618b6be2b2b80b76a6cbbc0c7e9de37[ALL] 027d8fb680f690f81d7f81f2af61495566463293c69134728ce5436998fbd2cb15",
            "hex": "47304402207701173b84d78ff40e4233252dec1b19422798fbe86e386d5c91b26de478b90602203b258455b3b03aa1ff114b082ecda7743618b6be2b2b80b76a6cbbc0c7e9de370121027d8fb680f690f81d7f81f2af61495566463293c69134728ce5436998fbd2cb15"
          },
          "sequence": 4294967295
        }, 
        {
          "txid": "b29644f38a634eed7f8131bed9ec6f79bf9ad42b1f9b3e7ffe2e20c7e63029ca",
          "vout": 1178,
          "scriptSig": {
            "asm": "304402206308dbe057a7410d114e944e8d20068db6c02f0611ebd9a19c3c9d9e9e83ade8022059c564891ea8fc16dd930cdd607f22f425597f9ea7a52ffbf5982de934ceddbd[ALL] 027d8fb680f690f81d7f81f2af61495566463293c69134728ce5436998fbd2cb15",
            "hex": "47304402206308dbe057a7410d114e944e8d20068db6c02f0611ebd9a19c3c9d9e9e83ade8022059c564891ea8fc16dd930cdd607f22f425597f9ea7a52ffbf5982de934ceddbd0121027d8fb680f690f81d7f81f2af61495566463293c69134728ce5436998fbd2cb15"
          },
          "sequence": 4294967295
        }, 
        {
          "txid": "ed5dc9ebd4e3b3df0de62b1391d5949db152da2e077d93dbb7905ef3d8ff8875",
          "vout": 1334,
          "scriptSig": {
            "asm": "304402201a32fb626cff90e7349c1739c14077ba03c58def6b39f10d12059d218b1070fb022036a81f3838241ce927081dc487ba35c35ea85d29d5b32dc671781e5ef8026f62[ALL] 027d8fb680f690f81d7f81f2af61495566463293c69134728ce5436998fbd2cb15",
            "hex": "47304402201a32fb626cff90e7349c1739c14077ba03c58def6b39f10d12059d218b1070fb022036a81f3838241ce927081dc487ba35c35ea85d29d5b32dc671781e5ef8026f620121027d8fb680f690f81d7f81f2af61495566463293c69134728ce5436998fbd2cb15"
          },
          "sequence": 4294967295
        }, 
        {
          "txid": "709536a2689f08401c601d7e0851efcb8602e9e4a7d5ba719ac110e7ab0c8289",
          "vout": 0,
          "scriptSig": {
            "asm": "3045022100b74cc92616e6ca6cb3a4a0a415daffe252c63516c85f7ac1a6c1d6b1100242e802206e2240a6c386de4dda87c11bec591b15dada86a3f42fbb1cfa96e75588e2f4ae[ALL] 02618c00e058cb525f1a5bf46eccbd8d9cad886a28ca6f98bd0fd597e56305c438",
            "hex": "483045022100b74cc92616e6ca6cb3a4a0a415daffe252c63516c85f7ac1a6c1d6b1100242e802206e2240a6c386de4dda87c11bec591b15dada86a3f42fbb1cfa96e75588e2f4ae012102618c00e058cb525f1a5bf46eccbd8d9cad886a28ca6f98bd0fd597e56305c438"
          },
          "sequence": 4294967295
        }, 
        {
          "txid": "1831fce0e67c967482c86b356eb6e38307cfad6145f309166e9aef0567430db5",
          "vout": 0,
          "scriptSig": {
            "asm": "304402201986c2d02e9a5b6a8f3fd13622ff29a7c3aa8c5fbc1eb2f759b8d66dfb2b9f170220084a54ec55311ce10aab5ba6eb09a9607046a47eda99e375aadb6102c68f8e8f[ALL] 02333b71a3411e0d4fb72b4655af0af272e9e25dc90eb1b30ccd6f5125baf2e0f5",
            "hex": "47304402201986c2d02e9a5b6a8f3fd13622ff29a7c3aa8c5fbc1eb2f759b8d66dfb2b9f170220084a54ec55311ce10aab5ba6eb09a9607046a47eda99e375aadb6102c68f8e8f012102333b71a3411e0d4fb72b4655af0af272e9e25dc90eb1b30ccd6f5125baf2e0f5"
          },
          "sequence": 4294967295
        }
      ],
      "vout": [
        {
          "value": 2.20000000,
          "n": 0,
          "scriptPubKey": {
            "asm": "OP_DUP OP_HASH160 ba76a1b70c668c27e70580c5d97a2d75c964a239 OP_EQUALVERIFY OP_CHECKSIG",
            "hex": "76a914ba76a1b70c668c27e70580c5d97a2d75c964a23988ac",
            "reqSigs": 1,
            "type": "pubkeyhash",
            "addresses": [
              "LcDt4ZvWEKtZTn55DmRgAqge7tS8vbGucf"
            ]
          }
        }, 
        {
          "value": 2.21200499,
          "n": 1,
          "scriptPubKey": {
            "asm": "OP_DUP OP_HASH160 de933f59b24190450b1b3de57c345da2dceb0408 OP_EQUALVERIFY OP_CHECKSIG",
            "hex": "76a914de933f59b24190450b1b3de57c345da2dceb040888ac",
            "reqSigs": 1,
            "type": "pubkeyhash",
            "addresses": [
              "LfWpfjS6Ymtnbv7kwEaiouou2wz83H74YD"
            ]
          }
        }
      ],
      "hex": "010000000f81aa1f84bb62449d3bb44311a02a836849c7dd602ea058bb4c065870dd8156b5070500006a47304402202719fbd2edf6d7561a60c063fe5de48ee650d98ee91a5ce27a33d92064bb7279022072a30c330eaf89ff063e2414b45c8ed836a1000f0ba062b814e572777b89c5b70121027d8fb680f690f81d7f81f2af61495566463293c69134728ce5436998fbd2cb15ffffffff03d289af49f5b67f35fd934b350e6dc9817ed2d0ded6f75f54439160f03b6a2e0a0500006b4830450221009bb1fc51a3b8f3f8d21141b507192ee84c779330145e6b1db1af93cd2c7b374e0220228fa2f35ca91c3cdc76fa805b0cc8b325a17e4ef3d9a4496363bde90817116a0121027d8fb680f690f81d7f81f2af61495566463293c69134728ce5436998fbd2cb15ffffffff67a589a0632d75e4cb99341166869ef9c38ab6e95a8d9cc83039ea4179b4bb90250500006b483045022100e72689aae3218648dd93b4d88b67758ee978afada149e08f7da36d10545c5b0a022041256cb87d34984a637f440fe2881b93479ee5c2e0e63710b2b1d34e7f16a3320121027d8fb680f690f81d7f81f2af61495566463293c69134728ce5436998fbd2cb15ffffffffe7d3bcfcc6b2de4260280865df72d289d09313a3f89350de0b6139beade216cc430500006a4730440220241d7b2615ff02ba71f46adfc8e1ffb909d6dfcc55d167cfe93a56004add8df0022052fb2c6fe7651b322c898bc7e49296000c4c00961a2b14b4825ba712fa8914c90121027d8fb680f690f81d7f81f2af61495566463293c69134728ce5436998fbd2cb15ffffffffd2b4f0251b5a97d33fcf8721c22c3c2ef605b5c88c2e9f5f0420c1a5cde91ace280500006b483045022100d8d16ca9618638093324759a33270c367a32e70a968a5cd2cdb5776a96c4b8df02207755d51463d95f05a4df25406d9ce4c50621105252e49558a405ec46e59140270121027d8fb680f690f81d7f81f2af61495566463293c69134728ce5436998fbd2cb15ffffffffed065a4a013b16ecb98db8c1dad67ba78dbdbf867c971964e0df93a75286d33d4d0500006b483045022100bfaf9e48f790ae84b3e62cf8cd7e6696ef255e4079b866f9edf7dd99654bbd1502200eb98bfa2f77c8b1e1b97cb7112c0b911530da0b76a14fdeb8f1f1a94a9c00d80121027d8fb680f690f81d7f81f2af61495566463293c69134728ce5436998fbd2cb15ffffffff6d30dd42f784ad013317da97a82adf068ac15fec1b1f2ab6749423fd21a5dac7580500006b483045022100abf2046382e8146c283c4314051bb612990fa43d1b0b024775ee48e4d9cbc608022061e4d75909dc73ffeae1d2542d67f7a7c8147bc7b4329b13d5b5e58a3ec14d9f0121027d8fb680f690f81d7f81f2af61495566463293c69134728ce5436998fbd2cb15ffffffff52526d11c32d1f0bab300575445fa4f6abefcb8c7bd155246619909416324c04450500006b483045022100ed4f56e8dda6fe3ff93176a5565ec4d353d832bb68d94b513d64174c97acb576022034a717c84b5b2045e1defb450105bdc7ece4908d0a3fe30b032ee42a522cdda00121027d8fb680f690f81d7f81f2af61495566463293c69134728ce5436998fbd2cb15ffffffff2bf6676edb9ac8e2cb751cca74b4ca89b06ce63f591c4cd8d98ce4cc958a6e0d5d0500006b483045022100c9e7b850ea93750b5bc767131c7733e4b4d266166a3cecdc1a1d9b82a334b32702202024a6bd05b91ef90cf229d63d1c41fdea23e5732e3f35ae8afa0453fd29f1f40121027d8fb680f690f81d7f81f2af61495566463293c69134728ce5436998fbd2cb15ffffffff66422b8be14b132ecc98bf15e8e98a600deff95d7a10d59bc8fb1749cfe63d1f620500006b483045022100b4a85ed759830ea4bbeb2cda25b4afc34d00081513628646df13751374090236022013fb5e8b4647768e0f92c54eff6db4302a75c1e472bfb8af924aa30efc98d0c80121027d8fb680f690f81d7f81f2af61495566463293c69134728ce5436998fbd2cb15ffffffff557dd7b9d8ba891c17eb5609f22a8f76902e2344f546db4a38881a24521b42fc520500006a47304402207701173b84d78ff40e4233252dec1b19422798fbe86e386d5c91b26de478b90602203b258455b3b03aa1ff114b082ecda7743618b6be2b2b80b76a6cbbc0c7e9de370121027d8fb680f690f81d7f81f2af61495566463293c69134728ce5436998fbd2cb15ffffffffca2930e6c7202efe7f3e9b1f2bd49abf796fecd9be31817fed4e638af34496b29a0400006a47304402206308dbe057a7410d114e944e8d20068db6c02f0611ebd9a19c3c9d9e9e83ade8022059c564891ea8fc16dd930cdd607f22f425597f9ea7a52ffbf5982de934ceddbd0121027d8fb680f690f81d7f81f2af61495566463293c69134728ce5436998fbd2cb15ffffffff7588ffd8f35e90b7db937d072eda52b19d94d591132be60ddfb3e3d4ebc95ded360500006a47304402201a32fb626cff90e7349c1739c14077ba03c58def6b39f10d12059d218b1070fb022036a81f3838241ce927081dc487ba35c35ea85d29d5b32dc671781e5ef8026f620121027d8fb680f690f81d7f81f2af61495566463293c69134728ce5436998fbd2cb15ffffffff89820cabe710c19a71bad5a7e4e90286cbef51087e1d601c40089f68a2369570000000006b483045022100b74cc92616e6ca6cb3a4a0a415daffe252c63516c85f7ac1a6c1d6b1100242e802206e2240a6c386de4dda87c11bec591b15dada86a3f42fbb1cfa96e75588e2f4ae012102618c00e058cb525f1a5bf46eccbd8d9cad886a28ca6f98bd0fd597e56305c438ffffffffb50d436705ef9a6e1609f34561adcf0783e3b66e356bc88274967ce6e0fc3118000000006a47304402201986c2d02e9a5b6a8f3fd13622ff29a7c3aa8c5fbc1eb2f759b8d66dfb2b9f170220084a54ec55311ce10aab5ba6eb09a9607046a47eda99e375aadb6102c68f8e8f012102333b71a3411e0d4fb72b4655af0af272e9e25dc90eb1b30ccd6f5125baf2e0f5ffffffff0200ef1c0d000000001976a914ba76a1b70c668c27e70580c5d97a2d75c964a23988ac73402f0d000000001976a914de933f59b24190450b1b3de57c345da2dceb040888ac00000000"
    }
  ],
  "time": 1517440579,
  "mediantime": 1517439758,
  "nonce": 686809516,
  "bits": "1a042eae",
  "difficulty": 4011378.762614286,
  "chainwork": "00000000000000000000000000000000000000000000003500db79be9ced2bf8",
  "previousblockhash": "2276ca7cfbc01bb98230458d514921fbb0fc3bae48251750df93a1442ad1cf67",
  "nextblockhash": "6b5c9945aa8f1287b8c049c0f69ff300afdb1cee8dd8ac5a7389fbb29062f1ec"
}
