{
  "hash": "7fea016e1dc1be2bd83f199a1b45d8bf81ed370b09b8f6ddd4d375c91429e176",
  "confirmations": 2639,
  "strippedsize": 4973,
  "size": 5487,
  "weight": 20406,
  "height": 1358356,
  "version": 536870912,
  "versionHex": "20000000",
  "merkleroot": "d19c7e1735ae91364faaa3f6bb78ab7434c68d4d3ecb8d242262b356bb597b91",
  "tx": [
    {
      "txid": "dc8c75ebada3b3b6127d0ec8209eb7583fd3780b79c37e6d0e8f8b034b79dafa",
      "hash": "f2528019846bf0b2f9230285070298dab46c98601d7342b036f166327d54501c",
      "version": 1,
      "size": 236,
      "vsize": 209,
      "locktime": 0,
      "vin": [
        {
          "coinbase": "0314ba14045a6d95222cfabe6d6d95ba239c00bf985f9a1b731dec4c361b77f9c49ab233eb02bdb70f82963f3a564000000000000000042f4c502f0856006aae09000000",
          "sequence": 4294967295
        }
      ],
      "vout": [
        {
          "value": 25.02473044,
          "n": 0,
          "scriptPubKey": {
            "asm": "OP_DUP OP_HASH160 57757ed2ecf2052ff3126c397aca7defb9ca2cec OP_EQUALVERIFY OP_CHECKSIG",
            "hex": "76a91457757ed2ecf2052ff3126c397aca7defb9ca2cec88ac",
            "reqSigs": 1,
            "type": "pubkeyhash",
            "addresses": [
              "LTCPodGk5FwcJaRzH9yKnwicxzFUbxp6tN"
            ]
          }
        }, 
        {
          "value": 0.00000000,
          "n": 1,
          "scriptPubKey": {
            "asm": "OP_RETURN aa21a9ed7e34c1f8431e2ab91ebe87009836debc0eaccfc4a84a9f7f5e52a29410a59ff0",
            "hex": "6a24aa21a9ed7e34c1f8431e2ab91ebe87009836debc0eaccfc4a84a9f7f5e52a29410a59ff0",
            "type": "nulldata"
          }
        }
      ],
      "hex": "010000000001010000000000000000000000000000000000000000000000000000000000000000ffffffff440314ba14045a6d95222cfabe6d6d95ba239c00bf985f9a1b731dec4c361b77f9c49ab233eb02bdb70f82963f3a564000000000000000042f4c502f0856006aae09000000ffffffff0254b52895000000001976a91457757ed2ecf2052ff3126c397aca7defb9ca2cec88ac0000000000000000266a24aa21a9ed7e34c1f8431e2ab91ebe87009836debc0eaccfc4a84a9f7f5e52a29410a59ff00120000000000000000000000000000000000000000000000000000000000000000000000000"
    }, 
    {
      "txid": "7609e4fa1839b8da07a268c5454d00d1f382d84044c5f54a2fc47b2e274f0c9f",
      "hash": "7609e4fa1839b8da07a268c5454d00d1f382d84044c5f54a2fc47b2e274f0c9f",
      "version": 1,
      "size": 1960,
      "vsize": 1960,
      "locktime": 0,
      "vin": [
        {
          "txid": "1b6ce64d2882a68dd5aab16a4a7a2de908ca83e9ea423f149ac61f8d2ab1231e",
          "vout": 7,
          "scriptSig": {
            "asm": "304402204cf56d13a0259c5dcb45312d9fce8ae5a3df47a5f81e28fd8ea64faf84263a00022033c752eb3005b4754fd00b068d72a30dc899bf1c11aee24a77eded635b98c0be[ALL] 02b966f7c3399788c25f9655547adccc3921611a708373a4ae612681bc7cfdf069",
            "hex": "47304402204cf56d13a0259c5dcb45312d9fce8ae5a3df47a5f81e28fd8ea64faf84263a00022033c752eb3005b4754fd00b068d72a30dc899bf1c11aee24a77eded635b98c0be012102b966f7c3399788c25f9655547adccc3921611a708373a4ae612681bc7cfdf069"
          },
          "sequence": 4294967294
        }, 
        {
          "txid": "205f41099681794ea6be2d28a98e37b2d1538a462fdb45cdc0f8fe80f7fcf7ac",
          "vout": 0,
          "scriptSig": {
            "asm": "3043021f39a6b24bf31717804ce69e2055be5ac639ea2e2b18d7b426f23d5beb774d6302202222ade38f41e0d6fa7653c81ded590861c911054c8f60c353731d5be3a01986[ALL] 0208e029f01fab888508a39a519fee49f18cba913ce7a225f14af06619cc8d0961",
            "hex": "463043021f39a6b24bf31717804ce69e2055be5ac639ea2e2b18d7b426f23d5beb774d6302202222ade38f41e0d6fa7653c81ded590861c911054c8f60c353731d5be3a0198601210208e029f01fab888508a39a519fee49f18cba913ce7a225f14af06619cc8d0961"
          },
          "sequence": 4294967294
        }, 
        {
          "txid": "263b844e695a24e8ecf800c6bb20e8f8d44195434ffa89e86a9d654338a5fd5f",
          "vout": 0,
          "scriptSig": {
            "asm": "3045022100be7eda038c0b14102a14407c1235201216418914ba0ec75ae3936d7b2a19f3aa022005837123b7b3a182684c3351ecce3533f971aa21d84d240771d0f16294b510fd[ALL] 038419106d5ae22d436acdb816a08220bd4a0a5287afa3d394c46e138cb2c4aafc",
            "hex": "483045022100be7eda038c0b14102a14407c1235201216418914ba0ec75ae3936d7b2a19f3aa022005837123b7b3a182684c3351ecce3533f971aa21d84d240771d0f16294b510fd0121038419106d5ae22d436acdb816a08220bd4a0a5287afa3d394c46e138cb2c4aafc"
          },
          "sequence": 4294967294
        }, 
        {
          "txid": "4221030536a8b13d80cc967e3d04888efa17e231950b15378f6a6caa2ccd0903",
          "vout": 2,
          "scriptSig": {
            "asm": "304402205eda228828c2ba64fd83d82aa76056d16a4afedbbff6fe7330005fe7bd5b3ff3022023667478207d0c35f446cdaeb86d22c779e0b40c1ec694b51d6d5f4372bd691f[ALL] 02ad00590c6cfd33bc6546a9e3643bf2198e51cb36a3e76de20ee2b4a339057964",
            "hex": "47304402205eda228828c2ba64fd83d82aa76056d16a4afedbbff6fe7330005fe7bd5b3ff3022023667478207d0c35f446cdaeb86d22c779e0b40c1ec694b51d6d5f4372bd691f012102ad00590c6cfd33bc6546a9e3643bf2198e51cb36a3e76de20ee2b4a339057964"
          },
          "sequence": 4294967294
        }, 
        {
          "txid": "598532de0ed5304aa073b8dfd918349faa0f3b7d15b9b64de7f52952b4bd44ec",
          "vout": 0,
          "scriptSig": {
            "asm": "304402200a247d126d442e5a23c3f375f4ed2f6a485fd3851c97f61be6d815fd4285a6d1022050465234b4b6a7679a78c9db76a88810c12183197f4379d7092af18de1b17aea[ALL] 0320a36fda0830503c42d18e88b75b93d2fe82ee949a4e056ec93091dbe1d5988e",
            "hex": "47304402200a247d126d442e5a23c3f375f4ed2f6a485fd3851c97f61be6d815fd4285a6d1022050465234b4b6a7679a78c9db76a88810c12183197f4379d7092af18de1b17aea01210320a36fda0830503c42d18e88b75b93d2fe82ee949a4e056ec93091dbe1d5988e"
          },
          "sequence": 4294967294
        }, 
        {
          "txid": "781facbe473e392a3fead748ce034d0de37cd976a51d7ce02ade142c574e7ff3",
          "vout": 1,
          "scriptSig": {
            "asm": "3044022058e531710ce3e9e45b48e2b2bd9b2feafc7497a31e0bfe53c6b877a48f8ca62302204f0b1d44ee596d3b2934ba503da5649983a499a839e0564f5503416349c8b3ae[ALL] 02e3a442836e97a2fdfb052f5c1c5c08cbc25db66a937340d38e509f107b162036",
            "hex": "473044022058e531710ce3e9e45b48e2b2bd9b2feafc7497a31e0bfe53c6b877a48f8ca62302204f0b1d44ee596d3b2934ba503da5649983a499a839e0564f5503416349c8b3ae012102e3a442836e97a2fdfb052f5c1c5c08cbc25db66a937340d38e509f107b162036"
          },
          "sequence": 4294967294
        }, 
        {
          "txid": "ac14f60dac88984aee201675fd42507aab34eefc8fe190314a078e307a59a065",
          "vout": 2,
          "scriptSig": {
            "asm": "3045022100f80701e048937c06f39d237d989a249c86fd58b18cc1aeaee0dfac44db76cdbd02203f784dd1eecf22204c163dd317831eb3e1cecf5977449024dec8d7447115d7dd[ALL] 03b86232e135c2d4def0dedc2e7d8f49de03ddeb23d0443d37c486ed64041e3f14",
            "hex": "483045022100f80701e048937c06f39d237d989a249c86fd58b18cc1aeaee0dfac44db76cdbd02203f784dd1eecf22204c163dd317831eb3e1cecf5977449024dec8d7447115d7dd012103b86232e135c2d4def0dedc2e7d8f49de03ddeb23d0443d37c486ed64041e3f14"
          },
          "sequence": 4294967294
        }, 
        {
          "txid": "edc4f717aefbf5161a79c6fdab34f8344a4258b160734a38a445eed40c05bf36",
          "vout": 0,
          "scriptSig": {
            "asm": "3045022100b538db3f63b5265bed3b3f4b1c07ac37b4e0cbda8611b105ed1dbfdd69f28b22022059ed9cc012cb9436b18483e128b388d63a394935ea2b3aff7cee889ede51c384[ALL] 0261bc130620293d191c2a5ad11b5df2bb5baf6bee3a8f9309052f1aa6a0b780cd",
            "hex": "483045022100b538db3f63b5265bed3b3f4b1c07ac37b4e0cbda8611b105ed1dbfdd69f28b22022059ed9cc012cb9436b18483e128b388d63a394935ea2b3aff7cee889ede51c38401210261bc130620293d191c2a5ad11b5df2bb5baf6bee3a8f9309052f1aa6a0b780cd"
          },
          "sequence": 4294967294
        }, 
        {
          "txid": "edccdc4311c1dc365e158d6823256a5548c996ff335d358c6afe6d18a39d3aae",
          "vout": 0,
          "scriptSig": {
            "asm": "3045022100933b813dfac8ed19a881f5b08565c4eb507d878b5f01cdeaf8f989b088e6bb3f02200632eef0f5ef4a6ef09517221978f8681fe81a1c33dfeded6701808b380ac3a5[ALL] 03cc88cb1912f4dcd2a691d46e56cb54ab99bc624e658044dd7721c1546112d99c",
            "hex": "483045022100933b813dfac8ed19a881f5b08565c4eb507d878b5f01cdeaf8f989b088e6bb3f02200632eef0f5ef4a6ef09517221978f8681fe81a1c33dfeded6701808b380ac3a5012103cc88cb1912f4dcd2a691d46e56cb54ab99bc624e658044dd7721c1546112d99c"
          },
          "sequence": 4294967294
        }, 
        {
          "txid": "f44562224156a0275157d21039358036175db2b669ceb011cc622d73ce462bbe",
          "vout": 1,
          "scriptSig": {
            "asm": "3045022100f506d6ba2b2999708a164ef471c9ce2d32a199ec9f5f6e2063e5a2b21f3bf754022052479fb3b4ee24b7df0ca9116bbb9477a117b4ca24c77758551e9ffbc52ecb5f[ALL] 025869862c718ad036f25e3fdb2d4212e8348ee536498b14ef464380e1d151df52",
            "hex": "483045022100f506d6ba2b2999708a164ef471c9ce2d32a199ec9f5f6e2063e5a2b21f3bf754022052479fb3b4ee24b7df0ca9116bbb9477a117b4ca24c77758551e9ffbc52ecb5f0121025869862c718ad036f25e3fdb2d4212e8348ee536498b14ef464380e1d151df52"
          },
          "sequence": 4294967294
        }, 
        {
          "txid": "f94e6a18c6582843c444dbc00812a1bfa91781a9711bfa0d18bd1277c9345604",
          "vout": 18,
          "scriptSig": {
            "asm": "3044022060585a432de3193cceaad33b624da6182a217a4194112122569cbfc63861a7ce02204cdf72cd00f3eb1ea9900caec6e4348183836003668aa1d1f54b62a895678515[ALL] 03798c193dd1f41cd96caa8575487a26576171aeaea043450f1f0f6cf30212a612",
            "hex": "473044022060585a432de3193cceaad33b624da6182a217a4194112122569cbfc63861a7ce02204cdf72cd00f3eb1ea9900caec6e4348183836003668aa1d1f54b62a895678515012103798c193dd1f41cd96caa8575487a26576171aeaea043450f1f0f6cf30212a612"
          },
          "sequence": 4294967294
        }, 
        {
          "txid": "fc28118e7435c1afa979ade652f1adefc1887ca2864ff8b388aaa17d04dad896",
          "vout": 2,
          "scriptSig": {
            "asm": "3045022100b29f36a4a28dc1df4fbbfef4d4550e1353731ef54550b38972df54ab2b326961022069dc80a7ac311cc9a9ed03350cf0f9972651c44235bfeb809ff07ceab731c234[ALL] 03631e4c5e07239f5eb8cd0c775840311d012f404ac1d6fdde9e5fe7dac6ddb2a3",
            "hex": "483045022100b29f36a4a28dc1df4fbbfef4d4550e1353731ef54550b38972df54ab2b326961022069dc80a7ac311cc9a9ed03350cf0f9972651c44235bfeb809ff07ceab731c234012103631e4c5e07239f5eb8cd0c775840311d012f404ac1d6fdde9e5fe7dac6ddb2a3"
          },
          "sequence": 4294967294
        }, 
        {
          "txid": "fc28118e7435c1afa979ade652f1adefc1887ca2864ff8b388aaa17d04dad896",
          "vout": 44,
          "scriptSig": {
            "asm": "3044022063b7ba3ce44cb0866b7636a51049cdf3aa7ef3baa1d2653b8c246f53bd5234ee022046129c50fbc18b05acf6c7de4d25dfa2d219c0ad1f079df4dbbf281b87558724[ALL] 022bd8d613020412014863a4db52934f20061eff9998ffcfcef342e0f44d5cce65",
            "hex": "473044022063b7ba3ce44cb0866b7636a51049cdf3aa7ef3baa1d2653b8c246f53bd5234ee022046129c50fbc18b05acf6c7de4d25dfa2d219c0ad1f079df4dbbf281b875587240121022bd8d613020412014863a4db52934f20061eff9998ffcfcef342e0f44d5cce65"
          },
          "sequence": 4294967294
        }
      ],
      "vout": [
        {
          "value": 73.54121761,
          "n": 0,
          "scriptPubKey": {
            "asm": "OP_DUP OP_HASH160 77bc62ce8318236beff956a7013c926ea3801a79 OP_EQUALVERIFY OP_CHECKSIG",
            "hex": "76a91477bc62ce8318236beff956a7013c926ea3801a7988ac",
            "reqSigs": 1,
            "type": "pubkeyhash",
            "addresses": [
              "LW94MKvUGdGXxodreoaed4acRL5bx3BRwW"
            ]
          }
        }
      ],
      "hex": "010000000d1e23b12a8d1fc69a143f42eae983ca08e92d7a4a6ab1aad58da682284de66c1b070000006a47304402204cf56d13a0259c5dcb45312d9fce8ae5a3df47a5f81e28fd8ea64faf84263a00022033c752eb3005b4754fd00b068d72a30dc899bf1c11aee24a77eded635b98c0be012102b966f7c3399788c25f9655547adccc3921611a708373a4ae612681bc7cfdf069feffffffacf7fcf780fef8c0cd45db2f468a53d1b2378ea9282dbea64e79819609415f200000000069463043021f39a6b24bf31717804ce69e2055be5ac639ea2e2b18d7b426f23d5beb774d6302202222ade38f41e0d6fa7653c81ded590861c911054c8f60c353731d5be3a0198601210208e029f01fab888508a39a519fee49f18cba913ce7a225f14af06619cc8d0961feffffff5ffda53843659d6ae889fa4f439541d4f8e820bbc600f8ece8245a694e843b26000000006b483045022100be7eda038c0b14102a14407c1235201216418914ba0ec75ae3936d7b2a19f3aa022005837123b7b3a182684c3351ecce3533f971aa21d84d240771d0f16294b510fd0121038419106d5ae22d436acdb816a08220bd4a0a5287afa3d394c46e138cb2c4aafcfeffffff0309cd2caa6c6a8f37150b9531e217fa8e88043d7e96cc803db1a83605032142020000006a47304402205eda228828c2ba64fd83d82aa76056d16a4afedbbff6fe7330005fe7bd5b3ff3022023667478207d0c35f446cdaeb86d22c779e0b40c1ec694b51d6d5f4372bd691f012102ad00590c6cfd33bc6546a9e3643bf2198e51cb36a3e76de20ee2b4a339057964feffffffec44bdb45229f5e74db6b9157d3b0faa9f3418d9dfb873a04a30d50ede328559000000006a47304402200a247d126d442e5a23c3f375f4ed2f6a485fd3851c97f61be6d815fd4285a6d1022050465234b4b6a7679a78c9db76a88810c12183197f4379d7092af18de1b17aea01210320a36fda0830503c42d18e88b75b93d2fe82ee949a4e056ec93091dbe1d5988efefffffff37f4e572c14de2ae07c1da576d97ce30d4d03ce48d7ea3f2a393e47beac1f78010000006a473044022058e531710ce3e9e45b48e2b2bd9b2feafc7497a31e0bfe53c6b877a48f8ca62302204f0b1d44ee596d3b2934ba503da5649983a499a839e0564f5503416349c8b3ae012102e3a442836e97a2fdfb052f5c1c5c08cbc25db66a937340d38e509f107b162036feffffff65a0597a308e074a3190e18ffcee34ab7a5042fd751620ee4a9888ac0df614ac020000006b483045022100f80701e048937c06f39d237d989a249c86fd58b18cc1aeaee0dfac44db76cdbd02203f784dd1eecf22204c163dd317831eb3e1cecf5977449024dec8d7447115d7dd012103b86232e135c2d4def0dedc2e7d8f49de03ddeb23d0443d37c486ed64041e3f14feffffff36bf050cd4ee45a4384a7360b158424a34f834abfdc6791a16f5fbae17f7c4ed000000006b483045022100b538db3f63b5265bed3b3f4b1c07ac37b4e0cbda8611b105ed1dbfdd69f28b22022059ed9cc012cb9436b18483e128b388d63a394935ea2b3aff7cee889ede51c38401210261bc130620293d191c2a5ad11b5df2bb5baf6bee3a8f9309052f1aa6a0b780cdfeffffffae3a9da3186dfe6a8c355d33ff96c948556a2523688d155e36dcc11143dccced000000006b483045022100933b813dfac8ed19a881f5b08565c4eb507d878b5f01cdeaf8f989b088e6bb3f02200632eef0f5ef4a6ef09517221978f8681fe81a1c33dfeded6701808b380ac3a5012103cc88cb1912f4dcd2a691d46e56cb54ab99bc624e658044dd7721c1546112d99cfeffffffbe2b46ce732d62cc11b0ce69b6b25d173680353910d2575127a05641226245f4010000006b483045022100f506d6ba2b2999708a164ef471c9ce2d32a199ec9f5f6e2063e5a2b21f3bf754022052479fb3b4ee24b7df0ca9116bbb9477a117b4ca24c77758551e9ffbc52ecb5f0121025869862c718ad036f25e3fdb2d4212e8348ee536498b14ef464380e1d151df52feffffff045634c97712bd180dfa1b71a98117a9bfa11208c0db44c4432858c6186a4ef9120000006a473044022060585a432de3193cceaad33b624da6182a217a4194112122569cbfc63861a7ce02204cdf72cd00f3eb1ea9900caec6e4348183836003668aa1d1f54b62a895678515012103798c193dd1f41cd96caa8575487a26576171aeaea043450f1f0f6cf30212a612feffffff96d8da047da1aa88b3f84f86a27c88c1efadf152e6ad79a9afc135748e1128fc020000006b483045022100b29f36a4a28dc1df4fbbfef4d4550e1353731ef54550b38972df54ab2b326961022069dc80a7ac311cc9a9ed03350cf0f9972651c44235bfeb809ff07ceab731c234012103631e4c5e07239f5eb8cd0c775840311d012f404ac1d6fdde9e5fe7dac6ddb2a3feffffff96d8da047da1aa88b3f84f86a27c88c1efadf152e6ad79a9afc135748e1128fc2c0000006a473044022063b7ba3ce44cb0866b7636a51049cdf3aa7ef3baa1d2653b8c246f53bd5234ee022046129c50fbc18b05acf6c7de4d25dfa2d219c0ad1f079df4dbbf281b875587240121022bd8d613020412014863a4db52934f20061eff9998ffcfcef342e0f44d5cce65feffffff0121fe56b6010000001976a91477bc62ce8318236beff956a7013c926ea3801a7988ac00000000"
    }, 
    {
      "txid": "4cd31cba9e66e2a38da96b28ebb01ca8f5d14043fde97a9f1e6545ebc59e2d24",
      "hash": "4cd31cba9e66e2a38da96b28ebb01ca8f5d14043fde97a9f1e6545ebc59e2d24",
      "version": 1,
      "size": 373,
      "vsize": 373,
      "locktime": 0,
      "vin": [
        {
          "txid": "7b716ab20cd03b328e1c1723d478fca55b9c188d788e8fd63711f4529f703ee0",
          "vout": 0,
          "scriptSig": {
            "asm": "3044022069178a19ff9313015f560687c6d8cf29b35072b942e036b835d18d740d1f6dac0220640a1dc794653e85527cfe8d6b6d9c79008c62b56dc9d88ecb3822e16e57592c[ALL] 031e39fe9eb591e1edae9b946353e37a5b60bae4007fac2dc22c7a56103cb81199",
            "hex": "473044022069178a19ff9313015f560687c6d8cf29b35072b942e036b835d18d740d1f6dac0220640a1dc794653e85527cfe8d6b6d9c79008c62b56dc9d88ecb3822e16e57592c0121031e39fe9eb591e1edae9b946353e37a5b60bae4007fac2dc22c7a56103cb81199"
          },
          "sequence": 4294967295
        }, 
        {
          "txid": "c144320dfb6f1fd003e177460a634e2877701ccfd938e29e8337110b5fb91f4f",
          "vout": 36,
          "scriptSig": {
            "asm": "3045022100ef3b538fc30327b36a18938d2d78e96252e147e3c8a6f59f5ac7a283ecfcb656022033208f8c253e94e5ad5131ad3170dbb8f2f64a6c51e3c6399d3143cd5df4d49d[ALL] 034162f9d3f6d6ea163e9975a56806efdff9843c6508512ba567079c5fbbd00bd2",
            "hex": "483045022100ef3b538fc30327b36a18938d2d78e96252e147e3c8a6f59f5ac7a283ecfcb656022033208f8c253e94e5ad5131ad3170dbb8f2f64a6c51e3c6399d3143cd5df4d49d0121034162f9d3f6d6ea163e9975a56806efdff9843c6508512ba567079c5fbbd00bd2"
          },
          "sequence": 4294967295
        }
      ],
      "vout": [
        {
          "value": 1.27316976,
          "n": 0,
          "scriptPubKey": {
            "asm": "OP_DUP OP_HASH160 269183c69a1a3662517a6b0c124ddd1ec7f99e5b OP_EQUALVERIFY OP_CHECKSIG",
            "hex": "76a914269183c69a1a3662517a6b0c124ddd1ec7f99e5b88ac",
            "reqSigs": 1,
            "type": "pubkeyhash",
            "addresses": [
              "LNjtG3YFzu7Gfv543vHMfKcwXWEzYC1ihB"
            ]
          }
        }, 
        {
          "value": 0.01000000,
          "n": 1,
          "scriptPubKey": {
            "asm": "OP_DUP OP_HASH160 7b2820cc470223450d60b44065cafe2d1729ff1e OP_EQUALVERIFY OP_CHECKSIG",
            "hex": "76a9147b2820cc470223450d60b44065cafe2d1729ff1e88ac",
            "reqSigs": 1,
            "type": "pubkeyhash",
            "addresses": [
              "LWT9SxZ13gcBXJ5givuzP7PUkY2n9cLnAn"
            ]
          }
        }
      ],
      "hex": "0100000002e03e709f52f41137d68f8e788d189c5ba5fc78d423171c8e323bd00cb26a717b000000006a473044022069178a19ff9313015f560687c6d8cf29b35072b942e036b835d18d740d1f6dac0220640a1dc794653e85527cfe8d6b6d9c79008c62b56dc9d88ecb3822e16e57592c0121031e39fe9eb591e1edae9b946353e37a5b60bae4007fac2dc22c7a56103cb81199ffffffff4f1fb95f0b1137839ee238d9cf1c7077284e630a4677e103d01f6ffb0d3244c1240000006b483045022100ef3b538fc30327b36a18938d2d78e96252e147e3c8a6f59f5ac7a283ecfcb656022033208f8c253e94e5ad5131ad3170dbb8f2f64a6c51e3c6399d3143cd5df4d49d0121034162f9d3f6d6ea163e9975a56806efdff9843c6508512ba567079c5fbbd00bd2ffffffff02f0b39607000000001976a914269183c69a1a3662517a6b0c124ddd1ec7f99e5b88ac40420f00000000001976a9147b2820cc470223450d60b44065cafe2d1729ff1e88ac00000000"
    }, 
    {
      "txid": "3de6776a9584692c179906c6097bc088b326111fdae654def5e802bcf6f23dee",
      "hash": "719e6b846a3c99e4ad40123da74a0c819754999717c3a8cfe44c2a431ab0559a",
      "version": 1,
      "size": 374,
      "vsize": 208,
      "locktime": 0,
      "vin": [
        {
          "txid": "407c64f979ac9fcbf84f8061c823855d2c96610cd8603daed87dd589bebe9995",
          "vout": 1,
          "scriptSig": {
            "asm": "0020409fd93c7351b461fa46963fa28755038f397ee054ab9e56eda0b1081d768cc4",
            "hex": "220020409fd93c7351b461fa46963fa28755038f397ee054ab9e56eda0b1081d768cc4"
          },
          "txinwitness": [
            "", 
            "3045022100862985fb8ea045f2de46204d10e80c7e2c699dc860bbb46eb9486e845f29d4a9022014bdf48673e0e5b951ac44853b1952665bdaa82d5e0904a58f1640dccb0e7f8c01", 
            "304502210098de587beaa2fa50db0677c5fa35a59db31c72fc0b4af0a3c35d4e8da64f797c022079395c60afb8489b4d2050421834898236e4ffd0554673ebf4abfdd18805352801", 
            "522103ceb293b39e087131961da42b3deaef48432d57a08bfd111247901be2936525b32103fa185b0d6c2a6d812d1a9418c54b3cea527d229a73a0c6c72345a1851ebcdad352ae"
          ],
          "sequence": 4294967295
        }
      ],
      "vout": [
        {
          "value": 0.02083300,
          "n": 0,
          "scriptPubKey": {
            "asm": "OP_DUP OP_HASH160 3272bdc9a2192ce1f13fbf9c9f138af6a8ab4468 OP_EQUALVERIFY OP_CHECKSIG",
            "hex": "76a9143272bdc9a2192ce1f13fbf9c9f138af6a8ab446888ac",
            "reqSigs": 1,
            "type": "pubkeyhash",
            "addresses": [
              "LPphWB35VdaNuKECu5PXtZKu23MLtjjDwU"
            ]
          }
        }, 
        {
          "value": 0.90452200,
          "n": 1,
          "scriptPubKey": {
            "asm": "OP_HASH160 2d9ba1f1c217fd18a576b17eaf8a1c6f1cd2f1de OP_EQUAL",
            "hex": "a9142d9ba1f1c217fd18a576b17eaf8a1c6f1cd2f1de87",
            "reqSigs": 1,
            "type": "scripthash",
            "addresses": [
              "MC4K5c2x6rcVohDBLrLNQRsqL5atuzztot"
            ]
          }
        }
      ],
      "hex": "010000000001019599bebe89d57dd8ae3d60d80c61962c5d8523c861804ff8cb9fac79f9647c400100000023220020409fd93c7351b461fa46963fa28755038f397ee054ab9e56eda0b1081d768cc4ffffffff02e4c91f00000000001976a9143272bdc9a2192ce1f13fbf9c9f138af6a8ab446888ace83064050000000017a9142d9ba1f1c217fd18a576b17eaf8a1c6f1cd2f1de870400483045022100862985fb8ea045f2de46204d10e80c7e2c699dc860bbb46eb9486e845f29d4a9022014bdf48673e0e5b951ac44853b1952665bdaa82d5e0904a58f1640dccb0e7f8c0148304502210098de587beaa2fa50db0677c5fa35a59db31c72fc0b4af0a3c35d4e8da64f797c022079395c60afb8489b4d2050421834898236e4ffd0554673ebf4abfdd1880535280147522103ceb293b39e087131961da42b3deaef48432d57a08bfd111247901be2936525b32103fa185b0d6c2a6d812d1a9418c54b3cea527d229a73a0c6c72345a1851ebcdad352ae00000000"
    }, 
    {
      "txid": "6e373cdd76d811e272558a4e67b75667db04a74172a1e11e9357ab96ec99f746",
      "hash": "6e373cdd76d811e272558a4e67b75667db04a74172a1e11e9357ab96ec99f746",
      "version": 1,
      "size": 226,
      "vsize": 226,
      "locktime": 0,
      "vin": [
        {
          "txid": "ec1c9b29558b43abb27f901201204c0643810411636faea4bf817b3ee1b0b514",
          "vout": 1,
          "scriptSig": {
            "asm": "3045022100e17ef7ed87ce60da4a556d3897a8a3a6e1a4352486bf11700f24c2f2d400517202200e11e421845fbfb63c9f565addcdc1a2677ef01c3d910d393a5b4b9f2b45ba8f[ALL] 02852fe7ec2e14a561c375645feaa9d6d3b90fb9e01d58780862fff6defe58ad2a",
            "hex": "483045022100e17ef7ed87ce60da4a556d3897a8a3a6e1a4352486bf11700f24c2f2d400517202200e11e421845fbfb63c9f565addcdc1a2677ef01c3d910d393a5b4b9f2b45ba8f012102852fe7ec2e14a561c375645feaa9d6d3b90fb9e01d58780862fff6defe58ad2a"
          },
          "sequence": 4294967295
        }
      ],
      "vout": [
        {
          "value": 0.79047338,
          "n": 0,
          "scriptPubKey": {
            "asm": "OP_DUP OP_HASH160 20c0e6e4813f9fbd396ee71e7d2faea6515ec91a OP_EQUALVERIFY OP_CHECKSIG",
            "hex": "76a91420c0e6e4813f9fbd396ee71e7d2faea6515ec91a88ac",
            "reqSigs": 1,
            "type": "pubkeyhash",
            "addresses": [
              "LND8yQs4xwvf7vjSUrKKRc6MGXGzA3Kq8z"
            ]
          }
        }, 
        {
          "value": 0.23254000,
          "n": 1,
          "scriptPubKey": {
            "asm": "OP_DUP OP_HASH160 1a4ffd7ec5b27417cc5bbdf8dc03ad6ade62e910 OP_EQUALVERIFY OP_CHECKSIG",
            "hex": "76a9141a4ffd7ec5b27417cc5bbdf8dc03ad6ade62e91088ac",
            "reqSigs": 1,
            "type": "pubkeyhash",
            "addresses": [
              "LMd5f21YyA9AKT5ziqWEH2EJcB6YKKnV3W"
            ]
          }
        }
      ],
      "hex": "010000000114b5b0e13e7b81bfa4ae6f6311048143064c200112907fb2ab438b55299b1cec010000006b483045022100e17ef7ed87ce60da4a556d3897a8a3a6e1a4352486bf11700f24c2f2d400517202200e11e421845fbfb63c9f565addcdc1a2677ef01c3d910d393a5b4b9f2b45ba8f012102852fe7ec2e14a561c375645feaa9d6d3b90fb9e01d58780862fff6defe58ad2affffffff02aa2ab604000000001976a91420c0e6e4813f9fbd396ee71e7d2faea6515ec91a88acf0d36201000000001976a9141a4ffd7ec5b27417cc5bbdf8dc03ad6ade62e91088ac00000000"
    }, 
    {
      "txid": "120b0747cb1aaace4961219d5e2baccd0838a8e6300d6e9ac27e7900e7b9140a",
      "hash": "3c81250bd0e5e84d246d671109b74e36f7f206c71c3e8aef1175b2eb9cc0e642",
      "version": 1,
      "size": 406,
      "vsize": 214,
      "locktime": 0,
      "vin": [
        {
          "txid": "a1c468e3f2b7318b6d7eb6e4e8538f468a19b40a7a7493c642cc89b80c29a3dc",
          "vout": 0,
          "scriptSig": {
            "asm": "0020bcf9f822194145acea0f3235f4107b5bf1a91b6b9f8489f63bf79ec29b360913",
            "hex": "220020bcf9f822194145acea0f3235f4107b5bf1a91b6b9f8489f63bf79ec29b360913"
          },
          "txinwitness": [
            "", 
            "3045022100987c168b6dd6d0429c963140f3330106f28c364b5bb9958c5dcf173e31a0f9270220320ccdf7a1c31a610336d9dd5100cbce8672e51e3d44bad06a4700a6531b3a9001", 
            "3045022100ae344497d0bddf9cb5a97ff1c03a83fd1777969f31868bcdff93392b2533057e022039406541d6a4cb9737a9827abe60d749bed311ab0c7339cb5b4ec2680121833801", 
            "5221026c8f72b9e63db63907115e65d4da86eaae595b22fdc85ec75301bb4adbf203582103806535be3e3920e5eedee92de5714188fd6a784f2bf7b04f87de0b9c3ae1ecdb21024b23bfdce2afcae7e28c42f7f79aa100f22931712c52d7414a526ba494d44a2553ae"
          ],
          "sequence": 4294967295
        }
      ],
      "vout": [
        {
          "value": 0.00996957,
          "n": 0,
          "scriptPubKey": {
            "asm": "OP_HASH160 30897cc6c9d69f6a2c2f1c651d51f22219f1a4f6 OP_EQUAL",
            "hex": "a91430897cc6c9d69f6a2c2f1c651d51f22219f1a4f687",
            "reqSigs": 1,
            "type": "scripthash",
            "addresses": [
              "MCKoNRvwxc3gPLTk3UTCpaxRuiHURQD1E9"
            ]
          }
        }, 
        {
          "value": 0.37934081,
          "n": 1,
          "scriptPubKey": {
            "asm": "OP_HASH160 4fc93620c6ff398f008c54928f290a6a2d4dd792 OP_EQUAL",
            "hex": "a9144fc93620c6ff398f008c54928f290a6a2d4dd79287",
            "reqSigs": 1,
            "type": "scripthash",
            "addresses": [
              "MFB2ezzBCrCgQCxmry2adyFTW5HCwFegRL"
            ]
          }
        }
      ],
      "hex": "01000000000101dca3290cb889cc42c693747a0ab4198a468f53e8e4b67e6d8b31b7f2e368c4a10000000023220020bcf9f822194145acea0f3235f4107b5bf1a91b6b9f8489f63bf79ec29b360913ffffffff025d360f000000000017a91430897cc6c9d69f6a2c2f1c651d51f22219f1a4f68701d442020000000017a9144fc93620c6ff398f008c54928f290a6a2d4dd792870400483045022100987c168b6dd6d0429c963140f3330106f28c364b5bb9958c5dcf173e31a0f9270220320ccdf7a1c31a610336d9dd5100cbce8672e51e3d44bad06a4700a6531b3a9001483045022100ae344497d0bddf9cb5a97ff1c03a83fd1777969f31868bcdff93392b2533057e022039406541d6a4cb9737a9827abe60d749bed311ab0c7339cb5b4ec2680121833801695221026c8f72b9e63db63907115e65d4da86eaae595b22fdc85ec75301bb4adbf203582103806535be3e3920e5eedee92de5714188fd6a784f2bf7b04f87de0b9c3ae1ecdb21024b23bfdce2afcae7e28c42f7f79aa100f22931712c52d7414a526ba494d44a2553ae00000000"
    }, 
    {
      "txid": "1ed8d0434261ef9d003b9ca97026058271d85af05b2e5f83dddeb5385c28d9e9",
      "hash": "1ed8d0434261ef9d003b9ca97026058271d85af05b2e5f83dddeb5385c28d9e9",
      "version": 1,
      "size": 225,
      "vsize": 225,
      "locktime": 0,
      "vin": [
        {
          "txid": "ea491ec47d11e9a368c865c1dc177bf48eefdef501ca8cd0608c0ba8de99a759",
          "vout": 7,
          "scriptSig": {
            "asm": "3044022050289166f2c9c01d2ba1c53248258652eeaf95fca088a0de5e27afda166187b9022070191cf941f9cd1bacde99c31ebf6be8e770b6d9506142f00cf4983b9cbf6ab0[ALL] 025d451926539667e1bca148cb4597b4d342dd1e7cb75e754c617229f55a951e8a",
            "hex": "473044022050289166f2c9c01d2ba1c53248258652eeaf95fca088a0de5e27afda166187b9022070191cf941f9cd1bacde99c31ebf6be8e770b6d9506142f00cf4983b9cbf6ab00121025d451926539667e1bca148cb4597b4d342dd1e7cb75e754c617229f55a951e8a"
          },
          "sequence": 4294967295
        }
      ],
      "vout": [
        {
          "value": 0.88417964,
          "n": 0,
          "scriptPubKey": {
            "asm": "OP_DUP OP_HASH160 84ef64647a35cf1702f84b097620fd0f3fabb7ce OP_EQUALVERIFY OP_CHECKSIG",
            "hex": "76a91484ef64647a35cf1702f84b097620fd0f3fabb7ce88ac",
            "reqSigs": 1,
            "type": "pubkeyhash",
            "addresses": [
              "LXLrEnyBHxJVb58rHUhJB4r7L6wPGDaFCz"
            ]
          }
        }, 
        {
          "value": 0.99977400,
          "n": 1,
          "scriptPubKey": {
            "asm": "OP_DUP OP_HASH160 18808b86d87bae638c7ebc0e1a93f6a2e5aff597 OP_EQUALVERIFY OP_CHECKSIG",
            "hex": "76a91418808b86d87bae638c7ebc0e1a93f6a2e5aff59788ac",
            "reqSigs": 1,
            "type": "pubkeyhash",
            "addresses": [
              "LMTWUHJjqi4aCoHHUWFDh9kdfQaiQiAh9D"
            ]
          }
        }
      ],
      "hex": "010000000159a799dea80b8c60d08cca01f5deef8ef47b17dcc165c868a3e9117dc41e49ea070000006a473044022050289166f2c9c01d2ba1c53248258652eeaf95fca088a0de5e27afda166187b9022070191cf941f9cd1bacde99c31ebf6be8e770b6d9506142f00cf4983b9cbf6ab00121025d451926539667e1bca148cb4597b4d342dd1e7cb75e754c617229f55a951e8affffffff02ac264505000000001976a91484ef64647a35cf1702f84b097620fd0f3fabb7ce88acb888f505000000001976a91418808b86d87bae638c7ebc0e1a93f6a2e5aff59788ac00000000"
    }, 
    {
      "txid": "69151564aa7b884c0ddfc5f52a605d4be094f3786316c51ab5f109aa05cf52c6",
      "hash": "69151564aa7b884c0ddfc5f52a605d4be094f3786316c51ab5f109aa05cf52c6",
      "version": 1,
      "size": 928,
      "vsize": 928,
      "locktime": 1358353,
      "vin": [
        {
          "txid": "16e25b3a7f1aa0bea21b752d83eca55d83586caf3df0996ce8ae683a5944ca57",
          "vout": 366,
          "scriptSig": {
            "asm": "304402203b572c9a4d0c92063d7beba131a03855127c03da39b81b2f86bc3c701190df5502207c90ca27ccca785e4ca211bec0a08ff7f6f29c60bf4caf97b67dc5992d5d1abb[ALL] 02e24a67a3ff87d7be9745b02b432ee9ffd15d9f09fd9256eb9c09ff09d557e88f",
            "hex": "47304402203b572c9a4d0c92063d7beba131a03855127c03da39b81b2f86bc3c701190df5502207c90ca27ccca785e4ca211bec0a08ff7f6f29c60bf4caf97b67dc5992d5d1abb012102e24a67a3ff87d7be9745b02b432ee9ffd15d9f09fd9256eb9c09ff09d557e88f"
          },
          "sequence": 4294967294
        }, 
        {
          "txid": "4ebc43c933bda38a815e0d9104865eef85364d4427c9ee6fd12fee5dfb07f708",
          "vout": 327,
          "scriptSig": {
            "asm": "304402203803d68d3da07de66a5d67e1d427e57943d54ce901a0493e780b27435953877f02204a5c8a1905186a46209b8fa7c2df992a297e63ac42a8bfe6740fd2fe99220276[ALL] 02e24a67a3ff87d7be9745b02b432ee9ffd15d9f09fd9256eb9c09ff09d557e88f",
            "hex": "47304402203803d68d3da07de66a5d67e1d427e57943d54ce901a0493e780b27435953877f02204a5c8a1905186a46209b8fa7c2df992a297e63ac42a8bfe6740fd2fe99220276012102e24a67a3ff87d7be9745b02b432ee9ffd15d9f09fd9256eb9c09ff09d557e88f"
          },
          "sequence": 4294967294
        }, 
        {
          "txid": "71a4aceea374f2594d5c0dfb48f4e936ea967aad74d176dde7673b469892bb5e",
          "vout": 279,
          "scriptSig": {
            "asm": "304402207374d53522f1e9503e145cff3b74f7e55b2a6f129b45ad402c033eacaa727f370220329b28e0ae501907654188c0b693699501cf3dbd873bcd761dd551ae78a767ad[ALL] 02e24a67a3ff87d7be9745b02b432ee9ffd15d9f09fd9256eb9c09ff09d557e88f",
            "hex": "47304402207374d53522f1e9503e145cff3b74f7e55b2a6f129b45ad402c033eacaa727f370220329b28e0ae501907654188c0b693699501cf3dbd873bcd761dd551ae78a767ad012102e24a67a3ff87d7be9745b02b432ee9ffd15d9f09fd9256eb9c09ff09d557e88f"
          },
          "sequence": 4294967294
        }, 
        {
          "txid": "a8cdda9e84efe3aeb4478a1e4967f6d33934996f9b85fab84bfb147a05856074",
          "vout": 467,
          "scriptSig": {
            "asm": "3045022100bc51845de441206334c8c22435359f2b3c9bf9ade8dc76d23b4adc65c5270d7f0220275124b85a5326ff4b132338d7e2cdd4efef405d7fac486f3ef605cc34bc678d[ALL] 02e24a67a3ff87d7be9745b02b432ee9ffd15d9f09fd9256eb9c09ff09d557e88f",
            "hex": "483045022100bc51845de441206334c8c22435359f2b3c9bf9ade8dc76d23b4adc65c5270d7f0220275124b85a5326ff4b132338d7e2cdd4efef405d7fac486f3ef605cc34bc678d012102e24a67a3ff87d7be9745b02b432ee9ffd15d9f09fd9256eb9c09ff09d557e88f"
          },
          "sequence": 4294967294
        }, 
        {
          "txid": "afc5688ef6f457ec50e5cc4dd4b72c438410a334050d0705a4de89783c3c1817",
          "vout": 281,
          "scriptSig": {
            "asm": "304502210096254b2863d5acb9b4d0a5f3bff0a250ea9c7b20c3b2a7a974956f228963a77d022024699d4870495851dbedc00c4322462178fa0b051f0e7570c6c7dac390c32ff0[ALL] 02e24a67a3ff87d7be9745b02b432ee9ffd15d9f09fd9256eb9c09ff09d557e88f",
            "hex": "48304502210096254b2863d5acb9b4d0a5f3bff0a250ea9c7b20c3b2a7a974956f228963a77d022024699d4870495851dbedc00c4322462178fa0b051f0e7570c6c7dac390c32ff0012102e24a67a3ff87d7be9745b02b432ee9ffd15d9f09fd9256eb9c09ff09d557e88f"
          },
          "sequence": 4294967294
        }, 
        {
          "txid": "b2a76105f3e4e3ce8a3bd105f08259ae669c086c34cee8bb72ae5a52719a0ec2",
          "vout": 340,
          "scriptSig": {
            "asm": "30440220383066fdf2f14b8873078c9866aff4b3be4e98efb61c6cb729fba0b88017b86f022046e2e160fd4851e5c7485ff1d455945358a167dc6ce832f919e9d905f57530b1[ALL] 02e24a67a3ff87d7be9745b02b432ee9ffd15d9f09fd9256eb9c09ff09d557e88f",
            "hex": "4730440220383066fdf2f14b8873078c9866aff4b3be4e98efb61c6cb729fba0b88017b86f022046e2e160fd4851e5c7485ff1d455945358a167dc6ce832f919e9d905f57530b1012102e24a67a3ff87d7be9745b02b432ee9ffd15d9f09fd9256eb9c09ff09d557e88f"
          },
          "sequence": 4294967294
        }
      ],
      "vout": [
        {
          "value": 0.01323499,
          "n": 0,
          "scriptPubKey": {
            "asm": "OP_DUP OP_HASH160 792c4551f2923a972707bd51ea47a13e6ff98033 OP_EQUALVERIFY OP_CHECKSIG",
            "hex": "76a914792c4551f2923a972707bd51ea47a13e6ff9803388ac",
            "reqSigs": 1,
            "type": "pubkeyhash",
            "addresses": [
              "LWGf4QsLCkLjZSREmzAPfgGcq5NDYfGV4a"
            ]
          }
        }
      ],
      "hex": "010000000657ca44593a68aee86c99f03daf6c58835da5ec832d751ba2bea01a7f3a5be2166e0100006a47304402203b572c9a4d0c92063d7beba131a03855127c03da39b81b2f86bc3c701190df5502207c90ca27ccca785e4ca211bec0a08ff7f6f29c60bf4caf97b67dc5992d5d1abb012102e24a67a3ff87d7be9745b02b432ee9ffd15d9f09fd9256eb9c09ff09d557e88ffeffffff08f707fb5dee2fd16feec927444d3685ef5e8604910d5e818aa3bd33c943bc4e470100006a47304402203803d68d3da07de66a5d67e1d427e57943d54ce901a0493e780b27435953877f02204a5c8a1905186a46209b8fa7c2df992a297e63ac42a8bfe6740fd2fe99220276012102e24a67a3ff87d7be9745b02b432ee9ffd15d9f09fd9256eb9c09ff09d557e88ffeffffff5ebb9298463b67e7dd76d174ad7a96ea36e9f448fb0d5c4d59f274a3eeaca471170100006a47304402207374d53522f1e9503e145cff3b74f7e55b2a6f129b45ad402c033eacaa727f370220329b28e0ae501907654188c0b693699501cf3dbd873bcd761dd551ae78a767ad012102e24a67a3ff87d7be9745b02b432ee9ffd15d9f09fd9256eb9c09ff09d557e88ffeffffff746085057a14fb4bb8fa859b6f993439d3f667491e8a47b4aee3ef849edacda8d30100006b483045022100bc51845de441206334c8c22435359f2b3c9bf9ade8dc76d23b4adc65c5270d7f0220275124b85a5326ff4b132338d7e2cdd4efef405d7fac486f3ef605cc34bc678d012102e24a67a3ff87d7be9745b02b432ee9ffd15d9f09fd9256eb9c09ff09d557e88ffeffffff17183c3c7889dea405070d0534a31084432cb7d44dcce550ec57f4f68e68c5af190100006b48304502210096254b2863d5acb9b4d0a5f3bff0a250ea9c7b20c3b2a7a974956f228963a77d022024699d4870495851dbedc00c4322462178fa0b051f0e7570c6c7dac390c32ff0012102e24a67a3ff87d7be9745b02b432ee9ffd15d9f09fd9256eb9c09ff09d557e88ffeffffffc20e9a71525aae72bbe8ce346c089c66ae5982f005d13b8acee3e4f30561a7b2540100006a4730440220383066fdf2f14b8873078c9866aff4b3be4e98efb61c6cb729fba0b88017b86f022046e2e160fd4851e5c7485ff1d455945358a167dc6ce832f919e9d905f57530b1012102e24a67a3ff87d7be9745b02b432ee9ffd15d9f09fd9256eb9c09ff09d557e88ffeffffff01eb311400000000001976a914792c4551f2923a972707bd51ea47a13e6ff9803388ac11ba1400"
    }, 
    {
      "txid": "346573dce52db6df56e2ab4f0ee15c738463a0de8e6e29c22e255c7ea881c109",
      "hash": "346573dce52db6df56e2ab4f0ee15c738463a0de8e6e29c22e255c7ea881c109",
      "version": 2,
      "size": 226,
      "vsize": 226,
      "locktime": 1358354,
      "vin": [
        {
          "txid": "415aafe121dd9ef5d7a48bfcf7baf3b6c6a2287d2213027329a2db0f9b3fb8f8",
          "vout": 0,
          "scriptSig": {
            "asm": "304502210081e86e8cf48e9b4c298eaeb4b0f4d8e10b731e98d503fdf29b9a7588e6e975f602204973b0b37c828d36f05bb31ea20b73a6fa8a0261c0c4efe299724e7532775ad7[ALL] 028cecd79b87b1c5ea304a24f11440a1ab9d46d264746f56292d39fb4e68b0b4fd",
            "hex": "48304502210081e86e8cf48e9b4c298eaeb4b0f4d8e10b731e98d503fdf29b9a7588e6e975f602204973b0b37c828d36f05bb31ea20b73a6fa8a0261c0c4efe299724e7532775ad70121028cecd79b87b1c5ea304a24f11440a1ab9d46d264746f56292d39fb4e68b0b4fd"
          },
          "sequence": 4294967294
        }
      ],
      "vout": [
        {
          "value": 0.20330096,
          "n": 0,
          "scriptPubKey": {
            "asm": "OP_DUP OP_HASH160 c574d25e7503e323581ae113f40c42f30887fe50 OP_EQUALVERIFY OP_CHECKSIG",
            "hex": "76a914c574d25e7503e323581ae113f40c42f30887fe5088ac",
            "reqSigs": 1,
            "type": "pubkeyhash",
            "addresses": [
              "LdE1KvPhrwC6Kcsxup8SKJ3VaAtgS2zkHi"
            ]
          }
        }, 
        {
          "value": 54.38424208,
          "n": 1,
          "scriptPubKey": {
            "asm": "OP_DUP OP_HASH160 3d798453d38e169047c8e51e6907b4503b8a94c7 OP_EQUALVERIFY OP_CHECKSIG",
            "hex": "76a9143d798453d38e169047c8e51e6907b4503b8a94c788ac",
            "reqSigs": 1,
            "type": "pubkeyhash",
            "addresses": [
              "LQq144GcmSzDh8BxHnVx6M42y4fmjPAWct"
            ]
          }
        }
      ],
      "hex": "0200000001f8b83f9b0fdba229730213227d28a2c6b6f3baf7fc8ba4d7f59edd21e1af5a41000000006b48304502210081e86e8cf48e9b4c298eaeb4b0f4d8e10b731e98d503fdf29b9a7588e6e975f602204973b0b37c828d36f05bb31ea20b73a6fa8a0261c0c4efe299724e7532775ad70121028cecd79b87b1c5ea304a24f11440a1ab9d46d264746f56292d39fb4e68b0b4fdfeffffff0270363601000000001976a914c574d25e7503e323581ae113f40c42f30887fe5088ac90c42744010000001976a9143d798453d38e169047c8e51e6907b4503b8a94c788ac12ba1400"
    }, 
    {
      "txid": "01d53c51e8735e309730ecb2a63d71b6b281923ddc0ca5378f8c039eaf1d1174",
      "hash": "01d53c51e8735e309730ecb2a63d71b6b281923ddc0ca5378f8c039eaf1d1174",
      "version": 1,
      "size": 226,
      "vsize": 226,
      "locktime": 0,
      "vin": [
        {
          "txid": "3af654701877f8425f392b03d25b2a953473989167ddef67fe02e3d48dec5e82",
          "vout": 316,
          "scriptSig": {
            "asm": "3045022100efcfb314fb20d16b1daf6db39e00468f12f76d5c0083f0dca369d1ca7e9cad1d0220050822a01fd90a620e492ddd593a3e508d26bc559a8b455525efe44afd0e2427[ALL] 03bd2b9a4c04e31e7e89880590b2198fa9d009324ee5db599c0b0b40648a9e0363",
            "hex": "483045022100efcfb314fb20d16b1daf6db39e00468f12f76d5c0083f0dca369d1ca7e9cad1d0220050822a01fd90a620e492ddd593a3e508d26bc559a8b455525efe44afd0e2427012103bd2b9a4c04e31e7e89880590b2198fa9d009324ee5db599c0b0b40648a9e0363"
          },
          "sequence": 4294967295
        }
      ],
      "vout": [
        {
          "value": 0.32208261,
          "n": 0,
          "scriptPubKey": {
            "asm": "OP_DUP OP_HASH160 b2f6a4de0045a2b4e944bfd84593f1f5a05343c0 OP_EQUALVERIFY OP_CHECKSIG",
            "hex": "76a914b2f6a4de0045a2b4e944bfd84593f1f5a05343c088ac",
            "reqSigs": 1,
            "type": "pubkeyhash",
            "addresses": [
              "LbYE1V6dPEKiWo92DeKcMAf9JxGmGzf2eV"
            ]
          }
        }, 
        {
          "value": 0.01051043,
          "n": 1,
          "scriptPubKey": {
            "asm": "OP_DUP OP_HASH160 9c9524f651edeef73fe59316cf83853cf7826dcd OP_EQUALVERIFY OP_CHECKSIG",
            "hex": "76a9149c9524f651edeef73fe59316cf83853cf7826dcd88ac",
            "reqSigs": 1,
            "type": "pubkeyhash",
            "addresses": [
              "LZVtLsXezBUCQLiMAcdmPScK5XJPzWp2sg"
            ]
          }
        }
      ],
      "hex": "0100000001825eec8dd4e302fe67efdd6791987334952a5bd2032b395f42f877187054f63a3c0100006b483045022100efcfb314fb20d16b1daf6db39e00468f12f76d5c0083f0dca369d1ca7e9cad1d0220050822a01fd90a620e492ddd593a3e508d26bc559a8b455525efe44afd0e2427012103bd2b9a4c04e31e7e89880590b2198fa9d009324ee5db599c0b0b40648a9e0363ffffffff028575eb01000000001976a914b2f6a4de0045a2b4e944bfd84593f1f5a05343c088aca3091000000000001976a9149c9524f651edeef73fe59316cf83853cf7826dcd88ac00000000"
    }, 
    {
      "txid": "eab793aab288f9d32091c3f9e193d67eeb58d9173709e0b20b60b19175a1adbf",
      "hash": "eab793aab288f9d32091c3f9e193d67eeb58d9173709e0b20b60b19175a1adbf",
      "version": 1,
      "size": 226,
      "vsize": 226,
      "locktime": 0,
      "vin": [
        {
          "txid": "98f255d3b8ea0aafb7e7bb92e33750b783e2c372d2f18916d334be3278ebe26a",
          "vout": 0,
          "scriptSig": {
            "asm": "3045022100bf24c9c5f3e97d9a426e0055b1c3daee3c41114e02963b31fa5bc746c57e663a022010e4111e72fbfeacfa78a01409b195f355cb5b1ae8f219c1621ed9493716f7a6[ALL] 03180dc0c2f46b6d0e3be385495a5dfcbc9fd2f854f81041ec0ee97d90a6252de2",
            "hex": "483045022100bf24c9c5f3e97d9a426e0055b1c3daee3c41114e02963b31fa5bc746c57e663a022010e4111e72fbfeacfa78a01409b195f355cb5b1ae8f219c1621ed9493716f7a6012103180dc0c2f46b6d0e3be385495a5dfcbc9fd2f854f81041ec0ee97d90a6252de2"
          },
          "sequence": 4294967295
        }
      ],
      "vout": [
        {
          "value": 27.61195531,
          "n": 0,
          "scriptPubKey": {
            "asm": "OP_DUP OP_HASH160 798aa2a7ad28f5ccbba90fcc19c1d579c639f2fc OP_EQUALVERIFY OP_CHECKSIG",
            "hex": "76a914798aa2a7ad28f5ccbba90fcc19c1d579c639f2fc88ac",
            "reqSigs": 1,
            "type": "pubkeyhash",
            "addresses": [
              "LWJc6yjRL35tCZpJngLWWWbBDURVEur2WB"
            ]
          }
        }, 
        {
          "value": 0.62243144,
          "n": 1,
          "scriptPubKey": {
            "asm": "OP_DUP OP_HASH160 f30690e184e993fb67eae08c04355877f2157628 OP_EQUALVERIFY OP_CHECKSIG",
            "hex": "76a914f30690e184e993fb67eae08c04355877f215762888ac",
            "reqSigs": 1,
            "type": "pubkeyhash",
            "addresses": [
              "LhNxL383hLtaTmTVMmsvBRqr7xeJiC2dQV"
            ]
          }
        }
      ],
      "hex": "01000000016ae2eb7832be34d31689f1d272c3e283b75037e392bbe7b7af0aeab8d355f298000000006b483045022100bf24c9c5f3e97d9a426e0055b1c3daee3c41114e02963b31fa5bc746c57e663a022010e4111e72fbfeacfa78a01409b195f355cb5b1ae8f219c1621ed9493716f7a6012103180dc0c2f46b6d0e3be385495a5dfcbc9fd2f854f81041ec0ee97d90a6252de2ffffffff020b8094a4000000001976a914798aa2a7ad28f5ccbba90fcc19c1d579c639f2fc88ac48c1b503000000001976a914f30690e184e993fb67eae08c04355877f215762888ac00000000"
    }
  ],
  "time": 1517131042,
  "mediantime": 1517129846,
  "nonce": 2584589752,
  "bits": "1a047f14",
  "difficulty": 3731199.183374282,
  "chainwork": "00000000000000000000000000000000000000000000003305aeea140102e522",
  "previousblockhash": "d7d6567a547520fa8635f14d5dfacf2b308046756316af2168421d58d2028982",
  "nextblockhash": "9e223ff56e0652a8f35dcbe6b40f414f36ae978027d30b1a58395af5d683cfa2"
}
