{
  "hash": "801b397b2356c3add5a700402cd3c012c9c8d77686f8350e5686d45d3de16c2f",
  "confirmations": 3205,
  "strippedsize": 256,
  "size": 256,
  "weight": 1024,
  "height": 1357790,
  "version": 536870912,
  "versionHex": "20000000",
  "merkleroot": "4f8b6b8ff78d8d9721509653b040327241f8469e9845edb469a5ce89f4f15d17",
  "tx": [
    {
      "txid": "4f8b6b8ff78d8d9721509653b040327241f8469e9845edb469a5ce89f4f15d17",
      "hash": "4f8b6b8ff78d8d9721509653b040327241f8469e9845edb469a5ce89f4f15d17",
      "version": 1,
      "size": 175,
      "vsize": 175,
      "locktime": 0,
      "vin": [
        {
          "coinbase": "03deb7141d4d696e656420627920416e74506f6f6c20626a312045205a6c52ae0517fabe6d6dcb3a658960220437b87ad51627a4b96467f718a9273e1b45fc02d54553865d9a04000000000000000c2a00000000000002000000",
          "sequence": 4294967295
        }
      ],
      "vout": [
        {
          "value": 25.00000000,
          "n": 0,
          "scriptPubKey": {
            "asm": "OP_DUP OP_HASH160 0ff3ccc5e8be88afe24b5d634e5852d474dbdff1 OP_EQUALVERIFY OP_CHECKSIG",
            "hex": "76a9140ff3ccc5e8be88afe24b5d634e5852d474dbdff188ac",
            "reqSigs": 1,
            "type": "pubkeyhash",
            "addresses": [
              "LLgJTbzZMsRTCUF1NtvvL9SR1a4pVieW89"
            ]
          }
        }
      ],
      "hex": "01000000010000000000000000000000000000000000000000000000000000000000000000ffffffff5a03deb7141d4d696e656420627920416e74506f6f6c20626a312045205a6c52ae0517fabe6d6dcb3a658960220437b87ad51627a4b96467f718a9273e1b45fc02d54553865d9a04000000000000000c2a00000000000002000000ffffffff0100f90295000000001976a9140ff3ccc5e8be88afe24b5d634e5852d474dbdff188ac00000000"
    }
  ],
  "time": 1517048494,
  "mediantime": 1517047469,
  "nonce": 1191894811,
  "bits": "1a047f14",
  "difficulty": 3731199.183374282,
  "chainwork": "00000000000000000000000000000000000000000000003287ce040150bd03a6",
  "previousblockhash": "905b8bfdfc6869bddb217074a5ec2a9c4237618dae07121a86950ac51d222aaa",
  "nextblockhash": "0d7cab0ea91a578dac67d24d303a0007e38622c6c763de33701b3a94caed4e8d"
}
