{
  "hash": "8026920f80c89569e7025daa709937a4e3223c0b42997a4d3a4fa48a27085084",
  "confirmations": 2431,
  "strippedsize": 3454,
  "size": 3490,
  "weight": 13852,
  "height": 1358564,
  "version": 536870912,
  "versionHex": "20000000",
  "merkleroot": "23d735d1b1f74d73564a8f6ff15179007e48721a3e25be66f24242ba2f71a329",
  "tx": [
    {
      "txid": "92d28b4b0fd50596b8700b35580dfd4468fc51ae711acdc3ac3988abeb33164d",
      "hash": "bbe3526aef612ac77484f172d4f151ffb15093d1818d6137a7090eb71eb447a6",
      "version": 1,
      "size": 258,
      "vsize": 231,
      "locktime": 0,
      "vin": [
        {
          "coinbase": "03e4ba14172f5669614254432f4d696e6564206279206d7a6c74632f2cfabe6d6db4dc42d19f16bc4d721958495a94d2f8f2fc0d15a731ad4a405c8867c1e3770c010000000000000010486a6a00ac3b0f0558a87cd35e000000",
          "sequence": 4294967295
        }
      ],
      "vout": [
        {
          "value": 25.00592457,
          "n": 0,
          "scriptPubKey": {
            "asm": "OP_DUP OP_HASH160 e16c28146ed4869c190b3f0bdc18d80d45f92134 OP_EQUALVERIFY OP_CHECKSIG",
            "hex": "76a914e16c28146ed4869c190b3f0bdc18d80d45f9213488ac",
            "reqSigs": 1,
            "type": "pubkeyhash",
            "addresses": [
              "LfmssDyX6iZvbVqHv6t9P6JWXia2JG7mdb"
            ]
          }
        }, 
        {
          "value": 0.00000000,
          "n": 1,
          "scriptPubKey": {
            "asm": "OP_RETURN aa21a9edfaf843e3e41071e674da940fe532e2f312de69291f123eda2a48adc5240734a1",
            "hex": "6a24aa21a9edfaf843e3e41071e674da940fe532e2f312de69291f123eda2a48adc5240734a1",
            "type": "nulldata"
          }
        }
      ],
      "hex": "010000000001010000000000000000000000000000000000000000000000000000000000000000ffffffff5a03e4ba14172f5669614254432f4d696e6564206279206d7a6c74632f2cfabe6d6db4dc42d19f16bc4d721958495a94d2f8f2fc0d15a731ad4a405c8867c1e3770c010000000000000010486a6a00ac3b0f0558a87cd35e000000ffffffff0249030c95000000001976a914e16c28146ed4869c190b3f0bdc18d80d45f9213488ac0000000000000000266a24aa21a9edfaf843e3e41071e674da940fe532e2f312de69291f123eda2a48adc5240734a10120000000000000000000000000000000000000000000000000000000000000000000000000"
    }, 
    {
      "txid": "a81adf8cd752e40a0e7b14a69b431247e6b4180a0434e08be3322bdbcd7579ac",
      "hash": "a81adf8cd752e40a0e7b14a69b431247e6b4180a0434e08be3322bdbcd7579ac",
      "version": 1,
      "size": 191,
      "vsize": 191,
      "locktime": 0,
      "vin": [
        {
          "txid": "51d5c69ee93c44083d480dc176795d2eb4a75f0ac1e531d7a8e06d64fd7d8913",
          "vout": 1,
          "scriptSig": {
            "asm": "304402203d9d353f090bb4b35baa2d326cc31841a3fbdf41777b04ae2ab794392fbdfaf202204ac3fd145faff99bffe2727474bc9dc08c2ba841525ab0e91f6c25c3fdc2eb5f[ALL] 037d09cfd1c5a326af3f88a919a1443af3e3a9a6f6bf093ccbd8736ae1f585f6a5",
            "hex": "47304402203d9d353f090bb4b35baa2d326cc31841a3fbdf41777b04ae2ab794392fbdfaf202204ac3fd145faff99bffe2727474bc9dc08c2ba841525ab0e91f6c25c3fdc2eb5f0121037d09cfd1c5a326af3f88a919a1443af3e3a9a6f6bf093ccbd8736ae1f585f6a5"
          },
          "sequence": 4294967295
        }
      ],
      "vout": [
        {
          "value": 0.18362992,
          "n": 0,
          "scriptPubKey": {
            "asm": "OP_DUP OP_HASH160 d9b57ace46b6521017f0a3c1497759a40579e1c5 OP_EQUALVERIFY OP_CHECKSIG",
            "hex": "76a914d9b57ace46b6521017f0a3c1497759a40579e1c588ac",
            "reqSigs": 1,
            "type": "pubkeyhash",
            "addresses": [
              "Lf56JGhfSDX8P7RZsRaa1L6Qr3izHGsrqS"
            ]
          }
        }
      ],
      "hex": "010000000113897dfd646de0a8d731e5c10a5fa7b42e5d7976c10d483d08443ce99ec6d551010000006a47304402203d9d353f090bb4b35baa2d326cc31841a3fbdf41777b04ae2ab794392fbdfaf202204ac3fd145faff99bffe2727474bc9dc08c2ba841525ab0e91f6c25c3fdc2eb5f0121037d09cfd1c5a326af3f88a919a1443af3e3a9a6f6bf093ccbd8736ae1f585f6a5ffffffff0170321801000000001976a914d9b57ace46b6521017f0a3c1497759a40579e1c588ac00000000"
    }, 
    {
      "txid": "19cb69835ecb03187ca9dd8e607e439ec4e5d1e4439e2393160406770c33b82d",
      "hash": "19cb69835ecb03187ca9dd8e607e439ec4e5d1e4439e2393160406770c33b82d",
      "version": 1,
      "size": 226,
      "vsize": 226,
      "locktime": 0,
      "vin": [
        {
          "txid": "f565ae5d85dc02ed342eaf890a7002a1d4576f75eac7a49419ef8bb30b5a102d",
          "vout": 28,
          "scriptSig": {
            "asm": "3045022100bcfa7162bc2aa0f815b43c3ca337afa4a8bc6e95d376b016f1e62ecf569c18b0022061dffd2f8956d911607e8d759b67b1a1a21f6cf8d68525b8adecb497abd058e4[ALL] 03637baf7c546661a2a3baf27c4e648d59f75fd2d2950ebb446bbdf136025f6d40",
            "hex": "483045022100bcfa7162bc2aa0f815b43c3ca337afa4a8bc6e95d376b016f1e62ecf569c18b0022061dffd2f8956d911607e8d759b67b1a1a21f6cf8d68525b8adecb497abd058e4012103637baf7c546661a2a3baf27c4e648d59f75fd2d2950ebb446bbdf136025f6d40"
          },
          "sequence": 4294967295
        }
      ],
      "vout": [
        {
          "value": 0.37735600,
          "n": 0,
          "scriptPubKey": {
            "asm": "OP_DUP OP_HASH160 757b54b3d4ca97d9944025666adf6a991504023c OP_EQUALVERIFY OP_CHECKSIG",
            "hex": "76a914757b54b3d4ca97d9944025666adf6a991504023c88ac",
            "reqSigs": 1,
            "type": "pubkeyhash",
            "addresses": [
              "LVw94qTA9GQ4zPjXtNZebY7w87gZkYwiT7"
            ]
          }
        }, 
        {
          "value": 0.01201800,
          "n": 1,
          "scriptPubKey": {
            "asm": "OP_DUP OP_HASH160 46bdd34629ef50afd4fca90d8268b07b6b63b77e OP_EQUALVERIFY OP_CHECKSIG",
            "hex": "76a91446bdd34629ef50afd4fca90d8268b07b6b63b77e88ac",
            "reqSigs": 1,
            "type": "pubkeyhash",
            "addresses": [
              "LRfzxw6T8ifyL82AZ9iVoyX9j5kR21mBti"
            ]
          }
        }
      ],
      "hex": "01000000012d105a0bb38bef1994a4c7ea756f57d4a102700a89af2e34ed02dc855dae65f51c0000006b483045022100bcfa7162bc2aa0f815b43c3ca337afa4a8bc6e95d376b016f1e62ecf569c18b0022061dffd2f8956d911607e8d759b67b1a1a21f6cf8d68525b8adecb497abd058e4012103637baf7c546661a2a3baf27c4e648d59f75fd2d2950ebb446bbdf136025f6d40ffffffff02b0cc3f02000000001976a914757b54b3d4ca97d9944025666adf6a991504023c88ac88561200000000001976a91446bdd34629ef50afd4fca90d8268b07b6b63b77e88ac00000000"
    }, 
    {
      "txid": "303f10b830a54502cdb309de1aa55aa5e632eb2f59d5e2d3687f0680044c5ee8",
      "hash": "303f10b830a54502cdb309de1aa55aa5e632eb2f59d5e2d3687f0680044c5ee8",
      "version": 1,
      "size": 191,
      "vsize": 191,
      "locktime": 0,
      "vin": [
        {
          "txid": "19cb69835ecb03187ca9dd8e607e439ec4e5d1e4439e2393160406770c33b82d",
          "vout": 0,
          "scriptSig": {
            "asm": "304402201b81eabc70c30abfe1c5c82152f74c4a68012443c5dd1074e4f4e6c2a494d28b02204c7b0536f4ab29508d8c2b9f22d89db04147e2362698e8ae00605cf57b63c21f[ALL] 02bc23ea310cdc0fbec58f19a977e0ead17cd4fb622197dff450b3cc22c851382f",
            "hex": "47304402201b81eabc70c30abfe1c5c82152f74c4a68012443c5dd1074e4f4e6c2a494d28b02204c7b0536f4ab29508d8c2b9f22d89db04147e2362698e8ae00605cf57b63c21f012102bc23ea310cdc0fbec58f19a977e0ead17cd4fb622197dff450b3cc22c851382f"
          },
          "sequence": 4294967295
        }
      ],
      "vout": [
        {
          "value": 0.37635600,
          "n": 0,
          "scriptPubKey": {
            "asm": "OP_DUP OP_HASH160 a497fd8a09ef39918dc055aba0630927a0bcead7 OP_EQUALVERIFY OP_CHECKSIG",
            "hex": "76a914a497fd8a09ef39918dc055aba0630927a0bcead788ac",
            "reqSigs": 1,
            "type": "pubkeyhash",
            "addresses": [
              "LaEFA9gRZEa7WeeU8x5TSNBPUT8f73qGFN"
            ]
          }
        }
      ],
      "hex": "01000000012db8330c7706041693239e43e4d1e5c49e437e608edda97c1803cb5e8369cb19000000006a47304402201b81eabc70c30abfe1c5c82152f74c4a68012443c5dd1074e4f4e6c2a494d28b02204c7b0536f4ab29508d8c2b9f22d89db04147e2362698e8ae00605cf57b63c21f012102bc23ea310cdc0fbec58f19a977e0ead17cd4fb622197dff450b3cc22c851382fffffffff0110463e02000000001976a914a497fd8a09ef39918dc055aba0630927a0bcead788ac00000000"
    }, 
    {
      "txid": "002b120de5c7e3eb0ee267f0734af1a28c5dc7b0fe7896774fbbdf2ba277b912",
      "hash": "002b120de5c7e3eb0ee267f0734af1a28c5dc7b0fe7896774fbbdf2ba277b912",
      "version": 2,
      "size": 668,
      "vsize": 668,
      "locktime": 1358562,
      "vin": [
        {
          "txid": "ab465b854c0c93e72acbb198a9e68c004e0b80b22709a680b8be69d3a9e4e610",
          "vout": 0,
          "scriptSig": {
            "asm": "3045022100d01acaf793e2d2ece950889eca80d6960c7ee2025fe2cbf3231274d42889ebc90220125eca2b852f465f941767ad80a9504149aa991eaa27296d433a2a8ee2402721[ALL] 02193e0d9c036e8496393df0aac123de0d1394020e772fc2ffecded8b63d3a312d",
            "hex": "483045022100d01acaf793e2d2ece950889eca80d6960c7ee2025fe2cbf3231274d42889ebc90220125eca2b852f465f941767ad80a9504149aa991eaa27296d433a2a8ee2402721012102193e0d9c036e8496393df0aac123de0d1394020e772fc2ffecded8b63d3a312d"
          },
          "sequence": 4294967294
        }, 
        {
          "txid": "544ce915e701160ea6ee3b2fd3a21861002d69df369ed6813bc195a5ab585a71",
          "vout": 0,
          "scriptSig": {
            "asm": "3045022100d3b8e70f86a9008e4e303d3801b38282d149c486221cadb0783c83a9925dddd102205468546a2514533345412e47fdbce1d79cca847c3396343d30c08ad7923df1da[ALL] 0392ecc0e3e633a57f51a6d9e47ba119240dda08e5e4c9a12a34eb5098088cc0e9",
            "hex": "483045022100d3b8e70f86a9008e4e303d3801b38282d149c486221cadb0783c83a9925dddd102205468546a2514533345412e47fdbce1d79cca847c3396343d30c08ad7923df1da01210392ecc0e3e633a57f51a6d9e47ba119240dda08e5e4c9a12a34eb5098088cc0e9"
          },
          "sequence": 4294967294
        }, 
        {
          "txid": "865ada4b62e24c8fa1e6d60ee5544cd1e21ffddb8967a35684fb2a70b56cb770",
          "vout": 1,
          "scriptSig": {
            "asm": "3044022013bd3473079e2ae81a2fe81b4a7ad4e45c8ac75a99877357930a11dcbeb17d38022069634e556280603fee42e2291e689c87298c9209388d1d2d695b9bf72ffa7bc9[ALL] 0392ecc0e3e633a57f51a6d9e47ba119240dda08e5e4c9a12a34eb5098088cc0e9",
            "hex": "473044022013bd3473079e2ae81a2fe81b4a7ad4e45c8ac75a99877357930a11dcbeb17d38022069634e556280603fee42e2291e689c87298c9209388d1d2d695b9bf72ffa7bc901210392ecc0e3e633a57f51a6d9e47ba119240dda08e5e4c9a12a34eb5098088cc0e9"
          },
          "sequence": 4294967294
        }, 
        {
          "txid": "d3909ad9ac630bd1af42370ec5c89a5acb613c1956a75f24f948e2e3ce54bddf",
          "vout": 0,
          "scriptSig": {
            "asm": "304402201b21b1515a23d86fc6a286c9b3163de33aec0e252936f0933fa00796da40065c022046084c18270c07ef273af7bf3945fca8947794c032f5ea8206d46f39f05c8d60[ALL] 0392ecc0e3e633a57f51a6d9e47ba119240dda08e5e4c9a12a34eb5098088cc0e9",
            "hex": "47304402201b21b1515a23d86fc6a286c9b3163de33aec0e252936f0933fa00796da40065c022046084c18270c07ef273af7bf3945fca8947794c032f5ea8206d46f39f05c8d6001210392ecc0e3e633a57f51a6d9e47ba119240dda08e5e4c9a12a34eb5098088cc0e9"
          },
          "sequence": 4294967294
        }
      ],
      "vout": [
        {
          "value": 30.00000000,
          "n": 0,
          "scriptPubKey": {
            "asm": "OP_DUP OP_HASH160 132f59ae1304f7e39e951ee573e015c760f585a3 OP_EQUALVERIFY OP_CHECKSIG",
            "hex": "76a914132f59ae1304f7e39e951ee573e015c760f585a388ac",
            "reqSigs": 1,
            "type": "pubkeyhash",
            "addresses": [
              "LLyPppEVy49ZhbHyRN66GoJG9NP4Xr7bWw"
            ]
          }
        }, 
        {
          "value": 0.10302500,
          "n": 1,
          "scriptPubKey": {
            "asm": "OP_DUP OP_HASH160 c4bedc4b2199a5572259b81abcc114ebcd75d44e OP_EQUALVERIFY OP_CHECKSIG",
            "hex": "76a914c4bedc4b2199a5572259b81abcc114ebcd75d44e88ac",
            "reqSigs": 1,
            "type": "pubkeyhash",
            "addresses": [
              "LdAFM2tEXuKZfRLfrABTTEMRzAzEzCcVvD"
            ]
          }
        }
      ],
      "hex": "020000000410e6e4a9d369beb880a60927b2800b4e008ce6a998b1cb2ae7930c4c855b46ab000000006b483045022100d01acaf793e2d2ece950889eca80d6960c7ee2025fe2cbf3231274d42889ebc90220125eca2b852f465f941767ad80a9504149aa991eaa27296d433a2a8ee2402721012102193e0d9c036e8496393df0aac123de0d1394020e772fc2ffecded8b63d3a312dfeffffff715a58aba595c13b81d69e36df692d006118a2d32f3beea60e1601e715e94c54000000006b483045022100d3b8e70f86a9008e4e303d3801b38282d149c486221cadb0783c83a9925dddd102205468546a2514533345412e47fdbce1d79cca847c3396343d30c08ad7923df1da01210392ecc0e3e633a57f51a6d9e47ba119240dda08e5e4c9a12a34eb5098088cc0e9feffffff70b76cb5702afb8456a36789dbfd1fe2d14c54e50ed6e6a18f4ce2624bda5a86010000006a473044022013bd3473079e2ae81a2fe81b4a7ad4e45c8ac75a99877357930a11dcbeb17d38022069634e556280603fee42e2291e689c87298c9209388d1d2d695b9bf72ffa7bc901210392ecc0e3e633a57f51a6d9e47ba119240dda08e5e4c9a12a34eb5098088cc0e9feffffffdfbd54cee3e248f9245fa756193c61cb5a9ac8c50e3742afd10b63acd99a90d3000000006a47304402201b21b1515a23d86fc6a286c9b3163de33aec0e252936f0933fa00796da40065c022046084c18270c07ef273af7bf3945fca8947794c032f5ea8206d46f39f05c8d6001210392ecc0e3e633a57f51a6d9e47ba119240dda08e5e4c9a12a34eb5098088cc0e9feffffff02005ed0b2000000001976a914132f59ae1304f7e39e951ee573e015c760f585a388ac24349d00000000001976a914c4bedc4b2199a5572259b81abcc114ebcd75d44e88ace2ba1400"
    }, 
    {
      "txid": "4c2035d82857fb0752b3d27f46a80fb861f36c09e5b834d6d10f64475d5fbc6e",
      "hash": "4c2035d82857fb0752b3d27f46a80fb861f36c09e5b834d6d10f64475d5fbc6e",
      "version": 2,
      "size": 225,
      "vsize": 225,
      "locktime": 1358562,
      "vin": [
        {
          "txid": "7afa99dbde3d8e9a31b9c324864373cee15090edfaae8ffd14ddffab112ce10a",
          "vout": 0,
          "scriptSig": {
            "asm": "304402207f6d150efc2767524e3994da3784818a213fcfa7548799fffa2483c8894169110220541021618b186cb5b8efdb5340196e92acc1d0d586c591d73ea65b251b52c9de[ALL] 024b751cba2c39106077a333e6d80b966b7d2401ae9f1e0e857653092fedfe1196",
            "hex": "47304402207f6d150efc2767524e3994da3784818a213fcfa7548799fffa2483c8894169110220541021618b186cb5b8efdb5340196e92acc1d0d586c591d73ea65b251b52c9de0121024b751cba2c39106077a333e6d80b966b7d2401ae9f1e0e857653092fedfe1196"
          },
          "sequence": 4294967294
        }
      ],
      "vout": [
        {
          "value": 0.10243579,
          "n": 0,
          "scriptPubKey": {
            "asm": "OP_DUP OP_HASH160 c62a1329235e64a9e8533816466266aa3acd2ac6 OP_EQUALVERIFY OP_CHECKSIG",
            "hex": "76a914c62a1329235e64a9e8533816466266aa3acd2ac688ac",
            "reqSigs": 1,
            "type": "pubkeyhash",
            "addresses": [
              "LdHkTcAGVPmkwhdhnMKz9b5PSpRNwhEN1T"
            ]
          }
        }, 
        {
          "value": 10.06451741,
          "n": 1,
          "scriptPubKey": {
            "asm": "OP_DUP OP_HASH160 c626267a17d8c262940faed10cba01de1efadb5d OP_EQUALVERIFY OP_CHECKSIG",
            "hex": "76a914c626267a17d8c262940faed10cba01de1efadb5d88ac",
            "reqSigs": 1,
            "type": "pubkeyhash",
            "addresses": [
              "LdHfkvbEJJvFqyDyDKSHdzfW64K6zMJmZG"
            ]
          }
        }
      ],
      "hex": "02000000010ae12c11abffdd14fd8faefaed9050e1ce73438624c3b9319a8e3ddedb99fa7a000000006a47304402207f6d150efc2767524e3994da3784818a213fcfa7548799fffa2483c8894169110220541021618b186cb5b8efdb5340196e92acc1d0d586c591d73ea65b251b52c9de0121024b751cba2c39106077a333e6d80b966b7d2401ae9f1e0e857653092fedfe1196feffffff02fb4d9c00000000001976a914c62a1329235e64a9e8533816466266aa3acd2ac688ac1d3cfd3b000000001976a914c626267a17d8c262940faed10cba01de1efadb5d88ace2ba1400"
    }, 
    {
      "txid": "bc619b7cad6ba606ef439e96cb4552f3f48222c88ffb05bd2eb25c5f4e27507d",
      "hash": "bc619b7cad6ba606ef439e96cb4552f3f48222c88ffb05bd2eb25c5f4e27507d",
      "version": 1,
      "size": 225,
      "vsize": 225,
      "locktime": 0,
      "vin": [
        {
          "txid": "b783b13fe5fbef6e8ed00fae6db02b917366394f12b55eea6e06ee52a623a2db",
          "vout": 0,
          "scriptSig": {
            "asm": "3044022009038b8b60eac6731ebc1a395dac64bcc8fd6539d9283fedc5ab6d153edc613b022030092b8a6b7ba746e00eca4d4adb0fedbaed736ace6fed9cc15d28f65e1c85d2[ALL] 02abdb7b5ad66d13c6d4523b639bc56ad5816fb2566f6c6325b2c0c5b789c64980",
            "hex": "473044022009038b8b60eac6731ebc1a395dac64bcc8fd6539d9283fedc5ab6d153edc613b022030092b8a6b7ba746e00eca4d4adb0fedbaed736ace6fed9cc15d28f65e1c85d2012102abdb7b5ad66d13c6d4523b639bc56ad5816fb2566f6c6325b2c0c5b789c64980"
          },
          "sequence": 4294967295
        }
      ],
      "vout": [
        {
          "value": 0.50000000,
          "n": 0,
          "scriptPubKey": {
            "asm": "OP_DUP OP_HASH160 4a908948ed3379aa091f1521a4a1eb4c3233ea23 OP_EQUALVERIFY OP_CHECKSIG",
            "hex": "76a9144a908948ed3379aa091f1521a4a1eb4c3233ea2388ac",
            "reqSigs": 1,
            "type": "pubkeyhash",
            "addresses": [
              "LS2DQxtowRUXSYiL73UeZkNHVUmPR7nBGe"
            ]
          }
        }, 
        {
          "value": 0.00984081,
          "n": 1,
          "scriptPubKey": {
            "asm": "OP_DUP OP_HASH160 769baebb286de5c210524c9b073b74ab55cacdcc OP_EQUALVERIFY OP_CHECKSIG",
            "hex": "76a914769baebb286de5c210524c9b073b74ab55cacdcc88ac",
            "reqSigs": 1,
            "type": "pubkeyhash",
            "addresses": [
              "LW36VrwAiNQwYpyMKRW9eAD88DcE9kNUc3"
            ]
          }
        }
      ],
      "hex": "0100000001dba223a652ee066eea5eb5124f396673912bb06dae0fd08e6eeffbe53fb183b7000000006a473044022009038b8b60eac6731ebc1a395dac64bcc8fd6539d9283fedc5ab6d153edc613b022030092b8a6b7ba746e00eca4d4adb0fedbaed736ace6fed9cc15d28f65e1c85d2012102abdb7b5ad66d13c6d4523b639bc56ad5816fb2566f6c6325b2c0c5b789c64980ffffffff0280f0fa02000000001976a9144a908948ed3379aa091f1521a4a1eb4c3233ea2388ac11040f00000000001976a914769baebb286de5c210524c9b073b74ab55cacdcc88ac00000000"
    }, 
    {
      "txid": "6bd9edcdf580c09f312ecc16ed6e6da0ccdadb89bc89b4122147d2210200e8bd",
      "hash": "6bd9edcdf580c09f312ecc16ed6e6da0ccdadb89bc89b4122147d2210200e8bd",
      "version": 1,
      "size": 225,
      "vsize": 225,
      "locktime": 0,
      "vin": [
        {
          "txid": "efab6a7185efa7b8ba127eb25922306838c23f9199c6607db593c1eaae2c4891",
          "vout": 0,
          "scriptSig": {
            "asm": "3044022033edb49eef46bdc47e92c525db2d5faf1a9e0c501f728943f931195f3c35a5f90220017a539b2dfd6d5481e29a596298085f9350914186f3091bc91d23f6a61b7d6c[ALL] 02ad1458ae376117c10225fc1f5bfb20580afa353781faf8ba238b798836fc01d1",
            "hex": "473044022033edb49eef46bdc47e92c525db2d5faf1a9e0c501f728943f931195f3c35a5f90220017a539b2dfd6d5481e29a596298085f9350914186f3091bc91d23f6a61b7d6c012102ad1458ae376117c10225fc1f5bfb20580afa353781faf8ba238b798836fc01d1"
          },
          "sequence": 4294967295
        }
      ],
      "vout": [
        {
          "value": 1.99977400,
          "n": 0,
          "scriptPubKey": {
            "asm": "OP_DUP OP_HASH160 297083cb42ac854d93e74ea148da95e4aed52f61 OP_EQUALVERIFY OP_CHECKSIG",
            "hex": "76a914297083cb42ac854d93e74ea148da95e4aed52f6188ac",
            "reqSigs": 1,
            "type": "pubkeyhash",
            "addresses": [
              "LP14kk9qv7CvsYjcc1YRKpnNnBoxsDdGAK"
            ]
          }
        }, 
        {
          "value": 2.00516937,
          "n": 1,
          "scriptPubKey": {
            "asm": "OP_DUP OP_HASH160 755727c89defaaecd04d23b96c1a1a5a09d37f82 OP_EQUALVERIFY OP_CHECKSIG",
            "hex": "76a914755727c89defaaecd04d23b96c1a1a5a09d37f8288ac",
            "reqSigs": 1,
            "type": "pubkeyhash",
            "addresses": [
              "LVvPjKZf5E1bqXVKPttoRFCyBWNp2U2a37"
            ]
          }
        }
      ],
      "hex": "010000000191482caeeac193b57d60c699913fc23868302259b27e12bab8a7ef85716aabef000000006a473044022033edb49eef46bdc47e92c525db2d5faf1a9e0c501f728943f931195f3c35a5f90220017a539b2dfd6d5481e29a596298085f9350914186f3091bc91d23f6a61b7d6c012102ad1458ae376117c10225fc1f5bfb20580afa353781faf8ba238b798836fc01d1ffffffff02b869eb0b000000001976a914297083cb42ac854d93e74ea148da95e4aed52f6188ac49a5f30b000000001976a914755727c89defaaecd04d23b96c1a1a5a09d37f8288ac00000000"
    }, 
    {
      "txid": "2a76c0710836a9df73182e108bb8f7d0ee7cf016387a6b9dea0970d43f03d544",
      "hash": "2a76c0710836a9df73182e108bb8f7d0ee7cf016387a6b9dea0970d43f03d544",
      "version": 1,
      "size": 522,
      "vsize": 522,
      "locktime": 1358562,
      "vin": [
        {
          "txid": "e7c6c794460b18300c22151ec91ccf0d9a18552885f36a89edb250dc853d8249",
          "vout": 0,
          "scriptSig": {
            "asm": "30450221008e14daf8601f4d21fb4b7797e6458733efaf67609064bcdc0ecb168f956d9a9102203178f4d5bb8d6be638a0abdd6c7310ee0a99645e1d7759f4e7a099614447111d[ALL] 029ad83caebd8e2a73eb069b23348d44ce6b8adf4b7ddb60ec445c6fd627a35a0a",
            "hex": "4830450221008e14daf8601f4d21fb4b7797e6458733efaf67609064bcdc0ecb168f956d9a9102203178f4d5bb8d6be638a0abdd6c7310ee0a99645e1d7759f4e7a099614447111d0121029ad83caebd8e2a73eb069b23348d44ce6b8adf4b7ddb60ec445c6fd627a35a0a"
          },
          "sequence": 4294967294
        }, 
        {
          "txid": "ff2f148c09c5de21dd29eba7a7ca17a27ceb939bcabd6cf44a31a347562902d0",
          "vout": 1,
          "scriptSig": {
            "asm": "3045022100bb65af89d9bb7d5a9499f6dc836001436f15b676e6d0fb5953a9109f6fb328c00220456c06464861a0d438898835e66b3e3f1a13fa45b03599cfe545cbc50f1c1be9[ALL] 02f9eb4e5478c1d9a88207ccef529a9201ec8e03043bc0130f9e00c844f65650fe",
            "hex": "483045022100bb65af89d9bb7d5a9499f6dc836001436f15b676e6d0fb5953a9109f6fb328c00220456c06464861a0d438898835e66b3e3f1a13fa45b03599cfe545cbc50f1c1be9012102f9eb4e5478c1d9a88207ccef529a9201ec8e03043bc0130f9e00c844f65650fe"
          },
          "sequence": 4294967294
        }, 
        {
          "txid": "b2010cb1f54d5e19c70886382920d8d83ef3b6c4e975578c26c8e23d039abcc2",
          "vout": 0,
          "scriptSig": {
            "asm": "3045022100c074eef2ade8113fdd26bfd8be5408dadee0eef84d7f9c0952adbda9f61bb798022056cdb6138a88c399b00010d83fb0694caff732505366e77d94c79335159020ce[ALL] 033ed2b2a832726ebabbb6509bbe6e6cc0e07b40180c68000f3c3bda45ed808bd3",
            "hex": "483045022100c074eef2ade8113fdd26bfd8be5408dadee0eef84d7f9c0952adbda9f61bb798022056cdb6138a88c399b00010d83fb0694caff732505366e77d94c79335159020ce0121033ed2b2a832726ebabbb6509bbe6e6cc0e07b40180c68000f3c3bda45ed808bd3"
          },
          "sequence": 4294967294
        }
      ],
      "vout": [
        {
          "value": 0.02192152,
          "n": 0,
          "scriptPubKey": {
            "asm": "OP_DUP OP_HASH160 6f931d38800caa0ce61735df5e798b9110df24e2 OP_EQUALVERIFY OP_CHECKSIG",
            "hex": "76a9146f931d38800caa0ce61735df5e798b9110df24e288ac",
            "reqSigs": 1,
            "type": "pubkeyhash",
            "addresses": [
              "LVPuWBAYtkojdaddEuG33FELAHmfCMbTg4"
            ]
          }
        }, 
        {
          "value": 0.01000000,
          "n": 1,
          "scriptPubKey": {
            "asm": "OP_DUP OP_HASH160 294f0e74469c99e12d0ab7e6543123ca71d96d5b OP_EQUALVERIFY OP_CHECKSIG",
            "hex": "76a914294f0e74469c99e12d0ab7e6543123ca71d96d5b88ac",
            "reqSigs": 1,
            "type": "pubkeyhash",
            "addresses": [
              "LNzNg1xWnq7kcF9LeurKyKPGKfVm2Q2q3C"
            ]
          }
        }
      ],
      "hex": "010000000349823d85dc50b2ed896af3852855189a0dcf1cc91e15220c30180b4694c7c6e7000000006b4830450221008e14daf8601f4d21fb4b7797e6458733efaf67609064bcdc0ecb168f956d9a9102203178f4d5bb8d6be638a0abdd6c7310ee0a99645e1d7759f4e7a099614447111d0121029ad83caebd8e2a73eb069b23348d44ce6b8adf4b7ddb60ec445c6fd627a35a0afeffffffd002295647a3314af46cbdca9b93eb7ca217caa7a7eb29dd21dec5098c142fff010000006b483045022100bb65af89d9bb7d5a9499f6dc836001436f15b676e6d0fb5953a9109f6fb328c00220456c06464861a0d438898835e66b3e3f1a13fa45b03599cfe545cbc50f1c1be9012102f9eb4e5478c1d9a88207ccef529a9201ec8e03043bc0130f9e00c844f65650fefeffffffc2bc9a033de2c8268c5775e9c4b6f33ed8d82029388608c7195e4df5b10c01b2000000006b483045022100c074eef2ade8113fdd26bfd8be5408dadee0eef84d7f9c0952adbda9f61bb798022056cdb6138a88c399b00010d83fb0694caff732505366e77d94c79335159020ce0121033ed2b2a832726ebabbb6509bbe6e6cc0e07b40180c68000f3c3bda45ed808bd3feffffff0218732100000000001976a9146f931d38800caa0ce61735df5e798b9110df24e288ac40420f00000000001976a914294f0e74469c99e12d0ab7e6543123ca71d96d5b88ace2ba1400"
    }, 
    {
      "txid": "cd21fc2d1c3c3a8e4b752d01bd491fbac50b2d43ab90fd6b6a3b6e6a3383d382",
      "hash": "cd21fc2d1c3c3a8e4b752d01bd491fbac50b2d43ab90fd6b6a3b6e6a3383d382",
      "version": 1,
      "size": 226,
      "vsize": 226,
      "locktime": 0,
      "vin": [
        {
          "txid": "88737087e7be09879ac4ccf6ee369071008e8d374517fcc084cf70ed75a981cc",
          "vout": 0,
          "scriptSig": {
            "asm": "3045022100c3297fd29d0e5920f29270394b98983f70d475cbf002835f404e3ff685af36f802207b992553949548bd8aece42728a6dff7f9e73bc2ff12497eec7f56acaddc9922[ALL] 022382c5e135b65257bb420b5ba2b84046dec2184b63895afd3d3ff218ec69f94f",
            "hex": "483045022100c3297fd29d0e5920f29270394b98983f70d475cbf002835f404e3ff685af36f802207b992553949548bd8aece42728a6dff7f9e73bc2ff12497eec7f56acaddc99220121022382c5e135b65257bb420b5ba2b84046dec2184b63895afd3d3ff218ec69f94f"
          },
          "sequence": 4294967295
        }
      ],
      "vout": [
        {
          "value": 0.00058088,
          "n": 0,
          "scriptPubKey": {
            "asm": "OP_DUP OP_HASH160 265a2873441577c2354a9d967a906a965937eddf OP_EQUALVERIFY OP_CHECKSIG",
            "hex": "76a914265a2873441577c2354a9d967a906a965937eddf88ac",
            "reqSigs": 1,
            "type": "pubkeyhash",
            "addresses": [
              "LNijwnpeTaLuDamEHRq8kvk6ynS1wfXNRX"
            ]
          }
        }, 
        {
          "value": 0.00954000,
          "n": 1,
          "scriptPubKey": {
            "asm": "OP_DUP OP_HASH160 a8b5a427487eb2b13c9bc643ff9170fa0d47e516 OP_EQUALVERIFY OP_CHECKSIG",
            "hex": "76a914a8b5a427487eb2b13c9bc643ff9170fa0d47e51688ac",
            "reqSigs": 1,
            "type": "pubkeyhash",
            "addresses": [
              "Lac1P6Qe79Gt7KhyqZpYJ8gLo2axtui8KN"
            ]
          }
        }
      ],
      "hex": "0100000001cc81a975ed70cf84c0fc1745378d8e00719036eef6ccc49a8709bee787707388000000006b483045022100c3297fd29d0e5920f29270394b98983f70d475cbf002835f404e3ff685af36f802207b992553949548bd8aece42728a6dff7f9e73bc2ff12497eec7f56acaddc99220121022382c5e135b65257bb420b5ba2b84046dec2184b63895afd3d3ff218ec69f94fffffffff02e8e20000000000001976a914265a2873441577c2354a9d967a906a965937eddf88ac908e0e00000000001976a914a8b5a427487eb2b13c9bc643ff9170fa0d47e51688ac00000000"
    }, 
    {
      "txid": "48816ead02f06063cac1edc5618155def982174ef7edfca5bae3debe4763ed9b",
      "hash": "48816ead02f06063cac1edc5618155def982174ef7edfca5bae3debe4763ed9b",
      "version": 1,
      "size": 226,
      "vsize": 226,
      "locktime": 0,
      "vin": [
        {
          "txid": "5ea5cc20813d5ca94bcebe695cc7072bdbca117c52e1fa9838ddebf7731cda74",
          "vout": 0,
          "scriptSig": {
            "asm": "3045022100faf41cdbfe280ead1461cf67f4a1ed5580eee10c601feba2f12592e54a492aac02206aa1290b637464390eca121a4eabcac59db64f17900c878342199e81b5559466[ALL] 031bc4e01c87e2fd465aecef5bc1b93f549ed7ce698c8781aad22f890ca6f2fc99",
            "hex": "483045022100faf41cdbfe280ead1461cf67f4a1ed5580eee10c601feba2f12592e54a492aac02206aa1290b637464390eca121a4eabcac59db64f17900c878342199e81b55594660121031bc4e01c87e2fd465aecef5bc1b93f549ed7ce698c8781aad22f890ca6f2fc99"
          },
          "sequence": 4294967295
        }
      ],
      "vout": [
        {
          "value": 6.15468697,
          "n": 0,
          "scriptPubKey": {
            "asm": "OP_DUP OP_HASH160 2c8455dfdc3b6984e24bbdbcc9cc737f34e69021 OP_EQUALVERIFY OP_CHECKSIG",
            "hex": "76a9142c8455dfdc3b6984e24bbdbcc9cc737f34e6902188ac",
            "reqSigs": 1,
            "type": "pubkeyhash",
            "addresses": [
              "LPHLXUtPpLoXNCcGWPXXXx85CNJJCzzffr"
            ]
          }
        }, 
        {
          "value": 14.70058503,
          "n": 1,
          "scriptPubKey": {
            "asm": "OP_DUP OP_HASH160 a0af200478cc3ddeebbc1037a54c6b8d574f5915 OP_EQUALVERIFY OP_CHECKSIG",
            "hex": "76a914a0af200478cc3ddeebbc1037a54c6b8d574f591588ac",
            "reqSigs": 1,
            "type": "pubkeyhash",
            "addresses": [
              "LZsaAosXMa35oSBhA2mQZYZrgiq6M9g3jG"
            ]
          }
        }
      ],
      "hex": "010000000174da1c73f7ebdd3898fae1527c11cadb2b07c75c69bece4ba95c3d8120cca55e000000006b483045022100faf41cdbfe280ead1461cf67f4a1ed5580eee10c601feba2f12592e54a492aac02206aa1290b637464390eca121a4eabcac59db64f17900c878342199e81b55594660121031bc4e01c87e2fd465aecef5bc1b93f549ed7ce698c8781aad22f890ca6f2fc99ffffffff02994eaf24000000001976a9142c8455dfdc3b6984e24bbdbcc9cc737f34e6902188ac07509f57000000001976a914a0af200478cc3ddeebbc1037a54c6b8d574f591588ac00000000"
    }, 
    {
      "txid": "ff594e61f179b6a527f7cf25ed62d952ec94b80ae3b9acd5fa8af52c8e3d42de",
      "hash": "ff594e61f179b6a527f7cf25ed62d952ec94b80ae3b9acd5fa8af52c8e3d42de",
      "version": 2,
      "size": 226,
      "vsize": 226,
      "locktime": 1358562,
      "vin": [
        {
          "txid": "de4144d67142741ddc857f130e66cf093c0da9cd827f73572f8dbab8a8328f5c",
          "vout": 0,
          "scriptSig": {
            "asm": "3045022100a76da7cc93b23896b05faea6ec6968de5168f994eb8afccc06a21dba13f1540b0220162bde368064fb7d92cbd8e650faa9b34b11b4c33e8345f8808bc5138a6c999d[ALL] 0377359cf545ec974216e38f886b5ef13dc665a477a3a294cbfb916197a0bd7128",
            "hex": "483045022100a76da7cc93b23896b05faea6ec6968de5168f994eb8afccc06a21dba13f1540b0220162bde368064fb7d92cbd8e650faa9b34b11b4c33e8345f8808bc5138a6c999d01210377359cf545ec974216e38f886b5ef13dc665a477a3a294cbfb916197a0bd7128"
          },
          "sequence": 4294967294
        }
      ],
      "vout": [
        {
          "value": 0.55757038,
          "n": 0,
          "scriptPubKey": {
            "asm": "OP_DUP OP_HASH160 3eff787362ea67291416ffdaaabdd5f26dd0cb41 OP_EQUALVERIFY OP_CHECKSIG",
            "hex": "76a9143eff787362ea67291416ffdaaabdd5f26dd0cb4188ac",
            "reqSigs": 1,
            "type": "pubkeyhash",
            "addresses": [
              "LQy4CWTjpkoih6cnUb9K6UpQo1RsLdqHJh"
            ]
          }
        }, 
        {
          "value": 0.04220362,
          "n": 1,
          "scriptPubKey": {
            "asm": "OP_DUP OP_HASH160 59b8dca36d4204b28d9d7936b49c1dc0d09c28cc OP_EQUALVERIFY OP_CHECKSIG",
            "hex": "76a91459b8dca36d4204b28d9d7936b49c1dc0d09c28cc88ac",
            "reqSigs": 1,
            "type": "pubkeyhash",
            "addresses": [
              "LTQMriMFzbdSGVTL7jG9C2rtudzRPpCiGc"
            ]
          }
        }
      ],
      "hex": "02000000015c8f32a8b8ba8d2f57737f82cda90d3c09cf660e137f85dc1d744271d64441de000000006b483045022100a76da7cc93b23896b05faea6ec6968de5168f994eb8afccc06a21dba13f1540b0220162bde368064fb7d92cbd8e650faa9b34b11b4c33e8345f8808bc5138a6c999d01210377359cf545ec974216e38f886b5ef13dc665a477a3a294cbfb916197a0bd7128feffffff02eec85203000000001976a9143eff787362ea67291416ffdaaabdd5f26dd0cb4188acca654000000000001976a91459b8dca36d4204b28d9d7936b49c1dc0d09c28cc88ace2ba1400"
    }
  ],
  "time": 1517158316,
  "mediantime": 1517158168,
  "nonce": 84748308,
  "bits": "1a047f14",
  "difficulty": 3731199.183374282,
  "chainwork": "00000000000000000000000000000000000000000000003333f147ac82ebba42",
  "previousblockhash": "3010600a0f060b1a737af67470050179ffba8b34962519769f3777f12fc5f1a3",
  "nextblockhash": "8c654d456cbddcc2d729f7e60c1f31c77e0d6b312d018918b947dc5bc8ddaaf8"
}
