{
  "hash": "80c390c7f9acc06114e0afc10bfab686579f171c5393ee8fea59ce731fb247d3",
  "confirmations": 1651,
  "strippedsize": 4604,
  "size": 4640,
  "weight": 18452,
  "height": 1359343,
  "version": 536870912,
  "versionHex": "20000000",
  "merkleroot": "0e0a06d6bb3c5bac32f8ff0dbd21dd804908193776ca6a0f634334fcd03fb25b",
  "tx": [
    {
      "txid": "c157ff9be050409321e1f3b2afeffbb1c2e3c9ad8cdc4af082fcc9e40ea1a343",
      "hash": "7e8842eb4b73dc1d7268d77de6d6d9474ec8d1f758b9b86bd9b01de2429d982c",
      "version": 1,
      "size": 277,
      "vsize": 250,
      "locktime": 949365732,
      "vin": [
        {
          "coinbase": "03efbd142cfabe6d6d666b540206bddb53137e0aa73d6d8493bd7f72372e00355168a76f41d3186e9808000000f09f909f0e4d696e6564206279206475313233000000000000000000000000000000000000000000000000000000000000000000000000",
          "sequence": 27
        }
      ],
      "vout": [
        {
          "value": 25.00745261,
          "n": 0,
          "scriptPubKey": {
            "asm": "OP_DUP OP_HASH160 aa3750aa18b8a0f3f0590731e1fab934856680cf OP_EQUALVERIFY OP_CHECKSIG",
            "hex": "76a914aa3750aa18b8a0f3f0590731e1fab934856680cf88ac",
            "reqSigs": 1,
            "type": "pubkeyhash",
            "addresses": [
              "LajyQBeZaBA1NkZDeY8YT5RYYVRkXMvb2T"
            ]
          }
        }, 
        {
          "value": 0.00000000,
          "n": 1,
          "scriptPubKey": {
            "asm": "OP_RETURN aa21a9ed309e40a0942a158f56b034fb8b109365f70b143053f05b2ea8ed073fd158d356 0000000000000000",
            "hex": "6a24aa21a9ed309e40a0942a158f56b034fb8b109365f70b143053f05b2ea8ed073fd158d356080000000000000000",
            "type": "nulldata"
          }
        }
      ],
      "hex": "010000000001010000000000000000000000000000000000000000000000000000000000000000ffffffff6403efbd142cfabe6d6d666b540206bddb53137e0aa73d6d8493bd7f72372e00355168a76f41d3186e9808000000f09f909f0e4d696e65642062792064753132330000000000000000000000000000000000000000000000000000000000000000000000001b000000022d580e95000000001976a914aa3750aa18b8a0f3f0590731e1fab934856680cf88ac00000000000000002f6a24aa21a9ed309e40a0942a158f56b034fb8b109365f70b143053f05b2ea8ed073fd158d35608000000000000000001200000000000000000000000000000000000000000000000000000000000000000e42b9638"
    }, 
    {
      "txid": "aa46f2fe3973414e6bdc8bfe3ba32b6f8aa3ff49d182c13df8d232ed0117e513",
      "hash": "aa46f2fe3973414e6bdc8bfe3ba32b6f8aa3ff49d182c13df8d232ed0117e513",
      "version": 1,
      "size": 336,
      "vsize": 336,
      "locktime": 0,
      "vin": [
        {
          "txid": "b2705845c56e7204becd0a968e82b197462dd59b73ad1975140aaf6048d37cc7",
          "vout": 1,
          "scriptSig": {
            "asm": "0 304502210091bf7847feeb4f0412d05ee347427ac6211f6a440c1a07b36aa7892f5fc27d70022044c784ab08e1389e7ffa34aa2e19c24e6c5f94e2f9545ce6a7e4fc390d0e0375[ALL] 3045022100e617689320e84e206deeba4e960a5b590378980bce57eba2b4bcd698fa0b94f1022019d4e93f5980fbc79731fa43cbda8c2cdce9684e8251ea088338e73e565ebec5[ALL] 522102f77ec37a042ba4e5e6aef7760398bf59b87ac4c5dee30a2fb8798e9630d4916e210276b93401dc495b28592f66411a7c9093b468f8678db51144fc6a36f550d94aa952ae",
            "hex": "0048304502210091bf7847feeb4f0412d05ee347427ac6211f6a440c1a07b36aa7892f5fc27d70022044c784ab08e1389e7ffa34aa2e19c24e6c5f94e2f9545ce6a7e4fc390d0e037501483045022100e617689320e84e206deeba4e960a5b590378980bce57eba2b4bcd698fa0b94f1022019d4e93f5980fbc79731fa43cbda8c2cdce9684e8251ea088338e73e565ebec50147522102f77ec37a042ba4e5e6aef7760398bf59b87ac4c5dee30a2fb8798e9630d4916e210276b93401dc495b28592f66411a7c9093b468f8678db51144fc6a36f550d94aa952ae"
          },
          "sequence": 4294967295
        }
      ],
      "vout": [
        {
          "value": 0.06282000,
          "n": 0,
          "scriptPubKey": {
            "asm": "OP_DUP OP_HASH160 b85258a93ae6f2e74491963750a5684461322c8d OP_EQUALVERIFY OP_CHECKSIG",
            "hex": "76a914b85258a93ae6f2e74491963750a5684461322c8d88ac",
            "reqSigs": 1,
            "type": "pubkeyhash",
            "addresses": [
              "Lc2ZF2tCxkHcypQ9xfxpcsQSonbRWvP7Ze"
            ]
          }
        }, 
        {
          "value": 14.25502500,
          "n": 1,
          "scriptPubKey": {
            "asm": "OP_HASH160 75b77316f8d91ff71fb2819115d1b6b9e80ccee9 OP_EQUAL",
            "hex": "a91475b77316f8d91ff71fb2819115d1b6b9e80ccee987",
            "reqSigs": 1,
            "type": "scripthash",
            "addresses": [
              "MJdb4B3BMDrfpB1FpKsPYQ1tDHdkNa1oLB"
            ]
          }
        }
      ],
      "hex": "0100000001c77cd34860af0a147519ad739bd52d4697b1828e960acdbe04726ec5455870b201000000db0048304502210091bf7847feeb4f0412d05ee347427ac6211f6a440c1a07b36aa7892f5fc27d70022044c784ab08e1389e7ffa34aa2e19c24e6c5f94e2f9545ce6a7e4fc390d0e037501483045022100e617689320e84e206deeba4e960a5b590378980bce57eba2b4bcd698fa0b94f1022019d4e93f5980fbc79731fa43cbda8c2cdce9684e8251ea088338e73e565ebec50147522102f77ec37a042ba4e5e6aef7760398bf59b87ac4c5dee30a2fb8798e9630d4916e210276b93401dc495b28592f66411a7c9093b468f8678db51144fc6a36f550d94aa952aeffffffff0210db5f00000000001976a914b85258a93ae6f2e74491963750a5684461322c8d88ac2471f7540000000017a91475b77316f8d91ff71fb2819115d1b6b9e80ccee98700000000"
    }, 
    {
      "txid": "8808ac6d718f316002a122f611e5c86962eeabdf914a7c85db601e7b4d3037c2",
      "hash": "8808ac6d718f316002a122f611e5c86962eeabdf914a7c85db601e7b4d3037c2",
      "version": 1,
      "size": 191,
      "vsize": 191,
      "locktime": 0,
      "vin": [
        {
          "txid": "8367ee210e68fff6ed869b28171f106688886506bd4531efde3e8b75b4f039c4",
          "vout": 1,
          "scriptSig": {
            "asm": "304402205364f3d6ce3ecae734d152ed8810d7683e2f66fc4c96ed2cb0f7b7dc836928ea022025b420fa1a077660218f243d57c4568031fc0cad9d23a90fd8b86a22a57ac89b[ALL] 03c2b2779da0f2c6ae81c415967bcfba0bf898fb2d19ac23d67681c486fece3865",
            "hex": "47304402205364f3d6ce3ecae734d152ed8810d7683e2f66fc4c96ed2cb0f7b7dc836928ea022025b420fa1a077660218f243d57c4568031fc0cad9d23a90fd8b86a22a57ac89b012103c2b2779da0f2c6ae81c415967bcfba0bf898fb2d19ac23d67681c486fece3865"
          },
          "sequence": 4294967295
        }
      ],
      "vout": [
        {
          "value": 0.03200000,
          "n": 0,
          "scriptPubKey": {
            "asm": "OP_DUP OP_HASH160 42940cae48f32e26e17cd191c521934aab18c99d OP_EQUALVERIFY OP_CHECKSIG",
            "hex": "76a91442940cae48f32e26e17cd191c521934aab18c99d88ac",
            "reqSigs": 1,
            "type": "pubkeyhash",
            "addresses": [
              "LRHzDY2hyTmmdcR65YLuL6xCowVSehR7KX"
            ]
          }
        }
      ],
      "hex": "0100000001c439f0b4758b3edeef3145bd0665888866101f17289b86edf6ff680e21ee6783010000006a47304402205364f3d6ce3ecae734d152ed8810d7683e2f66fc4c96ed2cb0f7b7dc836928ea022025b420fa1a077660218f243d57c4568031fc0cad9d23a90fd8b86a22a57ac89b012103c2b2779da0f2c6ae81c415967bcfba0bf898fb2d19ac23d67681c486fece3865ffffffff0100d43000000000001976a91442940cae48f32e26e17cd191c521934aab18c99d88ac00000000"
    }, 
    {
      "txid": "c3175e9de321c689e977751ffdb7f80ff0b70207ba8aaf9223ef0a07d5ffce79",
      "hash": "c3175e9de321c689e977751ffdb7f80ff0b70207ba8aaf9223ef0a07d5ffce79",
      "version": 2,
      "size": 374,
      "vsize": 374,
      "locktime": 0,
      "vin": [
        {
          "txid": "8504706731168c496dce7a60da02dc0a805b5cb9ef4eee55614afa1526b733e3",
          "vout": 1,
          "scriptSig": {
            "asm": "3045022100e1f526706b5f8cece6289f32606955603df14cbb1dd930e129bc66d6d4ad0dbd02200d917e2691d8311107545da685cff853a0bcf120dc9c81d987e189883d6da110[ALL] 03c6daf7bfef34db46e36e730c54e566b84f704c05292ed9820bd57cee20a9b6b2",
            "hex": "483045022100e1f526706b5f8cece6289f32606955603df14cbb1dd930e129bc66d6d4ad0dbd02200d917e2691d8311107545da685cff853a0bcf120dc9c81d987e189883d6da110012103c6daf7bfef34db46e36e730c54e566b84f704c05292ed9820bd57cee20a9b6b2"
          },
          "sequence": 4294967295
        }, 
        {
          "txid": "3cede4ff8c3b1e77c7cd2dd81794248856f75ebd598711125c4b86d8265faf11",
          "vout": 0,
          "scriptSig": {
            "asm": "3045022100d2dc75b719e76f83aff2d8378d7c0864d1326843953416a02d523e7a3faa762702200227162ee951731673202fb60cf0fd9c51c5eb8556dc526b6a96b8ea10c1b1d6[ALL] 02cdd57c1a7d23fdef490cac31eb883e0d58625fb63e6161e0d61845dd399b582c",
            "hex": "483045022100d2dc75b719e76f83aff2d8378d7c0864d1326843953416a02d523e7a3faa762702200227162ee951731673202fb60cf0fd9c51c5eb8556dc526b6a96b8ea10c1b1d6012102cdd57c1a7d23fdef490cac31eb883e0d58625fb63e6161e0d61845dd399b582c"
          },
          "sequence": 4294967295
        }
      ],
      "vout": [
        {
          "value": 1.44596239,
          "n": 0,
          "scriptPubKey": {
            "asm": "OP_DUP OP_HASH160 10edf108a9803c6257b96ab5853619dcaea855be OP_EQUALVERIFY OP_CHECKSIG",
            "hex": "76a91410edf108a9803c6257b96ab5853619dcaea855be88ac",
            "reqSigs": 1,
            "type": "pubkeyhash",
            "addresses": [
              "LLmU7kU1CV6kYh3f3jBh5wtiWpGSsV7Na9"
            ]
          }
        }, 
        {
          "value": 0.55979291,
          "n": 1,
          "scriptPubKey": {
            "asm": "OP_DUP OP_HASH160 6365a2c16e930e741bc6cbd2d3fd14d9f5655cce OP_EQUALVERIFY OP_CHECKSIG",
            "hex": "76a9146365a2c16e930e741bc6cbd2d3fd14d9f5655cce88ac",
            "reqSigs": 1,
            "type": "pubkeyhash",
            "addresses": [
              "LUHWuyr3DRcuQRRtqsdUJGzTq7YqhkpMAP"
            ]
          }
        }
      ],
      "hex": "0200000002e333b72615fa4a6155ee4eefb95c5b800adc02da607ace6d498c163167700485010000006b483045022100e1f526706b5f8cece6289f32606955603df14cbb1dd930e129bc66d6d4ad0dbd02200d917e2691d8311107545da685cff853a0bcf120dc9c81d987e189883d6da110012103c6daf7bfef34db46e36e730c54e566b84f704c05292ed9820bd57cee20a9b6b2ffffffff11af5f26d8864b5c12118759bd5ef75688249417d82dcdc7771e3b8cffe4ed3c000000006b483045022100d2dc75b719e76f83aff2d8378d7c0864d1326843953416a02d523e7a3faa762702200227162ee951731673202fb60cf0fd9c51c5eb8556dc526b6a96b8ea10c1b1d6012102cdd57c1a7d23fdef490cac31eb883e0d58625fb63e6161e0d61845dd399b582cffffffff020f5d9e08000000001976a91410edf108a9803c6257b96ab5853619dcaea855be88ac1b2d5603000000001976a9146365a2c16e930e741bc6cbd2d3fd14d9f5655cce88ac00000000"
    }, 
    {
      "txid": "369eb044cb96c042f00061b3bf2867b43e0cd710a1d91cba9185caa4025017ab",
      "hash": "369eb044cb96c042f00061b3bf2867b43e0cd710a1d91cba9185caa4025017ab",
      "version": 1,
      "size": 225,
      "vsize": 225,
      "locktime": 0,
      "vin": [
        {
          "txid": "838a5eadb69a75f431546bb8f0e4c77f1ea4286eaa3c258ad2c91ec71d9a1977",
          "vout": 1,
          "scriptSig": {
            "asm": "304402202cec1ab0a627a4acdab1a6f6d246f01b01f3a452a36632e500b7f3df2e56cd610220109fb2eff00fc7f623cfff4b57dcf97ed0e26bdcac873215b2ee98dc1da306ca[ALL] 039129e0b8bd6614edd5bd230092c1380882d2e6404d6e1da0fee73df1a65f427c",
            "hex": "47304402202cec1ab0a627a4acdab1a6f6d246f01b01f3a452a36632e500b7f3df2e56cd610220109fb2eff00fc7f623cfff4b57dcf97ed0e26bdcac873215b2ee98dc1da306ca0121039129e0b8bd6614edd5bd230092c1380882d2e6404d6e1da0fee73df1a65f427c"
          },
          "sequence": 4294967295
        }
      ],
      "vout": [
        {
          "value": 0.40000000,
          "n": 0,
          "scriptPubKey": {
            "asm": "OP_DUP OP_HASH160 1d6c2492f7e14f79fb4c5f2d8e09331114738273 OP_EQUALVERIFY OP_CHECKSIG",
            "hex": "76a9141d6c2492f7e14f79fb4c5f2d8e0933111473827388ac",
            "reqSigs": 1,
            "type": "pubkeyhash",
            "addresses": [
              "LMuXQg4U26Lztbt845JnbrKmzi4kaK8RMw"
            ]
          }
        }, 
        {
          "value": 0.28930758,
          "n": 1,
          "scriptPubKey": {
            "asm": "OP_DUP OP_HASH160 b76d2a44f80d37601faa11404058eb934043674a OP_EQUALVERIFY OP_CHECKSIG",
            "hex": "76a914b76d2a44f80d37601faa11404058eb934043674a88ac",
            "reqSigs": 1,
            "type": "pubkeyhash",
            "addresses": [
              "LbwphF4A9dsgRSp8VSGCUkT2XDV9EsVtu5"
            ]
          }
        }
      ],
      "hex": "010000000177199a1dc71ec9d28a253caa6e28a41e7fc7e4f0b86b5431f4759ab6ad5e8a83010000006a47304402202cec1ab0a627a4acdab1a6f6d246f01b01f3a452a36632e500b7f3df2e56cd610220109fb2eff00fc7f623cfff4b57dcf97ed0e26bdcac873215b2ee98dc1da306ca0121039129e0b8bd6614edd5bd230092c1380882d2e6404d6e1da0fee73df1a65f427cffffffff02005a6202000000001976a9141d6c2492f7e14f79fb4c5f2d8e0933111473827388acc672b901000000001976a914b76d2a44f80d37601faa11404058eb934043674a88ac00000000"
    }, 
    {
      "txid": "79f41cc6d1b8ac37ccc08cdd7343a3627814390db06469def345680c6d74053a",
      "hash": "79f41cc6d1b8ac37ccc08cdd7343a3627814390db06469def345680c6d74053a",
      "version": 1,
      "size": 225,
      "vsize": 225,
      "locktime": 1359342,
      "vin": [
        {
          "txid": "20dbdef819aca3c1301b406f32789cc40084e55718ce21014ad8468411d1e5e2",
          "vout": 1,
          "scriptSig": {
            "asm": "30440220717def8a1e1dbb51a138c0ce739076e1e4f7b034afbed6532a76834bef3ce0eb02203ecddf8179a1f71b11e5349a2fd41f3df53546c136836422577a378eb4e0b055[ALL] 030d788d6371fb2462b7d5903637ef11753cf1519f6bab8424f2e14d36572f5c4e",
            "hex": "4730440220717def8a1e1dbb51a138c0ce739076e1e4f7b034afbed6532a76834bef3ce0eb02203ecddf8179a1f71b11e5349a2fd41f3df53546c136836422577a378eb4e0b0550121030d788d6371fb2462b7d5903637ef11753cf1519f6bab8424f2e14d36572f5c4e"
          },
          "sequence": 4294967294
        }
      ],
      "vout": [
        {
          "value": 0.01015421,
          "n": 0,
          "scriptPubKey": {
            "asm": "OP_DUP OP_HASH160 3703893d4a1aa3bbb1c021770465ec23ad115cf7 OP_EQUALVERIFY OP_CHECKSIG",
            "hex": "76a9143703893d4a1aa3bbb1c021770465ec23ad115cf788ac",
            "reqSigs": 1,
            "type": "pubkeyhash",
            "addresses": [
              "LQEqfTNz5nDZo1E2PV2MTn58sDbE15xQb2"
            ]
          }
        }, 
        {
          "value": 0.36247179,
          "n": 1,
          "scriptPubKey": {
            "asm": "OP_DUP OP_HASH160 a3983ef22dfcadf8cbc2a01e1ac462de4c4c9e63 OP_EQUALVERIFY OP_CHECKSIG",
            "hex": "76a914a3983ef22dfcadf8cbc2a01e1ac462de4c4c9e6388ac",
            "reqSigs": 1,
            "type": "pubkeyhash",
            "addresses": [
              "La8xniBFrxDgQBrh5bJ3REbnFngY8eZMM6"
            ]
          }
        }
      ],
      "hex": "0100000001e2e5d1118446d84a0121ce1857e58400c49c78326f401b30c1a3ac19f8dedb20010000006a4730440220717def8a1e1dbb51a138c0ce739076e1e4f7b034afbed6532a76834bef3ce0eb02203ecddf8179a1f71b11e5349a2fd41f3df53546c136836422577a378eb4e0b0550121030d788d6371fb2462b7d5903637ef11753cf1519f6bab8424f2e14d36572f5c4efeffffff027d7e0f00000000001976a9143703893d4a1aa3bbb1c021770465ec23ad115cf788ac8b162902000000001976a914a3983ef22dfcadf8cbc2a01e1ac462de4c4c9e6388aceebd1400"
    }, 
    {
      "txid": "c7017ccee748a9659ae36a82186107e7e76663f0fdf7a5679ab9a8af6c7ff319",
      "hash": "c7017ccee748a9659ae36a82186107e7e76663f0fdf7a5679ab9a8af6c7ff319",
      "version": 1,
      "size": 225,
      "vsize": 225,
      "locktime": 0,
      "vin": [
        {
          "txid": "5bc21202dc012cd58db9a450796914199ad01d8c8c4ebb08d2662381ae915033",
          "vout": 1,
          "scriptSig": {
            "asm": "304402207ed794f7e1fea7c2183bdcac807c9c2b8deb3315936d1476ca1a34bdd04159dd0220344fd0ace5b7fe02924f79b71dedcea2912897c648350971591fe20b009b1d05[ALL] 0365d4a9682e14ecec19e4f3a92d5ee40483f8a0ea946e2331925941b3b92ce4b4",
            "hex": "47304402207ed794f7e1fea7c2183bdcac807c9c2b8deb3315936d1476ca1a34bdd04159dd0220344fd0ace5b7fe02924f79b71dedcea2912897c648350971591fe20b009b1d0501210365d4a9682e14ecec19e4f3a92d5ee40483f8a0ea946e2331925941b3b92ce4b4"
          },
          "sequence": 4294967295
        }
      ],
      "vout": [
        {
          "value": 1.75988377,
          "n": 0,
          "scriptPubKey": {
            "asm": "OP_DUP OP_HASH160 59cf00cc7dd739181c4a5bed7c42ab4fdb6a401a OP_EQUALVERIFY OP_CHECKSIG",
            "hex": "76a91459cf00cc7dd739181c4a5bed7c42ab4fdb6a401a88ac",
            "reqSigs": 1,
            "type": "pubkeyhash",
            "addresses": [
              "LTQpP7cfUhU74rbZHqbXiJEmM5jYLaRFB9"
            ]
          }
        }, 
        {
          "value": 0.00995809,
          "n": 1,
          "scriptPubKey": {
            "asm": "OP_DUP OP_HASH160 460883ec9d42512c9bf0ebeb8804470af340a2bc OP_EQUALVERIFY OP_CHECKSIG",
            "hex": "76a914460883ec9d42512c9bf0ebeb8804470af340a2bc88ac",
            "reqSigs": 1,
            "type": "pubkeyhash",
            "addresses": [
              "LRcFmJ9yTUMDmPvnEG9R2VyGoynUpxHeTy"
            ]
          }
        }
      ],
      "hex": "0100000001335091ae812366d208bb4e8c8c1dd09a1914697950a4b98dd52c01dc0212c25b010000006a47304402207ed794f7e1fea7c2183bdcac807c9c2b8deb3315936d1476ca1a34bdd04159dd0220344fd0ace5b7fe02924f79b71dedcea2912897c648350971591fe20b009b1d0501210365d4a9682e14ecec19e4f3a92d5ee40483f8a0ea946e2331925941b3b92ce4b4ffffffff02995e7d0a000000001976a91459cf00cc7dd739181c4a5bed7c42ab4fdb6a401a88ace1310f00000000001976a914460883ec9d42512c9bf0ebeb8804470af340a2bc88ac00000000"
    }, 
    {
      "txid": "648930d4cef9981ed22f070801c8514c656b0831fafdfc3e32b76a485fd6de26",
      "hash": "648930d4cef9981ed22f070801c8514c656b0831fafdfc3e32b76a485fd6de26",
      "version": 1,
      "size": 225,
      "vsize": 225,
      "locktime": 0,
      "vin": [
        {
          "txid": "fc421b52241a88384adb46f544232e90768f2af20956eb171c89bad8b9d77d55",
          "vout": 318,
          "scriptSig": {
            "asm": "3044022039ecba31e4888450c1493f78f74f7c9aa8855e715c70b41f0f6e5712d57fc50c0220077e9e481c903b564cc3b90498c5c4305c2c9cd188c59892ad2afbc9a6d94679[ALL] 02267f65e20b268d4a6073d8414b311de0709a1839ceb1b95c666ab78cce1bb2a5",
            "hex": "473044022039ecba31e4888450c1493f78f74f7c9aa8855e715c70b41f0f6e5712d57fc50c0220077e9e481c903b564cc3b90498c5c4305c2c9cd188c59892ad2afbc9a6d94679012102267f65e20b268d4a6073d8414b311de0709a1839ceb1b95c666ab78cce1bb2a5"
          },
          "sequence": 4294967295
        }
      ],
      "vout": [
        {
          "value": 0.00055931,
          "n": 0,
          "scriptPubKey": {
            "asm": "OP_DUP OP_HASH160 579a9c4a7c3a5b97a5ca3642be134ee464409422 OP_EQUALVERIFY OP_CHECKSIG",
            "hex": "76a914579a9c4a7c3a5b97a5ca3642be134ee46440942288ac",
            "reqSigs": 1,
            "type": "pubkeyhash",
            "addresses": [
              "LTDAGRqBNPQQyFwbJntyNxTMF2CW9tnD7Y"
            ]
          }
        }, 
        {
          "value": 0.03457000,
          "n": 1,
          "scriptPubKey": {
            "asm": "OP_DUP OP_HASH160 1e286e95846f4b0229e496bffa6021fc439bf162 OP_EQUALVERIFY OP_CHECKSIG",
            "hex": "76a9141e286e95846f4b0229e496bffa6021fc439bf16288ac",
            "reqSigs": 1,
            "type": "pubkeyhash",
            "addresses": [
              "LMyQyEKFEEUdm673VhgFQ9WG1JHT5brZXo"
            ]
          }
        }
      ],
      "hex": "0100000001557dd7b9d8ba891c17eb5609f22a8f76902e2344f546db4a38881a24521b42fc3e0100006a473044022039ecba31e4888450c1493f78f74f7c9aa8855e715c70b41f0f6e5712d57fc50c0220077e9e481c903b564cc3b90498c5c4305c2c9cd188c59892ad2afbc9a6d94679012102267f65e20b268d4a6073d8414b311de0709a1839ceb1b95c666ab78cce1bb2a5ffffffff027bda0000000000001976a914579a9c4a7c3a5b97a5ca3642be134ee46440942288ace8bf3400000000001976a9141e286e95846f4b0229e496bffa6021fc439bf16288ac00000000"
    }, 
    {
      "txid": "48681bb9e6fa43197a3d956924e55fbcbbd37edfbad21a2085616b11b09ea843",
      "hash": "48681bb9e6fa43197a3d956924e55fbcbbd37edfbad21a2085616b11b09ea843",
      "version": 1,
      "size": 225,
      "vsize": 225,
      "locktime": 0,
      "vin": [
        {
          "txid": "2d89132a921b0e140ba6c4d892e06bc09c00293259842ba3d304bee22d05346e",
          "vout": 957,
          "scriptSig": {
            "asm": "304402202defa1fb807e17783f104a62fe8a1a1d87c4fc460f8a70b9126b111a79867c2402203f62a9826d15641db452343f3ba3075b73a01af8bdb1096258a707f798a14031[ALL] 03911d067f7663b31b066425bfabe6542d171634e506abe10e51f2a22a88c911dd",
            "hex": "47304402202defa1fb807e17783f104a62fe8a1a1d87c4fc460f8a70b9126b111a79867c2402203f62a9826d15641db452343f3ba3075b73a01af8bdb1096258a707f798a14031012103911d067f7663b31b066425bfabe6542d171634e506abe10e51f2a22a88c911dd"
          },
          "sequence": 4294967295
        }
      ],
      "vout": [
        {
          "value": 0.00055174,
          "n": 0,
          "scriptPubKey": {
            "asm": "OP_DUP OP_HASH160 7c1f72e90cf4ddfaedf684e577d14cdae4bfef95 OP_EQUALVERIFY OP_CHECKSIG",
            "hex": "76a9147c1f72e90cf4ddfaedf684e577d14cdae4bfef9588ac",
            "reqSigs": 1,
            "type": "pubkeyhash",
            "addresses": [
              "LWYFj75mGpyUaHhRcEQU7u5B2xk8CHqUuo"
            ]
          }
        }, 
        {
          "value": 0.06757247,
          "n": 1,
          "scriptPubKey": {
            "asm": "OP_DUP OP_HASH160 3e0d3f06676924ad5e55d3bf03019138153a8ed2 OP_EQUALVERIFY OP_CHECKSIG",
            "hex": "76a9143e0d3f06676924ad5e55d3bf03019138153a8ed288ac",
            "reqSigs": 1,
            "type": "pubkeyhash",
            "addresses": [
              "LQt42U6fStFk2SGuMAAP1AhyS3af6RBQBX"
            ]
          }
        }
      ],
      "hex": "01000000016e34052de2be04d3a32b84593229009cc06be092d8c4a60b140e1b922a13892dbd0300006a47304402202defa1fb807e17783f104a62fe8a1a1d87c4fc460f8a70b9126b111a79867c2402203f62a9826d15641db452343f3ba3075b73a01af8bdb1096258a707f798a14031012103911d067f7663b31b066425bfabe6542d171634e506abe10e51f2a22a88c911ddffffffff0286d70000000000001976a9147c1f72e90cf4ddfaedf684e577d14cdae4bfef9588ac7f1b6700000000001976a9143e0d3f06676924ad5e55d3bf03019138153a8ed288ac00000000"
    }, 
    {
      "txid": "d5f0180cafc119d445fda921a8ed6ebf32d99ec8752859e8ce6b90277906555f",
      "hash": "d5f0180cafc119d445fda921a8ed6ebf32d99ec8752859e8ce6b90277906555f",
      "version": 1,
      "size": 225,
      "vsize": 225,
      "locktime": 0,
      "vin": [
        {
          "txid": "d493e5e03ca47ab701cb343c124516fbbc1ab3ffe2447429c1097fa59a3f1756",
          "vout": 1,
          "scriptSig": {
            "asm": "3044022072ea9d40af37dfcb9c8136bc8edd7370ee24cb0ea5918e8ecb6b132fce7954c902204f0492f3bd6e162853f672128fdc0f1a77b4de41a0b0c8b382513cb5b53067a6[ALL] 03a0c46a040b7f7137bb9b0aedcae0270d03f41e09b4048228ac08966a018fabbf",
            "hex": "473044022072ea9d40af37dfcb9c8136bc8edd7370ee24cb0ea5918e8ecb6b132fce7954c902204f0492f3bd6e162853f672128fdc0f1a77b4de41a0b0c8b382513cb5b53067a6012103a0c46a040b7f7137bb9b0aedcae0270d03f41e09b4048228ac08966a018fabbf"
          },
          "sequence": 4294967295
        }
      ],
      "vout": [
        {
          "value": 1.49977400,
          "n": 0,
          "scriptPubKey": {
            "asm": "OP_DUP OP_HASH160 5ddc2a0e1fc090272bba27748a587081be44dd15 OP_EQUALVERIFY OP_CHECKSIG",
            "hex": "76a9145ddc2a0e1fc090272bba27748a587081be44dd1588ac",
            "reqSigs": 1,
            "type": "pubkeyhash",
            "addresses": [
              "LTnErLQjZ9bYybBX7V2CkGHMd9XW6fPTEt"
            ]
          }
        }, 
        {
          "value": 0.33112719,
          "n": 1,
          "scriptPubKey": {
            "asm": "OP_DUP OP_HASH160 2d44c193097491e8cd60541cf2d0d82888f5dc9e OP_EQUALVERIFY OP_CHECKSIG",
            "hex": "76a9142d44c193097491e8cd60541cf2d0d82888f5dc9e88ac",
            "reqSigs": 1,
            "type": "pubkeyhash",
            "addresses": [
              "LPMK378GTQmgrxtpeZdeQC2MejpJbRXNgS"
            ]
          }
        }
      ],
      "hex": "010000000156173f9aa57f09c1297444e2ffb31abcfb1645123c34cb01b77aa43ce0e593d4010000006a473044022072ea9d40af37dfcb9c8136bc8edd7370ee24cb0ea5918e8ecb6b132fce7954c902204f0492f3bd6e162853f672128fdc0f1a77b4de41a0b0c8b382513cb5b53067a6012103a0c46a040b7f7137bb9b0aedcae0270d03f41e09b4048228ac08966a018fabbfffffffff023879f008000000001976a9145ddc2a0e1fc090272bba27748a587081be44dd1588ac8f42f901000000001976a9142d44c193097491e8cd60541cf2d0d82888f5dc9e88ac00000000"
    }, 
    {
      "txid": "35f6c816637e4bc451913ab5708b2ccfef64404a90674350e065021e031ea367",
      "hash": "35f6c816637e4bc451913ab5708b2ccfef64404a90674350e065021e031ea367",
      "version": 2,
      "size": 225,
      "vsize": 225,
      "locktime": 1359342,
      "vin": [
        {
          "txid": "0fc4dcdbd7f07cbbbf9da2cbf7e944a3a1b85a7e08f94c18dd29618009e764f4",
          "vout": 0,
          "scriptSig": {
            "asm": "304402207445e5cae8483607b0cd9bb2fc13734db3735c23bcbdef5c974dfcd8c8a3014602205b1269ae3b3179cef22ad91a2edcc2b1fddcb4f8e8a5862046c89d19d1040166[ALL] 0216411e46cc4fb7bdb4e711c288f393651415a5555d2891800f2fdd5fd5311250",
            "hex": "47304402207445e5cae8483607b0cd9bb2fc13734db3735c23bcbdef5c974dfcd8c8a3014602205b1269ae3b3179cef22ad91a2edcc2b1fddcb4f8e8a5862046c89d19d104016601210216411e46cc4fb7bdb4e711c288f393651415a5555d2891800f2fdd5fd5311250"
          },
          "sequence": 4294967294
        }
      ],
      "vout": [
        {
          "value": 0.34420000,
          "n": 0,
          "scriptPubKey": {
            "asm": "OP_DUP OP_HASH160 ce91274c3eb48ecc67f733c4b2f91e73fae01c6e OP_EQUALVERIFY OP_CHECKSIG",
            "hex": "76a914ce91274c3eb48ecc67f733c4b2f91e73fae01c6e88ac",
            "reqSigs": 1,
            "type": "pubkeyhash",
            "addresses": [
              "Le4BMAxmSf6z9yd3Tf3e366uc6rnNtTTXU"
            ]
          }
        }, 
        {
          "value": 83.62142615,
          "n": 1,
          "scriptPubKey": {
            "asm": "OP_DUP OP_HASH160 18341fd0a2120d182882bb4e597ab66f9c69bd00 OP_EQUALVERIFY OP_CHECKSIG",
            "hex": "76a91418341fd0a2120d182882bb4e597ab66f9c69bd0088ac",
            "reqSigs": 1,
            "type": "pubkeyhash",
            "addresses": [
              "LMRvvUWtL5YXWDH48X9w1KRzAyzzyowPDc"
            ]
          }
        }
      ],
      "hex": "0200000001f464e709806129dd184cf9087e5ab8a1a344e9f7cba29dbfbb7cf0d7dbdcc40f000000006a47304402207445e5cae8483607b0cd9bb2fc13734db3735c23bcbdef5c974dfcd8c8a3014602205b1269ae3b3179cef22ad91a2edcc2b1fddcb4f8e8a5862046c89d19d104016601210216411e46cc4fb7bdb4e711c288f393651415a5555d2891800f2fdd5fd5311250feffffff0220350d02000000001976a914ce91274c3eb48ecc67f733c4b2f91e73fae01c6e88ac972b6cf2010000001976a91418341fd0a2120d182882bb4e597ab66f9c69bd0088aceebd1400"
    }, 
    {
      "txid": "7aa4e9f8af183b7d91aeae33de3813119d27ad8d0cea96d6bc55a272c4e2056f",
      "hash": "7aa4e9f8af183b7d91aeae33de3813119d27ad8d0cea96d6bc55a272c4e2056f",
      "version": 1,
      "size": 225,
      "vsize": 225,
      "locktime": 0,
      "vin": [
        {
          "txid": "456715c3aed912215c0d6709349a945b11225afa4521366a866da9bb7bd2a980",
          "vout": 0,
          "scriptSig": {
            "asm": "304402202075dbc7a01a18b390691d7e77a81b3ffff07c9d0731d64469e38b1b222347f402206bac3d465eadff96975731864a09e4258d9be3d74ecb9b26195bddc52b054db9[ALL] 02eef4f0cdea7dd87da8028c1328e5ee4c29829466e048711e89c260705fafdfbf",
            "hex": "47304402202075dbc7a01a18b390691d7e77a81b3ffff07c9d0731d64469e38b1b222347f402206bac3d465eadff96975731864a09e4258d9be3d74ecb9b26195bddc52b054db9012102eef4f0cdea7dd87da8028c1328e5ee4c29829466e048711e89c260705fafdfbf"
          },
          "sequence": 4294967295
        }
      ],
      "vout": [
        {
          "value": 22.31021685,
          "n": 0,
          "scriptPubKey": {
            "asm": "OP_DUP OP_HASH160 50bb49c6f8d4f0bb49d51354d4fe9ea8abd94d38 OP_EQUALVERIFY OP_CHECKSIG",
            "hex": "76a91450bb49c6f8d4f0bb49d51354d4fe9ea8abd94d3888ac",
            "reqSigs": 1,
            "type": "pubkeyhash",
            "addresses": [
              "LSapga5iFTYWTiJAsidDVxBHdogJ6txm3g"
            ]
          }
        }, 
        {
          "value": 51.62610734,
          "n": 1,
          "scriptPubKey": {
            "asm": "OP_DUP OP_HASH160 8f221e3e453c8e568013d8661598422966d151c8 OP_EQUALVERIFY OP_CHECKSIG",
            "hex": "76a9148f221e3e453c8e568013d8661598422966d151c888ac",
            "reqSigs": 1,
            "type": "pubkeyhash",
            "addresses": [
              "LYGmmDPvYTXWdkCQSEFUSpVsVge4wNCZFW"
            ]
          }
        }
      ],
      "hex": "010000000180a9d27bbba96d866a362145fa5a22115b949a3409670d5c2112d9aec3156745000000006a47304402202075dbc7a01a18b390691d7e77a81b3ffff07c9d0731d64469e38b1b222347f402206bac3d465eadff96975731864a09e4258d9be3d74ecb9b26195bddc52b054db9012102eef4f0cdea7dd87da8028c1328e5ee4c29829466e048711e89c260705fafdfbfffffffff0275b0fa84000000001976a91450bb49c6f8d4f0bb49d51354d4fe9ea8abd94d3888ac2e30b733010000001976a9148f221e3e453c8e568013d8661598422966d151c888ac00000000"
    }, 
    {
      "txid": "0e93a970b9c4e9987dfdfb3df6dd50a96090bff294a362786afba2f3a1d66570",
      "hash": "0e93a970b9c4e9987dfdfb3df6dd50a96090bff294a362786afba2f3a1d66570",
      "version": 2,
      "size": 226,
      "vsize": 226,
      "locktime": 1359341,
      "vin": [
        {
          "txid": "576fc48e3f78bda0740f12a7fa9ec53fe771fd8b9f8ee1eda7610c2375763295",
          "vout": 0,
          "scriptSig": {
            "asm": "304502210080c13f51120df807122c965ffda14e5d662f7a7048f45ed1b7d89f764ed3bd5002204949bd5032629e7d6b79bbc2c4d7f9bf8828caf3a3c18ae3a37f67d65718a422[ALL] 02d453ea5e3e7e1930f96d1b1bc7a23e29e9ee3507b38832b56ce5c2718a4bab79",
            "hex": "48304502210080c13f51120df807122c965ffda14e5d662f7a7048f45ed1b7d89f764ed3bd5002204949bd5032629e7d6b79bbc2c4d7f9bf8828caf3a3c18ae3a37f67d65718a422012102d453ea5e3e7e1930f96d1b1bc7a23e29e9ee3507b38832b56ce5c2718a4bab79"
          },
          "sequence": 4294967294
        }
      ],
      "vout": [
        {
          "value": 2.23991254,
          "n": 0,
          "scriptPubKey": {
            "asm": "OP_DUP OP_HASH160 536bfec6710f8c6438fe6f3da40a440d0c9a32f6 OP_EQUALVERIFY OP_CHECKSIG",
            "hex": "76a914536bfec6710f8c6438fe6f3da40a440d0c9a32f688ac",
            "reqSigs": 1,
            "type": "pubkeyhash",
            "addresses": [
              "LSq3imrBVKFF7vqzL2YNhNfug4JDzemXXu"
            ]
          }
        }, 
        {
          "value": 8.81558133,
          "n": 1,
          "scriptPubKey": {
            "asm": "OP_DUP OP_HASH160 f9c538a70c3f85780af7b0f8ff84e4bcf69e0cec OP_EQUALVERIFY OP_CHECKSIG",
            "hex": "76a914f9c538a70c3f85780af7b0f8ff84e4bcf69e0cec88ac",
            "reqSigs": 1,
            "type": "pubkeyhash",
            "addresses": [
              "Lhzcn9wEvBuTLkVy5WjqryQUpnyuaD3eVG"
            ]
          }
        }
      ],
      "hex": "020000000195327675230c61a7ede18e9f8bfd71e73fc59efaa7120f74a0bd783f8ec46f57000000006b48304502210080c13f51120df807122c965ffda14e5d662f7a7048f45ed1b7d89f764ed3bd5002204949bd5032629e7d6b79bbc2c4d7f9bf8828caf3a3c18ae3a37f67d65718a422012102d453ea5e3e7e1930f96d1b1bc7a23e29e9ee3507b38832b56ce5c2718a4bab79feffffff02d6d5590d000000001976a914536bfec6710f8c6438fe6f3da40a440d0c9a32f688ac75828b34000000001976a914f9c538a70c3f85780af7b0f8ff84e4bcf69e0cec88acedbd1400"
    }, 
    {
      "txid": "37241fc91a8e89fa1fec646dce2c75f7e2cb6af2c24603989d01b84e6edd0430",
      "hash": "37241fc91a8e89fa1fec646dce2c75f7e2cb6af2c24603989d01b84e6edd0430",
      "version": 1,
      "size": 226,
      "vsize": 226,
      "locktime": 0,
      "vin": [
        {
          "txid": "d2b2d8bbf39dac6c0e717ef4ad42101cf80593ac4f7d2211887978d40304e21b",
          "vout": 1,
          "scriptSig": {
            "asm": "3045022100932ebd654909d2fd8b5506e26f43dab0b5ca49802fb9dc93b843d56ad00daf8e02206a3b7b3e6c00725a9bec318c6dc5c6c84f3867599c9c655027bc159cfd6ffc61[ALL] 03209837d893ecad700f1229834827690fd7fdffbc33526cc6ec92f60946684b8d",
            "hex": "483045022100932ebd654909d2fd8b5506e26f43dab0b5ca49802fb9dc93b843d56ad00daf8e02206a3b7b3e6c00725a9bec318c6dc5c6c84f3867599c9c655027bc159cfd6ffc61012103209837d893ecad700f1229834827690fd7fdffbc33526cc6ec92f60946684b8d"
          },
          "sequence": 4294967295
        }
      ],
      "vout": [
        {
          "value": 0.15657608,
          "n": 0,
          "scriptPubKey": {
            "asm": "OP_DUP OP_HASH160 520037e71a874f9f12947176fad4d8bd44ec7684 OP_EQUALVERIFY OP_CHECKSIG",
            "hex": "76a914520037e71a874f9f12947176fad4d8bd44ec768488ac",
            "reqSigs": 1,
            "type": "pubkeyhash",
            "addresses": [
              "LShXw7fZkqyqEmQEKaJjMkVj46CvNjXexF"
            ]
          }
        }, 
        {
          "value": 0.00319792,
          "n": 1,
          "scriptPubKey": {
            "asm": "OP_DUP OP_HASH160 4f52fcc3579b4b94e1d09a9d10e0f1a0ebf93d8b OP_EQUALVERIFY OP_CHECKSIG",
            "hex": "76a9144f52fcc3579b4b94e1d09a9d10e0f1a0ebf93d8b88ac",
            "reqSigs": 1,
            "type": "pubkeyhash",
            "addresses": [
              "LSTP4RuN1CFTi1krWpGTzeo8zcVQ13BJiX"
            ]
          }
        }
      ],
      "hex": "01000000011be20403d478798811227d4fac9305f81c1042adf47e710e6cac9df3bbd8b2d2010000006b483045022100932ebd654909d2fd8b5506e26f43dab0b5ca49802fb9dc93b843d56ad00daf8e02206a3b7b3e6c00725a9bec318c6dc5c6c84f3867599c9c655027bc159cfd6ffc61012103209837d893ecad700f1229834827690fd7fdffbc33526cc6ec92f60946684b8dffffffff0288eaee00000000001976a914520037e71a874f9f12947176fad4d8bd44ec768488ac30e10400000000001976a9144f52fcc3579b4b94e1d09a9d10e0f1a0ebf93d8b88ac00000000"
    }, 
    {
      "txid": "e4b902da7ded76f3f19aa1507725af7a7e122c555d9b0ae26717608377fc3b3e",
      "hash": "e4b902da7ded76f3f19aa1507725af7a7e122c555d9b0ae26717608377fc3b3e",
      "version": 1,
      "size": 226,
      "vsize": 226,
      "locktime": 0,
      "vin": [
        {
          "txid": "cb24e910abedbddce0229828696f9407ef0a42d6158fe9d0fea1efbf00f49f37",
          "vout": 0,
          "scriptSig": {
            "asm": "3045022100c7368614af30a575847ab1e8839e762f1b38641177b191471081d1c960ce422d022050335eda2fef3608d4e6a8cfcf220dd8a092bc3e3f62a109bf41856e7e13ce03[ALL] 0261cea5a488a18e2f24d89de9db1096c3a4505d768adbd31d881b22ec0e84ef76",
            "hex": "483045022100c7368614af30a575847ab1e8839e762f1b38641177b191471081d1c960ce422d022050335eda2fef3608d4e6a8cfcf220dd8a092bc3e3f62a109bf41856e7e13ce0301210261cea5a488a18e2f24d89de9db1096c3a4505d768adbd31d881b22ec0e84ef76"
          },
          "sequence": 4294967295
        }
      ],
      "vout": [
        {
          "value": 0.00086682,
          "n": 0,
          "scriptPubKey": {
            "asm": "OP_DUP OP_HASH160 e2406167ca73d7bf0c41397e4a3b1f09b5d7568d OP_EQUALVERIFY OP_CHECKSIG",
            "hex": "76a914e2406167ca73d7bf0c41397e4a3b1f09b5d7568d88ac",
            "reqSigs": 1,
            "type": "pubkeyhash",
            "addresses": [
              "LfrG6oSg96PNUybtL6QygLpYwdgsYse7uP"
            ]
          }
        }, 
        {
          "value": 0.10272399,
          "n": 1,
          "scriptPubKey": {
            "asm": "OP_DUP OP_HASH160 acab93ea2fa4b6723c131028bf2b2833441b4c95 OP_EQUALVERIFY OP_CHECKSIG",
            "hex": "76a914acab93ea2fa4b6723c131028bf2b2833441b4c9588ac",
            "reqSigs": 1,
            "type": "pubkeyhash",
            "addresses": [
              "Laxx2eBQRwJVGkJh8fKXrUTKzaJ9R4q7et"
            ]
          }
        }
      ],
      "hex": "0100000001379ff400bfefa1fed0e98f15d6420aef07946f69289822e0dcbdedab10e924cb000000006b483045022100c7368614af30a575847ab1e8839e762f1b38641177b191471081d1c960ce422d022050335eda2fef3608d4e6a8cfcf220dd8a092bc3e3f62a109bf41856e7e13ce0301210261cea5a488a18e2f24d89de9db1096c3a4505d768adbd31d881b22ec0e84ef76ffffffff029a520100000000001976a914e2406167ca73d7bf0c41397e4a3b1f09b5d7568d88ac8fbe9c00000000001976a914acab93ea2fa4b6723c131028bf2b2833441b4c9588ac00000000"
    }, 
    {
      "txid": "cfaad6d7b929eed8acaccdec3f7954efb57f6adb8871f95d08c63542273b025a",
      "hash": "cfaad6d7b929eed8acaccdec3f7954efb57f6adb8871f95d08c63542273b025a",
      "version": 2,
      "size": 226,
      "vsize": 226,
      "locktime": 1359342,
      "vin": [
        {
          "txid": "46eb44d44b857ca03f1ce794a39e8118c33afc7aefe1630e0b3c08a87fb1ce76",
          "vout": 0,
          "scriptSig": {
            "asm": "3045022100803c2989c01bfe33d8c69c5d40285ad499cee1512c3ba8a9609fd520b2c2837b022058cf9249dc1f390e0f16db1abd8de167f8547396a2849fef2087fb4310665940[ALL] 02ccea9b7265edb0e0595a0ecb08e2275bd0ccdfda295f86bcdfbb6f4113478093",
            "hex": "483045022100803c2989c01bfe33d8c69c5d40285ad499cee1512c3ba8a9609fd520b2c2837b022058cf9249dc1f390e0f16db1abd8de167f8547396a2849fef2087fb4310665940012102ccea9b7265edb0e0595a0ecb08e2275bd0ccdfda295f86bcdfbb6f4113478093"
          },
          "sequence": 4294967294
        }
      ],
      "vout": [
        {
          "value": 0.07137816,
          "n": 0,
          "scriptPubKey": {
            "asm": "OP_DUP OP_HASH160 ca9fdc106c9ca25d73ab56da01032eef2e430d15 OP_EQUALVERIFY OP_CHECKSIG",
            "hex": "76a914ca9fdc106c9ca25d73ab56da01032eef2e430d1588ac",
            "reqSigs": 1,
            "type": "pubkeyhash",
            "addresses": [
              "LdhLGCoQvKT9m3wicNfUhoXwRp3RdJPzFG"
            ]
          }
        }, 
        {
          "value": 6.98981159,
          "n": 1,
          "scriptPubKey": {
            "asm": "OP_DUP OP_HASH160 39da24a2ec071994ce277422effacc202f967563 OP_EQUALVERIFY OP_CHECKSIG",
            "hex": "76a91439da24a2ec071994ce277422effacc202f96756388ac",
            "reqSigs": 1,
            "type": "pubkeyhash",
            "addresses": [
              "LQVr6zkCRMm2vd5MmEzYXmPEBnRUtz5zvD"
            ]
          }
        }
      ],
      "hex": "020000000176ceb17fa8083c0b0e63e1ef7afc3ac318819ea394e71c3fa07c854bd444eb46000000006b483045022100803c2989c01bfe33d8c69c5d40285ad499cee1512c3ba8a9609fd520b2c2837b022058cf9249dc1f390e0f16db1abd8de167f8547396a2849fef2087fb4310665940012102ccea9b7265edb0e0595a0ecb08e2275bd0ccdfda295f86bcdfbb6f4113478093feffffff0218ea6c00000000001976a914ca9fdc106c9ca25d73ab56da01032eef2e430d1588ac279ba929000000001976a91439da24a2ec071994ce277422effacc202f96756388aceebd1400"
    }, 
    {
      "txid": "e34f644ace256c07093f1661475c75defc914b135ecc8941ff0af56980caa984",
      "hash": "e34f644ace256c07093f1661475c75defc914b135ecc8941ff0af56980caa984",
      "version": 1,
      "size": 226,
      "vsize": 226,
      "locktime": 0,
      "vin": [
        {
          "txid": "aa8bb9d0f24f4f0c4dc9112b5f9b859ea14b799e2647bb9ca9dac0f5c47fedb1",
          "vout": 8,
          "scriptSig": {
            "asm": "3045022100a2b8391d4adc6a957bc8154e5225ed75e4373448311272b9153335e486efb84102203ba2baf773625b6ee479a2f78b784dfcc935c659725af97dee8df77b14b6b76e[ALL] 03905e96a01615e365083da7bea6c3ec556400a73c829c02a7c63adedcb8a436fb",
            "hex": "483045022100a2b8391d4adc6a957bc8154e5225ed75e4373448311272b9153335e486efb84102203ba2baf773625b6ee479a2f78b784dfcc935c659725af97dee8df77b14b6b76e012103905e96a01615e365083da7bea6c3ec556400a73c829c02a7c63adedcb8a436fb"
          },
          "sequence": 4294967295
        }
      ],
      "vout": [
        {
          "value": 0.00307243,
          "n": 0,
          "scriptPubKey": {
            "asm": "OP_DUP OP_HASH160 005c72109f11267fc34c89738e3aa83d25e74012 OP_EQUALVERIFY OP_CHECKSIG",
            "hex": "76a914005c72109f11267fc34c89738e3aa83d25e7401288ac",
            "reqSigs": 1,
            "type": "pubkeyhash",
            "addresses": [
              "LKFs1SgNPEQXHEBJo4i3WCpUYS2Ts4NGds"
            ]
          }
        }, 
        {
          "value": 0.11261819,
          "n": 1,
          "scriptPubKey": {
            "asm": "OP_DUP OP_HASH160 2bc85534d2a5fca5171865667ec4187c775f043e OP_EQUALVERIFY OP_CHECKSIG",
            "hex": "76a9142bc85534d2a5fca5171865667ec4187c775f043e88ac",
            "reqSigs": 1,
            "type": "pubkeyhash",
            "addresses": [
              "LPDTJqAfofy7u1LheT2XkPMCApxWyygofi"
            ]
          }
        }
      ],
      "hex": "0100000001b1ed7fc4f5c0daa99cbb47269e794ba19e859b5f2b11c94d0c4f4ff2d0b98baa080000006b483045022100a2b8391d4adc6a957bc8154e5225ed75e4373448311272b9153335e486efb84102203ba2baf773625b6ee479a2f78b784dfcc935c659725af97dee8df77b14b6b76e012103905e96a01615e365083da7bea6c3ec556400a73c829c02a7c63adedcb8a436fbffffffff022bb00400000000001976a914005c72109f11267fc34c89738e3aa83d25e7401288ac7bd7ab00000000001976a9142bc85534d2a5fca5171865667ec4187c775f043e88ac00000000"
    }, 
    {
      "txid": "38d0dfb78af3117def9402ca546abebb4654f6dd1f3cfcfa576a409fb2aaf19d",
      "hash": "38d0dfb78af3117def9402ca546abebb4654f6dd1f3cfcfa576a409fb2aaf19d",
      "version": 1,
      "size": 225,
      "vsize": 225,
      "locktime": 1359342,
      "vin": [
        {
          "txid": "cd8d0796bd93ff254faced7431a52ef6d0d8bf5a6849aac9e8c8ad8aa37bda01",
          "vout": 0,
          "scriptSig": {
            "asm": "304402204e26ea404316f845b71adb2f898558acd51cf952be2d2ed72a4090f79c0a88ab02207c1acd9aa14d324795627f7d6cc9367b9ccfd9a0193d8b68f1726adbd57273c7[ALL] 039c1b62af86d1bfdb21f15c28f7340fd90f90d9f0efc18173312552a78e60eac6",
            "hex": "47304402204e26ea404316f845b71adb2f898558acd51cf952be2d2ed72a4090f79c0a88ab02207c1acd9aa14d324795627f7d6cc9367b9ccfd9a0193d8b68f1726adbd57273c70121039c1b62af86d1bfdb21f15c28f7340fd90f90d9f0efc18173312552a78e60eac6"
          },
          "sequence": 4294967294
        }
      ],
      "vout": [
        {
          "value": 0.01025606,
          "n": 0,
          "scriptPubKey": {
            "asm": "OP_DUP OP_HASH160 32a01e004d40e84872dae49f28efc6d6be2c8607 OP_EQUALVERIFY OP_CHECKSIG",
            "hex": "76a91432a01e004d40e84872dae49f28efc6d6be2c860788ac",
            "reqSigs": 1,
            "type": "pubkeyhash",
            "addresses": [
              "LPqdrwbQSpLVMhyBUU2YcKqo7f4Vtq9Z6P"
            ]
          }
        }, 
        {
          "value": 0.28028000,
          "n": 1,
          "scriptPubKey": {
            "asm": "OP_DUP OP_HASH160 0137fafe6132a8b063a0e48c4aabe4dca7f3692c OP_EQUALVERIFY OP_CHECKSIG",
            "hex": "76a9140137fafe6132a8b063a0e48c4aabe4dca7f3692c88ac",
            "reqSigs": 1,
            "type": "pubkeyhash",
            "addresses": [
              "LKLPzzd2KFFScSX79rBYqDXddqxgm7oQnq"
            ]
          }
        }
      ],
      "hex": "010000000101da7ba38aadc8e8c9aa49685abfd8d0f62ea53174edac4f25ff93bd96078dcd000000006a47304402204e26ea404316f845b71adb2f898558acd51cf952be2d2ed72a4090f79c0a88ab02207c1acd9aa14d324795627f7d6cc9367b9ccfd9a0193d8b68f1726adbd57273c70121039c1b62af86d1bfdb21f15c28f7340fd90f90d9f0efc18173312552a78e60eac6feffffff0246a60f00000000001976a91432a01e004d40e84872dae49f28efc6d6be2c860788ac60acab01000000001976a9140137fafe6132a8b063a0e48c4aabe4dca7f3692c88aceebd1400"
    }, 
    {
      "txid": "6015a5581680e602a0605e4f883bd01e93c7adabe710c7aae30f73defa1c73b7",
      "hash": "6015a5581680e602a0605e4f883bd01e93c7adabe710c7aae30f73defa1c73b7",
      "version": 1,
      "size": 226,
      "vsize": 226,
      "locktime": 0,
      "vin": [
        {
          "txid": "6c56fc32e61dea6a79a7d1914a7041e974d8bd6a292aa6bfd8ba241ffae46e8f",
          "vout": 0,
          "scriptSig": {
            "asm": "3045022100b7a26c70b50a46b12736537d85f6c091719b9714431db426cec4153fea21a22a022060a35efedd0bb8c072e65ad803fca624e72ebb92fd1707a8012ced79b1561882[ALL] 02b5dc8b19a43104b8aa03fe844a2d774d01cdaafb583b11316b3e990b252d9792",
            "hex": "483045022100b7a26c70b50a46b12736537d85f6c091719b9714431db426cec4153fea21a22a022060a35efedd0bb8c072e65ad803fca624e72ebb92fd1707a8012ced79b1561882012102b5dc8b19a43104b8aa03fe844a2d774d01cdaafb583b11316b3e990b252d9792"
          },
          "sequence": 4294967295
        }
      ],
      "vout": [
        {
          "value": 0.01270694,
          "n": 0,
          "scriptPubKey": {
            "asm": "OP_DUP OP_HASH160 4138112ded0cd4c92230f3b61c4506dc3c526836 OP_EQUALVERIFY OP_CHECKSIG",
            "hex": "76a9144138112ded0cd4c92230f3b61c4506dc3c52683688ac",
            "reqSigs": 1,
            "type": "pubkeyhash",
            "addresses": [
              "LRAoMHwWHdKa5RwfNRFDeyH17xRt2Hc3km"
            ]
          }
        }, 
        {
          "value": 2.07806706,
          "n": 1,
          "scriptPubKey": {
            "asm": "OP_DUP OP_HASH160 c0977e22276a16ab98f70ec9da32a169869f19cd OP_EQUALVERIFY OP_CHECKSIG",
            "hex": "76a914c0977e22276a16ab98f70ec9da32a169869f19cd88ac",
            "reqSigs": 1,
            "type": "pubkeyhash",
            "addresses": [
              "LcnHUwcRh5HBQitRdfLsANaGmuXBUYNigh"
            ]
          }
        }
      ],
      "hex": "01000000018f6ee4fa1f24bad8bfa62a296abdd874e941704a91d1a7796aea1de632fc566c000000006b483045022100b7a26c70b50a46b12736537d85f6c091719b9714431db426cec4153fea21a22a022060a35efedd0bb8c072e65ad803fca624e72ebb92fd1707a8012ced79b1561882012102b5dc8b19a43104b8aa03fe844a2d774d01cdaafb583b11316b3e990b252d9792ffffffff02a6631300000000001976a9144138112ded0cd4c92230f3b61c4506dc3c52683688acf2e0620c000000001976a914c0977e22276a16ab98f70ec9da32a169869f19cd88ac00000000"
    }
  ],
  "time": 1517269549,
  "mediantime": 1517269083,
  "nonce": 2899570106,
  "bits": "1a042eae",
  "difficulty": 4011378.762614286,
  "chainwork": "000000000000000000000000000000000000000000000033ea8b5d9ed1f270e0",
  "previousblockhash": "5583ec3bdaafc6d5a062c53fb3f4ea8ad14c54dc813048ea5d18e6d382cd9c7e",
  "nextblockhash": "171552a2050595bca66e82a75eabba6d6fdb380ef4fc83a4d380bfc952a05570"
}
