{
  "hash": "81013a3093c6a76cfc7c924e3d6eafb315061b76564ff20300eb469189da4f2d",
  "confirmations": 1185,
  "strippedsize": 253,
  "size": 253,
  "weight": 1012,
  "height": 1359809,
  "version": 536870912,
  "versionHex": "20000000",
  "merkleroot": "2fe9b040ca3666ec11a142e273d5fd209c21902ce18d8e4454f1c6b7bf38c60b",
  "tx": [
    {
      "txid": "2fe9b040ca3666ec11a142e273d5fd209c21902ce18d8e4454f1c6b7bf38c60b",
      "hash": "2fe9b040ca3666ec11a142e273d5fd209c21902ce18d8e4454f1c6b7bf38c60b",
      "version": 1,
      "size": 172,
      "vsize": 172,
      "locktime": 0,
      "vin": [
        {
          "coinbase": "03c1bf141a4d696e656420627920416e74506f6f6c20626a3242205a70b253fabe6d6db46b6377edd41be6619ccc0d3963174f6e7b386713eb4e2e17335a41810e76c404000000000000005b2200000000000001000000",
          "sequence": 4294967295
        }
      ],
      "vout": [
        {
          "value": 25.00000000,
          "n": 0,
          "scriptPubKey": {
            "asm": "OP_DUP OP_HASH160 0ff3ccc5e8be88afe24b5d634e5852d474dbdff1 OP_EQUALVERIFY OP_CHECKSIG",
            "hex": "76a9140ff3ccc5e8be88afe24b5d634e5852d474dbdff188ac",
            "reqSigs": 1,
            "type": "pubkeyhash",
            "addresses": [
              "LLgJTbzZMsRTCUF1NtvvL9SR1a4pVieW89"
            ]
          }
        }
      ],
      "hex": "01000000010000000000000000000000000000000000000000000000000000000000000000ffffffff5703c1bf141a4d696e656420627920416e74506f6f6c20626a3242205a70b253fabe6d6db46b6377edd41be6619ccc0d3963174f6e7b386713eb4e2e17335a41810e76c404000000000000005b2200000000000001000000ffffffff0100f90295000000001976a9140ff3ccc5e8be88afe24b5d634e5852d474dbdff188ac00000000"
    }
  ],
  "time": 1517335123,
  "mediantime": 1517334713,
  "nonce": 3566606547,
  "bits": "1a042eae",
  "difficulty": 4011378.762614286,
  "chainwork": "00000000000000000000000000000000000000000000003459f717f1ed1aff84",
  "previousblockhash": "b8bc267193d48edfe6175c4a9ab457b1c571159bd58f66449bba29eba41f4909",
  "nextblockhash": "1f60b5153c44e842e288f4028a9849fdbe30effaa1ae4816605839271dd92bb0"
}
