{
  "hash": "8171d6aafeb2b514334855dae4eb2676cf8e0f09503e57ab8f8bb5e10ae39845",
  "confirmations": 278,
  "strippedsize": 4444,
  "size": 4480,
  "weight": 17812,
  "height": 1360716,
  "version": 536870912,
  "versionHex": "20000000",
  "merkleroot": "2a27d155bc846eca7495cbb81148e0904d828a231f021dc35ec32eb184568513",
  "tx": [
    {
      "txid": "784294f8c18a8f97ac988f1df1a428b636a1f343294e62d4c5c70911363a78f6",
      "hash": "fb0689d97c0e157c4a745fb83426793080062663c33ee2a0893fa8ff45152b3f",
      "version": 1,
      "size": 236,
      "vsize": 209,
      "locktime": 0,
      "vin": [
        {
          "coinbase": "034cc314045a72c5162cfabe6d6d8b081b668ba6134c7db03b2b70917d203d684cb55a3e762ae5dd24131583357f4000000000000000042f4c502f082200abef03000000",
          "sequence": 4294967295
        }
      ],
      "vout": [
        {
          "value": 25.01432900,
          "n": 0,
          "scriptPubKey": {
            "asm": "OP_DUP OP_HASH160 57757ed2ecf2052ff3126c397aca7defb9ca2cec OP_EQUALVERIFY OP_CHECKSIG",
            "hex": "76a91457757ed2ecf2052ff3126c397aca7defb9ca2cec88ac",
            "reqSigs": 1,
            "type": "pubkeyhash",
            "addresses": [
              "LTCPodGk5FwcJaRzH9yKnwicxzFUbxp6tN"
            ]
          }
        }, 
        {
          "value": 0.00000000,
          "n": 1,
          "scriptPubKey": {
            "asm": "OP_RETURN aa21a9ed75479867f3b54bd61387bff5366f18c5d10107f3075b1f5a443709da44d93785",
            "hex": "6a24aa21a9ed75479867f3b54bd61387bff5366f18c5d10107f3075b1f5a443709da44d93785",
            "type": "nulldata"
          }
        }
      ],
      "hex": "010000000001010000000000000000000000000000000000000000000000000000000000000000ffffffff44034cc314045a72c5162cfabe6d6d8b081b668ba6134c7db03b2b70917d203d684cb55a3e762ae5dd24131583357f4000000000000000042f4c502f082200abef03000000ffffffff0244d61895000000001976a91457757ed2ecf2052ff3126c397aca7defb9ca2cec88ac0000000000000000266a24aa21a9ed75479867f3b54bd61387bff5366f18c5d10107f3075b1f5a443709da44d937850120000000000000000000000000000000000000000000000000000000000000000000000000"
    }, 
    {
      "txid": "723cc7c96a6abb4ec5ed2c20d6441bcd8e6b7a5ed33e444da39b2df8bd2f8c72",
      "hash": "723cc7c96a6abb4ec5ed2c20d6441bcd8e6b7a5ed33e444da39b2df8bd2f8c72",
      "version": 1,
      "size": 192,
      "vsize": 192,
      "locktime": 0,
      "vin": [
        {
          "txid": "971bbd517c288d982f061af542ef928770503661164b729235d1186edebb8d06",
          "vout": 1,
          "scriptSig": {
            "asm": "3045022100f8b23cfc5bf681beebd6f01bc74fefaeeee0005cc0d311f19f70da04253e911c02200a5bb5864b434e2d463d11cf739437d802f96fa3018ed31d67b1d89a8098ec79[ALL] 03e36426e5d021412068a7fe1a2a961a6140203d89d3e0b883077453bdcd545e3c",
            "hex": "483045022100f8b23cfc5bf681beebd6f01bc74fefaeeee0005cc0d311f19f70da04253e911c02200a5bb5864b434e2d463d11cf739437d802f96fa3018ed31d67b1d89a8098ec79012103e36426e5d021412068a7fe1a2a961a6140203d89d3e0b883077453bdcd545e3c"
          },
          "sequence": 4294967295
        }
      ],
      "vout": [
        {
          "value": 0.22601264,
          "n": 0,
          "scriptPubKey": {
            "asm": "OP_DUP OP_HASH160 7d363b698c9a9bec0b83c8aa56c194d29e862ec6 OP_EQUALVERIFY OP_CHECKSIG",
            "hex": "76a9147d363b698c9a9bec0b83c8aa56c194d29e862ec688ac",
            "reqSigs": 1,
            "type": "pubkeyhash",
            "addresses": [
              "LWe1hJWgrAPzRkvqnJZF3X4472h3Xr48bG"
            ]
          }
        }
      ],
      "hex": "0100000001068dbbde6e18d13592724b16613650708792ef42f51a062f988d287c51bd1b97010000006b483045022100f8b23cfc5bf681beebd6f01bc74fefaeeee0005cc0d311f19f70da04253e911c02200a5bb5864b434e2d463d11cf739437d802f96fa3018ed31d67b1d89a8098ec79012103e36426e5d021412068a7fe1a2a961a6140203d89d3e0b883077453bdcd545e3cffffffff0130de5801000000001976a9147d363b698c9a9bec0b83c8aa56c194d29e862ec688ac00000000"
    }, 
    {
      "txid": "ac15d87126be7123f046a13ea539ea61eb210269456a7599b807b447c8ce19f3",
      "hash": "ac15d87126be7123f046a13ea539ea61eb210269456a7599b807b447c8ce19f3",
      "version": 1,
      "size": 192,
      "vsize": 192,
      "locktime": 0,
      "vin": [
        {
          "txid": "aabeff3b58165ce0283530a02c62efb81c52ab5a3d536ac20490ace5dd79dd5d",
          "vout": 0,
          "scriptSig": {
            "asm": "3045022100b667bec5b324f05e295fbb6c2ad07c66d040668e17894da589c1b553023d648c0220171ff6ef627cb5c85760a04ac661fadd052791e8c947741d23b3119348a9366c[ALL] 032c19d4858661ee8dd5883bd11869297d44977a4f22fca498e1d9838d8b316b42",
            "hex": "483045022100b667bec5b324f05e295fbb6c2ad07c66d040668e17894da589c1b553023d648c0220171ff6ef627cb5c85760a04ac661fadd052791e8c947741d23b3119348a9366c0121032c19d4858661ee8dd5883bd11869297d44977a4f22fca498e1d9838d8b316b42"
          },
          "sequence": 4294967295
        }
      ],
      "vout": [
        {
          "value": 1.46116800,
          "n": 0,
          "scriptPubKey": {
            "asm": "OP_DUP OP_HASH160 3b0cf5c4e375b9337cb69365d7ff33c8be6fb2d1 OP_EQUALVERIFY OP_CHECKSIG",
            "hex": "76a9143b0cf5c4e375b9337cb69365d7ff33c8be6fb2d188ac",
            "reqSigs": 1,
            "type": "pubkeyhash",
            "addresses": [
              "LQcBf1Y75FYEuqaQupntzoDEe2swbnGBv7"
            ]
          }
        }
      ],
      "hex": "01000000015ddd79dde5ac9004c26a533d5aab521cb8ef622ca0303528e05c16583bffbeaa000000006b483045022100b667bec5b324f05e295fbb6c2ad07c66d040668e17894da589c1b553023d648c0220171ff6ef627cb5c85760a04ac661fadd052791e8c947741d23b3119348a9366c0121032c19d4858661ee8dd5883bd11869297d44977a4f22fca498e1d9838d8b316b42ffffffff01c090b508000000001976a9143b0cf5c4e375b9337cb69365d7ff33c8be6fb2d188ac00000000"
    }, 
    {
      "txid": "8609560cb5ff03a560b16ad3d243c75d04c9e54cadfa3efa4360830f8c0f6835",
      "hash": "8609560cb5ff03a560b16ad3d243c75d04c9e54cadfa3efa4360830f8c0f6835",
      "version": 1,
      "size": 340,
      "vsize": 340,
      "locktime": 0,
      "vin": [
        {
          "txid": "f1ccf09175b87882454f60f253c359aa5204f95212edae026e4f1ca80810db33",
          "vout": 0,
          "scriptSig": {
            "asm": "3045022100c294965c1b78dae905ad0a557b3b4d305629542f62a48d7837615d1e28777f5e0220678ea83226740036e2e8cf5d7dbc04fe4d08df2400e2ddb471b2745f5aed3be7[ALL] 03d0a7d802c94245b2f70aec8d6aa680fae80b483de350728448eafa3b81dd50e0",
            "hex": "483045022100c294965c1b78dae905ad0a557b3b4d305629542f62a48d7837615d1e28777f5e0220678ea83226740036e2e8cf5d7dbc04fe4d08df2400e2ddb471b2745f5aed3be7012103d0a7d802c94245b2f70aec8d6aa680fae80b483de350728448eafa3b81dd50e0"
          },
          "sequence": 4294967295
        }, 
        {
          "txid": "1e3f317674cdeeebc6d494bca25628a926758b28656a3f09a4c626944c3d4675",
          "vout": 1,
          "scriptSig": {
            "asm": "30450221009c90af62ee331a0b765004410736a3bbf6453d177476a4724bf393fb19824317022058368801c40f556d0270bbdc30107263a84b49f255f6ad2e15b596b959fc684e[ALL] 0242bbf4e7543b618c7aa6a724cd9ccc4559af2d06d269ce69cc2e5816b65913e8",
            "hex": "4830450221009c90af62ee331a0b765004410736a3bbf6453d177476a4724bf393fb19824317022058368801c40f556d0270bbdc30107263a84b49f255f6ad2e15b596b959fc684e01210242bbf4e7543b618c7aa6a724cd9ccc4559af2d06d269ce69cc2e5816b65913e8"
          },
          "sequence": 4294967295
        }
      ],
      "vout": [
        {
          "value": 20.45377728,
          "n": 0,
          "scriptPubKey": {
            "asm": "OP_DUP OP_HASH160 29986c69a4757bf2e8daf4d0444f2dfc93bdbd7a OP_EQUALVERIFY OP_CHECKSIG",
            "hex": "76a91429986c69a4757bf2e8daf4d0444f2dfc93bdbd7a88ac",
            "reqSigs": 1,
            "type": "pubkeyhash",
            "addresses": [
              "LP1tZeWnJLjLU3UjFhX4XwCF7NE8uhR34i"
            ]
          }
        }
      ],
      "hex": "010000000233db1008a81c4f6e02aeed1252f90452aa59c353f2604f458278b87591f0ccf1000000006b483045022100c294965c1b78dae905ad0a557b3b4d305629542f62a48d7837615d1e28777f5e0220678ea83226740036e2e8cf5d7dbc04fe4d08df2400e2ddb471b2745f5aed3be7012103d0a7d802c94245b2f70aec8d6aa680fae80b483de350728448eafa3b81dd50e0ffffffff75463d4c9426c6a4093f6a65288b7526a92856a2bc94d4c6ebeecd7476313f1e010000006b4830450221009c90af62ee331a0b765004410736a3bbf6453d177476a4724bf393fb19824317022058368801c40f556d0270bbdc30107263a84b49f255f6ad2e15b596b959fc684e01210242bbf4e7543b618c7aa6a724cd9ccc4559af2d06d269ce69cc2e5816b65913e8ffffffff01c0fce979000000001976a91429986c69a4757bf2e8daf4d0444f2dfc93bdbd7a88ac00000000"
    }, 
    {
      "txid": "ed41eebc71f8840e88cbd2cfc4360a43079e9ea9cdd409ccf4fca83e5ed8cac5",
      "hash": "ed41eebc71f8840e88cbd2cfc4360a43079e9ea9cdd409ccf4fca83e5ed8cac5",
      "version": 1,
      "size": 225,
      "vsize": 225,
      "locktime": 1360714,
      "vin": [
        {
          "txid": "cf4dc91fb34fe7d5427d65823397f66717e768001c93d53a92305565a76e212a",
          "vout": 0,
          "scriptSig": {
            "asm": "304402205fabb0c4cb99c807281ebfa87b230c3d1014929c68ca515628889e2bac075d5d022063bf3735b47b4bc57eabba88aaf62e9b5509557094eed9668ddbf5ee20a42f1a[ALL] 0387b7bf126db41f25f0b3a725591cc77cc4282c29690cb410d61ab791ade82075",
            "hex": "47304402205fabb0c4cb99c807281ebfa87b230c3d1014929c68ca515628889e2bac075d5d022063bf3735b47b4bc57eabba88aaf62e9b5509557094eed9668ddbf5ee20a42f1a01210387b7bf126db41f25f0b3a725591cc77cc4282c29690cb410d61ab791ade82075"
          },
          "sequence": 4294967294
        }
      ],
      "vout": [
        {
          "value": 216.46880568,
          "n": 0,
          "scriptPubKey": {
            "asm": "OP_DUP OP_HASH160 611ef87ae604e993ef91778a533dc1902e3f46a0 OP_EQUALVERIFY OP_CHECKSIG",
            "hex": "76a914611ef87ae604e993ef91778a533dc1902e3f46a088ac",
            "reqSigs": 1,
            "type": "pubkeyhash",
            "addresses": [
              "LU5UuhQ5n18VhWbp9nUVBkhkno3gGdveVn"
            ]
          }
        }, 
        {
          "value": 0.89650000,
          "n": 1,
          "scriptPubKey": {
            "asm": "OP_DUP OP_HASH160 0197e504fc840cd683130bb488703c4ac2172a4b OP_EQUALVERIFY OP_CHECKSIG",
            "hex": "76a9140197e504fc840cd683130bb488703c4ac2172a4b88ac",
            "reqSigs": 1,
            "type": "pubkeyhash",
            "addresses": [
              "LKNNuE8VdyUQDd1ByW7UQozHBPKZ4v6oFN"
            ]
          }
        }
      ],
      "hex": "01000000012a216ea7655530923ad5931c0068e71767f6973382657d42d5e74fb31fc94dcf000000006a47304402205fabb0c4cb99c807281ebfa87b230c3d1014929c68ca515628889e2bac075d5d022063bf3735b47b4bc57eabba88aaf62e9b5509557094eed9668ddbf5ee20a42f1a01210387b7bf126db41f25f0b3a725591cc77cc4282c29690cb410d61ab791ade82075feffffff02382f410a050000001976a914611ef87ae604e993ef91778a533dc1902e3f46a088ac50f35705000000001976a9140197e504fc840cd683130bb488703c4ac2172a4b88ac4ac31400"
    }, 
    {
      "txid": "a8a9081ef1dbbd0fde88be60135bf117f1d657712f93ae1afadd65b586f3e7fc",
      "hash": "a8a9081ef1dbbd0fde88be60135bf117f1d657712f93ae1afadd65b586f3e7fc",
      "version": 1,
      "size": 226,
      "vsize": 226,
      "locktime": 0,
      "vin": [
        {
          "txid": "822f2e8bfeb8cd5bfe5aca052a7f4d02a6f584f904ac7f0a3eb3d2a9bc8fca4f",
          "vout": 1,
          "scriptSig": {
            "asm": "3045022100c3917bf8cbf3ab796e9ef13b4da359b8b79bcc68dd39883e5c197eb456bd0e03022010c421ee67b7f4d71a2da3ba56cedada8a01314610a81320d6e5cbe93d3936bd[ALL] 026bf215d6c2137da8a1792bbf4cf693b7ade490c7870440bdd2a9ac95599d752f",
            "hex": "483045022100c3917bf8cbf3ab796e9ef13b4da359b8b79bcc68dd39883e5c197eb456bd0e03022010c421ee67b7f4d71a2da3ba56cedada8a01314610a81320d6e5cbe93d3936bd0121026bf215d6c2137da8a1792bbf4cf693b7ade490c7870440bdd2a9ac95599d752f"
          },
          "sequence": 4294967295
        }
      ],
      "vout": [
        {
          "value": 0.69000000,
          "n": 0,
          "scriptPubKey": {
            "asm": "OP_DUP OP_HASH160 1a8f1bd52e225884272fad6632cd67932d4ec1e6 OP_EQUALVERIFY OP_CHECKSIG",
            "hex": "76a9141a8f1bd52e225884272fad6632cd67932d4ec1e688ac",
            "reqSigs": 1,
            "type": "pubkeyhash",
            "addresses": [
              "LMePGZx38YFPU9ewkoSn2uTVEHSeT9HVM1"
            ]
          }
        }, 
        {
          "value": 18.14078000,
          "n": 1,
          "scriptPubKey": {
            "asm": "OP_DUP OP_HASH160 47473a2579044958e58aeeb4b423d31f03fc700b OP_EQUALVERIFY OP_CHECKSIG",
            "hex": "76a91447473a2579044958e58aeeb4b423d31f03fc700b88ac",
            "reqSigs": 1,
            "type": "pubkeyhash",
            "addresses": [
              "LRiqZnFcrHKw6v4CfeyAKgGtrZzwUSbSMb"
            ]
          }
        }
      ],
      "hex": "01000000014fca8fbca9d2b33e0a7fac04f984f5a6024d7f2a05ca5afe5bcdb8fe8b2e2f82010000006b483045022100c3917bf8cbf3ab796e9ef13b4da359b8b79bcc68dd39883e5c197eb456bd0e03022010c421ee67b7f4d71a2da3ba56cedada8a01314610a81320d6e5cbe93d3936bd0121026bf215d6c2137da8a1792bbf4cf693b7ade490c7870440bdd2a9ac95599d752fffffffff0240db1c04000000001976a9141a8f1bd52e225884272fad6632cd67932d4ec1e688ac30a2206c000000001976a91447473a2579044958e58aeeb4b423d31f03fc700b88ac00000000"
    }, 
    {
      "txid": "2eee3bc01d43ca174445515c259337fa85d8a70300efbaccdb6b94c20b292a39",
      "hash": "2eee3bc01d43ca174445515c259337fa85d8a70300efbaccdb6b94c20b292a39",
      "version": 1,
      "size": 225,
      "vsize": 225,
      "locktime": 1360714,
      "vin": [
        {
          "txid": "d9c294a835bcaf988767e24c42e62931c5ebbf2f2dc72f4298e652c82fdd88a4",
          "vout": 1,
          "scriptSig": {
            "asm": "304402207fd2d0ea1be6259d4d36768d2caef23cd8fca4ad28e738d94952aabfcc38e1a80220099c3f98606f5afedf8c633865aa4d0d0236710504dfe49b12f8387cfc358e4b[ALL] 03ca76f1387beaf54dce0dd45f09368611b1e89873dcead1b76e44f8937487a2fb",
            "hex": "47304402207fd2d0ea1be6259d4d36768d2caef23cd8fca4ad28e738d94952aabfcc38e1a80220099c3f98606f5afedf8c633865aa4d0d0236710504dfe49b12f8387cfc358e4b012103ca76f1387beaf54dce0dd45f09368611b1e89873dcead1b76e44f8937487a2fb"
          },
          "sequence": 4294967294
        }
      ],
      "vout": [
        {
          "value": 0.01000033,
          "n": 0,
          "scriptPubKey": {
            "asm": "OP_DUP OP_HASH160 1474982283b63a18337ec46e5af9bda49122b832 OP_EQUALVERIFY OP_CHECKSIG",
            "hex": "76a9141474982283b63a18337ec46e5af9bda49122b83288ac",
            "reqSigs": 1,
            "type": "pubkeyhash",
            "addresses": [
              "LM67TAMAuveKDEzvhP1Qa7qeuGCbJZx9HZ"
            ]
          }
        }, 
        {
          "value": 0.01000000,
          "n": 1,
          "scriptPubKey": {
            "asm": "OP_DUP OP_HASH160 6ce6fd3b065a8a5806929d7299010a70a3363740 OP_EQUALVERIFY OP_CHECKSIG",
            "hex": "76a9146ce6fd3b065a8a5806929d7299010a70a336374088ac",
            "reqSigs": 1,
            "type": "pubkeyhash",
            "addresses": [
              "LV9mxLhS2X5qf5GMmkkgJbCaMyFsoH3LNH"
            ]
          }
        }
      ],
      "hex": "0100000001a488dd2fc852e698422fc72d2fbfebc53129e6424ce2678798afbc35a894c2d9010000006a47304402207fd2d0ea1be6259d4d36768d2caef23cd8fca4ad28e738d94952aabfcc38e1a80220099c3f98606f5afedf8c633865aa4d0d0236710504dfe49b12f8387cfc358e4b012103ca76f1387beaf54dce0dd45f09368611b1e89873dcead1b76e44f8937487a2fbfeffffff0261420f00000000001976a9141474982283b63a18337ec46e5af9bda49122b83288ac40420f00000000001976a9146ce6fd3b065a8a5806929d7299010a70a336374088ac4ac31400"
    }, 
    {
      "txid": "f1d9e2672c208ce56fb79c2153e2ad136632ae08c61e6f835fb36c4df1fe66da",
      "hash": "f1d9e2672c208ce56fb79c2153e2ad136632ae08c61e6f835fb36c4df1fe66da",
      "version": 1,
      "size": 223,
      "vsize": 223,
      "locktime": 0,
      "vin": [
        {
          "txid": "55afc52234be2b581523dd1186ef4bf918dccd6a27133f86c8618e4c212517eb",
          "vout": 1995,
          "scriptSig": {
            "asm": "30440220396e0cd41cb6bf6b20f9e70ec370e6f1cd13b509c99242dadb4d43c6bd990a2d02204177a410d99b88e506e1bbabe527155622f3bd829ba207401b76b6906778daf0[ALL] 0251d86f4cf22fb14132b1c3b2c7f66e5ca9e60fcf033a857bb59dcc83883d2f67",
            "hex": "4730440220396e0cd41cb6bf6b20f9e70ec370e6f1cd13b509c99242dadb4d43c6bd990a2d02204177a410d99b88e506e1bbabe527155622f3bd829ba207401b76b6906778daf001210251d86f4cf22fb14132b1c3b2c7f66e5ca9e60fcf033a857bb59dcc83883d2f67"
          },
          "sequence": 4294967295
        }
      ],
      "vout": [
        {
          "value": 0.00401000,
          "n": 0,
          "scriptPubKey": {
            "asm": "OP_HASH160 a54e8d393e550882ce66594c9342364e6128096d OP_EQUAL",
            "hex": "a914a54e8d393e550882ce66594c9342364e6128096d87",
            "reqSigs": 1,
            "type": "scripthash",
            "addresses": [
              "MNyDpwsVMUogbs533DjsQe4AjhJtAnWrwd"
            ]
          }
        }, 
        {
          "value": 0.00054862,
          "n": 1,
          "scriptPubKey": {
            "asm": "OP_DUP OP_HASH160 aaffb2e1217025bf9b3dcca8124fd33fffa2a4da OP_EQUALVERIFY OP_CHECKSIG",
            "hex": "76a914aaffb2e1217025bf9b3dcca8124fd33fffa2a4da88ac",
            "reqSigs": 1,
            "type": "pubkeyhash",
            "addresses": [
              "Lap7T5ryri6nq5ZWXfG6kWvTkUDmnghykW"
            ]
          }
        }
      ],
      "hex": "0100000001eb1725214c8e61c8863f13276acddc18f94bef8611dd2315582bbe3422c5af55cb0700006a4730440220396e0cd41cb6bf6b20f9e70ec370e6f1cd13b509c99242dadb4d43c6bd990a2d02204177a410d99b88e506e1bbabe527155622f3bd829ba207401b76b6906778daf001210251d86f4cf22fb14132b1c3b2c7f66e5ca9e60fcf033a857bb59dcc83883d2f67ffffffff02681e06000000000017a914a54e8d393e550882ce66594c9342364e6128096d874ed60000000000001976a914aaffb2e1217025bf9b3dcca8124fd33fffa2a4da88ac00000000"
    }, 
    {
      "txid": "73bafe189c152840a79cd7d2ac1d18ef6350eeadfaec85dcff5cdf0d5b1a1a09",
      "hash": "73bafe189c152840a79cd7d2ac1d18ef6350eeadfaec85dcff5cdf0d5b1a1a09",
      "version": 1,
      "size": 225,
      "vsize": 225,
      "locktime": 0,
      "vin": [
        {
          "txid": "c3c7999b5d445fc6bd418f677e4091dd0ebb9656a8c07c9a561609f595a63b6f",
          "vout": 175,
          "scriptSig": {
            "asm": "3044022054365b42e22f45f611e4eaa13f39b35217f28d8608d112f6227424621d6883e2022034f00ff3d51fc60fdb6e5e00d1bbc522f0b2badef48e9c9c79630d91f5d7e79a[ALL] 022b8a4cb1b9e3960e5cc2b2051a2e78782a8eaf6f949030ae8e785f781eb4fb24",
            "hex": "473044022054365b42e22f45f611e4eaa13f39b35217f28d8608d112f6227424621d6883e2022034f00ff3d51fc60fdb6e5e00d1bbc522f0b2badef48e9c9c79630d91f5d7e79a0121022b8a4cb1b9e3960e5cc2b2051a2e78782a8eaf6f949030ae8e785f781eb4fb24"
          },
          "sequence": 4294967295
        }
      ],
      "vout": [
        {
          "value": 0.00666462,
          "n": 0,
          "scriptPubKey": {
            "asm": "OP_DUP OP_HASH160 eeef93d4b62f253042afc822b4787da32f9ccee0 OP_EQUALVERIFY OP_CHECKSIG",
            "hex": "76a914eeef93d4b62f253042afc822b4787da32f9ccee088ac",
            "reqSigs": 1,
            "type": "pubkeyhash",
            "addresses": [
              "Lh1L617NazvtqnRnwaz1oUEjQUvXf4oGo2"
            ]
          }
        }, 
        {
          "value": 0.10209127,
          "n": 1,
          "scriptPubKey": {
            "asm": "OP_DUP OP_HASH160 b7946039658dc645bc1b7268bbbbbbb5eacd1424 OP_EQUALVERIFY OP_CHECKSIG",
            "hex": "76a914b7946039658dc645bc1b7268bbbbbbb5eacd142488ac",
            "reqSigs": 1,
            "type": "pubkeyhash",
            "addresses": [
              "LbxdfevDGRQq6s6wxoMnARkgaPyfccKVT4"
            ]
          }
        }
      ],
      "hex": "01000000016f3ba695f50916569a7cc0a85696bb0edd91407e678f41bdc65f445d9b99c7c3af0000006a473044022054365b42e22f45f611e4eaa13f39b35217f28d8608d112f6227424621d6883e2022034f00ff3d51fc60fdb6e5e00d1bbc522f0b2badef48e9c9c79630d91f5d7e79a0121022b8a4cb1b9e3960e5cc2b2051a2e78782a8eaf6f949030ae8e785f781eb4fb24ffffffff025e2b0a00000000001976a914eeef93d4b62f253042afc822b4787da32f9ccee088ac67c79b00000000001976a914b7946039658dc645bc1b7268bbbbbbb5eacd142488ac00000000"
    }, 
    {
      "txid": "1814c227e5880496c835d6aa6634fc2dac7e6500f362bb5673f78bc39c081941",
      "hash": "1814c227e5880496c835d6aa6634fc2dac7e6500f362bb5673f78bc39c081941",
      "version": 2,
      "size": 225,
      "vsize": 225,
      "locktime": 1360714,
      "vin": [
        {
          "txid": "f980bcee59b0f4d0d65d751580e7e18b9a9062ead18830c2eaf81323684bf6a2",
          "vout": 0,
          "scriptSig": {
            "asm": "304402205c0ec587d874c74967208ac4542add1047e4fc67c23e7ec826a887354269e16f02204144bbb5b3a9ac6d9cef68aca289f4663688e089102443820cb759660acf4bde[ALL] 02ed0f767693961bfd00abc5c81edc30d31149d79f4f5d15dca35b0ea074613f1f",
            "hex": "47304402205c0ec587d874c74967208ac4542add1047e4fc67c23e7ec826a887354269e16f02204144bbb5b3a9ac6d9cef68aca289f4663688e089102443820cb759660acf4bde012102ed0f767693961bfd00abc5c81edc30d31149d79f4f5d15dca35b0ea074613f1f"
          },
          "sequence": 4294967294
        }
      ],
      "vout": [
        {
          "value": 0.10473909,
          "n": 0,
          "scriptPubKey": {
            "asm": "OP_DUP OP_HASH160 792a08b39129263e566fd8d8c256ca0541641fb0 OP_EQUALVERIFY OP_CHECKSIG",
            "hex": "76a914792a08b39129263e566fd8d8c256ca0541641fb088ac",
            "reqSigs": 1,
            "type": "pubkeyhash",
            "addresses": [
              "LWGcNzoEU4nen4tSfrC2Vw4DGfJDazU2p6"
            ]
          }
        }, 
        {
          "value": 292.50394410,
          "n": 1,
          "scriptPubKey": {
            "asm": "OP_DUP OP_HASH160 72fdc63885038b5e72b90425956b1a864f0111f8 OP_EQUALVERIFY OP_CHECKSIG",
            "hex": "76a91472fdc63885038b5e72b90425956b1a864f0111f888ac",
            "reqSigs": 1,
            "type": "pubkeyhash",
            "addresses": [
              "LVhyJdSk63HJEteD6KAzdEEs3iYk8bmcp9"
            ]
          }
        }
      ],
      "hex": "0200000001a2f64b682313f8eac23088d1ea62909a8be1e78015755dd6d0f4b059eebc80f9000000006a47304402205c0ec587d874c74967208ac4542add1047e4fc67c23e7ec826a887354269e16f02204144bbb5b3a9ac6d9cef68aca289f4663688e089102443820cb759660acf4bde012102ed0f767693961bfd00abc5c81edc30d31149d79f4f5d15dca35b0ea074613f1ffeffffff02b5d19f00000000001976a914792a08b39129263e566fd8d8c256ca0541641fb088ac2a9975cf060000001976a91472fdc63885038b5e72b90425956b1a864f0111f888ac4ac31400"
    }, 
    {
      "txid": "758d2af678db072ffc0d517cd460a3e229879c09152951af56629d89cf183e56",
      "hash": "758d2af678db072ffc0d517cd460a3e229879c09152951af56629d89cf183e56",
      "version": 1,
      "size": 225,
      "vsize": 225,
      "locktime": 0,
      "vin": [
        {
          "txid": "e5f87e17e09aab64c089f76889251430f714cab0e1090e595fb73f3af3ea416a",
          "vout": 0,
          "scriptSig": {
            "asm": "3044022011aa7ed4d037f33dd1ab13d3cb7c3e5ee389d2a11cb7dfa7bd3b03a8ffd963ce022078dfb080128a277831e0f7eeed6db320fb6fa529801ca18caa915433090e9eb8[ALL] 03622c390155dfc846a4dfcf3a0d0353f23761bee88a67e22aca3036c8046ebdb8",
            "hex": "473044022011aa7ed4d037f33dd1ab13d3cb7c3e5ee389d2a11cb7dfa7bd3b03a8ffd963ce022078dfb080128a277831e0f7eeed6db320fb6fa529801ca18caa915433090e9eb8012103622c390155dfc846a4dfcf3a0d0353f23761bee88a67e22aca3036c8046ebdb8"
          },
          "sequence": 4294967295
        }
      ],
      "vout": [
        {
          "value": 0.64163819,
          "n": 0,
          "scriptPubKey": {
            "asm": "OP_DUP OP_HASH160 aec7700c10792d6232a22346a88392b811e3a486 OP_EQUALVERIFY OP_CHECKSIG",
            "hex": "76a914aec7700c10792d6232a22346a88392b811e3a48688ac",
            "reqSigs": 1,
            "type": "pubkeyhash",
            "addresses": [
              "LbA6kmJoVF92oXgLL8qr8yHpKErWNPjb3x"
            ]
          }
        }, 
        {
          "value": 0.00522431,
          "n": 1,
          "scriptPubKey": {
            "asm": "OP_DUP OP_HASH160 4fd233423a3cb35db6f22335694bcd970c75ce7e OP_EQUALVERIFY OP_CHECKSIG",
            "hex": "76a9144fd233423a3cb35db6f22335694bcd970c75ce7e88ac",
            "reqSigs": 1,
            "type": "pubkeyhash",
            "addresses": [
              "LSW1TLRBP6XjqmxNsvYaTx9km14c5mSrSU"
            ]
          }
        }
      ],
      "hex": "01000000016a41eaf33a3fb75f590e09e1b0ca14f73014258968f789c064ab9ae0177ef8e5000000006a473044022011aa7ed4d037f33dd1ab13d3cb7c3e5ee389d2a11cb7dfa7bd3b03a8ffd963ce022078dfb080128a277831e0f7eeed6db320fb6fa529801ca18caa915433090e9eb8012103622c390155dfc846a4dfcf3a0d0353f23761bee88a67e22aca3036c8046ebdb8ffffffff02eb0fd303000000001976a914aec7700c10792d6232a22346a88392b811e3a48688acbff80700000000001976a9144fd233423a3cb35db6f22335694bcd970c75ce7e88ac00000000"
    }, 
    {
      "txid": "050e3e9d6cac45124523bb72dc735a851d8a20aaa1f2a98ed896ace50455ef7b",
      "hash": "050e3e9d6cac45124523bb72dc735a851d8a20aaa1f2a98ed896ace50455ef7b",
      "version": 1,
      "size": 225,
      "vsize": 225,
      "locktime": 0,
      "vin": [
        {
          "txid": "856e36a1ce372b2191bfc84167fda3fa110fdab77977c69c09702746e8b8586f",
          "vout": 0,
          "scriptSig": {
            "asm": "304402207ef171b6ee1531c50821c2e2624bdee280cd10276c5e0410a1a0e3ac3adecd40022070ccba5f404454aed61562f4814d6a3e6df99f91de28167b878914a9eae5fe30[ALL] 02793988c3cf431cfaa5d174a2c513da5ad7a1724323a26f1b1d6869248037e572",
            "hex": "47304402207ef171b6ee1531c50821c2e2624bdee280cd10276c5e0410a1a0e3ac3adecd40022070ccba5f404454aed61562f4814d6a3e6df99f91de28167b878914a9eae5fe30012102793988c3cf431cfaa5d174a2c513da5ad7a1724323a26f1b1d6869248037e572"
          },
          "sequence": 4294967295
        }
      ],
      "vout": [
        {
          "value": 1.00000000,
          "n": 0,
          "scriptPubKey": {
            "asm": "OP_DUP OP_HASH160 38db15034a7767f231fb4c0d574a8314b420e742 OP_EQUALVERIFY OP_CHECKSIG",
            "hex": "76a91438db15034a7767f231fb4c0d574a8314b420e74288ac",
            "reqSigs": 1,
            "type": "pubkeyhash",
            "addresses": [
              "LQQaZ3ayMQoMtrffRjakpwmcPKgL2Kjg42"
            ]
          }
        }, 
        {
          "value": 0.51700359,
          "n": 1,
          "scriptPubKey": {
            "asm": "OP_DUP OP_HASH160 8c92f28e1340c3b0538f9f788d78438d2160df3a OP_EQUALVERIFY OP_CHECKSIG",
            "hex": "76a9148c92f28e1340c3b0538f9f788d78438d2160df3a88ac",
            "reqSigs": 1,
            "type": "pubkeyhash",
            "addresses": [
              "LY3EuABpQQ6m7rznyr61XUC7UfsiHdvdET"
            ]
          }
        }
      ],
      "hex": "01000000016f58b8e8462770099cc67779b7da0f11faa3fd6741c8bf91212b37cea1366e85000000006a47304402207ef171b6ee1531c50821c2e2624bdee280cd10276c5e0410a1a0e3ac3adecd40022070ccba5f404454aed61562f4814d6a3e6df99f91de28167b878914a9eae5fe30012102793988c3cf431cfaa5d174a2c513da5ad7a1724323a26f1b1d6869248037e572ffffffff0200e1f505000000001976a91438db15034a7767f231fb4c0d574a8314b420e74288ac87e21403000000001976a9148c92f28e1340c3b0538f9f788d78438d2160df3a88ac00000000"
    }, 
    {
      "txid": "ba6635c2278a6a020756d3a2b6a14b0c393e397deff89df05604154b7238bd4b",
      "hash": "ba6635c2278a6a020756d3a2b6a14b0c393e397deff89df05604154b7238bd4b",
      "version": 2,
      "size": 962,
      "vsize": 962,
      "locktime": 1360714,
      "vin": [
        {
          "txid": "b91d2576b837eeb3bbb9c351b89be555c2f68d322ab6d472a153be0b515a8154",
          "vout": 1,
          "scriptSig": {
            "asm": "3045022100da7cb6761ea3ec86dd5b13538361bdb9ff0182589a13e2482fa4c2f770ef11ab0220148e6ceddf73702098c39b3ad8bcb269bac4ce904d7a6aad2d6a856ca1d5091b[ALL] 03d9ee87bb92878022e392734a5d7de1a7a03c8bdbca4a877003bc65786050eb7e",
            "hex": "483045022100da7cb6761ea3ec86dd5b13538361bdb9ff0182589a13e2482fa4c2f770ef11ab0220148e6ceddf73702098c39b3ad8bcb269bac4ce904d7a6aad2d6a856ca1d5091b012103d9ee87bb92878022e392734a5d7de1a7a03c8bdbca4a877003bc65786050eb7e"
          },
          "sequence": 4294967294
        }, 
        {
          "txid": "44a93ab3ceb4a72ff7f3b37ece7a459b4e08ecd53c0d4b3669a72506d8b2b22d",
          "vout": 1,
          "scriptSig": {
            "asm": "3045022100fdfdb8a3df966d073e2d3e1ad5a28d2867c94280d19f6f258de1a69d936510e6022011c5c088ffd8ef46ec94035911ae412ebed76c99c12c7fde9ae0dbab5c9689a8[ALL] 02259b73d7fa417cab699af33ac2da7ce7a969b2eb5ef161ea8e35ada52394dd96",
            "hex": "483045022100fdfdb8a3df966d073e2d3e1ad5a28d2867c94280d19f6f258de1a69d936510e6022011c5c088ffd8ef46ec94035911ae412ebed76c99c12c7fde9ae0dbab5c9689a8012102259b73d7fa417cab699af33ac2da7ce7a969b2eb5ef161ea8e35ada52394dd96"
          },
          "sequence": 4294967294
        }, 
        {
          "txid": "a0e83e074b7fc895621bed04fd7ebd78ec0910addd47f94096a9a66df75092cb",
          "vout": 1,
          "scriptSig": {
            "asm": "304402200a1544a26d2fdfc59ba0a743f5ef519b4636101f56df56b30d3d434f87aee98e022023bfae0b9ace909ef68131feda4f75a7523e111490f3247a651839461b45e9a0[ALL] 037aa6011f043738b6afa2f02e2b186d4800f9aab5100c0cd8080c7875a2241678",
            "hex": "47304402200a1544a26d2fdfc59ba0a743f5ef519b4636101f56df56b30d3d434f87aee98e022023bfae0b9ace909ef68131feda4f75a7523e111490f3247a651839461b45e9a00121037aa6011f043738b6afa2f02e2b186d4800f9aab5100c0cd8080c7875a2241678"
          },
          "sequence": 4294967294
        }, 
        {
          "txid": "89c1f825298f85d80595a7e985ca53f5e26ff7cdf240cf62f7eee133dca40db4",
          "vout": 2,
          "scriptSig": {
            "asm": "30440220046a91858b3fe257d16d5f1213a7bb69e8d2809710524aeb5b76289022c9f05a02200d93d8c8832337aaecceeb125adcf0716d15dc68da772f4e1133a1206570d6fd[ALL] 03534121e4dd7e7b7a4e2baa9f0dbd80d1068f2ec49c0ef55a393ce046d1f0cb35",
            "hex": "4730440220046a91858b3fe257d16d5f1213a7bb69e8d2809710524aeb5b76289022c9f05a02200d93d8c8832337aaecceeb125adcf0716d15dc68da772f4e1133a1206570d6fd012103534121e4dd7e7b7a4e2baa9f0dbd80d1068f2ec49c0ef55a393ce046d1f0cb35"
          },
          "sequence": 4294967294
        }, 
        {
          "txid": "39ecd0165300ad0db4181df3a8c0959f9b1d8e7957fb3d10eed9e08e28c8166f",
          "vout": 1,
          "scriptSig": {
            "asm": "304402207ffc48e1c7f6cf5455ad31e843c6c9752b45983c65b3922b5311b0cdd23766d3022047055705ae36b8a4ade8ca863e96ec76fcde9b63010627e0680d7da869f98d09[ALL] 024644b0f3684d6d9d6865f13df6345e7d4b54c3bfee11805e7cdd5e49a65f27a6",
            "hex": "47304402207ffc48e1c7f6cf5455ad31e843c6c9752b45983c65b3922b5311b0cdd23766d3022047055705ae36b8a4ade8ca863e96ec76fcde9b63010627e0680d7da869f98d090121024644b0f3684d6d9d6865f13df6345e7d4b54c3bfee11805e7cdd5e49a65f27a6"
          },
          "sequence": 4294967294
        }, 
        {
          "txid": "b6e6a5f0ff7e8c8182068de08501402e6b7455e681ad332f518c81787332c9a7",
          "vout": 2,
          "scriptSig": {
            "asm": "304402200fa850410df929fd63e981b91588e27592d7050ac44cc94645ab4c0f351c064b0220132458a65c9950e0faac4a1f868fd3480b557dd1ebf8fc3e2825f85bba0429e4[ALL] 03f18039c088b68229a74003ce064d227d53f80de5af752668a640adcba999fbce",
            "hex": "47304402200fa850410df929fd63e981b91588e27592d7050ac44cc94645ab4c0f351c064b0220132458a65c9950e0faac4a1f868fd3480b557dd1ebf8fc3e2825f85bba0429e4012103f18039c088b68229a74003ce064d227d53f80de5af752668a640adcba999fbce"
          },
          "sequence": 4294967294
        }
      ],
      "vout": [
        {
          "value": 1.00000000,
          "n": 0,
          "scriptPubKey": {
            "asm": "OP_DUP OP_HASH160 3192b0be55a25e1a9c5cc858f84f242680ee9bf0 OP_EQUALVERIFY OP_CHECKSIG",
            "hex": "76a9143192b0be55a25e1a9c5cc858f84f242680ee9bf088ac",
            "reqSigs": 1,
            "type": "pubkeyhash",
            "addresses": [
              "LPk56qiHL74iABSm9pXj41ZxQ3YgsUJYni"
            ]
          }
        }, 
        {
          "value": 0.00903923,
          "n": 1,
          "scriptPubKey": {
            "asm": "OP_DUP OP_HASH160 ff75c65b8d2caeef3a49ea4438d7fada6286cd48 OP_EQUALVERIFY OP_CHECKSIG",
            "hex": "76a914ff75c65b8d2caeef3a49ea4438d7fada6286cd4888ac",
            "reqSigs": 1,
            "type": "pubkeyhash",
            "addresses": [
              "LiWhfGYFsiF4zhbRDXy42LbeTittDnTCVg"
            ]
          }
        }
      ],
      "hex": "020000000654815a510bbe53a172d4b62a328df6c255e59bb851c3b9bbb3ee37b876251db9010000006b483045022100da7cb6761ea3ec86dd5b13538361bdb9ff0182589a13e2482fa4c2f770ef11ab0220148e6ceddf73702098c39b3ad8bcb269bac4ce904d7a6aad2d6a856ca1d5091b012103d9ee87bb92878022e392734a5d7de1a7a03c8bdbca4a877003bc65786050eb7efeffffff2db2b2d80625a769364b0d3cd5ec084e9b457ace7eb3f3f72fa7b4ceb33aa944010000006b483045022100fdfdb8a3df966d073e2d3e1ad5a28d2867c94280d19f6f258de1a69d936510e6022011c5c088ffd8ef46ec94035911ae412ebed76c99c12c7fde9ae0dbab5c9689a8012102259b73d7fa417cab699af33ac2da7ce7a969b2eb5ef161ea8e35ada52394dd96feffffffcb9250f76da6a99640f947ddad1009ec78bd7efd04ed1b6295c87f4b073ee8a0010000006a47304402200a1544a26d2fdfc59ba0a743f5ef519b4636101f56df56b30d3d434f87aee98e022023bfae0b9ace909ef68131feda4f75a7523e111490f3247a651839461b45e9a00121037aa6011f043738b6afa2f02e2b186d4800f9aab5100c0cd8080c7875a2241678feffffffb40da4dc33e1eef762cf40f2cdf76fe2f553ca85e9a79505d8858f2925f8c189020000006a4730440220046a91858b3fe257d16d5f1213a7bb69e8d2809710524aeb5b76289022c9f05a02200d93d8c8832337aaecceeb125adcf0716d15dc68da772f4e1133a1206570d6fd012103534121e4dd7e7b7a4e2baa9f0dbd80d1068f2ec49c0ef55a393ce046d1f0cb35feffffff6f16c8288ee0d9ee103dfb57798e1d9b9f95c0a8f31d18b40dad005316d0ec39010000006a47304402207ffc48e1c7f6cf5455ad31e843c6c9752b45983c65b3922b5311b0cdd23766d3022047055705ae36b8a4ade8ca863e96ec76fcde9b63010627e0680d7da869f98d090121024644b0f3684d6d9d6865f13df6345e7d4b54c3bfee11805e7cdd5e49a65f27a6feffffffa7c9327378818c512f33ad81e655746b2e400185e08d0682818c7efff0a5e6b6020000006a47304402200fa850410df929fd63e981b91588e27592d7050ac44cc94645ab4c0f351c064b0220132458a65c9950e0faac4a1f868fd3480b557dd1ebf8fc3e2825f85bba0429e4012103f18039c088b68229a74003ce064d227d53f80de5af752668a640adcba999fbcefeffffff0200e1f505000000001976a9143192b0be55a25e1a9c5cc858f84f242680ee9bf088acf3ca0d00000000001976a914ff75c65b8d2caeef3a49ea4438d7fada6286cd4888ac4ac31400"
    }, 
    {
      "txid": "21801949c675490f9c2f7de25555382ef1025bed5b49e06e5a3ae25f2a415297",
      "hash": "21801949c675490f9c2f7de25555382ef1025bed5b49e06e5a3ae25f2a415297",
      "version": 2,
      "size": 226,
      "vsize": 226,
      "locktime": 1360714,
      "vin": [
        {
          "txid": "1c9d78eee4e155440bb36af27c785fcc974ab1c8faf206e5e028eeccc7d9e750",
          "vout": 0,
          "scriptSig": {
            "asm": "3045022100faece8605b8efb90d547c68af028bec0f9d52c10e6d57fe40a70f9f75bf9cfa902204fa108745b049943eb3bf63c81ed6580e39c02c4fa81822fd0b5a583335eb426[ALL] 030cc49a18107ac21f6b7f126c5b47c47ff98c16537031db34a6e01fb39ab14833",
            "hex": "483045022100faece8605b8efb90d547c68af028bec0f9d52c10e6d57fe40a70f9f75bf9cfa902204fa108745b049943eb3bf63c81ed6580e39c02c4fa81822fd0b5a583335eb4260121030cc49a18107ac21f6b7f126c5b47c47ff98c16537031db34a6e01fb39ab14833"
          },
          "sequence": 4294967294
        }
      ],
      "vout": [
        {
          "value": 44.25811316,
          "n": 0,
          "scriptPubKey": {
            "asm": "OP_DUP OP_HASH160 f5bd78eea5db639b1681bcd7b582860e8c047d4a OP_EQUALVERIFY OP_CHECKSIG",
            "hex": "76a914f5bd78eea5db639b1681bcd7b582860e8c047d4a88ac",
            "reqSigs": 1,
            "type": "pubkeyhash",
            "addresses": [
              "LhdJnz2VjFxgVbU6EVrc3QkNHJ5vcFMvWx"
            ]
          }
        }, 
        {
          "value": 6.45538142,
          "n": 1,
          "scriptPubKey": {
            "asm": "OP_DUP OP_HASH160 b721e613dc960621d159419e0b412f51ce16c191 OP_EQUALVERIFY OP_CHECKSIG",
            "hex": "76a914b721e613dc960621d159419e0b412f51ce16c19188ac",
            "reqSigs": 1,
            "type": "pubkeyhash",
            "addresses": [
              "LbvGXeHt8udmxgc9rHR6aDF2qqgPRjY3Po"
            ]
          }
        }
      ],
      "hex": "020000000150e7d9c7ccee28e0e506f2fac8b14a97cc5f787cf26ab30b4455e1e4ee789d1c000000006b483045022100faece8605b8efb90d547c68af028bec0f9d52c10e6d57fe40a70f9f75bf9cfa902204fa108745b049943eb3bf63c81ed6580e39c02c4fa81822fd0b5a583335eb4260121030cc49a18107ac21f6b7f126c5b47c47ff98c16537031db34a6e01fb39ab14833feffffff027485cc07010000001976a914f5bd78eea5db639b1681bcd7b582860e8c047d4a88ac5e217a26000000001976a914b721e613dc960621d159419e0b412f51ce16c19188ac4ac31400"
    }, 
    {
      "txid": "8dc9debd244cc3aac5373de6df6553af0582e97befe1ada08973f768b2450fb6",
      "hash": "8dc9debd244cc3aac5373de6df6553af0582e97befe1ada08973f768b2450fb6",
      "version": 2,
      "size": 226,
      "vsize": 226,
      "locktime": 1360714,
      "vin": [
        {
          "txid": "c0c1890a81f57d5d36140648cf5787d6d640aaeeb1846aaf3d8f563d274cc1b5",
          "vout": 0,
          "scriptSig": {
            "asm": "3045022100e5863ffbb928e5c5e84fdf8663a8defa2a2556fe8ab18970b2982189c7cc162502200b45aa955bc2c1a598acb15e1f58385c8b4bcff1382800a89ac97855aa9eefbc[ALL] 0247764a88ba204a76a9f4c6bc80b88a15ddf9d4726c5e4055297db294434d4515",
            "hex": "483045022100e5863ffbb928e5c5e84fdf8663a8defa2a2556fe8ab18970b2982189c7cc162502200b45aa955bc2c1a598acb15e1f58385c8b4bcff1382800a89ac97855aa9eefbc01210247764a88ba204a76a9f4c6bc80b88a15ddf9d4726c5e4055297db294434d4515"
          },
          "sequence": 4294967294
        }
      ],
      "vout": [
        {
          "value": 1.00207315,
          "n": 0,
          "scriptPubKey": {
            "asm": "OP_DUP OP_HASH160 6a360c61c46830ab832daa87cffd93db81317532 OP_EQUALVERIFY OP_CHECKSIG",
            "hex": "76a9146a360c61c46830ab832daa87cffd93db8131753288ac",
            "reqSigs": 1,
            "type": "pubkeyhash",
            "addresses": [
              "LUuYdtmeZWzpUCMs6B7s2wigZrEpsFpjde"
            ]
          }
        }, 
        {
          "value": 1.99800000,
          "n": 1,
          "scriptPubKey": {
            "asm": "OP_DUP OP_HASH160 e3469fba4e06567cf91389353afd95c407ad3c97 OP_EQUALVERIFY OP_CHECKSIG",
            "hex": "76a914e3469fba4e06567cf91389353afd95c407ad3c9788ac",
            "reqSigs": 1,
            "type": "pubkeyhash",
            "addresses": [
              "LfwgFo6qW8SUv5aeSQRhbXjC9ef9bkYaYT"
            ]
          }
        }
      ],
      "hex": "0200000001b5c14c273d568f3daf6a84b1eeaa40d6d68757cf480614365d7df5810a89c1c0000000006b483045022100e5863ffbb928e5c5e84fdf8663a8defa2a2556fe8ab18970b2982189c7cc162502200b45aa955bc2c1a598acb15e1f58385c8b4bcff1382800a89ac97855aa9eefbc01210247764a88ba204a76a9f4c6bc80b88a15ddf9d4726c5e4055297db294434d4515feffffff02d30af905000000001976a9146a360c61c46830ab832daa87cffd93db8131753288acc0b4e80b000000001976a914e3469fba4e06567cf91389353afd95c407ad3c9788ac4ac31400"
    }, 
    {
      "txid": "d094cace2758a56a28140b37c8e389a4eef6028ff759a5cb2956e9801ffed6be",
      "hash": "d094cace2758a56a28140b37c8e389a4eef6028ff759a5cb2956e9801ffed6be",
      "version": 2,
      "size": 226,
      "vsize": 226,
      "locktime": 1360714,
      "vin": [
        {
          "txid": "778ed01e5485a8882487f39afd61d3398645ac2f24d718b57bddfe149daecd95",
          "vout": 0,
          "scriptSig": {
            "asm": "3045022100d9d86e98b1e749ce8fbed82b3c22031bd5d78de4f4886a1eb0665e2987ad0eb1022060e6ded64dd47d51aa5eccdbf9a18c79a467a81890153f0b88b0991e211d15ba[ALL] 032a7609c24c680d3d284469f4f9121854d7a84842433ff41d35ba57ba758584b8",
            "hex": "483045022100d9d86e98b1e749ce8fbed82b3c22031bd5d78de4f4886a1eb0665e2987ad0eb1022060e6ded64dd47d51aa5eccdbf9a18c79a467a81890153f0b88b0991e211d15ba0121032a7609c24c680d3d284469f4f9121854d7a84842433ff41d35ba57ba758584b8"
          },
          "sequence": 4294967294
        }
      ],
      "vout": [
        {
          "value": 0.61483228,
          "n": 0,
          "scriptPubKey": {
            "asm": "OP_DUP OP_HASH160 5ddc6e7e1b95ebdc1e92a9b22c425d30dcc73108 OP_EQUALVERIFY OP_CHECKSIG",
            "hex": "76a9145ddc6e7e1b95ebdc1e92a9b22c425d30dcc7310888ac",
            "reqSigs": 1,
            "type": "pubkeyhash",
            "addresses": [
              "LTnFAujwGpHJeWC5h5HjAJKhWLUZzSjWnX"
            ]
          }
        }, 
        {
          "value": 0.01013809,
          "n": 1,
          "scriptPubKey": {
            "asm": "OP_DUP OP_HASH160 ca6c38d84b646008b73407e8b97ab767b0b52635 OP_EQUALVERIFY OP_CHECKSIG",
            "hex": "76a914ca6c38d84b646008b73407e8b97ab767b0b5263588ac",
            "reqSigs": 1,
            "type": "pubkeyhash",
            "addresses": [
              "LdgGQMzBgNfRigbQA9D4tS9xH4zzoM46cF"
            ]
          }
        }
      ],
      "hex": "020000000195cdae9d14fedd7bb518d7242fac458639d361fd9af3872488a885541ed08e77000000006b483045022100d9d86e98b1e749ce8fbed82b3c22031bd5d78de4f4886a1eb0665e2987ad0eb1022060e6ded64dd47d51aa5eccdbf9a18c79a467a81890153f0b88b0991e211d15ba0121032a7609c24c680d3d284469f4f9121854d7a84842433ff41d35ba57ba758584b8feffffff02dc28aa03000000001976a9145ddc6e7e1b95ebdc1e92a9b22c425d30dcc7310888ac31780f00000000001976a914ca6c38d84b646008b73407e8b97ab767b0b5263588ac4ac31400"
    }
  ],
  "time": 1517470998,
  "mediantime": 1517470053,
  "nonce": 3589034024,
  "bits": "1a042eae",
  "difficulty": 4011378.762614286,
  "chainwork": "00000000000000000000000000000000000000000000003532d44e68d4818f1a",
  "previousblockhash": "5f1ef44cbab8ef8549b859c77cb54ede2b738acff51fe196e6b21349d187735e",
  "nextblockhash": "60922d967af23bf59ac68a442adabc8f7cd26b3992a586a946f5ab322dc8ee08"
}
