{
  "hash": "8257c953fd0af345378c9bfd785a6ffd87878e6d52a113bd3318675956a3c96a",
  "confirmations": 928,
  "strippedsize": 253,
  "size": 253,
  "weight": 1012,
  "height": 1360066,
  "version": 536870912,
  "versionHex": "20000000",
  "merkleroot": "b05c08fd5916956633056cabb940838f6c21595752f2f1ba20a906ffe9aa90e6",
  "tx": [
    {
      "txid": "b05c08fd5916956633056cabb940838f6c21595752f2f1ba20a906ffe9aa90e6",
      "hash": "b05c08fd5916956633056cabb940838f6c21595752f2f1ba20a906ffe9aa90e6",
      "version": 1,
      "size": 172,
      "vsize": 172,
      "locktime": 0,
      "vin": [
        {
          "coinbase": "03c2c0141a4d696e656420627920416e74506f6f6c20626a3242205a7138d6fabe6d6da4c515b5ef271dae219be4c0e142fec184398e6673de187673a74c159c9f3d2c0400000000000000d22600000000000004000000",
          "sequence": 4294967295
        }
      ],
      "vout": [
        {
          "value": 25.00000000,
          "n": 0,
          "scriptPubKey": {
            "asm": "OP_DUP OP_HASH160 0ff3ccc5e8be88afe24b5d634e5852d474dbdff1 OP_EQUALVERIFY OP_CHECKSIG",
            "hex": "76a9140ff3ccc5e8be88afe24b5d634e5852d474dbdff188ac",
            "reqSigs": 1,
            "type": "pubkeyhash",
            "addresses": [
              "LLgJTbzZMsRTCUF1NtvvL9SR1a4pVieW89"
            ]
          }
        }
      ],
      "hex": "01000000010000000000000000000000000000000000000000000000000000000000000000ffffffff5703c2c0141a4d696e656420627920416e74506f6f6c20626a3242205a7138d6fabe6d6da4c515b5ef271dae219be4c0e142fec184398e6673de187673a74c159c9f3d2c0400000000000000d22600000000000004000000ffffffff0100f90295000000001976a9140ff3ccc5e8be88afe24b5d634e5852d474dbdff188ac00000000"
    }
  ],
  "time": 1517369558,
  "mediantime": 1517369093,
  "nonce": 833701654,
  "bits": "1a042eae",
  "difficulty": 4011378.762614286,
  "chainwork": "0000000000000000000000000000000000000000000000349769fd9ad0af2b06",
  "previousblockhash": "2ce400b45c7533fc830684902d39ae4af05a4bb88f54187614e111e2612b9b0e",
  "nextblockhash": "c7a4746d9183dc49fcf9dbd332fca51979f5832d48ffb748f979dba813413f18"
}
