{
  "hash": "826399d917a8f8072cf9163e0b7ab05af14d95585e3b5df083d0f501ad6d5365",
  "confirmations": 3695,
  "strippedsize": 254,
  "size": 254,
  "weight": 1016,
  "height": 1357300,
  "version": 536870912,
  "versionHex": "20000000",
  "merkleroot": "8dd8685e4f6eb65bfad8f44332e75cbf490db777cf439166ddd154641abe5617",
  "tx": [
    {
      "txid": "8dd8685e4f6eb65bfad8f44332e75cbf490db777cf439166ddd154641abe5617",
      "hash": "8dd8685e4f6eb65bfad8f44332e75cbf490db777cf439166ddd154641abe5617",
      "version": 1,
      "size": 173,
      "vsize": 173,
      "locktime": 0,
      "vin": [
        {
          "coinbase": "03f4b5141b4d696e656420627920416e74506f6f6c20626a302042205a6b5ba7fabe6d6d68a6d9182b380a99a44719e8e93f85ff1b0ef0abc2cca482bc3feb7df603f4ae0400000000000000f21000000000000020000000",
          "sequence": 4294967295
        }
      ],
      "vout": [
        {
          "value": 25.00000000,
          "n": 0,
          "scriptPubKey": {
            "asm": "OP_DUP OP_HASH160 0ff3ccc5e8be88afe24b5d634e5852d474dbdff1 OP_EQUALVERIFY OP_CHECKSIG",
            "hex": "76a9140ff3ccc5e8be88afe24b5d634e5852d474dbdff188ac",
            "reqSigs": 1,
            "type": "pubkeyhash",
            "addresses": [
              "LLgJTbzZMsRTCUF1NtvvL9SR1a4pVieW89"
            ]
          }
        }
      ],
      "hex": "01000000010000000000000000000000000000000000000000000000000000000000000000ffffffff5803f4b5141b4d696e656420627920416e74506f6f6c20626a302042205a6b5ba7fabe6d6d68a6d9182b380a99a44719e8e93f85ff1b0ef0abc2cca482bc3feb7df603f4ae0400000000000000f21000000000000020000000ffffffff0100f90295000000001976a9140ff3ccc5e8be88afe24b5d634e5852d474dbdff188ac00000000"
    }
  ],
  "time": 1516985255,
  "mediantime": 1516984923,
  "nonce": 642079821,
  "bits": "1a047f14",
  "difficulty": 3731199.183374282,
  "chainwork": "0000000000000000000000000000000000000000000000321ad4229794daf9e2",
  "previousblockhash": "526c7996b188d3c66c1365607942457d12cad861803c88a6a380297741cdcfc0",
  "nextblockhash": "0ce545648b9054fa2937b5c2f70f6b57f47af5bc1b53cd3c6b51732eb8951c8d"
}
