{
  "hash": "828e86e793f15ece3256f253035f2e3396165bc56ac9d3c0c76b750caee19940",
  "confirmations": 3713,
  "strippedsize": 5216,
  "size": 5362,
  "weight": 21010,
  "height": 1357282,
  "version": 536870912,
  "versionHex": "20000000",
  "merkleroot": "6c98bb4ed6738d35bd8cafc3786ba74dd4a17d7410bf5474125e8291ccbdd209",
  "tx": [
    {
      "txid": "430d44241d667b36c25b1f51b57556779fe9fc589e594452538f3a9db8665f09",
      "hash": "389211adb44da27558c85030185448ad805fab3e3c1dd335b34aaeff3be2e053",
      "version": 1,
      "size": 277,
      "vsize": 250,
      "locktime": 949287190,
      "vin": [
        {
          "coinbase": "03e2b5142cfabe6d6da51d16d2787b96aa1711a23aa8f9b2e7c4ef2ea3a7de2d9af560d256e0a85fd808000000f09f909f124d696e6564206279206a756e776569736b790000000000000000000000000000000000000000000000000000000000000000",
          "sequence": 3
        }
      ],
      "vout": [
        {
          "value": 25.01313533,
          "n": 0,
          "scriptPubKey": {
            "asm": "OP_DUP OP_HASH160 aa3750aa18b8a0f3f0590731e1fab934856680cf OP_EQUALVERIFY OP_CHECKSIG",
            "hex": "76a914aa3750aa18b8a0f3f0590731e1fab934856680cf88ac",
            "reqSigs": 1,
            "type": "pubkeyhash",
            "addresses": [
              "LajyQBeZaBA1NkZDeY8YT5RYYVRkXMvb2T"
            ]
          }
        }, 
        {
          "value": 0.00000000,
          "n": 1,
          "scriptPubKey": {
            "asm": "OP_RETURN aa21a9ed33f51f2452d6f2910c04b10f7aa8a31560e3fdcea91205849054aed8b3a32800 0000000000000000",
            "hex": "6a24aa21a9ed33f51f2452d6f2910c04b10f7aa8a31560e3fdcea91205849054aed8b3a32800080000000000000000",
            "type": "nulldata"
          }
        }
      ],
      "hex": "010000000001010000000000000000000000000000000000000000000000000000000000000000ffffffff6403e2b5142cfabe6d6da51d16d2787b96aa1711a23aa8f9b2e7c4ef2ea3a7de2d9af560d256e0a85fd808000000f09f909f124d696e6564206279206a756e776569736b7900000000000000000000000000000000000000000000000000000000000000000300000002fd031795000000001976a914aa3750aa18b8a0f3f0590731e1fab934856680cf88ac00000000000000002f6a24aa21a9ed33f51f2452d6f2910c04b10f7aa8a31560e3fdcea91205849054aed8b3a328000800000000000000000120000000000000000000000000000000000000000000000000000000000000000016f99438"
    }, 
    {
      "txid": "5bc3998421576d9aa845f1c50493b909f58536f243df89d4c9f9e9803ef66a37",
      "hash": "5bc3998421576d9aa845f1c50493b909f58536f243df89d4c9f9e9803ef66a37",
      "version": 1,
      "size": 488,
      "vsize": 488,
      "locktime": 0,
      "vin": [
        {
          "txid": "fb8cab65f6b323fa8788a55ea5f5ff539257cd829a8d5274c1b303c72741b07e",
          "vout": 16,
          "scriptSig": {
            "asm": "3045022100939fe2483bc3db90cc3076c36429b3fadaa79b1439e809657be5529201ca905d02200f66b08e3e993b542179609af1921d744c569cd3f21ddc492ef15e3dcaced4ce[ALL] 03ae37a9f817decfc3c514a47a850480eb2fb60a641e8bb400def9ba5119e80fa1",
            "hex": "483045022100939fe2483bc3db90cc3076c36429b3fadaa79b1439e809657be5529201ca905d02200f66b08e3e993b542179609af1921d744c569cd3f21ddc492ef15e3dcaced4ce012103ae37a9f817decfc3c514a47a850480eb2fb60a641e8bb400def9ba5119e80fa1"
          },
          "sequence": 4294967295
        }, 
        {
          "txid": "4c4f491b614a89c4d1f7516bc6605b7c10b6262b23aafa8abcfb4b47e32f92c2",
          "vout": 1,
          "scriptSig": {
            "asm": "3045022100854579ca817d060eafd11fd469486055a0cdfff1e97d9e1bdfc7200ffbe461950220614e31b25f6155c9c5e039125bc4be09f44f72edf581df48dbda13674b6d05f2[ALL] 03ae37a9f817decfc3c514a47a850480eb2fb60a641e8bb400def9ba5119e80fa1",
            "hex": "483045022100854579ca817d060eafd11fd469486055a0cdfff1e97d9e1bdfc7200ffbe461950220614e31b25f6155c9c5e039125bc4be09f44f72edf581df48dbda13674b6d05f2012103ae37a9f817decfc3c514a47a850480eb2fb60a641e8bb400def9ba5119e80fa1"
          },
          "sequence": 4294967295
        }, 
        {
          "txid": "c6d0e0dd0bca5ed6b9b7a14e1215f2490c466cc81f4ffa73dfb08e8383834dbe",
          "vout": 1,
          "scriptSig": {
            "asm": "3045022100a32635889419e7420901ba1c566c69d5beb399386f771aaa05b6750df084e072022053446f6da30ec77709b92752bf9753d6a6f0680282c7035aee7c5d09a1333baa[ALL] 02f4cdfb1f8d1c4771bf394838319612ea19fcc6a7da779b5fdb18aab0cea7f7b1",
            "hex": "483045022100a32635889419e7420901ba1c566c69d5beb399386f771aaa05b6750df084e072022053446f6da30ec77709b92752bf9753d6a6f0680282c7035aee7c5d09a1333baa012102f4cdfb1f8d1c4771bf394838319612ea19fcc6a7da779b5fdb18aab0cea7f7b1"
          },
          "sequence": 4294967295
        }
      ],
      "vout": [
        {
          "value": 2.07429059,
          "n": 0,
          "scriptPubKey": {
            "asm": "OP_DUP OP_HASH160 a2780102d5d773fd68a95f7c66075319ff5e01b4 OP_EQUALVERIFY OP_CHECKSIG",
            "hex": "76a914a2780102d5d773fd68a95f7c66075319ff5e01b488ac",
            "reqSigs": 1,
            "type": "pubkeyhash",
            "addresses": [
              "La31VJwXUqk6oGiJQMawmsavinqFcgnFVE"
            ]
          }
        }
      ],
      "hex": "01000000037eb04127c703b3c174528d9a82cd579253fff5a55ea58887fa23b3f665ab8cfb100000006b483045022100939fe2483bc3db90cc3076c36429b3fadaa79b1439e809657be5529201ca905d02200f66b08e3e993b542179609af1921d744c569cd3f21ddc492ef15e3dcaced4ce012103ae37a9f817decfc3c514a47a850480eb2fb60a641e8bb400def9ba5119e80fa1ffffffffc2922fe3474bfbbc8afaaa232b26b6107c5b60c66b51f7d1c4894a611b494f4c010000006b483045022100854579ca817d060eafd11fd469486055a0cdfff1e97d9e1bdfc7200ffbe461950220614e31b25f6155c9c5e039125bc4be09f44f72edf581df48dbda13674b6d05f2012103ae37a9f817decfc3c514a47a850480eb2fb60a641e8bb400def9ba5119e80fa1ffffffffbe4d8383838eb0df73fa4f1fc86c460c49f215124ea1b7b9d65eca0bdde0d0c6010000006b483045022100a32635889419e7420901ba1c566c69d5beb399386f771aaa05b6750df084e072022053446f6da30ec77709b92752bf9753d6a6f0680282c7035aee7c5d09a1333baa012102f4cdfb1f8d1c4771bf394838319612ea19fcc6a7da779b5fdb18aab0cea7f7b1ffffffff01c31d5d0c000000001976a914a2780102d5d773fd68a95f7c66075319ff5e01b488ac00000000"
    }, 
    {
      "txid": "4afa89160036acb3e411176eb42f24b23fd290f57848ae3808e9a92f56753618",
      "hash": "4afa89160036acb3e411176eb42f24b23fd290f57848ae3808e9a92f56753618",
      "version": 1,
      "size": 226,
      "vsize": 226,
      "locktime": 0,
      "vin": [
        {
          "txid": "817526b815b3c892d48440f25bec634cfda2b862639c8c34b2cb97268d2afea9",
          "vout": 1,
          "scriptSig": {
            "asm": "3045022100989d795280b12a784f52f26414e2e26eeecae5a7302e4a867a5f34fa9b52623b022074934b758cd57577e7dd4e92f7256164d88e59288525579b46b9180f1bece503[ALL] 03fa77dc7af640a8668a4a8bbf66a92569069f357beac7b4022566ca5b810c2811",
            "hex": "483045022100989d795280b12a784f52f26414e2e26eeecae5a7302e4a867a5f34fa9b52623b022074934b758cd57577e7dd4e92f7256164d88e59288525579b46b9180f1bece503012103fa77dc7af640a8668a4a8bbf66a92569069f357beac7b4022566ca5b810c2811"
          },
          "sequence": 4294967295
        }
      ],
      "vout": [
        {
          "value": 1.11599246,
          "n": 0,
          "scriptPubKey": {
            "asm": "OP_DUP OP_HASH160 81a0e4771a29c5f055203a4e00a469b324a78533 OP_EQUALVERIFY OP_CHECKSIG",
            "hex": "76a91481a0e4771a29c5f055203a4e00a469b324a7853388ac",
            "reqSigs": 1,
            "type": "pubkeyhash",
            "addresses": [
              "LX3NAxkTyvrahTpRf2HHnKABNs88CNZqDo"
            ]
          }
        }, 
        {
          "value": 1.00000000,
          "n": 1,
          "scriptPubKey": {
            "asm": "OP_DUP OP_HASH160 d8d65786b9148751b1553e15aab189ebb7e6f9be OP_EQUALVERIFY OP_CHECKSIG",
            "hex": "76a914d8d65786b9148751b1553e15aab189ebb7e6f9be88ac",
            "reqSigs": 1,
            "type": "pubkeyhash",
            "addresses": [
              "LezUzPGCbi7EsVqs8FKrR6mG4G83uKUWJv"
            ]
          }
        }
      ],
      "hex": "0100000001a9fe2a8d2697cbb2348c9c6362b8a2fd4c63ec5bf24084d492c8b315b8267581010000006b483045022100989d795280b12a784f52f26414e2e26eeecae5a7302e4a867a5f34fa9b52623b022074934b758cd57577e7dd4e92f7256164d88e59288525579b46b9180f1bece503012103fa77dc7af640a8668a4a8bbf66a92569069f357beac7b4022566ca5b810c2811ffffffff028edea606000000001976a91481a0e4771a29c5f055203a4e00a469b324a7853388ac00e1f505000000001976a914d8d65786b9148751b1553e15aab189ebb7e6f9be88ac00000000"
    }, 
    {
      "txid": "1840fa557cd2af4972e12b62da11bdd582c812805b4c942c5c48f6a145d9580e",
      "hash": "1840fa557cd2af4972e12b62da11bdd582c812805b4c942c5c48f6a145d9580e",
      "version": 1,
      "size": 225,
      "vsize": 225,
      "locktime": 0,
      "vin": [
        {
          "txid": "23d15a07b8f69d38529ac9b45628cf3fe5f0204a3fb12c734fbead668e48560e",
          "vout": 1,
          "scriptSig": {
            "asm": "304402205bae2bbe3f39b707487298fe5878a4e545fb0842e863ef9960a862a3f52502990220173f576f55d17de1b9ed80a396fe24b2d2d011c0864a477ba33de7e09e153bbc[ALL] 03f7f81029d43d6ed9165be941f8594f7870973d6196d99c2101585f4b3454edde",
            "hex": "47304402205bae2bbe3f39b707487298fe5878a4e545fb0842e863ef9960a862a3f52502990220173f576f55d17de1b9ed80a396fe24b2d2d011c0864a477ba33de7e09e153bbc012103f7f81029d43d6ed9165be941f8594f7870973d6196d99c2101585f4b3454edde"
          },
          "sequence": 4294967295
        }
      ],
      "vout": [
        {
          "value": 0.54660000,
          "n": 0,
          "scriptPubKey": {
            "asm": "OP_DUP OP_HASH160 ec78ab603aec724c223df5361048e2560c83a001 OP_EQUALVERIFY OP_CHECKSIG",
            "hex": "76a914ec78ab603aec724c223df5361048e2560c83a00188ac",
            "reqSigs": 1,
            "type": "pubkeyhash",
            "addresses": [
              "LgnJHk8eM5txU4tFHAXQWcsDkZzE8hBNpp"
            ]
          }
        }, 
        {
          "value": 144.48106900,
          "n": 1,
          "scriptPubKey": {
            "asm": "OP_DUP OP_HASH160 36b137e9b6521a7df851d215546b3092f23f3577 OP_EQUALVERIFY OP_CHECKSIG",
            "hex": "76a91436b137e9b6521a7df851d215546b3092f23f357788ac",
            "reqSigs": 1,
            "type": "pubkeyhash",
            "addresses": [
              "LQD93vUheTA3KQTiAx8CtrnDNjxe8PVuiq"
            ]
          }
        }
      ],
      "hex": "01000000010e56488e66adbe4f732cb13f4a20f0e53fcf2856b4c99a52389df6b8075ad123010000006a47304402205bae2bbe3f39b707487298fe5878a4e545fb0842e863ef9960a862a3f52502990220173f576f55d17de1b9ed80a396fe24b2d2d011c0864a477ba33de7e09e153bbc012103f7f81029d43d6ed9165be941f8594f7870973d6196d99c2101585f4b3454eddeffffffff02a00b4203000000001976a914ec78ab603aec724c223df5361048e2560c83a00188ac949d2c5d030000001976a91436b137e9b6521a7df851d215546b3092f23f357788ac00000000"
    }, 
    {
      "txid": "01f99bb8597109a9a0f3ef3667a2475ff8be88a5802371287f50e30553fa51ce",
      "hash": "01f99bb8597109a9a0f3ef3667a2475ff8be88a5802371287f50e30553fa51ce",
      "version": 2,
      "size": 225,
      "vsize": 225,
      "locktime": 0,
      "vin": [
        {
          "txid": "094ed549909460b2ab764bba2afc2aa07b19926ee71c5a324d360b029e279403",
          "vout": 1,
          "scriptSig": {
            "asm": "30440220310eba840611af8c0f3fb8bfc66235c8b851ae7699b910e8649d0e98479ccc4802203659a54cc7fb4c19a395589b21d67abd807859edb1fa8ff5e58cddb8c97676ab[ALL] 03c6daf7bfef34db46e36e730c54e566b84f704c05292ed9820bd57cee20a9b6b2",
            "hex": "4730440220310eba840611af8c0f3fb8bfc66235c8b851ae7699b910e8649d0e98479ccc4802203659a54cc7fb4c19a395589b21d67abd807859edb1fa8ff5e58cddb8c97676ab012103c6daf7bfef34db46e36e730c54e566b84f704c05292ed9820bd57cee20a9b6b2"
          },
          "sequence": 4294967295
        }
      ],
      "vout": [
        {
          "value": 0.03361696,
          "n": 0,
          "scriptPubKey": {
            "asm": "OP_DUP OP_HASH160 af6cd9fefb643a3539a4f1912555ff774555912b OP_EQUALVERIFY OP_CHECKSIG",
            "hex": "76a914af6cd9fefb643a3539a4f1912555ff774555912b88ac",
            "reqSigs": 1,
            "type": "pubkeyhash",
            "addresses": [
              "LbDWuvPsurtLcdooBzkYDYGft2RkGvkJa8"
            ]
          }
        }, 
        {
          "value": 0.00103367,
          "n": 1,
          "scriptPubKey": {
            "asm": "OP_DUP OP_HASH160 6365a2c16e930e741bc6cbd2d3fd14d9f5655cce OP_EQUALVERIFY OP_CHECKSIG",
            "hex": "76a9146365a2c16e930e741bc6cbd2d3fd14d9f5655cce88ac",
            "reqSigs": 1,
            "type": "pubkeyhash",
            "addresses": [
              "LUHWuyr3DRcuQRRtqsdUJGzTq7YqhkpMAP"
            ]
          }
        }
      ],
      "hex": "02000000010394279e020b364d325a1ce76e92197ba02afc2aba4b76abb260949049d54e09010000006a4730440220310eba840611af8c0f3fb8bfc66235c8b851ae7699b910e8649d0e98479ccc4802203659a54cc7fb4c19a395589b21d67abd807859edb1fa8ff5e58cddb8c97676ab012103c6daf7bfef34db46e36e730c54e566b84f704c05292ed9820bd57cee20a9b6b2ffffffff02a04b3300000000001976a914af6cd9fefb643a3539a4f1912555ff774555912b88acc7930100000000001976a9146365a2c16e930e741bc6cbd2d3fd14d9f5655cce88ac00000000"
    }, 
    {
      "txid": "92ed4a5347fc15e7f07c07023cd22bf730019c8aa9de135e8973b124baf08668",
      "hash": "92ed4a5347fc15e7f07c07023cd22bf730019c8aa9de135e8973b124baf08668",
      "version": 2,
      "size": 520,
      "vsize": 520,
      "locktime": 1357280,
      "vin": [
        {
          "txid": "1488371f170b1a12a0b41fbe88e6515c9b91edc85ab29b45182191decf9310d0",
          "vout": 0,
          "scriptSig": {
            "asm": "304402202206008591a6bbba3687f9727e915ad3faa762547b1893b1d84889b3e71e37220220199d5ca4d77c0322cd153a4ceae877cd822d8fd8ebfaa8ead86108f4e7aba585[ALL] 02a48fcaf7990cdf38af1b9ea1f483d5701b6275feae38b63d4a89b1838c5f0607",
            "hex": "47304402202206008591a6bbba3687f9727e915ad3faa762547b1893b1d84889b3e71e37220220199d5ca4d77c0322cd153a4ceae877cd822d8fd8ebfaa8ead86108f4e7aba585012102a48fcaf7990cdf38af1b9ea1f483d5701b6275feae38b63d4a89b1838c5f0607"
          },
          "sequence": 4294967294
        }, 
        {
          "txid": "cbd0bc6999ccbf8653a95c902d24c0a5f902b47bbad320a4f7b9c180f5773ba5",
          "vout": 0,
          "scriptSig": {
            "asm": "304502210091f6293c7aae0da5dccd5dc7fde26e4223e8a144633467cbaf991280fae1f8e702200db6421bcf3f76e3914b730c192df630cd370e57b2d96275f49236138be8b1d1[ALL] 03b0f5841d2eeb129f578a0754d15321952a79b18c407081547c063b886e61e126",
            "hex": "48304502210091f6293c7aae0da5dccd5dc7fde26e4223e8a144633467cbaf991280fae1f8e702200db6421bcf3f76e3914b730c192df630cd370e57b2d96275f49236138be8b1d1012103b0f5841d2eeb129f578a0754d15321952a79b18c407081547c063b886e61e126"
          },
          "sequence": 4294967294
        }, 
        {
          "txid": "e188b34583efc39d9d400566e88d40127117032e311e46d703d1497a3df7a20f",
          "vout": 1,
          "scriptSig": {
            "asm": "3044022019ea229f951b1fcfb3ba8551285c57cbb9db709cddea85c42fa6adc01a6c3658022062f637aeea489d35b13fc0b2f13e16709fd6a30d17554633c3bfa6d5d686542b[ALL] 036dfcf53bac45f6487be723f1cbfc621373dabe9b49d7f0bab576bf0fef58fcf6",
            "hex": "473044022019ea229f951b1fcfb3ba8551285c57cbb9db709cddea85c42fa6adc01a6c3658022062f637aeea489d35b13fc0b2f13e16709fd6a30d17554633c3bfa6d5d686542b0121036dfcf53bac45f6487be723f1cbfc621373dabe9b49d7f0bab576bf0fef58fcf6"
          },
          "sequence": 4294967294
        }
      ],
      "vout": [
        {
          "value": 0.00848305,
          "n": 0,
          "scriptPubKey": {
            "asm": "OP_DUP OP_HASH160 45ef757e560377d55520ea285db2ba20bdd61a94 OP_EQUALVERIFY OP_CHECKSIG",
            "hex": "76a91445ef757e560377d55520ea285db2ba20bdd61a9488ac",
            "reqSigs": 1,
            "type": "pubkeyhash",
            "addresses": [
              "LRbjkMDrLh2FGKmDU9za1KtMkHJM1J2zdB"
            ]
          }
        }, 
        {
          "value": 1.35874000,
          "n": 1,
          "scriptPubKey": {
            "asm": "OP_DUP OP_HASH160 7cb6d5a40b1b9942e76cb51f260573645c025023 OP_EQUALVERIFY OP_CHECKSIG",
            "hex": "76a9147cb6d5a40b1b9942e76cb51f260573645c02502388ac",
            "reqSigs": 1,
            "type": "pubkeyhash",
            "addresses": [
              "LWbP5ZnkUMTTFPPKYWp5UvRPDhUmCnF3sr"
            ]
          }
        }
      ],
      "hex": "0200000003d01093cfde912118459bb25ac8ed919b5c51e688be1fb4a0121a0b171f378814000000006a47304402202206008591a6bbba3687f9727e915ad3faa762547b1893b1d84889b3e71e37220220199d5ca4d77c0322cd153a4ceae877cd822d8fd8ebfaa8ead86108f4e7aba585012102a48fcaf7990cdf38af1b9ea1f483d5701b6275feae38b63d4a89b1838c5f0607feffffffa53b77f580c1b9f7a420d3ba7bb402f9a5c0242d905ca95386bfcc9969bcd0cb000000006b48304502210091f6293c7aae0da5dccd5dc7fde26e4223e8a144633467cbaf991280fae1f8e702200db6421bcf3f76e3914b730c192df630cd370e57b2d96275f49236138be8b1d1012103b0f5841d2eeb129f578a0754d15321952a79b18c407081547c063b886e61e126feffffff0fa2f73d7a49d103d7461e312e03177112408de86605409d9dc3ef8345b388e1010000006a473044022019ea229f951b1fcfb3ba8551285c57cbb9db709cddea85c42fa6adc01a6c3658022062f637aeea489d35b13fc0b2f13e16709fd6a30d17554633c3bfa6d5d686542b0121036dfcf53bac45f6487be723f1cbfc621373dabe9b49d7f0bab576bf0fef58fcf6feffffff02b1f10c00000000001976a91445ef757e560377d55520ea285db2ba20bdd61a9488acd0451908000000001976a9147cb6d5a40b1b9942e76cb51f260573645c02502388ace0b51400"
    }, 
    {
      "txid": "deeae036ff2020a21e838fdae9c31a4c2721881e2b9a4eb8f1859ca8a919f93c",
      "hash": "deeae036ff2020a21e838fdae9c31a4c2721881e2b9a4eb8f1859ca8a919f93c",
      "version": 2,
      "size": 226,
      "vsize": 226,
      "locktime": 1357280,
      "vin": [
        {
          "txid": "8efb3fb71f63564f827613ff44cf70a567cde524da7e1cb4ade2cd6a32d48fa0",
          "vout": 0,
          "scriptSig": {
            "asm": "3045022100f76cc550953cc2a1813773fa731b8f890cb0a8004af7f2aa2636ca0b97fe7600022067b2d55ec3eb81758aadbe3ed13f7b50a0a9e52309b2664b54468a73bd8d3c21[ALL] 02863e2700d196a7f03f988be1f00271ea40b7cec54a37bbf2b532a0e4e3fcbba7",
            "hex": "483045022100f76cc550953cc2a1813773fa731b8f890cb0a8004af7f2aa2636ca0b97fe7600022067b2d55ec3eb81758aadbe3ed13f7b50a0a9e52309b2664b54468a73bd8d3c21012102863e2700d196a7f03f988be1f00271ea40b7cec54a37bbf2b532a0e4e3fcbba7"
          },
          "sequence": 4294967294
        }
      ],
      "vout": [
        {
          "value": 8.54109120,
          "n": 0,
          "scriptPubKey": {
            "asm": "OP_DUP OP_HASH160 9bd2634ff2af93552bce19613ce575688d78dd9d OP_EQUALVERIFY OP_CHECKSIG",
            "hex": "76a9149bd2634ff2af93552bce19613ce575688d78dd9d88ac",
            "reqSigs": 1,
            "type": "pubkeyhash",
            "addresses": [
              "LZRs2xTXPmpLyt1o1GyB2m7kTMY1S8zT2N"
            ]
          }
        }, 
        {
          "value": 0.46210082,
          "n": 1,
          "scriptPubKey": {
            "asm": "OP_DUP OP_HASH160 db590230230dba0cda97f298d1e2523a80c80534 OP_EQUALVERIFY OP_CHECKSIG",
            "hex": "76a914db590230230dba0cda97f298d1e2523a80c8053488ac",
            "reqSigs": 1,
            "type": "pubkeyhash",
            "addresses": [
              "LfDkseRsdzERBdbYY3LhGTfYRWiajHY3cZ"
            ]
          }
        }
      ],
      "hex": "0200000001a08fd4326acde2adb41c7eda24e5cd67a570cf44ff1376824f56631fb73ffb8e000000006b483045022100f76cc550953cc2a1813773fa731b8f890cb0a8004af7f2aa2636ca0b97fe7600022067b2d55ec3eb81758aadbe3ed13f7b50a0a9e52309b2664b54468a73bd8d3c21012102863e2700d196a7f03f988be1f00271ea40b7cec54a37bbf2b532a0e4e3fcbba7feffffff02c0abe832000000001976a9149bd2634ff2af93552bce19613ce575688d78dd9d88ac221cc102000000001976a914db590230230dba0cda97f298d1e2523a80c8053488ace0b51400"
    }, 
    {
      "txid": "d7a6656b98d67000a4a6a03687f0e4398e13a6bd6734818a0c7a86dca151ef61",
      "hash": "d7a6656b98d67000a4a6a03687f0e4398e13a6bd6734818a0c7a86dca151ef61",
      "version": 1,
      "size": 224,
      "vsize": 224,
      "locktime": 0,
      "vin": [
        {
          "txid": "622c041468b161e84a4ced975667140e3af709ecea5e1f438163ec6ed7d28265",
          "vout": 0,
          "scriptSig": {
            "asm": "304302207553f1025ecb70b271776b66d9ce6b07c6531e1115f253c64505d0f0f868b8df021f273cf22069832b4aaec264745d3e2f4f8b0d03e9742be086c707f82335d5a8[ALL] 02812a9285d1483f681639630a0892fd8f65695e20b0636662b3b99f8f92a7c36e",
            "hex": "46304302207553f1025ecb70b271776b66d9ce6b07c6531e1115f253c64505d0f0f868b8df021f273cf22069832b4aaec264745d3e2f4f8b0d03e9742be086c707f82335d5a8012102812a9285d1483f681639630a0892fd8f65695e20b0636662b3b99f8f92a7c36e"
          },
          "sequence": 4294967295
        }
      ],
      "vout": [
        {
          "value": 0.38817338,
          "n": 0,
          "scriptPubKey": {
            "asm": "OP_DUP OP_HASH160 66cbebeb6d0eae0ff8364d01358e62c7d1342f86 OP_EQUALVERIFY OP_CHECKSIG",
            "hex": "76a91466cbebeb6d0eae0ff8364d01358e62c7d1342f8688ac",
            "reqSigs": 1,
            "type": "pubkeyhash",
            "addresses": [
              "LUbVUVr7DLZ25BvoiXQ4w3DGCxdRgY1woQ"
            ]
          }
        }, 
        {
          "value": 0.40925062,
          "n": 1,
          "scriptPubKey": {
            "asm": "OP_DUP OP_HASH160 db9b58f4cca31260593cf3d9f3349c19e46f6f40 OP_EQUALVERIFY OP_CHECKSIG",
            "hex": "76a914db9b58f4cca31260593cf3d9f3349c19e46f6f4088ac",
            "reqSigs": 1,
            "type": "pubkeyhash",
            "addresses": [
              "LfF8LxRXYcehzMtc7hV6eW4E8xrWMqmBn6"
            ]
          }
        }
      ],
      "hex": "01000000016582d2d76eec6381431f5eeaec09f73a0e14675697ed4c4ae861b16814042c62000000006946304302207553f1025ecb70b271776b66d9ce6b07c6531e1115f253c64505d0f0f868b8df021f273cf22069832b4aaec264745d3e2f4f8b0d03e9742be086c707f82335d5a8012102812a9285d1483f681639630a0892fd8f65695e20b0636662b3b99f8f92a7c36effffffff023a4e5002000000001976a91466cbebeb6d0eae0ff8364d01358e62c7d1342f8688ac86777002000000001976a914db9b58f4cca31260593cf3d9f3349c19e46f6f4088ac00000000"
    }, 
    {
      "txid": "f678c62fa3291077ea514de635b54250ba54cff9e9b0d44ab4be8339c6454e28",
      "hash": "f678c62fa3291077ea514de635b54250ba54cff9e9b0d44ab4be8339c6454e28",
      "version": 1,
      "size": 225,
      "vsize": 225,
      "locktime": 0,
      "vin": [
        {
          "txid": "fe2f20090db1b6285e492395512e88ffc278eee847a241c897a9c9f0c1cad871",
          "vout": 0,
          "scriptSig": {
            "asm": "30440220656974f7e7ad9442ef3e440a1c49237b1b9c96952fc5a3742aa16a0ba2ec1b4c02206776886a1e74cecdccd9e1ac38032579332e549f653cf3e712ff9135c1fc2c2a[ALL] 02551176dc837f519ea88aa63d91d5a0b2ca55cd8b3d16f7c18add811e6b9ab70f",
            "hex": "4730440220656974f7e7ad9442ef3e440a1c49237b1b9c96952fc5a3742aa16a0ba2ec1b4c02206776886a1e74cecdccd9e1ac38032579332e549f653cf3e712ff9135c1fc2c2a012102551176dc837f519ea88aa63d91d5a0b2ca55cd8b3d16f7c18add811e6b9ab70f"
          },
          "sequence": 4294967295
        }
      ],
      "vout": [
        {
          "value": 47.02830493,
          "n": 0,
          "scriptPubKey": {
            "asm": "OP_DUP OP_HASH160 c9a453654e1b24b9cbfd8f5dbe8358b085ccc7b1 OP_EQUALVERIFY OP_CHECKSIG",
            "hex": "76a914c9a453654e1b24b9cbfd8f5dbe8358b085ccc7b188ac",
            "reqSigs": 1,
            "type": "pubkeyhash",
            "addresses": [
              "Ldc8wKpGFeALAxZDDFmTuK41Txn3GjqcCx"
            ]
          }
        }, 
        {
          "value": 2.26463847,
          "n": 1,
          "scriptPubKey": {
            "asm": "OP_DUP OP_HASH160 ad1586be6910c5887d70aa3dd10c499f02469559 OP_EQUALVERIFY OP_CHECKSIG",
            "hex": "76a914ad1586be6910c5887d70aa3dd10c499f0246955988ac",
            "reqSigs": 1,
            "type": "pubkeyhash",
            "addresses": [
              "Lb18x5NbuZLEohuagSauNZNxaCVnk1HV8c"
            ]
          }
        }
      ],
      "hex": "010000000171d8cac1f0c9a997c841a247e8ee78c2ff882e519523495e28b6b10d09202ffe000000006a4730440220656974f7e7ad9442ef3e440a1c49237b1b9c96952fc5a3742aa16a0ba2ec1b4c02206776886a1e74cecdccd9e1ac38032579332e549f653cf3e712ff9135c1fc2c2a012102551176dc837f519ea88aa63d91d5a0b2ca55cd8b3d16f7c18add811e6b9ab70fffffffff029d7f4f18010000001976a914c9a453654e1b24b9cbfd8f5dbe8358b085ccc7b188ac67907f0d000000001976a914ad1586be6910c5887d70aa3dd10c499f0246955988ac00000000"
    }, 
    {
      "txid": "40371c1758e2cd6ba7decefd868f9b832ca63aae7ae9d921a134664027511534",
      "hash": "40371c1758e2cd6ba7decefd868f9b832ca63aae7ae9d921a134664027511534",
      "version": 1,
      "size": 225,
      "vsize": 225,
      "locktime": 0,
      "vin": [
        {
          "txid": "fe06883311c4307c45f34136c5a366479af73a48c31204611d0390744a0d648d",
          "vout": 0,
          "scriptSig": {
            "asm": "30440220731eb02c4de08642fc4b0898cd36347cc38e2701cb20203b9c277ffd4e725633022049da3fa69efdbfe3f0fc03d35e4f2384330a8bc41a5044501da213c4c6b8b4e3[ALL] 024c37b19e0cfd25409895920252ccf946d463c906a54a1927fc9e6751537508f3",
            "hex": "4730440220731eb02c4de08642fc4b0898cd36347cc38e2701cb20203b9c277ffd4e725633022049da3fa69efdbfe3f0fc03d35e4f2384330a8bc41a5044501da213c4c6b8b4e30121024c37b19e0cfd25409895920252ccf946d463c906a54a1927fc9e6751537508f3"
          },
          "sequence": 4294967295
        }
      ],
      "vout": [
        {
          "value": 0.00621416,
          "n": 0,
          "scriptPubKey": {
            "asm": "OP_DUP OP_HASH160 9c5e28d4a6a8c17d3e587b9c41c7ba957d3e09c1 OP_EQUALVERIFY OP_CHECKSIG",
            "hex": "76a9149c5e28d4a6a8c17d3e587b9c41c7ba957d3e09c188ac",
            "reqSigs": 1,
            "type": "pubkeyhash",
            "addresses": [
              "LZUkUTLiBLdAv1ZND38EH1AXMtmX5xNeaw"
            ]
          }
        }, 
        {
          "value": 0.00054606,
          "n": 1,
          "scriptPubKey": {
            "asm": "OP_DUP OP_HASH160 2f7baee3d4ab559eee7bd83144eec74c6cefd145 OP_EQUALVERIFY OP_CHECKSIG",
            "hex": "76a9142f7baee3d4ab559eee7bd83144eec74c6cefd14588ac",
            "reqSigs": 1,
            "type": "pubkeyhash",
            "addresses": [
              "LPZ2BtLX3fofwhgx8haJAxHRVDVoktNqmB"
            ]
          }
        }
      ],
      "hex": "01000000018d640d4a7490031d610412c3483af79a4766a3c53641f3457c30c411338806fe000000006a4730440220731eb02c4de08642fc4b0898cd36347cc38e2701cb20203b9c277ffd4e725633022049da3fa69efdbfe3f0fc03d35e4f2384330a8bc41a5044501da213c4c6b8b4e30121024c37b19e0cfd25409895920252ccf946d463c906a54a1927fc9e6751537508f3ffffffff02687b0900000000001976a9149c5e28d4a6a8c17d3e587b9c41c7ba957d3e09c188ac4ed50000000000001976a9142f7baee3d4ab559eee7bd83144eec74c6cefd14588ac00000000"
    }, 
    {
      "txid": "3a3ca91210c4a092c1526ae07407585c50e893d46f2831b1f151d946cdf3f4d4",
      "hash": "3a3ca91210c4a092c1526ae07407585c50e893d46f2831b1f151d946cdf3f4d4",
      "version": 1,
      "size": 225,
      "vsize": 225,
      "locktime": 0,
      "vin": [
        {
          "txid": "622c041468b161e84a4ced975667140e3af709ecea5e1f438163ec6ed7d28265",
          "vout": 1,
          "scriptSig": {
            "asm": "30440220448a637770fd0f31ca77627ae991f50962cfa8cd52459a9775ff0ddebf60edd7022019e10812169f1b37d3baf9702d7429b2109ad40960079419f49a00842183e9dd[ALL] 03bcee5c8030f582ced5e7e14a4c7863531800d7fab95990798689a12944d2319d",
            "hex": "4730440220448a637770fd0f31ca77627ae991f50962cfa8cd52459a9775ff0ddebf60edd7022019e10812169f1b37d3baf9702d7429b2109ad40960079419f49a00842183e9dd012103bcee5c8030f582ced5e7e14a4c7863531800d7fab95990798689a12944d2319d"
          },
          "sequence": 4294967295
        }
      ],
      "vout": [
        {
          "value": 48.33752734,
          "n": 0,
          "scriptPubKey": {
            "asm": "OP_DUP OP_HASH160 286cf7e79b84a80b9ec100c0632c972bd28d016f OP_EQUALVERIFY OP_CHECKSIG",
            "hex": "76a914286cf7e79b84a80b9ec100c0632c972bd28d016f88ac",
            "reqSigs": 1,
            "type": "pubkeyhash",
            "addresses": [
              "LNuhq9BSnRuWSwMbPoUc6isZzprsvBboCa"
            ]
          }
        }, 
        {
          "value": 1.75030646,
          "n": 1,
          "scriptPubKey": {
            "asm": "OP_DUP OP_HASH160 bc365fd4b83482abe269983ec68e8c235bb4bb1a OP_EQUALVERIFY OP_CHECKSIG",
            "hex": "76a914bc365fd4b83482abe269983ec68e8c235bb4bb1a88ac",
            "reqSigs": 1,
            "type": "pubkeyhash",
            "addresses": [
              "LcP8SGksi7iimFPdQ5NcA4pLXm1y27TbmB"
            ]
          }
        }
      ],
      "hex": "01000000016582d2d76eec6381431f5eeaec09f73a0e14675697ed4c4ae861b16814042c62010000006a4730440220448a637770fd0f31ca77627ae991f50962cfa8cd52459a9775ff0ddebf60edd7022019e10812169f1b37d3baf9702d7429b2109ad40960079419f49a00842183e9dd012103bcee5c8030f582ced5e7e14a4c7863531800d7fab95990798689a12944d2319dffffffff029e361d20010000001976a914286cf7e79b84a80b9ec100c0632c972bd28d016f88ac76c16e0a000000001976a914bc365fd4b83482abe269983ec68e8c235bb4bb1a88ac00000000"
    }, 
    {
      "txid": "0d93bbe8f614c962272e5e4550dea0a9ad3fd016df61e054b02da42d4d220ffc",
      "hash": "0d93bbe8f614c962272e5e4550dea0a9ad3fd016df61e054b02da42d4d220ffc",
      "version": 2,
      "size": 815,
      "vsize": 815,
      "locktime": 1357280,
      "vin": [
        {
          "txid": "a587248cebaed4488b2b481abfd834e3df65f2d9dc567708c1560152655be5d0",
          "vout": 0,
          "scriptSig": {
            "asm": "3045022100a2b3ae96132941146e14b0ef5765479105e129301089420c20d1d430657adc3302203a9e0a2c4ee5ceedeec378d2a679c271726ca908389a3dd7208a664486f8f4ca[ALL] 03f2317f4f74b499480398585e84f6daafb642dc7790cb315c51dfbef38e36bb2c",
            "hex": "483045022100a2b3ae96132941146e14b0ef5765479105e129301089420c20d1d430657adc3302203a9e0a2c4ee5ceedeec378d2a679c271726ca908389a3dd7208a664486f8f4ca012103f2317f4f74b499480398585e84f6daafb642dc7790cb315c51dfbef38e36bb2c"
          },
          "sequence": 4294967294
        }, 
        {
          "txid": "9702cf84e2a0f6818ac60a764c0fae505385d518af59c9ba9560130774f17a3f",
          "vout": 0,
          "scriptSig": {
            "asm": "3044022049c2091ae4cfecb7d0ba7fee9fc7d9745005dbcaf7635291c307863c04b660d5022032688782bcb292f0a71a8616e4aa3a8133f13dce0a44765650cf0d720378770a[ALL] 02645344fe2801b3b6df49b0a7f508878944a98e21cd3c8acbe334728cba79b0f5",
            "hex": "473044022049c2091ae4cfecb7d0ba7fee9fc7d9745005dbcaf7635291c307863c04b660d5022032688782bcb292f0a71a8616e4aa3a8133f13dce0a44765650cf0d720378770a012102645344fe2801b3b6df49b0a7f508878944a98e21cd3c8acbe334728cba79b0f5"
          },
          "sequence": 4294967294
        }, 
        {
          "txid": "e43eaa83c3a0196532ebf157c9c7e8adca1ed127d8017fee53df68695d20049e",
          "vout": 0,
          "scriptSig": {
            "asm": "30440220745b0d95b8b9713660cbe8c8e4916b515460c19a0ab20172799d394d89521e310220019330994b09e6e41516b9755c118cce86c163041f18db870a2636318b491351[ALL] 02b70ab049ef08cf46b4627e687bbb8159854521ddea011d04fbf4fcab97c6c788",
            "hex": "4730440220745b0d95b8b9713660cbe8c8e4916b515460c19a0ab20172799d394d89521e310220019330994b09e6e41516b9755c118cce86c163041f18db870a2636318b491351012102b70ab049ef08cf46b4627e687bbb8159854521ddea011d04fbf4fcab97c6c788"
          },
          "sequence": 4294967294
        }, 
        {
          "txid": "87771fc232f34d60aa969a29d21c796adddded90293846ac64110893e5f16fa8",
          "vout": 1,
          "scriptSig": {
            "asm": "3045022100e644dcea1aa9b682fcd5c2f79cb469c2b22ebd9333172d49a76b0824195f702c02202bdc530be5d6d96b3c823cc43d3c430cdafeb20b5d8e33a8cf7ed24ae3a867f3[ALL] 03069816d947be6f5310b60696edc5dceaf913354855088f0e59eb3c7ab1fbaff6",
            "hex": "483045022100e644dcea1aa9b682fcd5c2f79cb469c2b22ebd9333172d49a76b0824195f702c02202bdc530be5d6d96b3c823cc43d3c430cdafeb20b5d8e33a8cf7ed24ae3a867f3012103069816d947be6f5310b60696edc5dceaf913354855088f0e59eb3c7ab1fbaff6"
          },
          "sequence": 4294967294
        }, 
        {
          "txid": "1335dbeefbe00f18ef220bbfb7a8ef4a2c5144ad48868d703b44b837a7850aa0",
          "vout": 0,
          "scriptSig": {
            "asm": "3044022067adb0e2edef7032f9638b1af1d983b26f9472bbcf97eb138058eb69d44f8a070220098d552c526166a8400045394c89f3c5995c5a440413fd9b3d94bf21578facba[ALL] 02beb600ad131e8bfdba4abeb6dc167e28a6fffcf6f3a5a31552a49933d69f3389",
            "hex": "473044022067adb0e2edef7032f9638b1af1d983b26f9472bbcf97eb138058eb69d44f8a070220098d552c526166a8400045394c89f3c5995c5a440413fd9b3d94bf21578facba012102beb600ad131e8bfdba4abeb6dc167e28a6fffcf6f3a5a31552a49933d69f3389"
          },
          "sequence": 4294967294
        }
      ],
      "vout": [
        {
          "value": 0.00920238,
          "n": 0,
          "scriptPubKey": {
            "asm": "OP_DUP OP_HASH160 d7efa55d8c16a9dfa9483b43961420cac649f4cd OP_EQUALVERIFY OP_CHECKSIG",
            "hex": "76a914d7efa55d8c16a9dfa9483b43961420cac649f4cd88ac",
            "reqSigs": 1,
            "type": "pubkeyhash",
            "addresses": [
              "LeuidMEYjY69fAeU7eYv3ijx694pHhejpN"
            ]
          }
        }, 
        {
          "value": 1.06983230,
          "n": 1,
          "scriptPubKey": {
            "asm": "OP_DUP OP_HASH160 46bbfdd8c44dc0f317455f653002200531490e02 OP_EQUALVERIFY OP_CHECKSIG",
            "hex": "76a91446bbfdd8c44dc0f317455f653002200531490e0288ac",
            "reqSigs": 1,
            "type": "pubkeyhash",
            "addresses": [
              "LRfxmXSo76h7jxW4otiT4zJntHCCCWCXMi"
            ]
          }
        }
      ],
      "hex": "0200000005d0e55b65520156c1087756dcd9f265dfe334d8bf1a482b8b48d4aeeb8c2487a5000000006b483045022100a2b3ae96132941146e14b0ef5765479105e129301089420c20d1d430657adc3302203a9e0a2c4ee5ceedeec378d2a679c271726ca908389a3dd7208a664486f8f4ca012103f2317f4f74b499480398585e84f6daafb642dc7790cb315c51dfbef38e36bb2cfeffffff3f7af17407136095bac959af18d5855350ae0f4c760ac68a81f6a0e284cf0297000000006a473044022049c2091ae4cfecb7d0ba7fee9fc7d9745005dbcaf7635291c307863c04b660d5022032688782bcb292f0a71a8616e4aa3a8133f13dce0a44765650cf0d720378770a012102645344fe2801b3b6df49b0a7f508878944a98e21cd3c8acbe334728cba79b0f5feffffff9e04205d6968df53ee7f01d827d11ecaade8c7c957f1eb326519a0c383aa3ee4000000006a4730440220745b0d95b8b9713660cbe8c8e4916b515460c19a0ab20172799d394d89521e310220019330994b09e6e41516b9755c118cce86c163041f18db870a2636318b491351012102b70ab049ef08cf46b4627e687bbb8159854521ddea011d04fbf4fcab97c6c788feffffffa86ff1e593081164ac46382990eddddd6a791cd2299a96aa604df332c21f7787010000006b483045022100e644dcea1aa9b682fcd5c2f79cb469c2b22ebd9333172d49a76b0824195f702c02202bdc530be5d6d96b3c823cc43d3c430cdafeb20b5d8e33a8cf7ed24ae3a867f3012103069816d947be6f5310b60696edc5dceaf913354855088f0e59eb3c7ab1fbaff6feffffffa00a85a737b8443b708d8648ad44512c4aefa8b7bf0b22ef180fe0fbeedb3513000000006a473044022067adb0e2edef7032f9638b1af1d983b26f9472bbcf97eb138058eb69d44f8a070220098d552c526166a8400045394c89f3c5995c5a440413fd9b3d94bf21578facba012102beb600ad131e8bfdba4abeb6dc167e28a6fffcf6f3a5a31552a49933d69f3389feffffff02ae0a0e00000000001976a914d7efa55d8c16a9dfa9483b43961420cac649f4cd88ac3e6f6006000000001976a91446bbfdd8c44dc0f317455f653002200531490e0288ace0b51400"
    }, 
    {
      "txid": "629e184c2b8053daca9d2b05150fde2ccaf483f7eb23769b4f42c7cf29782749",
      "hash": "629e184c2b8053daca9d2b05150fde2ccaf483f7eb23769b4f42c7cf29782749",
      "version": 1,
      "size": 226,
      "vsize": 226,
      "locktime": 0,
      "vin": [
        {
          "txid": "3a22758f2815d41483e5c842a6e2e88be9fcadc6c96f153e8909272fb5f04fa1",
          "vout": 1,
          "scriptSig": {
            "asm": "3045022100dab35a51e828b24daf1f816535364893509d9410bff451c75d0cf94b3aaba41a022077468282cdd51265c995a03e7e9982703bcaefbcc291027b08b7a92645cdfee0[ALL] 037ec73a7278362ccbf48da39f6ff82cf3a07dcbc1559ba1219e04a9f465c26b11",
            "hex": "483045022100dab35a51e828b24daf1f816535364893509d9410bff451c75d0cf94b3aaba41a022077468282cdd51265c995a03e7e9982703bcaefbcc291027b08b7a92645cdfee00121037ec73a7278362ccbf48da39f6ff82cf3a07dcbc1559ba1219e04a9f465c26b11"
          },
          "sequence": 4294967295
        }
      ],
      "vout": [
        {
          "value": 0.99031000,
          "n": 0,
          "scriptPubKey": {
            "asm": "OP_DUP OP_HASH160 06f2ddfa9c5077e45239ee7ab72cab6f423244c1 OP_EQUALVERIFY OP_CHECKSIG",
            "hex": "76a91406f2ddfa9c5077e45239ee7ab72cab6f423244c188ac",
            "reqSigs": 1,
            "type": "pubkeyhash",
            "addresses": [
              "LKrhG4oJ8zHiHbp7QdMu8r9KQhhEJSahG7"
            ]
          }
        }, 
        {
          "value": 48.61768476,
          "n": 1,
          "scriptPubKey": {
            "asm": "OP_DUP OP_HASH160 45daad3da433cd8611c4383f3ead941f7cb0e909 OP_EQUALVERIFY OP_CHECKSIG",
            "hex": "76a91445daad3da433cd8611c4383f3ead941f7cb0e90988ac",
            "reqSigs": 1,
            "type": "pubkeyhash",
            "addresses": [
              "LRbJrNfSP59CPvwb7d9P96RcNCYeeuSX9F"
            ]
          }
        }
      ],
      "hex": "0100000001a14ff0b52f2709893e156fc9c6adfce98be8e2a642c8e58314d415288f75223a010000006b483045022100dab35a51e828b24daf1f816535364893509d9410bff451c75d0cf94b3aaba41a022077468282cdd51265c995a03e7e9982703bcaefbcc291027b08b7a92645cdfee00121037ec73a7278362ccbf48da39f6ff82cf3a07dcbc1559ba1219e04a9f465c26b11ffffffff02d817e705000000001976a91406f2ddfa9c5077e45239ee7ab72cab6f423244c188ac1cb3c821010000001976a91445daad3da433cd8611c4383f3ead941f7cb0e90988ac00000000"
    }, 
    {
      "txid": "439ae2e5d2858d57a8cd00447aa894703d7165794e77c3cf8e192b5dad589882",
      "hash": "439ae2e5d2858d57a8cd00447aa894703d7165794e77c3cf8e192b5dad589882",
      "version": 1,
      "size": 226,
      "vsize": 226,
      "locktime": 0,
      "vin": [
        {
          "txid": "0b0ea6383c74bb005d7f5dd7e037db6941a4f3942e34c204a7693c3d747c8d55",
          "vout": 0,
          "scriptSig": {
            "asm": "3045022100eaa4a1fd8f291e7f2dedd7a8cce046f6114ab9ab60ca1c4b6058f04156cff24d022006f3876a0df34d053f4336e1142a12257e5850d8d62fa2c0800fd69bac090291[ALL] 03dcea80e692d0b819be5e486b0fe0f0f883b34d9fd10b092e0d1f52493172ad60",
            "hex": "483045022100eaa4a1fd8f291e7f2dedd7a8cce046f6114ab9ab60ca1c4b6058f04156cff24d022006f3876a0df34d053f4336e1142a12257e5850d8d62fa2c0800fd69bac090291012103dcea80e692d0b819be5e486b0fe0f0f883b34d9fd10b092e0d1f52493172ad60"
          },
          "sequence": 4294967295
        }
      ],
      "vout": [
        {
          "value": 3.38944273,
          "n": 0,
          "scriptPubKey": {
            "asm": "OP_DUP OP_HASH160 db74c97273662baaa96e33aa5428ce99f75ef88f OP_EQUALVERIFY OP_CHECKSIG",
            "hex": "76a914db74c97273662baaa96e33aa5428ce99f75ef88f88ac",
            "reqSigs": 1,
            "type": "pubkeyhash",
            "addresses": [
              "LfEL9iikybZPSjsUDWSnCphHn7cF9F1WZi"
            ]
          }
        }, 
        {
          "value": 272.00000000,
          "n": 1,
          "scriptPubKey": {
            "asm": "OP_DUP OP_HASH160 26e2280f9d55139e28a297cc911a13082f987a9c OP_EQUALVERIFY OP_CHECKSIG",
            "hex": "76a91426e2280f9d55139e28a297cc911a13082f987a9c88ac",
            "reqSigs": 1,
            "type": "pubkeyhash",
            "addresses": [
              "LNmYs8YSQr2G3BBdifsdHKRSz8yZtemSrr"
            ]
          }
        }
      ],
      "hex": "0100000001558d7c743d3c69a704c2342e94f3a44169db37e0d75d7f5d00bb743c38a60e0b000000006b483045022100eaa4a1fd8f291e7f2dedd7a8cce046f6114ab9ab60ca1c4b6058f04156cff24d022006f3876a0df34d053f4336e1142a12257e5850d8d62fa2c0800fd69bac090291012103dcea80e692d0b819be5e486b0fe0f0f883b34d9fd10b092e0d1f52493172ad60ffffffff0211e13314000000001976a914db74c97273662baaa96e33aa5428ce99f75ef88f88ac00103f55060000001976a91426e2280f9d55139e28a297cc911a13082f987a9c88ac00000000"
    }, 
    {
      "txid": "66b6d99357665030df69f6f61961abfa1e1ade240a64f662393fa3e043462099",
      "hash": "66b6d99357665030df69f6f61961abfa1e1ade240a64f662393fa3e043462099",
      "version": 1,
      "size": 226,
      "vsize": 226,
      "locktime": 0,
      "vin": [
        {
          "txid": "74ea7732b806dfaec9f4d707ad9a5a5a26e7eafa40e9a53086a291506b98f6c2",
          "vout": 0,
          "scriptSig": {
            "asm": "30450221008a515702728e247ab27aea15f3b543bd91ddbf8046104b000fb7279ddff2fb2b022061e7c48a0dae86e7a19daae736c3236c486289fe95479117ddc1be6c6b7738f0[ALL] 03531ba25225b8c5369f529481879dc35f18e98dc1332412f6a4ab20b01311a5b7",
            "hex": "4830450221008a515702728e247ab27aea15f3b543bd91ddbf8046104b000fb7279ddff2fb2b022061e7c48a0dae86e7a19daae736c3236c486289fe95479117ddc1be6c6b7738f0012103531ba25225b8c5369f529481879dc35f18e98dc1332412f6a4ab20b01311a5b7"
          },
          "sequence": 4294967295
        }
      ],
      "vout": [
        {
          "value": 0.26427442,
          "n": 0,
          "scriptPubKey": {
            "asm": "OP_DUP OP_HASH160 c78d6736bae048b4af5f94b0abe5557759dd8b17 OP_EQUALVERIFY OP_CHECKSIG",
            "hex": "76a914c78d6736bae048b4af5f94b0abe5557759dd8b1788ac",
            "reqSigs": 1,
            "type": "pubkeyhash",
            "addresses": [
              "LdR68FbF9vnwoxLR4PwDZvoDHsPQn5byxg"
            ]
          }
        }, 
        {
          "value": 0.55876308,
          "n": 1,
          "scriptPubKey": {
            "asm": "OP_DUP OP_HASH160 50daa8a8ee95ad5dada6857692a29533e58d4866 OP_EQUALVERIFY OP_CHECKSIG",
            "hex": "76a91450daa8a8ee95ad5dada6857692a29533e58d486688ac",
            "reqSigs": 1,
            "type": "pubkeyhash",
            "addresses": [
              "LSbUGEwT7L5ASG7NipCBjxWFzq8S47tMRc"
            ]
          }
        }
      ],
      "hex": "0100000001c2f6986b5091a28630a5e940faeae7265a5a9aad07d7f4c9aedf06b83277ea74000000006b4830450221008a515702728e247ab27aea15f3b543bd91ddbf8046104b000fb7279ddff2fb2b022061e7c48a0dae86e7a19daae736c3236c486289fe95479117ddc1be6c6b7738f0012103531ba25225b8c5369f529481879dc35f18e98dc1332412f6a4ab20b01311a5b7ffffffff0232409301000000001976a914c78d6736bae048b4af5f94b0abe5557759dd8b1788acd49a5403000000001976a91450daa8a8ee95ad5dada6857692a29533e58d486688ac00000000"
    }, 
    {
      "txid": "58a69c8bd7bff632a0b35f780d72bc61a904224fc04fa3050354680d686df29a",
      "hash": "58a69c8bd7bff632a0b35f780d72bc61a904224fc04fa3050354680d686df29a",
      "version": 2,
      "size": 226,
      "vsize": 226,
      "locktime": 1357280,
      "vin": [
        {
          "txid": "dd62a24b67267a4a13aa2ea2997bff95e557b8d1efc89202e71c5fe1a65b0b6e",
          "vout": 0,
          "scriptSig": {
            "asm": "3045022100e9e7655f0680ff2cefed8d575ebddfdbd22650c03fb5fff6d2c2955b2f27f1af02205b986752aa6357cfb1c53e7b51ebb4fcf584285b657701b4f575a196a364e374[ALL] 0324a34e905738e20e6e5dfc72e0ecb3f60f7b61aa48654b3a35d8148efc7c379d",
            "hex": "483045022100e9e7655f0680ff2cefed8d575ebddfdbd22650c03fb5fff6d2c2955b2f27f1af02205b986752aa6357cfb1c53e7b51ebb4fcf584285b657701b4f575a196a364e37401210324a34e905738e20e6e5dfc72e0ecb3f60f7b61aa48654b3a35d8148efc7c379d"
          },
          "sequence": 4294967294
        }
      ],
      "vout": [
        {
          "value": 9.28513186,
          "n": 0,
          "scriptPubKey": {
            "asm": "OP_DUP OP_HASH160 f79fa28972c614e63f42f7a6af8e3c746144c08e OP_EQUALVERIFY OP_CHECKSIG",
            "hex": "76a914f79fa28972c614e63f42f7a6af8e3c746144c08e88ac",
            "reqSigs": 1,
            "type": "pubkeyhash",
            "addresses": [
              "LhoGQDtnqYVHzqv1JKo7CxSF14qoQmFrb1"
            ]
          }
        }, 
        {
          "value": 2.99900000,
          "n": 1,
          "scriptPubKey": {
            "asm": "OP_DUP OP_HASH160 8f70e87f544fc3becf72db0c353b8b3e8c8b2024 OP_EQUALVERIFY OP_CHECKSIG",
            "hex": "76a9148f70e87f544fc3becf72db0c353b8b3e8c8b202488ac",
            "reqSigs": 1,
            "type": "pubkeyhash",
            "addresses": [
              "LYJQ9eH7WqXVsJAPNE4vaTDyeSWiVj8f2y"
            ]
          }
        }
      ],
      "hex": "02000000016e0b5ba6e15f1ce70292c8efd1b857e595ff7b99a22eaa134a7a26674ba262dd000000006b483045022100e9e7655f0680ff2cefed8d575ebddfdbd22650c03fb5fff6d2c2955b2f27f1af02205b986752aa6357cfb1c53e7b51ebb4fcf584285b657701b4f575a196a364e37401210324a34e905738e20e6e5dfc72e0ecb3f60f7b61aa48654b3a35d8148efc7c379dfeffffff02a2fc5737000000001976a914f79fa28972c614e63f42f7a6af8e3c746144c08e88ac601ce011000000001976a9148f70e87f544fc3becf72db0c353b8b3e8c8b202488ace0b51400"
    }, 
    {
      "txid": "ac9162265ea367c514501bc3dfa8b0a38b227231aec0129dc4871074d28098aa",
      "hash": "ac9162265ea367c514501bc3dfa8b0a38b227231aec0129dc4871074d28098aa",
      "version": 1,
      "size": 226,
      "vsize": 226,
      "locktime": 0,
      "vin": [
        {
          "txid": "70f390dea77aa81895aa10d3b35bb37da15f8b320d5468ecf0a56273f1039d1b",
          "vout": 1,
          "scriptSig": {
            "asm": "30450221009eed5ab421db7f088459d1527ffd0b53663fd4d37c37dd365c8a2410682b082102206d0386fec2698d2c2a72a8f17e91c348f827a3847adf5d1996d4054199ddcc42[ALL] 032f5e49d24491d3e19857a6e991b048a7e6f9839276ac59fdc6ea902822e52ead",
            "hex": "4830450221009eed5ab421db7f088459d1527ffd0b53663fd4d37c37dd365c8a2410682b082102206d0386fec2698d2c2a72a8f17e91c348f827a3847adf5d1996d4054199ddcc420121032f5e49d24491d3e19857a6e991b048a7e6f9839276ac59fdc6ea902822e52ead"
          },
          "sequence": 4294967295
        }
      ],
      "vout": [
        {
          "value": 0.04062960,
          "n": 0,
          "scriptPubKey": {
            "asm": "OP_DUP OP_HASH160 af90f6679074b327148bf7406398b9cbe5fbe1ac OP_EQUALVERIFY OP_CHECKSIG",
            "hex": "76a914af90f6679074b327148bf7406398b9cbe5fbe1ac88ac",
            "reqSigs": 1,
            "type": "pubkeyhash",
            "addresses": [
              "LbEGAxP43hWnTdHkW9Cjj9WHekXq2VEtYq"
            ]
          }
        }, 
        {
          "value": 0.00055934,
          "n": 1,
          "scriptPubKey": {
            "asm": "OP_DUP OP_HASH160 b3b04a976e5e4aafbcb4c363099a4db5db75ef22 OP_EQUALVERIFY OP_CHECKSIG",
            "hex": "76a914b3b04a976e5e4aafbcb4c363099a4db5db75ef2288ac",
            "reqSigs": 1,
            "type": "pubkeyhash",
            "addresses": [
              "Lbc4QVNdDGDugY6gR7iY59eFpWdcqLzJE7"
            ]
          }
        }
      ],
      "hex": "01000000011b9d03f17362a5f0ec68540d328b5fa17db35bb3d310aa9518a87aa7de90f370010000006b4830450221009eed5ab421db7f088459d1527ffd0b53663fd4d37c37dd365c8a2410682b082102206d0386fec2698d2c2a72a8f17e91c348f827a3847adf5d1996d4054199ddcc420121032f5e49d24491d3e19857a6e991b048a7e6f9839276ac59fdc6ea902822e52eadffffffff02f0fe3d00000000001976a914af90f6679074b327148bf7406398b9cbe5fbe1ac88ac7eda0000000000001976a914b3b04a976e5e4aafbcb4c363099a4db5db75ef2288ac00000000"
    }, 
    {
      "txid": "150ebf6b9271d60ab0ac0d1e3f49e779f5cf79203522718fda95e3e1d1ea1af2",
      "hash": "4ea019b299cf2e8100b5563b03875959a638b387ab851b7c3f83d67e1a179933",
      "version": 2,
      "size": 250,
      "vsize": 168,
      "locktime": 0,
      "vin": [
        {
          "txid": "e9628cc36f9ccd446247347da5bc4f3a7104aaca4e122798b43436fe7ce80d26",
          "vout": 1,
          "scriptSig": {
            "asm": "0014ba979ed3cd91bc408cc4bf54f77eae47273a54c9",
            "hex": "160014ba979ed3cd91bc408cc4bf54f77eae47273a54c9"
          },
          "txinwitness": [
            "3045022100a04f6f143e69cf3d5967cf0981a2f11fbea0629fabc8ac01e7c788b0c181671402206af3135549ab257429b3212a1fafb612a4053cd57315a046139bc43ae89913a801", 
            "03757688574400a223f99dfe57c10190a736c0ffea043bde242802b8958d4d7231"
          ],
          "sequence": 4294967294
        }
      ],
      "vout": [
        {
          "value": 6.57585860,
          "n": 0,
          "scriptPubKey": {
            "asm": "OP_DUP OP_HASH160 74e8070f27bb018975c3e494588c2f397fe9b8a3 OP_EQUALVERIFY OP_CHECKSIG",
            "hex": "76a91474e8070f27bb018975c3e494588c2f397fe9b8a388ac",
            "reqSigs": 1,
            "type": "pubkeyhash",
            "addresses": [
              "LVt6c2LbU2wbJvsWDH6ywLXrPvTxxjzcLQ"
            ]
          }
        }, 
        {
          "value": 1.06790325,
          "n": 1,
          "scriptPubKey": {
            "asm": "OP_HASH160 8cccac4f929185f2e3405d8f07a15c89dd515278 OP_EQUAL",
            "hex": "a9148cccac4f929185f2e3405d8f07a15c89dd51527887",
            "reqSigs": 1,
            "type": "scripthash",
            "addresses": [
              "MLje2Dq37PRqCzD754aQjewxu9X4qkFyAx"
            ]
          }
        }
      ],
      "hex": "02000000000101260de87cfe3634b49827124ecaaa04713a4fbca57d34476244cd9c6fc38c62e90100000017160014ba979ed3cd91bc408cc4bf54f77eae47273a54c9feffffff02c4f63127000000001976a91474e8070f27bb018975c3e494588c2f397fe9b8a388acb57d5d060000000017a9148cccac4f929185f2e3405d8f07a15c89dd5152788702483045022100a04f6f143e69cf3d5967cf0981a2f11fbea0629fabc8ac01e7c788b0c181671402206af3135549ab257429b3212a1fafb612a4053cd57315a046139bc43ae89913a8012103757688574400a223f99dfe57c10190a736c0ffea043bde242802b8958d4d723100000000"
    }
  ],
  "time": 1516982407,
  "mediantime": 1516981760,
  "nonce": 120498988,
  "bits": "1a047f14",
  "difficulty": 3731199.183374282,
  "chainwork": "00000000000000000000000000000000000000000000003216d350a575ebc00e",
  "previousblockhash": "e86084932eb24a8a4084b2a700f085451a6f5069541d34e8eaf0d07eecc8f6f6",
  "nextblockhash": "0642c00072250bb6b36b5ad51464aa1846ac79ae270f9b8c266483d0d75fb2ad"
}
