{
  "hash": "82b4122c406b7f73dd4fbe43b02d209459c2a69272e6a017705bdf22b814634d",
  "confirmations": 1598,
  "strippedsize": 1340,
  "size": 1376,
  "weight": 5396,
  "height": 1359396,
  "version": 536870912,
  "versionHex": "20000000",
  "merkleroot": "06752439d526b77e97c88b6df9bb768c17208cee90a54b9333042e826b0732c7",
  "tx": [
    {
      "txid": "f4acef6d9d9d6639b5d1f7fc8a2b8e40699c32d5a3835726d82f06b37f6e2f6a",
      "hash": "504cbed74dbc91987bcf5db38bbbb5890df6430809a3ec2af321eefea0696846",
      "version": 1,
      "size": 251,
      "vsize": 224,
      "locktime": 0,
      "vin": [
        {
          "coinbase": "0324be140000000000fabe6d6dc831cef6fea2c92693cc7ed4bebada0ee12b6814a44577a63fc4c1e4734b5ab40100000000000000042dca6f5a041cf3011f08b014c473800125f20a42570a6657042f42572f",
          "sequence": 4294967295
        }
      ],
      "vout": [
        {
          "value": 25.01101800,
          "n": 0,
          "scriptPubKey": {
            "asm": "OP_DUP OP_HASH160 5373bc9425fd49e6bfe522d3dfc85432da2cc023 OP_EQUALVERIFY OP_CHECKSIG",
            "hex": "76a9145373bc9425fd49e6bfe522d3dfc85432da2cc02388ac",
            "reqSigs": 1,
            "type": "pubkeyhash",
            "addresses": [
              "LSqCzf5bPfkqGf94pJcfxWx5bZMPJE5XRf"
            ]
          }
        }, 
        {
          "value": 0.00000000,
          "n": 1,
          "scriptPubKey": {
            "asm": "OP_RETURN aa21a9ed97a9c6e613a4bb87f397c39d487bf3f48b52b6ae38aa3a2ce6f53a853d3116d9",
            "hex": "6a24aa21a9ed97a9c6e613a4bb87f397c39d487bf3f48b52b6ae38aa3a2ce6f53a853d3116d9",
            "type": "nulldata"
          }
        }
      ],
      "hex": "010000000001010000000000000000000000000000000000000000000000000000000000000000ffffffff530324be140000000000fabe6d6dc831cef6fea2c92693cc7ed4bebada0ee12b6814a44577a63fc4c1e4734b5ab40100000000000000042dca6f5a041cf3011f08b014c473800125f20a42570a6657042f42572fffffffff02e8c81395000000001976a9145373bc9425fd49e6bfe522d3dfc85432da2cc02388ac0000000000000000266a24aa21a9ed97a9c6e613a4bb87f397c39d487bf3f48b52b6ae38aa3a2ce6f53a853d3116d90120000000000000000000000000000000000000000000000000000000000000000000000000"
    }, 
    {
      "txid": "dcfca2c1924949e85d31a3ad2f4cdbdffd52c869832b250975b3cb99be1f23b7",
      "hash": "dcfca2c1924949e85d31a3ad2f4cdbdffd52c869832b250975b3cb99be1f23b7",
      "version": 1,
      "size": 369,
      "vsize": 369,
      "locktime": 0,
      "vin": [
        {
          "txid": "a1e92d7e55dd28ca5742cf1b0b7aaadd73c029af5dd140b38c11513bbdde350d",
          "vout": 1,
          "scriptSig": {
            "asm": "0 3044022023b0cb315201d67e1d5b90b8e86c5edde6fed16b94e2305d33c3bc731a21d119022023790c092e4c6c9f0daa1fb2c7df2f699b4b1b8eea06bed8b638e8f86c6963d7[ALL] 3044022062f37280d73a31d80661a8b454f72ffe170b8dddb7553983eff7cd5749c9343002203bd97b6d6843338dd366e1e0186c8b1e6d3212e62d15c4542a86eaf50bb4bdb3[ALL] 5221020a7ba4033f27f74d91b3785bc0d7da47b2be28735951b5ec1d294f0871941a542103ed1601c4f9b125e1a22d6c6ef35f4e73e36a6823057f80dc59b78be2eade56812103313c819b9d8a40eb1b77f5a724f9c19542da3ccd065db8efb30f53243c3ec6dd53ae",
            "hex": "00473044022023b0cb315201d67e1d5b90b8e86c5edde6fed16b94e2305d33c3bc731a21d119022023790c092e4c6c9f0daa1fb2c7df2f699b4b1b8eea06bed8b638e8f86c6963d701473044022062f37280d73a31d80661a8b454f72ffe170b8dddb7553983eff7cd5749c9343002203bd97b6d6843338dd366e1e0186c8b1e6d3212e62d15c4542a86eaf50bb4bdb3014c695221020a7ba4033f27f74d91b3785bc0d7da47b2be28735951b5ec1d294f0871941a542103ed1601c4f9b125e1a22d6c6ef35f4e73e36a6823057f80dc59b78be2eade56812103313c819b9d8a40eb1b77f5a724f9c19542da3ccd065db8efb30f53243c3ec6dd53ae"
          },
          "sequence": 4294967295
        }
      ],
      "vout": [
        {
          "value": 0.55731588,
          "n": 0,
          "scriptPubKey": {
            "asm": "OP_DUP OP_HASH160 87b81554b1048502d6861e5a367617a9a2d5da1c OP_EQUALVERIFY OP_CHECKSIG",
            "hex": "76a91487b81554b1048502d6861e5a367617a9a2d5da1c88ac",
            "reqSigs": 1,
            "type": "pubkeyhash",
            "addresses": [
              "LXba1Sgknp4xnBuDm1HTUJq62PwsEfAagf"
            ]
          }
        }, 
        {
          "value": 0.46785536,
          "n": 1,
          "scriptPubKey": {
            "asm": "OP_HASH160 b22e5cdf8e49cdd018e513350a3c4c7c0be20edb OP_EQUAL",
            "hex": "a914b22e5cdf8e49cdd018e513350a3c4c7c0be20edb87",
            "reqSigs": 1,
            "type": "scripthash",
            "addresses": [
              "MQ9J3vFJW7DSghgCgDMLMQDBrzBD1wsWJo"
            ]
          }
        }
      ],
      "hex": "01000000010d35debd3b51118cb340d15daf29c073ddaa7a0b1bcf4257ca28dd557e2de9a101000000fc00473044022023b0cb315201d67e1d5b90b8e86c5edde6fed16b94e2305d33c3bc731a21d119022023790c092e4c6c9f0daa1fb2c7df2f699b4b1b8eea06bed8b638e8f86c6963d701473044022062f37280d73a31d80661a8b454f72ffe170b8dddb7553983eff7cd5749c9343002203bd97b6d6843338dd366e1e0186c8b1e6d3212e62d15c4542a86eaf50bb4bdb3014c695221020a7ba4033f27f74d91b3785bc0d7da47b2be28735951b5ec1d294f0871941a542103ed1601c4f9b125e1a22d6c6ef35f4e73e36a6823057f80dc59b78be2eade56812103313c819b9d8a40eb1b77f5a724f9c19542da3ccd065db8efb30f53243c3ec6dd53aeffffffff0284655203000000001976a91487b81554b1048502d6861e5a367617a9a2d5da1c88ac00e4c9020000000017a914b22e5cdf8e49cdd018e513350a3c4c7c0be20edb8700000000"
    }, 
    {
      "txid": "40d662807021055dba8202fe06d819277ebffde1c57de276ce48c9d9394a7f70",
      "hash": "40d662807021055dba8202fe06d819277ebffde1c57de276ce48c9d9394a7f70",
      "version": 1,
      "size": 224,
      "vsize": 224,
      "locktime": 0,
      "vin": [
        {
          "txid": "1785c1142c0825989203293a9a42bd0b696573dc0e03c36cc0de690463ef9069",
          "vout": 0,
          "scriptSig": {
            "asm": "3043021f7bb608402b1103c90f823df45bc6caa83da412bb473adc397ac5b7166ac26e02200977c6905a5bc0c0b5e2f0a3cd6a3b5a1f9dec2bb36a24b4f144a2aeb6659a76[ALL] 0387612d81a81ed25249c240bcec78d9effd8df0094b83624e67a82cc00e5e4476",
            "hex": "463043021f7bb608402b1103c90f823df45bc6caa83da412bb473adc397ac5b7166ac26e02200977c6905a5bc0c0b5e2f0a3cd6a3b5a1f9dec2bb36a24b4f144a2aeb6659a7601210387612d81a81ed25249c240bcec78d9effd8df0094b83624e67a82cc00e5e4476"
          },
          "sequence": 4294967295
        }
      ],
      "vout": [
        {
          "value": 0.19498080,
          "n": 0,
          "scriptPubKey": {
            "asm": "OP_DUP OP_HASH160 932ae5ef73bd4bceaaf87a58cee67dad24255219 OP_EQUALVERIFY OP_CHECKSIG",
            "hex": "76a914932ae5ef73bd4bceaaf87a58cee67dad2425521988ac",
            "reqSigs": 1,
            "type": "pubkeyhash",
            "addresses": [
              "LYe6z2hxMCnUV2cVURsWyzqkzewLQfvTYA"
            ]
          }
        }, 
        {
          "value": 0.00128441,
          "n": 1,
          "scriptPubKey": {
            "asm": "OP_DUP OP_HASH160 75b763970a4592351b92414d2a29fd908dea4e3f OP_EQUALVERIFY OP_CHECKSIG",
            "hex": "76a91475b763970a4592351b92414d2a29fd908dea4e3f88ac",
            "reqSigs": 1,
            "type": "pubkeyhash",
            "addresses": [
              "LVxP1kSw4pjjkEoCj4d9VLcYD3BXqQuTUK"
            ]
          }
        }
      ],
      "hex": "01000000016990ef630469dec06cc3030edc7365690bbd429a3a2903929825082c14c185170000000069463043021f7bb608402b1103c90f823df45bc6caa83da412bb473adc397ac5b7166ac26e02200977c6905a5bc0c0b5e2f0a3cd6a3b5a1f9dec2bb36a24b4f144a2aeb6659a7601210387612d81a81ed25249c240bcec78d9effd8df0094b83624e67a82cc00e5e4476ffffffff0260842901000000001976a914932ae5ef73bd4bceaaf87a58cee67dad2425521988acb9f50100000000001976a91475b763970a4592351b92414d2a29fd908dea4e3f88ac00000000"
    }, 
    {
      "txid": "0ef4be84726359a0d25f664a1d33b089de5b8cbd8153490615ac76b3e9824458",
      "hash": "0ef4be84726359a0d25f664a1d33b089de5b8cbd8153490615ac76b3e9824458",
      "version": 1,
      "size": 225,
      "vsize": 225,
      "locktime": 0,
      "vin": [
        {
          "txid": "ec4318438126b7611a1749feac538f1a351edc91d0ecad0cc8040edfc54a1ff0",
          "vout": 16,
          "scriptSig": {
            "asm": "3044022027788cebf7eb7ea269c78795937dd0359a46f49ea69d43e63f5b92cd64bd471b0220208c2a3fdf72b90afe66f782cc443240455025fe7afbddeed81921902ada4b15[ALL] 022561502c37970d335eec47890acf2f1d58cac5063cfbbd11e9cb8ae2b59cb6f1",
            "hex": "473044022027788cebf7eb7ea269c78795937dd0359a46f49ea69d43e63f5b92cd64bd471b0220208c2a3fdf72b90afe66f782cc443240455025fe7afbddeed81921902ada4b150121022561502c37970d335eec47890acf2f1d58cac5063cfbbd11e9cb8ae2b59cb6f1"
          },
          "sequence": 4294967295
        }
      ],
      "vout": [
        {
          "value": 0.05572813,
          "n": 0,
          "scriptPubKey": {
            "asm": "OP_DUP OP_HASH160 ed35cb1b567a58ea49f1dff590996bd6c95744fd OP_EQUALVERIFY OP_CHECKSIG",
            "hex": "76a914ed35cb1b567a58ea49f1dff590996bd6c95744fd88ac",
            "reqSigs": 1,
            "type": "pubkeyhash",
            "addresses": [
              "LgrCrJkKucWoomeDn2J6ewM1wuWjnWVmVe"
            ]
          }
        }, 
        {
          "value": 0.44404587,
          "n": 1,
          "scriptPubKey": {
            "asm": "OP_DUP OP_HASH160 9be590aa6965993aab03651ad788be83cc09fb78 OP_EQUALVERIFY OP_CHECKSIG",
            "hex": "76a9149be590aa6965993aab03651ad788be83cc09fb7888ac",
            "reqSigs": 1,
            "type": "pubkeyhash",
            "addresses": [
              "LZSG1Qhu489bKcERRTxeGZx3pKW93H6M7q"
            ]
          }
        }
      ],
      "hex": "0100000001f01f4ac5df0e04c80cadecd091dc1e351a8f53acfe49171a61b72681431843ec100000006a473044022027788cebf7eb7ea269c78795937dd0359a46f49ea69d43e63f5b92cd64bd471b0220208c2a3fdf72b90afe66f782cc443240455025fe7afbddeed81921902ada4b150121022561502c37970d335eec47890acf2f1d58cac5063cfbbd11e9cb8ae2b59cb6f1ffffffff02cd085500000000001976a914ed35cb1b567a58ea49f1dff590996bd6c95744fd88ac6b8fa502000000001976a9149be590aa6965993aab03651ad788be83cc09fb7888ac00000000"
    }, 
    {
      "txid": "61836af264b7ae8c8a76b244029bd4702b50e2c150412e763e15de9ee984510a",
      "hash": "61836af264b7ae8c8a76b244029bd4702b50e2c150412e763e15de9ee984510a",
      "version": 1,
      "size": 226,
      "vsize": 226,
      "locktime": 0,
      "vin": [
        {
          "txid": "258b6cf991ed9de2fabcca11e42ea743e7cfa7fa1d10d96bff29f3041e298b47",
          "vout": 4,
          "scriptSig": {
            "asm": "3045022100ea98a1e28041557197e1c149cb571891d87bb0e9414213b159ddd96441004d11022041eff45040ec09a9d79874e6b8639aa0b2e1a5f61cae26796f227035aa55e153[ALL] 025250f172fda497cd7d8b8430c59e19e9d0b4949a3039735fbd88d44c43a962c2",
            "hex": "483045022100ea98a1e28041557197e1c149cb571891d87bb0e9414213b159ddd96441004d11022041eff45040ec09a9d79874e6b8639aa0b2e1a5f61cae26796f227035aa55e1530121025250f172fda497cd7d8b8430c59e19e9d0b4949a3039735fbd88d44c43a962c2"
          },
          "sequence": 4294967295
        }
      ],
      "vout": [
        {
          "value": 0.31578073,
          "n": 0,
          "scriptPubKey": {
            "asm": "OP_DUP OP_HASH160 79b21b109212086ab88165cfb1b77a82d64b7289 OP_EQUALVERIFY OP_CHECKSIG",
            "hex": "76a91479b21b109212086ab88165cfb1b77a82d64b728988ac",
            "reqSigs": 1,
            "type": "pubkeyhash",
            "addresses": [
              "LWKRPRicMkhxVQXtTHfqu3hHU2Ht51SZKy"
            ]
          }
        }, 
        {
          "value": 0.01047761,
          "n": 1,
          "scriptPubKey": {
            "asm": "OP_DUP OP_HASH160 98be193d78d72de03a657aee4d621272d2e2aceb OP_EQUALVERIFY OP_CHECKSIG",
            "hex": "76a91498be193d78d72de03a657aee4d621272d2e2aceb88ac",
            "reqSigs": 1,
            "type": "pubkeyhash",
            "addresses": [
              "LZ9aheqMUhpvmEhKveR7R3M6iwQDRhQ4WM"
            ]
          }
        }
      ],
      "hex": "0100000001478b291e04f329ff6bd9101dfaa7cfe743a72ee411cabcfae29ded91f96c8b25040000006b483045022100ea98a1e28041557197e1c149cb571891d87bb0e9414213b159ddd96441004d11022041eff45040ec09a9d79874e6b8639aa0b2e1a5f61cae26796f227035aa55e1530121025250f172fda497cd7d8b8430c59e19e9d0b4949a3039735fbd88d44c43a962c2ffffffff02d9d7e101000000001976a91479b21b109212086ab88165cfb1b77a82d64b728988acd1fc0f00000000001976a91498be193d78d72de03a657aee4d621272d2e2aceb88ac00000000"
    }
  ],
  "time": 1517275693,
  "mediantime": 1517275219,
  "nonce": 193517116,
  "bits": "1a042eae",
  "difficulty": 4011378.762614286,
  "chainwork": "000000000000000000000000000000000000000000000033f7377b0d5a8788ca",
  "previousblockhash": "d5e1ef661bfbb97b22fa21f823b9700bc09f8dcc91134d75b8f8b6423e6f3419",
  "nextblockhash": "4ff46fd01304b90502b1262accd57a7a7145bf086750ebaf0e83c854654f4abd"
}
