{
  "hash": "82dcd0efcd896a01ea644bd9f8bb6f8c7b304edc5bbdc4ff1b5bc7e356a70406",
  "confirmations": 954,
  "strippedsize": 1414,
  "size": 1450,
  "weight": 5692,
  "height": 1360040,
  "version": 536870912,
  "versionHex": "20000000",
  "merkleroot": "094045d8c7d99a6ee0676699cbc1e8107f2622af8071a700c000744e7c6e430f",
  "tx": [
    {
      "txid": "6d762ee3c489760eb2c5317e196283d6d6ac7fce088240a82725ea2609fbd284",
      "hash": "3c368823e4c29b373cdb14d4e00a2dee5832e2ccac48443a4e87d4f7d83aa3fc",
      "version": 1,
      "size": 244,
      "vsize": 217,
      "locktime": 0,
      "vin": [
        {
          "coinbase": "03a8c01404512d715a0804031fdc46000000fabe6d6dc7647942eb217006c36d623e3019b4ee95a4e77a181c709d500cb7ef1f21e2f040000000000000000d2f6e6f64655374726174756d2f",
          "sequence": 0
        }
      ],
      "vout": [
        {
          "value": 25.00146776,
          "n": 0,
          "scriptPubKey": {
            "asm": "OP_DUP OP_HASH160 0c617fdb2ea42aed30a509595ee21ba3f6688db0 OP_EQUALVERIFY OP_CHECKSIG",
            "hex": "76a9140c617fdb2ea42aed30a509595ee21ba3f6688db088ac",
            "reqSigs": 1,
            "type": "pubkeyhash",
            "addresses": [
              "LLMRAtr3qBje2ySEa3CnZ55LA4TQMWnRY3"
            ]
          }
        }, 
        {
          "value": 0.00000000,
          "n": 1,
          "scriptPubKey": {
            "asm": "OP_RETURN aa21a9ed2d43b5c929e5b6bbe43f5f519faa785d5124d83f2cdddbc890ec922e24ae848f",
            "hex": "6a24aa21a9ed2d43b5c929e5b6bbe43f5f519faa785d5124d83f2cdddbc890ec922e24ae848f",
            "type": "nulldata"
          }
        }
      ],
      "hex": "010000000001010000000000000000000000000000000000000000000000000000000000000000ffffffff4c03a8c01404512d715a0804031fdc46000000fabe6d6dc7647942eb217006c36d623e3019b4ee95a4e77a181c709d500cb7ef1f21e2f040000000000000000d2f6e6f64655374726174756d2f000000000258360595000000001976a9140c617fdb2ea42aed30a509595ee21ba3f6688db088ac0000000000000000266a24aa21a9ed2d43b5c929e5b6bbe43f5f519faa785d5124d83f2cdddbc890ec922e24ae848f0120000000000000000000000000000000000000000000000000000000000000000000000000"
    }, 
    {
      "txid": "0ed12f7ae7408701eb8fe005baf29f85fadb68df9b8c4ecb8683dbce779d7184",
      "hash": "0ed12f7ae7408701eb8fe005baf29f85fadb68df9b8c4ecb8683dbce779d7184",
      "version": 1,
      "size": 225,
      "vsize": 225,
      "locktime": 0,
      "vin": [
        {
          "txid": "36e0fca14c394f7ff2c3eaef4d7fedab15a9c26466b77083a5885c8691014204",
          "vout": 12,
          "scriptSig": {
            "asm": "3044022029f28c129811145e32fa096d01c4bd031c7370666be705f5d75f7c9aa856daf802205e5c75bf9ababe5eda177a85ccd4c8ecc36a8923f519e3032d5e227f95da6cf8[ALL] 03c3924f16a3436ef1a849e649afc846c4ce4f15ae245c58b64e42d2f6dfceba80",
            "hex": "473044022029f28c129811145e32fa096d01c4bd031c7370666be705f5d75f7c9aa856daf802205e5c75bf9ababe5eda177a85ccd4c8ecc36a8923f519e3032d5e227f95da6cf8012103c3924f16a3436ef1a849e649afc846c4ce4f15ae245c58b64e42d2f6dfceba80"
          },
          "sequence": 4294967295
        }
      ],
      "vout": [
        {
          "value": 3.38732524,
          "n": 0,
          "scriptPubKey": {
            "asm": "OP_DUP OP_HASH160 6bd635895167ed288ad0ca7d6d9b96f779eceea2 OP_EQUALVERIFY OP_CHECKSIG",
            "hex": "76a9146bd635895167ed288ad0ca7d6d9b96f779eceea288ac",
            "reqSigs": 1,
            "type": "pubkeyhash",
            "addresses": [
              "LV49BFSwStBaXNAGNDuKdNTC2gQyhrZs1i"
            ]
          }
        }, 
        {
          "value": 2.21147523,
          "n": 1,
          "scriptPubKey": {
            "asm": "OP_DUP OP_HASH160 205ed2461df823c150259c134870b14c64603a44 OP_EQUALVERIFY OP_CHECKSIG",
            "hex": "76a914205ed2461df823c150259c134870b14c64603a4488ac",
            "reqSigs": 1,
            "type": "pubkeyhash",
            "addresses": [
              "LNB7Uf3Wr9FhxJ6DgAePEbys6BkcbLizGj"
            ]
          }
        }
      ],
      "hex": "010000000104420191865c88a58370b76664c2a915abed7f4defeac3f27f4f394ca1fce0360c0000006a473044022029f28c129811145e32fa096d01c4bd031c7370666be705f5d75f7c9aa856daf802205e5c75bf9ababe5eda177a85ccd4c8ecc36a8923f519e3032d5e227f95da6cf8012103c3924f16a3436ef1a849e649afc846c4ce4f15ae245c58b64e42d2f6dfceba80ffffffff02eca53014000000001976a9146bd635895167ed288ad0ca7d6d9b96f779eceea288ac83712e0d000000001976a914205ed2461df823c150259c134870b14c64603a4488ac00000000"
    }, 
    {
      "txid": "1f3efd953be82b3b1d79ea7649709213dbc2dafe28b914f388133f0863e78625",
      "hash": "1f3efd953be82b3b1d79ea7649709213dbc2dafe28b914f388133f0863e78625",
      "version": 1,
      "size": 225,
      "vsize": 225,
      "locktime": 0,
      "vin": [
        {
          "txid": "bfa470120ffe210609dca8e941715d7e82be086306d455704c3d2c81317672a6",
          "vout": 1,
          "scriptSig": {
            "asm": "304402206ff63c1e3641ea0d7d87ca39e9769e5f562db32460a68cb1ae4f3b790226db8c02201d8377b14db3af420669e269d7da3f8c85cda9e1797a5e58610b07fec8abcd6f[ALL] 0209eccf73c42a2b168d3aec3c8664edb00f96a7e4e0330bf55727b38e15971595",
            "hex": "47304402206ff63c1e3641ea0d7d87ca39e9769e5f562db32460a68cb1ae4f3b790226db8c02201d8377b14db3af420669e269d7da3f8c85cda9e1797a5e58610b07fec8abcd6f01210209eccf73c42a2b168d3aec3c8664edb00f96a7e4e0330bf55727b38e15971595"
          },
          "sequence": 4294967295
        }
      ],
      "vout": [
        {
          "value": 47.96314941,
          "n": 0,
          "scriptPubKey": {
            "asm": "OP_DUP OP_HASH160 2cdce6544b584637e4ea6f547c26d3e7d77059cc OP_EQUALVERIFY OP_CHECKSIG",
            "hex": "76a9142cdce6544b584637e4ea6f547c26d3e7d77059cc88ac",
            "reqSigs": 1,
            "type": "pubkeyhash",
            "addresses": [
              "LPKAd31Smvx1Xty1sDuWZoQPXw9HuBTR1w"
            ]
          }
        }, 
        {
          "value": 0.50000000,
          "n": 1,
          "scriptPubKey": {
            "asm": "OP_DUP OP_HASH160 cffadc101df665618bb25e7a6ecad679d6f67b75 OP_EQUALVERIFY OP_CHECKSIG",
            "hex": "76a914cffadc101df665618bb25e7a6ecad679d6f67b7588ac",
            "reqSigs": 1,
            "type": "pubkeyhash",
            "addresses": [
              "LeBeexHJzTSL5uMEyjjE7NQDQnp6GVGuTJ"
            ]
          }
        }
      ],
      "hex": "0100000001a6727631812c3d4c7055d4066308be827e5d7141e9a8dc090621fe0f1270a4bf010000006a47304402206ff63c1e3641ea0d7d87ca39e9769e5f562db32460a68cb1ae4f3b790226db8c02201d8377b14db3af420669e269d7da3f8c85cda9e1797a5e58610b07fec8abcd6f01210209eccf73c42a2b168d3aec3c8664edb00f96a7e4e0330bf55727b38e15971595ffffffff023df5e11d010000001976a9142cdce6544b584637e4ea6f547c26d3e7d77059cc88ac80f0fa02000000001976a914cffadc101df665618bb25e7a6ecad679d6f67b7588ac00000000"
    }, 
    {
      "txid": "2713aae7d7e7b734833f8a708c0e9b36fd371ac858f8aff23aa0601481eeac30",
      "hash": "2713aae7d7e7b734833f8a708c0e9b36fd371ac858f8aff23aa0601481eeac30",
      "version": 1,
      "size": 225,
      "vsize": 225,
      "locktime": 0,
      "vin": [
        {
          "txid": "617a020bd1a19b1fdb9dc17a568b9b3e284f54c5797a023c0c7ace00f8ce4deb",
          "vout": 1,
          "scriptSig": {
            "asm": "304402201bbe5e6220a2611def5a0fbf811de5ea17a4f516b42ef044d2f0a8b43530efd002207b7e8cdcdcc3c802e8d1803b67f64ab902a9c89c25ac65f8aedec61e95c1af5d[ALL] 030aa8e229949c25b4ddf2fbfac417b3ffe8f1c4eaaa7b3c3c45edd9203cd17e95",
            "hex": "47304402201bbe5e6220a2611def5a0fbf811de5ea17a4f516b42ef044d2f0a8b43530efd002207b7e8cdcdcc3c802e8d1803b67f64ab902a9c89c25ac65f8aedec61e95c1af5d0121030aa8e229949c25b4ddf2fbfac417b3ffe8f1c4eaaa7b3c3c45edd9203cd17e95"
          },
          "sequence": 4294967295
        }
      ],
      "vout": [
        {
          "value": 45.29700714,
          "n": 0,
          "scriptPubKey": {
            "asm": "OP_DUP OP_HASH160 f20b41f2e344435b30933f42bd64aafd8b05d5c2 OP_EQUALVERIFY OP_CHECKSIG",
            "hex": "76a914f20b41f2e344435b30933f42bd64aafd8b05d5c288ac",
            "reqSigs": 1,
            "type": "pubkeyhash",
            "addresses": [
              "LhHmGq1fC8dTum6rSBAonwzYCwJrGw7RuH"
            ]
          }
        }, 
        {
          "value": 3.02110561,
          "n": 1,
          "scriptPubKey": {
            "asm": "OP_DUP OP_HASH160 38fac27431b08349169e556d5ae7b66cbe805701 OP_EQUALVERIFY OP_CHECKSIG",
            "hex": "76a91438fac27431b08349169e556d5ae7b66cbe80570188ac",
            "reqSigs": 1,
            "type": "pubkeyhash",
            "addresses": [
              "LQREW36bb6xCwg9Kjqisdmxdxnk18EjKuF"
            ]
          }
        }
      ],
      "hex": "0100000001eb4dcef800ce7a0c3c027a79c5544f283e9b8b567ac19ddb1f9ba1d10b027a61010000006a47304402201bbe5e6220a2611def5a0fbf811de5ea17a4f516b42ef044d2f0a8b43530efd002207b7e8cdcdcc3c802e8d1803b67f64ab902a9c89c25ac65f8aedec61e95c1af5d0121030aa8e229949c25b4ddf2fbfac417b3ffe8f1c4eaaa7b3c3c45edd9203cd17e95ffffffff026abffd0d010000001976a914f20b41f2e344435b30933f42bd64aafd8b05d5c288ac61d70112000000001976a91438fac27431b08349169e556d5ae7b66cbe80570188ac00000000"
    }, 
    {
      "txid": "c7c9fdac9dafa09d96db5270bea2b85137203f624a7571692badcbc19f15ac2a",
      "hash": "c7c9fdac9dafa09d96db5270bea2b85137203f624a7571692badcbc19f15ac2a",
      "version": 2,
      "size": 224,
      "vsize": 224,
      "locktime": 1360038,
      "vin": [
        {
          "txid": "08f0a1f020b8ca31a1c2a024b05fd75bef3d194f949b7ee4ed49f9ff8e16f905",
          "vout": 0,
          "scriptSig": {
            "asm": "3045022100ac655e22320924fa880dbd5fe2a728a5b5b36655c72b7cfa6674408051a8130a02204ba8013f2a8ebb1e0e24f2bb479350e7477f13c69d7236a46e9fc42440d533e5[ALL] 02916e5dae4fa87234626466595122a49faf6a3ba7f981810d6568b07237ffc3bd",
            "hex": "483045022100ac655e22320924fa880dbd5fe2a728a5b5b36655c72b7cfa6674408051a8130a02204ba8013f2a8ebb1e0e24f2bb479350e7477f13c69d7236a46e9fc42440d533e5012102916e5dae4fa87234626466595122a49faf6a3ba7f981810d6568b07237ffc3bd"
          },
          "sequence": 4294967294
        }
      ],
      "vout": [
        {
          "value": 0.45862000,
          "n": 0,
          "scriptPubKey": {
            "asm": "OP_DUP OP_HASH160 36623fb7c37261c950ac18a9cfd12ae39d838aaf OP_EQUALVERIFY OP_CHECKSIG",
            "hex": "76a91436623fb7c37261c950ac18a9cfd12ae39d838aaf88ac",
            "reqSigs": 1,
            "type": "pubkeyhash",
            "addresses": [
              "LQBWT2QBGofy4JNodsuVJb6grQUnG7xGkq"
            ]
          }
        }, 
        {
          "value": 0.10900000,
          "n": 1,
          "scriptPubKey": {
            "asm": "OP_HASH160 b3e14bb39ba2ee0e67d3c2ddee49f9a775eb368a OP_EQUAL",
            "hex": "a914b3e14bb39ba2ee0e67d3c2ddee49f9a775eb368a87",
            "reqSigs": 1,
            "type": "scripthash",
            "addresses": [
              "MQJH5b4nX64wPaj5HmiNwQ5YEKHbaJAXMb"
            ]
          }
        }
      ],
      "hex": "020000000105f9168efff949ede47e9b944f193def5bd75fb024a0c2a131cab820f0a1f008000000006b483045022100ac655e22320924fa880dbd5fe2a728a5b5b36655c72b7cfa6674408051a8130a02204ba8013f2a8ebb1e0e24f2bb479350e7477f13c69d7236a46e9fc42440d533e5012102916e5dae4fa87234626466595122a49faf6a3ba7f981810d6568b07237ffc3bdfeffffff0270ccbb02000000001976a91436623fb7c37261c950ac18a9cfd12ae39d838aaf88ac2052a6000000000017a914b3e14bb39ba2ee0e67d3c2ddee49f9a775eb368a87a6c01400"
    }, 
    {
      "txid": "00352a18c14020a801243e74067c6231b255c76f87b12e898ca3cb726d3fddd0",
      "hash": "00352a18c14020a801243e74067c6231b255c76f87b12e898ca3cb726d3fddd0",
      "version": 1,
      "size": 226,
      "vsize": 226,
      "locktime": 0,
      "vin": [
        {
          "txid": "cca603d364a4f8de79036a08f23b97ffa471e6b0897d9075a4e9f441ff84f87a",
          "vout": 1,
          "scriptSig": {
            "asm": "3045022100a4dfbfc9365959930390a1619461c4de73e7e72e69c561cdf8aacf3ca53cc248022032a35e18446376b68bbeaf65f5407030f3077f29a1dabd3cb52b797876645c64[ALL] 02c6eb7196ee0ba53345c98498bde99a05b113e14dd2807c656394dc5e0401e62e",
            "hex": "483045022100a4dfbfc9365959930390a1619461c4de73e7e72e69c561cdf8aacf3ca53cc248022032a35e18446376b68bbeaf65f5407030f3077f29a1dabd3cb52b797876645c64012102c6eb7196ee0ba53345c98498bde99a05b113e14dd2807c656394dc5e0401e62e"
          },
          "sequence": 4294967295
        }
      ],
      "vout": [
        {
          "value": 0.00056452,
          "n": 0,
          "scriptPubKey": {
            "asm": "OP_DUP OP_HASH160 c7ec021d7c9b4a49c464082f0a25b16f3a526957 OP_EQUALVERIFY OP_CHECKSIG",
            "hex": "76a914c7ec021d7c9b4a49c464082f0a25b16f3a52695788ac",
            "reqSigs": 1,
            "type": "pubkeyhash",
            "addresses": [
              "LdT3TXdCdBUJgnB84kF7FxgYiaUJWpRt3i"
            ]
          }
        }, 
        {
          "value": 0.01820738,
          "n": 1,
          "scriptPubKey": {
            "asm": "OP_DUP OP_HASH160 7318a01f45cfcee07ccd6742a45f61065cdeaf3c OP_EQUALVERIFY OP_CHECKSIG",
            "hex": "76a9147318a01f45cfcee07ccd6742a45f61065cdeaf3c88ac",
            "reqSigs": 1,
            "type": "pubkeyhash",
            "addresses": [
              "LViXUHHmKLoMUepytP7T4cyJazQ7Dtv531"
            ]
          }
        }
      ],
      "hex": "01000000017af884ff41f4e9a475907d89b0e671a4ff973bf2086a0379def8a464d303a6cc010000006b483045022100a4dfbfc9365959930390a1619461c4de73e7e72e69c561cdf8aacf3ca53cc248022032a35e18446376b68bbeaf65f5407030f3077f29a1dabd3cb52b797876645c64012102c6eb7196ee0ba53345c98498bde99a05b113e14dd2807c656394dc5e0401e62effffffff0284dc0000000000001976a914c7ec021d7c9b4a49c464082f0a25b16f3a52695788ac42c81b00000000001976a9147318a01f45cfcee07ccd6742a45f61065cdeaf3c88ac00000000"
    }
  ],
  "time": 1517366556,
  "mediantime": 1517365864,
  "nonce": 3807490436,
  "bits": "1a042eae",
  "difficulty": 4011378.762614286,
  "chainwork": "000000000000000000000000000000000000000000000034913289bb88d9f3d2",
  "previousblockhash": "6ed3bdcaa70c01cdea60c328c1bff8ad9bd832e00bf67074e2372f8be071f18f",
  "nextblockhash": "450ac633d659378e2151f13f48af930980239b3f2494b83a4dbd86e914c89ff7"
}
