{
  "hash": "837ce8485777afd3f388c22aad3527493cfbfd82ec1b4e268ad725d3be1705e3",
  "confirmations": 827,
  "strippedsize": 5061,
  "size": 5097,
  "weight": 20280,
  "height": 1360167,
  "version": 536870912,
  "versionHex": "20000000",
  "merkleroot": "eeabc135182527de5924a1c72056d9d86b5f9e0eb7910403f463a58eabf5e762",
  "tx": [
    {
      "txid": "c5dd3f46e8fad1f074d7159de5e358c6517fe02f1f585396980037d1e6103251",
      "hash": "098189b54e53c9c390dbbf62d405dad71dfb6b7b2ad3bbf244e4222cca695969",
      "version": 1,
      "size": 268,
      "vsize": 241,
      "locktime": 0,
      "vin": [
        {
          "coinbase": "0327c114070c84df09fde0c327b69cc0a4a6352c44c14e2b0df3d33775d7b8d9431a199bfc0dd2330c010000000000000000090000005c38f600a80322bb2f425443432f2000000000000000000000000000000000000000000000000000000000000000",
          "sequence": 0
        }
      ],
      "vout": [
        {
          "value": 25.00966999,
          "n": 0,
          "scriptPubKey": {
            "asm": "OP_DUP OP_HASH160 088b3b2a325c12f47e60b87f7bdd7f280e144e03 OP_EQUALVERIFY OP_CHECKSIG",
            "hex": "76a914088b3b2a325c12f47e60b87f7bdd7f280e144e0388ac",
            "reqSigs": 1,
            "type": "pubkeyhash",
            "addresses": [
              "LL18ThG68KnAnBk6yaoJWgEU7UqLg7eMw3"
            ]
          }
        }, 
        {
          "value": 0.00000000,
          "n": 1,
          "scriptPubKey": {
            "asm": "OP_RETURN aa21a9edf558120b84a59566278fd583d3d901a6c97d50ee35d93bfe1a7afff40be87521",
            "hex": "6a24aa21a9edf558120b84a59566278fd583d3d901a6c97d50ee35d93bfe1a7afff40be87521",
            "type": "nulldata"
          }
        }
      ],
      "hex": "010000000001010000000000000000000000000000000000000000000000000000000000000000ffffffff640327c114070c84df09fde0c327b69cc0a4a6352c44c14e2b0df3d33775d7b8d9431a199bfc0dd2330c010000000000000000090000005c38f600a80322bb2f425443432f2000000000000000000000000000000000000000000000000000000000000000000000000257ba1195000000001976a914088b3b2a325c12f47e60b87f7bdd7f280e144e0388ac0000000000000000266a24aa21a9edf558120b84a59566278fd583d3d901a6c97d50ee35d93bfe1a7afff40be875210120000000000000000000000000000000000000000000000000000000000000000000000000"
    }, 
    {
      "txid": "76546fe053fcb2d358af14459baeb8af7c98b0ce01b1bfc7a5c3ee0ee0a1d986",
      "hash": "76546fe053fcb2d358af14459baeb8af7c98b0ce01b1bfc7a5c3ee0ee0a1d986",
      "version": 1,
      "size": 226,
      "vsize": 226,
      "locktime": 0,
      "vin": [
        {
          "txid": "15ab900d87194c6068d4ba37979bdc5087f6c56ade82ae48ecafa9b91af75c24",
          "vout": 0,
          "scriptSig": {
            "asm": "3045022100bf61144bde1efbe05acd630240494634a2978f2b7ad7ba3a4f8ce1d1cdcc6ab5022063ec47909fb091ab3a5a065c250d3a87dae3310594c497e69ca978efa505fc8e[ALL] 03700ba77c129c16414e8510838ca5fb9d1543bd58871cb5f1eed3af325db5bb0f",
            "hex": "483045022100bf61144bde1efbe05acd630240494634a2978f2b7ad7ba3a4f8ce1d1cdcc6ab5022063ec47909fb091ab3a5a065c250d3a87dae3310594c497e69ca978efa505fc8e012103700ba77c129c16414e8510838ca5fb9d1543bd58871cb5f1eed3af325db5bb0f"
          },
          "sequence": 4294967295
        }
      ],
      "vout": [
        {
          "value": 0.26930214,
          "n": 0,
          "scriptPubKey": {
            "asm": "OP_DUP OP_HASH160 371b20e089a17d722a30e500c3b4140e30a7cd55 OP_EQUALVERIFY OP_CHECKSIG",
            "hex": "76a914371b20e089a17d722a30e500c3b4140e30a7cd5588ac",
            "reqSigs": 1,
            "type": "pubkeyhash",
            "addresses": [
              "LQFKvgP3BWi4a7tcgag2hg8g7mHjDd3oPq"
            ]
          }
        }, 
        {
          "value": 0.01002847,
          "n": 1,
          "scriptPubKey": {
            "asm": "OP_DUP OP_HASH160 a64b11bd3060273055807808ec8d10b10c969d84 OP_EQUALVERIFY OP_CHECKSIG",
            "hex": "76a914a64b11bd3060273055807808ec8d10b10c969d8488ac",
            "reqSigs": 1,
            "type": "pubkeyhash",
            "addresses": [
              "LaPEMxo4ULqur4y5YtaSevAMUdCFSkF8iP"
            ]
          }
        }
      ],
      "hex": "0100000001245cf71ab9a9afec48ae82de6ac5f68750dc9b9737bad468604c19870d90ab15000000006b483045022100bf61144bde1efbe05acd630240494634a2978f2b7ad7ba3a4f8ce1d1cdcc6ab5022063ec47909fb091ab3a5a065c250d3a87dae3310594c497e69ca978efa505fc8e012103700ba77c129c16414e8510838ca5fb9d1543bd58871cb5f1eed3af325db5bb0fffffffff0226ec9a01000000001976a914371b20e089a17d722a30e500c3b4140e30a7cd5588ac5f4d0f00000000001976a914a64b11bd3060273055807808ec8d10b10c969d8488ac00000000"
    }, 
    {
      "txid": "bde91dd57e38e7903196e6b69893c0e2a70b9e8eba0bf76bc7b898262adbe808",
      "hash": "bde91dd57e38e7903196e6b69893c0e2a70b9e8eba0bf76bc7b898262adbe808",
      "version": 1,
      "size": 334,
      "vsize": 334,
      "locktime": 0,
      "vin": [
        {
          "txid": "31f3dd28560f0e55733dafcda6d1990d356c2153d8cdd4be14e072b6d221333a",
          "vout": 1,
          "scriptSig": {
            "asm": "0 304402206871091334d309cb199e109d73cfc427236d6a8ce7496ae93f099cc63cec7c9802201fade06d3adf78e090c69f8d997cf6b33e3180a5241b29c8d865942fa9ad114e[ALL] 304402200947497778da90fecf139807aefdd5b2201112af919c24306d537ee6844e792002201f924e2788fdeacd7f0e83d4b4a870aff16ba60ed617c2183aa746cc8ebf1e86[ALL] 522102f77ec37a042ba4e5e6aef7760398bf59b87ac4c5dee30a2fb8798e9630d4916e210276b93401dc495b28592f66411a7c9093b468f8678db51144fc6a36f550d94aa952ae",
            "hex": "0047304402206871091334d309cb199e109d73cfc427236d6a8ce7496ae93f099cc63cec7c9802201fade06d3adf78e090c69f8d997cf6b33e3180a5241b29c8d865942fa9ad114e0147304402200947497778da90fecf139807aefdd5b2201112af919c24306d537ee6844e792002201f924e2788fdeacd7f0e83d4b4a870aff16ba60ed617c2183aa746cc8ebf1e860147522102f77ec37a042ba4e5e6aef7760398bf59b87ac4c5dee30a2fb8798e9630d4916e210276b93401dc495b28592f66411a7c9093b468f8678db51144fc6a36f550d94aa952ae"
          },
          "sequence": 4294967295
        }
      ],
      "vout": [
        {
          "value": 0.06926500,
          "n": 0,
          "scriptPubKey": {
            "asm": "OP_DUP OP_HASH160 691aab141ad506ed2fa4fa4380f438d98f0722cd OP_EQUALVERIFY OP_CHECKSIG",
            "hex": "76a914691aab141ad506ed2fa4fa4380f438d98f0722cd88ac",
            "reqSigs": 1,
            "type": "pubkeyhash",
            "addresses": [
              "LUohAJKgpjgqgswGCHpTqnYxqHTAfnYLTD"
            ]
          }
        }, 
        {
          "value": 8.52548500,
          "n": 1,
          "scriptPubKey": {
            "asm": "OP_HASH160 75b77316f8d91ff71fb2819115d1b6b9e80ccee9 OP_EQUAL",
            "hex": "a91475b77316f8d91ff71fb2819115d1b6b9e80ccee987",
            "reqSigs": 1,
            "type": "scripthash",
            "addresses": [
              "MJdb4B3BMDrfpB1FpKsPYQ1tDHdkNa1oLB"
            ]
          }
        }
      ],
      "hex": "01000000013a3321d2b672e014bed4cdd853216c350d99d1a6cdaf3d73550e0f5628ddf33101000000d90047304402206871091334d309cb199e109d73cfc427236d6a8ce7496ae93f099cc63cec7c9802201fade06d3adf78e090c69f8d997cf6b33e3180a5241b29c8d865942fa9ad114e0147304402200947497778da90fecf139807aefdd5b2201112af919c24306d537ee6844e792002201f924e2788fdeacd7f0e83d4b4a870aff16ba60ed617c2183aa746cc8ebf1e860147522102f77ec37a042ba4e5e6aef7760398bf59b87ac4c5dee30a2fb8798e9630d4916e210276b93401dc495b28592f66411a7c9093b468f8678db51144fc6a36f550d94aa952aeffffffff02a4b06900000000001976a914691aab141ad506ed2fa4fa4380f438d98f0722cd88ac94dbd0320000000017a91475b77316f8d91ff71fb2819115d1b6b9e80ccee98700000000"
    }, 
    {
      "txid": "9a2a04e0f265552e8bc743ac1abcd5e50af1a68fa9fe40eb95c24d82efe9fa44",
      "hash": "9a2a04e0f265552e8bc743ac1abcd5e50af1a68fa9fe40eb95c24d82efe9fa44",
      "version": 1,
      "size": 226,
      "vsize": 226,
      "locktime": 0,
      "vin": [
        {
          "txid": "70a8fcb8f74ddd344fbd7d6c8748c9dbc424fcd55d0617fbd4c5e7006dd55367",
          "vout": 9,
          "scriptSig": {
            "asm": "304502210084e504907384239e45ad6ea9dacaabe972d925d81069787b96bb4fe3dee4fdf40220130e53153919c8dde3f40027ae6dd86ed3a0852d9a53a9de543ee911b89fa695[ALL] 03169a1355f2bf99d65e6b50af02e9a74521a6c7a9bd4cbdb899e719f017e6dbd7",
            "hex": "48304502210084e504907384239e45ad6ea9dacaabe972d925d81069787b96bb4fe3dee4fdf40220130e53153919c8dde3f40027ae6dd86ed3a0852d9a53a9de543ee911b89fa695012103169a1355f2bf99d65e6b50af02e9a74521a6c7a9bd4cbdb899e719f017e6dbd7"
          },
          "sequence": 4294967295
        }
      ],
      "vout": [
        {
          "value": 50.00000000,
          "n": 0,
          "scriptPubKey": {
            "asm": "OP_DUP OP_HASH160 c3d348687ec04f8b45ca2e1466138ca6c8f61418 OP_EQUALVERIFY OP_CHECKSIG",
            "hex": "76a914c3d348687ec04f8b45ca2e1466138ca6c8f6141888ac",
            "reqSigs": 1,
            "type": "pubkeyhash",
            "addresses": [
              "Ld5P8otsYcpdaCT1AhU9SYFEb2QUo15gGw"
            ]
          }
        }, 
        {
          "value": 0.50175155,
          "n": 1,
          "scriptPubKey": {
            "asm": "OP_DUP OP_HASH160 91f6452a05e0ae461062dede3702db83035af5c2 OP_EQUALVERIFY OP_CHECKSIG",
            "hex": "76a91491f6452a05e0ae461062dede3702db83035af5c288ac",
            "reqSigs": 1,
            "type": "pubkeyhash",
            "addresses": [
              "LYXjGBPj3wjFU7mnmgYhKsfGiYFkJ8yt2K"
            ]
          }
        }
      ],
      "hex": "01000000016753d56d00e7c5d4fb17065dd5fc24c4dbc948876c7dbd4f34dd4df7b8fca870090000006b48304502210084e504907384239e45ad6ea9dacaabe972d925d81069787b96bb4fe3dee4fdf40220130e53153919c8dde3f40027ae6dd86ed3a0852d9a53a9de543ee911b89fa695012103169a1355f2bf99d65e6b50af02e9a74521a6c7a9bd4cbdb899e719f017e6dbd7ffffffff0200f2052a010000001976a914c3d348687ec04f8b45ca2e1466138ca6c8f6141888acb39cfd02000000001976a91491f6452a05e0ae461062dede3702db83035af5c288ac00000000"
    }, 
    {
      "txid": "c1a8066c7ca38835ebf5096b8e466bff359362e4bfdcaec1bb4b46c8c3fced49",
      "hash": "c1a8066c7ca38835ebf5096b8e466bff359362e4bfdcaec1bb4b46c8c3fced49",
      "version": 1,
      "size": 521,
      "vsize": 521,
      "locktime": 0,
      "vin": [
        {
          "txid": "cd36064f08cbe7a275d72726c185c03a15cb5ad8d2eab5d7f0c2f61a35a2acd0",
          "vout": 2,
          "scriptSig": {
            "asm": "3045022100abc27d454ccc5e25e9d8064ce75644fd04649e7555d1cece16d6b50b3413c02f02200ac7f2361cd6769c5a98719476d5ff719b12a291353e6d138a9cbb3a3ab7e067[ALL] 038ac8b13df1c614504e0984bfcd57bab7555974584760e2be26f1c3268e3a3dc9",
            "hex": "483045022100abc27d454ccc5e25e9d8064ce75644fd04649e7555d1cece16d6b50b3413c02f02200ac7f2361cd6769c5a98719476d5ff719b12a291353e6d138a9cbb3a3ab7e0670121038ac8b13df1c614504e0984bfcd57bab7555974584760e2be26f1c3268e3a3dc9"
          },
          "sequence": 4294967295
        }, 
        {
          "txid": "5cb4259eb8aa501a90f1ee000648ca0591d0e07da4947c39ddb066ccad3c22e0",
          "vout": 1,
          "scriptSig": {
            "asm": "30450221008dbf2613de75b391b872a08ee328a355f3361de9414a24fb6e185ddd2627cb530220142e447030f7b957f5ba8cb5e9b5faa4e2bdfd0864244d70846e8adc7c19426d[ALL] 033988734a1d7987782780bc0c579c5652028549fcf6b219f7ad9a5ea395c0ef6e",
            "hex": "4830450221008dbf2613de75b391b872a08ee328a355f3361de9414a24fb6e185ddd2627cb530220142e447030f7b957f5ba8cb5e9b5faa4e2bdfd0864244d70846e8adc7c19426d0121033988734a1d7987782780bc0c579c5652028549fcf6b219f7ad9a5ea395c0ef6e"
          },
          "sequence": 4294967295
        }, 
        {
          "txid": "53400e4f43018d619558c0273f7d63117d70b98592c99824d54f3ec7e1a84eeb",
          "vout": 1,
          "scriptSig": {
            "asm": "304402206a3b1c4e1a4e48e8e1f826229465e01da66ace13429dbebf075e17e6276dd0db02202dfd56ab3933ca183c539d4a46ca82a3fa0cc9395c02fbd9d7223910cce332b9[ALL] 029ed3eaeede370bcc65722e726b0ff51f1b7b0738105d34511d5ec76cca2bcf90",
            "hex": "47304402206a3b1c4e1a4e48e8e1f826229465e01da66ace13429dbebf075e17e6276dd0db02202dfd56ab3933ca183c539d4a46ca82a3fa0cc9395c02fbd9d7223910cce332b90121029ed3eaeede370bcc65722e726b0ff51f1b7b0738105d34511d5ec76cca2bcf90"
          },
          "sequence": 4294967295
        }
      ],
      "vout": [
        {
          "value": 0.26677763,
          "n": 0,
          "scriptPubKey": {
            "asm": "OP_DUP OP_HASH160 bdfd56e953d4bd4a3d569605697acd15df05f37d OP_EQUALVERIFY OP_CHECKSIG",
            "hex": "76a914bdfd56e953d4bd4a3d569605697acd15df05f37d88ac",
            "reqSigs": 1,
            "type": "pubkeyhash",
            "addresses": [
              "LcYXTohAQUb2TGqskHJaDTtnqiJVzPaULi"
            ]
          }
        }, 
        {
          "value": 0.29037752,
          "n": 1,
          "scriptPubKey": {
            "asm": "OP_DUP OP_HASH160 c6e3836c2f4cd8f9c53e32813ded99ac0ce001f1 OP_EQUALVERIFY OP_CHECKSIG",
            "hex": "76a914c6e3836c2f4cd8f9c53e32813ded99ac0ce001f188ac",
            "reqSigs": 1,
            "type": "pubkeyhash",
            "addresses": [
              "LdMac6qdwFnBCVXN96dvoPjzbcE36gzs64"
            ]
          }
        }
      ],
      "hex": "0100000003d0aca2351af6c2f0d7b5ead2d85acb153ac085c12627d775a2e7cb084f0636cd020000006b483045022100abc27d454ccc5e25e9d8064ce75644fd04649e7555d1cece16d6b50b3413c02f02200ac7f2361cd6769c5a98719476d5ff719b12a291353e6d138a9cbb3a3ab7e0670121038ac8b13df1c614504e0984bfcd57bab7555974584760e2be26f1c3268e3a3dc9ffffffffe0223cadcc66b0dd397c94a47de0d09105ca480600eef1901a50aab89e25b45c010000006b4830450221008dbf2613de75b391b872a08ee328a355f3361de9414a24fb6e185ddd2627cb530220142e447030f7b957f5ba8cb5e9b5faa4e2bdfd0864244d70846e8adc7c19426d0121033988734a1d7987782780bc0c579c5652028549fcf6b219f7ad9a5ea395c0ef6effffffffeb4ea8e1c73e4fd52498c99285b9707d11637d3f27c05895618d01434f0e4053010000006a47304402206a3b1c4e1a4e48e8e1f826229465e01da66ace13429dbebf075e17e6276dd0db02202dfd56ab3933ca183c539d4a46ca82a3fa0cc9395c02fbd9d7223910cce332b90121029ed3eaeede370bcc65722e726b0ff51f1b7b0738105d34511d5ec76cca2bcf90ffffffff0203129701000000001976a914bdfd56e953d4bd4a3d569605697acd15df05f37d88acb814bb01000000001976a914c6e3836c2f4cd8f9c53e32813ded99ac0ce001f188ac00000000"
    }, 
    {
      "txid": "dc840d4cf3f5036dd559aa4da952420b9ba9c82eab106f8350b01dacb1f80b6e",
      "hash": "dc840d4cf3f5036dd559aa4da952420b9ba9c82eab106f8350b01dacb1f80b6e",
      "version": 1,
      "size": 520,
      "vsize": 520,
      "locktime": 1360165,
      "vin": [
        {
          "txid": "417cb20648027ea1b67b301b478ab20f8be1f4ae51130ed910830545031ee06f",
          "vout": 0,
          "scriptSig": {
            "asm": "304402200af21c8fd53ff70b4a2d35a36cac4fe39385726a1986482be087df89006f2a51022044cffdc2344ac293511b7594e6610f9adb1407ef9cc1b381b869b0df3f2d88bf[ALL] 023b14d42f6eef6aca814ebeac89596fa94c6bb840a36c5863d49892342cf018c3",
            "hex": "47304402200af21c8fd53ff70b4a2d35a36cac4fe39385726a1986482be087df89006f2a51022044cffdc2344ac293511b7594e6610f9adb1407ef9cc1b381b869b0df3f2d88bf0121023b14d42f6eef6aca814ebeac89596fa94c6bb840a36c5863d49892342cf018c3"
          },
          "sequence": 4294967294
        }, 
        {
          "txid": "bfa9146310b0224fb4531d84037784c88dde8ab32ecf22cd1478d6d1f735baee",
          "vout": 0,
          "scriptSig": {
            "asm": "30440220759c49ba7841fff676567169fea5992fb220fafb803acb9e0faca9b4f59495450220285b0a426aa6fb6a0da714c7b0f18d15807106e2d7694561f3c3b1daf5e98c69[ALL] 0237d7659819b7bb5ea7ecb6a297070c4d47f6388ef806ea0ca2b9eb4a2184a989",
            "hex": "4730440220759c49ba7841fff676567169fea5992fb220fafb803acb9e0faca9b4f59495450220285b0a426aa6fb6a0da714c7b0f18d15807106e2d7694561f3c3b1daf5e98c6901210237d7659819b7bb5ea7ecb6a297070c4d47f6388ef806ea0ca2b9eb4a2184a989"
          },
          "sequence": 4294967294
        }, 
        {
          "txid": "e6fb45129483e24dd3057a417a832c2760edad51227810d6dd64daff6381bb82",
          "vout": 1,
          "scriptSig": {
            "asm": "30450221008cacbf7ab566a7ff40cc0cacd61e8296c3148e692741105a54d5e2409339279b02205dea0682068a4bafd2fc658f46a965ddd388296bee32b35aff937fc5f29ee40a[ALL] 038413cb4e3df9d0d7ce29bed83bbe900bbf635ab2339e8430f2ab54b48dee6489",
            "hex": "4830450221008cacbf7ab566a7ff40cc0cacd61e8296c3148e692741105a54d5e2409339279b02205dea0682068a4bafd2fc658f46a965ddd388296bee32b35aff937fc5f29ee40a0121038413cb4e3df9d0d7ce29bed83bbe900bbf635ab2339e8430f2ab54b48dee6489"
          },
          "sequence": 4294967294
        }
      ],
      "vout": [
        {
          "value": 0.03954972,
          "n": 0,
          "scriptPubKey": {
            "asm": "OP_DUP OP_HASH160 aef221eb0f0f557a5912c15b6f32e222fd574134 OP_EQUALVERIFY OP_CHECKSIG",
            "hex": "76a914aef221eb0f0f557a5912c15b6f32e222fd57413488ac",
            "reqSigs": 1,
            "type": "pubkeyhash",
            "addresses": [
              "LbAyuFaAmuSH9dgNZL26g4wdoFFZEuKgX2"
            ]
          }
        }, 
        {
          "value": 19.98000000,
          "n": 1,
          "scriptPubKey": {
            "asm": "OP_DUP OP_HASH160 cc6dcf85b4f2a1d95e112be399dc40cca63ca1f6 OP_EQUALVERIFY OP_CHECKSIG",
            "hex": "76a914cc6dcf85b4f2a1d95e112be399dc40cca63ca1f688ac",
            "reqSigs": 1,
            "type": "pubkeyhash",
            "addresses": [
              "Ldrsf867Hd4mqSQC1VKi4frASPfv8XFL8t"
            ]
          }
        }
      ],
      "hex": "01000000036fe01e0345058310d90e1351aef4e18b0fb28a471b307bb6a17e024806b27c41000000006a47304402200af21c8fd53ff70b4a2d35a36cac4fe39385726a1986482be087df89006f2a51022044cffdc2344ac293511b7594e6610f9adb1407ef9cc1b381b869b0df3f2d88bf0121023b14d42f6eef6aca814ebeac89596fa94c6bb840a36c5863d49892342cf018c3feffffffeeba35f7d1d67814cd22cf2eb38ade8dc8847703841d53b44f22b0106314a9bf000000006a4730440220759c49ba7841fff676567169fea5992fb220fafb803acb9e0faca9b4f59495450220285b0a426aa6fb6a0da714c7b0f18d15807106e2d7694561f3c3b1daf5e98c6901210237d7659819b7bb5ea7ecb6a297070c4d47f6388ef806ea0ca2b9eb4a2184a989feffffff82bb8163ffda64ddd610782251aded60272c837a417a05d34de283941245fbe6010000006b4830450221008cacbf7ab566a7ff40cc0cacd61e8296c3148e692741105a54d5e2409339279b02205dea0682068a4bafd2fc658f46a965ddd388296bee32b35aff937fc5f29ee40a0121038413cb4e3df9d0d7ce29bed83bbe900bbf635ab2339e8430f2ab54b48dee6489feffffff021c593c00000000001976a914aef221eb0f0f557a5912c15b6f32e222fd57413488ac800f1777000000001976a914cc6dcf85b4f2a1d95e112be399dc40cca63ca1f688ac25c11400"
    }, 
    {
      "txid": "294de3e3086e59096b08e9a8eb8e82dd6c8918f240fc2a5bbc43b0a2fb208473",
      "hash": "294de3e3086e59096b08e9a8eb8e82dd6c8918f240fc2a5bbc43b0a2fb208473",
      "version": 1,
      "size": 225,
      "vsize": 225,
      "locktime": 0,
      "vin": [
        {
          "txid": "77d2a2b7d5f4f1d9c0e0d5f1a2c33c00c707bbf4dc80a72d635911aee20cc2ee",
          "vout": 0,
          "scriptSig": {
            "asm": "30440220284ed8ef9d304a2fad8b7c214dda49e9219a1a744cef76b18218d297eeccf1c902203420da36873b271b5496cc2390b8c0fcc4cda16f2d10d7760ddd629842302e28[ALL] 02e7c65b54a3e3c82d688283cae1c8931975da09900e5204f340cfe3eb4e6b8647",
            "hex": "4730440220284ed8ef9d304a2fad8b7c214dda49e9219a1a744cef76b18218d297eeccf1c902203420da36873b271b5496cc2390b8c0fcc4cda16f2d10d7760ddd629842302e28012102e7c65b54a3e3c82d688283cae1c8931975da09900e5204f340cfe3eb4e6b8647"
          },
          "sequence": 4294967295
        }
      ],
      "vout": [
        {
          "value": 1.76322606,
          "n": 0,
          "scriptPubKey": {
            "asm": "OP_DUP OP_HASH160 f3957a9cdd075dfca3f00f761b535b432a7c8745 OP_EQUALVERIFY OP_CHECKSIG",
            "hex": "76a914f3957a9cdd075dfca3f00f761b535b432a7c874588ac",
            "reqSigs": 1,
            "type": "pubkeyhash",
            "addresses": [
              "LhRuXooXJWypeBKqWtDA84uP5LvJNVJ1iY"
            ]
          }
        }, 
        {
          "value": 27.37418736,
          "n": 1,
          "scriptPubKey": {
            "asm": "OP_DUP OP_HASH160 5a2c39a64e54ca669d973a35660ac87d3024fcb5 OP_EQUALVERIFY OP_CHECKSIG",
            "hex": "76a9145a2c39a64e54ca669d973a35660ac87d3024fcb588ac",
            "reqSigs": 1,
            "type": "pubkeyhash",
            "addresses": [
              "LTSk4JF2vsKc9goM1946AZ9jKVCro9ijWK"
            ]
          }
        }
      ],
      "hex": "0100000001eec20ce2ae1159632da780dcf4bb07c7003cc3a2f1d5e0c0d9f1f4d5b7a2d277000000006a4730440220284ed8ef9d304a2fad8b7c214dda49e9219a1a744cef76b18218d297eeccf1c902203420da36873b271b5496cc2390b8c0fcc4cda16f2d10d7760ddd629842302e28012102e7c65b54a3e3c82d688283cae1c8931975da09900e5204f340cfe3eb4e6b8647ffffffff022e78820a000000001976a914f3957a9cdd075dfca3f00f761b535b432a7c874588acf0b129a3000000001976a9145a2c39a64e54ca669d973a35660ac87d3024fcb588ac00000000"
    }, 
    {
      "txid": "f34d3922fe8d0729984111c9f1d8c5708b17198b96eedb746d186b4817b6b982",
      "hash": "f34d3922fe8d0729984111c9f1d8c5708b17198b96eedb746d186b4817b6b982",
      "version": 1,
      "size": 225,
      "vsize": 225,
      "locktime": 0,
      "vin": [
        {
          "txid": "59d56f550e317d84b535745731c7a0ec5229bf2b0da9573807eafb51736714ad",
          "vout": 0,
          "scriptSig": {
            "asm": "304402206edca5f20d4285af7c524a78fdc6ad1785bd8378a6046fee8402c04875de49e402200af80397656c09e2d78642cb02f69d3bfe63dd44152941ef76b28fd7a32732e1[ALL] 02b5f1c361a17394fa8fd449ec2b768c84ca4df98687e169da010d3019b97fda23",
            "hex": "47304402206edca5f20d4285af7c524a78fdc6ad1785bd8378a6046fee8402c04875de49e402200af80397656c09e2d78642cb02f69d3bfe63dd44152941ef76b28fd7a32732e1012102b5f1c361a17394fa8fd449ec2b768c84ca4df98687e169da010d3019b97fda23"
          },
          "sequence": 4294967295
        }
      ],
      "vout": [
        {
          "value": 0.00139839,
          "n": 0,
          "scriptPubKey": {
            "asm": "OP_DUP OP_HASH160 544da5863e2ec1266b18ad7ab1557f2a0dd61ef0 OP_EQUALVERIFY OP_CHECKSIG",
            "hex": "76a914544da5863e2ec1266b18ad7ab1557f2a0dd61ef088ac",
            "reqSigs": 1,
            "type": "pubkeyhash",
            "addresses": [
              "LSui3JgdjPkEnBo9faHRzmqHJ5gbKxw6Vz"
            ]
          }
        }, 
        {
          "value": 0.24173000,
          "n": 1,
          "scriptPubKey": {
            "asm": "OP_DUP OP_HASH160 3131931e967e77ba33d8bc875c041af2fa88323e OP_EQUALVERIFY OP_CHECKSIG",
            "hex": "76a9143131931e967e77ba33d8bc875c041af2fa88323e88ac",
            "reqSigs": 1,
            "type": "pubkeyhash",
            "addresses": [
              "LPi4m83Tef2knQwLdm5RYqAA1cJ8JgwmGd"
            ]
          }
        }
      ],
      "hex": "0100000001ad14677351fbea073857a90d2bbf2952eca0c731577435b5847d310e556fd559000000006a47304402206edca5f20d4285af7c524a78fdc6ad1785bd8378a6046fee8402c04875de49e402200af80397656c09e2d78642cb02f69d3bfe63dd44152941ef76b28fd7a32732e1012102b5f1c361a17394fa8fd449ec2b768c84ca4df98687e169da010d3019b97fda23ffffffff023f220200000000001976a914544da5863e2ec1266b18ad7ab1557f2a0dd61ef088acc8d97001000000001976a9143131931e967e77ba33d8bc875c041af2fa88323e88ac00000000"
    }, 
    {
      "txid": "5c26203222c8f34a9548a1c5e9f274fc906c8bba53d3193f4c3d11cae90fc7c3",
      "hash": "5c26203222c8f34a9548a1c5e9f274fc906c8bba53d3193f4c3d11cae90fc7c3",
      "version": 1,
      "size": 225,
      "vsize": 225,
      "locktime": 0,
      "vin": [
        {
          "txid": "6c16be8bf7c3b9cba02ba9a643ceceda82f60c710e664538a7cd9c7263ee886d",
          "vout": 0,
          "scriptSig": {
            "asm": "304402200cfbacb3fa5e77d39618bdddcc2048f4c6806905b3ab22e964dfe619da290ca9022074831030ac81d6d670bfd0527bba3fc0e496809d9202d4a48dfa7557dcaba4fb[ALL] 02a35975f474b84c4e692496d13457779d7a8359994a961b3c4e6649c3f50a5ee3",
            "hex": "47304402200cfbacb3fa5e77d39618bdddcc2048f4c6806905b3ab22e964dfe619da290ca9022074831030ac81d6d670bfd0527bba3fc0e496809d9202d4a48dfa7557dcaba4fb012102a35975f474b84c4e692496d13457779d7a8359994a961b3c4e6649c3f50a5ee3"
          },
          "sequence": 4294967295
        }
      ],
      "vout": [
        {
          "value": 7.74327757,
          "n": 0,
          "scriptPubKey": {
            "asm": "OP_DUP OP_HASH160 fc63caf93206a57c8424186923be171f46d3698d OP_EQUALVERIFY OP_CHECKSIG",
            "hex": "76a914fc63caf93206a57c8424186923be171f46d3698d88ac",
            "reqSigs": 1,
            "type": "pubkeyhash",
            "addresses": [
              "LiEU6HRw2d8QEKHTX84QJAeRYh6GCE4JZA"
            ]
          }
        }, 
        {
          "value": 21.73261223,
          "n": 1,
          "scriptPubKey": {
            "asm": "OP_DUP OP_HASH160 d4d2b1f9eee25b65fdd88b5ab825c2a0acacc97e OP_EQUALVERIFY OP_CHECKSIG",
            "hex": "76a914d4d2b1f9eee25b65fdd88b5ab825c2a0acacc97e88ac",
            "reqSigs": 1,
            "type": "pubkeyhash",
            "addresses": [
              "LedFvExxMSNTPSNHZ1oKp1qWb9mE8QzYWg"
            ]
          }
        }
      ],
      "hex": "01000000016d88ee63729ccda73845660e710cf682dacece43a6a92ba0cbb9c3f78bbe166c000000006a47304402200cfbacb3fa5e77d39618bdddcc2048f4c6806905b3ab22e964dfe619da290ca9022074831030ac81d6d670bfd0527bba3fc0e496809d9202d4a48dfa7557dcaba4fb012102a35975f474b84c4e692496d13457779d7a8359994a961b3c4e6649c3f50a5ee3ffffffff02cd4d272e000000001976a914fc63caf93206a57c8424186923be171f46d3698d88aca7558981000000001976a914d4d2b1f9eee25b65fdd88b5ab825c2a0acacc97e88ac00000000"
    }, 
    {
      "txid": "f1a6e3c7b1423c78b0f7fb5999757f0c7d52feb8159470c427de2720d8bc5372",
      "hash": "f1a6e3c7b1423c78b0f7fb5999757f0c7d52feb8159470c427de2720d8bc5372",
      "version": 1,
      "size": 667,
      "vsize": 667,
      "locktime": 1360165,
      "vin": [
        {
          "txid": "ca0a6763b9ab84b2f7b2733adacb6da930ea446454de33e484a980cf9848212e",
          "vout": 403,
          "scriptSig": {
            "asm": "304402204d42941dc3d62981c21f1f1622be058448fe6d572ed5bdc093cd48c13b41937702206f99a3e2b0e041f94d95a6e9ff15ebef2355835dfd5dbb586ae4ee505e529022[ALL] 025da1f295195a6b797e2cf229142b79e8fa6e7355f7ba5f6710f27096c25005b5",
            "hex": "47304402204d42941dc3d62981c21f1f1622be058448fe6d572ed5bdc093cd48c13b41937702206f99a3e2b0e041f94d95a6e9ff15ebef2355835dfd5dbb586ae4ee505e5290220121025da1f295195a6b797e2cf229142b79e8fa6e7355f7ba5f6710f27096c25005b5"
          },
          "sequence": 4294967294
        }, 
        {
          "txid": "1cd24df75a22fd674bf38f52ae89ff7fdfcd78c809402f415d1e83ca47b0786d",
          "vout": 0,
          "scriptSig": {
            "asm": "304402202feaada84b87965153f688f37b072f6c7c14d6153919aa39b557edd9fee6d91f02207579a511d0a16b1716d825d4137eb60aa89b92f3909171b99aaa78c21b67ed93[ALL] 029a00adc8ab9d62b6d18962783fd7e294b7fb83961d2bd3f31e1a497b94c9516a",
            "hex": "47304402202feaada84b87965153f688f37b072f6c7c14d6153919aa39b557edd9fee6d91f02207579a511d0a16b1716d825d4137eb60aa89b92f3909171b99aaa78c21b67ed930121029a00adc8ab9d62b6d18962783fd7e294b7fb83961d2bd3f31e1a497b94c9516a"
          },
          "sequence": 4294967294
        }, 
        {
          "txid": "6f442b01c7cbb5b6016358b6361a1887a5e5d982aaa8f03cbd7c205025f6f948",
          "vout": 0,
          "scriptSig": {
            "asm": "30440220335dd74ab0d54d79167569799f41fce4c2fa9b440c926c9dbf8089f9f21f674a02206b53c61d2bfa32920734f484831fbd68d51297783350fecb93d06925213ef3a9[ALL] 0329b7f108da5910a88b260610c5a000fededaccf83a94a6cc04729d7841726fd6",
            "hex": "4730440220335dd74ab0d54d79167569799f41fce4c2fa9b440c926c9dbf8089f9f21f674a02206b53c61d2bfa32920734f484831fbd68d51297783350fecb93d06925213ef3a901210329b7f108da5910a88b260610c5a000fededaccf83a94a6cc04729d7841726fd6"
          },
          "sequence": 4294967294
        }, 
        {
          "txid": "395a2c67d5fef2b76c91a9fca37f6a545ce4315e551d2de22831d8014dd115a3",
          "vout": 1,
          "scriptSig": {
            "asm": "3045022100a75aac9980331d51fdf85647b3f494435fe8da4258c2ee99cce6d56977c15802022019e95886b77a9f00596098aa65ee3e0382da130e6276d8ac749b24e3ef4902e7[ALL] 03ba92813a91fe247d44322ba1432fe3a637b405ba300a2d0a996b49d6a605f928",
            "hex": "483045022100a75aac9980331d51fdf85647b3f494435fe8da4258c2ee99cce6d56977c15802022019e95886b77a9f00596098aa65ee3e0382da130e6276d8ac749b24e3ef4902e7012103ba92813a91fe247d44322ba1432fe3a637b405ba300a2d0a996b49d6a605f928"
          },
          "sequence": 4294967294
        }
      ],
      "vout": [
        {
          "value": 6.00000000,
          "n": 0,
          "scriptPubKey": {
            "asm": "OP_DUP OP_HASH160 42b4046ad16df1a3197742adbed842d44b25da60 OP_EQUALVERIFY OP_CHECKSIG",
            "hex": "76a91442b4046ad16df1a3197742adbed842d44b25da6088ac",
            "reqSigs": 1,
            "type": "pubkeyhash",
            "addresses": [
              "LRJeWh638hDP54kHcpE21SVdHGERcG48g9"
            ]
          }
        }, 
        {
          "value": 0.01111167,
          "n": 1,
          "scriptPubKey": {
            "asm": "OP_DUP OP_HASH160 df09b88b2e238fb0feb9280c3f6742b7ae9f0f9d OP_EQUALVERIFY OP_CHECKSIG",
            "hex": "76a914df09b88b2e238fb0feb9280c3f6742b7ae9f0f9d88ac",
            "reqSigs": 1,
            "type": "pubkeyhash",
            "addresses": [
              "LfZGbQhHYbbHrZGQ59w2MxQiepLUtvFNJR"
            ]
          }
        }
      ],
      "hex": "01000000042e214898cf80a984e433de546444ea30a96dcbda3a73b2f7b284abb963670aca930100006a47304402204d42941dc3d62981c21f1f1622be058448fe6d572ed5bdc093cd48c13b41937702206f99a3e2b0e041f94d95a6e9ff15ebef2355835dfd5dbb586ae4ee505e5290220121025da1f295195a6b797e2cf229142b79e8fa6e7355f7ba5f6710f27096c25005b5feffffff6d78b047ca831e5d412f4009c878cddf7fff89ae528ff34b67fd225af74dd21c000000006a47304402202feaada84b87965153f688f37b072f6c7c14d6153919aa39b557edd9fee6d91f02207579a511d0a16b1716d825d4137eb60aa89b92f3909171b99aaa78c21b67ed930121029a00adc8ab9d62b6d18962783fd7e294b7fb83961d2bd3f31e1a497b94c9516afeffffff48f9f62550207cbd3cf0a8aa82d9e5a587181a36b6586301b6b5cbc7012b446f000000006a4730440220335dd74ab0d54d79167569799f41fce4c2fa9b440c926c9dbf8089f9f21f674a02206b53c61d2bfa32920734f484831fbd68d51297783350fecb93d06925213ef3a901210329b7f108da5910a88b260610c5a000fededaccf83a94a6cc04729d7841726fd6feffffffa315d14d01d83128e22d1d555e31e45c546a7fa3fca9916cb7f2fed5672c5a39010000006b483045022100a75aac9980331d51fdf85647b3f494435fe8da4258c2ee99cce6d56977c15802022019e95886b77a9f00596098aa65ee3e0382da130e6276d8ac749b24e3ef4902e7012103ba92813a91fe247d44322ba1432fe3a637b405ba300a2d0a996b49d6a605f928feffffff020046c323000000001976a91442b4046ad16df1a3197742adbed842d44b25da6088ac7ff41000000000001976a914df09b88b2e238fb0feb9280c3f6742b7ae9f0f9d88ac25c11400"
    }, 
    {
      "txid": "09d05f2e158846c5857e005339439d99128d2c49bb83f5708fdf6bf075e90f23",
      "hash": "09d05f2e158846c5857e005339439d99128d2c49bb83f5708fdf6bf075e90f23",
      "version": 1,
      "size": 226,
      "vsize": 226,
      "locktime": 0,
      "vin": [
        {
          "txid": "c9646bc1eaad8d26d2fef1af5db91cc2174c76b7a0b034e3b4a822a233318b69",
          "vout": 0,
          "scriptSig": {
            "asm": "3045022100a322bd988c585c4c3959765a7912739415b9146fbd4a3ccdc83ce80bd9189b72022017046a3b6527f6e5bf1f29af9f4c151c6689fb0b9609157fb5ab25a1ada90943[ALL] 029f75cf336926384bb0ffd828c4aa82b157e2c55c14a7f9723ea608239fab754d",
            "hex": "483045022100a322bd988c585c4c3959765a7912739415b9146fbd4a3ccdc83ce80bd9189b72022017046a3b6527f6e5bf1f29af9f4c151c6689fb0b9609157fb5ab25a1ada909430121029f75cf336926384bb0ffd828c4aa82b157e2c55c14a7f9723ea608239fab754d"
          },
          "sequence": 4294967295
        }
      ],
      "vout": [
        {
          "value": 0.07468823,
          "n": 0,
          "scriptPubKey": {
            "asm": "OP_DUP OP_HASH160 2a13017b9ef5fcbb761d891a07f675981785cb88 OP_EQUALVERIFY OP_CHECKSIG",
            "hex": "76a9142a13017b9ef5fcbb761d891a07f675981785cb8888ac",
            "reqSigs": 1,
            "type": "pubkeyhash",
            "addresses": [
              "LP4RQpFd7Ljp8rKZqoFJzC6UyfDYWd3iJ5"
            ]
          }
        }, 
        {
          "value": 0.00082725,
          "n": 1,
          "scriptPubKey": {
            "asm": "OP_DUP OP_HASH160 df6dfb6d51aa0c0f4179c0ed7d83207ca4749537 OP_EQUALVERIFY OP_CHECKSIG",
            "hex": "76a914df6dfb6d51aa0c0f4179c0ed7d83207ca474953788ac",
            "reqSigs": 1,
            "type": "pubkeyhash",
            "addresses": [
              "LfbLhgdLN3Jfz7dWhWyK8XkD4g3Uz5ehNk"
            ]
          }
        }
      ],
      "hex": "0100000001698b3133a222a8b4e334b0a0b7764c17c21cb95daff1fed2268dadeac16b64c9000000006b483045022100a322bd988c585c4c3959765a7912739415b9146fbd4a3ccdc83ce80bd9189b72022017046a3b6527f6e5bf1f29af9f4c151c6689fb0b9609157fb5ab25a1ada909430121029f75cf336926384bb0ffd828c4aa82b157e2c55c14a7f9723ea608239fab754dffffffff0217f77100000000001976a9142a13017b9ef5fcbb761d891a07f675981785cb8888ac25430100000000001976a914df6dfb6d51aa0c0f4179c0ed7d83207ca474953788ac00000000"
    }, 
    {
      "txid": "9c0c5aeaeaea9566f5c72e783594f15ef3bd43c231579c7f602464b2c5812924",
      "hash": "9c0c5aeaeaea9566f5c72e783594f15ef3bd43c231579c7f602464b2c5812924",
      "version": 1,
      "size": 226,
      "vsize": 226,
      "locktime": 0,
      "vin": [
        {
          "txid": "5abaccf6008f7a207d61d7925cf2663f2d6d377f35c6d934011b31b708a96c02",
          "vout": 0,
          "scriptSig": {
            "asm": "3045022100901fa2409e2183aaf6950f3aa5ba6d49220887821b08bfd7a4d0ef1ea55a35a902203da211a88807149c08745da9061b207518de6ef03ac826895734a40934c6d74f[ALL] 03bd7f244fd40bd23fc708c2c28979f482ba33694d8f36e780a8f654e18c9ef000",
            "hex": "483045022100901fa2409e2183aaf6950f3aa5ba6d49220887821b08bfd7a4d0ef1ea55a35a902203da211a88807149c08745da9061b207518de6ef03ac826895734a40934c6d74f012103bd7f244fd40bd23fc708c2c28979f482ba33694d8f36e780a8f654e18c9ef000"
          },
          "sequence": 4294967295
        }
      ],
      "vout": [
        {
          "value": 27.70277400,
          "n": 0,
          "scriptPubKey": {
            "asm": "OP_DUP OP_HASH160 324f5578c7f837cbc143868d7f8f6e55eb080ea6 OP_EQUALVERIFY OP_CHECKSIG",
            "hex": "76a914324f5578c7f837cbc143868d7f8f6e55eb080ea688ac",
            "reqSigs": 1,
            "type": "pubkeyhash",
            "addresses": [
              "LPoy623LAeX9p2rMttHBqEDsbVAsbxS11r"
            ]
          }
        }, 
        {
          "value": 2.24200000,
          "n": 1,
          "scriptPubKey": {
            "asm": "OP_DUP OP_HASH160 9d576cea74bc54a0ddc00730620d5e15484cd73f OP_EQUALVERIFY OP_CHECKSIG",
            "hex": "76a9149d576cea74bc54a0ddc00730620d5e15484cd73f88ac",
            "reqSigs": 1,
            "type": "pubkeyhash",
            "addresses": [
              "LZZu5kstC8jtv61XPv6aQYPPyt9wx33kVy"
            ]
          }
        }
      ],
      "hex": "0100000001026ca908b7311b0134d9c6357f376d2d3f66f25c92d7617d207a8f00f6ccba5a000000006b483045022100901fa2409e2183aaf6950f3aa5ba6d49220887821b08bfd7a4d0ef1ea55a35a902203da211a88807149c08745da9061b207518de6ef03ac826895734a40934c6d74f012103bd7f244fd40bd23fc708c2c28979f482ba33694d8f36e780a8f654e18c9ef000ffffffff0218141fa5000000001976a914324f5578c7f837cbc143868d7f8f6e55eb080ea688ac40055d0d000000001976a9149d576cea74bc54a0ddc00730620d5e15484cd73f88ac00000000"
    }, 
    {
      "txid": "cf5864e3cd87765c3676d9d5ee4b0f946692c7cf3db2954c4fbbb60c938f7268",
      "hash": "cf5864e3cd87765c3676d9d5ee4b0f946692c7cf3db2954c4fbbb60c938f7268",
      "version": 1,
      "size": 226,
      "vsize": 226,
      "locktime": 0,
      "vin": [
        {
          "txid": "bad4a960e4201980f82ca67fbd76f00cba772860518ba697f6d7d4814ae304eb",
          "vout": 0,
          "scriptSig": {
            "asm": "30450221009aeabafe15d235f706ec8ddc3456c0aba3bac438093ea2d7d049d6a87e75e5b702201dda0302901a57d0a7559ab7c833df03686e47ed1850c81da5e7b7d5403b561a[ALL] 034111eeb776219b6e6f0fe392f0021001c591b92528cd404ce9adfd62cd9ef7b1",
            "hex": "4830450221009aeabafe15d235f706ec8ddc3456c0aba3bac438093ea2d7d049d6a87e75e5b702201dda0302901a57d0a7559ab7c833df03686e47ed1850c81da5e7b7d5403b561a0121034111eeb776219b6e6f0fe392f0021001c591b92528cd404ce9adfd62cd9ef7b1"
          },
          "sequence": 4294967295
        }
      ],
      "vout": [
        {
          "value": 0.00066314,
          "n": 0,
          "scriptPubKey": {
            "asm": "OP_DUP OP_HASH160 77f86d44979ed20e1d701b57406e884cc0f95cb5 OP_EQUALVERIFY OP_CHECKSIG",
            "hex": "76a91477f86d44979ed20e1d701b57406e884cc0f95cb588ac",
            "reqSigs": 1,
            "type": "pubkeyhash",
            "addresses": [
              "LWAJH3Evufe88FrwzX3sywTTi4pd7LUPeh"
            ]
          }
        }, 
        {
          "value": 0.24000000,
          "n": 1,
          "scriptPubKey": {
            "asm": "OP_DUP OP_HASH160 efaf9ab298532645d9af24315a7b5b5546850e42 OP_EQUALVERIFY OP_CHECKSIG",
            "hex": "76a914efaf9ab298532645d9af24315a7b5b5546850e4288ac",
            "reqSigs": 1,
            "type": "pubkeyhash",
            "addresses": [
              "Lh5J8G3sRg89atr3Guwx6L1YzGsh9JLuPe"
            ]
          }
        }
      ],
      "hex": "0100000001eb04e34a81d4d7f697a68b51602877ba0cf076bd7fa62cf8801920e460a9d4ba000000006b4830450221009aeabafe15d235f706ec8ddc3456c0aba3bac438093ea2d7d049d6a87e75e5b702201dda0302901a57d0a7559ab7c833df03686e47ed1850c81da5e7b7d5403b561a0121034111eeb776219b6e6f0fe392f0021001c591b92528cd404ce9adfd62cd9ef7b1ffffffff020a030100000000001976a91477f86d44979ed20e1d701b57406e884cc0f95cb588ac00366e01000000001976a914efaf9ab298532645d9af24315a7b5b5546850e4288ac00000000"
    }, 
    {
      "txid": "264dffdd9c312316a1ca3152e53e58e9f6a49352619f21fd0936f0dfae9cc2ad",
      "hash": "264dffdd9c312316a1ca3152e53e58e9f6a49352619f21fd0936f0dfae9cc2ad",
      "version": 1,
      "size": 225,
      "vsize": 225,
      "locktime": 1360165,
      "vin": [
        {
          "txid": "9fb4c2d9464b5fcaab9cd871d0205c52702b109fee364d109a4a9d25be119146",
          "vout": 0,
          "scriptSig": {
            "asm": "304402207b7b7789b9efa7f8f29a3df4ff4417b49447445f48e20218726b208f707246970220090802c22d08040d2502da819603a3f127c66233d7580109d3155edd8ca9eb65[ALL] 02538b9dc94c69871481d86af59b3e05ba9e34adb81aee63748a2aff2e5b9a5696",
            "hex": "47304402207b7b7789b9efa7f8f29a3df4ff4417b49447445f48e20218726b208f707246970220090802c22d08040d2502da819603a3f127c66233d7580109d3155edd8ca9eb65012102538b9dc94c69871481d86af59b3e05ba9e34adb81aee63748a2aff2e5b9a5696"
          },
          "sequence": 4294967294
        }
      ],
      "vout": [
        {
          "value": 0.10000000,
          "n": 0,
          "scriptPubKey": {
            "asm": "OP_DUP OP_HASH160 b3d466024aa8044c6380921596bde8cd6878bc37 OP_EQUALVERIFY OP_CHECKSIG",
            "hex": "76a914b3d466024aa8044c6380921596bde8cd6878bc3788ac",
            "reqSigs": 1,
            "type": "pubkeyhash",
            "addresses": [
              "LbcofFku4yU2snbiFpBgxEJa43L3aUhPYo"
            ]
          }
        }, 
        {
          "value": 2.80636969,
          "n": 1,
          "scriptPubKey": {
            "asm": "OP_DUP OP_HASH160 1513f57fb5daa33c01b172f6e82af58136fa51ce OP_EQUALVERIFY OP_CHECKSIG",
            "hex": "76a9141513f57fb5daa33c01b172f6e82af58136fa51ce88ac",
            "reqSigs": 1,
            "type": "pubkeyhash",
            "addresses": [
              "LM9QN1s3B1zMUBGVcMWJ7vpET9wNgjAb2P"
            ]
          }
        }
      ],
      "hex": "0100000001469111be259d4a9a104d36ee9f102b70525c20d071d89cabca5f4b46d9c2b49f000000006a47304402207b7b7789b9efa7f8f29a3df4ff4417b49447445f48e20218726b208f707246970220090802c22d08040d2502da819603a3f127c66233d7580109d3155edd8ca9eb65012102538b9dc94c69871481d86af59b3e05ba9e34adb81aee63748a2aff2e5b9a5696feffffff0280969800000000001976a914b3d466024aa8044c6380921596bde8cd6878bc3788ac292eba10000000001976a9141513f57fb5daa33c01b172f6e82af58136fa51ce88ac25c11400"
    }, 
    {
      "txid": "87285a2166ea6f8555c126d554491b1f00afad761cfc8ff0fca1d2dcf10d41bd",
      "hash": "87285a2166ea6f8555c126d554491b1f00afad761cfc8ff0fca1d2dcf10d41bd",
      "version": 1,
      "size": 226,
      "vsize": 226,
      "locktime": 0,
      "vin": [
        {
          "txid": "24cb030c74959fe07162bc678c38486a19bd98f183dcaa694728e7dce1af0caf",
          "vout": 1,
          "scriptSig": {
            "asm": "3045022100bd2e5e3e797cfa2802f6343372fd3ec89c6993352938cb81a732f4a227bee6f3022043ae35151541972c150c7dcf377cf4019ea49dc6cee03a635223e8f2623f3d3e[ALL] 0267d36e50aa788cf4278021dfd59dcd833037ff986432d7254e88932ddd3c1cde",
            "hex": "483045022100bd2e5e3e797cfa2802f6343372fd3ec89c6993352938cb81a732f4a227bee6f3022043ae35151541972c150c7dcf377cf4019ea49dc6cee03a635223e8f2623f3d3e01210267d36e50aa788cf4278021dfd59dcd833037ff986432d7254e88932ddd3c1cde"
          },
          "sequence": 4294967295
        }
      ],
      "vout": [
        {
          "value": 1.30000000,
          "n": 0,
          "scriptPubKey": {
            "asm": "OP_DUP OP_HASH160 67f20e0dca3bea34505ca640de7db07b85d917f3 OP_EQUALVERIFY OP_CHECKSIG",
            "hex": "76a91467f20e0dca3bea34505ca640de7db07b85d917f388ac",
            "reqSigs": 1,
            "type": "pubkeyhash",
            "addresses": [
              "LUhZqEuxgvjrnmdkiYFh9rojgGMVgJq5mg"
            ]
          }
        }, 
        {
          "value": 28.09290203,
          "n": 1,
          "scriptPubKey": {
            "asm": "OP_DUP OP_HASH160 951bcd102c7bf2a27600038be9a7065642efa46c OP_EQUALVERIFY OP_CHECKSIG",
            "hex": "76a914951bcd102c7bf2a27600038be9a7065642efa46c88ac",
            "reqSigs": 1,
            "type": "pubkeyhash",
            "addresses": [
              "LYpNFSmMwPAmuJjHH6idf1otz8do9663bo"
            ]
          }
        }
      ],
      "hex": "0100000001af0cafe1dce7284769aadc83f198bd196a48388c67bc6271e09f95740c03cb24010000006b483045022100bd2e5e3e797cfa2802f6343372fd3ec89c6993352938cb81a732f4a227bee6f3022043ae35151541972c150c7dcf377cf4019ea49dc6cee03a635223e8f2623f3d3e01210267d36e50aa788cf4278021dfd59dcd833037ff986432d7254e88932ddd3c1cdeffffffff0280a4bf07000000001976a91467f20e0dca3bea34505ca640de7db07b85d917f388acdb5d72a7000000001976a914951bcd102c7bf2a27600038be9a7065642efa46c88ac00000000"
    }, 
    {
      "txid": "78a81777f54db78626623e7bdbe7bc5631676254b840cd48c23d02e69acef2d5",
      "hash": "78a81777f54db78626623e7bdbe7bc5631676254b840cd48c23d02e69acef2d5",
      "version": 2,
      "size": 224,
      "vsize": 224,
      "locktime": 1360085,
      "vin": [
        {
          "txid": "5a08e8022bd41b43bf4347342a73db95c8cb1f3c0f9d29689d45830daf40dea5",
          "vout": 1,
          "scriptSig": {
            "asm": "3045022100b4af09d240b5cfe5b1bd954aaa33b08af8f3e0bf7e6b5ea7d1bd8668fef03e720220660b5547a7406b7ac5d95e1d4b83c9e78410a94282d1b22684cb5b6a7a5b3b0d[ALL] 036995e3afb1458286162c77035df4eba414045c72ed91e6ef8610779fb37f4d41",
            "hex": "483045022100b4af09d240b5cfe5b1bd954aaa33b08af8f3e0bf7e6b5ea7d1bd8668fef03e720220660b5547a7406b7ac5d95e1d4b83c9e78410a94282d1b22684cb5b6a7a5b3b0d0121036995e3afb1458286162c77035df4eba414045c72ed91e6ef8610779fb37f4d41"
          },
          "sequence": 4294967294
        }
      ],
      "vout": [
        {
          "value": 9.97000000,
          "n": 0,
          "scriptPubKey": {
            "asm": "OP_HASH160 4eceb7a05f1b2cc5180a60621eb4375023932946 OP_EQUAL",
            "hex": "a9144eceb7a05f1b2cc5180a60621eb437502393294687",
            "reqSigs": 1,
            "type": "scripthash",
            "addresses": [
              "MF5raMxSzBoh7tvPTXntZYAt8yU9Ama4vq"
            ]
          }
        }, 
        {
          "value": 25.10164827,
          "n": 1,
          "scriptPubKey": {
            "asm": "OP_DUP OP_HASH160 da30b6d5ade5e909117cc8da5c34ecc043b86045 OP_EQUALVERIFY OP_CHECKSIG",
            "hex": "76a914da30b6d5ade5e909117cc8da5c34ecc043b8604588ac",
            "reqSigs": 1,
            "type": "pubkeyhash",
            "addresses": [
              "Lf7dvkgEatYXfZJiGZwqcbVzBXUBcfNU8G"
            ]
          }
        }
      ],
      "hex": "0200000001a5de40af0d83459d68299d0f3c1fcbc895db732a344743bf431bd42b02e8085a010000006b483045022100b4af09d240b5cfe5b1bd954aaa33b08af8f3e0bf7e6b5ea7d1bd8668fef03e720220660b5547a7406b7ac5d95e1d4b83c9e78410a94282d1b22684cb5b6a7a5b3b0d0121036995e3afb1458286162c77035df4eba414045c72ed91e6ef8610779fb37f4d41feffffff0240036d3b0000000017a9144eceb7a05f1b2cc5180a60621eb4375023932946875b139e95000000001976a914da30b6d5ade5e909117cc8da5c34ecc043b8604588acd5c01400"
    }, 
    {
      "txid": "8c68f721b950a47250ffc82228085557090459493eaeb9d3d0170ccb865a5ce8",
      "hash": "8c68f721b950a47250ffc82228085557090459493eaeb9d3d0170ccb865a5ce8",
      "version": 1,
      "size": 226,
      "vsize": 226,
      "locktime": 1360165,
      "vin": [
        {
          "txid": "accdf4b97be74072a85111e82596f3d1d54a710cd96387606b9573568f460f7a",
          "vout": 1,
          "scriptSig": {
            "asm": "3045022100f6083b4dccbf95c77188d07bca36a06e5a1b9d8ec38810782bb619972347c70f02203c1cfec74fd433a386ee08c95abd247b0726f8fc9c28d6fb1d0332f491b04421[ALL] 03f6971efb97b01453bd82d0db4121b50ecf9bae5d23554e3f5d00d895c3a75922",
            "hex": "483045022100f6083b4dccbf95c77188d07bca36a06e5a1b9d8ec38810782bb619972347c70f02203c1cfec74fd433a386ee08c95abd247b0726f8fc9c28d6fb1d0332f491b04421012103f6971efb97b01453bd82d0db4121b50ecf9bae5d23554e3f5d00d895c3a75922"
          },
          "sequence": 4294967294
        }
      ],
      "vout": [
        {
          "value": 4.89018279,
          "n": 0,
          "scriptPubKey": {
            "asm": "OP_DUP OP_HASH160 8aa72012a7ec2aa1405090a2818347fadf502253 OP_EQUALVERIFY OP_CHECKSIG",
            "hex": "76a9148aa72012a7ec2aa1405090a2818347fadf50225388ac",
            "reqSigs": 1,
            "type": "pubkeyhash",
            "addresses": [
              "LXs5ikgat73T4nyGa6fnJzzN5j49cHrAuY"
            ]
          }
        }, 
        {
          "value": 1.23500000,
          "n": 1,
          "scriptPubKey": {
            "asm": "OP_DUP OP_HASH160 dedb196006f5042c5958dc8457bf35932fad272a OP_EQUALVERIFY OP_CHECKSIG",
            "hex": "76a914dedb196006f5042c5958dc8457bf35932fad272a88ac",
            "reqSigs": 1,
            "type": "pubkeyhash",
            "addresses": [
              "LfYJk5CXw2gxiay1HerWFYUZGzH6x8WmcC"
            ]
          }
        }
      ],
      "hex": "01000000017a0f468f5673956b608763d90c714ad5d1f39625e81151a87240e77bb9f4cdac010000006b483045022100f6083b4dccbf95c77188d07bca36a06e5a1b9d8ec38810782bb619972347c70f02203c1cfec74fd433a386ee08c95abd247b0726f8fc9c28d6fb1d0332f491b04421012103f6971efb97b01453bd82d0db4121b50ecf9bae5d23554e3f5d00d895c3a75922feffffff02a7d3251d000000001976a9148aa72012a7ec2aa1405090a2818347fadf50225388ace0755c07000000001976a914dedb196006f5042c5958dc8457bf35932fad272a88ac25c11400"
    }
  ],
  "time": 1517384603,
  "mediantime": 1517383898,
  "nonce": 1611521356,
  "bits": "1a042eae",
  "difficulty": 4011378.762614286,
  "chainwork": "000000000000000000000000000000000000000000000034af902c0805440b50",
  "previousblockhash": "f93123642ace9031b970fb28525252417123507f274433337f00f1d88d36ba28",
  "nextblockhash": "fb804b57d280197c30230b804ddd74843f67bd4c8c3e836bb9e06799ed6ec003"
}
