{
  "hash": "838035dfea694f9fc8dfde1d9d451bacc87fe0d122a9c42d832d0271e2da6703",
  "confirmations": 846,
  "strippedsize": 2783,
  "size": 2819,
  "weight": 11168,
  "height": 1360148,
  "version": 536870912,
  "versionHex": "20000000",
  "merkleroot": "fcfb542193f21006849e4976f9ffe75937245dff50db3aab290b86e54a434472",
  "tx": [
    {
      "txid": "03209e0b2e6000ed901c2d0db8f9f633fb2bc8d4780cda398f160531bc4a2b48",
      "hash": "703ec72f09db6701313a98c96268531a7054b4b20145ad1050f71f0edfd30b86",
      "version": 1,
      "size": 277,
      "vsize": 250,
      "locktime": 950011033,
      "vin": [
        {
          "coinbase": "0314c1142cfabe6d6d10a58a368a838f715762cd39377599510e173d954f4a0e64a34ed4b1b4759ccf08000000f09f909f0e4d696e6564206279206d61727479000000000000000000000000000000000000000000000000000000000000000000000000",
          "sequence": 2
        }
      ],
      "vout": [
        {
          "value": 25.00303119,
          "n": 0,
          "scriptPubKey": {
            "asm": "OP_DUP OP_HASH160 aa3750aa18b8a0f3f0590731e1fab934856680cf OP_EQUALVERIFY OP_CHECKSIG",
            "hex": "76a914aa3750aa18b8a0f3f0590731e1fab934856680cf88ac",
            "reqSigs": 1,
            "type": "pubkeyhash",
            "addresses": [
              "LajyQBeZaBA1NkZDeY8YT5RYYVRkXMvb2T"
            ]
          }
        }, 
        {
          "value": 0.00000000,
          "n": 1,
          "scriptPubKey": {
            "asm": "OP_RETURN aa21a9ed82b8f7b794b56035a2fb52c243ee42c7482ae07d34b8fd4e847100583ca4058a 0000000000000000",
            "hex": "6a24aa21a9ed82b8f7b794b56035a2fb52c243ee42c7482ae07d34b8fd4e847100583ca4058a080000000000000000",
            "type": "nulldata"
          }
        }
      ],
      "hex": "010000000001010000000000000000000000000000000000000000000000000000000000000000ffffffff640314c1142cfabe6d6d10a58a368a838f715762cd39377599510e173d954f4a0e64a34ed4b1b4759ccf08000000f09f909f0e4d696e6564206279206d6172747900000000000000000000000000000000000000000000000000000000000000000000000002000000020f990795000000001976a914aa3750aa18b8a0f3f0590731e1fab934856680cf88ac00000000000000002f6a24aa21a9ed82b8f7b794b56035a2fb52c243ee42c7482ae07d34b8fd4e847100583ca4058a080000000000000000012000000000000000000000000000000000000000000000000000000000000000009904a038"
    }, 
    {
      "txid": "d000112a9d2108327b99367ac1a3be541cec3c0def1c5697d4ff70729c6d6faf",
      "hash": "d000112a9d2108327b99367ac1a3be541cec3c0def1c5697d4ff70729c6d6faf",
      "version": 1,
      "size": 438,
      "vsize": 438,
      "locktime": 0,
      "vin": [
        {
          "txid": "2aeedb64e02c7f7773f59d1e6b74e76ae86042b6019704e208a8161b0fa4bbf5",
          "vout": 0,
          "scriptSig": {
            "asm": "3045022100a64ef2466111b921ac0f83def7bf5c3a74ae1b98fe0610784ec0baf3c0c407ac02203c65f903d510f1ee67835e0afe9da153a0580e2d93b2c1280adb198e0c556603[ALL] 04fd294ee2d4451f846a3fa752fe8e49a319c440f1581f7287f120654bb5b0a9643800f2b76c9f2a73f4d0ed5ab17c4cbe3846b0e2695b6fa1875d7d7d43772781",
            "hex": "483045022100a64ef2466111b921ac0f83def7bf5c3a74ae1b98fe0610784ec0baf3c0c407ac02203c65f903d510f1ee67835e0afe9da153a0580e2d93b2c1280adb198e0c556603014104fd294ee2d4451f846a3fa752fe8e49a319c440f1581f7287f120654bb5b0a9643800f2b76c9f2a73f4d0ed5ab17c4cbe3846b0e2695b6fa1875d7d7d43772781"
          },
          "sequence": 4294967295
        }, 
        {
          "txid": "62eeb762f1909677cf2e2cb0845180a258938ead7cdae725f8756fe493d5b438",
          "vout": 0,
          "scriptSig": {
            "asm": "3045022100b9370e71b27f908ef4cff27eade0c2e1a33641b9ad4e007f3d4208c99ab040e502200b41e958dc1e7bfa4c591c5a288e8508d1089640e9c244aee4fce3cdd1a7a130[ALL] 04fd294ee2d4451f846a3fa752fe8e49a319c440f1581f7287f120654bb5b0a9643800f2b76c9f2a73f4d0ed5ab17c4cbe3846b0e2695b6fa1875d7d7d43772781",
            "hex": "483045022100b9370e71b27f908ef4cff27eade0c2e1a33641b9ad4e007f3d4208c99ab040e502200b41e958dc1e7bfa4c591c5a288e8508d1089640e9c244aee4fce3cdd1a7a130014104fd294ee2d4451f846a3fa752fe8e49a319c440f1581f7287f120654bb5b0a9643800f2b76c9f2a73f4d0ed5ab17c4cbe3846b0e2695b6fa1875d7d7d43772781"
          },
          "sequence": 4294967295
        }
      ],
      "vout": [
        {
          "value": 0.08875886,
          "n": 0,
          "scriptPubKey": {
            "asm": "OP_DUP OP_HASH160 2747f56787602c3651f6430235d81aff95b90666 OP_EQUALVERIFY OP_CHECKSIG",
            "hex": "76a9142747f56787602c3651f6430235d81aff95b9066688ac",
            "reqSigs": 1,
            "type": "pubkeyhash",
            "addresses": [
              "LNoepU12ZSdniDWDehGnQeMGNGd35cQV8c"
            ]
          }
        }, 
        {
          "value": 60.11097411,
          "n": 1,
          "scriptPubKey": {
            "asm": "OP_DUP OP_HASH160 a233e78decde76783e4ff793d1c1cab09b71017b OP_EQUALVERIFY OP_CHECKSIG",
            "hex": "76a914a233e78decde76783e4ff793d1c1cab09b71017b88ac",
            "reqSigs": 1,
            "type": "pubkeyhash",
            "addresses": [
              "La1bugHJLQ4iDaxgzH2Yr61Je2ThXoZTeA"
            ]
          }
        }
      ],
      "hex": "0100000002f5bba40f1b16a808e2049701b64260e86ae7746b1e9df573777f2ce064dbee2a000000008b483045022100a64ef2466111b921ac0f83def7bf5c3a74ae1b98fe0610784ec0baf3c0c407ac02203c65f903d510f1ee67835e0afe9da153a0580e2d93b2c1280adb198e0c556603014104fd294ee2d4451f846a3fa752fe8e49a319c440f1581f7287f120654bb5b0a9643800f2b76c9f2a73f4d0ed5ab17c4cbe3846b0e2695b6fa1875d7d7d43772781ffffffff38b4d593e46f75f825e7da7cad8e9358a2805184b02c2ecf779690f162b7ee62000000008b483045022100b9370e71b27f908ef4cff27eade0c2e1a33641b9ad4e007f3d4208c99ab040e502200b41e958dc1e7bfa4c591c5a288e8508d1089640e9c244aee4fce3cdd1a7a130014104fd294ee2d4451f846a3fa752fe8e49a319c440f1581f7287f120654bb5b0a9643800f2b76c9f2a73f4d0ed5ab17c4cbe3846b0e2695b6fa1875d7d7d43772781ffffffff026e6f8700000000001976a9142747f56787602c3651f6430235d81aff95b9066688ac43114a66010000001976a914a233e78decde76783e4ff793d1c1cab09b71017b88ac00000000"
    }, 
    {
      "txid": "4b054bae475d8185951cd1cad9c1610cf077999672d6f17f25fa8775c0ed49a3",
      "hash": "4b054bae475d8185951cd1cad9c1610cf077999672d6f17f25fa8775c0ed49a3",
      "version": 1,
      "size": 669,
      "vsize": 669,
      "locktime": 0,
      "vin": [
        {
          "txid": "cb2de2fb4f5b6cf2659848001cc51e0bf7bf29dc5ce5c9c766aa520a28ffb268",
          "vout": 464,
          "scriptSig": {
            "asm": "304502210094d22b9fa5f5b8a0b7ae6709fe6e9b5067e572b626ddaab889c161564ec5c5bb022046764c34a4f29bc66ab8c222e88123ebca778e36f462f8c546433b576f288a46[ALL] 0214a09e91c5b796a42c466aacfb66b8ba89c7511c41278d81d78c5f14499a822a",
            "hex": "48304502210094d22b9fa5f5b8a0b7ae6709fe6e9b5067e572b626ddaab889c161564ec5c5bb022046764c34a4f29bc66ab8c222e88123ebca778e36f462f8c546433b576f288a4601210214a09e91c5b796a42c466aacfb66b8ba89c7511c41278d81d78c5f14499a822a"
          },
          "sequence": 4294967295
        }, 
        {
          "txid": "e614981479c01734253640ba0225dfeaded730d733fe8abde297b129649e0c66",
          "vout": 1,
          "scriptSig": {
            "asm": "30440220695644446d8935d7c2c779ff70820a189fbf85c771dff8ab386c1454ed377d1d022019713ddc80e1ef2a5240e443398950bc5401bae4b49804ab0fd4cd1aa0b7e111[ALL] 034c731cd21cf71c014997a841e4aa5bfc92bf26364d8b70b4c7852c60a205a641",
            "hex": "4730440220695644446d8935d7c2c779ff70820a189fbf85c771dff8ab386c1454ed377d1d022019713ddc80e1ef2a5240e443398950bc5401bae4b49804ab0fd4cd1aa0b7e1110121034c731cd21cf71c014997a841e4aa5bfc92bf26364d8b70b4c7852c60a205a641"
          },
          "sequence": 4294967295
        }, 
        {
          "txid": "08870b413c1dbd804c9d29e07bc9bd6e2db54a7f8d900875ddd34dc3f4ecf7b2",
          "vout": 464,
          "scriptSig": {
            "asm": "3045022100d540f805b22f16c71b30bdc7f6b6679fa209d481a6d82bbf2ae788e0cdef78a502202c050f58e6262846ff7d70cd89209020cc9a7caf18b82a0372ef456e9a77bd2b[ALL] 0214a09e91c5b796a42c466aacfb66b8ba89c7511c41278d81d78c5f14499a822a",
            "hex": "483045022100d540f805b22f16c71b30bdc7f6b6679fa209d481a6d82bbf2ae788e0cdef78a502202c050f58e6262846ff7d70cd89209020cc9a7caf18b82a0372ef456e9a77bd2b01210214a09e91c5b796a42c466aacfb66b8ba89c7511c41278d81d78c5f14499a822a"
          },
          "sequence": 4294967295
        }, 
        {
          "txid": "3ec30f5847d486b940c1ea233ade0cbca203f2a42094700d652a1a547d67da42",
          "vout": 464,
          "scriptSig": {
            "asm": "3045022100b18b803ed34423c480ce2e1362a4d14910c9c40a597826c7c08ba1de1bb2127902200c20af81295e05c537d39d57fd5a26cfa743f2ac8a9f0b154f961dc718997da6[ALL] 0214a09e91c5b796a42c466aacfb66b8ba89c7511c41278d81d78c5f14499a822a",
            "hex": "483045022100b18b803ed34423c480ce2e1362a4d14910c9c40a597826c7c08ba1de1bb2127902200c20af81295e05c537d39d57fd5a26cfa743f2ac8a9f0b154f961dc718997da601210214a09e91c5b796a42c466aacfb66b8ba89c7511c41278d81d78c5f14499a822a"
          },
          "sequence": 4294967295
        }
      ],
      "vout": [
        {
          "value": 1.64100000,
          "n": 0,
          "scriptPubKey": {
            "asm": "OP_DUP OP_HASH160 7da80b302bb0aa392210ed94c74049110d7fdda4 OP_EQUALVERIFY OP_CHECKSIG",
            "hex": "76a9147da80b302bb0aa392210ed94c74049110d7fdda488ac",
            "reqSigs": 1,
            "type": "pubkeyhash",
            "addresses": [
              "LWgN35BynwaEcDYvijzfouhm5ZcQ63kDk3"
            ]
          }
        }, 
        {
          "value": 0.33442406,
          "n": 1,
          "scriptPubKey": {
            "asm": "OP_DUP OP_HASH160 5909fcb62159f52b3747bcaf387674b660645592 OP_EQUALVERIFY OP_CHECKSIG",
            "hex": "76a9145909fcb62159f52b3747bcaf387674b66064559288ac",
            "reqSigs": 1,
            "type": "pubkeyhash",
            "addresses": [
              "LTLkNCsjGV419UBfc6ZyKuAYT2V27wbLgQ"
            ]
          }
        }
      ],
      "hex": "010000000468b2ff280a52aa66c7c9e55cdc29bff70b1ec51c00489865f26c5b4ffbe22dcbd00100006b48304502210094d22b9fa5f5b8a0b7ae6709fe6e9b5067e572b626ddaab889c161564ec5c5bb022046764c34a4f29bc66ab8c222e88123ebca778e36f462f8c546433b576f288a4601210214a09e91c5b796a42c466aacfb66b8ba89c7511c41278d81d78c5f14499a822affffffff660c9e6429b197e2bd8afe33d730d7deeadf2502ba4036253417c079149814e6010000006a4730440220695644446d8935d7c2c779ff70820a189fbf85c771dff8ab386c1454ed377d1d022019713ddc80e1ef2a5240e443398950bc5401bae4b49804ab0fd4cd1aa0b7e1110121034c731cd21cf71c014997a841e4aa5bfc92bf26364d8b70b4c7852c60a205a641ffffffffb2f7ecf4c34dd3dd7508908d7f4ab52d6ebdc97be0299d4c80bd1d3c410b8708d00100006b483045022100d540f805b22f16c71b30bdc7f6b6679fa209d481a6d82bbf2ae788e0cdef78a502202c050f58e6262846ff7d70cd89209020cc9a7caf18b82a0372ef456e9a77bd2b01210214a09e91c5b796a42c466aacfb66b8ba89c7511c41278d81d78c5f14499a822affffffff42da677d541a2a650d709420a4f203a2bc0cde3a23eac140b986d447580fc33ed00100006b483045022100b18b803ed34423c480ce2e1362a4d14910c9c40a597826c7c08ba1de1bb2127902200c20af81295e05c537d39d57fd5a26cfa743f2ac8a9f0b154f961dc718997da601210214a09e91c5b796a42c466aacfb66b8ba89c7511c41278d81d78c5f14499a822affffffff02a0f7c709000000001976a9147da80b302bb0aa392210ed94c74049110d7fdda488ac664afe01000000001976a9145909fcb62159f52b3747bcaf387674b66064559288ac00000000"
    }, 
    {
      "txid": "b67c856da1918b1618bdbe4ac1903147330fb279a4d63fb528126e6b11d2522a",
      "hash": "b67c856da1918b1618bdbe4ac1903147330fb279a4d63fb528126e6b11d2522a",
      "version": 1,
      "size": 225,
      "vsize": 225,
      "locktime": 0,
      "vin": [
        {
          "txid": "6954e78d99c296dcb3a30a1134e53dca8cc2d30c49c6b7ad04e57fad44418c02",
          "vout": 430,
          "scriptSig": {
            "asm": "30440220397fe4609d3ce62c3c8b2f117fe7c81e3718b333aed50317bbfdfafa3b21752a02202aef56ae8f4f94da0e31756d49fed0e5c4a28d276ecdeedf52dbb153a5f793c4[ALL] 035f1c74f8c25d9bcc514805bd52d83d46f6a00def80b4130402e02cd5883b1f6e",
            "hex": "4730440220397fe4609d3ce62c3c8b2f117fe7c81e3718b333aed50317bbfdfafa3b21752a02202aef56ae8f4f94da0e31756d49fed0e5c4a28d276ecdeedf52dbb153a5f793c40121035f1c74f8c25d9bcc514805bd52d83d46f6a00def80b4130402e02cd5883b1f6e"
          },
          "sequence": 4294967295
        }
      ],
      "vout": [
        {
          "value": 0.30802400,
          "n": 0,
          "scriptPubKey": {
            "asm": "OP_DUP OP_HASH160 d59e6060f415bc636605f7923794f6ae1e27ade1 OP_EQUALVERIFY OP_CHECKSIG",
            "hex": "76a914d59e6060f415bc636605f7923794f6ae1e27ade188ac",
            "reqSigs": 1,
            "type": "pubkeyhash",
            "addresses": [
              "LehTvGEzd7oNAAbSjyohYfLHajz4KjPj89"
            ]
          }
        }, 
        {
          "value": 0.00069299,
          "n": 1,
          "scriptPubKey": {
            "asm": "OP_DUP OP_HASH160 5f58dcbda1c5212d3468a0b0754dcca305fdedf7 OP_EQUALVERIFY OP_CHECKSIG",
            "hex": "76a9145f58dcbda1c5212d3468a0b0754dcca305fdedf788ac",
            "reqSigs": 1,
            "type": "pubkeyhash",
            "addresses": [
              "LTv6uhJ8ZtY3NXFyqC4ALj4MkmBRhrNXhC"
            ]
          }
        }
      ],
      "hex": "0100000001028c4144ad7fe504adb7c6490cd3c28cca3de534110aa3b3dc96c2998de75469ae0100006a4730440220397fe4609d3ce62c3c8b2f117fe7c81e3718b333aed50317bbfdfafa3b21752a02202aef56ae8f4f94da0e31756d49fed0e5c4a28d276ecdeedf52dbb153a5f793c40121035f1c74f8c25d9bcc514805bd52d83d46f6a00def80b4130402e02cd5883b1f6effffffff02e001d601000000001976a914d59e6060f415bc636605f7923794f6ae1e27ade188acb30e0100000000001976a9145f58dcbda1c5212d3468a0b0754dcca305fdedf788ac00000000"
    }, 
    {
      "txid": "1bc410bd3c0d047221de1947a68d69d7a85983d2a1f73a5be9fa624201fc035e",
      "hash": "1bc410bd3c0d047221de1947a68d69d7a85983d2a1f73a5be9fa624201fc035e",
      "version": 1,
      "size": 225,
      "vsize": 225,
      "locktime": 0,
      "vin": [
        {
          "txid": "252a923428b600835f3d52a160e78d8a1192934260a69ab12ec118f27531bb83",
          "vout": 0,
          "scriptSig": {
            "asm": "3044022022432d19f4a21af3a416965f45eb46787f3ba4614c9de521c35b7ba8d953702a0220379827562fb622753f231c52d496398908fe6476c3ea92910ebc62da57c65d39[ALL] 037c841e481bd088c18170396103ac85cda3fc7fddd0436d9db2f7cbd32aaba3b4",
            "hex": "473044022022432d19f4a21af3a416965f45eb46787f3ba4614c9de521c35b7ba8d953702a0220379827562fb622753f231c52d496398908fe6476c3ea92910ebc62da57c65d390121037c841e481bd088c18170396103ac85cda3fc7fddd0436d9db2f7cbd32aaba3b4"
          },
          "sequence": 4294967295
        }
      ],
      "vout": [
        {
          "value": 0.61604800,
          "n": 0,
          "scriptPubKey": {
            "asm": "OP_DUP OP_HASH160 bb928b59588c5375562f256561a27eef6823221b OP_EQUALVERIFY OP_CHECKSIG",
            "hex": "76a914bb928b59588c5375562f256561a27eef6823221b88ac",
            "reqSigs": 1,
            "type": "pubkeyhash",
            "addresses": [
              "LcKkBATwSTsyYgk5nkgQNqEcCYobJ25LpY"
            ]
          }
        }, 
        {
          "value": 0.20883769,
          "n": 1,
          "scriptPubKey": {
            "asm": "OP_DUP OP_HASH160 c46e9a653d21243c632ab1cd6ed28a3b1db22df1 OP_EQUALVERIFY OP_CHECKSIG",
            "hex": "76a914c46e9a653d21243c632ab1cd6ed28a3b1db22df188ac",
            "reqSigs": 1,
            "type": "pubkeyhash",
            "addresses": [
              "Ld8bCegBFUfNGVeGHH45iuGPkQJvqLh9RK"
            ]
          }
        }
      ],
      "hex": "010000000183bb3175f218c12eb19aa660429392118a8de760a1523d5f8300b62834922a25000000006a473044022022432d19f4a21af3a416965f45eb46787f3ba4614c9de521c35b7ba8d953702a0220379827562fb622753f231c52d496398908fe6476c3ea92910ebc62da57c65d390121037c841e481bd088c18170396103ac85cda3fc7fddd0436d9db2f7cbd32aaba3b4ffffffff02c003ac03000000001976a914bb928b59588c5375562f256561a27eef6823221b88ac39a93e01000000001976a914c46e9a653d21243c632ab1cd6ed28a3b1db22df188ac00000000"
    }, 
    {
      "txid": "1227c940af359099e0c46ee46a21bad8c40b81707fbad79b2946ccf248dd3a91",
      "hash": "1227c940af359099e0c46ee46a21bad8c40b81707fbad79b2946ccf248dd3a91",
      "version": 2,
      "size": 226,
      "vsize": 226,
      "locktime": 1360146,
      "vin": [
        {
          "txid": "70bf427aa761f9e087f4e8c0fbe071dfe8d70b777e84b3cf9c3934a2c5dcbe18",
          "vout": 1,
          "scriptSig": {
            "asm": "3045022100d6b68f18798be9d5d33240ba3eb1311fcbd6f418915598a9b28cc1ff2597e08e02206c9e95b46bce266a1863159c5379d60fad53edf8817bc220bec732b2a8a8f4c6[ALL] 02802011be2d4c31f8087358139f47ef933328231fe14ac54c8971aa7dc2bcf5a3",
            "hex": "483045022100d6b68f18798be9d5d33240ba3eb1311fcbd6f418915598a9b28cc1ff2597e08e02206c9e95b46bce266a1863159c5379d60fad53edf8817bc220bec732b2a8a8f4c6012102802011be2d4c31f8087358139f47ef933328231fe14ac54c8971aa7dc2bcf5a3"
          },
          "sequence": 4294967294
        }
      ],
      "vout": [
        {
          "value": 0.03211444,
          "n": 0,
          "scriptPubKey": {
            "asm": "OP_DUP OP_HASH160 5b58845aa6ec7c00302f9d18e783d532dbe4b106 OP_EQUALVERIFY OP_CHECKSIG",
            "hex": "76a9145b58845aa6ec7c00302f9d18e783d532dbe4b10688ac",
            "reqSigs": 1,
            "type": "pubkeyhash",
            "addresses": [
              "LTYwnwRWEeQ7A6YnzdwiYgaGS77NA5jHMz"
            ]
          }
        }, 
        {
          "value": 0.04548837,
          "n": 1,
          "scriptPubKey": {
            "asm": "OP_DUP OP_HASH160 47fb55dd6df8f0a415bd88001472f9098e92b7bb OP_EQUALVERIFY OP_CHECKSIG",
            "hex": "76a91447fb55dd6df8f0a415bd88001472f9098e92b7bb88ac",
            "reqSigs": 1,
            "type": "pubkeyhash",
            "addresses": [
              "LRnZKvWbfCQUpQYCsPTXhWFa9Vgpwe1fqn"
            ]
          }
        }
      ],
      "hex": "020000000118bedcc5a234399ccfb3847e770bd7e8df71e0fbc0e8f487e0f961a77a42bf70010000006b483045022100d6b68f18798be9d5d33240ba3eb1311fcbd6f418915598a9b28cc1ff2597e08e02206c9e95b46bce266a1863159c5379d60fad53edf8817bc220bec732b2a8a8f4c6012102802011be2d4c31f8087358139f47ef933328231fe14ac54c8971aa7dc2bcf5a3feffffff02b4003100000000001976a9145b58845aa6ec7c00302f9d18e783d532dbe4b10688ace5684500000000001976a91447fb55dd6df8f0a415bd88001472f9098e92b7bb88ac12c11400"
    }, 
    {
      "txid": "a69a9fb0ae7c0782736f0981cff7ad245c510ccc48c255f142bafe9b6918f6b2",
      "hash": "a69a9fb0ae7c0782736f0981cff7ad245c510ccc48c255f142bafe9b6918f6b2",
      "version": 2,
      "size": 226,
      "vsize": 226,
      "locktime": 1360146,
      "vin": [
        {
          "txid": "62a2bfdaae25317702d2c50c7177d2d57c97fe201e67546eccc2880598a75bd5",
          "vout": 1,
          "scriptSig": {
            "asm": "30450221009868e4d81b5322acd70f9523004ade7309321f41d0adafdcb0d094fb6a699426022071fbddf0e86a748f012ab36fa8c3b5f82c9face641dfb1906a6455dc841e6f94[ALL] 023b66027f6ab71c07d12eb66ffd84f83d9fd863ee1192086bffbb158d625716a8",
            "hex": "4830450221009868e4d81b5322acd70f9523004ade7309321f41d0adafdcb0d094fb6a699426022071fbddf0e86a748f012ab36fa8c3b5f82c9face641dfb1906a6455dc841e6f940121023b66027f6ab71c07d12eb66ffd84f83d9fd863ee1192086bffbb158d625716a8"
          },
          "sequence": 4294967294
        }
      ],
      "vout": [
        {
          "value": 6.54695940,
          "n": 0,
          "scriptPubKey": {
            "asm": "OP_DUP OP_HASH160 1a40a03258f57863426bcf6d9d52d6fa3df6839e OP_EQUALVERIFY OP_CHECKSIG",
            "hex": "76a9141a40a03258f57863426bcf6d9d52d6fa3df6839e88ac",
            "reqSigs": 1,
            "type": "pubkeyhash",
            "addresses": [
              "LMcmFUfEvavQmeNBt8U49XdtdFTSkRffAZ"
            ]
          }
        }, 
        {
          "value": 14.19966589,
          "n": 1,
          "scriptPubKey": {
            "asm": "OP_DUP OP_HASH160 98dcf2741b17fa3e1a045d8e46d07e81e1aebbc7 OP_EQUALVERIFY OP_CHECKSIG",
            "hex": "76a91498dcf2741b17fa3e1a045d8e46d07e81e1aebbc788ac",
            "reqSigs": 1,
            "type": "pubkeyhash",
            "addresses": [
              "LZADf3VWnQB8726siUmGyqR5wy5dVYdBWa"
            ]
          }
        }
      ],
      "hex": "0200000001d55ba7980588c2cc6e54671e20fe977cd5d277710cc5d202773125aedabfa262010000006b4830450221009868e4d81b5322acd70f9523004ade7309321f41d0adafdcb0d094fb6a699426022071fbddf0e86a748f012ab36fa8c3b5f82c9face641dfb1906a6455dc841e6f940121023b66027f6ab71c07d12eb66ffd84f83d9fd863ee1192086bffbb158d625716a8feffffff0204de0527000000001976a9141a40a03258f57863426bcf6d9d52d6fa3df6839e88ac7df8a254000000001976a91498dcf2741b17fa3e1a045d8e46d07e81e1aebbc788ac12c11400"
    }, 
    {
      "txid": "8b61c0320146724866722149e7d8be57c9dd499e5f3501fb0060c0835ee85192",
      "hash": "8b61c0320146724866722149e7d8be57c9dd499e5f3501fb0060c0835ee85192",
      "version": 1,
      "size": 226,
      "vsize": 226,
      "locktime": 0,
      "vin": [
        {
          "txid": "ab067250d79d9ac6dd6b229a2ce399122e59e4adbe0be3b30eda6e73aad56748",
          "vout": 1,
          "scriptSig": {
            "asm": "3045022100efdb0b777713fc34afb5873e34b01fb2ba8f4fc16818644c62334b5d1f1df872022020083dae4a95ba4bdd36bf4d8cb1b7fadbbc0c4159f94dbf52e0073829a7a34f[ALL] 03e1f3bc90ee1f7f318cecd2f6500d21d41b7c849fe4e3868da4ed6bbcd95074c0",
            "hex": "483045022100efdb0b777713fc34afb5873e34b01fb2ba8f4fc16818644c62334b5d1f1df872022020083dae4a95ba4bdd36bf4d8cb1b7fadbbc0c4159f94dbf52e0073829a7a34f012103e1f3bc90ee1f7f318cecd2f6500d21d41b7c849fe4e3868da4ed6bbcd95074c0"
          },
          "sequence": 4294967295
        }
      ],
      "vout": [
        {
          "value": 4.43931498,
          "n": 0,
          "scriptPubKey": {
            "asm": "OP_DUP OP_HASH160 da5937f10889edc68fa5db60843bfaf474cdd353 OP_EQUALVERIFY OP_CHECKSIG",
            "hex": "76a914da5937f10889edc68fa5db60843bfaf474cdd35388ac",
            "reqSigs": 1,
            "type": "pubkeyhash",
            "addresses": [
              "Lf8UT3UwBGLAubMG5bC5ATeop6tVCMKhtj"
            ]
          }
        }, 
        {
          "value": 7.08229871,
          "n": 1,
          "scriptPubKey": {
            "asm": "OP_DUP OP_HASH160 fd85bd033b090e79e18a2fae0261161ffbfb1631 OP_EQUALVERIFY OP_CHECKSIG",
            "hex": "76a914fd85bd033b090e79e18a2fae0261161ffbfb163188ac",
            "reqSigs": 1,
            "type": "pubkeyhash",
            "addresses": [
              "LiLTS3kU5Mg9xGCMF4aiK93hSnfDfcBcx6"
            ]
          }
        }
      ],
      "hex": "01000000014867d5aa736eda0eb3e30bbeade4592e1299e32c9a226bddc69a9dd7507206ab010000006b483045022100efdb0b777713fc34afb5873e34b01fb2ba8f4fc16818644c62334b5d1f1df872022020083dae4a95ba4bdd36bf4d8cb1b7fadbbc0c4159f94dbf52e0073829a7a34f012103e1f3bc90ee1f7f318cecd2f6500d21d41b7c849fe4e3868da4ed6bbcd95074c0ffffffff026adb751a000000001976a914da5937f10889edc68fa5db60843bfaf474cdd35388acefba362a000000001976a914fd85bd033b090e79e18a2fae0261161ffbfb163188ac00000000"
    }, 
    {
      "txid": "94ca48b946628d2c5019b9f132ca93409951cd28b49c7ea6bdca572f6eaf9cc3",
      "hash": "94ca48b946628d2c5019b9f132ca93409951cd28b49c7ea6bdca572f6eaf9cc3",
      "version": 1,
      "size": 226,
      "vsize": 226,
      "locktime": 0,
      "vin": [
        {
          "txid": "631e4ecb587bb7b80d9c3af2e4f0d7c0250f44b5043ac81edbfb91dbeb02253e",
          "vout": 535,
          "scriptSig": {
            "asm": "3045022100ed366e521c0b1d0a5cde691f52023d8564beb1df9b6da0e97b7d8ad00df46c67022054e279aed7604a2a02b75489e4e7c503e01336e6fc5176f5bc7d617ab931aa62[ALL] 023be9f27dd46e4d89278ed948e5cabf4264c68e401d9ad5ab6b54279c1b7d6708",
            "hex": "483045022100ed366e521c0b1d0a5cde691f52023d8564beb1df9b6da0e97b7d8ad00df46c67022054e279aed7604a2a02b75489e4e7c503e01336e6fc5176f5bc7d617ab931aa620121023be9f27dd46e4d89278ed948e5cabf4264c68e401d9ad5ab6b54279c1b7d6708"
          },
          "sequence": 4294967295
        }
      ],
      "vout": [
        {
          "value": 0.00057335,
          "n": 0,
          "scriptPubKey": {
            "asm": "OP_DUP OP_HASH160 113249defd1646aae65dc6e2ad87de6949afbb4a OP_EQUALVERIFY OP_CHECKSIG",
            "hex": "76a914113249defd1646aae65dc6e2ad87de6949afbb4a88ac",
            "reqSigs": 1,
            "type": "pubkeyhash",
            "addresses": [
              "LLnszarLzP99jyyiAd5YyPsy9kepAjsGJp"
            ]
          }
        }, 
        {
          "value": 0.12739542,
          "n": 1,
          "scriptPubKey": {
            "asm": "OP_DUP OP_HASH160 26f53e2f947b6a01bd5ccc34742bc46db4cc5e76 OP_EQUALVERIFY OP_CHECKSIG",
            "hex": "76a91426f53e2f947b6a01bd5ccc34742bc46db4cc5e7688ac",
            "reqSigs": 1,
            "type": "pubkeyhash",
            "addresses": [
              "LNmwjH8ZjQZdR84A6a5ogUdh1vapw3o4f6"
            ]
          }
        }
      ],
      "hex": "01000000013e2502ebdb91fbdb1ec83a04b5440f25c0d7f0e4f23a9c0db8b77b58cb4e1e63170200006b483045022100ed366e521c0b1d0a5cde691f52023d8564beb1df9b6da0e97b7d8ad00df46c67022054e279aed7604a2a02b75489e4e7c503e01336e6fc5176f5bc7d617ab931aa620121023be9f27dd46e4d89278ed948e5cabf4264c68e401d9ad5ab6b54279c1b7d6708ffffffff02f7df0000000000001976a914113249defd1646aae65dc6e2ad87de6949afbb4a88acd663c200000000001976a91426f53e2f947b6a01bd5ccc34742bc46db4cc5e7688ac00000000"
    }
  ],
  "time": 1517382155,
  "mediantime": 1517381718,
  "nonce": 4141332762,
  "bits": "1a042eae",
  "difficulty": 4011378.762614286,
  "chainwork": "000000000000000000000000000000000000000000000034ab052ff88bd976aa",
  "previousblockhash": "b8a089a49e9cc7443c4b4e1d5e3801a0f45d6ff40d9dab4efcf771062a561822",
  "nextblockhash": "ab584d3724c072389f4821f9f6c79b71f168645a5c47c3348a86145f418e94c2"
}
