{
  "hash": "83e7e13e2812e2b67d3bb689a2dad28c87c87b9b47bfbdbb483813b318405111",
  "confirmations": 3040,
  "strippedsize": 254,
  "size": 254,
  "weight": 1016,
  "height": 1357955,
  "version": 536870912,
  "versionHex": "20000000",
  "merkleroot": "cd36ed350b07332402ff0cc2e0b4faf8f3b1a7484c6d034b8e6d28650d41ab8d",
  "tx": [
    {
      "txid": "cd36ed350b07332402ff0cc2e0b4faf8f3b1a7484c6d034b8e6d28650d41ab8d",
      "hash": "cd36ed350b07332402ff0cc2e0b4faf8f3b1a7484c6d034b8e6d28650d41ab8d",
      "version": 1,
      "size": 173,
      "vsize": 173,
      "locktime": 0,
      "vin": [
        {
          "coinbase": "0383b8141b4d696e656420627920416e74506f6f6c20626a3242205a6ca5b801fabe6d6d82fe0a0be2242a25355df44310e4518075008d183d5f97d28bf41728bd173033040000000000000021030000000000000e000000",
          "sequence": 4294967295
        }
      ],
      "vout": [
        {
          "value": 25.00000000,
          "n": 0,
          "scriptPubKey": {
            "asm": "OP_DUP OP_HASH160 0ff3ccc5e8be88afe24b5d634e5852d474dbdff1 OP_EQUALVERIFY OP_CHECKSIG",
            "hex": "76a9140ff3ccc5e8be88afe24b5d634e5852d474dbdff188ac",
            "reqSigs": 1,
            "type": "pubkeyhash",
            "addresses": [
              "LLgJTbzZMsRTCUF1NtvvL9SR1a4pVieW89"
            ]
          }
        }
      ],
      "hex": "01000000010000000000000000000000000000000000000000000000000000000000000000ffffffff580383b8141b4d696e656420627920416e74506f6f6c20626a3242205a6ca5b801fabe6d6d82fe0a0be2242a25355df44310e4518075008d183d5f97d28bf41728bd173033040000000000000021030000000000000e000000ffffffff0100f90295000000001976a9140ff3ccc5e8be88afe24b5d634e5852d474dbdff188ac00000000"
    }
  ],
  "time": 1517069752,
  "mediantime": 1517068976,
  "nonce": 3220362660,
  "bits": "1a047f14",
  "difficulty": 3731199.183374282,
  "chainwork": "000000000000000000000000000000000000000000000032ac80332cc1a34068",
  "previousblockhash": "e1620c39ff7e3cdab8bd586061414f2e02d9c9e3a13e1f0abfe8441f67f41bea",
  "nextblockhash": "58e468459137ea6a33123542fc9ac74593c1b709ae8aadd5057b43e4812f1a89"
}
