{
  "hash": "842b9ea6ee58d5cf77695e5f1947350b75ed3dfb64ff8557fc6ec803784b88b9",
  "confirmations": 220,
  "strippedsize": 4398,
  "size": 4434,
  "weight": 17628,
  "height": 1360774,
  "version": 536870912,
  "versionHex": "20000000",
  "merkleroot": "0944ab436dccc678a625e57360a6aadbc4f0125c37298815d4e73609d11d2276",
  "tx": [
    {
      "txid": "5500fa0ffcce4961d6e1c5a476d5f3270c1cca0495ba21ba9b985f04a848a290",
      "hash": "5a804b6ea927df04deb70b6c4b7fdca5c919224934fef3432dabc1f728ecc20e",
      "version": 2,
      "size": 234,
      "vsize": 207,
      "locktime": 0,
      "vin": [
        {
          "coinbase": "0386c31404bae6725a2ffabe6d6d03d83cbdcd4277dafa77fe69b2483dea60d719e4fc521ec2eede1e77d6190da001000000000000000304dd571e00000000000000",
          "sequence": 4294967295
        }
      ],
      "vout": [
        {
          "value": 25.01619600,
          "n": 0,
          "scriptPubKey": {
            "asm": "OP_DUP OP_HASH160 3d29d474d0a98b5b2669d990d2917780837edf0c OP_EQUALVERIFY OP_CHECKSIG",
            "hex": "76a9143d29d474d0a98b5b2669d990d2917780837edf0c88ac",
            "reqSigs": 1,
            "type": "pubkeyhash",
            "addresses": [
              "LQoMbJnzRK2sDXazJuUNXPTx7FrKKPJgt6"
            ]
          }
        }, 
        {
          "value": 0.00000000,
          "n": 1,
          "scriptPubKey": {
            "asm": "OP_RETURN aa21a9edb78532c2481e320fbc41f5a6d325555c15d768b12f9831461ca1b8eeddb48d40",
            "hex": "6a24aa21a9edb78532c2481e320fbc41f5a6d325555c15d768b12f9831461ca1b8eeddb48d40",
            "type": "nulldata"
          }
        }
      ],
      "hex": "020000000001010000000000000000000000000000000000000000000000000000000000000000ffffffff420386c31404bae6725a2ffabe6d6d03d83cbdcd4277dafa77fe69b2483dea60d719e4fc521ec2eede1e77d6190da001000000000000000304dd571e00000000000000ffffffff0290af1b95000000001976a9143d29d474d0a98b5b2669d990d2917780837edf0c88ac0000000000000000266a24aa21a9edb78532c2481e320fbc41f5a6d325555c15d768b12f9831461ca1b8eeddb48d400120000000000000000000000000000000000000000000000000000000000000000000000000"
    }, 
    {
      "txid": "d460f130fada10b213c912a8388a1a13214fe180ac677e99270e7354b2dfcb30",
      "hash": "d460f130fada10b213c912a8388a1a13214fe180ac677e99270e7354b2dfcb30",
      "version": 2,
      "size": 293,
      "vsize": 293,
      "locktime": 0,
      "vin": [
        {
          "txid": "e859d8796a51914cc0d555cf3b5187fb8d97a879bd0199febd2d46ea2488031b",
          "vout": 1,
          "scriptSig": {
            "asm": "3044022000f5582d6bdcaa62145abdf30d5d1a9da8b73c8d3ba66b67335e984dc413ebe302203122d053ac82e5b085476af2896598b7a1d5bdfd031413eece656d19ad3eede7[ALL] 036e455cc697419cf6546f7d58524033c05b3feac46728a08f86d81ba2c498965c",
            "hex": "473044022000f5582d6bdcaa62145abdf30d5d1a9da8b73c8d3ba66b67335e984dc413ebe302203122d053ac82e5b085476af2896598b7a1d5bdfd031413eece656d19ad3eede70121036e455cc697419cf6546f7d58524033c05b3feac46728a08f86d81ba2c498965c"
          },
          "sequence": 4294967295
        }
      ],
      "vout": [
        {
          "value": 0.73800000,
          "n": 0,
          "scriptPubKey": {
            "asm": "OP_DUP OP_HASH160 cd7c3c2b463ab69e887720cb5677e30fd110f34d OP_EQUALVERIFY OP_CHECKSIG",
            "hex": "76a914cd7c3c2b463ab69e887720cb5677e30fd110f34d88ac",
            "reqSigs": 1,
            "type": "pubkeyhash",
            "addresses": [
              "LdxTcYGFMBw5Ed8DgiQXiqpUVmbagPS8oR"
            ]
          }
        }, 
        {
          "value": 864.76870000,
          "n": 1,
          "scriptPubKey": {
            "asm": "OP_DUP OP_HASH160 77c585fb930f7c3c0f8525c8b851ddf211ada5af OP_EQUALVERIFY OP_CHECKSIG",
            "hex": "76a91477c585fb930f7c3c0f8525c8b851ddf211ada5af88ac",
            "reqSigs": 1,
            "type": "pubkeyhash",
            "addresses": [
              "LW9FJCrUdt1iJJi13SPE3CWosCwrm5y9jV"
            ]
          }
        }, 
        {
          "value": 1.00000000,
          "n": 2,
          "scriptPubKey": {
            "asm": "OP_DUP OP_HASH160 7354199a4919a3f331d802eef7b904f5b1c7a95e OP_EQUALVERIFY OP_CHECKSIG",
            "hex": "76a9147354199a4919a3f331d802eef7b904f5b1c7a95e88ac",
            "reqSigs": 1,
            "type": "pubkeyhash",
            "addresses": [
              "LVjkieLxLwYbLQhccbj6b5rGn2SHx693g1"
            ]
          }
        }, 
        {
          "value": 15.00000000,
          "n": 3,
          "scriptPubKey": {
            "asm": "OP_DUP OP_HASH160 875d915ec64b6954753f6e453cc28cb8a05d2f63 OP_EQUALVERIFY OP_CHECKSIG",
            "hex": "76a914875d915ec64b6954753f6e453cc28cb8a05d2f6388ac",
            "reqSigs": 1,
            "type": "pubkeyhash",
            "addresses": [
              "LXZhaKRcZ4iNCrCPqJsKoNL7fXkuypCU3J"
            ]
          }
        }
      ],
      "hex": "02000000011b038824ea462dbdfe9901bd79a8978dfb87513bcf55d5c04c91516a79d859e8010000006a473044022000f5582d6bdcaa62145abdf30d5d1a9da8b73c8d3ba66b67335e984dc413ebe302203122d053ac82e5b085476af2896598b7a1d5bdfd031413eece656d19ad3eede70121036e455cc697419cf6546f7d58524033c05b3feac46728a08f86d81ba2c498965cffffffff0440196604000000001976a914cd7c3c2b463ab69e887720cb5677e30fd110f34d88ac70516c22140000001976a91477c585fb930f7c3c0f8525c8b851ddf211ada5af88ac00e1f505000000001976a9147354199a4919a3f331d802eef7b904f5b1c7a95e88ac002f6859000000001976a914875d915ec64b6954753f6e453cc28cb8a05d2f6388ac00000000"
    }, 
    {
      "txid": "2d48820bcc1899f99f047d7c2d3385b6f0fe33a9fcefa7e02effe88ab6683c37",
      "hash": "2d48820bcc1899f99f047d7c2d3385b6f0fe33a9fcefa7e02effe88ab6683c37",
      "version": 1,
      "size": 373,
      "vsize": 373,
      "locktime": 0,
      "vin": [
        {
          "txid": "0caa001f804e6cdaa9a2f1d2ba4c124cc4e3e91d65ffa24f2fc6f3ee4efe8459",
          "vout": 0,
          "scriptSig": {
            "asm": "3044022041f7d7f7d7dbfcb8ef1cd7bbaff8b0c1f7d11633802cde9694f5f9aa220c89b502207792e49f99b49f4cc85f64cf7d12f7276c6b5f8be23db6b1db52105df7deb9d6[ALL] 03f5b421bf196d9827c3d23c556cace5063f888a67ef687cecdee4639c8ee7844b",
            "hex": "473044022041f7d7f7d7dbfcb8ef1cd7bbaff8b0c1f7d11633802cde9694f5f9aa220c89b502207792e49f99b49f4cc85f64cf7d12f7276c6b5f8be23db6b1db52105df7deb9d6012103f5b421bf196d9827c3d23c556cace5063f888a67ef687cecdee4639c8ee7844b"
          },
          "sequence": 4294967295
        }, 
        {
          "txid": "cb560ea9097868ac21d46e9140934940f2798cc3330ff723b1c199029eee8ddb",
          "vout": 5,
          "scriptSig": {
            "asm": "30450221009d5117fa8acc4c2344585997e5814e9cad213f1365ae6c10e8f456ea6e4fe6ce02204e4d55fb698522dd54196e7383bf762244f2aa2cef0bb6ac68165193e772c373[ALL] 031d1135465b945a22b8dd58f5cb1adc017c65352136c80e71dd5d289f13a49677",
            "hex": "4830450221009d5117fa8acc4c2344585997e5814e9cad213f1365ae6c10e8f456ea6e4fe6ce02204e4d55fb698522dd54196e7383bf762244f2aa2cef0bb6ac68165193e772c3730121031d1135465b945a22b8dd58f5cb1adc017c65352136c80e71dd5d289f13a49677"
          },
          "sequence": 4294967295
        }
      ],
      "vout": [
        {
          "value": 0.01004787,
          "n": 0,
          "scriptPubKey": {
            "asm": "OP_DUP OP_HASH160 7af4e8e2a47788fdda756937d45fa485437a22d5 OP_EQUALVERIFY OP_CHECKSIG",
            "hex": "76a9147af4e8e2a47788fdda756937d45fa485437a22d588ac",
            "reqSigs": 1,
            "type": "pubkeyhash",
            "addresses": [
              "LWS66EwaLN5nDZymEbHaXVaTdystTZYsfT"
            ]
          }
        }, 
        {
          "value": 0.55370902,
          "n": 1,
          "scriptPubKey": {
            "asm": "OP_DUP OP_HASH160 7e2a2ffee21e4146dd42ad1d48675fa7fe1329d1 OP_EQUALVERIFY OP_CHECKSIG",
            "hex": "76a9147e2a2ffee21e4146dd42ad1d48675fa7fe1329d188ac",
            "reqSigs": 1,
            "type": "pubkeyhash",
            "addresses": [
              "LWj3wczUXbTh4QPhX46vyYEn19XmQgi4Ez"
            ]
          }
        }
      ],
      "hex": "01000000025984fe4eeef3c62f4fa2ff651de9e3c44c124cbad2f1a2a9da6c4e801f00aa0c000000006a473044022041f7d7f7d7dbfcb8ef1cd7bbaff8b0c1f7d11633802cde9694f5f9aa220c89b502207792e49f99b49f4cc85f64cf7d12f7276c6b5f8be23db6b1db52105df7deb9d6012103f5b421bf196d9827c3d23c556cace5063f888a67ef687cecdee4639c8ee7844bffffffffdb8dee9e0299c1b123f70f33c38c79f240499340916ed421ac687809a90e56cb050000006b4830450221009d5117fa8acc4c2344585997e5814e9cad213f1365ae6c10e8f456ea6e4fe6ce02204e4d55fb698522dd54196e7383bf762244f2aa2cef0bb6ac68165193e772c3730121031d1135465b945a22b8dd58f5cb1adc017c65352136c80e71dd5d289f13a49677ffffffff02f3540f00000000001976a9147af4e8e2a47788fdda756937d45fa485437a22d588ac96e44c03000000001976a9147e2a2ffee21e4146dd42ad1d48675fa7fe1329d188ac00000000"
    }, 
    {
      "txid": "5b12d023cfa81a9c15661770cac3956e28ac78d84ee54a8938879ab568d3c07e",
      "hash": "5b12d023cfa81a9c15661770cac3956e28ac78d84ee54a8938879ab568d3c07e",
      "version": 1,
      "size": 1281,
      "vsize": 1281,
      "locktime": 1360772,
      "vin": [
        {
          "txid": "5742cd826cabdf2e4662d8a29fc454354880312e2a049e96c5d5ee053edc0e77",
          "vout": 0,
          "scriptSig": {
            "asm": "3044022015340b1cbe25ea02efc51acc8370eb407bab57c5aff6a4601cc045d69b0710c602207c527967d82849f3c324229455b4cdb5df50362736f409aa69dff578ac426a21[ALL] 02bf1d7e4a63fac61abb7f4f765972690940f460f288d1e489179bfbb9c13ba752",
            "hex": "473044022015340b1cbe25ea02efc51acc8370eb407bab57c5aff6a4601cc045d69b0710c602207c527967d82849f3c324229455b4cdb5df50362736f409aa69dff578ac426a21012102bf1d7e4a63fac61abb7f4f765972690940f460f288d1e489179bfbb9c13ba752"
          },
          "sequence": 4294967294
        }, 
        {
          "txid": "3984c5df5846422f04a93443008d2408496a021061a31961ed1803cb16d81381",
          "vout": 1,
          "scriptSig": {
            "asm": "3045022100edf92435918b00b67b286343ae3d91e101ec18b010c14dc2fd3f7ee46336c98202201d5e7db2a222a271b9dcb328c90417638bdbb0a1924fa4a3254925a19439ff17[ALL] 0279d791b644a78a01a468b80570302543f046ebff9d5cd9a8f4bed71c1bd9885e",
            "hex": "483045022100edf92435918b00b67b286343ae3d91e101ec18b010c14dc2fd3f7ee46336c98202201d5e7db2a222a271b9dcb328c90417638bdbb0a1924fa4a3254925a19439ff1701210279d791b644a78a01a468b80570302543f046ebff9d5cd9a8f4bed71c1bd9885e"
          },
          "sequence": 4294967294
        }, 
        {
          "txid": "acb55560f15f0c16b832f9025473b4b78ae22d15332ea5646055e17f00a7d6c6",
          "vout": 1,
          "scriptSig": {
            "asm": "3045022100d9c50351fe0c6298586cb939d647aea0041a1252c3c439df9c83874ff5584e280220600443d5e35ce91fd9f59a5f801420d2ad591361162f1091a7a6bb0e6c969bd1[ALL] 03f7244a32373d6899a2f0e76e409d9232b5018ce36a0b92b80e461258be1fb032",
            "hex": "483045022100d9c50351fe0c6298586cb939d647aea0041a1252c3c439df9c83874ff5584e280220600443d5e35ce91fd9f59a5f801420d2ad591361162f1091a7a6bb0e6c969bd1012103f7244a32373d6899a2f0e76e409d9232b5018ce36a0b92b80e461258be1fb032"
          },
          "sequence": 4294967294
        }, 
        {
          "txid": "b73451d576fa436522e73938d1384e58cba1246c42484342bab2d62e1995e2d8",
          "vout": 2,
          "scriptSig": {
            "asm": "30450221009abd0779997c78ec261bf51fa73fbc51a522f0363ec2136a6952ed9c9b176e2902201e4b73c8b6cc7a80a99ebdb57de213733af60183aa5380e364f06b4688ea02a3[ALL] 03da81a35303e8c9c15a94cbacc527323f33c85efbf6b8dd20ea98fcb4b4c762a8",
            "hex": "4830450221009abd0779997c78ec261bf51fa73fbc51a522f0363ec2136a6952ed9c9b176e2902201e4b73c8b6cc7a80a99ebdb57de213733af60183aa5380e364f06b4688ea02a3012103da81a35303e8c9c15a94cbacc527323f33c85efbf6b8dd20ea98fcb4b4c762a8"
          },
          "sequence": 4294967294
        }, 
        {
          "txid": "eadc3553ea9fad66bbc978276648bf8db63970242805d44519f4ae6441a7b758",
          "vout": 1,
          "scriptSig": {
            "asm": "30440220453a7967bf1cc944e996d5186f3857a4dc8d7d5f9126a51a320472a592c957a4022022cd904d85ce3b6cac7e8842ec303c37a84b77f403414b0f5afe0d1eda1c4359[ALL] 0351c762d3634f929f4fde25c3ed589cfce12e7050efb23046a154862449a40d2b",
            "hex": "4730440220453a7967bf1cc944e996d5186f3857a4dc8d7d5f9126a51a320472a592c957a4022022cd904d85ce3b6cac7e8842ec303c37a84b77f403414b0f5afe0d1eda1c435901210351c762d3634f929f4fde25c3ed589cfce12e7050efb23046a154862449a40d2b"
          },
          "sequence": 4294967294
        }, 
        {
          "txid": "a9a951df9d321ea180e944ffa778e4577fbd35d4f580fd9c21727d9c16bad553",
          "vout": 1,
          "scriptSig": {
            "asm": "304402200b11df48905835945c2504b555f3c5825f99ed38187a79a331ffad9728ccb383022009ce38e540d2d818323e277efa00fe8a0e529235bfd4034a0de599f89876143d[ALL] 039f151f8841ac9f4f18241e2ec074d58ab9887adb3c76ccbd8d87ca86064e11fc",
            "hex": "47304402200b11df48905835945c2504b555f3c5825f99ed38187a79a331ffad9728ccb383022009ce38e540d2d818323e277efa00fe8a0e529235bfd4034a0de599f89876143d0121039f151f8841ac9f4f18241e2ec074d58ab9887adb3c76ccbd8d87ca86064e11fc"
          },
          "sequence": 4294967294
        }, 
        {
          "txid": "10554c70268e1ae8c25e12ebc4252786697413c56638c48301fa73eb1cc66316",
          "vout": 7,
          "scriptSig": {
            "asm": "3045022100e18946fef68e6bd7ebd932452c03998a004d3bcae3e1c62a944138307a95bb9002202788b52e137d469559021e56f2b55f4486077eb17e2acd75cfd2ff626832541c[ALL] 022da5ec5a5dfd477894b98f809ab191c164608f20dd5b2da4b9291b365f345e5b",
            "hex": "483045022100e18946fef68e6bd7ebd932452c03998a004d3bcae3e1c62a944138307a95bb9002202788b52e137d469559021e56f2b55f4486077eb17e2acd75cfd2ff626832541c0121022da5ec5a5dfd477894b98f809ab191c164608f20dd5b2da4b9291b365f345e5b"
          },
          "sequence": 4294967294
        }
      ],
      "vout": [
        {
          "value": 150.65073335,
          "n": 0,
          "scriptPubKey": {
            "asm": "OP_DUP OP_HASH160 f15b57b76c0bab1f8c051f00973f62b9c8f2abfb OP_EQUALVERIFY OP_CHECKSIG",
            "hex": "76a914f15b57b76c0bab1f8c051f00973f62b9c8f2abfb88ac",
            "reqSigs": 1,
            "type": "pubkeyhash",
            "addresses": [
              "LhE8Y3QFhpXrHARgFPkAuTWBNyFonv7Jmk"
            ]
          }
        }, 
        {
          "value": 0.01007434,
          "n": 1,
          "scriptPubKey": {
            "asm": "OP_DUP OP_HASH160 02bf8ff27f98e586b0ced51671984e3fc685fd62 OP_EQUALVERIFY OP_CHECKSIG",
            "hex": "76a91402bf8ff27f98e586b0ced51671984e3fc685fd6288ac",
            "reqSigs": 1,
            "type": "pubkeyhash",
            "addresses": [
              "LKUV6aVKKuDPmdici5UhaJqj3LkzycZ7cB"
            ]
          }
        }, 
        {
          "value": 149.73008266,
          "n": 2,
          "scriptPubKey": {
            "asm": "OP_DUP OP_HASH160 b7138b365d1688346960d470391c93cfe9e71604 OP_EQUALVERIFY OP_CHECKSIG",
            "hex": "76a914b7138b365d1688346960d470391c93cfe9e7160488ac",
            "reqSigs": 1,
            "type": "pubkeyhash",
            "addresses": [
              "LbuyLFA4e5YiDXEZZpuq6PMthJwX4pasP7"
            ]
          }
        }, 
        {
          "value": 26.54540401,
          "n": 3,
          "scriptPubKey": {
            "asm": "OP_DUP OP_HASH160 435ffc235c4b7af29b601f0f346e0e92b6e2aa55 OP_EQUALVERIFY OP_CHECKSIG",
            "hex": "76a914435ffc235c4b7af29b601f0f346e0e92b6e2aa5588ac",
            "reqSigs": 1,
            "type": "pubkeyhash",
            "addresses": [
              "LRNCXDPc5dCM4dvbBrEmV2XB9WHyvACDqu"
            ]
          }
        }, 
        {
          "value": 3.63815736,
          "n": 4,
          "scriptPubKey": {
            "asm": "OP_DUP OP_HASH160 fce248111834f30e51370d47645232e14f21a54d OP_EQUALVERIFY OP_CHECKSIG",
            "hex": "76a914fce248111834f30e51370d47645232e14f21a54d88ac",
            "reqSigs": 1,
            "type": "pubkeyhash",
            "addresses": [
              "LiH5csNXBqFxmAKZcRvyWXX6piTGV58NKx"
            ]
          }
        }, 
        {
          "value": 2.98900000,
          "n": 5,
          "scriptPubKey": {
            "asm": "OP_DUP OP_HASH160 42c2f6e8e125029967377ef99ca71e0d702f2833 OP_EQUALVERIFY OP_CHECKSIG",
            "hex": "76a91442c2f6e8e125029967377ef99ca71e0d702f283388ac",
            "reqSigs": 1,
            "type": "pubkeyhash",
            "addresses": [
              "LRJxRF7XcjAHM758uaVdjyXg5hJEEXLBwB"
            ]
          }
        }, 
        {
          "value": 1.61700000,
          "n": 6,
          "scriptPubKey": {
            "asm": "OP_DUP OP_HASH160 c9a0176210ca85063e1f8f73974a753be30c0bd6 OP_EQUALVERIFY OP_CHECKSIG",
            "hex": "76a914c9a0176210ca85063e1f8f73974a753be30c0bd688ac",
            "reqSigs": 1,
            "type": "pubkeyhash",
            "addresses": [
              "Ldc3s7TqmHKpTgRT5oB3HaL9M7ckGHe1de"
            ]
          }
        }
      ],
      "hex": "0100000007770edc3e05eed5c5969e042a2e3180483554c49fa2d862462edfab6c82cd4257000000006a473044022015340b1cbe25ea02efc51acc8370eb407bab57c5aff6a4601cc045d69b0710c602207c527967d82849f3c324229455b4cdb5df50362736f409aa69dff578ac426a21012102bf1d7e4a63fac61abb7f4f765972690940f460f288d1e489179bfbb9c13ba752feffffff8113d816cb0318ed6119a36110026a4908248d004334a9042f424658dfc58439010000006b483045022100edf92435918b00b67b286343ae3d91e101ec18b010c14dc2fd3f7ee46336c98202201d5e7db2a222a271b9dcb328c90417638bdbb0a1924fa4a3254925a19439ff1701210279d791b644a78a01a468b80570302543f046ebff9d5cd9a8f4bed71c1bd9885efeffffffc6d6a7007fe1556064a52e33152de28ab7b4735402f932b8160c5ff16055b5ac010000006b483045022100d9c50351fe0c6298586cb939d647aea0041a1252c3c439df9c83874ff5584e280220600443d5e35ce91fd9f59a5f801420d2ad591361162f1091a7a6bb0e6c969bd1012103f7244a32373d6899a2f0e76e409d9232b5018ce36a0b92b80e461258be1fb032feffffffd8e295192ed6b2ba424348426c24a1cb584e38d13839e7226543fa76d55134b7020000006b4830450221009abd0779997c78ec261bf51fa73fbc51a522f0363ec2136a6952ed9c9b176e2902201e4b73c8b6cc7a80a99ebdb57de213733af60183aa5380e364f06b4688ea02a3012103da81a35303e8c9c15a94cbacc527323f33c85efbf6b8dd20ea98fcb4b4c762a8feffffff58b7a74164aef41945d40528247039b68dbf48662778c9bb66ad9fea5335dcea010000006a4730440220453a7967bf1cc944e996d5186f3857a4dc8d7d5f9126a51a320472a592c957a4022022cd904d85ce3b6cac7e8842ec303c37a84b77f403414b0f5afe0d1eda1c435901210351c762d3634f929f4fde25c3ed589cfce12e7050efb23046a154862449a40d2bfeffffff53d5ba169c7d72219cfd80f5d435bd7f57e478a7ff44e980a11e329ddf51a9a9010000006a47304402200b11df48905835945c2504b555f3c5825f99ed38187a79a331ffad9728ccb383022009ce38e540d2d818323e277efa00fe8a0e529235bfd4034a0de599f89876143d0121039f151f8841ac9f4f18241e2ec074d58ab9887adb3c76ccbd8d87ca86064e11fcfeffffff1663c61ceb73fa0183c43866c5137469862725c4eb125ec2e81a8e26704c5510070000006b483045022100e18946fef68e6bd7ebd932452c03998a004d3bcae3e1c62a944138307a95bb9002202788b52e137d469559021e56f2b55f4486077eb17e2acd75cfd2ff626832541c0121022da5ec5a5dfd477894b98f809ab191c164608f20dd5b2da4b9291b365f345e5bfeffffff07b7c6f281030000001976a914f15b57b76c0bab1f8c051f00973f62b9c8f2abfb88ac4a5f0f00000000001976a91402bf8ff27f98e586b0ced51671984e3fc685fd6288ac8af9757c030000001976a914b7138b365d1688346960d470391c93cfe9e7160488ac7112399e000000001976a914435ffc235c4b7af29b601f0f346e0e92b6e2aa5588ac3863af15000000001976a914fce248111834f30e51370d47645232e14f21a54d88ac20dad011000000001976a91442c2f6e8e125029967377ef99ca71e0d702f283388aca058a309000000001976a914c9a0176210ca85063e1f8f73974a753be30c0bd688ac84c31400"
    }, 
    {
      "txid": "78bb42c0bf13cbf98fea9e9fc862a6883aef10166e45103810c708b6cb3b7de2",
      "hash": "78bb42c0bf13cbf98fea9e9fc862a6883aef10166e45103810c708b6cb3b7de2",
      "version": 2,
      "size": 370,
      "vsize": 370,
      "locktime": 1360772,
      "vin": [
        {
          "txid": "475ed1a61778e74486953231a6f683cb9af94566bce48d7f050462ba9cb56226",
          "vout": 1,
          "scriptSig": {
            "asm": "304402205dde728202738916a9697d467c128a27c5fb04aa084633359e175383fbbbb7b502203de879a6f7d8052f2ca6988d0eb5ed3e7cc44ac4e1c0de1a5aadbca9894728fd[ALL] 0369926349cd9dbf5508f537167e41f10c8b9f62ec9ee3391d8cedbd60a2154674",
            "hex": "47304402205dde728202738916a9697d467c128a27c5fb04aa084633359e175383fbbbb7b502203de879a6f7d8052f2ca6988d0eb5ed3e7cc44ac4e1c0de1a5aadbca9894728fd01210369926349cd9dbf5508f537167e41f10c8b9f62ec9ee3391d8cedbd60a2154674"
          },
          "sequence": 4294967294
        }, 
        {
          "txid": "ae98b40262afef06613b412a47daae46f3cb838b7ca399a22c2f5bbf6652f61f",
          "vout": 1,
          "scriptSig": {
            "asm": "30440220387a694f9cb65ba174b526839b15ca62181fd3f176641c6781eb65ade2c123f8022050e2907edd4709fec9f907b718e1c8cce4c9c621aba6b2129a3ce054128e15af[ALL] 029b28add505fc6bd1fc06656bc5d50ae1b969c6ff87258e51aea18dd65e7b7992",
            "hex": "4730440220387a694f9cb65ba174b526839b15ca62181fd3f176641c6781eb65ade2c123f8022050e2907edd4709fec9f907b718e1c8cce4c9c621aba6b2129a3ce054128e15af0121029b28add505fc6bd1fc06656bc5d50ae1b969c6ff87258e51aea18dd65e7b7992"
          },
          "sequence": 4294967294
        }
      ],
      "vout": [
        {
          "value": 0.42851011,
          "n": 0,
          "scriptPubKey": {
            "asm": "OP_DUP OP_HASH160 ee8a79b4c1c5d3c5ad07a2d7c319a5f6c6c5909f OP_EQUALVERIFY OP_CHECKSIG",
            "hex": "76a914ee8a79b4c1c5d3c5ad07a2d7c319a5f6c6c5909f88ac",
            "reqSigs": 1,
            "type": "pubkeyhash",
            "addresses": [
              "LgyEyJt8aEvGPweum6JSSVKkT4baZzrpAY"
            ]
          }
        }, 
        {
          "value": 8.57000000,
          "n": 1,
          "scriptPubKey": {
            "asm": "OP_HASH160 a14ad14433b0f4541287538899b978c98cf0556f OP_EQUAL",
            "hex": "a914a14ad14433b0f4541287538899b978c98cf0556f87",
            "reqSigs": 1,
            "type": "scripthash",
            "addresses": [
              "MNbzeiqqrxiRKD2zySNPFvnxuJ179rrf8Z"
            ]
          }
        }
      ],
      "hex": "02000000022662b59cba6204057f8de4bc6645f99acb83f6a63132958644e77817a6d15e47010000006a47304402205dde728202738916a9697d467c128a27c5fb04aa084633359e175383fbbbb7b502203de879a6f7d8052f2ca6988d0eb5ed3e7cc44ac4e1c0de1a5aadbca9894728fd01210369926349cd9dbf5508f537167e41f10c8b9f62ec9ee3391d8cedbd60a2154674feffffff1ff65266bf5b2f2ca299a37c8b83cbf346aeda472a413b6106efaf6202b498ae010000006a4730440220387a694f9cb65ba174b526839b15ca62181fd3f176641c6781eb65ade2c123f8022050e2907edd4709fec9f907b718e1c8cce4c9c621aba6b2129a3ce054128e15af0121029b28add505fc6bd1fc06656bc5d50ae1b969c6ff87258e51aea18dd65e7b7992feffffff02c3da8d02000000001976a914ee8a79b4c1c5d3c5ad07a2d7c319a5f6c6c5909f88ac40c814330000000017a914a14ad14433b0f4541287538899b978c98cf0556f8784c31400"
    }, 
    {
      "txid": "49ffbd1af7a7f6b72577b2aa09b639d229b5d901d19226a523d28e88e0934c22",
      "hash": "49ffbd1af7a7f6b72577b2aa09b639d229b5d901d19226a523d28e88e0934c22",
      "version": 1,
      "size": 225,
      "vsize": 225,
      "locktime": 0,
      "vin": [
        {
          "txid": "bddb6b1f46165b74ad296096676fe0a7311e44d4c439d08046131a9a70fb115d",
          "vout": 24,
          "scriptSig": {
            "asm": "3044022007f79695942500d94c68e14bc6e569761445fb92012b2eed3e228a545a15a7f6022019bff1ae77e072e2041858a194711ff1d660a3e213e1ec0db16b895b2416aea2[ALL] 020cd00885ac299a144bef47852825329b5d5f273e66cf10cda9f559226eef8b5d",
            "hex": "473044022007f79695942500d94c68e14bc6e569761445fb92012b2eed3e228a545a15a7f6022019bff1ae77e072e2041858a194711ff1d660a3e213e1ec0db16b895b2416aea20121020cd00885ac299a144bef47852825329b5d5f273e66cf10cda9f559226eef8b5d"
          },
          "sequence": 4294967295
        }
      ],
      "vout": [
        {
          "value": 23.93524039,
          "n": 0,
          "scriptPubKey": {
            "asm": "OP_DUP OP_HASH160 cabab85870c7493297a327594596e6c28628eaf8 OP_EQUALVERIFY OP_CHECKSIG",
            "hex": "76a914cabab85870c7493297a327594596e6c28628eaf888ac",
            "reqSigs": 1,
            "type": "pubkeyhash",
            "addresses": [
              "LdhtSW7Nrws7YBnivALzbcaM19jtDowqy7"
            ]
          }
        }, 
        {
          "value": 5.28528361,
          "n": 1,
          "scriptPubKey": {
            "asm": "OP_DUP OP_HASH160 774186cfcf31b331da275624070d2ceb94bce570 OP_EQUALVERIFY OP_CHECKSIG",
            "hex": "76a914774186cfcf31b331da275624070d2ceb94bce57088ac",
            "reqSigs": 1,
            "type": "pubkeyhash",
            "addresses": [
              "LW6XAuhV8myKawmgMUhkiLbSs9FoU91D6Y"
            ]
          }
        }
      ],
      "hex": "01000000015d11fb709a1a134680d039c4d4441e31a7e06f67966029ad745b16461f6bdbbd180000006a473044022007f79695942500d94c68e14bc6e569761445fb92012b2eed3e228a545a15a7f6022019bff1ae77e072e2041858a194711ff1d660a3e213e1ec0db16b895b2416aea20121020cd00885ac299a144bef47852825329b5d5f273e66cf10cda9f559226eef8b5dffffffff024747aa8e000000001976a914cabab85870c7493297a327594596e6c28628eaf888ace9b3801f000000001976a914774186cfcf31b331da275624070d2ceb94bce57088ac00000000"
    }, 
    {
      "txid": "d13f5e9000b79e940f702afdbbe4a2cedd130501473b62745c055fd49b675151",
      "hash": "d13f5e9000b79e940f702afdbbe4a2cedd130501473b62745c055fd49b675151",
      "version": 1,
      "size": 225,
      "vsize": 225,
      "locktime": 0,
      "vin": [
        {
          "txid": "f0949d734b1110c9dfae0c1410607b8d7e69a5f4604ae5a59c11f21b37e64ae6",
          "vout": 0,
          "scriptSig": {
            "asm": "3044022100cbe91300c886217c6cc35083173c5a9b316495405e03f8285f016b2acb518340021f2eca03b4e02a470ebad807db76e6a30afaa36f1ded851e7398a9ab62494063[ALL] 03e4b585325e550f8542a965a46175d3f961901d3612e99977c2b623b585a196bc",
            "hex": "473044022100cbe91300c886217c6cc35083173c5a9b316495405e03f8285f016b2acb518340021f2eca03b4e02a470ebad807db76e6a30afaa36f1ded851e7398a9ab62494063012103e4b585325e550f8542a965a46175d3f961901d3612e99977c2b623b585a196bc"
          },
          "sequence": 4294967295
        }
      ],
      "vout": [
        {
          "value": 2.87937638,
          "n": 0,
          "scriptPubKey": {
            "asm": "OP_DUP OP_HASH160 874fd21b2680ceb995ee115000aeea422225975c OP_EQUALVERIFY OP_CHECKSIG",
            "hex": "76a914874fd21b2680ceb995ee115000aeea422225975c88ac",
            "reqSigs": 1,
            "type": "pubkeyhash",
            "addresses": [
              "LXZR79jiSyfSYbmSLAkByXa2Xdf8Ab7iFN"
            ]
          }
        }, 
        {
          "value": 2.78655903,
          "n": 1,
          "scriptPubKey": {
            "asm": "OP_DUP OP_HASH160 6319327ef4a94e9f11bcdcb1ac1f6bd4e5af0ab6 OP_EQUALVERIFY OP_CHECKSIG",
            "hex": "76a9146319327ef4a94e9f11bcdcb1ac1f6bd4e5af0ab688ac",
            "reqSigs": 1,
            "type": "pubkeyhash",
            "addresses": [
              "LUFwLwTpvGpL3DsH6tJEGsQPiQBrZyu4ko"
            ]
          }
        }
      ],
      "hex": "0100000001e64ae6371bf2119ca5e54a60f4a5697e8d7b6010140caedfc910114b739d94f0000000006a473044022100cbe91300c886217c6cc35083173c5a9b316495405e03f8285f016b2acb518340021f2eca03b4e02a470ebad807db76e6a30afaa36f1ded851e7398a9ab62494063012103e4b585325e550f8542a965a46175d3f961901d3612e99977c2b623b585a196bcffffffff0266942911000000001976a914874fd21b2680ceb995ee115000aeea422225975c88ac9ff39b10000000001976a9146319327ef4a94e9f11bcdcb1ac1f6bd4e5af0ab688ac00000000"
    }, 
    {
      "txid": "17b3124e5615faac87a6ea194d29b2faa2e3c3300850e62535a951522768aa82",
      "hash": "17b3124e5615faac87a6ea194d29b2faa2e3c3300850e62535a951522768aa82",
      "version": 1,
      "size": 225,
      "vsize": 225,
      "locktime": 0,
      "vin": [
        {
          "txid": "2bff146e2ea1c8c228e5694c9c013bfa74e9137afd32b8c83457bfcd23ff2b24",
          "vout": 0,
          "scriptSig": {
            "asm": "304402200c8e8d572798bdeffc288ee7f94557fd344d303145d8e5f1c11ff970f07693c3022002c2ac64bdad743d7ed8f93ee8134e5b99e605e8223bb9a796a7ca223d24d787[ALL] 028ca735cd358907f21090ce9ec58998ebcbe066afa8d79c8751f3b0b33185cc8a",
            "hex": "47304402200c8e8d572798bdeffc288ee7f94557fd344d303145d8e5f1c11ff970f07693c3022002c2ac64bdad743d7ed8f93ee8134e5b99e605e8223bb9a796a7ca223d24d7870121028ca735cd358907f21090ce9ec58998ebcbe066afa8d79c8751f3b0b33185cc8a"
          },
          "sequence": 4294967295
        }
      ],
      "vout": [
        {
          "value": 0.39003703,
          "n": 0,
          "scriptPubKey": {
            "asm": "OP_DUP OP_HASH160 ad148ffda88c610abde42c2c0ef3ca4a0a485a05 OP_EQUALVERIFY OP_CHECKSIG",
            "hex": "76a914ad148ffda88c610abde42c2c0ef3ca4a0a485a0588ac",
            "reqSigs": 1,
            "type": "pubkeyhash",
            "addresses": [
              "Lb17o72bi9ECvoFGA82pVv1PMKzvtKtgzA"
            ]
          }
        }, 
        {
          "value": 0.60851297,
          "n": 1,
          "scriptPubKey": {
            "asm": "OP_DUP OP_HASH160 22657a8285f057aad3c52c04c676d4412b6b51e3 OP_EQUALVERIFY OP_CHECKSIG",
            "hex": "76a91422657a8285f057aad3c52c04c676d4412b6b51e388ac",
            "reqSigs": 1,
            "type": "pubkeyhash",
            "addresses": [
              "LNMpob6yBmiGkqdXyrWw93DFFTeywP1vTo"
            ]
          }
        }
      ],
      "hex": "0100000001242bff23cdbf5734c8b832fd7a13e974fa3b019c4c69e528c2c8a12e6e14ff2b000000006a47304402200c8e8d572798bdeffc288ee7f94557fd344d303145d8e5f1c11ff970f07693c3022002c2ac64bdad743d7ed8f93ee8134e5b99e605e8223bb9a796a7ca223d24d7870121028ca735cd358907f21090ce9ec58998ebcbe066afa8d79c8751f3b0b33185cc8affffffff0237265302000000001976a914ad148ffda88c610abde42c2c0ef3ca4a0a485a0588ac6184a003000000001976a91422657a8285f057aad3c52c04c676d4412b6b51e388ac00000000"
    }, 
    {
      "txid": "5a16ea3a48ba68a8e0d789ddd8aae3926a5a2e02bd31ca1733538cc2f62211ef",
      "hash": "5a16ea3a48ba68a8e0d789ddd8aae3926a5a2e02bd31ca1733538cc2f62211ef",
      "version": 1,
      "size": 225,
      "vsize": 225,
      "locktime": 0,
      "vin": [
        {
          "txid": "9d4330e91f7c3a99489eda578f3e670e21665561219e1c93c8bdc37ccdcf4973",
          "vout": 0,
          "scriptSig": {
            "asm": "304402200e54db677af0851a9e67ebb78188b5298c43f2f269b41b9df3ed2235cedbe7e502203b1f0a35dc27517e0b5bfc469e28b51161b7ec1ded052ba4571e77934e3fe431[ALL] 0226fd4baa64d4c214fd417ab51c6cc04fe1f0bdb2a154d35250eadbf2f9a6470d",
            "hex": "47304402200e54db677af0851a9e67ebb78188b5298c43f2f269b41b9df3ed2235cedbe7e502203b1f0a35dc27517e0b5bfc469e28b51161b7ec1ded052ba4571e77934e3fe43101210226fd4baa64d4c214fd417ab51c6cc04fe1f0bdb2a154d35250eadbf2f9a6470d"
          },
          "sequence": 4294967295
        }
      ],
      "vout": [
        {
          "value": 0.19564768,
          "n": 0,
          "scriptPubKey": {
            "asm": "OP_DUP OP_HASH160 12ac1445fc5afcf0b336d729fe3c349bc7736308 OP_EQUALVERIFY OP_CHECKSIG",
            "hex": "76a91412ac1445fc5afcf0b336d729fe3c349bc773630888ac",
            "reqSigs": 1,
            "type": "pubkeyhash",
            "addresses": [
              "LLvgZwMKQW2hefvdg3sDc2m8cvtrsMeyGq"
            ]
          }
        }, 
        {
          "value": 1.25905632,
          "n": 1,
          "scriptPubKey": {
            "asm": "OP_DUP OP_HASH160 aae12bccd4600acd12f697eb7cacc5e35ddd4270 OP_EQUALVERIFY OP_CHECKSIG",
            "hex": "76a914aae12bccd4600acd12f697eb7cacc5e35ddd427088ac",
            "reqSigs": 1,
            "type": "pubkeyhash",
            "addresses": [
              "LaoUsz9TCxd3bYPWvTVZ1YnPp2HB9MKyPc"
            ]
          }
        }
      ],
      "hex": "01000000017349cfcd7cc3bdc8931c9e21615566210e673e8f57da9e48993a7c1fe930439d000000006a47304402200e54db677af0851a9e67ebb78188b5298c43f2f269b41b9df3ed2235cedbe7e502203b1f0a35dc27517e0b5bfc469e28b51161b7ec1ded052ba4571e77934e3fe43101210226fd4baa64d4c214fd417ab51c6cc04fe1f0bdb2a154d35250eadbf2f9a6470dffffffff02e0882a01000000001976a91412ac1445fc5afcf0b336d729fe3c349bc773630888ace02a8107000000001976a914aae12bccd4600acd12f697eb7cacc5e35ddd427088ac00000000"
    }, 
    {
      "txid": "7e987b1112cbf11b9238295b0fe7677f350fd011aab949dc23df340db1cfc616",
      "hash": "7e987b1112cbf11b9238295b0fe7677f350fd011aab949dc23df340db1cfc616",
      "version": 2,
      "size": 226,
      "vsize": 226,
      "locktime": 1360772,
      "vin": [
        {
          "txid": "17be96fe400b3fdb42cd84c9705b34636b2249ea9be28f5202d5c234549d8838",
          "vout": 3,
          "scriptSig": {
            "asm": "3045022100c3c458fc6ea11b05ac7d0a05e9db595a283c8f2b523302b3a5c6e5005cd29e1f02204e656f3c68a0abcb96645193b330391ea42bfda67e73444a972ed460d62e874a[ALL] 020a1e7c4fe6646ca96ef0c99842ed20b8457d3432ef56806f22a82cc118634505",
            "hex": "483045022100c3c458fc6ea11b05ac7d0a05e9db595a283c8f2b523302b3a5c6e5005cd29e1f02204e656f3c68a0abcb96645193b330391ea42bfda67e73444a972ed460d62e874a0121020a1e7c4fe6646ca96ef0c99842ed20b8457d3432ef56806f22a82cc118634505"
          },
          "sequence": 4294967294
        }
      ],
      "vout": [
        {
          "value": 5.53000000,
          "n": 0,
          "scriptPubKey": {
            "asm": "OP_DUP OP_HASH160 277ba8f59aca426aef1c460e229ba48d726e4a72 OP_EQUALVERIFY OP_CHECKSIG",
            "hex": "76a914277ba8f59aca426aef1c460e229ba48d726e4a7288ac",
            "reqSigs": 1,
            "type": "pubkeyhash",
            "addresses": [
              "LNpikjyD7Uxr2zW8YU1gwVQDcuP2ZEApWi"
            ]
          }
        }, 
        {
          "value": 0.57384100,
          "n": 1,
          "scriptPubKey": {
            "asm": "OP_DUP OP_HASH160 a540a5265dc84357683798fd06e01aef0db3010c OP_EQUALVERIFY OP_CHECKSIG",
            "hex": "76a914a540a5265dc84357683798fd06e01aef0db3010c88ac",
            "reqSigs": 1,
            "type": "pubkeyhash",
            "addresses": [
              "LaHjCVAnCE3UfVA5wsq8wRrYqAEyCpCRHA"
            ]
          }
        }
      ],
      "hex": "020000000138889d5434c2d502528fe29bea49226b63345b70c984cd42db3f0b40fe96be17030000006b483045022100c3c458fc6ea11b05ac7d0a05e9db595a283c8f2b523302b3a5c6e5005cd29e1f02204e656f3c68a0abcb96645193b330391ea42bfda67e73444a972ed460d62e874a0121020a1e7c4fe6646ca96ef0c99842ed20b8457d3432ef56806f22a82cc118634505feffffff02401cf620000000001976a914277ba8f59aca426aef1c460e229ba48d726e4a7288aca49c6b03000000001976a914a540a5265dc84357683798fd06e01aef0db3010c88ac84c31400"
    }, 
    {
      "txid": "0075a78a5b83e79eed3974b2b9206b696553bc4b3f706c3ff3a127f4d7af251a",
      "hash": "0075a78a5b83e79eed3974b2b9206b696553bc4b3f706c3ff3a127f4d7af251a",
      "version": 2,
      "size": 226,
      "vsize": 226,
      "locktime": 1360772,
      "vin": [
        {
          "txid": "3df798d94e56c6723ed3ccbbc454ad063ec04c64b46dd31137a747113a969e87",
          "vout": 0,
          "scriptSig": {
            "asm": "3045022100df19a7a6f3d44fc1c9a15824324d0f8cc98dad8d2dc2229b220bc2dc3f5ae6cc02202ecd0f8b91702118f3e7b3c4c1267df98008a444e79aa520d86c9ef3fa523f08[ALL] 0253a9326b17253ff5c40be6eb564d4a029b98daaff6741f69b0e645a19fc9bc2f",
            "hex": "483045022100df19a7a6f3d44fc1c9a15824324d0f8cc98dad8d2dc2229b220bc2dc3f5ae6cc02202ecd0f8b91702118f3e7b3c4c1267df98008a444e79aa520d86c9ef3fa523f0801210253a9326b17253ff5c40be6eb564d4a029b98daaff6741f69b0e645a19fc9bc2f"
          },
          "sequence": 4294967294
        }
      ],
      "vout": [
        {
          "value": 59.96440000,
          "n": 0,
          "scriptPubKey": {
            "asm": "OP_DUP OP_HASH160 d03d3a03484a9169d16755726ddee8c85c8bf106 OP_EQUALVERIFY OP_CHECKSIG",
            "hex": "76a914d03d3a03484a9169d16755726ddee8c85c8bf10688ac",
            "reqSigs": 1,
            "type": "pubkeyhash",
            "addresses": [
              "LeD2ADL1C5CngwRkJFELbV134HTADU68Ah"
            ]
          }
        }, 
        {
          "value": 262.37442800,
          "n": 1,
          "scriptPubKey": {
            "asm": "OP_DUP OP_HASH160 280f39d312045228fabd592764b2f4b7957d3de1 OP_EQUALVERIFY OP_CHECKSIG",
            "hex": "76a914280f39d312045228fabd592764b2f4b7957d3de188ac",
            "reqSigs": 1,
            "type": "pubkeyhash",
            "addresses": [
              "LNsmXoH6fLR3tkRaNw1LYHR3TEVsyR2uwh"
            ]
          }
        }
      ],
      "hex": "0200000001879e963a1147a73711d36db4644cc03e06ad54c4bbccd33e72c6564ed998f73d000000006b483045022100df19a7a6f3d44fc1c9a15824324d0f8cc98dad8d2dc2229b220bc2dc3f5ae6cc02202ecd0f8b91702118f3e7b3c4c1267df98008a444e79aa520d86c9ef3fa523f0801210253a9326b17253ff5c40be6eb564d4a029b98daaff6741f69b0e645a19fc9bc2ffeffffff02c0696a65010000001976a914d03d3a03484a9169d16755726ddee8c85c8bf10688acf09adf1b060000001976a914280f39d312045228fabd592764b2f4b7957d3de188ac84c31400"
    }, 
    {
      "txid": "3da8bd3be3f322b0743c6f18f61b5ab48fac4fed11be37f302c89a56b125b07d",
      "hash": "3da8bd3be3f322b0743c6f18f61b5ab48fac4fed11be37f302c89a56b125b07d",
      "version": 1,
      "size": 224,
      "vsize": 224,
      "locktime": 0,
      "vin": [
        {
          "txid": "6a2331dc2ff168c62cdfd85e546ffb0b70abe1228b092382342e672ff37c4a09",
          "vout": 0,
          "scriptSig": {
            "asm": "30450221008fcd936b362e9c01681ba3b57264ea3b94b823dd91fe0d88103a0507f4e1c6aa022025e13839e0abb3e8bf2873d633bcd1100347cff16731bea0569fd71cc5c3f985[ALL] 02e7031abfa07d81dd00b2a06a6c0c32b874b5839cf64cf7c6b50d5d8c7f845ce5",
            "hex": "4830450221008fcd936b362e9c01681ba3b57264ea3b94b823dd91fe0d88103a0507f4e1c6aa022025e13839e0abb3e8bf2873d633bcd1100347cff16731bea0569fd71cc5c3f985012102e7031abfa07d81dd00b2a06a6c0c32b874b5839cf64cf7c6b50d5d8c7f845ce5"
          },
          "sequence": 4294967295
        }
      ],
      "vout": [
        {
          "value": 0.10672496,
          "n": 0,
          "scriptPubKey": {
            "asm": "OP_HASH160 600010b5a0f6ea9f88df620d7d6d79b2ad967360 OP_EQUAL",
            "hex": "a914600010b5a0f6ea9f88df620d7d6d79b2ad96736087",
            "reqSigs": 1,
            "type": "scripthash",
            "addresses": [
              "MGemBP46XD7bAsbJSHnYdCjAsDUXvo7qCm"
            ]
          }
        }, 
        {
          "value": 0.00074032,
          "n": 1,
          "scriptPubKey": {
            "asm": "OP_DUP OP_HASH160 e50779e9b10cce73d8b46d985ac6b93e0c9c35e7 OP_EQUALVERIFY OP_CHECKSIG",
            "hex": "76a914e50779e9b10cce73d8b46d985ac6b93e0c9c35e788ac",
            "reqSigs": 1,
            "type": "pubkeyhash",
            "addresses": [
              "Lg6wxbhxHPqWtPphcuvBVRQzm2CpsgN9x3"
            ]
          }
        }
      ],
      "hex": "0100000001094a7cf32f672e348223098b22e1ab700bfb6f545ed8df2cc668f12fdc31236a000000006b4830450221008fcd936b362e9c01681ba3b57264ea3b94b823dd91fe0d88103a0507f4e1c6aa022025e13839e0abb3e8bf2873d633bcd1100347cff16731bea0569fd71cc5c3f985012102e7031abfa07d81dd00b2a06a6c0c32b874b5839cf64cf7c6b50d5d8c7f845ce5ffffffff0270d9a2000000000017a914600010b5a0f6ea9f88df620d7d6d79b2ad9673608730210100000000001976a914e50779e9b10cce73d8b46d985ac6b93e0c9c35e788ac00000000"
    }, 
    {
      "txid": "0e84423199c71eb73e40fb5e07c19d8aaa91fe8a0ed716f827ed5cd6da285fa4",
      "hash": "0e84423199c71eb73e40fb5e07c19d8aaa91fe8a0ed716f827ed5cd6da285fa4",
      "version": 1,
      "size": 226,
      "vsize": 226,
      "locktime": 0,
      "vin": [
        {
          "txid": "a52817512e69cdaae034f07f6ad3766fef150aa083883f0eecaf53f4a1dc7a36",
          "vout": 0,
          "scriptSig": {
            "asm": "3045022100e02a29ba0df1d5ad724a7edfeb27747aaa44a3ffd7ad06a1a9baebb2d79432b5022047edacdd74d2088452984acc479e632499a071178ca274d02607a31fb5b0cde6[ALL] 03bfae3f16301c20c03efe61a4569029987f2ac8a9811da3de3ba4a4702f8ed451",
            "hex": "483045022100e02a29ba0df1d5ad724a7edfeb27747aaa44a3ffd7ad06a1a9baebb2d79432b5022047edacdd74d2088452984acc479e632499a071178ca274d02607a31fb5b0cde6012103bfae3f16301c20c03efe61a4569029987f2ac8a9811da3de3ba4a4702f8ed451"
          },
          "sequence": 4294967295
        }
      ],
      "vout": [
        {
          "value": 18.17417018,
          "n": 0,
          "scriptPubKey": {
            "asm": "OP_DUP OP_HASH160 bc806cfe46626fc67a50c99a4dbfe9fee3467210 OP_EQUALVERIFY OP_CHECKSIG",
            "hex": "76a914bc806cfe46626fc67a50c99a4dbfe9fee346721088ac",
            "reqSigs": 1,
            "type": "pubkeyhash",
            "addresses": [
              "LcQf9TLwBCwWJC8Lg4p8D7WuP7vJeArBeA"
            ]
          }
        }, 
        {
          "value": 1.75977399,
          "n": 1,
          "scriptPubKey": {
            "asm": "OP_DUP OP_HASH160 aef4112d959a8e154edebdfabe1e27afe42686bc OP_EQUALVERIFY OP_CHECKSIG",
            "hex": "76a914aef4112d959a8e154edebdfabe1e27afe42686bc88ac",
            "reqSigs": 1,
            "type": "pubkeyhash",
            "addresses": [
              "LbB2DfscgTyCVKrJgWWxCKzahWyAd58Co6"
            ]
          }
        }
      ],
      "hex": "0100000001367adca1f453afec0e3f8883a00a15ef6f76d36a7ff034e0aacd692e511728a5000000006b483045022100e02a29ba0df1d5ad724a7edfeb27747aaa44a3ffd7ad06a1a9baebb2d79432b5022047edacdd74d2088452984acc479e632499a071178ca274d02607a31fb5b0cde6012103bfae3f16301c20c03efe61a4569029987f2ac8a9811da3de3ba4a4702f8ed451ffffffff023a95536c000000001976a914bc806cfe46626fc67a50c99a4dbfe9fee346721088acb7337d0a000000001976a914aef4112d959a8e154edebdfabe1e27afe42686bc88ac00000000"
    }
  ],
  "time": 1517479608,
  "mediantime": 1517479183,
  "nonce": 594990137,
  "bits": "1a042eae",
  "difficulty": 4011378.762614286,
  "chainwork": "00000000000000000000000000000000000000000000003540b2784739abf68e",
  "previousblockhash": "272b28adf144b444afbba49c2b70663f2b22a1b33475afdf7259fef22e32b55b",
  "nextblockhash": "9e8067e423d85257dd2801ce04a0767c89a34c3b320a01ee3f92ea08855b9260"
}
