{
  "hash": "84a9466a408d21d4a08c54d9e39573863f0e9c6641a5ae0e723d1594b6165f0a",
  "confirmations": 922,
  "strippedsize": 255,
  "size": 255,
  "weight": 1020,
  "height": 1360072,
  "version": 536870912,
  "versionHex": "20000000",
  "merkleroot": "fcdd7e7f5af00bb58357469e564b7222840f3f40c0d41e4d2ade06a2588db3ba",
  "tx": [
    {
      "txid": "fcdd7e7f5af00bb58357469e564b7222840f3f40c0d41e4d2ade06a2588db3ba",
      "hash": "fcdd7e7f5af00bb58357469e564b7222840f3f40c0d41e4d2ade06a2588db3ba",
      "version": 1,
      "size": 174,
      "vsize": 174,
      "locktime": 0,
      "vin": [
        {
          "coinbase": "03c8c0141c4d696e656420627920416e74506f6f6c20626a3532205a713a220d81fabe6d6d1f50956532f4749bd8b1efc5f1786797fdd13e904128d9c28d9c7822d9f57bb804000000000000006d020000000000000e000000",
          "sequence": 4294967295
        }
      ],
      "vout": [
        {
          "value": 25.00000000,
          "n": 0,
          "scriptPubKey": {
            "asm": "OP_DUP OP_HASH160 0ff3ccc5e8be88afe24b5d634e5852d474dbdff1 OP_EQUALVERIFY OP_CHECKSIG",
            "hex": "76a9140ff3ccc5e8be88afe24b5d634e5852d474dbdff188ac",
            "reqSigs": 1,
            "type": "pubkeyhash",
            "addresses": [
              "LLgJTbzZMsRTCUF1NtvvL9SR1a4pVieW89"
            ]
          }
        }
      ],
      "hex": "01000000010000000000000000000000000000000000000000000000000000000000000000ffffffff5903c8c0141c4d696e656420627920416e74506f6f6c20626a3532205a713a220d81fabe6d6d1f50956532f4749bd8b1efc5f1786797fdd13e904128d9c28d9c7822d9f57bb804000000000000006d020000000000000e000000ffffffff0100f90295000000001976a9140ff3ccc5e8be88afe24b5d634e5852d474dbdff188ac00000000"
    }
  ],
  "time": 1517369890,
  "mediantime": 1517369624,
  "nonce": 3173198098,
  "bits": "1a042eae",
  "difficulty": 4011378.762614286,
  "chainwork": "00000000000000000000000000000000000000000000003498d93fbaa62f2412",
  "previousblockhash": "520b24d875b53df231d7ee0f280e5b48d7e50eb5458b737d957573e2e825e867",
  "nextblockhash": "e0ce9c5e03dec3b294cab9364c05614f58bf0e22e31561a05388b81fa1e60f2a"
}
