{
  "hash": "850500cc34df4f6658f891f81d497d41e2161d203121386d01870eaabbcb7733",
  "confirmations": 1529,
  "strippedsize": 4829,
  "size": 5086,
  "weight": 19573,
  "height": 1359465,
  "version": 536870912,
  "versionHex": "20000000",
  "merkleroot": "d47ea28f2df27a61ec07b8d0accd31dfcbdb9663199a718da22a0bd4ab61f281",
  "tx": [
    {
      "txid": "e7de60d8ef99e8c7344ffac547a5f243787afdd55473d4bc1a5e5dd785f0576e",
      "hash": "040b76343dd10bbbabd59f90acb14aa32694b37fb89c29fc846ff3fb0c67769c",
      "version": 1,
      "size": 257,
      "vsize": 230,
      "locktime": 0,
      "vin": [
        {
          "coinbase": "0369be14204d696e656420627920474956452d4d452d434f494e532e636f6d5a6ff43d3000fabe6d6d86b0b8a296b02d9691abd580d1585910d2ce2eb53a2e657716d9e3fe256eb14c0800000000000000530000008000c6a0",
          "sequence": 4294967295
        }
      ],
      "vout": [
        {
          "value": 25.00752425,
          "n": 0,
          "scriptPubKey": {
            "asm": "OP_DUP OP_HASH160 819c78ab0b69f30c8f652e5496bc4ed568af53dc OP_EQUALVERIFY OP_CHECKSIG",
            "hex": "76a914819c78ab0b69f30c8f652e5496bc4ed568af53dc88ac",
            "reqSigs": 1,
            "type": "pubkeyhash",
            "addresses": [
              "LX3GsnBa9RYgLFKRyS7NDK26J9shCWBqmA"
            ]
          }
        }, 
        {
          "value": 0.00000000,
          "n": 1,
          "scriptPubKey": {
            "asm": "OP_RETURN aa21a9edd9f505cc2ae89792ab0f24b32900dbd09ba70e506ede6bae6264334d9d7c6129",
            "hex": "6a24aa21a9edd9f505cc2ae89792ab0f24b32900dbd09ba70e506ede6bae6264334d9d7c6129",
            "type": "nulldata"
          }
        }
      ],
      "hex": "010000000001010000000000000000000000000000000000000000000000000000000000000000ffffffff590369be14204d696e656420627920474956452d4d452d434f494e532e636f6d5a6ff43d3000fabe6d6d86b0b8a296b02d9691abd580d1585910d2ce2eb53a2e657716d9e3fe256eb14c0800000000000000530000008000c6a0ffffffff0229740e95000000001976a914819c78ab0b69f30c8f652e5496bc4ed568af53dc88ac0000000000000000266a24aa21a9edd9f505cc2ae89792ab0f24b32900dbd09ba70e506ede6bae6264334d9d7c61290120000000000000000000000000000000000000000000000000000000000000000000000000"
    }, 
    {
      "txid": "5c45358b056bd8f12bf4b5ab7d9ceed815bbde0eeb99f4f9f28f4f1749157a9d",
      "hash": "5c45358b056bd8f12bf4b5ab7d9ceed815bbde0eeb99f4f9f28f4f1749157a9d",
      "version": 1,
      "size": 225,
      "vsize": 225,
      "locktime": 0,
      "vin": [
        {
          "txid": "a81d44de9533e86655aca622dec14204dd052bfaba4d8c470a111c17c38a1405",
          "vout": 1,
          "scriptSig": {
            "asm": "304402207872a86f2b783fb97d34422ecc00c4799c51da6eec1281b3c7eae2a7804bc8fd02201cd298ecdb7ea62343aa3be880d52ae5faf8faac23ca79de0388143bb8a54ff2[ALL] 0328c9ae635abf580c261c44815dc1aac309e16ff26250525b7e99951369d2b8c7",
            "hex": "47304402207872a86f2b783fb97d34422ecc00c4799c51da6eec1281b3c7eae2a7804bc8fd02201cd298ecdb7ea62343aa3be880d52ae5faf8faac23ca79de0388143bb8a54ff201210328c9ae635abf580c261c44815dc1aac309e16ff26250525b7e99951369d2b8c7"
          },
          "sequence": 4294967295
        }
      ],
      "vout": [
        {
          "value": 0.12508477,
          "n": 0,
          "scriptPubKey": {
            "asm": "OP_DUP OP_HASH160 87cce550286e057f07e0192bbfc84a030cc806d6 OP_EQUALVERIFY OP_CHECKSIG",
            "hex": "76a91487cce550286e057f07e0192bbfc84a030cc806d688ac",
            "reqSigs": 1,
            "type": "pubkeyhash",
            "addresses": [
              "LXbzwWvUk6TSfQUiNgWzaB6yRvSppfXBSh"
            ]
          }
        }, 
        {
          "value": 3.91135340,
          "n": 1,
          "scriptPubKey": {
            "asm": "OP_DUP OP_HASH160 c6e3836c2f4cd8f9c53e32813ded99ac0ce001f1 OP_EQUALVERIFY OP_CHECKSIG",
            "hex": "76a914c6e3836c2f4cd8f9c53e32813ded99ac0ce001f188ac",
            "reqSigs": 1,
            "type": "pubkeyhash",
            "addresses": [
              "LdMac6qdwFnBCVXN96dvoPjzbcE36gzs64"
            ]
          }
        }
      ],
      "hex": "010000000105148ac3171c110a478c4dbafa2b05dd0442c1de22a6ac5566e83395de441da8010000006a47304402207872a86f2b783fb97d34422ecc00c4799c51da6eec1281b3c7eae2a7804bc8fd02201cd298ecdb7ea62343aa3be880d52ae5faf8faac23ca79de0388143bb8a54ff201210328c9ae635abf580c261c44815dc1aac309e16ff26250525b7e99951369d2b8c7ffffffff023dddbe00000000001976a91487cce550286e057f07e0192bbfc84a030cc806d688ac6c405017000000001976a914c6e3836c2f4cd8f9c53e32813ded99ac0ce001f188ac00000000"
    }, 
    {
      "txid": "20e73393addf26962f164c7aef66b7b3bddf2729536ebd9415bab83882677dfb",
      "hash": "20e73393addf26962f164c7aef66b7b3bddf2729536ebd9415bab83882677dfb",
      "version": 1,
      "size": 226,
      "vsize": 226,
      "locktime": 0,
      "vin": [
        {
          "txid": "330ec445767085e3e1296297ddc55899f83d3ec91e079dee6d18acd188c991e9",
          "vout": 1,
          "scriptSig": {
            "asm": "30450221009fc35810ec23270fca2fd6426e3bcc5be71a2ed73ce2321cc7ec7f96edc2d9700220144207fae93d794b5ac1761bf72d9b4f0e8a7ef981518765e5518207da4321c9[ALL] 036502691a02a6d9e54c1bc3303b8f46c6aa2f4b891021d61bf5e2a967f48f493a",
            "hex": "4830450221009fc35810ec23270fca2fd6426e3bcc5be71a2ed73ce2321cc7ec7f96edc2d9700220144207fae93d794b5ac1761bf72d9b4f0e8a7ef981518765e5518207da4321c90121036502691a02a6d9e54c1bc3303b8f46c6aa2f4b891021d61bf5e2a967f48f493a"
          },
          "sequence": 4294967295
        }
      ],
      "vout": [
        {
          "value": 1.06000000,
          "n": 0,
          "scriptPubKey": {
            "asm": "OP_DUP OP_HASH160 83489448046bc68375e3fadf1fd2b4766657212a OP_EQUALVERIFY OP_CHECKSIG",
            "hex": "76a91483489448046bc68375e3fadf1fd2b4766657212a88ac",
            "reqSigs": 1,
            "type": "pubkeyhash",
            "addresses": [
              "LXC7jEd66tceoo8G1EgXjC5DC44HRNEesD"
            ]
          }
        }, 
        {
          "value": 0.00662331,
          "n": 1,
          "scriptPubKey": {
            "asm": "OP_DUP OP_HASH160 7983114266dd6f747d54442fce1f81e1c798fbe8 OP_EQUALVERIFY OP_CHECKSIG",
            "hex": "76a9147983114266dd6f747d54442fce1f81e1c798fbe888ac",
            "reqSigs": 1,
            "type": "pubkeyhash",
            "addresses": [
              "LWJT39ZdyZHZCpAYbbiiwNu78pb76szGqo"
            ]
          }
        }
      ],
      "hex": "0100000001e991c988d1ac186dee9d071ec93e3df89958c5dd976229e1e385707645c40e33010000006b4830450221009fc35810ec23270fca2fd6426e3bcc5be71a2ed73ce2321cc7ec7f96edc2d9700220144207fae93d794b5ac1761bf72d9b4f0e8a7ef981518765e5518207da4321c90121036502691a02a6d9e54c1bc3303b8f46c6aa2f4b891021d61bf5e2a967f48f493affffffff02806e5106000000001976a91483489448046bc68375e3fadf1fd2b4766657212a88ac3b1b0a00000000001976a9147983114266dd6f747d54442fce1f81e1c798fbe888ac00000000"
    }, 
    {
      "txid": "06e583e665225dd5defab2411222c09844e5b4ff7d5e3223551b24884b5a0322",
      "hash": "06e583e665225dd5defab2411222c09844e5b4ff7d5e3223551b24884b5a0322",
      "version": 1,
      "size": 226,
      "vsize": 226,
      "locktime": 0,
      "vin": [
        {
          "txid": "62cced0a6f856f77ed162862b392f4a0a7cbab28f213e3ba8c37df922be25ad3",
          "vout": 0,
          "scriptSig": {
            "asm": "3045022100d4939dd073d893c2bd5b11e27970ff4b757b52a611ccbef31c09bed139027e3e02203687a26bebec28d91c00387d8256e5ae6d845b1b7fb47baf0fb0601101d9061b[ALL] 026e559d6e705960506b52e7e83d1a33e4e59666ef8add4525e2f2733e9f83be46",
            "hex": "483045022100d4939dd073d893c2bd5b11e27970ff4b757b52a611ccbef31c09bed139027e3e02203687a26bebec28d91c00387d8256e5ae6d845b1b7fb47baf0fb0601101d9061b0121026e559d6e705960506b52e7e83d1a33e4e59666ef8add4525e2f2733e9f83be46"
          },
          "sequence": 4294967295
        }
      ],
      "vout": [
        {
          "value": 92.65197133,
          "n": 0,
          "scriptPubKey": {
            "asm": "OP_DUP OP_HASH160 49dd50238382bd931f2b8995e7e061b64e11297c OP_EQUALVERIFY OP_CHECKSIG",
            "hex": "76a91449dd50238382bd931f2b8995e7e061b64e11297c88ac",
            "reqSigs": 1,
            "type": "pubkeyhash",
            "addresses": [
              "LRxWiKJVxPBsU93ZAmP9Fz5d48pPVViRCA"
            ]
          }
        }, 
        {
          "value": 2.11193576,
          "n": 1,
          "scriptPubKey": {
            "asm": "OP_DUP OP_HASH160 5f8b2b062ad5857eec4e25911b041b8d88a1b47b OP_EQUALVERIFY OP_CHECKSIG",
            "hex": "76a9145f8b2b062ad5857eec4e25911b041b8d88a1b47b88ac",
            "reqSigs": 1,
            "type": "pubkeyhash",
            "addresses": [
              "LTw9B19niur2bK1uUrwpD1KH4A4n38uL6g"
            ]
          }
        }
      ],
      "hex": "0100000001d35ae22b92df378cbae313f228abcba7a0f492b3622816ed776f856f0aedcc62000000006b483045022100d4939dd073d893c2bd5b11e27970ff4b757b52a611ccbef31c09bed139027e3e02203687a26bebec28d91c00387d8256e5ae6d845b1b7fb47baf0fb0601101d9061b0121026e559d6e705960506b52e7e83d1a33e4e59666ef8add4525e2f2733e9f83be46ffffffff024db03f28020000001976a91449dd50238382bd931f2b8995e7e061b64e11297c88ace88e960c000000001976a9145f8b2b062ad5857eec4e25911b041b8d88a1b47b88ac00000000"
    }, 
    {
      "txid": "b5820055621737916bf3c87b46c1f0ceb0ac00e6e67cd10c8ecb8dbf9c7ee6e9",
      "hash": "b5820055621737916bf3c87b46c1f0ceb0ac00e6e67cd10c8ecb8dbf9c7ee6e9",
      "version": 1,
      "size": 225,
      "vsize": 225,
      "locktime": 0,
      "vin": [
        {
          "txid": "77a2f935ebbd788cb669795f9479ddb3988cfb8dbdb95b0ae3ae74a43f1dd6ef",
          "vout": 0,
          "scriptSig": {
            "asm": "3044022059df1ee6fef781d2e88aafa1ae603dc2ab16dcb9bf0cc1e30a6372c801c76d8a0220187d5c8e7073063dc4ff87a0e488b4339a954dbea5719afcbd939cb0ff96bf69[ALL] 0384a9a36de00797765bb8cbd04dabb5aa68695b13ab3d76e64a85d79f0c76db7f",
            "hex": "473044022059df1ee6fef781d2e88aafa1ae603dc2ab16dcb9bf0cc1e30a6372c801c76d8a0220187d5c8e7073063dc4ff87a0e488b4339a954dbea5719afcbd939cb0ff96bf6901210384a9a36de00797765bb8cbd04dabb5aa68695b13ab3d76e64a85d79f0c76db7f"
          },
          "sequence": 4294967295
        }
      ],
      "vout": [
        {
          "value": 56.09421853,
          "n": 0,
          "scriptPubKey": {
            "asm": "OP_DUP OP_HASH160 8a4fd1372b1dd683fede7d68f2332fae2e9c9f71 OP_EQUALVERIFY OP_CHECKSIG",
            "hex": "76a9148a4fd1372b1dd683fede7d68f2332fae2e9c9f7188ac",
            "reqSigs": 1,
            "type": "pubkeyhash",
            "addresses": [
              "LXqH8V6ZtsHBrURFbVxHR59KA24qcdosN3"
            ]
          }
        }, 
        {
          "value": 18.85060000,
          "n": 1,
          "scriptPubKey": {
            "asm": "OP_DUP OP_HASH160 56cc560fa4bb0f565f9d2b554556501db490e960 OP_EQUALVERIFY OP_CHECKSIG",
            "hex": "76a91456cc560fa4bb0f565f9d2b554556501db490e96088ac",
            "reqSigs": 1,
            "type": "pubkeyhash",
            "addresses": [
              "LT8uAEh28iRBAqwLP9zamRLit5SoNs5QQa"
            ]
          }
        }
      ],
      "hex": "0100000001efd61d3fa474aee30a5bb9bd8dfb8c98b3dd79945f7969b68c78bdeb35f9a277000000006a473044022059df1ee6fef781d2e88aafa1ae603dc2ab16dcb9bf0cc1e30a6372c801c76d8a0220187d5c8e7073063dc4ff87a0e488b4339a954dbea5719afcbd939cb0ff96bf6901210384a9a36de00797765bb8cbd04dabb5aa68695b13ab3d76e64a85d79f0c76db7fffffffff021dfc584e010000001976a9148a4fd1372b1dd683fede7d68f2332fae2e9c9f7188aca0bb5b70000000001976a91456cc560fa4bb0f565f9d2b554556501db490e96088ac00000000"
    }, 
    {
      "txid": "d38631ced6bf63d92f4593a078cf4ee4e937b39fce6e67935e4cb19b799d4ef1",
      "hash": "e3b3de331d75ef823e8635981e374f80e3ed790796caa84c9831f0d291e64565",
      "version": 1,
      "size": 373,
      "vsize": 208,
      "locktime": 0,
      "vin": [
        {
          "txid": "83c9fcdc46a9cb6a2e504a070856284659d829589cb13427ba8f1d88aa583e52",
          "vout": 1,
          "scriptSig": {
            "asm": "0020d6b9d7422bc028abd896f1a050b3db44927eb7aad83e7bc49bcf78428ef17cbb",
            "hex": "220020d6b9d7422bc028abd896f1a050b3db44927eb7aad83e7bc49bcf78428ef17cbb"
          },
          "txinwitness": [
            "", 
            "3044022028f450f60a53df5f62b360a1ea30d0a20bab235da4bb03118cb20cb22b2675b0022072bee7cbe3ad0b273fde6d5d29069ecbb5b1832e2f1b6d02fef6ae96d0a8001401", 
            "3045022100b2da7bd54725740389710b05722a397af5f8c4f66eaa9b9dd378c8c66652e9d902203636807750c29eb41c740dc20237ff63d5be7fafb239fc66f24a26887b1b738f01", 
            "5221023d6a5222534bcc76030a552edadb8158af53e3f38ad0368c0a21988eefdbb0eb21020f2fea6018ec3a73e671484acfea91e6c59b61c3519137ab9d138c3a87c1a5cb52ae"
          ],
          "sequence": 4294967295
        }
      ],
      "vout": [
        {
          "value": 0.07452700,
          "n": 0,
          "scriptPubKey": {
            "asm": "OP_DUP OP_HASH160 c95401b1a9556b5f3cb7aa89d4feb2325af387d0 OP_EQUALVERIFY OP_CHECKSIG",
            "hex": "76a914c95401b1a9556b5f3cb7aa89d4feb2325af387d088ac",
            "reqSigs": 1,
            "type": "pubkeyhash",
            "addresses": [
              "LdaUiepzc8hYxUUmRqZktQpKGGhG9puJcj"
            ]
          }
        }, 
        {
          "value": 11.00638876,
          "n": 1,
          "scriptPubKey": {
            "asm": "OP_HASH160 13a34b95a00b80159e400dccf5dae76c8b90bad4 OP_EQUAL",
            "hex": "a91413a34b95a00b80159e400dccf5dae76c8b90bad487",
            "reqSigs": 1,
            "type": "scripthash",
            "addresses": [
              "M9gzh2aMQKjg8tDNWV8Lp3bwsF9V5ERQuE"
            ]
          }
        }
      ],
      "hex": "01000000000101523e58aa881d8fba2734b19c5829d85946285608074a502e6acba946dcfcc9830100000023220020d6b9d7422bc028abd896f1a050b3db44927eb7aad83e7bc49bcf78428ef17cbbffffffff021cb87100000000001976a914c95401b1a9556b5f3cb7aa89d4feb2325af387d088ac9c6a9a410000000017a91413a34b95a00b80159e400dccf5dae76c8b90bad4870400473044022028f450f60a53df5f62b360a1ea30d0a20bab235da4bb03118cb20cb22b2675b0022072bee7cbe3ad0b273fde6d5d29069ecbb5b1832e2f1b6d02fef6ae96d0a8001401483045022100b2da7bd54725740389710b05722a397af5f8c4f66eaa9b9dd378c8c66652e9d902203636807750c29eb41c740dc20237ff63d5be7fafb239fc66f24a26887b1b738f01475221023d6a5222534bcc76030a552edadb8158af53e3f38ad0368c0a21988eefdbb0eb21020f2fea6018ec3a73e671484acfea91e6c59b61c3519137ab9d138c3a87c1a5cb52ae00000000"
    }, 
    {
      "txid": "9a8965a92805126054fd0f8d1d9e3fcc09d565089308075e67c8356598079aa5",
      "hash": "9a8965a92805126054fd0f8d1d9e3fcc09d565089308075e67c8356598079aa5",
      "version": 1,
      "size": 336,
      "vsize": 336,
      "locktime": 0,
      "vin": [
        {
          "txid": "024e5c2baa4a0a404db1ddbdb588cce3429001bc29495bfda4a2c14a9b9608f9",
          "vout": 1,
          "scriptSig": {
            "asm": "0 3045022100bb7ac1b9ae167b3f17bb9dbf6cb3131c66ebb9559884ee8dc987600e2b6d218f0220380cf9ed1734cfc849ce8ce5c4413ca575a3092cb4392d85cd8d81e3bb0f3b11[ALL] 3045022100e3303b3a6aff5c774c2e6a1d76f5a71a4c4e3c97d1499652e37578cb2c0babed022002ca1d8d710532b8f030bdea2d5f8f6bfd80f7bc85b1e88fe72a243a1f4a463f[ALL] 522103a45614a1d0bb2391c69e9d65e62ca5aadb4f0037ca000fac9cf19610b14510892103afea113e8146a645a02185ab62e068a626c354107cbae5e67b5d9dfa13664e8d52ae",
            "hex": "00483045022100bb7ac1b9ae167b3f17bb9dbf6cb3131c66ebb9559884ee8dc987600e2b6d218f0220380cf9ed1734cfc849ce8ce5c4413ca575a3092cb4392d85cd8d81e3bb0f3b1101483045022100e3303b3a6aff5c774c2e6a1d76f5a71a4c4e3c97d1499652e37578cb2c0babed022002ca1d8d710532b8f030bdea2d5f8f6bfd80f7bc85b1e88fe72a243a1f4a463f0147522103a45614a1d0bb2391c69e9d65e62ca5aadb4f0037ca000fac9cf19610b14510892103afea113e8146a645a02185ab62e068a626c354107cbae5e67b5d9dfa13664e8d52ae"
          },
          "sequence": 4294967295
        }
      ],
      "vout": [
        {
          "value": 0.16515343,
          "n": 0,
          "scriptPubKey": {
            "asm": "OP_DUP OP_HASH160 2aeb126654656285a84f43eb836ff050e195097e OP_EQUALVERIFY OP_CHECKSIG",
            "hex": "76a9142aeb126654656285a84f43eb836ff050e195097e88ac",
            "reqSigs": 1,
            "type": "pubkeyhash",
            "addresses": [
              "LP8tFMFkasEHt3KEK43GrbPGLCdABEDRxy"
            ]
          }
        }, 
        {
          "value": 8.84177123,
          "n": 1,
          "scriptPubKey": {
            "asm": "OP_HASH160 736b7802c4568fa4c406279db461671786cff030 OP_EQUAL",
            "hex": "a914736b7802c4568fa4c406279db461671786cff03087",
            "reqSigs": 1,
            "type": "scripthash",
            "addresses": [
              "MJRSgZ3UUFcTBTBAaN38XAXvZLwRe8WVw7"
            ]
          }
        }
      ],
      "hex": "0100000001f908969b4ac1a2a4fd5b4929bc019042e3cc88b5bdddb14d400a4aaa2b5c4e0201000000db00483045022100bb7ac1b9ae167b3f17bb9dbf6cb3131c66ebb9559884ee8dc987600e2b6d218f0220380cf9ed1734cfc849ce8ce5c4413ca575a3092cb4392d85cd8d81e3bb0f3b1101483045022100e3303b3a6aff5c774c2e6a1d76f5a71a4c4e3c97d1499652e37578cb2c0babed022002ca1d8d710532b8f030bdea2d5f8f6bfd80f7bc85b1e88fe72a243a1f4a463f0147522103a45614a1d0bb2391c69e9d65e62ca5aadb4f0037ca000fac9cf19610b14510892103afea113e8146a645a02185ab62e068a626c354107cbae5e67b5d9dfa13664e8d52aeffffffff020f01fc00000000001976a9142aeb126654656285a84f43eb836ff050e195097e88ace378b3340000000017a914736b7802c4568fa4c406279db461671786cff0308700000000"
    }, 
    {
      "txid": "f921b166ba99763b7c26147cfc668596b7880352fddb8729ffbbfca0744e8f40",
      "hash": "f921b166ba99763b7c26147cfc668596b7880352fddb8729ffbbfca0744e8f40",
      "version": 1,
      "size": 225,
      "vsize": 225,
      "locktime": 0,
      "vin": [
        {
          "txid": "fe48e1b16dc4feeddec11e74e272578263df1c9a79100e3f9de0aa604b901a79",
          "vout": 6,
          "scriptSig": {
            "asm": "3044022042e6ca82ea55e0a7e36f65d4cd03c8d5ad9455620f2e62f2010a62971b0e30d0022030491f05bf2bcdcae114be955d20bb47e96994c92ca41fcf54337707340b7bf9[ALL] 02e43362c006befe38a47790d0050bf9c1df8491dc0a1a5df064b8bd01cab70de8",
            "hex": "473044022042e6ca82ea55e0a7e36f65d4cd03c8d5ad9455620f2e62f2010a62971b0e30d0022030491f05bf2bcdcae114be955d20bb47e96994c92ca41fcf54337707340b7bf9012102e43362c006befe38a47790d0050bf9c1df8491dc0a1a5df064b8bd01cab70de8"
          },
          "sequence": 4294967295
        }
      ],
      "vout": [
        {
          "value": 0.00452028,
          "n": 0,
          "scriptPubKey": {
            "asm": "OP_DUP OP_HASH160 50b45fd544ddd9ec93b09b3c009da56837290bf0 OP_EQUALVERIFY OP_CHECKSIG",
            "hex": "76a91450b45fd544ddd9ec93b09b3c009da56837290bf088ac",
            "reqSigs": 1,
            "type": "pubkeyhash",
            "addresses": [
              "LSagQBuZiHR2dL5Qxhzg2P8D7qNiSPfD2X"
            ]
          }
        }, 
        {
          "value": 0.00054624,
          "n": 1,
          "scriptPubKey": {
            "asm": "OP_DUP OP_HASH160 da4a40dd20b77b6b3a758fe70a8c13d4c157aef5 OP_EQUALVERIFY OP_CHECKSIG",
            "hex": "76a914da4a40dd20b77b6b3a758fe70a8c13d4c157aef588ac",
            "reqSigs": 1,
            "type": "pubkeyhash",
            "addresses": [
              "Lf8AXFGv7RhRL2YzcDq3a9zJN4yNTKoT6x"
            ]
          }
        }
      ],
      "hex": "0100000001791a904b60aae09d3f0e10799a1cdf63825772e2741ec1deedfec46db1e148fe060000006a473044022042e6ca82ea55e0a7e36f65d4cd03c8d5ad9455620f2e62f2010a62971b0e30d0022030491f05bf2bcdcae114be955d20bb47e96994c92ca41fcf54337707340b7bf9012102e43362c006befe38a47790d0050bf9c1df8491dc0a1a5df064b8bd01cab70de8ffffffff02bce50600000000001976a91450b45fd544ddd9ec93b09b3c009da56837290bf088ac60d50000000000001976a914da4a40dd20b77b6b3a758fe70a8c13d4c157aef588ac00000000"
    }, 
    {
      "txid": "b2e231460189e009350b35ed4bdadb495f596e3b91eece097c1dcd2221c6bf55",
      "hash": "b2e231460189e009350b35ed4bdadb495f596e3b91eece097c1dcd2221c6bf55",
      "version": 1,
      "size": 225,
      "vsize": 225,
      "locktime": 0,
      "vin": [
        {
          "txid": "92f4db4c22f0fc257797e1c12aa7205d1a68de3bf011c908ac8bac343e28e170",
          "vout": 0,
          "scriptSig": {
            "asm": "304402205a9d7fbc9c14f058cda7363facaab425026c44631306229267d333cabff5f167022053e838b758d7b74d1796cf052f6aae0d0240193707df7dd0e415e6627afa1847[ALL] 0262f02c443454d1739e52d20caea5bb5d01a2558fc99be72818815f79a685b150",
            "hex": "47304402205a9d7fbc9c14f058cda7363facaab425026c44631306229267d333cabff5f167022053e838b758d7b74d1796cf052f6aae0d0240193707df7dd0e415e6627afa184701210262f02c443454d1739e52d20caea5bb5d01a2558fc99be72818815f79a685b150"
          },
          "sequence": 4294967295
        }
      ],
      "vout": [
        {
          "value": 55.28777836,
          "n": 0,
          "scriptPubKey": {
            "asm": "OP_DUP OP_HASH160 ce35c1b0ab5ee38b9d51b427c08da29e59adf2c0 OP_EQUALVERIFY OP_CHECKSIG",
            "hex": "76a914ce35c1b0ab5ee38b9d51b427c08da29e59adf2c088ac",
            "reqSigs": 1,
            "type": "pubkeyhash",
            "addresses": [
              "Le2HrobovCqPxDkfQR4AuRN6mhNu23ku1P"
            ]
          }
        }, 
        {
          "value": 2.99468867,
          "n": 1,
          "scriptPubKey": {
            "asm": "OP_DUP OP_HASH160 9346d22dd4502191d2722724e40ce0542d186659 OP_EQUALVERIFY OP_CHECKSIG",
            "hex": "76a9149346d22dd4502191d2722724e40ce0542d18665988ac",
            "reqSigs": 1,
            "type": "pubkeyhash",
            "addresses": [
              "LYegS9CnXAFjUx43Hfrb4taGWCCHDFnhEW"
            ]
          }
        }
      ],
      "hex": "010000000170e1283e34ac8bac08c911f03bde681a5d20a72ac1e1977725fcf0224cdbf492000000006a47304402205a9d7fbc9c14f058cda7363facaab425026c44631306229267d333cabff5f167022053e838b758d7b74d1796cf052f6aae0d0240193707df7dd0e415e6627afa184701210262f02c443454d1739e52d20caea5bb5d01a2558fc99be72818815f79a685b150ffffffff026c748a49010000001976a914ce35c1b0ab5ee38b9d51b427c08da29e59adf2c088ac4388d911000000001976a9149346d22dd4502191d2722724e40ce0542d18665988ac00000000"
    }, 
    {
      "txid": "9b1d5c13e685c32903c00073856f939c8b4af7addf5459705561552143c15a65",
      "hash": "9b1d5c13e685c32903c00073856f939c8b4af7addf5459705561552143c15a65",
      "version": 1,
      "size": 225,
      "vsize": 225,
      "locktime": 0,
      "vin": [
        {
          "txid": "59f320ed161f2c5ad4a271ff556257242fccda4fccecd3538e3a7e3c927e34d6",
          "vout": 0,
          "scriptSig": {
            "asm": "3044022021494547e8aebae058d204a83661f5dd042229c38626edbccd518ccb36629f2802200c82111d28f558a5905aa1986362bd2ac616fe464635885a7c8a62c15749260e[ALL] 03df83e2b2bb8e2a1243fb3b285d0299e1c092d94cdb064d3f9c0eab9ccd205d7a",
            "hex": "473044022021494547e8aebae058d204a83661f5dd042229c38626edbccd518ccb36629f2802200c82111d28f558a5905aa1986362bd2ac616fe464635885a7c8a62c15749260e012103df83e2b2bb8e2a1243fb3b285d0299e1c092d94cdb064d3f9c0eab9ccd205d7a"
          },
          "sequence": 4294967295
        }
      ],
      "vout": [
        {
          "value": 67.51661039,
          "n": 0,
          "scriptPubKey": {
            "asm": "OP_DUP OP_HASH160 84492374bd6ca8b7b0b4cc05c2a4fd6b85c6ea68 OP_EQUALVERIFY OP_CHECKSIG",
            "hex": "76a91484492374bd6ca8b7b0b4cc05c2a4fd6b85c6ea6888ac",
            "reqSigs": 1,
            "type": "pubkeyhash",
            "addresses": [
              "LXHR5HaidAFXV1T8EQYig8nTozMJ8MjkDh"
            ]
          }
        }, 
        {
          "value": 6.48316361,
          "n": 1,
          "scriptPubKey": {
            "asm": "OP_DUP OP_HASH160 83bf0104099c7ce0bc1c00517fc2637f784ffaad OP_EQUALVERIFY OP_CHECKSIG",
            "hex": "76a91483bf0104099c7ce0bc1c00517fc2637f784ffaad88ac",
            "reqSigs": 1,
            "type": "pubkeyhash",
            "addresses": [
              "LXEZbXm2KLsSuzJKP1xJK4wwfGeTuWwxu7"
            ]
          }
        }
      ],
      "hex": "0100000001d6347e923c7e3a8e53d3eccc4fdacc2f24576255ff71a2d45a2c1f16ed20f359000000006a473044022021494547e8aebae058d204a83661f5dd042229c38626edbccd518ccb36629f2802200c82111d28f558a5905aa1986362bd2ac616fe464635885a7c8a62c15749260e012103df83e2b2bb8e2a1243fb3b285d0299e1c092d94cdb064d3f9c0eab9ccd205d7affffffff02ef2b6e92010000001976a91484492374bd6ca8b7b0b4cc05c2a4fd6b85c6ea6888acc985a426000000001976a91483bf0104099c7ce0bc1c00517fc2637f784ffaad88ac00000000"
    }, 
    {
      "txid": "8c1e71a2d23fd86eff2770580327a657da22c49f58be83fccb4b8bfbca5e8ecb",
      "hash": "8c1e71a2d23fd86eff2770580327a657da22c49f58be83fccb4b8bfbca5e8ecb",
      "version": 2,
      "size": 225,
      "vsize": 225,
      "locktime": 1359463,
      "vin": [
        {
          "txid": "fe3eeb34a2e3de79c1718ae6f4a0e97f41da2d60e3d2328cf0e2accf0a814053",
          "vout": 0,
          "scriptSig": {
            "asm": "3044022050d224621a531e431418ddaa912735022aedd4e5fbaa8c1c5a2e375e5b711f97022003f204664543be6bdd74034feb4daacadac57fcf0360779f69b04cf56710bca6[ALL] 03d99a0c9288e68baf50e6d982d288ea67c91646f81fda7cfc9d374ac24aede217",
            "hex": "473044022050d224621a531e431418ddaa912735022aedd4e5fbaa8c1c5a2e375e5b711f97022003f204664543be6bdd74034feb4daacadac57fcf0360779f69b04cf56710bca6012103d99a0c9288e68baf50e6d982d288ea67c91646f81fda7cfc9d374ac24aede217"
          },
          "sequence": 4294967294
        }
      ],
      "vout": [
        {
          "value": 2.82000000,
          "n": 0,
          "scriptPubKey": {
            "asm": "OP_DUP OP_HASH160 82620b3e42520d0531257f841d2ab40fbd25d108 OP_EQUALVERIFY OP_CHECKSIG",
            "hex": "76a91482620b3e42520d0531257f841d2ab40fbd25d10888ac",
            "reqSigs": 1,
            "type": "pubkeyhash",
            "addresses": [
              "LX7MZMwaXNQeoXELSfP7A3uqjrTrQt6BvQ"
            ]
          }
        }, 
        {
          "value": 267.27414555,
          "n": 1,
          "scriptPubKey": {
            "asm": "OP_DUP OP_HASH160 f6a3e931f56caffffa2307771406386a9d68eeae OP_EQUALVERIFY OP_CHECKSIG",
            "hex": "76a914f6a3e931f56caffffa2307771406386a9d68eeae88ac",
            "reqSigs": 1,
            "type": "pubkeyhash",
            "addresses": [
              "Lhi4r8hbtJwd15VjHvrRNwFYLtacQX1Zrh"
            ]
          }
        }
      ],
      "hex": "02000000015340810acface2f08c32d2e3602dda417fe9a0f4e68a71c179dee3a234eb3efe000000006a473044022050d224621a531e431418ddaa912735022aedd4e5fbaa8c1c5a2e375e5b711f97022003f204664543be6bdd74034feb4daacadac57fcf0360779f69b04cf56710bca6012103d99a0c9288e68baf50e6d982d288ea67c91646f81fda7cfc9d374ac24aede217feffffff0280face10000000001976a91482620b3e42520d0531257f841d2ab40fbd25d10888ac1bfb1339060000001976a914f6a3e931f56caffffa2307771406386a9d68eeae88ac67be1400"
    }, 
    {
      "txid": "72469c7b18a1d043e896df544def2f826a527ac3466479f6745e523aa02dd28a",
      "hash": "72469c7b18a1d043e896df544def2f826a527ac3466479f6745e523aa02dd28a",
      "version": 1,
      "size": 518,
      "vsize": 518,
      "locktime": 1359463,
      "vin": [
        {
          "txid": "839383bc0468d74a40243210dd3be576249cbe9f6fb94f13b8e76d3621d4e9e1",
          "vout": 1,
          "scriptSig": {
            "asm": "30440220382398b6dcadfd7bc7e007b87e1ca3407875355acfd62bba7c786843773104380220638b618e1b128fd6cd9e241ce13a7b4282b3f7636e933ffa95368ce629936080[ALL] 039053a66a608fc3e8e64c48e50e0d853a4775da24b85a4e1448781d8c53d975e2",
            "hex": "4730440220382398b6dcadfd7bc7e007b87e1ca3407875355acfd62bba7c786843773104380220638b618e1b128fd6cd9e241ce13a7b4282b3f7636e933ffa95368ce6299360800121039053a66a608fc3e8e64c48e50e0d853a4775da24b85a4e1448781d8c53d975e2"
          },
          "sequence": 4294967294
        }, 
        {
          "txid": "4ff48f3bed2167917f7267dc913e443ccff8af062165922532361e768a318adb",
          "vout": 0,
          "scriptSig": {
            "asm": "304402205b21c1c3998833e9dc2786422cc093926e6e10e758d755934a12c68dc620093002204b8f9ed167a3912250267e902d6319675007af53c6115bdf713f3c816fe4005d[ALL] 0356de63d601ab655436059e3342ff2ee25aa97e040ffc562f6baca983a0b57668",
            "hex": "47304402205b21c1c3998833e9dc2786422cc093926e6e10e758d755934a12c68dc620093002204b8f9ed167a3912250267e902d6319675007af53c6115bdf713f3c816fe4005d01210356de63d601ab655436059e3342ff2ee25aa97e040ffc562f6baca983a0b57668"
          },
          "sequence": 4294967294
        }, 
        {
          "txid": "2a5ec18d8e0a56ec9c0511e74ffa5c0c5dd7d30c2954669041f36a48bdaaaf8d",
          "vout": 106,
          "scriptSig": {
            "asm": "304502210084a7690a7e82f40132be44963329a2b52c240f262f5fb0c540d808279b311f6c0220677237635ae723d10f6f1b76a595e4cd08b673b912f4d2348612c4b268bd4a93[ALL] 0271b3b139bf9913b367f3281b013dce82c2339efec4cf73ebf6e2fda7de93209b",
            "hex": "48304502210084a7690a7e82f40132be44963329a2b52c240f262f5fb0c540d808279b311f6c0220677237635ae723d10f6f1b76a595e4cd08b673b912f4d2348612c4b268bd4a9301210271b3b139bf9913b367f3281b013dce82c2339efec4cf73ebf6e2fda7de93209b"
          },
          "sequence": 4294967294
        }
      ],
      "vout": [
        {
          "value": 0.01000851,
          "n": 0,
          "scriptPubKey": {
            "asm": "OP_DUP OP_HASH160 bc84f95753f89101d288a804c5e64fab4048851e OP_EQUALVERIFY OP_CHECKSIG",
            "hex": "76a914bc84f95753f89101d288a804c5e64fab4048851e88ac",
            "reqSigs": 1,
            "type": "pubkeyhash",
            "addresses": [
              "LcQkbUKYRTLPDqFoMZp9nxwHn4ftoiufU3"
            ]
          }
        }, 
        {
          "value": 3.21812154,
          "n": 1,
          "scriptPubKey": {
            "asm": "OP_HASH160 6da9944ae550ff41e4c51f31a1d6fc5872a2e31e OP_EQUAL",
            "hex": "a9146da9944ae550ff41e4c51f31a1d6fc5872a2e31e87",
            "reqSigs": 1,
            "type": "scripthash",
            "addresses": [
              "MHu12uxFsTzbBGGo38fkootji5MoXxzvJk"
            ]
          }
        }
      ],
      "hex": "0100000003e1e9d421366de7b8134fb96f9fbe9c2476e53bdd103224404ad76804bc839383010000006a4730440220382398b6dcadfd7bc7e007b87e1ca3407875355acfd62bba7c786843773104380220638b618e1b128fd6cd9e241ce13a7b4282b3f7636e933ffa95368ce6299360800121039053a66a608fc3e8e64c48e50e0d853a4775da24b85a4e1448781d8c53d975e2feffffffdb8a318a761e36322592652106aff8cf3c443e91dc67727f916721ed3b8ff44f000000006a47304402205b21c1c3998833e9dc2786422cc093926e6e10e758d755934a12c68dc620093002204b8f9ed167a3912250267e902d6319675007af53c6115bdf713f3c816fe4005d01210356de63d601ab655436059e3342ff2ee25aa97e040ffc562f6baca983a0b57668feffffff8dafaabd486af341906654290cd3d75d0c5cfa4fe711059cec560a8e8dc15e2a6a0000006b48304502210084a7690a7e82f40132be44963329a2b52c240f262f5fb0c540d808279b311f6c0220677237635ae723d10f6f1b76a595e4cd08b673b912f4d2348612c4b268bd4a9301210271b3b139bf9913b367f3281b013dce82c2339efec4cf73ebf6e2fda7de93209bfeffffff0293450f00000000001976a914bc84f95753f89101d288a804c5e64fab4048851e88acba762e130000000017a9146da9944ae550ff41e4c51f31a1d6fc5872a2e31e8767be1400"
    }, 
    {
      "txid": "ac03d0e435bece806d36f8d6d8a668ec5537e6b66581672cb9ed84460ebf463c",
      "hash": "ac03d0e435bece806d36f8d6d8a668ec5537e6b66581672cb9ed84460ebf463c",
      "version": 2,
      "size": 589,
      "vsize": 589,
      "locktime": 1359463,
      "vin": [
        {
          "txid": "79633cce33f767581ac5782391e868a7a993470a7baf71304ed27a0638016a37",
          "vout": 0,
          "scriptSig": {
            "asm": "3045022100a4212dc2b30683d67bb1a0ca5aee137515c23923d4d68ce8e7d645019b5b4b120220085c95070c510ab76fb060d2bef4a8e85d714845b5eac826bcdb36fd79f50579[ALL] 025c05f5184344afe793b07f5101338a1662f09a165591b6b3c40aa26797f7837a",
            "hex": "483045022100a4212dc2b30683d67bb1a0ca5aee137515c23923d4d68ce8e7d645019b5b4b120220085c95070c510ab76fb060d2bef4a8e85d714845b5eac826bcdb36fd79f505790121025c05f5184344afe793b07f5101338a1662f09a165591b6b3c40aa26797f7837a"
          },
          "sequence": 4294967294
        }, 
        {
          "txid": "3297e28afe345109ecc3ace4cc3a19c2f19d65a7d3e7ad872c3fd0048219faaa",
          "vout": 1,
          "scriptSig": {
            "asm": "304402203a371f0079355260dd21b96c22ba5503f4b4cb3b098063d4d5952841e2aa620902205e881867422a95c6adc80b80f984c795103a20bae4c0cb171d714d7f79c4a484[ALL] 0353e4161e4676d8d1b5068e2e4834585721a1c3251e66fcd94dfcceb6d682b5d4",
            "hex": "47304402203a371f0079355260dd21b96c22ba5503f4b4cb3b098063d4d5952841e2aa620902205e881867422a95c6adc80b80f984c795103a20bae4c0cb171d714d7f79c4a48401210353e4161e4676d8d1b5068e2e4834585721a1c3251e66fcd94dfcceb6d682b5d4"
          },
          "sequence": 4294967294
        }, 
        {
          "txid": "5b2309ec2100376e14c1502fd7aef8e1697400a6e73c7d26bb316d5a2b218e85",
          "vout": 0,
          "scriptSig": {
            "asm": "3045022100fc044b32c05cabd94386521e05728e03198e917524e5cbce97bcf6485689e86202206ebe8e166d38024b71e7b5b442930713e17962df7f323336da2adedab0a42707[ALL] 021f83486e3c3a6386eaa29daed1a34aab3a5682fde4d1a5c66ce072d66ec5783a",
            "hex": "483045022100fc044b32c05cabd94386521e05728e03198e917524e5cbce97bcf6485689e86202206ebe8e166d38024b71e7b5b442930713e17962df7f323336da2adedab0a427070121021f83486e3c3a6386eaa29daed1a34aab3a5682fde4d1a5c66ce072d66ec5783a"
          },
          "sequence": 4294967294
        }
      ],
      "vout": [
        {
          "value": 0.00941519,
          "n": 0,
          "scriptPubKey": {
            "asm": "OP_DUP OP_HASH160 815073737744f3a29625e9a51c0fe97925f061d0 OP_EQUALVERIFY OP_CHECKSIG",
            "hex": "76a914815073737744f3a29625e9a51c0fe97925f061d088ac",
            "reqSigs": 1,
            "type": "pubkeyhash",
            "addresses": [
              "LX1honr5MyvAkUEdN8fFK8Ctoj2sE3EA3D"
            ]
          }
        }, 
        {
          "value": 0.33605500,
          "n": 1,
          "scriptPubKey": {
            "asm": "OP_DUP OP_HASH160 6f79b4e0f9e5348142f1fcafa7d43537cd90af5f OP_EQUALVERIFY OP_CHECKSIG",
            "hex": "76a9146f79b4e0f9e5348142f1fcafa7d43537cd90af5f88ac",
            "reqSigs": 1,
            "type": "pubkeyhash",
            "addresses": [
              "LVPP4psBengwgZT6pnnjWmPaATv17SNcbV"
            ]
          }
        }, 
        {
          "value": 3.45113500,
          "n": 2,
          "scriptPubKey": {
            "asm": "OP_DUP OP_HASH160 25194b27f3b26eacbbd1a321ebd42755b030a9fd OP_EQUALVERIFY OP_CHECKSIG",
            "hex": "76a91425194b27f3b26eacbbd1a321ebd42755b030a9fd88ac",
            "reqSigs": 1,
            "type": "pubkeyhash",
            "addresses": [
              "LNc7ZjqWJQfecPDsFwK9uSTxsubw6Cy3sH"
            ]
          }
        }, 
        {
          "value": 0.32294300,
          "n": 3,
          "scriptPubKey": {
            "asm": "OP_DUP OP_HASH160 37f556a21c87a86189990225a0fd930daec58ee7 OP_EQUALVERIFY OP_CHECKSIG",
            "hex": "76a91437f556a21c87a86189990225a0fd930daec58ee788ac",
            "reqSigs": 1,
            "type": "pubkeyhash",
            "addresses": [
              "LQKqLB85azMikVXK4XEUgbzCGpaqhN6Kg9"
            ]
          }
        }
      ],
      "hex": "0200000003376a0138067ad24e3071af7b0a4793a9a768e8912378c51a5867f733ce3c6379000000006b483045022100a4212dc2b30683d67bb1a0ca5aee137515c23923d4d68ce8e7d645019b5b4b120220085c95070c510ab76fb060d2bef4a8e85d714845b5eac826bcdb36fd79f505790121025c05f5184344afe793b07f5101338a1662f09a165591b6b3c40aa26797f7837afeffffffaafa198204d03f2c87ade7d3a7659df1c2193acce4acc3ec095134fe8ae29732010000006a47304402203a371f0079355260dd21b96c22ba5503f4b4cb3b098063d4d5952841e2aa620902205e881867422a95c6adc80b80f984c795103a20bae4c0cb171d714d7f79c4a48401210353e4161e4676d8d1b5068e2e4834585721a1c3251e66fcd94dfcceb6d682b5d4feffffff858e212b5a6d31bb267d3ce7a6007469e1f8aed72f50c1146e370021ec09235b000000006b483045022100fc044b32c05cabd94386521e05728e03198e917524e5cbce97bcf6485689e86202206ebe8e166d38024b71e7b5b442930713e17962df7f323336da2adedab0a427070121021f83486e3c3a6386eaa29daed1a34aab3a5682fde4d1a5c66ce072d66ec5783afeffffff04cf5d0e00000000001976a914815073737744f3a29625e9a51c0fe97925f061d088ac7cc70002000000001976a9146f79b4e0f9e5348142f1fcafa7d43537cd90af5f88ac9c039214000000001976a91425194b27f3b26eacbbd1a321ebd42755b030a9fd88ac9cc5ec01000000001976a91437f556a21c87a86189990225a0fd930daec58ee788ac67be1400"
    }, 
    {
      "txid": "c3d68cf5cc66292f456742c123130efc0cdd12637396d31d664036fd55dee33a",
      "hash": "c3d68cf5cc66292f456742c123130efc0cdd12637396d31d664036fd55dee33a",
      "version": 1,
      "size": 226,
      "vsize": 226,
      "locktime": 0,
      "vin": [
        {
          "txid": "31e8a1784c151b85ca63f25f7a315b0ca9ebbf0656aebefcf50da1b23cb82a9f",
          "vout": 0,
          "scriptSig": {
            "asm": "3045022100fda62c3d13b975ea9079da1909bada65e40ec1db8b271a49d8ae961c9be7d4db0220703342b95ce9e4d026b24e792ce542641bce5e8f4008cf142f66d0b8f8b6e6d4[ALL] 02de7bdbe4a73872ef04fb8c5feb08a72d22125e358a45de7c8f2de473dc1fc7a8",
            "hex": "483045022100fda62c3d13b975ea9079da1909bada65e40ec1db8b271a49d8ae961c9be7d4db0220703342b95ce9e4d026b24e792ce542641bce5e8f4008cf142f66d0b8f8b6e6d4012102de7bdbe4a73872ef04fb8c5feb08a72d22125e358a45de7c8f2de473dc1fc7a8"
          },
          "sequence": 4294967295
        }
      ],
      "vout": [
        {
          "value": 58.14416944,
          "n": 0,
          "scriptPubKey": {
            "asm": "OP_DUP OP_HASH160 205bad8735ec4af79b5806c78c83df8d5e24f3f2 OP_EQUALVERIFY OP_CHECKSIG",
            "hex": "76a914205bad8735ec4af79b5806c78c83df8d5e24f3f288ac",
            "reqSigs": 1,
            "type": "pubkeyhash",
            "addresses": [
              "LNB3iEsEXT2C9EPdKbTwamaY4U357D6QqS"
            ]
          }
        }, 
        {
          "value": 6.31882580,
          "n": 1,
          "scriptPubKey": {
            "asm": "OP_DUP OP_HASH160 f70160b1c78bb110147d4ce430e4432b23dd3883 OP_EQUALVERIFY OP_CHECKSIG",
            "hex": "76a914f70160b1c78bb110147d4ce430e4432b23dd388388ac",
            "reqSigs": 1,
            "type": "pubkeyhash",
            "addresses": [
              "LhjzpKXgnJRKEcwUECJtjiJ6nHWqeFpp7u"
            ]
          }
        }
      ],
      "hex": "01000000019f2ab83cb2a10df5fcbeae5606bfeba90c5b317a5ff263ca851b154c78a1e831000000006b483045022100fda62c3d13b975ea9079da1909bada65e40ec1db8b271a49d8ae961c9be7d4db0220703342b95ce9e4d026b24e792ce542641bce5e8f4008cf142f66d0b8f8b6e6d4012102de7bdbe4a73872ef04fb8c5feb08a72d22125e358a45de7c8f2de473dc1fc7a8ffffffff0230f6905a010000001976a914205bad8735ec4af79b5806c78c83df8d5e24f3f288ac54c3a925000000001976a914f70160b1c78bb110147d4ce430e4432b23dd388388ac00000000"
    }, 
    {
      "txid": "119ea34d3585087dbdc0c40ced78600bf028b7995fdd712de21f6a01bdf7f264",
      "hash": "119ea34d3585087dbdc0c40ced78600bf028b7995fdd712de21f6a01bdf7f264",
      "version": 1,
      "size": 226,
      "vsize": 226,
      "locktime": 0,
      "vin": [
        {
          "txid": "9cce09a5a2f19a00679acf9fbbb355f065cc73b9620199a02a74a61a90abcdff",
          "vout": 1,
          "scriptSig": {
            "asm": "3045022100ac850f80f6358ce6dcdd4ab1729fa23484fe4e0d9720bf5fab41352c82850f37022035839d8006966e4a480c48300dc58e8f675af5fce2b7cf632b9582ebe4a6c2c5[ALL] 0301cf1accc608ef039972622c7963529f502b540cd6e423357e1e2cf7d88a5f22",
            "hex": "483045022100ac850f80f6358ce6dcdd4ab1729fa23484fe4e0d9720bf5fab41352c82850f37022035839d8006966e4a480c48300dc58e8f675af5fce2b7cf632b9582ebe4a6c2c501210301cf1accc608ef039972622c7963529f502b540cd6e423357e1e2cf7d88a5f22"
          },
          "sequence": 4294967295
        }
      ],
      "vout": [
        {
          "value": 72.28001337,
          "n": 0,
          "scriptPubKey": {
            "asm": "OP_DUP OP_HASH160 1ccb3c99fe1b65cde58d429fc333d93cce0fad60 OP_EQUALVERIFY OP_CHECKSIG",
            "hex": "76a9141ccb3c99fe1b65cde58d429fc333d93cce0fad6088ac",
            "reqSigs": 1,
            "type": "pubkeyhash",
            "addresses": [
              "LMrCeigWwYrJLi27jz3kvaL9HbEJQhQ5rk"
            ]
          }
        }, 
        {
          "value": 2.00000000,
          "n": 1,
          "scriptPubKey": {
            "asm": "OP_DUP OP_HASH160 b74355922ec117416882cc50408a900e8aed917e OP_EQUALVERIFY OP_CHECKSIG",
            "hex": "76a914b74355922ec117416882cc50408a900e8aed917e88ac",
            "reqSigs": 1,
            "type": "pubkeyhash",
            "addresses": [
              "LbvxanTM1zyFbD3cTcwShQWAgmfZWpizBE"
            ]
          }
        }
      ],
      "hex": "0100000001ffcdab901aa6742aa0990162b973cc65f055b3bb9fcf9a67009af1a2a509ce9c010000006b483045022100ac850f80f6358ce6dcdd4ab1729fa23484fe4e0d9720bf5fab41352c82850f37022035839d8006966e4a480c48300dc58e8f675af5fce2b7cf632b9582ebe4a6c2c501210301cf1accc608ef039972622c7963529f502b540cd6e423357e1e2cf7d88a5f22ffffffff02398cd2ae010000001976a9141ccb3c99fe1b65cde58d429fc333d93cce0fad6088ac00c2eb0b000000001976a914b74355922ec117416882cc50408a900e8aed917e88ac00000000"
    }, 
    {
      "txid": "a76ed1180d180a9ee49fe5e2b17af791b729d555f3e192b2a7fb11688a06fd66",
      "hash": "a76ed1180d180a9ee49fe5e2b17af791b729d555f3e192b2a7fb11688a06fd66",
      "version": 2,
      "size": 226,
      "vsize": 226,
      "locktime": 1359463,
      "vin": [
        {
          "txid": "accfc03fb48a67ef84ab5e7f724e587b6121a63adff509c57a525400e97e9415",
          "vout": 1,
          "scriptSig": {
            "asm": "304502210089994ba5e2809c0b95933c5576acffdce6a1745cb17182681cef3f345dd7b7ad0220284b8d5d90417826286bc8e869ff6d8d8c29b401f03a4d60ddeb0f59cc2ae7c0[ALL] 036287e70ac4df0b96a45a4df218f3214891d1f20142cb9cb0438190c40a1640c6",
            "hex": "48304502210089994ba5e2809c0b95933c5576acffdce6a1745cb17182681cef3f345dd7b7ad0220284b8d5d90417826286bc8e869ff6d8d8c29b401f03a4d60ddeb0f59cc2ae7c00121036287e70ac4df0b96a45a4df218f3214891d1f20142cb9cb0438190c40a1640c6"
          },
          "sequence": 4294967294
        }
      ],
      "vout": [
        {
          "value": 16.04881735,
          "n": 0,
          "scriptPubKey": {
            "asm": "OP_DUP OP_HASH160 1a458bc6a0a0a1097c047af8ce403735e9d96b84 OP_EQUALVERIFY OP_CHECKSIG",
            "hex": "76a9141a458bc6a0a0a1097c047af8ce403735e9d96b8488ac",
            "reqSigs": 1,
            "type": "pubkeyhash",
            "addresses": [
              "LMcs9LkcSVK2YCmhK5zqKyBcbqXRDW2toR"
            ]
          }
        }, 
        {
          "value": 0.53755052,
          "n": 1,
          "scriptPubKey": {
            "asm": "OP_DUP OP_HASH160 87df5279228d7545f09b24a85dc725e7a9c49c4e OP_EQUALVERIFY OP_CHECKSIG",
            "hex": "76a91487df5279228d7545f09b24a85dc725e7a9c49c4e88ac",
            "reqSigs": 1,
            "type": "pubkeyhash",
            "addresses": [
              "LXcP1ohF9G6Zi3qPx6egKxjSd8oaCxEDc6"
            ]
          }
        }
      ],
      "hex": "020000000115947ee90054527ac509f5df3aa621617b584e727f5eab84ef678ab43fc0cfac010000006b48304502210089994ba5e2809c0b95933c5576acffdce6a1745cb17182681cef3f345dd7b7ad0220284b8d5d90417826286bc8e869ff6d8d8c29b401f03a4d60ddeb0f59cc2ae7c00121036287e70ac4df0b96a45a4df218f3214891d1f20142cb9cb0438190c40a1640c6feffffff02478da85f000000001976a9141a458bc6a0a0a1097c047af8ce403735e9d96b8488acac3c3403000000001976a91487df5279228d7545f09b24a85dc725e7a9c49c4e88ac67be1400"
    }, 
    {
      "txid": "8528868a59be2199e2e85fc15d8ac741c0a8bbdf5626dbd293581316be60e7be",
      "hash": "8528868a59be2199e2e85fc15d8ac741c0a8bbdf5626dbd293581316be60e7be",
      "version": 2,
      "size": 226,
      "vsize": 226,
      "locktime": 1359463,
      "vin": [
        {
          "txid": "df62faa7c2ba26eff471fcd7aa715d29b8e3c518ff7c9d2392d829de09e68162",
          "vout": 0,
          "scriptSig": {
            "asm": "3045022100a2f49e73f439a52b861943115af100de4bd30a0bbb1ec024cf87cf23d3a6f2a70220592bd56985a1ed2b1a716d33ee797d342821adf87856027e338aa47bed83d9c5[ALL] 029ade1a4352b3eb2080bf18d0f1b539c8e327b752c3b2853c8f4a33bc805afe9e",
            "hex": "483045022100a2f49e73f439a52b861943115af100de4bd30a0bbb1ec024cf87cf23d3a6f2a70220592bd56985a1ed2b1a716d33ee797d342821adf87856027e338aa47bed83d9c50121029ade1a4352b3eb2080bf18d0f1b539c8e327b752c3b2853c8f4a33bc805afe9e"
          },
          "sequence": 4294967294
        }
      ],
      "vout": [
        {
          "value": 1.30615291,
          "n": 0,
          "scriptPubKey": {
            "asm": "OP_DUP OP_HASH160 6b39f9a25c56d274fd4aab3dd25137ca08024815 OP_EQUALVERIFY OP_CHECKSIG",
            "hex": "76a9146b39f9a25c56d274fd4aab3dd25137ca0802481588ac",
            "reqSigs": 1,
            "type": "pubkeyhash",
            "addresses": [
              "LUzv1vR6yea1AQmEJMrhfb5axt7EgH5qYC"
            ]
          }
        }, 
        {
          "value": 223.82958435,
          "n": 1,
          "scriptPubKey": {
            "asm": "OP_DUP OP_HASH160 cab39e451ca55d894e0e41ebccd26f8b71e6c0f1 OP_EQUALVERIFY OP_CHECKSIG",
            "hex": "76a914cab39e451ca55d894e0e41ebccd26f8b71e6c0f188ac",
            "reqSigs": 1,
            "type": "pubkeyhash",
            "addresses": [
              "Ldhjw4G2Tg1RigFbEdejkxPVqrr2nfjAph"
            ]
          }
        }
      ],
      "hex": "02000000016281e609de29d892239d7cff18c5e3b8295d71aad7fc71f4ef26bac2a7fa62df000000006b483045022100a2f49e73f439a52b861943115af100de4bd30a0bbb1ec024cf87cf23d3a6f2a70220592bd56985a1ed2b1a716d33ee797d342821adf87856027e338aa47bed83d9c50121029ade1a4352b3eb2080bf18d0f1b539c8e327b752c3b2853c8f4a33bc805afe9efeffffff02fb07c907000000001976a9146b39f9a25c56d274fd4aab3dd25137ca0802481588ac63d72036050000001976a914cab39e451ca55d894e0e41ebccd26f8b71e6c0f188ac67be1400"
    }, 
    {
      "txid": "6531a9493245bd7df021ba2a6aea709ebe333f48506a95a7c000fcfe7b7544c2",
      "hash": "6531a9493245bd7df021ba2a6aea709ebe333f48506a95a7c000fcfe7b7544c2",
      "version": 1,
      "size": 226,
      "vsize": 226,
      "locktime": 0,
      "vin": [
        {
          "txid": "ab011e7279fa7f642cbc8bef603dd5a5fba3aae61057cc9779290d65a770db57",
          "vout": 0,
          "scriptSig": {
            "asm": "30450221009749ca2d6de9dae63bfb3e9b65ba7a6b000b335c5a45f0a93f9e7ff8fe72f3e302202cdf0f976e24d7b094de969c03d9d4f4022f084b438ebfbbe91603d774cee263[ALL] 02bbf49517794821c25cdb98ccbce7d2b3bb052ae10539052745b473f5808b6e8b",
            "hex": "4830450221009749ca2d6de9dae63bfb3e9b65ba7a6b000b335c5a45f0a93f9e7ff8fe72f3e302202cdf0f976e24d7b094de969c03d9d4f4022f084b438ebfbbe91603d774cee263012102bbf49517794821c25cdb98ccbce7d2b3bb052ae10539052745b473f5808b6e8b"
          },
          "sequence": 4294967295
        }
      ],
      "vout": [
        {
          "value": 2.83006449,
          "n": 0,
          "scriptPubKey": {
            "asm": "OP_DUP OP_HASH160 aee4aba8599076aa24bb787c017196cc3821bef7 OP_EQUALVERIFY OP_CHECKSIG",
            "hex": "76a914aee4aba8599076aa24bb787c017196cc3821bef788ac",
            "reqSigs": 1,
            "type": "pubkeyhash",
            "addresses": [
              "LbAhmu6UkJRWi1R64hH5FYfHrTccbNbT4s"
            ]
          }
        }, 
        {
          "value": 65.90252427,
          "n": 1,
          "scriptPubKey": {
            "asm": "OP_DUP OP_HASH160 1524a62ed81223bcf24e5133c575e77de7c4571f OP_EQUALVERIFY OP_CHECKSIG",
            "hex": "76a9141524a62ed81223bcf24e5133c575e77de7c4571f88ac",
            "reqSigs": 1,
            "type": "pubkeyhash",
            "addresses": [
              "LM9kMfmRXkdbj3Y6cYXYZUnFy2EyQknRzS"
            ]
          }
        }
      ],
      "hex": "010000000157db70a7650d297997cc5710e6aaa3fba5d53d60ef8bbc2c647ffa79721e01ab000000006b4830450221009749ca2d6de9dae63bfb3e9b65ba7a6b000b335c5a45f0a93f9e7ff8fe72f3e302202cdf0f976e24d7b094de969c03d9d4f4022f084b438ebfbbe91603d774cee263012102bbf49517794821c25cdb98ccbce7d2b3bb052ae10539052745b473f5808b6e8bffffffff02f155de10000000001976a914aee4aba8599076aa24bb787c017196cc3821bef788ac8b45cf88010000001976a9141524a62ed81223bcf24e5133c575e77de7c4571f88ac00000000"
    }
  ],
  "time": 1517286461,
  "mediantime": 1517285820,
  "nonce": 1425766236,
  "bits": "1a042eae",
  "difficulty": 4011378.762614286,
  "chainwork": "00000000000000000000000000000000000000000000003407b6f37b71c738d4",
  "previousblockhash": "bf195afe9d2268e8ac53ea588aba93ea2248d623a3aaa2d5cc9136c3dc0db453",
  "nextblockhash": "6f823fb6afc0766d37ef711c4cfdc5f15372aec74e5870f524f135e25060f5f4"
}
