{
  "hash": "850971b2bd777c6c430c15f96187415b5dfa6e7fb7d2854353e671b8904d4321",
  "confirmations": 2513,
  "strippedsize": 1189,
  "size": 1225,
  "weight": 4792,
  "height": 1358482,
  "version": 536870912,
  "versionHex": "20000000",
  "merkleroot": "8902f1d2c168510d06288da3644214531f46a2c08cc34f2d0710935e20a091c1",
  "tx": [
    {
      "txid": "be852c9b333ec61638ded1cf7b4a050ec36845db0d5797dae3b0bd59d665de8d",
      "hash": "f0c004db4a11c34dbf9653701f69c379712c05a4215f8c1ca72b7e060436d752",
      "version": 1,
      "size": 243,
      "vsize": 216,
      "locktime": 0,
      "vin": [
        {
          "coinbase": "0392ba140432da6d5afabe6d6d920d1ac14c7be0e5718baa9a5429af14bb121ab6ff71e84845299da1edf15592100000000000000008e00b3ddb0f0000000c2f455941324247364c57362f",
          "sequence": 0
        }
      ],
      "vout": [
        {
          "value": 25.00090494,
          "n": 0,
          "scriptPubKey": {
            "asm": "OP_DUP OP_HASH160 81308472f5a29a68cec40cbb4cd3f4be72094456 OP_EQUALVERIFY OP_CHECKSIG",
            "hex": "76a91481308472f5a29a68cec40cbb4cd3f4be7209445688ac",
            "reqSigs": 1,
            "type": "pubkeyhash",
            "addresses": [
              "LX13Z1HZKVzRDabi8CsPdGhp7YbC7Q8qtn"
            ]
          }
        }, 
        {
          "value": 0.00000000,
          "n": 1,
          "scriptPubKey": {
            "asm": "OP_RETURN aa21a9edef1702500f3f06f4ed18df784937f1545abec5bbb9fad9f679076fc8f456d229",
            "hex": "6a24aa21a9edef1702500f3f06f4ed18df784937f1545abec5bbb9fad9f679076fc8f456d229",
            "type": "nulldata"
          }
        }
      ],
      "hex": "010000000001010000000000000000000000000000000000000000000000000000000000000000ffffffff4b0392ba140432da6d5afabe6d6d920d1ac14c7be0e5718baa9a5429af14bb121ab6ff71e84845299da1edf15592100000000000000008e00b3ddb0f0000000c2f455941324247364c57362f00000000027e5a0495000000001976a91481308472f5a29a68cec40cbb4cd3f4be7209445688ac0000000000000000266a24aa21a9edef1702500f3f06f4ed18df784937f1545abec5bbb9fad9f679076fc8f456d2290120000000000000000000000000000000000000000000000000000000000000000000000000"
    }, 
    {
      "txid": "93d5247d2dad9b6b8fdc48c77fd1a49944d6efdcc150d8141957415c0a5bc11f",
      "hash": "93d5247d2dad9b6b8fdc48c77fd1a49944d6efdcc150d8141957415c0a5bc11f",
      "version": 1,
      "size": 225,
      "vsize": 225,
      "locktime": 0,
      "vin": [
        {
          "txid": "64c32695da54965af9ab211145539c4811378ac8bf1138a4204916b6975d3a85",
          "vout": 1,
          "scriptSig": {
            "asm": "3044022008d97f743030144df78e7eac981051717c4c4b3486e18f5be90316a1390ee09e0220304201d7dacf1fd469d8c74f5202328925105dcedac47966be30fef3ef0010e7[ALL] 035fd48e24272d668a38e8b52e074433b0417e5a600b49a2d0ad5ae06ca1869b9d",
            "hex": "473044022008d97f743030144df78e7eac981051717c4c4b3486e18f5be90316a1390ee09e0220304201d7dacf1fd469d8c74f5202328925105dcedac47966be30fef3ef0010e70121035fd48e24272d668a38e8b52e074433b0417e5a600b49a2d0ad5ae06ca1869b9d"
          },
          "sequence": 4294967295
        }
      ],
      "vout": [
        {
          "value": 1.63749194,
          "n": 0,
          "scriptPubKey": {
            "asm": "OP_DUP OP_HASH160 4163b7da674facad4b1cb103e82c94fc09410729 OP_EQUALVERIFY OP_CHECKSIG",
            "hex": "76a9144163b7da674facad4b1cb103e82c94fc0941072988ac",
            "reqSigs": 1,
            "type": "pubkeyhash",
            "addresses": [
              "LRBheDrECmKAZfMpH63sjZ7sUvWbeZZtWK"
            ]
          }
        }, 
        {
          "value": 0.42136333,
          "n": 1,
          "scriptPubKey": {
            "asm": "OP_DUP OP_HASH160 2e2ba5688210b23aff86fd7553c6a1ad1c5d577e OP_EQUALVERIFY OP_CHECKSIG",
            "hex": "76a9142e2ba5688210b23aff86fd7553c6a1ad1c5d577e88ac",
            "reqSigs": 1,
            "type": "pubkeyhash",
            "addresses": [
              "LPS5dd6icianbNcHqZbMk6J1umUfePtf6C"
            ]
          }
        }
      ],
      "hex": "0100000001853a5d97b6164920a43811bfc88a3711489c53451121abf95a9654da9526c364010000006a473044022008d97f743030144df78e7eac981051717c4c4b3486e18f5be90316a1390ee09e0220304201d7dacf1fd469d8c74f5202328925105dcedac47966be30fef3ef0010e70121035fd48e24272d668a38e8b52e074433b0417e5a600b49a2d0ad5ae06ca1869b9dffffffff024a9dc209000000001976a9144163b7da674facad4b1cb103e82c94fc0941072988ac0df38202000000001976a9142e2ba5688210b23aff86fd7553c6a1ad1c5d577e88ac00000000"
    }, 
    {
      "txid": "78e2a684324acd031c844eabbe2b6010c8d8b3961deebd922aa9357f4b616027",
      "hash": "78e2a684324acd031c844eabbe2b6010c8d8b3961deebd922aa9357f4b616027",
      "version": 1,
      "size": 225,
      "vsize": 225,
      "locktime": 0,
      "vin": [
        {
          "txid": "215022f62a304f3e5c6e7e817c25e37d7be328a206b359a868c8238b78e16556",
          "vout": 0,
          "scriptSig": {
            "asm": "304402203b3188a56c29c052502d3355d63c87c4a0b4ffc51041f61621fcb9d4b64f682002203b5b027c4f65845e7b1ebb3cc11f9bd3473c39b80bba84134dbd44c345e7e72e[ALL] 03fa2169e13409bccc4d6535c5566dc8ac34b656b4c188ca1243e4f5555672963c",
            "hex": "47304402203b3188a56c29c052502d3355d63c87c4a0b4ffc51041f61621fcb9d4b64f682002203b5b027c4f65845e7b1ebb3cc11f9bd3473c39b80bba84134dbd44c345e7e72e012103fa2169e13409bccc4d6535c5566dc8ac34b656b4c188ca1243e4f5555672963c"
          },
          "sequence": 4294967295
        }
      ],
      "vout": [
        {
          "value": 1.20434535,
          "n": 0,
          "scriptPubKey": {
            "asm": "OP_DUP OP_HASH160 9d28dcaffb2241de77bd2aa6d582d865752be6c0 OP_EQUALVERIFY OP_CHECKSIG",
            "hex": "76a9149d28dcaffb2241de77bd2aa6d582d865752be6c088ac",
            "reqSigs": 1,
            "type": "pubkeyhash",
            "addresses": [
              "LZYwJUZtHZwba7LFFB7zPY5YH5Mmh4WRLN"
            ]
          }
        }, 
        {
          "value": 0.03665378,
          "n": 1,
          "scriptPubKey": {
            "asm": "OP_DUP OP_HASH160 0731dc90ba5888bb0ae92527411bbe8d23ab593b OP_EQUALVERIFY OP_CHECKSIG",
            "hex": "76a9140731dc90ba5888bb0ae92527411bbe8d23ab593b88ac",
            "reqSigs": 1,
            "type": "pubkeyhash",
            "addresses": [
              "LKszizv9dqnBSvb27bPxB9T5N3XEpdv9PC"
            ]
          }
        }
      ],
      "hex": "01000000015665e1788b23c868a859b306a228e37b7de3257c817e6e5c3e4f302af6225021000000006a47304402203b3188a56c29c052502d3355d63c87c4a0b4ffc51041f61621fcb9d4b64f682002203b5b027c4f65845e7b1ebb3cc11f9bd3473c39b80bba84134dbd44c345e7e72e012103fa2169e13409bccc4d6535c5566dc8ac34b656b4c188ca1243e4f5555672963cffffffff0267af2d07000000001976a9149d28dcaffb2241de77bd2aa6d582d865752be6c088ace2ed3700000000001976a9140731dc90ba5888bb0ae92527411bbe8d23ab593b88ac00000000"
    }, 
    {
      "txid": "42c32eedb1a4877555487fcd540267f00b311614a0732b3385c3478b7bdc649f",
      "hash": "42c32eedb1a4877555487fcd540267f00b311614a0732b3385c3478b7bdc649f",
      "version": 1,
      "size": 225,
      "vsize": 225,
      "locktime": 0,
      "vin": [
        {
          "txid": "b2eac93d2e46282192300814909b4078fb9ee57edfc18147122d02b33017032d",
          "vout": 0,
          "scriptSig": {
            "asm": "304402201d63808ad10e0313ae7c443f31a23184ead9ac70f3eea9928df0f5b9bf31fd090220070a465d1e62977467b5327b5d554ce8b33be670a7c92c63efe50f93a2e09312[ALL] 02644538221b2f4748e09a4258906bb3a47a4e1191270dc91edba93f187dd86e7b",
            "hex": "47304402201d63808ad10e0313ae7c443f31a23184ead9ac70f3eea9928df0f5b9bf31fd090220070a465d1e62977467b5327b5d554ce8b33be670a7c92c63efe50f93a2e09312012102644538221b2f4748e09a4258906bb3a47a4e1191270dc91edba93f187dd86e7b"
          },
          "sequence": 4294967295
        }
      ],
      "vout": [
        {
          "value": 0.30000000,
          "n": 0,
          "scriptPubKey": {
            "asm": "OP_DUP OP_HASH160 436845d6e160a1728fb25542f8188d152c133838 OP_EQUALVERIFY OP_CHECKSIG",
            "hex": "76a914436845d6e160a1728fb25542f8188d152c13383888ac",
            "reqSigs": 1,
            "type": "pubkeyhash",
            "addresses": [
              "LRNNT4sMGhd4erCeU2Ge7vyLphEZvje2kd"
            ]
          }
        }, 
        {
          "value": 0.02517085,
          "n": 1,
          "scriptPubKey": {
            "asm": "OP_DUP OP_HASH160 5830e539661309d46704064adc4809d2d10eb6c2 OP_EQUALVERIFY OP_CHECKSIG",
            "hex": "76a9145830e539661309d46704064adc4809d2d10eb6c288ac",
            "reqSigs": 1,
            "type": "pubkeyhash",
            "addresses": [
              "LTGGJQXqAxNyNYReTmtq9GDB4PFH1N4pJ7"
            ]
          }
        }
      ],
      "hex": "01000000012d031730b3022d124781c1df7ee59efb78409b90140830922128462e3dc9eab2000000006a47304402201d63808ad10e0313ae7c443f31a23184ead9ac70f3eea9928df0f5b9bf31fd090220070a465d1e62977467b5327b5d554ce8b33be670a7c92c63efe50f93a2e09312012102644538221b2f4748e09a4258906bb3a47a4e1191270dc91edba93f187dd86e7bffffffff0280c3c901000000001976a914436845d6e160a1728fb25542f8188d152c13383888ac5d682600000000001976a9145830e539661309d46704064adc4809d2d10eb6c288ac00000000"
    }, 
    {
      "txid": "f1c85a529448937f208f24c1d5c45a209e08fe3b5330ae8fbc38060db4c2a70b",
      "hash": "f1c85a529448937f208f24c1d5c45a209e08fe3b5330ae8fbc38060db4c2a70b",
      "version": 1,
      "size": 226,
      "vsize": 226,
      "locktime": 0,
      "vin": [
        {
          "txid": "5e3fe287e8ee93ac5e2dcf8e8237701df7f0214deaef7c521d6aafb426dc1cf0",
          "vout": 1,
          "scriptSig": {
            "asm": "3045022100809ca30be06d29efa1c5aac05ed416587db285d6b5754e647844394d842b1cff02204f87527975ecdeab6a18de75894e03d62d1c0e3c4394900768032c71f853880f[ALL] 03c89614a2c8ac9d5ea40cb1a2a1ffaef3e4b2b9176c49d37f8483d48826c5ae0d",
            "hex": "483045022100809ca30be06d29efa1c5aac05ed416587db285d6b5754e647844394d842b1cff02204f87527975ecdeab6a18de75894e03d62d1c0e3c4394900768032c71f853880f012103c89614a2c8ac9d5ea40cb1a2a1ffaef3e4b2b9176c49d37f8483d48826c5ae0d"
          },
          "sequence": 4294967295
        }
      ],
      "vout": [
        {
          "value": 0.00100475,
          "n": 0,
          "scriptPubKey": {
            "asm": "OP_DUP OP_HASH160 0b9a5e14bdb8ca7ed511eea44a77313982b3a166 OP_EQUALVERIFY OP_CHECKSIG",
            "hex": "76a9140b9a5e14bdb8ca7ed511eea44a77313982b3a16688ac",
            "reqSigs": 1,
            "type": "pubkeyhash",
            "addresses": [
              "LLHJcxwiXxyjaYwVAtbhLzCbd97aBhENn8"
            ]
          }
        }, 
        {
          "value": 0.01000000,
          "n": 1,
          "scriptPubKey": {
            "asm": "OP_DUP OP_HASH160 1aa945e60479f6119c36e1c133974af669c3e3d2 OP_EQUALVERIFY OP_CHECKSIG",
            "hex": "76a9141aa945e60479f6119c36e1c133974af669c3e3d288ac",
            "reqSigs": 1,
            "type": "pubkeyhash",
            "addresses": [
              "LMevcVpTw8mC8AJrHUqbkmf9hmJwmgLvrz"
            ]
          }
        }
      ],
      "hex": "0100000001f01cdc26b4af6a1d527cefea4d21f0f71d7037828ecf2d5eac93eee887e23f5e010000006b483045022100809ca30be06d29efa1c5aac05ed416587db285d6b5754e647844394d842b1cff02204f87527975ecdeab6a18de75894e03d62d1c0e3c4394900768032c71f853880f012103c89614a2c8ac9d5ea40cb1a2a1ffaef3e4b2b9176c49d37f8483d48826c5ae0dffffffff027b880100000000001976a9140b9a5e14bdb8ca7ed511eea44a77313982b3a16688ac40420f00000000001976a9141aa945e60479f6119c36e1c133974af669c3e3d288ac00000000"
    }
  ],
  "time": 1517148590,
  "mediantime": 1517148347,
  "nonce": 2672040976,
  "bits": "1a047f14",
  "difficulty": 3731199.183374282,
  "chainwork": "00000000000000000000000000000000000000000000003321b4a7b2d98d79ee",
  "previousblockhash": "0fb5e282f283252e4d2de2a44102590ca9111684987ff22f4f127fc87deced40",
  "nextblockhash": "aa880ac2018f842fbfae36f006ef253b26e0e4b9edb4a4276181b1829fcef96e"
}
