{
  "hash": "858a1cc32b322d9e13974680707075f438c0ffcca7dfdd191d00e2072d6859cc",
  "confirmations": 852,
  "strippedsize": 255,
  "size": 255,
  "weight": 1020,
  "height": 1360142,
  "version": 536870912,
  "versionHex": "20000000",
  "merkleroot": "582e0383fb4beeaf994b30fb532f0a4fe64b0daa7adcda040752428e64a346c6",
  "tx": [
    {
      "txid": "582e0383fb4beeaf994b30fb532f0a4fe64b0daa7adcda040752428e64a346c6",
      "hash": "582e0383fb4beeaf994b30fb532f0a4fe64b0daa7adcda040752428e64a346c6",
      "version": 1,
      "size": 174,
      "vsize": 174,
      "locktime": 0,
      "vin": [
        {
          "coinbase": "030ec1141c4d696e656420627920416e74506f6f6c20626a331f205a7167ce0156fabe6d6dac22be85b7f836b6d30490e3b523b7815a3ed3113f799395135564b73d377b8a04000000000000005f1500000000000001000000",
          "sequence": 4294967295
        }
      ],
      "vout": [
        {
          "value": 25.00000000,
          "n": 0,
          "scriptPubKey": {
            "asm": "OP_DUP OP_HASH160 0ff3ccc5e8be88afe24b5d634e5852d474dbdff1 OP_EQUALVERIFY OP_CHECKSIG",
            "hex": "76a9140ff3ccc5e8be88afe24b5d634e5852d474dbdff188ac",
            "reqSigs": 1,
            "type": "pubkeyhash",
            "addresses": [
              "LLgJTbzZMsRTCUF1NtvvL9SR1a4pVieW89"
            ]
          }
        }
      ],
      "hex": "01000000010000000000000000000000000000000000000000000000000000000000000000ffffffff59030ec1141c4d696e656420627920416e74506f6f6c20626a331f205a7167ce0156fabe6d6dac22be85b7f836b6d30490e3b523b7815a3ed3113f799395135564b73d377b8a04000000000000005f1500000000000001000000ffffffff0100f90295000000001976a9140ff3ccc5e8be88afe24b5d634e5852d474dbdff188ac00000000"
    }
  ],
  "time": 1517381582,
  "mediantime": 1517380372,
  "nonce": 1060574788,
  "bits": "1a042eae",
  "difficulty": 4011378.762614286,
  "chainwork": "000000000000000000000000000000000000000000000034a995edd8b6597d9e",
  "previousblockhash": "96d0d36755656a5cc6cee29f211f0578e047fc4b6c0cfcf809e4271acf044576",
  "nextblockhash": "57003fb97475ea62f0752292aa3dbcda063038887975222b391cf430fedba556"
}
