{
  "hash": "85a8f51b8c5b64559c8520d71cf37ad0e0ddc621cdea165a0c22df33165286af",
  "confirmations": 3391,
  "strippedsize": 234,
  "size": 234,
  "weight": 936,
  "height": 1357604,
  "version": 536870912,
  "versionHex": "20000000",
  "merkleroot": "83229c9134d5a7eeeb09f26f6b67ba2402aed454ba74dd31f502294acf90e563",
  "tx": [
    {
      "txid": "83229c9134d5a7eeeb09f26f6b67ba2402aed454ba74dd31f502294acf90e563",
      "hash": "83229c9134d5a7eeeb09f26f6b67ba2402aed454ba74dd31f502294acf90e563",
      "version": 1,
      "size": 153,
      "vsize": 153,
      "locktime": 0,
      "vin": [
        {
          "coinbase": "0324b714045a6bf64a2cfabe6d6dbf3a003c2f232a98625c4462ed4944b3217c5896a504a7b7714236c7ed07952b4000000000000000042f4c502f085c0001a91c000000",
          "sequence": 4294967295
        }
      ],
      "vout": [
        {
          "value": 25.00000000,
          "n": 0,
          "scriptPubKey": {
            "asm": "OP_DUP OP_HASH160 57757ed2ecf2052ff3126c397aca7defb9ca2cec OP_EQUALVERIFY OP_CHECKSIG",
            "hex": "76a91457757ed2ecf2052ff3126c397aca7defb9ca2cec88ac",
            "reqSigs": 1,
            "type": "pubkeyhash",
            "addresses": [
              "LTCPodGk5FwcJaRzH9yKnwicxzFUbxp6tN"
            ]
          }
        }
      ],
      "hex": "01000000010000000000000000000000000000000000000000000000000000000000000000ffffffff440324b714045a6bf64a2cfabe6d6dbf3a003c2f232a98625c4462ed4944b3217c5896a504a7b7714236c7ed07952b4000000000000000042f4c502f085c0001a91c000000ffffffff0100f90295000000001976a91457757ed2ecf2052ff3126c397aca7defb9ca2cec88ac00000000"
    }
  ],
  "time": 1517024842,
  "mediantime": 1517024324,
  "nonce": 3257806356,
  "bits": "1a047f14",
  "difficulty": 3731199.183374282,
  "chainwork": "0000000000000000000000000000000000000000000000325e70353b666a58c2",
  "previousblockhash": "0e8ebb9a3ca3d0066801591b23ccbdc764904c0fd2f2384066a223896ae3c13a",
  "nextblockhash": "4d6cf6d82aec4764247a781e4a769c160a92bdc338d88a4120dbedf9dd9fc23e"
}
