{
  "hash": "85db9eb47357f07dbc0ff65657ee1be7025db20d91882914d8a8930eb8e2a820",
  "confirmations": 3482,
  "strippedsize": 2630,
  "size": 2666,
  "weight": 10556,
  "height": 1357513,
  "version": 536870912,
  "versionHex": "20000000",
  "merkleroot": "434d18764f6c4fe26030d14e7392f95d119f6899f2bfd697bb9f2252b59a1a4c",
  "tx": [
    {
      "txid": "5e895d1088ca11ca3ebcf9c778621b4287e130f479387e5a84423ccd1db21816",
      "hash": "7521472b597abd590d6b46462699de4d3e41b2a2e8993e3f5754a818c36640d2",
      "version": 1,
      "size": 236,
      "vsize": 209,
      "locktime": 0,
      "vin": [
        {
          "coinbase": "03c9b614045a6bc0a82cfabe6d6d66c3c47f57ca64d7a7db7d77a8d9f3e320f50f9b0f22a73f46d49e1daf6e88d54000000000000000042f4c502f081600bb3e4c000000",
          "sequence": 4294967295
        }
      ],
      "vout": [
        {
          "value": 25.00834600,
          "n": 0,
          "scriptPubKey": {
            "asm": "OP_DUP OP_HASH160 57757ed2ecf2052ff3126c397aca7defb9ca2cec OP_EQUALVERIFY OP_CHECKSIG",
            "hex": "76a91457757ed2ecf2052ff3126c397aca7defb9ca2cec88ac",
            "reqSigs": 1,
            "type": "pubkeyhash",
            "addresses": [
              "LTCPodGk5FwcJaRzH9yKnwicxzFUbxp6tN"
            ]
          }
        }, 
        {
          "value": 0.00000000,
          "n": 1,
          "scriptPubKey": {
            "asm": "OP_RETURN aa21a9ed41f69efa758810376e0fb65f1304776b8b4904092a01d4ad75126ec356e86bcb",
            "hex": "6a24aa21a9ed41f69efa758810376e0fb65f1304776b8b4904092a01d4ad75126ec356e86bcb",
            "type": "nulldata"
          }
        }
      ],
      "hex": "010000000001010000000000000000000000000000000000000000000000000000000000000000ffffffff4403c9b614045a6bc0a82cfabe6d6d66c3c47f57ca64d7a7db7d77a8d9f3e320f50f9b0f22a73f46d49e1daf6e88d54000000000000000042f4c502f081600bb3e4c000000ffffffff0228b50f95000000001976a91457757ed2ecf2052ff3126c397aca7defb9ca2cec88ac0000000000000000266a24aa21a9ed41f69efa758810376e0fb65f1304776b8b4904092a01d4ad75126ec356e86bcb0120000000000000000000000000000000000000000000000000000000000000000000000000"
    }, 
    {
      "txid": "d24d8abd90565d735475a9abe9b46d38bf157073b98f1a25c7a159806ed7a505",
      "hash": "d24d8abd90565d735475a9abe9b46d38bf157073b98f1a25c7a159806ed7a505",
      "version": 1,
      "size": 192,
      "vsize": 192,
      "locktime": 0,
      "vin": [
        {
          "txid": "f9c7591d88a4fd40c4b7892792c01d4d2a13c6ee46a03aad20ae3cf4ebb15228",
          "vout": 1,
          "scriptSig": {
            "asm": "30450221009899c86c38da210b082dfb6594d98a0bcc38fc79b355d2cb58fb4036f9f1306c02205fa035761dd27a8db45323477e2a10cea600d63e4236e34f8009fbef058a4b9d[ALL] 021fd63f6b16bfb77a8d004007aa54fd698b2070b32188f0925d578f315ed3138b",
            "hex": "4830450221009899c86c38da210b082dfb6594d98a0bcc38fc79b355d2cb58fb4036f9f1306c02205fa035761dd27a8db45323477e2a10cea600d63e4236e34f8009fbef058a4b9d0121021fd63f6b16bfb77a8d004007aa54fd698b2070b32188f0925d578f315ed3138b"
          },
          "sequence": 4294967295
        }
      ],
      "vout": [
        {
          "value": 2.72149035,
          "n": 0,
          "scriptPubKey": {
            "asm": "OP_DUP OP_HASH160 ac149eb65dc4a0b346c9b40e0077708b4ae1e0d8 OP_EQUALVERIFY OP_CHECKSIG",
            "hex": "76a914ac149eb65dc4a0b346c9b40e0077708b4ae1e0d888ac",
            "reqSigs": 1,
            "type": "pubkeyhash",
            "addresses": [
              "LauqBueR9YNCv8yXvNUVvMVdkih3fSMBWH"
            ]
          }
        }
      ],
      "hex": "01000000012852b1ebf43cae20ad3aa046eec6132a4d1dc0922789b7c440fda4881d59c7f9010000006b4830450221009899c86c38da210b082dfb6594d98a0bcc38fc79b355d2cb58fb4036f9f1306c02205fa035761dd27a8db45323477e2a10cea600d63e4236e34f8009fbef058a4b9d0121021fd63f6b16bfb77a8d004007aa54fd698b2070b32188f0925d578f315ed3138bffffffff012baa3810000000001976a914ac149eb65dc4a0b346c9b40e0077708b4ae1e0d888ac00000000"
    }, 
    {
      "txid": "c0795c1aecad22ac596db5a03b286b689145549e6344cf331e7f34ad4e9a473c",
      "hash": "c0795c1aecad22ac596db5a03b286b689145549e6344cf331e7f34ad4e9a473c",
      "version": 1,
      "size": 815,
      "vsize": 815,
      "locktime": 0,
      "vin": [
        {
          "txid": "a1ddb811f85a53a6c8399ecd544f9fac8b48b65a5dbc031eb5683ba4f88e9639",
          "vout": 2,
          "scriptSig": {
            "asm": "30440220298032e00adb8cd6250843cb5b1f3f11d09a821413d61a67c8c79c1f9574f8b502201b27d8fd9a27029cac3aa1ad61aec2187a1e327a78f0ec86f10bdd18ac3a87c9[ALL] 0305b3e93841b23f62c0d8e2279b12ab9636017a3085b9789bae79f73bc5074116",
            "hex": "4730440220298032e00adb8cd6250843cb5b1f3f11d09a821413d61a67c8c79c1f9574f8b502201b27d8fd9a27029cac3aa1ad61aec2187a1e327a78f0ec86f10bdd18ac3a87c901210305b3e93841b23f62c0d8e2279b12ab9636017a3085b9789bae79f73bc5074116"
          },
          "sequence": 4294967295
        }, 
        {
          "txid": "2c0ce93a855fcc55d9345e912cbc8644639ebff9fdbf5268bbfe35bb117a5a52",
          "vout": 0,
          "scriptSig": {
            "asm": "3045022100ce79bf949c6810204e60c524f21d615b44aea96f3ae12a19392f1b494a4062a602206bb099cababa971c8a722aa2af7bd7b5edf1250d86118d7504311190b728aac0[ALL] 020c85b45a6dc463283d2fa3e607bc45e547146dabf6d2fef8e75d51faae3630c5",
            "hex": "483045022100ce79bf949c6810204e60c524f21d615b44aea96f3ae12a19392f1b494a4062a602206bb099cababa971c8a722aa2af7bd7b5edf1250d86118d7504311190b728aac00121020c85b45a6dc463283d2fa3e607bc45e547146dabf6d2fef8e75d51faae3630c5"
          },
          "sequence": 4294967295
        }, 
        {
          "txid": "42678b217a2f3742e01e82ebae3b12b312c7020df8539085a0e2c6205d145d89",
          "vout": 0,
          "scriptSig": {
            "asm": "3044022060404a7afbcba513a9d561533cb3d07fc7e27b995cbb39603c7821ecbcf10592022001c892d5c7bd6f5e88ddb191fb933d57d2a4d207f235605cf0c27745ba0fa352[ALL] 0261e704e4f4c3be7c22f492ad59eac80211e5c8476d17da49679472b6247ccb47",
            "hex": "473044022060404a7afbcba513a9d561533cb3d07fc7e27b995cbb39603c7821ecbcf10592022001c892d5c7bd6f5e88ddb191fb933d57d2a4d207f235605cf0c27745ba0fa35201210261e704e4f4c3be7c22f492ad59eac80211e5c8476d17da49679472b6247ccb47"
          },
          "sequence": 4294967295
        }, 
        {
          "txid": "7af711233449c1f9311e044f376c4a925cba8c0b3f2e48c5940594866cfbedde",
          "vout": 2,
          "scriptSig": {
            "asm": "30450221009b37e32e842221c0c920a27d74ce9c9d1cea5712ab39faea4440d6dc8502b8d1022055b1254f2b0c4e1d737d80183a5f5c4509e6229369b43c9a57ad960495040e33[ALL] 0302a9f10dead9a82d4cd2c555e0191025f94be3ea95bc95e05545612858f49189",
            "hex": "4830450221009b37e32e842221c0c920a27d74ce9c9d1cea5712ab39faea4440d6dc8502b8d1022055b1254f2b0c4e1d737d80183a5f5c4509e6229369b43c9a57ad960495040e3301210302a9f10dead9a82d4cd2c555e0191025f94be3ea95bc95e05545612858f49189"
          },
          "sequence": 4294967295
        }, 
        {
          "txid": "7620b68eb1ba4c42e80e29e4bc12c8697ae25b1528cab3c853c0c785408f76d6",
          "vout": 1,
          "scriptSig": {
            "asm": "304402200e4b8e7ff556070c88a5887cb4c449b0cc83db93ed7dcca8a1e981d413c10e9d02205a987c6201762cbeb67e2b2ae908d48d1388fe19af367a768c1f04336c080c01[ALL] 02cd4af388f6e2845c8e794198bfe6df857d08b92b7ef1dc776a6c788b1a6de63d",
            "hex": "47304402200e4b8e7ff556070c88a5887cb4c449b0cc83db93ed7dcca8a1e981d413c10e9d02205a987c6201762cbeb67e2b2ae908d48d1388fe19af367a768c1f04336c080c01012102cd4af388f6e2845c8e794198bfe6df857d08b92b7ef1dc776a6c788b1a6de63d"
          },
          "sequence": 4294967295
        }
      ],
      "vout": [
        {
          "value": 144.09670000,
          "n": 0,
          "scriptPubKey": {
            "asm": "OP_DUP OP_HASH160 ddb829028cfa1cd26e21f6c24f872a3d4b43ad04 OP_EQUALVERIFY OP_CHECKSIG",
            "hex": "76a914ddb829028cfa1cd26e21f6c24f872a3d4b43ad0488ac",
            "reqSigs": 1,
            "type": "pubkeyhash",
            "addresses": [
              "LfSJDHKe5wMVcrTAGfE9r7zjVEiBCiZRRS"
            ]
          }
        }, 
        {
          "value": 362.49633287,
          "n": 1,
          "scriptPubKey": {
            "asm": "OP_DUP OP_HASH160 eced1aeb88a579f989ba6a68a1db3a8a088d3278 OP_EQUALVERIFY OP_CHECKSIG",
            "hex": "76a914eced1aeb88a579f989ba6a68a1db3a8a088d327888ac",
            "reqSigs": 1,
            "type": "pubkeyhash",
            "addresses": [
              "LgphmqgGwD1hd6WDCQvdKSbPnss27MQyBn"
            ]
          }
        }
      ],
      "hex": "010000000539968ef8a43b68b51e03bc5d5ab6488bac9f4f54cd9e39c8a6535af811b8dda1020000006a4730440220298032e00adb8cd6250843cb5b1f3f11d09a821413d61a67c8c79c1f9574f8b502201b27d8fd9a27029cac3aa1ad61aec2187a1e327a78f0ec86f10bdd18ac3a87c901210305b3e93841b23f62c0d8e2279b12ab9636017a3085b9789bae79f73bc5074116ffffffff525a7a11bb35febb6852bffdf9bf9e634486bc2c915e34d955cc5f853ae90c2c000000006b483045022100ce79bf949c6810204e60c524f21d615b44aea96f3ae12a19392f1b494a4062a602206bb099cababa971c8a722aa2af7bd7b5edf1250d86118d7504311190b728aac00121020c85b45a6dc463283d2fa3e607bc45e547146dabf6d2fef8e75d51faae3630c5ffffffff895d145d20c6e2a0859053f80d02c712b3123baeeb821ee042372f7a218b6742000000006a473044022060404a7afbcba513a9d561533cb3d07fc7e27b995cbb39603c7821ecbcf10592022001c892d5c7bd6f5e88ddb191fb933d57d2a4d207f235605cf0c27745ba0fa35201210261e704e4f4c3be7c22f492ad59eac80211e5c8476d17da49679472b6247ccb47ffffffffdeedfb6c86940594c5482e3f0b8cba5c924a6c374f041e31f9c149342311f77a020000006b4830450221009b37e32e842221c0c920a27d74ce9c9d1cea5712ab39faea4440d6dc8502b8d1022055b1254f2b0c4e1d737d80183a5f5c4509e6229369b43c9a57ad960495040e3301210302a9f10dead9a82d4cd2c555e0191025f94be3ea95bc95e05545612858f49189ffffffffd6768f4085c7c053c8b3ca28155be27a69c812bce4290ee8424cbab18eb62076010000006a47304402200e4b8e7ff556070c88a5887cb4c449b0cc83db93ed7dcca8a1e981d413c10e9d02205a987c6201762cbeb67e2b2ae908d48d1388fe19af367a768c1f04336c080c01012102cd4af388f6e2845c8e794198bfe6df857d08b92b7ef1dc776a6c788b1a6de63dffffffff02701de25a030000001976a914ddb829028cfa1cd26e21f6c24f872a3d4b43ad0488ac0782a570080000001976a914eced1aeb88a579f989ba6a68a1db3a8a088d327888ac00000000"
    }, 
    {
      "txid": "f952fde9b36f72a3011d3e6b2252a6fbdc813b09db46bac5976e4f3616424920",
      "hash": "f952fde9b36f72a3011d3e6b2252a6fbdc813b09db46bac5976e4f3616424920",
      "version": 2,
      "size": 223,
      "vsize": 223,
      "locktime": 1357511,
      "vin": [
        {
          "txid": "507556bb34903be0916e85a71a9808d97012f1cff87b707d8d966d4129d5470c",
          "vout": 0,
          "scriptSig": {
            "asm": "3044022071657a88a898674d457b20f95d43d2b180ab85719f0bd5c724a8d4d2eb55caca02200d6c70feefc1fdb1ea4e6513e362d6278040798226e7b3f470aa4d84686b8c2e[ALL] 03dacda7b6911d6b319247d57e15d62d0171275ae693f8e2f47394a667dd413138",
            "hex": "473044022071657a88a898674d457b20f95d43d2b180ab85719f0bd5c724a8d4d2eb55caca02200d6c70feefc1fdb1ea4e6513e362d6278040798226e7b3f470aa4d84686b8c2e012103dacda7b6911d6b319247d57e15d62d0171275ae693f8e2f47394a667dd413138"
          },
          "sequence": 4294967294
        }
      ],
      "vout": [
        {
          "value": 0.32452600,
          "n": 0,
          "scriptPubKey": {
            "asm": "OP_DUP OP_HASH160 31ea42b09902e668c14f3c9f7d2408dbfb34e8f2 OP_EQUALVERIFY OP_CHECKSIG",
            "hex": "76a91431ea42b09902e668c14f3c9f7d2408dbfb34e8f288ac",
            "reqSigs": 1,
            "type": "pubkeyhash",
            "addresses": [
              "LPmt1KQK8JrxRLF23xAsTZC9nay5GJsfP9"
            ]
          }
        }, 
        {
          "value": 0.04000000,
          "n": 1,
          "scriptPubKey": {
            "asm": "OP_HASH160 bbca105766e10e5a17cc5788223e35a447e1bf34 OP_EQUAL",
            "hex": "a914bbca105766e10e5a17cc5788223e35a447e1bf3487",
            "reqSigs": 1,
            "type": "scripthash",
            "addresses": [
              "MR26ewh6TBNaoZGUkoAzSAQyGF5w3aiWEJ"
            ]
          }
        }
      ],
      "hex": "02000000010c47d529416d968d7d707bf8cff11270d908981aa7856e91e03b9034bb567550000000006a473044022071657a88a898674d457b20f95d43d2b180ab85719f0bd5c724a8d4d2eb55caca02200d6c70feefc1fdb1ea4e6513e362d6278040798226e7b3f470aa4d84686b8c2e012103dacda7b6911d6b319247d57e15d62d0171275ae693f8e2f47394a667dd413138feffffff02f82fef01000000001976a91431ea42b09902e668c14f3c9f7d2408dbfb34e8f288ac00093d000000000017a914bbca105766e10e5a17cc5788223e35a447e1bf3487c7b61400"
    }, 
    {
      "txid": "6f95589065ee328069f738179b08e88d0c9de3cf0f63a5d3b6983f860a58eb12",
      "hash": "6f95589065ee328069f738179b08e88d0c9de3cf0f63a5d3b6983f860a58eb12",
      "version": 1,
      "size": 225,
      "vsize": 225,
      "locktime": 0,
      "vin": [
        {
          "txid": "9e028b86e46d9a4a786ed637c6f3679077a91a83490878b4e9b572b71d37dd51",
          "vout": 1,
          "scriptSig": {
            "asm": "304402204e8fa053f90a824f89ee1b1ee22499d336b29a8d5b2fdc37ffe0664a91c8ab38022040346ed1fb9f51f72db2a36052e94769de78313d25e10ff83ccd6f31908a9020[ALL] 02b5eb8245dd0cf0c59064215d426378217233009cddb176e370045b072f944a02",
            "hex": "47304402204e8fa053f90a824f89ee1b1ee22499d336b29a8d5b2fdc37ffe0664a91c8ab38022040346ed1fb9f51f72db2a36052e94769de78313d25e10ff83ccd6f31908a9020012102b5eb8245dd0cf0c59064215d426378217233009cddb176e370045b072f944a02"
          },
          "sequence": 4294967295
        }
      ],
      "vout": [
        {
          "value": 0.13350962,
          "n": 0,
          "scriptPubKey": {
            "asm": "OP_DUP OP_HASH160 48097f4ba56efc19caf1a4800463b9f4e5a819b1 OP_EQUALVERIFY OP_CHECKSIG",
            "hex": "76a91448097f4ba56efc19caf1a4800463b9f4e5a819b188ac",
            "reqSigs": 1,
            "type": "pubkeyhash",
            "addresses": [
              "LRnrHuTE4uhx79U2hUXGXMzAu634MhycoA"
            ]
          }
        }, 
        {
          "value": 0.07601784,
          "n": 1,
          "scriptPubKey": {
            "asm": "OP_DUP OP_HASH160 595a04fb42f1d4700de4a08f47f522fecc597e7c OP_EQUALVERIFY OP_CHECKSIG",
            "hex": "76a914595a04fb42f1d4700de4a08f47f522fecc597e7c88ac",
            "reqSigs": 1,
            "type": "pubkeyhash",
            "addresses": [
              "LTNQEwuupjPxGZJC28GHV9yjmLPx9rArdT"
            ]
          }
        }
      ],
      "hex": "010000000151dd371db772b5e9b4780849831aa9779067f3c637d66e784a9a6de4868b029e010000006a47304402204e8fa053f90a824f89ee1b1ee22499d336b29a8d5b2fdc37ffe0664a91c8ab38022040346ed1fb9f51f72db2a36052e94769de78313d25e10ff83ccd6f31908a9020012102b5eb8245dd0cf0c59064215d426378217233009cddb176e370045b072f944a02ffffffff0232b8cb00000000001976a91448097f4ba56efc19caf1a4800463b9f4e5a819b188ac78fe7300000000001976a914595a04fb42f1d4700de4a08f47f522fecc597e7c88ac00000000"
    }, 
    {
      "txid": "5ff3501ff877ae8608064159ac38919cfe9d492ac842927bea4bcbe6c724cad4",
      "hash": "5ff3501ff877ae8608064159ac38919cfe9d492ac842927bea4bcbe6c724cad4",
      "version": 1,
      "size": 225,
      "vsize": 225,
      "locktime": 0,
      "vin": [
        {
          "txid": "4b7e333b3132f1e75cc81aee844bd1d2ed04813fbc835aadcf050128cc0269a1",
          "vout": 2,
          "scriptSig": {
            "asm": "304402206b3b0283f9407dea0dc722838a13c5b9dab086daf652bd13fa4e005135d8071802207cd48c36b5c12aae9bbad8a2e880d9474e9561abe92991afc54dfb6dc5d1e8e2[ALL] 021ba1fe3fdfbd71f49d5448ef1170c69dfa1653cd4ed16d91b9878dd251182d70",
            "hex": "47304402206b3b0283f9407dea0dc722838a13c5b9dab086daf652bd13fa4e005135d8071802207cd48c36b5c12aae9bbad8a2e880d9474e9561abe92991afc54dfb6dc5d1e8e20121021ba1fe3fdfbd71f49d5448ef1170c69dfa1653cd4ed16d91b9878dd251182d70"
          },
          "sequence": 4294967295
        }
      ],
      "vout": [
        {
          "value": 0.05186581,
          "n": 0,
          "scriptPubKey": {
            "asm": "OP_DUP OP_HASH160 f7de1b7122a7b8138f814c1020ca82778091ba99 OP_EQUALVERIFY OP_CHECKSIG",
            "hex": "76a914f7de1b7122a7b8138f814c1020ca82778091ba9988ac",
            "reqSigs": 1,
            "type": "pubkeyhash",
            "addresses": [
              "LhpZEsczfzwSEujheEQT5sZsJBLHY5fz8k"
            ]
          }
        }, 
        {
          "value": 0.25000000,
          "n": 1,
          "scriptPubKey": {
            "asm": "OP_DUP OP_HASH160 cdd8e7e94ed61552e5b1bad2d99bea7fe87e65c0 OP_EQUALVERIFY OP_CHECKSIG",
            "hex": "76a914cdd8e7e94ed61552e5b1bad2d99bea7fe87e65c088ac",
            "reqSigs": 1,
            "type": "pubkeyhash",
            "addresses": [
              "LdzNdRanLf5RG6NVEUM8ehN9gZocLGWjCG"
            ]
          }
        }
      ],
      "hex": "0100000001a16902cc280105cfad5a83bc3f8104edd2d14b84ee1ac85ce7f132313b337e4b020000006a47304402206b3b0283f9407dea0dc722838a13c5b9dab086daf652bd13fa4e005135d8071802207cd48c36b5c12aae9bbad8a2e880d9474e9561abe92991afc54dfb6dc5d1e8e20121021ba1fe3fdfbd71f49d5448ef1170c69dfa1653cd4ed16d91b9878dd251182d70ffffffff0215244f00000000001976a914f7de1b7122a7b8138f814c1020ca82778091ba9988ac40787d01000000001976a914cdd8e7e94ed61552e5b1bad2d99bea7fe87e65c088ac00000000"
    }, 
    {
      "txid": "c9b1a84cae08d0950edb437f6cf18799c6fc1c9e7d05b6786164d233dec97cbf",
      "hash": "c9b1a84cae08d0950edb437f6cf18799c6fc1c9e7d05b6786164d233dec97cbf",
      "version": 2,
      "size": 669,
      "vsize": 669,
      "locktime": 1357511,
      "vin": [
        {
          "txid": "094fcefc0df3ea8e1332cca79ca96acf8876a6107e60ea7d693e9aa35d661878",
          "vout": 0,
          "scriptSig": {
            "asm": "3045022100b20de2cf97fe40c8976d27ca52ffa441eb1ef187aff216405a2a20fbba75803a022069b791444517e8a244714d8cccfa1619dc18d00e7abffd72be38c1836658144c[ALL] 02742699a503b0f9fb1e830c41cd23d8792f94667c1a6346d0d0b6ce8ce17afa7f",
            "hex": "483045022100b20de2cf97fe40c8976d27ca52ffa441eb1ef187aff216405a2a20fbba75803a022069b791444517e8a244714d8cccfa1619dc18d00e7abffd72be38c1836658144c012102742699a503b0f9fb1e830c41cd23d8792f94667c1a6346d0d0b6ce8ce17afa7f"
          },
          "sequence": 4294967294
        }, 
        {
          "txid": "23253eefde22287713fbce0e7a1a0f1fd305071b4911f5a4d335166f71c821f3",
          "vout": 0,
          "scriptSig": {
            "asm": "30450221008e4f6004beeddc6a33e31d24c4e23b7c5bb26b6affae50a562676bed33946bf0022034c403073a6ed98beac14fe87c9606956f113fc39e48bc630f622657a1443bf6[ALL] 0225ef8305cedc40be2f37aa75c4b34061e44a4a4e8e4d44b929bc46e762f1fbbf",
            "hex": "4830450221008e4f6004beeddc6a33e31d24c4e23b7c5bb26b6affae50a562676bed33946bf0022034c403073a6ed98beac14fe87c9606956f113fc39e48bc630f622657a1443bf601210225ef8305cedc40be2f37aa75c4b34061e44a4a4e8e4d44b929bc46e762f1fbbf"
          },
          "sequence": 4294967294
        }, 
        {
          "txid": "6e83760bb8525044905ea0f4e58feea15c8e0fbe453d0f44bca2aee6ae1442d7",
          "vout": 2,
          "scriptSig": {
            "asm": "304402203b063d05bc59c92daaf39a096761d4a7aa64fee8215548475f6e21e4e65e56aa02204204585468516b9974a532bdc378a20f2622495a635ce158397fd720cbfc2cbc[ALL] 0276c41e4f29eb759ecae9f77127ad1e2b3d92c441beb0a6f7f2c6b171754c64c7",
            "hex": "47304402203b063d05bc59c92daaf39a096761d4a7aa64fee8215548475f6e21e4e65e56aa02204204585468516b9974a532bdc378a20f2622495a635ce158397fd720cbfc2cbc01210276c41e4f29eb759ecae9f77127ad1e2b3d92c441beb0a6f7f2c6b171754c64c7"
          },
          "sequence": 4294967294
        }, 
        {
          "txid": "fc4e0a2ca04286454a3949dd95ed8e06d537523ad263aa35e9525ec88450e14a",
          "vout": 0,
          "scriptSig": {
            "asm": "3045022100bb2c53dcf56c08a6186f710db868d592adee7ed08daeb2fd9a5046b9dbfa8506022068b0fb28901a3f11490aa1425b55f9fc7a67daef442b047fd8d65111cbe68bf5[ALL] 0324b5187d6af9059529025284f40562de4e92ab72368255f205979bcb0aea8c50",
            "hex": "483045022100bb2c53dcf56c08a6186f710db868d592adee7ed08daeb2fd9a5046b9dbfa8506022068b0fb28901a3f11490aa1425b55f9fc7a67daef442b047fd8d65111cbe68bf501210324b5187d6af9059529025284f40562de4e92ab72368255f205979bcb0aea8c50"
          },
          "sequence": 4294967294
        }
      ],
      "vout": [
        {
          "value": 47.50000000,
          "n": 0,
          "scriptPubKey": {
            "asm": "OP_DUP OP_HASH160 48d9c344b8db1877d458fd68153bf76de24187ed OP_EQUALVERIFY OP_CHECKSIG",
            "hex": "76a91448d9c344b8db1877d458fd68153bf76de24187ed88ac",
            "reqSigs": 1,
            "type": "pubkeyhash",
            "addresses": [
              "LRs9nStQt7RKcFXwi194L3REKfbq8mcJx4"
            ]
          }
        }, 
        {
          "value": 0.00981800,
          "n": 1,
          "scriptPubKey": {
            "asm": "OP_DUP OP_HASH160 6358a26a4e25ed60f909beabd8b26615e7d7e710 OP_EQUALVERIFY OP_CHECKSIG",
            "hex": "76a9146358a26a4e25ed60f909beabd8b26615e7d7e71088ac",
            "reqSigs": 1,
            "type": "pubkeyhash",
            "addresses": [
              "LUHFLdeftyecM6aJLJHa8BebCdga7he23y"
            ]
          }
        }
      ],
      "hex": "02000000047818665da39a3e697dea607e10a67688cf6aa99ca7cc32138eeaf30dfcce4f09000000006b483045022100b20de2cf97fe40c8976d27ca52ffa441eb1ef187aff216405a2a20fbba75803a022069b791444517e8a244714d8cccfa1619dc18d00e7abffd72be38c1836658144c012102742699a503b0f9fb1e830c41cd23d8792f94667c1a6346d0d0b6ce8ce17afa7ffefffffff321c8716f1635d3a4f511491b0705d31f0f1a7a0ecefb13772822deef3e2523000000006b4830450221008e4f6004beeddc6a33e31d24c4e23b7c5bb26b6affae50a562676bed33946bf0022034c403073a6ed98beac14fe87c9606956f113fc39e48bc630f622657a1443bf601210225ef8305cedc40be2f37aa75c4b34061e44a4a4e8e4d44b929bc46e762f1fbbffeffffffd74214aee6aea2bc440f3d45be0f8e5ca1ee8fe5f4a05e90445052b80b76836e020000006a47304402203b063d05bc59c92daaf39a096761d4a7aa64fee8215548475f6e21e4e65e56aa02204204585468516b9974a532bdc378a20f2622495a635ce158397fd720cbfc2cbc01210276c41e4f29eb759ecae9f77127ad1e2b3d92c441beb0a6f7f2c6b171754c64c7feffffff4ae15084c85e52e935aa63d23a5237d5068eed95dd49394a458642a02c0a4efc000000006b483045022100bb2c53dcf56c08a6186f710db868d592adee7ed08daeb2fd9a5046b9dbfa8506022068b0fb28901a3f11490aa1425b55f9fc7a67daef442b047fd8d65111cbe68bf501210324b5187d6af9059529025284f40562de4e92ab72368255f205979bcb0aea8c50feffffff02803f1f1b010000001976a91448d9c344b8db1877d458fd68153bf76de24187ed88ac28fb0e00000000001976a9146358a26a4e25ed60f909beabd8b26615e7d7e71088acc7b61400"
    }
  ],
  "time": 1517011112,
  "mediantime": 1517010797,
  "nonce": 823289299,
  "bits": "1a047f14",
  "difficulty": 3731199.183374282,
  "chainwork": "0000000000000000000000000000000000000000000000324a332c48ad947b84",
  "previousblockhash": "513d13142f828408c4147fd1d9f1dd0bb4a381042e847e3b7b47a6000459bc7b",
  "nextblockhash": "07b445c2fce475d29a9036201972125980a781062a0b9195366dc51734039319"
}
