{
  "hash": "864368e7d69f92c56f63ea498258595e9edcda1fc6c608600284b12c54a8af85",
  "confirmations": 2469,
  "strippedsize": 255,
  "size": 255,
  "weight": 1020,
  "height": 1358526,
  "version": 536870912,
  "versionHex": "20000000",
  "merkleroot": "eaf003ff7db5470db24351fa5787867d7b0c8de42cc31b9bb1871bf3f7f13335",
  "tx": [
    {
      "txid": "eaf003ff7db5470db24351fa5787867d7b0c8de42cc31b9bb1871bf3f7f13335",
      "hash": "eaf003ff7db5470db24351fa5787867d7b0c8de42cc31b9bb1871bf3f7f13335",
      "version": 1,
      "size": 174,
      "vsize": 174,
      "locktime": 0,
      "vin": [
        {
          "coinbase": "03beba141c4d696e656420627920416e74506f6f6c20626a3242205a6dedcd1001fabe6d6dcc0f405d2c31cce909d29232745a593d25cb70f3082f4660e5c6b4f8973e06060400000000000000131a00000000000012000000",
          "sequence": 4294967295
        }
      ],
      "vout": [
        {
          "value": 25.00000000,
          "n": 0,
          "scriptPubKey": {
            "asm": "OP_DUP OP_HASH160 0ff3ccc5e8be88afe24b5d634e5852d474dbdff1 OP_EQUALVERIFY OP_CHECKSIG",
            "hex": "76a9140ff3ccc5e8be88afe24b5d634e5852d474dbdff188ac",
            "reqSigs": 1,
            "type": "pubkeyhash",
            "addresses": [
              "LLgJTbzZMsRTCUF1NtvvL9SR1a4pVieW89"
            ]
          }
        }
      ],
      "hex": "01000000010000000000000000000000000000000000000000000000000000000000000000ffffffff5903beba141c4d696e656420627920416e74506f6f6c20626a3242205a6dedcd1001fabe6d6dcc0f405d2c31cce909d29232745a593d25cb70f3082f4660e5c6b4f8973e06060400000000000000131a00000000000012000000ffffffff0100f90295000000001976a9140ff3ccc5e8be88afe24b5d634e5852d474dbdff188ac00000000"
    }
  ],
  "time": 1517153741,
  "mediantime": 1517153525,
  "nonce": 305930765,
  "bits": "1a047f14",
  "difficulty": 3731199.183374282,
  "chainwork": "0000000000000000000000000000000000000000000000332b7dc55808b9ce66",
  "previousblockhash": "b5532ba5c030dfd9feb985edd5be3b1e79c95495823eebd6143eb93a2886175c",
  "nextblockhash": "bd7d2eb085c1a12f97d6baf55afad11447b2eed007bbfe1224468ae8674cdf20"
}
