{
  "hash": "867a230a4bbac0be3136490d81c3c3286b82c97a2a80178a7be09e18cdd30481",
  "confirmations": 31,
  "strippedsize": 6241,
  "size": 6277,
  "weight": 25000,
  "height": 1360960,
  "version": 536870912,
  "versionHex": "20000000",
  "merkleroot": "2d5a9e0fe63bb41383d0f7f65ee5bca31184e8289eb43691f93bad18c1ccd8fb",
  "tx": [
    {
      "txid": "9596d00902fb72f29e47936b3d179a9e1c7a9e3926b4171c11aa0e91ed518a77",
      "hash": "8f3350bc6bc3ddea32708746eeb75c79a08be2142a1c5a9060df184a2badf7a7",
      "version": 1,
      "size": 277,
      "vsize": 250,
      "locktime": 949603576,
      "vin": [
        {
          "coinbase": "0340c4142cfabe6d6d97da7b80a191feb5366c4d780920812bcbee85a3a7f1ec77776dd0d1c6e336f708000000f09f909f134d696e6564206279206d616a756e6a6965383800000000000000000000000000000000000000000000000000000000000000",
          "sequence": 79
        }
      ],
      "vout": [
        {
          "value": 25.00593600,
          "n": 0,
          "scriptPubKey": {
            "asm": "OP_DUP OP_HASH160 aa3750aa18b8a0f3f0590731e1fab934856680cf OP_EQUALVERIFY OP_CHECKSIG",
            "hex": "76a914aa3750aa18b8a0f3f0590731e1fab934856680cf88ac",
            "reqSigs": 1,
            "type": "pubkeyhash",
            "addresses": [
              "LajyQBeZaBA1NkZDeY8YT5RYYVRkXMvb2T"
            ]
          }
        }, 
        {
          "value": 0.00000000,
          "n": 1,
          "scriptPubKey": {
            "asm": "OP_RETURN aa21a9ed48d04c4c4f7fd82222de40d91031da657ba3cdf75313799ae46cb1c820061a42 0000000000000000",
            "hex": "6a24aa21a9ed48d04c4c4f7fd82222de40d91031da657ba3cdf75313799ae46cb1c820061a42080000000000000000",
            "type": "nulldata"
          }
        }
      ],
      "hex": "010000000001010000000000000000000000000000000000000000000000000000000000000000ffffffff640340c4142cfabe6d6d97da7b80a191feb5366c4d780920812bcbee85a3a7f1ec77776dd0d1c6e336f708000000f09f909f134d696e6564206279206d616a756e6a69653838000000000000000000000000000000000000000000000000000000000000004f00000002c0070c95000000001976a914aa3750aa18b8a0f3f0590731e1fab934856680cf88ac00000000000000002f6a24aa21a9ed48d04c4c4f7fd82222de40d91031da657ba3cdf75313799ae46cb1c820061a4208000000000000000001200000000000000000000000000000000000000000000000000000000000000000f8cc9938"
    }, 
    {
      "txid": "36a6c29f73808c1870085163f55bff0c1299a02f119e345324c9bfcf87517005",
      "hash": "36a6c29f73808c1870085163f55bff0c1299a02f119e345324c9bfcf87517005",
      "version": 2,
      "size": 225,
      "vsize": 225,
      "locktime": 1360958,
      "vin": [
        {
          "txid": "a51f62ddc212a632615449b2e147a03158f19ae43273912b057cc0730d461256",
          "vout": 0,
          "scriptSig": {
            "asm": "3044022005e4fdf7b66229dcf17056b2bae1aa7a49cae0fe656a682aa77753fde279046e02207c5cadbc3bd7d90b9caeea817047b3b70732fb6e9be089b560a7a779cb27f10f[ALL] 0217be38532304252708d9581e3c3fe3f71507a0a512b85a3a76c6feb4d05a6860",
            "hex": "473044022005e4fdf7b66229dcf17056b2bae1aa7a49cae0fe656a682aa77753fde279046e02207c5cadbc3bd7d90b9caeea817047b3b70732fb6e9be089b560a7a779cb27f10f01210217be38532304252708d9581e3c3fe3f71507a0a512b85a3a76c6feb4d05a6860"
          },
          "sequence": 4294967294
        }
      ],
      "vout": [
        {
          "value": 1.96482306,
          "n": 0,
          "scriptPubKey": {
            "asm": "OP_DUP OP_HASH160 5d519a0fb93eb08586c5fdb4f8f8c3d6ffa70d52 OP_EQUALVERIFY OP_CHECKSIG",
            "hex": "76a9145d519a0fb93eb08586c5fdb4f8f8c3d6ffa70d5288ac",
            "reqSigs": 1,
            "type": "pubkeyhash",
            "addresses": [
              "LTjNrr1ma6K6JbrE6M1UWHu2QrGBVNU6he"
            ]
          }
        }, 
        {
          "value": 3.37393727,
          "n": 1,
          "scriptPubKey": {
            "asm": "OP_DUP OP_HASH160 ef84fc77ca5d98a8367bfb8ddae6cba2cea02cfe OP_EQUALVERIFY OP_CHECKSIG",
            "hex": "76a914ef84fc77ca5d98a8367bfb8ddae6cba2cea02cfe88ac",
            "reqSigs": 1,
            "type": "pubkeyhash",
            "addresses": [
              "Lh4R56ybRd5CtsKyAtdnFeQN2Szsjxx3Lq"
            ]
          }
        }
      ],
      "hex": "02000000015612460d73c07c052b917332e49af15831a047e1b249546132a612c2dd621fa5000000006a473044022005e4fdf7b66229dcf17056b2bae1aa7a49cae0fe656a682aa77753fde279046e02207c5cadbc3bd7d90b9caeea817047b3b70732fb6e9be089b560a7a779cb27f10f01210217be38532304252708d9581e3c3fe3f71507a0a512b85a3a76c6feb4d05a6860feffffff020215b60b000000001976a9145d519a0fb93eb08586c5fdb4f8f8c3d6ffa70d5288ac3f381c14000000001976a914ef84fc77ca5d98a8367bfb8ddae6cba2cea02cfe88ac3ec41400"
    }, 
    {
      "txid": "6c72da51f4ec6f043504d2be755b248536c52ae81b5295d91efd8ee663608624",
      "hash": "6c72da51f4ec6f043504d2be755b248536c52ae81b5295d91efd8ee663608624",
      "version": 2,
      "size": 5242,
      "vsize": 5242,
      "locktime": 1360958,
      "vin": [
        {
          "txid": "667cc8573f1c572a84b26335f3879d52324732d0ad8345cec2768fe96fa12102",
          "vout": 0,
          "scriptSig": {
            "asm": "3045022100a2866ed005eebd9d208ab231418aab710d27ff844e29115a2b6481ab7db95c5702206efd03778e7af5fe61d752fd78ec91bc3c2dba4854d341ff771280fbe0cb4f79[ALL] 03e532a6d8ee759c5f8de39166fbe28b8ade8f98c36322a7390b0201ac25cbb855",
            "hex": "483045022100a2866ed005eebd9d208ab231418aab710d27ff844e29115a2b6481ab7db95c5702206efd03778e7af5fe61d752fd78ec91bc3c2dba4854d341ff771280fbe0cb4f79012103e532a6d8ee759c5f8de39166fbe28b8ade8f98c36322a7390b0201ac25cbb855"
          },
          "sequence": 4294967294
        }, 
        {
          "txid": "b6dfc38a33508338fd5eea68c68c17c1af8dea1468e9cd1c6307e5507ec71479",
          "vout": 1,
          "scriptSig": {
            "asm": "3044022057b6f5e6eaee913adec9f53898b08fed3dd90751c475f8d4acee682c7f83f9fc022011ce213b24084ed61cdb72548595751c95a6fe81ac31ddefedb19dff9a23930d[ALL] 0264e0bac8797f9a91403e6cf414d44d845a4491f9e7b342f6452fb94cbb2a30cb",
            "hex": "473044022057b6f5e6eaee913adec9f53898b08fed3dd90751c475f8d4acee682c7f83f9fc022011ce213b24084ed61cdb72548595751c95a6fe81ac31ddefedb19dff9a23930d01210264e0bac8797f9a91403e6cf414d44d845a4491f9e7b342f6452fb94cbb2a30cb"
          },
          "sequence": 4294967294
        }, 
        {
          "txid": "39556a827670cd9b2710f883cbbe4ea38b51f532170e5a77f959341b7734e2de",
          "vout": 1,
          "scriptSig": {
            "asm": "30440220013cdc31e051229e2d6aae3a3af7d4c7ebbdbd89f92fdc4fbb073b8e4d5871f302205e53129902195f462704eecfbbc547dc0fa28cfb1a25103fed23633f315faee7[ALL] 039fe85bd8a275a549e5584895f0c627eec35fc4406abdb4a90ddc145a6c13f00e",
            "hex": "4730440220013cdc31e051229e2d6aae3a3af7d4c7ebbdbd89f92fdc4fbb073b8e4d5871f302205e53129902195f462704eecfbbc547dc0fa28cfb1a25103fed23633f315faee70121039fe85bd8a275a549e5584895f0c627eec35fc4406abdb4a90ddc145a6c13f00e"
          },
          "sequence": 4294967294
        }, 
        {
          "txid": "69bdf5ad7aede05237677d7b33f65db3026ec29154d9f74d179a2d53ed8b0c69",
          "vout": 3,
          "scriptSig": {
            "asm": "3045022100eb4018b5c1aa788db0e215a5bbfb65a750184a5fe32b4fbc58efcc927e6e3cae022017a1ba776a3a8f2795783aa2d1ebaf66b09336593956c8116c6a8c4dd284354e[ALL] 03b69dcd5951f8881498fe8f4380571c89957654b5ddbc97b1af77c6a07b05b6e8",
            "hex": "483045022100eb4018b5c1aa788db0e215a5bbfb65a750184a5fe32b4fbc58efcc927e6e3cae022017a1ba776a3a8f2795783aa2d1ebaf66b09336593956c8116c6a8c4dd284354e012103b69dcd5951f8881498fe8f4380571c89957654b5ddbc97b1af77c6a07b05b6e8"
          },
          "sequence": 4294967294
        }, 
        {
          "txid": "0248524c0077fa825e67ebac3a6a587c754564156d50defdd35432d925572810",
          "vout": 1,
          "scriptSig": {
            "asm": "30450221009a48fa6d76edbbb7ca3017d8214e9737263e57e08692fb8498aa47ac18b485c9022053577b22a57e4d706e5743b9518706eac9d8e1d825a574fbf1a9440152b4cdfa[ALL] 036c758da8ba78ff1d0c0cb6ecc953f33134a9d94ef381e252f2fe639d3920c437",
            "hex": "4830450221009a48fa6d76edbbb7ca3017d8214e9737263e57e08692fb8498aa47ac18b485c9022053577b22a57e4d706e5743b9518706eac9d8e1d825a574fbf1a9440152b4cdfa0121036c758da8ba78ff1d0c0cb6ecc953f33134a9d94ef381e252f2fe639d3920c437"
          },
          "sequence": 4294967294
        }, 
        {
          "txid": "3fb19344e8e0c1473119a383e481c3297788caae8086b84b2fbcad0fa9d836cc",
          "vout": 2,
          "scriptSig": {
            "asm": "3045022100f1c6fb921e617918560f89e9e565b3396484e38b06ff7544ebf70682ab83596f022048d7d00748d0e09f2cacd141b5f7fcba1936cc9aeeee3ac5dec7ff6beae252e6[ALL] 0244ec7ca7b8da5833d3a6fc32cff1f5b501da8373cc94102d5ff7cb309a447400",
            "hex": "483045022100f1c6fb921e617918560f89e9e565b3396484e38b06ff7544ebf70682ab83596f022048d7d00748d0e09f2cacd141b5f7fcba1936cc9aeeee3ac5dec7ff6beae252e601210244ec7ca7b8da5833d3a6fc32cff1f5b501da8373cc94102d5ff7cb309a447400"
          },
          "sequence": 4294967294
        }, 
        {
          "txid": "c16ba4a44cf24b49919ada7b7d30a30ce525f9845aed7de45f1c080355cba7aa",
          "vout": 1,
          "scriptSig": {
            "asm": "3045022100b4d6f726fa6a62b0b0b3e7ddf1968026ecbaf04b31b55eaa58aa466dd5586dfe022046821a598fd3cfbc830f09abed1bff0bb40f53cf17fc1f82a69b689067cd0c34[ALL] 03c400254021d93373985e778068899db91be99a1a68f80e9e7f96652b350fb31c",
            "hex": "483045022100b4d6f726fa6a62b0b0b3e7ddf1968026ecbaf04b31b55eaa58aa466dd5586dfe022046821a598fd3cfbc830f09abed1bff0bb40f53cf17fc1f82a69b689067cd0c34012103c400254021d93373985e778068899db91be99a1a68f80e9e7f96652b350fb31c"
          },
          "sequence": 4294967294
        }, 
        {
          "txid": "f98f67cb66bc57f4d04337c2dc49e262f1da87b6c1991dfb0127a965aad933e4",
          "vout": 0,
          "scriptSig": {
            "asm": "3044022024d715d7bbc139aa46598edf02a2f19fa8d22b503676e01e372982e34d62e0de0220235a59ff54c2d01d0cd53c5c94679f2e6e4c53018012464712629e05b253160c[ALL] 03df8dc3ce98e88d29379d4c0abfad471cf225d0f4bab7177cdee3df2f0c0f4d97",
            "hex": "473044022024d715d7bbc139aa46598edf02a2f19fa8d22b503676e01e372982e34d62e0de0220235a59ff54c2d01d0cd53c5c94679f2e6e4c53018012464712629e05b253160c012103df8dc3ce98e88d29379d4c0abfad471cf225d0f4bab7177cdee3df2f0c0f4d97"
          },
          "sequence": 4294967294
        }, 
        {
          "txid": "9aada9b73572b4a467e4c4f81b98416cd7c14b53f558a0bb78bf1bb649e22bfe",
          "vout": 1,
          "scriptSig": {
            "asm": "3044022074a56b81a75c4674e7af92f57b7c5bb25255467ed004054a7c590b67cf63b385022064951785a0af48cb545b63103d84c0023f39e0f1e2b74cb6c0c1e60b0cd19555[ALL] 039fc898999214e5ee409e46d3de2f6142288cbe25eb3ae0e688531fc3293fda87",
            "hex": "473044022074a56b81a75c4674e7af92f57b7c5bb25255467ed004054a7c590b67cf63b385022064951785a0af48cb545b63103d84c0023f39e0f1e2b74cb6c0c1e60b0cd195550121039fc898999214e5ee409e46d3de2f6142288cbe25eb3ae0e688531fc3293fda87"
          },
          "sequence": 4294967294
        }, 
        {
          "txid": "a8ddd41ea4acb4d46ae7e85f1b4b6155804a466b32aaa6361c09cca2a2ad2cb6",
          "vout": 0,
          "scriptSig": {
            "asm": "3044022002a6a2201ba2936aa059850250d12ad5fb20174c2bc92dc52beab539f91eaa0c022041030b13d12e4e9c1c52034b942c9fc8e1dd46f327c3487a926ba80b1ac1e62a[ALL] 03f613682d6849c921bbff0f3bfaba03897f9c0fda892dec4e4de94e66731c89d5",
            "hex": "473044022002a6a2201ba2936aa059850250d12ad5fb20174c2bc92dc52beab539f91eaa0c022041030b13d12e4e9c1c52034b942c9fc8e1dd46f327c3487a926ba80b1ac1e62a012103f613682d6849c921bbff0f3bfaba03897f9c0fda892dec4e4de94e66731c89d5"
          },
          "sequence": 4294967294
        }, 
        {
          "txid": "9beb51fb91b378801685f6b332565a890e8f147c2cc584413a9787c51c56db0e",
          "vout": 0,
          "scriptSig": {
            "asm": "3045022100dd58300caa48a6bb3f748eab260f40d69e08449076253687613bd5e81a911fe40220629d40205d5a70eed84a147706d8fb465bc935e9786c70fd3cd1806e8bb9dd8a[ALL] 039e6789199857ba2c103523b31ddcced1dfaf10b39a1919e755074d5ebdf288ef",
            "hex": "483045022100dd58300caa48a6bb3f748eab260f40d69e08449076253687613bd5e81a911fe40220629d40205d5a70eed84a147706d8fb465bc935e9786c70fd3cd1806e8bb9dd8a0121039e6789199857ba2c103523b31ddcced1dfaf10b39a1919e755074d5ebdf288ef"
          },
          "sequence": 4294967294
        }, 
        {
          "txid": "504ba4b55b0b2e5bbb56dc314e05b3d38bf546f2e09f88c7a7ef155ffe5c4536",
          "vout": 1,
          "scriptSig": {
            "asm": "30450221008b8cff63e80475a832d79195ad712ae788387559dd9c2259496347b40d1885d20220714a8e2a18043028746e4a56d71aa0c82b9814a6bdd78b55c78c34134c6bd677[ALL] 039f662a300ea5ee30b0f6d70be4e37c3d4d74e0e13cc42eaec8a5add898349356",
            "hex": "4830450221008b8cff63e80475a832d79195ad712ae788387559dd9c2259496347b40d1885d20220714a8e2a18043028746e4a56d71aa0c82b9814a6bdd78b55c78c34134c6bd6770121039f662a300ea5ee30b0f6d70be4e37c3d4d74e0e13cc42eaec8a5add898349356"
          },
          "sequence": 4294967294
        }, 
        {
          "txid": "5db0b3acb56c628fb3b886d2d79b7f8b978eccf3f399e81c19842774f54ae80b",
          "vout": 1,
          "scriptSig": {
            "asm": "3044022035487fe90e07a20604a25849cbffad27032510891d8c6285e300543f7f34729c02207198d2349347afae8b8b760a705b39cfb2d56562f30dc5a0b8c729ffabdbf2a1[ALL] 03beda83be7f84b7cc4ae3ed6b90601e45a3e242b224b99af8605ef03803cf77f2",
            "hex": "473044022035487fe90e07a20604a25849cbffad27032510891d8c6285e300543f7f34729c02207198d2349347afae8b8b760a705b39cfb2d56562f30dc5a0b8c729ffabdbf2a1012103beda83be7f84b7cc4ae3ed6b90601e45a3e242b224b99af8605ef03803cf77f2"
          },
          "sequence": 4294967294
        }, 
        {
          "txid": "dbefdbee496e93c3d60a118aeaa5d098e088a168cff2a3ff3e509c9f3778b598",
          "vout": 0,
          "scriptSig": {
            "asm": "3045022100d3c85ab386b271c3aaaea6a516f70b2f0ee3f9cada8795e6c4e4dd45153fbfde0220296afbd4e19b9898255d4aa0a5842d6a5381f5554b76c22be81fb2aa9237c05d[ALL] 03b68dba9c0cc3e8cb531bb66120ac1c241bebdc49d37396922fd867bd699c55eb",
            "hex": "483045022100d3c85ab386b271c3aaaea6a516f70b2f0ee3f9cada8795e6c4e4dd45153fbfde0220296afbd4e19b9898255d4aa0a5842d6a5381f5554b76c22be81fb2aa9237c05d012103b68dba9c0cc3e8cb531bb66120ac1c241bebdc49d37396922fd867bd699c55eb"
          },
          "sequence": 4294967294
        }, 
        {
          "txid": "cacfc73a81b0ea08148a0a7d97d8eaf7ab73258dfa91c839160dae6a7e509c79",
          "vout": 1,
          "scriptSig": {
            "asm": "30440220660337cbdf97985a1e10611952edb12a9c051acffe5adf2dbe1276d90e9e7f010220092c7822794eb20bc840f53e050997d083c8f529942cdf1435bae71d3115efac[ALL] 03d12f3687ac5b8682bbec9e0ccca552ec1212b30378a826af7d8955bef3598a58",
            "hex": "4730440220660337cbdf97985a1e10611952edb12a9c051acffe5adf2dbe1276d90e9e7f010220092c7822794eb20bc840f53e050997d083c8f529942cdf1435bae71d3115efac012103d12f3687ac5b8682bbec9e0ccca552ec1212b30378a826af7d8955bef3598a58"
          },
          "sequence": 4294967294
        }, 
        {
          "txid": "c4ed6f893c8279f1b49f615ab1c9fd5ca158606928af358b584fc692d62c8149",
          "vout": 1,
          "scriptSig": {
            "asm": "3045022100f9e5b218c865950f23ed0b285d6f4975abe2c121256b480ea1e8cfe23a7a8214022072c909fdd85a2df9fd10364fbfbfb1956f63dc04d39419b50ad8d6f08180b225[ALL] 037532170492941a2303a7915321bf22f1399a623e28ea3c4204625aec23cf3f2d",
            "hex": "483045022100f9e5b218c865950f23ed0b285d6f4975abe2c121256b480ea1e8cfe23a7a8214022072c909fdd85a2df9fd10364fbfbfb1956f63dc04d39419b50ad8d6f08180b2250121037532170492941a2303a7915321bf22f1399a623e28ea3c4204625aec23cf3f2d"
          },
          "sequence": 4294967294
        }, 
        {
          "txid": "840a998037b2e3f0348a97a923e3368abf3fbad73927d729402e8f587ba0c16c",
          "vout": 0,
          "scriptSig": {
            "asm": "3044022007a0b18db2a72b9e3d93a4072ec3984a2d5857c3fcdd8fa84a579f851801101d02207c2ae7070cbfb9624de5c4455e36f65d6f5b2715dbbe6cf3bba7f7564804b54d[ALL] 0340e6c5ec210275674ed7fb70d0aeb8bc609adbf693a65d570bef8fe47d0e9d36",
            "hex": "473044022007a0b18db2a72b9e3d93a4072ec3984a2d5857c3fcdd8fa84a579f851801101d02207c2ae7070cbfb9624de5c4455e36f65d6f5b2715dbbe6cf3bba7f7564804b54d01210340e6c5ec210275674ed7fb70d0aeb8bc609adbf693a65d570bef8fe47d0e9d36"
          },
          "sequence": 4294967294
        }, 
        {
          "txid": "b22b552303a615c4afcceee9325424359645a3445a1158e89d5eee4b6f3e87dd",
          "vout": 0,
          "scriptSig": {
            "asm": "3045022100ae7eefdcf24eab8932d0022cdaee2a4745ebd3aae62d46e2169af5feec82c9db0220657fe3aa8e7e0262f59252b35c46d1c5f4c44f174c09286bd3df216a6d76ed4a[ALL] 036d7ce1c273c1939af6c25daae081aab500e541883faa16e13974d5930fe9e2cb",
            "hex": "483045022100ae7eefdcf24eab8932d0022cdaee2a4745ebd3aae62d46e2169af5feec82c9db0220657fe3aa8e7e0262f59252b35c46d1c5f4c44f174c09286bd3df216a6d76ed4a0121036d7ce1c273c1939af6c25daae081aab500e541883faa16e13974d5930fe9e2cb"
          },
          "sequence": 4294967294
        }, 
        {
          "txid": "1a6066f553c5de9c6762f3d6e2046d8e88bf654b5c733231da315c626041915b",
          "vout": 1,
          "scriptSig": {
            "asm": "30440220242e47a0b3497bdbb687c7607c2fb090a1840229b90740bdc175acd89c08ed3302205378b8dd9b368c967dd270f65bbf03641877914adeaee1995631285130e39f39[ALL] 02132f730753fdb30b37c821c1d36e11f1f33bcaeb5c24be2d4c4be20525cb7a3d",
            "hex": "4730440220242e47a0b3497bdbb687c7607c2fb090a1840229b90740bdc175acd89c08ed3302205378b8dd9b368c967dd270f65bbf03641877914adeaee1995631285130e39f39012102132f730753fdb30b37c821c1d36e11f1f33bcaeb5c24be2d4c4be20525cb7a3d"
          },
          "sequence": 4294967294
        }, 
        {
          "txid": "24cd5a89e047c564675f5451030e64e4fd1e68ae87bb7c181a2f6ae31d5064fd",
          "vout": 1,
          "scriptSig": {
            "asm": "304402205565558eed95fc082af14853c72e6ad6b6a4924655813108d564275a0a447659022020e931ee5294f3fd78d8085965abfcd5fe68c60d96cc9d7fd9aae2f2880fb13e[ALL] 035b646a0beae869b9c2cfe1341b1c1eb1ca47906fa31c5c4b632e46f6af6e01aa",
            "hex": "47304402205565558eed95fc082af14853c72e6ad6b6a4924655813108d564275a0a447659022020e931ee5294f3fd78d8085965abfcd5fe68c60d96cc9d7fd9aae2f2880fb13e0121035b646a0beae869b9c2cfe1341b1c1eb1ca47906fa31c5c4b632e46f6af6e01aa"
          },
          "sequence": 4294967294
        }, 
        {
          "txid": "2f3f30ced5ef20a4f3783769a127f6a20fe3b2e918a65bc48515bc4c7718d61d",
          "vout": 1,
          "scriptSig": {
            "asm": "3045022100cce9e6bb3cd60d16b28b00de7596dc7d2fc92eb3d7bd1f028184e3de0bff2f5a02202cc9657411c0f6d9568804039284cd03cb055f5ffb3feee6762a33668187bd7e[ALL] 03397a1e1de76cafd93044c4f776e063cd654f8b00b0ce39f2837cdc762cad70b9",
            "hex": "483045022100cce9e6bb3cd60d16b28b00de7596dc7d2fc92eb3d7bd1f028184e3de0bff2f5a02202cc9657411c0f6d9568804039284cd03cb055f5ffb3feee6762a33668187bd7e012103397a1e1de76cafd93044c4f776e063cd654f8b00b0ce39f2837cdc762cad70b9"
          },
          "sequence": 4294967294
        }, 
        {
          "txid": "c5bc4a3bf0169454d2782bc2480846eed28979559719e201576211fe0be0d32c",
          "vout": 0,
          "scriptSig": {
            "asm": "304402206b9195854adc1600e6c7b8292f8fbe48412ce11f1eec2c1d9949af612969f0100220350df1fc8ccd42cc14541f11430be27066aa4c5121280c41a9cdbd28bfe431f1[ALL] 03c574ca200f79e7ba7985c8e03b9cdd6f7eb1db5dc89bc5e8aab2c95d137dee69",
            "hex": "47304402206b9195854adc1600e6c7b8292f8fbe48412ce11f1eec2c1d9949af612969f0100220350df1fc8ccd42cc14541f11430be27066aa4c5121280c41a9cdbd28bfe431f1012103c574ca200f79e7ba7985c8e03b9cdd6f7eb1db5dc89bc5e8aab2c95d137dee69"
          },
          "sequence": 4294967294
        }, 
        {
          "txid": "7f94f0e771457d00850ff1b9d987082f49182e35cf4627f892a855444e376e47",
          "vout": 1,
          "scriptSig": {
            "asm": "30440220768152abb02fd6ab661fda8c7238a602584701d76366acf5e2123da2f6de7e17022049f05350d5dc84c3977c499e24b3ca165e5706a90a4a20cfe27a160b0712bfd7[ALL] 0278abd461340b32a6e6ffb2f4fa3cffdd55efc483ddc09eee41c33ea07e2691b7",
            "hex": "4730440220768152abb02fd6ab661fda8c7238a602584701d76366acf5e2123da2f6de7e17022049f05350d5dc84c3977c499e24b3ca165e5706a90a4a20cfe27a160b0712bfd701210278abd461340b32a6e6ffb2f4fa3cffdd55efc483ddc09eee41c33ea07e2691b7"
          },
          "sequence": 4294967294
        }, 
        {
          "txid": "fc9983e41091cbc45e3c792f16f0675e7050e96409b7f51a699757f71c56fae8",
          "vout": 1,
          "scriptSig": {
            "asm": "3045022100bc845fe930e5a17bfd7f624ffddd54f39d572a4f1aea328a52e0f968c3e9fa5b02200abce71859c56785bef7e2432fe97262cdaf50517165a1250cf2f1626e2d10da[ALL] 02f5bfc8cbc8288d8355da19dba1702c03a873b80d49f2efce19d8ec1597830e6d",
            "hex": "483045022100bc845fe930e5a17bfd7f624ffddd54f39d572a4f1aea328a52e0f968c3e9fa5b02200abce71859c56785bef7e2432fe97262cdaf50517165a1250cf2f1626e2d10da012102f5bfc8cbc8288d8355da19dba1702c03a873b80d49f2efce19d8ec1597830e6d"
          },
          "sequence": 4294967294
        }, 
        {
          "txid": "abb07ddf7d79512c8440d9a918f2fc261de76f730e1576fd22d3469612df2c3c",
          "vout": 5,
          "scriptSig": {
            "asm": "3045022100c482506b559886160f72b86a09e356470b612c15f09680c602b76343690f615102207479e4801bf425f571b8721e161a5c412f315d30a30e291409d050249fc9750a[ALL] 0377816844df1745c0341f9f2bedff5339c2c4e283d1ef64aef89a634926ad4d54",
            "hex": "483045022100c482506b559886160f72b86a09e356470b612c15f09680c602b76343690f615102207479e4801bf425f571b8721e161a5c412f315d30a30e291409d050249fc9750a01210377816844df1745c0341f9f2bedff5339c2c4e283d1ef64aef89a634926ad4d54"
          },
          "sequence": 4294967294
        }, 
        {
          "txid": "abb07ddf7d79512c8440d9a918f2fc261de76f730e1576fd22d3469612df2c3c",
          "vout": 6,
          "scriptSig": {
            "asm": "3045022100993a631d9425017807906c6830e3f6b907ae9e28c06e4f2e898f26ba802d963102201b8c828189cb7f22667a4137fefb207dcf9f7f1e2f5a48eb43b85812aa44864e[ALL] 03438b9c9926cfc28c9cae2328f750b216b67623eeec371e1d57dbc9334f328053",
            "hex": "483045022100993a631d9425017807906c6830e3f6b907ae9e28c06e4f2e898f26ba802d963102201b8c828189cb7f22667a4137fefb207dcf9f7f1e2f5a48eb43b85812aa44864e012103438b9c9926cfc28c9cae2328f750b216b67623eeec371e1d57dbc9334f328053"
          },
          "sequence": 4294967294
        }, 
        {
          "txid": "b0e4e02abaa2c5d1a3f905490e944e83901678aa5db4a388055f41457ae15734",
          "vout": 1,
          "scriptSig": {
            "asm": "3045022100d9508007165f4f340e5a8e843abc9bf802a04eeeff28f79eb0caf77f4ca09daf0220146a869b0b3570685a64b78aed5c938988774ba37f461113f6ced502f89e50d2[ALL] 0312749804a41ad5415249225350ea92c17d26b066ba8eea2f3a8a19be758a6910",
            "hex": "483045022100d9508007165f4f340e5a8e843abc9bf802a04eeeff28f79eb0caf77f4ca09daf0220146a869b0b3570685a64b78aed5c938988774ba37f461113f6ced502f89e50d201210312749804a41ad5415249225350ea92c17d26b066ba8eea2f3a8a19be758a6910"
          },
          "sequence": 4294967294
        }, 
        {
          "txid": "2edd5f2f0903a3fc01cedbcf0f7830650a888bc914e1d9685fe6f9010e826040",
          "vout": 0,
          "scriptSig": {
            "asm": "304502210090f19e55a49a75778a407c48355a2329a6738d12d2e05ee6623f31340f6118b002203a900652db5ce8ac7ef1376bde6fa9a53d59063987a0ae8b4591f6d3e6415c79[ALL] 03604753906820a605d683b33145325dd076485d1e832cdf15505eaa00337642fc",
            "hex": "48304502210090f19e55a49a75778a407c48355a2329a6738d12d2e05ee6623f31340f6118b002203a900652db5ce8ac7ef1376bde6fa9a53d59063987a0ae8b4591f6d3e6415c79012103604753906820a605d683b33145325dd076485d1e832cdf15505eaa00337642fc"
          },
          "sequence": 4294967294
        }, 
        {
          "txid": "5570ee16367b356365698f99688d196540c32bd51e8ac97bb100c770552f1465",
          "vout": 1,
          "scriptSig": {
            "asm": "3045022100818ea3e8c0e21c45ba9384d7981242becd76a74c466779ac488b388e55a6e58102201757a458d3e42cb89f0698da6fe0b0dd32ba35a2a80323ebe0e08b5fcb43c716[ALL] 0296625ad36264591350090d489e3be029da6b00684ab7fc4c8e49002d610e9797",
            "hex": "483045022100818ea3e8c0e21c45ba9384d7981242becd76a74c466779ac488b388e55a6e58102201757a458d3e42cb89f0698da6fe0b0dd32ba35a2a80323ebe0e08b5fcb43c71601210296625ad36264591350090d489e3be029da6b00684ab7fc4c8e49002d610e9797"
          },
          "sequence": 4294967294
        }, 
        {
          "txid": "c2433408853db2ef73e96de98e88a77fa54f901f1a6a15297e8a470bc501b114",
          "vout": 0,
          "scriptSig": {
            "asm": "3044022012f867c40ba94a5fa00719fb9d318c8d01f3a741a22bdb5dcc0f7a4a2ae2102202202542377552ace23ed64219e659fece5537c72b49c95d39185db21e6b54a18ec3[ALL] 02027b4dcdf87d682a05e60daa5d2451f0365b571e96d86f0dae6cb29cc55ee104",
            "hex": "473044022012f867c40ba94a5fa00719fb9d318c8d01f3a741a22bdb5dcc0f7a4a2ae2102202202542377552ace23ed64219e659fece5537c72b49c95d39185db21e6b54a18ec3012102027b4dcdf87d682a05e60daa5d2451f0365b571e96d86f0dae6cb29cc55ee104"
          },
          "sequence": 4294967294
        }, 
        {
          "txid": "1ec3da143a1fa06b61ac3d60b553710b27108d7358864ca913d31ca76fe79eb7",
          "vout": 0,
          "scriptSig": {
            "asm": "30440220766a5c16183f5bbdcefdf599eb8110e05056af45bda412fb6b7d58f7537740030220677baac7d7788adbf141e2da252046424c694f21ae38d4e9290c62ea1b34b52d[ALL] 025afbe2db58eab4e5628f0756ef8d8eda84c9b5da5cb2cbd7674425414e775e16",
            "hex": "4730440220766a5c16183f5bbdcefdf599eb8110e05056af45bda412fb6b7d58f7537740030220677baac7d7788adbf141e2da252046424c694f21ae38d4e9290c62ea1b34b52d0121025afbe2db58eab4e5628f0756ef8d8eda84c9b5da5cb2cbd7674425414e775e16"
          },
          "sequence": 4294967294
        }, 
        {
          "txid": "4c86fe83ef6ebb7608fe3f1e20393573eb35b0d827bc490076bc8e7b32730d3a",
          "vout": 1,
          "scriptSig": {
            "asm": "3045022100a62fe2c3bf3caaff98be10562bb61d7ef71b22d1925a6ad78697f7050f306426022008c9cad62fddddb7d8034cb2447c0bd80f1103daf625bcfc63ff42ba8380bc6b[ALL] 03703573e6a0f7bc1af87ff12b16e3ab4c1a3541b2e9f2cd25997ea21505c0d0d6",
            "hex": "483045022100a62fe2c3bf3caaff98be10562bb61d7ef71b22d1925a6ad78697f7050f306426022008c9cad62fddddb7d8034cb2447c0bd80f1103daf625bcfc63ff42ba8380bc6b012103703573e6a0f7bc1af87ff12b16e3ab4c1a3541b2e9f2cd25997ea21505c0d0d6"
          },
          "sequence": 4294967294
        }, 
        {
          "txid": "722edc8fbc7a37720f5a27eed92a15181a6acf762dd344cbe44035d17f7732d9",
          "vout": 0,
          "scriptSig": {
            "asm": "304402207e03adf8e41b423b97cc48c06b7f96b1decec13d659965c04c31e11e9d38be0802207696d1d2cddd2a558f9b192b08f919e2b61da21964300dfe35d93e814c419ec4[ALL] 0279530b30b1d3773451c43ddae4d4bae96d15fd8b7c51eb4c0ebb6cb01dd3dba8",
            "hex": "47304402207e03adf8e41b423b97cc48c06b7f96b1decec13d659965c04c31e11e9d38be0802207696d1d2cddd2a558f9b192b08f919e2b61da21964300dfe35d93e814c419ec401210279530b30b1d3773451c43ddae4d4bae96d15fd8b7c51eb4c0ebb6cb01dd3dba8"
          },
          "sequence": 4294967294
        }, 
        {
          "txid": "73ba88556be8002724fa24718a71eb452aa7df9b2e629c92601c09568ba42af0",
          "vout": 0,
          "scriptSig": {
            "asm": "304402205448c91f768fc0506be7323f24565cc11b74f7e981e2cf6ee6e624b79a608d1b02204a469b2c75c7ea23c126c29a0810cb7d429fbd3dcc518c791dee49fd6bc059e8[ALL] 032add50fe4953cb90a2baeb35ce483b226e3c754d9c410d84071ce585b6f8e4bd",
            "hex": "47304402205448c91f768fc0506be7323f24565cc11b74f7e981e2cf6ee6e624b79a608d1b02204a469b2c75c7ea23c126c29a0810cb7d429fbd3dcc518c791dee49fd6bc059e80121032add50fe4953cb90a2baeb35ce483b226e3c754d9c410d84071ce585b6f8e4bd"
          },
          "sequence": 4294967294
        }, 
        {
          "txid": "113d31ef8154d24986482f65f86fadef8111809b8a6e7aed69661c082dc531a2",
          "vout": 1,
          "scriptSig": {
            "asm": "3045022100ab15a227e9cb129fc2ca73a03b2d09433a4086d511948650f69953769151725f02207315721f9e9e0ffec115032f4a6e658a8c505e297294db99c1ee5efc7565b8e5[ALL] 02f249a2f507278aa209cb4ba4d58c560ce9e1899af61d728251401e50fb0454af",
            "hex": "483045022100ab15a227e9cb129fc2ca73a03b2d09433a4086d511948650f69953769151725f02207315721f9e9e0ffec115032f4a6e658a8c505e297294db99c1ee5efc7565b8e5012102f249a2f507278aa209cb4ba4d58c560ce9e1899af61d728251401e50fb0454af"
          },
          "sequence": 4294967294
        }
      ],
      "vout": [
        {
          "value": 500.00000000,
          "n": 0,
          "scriptPubKey": {
            "asm": "OP_DUP OP_HASH160 5a6a76740916623dd878d5da570abdea7c4faa0c OP_EQUALVERIFY OP_CHECKSIG",
            "hex": "76a9145a6a76740916623dd878d5da570abdea7c4faa0c88ac",
            "reqSigs": 1,
            "type": "pubkeyhash",
            "addresses": [
              "LTU2cds4aSdXFip9sV4gXphnhxGQjgfjmg"
            ]
          }
        }, 
        {
          "value": 0.01074337,
          "n": 1,
          "scriptPubKey": {
            "asm": "OP_DUP OP_HASH160 20b6b12a8b275fe0e1ac3a1c54c4dc0b620c1f41 OP_EQUALVERIFY OP_CHECKSIG",
            "hex": "76a91420b6b12a8b275fe0e1ac3a1c54c4dc0b620c1f4188ac",
            "reqSigs": 1,
            "type": "pubkeyhash",
            "addresses": [
              "LNCvk21FMcsnLQU36VV4XSKxmE27GZEUnX"
            ]
          }
        }
      ],
      "hex": "02000000230221a16fe98f76c2ce4583add0324732529d87f33563b2842a571c3f57c87c66000000006b483045022100a2866ed005eebd9d208ab231418aab710d27ff844e29115a2b6481ab7db95c5702206efd03778e7af5fe61d752fd78ec91bc3c2dba4854d341ff771280fbe0cb4f79012103e532a6d8ee759c5f8de39166fbe28b8ade8f98c36322a7390b0201ac25cbb855feffffff7914c77e50e507631ccde96814ea8dafc1178cc668ea5efd388350338ac3dfb6010000006a473044022057b6f5e6eaee913adec9f53898b08fed3dd90751c475f8d4acee682c7f83f9fc022011ce213b24084ed61cdb72548595751c95a6fe81ac31ddefedb19dff9a23930d01210264e0bac8797f9a91403e6cf414d44d845a4491f9e7b342f6452fb94cbb2a30cbfeffffffdee234771b3459f9775a0e1732f5518ba34ebecb83f810279bcd7076826a5539010000006a4730440220013cdc31e051229e2d6aae3a3af7d4c7ebbdbd89f92fdc4fbb073b8e4d5871f302205e53129902195f462704eecfbbc547dc0fa28cfb1a25103fed23633f315faee70121039fe85bd8a275a549e5584895f0c627eec35fc4406abdb4a90ddc145a6c13f00efeffffff690c8bed532d9a174df7d95491c26e02b35df6337b7d673752e0ed7aadf5bd69030000006b483045022100eb4018b5c1aa788db0e215a5bbfb65a750184a5fe32b4fbc58efcc927e6e3cae022017a1ba776a3a8f2795783aa2d1ebaf66b09336593956c8116c6a8c4dd284354e012103b69dcd5951f8881498fe8f4380571c89957654b5ddbc97b1af77c6a07b05b6e8feffffff10285725d93254d3fdde506d156445757c586a3aaceb675e82fa77004c524802010000006b4830450221009a48fa6d76edbbb7ca3017d8214e9737263e57e08692fb8498aa47ac18b485c9022053577b22a57e4d706e5743b9518706eac9d8e1d825a574fbf1a9440152b4cdfa0121036c758da8ba78ff1d0c0cb6ecc953f33134a9d94ef381e252f2fe639d3920c437feffffffcc36d8a90fadbc2f4bb88680aeca887729c381e483a3193147c1e0e84493b13f020000006b483045022100f1c6fb921e617918560f89e9e565b3396484e38b06ff7544ebf70682ab83596f022048d7d00748d0e09f2cacd141b5f7fcba1936cc9aeeee3ac5dec7ff6beae252e601210244ec7ca7b8da5833d3a6fc32cff1f5b501da8373cc94102d5ff7cb309a447400feffffffaaa7cb5503081c5fe47ded5a84f925e50ca3307d7bda9a91494bf24ca4a46bc1010000006b483045022100b4d6f726fa6a62b0b0b3e7ddf1968026ecbaf04b31b55eaa58aa466dd5586dfe022046821a598fd3cfbc830f09abed1bff0bb40f53cf17fc1f82a69b689067cd0c34012103c400254021d93373985e778068899db91be99a1a68f80e9e7f96652b350fb31cfeffffffe433d9aa65a92701fb1d99c1b687daf162e249dcc23743d0f457bc66cb678ff9000000006a473044022024d715d7bbc139aa46598edf02a2f19fa8d22b503676e01e372982e34d62e0de0220235a59ff54c2d01d0cd53c5c94679f2e6e4c53018012464712629e05b253160c012103df8dc3ce98e88d29379d4c0abfad471cf225d0f4bab7177cdee3df2f0c0f4d97fefffffffe2be249b61bbf78bba058f5534bc1d76c41981bf8c4e467a4b47235b7a9ad9a010000006a473044022074a56b81a75c4674e7af92f57b7c5bb25255467ed004054a7c590b67cf63b385022064951785a0af48cb545b63103d84c0023f39e0f1e2b74cb6c0c1e60b0cd195550121039fc898999214e5ee409e46d3de2f6142288cbe25eb3ae0e688531fc3293fda87feffffffb62cada2a2cc091c36a6aa326b464a8055614b1b5fe8e76ad4b4aca41ed4dda8000000006a473044022002a6a2201ba2936aa059850250d12ad5fb20174c2bc92dc52beab539f91eaa0c022041030b13d12e4e9c1c52034b942c9fc8e1dd46f327c3487a926ba80b1ac1e62a012103f613682d6849c921bbff0f3bfaba03897f9c0fda892dec4e4de94e66731c89d5feffffff0edb561cc587973a4184c52c7c148f0e895a5632b3f685168078b391fb51eb9b000000006b483045022100dd58300caa48a6bb3f748eab260f40d69e08449076253687613bd5e81a911fe40220629d40205d5a70eed84a147706d8fb465bc935e9786c70fd3cd1806e8bb9dd8a0121039e6789199857ba2c103523b31ddcced1dfaf10b39a1919e755074d5ebdf288effeffffff36455cfe5f15efa7c7889fe0f246f58bd3b3054e31dc56bb5b2e0b5bb5a44b50010000006b4830450221008b8cff63e80475a832d79195ad712ae788387559dd9c2259496347b40d1885d20220714a8e2a18043028746e4a56d71aa0c82b9814a6bdd78b55c78c34134c6bd6770121039f662a300ea5ee30b0f6d70be4e37c3d4d74e0e13cc42eaec8a5add898349356feffffff0be84af5742784191ce899f3f3cc8e978b7f9bd7d286b8b38f626cb5acb3b05d010000006a473044022035487fe90e07a20604a25849cbffad27032510891d8c6285e300543f7f34729c02207198d2349347afae8b8b760a705b39cfb2d56562f30dc5a0b8c729ffabdbf2a1012103beda83be7f84b7cc4ae3ed6b90601e45a3e242b224b99af8605ef03803cf77f2feffffff98b578379f9c503effa3f2cf68a188e098d0a5ea8a110ad6c3936e49eedbefdb000000006b483045022100d3c85ab386b271c3aaaea6a516f70b2f0ee3f9cada8795e6c4e4dd45153fbfde0220296afbd4e19b9898255d4aa0a5842d6a5381f5554b76c22be81fb2aa9237c05d012103b68dba9c0cc3e8cb531bb66120ac1c241bebdc49d37396922fd867bd699c55ebfeffffff799c507e6aae0d1639c891fa8d2573abf7ead8977d0a8a1408eab0813ac7cfca010000006a4730440220660337cbdf97985a1e10611952edb12a9c051acffe5adf2dbe1276d90e9e7f010220092c7822794eb20bc840f53e050997d083c8f529942cdf1435bae71d3115efac012103d12f3687ac5b8682bbec9e0ccca552ec1212b30378a826af7d8955bef3598a58feffffff49812cd692c64f588b35af28696058a15cfdc9b15a619fb4f179823c896fedc4010000006b483045022100f9e5b218c865950f23ed0b285d6f4975abe2c121256b480ea1e8cfe23a7a8214022072c909fdd85a2df9fd10364fbfbfb1956f63dc04d39419b50ad8d6f08180b2250121037532170492941a2303a7915321bf22f1399a623e28ea3c4204625aec23cf3f2dfeffffff6cc1a07b588f2e4029d72739d7ba3fbf8a36e323a9978a34f0e3b23780990a84000000006a473044022007a0b18db2a72b9e3d93a4072ec3984a2d5857c3fcdd8fa84a579f851801101d02207c2ae7070cbfb9624de5c4455e36f65d6f5b2715dbbe6cf3bba7f7564804b54d01210340e6c5ec210275674ed7fb70d0aeb8bc609adbf693a65d570bef8fe47d0e9d36feffffffdd873e6f4bee5e9de858115a44a3459635245432e9eeccafc415a60323552bb2000000006b483045022100ae7eefdcf24eab8932d0022cdaee2a4745ebd3aae62d46e2169af5feec82c9db0220657fe3aa8e7e0262f59252b35c46d1c5f4c44f174c09286bd3df216a6d76ed4a0121036d7ce1c273c1939af6c25daae081aab500e541883faa16e13974d5930fe9e2cbfeffffff5b914160625c31da3132735c4b65bf888e6d04e2d6f362679cdec553f566601a010000006a4730440220242e47a0b3497bdbb687c7607c2fb090a1840229b90740bdc175acd89c08ed3302205378b8dd9b368c967dd270f65bbf03641877914adeaee1995631285130e39f39012102132f730753fdb30b37c821c1d36e11f1f33bcaeb5c24be2d4c4be20525cb7a3dfefffffffd64501de36a2f1a187cbb87ae681efde4640e0351545f6764c547e0895acd24010000006a47304402205565558eed95fc082af14853c72e6ad6b6a4924655813108d564275a0a447659022020e931ee5294f3fd78d8085965abfcd5fe68c60d96cc9d7fd9aae2f2880fb13e0121035b646a0beae869b9c2cfe1341b1c1eb1ca47906fa31c5c4b632e46f6af6e01aafeffffff1dd618774cbc1585c45ba618e9b2e30fa2f627a1693778f3a420efd5ce303f2f010000006b483045022100cce9e6bb3cd60d16b28b00de7596dc7d2fc92eb3d7bd1f028184e3de0bff2f5a02202cc9657411c0f6d9568804039284cd03cb055f5ffb3feee6762a33668187bd7e012103397a1e1de76cafd93044c4f776e063cd654f8b00b0ce39f2837cdc762cad70b9feffffff2cd3e00bfe11625701e21997557989d2ee460848c22b78d2549416f03b4abcc5000000006a47304402206b9195854adc1600e6c7b8292f8fbe48412ce11f1eec2c1d9949af612969f0100220350df1fc8ccd42cc14541f11430be27066aa4c5121280c41a9cdbd28bfe431f1012103c574ca200f79e7ba7985c8e03b9cdd6f7eb1db5dc89bc5e8aab2c95d137dee69feffffff476e374e4455a892f82746cf352e18492f0887d9b9f10f85007d4571e7f0947f010000006a4730440220768152abb02fd6ab661fda8c7238a602584701d76366acf5e2123da2f6de7e17022049f05350d5dc84c3977c499e24b3ca165e5706a90a4a20cfe27a160b0712bfd701210278abd461340b32a6e6ffb2f4fa3cffdd55efc483ddc09eee41c33ea07e2691b7feffffffe8fa561cf75797691af5b70964e950705e67f0162f793c5ec4cb9110e48399fc010000006b483045022100bc845fe930e5a17bfd7f624ffddd54f39d572a4f1aea328a52e0f968c3e9fa5b02200abce71859c56785bef7e2432fe97262cdaf50517165a1250cf2f1626e2d10da012102f5bfc8cbc8288d8355da19dba1702c03a873b80d49f2efce19d8ec1597830e6dfeffffff3c2cdf129646d322fd76150e736fe71d26fcf218a9d940842c51797ddf7db0ab050000006b483045022100c482506b559886160f72b86a09e356470b612c15f09680c602b76343690f615102207479e4801bf425f571b8721e161a5c412f315d30a30e291409d050249fc9750a01210377816844df1745c0341f9f2bedff5339c2c4e283d1ef64aef89a634926ad4d54feffffff3c2cdf129646d322fd76150e736fe71d26fcf218a9d940842c51797ddf7db0ab060000006b483045022100993a631d9425017807906c6830e3f6b907ae9e28c06e4f2e898f26ba802d963102201b8c828189cb7f22667a4137fefb207dcf9f7f1e2f5a48eb43b85812aa44864e012103438b9c9926cfc28c9cae2328f750b216b67623eeec371e1d57dbc9334f328053feffffff3457e17a45415f0588a3b45daa781690834e940e4905f9a3d1c5a2ba2ae0e4b0010000006b483045022100d9508007165f4f340e5a8e843abc9bf802a04eeeff28f79eb0caf77f4ca09daf0220146a869b0b3570685a64b78aed5c938988774ba37f461113f6ced502f89e50d201210312749804a41ad5415249225350ea92c17d26b066ba8eea2f3a8a19be758a6910feffffff4060820e01f9e65f68d9e114c98b880a6530780fcfdbce01fca303092f5fdd2e000000006b48304502210090f19e55a49a75778a407c48355a2329a6738d12d2e05ee6623f31340f6118b002203a900652db5ce8ac7ef1376bde6fa9a53d59063987a0ae8b4591f6d3e6415c79012103604753906820a605d683b33145325dd076485d1e832cdf15505eaa00337642fcfeffffff65142f5570c700b17bc98a1ed52bc34065198d68998f696563357b3616ee7055010000006b483045022100818ea3e8c0e21c45ba9384d7981242becd76a74c466779ac488b388e55a6e58102201757a458d3e42cb89f0698da6fe0b0dd32ba35a2a80323ebe0e08b5fcb43c71601210296625ad36264591350090d489e3be029da6b00684ab7fc4c8e49002d610e9797feffffff14b101c50b478a7e29156a1a1f904fa57fa7888ee96de973efb23d85083443c2000000006a473044022012f867c40ba94a5fa00719fb9d318c8d01f3a741a22bdb5dcc0f7a4a2ae2102202202542377552ace23ed64219e659fece5537c72b49c95d39185db21e6b54a18ec3012102027b4dcdf87d682a05e60daa5d2451f0365b571e96d86f0dae6cb29cc55ee104feffffffb79ee76fa71cd313a94c8658738d10270b7153b5603dac616ba01f3a14dac31e000000006a4730440220766a5c16183f5bbdcefdf599eb8110e05056af45bda412fb6b7d58f7537740030220677baac7d7788adbf141e2da252046424c694f21ae38d4e9290c62ea1b34b52d0121025afbe2db58eab4e5628f0756ef8d8eda84c9b5da5cb2cbd7674425414e775e16feffffff3a0d73327b8ebc760049bc27d8b035eb733539201e3ffe0876bb6eef83fe864c010000006b483045022100a62fe2c3bf3caaff98be10562bb61d7ef71b22d1925a6ad78697f7050f306426022008c9cad62fddddb7d8034cb2447c0bd80f1103daf625bcfc63ff42ba8380bc6b012103703573e6a0f7bc1af87ff12b16e3ab4c1a3541b2e9f2cd25997ea21505c0d0d6feffffffd932777fd13540e4cb44d32d76cf6a1a18152ad9ee275a0f72377abc8fdc2e72000000006a47304402207e03adf8e41b423b97cc48c06b7f96b1decec13d659965c04c31e11e9d38be0802207696d1d2cddd2a558f9b192b08f919e2b61da21964300dfe35d93e814c419ec401210279530b30b1d3773451c43ddae4d4bae96d15fd8b7c51eb4c0ebb6cb01dd3dba8fefffffff02aa48b56091c60929c622e9bdfa72a45eb718a7124fa242700e86b5588ba73000000006a47304402205448c91f768fc0506be7323f24565cc11b74f7e981e2cf6ee6e624b79a608d1b02204a469b2c75c7ea23c126c29a0810cb7d429fbd3dcc518c791dee49fd6bc059e80121032add50fe4953cb90a2baeb35ce483b226e3c754d9c410d84071ce585b6f8e4bdfeffffffa231c52d081c6669ed7a6e8a9b801181efad6ff8652f488649d25481ef313d11010000006b483045022100ab15a227e9cb129fc2ca73a03b2d09433a4086d511948650f69953769151725f02207315721f9e9e0ffec115032f4a6e658a8c505e297294db99c1ee5efc7565b8e5012102f249a2f507278aa209cb4ba4d58c560ce9e1899af61d728251401e50fb0454affeffffff0200743ba40b0000001976a9145a6a76740916623dd878d5da570abdea7c4faa0c88aca1641000000000001976a91420b6b12a8b275fe0e1ac3a1c54c4dc0b620c1f4188ac3ec41400"
    }, 
    {
      "txid": "1219f6b0b0d35b878844fbd081b14473652cb80912e8d17b39220d5ad54e80de",
      "hash": "1219f6b0b0d35b878844fbd081b14473652cb80912e8d17b39220d5ad54e80de",
      "version": 1,
      "size": 226,
      "vsize": 226,
      "locktime": 0,
      "vin": [
        {
          "txid": "5706839a3abba9ccd4753e797d615f026f65bb76b117608bd67c44c2a935fb82",
          "vout": 6,
          "scriptSig": {
            "asm": "3045022100fbf0f1d079102c93b3ed1a77780818fdebd29e03eb5d2559d69959188e74132502201c567d44f6e17b4243f866191e50a28428e2617458728cea6b7f5301e32b4e93[ALL] 03026d82e43842418783f80e28fe312fe708822a8fffede2223be5bf6060bc1885",
            "hex": "483045022100fbf0f1d079102c93b3ed1a77780818fdebd29e03eb5d2559d69959188e74132502201c567d44f6e17b4243f866191e50a28428e2617458728cea6b7f5301e32b4e93012103026d82e43842418783f80e28fe312fe708822a8fffede2223be5bf6060bc1885"
          },
          "sequence": 4294967295
        }
      ],
      "vout": [
        {
          "value": 15.54758030,
          "n": 0,
          "scriptPubKey": {
            "asm": "OP_DUP OP_HASH160 fb4f1076cb3d857e873921e06378a25c0bb69cd7 OP_EQUALVERIFY OP_CHECKSIG",
            "hex": "76a914fb4f1076cb3d857e873921e06378a25c0bb69cd788ac",
            "reqSigs": 1,
            "type": "pubkeyhash",
            "addresses": [
              "Li8kar6EJLwvVjjfExoK3EARtjaZZQL1UJ"
            ]
          }
        }, 
        {
          "value": 1.00000000,
          "n": 1,
          "scriptPubKey": {
            "asm": "OP_DUP OP_HASH160 db7c7ab654628dabfe533c3bc628305fbe827caa OP_EQUALVERIFY OP_CHECKSIG",
            "hex": "76a914db7c7ab654628dabfe533c3bc628305fbe827caa88ac",
            "reqSigs": 1,
            "type": "pubkeyhash",
            "addresses": [
              "LfEVNCaHbV5zagmQiw4Kk767gEhN8ASwhp"
            ]
          }
        }
      ],
      "hex": "010000000182fb35a9c2447cd68b6017b176bb656f025f617d793e75d4cca9bb3a9a830657060000006b483045022100fbf0f1d079102c93b3ed1a77780818fdebd29e03eb5d2559d69959188e74132502201c567d44f6e17b4243f866191e50a28428e2617458728cea6b7f5301e32b4e93012103026d82e43842418783f80e28fe312fe708822a8fffede2223be5bf6060bc1885ffffffff028eb9ab5c000000001976a914fb4f1076cb3d857e873921e06378a25c0bb69cd788ac00e1f505000000001976a914db7c7ab654628dabfe533c3bc628305fbe827caa88ac00000000"
    }, 
    {
      "txid": "2f194be17e0a51d7e5cd3fd7c6789db39e712f81f68e4acb4e1176294c3840e3",
      "hash": "2f194be17e0a51d7e5cd3fd7c6789db39e712f81f68e4acb4e1176294c3840e3",
      "version": 1,
      "size": 226,
      "vsize": 226,
      "locktime": 0,
      "vin": [
        {
          "txid": "6d61a435b8d4cadb80d964a6cf2c1e6bb15c24d8a7c7e0431e59740e102846a3",
          "vout": 0,
          "scriptSig": {
            "asm": "3045022100d8fd19f33188da6a95933eca04bbab4b7a8308f6e0f2a35397cf1f57a193b140022069f3abeeda3f45c75dd73ca4d5ce59275d196e599dae4d2889e2c79946d57bfe[ALL] 0395834598d900a3208b38d2defd0e0d6bf3c737d011cfaee02461f98eb6050414",
            "hex": "483045022100d8fd19f33188da6a95933eca04bbab4b7a8308f6e0f2a35397cf1f57a193b140022069f3abeeda3f45c75dd73ca4d5ce59275d196e599dae4d2889e2c79946d57bfe01210395834598d900a3208b38d2defd0e0d6bf3c737d011cfaee02461f98eb6050414"
          },
          "sequence": 4294967295
        }
      ],
      "vout": [
        {
          "value": 1.71204042,
          "n": 0,
          "scriptPubKey": {
            "asm": "OP_DUP OP_HASH160 38e31f861d1799e63cd670d32c00e910946faaec OP_EQUALVERIFY OP_CHECKSIG",
            "hex": "76a91438e31f861d1799e63cd670d32c00e910946faaec88ac",
            "reqSigs": 1,
            "type": "pubkeyhash",
            "addresses": [
              "LQQkBkLMsJB5RMPGRnaNQBWsxqnqTqufvY"
            ]
          }
        }, 
        {
          "value": 17.14860438,
          "n": 1,
          "scriptPubKey": {
            "asm": "OP_DUP OP_HASH160 d04b152c8c6ccb1c2ba0bb0829e3cbc0bcd074c2 OP_EQUALVERIFY OP_CHECKSIG",
            "hex": "76a914d04b152c8c6ccb1c2ba0bb0829e3cbc0bcd074c288ac",
            "reqSigs": 1,
            "type": "pubkeyhash",
            "addresses": [
              "LeDJkxAeBj4pwSjEdRYTDfbio78AZYvQy1"
            ]
          }
        }
      ],
      "hex": "0100000001a34628100e74591e43e0c7a7d8245cb16b1e2ccfa664d980dbcad4b835a4616d000000006b483045022100d8fd19f33188da6a95933eca04bbab4b7a8308f6e0f2a35397cf1f57a193b140022069f3abeeda3f45c75dd73ca4d5ce59275d196e599dae4d2889e2c79946d57bfe01210395834598d900a3208b38d2defd0e0d6bf3c737d011cfaee02461f98eb6050414ffffffff02ca5d340a000000001976a91438e31f861d1799e63cd670d32c00e910946faaec88ac96b13666000000001976a914d04b152c8c6ccb1c2ba0bb0829e3cbc0bcd074c288ac00000000"
    }
  ],
  "time": 1517504000,
  "mediantime": 1517503434,
  "nonce": 349573166,
  "bits": "1a04088e",
  "difficulty": 4159490.835685156,
  "chainwork": "0000000000000000000000000000000000000000000000356e975829b5e322d0",
  "previousblockhash": "178fb0121c39b44f890dd43a9e745dfc927dc3814a1f9faa91fcea805128a679",
  "nextblockhash": "efd75f587cf8d5fb5f52e659b7f21e95f4409e36e872601b67fd2e53f3a227da"
}
