{
  "hash": "8682a2be5c9a558a043e81dcdbcacc9b2751085df2a722a5ef108c3ea2645316",
  "confirmations": 334,
  "strippedsize": 253,
  "size": 253,
  "weight": 1012,
  "height": 1360660,
  "version": 536870912,
  "versionHex": "20000000",
  "merkleroot": "7dd342b41db324452015501bb206df95da5f15f215695e31c5e552885a1f4484",
  "tx": [
    {
      "txid": "7dd342b41db324452015501bb206df95da5f15f215695e31c5e552885a1f4484",
      "hash": "7dd342b41db324452015501bb206df95da5f15f215695e31c5e552885a1f4484",
      "version": 1,
      "size": 172,
      "vsize": 172,
      "locktime": 0,
      "vin": [
        {
          "coinbase": "0314c3141a4d696e656420627920416e74506f6f6c20626a3532205a72a4dafabe6d6dbcdce696fb62f93a1397be634cdf4daa18de3561361d775b696492b47928ac7d0400000000000000c32500000000000002000000",
          "sequence": 4294967295
        }
      ],
      "vout": [
        {
          "value": 25.00000000,
          "n": 0,
          "scriptPubKey": {
            "asm": "OP_DUP OP_HASH160 0ff3ccc5e8be88afe24b5d634e5852d474dbdff1 OP_EQUALVERIFY OP_CHECKSIG",
            "hex": "76a9140ff3ccc5e8be88afe24b5d634e5852d474dbdff188ac",
            "reqSigs": 1,
            "type": "pubkeyhash",
            "addresses": [
              "LLgJTbzZMsRTCUF1NtvvL9SR1a4pVieW89"
            ]
          }
        }
      ],
      "hex": "01000000010000000000000000000000000000000000000000000000000000000000000000ffffffff570314c3141a4d696e656420627920416e74506f6f6c20626a3532205a72a4dafabe6d6dbcdce696fb62f93a1397be634cdf4daa18de3561361d775b696492b47928ac7d0400000000000000c32500000000000002000000ffffffff0100f90295000000001976a9140ff3ccc5e8be88afe24b5d634e5852d474dbdff188ac00000000"
    }
  ],
  "time": 1517462746,
  "mediantime": 1517462503,
  "nonce": 3517899673,
  "bits": "1a042eae",
  "difficulty": 4011378.762614286,
  "chainwork": "00000000000000000000000000000000000000000000003525708fea612c7aaa",
  "previousblockhash": "e95ec6cd8b766fb042e6d4f9b35a94338cc40b83a48361bb0a25e1bb22e6c165",
  "nextblockhash": "8ac48c6e5380f1b99612f652f10b217bfb60f0fc2be1fc2fa524954ae268d9e3"
}
