{
  "hash": "86b1cc80b17a74d8a21d76fc7a76a0c317ad38b166b0cfa2599431167ce40227",
  "confirmations": 339,
  "strippedsize": 234,
  "size": 234,
  "weight": 936,
  "height": 1360655,
  "version": 536870912,
  "versionHex": "20000000",
  "merkleroot": "7549801d69e2ea8c0e8b6735253b497df2692c845bf74e8810bf4a4ba1380fc1",
  "tx": [
    {
      "txid": "7549801d69e2ea8c0e8b6735253b497df2692c845bf74e8810bf4a4ba1380fc1",
      "hash": "7549801d69e2ea8c0e8b6735253b497df2692c845bf74e8810bf4a4ba1380fc1",
      "version": 1,
      "size": 153,
      "vsize": 153,
      "locktime": 0,
      "vin": [
        {
          "coinbase": "030fc314045a72a3e72cfabe6d6d18fdebea31c151144378ca85f786735c617ed702a4bc2ea8331a9acbb64386724000000000000000042f4c502f08220095dd0c000000",
          "sequence": 4294967295
        }
      ],
      "vout": [
        {
          "value": 25.00000000,
          "n": 0,
          "scriptPubKey": {
            "asm": "OP_DUP OP_HASH160 57757ed2ecf2052ff3126c397aca7defb9ca2cec OP_EQUALVERIFY OP_CHECKSIG",
            "hex": "76a91457757ed2ecf2052ff3126c397aca7defb9ca2cec88ac",
            "reqSigs": 1,
            "type": "pubkeyhash",
            "addresses": [
              "LTCPodGk5FwcJaRzH9yKnwicxzFUbxp6tN"
            ]
          }
        }
      ],
      "hex": "01000000010000000000000000000000000000000000000000000000000000000000000000ffffffff44030fc314045a72a3e72cfabe6d6d18fdebea31c151144378ca85f786735c617ed702a4bc2ea8331a9acbb64386724000000000000000042f4c502f08220095dd0c000000ffffffff0100f90295000000001976a91457757ed2ecf2052ff3126c397aca7defb9ca2cec88ac00000000"
    }
  ],
  "time": 1517462503,
  "mediantime": 1517462128,
  "nonce": 2745762353,
  "bits": "1a042eae",
  "difficulty": 4011378.762614286,
  "chainwork": "000000000000000000000000000000000000000000000035243e837a84972b20",
  "previousblockhash": "83db01a0d7eb8074f870cb159867cae18fe14035e237f3a0d30a3d10a6c1f750",
  "nextblockhash": "ddea705bb439cfab6e5cc7ccde01efaf268c59548132ba78ffea6239bca11cb0"
}
