{
  "hash": "86ea60531bbe9dbbce17100d6fe5505f02889546e97f6362971555f5e46bf5f9",
  "confirmations": 3122,
  "strippedsize": 3885,
  "size": 3921,
  "weight": 15576,
  "height": 1357873,
  "version": 536870912,
  "versionHex": "20000000",
  "merkleroot": "12e9f02ee260f470b93a4119d4211167b39f79b267efd7e683b77b64f6bb2316",
  "tx": [
    {
      "txid": "26d86ee895869ab83ac506e6f2990c7213a47665bcd7bc3769ec3b23b3fbd002",
      "hash": "3864eab43fc2668185e22be16ea7c0562f06db55f17b72911a7d762bb758523e",
      "version": 1,
      "size": 244,
      "vsize": 217,
      "locktime": 0,
      "vin": [
        {
          "coinbase": "0331b81404df7d6c5a080526c3c124000000fabe6d6d73249212956ebafe2365610dfacfd2868bd824e9003c4e115ff5ef793d86418c40000000000000000d2f6e6f64655374726174756d2f",
          "sequence": 0
        }
      ],
      "vout": [
        {
          "value": 25.02254210,
          "n": 0,
          "scriptPubKey": {
            "asm": "OP_DUP OP_HASH160 0c617fdb2ea42aed30a509595ee21ba3f6688db0 OP_EQUALVERIFY OP_CHECKSIG",
            "hex": "76a9140c617fdb2ea42aed30a509595ee21ba3f6688db088ac",
            "reqSigs": 1,
            "type": "pubkeyhash",
            "addresses": [
              "LLMRAtr3qBje2ySEa3CnZ55LA4TQMWnRY3"
            ]
          }
        }, 
        {
          "value": 0.00000000,
          "n": 1,
          "scriptPubKey": {
            "asm": "OP_RETURN aa21a9ed8f03455a1fa5fa00740dc5a0ea325c72245d35cae58f91d1e334b673f6f91e72",
            "hex": "6a24aa21a9ed8f03455a1fa5fa00740dc5a0ea325c72245d35cae58f91d1e334b673f6f91e72",
            "type": "nulldata"
          }
        }
      ],
      "hex": "010000000001010000000000000000000000000000000000000000000000000000000000000000ffffffff4c0331b81404df7d6c5a080526c3c124000000fabe6d6d73249212956ebafe2365610dfacfd2868bd824e9003c4e115ff5ef793d86418c40000000000000000d2f6e6f64655374726174756d2f0000000002825e2595000000001976a9140c617fdb2ea42aed30a509595ee21ba3f6688db088ac0000000000000000266a24aa21a9ed8f03455a1fa5fa00740dc5a0ea325c72245d35cae58f91d1e334b673f6f91e720120000000000000000000000000000000000000000000000000000000000000000000000000"
    }, 
    {
      "txid": "c5d3ba1b0a5db95640b481b1229fce954fedda409e11757b2b1f2d392ece8373",
      "hash": "c5d3ba1b0a5db95640b481b1229fce954fedda409e11757b2b1f2d392ece8373",
      "version": 1,
      "size": 372,
      "vsize": 372,
      "locktime": 0,
      "vin": [
        {
          "txid": "b32b3838129db8fb785237731f891c14d01bf5b099a24acd26aeaa60134e053c",
          "vout": 0,
          "scriptSig": {
            "asm": "0 304402207b74e9f896f2f91554d11fc3fd6ace1d36e7fdd33160870b98a2db2f31aaca1b02201ab62836ac4ef38a01da940245e775dc2d15223d4279ae88e100561ffd9d9d88[ALL] 3045022100da0a8bf64bbb1db5804c2846bb5555096a930e89007d3389ccaac02802cc214902204b4b7404bd61957c620ab575127ba519a7149bdff2b1ab38de65865609858a5b[ALL] 5221022dab9d79135cb0d75a43dc566966e3cedd9c6916464c926e89ebab09fc28639421034ee36602de038cfa8ab463ea01a5e7f014a801938af954cd30cf05b4aeaab283210225821eaf2f98dc2aa52767bdf9912879e5a89dd8c0ffa909187ff45942d5235153ae",
            "hex": "0047304402207b74e9f896f2f91554d11fc3fd6ace1d36e7fdd33160870b98a2db2f31aaca1b02201ab62836ac4ef38a01da940245e775dc2d15223d4279ae88e100561ffd9d9d8801483045022100da0a8bf64bbb1db5804c2846bb5555096a930e89007d3389ccaac02802cc214902204b4b7404bd61957c620ab575127ba519a7149bdff2b1ab38de65865609858a5b014c695221022dab9d79135cb0d75a43dc566966e3cedd9c6916464c926e89ebab09fc28639421034ee36602de038cfa8ab463ea01a5e7f014a801938af954cd30cf05b4aeaab283210225821eaf2f98dc2aa52767bdf9912879e5a89dd8c0ffa909187ff45942d5235153ae"
          },
          "sequence": 4294967295
        }
      ],
      "vout": [
        {
          "value": 6.18090055,
          "n": 0,
          "scriptPubKey": {
            "asm": "OP_HASH160 776cb702f62c4b01e85c826eb8bf3735c189da7c OP_EQUAL",
            "hex": "a914776cb702f62c4b01e85c826eb8bf3735c189da7c87",
            "reqSigs": 1,
            "type": "scripthash",
            "addresses": [
              "MJncsuCw99NbxXbLmMFw5ufiF5SKfkjwfm"
            ]
          }
        }, 
        {
          "value": 0.24500000,
          "n": 1,
          "scriptPubKey": {
            "asm": "OP_DUP OP_HASH160 76f7022855deb4a9396996f68c140ef8192d5166 OP_EQUALVERIFY OP_CHECKSIG",
            "hex": "76a91476f7022855deb4a9396996f68c140ef8192d516688ac",
            "reqSigs": 1,
            "type": "pubkeyhash",
            "addresses": [
              "LW4yuJ6AengfNE4Az7KJ2juQPZTrYgMjbZ"
            ]
          }
        }
      ],
      "hex": "01000000013c054e1360aaae26cd4aa299b0f51bd0141c891f73375278fbb89d1238382bb300000000fdfd000047304402207b74e9f896f2f91554d11fc3fd6ace1d36e7fdd33160870b98a2db2f31aaca1b02201ab62836ac4ef38a01da940245e775dc2d15223d4279ae88e100561ffd9d9d8801483045022100da0a8bf64bbb1db5804c2846bb5555096a930e89007d3389ccaac02802cc214902204b4b7404bd61957c620ab575127ba519a7149bdff2b1ab38de65865609858a5b014c695221022dab9d79135cb0d75a43dc566966e3cedd9c6916464c926e89ebab09fc28639421034ee36602de038cfa8ab463ea01a5e7f014a801938af954cd30cf05b4aeaab283210225821eaf2f98dc2aa52767bdf9912879e5a89dd8c0ffa909187ff45942d5235153aeffffffff02474ed7240000000017a914776cb702f62c4b01e85c826eb8bf3735c189da7c8720d77501000000001976a91476f7022855deb4a9396996f68c140ef8192d516688ac00000000"
    }, 
    {
      "txid": "38f9fc473fd1df85a735b56eebb16fda5fc06097ff50a111769273b1915551d8",
      "hash": "38f9fc473fd1df85a735b56eebb16fda5fc06097ff50a111769273b1915551d8",
      "version": 2,
      "size": 190,
      "vsize": 190,
      "locktime": 0,
      "vin": [
        {
          "txid": "2fcb5e31de527fe8f8cca20aeaabc422d3184ee46e64dae97ab8952e53c271fc",
          "vout": 0,
          "scriptSig": {
            "asm": "3045022100d56c88de010f721768c8d1e8be3ed7dc1ca82b73a48d806710b56aa94f6e4c490220631fefff7886ca70aeb965f95e099bd40f570e8ea53661b6c52c5b196117bd6e[ALL] 03fd2dd5cdce5264d629cb4a804ee0a44576245a1541f58267a742618c5423c460",
            "hex": "483045022100d56c88de010f721768c8d1e8be3ed7dc1ca82b73a48d806710b56aa94f6e4c490220631fefff7886ca70aeb965f95e099bd40f570e8ea53661b6c52c5b196117bd6e012103fd2dd5cdce5264d629cb4a804ee0a44576245a1541f58267a742618c5423c460"
          },
          "sequence": 4294967295
        }
      ],
      "vout": [
        {
          "value": 0.29615900,
          "n": 0,
          "scriptPubKey": {
            "asm": "OP_HASH160 549445337a3a84b7c1634220cacfcd10f0393582 OP_EQUAL",
            "hex": "a914549445337a3a84b7c1634220cacfcd10f039358287",
            "reqSigs": 1,
            "type": "scripthash",
            "addresses": [
              "MFcNcYdXGwBuP8HNgvUJykBvGvHJoMyNne"
            ]
          }
        }
      ],
      "hex": "0200000001fc71c2532e95b87ae9da646ee44e18d322c4abea0aa2ccf8e87f52de315ecb2f000000006b483045022100d56c88de010f721768c8d1e8be3ed7dc1ca82b73a48d806710b56aa94f6e4c490220631fefff7886ca70aeb965f95e099bd40f570e8ea53661b6c52c5b196117bd6e012103fd2dd5cdce5264d629cb4a804ee0a44576245a1541f58267a742618c5423c460ffffffff011ce7c3010000000017a914549445337a3a84b7c1634220cacfcd10f03935828700000000"
    }, 
    {
      "txid": "7053b75ab4115f5de432f0458f4171341f68a95c2efd1d09bdd63226a3bfb7b2",
      "hash": "7053b75ab4115f5de432f0458f4171341f68a95c2efd1d09bdd63226a3bfb7b2",
      "version": 1,
      "size": 226,
      "vsize": 226,
      "locktime": 0,
      "vin": [
        {
          "txid": "5aaefcb3307e24ac7d81c1c46ce5fa3ffd59146aa942220b82cb9a19aca1be60",
          "vout": 1,
          "scriptSig": {
            "asm": "3045022100a47b3fb2cffc04fb58363f1ab84d40c20cb3e9ac0aaf875156b540a979435c1702207ceeb423f89ad56638d7aef99cff7b855c872665929ae249e1c7e133d46b9605[ALL] 031c32c9307b867bd8b065a51428fd5f997d385e5ff2f424d1325f850800456c3a",
            "hex": "483045022100a47b3fb2cffc04fb58363f1ab84d40c20cb3e9ac0aaf875156b540a979435c1702207ceeb423f89ad56638d7aef99cff7b855c872665929ae249e1c7e133d46b96050121031c32c9307b867bd8b065a51428fd5f997d385e5ff2f424d1325f850800456c3a"
          },
          "sequence": 4294967295
        }
      ],
      "vout": [
        {
          "value": 0.14183592,
          "n": 0,
          "scriptPubKey": {
            "asm": "OP_DUP OP_HASH160 52b9d713426273a914ebd24b5281197fd98f1811 OP_EQUALVERIFY OP_CHECKSIG",
            "hex": "76a91452b9d713426273a914ebd24b5281197fd98f181188ac",
            "reqSigs": 1,
            "type": "pubkeyhash",
            "addresses": [
              "LSmNJLoYe2uqMeDMuHC3tNWQbtZnrQNUk1"
            ]
          }
        }, 
        {
          "value": 3.14319275,
          "n": 1,
          "scriptPubKey": {
            "asm": "OP_DUP OP_HASH160 07576efbdb3bd564f3c2e7d716405b08b98716b2 OP_EQUALVERIFY OP_CHECKSIG",
            "hex": "76a91407576efbdb3bd564f3c2e7d716405b08b98716b288ac",
            "reqSigs": 1,
            "type": "pubkeyhash",
            "addresses": [
              "LKtmjYWNA7si1V4SEAoKKLLfBH4D4Cf1nt"
            ]
          }
        }
      ],
      "hex": "010000000160bea1ac199acb820b2242a96a1459fd3ffae56cc4c1817dac247e30b3fcae5a010000006b483045022100a47b3fb2cffc04fb58363f1ab84d40c20cb3e9ac0aaf875156b540a979435c1702207ceeb423f89ad56638d7aef99cff7b855c872665929ae249e1c7e133d46b96050121031c32c9307b867bd8b065a51428fd5f997d385e5ff2f424d1325f850800456c3affffffff02a86cd800000000001976a91452b9d713426273a914ebd24b5281197fd98f181188acab21bc12000000001976a91407576efbdb3bd564f3c2e7d716405b08b98716b288ac00000000"
    }, 
    {
      "txid": "28039c6b2c07b64ae3a5fe0181ef058f50e0cc68739e9435f7aa2dbacbf8a398",
      "hash": "28039c6b2c07b64ae3a5fe0181ef058f50e0cc68739e9435f7aa2dbacbf8a398",
      "version": 1,
      "size": 225,
      "vsize": 225,
      "locktime": 0,
      "vin": [
        {
          "txid": "ada50624b1f142c77a45e0e8f1492ad6605ed2cf1824588d3288fdbe18ff0767",
          "vout": 95,
          "scriptSig": {
            "asm": "3044022023b64ff8e4789efa07bb0633d00a92ee900abcad81952973c4f8299e585b67ef02201d3c675e5fd721840a507c69a12eab9bc0bbd5272730b3f96f71f5bec9e6eb6d[ALL] 0207c11a583cea9f1bb8f54164163d878c416a6d836540076a74222a53f8742452",
            "hex": "473044022023b64ff8e4789efa07bb0633d00a92ee900abcad81952973c4f8299e585b67ef02201d3c675e5fd721840a507c69a12eab9bc0bbd5272730b3f96f71f5bec9e6eb6d01210207c11a583cea9f1bb8f54164163d878c416a6d836540076a74222a53f8742452"
          },
          "sequence": 4294967295
        }
      ],
      "vout": [
        {
          "value": 0.01000088,
          "n": 0,
          "scriptPubKey": {
            "asm": "OP_DUP OP_HASH160 7a332b75f726952c911310ab0c0088fc037adc7c OP_EQUALVERIFY OP_CHECKSIG",
            "hex": "76a9147a332b75f726952c911310ab0c0088fc037adc7c88ac",
            "reqSigs": 1,
            "type": "pubkeyhash",
            "addresses": [
              "LWN5zxJ8zrqg8UWs3X6UfasXkSmd62YV2d"
            ]
          }
        }, 
        {
          "value": 0.05874300,
          "n": 1,
          "scriptPubKey": {
            "asm": "OP_DUP OP_HASH160 11b945190933a0b579b7476bf6b687a61b59e0a1 OP_EQUALVERIFY OP_CHECKSIG",
            "hex": "76a91411b945190933a0b579b7476bf6b687a61b59e0a188ac",
            "reqSigs": 1,
            "type": "pubkeyhash",
            "addresses": [
              "LLqfhFecyCBJCdFLiFYqax1PNfFgSbRRXh"
            ]
          }
        }
      ],
      "hex": "01000000016707ff18befd88328d582418cfd25e60d62a49f1e8e0457ac742f1b12406a5ad5f0000006a473044022023b64ff8e4789efa07bb0633d00a92ee900abcad81952973c4f8299e585b67ef02201d3c675e5fd721840a507c69a12eab9bc0bbd5272730b3f96f71f5bec9e6eb6d01210207c11a583cea9f1bb8f54164163d878c416a6d836540076a74222a53f8742452ffffffff0298420f00000000001976a9147a332b75f726952c911310ab0c0088fc037adc7c88ac7ca25900000000001976a91411b945190933a0b579b7476bf6b687a61b59e0a188ac00000000"
    }, 
    {
      "txid": "67487b6299b3e52ed3578df2835ebb7b3d1eb5da8d1fa4b34b16759275d64f10",
      "hash": "67487b6299b3e52ed3578df2835ebb7b3d1eb5da8d1fa4b34b16759275d64f10",
      "version": 1,
      "size": 521,
      "vsize": 521,
      "locktime": 0,
      "vin": [
        {
          "txid": "03ebfb3d8f41022c6fe4471b1ef154eeec15dfb6ca132e1873eac7f673cf50ef",
          "vout": 6,
          "scriptSig": {
            "asm": "3044022049a7e7465ba54764ffef3e2dd234988abd77cae2cafc46e2df7a7c8bfc17e7e302207ed513b593cd9d910e1270cc88f053669f1a152f0ad1bafd9f176d6c3d798201[ALL] 033cdb9de6ac71da8d391146697cf282338aa2b284851180298455eec6a9e42e30",
            "hex": "473044022049a7e7465ba54764ffef3e2dd234988abd77cae2cafc46e2df7a7c8bfc17e7e302207ed513b593cd9d910e1270cc88f053669f1a152f0ad1bafd9f176d6c3d7982010121033cdb9de6ac71da8d391146697cf282338aa2b284851180298455eec6a9e42e30"
          },
          "sequence": 4294967295
        }, 
        {
          "txid": "f85b868ffdc994cf7e81f6f702a897f9598df5d153a40ba0aa5ff357de0513b2",
          "vout": 1,
          "scriptSig": {
            "asm": "3045022100feb1d8f29e223f73d50e6e1821217a70770d308b452cb8f2d24e7403600b28520220197f36832f93c5cfd61cd802afbef28378288a4732f1d25959a6c081216c2341[ALL] 02e24a4b523d35270e178e0b65f79be426f89f37eb4580d1035ea142e621acb984",
            "hex": "483045022100feb1d8f29e223f73d50e6e1821217a70770d308b452cb8f2d24e7403600b28520220197f36832f93c5cfd61cd802afbef28378288a4732f1d25959a6c081216c2341012102e24a4b523d35270e178e0b65f79be426f89f37eb4580d1035ea142e621acb984"
          },
          "sequence": 4294967295
        }, 
        {
          "txid": "e64065b84c6053acb7c0fb5edfbf5bdae35cf8e56557b607728f93cce0c2852e",
          "vout": 211,
          "scriptSig": {
            "asm": "3045022100a31cbf9b85d1365d30984e6ec672410cc8111b52843e94cf309bf45d30f9b9870220510aceab41b63ea037b886c3be51bc6cd692c512586c97a3a281b81ca327625f[ALL] 0233629dc86199cc6501ed173125c62bc64c199f0e75a3cd5010916be4321b89b6",
            "hex": "483045022100a31cbf9b85d1365d30984e6ec672410cc8111b52843e94cf309bf45d30f9b9870220510aceab41b63ea037b886c3be51bc6cd692c512586c97a3a281b81ca327625f01210233629dc86199cc6501ed173125c62bc64c199f0e75a3cd5010916be4321b89b6"
          },
          "sequence": 4294967295
        }
      ],
      "vout": [
        {
          "value": 0.01000550,
          "n": 0,
          "scriptPubKey": {
            "asm": "OP_DUP OP_HASH160 fb4b53ab21aa7632b488a97c3e32d2fdc087495e OP_EQUALVERIFY OP_CHECKSIG",
            "hex": "76a914fb4b53ab21aa7632b488a97c3e32d2fdc087495e88ac",
            "reqSigs": 1,
            "type": "pubkeyhash",
            "addresses": [
              "Li8g7ANQXSbJN1qjfwrf7VRo6PU6hEb5N6"
            ]
          }
        }, 
        {
          "value": 4.08415751,
          "n": 1,
          "scriptPubKey": {
            "asm": "OP_DUP OP_HASH160 04379ff0f54032c0c2f8a0176144b345117c3e29 OP_EQUALVERIFY OP_CHECKSIG",
            "hex": "76a91404379ff0f54032c0c2f8a0176144b345117c3e2988ac",
            "reqSigs": 1,
            "type": "pubkeyhash",
            "addresses": [
              "LKcFbrfgdZRJNQoCsUkzDDjooXDJA9c9xj"
            ]
          }
        }
      ],
      "hex": "0100000003ef50cf73f6c7ea73182e13cab6df15ecee54f11e1b47e46f2c02418f3dfbeb03060000006a473044022049a7e7465ba54764ffef3e2dd234988abd77cae2cafc46e2df7a7c8bfc17e7e302207ed513b593cd9d910e1270cc88f053669f1a152f0ad1bafd9f176d6c3d7982010121033cdb9de6ac71da8d391146697cf282338aa2b284851180298455eec6a9e42e30ffffffffb21305de57f35faaa00ba453d1f58d59f997a802f7f6817ecf94c9fd8f865bf8010000006b483045022100feb1d8f29e223f73d50e6e1821217a70770d308b452cb8f2d24e7403600b28520220197f36832f93c5cfd61cd802afbef28378288a4732f1d25959a6c081216c2341012102e24a4b523d35270e178e0b65f79be426f89f37eb4580d1035ea142e621acb984ffffffff2e85c2e0cc938f7207b65765e5f85ce3da5bbfdf5efbc0b7ac53604cb86540e6d30000006b483045022100a31cbf9b85d1365d30984e6ec672410cc8111b52843e94cf309bf45d30f9b9870220510aceab41b63ea037b886c3be51bc6cd692c512586c97a3a281b81ca327625f01210233629dc86199cc6501ed173125c62bc64c199f0e75a3cd5010916be4321b89b6ffffffff0266440f00000000001976a914fb4b53ab21aa7632b488a97c3e32d2fdc087495e88ac07ee5718000000001976a91404379ff0f54032c0c2f8a0176144b345117c3e2988ac00000000"
    }, 
    {
      "txid": "f5bc948cea651aa1f7ef3ab12768f3ed6b89150753b8556e8b101c658a3788bb",
      "hash": "f5bc948cea651aa1f7ef3ab12768f3ed6b89150753b8556e8b101c658a3788bb",
      "version": 2,
      "size": 225,
      "vsize": 225,
      "locktime": 0,
      "vin": [
        {
          "txid": "311c472a5f8af2f813ade3ba05ac9b8fa1449315e66e129f940fe6d746732f6f",
          "vout": 1,
          "scriptSig": {
            "asm": "3044022071c8dc37a0213877ec4562db8c484150f4f2d202959619684a4cf975cc973ab402206881f5adfda7f33e6b01ad0147dabd172d340b35706635ab7638aeba214c4bf4[ALL] 02ed533c6c273a769a857cfeae714b9a3d3d1742f7afc9f73ec232e469cb1807f1",
            "hex": "473044022071c8dc37a0213877ec4562db8c484150f4f2d202959619684a4cf975cc973ab402206881f5adfda7f33e6b01ad0147dabd172d340b35706635ab7638aeba214c4bf4012102ed533c6c273a769a857cfeae714b9a3d3d1742f7afc9f73ec232e469cb1807f1"
          },
          "sequence": 4294967295
        }
      ],
      "vout": [
        {
          "value": 0.05100050,
          "n": 0,
          "scriptPubKey": {
            "asm": "OP_DUP OP_HASH160 d69920fe59726a272dea97e8efc7487e97403907 OP_EQUALVERIFY OP_CHECKSIG",
            "hex": "76a914d69920fe59726a272dea97e8efc7487e9740390788ac",
            "reqSigs": 1,
            "type": "pubkeyhash",
            "addresses": [
              "LeneJr1scZNoMjMjsjPRpPbs6Z63yptLvy"
            ]
          }
        }, 
        {
          "value": 0.00537593,
          "n": 1,
          "scriptPubKey": {
            "asm": "OP_DUP OP_HASH160 30777ec8067b12338a155d5db530e0db0c8e64f2 OP_EQUALVERIFY OP_CHECKSIG",
            "hex": "76a91430777ec8067b12338a155d5db530e0db0c8e64f288ac",
            "reqSigs": 1,
            "type": "pubkeyhash",
            "addresses": [
              "LPeDr6W7s6kEoRhE71XrE1ek7AFkfKrT3C"
            ]
          }
        }
      ],
      "hex": "02000000016f2f7346d7e60f949f126ee6159344a18f9bac05bae3ad13f8f28a5f2a471c31010000006a473044022071c8dc37a0213877ec4562db8c484150f4f2d202959619684a4cf975cc973ab402206881f5adfda7f33e6b01ad0147dabd172d340b35706635ab7638aeba214c4bf4012102ed533c6c273a769a857cfeae714b9a3d3d1742f7afc9f73ec232e469cb1807f1ffffffff0212d24d00000000001976a914d69920fe59726a272dea97e8efc7487e9740390788acf9330800000000001976a91430777ec8067b12338a155d5db530e0db0c8e64f288ac00000000"
    }, 
    {
      "txid": "891eadea0f27edcb0ee1edb762dafb114772f94fd2ef482df80188eeab505dbb",
      "hash": "891eadea0f27edcb0ee1edb762dafb114772f94fd2ef482df80188eeab505dbb",
      "version": 1,
      "size": 486,
      "vsize": 486,
      "locktime": 0,
      "vin": [
        {
          "txid": "620017536fce944d654618e454b8022c85bd1a8552fea0a45ff36561ca85d244",
          "vout": 12,
          "scriptSig": {
            "asm": "304402207b83e936f8bb4d57d676598ca72c7ff00e5855c5a00fc34251607930940492f602205b06bea15d87cc1e75fd382a008856cb4db3891ec2e28afe96d664d9fea70ac4[ALL] 02df4ae67f768b6811269b545dddd43b006be5143fbd50eb1c7b9e72a6e7326411",
            "hex": "47304402207b83e936f8bb4d57d676598ca72c7ff00e5855c5a00fc34251607930940492f602205b06bea15d87cc1e75fd382a008856cb4db3891ec2e28afe96d664d9fea70ac4012102df4ae67f768b6811269b545dddd43b006be5143fbd50eb1c7b9e72a6e7326411"
          },
          "sequence": 4294967295
        }, 
        {
          "txid": "24559b308131c5b17c868e52440219c701f6d71c90b9f704c19f96b5c67ed366",
          "vout": 6,
          "scriptSig": {
            "asm": "3045022100e9413f9f5dc158e9fabdf30df529e9fbd17c70125bbca3a91a689059ef46c06802203233c1164dbf5ed546d1f01cf2a0e02fd5c1cf4dcdaac6e336fda0e002ec9a98[ALL] 0352968ede7cd95129f6c2a6bdcb277af961b2c0967f3d1a022f1c63a031dadae8",
            "hex": "483045022100e9413f9f5dc158e9fabdf30df529e9fbd17c70125bbca3a91a689059ef46c06802203233c1164dbf5ed546d1f01cf2a0e02fd5c1cf4dcdaac6e336fda0e002ec9a9801210352968ede7cd95129f6c2a6bdcb277af961b2c0967f3d1a022f1c63a031dadae8"
          },
          "sequence": 4294967295
        }, 
        {
          "txid": "8b3fe30f90c4c9504c0072e381cc43c99423c5cfb2014ee37e97e8e41101c72d",
          "vout": 0,
          "scriptSig": {
            "asm": "3044022036ef24e9235969a01bd8b901523d27519e75f59f22b14428ba04f257dc282bef022042a0c62601680e09d583d1967432cb04dc72e411330c7df3a583efa92abe270a[ALL] 02fe32e3369514d7c71ff1b8049d61d9b4818382ee546856401d034c8644c1c4e3",
            "hex": "473044022036ef24e9235969a01bd8b901523d27519e75f59f22b14428ba04f257dc282bef022042a0c62601680e09d583d1967432cb04dc72e411330c7df3a583efa92abe270a012102fe32e3369514d7c71ff1b8049d61d9b4818382ee546856401d034c8644c1c4e3"
          },
          "sequence": 4294967295
        }
      ],
      "vout": [
        {
          "value": 2.91774890,
          "n": 0,
          "scriptPubKey": {
            "asm": "OP_DUP OP_HASH160 807a41abe6dd2aeb445e3b73925cb0decf5d692e OP_EQUALVERIFY OP_CHECKSIG",
            "hex": "76a914807a41abe6dd2aeb445e3b73925cb0decf5d692e88ac",
            "reqSigs": 1,
            "type": "pubkeyhash",
            "addresses": [
              "LWwHDJM3hY62hWQ1iSZbY58u1HSjFSZh63"
            ]
          }
        }
      ],
      "hex": "010000000344d285ca6165f35fa4a0fe52851abd852c02b854e41846654d94ce6f531700620c0000006a47304402207b83e936f8bb4d57d676598ca72c7ff00e5855c5a00fc34251607930940492f602205b06bea15d87cc1e75fd382a008856cb4db3891ec2e28afe96d664d9fea70ac4012102df4ae67f768b6811269b545dddd43b006be5143fbd50eb1c7b9e72a6e7326411ffffffff66d37ec6b5969fc104f7b9901cd7f601c7190244528e867cb1c53181309b5524060000006b483045022100e9413f9f5dc158e9fabdf30df529e9fbd17c70125bbca3a91a689059ef46c06802203233c1164dbf5ed546d1f01cf2a0e02fd5c1cf4dcdaac6e336fda0e002ec9a9801210352968ede7cd95129f6c2a6bdcb277af961b2c0967f3d1a022f1c63a031dadae8ffffffff2dc70111e4e8977ee34e01b2cfc52394c943cc81e372004c50c9c4900fe33f8b000000006a473044022036ef24e9235969a01bd8b901523d27519e75f59f22b14428ba04f257dc282bef022042a0c62601680e09d583d1967432cb04dc72e411330c7df3a583efa92abe270a012102fe32e3369514d7c71ff1b8049d61d9b4818382ee546856401d034c8644c1c4e3ffffffff01aa216411000000001976a914807a41abe6dd2aeb445e3b73925cb0decf5d692e88ac00000000"
    }, 
    {
      "txid": "05193e3933e1a1158ae4e27711c14c3d45d2b6a6e50def78e2cbe2c542bd5d9f",
      "hash": "05193e3933e1a1158ae4e27711c14c3d45d2b6a6e50def78e2cbe2c542bd5d9f",
      "version": 1,
      "size": 223,
      "vsize": 223,
      "locktime": 0,
      "vin": [
        {
          "txid": "de8fd7909ca5972e57e3487eddc7eb30200847c7d763971927510da017f08bea",
          "vout": 1,
          "scriptSig": {
            "asm": "304402205e407f1b377711408186d63ab14cc40fc7f1720a4c0a021627c1f6e9d4b3db1c022055fe9ee2084821cf77b6dda7c6bcb6c49771784bca57c25a0f14215ecf47db7e[ALL] 0328841dc55b9d4d92babeb9e4c7a52bd2707e2e69e270ec81d0f1e17dc44dc7b9",
            "hex": "47304402205e407f1b377711408186d63ab14cc40fc7f1720a4c0a021627c1f6e9d4b3db1c022055fe9ee2084821cf77b6dda7c6bcb6c49771784bca57c25a0f14215ecf47db7e01210328841dc55b9d4d92babeb9e4c7a52bd2707e2e69e270ec81d0f1e17dc44dc7b9"
          },
          "sequence": 4294967295
        }
      ],
      "vout": [
        {
          "value": 0.03637200,
          "n": 0,
          "scriptPubKey": {
            "asm": "OP_DUP OP_HASH160 a4aeb907e92167f47ab933885e16acc5f25e7ceb OP_EQUALVERIFY OP_CHECKSIG",
            "hex": "76a914a4aeb907e92167f47ab933885e16acc5f25e7ceb88ac",
            "reqSigs": 1,
            "type": "pubkeyhash",
            "addresses": [
              "LaEiPdBKGXG8YvxSavzNQmBvGv4UHsFmsi"
            ]
          }
        }, 
        {
          "value": 0.27256000,
          "n": 1,
          "scriptPubKey": {
            "asm": "OP_HASH160 01da303fca6fd78857154092f47cfed794348a42 OP_EQUAL",
            "hex": "a91401da303fca6fd78857154092f47cfed794348a4287",
            "reqSigs": 1,
            "type": "scripthash",
            "addresses": [
              "M84xHd5kzJU9U6nBNnFPLtm361kpe6xqkX"
            ]
          }
        }
      ],
      "hex": "0100000001ea8bf017a00d5127199763d7c747082030ebc7dd7e48e3572e97a59c90d78fde010000006a47304402205e407f1b377711408186d63ab14cc40fc7f1720a4c0a021627c1f6e9d4b3db1c022055fe9ee2084821cf77b6dda7c6bcb6c49771784bca57c25a0f14215ecf47db7e01210328841dc55b9d4d92babeb9e4c7a52bd2707e2e69e270ec81d0f1e17dc44dc7b9ffffffff02d07f3700000000001976a914a4aeb907e92167f47ab933885e16acc5f25e7ceb88acc0e49f010000000017a91401da303fca6fd78857154092f47cfed794348a428700000000"
    }, 
    {
      "txid": "9424399e44f0081222d63cfd1c82778d038c139aa30778027d4b8741b540c019",
      "hash": "9424399e44f0081222d63cfd1c82778d038c139aa30778027d4b8741b540c019",
      "version": 1,
      "size": 225,
      "vsize": 225,
      "locktime": 0,
      "vin": [
        {
          "txid": "8b708a0d075d28538b0dd7b52e53be1e7c0f75e27c0f058187ad3e289ea5ccda",
          "vout": 0,
          "scriptSig": {
            "asm": "3044022019f972a91cf4cf6e6c1f37efa35c15f9b9c46574d624f1b235d479256da5cae20220782dc263bd0afb6897c0bfdbb246849d5179f99d92b83ea5a52ea1fa83a7fb2b[ALL] 035cee179006454b23bed9d06f3ed78b48e2d06656c353abbb43932bdddc56665a",
            "hex": "473044022019f972a91cf4cf6e6c1f37efa35c15f9b9c46574d624f1b235d479256da5cae20220782dc263bd0afb6897c0bfdbb246849d5179f99d92b83ea5a52ea1fa83a7fb2b0121035cee179006454b23bed9d06f3ed78b48e2d06656c353abbb43932bdddc56665a"
          },
          "sequence": 4294967295
        }
      ],
      "vout": [
        {
          "value": 1.23880515,
          "n": 0,
          "scriptPubKey": {
            "asm": "OP_DUP OP_HASH160 fbaaf5c0c0cb042fa27bb77f1283e909d2d18269 OP_EQUALVERIFY OP_CHECKSIG",
            "hex": "76a914fbaaf5c0c0cb042fa27bb77f1283e909d2d1826988ac",
            "reqSigs": 1,
            "type": "pubkeyhash",
            "addresses": [
              "LiAefsPWaTTTfYNRVsfCU8WSDHprgfXcfA"
            ]
          }
        }, 
        {
          "value": 2.00523487,
          "n": 1,
          "scriptPubKey": {
            "asm": "OP_DUP OP_HASH160 b617c02fc60885129e218eeaefe381852d3b24bc OP_EQUALVERIFY OP_CHECKSIG",
            "hex": "76a914b617c02fc60885129e218eeaefe381852d3b24bc88ac",
            "reqSigs": 1,
            "type": "pubkeyhash",
            "addresses": [
              "LbpmhMavaXSvpYQwkojhLf6UnHH5GK94mz"
            ]
          }
        }
      ],
      "hex": "0100000001dacca59e283ead8781050f7ce2750f7c1ebe532eb5d70d8b53285d070d8a708b000000006a473044022019f972a91cf4cf6e6c1f37efa35c15f9b9c46574d624f1b235d479256da5cae20220782dc263bd0afb6897c0bfdbb246849d5179f99d92b83ea5a52ea1fa83a7fb2b0121035cee179006454b23bed9d06f3ed78b48e2d06656c353abbb43932bdddc56665affffffff0243446207000000001976a914fbaaf5c0c0cb042fa27bb77f1283e909d2d1826988acdfbef30b000000001976a914b617c02fc60885129e218eeaefe381852d3b24bc88ac00000000"
    }, 
    {
      "txid": "ea01a74841333adffab0a132d49f5fbc48ee0ba24e1dff0a9584559c2e4084e6",
      "hash": "ea01a74841333adffab0a132d49f5fbc48ee0ba24e1dff0a9584559c2e4084e6",
      "version": 1,
      "size": 225,
      "vsize": 225,
      "locktime": 0,
      "vin": [
        {
          "txid": "a344373b17d4c5be88df6d45d46506abfc23fbdc4c59ae012ec329d98deb8c9e",
          "vout": 0,
          "scriptSig": {
            "asm": "3044022061e13cb4d42fb36750fc4ff251172a6daf33a1961344805d6b734b75effd6ecf0220341f17621fc74032117bb3b87798dd9d122694392dbb3ad845c63810a1948b3f[ALL] 03bee3ac5cd0a776b6ac0d0418e099871af1bc0bb1e87637d16c0199c62c5ed0a1",
            "hex": "473044022061e13cb4d42fb36750fc4ff251172a6daf33a1961344805d6b734b75effd6ecf0220341f17621fc74032117bb3b87798dd9d122694392dbb3ad845c63810a1948b3f012103bee3ac5cd0a776b6ac0d0418e099871af1bc0bb1e87637d16c0199c62c5ed0a1"
          },
          "sequence": 4294967295
        }
      ],
      "vout": [
        {
          "value": 0.65301945,
          "n": 0,
          "scriptPubKey": {
            "asm": "OP_DUP OP_HASH160 9f99671b9a33de482d504ce843aa5b5fefa2c656 OP_EQUALVERIFY OP_CHECKSIG",
            "hex": "76a9149f99671b9a33de482d504ce843aa5b5fefa2c65688ac",
            "reqSigs": 1,
            "type": "pubkeyhash",
            "addresses": [
              "LZmqUKoc1MEGmTQCx9RQ1LMMxGeqm1oKVN"
            ]
          }
        }, 
        {
          "value": 0.05104271,
          "n": 1,
          "scriptPubKey": {
            "asm": "OP_DUP OP_HASH160 b7b011ec2284285e830a15bf71ffe90222f49ec2 OP_EQUALVERIFY OP_CHECKSIG",
            "hex": "76a914b7b011ec2284285e830a15bf71ffe90222f49ec288ac",
            "reqSigs": 1,
            "type": "pubkeyhash",
            "addresses": [
              "LbyCqsoUSVopJAwx2huUXWFEgqqHpHbuE7"
            ]
          }
        }
      ],
      "hex": "01000000019e8ceb8dd929c32e01ae594cdcfb23fcab0665d4456ddf88bec5d4173b3744a3000000006a473044022061e13cb4d42fb36750fc4ff251172a6daf33a1961344805d6b734b75effd6ecf0220341f17621fc74032117bb3b87798dd9d122694392dbb3ad845c63810a1948b3f012103bee3ac5cd0a776b6ac0d0418e099871af1bc0bb1e87637d16c0199c62c5ed0a1ffffffff02b96de403000000001976a9149f99671b9a33de482d504ce843aa5b5fefa2c65688ac8fe24d00000000001976a914b7b011ec2284285e830a15bf71ffe90222f49ec288ac00000000"
    }, 
    {
      "txid": "765ec9f0938e2b24d0dce2c93211c28f0c01ffc8702c14c9bc45dca462f0d644",
      "hash": "765ec9f0938e2b24d0dce2c93211c28f0c01ffc8702c14c9bc45dca462f0d644",
      "version": 1,
      "size": 226,
      "vsize": 226,
      "locktime": 1357871,
      "vin": [
        {
          "txid": "90ad7ce39249fb6dd11d357ed19a18600f6c483142bd93f005cef9535705065b",
          "vout": 0,
          "scriptSig": {
            "asm": "3045022100a7bb56291505f0e956e96b8bf42061652353179946c74eb4f12e540f5b68e57b02205c96ca33548b71fa54b5ebd2f9eecd625d4802329ec9efc304599c2d925fb37d[ALL] 02b78fe65cc170258682002724951483f42281059fe3916d18a1904301454757bc",
            "hex": "483045022100a7bb56291505f0e956e96b8bf42061652353179946c74eb4f12e540f5b68e57b02205c96ca33548b71fa54b5ebd2f9eecd625d4802329ec9efc304599c2d925fb37d012102b78fe65cc170258682002724951483f42281059fe3916d18a1904301454757bc"
          },
          "sequence": 4294967293
        }
      ],
      "vout": [
        {
          "value": 0.29977400,
          "n": 0,
          "scriptPubKey": {
            "asm": "OP_DUP OP_HASH160 9cf504acd03b271e655314cd6c52329631722f55 OP_EQUALVERIFY OP_CHECKSIG",
            "hex": "76a9149cf504acd03b271e655314cd6c52329631722f5588ac",
            "reqSigs": 1,
            "type": "pubkeyhash",
            "addresses": [
              "LZXsCJh8ou5xNkrXkT1gCXquj5MddkGwdd"
            ]
          }
        }, 
        {
          "value": 2.00000000,
          "n": 1,
          "scriptPubKey": {
            "asm": "OP_DUP OP_HASH160 1e03f03b313f46396f45c064192f85fcfc5cc243 OP_EQUALVERIFY OP_CHECKSIG",
            "hex": "76a9141e03f03b313f46396f45c064192f85fcfc5cc24388ac",
            "reqSigs": 1,
            "type": "pubkeyhash",
            "addresses": [
              "LMxfFcWJxWyhAZZWi9Ah9q37fJGVEMgJio"
            ]
          }
        }
      ],
      "hex": "01000000015b06055753f9ce05f093bd4231486c0f60189ad17e351dd16dfb4992e37cad90000000006b483045022100a7bb56291505f0e956e96b8bf42061652353179946c74eb4f12e540f5b68e57b02205c96ca33548b71fa54b5ebd2f9eecd625d4802329ec9efc304599c2d925fb37d012102b78fe65cc170258682002724951483f42281059fe3916d18a1904301454757bcfdffffff02386bc901000000001976a9149cf504acd03b271e655314cd6c52329631722f5588ac00c2eb0b000000001976a9141e03f03b313f46396f45c064192f85fcfc5cc24388ac2fb81400"
    }, 
    {
      "txid": "434e424c6b6b634f0def74e9405da6f750c7bf072e0a69bf46f782232203cbbe",
      "hash": "434e424c6b6b634f0def74e9405da6f750c7bf072e0a69bf46f782232203cbbe",
      "version": 1,
      "size": 226,
      "vsize": 226,
      "locktime": 0,
      "vin": [
        {
          "txid": "94c0987be456ee3714bfa3e698d0552d5a91d4abd3abffcc774842d64fdaf596",
          "vout": 0,
          "scriptSig": {
            "asm": "30450221008e187a571f5b072c96eb99ffe86ea5f85c14d8e130b032ed043bc562dffb9088022014d222ca450dd1a9cbe4bf23601ec0ab47e88d8daf611bb017c1a203f2432e25[ALL] 034a5a93867fbf9a165fe82a065e6819a71bddccfa663fc4c02c9198229f26e3cb",
            "hex": "4830450221008e187a571f5b072c96eb99ffe86ea5f85c14d8e130b032ed043bc562dffb9088022014d222ca450dd1a9cbe4bf23601ec0ab47e88d8daf611bb017c1a203f2432e250121034a5a93867fbf9a165fe82a065e6819a71bddccfa663fc4c02c9198229f26e3cb"
          },
          "sequence": 4294967295
        }
      ],
      "vout": [
        {
          "value": 0.11610216,
          "n": 0,
          "scriptPubKey": {
            "asm": "OP_DUP OP_HASH160 bc39bb0e82c414842f4eedf422b3fed44d0ce7c1 OP_EQUALVERIFY OP_CHECKSIG",
            "hex": "76a914bc39bb0e82c414842f4eedf422b3fed44d0ce7c188ac",
            "reqSigs": 1,
            "type": "pubkeyhash",
            "addresses": [
              "LcPCTUYs6nnzjwwbz4sKbMMZMTCFASF6cU"
            ]
          }
        }, 
        {
          "value": 0.30956622,
          "n": 1,
          "scriptPubKey": {
            "asm": "OP_DUP OP_HASH160 f1824c0b3d9fd4167976bb39b73c1911e24a24a7 OP_EQUALVERIFY OP_CHECKSIG",
            "hex": "76a914f1824c0b3d9fd4167976bb39b73c1911e24a24a788ac",
            "reqSigs": 1,
            "type": "pubkeyhash",
            "addresses": [
              "LhEwCeAmDMDH5Nkye23VDnBBbJCgoCmr5h"
            ]
          }
        }
      ],
      "hex": "010000000196f5da4fd6424877ccffabd3abd4915a2d55d098e6a3bf1437ee56e47b98c094000000006b4830450221008e187a571f5b072c96eb99ffe86ea5f85c14d8e130b032ed043bc562dffb9088022014d222ca450dd1a9cbe4bf23601ec0ab47e88d8daf611bb017c1a203f2432e250121034a5a93867fbf9a165fe82a065e6819a71bddccfa663fc4c02c9198229f26e3cbffffffff026828b100000000001976a914bc39bb0e82c414842f4eedf422b3fed44d0ce7c188ac4e5cd801000000001976a914f1824c0b3d9fd4167976bb39b73c1911e24a24a788ac00000000"
    }, 
    {
      "txid": "3b50d578535047eb2a52819f9fed236de0408aa7d9ef8efbfe0ccab558cb05f2",
      "hash": "3b50d578535047eb2a52819f9fed236de0408aa7d9ef8efbfe0ccab558cb05f2",
      "version": 1,
      "size": 226,
      "vsize": 226,
      "locktime": 0,
      "vin": [
        {
          "txid": "381c01e406cbbc60e20036ba830d589b074d6c4d3c1cb9885120b3099bd0c9cd",
          "vout": 1,
          "scriptSig": {
            "asm": "30450221008b2d9de2fdcdc4ae986ae9530574eaea62dc663938da5e02c40c326cba6bff7602203a4b9724e9474b9202ab5d9b277ff911cb21688c4c17a25bc1869e5b6f8404ba[ALL] 02eebedcca98cd992f4600c8664dfbbe15e3b938022fb9bb82c63e828a1d6a03fa",
            "hex": "4830450221008b2d9de2fdcdc4ae986ae9530574eaea62dc663938da5e02c40c326cba6bff7602203a4b9724e9474b9202ab5d9b277ff911cb21688c4c17a25bc1869e5b6f8404ba012102eebedcca98cd992f4600c8664dfbbe15e3b938022fb9bb82c63e828a1d6a03fa"
          },
          "sequence": 4294967295
        }
      ],
      "vout": [
        {
          "value": 0.16567080,
          "n": 0,
          "scriptPubKey": {
            "asm": "OP_DUP OP_HASH160 4f4b44a53c9d5432ae12828bc2b3cd73a75080de OP_EQUALVERIFY OP_CHECKSIG",
            "hex": "76a9144f4b44a53c9d5432ae12828bc2b3cd73a75080de88ac",
            "reqSigs": 1,
            "type": "pubkeyhash",
            "addresses": [
              "LSTDp6BNHoYsZt73c8trDj5BsR5etCvcTA"
            ]
          }
        }, 
        {
          "value": 2.83064270,
          "n": 1,
          "scriptPubKey": {
            "asm": "OP_DUP OP_HASH160 fb6732085e669b08008565615aeb55ba667839d8 OP_EQUALVERIFY OP_CHECKSIG",
            "hex": "76a914fb6732085e669b08008565615aeb55ba667839d888ac",
            "reqSigs": 1,
            "type": "pubkeyhash",
            "addresses": [
              "Li9FVWNvhW76G5a98E6RK27znWLrLU2MFC"
            ]
          }
        }
      ],
      "hex": "0100000001cdc9d09b09b3205188b91c3c4d6c4d079b580d83ba3600e260bccb06e4011c38010000006b4830450221008b2d9de2fdcdc4ae986ae9530574eaea62dc663938da5e02c40c326cba6bff7602203a4b9724e9474b9202ab5d9b277ff911cb21688c4c17a25bc1869e5b6f8404ba012102eebedcca98cd992f4600c8664dfbbe15e3b938022fb9bb82c63e828a1d6a03faffffffff0228cbfc00000000001976a9144f4b44a53c9d5432ae12828bc2b3cd73a75080de88acce37df10000000001976a914fb6732085e669b08008565615aeb55ba667839d888ac00000000"
    }
  ],
  "time": 1517059304,
  "mediantime": 1517058651,
  "nonce": 415567923,
  "bits": "1a047f14",
  "difficulty": 3731199.183374282,
  "chainwork": "0000000000000000000000000000000000000000000000329a43933318450014",
  "previousblockhash": "eff0171ca64787c61dab4bbe0e742175d9462a0e77ca0d209b198f0dccacf4f7",
  "nextblockhash": "638d4b84778528fdb501a91983e98c1bb0c7521fca4acf6c6086f1e35ca29e29"
}
