{
  "hash": "8737a351dbad5a93397ff3cc3727bc709ddaaa90704badd9df8f5b63010dd4f0",
  "confirmations": 3060,
  "strippedsize": 4125,
  "size": 4161,
  "weight": 16536,
  "height": 1357935,
  "version": 536870912,
  "versionHex": "20000000",
  "merkleroot": "9def4684075f720cbf2d51bc6164318e6e7b9df1ffe2dbb02fc900eb55c2f091",
  "tx": [
    {
      "txid": "2cf60b0e562d175f16878228dd9a75dd9a4a94e93713eed88bbb5bc81ef118b0",
      "hash": "1c96ad619a03ab9a083a4459a4bac67be6bf1c448645bf60574ecad0058372a3",
      "version": 1,
      "size": 236,
      "vsize": 209,
      "locktime": 0,
      "vin": [
        {
          "coinbase": "036fb814045a6c9bdd2cfabe6d6d26c1e85a64fef55526360259283d9e1876130e7bc9e1a9fcb49764f8bf8920524000000000000000042f4c502f085600225954000000",
          "sequence": 4294967295
        }
      ],
      "vout": [
        {
          "value": 25.01773689,
          "n": 0,
          "scriptPubKey": {
            "asm": "OP_DUP OP_HASH160 57757ed2ecf2052ff3126c397aca7defb9ca2cec OP_EQUALVERIFY OP_CHECKSIG",
            "hex": "76a91457757ed2ecf2052ff3126c397aca7defb9ca2cec88ac",
            "reqSigs": 1,
            "type": "pubkeyhash",
            "addresses": [
              "LTCPodGk5FwcJaRzH9yKnwicxzFUbxp6tN"
            ]
          }
        }, 
        {
          "value": 0.00000000,
          "n": 1,
          "scriptPubKey": {
            "asm": "OP_RETURN aa21a9ed09e30e1cec4c113d399908511330271b961fb63b6556715433bf0b3eb54b5855",
            "hex": "6a24aa21a9ed09e30e1cec4c113d399908511330271b961fb63b6556715433bf0b3eb54b5855",
            "type": "nulldata"
          }
        }
      ],
      "hex": "010000000001010000000000000000000000000000000000000000000000000000000000000000ffffffff44036fb814045a6c9bdd2cfabe6d6d26c1e85a64fef55526360259283d9e1876130e7bc9e1a9fcb49764f8bf8920524000000000000000042f4c502f085600225954000000ffffffff0279091e95000000001976a91457757ed2ecf2052ff3126c397aca7defb9ca2cec88ac0000000000000000266a24aa21a9ed09e30e1cec4c113d399908511330271b961fb63b6556715433bf0b3eb54b58550120000000000000000000000000000000000000000000000000000000000000000000000000"
    }, 
    {
      "txid": "bdaa927e65497f23f4379adc0e516eb60bc6fc6fc1a4588f7fc0abd88c695dc1",
      "hash": "bdaa927e65497f23f4379adc0e516eb60bc6fc6fc1a4588f7fc0abd88c695dc1",
      "version": 1,
      "size": 694,
      "vsize": 694,
      "locktime": 0,
      "vin": [
        {
          "txid": "14d0550b2fd28406c115e97cd16b01652c486de6eb0112ab535f792cf303e6bc",
          "vout": 0,
          "scriptSig": {
            "asm": "0 304402202e6c5520a9f91c713418213b3e361808c80c480cb0a373075a992ce91508a683022017e29ae464067df390af4adc7fe5b1863fe472d72a1effd8c2cef9e68203e31d[ALL] 304402204f209bec2582540890916462c39fe1cdaaab263b466940213a94d5d6181fb9eb022011c029311963e7a7f82dc398d2d9b9baa64e02d2a1436e86e4d4c7ba8c61d7a4[ALL] 5221028fdb81422c4001329ea623395e6c63b48633848feafebac8d8545014e4a80b4b21027e6bd9db356d1132c64fbd445e5098b5a3391654b24eaa586f3858440060c4b421039a4af78c26c7150485dbfb044b3bac3f42557ca9acea5154b9415fcd8927d8e353ae",
            "hex": "0047304402202e6c5520a9f91c713418213b3e361808c80c480cb0a373075a992ce91508a683022017e29ae464067df390af4adc7fe5b1863fe472d72a1effd8c2cef9e68203e31d0147304402204f209bec2582540890916462c39fe1cdaaab263b466940213a94d5d6181fb9eb022011c029311963e7a7f82dc398d2d9b9baa64e02d2a1436e86e4d4c7ba8c61d7a4014c695221028fdb81422c4001329ea623395e6c63b48633848feafebac8d8545014e4a80b4b21027e6bd9db356d1132c64fbd445e5098b5a3391654b24eaa586f3858440060c4b421039a4af78c26c7150485dbfb044b3bac3f42557ca9acea5154b9415fcd8927d8e353ae"
          },
          "sequence": 4294967295
        }, 
        {
          "txid": "589c0f014465eceb8a090743b5840f68e640c40fc38d076fe2c369f748884cea",
          "vout": 4,
          "scriptSig": {
            "asm": "0 3044022045a3d7c0cc4292230bac665ea46cf4f454cfa8fd7bdac941a4db9b60cf172a0802202dd96a9eae9b76a9d5cdaab7ff394176091f3ae490b4095b55e5e7d225863b17[ALL] 30440220592d26ed8695510f4c09727a3663608eeacd0a1aa7b4cbdf3eeb921aa71efca202201bf9a6f8670023552efaca50e64912ff178704f1ca775ca18c28c3764ca5357a[ALL] 52210244cb375e6ca4bceed144c8ed092073da00accb713ab8d5f8c00645b67414a69821037c15774aec51deb9f997c32f0a4a747c41af3e81c85c76f77cfe6e0b17b50c25210356aa059db8e4a9561a76fdb80360ec6399c4112752474b2eee6af90f7c0cec0b53ae",
            "hex": "00473044022045a3d7c0cc4292230bac665ea46cf4f454cfa8fd7bdac941a4db9b60cf172a0802202dd96a9eae9b76a9d5cdaab7ff394176091f3ae490b4095b55e5e7d225863b17014730440220592d26ed8695510f4c09727a3663608eeacd0a1aa7b4cbdf3eeb921aa71efca202201bf9a6f8670023552efaca50e64912ff178704f1ca775ca18c28c3764ca5357a014c6952210244cb375e6ca4bceed144c8ed092073da00accb713ab8d5f8c00645b67414a69821037c15774aec51deb9f997c32f0a4a747c41af3e81c85c76f77cfe6e0b17b50c25210356aa059db8e4a9561a76fdb80360ec6399c4112752474b2eee6af90f7c0cec0b53ae"
          },
          "sequence": 4294967295
        }
      ],
      "vout": [
        {
          "value": 0.76901727,
          "n": 0,
          "scriptPubKey": {
            "asm": "OP_HASH160 041e00c7e4e3329338f672c7ddd711521534a80b OP_EQUAL",
            "hex": "a914041e00c7e4e3329338f672c7ddd711521534a80b87",
            "reqSigs": 1,
            "type": "scripthash",
            "addresses": [
              "M8Gvsr28V5X8Y63SbUWPFC6f3d5tuiLFN1"
            ]
          }
        }, 
        {
          "value": 0.40000000,
          "n": 1,
          "scriptPubKey": {
            "asm": "OP_DUP OP_HASH160 af805181eb92a8d34660a756a1812a96faa8fbad OP_EQUALVERIFY OP_CHECKSIG",
            "hex": "76a914af805181eb92a8d34660a756a1812a96faa8fbad88ac",
            "reqSigs": 1,
            "type": "pubkeyhash",
            "addresses": [
              "LbDvEW2aLCySiPYiWZo83c1uQJNCyCdSkB"
            ]
          }
        }, 
        {
          "value": 222.97493327,
          "n": 2,
          "scriptPubKey": {
            "asm": "OP_HASH160 06feed5bf1c7ec1114b47a13f24aeeb23a59bcfe OP_EQUAL",
            "hex": "a91406feed5bf1c7ec1114b47a13f24aeeb23a59bcfe87",
            "reqSigs": 1,
            "type": "scripthash",
            "addresses": [
              "M8Y9gESE4Fz1ZwefP8MEYxoYnZkwzczzem"
            ]
          }
        }
      ],
      "hex": "0100000002bce603f32c795f53ab1201ebe66d482c65016bd17ce915c10684d22f0b55d01400000000fc0047304402202e6c5520a9f91c713418213b3e361808c80c480cb0a373075a992ce91508a683022017e29ae464067df390af4adc7fe5b1863fe472d72a1effd8c2cef9e68203e31d0147304402204f209bec2582540890916462c39fe1cdaaab263b466940213a94d5d6181fb9eb022011c029311963e7a7f82dc398d2d9b9baa64e02d2a1436e86e4d4c7ba8c61d7a4014c695221028fdb81422c4001329ea623395e6c63b48633848feafebac8d8545014e4a80b4b21027e6bd9db356d1132c64fbd445e5098b5a3391654b24eaa586f3858440060c4b421039a4af78c26c7150485dbfb044b3bac3f42557ca9acea5154b9415fcd8927d8e353aeffffffffea4c8848f769c3e26f078dc30fc440e6680f84b54307098aebec6544010f9c5804000000fc00473044022045a3d7c0cc4292230bac665ea46cf4f454cfa8fd7bdac941a4db9b60cf172a0802202dd96a9eae9b76a9d5cdaab7ff394176091f3ae490b4095b55e5e7d225863b17014730440220592d26ed8695510f4c09727a3663608eeacd0a1aa7b4cbdf3eeb921aa71efca202201bf9a6f8670023552efaca50e64912ff178704f1ca775ca18c28c3764ca5357a014c6952210244cb375e6ca4bceed144c8ed092073da00accb713ab8d5f8c00645b67414a69821037c15774aec51deb9f997c32f0a4a747c41af3e81c85c76f77cfe6e0b17b50c25210356aa059db8e4a9561a76fdb80360ec6399c4112752474b2eee6af90f7c0cec0b53aeffffffff035f6d95040000000017a914041e00c7e4e3329338f672c7ddd711521534a80b87005a6202000000001976a914af805181eb92a8d34660a756a1812a96faa8fbad88ac4fbf08310500000017a91406feed5bf1c7ec1114b47a13f24aeeb23a59bcfe8700000000"
    }, 
    {
      "txid": "e3266961cde5d09511ba290a9c6b929988b320e6b355d581f725abb62a5ea23e",
      "hash": "e3266961cde5d09511ba290a9c6b929988b320e6b355d581f725abb62a5ea23e",
      "version": 1,
      "size": 633,
      "vsize": 633,
      "locktime": 0,
      "vin": [
        {
          "txid": "ea19d6f1db717700f0f9c76f25dd6846591be11b3c4eaca65a97e820c9ee33e0",
          "vout": 0,
          "scriptSig": {
            "asm": "304402206c07b5d72dd515df92589f97b9c87ee0cb7f43d0f45e6e9c92bf9d5fc03ec9f10220252a818096a49421f57bc299ac250c9e8b94fa05c9196300e38d38345fc72a9b[ALL] 0356c2f82a7d8b929ee3e490aa3498e458403d345b44850f75a23cbd64d1004a33",
            "hex": "47304402206c07b5d72dd515df92589f97b9c87ee0cb7f43d0f45e6e9c92bf9d5fc03ec9f10220252a818096a49421f57bc299ac250c9e8b94fa05c9196300e38d38345fc72a9b01210356c2f82a7d8b929ee3e490aa3498e458403d345b44850f75a23cbd64d1004a33"
          },
          "sequence": 4294967295
        }
      ],
      "vout": [
        {
          "value": 3.17211473,
          "n": 0,
          "scriptPubKey": {
            "asm": "OP_DUP OP_HASH160 b301a7ffa1b4322c2993436ebbd9abd858b3c057 OP_EQUALVERIFY OP_CHECKSIG",
            "hex": "76a914b301a7ffa1b4322c2993436ebbd9abd858b3c05788ac",
            "reqSigs": 1,
            "type": "pubkeyhash",
            "addresses": [
              "LbYTCdQeRKigBR7t6Mc7PQB8ii8Pd3btzj"
            ]
          }
        }, 
        {
          "value": 3.99000000,
          "n": 1,
          "scriptPubKey": {
            "asm": "OP_DUP OP_HASH160 04cfcea28fac72fc460d4f1e2ded81dc6be35999 OP_EQUALVERIFY OP_CHECKSIG",
            "hex": "76a91404cfcea28fac72fc460d4f1e2ded81dc6be3599988ac",
            "reqSigs": 1,
            "type": "pubkeyhash",
            "addresses": [
              "LKfPug8cdWWwa2Jh2g985VYkeJRRmwR1Hi"
            ]
          }
        }, 
        {
          "value": 0.09000000,
          "n": 2,
          "scriptPubKey": {
            "asm": "OP_DUP OP_HASH160 de295d1cbb4b890423337a261066f1662f475983 OP_EQUALVERIFY OP_CHECKSIG",
            "hex": "76a914de295d1cbb4b890423337a261066f1662f47598388ac",
            "reqSigs": 1,
            "type": "pubkeyhash",
            "addresses": [
              "LfUdpoQnzAcw87yaYUauieqJ2hT4fSGtNk"
            ]
          }
        }, 
        {
          "value": 2.99000000,
          "n": 3,
          "scriptPubKey": {
            "asm": "OP_DUP OP_HASH160 c4808d3b2ea30a603642b76e5f8c1268c8b81d2c OP_EQUALVERIFY OP_CHECKSIG",
            "hex": "76a914c4808d3b2ea30a603642b76e5f8c1268c8b81d2c88ac",
            "reqSigs": 1,
            "type": "pubkeyhash",
            "addresses": [
              "Ld8xhjqZ4eqZBBbsu54xQeWFE4CyR4ZmgQ"
            ]
          }
        }, 
        {
          "value": 2.07739878,
          "n": 4,
          "scriptPubKey": {
            "asm": "OP_DUP OP_HASH160 fab64fca5ed16580d6f2b0f0e3e7444ff6d18d14 OP_EQUALVERIFY OP_CHECKSIG",
            "hex": "76a914fab64fca5ed16580d6f2b0f0e3e7444ff6d18d1488ac",
            "reqSigs": 1,
            "type": "pubkeyhash",
            "addresses": [
              "Li5bbQdtF6ZSgcdfepVt9DXRceFbfXa2ug"
            ]
          }
        }, 
        {
          "value": 0.22000000,
          "n": 5,
          "scriptPubKey": {
            "asm": "OP_DUP OP_HASH160 7ab649cbaf01f157cc6ff57b1cf56717f6a20ecd OP_EQUALVERIFY OP_CHECKSIG",
            "hex": "76a9147ab649cbaf01f157cc6ff57b1cf56717f6a20ecd88ac",
            "reqSigs": 1,
            "type": "pubkeyhash",
            "addresses": [
              "LWQo5E7mGu8NmTFsyYdNyWXQs1a1FWZu1w"
            ]
          }
        }, 
        {
          "value": 0.51242819,
          "n": 6,
          "scriptPubKey": {
            "asm": "OP_DUP OP_HASH160 659ba91b920c50796565e19680c14cd9b3f32d28 OP_EQUALVERIFY OP_CHECKSIG",
            "hex": "76a914659ba91b920c50796565e19680c14cd9b3f32d2888ac",
            "reqSigs": 1,
            "type": "pubkeyhash",
            "addresses": [
              "LUVCz5GU2tMiJMUVHQFFstzzq6Haj63wBz"
            ]
          }
        }, 
        {
          "value": 4.01000000,
          "n": 7,
          "scriptPubKey": {
            "asm": "OP_DUP OP_HASH160 0c90c1bef680453a07551d80b2c8d462b3db4f30 OP_EQUALVERIFY OP_CHECKSIG",
            "hex": "76a9140c90c1bef680453a07551d80b2c8d462b3db4f3088ac",
            "reqSigs": 1,
            "type": "pubkeyhash",
            "addresses": [
              "LLNPnPsbJfBj4n8JXgHWzGZTCfK6PHYoJ9"
            ]
          }
        }, 
        {
          "value": 0.72294464,
          "n": 8,
          "scriptPubKey": {
            "asm": "OP_DUP OP_HASH160 c450e58af3d7dfe59d5a945cec2af1577c2c0d74 OP_EQUALVERIFY OP_CHECKSIG",
            "hex": "76a914c450e58af3d7dfe59d5a945cec2af1577c2c0d7488ac",
            "reqSigs": 1,
            "type": "pubkeyhash",
            "addresses": [
              "Ld7yccK9mC1QB1yzxqgrioGEHdpczLuWom"
            ]
          }
        }, 
        {
          "value": 0.99000000,
          "n": 9,
          "scriptPubKey": {
            "asm": "OP_DUP OP_HASH160 4031bfd63a743d89c9ad298ca1420ccda18fe38a OP_EQUALVERIFY OP_CHECKSIG",
            "hex": "76a9144031bfd63a743d89c9ad298ca1420ccda18fe38a88ac",
            "reqSigs": 1,
            "type": "pubkeyhash",
            "addresses": [
              "LR5P78sMHtTR5biQpK8u5gyHRxrQfJMHTx"
            ]
          }
        }, 
        {
          "value": 4.72229578,
          "n": 10,
          "scriptPubKey": {
            "asm": "OP_DUP OP_HASH160 0b1b668cc5fb4d3614302f3442e5ed07c1ac6d50 OP_EQUALVERIFY OP_CHECKSIG",
            "hex": "76a9140b1b668cc5fb4d3614302f3442e5ed07c1ac6d5088ac",
            "reqSigs": 1,
            "type": "pubkeyhash",
            "addresses": [
              "LLEgX9cBh7yJ5xLnEtxkX4xjwDikDe5GSU"
            ]
          }
        }, 
        {
          "value": 20.99972888,
          "n": 11,
          "scriptPubKey": {
            "asm": "OP_DUP OP_HASH160 46d1a2ea5cee0abdc2c9edaf831037e7e67401ff OP_EQUALVERIFY OP_CHECKSIG",
            "hex": "76a91446d1a2ea5cee0abdc2c9edaf831037e7e67401ff88ac",
            "reqSigs": 1,
            "type": "pubkeyhash",
            "addresses": [
              "LRgQhS47mZVbZxFoE7Vi5sXk64UvKj4pYg"
            ]
          }
        }, 
        {
          "value": 0.99000000,
          "n": 12,
          "scriptPubKey": {
            "asm": "OP_DUP OP_HASH160 4c2250b9f1ef2ca4af2f42f98d15bd88d3a6ae65 OP_EQUALVERIFY OP_CHECKSIG",
            "hex": "76a9144c2250b9f1ef2ca4af2f42f98d15bd88d3a6ae6588ac",
            "reqSigs": 1,
            "type": "pubkeyhash",
            "addresses": [
              "LSAWj4e4sp8h3i29DDDAFDQW8ggXV71q3R"
            ]
          }
        }, 
        {
          "value": 11.25049709,
          "n": 13,
          "scriptPubKey": {
            "asm": "OP_DUP OP_HASH160 f9871c6dd621879729cd7d502a5af822501cf2aa OP_EQUALVERIFY OP_CHECKSIG",
            "hex": "76a914f9871c6dd621879729cd7d502a5af822501cf2aa88ac",
            "reqSigs": 1,
            "type": "pubkeyhash",
            "addresses": [
              "LhyLNfBkoKshT7R8Pce6vkB9T2cP2o84hx"
            ]
          }
        }
      ],
      "hex": "0100000001e033eec920e8975aa6ac4e3c1be11b594668dd256fc7f9f0007771dbf1d619ea000000006a47304402206c07b5d72dd515df92589f97b9c87ee0cb7f43d0f45e6e9c92bf9d5fc03ec9f10220252a818096a49421f57bc299ac250c9e8b94fa05c9196300e38d38345fc72a9b01210356c2f82a7d8b929ee3e490aa3498e458403d345b44850f75a23cbd64d1004a33ffffffff0e5143e812000000001976a914b301a7ffa1b4322c2993436ebbd9abd858b3c05788acc041c817000000001976a91404cfcea28fac72fc460d4f1e2ded81dc6be3599988ac40548900000000001976a914de295d1cbb4b890423337a261066f1662f47598388acc060d211000000001976a914c4808d3b2ea30a603642b76e5f8c1268c8b81d2c88ace6db610c000000001976a914fab64fca5ed16580d6f2b0f0e3e7444ff6d18d1488ac80b14f01000000001976a9147ab649cbaf01f157cc6ff57b1cf56717f6a20ecd88ac43e70d03000000001976a914659ba91b920c50796565e19680c14cd9b3f32d2888ac40c6e617000000001976a9140c90c1bef680453a07551d80b2c8d462b3db4f3088ac40204f04000000001976a914c450e58af3d7dfe59d5a945cec2af1577c2c0d7488acc09ee605000000001976a9144031bfd63a743d89c9ad298ca1420ccda18fe38a88accaa6251c000000001976a9140b1b668cc5fb4d3614302f3442e5ed07c1ac6d5088ac180b2b7d000000001976a91446d1a2ea5cee0abdc2c9edaf831037e7e67401ff88acc09ee605000000001976a9144c2250b9f1ef2ca4af2f42f98d15bd88d3a6ae6588ac6de50e43000000001976a914f9871c6dd621879729cd7d502a5af822501cf2aa88ac00000000"
    }, 
    {
      "txid": "391b875c6399d2e39b812811c3f43c208268306998141eb7ab0c63eef5f59149",
      "hash": "391b875c6399d2e39b812811c3f43c208268306998141eb7ab0c63eef5f59149",
      "version": 1,
      "size": 372,
      "vsize": 372,
      "locktime": 0,
      "vin": [
        {
          "txid": "13ba0eacf95985a3b302be7c025cd84ae37c37b9ee74c9f7771e6a77f792182d",
          "vout": 0,
          "scriptSig": {
            "asm": "304402202c857ee555c80f6934c484d1221fa1f50c67ac9a425c6130a07e288c6989ca88022060bfc4a9dea72072ccf0f45621cb66a235a036adc890af9c83cd3e4003f54aa0[ALL] 0343b5c7c93069ec043da30c457675000db2eb5d63916945cee238f1aff704215b",
            "hex": "47304402202c857ee555c80f6934c484d1221fa1f50c67ac9a425c6130a07e288c6989ca88022060bfc4a9dea72072ccf0f45621cb66a235a036adc890af9c83cd3e4003f54aa001210343b5c7c93069ec043da30c457675000db2eb5d63916945cee238f1aff704215b"
          },
          "sequence": 4294967295
        }, 
        {
          "txid": "893a2c414e7c7301bf147a6106454788337741ccddbfab6960739a133b6438e2",
          "vout": 1,
          "scriptSig": {
            "asm": "30440220734372233adc0cc6b03b37ce29830dc8c0fe3bd0e2b08eb4c9cbf2e4d3fab9910220318982c79a4a6febe113b11e9bbd020e7c3abdbfe263134c3f02fa1c57228c7b[ALL] 02429b0c3db9e857ebfa711a33af5cbd865a999796b98ffcf569e50a2956c27f4d",
            "hex": "4730440220734372233adc0cc6b03b37ce29830dc8c0fe3bd0e2b08eb4c9cbf2e4d3fab9910220318982c79a4a6febe113b11e9bbd020e7c3abdbfe263134c3f02fa1c57228c7b012102429b0c3db9e857ebfa711a33af5cbd865a999796b98ffcf569e50a2956c27f4d"
          },
          "sequence": 4294967295
        }
      ],
      "vout": [
        {
          "value": 0.40110243,
          "n": 0,
          "scriptPubKey": {
            "asm": "OP_DUP OP_HASH160 88e83f3b1028004051ae21191bded05a6aa2342f OP_EQUALVERIFY OP_CHECKSIG",
            "hex": "76a91488e83f3b1028004051ae21191bded05a6aa2342f88ac",
            "reqSigs": 1,
            "type": "pubkeyhash",
            "addresses": [
              "LXhrP772zFVxSLsiHf75ZmEJjf1jgaj59U"
            ]
          }
        }, 
        {
          "value": 1.42510600,
          "n": 1,
          "scriptPubKey": {
            "asm": "OP_DUP OP_HASH160 49a8bda583f53e9d342197018befeabdec0c27af OP_EQUALVERIFY OP_CHECKSIG",
            "hex": "76a91449a8bda583f53e9d342197018befeabdec0c27af88ac",
            "reqSigs": 1,
            "type": "pubkeyhash",
            "addresses": [
              "LRwRjXtiisvsqBsocPEFciA7e63epzMmp5"
            ]
          }
        }
      ],
      "hex": "01000000022d1892f7776a1e77f7c974eeb9377ce34ad85c027cbe02b3a38559f9ac0eba13000000006a47304402202c857ee555c80f6934c484d1221fa1f50c67ac9a425c6130a07e288c6989ca88022060bfc4a9dea72072ccf0f45621cb66a235a036adc890af9c83cd3e4003f54aa001210343b5c7c93069ec043da30c457675000db2eb5d63916945cee238f1aff704215bffffffffe238643b139a736069abbfddcc41773388474506617a14bf01737c4e412c3a89010000006a4730440220734372233adc0cc6b03b37ce29830dc8c0fe3bd0e2b08eb4c9cbf2e4d3fab9910220318982c79a4a6febe113b11e9bbd020e7c3abdbfe263134c3f02fa1c57228c7b012102429b0c3db9e857ebfa711a33af5cbd865a999796b98ffcf569e50a2956c27f4dffffffff02a3086402000000001976a91488e83f3b1028004051ae21191bded05a6aa2342f88ac088a7e08000000001976a91449a8bda583f53e9d342197018befeabdec0c27af88ac00000000"
    }, 
    {
      "txid": "325f470680ba87dd7eb68a70fb82b47d7367fa541618d0867ee26a66059c8ecb",
      "hash": "325f470680ba87dd7eb68a70fb82b47d7367fa541618d0867ee26a66059c8ecb",
      "version": 1,
      "size": 189,
      "vsize": 189,
      "locktime": 0,
      "vin": [
        {
          "txid": "391b875c6399d2e39b812811c3f43c208268306998141eb7ab0c63eef5f59149",
          "vout": 1,
          "scriptSig": {
            "asm": "3044022006b96b0b78c346576227172849abde9587d7f8816601b736b16a21bc9bbbe25402201341e3828bf0c15415aead629f8b958dc4e38af1492aefbab7e595911f48c248[ALL] 02d843095a2247440e1623a91be14bcde7f43704c77315752019677dc0fc2c878d",
            "hex": "473044022006b96b0b78c346576227172849abde9587d7f8816601b736b16a21bc9bbbe25402201341e3828bf0c15415aead629f8b958dc4e38af1492aefbab7e595911f48c248012102d843095a2247440e1623a91be14bcde7f43704c77315752019677dc0fc2c878d"
          },
          "sequence": 4294967295
        }
      ],
      "vout": [
        {
          "value": 1.42410600,
          "n": 0,
          "scriptPubKey": {
            "asm": "OP_HASH160 074e23f195576e85253c382deb78d633d80b70ed OP_EQUAL",
            "hex": "a914074e23f195576e85253c382deb78d633d80b70ed87",
            "reqSigs": 1,
            "type": "scripthash",
            "addresses": [
              "M8Zna4dwsKFr6eggvZjEVhXrXmXfCEZQQB"
            ]
          }
        }
      ],
      "hex": "01000000014991f5f5ee630cabb71e149869306882203cf4c31128819be3d299635c871b39010000006a473044022006b96b0b78c346576227172849abde9587d7f8816601b736b16a21bc9bbbe25402201341e3828bf0c15415aead629f8b958dc4e38af1492aefbab7e595911f48c248012102d843095a2247440e1623a91be14bcde7f43704c77315752019677dc0fc2c878dffffffff0168037d080000000017a914074e23f195576e85253c382deb78d633d80b70ed8700000000"
    }, 
    {
      "txid": "7d790babf13ed08a52ed3b7736ca5eae8320f86ff06c1037711411661c2aaedf",
      "hash": "7d790babf13ed08a52ed3b7736ca5eae8320f86ff06c1037711411661c2aaedf",
      "version": 1,
      "size": 191,
      "vsize": 191,
      "locktime": 0,
      "vin": [
        {
          "txid": "54b2143d319d85dfe1bb960c3c6eab70f24f6d4cf5a1c2c45bc7ce9f951ab421",
          "vout": 1,
          "scriptSig": {
            "asm": "304402206dba74326e245acd2527e29099e6cdeed6a410ca356063492b2c5f27100ec15e022016761dbc0de5dc9e91d405aa4779bccf273bf2e18afb7b208d37f92a672f69c0[ALL] 03d4ff77dac799ad4e1937122de32d29f99fc15571c0687f67eb4a3a6515e88544",
            "hex": "47304402206dba74326e245acd2527e29099e6cdeed6a410ca356063492b2c5f27100ec15e022016761dbc0de5dc9e91d405aa4779bccf273bf2e18afb7b208d37f92a672f69c0012103d4ff77dac799ad4e1937122de32d29f99fc15571c0687f67eb4a3a6515e88544"
          },
          "sequence": 4294967295
        }
      ],
      "vout": [
        {
          "value": 0.00715300,
          "n": 0,
          "scriptPubKey": {
            "asm": "OP_DUP OP_HASH160 e577e0235823f3ead3ea2691be5ab92e971e41e2 OP_EQUALVERIFY OP_CHECKSIG",
            "hex": "76a914e577e0235823f3ead3ea2691be5ab92e971e41e288ac",
            "reqSigs": 1,
            "type": "pubkeyhash",
            "addresses": [
              "Lg9GcEusAZd6emMwa1TSBcMLCfH8RDdHc2"
            ]
          }
        }
      ],
      "hex": "010000000121b41a959fcec75bc4c2a1f54c6d4ff270ab6e3c0c96bbe1df859d313d14b254010000006a47304402206dba74326e245acd2527e29099e6cdeed6a410ca356063492b2c5f27100ec15e022016761dbc0de5dc9e91d405aa4779bccf273bf2e18afb7b208d37f92a672f69c0012103d4ff77dac799ad4e1937122de32d29f99fc15571c0687f67eb4a3a6515e88544ffffffff0124ea0a00000000001976a914e577e0235823f3ead3ea2691be5ab92e971e41e288ac00000000"
    }, 
    {
      "txid": "88e85919850330042a3159bf92de0daf2e2f5ff779fe702fa9c73503c2d49d14",
      "hash": "88e85919850330042a3159bf92de0daf2e2f5ff779fe702fa9c73503c2d49d14",
      "version": 2,
      "size": 189,
      "vsize": 189,
      "locktime": 1357933,
      "vin": [
        {
          "txid": "5100b0fc456040ba715684f8f1349451acacf513b38ec2e88e6b2ceb3dbbce27",
          "vout": 0,
          "scriptSig": {
            "asm": "304402200f8019ff98cdb2421fe03f023a9e01b6f17b48c99a014b77ceb106896d1b8d8f02201ab13017aa31a674f7483789c76a71441acc33343536a87b77a2c8d93fe71fa0[ALL] 03ccbbd6ca6ca7e23606dfb5561ed43921214902eaf6b5ee9f733b9300305b4535",
            "hex": "47304402200f8019ff98cdb2421fe03f023a9e01b6f17b48c99a014b77ceb106896d1b8d8f02201ab13017aa31a674f7483789c76a71441acc33343536a87b77a2c8d93fe71fa0012103ccbbd6ca6ca7e23606dfb5561ed43921214902eaf6b5ee9f733b9300305b4535"
          },
          "sequence": 4294967294
        }
      ],
      "vout": [
        {
          "value": 0.20628742,
          "n": 0,
          "scriptPubKey": {
            "asm": "OP_HASH160 ed67b333e25b854b96772cb97dc8eed522b543fc OP_EQUAL",
            "hex": "a914ed67b333e25b854b96772cb97dc8eed522b543fc87",
            "reqSigs": 1,
            "type": "scripthash",
            "addresses": [
              "MVYSc6ah3QuGZHQmcuFM34rhgxnbGynjU2"
            ]
          }
        }
      ],
      "hex": "020000000127cebb3deb2c6b8ee8c28eb313f5acac519434f1f8845671ba406045fcb00051000000006a47304402200f8019ff98cdb2421fe03f023a9e01b6f17b48c99a014b77ceb106896d1b8d8f02201ab13017aa31a674f7483789c76a71441acc33343536a87b77a2c8d93fe71fa0012103ccbbd6ca6ca7e23606dfb5561ed43921214902eaf6b5ee9f733b9300305b4535feffffff0106c53a010000000017a914ed67b333e25b854b96772cb97dc8eed522b543fc876db81400"
    }, 
    {
      "txid": "b7f6e089de65f85748bcfe97a7aaf8df569d96f7178ad869f1f3cbf2842adc22",
      "hash": "b7f6e089de65f85748bcfe97a7aaf8df569d96f7178ad869f1f3cbf2842adc22",
      "version": 1,
      "size": 225,
      "vsize": 225,
      "locktime": 0,
      "vin": [
        {
          "txid": "90b9d5778dfe279bfb976d11bb467aae26e60fcfcdd5a698d78007b855d7a86c",
          "vout": 1,
          "scriptSig": {
            "asm": "304402206efc57fdcadf0683e36e4fcaf85f63a0119f60b292fdf99f06ccdc6742e1b71d0220588adbb5747d516c4618b875b10019c6c3a38220e81b2636fd3c9ad21a705826[ALL] 035fe1b9e560b7bb42d440806d302146db665c5e2e64d3e589184f5d2d4aab7b15",
            "hex": "47304402206efc57fdcadf0683e36e4fcaf85f63a0119f60b292fdf99f06ccdc6742e1b71d0220588adbb5747d516c4618b875b10019c6c3a38220e81b2636fd3c9ad21a7058260121035fe1b9e560b7bb42d440806d302146db665c5e2e64d3e589184f5d2d4aab7b15"
          },
          "sequence": 4294967295
        }
      ],
      "vout": [
        {
          "value": 4.86069866,
          "n": 0,
          "scriptPubKey": {
            "asm": "OP_DUP OP_HASH160 19af944a409bf48e7577b9306f0d5269808061c0 OP_EQUALVERIFY OP_CHECKSIG",
            "hex": "76a91419af944a409bf48e7577b9306f0d5269808061c088ac",
            "reqSigs": 1,
            "type": "pubkeyhash",
            "addresses": [
              "LMZmVUBctTr1e3h7bZPJ7jQQKkD9vkbBhZ"
            ]
          }
        }, 
        {
          "value": 79.37811189,
          "n": 1,
          "scriptPubKey": {
            "asm": "OP_DUP OP_HASH160 8766f3990d6044836bb698e3eaf99463792dbaf4 OP_EQUALVERIFY OP_CHECKSIG",
            "hex": "76a9148766f3990d6044836bb698e3eaf99463792dbaf488ac",
            "reqSigs": 1,
            "type": "pubkeyhash",
            "addresses": [
              "LXZtpJuRv3LX3VENWcExnUMn6bTmPHayHG"
            ]
          }
        }
      ],
      "hex": "01000000016ca8d755b80780d798a6d5cdcf0fe626ae7a46bb116d97fb9b27fe8d77d5b990010000006a47304402206efc57fdcadf0683e36e4fcaf85f63a0119f60b292fdf99f06ccdc6742e1b71d0220588adbb5747d516c4618b875b10019c6c3a38220e81b2636fd3c9ad21a7058260121035fe1b9e560b7bb42d440806d302146db665c5e2e64d3e589184f5d2d4aab7b15ffffffff026ad6f81c000000001976a91419af944a409bf48e7577b9306f0d5269808061c088acf56221d9010000001976a9148766f3990d6044836bb698e3eaf99463792dbaf488ac00000000"
    }, 
    {
      "txid": "107a7af0a86e177db518b8a92f43fabb8d7ec81940cb3d48159f02f4fbe9ec31",
      "hash": "107a7af0a86e177db518b8a92f43fabb8d7ec81940cb3d48159f02f4fbe9ec31",
      "version": 1,
      "size": 225,
      "vsize": 225,
      "locktime": 0,
      "vin": [
        {
          "txid": "28cb09badc5754f962edd37a051902eff8f9dcf231059624707f2cc4a5600c78",
          "vout": 1,
          "scriptSig": {
            "asm": "3044022027b0f016bb848a69ffe905a461d2413940e5985a7b0f3a4080b0731bb283070602205cc5f7786003edc6bfe98a8b7b18f2b12a053ba490e1bde2474f3a1c3ad90f9a[ALL] 03b98bcc888b0b5fdab737a7e0356f68ebc4026a928708f47c42df0e47e2e75741",
            "hex": "473044022027b0f016bb848a69ffe905a461d2413940e5985a7b0f3a4080b0731bb283070602205cc5f7786003edc6bfe98a8b7b18f2b12a053ba490e1bde2474f3a1c3ad90f9a012103b98bcc888b0b5fdab737a7e0356f68ebc4026a928708f47c42df0e47e2e75741"
          },
          "sequence": 4294967295
        }
      ],
      "vout": [
        {
          "value": 83.03919954,
          "n": 0,
          "scriptPubKey": {
            "asm": "OP_DUP OP_HASH160 0a1c9f3c663bb74349368f28ea9464f94fbe810c OP_EQUALVERIFY OP_CHECKSIG",
            "hex": "76a9140a1c9f3c663bb74349368f28ea9464f94fbe810c88ac",
            "reqSigs": 1,
            "type": "pubkeyhash",
            "addresses": [
              "LL9RJpjYmRbewgqn8EBLByyWb5d942nh1i"
            ]
          }
        }, 
        {
          "value": 1.79954800,
          "n": 1,
          "scriptPubKey": {
            "asm": "OP_DUP OP_HASH160 17bc2947ad3e57b9c12ab5355aa324b740aa04c8 OP_EQUALVERIFY OP_CHECKSIG",
            "hex": "76a91417bc2947ad3e57b9c12ab5355aa324b740aa04c888ac",
            "reqSigs": 1,
            "type": "pubkeyhash",
            "addresses": [
              "LMPTDJEaVZ93ph7yinRnsQBgEHuV6FgFKS"
            ]
          }
        }
      ],
      "hex": "0100000001780c60a5c42c7f7024960531f2dcf9f8ef0219057ad3ed62f95457dcba09cb28010000006a473044022027b0f016bb848a69ffe905a461d2413940e5985a7b0f3a4080b0731bb283070602205cc5f7786003edc6bfe98a8b7b18f2b12a053ba490e1bde2474f3a1c3ad90f9a012103b98bcc888b0b5fdab737a7e0356f68ebc4026a928708f47c42df0e47e2e75741ffffffff0252c3f3ee010000001976a9140a1c9f3c663bb74349368f28ea9464f94fbe810c88ac70e4b90a000000001976a91417bc2947ad3e57b9c12ab5355aa324b740aa04c888ac00000000"
    }, 
    {
      "txid": "a9a904cae7411280a0be444ce2443fa29533ac6fc3094c8a94b93e60de322636",
      "hash": "a9a904cae7411280a0be444ce2443fa29533ac6fc3094c8a94b93e60de322636",
      "version": 1,
      "size": 225,
      "vsize": 225,
      "locktime": 0,
      "vin": [
        {
          "txid": "1e4f7f87a3e3f621a94d096538dec08e907edf3c404076e64b7d956e52cba4f5",
          "vout": 1,
          "scriptSig": {
            "asm": "304402202ef0eb91b5f69927eeb559486756cc5602a8baddb7f9655ce6ffd400d0b2c44f02206c86059287651510fe16ce956fa8bcb72d39dfc68600c4bf56f9103647ede08a[ALL] 032f4049ae84d68e44f3f580b835874ba550747c394f916118fd82428ab615b319",
            "hex": "47304402202ef0eb91b5f69927eeb559486756cc5602a8baddb7f9655ce6ffd400d0b2c44f02206c86059287651510fe16ce956fa8bcb72d39dfc68600c4bf56f9103647ede08a0121032f4049ae84d68e44f3f580b835874ba550747c394f916118fd82428ab615b319"
          },
          "sequence": 4294967295
        }
      ],
      "vout": [
        {
          "value": 80.60659253,
          "n": 0,
          "scriptPubKey": {
            "asm": "OP_DUP OP_HASH160 9e00807eb8f82d3275002cad9d373ae71776f363 OP_EQUALVERIFY OP_CHECKSIG",
            "hex": "76a9149e00807eb8f82d3275002cad9d373ae71776f36388ac",
            "reqSigs": 1,
            "type": "pubkeyhash",
            "addresses": [
              "LZdPdPzNAx27K9Y8YSErmn91Avg2MdVtqE"
            ]
          }
        }, 
        {
          "value": 0.39462220,
          "n": 1,
          "scriptPubKey": {
            "asm": "OP_DUP OP_HASH160 e8799913a8a448dd323ceb3695d20d070eb872d9 OP_EQUALVERIFY OP_CHECKSIG",
            "hex": "76a914e8799913a8a448dd323ceb3695d20d070eb872d988ac",
            "reqSigs": 1,
            "type": "pubkeyhash",
            "addresses": [
              "LgRAhVUcvQ9N9oFUPmB8qCnFpPZwqQtgBJ"
            ]
          }
        }
      ],
      "hex": "0100000001f5a4cb526e957d4be67640403cdf7e908ec0de3865094da921f6e3a3877f4f1e010000006a47304402202ef0eb91b5f69927eeb559486756cc5602a8baddb7f9655ce6ffd400d0b2c44f02206c86059287651510fe16ce956fa8bcb72d39dfc68600c4bf56f9103647ede08a0121032f4049ae84d68e44f3f580b835874ba550747c394f916118fd82428ab615b319ffffffff0235e673e0010000001976a9149e00807eb8f82d3275002cad9d373ae71776f36388ac4c255a02000000001976a914e8799913a8a448dd323ceb3695d20d070eb872d988ac00000000"
    }, 
    {
      "txid": "5c38ef39a1993ac523e6d4ac4d60760371171a493ab049b1a33438088a8c1480",
      "hash": "5c38ef39a1993ac523e6d4ac4d60760371171a493ab049b1a33438088a8c1480",
      "version": 1,
      "size": 225,
      "vsize": 225,
      "locktime": 0,
      "vin": [
        {
          "txid": "bae5fce5dd4859916d5488b2b4e927b1f90fe78c34bece7d7b2126f87478362c",
          "vout": 1,
          "scriptSig": {
            "asm": "304402202632231dac1cc761cbba490aec0e2271ae572a36805b2173737c76b8e5d0390f02201512b9ac02640a131e7693638a646a7d33f7f384d85a1e76614c89f57ef7af35[ALL] 03d65bfa72c27b25ef60c81b3e0e3e72dc91dd48f2525bca1fb78aeeaf92ce5967",
            "hex": "47304402202632231dac1cc761cbba490aec0e2271ae572a36805b2173737c76b8e5d0390f02201512b9ac02640a131e7693638a646a7d33f7f384d85a1e76614c89f57ef7af35012103d65bfa72c27b25ef60c81b3e0e3e72dc91dd48f2525bca1fb78aeeaf92ce5967"
          },
          "sequence": 4294967295
        }
      ],
      "vout": [
        {
          "value": 58.41463345,
          "n": 0,
          "scriptPubKey": {
            "asm": "OP_DUP OP_HASH160 56e6054141756a6bf41b85294d29ce3afea19e0d OP_EQUALVERIFY OP_CHECKSIG",
            "hex": "76a91456e6054141756a6bf41b85294d29ce3afea19e0d88ac",
            "reqSigs": 1,
            "type": "pubkeyhash",
            "addresses": [
              "LT9RvpL4hFFebzPBpyQatjyyR8CFmXk5RU"
            ]
          }
        }, 
        {
          "value": 23.13677757,
          "n": 1,
          "scriptPubKey": {
            "asm": "OP_DUP OP_HASH160 ac567083bef1fc2841d6bbaa2efe8e96a4bbc9df OP_EQUALVERIFY OP_CHECKSIG",
            "hex": "76a914ac567083bef1fc2841d6bbaa2efe8e96a4bbc9df88ac",
            "reqSigs": 1,
            "type": "pubkeyhash",
            "addresses": [
              "LawC38WcqDBEu47KQxrhNXiskHshND9Quv"
            ]
          }
        }
      ],
      "hex": "01000000012c367874f826217b7dcebe348ce70ff9b127e9b4b288546d915948dde5fce5ba010000006a47304402202632231dac1cc761cbba490aec0e2271ae572a36805b2173737c76b8e5d0390f02201512b9ac02640a131e7693638a646a7d33f7f384d85a1e76614c89f57ef7af35012103d65bfa72c27b25ef60c81b3e0e3e72dc91dd48f2525bca1fb78aeeaf92ce5967ffffffff0231a82d5c010000001976a91456e6054141756a6bf41b85294d29ce3afea19e0d88acbdebe789000000001976a914ac567083bef1fc2841d6bbaa2efe8e96a4bbc9df88ac00000000"
    }, 
    {
      "txid": "a9de4308eee677d18ee9afa14c252e1a9f8cadbc2e00260fc91cc507ea99ab38",
      "hash": "a9de4308eee677d18ee9afa14c252e1a9f8cadbc2e00260fc91cc507ea99ab38",
      "version": 1,
      "size": 226,
      "vsize": 226,
      "locktime": 0,
      "vin": [
        {
          "txid": "d96dc0f0724b1cc8b1d1f957fbf1b1da4bba710aa48991215232711cd5ce5c02",
          "vout": 1,
          "scriptSig": {
            "asm": "3045022100a227e49b427812544cf9c66cd9d72e0f29f34832bed8ee4f8d56d2e696fc6d1702203c4027e09d55089e93c9439f9b9458dd1c71b99b59552f590e8536d7d399b22e[ALL] 033955f9d18c3f529bba2221137d9690b35d2107e55ad324b3f5176056481e7d82",
            "hex": "483045022100a227e49b427812544cf9c66cd9d72e0f29f34832bed8ee4f8d56d2e696fc6d1702203c4027e09d55089e93c9439f9b9458dd1c71b99b59552f590e8536d7d399b22e0121033955f9d18c3f529bba2221137d9690b35d2107e55ad324b3f5176056481e7d82"
          },
          "sequence": 4294967295
        }
      ],
      "vout": [
        {
          "value": 5.13026331,
          "n": 0,
          "scriptPubKey": {
            "asm": "OP_DUP OP_HASH160 89e5d8d99bcbc49985e1e31877dce20095ba5a0b OP_EQUALVERIFY OP_CHECKSIG",
            "hex": "76a91489e5d8d99bcbc49985e1e31877dce20095ba5a0b88ac",
            "reqSigs": 1,
            "type": "pubkeyhash",
            "addresses": [
              "LXo6BYkRo7Xdcxu42m6qfiUGtRpxhSjz2u"
            ]
          }
        }, 
        {
          "value": 74.55814088,
          "n": 1,
          "scriptPubKey": {
            "asm": "OP_DUP OP_HASH160 dba5b2e6ed2bde9af2a0a16e9fa2f2793f1943c0 OP_EQUALVERIFY OP_CHECKSIG",
            "hex": "76a914dba5b2e6ed2bde9af2a0a16e9fa2f2793f1943c088ac",
            "reqSigs": 1,
            "type": "pubkeyhash",
            "addresses": [
              "LfFLkBSd5aBXy8cocw5uSFrqCC4WqFdsrJ"
            ]
          }
        }
      ],
      "hex": "0100000001025cced51c713252219189a40a71ba4bdab1f1fb57f9d1b1c81c4b72f0c06dd9010000006b483045022100a227e49b427812544cf9c66cd9d72e0f29f34832bed8ee4f8d56d2e696fc6d1702203c4027e09d55089e93c9439f9b9458dd1c71b99b59552f590e8536d7d399b22e0121033955f9d18c3f529bba2221137d9690b35d2107e55ad324b3f5176056481e7d82ffffffff021b29941e000000001976a91489e5d8d99bcbc49985e1e31877dce20095ba5a0b88acc8b166bc010000001976a914dba5b2e6ed2bde9af2a0a16e9fa2f2793f1943c088ac00000000"
    }, 
    {
      "txid": "b250d7b1ae798e60e416436e7c0a713cfdf8fd2ffbc54c9439b998494741dea2",
      "hash": "b250d7b1ae798e60e416436e7c0a713cfdf8fd2ffbc54c9439b998494741dea2",
      "version": 1,
      "size": 224,
      "vsize": 224,
      "locktime": 0,
      "vin": [
        {
          "txid": "de92a2f5470dc55dce90b2ec77a0baf4010ab6fd6eb351416a9463dcc10644ca",
          "vout": 1,
          "scriptSig": {
            "asm": "3045022100c364a8630cf46b908e242409150af50c5fa2315cb099a2efc9c082985fc5d0ca02203eec309bc00a852a50f073f0da93f4bad7d5c2492dd4369fc36db5f04deab66c[ALL] 03af62064b1eb8afa1d7c9821e8946a92afc32e569ef8db4bcee03ae5c8ebc3cb5",
            "hex": "483045022100c364a8630cf46b908e242409150af50c5fa2315cb099a2efc9c082985fc5d0ca02203eec309bc00a852a50f073f0da93f4bad7d5c2492dd4369fc36db5f04deab66c012103af62064b1eb8afa1d7c9821e8946a92afc32e569ef8db4bcee03ae5c8ebc3cb5"
          },
          "sequence": 4294967295
        }
      ],
      "vout": [
        {
          "value": 82.27139315,
          "n": 0,
          "scriptPubKey": {
            "asm": "OP_DUP OP_HASH160 d6054d2708c845b01d4484db0b37f6f2a8dcc9e7 OP_EQUALVERIFY OP_CHECKSIG",
            "hex": "76a914d6054d2708c845b01d4484db0b37f6f2a8dcc9e788ac",
            "reqSigs": 1,
            "type": "pubkeyhash",
            "addresses": [
              "LejbDcP8t1LkLFE9n7zUVJYek9oeXzoMw9"
            ]
          }
        }, 
        {
          "value": 1.00000000,
          "n": 1,
          "scriptPubKey": {
            "asm": "OP_HASH160 0f4bf9077babb7ea86706829eff2c7238ac6f486 OP_EQUAL",
            "hex": "a9140f4bf9077babb7ea86706829eff2c7238ac6f48687",
            "reqSigs": 1,
            "type": "scripthash",
            "addresses": [
              "M9J3NzGp4WkmMWm5ia1emxczqQapXRZToz"
            ]
          }
        }
      ],
      "hex": "0100000001ca4406c1dc63946a4151b36efdb60a01f4baa077ecb290ce5dc50d47f5a292de010000006b483045022100c364a8630cf46b908e242409150af50c5fa2315cb099a2efc9c082985fc5d0ca02203eec309bc00a852a50f073f0da93f4bad7d5c2492dd4369fc36db5f04deab66c012103af62064b1eb8afa1d7c9821e8946a92afc32e569ef8db4bcee03ae5c8ebc3cb5ffffffff02f32e60ea010000001976a914d6054d2708c845b01d4484db0b37f6f2a8dcc9e788ac00e1f5050000000017a9140f4bf9077babb7ea86706829eff2c7238ac6f4868700000000"
    }, 
    {
      "txid": "cef23b02a4090f24c994572753ced712184bae95f0f2e9ce1b97acf01cf038b8",
      "hash": "cef23b02a4090f24c994572753ced712184bae95f0f2e9ce1b97acf01cf038b8",
      "version": 1,
      "size": 226,
      "vsize": 226,
      "locktime": 0,
      "vin": [
        {
          "txid": "1813ded727e00e2884d3137a131240dd99631e84850ef2e8e10c0aad540514a2",
          "vout": 309,
          "scriptSig": {
            "asm": "3045022100d7655443c6adc846f8ab93b9b1854eea649b5e5b3ddc57bc88c1794d57d76dfb0220645775513a5df218205a63a30fd3c6b8b922490a448f16a54db22e0392471478[ALL] 03baecce06c34afa9ce1a4f50ab9c811d84682646ce527e4567e99b0353ad09475",
            "hex": "483045022100d7655443c6adc846f8ab93b9b1854eea649b5e5b3ddc57bc88c1794d57d76dfb0220645775513a5df218205a63a30fd3c6b8b922490a448f16a54db22e0392471478012103baecce06c34afa9ce1a4f50ab9c811d84682646ce527e4567e99b0353ad09475"
          },
          "sequence": 4294967295
        }
      ],
      "vout": [
        {
          "value": 0.00321072,
          "n": 0,
          "scriptPubKey": {
            "asm": "OP_DUP OP_HASH160 8d5937921fd2fa28e0cffaa35b5d054cd2387c99 OP_EQUALVERIFY OP_CHECKSIG",
            "hex": "76a9148d5937921fd2fa28e0cffaa35b5d054cd2387c9988ac",
            "reqSigs": 1,
            "type": "pubkeyhash",
            "addresses": [
              "LY7LRAvzRcfmT2NvStdMxsdDYqdQfEThNx"
            ]
          }
        }, 
        {
          "value": 0.11415790,
          "n": 1,
          "scriptPubKey": {
            "asm": "OP_DUP OP_HASH160 2fbf94d5d0d3ab462df49ef47f87d2fbfda26b2a OP_EQUALVERIFY OP_CHECKSIG",
            "hex": "76a9142fbf94d5d0d3ab462df49ef47f87d2fbfda26b2a88ac",
            "reqSigs": 1,
            "type": "pubkeyhash",
            "addresses": [
              "LPaRXY7SaE65CE1ziQRAJUtqWXtkBtUPxN"
            ]
          }
        }
      ],
      "hex": "0100000001a2140554ad0a0ce1e8f20e85841e6399dd4012137a13d384280ee027d7de1318350100006b483045022100d7655443c6adc846f8ab93b9b1854eea649b5e5b3ddc57bc88c1794d57d76dfb0220645775513a5df218205a63a30fd3c6b8b922490a448f16a54db22e0392471478012103baecce06c34afa9ce1a4f50ab9c811d84682646ce527e4567e99b0353ad09475ffffffff0230e60400000000001976a9148d5937921fd2fa28e0cffaa35b5d054cd2387c9988acee30ae00000000001976a9142fbf94d5d0d3ab462df49ef47f87d2fbfda26b2a88ac00000000"
    }
  ],
  "time": 1517067229,
  "mediantime": 1517066871,
  "nonce": 3995257393,
  "bits": "1a047f14",
  "difficulty": 3731199.183374282,
  "chainwork": "000000000000000000000000000000000000000000000032a80d82ca66608e60",
  "previousblockhash": "fda89fce36383c5514ceff88e4f319dad8b54500da3c0fb4116e02c57a33f499",
  "nextblockhash": "3214111aeaea306e075fa8e49837e969e1a26a312b9b3d3aa0ebdecb1c36efee"
}
