{
  "hash": "8882b4810ce9255490687523a6ba2830cd3da464e10a7b4227ac1f3c77899424",
  "confirmations": 3409,
  "strippedsize": 253,
  "size": 253,
  "weight": 1012,
  "height": 1357586,
  "version": 536870912,
  "versionHex": "20000000",
  "merkleroot": "306b3d88f79666450625c5431b3db685b6b551e17fdc14f1308f7d3b4e0cd73e",
  "tx": [
    {
      "txid": "306b3d88f79666450625c5431b3db685b6b551e17fdc14f1308f7d3b4e0cd73e",
      "hash": "306b3d88f79666450625c5431b3db685b6b551e17fdc14f1308f7d3b4e0cd73e",
      "version": 1,
      "size": 172,
      "vsize": 172,
      "locktime": 0,
      "vin": [
        {
          "coinbase": "0312b7141a4d696e656420627920416e74506f6f6c20626a341e205a6bea44fabe6d6d9f7b4c49ab27bcdb20df0c38401a86344a83aeb35a9a1ddd919e3c627db7f5660400000000000000a03700000000000011000000",
          "sequence": 4294967295
        }
      ],
      "vout": [
        {
          "value": 25.00000000,
          "n": 0,
          "scriptPubKey": {
            "asm": "OP_DUP OP_HASH160 0ff3ccc5e8be88afe24b5d634e5852d474dbdff1 OP_EQUALVERIFY OP_CHECKSIG",
            "hex": "76a9140ff3ccc5e8be88afe24b5d634e5852d474dbdff188ac",
            "reqSigs": 1,
            "type": "pubkeyhash",
            "addresses": [
              "LLgJTbzZMsRTCUF1NtvvL9SR1a4pVieW89"
            ]
          }
        }
      ],
      "hex": "01000000010000000000000000000000000000000000000000000000000000000000000000ffffffff570312b7141a4d696e656420627920416e74506f6f6c20626a341e205a6bea44fabe6d6d9f7b4c49ab27bcdb20df0c38401a86344a83aeb35a9a1ddd919e3c627db7f5660400000000000000a03700000000000011000000ffffffff0100f90295000000001976a9140ff3ccc5e8be88afe24b5d634e5852d474dbdff188ac00000000"
    }
  ],
  "time": 1517021764,
  "mediantime": 1517020505,
  "nonce": 3800682660,
  "bits": "1a047f14",
  "difficulty": 3731199.183374282,
  "chainwork": "0000000000000000000000000000000000000000000000325a6f6349477b1eee",
  "previousblockhash": "3de1a64bb1ec550fb044e4a37185f94af55ced89b9242a3def31fe6925d949eb",
  "nextblockhash": "f86a5da14a82f0519394da4a726ea96106372a0422414f4f5c14a8b60f866727"
}
