{
  "hash": "894c9c8c1c1da8d66f552a3f58b148e15a15585acfb24260dd86545d7c8499da",
  "confirmations": 775,
  "strippedsize": 4223,
  "size": 4479,
  "weight": 17148,
  "height": 1360219,
  "version": 536870912,
  "versionHex": "20000000",
  "merkleroot": "f5a5245959be1333d5c14a9f0e9186ad89d65e227e1e43a5093444f2b1710365",
  "tx": [
    {
      "txid": "192c897953d79c256aaaf8ff44ef3f0b038fba2fdcb2e8dad8a00aedf78b5ebc",
      "hash": "5948ffe12200cc4f2ad41a3c36458e7ccab9d23e3ab9d9350c444925f3858a1e",
      "version": 1,
      "size": 251,
      "vsize": 224,
      "locktime": 0,
      "vin": [
        {
          "coinbase": "035bc1140000000000fabe6d6dabf47db08c71b51e792c489f189fe36d6df47ea97e5feeda4f9b70bef3168e34010000000000000004b995715a046bd38f15089e3c2a68210000000a42570a6657042f42572f",
          "sequence": 4294967295
        }
      ],
      "vout": [
        {
          "value": 25.00651875,
          "n": 0,
          "scriptPubKey": {
            "asm": "OP_DUP OP_HASH160 5373bc9425fd49e6bfe522d3dfc85432da2cc023 OP_EQUALVERIFY OP_CHECKSIG",
            "hex": "76a9145373bc9425fd49e6bfe522d3dfc85432da2cc02388ac",
            "reqSigs": 1,
            "type": "pubkeyhash",
            "addresses": [
              "LSqCzf5bPfkqGf94pJcfxWx5bZMPJE5XRf"
            ]
          }
        }, 
        {
          "value": 0.00000000,
          "n": 1,
          "scriptPubKey": {
            "asm": "OP_RETURN aa21a9ed1875de380aa8c8692c76dac429d36254591befea0b984e1c0d7d30a92ebe517a",
            "hex": "6a24aa21a9ed1875de380aa8c8692c76dac429d36254591befea0b984e1c0d7d30a92ebe517a",
            "type": "nulldata"
          }
        }
      ],
      "hex": "010000000001010000000000000000000000000000000000000000000000000000000000000000ffffffff53035bc1140000000000fabe6d6dabf47db08c71b51e792c489f189fe36d6df47ea97e5feeda4f9b70bef3168e34010000000000000004b995715a046bd38f15089e3c2a68210000000a42570a6657042f42572fffffffff0263eb0c95000000001976a9145373bc9425fd49e6bfe522d3dfc85432da2cc02388ac0000000000000000266a24aa21a9ed1875de380aa8c8692c76dac429d36254591befea0b984e1c0d7d30a92ebe517a0120000000000000000000000000000000000000000000000000000000000000000000000000"
    }, 
    {
      "txid": "6d67afba4b5dd327a1eb7e834b637a7d41e13cf334d9851aba460d551992a6f4",
      "hash": "6d67afba4b5dd327a1eb7e834b637a7d41e13cf334d9851aba460d551992a6f4",
      "version": 1,
      "size": 225,
      "vsize": 225,
      "locktime": 0,
      "vin": [
        {
          "txid": "0d9d1c2f7e0fb459a91d7fd4c612240cec91688730e35edd69fa03c91e333bae",
          "vout": 53,
          "scriptSig": {
            "asm": "3044022025684ea05ad70437a81c810c38b0e1ac3992ee5cf4a1938c8e369e1c601a627a0220291b9ff72e1cf58cc14a558ea8cd5b8b0f0da286d8ecb1933b15129a86d7e5c7[ALL] 02afbcbd75ef721a8c3b8b01381b2a28a6759095affcd9fa39e69236b3783131d4",
            "hex": "473044022025684ea05ad70437a81c810c38b0e1ac3992ee5cf4a1938c8e369e1c601a627a0220291b9ff72e1cf58cc14a558ea8cd5b8b0f0da286d8ecb1933b15129a86d7e5c7012102afbcbd75ef721a8c3b8b01381b2a28a6759095affcd9fa39e69236b3783131d4"
          },
          "sequence": 4294967295
        }
      ],
      "vout": [
        {
          "value": 0.43000000,
          "n": 0,
          "scriptPubKey": {
            "asm": "OP_DUP OP_HASH160 aa7d273aad35b463765557975efdf698c4b055b1 OP_EQUALVERIFY OP_CHECKSIG",
            "hex": "76a914aa7d273aad35b463765557975efdf698c4b055b188ac",
            "reqSigs": 1,
            "type": "pubkeyhash",
            "addresses": [
              "LamR4d8KpddC5nA57FUavLvQtgd2vvCRwx"
            ]
          }
        }, 
        {
          "value": 0.27066183,
          "n": 1,
          "scriptPubKey": {
            "asm": "OP_DUP OP_HASH160 e02c350b3e2364d576aa0ee83de96c55ab9000c2 OP_EQUALVERIFY OP_CHECKSIG",
            "hex": "76a914e02c350b3e2364d576aa0ee83de96c55ab9000c288ac",
            "reqSigs": 1,
            "type": "pubkeyhash",
            "addresses": [
              "LffGakeSbUQkV8trBs8rNxXkGKEZ6VSiAJ"
            ]
          }
        }
      ],
      "hex": "0100000001ae3b331ec903fa69dd5ee330876891ec0c2412c6d47f1da959b40f7e2f1c9d0d350000006a473044022025684ea05ad70437a81c810c38b0e1ac3992ee5cf4a1938c8e369e1c601a627a0220291b9ff72e1cf58cc14a558ea8cd5b8b0f0da286d8ecb1933b15129a86d7e5c7012102afbcbd75ef721a8c3b8b01381b2a28a6759095affcd9fa39e69236b3783131d4ffffffff02c0209002000000001976a914aa7d273aad35b463765557975efdf698c4b055b188ac47ff9c01000000001976a914e02c350b3e2364d576aa0ee83de96c55ab9000c288ac00000000"
    }, 
    {
      "txid": "dace3c9ecd828460aec631271e6256032e79ae89b190fd7eff89ca4318c68ea1",
      "hash": "dace3c9ecd828460aec631271e6256032e79ae89b190fd7eff89ca4318c68ea1",
      "version": 1,
      "size": 225,
      "vsize": 225,
      "locktime": 0,
      "vin": [
        {
          "txid": "6cdacc77ab5cba6c05c22907d290c867727dc3129a873e33570b23241a44539f",
          "vout": 0,
          "scriptSig": {
            "asm": "30440220699aa6f6e57fa30fb40b04a451957a0e7d06fa3ee6f66e807c4e05dc0805bfbf02206703c79e5ca6d0670130b845af5b7a42cc42cf9a63e338aa1ff9408e753ef460[ALL] 035a189b309e870956eeb5cc822554030886fd44de7151eb2055419a4869431911",
            "hex": "4730440220699aa6f6e57fa30fb40b04a451957a0e7d06fa3ee6f66e807c4e05dc0805bfbf02206703c79e5ca6d0670130b845af5b7a42cc42cf9a63e338aa1ff9408e753ef4600121035a189b309e870956eeb5cc822554030886fd44de7151eb2055419a4869431911"
          },
          "sequence": 4294967295
        }
      ],
      "vout": [
        {
          "value": 0.02055728,
          "n": 0,
          "scriptPubKey": {
            "asm": "OP_DUP OP_HASH160 6dd8d3a456bb7813adeb3fbf95cb41dc5dd16191 OP_EQUALVERIFY OP_CHECKSIG",
            "hex": "76a9146dd8d3a456bb7813adeb3fbf95cb41dc5dd1619188ac",
            "reqSigs": 1,
            "type": "pubkeyhash",
            "addresses": [
              "LVEmfWPndugNLxqtSKr56Qx2x8DWQG1pNP"
            ]
          }
        }, 
        {
          "value": 0.36066873,
          "n": 1,
          "scriptPubKey": {
            "asm": "OP_DUP OP_HASH160 5eeb8fa620531266dd0b7287b8b42a784bb17143 OP_EQUALVERIFY OP_CHECKSIG",
            "hex": "76a9145eeb8fa620531266dd0b7287b8b42a784bb1714388ac",
            "reqSigs": 1,
            "type": "pubkeyhash",
            "addresses": [
              "LTsqyKU89ZhtFCN7ANKTGnFauAn2MY3iVQ"
            ]
          }
        }
      ],
      "hex": "01000000019f53441a24230b57333e879a12c37d7267c890d20729c2056cba5cab77ccda6c000000006a4730440220699aa6f6e57fa30fb40b04a451957a0e7d06fa3ee6f66e807c4e05dc0805bfbf02206703c79e5ca6d0670130b845af5b7a42cc42cf9a63e338aa1ff9408e753ef4600121035a189b309e870956eeb5cc822554030886fd44de7151eb2055419a4869431911ffffffff02305e1f00000000001976a9146dd8d3a456bb7813adeb3fbf95cb41dc5dd1619188ac39562602000000001976a9145eeb8fa620531266dd0b7287b8b42a784bb1714388ac00000000"
    }, 
    {
      "txid": "49e007f782b08d496df096a2b3a97352e04f97d962ca8d0807007941aeaeff87",
      "hash": "e02cb74589ed5fb23f1e73b69b8e67b432091cb49f7a5b74a4e6ae11da4e99de",
      "version": 1,
      "size": 372,
      "vsize": 207,
      "locktime": 0,
      "vin": [
        {
          "txid": "17303e4bbd2b4d55308eba56284aeec0e2c4b92f35549a381bc5374d4c91fb1a",
          "vout": 1,
          "scriptSig": {
            "asm": "0020053da4abe0be5d3679186591f57d5df7113ca4e31bab48f62562e5ff5a27186f",
            "hex": "220020053da4abe0be5d3679186591f57d5df7113ca4e31bab48f62562e5ff5a27186f"
          },
          "txinwitness": [
            "", 
            "304402203e642ed337f78290c6e8b6a81bf7f016c151c65529f07360d201d0012ab76c5102200f617c93d6f7960a4a8d3a74ccd3dd6bdbaaa6d6c065b7e843e3857c685abe6501", 
            "304402200def01acd8f922e34414c1720bf161a72bb1be183082d0aec3d383c95be6633a02205e8a4928200c0e22153b59cfc805bc8ae44fcf2fc440689e44f2527d503beff801", 
            "522103ce98b5429e993f36ef2ac6f7f14b4c49d8440c264f723b38973e81dec896521b21023437319b6de23e9650c2754b9d5bc5ce28bb12d6f2aa886423b1604a5646f5d252ae"
          ],
          "sequence": 4294967295
        }
      ],
      "vout": [
        {
          "value": 0.10000000,
          "n": 0,
          "scriptPubKey": {
            "asm": "OP_DUP OP_HASH160 6b93264a6b298834115edad8fe963a52de64772c OP_EQUALVERIFY OP_CHECKSIG",
            "hex": "76a9146b93264a6b298834115edad8fe963a52de64772c88ac",
            "reqSigs": 1,
            "type": "pubkeyhash",
            "addresses": [
              "LV2kqsSRgmZ9qozVETYA3UmtirmnMu8Pp5"
            ]
          }
        }, 
        {
          "value": 0.06668062,
          "n": 1,
          "scriptPubKey": {
            "asm": "OP_HASH160 6d736a2dcae1ea043d96610cfbd2c7be526b0930 OP_EQUAL",
            "hex": "a9146d736a2dcae1ea043d96610cfbd2c7be526b093087",
            "reqSigs": 1,
            "type": "scripthash",
            "addresses": [
              "MHst9VqBu23c5cZCThppYCPrABC43XShqd"
            ]
          }
        }
      ],
      "hex": "010000000001011afb914c4d37c51b389a54352fb9c4e2c0ee4a2856ba8e30554d2bbd4b3e30170100000023220020053da4abe0be5d3679186591f57d5df7113ca4e31bab48f62562e5ff5a27186fffffffff0280969800000000001976a9146b93264a6b298834115edad8fe963a52de64772c88ac1ebf65000000000017a9146d736a2dcae1ea043d96610cfbd2c7be526b093087040047304402203e642ed337f78290c6e8b6a81bf7f016c151c65529f07360d201d0012ab76c5102200f617c93d6f7960a4a8d3a74ccd3dd6bdbaaa6d6c065b7e843e3857c685abe650147304402200def01acd8f922e34414c1720bf161a72bb1be183082d0aec3d383c95be6633a02205e8a4928200c0e22153b59cfc805bc8ae44fcf2fc440689e44f2527d503beff80147522103ce98b5429e993f36ef2ac6f7f14b4c49d8440c264f723b38973e81dec896521b21023437319b6de23e9650c2754b9d5bc5ce28bb12d6f2aa886423b1604a5646f5d252ae00000000"
    }, 
    {
      "txid": "6bdb420ee7b05f6a35a13825c0c7d92c4f98ca506ba98d9a536fc04bfde4101e",
      "hash": "6bdb420ee7b05f6a35a13825c0c7d92c4f98ca506ba98d9a536fc04bfde4101e",
      "version": 1,
      "size": 374,
      "vsize": 374,
      "locktime": 0,
      "vin": [
        {
          "txid": "ea33cc6e4dffe6f2ed87ecf506d5e4689a47793bd469168b4a9663dfab9d0827",
          "vout": 0,
          "scriptSig": {
            "asm": "3045022100cc25fb1c9be048d660b56e13932c0acd12edb1cb67058a662ad48cdadb7cfbd802203a227da354ad618863c2a6524cd738e6d4e609060dba5bc00f949ecaabdb8f97[ALL] 03e7b575fd5a32d1932bbb87fc01674183929573e07050fe0d9b78d9fd70fbc768",
            "hex": "483045022100cc25fb1c9be048d660b56e13932c0acd12edb1cb67058a662ad48cdadb7cfbd802203a227da354ad618863c2a6524cd738e6d4e609060dba5bc00f949ecaabdb8f97012103e7b575fd5a32d1932bbb87fc01674183929573e07050fe0d9b78d9fd70fbc768"
          },
          "sequence": 4294967295
        }, 
        {
          "txid": "d59982f6e2e6de912c42f8334ade1c71a1b25471be8f3ecf36dc5f9482738da8",
          "vout": 2,
          "scriptSig": {
            "asm": "304502210090a0f1a0d047145f225bd3a83b10629bed9b09dac8847b800b92841a989e300902204c17abdccbf22858391737833866b79844b15ae9e9fd3c16f316d937237c2e7c[ALL] 03e7b575fd5a32d1932bbb87fc01674183929573e07050fe0d9b78d9fd70fbc768",
            "hex": "48304502210090a0f1a0d047145f225bd3a83b10629bed9b09dac8847b800b92841a989e300902204c17abdccbf22858391737833866b79844b15ae9e9fd3c16f316d937237c2e7c012103e7b575fd5a32d1932bbb87fc01674183929573e07050fe0d9b78d9fd70fbc768"
          },
          "sequence": 4294967295
        }
      ],
      "vout": [
        {
          "value": 0.27944900,
          "n": 0,
          "scriptPubKey": {
            "asm": "OP_DUP OP_HASH160 0b1cee5656ffaee45b73305f37a24b14d53989b1 OP_EQUALVERIFY OP_CHECKSIG",
            "hex": "76a9140b1cee5656ffaee45b73305f37a24b14d53989b188ac",
            "reqSigs": 1,
            "type": "pubkeyhash",
            "addresses": [
              "LLEiMV4VCLU3uFq3x4bGF5RkNtBYpL4Fwv"
            ]
          }
        }, 
        {
          "value": 0.83488200,
          "n": 1,
          "scriptPubKey": {
            "asm": "OP_DUP OP_HASH160 30fedb329ce378e7b9894f7e5e14c52812895bf0 OP_EQUALVERIFY OP_CHECKSIG",
            "hex": "76a91430fedb329ce378e7b9894f7e5e14c52812895bf088ac",
            "reqSigs": 1,
            "type": "pubkeyhash",
            "addresses": [
              "LPh219F6anA5s8iyVMefvPBVJQ9nMhEV1R"
            ]
          }
        }
      ],
      "hex": "010000000227089dabdf63964a8b1669d43b79479a68e4d506f5ec87edf2e6ff4d6ecc33ea000000006b483045022100cc25fb1c9be048d660b56e13932c0acd12edb1cb67058a662ad48cdadb7cfbd802203a227da354ad618863c2a6524cd738e6d4e609060dba5bc00f949ecaabdb8f97012103e7b575fd5a32d1932bbb87fc01674183929573e07050fe0d9b78d9fd70fbc768ffffffffa88d7382945fdc36cf3e8fbe7154b2a1711cde4a33f8422c91dee6e2f68299d5020000006b48304502210090a0f1a0d047145f225bd3a83b10629bed9b09dac8847b800b92841a989e300902204c17abdccbf22858391737833866b79844b15ae9e9fd3c16f316d937237c2e7c012103e7b575fd5a32d1932bbb87fc01674183929573e07050fe0d9b78d9fd70fbc768ffffffff02c467aa01000000001976a9140b1cee5656ffaee45b73305f37a24b14d53989b188acc8edf904000000001976a91430fedb329ce378e7b9894f7e5e14c52812895bf088ac00000000"
    }, 
    {
      "txid": "71e942fb4f8f0e3984a880fa083314921ea890e60a2f35dae1251271ffd3f42c",
      "hash": "71e942fb4f8f0e3984a880fa083314921ea890e60a2f35dae1251271ffd3f42c",
      "version": 2,
      "size": 225,
      "vsize": 225,
      "locktime": 1360217,
      "vin": [
        {
          "txid": "f339e849250f844a42f6d0e737e3e57298a25b03ce4c9f4868fa529e5c7774d2",
          "vout": 1,
          "scriptSig": {
            "asm": "3044022073513586402e1c8ddf0ea46df556905acd7e5f1f91acd3636548cec5052f15860220236e91af9200116d2868c651947e1c2b1bf839a570ee78ff931eb20741137b50[ALL] 029241809a6a7c1d17f18c74f084e0f945220f45d95b0d40b491b934b6595cde6d",
            "hex": "473044022073513586402e1c8ddf0ea46df556905acd7e5f1f91acd3636548cec5052f15860220236e91af9200116d2868c651947e1c2b1bf839a570ee78ff931eb20741137b500121029241809a6a7c1d17f18c74f084e0f945220f45d95b0d40b491b934b6595cde6d"
          },
          "sequence": 4294967294
        }
      ],
      "vout": [
        {
          "value": 1.10011800,
          "n": 0,
          "scriptPubKey": {
            "asm": "OP_DUP OP_HASH160 8fc32509453aaf3944c86ab484b5fc71097e0455 OP_EQUALVERIFY OP_CHECKSIG",
            "hex": "76a9148fc32509453aaf3944c86ab484b5fc71097e045588ac",
            "reqSigs": 1,
            "type": "pubkeyhash",
            "addresses": [
              "LYL6fXwj5exmEAY5iyqSn84q5pkcjk1iM2"
            ]
          }
        }, 
        {
          "value": 0.61647485,
          "n": 1,
          "scriptPubKey": {
            "asm": "OP_DUP OP_HASH160 b588672cf7a5b57224e2fdfb19c08973412d74f2 OP_EQUALVERIFY OP_CHECKSIG",
            "hex": "76a914b588672cf7a5b57224e2fdfb19c08973412d74f288ac",
            "reqSigs": 1,
            "type": "pubkeyhash",
            "addresses": [
              "LbmoyPAd4eFFLnqzeMYwdurhsSQTUs8HVA"
            ]
          }
        }
      ],
      "hex": "0200000001d274775c9e52fa68489f4cce035ba29872e5e337e7d0f6424a840f2549e839f3010000006a473044022073513586402e1c8ddf0ea46df556905acd7e5f1f91acd3636548cec5052f15860220236e91af9200116d2868c651947e1c2b1bf839a570ee78ff931eb20741137b500121029241809a6a7c1d17f18c74f084e0f945220f45d95b0d40b491b934b6595cde6dfeffffff0298a58e06000000001976a9148fc32509453aaf3944c86ab484b5fc71097e045588ac7daaac03000000001976a914b588672cf7a5b57224e2fdfb19c08973412d74f288ac59c11400"
    }, 
    {
      "txid": "7239e491331727136fd80260e73c9ccb35af2853fc9312fe57dc566a3e4dc5ec",
      "hash": "7239e491331727136fd80260e73c9ccb35af2853fc9312fe57dc566a3e4dc5ec",
      "version": 2,
      "size": 225,
      "vsize": 225,
      "locktime": 1360217,
      "vin": [
        {
          "txid": "f9349e832f6406592496fa0cd73357529fca00b370c0e31e1c5540f8c3ba7071",
          "vout": 0,
          "scriptSig": {
            "asm": "304402205765ca60c44c9cb5ce6ee4c4e9da598f8764d0c36c27d84d3222b59dabcb7fde022001814d91b7c6d7de8d68aaf02a1310dd6c05c1ba48bd916279872c04ac62250a[ALL] 0269bac2e5ca8c32443fe9b56ef5c7df23f9b5b9dffdff154e70547c1b65861db4",
            "hex": "47304402205765ca60c44c9cb5ce6ee4c4e9da598f8764d0c36c27d84d3222b59dabcb7fde022001814d91b7c6d7de8d68aaf02a1310dd6c05c1ba48bd916279872c04ac62250a01210269bac2e5ca8c32443fe9b56ef5c7df23f9b5b9dffdff154e70547c1b65861db4"
          },
          "sequence": 4294967294
        }
      ],
      "vout": [
        {
          "value": 7.03264784,
          "n": 0,
          "scriptPubKey": {
            "asm": "OP_DUP OP_HASH160 7d7b3def2ac90bf03f8396ccfce5c3c2ec3e2a47 OP_EQUALVERIFY OP_CHECKSIG",
            "hex": "76a9147d7b3def2ac90bf03f8396ccfce5c3c2ec3e2a4788ac",
            "reqSigs": 1,
            "type": "pubkeyhash",
            "addresses": [
              "LWfSNC3i342b8zWjLL55t7tajrB1igzLYG"
            ]
          }
        }, 
        {
          "value": 6.19374997,
          "n": 1,
          "scriptPubKey": {
            "asm": "OP_DUP OP_HASH160 592e54aeeb77a753a87c7779c7d0612ad76e2039 OP_EQUALVERIFY OP_CHECKSIG",
            "hex": "76a914592e54aeeb77a753a87c7779c7d0612ad76e203988ac",
            "reqSigs": 1,
            "type": "pubkeyhash",
            "addresses": [
              "LTMVuQVntzdPT3BPRmAwC5xJEsn6Ccp7HB"
            ]
          }
        }
      ],
      "hex": "02000000017170bac3f840551c1ee3c070b300ca9f525733d70cfa96245906642f839e34f9000000006a47304402205765ca60c44c9cb5ce6ee4c4e9da598f8764d0c36c27d84d3222b59dabcb7fde022001814d91b7c6d7de8d68aaf02a1310dd6c05c1ba48bd916279872c04ac62250a01210269bac2e5ca8c32443fe9b56ef5c7df23f9b5b9dffdff154e70547c1b65861db4feffffff0210f8ea29000000001976a9147d7b3def2ac90bf03f8396ccfce5c3c2ec3e2a4788ac95e9ea24000000001976a914592e54aeeb77a753a87c7779c7d0612ad76e203988ac59c11400"
    }, 
    {
      "txid": "8307e909210ff1b1b364c1c64f85d5404fa82511e3fe96128b2877dcdc9d259a",
      "hash": "8307e909210ff1b1b364c1c64f85d5404fa82511e3fe96128b2877dcdc9d259a",
      "version": 2,
      "size": 1371,
      "vsize": 1371,
      "locktime": 1360217,
      "vin": [
        {
          "txid": "e636dc622ddb4b3147414e81b9c67b34e450172e88bfd7c9a26354122683fdf4",
          "vout": 1,
          "scriptSig": {
            "asm": "304502210080ee033ed7f975a0ce2c3be291dfc64058adf21a12199949d58dc4e5cb4b78360220526dce8cbae892407d7057574f762d5839952ac75c5f1b669074de079bc69690[ALL] 02bd5fb155d6167c5e93876ebbdc00e1f0459daecc1680106700703c13bbb5894c",
            "hex": "48304502210080ee033ed7f975a0ce2c3be291dfc64058adf21a12199949d58dc4e5cb4b78360220526dce8cbae892407d7057574f762d5839952ac75c5f1b669074de079bc69690012102bd5fb155d6167c5e93876ebbdc00e1f0459daecc1680106700703c13bbb5894c"
          },
          "sequence": 4294967294
        }, 
        {
          "txid": "f181197055627ff02197215978fa3c9dcaaa917b340ceace5abd071a59276e59",
          "vout": 0,
          "scriptSig": {
            "asm": "304402201eab32725e7e42a14db1810c131e4186d1498a20371685f4bc60b93e542c999e02202e16c1faf42f55ecda6079c87c8747cee430d4da17cb5f01dc57d8f5cb68e510[ALL] 03e57c9d6fbe414db6b2b90eebceef45f76a7d897e832a3be2169e39ab41dc1c8e",
            "hex": "47304402201eab32725e7e42a14db1810c131e4186d1498a20371685f4bc60b93e542c999e02202e16c1faf42f55ecda6079c87c8747cee430d4da17cb5f01dc57d8f5cb68e510012103e57c9d6fbe414db6b2b90eebceef45f76a7d897e832a3be2169e39ab41dc1c8e"
          },
          "sequence": 4294967294
        }, 
        {
          "txid": "54608669e8f08e49848373ed6987c48ddbfff6836aeb3553cde98243494eb7de",
          "vout": 0,
          "scriptSig": {
            "asm": "3044022027bd8348210821c87ff6300967216dad68217d2ac4a8a1afcc67443e69db3a2f02202d73893b7e36f3a8f8c5f52e54cad952e5b102eb6921a995c98bafc444540655[ALL] 024d0127455eed7d4d1b5191628958f6d72ec51a6601a1d1e87d8390e03d465dce",
            "hex": "473044022027bd8348210821c87ff6300967216dad68217d2ac4a8a1afcc67443e69db3a2f02202d73893b7e36f3a8f8c5f52e54cad952e5b102eb6921a995c98bafc4445406550121024d0127455eed7d4d1b5191628958f6d72ec51a6601a1d1e87d8390e03d465dce"
          },
          "sequence": 4294967294
        }, 
        {
          "txid": "fbca8172a38e0ded6f326ce6b4d2d2379d159a249c5302469b811380470f758d",
          "vout": 1,
          "scriptSig": {
            "asm": "30440220465c143e9d570f8480932cf845752fe6604ca1e5e8bac4fa8a345d6ef0c452270220011252e49b768274be982a0dc2d479e0859b44245be9eb041f4f013b962fc6ce[ALL] 03953fc337995838b597100b6e4f578c256f25a1987e51d105c0350fa438c8429c",
            "hex": "4730440220465c143e9d570f8480932cf845752fe6604ca1e5e8bac4fa8a345d6ef0c452270220011252e49b768274be982a0dc2d479e0859b44245be9eb041f4f013b962fc6ce012103953fc337995838b597100b6e4f578c256f25a1987e51d105c0350fa438c8429c"
          },
          "sequence": 4294967294
        }, 
        {
          "txid": "26174e92378c6a53793846623de583f6974520c4c3267d4e7320243cc428d26f",
          "vout": 1,
          "scriptSig": {
            "asm": "304402202f1c15db57c99029f68d302cc2aa57aecb3b64d7879cac3935076ff82eca7ad3022029013893296c4877fb9d828c56574d59ad6f9456de872f20af8b8ebf0b56259c[ALL] 0346d16a0e0346b90ccd94865414a5e1b2a347fef9d3b9609505a8cd37bb5c8abc",
            "hex": "47304402202f1c15db57c99029f68d302cc2aa57aecb3b64d7879cac3935076ff82eca7ad3022029013893296c4877fb9d828c56574d59ad6f9456de872f20af8b8ebf0b56259c01210346d16a0e0346b90ccd94865414a5e1b2a347fef9d3b9609505a8cd37bb5c8abc"
          },
          "sequence": 4294967294
        }, 
        {
          "txid": "07799cfc4caedd25c7dc877035eb1eea377a8ce66dfc673dbeaebb7604036b37",
          "vout": 1,
          "scriptSig": {
            "asm": "3045022100a9185908b6ae71d3c28833157e35cbd89e5be991e80dcbce82e989bef62aa49902201c669d38ab418ec65e5f9f5d7050894a6e943dfc25181c69d53aae060709cf85[ALL] 03f408483ee9830fe0b0fa65012b7479cded1ad33724327c474a753f66f808990b",
            "hex": "483045022100a9185908b6ae71d3c28833157e35cbd89e5be991e80dcbce82e989bef62aa49902201c669d38ab418ec65e5f9f5d7050894a6e943dfc25181c69d53aae060709cf85012103f408483ee9830fe0b0fa65012b7479cded1ad33724327c474a753f66f808990b"
          },
          "sequence": 4294967294
        }, 
        {
          "txid": "5ed17219be06104b5ada6d5d3491e5c7c741a8ca27840ca69427a4cf97dada1c",
          "vout": 1,
          "scriptSig": {
            "asm": "30450221009fe02a608444cf35a7a3ef02581277d0823bef5a1a1036dd6554c0d5b0b7db60022018d3cf5d0b0d96dc6bf958840ea29966617a6cb62eb9cf311509c04e1890b708[ALL] 03a4bf0c91d5f55a016197d1d475c043cc457122d9aab77be9b7b38eafddb17d4f",
            "hex": "4830450221009fe02a608444cf35a7a3ef02581277d0823bef5a1a1036dd6554c0d5b0b7db60022018d3cf5d0b0d96dc6bf958840ea29966617a6cb62eb9cf311509c04e1890b708012103a4bf0c91d5f55a016197d1d475c043cc457122d9aab77be9b7b38eafddb17d4f"
          },
          "sequence": 4294967294
        }, 
        {
          "txid": "368f3fba798774f82bab683c35a1c715adb6642ab18b8178ccabf72568f2a1e8",
          "vout": 1,
          "scriptSig": {
            "asm": "3044022068a0614f7bc6173651658ba0976d40dc374b4c86cfafb819fff0548e3e75e4120220435dffa0482e796abf22a204e0805ce9fb051cdf0f1e7753667165c9207f8131[ALL] 023f51e2871e52f1735c65eedca866bcba6dc935f8659c5eea616bac91a1bcd5ff",
            "hex": "473044022068a0614f7bc6173651658ba0976d40dc374b4c86cfafb819fff0548e3e75e4120220435dffa0482e796abf22a204e0805ce9fb051cdf0f1e7753667165c9207f81310121023f51e2871e52f1735c65eedca866bcba6dc935f8659c5eea616bac91a1bcd5ff"
          },
          "sequence": 4294967294
        }, 
        {
          "txid": "a271216f278b3ca89a84953c955766205c868a20d760c88f60bd6d27a8969ff4",
          "vout": 0,
          "scriptSig": {
            "asm": "3045022100b4705f5fdc046d7554fea1e87d787f9068c016a2885e065a42220fd3e388a80002202b16760cad563900ad01b1a8aaba50eae797f35545799cb4860e20bcd2963d44[ALL] 032282035a25e1f88fbe9d73dccf8b679d22a49026e896d1c65fedfafda90698e6",
            "hex": "483045022100b4705f5fdc046d7554fea1e87d787f9068c016a2885e065a42220fd3e388a80002202b16760cad563900ad01b1a8aaba50eae797f35545799cb4860e20bcd2963d440121032282035a25e1f88fbe9d73dccf8b679d22a49026e896d1c65fedfafda90698e6"
          },
          "sequence": 4294967294
        }
      ],
      "vout": [
        {
          "value": 25.99862400,
          "n": 0,
          "scriptPubKey": {
            "asm": "OP_DUP OP_HASH160 0fe15eafada5725fb3b21b8ae65d9fe002bcd2e9 OP_EQUALVERIFY OP_CHECKSIG",
            "hex": "76a9140fe15eafada5725fb3b21b8ae65d9fe002bcd2e988ac",
            "reqSigs": 1,
            "type": "pubkeyhash",
            "addresses": [
              "LLfvP4ddD3jMJmHp3rGxrFkmu8meMAynbS"
            ]
          }
        }
      ],
      "hex": "0200000009f4fd8326125463a2c9d7bf882e1750e4347bc6b9814e4147314bdb2d62dc36e6010000006b48304502210080ee033ed7f975a0ce2c3be291dfc64058adf21a12199949d58dc4e5cb4b78360220526dce8cbae892407d7057574f762d5839952ac75c5f1b669074de079bc69690012102bd5fb155d6167c5e93876ebbdc00e1f0459daecc1680106700703c13bbb5894cfeffffff596e27591a07bd5aceea0c347b91aaca9d3cfa7859219721f07f6255701981f1000000006a47304402201eab32725e7e42a14db1810c131e4186d1498a20371685f4bc60b93e542c999e02202e16c1faf42f55ecda6079c87c8747cee430d4da17cb5f01dc57d8f5cb68e510012103e57c9d6fbe414db6b2b90eebceef45f76a7d897e832a3be2169e39ab41dc1c8efeffffffdeb74e494382e9cd5335eb6a83f6ffdb8dc48769ed738384498ef0e869866054000000006a473044022027bd8348210821c87ff6300967216dad68217d2ac4a8a1afcc67443e69db3a2f02202d73893b7e36f3a8f8c5f52e54cad952e5b102eb6921a995c98bafc4445406550121024d0127455eed7d4d1b5191628958f6d72ec51a6601a1d1e87d8390e03d465dcefeffffff8d750f478013819b4602539c249a159d37d2d2b4e66c326fed0d8ea37281cafb010000006a4730440220465c143e9d570f8480932cf845752fe6604ca1e5e8bac4fa8a345d6ef0c452270220011252e49b768274be982a0dc2d479e0859b44245be9eb041f4f013b962fc6ce012103953fc337995838b597100b6e4f578c256f25a1987e51d105c0350fa438c8429cfeffffff6fd228c43c2420734e7d26c3c4204597f683e53d62463879536a8c37924e1726010000006a47304402202f1c15db57c99029f68d302cc2aa57aecb3b64d7879cac3935076ff82eca7ad3022029013893296c4877fb9d828c56574d59ad6f9456de872f20af8b8ebf0b56259c01210346d16a0e0346b90ccd94865414a5e1b2a347fef9d3b9609505a8cd37bb5c8abcfeffffff376b030476bbaebe3d67fc6de68c7a37ea1eeb357087dcc725ddae4cfc9c7907010000006b483045022100a9185908b6ae71d3c28833157e35cbd89e5be991e80dcbce82e989bef62aa49902201c669d38ab418ec65e5f9f5d7050894a6e943dfc25181c69d53aae060709cf85012103f408483ee9830fe0b0fa65012b7479cded1ad33724327c474a753f66f808990bfeffffff1cdada97cfa42794a60c8427caa841c7c7e591345d6dda5a4b1006be1972d15e010000006b4830450221009fe02a608444cf35a7a3ef02581277d0823bef5a1a1036dd6554c0d5b0b7db60022018d3cf5d0b0d96dc6bf958840ea29966617a6cb62eb9cf311509c04e1890b708012103a4bf0c91d5f55a016197d1d475c043cc457122d9aab77be9b7b38eafddb17d4ffeffffffe8a1f26825f7abcc78818bb12a64b6ad15c7a1353c68ab2bf8748779ba3f8f36010000006a473044022068a0614f7bc6173651658ba0976d40dc374b4c86cfafb819fff0548e3e75e4120220435dffa0482e796abf22a204e0805ce9fb051cdf0f1e7753667165c9207f81310121023f51e2871e52f1735c65eedca866bcba6dc935f8659c5eea616bac91a1bcd5fffefffffff49f96a8276dbd608fc860d7208a865c206657953c95849aa83c8b276f2171a2000000006b483045022100b4705f5fdc046d7554fea1e87d787f9068c016a2885e065a42220fd3e388a80002202b16760cad563900ad01b1a8aaba50eae797f35545799cb4860e20bcd2963d440121032282035a25e1f88fbe9d73dccf8b679d22a49026e896d1c65fedfafda90698e6feffffff0180c0f69a000000001976a9140fe15eafada5725fb3b21b8ae65d9fe002bcd2e988ac59c11400"
    }, 
    {
      "txid": "eae161318e261c3d73522b552a0d75584681443f493035b1db2878cf26586b04",
      "hash": "eae161318e261c3d73522b552a0d75584681443f493035b1db2878cf26586b04",
      "version": 1,
      "size": 226,
      "vsize": 226,
      "locktime": 0,
      "vin": [
        {
          "txid": "7207506cfc020c8111f9fdcbf821ca4fb041132e7b79055f33a1e96a6cf6d3fa",
          "vout": 1,
          "scriptSig": {
            "asm": "3045022100d41bc8f6baa353011f2e4962e7ca59e3d96f28da004c410212dcc1e8e0b5229402204042d41a4ce556b8fe5dd16ed180d3a8a6bf861580ac531f4e800475c5515d65[ALL] 034a153a973024ca5336d5d51d44d7d027c03ec1ace54068d9541021dadb6133d1",
            "hex": "483045022100d41bc8f6baa353011f2e4962e7ca59e3d96f28da004c410212dcc1e8e0b5229402204042d41a4ce556b8fe5dd16ed180d3a8a6bf861580ac531f4e800475c5515d650121034a153a973024ca5336d5d51d44d7d027c03ec1ace54068d9541021dadb6133d1"
          },
          "sequence": 4294967295
        }
      ],
      "vout": [
        {
          "value": 0.00374369,
          "n": 0,
          "scriptPubKey": {
            "asm": "OP_DUP OP_HASH160 c7130c92e9c9de7d11ec3cd9882fb7c6f231cf5c OP_EQUALVERIFY OP_CHECKSIG",
            "hex": "76a914c7130c92e9c9de7d11ec3cd9882fb7c6f231cf5c88ac",
            "reqSigs": 1,
            "type": "pubkeyhash",
            "addresses": [
              "LdNZYweqjSPYiUv1TLnLV6UXm27aQmeSsn"
            ]
          }
        }, 
        {
          "value": 0.20000000,
          "n": 1,
          "scriptPubKey": {
            "asm": "OP_DUP OP_HASH160 cb65ec7331e6c1c9d6184f66a5a6d8d12c9a9a35 OP_EQUALVERIFY OP_CHECKSIG",
            "hex": "76a914cb65ec7331e6c1c9d6184f66a5a6d8d12c9a9a3588ac",
            "reqSigs": 1,
            "type": "pubkeyhash",
            "addresses": [
              "LdmRXw3zx2JtCw1opRDLhoH7ziMnjmiu3R"
            ]
          }
        }
      ],
      "hex": "0100000001fad3f66c6ae9a1335f05797b2e1341b04fca21f8cbfdf911810c02fc6c500772010000006b483045022100d41bc8f6baa353011f2e4962e7ca59e3d96f28da004c410212dcc1e8e0b5229402204042d41a4ce556b8fe5dd16ed180d3a8a6bf861580ac531f4e800475c5515d650121034a153a973024ca5336d5d51d44d7d027c03ec1ace54068d9541021dadb6133d1ffffffff0261b60500000000001976a914c7130c92e9c9de7d11ec3cd9882fb7c6f231cf5c88ac002d3101000000001976a914cb65ec7331e6c1c9d6184f66a5a6d8d12c9a9a3588ac00000000"
    }, 
    {
      "txid": "b30a07d0383a6f4330b4476c92bf6fe9e4ccc74965e4bcaff1c8f483afb5781a",
      "hash": "b30a07d0383a6f4330b4476c92bf6fe9e4ccc74965e4bcaff1c8f483afb5781a",
      "version": 1,
      "size": 226,
      "vsize": 226,
      "locktime": 0,
      "vin": [
        {
          "txid": "2382b10573dc028a5400e19181bb84db347879a032ffcec70f368cde1dd81f4c",
          "vout": 0,
          "scriptSig": {
            "asm": "3045022100baa6b88de55cb9cafe4a8a275a13d4c4207212b2e52413238a5bc2aa89044ce002204a4696b9f8c02d906a6040787277fd9ba4bf9c2dee14b5c65c81ff29f7b6bfe8[ALL] 02fe80b9ab4a284afa838480d092bba0a9001eb8421804288bbf0348922302538e",
            "hex": "483045022100baa6b88de55cb9cafe4a8a275a13d4c4207212b2e52413238a5bc2aa89044ce002204a4696b9f8c02d906a6040787277fd9ba4bf9c2dee14b5c65c81ff29f7b6bfe8012102fe80b9ab4a284afa838480d092bba0a9001eb8421804288bbf0348922302538e"
          },
          "sequence": 4294967295
        }
      ],
      "vout": [
        {
          "value": 55.27735725,
          "n": 0,
          "scriptPubKey": {
            "asm": "OP_DUP OP_HASH160 afde5c0c3034e378a55521604077c9b5bbf982eb OP_EQUALVERIFY OP_CHECKSIG",
            "hex": "76a914afde5c0c3034e378a55521604077c9b5bbf982eb88ac",
            "reqSigs": 1,
            "type": "pubkeyhash",
            "addresses": [
              "LbFrtbYqPpxBVW4ksMZTCaMR6V9u18Tkj8"
            ]
          }
        }, 
        {
          "value": 0.53298737,
          "n": 1,
          "scriptPubKey": {
            "asm": "OP_DUP OP_HASH160 8444cb6cbd45b4c3db0a7b51ab20678ef6d0ed76 OP_EQUALVERIFY OP_CHECKSIG",
            "hex": "76a9148444cb6cbd45b4c3db0a7b51ab20678ef6d0ed7688ac",
            "reqSigs": 1,
            "type": "pubkeyhash",
            "addresses": [
              "LXHKsUAa26W683QC7docqMNSj8GCPPi66T"
            ]
          }
        }
      ],
      "hex": "01000000014c1fd81dde8c360fc7ceff32a0797834db84bb8191e100548a02dc7305b18223000000006b483045022100baa6b88de55cb9cafe4a8a275a13d4c4207212b2e52413238a5bc2aa89044ce002204a4696b9f8c02d906a6040787277fd9ba4bf9c2dee14b5c65c81ff29f7b6bfe8012102fe80b9ab4a284afa838480d092bba0a9001eb8421804288bbf0348922302538effffffff02ad8d7a49010000001976a914afde5c0c3034e378a55521604077c9b5bbf982eb88ac31462d03000000001976a9148444cb6cbd45b4c3db0a7b51ab20678ef6d0ed7688ac00000000"
    }, 
    {
      "txid": "3503dec194fdc749778b586efa24d5423cea2a81b1d800537751eda5e1d6ba1b",
      "hash": "3503dec194fdc749778b586efa24d5423cea2a81b1d800537751eda5e1d6ba1b",
      "version": 2,
      "size": 226,
      "vsize": 226,
      "locktime": 1360218,
      "vin": [
        {
          "txid": "035a48dd641af1654afd953ab33f308af70a132990caac702cd9a5b2dd9c413a",
          "vout": 1,
          "scriptSig": {
            "asm": "3045022100bc44ea605388e0213fb60c6f41c9fda8213b1f295dcfce594d88838e6f37bffe02207cbb793b937609d67bdcd9db4e4f9c4da4a48b8a7a831dd1db948876e6f97b96[ALL] 028d7a93183ffe721dc8d97fc62fb62783848f421a0031aecd0d8e4532056935dd",
            "hex": "483045022100bc44ea605388e0213fb60c6f41c9fda8213b1f295dcfce594d88838e6f37bffe02207cbb793b937609d67bdcd9db4e4f9c4da4a48b8a7a831dd1db948876e6f97b960121028d7a93183ffe721dc8d97fc62fb62783848f421a0031aecd0d8e4532056935dd"
          },
          "sequence": 4294967294
        }
      ],
      "vout": [
        {
          "value": 0.11057731,
          "n": 0,
          "scriptPubKey": {
            "asm": "OP_DUP OP_HASH160 aa41e18bbbd0eccae771a960ba10e0611c018112 OP_EQUALVERIFY OP_CHECKSIG",
            "hex": "76a914aa41e18bbbd0eccae771a960ba10e0611c01811288ac",
            "reqSigs": 1,
            "type": "pubkeyhash",
            "addresses": [
              "LakC4KTJymGk6Mcfg1yk78M85rREVxpynE"
            ]
          }
        }, 
        {
          "value": 0.09461161,
          "n": 1,
          "scriptPubKey": {
            "asm": "OP_DUP OP_HASH160 43e5633c984c290f0cf5ada0e454d9bc9bdafe51 OP_EQUALVERIFY OP_CHECKSIG",
            "hex": "76a91443e5633c984c290f0cf5ada0e454d9bc9bdafe5188ac",
            "reqSigs": 1,
            "type": "pubkeyhash",
            "addresses": [
              "LRQxLCU6RiX59tNqKrpH3kJHtYTxEp7Q53"
            ]
          }
        }
      ],
      "hex": "02000000013a419cddb2a5d92c70acca9029130af78a303fb33a95fd4a65f11a64dd485a03010000006b483045022100bc44ea605388e0213fb60c6f41c9fda8213b1f295dcfce594d88838e6f37bffe02207cbb793b937609d67bdcd9db4e4f9c4da4a48b8a7a831dd1db948876e6f97b960121028d7a93183ffe721dc8d97fc62fb62783848f421a0031aecd0d8e4532056935ddfeffffff0243baa800000000001976a914aa41e18bbbd0eccae771a960ba10e0611c01811288aca95d9000000000001976a91443e5633c984c290f0cf5ada0e454d9bc9bdafe5188ac5ac11400"
    }, 
    {
      "txid": "ee3687387b6913e6a8e8a9391436ede46deaf8db130a3bf11fcf2d244cacf03e",
      "hash": "ee3687387b6913e6a8e8a9391436ede46deaf8db130a3bf11fcf2d244cacf03e",
      "version": 2,
      "size": 226,
      "vsize": 226,
      "locktime": 1360217,
      "vin": [
        {
          "txid": "6c14fc2337578249d89406d6d9158a4f4580be311a948e7c25989cd14a223040",
          "vout": 1,
          "scriptSig": {
            "asm": "3045022100a0b37e16b0e4c9b9d484ac4118cc9af5eb8805ae7dda10a2196e1659249d133202200316b6d27ceb0388cfaf44a52fe0f37b6f1417f8d4fa3a17c3baae9004f65185[ALL] 03f5d2bd7fb59b1d233aa31235c1314ec436acb38f78b14136a8aab4c29b2b1a16",
            "hex": "483045022100a0b37e16b0e4c9b9d484ac4118cc9af5eb8805ae7dda10a2196e1659249d133202200316b6d27ceb0388cfaf44a52fe0f37b6f1417f8d4fa3a17c3baae9004f65185012103f5d2bd7fb59b1d233aa31235c1314ec436acb38f78b14136a8aab4c29b2b1a16"
          },
          "sequence": 4294967294
        }
      ],
      "vout": [
        {
          "value": 0.04359300,
          "n": 0,
          "scriptPubKey": {
            "asm": "OP_DUP OP_HASH160 36818a94dc14cf5dfeeb068c63f4e68d005fcfc0 OP_EQUALVERIFY OP_CHECKSIG",
            "hex": "76a91436818a94dc14cf5dfeeb068c63f4e68d005fcfc088ac",
            "reqSigs": 1,
            "type": "pubkeyhash",
            "addresses": [
              "LQC9wG838yhqoq1uSRZwoe6SpSTsPwMExi"
            ]
          }
        }, 
        {
          "value": 0.10618100,
          "n": 1,
          "scriptPubKey": {
            "asm": "OP_DUP OP_HASH160 60f1b3cc3423031a82ee25d52fbb87c2be15c4fe OP_EQUALVERIFY OP_CHECKSIG",
            "hex": "76a91460f1b3cc3423031a82ee25d52fbb87c2be15c4fe88ac",
            "reqSigs": 1,
            "type": "pubkeyhash",
            "addresses": [
              "LU4YgQERj8thcAQS4gNeboZgCEaRRrW3zr"
            ]
          }
        }
      ],
      "hex": "02000000014030224ad19c98257c8e941a31be80454f8a15d9d60694d84982573723fc146c010000006b483045022100a0b37e16b0e4c9b9d484ac4118cc9af5eb8805ae7dda10a2196e1659249d133202200316b6d27ceb0388cfaf44a52fe0f37b6f1417f8d4fa3a17c3baae9004f65185012103f5d2bd7fb59b1d233aa31235c1314ec436acb38f78b14136a8aab4c29b2b1a16feffffff0284844200000000001976a91436818a94dc14cf5dfeeb068c63f4e68d005fcfc088acf404a200000000001976a91460f1b3cc3423031a82ee25d52fbb87c2be15c4fe88ac59c11400"
    }, 
    {
      "txid": "1f88e0411f66d2c80437479ecec8fc321dbd213310061f3d9c331a06a7641778",
      "hash": "1f88e0411f66d2c80437479ecec8fc321dbd213310061f3d9c331a06a7641778",
      "version": 1,
      "size": 226,
      "vsize": 226,
      "locktime": 0,
      "vin": [
        {
          "txid": "25764c9537d72cee8819f7432155b15c739978f1e56f5522335927cbcd26b13d",
          "vout": 1,
          "scriptSig": {
            "asm": "3045022100a3096b45aa13a20f79fd41e1ed1bd1ec8f5895a92da78dfce1d3e2e5582e4d64022005d5caac343b9706ba02de00c035c8dc8b8c09be9f1c83d57da714e60d9fa3de[ALL] 02d326a8952512d710c239d6722bda8f36cc41a5163dc1471dacb9f9d7dc223a0a",
            "hex": "483045022100a3096b45aa13a20f79fd41e1ed1bd1ec8f5895a92da78dfce1d3e2e5582e4d64022005d5caac343b9706ba02de00c035c8dc8b8c09be9f1c83d57da714e60d9fa3de012102d326a8952512d710c239d6722bda8f36cc41a5163dc1471dacb9f9d7dc223a0a"
          },
          "sequence": 4294967295
        }
      ],
      "vout": [
        {
          "value": 0.66630887,
          "n": 0,
          "scriptPubKey": {
            "asm": "OP_DUP OP_HASH160 06d477f8c5af18c955046e838724c80aa87a4512 OP_EQUALVERIFY OP_CHECKSIG",
            "hex": "76a91406d477f8c5af18c955046e838724c80aa87a451288ac",
            "reqSigs": 1,
            "type": "pubkeyhash",
            "addresses": [
              "LKr4qwhVbTYqFbhkDZCza9wvm1d8jRVJzo"
            ]
          }
        }, 
        {
          "value": 55.55483549,
          "n": 1,
          "scriptPubKey": {
            "asm": "OP_DUP OP_HASH160 28a9b2762febeceb002bee3229cdbf1bfd65563b OP_EQUALVERIFY OP_CHECKSIG",
            "hex": "76a91428a9b2762febeceb002bee3229cdbf1bfd65563b88ac",
            "reqSigs": 1,
            "type": "pubkeyhash",
            "addresses": [
              "LNvxaeZyBsoKoViYELDwjBZcS1PgSRRarv"
            ]
          }
        }
      ],
      "hex": "01000000013db126cdcb27593322556fe5f17899735cb1552143f71988ee2cd737954c7625010000006b483045022100a3096b45aa13a20f79fd41e1ed1bd1ec8f5895a92da78dfce1d3e2e5582e4d64022005d5caac343b9706ba02de00c035c8dc8b8c09be9f1c83d57da714e60d9fa3de012102d326a8952512d710c239d6722bda8f36cc41a5163dc1471dacb9f9d7dc223a0affffffff02e7b4f803000000001976a91406d477f8c5af18c955046e838724c80aa87a451288ac9df3214b010000001976a91428a9b2762febeceb002bee3229cdbf1bfd65563b88ac00000000"
    }
  ],
  "time": 1517393337,
  "mediantime": 1517392083,
  "nonce": 348874941,
  "bits": "1a042eae",
  "difficulty": 4011378.762614286,
  "chainwork": "000000000000000000000000000000000000000000000034bbff13c694ee79b8",
  "previousblockhash": "b749b639642de90e5874cd56e51c287147a6c1572f0b2532598ea41686eb7f91",
  "nextblockhash": "52a5b2b1b5f1ab90e0df770537e062c3e9642a714c45da33bd6fd9c1858cb3ad"
}
