{
  "hash": "8a3346b21d2650cdcc384649a52a18c287dd155d8b955a23ab9acb4b49248acf",
  "confirmations": 1900,
  "strippedsize": 234,
  "size": 234,
  "weight": 936,
  "height": 1359094,
  "version": 536870912,
  "versionHex": "20000000",
  "merkleroot": "3b6ba13a57e8454bb67e8caf8457130a536dcf5ec65c54c35aeaf72e7fb29d06",
  "tx": [
    {
      "txid": "3b6ba13a57e8454bb67e8caf8457130a536dcf5ec65c54c35aeaf72e7fb29d06",
      "hash": "3b6ba13a57e8454bb67e8caf8457130a536dcf5ec65c54c35aeaf72e7fb29d06",
      "version": 1,
      "size": 153,
      "vsize": 153,
      "locktime": 0,
      "vin": [
        {
          "coinbase": "03f6bc14045a6f2def2cfabe6d6d2c1bbe52669d172ca170dc359b2f261223c4889c21e12cda9ff4b369311f467b4000000000000000042f4c502f08220076ca02000000",
          "sequence": 4294967295
        }
      ],
      "vout": [
        {
          "value": 25.00000000,
          "n": 0,
          "scriptPubKey": {
            "asm": "OP_DUP OP_HASH160 57757ed2ecf2052ff3126c397aca7defb9ca2cec OP_EQUALVERIFY OP_CHECKSIG",
            "hex": "76a91457757ed2ecf2052ff3126c397aca7defb9ca2cec88ac",
            "reqSigs": 1,
            "type": "pubkeyhash",
            "addresses": [
              "LTCPodGk5FwcJaRzH9yKnwicxzFUbxp6tN"
            ]
          }
        }
      ],
      "hex": "01000000010000000000000000000000000000000000000000000000000000000000000000ffffffff4403f6bc14045a6f2def2cfabe6d6d2c1bbe52669d172ca170dc359b2f261223c4889c21e12cda9ff4b369311f467b4000000000000000042f4c502f08220076ca02000000ffffffff0100f90295000000001976a91457757ed2ecf2052ff3126c397aca7defb9ca2cec88ac00000000"
    }
  ],
  "time": 1517235695,
  "mediantime": 1517235031,
  "nonce": 2093222865,
  "bits": "1a042eae",
  "difficulty": 4011378.762614286,
  "chainwork": "000000000000000000000000000000000000000000000033af022575b5b3916e",
  "previousblockhash": "2ffcb79aa250e6c2d79a3bdadb0907a2e7edd40860209445fe1a354985cde23f",
  "nextblockhash": "acf13328baea9ff0999bb7b3a3f65aa8bc791bc44faf4b9a81eac72572cef735"
}
