{
  "hash": "8a87e07d6a8f8b05af09f712a4252aaf2a263a51be6ddb655b8f7b0472acc268",
  "confirmations": 1046,
  "strippedsize": 1564,
  "size": 1600,
  "weight": 6292,
  "height": 1359948,
  "version": 536870912,
  "versionHex": "20000000",
  "merkleroot": "91b0a4b6ff212c7dcb8603aee92d379e89f30e8a7db25917d1e48aea0b24af43",
  "tx": [
    {
      "txid": "d81aa080aad01686c56bf3a417c983fdd559eb8761a6c3c688b859235a3b9a1a",
      "hash": "0a4040617dccee2f21dc85846e7e1f82418463f324527abd7cfa725516356570",
      "version": 1,
      "size": 244,
      "vsize": 217,
      "locktime": 0,
      "vin": [
        {
          "coinbase": "034cc014049efb705a0805149f8015000000fabe6d6d07031b5c30feb9f587ea5794415ffdc01f278a985c85627340eb36276c525e1c40000000000000000d2f6e6f64655374726174756d2f",
          "sequence": 0
        }
      ],
      "vout": [
        {
          "value": 25.01124400,
          "n": 0,
          "scriptPubKey": {
            "asm": "OP_DUP OP_HASH160 0c617fdb2ea42aed30a509595ee21ba3f6688db0 OP_EQUALVERIFY OP_CHECKSIG",
            "hex": "76a9140c617fdb2ea42aed30a509595ee21ba3f6688db088ac",
            "reqSigs": 1,
            "type": "pubkeyhash",
            "addresses": [
              "LLMRAtr3qBje2ySEa3CnZ55LA4TQMWnRY3"
            ]
          }
        }, 
        {
          "value": 0.00000000,
          "n": 1,
          "scriptPubKey": {
            "asm": "OP_RETURN aa21a9ed471f3ccdb4bc2d146bcd81c0247cbc13e2adf35f1e3188098aff691a2107ef0f",
            "hex": "6a24aa21a9ed471f3ccdb4bc2d146bcd81c0247cbc13e2adf35f1e3188098aff691a2107ef0f",
            "type": "nulldata"
          }
        }
      ],
      "hex": "010000000001010000000000000000000000000000000000000000000000000000000000000000ffffffff4c034cc014049efb705a0805149f8015000000fabe6d6d07031b5c30feb9f587ea5794415ffdc01f278a985c85627340eb36276c525e1c40000000000000000d2f6e6f64655374726174756d2f000000000230211495000000001976a9140c617fdb2ea42aed30a509595ee21ba3f6688db088ac0000000000000000266a24aa21a9ed471f3ccdb4bc2d146bcd81c0247cbc13e2adf35f1e3188098aff691a2107ef0f0120000000000000000000000000000000000000000000000000000000000000000000000000"
    }, 
    {
      "txid": "b436ceb150c575fd646b0f67108756804978b11c750274ec40f7e59eab40de2b",
      "hash": "b436ceb150c575fd646b0f67108756804978b11c750274ec40f7e59eab40de2b",
      "version": 1,
      "size": 372,
      "vsize": 372,
      "locktime": 0,
      "vin": [
        {
          "txid": "f921cc1a42e61dd9f51ee85bda615b5dc8ee05c8e8ea6e50e766d5c2925f73af",
          "vout": 0,
          "scriptSig": {
            "asm": "0 3045022100d561de7f83ed856e64ac9f1cf3cf21861d502e936d785fe14815442762139aa20220679c0ada0eac27e2d2353469e2b8827bfea2d7d86c1c9bc988a7468701c89f49[ALL] 3044022078139478157d5a606b902e0149609071b54d6a483a1faa3197d9a085b7e90cb602207379d441d66a9d931bee1dba208a6cd1418fe3d25fe72538dbfe7ed36975e8bf[ALL] 52210200684b0b1174ee63b18dbad00d51dfe42b180c34decf2eb89f1ceb6fce767855210393491663a940460313ef0523cbb72f1f3c73390228743edaa4f964faef788dc021036123cecad2cbd47b28fefbe0392687125b9d27bd27356db317cba36b3dc7777253ae",
            "hex": "00483045022100d561de7f83ed856e64ac9f1cf3cf21861d502e936d785fe14815442762139aa20220679c0ada0eac27e2d2353469e2b8827bfea2d7d86c1c9bc988a7468701c89f4901473044022078139478157d5a606b902e0149609071b54d6a483a1faa3197d9a085b7e90cb602207379d441d66a9d931bee1dba208a6cd1418fe3d25fe72538dbfe7ed36975e8bf014c6952210200684b0b1174ee63b18dbad00d51dfe42b180c34decf2eb89f1ceb6fce767855210393491663a940460313ef0523cbb72f1f3c73390228743edaa4f964faef788dc021036123cecad2cbd47b28fefbe0392687125b9d27bd27356db317cba36b3dc7777253ae"
          },
          "sequence": 4294967295
        }
      ],
      "vout": [
        {
          "value": 0.96623544,
          "n": 0,
          "scriptPubKey": {
            "asm": "OP_DUP OP_HASH160 eb9ec37a10e9a8eead3f0a958039263433db0952 OP_EQUALVERIFY OP_CHECKSIG",
            "hex": "76a914eb9ec37a10e9a8eead3f0a958039263433db095288ac",
            "reqSigs": 1,
            "type": "pubkeyhash",
            "addresses": [
              "LghoFP1BSnpbN2jXdCgz7r6UmgSW8Qktny"
            ]
          }
        }, 
        {
          "value": 0.70837152,
          "n": 1,
          "scriptPubKey": {
            "asm": "OP_HASH160 ba400f87099a6dec8cc4d5f2e240e6c8eed56eb9 OP_EQUAL",
            "hex": "a914ba400f87099a6dec8cc4d5f2e240e6c8eed56eb987",
            "reqSigs": 1,
            "type": "scripthash",
            "addresses": [
              "MQsxf85oqkxmE62o3ErRofuzg3ugMxpVcz"
            ]
          }
        }
      ],
      "hex": "0100000001af735f92c2d566e7506eeae8c805eec85d5b61da5be81ef5d91de6421acc21f900000000fdfd0000483045022100d561de7f83ed856e64ac9f1cf3cf21861d502e936d785fe14815442762139aa20220679c0ada0eac27e2d2353469e2b8827bfea2d7d86c1c9bc988a7468701c89f4901473044022078139478157d5a606b902e0149609071b54d6a483a1faa3197d9a085b7e90cb602207379d441d66a9d931bee1dba208a6cd1418fe3d25fe72538dbfe7ed36975e8bf014c6952210200684b0b1174ee63b18dbad00d51dfe42b180c34decf2eb89f1ceb6fce767855210393491663a940460313ef0523cbb72f1f3c73390228743edaa4f964faef788dc021036123cecad2cbd47b28fefbe0392687125b9d27bd27356db317cba36b3dc7777253aeffffffff02b85bc205000000001976a914eb9ec37a10e9a8eead3f0a958039263433db095288aca0e338040000000017a914ba400f87099a6dec8cc4d5f2e240e6c8eed56eb98700000000"
    }, 
    {
      "txid": "9a70ccf36477a5c5f84d94ba591b6e04b2784014d0ac070b56b534e2f11d4cff",
      "hash": "9a70ccf36477a5c5f84d94ba591b6e04b2784014d0ac070b56b534e2f11d4cff",
      "version": 1,
      "size": 225,
      "vsize": 225,
      "locktime": 0,
      "vin": [
        {
          "txid": "06d96d462d6523a80b805dfad0ad8acb2de216d27423d4c10c3f3f184399648f",
          "vout": 1,
          "scriptSig": {
            "asm": "304402200dac48fa43395256c34d08cdf3b3e9487701e914788919c0e800119dec089444022057bba53fe9ff882e24946a089a4bc6bcfbbb35304537a728a7d13254d48f5fe8[ALL] 03f1a6837c4affbac110fe12ea69fe9fe62ef2577b0984053d08ff9837100e7792",
            "hex": "47304402200dac48fa43395256c34d08cdf3b3e9487701e914788919c0e800119dec089444022057bba53fe9ff882e24946a089a4bc6bcfbbb35304537a728a7d13254d48f5fe8012103f1a6837c4affbac110fe12ea69fe9fe62ef2577b0984053d08ff9837100e7792"
          },
          "sequence": 4294967295
        }
      ],
      "vout": [
        {
          "value": 46.74647472,
          "n": 0,
          "scriptPubKey": {
            "asm": "OP_DUP OP_HASH160 a8dc41951856b70b40b5cf4b6b03d76150f13bb6 OP_EQUALVERIFY OP_CHECKSIG",
            "hex": "76a914a8dc41951856b70b40b5cf4b6b03d76150f13bb688ac",
            "reqSigs": 1,
            "type": "pubkeyhash",
            "addresses": [
              "Lacoe7EY8T3RddVnZuB4dDaLrcWz7ew2EW"
            ]
          }
        }, 
        {
          "value": 0.71292164,
          "n": 1,
          "scriptPubKey": {
            "asm": "OP_DUP OP_HASH160 223b447389f96023034f370cbd6255a2dd03cd70 OP_EQUALVERIFY OP_CHECKSIG",
            "hex": "76a914223b447389f96023034f370cbd6255a2dd03cd7088ac",
            "reqSigs": 1,
            "type": "pubkeyhash",
            "addresses": [
              "LNLxEhskPNJLpjZ8xfQ1btorAmror6v15w"
            ]
          }
        }
      ],
      "hex": "01000000018f649943183f3f0cc1d42374d216e22dcb8aadd0fa5d800ba823652d466dd906010000006a47304402200dac48fa43395256c34d08cdf3b3e9487701e914788919c0e800119dec089444022057bba53fe9ff882e24946a089a4bc6bcfbbb35304537a728a7d13254d48f5fe8012103f1a6837c4affbac110fe12ea69fe9fe62ef2577b0984053d08ff9837100e7792ffffffff02b075a116010000001976a914a8dc41951856b70b40b5cf4b6b03d76150f13bb688ac04d53f04000000001976a914223b447389f96023034f370cbd6255a2dd03cd7088ac00000000"
    }, 
    {
      "txid": "2d65f873a8e60291f8d8a4a03a5fda821c07dc6d25e92a8d92b7f3eac9ce4c09",
      "hash": "2d65f873a8e60291f8d8a4a03a5fda821c07dc6d25e92a8d92b7f3eac9ce4c09",
      "version": 1,
      "size": 226,
      "vsize": 226,
      "locktime": 0,
      "vin": [
        {
          "txid": "906871db34d9076c69afa030b8dfdbff53fdcc531a4bb84324b530838b0cddef",
          "vout": 1,
          "scriptSig": {
            "asm": "3045022100c1482a6089ff894f485ea930a4967cd581e5fc41bd8b540a8f26db2e24c18c020220770403fc74f7fb7a14a61aeae6e6b52f9c8f4a6be4264024bf8102c4e2e8223b[ALL] 0289fcea2036cf728ad8575e84b3c8a59adf8a9e1004045f99d125f3c0d22b4424",
            "hex": "483045022100c1482a6089ff894f485ea930a4967cd581e5fc41bd8b540a8f26db2e24c18c020220770403fc74f7fb7a14a61aeae6e6b52f9c8f4a6be4264024bf8102c4e2e8223b01210289fcea2036cf728ad8575e84b3c8a59adf8a9e1004045f99d125f3c0d22b4424"
          },
          "sequence": 4294967295
        }
      ],
      "vout": [
        {
          "value": 6.97585533,
          "n": 0,
          "scriptPubKey": {
            "asm": "OP_DUP OP_HASH160 aa9850814e510b09899fcfd0130714a7533d77f5 OP_EQUALVERIFY OP_CHECKSIG",
            "hex": "76a914aa9850814e510b09899fcfd0130714a7533d77f588ac",
            "reqSigs": 1,
            "type": "pubkeyhash",
            "addresses": [
              "LamybpUPoFY68bb6FqFuvVkQ5xz6svzVvh"
            ]
          }
        }, 
        {
          "value": 39.93719267,
          "n": 1,
          "scriptPubKey": {
            "asm": "OP_DUP OP_HASH160 45915de03cbcbe3868b2129101a4f23e745f2bac OP_EQUALVERIFY OP_CHECKSIG",
            "hex": "76a91445915de03cbcbe3868b2129101a4f23e745f2bac88ac",
            "reqSigs": 1,
            "type": "pubkeyhash",
            "addresses": [
              "LRZo2hqX5cMc5LWGuMeyikFsvGTngXwVzA"
            ]
          }
        }
      ],
      "hex": "0100000001efdd0c8b8330b52443b84b1a53ccfd53ffdbdfb830a0af696c07d934db716890010000006b483045022100c1482a6089ff894f485ea930a4967cd581e5fc41bd8b540a8f26db2e24c18c020220770403fc74f7fb7a14a61aeae6e6b52f9c8f4a6be4264024bf8102c4e2e8223b01210289fcea2036cf728ad8575e84b3c8a59adf8a9e1004045f99d125f3c0d22b4424ffffffff027d4f9429000000001976a914aa9850814e510b09899fcfd0130714a7533d77f588ace3510bee000000001976a91445915de03cbcbe3868b2129101a4f23e745f2bac88ac00000000"
    }, 
    {
      "txid": "05e0b8d07ddee29612079a54c4bcbd52ca49655f6dcd3ebb56a0bca72aaa1358",
      "hash": "05e0b8d07ddee29612079a54c4bcbd52ca49655f6dcd3ebb56a0bca72aaa1358",
      "version": 2,
      "size": 226,
      "vsize": 226,
      "locktime": 1359881,
      "vin": [
        {
          "txid": "3c9d0b48c755fbca9ce75f462ad40cf62266519362976172793d72d5deaca8b1",
          "vout": 0,
          "scriptSig": {
            "asm": "3045022100daaa0971758ddf1de35347162c2d0c8d4f73f442a21c29d520aace908680383d02206863a31f8295f0617d9e27c8d0decec9db2babab83561960174e198511b0ffdf[ALL] 02160cd8c91b649eb862f2a7e5430ccf367ff06916df75b38b8dc63957458f5c64",
            "hex": "483045022100daaa0971758ddf1de35347162c2d0c8d4f73f442a21c29d520aace908680383d02206863a31f8295f0617d9e27c8d0decec9db2babab83561960174e198511b0ffdf012102160cd8c91b649eb862f2a7e5430ccf367ff06916df75b38b8dc63957458f5c64"
          },
          "sequence": 4294967294
        }
      ],
      "vout": [
        {
          "value": 1.46652300,
          "n": 0,
          "scriptPubKey": {
            "asm": "OP_DUP OP_HASH160 14123a135a5e9f5d81654fbeec871c067eb51619 OP_EQUALVERIFY OP_CHECKSIG",
            "hex": "76a91414123a135a5e9f5d81654fbeec871c067eb5161988ac",
            "reqSigs": 1,
            "type": "pubkeyhash",
            "addresses": [
              "LM45cUSTwnh1s68aGcSfQSbFcVjFjJiAhR"
            ]
          }
        }, 
        {
          "value": 6.63000000,
          "n": 1,
          "scriptPubKey": {
            "asm": "OP_DUP OP_HASH160 fc4f643933c0b1c3e8752a29bedb3fd659056966 OP_EQUALVERIFY OP_CHECKSIG",
            "hex": "76a914fc4f643933c0b1c3e8752a29bedb3fd65905696688ac",
            "reqSigs": 1,
            "type": "pubkeyhash",
            "addresses": [
              "LiE3emk7k73KTS9fWkKHoKEVfxQcK1T5NA"
            ]
          }
        }
      ],
      "hex": "0200000001b1a8acded5723d797261976293516622f60cd42a465fe79ccafb55c7480b9d3c000000006b483045022100daaa0971758ddf1de35347162c2d0c8d4f73f442a21c29d520aace908680383d02206863a31f8295f0617d9e27c8d0decec9db2babab83561960174e198511b0ffdf012102160cd8c91b649eb862f2a7e5430ccf367ff06916df75b38b8dc63957458f5c64feffffff028cbcbd08000000001976a91414123a135a5e9f5d81654fbeec871c067eb5161988acc0938427000000001976a914fc4f643933c0b1c3e8752a29bedb3fd65905696688ac09c01400"
    }, 
    {
      "txid": "19661306b400182ba72e1275a23e135f92680f44a36cdbf00a82bded93e5b771",
      "hash": "19661306b400182ba72e1275a23e135f92680f44a36cdbf00a82bded93e5b771",
      "version": 1,
      "size": 226,
      "vsize": 226,
      "locktime": 0,
      "vin": [
        {
          "txid": "bf3899c160825e168d0fc84c0b61f666b9787b666383e24f28d797335f5f35f8",
          "vout": 0,
          "scriptSig": {
            "asm": "3045022100b9185ff60cfeb76ce500060a810b2b3f122bae01f62542b08af2e33b5bdb980f022072d8e2462c94181bea378b67738d79f6517c4cc0573dcaa1d88eeb10fae4562d[ALL] 02683e474870ffa30663b4f0bb45246879248131f964f2f996e5740493886ed231",
            "hex": "483045022100b9185ff60cfeb76ce500060a810b2b3f122bae01f62542b08af2e33b5bdb980f022072d8e2462c94181bea378b67738d79f6517c4cc0573dcaa1d88eeb10fae4562d012102683e474870ffa30663b4f0bb45246879248131f964f2f996e5740493886ed231"
          },
          "sequence": 4294967295
        }
      ],
      "vout": [
        {
          "value": 45.47746802,
          "n": 0,
          "scriptPubKey": {
            "asm": "OP_DUP OP_HASH160 3b338666183b6e7f7b67b2b33311b9fe2e81847b OP_EQUALVERIFY OP_CHECKSIG",
            "hex": "76a9143b338666183b6e7f7b67b2b33311b9fe2e81847b88ac",
            "reqSigs": 1,
            "type": "pubkeyhash",
            "addresses": [
              "LQcyrYsxJp8HikMvATEbtRpWYtsPokhBpT"
            ]
          }
        }, 
        {
          "value": 1.17436998,
          "n": 1,
          "scriptPubKey": {
            "asm": "OP_DUP OP_HASH160 baf3bd7abf6ef6c0b4456c9c956256fb13fbfee6 OP_EQUALVERIFY OP_CHECKSIG",
            "hex": "76a914baf3bd7abf6ef6c0b4456c9c956256fb13fbfee688ac",
            "reqSigs": 1,
            "type": "pubkeyhash",
            "addresses": [
              "LcGTwFpPmby3ALMmZoFY4TgZU5jVBkqMTd"
            ]
          }
        }
      ],
      "hex": "0100000001f8355f5f3397d7284fe28363667b78b966f6610b4cc80f8d165e8260c19938bf000000006b483045022100b9185ff60cfeb76ce500060a810b2b3f122bae01f62542b08af2e33b5bdb980f022072d8e2462c94181bea378b67738d79f6517c4cc0573dcaa1d88eeb10fae4562d012102683e474870ffa30663b4f0bb45246879248131f964f2f996e5740493886ed231ffffffff02f21b110f010000001976a9143b338666183b6e7f7b67b2b33311b9fe2e81847b88ac46f2ff06000000001976a914baf3bd7abf6ef6c0b4456c9c956256fb13fbfee688ac00000000"
    }
  ],
  "time": 1517353433,
  "mediantime": 1517352682,
  "nonce": 1610155143,
  "bits": "1a042eae",
  "difficulty": 4011378.762614286,
  "chainwork": "0000000000000000000000000000000000000000000000347b333e7e1485091a",
  "previousblockhash": "4841906e93f98ea365a80f3e41501d0063321b667f5ba4d976fdf4451aa5293f",
  "nextblockhash": "b15867dc2c96822f07ef0087425df0aaf9f9e12526dc37a1ae88a89da1c5f226"
}
