{
  "hash": "8a8e38677e6ddc70a5f44fa36476efbf52b1c8b1f08f461f34f5731ad4b3be71",
  "confirmations": 3043,
  "strippedsize": 253,
  "size": 253,
  "weight": 1012,
  "height": 1357952,
  "version": 536870912,
  "versionHex": "20000000",
  "merkleroot": "5b6d5df892e2dbb2732446a47a02b62a2cdae8dfb300ad148f80dcaa4a358812",
  "tx": [
    {
      "txid": "5b6d5df892e2dbb2732446a47a02b62a2cdae8dfb300ad148f80dcaa4a358812",
      "hash": "5b6d5df892e2dbb2732446a47a02b62a2cdae8dfb300ad148f80dcaa4a358812",
      "version": 1,
      "size": 172,
      "vsize": 172,
      "locktime": 0,
      "vin": [
        {
          "coinbase": "0380b8141a4d696e656420627920416e74506f6f6c20626a3532205a6ca365fabe6d6d9c2371181ef927a441643598ad9dd73e55d5b042144a948f2c9e1ff9c2d2b897040000000000000024130000000000000f000000",
          "sequence": 4294967295
        }
      ],
      "vout": [
        {
          "value": 25.00000000,
          "n": 0,
          "scriptPubKey": {
            "asm": "OP_DUP OP_HASH160 0ff3ccc5e8be88afe24b5d634e5852d474dbdff1 OP_EQUALVERIFY OP_CHECKSIG",
            "hex": "76a9140ff3ccc5e8be88afe24b5d634e5852d474dbdff188ac",
            "reqSigs": 1,
            "type": "pubkeyhash",
            "addresses": [
              "LLgJTbzZMsRTCUF1NtvvL9SR1a4pVieW89"
            ]
          }
        }
      ],
      "hex": "01000000010000000000000000000000000000000000000000000000000000000000000000ffffffff570380b8141a4d696e656420627920416e74506f6f6c20626a3532205a6ca365fabe6d6d9c2371181ef927a441643598ad9dd73e55d5b042144a948f2c9e1ff9c2d2b897040000000000000024130000000000000f000000ffffffff0100f90295000000001976a9140ff3ccc5e8be88afe24b5d634e5852d474dbdff188ac00000000"
    }
  ],
  "time": 1517069157,
  "mediantime": 1517068825,
  "nonce": 989326922,
  "bits": "1a047f14",
  "difficulty": 3731199.183374282,
  "chainwork": "000000000000000000000000000000000000000000000032abd5658467260c1a",
  "previousblockhash": "5eaa7529ab27743d7278ae27ce58748c79010c96e4cc2a6a83d0ea9ca14b3109",
  "nextblockhash": "fe98874934e2fff1e141179b80d362f833ec85eb310969e8861f295d6735d4aa"
}
