{
  "hash": "8ac48c6e5380f1b99612f652f10b217bfb60f0fc2be1fc2fa524954ae268d9e3",
  "confirmations": 333,
  "strippedsize": 234,
  "size": 234,
  "weight": 936,
  "height": 1360661,
  "version": 536870912,
  "versionHex": "20000000",
  "merkleroot": "b4cbe656a595c244a8ab885f561498a449c42521fa0a90afe647d126dd34a114",
  "tx": [
    {
      "txid": "b4cbe656a595c244a8ab885f561498a449c42521fa0a90afe647d126dd34a114",
      "hash": "b4cbe656a595c244a8ab885f561498a449c42521fa0a90afe647d126dd34a114",
      "version": 1,
      "size": 153,
      "vsize": 153,
      "locktime": 0,
      "vin": [
        {
          "coinbase": "0315c314045a72a4ee2cfabe6d6dfb205f67a6f4cfb95ea55f0de339fe07a25418779b1e434ac4285cf8077002274000000000000000042f4c502f085800124e17000000",
          "sequence": 4294967295
        }
      ],
      "vout": [
        {
          "value": 25.00000000,
          "n": 0,
          "scriptPubKey": {
            "asm": "OP_DUP OP_HASH160 57757ed2ecf2052ff3126c397aca7defb9ca2cec OP_EQUALVERIFY OP_CHECKSIG",
            "hex": "76a91457757ed2ecf2052ff3126c397aca7defb9ca2cec88ac",
            "reqSigs": 1,
            "type": "pubkeyhash",
            "addresses": [
              "LTCPodGk5FwcJaRzH9yKnwicxzFUbxp6tN"
            ]
          }
        }
      ],
      "hex": "01000000010000000000000000000000000000000000000000000000000000000000000000ffffffff440315c314045a72a4ee2cfabe6d6dfb205f67a6f4cfb95ea55f0de339fe07a25418779b1e434ac4285cf8077002274000000000000000042f4c502f085800124e17000000ffffffff0100f90295000000001976a91457757ed2ecf2052ff3126c397aca7defb9ca2cec88ac00000000"
    }
  ],
  "time": 1517462766,
  "mediantime": 1517462512,
  "nonce": 1476911403,
  "bits": "1a042eae",
  "difficulty": 4011378.762614286,
  "chainwork": "00000000000000000000000000000000000000000000003525adc59a5a17242c",
  "previousblockhash": "8682a2be5c9a558a043e81dcdbcacc9b2751085df2a722a5ef108c3ea2645316",
  "nextblockhash": "85255f778b359419faf2a89f1d178116de7a6c86b92c111cb7fb6ec45cbf19d7"
}
