{
  "hash": "8cb797463bc79c667ac65b96b655efc12dddf21dc2cc7533386111c63cfe7da2",
  "confirmations": 2718,
  "strippedsize": 253,
  "size": 253,
  "weight": 1012,
  "height": 1358277,
  "version": 536870912,
  "versionHex": "20000000",
  "merkleroot": "7ddaeac9d5891ae66b7f792b4e00d09faa66f6b9f76ab107ac89102304e3d222",
  "tx": [
    {
      "txid": "7ddaeac9d5891ae66b7f792b4e00d09faa66f6b9f76ab107ac89102304e3d222",
      "hash": "7ddaeac9d5891ae66b7f792b4e00d09faa66f6b9f76ab107ac89102304e3d222",
      "version": 1,
      "size": 172,
      "vsize": 172,
      "locktime": 0,
      "vin": [
        {
          "coinbase": "03c5b9141a4d696e656420627920416e74506f6f6c20626a341e205a6d6551fabe6d6d28439f4f906a8beaf7ceddb1c034f4d47547aa9914f8b656c69db137a8007dbd0400000000000000901c0000000000000d000000",
          "sequence": 4294967295
        }
      ],
      "vout": [
        {
          "value": 25.00000000,
          "n": 0,
          "scriptPubKey": {
            "asm": "OP_DUP OP_HASH160 0ff3ccc5e8be88afe24b5d634e5852d474dbdff1 OP_EQUALVERIFY OP_CHECKSIG",
            "hex": "76a9140ff3ccc5e8be88afe24b5d634e5852d474dbdff188ac",
            "reqSigs": 1,
            "type": "pubkeyhash",
            "addresses": [
              "LLgJTbzZMsRTCUF1NtvvL9SR1a4pVieW89"
            ]
          }
        }
      ],
      "hex": "01000000010000000000000000000000000000000000000000000000000000000000000000ffffffff5703c5b9141a4d696e656420627920416e74506f6f6c20626a341e205a6d6551fabe6d6d28439f4f906a8beaf7ceddb1c034f4d47547aa9914f8b656c69db137a8007dbd0400000000000000901c0000000000000d000000ffffffff0100f90295000000001976a9140ff3ccc5e8be88afe24b5d634e5852d474dbdff188ac00000000"
    }
  ],
  "time": 1517118801,
  "mediantime": 1517118010,
  "nonce": 246914304,
  "bits": "1a047f14",
  "difficulty": 3731199.183374282,
  "chainwork": "000000000000000000000000000000000000000000000032f41d17c2b221d91c",
  "previousblockhash": "0539b56ef51424fb1e56e2127e72a4df0be1240f22cc2fef9ff12e14cc02919c",
  "nextblockhash": "0283d7825f587ecee92535c49d44998a0790de640aee2f1ebf85aa860172b95c"
}
