{
  "hash": "8d0d75ef6c4c514996ce2475a7606d8654e3ecd4cbd5e49d2cf324a3389c879d",
  "confirmations": 2556,
  "strippedsize": 254,
  "size": 254,
  "weight": 1016,
  "height": 1358439,
  "version": 536870912,
  "versionHex": "20000000",
  "merkleroot": "432028c8233b5774c71171dc8e4b725c489c40b5e8d611bca201e78b23aa480c",
  "tx": [
    {
      "txid": "432028c8233b5774c71171dc8e4b725c489c40b5e8d611bca201e78b23aa480c",
      "hash": "432028c8233b5774c71171dc8e4b725c489c40b5e8d611bca201e78b23aa480c",
      "version": 1,
      "size": 173,
      "vsize": 173,
      "locktime": 0,
      "vin": [
        {
          "coinbase": "0367ba141b4d696e656420627920416e74506f6f6c20626a312045205a6dc017fabe6d6d2a34059ec46a183608d81e676b53abe606196542abf08c595293774ca4fc36ac0400000000000000ab260000000000001d000000",
          "sequence": 4294967295
        }
      ],
      "vout": [
        {
          "value": 25.00000000,
          "n": 0,
          "scriptPubKey": {
            "asm": "OP_DUP OP_HASH160 0ff3ccc5e8be88afe24b5d634e5852d474dbdff1 OP_EQUALVERIFY OP_CHECKSIG",
            "hex": "76a9140ff3ccc5e8be88afe24b5d634e5852d474dbdff188ac",
            "reqSigs": 1,
            "type": "pubkeyhash",
            "addresses": [
              "LLgJTbzZMsRTCUF1NtvvL9SR1a4pVieW89"
            ]
          }
        }
      ],
      "hex": "01000000010000000000000000000000000000000000000000000000000000000000000000ffffffff580367ba141b4d696e656420627920416e74506f6f6c20626a312045205a6dc017fabe6d6d2a34059ec46a183608d81e676b53abe606196542abf08c595293774ca4fc36ac0400000000000000ab260000000000001d000000ffffffff0100f90295000000001976a9140ff3ccc5e8be88afe24b5d634e5852d474dbdff188ac00000000"
    }
  ],
  "time": 1517142039,
  "mediantime": 1517141739,
  "nonce": 42148311,
  "bits": "1a047f14",
  "difficulty": 3731199.183374282,
  "chainwork": "00000000000000000000000000000000000000000000003318247945c88ae190",
  "previousblockhash": "9902513963eabf20be4e9abc2db47260e391a24dec2359c7b2837e3e8cda3fc7",
  "nextblockhash": "b8289e88a93ac9165cbba772b4a56f72da9ba63f71c2008aa36df3af792ab497"
}
