{
  "hash": "8d56b567a4aba3ff180c8b1c8f93dc65f9cab969519f3ae7ba00beadb322f16a",
  "confirmations": 1175,
  "strippedsize": 523,
  "size": 559,
  "weight": 2128,
  "height": 1359819,
  "version": 536870912,
  "versionHex": "20000000",
  "merkleroot": "d4930d06e1114d253d05d9f5591591cd3609181c1f66e70cdcce8a4df4bea857",
  "tx": [
    {
      "txid": "786eddb023eb222f75d20927eabed9af645c8a76a591a66c9fc06f4933fe66be",
      "hash": "c83c26c414141f734751ca92fd22a25edbf06ceb27d7d868ee16964b606c58ce",
      "version": 1,
      "size": 253,
      "vsize": 226,
      "locktime": 0,
      "vin": [
        {
          "coinbase": "03cbbf1441d69c2d39f6af8d41d69c2d39607afb2f4c54432e544f502ffabe6d6deafd966a29b0d1348fed92414a0e391c16baac4f740646f836bf6ba0676c60590100000000000000612af1d24c00000000000000",
          "sequence": 4294967295
        }
      ],
      "vout": [
        {
          "value": 25.00090400,
          "n": 0,
          "scriptPubKey": {
            "asm": "OP_DUP OP_HASH160 0c617fdb2ea42aed30a509595ee21ba3f6688db0 OP_EQUALVERIFY OP_CHECKSIG",
            "hex": "76a9140c617fdb2ea42aed30a509595ee21ba3f6688db088ac",
            "reqSigs": 1,
            "type": "pubkeyhash",
            "addresses": [
              "LLMRAtr3qBje2ySEa3CnZ55LA4TQMWnRY3"
            ]
          }
        }, 
        {
          "value": 0.00000000,
          "n": 1,
          "scriptPubKey": {
            "asm": "OP_RETURN aa21a9ed2c10efd889ffe2e429f99aaf9f6853f1f11dfa82baf821bc12a0bd806e960b1d",
            "hex": "6a24aa21a9ed2c10efd889ffe2e429f99aaf9f6853f1f11dfa82baf821bc12a0bd806e960b1d",
            "type": "nulldata"
          }
        }
      ],
      "hex": "010000000001010000000000000000000000000000000000000000000000000000000000000000ffffffff5503cbbf1441d69c2d39f6af8d41d69c2d39607afb2f4c54432e544f502ffabe6d6deafd966a29b0d1348fed92414a0e391c16baac4f740646f836bf6ba0676c60590100000000000000612af1d24c00000000000000ffffffff02205a0495000000001976a9140c617fdb2ea42aed30a509595ee21ba3f6688db088ac0000000000000000266a24aa21a9ed2c10efd889ffe2e429f99aaf9f6853f1f11dfa82baf821bc12a0bd806e960b1d0120000000000000000000000000000000000000000000000000000000000000000000000000"
    }, 
    {
      "txid": "6b3df6339f32aed2dbd43b55c885c4ea8c46abe3776d4741db383e5aa9af9609",
      "hash": "6b3df6339f32aed2dbd43b55c885c4ea8c46abe3776d4741db383e5aa9af9609",
      "version": 2,
      "size": 225,
      "vsize": 225,
      "locktime": 1359817,
      "vin": [
        {
          "txid": "e28c7622079f2915bfefeb42245ed5467d89331a1293a29cf9f025023278a669",
          "vout": 0,
          "scriptSig": {
            "asm": "304402203ee5a76facb3af646a787bfd67cd99ed1d6184fc3156569fd3c5e9d32b22118a02201b6e663db0aed087a4d397d934a4b5c8afb30ee6e23fd6745911577d12449b11[ALL] 03e485aaea4a17006baefc2c1fb12d769b3e5c5d5e577ee991f47df5a13a501484",
            "hex": "47304402203ee5a76facb3af646a787bfd67cd99ed1d6184fc3156569fd3c5e9d32b22118a02201b6e663db0aed087a4d397d934a4b5c8afb30ee6e23fd6745911577d12449b11012103e485aaea4a17006baefc2c1fb12d769b3e5c5d5e577ee991f47df5a13a501484"
          },
          "sequence": 4294967294
        }
      ],
      "vout": [
        {
          "value": 12.38392507,
          "n": 0,
          "scriptPubKey": {
            "asm": "OP_DUP OP_HASH160 219b761f02b3bf2d50f06ddd094c587472160b46 OP_EQUALVERIFY OP_CHECKSIG",
            "hex": "76a914219b761f02b3bf2d50f06ddd094c587472160b4688ac",
            "reqSigs": 1,
            "type": "pubkeyhash",
            "addresses": [
              "LNHeoC4nWmw135hJgtpofqKCCy5fMasudx"
            ]
          }
        }, 
        {
          "value": 0.26555353,
          "n": 1,
          "scriptPubKey": {
            "asm": "OP_DUP OP_HASH160 7004e374f17c4332a6584bc718b1794a5429d1b0 OP_EQUALVERIFY OP_CHECKSIG",
            "hex": "76a9147004e374f17c4332a6584bc718b1794a5429d1b088ac",
            "reqSigs": 1,
            "type": "pubkeyhash",
            "addresses": [
              "LVSFoMfnhbCi1TMBvGMkcTLs1s3iKW3ERs"
            ]
          }
        }
      ],
      "hex": "020000000169a678320225f0f99ca293121a33897d46d55e2442ebefbf15299f0722768ce2000000006a47304402203ee5a76facb3af646a787bfd67cd99ed1d6184fc3156569fd3c5e9d32b22118a02201b6e663db0aed087a4d397d934a4b5c8afb30ee6e23fd6745911577d12449b11012103e485aaea4a17006baefc2c1fb12d769b3e5c5d5e577ee991f47df5a13a501484feffffff02bb5ed049000000001976a914219b761f02b3bf2d50f06ddd094c587472160b4688acd9339501000000001976a9147004e374f17c4332a6584bc718b1794a5429d1b088acc9bf1400"
    }
  ],
  "time": 1517335781,
  "mediantime": 1517335583,
  "nonce": 19660719,
  "bits": "1a042eae",
  "difficulty": 4011378.762614286,
  "chainwork": "0000000000000000000000000000000000000000000000345c5b30d1a6459e98",
  "previousblockhash": "1ccc9bc1c6920df3689971d935a01481c82aa2bf6355c807d8f0a2c3f28c1181",
  "nextblockhash": "4c609e54894fd051e648c20e3001107016fc8ae9531a62b10da5ea1dd850d2d8"
}
