{
  "hash": "8d819c530ae2c4093044bb4af05b5b4e24265bfc6f4a5d9276330fa2872a5f98",
  "confirmations": 1462,
  "strippedsize": 3045,
  "size": 3081,
  "weight": 12216,
  "height": 1359532,
  "version": 536870912,
  "versionHex": "20000000",
  "merkleroot": "f5f5415709e43f2e2d3144a34f5eac2784abee0d536625422e896fe0b9463b76",
  "tx": [
    {
      "txid": "00d9b76c2a086bd87061a3a7686e519a5acb6047be01550f1ce9bffe3ac20003",
      "hash": "66a9936ceba6303824b97716f2b20dceb9db7d9799d950453db4a8b0b76b614e",
      "version": 1,
      "size": 200,
      "vsize": 173,
      "locktime": 0,
      "vin": [
        {
          "coinbase": "03acbe1404f817705a087000020d4b1100000d2f6e6f64655374726174756d2f",
          "sequence": 0
        }
      ],
      "vout": [
        {
          "value": 0.00000000,
          "n": 0,
          "scriptPubKey": {
            "asm": "OP_RETURN aa21a9ed415c82567785d408f90ea018fef68b532d8e884ab248b2e2808521423c54db10",
            "hex": "6a24aa21a9ed415c82567785d408f90ea018fef68b532d8e884ab248b2e2808521423c54db10",
            "type": "nulldata"
          }
        }, 
        {
          "value": 25.01034804,
          "n": 1,
          "scriptPubKey": {
            "asm": "OP_DUP OP_HASH160 8836a0d567257e801254e29be08629fb71f36f9f OP_EQUALVERIFY OP_CHECKSIG",
            "hex": "76a9148836a0d567257e801254e29be08629fb71f36f9f88ac",
            "reqSigs": 1,
            "type": "pubkeyhash",
            "addresses": [
              "LXeBbwTXnzwSUzSbVubDZu4brFzmMjehn3"
            ]
          }
        }
      ],
      "hex": "010000000001010000000000000000000000000000000000000000000000000000000000000000ffffffff2003acbe1404f817705a087000020d4b1100000d2f6e6f64655374726174756d2f00000000020000000000000000266a24aa21a9ed415c82567785d408f90ea018fef68b532d8e884ab248b2e2808521423c54db1034c31295000000001976a9148836a0d567257e801254e29be08629fb71f36f9f88ac0120000000000000000000000000000000000000000000000000000000000000000000000000"
    }, 
    {
      "txid": "f874ec8649ff23fb9654f733a689a6b49e4ffa6c8f9b45082f4272d87b90eed6",
      "hash": "f874ec8649ff23fb9654f733a689a6b49e4ffa6c8f9b45082f4272d87b90eed6",
      "version": 1,
      "size": 226,
      "vsize": 226,
      "locktime": 0,
      "vin": [
        {
          "txid": "15d7f872b4d470568caae40b91078b02e2c1b227cab1c409339466dca766e5e2",
          "vout": 1,
          "scriptSig": {
            "asm": "3045022100f24c2647b81a725a87a6ffa83342c2f58d8bdbb5064459a0d2cc2df6b63f1e8a02202af9d4ff4b6c3b78aaab9803a6a70a510b00e44b5364febc230d03a0581c972e[ALL] 03045557468cb480ae3fdf7b18f7869def61be4e141fdfcba7f53ba667d2007c9a",
            "hex": "483045022100f24c2647b81a725a87a6ffa83342c2f58d8bdbb5064459a0d2cc2df6b63f1e8a02202af9d4ff4b6c3b78aaab9803a6a70a510b00e44b5364febc230d03a0581c972e012103045557468cb480ae3fdf7b18f7869def61be4e141fdfcba7f53ba667d2007c9a"
          },
          "sequence": 4294967295
        }
      ],
      "vout": [
        {
          "value": 0.16968193,
          "n": 0,
          "scriptPubKey": {
            "asm": "OP_DUP OP_HASH160 84a2fbdf645733a8e946d1f243f329b3148b9ad5 OP_EQUALVERIFY OP_CHECKSIG",
            "hex": "76a91484a2fbdf645733a8e946d1f243f329b3148b9ad588ac",
            "reqSigs": 1,
            "type": "pubkeyhash",
            "addresses": [
              "LXKGhrRcjYdErs3acRYjCdD9ieNb8VtDfJ"
            ]
          }
        }, 
        {
          "value": 810.90582164,
          "n": 1,
          "scriptPubKey": {
            "asm": "OP_DUP OP_HASH160 8c184560f54552e065fe1a43a555ab79bb9fd40b OP_EQUALVERIFY OP_CHECKSIG",
            "hex": "76a9148c184560f54552e065fe1a43a555ab79bb9fd40b88ac",
            "reqSigs": 1,
            "type": "pubkeyhash",
            "addresses": [
              "LXzhwSyYhTxZt4piVs7KvYPAWKDdXvMTNo"
            ]
          }
        }
      ],
      "hex": "0100000001e2e566a7dc66943309c4b1ca27b2c1e2028b07910be4aa8c5670d4b472f8d715010000006b483045022100f24c2647b81a725a87a6ffa83342c2f58d8bdbb5064459a0d2cc2df6b63f1e8a02202af9d4ff4b6c3b78aaab9803a6a70a510b00e44b5364febc230d03a0581c972e012103045557468cb480ae3fdf7b18f7869def61be4e141fdfcba7f53ba667d2007c9affffffff0201ea0201000000001976a91484a2fbdf645733a8e946d1f243f329b3148b9ad588ac941660e1120000001976a9148c184560f54552e065fe1a43a555ab79bb9fd40b88ac00000000"
    }, 
    {
      "txid": "9ba61fa21dc93e88501a3a8e5c5d29772bc00944431af2480267a77a598a8fb2",
      "hash": "9ba61fa21dc93e88501a3a8e5c5d29772bc00944431af2480267a77a598a8fb2",
      "version": 1,
      "size": 361,
      "vsize": 361,
      "locktime": 0,
      "vin": [
        {
          "txid": "3bcb50f1ce0d4d0653346419bb3b562e2f442f66c7cb6f1c2a4add9d9d614a9d",
          "vout": 1,
          "scriptSig": {
            "asm": "304402201c70d0a5855e56ca62b11da07760fd4696d198c7eaec5e966dd276992060bb09022000878f819ef0b87d21534548928e51b65fbf476a750e504729f5dd4cd3c2fa09[ALL] 03e82822b12cfc67864a11201ab035f5f6fd3abcc69632619e8da86aa4411253be",
            "hex": "47304402201c70d0a5855e56ca62b11da07760fd4696d198c7eaec5e966dd276992060bb09022000878f819ef0b87d21534548928e51b65fbf476a750e504729f5dd4cd3c2fa09012103e82822b12cfc67864a11201ab035f5f6fd3abcc69632619e8da86aa4411253be"
          },
          "sequence": 4294967295
        }
      ],
      "vout": [
        {
          "value": 0.39000000,
          "n": 0,
          "scriptPubKey": {
            "asm": "OP_DUP OP_HASH160 bc9549a9f2de09ddf04cda53767dfff843888cc2 OP_EQUALVERIFY OP_CHECKSIG",
            "hex": "76a914bc9549a9f2de09ddf04cda53767dfff843888cc288ac",
            "reqSigs": 1,
            "type": "pubkeyhash",
            "addresses": [
              "LcR68yKRV7JieqiL5LFrwg6p8MSKf48yMJ"
            ]
          }
        }, 
        {
          "value": 0.32700500,
          "n": 1,
          "scriptPubKey": {
            "asm": "OP_DUP OP_HASH160 4031bfd63a743d89c9ad298ca1420ccda18fe38a OP_EQUALVERIFY OP_CHECKSIG",
            "hex": "76a9144031bfd63a743d89c9ad298ca1420ccda18fe38a88ac",
            "reqSigs": 1,
            "type": "pubkeyhash",
            "addresses": [
              "LR5P78sMHtTR5biQpK8u5gyHRxrQfJMHTx"
            ]
          }
        }, 
        {
          "value": 9.72135280,
          "n": 2,
          "scriptPubKey": {
            "asm": "OP_DUP OP_HASH160 c68dd089950c93113a1ca3c7f69ac955e19ce554 OP_EQUALVERIFY OP_CHECKSIG",
            "hex": "76a914c68dd089950c93113a1ca3c7f69ac955e19ce55488ac",
            "reqSigs": 1,
            "type": "pubkeyhash",
            "addresses": [
              "LdKoweTDYAhAP41DnYt66bnjr1gpHFsraF"
            ]
          }
        }, 
        {
          "value": 18.00000000,
          "n": 3,
          "scriptPubKey": {
            "asm": "OP_DUP OP_HASH160 e33c38c5c7dca94979a74d32658de859dd1315a1 OP_EQUALVERIFY OP_CHECKSIG",
            "hex": "76a914e33c38c5c7dca94979a74d32658de859dd1315a188ac",
            "reqSigs": 1,
            "type": "pubkeyhash",
            "addresses": [
              "LfwTo3Hr47GV8fk1HhmNwWNYiipkPfJZmY"
            ]
          }
        }, 
        {
          "value": 0.68903868,
          "n": 4,
          "scriptPubKey": {
            "asm": "OP_DUP OP_HASH160 77fada25c996e03b4bbe62b421995a998d5568a7 OP_EQUALVERIFY OP_CHECKSIG",
            "hex": "76a91477fada25c996e03b4bbe62b421995a998d5568a788ac",
            "reqSigs": 1,
            "type": "pubkeyhash",
            "addresses": [
              "LWAMBZ2buoAS9jc6fTFrpQeaoK1so321Lh"
            ]
          }
        }, 
        {
          "value": 0.85066456,
          "n": 5,
          "scriptPubKey": {
            "asm": "OP_DUP OP_HASH160 f9871c6dd621879729cd7d502a5af822501cf2aa OP_EQUALVERIFY OP_CHECKSIG",
            "hex": "76a914f9871c6dd621879729cd7d502a5af822501cf2aa88ac",
            "reqSigs": 1,
            "type": "pubkeyhash",
            "addresses": [
              "LhyLNfBkoKshT7R8Pce6vkB9T2cP2o84hx"
            ]
          }
        }
      ],
      "hex": "01000000019d4a619d9ddd4a2a1c6fcbc7662f442f2e563bbb19643453064d0dcef150cb3b010000006a47304402201c70d0a5855e56ca62b11da07760fd4696d198c7eaec5e966dd276992060bb09022000878f819ef0b87d21534548928e51b65fbf476a750e504729f5dd4cd3c2fa09012103e82822b12cfc67864a11201ab035f5f6fd3abcc69632619e8da86aa4411253beffffffff06c0175302000000001976a914bc9549a9f2de09ddf04cda53767dfff843888cc288ac54f8f201000000001976a9144031bfd63a743d89c9ad298ca1420ccda18fe38a88ac709bf139000000001976a914c68dd089950c93113a1ca3c7f69ac955e19ce55488ac00d2496b000000001976a914e33c38c5c7dca94979a74d32658de859dd1315a188acbc631b04000000001976a91477fada25c996e03b4bbe62b421995a998d5568a788acd8021205000000001976a914f9871c6dd621879729cd7d502a5af822501cf2aa88ac00000000"
    }, 
    {
      "txid": "06dc8e9ffcb2a253850e9330c3cdf93ef591dbfbab8364bbd0c96a9c72c607ae",
      "hash": "06dc8e9ffcb2a253850e9330c3cdf93ef591dbfbab8364bbd0c96a9c72c607ae",
      "version": 1,
      "size": 225,
      "vsize": 225,
      "locktime": 0,
      "vin": [
        {
          "txid": "0c0a3a6a2166f4528b4220a4f2a6eabaa84fe57444844d4a106076b9a75d0954",
          "vout": 6,
          "scriptSig": {
            "asm": "3044022076039334dbf998ffa6a0859ec7f642461b8ca0974c92565bdffef538fb55840802206c6aed720f1f1674732fbec96c11a4976c4b00ed794a0e0cc446b4a0792d4080[ALL] 037f81c084bfc6e3a4a21a329f93d562239d41308b5dfb3b645b1c773a0dc0b7a1",
            "hex": "473044022076039334dbf998ffa6a0859ec7f642461b8ca0974c92565bdffef538fb55840802206c6aed720f1f1674732fbec96c11a4976c4b00ed794a0e0cc446b4a0792d40800121037f81c084bfc6e3a4a21a329f93d562239d41308b5dfb3b645b1c773a0dc0b7a1"
          },
          "sequence": 4294967295
        }
      ],
      "vout": [
        {
          "value": 0.18292323,
          "n": 0,
          "scriptPubKey": {
            "asm": "OP_DUP OP_HASH160 8c07a9a2bc9aad6e80ede74b638eef0fd5504ae9 OP_EQUALVERIFY OP_CHECKSIG",
            "hex": "76a9148c07a9a2bc9aad6e80ede74b638eef0fd5504ae988ac",
            "reqSigs": 1,
            "type": "pubkeyhash",
            "addresses": [
              "LXzN3UiumqWaSJFeUAKNMs2scpRtRiKHE6"
            ]
          }
        }, 
        {
          "value": 4.81646348,
          "n": 1,
          "scriptPubKey": {
            "asm": "OP_DUP OP_HASH160 9585273e78bd2f6f03a4e3cf5a3c687a3c9e6d7f OP_EQUALVERIFY OP_CHECKSIG",
            "hex": "76a9149585273e78bd2f6f03a4e3cf5a3c687a3c9e6d7f88ac",
            "reqSigs": 1,
            "type": "pubkeyhash",
            "addresses": [
              "LYrYTSzjVHjFBYWiQazpNzLkPtYjm1D9kB"
            ]
          }
        }
      ],
      "hex": "010000000154095da7b97660104a4d844474e54fa8baeaa6f2a420428b52f466216a3a0a0c060000006a473044022076039334dbf998ffa6a0859ec7f642461b8ca0974c92565bdffef538fb55840802206c6aed720f1f1674732fbec96c11a4976c4b00ed794a0e0cc446b4a0792d40800121037f81c084bfc6e3a4a21a329f93d562239d41308b5dfb3b645b1c773a0dc0b7a1ffffffff02631e1701000000001976a9148c07a9a2bc9aad6e80ede74b638eef0fd5504ae988ac0c57b51c000000001976a9149585273e78bd2f6f03a4e3cf5a3c687a3c9e6d7f88ac00000000"
    }, 
    {
      "txid": "8a9844ad54fef63aa6fbd9083e48412d9cfba741d3ff4e1c9d1201fdbeb9c579",
      "hash": "8a9844ad54fef63aa6fbd9083e48412d9cfba741d3ff4e1c9d1201fdbeb9c579",
      "version": 1,
      "size": 260,
      "vsize": 260,
      "locktime": 0,
      "vin": [
        {
          "txid": "271586d889535ee925a9beb81c43fa88e952f56cf2fe124482b8c11ba33ba6a7",
          "vout": 1,
          "scriptSig": {
            "asm": "3045022100f68bc621e70605b170f25a73f2ff6c1d6e124ee764205e3ced38bcd547718e9102203544732b538152b3304613e19ae0d7999c502ef08e3c644e936fb5d19c4386ef[ALL] 03f7f81029d43d6ed9165be941f8594f7870973d6196d99c2101585f4b3454edde",
            "hex": "483045022100f68bc621e70605b170f25a73f2ff6c1d6e124ee764205e3ced38bcd547718e9102203544732b538152b3304613e19ae0d7999c502ef08e3c644e936fb5d19c4386ef012103f7f81029d43d6ed9165be941f8594f7870973d6196d99c2101585f4b3454edde"
          },
          "sequence": 4294967295
        }
      ],
      "vout": [
        {
          "value": 0.18398936,
          "n": 0,
          "scriptPubKey": {
            "asm": "OP_DUP OP_HASH160 443a2141d429d43f783e865b5417c5a3f940e484 OP_EQUALVERIFY OP_CHECKSIG",
            "hex": "76a914443a2141d429d43f783e865b5417c5a3f940e48488ac",
            "reqSigs": 1,
            "type": "pubkeyhash",
            "addresses": [
              "LRShrCEW9AAz1wVxCgUU3jE5msg2jCiGds"
            ]
          }
        }, 
        {
          "value": 0.94370967,
          "n": 1,
          "scriptPubKey": {
            "asm": "OP_DUP OP_HASH160 46e997998ecc25ab5573391328ee2c373da05788 OP_EQUALVERIFY OP_CHECKSIG",
            "hex": "76a91446e997998ecc25ab5573391328ee2c373da0578888ac",
            "reqSigs": 1,
            "type": "pubkeyhash",
            "addresses": [
              "LRguPunFmizKgq3wvoU21gnZWcGuyFqgbc"
            ]
          }
        }, 
        {
          "value": 68.30101040,
          "n": 2,
          "scriptPubKey": {
            "asm": "OP_DUP OP_HASH160 36b137e9b6521a7df851d215546b3092f23f3577 OP_EQUALVERIFY OP_CHECKSIG",
            "hex": "76a91436b137e9b6521a7df851d215546b3092f23f357788ac",
            "reqSigs": 1,
            "type": "pubkeyhash",
            "addresses": [
              "LQD93vUheTA3KQTiAx8CtrnDNjxe8PVuiq"
            ]
          }
        }
      ],
      "hex": "0100000001a7a63ba31bc1b8824412fef26cf552e988fa431cb8bea925e95e5389d8861527010000006b483045022100f68bc621e70605b170f25a73f2ff6c1d6e124ee764205e3ced38bcd547718e9102203544732b538152b3304613e19ae0d7999c502ef08e3c644e936fb5d19c4386ef012103f7f81029d43d6ed9165be941f8594f7870973d6196d99c2101585f4b3454eddeffffffff03d8be1801000000001976a914443a2141d429d43f783e865b5417c5a3f940e48488ac97fc9f05000000001976a91446e997998ecc25ab5573391328ee2c373da0578888ac30121b97010000001976a91436b137e9b6521a7df851d215546b3092f23f357788ac00000000"
    }, 
    {
      "txid": "e8ecc54f747bf55ecb4b2cce288c2215057fa1c4a63f4c1db1c3c99f447799d6",
      "hash": "e8ecc54f747bf55ecb4b2cce288c2215057fa1c4a63f4c1db1c3c99f447799d6",
      "version": 1,
      "size": 226,
      "vsize": 226,
      "locktime": 0,
      "vin": [
        {
          "txid": "24208e7a14b86d689b1985b55bdd524314cf4aa8f8f39534855c6cff6a01e7d8",
          "vout": 1,
          "scriptSig": {
            "asm": "3045022100800b663b8545026608cfdbf56594d1427a274a55fde053f808c8a82b34e41d550220647bc2b8dcc2bdb875440cbbd8c9de0ee54326c6760be7f350f81739834fb4d6[ALL] 0384a9a36de00797765bb8cbd04dabb5aa68695b13ab3d76e64a85d79f0c76db7f",
            "hex": "483045022100800b663b8545026608cfdbf56594d1427a274a55fde053f808c8a82b34e41d550220647bc2b8dcc2bdb875440cbbd8c9de0ee54326c6760be7f350f81739834fb4d601210384a9a36de00797765bb8cbd04dabb5aa68695b13ab3d76e64a85d79f0c76db7f"
          },
          "sequence": 4294967295
        }
      ],
      "vout": [
        {
          "value": 58.38212748,
          "n": 0,
          "scriptPubKey": {
            "asm": "OP_DUP OP_HASH160 8a4fd1372b1dd683fede7d68f2332fae2e9c9f71 OP_EQUALVERIFY OP_CHECKSIG",
            "hex": "76a9148a4fd1372b1dd683fede7d68f2332fae2e9c9f7188ac",
            "reqSigs": 1,
            "type": "pubkeyhash",
            "addresses": [
              "LXqH8V6ZtsHBrURFbVxHR59KA24qcdosN3"
            ]
          }
        }, 
        {
          "value": 0.16470000,
          "n": 1,
          "scriptPubKey": {
            "asm": "OP_DUP OP_HASH160 a8348aa3c9f383c5d9a81fd28549c8c31cf7f207 OP_EQUALVERIFY OP_CHECKSIG",
            "hex": "76a914a8348aa3c9f383c5d9a81fd28549c8c31cf7f20788ac",
            "reqSigs": 1,
            "type": "pubkeyhash",
            "addresses": [
              "LaZLj6JXG9umNgp5Dr6JWzffhEBjBySENm"
            ]
          }
        }
      ],
      "hex": "0100000001d8e7016aff6c5c853495f3f8a84acf144352dd5bb585199b686db8147a8e2024010000006b483045022100800b663b8545026608cfdbf56594d1427a274a55fde053f808c8a82b34e41d550220647bc2b8dcc2bdb875440cbbd8c9de0ee54326c6760be7f350f81739834fb4d601210384a9a36de00797765bb8cbd04dabb5aa68695b13ab3d76e64a85d79f0c76db7fffffffff028c0efc5b010000001976a9148a4fd1372b1dd683fede7d68f2332fae2e9c9f7188acf04ffb00000000001976a914a8348aa3c9f383c5d9a81fd28549c8c31cf7f20788ac00000000"
    }, 
    {
      "txid": "7b70e4fd5b5cecd109d75a5b66242a41b4bc6776945fd00dd9f059a95a583eec",
      "hash": "7b70e4fd5b5cecd109d75a5b66242a41b4bc6776945fd00dd9f059a95a583eec",
      "version": 1,
      "size": 226,
      "vsize": 226,
      "locktime": 0,
      "vin": [
        {
          "txid": "ba27d4ef8b0864a2617be0ac56b956927d58c29363204ebed34b3413fd373564",
          "vout": 1,
          "scriptSig": {
            "asm": "3045022100990c8a7e8b95ecb939c35e063f33e3564b3ce6d202fd17f5bfa49923ffc8cf3902203291e72f1ab2e530f5e19c0e5c4e2d8b11e10a4ab534d6e4af80a0fa00550a4e[ALL] 025abbbb0ec5c7ee6618dcc9cfd5dc7b069ccbd4c64b8c5d407457a6596fce5af3",
            "hex": "483045022100990c8a7e8b95ecb939c35e063f33e3564b3ce6d202fd17f5bfa49923ffc8cf3902203291e72f1ab2e530f5e19c0e5c4e2d8b11e10a4ab534d6e4af80a0fa00550a4e0121025abbbb0ec5c7ee6618dcc9cfd5dc7b069ccbd4c64b8c5d407457a6596fce5af3"
          },
          "sequence": 4294967295
        }
      ],
      "vout": [
        {
          "value": 2.00000000,
          "n": 0,
          "scriptPubKey": {
            "asm": "OP_DUP OP_HASH160 129a0bc57cd43a667c0590b71cdcfe5f46fa090f OP_EQUALVERIFY OP_CHECKSIG",
            "hex": "76a914129a0bc57cd43a667c0590b71cdcfe5f46fa090f88ac",
            "reqSigs": 1,
            "type": "pubkeyhash",
            "addresses": [
              "LLvJxy86cByQLNRV7RcHML6thWDXJ6Mma1"
            ]
          }
        }, 
        {
          "value": 42.48030600,
          "n": 1,
          "scriptPubKey": {
            "asm": "OP_DUP OP_HASH160 6efcf61db0c4a2b9b27b5bc7e23cc554b0bedfca OP_EQUALVERIFY OP_CHECKSIG",
            "hex": "76a9146efcf61db0c4a2b9b27b5bc7e23cc554b0bedfca88ac",
            "reqSigs": 1,
            "type": "pubkeyhash",
            "addresses": [
              "LVLodNzFLbobz7qtXEMmecU5qaMGC7u7t8"
            ]
          }
        }
      ],
      "hex": "0100000001643537fd13344bd3be4e206393c2587d9256b956ace07b61a264088befd427ba010000006b483045022100990c8a7e8b95ecb939c35e063f33e3564b3ce6d202fd17f5bfa49923ffc8cf3902203291e72f1ab2e530f5e19c0e5c4e2d8b11e10a4ab534d6e4af80a0fa00550a4e0121025abbbb0ec5c7ee6618dcc9cfd5dc7b069ccbd4c64b8c5d407457a6596fce5af3ffffffff0200c2eb0b000000001976a914129a0bc57cd43a667c0590b71cdcfe5f46fa090f88ac88cd33fd000000001976a9146efcf61db0c4a2b9b27b5bc7e23cc554b0bedfca88ac00000000"
    }, 
    {
      "txid": "5b0491d2f6a8d5aed58c6f07c9e1d8bfc5511d2ba75775970b128ee704ba4e00",
      "hash": "5b0491d2f6a8d5aed58c6f07c9e1d8bfc5511d2ba75775970b128ee704ba4e00",
      "version": 1,
      "size": 225,
      "vsize": 225,
      "locktime": 0,
      "vin": [
        {
          "txid": "aa593c5605efd6b18b8e6544a1b019e2dc425f2e27c9fd557d80a867afce762a",
          "vout": 3,
          "scriptSig": {
            "asm": "3044022077119d3d847205fc1fd4ebb6c837215b144e1c5a097dbadef0cec4f26e32f67802201ca8e03202fd7404ce79a112b00016898d45daf3c083b1d17b95e8f95528db21[ALL] 03159e6899396267cae27f1b813a9e2229193d0fb68c181c087cb7c67fa9f6dc7d",
            "hex": "473044022077119d3d847205fc1fd4ebb6c837215b144e1c5a097dbadef0cec4f26e32f67802201ca8e03202fd7404ce79a112b00016898d45daf3c083b1d17b95e8f95528db21012103159e6899396267cae27f1b813a9e2229193d0fb68c181c087cb7c67fa9f6dc7d"
          },
          "sequence": 4294967295
        }
      ],
      "vout": [
        {
          "value": 0.00921500,
          "n": 0,
          "scriptPubKey": {
            "asm": "OP_DUP OP_HASH160 9b93a59cb6b6f56d12b956b88c9ee6734641ebf8 OP_EQUALVERIFY OP_CHECKSIG",
            "hex": "76a9149b93a59cb6b6f56d12b956b88c9ee6734641ebf888ac",
            "reqSigs": 1,
            "type": "pubkeyhash",
            "addresses": [
              "LZQZsdmZEWr5XDmDLmoWZZG6e8wpUH8N6L"
            ]
          }
        }, 
        {
          "value": 0.10000000,
          "n": 1,
          "scriptPubKey": {
            "asm": "OP_DUP OP_HASH160 f0f30491535c6b76fd7ef94722421781beba9fa9 OP_EQUALVERIFY OP_CHECKSIG",
            "hex": "76a914f0f30491535c6b76fd7ef94722421781beba9fa988ac",
            "reqSigs": 1,
            "type": "pubkeyhash",
            "addresses": [
              "LhByZRn8vRKW9VSHn7uK67uujy5XReMsZx"
            ]
          }
        }
      ],
      "hex": "01000000012a76ceaf67a8807d55fdc9272e5f42dce219b0a144658e8bb1d6ef05563c59aa030000006a473044022077119d3d847205fc1fd4ebb6c837215b144e1c5a097dbadef0cec4f26e32f67802201ca8e03202fd7404ce79a112b00016898d45daf3c083b1d17b95e8f95528db21012103159e6899396267cae27f1b813a9e2229193d0fb68c181c087cb7c67fa9f6dc7dffffffff029c0f0e00000000001976a9149b93a59cb6b6f56d12b956b88c9ee6734641ebf888ac80969800000000001976a914f0f30491535c6b76fd7ef94722421781beba9fa988ac00000000"
    }, 
    {
      "txid": "f45d5ba6a50f9c0d43135eeb75ae3d792bbfe2fca0b2cc95a8bcbdd0c3d404c1",
      "hash": "f45d5ba6a50f9c0d43135eeb75ae3d792bbfe2fca0b2cc95a8bcbdd0c3d404c1",
      "version": 2,
      "size": 373,
      "vsize": 373,
      "locktime": 1359530,
      "vin": [
        {
          "txid": "3a4eb00432f47d528d93a2819d4dfe9676bfb5f66c1412ff6a6ce0feab502c06",
          "vout": 1,
          "scriptSig": {
            "asm": "3045022100c8d5dee57db3ebe3a3d248e8be1340fe791c66c3c7780e883cd42775fb5dc17e02201aa342d2e60111d56ecc5534edf7c7d11d47ef77032a98a2c2bab55e8e209df6[ALL] 0313d9b731a3555435803e879d2d345bebccfc16c349061eba4e90bfe0b084e174",
            "hex": "483045022100c8d5dee57db3ebe3a3d248e8be1340fe791c66c3c7780e883cd42775fb5dc17e02201aa342d2e60111d56ecc5534edf7c7d11d47ef77032a98a2c2bab55e8e209df601210313d9b731a3555435803e879d2d345bebccfc16c349061eba4e90bfe0b084e174"
          },
          "sequence": 4294967294
        }, 
        {
          "txid": "ede50ddd4eb64a5fb5d49ba2cf9581e3032fb3f7dda9f88fb8163901151f29bc",
          "vout": 1,
          "scriptSig": {
            "asm": "30440220596c6543233246556fac523dafadeea060a9ee680083e4e13380c6a3d8a1e54d022045065ec413c750a53d5498d764c25fd8a2b1d2241423597ef240eed1865bc246[ALL] 02a2f6bd00f090e03f6eecd19b219233fb703e03e4e3a235799f4429a1d83e563d",
            "hex": "4730440220596c6543233246556fac523dafadeea060a9ee680083e4e13380c6a3d8a1e54d022045065ec413c750a53d5498d764c25fd8a2b1d2241423597ef240eed1865bc246012102a2f6bd00f090e03f6eecd19b219233fb703e03e4e3a235799f4429a1d83e563d"
          },
          "sequence": 4294967294
        }
      ],
      "vout": [
        {
          "value": 3.10700000,
          "n": 0,
          "scriptPubKey": {
            "asm": "OP_DUP OP_HASH160 bed26fae3755ce9ef166b57ab3bf45c1e2a21f20 OP_EQUALVERIFY OP_CHECKSIG",
            "hex": "76a914bed26fae3755ce9ef166b57ab3bf45c1e2a21f2088ac",
            "reqSigs": 1,
            "type": "pubkeyhash",
            "addresses": [
              "Lccvk2aAbxKV7pVNWwNqPryMzjXKCPFCkK"
            ]
          }
        }, 
        {
          "value": 0.23467344,
          "n": 1,
          "scriptPubKey": {
            "asm": "OP_DUP OP_HASH160 d3d916afc2ac5b3b27514e3155cbce86ff21028e OP_EQUALVERIFY OP_CHECKSIG",
            "hex": "76a914d3d916afc2ac5b3b27514e3155cbce86ff21028e88ac",
            "reqSigs": 1,
            "type": "pubkeyhash",
            "addresses": [
              "LeY6uGfhJF1SU4xKFWXY4Xm1LsxB1u31kU"
            ]
          }
        }
      ],
      "hex": "0200000002062c50abfee06c6aff12146cf6b5bf7696fe4d9d81a2938d527df43204b04e3a010000006b483045022100c8d5dee57db3ebe3a3d248e8be1340fe791c66c3c7780e883cd42775fb5dc17e02201aa342d2e60111d56ecc5534edf7c7d11d47ef77032a98a2c2bab55e8e209df601210313d9b731a3555435803e879d2d345bebccfc16c349061eba4e90bfe0b084e174feffffffbc291f15013916b88ff8a9ddf7b32f03e38195cfa29bd4b55f4ab64edd0de5ed010000006a4730440220596c6543233246556fac523dafadeea060a9ee680083e4e13380c6a3d8a1e54d022045065ec413c750a53d5498d764c25fd8a2b1d2241423597ef240eed1865bc246012102a2f6bd00f090e03f6eecd19b219233fb703e03e4e3a235799f4429a1d83e563dfeffffff02e0e78412000000001976a914bed26fae3755ce9ef166b57ab3bf45c1e2a21f2088ac50156601000000001976a914d3d916afc2ac5b3b27514e3155cbce86ff21028e88acaabe1400"
    }, 
    {
      "txid": "f9c65ddcfc07db2fab968939e6e7361fbe27be7b9040e733d2f69576b7b09634",
      "hash": "f9c65ddcfc07db2fab968939e6e7361fbe27be7b9040e733d2f69576b7b09634",
      "version": 1,
      "size": 226,
      "vsize": 226,
      "locktime": 0,
      "vin": [
        {
          "txid": "67ffa06f1d75f35d74e71c310fd027a8d0c6318c2067f5ab796f8593c560107c",
          "vout": 13,
          "scriptSig": {
            "asm": "3045022100a6e24b37d90e4d7611aeea33367a075d9c4c3c6ba909a0d5a3b42f850fde8bef0220123089f7a0740c81fb5fa98f632d599b489ab8ca45b74fdf5536aa8b0c8ec044[ALL] 02175c8eec573820040c9d1c0e4fa617d0305d44f5369a98a783d962865a934357",
            "hex": "483045022100a6e24b37d90e4d7611aeea33367a075d9c4c3c6ba909a0d5a3b42f850fde8bef0220123089f7a0740c81fb5fa98f632d599b489ab8ca45b74fdf5536aa8b0c8ec044012102175c8eec573820040c9d1c0e4fa617d0305d44f5369a98a783d962865a934357"
          },
          "sequence": 4294967295
        }
      ],
      "vout": [
        {
          "value": 0.48464577,
          "n": 0,
          "scriptPubKey": {
            "asm": "OP_DUP OP_HASH160 4db95ec2a9c4fa6028af2b6a41d9989bed779dce OP_EQUALVERIFY OP_CHECKSIG",
            "hex": "76a9144db95ec2a9c4fa6028af2b6a41d9989bed779dce88ac",
            "reqSigs": 1,
            "type": "pubkeyhash",
            "addresses": [
              "LSJvMjCKGqk3WdYr46TaNM3unzfgzxX2cU"
            ]
          }
        }, 
        {
          "value": 1.62977400,
          "n": 1,
          "scriptPubKey": {
            "asm": "OP_DUP OP_HASH160 f91fbd15bf1780fcf2a3748cd614515c0924e681 OP_EQUALVERIFY OP_CHECKSIG",
            "hex": "76a914f91fbd15bf1780fcf2a3748cd614515c0924e68188ac",
            "reqSigs": 1,
            "type": "pubkeyhash",
            "addresses": [
              "LhwCYDVqMWu7HcPgCESdhk3qZ3Ri2u82U1"
            ]
          }
        }
      ],
      "hex": "01000000017c1060c593856f79abf567208c31c6d0a827d00f311ce7745df3751d6fa0ff670d0000006b483045022100a6e24b37d90e4d7611aeea33367a075d9c4c3c6ba909a0d5a3b42f850fde8bef0220123089f7a0740c81fb5fa98f632d599b489ab8ca45b74fdf5536aa8b0c8ec044012102175c8eec573820040c9d1c0e4fa617d0305d44f5369a98a783d962865a934357ffffffff02c182e302000000001976a9144db95ec2a9c4fa6028af2b6a41d9989bed779dce88ac78d6b609000000001976a914f91fbd15bf1780fcf2a3748cd614515c0924e68188ac00000000"
    }, 
    {
      "txid": "1d4c31b2dff9a0508e57c0ec7b39ba9c158a9bd8eea9cc6deab5802c2755a53f",
      "hash": "1d4c31b2dff9a0508e57c0ec7b39ba9c158a9bd8eea9cc6deab5802c2755a53f",
      "version": 1,
      "size": 226,
      "vsize": 226,
      "locktime": 0,
      "vin": [
        {
          "txid": "67ffa06f1d75f35d74e71c310fd027a8d0c6318c2067f5ab796f8593c560107c",
          "vout": 18,
          "scriptSig": {
            "asm": "30450221008530358fd26fffb6085ceefa61d5e3d21027fa1ea3717473a4d8d22d58e9f8f002205c9183023a4a16059f9ec78c52992f586c8b4af1c87f530f1bbbce59333f1406[ALL] 0286751dad0c9fcbc38f550126b300940ceb72b6a82955f26d2a2b7af2526488a2",
            "hex": "4830450221008530358fd26fffb6085ceefa61d5e3d21027fa1ea3717473a4d8d22d58e9f8f002205c9183023a4a16059f9ec78c52992f586c8b4af1c87f530f1bbbce59333f140601210286751dad0c9fcbc38f550126b300940ceb72b6a82955f26d2a2b7af2526488a2"
          },
          "sequence": 4294967295
        }
      ],
      "vout": [
        {
          "value": 0.17131834,
          "n": 0,
          "scriptPubKey": {
            "asm": "OP_DUP OP_HASH160 6344ae02d5b75ed69cf01d046b3c4fe918cb09b2 OP_EQUALVERIFY OP_CHECKSIG",
            "hex": "76a9146344ae02d5b75ed69cf01d046b3c4fe918cb09b288ac",
            "reqSigs": 1,
            "type": "pubkeyhash",
            "addresses": [
              "LUGqS9ycKJzueyns5kd21RpYmsojYUkjSm"
            ]
          }
        }, 
        {
          "value": 0.56946000,
          "n": 1,
          "scriptPubKey": {
            "asm": "OP_DUP OP_HASH160 bc40ac3049320f68e69b5345ae9c109f797d9af1 OP_EQUALVERIFY OP_CHECKSIG",
            "hex": "76a914bc40ac3049320f68e69b5345ae9c109f797d9af188ac",
            "reqSigs": 1,
            "type": "pubkeyhash",
            "addresses": [
              "LcPLmoseXzAKuDAjEVzVssrUoovDf8ECvb"
            ]
          }
        }
      ],
      "hex": "01000000017c1060c593856f79abf567208c31c6d0a827d00f311ce7745df3751d6fa0ff67120000006b4830450221008530358fd26fffb6085ceefa61d5e3d21027fa1ea3717473a4d8d22d58e9f8f002205c9183023a4a16059f9ec78c52992f586c8b4af1c87f530f1bbbce59333f140601210286751dad0c9fcbc38f550126b300940ceb72b6a82955f26d2a2b7af2526488a2ffffffff023a690501000000001976a9146344ae02d5b75ed69cf01d046b3c4fe918cb09b288ac50ed6403000000001976a914bc40ac3049320f68e69b5345ae9c109f797d9af188ac00000000"
    }, 
    {
      "txid": "d7a051b65a2d4bf794851f5040475a6eefcaf061485882cf8c73a0f6d930de6e",
      "hash": "d7a051b65a2d4bf794851f5040475a6eefcaf061485882cf8c73a0f6d930de6e",
      "version": 2,
      "size": 226,
      "vsize": 226,
      "locktime": 1359530,
      "vin": [
        {
          "txid": "9f62b8f2764d8ab40d3249cc34e8fa74a2380765265ce4b260c5dd0c50f84d1f",
          "vout": 1,
          "scriptSig": {
            "asm": "3045022100b5735a10822d3a53e3b80ce7b2a06245c241877f15805df77abc42f1586cb23402204fbe72030acb496d597dd69c80feb3603ec016cd7a525dad1e45c5336d805bd9[ALL] 037a35a087c32de26ab16e6bb0b67e91db6c2a2a85e28902703ada5e2b721f5a61",
            "hex": "483045022100b5735a10822d3a53e3b80ce7b2a06245c241877f15805df77abc42f1586cb23402204fbe72030acb496d597dd69c80feb3603ec016cd7a525dad1e45c5336d805bd90121037a35a087c32de26ab16e6bb0b67e91db6c2a2a85e28902703ada5e2b721f5a61"
          },
          "sequence": 4294967294
        }
      ],
      "vout": [
        {
          "value": 0.41078600,
          "n": 0,
          "scriptPubKey": {
            "asm": "OP_DUP OP_HASH160 5bd7ccc950e4440da03f6d440b2de84f83702d7f OP_EQUALVERIFY OP_CHECKSIG",
            "hex": "76a9145bd7ccc950e4440da03f6d440b2de84f83702d7f88ac",
            "reqSigs": 1,
            "type": "pubkeyhash",
            "addresses": [
              "LTbaGiHwuj1yn77tNX2cCJpCi1AKztG1n1"
            ]
          }
        }, 
        {
          "value": 0.60717317,
          "n": 1,
          "scriptPubKey": {
            "asm": "OP_DUP OP_HASH160 9304e38ac24b62fa8be75e644a98e3d0d2833742 OP_EQUALVERIFY OP_CHECKSIG",
            "hex": "76a9149304e38ac24b62fa8be75e644a98e3d0d283374288ac",
            "reqSigs": 1,
            "type": "pubkeyhash",
            "addresses": [
              "LYdKT6Ri2QHcWJTrwmz6HfXMqWTMXR2aRF"
            ]
          }
        }
      ],
      "hex": "02000000011f4df8500cddc560b2e45c26650738a274fae834cc49320db48a4d76f2b8629f010000006b483045022100b5735a10822d3a53e3b80ce7b2a06245c241877f15805df77abc42f1586cb23402204fbe72030acb496d597dd69c80feb3603ec016cd7a525dad1e45c5336d805bd90121037a35a087c32de26ab16e6bb0b67e91db6c2a2a85e28902703ada5e2b721f5a61feffffff0248cf7202000000001976a9145bd7ccc950e4440da03f6d440b2de84f83702d7f88ac05799e03000000001976a9149304e38ac24b62fa8be75e644a98e3d0d283374288acaabe1400"
    }
  ],
  "time": 1517295608,
  "mediantime": 1517295266,
  "nonce": 1638494679,
  "bits": "1a042eae",
  "difficulty": 4011378.762614286,
  "chainwork": "00000000000000000000000000000000000000000000003417bc0089973195da",
  "previousblockhash": "9ad396796e5ecb523add864636d7fe0fb62e122b059269a410703646b981b962",
  "nextblockhash": "8f4f610785ea0122863e2332a0cc5942d87a3e561be2c4f760659ffe228b10cf"
}
