{
  "hash": "8dc0f1824b170e357690ec29078eb6d49b54f51bf21a290bf318ebd7334efd07",
  "confirmations": 2973,
  "strippedsize": 6235,
  "size": 6271,
  "weight": 24976,
  "height": 1358022,
  "version": 536870912,
  "versionHex": "20000000",
  "merkleroot": "4d4dd55f46a979ba2cd0eb8661548353417a18622dd619858557a75fbd51b179",
  "tx": [
    {
      "txid": "3253687d43f275c570b2624769120b30af0f8176007a89571e1f0b51b474f10b",
      "hash": "b8c3813b338ba143846829f77d8d2d2ce2041cc7f98316fc95ee0e221bf7eb72",
      "version": 1,
      "size": 236,
      "vsize": 209,
      "locktime": 0,
      "vin": [
        {
          "coinbase": "03c6b814045a6cc34a2cfabe6d6d878e6117338ef0ca49141454efcdd80e2f2ecf2e8760fefbac53d159d02e4b8d4000000000000000042f4c502f0816001b7905777e0c",
          "sequence": 4294967295
        }
      ],
      "vout": [
        {
          "value": 25.04790942,
          "n": 0,
          "scriptPubKey": {
            "asm": "OP_DUP OP_HASH160 57757ed2ecf2052ff3126c397aca7defb9ca2cec OP_EQUALVERIFY OP_CHECKSIG",
            "hex": "76a91457757ed2ecf2052ff3126c397aca7defb9ca2cec88ac",
            "reqSigs": 1,
            "type": "pubkeyhash",
            "addresses": [
              "LTCPodGk5FwcJaRzH9yKnwicxzFUbxp6tN"
            ]
          }
        }, 
        {
          "value": 0.00000000,
          "n": 1,
          "scriptPubKey": {
            "asm": "OP_RETURN aa21a9eda2e7ea62aef5786a6b8b3493322470698070e0b7352a5e4d359739028acc5bdb",
            "hex": "6a24aa21a9eda2e7ea62aef5786a6b8b3493322470698070e0b7352a5e4d359739028acc5bdb",
            "type": "nulldata"
          }
        }
      ],
      "hex": "010000000001010000000000000000000000000000000000000000000000000000000000000000ffffffff4403c6b814045a6cc34a2cfabe6d6d878e6117338ef0ca49141454efcdd80e2f2ecf2e8760fefbac53d159d02e4b8d4000000000000000042f4c502f0816001b7905777e0cffffffff029e134c95000000001976a91457757ed2ecf2052ff3126c397aca7defb9ca2cec88ac0000000000000000266a24aa21a9eda2e7ea62aef5786a6b8b3493322470698070e0b7352a5e4d359739028acc5bdb0120000000000000000000000000000000000000000000000000000000000000000000000000"
    }, 
    {
      "txid": "29b16e0b54e625eb3ddf553d12701c4c861286e827e512740bd853a88215bf07",
      "hash": "29b16e0b54e625eb3ddf553d12701c4c861286e827e512740bd853a88215bf07",
      "version": 1,
      "size": 3171,
      "vsize": 3171,
      "locktime": 0,
      "vin": [
        {
          "txid": "81c48cdbe6c931adc20d149e9fd873b238b80f5128082b42086632b9d0d522fb",
          "vout": 2,
          "scriptSig": {
            "asm": "0 3045022100ad360672c84a0dd7d1901a716c5b9c34e5a4ecc89198b7d5274fee7566e0501e02204927f76ad15299bff32e72fdc9d31fa9a3bb86192b8a6837e911f112a6986762[ALL] 304402207228fa9be39b3064226b1198081e28ae6049bee1667ebb86071db63d3bf8d46302207e5363331db3af3f50ca0085ef21ee7bbfabeb013029b5998477bf2186999a15[ALL] 522103363848ef51d5edb6c15d4be99ec44cc3e947d4a1532861b14b994e933127ae6d210216ef2f21765c3fd8e61331b2780b4e6ca72f06d84d87672ccc15d1992b7d9dad210236ff00ab5710d5cb42c477427d4128af98b3a60c02c765a125bfeb8a53a1571d53ae",
            "hex": "00483045022100ad360672c84a0dd7d1901a716c5b9c34e5a4ecc89198b7d5274fee7566e0501e02204927f76ad15299bff32e72fdc9d31fa9a3bb86192b8a6837e911f112a69867620147304402207228fa9be39b3064226b1198081e28ae6049bee1667ebb86071db63d3bf8d46302207e5363331db3af3f50ca0085ef21ee7bbfabeb013029b5998477bf2186999a15014c69522103363848ef51d5edb6c15d4be99ec44cc3e947d4a1532861b14b994e933127ae6d210216ef2f21765c3fd8e61331b2780b4e6ca72f06d84d87672ccc15d1992b7d9dad210236ff00ab5710d5cb42c477427d4128af98b3a60c02c765a125bfeb8a53a1571d53ae"
          },
          "sequence": 4294967295
        }, 
        {
          "txid": "01dd3fc3aa4644e8d9e8b0061ec78d0254c0ea5bc146ed94497a2e6468f55ca0",
          "vout": 1,
          "scriptSig": {
            "asm": "0 3044022046164df58d35eb1bc34ec83539338b09cb9d67c812984b230b99320794800eaf02201b5060e1a6eab102460932795b0671416b09a394b86767abfb865d9b30829797[ALL] 3045022100e87060146cf4420495a464718c4b48e790f5296d77216d577403058f73139f4102204152f7b9aef4946e3cd6991c06daa1c9bc88994ad5ede35344b097d7a2f369ff[ALL] 522103d745b629c1665a57d440f0ea6a75a9e7e2b98dbcc8a37a0ad2052f07d18944ed21028ab7ed5eefa463279345d52b3a03808ee238df64ebe2d6e167e4dfd9c5e5eee22103e401522d22bd10385b50e4382ca8cf93c7514c70255cfc5ca2899dbd31707e0953ae",
            "hex": "00473044022046164df58d35eb1bc34ec83539338b09cb9d67c812984b230b99320794800eaf02201b5060e1a6eab102460932795b0671416b09a394b86767abfb865d9b3082979701483045022100e87060146cf4420495a464718c4b48e790f5296d77216d577403058f73139f4102204152f7b9aef4946e3cd6991c06daa1c9bc88994ad5ede35344b097d7a2f369ff014c69522103d745b629c1665a57d440f0ea6a75a9e7e2b98dbcc8a37a0ad2052f07d18944ed21028ab7ed5eefa463279345d52b3a03808ee238df64ebe2d6e167e4dfd9c5e5eee22103e401522d22bd10385b50e4382ca8cf93c7514c70255cfc5ca2899dbd31707e0953ae"
          },
          "sequence": 4294967295
        }, 
        {
          "txid": "01dd3fc3aa4644e8d9e8b0061ec78d0254c0ea5bc146ed94497a2e6468f55ca0",
          "vout": 4,
          "scriptSig": {
            "asm": "0 3045022100ed2cb80463c1dd3ee4dc9e6aa0c79645047e4fb47a60add6e80c5354ca06afc30220731d95de0e02063d45ba05b8cdccf26d2225a48e37cadefeefb3507df7998334[ALL] 3044022048619fd4309db9f014efa641ee83c03433f2e576844e53ff98d4b28549566b7702203a3b9c46797f8dfa580008b9fa16a543e7454bb235a813f02370331c4ed22662[ALL] 5221023bc8f96a5a0b7f09fbfec0ca40240d9f6b6913a254c849fa215728b1ed2a833b21022384c022184e31179e3c388e168d9096932ebeba4633c79a169082f6f0b394572103a5926dc976e2ff094c12f4c627c3e1398b300b777cbc55b9a8c0626267d95ec653ae",
            "hex": "00483045022100ed2cb80463c1dd3ee4dc9e6aa0c79645047e4fb47a60add6e80c5354ca06afc30220731d95de0e02063d45ba05b8cdccf26d2225a48e37cadefeefb3507df799833401473044022048619fd4309db9f014efa641ee83c03433f2e576844e53ff98d4b28549566b7702203a3b9c46797f8dfa580008b9fa16a543e7454bb235a813f02370331c4ed22662014c695221023bc8f96a5a0b7f09fbfec0ca40240d9f6b6913a254c849fa215728b1ed2a833b21022384c022184e31179e3c388e168d9096932ebeba4633c79a169082f6f0b394572103a5926dc976e2ff094c12f4c627c3e1398b300b777cbc55b9a8c0626267d95ec653ae"
          },
          "sequence": 4294967295
        }, 
        {
          "txid": "4960a371f9ee8626e5bf63021fad8dc4860f67531a005568c6b685a4cf7e537d",
          "vout": 1,
          "scriptSig": {
            "asm": "0 3045022100975c792dc35b09ac98abf406a70633a384ac75819e079e2d701a851998dc129b02200acebaaeccbf06ffb3091e718dd44094eb8d04930ead5515db45e325005011b5[ALL] 3044022058773df805670a65efb4780db14390c23b7776ae74c829eca53a46198f242d40022057f5d54c12c3672158d1690a1030304338156861d6517a5b66aba43ece90311e[ALL] 5221022549d9ded49ca4b2e4a6ff46eca5b112587e949d834dfc977e6910e1a5822f892103a00cd49517c5dff5b5b6a223487d1f0986f6c680c63ed0c901809512a09912512102c8b1412173158e533f6554dff3a81d48f09b68b87a8abb2ab52ac966b67d268453ae",
            "hex": "00483045022100975c792dc35b09ac98abf406a70633a384ac75819e079e2d701a851998dc129b02200acebaaeccbf06ffb3091e718dd44094eb8d04930ead5515db45e325005011b501473044022058773df805670a65efb4780db14390c23b7776ae74c829eca53a46198f242d40022057f5d54c12c3672158d1690a1030304338156861d6517a5b66aba43ece90311e014c695221022549d9ded49ca4b2e4a6ff46eca5b112587e949d834dfc977e6910e1a5822f892103a00cd49517c5dff5b5b6a223487d1f0986f6c680c63ed0c901809512a09912512102c8b1412173158e533f6554dff3a81d48f09b68b87a8abb2ab52ac966b67d268453ae"
          },
          "sequence": 4294967295
        }, 
        {
          "txid": "db3860fc755fdc89fba7c24394a54730075d62fcfb70157990579ad6f7aa99ae",
          "vout": 3,
          "scriptSig": {
            "asm": "0 30440220025c512c0ed7d7f1bdd0b51cd1445a8891a4ec26f2e5eecc9928d8d0ee133dc5022016ec2be2772b85fda63dd770f2f5276d89b94f988b8e2996ea09d2ca01866290[ALL] 3045022100b441fa9e742de1ed3cff44340f84fae53c32d945aac1c913f788e8cfbcd613e502205d900bfd49e8f2dec16092bb074aa8022c83f82cecba3dde672011c130e1d0ca[ALL] 52210274c4c3da3a0e8120271adb5840735219e3edf696b016f44c3fabb29d46cd73172103a43ae4f0a69d1b998e484e10d67fa4343720578aa3d1c23a9b72523049301e2c210242e95dfcb909860235307eacf39a26123eb74982343a4ab3691134a884b24c7653ae",
            "hex": "004730440220025c512c0ed7d7f1bdd0b51cd1445a8891a4ec26f2e5eecc9928d8d0ee133dc5022016ec2be2772b85fda63dd770f2f5276d89b94f988b8e2996ea09d2ca0186629001483045022100b441fa9e742de1ed3cff44340f84fae53c32d945aac1c913f788e8cfbcd613e502205d900bfd49e8f2dec16092bb074aa8022c83f82cecba3dde672011c130e1d0ca014c6952210274c4c3da3a0e8120271adb5840735219e3edf696b016f44c3fabb29d46cd73172103a43ae4f0a69d1b998e484e10d67fa4343720578aa3d1c23a9b72523049301e2c210242e95dfcb909860235307eacf39a26123eb74982343a4ab3691134a884b24c7653ae"
          },
          "sequence": 4294967295
        }, 
        {
          "txid": "f42a6e6fa2f02907668edce98e7a30622179b4dc11922def513f765123cb4ffb",
          "vout": 2,
          "scriptSig": {
            "asm": "0 3043021f31ed2c25ef56c6812aec428f8eac49c88ae31f310d86a9a38397383a6464db02200f1adab7042d43428e356b60601f5c42437feb2b69b42807c8aba1222fcac42e[ALL] 3045022100d690ad62522ab4992978929ace65da1af1464714b09f596659769eb5ae1aee0002207587b860a3399309ad9409abffc3238e8a6c1bd97e8fd66eb071c12ac955f626[ALL] 522102440decac5b3bb347bc6a8e328e95aac05756f699eac5fe912f71f30ce1bb4aaf2102e3598a8e4403e94e0cf610659bc4c280e16ec54e13079c99ef0fe31148eef8012102532d3c917521d42ca3e5a698fe257edfe8894b5603712fab18fe08e9f208a62953ae",
            "hex": "00463043021f31ed2c25ef56c6812aec428f8eac49c88ae31f310d86a9a38397383a6464db02200f1adab7042d43428e356b60601f5c42437feb2b69b42807c8aba1222fcac42e01483045022100d690ad62522ab4992978929ace65da1af1464714b09f596659769eb5ae1aee0002207587b860a3399309ad9409abffc3238e8a6c1bd97e8fd66eb071c12ac955f626014c69522102440decac5b3bb347bc6a8e328e95aac05756f699eac5fe912f71f30ce1bb4aaf2102e3598a8e4403e94e0cf610659bc4c280e16ec54e13079c99ef0fe31148eef8012102532d3c917521d42ca3e5a698fe257edfe8894b5603712fab18fe08e9f208a62953ae"
          },
          "sequence": 4294967295
        }, 
        {
          "txid": "f42a6e6fa2f02907668edce98e7a30622179b4dc11922def513f765123cb4ffb",
          "vout": 1,
          "scriptSig": {
            "asm": "0 3045022100cd599647bfb547ef08d72da6eaaa1d6b7377b035c540894e272db2a4d77dd31c022077ab26fc1867131636a87e56e1c75144bb3e3c654d8ef0feb13d0e37107bbcab[ALL] 3045022100c9df5853e3ad0d38f3b0f0060be14bd7b45d3c599a849be452596b4c5cbf429e0220547047658fdd2dcd3e6ee70f9aebefac8778026804161510618ed1ea65b564d2[ALL] 522102324c871c25fbce0b49a8ac49ce6b838f2f495a73dff61495b503688946416a2121037667633260d3d2f990ff08377b6aef76788e64362e5dda1a6d17691eb07ea4d421020ae81befb0f8ab38786bb4d0cb34a8e38d458e9ddbc170b1de45f6a18172e27453ae",
            "hex": "00483045022100cd599647bfb547ef08d72da6eaaa1d6b7377b035c540894e272db2a4d77dd31c022077ab26fc1867131636a87e56e1c75144bb3e3c654d8ef0feb13d0e37107bbcab01483045022100c9df5853e3ad0d38f3b0f0060be14bd7b45d3c599a849be452596b4c5cbf429e0220547047658fdd2dcd3e6ee70f9aebefac8778026804161510618ed1ea65b564d2014c69522102324c871c25fbce0b49a8ac49ce6b838f2f495a73dff61495b503688946416a2121037667633260d3d2f990ff08377b6aef76788e64362e5dda1a6d17691eb07ea4d421020ae81befb0f8ab38786bb4d0cb34a8e38d458e9ddbc170b1de45f6a18172e27453ae"
          },
          "sequence": 4294967295
        }, 
        {
          "txid": "01dd3fc3aa4644e8d9e8b0061ec78d0254c0ea5bc146ed94497a2e6468f55ca0",
          "vout": 2,
          "scriptSig": {
            "asm": "0 3045022100e28a0f54cc227b1405e305d779c39c8ed607ff51551cbfe24b0ca11f3d1fbbc702206254b39de50ca169bc011ab599979eb359476902524847d79bbe7bd65313314d[ALL] 3044022058beeb421b8643361111c9ecd5ca3a295126c67f2edd9c7962b5c6bd59b778e002201e6c94d8b84eebe94ff115a1ac01263a18ef1ab2001189b280845ded7c73f846[ALL] 5221031577c92839bddeb7d6bf5c5e978e55e13b6b0d2ca24e6681f5feaae68ab5b5f12103c408190b30a05f7a4b71f47b34436f8a1d4ec442a3a9d6034e08de94d2e69c6d2103d6ac7fc6035366edeb2ebf7053e1165c8d8bd659dc1c19c2f0e3de53e3627b3d53ae",
            "hex": "00483045022100e28a0f54cc227b1405e305d779c39c8ed607ff51551cbfe24b0ca11f3d1fbbc702206254b39de50ca169bc011ab599979eb359476902524847d79bbe7bd65313314d01473044022058beeb421b8643361111c9ecd5ca3a295126c67f2edd9c7962b5c6bd59b778e002201e6c94d8b84eebe94ff115a1ac01263a18ef1ab2001189b280845ded7c73f846014c695221031577c92839bddeb7d6bf5c5e978e55e13b6b0d2ca24e6681f5feaae68ab5b5f12103c408190b30a05f7a4b71f47b34436f8a1d4ec442a3a9d6034e08de94d2e69c6d2103d6ac7fc6035366edeb2ebf7053e1165c8d8bd659dc1c19c2f0e3de53e3627b3d53ae"
          },
          "sequence": 4294967295
        }, 
        {
          "txid": "4960a371f9ee8626e5bf63021fad8dc4860f67531a005568c6b685a4cf7e537d",
          "vout": 2,
          "scriptSig": {
            "asm": "0 3045022100b327069f74d998e016bdcf69401755291b6edbf46448db027b6b91ed3b751d12022025d3e8ed12fda302b61f3a35f9b32c103c8d462aae7f7cfda56051a05c74688f[ALL] 304402203997cecd2aa7ac3ed4c87f25929949872a947add7d55a360e0f7a72401f2b86902203a3b3bdf1f7c0b5f94bc4e3f4c04d7dc4c926746ef184244d81331e75c7f8687[ALL] 5221028d9aa2f54ced57d86088ec6a5c5ce171933c8a4888c4f66e70b6492b572911bf2102fe6468d3daf4392538c6e9b50ed1bbd49b1b0d910dfb51ba48c45aa14d255727210385e190e85cfdcd2a715120393518cc4b8bd13f74823ed926f741562fc74a430b53ae",
            "hex": "00483045022100b327069f74d998e016bdcf69401755291b6edbf46448db027b6b91ed3b751d12022025d3e8ed12fda302b61f3a35f9b32c103c8d462aae7f7cfda56051a05c74688f0147304402203997cecd2aa7ac3ed4c87f25929949872a947add7d55a360e0f7a72401f2b86902203a3b3bdf1f7c0b5f94bc4e3f4c04d7dc4c926746ef184244d81331e75c7f8687014c695221028d9aa2f54ced57d86088ec6a5c5ce171933c8a4888c4f66e70b6492b572911bf2102fe6468d3daf4392538c6e9b50ed1bbd49b1b0d910dfb51ba48c45aa14d255727210385e190e85cfdcd2a715120393518cc4b8bd13f74823ed926f741562fc74a430b53ae"
          },
          "sequence": 4294967295
        }, 
        {
          "txid": "81c48cdbe6c931adc20d149e9fd873b238b80f5128082b42086632b9d0d522fb",
          "vout": 1,
          "scriptSig": {
            "asm": "0 304502210091852a01ee73cfe1ef825c2ece97f5f1c6ef5a2e815e7337f6ff94c353f9202d02201d02dd221f4d9d2cc6854f75f6d6386cfac8eaf37eb4d35e50db1b9bc45c242b[ALL] 3045022100893187cb7ca9f99fd7055ccef7dc53c0e82add75453f1cc0f7bdadf3fb77ea2b022019f5979c93f76457ca7b30c1a8df324e1c0101004870b14c1d91081a9a1ee5b9[ALL] 52210262659523d36c8a678783f7d6f054e3285ae1ac7f7d1876c9c13c3e3dfbaab86e21027d4ebe260f90b2b84e95a6644628ccb53d01a1ca7c8d679c082a753c21cc01322103ff663702f1a613c2ff97b084625cafb093104b5a511721093b0e25309c48643a53ae",
            "hex": "0048304502210091852a01ee73cfe1ef825c2ece97f5f1c6ef5a2e815e7337f6ff94c353f9202d02201d02dd221f4d9d2cc6854f75f6d6386cfac8eaf37eb4d35e50db1b9bc45c242b01483045022100893187cb7ca9f99fd7055ccef7dc53c0e82add75453f1cc0f7bdadf3fb77ea2b022019f5979c93f76457ca7b30c1a8df324e1c0101004870b14c1d91081a9a1ee5b9014c6952210262659523d36c8a678783f7d6f054e3285ae1ac7f7d1876c9c13c3e3dfbaab86e21027d4ebe260f90b2b84e95a6644628ccb53d01a1ca7c8d679c082a753c21cc01322103ff663702f1a613c2ff97b084625cafb093104b5a511721093b0e25309c48643a53ae"
          },
          "sequence": 4294967295
        }
      ],
      "vout": [
        {
          "value": 15.00000000,
          "n": 0,
          "scriptPubKey": {
            "asm": "OP_DUP OP_HASH160 6f1233fb853e62b1d1ce3ce8f1c7e19c992902e6 OP_EQUALVERIFY OP_CHECKSIG",
            "hex": "76a9146f1233fb853e62b1d1ce3ce8f1c7e19c992902e688ac",
            "reqSigs": 1,
            "type": "pubkeyhash",
            "addresses": [
              "LVMF5H1CftZv82Hgma2hLTQVgq53bL5gCt"
            ]
          }
        }, 
        {
          "value": 4.12250000,
          "n": 1,
          "scriptPubKey": {
            "asm": "OP_DUP OP_HASH160 9b127e1e683880722c410b99b2441f8f69ee436c OP_EQUALVERIFY OP_CHECKSIG",
            "hex": "76a9149b127e1e683880722c410b99b2441f8f69ee436c88ac",
            "reqSigs": 1,
            "type": "pubkeyhash",
            "addresses": [
              "LZMu9qbZsuExktTRg6rBVurskHKM1AvRpZ"
            ]
          }
        }, 
        {
          "value": 1.00000000,
          "n": 2,
          "scriptPubKey": {
            "asm": "OP_DUP OP_HASH160 b1914261b940d515ab1046e2610e8afb86cea0d4 OP_EQUALVERIFY OP_CHECKSIG",
            "hex": "76a914b1914261b940d515ab1046e2610e8afb86cea0d488ac",
            "reqSigs": 1,
            "type": "pubkeyhash",
            "addresses": [
              "LbQqsxet6KoWGdeSDV49koKqEGeAHWQppZ"
            ]
          }
        }, 
        {
          "value": 0.78064012,
          "n": 3,
          "scriptPubKey": {
            "asm": "OP_DUP OP_HASH160 b1cedeef82e5f8e72b7eebaee97c0ed1e2cb9fe3 OP_EQUALVERIFY OP_CHECKSIG",
            "hex": "76a914b1cedeef82e5f8e72b7eebaee97c0ed1e2cb9fe388ac",
            "reqSigs": 1,
            "type": "pubkeyhash",
            "addresses": [
              "LbS7goebkBcuQmB46vbhaxnGCL7yxHqXET"
            ]
          }
        }, 
        {
          "value": 0.09383133,
          "n": 4,
          "scriptPubKey": {
            "asm": "OP_HASH160 a8f5653e23068fa60aca17a2f806a221c4c4abad OP_EQUAL",
            "hex": "a914a8f5653e23068fa60aca17a2f806a221c4c4abad87",
            "reqSigs": 1,
            "type": "scripthash",
            "addresses": [
              "MPJXj2xNmVCbi14sut2bsUZoc9BoW9VNj1"
            ]
          }
        }, 
        {
          "value": 15.00000000,
          "n": 5,
          "scriptPubKey": {
            "asm": "OP_DUP OP_HASH160 9b127e1e683880722c410b99b2441f8f69ee436c OP_EQUALVERIFY OP_CHECKSIG",
            "hex": "76a9149b127e1e683880722c410b99b2441f8f69ee436c88ac",
            "reqSigs": 1,
            "type": "pubkeyhash",
            "addresses": [
              "LZMu9qbZsuExktTRg6rBVurskHKM1AvRpZ"
            ]
          }
        }
      ],
      "hex": "010000000afb22d5d0b9326608422b0828510fb838b273d89f9e140dc2ad31c9e6db8cc48102000000fdfd0000483045022100ad360672c84a0dd7d1901a716c5b9c34e5a4ecc89198b7d5274fee7566e0501e02204927f76ad15299bff32e72fdc9d31fa9a3bb86192b8a6837e911f112a69867620147304402207228fa9be39b3064226b1198081e28ae6049bee1667ebb86071db63d3bf8d46302207e5363331db3af3f50ca0085ef21ee7bbfabeb013029b5998477bf2186999a15014c69522103363848ef51d5edb6c15d4be99ec44cc3e947d4a1532861b14b994e933127ae6d210216ef2f21765c3fd8e61331b2780b4e6ca72f06d84d87672ccc15d1992b7d9dad210236ff00ab5710d5cb42c477427d4128af98b3a60c02c765a125bfeb8a53a1571d53aeffffffffa05cf568642e7a4994ed46c15beac054028dc71e06b0e8d9e84446aac33fdd0101000000fdfd0000473044022046164df58d35eb1bc34ec83539338b09cb9d67c812984b230b99320794800eaf02201b5060e1a6eab102460932795b0671416b09a394b86767abfb865d9b3082979701483045022100e87060146cf4420495a464718c4b48e790f5296d77216d577403058f73139f4102204152f7b9aef4946e3cd6991c06daa1c9bc88994ad5ede35344b097d7a2f369ff014c69522103d745b629c1665a57d440f0ea6a75a9e7e2b98dbcc8a37a0ad2052f07d18944ed21028ab7ed5eefa463279345d52b3a03808ee238df64ebe2d6e167e4dfd9c5e5eee22103e401522d22bd10385b50e4382ca8cf93c7514c70255cfc5ca2899dbd31707e0953aeffffffffa05cf568642e7a4994ed46c15beac054028dc71e06b0e8d9e84446aac33fdd0104000000fdfd0000483045022100ed2cb80463c1dd3ee4dc9e6aa0c79645047e4fb47a60add6e80c5354ca06afc30220731d95de0e02063d45ba05b8cdccf26d2225a48e37cadefeefb3507df799833401473044022048619fd4309db9f014efa641ee83c03433f2e576844e53ff98d4b28549566b7702203a3b9c46797f8dfa580008b9fa16a543e7454bb235a813f02370331c4ed22662014c695221023bc8f96a5a0b7f09fbfec0ca40240d9f6b6913a254c849fa215728b1ed2a833b21022384c022184e31179e3c388e168d9096932ebeba4633c79a169082f6f0b394572103a5926dc976e2ff094c12f4c627c3e1398b300b777cbc55b9a8c0626267d95ec653aeffffffff7d537ecfa485b6c66855001a53670f86c48dad1f0263bfe52686eef971a3604901000000fdfd0000483045022100975c792dc35b09ac98abf406a70633a384ac75819e079e2d701a851998dc129b02200acebaaeccbf06ffb3091e718dd44094eb8d04930ead5515db45e325005011b501473044022058773df805670a65efb4780db14390c23b7776ae74c829eca53a46198f242d40022057f5d54c12c3672158d1690a1030304338156861d6517a5b66aba43ece90311e014c695221022549d9ded49ca4b2e4a6ff46eca5b112587e949d834dfc977e6910e1a5822f892103a00cd49517c5dff5b5b6a223487d1f0986f6c680c63ed0c901809512a09912512102c8b1412173158e533f6554dff3a81d48f09b68b87a8abb2ab52ac966b67d268453aeffffffffae99aaf7d69a5790791570fbfc625d073047a59443c2a7fb89dc5f75fc6038db03000000fdfd00004730440220025c512c0ed7d7f1bdd0b51cd1445a8891a4ec26f2e5eecc9928d8d0ee133dc5022016ec2be2772b85fda63dd770f2f5276d89b94f988b8e2996ea09d2ca0186629001483045022100b441fa9e742de1ed3cff44340f84fae53c32d945aac1c913f788e8cfbcd613e502205d900bfd49e8f2dec16092bb074aa8022c83f82cecba3dde672011c130e1d0ca014c6952210274c4c3da3a0e8120271adb5840735219e3edf696b016f44c3fabb29d46cd73172103a43ae4f0a69d1b998e484e10d67fa4343720578aa3d1c23a9b72523049301e2c210242e95dfcb909860235307eacf39a26123eb74982343a4ab3691134a884b24c7653aefffffffffb4fcb2351763f51ef2d9211dcb4792162307a8ee9dc8e660729f0a26f6e2af402000000fc00463043021f31ed2c25ef56c6812aec428f8eac49c88ae31f310d86a9a38397383a6464db02200f1adab7042d43428e356b60601f5c42437feb2b69b42807c8aba1222fcac42e01483045022100d690ad62522ab4992978929ace65da1af1464714b09f596659769eb5ae1aee0002207587b860a3399309ad9409abffc3238e8a6c1bd97e8fd66eb071c12ac955f626014c69522102440decac5b3bb347bc6a8e328e95aac05756f699eac5fe912f71f30ce1bb4aaf2102e3598a8e4403e94e0cf610659bc4c280e16ec54e13079c99ef0fe31148eef8012102532d3c917521d42ca3e5a698fe257edfe8894b5603712fab18fe08e9f208a62953aefffffffffb4fcb2351763f51ef2d9211dcb4792162307a8ee9dc8e660729f0a26f6e2af401000000fdfe0000483045022100cd599647bfb547ef08d72da6eaaa1d6b7377b035c540894e272db2a4d77dd31c022077ab26fc1867131636a87e56e1c75144bb3e3c654d8ef0feb13d0e37107bbcab01483045022100c9df5853e3ad0d38f3b0f0060be14bd7b45d3c599a849be452596b4c5cbf429e0220547047658fdd2dcd3e6ee70f9aebefac8778026804161510618ed1ea65b564d2014c69522102324c871c25fbce0b49a8ac49ce6b838f2f495a73dff61495b503688946416a2121037667633260d3d2f990ff08377b6aef76788e64362e5dda1a6d17691eb07ea4d421020ae81befb0f8ab38786bb4d0cb34a8e38d458e9ddbc170b1de45f6a18172e27453aeffffffffa05cf568642e7a4994ed46c15beac054028dc71e06b0e8d9e84446aac33fdd0102000000fdfd0000483045022100e28a0f54cc227b1405e305d779c39c8ed607ff51551cbfe24b0ca11f3d1fbbc702206254b39de50ca169bc011ab599979eb359476902524847d79bbe7bd65313314d01473044022058beeb421b8643361111c9ecd5ca3a295126c67f2edd9c7962b5c6bd59b778e002201e6c94d8b84eebe94ff115a1ac01263a18ef1ab2001189b280845ded7c73f846014c695221031577c92839bddeb7d6bf5c5e978e55e13b6b0d2ca24e6681f5feaae68ab5b5f12103c408190b30a05f7a4b71f47b34436f8a1d4ec442a3a9d6034e08de94d2e69c6d2103d6ac7fc6035366edeb2ebf7053e1165c8d8bd659dc1c19c2f0e3de53e3627b3d53aeffffffff7d537ecfa485b6c66855001a53670f86c48dad1f0263bfe52686eef971a3604902000000fdfd0000483045022100b327069f74d998e016bdcf69401755291b6edbf46448db027b6b91ed3b751d12022025d3e8ed12fda302b61f3a35f9b32c103c8d462aae7f7cfda56051a05c74688f0147304402203997cecd2aa7ac3ed4c87f25929949872a947add7d55a360e0f7a72401f2b86902203a3b3bdf1f7c0b5f94bc4e3f4c04d7dc4c926746ef184244d81331e75c7f8687014c695221028d9aa2f54ced57d86088ec6a5c5ce171933c8a4888c4f66e70b6492b572911bf2102fe6468d3daf4392538c6e9b50ed1bbd49b1b0d910dfb51ba48c45aa14d255727210385e190e85cfdcd2a715120393518cc4b8bd13f74823ed926f741562fc74a430b53aefffffffffb22d5d0b9326608422b0828510fb838b273d89f9e140dc2ad31c9e6db8cc48101000000fdfe000048304502210091852a01ee73cfe1ef825c2ece97f5f1c6ef5a2e815e7337f6ff94c353f9202d02201d02dd221f4d9d2cc6854f75f6d6386cfac8eaf37eb4d35e50db1b9bc45c242b01483045022100893187cb7ca9f99fd7055ccef7dc53c0e82add75453f1cc0f7bdadf3fb77ea2b022019f5979c93f76457ca7b30c1a8df324e1c0101004870b14c1d91081a9a1ee5b9014c6952210262659523d36c8a678783f7d6f054e3285ae1ac7f7d1876c9c13c3e3dfbaab86e21027d4ebe260f90b2b84e95a6644628ccb53d01a1ca7c8d679c082a753c21cc01322103ff663702f1a613c2ff97b084625cafb093104b5a511721093b0e25309c48643a53aeffffffff06002f6859000000001976a9146f1233fb853e62b1d1ce3ce8f1c7e19c992902e688ac906f9218000000001976a9149b127e1e683880722c410b99b2441f8f69ee436c88ac00e1f505000000001976a914b1914261b940d515ab1046e2610e8afb86cea0d488ac8c29a704000000001976a914b1cedeef82e5f8e72b7eebaee97c0ed1e2cb9fe388acdd2c8f000000000017a914a8f5653e23068fa60aca17a2f806a221c4c4abad87002f6859000000001976a9149b127e1e683880722c410b99b2441f8f69ee436c88ac00000000"
    }, 
    {
      "txid": "7b539edb379632249cddf8f07cfc2cc70f119247f34d14db413d4c937710c197",
      "hash": "7b539edb379632249cddf8f07cfc2cc70f119247f34d14db413d4c937710c197",
      "version": 1,
      "size": 373,
      "vsize": 373,
      "locktime": 0,
      "vin": [
        {
          "txid": "1207cfdebbae49a561f85c89a8f7c03dfc16ccde37335f217f093645ba4b053e",
          "vout": 1,
          "scriptSig": {
            "asm": "304402207b534c8e3d136c01e5580d8f74f39c85baed7716d2577e05259cd2c1f4b2d9ac02200778019aba887c21f5220336e8c77fa71cca0642cdd3f089d79e8909a255a271[ALL] 02f2a566e5feaad46681c0caa8762f4e600519d9f578e4a3cffac870ce2248d590",
            "hex": "47304402207b534c8e3d136c01e5580d8f74f39c85baed7716d2577e05259cd2c1f4b2d9ac02200778019aba887c21f5220336e8c77fa71cca0642cdd3f089d79e8909a255a271012102f2a566e5feaad46681c0caa8762f4e600519d9f578e4a3cffac870ce2248d590"
          },
          "sequence": 4294967295
        }, 
        {
          "txid": "fc874d9bcb52ff299c27238fa84d4c640d805053bfcdbf47bc562cd0f47275be",
          "vout": 0,
          "scriptSig": {
            "asm": "3045022100df58541b7aaa01c86bea38314b5a0aac06d66d90b44c26eba715a31ca7644cc302203de25d8c54aefed13993b1fab522074f6b619cd22968d7b1332676908e171d83[ALL] 028a1cf8204f8293a44cedbb09809e642b657f0279d0ef1b90895e916a58534ba4",
            "hex": "483045022100df58541b7aaa01c86bea38314b5a0aac06d66d90b44c26eba715a31ca7644cc302203de25d8c54aefed13993b1fab522074f6b619cd22968d7b1332676908e171d830121028a1cf8204f8293a44cedbb09809e642b657f0279d0ef1b90895e916a58534ba4"
          },
          "sequence": 4294967295
        }
      ],
      "vout": [
        {
          "value": 0.20000000,
          "n": 0,
          "scriptPubKey": {
            "asm": "OP_DUP OP_HASH160 2c00b36e48546e98701a69f5417b0436422a0583 OP_EQUALVERIFY OP_CHECKSIG",
            "hex": "76a9142c00b36e48546e98701a69f5417b0436422a058388ac",
            "reqSigs": 1,
            "type": "pubkeyhash",
            "addresses": [
              "LPEcqMRtgzDrkUKmS2327eRpiJsm25NC6h"
            ]
          }
        }, 
        {
          "value": 5.11636664,
          "n": 1,
          "scriptPubKey": {
            "asm": "OP_DUP OP_HASH160 2941c3a9ede21c307ebc6f3a0723e36c7c42494a OP_EQUALVERIFY OP_CHECKSIG",
            "hex": "76a9142941c3a9ede21c307ebc6f3a0723e36c7c42494a88ac",
            "reqSigs": 1,
            "type": "pubkeyhash",
            "addresses": [
              "LNz6kTnF42RwvTeSgwt1SJynNxUGv3JzNf"
            ]
          }
        }
      ],
      "hex": "01000000023e054bba4536097f215f3337decc16fc3dc0f7a8895cf861a549aebbdecf0712010000006a47304402207b534c8e3d136c01e5580d8f74f39c85baed7716d2577e05259cd2c1f4b2d9ac02200778019aba887c21f5220336e8c77fa71cca0642cdd3f089d79e8909a255a271012102f2a566e5feaad46681c0caa8762f4e600519d9f578e4a3cffac870ce2248d590ffffffffbe7572f4d02c56bc47bfcdbf5350800d644c4da88f23279c29ff52cb9b4d87fc000000006b483045022100df58541b7aaa01c86bea38314b5a0aac06d66d90b44c26eba715a31ca7644cc302203de25d8c54aefed13993b1fab522074f6b619cd22968d7b1332676908e171d830121028a1cf8204f8293a44cedbb09809e642b657f0279d0ef1b90895e916a58534ba4ffffffff02002d3101000000001976a9142c00b36e48546e98701a69f5417b0436422a058388acb8f47e1e000000001976a9142941c3a9ede21c307ebc6f3a0723e36c7c42494a88ac00000000"
    }, 
    {
      "txid": "e23e49bd3064cd088506ff36df85b1fce48d23a9a77388fa18b61e0214522a89",
      "hash": "e23e49bd3064cd088506ff36df85b1fce48d23a9a77388fa18b61e0214522a89",
      "version": 1,
      "size": 226,
      "vsize": 226,
      "locktime": 0,
      "vin": [
        {
          "txid": "716d69f8a96ab92a5259c67d9e1949084effa94e296e0b574ca1acdfd6d03cae",
          "vout": 1,
          "scriptSig": {
            "asm": "304502210085b5472576a598d6fc83e81aa7424174892f8e27d268ba0a5959215ab2c2aeee022020120c0b6f48d7615ed38a855209e481db36c7595c3c440dd59ed7a746e1187c[ALL] 02019f436a19a839f4cbc35cdd7db45e3ad3b2795cab67fed2a9d3895e262cf973",
            "hex": "48304502210085b5472576a598d6fc83e81aa7424174892f8e27d268ba0a5959215ab2c2aeee022020120c0b6f48d7615ed38a855209e481db36c7595c3c440dd59ed7a746e1187c012102019f436a19a839f4cbc35cdd7db45e3ad3b2795cab67fed2a9d3895e262cf973"
          },
          "sequence": 4294967295
        }
      ],
      "vout": [
        {
          "value": 0.22152074,
          "n": 0,
          "scriptPubKey": {
            "asm": "OP_DUP OP_HASH160 d5c2a5449f6044cc753fc05bc3f578f1177ba82f OP_EQUALVERIFY OP_CHECKSIG",
            "hex": "76a914d5c2a5449f6044cc753fc05bc3f578f1177ba82f88ac",
            "reqSigs": 1,
            "type": "pubkeyhash",
            "addresses": [
              "LeiDNHUDzFvfoj9US8zcCY5rwtz3KQwtMj"
            ]
          }
        }, 
        {
          "value": 2.10172692,
          "n": 1,
          "scriptPubKey": {
            "asm": "OP_DUP OP_HASH160 c403b58de4f455010488b73cd84c2ed33bc12ab2 OP_EQUALVERIFY OP_CHECKSIG",
            "hex": "76a914c403b58de4f455010488b73cd84c2ed33bc12ab288ac",
            "reqSigs": 1,
            "type": "pubkeyhash",
            "addresses": [
              "Ld6P9XmQZ2tALCRgWhGcgxigpef7ndUwvK"
            ]
          }
        }
      ],
      "hex": "0100000001ae3cd0d6dfaca14c570b6e294ea9ff4e0849199e7dc659522ab96aa9f8696d71010000006b48304502210085b5472576a598d6fc83e81aa7424174892f8e27d268ba0a5959215ab2c2aeee022020120c0b6f48d7615ed38a855209e481db36c7595c3c440dd59ed7a746e1187c012102019f436a19a839f4cbc35cdd7db45e3ad3b2795cab67fed2a9d3895e262cf973ffffffff028a035201000000001976a914d5c2a5449f6044cc753fc05bc3f578f1177ba82f88ac14fb860c000000001976a914c403b58de4f455010488b73cd84c2ed33bc12ab288ac00000000"
    }, 
    {
      "txid": "04ce10f0fb2d7063f57fbec14f6e47077f3435f9e21601ab50f1096643b7f5fc",
      "hash": "04ce10f0fb2d7063f57fbec14f6e47077f3435f9e21601ab50f1096643b7f5fc",
      "version": 2,
      "size": 294,
      "vsize": 294,
      "locktime": 1358019,
      "vin": [
        {
          "txid": "5ce57af3fc27f58e64d97a976a6e5ff5a80ec494f880ed0a3010eb256357d3c6",
          "vout": 4,
          "scriptSig": {
            "asm": "3045022100a3d259fae5f315ae78aa8fccebe715852a8b6a4a92cf21fd9e2091ffd3c877ef02207351cd8123fdbf59ff05bc395dec2d3b39e1038d18b931d964f65476c9fca3e6[ALL] 02c1d17c5cad89f0ea2cdaf1a793699d1fdb5c5833f57c5129d884853f132a644e",
            "hex": "483045022100a3d259fae5f315ae78aa8fccebe715852a8b6a4a92cf21fd9e2091ffd3c877ef02207351cd8123fdbf59ff05bc395dec2d3b39e1038d18b931d964f65476c9fca3e6012102c1d17c5cad89f0ea2cdaf1a793699d1fdb5c5833f57c5129d884853f132a644e"
          },
          "sequence": 4294967294
        }
      ],
      "vout": [
        {
          "value": 0.43640000,
          "n": 0,
          "scriptPubKey": {
            "asm": "OP_DUP OP_HASH160 6c293ae862e1ae5352d8446eb722af8f321c26b5 OP_EQUALVERIFY OP_CHECKSIG",
            "hex": "76a9146c293ae862e1ae5352d8446eb722af8f321c26b588ac",
            "reqSigs": 1,
            "type": "pubkeyhash",
            "addresses": [
              "LV5rdeazuwNq47SFHnvNA65CpvdYW3Vg1v"
            ]
          }
        }, 
        {
          "value": 0.50000000,
          "n": 1,
          "scriptPubKey": {
            "asm": "OP_DUP OP_HASH160 387747a23e90e77a0b49ece1988006c87a688532 OP_EQUALVERIFY OP_CHECKSIG",
            "hex": "76a914387747a23e90e77a0b49ece1988006c87a68853288ac",
            "reqSigs": 1,
            "type": "pubkeyhash",
            "addresses": [
              "LQNWzfPSyXQGbeLifgcTYJsy4L4nmeeQEB"
            ]
          }
        }, 
        {
          "value": 0.04830000,
          "n": 2,
          "scriptPubKey": {
            "asm": "OP_DUP OP_HASH160 0dff87f84eeac4e421670a3f911a449e4d48a146 OP_EQUALVERIFY OP_CHECKSIG",
            "hex": "76a9140dff87f84eeac4e421670a3f911a449e4d48a14688ac",
            "reqSigs": 1,
            "type": "pubkeyhash",
            "addresses": [
              "LLVyAKaeUAry3Revd1ixfcicXCmUS2WT7R"
            ]
          }
        }, 
        {
          "value": 5.01345328,
          "n": 3,
          "scriptPubKey": {
            "asm": "OP_DUP OP_HASH160 23b2b38bca73b80323180df352759ff90d31bc6a OP_EQUALVERIFY OP_CHECKSIG",
            "hex": "76a91423b2b38bca73b80323180df352759ff90d31bc6a88ac",
            "reqSigs": 1,
            "type": "pubkeyhash",
            "addresses": [
              "LNUhzKCpLTH2rL7VHjmb1w2Pcn4iFznNkY"
            ]
          }
        }
      ],
      "hex": "0200000001c6d3576325eb10300aed80f894c40ea8f55f6e6a977ad9648ef527fcf37ae55c040000006b483045022100a3d259fae5f315ae78aa8fccebe715852a8b6a4a92cf21fd9e2091ffd3c877ef02207351cd8123fdbf59ff05bc395dec2d3b39e1038d18b931d964f65476c9fca3e6012102c1d17c5cad89f0ea2cdaf1a793699d1fdb5c5833f57c5129d884853f132a644efeffffff04c0e49902000000001976a9146c293ae862e1ae5352d8446eb722af8f321c26b588ac80f0fa02000000001976a914387747a23e90e77a0b49ece1988006c87a68853288ac30b34900000000001976a9140dff87f84eeac4e421670a3f911a449e4d48a14688ac30ece11d000000001976a91423b2b38bca73b80323180df352759ff90d31bc6a88acc3b81400"
    }, 
    {
      "txid": "64a0c22d3a0186241d6c3091c8f34713c72f71d90d6a8595053eb941a0bd7ad7",
      "hash": "64a0c22d3a0186241d6c3091c8f34713c72f71d90d6a8595053eb941a0bd7ad7",
      "version": 1,
      "size": 1665,
      "vsize": 1665,
      "locktime": 0,
      "vin": [
        {
          "txid": "ded65f4d997b03c0772db58fd4330fb7dedf2eec8e3e761f61401945f09944cf",
          "vout": 1850,
          "scriptSig": {
            "asm": "3045022100f9ac3decdc01052f58b14c829e59ac0c8cc64898a1cc76fba10dfcbddf0c764302201f4fce780e9397382ce626d4536827f9fd4389380294ea78faf788f8144cc607[ALL] 02d07f319d91e1d6505391e7da471d542308d766f0c2076ea22fe6f7de3261ad77",
            "hex": "483045022100f9ac3decdc01052f58b14c829e59ac0c8cc64898a1cc76fba10dfcbddf0c764302201f4fce780e9397382ce626d4536827f9fd4389380294ea78faf788f8144cc607012102d07f319d91e1d6505391e7da471d542308d766f0c2076ea22fe6f7de3261ad77"
          },
          "sequence": 4294967295
        }, 
        {
          "txid": "36bd4154d0ac9ae7bfd96fe80914f3e31be6b291c566a762dccdf1feac39703c",
          "vout": 1664,
          "scriptSig": {
            "asm": "30440220760939fe81df81fd20ef236ae20ce235dd7a06718551872b308f9a0b13cef9fd02201b0ff78a0bbb0aa8940637cefd8e72c0dbc3bac3b58cd4675f1c51fab85cf1c3[ALL] 02d07f319d91e1d6505391e7da471d542308d766f0c2076ea22fe6f7de3261ad77",
            "hex": "4730440220760939fe81df81fd20ef236ae20ce235dd7a06718551872b308f9a0b13cef9fd02201b0ff78a0bbb0aa8940637cefd8e72c0dbc3bac3b58cd4675f1c51fab85cf1c3012102d07f319d91e1d6505391e7da471d542308d766f0c2076ea22fe6f7de3261ad77"
          },
          "sequence": 4294967295
        }, 
        {
          "txid": "79679629558be552744bb10bf5ddc695abc11a1b3ffa7605085f8a691afbcb7d",
          "vout": 0,
          "scriptSig": {
            "asm": "304402207eb27a339f0ecdb4e85200a37242552120eaf218eb72a84e726dc8e2dd8f7e4302204bbe0b575db69a7299cadff0aa738d45a7ef8d4adeeafcd15f1186685d07a00b[ALL] 037888881fd4195641da5c67cd060f5ba97229122d944ce30e7542ec119bbbb837",
            "hex": "47304402207eb27a339f0ecdb4e85200a37242552120eaf218eb72a84e726dc8e2dd8f7e4302204bbe0b575db69a7299cadff0aa738d45a7ef8d4adeeafcd15f1186685d07a00b0121037888881fd4195641da5c67cd060f5ba97229122d944ce30e7542ec119bbbb837"
          },
          "sequence": 4294967295
        }, 
        {
          "txid": "b24c317e91ca1ec2ce9db07cc8a79248caac3b8b03e967419ea89f04950313ff",
          "vout": 1,
          "scriptSig": {
            "asm": "304502210080c529a78a3af6c8e58b808f85286d3b1c9084f2804ed145810a4a35a05a436a022025f59f8b4765ce2205cc931a148984bc355a7302073f7a744ad158b9c577b77b[ALL] 037888881fd4195641da5c67cd060f5ba97229122d944ce30e7542ec119bbbb837",
            "hex": "48304502210080c529a78a3af6c8e58b808f85286d3b1c9084f2804ed145810a4a35a05a436a022025f59f8b4765ce2205cc931a148984bc355a7302073f7a744ad158b9c577b77b0121037888881fd4195641da5c67cd060f5ba97229122d944ce30e7542ec119bbbb837"
          },
          "sequence": 4294967295
        }, 
        {
          "txid": "b0270c684a465ef0ee41492e2dd1ae0fcfdc88aad098c22c9e2dbee629045e8e",
          "vout": 0,
          "scriptSig": {
            "asm": "30450221009190675f88aadfaa2fa93b787354cc71220c87624c4ee627882d100caa932a53022004dee552b90d5e091b031e59a09ad6fa69c9ef62b9fa5e3d4d040a1e51a7b218[ALL] 037888881fd4195641da5c67cd060f5ba97229122d944ce30e7542ec119bbbb837",
            "hex": "4830450221009190675f88aadfaa2fa93b787354cc71220c87624c4ee627882d100caa932a53022004dee552b90d5e091b031e59a09ad6fa69c9ef62b9fa5e3d4d040a1e51a7b2180121037888881fd4195641da5c67cd060f5ba97229122d944ce30e7542ec119bbbb837"
          },
          "sequence": 4294967295
        }, 
        {
          "txid": "6379522a0b33b10980e976f27708cd7b28332d06eeda4af2f1ee852115dc65f2",
          "vout": 0,
          "scriptSig": {
            "asm": "304402203de6901e4fbb540b77fd511e70a13565485e69b58ab2db5d9cac5de3ad001e68022050c49bdf3edeeef8361b27a2e36a65bb98aa14f94394c6dba1324ba07f2cc8d9[ALL] 037888881fd4195641da5c67cd060f5ba97229122d944ce30e7542ec119bbbb837",
            "hex": "47304402203de6901e4fbb540b77fd511e70a13565485e69b58ab2db5d9cac5de3ad001e68022050c49bdf3edeeef8361b27a2e36a65bb98aa14f94394c6dba1324ba07f2cc8d90121037888881fd4195641da5c67cd060f5ba97229122d944ce30e7542ec119bbbb837"
          },
          "sequence": 4294967295
        }, 
        {
          "txid": "495205c019d748c272140cb7936d8e1ed3145e4fda1a8fe5c78dc0a2aaf0d324",
          "vout": 0,
          "scriptSig": {
            "asm": "304402206ad9b7438e51a3023fe1f73a3c775ae542dbd7961ac9a381fffeda1b8e471e12022019cfeb79fb5410973d64c24c7d58c3ebe4ee3fb247d1527c25163879e29531e6[ALL] 037888881fd4195641da5c67cd060f5ba97229122d944ce30e7542ec119bbbb837",
            "hex": "47304402206ad9b7438e51a3023fe1f73a3c775ae542dbd7961ac9a381fffeda1b8e471e12022019cfeb79fb5410973d64c24c7d58c3ebe4ee3fb247d1527c25163879e29531e60121037888881fd4195641da5c67cd060f5ba97229122d944ce30e7542ec119bbbb837"
          },
          "sequence": 4294967295
        }, 
        {
          "txid": "3e1b7888bc6ffce58c27c7fd916799c57b8a847cfd6db3633d86820afb0d1f72",
          "vout": 1,
          "scriptSig": {
            "asm": "3044022071a8ca2aa52d8f5cc189b8abac4da8209c25333184a16e9cdc513e8710cbc8050220603b1696851ddf86d1b3efeb622fbbc96939ed2e45dbd2e7de563e36593619cc[ALL] 037888881fd4195641da5c67cd060f5ba97229122d944ce30e7542ec119bbbb837",
            "hex": "473044022071a8ca2aa52d8f5cc189b8abac4da8209c25333184a16e9cdc513e8710cbc8050220603b1696851ddf86d1b3efeb622fbbc96939ed2e45dbd2e7de563e36593619cc0121037888881fd4195641da5c67cd060f5ba97229122d944ce30e7542ec119bbbb837"
          },
          "sequence": 4294967295
        }, 
        {
          "txid": "ad3eeb0aa24b318b89463f6897306477329697cfdb5771ecd51a149cf61ba08f",
          "vout": 0,
          "scriptSig": {
            "asm": "304402200b20fa561b303ed39bcb741498d0b5f2a306255722955f87a9cc69067fa3452b022075d382d440bfec607da55c84bfe995db59b4aab990d5153af5599b8f67ac4cd6[ALL] 037888881fd4195641da5c67cd060f5ba97229122d944ce30e7542ec119bbbb837",
            "hex": "47304402200b20fa561b303ed39bcb741498d0b5f2a306255722955f87a9cc69067fa3452b022075d382d440bfec607da55c84bfe995db59b4aab990d5153af5599b8f67ac4cd60121037888881fd4195641da5c67cd060f5ba97229122d944ce30e7542ec119bbbb837"
          },
          "sequence": 4294967295
        }, 
        {
          "txid": "02562dd602e9494fbb50be2bc80be069f661ed71303b8d661adabe65cf689a16",
          "vout": 0,
          "scriptSig": {
            "asm": "30440220433e989172cd46f2687cad8e3250a59e553f594cedac3ca1c95f1fbb5affe46902205facd9bcad716a25938826a06600348e4d0843c261710bb9f2455909a296b533[ALL] 037888881fd4195641da5c67cd060f5ba97229122d944ce30e7542ec119bbbb837",
            "hex": "4730440220433e989172cd46f2687cad8e3250a59e553f594cedac3ca1c95f1fbb5affe46902205facd9bcad716a25938826a06600348e4d0843c261710bb9f2455909a296b5330121037888881fd4195641da5c67cd060f5ba97229122d944ce30e7542ec119bbbb837"
          },
          "sequence": 4294967295
        }, 
        {
          "txid": "b056c0320d668eba40ebe0d132cdb9c72703b8420ca974c2b27e64e9ae4b114d",
          "vout": 0,
          "scriptSig": {
            "asm": "3045022100e296e113360b9a1840ecd661b4b604af97aba3c86dc9fe6faa6a6ce5967025770220279407ef950b30b295d6f193a1c4e7e7b2dcba1a9af1b5f5e6f121f4d7fd4fac[ALL] 037888881fd4195641da5c67cd060f5ba97229122d944ce30e7542ec119bbbb837",
            "hex": "483045022100e296e113360b9a1840ecd661b4b604af97aba3c86dc9fe6faa6a6ce5967025770220279407ef950b30b295d6f193a1c4e7e7b2dcba1a9af1b5f5e6f121f4d7fd4fac0121037888881fd4195641da5c67cd060f5ba97229122d944ce30e7542ec119bbbb837"
          },
          "sequence": 4294967295
        }
      ],
      "vout": [
        {
          "value": 41.84572662,
          "n": 0,
          "scriptPubKey": {
            "asm": "OP_DUP OP_HASH160 fbf60f5060e336c40236c857502468a59c67d4b0 OP_EQUALVERIFY OP_CHECKSIG",
            "hex": "76a914fbf60f5060e336c40236c857502468a59c67d4b088ac",
            "reqSigs": 1,
            "type": "pubkeyhash",
            "addresses": [
              "LiCCdu4jxKX1uYyfWSr3DMJ1x1di1eNQvW"
            ]
          }
        }
      ],
      "hex": "010000000bcf4499f0451940611f763e8eec2edfdeb70f33d48fb52d77c0037b994d5fd6de3a0700006b483045022100f9ac3decdc01052f58b14c829e59ac0c8cc64898a1cc76fba10dfcbddf0c764302201f4fce780e9397382ce626d4536827f9fd4389380294ea78faf788f8144cc607012102d07f319d91e1d6505391e7da471d542308d766f0c2076ea22fe6f7de3261ad77ffffffff3c7039acfef1cddc62a766c591b2e61be3f31409e86fd9bfe79aacd05441bd36800600006a4730440220760939fe81df81fd20ef236ae20ce235dd7a06718551872b308f9a0b13cef9fd02201b0ff78a0bbb0aa8940637cefd8e72c0dbc3bac3b58cd4675f1c51fab85cf1c3012102d07f319d91e1d6505391e7da471d542308d766f0c2076ea22fe6f7de3261ad77ffffffff7dcbfb1a698a5f080576fa3f1b1ac1ab95c6ddf50bb14b7452e58b5529966779000000006a47304402207eb27a339f0ecdb4e85200a37242552120eaf218eb72a84e726dc8e2dd8f7e4302204bbe0b575db69a7299cadff0aa738d45a7ef8d4adeeafcd15f1186685d07a00b0121037888881fd4195641da5c67cd060f5ba97229122d944ce30e7542ec119bbbb837ffffffffff130395049fa89e4167e9038b3bacca4892a7c87cb09dcec21eca917e314cb2010000006b48304502210080c529a78a3af6c8e58b808f85286d3b1c9084f2804ed145810a4a35a05a436a022025f59f8b4765ce2205cc931a148984bc355a7302073f7a744ad158b9c577b77b0121037888881fd4195641da5c67cd060f5ba97229122d944ce30e7542ec119bbbb837ffffffff8e5e0429e6be2d9e2cc298d0aa88dccf0faed12d2e4941eef05e464a680c27b0000000006b4830450221009190675f88aadfaa2fa93b787354cc71220c87624c4ee627882d100caa932a53022004dee552b90d5e091b031e59a09ad6fa69c9ef62b9fa5e3d4d040a1e51a7b2180121037888881fd4195641da5c67cd060f5ba97229122d944ce30e7542ec119bbbb837fffffffff265dc152185eef1f24adaee062d33287bcd0877f276e98009b1330b2a527963000000006a47304402203de6901e4fbb540b77fd511e70a13565485e69b58ab2db5d9cac5de3ad001e68022050c49bdf3edeeef8361b27a2e36a65bb98aa14f94394c6dba1324ba07f2cc8d90121037888881fd4195641da5c67cd060f5ba97229122d944ce30e7542ec119bbbb837ffffffff24d3f0aaa2c08dc7e58f1ada4f5e14d31e8e6d93b70c1472c248d719c0055249000000006a47304402206ad9b7438e51a3023fe1f73a3c775ae542dbd7961ac9a381fffeda1b8e471e12022019cfeb79fb5410973d64c24c7d58c3ebe4ee3fb247d1527c25163879e29531e60121037888881fd4195641da5c67cd060f5ba97229122d944ce30e7542ec119bbbb837ffffffff721f0dfb0a82863d63b36dfd7c848a7bc5996791fdc7278ce5fc6fbc88781b3e010000006a473044022071a8ca2aa52d8f5cc189b8abac4da8209c25333184a16e9cdc513e8710cbc8050220603b1696851ddf86d1b3efeb622fbbc96939ed2e45dbd2e7de563e36593619cc0121037888881fd4195641da5c67cd060f5ba97229122d944ce30e7542ec119bbbb837ffffffff8fa01bf69c141ad5ec7157dbcf97963277643097683f46898b314ba20aeb3ead000000006a47304402200b20fa561b303ed39bcb741498d0b5f2a306255722955f87a9cc69067fa3452b022075d382d440bfec607da55c84bfe995db59b4aab990d5153af5599b8f67ac4cd60121037888881fd4195641da5c67cd060f5ba97229122d944ce30e7542ec119bbbb837ffffffff169a68cf65beda1a668d3b3071ed61f669e00bc82bbe50bb4f49e902d62d5602000000006a4730440220433e989172cd46f2687cad8e3250a59e553f594cedac3ca1c95f1fbb5affe46902205facd9bcad716a25938826a06600348e4d0843c261710bb9f2455909a296b5330121037888881fd4195641da5c67cd060f5ba97229122d944ce30e7542ec119bbbb837ffffffff4d114baee9647eb2c274a90c42b80327c7b9cd32d1e0eb40ba8e660d32c056b0000000006b483045022100e296e113360b9a1840ecd661b4b604af97aba3c86dc9fe6faa6a6ce5967025770220279407ef950b30b295d6f193a1c4e7e7b2dcba1a9af1b5f5e6f121f4d7fd4fac0121037888881fd4195641da5c67cd060f5ba97229122d944ce30e7542ec119bbbb837ffffffff01f6826bf9000000001976a914fbf60f5060e336c40236c857502468a59c67d4b088ac00000000"
    }, 
    {
      "txid": "d372974aab06c55e94a753cb56aa6db04f5118013250fe35d4d35950021f21af",
      "hash": "d372974aab06c55e94a753cb56aa6db04f5118013250fe35d4d35950021f21af",
      "version": 1,
      "size": 225,
      "vsize": 225,
      "locktime": 0,
      "vin": [
        {
          "txid": "127b29a49379a883dad88569c41ecb8935d20e44cb32c97fc01b27203ff506fe",
          "vout": 0,
          "scriptSig": {
            "asm": "304402203b688c44cac1840cbe86ef2a51645c3e06d10a4ab03b3440f4f7f4f27eb4227902200edf76aa88472cec8d548e9fe312840943dacb61508aafb1909b970d47cae6e8[ALL] 036377321aa67be9e32bc40a7a70ed2e20bab35fc2f92a070ffd668f99fa4cbc05",
            "hex": "47304402203b688c44cac1840cbe86ef2a51645c3e06d10a4ab03b3440f4f7f4f27eb4227902200edf76aa88472cec8d548e9fe312840943dacb61508aafb1909b970d47cae6e80121036377321aa67be9e32bc40a7a70ed2e20bab35fc2f92a070ffd668f99fa4cbc05"
          },
          "sequence": 4294967295
        }
      ],
      "vout": [
        {
          "value": 0.08849509,
          "n": 0,
          "scriptPubKey": {
            "asm": "OP_DUP OP_HASH160 087661eef7f1d28b0f760d457666938859adaace OP_EQUALVERIFY OP_CHECKSIG",
            "hex": "76a914087661eef7f1d28b0f760d457666938859adaace88ac",
            "reqSigs": 1,
            "type": "pubkeyhash",
            "addresses": [
              "LKzhV7Rig3vJQFTtJoVRNahU8S16kHfkiU"
            ]
          }
        }, 
        {
          "value": 10.18648221,
          "n": 1,
          "scriptPubKey": {
            "asm": "OP_DUP OP_HASH160 5681b3beb8b9b8d73c3c431ad4789aafb5a0e2f2 OP_EQUALVERIFY OP_CHECKSIG",
            "hex": "76a9145681b3beb8b9b8d73c3c431ad4789aafb5a0e2f288ac",
            "reqSigs": 1,
            "type": "pubkeyhash",
            "addresses": [
              "LT7Mka9bFrPPi8ScYm97vvgq7HPkFkVYEP"
            ]
          }
        }
      ],
      "hex": "0100000001fe06f53f20271bc07fc932cb440ed23589cb1ec46985d8da83a87993a4297b12000000006a47304402203b688c44cac1840cbe86ef2a51645c3e06d10a4ab03b3440f4f7f4f27eb4227902200edf76aa88472cec8d548e9fe312840943dacb61508aafb1909b970d47cae6e80121036377321aa67be9e32bc40a7a70ed2e20bab35fc2f92a070ffd668f99fa4cbc05ffffffff0265088700000000001976a914087661eef7f1d28b0f760d457666938859adaace88ac9d56b73c000000001976a9145681b3beb8b9b8d73c3c431ad4789aafb5a0e2f288ac00000000"
    }
  ],
  "time": 1517077322,
  "mediantime": 1517076758,
  "nonce": 52770524,
  "bits": "1a047f14",
  "difficulty": 3731199.183374282,
  "chainwork": "000000000000000000000000000000000000000000000032bb66cedca68f7b36",
  "previousblockhash": "c43f797bbf45392928cb23b9d6f50b287d954e333825b44bfbc76ec8aceec285",
  "nextblockhash": "122796bb864cd4dd5dcba1ee66072742d7731db31ae56399721632478b1053c5"
}
