{
  "hash": "8df80768b489d2f48ecdf19d1390d499d192edbff035458fef48f34c16822eb9",
  "confirmations": 2633,
  "strippedsize": 3168,
  "size": 3204,
  "weight": 12708,
  "height": 1358362,
  "version": 536870912,
  "versionHex": "20000000",
  "merkleroot": "e2dde5daddbd35910f2c80c4c55fe8b3d66ca376f081cf757f09d57963ddff3f",
  "tx": [
    {
      "txid": "47d28f13e7fb27d9d6da793e0119285bb150367b423026cd78c7e8a036092fde",
      "hash": "105ee79d0afac96172655f957aa4ef9dc90751cae54396d386319b03f8ce2f5b",
      "version": 1,
      "size": 277,
      "vsize": 250,
      "locktime": 956985634,
      "vin": [
        {
          "coinbase": "031aba142cfabe6d6da84a90f35f845da509a1ea97aa036cc59b803b34b6fec3d7b267b4eedc3bd00e08000000f09f909f114d696e65642062792062656172636c6177000000000000000000000000000000000000000000000000000000000000000000",
          "sequence": 3
        }
      ],
      "vout": [
        {
          "value": 25.00706545,
          "n": 0,
          "scriptPubKey": {
            "asm": "OP_DUP OP_HASH160 aa3750aa18b8a0f3f0590731e1fab934856680cf OP_EQUALVERIFY OP_CHECKSIG",
            "hex": "76a914aa3750aa18b8a0f3f0590731e1fab934856680cf88ac",
            "reqSigs": 1,
            "type": "pubkeyhash",
            "addresses": [
              "LajyQBeZaBA1NkZDeY8YT5RYYVRkXMvb2T"
            ]
          }
        }, 
        {
          "value": 0.00000000,
          "n": 1,
          "scriptPubKey": {
            "asm": "OP_RETURN aa21a9edd205ecace1564a293eee0672c456a3388c29cb22920c4cd063f569f40cc10629 0000000000000000",
            "hex": "6a24aa21a9edd205ecace1564a293eee0672c456a3388c29cb22920c4cd063f569f40cc10629080000000000000000",
            "type": "nulldata"
          }
        }
      ],
      "hex": "010000000001010000000000000000000000000000000000000000000000000000000000000000ffffffff64031aba142cfabe6d6da84a90f35f845da509a1ea97aa036cc59b803b34b6fec3d7b267b4eedc3bd00e08000000f09f909f114d696e65642062792062656172636c61770000000000000000000000000000000000000000000000000000000000000000000300000002f1c00d95000000001976a914aa3750aa18b8a0f3f0590731e1fab934856680cf88ac00000000000000002f6a24aa21a9edd205ecace1564a293eee0672c456a3388c29cb22920c4cd063f569f40cc106290800000000000000000120000000000000000000000000000000000000000000000000000000000000000022710a39"
    }, 
    {
      "txid": "70d18da8365dab8816aaa479d5911866ce702a3620f4c4b3178043013e1d8838",
      "hash": "70d18da8365dab8816aaa479d5911866ce702a3620f4c4b3178043013e1d8838",
      "version": 1,
      "size": 225,
      "vsize": 225,
      "locktime": 0,
      "vin": [
        {
          "txid": "405613b4cf8a8bc74e3736cc49e4ac0adb3486e228e2447973263422a38e6212",
          "vout": 1,
          "scriptSig": {
            "asm": "304402204cf55ca3e9f5a41df9156eb137d9c34b812121bbac643edbff2f58acac2827c702206ef17f2e06fb2bb6bc441b2d3d60ab7999187df4d71859137c9dbd4a00c2fb8f[ALL] 02408065b30800b70496b060867c29481e3711267f2f0595ab9a37acf2771b9582",
            "hex": "47304402204cf55ca3e9f5a41df9156eb137d9c34b812121bbac643edbff2f58acac2827c702206ef17f2e06fb2bb6bc441b2d3d60ab7999187df4d71859137c9dbd4a00c2fb8f012102408065b30800b70496b060867c29481e3711267f2f0595ab9a37acf2771b9582"
          },
          "sequence": 4294967295
        }
      ],
      "vout": [
        {
          "value": 0.01000000,
          "n": 0,
          "scriptPubKey": {
            "asm": "OP_DUP OP_HASH160 b26524e8dd6dda9f8342b810a511344652e0e473 OP_EQUALVERIFY OP_CHECKSIG",
            "hex": "76a914b26524e8dd6dda9f8342b810a511344652e0e47388ac",
            "reqSigs": 1,
            "type": "pubkeyhash",
            "addresses": [
              "LbVDhymQYUmVApoDDjgt9BWJKjStfV99Zs"
            ]
          }
        }, 
        {
          "value": 0.00570600,
          "n": 1,
          "scriptPubKey": {
            "asm": "OP_DUP OP_HASH160 586b6b0bfe79a11af782f9f7594635ed7df2cc69 OP_EQUALVERIFY OP_CHECKSIG",
            "hex": "76a914586b6b0bfe79a11af782f9f7594635ed7df2cc6988ac",
            "reqSigs": 1,
            "type": "pubkeyhash",
            "addresses": [
              "LTHUQdxtQobvJtqrC4jSAjXRjMS7hQTqws"
            ]
          }
        }
      ],
      "hex": "010000000112628ea3223426737944e228e28634db0aace449cc36374ec78b8acfb4135640010000006a47304402204cf55ca3e9f5a41df9156eb137d9c34b812121bbac643edbff2f58acac2827c702206ef17f2e06fb2bb6bc441b2d3d60ab7999187df4d71859137c9dbd4a00c2fb8f012102408065b30800b70496b060867c29481e3711267f2f0595ab9a37acf2771b9582ffffffff0240420f00000000001976a914b26524e8dd6dda9f8342b810a511344652e0e47388ace8b40800000000001976a914586b6b0bfe79a11af782f9f7594635ed7df2cc6988ac00000000"
    }, 
    {
      "txid": "8c34631a6ffa453b17f80e1e1cb6c600aeb9e04e9c3f9f882c392cdbf3bc050e",
      "hash": "8c34631a6ffa453b17f80e1e1cb6c600aeb9e04e9c3f9f882c392cdbf3bc050e",
      "version": 1,
      "size": 225,
      "vsize": 225,
      "locktime": 0,
      "vin": [
        {
          "txid": "9a9b66036883bc6ebd9b9858f40f523b270d0c5420cad499ac6c2eb2287fe00b",
          "vout": 0,
          "scriptSig": {
            "asm": "3044022001eb84bae1f40e2a13218dd0848739e09c19cfc6b1c3beed2940ddf591bf65bc02201a3676f848a8becd2e335145eb7f3889dfcd59f74105d3a2a76f7c85b000d1ed[ALL] 034a746087d3af248688cac99acaf15023afc8597422f4695c891b2e32a03cc52d",
            "hex": "473044022001eb84bae1f40e2a13218dd0848739e09c19cfc6b1c3beed2940ddf591bf65bc02201a3676f848a8becd2e335145eb7f3889dfcd59f74105d3a2a76f7c85b000d1ed0121034a746087d3af248688cac99acaf15023afc8597422f4695c891b2e32a03cc52d"
          },
          "sequence": 4294967295
        }
      ],
      "vout": [
        {
          "value": 6.70951000,
          "n": 0,
          "scriptPubKey": {
            "asm": "OP_DUP OP_HASH160 a1848de294265a8fe7cf0cbbf6b2998de5773086 OP_EQUALVERIFY OP_CHECKSIG",
            "hex": "76a914a1848de294265a8fe7cf0cbbf6b2998de577308688ac",
            "reqSigs": 1,
            "type": "pubkeyhash",
            "addresses": [
              "LZwyr8MjQvpjGZVLJYk6L2FFVFu9uFJ2gv"
            ]
          }
        }, 
        {
          "value": 174.06887513,
          "n": 1,
          "scriptPubKey": {
            "asm": "OP_DUP OP_HASH160 934eb54728e21d5522d2c8dde25c29fb2bfbb8cc OP_EQUALVERIFY OP_CHECKSIG",
            "hex": "76a914934eb54728e21d5522d2c8dde25c29fb2bfbb8cc88ac",
            "reqSigs": 1,
            "type": "pubkeyhash",
            "addresses": [
              "LYeqt9XttcEfQuWE26WGiRwWBoYM45oJzZ"
            ]
          }
        }
      ],
      "hex": "01000000010be07f28b22e6cac99d4ca20540c0d273b520ff458989bbd6ebc836803669b9a000000006a473044022001eb84bae1f40e2a13218dd0848739e09c19cfc6b1c3beed2940ddf591bf65bc02201a3676f848a8becd2e335145eb7f3889dfcd59f74105d3a2a76f7c85b000d1ed0121034a746087d3af248688cac99acaf15023afc8597422f4695c891b2e32a03cc52dffffffff0258e6fd27000000001976a914a1848de294265a8fe7cf0cbbf6b2998de577308688ac5906880d040000001976a914934eb54728e21d5522d2c8dde25c29fb2bfbb8cc88ac00000000"
    }, 
    {
      "txid": "bcf90d37f975792377226e912047dc7e29745ae28c15d30b0a93dbfe6986709e",
      "hash": "bcf90d37f975792377226e912047dc7e29745ae28c15d30b0a93dbfe6986709e",
      "version": 1,
      "size": 374,
      "vsize": 374,
      "locktime": 0,
      "vin": [
        {
          "txid": "15bb3d184efa5a9c0bcbecb26ed520c493356fcd302bea8697ca93996ed95e6d",
          "vout": 1,
          "scriptSig": {
            "asm": "0 3044022075c162047a77c3da5933371b379db42326739f23ffe1276f8340ff369bc79b600220483924ec8f7140c572e644240ed76689f6d19440843ba49b35a5e0b242bf99a2[ALL] 3045022100e55a8c869a119fb6c7bf6dbb6c3fc7fc9071f76e6aeede0e6dbb855469ea940302204e0aa7d222a8f51ebf2b42690c94915a426430ab0aa975e102b0a63b40f7344d[ALL] 522102241b7a5f7de3d22f2aee0841004e9ccfcb0fdfdb2a3a7438840ac5a68eb49e4221036c92ab2205d7e4f6a35737b010b87747a1077e64c59050d6897c1dac257cd81b210318763666c6c6f2c2ac19376a07ee4a680aaa188ef1820784090a1e9bb3a96b7b53ae",
            "hex": "00473044022075c162047a77c3da5933371b379db42326739f23ffe1276f8340ff369bc79b600220483924ec8f7140c572e644240ed76689f6d19440843ba49b35a5e0b242bf99a201483045022100e55a8c869a119fb6c7bf6dbb6c3fc7fc9071f76e6aeede0e6dbb855469ea940302204e0aa7d222a8f51ebf2b42690c94915a426430ab0aa975e102b0a63b40f7344d014c69522102241b7a5f7de3d22f2aee0841004e9ccfcb0fdfdb2a3a7438840ac5a68eb49e4221036c92ab2205d7e4f6a35737b010b87747a1077e64c59050d6897c1dac257cd81b210318763666c6c6f2c2ac19376a07ee4a680aaa188ef1820784090a1e9bb3a96b7b53ae"
          },
          "sequence": 4294967295
        }
      ],
      "vout": [
        {
          "value": 0.08300000,
          "n": 0,
          "scriptPubKey": {
            "asm": "OP_DUP OP_HASH160 b5ed1ed1a4ae4ada54bd052dd852a05158b6e41c OP_EQUALVERIFY OP_CHECKSIG",
            "hex": "76a914b5ed1ed1a4ae4ada54bd052dd852a05158b6e41c88ac",
            "reqSigs": 1,
            "type": "pubkeyhash",
            "addresses": [
              "LbotdM7aYTxFMMoMVziq4PDMQKEMdFuD5B"
            ]
          }
        }, 
        {
          "value": 2.28200000,
          "n": 1,
          "scriptPubKey": {
            "asm": "OP_DUP OP_HASH160 63c4806e2b1955d157dc42896654874af56b38c2 OP_EQUALVERIFY OP_CHECKSIG",
            "hex": "76a91463c4806e2b1955d157dc42896654874af56b38c288ac",
            "reqSigs": 1,
            "type": "pubkeyhash",
            "addresses": [
              "LUKUZP1rE9SLQZA1JfGhvdejMt63eEAz4U"
            ]
          }
        }
      ],
      "hex": "01000000016d5ed96e9993ca9786ea2b30cd6f3593c420d56eb2eccb0b9c5afa4e183dbb1501000000fdfd0000473044022075c162047a77c3da5933371b379db42326739f23ffe1276f8340ff369bc79b600220483924ec8f7140c572e644240ed76689f6d19440843ba49b35a5e0b242bf99a201483045022100e55a8c869a119fb6c7bf6dbb6c3fc7fc9071f76e6aeede0e6dbb855469ea940302204e0aa7d222a8f51ebf2b42690c94915a426430ab0aa975e102b0a63b40f7344d014c69522102241b7a5f7de3d22f2aee0841004e9ccfcb0fdfdb2a3a7438840ac5a68eb49e4221036c92ab2205d7e4f6a35737b010b87747a1077e64c59050d6897c1dac257cd81b210318763666c6c6f2c2ac19376a07ee4a680aaa188ef1820784090a1e9bb3a96b7b53aeffffffff02e0a57e00000000001976a914b5ed1ed1a4ae4ada54bd052dd852a05158b6e41c88ac400e9a0d000000001976a91463c4806e2b1955d157dc42896654874af56b38c288ac00000000"
    }, 
    {
      "txid": "ae6a0065a31e766344c2af28d47008a4f9cf6c4318df4714c1fbc35affb387d9",
      "hash": "ae6a0065a31e766344c2af28d47008a4f9cf6c4318df4714c1fbc35affb387d9",
      "version": 1,
      "size": 375,
      "vsize": 375,
      "locktime": 0,
      "vin": [
        {
          "txid": "026a4ef062e0c9d184d30b90017deca018983450d35ce47c748a12dc3121b052",
          "vout": 1,
          "scriptSig": {
            "asm": "0 3045022100e4a2265b4b854cb2b3aea6a5968003aed2cb530431110af3ad2ade2796d8c2160220589c24cf7576d4f30b44374e9ff53972216b0a1734df59d4ef7cfacdaacf513c[ALL] 30450221008fed7ab78570c012ed617d1e3674704132ff6c6188a9267f7bd7410d1dc7d3b102201623fd7c0ada88735629caae4c4f33883921166e3fc6765e7d3418214e25751e[ALL] 522102241b7a5f7de3d22f2aee0841004e9ccfcb0fdfdb2a3a7438840ac5a68eb49e422102c14c4fc138744fa233d894d3d6682e70de12d3410c8fdb81998c05a8b1b1f0022102d3b7fdd0ae75fd71049525dd325609b6f91ae00ae8ba9b012eb81a83f74af91153ae",
            "hex": "00483045022100e4a2265b4b854cb2b3aea6a5968003aed2cb530431110af3ad2ade2796d8c2160220589c24cf7576d4f30b44374e9ff53972216b0a1734df59d4ef7cfacdaacf513c014830450221008fed7ab78570c012ed617d1e3674704132ff6c6188a9267f7bd7410d1dc7d3b102201623fd7c0ada88735629caae4c4f33883921166e3fc6765e7d3418214e25751e014c69522102241b7a5f7de3d22f2aee0841004e9ccfcb0fdfdb2a3a7438840ac5a68eb49e422102c14c4fc138744fa233d894d3d6682e70de12d3410c8fdb81998c05a8b1b1f0022102d3b7fdd0ae75fd71049525dd325609b6f91ae00ae8ba9b012eb81a83f74af91153ae"
          },
          "sequence": 4294967295
        }
      ],
      "vout": [
        {
          "value": 0.03600000,
          "n": 0,
          "scriptPubKey": {
            "asm": "OP_DUP OP_HASH160 77fa61bd6c8a46daddc613f51275a9e466bc80eb OP_EQUALVERIFY OP_CHECKSIG",
            "hex": "76a91477fa61bd6c8a46daddc613f51275a9e466bc80eb88ac",
            "reqSigs": 1,
            "type": "pubkeyhash",
            "addresses": [
              "LWALcsbCBLditpHDxm1MMRgW5e1s7FtgQi"
            ]
          }
        }, 
        {
          "value": 0.98100000,
          "n": 1,
          "scriptPubKey": {
            "asm": "OP_DUP OP_HASH160 39a5b9c114d600af0d625cf1c8df41f8675becbd OP_EQUALVERIFY OP_CHECKSIG",
            "hex": "76a91439a5b9c114d600af0d625cf1c8df41f8675becbd88ac",
            "reqSigs": 1,
            "type": "pubkeyhash",
            "addresses": [
              "LQUmJxsPptFMMnZELivXLwiabepyj9Vax4"
            ]
          }
        }
      ],
      "hex": "010000000152b02131dc128a747ce45cd350349818a0ec7d01900bd384d1c9e062f04e6a0201000000fdfe0000483045022100e4a2265b4b854cb2b3aea6a5968003aed2cb530431110af3ad2ade2796d8c2160220589c24cf7576d4f30b44374e9ff53972216b0a1734df59d4ef7cfacdaacf513c014830450221008fed7ab78570c012ed617d1e3674704132ff6c6188a9267f7bd7410d1dc7d3b102201623fd7c0ada88735629caae4c4f33883921166e3fc6765e7d3418214e25751e014c69522102241b7a5f7de3d22f2aee0841004e9ccfcb0fdfdb2a3a7438840ac5a68eb49e422102c14c4fc138744fa233d894d3d6682e70de12d3410c8fdb81998c05a8b1b1f0022102d3b7fdd0ae75fd71049525dd325609b6f91ae00ae8ba9b012eb81a83f74af91153aeffffffff0280ee3600000000001976a91477fa61bd6c8a46daddc613f51275a9e466bc80eb88ac20e3d805000000001976a91439a5b9c114d600af0d625cf1c8df41f8675becbd88ac00000000"
    }, 
    {
      "txid": "91e3db3fbfc933b6d4114612a856521088ce44716f4bb052e2d089c77d0a1325",
      "hash": "91e3db3fbfc933b6d4114612a856521088ce44716f4bb052e2d089c77d0a1325",
      "version": 2,
      "size": 225,
      "vsize": 225,
      "locktime": 1358285,
      "vin": [
        {
          "txid": "a8f8eebc45cd26dd41f8ddcf4fe2ada7996902b3eb9b286dfd4fc598cb2e7f2e",
          "vout": 1,
          "scriptSig": {
            "asm": "3044022100de48b1715285f988d95166925bc592a698400b0c66324e3f283cf75699cef4a0021f35e0b5dbcac2bc652787114f76086d2f8247b79a51f650deea1a5fffa6cf80[ALL] 037e5d62998bbb954565113c3c2faebab0e9793430b547eb177bd42e9d88a7e624",
            "hex": "473044022100de48b1715285f988d95166925bc592a698400b0c66324e3f283cf75699cef4a0021f35e0b5dbcac2bc652787114f76086d2f8247b79a51f650deea1a5fffa6cf800121037e5d62998bbb954565113c3c2faebab0e9793430b547eb177bd42e9d88a7e624"
          },
          "sequence": 4294967294
        }
      ],
      "vout": [
        {
          "value": 116.29716121,
          "n": 0,
          "scriptPubKey": {
            "asm": "OP_DUP OP_HASH160 48a45326cdae25962fac554e70373fd136a45e0f OP_EQUALVERIFY OP_CHECKSIG",
            "hex": "76a91448a45326cdae25962fac554e70373fd136a45e0f88ac",
            "reqSigs": 1,
            "type": "pubkeyhash",
            "addresses": [
              "LRr3mWhPY8krywzp6PSLFoDTT864y1DHEg"
            ]
          }
        }, 
        {
          "value": 0.21874963,
          "n": 1,
          "scriptPubKey": {
            "asm": "OP_DUP OP_HASH160 04fb2613e3d75f69f5bb56e87335a3b0cce53913 OP_EQUALVERIFY OP_CHECKSIG",
            "hex": "76a91404fb2613e3d75f69f5bb56e87335a3b0cce5391388ac",
            "reqSigs": 1,
            "type": "pubkeyhash",
            "addresses": [
              "LKgHq6oH9CNbpvXnBwRS3T24GCjf9feiNm"
            ]
          }
        }
      ],
      "hex": "02000000012e7f2ecb98c54ffd6d289bebb3026999a7ade24fcfddf841dd26cd45bceef8a8010000006a473044022100de48b1715285f988d95166925bc592a698400b0c66324e3f283cf75699cef4a0021f35e0b5dbcac2bc652787114f76086d2f8247b79a51f650deea1a5fffa6cf800121037e5d62998bbb954565113c3c2faebab0e9793430b547eb177bd42e9d88a7e624feffffff0299622fb5020000001976a91448a45326cdae25962fac554e70373fd136a45e0f88ac13c94d01000000001976a91404fb2613e3d75f69f5bb56e87335a3b0cce5391388accdb91400"
    }, 
    {
      "txid": "e4be0faa434a52d407322ba79c49b775386e28b1eded21a60dc3f80e757f9634",
      "hash": "e4be0faa434a52d407322ba79c49b775386e28b1eded21a60dc3f80e757f9634",
      "version": 2,
      "size": 225,
      "vsize": 225,
      "locktime": 1358360,
      "vin": [
        {
          "txid": "dcc32e3e27debf39ef75e83d4c6353d3d8b02a80c505746004d0964dce6a3b0e",
          "vout": 0,
          "scriptSig": {
            "asm": "304402205e3f3fede83d6990fe26b77fb6f123511d98c27cce79b481bfd0b1fe1a73096f02201bb0f13987455a68524b64acaafdf43bafe3d3b05ada102a78e9fc115323559b[ALL] 02fc990b36f4521069981ed61cbee9aba7ca72a271499852367f141159aae830f1",
            "hex": "47304402205e3f3fede83d6990fe26b77fb6f123511d98c27cce79b481bfd0b1fe1a73096f02201bb0f13987455a68524b64acaafdf43bafe3d3b05ada102a78e9fc115323559b012102fc990b36f4521069981ed61cbee9aba7ca72a271499852367f141159aae830f1"
          },
          "sequence": 4294967294
        }
      ],
      "vout": [
        {
          "value": 0.00987726,
          "n": 0,
          "scriptPubKey": {
            "asm": "OP_DUP OP_HASH160 c3e4a36292d7059a3fd3c7a52d8fad52ca633570 OP_EQUALVERIFY OP_CHECKSIG",
            "hex": "76a914c3e4a36292d7059a3fd3c7a52d8fad52ca63357088ac",
            "reqSigs": 1,
            "type": "pubkeyhash",
            "addresses": [
              "Ld5jvgX5PkWLvkHs5M86RxwxsLnLyuvBTy"
            ]
          }
        }, 
        {
          "value": 0.03940674,
          "n": 1,
          "scriptPubKey": {
            "asm": "OP_DUP OP_HASH160 ffd5b73416338890be5082442000485dde3e43aa OP_EQUALVERIFY OP_CHECKSIG",
            "hex": "76a914ffd5b73416338890be5082442000485dde3e43aa88ac",
            "reqSigs": 1,
            "type": "pubkeyhash",
            "addresses": [
              "LiYgbMQbnFccu3zje5KhSEZXKo9uxHBCVK"
            ]
          }
        }
      ],
      "hex": "02000000010e3b6ace4d96d004607405c5802ab0d8d353634c3de875ef39bfde273e2ec3dc000000006a47304402205e3f3fede83d6990fe26b77fb6f123511d98c27cce79b481bfd0b1fe1a73096f02201bb0f13987455a68524b64acaafdf43bafe3d3b05ada102a78e9fc115323559b012102fc990b36f4521069981ed61cbee9aba7ca72a271499852367f141159aae830f1feffffff024e120f00000000001976a914c3e4a36292d7059a3fd3c7a52d8fad52ca63357088ac42213c00000000001976a914ffd5b73416338890be5082442000485dde3e43aa88ac18ba1400"
    }, 
    {
      "txid": "90b32bea0520a896f201b7c89577f9b2314deee45a44ac39087322dfe2ec814d",
      "hash": "90b32bea0520a896f201b7c89577f9b2314deee45a44ac39087322dfe2ec814d",
      "version": 1,
      "size": 225,
      "vsize": 225,
      "locktime": 0,
      "vin": [
        {
          "txid": "25c0e8e322d51f63b23de3896b7bf04e566eb698d7c74512661d8d079b413daa",
          "vout": 1,
          "scriptSig": {
            "asm": "30440220524e715a573aeb94d12d1c12261bc8963f61c807fa01f5cbe82450ed420d311202201ec49b05f55d76a2bf5191c5ec6f51b8125cc3b6b6f2634e3543c57218e1973e[ALL] 0332e40bd991c453a02e5abf3dbdee18c2caa314503408e26cb9348ee4215e0627",
            "hex": "4730440220524e715a573aeb94d12d1c12261bc8963f61c807fa01f5cbe82450ed420d311202201ec49b05f55d76a2bf5191c5ec6f51b8125cc3b6b6f2634e3543c57218e1973e01210332e40bd991c453a02e5abf3dbdee18c2caa314503408e26cb9348ee4215e0627"
          },
          "sequence": 4294967295
        }
      ],
      "vout": [
        {
          "value": 0.80950196,
          "n": 0,
          "scriptPubKey": {
            "asm": "OP_DUP OP_HASH160 431dedfcd1dec37fb955da17441892fafad4378b OP_EQUALVERIFY OP_CHECKSIG",
            "hex": "76a914431dedfcd1dec37fb955da17441892fafad4378b88ac",
            "reqSigs": 1,
            "type": "pubkeyhash",
            "addresses": [
              "LRLqPcXp4eHFh2sQXQWr5gJBP7PsQPgre1"
            ]
          }
        }, 
        {
          "value": 1.23660000,
          "n": 1,
          "scriptPubKey": {
            "asm": "OP_DUP OP_HASH160 b30c8f8fbcb6f9c67f652df074b7d7d0b9d37b43 OP_EQUALVERIFY OP_CHECKSIG",
            "hex": "76a914b30c8f8fbcb6f9c67f652df074b7d7d0b9d37b4388ac",
            "reqSigs": 1,
            "type": "pubkeyhash",
            "addresses": [
              "LbYgGHjvnMVURzJft743yt7Km7rhdp3WEY"
            ]
          }
        }
      ],
      "hex": "0100000001aa3d419b078d1d661245c7d798b66e564ef07b6b89e33db2631fd522e3e8c025010000006a4730440220524e715a573aeb94d12d1c12261bc8963f61c807fa01f5cbe82450ed420d311202201ec49b05f55d76a2bf5191c5ec6f51b8125cc3b6b6f2634e3543c57218e1973e01210332e40bd991c453a02e5abf3dbdee18c2caa314503408e26cb9348ee4215e0627ffffffff02b433d304000000001976a914431dedfcd1dec37fb955da17441892fafad4378b88ace0e65e07000000001976a914b30c8f8fbcb6f9c67f652df074b7d7d0b9d37b4388ac00000000"
    }, 
    {
      "txid": "a20f4a0c5c2c4a6e98918befd55632ea7a9785eb7279f2eb959aae26b8f546e9",
      "hash": "a20f4a0c5c2c4a6e98918befd55632ea7a9785eb7279f2eb959aae26b8f546e9",
      "version": 2,
      "size": 520,
      "vsize": 520,
      "locktime": 1358360,
      "vin": [
        {
          "txid": "cf446c77a4999e571262cd0c2cde80d933717d3c9c275b9f1f393eb16726c012",
          "vout": 1,
          "scriptSig": {
            "asm": "3044022018815bdea108eef05ed363935a59989d8ab61984732a056a8feff723cde818be0220447cc3c97906846966e900d11e03bbcd28fe313a5d75c9d0b55b03e75796037d[ALL] 0296eca803d02e83106429446662f1a881128989262a691eb5182935be798200b0",
            "hex": "473044022018815bdea108eef05ed363935a59989d8ab61984732a056a8feff723cde818be0220447cc3c97906846966e900d11e03bbcd28fe313a5d75c9d0b55b03e75796037d01210296eca803d02e83106429446662f1a881128989262a691eb5182935be798200b0"
          },
          "sequence": 4294967294
        }, 
        {
          "txid": "91dc75925af6e7d8710320156a23bae9aa05d819fa47c5d4aea23d40e9282cd4",
          "vout": 6,
          "scriptSig": {
            "asm": "304402202a7669704218016498725cfb5fb3a66e20d91c49b9462622543200bc291436fd022012d9375b832677e33b33b357dc5f3cab8be95d02a03fd427fba0e8c88645dc83[ALL] 03270926031d71c050225e799c0d089f31192c81c110ec25b334bd534479f7d792",
            "hex": "47304402202a7669704218016498725cfb5fb3a66e20d91c49b9462622543200bc291436fd022012d9375b832677e33b33b357dc5f3cab8be95d02a03fd427fba0e8c88645dc83012103270926031d71c050225e799c0d089f31192c81c110ec25b334bd534479f7d792"
          },
          "sequence": 4294967294
        }, 
        {
          "txid": "4bfbecabe4304658cb1bd8edc87f3ddbc413f1905e24e5f356b82fa06cd10cf3",
          "vout": 0,
          "scriptSig": {
            "asm": "304502210096d1468473ab2214dc29ab66daa9455e59cb759e13553fde9ed35c30e2d694e902207c4a4901032b1179f308e66fb28b46b5d977dcb8d8d6ecf036c28657da510eb1[ALL] 0304e1aae75199427a0f58ae3c8e0a88594fb2f31cd1f2bd0d153874cd3c29e39a",
            "hex": "48304502210096d1468473ab2214dc29ab66daa9455e59cb759e13553fde9ed35c30e2d694e902207c4a4901032b1179f308e66fb28b46b5d977dcb8d8d6ecf036c28657da510eb101210304e1aae75199427a0f58ae3c8e0a88594fb2f31cd1f2bd0d153874cd3c29e39a"
          },
          "sequence": 4294967294
        }
      ],
      "vout": [
        {
          "value": 0.01006210,
          "n": 0,
          "scriptPubKey": {
            "asm": "OP_DUP OP_HASH160 a3890e55feb1dbf404a8acbde2b70be37d24d94f OP_EQUALVERIFY OP_CHECKSIG",
            "hex": "76a914a3890e55feb1dbf404a8acbde2b70be37d24d94f88ac",
            "reqSigs": 1,
            "type": "pubkeyhash",
            "addresses": [
              "La8ebJJgNLUKgkfpetbFVe1A46TYUuPwuN"
            ]
          }
        }, 
        {
          "value": 3.25744344,
          "n": 1,
          "scriptPubKey": {
            "asm": "OP_DUP OP_HASH160 91972e8ffcf6318710af8b34e251f198d12a58c0 OP_EQUALVERIFY OP_CHECKSIG",
            "hex": "76a91491972e8ffcf6318710af8b34e251f198d12a58c088ac",
            "reqSigs": 1,
            "type": "pubkeyhash",
            "addresses": [
              "LYVmML66ZbXRDcp3DckWS8ymb3zX8jV7ho"
            ]
          }
        }
      ],
      "hex": "020000000312c02667b13e391f9f5b279c3c7d7133d980de2c0ccd6212579e99a4776c44cf010000006a473044022018815bdea108eef05ed363935a59989d8ab61984732a056a8feff723cde818be0220447cc3c97906846966e900d11e03bbcd28fe313a5d75c9d0b55b03e75796037d01210296eca803d02e83106429446662f1a881128989262a691eb5182935be798200b0feffffffd42c28e9403da2aed4c547fa19d805aae9ba236a15200371d8e7f65a9275dc91060000006a47304402202a7669704218016498725cfb5fb3a66e20d91c49b9462622543200bc291436fd022012d9375b832677e33b33b357dc5f3cab8be95d02a03fd427fba0e8c88645dc83012103270926031d71c050225e799c0d089f31192c81c110ec25b334bd534479f7d792fefffffff30cd16ca02fb856f3e5245e90f113c4db3d7fc8edd81bcb584630e4abecfb4b000000006b48304502210096d1468473ab2214dc29ab66daa9455e59cb759e13553fde9ed35c30e2d694e902207c4a4901032b1179f308e66fb28b46b5d977dcb8d8d6ecf036c28657da510eb101210304e1aae75199427a0f58ae3c8e0a88594fb2f31cd1f2bd0d153874cd3c29e39afeffffff02825a0f00000000001976a914a3890e55feb1dbf404a8acbde2b70be37d24d94f88acd8766a13000000001976a91491972e8ffcf6318710af8b34e251f198d12a58c088ac18ba1400"
    }, 
    {
      "txid": "a545b2acbaa3a1956ae05d14591a50907820b8ad9e3f768eda41ce4ed0b8d358",
      "hash": "a545b2acbaa3a1956ae05d14591a50907820b8ad9e3f768eda41ce4ed0b8d358",
      "version": 1,
      "size": 226,
      "vsize": 226,
      "locktime": 0,
      "vin": [
        {
          "txid": "cfa843f9687dcff2df24ef2bb6f179da31d16c37739792dc42b05e8c34e87d80",
          "vout": 0,
          "scriptSig": {
            "asm": "3045022100a8f06960a1a96eb38b929c8c72187fb925b3baf72c7b67aabb70501beb382e6002206adaf26d0b8b348c995d7cd2dcdc17fcd33831e07638ace700497b4b3ad8f65a[ALL] 037bea7566cdaf9a2abb614df208ee630903b09881d80fba72cf0a12994a22b246",
            "hex": "483045022100a8f06960a1a96eb38b929c8c72187fb925b3baf72c7b67aabb70501beb382e6002206adaf26d0b8b348c995d7cd2dcdc17fcd33831e07638ace700497b4b3ad8f65a0121037bea7566cdaf9a2abb614df208ee630903b09881d80fba72cf0a12994a22b246"
          },
          "sequence": 4294967295
        }
      ],
      "vout": [
        {
          "value": 0.33981990,
          "n": 0,
          "scriptPubKey": {
            "asm": "OP_DUP OP_HASH160 114798370af923935e3e8327970d9041d48345d2 OP_EQUALVERIFY OP_CHECKSIG",
            "hex": "76a914114798370af923935e3e8327970d9041d48345d288ac",
            "reqSigs": 1,
            "type": "pubkeyhash",
            "addresses": [
              "LLoKWxFe43htndcVaT6Z2hSpZvK7aknfNF"
            ]
          }
        }, 
        {
          "value": 1.75352903,
          "n": 1,
          "scriptPubKey": {
            "asm": "OP_DUP OP_HASH160 33871a5c7719bbb9848c439d9f3d29f562778420 OP_EQUALVERIFY OP_CHECKSIG",
            "hex": "76a91433871a5c7719bbb9848c439d9f3d29f56277842088ac",
            "reqSigs": 1,
            "type": "pubkeyhash",
            "addresses": [
              "LPvQa7esouGpz7okNh2Y5ETNFNjbuHZxZG"
            ]
          }
        }
      ],
      "hex": "0100000001807de8348c5eb042dc929773376cd131da79f1b62bef24dff2cf7d68f943a8cf000000006b483045022100a8f06960a1a96eb38b929c8c72187fb925b3baf72c7b67aabb70501beb382e6002206adaf26d0b8b348c995d7cd2dcdc17fcd33831e07638ace700497b4b3ad8f65a0121037bea7566cdaf9a2abb614df208ee630903b09881d80fba72cf0a12994a22b246ffffffff0226860602000000001976a914114798370af923935e3e8327970d9041d48345d288ac47ac730a000000001976a91433871a5c7719bbb9848c439d9f3d29f56277842088ac00000000"
    }, 
    {
      "txid": "9fc47cf663108760f3935ff39b3cd046de6cb85d82702f95d332fb2ea6371882",
      "hash": "9fc47cf663108760f3935ff39b3cd046de6cb85d82702f95d332fb2ea6371882",
      "version": 2,
      "size": 226,
      "vsize": 226,
      "locktime": 1358360,
      "vin": [
        {
          "txid": "8118f94ab2da0fa292e49bd36306ef04c298b99cf3112199d35c15f2556722c1",
          "vout": 0,
          "scriptSig": {
            "asm": "3045022100a32ab1f91e574f64c6404bc9ede68537ee5754ca7616456eb7ce729f6e67d7450220624221ba979796777738e7fc163418d026a212d631da6bd627e174e1008b9b6d[ALL] 0267a9ce3099ff5e1d41a3e651e4d2b3e5e159bc977012e3d8c936973d6af12978",
            "hex": "483045022100a32ab1f91e574f64c6404bc9ede68537ee5754ca7616456eb7ce729f6e67d7450220624221ba979796777738e7fc163418d026a212d631da6bd627e174e1008b9b6d01210267a9ce3099ff5e1d41a3e651e4d2b3e5e159bc977012e3d8c936973d6af12978"
          },
          "sequence": 4294967294
        }
      ],
      "vout": [
        {
          "value": 0.14141304,
          "n": 0,
          "scriptPubKey": {
            "asm": "OP_DUP OP_HASH160 f779c8f29629ef656796d648ecf108d0da3285f0 OP_EQUALVERIFY OP_CHECKSIG",
            "hex": "76a914f779c8f29629ef656796d648ecf108d0da3285f088ac",
            "reqSigs": 1,
            "type": "pubkeyhash",
            "addresses": [
              "LhnV4Mwi5rBrTTYERAYRgmDgBptJJE4H2G"
            ]
          }
        }, 
        {
          "value": 131.15581607,
          "n": 1,
          "scriptPubKey": {
            "asm": "OP_DUP OP_HASH160 cd1aa971746229168059875c111e7b2094ee69ce OP_EQUALVERIFY OP_CHECKSIG",
            "hex": "76a914cd1aa971746229168059875c111e7b2094ee69ce88ac",
            "reqSigs": 1,
            "type": "pubkeyhash",
            "addresses": [
              "LdvSj3CKY1XTYLyzT31eBtVYxEZs8uD85e"
            ]
          }
        }
      ],
      "hex": "0200000001c1226755f2155cd3992111f39cb998c204ef0663d39be492a20fdab24af91881000000006b483045022100a32ab1f91e574f64c6404bc9ede68537ee5754ca7616456eb7ce729f6e67d7450220624221ba979796777738e7fc163418d026a212d631da6bd627e174e1008b9b6d01210267a9ce3099ff5e1d41a3e651e4d2b3e5e159bc977012e3d8c936973d6af12978feffffff0278c7d700000000001976a914f779c8f29629ef656796d648ecf108d0da3285f088aca7e4bf0d030000001976a914cd1aa971746229168059875c111e7b2094ee69ce88ac18ba1400"
    }
  ],
  "time": 1517132070,
  "mediantime": 1517131434,
  "nonce": 64613908,
  "bits": "1a047f14",
  "difficulty": 3731199.183374282,
  "chainwork": "00000000000000000000000000000000000000000000003307048564b5fd4dbe",
  "previousblockhash": "6216068c1ce5e805d6715d5968057270ff2c352b026b9539e830599b072387b7",
  "nextblockhash": "ffd1580660c225044ba2e70b44b3c55c14e98cc22ec5f1a099a5689ea767ec19"
}
