{
  "hash": "8e44c7fbd24b344e7088945351c1f677dbb1f1adf6dbe69d445e59e9d88f25ce",
  "confirmations": 901,
  "strippedsize": 254,
  "size": 254,
  "weight": 1016,
  "height": 1360093,
  "version": 536870912,
  "versionHex": "20000000",
  "merkleroot": "a4ee714714436327776a757613e2c1080eb58a198d1ddb9aa2914c05e1926bbe",
  "tx": [
    {
      "txid": "a4ee714714436327776a757613e2c1080eb58a198d1ddb9aa2914c05e1926bbe",
      "hash": "a4ee714714436327776a757613e2c1080eb58a198d1ddb9aa2914c05e1926bbe",
      "version": 1,
      "size": 173,
      "vsize": 173,
      "locktime": 0,
      "vin": [
        {
          "coinbase": "03ddc0141b4d696e656420627920416e74506f6f6c20626a312045205a71454afabe6d6df7e5cad541ca4c3d1f21b3ec720e984b1de23830ea017efaf184049e967bd7b40400000000000000b8190000000000001f000000",
          "sequence": 4294967295
        }
      ],
      "vout": [
        {
          "value": 25.00000000,
          "n": 0,
          "scriptPubKey": {
            "asm": "OP_DUP OP_HASH160 0ff3ccc5e8be88afe24b5d634e5852d474dbdff1 OP_EQUALVERIFY OP_CHECKSIG",
            "hex": "76a9140ff3ccc5e8be88afe24b5d634e5852d474dbdff188ac",
            "reqSigs": 1,
            "type": "pubkeyhash",
            "addresses": [
              "LLgJTbzZMsRTCUF1NtvvL9SR1a4pVieW89"
            ]
          }
        }
      ],
      "hex": "01000000010000000000000000000000000000000000000000000000000000000000000000ffffffff5803ddc0141b4d696e656420627920416e74506f6f6c20626a312045205a71454afabe6d6df7e5cad541ca4c3d1f21b3ec720e984b1de23830ea017efaf184049e967bd7b40400000000000000b8190000000000001f000000ffffffff0100f90295000000001976a9140ff3ccc5e8be88afe24b5d634e5852d474dbdff188ac00000000"
    }
  ],
  "time": 1517372746,
  "mediantime": 1517372505,
  "nonce": 1145066683,
  "bits": "1a042eae",
  "difficulty": 4011378.762614286,
  "chainwork": "0000000000000000000000000000000000000000000000349ddea72a116f0bbc",
  "previousblockhash": "7307e3c65eb33d796d2af319ab801beae0177cf747011d9da8ce61e6aed16749",
  "nextblockhash": "3928466835b2aa58ea63ad0a0ba928cbc38c4c0bf7c5a7ec89eb363e5a00b304"
}
