{
  "hash": "8e55d3bede0cf415483b4e7e9ba180fd9e13c3b5b6ec997886a235876d9e6399",
  "confirmations": 1738,
  "strippedsize": 4482,
  "size": 4628,
  "weight": 18074,
  "height": 1359256,
  "version": 536870912,
  "versionHex": "20000000",
  "merkleroot": "d21b93f2af2f508de396863a066446cf8dde8ce762999bcf37544b9182452118",
  "tx": [
    {
      "txid": "d10c9069d052fc48ef0538b98b97753faada922126b0a57af33237349c8d9eac",
      "hash": "77ee83cd37f03409f32b86b8cc8bc4ac5d9739ffa33a3d678b518f4f31284716",
      "version": 1,
      "size": 277,
      "vsize": 250,
      "locktime": 950956555,
      "vin": [
        {
          "coinbase": "0398bd142cfabe6d6dfdda23f1144ac888f04724707b4419bef7be4d8ec715d7b8e4e08f73c68ce2e408000000f09f909f0e4d696e6564206279206d61727479000000000000000000000000000000000000000000000000000000000000000000000000",
          "sequence": 1
        }
      ],
      "vout": [
        {
          "value": 25.02121900,
          "n": 0,
          "scriptPubKey": {
            "asm": "OP_DUP OP_HASH160 aa3750aa18b8a0f3f0590731e1fab934856680cf OP_EQUALVERIFY OP_CHECKSIG",
            "hex": "76a914aa3750aa18b8a0f3f0590731e1fab934856680cf88ac",
            "reqSigs": 1,
            "type": "pubkeyhash",
            "addresses": [
              "LajyQBeZaBA1NkZDeY8YT5RYYVRkXMvb2T"
            ]
          }
        }, 
        {
          "value": 0.00000000,
          "n": 1,
          "scriptPubKey": {
            "asm": "OP_RETURN aa21a9ed78746e4d77b20c1af6cd825d20348922592c35b55193e9b90487cec0d9695575 0000000000000000",
            "hex": "6a24aa21a9ed78746e4d77b20c1af6cd825d20348922592c35b55193e9b90487cec0d9695575080000000000000000",
            "type": "nulldata"
          }
        }
      ],
      "hex": "010000000001010000000000000000000000000000000000000000000000000000000000000000ffffffff640398bd142cfabe6d6dfdda23f1144ac888f04724707b4419bef7be4d8ec715d7b8e4e08f73c68ce2e408000000f09f909f0e4d696e6564206279206d617274790000000000000000000000000000000000000000000000000000000000000000000000000100000002ac592395000000001976a914aa3750aa18b8a0f3f0590731e1fab934856680cf88ac00000000000000002f6a24aa21a9ed78746e4d77b20c1af6cd825d20348922592c35b55193e9b90487cec0d9695575080000000000000000012000000000000000000000000000000000000000000000000000000000000000000b72ae38"
    }, 
    {
      "txid": "a492ee787e05f8de00fe9282fa3bda92bbfef413089a8fff19b7bf5497058c7a",
      "hash": "a492ee787e05f8de00fe9282fa3bda92bbfef413089a8fff19b7bf5497058c7a",
      "version": 1,
      "size": 522,
      "vsize": 522,
      "locktime": 1359254,
      "vin": [
        {
          "txid": "5cd0f74f6e45e209fdcce75502e1b505a7674ef6ec6ba515c61975c66313b9a8",
          "vout": 0,
          "scriptSig": {
            "asm": "3045022100ce37096b236bb37df0deb5332a3ad758a1e3112d14a9829bef2a10e6c0a64da8022034a9120f22a9d6c65e783b384aa6cbf131c7dcc475b7e782bca85f4df0ae5e83[ALL] 02f975c280b8a60c5aab6f6161fc5818b3eefa41ed97e116a9b1931f582750ed19",
            "hex": "483045022100ce37096b236bb37df0deb5332a3ad758a1e3112d14a9829bef2a10e6c0a64da8022034a9120f22a9d6c65e783b384aa6cbf131c7dcc475b7e782bca85f4df0ae5e83012102f975c280b8a60c5aab6f6161fc5818b3eefa41ed97e116a9b1931f582750ed19"
          },
          "sequence": 4294967294
        }, 
        {
          "txid": "fbdd1f88a8081aada64a740657b6c4c551b3164780885804dba0979f08ccb909",
          "vout": 1,
          "scriptSig": {
            "asm": "3045022100ab2629c58cbb2c9253dab2b2a9d94e13812a3371de4f972bc614f7aabdc465ed02202f7951ce9ff9faff058958bfad66ff6fba8b583f33450eed78196f0dd16d197c[ALL] 03c61e021e0306669d195091c4b674116e077f500c214692f88bf94aa21f2fcd60",
            "hex": "483045022100ab2629c58cbb2c9253dab2b2a9d94e13812a3371de4f972bc614f7aabdc465ed02202f7951ce9ff9faff058958bfad66ff6fba8b583f33450eed78196f0dd16d197c012103c61e021e0306669d195091c4b674116e077f500c214692f88bf94aa21f2fcd60"
          },
          "sequence": 4294967294
        }, 
        {
          "txid": "f7ba6e8a4da9607516252debc00a2362e5dcacc2f6a2a2cb126e3cd11551abc5",
          "vout": 0,
          "scriptSig": {
            "asm": "30450221009fa5f79ae19a46571ca2e0156b5b662d8885b4da3d431e266f2cf7437ee118d9022008ff57987c35684be3f990dc605d63a068d3f27e83c2a3f9cb7b35734f71129a[ALL] 02a35cf7e74810cd2e07f716042318003755d60641d0f58958ae405f862f8b8d50",
            "hex": "4830450221009fa5f79ae19a46571ca2e0156b5b662d8885b4da3d431e266f2cf7437ee118d9022008ff57987c35684be3f990dc605d63a068d3f27e83c2a3f9cb7b35734f71129a012102a35cf7e74810cd2e07f716042318003755d60641d0f58958ae405f862f8b8d50"
          },
          "sequence": 4294967294
        }
      ],
      "vout": [
        {
          "value": 19.46033429,
          "n": 0,
          "scriptPubKey": {
            "asm": "OP_DUP OP_HASH160 a74f8491a6bad12a02e35d62b2521d95da6f23d5 OP_EQUALVERIFY OP_CHECKSIG",
            "hex": "76a914a74f8491a6bad12a02e35d62b2521d95da6f23d588ac",
            "reqSigs": 1,
            "type": "pubkeyhash",
            "addresses": [
              "LaUcNFCS7dSHZiQXBLvggJdqvMiD6K7odS"
            ]
          }
        }, 
        {
          "value": 0.14317171,
          "n": 1,
          "scriptPubKey": {
            "asm": "OP_DUP OP_HASH160 f2bfd8d9b78f0f231b34bd8065f6fb31b3d729d8 OP_EQUALVERIFY OP_CHECKSIG",
            "hex": "76a914f2bfd8d9b78f0f231b34bd8065f6fb31b3d729d888ac",
            "reqSigs": 1,
            "type": "pubkeyhash",
            "addresses": [
              "LhMVcQQ5uP7TZBU52xj9x8iaTUSaV4TXHF"
            ]
          }
        }
      ],
      "hex": "0100000003a8b91363c67519c615a56becf64e67a705b5e10255e7ccfd09e2456e4ff7d05c000000006b483045022100ce37096b236bb37df0deb5332a3ad758a1e3112d14a9829bef2a10e6c0a64da8022034a9120f22a9d6c65e783b384aa6cbf131c7dcc475b7e782bca85f4df0ae5e83012102f975c280b8a60c5aab6f6161fc5818b3eefa41ed97e116a9b1931f582750ed19feffffff09b9cc089f97a0db045888804716b351c5c4b65706744aa6ad1a08a8881fddfb010000006b483045022100ab2629c58cbb2c9253dab2b2a9d94e13812a3371de4f972bc614f7aabdc465ed02202f7951ce9ff9faff058958bfad66ff6fba8b583f33450eed78196f0dd16d197c012103c61e021e0306669d195091c4b674116e077f500c214692f88bf94aa21f2fcd60feffffffc5ab5115d13c6e12cba2a2f6c2acdce562230ac0eb2d25167560a94d8a6ebaf7000000006b4830450221009fa5f79ae19a46571ca2e0156b5b662d8885b4da3d431e266f2cf7437ee118d9022008ff57987c35684be3f990dc605d63a068d3f27e83c2a3f9cb7b35734f71129a012102a35cf7e74810cd2e07f716042318003755d60641d0f58958ae405f862f8b8d50feffffff02151dfe73000000001976a914a74f8491a6bad12a02e35d62b2521d95da6f23d588ac7376da00000000001976a914f2bfd8d9b78f0f231b34bd8065f6fb31b3d729d888ac96bd1400"
    }, 
    {
      "txid": "db4ce4236501c2b4c6648863c7ca623a0ef70d485950e8fe777a30995224bdb8",
      "hash": "db4ce4236501c2b4c6648863c7ca623a0ef70d485950e8fe777a30995224bdb8",
      "version": 2,
      "size": 374,
      "vsize": 374,
      "locktime": 1359254,
      "vin": [
        {
          "txid": "1ccc59b5aa53f512cef717f20be3e62b1a8d8fb95072c067452f6979d4f3b9e0",
          "vout": 1,
          "scriptSig": {
            "asm": "30450221009e3213eeddd8c36e919f70198dbfb2d81e1e435c70c604e4b52f30d2d257fbe60220411814d433e1bed0313e932b2eaf4c812681752b530ba22016d9e58eced2ceb5[ALL] 02202973d9ea0c38897e0e04a392f494e89d9fb8b124eb7943f027c41e42f08acd",
            "hex": "4830450221009e3213eeddd8c36e919f70198dbfb2d81e1e435c70c604e4b52f30d2d257fbe60220411814d433e1bed0313e932b2eaf4c812681752b530ba22016d9e58eced2ceb5012102202973d9ea0c38897e0e04a392f494e89d9fb8b124eb7943f027c41e42f08acd"
          },
          "sequence": 4294967294
        }, 
        {
          "txid": "1049c1ce32c28df7f19eea3c9930ccf61fe653113f695bef0d5ee1b7a20652f7",
          "vout": 0,
          "scriptSig": {
            "asm": "3045022100daff5d98ed0f15279676bf4c4565b2204cea1595cf15afcb1cbe03f26d62b2a40220253f0be6ddf68dfa0c0181f155791ff99a51b7438b64137b2addba357b12c69e[ALL] 03a6d0bdbb6e99ab3d0e3027b87fd2d43a2da1dd412efdb0c6723051658cc7d8c4",
            "hex": "483045022100daff5d98ed0f15279676bf4c4565b2204cea1595cf15afcb1cbe03f26d62b2a40220253f0be6ddf68dfa0c0181f155791ff99a51b7438b64137b2addba357b12c69e012103a6d0bdbb6e99ab3d0e3027b87fd2d43a2da1dd412efdb0c6723051658cc7d8c4"
          },
          "sequence": 4294967294
        }
      ],
      "vout": [
        {
          "value": 1.00000000,
          "n": 0,
          "scriptPubKey": {
            "asm": "OP_DUP OP_HASH160 7fb13bdbbd36d0f3800cc6efc9f1f0be75600dc1 OP_EQUALVERIFY OP_CHECKSIG",
            "hex": "76a9147fb13bdbbd36d0f3800cc6efc9f1f0be75600dc188ac",
            "reqSigs": 1,
            "type": "pubkeyhash",
            "addresses": [
              "LWs8Pzo9pPRWpMBqV3tEZszS7oPwmCZE5g"
            ]
          }
        }, 
        {
          "value": 0.00568580,
          "n": 1,
          "scriptPubKey": {
            "asm": "OP_DUP OP_HASH160 300c9ffccceaeaa9fb198053ca1a3a5729d363c0 OP_EQUALVERIFY OP_CHECKSIG",
            "hex": "76a914300c9ffccceaeaa9fb198053ca1a3a5729d363c088ac",
            "reqSigs": 1,
            "type": "pubkeyhash",
            "addresses": [
              "LPc1pcnjTjc7nUjX5qKvQqfp5azkPFUr6Y"
            ]
          }
        }
      ],
      "hex": "0200000002e0b9f3d479692f4567c07250b98f8d1a2be6e30bf217f7ce12f553aab559cc1c010000006b4830450221009e3213eeddd8c36e919f70198dbfb2d81e1e435c70c604e4b52f30d2d257fbe60220411814d433e1bed0313e932b2eaf4c812681752b530ba22016d9e58eced2ceb5012102202973d9ea0c38897e0e04a392f494e89d9fb8b124eb7943f027c41e42f08acdfefffffff75206a2b7e15e0def5b693f1153e61ff6cc30993cea9ef1f78dc232cec14910000000006b483045022100daff5d98ed0f15279676bf4c4565b2204cea1595cf15afcb1cbe03f26d62b2a40220253f0be6ddf68dfa0c0181f155791ff99a51b7438b64137b2addba357b12c69e012103a6d0bdbb6e99ab3d0e3027b87fd2d43a2da1dd412efdb0c6723051658cc7d8c4feffffff0200e1f505000000001976a9147fb13bdbbd36d0f3800cc6efc9f1f0be75600dc188ac04ad0800000000001976a914300c9ffccceaeaa9fb198053ca1a3a5729d363c088ac96bd1400"
    }, 
    {
      "txid": "d6a33fea5eb1088fd9f9d0f41b72be15b3e322f5ea952a1db51024b1aadbb7ee",
      "hash": "eaf4728386dbf8c2f0462974177cbbb86fa8edf4ea31634c148d4271d915af6a",
      "version": 1,
      "size": 218,
      "vsize": 136,
      "locktime": 0,
      "vin": [
        {
          "txid": "1c7b41220e8576565340e44777a4aaf63a9a65e64079931d67189791d05bfc4a",
          "vout": 0,
          "scriptSig": {
            "asm": "001439aa94662cd7b90e9c90cce160ad23717c8bda96",
            "hex": "16001439aa94662cd7b90e9c90cce160ad23717c8bda96"
          },
          "txinwitness": [
            "30450221009ff92e996d76e1dc78abaf50227544a336e305306e808352243677f1ac711fb4022028fc6fb84c42a5d75ead26b561c1b41bfbd9750d80960fc4e68c1aedc349007801", 
            "020f2c80d6192cac080ab1ad229811f4287e57d28d7b15e250bd0faf3742d22396"
          ],
          "sequence": 4294967295
        }
      ],
      "vout": [
        {
          "value": 0.99955000,
          "n": 0,
          "scriptPubKey": {
            "asm": "OP_DUP OP_HASH160 18b255195eb5cc8ebc59bc8777f642191a6683a9 OP_EQUALVERIFY OP_CHECKSIG",
            "hex": "76a91418b255195eb5cc8ebc59bc8777f642191a6683a988ac",
            "reqSigs": 1,
            "type": "pubkeyhash",
            "addresses": [
              "LMUY7a3jjMP3EMhq99Us52v5kMmMuW16b8"
            ]
          }
        }
      ],
      "hex": "010000000001014afc5bd0919718671d937940e6659a3af6aaa47747e440535676850e22417b1c000000001716001439aa94662cd7b90e9c90cce160ad23717c8bda96ffffffff013831f505000000001976a91418b255195eb5cc8ebc59bc8777f642191a6683a988ac024830450221009ff92e996d76e1dc78abaf50227544a336e305306e808352243677f1ac711fb4022028fc6fb84c42a5d75ead26b561c1b41bfbd9750d80960fc4e68c1aedc34900780121020f2c80d6192cac080ab1ad229811f4287e57d28d7b15e250bd0faf3742d2239600000000"
    }, 
    {
      "txid": "b04d850ff8aaa6646f99ea4c58b6f90f188ca177cc9f583758d9896559c6f020",
      "hash": "b04d850ff8aaa6646f99ea4c58b6f90f188ca177cc9f583758d9896559c6f020",
      "version": 1,
      "size": 225,
      "vsize": 225,
      "locktime": 0,
      "vin": [
        {
          "txid": "b028ba6001a304bcc14b8b8dc58da64fb5e8a0ec39cd437cac68a43ba0636e5d",
          "vout": 0,
          "scriptSig": {
            "asm": "3044022024e0429e1106e2af2fd265d534fa6c63a327b3d6ed99c9b61a9e38808ee9e25202207589c208232500f5cf24dc63ae0439df2f3ad6ee62da1a822957c43d34ee91a7[ALL] 03c2df97680f76acb4fb409cbf772684ebefbe66f3be2cdbf392b00c8908fc8e48",
            "hex": "473044022024e0429e1106e2af2fd265d534fa6c63a327b3d6ed99c9b61a9e38808ee9e25202207589c208232500f5cf24dc63ae0439df2f3ad6ee62da1a822957c43d34ee91a7012103c2df97680f76acb4fb409cbf772684ebefbe66f3be2cdbf392b00c8908fc8e48"
          },
          "sequence": 4294967295
        }
      ],
      "vout": [
        {
          "value": 3.23070878,
          "n": 0,
          "scriptPubKey": {
            "asm": "OP_DUP OP_HASH160 63f93d879a6bce743090399b1ef78a65c579efb0 OP_EQUALVERIFY OP_CHECKSIG",
            "hex": "76a91463f93d879a6bce743090399b1ef78a65c579efb088ac",
            "reqSigs": 1,
            "type": "pubkeyhash",
            "addresses": [
              "LULZjj97aM8uPCB96NANUtbgHoW2dXDGqW"
            ]
          }
        }, 
        {
          "value": 37.21355320,
          "n": 1,
          "scriptPubKey": {
            "asm": "OP_DUP OP_HASH160 99ffa3b70a84767ada4344f375575e8e9cc277be OP_EQUALVERIFY OP_CHECKSIG",
            "hex": "76a91499ffa3b70a84767ada4344f375575e8e9cc277be88ac",
            "reqSigs": 1,
            "type": "pubkeyhash",
            "addresses": [
              "LZGDti154abDrePHBNFrUxPg9y5Pni8R4j"
            ]
          }
        }
      ],
      "hex": "01000000015d6e63a03ba468ac7c43cd39eca0e8b54fa68dc58d8b4bc1bc04a30160ba28b0000000006a473044022024e0429e1106e2af2fd265d534fa6c63a327b3d6ed99c9b61a9e38808ee9e25202207589c208232500f5cf24dc63ae0439df2f3ad6ee62da1a822957c43d34ee91a7012103c2df97680f76acb4fb409cbf772684ebefbe66f3be2cdbf392b00c8908fc8e48ffffffff029eab4113000000001976a91463f93d879a6bce743090399b1ef78a65c579efb088ac3860cfdd000000001976a91499ffa3b70a84767ada4344f375575e8e9cc277be88ac00000000"
    }, 
    {
      "txid": "a21f749d8437364f5a72136154a7058c7da0873acf18da6e6f50d31b64b2f15b",
      "hash": "a21f749d8437364f5a72136154a7058c7da0873acf18da6e6f50d31b64b2f15b",
      "version": 2,
      "size": 225,
      "vsize": 225,
      "locktime": 1359247,
      "vin": [
        {
          "txid": "c6b2e5f163d4b68bbb9427cfce91ce02f078e27433c8bdfa2ab93d38cacc9a72",
          "vout": 0,
          "scriptSig": {
            "asm": "304402201fbcd4b00fbb8ce2c3a7c840400127888112c799f3ec125dc3523f334de011460220769b8786921027f177dff5860607e0a85e41dff4088ff0e8fd4db699b8a7d535[ALL] 0350ec932073d77713642bc43885dd04fecab59a4551f28e64d4bfa26fc763a68e",
            "hex": "47304402201fbcd4b00fbb8ce2c3a7c840400127888112c799f3ec125dc3523f334de011460220769b8786921027f177dff5860607e0a85e41dff4088ff0e8fd4db699b8a7d53501210350ec932073d77713642bc43885dd04fecab59a4551f28e64d4bfa26fc763a68e"
          },
          "sequence": 4294967294
        }
      ],
      "vout": [
        {
          "value": 0.03604920,
          "n": 0,
          "scriptPubKey": {
            "asm": "OP_DUP OP_HASH160 5c82504a50c0665362a9cf03f616ade16bb37389 OP_EQUALVERIFY OP_CHECKSIG",
            "hex": "76a9145c82504a50c0665362a9cf03f616ade16bb3738988ac",
            "reqSigs": 1,
            "type": "pubkeyhash",
            "addresses": [
              "LTf6YDDWmUusbYye21xP87ULS9dneQdcXg"
            ]
          }
        }, 
        {
          "value": 0.01000363,
          "n": 1,
          "scriptPubKey": {
            "asm": "OP_DUP OP_HASH160 515d6d5d3c63438caf44c94eae7d36ae5412bbaf OP_EQUALVERIFY OP_CHECKSIG",
            "hex": "76a914515d6d5d3c63438caf44c94eae7d36ae5412bbaf88ac",
            "reqSigs": 1,
            "type": "pubkeyhash",
            "addresses": [
              "LSeAvBp29TPJygX1EhPP8nBcec89JjwcTf"
            ]
          }
        }
      ],
      "hex": "0200000001729accca383db92afabdc83374e278f002ce91cecf2794bb8bb6d463f1e5b2c6000000006a47304402201fbcd4b00fbb8ce2c3a7c840400127888112c799f3ec125dc3523f334de011460220769b8786921027f177dff5860607e0a85e41dff4088ff0e8fd4db699b8a7d53501210350ec932073d77713642bc43885dd04fecab59a4551f28e64d4bfa26fc763a68efeffffff02b8013700000000001976a9145c82504a50c0665362a9cf03f616ade16bb3738988acab430f00000000001976a914515d6d5d3c63438caf44c94eae7d36ae5412bbaf88ac8fbd1400"
    }, 
    {
      "txid": "fcc283582a689dbd409d1f239243124a444dc457825e554bcf33d0f0f166f263",
      "hash": "fcc283582a689dbd409d1f239243124a444dc457825e554bcf33d0f0f166f263",
      "version": 1,
      "size": 225,
      "vsize": 225,
      "locktime": 0,
      "vin": [
        {
          "txid": "e43108b8403ab10d44b94559994c6c959c50a09d5acec3b05e5e0af3fa28b1a6",
          "vout": 0,
          "scriptSig": {
            "asm": "304402202a1a49e7c5c8a0682963099627334ff52c12422c24405d2c2d8185577889759302205f6057c254cdd9b9db53eced0a5f9a78691fea50b0c145fdf843405dc637d5b4[ALL] 0337ddfdb2e587addd601798ffd7afb2ef45790f8baf11aff6b7fea948e3b28420",
            "hex": "47304402202a1a49e7c5c8a0682963099627334ff52c12422c24405d2c2d8185577889759302205f6057c254cdd9b9db53eced0a5f9a78691fea50b0c145fdf843405dc637d5b401210337ddfdb2e587addd601798ffd7afb2ef45790f8baf11aff6b7fea948e3b28420"
          },
          "sequence": 4294967295
        }
      ],
      "vout": [
        {
          "value": 19.18588688,
          "n": 0,
          "scriptPubKey": {
            "asm": "OP_DUP OP_HASH160 659250b2b8fbfe35960a329e0fe84ea2f6f1d6e7 OP_EQUALVERIFY OP_CHECKSIG",
            "hex": "76a914659250b2b8fbfe35960a329e0fe84ea2f6f1d6e788ac",
            "reqSigs": 1,
            "type": "pubkeyhash",
            "addresses": [
              "LUV1nkLpi6NxJiDJ6Fk3Qw6kX9snkCK3Kj"
            ]
          }
        }, 
        {
          "value": 9.40972614,
          "n": 1,
          "scriptPubKey": {
            "asm": "OP_DUP OP_HASH160 892985341758368845fe66d13058444b4775ccf7 OP_EQUALVERIFY OP_CHECKSIG",
            "hex": "76a914892985341758368845fe66d13058444b4775ccf788ac",
            "reqSigs": 1,
            "type": "pubkeyhash",
            "addresses": [
              "LXjCaNoBSjUW88PZUw5Rg4hopoBF8RyDq8"
            ]
          }
        }
      ],
      "hex": "0100000001a6b128faf30a5e5eb0c3ce5a9da0509c956c4c995945b9440db13a40b80831e4000000006a47304402202a1a49e7c5c8a0682963099627334ff52c12422c24405d2c2d8185577889759302205f6057c254cdd9b9db53eced0a5f9a78691fea50b0c145fdf843405dc637d5b401210337ddfdb2e587addd601798ffd7afb2ef45790f8baf11aff6b7fea948e3b28420ffffffff0210575b72000000001976a914659250b2b8fbfe35960a329e0fe84ea2f6f1d6e788ac461a1638000000001976a914892985341758368845fe66d13058444b4775ccf788ac00000000"
    }, 
    {
      "txid": "ac164dbd02415126928a54a30d6b2df7bca938d528d3f9c14bad1892373d297a",
      "hash": "ac164dbd02415126928a54a30d6b2df7bca938d528d3f9c14bad1892373d297a",
      "version": 1,
      "size": 225,
      "vsize": 225,
      "locktime": 0,
      "vin": [
        {
          "txid": "a00bf5ac36f9e906a8c01262d377bd3582758c9f986a60cf185b9ed8facf28f8",
          "vout": 1,
          "scriptSig": {
            "asm": "304402200102129a9f442e287b8093b3e750abb9171c39e5957b3a1d0c9969ae5ea8c2ec022067f7735f039bf83599224aba4ca46be4cc09f6cac1918e8f08aec6cc10cbb091[ALL] 02976c0311c3c28e101be8ae1d27a22bef3e16e4acacd97bc05face8107a797b90",
            "hex": "47304402200102129a9f442e287b8093b3e750abb9171c39e5957b3a1d0c9969ae5ea8c2ec022067f7735f039bf83599224aba4ca46be4cc09f6cac1918e8f08aec6cc10cbb091012102976c0311c3c28e101be8ae1d27a22bef3e16e4acacd97bc05face8107a797b90"
          },
          "sequence": 4294967295
        }
      ],
      "vout": [
        {
          "value": 0.07910300,
          "n": 0,
          "scriptPubKey": {
            "asm": "OP_DUP OP_HASH160 ed7f65ac1e533baaac9322f71536e460745c886e OP_EQUALVERIFY OP_CHECKSIG",
            "hex": "76a914ed7f65ac1e533baaac9322f71536e460745c886e88ac",
            "reqSigs": 1,
            "type": "pubkeyhash",
            "addresses": [
              "Lgsj2PNUg1v4WMpvcjNGo4kdnYVGe6XbjV"
            ]
          }
        }, 
        {
          "value": 0.37000000,
          "n": 1,
          "scriptPubKey": {
            "asm": "OP_DUP OP_HASH160 81f7a3de54c4562f9d08d6a2f5aa860ea2b76266 OP_EQUALVERIFY OP_CHECKSIG",
            "hex": "76a91481f7a3de54c4562f9d08d6a2f5aa860ea2b7626688ac",
            "reqSigs": 1,
            "type": "pubkeyhash",
            "addresses": [
              "LX5A6J737WdYeiCjphxDETYdVTDQw2sH3F"
            ]
          }
        }
      ],
      "hex": "0100000001f828cffad89e5b18cf606a989f8c758235bd77d36212c0a806e9f936acf50ba0010000006a47304402200102129a9f442e287b8093b3e750abb9171c39e5957b3a1d0c9969ae5ea8c2ec022067f7735f039bf83599224aba4ca46be4cc09f6cac1918e8f08aec6cc10cbb091012102976c0311c3c28e101be8ae1d27a22bef3e16e4acacd97bc05face8107a797b90ffffffff029cb37800000000001976a914ed7f65ac1e533baaac9322f71536e460745c886e88ac40933402000000001976a91481f7a3de54c4562f9d08d6a2f5aa860ea2b7626688ac00000000"
    }, 
    {
      "txid": "b8c17669a84f4688e3a83c7f850603d18566390e36cdca5cd4bbb6ae398c6498",
      "hash": "b8c17669a84f4688e3a83c7f850603d18566390e36cdca5cd4bbb6ae398c6498",
      "version": 1,
      "size": 225,
      "vsize": 225,
      "locktime": 0,
      "vin": [
        {
          "txid": "4f4a2c409ecee9b48f36aa0b9eac9aafbe4eef24432d2207ff7b3c0c448c9eba",
          "vout": 1,
          "scriptSig": {
            "asm": "304402204a78d590cf78621ed041395138394497af84eec8e7ca2869408efac5899af8a0022076da6990943b4cba8128a2151f68e4bc41febb4c8c011154d3b1c30e9df27f08[ALL] 02787f828ac777065a22a5d6fc8b531b6f8e885bce616a9a1ae73ce90a77bb664c",
            "hex": "47304402204a78d590cf78621ed041395138394497af84eec8e7ca2869408efac5899af8a0022076da6990943b4cba8128a2151f68e4bc41febb4c8c011154d3b1c30e9df27f08012102787f828ac777065a22a5d6fc8b531b6f8e885bce616a9a1ae73ce90a77bb664c"
          },
          "sequence": 4294967295
        }
      ],
      "vout": [
        {
          "value": 0.18957723,
          "n": 0,
          "scriptPubKey": {
            "asm": "OP_DUP OP_HASH160 efc89db6075efc2375829ec0b9eead358993acf6 OP_EQUALVERIFY OP_CHECKSIG",
            "hex": "76a914efc89db6075efc2375829ec0b9eead358993acf688ac",
            "reqSigs": 1,
            "type": "pubkeyhash",
            "addresses": [
              "Lh5p67Fdx43WsMtwcZak1ZLpAbaYw5iAin"
            ]
          }
        }, 
        {
          "value": 0.00059042,
          "n": 1,
          "scriptPubKey": {
            "asm": "OP_DUP OP_HASH160 f87c32ff3d9686444e28367188e31bcaa2494ebf OP_EQUALVERIFY OP_CHECKSIG",
            "hex": "76a914f87c32ff3d9686444e28367188e31bcaa2494ebf88ac",
            "reqSigs": 1,
            "type": "pubkeyhash",
            "addresses": [
              "LhspdJJceuqr1muazGQP1poBXsjYKAdzXp"
            ]
          }
        }
      ],
      "hex": "0100000001ba9e8c440c3c7bff07222d4324ef4ebeaf9aac9e0baa368fb4e9ce9e402c4a4f010000006a47304402204a78d590cf78621ed041395138394497af84eec8e7ca2869408efac5899af8a0022076da6990943b4cba8128a2151f68e4bc41febb4c8c011154d3b1c30e9df27f08012102787f828ac777065a22a5d6fc8b531b6f8e885bce616a9a1ae73ce90a77bb664cffffffff029b452101000000001976a914efc89db6075efc2375829ec0b9eead358993acf688aca2e60000000000001976a914f87c32ff3d9686444e28367188e31bcaa2494ebf88ac00000000"
    }, 
    {
      "txid": "b20ca9803c05895d9d0bb2b317e8d497fddf014c370f3b2db9ccf3158286afa1",
      "hash": "b20ca9803c05895d9d0bb2b317e8d497fddf014c370f3b2db9ccf3158286afa1",
      "version": 2,
      "size": 225,
      "vsize": 225,
      "locktime": 1359254,
      "vin": [
        {
          "txid": "9d85e32bdc5b61ac37f709fd4951c513100e7fd1b7e2c2166e629a2bd5bd191e",
          "vout": 0,
          "scriptSig": {
            "asm": "304402202e4ee78099242c89bf2ce62711e83960f0b27688f2b7169551eeaa2bb56c4a4c02202ae05fad4a50098953422a7f30cb547b93c826315d243c7aac23568fa57f95f4[ALL] 02307295940e4c15d75ff6367bd44eb35b4a4811f58113355b9d12706dba6792ba",
            "hex": "47304402202e4ee78099242c89bf2ce62711e83960f0b27688f2b7169551eeaa2bb56c4a4c02202ae05fad4a50098953422a7f30cb547b93c826315d243c7aac23568fa57f95f4012102307295940e4c15d75ff6367bd44eb35b4a4811f58113355b9d12706dba6792ba"
          },
          "sequence": 4294967294
        }
      ],
      "vout": [
        {
          "value": 312.97699644,
          "n": 0,
          "scriptPubKey": {
            "asm": "OP_DUP OP_HASH160 11815ee58cfcce8eb05a612d833bfd9ac0440a15 OP_EQUALVERIFY OP_CHECKSIG",
            "hex": "76a91411815ee58cfcce8eb05a612d833bfd9ac0440a1588ac",
            "reqSigs": 1,
            "type": "pubkeyhash",
            "addresses": [
              "LLpWjJmuJjbjHcSQbdkdDJhKdUFVVgPqhD"
            ]
          }
        }, 
        {
          "value": 0.84938995,
          "n": 1,
          "scriptPubKey": {
            "asm": "OP_DUP OP_HASH160 0ea730c472f938d178de99cce004026845582d73 OP_EQUALVERIFY OP_CHECKSIG",
            "hex": "76a9140ea730c472f938d178de99cce004026845582d7388ac",
            "reqSigs": 1,
            "type": "pubkeyhash",
            "addresses": [
              "LLZS1VqjmwHa1exCvKdaQoeSKJarjXnuau"
            ]
          }
        }
      ],
      "hex": "02000000011e19bdd52b9a626e16c2e2b7d17f0e1013c55149fd09f737ac615bdc2be3859d000000006a47304402202e4ee78099242c89bf2ce62711e83960f0b27688f2b7169551eeaa2bb56c4a4c02202ae05fad4a50098953422a7f30cb547b93c826315d243c7aac23568fa57f95f4012102307295940e4c15d75ff6367bd44eb35b4a4811f58113355b9d12706dba6792bafeffffff023cff7c49070000001976a91411815ee58cfcce8eb05a612d833bfd9ac0440a1588acf3101005000000001976a9140ea730c472f938d178de99cce004026845582d7388ac96bd1400"
    }, 
    {
      "txid": "756ef03d5810a15455d7ef0cf48f4560e666fc8bfc1f61e0d20343fc5f8a271a",
      "hash": "756ef03d5810a15455d7ef0cf48f4560e666fc8bfc1f61e0d20343fc5f8a271a",
      "version": 1,
      "size": 224,
      "vsize": 224,
      "locktime": 0,
      "vin": [
        {
          "txid": "de27730b2068dbd18ff8276559c14084399dc70da5547564de3acc81a9b68263",
          "vout": 0,
          "scriptSig": {
            "asm": "3045022100c766d140abff38aecb359ba15b96c7b9d4a1c468f6dcfaa83189b46fd41d3a88022036a0a4e07d640e87e71f51986b0ae0e6d82631af8dd05c335a3664d0f520c7b6[ALL] 0257bbce9898bdab29bae056439e7b1a4d3a7a08e65cc90033fedd1b808229d13a",
            "hex": "483045022100c766d140abff38aecb359ba15b96c7b9d4a1c468f6dcfaa83189b46fd41d3a88022036a0a4e07d640e87e71f51986b0ae0e6d82631af8dd05c335a3664d0f520c7b601210257bbce9898bdab29bae056439e7b1a4d3a7a08e65cc90033fedd1b808229d13a"
          },
          "sequence": 4294967295
        }
      ],
      "vout": [
        {
          "value": 30.00000000,
          "n": 0,
          "scriptPubKey": {
            "asm": "OP_HASH160 58610e558bdfa93cfe71b0fa0e8e7139df9bb20b OP_EQUAL",
            "hex": "a91458610e558bdfa93cfe71b0fa0e8e7139df9bb20b87",
            "reqSigs": 1,
            "type": "scripthash",
            "addresses": [
              "MFxTxsz8oi2uvAMEbFKguGcegVfnhcTAUZ"
            ]
          }
        }, 
        {
          "value": 1.12313886,
          "n": 1,
          "scriptPubKey": {
            "asm": "OP_DUP OP_HASH160 f3a6129f18324b81807c03a0781b27f900a0072f OP_EQUALVERIFY OP_CHECKSIG",
            "hex": "76a914f3a6129f18324b81807c03a0781b27f900a0072f88ac",
            "reqSigs": 1,
            "type": "pubkeyhash",
            "addresses": [
              "LhSFQmGcPNQbWbcp6CQ6vMGtRRc4o88UkK"
            ]
          }
        }
      ],
      "hex": "01000000016382b6a981cc3ade647554a50dc79d398440c1596527f88fd1db68200b7327de000000006b483045022100c766d140abff38aecb359ba15b96c7b9d4a1c468f6dcfaa83189b46fd41d3a88022036a0a4e07d640e87e71f51986b0ae0e6d82631af8dd05c335a3664d0f520c7b601210257bbce9898bdab29bae056439e7b1a4d3a7a08e65cc90033fedd1b808229d13affffffff02005ed0b20000000017a91458610e558bdfa93cfe71b0fa0e8e7139df9bb20b871ec6b106000000001976a914f3a6129f18324b81807c03a0781b27f900a0072f88ac00000000"
    }, 
    {
      "txid": "9e79080c9f0c4bec0907ec3e4601794067c41307910ff3a13c2b18eed2916c28",
      "hash": "9e79080c9f0c4bec0907ec3e4601794067c41307910ff3a13c2b18eed2916c28",
      "version": 1,
      "size": 226,
      "vsize": 226,
      "locktime": 0,
      "vin": [
        {
          "txid": "09fab9e7b158f00878ff65ae6748dec36236dd02acd47a5dafe22d794543c2a3",
          "vout": 21,
          "scriptSig": {
            "asm": "3045022100ab6deeda9d89661ac954ecb062c817e4ea3e9a677b07cad12704edfe7c8cc44302205e2cef2ca79121b13d651ff7ed1240e0f061d58e86ac06921d073d3d467e73d5[ALL] 0312d3e2237dff2bfde95367d6289f417ea0f9ccda75899fdb536d7fe2842d5a1f",
            "hex": "483045022100ab6deeda9d89661ac954ecb062c817e4ea3e9a677b07cad12704edfe7c8cc44302205e2cef2ca79121b13d651ff7ed1240e0f061d58e86ac06921d073d3d467e73d501210312d3e2237dff2bfde95367d6289f417ea0f9ccda75899fdb536d7fe2842d5a1f"
          },
          "sequence": 4294967295
        }
      ],
      "vout": [
        {
          "value": 33.67243548,
          "n": 0,
          "scriptPubKey": {
            "asm": "OP_DUP OP_HASH160 1a42dd52ff3c0522029e0cb1ae83bc590085905c OP_EQUALVERIFY OP_CHECKSIG",
            "hex": "76a9141a42dd52ff3c0522029e0cb1ae83bc590085905c88ac",
            "reqSigs": 1,
            "type": "pubkeyhash",
            "addresses": [
              "LMcow2jwnzE65muFoVToTZUgrKzDSqbLo3"
            ]
          }
        }, 
        {
          "value": 5.42032852,
          "n": 1,
          "scriptPubKey": {
            "asm": "OP_DUP OP_HASH160 948428e0c9df2f7c021f31e5441bb6a6f262a1c7 OP_EQUALVERIFY OP_CHECKSIG",
            "hex": "76a914948428e0c9df2f7c021f31e5441bb6a6f262a1c788ac",
            "reqSigs": 1,
            "type": "pubkeyhash",
            "addresses": [
              "LYmEbDgXgVincNfeZFySA4etD54TUgTHHs"
            ]
          }
        }
      ],
      "hex": "0100000001a3c24345792de2af5d7ad4ac02dd3662c3de4867ae65ff7808f058b1e7b9fa09150000006b483045022100ab6deeda9d89661ac954ecb062c817e4ea3e9a677b07cad12704edfe7c8cc44302205e2cef2ca79121b13d651ff7ed1240e0f061d58e86ac06921d073d3d467e73d501210312d3e2237dff2bfde95367d6289f417ea0f9ccda75899fdb536d7fe2842d5a1fffffffff021c0fb4c8000000001976a9141a42dd52ff3c0522029e0cb1ae83bc590085905c88acd4c34e20000000001976a914948428e0c9df2f7c021f31e5441bb6a6f262a1c788ac00000000"
    }, 
    {
      "txid": "f5a9634719512ba1d09d6766a7007614093643b1e20dab0a8f5dc81a56ca856a",
      "hash": "f5a9634719512ba1d09d6766a7007614093643b1e20dab0a8f5dc81a56ca856a",
      "version": 2,
      "size": 226,
      "vsize": 226,
      "locktime": 1359167,
      "vin": [
        {
          "txid": "ba262fc67f73a94821ee75a2357894bd797ab2b2f44673652f365e6c114db416",
          "vout": 0,
          "scriptSig": {
            "asm": "304502210098d7728cbedb2c651757006720f5f62af29d7d91c92bdba1670086ba7f2be2a0022013923e7e951d0b825e46f3385589fbfb20edc30e922f1a6c819ba248a7a8d594[ALL] 02c01d13b6735271f99082e8bd267792eada51e15addc787afc5d0df5c2f3d29d3",
            "hex": "48304502210098d7728cbedb2c651757006720f5f62af29d7d91c92bdba1670086ba7f2be2a0022013923e7e951d0b825e46f3385589fbfb20edc30e922f1a6c819ba248a7a8d594012102c01d13b6735271f99082e8bd267792eada51e15addc787afc5d0df5c2f3d29d3"
          },
          "sequence": 4294967294
        }
      ],
      "vout": [
        {
          "value": 0.21223147,
          "n": 0,
          "scriptPubKey": {
            "asm": "OP_DUP OP_HASH160 bc07894e60f4b527c7d291f56328471c5ceecb4e OP_EQUALVERIFY OP_CHECKSIG",
            "hex": "76a914bc07894e60f4b527c7d291f56328471c5ceecb4e88ac",
            "reqSigs": 1,
            "type": "pubkeyhash",
            "addresses": [
              "LcNAKurSG5DC9zjNf6uXfZZCKMXaJsUF94"
            ]
          }
        }, 
        {
          "value": 374.14132000,
          "n": 1,
          "scriptPubKey": {
            "asm": "OP_DUP OP_HASH160 dff482443bc5e65cb1c913f1d0d15182ebf3da5d OP_EQUALVERIFY OP_CHECKSIG",
            "hex": "76a914dff482443bc5e65cb1c913f1d0d15182ebf3da5d88ac",
            "reqSigs": 1,
            "type": "pubkeyhash",
            "addresses": [
              "Lfe7rmGxnawRxUZA2G5HxkPt3LMxjSa8Kc"
            ]
          }
        }
      ],
      "hex": "020000000116b44d116c5e362f657346f4b2b27a79bd947835a275ee2148a9737fc62f26ba000000006b48304502210098d7728cbedb2c651757006720f5f62af29d7d91c92bdba1670086ba7f2be2a0022013923e7e951d0b825e46f3385589fbfb20edc30e922f1a6c819ba248a7a8d594012102c01d13b6735271f99082e8bd267792eada51e15addc787afc5d0df5c2f3d29d3feffffff02ebd64301000000001976a914bc07894e60f4b527c7d291f56328471c5ceecb4e88ac20590eb6080000001976a914dff482443bc5e65cb1c913f1d0d15182ebf3da5d88ac3fbd1400"
    }, 
    {
      "txid": "8b0ca47568c67c5ab55cf78a993bde917fb0a73774168ab50000e366cc21dc7d",
      "hash": "8b0ca47568c67c5ab55cf78a993bde917fb0a73774168ab50000e366cc21dc7d",
      "version": 2,
      "size": 226,
      "vsize": 226,
      "locktime": 1359254,
      "vin": [
        {
          "txid": "feef1647522e048de5ddae9831089c55fb981f0938865b1b736604c4c29205e2",
          "vout": 0,
          "scriptSig": {
            "asm": "3045022100b1a96725931731883ca1ecf705c174b6ca1b7bead6636525afc1296bf17e69fd02206eb7a18f4241f83524f31ec7e967ffb1d22747e923a96b6cdee77f174a266ece[ALL] 03c91fb3f1b081fa3919b2396561f6e728ee1d606de5531d30175bdfc6068f5d40",
            "hex": "483045022100b1a96725931731883ca1ecf705c174b6ca1b7bead6636525afc1296bf17e69fd02206eb7a18f4241f83524f31ec7e967ffb1d22747e923a96b6cdee77f174a266ece012103c91fb3f1b081fa3919b2396561f6e728ee1d606de5531d30175bdfc6068f5d40"
          },
          "sequence": 4294967294
        }
      ],
      "vout": [
        {
          "value": 0.04868944,
          "n": 0,
          "scriptPubKey": {
            "asm": "OP_DUP OP_HASH160 c7d1406296289830960516e0f2352e5ce027fdc1 OP_EQUALVERIFY OP_CHECKSIG",
            "hex": "76a914c7d1406296289830960516e0f2352e5ce027fdc188ac",
            "reqSigs": 1,
            "type": "pubkeyhash",
            "addresses": [
              "LdSVQSHDn4bN869YvF7B2HRejCYhEH4Jbg"
            ]
          }
        }, 
        {
          "value": 0.00980456,
          "n": 1,
          "scriptPubKey": {
            "asm": "OP_DUP OP_HASH160 950130b974a6932edfb2691394216916dd9965d7 OP_EQUALVERIFY OP_CHECKSIG",
            "hex": "76a914950130b974a6932edfb2691394216916dd9965d788ac",
            "reqSigs": 1,
            "type": "pubkeyhash",
            "addresses": [
              "LYopNW2ffjDSRjTCwxDk9Fd1SWWgQXzeF2"
            ]
          }
        }
      ],
      "hex": "0200000001e20592c2c40466731b5b8638091f98fb559c083198aedde58d042e524716effe000000006b483045022100b1a96725931731883ca1ecf705c174b6ca1b7bead6636525afc1296bf17e69fd02206eb7a18f4241f83524f31ec7e967ffb1d22747e923a96b6cdee77f174a266ece012103c91fb3f1b081fa3919b2396561f6e728ee1d606de5531d30175bdfc6068f5d40feffffff02504b4a00000000001976a914c7d1406296289830960516e0f2352e5ce027fdc188ace8f50e00000000001976a914950130b974a6932edfb2691394216916dd9965d788ac96bd1400"
    }, 
    {
      "txid": "f67f6141bbd3c0b96c04fc07fcaa6589e41772036f772319619a0f710576f98f",
      "hash": "f67f6141bbd3c0b96c04fc07fcaa6589e41772036f772319619a0f710576f98f",
      "version": 1,
      "size": 226,
      "vsize": 226,
      "locktime": 0,
      "vin": [
        {
          "txid": "3def8c7f19e1747db0a36701864a4ead0338809f062b72b0d3a4ff845740cc0d",
          "vout": 127,
          "scriptSig": {
            "asm": "304502210086ed1f229549d81e36498ccdf2b398aa6dc1def3c1f0f0b7d7fed32583b6ab340220348b71a5053b446f7ecbccf2a8ac1bcb045b71b1a60306a33aace6a7d8bcff1e[ALL] 02cddb510bfd6457824dcf200aa6baac6550b1e6eb9e64f4b7d16627591fc13afc",
            "hex": "48304502210086ed1f229549d81e36498ccdf2b398aa6dc1def3c1f0f0b7d7fed32583b6ab340220348b71a5053b446f7ecbccf2a8ac1bcb045b71b1a60306a33aace6a7d8bcff1e012102cddb510bfd6457824dcf200aa6baac6550b1e6eb9e64f4b7d16627591fc13afc"
          },
          "sequence": 4294967295
        }
      ],
      "vout": [
        {
          "value": 0.00062020,
          "n": 0,
          "scriptPubKey": {
            "asm": "OP_DUP OP_HASH160 64c392ccb018a94a2b0981b1f55416a1c14d5047 OP_EQUALVERIFY OP_CHECKSIG",
            "hex": "76a91464c392ccb018a94a2b0981b1f55416a1c14d504788ac",
            "reqSigs": 1,
            "type": "pubkeyhash",
            "addresses": [
              "LUQk85Pw73AqtoSNTo6ZqUhg7MU5a9z8Ae"
            ]
          }
        }, 
        {
          "value": 0.12935376,
          "n": 1,
          "scriptPubKey": {
            "asm": "OP_DUP OP_HASH160 7dab5aed91990c75741af622b36c3aa7697a2dd3 OP_EQUALVERIFY OP_CHECKSIG",
            "hex": "76a9147dab5aed91990c75741af622b36c3aa7697a2dd388ac",
            "reqSigs": 1,
            "type": "pubkeyhash",
            "addresses": [
              "LWgS1AB2X6ATFtymDiiBBbm5BZibmaAV7b"
            ]
          }
        }
      ],
      "hex": "01000000010dcc405784ffa4d3b0722b069f803803ad4e4a860167a3b07d74e1197f8cef3d7f0000006b48304502210086ed1f229549d81e36498ccdf2b398aa6dc1def3c1f0f0b7d7fed32583b6ab340220348b71a5053b446f7ecbccf2a8ac1bcb045b71b1a60306a33aace6a7d8bcff1e012102cddb510bfd6457824dcf200aa6baac6550b1e6eb9e64f4b7d16627591fc13afcffffffff0244f20000000000001976a91464c392ccb018a94a2b0981b1f55416a1c14d504788acd060c500000000001976a9147dab5aed91990c75741af622b36c3aa7697a2dd388ac00000000"
    }, 
    {
      "txid": "9f96f0c6090b6b510efdb95cb6aaa67b7dcb7c14c47d32754a39aa63bfa499a1",
      "hash": "9f96f0c6090b6b510efdb95cb6aaa67b7dcb7c14c47d32754a39aa63bfa499a1",
      "version": 2,
      "size": 226,
      "vsize": 226,
      "locktime": 1359254,
      "vin": [
        {
          "txid": "b3b94b814b5ec2071b347be716d72ed7db7fa4c1b8408a2c4834f998137f280e",
          "vout": 0,
          "scriptSig": {
            "asm": "3045022100ec3048611989d76ccc274d0a3910834666032870a00e975cc7af30dc79ca24a002206e7d147f5ae99f5354a294ec29cc10c68211d810b88e25badd3ad23520b7198b[ALL] 03696f58890a934907b356ef652da6c55dd54a2354966434b48703d80598da31b3",
            "hex": "483045022100ec3048611989d76ccc274d0a3910834666032870a00e975cc7af30dc79ca24a002206e7d147f5ae99f5354a294ec29cc10c68211d810b88e25badd3ad23520b7198b012103696f58890a934907b356ef652da6c55dd54a2354966434b48703d80598da31b3"
          },
          "sequence": 4294967294
        }
      ],
      "vout": [
        {
          "value": 426.08446326,
          "n": 0,
          "scriptPubKey": {
            "asm": "OP_DUP OP_HASH160 4e8ca75bf7722bda557419b72d1b9f9998df1cfd OP_EQUALVERIFY OP_CHECKSIG",
            "hex": "76a9144e8ca75bf7722bda557419b72d1b9f9998df1cfd88ac",
            "reqSigs": 1,
            "type": "pubkeyhash",
            "addresses": [
              "LSPHTyBWpjLDLRpBQj3xEsZNRHNKMjgg67"
            ]
          }
        }, 
        {
          "value": 0.77000000,
          "n": 1,
          "scriptPubKey": {
            "asm": "OP_DUP OP_HASH160 e9e9c94ccfdd9421e623a1dc006fcd51fc3a8802 OP_EQUALVERIFY OP_CHECKSIG",
            "hex": "76a914e9e9c94ccfdd9421e623a1dc006fcd51fc3a880288ac",
            "reqSigs": 1,
            "type": "pubkeyhash",
            "addresses": [
              "LgYmmfidVNEAZVrWfSsfMsD5acL1KfzxLj"
            ]
          }
        }
      ],
      "hex": "02000000010e287f1398f934482c8a40b8c1a47fdbd72ed716e77b341b07c25e4b814bb9b3000000006b483045022100ec3048611989d76ccc274d0a3910834666032870a00e975cc7af30dc79ca24a002206e7d147f5ae99f5354a294ec29cc10c68211d810b88e25badd3ad23520b7198b012103696f58890a934907b356ef652da6c55dd54a2354966434b48703d80598da31b3feffffff02764ba9eb090000001976a9144e8ca75bf7722bda557419b72d1b9f9998df1cfd88ac40ed9604000000001976a914e9e9c94ccfdd9421e623a1dc006fcd51fc3a880288ac96bd1400"
    }, 
    {
      "txid": "0443c89d1e662682ed89ce0ccd7212354c8b6d2937d2e7353d1805a137a4ced1",
      "hash": "0443c89d1e662682ed89ce0ccd7212354c8b6d2937d2e7353d1805a137a4ced1",
      "version": 2,
      "size": 226,
      "vsize": 226,
      "locktime": 1359254,
      "vin": [
        {
          "txid": "44bac7f0c59d2e34c413d20a6e626a9b5be48b19a7d1b0a3a6b8666ae94ca864",
          "vout": 1,
          "scriptSig": {
            "asm": "3045022100e477b804196d6b11a3113e991f2ff18208dcdea76a17a935b0ea40b706082ac702204cfe15e6ada13dd7b5e2dc88c465a91798e53aee4d0c44730537c55787581be3[ALL] 030be9b3b9e3b3f07f620f2678ad222b046a8523cca29eaa4663f84f2620fea776",
            "hex": "483045022100e477b804196d6b11a3113e991f2ff18208dcdea76a17a935b0ea40b706082ac702204cfe15e6ada13dd7b5e2dc88c465a91798e53aee4d0c44730537c55787581be30121030be9b3b9e3b3f07f620f2678ad222b046a8523cca29eaa4663f84f2620fea776"
          },
          "sequence": 4294967294
        }
      ],
      "vout": [
        {
          "value": 315.41656827,
          "n": 0,
          "scriptPubKey": {
            "asm": "OP_DUP OP_HASH160 554bf7281d2fced10369f2c5b6fd91cbf807cd20 OP_EQUALVERIFY OP_CHECKSIG",
            "hex": "76a914554bf7281d2fced10369f2c5b6fd91cbf807cd2088ac",
            "reqSigs": 1,
            "type": "pubkeyhash",
            "addresses": [
              "LSzxhh2ngfXXH634kYkWuWvwccagSPk1GF"
            ]
          }
        }, 
        {
          "value": 0.44901979,
          "n": 1,
          "scriptPubKey": {
            "asm": "OP_DUP OP_HASH160 8419c463b531d7f37b5ef1d427006271ccedf1bb OP_EQUALVERIFY OP_CHECKSIG",
            "hex": "76a9148419c463b531d7f37b5ef1d427006271ccedf1bb88ac",
            "reqSigs": 1,
            "type": "pubkeyhash",
            "addresses": [
              "LXGSKsG1kXjYgS98uCDXpx3jmrNEZqSfZN"
            ]
          }
        }
      ],
      "hex": "020000000164a84ce96a66b8a6a3b0d1a7198be45b9b6a626e0ad213c4342e9dc5f0c7ba44010000006b483045022100e477b804196d6b11a3113e991f2ff18208dcdea76a17a935b0ea40b706082ac702204cfe15e6ada13dd7b5e2dc88c465a91798e53aee4d0c44730537c55787581be30121030be9b3b9e3b3f07f620f2678ad222b046a8523cca29eaa4663f84f2620fea776feffffff02fb7c0758070000001976a914554bf7281d2fced10369f2c5b6fd91cbf807cd2088ac5b26ad02000000001976a9148419c463b531d7f37b5ef1d427006271ccedf1bb88ac96bd1400"
    }, 
    {
      "txid": "d4c3ffd686fa9b26cc66ac1ce4243a94068cac315ad3f1fb08762bc29de7c1f3",
      "hash": "d4c3ffd686fa9b26cc66ac1ce4243a94068cac315ad3f1fb08762bc29de7c1f3",
      "version": 1,
      "size": 226,
      "vsize": 226,
      "locktime": 0,
      "vin": [
        {
          "txid": "09fab9e7b158f00878ff65ae6748dec36236dd02acd47a5dafe22d794543c2a3",
          "vout": 10,
          "scriptSig": {
            "asm": "30450221008243bba022c08ef77fee3a8e39c7ef511890490d52f52f30a5d950809d4d4a8a022069f5a01f0e3645c35bedd26eb7d11e36e16dde250de68a5c4d4002efe9e3504d[ALL] 036badfd813314fe8cf23ccb4860a25da06aea25d397ae49b3c6f523502c1bfd9f",
            "hex": "4830450221008243bba022c08ef77fee3a8e39c7ef511890490d52f52f30a5d950809d4d4a8a022069f5a01f0e3645c35bedd26eb7d11e36e16dde250de68a5c4d4002efe9e3504d0121036badfd813314fe8cf23ccb4860a25da06aea25d397ae49b3c6f523502c1bfd9f"
          },
          "sequence": 4294967295
        }
      ],
      "vout": [
        {
          "value": 0.54062485,
          "n": 0,
          "scriptPubKey": {
            "asm": "OP_DUP OP_HASH160 7e5041bb90d0d096de22ea1f9d1d8d24893a9402 OP_EQUALVERIFY OP_CHECKSIG",
            "hex": "76a9147e5041bb90d0d096de22ea1f9d1d8d24893a940288ac",
            "reqSigs": 1,
            "type": "pubkeyhash",
            "addresses": [
              "LWjqYiowGdJUnBNW5JUFRiaEfNCWBksUqc"
            ]
          }
        }, 
        {
          "value": 0.04854915,
          "n": 1,
          "scriptPubKey": {
            "asm": "OP_DUP OP_HASH160 963218b794d954b7f2f7ae10a179b8c802bdea37 OP_EQUALVERIFY OP_CHECKSIG",
            "hex": "76a914963218b794d954b7f2f7ae10a179b8c802bdea3788ac",
            "reqSigs": 1,
            "type": "pubkeyhash",
            "addresses": [
              "LYv7dkrj4uzakRrQSGXDCcp3LmRK79uWic"
            ]
          }
        }
      ],
      "hex": "0100000001a3c24345792de2af5d7ad4ac02dd3662c3de4867ae65ff7808f058b1e7b9fa090a0000006b4830450221008243bba022c08ef77fee3a8e39c7ef511890490d52f52f30a5d950809d4d4a8a022069f5a01f0e3645c35bedd26eb7d11e36e16dde250de68a5c4d4002efe9e3504d0121036badfd813314fe8cf23ccb4860a25da06aea25d397ae49b3c6f523502c1bfd9fffffffff0295ed3803000000001976a9147e5041bb90d0d096de22ea1f9d1d8d24893a940288ac83144a00000000001976a914963218b794d954b7f2f7ae10a179b8c802bdea3788ac00000000"
    }
  ],
  "time": 1517258333,
  "mediantime": 1517257750,
  "nonce": 4120339260,
  "bits": "1a042eae",
  "difficulty": 4011378.762614286,
  "chainwork": "000000000000000000000000000000000000000000000033d5be1ed13a32d5b2",
  "previousblockhash": "ce0da6f44d5d0a466760a9056b55ad9a1fa4b6e62e60f035815dfb8dc0c92576",
  "nextblockhash": "103540e16f69428ed2d2173ad96b290d359400615dc834635c51cd026602c197"
}
