{
  "hash": "8e86d301e5a76caac68264cf552fc599d360109f0c38ebde41a093c291a3fdd6",
  "confirmations": 2946,
  "strippedsize": 2438,
  "size": 2474,
  "weight": 9788,
  "height": 1358049,
  "version": 536870912,
  "versionHex": "20000000",
  "merkleroot": "2c52cced02181b97f20235e68db331c0d38fa4f9cd5624ac12c9d5efa4bf7b10",
  "tx": [
    {
      "txid": "b0ea7582b7f0a2be7bc3d9183ff76955e66cc6390ba2f93156c4cba89e13040c",
      "hash": "8bea7065e769368e42834bf79c2b73ac8fc96d99ec52c93fe1121833dbb20534",
      "version": 1,
      "size": 253,
      "vsize": 226,
      "locktime": 0,
      "vin": [
        {
          "coinbase": "03e1b81441d69b352951f74641d69b3528a23b2c2f4c54432e544f502ffabe6d6dced564598bfac22c20ade49ae57821fca0475305b5a27d7b27bfaef868dca72801000000000000006f333efc0300000000000000",
          "sequence": 4294967295
        }
      ],
      "vout": [
        {
          "value": 25.02124794,
          "n": 0,
          "scriptPubKey": {
            "asm": "OP_DUP OP_HASH160 0c617fdb2ea42aed30a509595ee21ba3f6688db0 OP_EQUALVERIFY OP_CHECKSIG",
            "hex": "76a9140c617fdb2ea42aed30a509595ee21ba3f6688db088ac",
            "reqSigs": 1,
            "type": "pubkeyhash",
            "addresses": [
              "LLMRAtr3qBje2ySEa3CnZ55LA4TQMWnRY3"
            ]
          }
        }, 
        {
          "value": 0.00000000,
          "n": 1,
          "scriptPubKey": {
            "asm": "OP_RETURN aa21a9eda09ff5d62b4f788a9ccd6849f8b62ff12c39dff5c5a7c7a39a77f1ebe8549c49",
            "hex": "6a24aa21a9eda09ff5d62b4f788a9ccd6849f8b62ff12c39dff5c5a7c7a39a77f1ebe8549c49",
            "type": "nulldata"
          }
        }
      ],
      "hex": "010000000001010000000000000000000000000000000000000000000000000000000000000000ffffffff5503e1b81441d69b352951f74641d69b3528a23b2c2f4c54432e544f502ffabe6d6dced564598bfac22c20ade49ae57821fca0475305b5a27d7b27bfaef868dca72801000000000000006f333efc0300000000000000ffffffff02fa642395000000001976a9140c617fdb2ea42aed30a509595ee21ba3f6688db088ac0000000000000000266a24aa21a9eda09ff5d62b4f788a9ccd6849f8b62ff12c39dff5c5a7c7a39a77f1ebe8549c490120000000000000000000000000000000000000000000000000000000000000000000000000"
    }, 
    {
      "txid": "086376f742b27d8313e96bb960b9a8569fbebb21fdeeb8ad142a65f16f2f7246",
      "hash": "086376f742b27d8313e96bb960b9a8569fbebb21fdeeb8ad142a65f16f2f7246",
      "version": 1,
      "size": 226,
      "vsize": 226,
      "locktime": 0,
      "vin": [
        {
          "txid": "e8d00f14797790881aa960b11ce7cf21dddd4f49658be81cef870a8cf5d062ad",
          "vout": 0,
          "scriptSig": {
            "asm": "3045022100aafbfa2aacaf37416d7f285dd5141fab5abdf0ca74b7b5bea9aaa7052d5dd62a0220302a2a34eb06ae25d9879b3504ca7e7a60d61187565c4be12adeaa25c6e4bc9e[ALL] 03afdfcf9f5a5f2e4051b4da12478b5e0eaaa8d356e680696e7894b7cf248c4ec0",
            "hex": "483045022100aafbfa2aacaf37416d7f285dd5141fab5abdf0ca74b7b5bea9aaa7052d5dd62a0220302a2a34eb06ae25d9879b3504ca7e7a60d61187565c4be12adeaa25c6e4bc9e012103afdfcf9f5a5f2e4051b4da12478b5e0eaaa8d356e680696e7894b7cf248c4ec0"
          },
          "sequence": 4294967295
        }
      ],
      "vout": [
        {
          "value": 3.10464406,
          "n": 0,
          "scriptPubKey": {
            "asm": "OP_DUP OP_HASH160 ea5eeea140b04b35f8fe2a4f065d7230568efdd4 OP_EQUALVERIFY OP_CHECKSIG",
            "hex": "76a914ea5eeea140b04b35f8fe2a4f065d7230568efdd488ac",
            "reqSigs": 1,
            "type": "pubkeyhash",
            "addresses": [
              "LgbC76uSPpLbeYHVfXTTFadppfHCwW4wYi"
            ]
          }
        }, 
        {
          "value": 0.24593000,
          "n": 1,
          "scriptPubKey": {
            "asm": "OP_DUP OP_HASH160 2df7bc6f7a3ba2dd3bd5d6406e00bc6788053ba8 OP_EQUALVERIFY OP_CHECKSIG",
            "hex": "76a9142df7bc6f7a3ba2dd3bd5d6406e00bc6788053ba888ac",
            "reqSigs": 1,
            "type": "pubkeyhash",
            "addresses": [
              "LPR1SrEfo5HrGzejDZJmR3z2jr2A5BdGWf"
            ]
          }
        }
      ],
      "hex": "0100000001ad62d0f58c0a87ef1ce88b65494fdddd21cfe71cb160a91a88907779140fd0e8000000006b483045022100aafbfa2aacaf37416d7f285dd5141fab5abdf0ca74b7b5bea9aaa7052d5dd62a0220302a2a34eb06ae25d9879b3504ca7e7a60d61187565c4be12adeaa25c6e4bc9e012103afdfcf9f5a5f2e4051b4da12478b5e0eaaa8d356e680696e7894b7cf248c4ec0ffffffff02964f8112000000001976a914ea5eeea140b04b35f8fe2a4f065d7230568efdd488ac68427701000000001976a9142df7bc6f7a3ba2dd3bd5d6406e00bc6788053ba888ac00000000"
    }, 
    {
      "txid": "aeb0ca0003a73730184819d27ed5923f18b757b45f19d78833a9f8f5f3a15ae4",
      "hash": "aeb0ca0003a73730184819d27ed5923f18b757b45f19d78833a9f8f5f3a15ae4",
      "version": 1,
      "size": 339,
      "vsize": 339,
      "locktime": 0,
      "vin": [
        {
          "txid": "7f031f54df71590217a0b9706f3aa9fc5562df3b15f2bf0a15bc9457547a00c2",
          "vout": 142,
          "scriptSig": {
            "asm": "304402207620fbeab9eed2e7605f69e14a9f3adfc84a3ae0e5099a34326da0946c16dc11022076ccc31a705e476dd59ec7f7181400a6d6ff036ee319b43540dcfe20996e8bd1[ALL] 039fc7d37941fe8798e29fe3ff356797cae11491c86e50390a50eac0d3e3bfbeb0",
            "hex": "47304402207620fbeab9eed2e7605f69e14a9f3adfc84a3ae0e5099a34326da0946c16dc11022076ccc31a705e476dd59ec7f7181400a6d6ff036ee319b43540dcfe20996e8bd10121039fc7d37941fe8798e29fe3ff356797cae11491c86e50390a50eac0d3e3bfbeb0"
          },
          "sequence": 4294967295
        }, 
        {
          "txid": "3638d40eecfeb1260664a89da641d35bfa6d5fc6d19033d9e4dd75e161522ace",
          "vout": 639,
          "scriptSig": {
            "asm": "3045022100b6dda0cb9bbf6daad2947db791d45aadc41d8c491a3249e1408300d388de27dc022017c4b8de1eb1db0e9202bead6b460c449b3a1f5b73a7bcd134ccc7cd950f7313[ALL] 039fc7d37941fe8798e29fe3ff356797cae11491c86e50390a50eac0d3e3bfbeb0",
            "hex": "483045022100b6dda0cb9bbf6daad2947db791d45aadc41d8c491a3249e1408300d388de27dc022017c4b8de1eb1db0e9202bead6b460c449b3a1f5b73a7bcd134ccc7cd950f73130121039fc7d37941fe8798e29fe3ff356797cae11491c86e50390a50eac0d3e3bfbeb0"
          },
          "sequence": 4294967295
        }
      ],
      "vout": [
        {
          "value": 0.02356145,
          "n": 0,
          "scriptPubKey": {
            "asm": "OP_DUP OP_HASH160 2242df9062541ea6472b21318cb4f0a8928cbba7 OP_EQUALVERIFY OP_CHECKSIG",
            "hex": "76a9142242df9062541ea6472b21318cb4f0a8928cbba788ac",
            "reqSigs": 1,
            "type": "pubkeyhash",
            "addresses": [
              "LNM7MB1UbuyLwGdAkfpUndzo8gz2hP2yYV"
            ]
          }
        }
      ],
      "hex": "0100000002c2007a545794bc150abff2153bdf6255fca93a6f70b9a017025971df541f037f8e0000006a47304402207620fbeab9eed2e7605f69e14a9f3adfc84a3ae0e5099a34326da0946c16dc11022076ccc31a705e476dd59ec7f7181400a6d6ff036ee319b43540dcfe20996e8bd10121039fc7d37941fe8798e29fe3ff356797cae11491c86e50390a50eac0d3e3bfbeb0ffffffffce2a5261e175dde4d93390d1c65f6dfa5bd341a69da8640626b1feec0ed438367f0200006b483045022100b6dda0cb9bbf6daad2947db791d45aadc41d8c491a3249e1408300d388de27dc022017c4b8de1eb1db0e9202bead6b460c449b3a1f5b73a7bcd134ccc7cd950f73130121039fc7d37941fe8798e29fe3ff356797cae11491c86e50390a50eac0d3e3bfbeb0ffffffff01b1f32300000000001976a9142242df9062541ea6472b21318cb4f0a8928cbba788ac00000000"
    }, 
    {
      "txid": "c0c09229d1e8c1fcf9e6ff84763998986e64bcd56d7558c47967c836b2c4c249",
      "hash": "c0c09229d1e8c1fcf9e6ff84763998986e64bcd56d7558c47967c836b2c4c249",
      "version": 2,
      "size": 225,
      "vsize": 225,
      "locktime": 1358047,
      "vin": [
        {
          "txid": "3b2c14de56d57ccb810d41b544c72683b09740ca78de727704e97c8509c87f87",
          "vout": 1,
          "scriptSig": {
            "asm": "304402206e3e2ce1f0d5b87d3adcac13607def20f89ed3d2db3172905ce0a62d09d2a3af02201ab45493e1715df0fe4fa2407deb7e64ce31a89b6d0e5adb31efb5eda2ee6282[ALL] 03bc2b95073f5ab650f163d7b171299643afa0de95759c47b3fcf16a43d1cc115d",
            "hex": "47304402206e3e2ce1f0d5b87d3adcac13607def20f89ed3d2db3172905ce0a62d09d2a3af02201ab45493e1715df0fe4fa2407deb7e64ce31a89b6d0e5adb31efb5eda2ee6282012103bc2b95073f5ab650f163d7b171299643afa0de95759c47b3fcf16a43d1cc115d"
          },
          "sequence": 4294967294
        }
      ],
      "vout": [
        {
          "value": 0.79813655,
          "n": 0,
          "scriptPubKey": {
            "asm": "OP_DUP OP_HASH160 690531884ac6780a7a6300858b9502f526c54099 OP_EQUALVERIFY OP_CHECKSIG",
            "hex": "76a914690531884ac6780a7a6300858b9502f526c5409988ac",
            "reqSigs": 1,
            "type": "pubkeyhash",
            "addresses": [
              "LUoFSCqehyXMv9iaW5StdH6FTP5PUBGKCG"
            ]
          }
        }, 
        {
          "value": 0.49789272,
          "n": 1,
          "scriptPubKey": {
            "asm": "OP_DUP OP_HASH160 c9c527beb8ec8d86cbb191d2c387a22e80d3d517 OP_EQUALVERIFY OP_CHECKSIG",
            "hex": "76a914c9c527beb8ec8d86cbb191d2c387a22e80d3d51788ac",
            "reqSigs": 1,
            "type": "pubkeyhash",
            "addresses": [
              "LdcpGMiyuQpRUbTH9u1f41PkGZovGjQjBG"
            ]
          }
        }
      ],
      "hex": "0200000001877fc809857ce9047772de78ca4097b08326c744b5410d81cb7cd556de142c3b010000006a47304402206e3e2ce1f0d5b87d3adcac13607def20f89ed3d2db3172905ce0a62d09d2a3af02201ab45493e1715df0fe4fa2407deb7e64ce31a89b6d0e5adb31efb5eda2ee6282012103bc2b95073f5ab650f163d7b171299643afa0de95759c47b3fcf16a43d1cc115dfeffffff0217dcc104000000001976a914690531884ac6780a7a6300858b9502f526c5409988ac58b9f702000000001976a914c9c527beb8ec8d86cbb191d2c387a22e80d3d51788acdfb81400"
    }, 
    {
      "txid": "1268053e81b60e594640a8f2ea2d2c401614a958d471e24adf8e58a874b12d6b",
      "hash": "1268053e81b60e594640a8f2ea2d2c401614a958d471e24adf8e58a874b12d6b",
      "version": 1,
      "size": 225,
      "vsize": 225,
      "locktime": 0,
      "vin": [
        {
          "txid": "cafedeec35121bf8524499e8d8504955df7c728c1ae9460194491b97899116f5",
          "vout": 1,
          "scriptSig": {
            "asm": "304402205b1ac18b56d08348c2962484d13a4b7f43a4fe848220d563a866f82c44be510e02206c33c15b24555f03b73c4672100bd5cbadd7d43caabf99ee67a674af701eed12[ALL] 036a5a59901858c6be97a1479b3314091a07757fd21af8fa5baff35aa02fb569a5",
            "hex": "47304402205b1ac18b56d08348c2962484d13a4b7f43a4fe848220d563a866f82c44be510e02206c33c15b24555f03b73c4672100bd5cbadd7d43caabf99ee67a674af701eed120121036a5a59901858c6be97a1479b3314091a07757fd21af8fa5baff35aa02fb569a5"
          },
          "sequence": 4294967295
        }
      ],
      "vout": [
        {
          "value": 2.15245223,
          "n": 0,
          "scriptPubKey": {
            "asm": "OP_DUP OP_HASH160 aec0787caace03908b2461940377946eb0c9b97c OP_EQUALVERIFY OP_CHECKSIG",
            "hex": "76a914aec0787caace03908b2461940377946eb0c9b97c88ac",
            "reqSigs": 1,
            "type": "pubkeyhash",
            "addresses": [
              "Lb9xQgntdsemb5TxAtMv5PbgoXjA2fSoTg"
            ]
          }
        }, 
        {
          "value": 49.31810387,
          "n": 1,
          "scriptPubKey": {
            "asm": "OP_DUP OP_HASH160 04689903d3dcfefdd8f4f40b70c9de7a72a0be0b OP_EQUALVERIFY OP_CHECKSIG",
            "hex": "76a91404689903d3dcfefdd8f4f40b70c9de7a72a0be0b88ac",
            "reqSigs": 1,
            "type": "pubkeyhash",
            "addresses": [
              "LKdGGZFrtN95UK5VA6abjDvG5fT73LacgK"
            ]
          }
        }
      ],
      "hex": "0100000001f5169189971b49940146e91a8c727cdf554950d8e8994452f81b1235ecdefeca010000006a47304402205b1ac18b56d08348c2962484d13a4b7f43a4fe848220d563a866f82c44be510e02206c33c15b24555f03b73c4672100bd5cbadd7d43caabf99ee67a674af701eed120121036a5a59901858c6be97a1479b3314091a07757fd21af8fa5baff35aa02fb569a5ffffffff02a761d40c000000001976a914aec0787caace03908b2461940377946eb0c9b97c88ac5374f525010000001976a91404689903d3dcfefdd8f4f40b70c9de7a72a0be0b88ac00000000"
    }, 
    {
      "txid": "fa83e2b91bd18c3170b35eed3434d5b3e07cb0ac1bc2c282c1a2152a5040a982",
      "hash": "fa83e2b91bd18c3170b35eed3434d5b3e07cb0ac1bc2c282c1a2152a5040a982",
      "version": 1,
      "size": 225,
      "vsize": 225,
      "locktime": 0,
      "vin": [
        {
          "txid": "97f732db0e2a22e312fd54c81a78a3f18a445c16ed8fc6d08192e53c4299af02",
          "vout": 0,
          "scriptSig": {
            "asm": "3044022079f9279b2778e112e04cdadd74f53dea4eb72a4c3177a117db367ad393cab20402201057e45ac9bfde0addf0d8f561118ffdb879c768cb84418b58223e034851a45b[ALL] 022ebaf28734fa7470134e961c34dcc3d424d82a585507fc262fb634a3f360d6f4",
            "hex": "473044022079f9279b2778e112e04cdadd74f53dea4eb72a4c3177a117db367ad393cab20402201057e45ac9bfde0addf0d8f561118ffdb879c768cb84418b58223e034851a45b0121022ebaf28734fa7470134e961c34dcc3d424d82a585507fc262fb634a3f360d6f4"
          },
          "sequence": 4294967295
        }
      ],
      "vout": [
        {
          "value": 49.68226309,
          "n": 0,
          "scriptPubKey": {
            "asm": "OP_DUP OP_HASH160 26515a23328dadbe4729339889b0a3bd6e1c1b64 OP_EQUALVERIFY OP_CHECKSIG",
            "hex": "76a91426515a23328dadbe4729339889b0a3bd6e1c1b6488ac",
            "reqSigs": 1,
            "type": "pubkeyhash",
            "addresses": [
              "LNiZPwo475oMu2nXFsEx6fFvvh4LgkLbN4"
            ]
          }
        }, 
        {
          "value": 10.00000000,
          "n": 1,
          "scriptPubKey": {
            "asm": "OP_DUP OP_HASH160 7afc18c53d966a3b215c6e4fd714af3d054c139f OP_EQUALVERIFY OP_CHECKSIG",
            "hex": "76a9147afc18c53d966a3b215c6e4fd714af3d054c139f88ac",
            "reqSigs": 1,
            "type": "pubkeyhash",
            "addresses": [
              "LWSEhc7iSVpa5dNBFcWUuosaYdLF2KvKuR"
            ]
          }
        }
      ],
      "hex": "010000000102af99423ce59281d0c68fed165c448af1a3781ac854fd12e3222a0edb32f797000000006a473044022079f9279b2778e112e04cdadd74f53dea4eb72a4c3177a117db367ad393cab20402201057e45ac9bfde0addf0d8f561118ffdb879c768cb84418b58223e034851a45b0121022ebaf28734fa7470134e961c34dcc3d424d82a585507fc262fb634a3f360d6f4ffffffff02051e2128010000001976a91426515a23328dadbe4729339889b0a3bd6e1c1b6488ac00ca9a3b000000001976a9147afc18c53d966a3b215c6e4fd714af3d054c139f88ac00000000"
    }, 
    {
      "txid": "78e9bc4ec435bc288411ecb798f6fd32abf3f17fb351bcd9078ee79dbf9a848d",
      "hash": "78e9bc4ec435bc288411ecb798f6fd32abf3f17fb351bcd9078ee79dbf9a848d",
      "version": 1,
      "size": 225,
      "vsize": 225,
      "locktime": 0,
      "vin": [
        {
          "txid": "24637a448dfec22d0eba0a276f572a77939749e1318402a5a879f9777dad00bf",
          "vout": 0,
          "scriptSig": {
            "asm": "304402204f7572893304a70d4997e2fb26bb56fb4be993a5b4a20ccbecca8dcaf8ae401a0220207505b0bb18fce6e28c5995219588fe0cf3df834b39252d4eb540f57a2cd086[ALL] 03119e48bc59a3f6feccc1f052b40d238069e78c584e56baef93a29b01fd4ac9fe",
            "hex": "47304402204f7572893304a70d4997e2fb26bb56fb4be993a5b4a20ccbecca8dcaf8ae401a0220207505b0bb18fce6e28c5995219588fe0cf3df834b39252d4eb540f57a2cd086012103119e48bc59a3f6feccc1f052b40d238069e78c584e56baef93a29b01fd4ac9fe"
          },
          "sequence": 4294967295
        }
      ],
      "vout": [
        {
          "value": 58.08599009,
          "n": 0,
          "scriptPubKey": {
            "asm": "OP_DUP OP_HASH160 48b8be231c7b4dee4900944930c79abc9a5bdd62 OP_EQUALVERIFY OP_CHECKSIG",
            "hex": "76a91448b8be231c7b4dee4900944930c79abc9a5bdd6288ac",
            "reqSigs": 1,
            "type": "pubkeyhash",
            "addresses": [
              "LRrUEB4RXVBZGBwTT9kxqzK3Y77Ssh5BCo"
            ]
          }
        }, 
        {
          "value": 2.76942516,
          "n": 1,
          "scriptPubKey": {
            "asm": "OP_DUP OP_HASH160 aa94296879795ceba0f06e748eaae86dd468fdf5 OP_EQUALVERIFY OP_CHECKSIG",
            "hex": "76a914aa94296879795ceba0f06e748eaae86dd468fdf588ac",
            "reqSigs": 1,
            "type": "pubkeyhash",
            "addresses": [
              "LamtdHNXJB2hiDQCXADZUzV9EHZMAfhGn1"
            ]
          }
        }
      ],
      "hex": "0100000001bf00ad7d77f979a8a5028431e1499793772a576f270aba0e2dc2fe8d447a6324000000006a47304402204f7572893304a70d4997e2fb26bb56fb4be993a5b4a20ccbecca8dcaf8ae401a0220207505b0bb18fce6e28c5995219588fe0cf3df834b39252d4eb540f57a2cd086012103119e48bc59a3f6feccc1f052b40d238069e78c584e56baef93a29b01fd4ac9feffffffff02e12f385a010000001976a91448b8be231c7b4dee4900944930c79abc9a5bdd6288acb4ce8110000000001976a914aa94296879795ceba0f06e748eaae86dd468fdf588ac00000000"
    }, 
    {
      "txid": "30eb7a709704ce34f3ada4aa94b32fd4c242bbb9988ad3e84d0720ca92133ea2",
      "hash": "30eb7a709704ce34f3ada4aa94b32fd4c242bbb9988ad3e84d0720ca92133ea2",
      "version": 1,
      "size": 225,
      "vsize": 225,
      "locktime": 0,
      "vin": [
        {
          "txid": "0691295fb7813571281ef131753b23ac0b03f4e26561adce4ed6f2d092553acd",
          "vout": 0,
          "scriptSig": {
            "asm": "304402202975095e7c72fdd2d6d7f6219d4944f7c1715abc2f3f2fd1c565cc212bdfb96f02207004d2ea1af0e91d09515ca6b4e0520705527dad465621741d12839d77b59bb8[ALL] 0260dd1f74c1b02822b068b4bdd4d413469f864364c4d381e17191dbdb2a4584da",
            "hex": "47304402202975095e7c72fdd2d6d7f6219d4944f7c1715abc2f3f2fd1c565cc212bdfb96f02207004d2ea1af0e91d09515ca6b4e0520705527dad465621741d12839d77b59bb801210260dd1f74c1b02822b068b4bdd4d413469f864364c4d381e17191dbdb2a4584da"
          },
          "sequence": 4294967295
        }
      ],
      "vout": [
        {
          "value": 3.11992482,
          "n": 0,
          "scriptPubKey": {
            "asm": "OP_DUP OP_HASH160 b6b4297f18b52651794518f488332588398429f7 OP_EQUALVERIFY OP_CHECKSIG",
            "hex": "76a914b6b4297f18b52651794518f488332588398429f788ac",
            "reqSigs": 1,
            "type": "pubkeyhash",
            "addresses": [
              "Lbt151RBPGoVmiHFMFJ1b9U7DNxTsXDAa8"
            ]
          }
        }, 
        {
          "value": 48.12375445,
          "n": 1,
          "scriptPubKey": {
            "asm": "OP_DUP OP_HASH160 4eb397fd8567c7b9da0500ef6e6b144349b67bef OP_EQUALVERIFY OP_CHECKSIG",
            "hex": "76a9144eb397fd8567c7b9da0500ef6e6b144349b67bef88ac",
            "reqSigs": 1,
            "type": "pubkeyhash",
            "addresses": [
              "LSQ67ZmAQcUUWNLsLMh7QoJqf2REq2yhFb"
            ]
          }
        }
      ],
      "hex": "0100000001cd3a5592d0f2d64ecead6165e2f4030bac233b7531f11e28713581b75f299106000000006a47304402202975095e7c72fdd2d6d7f6219d4944f7c1715abc2f3f2fd1c565cc212bdfb96f02207004d2ea1af0e91d09515ca6b4e0520705527dad465621741d12839d77b59bb801210260dd1f74c1b02822b068b4bdd4d413469f864364c4d381e17191dbdb2a4584daffffffff02a2a09812000000001976a914b6b4297f18b52651794518f488332588398429f788ac9505d71e010000001976a9144eb397fd8567c7b9da0500ef6e6b144349b67bef88ac00000000"
    }, 
    {
      "txid": "82d01da6621698f595120a760d0985599c8ac348c042b12e54f27621ecc87608",
      "hash": "82d01da6621698f595120a760d0985599c8ac348c042b12e54f27621ecc87608",
      "version": 1,
      "size": 224,
      "vsize": 224,
      "locktime": 0,
      "vin": [
        {
          "txid": "e1b1468f775f811b28948f86133644b787bde4d826e28f49da2f40a6cbcb1ece",
          "vout": 1,
          "scriptSig": {
            "asm": "3045022100e25f6e6bb8ad24930bdf33300f5e2651c5ce7f3971a33a21549a9ad847efcf2502207f341a42aacdf284698e68c3e180bb37a46f6c1c4bcbe6c8eedfd72cb237f4db[ALL] 03b2014b13a4f15360dcb356516ce6ff3ae69d776b100de8d91ca2970f4e3ae5c1",
            "hex": "483045022100e25f6e6bb8ad24930bdf33300f5e2651c5ce7f3971a33a21549a9ad847efcf2502207f341a42aacdf284698e68c3e180bb37a46f6c1c4bcbe6c8eedfd72cb237f4db012103b2014b13a4f15360dcb356516ce6ff3ae69d776b100de8d91ca2970f4e3ae5c1"
          },
          "sequence": 4294967295
        }
      ],
      "vout": [
        {
          "value": 15.05000000,
          "n": 0,
          "scriptPubKey": {
            "asm": "OP_HASH160 24635ab5360e3c4e6563e25f66a929cd19734719 OP_EQUAL",
            "hex": "a91424635ab5360e3c4e6563e25f66a929cd1973471987",
            "reqSigs": 1,
            "type": "scripthash",
            "addresses": [
              "MBDZabWUMVC27pRCu6WNUAULLWzPsokwPK"
            ]
          }
        }, 
        {
          "value": 38.43826450,
          "n": 1,
          "scriptPubKey": {
            "asm": "OP_DUP OP_HASH160 d4337efb10f6395ec2a8553431c2918d52ea64ce OP_EQUALVERIFY OP_CHECKSIG",
            "hex": "76a914d4337efb10f6395ec2a8553431c2918d52ea64ce88ac",
            "reqSigs": 1,
            "type": "pubkeyhash",
            "addresses": [
              "LeZyCtQddivk5TwkLwryUc9ttcjnsvSjWN"
            ]
          }
        }
      ],
      "hex": "0100000001ce1ecbcba6402fda498fe226d8e4bd87b7443613868f94281b815f778f46b1e1010000006b483045022100e25f6e6bb8ad24930bdf33300f5e2651c5ce7f3971a33a21549a9ad847efcf2502207f341a42aacdf284698e68c3e180bb37a46f6c1c4bcbe6c8eedfd72cb237f4db012103b2014b13a4f15360dcb356516ce6ff3ae69d776b100de8d91ca2970f4e3ae5c1ffffffff02407ab4590000000017a91424635ab5360e3c4e6563e25f66a929cd197347198712231ce5000000001976a914d4337efb10f6395ec2a8553431c2918d52ea64ce88ac00000000"
    }, 
    {
      "txid": "7ceef8289666cff18eb9e6a4f9d5bef9a138a00cd33001b523dc8ecc419fc170",
      "hash": "7ceef8289666cff18eb9e6a4f9d5bef9a138a00cd33001b523dc8ecc419fc170",
      "version": 1,
      "size": 226,
      "vsize": 226,
      "locktime": 0,
      "vin": [
        {
          "txid": "96d571e604464ab06e1765e075a4ae40bfbccbad97d48161fb26ca78ed63a5f8",
          "vout": 1,
          "scriptSig": {
            "asm": "3045022100d71eb8d2ca28cfd930bda04968ec534d4b52d3087443fd7f780898a1484da32b02206d8228968f5d2ad6dbb33be2533fb430e4b7b2e7237aaffe8b511f29f73c394f[ALL] 0204fb056498768fba6b191870b271f8bd5fb684a63879c24900a84d35a565a7f4",
            "hex": "483045022100d71eb8d2ca28cfd930bda04968ec534d4b52d3087443fd7f780898a1484da32b02206d8228968f5d2ad6dbb33be2533fb430e4b7b2e7237aaffe8b511f29f73c394f01210204fb056498768fba6b191870b271f8bd5fb684a63879c24900a84d35a565a7f4"
          },
          "sequence": 4294967295
        }
      ],
      "vout": [
        {
          "value": 14.71746764,
          "n": 0,
          "scriptPubKey": {
            "asm": "OP_DUP OP_HASH160 a782edb993d24869b8af1a19e273c672a435df27 OP_EQUALVERIFY OP_CHECKSIG",
            "hex": "76a914a782edb993d24869b8af1a19e273c672a435df2788ac",
            "reqSigs": 1,
            "type": "pubkeyhash",
            "addresses": [
              "LaVfxKzKvZtYdMEy8wPADgc4gUSomYHzVC"
            ]
          }
        }, 
        {
          "value": 39.10119382,
          "n": 1,
          "scriptPubKey": {
            "asm": "OP_DUP OP_HASH160 5a5bf0fbf7d5a1587d7008e0889940638bff1f8d OP_EQUALVERIFY OP_CHECKSIG",
            "hex": "76a9145a5bf0fbf7d5a1587d7008e0889940638bff1f8d88ac",
            "reqSigs": 1,
            "type": "pubkeyhash",
            "addresses": [
              "LTTjDg4rMtPjxAnt9bux1aJGeFnJFPTkjM"
            ]
          }
        }
      ],
      "hex": "0100000001f8a563ed78ca26fb6181d497adcbbcbf40aea475e065176eb04a4604e671d596010000006b483045022100d71eb8d2ca28cfd930bda04968ec534d4b52d3087443fd7f780898a1484da32b02206d8228968f5d2ad6dbb33be2533fb430e4b7b2e7237aaffe8b511f29f73c394f01210204fb056498768fba6b191870b271f8bd5fb684a63879c24900a84d35a565a7f4ffffffff02cc12b957000000001976a914a782edb993d24869b8af1a19e273c672a435df2788acd6af0fe9000000001976a9145a5bf0fbf7d5a1587d7008e0889940638bff1f8d88ac00000000"
    }
  ],
  "time": 1517081762,
  "mediantime": 1517080751,
  "nonce": 98014544,
  "bits": "1a047f14",
  "difficulty": 3731199.183374282,
  "chainwork": "000000000000000000000000000000000000000000000032c16809c7d4f651f4",
  "previousblockhash": "fec5e88865154796310051d1d86a1076dd40b2b132f2b2f8da7fc077e7d56a85",
  "nextblockhash": "32496db9a21315f2fea6ea35007cfe601d1a57af4f03b5bace28782fd8801f17"
}
