{
  "hash": "8ec40117a7708cee1dc480fc96300a5aafdab63630669b3cd8052645a46f2d20",
  "confirmations": 297,
  "strippedsize": 253,
  "size": 253,
  "weight": 1012,
  "height": 1360697,
  "version": 536870912,
  "versionHex": "20000000",
  "merkleroot": "014e9d612a35e8f961509282d24fd5b38c95f299329854a92b90d6714d938746",
  "tx": [
    {
      "txid": "014e9d612a35e8f961509282d24fd5b38c95f299329854a92b90d6714d938746",
      "hash": "014e9d612a35e8f961509282d24fd5b38c95f299329854a92b90d6714d938746",
      "version": 1,
      "size": 172,
      "vsize": 172,
      "locktime": 0,
      "vin": [
        {
          "coinbase": "0339c3141a4d696e656420627920416e74506f6f6c20626a3242205a72b902fabe6d6d17ff2a0a84d179bffde43bd7e2d602ec6e66ef2869d3a92d065ab6ffdb90c5220400000000000000650900000000000011000000",
          "sequence": 4294967295
        }
      ],
      "vout": [
        {
          "value": 25.00000000,
          "n": 0,
          "scriptPubKey": {
            "asm": "OP_DUP OP_HASH160 0ff3ccc5e8be88afe24b5d634e5852d474dbdff1 OP_EQUALVERIFY OP_CHECKSIG",
            "hex": "76a9140ff3ccc5e8be88afe24b5d634e5852d474dbdff188ac",
            "reqSigs": 1,
            "type": "pubkeyhash",
            "addresses": [
              "LLgJTbzZMsRTCUF1NtvvL9SR1a4pVieW89"
            ]
          }
        }
      ],
      "hex": "01000000010000000000000000000000000000000000000000000000000000000000000000ffffffff570339c3141a4d696e656420627920416e74506f6f6c20626a3242205a72b902fabe6d6d17ff2a0a84d179bffde43bd7e2d602ec6e66ef2869d3a92d065ab6ffdb90c5220400000000000000650900000000000011000000ffffffff0100f90295000000001976a9140ff3ccc5e8be88afe24b5d634e5852d474dbdff188ac00000000"
    }
  ],
  "time": 1517467906,
  "mediantime": 1517466994,
  "nonce": 4274496848,
  "bits": "1a042eae",
  "difficulty": 4011378.762614286,
  "chainwork": "0000000000000000000000000000000000000000000000352e4952595b16fa74",
  "previousblockhash": "bb38bd72e9b79e763ae6e3d26c58680fa66a6e28a0a927412edf6e247472d1a1",
  "nextblockhash": "e0881f3ac00e41faf30a02ed61fe32c65c1be648710343e6bf5b58b24c4a4f18"
}
