{
  "hash": "8f0628702b5ca939ef07c13e6964b3c4353350bc662da79a1f2f97f76b11c0a3",
  "confirmations": 529,
  "strippedsize": 234,
  "size": 234,
  "weight": 936,
  "height": 1360465,
  "version": 536870912,
  "versionHex": "20000000",
  "merkleroot": "6a0c77853ded0f493321f9877a918adc9a29a1f934d798edcdce44651c7f348f",
  "tx": [
    {
      "txid": "6a0c77853ded0f493321f9877a918adc9a29a1f934d798edcdce44651c7f348f",
      "hash": "6a0c77853ded0f493321f9877a918adc9a29a1f934d798edcdce44651c7f348f",
      "version": 1,
      "size": 153,
      "vsize": 153,
      "locktime": 0,
      "vin": [
        {
          "coinbase": "0351c214045a72378c2cfabe6d6d51cef19b11648dae0e9b622c3c778da3bd0851c92be0524029f1f3f3539f8d2a4000000000000000042f4c502f0822008d9103000000",
          "sequence": 4294967295
        }
      ],
      "vout": [
        {
          "value": 25.00000000,
          "n": 0,
          "scriptPubKey": {
            "asm": "OP_DUP OP_HASH160 57757ed2ecf2052ff3126c397aca7defb9ca2cec OP_EQUALVERIFY OP_CHECKSIG",
            "hex": "76a91457757ed2ecf2052ff3126c397aca7defb9ca2cec88ac",
            "reqSigs": 1,
            "type": "pubkeyhash",
            "addresses": [
              "LTCPodGk5FwcJaRzH9yKnwicxzFUbxp6tN"
            ]
          }
        }
      ],
      "hex": "01000000010000000000000000000000000000000000000000000000000000000000000000ffffffff440351c214045a72378c2cfabe6d6d51cef19b11648dae0e9b622c3c778da3bd0851c92be0524029f1f3f3539f8d2a4000000000000000042f4c502f0822008d9103000000ffffffff0100f90295000000001976a91457757ed2ecf2052ff3126c397aca7defb9ca2cec88ac00000000"
    }
  ],
  "time": 1517434764,
  "mediantime": 1517434614,
  "nonce": 356595786,
  "bits": "1a042eae",
  "difficulty": 4011378.762614286,
  "chainwork": "000000000000000000000000000000000000000000000034f6d0aadfc66d5ca4",
  "previousblockhash": "a238c9a46df3a3f7dca6ca1ebeb85d49039c7f293ee627c7d1d9ba3620896aaa",
  "nextblockhash": "ecb115e8473b001f8fe3f6a366c669525693a57c379cc7286251259195015f6b"
}
