{
  "hash": "8f5c3abf164702741731d6957c4ee91f9fcea15d2786000ea5667bfb4c3a33e8",
  "confirmations": 1343,
  "strippedsize": 2793,
  "size": 2829,
  "weight": 11208,
  "height": 1359651,
  "version": 536870912,
  "versionHex": "20000000",
  "merkleroot": "2dbc048ea4ffdd9f006fc1724c1fde9fd044572ecb48a6ce77f9d26d7e7f2408",
  "tx": [
    {
      "txid": "341d6f9e088fabc002220a79c9ca028cbd991bbd790c7bd1886a41ec65f9e12e",
      "hash": "5e39f6de5296dfcfdf7de95966787d7097a2a278365525919cbfeb9e4aca63fd",
      "version": 1,
      "size": 244,
      "vsize": 217,
      "locktime": 0,
      "vin": [
        {
          "coinbase": "0323bf1404305c705a0802dad2fe26000000fabe6d6d2993d60aba96aca530cd39f962e027e69e4d50a8bf639847b98c15ffab9d7ca640000000000000000d2f6e6f64655374726174756d2f",
          "sequence": 0
        }
      ],
      "vout": [
        {
          "value": 25.00545576,
          "n": 0,
          "scriptPubKey": {
            "asm": "OP_DUP OP_HASH160 0c617fdb2ea42aed30a509595ee21ba3f6688db0 OP_EQUALVERIFY OP_CHECKSIG",
            "hex": "76a9140c617fdb2ea42aed30a509595ee21ba3f6688db088ac",
            "reqSigs": 1,
            "type": "pubkeyhash",
            "addresses": [
              "LLMRAtr3qBje2ySEa3CnZ55LA4TQMWnRY3"
            ]
          }
        }, 
        {
          "value": 0.00000000,
          "n": 1,
          "scriptPubKey": {
            "asm": "OP_RETURN aa21a9ed88d1d3a4d7e93d9c65a983b3cfdb842c25c14af3cfe0af746eb3b1fe7cd09a16",
            "hex": "6a24aa21a9ed88d1d3a4d7e93d9c65a983b3cfdb842c25c14af3cfe0af746eb3b1fe7cd09a16",
            "type": "nulldata"
          }
        }
      ],
      "hex": "010000000001010000000000000000000000000000000000000000000000000000000000000000ffffffff4c0323bf1404305c705a0802dad2fe26000000fabe6d6d2993d60aba96aca530cd39f962e027e69e4d50a8bf639847b98c15ffab9d7ca640000000000000000d2f6e6f64655374726174756d2f0000000002284c0b95000000001976a9140c617fdb2ea42aed30a509595ee21ba3f6688db088ac0000000000000000266a24aa21a9ed88d1d3a4d7e93d9c65a983b3cfdb842c25c14af3cfe0af746eb3b1fe7cd09a160120000000000000000000000000000000000000000000000000000000000000000000000000"
    }, 
    {
      "txid": "ec54dee89bcc4bbdd80be017eef917c9ffcef1f7a24c716a92ca18b07846d71a",
      "hash": "ec54dee89bcc4bbdd80be017eef917c9ffcef1f7a24c716a92ca18b07846d71a",
      "version": 1,
      "size": 336,
      "vsize": 336,
      "locktime": 0,
      "vin": [
        {
          "txid": "65f7ada994a9e2fef378f9741d4f7d7a0d920f67ec0441c6e612e0eb02c4e97a",
          "vout": 1,
          "scriptSig": {
            "asm": "0 3045022100ace444d7eae0d1fbab74f1043e95baab3fc247d5f2355b4d3ee41eb91115eb4502206359bac9825d64babb17c8861460d257af37dfb90b339effaf1f5511f6ab3ea9[ALL] 3045022100be98284a73db4612b334163deffec8f68389e8943e6c24b2dd976eaa0dadfefa02200495690b1299a0bc2d5b0b0a04bd28222204a56e627648bc4d36a7e1f76f5804[ALL] 522102879c41dc4a8d49baa96d176ae7196e4284ece09a3655ff4918023b95668187312102f9f27f9ae2ffd81316ca1c9a40d20fd171ca9000cd7976cdede46df9b4698f1d52ae",
            "hex": "00483045022100ace444d7eae0d1fbab74f1043e95baab3fc247d5f2355b4d3ee41eb91115eb4502206359bac9825d64babb17c8861460d257af37dfb90b339effaf1f5511f6ab3ea901483045022100be98284a73db4612b334163deffec8f68389e8943e6c24b2dd976eaa0dadfefa02200495690b1299a0bc2d5b0b0a04bd28222204a56e627648bc4d36a7e1f76f58040147522102879c41dc4a8d49baa96d176ae7196e4284ece09a3655ff4918023b95668187312102f9f27f9ae2ffd81316ca1c9a40d20fd171ca9000cd7976cdede46df9b4698f1d52ae"
          },
          "sequence": 4294967295
        }
      ],
      "vout": [
        {
          "value": 0.67216500,
          "n": 0,
          "scriptPubKey": {
            "asm": "OP_DUP OP_HASH160 05f0fa9a366f34fd2e8f3a1691434e3429eb4f1c OP_EQUALVERIFY OP_CHECKSIG",
            "hex": "76a91405f0fa9a366f34fd2e8f3a1691434e3429eb4f1c88ac",
            "reqSigs": 1,
            "type": "pubkeyhash",
            "addresses": [
              "LKmNKgSK1vXcG2rXbBtQpfeXpHgmGLpG44"
            ]
          }
        }, 
        {
          "value": 53.89148600,
          "n": 1,
          "scriptPubKey": {
            "asm": "OP_HASH160 618d9f70e55d568fa6ed927e427baf5aacaa3d6d OP_EQUAL",
            "hex": "a914618d9f70e55d568fa6ed927e427baf5aacaa3d6d87",
            "reqSigs": 1,
            "type": "scripthash",
            "addresses": [
              "MGnySASNdT3bMNWrQrLtayXfEpRmU9xjqG"
            ]
          }
        }
      ],
      "hex": "01000000017ae9c402ebe012e6c64104ec670f920d7a7d4f1d74f978f3fee2a994a9adf76501000000db00483045022100ace444d7eae0d1fbab74f1043e95baab3fc247d5f2355b4d3ee41eb91115eb4502206359bac9825d64babb17c8861460d257af37dfb90b339effaf1f5511f6ab3ea901483045022100be98284a73db4612b334163deffec8f68389e8943e6c24b2dd976eaa0dadfefa02200495690b1299a0bc2d5b0b0a04bd28222204a56e627648bc4d36a7e1f76f58040147522102879c41dc4a8d49baa96d176ae7196e4284ece09a3655ff4918023b95668187312102f9f27f9ae2ffd81316ca1c9a40d20fd171ca9000cd7976cdede46df9b4698f1d52aeffffffff0274a40104000000001976a91405f0fa9a366f34fd2e8f3a1691434e3429eb4f1c88acb8e137410100000017a914618d9f70e55d568fa6ed927e427baf5aacaa3d6d8700000000"
    }, 
    {
      "txid": "1b156ab90ef1c001c7af7e1a9083b62396a37d3e8ef926705313065e5d17587a",
      "hash": "1b156ab90ef1c001c7af7e1a9083b62396a37d3e8ef926705313065e5d17587a",
      "version": 1,
      "size": 589,
      "vsize": 589,
      "locktime": 1359649,
      "vin": [
        {
          "txid": "9bb80fb5889e3f811aa645bb6f6fdf22a979177af82ebf239903c492bdab25b8",
          "vout": 0,
          "scriptSig": {
            "asm": "3045022100e3c3f37fc30756e97e79e15217d4d6a7e870fe0a6581a8fd54de66fe17bb08c202203cf934f4bcb43f4f5758e4e0aef5350499b405f60f12b143d4607df8372768ff[ALL] 02cd20da552955b4ec610e53488e89ad662bd3a562ff4ed7e6ac7d0759a05c0e54",
            "hex": "483045022100e3c3f37fc30756e97e79e15217d4d6a7e870fe0a6581a8fd54de66fe17bb08c202203cf934f4bcb43f4f5758e4e0aef5350499b405f60f12b143d4607df8372768ff012102cd20da552955b4ec610e53488e89ad662bd3a562ff4ed7e6ac7d0759a05c0e54"
          },
          "sequence": 4294967294
        }, 
        {
          "txid": "82643638e91859372fbae92b42d1094a000b2e82f55c6ac4c5c92cc5333014a2",
          "vout": 61,
          "scriptSig": {
            "asm": "304402200a8bfacee74fde85440cad27f86baf33f83be9cdfa32cd3516d13d82ad89ec03022045f1f9ea80869056f3877a41e52f94607f0845cd83a02d65cf1b7fcb73f91ccd[ALL] 038aa791f0ccbbe519c917c6d1cca9097a11b8d02be9ecf35b99cc7f709cfa1117",
            "hex": "47304402200a8bfacee74fde85440cad27f86baf33f83be9cdfa32cd3516d13d82ad89ec03022045f1f9ea80869056f3877a41e52f94607f0845cd83a02d65cf1b7fcb73f91ccd0121038aa791f0ccbbe519c917c6d1cca9097a11b8d02be9ecf35b99cc7f709cfa1117"
          },
          "sequence": 4294967294
        }, 
        {
          "txid": "75037c95d39c9fae1ce3b1a9c8749ef363c764f46e3ec3dbd0a74ea7111f3710",
          "vout": 1,
          "scriptSig": {
            "asm": "304502210093b2c7f0655cf385ed48324951ee5bb118b222db3c3305bca5640d2f915e0c2b022003fdf8a7f02b0f174da2d5136f432d0535690e949dc99e8eb0cf6e93a883bd40[ALL] 0227644b5e8949cf71cc976b8f08fe2a9f276b62f589178df9762f59c0da58edd7",
            "hex": "48304502210093b2c7f0655cf385ed48324951ee5bb118b222db3c3305bca5640d2f915e0c2b022003fdf8a7f02b0f174da2d5136f432d0535690e949dc99e8eb0cf6e93a883bd4001210227644b5e8949cf71cc976b8f08fe2a9f276b62f589178df9762f59c0da58edd7"
          },
          "sequence": 4294967294
        }
      ],
      "vout": [
        {
          "value": 3.99500000,
          "n": 0,
          "scriptPubKey": {
            "asm": "OP_DUP OP_HASH160 32e18defc703586420316c80e498f5025fb5a89c OP_EQUALVERIFY OP_CHECKSIG",
            "hex": "76a91432e18defc703586420316c80e498f5025fb5a89c88ac",
            "reqSigs": 1,
            "type": "pubkeyhash",
            "addresses": [
              "LPrzFbrbn7GPCgFo9JJvfaoz5osJF8Dvet"
            ]
          }
        }, 
        {
          "value": 0.94676200,
          "n": 1,
          "scriptPubKey": {
            "asm": "OP_DUP OP_HASH160 a7a41fa65feab0ae1ebec6342db6b10728dce6d7 OP_EQUALVERIFY OP_CHECKSIG",
            "hex": "76a914a7a41fa65feab0ae1ebec6342db6b10728dce6d788ac",
            "reqSigs": 1,
            "type": "pubkeyhash",
            "addresses": [
              "LaWMikx9tv6N8B1DmGgzKN5N3qfGug9MbN"
            ]
          }
        }, 
        {
          "value": 0.01000079,
          "n": 2,
          "scriptPubKey": {
            "asm": "OP_DUP OP_HASH160 109f27f00691b32ef7a09c68b0164353fd840e4d OP_EQUALVERIFY OP_CHECKSIG",
            "hex": "76a914109f27f00691b32ef7a09c68b0164353fd840e4d88ac",
            "reqSigs": 1,
            "type": "pubkeyhash",
            "addresses": [
              "LLjqjdp1TaTtBG9nn4Z6a6ErNmGBxX2LiE"
            ]
          }
        }, 
        {
          "value": 19.42137390,
          "n": 3,
          "scriptPubKey": {
            "asm": "OP_DUP OP_HASH160 84136c060098e5b574e2cfa3a44dd5de3e062a4f OP_EQUALVERIFY OP_CHECKSIG",
            "hex": "76a91484136c060098e5b574e2cfa3a44dd5de3e062a4f88ac",
            "reqSigs": 1,
            "type": "pubkeyhash",
            "addresses": [
              "LXGJizkZbcMGSx3DR76aQ7PuVRqQ5ZeHFL"
            ]
          }
        }
      ],
      "hex": "0100000003b825abbd92c4039923bf2ef87a1779a922df6f6fbb45a61a813f9e88b50fb89b000000006b483045022100e3c3f37fc30756e97e79e15217d4d6a7e870fe0a6581a8fd54de66fe17bb08c202203cf934f4bcb43f4f5758e4e0aef5350499b405f60f12b143d4607df8372768ff012102cd20da552955b4ec610e53488e89ad662bd3a562ff4ed7e6ac7d0759a05c0e54feffffffa2143033c52cc9c5c46a5cf5822e0b004a09d1422be9ba2f375918e9383664823d0000006a47304402200a8bfacee74fde85440cad27f86baf33f83be9cdfa32cd3516d13d82ad89ec03022045f1f9ea80869056f3877a41e52f94607f0845cd83a02d65cf1b7fcb73f91ccd0121038aa791f0ccbbe519c917c6d1cca9097a11b8d02be9ecf35b99cc7f709cfa1117feffffff10371f11a74ea7d0dbc33e6ef464c763f39e74c8a9b1e31cae9f9cd3957c0375010000006b48304502210093b2c7f0655cf385ed48324951ee5bb118b222db3c3305bca5640d2f915e0c2b022003fdf8a7f02b0f174da2d5136f432d0535690e949dc99e8eb0cf6e93a883bd4001210227644b5e8949cf71cc976b8f08fe2a9f276b62f589178df9762f59c0da58edd7feffffff04e0e2cf17000000001976a91432e18defc703586420316c80e498f5025fb5a89c88ace8a4a405000000001976a914a7a41fa65feab0ae1ebec6342db6b10728dce6d788ac8f420f00000000001976a914109f27f00691b32ef7a09c68b0164353fd840e4d88ac2eaac273000000001976a91484136c060098e5b574e2cfa3a44dd5de3e062a4f88ac21bf1400"
    }, 
    {
      "txid": "3b1f49e8b2b1ad986199ae900e91f712f836954804129ded5ba5675984c79546",
      "hash": "3b1f49e8b2b1ad986199ae900e91f712f836954804129ded5ba5675984c79546",
      "version": 2,
      "size": 226,
      "vsize": 226,
      "locktime": 0,
      "vin": [
        {
          "txid": "f2af0af0bf093985b7a486d687c24f0f6afc3ad9570e93bb20236dd86e7a2716",
          "vout": 0,
          "scriptSig": {
            "asm": "3045022100db6aa634b11d418574682f2ef606fa1213d2b6ca0c620905ee5da58889100051022069c3802fb71be69c8878719a19c262067e32451d24854354325f3cbcf4379d69[ALL] 033d26e3293642a10c8382a5b7cd61adb2672daf301e77fc5d83d84f193ba7a806",
            "hex": "483045022100db6aa634b11d418574682f2ef606fa1213d2b6ca0c620905ee5da58889100051022069c3802fb71be69c8878719a19c262067e32451d24854354325f3cbcf4379d690121033d26e3293642a10c8382a5b7cd61adb2672daf301e77fc5d83d84f193ba7a806"
          },
          "sequence": 4294967295
        }
      ],
      "vout": [
        {
          "value": 1.37000000,
          "n": 0,
          "scriptPubKey": {
            "asm": "OP_DUP OP_HASH160 26222dd5f9307b1d76bb67d0cc55db204b40fda3 OP_EQUALVERIFY OP_CHECKSIG",
            "hex": "76a91426222dd5f9307b1d76bb67d0cc55db204b40fda388ac",
            "reqSigs": 1,
            "type": "pubkeyhash",
            "addresses": [
              "LNhatJc2rH3AmDZG6Wynir7NgdqTuvTEdT"
            ]
          }
        }, 
        {
          "value": 10.62944824,
          "n": 1,
          "scriptPubKey": {
            "asm": "OP_DUP OP_HASH160 c9da2272cbee8e0f329061e69b8ab25f736cfe1c OP_EQUALVERIFY OP_CHECKSIG",
            "hex": "76a914c9da2272cbee8e0f329061e69b8ab25f736cfe1c88ac",
            "reqSigs": 1,
            "type": "pubkeyhash",
            "addresses": [
              "LddFQ2UEFqXyA7pLgn43oU577EZPgre4SD"
            ]
          }
        }
      ],
      "hex": "020000000116277a6ed86d2320bb930e57d93afc6a0f4fc287d686a4b7853909bff00aaff2000000006b483045022100db6aa634b11d418574682f2ef606fa1213d2b6ca0c620905ee5da58889100051022069c3802fb71be69c8878719a19c262067e32451d24854354325f3cbcf4379d690121033d26e3293642a10c8382a5b7cd61adb2672daf301e77fc5d83d84f193ba7a806ffffffff0240742a08000000001976a91426222dd5f9307b1d76bb67d0cc55db204b40fda388ac38405b3f000000001976a914c9da2272cbee8e0f329061e69b8ab25f736cfe1c88ac00000000"
    }, 
    {
      "txid": "a5304a64add0ebfd1ef6f65a60830c712cea10069f25e4710aa8f9e08e968707",
      "hash": "a5304a64add0ebfd1ef6f65a60830c712cea10069f25e4710aa8f9e08e968707",
      "version": 2,
      "size": 225,
      "vsize": 225,
      "locktime": 1359649,
      "vin": [
        {
          "txid": "26c0f454dd24da632b8d773442ad4d06991d1d10b3770d2d63621b659b29bcdb",
          "vout": 0,
          "scriptSig": {
            "asm": "304402202803e86625cf951c319d0783e00bd386db2ac148720a2140ee449e41f936b18d0220362145b90f9b1b11618b58dbd184097444aa72dd882a55607d3b44f535ebe010[ALL] 02ed1a911c6e25c051ae87c9282f4ea2771c076f967845bd12c2f16c379bb95990",
            "hex": "47304402202803e86625cf951c319d0783e00bd386db2ac148720a2140ee449e41f936b18d0220362145b90f9b1b11618b58dbd184097444aa72dd882a55607d3b44f535ebe010012102ed1a911c6e25c051ae87c9282f4ea2771c076f967845bd12c2f16c379bb95990"
          },
          "sequence": 4294967294
        }
      ],
      "vout": [
        {
          "value": 9.00000000,
          "n": 0,
          "scriptPubKey": {
            "asm": "OP_DUP OP_HASH160 59a84c5172dec27bb071f9e351ac964049f9aa6a OP_EQUALVERIFY OP_CHECKSIG",
            "hex": "76a91459a84c5172dec27bb071f9e351ac964049f9aa6a88ac",
            "reqSigs": 1,
            "type": "pubkeyhash",
            "addresses": [
              "LTQ21quy1CAL7nePSefTQdrSnpBbNVaJEQ"
            ]
          }
        }, 
        {
          "value": 335.81081172,
          "n": 1,
          "scriptPubKey": {
            "asm": "OP_DUP OP_HASH160 0c0bb9fb1156edda846b87f1b75a704f1f338729 OP_EQUALVERIFY OP_CHECKSIG",
            "hex": "76a9140c0bb9fb1156edda846b87f1b75a704f1f33872988ac",
            "reqSigs": 1,
            "type": "pubkeyhash",
            "addresses": [
              "LLKeRHWzmJXGDBasz9mFhuZUFa1iMiSUXG"
            ]
          }
        }
      ],
      "hex": "0200000001dbbc299b651b62632d0d77b3101d1d99064dad4234778d2b63da24dd54f4c026000000006a47304402202803e86625cf951c319d0783e00bd386db2ac148720a2140ee449e41f936b18d0220362145b90f9b1b11618b58dbd184097444aa72dd882a55607d3b44f535ebe010012102ed1a911c6e25c051ae87c9282f4ea2771c076f967845bd12c2f16c379bb95990feffffff0200e9a435000000001976a91459a84c5172dec27bb071f9e351ac964049f9aa6a88ac54a296d1070000001976a9140c0bb9fb1156edda846b87f1b75a704f1f33872988ac21bf1400"
    }, 
    {
      "txid": "35983bdccf701e24352f8c3cd4d081d9105b0acf0fdbeb481ba2d4cae976ba7f",
      "hash": "35983bdccf701e24352f8c3cd4d081d9105b0acf0fdbeb481ba2d4cae976ba7f",
      "version": 1,
      "size": 225,
      "vsize": 225,
      "locktime": 0,
      "vin": [
        {
          "txid": "358e19fdd7b2a0d8aff470a4992b6604ddeb986852f60c799986df42c11c4b91",
          "vout": 6,
          "scriptSig": {
            "asm": "30440220095a438af705b70a08b1a4e92feffc19f52d0d77979d9e54238f4f8df0f4e7c302204ef1e2d220a310faaab6b21c21391ede131b37200f4e992a09ef11980b0fd7bc[ALL] 02a8dc49c08d0b11d30b30998f22d4b5ae4428101cc3d0386b31ea4f62a6a34aa7",
            "hex": "4730440220095a438af705b70a08b1a4e92feffc19f52d0d77979d9e54238f4f8df0f4e7c302204ef1e2d220a310faaab6b21c21391ede131b37200f4e992a09ef11980b0fd7bc012102a8dc49c08d0b11d30b30998f22d4b5ae4428101cc3d0386b31ea4f62a6a34aa7"
          },
          "sequence": 4294967295
        }
      ],
      "vout": [
        {
          "value": 0.50482382,
          "n": 0,
          "scriptPubKey": {
            "asm": "OP_DUP OP_HASH160 22275f7e8db70ddf36832b4f6168b67590bf0c38 OP_EQUALVERIFY OP_CHECKSIG",
            "hex": "76a91422275f7e8db70ddf36832b4f6168b67590bf0c3888ac",
            "reqSigs": 1,
            "type": "pubkeyhash",
            "addresses": [
              "LNLYQRNQ5TFs89oXTRR1Ug6UeVCTWkYEWU"
            ]
          }
        }, 
        {
          "value": 0.82378514,
          "n": 1,
          "scriptPubKey": {
            "asm": "OP_DUP OP_HASH160 277a79dab7bdc3d46a0883e14379669bc13c3ad9 OP_EQUALVERIFY OP_CHECKSIG",
            "hex": "76a914277a79dab7bdc3d46a0883e14379669bc13c3ad988ac",
            "reqSigs": 1,
            "type": "pubkeyhash",
            "addresses": [
              "LNphLUYFL7XWLipP8cF7SotbVFnXu2rFaV"
            ]
          }
        }
      ],
      "hex": "0100000001914b1cc142df8699790cf6526898ebdd04662b99a470f4afd8a0b2d7fd198e35060000006a4730440220095a438af705b70a08b1a4e92feffc19f52d0d77979d9e54238f4f8df0f4e7c302204ef1e2d220a310faaab6b21c21391ede131b37200f4e992a09ef11980b0fd7bc012102a8dc49c08d0b11d30b30998f22d4b5ae4428101cc3d0386b31ea4f62a6a34aa7ffffffff02ce4c0203000000001976a91422275f7e8db70ddf36832b4f6168b67590bf0c3888ac12ffe804000000001976a914277a79dab7bdc3d46a0883e14379669bc13c3ad988ac00000000"
    }, 
    {
      "txid": "1b751d1e4c451fb297097d72d77e8ae7cc93a1fc58990ee28ad9bd10f6cdba88",
      "hash": "1b751d1e4c451fb297097d72d77e8ae7cc93a1fc58990ee28ad9bd10f6cdba88",
      "version": 2,
      "size": 225,
      "vsize": 225,
      "locktime": 1359649,
      "vin": [
        {
          "txid": "d6813c14ddc5e0736b4341038574c073dec734368a8c97a1258eab5fef99aa43",
          "vout": 0,
          "scriptSig": {
            "asm": "304402200d843fe6099575a12a2d9cdefc42480cba1540a0f18322216aac16f69b14acc302201d648616b90ded15b1daaa80ba8359d458bd1a0a96baedd0876f90d108ecd901[ALL] 03422b4829c8e8c780cd4b7be76ee571a4d15235feb2fb562790a73e7baa273dc0",
            "hex": "47304402200d843fe6099575a12a2d9cdefc42480cba1540a0f18322216aac16f69b14acc302201d648616b90ded15b1daaa80ba8359d458bd1a0a96baedd0876f90d108ecd901012103422b4829c8e8c780cd4b7be76ee571a4d15235feb2fb562790a73e7baa273dc0"
          },
          "sequence": 4294967294
        }
      ],
      "vout": [
        {
          "value": 0.08033251,
          "n": 0,
          "scriptPubKey": {
            "asm": "OP_DUP OP_HASH160 9f2085208173e91d95453ab223c77e1a5ad0b679 OP_EQUALVERIFY OP_CHECKSIG",
            "hex": "76a9149f2085208173e91d95453ab223c77e1a5ad0b67988ac",
            "reqSigs": 1,
            "type": "pubkeyhash",
            "addresses": [
              "LZjLfFAxPcx3QrG9vYGMZTwTveGKNJ4AAy"
            ]
          }
        }, 
        {
          "value": 157.81610679,
          "n": 1,
          "scriptPubKey": {
            "asm": "OP_DUP OP_HASH160 1614ca136e01572169f29570977808f805804cce OP_EQUALVERIFY OP_CHECKSIG",
            "hex": "76a9141614ca136e01572169f29570977808f805804cce88ac",
            "reqSigs": 1,
            "type": "pubkeyhash",
            "addresses": [
              "LMEi2uLqvCu3UVLE8MwYiMHSUjqv3aZpaB"
            ]
          }
        }
      ],
      "hex": "020000000143aa99ef5fab8e25a1978c8a3634c7de73c074850341436b73e0c5dd143c81d6000000006a47304402200d843fe6099575a12a2d9cdefc42480cba1540a0f18322216aac16f69b14acc302201d648616b90ded15b1daaa80ba8359d458bd1a0a96baedd0876f90d108ecd901012103422b4829c8e8c780cd4b7be76ee571a4d15235feb2fb562790a73e7baa273dc0feffffff02e3937a00000000001976a9149f2085208173e91d95453ab223c77e1a5ad0b67988acb744a8ac030000001976a9141614ca136e01572169f29570977808f805804cce88ac21bf1400"
    }, 
    {
      "txid": "f123b85c0df80afc162a250882b9cdf559ff96063af71c9cb8d234398a12f714",
      "hash": "f123b85c0df80afc162a250882b9cdf559ff96063af71c9cb8d234398a12f714",
      "version": 2,
      "size": 226,
      "vsize": 226,
      "locktime": 1359649,
      "vin": [
        {
          "txid": "3d6411320a0d433fbab630f4a5bbc46df83fb02a22c9ce1095a01a8db43bc53b",
          "vout": 1,
          "scriptSig": {
            "asm": "3045022100c49c694613f6f41c18a314425879e5f4121196f7097f907bff06d56d22ba130f022048be5f632415b609d293cbfd1913566002fff29eaec1f2a79815c11f3d8768e0[ALL] 039c433ff79d98d02ce8746cf00e16fe60da35713e697b1afb3d5ca164e9c1a03e",
            "hex": "483045022100c49c694613f6f41c18a314425879e5f4121196f7097f907bff06d56d22ba130f022048be5f632415b609d293cbfd1913566002fff29eaec1f2a79815c11f3d8768e00121039c433ff79d98d02ce8746cf00e16fe60da35713e697b1afb3d5ca164e9c1a03e"
          },
          "sequence": 4294967294
        }
      ],
      "vout": [
        {
          "value": 1.06030000,
          "n": 0,
          "scriptPubKey": {
            "asm": "OP_DUP OP_HASH160 632fc66ad350c788e104f80b914e319c5de21d4e OP_EQUALVERIFY OP_CHECKSIG",
            "hex": "76a914632fc66ad350c788e104f80b914e319c5de21d4e88ac",
            "reqSigs": 1,
            "type": "pubkeyhash",
            "addresses": [
              "LUGQPg3xk76KcAKHUW9ShnHQt2xxnVZUce"
            ]
          }
        }, 
        {
          "value": 219.86716491,
          "n": 1,
          "scriptPubKey": {
            "asm": "OP_DUP OP_HASH160 5c3b1a0500a8006a472ac0ade2d9369d2cc99f6c OP_EQUALVERIFY OP_CHECKSIG",
            "hex": "76a9145c3b1a0500a8006a472ac0ade2d9369d2cc99f6c88ac",
            "reqSigs": 1,
            "type": "pubkeyhash",
            "addresses": [
              "LTddEKEpPskF69i2L8tdBpYLVT2azCnE3D"
            ]
          }
        }
      ],
      "hex": "02000000013bc53bb48d1aa09510cec9222ab03ff86dc4bba5f430b6ba3f430d0a3211643d010000006b483045022100c49c694613f6f41c18a314425879e5f4121196f7097f907bff06d56d22ba130f022048be5f632415b609d293cbfd1913566002fff29eaec1f2a79815c11f3d8768e00121039c433ff79d98d02ce8746cf00e16fe60da35713e697b1afb3d5ca164e9c1a03efeffffff02b0e35106000000001976a914632fc66ad350c788e104f80b914e319c5de21d4e88ac4bab821e050000001976a9145c3b1a0500a8006a472ac0ade2d9369d2cc99f6c88ac21bf1400"
    }, 
    {
      "txid": "a718715d9255bd3f98fd1e52deeee04c2144c7b2eb437bef494ae70885288a38",
      "hash": "a718715d9255bd3f98fd1e52deeee04c2144c7b2eb437bef494ae70885288a38",
      "version": 2,
      "size": 226,
      "vsize": 226,
      "locktime": 1359649,
      "vin": [
        {
          "txid": "dc33c476fb8470e237e735f7d8aad5c54927ce25a0797b6b0262e5eeef198061",
          "vout": 4,
          "scriptSig": {
            "asm": "30450221008b7758de3624cc98f9cda6c7320c4dbbf16d1ffffb1f3223a9660082f028b45402203ddbb476715b14920e2529520eaacd0646625bd53a5c52c2cf22fdce337739a0[ALL] 038ba189913b42ac26de55ebefa5da329631634331b2d662d2d8e96fd1f2320511",
            "hex": "4830450221008b7758de3624cc98f9cda6c7320c4dbbf16d1ffffb1f3223a9660082f028b45402203ddbb476715b14920e2529520eaacd0646625bd53a5c52c2cf22fdce337739a00121038ba189913b42ac26de55ebefa5da329631634331b2d662d2d8e96fd1f2320511"
          },
          "sequence": 4294967294
        }
      ],
      "vout": [
        {
          "value": 0.62393000,
          "n": 0,
          "scriptPubKey": {
            "asm": "OP_DUP OP_HASH160 cee0403463be3f2d791ffde6192d3bfc71b6078c OP_EQUALVERIFY OP_CHECKSIG",
            "hex": "76a914cee0403463be3f2d791ffde6192d3bfc71b6078c88ac",
            "reqSigs": 1,
            "type": "pubkeyhash",
            "addresses": [
              "Le5p6wywruEsuxr8HLeWFayyn9SvtvBX6y"
            ]
          }
        }, 
        {
          "value": 2.05456400,
          "n": 1,
          "scriptPubKey": {
            "asm": "OP_DUP OP_HASH160 c1453ccd611cda5794f3376dfc4c62ad396bf228 OP_EQUALVERIFY OP_CHECKSIG",
            "hex": "76a914c1453ccd611cda5794f3376dfc4c62ad396bf22888ac",
            "reqSigs": 1,
            "type": "pubkeyhash",
            "addresses": [
              "LcqscwdchzNLS6AworLqadPiJbotQ4nnWH"
            ]
          }
        }
      ],
      "hex": "0200000001618019efeee562026b7b79a025ce2749c5d5aad8f735e737e27084fb76c433dc040000006b4830450221008b7758de3624cc98f9cda6c7320c4dbbf16d1ffffb1f3223a9660082f028b45402203ddbb476715b14920e2529520eaacd0646625bd53a5c52c2cf22fdce337739a00121038ba189913b42ac26de55ebefa5da329631634331b2d662d2d8e96fd1f2320511feffffff02a80ab803000000001976a914cee0403463be3f2d791ffde6192d3bfc71b6078c88ac10043f0c000000001976a914c1453ccd611cda5794f3376dfc4c62ad396bf22888ac21bf1400"
    }, 
    {
      "txid": "76bff3ed61c429d945c46591a36042fc13ad40b407a299d265727d50a2a4a745",
      "hash": "76bff3ed61c429d945c46591a36042fc13ad40b407a299d265727d50a2a4a745",
      "version": 2,
      "size": 226,
      "vsize": 226,
      "locktime": 1359649,
      "vin": [
        {
          "txid": "ceeacbca4eb21bad4fcf4c591c5edca9bdf8ec629804e5a4b4c9bc5d8bf63130",
          "vout": 0,
          "scriptSig": {
            "asm": "3045022100e1ef32de9e5acf01b0df554cde1260b326ab83654de130fddb2f77075853ccb70220283cb137a18a9750eaa21cb63e78ae21a957152717bdda4047f254caa6ab519a[ALL] 02e1814b626879e593fe8e5bffd8a888289de2d48dbe2ca501a62ea82755b30b83",
            "hex": "483045022100e1ef32de9e5acf01b0df554cde1260b326ab83654de130fddb2f77075853ccb70220283cb137a18a9750eaa21cb63e78ae21a957152717bdda4047f254caa6ab519a012102e1814b626879e593fe8e5bffd8a888289de2d48dbe2ca501a62ea82755b30b83"
          },
          "sequence": 4294967294
        }
      ],
      "vout": [
        {
          "value": 0.24466110,
          "n": 0,
          "scriptPubKey": {
            "asm": "OP_DUP OP_HASH160 9cab2524de2b7c0c7d58cf0eb196775c13b11dae OP_EQUALVERIFY OP_CHECKSIG",
            "hex": "76a9149cab2524de2b7c0c7d58cf0eb196775c13b11dae88ac",
            "reqSigs": 1,
            "type": "pubkeyhash",
            "addresses": [
              "LZWLhWRf5ArVWUGMd4wd7rGCK6QLqaPLqT"
            ]
          }
        }, 
        {
          "value": 55.77275356,
          "n": 1,
          "scriptPubKey": {
            "asm": "OP_DUP OP_HASH160 2c93a201f278ac0ecd502c5e31580f490a865e7c OP_EQUALVERIFY OP_CHECKSIG",
            "hex": "76a9142c93a201f278ac0ecd502c5e31580f490a865e7c88ac",
            "reqSigs": 1,
            "type": "pubkeyhash",
            "addresses": [
              "LPHerN2FgwQr5ySDQUZv2mv6N4n59FHxDp"
            ]
          }
        }
      ],
      "hex": "02000000013031f68b5dbcc9b4a4e5049862ecf8bda9dc5e1c594ccf4fad1bb24ecacbeace000000006b483045022100e1ef32de9e5acf01b0df554cde1260b326ab83654de130fddb2f77075853ccb70220283cb137a18a9750eaa21cb63e78ae21a957152717bdda4047f254caa6ab519a012102e1814b626879e593fe8e5bffd8a888289de2d48dbe2ca501a62ea82755b30b83feffffff02be527501000000001976a9149cab2524de2b7c0c7d58cf0eb196775c13b11dae88acdc776e4c010000001976a9142c93a201f278ac0ecd502c5e31580f490a865e7c88ac21bf1400"
    }
  ],
  "time": 1517312797,
  "mediantime": 1517312395,
  "nonce": 908153239,
  "bits": "1a042eae",
  "difficulty": 4011378.762614286,
  "chainwork": "000000000000000000000000000000000000000000000034342ff5564c466148",
  "previousblockhash": "f516bf45120e0a742fb1873e191faddd5abf66d6936953a9de515342ff1df7fb",
  "nextblockhash": "3a4bcd1c6cd8b86847b1a980cb00ed8d0f7ea3bbf3cfa5b9d7a0ea47f254cf58"
}
