{
  "hash": "8fa18e22f2c6826a17968ec73cca5644071e403bb1521455175dda9a76b57be9",
  "confirmations": 2882,
  "strippedsize": 5738,
  "size": 5995,
  "weight": 23209,
  "height": 1358113,
  "version": 536870912,
  "versionHex": "20000000",
  "merkleroot": "0919b1bec31ba8aecbc174da2c0dc6b6975609436a4d7c8280fe1ad001f74e8b",
  "tx": [
    {
      "txid": "a965f9da0146e73f54290410c5ab620be162d2b064792208c134561eac27dc8f",
      "hash": "1458db9efb52eaed231f1f48499f08426a436b47929a836feb8d9255b5738c2d",
      "version": 1,
      "size": 251,
      "vsize": 224,
      "locktime": 0,
      "vin": [
        {
          "coinbase": "0321b9140000000000fabe6d6d1aae7c9024fc1961f65a619801a437738f851450163a2871de66fed00f2a449701000000000000000407f96c5a04c6efb30108e5139de9110000000a42570a6657042f42572f",
          "sequence": 4294967295
        }
      ],
      "vout": [
        {
          "value": 25.00624600,
          "n": 0,
          "scriptPubKey": {
            "asm": "OP_DUP OP_HASH160 5373bc9425fd49e6bfe522d3dfc85432da2cc023 OP_EQUALVERIFY OP_CHECKSIG",
            "hex": "76a9145373bc9425fd49e6bfe522d3dfc85432da2cc02388ac",
            "reqSigs": 1,
            "type": "pubkeyhash",
            "addresses": [
              "LSqCzf5bPfkqGf94pJcfxWx5bZMPJE5XRf"
            ]
          }
        }, 
        {
          "value": 0.00000000,
          "n": 1,
          "scriptPubKey": {
            "asm": "OP_RETURN aa21a9edece46f976216057baa231126d9a9deb60c66264ad7a7d195b2a94f90731c27a9",
            "hex": "6a24aa21a9edece46f976216057baa231126d9a9deb60c66264ad7a7d195b2a94f90731c27a9",
            "type": "nulldata"
          }
        }
      ],
      "hex": "010000000001010000000000000000000000000000000000000000000000000000000000000000ffffffff530321b9140000000000fabe6d6d1aae7c9024fc1961f65a619801a437738f851450163a2871de66fed00f2a449701000000000000000407f96c5a04c6efb30108e5139de9110000000a42570a6657042f42572fffffffff02d8800c95000000001976a9145373bc9425fd49e6bfe522d3dfc85432da2cc02388ac0000000000000000266a24aa21a9edece46f976216057baa231126d9a9deb60c66264ad7a7d195b2a94f90731c27a90120000000000000000000000000000000000000000000000000000000000000000000000000"
    }, 
    {
      "txid": "084712000ad620d9da1785d60a7363856b337761a7476a580fa7eda94b729735",
      "hash": "fbd054c9f88aecbda4f0c6c7c0dca64cb681ff76f5008c306a8dc3569e8addad",
      "version": 1,
      "size": 373,
      "vsize": 208,
      "locktime": 0,
      "vin": [
        {
          "txid": "3731672108237cd23672594095907cbc6dc112c841f2b033685e323ecdaf5e90",
          "vout": 0,
          "scriptSig": {
            "asm": "002078aa5af5fb3fb2abbeec275850ea6facd8bee6ed8ad3986043911c4dce0b01da",
            "hex": "22002078aa5af5fb3fb2abbeec275850ea6facd8bee6ed8ad3986043911c4dce0b01da"
          },
          "txinwitness": [
            "", 
            "3044022007693fb6a534b066ff2d115eb73431bf24f020ad4a6aa8771bd9c44777757fa70220742db9da6a6c40c34871b05fac70e619ad0c64521ed955944fa3220f4107cfec01", 
            "3045022100d6158aa0ca809f1b472c8f1dcbd33810a6bc46d30f2575076f99f7318adf32940220778942f39e6e0e854f2eefa3b84195f7a22eab6cd63ddaf77764a5f8279e609c01", 
            "52210395bc6fc56eb8c09ff4c9f3301e7a2f29a69d3538d0cafcee1dd154b3f11004e5210236dd13eec420796a9767ef397e23c832bf3dda604675a2d17ad19c0007ac720552ae"
          ],
          "sequence": 4294967295
        }
      ],
      "vout": [
        {
          "value": 0.30319776,
          "n": 0,
          "scriptPubKey": {
            "asm": "OP_DUP OP_HASH160 6c157d8a2ae75739a3894a1cfb461c12dc23944d OP_EQUALVERIFY OP_CHECKSIG",
            "hex": "76a9146c157d8a2ae75739a3894a1cfb461c12dc23944d88ac",
            "reqSigs": 1,
            "type": "pubkeyhash",
            "addresses": [
              "LV5Sz7HQ5zhyLYFhaoqjikVc4Fo57kGdJr"
            ]
          }
        }, 
        {
          "value": 0.54658916,
          "n": 1,
          "scriptPubKey": {
            "asm": "OP_HASH160 2875cf503690e69e1ef58e019fbe71459cbe3594 OP_EQUAL",
            "hex": "a9142875cf503690e69e1ef58e019fbe71459cbe359487",
            "reqSigs": 1,
            "type": "scripthash",
            "addresses": [
              "MBb6PfzNAGKFp2QqHpFjHWWTSbCMHFSH9J"
            ]
          }
        }
      ],
      "hex": "01000000000101905eafcd3e325e6833b0f241c812c16dbc7c909540597236d27c230821673137000000002322002078aa5af5fb3fb2abbeec275850ea6facd8bee6ed8ad3986043911c4dce0b01daffffffff02a0a4ce01000000001976a9146c157d8a2ae75739a3894a1cfb461c12dc23944d88ac640742030000000017a9142875cf503690e69e1ef58e019fbe71459cbe3594870400473044022007693fb6a534b066ff2d115eb73431bf24f020ad4a6aa8771bd9c44777757fa70220742db9da6a6c40c34871b05fac70e619ad0c64521ed955944fa3220f4107cfec01483045022100d6158aa0ca809f1b472c8f1dcbd33810a6bc46d30f2575076f99f7318adf32940220778942f39e6e0e854f2eefa3b84195f7a22eab6cd63ddaf77764a5f8279e609c014752210395bc6fc56eb8c09ff4c9f3301e7a2f29a69d3538d0cafcee1dd154b3f11004e5210236dd13eec420796a9767ef397e23c832bf3dda604675a2d17ad19c0007ac720552ae00000000"
    }, 
    {
      "txid": "39a5c695d143bd12530e4ef622b636c57294998bc5f30a66505d7945434f87e9",
      "hash": "39a5c695d143bd12530e4ef622b636c57294998bc5f30a66505d7945434f87e9",
      "version": 1,
      "size": 486,
      "vsize": 486,
      "locktime": 0,
      "vin": [
        {
          "txid": "adcd8183927c786bcdd0e7330082fab91a371f0036edad12307d6cebafe72dbd",
          "vout": 17,
          "scriptSig": {
            "asm": "304402205ad9f5f3bc00d64b1fda7472074d8bb8ab9f72f4d82af924f4a9bf4b8c32192d022048ad10a62c25b94e37f955a5c7ea9620a9799708a18259e9d87dae7a1ceba5c3[ALL] 03111d533463f4a31559180f83ef6338f70ad3ee0554107136cc4e02739aed3428",
            "hex": "47304402205ad9f5f3bc00d64b1fda7472074d8bb8ab9f72f4d82af924f4a9bf4b8c32192d022048ad10a62c25b94e37f955a5c7ea9620a9799708a18259e9d87dae7a1ceba5c3012103111d533463f4a31559180f83ef6338f70ad3ee0554107136cc4e02739aed3428"
          },
          "sequence": 4294967295
        }, 
        {
          "txid": "7089f385abb5f80ba5ed225e416f66025d946b276442d24718f6159f938fd6fe",
          "vout": 1,
          "scriptSig": {
            "asm": "3044022045c48318c55121ca4614298f648986d4a9650a83c6937fa8eab5b30bd62fcd81022064c713ce08527e08964bc550230f506b505204e6f790458feae6c579cb41e590[ALL] 033a5611897e93f1bc75500caddc56c14d7eabd5587e6c3940a5af42e276e2421e",
            "hex": "473044022045c48318c55121ca4614298f648986d4a9650a83c6937fa8eab5b30bd62fcd81022064c713ce08527e08964bc550230f506b505204e6f790458feae6c579cb41e5900121033a5611897e93f1bc75500caddc56c14d7eabd5587e6c3940a5af42e276e2421e"
          },
          "sequence": 4294967295
        }, 
        {
          "txid": "6bc4204b3d1d01df05c2bf3e153d8717f499a9f925c13b482e0f9aa0ea6f6fe1",
          "vout": 0,
          "scriptSig": {
            "asm": "3045022100f898c03377d0b08231034eaf64692e7be7c84c5e4b4747293e334776b26b579f02204529107b72301a895b08ede669e775442124de00ae733d7d1ddfa7d8d0bb1a28[ALL] 0314610eb984455af3eae0b14e8f71e6e7b6e954c466108ef83e6b0eb722ec93c9",
            "hex": "483045022100f898c03377d0b08231034eaf64692e7be7c84c5e4b4747293e334776b26b579f02204529107b72301a895b08ede669e775442124de00ae733d7d1ddfa7d8d0bb1a2801210314610eb984455af3eae0b14e8f71e6e7b6e954c466108ef83e6b0eb722ec93c9"
          },
          "sequence": 4294967295
        }
      ],
      "vout": [
        {
          "value": 17.12512944,
          "n": 0,
          "scriptPubKey": {
            "asm": "OP_DUP OP_HASH160 40a5b794a35f536eb88badf4196bbe73bb956fac OP_EQUALVERIFY OP_CHECKSIG",
            "hex": "76a91440a5b794a35f536eb88badf4196bbe73bb956fac88ac",
            "reqSigs": 1,
            "type": "pubkeyhash",
            "addresses": [
              "LR7n2iY4Ekh5HvruTbB8kiLoBX9cs9XwYr"
            ]
          }
        }
      ],
      "hex": "0100000003bd2de7afeb6c7d3012aded36001f371ab9fa820033e7d0cd6b787c928381cdad110000006a47304402205ad9f5f3bc00d64b1fda7472074d8bb8ab9f72f4d82af924f4a9bf4b8c32192d022048ad10a62c25b94e37f955a5c7ea9620a9799708a18259e9d87dae7a1ceba5c3012103111d533463f4a31559180f83ef6338f70ad3ee0554107136cc4e02739aed3428fffffffffed68f939f15f61847d24264276b945d02666f415e22eda50bf8b5ab85f38970010000006a473044022045c48318c55121ca4614298f648986d4a9650a83c6937fa8eab5b30bd62fcd81022064c713ce08527e08964bc550230f506b505204e6f790458feae6c579cb41e5900121033a5611897e93f1bc75500caddc56c14d7eabd5587e6c3940a5af42e276e2421effffffffe16f6feaa09a0f2e483bc125f9a999f417873d153ebfc205df011d3d4b20c46b000000006b483045022100f898c03377d0b08231034eaf64692e7be7c84c5e4b4747293e334776b26b579f02204529107b72301a895b08ede669e775442124de00ae733d7d1ddfa7d8d0bb1a2801210314610eb984455af3eae0b14e8f71e6e7b6e954c466108ef83e6b0eb722ec93c9ffffffff01b0df1266000000001976a91440a5b794a35f536eb88badf4196bbe73bb956fac88ac00000000"
    }, 
    {
      "txid": "07da638c3b7d50d251f2f4dbbf80fbd934d3bacbd2d24d3deb74d8f84172e959",
      "hash": "07da638c3b7d50d251f2f4dbbf80fbd934d3bacbd2d24d3deb74d8f84172e959",
      "version": 1,
      "size": 4804,
      "vsize": 4804,
      "locktime": 0,
      "vin": [
        {
          "txid": "3b666e945565a520309974106cd7f13490a007c3fa5eb87566a13d579c114461",
          "vout": 4,
          "scriptSig": {
            "asm": "3045022100d5c35eafb18d7fbdab278c34f0b6250e45b75f06b3885189137098259f48ecc002207740928078e27d5a962efff7c9ddbcacb47a2ba3339b2131a94bc6119f63760c[ALL] 0298d574b23180cb14a3c939cc1016cafbd0925fde711ca93ebe15060fda354151",
            "hex": "483045022100d5c35eafb18d7fbdab278c34f0b6250e45b75f06b3885189137098259f48ecc002207740928078e27d5a962efff7c9ddbcacb47a2ba3339b2131a94bc6119f63760c01210298d574b23180cb14a3c939cc1016cafbd0925fde711ca93ebe15060fda354151"
          },
          "sequence": 4294967295
        }, 
        {
          "txid": "e1b85e08c8289bbe256e34ff694abda76fa91acda81c9488f57b14a89446f5a4",
          "vout": 21,
          "scriptSig": {
            "asm": "304402207af7b4bd9f495fc4bad4df744010afb31a4ceb36526f11063674474f11b760ab02202ed4b22037b9755f527997d014c7cc597176fbe677640a82854c46dd95d98c23[ALL] 03f5af7df7b035ffdfd59a5a60aff51e64f0455cd71fc668d17a449c46f7035987",
            "hex": "47304402207af7b4bd9f495fc4bad4df744010afb31a4ceb36526f11063674474f11b760ab02202ed4b22037b9755f527997d014c7cc597176fbe677640a82854c46dd95d98c23012103f5af7df7b035ffdfd59a5a60aff51e64f0455cd71fc668d17a449c46f7035987"
          },
          "sequence": 4294967295
        }, 
        {
          "txid": "73c12286861972401dd8ba168e95d6c27a5b10b575df9ee095187e48688be8b4",
          "vout": 12,
          "scriptSig": {
            "asm": "3045022100ea5049525bf3d20679af1cfdf689245e6c2b3bd9e313843299c1348c729138170220474ebb416f51d88fdb6bc667a23d07e68d9a442d4a7a3f753635343d6fd352df[ALL] 0357a3ac4c8cb504a9bfc0e9302e63cb5f31552956d25e4f17138d18ba8732f40b",
            "hex": "483045022100ea5049525bf3d20679af1cfdf689245e6c2b3bd9e313843299c1348c729138170220474ebb416f51d88fdb6bc667a23d07e68d9a442d4a7a3f753635343d6fd352df01210357a3ac4c8cb504a9bfc0e9302e63cb5f31552956d25e4f17138d18ba8732f40b"
          },
          "sequence": 4294967295
        }, 
        {
          "txid": "966dc68c204178f0c0abe088990abb91a52d5f926fd949a0462fadd519303b17",
          "vout": 20,
          "scriptSig": {
            "asm": "3045022100b5a9a67c5fa5d06cd2307918084ddfc82bfa2687d9a0d36d4ea1e17a06b1d75802207d98c534dfba0975f84280d6781f966f6c8755668ce2e4ea0c65ea9ea39ddc32[ALL] 0384437f981472894f8de55a0aadf6bc4235eea32841299dd7318fd1faa58461fe",
            "hex": "483045022100b5a9a67c5fa5d06cd2307918084ddfc82bfa2687d9a0d36d4ea1e17a06b1d75802207d98c534dfba0975f84280d6781f966f6c8755668ce2e4ea0c65ea9ea39ddc3201210384437f981472894f8de55a0aadf6bc4235eea32841299dd7318fd1faa58461fe"
          },
          "sequence": 4294967295
        }, 
        {
          "txid": "044c3216949019662455d17b8ccbefabf6a45f44750530ab0b1f2dc3116d5252",
          "vout": 1842,
          "scriptSig": {
            "asm": "3045022100c6f3892c4ef868dfb2d05b11c582a77c963c3cac2ea0fba1adb2fb429f859a89022079656fb33d07f6f7fe8e4d563a9bd2eb6bdb2ede945044125f30421d013240cd[ALL] 029a3002bedd1e1c7e6230e3b955f3d0a0432c598fe6f3e039c89cdb4f3bb5c2e7",
            "hex": "483045022100c6f3892c4ef868dfb2d05b11c582a77c963c3cac2ea0fba1adb2fb429f859a89022079656fb33d07f6f7fe8e4d563a9bd2eb6bdb2ede945044125f30421d013240cd0121029a3002bedd1e1c7e6230e3b955f3d0a0432c598fe6f3e039c89cdb4f3bb5c2e7"
          },
          "sequence": 4294967295
        }, 
        {
          "txid": "95b0de84bf4582ccad675a817a93ae29dc426d3a96809d8ecfa91fba1a1e9f59",
          "vout": 0,
          "scriptSig": {
            "asm": "3045022100e245348d7004bcef356c5dc67e270b32e60b13f2cb22e76c6d965813762f3a8b02202a09da6ca093f4308b1b222022b87f10604b343e4f33cf9cfec3ebdab533c93a[ALL] 021f3487b8fea511c332450a41a4889b99c71cdc25e924fc0523acfac199cc5eaa",
            "hex": "483045022100e245348d7004bcef356c5dc67e270b32e60b13f2cb22e76c6d965813762f3a8b02202a09da6ca093f4308b1b222022b87f10604b343e4f33cf9cfec3ebdab533c93a0121021f3487b8fea511c332450a41a4889b99c71cdc25e924fc0523acfac199cc5eaa"
          },
          "sequence": 4294967295
        }, 
        {
          "txid": "d42d579a413258df5f3398d464d84a2a68d8dcc2cd821ba94560848b1833b542",
          "vout": 30,
          "scriptSig": {
            "asm": "304402204619408617328957997fa33a8e649ece570d5aa076ed2fa06d2f73d1ab99cbc302204513d8ed06e1e6d737da329baf83957cd1d7e55c3da161c25838906ca1cb6cb9[ALL] 03a91f4593b7a3983113ef6ee33c9417dff4f7fd018fb908b2bf40aec7afb2ad88",
            "hex": "47304402204619408617328957997fa33a8e649ece570d5aa076ed2fa06d2f73d1ab99cbc302204513d8ed06e1e6d737da329baf83957cd1d7e55c3da161c25838906ca1cb6cb9012103a91f4593b7a3983113ef6ee33c9417dff4f7fd018fb908b2bf40aec7afb2ad88"
          },
          "sequence": 4294967295
        }, 
        {
          "txid": "72c8aa4d9555de3e5455db1dcfc5de06185d60df1b85b95548fccf4fe17fdb99",
          "vout": 48,
          "scriptSig": {
            "asm": "30450221008c2b5bdb8b5be82b1bc2803b8c8e011f3780eb716ae530f2bc968ece222a91850220720d4fb3717a8f2de015d5365a08a979e39a0f628a7738d11a7fa1aa7b450642[ALL] 02bf63208f1dec0c7ae22b04eecf864f298bdb6e453a1f070545bc7932b104767a",
            "hex": "4830450221008c2b5bdb8b5be82b1bc2803b8c8e011f3780eb716ae530f2bc968ece222a91850220720d4fb3717a8f2de015d5365a08a979e39a0f628a7738d11a7fa1aa7b450642012102bf63208f1dec0c7ae22b04eecf864f298bdb6e453a1f070545bc7932b104767a"
          },
          "sequence": 4294967295
        }, 
        {
          "txid": "0e5847eeb312c6dc70f78121907e87d5c406a5bcb0749e484d853271221e3c25",
          "vout": 16,
          "scriptSig": {
            "asm": "3045022100c2d5b96b26df47dd830757705391319af104a97e9c8a5d8b375460bc12000383022021ac4eb453dcaa15ff5f32bf0f8d0db64f0dc20146673d48f5fda791dea72591[ALL] 02fa54cbd737cd0a8e80152422c28a58b8ab679f7bc92351889a84bb9925e7d9dc",
            "hex": "483045022100c2d5b96b26df47dd830757705391319af104a97e9c8a5d8b375460bc12000383022021ac4eb453dcaa15ff5f32bf0f8d0db64f0dc20146673d48f5fda791dea72591012102fa54cbd737cd0a8e80152422c28a58b8ab679f7bc92351889a84bb9925e7d9dc"
          },
          "sequence": 4294967295
        }, 
        {
          "txid": "e1b85e08c8289bbe256e34ff694abda76fa91acda81c9488f57b14a89446f5a4",
          "vout": 49,
          "scriptSig": {
            "asm": "3045022100848484ecbb211fe7ce758e59f4fb6702afeb247ba35b4f4bc594d74f4377f80302200bdcb054f1d3f5de57730d6ba201a935d2929ffc7738bc8cbfc83cdcc2400210[ALL] 03761535479ab9a1d5fbfa8d21196a2512fb66152d9186a209ede5e6b9bd7450db",
            "hex": "483045022100848484ecbb211fe7ce758e59f4fb6702afeb247ba35b4f4bc594d74f4377f80302200bdcb054f1d3f5de57730d6ba201a935d2929ffc7738bc8cbfc83cdcc2400210012103761535479ab9a1d5fbfa8d21196a2512fb66152d9186a209ede5e6b9bd7450db"
          },
          "sequence": 4294967295
        }, 
        {
          "txid": "b48300e86ada1032ac234b0ca947ab96a2275a95c6189740c4def595ca0779e0",
          "vout": 1,
          "scriptSig": {
            "asm": "3044022014e4856beaf17218964e0337831213ffb75727714e977639ea50c587ee5e4b8a0220666d8916462b120734ed88a46670e926acae980b925e0cfccd998fac54386856[ALL] 03f83233300b46dbf55b1454c54fea7bdb5cb8b9771ce69880fe0e386e46838668",
            "hex": "473044022014e4856beaf17218964e0337831213ffb75727714e977639ea50c587ee5e4b8a0220666d8916462b120734ed88a46670e926acae980b925e0cfccd998fac54386856012103f83233300b46dbf55b1454c54fea7bdb5cb8b9771ce69880fe0e386e46838668"
          },
          "sequence": 4294967295
        }, 
        {
          "txid": "73c12286861972401dd8ba168e95d6c27a5b10b575df9ee095187e48688be8b4",
          "vout": 9,
          "scriptSig": {
            "asm": "3045022100dc66968444d95fd58cc7b9287a18903f338a5b665f26eb185fbaed950a6e1f1502205438a0c332cc79e99d9c9db31688d29a3a49e227030499513c3403eedd623fe0[ALL] 03ae293a83562af43ba8d516f9c01fce66a60d67933c33ad58b312b2e7745ed26c",
            "hex": "483045022100dc66968444d95fd58cc7b9287a18903f338a5b665f26eb185fbaed950a6e1f1502205438a0c332cc79e99d9c9db31688d29a3a49e227030499513c3403eedd623fe0012103ae293a83562af43ba8d516f9c01fce66a60d67933c33ad58b312b2e7745ed26c"
          },
          "sequence": 4294967295
        }, 
        {
          "txid": "0e5847eeb312c6dc70f78121907e87d5c406a5bcb0749e484d853271221e3c25",
          "vout": 35,
          "scriptSig": {
            "asm": "3045022100cb383c162705fd6f8ce5c54e3ba666f1ff5c998d593e3c450f743a2b0a40ae47022025ed43ffbee39ff6edffd2eda3bac1a1e3e7d62bf257e6497451f9d9c57153a8[ALL] 0363316cc00dade9c18babb72131552b18b516676fa1127f0fd4f3828777aefc80",
            "hex": "483045022100cb383c162705fd6f8ce5c54e3ba666f1ff5c998d593e3c450f743a2b0a40ae47022025ed43ffbee39ff6edffd2eda3bac1a1e3e7d62bf257e6497451f9d9c57153a801210363316cc00dade9c18babb72131552b18b516676fa1127f0fd4f3828777aefc80"
          },
          "sequence": 4294967295
        }, 
        {
          "txid": "72c8aa4d9555de3e5455db1dcfc5de06185d60df1b85b95548fccf4fe17fdb99",
          "vout": 36,
          "scriptSig": {
            "asm": "3045022100f92353e5dbde861bd074ed9fc7d53b2d81fe5b15843218a70d0ce5473118f8e6022031019b6d3dcda66d0fbb2d4b519239b32bd2f47fdea38af8f066d7d7427bcd5c[ALL] 02de69f3e418f0bcd4e0149c23e7faa2dae86167b311b01404f0744b94d3220ec2",
            "hex": "483045022100f92353e5dbde861bd074ed9fc7d53b2d81fe5b15843218a70d0ce5473118f8e6022031019b6d3dcda66d0fbb2d4b519239b32bd2f47fdea38af8f066d7d7427bcd5c012102de69f3e418f0bcd4e0149c23e7faa2dae86167b311b01404f0744b94d3220ec2"
          },
          "sequence": 4294967295
        }, 
        {
          "txid": "6943717651389ffeee9a0dd3bfcf53bb2a88ccb3bc5dab0d99c4a356d3a1c22a",
          "vout": 38,
          "scriptSig": {
            "asm": "3045022100eb08a5f7861e48fe20d87414d8011fb143673a49f2442d317c0fdc383cb150540220102d93316591e852e000b1f74f72d23e7b4d8eaf658390abcc1206a383eeb564[ALL] 02cd3620560d0317403b1b15e0c47c671375c3564ea9193825950cefaddf59cb03",
            "hex": "483045022100eb08a5f7861e48fe20d87414d8011fb143673a49f2442d317c0fdc383cb150540220102d93316591e852e000b1f74f72d23e7b4d8eaf658390abcc1206a383eeb564012102cd3620560d0317403b1b15e0c47c671375c3564ea9193825950cefaddf59cb03"
          },
          "sequence": 4294967295
        }, 
        {
          "txid": "0d6fd15c3bee99da13ae800f23da1f79c2e2aa08c830e07c6f7d745d8b8ce8df",
          "vout": 0,
          "scriptSig": {
            "asm": "30440220432603db07ed91621044d2f654f7740981b71ec5128984d82b0747dacada13b2022059a997690c2a5ebf349511f1d3552c7e55279bdaeabc8db02291a675b6897a61[ALL] 02ffdf36736b93f95b8396ccb52929d4528575762899de7eabb3346db4f3494453",
            "hex": "4730440220432603db07ed91621044d2f654f7740981b71ec5128984d82b0747dacada13b2022059a997690c2a5ebf349511f1d3552c7e55279bdaeabc8db02291a675b6897a61012102ffdf36736b93f95b8396ccb52929d4528575762899de7eabb3346db4f3494453"
          },
          "sequence": 4294967295
        }, 
        {
          "txid": "e1b85e08c8289bbe256e34ff694abda76fa91acda81c9488f57b14a89446f5a4",
          "vout": 43,
          "scriptSig": {
            "asm": "3045022100efe4f8d975097e5e6ea484cea7fac0f239f77ebc5f5e69bbbcc39432c735e61702201c8c0be507db9a02995be2e335e021694d5fb145969e5d358cb49abd382e0fee[ALL] 026e566154553628b58c72e6bf50672ab01664ffb4bcc46d73e376ff50b5c256d6",
            "hex": "483045022100efe4f8d975097e5e6ea484cea7fac0f239f77ebc5f5e69bbbcc39432c735e61702201c8c0be507db9a02995be2e335e021694d5fb145969e5d358cb49abd382e0fee0121026e566154553628b58c72e6bf50672ab01664ffb4bcc46d73e376ff50b5c256d6"
          },
          "sequence": 4294967295
        }, 
        {
          "txid": "acb451333aa9b93a43c69f8ca8c49e227d3f0d4bfdd76278f4dbc5dcd1868697",
          "vout": 0,
          "scriptSig": {
            "asm": "3045022100e7b8d2d93bc03d6fc1e7bc97b6177853d9b0bb244bb473f08f731c19b59bbf0f0220073680fac6516388cf4fe942f30f4ff5214bf0112332ff7669ca7d6679ed9a1c[ALL] 0254db3aabc757d9b22ceff2ee41c66dde57af6bd42a367f9799bb05be068e22be",
            "hex": "483045022100e7b8d2d93bc03d6fc1e7bc97b6177853d9b0bb244bb473f08f731c19b59bbf0f0220073680fac6516388cf4fe942f30f4ff5214bf0112332ff7669ca7d6679ed9a1c01210254db3aabc757d9b22ceff2ee41c66dde57af6bd42a367f9799bb05be068e22be"
          },
          "sequence": 4294967295
        }, 
        {
          "txid": "b71507811ac0d792dbaae52315414099cd579d32c175c792baf58cc369894f28",
          "vout": 0,
          "scriptSig": {
            "asm": "3045022100aa7e5ed15b8377f45551695230fc19f3007604839c4c860c5dd297dee8f1a3f002205afb4844d449cb78c61e709f231d57709f27e57a1bcba36934b2217c648052cb[ALL] 02fed28492f81b13015937e4658da41876311f2c9aaa16906780e3bac53705c75e",
            "hex": "483045022100aa7e5ed15b8377f45551695230fc19f3007604839c4c860c5dd297dee8f1a3f002205afb4844d449cb78c61e709f231d57709f27e57a1bcba36934b2217c648052cb012102fed28492f81b13015937e4658da41876311f2c9aaa16906780e3bac53705c75e"
          },
          "sequence": 4294967295
        }, 
        {
          "txid": "5c8c2e6a50035d701c2d7f132769763e0ccf54d9a19d8cff7c9a289e7c90f325",
          "vout": 0,
          "scriptSig": {
            "asm": "3045022100f5814fe391a532a73236098d1f8032511d8fa86bd6ab680031ac297a6548efc102207b08650b8a9841848082cafbe94ccc8cef94e101ce9ac8813977ddda8e3d7936[ALL] 0396ac3a6204707ed725c63ca2829dfe5fdda230f2d8a08430d3ed2785fde81c92",
            "hex": "483045022100f5814fe391a532a73236098d1f8032511d8fa86bd6ab680031ac297a6548efc102207b08650b8a9841848082cafbe94ccc8cef94e101ce9ac8813977ddda8e3d793601210396ac3a6204707ed725c63ca2829dfe5fdda230f2d8a08430d3ed2785fde81c92"
          },
          "sequence": 4294967295
        }, 
        {
          "txid": "6943717651389ffeee9a0dd3bfcf53bb2a88ccb3bc5dab0d99c4a356d3a1c22a",
          "vout": 19,
          "scriptSig": {
            "asm": "3044022015e00bbdf66cadf077a3409bf8466a4ad47eb35d0576ab6fca34f9ea9d6c9d1d022063ab5c9bbd856788ce3a3a00d3cf26e2dab206f66bfbbcac16f1cb51607be4c7[ALL] 020b64beb9c06e5f63bcdcee5a1ec119705d93da0206d2c9172ff4551429870258",
            "hex": "473044022015e00bbdf66cadf077a3409bf8466a4ad47eb35d0576ab6fca34f9ea9d6c9d1d022063ab5c9bbd856788ce3a3a00d3cf26e2dab206f66bfbbcac16f1cb51607be4c70121020b64beb9c06e5f63bcdcee5a1ec119705d93da0206d2c9172ff4551429870258"
          },
          "sequence": 4294967295
        }, 
        {
          "txid": "6943717651389ffeee9a0dd3bfcf53bb2a88ccb3bc5dab0d99c4a356d3a1c22a",
          "vout": 43,
          "scriptSig": {
            "asm": "3045022100b373a9c7358fe682689d32130bd611f886f29536e42b348493189462d8fa9ca902204b09eb7c4a562c2c9cb44075de2658f5a5b93581c93d76dbc851d9b2f04d2599[ALL] 02a629e3678473561b730d4d9470529b6e272d86c744ace5c604ab9c9e0d9a77c7",
            "hex": "483045022100b373a9c7358fe682689d32130bd611f886f29536e42b348493189462d8fa9ca902204b09eb7c4a562c2c9cb44075de2658f5a5b93581c93d76dbc851d9b2f04d2599012102a629e3678473561b730d4d9470529b6e272d86c744ace5c604ab9c9e0d9a77c7"
          },
          "sequence": 4294967295
        }, 
        {
          "txid": "6943717651389ffeee9a0dd3bfcf53bb2a88ccb3bc5dab0d99c4a356d3a1c22a",
          "vout": 3,
          "scriptSig": {
            "asm": "304402205036506e173ac5cd761377eea813078a26e44e67503be61249399a1468c8691b022031c33e9593f3e5b8f94c73a20f048d04d407fbf490122c26e1b070be6df5341a[ALL] 03e89e3ede1a7b2c35b9b72643587434d171c012ce393ed7577cfcbd042dd4541e",
            "hex": "47304402205036506e173ac5cd761377eea813078a26e44e67503be61249399a1468c8691b022031c33e9593f3e5b8f94c73a20f048d04d407fbf490122c26e1b070be6df5341a012103e89e3ede1a7b2c35b9b72643587434d171c012ce393ed7577cfcbd042dd4541e"
          },
          "sequence": 4294967295
        }, 
        {
          "txid": "72c8aa4d9555de3e5455db1dcfc5de06185d60df1b85b95548fccf4fe17fdb99",
          "vout": 24,
          "scriptSig": {
            "asm": "3045022100f16d993e68e97287b261bedaf3ea92c333afd81d989c1404fdcda0ad1d2f90c602203243b85ae6364bb6c213dfa562ea6f085b8d703158e1412d88b4f98123cedcb0[ALL] 0374c84e1d5ed73cbbd8774ff013d5b8b8b6e9f8ef71bbc31c26fba092638c44a9",
            "hex": "483045022100f16d993e68e97287b261bedaf3ea92c333afd81d989c1404fdcda0ad1d2f90c602203243b85ae6364bb6c213dfa562ea6f085b8d703158e1412d88b4f98123cedcb001210374c84e1d5ed73cbbd8774ff013d5b8b8b6e9f8ef71bbc31c26fba092638c44a9"
          },
          "sequence": 4294967295
        }, 
        {
          "txid": "d525bb4a9c7be061d2634e111d701392bdb12f0caece5292ff75b1224a29625f",
          "vout": 13,
          "scriptSig": {
            "asm": "30440220514ba6e62e08483edf5903bc7e5065351473242e71b2b99737a5d85c2cabf69a02200a9433eb4eca8deda4f3dd514855325e85b65419d9ddba7014f717b74d01f016[ALL] 0267d6a0035a0909e46dc893482485734940216544d5f2dc16ef2a792bfcc0ab3f",
            "hex": "4730440220514ba6e62e08483edf5903bc7e5065351473242e71b2b99737a5d85c2cabf69a02200a9433eb4eca8deda4f3dd514855325e85b65419d9ddba7014f717b74d01f01601210267d6a0035a0909e46dc893482485734940216544d5f2dc16ef2a792bfcc0ab3f"
          },
          "sequence": 4294967295
        }, 
        {
          "txid": "0e5847eeb312c6dc70f78121907e87d5c406a5bcb0749e484d853271221e3c25",
          "vout": 24,
          "scriptSig": {
            "asm": "3045022100f130bf95cbd1dd846ca733822c8ce6f9a27cd855be22214a687a9fdc191f53b702205d41e6decea4f9fe03c4c593c02e70ef2dcdd3a19318f10173489de11c3e7e0d[ALL] 0261bd38746e1c6e073055438c978e0d1482110cdb681c4d5e0f896ae2376d1e36",
            "hex": "483045022100f130bf95cbd1dd846ca733822c8ce6f9a27cd855be22214a687a9fdc191f53b702205d41e6decea4f9fe03c4c593c02e70ef2dcdd3a19318f10173489de11c3e7e0d01210261bd38746e1c6e073055438c978e0d1482110cdb681c4d5e0f896ae2376d1e36"
          },
          "sequence": 4294967295
        }, 
        {
          "txid": "a16b1cf4202af916076611ac8662f506d4940adc9c404f1dfd0cc4bcb30a0cd8",
          "vout": 0,
          "scriptSig": {
            "asm": "3044022041caa3267204be0e87759186fa319180815c1d5632bafa2b70ffe1f4b3a592f50220238ca3c312d16c30e8553552bdc29964f6df4bc1145aa61cc4da272f203d44de[ALL] 021e8c98d07ab18d57d03d31a8b01ecd87ca6155b7045587210f3f6e72497b895f",
            "hex": "473044022041caa3267204be0e87759186fa319180815c1d5632bafa2b70ffe1f4b3a592f50220238ca3c312d16c30e8553552bdc29964f6df4bc1145aa61cc4da272f203d44de0121021e8c98d07ab18d57d03d31a8b01ecd87ca6155b7045587210f3f6e72497b895f"
          },
          "sequence": 4294967295
        }, 
        {
          "txid": "8d11dfb78ee3d7457b2a277d617fb63a2d23f9acd913ef939d2187b9c8556aec",
          "vout": 0,
          "scriptSig": {
            "asm": "30440220700e7c2ebcbdcd1d96e737a447c2d2d851cd045969c3a60d4b1a758c087fa2f0022067b4398a7a6d83dcec6ee1a8e37561fd1a83b515b3e1838afe74d1ea6a4326a1[ALL] 032fbd07425895454e661719993fef44450f5ef0aef8ff0a01ba39320441cacf36",
            "hex": "4730440220700e7c2ebcbdcd1d96e737a447c2d2d851cd045969c3a60d4b1a758c087fa2f0022067b4398a7a6d83dcec6ee1a8e37561fd1a83b515b3e1838afe74d1ea6a4326a10121032fbd07425895454e661719993fef44450f5ef0aef8ff0a01ba39320441cacf36"
          },
          "sequence": 4294967295
        }, 
        {
          "txid": "6943717651389ffeee9a0dd3bfcf53bb2a88ccb3bc5dab0d99c4a356d3a1c22a",
          "vout": 25,
          "scriptSig": {
            "asm": "304402201be5ec279992960dc8ff25173d8baf962fbde0cdbc5b4b62d6b589424b06843c022010fa35bed050be277393b9901006deef46f3d85f2203837a686ac7a742073203[ALL] 02ce513bc262b50d0c9900b250f4a92dd7618ee0767177994b5af39b035e67f5e9",
            "hex": "47304402201be5ec279992960dc8ff25173d8baf962fbde0cdbc5b4b62d6b589424b06843c022010fa35bed050be277393b9901006deef46f3d85f2203837a686ac7a742073203012102ce513bc262b50d0c9900b250f4a92dd7618ee0767177994b5af39b035e67f5e9"
          },
          "sequence": 4294967295
        }, 
        {
          "txid": "e1b85e08c8289bbe256e34ff694abda76fa91acda81c9488f57b14a89446f5a4",
          "vout": 36,
          "scriptSig": {
            "asm": "3045022100c62b535428058c6d7b865add68b707d2a15264d9cf96f2b8066b80e7e86c1aec02206a09571f01ccc34961021e98ed16aefb7f41a5ac8e4108975a83e902a2179e65[ALL] 03682aa78bbbf74b495f330798a8f3cc30ed076dc6d7cae8ccb80ed5d35266be60",
            "hex": "483045022100c62b535428058c6d7b865add68b707d2a15264d9cf96f2b8066b80e7e86c1aec02206a09571f01ccc34961021e98ed16aefb7f41a5ac8e4108975a83e902a2179e65012103682aa78bbbf74b495f330798a8f3cc30ed076dc6d7cae8ccb80ed5d35266be60"
          },
          "sequence": 4294967295
        }, 
        {
          "txid": "6943717651389ffeee9a0dd3bfcf53bb2a88ccb3bc5dab0d99c4a356d3a1c22a",
          "vout": 17,
          "scriptSig": {
            "asm": "304502210085d51d9d63f8a2d90ad78c3e0392fd421bf88a6da3ccff3b992c07606ac1c4e202205aabf844e0c1472381621315f74b7eca0d55b0072fee00c122839d7e74807276[ALL] 024bb20aef7167c1027b565b7521e65eecdff6023ccf89181cdf9e2d786c75dcd1",
            "hex": "48304502210085d51d9d63f8a2d90ad78c3e0392fd421bf88a6da3ccff3b992c07606ac1c4e202205aabf844e0c1472381621315f74b7eca0d55b0072fee00c122839d7e748072760121024bb20aef7167c1027b565b7521e65eecdff6023ccf89181cdf9e2d786c75dcd1"
          },
          "sequence": 4294967295
        }, 
        {
          "txid": "6943717651389ffeee9a0dd3bfcf53bb2a88ccb3bc5dab0d99c4a356d3a1c22a",
          "vout": 49,
          "scriptSig": {
            "asm": "30450221009e8c583b843f2fe32f47ff48843f0e3e1ad0bd2f9f3e1834ae2ef75bca657c48022031269f57a4887c37369dd22896fe3407991b47f78de32b0bf9cc130e89e328b8[ALL] 03f2032f7d7a7e8f4584e42c7871a9d99970d9672151f95c889b008eff186dd410",
            "hex": "4830450221009e8c583b843f2fe32f47ff48843f0e3e1ad0bd2f9f3e1834ae2ef75bca657c48022031269f57a4887c37369dd22896fe3407991b47f78de32b0bf9cc130e89e328b8012103f2032f7d7a7e8f4584e42c7871a9d99970d9672151f95c889b008eff186dd410"
          },
          "sequence": 4294967295
        }
      ],
      "vout": [
        {
          "value": 0.00421836,
          "n": 0,
          "scriptPubKey": {
            "asm": "OP_DUP OP_HASH160 2c97769a0e8a0ca7ef5e8b5408f58e6fe6a5b3a5 OP_EQUALVERIFY OP_CHECKSIG",
            "hex": "76a9142c97769a0e8a0ca7ef5e8b5408f58e6fe6a5b3a588ac",
            "reqSigs": 1,
            "type": "pubkeyhash",
            "addresses": [
              "LPHjSWNrTKGVmY13eaGxPaqvcXYX3TGPF5"
            ]
          }
        }, 
        {
          "value": 0.97181800,
          "n": 1,
          "scriptPubKey": {
            "asm": "OP_DUP OP_HASH160 0d29e0567ad4bb98e1de1a7679c685cdfa442f00 OP_EQUALVERIFY OP_CHECKSIG",
            "hex": "76a9140d29e0567ad4bb98e1de1a7679c685cdfa442f0088ac",
            "reqSigs": 1,
            "type": "pubkeyhash",
            "addresses": [
              "LLRZDKmss6Y4FzkmzJfGTDMBeMv4h27H3s"
            ]
          }
        }
      ],
      "hex": "01000000206144119c573da16675b85efac307a09034f1d76c1074993020a56555946e663b040000006b483045022100d5c35eafb18d7fbdab278c34f0b6250e45b75f06b3885189137098259f48ecc002207740928078e27d5a962efff7c9ddbcacb47a2ba3339b2131a94bc6119f63760c01210298d574b23180cb14a3c939cc1016cafbd0925fde711ca93ebe15060fda354151ffffffffa4f54694a8147bf588941ca8cd1aa96fa7bd4a69ff346e25be9b28c8085eb8e1150000006a47304402207af7b4bd9f495fc4bad4df744010afb31a4ceb36526f11063674474f11b760ab02202ed4b22037b9755f527997d014c7cc597176fbe677640a82854c46dd95d98c23012103f5af7df7b035ffdfd59a5a60aff51e64f0455cd71fc668d17a449c46f7035987ffffffffb4e88b68487e1895e09edf75b5105b7ac2d6958e16bad81d407219868622c1730c0000006b483045022100ea5049525bf3d20679af1cfdf689245e6c2b3bd9e313843299c1348c729138170220474ebb416f51d88fdb6bc667a23d07e68d9a442d4a7a3f753635343d6fd352df01210357a3ac4c8cb504a9bfc0e9302e63cb5f31552956d25e4f17138d18ba8732f40bffffffff173b3019d5ad2f46a049d96f925f2da591bb0a9988e0abc0f07841208cc66d96140000006b483045022100b5a9a67c5fa5d06cd2307918084ddfc82bfa2687d9a0d36d4ea1e17a06b1d75802207d98c534dfba0975f84280d6781f966f6c8755668ce2e4ea0c65ea9ea39ddc3201210384437f981472894f8de55a0aadf6bc4235eea32841299dd7318fd1faa58461feffffffff52526d11c32d1f0bab300575445fa4f6abefcb8c7bd155246619909416324c04320700006b483045022100c6f3892c4ef868dfb2d05b11c582a77c963c3cac2ea0fba1adb2fb429f859a89022079656fb33d07f6f7fe8e4d563a9bd2eb6bdb2ede945044125f30421d013240cd0121029a3002bedd1e1c7e6230e3b955f3d0a0432c598fe6f3e039c89cdb4f3bb5c2e7ffffffff599f1e1aba1fa9cf8e9d80963a6d42dc29ae937a815a67adcc8245bf84deb095000000006b483045022100e245348d7004bcef356c5dc67e270b32e60b13f2cb22e76c6d965813762f3a8b02202a09da6ca093f4308b1b222022b87f10604b343e4f33cf9cfec3ebdab533c93a0121021f3487b8fea511c332450a41a4889b99c71cdc25e924fc0523acfac199cc5eaaffffffff42b533188b846045a91b82cdc2dcd8682a4ad864d498335fdf5832419a572dd41e0000006a47304402204619408617328957997fa33a8e649ece570d5aa076ed2fa06d2f73d1ab99cbc302204513d8ed06e1e6d737da329baf83957cd1d7e55c3da161c25838906ca1cb6cb9012103a91f4593b7a3983113ef6ee33c9417dff4f7fd018fb908b2bf40aec7afb2ad88ffffffff99db7fe14fcffc4855b9851bdf605d1806dec5cf1ddb55543ede55954daac872300000006b4830450221008c2b5bdb8b5be82b1bc2803b8c8e011f3780eb716ae530f2bc968ece222a91850220720d4fb3717a8f2de015d5365a08a979e39a0f628a7738d11a7fa1aa7b450642012102bf63208f1dec0c7ae22b04eecf864f298bdb6e453a1f070545bc7932b104767affffffff253c1e227132854d489e74b0bca506c4d5877e902181f770dcc612b3ee47580e100000006b483045022100c2d5b96b26df47dd830757705391319af104a97e9c8a5d8b375460bc12000383022021ac4eb453dcaa15ff5f32bf0f8d0db64f0dc20146673d48f5fda791dea72591012102fa54cbd737cd0a8e80152422c28a58b8ab679f7bc92351889a84bb9925e7d9dcffffffffa4f54694a8147bf588941ca8cd1aa96fa7bd4a69ff346e25be9b28c8085eb8e1310000006b483045022100848484ecbb211fe7ce758e59f4fb6702afeb247ba35b4f4bc594d74f4377f80302200bdcb054f1d3f5de57730d6ba201a935d2929ffc7738bc8cbfc83cdcc2400210012103761535479ab9a1d5fbfa8d21196a2512fb66152d9186a209ede5e6b9bd7450dbffffffffe07907ca95f5dec4409718c6955a27a296ab47a90c4b23ac3210da6ae80083b4010000006a473044022014e4856beaf17218964e0337831213ffb75727714e977639ea50c587ee5e4b8a0220666d8916462b120734ed88a46670e926acae980b925e0cfccd998fac54386856012103f83233300b46dbf55b1454c54fea7bdb5cb8b9771ce69880fe0e386e46838668ffffffffb4e88b68487e1895e09edf75b5105b7ac2d6958e16bad81d407219868622c173090000006b483045022100dc66968444d95fd58cc7b9287a18903f338a5b665f26eb185fbaed950a6e1f1502205438a0c332cc79e99d9c9db31688d29a3a49e227030499513c3403eedd623fe0012103ae293a83562af43ba8d516f9c01fce66a60d67933c33ad58b312b2e7745ed26cffffffff253c1e227132854d489e74b0bca506c4d5877e902181f770dcc612b3ee47580e230000006b483045022100cb383c162705fd6f8ce5c54e3ba666f1ff5c998d593e3c450f743a2b0a40ae47022025ed43ffbee39ff6edffd2eda3bac1a1e3e7d62bf257e6497451f9d9c57153a801210363316cc00dade9c18babb72131552b18b516676fa1127f0fd4f3828777aefc80ffffffff99db7fe14fcffc4855b9851bdf605d1806dec5cf1ddb55543ede55954daac872240000006b483045022100f92353e5dbde861bd074ed9fc7d53b2d81fe5b15843218a70d0ce5473118f8e6022031019b6d3dcda66d0fbb2d4b519239b32bd2f47fdea38af8f066d7d7427bcd5c012102de69f3e418f0bcd4e0149c23e7faa2dae86167b311b01404f0744b94d3220ec2ffffffff2ac2a1d356a3c4990dab5dbcb3cc882abb53cfbfd30d9aeefe9f385176714369260000006b483045022100eb08a5f7861e48fe20d87414d8011fb143673a49f2442d317c0fdc383cb150540220102d93316591e852e000b1f74f72d23e7b4d8eaf658390abcc1206a383eeb564012102cd3620560d0317403b1b15e0c47c671375c3564ea9193825950cefaddf59cb03ffffffffdfe88c8b5d747d6f7ce030c808aae2c2791fda230f80ae13da99ee3b5cd16f0d000000006a4730440220432603db07ed91621044d2f654f7740981b71ec5128984d82b0747dacada13b2022059a997690c2a5ebf349511f1d3552c7e55279bdaeabc8db02291a675b6897a61012102ffdf36736b93f95b8396ccb52929d4528575762899de7eabb3346db4f3494453ffffffffa4f54694a8147bf588941ca8cd1aa96fa7bd4a69ff346e25be9b28c8085eb8e12b0000006b483045022100efe4f8d975097e5e6ea484cea7fac0f239f77ebc5f5e69bbbcc39432c735e61702201c8c0be507db9a02995be2e335e021694d5fb145969e5d358cb49abd382e0fee0121026e566154553628b58c72e6bf50672ab01664ffb4bcc46d73e376ff50b5c256d6ffffffff978686d1dcc5dbf47862d7fd4b0d3f7d229ec4a88c9fc6433ab9a93a3351b4ac000000006b483045022100e7b8d2d93bc03d6fc1e7bc97b6177853d9b0bb244bb473f08f731c19b59bbf0f0220073680fac6516388cf4fe942f30f4ff5214bf0112332ff7669ca7d6679ed9a1c01210254db3aabc757d9b22ceff2ee41c66dde57af6bd42a367f9799bb05be068e22beffffffff284f8969c38cf5ba92c775c1329d57cd9940411523e5aadb92d7c01a810715b7000000006b483045022100aa7e5ed15b8377f45551695230fc19f3007604839c4c860c5dd297dee8f1a3f002205afb4844d449cb78c61e709f231d57709f27e57a1bcba36934b2217c648052cb012102fed28492f81b13015937e4658da41876311f2c9aaa16906780e3bac53705c75effffffff25f3907c9e289a7cff8c9da1d954cf0c3e766927137f2d1c705d03506a2e8c5c000000006b483045022100f5814fe391a532a73236098d1f8032511d8fa86bd6ab680031ac297a6548efc102207b08650b8a9841848082cafbe94ccc8cef94e101ce9ac8813977ddda8e3d793601210396ac3a6204707ed725c63ca2829dfe5fdda230f2d8a08430d3ed2785fde81c92ffffffff2ac2a1d356a3c4990dab5dbcb3cc882abb53cfbfd30d9aeefe9f385176714369130000006a473044022015e00bbdf66cadf077a3409bf8466a4ad47eb35d0576ab6fca34f9ea9d6c9d1d022063ab5c9bbd856788ce3a3a00d3cf26e2dab206f66bfbbcac16f1cb51607be4c70121020b64beb9c06e5f63bcdcee5a1ec119705d93da0206d2c9172ff4551429870258ffffffff2ac2a1d356a3c4990dab5dbcb3cc882abb53cfbfd30d9aeefe9f3851767143692b0000006b483045022100b373a9c7358fe682689d32130bd611f886f29536e42b348493189462d8fa9ca902204b09eb7c4a562c2c9cb44075de2658f5a5b93581c93d76dbc851d9b2f04d2599012102a629e3678473561b730d4d9470529b6e272d86c744ace5c604ab9c9e0d9a77c7ffffffff2ac2a1d356a3c4990dab5dbcb3cc882abb53cfbfd30d9aeefe9f385176714369030000006a47304402205036506e173ac5cd761377eea813078a26e44e67503be61249399a1468c8691b022031c33e9593f3e5b8f94c73a20f048d04d407fbf490122c26e1b070be6df5341a012103e89e3ede1a7b2c35b9b72643587434d171c012ce393ed7577cfcbd042dd4541effffffff99db7fe14fcffc4855b9851bdf605d1806dec5cf1ddb55543ede55954daac872180000006b483045022100f16d993e68e97287b261bedaf3ea92c333afd81d989c1404fdcda0ad1d2f90c602203243b85ae6364bb6c213dfa562ea6f085b8d703158e1412d88b4f98123cedcb001210374c84e1d5ed73cbbd8774ff013d5b8b8b6e9f8ef71bbc31c26fba092638c44a9ffffffff5f62294a22b175ff9252ceae0c2fb1bd9213701d114e63d261e07b9c4abb25d50d0000006a4730440220514ba6e62e08483edf5903bc7e5065351473242e71b2b99737a5d85c2cabf69a02200a9433eb4eca8deda4f3dd514855325e85b65419d9ddba7014f717b74d01f01601210267d6a0035a0909e46dc893482485734940216544d5f2dc16ef2a792bfcc0ab3fffffffff253c1e227132854d489e74b0bca506c4d5877e902181f770dcc612b3ee47580e180000006b483045022100f130bf95cbd1dd846ca733822c8ce6f9a27cd855be22214a687a9fdc191f53b702205d41e6decea4f9fe03c4c593c02e70ef2dcdd3a19318f10173489de11c3e7e0d01210261bd38746e1c6e073055438c978e0d1482110cdb681c4d5e0f896ae2376d1e36ffffffffd80c0ab3bcc40cfd1d4f409cdc0a94d406f56286ac11660716f92a20f41c6ba1000000006a473044022041caa3267204be0e87759186fa319180815c1d5632bafa2b70ffe1f4b3a592f50220238ca3c312d16c30e8553552bdc29964f6df4bc1145aa61cc4da272f203d44de0121021e8c98d07ab18d57d03d31a8b01ecd87ca6155b7045587210f3f6e72497b895fffffffffec6a55c8b987219d93ef13d9acf9232d3ab67f617d272a7b45d7e38eb7df118d000000006a4730440220700e7c2ebcbdcd1d96e737a447c2d2d851cd045969c3a60d4b1a758c087fa2f0022067b4398a7a6d83dcec6ee1a8e37561fd1a83b515b3e1838afe74d1ea6a4326a10121032fbd07425895454e661719993fef44450f5ef0aef8ff0a01ba39320441cacf36ffffffff2ac2a1d356a3c4990dab5dbcb3cc882abb53cfbfd30d9aeefe9f385176714369190000006a47304402201be5ec279992960dc8ff25173d8baf962fbde0cdbc5b4b62d6b589424b06843c022010fa35bed050be277393b9901006deef46f3d85f2203837a686ac7a742073203012102ce513bc262b50d0c9900b250f4a92dd7618ee0767177994b5af39b035e67f5e9ffffffffa4f54694a8147bf588941ca8cd1aa96fa7bd4a69ff346e25be9b28c8085eb8e1240000006b483045022100c62b535428058c6d7b865add68b707d2a15264d9cf96f2b8066b80e7e86c1aec02206a09571f01ccc34961021e98ed16aefb7f41a5ac8e4108975a83e902a2179e65012103682aa78bbbf74b495f330798a8f3cc30ed076dc6d7cae8ccb80ed5d35266be60ffffffff2ac2a1d356a3c4990dab5dbcb3cc882abb53cfbfd30d9aeefe9f385176714369110000006b48304502210085d51d9d63f8a2d90ad78c3e0392fd421bf88a6da3ccff3b992c07606ac1c4e202205aabf844e0c1472381621315f74b7eca0d55b0072fee00c122839d7e748072760121024bb20aef7167c1027b565b7521e65eecdff6023ccf89181cdf9e2d786c75dcd1ffffffff2ac2a1d356a3c4990dab5dbcb3cc882abb53cfbfd30d9aeefe9f385176714369310000006b4830450221009e8c583b843f2fe32f47ff48843f0e3e1ad0bd2f9f3e1834ae2ef75bca657c48022031269f57a4887c37369dd22896fe3407991b47f78de32b0bf9cc130e89e328b8012103f2032f7d7a7e8f4584e42c7871a9d99970d9672151f95c889b008eff186dd410ffffffff02cc6f0600000000001976a9142c97769a0e8a0ca7ef5e8b5408f58e6fe6a5b3a588ac68e0ca05000000001976a9140d29e0567ad4bb98e1de1a7679c685cdfa442f0088ac00000000"
    }
  ],
  "time": 1517091079,
  "mediantime": 1517090703,
  "nonce": 3798573020,
  "bits": "1a047f14",
  "difficulty": 3731199.183374282,
  "chainwork": "000000000000000000000000000000000000000000000032cfa3d7cf5f655874",
  "previousblockhash": "2353d9ff2636c25d53757949748720f6e50ddb8072a8f7284a4a6debce16551d",
  "nextblockhash": "d9f9c2c7cb0eaf13a7c26fb3486bccbcfa05bffc3694132c9c143b3acc404337"
}
