{
  "hash": "9012f2e1b1cda85804987e9480fcd9c0ee3166cc108a1801e7f9245141b5c468",
  "confirmations": 1668,
  "strippedsize": 285,
  "size": 285,
  "weight": 1140,
  "height": 1359326,
  "version": 536870912,
  "versionHex": "20000000",
  "merkleroot": "6bd8fc2ce15c3457674bf35d6b8e5a959371deb53904c8549e5ca6138ca000d0",
  "tx": [
    {
      "txid": "6bd8fc2ce15c3457674bf35d6b8e5a959371deb53904c8549e5ca6138ca000d0",
      "hash": "6bd8fc2ce15c3457674bf35d6b8e5a959371deb53904c8549e5ca6138ca000d0",
      "version": 1,
      "size": 204,
      "vsize": 204,
      "locktime": 0,
      "vin": [
        {
          "coinbase": "03debd1441d69beb0071a44341d69beb007191c92f4c54432e544f502ffabe6d6ddbbbfbbe3647c2752673b4a9fb17a51ca98d4264f41489c82723db47397803020100000000000000580164447102000000000000",
          "sequence": 4294967295
        }
      ],
      "vout": [
        {
          "value": 24.75000000,
          "n": 0,
          "scriptPubKey": {
            "asm": "OP_DUP OP_HASH160 7b96c291c4d9e252907e9275cd3d14fdeaeac0f1 OP_EQUALVERIFY OP_CHECKSIG",
            "hex": "76a9147b96c291c4d9e252907e9275cd3d14fdeaeac0f188ac",
            "reqSigs": 1,
            "type": "pubkeyhash",
            "addresses": [
              "LWVRyoJawzDYtvRmLVzUXqUSkNT7H1MLTt"
            ]
          }
        }, 
        {
          "value": 0.25000000,
          "n": 1,
          "scriptPubKey": {
            "asm": "OP_DUP OP_HASH160 0c617fdb2ea42aed30a509595ee21ba3f6688db0 OP_EQUALVERIFY OP_CHECKSIG",
            "hex": "76a9140c617fdb2ea42aed30a509595ee21ba3f6688db088ac",
            "reqSigs": 1,
            "type": "pubkeyhash",
            "addresses": [
              "LLMRAtr3qBje2ySEa3CnZ55LA4TQMWnRY3"
            ]
          }
        }
      ],
      "hex": "01000000010000000000000000000000000000000000000000000000000000000000000000ffffffff5503debd1441d69beb0071a44341d69beb007191c92f4c54432e544f502ffabe6d6ddbbbfbbe3647c2752673b4a9fb17a51ca98d4264f41489c82723db47397803020100000000000000580164447102000000000000ffffffff02c0808593000000001976a9147b96c291c4d9e252907e9275cd3d14fdeaeac0f188ac40787d01000000001976a9140c617fdb2ea42aed30a509595ee21ba3f6688db088ac00000000"
    }
  ],
  "time": 1517267979,
  "mediantime": 1517267608,
  "nonce": 75430562,
  "bits": "1a042eae",
  "difficulty": 4011378.762614286,
  "chainwork": "000000000000000000000000000000000000000000000033e67accef4a5d2f3e",
  "previousblockhash": "7cb3775d35924e10e57fea11dcefec3a6160233f1f795b5ccf0844f93b5bfda6",
  "nextblockhash": "2cae24f1237e1c65b7b27bad4c951665d85ed2907c959817e2cb9e71c60b5c11"
}
