{
  "hash": "9029db578e86dcfa366df3cebdc5002a33ccc8c0aff67935235f06f004d3196b",
  "confirmations": 2171,
  "strippedsize": 253,
  "size": 253,
  "weight": 1012,
  "height": 1358823,
  "version": 536870912,
  "versionHex": "20000000",
  "merkleroot": "ef70ae8c218a7d84209d1d42e0cfe889dc2e595011413d46e926da3c9882e6b7",
  "tx": [
    {
      "txid": "ef70ae8c218a7d84209d1d42e0cfe889dc2e595011413d46e926da3c9882e6b7",
      "hash": "ef70ae8c218a7d84209d1d42e0cfe889dc2e595011413d46e926da3c9882e6b7",
      "version": 1,
      "size": 172,
      "vsize": 172,
      "locktime": 0,
      "vin": [
        {
          "coinbase": "03e7bb141a4d696e656420627920416e74506f6f6c20626a331f205a6e9654fabe6d6dd4682d29df5b140b004b1dcd159f171e6f278ef98cdad272f5132002ad8780950400000000000000f23100000000000019000000",
          "sequence": 4294967295
        }
      ],
      "vout": [
        {
          "value": 25.00000000,
          "n": 0,
          "scriptPubKey": {
            "asm": "OP_DUP OP_HASH160 0ff3ccc5e8be88afe24b5d634e5852d474dbdff1 OP_EQUALVERIFY OP_CHECKSIG",
            "hex": "76a9140ff3ccc5e8be88afe24b5d634e5852d474dbdff188ac",
            "reqSigs": 1,
            "type": "pubkeyhash",
            "addresses": [
              "LLgJTbzZMsRTCUF1NtvvL9SR1a4pVieW89"
            ]
          }
        }
      ],
      "hex": "01000000010000000000000000000000000000000000000000000000000000000000000000ffffffff5703e7bb141a4d696e656420627920416e74506f6f6c20626a331f205a6e9654fabe6d6dd4682d29df5b140b004b1dcd159f171e6f278ef98cdad272f5132002ad8780950400000000000000f23100000000000019000000ffffffff0100f90295000000001976a9140ff3ccc5e8be88afe24b5d634e5852d474dbdff188ac00000000"
    }
  ],
  "time": 1517196884,
  "mediantime": 1517196197,
  "nonce": 1859711652,
  "bits": "1a042eae",
  "difficulty": 4011378.762614286,
  "chainwork": "0000000000000000000000000000000000000000000000336e36502d354a20d0",
  "previousblockhash": "58923cbdc15645d88018bc506cb27168ed068e5ff165f020a394719a8cf5f559",
  "nextblockhash": "489a0c4592a95dca664ff15943002a2ef64b67a8cd7914f298115b97d822d7fe"
}
