{
  "hash": "9031ff51f1aabae74c6df0ed5ab686680d70d7f5d6aadd7e15a123c4a18b3bc4",
  "confirmations": 740,
  "strippedsize": 254,
  "size": 254,
  "weight": 1016,
  "height": 1360254,
  "version": 536870912,
  "versionHex": "20000000",
  "merkleroot": "5fe4c5b9e920825473306dc24a7bf66a540c9cfdcbc0a012c74a2dabfb18afcf",
  "tx": [
    {
      "txid": "5fe4c5b9e920825473306dc24a7bf66a540c9cfdcbc0a012c74a2dabfb18afcf",
      "hash": "5fe4c5b9e920825473306dc24a7bf66a540c9cfdcbc0a012c74a2dabfb18afcf",
      "version": 1,
      "size": 173,
      "vsize": 173,
      "locktime": 0,
      "vin": [
        {
          "coinbase": "037ec1141b4d696e656420627920416e74506f6f6c20626a302042205a71b0b8fabe6d6df7dca2f3cca3d424aac9b853648ac053096bf09bb1b8d792539159fe4a1052580400000000000000560c0000000000000f000000",
          "sequence": 4294967295
        }
      ],
      "vout": [
        {
          "value": 25.00000000,
          "n": 0,
          "scriptPubKey": {
            "asm": "OP_DUP OP_HASH160 0ff3ccc5e8be88afe24b5d634e5852d474dbdff1 OP_EQUALVERIFY OP_CHECKSIG",
            "hex": "76a9140ff3ccc5e8be88afe24b5d634e5852d474dbdff188ac",
            "reqSigs": 1,
            "type": "pubkeyhash",
            "addresses": [
              "LLgJTbzZMsRTCUF1NtvvL9SR1a4pVieW89"
            ]
          }
        }
      ],
      "hex": "01000000010000000000000000000000000000000000000000000000000000000000000000ffffffff58037ec1141b4d696e656420627920416e74506f6f6c20626a302042205a71b0b8fabe6d6df7dca2f3cca3d424aac9b853648ac053096bf09bb1b8d792539159fe4a1052580400000000000000560c0000000000000f000000ffffffff0100f90295000000001976a9140ff3ccc5e8be88afe24b5d634e5852d474dbdff188ac00000000"
    }
  ],
  "time": 1517400248,
  "mediantime": 1517399621,
  "nonce": 3355923880,
  "bits": "1a042eae",
  "difficulty": 4011378.762614286,
  "chainwork": "000000000000000000000000000000000000000000000034c45d6ad59d03a67e",
  "previousblockhash": "497a8332d48974b70dbced7c548b5502945419cf54c6c18502374aef8f9f0078",
  "nextblockhash": "7e231dc7c46beeb09f2c84ca5f75b44e9ddaabcc17fb5f93e480e6430f559b87"
}
