{
  "hash": "9035f033ed19bda8bd5208a2f487b459210cfab350f901f3dec378f86fa0aa06",
  "confirmations": 3567,
  "strippedsize": 253,
  "size": 253,
  "weight": 1012,
  "height": 1357428,
  "version": 536870912,
  "versionHex": "20000000",
  "merkleroot": "47b3c8bfb51954ccd0dbcf3c4ca9b93cda7e6fb28b47d72dbc561aa44c9097bd",
  "tx": [
    {
      "txid": "47b3c8bfb51954ccd0dbcf3c4ca9b93cda7e6fb28b47d72dbc561aa44c9097bd",
      "hash": "47b3c8bfb51954ccd0dbcf3c4ca9b93cda7e6fb28b47d72dbc561aa44c9097bd",
      "version": 1,
      "size": 172,
      "vsize": 172,
      "locktime": 0,
      "vin": [
        {
          "coinbase": "0374b6141a4d696e656420627920416e74506f6f6c20626a331f205a6b9b9bfabe6d6d77dd78476befa6d3818421718224f4018160e62497eec6fa345ba33ebcae24420400000000000000b70c0000000000001f000000",
          "sequence": 4294967295
        }
      ],
      "vout": [
        {
          "value": 25.00000000,
          "n": 0,
          "scriptPubKey": {
            "asm": "OP_DUP OP_HASH160 0ff3ccc5e8be88afe24b5d634e5852d474dbdff1 OP_EQUALVERIFY OP_CHECKSIG",
            "hex": "76a9140ff3ccc5e8be88afe24b5d634e5852d474dbdff188ac",
            "reqSigs": 1,
            "type": "pubkeyhash",
            "addresses": [
              "LLgJTbzZMsRTCUF1NtvvL9SR1a4pVieW89"
            ]
          }
        }
      ],
      "hex": "01000000010000000000000000000000000000000000000000000000000000000000000000ffffffff570374b6141a4d696e656420627920416e74506f6f6c20626a331f205a6b9b9bfabe6d6d77dd78476befa6d3818421718224f4018160e62497eec6fa345ba33ebcae24420400000000000000b70c0000000000001f000000ffffffff0100f90295000000001976a9140ff3ccc5e8be88afe24b5d634e5852d474dbdff188ac00000000"
    }
  ],
  "time": 1517001627,
  "mediantime": 1517001069,
  "nonce": 1426100277,
  "bits": "1a047f14",
  "difficulty": 3731199.183374282,
  "chainwork": "000000000000000000000000000000000000000000000032374bbea6a9b906e2",
  "previousblockhash": "2b0570801acf0af1ed18d79e83916b2dbadd73438c86ab52f71e434e0490e7e6",
  "nextblockhash": "3a9bf474ca97bc590c24155be7916490303b9d7ff559282c72ce1c58a0df67d5"
}
