{
  "hash": "90b5f15ca8ed49ca51932372d72691b90d7fbaa9f669311a1a39c78985ecaee5",
  "confirmations": 1027,
  "strippedsize": 255,
  "size": 255,
  "weight": 1020,
  "height": 1359967,
  "version": 536870912,
  "versionHex": "20000000",
  "merkleroot": "62ec4b9838eb20ec8de120decceadf3d2836206ed09f3605967f61a105e0c05c",
  "tx": [
    {
      "txid": "62ec4b9838eb20ec8de120decceadf3d2836206ed09f3605967f61a105e0c05c",
      "hash": "62ec4b9838eb20ec8de120decceadf3d2836206ed09f3605967f61a105e0c05c",
      "version": 1,
      "size": 174,
      "vsize": 174,
      "locktime": 0,
      "vin": [
        {
          "coinbase": "035fc0141c4d696e656420627920416e74506f6f6c20626a3532205a71016501a5fabe6d6d77a6a1a30279839b61d6e8def63fc43a9150589fe95bdfd817275f88eda0e38b0400000000000000613d00000000000001000000",
          "sequence": 4294967295
        }
      ],
      "vout": [
        {
          "value": 25.00000000,
          "n": 0,
          "scriptPubKey": {
            "asm": "OP_DUP OP_HASH160 0ff3ccc5e8be88afe24b5d634e5852d474dbdff1 OP_EQUALVERIFY OP_CHECKSIG",
            "hex": "76a9140ff3ccc5e8be88afe24b5d634e5852d474dbdff188ac",
            "reqSigs": 1,
            "type": "pubkeyhash",
            "addresses": [
              "LLgJTbzZMsRTCUF1NtvvL9SR1a4pVieW89"
            ]
          }
        }
      ],
      "hex": "01000000010000000000000000000000000000000000000000000000000000000000000000ffffffff59035fc0141c4d696e656420627920416e74506f6f6c20626a3532205a71016501a5fabe6d6d77a6a1a30279839b61d6e8def63fc43a9150589fe95bdfd817275f88eda0e38b0400000000000000613d00000000000001000000ffffffff0100f90295000000001976a9140ff3ccc5e8be88afe24b5d634e5852d474dbdff188ac00000000"
    }
  ],
  "time": 1517355365,
  "mediantime": 1517354971,
  "nonce": 3453143049,
  "bits": "1a042eae",
  "difficulty": 4011378.762614286,
  "chainwork": "0000000000000000000000000000000000000000000000347fbe3a8d8def9dc0",
  "previousblockhash": "92b55afa5aec263834f6e9315db54bc336a3a25dcd89f3d13b3ba23ed2923780",
  "nextblockhash": "7d8f4c0f3594c8583c1d65fafaffe1436f40192d7871095ecfe18984e850ab47"
}
