{
  "hash": "90cb854b233fec1c4c63f282748c4e0d90a02bf4ac018fd994c6a224645fa507",
  "confirmations": 2147,
  "strippedsize": 3845,
  "size": 4103,
  "weight": 15638,
  "height": 1358847,
  "version": 536870912,
  "versionHex": "20000000",
  "merkleroot": "1bb52e7f5062b162680a07e682127c9d1df304f65219dc23ede8f21f4fb9f169",
  "tx": [
    {
      "txid": "a1c20cd0c07c137f45934ba05663653bce8390a222c9d55f98727f82f57a313e",
      "hash": "c09dd4cde370d8ecc5451327e66ffacb120868299af82c64bef356177c5e51ea",
      "version": 1,
      "size": 236,
      "vsize": 209,
      "locktime": 0,
      "vin": [
        {
          "coinbase": "03ffbb14045a6ea14f2cfabe6d6d981c87057bdb20d19986baa128b50004874932491d151275532ce6cac33945264000000000000000042f4c502f0856006fb01e9a0700",
          "sequence": 4294967295
        }
      ],
      "vout": [
        {
          "value": 25.00769744,
          "n": 0,
          "scriptPubKey": {
            "asm": "OP_DUP OP_HASH160 57757ed2ecf2052ff3126c397aca7defb9ca2cec OP_EQUALVERIFY OP_CHECKSIG",
            "hex": "76a91457757ed2ecf2052ff3126c397aca7defb9ca2cec88ac",
            "reqSigs": 1,
            "type": "pubkeyhash",
            "addresses": [
              "LTCPodGk5FwcJaRzH9yKnwicxzFUbxp6tN"
            ]
          }
        }, 
        {
          "value": 0.00000000,
          "n": 1,
          "scriptPubKey": {
            "asm": "OP_RETURN aa21a9ed4059613f64bd3593ceaed57c3f44f83ca002e248f1f67ba71f92f0f010106d86",
            "hex": "6a24aa21a9ed4059613f64bd3593ceaed57c3f44f83ca002e248f1f67ba71f92f0f010106d86",
            "type": "nulldata"
          }
        }
      ],
      "hex": "010000000001010000000000000000000000000000000000000000000000000000000000000000ffffffff4403ffbb14045a6ea14f2cfabe6d6d981c87057bdb20d19986baa128b50004874932491d151275532ce6cac33945264000000000000000042f4c502f0856006fb01e9a0700ffffffff02d0b70e95000000001976a91457757ed2ecf2052ff3126c397aca7defb9ca2cec88ac0000000000000000266a24aa21a9ed4059613f64bd3593ceaed57c3f44f83ca002e248f1f67ba71f92f0f010106d860120000000000000000000000000000000000000000000000000000000000000000000000000"
    }, 
    {
      "txid": "414c279e36d0dcf2b3b2453be4006e84ba9a3f3f8b1d523cc8b1ce9030bc0ff0",
      "hash": "414c279e36d0dcf2b3b2453be4006e84ba9a3f3f8b1d523cc8b1ce9030bc0ff0",
      "version": 1,
      "size": 226,
      "vsize": 226,
      "locktime": 0,
      "vin": [
        {
          "txid": "9167a42155cd9ee77b42d5c1bfadba88e239ffefd7419e5980b5646b95489fe6",
          "vout": 1,
          "scriptSig": {
            "asm": "3045022100fd386410507fbc5208c4ec5db32ec0fe3946c8e5807a48b68da207b63d2fb228022034145fbf4b015b41d9b3e53a17ee63f64242da088888fb775220d4d8bacd1c1b[ALL] 03c2ebe4a622044de68e239ec4b85bdffe86edc77728a019ca01a1937898e242ef",
            "hex": "483045022100fd386410507fbc5208c4ec5db32ec0fe3946c8e5807a48b68da207b63d2fb228022034145fbf4b015b41d9b3e53a17ee63f64242da088888fb775220d4d8bacd1c1b012103c2ebe4a622044de68e239ec4b85bdffe86edc77728a019ca01a1937898e242ef"
          },
          "sequence": 4294967295
        }
      ],
      "vout": [
        {
          "value": 0.03000000,
          "n": 0,
          "scriptPubKey": {
            "asm": "OP_DUP OP_HASH160 e5b83b527f65643bd9b828eda4121bcfcb1b0c26 OP_EQUALVERIFY OP_CHECKSIG",
            "hex": "76a914e5b83b527f65643bd9b828eda4121bcfcb1b0c2688ac",
            "reqSigs": 1,
            "type": "pubkeyhash",
            "addresses": [
              "LgAbhnbnrhK1Lb1NsY7c7dgMaLoz4qwX9Y"
            ]
          }
        }, 
        {
          "value": 4.71943520,
          "n": 1,
          "scriptPubKey": {
            "asm": "OP_DUP OP_HASH160 6152a5fac856fd3d96964a1fd694169ea19f46ea OP_EQUALVERIFY OP_CHECKSIG",
            "hex": "76a9146152a5fac856fd3d96964a1fd694169ea19f46ea88ac",
            "reqSigs": 1,
            "type": "pubkeyhash",
            "addresses": [
              "LU6YpL3VPJq5RrfxmSAuLqqqbWUu9F1bHs"
            ]
          }
        }
      ],
      "hex": "0100000001e69f48956b64b580599e41d7efff39e288baadbfc1d5427be79ecd5521a46791010000006b483045022100fd386410507fbc5208c4ec5db32ec0fe3946c8e5807a48b68da207b63d2fb228022034145fbf4b015b41d9b3e53a17ee63f64242da088888fb775220d4d8bacd1c1b012103c2ebe4a622044de68e239ec4b85bdffe86edc77728a019ca01a1937898e242efffffffff02c0c62d00000000001976a914e5b83b527f65643bd9b828eda4121bcfcb1b0c2688ac6049211c000000001976a9146152a5fac856fd3d96964a1fd694169ea19f46ea88ac00000000"
    }, 
    {
      "txid": "1acb8c261e620d58e50e8ca39a1ea6d698c886e9210b29f73de48e9cd2f3deb5",
      "hash": "1acb8c261e620d58e50e8ca39a1ea6d698c886e9210b29f73de48e9cd2f3deb5",
      "version": 1,
      "size": 225,
      "vsize": 225,
      "locktime": 0,
      "vin": [
        {
          "txid": "41a505a32ace9887da4226f5f2d65de409d7bb08cde9fcab34bd841da54777c4",
          "vout": 1,
          "scriptSig": {
            "asm": "3044022063e9e04514bea1cebe33f95bdffba3fefeb217836ea98ba8ad50ccda77a6d6fd02202f3b29aee052a795528a6a4db49114b103c57fc465e3faaefafff52c8bce6138[ALL] 02b789286cb4a6c3a0420709b452b24bf1c6ed2c9fdd03c77afa592782ab4304bc",
            "hex": "473044022063e9e04514bea1cebe33f95bdffba3fefeb217836ea98ba8ad50ccda77a6d6fd02202f3b29aee052a795528a6a4db49114b103c57fc465e3faaefafff52c8bce6138012102b789286cb4a6c3a0420709b452b24bf1c6ed2c9fdd03c77afa592782ab4304bc"
          },
          "sequence": 4294967295
        }
      ],
      "vout": [
        {
          "value": 10.99900000,
          "n": 0,
          "scriptPubKey": {
            "asm": "OP_DUP OP_HASH160 1126fef622836ca0900c2c50012c278c7a4ac1cf OP_EQUALVERIFY OP_CHECKSIG",
            "hex": "76a9141126fef622836ca0900c2c50012c278c7a4ac1cf88ac",
            "reqSigs": 1,
            "type": "pubkeyhash",
            "addresses": [
              "LLneTxcuT97t8GsNxkGtrD5cUVd7Y1AtQA"
            ]
          }
        }, 
        {
          "value": 301.57260270,
          "n": 1,
          "scriptPubKey": {
            "asm": "OP_DUP OP_HASH160 0f3f057c56b55f84710acabfcaf325bdde5298a3 OP_EQUALVERIFY OP_CHECKSIG",
            "hex": "76a9140f3f057c56b55f84710acabfcaf325bdde5298a388ac",
            "reqSigs": 1,
            "type": "pubkeyhash",
            "addresses": [
              "LLcZttvh9FoJuwVKWFz4F3VNCPNXt4CfM2"
            ]
          }
        }
      ],
      "hex": "0100000001c47747a51d84bd34abfce9cd08bbd709e45dd6f2f52642da8798ce2aa305a541010000006a473044022063e9e04514bea1cebe33f95bdffba3fefeb217836ea98ba8ad50ccda77a6d6fd02202f3b29aee052a795528a6a4db49114b103c57fc465e3faaefafff52c8bce6138012102b789286cb4a6c3a0420709b452b24bf1c6ed2c9fdd03c77afa592782ab4304bcffffffff0260248f41000000001976a9141126fef622836ca0900c2c50012c278c7a4ac1cf88acee458305070000001976a9140f3f057c56b55f84710acabfcaf325bdde5298a388ac00000000"
    }, 
    {
      "txid": "3117e2078e19f9be58788bf9f72ed0fcd1f4601c88bd7da56bb58603d6d42b34",
      "hash": "3117e2078e19f9be58788bf9f72ed0fcd1f4601c88bd7da56bb58603d6d42b34",
      "version": 2,
      "size": 225,
      "vsize": 225,
      "locktime": 0,
      "vin": [
        {
          "txid": "f09b668f85bd7312556873b7b7b30a418cb068cd577ec09c5268e8b77a12b131",
          "vout": 0,
          "scriptSig": {
            "asm": "30440220396216d49ea1b7bbf705b480dce3eada05821a90ad26833412a5ea0fcba20995022065dfa2ad73cba2d2fa7da2d4c76a0daf5646e1ea0dfc8d43862d0b989ee4e987[ALL] 02282b86f97ab3016d657a5bb3eb72f8bbfb8feedbc9032f85f3f89e4479df3026",
            "hex": "4730440220396216d49ea1b7bbf705b480dce3eada05821a90ad26833412a5ea0fcba20995022065dfa2ad73cba2d2fa7da2d4c76a0daf5646e1ea0dfc8d43862d0b989ee4e987012102282b86f97ab3016d657a5bb3eb72f8bbfb8feedbc9032f85f3f89e4479df3026"
          },
          "sequence": 4294967295
        }
      ],
      "vout": [
        {
          "value": 0.94443214,
          "n": 0,
          "scriptPubKey": {
            "asm": "OP_DUP OP_HASH160 ee046387cdbc2a465fc2d1a4145038146694d6e1 OP_EQUALVERIFY OP_CHECKSIG",
            "hex": "76a914ee046387cdbc2a465fc2d1a4145038146694d6e188ac",
            "reqSigs": 1,
            "type": "pubkeyhash",
            "addresses": [
              "LgvULomev8hdgbZt5BXF4JtXKEBSPBCVES"
            ]
          }
        }, 
        {
          "value": 0.00113282,
          "n": 1,
          "scriptPubKey": {
            "asm": "OP_DUP OP_HASH160 6365a2c16e930e741bc6cbd2d3fd14d9f5655cce OP_EQUALVERIFY OP_CHECKSIG",
            "hex": "76a9146365a2c16e930e741bc6cbd2d3fd14d9f5655cce88ac",
            "reqSigs": 1,
            "type": "pubkeyhash",
            "addresses": [
              "LUHWuyr3DRcuQRRtqsdUJGzTq7YqhkpMAP"
            ]
          }
        }
      ],
      "hex": "020000000131b1127ab7e868529cc07e57cd68b08c410ab3b7b77368551273bd858f669bf0000000006a4730440220396216d49ea1b7bbf705b480dce3eada05821a90ad26833412a5ea0fcba20995022065dfa2ad73cba2d2fa7da2d4c76a0daf5646e1ea0dfc8d43862d0b989ee4e987012102282b86f97ab3016d657a5bb3eb72f8bbfb8feedbc9032f85f3f89e4479df3026ffffffff02ce16a105000000001976a914ee046387cdbc2a465fc2d1a4145038146694d6e188ac82ba0100000000001976a9146365a2c16e930e741bc6cbd2d3fd14d9f5655cce88ac00000000"
    }, 
    {
      "txid": "ddff8ac1019ab0ddce245b365009b9293cb261131a4dd7d94bef82626531e0ef",
      "hash": "ddff8ac1019ab0ddce245b365009b9293cb261131a4dd7d94bef82626531e0ef",
      "version": 1,
      "size": 225,
      "vsize": 225,
      "locktime": 0,
      "vin": [
        {
          "txid": "f4c0d7bc28ff9d7959031342bac84f34528e24141d13ff8b652e9b5abbc54868",
          "vout": 1,
          "scriptSig": {
            "asm": "304402205b44f8f4d97e56e5d67b0c296900f5e014e9b8035760903e1b06c9cdc83a681802201a4e5f4d4e1016782bebcc0e140a87372edb7cd8ccd625a5ac6f54c8afa3934d[ALL] 0338d9b663e0d7b2256cf3e26bfb1bd6d0b1d331515ca51f1def50a104b43a22d6",
            "hex": "47304402205b44f8f4d97e56e5d67b0c296900f5e014e9b8035760903e1b06c9cdc83a681802201a4e5f4d4e1016782bebcc0e140a87372edb7cd8ccd625a5ac6f54c8afa3934d01210338d9b663e0d7b2256cf3e26bfb1bd6d0b1d331515ca51f1def50a104b43a22d6"
          },
          "sequence": 4294967295
        }
      ],
      "vout": [
        {
          "value": 0.27000000,
          "n": 0,
          "scriptPubKey": {
            "asm": "OP_DUP OP_HASH160 9597a9abd76649af09ff7132e288a008f0b15ec5 OP_EQUALVERIFY OP_CHECKSIG",
            "hex": "76a9149597a9abd76649af09ff7132e288a008f0b15ec588ac",
            "reqSigs": 1,
            "type": "pubkeyhash",
            "addresses": [
              "LYrvdWYysz8F22vbrDgs23vim9bxfPiAe6"
            ]
          }
        }, 
        {
          "value": 0.72900000,
          "n": 1,
          "scriptPubKey": {
            "asm": "OP_DUP OP_HASH160 256a449e6539634e2c0621bea27be60c68f42148 OP_EQUALVERIFY OP_CHECKSIG",
            "hex": "76a914256a449e6539634e2c0621bea27be60c68f4214888ac",
            "reqSigs": 1,
            "type": "pubkeyhash",
            "addresses": [
              "LNdnZwgyit9V7YG5eyNDp8Smyiwe7gGnoE"
            ]
          }
        }
      ],
      "hex": "01000000016848c5bb5a9b2e658bff131d14248e52344fc8ba42130359799dff28bcd7c0f4010000006a47304402205b44f8f4d97e56e5d67b0c296900f5e014e9b8035760903e1b06c9cdc83a681802201a4e5f4d4e1016782bebcc0e140a87372edb7cd8ccd625a5ac6f54c8afa3934d01210338d9b663e0d7b2256cf3e26bfb1bd6d0b1d331515ca51f1def50a104b43a22d6ffffffff02c0fc9b01000000001976a9149597a9abd76649af09ff7132e288a008f0b15ec588aca05d5804000000001976a914256a449e6539634e2c0621bea27be60c68f4214888ac00000000"
    }, 
    {
      "txid": "5c9ef0a85c07fabbf6c87f1f44f9545334e777c7d29bf05fbbe7407c4f217da6",
      "hash": "758fc0df748a09ecc0046f87ba19f869c4125e58627b3d7473e16313fdc48f30",
      "version": 1,
      "size": 374,
      "vsize": 208,
      "locktime": 0,
      "vin": [
        {
          "txid": "b4f4164c4824092129686f091243f4d12968266210d192690b335f02d90c513d",
          "vout": 1,
          "scriptSig": {
            "asm": "0020409fd93c7351b461fa46963fa28755038f397ee054ab9e56eda0b1081d768cc4",
            "hex": "220020409fd93c7351b461fa46963fa28755038f397ee054ab9e56eda0b1081d768cc4"
          },
          "txinwitness": [
            "", 
            "3045022100d9872e222a166bdfec3183091f0804a768a457fa66823302a5f9172c44cc82110220124f29420528f88df593c282d0b00566e7536f7e59236d9235e6b802e38a1e8201", 
            "3045022100c2c5be98a7a63a39f2400ddc9b6a92a69210ad6f4266cbcbc88c7513886b4b1002200a6644ee5690ab38f9993cf92378971e2450ae6e0d5039f190fddbb554c9a3d701", 
            "522103ceb293b39e087131961da42b3deaef48432d57a08bfd111247901be2936525b32103fa185b0d6c2a6d812d1a9418c54b3cea527d229a73a0c6c72345a1851ebcdad352ae"
          ],
          "sequence": 4294967295
        }
      ],
      "vout": [
        {
          "value": 0.04166700,
          "n": 0,
          "scriptPubKey": {
            "asm": "OP_DUP OP_HASH160 22ffa013ff17ecb8c3096815a87f4fdf3fe2e4f4 OP_EQUALVERIFY OP_CHECKSIG",
            "hex": "76a91422ffa013ff17ecb8c3096815a87f4fdf3fe2e4f488ac",
            "reqSigs": 1,
            "type": "pubkeyhash",
            "addresses": [
              "LNR1TtjhohdQzEYWauMMwJEfESFZsFm4oK"
            ]
          }
        }, 
        {
          "value": 0.05924700,
          "n": 1,
          "scriptPubKey": {
            "asm": "OP_HASH160 2d9ba1f1c217fd18a576b17eaf8a1c6f1cd2f1de OP_EQUAL",
            "hex": "a9142d9ba1f1c217fd18a576b17eaf8a1c6f1cd2f1de87",
            "reqSigs": 1,
            "type": "scripthash",
            "addresses": [
              "MC4K5c2x6rcVohDBLrLNQRsqL5atuzztot"
            ]
          }
        }
      ],
      "hex": "010000000001013d510cd9025f330b6992d11062266829d1f44312096f6829210924484c16f4b40100000023220020409fd93c7351b461fa46963fa28755038f397ee054ab9e56eda0b1081d768cc4ffffffff022c943f00000000001976a91422ffa013ff17ecb8c3096815a87f4fdf3fe2e4f488ac5c675a000000000017a9142d9ba1f1c217fd18a576b17eaf8a1c6f1cd2f1de870400483045022100d9872e222a166bdfec3183091f0804a768a457fa66823302a5f9172c44cc82110220124f29420528f88df593c282d0b00566e7536f7e59236d9235e6b802e38a1e8201483045022100c2c5be98a7a63a39f2400ddc9b6a92a69210ad6f4266cbcbc88c7513886b4b1002200a6644ee5690ab38f9993cf92378971e2450ae6e0d5039f190fddbb554c9a3d70147522103ceb293b39e087131961da42b3deaef48432d57a08bfd111247901be2936525b32103fa185b0d6c2a6d812d1a9418c54b3cea527d229a73a0c6c72345a1851ebcdad352ae00000000"
    }, 
    {
      "txid": "a10976f72cff252c9ffe0d67bb84ba6d93ce0a240397f2bded3dfe0c9326d24c",
      "hash": "a10976f72cff252c9ffe0d67bb84ba6d93ce0a240397f2bded3dfe0c9326d24c",
      "version": 1,
      "size": 224,
      "vsize": 224,
      "locktime": 0,
      "vin": [
        {
          "txid": "9d268f74d373b3cbccc69097e8e01edd9e2d6911faab048e1eb62938aad8419c",
          "vout": 281,
          "scriptSig": {
            "asm": "3043022078b8bf4bcb33cf716e07ea17814565926a97c6745f27cc0d047371d2ba657b9b021f714db1f40546697986a0027a3086b175ac8db062b37e481d3e6aa8e86c0531[ALL] 036682379788082c31589ae02ddce9ec63a5f40f1ee7c7c41a2e25a91a543433b6",
            "hex": "463043022078b8bf4bcb33cf716e07ea17814565926a97c6745f27cc0d047371d2ba657b9b021f714db1f40546697986a0027a3086b175ac8db062b37e481d3e6aa8e86c05310121036682379788082c31589ae02ddce9ec63a5f40f1ee7c7c41a2e25a91a543433b6"
          },
          "sequence": 4294967295
        }
      ],
      "vout": [
        {
          "value": 0.01821976,
          "n": 0,
          "scriptPubKey": {
            "asm": "OP_DUP OP_HASH160 388bb552f8bebeba96661892e0daa8aeb225e226 OP_EQUALVERIFY OP_CHECKSIG",
            "hex": "76a914388bb552f8bebeba96661892e0daa8aeb225e22688ac",
            "reqSigs": 1,
            "type": "pubkeyhash",
            "addresses": [
              "LQNwU4L1BjmEweVmKHXbpvVJaUiWrGVvZG"
            ]
          }
        }, 
        {
          "value": 0.30480023,
          "n": 1,
          "scriptPubKey": {
            "asm": "OP_DUP OP_HASH160 beed4100aed795173b5d481a2498b6e6740819c3 OP_EQUALVERIFY OP_CHECKSIG",
            "hex": "76a914beed4100aed795173b5d481a2498b6e6740819c388ac",
            "reqSigs": 1,
            "type": "pubkeyhash",
            "addresses": [
              "LcdUsMN7L5WLA4MfwQC8J13W1HMZveffDP"
            ]
          }
        }
      ],
      "hex": "01000000019c41d8aa3829b61e8e04abfa11692d9edd1ee0e89790c6cccbb373d3748f269d1901000069463043022078b8bf4bcb33cf716e07ea17814565926a97c6745f27cc0d047371d2ba657b9b021f714db1f40546697986a0027a3086b175ac8db062b37e481d3e6aa8e86c05310121036682379788082c31589ae02ddce9ec63a5f40f1ee7c7c41a2e25a91a543433b6ffffffff0218cd1b00000000001976a914388bb552f8bebeba96661892e0daa8aeb225e22688ac9716d101000000001976a914beed4100aed795173b5d481a2498b6e6740819c388ac00000000"
    }, 
    {
      "txid": "ac5252073a1bb2a16eb0d332ae24d97303f63536504538ff3424015e0cff01ec",
      "hash": "ac5252073a1bb2a16eb0d332ae24d97303f63536504538ff3424015e0cff01ec",
      "version": 2,
      "size": 191,
      "vsize": 191,
      "locktime": 1358799,
      "vin": [
        {
          "txid": "a034d6bdb4a92f0ba48e08c7a5c04ee7fbb4bb4e0e5121362fdbd11a70f3a7a6",
          "vout": 0,
          "scriptSig": {
            "asm": "3044022016201f2b36c41180903b199272dbb171674591b5bc7d428b8a8f342c5a69ece1022066ee555e2ed85922ff91edaea11566d4754edaf2320ada324999f487f740b877[ALL] 026ffb2499a0bb9f83b5d5f78c8aa1e242c9d55e7e25e340788b652b2e6b80d732",
            "hex": "473044022016201f2b36c41180903b199272dbb171674591b5bc7d428b8a8f342c5a69ece1022066ee555e2ed85922ff91edaea11566d4754edaf2320ada324999f487f740b8770121026ffb2499a0bb9f83b5d5f78c8aa1e242c9d55e7e25e340788b652b2e6b80d732"
          },
          "sequence": 4294967294
        }
      ],
      "vout": [
        {
          "value": 0.97240534,
          "n": 0,
          "scriptPubKey": {
            "asm": "OP_DUP OP_HASH160 1e981d7fe82a5b9f4abcf8bb06cf79a5e82906f8 OP_EQUALVERIFY OP_CHECKSIG",
            "hex": "76a9141e981d7fe82a5b9f4abcf8bb06cf79a5e82906f888ac",
            "reqSigs": 1,
            "type": "pubkeyhash",
            "addresses": [
              "LN1im7tbGNkpnmBEFPNX73Q6zke4nF8njn"
            ]
          }
        }
      ],
      "hex": "0200000001a6a7f3701ad1db2f3621510e4ebbb4fbe74ec0a5c7088ea40b2fa9b4bdd634a0000000006a473044022016201f2b36c41180903b199272dbb171674591b5bc7d428b8a8f342c5a69ece1022066ee555e2ed85922ff91edaea11566d4754edaf2320ada324999f487f740b8770121026ffb2499a0bb9f83b5d5f78c8aa1e242c9d55e7e25e340788b652b2e6b80d732feffffff01d6c5cb05000000001976a9141e981d7fe82a5b9f4abcf8bb06cf79a5e82906f888accfbb1400"
    }, 
    {
      "txid": "26b668a88d1842676a2fbd83044d8b105956abe3e41f3dacd9c98a8210682450",
      "hash": "26b668a88d1842676a2fbd83044d8b105956abe3e41f3dacd9c98a8210682450",
      "version": 1,
      "size": 225,
      "vsize": 225,
      "locktime": 0,
      "vin": [
        {
          "txid": "9c61e3c7a13882e69e0d9945a210a99567dec2dfbfcf7e8532ab8e526505c3f5",
          "vout": 1,
          "scriptSig": {
            "asm": "304402200ca11e8ffdc8c515d7b4f7143dad80997df0e24fd4dad3a40b87fb454a4d29eb02203b514f4c2ab22dae80581df1a1c3d88dab0c8f2b036f43a8d04cfb85822909fe[ALL] 027007c0909ea937356175e99b0ecbddb13920498702f028ec97c54a9b08b59448",
            "hex": "47304402200ca11e8ffdc8c515d7b4f7143dad80997df0e24fd4dad3a40b87fb454a4d29eb02203b514f4c2ab22dae80581df1a1c3d88dab0c8f2b036f43a8d04cfb85822909fe0121027007c0909ea937356175e99b0ecbddb13920498702f028ec97c54a9b08b59448"
          },
          "sequence": 4294967295
        }
      ],
      "vout": [
        {
          "value": 0.00056342,
          "n": 0,
          "scriptPubKey": {
            "asm": "OP_DUP OP_HASH160 59e589bb0db350b095af046d7a78844063c17242 OP_EQUALVERIFY OP_CHECKSIG",
            "hex": "76a91459e589bb0db350b095af046d7a78844063c1724288ac",
            "reqSigs": 1,
            "type": "pubkeyhash",
            "addresses": [
              "LTRHNsD7DVHatjaZEq6YbgL8gPAx9hGNhz"
            ]
          }
        }, 
        {
          "value": 0.19501393,
          "n": 1,
          "scriptPubKey": {
            "asm": "OP_DUP OP_HASH160 14db73d7e0d3ac2777834b2b88e7484836cbdaae OP_EQUALVERIFY OP_CHECKSIG",
            "hex": "76a91414db73d7e0d3ac2777834b2b88e7484836cbdaae88ac",
            "reqSigs": 1,
            "type": "pubkeyhash",
            "addresses": [
              "LM8EfsrErAPWnxEhH7BPftc5D7Gc9K8ZZV"
            ]
          }
        }
      ],
      "hex": "0100000001f5c30565528eab32857ecfbfdfc2de6795a910a245990d9ee68238a1c7e3619c010000006a47304402200ca11e8ffdc8c515d7b4f7143dad80997df0e24fd4dad3a40b87fb454a4d29eb02203b514f4c2ab22dae80581df1a1c3d88dab0c8f2b036f43a8d04cfb85822909fe0121027007c0909ea937356175e99b0ecbddb13920498702f028ec97c54a9b08b59448ffffffff0216dc0000000000001976a91459e589bb0db350b095af046d7a78844063c1724288ac51912901000000001976a91414db73d7e0d3ac2777834b2b88e7484836cbdaae88ac00000000"
    }, 
    {
      "txid": "34f1231a40a52f29fe559860842a3b471b340c262b92c09b5368a2491505005a",
      "hash": "34f1231a40a52f29fe559860842a3b471b340c262b92c09b5368a2491505005a",
      "version": 2,
      "size": 225,
      "vsize": 225,
      "locktime": 1358845,
      "vin": [
        {
          "txid": "925465b5217f571256a4c765fb87ad90c928015b5ad330819cc1d5a6b0e22c69",
          "vout": 1,
          "scriptSig": {
            "asm": "30440220343eeb221fa6ec011c0e30d439cf02ffd9a9b4ab9e56e19fc80c03f3e37904fb0220262bf90681d85ff8f9deb1cbc3164d706cf70e5350abb04a306878cbdac02f00[ALL] 031e38d64f0a1378056e0216f87350be04d145334d9310f053d54143c82135c506",
            "hex": "4730440220343eeb221fa6ec011c0e30d439cf02ffd9a9b4ab9e56e19fc80c03f3e37904fb0220262bf90681d85ff8f9deb1cbc3164d706cf70e5350abb04a306878cbdac02f000121031e38d64f0a1378056e0216f87350be04d145334d9310f053d54143c82135c506"
          },
          "sequence": 4294967294
        }
      ],
      "vout": [
        {
          "value": 0.01139760,
          "n": 0,
          "scriptPubKey": {
            "asm": "OP_DUP OP_HASH160 094e9ec7b75ac58ba8236619011c78b3636c8139 OP_EQUALVERIFY OP_CHECKSIG",
            "hex": "76a914094e9ec7b75ac58ba8236619011c78b3636c813988ac",
            "reqSigs": 1,
            "type": "pubkeyhash",
            "addresses": [
              "LL5AXZxxjc5sDTbJQvJdFmQWgVfXUPL9yU"
            ]
          }
        }, 
        {
          "value": 0.64435829,
          "n": 1,
          "scriptPubKey": {
            "asm": "OP_DUP OP_HASH160 8b8a87d12ad5cdb8ce061e233fc02080cbeba2fa OP_EQUALVERIFY OP_CHECKSIG",
            "hex": "76a9148b8a87d12ad5cdb8ce061e233fc02080cbeba2fa88ac",
            "reqSigs": 1,
            "type": "pubkeyhash",
            "addresses": [
              "LXwn99XPqcSgg1YVzM7JUhtS67GNkbs1q4"
            ]
          }
        }
      ],
      "hex": "0200000001692ce2b0a6d5c19c8130d35a5b0128c990ad87fb65c7a45612577f21b5655492010000006a4730440220343eeb221fa6ec011c0e30d439cf02ffd9a9b4ab9e56e19fc80c03f3e37904fb0220262bf90681d85ff8f9deb1cbc3164d706cf70e5350abb04a306878cbdac02f000121031e38d64f0a1378056e0216f87350be04d145334d9310f053d54143c82135c506feffffff0230641100000000001976a914094e9ec7b75ac58ba8236619011c78b3636c813988ac7536d703000000001976a9148b8a87d12ad5cdb8ce061e233fc02080cbeba2fa88acfdbb1400"
    }, 
    {
      "txid": "7cd9aa596eed18e5f039dcaf187c4664d79b6fec794b05e18104b17abc77d6f4",
      "hash": "7cd9aa596eed18e5f039dcaf187c4664d79b6fec794b05e18104b17abc77d6f4",
      "version": 2,
      "size": 225,
      "vsize": 225,
      "locktime": 1358845,
      "vin": [
        {
          "txid": "3067960371e27d02341622a010244a8568dbd977d4169ffe8b5e5efcfbb62e22",
          "vout": 1,
          "scriptSig": {
            "asm": "30440220367ac586ba45c62f13db762becc97ddb4a1138fbdcf62a55d077a03771d4fb6502205cdb9867c682349f655f78329376c12f7d02c131da0585f7e01bbe81be635a48[ALL] 02d2659a42200730b325600c7d1efefa06b109cdf6f8bf19dc83cbca7a1c8cd664",
            "hex": "4730440220367ac586ba45c62f13db762becc97ddb4a1138fbdcf62a55d077a03771d4fb6502205cdb9867c682349f655f78329376c12f7d02c131da0585f7e01bbe81be635a48012102d2659a42200730b325600c7d1efefa06b109cdf6f8bf19dc83cbca7a1c8cd664"
          },
          "sequence": 4294967294
        }
      ],
      "vout": [
        {
          "value": 0.14648514,
          "n": 0,
          "scriptPubKey": {
            "asm": "OP_DUP OP_HASH160 558d70f83762fe68ee032d7ab6c6e8618b6eceb0 OP_EQUALVERIFY OP_CHECKSIG",
            "hex": "76a914558d70f83762fe68ee032d7ab6c6e8618b6eceb088ac",
            "reqSigs": 1,
            "type": "pubkeyhash",
            "addresses": [
              "LT2K92nMfNL4HGBbusVMQDNtTS3cLSXHxG"
            ]
          }
        }, 
        {
          "value": 0.18113894,
          "n": 1,
          "scriptPubKey": {
            "asm": "OP_DUP OP_HASH160 b080330e6e010dba357f23e6f8783d5fe482db9d OP_EQUALVERIFY OP_CHECKSIG",
            "hex": "76a914b080330e6e010dba357f23e6f8783d5fe482db9d88ac",
            "reqSigs": 1,
            "type": "pubkeyhash",
            "addresses": [
              "LbKCmRoCKeNLq13minmXn6SQ34kx5SxwjB"
            ]
          }
        }
      ],
      "hex": "0200000001222eb6fbfc5e5e8bfe9f16d477d9db68854a2410a0221634027de27103966730010000006a4730440220367ac586ba45c62f13db762becc97ddb4a1138fbdcf62a55d077a03771d4fb6502205cdb9867c682349f655f78329376c12f7d02c131da0585f7e01bbe81be635a48012102d2659a42200730b325600c7d1efefa06b109cdf6f8bf19dc83cbca7a1c8cd664feffffff02c284df00000000001976a914558d70f83762fe68ee032d7ab6c6e8618b6eceb088ac66651401000000001976a914b080330e6e010dba357f23e6f8783d5fe482db9d88acfdbb1400"
    }, 
    {
      "txid": "1e211172cffb6de93f02b5edeb50e9105fd7a9c70d8e7ff82d59d59ddf164603",
      "hash": "1e211172cffb6de93f02b5edeb50e9105fd7a9c70d8e7ff82d59d59ddf164603",
      "version": 1,
      "size": 226,
      "vsize": 226,
      "locktime": 0,
      "vin": [
        {
          "txid": "e2d065460a1b2bad88a15fcd941ee8c6179750794cb5315ae3b161800965b518",
          "vout": 0,
          "scriptSig": {
            "asm": "3045022100a19c4c092d44d27296e5cd8b78e1eb28b3f57aa305e8ef7e9834a0a0fe75e46c02207b80ab420c554881386cea7c0b7a1316e20e69762a810e1e38cde9cb7e41ae1c[ALL] 021cba4fe59fd6fbbdf264aba72d24ea025d1eff822f554d22fca3c5f2f2f00b0f",
            "hex": "483045022100a19c4c092d44d27296e5cd8b78e1eb28b3f57aa305e8ef7e9834a0a0fe75e46c02207b80ab420c554881386cea7c0b7a1316e20e69762a810e1e38cde9cb7e41ae1c0121021cba4fe59fd6fbbdf264aba72d24ea025d1eff822f554d22fca3c5f2f2f00b0f"
          },
          "sequence": 4294967295
        }
      ],
      "vout": [
        {
          "value": 0.00921874,
          "n": 0,
          "scriptPubKey": {
            "asm": "OP_DUP OP_HASH160 01021e070e6a0a84eb44240b6ad0ce455e42a00b OP_EQUALVERIFY OP_CHECKSIG",
            "hex": "76a91401021e070e6a0a84eb44240b6ad0ce455e42a00b88ac",
            "reqSigs": 1,
            "type": "pubkeyhash",
            "addresses": [
              "LKKHUWwkLL8hgifdjtcLhRsCMULg1rXnqE"
            ]
          }
        }, 
        {
          "value": 0.00200000,
          "n": 1,
          "scriptPubKey": {
            "asm": "OP_DUP OP_HASH160 9ccaa440398017d5053b9affc5415cc5250e5c43 OP_EQUALVERIFY OP_CHECKSIG",
            "hex": "76a9149ccaa440398017d5053b9affc5415cc5250e5c4388ac",
            "reqSigs": 1,
            "type": "pubkeyhash",
            "addresses": [
              "LZWzRvYxKdV8KrRKoQFCzR9YYgpnefBAfE"
            ]
          }
        }
      ],
      "hex": "010000000118b565098061b1e35a31b54c79509717c6e81e94cd5fa188ad2b1b0a4665d0e2000000006b483045022100a19c4c092d44d27296e5cd8b78e1eb28b3f57aa305e8ef7e9834a0a0fe75e46c02207b80ab420c554881386cea7c0b7a1316e20e69762a810e1e38cde9cb7e41ae1c0121021cba4fe59fd6fbbdf264aba72d24ea025d1eff822f554d22fca3c5f2f2f00b0fffffffff0212110e00000000001976a91401021e070e6a0a84eb44240b6ad0ce455e42a00b88ac400d0300000000001976a9149ccaa440398017d5053b9affc5415cc5250e5c4388ac00000000"
    }, 
    {
      "txid": "5d2c4ef929caea36b3bf19a429ecafa56dd989ad2c7b9f9797ef6eb380623650",
      "hash": "5d2c4ef929caea36b3bf19a429ecafa56dd989ad2c7b9f9797ef6eb380623650",
      "version": 1,
      "size": 226,
      "vsize": 226,
      "locktime": 0,
      "vin": [
        {
          "txid": "ad1ac0c75b391dc37b01169f4df7b32cc8669b3b9688407dd91f2e46be84050e",
          "vout": 1,
          "scriptSig": {
            "asm": "3045022100d9f1a09cffb5373c046b69ac4366355e000ef9aa286f84efc80d073f343a7be40220451e38097bca43e8ad899705778c2c3864074eff1950722a887fce44e9d71c2a[ALL] 03cf133a48fdd879a48c2927e8ea4561e68e01ea778f304e3a48c6a126866df4d3",
            "hex": "483045022100d9f1a09cffb5373c046b69ac4366355e000ef9aa286f84efc80d073f343a7be40220451e38097bca43e8ad899705778c2c3864074eff1950722a887fce44e9d71c2a012103cf133a48fdd879a48c2927e8ea4561e68e01ea778f304e3a48c6a126866df4d3"
          },
          "sequence": 4294967295
        }
      ],
      "vout": [
        {
          "value": 0.23708719,
          "n": 0,
          "scriptPubKey": {
            "asm": "OP_DUP OP_HASH160 ba787503f80470f7d0d5d3bf13bcae66243b8b26 OP_EQUALVERIFY OP_CHECKSIG",
            "hex": "76a914ba787503f80470f7d0d5d3bf13bcae66243b8b2688ac",
            "reqSigs": 1,
            "type": "pubkeyhash",
            "addresses": [
              "LcDvFQ6H8j95XgtzBLvN5jvn8TPT2QjSad"
            ]
          }
        }, 
        {
          "value": 0.00645156,
          "n": 1,
          "scriptPubKey": {
            "asm": "OP_DUP OP_HASH160 8fda5374728274a40b2ca8a40f32ec7148aa47e8 OP_EQUALVERIFY OP_CHECKSIG",
            "hex": "76a9148fda5374728274a40b2ca8a40f32ec7148aa47e888ac",
            "reqSigs": 1,
            "type": "pubkeyhash",
            "addresses": [
              "LYLaSCc1E2EAzuxrMzeHKUEHdhoiRS9ckT"
            ]
          }
        }
      ],
      "hex": "01000000010e0584be462e1fd97d4088963b9b66c82cb3f74d9f16017bc31d395bc7c01aad010000006b483045022100d9f1a09cffb5373c046b69ac4366355e000ef9aa286f84efc80d073f343a7be40220451e38097bca43e8ad899705778c2c3864074eff1950722a887fce44e9d71c2a012103cf133a48fdd879a48c2927e8ea4561e68e01ea778f304e3a48c6a126866df4d3ffffffff022fc46901000000001976a914ba787503f80470f7d0d5d3bf13bcae66243b8b2688ac24d80900000000001976a9148fda5374728274a40b2ca8a40f32ec7148aa47e888ac00000000"
    }, 
    {
      "txid": "3d44c4a3d39849da6ec29e1267ad7c1c9376c35851402ceef52d09ae2d8e0d99",
      "hash": "3d44c4a3d39849da6ec29e1267ad7c1c9376c35851402ceef52d09ae2d8e0d99",
      "version": 2,
      "size": 226,
      "vsize": 226,
      "locktime": 1358845,
      "vin": [
        {
          "txid": "00c5ec7ba23961bd068f3ce33004077a95d736c0a16e30885fde6a0595973ee0",
          "vout": 0,
          "scriptSig": {
            "asm": "30450221008927f42dbfbf3a05d418fe3e0036fafe9e7d6e73f022bfca6c42d9778554168c02203de894304a7b61517dcac8d596718ac48758bf368511981df2b241e46cc97f18[ALL] 03bedec80efa3e4800bcc70fc01ddc2c60fb6d5068a22f9f075c0d56399139ce44",
            "hex": "4830450221008927f42dbfbf3a05d418fe3e0036fafe9e7d6e73f022bfca6c42d9778554168c02203de894304a7b61517dcac8d596718ac48758bf368511981df2b241e46cc97f18012103bedec80efa3e4800bcc70fc01ddc2c60fb6d5068a22f9f075c0d56399139ce44"
          },
          "sequence": 4294967294
        }
      ],
      "vout": [
        {
          "value": 1.06990568,
          "n": 0,
          "scriptPubKey": {
            "asm": "OP_DUP OP_HASH160 e38efb5d71bcb61514b5e1041befd2b98192177d OP_EQUALVERIFY OP_CHECKSIG",
            "hex": "76a914e38efb5d71bcb61514b5e1041befd2b98192177d88ac",
            "reqSigs": 1,
            "type": "pubkeyhash",
            "addresses": [
              "LfyAwKCyCcjbA8R6HG3tAqzyTxRg1MKF3r"
            ]
          }
        }, 
        {
          "value": 1.00000000,
          "n": 1,
          "scriptPubKey": {
            "asm": "OP_DUP OP_HASH160 17b44919e914ed52c6edcd155f9b5d9793ed97f5 OP_EQUALVERIFY OP_CHECKSIG",
            "hex": "76a91417b44919e914ed52c6edcd155f9b5d9793ed97f588ac",
            "reqSigs": 1,
            "type": "pubkeyhash",
            "addresses": [
              "LMPHn5sfSC4wy865EPg883YqwzAfM8Vpqk"
            ]
          }
        }
      ],
      "hex": "0200000001e03e9795056ade5f88306ea1c036d7957a070430e33c8f06bd6139a27becc500000000006b4830450221008927f42dbfbf3a05d418fe3e0036fafe9e7d6e73f022bfca6c42d9778554168c02203de894304a7b61517dcac8d596718ac48758bf368511981df2b241e46cc97f18012103bedec80efa3e4800bcc70fc01ddc2c60fb6d5068a22f9f075c0d56399139ce44feffffff02e88b6006000000001976a914e38efb5d71bcb61514b5e1041befd2b98192177d88ac00e1f505000000001976a91417b44919e914ed52c6edcd155f9b5d9793ed97f588acfdbb1400"
    }, 
    {
      "txid": "3b40dea25c14117dc39c6eb90346a9142db9a2f97edb5b8460b7c24ef0ccb1c7",
      "hash": "3b40dea25c14117dc39c6eb90346a9142db9a2f97edb5b8460b7c24ef0ccb1c7",
      "version": 2,
      "size": 224,
      "vsize": 224,
      "locktime": 1358845,
      "vin": [
        {
          "txid": "ea47545a16f1a53dec30829249002cd804c20a9607c0647b95d8d7f2460e2ea1",
          "vout": 0,
          "scriptSig": {
            "asm": "3045022100de80a37161bf8f22984570cdfa5cfde8f8c14c0a693d77f7cf99dd7ed7d0927e02202dbd1eec4ce56055142383a822a22da62d4700974db0858957eaef0b10ab4cfc[ALL] 03d41f54dc50ac473d3bb198a99b00495cc1a083d82127a3978f2ebfcc6095d3d5",
            "hex": "483045022100de80a37161bf8f22984570cdfa5cfde8f8c14c0a693d77f7cf99dd7ed7d0927e02202dbd1eec4ce56055142383a822a22da62d4700974db0858957eaef0b10ab4cfc012103d41f54dc50ac473d3bb198a99b00495cc1a083d82127a3978f2ebfcc6095d3d5"
          },
          "sequence": 4294967294
        }
      ],
      "vout": [
        {
          "value": 9.99609105,
          "n": 0,
          "scriptPubKey": {
            "asm": "OP_HASH160 fa678d95558f4576eb0d66c951abb54eb02fa9ac OP_EQUAL",
            "hex": "a914fa678d95558f4576eb0d66c951abb54eb02fa9ac87",
            "reqSigs": 1,
            "type": "scripthash",
            "addresses": [
              "MWjBDP2N3H67vKyDMVxUdw2ik3MTkkZYtu"
            ]
          }
        }, 
        {
          "value": 47.55168495,
          "n": 1,
          "scriptPubKey": {
            "asm": "OP_DUP OP_HASH160 9abcf39532b224598e9d8d8e63113c76c3c3d464 OP_EQUALVERIFY OP_CHECKSIG",
            "hex": "76a9149abcf39532b224598e9d8d8e63113c76c3c3d46488ac",
            "reqSigs": 1,
            "type": "pubkeyhash",
            "addresses": [
              "LZL8gLP2yuMsLXL9A73S9hCCBJkSG8yp9T"
            ]
          }
        }
      ],
      "hex": "0200000001a12e0e46f2d7d8957b64c007960ac204d82c0049928230ec3da5f1165a5447ea000000006b483045022100de80a37161bf8f22984570cdfa5cfde8f8c14c0a693d77f7cf99dd7ed7d0927e02202dbd1eec4ce56055142383a822a22da62d4700974db0858957eaef0b10ab4cfc012103d41f54dc50ac473d3bb198a99b00495cc1a083d82127a3978f2ebfcc6095d3d5feffffff0211d3943b0000000017a914fa678d95558f4576eb0d66c951abb54eb02fa9ac87ef1c6e1b010000001976a9149abcf39532b224598e9d8d8e63113c76c3c3d46488acfdbb1400"
    }, 
    {
      "txid": "37e67deb7da097adbd81ea502ed7ffff5b9ab18ad26e6b53100a910d5be47d24",
      "hash": "37e67deb7da097adbd81ea502ed7ffff5b9ab18ad26e6b53100a910d5be47d24",
      "version": 2,
      "size": 519,
      "vsize": 519,
      "locktime": 0,
      "vin": [
        {
          "txid": "85afe718d37ff439af496cffb66e30e3587ced6f8acba7fc6f92ffd849f899bd",
          "vout": 2,
          "scriptSig": {
            "asm": "3044022064f1b4710ba2b1bf7ea4a2abd97b6987cd44024f35135fd67a59d0cf171e5a4c022048cde743c6f36abd77b817dc393c87cc35401d36297d8e077aefb1315a36593f[ALL] 02fb617227fd2919f2df5e83c7c22d708b93dcb53a1a857b7974f6536d637fc589",
            "hex": "473044022064f1b4710ba2b1bf7ea4a2abd97b6987cd44024f35135fd67a59d0cf171e5a4c022048cde743c6f36abd77b817dc393c87cc35401d36297d8e077aefb1315a36593f012102fb617227fd2919f2df5e83c7c22d708b93dcb53a1a857b7974f6536d637fc589"
          },
          "sequence": 4294967295
        }, 
        {
          "txid": "7baed420441121fee78024ab45726c8aa27f0320623e676904d18b29d0c79caa",
          "vout": 0,
          "scriptSig": {
            "asm": "304402201c94e54a75b49194d998ef46d48493ee7c2256d3312f786738a2637dba0ca15d022039daddd419670770e5526c574b6f2ec6ffafb495abff8231b5e5d6922723860b[ALL] 024b073da27b0990b7d2615846886de1e1cdb1123b294ec458e80ebe04d9cd5677",
            "hex": "47304402201c94e54a75b49194d998ef46d48493ee7c2256d3312f786738a2637dba0ca15d022039daddd419670770e5526c574b6f2ec6ffafb495abff8231b5e5d6922723860b0121024b073da27b0990b7d2615846886de1e1cdb1123b294ec458e80ebe04d9cd5677"
          },
          "sequence": 4294967295
        }, 
        {
          "txid": "2bb8bab60316fd3e44d40eac05160dba6c05e6e184e6de6d33d1f918bb3bc415",
          "vout": 1,
          "scriptSig": {
            "asm": "3044022022b762a841c50337d3f6dcd9a5b5ac5b48298a27abbaf9a0135675da046597c802202a36a22dc34952ae677f0232f9dfbba07434bc4343d3c694ed5b98d1b93a7fad[ALL] 03d86365bd14d5aed92cd6d38fbe3dab9fc430f054b8f8367f501967b2b7b6e35f",
            "hex": "473044022022b762a841c50337d3f6dcd9a5b5ac5b48298a27abbaf9a0135675da046597c802202a36a22dc34952ae677f0232f9dfbba07434bc4343d3c694ed5b98d1b93a7fad012103d86365bd14d5aed92cd6d38fbe3dab9fc430f054b8f8367f501967b2b7b6e35f"
          },
          "sequence": 4294967295
        }
      ],
      "vout": [
        {
          "value": 0.60656700,
          "n": 0,
          "scriptPubKey": {
            "asm": "OP_DUP OP_HASH160 bfb888a81ac5a5e90e2044db7c7bc0ec31bc023c OP_EQUALVERIFY OP_CHECKSIG",
            "hex": "76a914bfb888a81ac5a5e90e2044db7c7bc0ec31bc023c88ac",
            "reqSigs": 1,
            "type": "pubkeyhash",
            "addresses": [
              "LchgPVC6Q6yn9kThfmv2x7GZ3UeL9MWM6z"
            ]
          }
        }, 
        {
          "value": 0.17931111,
          "n": 1,
          "scriptPubKey": {
            "asm": "OP_DUP OP_HASH160 87ec2ff6b5a307c50b92fb0d891b67a1eb2512e4 OP_EQUALVERIFY OP_CHECKSIG",
            "hex": "76a91487ec2ff6b5a307c50b92fb0d891b67a1eb2512e488ac",
            "reqSigs": 1,
            "type": "pubkeyhash",
            "addresses": [
              "LXceRhHodr5KDXgZfDinHcWF2YzezvQUqg"
            ]
          }
        }
      ],
      "hex": "0200000003bd99f849d8ff926ffca7cb8a6fed7c58e3306eb6ff6c49af39f47fd318e7af85020000006a473044022064f1b4710ba2b1bf7ea4a2abd97b6987cd44024f35135fd67a59d0cf171e5a4c022048cde743c6f36abd77b817dc393c87cc35401d36297d8e077aefb1315a36593f012102fb617227fd2919f2df5e83c7c22d708b93dcb53a1a857b7974f6536d637fc589ffffffffaa9cc7d0298bd10469673e6220037fa28a6c7245ab2480e7fe21114420d4ae7b000000006a47304402201c94e54a75b49194d998ef46d48493ee7c2256d3312f786738a2637dba0ca15d022039daddd419670770e5526c574b6f2ec6ffafb495abff8231b5e5d6922723860b0121024b073da27b0990b7d2615846886de1e1cdb1123b294ec458e80ebe04d9cd5677ffffffff15c43bbb18f9d1336ddee684e1e6056cba0d1605ac0ed4443efd1603b6bab82b010000006a473044022022b762a841c50337d3f6dcd9a5b5ac5b48298a27abbaf9a0135675da046597c802202a36a22dc34952ae677f0232f9dfbba07434bc4343d3c694ed5b98d1b93a7fad012103d86365bd14d5aed92cd6d38fbe3dab9fc430f054b8f8367f501967b2b7b6e35fffffffff023c8c9d03000000001976a914bfb888a81ac5a5e90e2044db7c7bc0ec31bc023c88ac679b1101000000001976a91487ec2ff6b5a307c50b92fb0d891b67a1eb2512e488ac00000000"
    }
  ],
  "time": 1517199695,
  "mediantime": 1517199104,
  "nonce": 16195181,
  "bits": "1a042eae",
  "difficulty": 4011378.762614286,
  "chainwork": "00000000000000000000000000000000000000000000003373f358ac8b4a0500",
  "previousblockhash": "b85baa45fbf2d17ec6bc69e9d7cfe913f2bf1101c04f8f7e2038862c04b59e69",
  "nextblockhash": "e6c37baef0c2c3d5df1d00ba4543e1d14faae6dc011c2149611d4770f28250b4"
}
