{
  "hash": "90e52562cf7723c27417c98661a479cce918679afb2aced289d9f8e00a9de8d4",
  "confirmations": 363,
  "strippedsize": 3519,
  "size": 3555,
  "weight": 14112,
  "height": 1360631,
  "version": 536870912,
  "versionHex": "20000000",
  "merkleroot": "50f95a4200f992a65b2eed722d7ff8956e65e3f9e19c66b0543271a98abb7736",
  "tx": [
    {
      "txid": "84cd35be1be9de4489ea68abae9f8974d9f0ed48808b88396f83a4abb8651c5f",
      "hash": "b873ca57139547199a7f89ebd0ab548a71019554e6550c2a667532d56019b487",
      "version": 1,
      "size": 244,
      "vsize": 217,
      "locktime": 0,
      "vin": [
        {
          "coinbase": "03f7c214047b99725a08048ce8650f000000fabe6d6df4898e7a0a0577d3c0bc981dbdcf280292f3ce4433aec4cf7b05ab12534a7a3c40000000000000000d2f6e6f64655374726174756d2f",
          "sequence": 0
        }
      ],
      "vout": [
        {
          "value": 25.01577360,
          "n": 0,
          "scriptPubKey": {
            "asm": "OP_DUP OP_HASH160 0c617fdb2ea42aed30a509595ee21ba3f6688db0 OP_EQUALVERIFY OP_CHECKSIG",
            "hex": "76a9140c617fdb2ea42aed30a509595ee21ba3f6688db088ac",
            "reqSigs": 1,
            "type": "pubkeyhash",
            "addresses": [
              "LLMRAtr3qBje2ySEa3CnZ55LA4TQMWnRY3"
            ]
          }
        }, 
        {
          "value": 0.00000000,
          "n": 1,
          "scriptPubKey": {
            "asm": "OP_RETURN aa21a9edeb5b9bd9ee4f605aafebfc514597cfcd64a3ea2c23eefcf0cff1b2c4cfd248a5",
            "hex": "6a24aa21a9edeb5b9bd9ee4f605aafebfc514597cfcd64a3ea2c23eefcf0cff1b2c4cfd248a5",
            "type": "nulldata"
          }
        }
      ],
      "hex": "010000000001010000000000000000000000000000000000000000000000000000000000000000ffffffff4c03f7c214047b99725a08048ce8650f000000fabe6d6df4898e7a0a0577d3c0bc981dbdcf280292f3ce4433aec4cf7b05ab12534a7a3c40000000000000000d2f6e6f64655374726174756d2f0000000002900a1b95000000001976a9140c617fdb2ea42aed30a509595ee21ba3f6688db088ac0000000000000000266a24aa21a9edeb5b9bd9ee4f605aafebfc514597cfcd64a3ea2c23eefcf0cff1b2c4cfd248a50120000000000000000000000000000000000000000000000000000000000000000000000000"
    }, 
    {
      "txid": "595a93f9842bfa9a00ea3b0a88a43dc631dfa7dc3a8dde47080a570aeda65891",
      "hash": "595a93f9842bfa9a00ea3b0a88a43dc631dfa7dc3a8dde47080a570aeda65891",
      "version": 2,
      "size": 260,
      "vsize": 260,
      "locktime": 0,
      "vin": [
        {
          "txid": "d9710d0c05aae4cf1e43136b609f46c4efc83fc6b54d03b90278dee00e4a0b01",
          "vout": 0,
          "scriptSig": {
            "asm": "30450221009a312662e9e05bf564b74fec75c723aff2f2142a1df9ab991d75d2e9dcd16aca02207ad5e2151879d4e47e624801615ec52a32ea23fa57725d6da5f081de2d531ee4[ALL] 020acd337c09bf3106226871020019825f414725157a5a4fe4c0e6ad41961b0341",
            "hex": "4830450221009a312662e9e05bf564b74fec75c723aff2f2142a1df9ab991d75d2e9dcd16aca02207ad5e2151879d4e47e624801615ec52a32ea23fa57725d6da5f081de2d531ee40121020acd337c09bf3106226871020019825f414725157a5a4fe4c0e6ad41961b0341"
          },
          "sequence": 4294967295
        }
      ],
      "vout": [
        {
          "value": 1876.54860900,
          "n": 0,
          "scriptPubKey": {
            "asm": "OP_DUP OP_HASH160 e1d96b65ee37d0e27a46447dded7851ed9ac7997 OP_EQUALVERIFY OP_CHECKSIG",
            "hex": "76a914e1d96b65ee37d0e27a46447dded7851ed9ac799788ac",
            "reqSigs": 1,
            "type": "pubkeyhash",
            "addresses": [
              "Lfp8kwx69gJgFzTcrtHAx2mP9oH6kHDjcp"
            ]
          }
        }, 
        {
          "value": 0.89500000,
          "n": 1,
          "scriptPubKey": {
            "asm": "OP_DUP OP_HASH160 ce01b293967d6ef8608632f5d18c6659de9dec45 OP_EQUALVERIFY OP_CHECKSIG",
            "hex": "76a914ce01b293967d6ef8608632f5d18c6659de9dec4588ac",
            "reqSigs": 1,
            "type": "pubkeyhash",
            "addresses": [
              "Le1DVgLAz2FRSNPnvjgjF15eD37isLFJby"
            ]
          }
        }, 
        {
          "value": 0.99000000,
          "n": 2,
          "scriptPubKey": {
            "asm": "OP_DUP OP_HASH160 acc610a8807e55034dc73c9b98d89f2666bf7b39 OP_EQUALVERIFY OP_CHECKSIG",
            "hex": "76a914acc610a8807e55034dc73c9b98d89f2666bf7b3988ac",
            "reqSigs": 1,
            "type": "pubkeyhash",
            "addresses": [
              "LayVm1YjFMQiie9B4j5We2izsVC2tMJwDN"
            ]
          }
        }
      ],
      "hex": "0200000001010b4a0ee0de7802b9034db5c63fc8efc4469f606b13431ecfe4aa050c0d71d9000000006b4830450221009a312662e9e05bf564b74fec75c723aff2f2142a1df9ab991d75d2e9dcd16aca02207ad5e2151879d4e47e624801615ec52a32ea23fa57725d6da5f081de2d531ee40121020acd337c09bf3106226871020019825f414725157a5a4fe4c0e6ad41961b0341ffffffff0364f019b12b0000001976a914e1d96b65ee37d0e27a46447dded7851ed9ac799788ac60a95505000000001976a914ce01b293967d6ef8608632f5d18c6659de9dec4588acc09ee605000000001976a914acc610a8807e55034dc73c9b98d89f2666bf7b3988ac00000000"
    }, 
    {
      "txid": "c629980a30962337ddce3d007595db90e004ceabca2bad3be520b5e0a24eae66",
      "hash": "c629980a30962337ddce3d007595db90e004ceabca2bad3be520b5e0a24eae66",
      "version": 1,
      "size": 192,
      "vsize": 192,
      "locktime": 0,
      "vin": [
        {
          "txid": "b9a5329e3422647268fb11052106712d159c63e16f8379999d3f4e6e7aa77e7a",
          "vout": 1,
          "scriptSig": {
            "asm": "3045022100fca9f127e633098ff0a178c108a32bd970996f01641da9a1a867385fd70dc35d022053fd17ad39d1ef31ec0fe653b71581b3f380fc29710a7df22f6e1060ee778a81[ALL] 03c77032bd5127bddf33f5141dc41724e705c5b353492f20f44f823c7fe6906bd6",
            "hex": "483045022100fca9f127e633098ff0a178c108a32bd970996f01641da9a1a867385fd70dc35d022053fd17ad39d1ef31ec0fe653b71581b3f380fc29710a7df22f6e1060ee778a81012103c77032bd5127bddf33f5141dc41724e705c5b353492f20f44f823c7fe6906bd6"
          },
          "sequence": 4294967295
        }
      ],
      "vout": [
        {
          "value": 0.68636190,
          "n": 0,
          "scriptPubKey": {
            "asm": "OP_DUP OP_HASH160 7e98700f8e32f905a2ff8dca4b65e931c71177a2 OP_EQUALVERIFY OP_CHECKSIG",
            "hex": "76a9147e98700f8e32f905a2ff8dca4b65e931c71177a288ac",
            "reqSigs": 1,
            "type": "pubkeyhash",
            "addresses": [
              "LWmL1wfajoyB6kszfeKjTS75DbW1kiRPo9"
            ]
          }
        }
      ],
      "hex": "01000000017a7ea77a6e4e3f9d9979836fe1639c152d7106210511fb68726422349e32a5b9010000006b483045022100fca9f127e633098ff0a178c108a32bd970996f01641da9a1a867385fd70dc35d022053fd17ad39d1ef31ec0fe653b71581b3f380fc29710a7df22f6e1060ee778a81012103c77032bd5127bddf33f5141dc41724e705c5b353492f20f44f823c7fe6906bd6ffffffff011e4e1704000000001976a9147e98700f8e32f905a2ff8dca4b65e931c71177a288ac00000000"
    }, 
    {
      "txid": "331dee2df643f4f6de5251e155211e41fc21547f4d73742c6d7c7268601b494d",
      "hash": "331dee2df643f4f6de5251e155211e41fc21547f4d73742c6d7c7268601b494d",
      "version": 1,
      "size": 191,
      "vsize": 191,
      "locktime": 0,
      "vin": [
        {
          "txid": "ee71cf18851ed2575a9ebf451d354b7353f9bbdc8806eaef6fce4ff7ad36a120",
          "vout": 421,
          "scriptSig": {
            "asm": "304402206cc1a1b2a5a239499d3a2bed80c2765d4413494de5f1f1ca617ea1acfc7c5ca802207a03dfb2c816edde27e41a1cb16a43c42e57af1532b6d74d7d29394137f8c1ef[ALL] 03f5e13973afc3c37ac3c1a91024be105ec3a1aad80e1819047a765a4d7bfd686a",
            "hex": "47304402206cc1a1b2a5a239499d3a2bed80c2765d4413494de5f1f1ca617ea1acfc7c5ca802207a03dfb2c816edde27e41a1cb16a43c42e57af1532b6d74d7d29394137f8c1ef012103f5e13973afc3c37ac3c1a91024be105ec3a1aad80e1819047a765a4d7bfd686a"
          },
          "sequence": 4294967295
        }
      ],
      "vout": [
        {
          "value": 0.02672447,
          "n": 0,
          "scriptPubKey": {
            "asm": "OP_DUP OP_HASH160 e1054d9aa3124e2f4e846a6d89f3d6e81f6f0659 OP_EQUALVERIFY OP_CHECKSIG",
            "hex": "76a914e1054d9aa3124e2f4e846a6d89f3d6e81f6f065988ac",
            "reqSigs": 1,
            "type": "pubkeyhash",
            "addresses": [
              "Lfjkeqsvm4MobqfMtnJJsPYbeDqfyLFktr"
            ]
          }
        }
      ],
      "hex": "010000000120a136adf74fce6fefea0688dcbbf953734b351d45bf9e5a57d21e8518cf71eea50100006a47304402206cc1a1b2a5a239499d3a2bed80c2765d4413494de5f1f1ca617ea1acfc7c5ca802207a03dfb2c816edde27e41a1cb16a43c42e57af1532b6d74d7d29394137f8c1ef012103f5e13973afc3c37ac3c1a91024be105ec3a1aad80e1819047a765a4d7bfd686affffffff013fc72800000000001976a914e1054d9aa3124e2f4e846a6d89f3d6e81f6f065988ac00000000"
    }, 
    {
      "txid": "077eca1c9cd1fe975af79c3b0f975aeeb5dbf5b1a0a98fd511563142156e3093",
      "hash": "077eca1c9cd1fe975af79c3b0f975aeeb5dbf5b1a0a98fd511563142156e3093",
      "version": 1,
      "size": 192,
      "vsize": 192,
      "locktime": 0,
      "vin": [
        {
          "txid": "bf2a56516edb9b6afc5bceab38570aafcb436bf39afe3e7644e97e9deb67dcab",
          "vout": 1,
          "scriptSig": {
            "asm": "3045022100bb27cf9ce770f8b07810f4c3afc6b906e63ebb420fc1c4d60ce979b8eabadf2602201583bf079815308159335678d534640a645527737e90828168b037af0e96d1f4[ALL] 0296b0ea508f5c9f1ed72d9a4f796a5347bc7cfab2c082d7717ed57a78a9eeb9db",
            "hex": "483045022100bb27cf9ce770f8b07810f4c3afc6b906e63ebb420fc1c4d60ce979b8eabadf2602201583bf079815308159335678d534640a645527737e90828168b037af0e96d1f401210296b0ea508f5c9f1ed72d9a4f796a5347bc7cfab2c082d7717ed57a78a9eeb9db"
          },
          "sequence": 4294967295
        }
      ],
      "vout": [
        {
          "value": 1.18516900,
          "n": 0,
          "scriptPubKey": {
            "asm": "OP_DUP OP_HASH160 0e2a6718e797c464f07510b31c0223b389f7827c OP_EQUALVERIFY OP_CHECKSIG",
            "hex": "76a9140e2a6718e797c464f07510b31c0223b389f7827c88ac",
            "reqSigs": 1,
            "type": "pubkeyhash",
            "addresses": [
              "LLWrX6GBX1P2AqepxirZ7EbbPRtRiBu9Za"
            ]
          }
        }
      ],
      "hex": "0100000001abdc67eb9d7ee944763efe9af36b43cbaf0a5738abce5bfc6a9bdb6e51562abf010000006b483045022100bb27cf9ce770f8b07810f4c3afc6b906e63ebb420fc1c4d60ce979b8eabadf2602201583bf079815308159335678d534640a645527737e90828168b037af0e96d1f401210296b0ea508f5c9f1ed72d9a4f796a5347bc7cfab2c082d7717ed57a78a9eeb9dbffffffff01a46c1007000000001976a9140e2a6718e797c464f07510b31c0223b389f7827c88ac00000000"
    }, 
    {
      "txid": "004e690d93844fcf7171df69c5a8094363db44ab7b48198a2d969e196ba06e33",
      "hash": "004e690d93844fcf7171df69c5a8094363db44ab7b48198a2d969e196ba06e33",
      "version": 1,
      "size": 225,
      "vsize": 225,
      "locktime": 0,
      "vin": [
        {
          "txid": "9cbcab346863e685bafb452aba9a841faa12021821a146ca64d29de3f85dc659",
          "vout": 0,
          "scriptSig": {
            "asm": "3044022068df76eda220b68ae00189296d2283917e5018071b17e9651741b6ad29f7a46a02203e4e9f5146d4501eed2626849f66f05590dcb6b35424c6c00a8ccb44cac6a397[ALL] 020e41239bb5b4e788331e74ca0c63551524da82689de8db31448639980f06672e",
            "hex": "473044022068df76eda220b68ae00189296d2283917e5018071b17e9651741b6ad29f7a46a02203e4e9f5146d4501eed2626849f66f05590dcb6b35424c6c00a8ccb44cac6a3970121020e41239bb5b4e788331e74ca0c63551524da82689de8db31448639980f06672e"
          },
          "sequence": 4294967295
        }
      ],
      "vout": [
        {
          "value": 1.47000726,
          "n": 0,
          "scriptPubKey": {
            "asm": "OP_DUP OP_HASH160 e376d9fcd7b4500d227cf113cf953541769f5229 OP_EQUALVERIFY OP_CHECKSIG",
            "hex": "76a914e376d9fcd7b4500d227cf113cf953541769f522988ac",
            "reqSigs": 1,
            "type": "pubkeyhash",
            "addresses": [
              "Lfxg2hvwGfhDGbG5WGHY3Vz8FWuaYmEZYC"
            ]
          }
        }, 
        {
          "value": 0.07976674,
          "n": 1,
          "scriptPubKey": {
            "asm": "OP_DUP OP_HASH160 c01cf15f1a5b2339626e861b869e798347d1a07c OP_EQUALVERIFY OP_CHECKSIG",
            "hex": "76a914c01cf15f1a5b2339626e861b869e798347d1a07c88ac",
            "reqSigs": 1,
            "type": "pubkeyhash",
            "addresses": [
              "Lcjkg2fHzcgeZRU7nAPsv8whY9wRgs59k4"
            ]
          }
        }
      ],
      "hex": "010000000159c65df8e39dd264ca46a121180212aa1f849aba2a45fbba85e6636834abbc9c000000006a473044022068df76eda220b68ae00189296d2283917e5018071b17e9651741b6ad29f7a46a02203e4e9f5146d4501eed2626849f66f05590dcb6b35424c6c00a8ccb44cac6a3970121020e41239bb5b4e788331e74ca0c63551524da82689de8db31448639980f06672effffffff02960dc308000000001976a914e376d9fcd7b4500d227cf113cf953541769f522988ace2b67900000000001976a914c01cf15f1a5b2339626e861b869e798347d1a07c88ac00000000"
    }, 
    {
      "txid": "8e7c497cc4fa9f98648ff88da3a21ff34b02aa1e7d4f65b5bcc68b32e497a33a",
      "hash": "8e7c497cc4fa9f98648ff88da3a21ff34b02aa1e7d4f65b5bcc68b32e497a33a",
      "version": 1,
      "size": 225,
      "vsize": 225,
      "locktime": 0,
      "vin": [
        {
          "txid": "bcb2dc4835c6f010b07327831ce4518ca76c8e613d13a5d1dbc4979092855407",
          "vout": 1,
          "scriptSig": {
            "asm": "3044022067936ce6ad0a01bb93dd5937431ea06c170ab7ec2fd01cc6a15e81e4a0c714c00220089e05c74f93f7aad366cd8138eb7217dc35664fd0c8313200e2c9a31a40206d[ALL] 0344650ecf9d988bbdab51042bb145001e52ab5a71fd3a7e784f34a5ab6f63b7ee",
            "hex": "473044022067936ce6ad0a01bb93dd5937431ea06c170ab7ec2fd01cc6a15e81e4a0c714c00220089e05c74f93f7aad366cd8138eb7217dc35664fd0c8313200e2c9a31a40206d01210344650ecf9d988bbdab51042bb145001e52ab5a71fd3a7e784f34a5ab6f63b7ee"
          },
          "sequence": 4294967295
        }
      ],
      "vout": [
        {
          "value": 97.30143440,
          "n": 0,
          "scriptPubKey": {
            "asm": "OP_DUP OP_HASH160 2a982bbe83dac5c4a8ae4bcf37f907b95a403af0 OP_EQUALVERIFY OP_CHECKSIG",
            "hex": "76a9142a982bbe83dac5c4a8ae4bcf37f907b95a403af088ac",
            "reqSigs": 1,
            "type": "pubkeyhash",
            "addresses": [
              "LP7AwHe4sCNkmhYDqrz1XFpCzLcB4TxAgz"
            ]
          }
        }, 
        {
          "value": 1.90747476,
          "n": 1,
          "scriptPubKey": {
            "asm": "OP_DUP OP_HASH160 86205b16a717db417c8c610c519eabd291b9747c OP_EQUALVERIFY OP_CHECKSIG",
            "hex": "76a91486205b16a717db417c8c610c519eabd291b9747c88ac",
            "reqSigs": 1,
            "type": "pubkeyhash",
            "addresses": [
              "LXT9a3FkwAQtznwAm8pVeVVEmtubXihSDd"
            ]
          }
        }
      ],
      "hex": "0100000001075485929097c4dbd1a5133d618e6ca78c51e41c832773b010f0c63548dcb2bc010000006a473044022067936ce6ad0a01bb93dd5937431ea06c170ab7ec2fd01cc6a15e81e4a0c714c00220089e05c74f93f7aad366cd8138eb7217dc35664fd0c8313200e2c9a31a40206d01210344650ecf9d988bbdab51042bb145001e52ab5a71fd3a7e784f34a5ab6f63b7eeffffffff02d034f643020000001976a9142a982bbe83dac5c4a8ae4bcf37f907b95a403af088ac54935e0b000000001976a91486205b16a717db417c8c610c519eabd291b9747c88ac00000000"
    }, 
    {
      "txid": "97022d085811f4ba86ef55a585db87f87aa0340f85e0e7e7364dec2256b8b2bb",
      "hash": "97022d085811f4ba86ef55a585db87f87aa0340f85e0e7e7364dec2256b8b2bb",
      "version": 1,
      "size": 225,
      "vsize": 225,
      "locktime": 0,
      "vin": [
        {
          "txid": "307fbcb9f98f1434638b8b6b03127f42a1d13b926440585ed3a09148e65f2123",
          "vout": 141,
          "scriptSig": {
            "asm": "3044022067fe9108ee80b9ac2ac4f2270e7ec1c7baae445229e1236864e5b5e8323a8bf102202a149ef932733945e59fea231cf54f634bbd14bcc402683f47febca99e4b9657[ALL] 035f745f3ff0103530937f9cad87be1d6ee7de62dbe9c7f606ae571abe24a31579",
            "hex": "473044022067fe9108ee80b9ac2ac4f2270e7ec1c7baae445229e1236864e5b5e8323a8bf102202a149ef932733945e59fea231cf54f634bbd14bcc402683f47febca99e4b96570121035f745f3ff0103530937f9cad87be1d6ee7de62dbe9c7f606ae571abe24a31579"
          },
          "sequence": 4294967295
        }
      ],
      "vout": [
        {
          "value": 0.00059381,
          "n": 0,
          "scriptPubKey": {
            "asm": "OP_DUP OP_HASH160 8b45bfc48ec9f5a60967a630e3cb968f03409cf4 OP_EQUALVERIFY OP_CHECKSIG",
            "hex": "76a9148b45bfc48ec9f5a60967a630e3cb968f03409cf488ac",
            "reqSigs": 1,
            "type": "pubkeyhash",
            "addresses": [
              "LXvMk8TVjWUwBnYDCy9ERFyZugHtqxJdM1"
            ]
          }
        }, 
        {
          "value": 0.18560000,
          "n": 1,
          "scriptPubKey": {
            "asm": "OP_DUP OP_HASH160 683dc3ef9285461ea3169049444d7d1f1e7edc59 OP_EQUALVERIFY OP_CHECKSIG",
            "hex": "76a914683dc3ef9285461ea3169049444d7d1f1e7edc5988ac",
            "reqSigs": 1,
            "type": "pubkeyhash",
            "addresses": [
              "LUj8XhNMpuzD1H7BRzqnxyoYQ3u8TM7svJ"
            ]
          }
        }
      ],
      "hex": "010000000123215fe64891a0d35e584064923bd1a1427f12036b8b8b6334148ff9b9bc7f308d0000006a473044022067fe9108ee80b9ac2ac4f2270e7ec1c7baae445229e1236864e5b5e8323a8bf102202a149ef932733945e59fea231cf54f634bbd14bcc402683f47febca99e4b96570121035f745f3ff0103530937f9cad87be1d6ee7de62dbe9c7f606ae571abe24a31579ffffffff02f5e70000000000001976a9148b45bfc48ec9f5a60967a630e3cb968f03409cf488ac00341b01000000001976a914683dc3ef9285461ea3169049444d7d1f1e7edc5988ac00000000"
    }, 
    {
      "txid": "8c87f147a99e6fa6311149a4c3e48eefce116a885e0c23792c8149dbdb4a5c8d",
      "hash": "8c87f147a99e6fa6311149a4c3e48eefce116a885e0c23792c8149dbdb4a5c8d",
      "version": 2,
      "size": 226,
      "vsize": 226,
      "locktime": 1360628,
      "vin": [
        {
          "txid": "db28b12f07e2da1da4ca00060afa4ac1709d6ef1757912852af535346744d1aa",
          "vout": 9,
          "scriptSig": {
            "asm": "3045022100d073d03f4f72fc3264508d0c4053f02a081e7186d11f84871539ce70c381117702204698c5e1afd4bf1eef9314723ce38bf76265c9e16595b6369adc3f507e9cb411[ALL] 03835b180a16e2a48e9b6c6471a0006d842370afc58114d226f0002a578842e136",
            "hex": "483045022100d073d03f4f72fc3264508d0c4053f02a081e7186d11f84871539ce70c381117702204698c5e1afd4bf1eef9314723ce38bf76265c9e16595b6369adc3f507e9cb411012103835b180a16e2a48e9b6c6471a0006d842370afc58114d226f0002a578842e136"
          },
          "sequence": 4294967294
        }
      ],
      "vout": [
        {
          "value": 1.16528516,
          "n": 0,
          "scriptPubKey": {
            "asm": "OP_DUP OP_HASH160 e21c5b228a48af1c414cfff1530225626a036f14 OP_EQUALVERIFY OP_CHECKSIG",
            "hex": "76a914e21c5b228a48af1c414cfff1530225626a036f1488ac",
            "reqSigs": 1,
            "type": "pubkeyhash",
            "addresses": [
              "LfqWwmx6brUbDfDTaGEH6bZFVoGjWnReqS"
            ]
          }
        }, 
        {
          "value": 0.96285315,
          "n": 1,
          "scriptPubKey": {
            "asm": "OP_DUP OP_HASH160 a7e413b2398d8f7998a2de386c06b82062f6d86b OP_EQUALVERIFY OP_CHECKSIG",
            "hex": "76a914a7e413b2398d8f7998a2de386c06b82062f6d86b88ac",
            "reqSigs": 1,
            "type": "pubkeyhash",
            "addresses": [
              "LaXgLK4Rkpqkss1nhRigPyDfNWqobKyJ2k"
            ]
          }
        }
      ],
      "hex": "0200000001aad144673435f52a85127975f16e9d70c14afa0a0600caa41ddae2072fb128db090000006b483045022100d073d03f4f72fc3264508d0c4053f02a081e7186d11f84871539ce70c381117702204698c5e1afd4bf1eef9314723ce38bf76265c9e16595b6369adc3f507e9cb411012103835b180a16e2a48e9b6c6471a0006d842370afc58114d226f0002a578842e136feffffff028415f206000000001976a914e21c5b228a48af1c414cfff1530225626a036f1488ac8332bd05000000001976a914a7e413b2398d8f7998a2de386c06b82062f6d86b88acf4c21400"
    }, 
    {
      "txid": "128666e74f5b1d7c28f6e0d2d5f640a07b6445eea2236353247ec20802800b8f",
      "hash": "128666e74f5b1d7c28f6e0d2d5f640a07b6445eea2236353247ec20802800b8f",
      "version": 2,
      "size": 816,
      "vsize": 816,
      "locktime": 1360585,
      "vin": [
        {
          "txid": "ce51dbc47f2213afa31eeb25393aafc045127e7353e06bff5b001a5d3f99ab75",
          "vout": 4,
          "scriptSig": {
            "asm": "3045022100a18406c59e78c465ede59baf8f0c30a0266bfc8f02a19d8d94ec7b4f55ce54e702205cc09ef21497e1953705688d706dd9ed3af026cbaeea2915d636bcc49c47c52b[ALL] 03038fd93b9eba0f16f365c750c9e150f992d436c2dbf75f6547f99c43c2e283d3",
            "hex": "483045022100a18406c59e78c465ede59baf8f0c30a0266bfc8f02a19d8d94ec7b4f55ce54e702205cc09ef21497e1953705688d706dd9ed3af026cbaeea2915d636bcc49c47c52b012103038fd93b9eba0f16f365c750c9e150f992d436c2dbf75f6547f99c43c2e283d3"
          },
          "sequence": 4294967294
        }, 
        {
          "txid": "5ef9bdb0cf798f4fd9a0a8d4a4377c522de545403f19732aa40e98b5b4fa7b66",
          "vout": 340,
          "scriptSig": {
            "asm": "304402204c0690819ac561161701dd54434fce399e3cc39a8e6bda722997ead9e02032b802202e7e28e9f095b074ed951387d588a0a6bd475858186ea49054696d9475bcab16[ALL] 02a61b8514658a3d3570c79a656a305dba8e66597db4d7c6b0e535fa8187b82396",
            "hex": "47304402204c0690819ac561161701dd54434fce399e3cc39a8e6bda722997ead9e02032b802202e7e28e9f095b074ed951387d588a0a6bd475858186ea49054696d9475bcab16012102a61b8514658a3d3570c79a656a305dba8e66597db4d7c6b0e535fa8187b82396"
          },
          "sequence": 4294967294
        }, 
        {
          "txid": "8646e5a5d76fcbdfadff6dcd84ffa4a697e5eb9c971b40f53d12f5571be0329f",
          "vout": 21,
          "scriptSig": {
            "asm": "3045022100efae4cd54f322b12b1c7457cf4a9c67bc8ab5d85d7c46c6154008ef714d7d13b02206564ca78b179383635a6f884acf36b78aaf9dd2eb3188e8090afad10c4d46c6c[ALL] 02342c8bdbfffc3d195413ee1960486a1730227d46dd5ab46790f4f4b384d35a91",
            "hex": "483045022100efae4cd54f322b12b1c7457cf4a9c67bc8ab5d85d7c46c6154008ef714d7d13b02206564ca78b179383635a6f884acf36b78aaf9dd2eb3188e8090afad10c4d46c6c012102342c8bdbfffc3d195413ee1960486a1730227d46dd5ab46790f4f4b384d35a91"
          },
          "sequence": 4294967294
        }, 
        {
          "txid": "8859a8e07c1547ac434f4f7d69ec23fdaf66edc7a6d0e7816c68fc1c4ac6ee6d",
          "vout": 0,
          "scriptSig": {
            "asm": "3044022010c14694b335baf40b37fbda2caf09ddd8c293323e0e449143044e88bf4a75b5022034e66adac1e6f8db6a328b1a71c810988e368015ce0f6ff93adc0466215d4ca2[ALL] 0282b7e26d81b508e16afe503984932c662644aa69c33084499387297573a699c0",
            "hex": "473044022010c14694b335baf40b37fbda2caf09ddd8c293323e0e449143044e88bf4a75b5022034e66adac1e6f8db6a328b1a71c810988e368015ce0f6ff93adc0466215d4ca201210282b7e26d81b508e16afe503984932c662644aa69c33084499387297573a699c0"
          },
          "sequence": 4294967294
        }, 
        {
          "txid": "f821794ba67fe2ceeb9b09894f3678259ba1c23a5296b9215d94b13b42a25967",
          "vout": 1,
          "scriptSig": {
            "asm": "30450221009dd0443f156d392ee8f66be4a22d528216763e9e306a982086f8a0107581c37a02205dea94a2ce1a5e84855b31c034dfff4c479d3fb699ef62a9541c6ea9d7fe06ce[ALL] 032d3829949e63b4f5171edefecab435ebb135265b72b666dc4fbd8415b8407f62",
            "hex": "4830450221009dd0443f156d392ee8f66be4a22d528216763e9e306a982086f8a0107581c37a02205dea94a2ce1a5e84855b31c034dfff4c479d3fb699ef62a9541c6ea9d7fe06ce0121032d3829949e63b4f5171edefecab435ebb135265b72b666dc4fbd8415b8407f62"
          },
          "sequence": 4294967294
        }
      ],
      "vout": [
        {
          "value": 9.05500000,
          "n": 0,
          "scriptPubKey": {
            "asm": "OP_DUP OP_HASH160 ceaa69304709c35ad5ecf2df875671e2bdca20fe OP_EQUALVERIFY OP_CHECKSIG",
            "hex": "76a914ceaa69304709c35ad5ecf2df875671e2bdca20fe88ac",
            "reqSigs": 1,
            "type": "pubkeyhash",
            "addresses": [
              "Le4hc5yDhM3VTmNrNjSQeu7Cufko9tmJ3B"
            ]
          }
        }, 
        {
          "value": 0.01021811,
          "n": 1,
          "scriptPubKey": {
            "asm": "OP_DUP OP_HASH160 d1fdc1beb97ff271fb68ccf4715da41d05baa60c OP_EQUALVERIFY OP_CHECKSIG",
            "hex": "76a914d1fdc1beb97ff271fb68ccf4715da41d05baa60c88ac",
            "reqSigs": 1,
            "type": "pubkeyhash",
            "addresses": [
              "LeNHUdyRHvEsTeoBTFjQZD6DGQ6PZoygF4"
            ]
          }
        }
      ],
      "hex": "020000000575ab993f5d1a005bff6be053737e1245c0af3a3925eb1ea3af13227fc4db51ce040000006b483045022100a18406c59e78c465ede59baf8f0c30a0266bfc8f02a19d8d94ec7b4f55ce54e702205cc09ef21497e1953705688d706dd9ed3af026cbaeea2915d636bcc49c47c52b012103038fd93b9eba0f16f365c750c9e150f992d436c2dbf75f6547f99c43c2e283d3feffffff667bfab4b5980ea42a73193f4045e52d527c37a4d4a8a0d94f8f79cfb0bdf95e540100006a47304402204c0690819ac561161701dd54434fce399e3cc39a8e6bda722997ead9e02032b802202e7e28e9f095b074ed951387d588a0a6bd475858186ea49054696d9475bcab16012102a61b8514658a3d3570c79a656a305dba8e66597db4d7c6b0e535fa8187b82396feffffff9f32e01b57f5123df5401b979cebe597a6a4ff84cd6dffaddfcb6fd7a5e54686150000006b483045022100efae4cd54f322b12b1c7457cf4a9c67bc8ab5d85d7c46c6154008ef714d7d13b02206564ca78b179383635a6f884acf36b78aaf9dd2eb3188e8090afad10c4d46c6c012102342c8bdbfffc3d195413ee1960486a1730227d46dd5ab46790f4f4b384d35a91feffffff6deec64a1cfc686c81e7d0a6c7ed66affd23ec697d4f4f43ac47157ce0a85988000000006a473044022010c14694b335baf40b37fbda2caf09ddd8c293323e0e449143044e88bf4a75b5022034e66adac1e6f8db6a328b1a71c810988e368015ce0f6ff93adc0466215d4ca201210282b7e26d81b508e16afe503984932c662644aa69c33084499387297573a699c0feffffff6759a2423bb1945d21b996523ac2a19b2578364f89099bebcee27fa64b7921f8010000006b4830450221009dd0443f156d392ee8f66be4a22d528216763e9e306a982086f8a0107581c37a02205dea94a2ce1a5e84855b31c034dfff4c479d3fb699ef62a9541c6ea9d7fe06ce0121032d3829949e63b4f5171edefecab435ebb135265b72b666dc4fbd8415b8407f62feffffff0260d5f835000000001976a914ceaa69304709c35ad5ecf2df875671e2bdca20fe88ac73970f00000000001976a914d1fdc1beb97ff271fb68ccf4715da41d05baa60c88acc9c21400"
    }, 
    {
      "txid": "adf819f1fa09d1feca1ae824511e20001537979ea60961a89f284bb6cc82213a",
      "hash": "adf819f1fa09d1feca1ae824511e20001537979ea60961a89f284bb6cc82213a",
      "version": 1,
      "size": 226,
      "vsize": 226,
      "locktime": 0,
      "vin": [
        {
          "txid": "67b4082acf265035d2af4e5e4dfab7f377ef9af11bdd2955e2dcf69ebee6d41b",
          "vout": 1,
          "scriptSig": {
            "asm": "3045022100ad912e96b82ec9dd6b98b569900c84e56f844a2db6ca6591d0715858f9691c2b022065e19d713cdf58099443e79a6a862bb5dfac6c8c32becff96cf8d2c49b293811[ALL] 02978dc9ce9e76a8f50c25e98c14f82f4c68aa1f085879607c735da56e2f2400a3",
            "hex": "483045022100ad912e96b82ec9dd6b98b569900c84e56f844a2db6ca6591d0715858f9691c2b022065e19d713cdf58099443e79a6a862bb5dfac6c8c32becff96cf8d2c49b293811012102978dc9ce9e76a8f50c25e98c14f82f4c68aa1f085879607c735da56e2f2400a3"
          },
          "sequence": 4294967295
        }
      ],
      "vout": [
        {
          "value": 67.21073800,
          "n": 0,
          "scriptPubKey": {
            "asm": "OP_DUP OP_HASH160 0771abf2958f579deea5252e68ae14630b848b5b OP_EQUALVERIFY OP_CHECKSIG",
            "hex": "76a9140771abf2958f579deea5252e68ae14630b848b5b88ac",
            "reqSigs": 1,
            "type": "pubkeyhash",
            "addresses": [
              "LKuKAbsBNdT7KCgvUp5U1DVsh4EwNb8Fc5"
            ]
          }
        }, 
        {
          "value": 32.00000000,
          "n": 1,
          "scriptPubKey": {
            "asm": "OP_DUP OP_HASH160 59638f95fdc0f54c3773e662ebbbf39099198788 OP_EQUALVERIFY OP_CHECKSIG",
            "hex": "76a91459638f95fdc0f54c3773e662ebbbf3909919878888ac",
            "reqSigs": 1,
            "type": "pubkeyhash",
            "addresses": [
              "LTNbftznp3HKDwBzJuJZ4dKv76GpcoaJU8"
            ]
          }
        }
      ],
      "hex": "01000000011bd4e6be9ef6dce25529dd1bf19aef77f3b7fa4d5e4eafd2355026cf2a08b467010000006b483045022100ad912e96b82ec9dd6b98b569900c84e56f844a2db6ca6591d0715858f9691c2b022065e19d713cdf58099443e79a6a862bb5dfac6c8c32becff96cf8d2c49b293811012102978dc9ce9e76a8f50c25e98c14f82f4c68aa1f085879607c735da56e2f2400a3ffffffff0288729b90010000001976a9140771abf2958f579deea5252e68ae14630b848b5b88ac0020bcbe000000001976a91459638f95fdc0f54c3773e662ebbbf3909919878888ac00000000"
    }, 
    {
      "txid": "e2e332080e0a0fda4e81cc45bcc244303024c511de2dc00b10c62e44f9110b47",
      "hash": "e2e332080e0a0fda4e81cc45bcc244303024c511de2dc00b10c62e44f9110b47",
      "version": 1,
      "size": 226,
      "vsize": 226,
      "locktime": 0,
      "vin": [
        {
          "txid": "5b314d80627aefa3463132ecb9f4bc6d7ccc194b0ab68f9fe9f96afcdad9378f",
          "vout": 0,
          "scriptSig": {
            "asm": "3045022100da008095e4b6c96db2d838d17c7e0212810cbd6ef9d748362e03f9ccf7f9b5d002205aac2a047b637099b1430a1046ad423988ef771994c0443ba6d0a7002ebfe65f[ALL] 039c668d1f6ecee1f6fad485f9d06534e9038df8fe9a8ec8135f6a904d8faeabe4",
            "hex": "483045022100da008095e4b6c96db2d838d17c7e0212810cbd6ef9d748362e03f9ccf7f9b5d002205aac2a047b637099b1430a1046ad423988ef771994c0443ba6d0a7002ebfe65f0121039c668d1f6ecee1f6fad485f9d06534e9038df8fe9a8ec8135f6a904d8faeabe4"
          },
          "sequence": 4294967295
        }
      ],
      "vout": [
        {
          "value": 94.19685790,
          "n": 0,
          "scriptPubKey": {
            "asm": "OP_DUP OP_HASH160 d27c965c1a1770407c0310898ce27337d04a1c2d OP_EQUALVERIFY OP_CHECKSIG",
            "hex": "76a914d27c965c1a1770407c0310898ce27337d04a1c2d88ac",
            "reqSigs": 1,
            "type": "pubkeyhash",
            "addresses": [
              "LeQuQyfNoitQ5mV7UBBGHX69hpkP2bcRdE"
            ]
          }
        }, 
        {
          "value": 4.99954800,
          "n": 1,
          "scriptPubKey": {
            "asm": "OP_DUP OP_HASH160 0e3f5beba3f041facda0588ba3a52e0478b9d359 OP_EQUALVERIFY OP_CHECKSIG",
            "hex": "76a9140e3f5beba3f041facda0588ba3a52e0478b9d35988ac",
            "reqSigs": 1,
            "type": "pubkeyhash",
            "addresses": [
              "LLXHdASdALcfCh3ZwQPNSnLzdBVMZbmiDc"
            ]
          }
        }
      ],
      "hex": "01000000018f37d9dafc6af9e99f8fb60a4b19cc7c6dbcf4b9ec323146a3ef7a62804d315b000000006b483045022100da008095e4b6c96db2d838d17c7e0212810cbd6ef9d748362e03f9ccf7f9b5d002205aac2a047b637099b1430a1046ad423988ef771994c0443ba6d0a7002ebfe65f0121039c668d1f6ecee1f6fad485f9d06534e9038df8fe9a8ec8135f6a904d8faeabe4ffffffff029eff7431020000001976a914d27c965c1a1770407c0310898ce27337d04a1c2d88ac70b4cc1d000000001976a9140e3f5beba3f041facda0588ba3a52e0478b9d35988ac00000000"
    }, 
    {
      "txid": "046917932c4a533247752cab3071984b870ddea6a3276af9ab6bf53cb6d47bc3",
      "hash": "046917932c4a533247752cab3071984b870ddea6a3276af9ab6bf53cb6d47bc3",
      "version": 1,
      "size": 226,
      "vsize": 226,
      "locktime": 0,
      "vin": [
        {
          "txid": "45c0523ddf9ccbfce60c7724e584d1ea139763cfd071abbb45c9abcb92c7b5d6",
          "vout": 0,
          "scriptSig": {
            "asm": "3045022100938ee41813eb1523a90e4ebadb9e95d7045e4c325d5bd782ce185bfdb797b4d4022044c815231200065c4438b10c706da2b9c9693c858acaded813df35a8675dc0d6[ALL] 02a6955b53ccc308c250af272e5cadde71f8696070f579af9737e7c89f8e30b71d",
            "hex": "483045022100938ee41813eb1523a90e4ebadb9e95d7045e4c325d5bd782ce185bfdb797b4d4022044c815231200065c4438b10c706da2b9c9693c858acaded813df35a8675dc0d6012102a6955b53ccc308c250af272e5cadde71f8696070f579af9737e7c89f8e30b71d"
          },
          "sequence": 4294967295
        }
      ],
      "vout": [
        {
          "value": 0.00054604,
          "n": 0,
          "scriptPubKey": {
            "asm": "OP_DUP OP_HASH160 22bc61bea4c51e0ae1b5b10efca11d0302b01159 OP_EQUALVERIFY OP_CHECKSIG",
            "hex": "76a91422bc61bea4c51e0ae1b5b10efca11d0302b0115988ac",
            "reqSigs": 1,
            "type": "pubkeyhash",
            "addresses": [
              "LNPcujUrnSPiW7SRjTFH5eS78sjcjk6Qay"
            ]
          }
        }, 
        {
          "value": 0.06196000,
          "n": 1,
          "scriptPubKey": {
            "asm": "OP_DUP OP_HASH160 ca5672350d3812a85f2c4f00d0f9ee784f9159b4 OP_EQUALVERIFY OP_CHECKSIG",
            "hex": "76a914ca5672350d3812a85f2c4f00d0f9ee784f9159b488ac",
            "reqSigs": 1,
            "type": "pubkeyhash",
            "addresses": [
              "LdfpKLwXvZvpQN6gG4xaE5caRDGZQZ8sb5"
            ]
          }
        }
      ],
      "hex": "0100000001d6b5c792cbabc945bbab71d0cf639713ead184e524770ce6fccb9cdf3d52c045000000006b483045022100938ee41813eb1523a90e4ebadb9e95d7045e4c325d5bd782ce185bfdb797b4d4022044c815231200065c4438b10c706da2b9c9693c858acaded813df35a8675dc0d6012102a6955b53ccc308c250af272e5cadde71f8696070f579af9737e7c89f8e30b71dffffffff024cd50000000000001976a91422bc61bea4c51e0ae1b5b10efca11d0302b0115988ac208b5e00000000001976a914ca5672350d3812a85f2c4f00d0f9ee784f9159b488ac00000000"
    }
  ],
  "time": 1517459832,
  "mediantime": 1517458377,
  "nonce": 1378416819,
  "bits": "1a042eae",
  "difficulty": 4011378.762614286,
  "chainwork": "0000000000000000000000000000000000000000000000351e817afb2e9746f0",
  "previousblockhash": "70a8e506408fda79592018027baeffd20d1ebd565d772ec315297c4c4d20c9c5",
  "nextblockhash": "ae62048b8493fbb28583cca6b21322dc51d689b662d77aa039529f43e6f648ff"
}
