{
  "hash": "912ec28a5a3934a791e835a7a7a9a27d0461072bf1b5a54db420f80412bf892f",
  "confirmations": 2334,
  "strippedsize": 266,
  "size": 266,
  "weight": 1064,
  "height": 1358661,
  "version": 536870912,
  "versionHex": "20000000",
  "merkleroot": "052271848573e20df2f1e352cd7cd7138c6fce4da72d6540fbf7e35c78968d7e",
  "tx": [
    {
      "txid": "052271848573e20df2f1e352cd7cd7138c6fce4da72d6540fbf7e35c78968d7e",
      "hash": "052271848573e20df2f1e352cd7cd7138c6fce4da72d6540fbf7e35c78968d7e",
      "version": 1,
      "size": 185,
      "vsize": 185,
      "locktime": 949733435,
      "vin": [
        {
          "coinbase": "0345bb142cfabe6d6d6d1c126a2c6f57d483be31089ddef49e387f0a4d458f637a879389db54d9732408000000f09f909f144d696e6564206279206c69667579616e67353231000000000000000000000000000000000000000000000000000000000000",
          "sequence": 2
        }
      ],
      "vout": [
        {
          "value": 25.00000000,
          "n": 0,
          "scriptPubKey": {
            "asm": "OP_DUP OP_HASH160 aa3750aa18b8a0f3f0590731e1fab934856680cf OP_EQUALVERIFY OP_CHECKSIG",
            "hex": "76a914aa3750aa18b8a0f3f0590731e1fab934856680cf88ac",
            "reqSigs": 1,
            "type": "pubkeyhash",
            "addresses": [
              "LajyQBeZaBA1NkZDeY8YT5RYYVRkXMvb2T"
            ]
          }
        }
      ],
      "hex": "01000000010000000000000000000000000000000000000000000000000000000000000000ffffffff640345bb142cfabe6d6d6d1c126a2c6f57d483be31089ddef49e387f0a4d458f637a879389db54d9732408000000f09f909f144d696e6564206279206c69667579616e67353231000000000000000000000000000000000000000000000000000000000000020000000100f90295000000001976a914aa3750aa18b8a0f3f0590731e1fab934856680cf88ac3bc89b38"
    }
  ],
  "time": 1517173933,
  "mediantime": 1517172891,
  "nonce": 2520618051,
  "bits": "1a047f14",
  "difficulty": 3731199.183374282,
  "chainwork": "0000000000000000000000000000000000000000000000334983ebeff0bc001c",
  "previousblockhash": "ba9f44f66f23feb13003ff5a4214ac4853233c373bb8a17144c02139f8b44104",
  "nextblockhash": "8faab67e1233d3cd3b9fbd6ffd6c9bdfc6bba2951eef6de2e4c01d48e948cbd3"
}
