{
  "hash": "9152ab0ff2bdc4734934c9366393c7a1e4a47c7cb1ff34a0e263a1ac67256030",
  "confirmations": 1548,
  "strippedsize": 3315,
  "size": 3351,
  "weight": 13296,
  "height": 1359446,
  "version": 536870912,
  "versionHex": "20000000",
  "merkleroot": "00e7af3b44be68ba3e2c8299f929b9d260a3aa22b21beb411575edf8298d7069",
  "tx": [
    {
      "txid": "b2d40ec8c44755a4b9b1dcd4787453c37a8e98505d899192d2187352b0525595",
      "hash": "c28399def8027b32e772363904db71ecc62beaa7efe63a2ba73569b02d6c24f2",
      "version": 1,
      "size": 236,
      "vsize": 209,
      "locktime": 0,
      "vin": [
        {
          "coinbase": "0356be14045a6fe7f52cfabe6d6dee13e08a90eac64891b87d535c87938c206fe1ac03924ebb0e2e37c8e15bc5e24000000000000000042f4c502f0856006cb0b0000000",
          "sequence": 4294967295
        }
      ],
      "vout": [
        {
          "value": 25.00681000,
          "n": 0,
          "scriptPubKey": {
            "asm": "OP_DUP OP_HASH160 57757ed2ecf2052ff3126c397aca7defb9ca2cec OP_EQUALVERIFY OP_CHECKSIG",
            "hex": "76a91457757ed2ecf2052ff3126c397aca7defb9ca2cec88ac",
            "reqSigs": 1,
            "type": "pubkeyhash",
            "addresses": [
              "LTCPodGk5FwcJaRzH9yKnwicxzFUbxp6tN"
            ]
          }
        }, 
        {
          "value": 0.00000000,
          "n": 1,
          "scriptPubKey": {
            "asm": "OP_RETURN aa21a9edeb13258f9b058796f6ac628d70c83890a691a43b0466a0b6668d2e163bf8b51e",
            "hex": "6a24aa21a9edeb13258f9b058796f6ac628d70c83890a691a43b0466a0b6668d2e163bf8b51e",
            "type": "nulldata"
          }
        }
      ],
      "hex": "010000000001010000000000000000000000000000000000000000000000000000000000000000ffffffff440356be14045a6fe7f52cfabe6d6dee13e08a90eac64891b87d535c87938c206fe1ac03924ebb0e2e37c8e15bc5e24000000000000000042f4c502f0856006cb0b0000000ffffffff02285d0d95000000001976a91457757ed2ecf2052ff3126c397aca7defb9ca2cec88ac0000000000000000266a24aa21a9edeb13258f9b058796f6ac628d70c83890a691a43b0466a0b6668d2e163bf8b51e0120000000000000000000000000000000000000000000000000000000000000000000000000"
    }, 
    {
      "txid": "fa05722c93965de2ae3982b7eef7ef54096ff0674a7871a0a949991402424a5b",
      "hash": "fa05722c93965de2ae3982b7eef7ef54096ff0674a7871a0a949991402424a5b",
      "version": 1,
      "size": 191,
      "vsize": 191,
      "locktime": 0,
      "vin": [
        {
          "txid": "4c11b693bb1eab67e0e837c8174d7250f6c7ce0e8cb56f68e90cb836e5f6e1d4",
          "vout": 0,
          "scriptSig": {
            "asm": "30440220131831e72fedb925c0679c0815d6139ec996ad12e66da74d7f6cac32998ae06a0220577a26b2f876ad44ed8513e49916b52a087a2b615761bb32b0ffdec595604ea0[ALL] 03b8069333167853fd88aad848bf31a94c2dfa10f6923894ad16e1ba767a5b8510",
            "hex": "4730440220131831e72fedb925c0679c0815d6139ec996ad12e66da74d7f6cac32998ae06a0220577a26b2f876ad44ed8513e49916b52a087a2b615761bb32b0ffdec595604ea0012103b8069333167853fd88aad848bf31a94c2dfa10f6923894ad16e1ba767a5b8510"
          },
          "sequence": 4294967295
        }
      ],
      "vout": [
        {
          "value": 0.49785300,
          "n": 0,
          "scriptPubKey": {
            "asm": "OP_DUP OP_HASH160 6c9c79fc24e4778d7bb981a169030a0956118066 OP_EQUALVERIFY OP_CHECKSIG",
            "hex": "76a9146c9c79fc24e4778d7bb981a169030a095611806688ac",
            "reqSigs": 1,
            "type": "pubkeyhash",
            "addresses": [
              "LV8Eh7GAzNo96Zp4BE52w56FSUUseJrUMx"
            ]
          }
        }
      ],
      "hex": "0100000001d4e1f6e536b80ce9686fb58c0ecec7f650724d17c837e8e067ab1ebb93b6114c000000006a4730440220131831e72fedb925c0679c0815d6139ec996ad12e66da74d7f6cac32998ae06a0220577a26b2f876ad44ed8513e49916b52a087a2b615761bb32b0ffdec595604ea0012103b8069333167853fd88aad848bf31a94c2dfa10f6923894ad16e1ba767a5b8510ffffffff01d4a9f702000000001976a9146c9c79fc24e4778d7bb981a169030a095611806688ac00000000"
    }, 
    {
      "txid": "0fd91f85f53ed8d1993d18a2d35af6ca728469839663fe08bb848e4726515828",
      "hash": "0fd91f85f53ed8d1993d18a2d35af6ca728469839663fe08bb848e4726515828",
      "version": 1,
      "size": 225,
      "vsize": 225,
      "locktime": 0,
      "vin": [
        {
          "txid": "ef2eeb87505dfc11ac28d5727f7090258d34c24e282aaf0c1ba92682c2ab86aa",
          "vout": 1,
          "scriptSig": {
            "asm": "304402201ea05f211e57f0a4cad4becf0b7b282611d8944080caafeb8360faef1cfd72e2022064af96205735d2a6e644edc8bf96f666b25fecf636b4e51e4053388e8041f519[ALL] 03f4b1ca855105481b84636b3d5751033fdfb4998285efc5fde6fd94412e9dfde1",
            "hex": "47304402201ea05f211e57f0a4cad4becf0b7b282611d8944080caafeb8360faef1cfd72e2022064af96205735d2a6e644edc8bf96f666b25fecf636b4e51e4053388e8041f519012103f4b1ca855105481b84636b3d5751033fdfb4998285efc5fde6fd94412e9dfde1"
          },
          "sequence": 4294967295
        }
      ],
      "vout": [
        {
          "value": 0.10049216,
          "n": 0,
          "scriptPubKey": {
            "asm": "OP_DUP OP_HASH160 a4c3b314957d153326b4cc966e52252c82934a87 OP_EQUALVERIFY OP_CHECKSIG",
            "hex": "76a914a4c3b314957d153326b4cc966e52252c82934a8788ac",
            "reqSigs": 1,
            "type": "pubkeyhash",
            "addresses": [
              "LaF9X7dXTUPGqcrj7pELWFSJsS1xesrvJ9"
            ]
          }
        }, 
        {
          "value": 0.03162164,
          "n": 1,
          "scriptPubKey": {
            "asm": "OP_DUP OP_HASH160 cc0c04c5375826f77789b325a3a9279fb670688f OP_EQUALVERIFY OP_CHECKSIG",
            "hex": "76a914cc0c04c5375826f77789b325a3a9279fb670688f88ac",
            "reqSigs": 1,
            "type": "pubkeyhash",
            "addresses": [
              "LdprWR4u3SoxittQyjMPwqkuy4zKfL5sGq"
            ]
          }
        }
      ],
      "hex": "0100000001aa86abc28226a91b0caf2a284ec2348d2590707f72d528ac11fc5d5087eb2eef010000006a47304402201ea05f211e57f0a4cad4becf0b7b282611d8944080caafeb8360faef1cfd72e2022064af96205735d2a6e644edc8bf96f666b25fecf636b4e51e4053388e8041f519012103f4b1ca855105481b84636b3d5751033fdfb4998285efc5fde6fd94412e9dfde1ffffffff02c0569900000000001976a914a4c3b314957d153326b4cc966e52252c82934a8788ac34403000000000001976a914cc0c04c5375826f77789b325a3a9279fb670688f88ac00000000"
    }, 
    {
      "txid": "8838b7624de114dd331e69e23b2066ae965ed7d2b2e08e6fd7876428f0e800d1",
      "hash": "8838b7624de114dd331e69e23b2066ae965ed7d2b2e08e6fd7876428f0e800d1",
      "version": 1,
      "size": 225,
      "vsize": 225,
      "locktime": 0,
      "vin": [
        {
          "txid": "98bda3b4cade84e555568db2bf915245deacf0d1b6bf5053eb238de96363cae1",
          "vout": 1,
          "scriptSig": {
            "asm": "304402203117aa98ac8ca0e6b875d0875d188216f861202e4a56026447df1034e4ede905022034333ab7e7288d55aee1813253f7e1155b3f5ecf96f672811a9afbad308d4234[ALL] 0207fef5b3da4f548d561e5309464fe0f6a5f67b2ce610152e1ddbf18a8c54d66d",
            "hex": "47304402203117aa98ac8ca0e6b875d0875d188216f861202e4a56026447df1034e4ede905022034333ab7e7288d55aee1813253f7e1155b3f5ecf96f672811a9afbad308d423401210207fef5b3da4f548d561e5309464fe0f6a5f67b2ce610152e1ddbf18a8c54d66d"
          },
          "sequence": 4294967295
        }
      ],
      "vout": [
        {
          "value": 4.00000000,
          "n": 0,
          "scriptPubKey": {
            "asm": "OP_DUP OP_HASH160 5aeda94cc36017a8358cfdf439d118c61bb25493 OP_EQUALVERIFY OP_CHECKSIG",
            "hex": "76a9145aeda94cc36017a8358cfdf439d118c61bb2549388ac",
            "reqSigs": 1,
            "type": "pubkeyhash",
            "addresses": [
              "LTWjnUaU4CFBj3XYUaQh4qHpj1GCMCs4ja"
            ]
          }
        }, 
        {
          "value": 296.49908400,
          "n": 1,
          "scriptPubKey": {
            "asm": "OP_DUP OP_HASH160 dbffff378edcb29dcc3f20162c80d610d002129a OP_EQUALVERIFY OP_CHECKSIG",
            "hex": "76a914dbffff378edcb29dcc3f20162c80d610d002129a88ac",
            "reqSigs": 1,
            "type": "pubkeyhash",
            "addresses": [
              "LfHCvCjor2k1Zpdd8wKXJ2HAnmYq2ETYTJ"
            ]
          }
        }
      ],
      "hex": "0100000001e1ca6363e98d23eb5350bfb6d1f0acde455291bfb28d5655e584decab4a3bd98010000006a47304402203117aa98ac8ca0e6b875d0875d188216f861202e4a56026447df1034e4ede905022034333ab7e7288d55aee1813253f7e1155b3f5ecf96f672811a9afbad308d423401210207fef5b3da4f548d561e5309464fe0f6a5f67b2ce610152e1ddbf18a8c54d66dffffffff020084d717000000001976a9145aeda94cc36017a8358cfdf439d118c61bb2549388acb0b245e7060000001976a914dbffff378edcb29dcc3f20162c80d610d002129a88ac00000000"
    }, 
    {
      "txid": "46dcfe400724a560314e9cb30fb252a12ea8770623b2273864148c06c0cbd341",
      "hash": "46dcfe400724a560314e9cb30fb252a12ea8770623b2273864148c06c0cbd341",
      "version": 1,
      "size": 225,
      "vsize": 225,
      "locktime": 0,
      "vin": [
        {
          "txid": "67f1f0d6013900f23637c0c24694b37c0a395f62ea5c56c46b5e080f39a1656d",
          "vout": 1,
          "scriptSig": {
            "asm": "304402203a315c42b97a1df4a571ae47f7984519fd89c09eeee1412beec5df49e60bd73d02202b56c6cb834bde9b649a46bbd4514d50c2051168692eb2265d1b9710f3759dd7[ALL] 03bf7d30f044216ebdbf46cff08853cfa7de6535a8202119256b60a9d5851d2d3c",
            "hex": "47304402203a315c42b97a1df4a571ae47f7984519fd89c09eeee1412beec5df49e60bd73d02202b56c6cb834bde9b649a46bbd4514d50c2051168692eb2265d1b9710f3759dd7012103bf7d30f044216ebdbf46cff08853cfa7de6535a8202119256b60a9d5851d2d3c"
          },
          "sequence": 4294967295
        }
      ],
      "vout": [
        {
          "value": 1.15751715,
          "n": 0,
          "scriptPubKey": {
            "asm": "OP_DUP OP_HASH160 ade96bdaff7145c41824d0ab7f04bd3bbd046cb1 OP_EQUALVERIFY OP_CHECKSIG",
            "hex": "76a914ade96bdaff7145c41824d0ab7f04bd3bbd046cb188ac",
            "reqSigs": 1,
            "type": "pubkeyhash",
            "addresses": [
              "Lb5WnoABWQMmJtS6YCDFGpMXQ4r1chtErL"
            ]
          }
        }, 
        {
          "value": 8.16192685,
          "n": 1,
          "scriptPubKey": {
            "asm": "OP_DUP OP_HASH160 f0378d6b67dc87210fee5d6d7fba8e3223751cf2 OP_EQUALVERIFY OP_CHECKSIG",
            "hex": "76a914f0378d6b67dc87210fee5d6d7fba8e3223751cf288ac",
            "reqSigs": 1,
            "type": "pubkeyhash",
            "addresses": [
              "Lh86z6sptkSEuLjE8udSoGxbzBXVUU8qtJ"
            ]
          }
        }
      ],
      "hex": "01000000016d65a1390f085e6bc4565cea625f390a7cb39446c2c03736f2003901d6f0f167010000006a47304402203a315c42b97a1df4a571ae47f7984519fd89c09eeee1412beec5df49e60bd73d02202b56c6cb834bde9b649a46bbd4514d50c2051168692eb2265d1b9710f3759dd7012103bf7d30f044216ebdbf46cff08853cfa7de6535a8202119256b60a9d5851d2d3cffffffff02233be606000000001976a914ade96bdaff7145c41824d0ab7f04bd3bbd046cb188acad1ca630000000001976a914f0378d6b67dc87210fee5d6d7fba8e3223751cf288ac00000000"
    }, 
    {
      "txid": "2152b920c7a603ca20324706ed1cdc258a5d24190d6a4720ead5ff774a9f88a7",
      "hash": "2152b920c7a603ca20324706ed1cdc258a5d24190d6a4720ead5ff774a9f88a7",
      "version": 1,
      "size": 225,
      "vsize": 225,
      "locktime": 0,
      "vin": [
        {
          "txid": "e83aee6639f6b12167dd379c90ba1ae5a9c3de50dd3d380edaff34b32b21b8e8",
          "vout": 1,
          "scriptSig": {
            "asm": "3044022024c7101bfed974e46ef69803725362a8d01d6721fe853de8b33cd53f5382582e022027e565bea408245bf39af559d8ab60363d3184267cb6ba44e1c09a5132d1cc51[ALL] 0275b15f6eec823142389602e3f7fb2d68233c80d06a6c96146ad900cfc2e7c4a2",
            "hex": "473044022024c7101bfed974e46ef69803725362a8d01d6721fe853de8b33cd53f5382582e022027e565bea408245bf39af559d8ab60363d3184267cb6ba44e1c09a5132d1cc5101210275b15f6eec823142389602e3f7fb2d68233c80d06a6c96146ad900cfc2e7c4a2"
          },
          "sequence": 4294967295
        }
      ],
      "vout": [
        {
          "value": 0.13865744,
          "n": 0,
          "scriptPubKey": {
            "asm": "OP_DUP OP_HASH160 5c44ab791b133cd46c976f2fd53b611ff82dfb9d OP_EQUALVERIFY OP_CHECKSIG",
            "hex": "76a9145c44ab791b133cd46c976f2fd53b611ff82dfb9d88ac",
            "reqSigs": 1,
            "type": "pubkeyhash",
            "addresses": [
              "LTdph8981HR42i2tmjFq4rRACcp3zfoErR"
            ]
          }
        }, 
        {
          "value": 1.70000000,
          "n": 1,
          "scriptPubKey": {
            "asm": "OP_DUP OP_HASH160 86f531f7a7bad88d37a43b26d48d16d7c6d58254 OP_EQUALVERIFY OP_CHECKSIG",
            "hex": "76a91486f531f7a7bad88d37a43b26d48d16d7c6d5825488ac",
            "reqSigs": 1,
            "type": "pubkeyhash",
            "addresses": [
              "LXXYYNuGjtYXRkcfw6E2Q5PvM2D597vB3u"
            ]
          }
        }
      ],
      "hex": "0100000001e8b8212bb334ffda0e383ddd50dec3a9e51aba909c37dd6721b1f63966ee3ae8010000006a473044022024c7101bfed974e46ef69803725362a8d01d6721fe853de8b33cd53f5382582e022027e565bea408245bf39af559d8ab60363d3184267cb6ba44e1c09a5132d1cc5101210275b15f6eec823142389602e3f7fb2d68233c80d06a6c96146ad900cfc2e7c4a2ffffffff021093d300000000001976a9145c44ab791b133cd46c976f2fd53b611ff82dfb9d88ac80fe210a000000001976a91486f531f7a7bad88d37a43b26d48d16d7c6d5825488ac00000000"
    }, 
    {
      "txid": "60244ba73a2cb156829293e78d644082ea379d8c09d63bd360df79ec2815cbc3",
      "hash": "60244ba73a2cb156829293e78d644082ea379d8c09d63bd360df79ec2815cbc3",
      "version": 1,
      "size": 225,
      "vsize": 225,
      "locktime": 0,
      "vin": [
        {
          "txid": "e83aee6639f6b12167dd379c90ba1ae5a9c3de50dd3d380edaff34b32b21b8e8",
          "vout": 22,
          "scriptSig": {
            "asm": "304402205b872df06596963d21935df9699cf9ee99ac1254a8d55443622873356a83e0a7022003e53c05be630f488a9fe04ecf2a2fd239e9002e981e0bdccf043a59d50321af[ALL] 02a908e6480079f6a226c5f4600336f3ad5d5195b0465099c3cc0f96e1b3569da7",
            "hex": "47304402205b872df06596963d21935df9699cf9ee99ac1254a8d55443622873356a83e0a7022003e53c05be630f488a9fe04ecf2a2fd239e9002e981e0bdccf043a59d50321af012102a908e6480079f6a226c5f4600336f3ad5d5195b0465099c3cc0f96e1b3569da7"
          },
          "sequence": 4294967295
        }
      ],
      "vout": [
        {
          "value": 14.31977400,
          "n": 0,
          "scriptPubKey": {
            "asm": "OP_DUP OP_HASH160 acf261f04d81093e99263d0b9affb83c1f2fe63c OP_EQUALVERIFY OP_CHECKSIG",
            "hex": "76a914acf261f04d81093e99263d0b9affb83c1f2fe63c88ac",
            "reqSigs": 1,
            "type": "pubkeyhash",
            "addresses": [
              "LazQrF7wYQxs9f5mFzJQ3YxT9HXEz86LcK"
            ]
          }
        }, 
        {
          "value": 5.11019371,
          "n": 1,
          "scriptPubKey": {
            "asm": "OP_DUP OP_HASH160 05f4ec6c2463b31409f292ff3ff273607525055e OP_EQUALVERIFY OP_CHECKSIG",
            "hex": "76a91405f4ec6c2463b31409f292ff3ff273607525055e88ac",
            "reqSigs": 1,
            "type": "pubkeyhash",
            "addresses": [
              "LKmT3kru4BHQG4psjh6UKQn2YZu9vPcJrW"
            ]
          }
        }
      ],
      "hex": "0100000001e8b8212bb334ffda0e383ddd50dec3a9e51aba909c37dd6721b1f63966ee3ae8160000006a47304402205b872df06596963d21935df9699cf9ee99ac1254a8d55443622873356a83e0a7022003e53c05be630f488a9fe04ecf2a2fd239e9002e981e0bdccf043a59d50321af012102a908e6480079f6a226c5f4600336f3ad5d5195b0465099c3cc0f96e1b3569da7ffffffff02b83d5a55000000001976a914acf261f04d81093e99263d0b9affb83c1f2fe63c88ac6b89751e000000001976a91405f4ec6c2463b31409f292ff3ff273607525055e88ac00000000"
    }, 
    {
      "txid": "0f628d55b790da57468e578630fafe9cef88f9b5cf7cf5464e27755bb9ec668d",
      "hash": "0f628d55b790da57468e578630fafe9cef88f9b5cf7cf5464e27755bb9ec668d",
      "version": 2,
      "size": 668,
      "vsize": 668,
      "locktime": 1359444,
      "vin": [
        {
          "txid": "789a0239bd6d926177d4c2e8aa61c7e5bc9559eba84a37dbec9cddc0f5bbd5f5",
          "vout": 0,
          "scriptSig": {
            "asm": "3044022003cac07294d3e4e52b75a0496356a2b6110e5000e39b14d22535fed4a01153ad022025295fd8fb9b953e50e5a02f22ed4c076d596e05a8cce45c3dfbeb7a2aefd4a1[ALL] 02160cd8c91b649eb862f2a7e5430ccf367ff06916df75b38b8dc63957458f5c64",
            "hex": "473044022003cac07294d3e4e52b75a0496356a2b6110e5000e39b14d22535fed4a01153ad022025295fd8fb9b953e50e5a02f22ed4c076d596e05a8cce45c3dfbeb7a2aefd4a1012102160cd8c91b649eb862f2a7e5430ccf367ff06916df75b38b8dc63957458f5c64"
          },
          "sequence": 4294967294
        }, 
        {
          "txid": "6627d5fdabf016cd6a450d8a527be7cf75a382212de7c1a98099671227524cff",
          "vout": 0,
          "scriptSig": {
            "asm": "3045022100d5028bd670439513bcbb7f04f8b4766351c2f22d50be5425278ce83d51fcaf0302206bc5461c2e7e780fdd603324957d61b947d6afdff5c922f34a58206fff7813b6[ALL] 02512ab991965800b383e446c00afc5175695c78bdc8d8d1f2a8c0a8f5f8a14d42",
            "hex": "483045022100d5028bd670439513bcbb7f04f8b4766351c2f22d50be5425278ce83d51fcaf0302206bc5461c2e7e780fdd603324957d61b947d6afdff5c922f34a58206fff7813b6012102512ab991965800b383e446c00afc5175695c78bdc8d8d1f2a8c0a8f5f8a14d42"
          },
          "sequence": 4294967294
        }, 
        {
          "txid": "a753833326198bcdea49ceafe18c6832a10e5c566f3d6b525b0847799e2c9faa",
          "vout": 1,
          "scriptSig": {
            "asm": "304502210093b2506ab7b7f0ca3f8c1c5f36a198b6a8d6ad0ca9f04165ff1e5395a016f56d022055ab194d14b7f62e6e234e741ea9413f848ca2c603fa1398217d4a02cba1df24[ALL] 02226745e7b26803086ea0f592a407b6554407c8c81c001d109c1e05ec34fa5e41",
            "hex": "48304502210093b2506ab7b7f0ca3f8c1c5f36a198b6a8d6ad0ca9f04165ff1e5395a016f56d022055ab194d14b7f62e6e234e741ea9413f848ca2c603fa1398217d4a02cba1df24012102226745e7b26803086ea0f592a407b6554407c8c81c001d109c1e05ec34fa5e41"
          },
          "sequence": 4294967294
        }, 
        {
          "txid": "ddbf4f6a5fe7145e2701bad6e587c9d05ee383b1aea31a263b18749b444a13a6",
          "vout": 0,
          "scriptSig": {
            "asm": "304402206db883dce2f6452d07cdae10d759f18c4261328f495d7ee2534bc13af1e410ef02205c4d1b9de849ad1ceb3b6cb396dfbb456f52503628b5a9be3a81e39970452e02[ALL] 03db79f533aeeae798eb44457a455d4fe9c3444bd6f2baec797d483b47fb4b1aaf",
            "hex": "47304402206db883dce2f6452d07cdae10d759f18c4261328f495d7ee2534bc13af1e410ef02205c4d1b9de849ad1ceb3b6cb396dfbb456f52503628b5a9be3a81e39970452e02012103db79f533aeeae798eb44457a455d4fe9c3444bd6f2baec797d483b47fb4b1aaf"
          },
          "sequence": 4294967294
        }
      ],
      "vout": [
        {
          "value": 0.01039581,
          "n": 0,
          "scriptPubKey": {
            "asm": "OP_DUP OP_HASH160 09c5b22695ec7f6d371dba23780a63395a8596d7 OP_EQUALVERIFY OP_CHECKSIG",
            "hex": "76a91409c5b22695ec7f6d371dba23780a63395a8596d788ac",
            "reqSigs": 1,
            "type": "pubkeyhash",
            "addresses": [
              "LL7dB6G7wPB7vuST32kSQY9mGz4GtzUgBx"
            ]
          }
        }, 
        {
          "value": 8.51493194,
          "n": 1,
          "scriptPubKey": {
            "asm": "OP_DUP OP_HASH160 832aa11b83f09965eb614f8afff030b598bd492c OP_EQUALVERIFY OP_CHECKSIG",
            "hex": "76a914832aa11b83f09965eb614f8afff030b598bd492c88ac",
            "reqSigs": 1,
            "type": "pubkeyhash",
            "addresses": [
              "LXBVrHDBvdngGvZxNLLsMU5yLei2jgvjE7"
            ]
          }
        }
      ],
      "hex": "0200000004f5d5bbf5c0dd9cecdb374aa8eb5995bce5c761aae8c2d47761926dbd39029a78000000006a473044022003cac07294d3e4e52b75a0496356a2b6110e5000e39b14d22535fed4a01153ad022025295fd8fb9b953e50e5a02f22ed4c076d596e05a8cce45c3dfbeb7a2aefd4a1012102160cd8c91b649eb862f2a7e5430ccf367ff06916df75b38b8dc63957458f5c64feffffffff4c522712679980a9c1e72d2182a375cfe77b528a0d456acd16f0abfdd52766000000006b483045022100d5028bd670439513bcbb7f04f8b4766351c2f22d50be5425278ce83d51fcaf0302206bc5461c2e7e780fdd603324957d61b947d6afdff5c922f34a58206fff7813b6012102512ab991965800b383e446c00afc5175695c78bdc8d8d1f2a8c0a8f5f8a14d42feffffffaa9f2c9e7947085b526b3d6f565c0ea132688ce1afce49eacd8b1926338353a7010000006b48304502210093b2506ab7b7f0ca3f8c1c5f36a198b6a8d6ad0ca9f04165ff1e5395a016f56d022055ab194d14b7f62e6e234e741ea9413f848ca2c603fa1398217d4a02cba1df24012102226745e7b26803086ea0f592a407b6554407c8c81c001d109c1e05ec34fa5e41feffffffa6134a449b74183b261aa3aeb183e35ed0c987e5d6ba01275e14e75f6a4fbfdd000000006a47304402206db883dce2f6452d07cdae10d759f18c4261328f495d7ee2534bc13af1e410ef02205c4d1b9de849ad1ceb3b6cb396dfbb456f52503628b5a9be3a81e39970452e02012103db79f533aeeae798eb44457a455d4fe9c3444bd6f2baec797d483b47fb4b1aaffeffffff02dddc0f00000000001976a91409c5b22695ec7f6d371dba23780a63395a8596d788ac4ac1c032000000001976a914832aa11b83f09965eb614f8afff030b598bd492c88ac54be1400"
    }, 
    {
      "txid": "2e1d65c5aed532f94750731bff1826a2f021118dbda898351c0e087872ebd33b",
      "hash": "2e1d65c5aed532f94750731bff1826a2f021118dbda898351c0e087872ebd33b",
      "version": 2,
      "size": 373,
      "vsize": 373,
      "locktime": 1359444,
      "vin": [
        {
          "txid": "1aadc2caf9b726fb8f74ec14133063c520890952926b122d67fb6e1d85295c00",
          "vout": 1,
          "scriptSig": {
            "asm": "3045022100f88940132add5d8054ce545efe700b46e4ca34764a08ffa5b4a0c8398d63de74022010a98c4a337aa606fca5914a6b59b5c8b0f9c44413409897013a00928c3c1b37[ALL] 024ed9e4afeb543143bbafe2335f20d93a9af05eb138cbf0056d3ac5e0e0b30994",
            "hex": "483045022100f88940132add5d8054ce545efe700b46e4ca34764a08ffa5b4a0c8398d63de74022010a98c4a337aa606fca5914a6b59b5c8b0f9c44413409897013a00928c3c1b370121024ed9e4afeb543143bbafe2335f20d93a9af05eb138cbf0056d3ac5e0e0b30994"
          },
          "sequence": 4294967294
        }, 
        {
          "txid": "4ee8cfc6baced6f21239f5f7f7aa44de1bd1f38d2d52e799cbe070961a13d3fc",
          "vout": 0,
          "scriptSig": {
            "asm": "304402200c2d3db9f5c2d72b44c225f0e311dd49f35f92897f6f952c2ebb324dc7c75f4f02202d92e252888b33b2ef3323593d55b2d7f9b18a9e5c1e621ae2406c6c96273328[ALL] 038ba189913b42ac26de55ebefa5da329631634331b2d662d2d8e96fd1f2320511",
            "hex": "47304402200c2d3db9f5c2d72b44c225f0e311dd49f35f92897f6f952c2ebb324dc7c75f4f02202d92e252888b33b2ef3323593d55b2d7f9b18a9e5c1e621ae2406c6c962733280121038ba189913b42ac26de55ebefa5da329631634331b2d662d2d8e96fd1f2320511"
          },
          "sequence": 4294967294
        }
      ],
      "vout": [
        {
          "value": 0.30778100,
          "n": 0,
          "scriptPubKey": {
            "asm": "OP_DUP OP_HASH160 f444a68a61248dfc5cfebe07250a3086a3001b2b OP_EQUALVERIFY OP_CHECKSIG",
            "hex": "76a914f444a68a61248dfc5cfebe07250a3086a3001b2b88ac",
            "reqSigs": 1,
            "type": "pubkeyhash",
            "addresses": [
              "LhVXNwfrqZWPHBMP8gQQaZaDYZCmDM111K"
            ]
          }
        }, 
        {
          "value": 0.09896400,
          "n": 1,
          "scriptPubKey": {
            "asm": "OP_DUP OP_HASH160 e0c62ba5b449bb4ec386aa174406042d4d7acae8 OP_EQUALVERIFY OP_CHECKSIG",
            "hex": "76a914e0c62ba5b449bb4ec386aa174406042d4d7acae888ac",
            "reqSigs": 1,
            "type": "pubkeyhash",
            "addresses": [
              "LfiT2Jxyubiay2ekCZERC3Fgw6SBcEqPA2"
            ]
          }
        }
      ],
      "hex": "0200000002005c29851d6efb672d126b9252098920c563301314ec748ffb26b7f9cac2ad1a010000006b483045022100f88940132add5d8054ce545efe700b46e4ca34764a08ffa5b4a0c8398d63de74022010a98c4a337aa606fca5914a6b59b5c8b0f9c44413409897013a00928c3c1b370121024ed9e4afeb543143bbafe2335f20d93a9af05eb138cbf0056d3ac5e0e0b30994fefffffffcd3131a9670e0cb99e7522d8df3d11bde44aaf7f7f53912f2d6cebac6cfe84e000000006a47304402200c2d3db9f5c2d72b44c225f0e311dd49f35f92897f6f952c2ebb324dc7c75f4f02202d92e252888b33b2ef3323593d55b2d7f9b18a9e5c1e621ae2406c6c962733280121038ba189913b42ac26de55ebefa5da329631634331b2d662d2d8e96fd1f2320511feffffff02f4a2d501000000001976a914f444a68a61248dfc5cfebe07250a3086a3001b2b88acd0019700000000001976a914e0c62ba5b449bb4ec386aa174406042d4d7acae888ac54be1400"
    }, 
    {
      "txid": "6bae61dfab24774cfb2885f63ab6a388fe98146a27fa6ff71f95c14aed8f5d17",
      "hash": "6bae61dfab24774cfb2885f63ab6a388fe98146a27fa6ff71f95c14aed8f5d17",
      "version": 1,
      "size": 226,
      "vsize": 226,
      "locktime": 0,
      "vin": [
        {
          "txid": "aac57ccb674f46236efcce221d74d9cc1798c6cfe8c69adb48a403dd4a4ba61a",
          "vout": 0,
          "scriptSig": {
            "asm": "3045022100d6675937bc037e0b4a18a8997eedf323b5fb5f6d4f8cfde367529db4bac795e10220139f9447795e162ead32c67af4d64cee7070f452a870b42d146155b9d9f064e3[ALL] 02d17cff59b7274db96a622d18da508bd0f997ffca6381ce0012f8835fe1b0a838",
            "hex": "483045022100d6675937bc037e0b4a18a8997eedf323b5fb5f6d4f8cfde367529db4bac795e10220139f9447795e162ead32c67af4d64cee7070f452a870b42d146155b9d9f064e3012102d17cff59b7274db96a622d18da508bd0f997ffca6381ce0012f8835fe1b0a838"
          },
          "sequence": 4294967295
        }
      ],
      "vout": [
        {
          "value": 0.00599145,
          "n": 0,
          "scriptPubKey": {
            "asm": "OP_DUP OP_HASH160 43f8b52ca43e76462f97dd3d467bd1ad2768df59 OP_EQUALVERIFY OP_CHECKSIG",
            "hex": "76a91443f8b52ca43e76462f97dd3d467bd1ad2768df5988ac",
            "reqSigs": 1,
            "type": "pubkeyhash",
            "addresses": [
              "LRRMUacv4gV5j6SShZiUwzAMc1c4yP29Fy"
            ]
          }
        }, 
        {
          "value": 0.44457999,
          "n": 1,
          "scriptPubKey": {
            "asm": "OP_DUP OP_HASH160 3865a319485dd8e63f359d030a5f90f13b5514ec OP_EQUALVERIFY OP_CHECKSIG",
            "hex": "76a9143865a319485dd8e63f359d030a5f90f13b5514ec88ac",
            "reqSigs": 1,
            "type": "pubkeyhash",
            "addresses": [
              "LQN9rpphtMM9CebdKgQNgXtfhtPujWxkfF"
            ]
          }
        }
      ],
      "hex": "01000000011aa64b4add03a448db9ac6e8cfc69817ccd9741d22cefc6e23464f67cb7cc5aa000000006b483045022100d6675937bc037e0b4a18a8997eedf323b5fb5f6d4f8cfde367529db4bac795e10220139f9447795e162ead32c67af4d64cee7070f452a870b42d146155b9d9f064e3012102d17cff59b7274db96a622d18da508bd0f997ffca6381ce0012f8835fe1b0a838ffffffff0269240900000000001976a91443f8b52ca43e76462f97dd3d467bd1ad2768df5988ac0f60a602000000001976a9143865a319485dd8e63f359d030a5f90f13b5514ec88ac00000000"
    }, 
    {
      "txid": "1f81f06ba1a2c2e18996cdc3c3784ef8f68262854d4b9d644ad26bb7bb470827",
      "hash": "1f81f06ba1a2c2e18996cdc3c3784ef8f68262854d4b9d644ad26bb7bb470827",
      "version": 1,
      "size": 226,
      "vsize": 226,
      "locktime": 0,
      "vin": [
        {
          "txid": "c4670a1a62cd5de1d9063ad11d6a52ca4df59f04694b369def0798d300ccf365",
          "vout": 1,
          "scriptSig": {
            "asm": "3045022100db53fb93afafe27f359db885fe365e7ee1b34bf3596a65a9c394c09753d312470220072f2084e1ed1c6ba2617ec63a6e9abdeb84bedbfa3a5b6921c7794f8931d5fa[ALL] 0211b4af9747073d801d3ff4fba1f0e0f67f97c71c59ed7e6d42d71bcb289ce652",
            "hex": "483045022100db53fb93afafe27f359db885fe365e7ee1b34bf3596a65a9c394c09753d312470220072f2084e1ed1c6ba2617ec63a6e9abdeb84bedbfa3a5b6921c7794f8931d5fa01210211b4af9747073d801d3ff4fba1f0e0f67f97c71c59ed7e6d42d71bcb289ce652"
          },
          "sequence": 4294967295
        }
      ],
      "vout": [
        {
          "value": 0.03697415,
          "n": 0,
          "scriptPubKey": {
            "asm": "OP_DUP OP_HASH160 25b883f064f1679f0cae18b40ecd7286b511977b OP_EQUALVERIFY OP_CHECKSIG",
            "hex": "76a91425b883f064f1679f0cae18b40ecd7286b511977b88ac",
            "reqSigs": 1,
            "type": "pubkeyhash",
            "addresses": [
              "LNfQJfVtAQwHutHekEAZzUkuyskJ2o2gvN"
            ]
          }
        }, 
        {
          "value": 0.53534079,
          "n": 1,
          "scriptPubKey": {
            "asm": "OP_DUP OP_HASH160 2f4cad2d8ef4a891dd3de22bd180af8e5969e5ab OP_EQUALVERIFY OP_CHECKSIG",
            "hex": "76a9142f4cad2d8ef4a891dd3de22bd180af8e5969e5ab88ac",
            "reqSigs": 1,
            "type": "pubkeyhash",
            "addresses": [
              "LPY3soazBcnbWgwksu5ifbMSafz1bV5h3w"
            ]
          }
        }
      ],
      "hex": "010000000165f3cc00d39807ef9d364b69049ff54dca526a1dd13a06d9e15dcd621a0a67c4010000006b483045022100db53fb93afafe27f359db885fe365e7ee1b34bf3596a65a9c394c09753d312470220072f2084e1ed1c6ba2617ec63a6e9abdeb84bedbfa3a5b6921c7794f8931d5fa01210211b4af9747073d801d3ff4fba1f0e0f67f97c71c59ed7e6d42d71bcb289ce652ffffffff02076b3800000000001976a91425b883f064f1679f0cae18b40ecd7286b511977b88ac7fdd3003000000001976a9142f4cad2d8ef4a891dd3de22bd180af8e5969e5ab88ac00000000"
    }, 
    {
      "txid": "96e43ea718e063e5827a24d850036111e899009081c530f778b2fe8570e1875e",
      "hash": "96e43ea718e063e5827a24d850036111e899009081c530f778b2fe8570e1875e",
      "version": 1,
      "size": 225,
      "vsize": 225,
      "locktime": 0,
      "vin": [
        {
          "txid": "7051471f13b5c64fb6ccb5cd22c662e2527367be15606cf0e271eb7cd992b6ce",
          "vout": 1,
          "scriptSig": {
            "asm": "30440220145360118cda9a1bcc7a22f4458a102b765453c057a7b48a300579d7775c9f4502204c729b92b8fde34170344153f0f4ae77e02082ef6a190c6c8104fb622ec02183[ALL] 03f46f56ca10097e500354982e82477e28ba2ec7fdabd3891c98fd7ccca9782796",
            "hex": "4730440220145360118cda9a1bcc7a22f4458a102b765453c057a7b48a300579d7775c9f4502204c729b92b8fde34170344153f0f4ae77e02082ef6a190c6c8104fb622ec02183012103f46f56ca10097e500354982e82477e28ba2ec7fdabd3891c98fd7ccca9782796"
          },
          "sequence": 4294967295
        }
      ],
      "vout": [
        {
          "value": 0.00930000,
          "n": 0,
          "scriptPubKey": {
            "asm": "OP_DUP OP_HASH160 165220286dd6ba391386f08d31d3243abe10eb88 OP_EQUALVERIFY OP_CHECKSIG",
            "hex": "76a914165220286dd6ba391386f08d31d3243abe10eb8888ac",
            "reqSigs": 1,
            "type": "pubkeyhash",
            "addresses": [
              "LMFyWcyuTteWxFZFheJNzq292MHxfxwHds"
            ]
          }
        }, 
        {
          "value": 0.95059500,
          "n": 1,
          "scriptPubKey": {
            "asm": "OP_DUP OP_HASH160 e59a65102f1605e2540e8d237c72339f8bbd0ea5 OP_EQUALVERIFY OP_CHECKSIG",
            "hex": "76a914e59a65102f1605e2540e8d237c72339f8bbd0ea588ac",
            "reqSigs": 1,
            "type": "pubkeyhash",
            "addresses": [
              "Lg9yxgMsXoLVK4UYma2xuGDeyr6sBJeNy8"
            ]
          }
        }
      ],
      "hex": "0100000001ceb692d97ceb71e2f06c6015be677352e262c622cdb5ccb64fc6b5131f475170010000006a4730440220145360118cda9a1bcc7a22f4458a102b765453c057a7b48a300579d7775c9f4502204c729b92b8fde34170344153f0f4ae77e02082ef6a190c6c8104fb622ec02183012103f46f56ca10097e500354982e82477e28ba2ec7fdabd3891c98fd7ccca9782796ffffffff02d0300e00000000001976a914165220286dd6ba391386f08d31d3243abe10eb8888ac2c7eaa05000000001976a914e59a65102f1605e2540e8d237c72339f8bbd0ea588ac00000000"
    }
  ],
  "time": 1517283317,
  "mediantime": 1517282969,
  "nonce": 38590522,
  "bits": "1a042eae",
  "difficulty": 4011378.762614286,
  "chainwork": "000000000000000000000000000000000000000000000034032bf76bf85ca42e",
  "previousblockhash": "9f5a795de1dba665d833533d9701668bca1ef1ff6cfff0d28faa86e4d2982bce",
  "nextblockhash": "7421058f220e48af806c469e010089977358d33905fa6ec654abe10d503e82fa"
}
