{
  "hash": "916927cf10b6fd8d6ba967694e763158810e49fdf3f7a89ae8689230da1ae6cc",
  "confirmations": 1352,
  "strippedsize": 254,
  "size": 254,
  "weight": 1016,
  "height": 1359642,
  "version": 536870912,
  "versionHex": "20000000",
  "merkleroot": "dd8f5197424db528ca30e80be1e874c021c4e691c658f8903a69dc4f95cea0dc",
  "tx": [
    {
      "txid": "dd8f5197424db528ca30e80be1e874c021c4e691c658f8903a69dc4f95cea0dc",
      "hash": "dd8f5197424db528ca30e80be1e874c021c4e691c658f8903a69dc4f95cea0dc",
      "version": 1,
      "size": 173,
      "vsize": 173,
      "locktime": 0,
      "vin": [
        {
          "coinbase": "031abf141b4d696e656420627920416e74506f6f6c20626a312045205a705792fabe6d6de6931b623770d04e5ab724b995f3864098cebf7cc42ada1f284b7227508e68ac0400000000000000131600000000000002000000",
          "sequence": 4294967295
        }
      ],
      "vout": [
        {
          "value": 25.00000000,
          "n": 0,
          "scriptPubKey": {
            "asm": "OP_DUP OP_HASH160 0ff3ccc5e8be88afe24b5d634e5852d474dbdff1 OP_EQUALVERIFY OP_CHECKSIG",
            "hex": "76a9140ff3ccc5e8be88afe24b5d634e5852d474dbdff188ac",
            "reqSigs": 1,
            "type": "pubkeyhash",
            "addresses": [
              "LLgJTbzZMsRTCUF1NtvvL9SR1a4pVieW89"
            ]
          }
        }
      ],
      "hex": "01000000010000000000000000000000000000000000000000000000000000000000000000ffffffff58031abf141b4d696e656420627920416e74506f6f6c20626a312045205a705792fabe6d6de6931b623770d04e5ab724b995f3864098cebf7cc42ada1f284b7227508e68ac0400000000000000131600000000000002000000ffffffff0100f90295000000001976a9140ff3ccc5e8be88afe24b5d634e5852d474dbdff188ac00000000"
    }
  ],
  "time": 1517311890,
  "mediantime": 1517311460,
  "nonce": 3142768082,
  "bits": "1a042eae",
  "difficulty": 4011378.762614286,
  "chainwork": "000000000000000000000000000000000000000000000034320912268c066bb6",
  "previousblockhash": "91df78aa6c8305b7dde70db89358479b4a11df5e3eb1ea77ef742626a703cf1c",
  "nextblockhash": "7e1cc17e4db7bf44fd8418d45f46341b34f9aa084da7a7ec208d20bbe017dee6"
}
