{
  "hash": "91b7df4d9b5dd20992f138aaa1bb923ebad0d828c9ed88ec53920cbfc39bbd03",
  "confirmations": 841,
  "strippedsize": 4594,
  "size": 4630,
  "weight": 18412,
  "height": 1360153,
  "version": 536870912,
  "versionHex": "20000000",
  "merkleroot": "b393660a6af631112079921fc9a081a6feef10d5d65dfc6c5c5e77de6af85ce4",
  "tx": [
    {
      "txid": "e3c5092001762f3e4786995662c08729fec6363d6a179464d4093e983a632f3e",
      "hash": "030f92dd6f629ede581cb6f1aaf32920d0d2d46580a57ac8aa4f5fd4b39e6462",
      "version": 1,
      "size": 236,
      "vsize": 209,
      "locktime": 0,
      "vin": [
        {
          "coinbase": "0319c114045a716d152cfabe6d6d5dca2c24bb05f2e207c5f9d9f2dca973abb379087e940d648c035b3e093fe7dd4000000000000000042f4c502f0822006932e5030000",
          "sequence": 4294967295
        }
      ],
      "vout": [
        {
          "value": 25.00417599,
          "n": 0,
          "scriptPubKey": {
            "asm": "OP_DUP OP_HASH160 57757ed2ecf2052ff3126c397aca7defb9ca2cec OP_EQUALVERIFY OP_CHECKSIG",
            "hex": "76a91457757ed2ecf2052ff3126c397aca7defb9ca2cec88ac",
            "reqSigs": 1,
            "type": "pubkeyhash",
            "addresses": [
              "LTCPodGk5FwcJaRzH9yKnwicxzFUbxp6tN"
            ]
          }
        }, 
        {
          "value": 0.00000000,
          "n": 1,
          "scriptPubKey": {
            "asm": "OP_RETURN aa21a9ed2c3f4d74999b384a35a7dc5383fef894923dae672215363fd21eb4e6ecc3f389",
            "hex": "6a24aa21a9ed2c3f4d74999b384a35a7dc5383fef894923dae672215363fd21eb4e6ecc3f389",
            "type": "nulldata"
          }
        }
      ],
      "hex": "010000000001010000000000000000000000000000000000000000000000000000000000000000ffffffff440319c114045a716d152cfabe6d6d5dca2c24bb05f2e207c5f9d9f2dca973abb379087e940d648c035b3e093fe7dd4000000000000000042f4c502f0822006932e5030000ffffffff023f580995000000001976a91457757ed2ecf2052ff3126c397aca7defb9ca2cec88ac0000000000000000266a24aa21a9ed2c3f4d74999b384a35a7dc5383fef894923dae672215363fd21eb4e6ecc3f3890120000000000000000000000000000000000000000000000000000000000000000000000000"
    }, 
    {
      "txid": "435656c75f9ef9bcde2ecb0350be9765d57eed6c04d616bb93a7f6722a653d92",
      "hash": "435656c75f9ef9bcde2ecb0350be9765d57eed6c04d616bb93a7f6722a653d92",
      "version": 1,
      "size": 669,
      "vsize": 669,
      "locktime": 1360151,
      "vin": [
        {
          "txid": "9d5451334526e74a6d1ba994470e692c9815ec7a9fa5d935e9c250049819b643",
          "vout": 1,
          "scriptSig": {
            "asm": "304402202ec961f8b5bbf5c38493fb38f2cace0eb36296b4415f832dd978715ce6ce526c02200df69ad0f2dcd05de7c1e48d93990f86d343348eb730236412431e540c10b1f1[ALL] 02a3b6a09c1de8ee3184cff51403be304ff4fc240be8d505723f2ce38a93c5bfe3",
            "hex": "47304402202ec961f8b5bbf5c38493fb38f2cace0eb36296b4415f832dd978715ce6ce526c02200df69ad0f2dcd05de7c1e48d93990f86d343348eb730236412431e540c10b1f1012102a3b6a09c1de8ee3184cff51403be304ff4fc240be8d505723f2ce38a93c5bfe3"
          },
          "sequence": 4294967294
        }, 
        {
          "txid": "ab2307aaf3fcf29b3ef23771fe75b92e677e9112e0e6d0f06210b3c754b540fb",
          "vout": 1,
          "scriptSig": {
            "asm": "3045022100d6f72a72758abec92829d98f753e3c64ff85dccd0dccbc4a3f4b1acf8d00c37f022025bb19a2c6c5a6d04bb5bc243cf59edde19e2d214272aaf163c8a7b81cdd6abb[ALL] 0297f0796d60c872bd2cb714a99a41730ee504d66f841016190111666cdb1b2cf6",
            "hex": "483045022100d6f72a72758abec92829d98f753e3c64ff85dccd0dccbc4a3f4b1acf8d00c37f022025bb19a2c6c5a6d04bb5bc243cf59edde19e2d214272aaf163c8a7b81cdd6abb01210297f0796d60c872bd2cb714a99a41730ee504d66f841016190111666cdb1b2cf6"
          },
          "sequence": 4294967294
        }, 
        {
          "txid": "350beb71e94b0d06369f1438a1214794f234c9365c2d263fbcd96738c4de8a5e",
          "vout": 0,
          "scriptSig": {
            "asm": "3045022100b0b942bef9356d8cacaf3362a393c835fb9b761fa11315a13ef69395e45d3bcc02204a84c96a7b811b986dd0054a4bfe522b44996875be1881154266adcba69e50e7[ALL] 026d9cff9b2e391968077c49bb9592cbe79d5985160dca5202cb47df7fbb6cbaad",
            "hex": "483045022100b0b942bef9356d8cacaf3362a393c835fb9b761fa11315a13ef69395e45d3bcc02204a84c96a7b811b986dd0054a4bfe522b44996875be1881154266adcba69e50e70121026d9cff9b2e391968077c49bb9592cbe79d5985160dca5202cb47df7fbb6cbaad"
          },
          "sequence": 4294967294
        }, 
        {
          "txid": "ea226d042f86bd1320e21097c121da45146b041a44eb32bcb50e4888e28178c7",
          "vout": 0,
          "scriptSig": {
            "asm": "30450221008ea318917a520a3c3e1313fd3e8735d97ae0c5fdb8777a7c07a4f695e8ab6b9b022038ce7720fe9e4d4c5920089d2e7e2131fddaa399b0552975442c032a5fa2e75c[ALL] 02b79d5bf11e57fd9586f124b1d49fa4f1d5d3d191a11fd7e6a96dee4183409e28",
            "hex": "4830450221008ea318917a520a3c3e1313fd3e8735d97ae0c5fdb8777a7c07a4f695e8ab6b9b022038ce7720fe9e4d4c5920089d2e7e2131fddaa399b0552975442c032a5fa2e75c012102b79d5bf11e57fd9586f124b1d49fa4f1d5d3d191a11fd7e6a96dee4183409e28"
          },
          "sequence": 4294967294
        }
      ],
      "vout": [
        {
          "value": 0.01009843,
          "n": 0,
          "scriptPubKey": {
            "asm": "OP_DUP OP_HASH160 73a302ae47a6116b7cf7b49bd2b6b409ac163b8c OP_EQUALVERIFY OP_CHECKSIG",
            "hex": "76a91473a302ae47a6116b7cf7b49bd2b6b409ac163b8c88ac",
            "reqSigs": 1,
            "type": "pubkeyhash",
            "addresses": [
              "LVmPFSTFFhBAAEidz6p9jAn4Yb5gJ3vebu"
            ]
          }
        }, 
        {
          "value": 0.14900000,
          "n": 1,
          "scriptPubKey": {
            "asm": "OP_DUP OP_HASH160 d4b0a951c2c3d880ddee3b9a4a770263e608bfa2 OP_EQUALVERIFY OP_CHECKSIG",
            "hex": "76a914d4b0a951c2c3d880ddee3b9a4a770263e608bfa288ac",
            "reqSigs": 1,
            "type": "pubkeyhash",
            "addresses": [
              "LecZ9Xj9sUDbKt6hP8ieKfZAoCAd7n7bXq"
            ]
          }
        }
      ],
      "hex": "010000000443b619980450c2e935d9a59f7aec15982c690e4794a91b6d4ae726453351549d010000006a47304402202ec961f8b5bbf5c38493fb38f2cace0eb36296b4415f832dd978715ce6ce526c02200df69ad0f2dcd05de7c1e48d93990f86d343348eb730236412431e540c10b1f1012102a3b6a09c1de8ee3184cff51403be304ff4fc240be8d505723f2ce38a93c5bfe3fefffffffb40b554c7b31062f0d0e6e012917e672eb975fe7137f23e9bf2fcf3aa0723ab010000006b483045022100d6f72a72758abec92829d98f753e3c64ff85dccd0dccbc4a3f4b1acf8d00c37f022025bb19a2c6c5a6d04bb5bc243cf59edde19e2d214272aaf163c8a7b81cdd6abb01210297f0796d60c872bd2cb714a99a41730ee504d66f841016190111666cdb1b2cf6feffffff5e8adec43867d9bc3f262d5c36c934f2944721a138149f36060d4be971eb0b35000000006b483045022100b0b942bef9356d8cacaf3362a393c835fb9b761fa11315a13ef69395e45d3bcc02204a84c96a7b811b986dd0054a4bfe522b44996875be1881154266adcba69e50e70121026d9cff9b2e391968077c49bb9592cbe79d5985160dca5202cb47df7fbb6cbaadfeffffffc77881e288480eb5bc32eb441a046b1445da21c19710e22013bd862f046d22ea000000006b4830450221008ea318917a520a3c3e1313fd3e8735d97ae0c5fdb8777a7c07a4f695e8ab6b9b022038ce7720fe9e4d4c5920089d2e7e2131fddaa399b0552975442c032a5fa2e75c012102b79d5bf11e57fd9586f124b1d49fa4f1d5d3d191a11fd7e6a96dee4183409e28feffffff02b3680f00000000001976a91473a302ae47a6116b7cf7b49bd2b6b409ac163b8c88ac205be300000000001976a914d4b0a951c2c3d880ddee3b9a4a770263e608bfa288ac17c11400"
    }, 
    {
      "txid": "ef74ec0bee29463518d7c5b4aaae9b59e198819459ec29321bbb693a51a53b57",
      "hash": "ef74ec0bee29463518d7c5b4aaae9b59e198819459ec29321bbb693a51a53b57",
      "version": 1,
      "size": 225,
      "vsize": 225,
      "locktime": 0,
      "vin": [
        {
          "txid": "0febaf52cecec1978d25024448dc0a180b22a1fc161cfb543b5b89b6f5caeaea",
          "vout": 1,
          "scriptSig": {
            "asm": "304402200d53dd781b343dde7bd03b4c9266c4299b9f5e4d24578d5cb14577a69371175602207a6a71c0216e06a038da242b5db2f115a8864e5e48ec54bd7470544883970c47[ALL] 0318754b01567649f95106e4290ea74224b7f105542776846430963b9773647665",
            "hex": "47304402200d53dd781b343dde7bd03b4c9266c4299b9f5e4d24578d5cb14577a69371175602207a6a71c0216e06a038da242b5db2f115a8864e5e48ec54bd7470544883970c4701210318754b01567649f95106e4290ea74224b7f105542776846430963b9773647665"
          },
          "sequence": 4294967295
        }
      ],
      "vout": [
        {
          "value": 62.74112369,
          "n": 0,
          "scriptPubKey": {
            "asm": "OP_DUP OP_HASH160 138abc3b54f4636b966ad5d8a4e707fa29015759 OP_EQUALVERIFY OP_CHECKSIG",
            "hex": "76a914138abc3b54f4636b966ad5d8a4e707fa2901575988ac",
            "reqSigs": 1,
            "type": "pubkeyhash",
            "addresses": [
              "LM1HJMVK5Vki1WkUtPfGuZ34s4xaLqCAoT"
            ]
          }
        }, 
        {
          "value": 4.42054931,
          "n": 1,
          "scriptPubKey": {
            "asm": "OP_DUP OP_HASH160 ad48b359ef99a2632898ca43db88a991ce1aa020 OP_EQUALVERIFY OP_CHECKSIG",
            "hex": "76a914ad48b359ef99a2632898ca43db88a991ce1aa02088ac",
            "reqSigs": 1,
            "type": "pubkeyhash",
            "addresses": [
              "Lb2CFj2A75751RZ1Z81NxoBUecQez3TomL"
            ]
          }
        }
      ],
      "hex": "0100000001eaeacaf5b6895b3b54fb1c16fca1220b180adc484402258d97c1cece52afeb0f010000006a47304402200d53dd781b343dde7bd03b4c9266c4299b9f5e4d24578d5cb14577a69371175602207a6a71c0216e06a038da242b5db2f115a8864e5e48ec54bd7470544883970c4701210318754b01567649f95106e4290ea74224b7f105542776846430963b9773647665ffffffff02715bf775010000001976a914138abc3b54f4636b966ad5d8a4e707fa2901575988ac1339591a000000001976a914ad48b359ef99a2632898ca43db88a991ce1aa02088ac00000000"
    }, 
    {
      "txid": "3bd66691cf247d11b77eeef22e1e9ec0bd5a46f3836d7303ee1999436e8f9498",
      "hash": "3bd66691cf247d11b77eeef22e1e9ec0bd5a46f3836d7303ee1999436e8f9498",
      "version": 2,
      "size": 225,
      "vsize": 225,
      "locktime": 1360151,
      "vin": [
        {
          "txid": "bcefef60d9565530e9ba9845ae20e334c9c9246fec161a2b32e291690846c700",
          "vout": 1,
          "scriptSig": {
            "asm": "3044022060d0a6942b6571a95ad47d9d5425d1a76fd17f7c0a10c855923afa44577af4c30220413ba415c062ada1d25f9dffa614d396301c9da6636e1044e82a70dc5ace92f9[ALL] 0392291bc03537032bc20df799100bf78819e4bfd31d6b4bf755770400b33f1ff3",
            "hex": "473044022060d0a6942b6571a95ad47d9d5425d1a76fd17f7c0a10c855923afa44577af4c30220413ba415c062ada1d25f9dffa614d396301c9da6636e1044e82a70dc5ace92f901210392291bc03537032bc20df799100bf78819e4bfd31d6b4bf755770400b33f1ff3"
          },
          "sequence": 4294967294
        }
      ],
      "vout": [
        {
          "value": 468.61234208,
          "n": 0,
          "scriptPubKey": {
            "asm": "OP_DUP OP_HASH160 dec0984e26015faa13de8db100cff6077bf12d06 OP_EQUALVERIFY OP_CHECKSIG",
            "hex": "76a914dec0984e26015faa13de8db100cff6077bf12d0688ac",
            "reqSigs": 1,
            "type": "pubkeyhash",
            "addresses": [
              "LfXkzXj5KJPGz2cpbE9obj5aMGLXrMtmpH"
            ]
          }
        }, 
        {
          "value": 10.98000000,
          "n": 1,
          "scriptPubKey": {
            "asm": "OP_DUP OP_HASH160 c038693f7e6cab0fe21f0f0ff23d8c4e8bee8354 OP_EQUALVERIFY OP_CHECKSIG",
            "hex": "76a914c038693f7e6cab0fe21f0f0ff23d8c4e8bee835488ac",
            "reqSigs": 1,
            "type": "pubkeyhash",
            "addresses": [
              "LckKaZKqCXWkpfVo3Cea8H2xVdL1YMT94X"
            ]
          }
        }
      ],
      "hex": "020000000100c746086991e2322b1a16ec6f24c9c934e320ae4598bae9305556d960efefbc010000006a473044022060d0a6942b6571a95ad47d9d5425d1a76fd17f7c0a10c855923afa44577af4c30220413ba415c062ada1d25f9dffa614d396301c9da6636e1044e82a70dc5ace92f901210392291bc03537032bc20df799100bf78819e4bfd31d6b4bf755770400b33f1ff3feffffff0220b025e90a0000001976a914dec0984e26015faa13de8db100cff6077bf12d0688ac80267241000000001976a914c038693f7e6cab0fe21f0f0ff23d8c4e8bee835488ac17c11400"
    }, 
    {
      "txid": "0e76efa8658bd3340b9a809571cd76f31fcccd71f4bdeba69eac6231bff788a9",
      "hash": "0e76efa8658bd3340b9a809571cd76f31fcccd71f4bdeba69eac6231bff788a9",
      "version": 2,
      "size": 225,
      "vsize": 225,
      "locktime": 1360151,
      "vin": [
        {
          "txid": "0c53fd851667d6d898dbeb25ab488c51d44589a405e2f9debc8a9d94faeceb96",
          "vout": 1,
          "scriptSig": {
            "asm": "304402204f09937ef9627194e4a8ce4211835fb6e5e3d76fae639a20c7acef6f5f17d1ee02204164610c274ca5076184f6bb2c72ba59a50a84d2511a43b57445726318c7f576[ALL] 028bd1549c4a9382e3e34113dd1956d71db80d01c31f72427b4a039730f3982911",
            "hex": "47304402204f09937ef9627194e4a8ce4211835fb6e5e3d76fae639a20c7acef6f5f17d1ee02204164610c274ca5076184f6bb2c72ba59a50a84d2511a43b57445726318c7f5760121028bd1549c4a9382e3e34113dd1956d71db80d01c31f72427b4a039730f3982911"
          },
          "sequence": 4294967294
        }
      ],
      "vout": [
        {
          "value": 479.42449669,
          "n": 0,
          "scriptPubKey": {
            "asm": "OP_DUP OP_HASH160 3c5282f78a616fe0db391d9ef67f29e6dc3ae365 OP_EQUALVERIFY OP_CHECKSIG",
            "hex": "76a9143c5282f78a616fe0db391d9ef67f29e6dc3ae36588ac",
            "reqSigs": 1,
            "type": "pubkeyhash",
            "addresses": [
              "LQiuejDFGBV5fNXkLXRNCQYMrGMznibzaq"
            ]
          }
        }, 
        {
          "value": 0.65473651,
          "n": 1,
          "scriptPubKey": {
            "asm": "OP_DUP OP_HASH160 a3d47df14318dfadfc15eb84d8a87aca25e81e7a OP_EQUALVERIFY OP_CHECKSIG",
            "hex": "76a914a3d47df14318dfadfc15eb84d8a87aca25e81e7a88ac",
            "reqSigs": 1,
            "type": "pubkeyhash",
            "addresses": [
              "LaACxgVinQb5W7kDTjHwsf7FKa348YtqZ7"
            ]
          }
        }
      ],
      "hex": "020000000196ebecfa949d8abcdef9e205a48945d4518c48ab25ebdb98d8d6671685fd530c010000006a47304402204f09937ef9627194e4a8ce4211835fb6e5e3d76fae639a20c7acef6f5f17d1ee02204164610c274ca5076184f6bb2c72ba59a50a84d2511a43b57445726318c7f5760121028bd1549c4a9382e3e34113dd1956d71db80d01c31f72427b4a039730f3982911feffffff0205ba97290b0000001976a9143c5282f78a616fe0db391d9ef67f29e6dc3ae36588ac730ce703000000001976a914a3d47df14318dfadfc15eb84d8a87aca25e81e7a88ac17c11400"
    }, 
    {
      "txid": "f5daee2f047493f70b05dc66c3cb34bbaaf944cfdd9680b16b7ce0050fb2ecd7",
      "hash": "f5daee2f047493f70b05dc66c3cb34bbaaf944cfdd9680b16b7ce0050fb2ecd7",
      "version": 1,
      "size": 225,
      "vsize": 225,
      "locktime": 0,
      "vin": [
        {
          "txid": "fbb65fefafeab4bfe8cdf17cc620389e202ec3c0a046dcc69b12f3378182b8c0",
          "vout": 0,
          "scriptSig": {
            "asm": "30440220409d1d30b2a42f71bbb77080350d98d317a12e77f71bbe97e4ec6875b5e3a31e022007a06f09732d4e0a629f66e2ad2d9e4557343131f76fc79ff668543854d613d0[ALL] 03d953dfc0dc3b3295335567e9c328bd6010161efc840026b338d820609a5f3e8c",
            "hex": "4730440220409d1d30b2a42f71bbb77080350d98d317a12e77f71bbe97e4ec6875b5e3a31e022007a06f09732d4e0a629f66e2ad2d9e4557343131f76fc79ff668543854d613d0012103d953dfc0dc3b3295335567e9c328bd6010161efc840026b338d820609a5f3e8c"
          },
          "sequence": 4294967295
        }
      ],
      "vout": [
        {
          "value": 0.00060300,
          "n": 0,
          "scriptPubKey": {
            "asm": "OP_DUP OP_HASH160 44469d4fbcec9a68efec10b7c0debb2de8ad9bf2 OP_EQUALVERIFY OP_CHECKSIG",
            "hex": "76a91444469d4fbcec9a68efec10b7c0debb2de8ad9bf288ac",
            "reqSigs": 1,
            "type": "pubkeyhash",
            "addresses": [
              "LRSxoe1Dz5okPPgAoEehnmKi11zMDVJWtG"
            ]
          }
        }, 
        {
          "value": 0.12345300,
          "n": 1,
          "scriptPubKey": {
            "asm": "OP_DUP OP_HASH160 e002cbb668ff4eedfa4e0664659056f6259d3d99 OP_EQUALVERIFY OP_CHECKSIG",
            "hex": "76a914e002cbb668ff4eedfa4e0664659056f6259d3d9988ac",
            "reqSigs": 1,
            "type": "pubkeyhash",
            "addresses": [
              "LfeQySCZnKQwKymbCKHVb1BURkcMKq1kE9"
            ]
          }
        }
      ],
      "hex": "0100000001c0b8828137f3129bc6dc46a0c0c32e209e3820c67cf1cde8bfb4eaafef5fb6fb000000006a4730440220409d1d30b2a42f71bbb77080350d98d317a12e77f71bbe97e4ec6875b5e3a31e022007a06f09732d4e0a629f66e2ad2d9e4557343131f76fc79ff668543854d613d0012103d953dfc0dc3b3295335567e9c328bd6010161efc840026b338d820609a5f3e8cffffffff028ceb0000000000001976a91444469d4fbcec9a68efec10b7c0debb2de8ad9bf288acd45fbc00000000001976a914e002cbb668ff4eedfa4e0664659056f6259d3d9988ac00000000"
    }, 
    {
      "txid": "5face53e670cc5688454c4c789be4aaac990f6b3b54ccf05eabe263ba72ca222",
      "hash": "5face53e670cc5688454c4c789be4aaac990f6b3b54ccf05eabe263ba72ca222",
      "version": 1,
      "size": 1998,
      "vsize": 1998,
      "locktime": 0,
      "vin": [
        {
          "txid": "0401a1d86cb9ed71e1fc5fd8542fd12ebd8d41f449d092c758399ee15ecc1597",
          "vout": 0,
          "scriptSig": {
            "asm": "3045022100feecfe556e3d43dfc96aa51753d9481c21fe4c4559e4514890e7fcf4a5743acc0220382715b2f5afc45b9db8c7319155e51b862775650b93db1c94808bf77d1d74b7[ALL] 02158914e9bc10036a3977a4edb1149aac41aa8c66fbd667745acc88c4a3847f92",
            "hex": "483045022100feecfe556e3d43dfc96aa51753d9481c21fe4c4559e4514890e7fcf4a5743acc0220382715b2f5afc45b9db8c7319155e51b862775650b93db1c94808bf77d1d74b7012102158914e9bc10036a3977a4edb1149aac41aa8c66fbd667745acc88c4a3847f92"
          },
          "sequence": 4294967295
        }, 
        {
          "txid": "6fc55c154f4de902fb53f42c9e9627de61aece9a522a15d2080fab1671208eb8",
          "vout": 1,
          "scriptSig": {
            "asm": "304402207209b82af5e5d8c4abdbfc3d3ec11e344fddec715976155b64f24595ff56d3b8022050188764b686694bbc84e13173d7373ac31fc0c6d349a32b3ee16a147ae9d4b5[ALL] 02e2546a5c5c3deb317935a1d70254ebbdbda52332832f28442611cad4731f9e33",
            "hex": "47304402207209b82af5e5d8c4abdbfc3d3ec11e344fddec715976155b64f24595ff56d3b8022050188764b686694bbc84e13173d7373ac31fc0c6d349a32b3ee16a147ae9d4b5012102e2546a5c5c3deb317935a1d70254ebbdbda52332832f28442611cad4731f9e33"
          },
          "sequence": 4294967295
        }, 
        {
          "txid": "20d212d25de5c545c4bcf96c66185c17b1480cb9b8a129a26a893e85d69a2a27",
          "vout": 1,
          "scriptSig": {
            "asm": "304502210085fcecc11f4cc91058f495bff66a1fe029edff2b12119edde90daf12d1112915022002445fd36003d182c7861ea11fd4dc66e5de328692fdecbde9ed836a68b57ae8[ALL] 03a8f8bd80951976a814410c99607a2b7c96e826288bdb480146d0a4e36f21a097",
            "hex": "48304502210085fcecc11f4cc91058f495bff66a1fe029edff2b12119edde90daf12d1112915022002445fd36003d182c7861ea11fd4dc66e5de328692fdecbde9ed836a68b57ae8012103a8f8bd80951976a814410c99607a2b7c96e826288bdb480146d0a4e36f21a097"
          },
          "sequence": 4294967295
        }, 
        {
          "txid": "cc11b7b0d8949c7a3460430d036223d4854aa167196b6453d02b09bf299b4d7c",
          "vout": 0,
          "scriptSig": {
            "asm": "304502210091ef81dcbaf386ae259c2ccb1e483aefc3a67d8d08c9e967f57b5d630e453d8c0220078d457659a17c6070ef43bc3fc87d589cec44f35bc76fcc46f4d822f96a535b[ALL] 02e5658cae49461774e5ea47a61ca2a20a7a5ef958b65cfd2b295f3cbc81582cc2",
            "hex": "48304502210091ef81dcbaf386ae259c2ccb1e483aefc3a67d8d08c9e967f57b5d630e453d8c0220078d457659a17c6070ef43bc3fc87d589cec44f35bc76fcc46f4d822f96a535b012102e5658cae49461774e5ea47a61ca2a20a7a5ef958b65cfd2b295f3cbc81582cc2"
          },
          "sequence": 4294967295
        }, 
        {
          "txid": "7fb97b94f35621ecaea668e415b07378386ac700071249f625cc257bc386752f",
          "vout": 0,
          "scriptSig": {
            "asm": "3044022032d9decdf9948f3c63c3b70b04136a633051dd3fe0455e12ab94d8b58c79cfbe022071516d109d0e5635cbd3c4ba6ba46ba2dc1f291c2202022f5c08155645589fbf[ALL] 02a23cffb66560af225fbd4e05ab075b84a6411c9211a05ca6bd532889bc420f26",
            "hex": "473044022032d9decdf9948f3c63c3b70b04136a633051dd3fe0455e12ab94d8b58c79cfbe022071516d109d0e5635cbd3c4ba6ba46ba2dc1f291c2202022f5c08155645589fbf012102a23cffb66560af225fbd4e05ab075b84a6411c9211a05ca6bd532889bc420f26"
          },
          "sequence": 4294967295
        }, 
        {
          "txid": "28693d2218d6c3f14690e5582d09cb312dc852ac3e8d4303ab402e35e240f096",
          "vout": 0,
          "scriptSig": {
            "asm": "3045022100a4ef5095f4856f644d096f1cb0fa8af3f84c542c1b337d5ff9d9ceb7723abb9f022027cf7e8740f0de04c4c77c64c4e75fdab210a6bd00bd753cf2478ebf709c7e83[ALL] 02f82f6b601eedfa97ed6f8e385c358d98b7dfda0005f8b73fe0aa8b6b91ede77f",
            "hex": "483045022100a4ef5095f4856f644d096f1cb0fa8af3f84c542c1b337d5ff9d9ceb7723abb9f022027cf7e8740f0de04c4c77c64c4e75fdab210a6bd00bd753cf2478ebf709c7e83012102f82f6b601eedfa97ed6f8e385c358d98b7dfda0005f8b73fe0aa8b6b91ede77f"
          },
          "sequence": 4294967295
        }, 
        {
          "txid": "f7d1a672c5a23177189fdb58b841bf00e2bf02f852a414190b968e0075d4ac36",
          "vout": 1,
          "scriptSig": {
            "asm": "30450221008b2b4a1ef88f9be5002773748c72e33e0241a8db00c5e6e61d4d90371234676b0220754bff091d26e2f8600b64c96f5555daa1cdfc10c2af3f5e8e55c5a015fa4a53[ALL] 0357aaaf3c9268853766c9862469476799a285dd3320fa8c9cdb1360fc130214dc",
            "hex": "4830450221008b2b4a1ef88f9be5002773748c72e33e0241a8db00c5e6e61d4d90371234676b0220754bff091d26e2f8600b64c96f5555daa1cdfc10c2af3f5e8e55c5a015fa4a5301210357aaaf3c9268853766c9862469476799a285dd3320fa8c9cdb1360fc130214dc"
          },
          "sequence": 4294967295
        }, 
        {
          "txid": "7c3c8b5e232f405ba2f3f90fa38da859356faa613924dd13ed17f67f0222b6fb",
          "vout": 0,
          "scriptSig": {
            "asm": "3045022100fa945651f80236dd044dcca23ba1fad56c202c4ca306727e07350ca99b75a7c8022051734eca7358acf33e09b3eb2b699c2ff775ac4df30747772fce6828a448347e[ALL] 028471938c1505e9a16d86a10b17fcd2241472182ecc43e50e648269b0b50109c7",
            "hex": "483045022100fa945651f80236dd044dcca23ba1fad56c202c4ca306727e07350ca99b75a7c8022051734eca7358acf33e09b3eb2b699c2ff775ac4df30747772fce6828a448347e0121028471938c1505e9a16d86a10b17fcd2241472182ecc43e50e648269b0b50109c7"
          },
          "sequence": 4294967295
        }, 
        {
          "txid": "5db71b220c73fd43c4e40cb1534c817fd045e4901437b79463e0f3ca27e8bb4e",
          "vout": 0,
          "scriptSig": {
            "asm": "3045022100cab98bc9c6331dd36737972ac2593e0297fd9286e5839f9c8bd92d1cf631e1d702203de12e59996033207d96213e0befe09312f9acc6abd9ab03ddd91ec42573d682[ALL] 02ca7ded5eaa5cce3a4e9c0545e60dc7849d8847ac7583b8f3089de47a5f5d3717",
            "hex": "483045022100cab98bc9c6331dd36737972ac2593e0297fd9286e5839f9c8bd92d1cf631e1d702203de12e59996033207d96213e0befe09312f9acc6abd9ab03ddd91ec42573d682012102ca7ded5eaa5cce3a4e9c0545e60dc7849d8847ac7583b8f3089de47a5f5d3717"
          },
          "sequence": 4294967295
        }, 
        {
          "txid": "8d1e39d20ed49d969d4b92703b8857f9e52a3d6d0dd2fb3ab4768e3bd5caef33",
          "vout": 0,
          "scriptSig": {
            "asm": "3044022029adb200b3af3f91ac12cffcfb8f5e85c2d30b851ba8ecbb90c0979da02cc75c022047958dedc99259802828e80e1b7d4ec6e6b76351b223511b5d4b70b2c9998565[ALL] 020873c9788581f886e922e0f43d538ce30687ff7b60bbc59673fef9b3e807bc1b",
            "hex": "473044022029adb200b3af3f91ac12cffcfb8f5e85c2d30b851ba8ecbb90c0979da02cc75c022047958dedc99259802828e80e1b7d4ec6e6b76351b223511b5d4b70b2c99985650121020873c9788581f886e922e0f43d538ce30687ff7b60bbc59673fef9b3e807bc1b"
          },
          "sequence": 4294967295
        }, 
        {
          "txid": "c3e335bd1785fd1e3f0b562955e4ee10a2a0ecf65101715160d65acc523ec22b",
          "vout": 1,
          "scriptSig": {
            "asm": "3045022100f51f3e022ba1cbb291222bd09aa2609549575302a246d9c492284ca71eef567f02201e1a2a09a81b6ac3d7a20179d29042ec9396cdb3b857d0db608a4af96093e664[ALL] 03d701db93f946fa4285f3c329af0f8a247de6397b3f8ef42e19152878c8fbc18e",
            "hex": "483045022100f51f3e022ba1cbb291222bd09aa2609549575302a246d9c492284ca71eef567f02201e1a2a09a81b6ac3d7a20179d29042ec9396cdb3b857d0db608a4af96093e664012103d701db93f946fa4285f3c329af0f8a247de6397b3f8ef42e19152878c8fbc18e"
          },
          "sequence": 4294967295
        }, 
        {
          "txid": "8ba5295a0bc612e4a70b75ed7d46b5aaa7e989e49ee25b80df09df9a982b2906",
          "vout": 3,
          "scriptSig": {
            "asm": "3045022100b1cfc129859abc84470fcba069ead67037911086c7daa0f295f82e572f7ba37102203d79ce1a3bf97c5c173a034fdbc29c348c2aeaf005a2e68ec3477ec4ded99ed5[ALL] 02e5f264ca7a0f45f7428272bb60e74c9adaa508352c4e9aed2803b3739d4d66d1",
            "hex": "483045022100b1cfc129859abc84470fcba069ead67037911086c7daa0f295f82e572f7ba37102203d79ce1a3bf97c5c173a034fdbc29c348c2aeaf005a2e68ec3477ec4ded99ed5012102e5f264ca7a0f45f7428272bb60e74c9adaa508352c4e9aed2803b3739d4d66d1"
          },
          "sequence": 4294967295
        }, 
        {
          "txid": "3da34df21378c133146ff3ca3731c6a1728c91bfaef72a63468ca2afe433e593",
          "vout": 1,
          "scriptSig": {
            "asm": "304402203d3c3d0603ff72535ac3fb15d4977ff6c4e73d7b3519b133069a0b7f4b68f23f02200423070cb9a70c6198b7a79eec924f7e0fb9b78a447a982ec2346a37ca1f46dc[ALL] 039b59b855859392045db82a82d8ae256bcb3034553d590234cc0c5c978c5665f8",
            "hex": "47304402203d3c3d0603ff72535ac3fb15d4977ff6c4e73d7b3519b133069a0b7f4b68f23f02200423070cb9a70c6198b7a79eec924f7e0fb9b78a447a982ec2346a37ca1f46dc0121039b59b855859392045db82a82d8ae256bcb3034553d590234cc0c5c978c5665f8"
          },
          "sequence": 4294967295
        }
      ],
      "vout": [
        {
          "value": 0.05993286,
          "n": 0,
          "scriptPubKey": {
            "asm": "OP_DUP OP_HASH160 64e1dd61337865b1059ce1618e02b3cf2bcc0a72 OP_EQUALVERIFY OP_CHECKSIG",
            "hex": "76a91464e1dd61337865b1059ce1618e02b3cf2bcc0a7288ac",
            "reqSigs": 1,
            "type": "pubkeyhash",
            "addresses": [
              "LURNQkk7C4G2UvEGrQKH8Eo2ViGGfGjTZe"
            ]
          }
        }, 
        {
          "value": 39.20845703,
          "n": 1,
          "scriptPubKey": {
            "asm": "OP_DUP OP_HASH160 4aab016712cd472e766b517ae22949fd7786551b OP_EQUALVERIFY OP_CHECKSIG",
            "hex": "76a9144aab016712cd472e766b517ae22949fd7786551b88ac",
            "reqSigs": 1,
            "type": "pubkeyhash",
            "addresses": [
              "LS2m85SnR4iPrkmSn6Ur8p8hmVxwWN8j1x"
            ]
          }
        }
      ],
      "hex": "010000000d9715cc5ee19e3958c792d049f4418dbd2ed12f54d85ffce171edb96cd8a10104000000006b483045022100feecfe556e3d43dfc96aa51753d9481c21fe4c4559e4514890e7fcf4a5743acc0220382715b2f5afc45b9db8c7319155e51b862775650b93db1c94808bf77d1d74b7012102158914e9bc10036a3977a4edb1149aac41aa8c66fbd667745acc88c4a3847f92ffffffffb88e207116ab0f08d2152a529aceae61de27969e2cf453fb02e94d4f155cc56f010000006a47304402207209b82af5e5d8c4abdbfc3d3ec11e344fddec715976155b64f24595ff56d3b8022050188764b686694bbc84e13173d7373ac31fc0c6d349a32b3ee16a147ae9d4b5012102e2546a5c5c3deb317935a1d70254ebbdbda52332832f28442611cad4731f9e33ffffffff272a9ad6853e896aa229a1b8b90c48b1175c18666cf9bcc445c5e55dd212d220010000006b48304502210085fcecc11f4cc91058f495bff66a1fe029edff2b12119edde90daf12d1112915022002445fd36003d182c7861ea11fd4dc66e5de328692fdecbde9ed836a68b57ae8012103a8f8bd80951976a814410c99607a2b7c96e826288bdb480146d0a4e36f21a097ffffffff7c4d9b29bf092bd053646b1967a14a85d42362030d4360347a9c94d8b0b711cc000000006b48304502210091ef81dcbaf386ae259c2ccb1e483aefc3a67d8d08c9e967f57b5d630e453d8c0220078d457659a17c6070ef43bc3fc87d589cec44f35bc76fcc46f4d822f96a535b012102e5658cae49461774e5ea47a61ca2a20a7a5ef958b65cfd2b295f3cbc81582cc2ffffffff2f7586c37b25cc25f649120700c76a387873b015e468a6aeec2156f3947bb97f000000006a473044022032d9decdf9948f3c63c3b70b04136a633051dd3fe0455e12ab94d8b58c79cfbe022071516d109d0e5635cbd3c4ba6ba46ba2dc1f291c2202022f5c08155645589fbf012102a23cffb66560af225fbd4e05ab075b84a6411c9211a05ca6bd532889bc420f26ffffffff96f040e2352e40ab03438d3eac52c82d31cb092d58e59046f1c3d618223d6928000000006b483045022100a4ef5095f4856f644d096f1cb0fa8af3f84c542c1b337d5ff9d9ceb7723abb9f022027cf7e8740f0de04c4c77c64c4e75fdab210a6bd00bd753cf2478ebf709c7e83012102f82f6b601eedfa97ed6f8e385c358d98b7dfda0005f8b73fe0aa8b6b91ede77fffffffff36acd475008e960b1914a452f802bfe200bf41b858db9f187731a2c572a6d1f7010000006b4830450221008b2b4a1ef88f9be5002773748c72e33e0241a8db00c5e6e61d4d90371234676b0220754bff091d26e2f8600b64c96f5555daa1cdfc10c2af3f5e8e55c5a015fa4a5301210357aaaf3c9268853766c9862469476799a285dd3320fa8c9cdb1360fc130214dcfffffffffbb622027ff617ed13dd243961aa6f3559a88da30ff9f3a25b402f235e8b3c7c000000006b483045022100fa945651f80236dd044dcca23ba1fad56c202c4ca306727e07350ca99b75a7c8022051734eca7358acf33e09b3eb2b699c2ff775ac4df30747772fce6828a448347e0121028471938c1505e9a16d86a10b17fcd2241472182ecc43e50e648269b0b50109c7ffffffff4ebbe827caf3e06394b7371490e445d07f814c53b10ce4c443fd730c221bb75d000000006b483045022100cab98bc9c6331dd36737972ac2593e0297fd9286e5839f9c8bd92d1cf631e1d702203de12e59996033207d96213e0befe09312f9acc6abd9ab03ddd91ec42573d682012102ca7ded5eaa5cce3a4e9c0545e60dc7849d8847ac7583b8f3089de47a5f5d3717ffffffff33efcad53b8e76b43afbd20d6d3d2ae5f957883b70924b9d969dd40ed2391e8d000000006a473044022029adb200b3af3f91ac12cffcfb8f5e85c2d30b851ba8ecbb90c0979da02cc75c022047958dedc99259802828e80e1b7d4ec6e6b76351b223511b5d4b70b2c99985650121020873c9788581f886e922e0f43d538ce30687ff7b60bbc59673fef9b3e807bc1bffffffff2bc23e52cc5ad66051710151f6eca0a210eee45529560b3f1efd8517bd35e3c3010000006b483045022100f51f3e022ba1cbb291222bd09aa2609549575302a246d9c492284ca71eef567f02201e1a2a09a81b6ac3d7a20179d29042ec9396cdb3b857d0db608a4af96093e664012103d701db93f946fa4285f3c329af0f8a247de6397b3f8ef42e19152878c8fbc18effffffff06292b989adf09df805be29ee489e9a7aab5467ded750ba7e412c60b5a29a58b030000006b483045022100b1cfc129859abc84470fcba069ead67037911086c7daa0f295f82e572f7ba37102203d79ce1a3bf97c5c173a034fdbc29c348c2aeaf005a2e68ec3477ec4ded99ed5012102e5f264ca7a0f45f7428272bb60e74c9adaa508352c4e9aed2803b3739d4d66d1ffffffff93e533e4afa28c46632af7aebf918c72a1c63137caf36f1433c17813f24da33d010000006a47304402203d3c3d0603ff72535ac3fb15d4977ff6c4e73d7b3519b133069a0b7f4b68f23f02200423070cb9a70c6198b7a79eec924f7e0fb9b78a447a982ec2346a37ca1f46dc0121039b59b855859392045db82a82d8ae256bcb3034553d590234cc0c5c978c5665f8ffffffff0246735b00000000001976a91464e1dd61337865b1059ce1618e02b3cf2bcc0a7288ac875bb3e9000000001976a9144aab016712cd472e766b517ae22949fd7786551b88ac00000000"
    }, 
    {
      "txid": "3dd1617ea7c91e6ae1400d8cf05338799a4336cc53addc022059f7c0099f982c",
      "hash": "3dd1617ea7c91e6ae1400d8cf05338799a4336cc53addc022059f7c0099f982c",
      "version": 1,
      "size": 226,
      "vsize": 226,
      "locktime": 0,
      "vin": [
        {
          "txid": "bfd2c2cc3e9617bf7fa7cde42d86ef46d475a17c2a982f3013c601afd20d7935",
          "vout": 1,
          "scriptSig": {
            "asm": "3045022100b118f3f123441a7523d51afbe7a0e704cdd9410a56fb45d272e63b3c4b8ad7e702201474c9c8f4c65262fc768978597640177df149570786c3a85db92c8d28772df9[ALL] 0354f6585447b3af93309b8bcbb82e97b72a5961a355e82f88df30992b54008c0e",
            "hex": "483045022100b118f3f123441a7523d51afbe7a0e704cdd9410a56fb45d272e63b3c4b8ad7e702201474c9c8f4c65262fc768978597640177df149570786c3a85db92c8d28772df901210354f6585447b3af93309b8bcbb82e97b72a5961a355e82f88df30992b54008c0e"
          },
          "sequence": 4294967295
        }
      ],
      "vout": [
        {
          "value": 1.52791600,
          "n": 0,
          "scriptPubKey": {
            "asm": "OP_DUP OP_HASH160 03dad3e017c53f32a9b8e324af51f1932966331d OP_EQUALVERIFY OP_CHECKSIG",
            "hex": "76a91403dad3e017c53f32a9b8e324af51f1932966331d88ac",
            "reqSigs": 1,
            "type": "pubkeyhash",
            "addresses": [
              "LKaLSCWssz1Vpiah2yqQHfudVFYdbW6Hjm"
            ]
          }
        }, 
        {
          "value": 0.01240000,
          "n": 1,
          "scriptPubKey": {
            "asm": "OP_DUP OP_HASH160 ad8cacd4bd8e7528029ff38093beca6874b1310e OP_EQUALVERIFY OP_CHECKSIG",
            "hex": "76a914ad8cacd4bd8e7528029ff38093beca6874b1310e88ac",
            "reqSigs": 1,
            "type": "pubkeyhash",
            "addresses": [
              "Lb3bggJZ8zFN7t2ueJgwH5CnruwzFbvjU6"
            ]
          }
        }
      ],
      "hex": "010000000135790dd2af01c613302f982a7ca175d446ef862de4cda77fbf17963eccc2d2bf010000006b483045022100b118f3f123441a7523d51afbe7a0e704cdd9410a56fb45d272e63b3c4b8ad7e702201474c9c8f4c65262fc768978597640177df149570786c3a85db92c8d28772df901210354f6585447b3af93309b8bcbb82e97b72a5961a355e82f88df30992b54008c0effffffff02306a1b09000000001976a91403dad3e017c53f32a9b8e324af51f1932966331d88acc0eb1200000000001976a914ad8cacd4bd8e7528029ff38093beca6874b1310e88ac00000000"
    }, 
    {
      "txid": "203c4e85238fbf5eba2704d78895397e6fc4a97800991c132caa6a8d0e7d9b74",
      "hash": "203c4e85238fbf5eba2704d78895397e6fc4a97800991c132caa6a8d0e7d9b74",
      "version": 2,
      "size": 520,
      "vsize": 520,
      "locktime": 0,
      "vin": [
        {
          "txid": "0b08d638f75382499e50a2e5d1140dadb897c99cd71e44f92eed33d28f7bdb12",
          "vout": 1,
          "scriptSig": {
            "asm": "3044022062c8b1caebd7bd1a36051714edfc334f948400d4b1c4b5b1f5689ab96ff2280a02200ec1ae22ff6036fcd2852f234074e091bc9e5212951ff0ceade3ad48aa4e5a7a[ALL] 03bea2e32dadae7b38595ad2288ac0eca81956bcb13b839c6a7b7e48629d40222d",
            "hex": "473044022062c8b1caebd7bd1a36051714edfc334f948400d4b1c4b5b1f5689ab96ff2280a02200ec1ae22ff6036fcd2852f234074e091bc9e5212951ff0ceade3ad48aa4e5a7a012103bea2e32dadae7b38595ad2288ac0eca81956bcb13b839c6a7b7e48629d40222d"
          },
          "sequence": 4294967295
        }, 
        {
          "txid": "e47ce925f39733f1a899526b6923663b89fba1470e1f0f7c5f73680fa23554c6",
          "vout": 0,
          "scriptSig": {
            "asm": "30450221009215b8a90f5d912fbae1fcfce53ff72a4c83391219ad534b743a0450b12456d602201bdb8381660e8c94c399683cabd9e144310923c0c3e355e28961877b7b9918dd[ALL] 022f490827bbb8fb3ab562265e4bc09078ddf76cc2790900bb50f9f35f3e9e350e",
            "hex": "4830450221009215b8a90f5d912fbae1fcfce53ff72a4c83391219ad534b743a0450b12456d602201bdb8381660e8c94c399683cabd9e144310923c0c3e355e28961877b7b9918dd0121022f490827bbb8fb3ab562265e4bc09078ddf76cc2790900bb50f9f35f3e9e350e"
          },
          "sequence": 4294967295
        }, 
        {
          "txid": "a91b4fc46be86d687f64dc38890800a8aa46ec8a3c4a9c20b77d75ada93768e3",
          "vout": 0,
          "scriptSig": {
            "asm": "304402200447151f3a4684bd55936083ad70e4d16c713676914f429eea38cb48e510495c02203fd8570d9241dd77a9e1e84b48896e718c6ddbb1849b453e550c22f8d19ffafe[ALL] 03b755726867df8bdb8ce71b37e958ed020c5991fb1430477bfe0d19a084dfc8bc",
            "hex": "47304402200447151f3a4684bd55936083ad70e4d16c713676914f429eea38cb48e510495c02203fd8570d9241dd77a9e1e84b48896e718c6ddbb1849b453e550c22f8d19ffafe012103b755726867df8bdb8ce71b37e958ed020c5991fb1430477bfe0d19a084dfc8bc"
          },
          "sequence": 4294967295
        }
      ],
      "vout": [
        {
          "value": 0.25393800,
          "n": 0,
          "scriptPubKey": {
            "asm": "OP_DUP OP_HASH160 43af0ff41d3d61945d5db56aaff6b459854afbde OP_EQUALVERIFY OP_CHECKSIG",
            "hex": "76a91443af0ff41d3d61945d5db56aaff6b459854afbde88ac",
            "reqSigs": 1,
            "type": "pubkeyhash",
            "addresses": [
              "LRPqFcGEAvSq6CqexxfX7erkKU6GpL9TTU"
            ]
          }
        }, 
        {
          "value": 0.10000000,
          "n": 1,
          "scriptPubKey": {
            "asm": "OP_DUP OP_HASH160 d3486578fa2dc05f1c3faa055cbbe214508ebf74 OP_EQUALVERIFY OP_CHECKSIG",
            "hex": "76a914d3486578fa2dc05f1c3faa055cbbe214508ebf7488ac",
            "reqSigs": 1,
            "type": "pubkeyhash",
            "addresses": [
              "LeV7Zsrrbe1iNhpWCiC8UBfNcePBpmLd7K"
            ]
          }
        }
      ],
      "hex": "020000000312db7b8fd233ed2ef9441ed79cc997b8ad0d14d1e5a2509e498253f738d6080b010000006a473044022062c8b1caebd7bd1a36051714edfc334f948400d4b1c4b5b1f5689ab96ff2280a02200ec1ae22ff6036fcd2852f234074e091bc9e5212951ff0ceade3ad48aa4e5a7a012103bea2e32dadae7b38595ad2288ac0eca81956bcb13b839c6a7b7e48629d40222dffffffffc65435a20f68735f7c0f1f0e47a1fb893b6623696b5299a8f13397f325e97ce4000000006b4830450221009215b8a90f5d912fbae1fcfce53ff72a4c83391219ad534b743a0450b12456d602201bdb8381660e8c94c399683cabd9e144310923c0c3e355e28961877b7b9918dd0121022f490827bbb8fb3ab562265e4bc09078ddf76cc2790900bb50f9f35f3e9e350effffffffe36837a9ad757db7209c4a3c8aec46aaa800088938dc647f686de86bc44f1ba9000000006a47304402200447151f3a4684bd55936083ad70e4d16c713676914f429eea38cb48e510495c02203fd8570d9241dd77a9e1e84b48896e718c6ddbb1849b453e550c22f8d19ffafe012103b755726867df8bdb8ce71b37e958ed020c5991fb1430477bfe0d19a084dfc8bcffffffff02887a8301000000001976a91443af0ff41d3d61945d5db56aaff6b459854afbde88ac80969800000000001976a914d3486578fa2dc05f1c3faa055cbbe214508ebf7488ac00000000"
    }
  ],
  "time": 1517382933,
  "mediantime": 1517382155,
  "nonce": 3756484829,
  "bits": "1a042eae",
  "difficulty": 4011378.762614286,
  "chainwork": "000000000000000000000000000000000000000000000034ac373c68686ec634",
  "previousblockhash": "fdaece9d84fe5cac327e0c750f2218716be9b9cbdb718d2cfd6354f8219bf008",
  "nextblockhash": "7835189bd496b70c3f759d790f2e78ba62d0457e4979545a4e3ada430a0bb4ab"
}
