{
  "hash": "9248d2184576a55ff3d3f1ae0bfd76076272bea00e509950ab99e83b43902146",
  "confirmations": 1878,
  "strippedsize": 6100,
  "size": 6136,
  "weight": 24436,
  "height": 1359116,
  "version": 536870912,
  "versionHex": "20000000",
  "merkleroot": "92e79d5d2cfa72c259982ebb88401fc219dfcb628962a1b3199d694078256061",
  "tx": [
    {
      "txid": "8d2f9fc416c00b83138fb463ddb3e1bedd62e098a86c58dac1956498a416e9c9",
      "hash": "f7844abf59e2d616eca231e9b016617e98d4f43f81233776e6467d713bf27d43",
      "version": 1,
      "size": 277,
      "vsize": 250,
      "locktime": 958143993,
      "vin": [
        {
          "coinbase": "030cbd142cfabe6d6d038e6c78305fc90c973e8e585969cb0c9d9674afa1b20af1d88b1347f6db571108000000f09f909f154d696e6564206279206161737331313232333334340000000000000000000000000000000000000000000000000000000000",
          "sequence": 3
        }
      ],
      "vout": [
        {
          "value": 25.02133300,
          "n": 0,
          "scriptPubKey": {
            "asm": "OP_DUP OP_HASH160 aa3750aa18b8a0f3f0590731e1fab934856680cf OP_EQUALVERIFY OP_CHECKSIG",
            "hex": "76a914aa3750aa18b8a0f3f0590731e1fab934856680cf88ac",
            "reqSigs": 1,
            "type": "pubkeyhash",
            "addresses": [
              "LajyQBeZaBA1NkZDeY8YT5RYYVRkXMvb2T"
            ]
          }
        }, 
        {
          "value": 0.00000000,
          "n": 1,
          "scriptPubKey": {
            "asm": "OP_RETURN aa21a9ede665d09e1cc404c5456489cd26e8be60d7b30da84b4107ead8bc0ae8317bd6fc 0000000000000000",
            "hex": "6a24aa21a9ede665d09e1cc404c5456489cd26e8be60d7b30da84b4107ead8bc0ae8317bd6fc080000000000000000",
            "type": "nulldata"
          }
        }
      ],
      "hex": "010000000001010000000000000000000000000000000000000000000000000000000000000000ffffffff64030cbd142cfabe6d6d038e6c78305fc90c973e8e585969cb0c9d9674afa1b20af1d88b1347f6db571108000000f09f909f154d696e6564206279206161737331313232333334340000000000000000000000000000000000000000000000000000000000030000000234862395000000001976a914aa3750aa18b8a0f3f0590731e1fab934856680cf88ac00000000000000002f6a24aa21a9ede665d09e1cc404c5456489cd26e8be60d7b30da84b4107ead8bc0ae8317bd6fc08000000000000000001200000000000000000000000000000000000000000000000000000000000000000f91d1c39"
    }, 
    {
      "txid": "03d9640d9d0f047ae2a502e75d3f3de915f3368c9133db7fdac8e248860de9ba",
      "hash": "03d9640d9d0f047ae2a502e75d3f3de915f3368c9133db7fdac8e248860de9ba",
      "version": 1,
      "size": 668,
      "vsize": 668,
      "locktime": 1359114,
      "vin": [
        {
          "txid": "e8efe4f41e11d919c24f9b7ac8d2a399662ef8ba93e210ef774c922d65c3971e",
          "vout": 1,
          "scriptSig": {
            "asm": "3045022100af702dcc9b77699c6f7dc596cbdf9abc29420e811aaac2ef5971026409e194450220425bfa9db31130870925342578615a9fa6815db0c11fdb1ba38c44b6af580087[ALL] 03d948f2475df39bf1c7265f4d4e323097f7a1e5fa4433a87f79177c35a5c46288",
            "hex": "483045022100af702dcc9b77699c6f7dc596cbdf9abc29420e811aaac2ef5971026409e194450220425bfa9db31130870925342578615a9fa6815db0c11fdb1ba38c44b6af580087012103d948f2475df39bf1c7265f4d4e323097f7a1e5fa4433a87f79177c35a5c46288"
          },
          "sequence": 4294967294
        }, 
        {
          "txid": "396d7aeaf75a129815cb102a14f237a103c333431d73f41e886fcf5a20577b0c",
          "vout": 1,
          "scriptSig": {
            "asm": "3045022100d04e4e1a2830532dfe5a1277d959d9e71a0eaef6130b19b06ff47922aa8ea4e9022042da25283c187a6c8fb879ef335007bcc7bba93b17f379a43c9ff93909d9c411[ALL] 03e25e4ba4fa118a90b068f1e912112a5218fe9fbdd3428e75fe66151a45cf8740",
            "hex": "483045022100d04e4e1a2830532dfe5a1277d959d9e71a0eaef6130b19b06ff47922aa8ea4e9022042da25283c187a6c8fb879ef335007bcc7bba93b17f379a43c9ff93909d9c411012103e25e4ba4fa118a90b068f1e912112a5218fe9fbdd3428e75fe66151a45cf8740"
          },
          "sequence": 4294967294
        }, 
        {
          "txid": "06b2cd6494e87f2487d3c0999ee17769f5f183524d561e82527323313deff6e3",
          "vout": 1,
          "scriptSig": {
            "asm": "304402205b604b581b36882f2d386e38eb0e6c553363fe30eccd7ea7b09d92dd6a19cd72022075e17010cbb6a6e8040a1116c41cdc7ae8a1cea49fb98272fad599103ce97379[ALL] 02e26498480f70b660baa26963fba5edebd0408f6bb1f39f449e9ec1a89cd4e71a",
            "hex": "47304402205b604b581b36882f2d386e38eb0e6c553363fe30eccd7ea7b09d92dd6a19cd72022075e17010cbb6a6e8040a1116c41cdc7ae8a1cea49fb98272fad599103ce97379012102e26498480f70b660baa26963fba5edebd0408f6bb1f39f449e9ec1a89cd4e71a"
          },
          "sequence": 4294967294
        }, 
        {
          "txid": "c352ceeb40f0a226dc7f6cf15b6c611ef13591381db28ebccc60ecab523d9fdd",
          "vout": 53,
          "scriptSig": {
            "asm": "304402204a7663a2e020ad5935b1da9c34dc97926dffcd5e9ae44ad61ebffc4891140c47022073199288742772015d9c58c4d338ed12fc2a24f3107bb6873428bebc4dd9c82e[ALL] 03235385cada31a605fac063d4d8d9cbb93437009548f8f03e3784f7784340c686",
            "hex": "47304402204a7663a2e020ad5935b1da9c34dc97926dffcd5e9ae44ad61ebffc4891140c47022073199288742772015d9c58c4d338ed12fc2a24f3107bb6873428bebc4dd9c82e012103235385cada31a605fac063d4d8d9cbb93437009548f8f03e3784f7784340c686"
          },
          "sequence": 4294967294
        }
      ],
      "vout": [
        {
          "value": 0.02275402,
          "n": 0,
          "scriptPubKey": {
            "asm": "OP_DUP OP_HASH160 520369ecbf79b668b8bef59670c79f512489b0b5 OP_EQUALVERIFY OP_CHECKSIG",
            "hex": "76a914520369ecbf79b668b8bef59670c79f512489b0b588ac",
            "reqSigs": 1,
            "type": "pubkeyhash",
            "addresses": [
              "LShbm8qUq5Emeg6DiJWUzjB8XkfaC8HCd2"
            ]
          }
        }, 
        {
          "value": 0.01044281,
          "n": 1,
          "scriptPubKey": {
            "asm": "OP_DUP OP_HASH160 a2a4fd10b971d5fa6c9605e650a18208ffcfc514 OP_EQUALVERIFY OP_CHECKSIG",
            "hex": "76a914a2a4fd10b971d5fa6c9605e650a18208ffcfc51488ac",
            "reqSigs": 1,
            "type": "pubkeyhash",
            "addresses": [
              "La3wNtokRLvJ9g73DvjgsdtU3Xsw33hQLr"
            ]
          }
        }
      ],
      "hex": "01000000041e97c3652d924c77ef10e293baf82e6699a3d2c87a9b4fc219d9111ef4e4efe8010000006b483045022100af702dcc9b77699c6f7dc596cbdf9abc29420e811aaac2ef5971026409e194450220425bfa9db31130870925342578615a9fa6815db0c11fdb1ba38c44b6af580087012103d948f2475df39bf1c7265f4d4e323097f7a1e5fa4433a87f79177c35a5c46288feffffff0c7b57205acf6f881ef4731d4333c303a137f2142a10cb1598125af7ea7a6d39010000006b483045022100d04e4e1a2830532dfe5a1277d959d9e71a0eaef6130b19b06ff47922aa8ea4e9022042da25283c187a6c8fb879ef335007bcc7bba93b17f379a43c9ff93909d9c411012103e25e4ba4fa118a90b068f1e912112a5218fe9fbdd3428e75fe66151a45cf8740feffffffe3f6ef3d31237352821e564d5283f1f56977e19e99c0d387247fe89464cdb206010000006a47304402205b604b581b36882f2d386e38eb0e6c553363fe30eccd7ea7b09d92dd6a19cd72022075e17010cbb6a6e8040a1116c41cdc7ae8a1cea49fb98272fad599103ce97379012102e26498480f70b660baa26963fba5edebd0408f6bb1f39f449e9ec1a89cd4e71afeffffffdd9f3d52abec60ccbc8eb21d389135f11e616c5bf16c7fdc26a2f040ebce52c3350000006a47304402204a7663a2e020ad5935b1da9c34dc97926dffcd5e9ae44ad61ebffc4891140c47022073199288742772015d9c58c4d338ed12fc2a24f3107bb6873428bebc4dd9c82e012103235385cada31a605fac063d4d8d9cbb93437009548f8f03e3784f7784340c686feffffff024ab82200000000001976a914520369ecbf79b668b8bef59670c79f512489b0b588ac39ef0f00000000001976a914a2a4fd10b971d5fa6c9605e650a18208ffcfc51488ac0abd1400"
    }, 
    {
      "txid": "18660b1367eb6bb90eda329095a48e957b3bee22744d4a53a1df9fc9a641f32d",
      "hash": "18660b1367eb6bb90eda329095a48e957b3bee22744d4a53a1df9fc9a641f32d",
      "version": 1,
      "size": 226,
      "vsize": 226,
      "locktime": 0,
      "vin": [
        {
          "txid": "04cb83b8846b9ff16622a3ee57a830ac2a1cbba2c99cf02a4bed904b0d0c3340",
          "vout": 1,
          "scriptSig": {
            "asm": "3045022100cbffc70e0d389b8ce149385dc24c898fc0053b0b21f79581c74fc5235d2802fe0220479adeb482e779ee1038908f7c8a9115e683757925078f9bb7f95db32f5c9153[ALL] 03e609d5c3cac0e75711753a550c4f23ef46ea490d594791e2b4ca4dd0bc8f062f",
            "hex": "483045022100cbffc70e0d389b8ce149385dc24c898fc0053b0b21f79581c74fc5235d2802fe0220479adeb482e779ee1038908f7c8a9115e683757925078f9bb7f95db32f5c9153012103e609d5c3cac0e75711753a550c4f23ef46ea490d594791e2b4ca4dd0bc8f062f"
          },
          "sequence": 4294967295
        }
      ],
      "vout": [
        {
          "value": 0.18087445,
          "n": 0,
          "scriptPubKey": {
            "asm": "OP_DUP OP_HASH160 1e14b5d7c36c94ebfdf304661e501379ec5a144a OP_EQUALVERIFY OP_CHECKSIG",
            "hex": "76a9141e14b5d7c36c94ebfdf304661e501379ec5a144a88ac",
            "reqSigs": 1,
            "type": "pubkeyhash",
            "addresses": [
              "LMy1Lwr3vgGsFx56CRV7DJKTLpsdK9GtaV"
            ]
          }
        }, 
        {
          "value": 0.01059230,
          "n": 1,
          "scriptPubKey": {
            "asm": "OP_DUP OP_HASH160 3375b1d9f920f5ed671b93c90a25342ee189ea8e OP_EQUALVERIFY OP_CHECKSIG",
            "hex": "76a9143375b1d9f920f5ed671b93c90a25342ee189ea8e88ac",
            "reqSigs": 1,
            "type": "pubkeyhash",
            "addresses": [
              "LPv3iZzoh56p3h56AvrHtvw8ZWe1AEGae2"
            ]
          }
        }
      ],
      "hex": "010000000140330c0d4b90ed4b2af09cc9a2bb1c2aac30a857eea32266f19f6b84b883cb04010000006b483045022100cbffc70e0d389b8ce149385dc24c898fc0053b0b21f79581c74fc5235d2802fe0220479adeb482e779ee1038908f7c8a9115e683757925078f9bb7f95db32f5c9153012103e609d5c3cac0e75711753a550c4f23ef46ea490d594791e2b4ca4dd0bc8f062fffffffff0215fe1301000000001976a9141e14b5d7c36c94ebfdf304661e501379ec5a144a88ac9e291000000000001976a9143375b1d9f920f5ed671b93c90a25342ee189ea8e88ac00000000"
    }, 
    {
      "txid": "3f1c3b07fd8bb4af035315b481cc8311aefe67c3814791574d99f6423eac3934",
      "hash": "3f1c3b07fd8bb4af035315b481cc8311aefe67c3814791574d99f6423eac3934",
      "version": 1,
      "size": 4062,
      "vsize": 4062,
      "locktime": 0,
      "vin": [
        {
          "txid": "38a0ceb13665cc0e1f5b737d0a21239cf97d856c02c280ac486846abe9d11c2c",
          "vout": 13,
          "scriptSig": {
            "asm": "304402204329c973695af0ad303cd7fdd3bc67d8105cf14409c96a77b8b8b51b9a244e99022000a7221ccb50809a24d466f8f0be58424ffdaa0d4b041cfbb9960db7248fd492[ALL] 03fa27a45cf8b4d4d5323c197ac6f7cf8b0045ff0c259ec78c96ae44baaa7b1dab",
            "hex": "47304402204329c973695af0ad303cd7fdd3bc67d8105cf14409c96a77b8b8b51b9a244e99022000a7221ccb50809a24d466f8f0be58424ffdaa0d4b041cfbb9960db7248fd492012103fa27a45cf8b4d4d5323c197ac6f7cf8b0045ff0c259ec78c96ae44baaa7b1dab"
          },
          "sequence": 4294967295
        }, 
        {
          "txid": "38a0ceb13665cc0e1f5b737d0a21239cf97d856c02c280ac486846abe9d11c2c",
          "vout": 443,
          "scriptSig": {
            "asm": "30450221009ae9ca4e6cca421a3f85e7def88891e587ec15b58183c76ed81afbc39b6bda6b02205833344b8c715cc0bde4232e4d96f6a4a03a45a9921c8061033cca88dcd7d419[ALL] 02ce5149cedb08539a5bc233f61168298681d87fbba2d5e96e63d9dea32ce5d461",
            "hex": "4830450221009ae9ca4e6cca421a3f85e7def88891e587ec15b58183c76ed81afbc39b6bda6b02205833344b8c715cc0bde4232e4d96f6a4a03a45a9921c8061033cca88dcd7d419012102ce5149cedb08539a5bc233f61168298681d87fbba2d5e96e63d9dea32ce5d461"
          },
          "sequence": 4294967295
        }, 
        {
          "txid": "38a0ceb13665cc0e1f5b737d0a21239cf97d856c02c280ac486846abe9d11c2c",
          "vout": 567,
          "scriptSig": {
            "asm": "304402202ffe12dd3c7e34e4a7ad6c9aa893b9fcec2aee8aa3f7ad2ccc3aeeafaf8bed2a022038744bc6727d437c1911893f56b58cd6684f88dd55481a2e047765b2bd42f830[ALL] 03ffdd2be79baead5e8fc4cd243b5ebd7240d79fb3643791365c3e494c0f15f926",
            "hex": "47304402202ffe12dd3c7e34e4a7ad6c9aa893b9fcec2aee8aa3f7ad2ccc3aeeafaf8bed2a022038744bc6727d437c1911893f56b58cd6684f88dd55481a2e047765b2bd42f830012103ffdd2be79baead5e8fc4cd243b5ebd7240d79fb3643791365c3e494c0f15f926"
          },
          "sequence": 4294967295
        }, 
        {
          "txid": "38a0ceb13665cc0e1f5b737d0a21239cf97d856c02c280ac486846abe9d11c2c",
          "vout": 607,
          "scriptSig": {
            "asm": "3045022100884cdbd738cd27f1b23eb2ca55f79df7b62553d4a53f4c012c75b026a582ea76022040c055ee5e0276b6f909afb26844b7c74ba593cb7fa4012be5520963d18f8dc9[ALL] 0360d0bca84550d6feb6c41bfbd924b725d8b78d8b1d04156d5de9138ab6c3ffef",
            "hex": "483045022100884cdbd738cd27f1b23eb2ca55f79df7b62553d4a53f4c012c75b026a582ea76022040c055ee5e0276b6f909afb26844b7c74ba593cb7fa4012be5520963d18f8dc901210360d0bca84550d6feb6c41bfbd924b725d8b78d8b1d04156d5de9138ab6c3ffef"
          },
          "sequence": 4294967295
        }, 
        {
          "txid": "38a0ceb13665cc0e1f5b737d0a21239cf97d856c02c280ac486846abe9d11c2c",
          "vout": 517,
          "scriptSig": {
            "asm": "3045022100e5cdd567c5659d51ec10d9bf814209eeb3d6e6f1cc723a855f201456a185ace4022054daf4a69704ff7227aed1d69d97f34305edd719c0c3aed80b7b0745edb92b17[ALL] 02f514e85b9fbe879757bcc02bf84b7d38416fee89079f3dba7003a9a252d24dcf",
            "hex": "483045022100e5cdd567c5659d51ec10d9bf814209eeb3d6e6f1cc723a855f201456a185ace4022054daf4a69704ff7227aed1d69d97f34305edd719c0c3aed80b7b0745edb92b17012102f514e85b9fbe879757bcc02bf84b7d38416fee89079f3dba7003a9a252d24dcf"
          },
          "sequence": 4294967295
        }, 
        {
          "txid": "38a0ceb13665cc0e1f5b737d0a21239cf97d856c02c280ac486846abe9d11c2c",
          "vout": 696,
          "scriptSig": {
            "asm": "3045022100802ebda8571ec68fffa9187daf4708907e6f26392154fb470a63029d7c10d8f002203faae83202b3c95aaeb76289a080f75317dfe3e78077f594effa04e7ba7e37a2[ALL] 027f8f3a97b05c1d30f05d32cdef5362b3a61d973cbe858bec22a4a8a5cf3e97aa",
            "hex": "483045022100802ebda8571ec68fffa9187daf4708907e6f26392154fb470a63029d7c10d8f002203faae83202b3c95aaeb76289a080f75317dfe3e78077f594effa04e7ba7e37a20121027f8f3a97b05c1d30f05d32cdef5362b3a61d973cbe858bec22a4a8a5cf3e97aa"
          },
          "sequence": 4294967295
        }, 
        {
          "txid": "38a0ceb13665cc0e1f5b737d0a21239cf97d856c02c280ac486846abe9d11c2c",
          "vout": 1078,
          "scriptSig": {
            "asm": "3044022078e3dd627d971a93e858b1c2aa05821b7b810e2e73e72213f5b238de562df5240220527095b0d6eedf7c781a6f0b5fae68d3f977f70c34e7be58107db749dabd4b49[ALL] 02d7bdf5eb0716db6f8bafb08b673eb2a9d0c3ba41a01562e3552ac244f36b1b4b",
            "hex": "473044022078e3dd627d971a93e858b1c2aa05821b7b810e2e73e72213f5b238de562df5240220527095b0d6eedf7c781a6f0b5fae68d3f977f70c34e7be58107db749dabd4b49012102d7bdf5eb0716db6f8bafb08b673eb2a9d0c3ba41a01562e3552ac244f36b1b4b"
          },
          "sequence": 4294967295
        }, 
        {
          "txid": "38a0ceb13665cc0e1f5b737d0a21239cf97d856c02c280ac486846abe9d11c2c",
          "vout": 1193,
          "scriptSig": {
            "asm": "304402203cabca8e0a7c30880da2ed63c17bc2da1a24120b982db3ec8f58e28a98b08490022050fe95ec2a06dbdf59e3df6631f65b899e3c57c5716f40e862e783d05266f580[ALL] 02677c9236e78d2153815bd14e49bcca95a3e1a681730f68593b0fbe7092c6c111",
            "hex": "47304402203cabca8e0a7c30880da2ed63c17bc2da1a24120b982db3ec8f58e28a98b08490022050fe95ec2a06dbdf59e3df6631f65b899e3c57c5716f40e862e783d05266f580012102677c9236e78d2153815bd14e49bcca95a3e1a681730f68593b0fbe7092c6c111"
          },
          "sequence": 4294967295
        }, 
        {
          "txid": "38a0ceb13665cc0e1f5b737d0a21239cf97d856c02c280ac486846abe9d11c2c",
          "vout": 1405,
          "scriptSig": {
            "asm": "3044022001129c0356c442eb20442f2d7dd15033ebe1c3b942556779dfd9159ca6277ff802207daa171475802ac717e102d5705c96d742ead607d2cc9680968458b5fb8ebeac[ALL] 03318b4b0c5204719c3c971042fcc389d3ea430128d5747caece38726fba05146b",
            "hex": "473044022001129c0356c442eb20442f2d7dd15033ebe1c3b942556779dfd9159ca6277ff802207daa171475802ac717e102d5705c96d742ead607d2cc9680968458b5fb8ebeac012103318b4b0c5204719c3c971042fcc389d3ea430128d5747caece38726fba05146b"
          },
          "sequence": 4294967295
        }, 
        {
          "txid": "38a0ceb13665cc0e1f5b737d0a21239cf97d856c02c280ac486846abe9d11c2c",
          "vout": 1730,
          "scriptSig": {
            "asm": "304402205d4dfe36bf6ecfa915df63460d3b60956a336c06a76cb8056beccbacf10becfb02206000c4bfb1dae878448ee9f298421b6aa66c365eb975afd352b2ace27de8c75d[ALL] 02817d70e446a06e000c870e72ce7f94312c09469178794a8e3250b0174481d09f",
            "hex": "47304402205d4dfe36bf6ecfa915df63460d3b60956a336c06a76cb8056beccbacf10becfb02206000c4bfb1dae878448ee9f298421b6aa66c365eb975afd352b2ace27de8c75d012102817d70e446a06e000c870e72ce7f94312c09469178794a8e3250b0174481d09f"
          },
          "sequence": 4294967295
        }, 
        {
          "txid": "38a0ceb13665cc0e1f5b737d0a21239cf97d856c02c280ac486846abe9d11c2c",
          "vout": 695,
          "scriptSig": {
            "asm": "3044022055f42edab544d34a63d79e4843c3c72e6f50cb5142bfea3d1f75531ac42af585022035c002181acb483c3e712835a32d27e3be54b6b2dd180426b7072f84e7b6d0b0[ALL] 02c228c599d9989d9e172c6959aba9b08db9198957dc83425368c4c114207f4f47",
            "hex": "473044022055f42edab544d34a63d79e4843c3c72e6f50cb5142bfea3d1f75531ac42af585022035c002181acb483c3e712835a32d27e3be54b6b2dd180426b7072f84e7b6d0b0012102c228c599d9989d9e172c6959aba9b08db9198957dc83425368c4c114207f4f47"
          },
          "sequence": 4294967295
        }, 
        {
          "txid": "38a0ceb13665cc0e1f5b737d0a21239cf97d856c02c280ac486846abe9d11c2c",
          "vout": 160,
          "scriptSig": {
            "asm": "3045022100c8ea1ee3e3bf39d708027e6d92c225614cd7ebf16dcc79916ac7ebbc92645d8302202bedf1131e3d9ab4293d4901775f29749f80ecb398509ac188d2e060f9984a60[ALL] 03221fb78999e3d1e977007a692d159306dd65473808728720e62fae5c80d2e659",
            "hex": "483045022100c8ea1ee3e3bf39d708027e6d92c225614cd7ebf16dcc79916ac7ebbc92645d8302202bedf1131e3d9ab4293d4901775f29749f80ecb398509ac188d2e060f9984a60012103221fb78999e3d1e977007a692d159306dd65473808728720e62fae5c80d2e659"
          },
          "sequence": 4294967295
        }, 
        {
          "txid": "38a0ceb13665cc0e1f5b737d0a21239cf97d856c02c280ac486846abe9d11c2c",
          "vout": 245,
          "scriptSig": {
            "asm": "304402200dd79d4fe58924b4db9c8a8f3392dae6acb966580586d57f48b735b273bc18f002206ede3c389953176c952af19168b3c063a4078985f789ac72bc5f7337e68fe4f4[ALL] 03b86752e4ae9b2e762d1e503ab24ac03e82c11eaa19e1668e33b401ec7de87f11",
            "hex": "47304402200dd79d4fe58924b4db9c8a8f3392dae6acb966580586d57f48b735b273bc18f002206ede3c389953176c952af19168b3c063a4078985f789ac72bc5f7337e68fe4f4012103b86752e4ae9b2e762d1e503ab24ac03e82c11eaa19e1668e33b401ec7de87f11"
          },
          "sequence": 4294967295
        }, 
        {
          "txid": "38a0ceb13665cc0e1f5b737d0a21239cf97d856c02c280ac486846abe9d11c2c",
          "vout": 830,
          "scriptSig": {
            "asm": "3045022100f294b2402e47af0fe8baf8a4c0b7f008482613a42920330e6cecc912c6e70ea9022027f4e1fee19397d355d9546a1f3c5e8b352513c4595acb1060a7f93c9a82eaca[ALL] 03f6a8112f97622ca075198e3db3d50c5534409501d1222114ece22ab32f74cc38",
            "hex": "483045022100f294b2402e47af0fe8baf8a4c0b7f008482613a42920330e6cecc912c6e70ea9022027f4e1fee19397d355d9546a1f3c5e8b352513c4595acb1060a7f93c9a82eaca012103f6a8112f97622ca075198e3db3d50c5534409501d1222114ece22ab32f74cc38"
          },
          "sequence": 4294967295
        }, 
        {
          "txid": "38a0ceb13665cc0e1f5b737d0a21239cf97d856c02c280ac486846abe9d11c2c",
          "vout": 739,
          "scriptSig": {
            "asm": "3045022100c2e664bf912974382949eddabfb24bff572deebf40fc6c95187758afedc2d40602200d43f2a2eaf4eba649eae7bed940bbc277082128b555367a48cb80004d943b45[ALL] 03e0bad489c379ee8fa40002e4ad2a22e5afa2e6a5475f67dd1a4dcdea91fd6325",
            "hex": "483045022100c2e664bf912974382949eddabfb24bff572deebf40fc6c95187758afedc2d40602200d43f2a2eaf4eba649eae7bed940bbc277082128b555367a48cb80004d943b45012103e0bad489c379ee8fa40002e4ad2a22e5afa2e6a5475f67dd1a4dcdea91fd6325"
          },
          "sequence": 4294967295
        }, 
        {
          "txid": "38a0ceb13665cc0e1f5b737d0a21239cf97d856c02c280ac486846abe9d11c2c",
          "vout": 1616,
          "scriptSig": {
            "asm": "30450221009cab6a6aff64ba7ccbb3d9df7cbef70d483a22182c0ab9e46560407c8303cfd502202195a082fc500b8e5e468a0d59950a32e0ef67525e1311a9e342edd220af9fed[ALL] 03a4e04f63d9d6af59637743d0159ee7727ca1eceb44ed7b371ca3c8cfec6f220f",
            "hex": "4830450221009cab6a6aff64ba7ccbb3d9df7cbef70d483a22182c0ab9e46560407c8303cfd502202195a082fc500b8e5e468a0d59950a32e0ef67525e1311a9e342edd220af9fed012103a4e04f63d9d6af59637743d0159ee7727ca1eceb44ed7b371ca3c8cfec6f220f"
          },
          "sequence": 4294967295
        }, 
        {
          "txid": "38a0ceb13665cc0e1f5b737d0a21239cf97d856c02c280ac486846abe9d11c2c",
          "vout": 466,
          "scriptSig": {
            "asm": "3045022100b97d4c86bd8250d60b8ffe38c53c24a5b5829d0085f48de36bfd8a9dc7bf87ef02200c0bd298d22d76888139046c123a5f38cb64c705c57294bdf4ad0d5018c046d5[ALL] 02102a2c8e8bca67f79294e0dbe5b80198e082aa85ff76b4ef1db728c83549e1ad",
            "hex": "483045022100b97d4c86bd8250d60b8ffe38c53c24a5b5829d0085f48de36bfd8a9dc7bf87ef02200c0bd298d22d76888139046c123a5f38cb64c705c57294bdf4ad0d5018c046d5012102102a2c8e8bca67f79294e0dbe5b80198e082aa85ff76b4ef1db728c83549e1ad"
          },
          "sequence": 4294967295
        }, 
        {
          "txid": "38a0ceb13665cc0e1f5b737d0a21239cf97d856c02c280ac486846abe9d11c2c",
          "vout": 1268,
          "scriptSig": {
            "asm": "304502210098efe6dc906c6c1e3bb5de98d1845b2f85014c7989e17b8e8f709146d0917800022016330352a1c5b610400a4cda88ad305344ceb9cc84d0ee0a383d38e24fde6413[ALL] 03c556a7b1b9f1b91e909d1013a58478a1728ccbbac49bb3b0076d36bae4c3187d",
            "hex": "48304502210098efe6dc906c6c1e3bb5de98d1845b2f85014c7989e17b8e8f709146d0917800022016330352a1c5b610400a4cda88ad305344ceb9cc84d0ee0a383d38e24fde6413012103c556a7b1b9f1b91e909d1013a58478a1728ccbbac49bb3b0076d36bae4c3187d"
          },
          "sequence": 4294967295
        }, 
        {
          "txid": "38a0ceb13665cc0e1f5b737d0a21239cf97d856c02c280ac486846abe9d11c2c",
          "vout": 313,
          "scriptSig": {
            "asm": "304402200d930448ffc9fa16f2f51f498ea18adaf7a456b22c808e0c6e618157fe32494402205b721c472484672aa9d988d090897489ef7a72bd8afc4894466be5c240047513[ALL] 024a0bf688c5f9c2aac9ae2405a84183d25d9548d2d4a560cfbf8ee78baf0ff147",
            "hex": "47304402200d930448ffc9fa16f2f51f498ea18adaf7a456b22c808e0c6e618157fe32494402205b721c472484672aa9d988d090897489ef7a72bd8afc4894466be5c2400475130121024a0bf688c5f9c2aac9ae2405a84183d25d9548d2d4a560cfbf8ee78baf0ff147"
          },
          "sequence": 4294967295
        }, 
        {
          "txid": "38a0ceb13665cc0e1f5b737d0a21239cf97d856c02c280ac486846abe9d11c2c",
          "vout": 915,
          "scriptSig": {
            "asm": "3045022100de895ac28ac522060f5c3d82bdd829b725a28bbb27bd1b29a6b3d629fa73106f02203e90d193573a02bbfb5cfed44166c0d4dcaba2561fccee1fad235a98d8a021bb[ALL] 0272b3a113d88152d06167ccfe391b03e1c8241010f0d6d7ffc898cdaf70c44d42",
            "hex": "483045022100de895ac28ac522060f5c3d82bdd829b725a28bbb27bd1b29a6b3d629fa73106f02203e90d193573a02bbfb5cfed44166c0d4dcaba2561fccee1fad235a98d8a021bb01210272b3a113d88152d06167ccfe391b03e1c8241010f0d6d7ffc898cdaf70c44d42"
          },
          "sequence": 4294967295
        }, 
        {
          "txid": "38a0ceb13665cc0e1f5b737d0a21239cf97d856c02c280ac486846abe9d11c2c",
          "vout": 1242,
          "scriptSig": {
            "asm": "3045022100873c40346a48c671a54ac5453b97fc23f576c8d00ddd5bbeaecca50f340d607b022066dd8f13e778494dd2ef51b77cb2fdf114956abd0f221c8e7c42ca3b50ef546f[ALL] 02feade705ee4bc7a027529f1043314066298cb1113ebd6096e3dddefc98eb4ca7",
            "hex": "483045022100873c40346a48c671a54ac5453b97fc23f576c8d00ddd5bbeaecca50f340d607b022066dd8f13e778494dd2ef51b77cb2fdf114956abd0f221c8e7c42ca3b50ef546f012102feade705ee4bc7a027529f1043314066298cb1113ebd6096e3dddefc98eb4ca7"
          },
          "sequence": 4294967295
        }, 
        {
          "txid": "38a0ceb13665cc0e1f5b737d0a21239cf97d856c02c280ac486846abe9d11c2c",
          "vout": 1689,
          "scriptSig": {
            "asm": "30440220364638759248c14f00f262292f3cdd195466ac8af58468521516eeaaa03f35b70220141002a84dabeaa655345f220eb90115e6325e5c13682b95bea1251800b6d3a6[ALL] 02736c5c80835d8072e2494b302287c581a221b2ae4c7f883295374661cbf0580c",
            "hex": "4730440220364638759248c14f00f262292f3cdd195466ac8af58468521516eeaaa03f35b70220141002a84dabeaa655345f220eb90115e6325e5c13682b95bea1251800b6d3a6012102736c5c80835d8072e2494b302287c581a221b2ae4c7f883295374661cbf0580c"
          },
          "sequence": 4294967295
        }, 
        {
          "txid": "38a0ceb13665cc0e1f5b737d0a21239cf97d856c02c280ac486846abe9d11c2c",
          "vout": 1816,
          "scriptSig": {
            "asm": "304402202bad708eae9a5ae30ecfb0fe4145fedba7985ab705cbf84db33c9512285797cf02203b951c02c6cc9939e411e6f92406f561d00e7fabe24ae1ef6c9bb15c0ca98021[ALL] 03fc6a3045619ee1b98c2456117411f8c8712a1d71986acab19b082ccadb385a30",
            "hex": "47304402202bad708eae9a5ae30ecfb0fe4145fedba7985ab705cbf84db33c9512285797cf02203b951c02c6cc9939e411e6f92406f561d00e7fabe24ae1ef6c9bb15c0ca98021012103fc6a3045619ee1b98c2456117411f8c8712a1d71986acab19b082ccadb385a30"
          },
          "sequence": 4294967295
        }, 
        {
          "txid": "38a0ceb13665cc0e1f5b737d0a21239cf97d856c02c280ac486846abe9d11c2c",
          "vout": 1121,
          "scriptSig": {
            "asm": "3044022000c861baf5687a53e3069e2bc04975c34bba078aa6655aa13c79c8dbec599479022001f892ea96bdda2a9a3a866230473097c6e0711ee64e6df110ccec76ece9ce85[ALL] 0286d81f16d0b49ce01e145174aaf99c7a1bc85fd66894772f64fdb2ba2cac8eb9",
            "hex": "473044022000c861baf5687a53e3069e2bc04975c34bba078aa6655aa13c79c8dbec599479022001f892ea96bdda2a9a3a866230473097c6e0711ee64e6df110ccec76ece9ce8501210286d81f16d0b49ce01e145174aaf99c7a1bc85fd66894772f64fdb2ba2cac8eb9"
          },
          "sequence": 4294967295
        }, 
        {
          "txid": "38a0ceb13665cc0e1f5b737d0a21239cf97d856c02c280ac486846abe9d11c2c",
          "vout": 1797,
          "scriptSig": {
            "asm": "3045022100c36b24f58975b3bccf74decd5acc26d02dddac3025454735ba1a4a0b824efa1e0220523fc5252d59250c1f8647e06e51c8a80b70ccc0e096f44086bf492fef198b3d[ALL] 03d7ae04191472bbbabfc5766fec20bc25098087d78d84bfeca56ce477c5862a97",
            "hex": "483045022100c36b24f58975b3bccf74decd5acc26d02dddac3025454735ba1a4a0b824efa1e0220523fc5252d59250c1f8647e06e51c8a80b70ccc0e096f44086bf492fef198b3d012103d7ae04191472bbbabfc5766fec20bc25098087d78d84bfeca56ce477c5862a97"
          },
          "sequence": 4294967295
        }, 
        {
          "txid": "38a0ceb13665cc0e1f5b737d0a21239cf97d856c02c280ac486846abe9d11c2c",
          "vout": 866,
          "scriptSig": {
            "asm": "3045022100cbd0af1d2add776c5f6be27ea0d79c7cea5a633b3db52c5c5ce1f2d46df6a19002202ac787fcdeaf22ac9bed8e2ead9ab0f8a63d3fd45d27b4e2af751fc61f47864b[ALL] 032700fbf2377933b3ac3b2e695cce27023be0c88463dba32d824ff99e70243501",
            "hex": "483045022100cbd0af1d2add776c5f6be27ea0d79c7cea5a633b3db52c5c5ce1f2d46df6a19002202ac787fcdeaf22ac9bed8e2ead9ab0f8a63d3fd45d27b4e2af751fc61f47864b0121032700fbf2377933b3ac3b2e695cce27023be0c88463dba32d824ff99e70243501"
          },
          "sequence": 4294967295
        }, 
        {
          "txid": "d019c58bb086cdc526865117c67b57e960f53920e06d514299e94bbbbf8aa39e",
          "vout": 1,
          "scriptSig": {
            "asm": "30450221008b8bf612e7dc67843618fe146ee9526d93c9e4ace67b3ed10f111995bc46f6a602207127ff4aad6167915ff970bb4c7f9fd92208258af4fbf52b25fe0fba43befe63[ALL] 0328c9ae635abf580c261c44815dc1aac309e16ff26250525b7e99951369d2b8c7",
            "hex": "4830450221008b8bf612e7dc67843618fe146ee9526d93c9e4ace67b3ed10f111995bc46f6a602207127ff4aad6167915ff970bb4c7f9fd92208258af4fbf52b25fe0fba43befe6301210328c9ae635abf580c261c44815dc1aac309e16ff26250525b7e99951369d2b8c7"
          },
          "sequence": 4294967295
        }
      ],
      "vout": [
        {
          "value": 2.73480639,
          "n": 0,
          "scriptPubKey": {
            "asm": "OP_DUP OP_HASH160 9f9cc272fa995fdc1ad5367224fa3dfdc7beaae8 OP_EQUALVERIFY OP_CHECKSIG",
            "hex": "76a9149f9cc272fa995fdc1ad5367224fa3dfdc7beaae888ac",
            "reqSigs": 1,
            "type": "pubkeyhash",
            "addresses": [
              "LZmuVZR7Lj33LpvQ3YJtqqa5sKeRc9VP8M"
            ]
          }
        }, 
        {
          "value": 10619.86986552,
          "n": 1,
          "scriptPubKey": {
            "asm": "OP_DUP OP_HASH160 c6e3836c2f4cd8f9c53e32813ded99ac0ce001f1 OP_EQUALVERIFY OP_CHECKSIG",
            "hex": "76a914c6e3836c2f4cd8f9c53e32813ded99ac0ce001f188ac",
            "reqSigs": 1,
            "type": "pubkeyhash",
            "addresses": [
              "LdMac6qdwFnBCVXN96dvoPjzbcE36gzs64"
            ]
          }
        }
      ],
      "hex": "010000001b2c1cd1e9ab466848ac80c2026c857df99c23210a7d735b1f0ecc6536b1cea0380d0000006a47304402204329c973695af0ad303cd7fdd3bc67d8105cf14409c96a77b8b8b51b9a244e99022000a7221ccb50809a24d466f8f0be58424ffdaa0d4b041cfbb9960db7248fd492012103fa27a45cf8b4d4d5323c197ac6f7cf8b0045ff0c259ec78c96ae44baaa7b1dabffffffff2c1cd1e9ab466848ac80c2026c857df99c23210a7d735b1f0ecc6536b1cea038bb0100006b4830450221009ae9ca4e6cca421a3f85e7def88891e587ec15b58183c76ed81afbc39b6bda6b02205833344b8c715cc0bde4232e4d96f6a4a03a45a9921c8061033cca88dcd7d419012102ce5149cedb08539a5bc233f61168298681d87fbba2d5e96e63d9dea32ce5d461ffffffff2c1cd1e9ab466848ac80c2026c857df99c23210a7d735b1f0ecc6536b1cea038370200006a47304402202ffe12dd3c7e34e4a7ad6c9aa893b9fcec2aee8aa3f7ad2ccc3aeeafaf8bed2a022038744bc6727d437c1911893f56b58cd6684f88dd55481a2e047765b2bd42f830012103ffdd2be79baead5e8fc4cd243b5ebd7240d79fb3643791365c3e494c0f15f926ffffffff2c1cd1e9ab466848ac80c2026c857df99c23210a7d735b1f0ecc6536b1cea0385f0200006b483045022100884cdbd738cd27f1b23eb2ca55f79df7b62553d4a53f4c012c75b026a582ea76022040c055ee5e0276b6f909afb26844b7c74ba593cb7fa4012be5520963d18f8dc901210360d0bca84550d6feb6c41bfbd924b725d8b78d8b1d04156d5de9138ab6c3ffefffffffff2c1cd1e9ab466848ac80c2026c857df99c23210a7d735b1f0ecc6536b1cea038050200006b483045022100e5cdd567c5659d51ec10d9bf814209eeb3d6e6f1cc723a855f201456a185ace4022054daf4a69704ff7227aed1d69d97f34305edd719c0c3aed80b7b0745edb92b17012102f514e85b9fbe879757bcc02bf84b7d38416fee89079f3dba7003a9a252d24dcfffffffff2c1cd1e9ab466848ac80c2026c857df99c23210a7d735b1f0ecc6536b1cea038b80200006b483045022100802ebda8571ec68fffa9187daf4708907e6f26392154fb470a63029d7c10d8f002203faae83202b3c95aaeb76289a080f75317dfe3e78077f594effa04e7ba7e37a20121027f8f3a97b05c1d30f05d32cdef5362b3a61d973cbe858bec22a4a8a5cf3e97aaffffffff2c1cd1e9ab466848ac80c2026c857df99c23210a7d735b1f0ecc6536b1cea038360400006a473044022078e3dd627d971a93e858b1c2aa05821b7b810e2e73e72213f5b238de562df5240220527095b0d6eedf7c781a6f0b5fae68d3f977f70c34e7be58107db749dabd4b49012102d7bdf5eb0716db6f8bafb08b673eb2a9d0c3ba41a01562e3552ac244f36b1b4bffffffff2c1cd1e9ab466848ac80c2026c857df99c23210a7d735b1f0ecc6536b1cea038a90400006a47304402203cabca8e0a7c30880da2ed63c17bc2da1a24120b982db3ec8f58e28a98b08490022050fe95ec2a06dbdf59e3df6631f65b899e3c57c5716f40e862e783d05266f580012102677c9236e78d2153815bd14e49bcca95a3e1a681730f68593b0fbe7092c6c111ffffffff2c1cd1e9ab466848ac80c2026c857df99c23210a7d735b1f0ecc6536b1cea0387d0500006a473044022001129c0356c442eb20442f2d7dd15033ebe1c3b942556779dfd9159ca6277ff802207daa171475802ac717e102d5705c96d742ead607d2cc9680968458b5fb8ebeac012103318b4b0c5204719c3c971042fcc389d3ea430128d5747caece38726fba05146bffffffff2c1cd1e9ab466848ac80c2026c857df99c23210a7d735b1f0ecc6536b1cea038c20600006a47304402205d4dfe36bf6ecfa915df63460d3b60956a336c06a76cb8056beccbacf10becfb02206000c4bfb1dae878448ee9f298421b6aa66c365eb975afd352b2ace27de8c75d012102817d70e446a06e000c870e72ce7f94312c09469178794a8e3250b0174481d09fffffffff2c1cd1e9ab466848ac80c2026c857df99c23210a7d735b1f0ecc6536b1cea038b70200006a473044022055f42edab544d34a63d79e4843c3c72e6f50cb5142bfea3d1f75531ac42af585022035c002181acb483c3e712835a32d27e3be54b6b2dd180426b7072f84e7b6d0b0012102c228c599d9989d9e172c6959aba9b08db9198957dc83425368c4c114207f4f47ffffffff2c1cd1e9ab466848ac80c2026c857df99c23210a7d735b1f0ecc6536b1cea038a00000006b483045022100c8ea1ee3e3bf39d708027e6d92c225614cd7ebf16dcc79916ac7ebbc92645d8302202bedf1131e3d9ab4293d4901775f29749f80ecb398509ac188d2e060f9984a60012103221fb78999e3d1e977007a692d159306dd65473808728720e62fae5c80d2e659ffffffff2c1cd1e9ab466848ac80c2026c857df99c23210a7d735b1f0ecc6536b1cea038f50000006a47304402200dd79d4fe58924b4db9c8a8f3392dae6acb966580586d57f48b735b273bc18f002206ede3c389953176c952af19168b3c063a4078985f789ac72bc5f7337e68fe4f4012103b86752e4ae9b2e762d1e503ab24ac03e82c11eaa19e1668e33b401ec7de87f11ffffffff2c1cd1e9ab466848ac80c2026c857df99c23210a7d735b1f0ecc6536b1cea0383e0300006b483045022100f294b2402e47af0fe8baf8a4c0b7f008482613a42920330e6cecc912c6e70ea9022027f4e1fee19397d355d9546a1f3c5e8b352513c4595acb1060a7f93c9a82eaca012103f6a8112f97622ca075198e3db3d50c5534409501d1222114ece22ab32f74cc38ffffffff2c1cd1e9ab466848ac80c2026c857df99c23210a7d735b1f0ecc6536b1cea038e30200006b483045022100c2e664bf912974382949eddabfb24bff572deebf40fc6c95187758afedc2d40602200d43f2a2eaf4eba649eae7bed940bbc277082128b555367a48cb80004d943b45012103e0bad489c379ee8fa40002e4ad2a22e5afa2e6a5475f67dd1a4dcdea91fd6325ffffffff2c1cd1e9ab466848ac80c2026c857df99c23210a7d735b1f0ecc6536b1cea038500600006b4830450221009cab6a6aff64ba7ccbb3d9df7cbef70d483a22182c0ab9e46560407c8303cfd502202195a082fc500b8e5e468a0d59950a32e0ef67525e1311a9e342edd220af9fed012103a4e04f63d9d6af59637743d0159ee7727ca1eceb44ed7b371ca3c8cfec6f220fffffffff2c1cd1e9ab466848ac80c2026c857df99c23210a7d735b1f0ecc6536b1cea038d20100006b483045022100b97d4c86bd8250d60b8ffe38c53c24a5b5829d0085f48de36bfd8a9dc7bf87ef02200c0bd298d22d76888139046c123a5f38cb64c705c57294bdf4ad0d5018c046d5012102102a2c8e8bca67f79294e0dbe5b80198e082aa85ff76b4ef1db728c83549e1adffffffff2c1cd1e9ab466848ac80c2026c857df99c23210a7d735b1f0ecc6536b1cea038f40400006b48304502210098efe6dc906c6c1e3bb5de98d1845b2f85014c7989e17b8e8f709146d0917800022016330352a1c5b610400a4cda88ad305344ceb9cc84d0ee0a383d38e24fde6413012103c556a7b1b9f1b91e909d1013a58478a1728ccbbac49bb3b0076d36bae4c3187dffffffff2c1cd1e9ab466848ac80c2026c857df99c23210a7d735b1f0ecc6536b1cea038390100006a47304402200d930448ffc9fa16f2f51f498ea18adaf7a456b22c808e0c6e618157fe32494402205b721c472484672aa9d988d090897489ef7a72bd8afc4894466be5c2400475130121024a0bf688c5f9c2aac9ae2405a84183d25d9548d2d4a560cfbf8ee78baf0ff147ffffffff2c1cd1e9ab466848ac80c2026c857df99c23210a7d735b1f0ecc6536b1cea038930300006b483045022100de895ac28ac522060f5c3d82bdd829b725a28bbb27bd1b29a6b3d629fa73106f02203e90d193573a02bbfb5cfed44166c0d4dcaba2561fccee1fad235a98d8a021bb01210272b3a113d88152d06167ccfe391b03e1c8241010f0d6d7ffc898cdaf70c44d42ffffffff2c1cd1e9ab466848ac80c2026c857df99c23210a7d735b1f0ecc6536b1cea038da0400006b483045022100873c40346a48c671a54ac5453b97fc23f576c8d00ddd5bbeaecca50f340d607b022066dd8f13e778494dd2ef51b77cb2fdf114956abd0f221c8e7c42ca3b50ef546f012102feade705ee4bc7a027529f1043314066298cb1113ebd6096e3dddefc98eb4ca7ffffffff2c1cd1e9ab466848ac80c2026c857df99c23210a7d735b1f0ecc6536b1cea038990600006a4730440220364638759248c14f00f262292f3cdd195466ac8af58468521516eeaaa03f35b70220141002a84dabeaa655345f220eb90115e6325e5c13682b95bea1251800b6d3a6012102736c5c80835d8072e2494b302287c581a221b2ae4c7f883295374661cbf0580cffffffff2c1cd1e9ab466848ac80c2026c857df99c23210a7d735b1f0ecc6536b1cea038180700006a47304402202bad708eae9a5ae30ecfb0fe4145fedba7985ab705cbf84db33c9512285797cf02203b951c02c6cc9939e411e6f92406f561d00e7fabe24ae1ef6c9bb15c0ca98021012103fc6a3045619ee1b98c2456117411f8c8712a1d71986acab19b082ccadb385a30ffffffff2c1cd1e9ab466848ac80c2026c857df99c23210a7d735b1f0ecc6536b1cea038610400006a473044022000c861baf5687a53e3069e2bc04975c34bba078aa6655aa13c79c8dbec599479022001f892ea96bdda2a9a3a866230473097c6e0711ee64e6df110ccec76ece9ce8501210286d81f16d0b49ce01e145174aaf99c7a1bc85fd66894772f64fdb2ba2cac8eb9ffffffff2c1cd1e9ab466848ac80c2026c857df99c23210a7d735b1f0ecc6536b1cea038050700006b483045022100c36b24f58975b3bccf74decd5acc26d02dddac3025454735ba1a4a0b824efa1e0220523fc5252d59250c1f8647e06e51c8a80b70ccc0e096f44086bf492fef198b3d012103d7ae04191472bbbabfc5766fec20bc25098087d78d84bfeca56ce477c5862a97ffffffff2c1cd1e9ab466848ac80c2026c857df99c23210a7d735b1f0ecc6536b1cea038620300006b483045022100cbd0af1d2add776c5f6be27ea0d79c7cea5a633b3db52c5c5ce1f2d46df6a19002202ac787fcdeaf22ac9bed8e2ead9ab0f8a63d3fd45d27b4e2af751fc61f47864b0121032700fbf2377933b3ac3b2e695cce27023be0c88463dba32d824ff99e70243501ffffffff9ea38abfbb4be99942516de02039f560e9577bc617518626c5cd86b08bc519d0010000006b4830450221008b8bf612e7dc67843618fe146ee9526d93c9e4ace67b3ed10f111995bc46f6a602207127ff4aad6167915ff970bb4c7f9fd92208258af4fbf52b25fe0fba43befe6301210328c9ae635abf580c261c44815dc1aac309e16ff26250525b7e99951369d2b8c7ffffffff02bffb4c10000000001976a9149f9cc272fa995fdc1ad5367224fa3dfdc7beaae888ac386a5b43f70000001976a914c6e3836c2f4cd8f9c53e32813ded99ac0ce001f188ac00000000"
    }, 
    {
      "txid": "268f799512787555d59eaa0836854eebdd038dc38c53ebc1c64a82be5aa6b792",
      "hash": "268f799512787555d59eaa0836854eebdd038dc38c53ebc1c64a82be5aa6b792",
      "version": 2,
      "size": 372,
      "vsize": 372,
      "locktime": 1359114,
      "vin": [
        {
          "txid": "288b785d53ea53f23158f6256edd9e11b2dae417c7c2f7676d2a17158bcc762a",
          "vout": 1,
          "scriptSig": {
            "asm": "304402207fa66e9c17397b75d7f22a2b8bbbfe2e43ac34c22925d8bf97d0055bfc7fdae2022001fb0145d71731f6792ec88c886c3a8ad32065ce3537354b6085fd35c45b2fee[ALL] 02ccff8044b7c169a4c0f6744a41f2c10a3d765687dc742f32262dc1c513ff465c",
            "hex": "47304402207fa66e9c17397b75d7f22a2b8bbbfe2e43ac34c22925d8bf97d0055bfc7fdae2022001fb0145d71731f6792ec88c886c3a8ad32065ce3537354b6085fd35c45b2fee012102ccff8044b7c169a4c0f6744a41f2c10a3d765687dc742f32262dc1c513ff465c"
          },
          "sequence": 4294967294
        }, 
        {
          "txid": "1a806ab65b00c948efc40cae38f4a946c11fd6f894a4b4a008761a5fd485ebcc",
          "vout": 1,
          "scriptSig": {
            "asm": "304402203b8a6529d35e6563e6c6ea0c0d773cbc7df536a512791641a57e6569fd50d66602202abe7f38d78f1d80a039274717c00c5f3999ac1f3c4573bd131c430ecc74360a[ALL] 02067f50c4727d324d985d0ad40828ebbad1deac3a565c20e1b40041bafe6ee3a1",
            "hex": "47304402203b8a6529d35e6563e6c6ea0c0d773cbc7df536a512791641a57e6569fd50d66602202abe7f38d78f1d80a039274717c00c5f3999ac1f3c4573bd131c430ecc74360a012102067f50c4727d324d985d0ad40828ebbad1deac3a565c20e1b40041bafe6ee3a1"
          },
          "sequence": 4294967294
        }
      ],
      "vout": [
        {
          "value": 0.00145764,
          "n": 0,
          "scriptPubKey": {
            "asm": "OP_DUP OP_HASH160 67312f78080c29052d7d9f969055c561614ddb2c OP_EQUALVERIFY OP_CHECKSIG",
            "hex": "76a91467312f78080c29052d7d9f969055c561614ddb2c88ac",
            "reqSigs": 1,
            "type": "pubkeyhash",
            "addresses": [
              "LUdanSAwn6sKE2s4zWbuciJ9L6vAMdZH8a"
            ]
          }
        }, 
        {
          "value": 0.01813745,
          "n": 1,
          "scriptPubKey": {
            "asm": "OP_DUP OP_HASH160 0f45ed5f9759becd4a7328b7c711f4ad69c88e97 OP_EQUALVERIFY OP_CHECKSIG",
            "hex": "76a9140f45ed5f9759becd4a7328b7c711f4ad69c88e9788ac",
            "reqSigs": 1,
            "type": "pubkeyhash",
            "addresses": [
              "LLciAijFQ8g7uLSVRCAqVfisjt1TNDArVq"
            ]
          }
        }
      ],
      "hex": "02000000022a76cc8b15172a6d67f7c2c717e4dab2119edd6e25f65831f253ea535d788b28010000006a47304402207fa66e9c17397b75d7f22a2b8bbbfe2e43ac34c22925d8bf97d0055bfc7fdae2022001fb0145d71731f6792ec88c886c3a8ad32065ce3537354b6085fd35c45b2fee012102ccff8044b7c169a4c0f6744a41f2c10a3d765687dc742f32262dc1c513ff465cfeffffffcceb85d45f1a7608a0b4a494f8d61fc146a9f438ae0cc4ef48c9005bb66a801a010000006a47304402203b8a6529d35e6563e6c6ea0c0d773cbc7df536a512791641a57e6569fd50d66602202abe7f38d78f1d80a039274717c00c5f3999ac1f3c4573bd131c430ecc74360a012102067f50c4727d324d985d0ad40828ebbad1deac3a565c20e1b40041bafe6ee3a1feffffff0264390200000000001976a91467312f78080c29052d7d9f969055c561614ddb2c88acf1ac1b00000000001976a9140f45ed5f9759becd4a7328b7c711f4ad69c88e9788ac0abd1400"
    }, 
    {
      "txid": "5a4e5da626f43bba3a75a72bc310726e5ebeec96f256ff65eed94216a951a855",
      "hash": "5a4e5da626f43bba3a75a72bc310726e5ebeec96f256ff65eed94216a951a855",
      "version": 2,
      "size": 225,
      "vsize": 225,
      "locktime": 1359114,
      "vin": [
        {
          "txid": "3d7fc85160fd320d5973c7125ef829a8243864a9f0ab962af7e6336ea95d2380",
          "vout": 1,
          "scriptSig": {
            "asm": "304402205f88e824ce86ad85d55578115b7e63a71d626afb8400d90dfdaa102c9a492be302203c595edea5b3d5918ddabf0caa1d5a9ccb593bcc9bf224b03c359ec744411734[ALL] 0302d049efeb6b9bbc9e6afae46fdd47348ce5041c09860bdc101868ce5baf56f2",
            "hex": "47304402205f88e824ce86ad85d55578115b7e63a71d626afb8400d90dfdaa102c9a492be302203c595edea5b3d5918ddabf0caa1d5a9ccb593bcc9bf224b03c359ec74441173401210302d049efeb6b9bbc9e6afae46fdd47348ce5041c09860bdc101868ce5baf56f2"
          },
          "sequence": 4294967294
        }
      ],
      "vout": [
        {
          "value": 0.02803162,
          "n": 0,
          "scriptPubKey": {
            "asm": "OP_DUP OP_HASH160 8cd0dcd9c471982d14d1b3f98a786141c1656b25 OP_EQUALVERIFY OP_CHECKSIG",
            "hex": "76a9148cd0dcd9c471982d14d1b3f98a786141c1656b2588ac",
            "reqSigs": 1,
            "type": "pubkeyhash",
            "addresses": [
              "LY4X56ytBB1WjdrSUPXK6z5CUZ3qwQ8MTr"
            ]
          }
        }, 
        {
          "value": 0.38546238,
          "n": 1,
          "scriptPubKey": {
            "asm": "OP_DUP OP_HASH160 f60c2b8a174c273afe2dab0f1befd13302928e1c OP_EQUALVERIFY OP_CHECKSIG",
            "hex": "76a914f60c2b8a174c273afe2dab0f1befd13302928e1c88ac",
            "reqSigs": 1,
            "type": "pubkeyhash",
            "addresses": [
              "Lhew4zfQJBp1cKNsm1hGB76fbhKXEfwhHt"
            ]
          }
        }
      ],
      "hex": "020000000180235da96e33e6f72a96abf0a9643824a829f85e12c773590d32fd6051c87f3d010000006a47304402205f88e824ce86ad85d55578115b7e63a71d626afb8400d90dfdaa102c9a492be302203c595edea5b3d5918ddabf0caa1d5a9ccb593bcc9bf224b03c359ec74441173401210302d049efeb6b9bbc9e6afae46fdd47348ce5041c09860bdc101868ce5baf56f2feffffff02dac52a00000000001976a9148cd0dcd9c471982d14d1b3f98a786141c1656b2588ac3e2b4c02000000001976a914f60c2b8a174c273afe2dab0f1befd13302928e1c88ac0abd1400"
    }, 
    {
      "txid": "ffd1a7fdf653dc0aa224be2804b2f5604505099d28de90bc6ed41cf4ed9adeb1",
      "hash": "ffd1a7fdf653dc0aa224be2804b2f5604505099d28de90bc6ed41cf4ed9adeb1",
      "version": 1,
      "size": 225,
      "vsize": 225,
      "locktime": 0,
      "vin": [
        {
          "txid": "b7e8521fe3d0f6d3c221984e1b3f4483bbccc8eea3a383703e2dafd04ff4b5c7",
          "vout": 0,
          "scriptSig": {
            "asm": "304402206bfee77f17dd737cacaa637efcc05ae02f3e1062aff06a2aa43c4332db9147660220361eaf2b35ded1026ecdc188abbdf64ebb713f6e343cba1cf72c0ac1dcb7455c[ALL] 02f5dd0f135ee9714e6275f7286ce1dc8aa9aba4e034d01083aa537d67d69d7c16",
            "hex": "47304402206bfee77f17dd737cacaa637efcc05ae02f3e1062aff06a2aa43c4332db9147660220361eaf2b35ded1026ecdc188abbdf64ebb713f6e343cba1cf72c0ac1dcb7455c012102f5dd0f135ee9714e6275f7286ce1dc8aa9aba4e034d01083aa537d67d69d7c16"
          },
          "sequence": 4294967295
        }
      ],
      "vout": [
        {
          "value": 6.00000000,
          "n": 0,
          "scriptPubKey": {
            "asm": "OP_DUP OP_HASH160 31d4f4cb7ad301f1d0b9b51cd8f3556a05bcbe03 OP_EQUALVERIFY OP_CHECKSIG",
            "hex": "76a91431d4f4cb7ad301f1d0b9b51cd8f3556a05bcbe0388ac",
            "reqSigs": 1,
            "type": "pubkeyhash",
            "addresses": [
              "LPmSV54wWrEpvUud8tVWRy1dsARM3Bg7tN"
            ]
          }
        }, 
        {
          "value": 64.99360070,
          "n": 1,
          "scriptPubKey": {
            "asm": "OP_DUP OP_HASH160 021c6502cfe5f357d4baca82059f8d3fb27d9d74 OP_EQUALVERIFY OP_CHECKSIG",
            "hex": "76a914021c6502cfe5f357d4baca82059f8d3fb27d9d7488ac",
            "reqSigs": 1,
            "type": "pubkeyhash",
            "addresses": [
              "LKR7dVA5V4UohR5Hv6A3NwhnS61QEaiUtP"
            ]
          }
        }
      ],
      "hex": "0100000001c7b5f44fd0af2d3e7083a3a3eec8ccbb83443f1b4e9821c2d3f6d0e31f52e8b7000000006a47304402206bfee77f17dd737cacaa637efcc05ae02f3e1062aff06a2aa43c4332db9147660220361eaf2b35ded1026ecdc188abbdf64ebb713f6e343cba1cf72c0ac1dcb7455c012102f5dd0f135ee9714e6275f7286ce1dc8aa9aba4e034d01083aa537d67d69d7c16ffffffff020046c323000000001976a91431d4f4cb7ad301f1d0b9b51cd8f3556a05bcbe0388ac465d6483010000001976a914021c6502cfe5f357d4baca82059f8d3fb27d9d7488ac00000000"
    }
  ],
  "time": 1517238542,
  "mediantime": 1517238077,
  "nonce": 3817261313,
  "bits": "1a042eae",
  "difficulty": 4011378.762614286,
  "chainwork": "000000000000000000000000000000000000000000000033b444c29519de229a",
  "previousblockhash": "7fb1df4b00de1d679415ff199ec6dc410eb5429a9c5a449b3ce7e0baa3584885",
  "nextblockhash": "1fba39eabea14af6b2ed57f0f81b976553a1f6024ee87fa8e347821b5ea56870"
}
