{
  "hash": "924c8d0ec9f295a968872cebede596fe93f397e8174d872babfe7c9f4efebfad",
  "confirmations": 1542,
  "strippedsize": 736,
  "size": 772,
  "weight": 2980,
  "height": 1359452,
  "version": 536870912,
  "versionHex": "20000000",
  "merkleroot": "332d5932b66e5328f733c8e323b167a6f897abc139e9f405090a20c4f94d876c",
  "tx": [
    {
      "txid": "a9a078b09731519ade5982441d626dd5ff6e23e531d17bef0a50916e8991d9e4",
      "hash": "12b075f9c15ac8f91dc92edb0d4e4c8fe3eb16bed840c8a5d2829f9d93c2b4d9",
      "version": 1,
      "size": 240,
      "vsize": 213,
      "locktime": 0,
      "vin": [
        {
          "coinbase": "035cbe14049aee6f5a0800d7a8b110000000fabe6d6d37346d11f43c6c53797f176058beab3158f00bc79e9477f3024db774cadef85d4000000000000000092f4c54432e544f502f",
          "sequence": 0
        }
      ],
      "vout": [
        {
          "value": 25.00045200,
          "n": 0,
          "scriptPubKey": {
            "asm": "OP_DUP OP_HASH160 0c617fdb2ea42aed30a509595ee21ba3f6688db0 OP_EQUALVERIFY OP_CHECKSIG",
            "hex": "76a9140c617fdb2ea42aed30a509595ee21ba3f6688db088ac",
            "reqSigs": 1,
            "type": "pubkeyhash",
            "addresses": [
              "LLMRAtr3qBje2ySEa3CnZ55LA4TQMWnRY3"
            ]
          }
        }, 
        {
          "value": 0.00000000,
          "n": 1,
          "scriptPubKey": {
            "asm": "OP_RETURN aa21a9ed44bbcdbda8ea1f8cc9fa32d63959935e8239642d5cb51d42b5784586b448c3c4",
            "hex": "6a24aa21a9ed44bbcdbda8ea1f8cc9fa32d63959935e8239642d5cb51d42b5784586b448c3c4",
            "type": "nulldata"
          }
        }
      ],
      "hex": "010000000001010000000000000000000000000000000000000000000000000000000000000000ffffffff48035cbe14049aee6f5a0800d7a8b110000000fabe6d6d37346d11f43c6c53797f176058beab3158f00bc79e9477f3024db774cadef85d4000000000000000092f4c54432e544f502f000000000290a90395000000001976a9140c617fdb2ea42aed30a509595ee21ba3f6688db088ac0000000000000000266a24aa21a9ed44bbcdbda8ea1f8cc9fa32d63959935e8239642d5cb51d42b5784586b448c3c40120000000000000000000000000000000000000000000000000000000000000000000000000"
    }, 
    {
      "txid": "dd211d2dadc83f5f751e30b3056c2fb423c6ab0e29d28e98f66dc5576bb6cc83",
      "hash": "dd211d2dadc83f5f751e30b3056c2fb423c6ab0e29d28e98f66dc5576bb6cc83",
      "version": 1,
      "size": 225,
      "vsize": 225,
      "locktime": 0,
      "vin": [
        {
          "txid": "efdace72af2a97145def67cf72c8712faec9befe94030262f63ad882fb67bb28",
          "vout": 4,
          "scriptSig": {
            "asm": "3044022027732b6693c9690f95954be68c66bb1e5d57734908aee26741eeb015383dc16d02201ef3f203094b9d2e053a3392bdb1d7e99eda0171e3f610d74be233e9726d1a68[ALL] 0320082099ab09ce0e724dcd160a085e555785f95acfb6787f508885fb22172dd8",
            "hex": "473044022027732b6693c9690f95954be68c66bb1e5d57734908aee26741eeb015383dc16d02201ef3f203094b9d2e053a3392bdb1d7e99eda0171e3f610d74be233e9726d1a6801210320082099ab09ce0e724dcd160a085e555785f95acfb6787f508885fb22172dd8"
          },
          "sequence": 4294967295
        }
      ],
      "vout": [
        {
          "value": 0.00942858,
          "n": 0,
          "scriptPubKey": {
            "asm": "OP_DUP OP_HASH160 81e91ee27c06a307687a786ed490b33ff76d4ee4 OP_EQUALVERIFY OP_CHECKSIG",
            "hex": "76a91481e91ee27c06a307687a786ed490b33ff76d4ee488ac",
            "reqSigs": 1,
            "type": "pubkeyhash",
            "addresses": [
              "LX4rhTwruHWeFFLUM9AdTF2o9craLWzs4t"
            ]
          }
        }, 
        {
          "value": 1.18000000,
          "n": 1,
          "scriptPubKey": {
            "asm": "OP_DUP OP_HASH160 bc449d0f39faf8e745aa858d7a4efb2f2a0d6fd5 OP_EQUALVERIFY OP_CHECKSIG",
            "hex": "76a914bc449d0f39faf8e745aa858d7a4efb2f2a0d6fd588ac",
            "reqSigs": 1,
            "type": "pubkeyhash",
            "addresses": [
              "LcPRVdMcTuAz22fLqo56eKbhmiDc6jJVdr"
            ]
          }
        }
      ],
      "hex": "010000000128bb67fb82d83af662020394febec9ae2f71c872cf67ef5d14972aaf72cedaef040000006a473044022027732b6693c9690f95954be68c66bb1e5d57734908aee26741eeb015383dc16d02201ef3f203094b9d2e053a3392bdb1d7e99eda0171e3f610d74be233e9726d1a6801210320082099ab09ce0e724dcd160a085e555785f95acfb6787f508885fb22172dd8ffffffff020a630e00000000001976a91481e91ee27c06a307687a786ed490b33ff76d4ee488ac80890807000000001976a914bc449d0f39faf8e745aa858d7a4efb2f2a0d6fd588ac00000000"
    }, 
    {
      "txid": "164e588bc19f72ab15c700846dbc9cdcce17630ab79964cb975b4804be7d5140",
      "hash": "164e588bc19f72ab15c700846dbc9cdcce17630ab79964cb975b4804be7d5140",
      "version": 1,
      "size": 226,
      "vsize": 226,
      "locktime": 0,
      "vin": [
        {
          "txid": "1760d36d8dfca08896c73c9478f7c3606d0c96b55d15df160247990d776c1c39",
          "vout": 1,
          "scriptSig": {
            "asm": "3045022100d6dbdc81ecfeeddb8402a2489946f5fd89c99b257c40d2b943ecc7f20af91d09022027c08dc6b741c76569ea4981f697a06b83ebae7a502248b239ce046bb5d3610d[ALL] 0301e739119d77dd294c1b9a57f25bab5cade1d4da818e69f39cfa4e9a83f14d82",
            "hex": "483045022100d6dbdc81ecfeeddb8402a2489946f5fd89c99b257c40d2b943ecc7f20af91d09022027c08dc6b741c76569ea4981f697a06b83ebae7a502248b239ce046bb5d3610d01210301e739119d77dd294c1b9a57f25bab5cade1d4da818e69f39cfa4e9a83f14d82"
          },
          "sequence": 4294967295
        }
      ],
      "vout": [
        {
          "value": 0.58137884,
          "n": 0,
          "scriptPubKey": {
            "asm": "OP_DUP OP_HASH160 fd1ec89bf5bd00abb3fa48135ae4c70432b029c3 OP_EQUALVERIFY OP_CHECKSIG",
            "hex": "76a914fd1ec89bf5bd00abb3fa48135ae4c70432b029c388ac",
            "reqSigs": 1,
            "type": "pubkeyhash",
            "addresses": [
              "LiJL6dWFfSL8ruTvM6kaqq6ymz1u9h7Gsd"
            ]
          }
        }, 
        {
          "value": 11.29943000,
          "n": 1,
          "scriptPubKey": {
            "asm": "OP_DUP OP_HASH160 bc4198116e2a67f8a3fb496d0d0ca0589874da5c OP_EQUALVERIFY OP_CHECKSIG",
            "hex": "76a914bc4198116e2a67f8a3fb496d0d0ca0589874da5c88ac",
            "reqSigs": 1,
            "type": "pubkeyhash",
            "addresses": [
              "LcPMsq3tMUZhzf6frz2DHVNPTdy1Yr5c6z"
            ]
          }
        }
      ],
      "hex": "0100000001391c6c770d99470216df155db5960c6d60c3f778943cc79688a0fc8d6dd36017010000006b483045022100d6dbdc81ecfeeddb8402a2489946f5fd89c99b257c40d2b943ecc7f20af91d09022027c08dc6b741c76569ea4981f697a06b83ebae7a502248b239ce046bb5d3610d01210301e739119d77dd294c1b9a57f25bab5cade1d4da818e69f39cfa4e9a83f14d82ffffffff021c1d7703000000001976a914fd1ec89bf5bd00abb3fa48135ae4c70432b029c388acd88f5943000000001976a914bc4198116e2a67f8a3fb496d0d0ca0589874da5c88ac00000000"
    }
  ],
  "time": 1517284675,
  "mediantime": 1517283519,
  "nonce": 3310040704,
  "bits": "1a042eae",
  "difficulty": 4011378.762614286,
  "chainwork": "000000000000000000000000000000000000000000000034049b398bcddc9d3a",
  "previousblockhash": "b4166c61afa3f1499a86a28e18f608a86012652b02ee2b8e50def7527e61a2e7",
  "nextblockhash": "2934759bde9cb17a60465446b135db272b7952e1a191da0bab2b010b063fb7d0"
}
