{
  "hash": "92904ed1b38bc2605c6ee4db10ec40d340e7f7ab942b7f48a8616216529043a1",
  "confirmations": 1702,
  "strippedsize": 256,
  "size": 256,
  "weight": 1024,
  "height": 1359292,
  "version": 536870912,
  "versionHex": "20000000",
  "merkleroot": "835c0d9052df972a88cb6dbdb41c45f2bc74c7e9b5aff24119ff130d8d745f61",
  "tx": [
    {
      "txid": "835c0d9052df972a88cb6dbdb41c45f2bc74c7e9b5aff24119ff130d8d745f61",
      "hash": "835c0d9052df972a88cb6dbdb41c45f2bc74c7e9b5aff24119ff130d8d745f61",
      "version": 1,
      "size": 175,
      "vsize": 175,
      "locktime": 0,
      "vin": [
        {
          "coinbase": "03bcbd141d4d696e656420627920416e74506f6f6c20626a312045205a6f998d0897fabe6d6ddedc3a8eb555e2c991284d1ee2de8ab8127c4fd12c3e541c8503228bd9c96964040000000000000081040000000000001e000000",
          "sequence": 4294967295
        }
      ],
      "vout": [
        {
          "value": 25.00000000,
          "n": 0,
          "scriptPubKey": {
            "asm": "OP_DUP OP_HASH160 0ff3ccc5e8be88afe24b5d634e5852d474dbdff1 OP_EQUALVERIFY OP_CHECKSIG",
            "hex": "76a9140ff3ccc5e8be88afe24b5d634e5852d474dbdff188ac",
            "reqSigs": 1,
            "type": "pubkeyhash",
            "addresses": [
              "LLgJTbzZMsRTCUF1NtvvL9SR1a4pVieW89"
            ]
          }
        }
      ],
      "hex": "01000000010000000000000000000000000000000000000000000000000000000000000000ffffffff5a03bcbd141d4d696e656420627920416e74506f6f6c20626a312045205a6f998d0897fabe6d6ddedc3a8eb555e2c991284d1ee2de8ab8127c4fd12c3e541c8503228bd9c96964040000000000000081040000000000001e000000ffffffff0100f90295000000001976a9140ff3ccc5e8be88afe24b5d634e5852d474dbdff188ac00000000"
    }
  ],
  "time": 1517263245,
  "mediantime": 1517262744,
  "nonce": 2568726214,
  "bits": "1a042eae",
  "difficulty": 4011378.762614286,
  "chainwork": "000000000000000000000000000000000000000000000033de59ab903b32abfa",
  "previousblockhash": "6a6db8c035d1c9168bc32c2bcab329a6680a66117ca67587c95b364034a744bd",
  "nextblockhash": "bb13ebf0953b5b691f5c01b3b6f9e7464b2611a3965bc55dedf9f5f295bce019"
}
