{
  "hash": "9317208b0ae794f7b504c23738bff889df085b1c752cc86d1a998c56da214270",
  "confirmations": 3415,
  "strippedsize": 253,
  "size": 253,
  "weight": 1012,
  "height": 1357580,
  "version": 536870912,
  "versionHex": "20000000",
  "merkleroot": "197c1d14936f594a4e54b7965e21d51d8f73deb9f6141b5fa4e7f88999c53e44",
  "tx": [
    {
      "txid": "197c1d14936f594a4e54b7965e21d51d8f73deb9f6141b5fa4e7f88999c53e44",
      "hash": "197c1d14936f594a4e54b7965e21d51d8f73deb9f6141b5fa4e7f88999c53e44",
      "version": 1,
      "size": 172,
      "vsize": 172,
      "locktime": 0,
      "vin": [
        {
          "coinbase": "030cb7141a4d696e656420627920416e74506f6f6c20626a331f205a6be532fabe6d6d1a7841e184611d6bcab47505ae9d7a46d9b211a83a11cee5f31b9460f5308d020400000000000000572100000000000012000000",
          "sequence": 4294967295
        }
      ],
      "vout": [
        {
          "value": 25.00000000,
          "n": 0,
          "scriptPubKey": {
            "asm": "OP_DUP OP_HASH160 0ff3ccc5e8be88afe24b5d634e5852d474dbdff1 OP_EQUALVERIFY OP_CHECKSIG",
            "hex": "76a9140ff3ccc5e8be88afe24b5d634e5852d474dbdff188ac",
            "reqSigs": 1,
            "type": "pubkeyhash",
            "addresses": [
              "LLgJTbzZMsRTCUF1NtvvL9SR1a4pVieW89"
            ]
          }
        }
      ],
      "hex": "01000000010000000000000000000000000000000000000000000000000000000000000000ffffffff57030cb7141a4d696e656420627920416e74506f6f6c20626a331f205a6be532fabe6d6d1a7841e184611d6bcab47505ae9d7a46d9b211a83a11cee5f31b9460f5308d020400000000000000572100000000000012000000ffffffff0100f90295000000001976a9140ff3ccc5e8be88afe24b5d634e5852d474dbdff188ac00000000"
    }
  ],
  "time": 1517020466,
  "mediantime": 1517020123,
  "nonce": 764270804,
  "bits": "1a047f14",
  "difficulty": 3731199.183374282,
  "chainwork": "0000000000000000000000000000000000000000000000325919c7f89280b652",
  "previousblockhash": "0507135a543ae90f7560e1b9997b403ee17c0d2d3768e6a8bc7a1ae5cfc25983",
  "nextblockhash": "6747d491cacad025d9910f211b71a037cae03a30c0b85b72caad3d6cda0570ef"
}
