{
  "hash": "93a4c699c5737846de1aba0aaecbd9984e00c0abe6d98af599d1d962ebec504c",
  "confirmations": 1140,
  "strippedsize": 253,
  "size": 253,
  "weight": 1012,
  "height": 1359854,
  "version": 536870912,
  "versionHex": "20000000",
  "merkleroot": "280d317c49f1fecc795ab19e8b3b11064d4a59c521ef440794ce7b39bfa86e68",
  "tx": [
    {
      "txid": "280d317c49f1fecc795ab19e8b3b11064d4a59c521ef440794ce7b39bfa86e68",
      "hash": "280d317c49f1fecc795ab19e8b3b11064d4a59c521ef440794ce7b39bfa86e68",
      "version": 1,
      "size": 172,
      "vsize": 172,
      "locktime": 0,
      "vin": [
        {
          "coinbase": "03eebf141a4d696e656420627920416e74506f6f6c20626a3532205a70c7effabe6d6d023f5c2e94d954655d5f9961ecba87a14c9cf543f2c91a540a8a262d9d8007f804000000000000002c140000000000000f000000",
          "sequence": 4294967295
        }
      ],
      "vout": [
        {
          "value": 25.00000000,
          "n": 0,
          "scriptPubKey": {
            "asm": "OP_DUP OP_HASH160 0ff3ccc5e8be88afe24b5d634e5852d474dbdff1 OP_EQUALVERIFY OP_CHECKSIG",
            "hex": "76a9140ff3ccc5e8be88afe24b5d634e5852d474dbdff188ac",
            "reqSigs": 1,
            "type": "pubkeyhash",
            "addresses": [
              "LLgJTbzZMsRTCUF1NtvvL9SR1a4pVieW89"
            ]
          }
        }
      ],
      "hex": "01000000010000000000000000000000000000000000000000000000000000000000000000ffffffff5703eebf141a4d696e656420627920416e74506f6f6c20626a3532205a70c7effabe6d6d023f5c2e94d954655d5f9961ecba87a14c9cf543f2c91a540a8a262d9d8007f804000000000000002c140000000000000f000000ffffffff0100f90295000000001976a9140ff3ccc5e8be88afe24b5d634e5852d474dbdff188ac00000000"
    }
  ],
  "time": 1517340655,
  "mediantime": 1517339759,
  "nonce": 178373383,
  "bits": "1a042eae",
  "difficulty": 4011378.762614286,
  "chainwork": "00000000000000000000000000000000000000000000003464b987e0ae5acb5e",
  "previousblockhash": "f2dc68390145efdff98ea003bc81e41d270065166fe81a18ddce7ea93b8b1eb9",
  "nextblockhash": "8da35cce85daae6fdbf0b53d03e9b98bf08a69564440608ecc3e586e59bd9dfb"
}
