{
  "hash": "93ecce192a55def088db5c3afdd04da8dcf0fbafaeff08d1bb5d1c44ea8bfb44",
  "confirmations": 3465,
  "strippedsize": 253,
  "size": 253,
  "weight": 1012,
  "height": 1357530,
  "version": 536870912,
  "versionHex": "20000000",
  "merkleroot": "368dfa1cfb664320d0a141487f39c69944ddbc2626d46cb0b469016f10978805",
  "tx": [
    {
      "txid": "368dfa1cfb664320d0a141487f39c69944ddbc2626d46cb0b469016f10978805",
      "hash": "368dfa1cfb664320d0a141487f39c69944ddbc2626d46cb0b469016f10978805",
      "version": 1,
      "size": 172,
      "vsize": 172,
      "locktime": 0,
      "vin": [
        {
          "coinbase": "03dab6141a4d696e656420627920416e74506f6f6c20626a331f205a6bcf66fabe6d6da04b029cc60c9d07c5acbd7807d549bcec6f04bc0ceebcc0f9906ef3eec130550400000000000000bc180000000000001f000000",
          "sequence": 4294967295
        }
      ],
      "vout": [
        {
          "value": 25.00000000,
          "n": 0,
          "scriptPubKey": {
            "asm": "OP_DUP OP_HASH160 0ff3ccc5e8be88afe24b5d634e5852d474dbdff1 OP_EQUALVERIFY OP_CHECKSIG",
            "hex": "76a9140ff3ccc5e8be88afe24b5d634e5852d474dbdff188ac",
            "reqSigs": 1,
            "type": "pubkeyhash",
            "addresses": [
              "LLgJTbzZMsRTCUF1NtvvL9SR1a4pVieW89"
            ]
          }
        }
      ],
      "hex": "01000000010000000000000000000000000000000000000000000000000000000000000000ffffffff5703dab6141a4d696e656420627920416e74506f6f6c20626a331f205a6bcf66fabe6d6da04b029cc60c9d07c5acbd7807d549bcec6f04bc0ceebcc0f9906ef3eec130550400000000000000bc180000000000001f000000ffffffff0100f90295000000001976a9140ff3ccc5e8be88afe24b5d634e5852d474dbdff188ac00000000"
    }
  ],
  "time": 1517014886,
  "mediantime": 1517013745,
  "nonce": 346389541,
  "bits": "1a047f14",
  "difficulty": 3731199.183374282,
  "chainwork": "0000000000000000000000000000000000000000000000324dfb0f02ae59f93e",
  "previousblockhash": "210b94ee49c81daaf355fbe154a02424022c8ddf74eb0c6f724789c0b0e801ad",
  "nextblockhash": "648b30053b29bb6d7330e9ff85c2c61adcbfa8b1255e255a9d7eba943c921640"
}
