{
  "hash": "94641faa419de5a227a594ac0da6c2221e665516558b6cb9f37b0c364715a3cb",
  "confirmations": 59,
  "strippedsize": 4274,
  "size": 4420,
  "weight": 17242,
  "height": 1360935,
  "version": 536870912,
  "versionHex": "20000000",
  "merkleroot": "bfcce050d34a5225123c72b3f6d636b010a5d61d26de0764318cec1c02f7d82f",
  "tx": [
    {
      "txid": "d797926a20a61d547f43d20b32ccbd57122c516d070c74698d5f004c96bb10e0",
      "hash": "db8b2e0fdea66c90a4a2d9b04f10614cc227443e5aa0e4e8267e1ede0d708d65",
      "version": 1,
      "size": 236,
      "vsize": 209,
      "locktime": 0,
      "vin": [
        {
          "coinbase": "0327c414045a733b3d2cfabe6d6dab4218f17082dbac2fd09f6673ec1d4822357d8869e469cee94e58780c1f09604000000000000000042f4c502f0822003ea20c000000",
          "sequence": 4294967295
        }
      ],
      "vout": [
        {
          "value": 25.03696392,
          "n": 0,
          "scriptPubKey": {
            "asm": "OP_DUP OP_HASH160 57757ed2ecf2052ff3126c397aca7defb9ca2cec OP_EQUALVERIFY OP_CHECKSIG",
            "hex": "76a91457757ed2ecf2052ff3126c397aca7defb9ca2cec88ac",
            "reqSigs": 1,
            "type": "pubkeyhash",
            "addresses": [
              "LTCPodGk5FwcJaRzH9yKnwicxzFUbxp6tN"
            ]
          }
        }, 
        {
          "value": 0.00000000,
          "n": 1,
          "scriptPubKey": {
            "asm": "OP_RETURN aa21a9edb7c86e18af10c2061e537d80c11cd485729943cfa4105388e13f7714426fe698",
            "hex": "6a24aa21a9edb7c86e18af10c2061e537d80c11cd485729943cfa4105388e13f7714426fe698",
            "type": "nulldata"
          }
        }
      ],
      "hex": "010000000001010000000000000000000000000000000000000000000000000000000000000000ffffffff440327c414045a733b3d2cfabe6d6dab4218f17082dbac2fd09f6673ec1d4822357d8869e469cee94e58780c1f09604000000000000000042f4c502f0822003ea20c000000ffffffff0208603b95000000001976a91457757ed2ecf2052ff3126c397aca7defb9ca2cec88ac0000000000000000266a24aa21a9edb7c86e18af10c2061e537d80c11cd485729943cfa4105388e13f7714426fe6980120000000000000000000000000000000000000000000000000000000000000000000000000"
    }, 
    {
      "txid": "94d44ccb390caa928b893628a78df76b1dae2d94410072dd1edda27c8ec3db88",
      "hash": "94d44ccb390caa928b893628a78df76b1dae2d94410072dd1edda27c8ec3db88",
      "version": 1,
      "size": 520,
      "vsize": 520,
      "locktime": 0,
      "vin": [
        {
          "txid": "c6323dfa19bdd503e1199473aa56b60d0cbccbf31f5d786f052a8d605a6dbc69",
          "vout": 1,
          "scriptSig": {
            "asm": "3045022100cca10fee767292a8c3ea07933e081fb9fcc83409f3fc3de522bf35f9f8f5a9a3022031e0e67626c9aa9bf44c5eca6c75c805b8860bc76a45d72b20241fca32ae90ee[ALL] 02fadf144366d231139a4563b57e7300e827109c8d296809580f3ec8a617036e8e",
            "hex": "483045022100cca10fee767292a8c3ea07933e081fb9fcc83409f3fc3de522bf35f9f8f5a9a3022031e0e67626c9aa9bf44c5eca6c75c805b8860bc76a45d72b20241fca32ae90ee012102fadf144366d231139a4563b57e7300e827109c8d296809580f3ec8a617036e8e"
          },
          "sequence": 4294967295
        }, 
        {
          "txid": "f244a61e00afdafce428826bbfce746bae76a74597c387d9d5396b004fffdd02",
          "vout": 0,
          "scriptSig": {
            "asm": "304402205468784f6fa221de5b4f0a0429b81ba81929a6ab259bc6ab2129ddcd541378e60220352fdec4f388948a8b112b54348e67bf825a81b484956e7ab95963639d658087[ALL] 032d9597e49cf9cc8cf5652df03b87e924786906aff12f236acc9b3bb10e7008de",
            "hex": "47304402205468784f6fa221de5b4f0a0429b81ba81929a6ab259bc6ab2129ddcd541378e60220352fdec4f388948a8b112b54348e67bf825a81b484956e7ab95963639d6580870121032d9597e49cf9cc8cf5652df03b87e924786906aff12f236acc9b3bb10e7008de"
          },
          "sequence": 4294967295
        }, 
        {
          "txid": "6c6f39d1c37699723bf6b32b0dd498ef7a15f3f6b67ab396153449d17e346682",
          "vout": 1,
          "scriptSig": {
            "asm": "304402206901e78e5467200101ce9ce5827bf7ad541a8a42aa2ad76b18630087e4448e14022000c74c2a60d738af604b6e396e6f3b8f526be3ab57bcb470cc4e43a3ccdc8349[ALL] 02b0188bf5936c515a658374d07233acfa497eb0df92d5479df7e12f1e122bf6be",
            "hex": "47304402206901e78e5467200101ce9ce5827bf7ad541a8a42aa2ad76b18630087e4448e14022000c74c2a60d738af604b6e396e6f3b8f526be3ab57bcb470cc4e43a3ccdc8349012102b0188bf5936c515a658374d07233acfa497eb0df92d5479df7e12f1e122bf6be"
          },
          "sequence": 4294967295
        }
      ],
      "vout": [
        {
          "value": 0.02192378,
          "n": 0,
          "scriptPubKey": {
            "asm": "OP_DUP OP_HASH160 d99ea147498baf963ec13d426d4f1343a993ddac OP_EQUALVERIFY OP_CHECKSIG",
            "hex": "76a914d99ea147498baf963ec13d426d4f1343a993ddac88ac",
            "reqSigs": 1,
            "type": "pubkeyhash",
            "addresses": [
              "Lf4cvePTT1skw5SL17eb7w928HjGzBAe2g"
            ]
          }
        }, 
        {
          "value": 1.00055572,
          "n": 1,
          "scriptPubKey": {
            "asm": "OP_DUP OP_HASH160 bde535b77ca81ccc245f2cdd7f28964e412e960a OP_EQUALVERIFY OP_CHECKSIG",
            "hex": "76a914bde535b77ca81ccc245f2cdd7f28964e412e960a88ac",
            "reqSigs": 1,
            "type": "pubkeyhash",
            "addresses": [
              "LcY2ZFHuNsAPnyeFCLGnHew72Qb4ucWv6D"
            ]
          }
        }
      ],
      "hex": "010000000369bc6d5a608d2a056f785d1ff3cbbc0c0db656aa739419e103d5bd19fa3d32c6010000006b483045022100cca10fee767292a8c3ea07933e081fb9fcc83409f3fc3de522bf35f9f8f5a9a3022031e0e67626c9aa9bf44c5eca6c75c805b8860bc76a45d72b20241fca32ae90ee012102fadf144366d231139a4563b57e7300e827109c8d296809580f3ec8a617036e8effffffff02ddff4f006b39d5d987c39745a776ae6b74cebf6b8228e4fcdaaf001ea644f2000000006a47304402205468784f6fa221de5b4f0a0429b81ba81929a6ab259bc6ab2129ddcd541378e60220352fdec4f388948a8b112b54348e67bf825a81b484956e7ab95963639d6580870121032d9597e49cf9cc8cf5652df03b87e924786906aff12f236acc9b3bb10e7008deffffffff8266347ed149341596b37ab6f6f3157aef98d40d2bb3f63b729976c3d1396f6c010000006a47304402206901e78e5467200101ce9ce5827bf7ad541a8a42aa2ad76b18630087e4448e14022000c74c2a60d738af604b6e396e6f3b8f526be3ab57bcb470cc4e43a3ccdc8349012102b0188bf5936c515a658374d07233acfa497eb0df92d5479df7e12f1e122bf6beffffffff02fa732100000000001976a914d99ea147498baf963ec13d426d4f1343a993ddac88ac14baf605000000001976a914bde535b77ca81ccc245f2cdd7f28964e412e960a88ac00000000"
    }, 
    {
      "txid": "0b201855ea07c2a0a0ce1c529fa7e29947d4905f803c74e7bdee6a56cb582e7b",
      "hash": "0b201855ea07c2a0a0ce1c529fa7e29947d4905f803c74e7bdee6a56cb582e7b",
      "version": 1,
      "size": 225,
      "vsize": 225,
      "locktime": 0,
      "vin": [
        {
          "txid": "38e506b9ec9289c4537900e33697b1ad4a095c7cbabf3868b14a92383fc02625",
          "vout": 0,
          "scriptSig": {
            "asm": "304402202a004121e5cf1aa2853400240ab32d269660189e9d4a1210d0b82f10f5ef315802200ebacdef270adb3786d568d29c7e85c5c13a219e0cd081a1bffc44b9eb884ff5[ALL] 034b5740580438694318c885adc132c9d12d4da2af5cb5886996534da3c0289ada",
            "hex": "47304402202a004121e5cf1aa2853400240ab32d269660189e9d4a1210d0b82f10f5ef315802200ebacdef270adb3786d568d29c7e85c5c13a219e0cd081a1bffc44b9eb884ff50121034b5740580438694318c885adc132c9d12d4da2af5cb5886996534da3c0289ada"
          },
          "sequence": 4294967294
        }
      ],
      "vout": [
        {
          "value": 9.98051499,
          "n": 0,
          "scriptPubKey": {
            "asm": "OP_DUP OP_HASH160 188a250e837fab9b1cefa3fe7e4bbb86344816ce OP_EQUALVERIFY OP_CHECKSIG",
            "hex": "76a914188a250e837fab9b1cefa3fe7e4bbb86344816ce88ac",
            "reqSigs": 1,
            "type": "pubkeyhash",
            "addresses": [
              "LMThyHM2wayv7rLSUJ8a7J8v8GgpqmZPup"
            ]
          }
        }, 
        {
          "value": 100.01300000,
          "n": 1,
          "scriptPubKey": {
            "asm": "OP_DUP OP_HASH160 f844f220ac47a12b315d65bc18cde5d567d0482b OP_EQUALVERIFY OP_CHECKSIG",
            "hex": "76a914f844f220ac47a12b315d65bc18cde5d567d0482b88ac",
            "reqSigs": 1,
            "type": "pubkeyhash",
            "addresses": [
              "LhrgSE49hrAuyu3ua9kFLtWSWuMUd85k2x"
            ]
          }
        }
      ],
      "hex": "01000000012526c03f38924ab16838bfba7c5c094aadb19736e3007953c48992ecb906e538000000006a47304402202a004121e5cf1aa2853400240ab32d269660189e9d4a1210d0b82f10f5ef315802200ebacdef270adb3786d568d29c7e85c5c13a219e0cd081a1bffc44b9eb884ff50121034b5740580438694318c885adc132c9d12d4da2af5cb5886996534da3c0289adafeffffff02ab0e7d3b000000001976a914188a250e837fab9b1cefa3fe7e4bbb86344816ce88ac20ba1f54020000001976a914f844f220ac47a12b315d65bc18cde5d567d0482b88ac00000000"
    }, 
    {
      "txid": "b41cbb4b749ce88bd00e615bc2de96df7f9f4b01a60e0db8a6759657c9845b5e",
      "hash": "42e885af1fb01d4792a48ca476db1c4b5a86c2cddaf0ad5935538ef5834c8f75",
      "version": 1,
      "size": 218,
      "vsize": 136,
      "locktime": 0,
      "vin": [
        {
          "txid": "7e043e105110c99ec9ade590836f9b23e3e6f4190f87b649fe50b919073c9970",
          "vout": 0,
          "scriptSig": {
            "asm": "001415a0b010091604c3f870418125b45b1448be8360",
            "hex": "16001415a0b010091604c3f870418125b45b1448be8360"
          },
          "txinwitness": [
            "3045022100b4c11a813953dcbe8e0d740f7fcf07f7a56f78004f4bddb4389da935c50bdc480220185026e478f9e43b0922c4d5e9d6757ea6b6dd3de043e1dec5542f959ab02f5f01", 
            "03c51dd91b160c8ebd145e0e288e4bf7af09b04cf1f6c56deafd8f7786ebf40a25"
          ],
          "sequence": 4294967295
        }
      ],
      "vout": [
        {
          "value": 8.80716000,
          "n": 0,
          "scriptPubKey": {
            "asm": "OP_DUP OP_HASH160 48160463cfa2706e697e81dbadd9c911bb1ceaf6 OP_EQUALVERIFY OP_CHECKSIG",
            "hex": "76a91448160463cfa2706e697e81dbadd9c911bb1ceaf688ac",
            "reqSigs": 1,
            "type": "pubkeyhash",
            "addresses": [
              "LRo7HoXmGTp9kNBjiJ5EYtEcVEG1gnXQZz"
            ]
          }
        }
      ],
      "hex": "0100000000010170993c0719b950fe49b6870f19f4e6e3239b6f8390e5adc99ec91051103e047e000000001716001415a0b010091604c3f870418125b45b1448be8360ffffffff01e0a87e34000000001976a91448160463cfa2706e697e81dbadd9c911bb1ceaf688ac02483045022100b4c11a813953dcbe8e0d740f7fcf07f7a56f78004f4bddb4389da935c50bdc480220185026e478f9e43b0922c4d5e9d6757ea6b6dd3de043e1dec5542f959ab02f5f012103c51dd91b160c8ebd145e0e288e4bf7af09b04cf1f6c56deafd8f7786ebf40a2500000000"
    }, 
    {
      "txid": "8ea772c23b69d7e7b8efe4f705be39716ee37bbfcd60122d97a5ccab0dd60a38",
      "hash": "8ea772c23b69d7e7b8efe4f705be39716ee37bbfcd60122d97a5ccab0dd60a38",
      "version": 1,
      "size": 335,
      "vsize": 335,
      "locktime": 0,
      "vin": [
        {
          "txid": "dc511920e6691f3dd89bb5c3a228dc26e617fd9b412e0192258004810e6bd749",
          "vout": 1,
          "scriptSig": {
            "asm": "0 30450221009a74f934a4d77b38562912a3b99f1279380563da47f01ef8b4e421f04fb090a40220034d8f105625e847028329687c7f5bb3c84bde110ed3d19c42f75030bea48484[ALL] 304402206986bb551979de4551cb33ffe64c7a45089dbac90f2763766303208a1ca64b2e022026c00b195013582c723da8242964a8da346ac4ca8d9bbe1f8d2da9422c4207c5[ALL] 522102f77ec37a042ba4e5e6aef7760398bf59b87ac4c5dee30a2fb8798e9630d4916e210276b93401dc495b28592f66411a7c9093b468f8678db51144fc6a36f550d94aa952ae",
            "hex": "004830450221009a74f934a4d77b38562912a3b99f1279380563da47f01ef8b4e421f04fb090a40220034d8f105625e847028329687c7f5bb3c84bde110ed3d19c42f75030bea484840147304402206986bb551979de4551cb33ffe64c7a45089dbac90f2763766303208a1ca64b2e022026c00b195013582c723da8242964a8da346ac4ca8d9bbe1f8d2da9422c4207c50147522102f77ec37a042ba4e5e6aef7760398bf59b87ac4c5dee30a2fb8798e9630d4916e210276b93401dc495b28592f66411a7c9093b468f8678db51144fc6a36f550d94aa952ae"
          },
          "sequence": 4294967295
        }
      ],
      "vout": [
        {
          "value": 0.07801200,
          "n": 0,
          "scriptPubKey": {
            "asm": "OP_DUP OP_HASH160 0c28ad7fcfcb4f8e6f848c4e7b117d2ae482d00f OP_EQUALVERIFY OP_CHECKSIG",
            "hex": "76a9140c28ad7fcfcb4f8e6f848c4e7b117d2ae482d00f88ac",
            "reqSigs": 1,
            "type": "pubkeyhash",
            "addresses": [
              "LLLF6rSo4dDQkEYS77aeLN3sdDW9xkuwgd"
            ]
          }
        }, 
        {
          "value": 19.58753400,
          "n": 1,
          "scriptPubKey": {
            "asm": "OP_HASH160 75b77316f8d91ff71fb2819115d1b6b9e80ccee9 OP_EQUAL",
            "hex": "a91475b77316f8d91ff71fb2819115d1b6b9e80ccee987",
            "reqSigs": 1,
            "type": "scripthash",
            "addresses": [
              "MJdb4B3BMDrfpB1FpKsPYQ1tDHdkNa1oLB"
            ]
          }
        }
      ],
      "hex": "010000000149d76b0e8104802592012e419bfd17e626dc28a2c3b59bd83d1f69e6201951dc01000000da004830450221009a74f934a4d77b38562912a3b99f1279380563da47f01ef8b4e421f04fb090a40220034d8f105625e847028329687c7f5bb3c84bde110ed3d19c42f75030bea484840147304402206986bb551979de4551cb33ffe64c7a45089dbac90f2763766303208a1ca64b2e022026c00b195013582c723da8242964a8da346ac4ca8d9bbe1f8d2da9422c4207c50147522102f77ec37a042ba4e5e6aef7760398bf59b87ac4c5dee30a2fb8798e9630d4916e210276b93401dc495b28592f66411a7c9093b468f8678db51144fc6a36f550d94aa952aeffffffff0270097700000000001976a9140c28ad7fcfcb4f8e6f848c4e7b117d2ae482d00f88ac7834c0740000000017a91475b77316f8d91ff71fb2819115d1b6b9e80ccee98700000000"
    }, 
    {
      "txid": "c9c06145060cb1ae9b5d47eb6d9b59ad755aedadf9a37c42dff957baa1582002",
      "hash": "c9c06145060cb1ae9b5d47eb6d9b59ad755aedadf9a37c42dff957baa1582002",
      "version": 1,
      "size": 191,
      "vsize": 191,
      "locktime": 0,
      "vin": [
        {
          "txid": "75e148d444baecabcbff5101a7cc2a5b38760ddeec90c2c1365769664adc7ca2",
          "vout": 0,
          "scriptSig": {
            "asm": "3044022051d420335268bfc078f83ad2986bf269fafdc332d81177d33335cb425c2a398a02203edcf83e4ab9f676da95b95350126ec041f85262e87f3b43136c1621a8bd7065[ALL] 03394958d9bcf125f44b39410b38799dd3408ff59487a98ad7a0d8cbc8118eeb77",
            "hex": "473044022051d420335268bfc078f83ad2986bf269fafdc332d81177d33335cb425c2a398a02203edcf83e4ab9f676da95b95350126ec041f85262e87f3b43136c1621a8bd7065012103394958d9bcf125f44b39410b38799dd3408ff59487a98ad7a0d8cbc8118eeb77"
          },
          "sequence": 4294967294
        }
      ],
      "vout": [
        {
          "value": 11.99900000,
          "n": 0,
          "scriptPubKey": {
            "asm": "OP_DUP OP_HASH160 5f6e74a649e93770aac341960a872aa03ae5869d OP_EQUALVERIFY OP_CHECKSIG",
            "hex": "76a9145f6e74a649e93770aac341960a872aa03ae5869d88ac",
            "reqSigs": 1,
            "type": "pubkeyhash",
            "addresses": [
              "LTvYn2k6XTp21Z97Q4quongCWo21qhbfVC"
            ]
          }
        }
      ],
      "hex": "0100000001a27cdc4a66695736c1c290ecde0d76385b2acca70151ffcbabecba44d448e175000000006a473044022051d420335268bfc078f83ad2986bf269fafdc332d81177d33335cb425c2a398a02203edcf83e4ab9f676da95b95350126ec041f85262e87f3b43136c1621a8bd7065012103394958d9bcf125f44b39410b38799dd3408ff59487a98ad7a0d8cbc8118eeb77feffffff0160058547000000001976a9145f6e74a649e93770aac341960a872aa03ae5869d88ac00000000"
    }, 
    {
      "txid": "906f909de925fe72f219a80dbfc6d3409858e1620bf2824c6a85bf05ea8b8448",
      "hash": "906f909de925fe72f219a80dbfc6d3409858e1620bf2824c6a85bf05ea8b8448",
      "version": 1,
      "size": 813,
      "vsize": 813,
      "locktime": 1360933,
      "vin": [
        {
          "txid": "f837c67629da170a24c1831231f3de3df9c68b41eddf611440d55da8b0fa5e3f",
          "vout": 1,
          "scriptSig": {
            "asm": "3044022057b11a7c7e49214a5995039062e1f246c9181d56a1827a69cb9cc518d07297b20220538e11090d614b161ade7e588e5b0751b109e3f2dce739fa6eaffd96d0bd03b5[ALL] 028eddf1ec700489c35d894bd991485ec276e249b8294ccd1d3248548f456a025b",
            "hex": "473044022057b11a7c7e49214a5995039062e1f246c9181d56a1827a69cb9cc518d07297b20220538e11090d614b161ade7e588e5b0751b109e3f2dce739fa6eaffd96d0bd03b50121028eddf1ec700489c35d894bd991485ec276e249b8294ccd1d3248548f456a025b"
          },
          "sequence": 4294967294
        }, 
        {
          "txid": "da86c99ccc37c503fd4fc71f9a9ef8513d2b2b9e00eb5a2fe3388ca952f087b5",
          "vout": 0,
          "scriptSig": {
            "asm": "3045022100d6e6f94a2306c23ebf459c21df1626c7721c4c8d484bd4c349bb0dd1784380dd0220635a3bd7bdcb7e4291e34f73aad2414c032107d4c8b8a11042122ae0cc59e18d[ALL] 024b0b905f9287acb1b74013d2f9e462cc62850d1efae1c60899d3d6d259ce128c",
            "hex": "483045022100d6e6f94a2306c23ebf459c21df1626c7721c4c8d484bd4c349bb0dd1784380dd0220635a3bd7bdcb7e4291e34f73aad2414c032107d4c8b8a11042122ae0cc59e18d0121024b0b905f9287acb1b74013d2f9e462cc62850d1efae1c60899d3d6d259ce128c"
          },
          "sequence": 4294967294
        }, 
        {
          "txid": "8a5d0d1a33ad348a85e63e3f017f82f5f93312bd0b3d6f61148a5df3c01e14a0",
          "vout": 1,
          "scriptSig": {
            "asm": "304402201269302252c290749acef6530aa111a61a31673c948337e2ca7ee1e3ecdb45be02206f334b95c25fdf83f9ce09be3e4122c5f7c33b5528cb0ada769632ce4c33a906[ALL] 0206feb6dfcd6ac124096ff236d563f517ebb0b8a8a3533e6d1723a9fc0450c41f",
            "hex": "47304402201269302252c290749acef6530aa111a61a31673c948337e2ca7ee1e3ecdb45be02206f334b95c25fdf83f9ce09be3e4122c5f7c33b5528cb0ada769632ce4c33a90601210206feb6dfcd6ac124096ff236d563f517ebb0b8a8a3533e6d1723a9fc0450c41f"
          },
          "sequence": 4294967294
        }, 
        {
          "txid": "3acfa3659c94b0646eb1e562710e59383d69da34314e9c1fc41a38a5566f904f",
          "vout": 0,
          "scriptSig": {
            "asm": "3044022069ba7f6c79e723341771191ff6d30f0405e4e025447383cc401570c45b30a19b02201eb76eb9eb0e0a5911969c2c09a3be464a2f2306f4daa8666d76c2ae8b68f92b[ALL] 037116d935288ff33865ea7fe1c64dee46671d9d2ab1d83e9b28f2ae517541427e",
            "hex": "473044022069ba7f6c79e723341771191ff6d30f0405e4e025447383cc401570c45b30a19b02201eb76eb9eb0e0a5911969c2c09a3be464a2f2306f4daa8666d76c2ae8b68f92b0121037116d935288ff33865ea7fe1c64dee46671d9d2ab1d83e9b28f2ae517541427e"
          },
          "sequence": 4294967294
        }, 
        {
          "txid": "16167c1260ee70149d084a90239a558af37c676ed409dc99efbbc374093f8469",
          "vout": 5,
          "scriptSig": {
            "asm": "3045022100833a20d90db0b78a695d86b08f881a9085120850e1882e12f02d96edd2b53cf002204121a44e12ff772dd6243bc1473afa25b611d0cc01b3196ff3401e250383c72c[ALL] 0271a5296ef01fe322e62b58491e88470eec691537f7408d7d21aad8df92a2c860",
            "hex": "483045022100833a20d90db0b78a695d86b08f881a9085120850e1882e12f02d96edd2b53cf002204121a44e12ff772dd6243bc1473afa25b611d0cc01b3196ff3401e250383c72c01210271a5296ef01fe322e62b58491e88470eec691537f7408d7d21aad8df92a2c860"
          },
          "sequence": 4294967294
        }
      ],
      "vout": [
        {
          "value": 0.01285374,
          "n": 0,
          "scriptPubKey": {
            "asm": "OP_DUP OP_HASH160 7f518d5ec6e6ce0aceafa54fbd3dd7503248f91a OP_EQUALVERIFY OP_CHECKSIG",
            "hex": "76a9147f518d5ec6e6ce0aceafa54fbd3dd7503248f91a88ac",
            "reqSigs": 1,
            "type": "pubkeyhash",
            "addresses": [
              "LWq9mvXASzP8J2Rix7VfiBikp92RzohNPV"
            ]
          }
        }, 
        {
          "value": 0.26000000,
          "n": 1,
          "scriptPubKey": {
            "asm": "OP_HASH160 469e94ca68ec13b55951b1e66e82a0bf0a5d755f OP_EQUAL",
            "hex": "a914469e94ca68ec13b55951b1e66e82a0bf0a5d755f87",
            "reqSigs": 1,
            "type": "scripthash",
            "addresses": [
              "MELZWGrfDJRBFNXFY3RhUUBfR5R18w38FC"
            ]
          }
        }
      ],
      "hex": "01000000053f5efab0a85dd5401461dfed418bc6f93ddef3311283c1240a17da2976c637f8010000006a473044022057b11a7c7e49214a5995039062e1f246c9181d56a1827a69cb9cc518d07297b20220538e11090d614b161ade7e588e5b0751b109e3f2dce739fa6eaffd96d0bd03b50121028eddf1ec700489c35d894bd991485ec276e249b8294ccd1d3248548f456a025bfeffffffb587f052a98c38e32f5aeb009e2b2b3d51f89e9a1fc74ffd03c537cc9cc986da000000006b483045022100d6e6f94a2306c23ebf459c21df1626c7721c4c8d484bd4c349bb0dd1784380dd0220635a3bd7bdcb7e4291e34f73aad2414c032107d4c8b8a11042122ae0cc59e18d0121024b0b905f9287acb1b74013d2f9e462cc62850d1efae1c60899d3d6d259ce128cfeffffffa0141ec0f35d8a14616f3d0bbd1233f9f5827f013f3ee6858a34ad331a0d5d8a010000006a47304402201269302252c290749acef6530aa111a61a31673c948337e2ca7ee1e3ecdb45be02206f334b95c25fdf83f9ce09be3e4122c5f7c33b5528cb0ada769632ce4c33a90601210206feb6dfcd6ac124096ff236d563f517ebb0b8a8a3533e6d1723a9fc0450c41ffeffffff4f906f56a5381ac41f9c4e3134da693d38590e7162e5b16e64b0949c65a3cf3a000000006a473044022069ba7f6c79e723341771191ff6d30f0405e4e025447383cc401570c45b30a19b02201eb76eb9eb0e0a5911969c2c09a3be464a2f2306f4daa8666d76c2ae8b68f92b0121037116d935288ff33865ea7fe1c64dee46671d9d2ab1d83e9b28f2ae517541427efeffffff69843f0974c3bbef99dc09d46e677cf38a559a23904a089d1470ee60127c1616050000006b483045022100833a20d90db0b78a695d86b08f881a9085120850e1882e12f02d96edd2b53cf002204121a44e12ff772dd6243bc1473afa25b611d0cc01b3196ff3401e250383c72c01210271a5296ef01fe322e62b58491e88470eec691537f7408d7d21aad8df92a2c860feffffff02fe9c1300000000001976a9147f518d5ec6e6ce0aceafa54fbd3dd7503248f91a88ac80ba8c010000000017a914469e94ca68ec13b55951b1e66e82a0bf0a5d755f8725c41400"
    }, 
    {
      "txid": "2cc27bc81223da8158754b88f3affa2913b32a8511610d0bb0304a2224b98718",
      "hash": "2cc27bc81223da8158754b88f3affa2913b32a8511610d0bb0304a2224b98718",
      "version": 1,
      "size": 225,
      "vsize": 225,
      "locktime": 0,
      "vin": [
        {
          "txid": "65b88949bf4a78a9c0cb0e05dc34f1def1556b72fc599115f7eec83392ac1701",
          "vout": 1,
          "scriptSig": {
            "asm": "304402205786fb19c0182c54403aef5d934870f414ee46a9eb1e0c1e8a169275cb5479fc02204d10913dd7a029bc2262111d373e13c54a94a6692a9822dee9f88711ed227fab[ALL] 03fd25a36892e025854555d33fed086893913b4f358361b118788a96522ca5ed43",
            "hex": "47304402205786fb19c0182c54403aef5d934870f414ee46a9eb1e0c1e8a169275cb5479fc02204d10913dd7a029bc2262111d373e13c54a94a6692a9822dee9f88711ed227fab012103fd25a36892e025854555d33fed086893913b4f358361b118788a96522ca5ed43"
          },
          "sequence": 4294967295
        }
      ],
      "vout": [
        {
          "value": 15.17405425,
          "n": 0,
          "scriptPubKey": {
            "asm": "OP_DUP OP_HASH160 4dbd1fec921c55237a2ad2e54d8b2b42daeaaf3c OP_EQUALVERIFY OP_CHECKSIG",
            "hex": "76a9144dbd1fec921c55237a2ad2e54d8b2b42daeaaf3c88ac",
            "reqSigs": 1,
            "type": "pubkeyhash",
            "addresses": [
              "LSJzrbgNZMDywZfWTZMR9oFK271fQ3wQ1C"
            ]
          }
        }, 
        {
          "value": 1.29954800,
          "n": 1,
          "scriptPubKey": {
            "asm": "OP_DUP OP_HASH160 2d7ee21fbabd2d2100db22b6035ce496b9f743bb OP_EQUALVERIFY OP_CHECKSIG",
            "hex": "76a9142d7ee21fbabd2d2100db22b6035ce496b9f743bb88ac",
            "reqSigs": 1,
            "type": "pubkeyhash",
            "addresses": [
              "LPNWfrLKmBWSj8q5xEw7qayaHL2CwYLKgK"
            ]
          }
        }
      ],
      "hex": "01000000010117ac9233c8eef7159159fc726b55f1def134dc050ecbc0a9784abf4989b865010000006a47304402205786fb19c0182c54403aef5d934870f414ee46a9eb1e0c1e8a169275cb5479fc02204d10913dd7a029bc2262111d373e13c54a94a6692a9822dee9f88711ed227fab012103fd25a36892e025854555d33fed086893913b4f358361b118788a96522ca5ed43ffffffff02f1c4715a000000001976a9144dbd1fec921c55237a2ad2e54d8b2b42daeaaf3c88acf0f3be07000000001976a9142d7ee21fbabd2d2100db22b6035ce496b9f743bb88ac00000000"
    }, 
    {
      "txid": "48de60e8b47e37c03619016f94a92a52369f0f06a1e658580b9f5c218fb9d488",
      "hash": "48de60e8b47e37c03619016f94a92a52369f0f06a1e658580b9f5c218fb9d488",
      "version": 1,
      "size": 225,
      "vsize": 225,
      "locktime": 0,
      "vin": [
        {
          "txid": "bcacdbde5d0fb24f6330ece427b7ee9f5c7faf4c4abe9c757a6e18f66475a892",
          "vout": 0,
          "scriptSig": {
            "asm": "304402202255b18eeb5290cbc81ece8136f70df688714e17d192f320c487cbd13b78412602203659bd843136c60ab920911168f0064a3dc624bb230750522a1750340aea6615[ALL] 0338e71a13e759b693615d2156ead67eba77ee9a43b649fd6902eb13e0887767aa",
            "hex": "47304402202255b18eeb5290cbc81ece8136f70df688714e17d192f320c487cbd13b78412602203659bd843136c60ab920911168f0064a3dc624bb230750522a1750340aea661501210338e71a13e759b693615d2156ead67eba77ee9a43b649fd6902eb13e0887767aa"
          },
          "sequence": 4294967295
        }
      ],
      "vout": [
        {
          "value": 28.26853494,
          "n": 0,
          "scriptPubKey": {
            "asm": "OP_DUP OP_HASH160 17bc1033fd6e0d06d869cce85a262faabadb6a54 OP_EQUALVERIFY OP_CHECKSIG",
            "hex": "76a91417bc1033fd6e0d06d869cce85a262faabadb6a5488ac",
            "reqSigs": 1,
            "type": "pubkeyhash",
            "addresses": [
              "LMPT6VUhX4tUjC6ynKGQe73YhuETjReqLv"
            ]
          }
        }, 
        {
          "value": 1.50000000,
          "n": 1,
          "scriptPubKey": {
            "asm": "OP_DUP OP_HASH160 b258bc0ab16f82e8ef5a14ba6385dc62bafda775 OP_EQUALVERIFY OP_CHECKSIG",
            "hex": "76a914b258bc0ab16f82e8ef5a14ba6385dc62bafda77588ac",
            "reqSigs": 1,
            "type": "pubkeyhash",
            "addresses": [
              "LbUxqk2StLaELntP7UbzLEmXQG2e9gRJ43"
            ]
          }
        }
      ],
      "hex": "010000000192a87564f6186e7a759cbe4a4caf7f5c9feeb727e4ec30634fb20f5ddedbacbc000000006a47304402202255b18eeb5290cbc81ece8136f70df688714e17d192f320c487cbd13b78412602203659bd843136c60ab920911168f0064a3dc624bb230750522a1750340aea661501210338e71a13e759b693615d2156ead67eba77ee9a43b649fd6902eb13e0887767aaffffffff02765c7ea8000000001976a91417bc1033fd6e0d06d869cce85a262faabadb6a5488ac80d1f008000000001976a914b258bc0ab16f82e8ef5a14ba6385dc62bafda77588ac00000000"
    }, 
    {
      "txid": "61a667a15d5b31f70fcfc174b1ca24125ac6cc7ae76d64b538bc684bbe9baba0",
      "hash": "61a667a15d5b31f70fcfc174b1ca24125ac6cc7ae76d64b538bc684bbe9baba0",
      "version": 1,
      "size": 225,
      "vsize": 225,
      "locktime": 0,
      "vin": [
        {
          "txid": "6732dd2e9279e730315b1df665b2a06007863331707507f119e336e8228cc421",
          "vout": 1,
          "scriptSig": {
            "asm": "3044022033f72da55e3dfd2bac270e1bc3c9a19a138902903d4b84c322bbfd1d16763f6802205f4a8f3f05456fd99fa3e18091f657050771f2eb49127c762e58993740f2757b[ALL] 02e7a099e8afbf85f058a723f82f55d510680dc4c8b6542ce56bb425cddf5aab32",
            "hex": "473044022033f72da55e3dfd2bac270e1bc3c9a19a138902903d4b84c322bbfd1d16763f6802205f4a8f3f05456fd99fa3e18091f657050771f2eb49127c762e58993740f2757b012102e7a099e8afbf85f058a723f82f55d510680dc4c8b6542ce56bb425cddf5aab32"
          },
          "sequence": 4294967295
        }
      ],
      "vout": [
        {
          "value": 3.93423420,
          "n": 0,
          "scriptPubKey": {
            "asm": "OP_DUP OP_HASH160 565f917df9fb7cb0c6b981d130b83646ec9405ab OP_EQUALVERIFY OP_CHECKSIG",
            "hex": "76a914565f917df9fb7cb0c6b981d130b83646ec9405ab88ac",
            "reqSigs": 1,
            "type": "pubkeyhash",
            "addresses": [
              "LT6eruyyKumPcPfKwCAJjxSNeoG7bPAxxJ"
            ]
          }
        }, 
        {
          "value": 9.99900000,
          "n": 1,
          "scriptPubKey": {
            "asm": "OP_DUP OP_HASH160 c3f1a6a3f5a3c4b11871f5ffc87257cb680cda1d OP_EQUALVERIFY OP_CHECKSIG",
            "hex": "76a914c3f1a6a3f5a3c4b11871f5ffc87257cb680cda1d88ac",
            "reqSigs": 1,
            "type": "pubkeyhash",
            "addresses": [
              "Ld61Wpbz7LpnDmqUNysciFvosFjooTDbqE"
            ]
          }
        }
      ],
      "hex": "010000000121c48c22e836e319f10775703133860760a0b265f61d5b3130e779922edd3267010000006a473044022033f72da55e3dfd2bac270e1bc3c9a19a138902903d4b84c322bbfd1d16763f6802205f4a8f3f05456fd99fa3e18091f657050771f2eb49127c762e58993740f2757b012102e7a099e8afbf85f058a723f82f55d510680dc4c8b6542ce56bb425cddf5aab32ffffffff023c2a7317000000001976a914565f917df9fb7cb0c6b981d130b83646ec9405ab88ac6043993b000000001976a914c3f1a6a3f5a3c4b11871f5ffc87257cb680cda1d88ac00000000"
    }, 
    {
      "txid": "f1ced4c44d8124a9b9c3b63da549496c0a577de719b383785d53fe35e16a05dc",
      "hash": "f1ced4c44d8124a9b9c3b63da549496c0a577de719b383785d53fe35e16a05dc",
      "version": 1,
      "size": 225,
      "vsize": 225,
      "locktime": 0,
      "vin": [
        {
          "txid": "aaa4af2f0c8f5469728b49763a484a13db93f7d5071685eeb1485386bd250d62",
          "vout": 1,
          "scriptSig": {
            "asm": "3044022036a1b0ba1801f6a107ebbc96dca4f7942e9f1b0ab86043bd1db403d733d2759b02204e16d840cca27d70d2573376ac376f149a3e85b5e2d0e9c527c1f8fbe9a051e2[ALL] 03cedcf1b98af1edd9c610cf297a8dc3c0b4431496fe31b6d658381a6e32225512",
            "hex": "473044022036a1b0ba1801f6a107ebbc96dca4f7942e9f1b0ab86043bd1db403d733d2759b02204e16d840cca27d70d2573376ac376f149a3e85b5e2d0e9c527c1f8fbe9a051e2012103cedcf1b98af1edd9c610cf297a8dc3c0b4431496fe31b6d658381a6e32225512"
          },
          "sequence": 4294967295
        }
      ],
      "vout": [
        {
          "value": 3.57303456,
          "n": 0,
          "scriptPubKey": {
            "asm": "OP_DUP OP_HASH160 921205ea707bfa9cdf36f3b8aeb7b82fd6f18724 OP_EQUALVERIFY OP_CHECKSIG",
            "hex": "76a914921205ea707bfa9cdf36f3b8aeb7b82fd6f1872488ac",
            "reqSigs": 1,
            "type": "pubkeyhash",
            "addresses": [
              "LYYJWVFArWUmxaDNQswvStVT83hzRT4aHB"
            ]
          }
        }, 
        {
          "value": 22.25000000,
          "n": 1,
          "scriptPubKey": {
            "asm": "OP_DUP OP_HASH160 c3abd8adac8b4ae9e0f7846275242caa7287cfd6 OP_EQUALVERIFY OP_CHECKSIG",
            "hex": "76a914c3abd8adac8b4ae9e0f7846275242caa7287cfd688ac",
            "reqSigs": 1,
            "type": "pubkeyhash",
            "addresses": [
              "Ld4ZtiYjD29EcJTF79KZPpo6dFZJ3Byce8"
            ]
          }
        }
      ],
      "hex": "0100000001620d25bd865348b1ee851607d5f793db134a483a76498b7269548f0c2fafa4aa010000006a473044022036a1b0ba1801f6a107ebbc96dca4f7942e9f1b0ab86043bd1db403d733d2759b02204e16d840cca27d70d2573376ac376f149a3e85b5e2d0e9c527c1f8fbe9a051e2012103cedcf1b98af1edd9c610cf297a8dc3c0b4431496fe31b6d658381a6e32225512ffffffff02a0044c15000000001976a914921205ea707bfa9cdf36f3b8aeb7b82fd6f1872488ac40ce9e84000000001976a914c3abd8adac8b4ae9e0f7846275242caa7287cfd688ac00000000"
    }, 
    {
      "txid": "b860e2c9b0854956b135c8f2dd1474a980e2e3b2a8100e969379bab87df0ea85",
      "hash": "b860e2c9b0854956b135c8f2dd1474a980e2e3b2a8100e969379bab87df0ea85",
      "version": 1,
      "size": 226,
      "vsize": 226,
      "locktime": 0,
      "vin": [
        {
          "txid": "2e1f265193d8708b9deb153204bef33772d8035ec2039336b294d5fb820eecc7",
          "vout": 0,
          "scriptSig": {
            "asm": "304502210091b59401a6b581a3bb841f94a6cb6ed39d9fece9797be0770409b85f337b07ff02201d485eddc10b4358445afd88e2c743d54b8d30a13ad366ea4df72f02ab799e4b[ALL] 02818e0c2a6c6c2f88366b63dadb7bbb742fd9a9a0028d10ff480b86eefd8e11bf",
            "hex": "48304502210091b59401a6b581a3bb841f94a6cb6ed39d9fece9797be0770409b85f337b07ff02201d485eddc10b4358445afd88e2c743d54b8d30a13ad366ea4df72f02ab799e4b012102818e0c2a6c6c2f88366b63dadb7bbb742fd9a9a0028d10ff480b86eefd8e11bf"
          },
          "sequence": 4294967295
        }
      ],
      "vout": [
        {
          "value": 22.11629419,
          "n": 0,
          "scriptPubKey": {
            "asm": "OP_DUP OP_HASH160 4f091598ed80b3e5f4fb7fb359ed8accb687e010 OP_EQUALVERIFY OP_CHECKSIG",
            "hex": "76a9144f091598ed80b3e5f4fb7fb359ed8accb687e01088ac",
            "reqSigs": 1,
            "type": "pubkeyhash",
            "addresses": [
              "LSRrXZTFXSBy9BRjEj26HzmKWgCa5A1t1F"
            ]
          }
        }, 
        {
          "value": 5.75250993,
          "n": 1,
          "scriptPubKey": {
            "asm": "OP_DUP OP_HASH160 588734b2af5e095d7f54f01957a901ab028d4380 OP_EQUALVERIFY OP_CHECKSIG",
            "hex": "76a914588734b2af5e095d7f54f01957a901ab028d438088ac",
            "reqSigs": 1,
            "type": "pubkeyhash",
            "addresses": [
              "LTJ3hMupcRWtNmYt3DFEtFdAZoJu7wm7Yb"
            ]
          }
        }
      ],
      "hex": "0100000001c7ec0e82fbd594b2369303c25e03d87237f3be043215eb9d8b70d89351261f2e000000006b48304502210091b59401a6b581a3bb841f94a6cb6ed39d9fece9797be0770409b85f337b07ff02201d485eddc10b4358445afd88e2c743d54b8d30a13ad366ea4df72f02ab799e4b012102818e0c2a6c6c2f88366b63dadb7bbb742fd9a9a0028d10ff480b86eefd8e11bfffffffff026bc9d283000000001976a9144f091598ed80b3e5f4fb7fb359ed8accb687e01088ac31a24922000000001976a914588734b2af5e095d7f54f01957a901ab028d438088ac00000000"
    }, 
    {
      "txid": "6ddc1785a9deb1931a69ec7f9152a87fd04081220b81da818710f54e32f6cb9d",
      "hash": "6ddc1785a9deb1931a69ec7f9152a87fd04081220b81da818710f54e32f6cb9d",
      "version": 1,
      "size": 225,
      "vsize": 225,
      "locktime": 1360933,
      "vin": [
        {
          "txid": "0933c51ebaf2605e3460c9624b804f399be3e0cb205463a55e89213c8044251e",
          "vout": 25,
          "scriptSig": {
            "asm": "304402202e9e754da06b1b0708064e7685ff944d65c7ce977aa6ed21f2df845106fb22f4022074c55fd9b7a72c6eb75ec94e761a3cc4d462b616aadb22f8b6a38e39627fe934[ALL] 02978a7f9bab920f24af670d9db6062ae19d346c6006ececad39c9d1188b0f7ace",
            "hex": "47304402202e9e754da06b1b0708064e7685ff944d65c7ce977aa6ed21f2df845106fb22f4022074c55fd9b7a72c6eb75ec94e761a3cc4d462b616aadb22f8b6a38e39627fe934012102978a7f9bab920f24af670d9db6062ae19d346c6006ececad39c9d1188b0f7ace"
          },
          "sequence": 4294967294
        }
      ],
      "vout": [
        {
          "value": 53.21231831,
          "n": 0,
          "scriptPubKey": {
            "asm": "OP_DUP OP_HASH160 c68d3c0302eb04d4121e6008a279c5e073c4da2a OP_EQUALVERIFY OP_CHECKSIG",
            "hex": "76a914c68d3c0302eb04d4121e6008a279c5e073c4da2a88ac",
            "reqSigs": 1,
            "type": "pubkeyhash",
            "addresses": [
              "LdKoFLPKwHHR8NPzupjUvaaKpFeWGmvfDH"
            ]
          }
        }, 
        {
          "value": 1.78445669,
          "n": 1,
          "scriptPubKey": {
            "asm": "OP_DUP OP_HASH160 430b3cdd99084458fba3ea72e9df91ea80266017 OP_EQUALVERIFY OP_CHECKSIG",
            "hex": "76a914430b3cdd99084458fba3ea72e9df91ea8026601788ac",
            "reqSigs": 1,
            "type": "pubkeyhash",
            "addresses": [
              "LRLSzsv2Xg3gkvaQcQFPHccof5EzhdZg6w"
            ]
          }
        }
      ],
      "hex": "01000000011e2544803c21895ea5635420cbe0e39b394f804b62c960345e60f2ba1ec53309190000006a47304402202e9e754da06b1b0708064e7685ff944d65c7ce977aa6ed21f2df845106fb22f4022074c55fd9b7a72c6eb75ec94e761a3cc4d462b616aadb22f8b6a38e39627fe934012102978a7f9bab920f24af670d9db6062ae19d346c6006ececad39c9d1188b0f7acefeffffff02d78d2b3d010000001976a914c68d3c0302eb04d4121e6008a279c5e073c4da2a88ac65dda20a000000001976a914430b3cdd99084458fba3ea72e9df91ea8026601788ac25c41400"
    }, 
    {
      "txid": "1b64e4dc8c91b763a45bc6008391cf785c7fa50472b2eaae226bc6347adbe5dd",
      "hash": "1b64e4dc8c91b763a45bc6008391cf785c7fa50472b2eaae226bc6347adbe5dd",
      "version": 1,
      "size": 224,
      "vsize": 224,
      "locktime": 0,
      "vin": [
        {
          "txid": "0f2487f803b542b84a978d52cda5f39437f3096e4b2f1cf70f5f0c9b052f7529",
          "vout": 1,
          "scriptSig": {
            "asm": "3045022100e167addf823fc65e8e390227b250f2ebc8b9b1551e1b04c4496d04914d3dfcb802201034e0f2a61cfe9b7536741245d0238dba1cbc79c2c10acfc8ee657ec3742e43[ALL] 02b643b1b8cdcbb1cc6e2dcff7bb0e7fe533db27569e54c7a3378c45811a784094",
            "hex": "483045022100e167addf823fc65e8e390227b250f2ebc8b9b1551e1b04c4496d04914d3dfcb802201034e0f2a61cfe9b7536741245d0238dba1cbc79c2c10acfc8ee657ec3742e43012102b643b1b8cdcbb1cc6e2dcff7bb0e7fe533db27569e54c7a3378c45811a784094"
          },
          "sequence": 4294967295
        }
      ],
      "vout": [
        {
          "value": 0.00054858,
          "n": 0,
          "scriptPubKey": {
            "asm": "OP_DUP OP_HASH160 e456935938bf2a34074285824fadf18d5220064d OP_EQUALVERIFY OP_CHECKSIG",
            "hex": "76a914e456935938bf2a34074285824fadf18d5220064d88ac",
            "reqSigs": 1,
            "type": "pubkeyhash",
            "addresses": [
              "Lg3J3KvfnCkfS3C3AXVNUgkkLKo2d2h7MZ"
            ]
          }
        }, 
        {
          "value": 0.03429000,
          "n": 1,
          "scriptPubKey": {
            "asm": "OP_HASH160 488afd867bd6cca292255fe64dd2b1d8f57cf05a OP_EQUAL",
            "hex": "a914488afd867bd6cca292255fe64dd2b1d8f57cf05a87",
            "reqSigs": 1,
            "type": "scripthash",
            "addresses": [
              "MEWjPTcUjM6o5dXb22p6fw3r8oWtNbN9CR"
            ]
          }
        }
      ],
      "hex": "010000000129752f059b0c5f0ff71c2f4b6e09f33794f3a5cd528d974ab842b503f887240f010000006b483045022100e167addf823fc65e8e390227b250f2ebc8b9b1551e1b04c4496d04914d3dfcb802201034e0f2a61cfe9b7536741245d0238dba1cbc79c2c10acfc8ee657ec3742e43012102b643b1b8cdcbb1cc6e2dcff7bb0e7fe533db27569e54c7a3378c45811a784094ffffffff024ad60000000000001976a914e456935938bf2a34074285824fadf18d5220064d88ac885234000000000017a914488afd867bd6cca292255fe64dd2b1d8f57cf05a8700000000"
    }, 
    {
      "txid": "5f1fc606c8b7c360c9334b0232e804ec9fc067326dbcf92c82b6f960079e71ed",
      "hash": "5f1fc606c8b7c360c9334b0232e804ec9fc067326dbcf92c82b6f960079e71ed",
      "version": 2,
      "size": 226,
      "vsize": 226,
      "locktime": 1360933,
      "vin": [
        {
          "txid": "4dcbe7d41722e6e0107b16ceb650fbb08100144d6d69ceb3cf76366788e1dd77",
          "vout": 0,
          "scriptSig": {
            "asm": "3045022100acb207eae87152c6478794637d87d2851def0881a0f3bd7b8b920deff6b52b2c0220541b6e6199e4fcea55985d3a40a4f8e93e55ae6ba248d9d085aa80cc576f646b[ALL] 028bdfec2331b7fd347a1bfd4ec5fd8c884893868db5d20ddc65006339528ac636",
            "hex": "483045022100acb207eae87152c6478794637d87d2851def0881a0f3bd7b8b920deff6b52b2c0220541b6e6199e4fcea55985d3a40a4f8e93e55ae6ba248d9d085aa80cc576f646b0121028bdfec2331b7fd347a1bfd4ec5fd8c884893868db5d20ddc65006339528ac636"
          },
          "sequence": 4294967294
        }
      ],
      "vout": [
        {
          "value": 10.01000000,
          "n": 0,
          "scriptPubKey": {
            "asm": "OP_DUP OP_HASH160 8855e0849e9933b5a5ac0ef2986cabd927060cb6 OP_EQUALVERIFY OP_CHECKSIG",
            "hex": "76a9148855e0849e9933b5a5ac0ef2986cabd927060cb688ac",
            "reqSigs": 1,
            "type": "pubkeyhash",
            "addresses": [
              "LXeq39CU7wBCeFV1y5VD6pjiyCM2Cizr4t"
            ]
          }
        }, 
        {
          "value": 4.79035235,
          "n": 1,
          "scriptPubKey": {
            "asm": "OP_DUP OP_HASH160 3426da82cdf9ee1cdcba3b463bac1be19e5e33ab OP_EQUALVERIFY OP_CHECKSIG",
            "hex": "76a9143426da82cdf9ee1cdcba3b463bac1be19e5e33ab88ac",
            "reqSigs": 1,
            "type": "pubkeyhash",
            "addresses": [
              "LPyhwnEjW3mLmW4zvUF2JxtUUD4pzZjzNW"
            ]
          }
        }
      ],
      "hex": "020000000177dde188673676cfb3ce696d4d140081b0fb50b6ce167b10e0e62217d4e7cb4d000000006b483045022100acb207eae87152c6478794637d87d2851def0881a0f3bd7b8b920deff6b52b2c0220541b6e6199e4fcea55985d3a40a4f8e93e55ae6ba248d9d085aa80cc576f646b0121028bdfec2331b7fd347a1bfd4ec5fd8c884893868db5d20ddc65006339528ac636feffffff02400caa3b000000001976a9148855e0849e9933b5a5ac0ef2986cabd927060cb688ac637f8d1c000000001976a9143426da82cdf9ee1cdcba3b463bac1be19e5e33ab88ac25c41400"
    }
  ],
  "time": 1517501245,
  "mediantime": 1517500689,
  "nonce": 1029944658,
  "bits": "1a04088e",
  "difficulty": 4159490.835685156,
  "chainwork": "000000000000000000000000000000000000000000000035686499b01306f0c0",
  "previousblockhash": "4f512f0c369296e2bcfbf00dedc1021da01715682fca203cb5eb82615b3dbc14",
  "nextblockhash": "fa7c99500e2e9f9730d61dd7fcc07ed3bbe26cd500ad60321cabc4b844310a94"
}
