{
  "hash": "947004759285e926accb5164fc2fcf497d88e1887031c35c4fb7c4620b4c64bb",
  "confirmations": 3522,
  "strippedsize": 289,
  "size": 325,
  "weight": 1192,
  "height": 1357473,
  "version": 536870912,
  "versionHex": "20000000",
  "merkleroot": "e9beae0670cd0a57e4e0031e7245ec7256d0581ee515c270eda853e4a157bc24",
  "tx": [
    {
      "txid": "e9beae0670cd0a57e4e0031e7245ec7256d0581ee515c270eda853e4a157bc24",
      "hash": "39592da2c4c71907ef53b7825a00477854466e5ccb7fe9ff559151ca608971c9",
      "version": 1,
      "size": 244,
      "vsize": 217,
      "locktime": 0,
      "vin": [
        {
          "coinbase": "03a1b6140466b06b5a080205ec781b000000fabe6d6dfd6f1a9b480f82657aaf7b43cc510db030022c86f1111180f1f7d16dcf9aef1540000000000000000d2f6e6f64655374726174756d2f",
          "sequence": 0
        }
      ],
      "vout": [
        {
          "value": 25.00000000,
          "n": 0,
          "scriptPubKey": {
            "asm": "OP_DUP OP_HASH160 0c617fdb2ea42aed30a509595ee21ba3f6688db0 OP_EQUALVERIFY OP_CHECKSIG",
            "hex": "76a9140c617fdb2ea42aed30a509595ee21ba3f6688db088ac",
            "reqSigs": 1,
            "type": "pubkeyhash",
            "addresses": [
              "LLMRAtr3qBje2ySEa3CnZ55LA4TQMWnRY3"
            ]
          }
        }, 
        {
          "value": 0.00000000,
          "n": 1,
          "scriptPubKey": {
            "asm": "OP_RETURN aa21a9ede2f61c3f71d1defd3fa999dfa36953755c690689799962b48bebd836974e8cf9",
            "hex": "6a24aa21a9ede2f61c3f71d1defd3fa999dfa36953755c690689799962b48bebd836974e8cf9",
            "type": "nulldata"
          }
        }
      ],
      "hex": "010000000001010000000000000000000000000000000000000000000000000000000000000000ffffffff4c03a1b6140466b06b5a080205ec781b000000fabe6d6dfd6f1a9b480f82657aaf7b43cc510db030022c86f1111180f1f7d16dcf9aef1540000000000000000d2f6e6f64655374726174756d2f000000000200f90295000000001976a9140c617fdb2ea42aed30a509595ee21ba3f6688db088ac0000000000000000266a24aa21a9ede2f61c3f71d1defd3fa999dfa36953755c690689799962b48bebd836974e8cf90120000000000000000000000000000000000000000000000000000000000000000000000000"
    }
  ],
  "time": 1517006916,
  "mediantime": 1517006723,
  "nonce": 4288036509,
  "bits": "1a047f14",
  "difficulty": 3731199.183374282,
  "chainwork": "000000000000000000000000000000000000000000000032414dcb83f70f1774",
  "previousblockhash": "c22e62e7a4027a71164ed6b08e47d1cdf5095e30c4b40d1db2f40c13fe500f5a",
  "nextblockhash": "57168c92308032687c083f4d477b72b0eb639ca2992d43b5308e19425be36f5a"
}
