{
  "hash": "94f80b422c2a3d5603a935e93311bf373cf7734a92a9a62f1909dfa48e6e99cd",
  "confirmations": 357,
  "strippedsize": 234,
  "size": 234,
  "weight": 936,
  "height": 1360637,
  "version": 536870912,
  "versionHex": "20000000",
  "merkleroot": "fd5bf678ecb405d1f45c3841d9d26fb267788290fa2ff6f4a28e1d8b37431d6d",
  "tx": [
    {
      "txid": "fd5bf678ecb405d1f45c3841d9d26fb267788290fa2ff6f4a28e1d8b37431d6d",
      "hash": "fd5bf678ecb405d1f45c3841d9d26fb267788290fa2ff6f4a28e1d8b37431d6d",
      "version": 1,
      "size": 153,
      "vsize": 153,
      "locktime": 0,
      "vin": [
        {
          "coinbase": "03fdc214045a729c032cfabe6d6d17235617fd2117ee9286aa36840a8be9d6e726f85bec4b26f5c7fb292b3492ee4000000000000000042f4c502f082200a2b81e000000",
          "sequence": 4294967295
        }
      ],
      "vout": [
        {
          "value": 25.00000000,
          "n": 0,
          "scriptPubKey": {
            "asm": "OP_DUP OP_HASH160 57757ed2ecf2052ff3126c397aca7defb9ca2cec OP_EQUALVERIFY OP_CHECKSIG",
            "hex": "76a91457757ed2ecf2052ff3126c397aca7defb9ca2cec88ac",
            "reqSigs": 1,
            "type": "pubkeyhash",
            "addresses": [
              "LTCPodGk5FwcJaRzH9yKnwicxzFUbxp6tN"
            ]
          }
        }
      ],
      "hex": "01000000010000000000000000000000000000000000000000000000000000000000000000ffffffff4403fdc214045a729c032cfabe6d6d17235617fd2117ee9286aa36840a8be9d6e726f85bec4b26f5c7fb292b3492ee4000000000000000042f4c502f082200a2b81e000000ffffffff0100f90295000000001976a91457757ed2ecf2052ff3126c397aca7defb9ca2cec88ac00000000"
    }
  ],
  "time": 1517460483,
  "mediantime": 1517459871,
  "nonce": 563093456,
  "bits": "1a042eae",
  "difficulty": 4011378.762614286,
  "chainwork": "0000000000000000000000000000000000000000000000351ff0bd1b04173ffc",
  "previousblockhash": "bcf7bb8113f43d05aa7e1bc0fe47bc75d30fa0055ec4ad242560ded81b3b886f",
  "nextblockhash": "5c1fe5588139e2ab3e05479da1f45e1a3b478eac47c1605d16aaa1bb3f5cf743"
}
