{
  "hash": "94fa6743afee86523c53a1605f4696b558118ebd809934b04ab9d4f922fb3bef",
  "confirmations": 2944,
  "strippedsize": 256,
  "size": 256,
  "weight": 1024,
  "height": 1358051,
  "version": 536870912,
  "versionHex": "20000000",
  "merkleroot": "7cdc8f69e79f958fc4dd60c0be7c51cf86e50eb31bdd3b9880679405078abd13",
  "tx": [
    {
      "txid": "7cdc8f69e79f958fc4dd60c0be7c51cf86e50eb31bdd3b9880679405078abd13",
      "hash": "7cdc8f69e79f958fc4dd60c0be7c51cf86e50eb31bdd3b9880679405078abd13",
      "version": 1,
      "size": 175,
      "vsize": 175,
      "locktime": 0,
      "vin": [
        {
          "coinbase": "03e3b8141d4d696e656420627920416e74506f6f6c20626a302042205a6cd4ee1001fabe6d6d2a54b9e423aabc9542de30ecb43744ccba24acbe065e6e60935003c8d1c96a9b04000000000000001a0700000000000002000000",
          "sequence": 4294967295
        }
      ],
      "vout": [
        {
          "value": 25.00000000,
          "n": 0,
          "scriptPubKey": {
            "asm": "OP_DUP OP_HASH160 0ff3ccc5e8be88afe24b5d634e5852d474dbdff1 OP_EQUALVERIFY OP_CHECKSIG",
            "hex": "76a9140ff3ccc5e8be88afe24b5d634e5852d474dbdff188ac",
            "reqSigs": 1,
            "type": "pubkeyhash",
            "addresses": [
              "LLgJTbzZMsRTCUF1NtvvL9SR1a4pVieW89"
            ]
          }
        }
      ],
      "hex": "01000000010000000000000000000000000000000000000000000000000000000000000000ffffffff5a03e3b8141d4d696e656420627920416e74506f6f6c20626a302042205a6cd4ee1001fabe6d6d2a54b9e423aabc9542de30ecb43744ccba24acbe065e6e60935003c8d1c96a9b04000000000000001a0700000000000002000000ffffffff0100f90295000000001976a9140ff3ccc5e8be88afe24b5d634e5852d474dbdff188ac00000000"
    }
  ],
  "time": 1517081838,
  "mediantime": 1517081546,
  "nonce": 1797132937,
  "bits": "1a047f14",
  "difficulty": 3731199.183374282,
  "chainwork": "000000000000000000000000000000000000000000000032c1d9e8381149ca28",
  "previousblockhash": "32496db9a21315f2fea6ea35007cfe601d1a57af4f03b5bace28782fd8801f17",
  "nextblockhash": "85c5702cc0c9c8703c0cec7fe9c1c018891fcd1002faba872516ba64e2b1e8e0"
}
