{
  "hash": "9630bac44bb1a75b622cae13b75a75a864328f0d59876245dc96d4fa7408a04c",
  "confirmations": 3782,
  "strippedsize": 4468,
  "size": 4725,
  "weight": 18129,
  "height": 1357213,
  "version": 536870912,
  "versionHex": "20000000",
  "merkleroot": "0fd1367c5991348a61fa63e3acb8eb029ee2d2c341ccce21b37c595c253a3023",
  "tx": [
    {
      "txid": "f56b0d6747b91c12b79cb3d9e9362a413105663989449e8c47da815e53d98e31",
      "hash": "17c82d7606ba34bd8d567c1f594797e20f314d45b136e59991950ea5bfbb6cea",
      "version": 1,
      "size": 240,
      "vsize": 213,
      "locktime": 0,
      "vin": [
        {
          "coinbase": "039db51404a62e6b5a0801222cf30b000000fabe6d6d8e8fca5c4136e4c97797c26d0060be02c85e2283132b28cd61f0ac81ba073e7a4000000000000000092f4c54432e544f502f",
          "sequence": 0
        }
      ],
      "vout": [
        {
          "value": 25.01906764,
          "n": 0,
          "scriptPubKey": {
            "asm": "OP_DUP OP_HASH160 0c617fdb2ea42aed30a509595ee21ba3f6688db0 OP_EQUALVERIFY OP_CHECKSIG",
            "hex": "76a9140c617fdb2ea42aed30a509595ee21ba3f6688db088ac",
            "reqSigs": 1,
            "type": "pubkeyhash",
            "addresses": [
              "LLMRAtr3qBje2ySEa3CnZ55LA4TQMWnRY3"
            ]
          }
        }, 
        {
          "value": 0.00000000,
          "n": 1,
          "scriptPubKey": {
            "asm": "OP_RETURN aa21a9edc0469e69a8698b0bddeb17a626069a54e069b4f3f45607ab0a782571455aa85f",
            "hex": "6a24aa21a9edc0469e69a8698b0bddeb17a626069a54e069b4f3f45607ab0a782571455aa85f",
            "type": "nulldata"
          }
        }
      ],
      "hex": "010000000001010000000000000000000000000000000000000000000000000000000000000000ffffffff48039db51404a62e6b5a0801222cf30b000000fabe6d6d8e8fca5c4136e4c97797c26d0060be02c85e2283132b28cd61f0ac81ba073e7a4000000000000000092f4c54432e544f502f00000000024c112095000000001976a9140c617fdb2ea42aed30a509595ee21ba3f6688db088ac0000000000000000266a24aa21a9edc0469e69a8698b0bddeb17a626069a54e069b4f3f45607ab0a782571455aa85f0120000000000000000000000000000000000000000000000000000000000000000000000000"
    }, 
    {
      "txid": "ace114bf3e50092b7d32a4e5e208101edab60cfddf475bd2ce77ac0f38394c18",
      "hash": "ace114bf3e50092b7d32a4e5e208101edab60cfddf475bd2ce77ac0f38394c18",
      "version": 1,
      "size": 475,
      "vsize": 475,
      "locktime": 0,
      "vin": [
        {
          "txid": "8fa41dfce0446e9d3f702298b4656a6184b7dc25b8d09fc9fc0b2d7f215ac368",
          "vout": 0,
          "scriptSig": {
            "asm": "0 3045022100915adc15ae6b3600b5718331bb63d16eb568092ec6992f1665ecca9c88e9393d022040a0c98e9e5436eff2fc62bef34b0889ac182b524c67038ee51b4eddd01ac383[ALL] 3045022100953533aa1321f54b288a7c467916ee9e5df5d24ef1dd9b911171503a1dce1c5202200d1cea15a76c5ad82277792507ecd3111845f56bb0919237c84538e745a55103[ALL] 522102da4dc3dab89362754493696226965c0638c5cf398e22c1612b1c53ddef5e61592102cdefff05e963bdc51f50798036c0d72dc7af1c5028e43c5eb05394921103084a2103c592d6eac52ba40cfa340955af7e54daf6a6dffe241b9e9bcd18d749be1fdede53ae",
            "hex": "00483045022100915adc15ae6b3600b5718331bb63d16eb568092ec6992f1665ecca9c88e9393d022040a0c98e9e5436eff2fc62bef34b0889ac182b524c67038ee51b4eddd01ac38301483045022100953533aa1321f54b288a7c467916ee9e5df5d24ef1dd9b911171503a1dce1c5202200d1cea15a76c5ad82277792507ecd3111845f56bb0919237c84538e745a55103014c69522102da4dc3dab89362754493696226965c0638c5cf398e22c1612b1c53ddef5e61592102cdefff05e963bdc51f50798036c0d72dc7af1c5028e43c5eb05394921103084a2103c592d6eac52ba40cfa340955af7e54daf6a6dffe241b9e9bcd18d749be1fdede53ae"
          },
          "sequence": 4294967295
        }
      ],
      "vout": [
        {
          "value": 2.20412594,
          "n": 0,
          "scriptPubKey": {
            "asm": "OP_DUP OP_HASH160 f2af3ae4e8f8d1a625c9c32249df5276ef315f65 OP_EQUALVERIFY OP_CHECKSIG",
            "hex": "76a914f2af3ae4e8f8d1a625c9c32249df5276ef315f6588ac",
            "reqSigs": 1,
            "type": "pubkeyhash",
            "addresses": [
              "LhM9hqJiSPuZ9c2L6yxqsLmJZCmiMuaFbq"
            ]
          }
        }, 
        {
          "value": 2.01432109,
          "n": 1,
          "scriptPubKey": {
            "asm": "OP_HASH160 899d817dc279b6a8c0f26201a918db5cc82a4e02 OP_EQUAL",
            "hex": "a914899d817dc279b6a8c0f26201a918db5cc82a4e0287",
            "reqSigs": 1,
            "type": "scripthash",
            "addresses": [
              "MLSoVQbEhP8TnJi8zUx1x6AFo9BT9WGz9P"
            ]
          }
        }, 
        {
          "value": 3.00000000,
          "n": 2,
          "scriptPubKey": {
            "asm": "OP_DUP OP_HASH160 27b595eb67299e5f1fe802031b76ff77bd5d553b OP_EQUALVERIFY OP_CHECKSIG",
            "hex": "76a91427b595eb67299e5f1fe802031b76ff77bd5d553b88ac",
            "reqSigs": 1,
            "type": "pubkeyhash",
            "addresses": [
              "LNqv9V4k2z2KpJnAqm22ApmXPSEpV5Gw53"
            ]
          }
        }, 
        {
          "value": 0.86410627,
          "n": 3,
          "scriptPubKey": {
            "asm": "OP_DUP OP_HASH160 759968d5939e03f7fb2130345ba9fd3cfb2d7f1d OP_EQUALVERIFY OP_CHECKSIG",
            "hex": "76a914759968d5939e03f7fb2130345ba9fd3cfb2d7f1d88ac",
            "reqSigs": 1,
            "type": "pubkeyhash",
            "addresses": [
              "LVwm6jgaEeCda8oSDXmjZbwf6QurZ2hQm8"
            ]
          }
        }, 
        {
          "value": 1.97710670,
          "n": 4,
          "scriptPubKey": {
            "asm": "OP_DUP OP_HASH160 8a1d6be2116743f2d761e6b944a998c9b7f21bd0 OP_EQUALVERIFY OP_CHECKSIG",
            "hex": "76a9148a1d6be2116743f2d761e6b944a998c9b7f21bd088ac",
            "reqSigs": 1,
            "type": "pubkeyhash",
            "addresses": [
              "LXpEkvQV3H93ifhSV286iC9CRX1CVgfwBF"
            ]
          }
        }
      ],
      "hex": "010000000168c35a217f2d0bfcc99fd0b825dcb784616a65b49822703f9d6e44e0fc1da48f00000000fdfe0000483045022100915adc15ae6b3600b5718331bb63d16eb568092ec6992f1665ecca9c88e9393d022040a0c98e9e5436eff2fc62bef34b0889ac182b524c67038ee51b4eddd01ac38301483045022100953533aa1321f54b288a7c467916ee9e5df5d24ef1dd9b911171503a1dce1c5202200d1cea15a76c5ad82277792507ecd3111845f56bb0919237c84538e745a55103014c69522102da4dc3dab89362754493696226965c0638c5cf398e22c1612b1c53ddef5e61592102cdefff05e963bdc51f50798036c0d72dc7af1c5028e43c5eb05394921103084a2103c592d6eac52ba40cfa340955af7e54daf6a6dffe241b9e9bcd18d749be1fdede53aeffffffff05b23a230d000000001976a914f2af3ae4e8f8d1a625c9c32249df5276ef315f6588ac2d9c010c0000000017a914899d817dc279b6a8c0f26201a918db5cc82a4e028700a3e111000000001976a91427b595eb67299e5f1fe802031b76ff77bd5d553b88ac83852605000000001976a914759968d5939e03f7fb2130345ba9fd3cfb2d7f1d88ac4ed3c80b000000001976a9148a1d6be2116743f2d761e6b944a998c9b7f21bd088ac00000000"
    }, 
    {
      "txid": "87531f132ba76012babbe5d0be31bbb7edef8886de45071a324c4621038d5af7",
      "hash": "87531f132ba76012babbe5d0be31bbb7edef8886de45071a324c4621038d5af7",
      "version": 1,
      "size": 373,
      "vsize": 373,
      "locktime": 0,
      "vin": [
        {
          "txid": "7a0d1886009b0bde7627c778c86cfab7ed2e330b7a319cda54acdb48bfe8446a",
          "vout": 11,
          "scriptSig": {
            "asm": "304402202522bb3e8b42bf693c21b065601be81f96dc206a797155909fe1db096a818c9302202504d7e66228a84871a3f606f30c5aa535f6b3084206c31ba533dcdaa4a3d46e[ALL] 021e0d12fc0ae14fabd7aeaf2164f09f4f6f9d49928719d897639676f391b4b883",
            "hex": "47304402202522bb3e8b42bf693c21b065601be81f96dc206a797155909fe1db096a818c9302202504d7e66228a84871a3f606f30c5aa535f6b3084206c31ba533dcdaa4a3d46e0121021e0d12fc0ae14fabd7aeaf2164f09f4f6f9d49928719d897639676f391b4b883"
          },
          "sequence": 4294967295
        }, 
        {
          "txid": "f20785d68aaff98bd81f8291cacbe18f84c830a3463c287e5a672637cd3e0f95",
          "vout": 3,
          "scriptSig": {
            "asm": "3045022100fce80d3e22dedf95e83e75b69005ffabab9cbf89e37fc66f4f3605b5ca7fc7180220719a2ae6fd090e68a73224110501be07a38625b27e1e25ec1dad083ce90899e9[ALL] 021e0d12fc0ae14fabd7aeaf2164f09f4f6f9d49928719d897639676f391b4b883",
            "hex": "483045022100fce80d3e22dedf95e83e75b69005ffabab9cbf89e37fc66f4f3605b5ca7fc7180220719a2ae6fd090e68a73224110501be07a38625b27e1e25ec1dad083ce90899e90121021e0d12fc0ae14fabd7aeaf2164f09f4f6f9d49928719d897639676f391b4b883"
          },
          "sequence": 4294967295
        }
      ],
      "vout": [
        {
          "value": 0.34073855,
          "n": 0,
          "scriptPubKey": {
            "asm": "OP_DUP OP_HASH160 2fae2c6a23eecf1505c7536afa20ff7cb6dd482d OP_EQUALVERIFY OP_CHECKSIG",
            "hex": "76a9142fae2c6a23eecf1505c7536afa20ff7cb6dd482d88ac",
            "reqSigs": 1,
            "type": "pubkeyhash",
            "addresses": [
              "LPa4g1rkGN6C3Ngn54UXo78TDEc4q4ceZL"
            ]
          }
        }, 
        {
          "value": 0.17396800,
          "n": 1,
          "scriptPubKey": {
            "asm": "OP_DUP OP_HASH160 efa8183512670593cc27d05104da15352975ad02 OP_EQUALVERIFY OP_CHECKSIG",
            "hex": "76a914efa8183512670593cc27d05104da15352975ad0288ac",
            "reqSigs": 1,
            "type": "pubkeyhash",
            "addresses": [
              "Lh598UX1FGpQxhrBQSaRMN2ywk9Amr47mm"
            ]
          }
        }
      ],
      "hex": "01000000026a44e8bf48dbac54da9c317a0b332eedb7fa6cc878c72776de0b9b0086180d7a0b0000006a47304402202522bb3e8b42bf693c21b065601be81f96dc206a797155909fe1db096a818c9302202504d7e66228a84871a3f606f30c5aa535f6b3084206c31ba533dcdaa4a3d46e0121021e0d12fc0ae14fabd7aeaf2164f09f4f6f9d49928719d897639676f391b4b883ffffffff950f3ecd3726675a7e283c46a330c8848fe1cbca91821fd88bf9af8ad68507f2030000006b483045022100fce80d3e22dedf95e83e75b69005ffabab9cbf89e37fc66f4f3605b5ca7fc7180220719a2ae6fd090e68a73224110501be07a38625b27e1e25ec1dad083ce90899e90121021e0d12fc0ae14fabd7aeaf2164f09f4f6f9d49928719d897639676f391b4b883ffffffff02ffec0702000000001976a9142fae2c6a23eecf1505c7536afa20ff7cb6dd482d88ac40740901000000001976a914efa8183512670593cc27d05104da15352975ad0288ac00000000"
    }, 
    {
      "txid": "d00e4f0e8cc990f4862d6d012e7c3980a75aca68b057d26bc05ac42df0bbdccb",
      "hash": "d00e4f0e8cc990f4862d6d012e7c3980a75aca68b057d26bc05ac42df0bbdccb",
      "version": 2,
      "size": 225,
      "vsize": 225,
      "locktime": 0,
      "vin": [
        {
          "txid": "b2ce0f16a2d7b2f67eba0909a6bcdf772e82044b79c27866dde436cce0a8f22c",
          "vout": 4,
          "scriptSig": {
            "asm": "304402200797b18434af7d887ccf9437cb4c0a2e304b4342bbcf904f9c0a5d200575d2a502207e97daa9dd049f7753a3519f066c13fbab670cbeeb5bc51fb45c5c8c8e70dedf[ALL] 024905d50ddecc4e9cc95f598078551d9021dbdfd99207fed9ba771417d3d650a3",
            "hex": "47304402200797b18434af7d887ccf9437cb4c0a2e304b4342bbcf904f9c0a5d200575d2a502207e97daa9dd049f7753a3519f066c13fbab670cbeeb5bc51fb45c5c8c8e70dedf0121024905d50ddecc4e9cc95f598078551d9021dbdfd99207fed9ba771417d3d650a3"
          },
          "sequence": 4294967295
        }
      ],
      "vout": [
        {
          "value": 6.56232058,
          "n": 0,
          "scriptPubKey": {
            "asm": "OP_DUP OP_HASH160 bfa507c16e5d6fb885cc6c29e8bb0a0a092e1589 OP_EQUALVERIFY OP_CHECKSIG",
            "hex": "76a914bfa507c16e5d6fb885cc6c29e8bb0a0a092e158988ac",
            "reqSigs": 1,
            "type": "pubkeyhash",
            "addresses": [
              "LchH2MkT5jD2YG2WAt775YMDc4fhDDbyAk"
            ]
          }
        }, 
        {
          "value": 0.60314287,
          "n": 1,
          "scriptPubKey": {
            "asm": "OP_DUP OP_HASH160 6365a2c16e930e741bc6cbd2d3fd14d9f5655cce OP_EQUALVERIFY OP_CHECKSIG",
            "hex": "76a9146365a2c16e930e741bc6cbd2d3fd14d9f5655cce88ac",
            "reqSigs": 1,
            "type": "pubkeyhash",
            "addresses": [
              "LUHWuyr3DRcuQRRtqsdUJGzTq7YqhkpMAP"
            ]
          }
        }
      ],
      "hex": "02000000012cf2a8e0cc36e4dd6678c2794b04822e77dfbca60909ba7ef6b2d7a2160fceb2040000006a47304402200797b18434af7d887ccf9437cb4c0a2e304b4342bbcf904f9c0a5d200575d2a502207e97daa9dd049f7753a3519f066c13fbab670cbeeb5bc51fb45c5c8c8e70dedf0121024905d50ddecc4e9cc95f598078551d9021dbdfd99207fed9ba771417d3d650a3ffffffff027a4e1d27000000001976a914bfa507c16e5d6fb885cc6c29e8bb0a0a092e158988acaf529803000000001976a9146365a2c16e930e741bc6cbd2d3fd14d9f5655cce88ac00000000"
    }, 
    {
      "txid": "0e2edeea90b1ba2a7eb6557d176e530760c166651a521f05d7561763d6c2d1ad",
      "hash": "0e2edeea90b1ba2a7eb6557d176e530760c166651a521f05d7561763d6c2d1ad",
      "version": 2,
      "size": 475,
      "vsize": 475,
      "locktime": 1357211,
      "vin": [
        {
          "txid": "10d56d38ce05ccf4f0c74ab40f0f9256be5e44d306adf92e332f9fd76ae32dad",
          "vout": 2,
          "scriptSig": {
            "asm": "3044022052b075810f0c03577492d95327d6befe78a8e44b725e849df0b88bfb748827e0022043e94b3309cf208a5120651ddf4e74fe9a7dfc2c32f3f2809b054bd6b329c5d1[ALL] 02687e3d8ead2c2e346e3729599edf0f33665de133b95017f2fd5ed7ef0253c7a5",
            "hex": "473044022052b075810f0c03577492d95327d6befe78a8e44b725e849df0b88bfb748827e0022043e94b3309cf208a5120651ddf4e74fe9a7dfc2c32f3f2809b054bd6b329c5d1012102687e3d8ead2c2e346e3729599edf0f33665de133b95017f2fd5ed7ef0253c7a5"
          },
          "sequence": 4294967294
        }, 
        {
          "txid": "a0fd14e973983c03fa699e31c3bbb9608a9724e984f2fd30cd92e3b615f3ea89",
          "vout": 0,
          "scriptSig": {
            "asm": "3045022100c9f22d8a745152511745b1367ca7018775fb648a16b0427ac6a92169792db87d02202cef713e060ab260e8f5a62b568a65c06770869885fd048cf957090122f10a3d[ALL] 03e7b746a21f69d4b65f2942e78a81a0de4cdea73cb98c2aed959230714d911177",
            "hex": "483045022100c9f22d8a745152511745b1367ca7018775fb648a16b0427ac6a92169792db87d02202cef713e060ab260e8f5a62b568a65c06770869885fd048cf957090122f10a3d012103e7b746a21f69d4b65f2942e78a81a0de4cdea73cb98c2aed959230714d911177"
          },
          "sequence": 4294967294
        }
      ],
      "vout": [
        {
          "value": 0.23670000,
          "n": 0,
          "scriptPubKey": {
            "asm": "OP_DUP OP_HASH160 6f4ad359f091645d8eb4241e9fa31b8194cd9426 OP_EQUALVERIFY OP_CHECKSIG",
            "hex": "76a9146f4ad359f091645d8eb4241e9fa31b8194cd942688ac",
            "reqSigs": 1,
            "type": "pubkeyhash",
            "addresses": [
              "LVNQuUkyKS6WMjSsNXNfRP7XFPewwyWf4M"
            ]
          }
        }, 
        {
          "value": 0.93300000,
          "n": 1,
          "scriptPubKey": {
            "asm": "OP_DUP OP_HASH160 a0383dbefc6f4d741da7f525a5791c656a1b3892 OP_EQUALVERIFY OP_CHECKSIG",
            "hex": "76a914a0383dbefc6f4d741da7f525a5791c656a1b389288ac",
            "reqSigs": 1,
            "type": "pubkeyhash",
            "addresses": [
              "LZq7kcVCdg6yifvAdB9eitKuqjHQHgL22N"
            ]
          }
        }, 
        {
          "value": 6.00000000,
          "n": 2,
          "scriptPubKey": {
            "asm": "OP_DUP OP_HASH160 1fdef589885b2c7ae21276b6d39d083d880ee860 OP_EQUALVERIFY OP_CHECKSIG",
            "hex": "76a9141fdef589885b2c7ae21276b6d39d083d880ee86088ac",
            "reqSigs": 1,
            "type": "pubkeyhash",
            "addresses": [
              "LN8UJdbE8CjmEtiUFnx39opygfzet97KKy"
            ]
          }
        }, 
        {
          "value": 0.36380723,
          "n": 3,
          "scriptPubKey": {
            "asm": "OP_DUP OP_HASH160 67f6a77fd68ad11c5575c8d05c6b3e1621c7f555 OP_EQUALVERIFY OP_CHECKSIG",
            "hex": "76a91467f6a77fd68ad11c5575c8d05c6b3e1621c7f55588ac",
            "reqSigs": 1,
            "type": "pubkeyhash",
            "addresses": [
              "LUhfLp54RRtJNjr2H37uhHPUxdRtkoz88k"
            ]
          }
        }, 
        {
          "value": 0.84387920,
          "n": 4,
          "scriptPubKey": {
            "asm": "OP_DUP OP_HASH160 46837c40aedb6fc11ed5600d695f5922c4972c4b OP_EQUALVERIFY OP_CHECKSIG",
            "hex": "76a91446837c40aedb6fc11ed5600d695f5922c4972c4b88ac",
            "reqSigs": 1,
            "type": "pubkeyhash",
            "addresses": [
              "LReo5QQAT1EXrMesiiMFWRJH33WYHJXraH"
            ]
          }
        }
      ],
      "hex": "0200000002ad2de36ad79f2f332ef9ad06d3445ebe56920f0fb44ac7f0f4cc05ce386dd510020000006a473044022052b075810f0c03577492d95327d6befe78a8e44b725e849df0b88bfb748827e0022043e94b3309cf208a5120651ddf4e74fe9a7dfc2c32f3f2809b054bd6b329c5d1012102687e3d8ead2c2e346e3729599edf0f33665de133b95017f2fd5ed7ef0253c7a5feffffff89eaf315b6e392cd30fdf284e924978a60b9bbc3319e69fa033c9873e914fda0000000006b483045022100c9f22d8a745152511745b1367ca7018775fb648a16b0427ac6a92169792db87d02202cef713e060ab260e8f5a62b568a65c06770869885fd048cf957090122f10a3d012103e7b746a21f69d4b65f2942e78a81a0de4cdea73cb98c2aed959230714d911177feffffff05f02c6901000000001976a9146f4ad359f091645d8eb4241e9fa31b8194cd942688ac20a58f05000000001976a914a0383dbefc6f4d741da7f525a5791c656a1b389288ac0046c323000000001976a9141fdef589885b2c7ae21276b6d39d083d880ee86088ac33202b02000000001976a91467f6a77fd68ad11c5575c8d05c6b3e1621c7f55588ac50a80705000000001976a91446837c40aedb6fc11ed5600d695f5922c4972c4b88ac9bb51400"
    }, 
    {
      "txid": "4d5844d702b34f2897725c24420deaa0e7de4df2193087e7b1e2e2e660234647",
      "hash": "303217f971867ff91dfb8fa1583f590cc4fd9d853c84db2825b91c597aaa3190",
      "version": 1,
      "size": 373,
      "vsize": 208,
      "locktime": 0,
      "vin": [
        {
          "txid": "a28a18b260ab08779ce5f1c1ed7e83f010aad8502fd3ec50c979bc2009e65ffa",
          "vout": 1,
          "scriptSig": {
            "asm": "0020409fd93c7351b461fa46963fa28755038f397ee054ab9e56eda0b1081d768cc4",
            "hex": "220020409fd93c7351b461fa46963fa28755038f397ee054ab9e56eda0b1081d768cc4"
          },
          "txinwitness": [
            "", 
            "3044022029b7149310fba77c0e0b65c529e0f4d7ffd425eb02f0a69b5fe7e9f85758fdef022075e31792292de93a2ae1b0f8f43fdda082752921a6e527fa243a6eb06a2d9a5b01", 
            "3045022100fa2cbe76ef7ff598dcd3786ede69f8879d40ce69d6d9f5017a49ae671ad44fec02202d3d7d7a3c4be7c1a71a591e6357cd8e90140988d85f92250ead0f27bd5cf7ef01", 
            "522103ceb293b39e087131961da42b3deaef48432d57a08bfd111247901be2936525b32103fa185b0d6c2a6d812d1a9418c54b3cea527d229a73a0c6c72345a1851ebcdad352ae"
          ],
          "sequence": 4294967295
        }
      ],
      "vout": [
        {
          "value": 0.01041700,
          "n": 0,
          "scriptPubKey": {
            "asm": "OP_DUP OP_HASH160 9dea857fd9d3d5d3713bc70d284ed9bbc5cb8fe9 OP_EQUALVERIFY OP_CHECKSIG",
            "hex": "76a9149dea857fd9d3d5d3713bc70d284ed9bbc5cb8fe988ac",
            "reqSigs": 1,
            "type": "pubkeyhash",
            "addresses": [
              "LZcwJAjXzAtGuWHabZYFH3RRszfMYBX3mn"
            ]
          }
        }, 
        {
          "value": 0.03728100,
          "n": 1,
          "scriptPubKey": {
            "asm": "OP_HASH160 2d9ba1f1c217fd18a576b17eaf8a1c6f1cd2f1de OP_EQUAL",
            "hex": "a9142d9ba1f1c217fd18a576b17eaf8a1c6f1cd2f1de87",
            "reqSigs": 1,
            "type": "scripthash",
            "addresses": [
              "MC4K5c2x6rcVohDBLrLNQRsqL5atuzztot"
            ]
          }
        }
      ],
      "hex": "01000000000101fa5fe60920bc79c950ecd32f50d8aa10f0837eedc1f1e59c7708ab60b2188aa20100000023220020409fd93c7351b461fa46963fa28755038f397ee054ab9e56eda0b1081d768cc4ffffffff0224e50f00000000001976a9149dea857fd9d3d5d3713bc70d284ed9bbc5cb8fe988ace4e238000000000017a9142d9ba1f1c217fd18a576b17eaf8a1c6f1cd2f1de870400473044022029b7149310fba77c0e0b65c529e0f4d7ffd425eb02f0a69b5fe7e9f85758fdef022075e31792292de93a2ae1b0f8f43fdda082752921a6e527fa243a6eb06a2d9a5b01483045022100fa2cbe76ef7ff598dcd3786ede69f8879d40ce69d6d9f5017a49ae671ad44fec02202d3d7d7a3c4be7c1a71a591e6357cd8e90140988d85f92250ead0f27bd5cf7ef0147522103ceb293b39e087131961da42b3deaef48432d57a08bfd111247901be2936525b32103fa185b0d6c2a6d812d1a9418c54b3cea527d229a73a0c6c72345a1851ebcdad352ae00000000"
    }, 
    {
      "txid": "7ce14b6539e2b02b0c1a2a3d9508beb5ac659f949940d93b0652f44dfcce3657",
      "hash": "7ce14b6539e2b02b0c1a2a3d9508beb5ac659f949940d93b0652f44dfcce3657",
      "version": 1,
      "size": 225,
      "vsize": 225,
      "locktime": 0,
      "vin": [
        {
          "txid": "cd4d0698d0e7f62c7560212b583a42cc693f8d35ac8a998ccaf9309af5402ec9",
          "vout": 1,
          "scriptSig": {
            "asm": "3044022041291a5306c25ff3e13e4c906d4327dcfdcf8d4bc4956bc59da446ae7b22d82702203a4f41011b40059fbbac2de1faf1e5443e1383dde596c9ad1c50d10b26fac58a[ALL] 0349ded1d3474af84af8b0c4f77298bbb8cf752cbe38cc70a0343be694c8023a88",
            "hex": "473044022041291a5306c25ff3e13e4c906d4327dcfdcf8d4bc4956bc59da446ae7b22d82702203a4f41011b40059fbbac2de1faf1e5443e1383dde596c9ad1c50d10b26fac58a01210349ded1d3474af84af8b0c4f77298bbb8cf752cbe38cc70a0343be694c8023a88"
          },
          "sequence": 4294967295
        }
      ],
      "vout": [
        {
          "value": 0.57971014,
          "n": 0,
          "scriptPubKey": {
            "asm": "OP_DUP OP_HASH160 162f954d947f7bba502bdf14196f99a27085626e OP_EQUALVERIFY OP_CHECKSIG",
            "hex": "76a914162f954d947f7bba502bdf14196f99a27085626e88ac",
            "reqSigs": 1,
            "type": "pubkeyhash",
            "addresses": [
              "LMFG8aBuLCg1KssQTfhgrtB6upTeB6ZDPx"
            ]
          }
        }, 
        {
          "value": 71.36192180,
          "n": 1,
          "scriptPubKey": {
            "asm": "OP_DUP OP_HASH160 3c9efcf2bcfa550caa38d3849830efd7c5865420 OP_EQUALVERIFY OP_CHECKSIG",
            "hex": "76a9143c9efcf2bcfa550caa38d3849830efd7c586542088ac",
            "reqSigs": 1,
            "type": "pubkeyhash",
            "addresses": [
              "LQkVGQdWVLHF7ViTGrQ241t35u3zMEa8Qf"
            ]
          }
        }
      ],
      "hex": "0100000001c92e40f59a30f9ca8c998aac358d3f69cc423a582b2160752cf6e7d098064dcd010000006a473044022041291a5306c25ff3e13e4c906d4327dcfdcf8d4bc4956bc59da446ae7b22d82702203a4f41011b40059fbbac2de1faf1e5443e1383dde596c9ad1c50d10b26fac58a01210349ded1d3474af84af8b0c4f77298bbb8cf752cbe38cc70a0343be694c8023a88ffffffff0246917403000000001976a914162f954d947f7bba502bdf14196f99a27085626e88acb4a659a9010000001976a9143c9efcf2bcfa550caa38d3849830efd7c586542088ac00000000"
    }, 
    {
      "txid": "0d373c1f00be772773a35dd5ca29489ad1434551a18020b4960b88b6a04a799b",
      "hash": "0d373c1f00be772773a35dd5ca29489ad1434551a18020b4960b88b6a04a799b",
      "version": 2,
      "size": 225,
      "vsize": 225,
      "locktime": 1357211,
      "vin": [
        {
          "txid": "21c467f851f28b4cfcd284cd25348d7fa0aabc9d0dfbd858f81a1b8cad144471",
          "vout": 0,
          "scriptSig": {
            "asm": "3044022033cd04a9242ae7db23305058c73aaf5a9461b2dd2f1ff70165957921bde0719102206a20a9b63d3c11e08b673d92984a0a290f620073095a748b0cd74a1ed103358d[ALL] 03e5852423990d20ef4a2daf9f4bd8dc8e10daba4c95e4a490be1ccb29b47fa441",
            "hex": "473044022033cd04a9242ae7db23305058c73aaf5a9461b2dd2f1ff70165957921bde0719102206a20a9b63d3c11e08b673d92984a0a290f620073095a748b0cd74a1ed103358d012103e5852423990d20ef4a2daf9f4bd8dc8e10daba4c95e4a490be1ccb29b47fa441"
          },
          "sequence": 4294967294
        }
      ],
      "vout": [
        {
          "value": 0.01280600,
          "n": 0,
          "scriptPubKey": {
            "asm": "OP_DUP OP_HASH160 a5c57778a45e1f464f03c1712d6876224f086dd3 OP_EQUALVERIFY OP_CHECKSIG",
            "hex": "76a914a5c57778a45e1f464f03c1712d6876224f086dd388ac",
            "reqSigs": 1,
            "type": "pubkeyhash",
            "addresses": [
              "LaLUK6DjpsR7hVAZ4R1Ey7Zpdf7HkKWCkP"
            ]
          }
        }, 
        {
          "value": 0.01698100,
          "n": 1,
          "scriptPubKey": {
            "asm": "OP_DUP OP_HASH160 b36beff85b0b6e2a37664f322fcd67716546ea42 OP_EQUALVERIFY OP_CHECKSIG",
            "hex": "76a914b36beff85b0b6e2a37664f322fcd67716546ea4288ac",
            "reqSigs": 1,
            "type": "pubkeyhash",
            "addresses": [
              "LbaeXAuHRexJaEAcAbQDHKaEzhYyuLrB5r"
            ]
          }
        }
      ],
      "hex": "0200000001714414ad8c1b1af858d8fb0d9dbcaaa07f8d3425cd84d2fc4c8bf251f867c421000000006a473044022033cd04a9242ae7db23305058c73aaf5a9461b2dd2f1ff70165957921bde0719102206a20a9b63d3c11e08b673d92984a0a290f620073095a748b0cd74a1ed103358d012103e5852423990d20ef4a2daf9f4bd8dc8e10daba4c95e4a490be1ccb29b47fa441feffffff02588a1300000000001976a914a5c57778a45e1f464f03c1712d6876224f086dd388ac34e91900000000001976a914b36beff85b0b6e2a37664f322fcd67716546ea4288ac9bb51400"
    }, 
    {
      "txid": "d894d58613badf10be4319c25434bc0241a8079a7b40caf1baad0f0de0dd4bc6",
      "hash": "d894d58613badf10be4319c25434bc0241a8079a7b40caf1baad0f0de0dd4bc6",
      "version": 2,
      "size": 225,
      "vsize": 225,
      "locktime": 1357177,
      "vin": [
        {
          "txid": "3093d3e5f7cc7d1b5993c5c8378b0d3c546aabf5f95ede2e1b249a8bc96119f7",
          "vout": 0,
          "scriptSig": {
            "asm": "30440220668618e1eec40d3f546630cf6fd4e5fa25ab558ab9d1a2bb4208e37b7144692102203f2c85b0483227ca211fefa9d90d2ddf7934b7d6b0021e143809c0978ff95c83[ALL] 0261637a20425d1591aa5dfaab89311cba3e160eaf5f2bde6d12ce94b901b423df",
            "hex": "4730440220668618e1eec40d3f546630cf6fd4e5fa25ab558ab9d1a2bb4208e37b7144692102203f2c85b0483227ca211fefa9d90d2ddf7934b7d6b0021e143809c0978ff95c8301210261637a20425d1591aa5dfaab89311cba3e160eaf5f2bde6d12ce94b901b423df"
          },
          "sequence": 4294967294
        }
      ],
      "vout": [
        {
          "value": 5.73138933,
          "n": 0,
          "scriptPubKey": {
            "asm": "OP_DUP OP_HASH160 7675f1a15f17c477d121707a8b6a761cd9ba19a3 OP_EQUALVERIFY OP_CHECKSIG",
            "hex": "76a9147675f1a15f17c477d121707a8b6a761cd9ba19a388ac",
            "reqSigs": 1,
            "type": "pubkeyhash",
            "addresses": [
              "LW2KHjSuyzQkWKMSMUmc21P5Tv7YiviwBP"
            ]
          }
        }, 
        {
          "value": 401.71498840,
          "n": 1,
          "scriptPubKey": {
            "asm": "OP_DUP OP_HASH160 59deadde2f46cb9d051a324cc0820975a0112aa6 OP_EQUALVERIFY OP_CHECKSIG",
            "hex": "76a91459deadde2f46cb9d051a324cc0820975a0112aa688ac",
            "reqSigs": 1,
            "type": "pubkeyhash",
            "addresses": [
              "LTR9AJhe1Drdz2hvgkir5XZfhqQS13xmxo"
            ]
          }
        }
      ],
      "hex": "0200000001f71961c98b9a241b2ede5ef9f5ab6a543c0d8b37c8c593591b7dccf7e5d39330000000006a4730440220668618e1eec40d3f546630cf6fd4e5fa25ab558ab9d1a2bb4208e37b7144692102203f2c85b0483227ca211fefa9d90d2ddf7934b7d6b0021e143809c0978ff95c8301210261637a20425d1591aa5dfaab89311cba3e160eaf5f2bde6d12ce94b901b423dffeffffff02f5672922000000001976a9147675f1a15f17c477d121707a8b6a761cd9ba19a388ac586d685a090000001976a91459deadde2f46cb9d051a324cc0820975a0112aa688ac79b51400"
    }, 
    {
      "txid": "43e9e3627dc970918daa688eb34a0721109a4eb4a1def7a9c357e790e0cc9312",
      "hash": "43e9e3627dc970918daa688eb34a0721109a4eb4a1def7a9c357e790e0cc9312",
      "version": 1,
      "size": 226,
      "vsize": 226,
      "locktime": 0,
      "vin": [
        {
          "txid": "e1c06a6efba70445f41345a571be0a30c3185dc424f4105d3bd83dfe9e27ca9a",
          "vout": 0,
          "scriptSig": {
            "asm": "3045022100f54d3d574879ba46b1d8ac2cf468c7938146713d30c2599eceb91c64d6c5db98022064df5debc0be0f4df8ea66010a5ce8dffb87c43727e879ee1f4985da75f0775a[ALL] 0222e7cf561ad6f71a4cebf5d7a784a72f4ade169668e588b8cfb9814ef1d84c10",
            "hex": "483045022100f54d3d574879ba46b1d8ac2cf468c7938146713d30c2599eceb91c64d6c5db98022064df5debc0be0f4df8ea66010a5ce8dffb87c43727e879ee1f4985da75f0775a01210222e7cf561ad6f71a4cebf5d7a784a72f4ade169668e588b8cfb9814ef1d84c10"
          },
          "sequence": 4294967295
        }
      ],
      "vout": [
        {
          "value": 0.50245712,
          "n": 0,
          "scriptPubKey": {
            "asm": "OP_DUP OP_HASH160 ea7116aca1b4d47a6a5159dd7e22945704c02484 OP_EQUALVERIFY OP_CHECKSIG",
            "hex": "76a914ea7116aca1b4d47a6a5159dd7e22945704c0248488ac",
            "reqSigs": 1,
            "type": "pubkeyhash",
            "addresses": [
              "LgbZrdfodUYAVbqkv37DJamjWXYUkmZsx9"
            ]
          }
        }, 
        {
          "value": 72.31280958,
          "n": 1,
          "scriptPubKey": {
            "asm": "OP_DUP OP_HASH160 bda4d3604a73758d3d52eb7ee19f567bd4cfc9ad OP_EQUALVERIFY OP_CHECKSIG",
            "hex": "76a914bda4d3604a73758d3d52eb7ee19f567bd4cfc9ad88ac",
            "reqSigs": 1,
            "type": "pubkeyhash",
            "addresses": [
              "LcWhRkwyiogmgvGRpBLqtg47cbfRL1bQzQ"
            ]
          }
        }
      ],
      "hex": "01000000019aca279efe3dd83b5d10f424c45d18c3300abe71a54513f44504a7fb6e6ac0e1000000006b483045022100f54d3d574879ba46b1d8ac2cf468c7938146713d30c2599eceb91c64d6c5db98022064df5debc0be0f4df8ea66010a5ce8dffb87c43727e879ee1f4985da75f0775a01210222e7cf561ad6f71a4cebf5d7a784a72f4ade169668e588b8cfb9814ef1d84c10ffffffff0250b0fe02000000001976a914ea7116aca1b4d47a6a5159dd7e22945704c0248488ac3e9704af010000001976a914bda4d3604a73758d3d52eb7ee19f567bd4cfc9ad88ac00000000"
    }, 
    {
      "txid": "6436efc1524eed61261b4fe4a6b18ccf336280061f22e1480ab74adf52a87f2d",
      "hash": "6436efc1524eed61261b4fe4a6b18ccf336280061f22e1480ab74adf52a87f2d",
      "version": 1,
      "size": 226,
      "vsize": 226,
      "locktime": 0,
      "vin": [
        {
          "txid": "41444924ab80fa7b42896ed91714d5be57a9c6d24e2b2a15b93a3d242cb02edf",
          "vout": 0,
          "scriptSig": {
            "asm": "3045022100e0a1f4943a9b6c384f86a5a2f6ea695a16164349efa0adcf33bf73a5e523369602201d390d136af0d73a9a70a07c3a9910f3ceb8b63fc83a69b327c5381d3292b337[ALL] 02e19ad3ca49e8969a0cf47001ea2914ae1d4c6d9cd9553240ff812e249eb111ba",
            "hex": "483045022100e0a1f4943a9b6c384f86a5a2f6ea695a16164349efa0adcf33bf73a5e523369602201d390d136af0d73a9a70a07c3a9910f3ceb8b63fc83a69b327c5381d3292b337012102e19ad3ca49e8969a0cf47001ea2914ae1d4c6d9cd9553240ff812e249eb111ba"
          },
          "sequence": 4294967295
        }
      ],
      "vout": [
        {
          "value": 0.08195375,
          "n": 0,
          "scriptPubKey": {
            "asm": "OP_DUP OP_HASH160 64436d43fe65aa7dc4ae2bcb45b6209314c28347 OP_EQUALVERIFY OP_CHECKSIG",
            "hex": "76a91464436d43fe65aa7dc4ae2bcb45b6209314c2834788ac",
            "reqSigs": 1,
            "type": "pubkeyhash",
            "addresses": [
              "LUN6cHymXPVG9A4kdPGBMG6vU95sxQAJP1"
            ]
          }
        }, 
        {
          "value": 0.00055139,
          "n": 1,
          "scriptPubKey": {
            "asm": "OP_DUP OP_HASH160 955633234eaec7972055458d78c21dd5be2274f5 OP_EQUALVERIFY OP_CHECKSIG",
            "hex": "76a914955633234eaec7972055458d78c21dd5be2274f588ac",
            "reqSigs": 1,
            "type": "pubkeyhash",
            "addresses": [
              "LYqaD4Rjys7R2KWw42v6xDqkekxdGKtAGp"
            ]
          }
        }
      ],
      "hex": "0100000001df2eb02c243d3ab9152a2b4ed2c6a957bed51417d96e89427bfa80ab24494441000000006b483045022100e0a1f4943a9b6c384f86a5a2f6ea695a16164349efa0adcf33bf73a5e523369602201d390d136af0d73a9a70a07c3a9910f3ceb8b63fc83a69b327c5381d3292b337012102e19ad3ca49e8969a0cf47001ea2914ae1d4c6d9cd9553240ff812e249eb111baffffffff022f0d7d00000000001976a91464436d43fe65aa7dc4ae2bcb45b6209314c2834788ac63d70000000000001976a914955633234eaec7972055458d78c21dd5be2274f588ac00000000"
    }, 
    {
      "txid": "6592c7bf6b2157365f899bcbdce3dfe7cd4f3f6294cdd8efe587954d157c565a",
      "hash": "6592c7bf6b2157365f899bcbdce3dfe7cd4f3f6294cdd8efe587954d157c565a",
      "version": 1,
      "size": 226,
      "vsize": 226,
      "locktime": 0,
      "vin": [
        {
          "txid": "e5af4482965a9f2360e8d41b413706952571d0e011709e36170c30294bbabce6",
          "vout": 0,
          "scriptSig": {
            "asm": "3045022100a7ce618d4dec312d06e5715e0307583d093b972a80652ddf2f1b812be5af5ff902200d4173f0a06013180f43faad0f78acee0867c7224b586cde60fa4962965f3be0[ALL] 02c7f4e326e4744fe3db59848bd072fe4a04953b59ff3015df58dd72f14bee9e8f",
            "hex": "483045022100a7ce618d4dec312d06e5715e0307583d093b972a80652ddf2f1b812be5af5ff902200d4173f0a06013180f43faad0f78acee0867c7224b586cde60fa4962965f3be0012102c7f4e326e4744fe3db59848bd072fe4a04953b59ff3015df58dd72f14bee9e8f"
          },
          "sequence": 4294967295
        }
      ],
      "vout": [
        {
          "value": 51.08326899,
          "n": 0,
          "scriptPubKey": {
            "asm": "OP_DUP OP_HASH160 6165545a27c3560460726af2d9301817308bf672 OP_EQUALVERIFY OP_CHECKSIG",
            "hex": "76a9146165545a27c3560460726af2d9301817308bf67288ac",
            "reqSigs": 1,
            "type": "pubkeyhash",
            "addresses": [
              "LU6wCKNzMFvs2T6rKsh7BjzMHEtu5VfAnz"
            ]
          }
        }, 
        {
          "value": 19.45797835,
          "n": 1,
          "scriptPubKey": {
            "asm": "OP_DUP OP_HASH160 ac29690bddf4217a29c1eb47841c52d8fccf0db5 OP_EQUALVERIFY OP_CHECKSIG",
            "hex": "76a914ac29690bddf4217a29c1eb47841c52d8fccf0db588ac",
            "reqSigs": 1,
            "type": "pubkeyhash",
            "addresses": [
              "LavG6Sy678CxZStRDmVhE3xKcuMKgoxxaT"
            ]
          }
        }
      ],
      "hex": "0100000001e6bcba4b29300c17369e7011e0d07125950637411bd4e860239f5a968244afe5000000006b483045022100a7ce618d4dec312d06e5715e0307583d093b972a80652ddf2f1b812be5af5ff902200d4173f0a06013180f43faad0f78acee0867c7224b586cde60fa4962965f3be0012102c7f4e326e4744fe3db59848bd072fe4a04953b59ff3015df58dd72f14bee9e8fffffffff02f3e17a30010000001976a9146165545a27c3560460726af2d9301817308bf67288accb84fa73000000001976a914ac29690bddf4217a29c1eb47841c52d8fccf0db588ac00000000"
    }, 
    {
      "txid": "0a385ef17df6283c5159230b941aa3c241479921a080ea4c166016f4c65a3c71",
      "hash": "0a385ef17df6283c5159230b941aa3c241479921a080ea4c166016f4c65a3c71",
      "version": 1,
      "size": 226,
      "vsize": 226,
      "locktime": 0,
      "vin": [
        {
          "txid": "99157f86cd6a8e72bfe7d4d29b877ecb44541c4e7939b5e8197bf4bb99dc3fc4",
          "vout": 0,
          "scriptSig": {
            "asm": "30450221009964d7b84f0fd182d348c04e41da7b7863de40e4b67424eeebaf10f701f8a349022067057abe491d83fdf4adb86e07509347e50aaef58447a4183c9d60c96d325202[ALL] 037ab806087e49c0e0c5f04df9377dd3228f2f277ec02b9c7d9f1e776ee10e8db5",
            "hex": "4830450221009964d7b84f0fd182d348c04e41da7b7863de40e4b67424eeebaf10f701f8a349022067057abe491d83fdf4adb86e07509347e50aaef58447a4183c9d60c96d3252020121037ab806087e49c0e0c5f04df9377dd3228f2f277ec02b9c7d9f1e776ee10e8db5"
          },
          "sequence": 4294967295
        }
      ],
      "vout": [
        {
          "value": 0.07068730,
          "n": 0,
          "scriptPubKey": {
            "asm": "OP_DUP OP_HASH160 3af334afe11a30cff8e5bb082460146f2930a812 OP_EQUALVERIFY OP_CHECKSIG",
            "hex": "76a9143af334afe11a30cff8e5bb082460146f2930a81288ac",
            "reqSigs": 1,
            "type": "pubkeyhash",
            "addresses": [
              "LQbeoaJbTcu14pUSoFWzz4YaFVcL4EyTbT"
            ]
          }
        }, 
        {
          "value": 0.00055141,
          "n": 1,
          "scriptPubKey": {
            "asm": "OP_DUP OP_HASH160 322b2cded2be2c6141283a3e6be0b0b2b77a8c27 OP_EQUALVERIFY OP_CHECKSIG",
            "hex": "76a914322b2cded2be2c6141283a3e6be0b0b2b77a8c2788ac",
            "reqSigs": 1,
            "type": "pubkeyhash",
            "addresses": [
              "LPoDmg7jmhYmLFNiErrFnzL8AXxDvr8D27"
            ]
          }
        }
      ],
      "hex": "0100000001c43fdc99bbf47b19e8b539794e1c5444cb7e879bd2d4e7bf728e6acd867f1599000000006b4830450221009964d7b84f0fd182d348c04e41da7b7863de40e4b67424eeebaf10f701f8a349022067057abe491d83fdf4adb86e07509347e50aaef58447a4183c9d60c96d3252020121037ab806087e49c0e0c5f04df9377dd3228f2f277ec02b9c7d9f1e776ee10e8db5ffffffff023adc6b00000000001976a9143af334afe11a30cff8e5bb082460146f2930a81288ac65d70000000000001976a914322b2cded2be2c6141283a3e6be0b0b2b77a8c2788ac00000000"
    }, 
    {
      "txid": "d16dfa0841b432825a40ccd5f2c3a0bd4cf5e2d3913a0665048b5103530ac971",
      "hash": "d16dfa0841b432825a40ccd5f2c3a0bd4cf5e2d3913a0665048b5103530ac971",
      "version": 1,
      "size": 226,
      "vsize": 226,
      "locktime": 0,
      "vin": [
        {
          "txid": "68c5bcc409cf21791c76933b56e7fd27e521e4305c7ddf828aece2bd208f3482",
          "vout": 1,
          "scriptSig": {
            "asm": "3045022100e0069e03aeb56610a47401c5cac168bff142d47469eb97dc4610d7c97e00e6510220395638cc93acd9887743970982466a770231d888b34773dfdf3d6b0b7c38bf48[ALL] 03cf29b6180aa214552c6ae19f333e17e52880bddbd6c74620a4f8f5e914e6c0a0",
            "hex": "483045022100e0069e03aeb56610a47401c5cac168bff142d47469eb97dc4610d7c97e00e6510220395638cc93acd9887743970982466a770231d888b34773dfdf3d6b0b7c38bf48012103cf29b6180aa214552c6ae19f333e17e52880bddbd6c74620a4f8f5e914e6c0a0"
          },
          "sequence": 4294967295
        }
      ],
      "vout": [
        {
          "value": 0.00064972,
          "n": 0,
          "scriptPubKey": {
            "asm": "OP_DUP OP_HASH160 9f89b15738b1f90172d618f70b1d9b161aaf5f68 OP_EQUALVERIFY OP_CHECKSIG",
            "hex": "76a9149f89b15738b1f90172d618f70b1d9b161aaf5f6888ac",
            "reqSigs": 1,
            "type": "pubkeyhash",
            "addresses": [
              "LZmWemo8CVkHK7VKnxaBU3Y1FCsSus8TJ8"
            ]
          }
        }, 
        {
          "value": 0.00477400,
          "n": 1,
          "scriptPubKey": {
            "asm": "OP_DUP OP_HASH160 09ac3a2795799d70647bd18636bf705363bc7a35 OP_EQUALVERIFY OP_CHECKSIG",
            "hex": "76a91409ac3a2795799d70647bd18636bf705363bc7a3588ac",
            "reqSigs": 1,
            "type": "pubkeyhash",
            "addresses": [
              "LL76fVY3VSEDzhcfMZE9P7XJE9pazJBxQg"
            ]
          }
        }
      ],
      "hex": "010000000182348f20bde2ec8a82df7d5c30e421e527fde7563b93761c7921cf09c4bcc568010000006b483045022100e0069e03aeb56610a47401c5cac168bff142d47469eb97dc4610d7c97e00e6510220395638cc93acd9887743970982466a770231d888b34773dfdf3d6b0b7c38bf48012103cf29b6180aa214552c6ae19f333e17e52880bddbd6c74620a4f8f5e914e6c0a0ffffffff02ccfd0000000000001976a9149f89b15738b1f90172d618f70b1d9b161aaf5f6888acd8480700000000001976a91409ac3a2795799d70647bd18636bf705363bc7a3588ac00000000"
    }, 
    {
      "txid": "ea61e1d793ea82df8134e8dcbd55abd75aba7c63931da630dc914d1887357183",
      "hash": "ea61e1d793ea82df8134e8dcbd55abd75aba7c63931da630dc914d1887357183",
      "version": 1,
      "size": 226,
      "vsize": 226,
      "locktime": 0,
      "vin": [
        {
          "txid": "1b34961236e7e83faba160eb51940f759eac9d07ca0768c98944ed50528219e2",
          "vout": 1,
          "scriptSig": {
            "asm": "3045022100f585b6f69f7b91706061010f8218eee616dbbeff49cbc9e4a3a6dccc3c94077c02204a5dfd6a9e09ad16e7ea74cac4443fdade211723775c9fe1b9684d92dfcdf060[ALL] 02de7cf99ae1d6a0c71315118970c94cd0f934b72196ab4b2c48a130acba5d8ef4",
            "hex": "483045022100f585b6f69f7b91706061010f8218eee616dbbeff49cbc9e4a3a6dccc3c94077c02204a5dfd6a9e09ad16e7ea74cac4443fdade211723775c9fe1b9684d92dfcdf060012102de7cf99ae1d6a0c71315118970c94cd0f934b72196ab4b2c48a130acba5d8ef4"
          },
          "sequence": 4294967295
        }
      ],
      "vout": [
        {
          "value": 0.00823165,
          "n": 0,
          "scriptPubKey": {
            "asm": "OP_DUP OP_HASH160 29a9d1f1eeccc839354078bdd85faf4609e0bf52 OP_EQUALVERIFY OP_CHECKSIG",
            "hex": "76a91429a9d1f1eeccc839354078bdd85faf4609e0bf5288ac",
            "reqSigs": 1,
            "type": "pubkeyhash",
            "addresses": [
              "LP2FQPJTD7b5rjLgYR9CzZsZq8wNtJrb9d"
            ]
          }
        }, 
        {
          "value": 0.00054679,
          "n": 1,
          "scriptPubKey": {
            "asm": "OP_DUP OP_HASH160 7798445a2bf87d785e31ba3c18c047e7b4b2a7e7 OP_EQUALVERIFY OP_CHECKSIG",
            "hex": "76a9147798445a2bf87d785e31ba3c18c047e7b4b2a7e788ac",
            "reqSigs": 1,
            "type": "pubkeyhash",
            "addresses": [
              "LW8K5jjJoebbRxs4SMKnkZMpPog8YBn245"
            ]
          }
        }
      ],
      "hex": "0100000001e219825250ed4489c96807ca079dac9e750f9451eb60a1ab3fe8e7361296341b010000006b483045022100f585b6f69f7b91706061010f8218eee616dbbeff49cbc9e4a3a6dccc3c94077c02204a5dfd6a9e09ad16e7ea74cac4443fdade211723775c9fe1b9684d92dfcdf060012102de7cf99ae1d6a0c71315118970c94cd0f934b72196ab4b2c48a130acba5d8ef4ffffffff027d8f0c00000000001976a91429a9d1f1eeccc839354078bdd85faf4609e0bf5288ac97d50000000000001976a9147798445a2bf87d785e31ba3c18c047e7b4b2a7e788ac00000000"
    }, 
    {
      "txid": "9dea03268868a14b41508cab6166ad0e775fb0fd85b98b21adac4c93dd0f4bda",
      "hash": "9dea03268868a14b41508cab6166ad0e775fb0fd85b98b21adac4c93dd0f4bda",
      "version": 2,
      "size": 226,
      "vsize": 226,
      "locktime": 1357211,
      "vin": [
        {
          "txid": "641e85a5b4e55ed53a0ec51e1fcf6bd9d699620d342fa2a66b531fe9f6f591c4",
          "vout": 1,
          "scriptSig": {
            "asm": "3045022100eaf8e5e4dbd75f95bb5abfa44d408b28da9498c7aa1cb6aa2bcafb267e85f3c202200ab94681cb87331160033a754801db493321cd6d112cd69bb7b47143927a0b20[ALL] 023408bbe2585aae340d36a82336eb045970c201592dd91baec82440516a4ec75f",
            "hex": "483045022100eaf8e5e4dbd75f95bb5abfa44d408b28da9498c7aa1cb6aa2bcafb267e85f3c202200ab94681cb87331160033a754801db493321cd6d112cd69bb7b47143927a0b200121023408bbe2585aae340d36a82336eb045970c201592dd91baec82440516a4ec75f"
          },
          "sequence": 4294967294
        }
      ],
      "vout": [
        {
          "value": 0.02034178,
          "n": 0,
          "scriptPubKey": {
            "asm": "OP_DUP OP_HASH160 e1b3a6ca376349f3b52f78d65379a0fdda851a47 OP_EQUALVERIFY OP_CHECKSIG",
            "hex": "76a914e1b3a6ca376349f3b52f78d65379a0fdda851a4788ac",
            "reqSigs": 1,
            "type": "pubkeyhash",
            "addresses": [
              "LfoMWnHG5Dyq7R1HtiCx4gv81JXW9Y1VqL"
            ]
          }
        }, 
        {
          "value": 1.03419400,
          "n": 1,
          "scriptPubKey": {
            "asm": "OP_DUP OP_HASH160 488bd03ea0ba9ebfacb89ed341a82d10aec77be6 OP_EQUALVERIFY OP_CHECKSIG",
            "hex": "76a914488bd03ea0ba9ebfacb89ed341a82d10aec77be688ac",
            "reqSigs": 1,
            "type": "pubkeyhash",
            "addresses": [
              "LRqYQS8FHek3E7Roytzg7K2EF8g8qRqtN1"
            ]
          }
        }
      ],
      "hex": "0200000001c491f5f6e91f536ba6a22f340d6299d6d96bcf1f1ec50e3ad55ee5b4a5851e64010000006b483045022100eaf8e5e4dbd75f95bb5abfa44d408b28da9498c7aa1cb6aa2bcafb267e85f3c202200ab94681cb87331160033a754801db493321cd6d112cd69bb7b47143927a0b200121023408bbe2585aae340d36a82336eb045970c201592dd91baec82440516a4ec75ffeffffff02020a1f00000000001976a914e1b3a6ca376349f3b52f78d65379a0fdda851a4788ac080e2a06000000001976a914488bd03ea0ba9ebfacb89ed341a82d10aec77be688ac9bb51400"
    }, 
    {
      "txid": "8266f91fce8d3bab2635a51d28560efe9faadc3a1689d5ea3fc01f82c367a0f5",
      "hash": "8266f91fce8d3bab2635a51d28560efe9faadc3a1689d5ea3fc01f82c367a0f5",
      "version": 1,
      "size": 226,
      "vsize": 226,
      "locktime": 0,
      "vin": [
        {
          "txid": "ab9bc2c774dfd95a56ecf8ad255acfacd2797acb6b8d030714c568271731c6d5",
          "vout": 0,
          "scriptSig": {
            "asm": "3045022100e9c74c0ac03eed40249199852c867ef9b260e4d1dc8b1f1c1c2545ca87845141022032833b384ae327284a4beb27a4fdf8f72b64b4cb993fd2a6986ff480a4fbac13[ALL] 0392a13f97c525b8069f09205079db3320ef35a842bf0932d9616beb5eca33d482",
            "hex": "483045022100e9c74c0ac03eed40249199852c867ef9b260e4d1dc8b1f1c1c2545ca87845141022032833b384ae327284a4beb27a4fdf8f72b64b4cb993fd2a6986ff480a4fbac1301210392a13f97c525b8069f09205079db3320ef35a842bf0932d9616beb5eca33d482"
          },
          "sequence": 4294967295
        }
      ],
      "vout": [
        {
          "value": 70.53261474,
          "n": 0,
          "scriptPubKey": {
            "asm": "OP_DUP OP_HASH160 972e0ca331f01ceab38ee7831af95231126e17d4 OP_EQUALVERIFY OP_CHECKSIG",
            "hex": "76a914972e0ca331f01ceab38ee7831af95231126e17d488ac",
            "reqSigs": 1,
            "type": "pubkeyhash",
            "addresses": [
              "LZ1KTkBkBPV6g3ukBV2qtru94keB4Q58sc"
            ]
          }
        }, 
        {
          "value": 0.86956522,
          "n": 1,
          "scriptPubKey": {
            "asm": "OP_DUP OP_HASH160 4db0cd9f55176b95ae222c76f9f5650448794c16 OP_EQUALVERIFY OP_CHECKSIG",
            "hex": "76a9144db0cd9f55176b95ae222c76f9f5650448794c1688ac",
            "reqSigs": 1,
            "type": "pubkeyhash",
            "addresses": [
              "LSJk6VAuUbxM9DKQR15eED4UqBXdfTZwnS"
            ]
          }
        }
      ],
      "hex": "0100000001d5c631172768c51407038d6bcb7a79d2accf5a25adf8ec565ad9df74c7c29bab000000006b483045022100e9c74c0ac03eed40249199852c867ef9b260e4d1dc8b1f1c1c2545ca87845141022032833b384ae327284a4beb27a4fdf8f72b64b4cb993fd2a6986ff480a4fbac1301210392a13f97c525b8069f09205079db3320ef35a842bf0932d9616beb5eca33d482ffffffff02a23a68a4010000001976a914972e0ca331f01ceab38ee7831af95231126e17d488acead92e05000000001976a9144db0cd9f55176b95ae222c76f9f5650448794c1688ac00000000"
    }
  ],
  "time": 1516973452,
  "mediantime": 1516972874,
  "nonce": 129299865,
  "bits": "1a047f14",
  "difficulty": 3731199.183374282,
  "chainwork": "000000000000000000000000000000000000000000000032077ad68554ac0d0c",
  "previousblockhash": "c37801c6fac289fa932b287c180dec40d4f2aa3e49f7f420b811a139971ef0e0",
  "nextblockhash": "42a65c686ac9f1416aa18e408b62e889ecc43053f6f46ce87f2eaf0724e7f820"
}
