{
  "hash": "96310808f2eb94ca5d72a6ab67c71ec73aeb1d392d5bd45058bc3c00dfaa6095",
  "confirmations": 3045,
  "strippedsize": 2735,
  "size": 2771,
  "weight": 10976,
  "height": 1357950,
  "version": 536870912,
  "versionHex": "20000000",
  "merkleroot": "596f5d1a5e9e7ac04324b7b5e83d6e642f6c5d6f1da136623ee0e42dd9267a5b",
  "tx": [
    {
      "txid": "182f92d8e3198af834bec35622ecf3c306f9a7f772c52d53ee0e0260b0c9b7d0",
      "hash": "d534a680f3fc184c9f7f2e7ad0dd4a47d11669e7cf472c03b7cd95c969339c53",
      "version": 1,
      "size": 244,
      "vsize": 217,
      "locktime": 0,
      "vin": [
        {
          "coinbase": "037eb814044ca36c5a0803d3969227000000fabe6d6d7557232f808c5d3f02883b85860e6fd5576c3d1944779935bd61c13a41624c3540000000000000000d2f6e6f64655374726174756d2f",
          "sequence": 0
        }
      ],
      "vout": [
        {
          "value": 25.00722145,
          "n": 0,
          "scriptPubKey": {
            "asm": "OP_DUP OP_HASH160 0c617fdb2ea42aed30a509595ee21ba3f6688db0 OP_EQUALVERIFY OP_CHECKSIG",
            "hex": "76a9140c617fdb2ea42aed30a509595ee21ba3f6688db088ac",
            "reqSigs": 1,
            "type": "pubkeyhash",
            "addresses": [
              "LLMRAtr3qBje2ySEa3CnZ55LA4TQMWnRY3"
            ]
          }
        }, 
        {
          "value": 0.00000000,
          "n": 1,
          "scriptPubKey": {
            "asm": "OP_RETURN aa21a9ed6613530df040a1db27fbea5d45f33f471ad3ac5956926d66a16623a8bfaa85ac",
            "hex": "6a24aa21a9ed6613530df040a1db27fbea5d45f33f471ad3ac5956926d66a16623a8bfaa85ac",
            "type": "nulldata"
          }
        }
      ],
      "hex": "010000000001010000000000000000000000000000000000000000000000000000000000000000ffffffff4c037eb814044ca36c5a0803d3969227000000fabe6d6d7557232f808c5d3f02883b85860e6fd5576c3d1944779935bd61c13a41624c3540000000000000000d2f6e6f64655374726174756d2f0000000002e1fd0d95000000001976a9140c617fdb2ea42aed30a509595ee21ba3f6688db088ac0000000000000000266a24aa21a9ed6613530df040a1db27fbea5d45f33f471ad3ac5956926d66a16623a8bfaa85ac0120000000000000000000000000000000000000000000000000000000000000000000000000"
    }, 
    {
      "txid": "6d4a809ad05d3d0534d8f70744c2a31bd3fec69d38d1251a31e10fc8d7526d31",
      "hash": "6d4a809ad05d3d0534d8f70744c2a31bd3fec69d38d1251a31e10fc8d7526d31",
      "version": 1,
      "size": 226,
      "vsize": 226,
      "locktime": 0,
      "vin": [
        {
          "txid": "bad69c0ce3799f80325c2556d09e32dd571d277e590241b11a908237b0d9d83b",
          "vout": 43,
          "scriptSig": {
            "asm": "3045022100d4e1b77e83590925317c765bc40dedb3ee1f1c94bf951759b67e67b357da33c60220674faab22111631278501f3d5f20f906a4417f2b9718f8bdd62f604c516ba2aa[ALL] 0373351c61e65fbca506980ccb7aefc71ddabf85ad67184a6265f110c5b7387db0",
            "hex": "483045022100d4e1b77e83590925317c765bc40dedb3ee1f1c94bf951759b67e67b357da33c60220674faab22111631278501f3d5f20f906a4417f2b9718f8bdd62f604c516ba2aa01210373351c61e65fbca506980ccb7aefc71ddabf85ad67184a6265f110c5b7387db0"
          },
          "sequence": 4294967295
        }
      ],
      "vout": [
        {
          "value": 0.16522553,
          "n": 0,
          "scriptPubKey": {
            "asm": "OP_DUP OP_HASH160 b4b28b067413c03db0985dde74b18b686f800042 OP_EQUALVERIFY OP_CHECKSIG",
            "hex": "76a914b4b28b067413c03db0985dde74b18b686f80004288ac",
            "reqSigs": 1,
            "type": "pubkeyhash",
            "addresses": [
              "LbhPn8dF8xkGTo8oXSen5bFA3kqj7KKEMa"
            ]
          }
        }, 
        {
          "value": 0.07237747,
          "n": 1,
          "scriptPubKey": {
            "asm": "OP_DUP OP_HASH160 a6cc09daad363cb6c86fe418594742d2c766de97 OP_EQUALVERIFY OP_CHECKSIG",
            "hex": "76a914a6cc09daad363cb6c86fe418594742d2c766de9788ac",
            "reqSigs": 1,
            "type": "pubkeyhash",
            "addresses": [
              "LaRtru9VVN5YDiuubgfYmGgdtNTE71VHMv"
            ]
          }
        }
      ],
      "hex": "01000000013bd8d9b03782901ab14102597e271d57dd329ed056255c32809f79e30c9cd6ba2b0000006b483045022100d4e1b77e83590925317c765bc40dedb3ee1f1c94bf951759b67e67b357da33c60220674faab22111631278501f3d5f20f906a4417f2b9718f8bdd62f604c516ba2aa01210373351c61e65fbca506980ccb7aefc71ddabf85ad67184a6265f110c5b7387db0ffffffff02391dfc00000000001976a914b4b28b067413c03db0985dde74b18b686f80004288ac73706e00000000001976a914a6cc09daad363cb6c86fe418594742d2c766de9788ac00000000"
    }, 
    {
      "txid": "f30e777f1f3a2c304ce379e13d414e4365a7851ecf07ba0379585737ad7c35e6",
      "hash": "f30e777f1f3a2c304ce379e13d414e4365a7851ecf07ba0379585737ad7c35e6",
      "version": 1,
      "size": 226,
      "vsize": 226,
      "locktime": 0,
      "vin": [
        {
          "txid": "4752284111659f7a2653031d05942b020772f61c7ca97307ad3f36c8b9cdf30c",
          "vout": 1,
          "scriptSig": {
            "asm": "3045022100fc471d05baec3a74ee179f10b6811765eaf65afa111765b73bfca37d510483dd02202324584678cb022928895e61ff3766237bc8532ec2a9a0a8384b78babbf554c6[ALL] 03a3e4e808627bbc1efb55c5d914946c0194347514360bab65558bc67a5a996fca",
            "hex": "483045022100fc471d05baec3a74ee179f10b6811765eaf65afa111765b73bfca37d510483dd02202324584678cb022928895e61ff3766237bc8532ec2a9a0a8384b78babbf554c6012103a3e4e808627bbc1efb55c5d914946c0194347514360bab65558bc67a5a996fca"
          },
          "sequence": 4294967295
        }
      ],
      "vout": [
        {
          "value": 0.99900000,
          "n": 0,
          "scriptPubKey": {
            "asm": "OP_DUP OP_HASH160 78b1fce89d2be8d86d71aed47a1c4b74a3360901 OP_EQUALVERIFY OP_CHECKSIG",
            "hex": "76a91478b1fce89d2be8d86d71aed47a1c4b74a336090188ac",
            "reqSigs": 1,
            "type": "pubkeyhash",
            "addresses": [
              "LWE8a3szGaMEtgxEk9tEiBn9nspEPXVAA6"
            ]
          }
        }, 
        {
          "value": 376.24743402,
          "n": 1,
          "scriptPubKey": {
            "asm": "OP_DUP OP_HASH160 7737205ad47b01cbe78274d8bef1bb7bf0f48083 OP_EQUALVERIFY OP_CHECKSIG",
            "hex": "76a9147737205ad47b01cbe78274d8bef1bb7bf0f4808388ac",
            "reqSigs": 1,
            "type": "pubkeyhash",
            "addresses": [
              "LW6JiHjPHFuaFUCL9z1wiudPufEzoWLQd2"
            ]
          }
        }
      ],
      "hex": "01000000010cf3cdb9c8363fad0773a97c1cf67207022b94051d0353267a9f651141285247010000006b483045022100fc471d05baec3a74ee179f10b6811765eaf65afa111765b73bfca37d510483dd02202324584678cb022928895e61ff3766237bc8532ec2a9a0a8384b78babbf554c6012103a3e4e808627bbc1efb55c5d914946c0194347514360bab65558bc67a5a996fcaffffffff02605af405000000001976a91478b1fce89d2be8d86d71aed47a1c4b74a336090188acea059cc2080000001976a9147737205ad47b01cbe78274d8bef1bb7bf0f4808388ac00000000"
    }, 
    {
      "txid": "a0923e432c09952d2e35ac3a627ee36c25c42c607c1032e53f41d0c5ee72b931",
      "hash": "a0923e432c09952d2e35ac3a627ee36c25c42c607c1032e53f41d0c5ee72b931",
      "version": 1,
      "size": 190,
      "vsize": 190,
      "locktime": 0,
      "vin": [
        {
          "txid": "54fef2ad546433a1a65e03e82f1ce393975e8742f5be0513c875345c19bead4a",
          "vout": 0,
          "scriptSig": {
            "asm": "30450221009329914b6a52a5beca50ff3f9f6a0970a3757f8956bec1eb6b5359c1fa89180702206c0b392d77daea74d3e557d1514ab117fb8d47df0fa2a98c12f5c1688f860097[ALL] 03e885569cb3d038d582f7030b4ec3172272443ffd80495c8b076853939d37ba95",
            "hex": "4830450221009329914b6a52a5beca50ff3f9f6a0970a3757f8956bec1eb6b5359c1fa89180702206c0b392d77daea74d3e557d1514ab117fb8d47df0fa2a98c12f5c1688f860097012103e885569cb3d038d582f7030b4ec3172272443ffd80495c8b076853939d37ba95"
          },
          "sequence": 4294967295
        }
      ],
      "vout": [
        {
          "value": 0.41427394,
          "n": 0,
          "scriptPubKey": {
            "asm": "OP_HASH160 09415d18e8f4f2c4474f6405b97e65d681da6a03 OP_EQUAL",
            "hex": "a91409415d18e8f4f2c4474f6405b97e65d681da6a0387",
            "reqSigs": 1,
            "type": "scripthash",
            "addresses": [
              "M8k6chkjFUwvDLAbTozy2dmGAia7edbryY"
            ]
          }
        }
      ],
      "hex": "01000000014aadbe195c3475c81305bef542875e9793e31c2fe8035ea6a1336454adf2fe54000000006b4830450221009329914b6a52a5beca50ff3f9f6a0970a3757f8956bec1eb6b5359c1fa89180702206c0b392d77daea74d3e557d1514ab117fb8d47df0fa2a98c12f5c1688f860097012103e885569cb3d038d582f7030b4ec3172272443ffd80495c8b076853939d37ba95ffffffff01c22178020000000017a91409415d18e8f4f2c4474f6405b97e65d681da6a038700000000"
    }, 
    {
      "txid": "ba799cf21d489a25d62e028f59f4aca66c06bea53cba72397aefc560025a9448",
      "hash": "ba799cf21d489a25d62e028f59f4aca66c06bea53cba72397aefc560025a9448",
      "version": 1,
      "size": 225,
      "vsize": 225,
      "locktime": 0,
      "vin": [
        {
          "txid": "67d623654772133b70c5a1c92bd48ec1ab99912d516405f56c00ed147aeb7010",
          "vout": 1,
          "scriptSig": {
            "asm": "304402204c77b8181609891f00ef15c29fd29c40d68913ed6f05a0c525a1411ba3934697022042be3664cee90f6b2595e23c273fa580e81674fa7ae0f03e60b9c5af689b2dc2[ALL] 024a436e3b44d664961233feac5ff4d1d8a2b2171775f5d956c4be4f527c5d5048",
            "hex": "47304402204c77b8181609891f00ef15c29fd29c40d68913ed6f05a0c525a1411ba3934697022042be3664cee90f6b2595e23c273fa580e81674fa7ae0f03e60b9c5af689b2dc20121024a436e3b44d664961233feac5ff4d1d8a2b2171775f5d956c4be4f527c5d5048"
          },
          "sequence": 4294967295
        }
      ],
      "vout": [
        {
          "value": 0.36000000,
          "n": 0,
          "scriptPubKey": {
            "asm": "OP_DUP OP_HASH160 cb7b7286466e8ed1d02fb8970ea1de3ab4e59ae3 OP_EQUALVERIFY OP_CHECKSIG",
            "hex": "76a914cb7b7286466e8ed1d02fb8970ea1de3ab4e59ae388ac",
            "reqSigs": 1,
            "type": "pubkeyhash",
            "addresses": [
              "LdmsKRknhv7Csdhkqbh1TLNMwLUnrqL2Te"
            ]
          }
        }, 
        {
          "value": 2.02398090,
          "n": 1,
          "scriptPubKey": {
            "asm": "OP_DUP OP_HASH160 b46678cc9f9bb588459fdb52089c2b8ecdbfedd9 OP_EQUALVERIFY OP_CHECKSIG",
            "hex": "76a914b46678cc9f9bb588459fdb52089c2b8ecdbfedd988ac",
            "reqSigs": 1,
            "type": "pubkeyhash",
            "addresses": [
              "LbfpecWNakk6oPQfnkU6BsWcLidbyzXwpM"
            ]
          }
        }
      ],
      "hex": "01000000011070eb7a14ed006cf50564512d9199abc18ed42bc9a1c5703b1372476523d667010000006a47304402204c77b8181609891f00ef15c29fd29c40d68913ed6f05a0c525a1411ba3934697022042be3664cee90f6b2595e23c273fa580e81674fa7ae0f03e60b9c5af689b2dc20121024a436e3b44d664961233feac5ff4d1d8a2b2171775f5d956c4be4f527c5d5048ffffffff0200512502000000001976a914cb7b7286466e8ed1d02fb8970ea1de3ab4e59ae388ac8a59100c000000001976a914b46678cc9f9bb588459fdb52089c2b8ecdbfedd988ac00000000"
    }, 
    {
      "txid": "04f5fc7b5ac0cb5d559f5595b2a1a35d70eff6875875e133549430bf088009d3",
      "hash": "04f5fc7b5ac0cb5d559f5595b2a1a35d70eff6875875e133549430bf088009d3",
      "version": 2,
      "size": 225,
      "vsize": 225,
      "locktime": 1357948,
      "vin": [
        {
          "txid": "d4c17f33b2cf131b61e1d098cffc52f06ff436c3d2e06ee0d16ed63ad5cfb59b",
          "vout": 0,
          "scriptSig": {
            "asm": "304402202a8d5b44d833ce6bfcc213ec5984ae601879d053cd29cffbbe59b8170ba4ac6802206d55d4d2c32c04a18b384d823a9bd1f54362382600cf27e575f193931d59d385[ALL] 03d8b6a11904aec792f71d312f361f9443875b84aa8e701ee3ca92c244bdf98a24",
            "hex": "47304402202a8d5b44d833ce6bfcc213ec5984ae601879d053cd29cffbbe59b8170ba4ac6802206d55d4d2c32c04a18b384d823a9bd1f54362382600cf27e575f193931d59d385012103d8b6a11904aec792f71d312f361f9443875b84aa8e701ee3ca92c244bdf98a24"
          },
          "sequence": 4294967294
        }
      ],
      "vout": [
        {
          "value": 0.26484106,
          "n": 0,
          "scriptPubKey": {
            "asm": "OP_DUP OP_HASH160 1977ba74996dd7adc46623b044faf626087d43ac OP_EQUALVERIFY OP_CHECKSIG",
            "hex": "76a9141977ba74996dd7adc46623b044faf626087d43ac88ac",
            "reqSigs": 1,
            "type": "pubkeyhash",
            "addresses": [
              "LMYcasysf2UGacWWVhMFpwTYzLQiVGpsBd"
            ]
          }
        }, 
        {
          "value": 1.87497570,
          "n": 1,
          "scriptPubKey": {
            "asm": "OP_DUP OP_HASH160 a37e05176c68b128913a223825a204ccbbccc8c5 OP_EQUALVERIFY OP_CHECKSIG",
            "hex": "76a914a37e05176c68b128913a223825a204ccbbccc8c588ac",
            "reqSigs": 1,
            "type": "pubkeyhash",
            "addresses": [
              "La8RNVmHS5NK7jkvgERdhRNEysijY4UrmB"
            ]
          }
        }
      ],
      "hex": "02000000019bb5cfd53ad66ed1e06ee0d2c336f46ff052fccf98d0e1611b13cfb2337fc1d4000000006a47304402202a8d5b44d833ce6bfcc213ec5984ae601879d053cd29cffbbe59b8170ba4ac6802206d55d4d2c32c04a18b384d823a9bd1f54362382600cf27e575f193931d59d385012103d8b6a11904aec792f71d312f361f9443875b84aa8e701ee3ca92c244bdf98a24feffffff028a1d9401000000001976a9141977ba74996dd7adc46623b044faf626087d43ac88ac62fc2c0b000000001976a914a37e05176c68b128913a223825a204ccbbccc8c588ac7cb81400"
    }, 
    {
      "txid": "600b29f00fef1c2f1dec992576ad082c3debf20a10bd150ca847a00e1df2955d",
      "hash": "600b29f00fef1c2f1dec992576ad082c3debf20a10bd150ca847a00e1df2955d",
      "version": 1,
      "size": 225,
      "vsize": 225,
      "locktime": 0,
      "vin": [
        {
          "txid": "3fb4109c33c292c8e9df7bb6b5446234d8a0a86b879d0f07f1b6af8fd80985d6",
          "vout": 1,
          "scriptSig": {
            "asm": "3044022012e7bc02a0263d85d197d9ed82d55b7ec1539e01f918afbdd7dd01362b7afd440220171330d6e66aeb418cb51de38e9f02cbdf5eb893b99baae389191a80742ad3b6[ALL] 03fd4a7b0defdafabb9fca317e449b19254469a12942f8913ed814b91fb3122ed8",
            "hex": "473044022012e7bc02a0263d85d197d9ed82d55b7ec1539e01f918afbdd7dd01362b7afd440220171330d6e66aeb418cb51de38e9f02cbdf5eb893b99baae389191a80742ad3b6012103fd4a7b0defdafabb9fca317e449b19254469a12942f8913ed814b91fb3122ed8"
          },
          "sequence": 4294967295
        }
      ],
      "vout": [
        {
          "value": 39.12608422,
          "n": 0,
          "scriptPubKey": {
            "asm": "OP_DUP OP_HASH160 7e54d6d6b0d03b2e624c7da441dc315a0b8964a0 OP_EQUALVERIFY OP_CHECKSIG",
            "hex": "76a9147e54d6d6b0d03b2e624c7da441dc315a0b8964a088ac",
            "reqSigs": 1,
            "type": "pubkeyhash",
            "addresses": [
              "LWjw37ev87pBvwCnKEY5TxRb5KddN5LJQr"
            ]
          }
        }, 
        {
          "value": 4.00000000,
          "n": 1,
          "scriptPubKey": {
            "asm": "OP_DUP OP_HASH160 3d88e29486e63698585dc9ff2694872cb816de68 OP_EQUALVERIFY OP_CHECKSIG",
            "hex": "76a9143d88e29486e63698585dc9ff2694872cb816de6888ac",
            "reqSigs": 1,
            "type": "pubkeyhash",
            "addresses": [
              "LQqKTre97krjgtXCKb3tzbLMpuNHc3gAhx"
            ]
          }
        }
      ],
      "hex": "0100000001d68509d88fafb6f1070f9d876ba8a0d8346244b5b67bdfe9c892c2339c10b43f010000006a473044022012e7bc02a0263d85d197d9ed82d55b7ec1539e01f918afbdd7dd01362b7afd440220171330d6e66aeb418cb51de38e9f02cbdf5eb893b99baae389191a80742ad3b6012103fd4a7b0defdafabb9fca317e449b19254469a12942f8913ed814b91fb3122ed8ffffffff02a6aa35e9000000001976a9147e54d6d6b0d03b2e624c7da441dc315a0b8964a088ac0084d717000000001976a9143d88e29486e63698585dc9ff2694872cb816de6888ac00000000"
    }, 
    {
      "txid": "01bdd478afef966ac881aebf1018374939a8f30b15edaf409beb10568f55c8cd",
      "hash": "01bdd478afef966ac881aebf1018374939a8f30b15edaf409beb10568f55c8cd",
      "version": 2,
      "size": 225,
      "vsize": 225,
      "locktime": 1357948,
      "vin": [
        {
          "txid": "d8cf439b71fd34835a2fe2e367327935a091eb83a4696afeaa5016fdfe6b651a",
          "vout": 0,
          "scriptSig": {
            "asm": "3044022034db1c156db05b64199f90a8ade956e1553dba56726770deeec5fec88297bcfa022028efb0f8c07cc4430a6ea409439b458b55c91d4cbdb2975fe228e0ba05b64a2f[ALL] 03cd6817f525d19cc9c45957dac8ad75c080e9c4f5d2ecee21e3ab273d5355d10e",
            "hex": "473044022034db1c156db05b64199f90a8ade956e1553dba56726770deeec5fec88297bcfa022028efb0f8c07cc4430a6ea409439b458b55c91d4cbdb2975fe228e0ba05b64a2f012103cd6817f525d19cc9c45957dac8ad75c080e9c4f5d2ecee21e3ab273d5355d10e"
          },
          "sequence": 4294967294
        }
      ],
      "vout": [
        {
          "value": 1.39789272,
          "n": 0,
          "scriptPubKey": {
            "asm": "OP_DUP OP_HASH160 fd9c83f89eb1e08e1fbccf70f0d9f4f36a85004b OP_EQUALVERIFY OP_CHECKSIG",
            "hex": "76a914fd9c83f89eb1e08e1fbccf70f0d9f4f36a85004b88ac",
            "reqSigs": 1,
            "type": "pubkeyhash",
            "addresses": [
              "LiLvidkusJEBJc2GP9WYiF2vChTpNRGdyT"
            ]
          }
        }, 
        {
          "value": 0.05545607,
          "n": 1,
          "scriptPubKey": {
            "asm": "OP_DUP OP_HASH160 f8c76eb735626accd10e7b835a03f93cd74ee13b OP_EQUALVERIFY OP_CHECKSIG",
            "hex": "76a914f8c76eb735626accd10e7b835a03f93cd74ee13b88ac",
            "reqSigs": 1,
            "type": "pubkeyhash",
            "addresses": [
              "LhuNkbgdiebKeZEEwnb3gP2mzvirCoVxzV"
            ]
          }
        }
      ],
      "hex": "02000000011a656bfefd1650aafe6a69a483eb91a035793267e3e22f5a8334fd719b43cfd8000000006a473044022034db1c156db05b64199f90a8ade956e1553dba56726770deeec5fec88297bcfa022028efb0f8c07cc4430a6ea409439b458b55c91d4cbdb2975fe228e0ba05b64a2f012103cd6817f525d19cc9c45957dac8ad75c080e9c4f5d2ecee21e3ab273d5355d10efeffffff02d8035508000000001976a914fd9c83f89eb1e08e1fbccf70f0d9f4f36a85004b88ac879e5400000000001976a914f8c76eb735626accd10e7b835a03f93cd74ee13b88ac7cb81400"
    }, 
    {
      "txid": "8cb5c64eca8ae90f8ae8e8dc340f0efb0c9d458fa3254569e0079e03e9fa9d87",
      "hash": "8cb5c64eca8ae90f8ae8e8dc340f0efb0c9d458fa3254569e0079e03e9fa9d87",
      "version": 1,
      "size": 226,
      "vsize": 226,
      "locktime": 0,
      "vin": [
        {
          "txid": "b07e1161fd233465d023902e285ad3a37db6c7b20077ef19156ab447f4dfdd54",
          "vout": 0,
          "scriptSig": {
            "asm": "3045022100fdee5a5418574e844f9ec6a1820b00bd92f7bf1549384c5ec2cc3dcf7bcd94af02207b131ae789b3c592220c48f9a77c1aef716e67fce2c72d2d3c82b8e6c6b04dce[ALL] 030a92e7f4761cfd7912c5b0cc44d6c61222db136ed37a942dc708706bf025c8fc",
            "hex": "483045022100fdee5a5418574e844f9ec6a1820b00bd92f7bf1549384c5ec2cc3dcf7bcd94af02207b131ae789b3c592220c48f9a77c1aef716e67fce2c72d2d3c82b8e6c6b04dce0121030a92e7f4761cfd7912c5b0cc44d6c61222db136ed37a942dc708706bf025c8fc"
          },
          "sequence": 4294967295
        }
      ],
      "vout": [
        {
          "value": 0.00957705,
          "n": 0,
          "scriptPubKey": {
            "asm": "OP_DUP OP_HASH160 c859ab343ee05843ecfdad7d08fbed5feb8de20c OP_EQUALVERIFY OP_CHECKSIG",
            "hex": "76a914c859ab343ee05843ecfdad7d08fbed5feb8de20c88ac",
            "reqSigs": 1,
            "type": "pubkeyhash",
            "addresses": [
              "LdVJpsezfwH5C9UPdo4vcu7CWgTBRyZm8J"
            ]
          }
        }, 
        {
          "value": 0.41468539,
          "n": 1,
          "scriptPubKey": {
            "asm": "OP_DUP OP_HASH160 b18125382ed52dfa80b6a6d6dab98b3e2c955ebb OP_EQUALVERIFY OP_CHECKSIG",
            "hex": "76a914b18125382ed52dfa80b6a6d6dab98b3e2c955ebb88ac",
            "reqSigs": 1,
            "type": "pubkeyhash",
            "addresses": [
              "LbQWaM1sWethX1Jm8J97afxFypDQf8Lp35"
            ]
          }
        }
      ],
      "hex": "010000000154dddff447b46a1519ef7700b2c7b67da3d35a282e9023d0653423fd61117eb0000000006b483045022100fdee5a5418574e844f9ec6a1820b00bd92f7bf1549384c5ec2cc3dcf7bcd94af02207b131ae789b3c592220c48f9a77c1aef716e67fce2c72d2d3c82b8e6c6b04dce0121030a92e7f4761cfd7912c5b0cc44d6c61222db136ed37a942dc708706bf025c8fcffffffff02099d0e00000000001976a914c859ab343ee05843ecfdad7d08fbed5feb8de20c88ac7bc27802000000001976a914b18125382ed52dfa80b6a6d6dab98b3e2c955ebb88ac00000000"
    }, 
    {
      "txid": "dda2ab8a10ddbcd3024bbd200f2135b860e9094b99ec307973037f71599f6fbe",
      "hash": "dda2ab8a10ddbcd3024bbd200f2135b860e9094b99ec307973037f71599f6fbe",
      "version": 1,
      "size": 226,
      "vsize": 226,
      "locktime": 0,
      "vin": [
        {
          "txid": "c1f8019bc53b6e63c4d1485670ae5d2865cd11239de834e6532fa7ca8f04e400",
          "vout": 1,
          "scriptSig": {
            "asm": "304502210085f12238377b4d02cbb65ccb330c74528a432e258835a8bc5315e329e4e9d6ad02201ae6027c93185ec0370926587e011dc3944ef44e20dbc0933804c372f137cfa7[ALL] 02c99940ec68458c29ac5f13e57c7f97412fa40c598c89a7113f877d59e63cd4d7",
            "hex": "48304502210085f12238377b4d02cbb65ccb330c74528a432e258835a8bc5315e329e4e9d6ad02201ae6027c93185ec0370926587e011dc3944ef44e20dbc0933804c372f137cfa7012102c99940ec68458c29ac5f13e57c7f97412fa40c598c89a7113f877d59e63cd4d7"
          },
          "sequence": 4294967295
        }
      ],
      "vout": [
        {
          "value": 0.00055649,
          "n": 0,
          "scriptPubKey": {
            "asm": "OP_DUP OP_HASH160 c47616b7d260a489923c44d27c89c68c219821ea OP_EQUALVERIFY OP_CHECKSIG",
            "hex": "76a914c47616b7d260a489923c44d27c89c68c219821ea88ac",
            "reqSigs": 1,
            "type": "pubkeyhash",
            "addresses": [
              "Ld8kAm7jfm8iGiAgtR2ktPLDXakSoQ6uAD"
            ]
          }
        }, 
        {
          "value": 0.05520037,
          "n": 1,
          "scriptPubKey": {
            "asm": "OP_DUP OP_HASH160 14e1369001a5434b45f721fae43e27dba447d4c9 OP_EQUALVERIFY OP_CHECKSIG",
            "hex": "76a91414e1369001a5434b45f721fae43e27dba447d4c988ac",
            "reqSigs": 1,
            "type": "pubkeyhash",
            "addresses": [
              "LM8Ma8eBwRy29J1jGQePJxpKXLyS5fv8XN"
            ]
          }
        }
      ],
      "hex": "010000000100e4048fcaa72f53e634e89d2311cd65285dae705648d1c4636e3bc59b01f8c1010000006b48304502210085f12238377b4d02cbb65ccb330c74528a432e258835a8bc5315e329e4e9d6ad02201ae6027c93185ec0370926587e011dc3944ef44e20dbc0933804c372f137cfa7012102c99940ec68458c29ac5f13e57c7f97412fa40c598c89a7113f877d59e63cd4d7ffffffff0261d90000000000001976a914c47616b7d260a489923c44d27c89c68c219821ea88aca53a5400000000001976a91414e1369001a5434b45f721fae43e27dba447d4c988ac00000000"
    }, 
    {
      "txid": "229cccc735a9bcf9a5d9e5190870a75b8423744cca07aaf0004493f146e54bc7",
      "hash": "229cccc735a9bcf9a5d9e5190870a75b8423744cca07aaf0004493f146e54bc7",
      "version": 1,
      "size": 226,
      "vsize": 226,
      "locktime": 0,
      "vin": [
        {
          "txid": "271b1fe3900c66dc0284d42bb3e6a3ea2a8fd8c1e4b78a55e1668f7d8ff06ef8",
          "vout": 0,
          "scriptSig": {
            "asm": "3045022100ea4b09a930fbc4d66c5bbaa0ad96a043967589fe37b60d188f8a38e4686ada7102201f4dec9d1f787e60f0867facef580ceefac6f2bd2b460c60889890c4b1392ec4[ALL] 03506b66ee20c14bdb6d002459348d0138fa509ee1d535806c93dd33db9098d369",
            "hex": "483045022100ea4b09a930fbc4d66c5bbaa0ad96a043967589fe37b60d188f8a38e4686ada7102201f4dec9d1f787e60f0867facef580ceefac6f2bd2b460c60889890c4b1392ec4012103506b66ee20c14bdb6d002459348d0138fa509ee1d535806c93dd33db9098d369"
          },
          "sequence": 4294967295
        }
      ],
      "vout": [
        {
          "value": 0.75863791,
          "n": 0,
          "scriptPubKey": {
            "asm": "OP_DUP OP_HASH160 420b99ddaaa8fe847352d2e9dd1b4a016c8b7b22 OP_EQUALVERIFY OP_CHECKSIG",
            "hex": "76a914420b99ddaaa8fe847352d2e9dd1b4a016c8b7b2288ac",
            "reqSigs": 1,
            "type": "pubkeyhash",
            "addresses": [
              "LRFAkvnS1LtjAv8p2g138daZ2kM7TWa5Dn"
            ]
          }
        }, 
        {
          "value": 0.24013609,
          "n": 1,
          "scriptPubKey": {
            "asm": "OP_DUP OP_HASH160 7ce9896a659fd54e7f045a4cf703f7976d4c9598 OP_EQUALVERIFY OP_CHECKSIG",
            "hex": "76a9147ce9896a659fd54e7f045a4cf703f7976d4c959888ac",
            "reqSigs": 1,
            "type": "pubkeyhash",
            "addresses": [
              "LWcRpRJq5b4kx4Kf7d71sinPa2jTg5JgeY"
            ]
          }
        }
      ],
      "hex": "0100000001f86ef08f7d8f66e1558ab7e4c1d88f2aeaa3e6b32bd48402dc660c90e31f1b27000000006b483045022100ea4b09a930fbc4d66c5bbaa0ad96a043967589fe37b60d188f8a38e4686ada7102201f4dec9d1f787e60f0867facef580ceefac6f2bd2b460c60889890c4b1392ec4012103506b66ee20c14bdb6d002459348d0138fa509ee1d535806c93dd33db9098d369ffffffff02ef968504000000001976a914420b99ddaaa8fe847352d2e9dd1b4a016c8b7b2288ac296b6e01000000001976a9147ce9896a659fd54e7f045a4cf703f7976d4c959888ac00000000"
    }, 
    {
      "txid": "18170e41a4f22971606bc210827a93b334479f49abc54e4fc6d0642e7e908fca",
      "hash": "18170e41a4f22971606bc210827a93b334479f49abc54e4fc6d0642e7e908fca",
      "version": 1,
      "size": 226,
      "vsize": 226,
      "locktime": 0,
      "vin": [
        {
          "txid": "4c2944b02704778e66831df15200cc48ee9c30ba9977bdaed5c657655aedadbb",
          "vout": 1,
          "scriptSig": {
            "asm": "3045022100dbc96384c186c922597c1988cdd6c890009faf652287e0db2e934690f8d6b229022055be038a2ba584c8ea32e42b0c58295e1a48c9a6bb53e26850424f5abed83c6a[ALL] 0223667cae01946d256bf257110b8281635e33cdb52af471fc0814ede32367a0dd",
            "hex": "483045022100dbc96384c186c922597c1988cdd6c890009faf652287e0db2e934690f8d6b229022055be038a2ba584c8ea32e42b0c58295e1a48c9a6bb53e26850424f5abed83c6a01210223667cae01946d256bf257110b8281635e33cdb52af471fc0814ede32367a0dd"
          },
          "sequence": 4294967295
        }
      ],
      "vout": [
        {
          "value": 37.94426763,
          "n": 0,
          "scriptPubKey": {
            "asm": "OP_DUP OP_HASH160 2743ee27e1727656f4054399ecce172f083dbde1 OP_EQUALVERIFY OP_CHECKSIG",
            "hex": "76a9142743ee27e1727656f4054399ecce172f083dbde188ac",
            "reqSigs": 1,
            "type": "pubkeyhash",
            "addresses": [
              "LNoZzaFZwynx3pGSYsmHgwZoyyExCMSBqh"
            ]
          }
        }, 
        {
          "value": 2.14242778,
          "n": 1,
          "scriptPubKey": {
            "asm": "OP_DUP OP_HASH160 69507d1f085368ce81b9ab9ed9dee701ab88ccd2 OP_EQUALVERIFY OP_CHECKSIG",
            "hex": "76a91469507d1f085368ce81b9ab9ed9dee701ab88ccd288ac",
            "reqSigs": 1,
            "type": "pubkeyhash",
            "addresses": [
              "LUpodp3b7vMVFFYLhwD2nX23VFqGGfFdbR"
            ]
          }
        }
      ],
      "hex": "0100000001bbaded5a6557c6d5aebd7799ba309cee48cc0052f11d83668e770427b044294c010000006b483045022100dbc96384c186c922597c1988cdd6c890009faf652287e0db2e934690f8d6b229022055be038a2ba584c8ea32e42b0c58295e1a48c9a6bb53e26850424f5abed83c6a01210223667cae01946d256bf257110b8281635e33cdb52af471fc0814ede32367a0ddffffffff028b5b2ae2000000001976a9142743ee27e1727656f4054399ecce172f083dbde188acda15c50c000000001976a91469507d1f085368ce81b9ab9ed9dee701ab88ccd288ac00000000"
    }
  ],
  "time": 1517068976,
  "mediantime": 1517068531,
  "nonce": 1089372825,
  "bits": "1a047f14",
  "difficulty": 3731199.183374282,
  "chainwork": "000000000000000000000000000000000000000000000032ab6387142ad293e6",
  "previousblockhash": "9ff29ad4620c9d63ee84af60cbb657946be459583face4379a2a4d890e94490c",
  "nextblockhash": "5eaa7529ab27743d7278ae27ce58748c79010c96e4cc2a6a83d0ea9ca14b3109"
}
