{
  "hash": "973f73e241748322b04a8ac44b9ebac8841135c6dedfb8de9868772b4f4a34e9",
  "confirmations": 1845,
  "strippedsize": 266,
  "size": 266,
  "weight": 1064,
  "height": 1359149,
  "version": 536870912,
  "versionHex": "20000000",
  "merkleroot": "0974068675c9223613a29dc6c033836eba1eefe12c6d126af4d7e695cf0e0452",
  "tx": [
    {
      "txid": "0974068675c9223613a29dc6c033836eba1eefe12c6d126af4d7e695cf0e0452",
      "hash": "0974068675c9223613a29dc6c033836eba1eefe12c6d126af4d7e695cf0e0452",
      "version": 1,
      "size": 185,
      "vsize": 185,
      "locktime": 949562733,
      "vin": [
        {
          "coinbase": "032dbd142cfabe6d6d4ad685fe5bc62db84047d5125235d966f8fe0b520a20f76c60c9cf46e074886408000000f09f909f0f4d696e6564206279206d677a3838380000000000000000000000000000000000000000000000000000000000000000000000",
          "sequence": 3
        }
      ],
      "vout": [
        {
          "value": 25.00000000,
          "n": 0,
          "scriptPubKey": {
            "asm": "OP_DUP OP_HASH160 aa3750aa18b8a0f3f0590731e1fab934856680cf OP_EQUALVERIFY OP_CHECKSIG",
            "hex": "76a914aa3750aa18b8a0f3f0590731e1fab934856680cf88ac",
            "reqSigs": 1,
            "type": "pubkeyhash",
            "addresses": [
              "LajyQBeZaBA1NkZDeY8YT5RYYVRkXMvb2T"
            ]
          }
        }
      ],
      "hex": "01000000010000000000000000000000000000000000000000000000000000000000000000ffffffff64032dbd142cfabe6d6d4ad685fe5bc62db84047d5125235d966f8fe0b520a20f76c60c9cf46e074886408000000f09f909f0f4d696e6564206279206d677a3838380000000000000000000000000000000000000000000000000000000000000000000000030000000100f90295000000001976a914aa3750aa18b8a0f3f0590731e1fab934856680cf88ac6d2d9938"
    }
  ],
  "time": 1517242342,
  "mediantime": 1517241929,
  "nonce": 1321706149,
  "bits": "1a042eae",
  "difficulty": 4011378.762614286,
  "chainwork": "000000000000000000000000000000000000000000000033bc28ae44301dfc5c",
  "previousblockhash": "0e9812930c60cf26a6d02062cd8ee6eacfa9a0a1b0c92d3705754102a8aad531",
  "nextblockhash": "299b29150e604a401a76d9270e9efeee6a93f36bdb86c79e0f4b57bc9c4fb715"
}
