{
  "hash": "979efac31e2b7cc7f30af7498544c441928d2af5523698d9947f76ef76b762a7",
  "confirmations": 1289,
  "strippedsize": 1102,
  "size": 1138,
  "weight": 4444,
  "height": 1359705,
  "version": 536870912,
  "versionHex": "20000000",
  "merkleroot": "1647811ad1c30f507aedb178fc0e52f39d3fdabc2a78605940d3d495d17627d0",
  "tx": [
    {
      "txid": "123983008dc5dd11aeefe218779531f59d4e1f9f5ee0767df54d952a95da4776",
      "hash": "5992accdb738a02adbd3ce83a1aa2c3687d8e8dc460ef19730469ff065c37094",
      "version": 1,
      "size": 200,
      "vsize": 173,
      "locktime": 0,
      "vin": [
        {
          "coinbase": "0359bf14042979705a080800008eaf0400000d2f6e6f64655374726174756d2f",
          "sequence": 0
        }
      ],
      "vout": [
        {
          "value": 0.00000000,
          "n": 0,
          "scriptPubKey": {
            "asm": "OP_RETURN aa21a9ed2d779988ce446bbf9d92c9402cdcd219695d4ed83ed7bc1adb96d051a15f04f5",
            "hex": "6a24aa21a9ed2d779988ce446bbf9d92c9402cdcd219695d4ed83ed7bc1adb96d051a15f04f5",
            "type": "nulldata"
          }
        }, 
        {
          "value": 25.00274500,
          "n": 1,
          "scriptPubKey": {
            "asm": "OP_DUP OP_HASH160 8836a0d567257e801254e29be08629fb71f36f9f OP_EQUALVERIFY OP_CHECKSIG",
            "hex": "76a9148836a0d567257e801254e29be08629fb71f36f9f88ac",
            "reqSigs": 1,
            "type": "pubkeyhash",
            "addresses": [
              "LXeBbwTXnzwSUzSbVubDZu4brFzmMjehn3"
            ]
          }
        }
      ],
      "hex": "010000000001010000000000000000000000000000000000000000000000000000000000000000ffffffff200359bf14042979705a080800008eaf0400000d2f6e6f64655374726174756d2f00000000020000000000000000266a24aa21a9ed2d779988ce446bbf9d92c9402cdcd219695d4ed83ed7bc1adb96d051a15f04f544290795000000001976a9148836a0d567257e801254e29be08629fb71f36f9f88ac0120000000000000000000000000000000000000000000000000000000000000000000000000"
    }, 
    {
      "txid": "18221281f991cf19f9f16613924ae914b63df8334ef9c558f8a49fed3e873dfa",
      "hash": "18221281f991cf19f9f16613924ae914b63df8334ef9c558f8a49fed3e873dfa",
      "version": 1,
      "size": 336,
      "vsize": 336,
      "locktime": 0,
      "vin": [
        {
          "txid": "983bb2ae0d135a6a639db768555de4151afcbd159e82994d8a069c611b1d7818",
          "vout": 1,
          "scriptSig": {
            "asm": "0 3045022100aac408c0ba1a049bea5c78b0f9cc84c28f6b422a4ec9d5457fe418be19ecd9260220331b8bb8d45d919f3d5b37e3e725285372bdd4eed995f2be398082c3163739d1[ALL] 3045022100e1fb07d8fc22a69dd3c55337c670c2aa7db087ad37dbb429a312ee0ecb736f9d022056e89dd21d733066003e4fe39eb5e66c46e04b3484a75716649825f589f722f7[ALL] 522102f77ec37a042ba4e5e6aef7760398bf59b87ac4c5dee30a2fb8798e9630d4916e210276b93401dc495b28592f66411a7c9093b468f8678db51144fc6a36f550d94aa952ae",
            "hex": "00483045022100aac408c0ba1a049bea5c78b0f9cc84c28f6b422a4ec9d5457fe418be19ecd9260220331b8bb8d45d919f3d5b37e3e725285372bdd4eed995f2be398082c3163739d101483045022100e1fb07d8fc22a69dd3c55337c670c2aa7db087ad37dbb429a312ee0ecb736f9d022056e89dd21d733066003e4fe39eb5e66c46e04b3484a75716649825f589f722f70147522102f77ec37a042ba4e5e6aef7760398bf59b87ac4c5dee30a2fb8798e9630d4916e210276b93401dc495b28592f66411a7c9093b468f8678db51144fc6a36f550d94aa952ae"
          },
          "sequence": 4294967295
        }
      ],
      "vout": [
        {
          "value": 0.06574100,
          "n": 0,
          "scriptPubKey": {
            "asm": "OP_DUP OP_HASH160 45456b76abbaba04b2c8e9b71d50931028523d0b OP_EQUALVERIFY OP_CHECKSIG",
            "hex": "76a91445456b76abbaba04b2c8e9b71d50931028523d0b88ac",
            "reqSigs": 1,
            "type": "pubkeyhash",
            "addresses": [
              "LRYE3pXFJKKr8ySDtsDdoqmn8tCdf9fY4g"
            ]
          }
        }, 
        {
          "value": 35.50725800,
          "n": 1,
          "scriptPubKey": {
            "asm": "OP_HASH160 75b77316f8d91ff71fb2819115d1b6b9e80ccee9 OP_EQUAL",
            "hex": "a91475b77316f8d91ff71fb2819115d1b6b9e80ccee987",
            "reqSigs": 1,
            "type": "scripthash",
            "addresses": [
              "MJdb4B3BMDrfpB1FpKsPYQ1tDHdkNa1oLB"
            ]
          }
        }
      ],
      "hex": "010000000118781d1b619c068a4d99829e15bdfc1a15e45d5568b79d636a5a130daeb23b9801000000db00483045022100aac408c0ba1a049bea5c78b0f9cc84c28f6b422a4ec9d5457fe418be19ecd9260220331b8bb8d45d919f3d5b37e3e725285372bdd4eed995f2be398082c3163739d101483045022100e1fb07d8fc22a69dd3c55337c670c2aa7db087ad37dbb429a312ee0ecb736f9d022056e89dd21d733066003e4fe39eb5e66c46e04b3484a75716649825f589f722f70147522102f77ec37a042ba4e5e6aef7760398bf59b87ac4c5dee30a2fb8798e9630d4916e210276b93401dc495b28592f66411a7c9093b468f8678db51144fc6a36f550d94aa952aeffffffff0214506400000000001976a91445456b76abbaba04b2c8e9b71d50931028523d0b88aca8c6a3d30000000017a91475b77316f8d91ff71fb2819115d1b6b9e80ccee98700000000"
    }, 
    {
      "txid": "b9dee3fae2019828710327df4eaaf85b35f2c79df3b6d42e1481960c1af7b1d4",
      "hash": "b9dee3fae2019828710327df4eaaf85b35f2c79df3b6d42e1481960c1af7b1d4",
      "version": 1,
      "size": 521,
      "vsize": 521,
      "locktime": 1359702,
      "vin": [
        {
          "txid": "9e16f170e7bed87c86a57e0a18ac6ef265373679b992ce1c975f39dee7334327",
          "vout": 0,
          "scriptSig": {
            "asm": "304402205dffeeffef688ef91c52283fe517fbec3cad90b58c65dcd32bc2f1b050868e0d022000bc44d28c6ab4d099b5a98f6e7196b29d2aa01f0d63591c64aa08e04926ee63[ALL] 02f9684430aa1d9a26570efb1150bfeee56e50ab7c82e6b607675f65e209ce9c29",
            "hex": "47304402205dffeeffef688ef91c52283fe517fbec3cad90b58c65dcd32bc2f1b050868e0d022000bc44d28c6ab4d099b5a98f6e7196b29d2aa01f0d63591c64aa08e04926ee63012102f9684430aa1d9a26570efb1150bfeee56e50ab7c82e6b607675f65e209ce9c29"
          },
          "sequence": 4294967294
        }, 
        {
          "txid": "b42e0c1c4949aa0040e04a652ec1abd5c4639fb4ea8c44fafd6473f50207153e",
          "vout": 0,
          "scriptSig": {
            "asm": "3045022100b29d6180bf314fe9dde3e7381e74159e0d1b167c79da152b0d2c122c3d48be23022074a214c8d9958ebb58d9a830a65d5cd36ad9aa12a129f0814ea9b27e07095a32[ALL] 029dd75916d2d7c7ece7ab0831d9aea26d798ac3ef6f43db00289fbc60ab217670",
            "hex": "483045022100b29d6180bf314fe9dde3e7381e74159e0d1b167c79da152b0d2c122c3d48be23022074a214c8d9958ebb58d9a830a65d5cd36ad9aa12a129f0814ea9b27e07095a320121029dd75916d2d7c7ece7ab0831d9aea26d798ac3ef6f43db00289fbc60ab217670"
          },
          "sequence": 4294967294
        }, 
        {
          "txid": "d03502a60cc3858722cb78ab9a9de8853acd8a70db262ff560280eae9f2e2510",
          "vout": 0,
          "scriptSig": {
            "asm": "3045022100aed8ce2ca845b4280d7c6b30192c33a4a9c9bd7634de6ff14c48556a5d0785e30220427965aa459d6d0c9b37d3a979f5390e9efb31d67ec751be3dc07093ba4257b1[ALL] 033c5b1539ba3695e66311c8df67c8a3b9b1e0581ffe54a2bdd5989698e86d262f",
            "hex": "483045022100aed8ce2ca845b4280d7c6b30192c33a4a9c9bd7634de6ff14c48556a5d0785e30220427965aa459d6d0c9b37d3a979f5390e9efb31d67ec751be3dc07093ba4257b10121033c5b1539ba3695e66311c8df67c8a3b9b1e0581ffe54a2bdd5989698e86d262f"
          },
          "sequence": 4294967294
        }
      ],
      "vout": [
        {
          "value": 0.84045460,
          "n": 0,
          "scriptPubKey": {
            "asm": "OP_DUP OP_HASH160 076a28e9b064901156ebc2805eceb1df6b8e9860 OP_EQUALVERIFY OP_CHECKSIG",
            "hex": "76a914076a28e9b064901156ebc2805eceb1df6b8e986088ac",
            "reqSigs": 1,
            "type": "pubkeyhash",
            "addresses": [
              "LKuAAfmF2XjgMbiEXFDa4kxxFY3NzQs9n5"
            ]
          }
        }, 
        {
          "value": 0.01001039,
          "n": 1,
          "scriptPubKey": {
            "asm": "OP_DUP OP_HASH160 39cd6a96001a9d6df63f2e24df9c391226bc9655 OP_EQUALVERIFY OP_CHECKSIG",
            "hex": "76a91439cd6a96001a9d6df63f2e24df9c391226bc965588ac",
            "reqSigs": 1,
            "type": "pubkeyhash",
            "addresses": [
              "LQVarj3M7UXoVXY4bjradd8TaqkdQfMKBd"
            ]
          }
        }
      ],
      "hex": "0100000003274333e7de395f971cce92b979363765f26eac180a7ea5867cd8bee770f1169e000000006a47304402205dffeeffef688ef91c52283fe517fbec3cad90b58c65dcd32bc2f1b050868e0d022000bc44d28c6ab4d099b5a98f6e7196b29d2aa01f0d63591c64aa08e04926ee63012102f9684430aa1d9a26570efb1150bfeee56e50ab7c82e6b607675f65e209ce9c29feffffff3e150702f57364fdfa448ceab49f63c4d5abc12e654ae04000aa49491c0c2eb4000000006b483045022100b29d6180bf314fe9dde3e7381e74159e0d1b167c79da152b0d2c122c3d48be23022074a214c8d9958ebb58d9a830a65d5cd36ad9aa12a129f0814ea9b27e07095a320121029dd75916d2d7c7ece7ab0831d9aea26d798ac3ef6f43db00289fbc60ab217670feffffff10252e9fae0e2860f52f26db708acd3a85e89d9aab78cb228785c30ca60235d0000000006b483045022100aed8ce2ca845b4280d7c6b30192c33a4a9c9bd7634de6ff14c48556a5d0785e30220427965aa459d6d0c9b37d3a979f5390e9efb31d67ec751be3dc07093ba4257b10121033c5b1539ba3695e66311c8df67c8a3b9b1e0581ffe54a2bdd5989698e86d262ffeffffff02946e0205000000001976a914076a28e9b064901156ebc2805eceb1df6b8e986088ac4f460f00000000001976a91439cd6a96001a9d6df63f2e24df9c391226bc965588ac56bf1400"
    }
  ],
  "time": 1517320488,
  "mediantime": 1517319880,
  "nonce": 3668702298,
  "bits": "1a042eae",
  "difficulty": 4011378.762614286,
  "chainwork": "00000000000000000000000000000000000000000000003441194874cdc622b4",
  "previousblockhash": "09de5a2ee65678b5361b01976e56047926edf6a25b36030de0e7d70222214b36",
  "nextblockhash": "1d5446224c5caa221fb2bd47d070fc6989953a55e69448c233c8134002005e76"
}
