{
  "hash": "97bf5f1f0841fbaddada2b3085825583f8ad9407fed7c1eb3cb1f53a0fbaeac6",
  "confirmations": 2495,
  "strippedsize": 3282,
  "size": 3540,
  "weight": 13386,
  "height": 1358500,
  "version": 536870912,
  "versionHex": "20000000",
  "merkleroot": "13f26d99cb67094cfb2cc36d9fe8d84bafc0f205c7558a1fa00c81d57dbd4e4e",
  "tx": [
    {
      "txid": "9ac74cac924d25480942d88ccd5fda401e963c1ec75dfae47ac7895d096792f5",
      "hash": "afc5190017dd62077d4006319c6bb7d52e2606bc1e6caa30d7dce9920730d66a",
      "version": 1,
      "size": 236,
      "vsize": 209,
      "locktime": 0,
      "vin": [
        {
          "coinbase": "03a4ba14045a6de2e22cfabe6d6dbcf06ed1a8e56c9c20e7a7a0470ce206188c3a4faa4c04c8cd1ea8962109b6d64000000000000000042f4c502f08570006b126000000",
          "sequence": 4294967295
        }
      ],
      "vout": [
        {
          "value": 25.00764360,
          "n": 0,
          "scriptPubKey": {
            "asm": "OP_DUP OP_HASH160 57757ed2ecf2052ff3126c397aca7defb9ca2cec OP_EQUALVERIFY OP_CHECKSIG",
            "hex": "76a91457757ed2ecf2052ff3126c397aca7defb9ca2cec88ac",
            "reqSigs": 1,
            "type": "pubkeyhash",
            "addresses": [
              "LTCPodGk5FwcJaRzH9yKnwicxzFUbxp6tN"
            ]
          }
        }, 
        {
          "value": 0.00000000,
          "n": 1,
          "scriptPubKey": {
            "asm": "OP_RETURN aa21a9edf560f5cab957a5bf17870813843ad752d0951b7d7def8955fa80fe65a73f98b0",
            "hex": "6a24aa21a9edf560f5cab957a5bf17870813843ad752d0951b7d7def8955fa80fe65a73f98b0",
            "type": "nulldata"
          }
        }
      ],
      "hex": "010000000001010000000000000000000000000000000000000000000000000000000000000000ffffffff4403a4ba14045a6de2e22cfabe6d6dbcf06ed1a8e56c9c20e7a7a0470ce206188c3a4faa4c04c8cd1ea8962109b6d64000000000000000042f4c502f08570006b126000000ffffffff02c8a20e95000000001976a91457757ed2ecf2052ff3126c397aca7defb9ca2cec88ac0000000000000000266a24aa21a9edf560f5cab957a5bf17870813843ad752d0951b7d7def8955fa80fe65a73f98b00120000000000000000000000000000000000000000000000000000000000000000000000000"
    }, 
    {
      "txid": "5f8595b10712dc551c27f740a6d1da6ef983426e33de1d2497b0d4d3650ec6a6",
      "hash": "5f8595b10712dc551c27f740a6d1da6ef983426e33de1d2497b0d4d3650ec6a6",
      "version": 1,
      "size": 224,
      "vsize": 224,
      "locktime": 0,
      "vin": [
        {
          "txid": "aeefc6a4fdad43f85a658786ce0090a162b7bcc47372d3ac2df2276c35df0cd5",
          "vout": 1,
          "scriptSig": {
            "asm": "30430220171f0b507df6e2453b8ec68a245b224d19b524f687f7970abdbbb4187d18b59c021f357f938d235e4126a97c49c0ca60656e8300b922fd849a5b383c88d76258f1[ALL] 038fe4ca2e5485f6f900892ddc4b28b6b710a9d2afa2836ece777b316f5d5b6270",
            "hex": "4630430220171f0b507df6e2453b8ec68a245b224d19b524f687f7970abdbbb4187d18b59c021f357f938d235e4126a97c49c0ca60656e8300b922fd849a5b383c88d76258f10121038fe4ca2e5485f6f900892ddc4b28b6b710a9d2afa2836ece777b316f5d5b6270"
          },
          "sequence": 4294967295
        }
      ],
      "vout": [
        {
          "value": 27.81446000,
          "n": 0,
          "scriptPubKey": {
            "asm": "OP_DUP OP_HASH160 03fd4d00b65d415046ef3a844dbfdda4300f40d9 OP_EQUALVERIFY OP_CHECKSIG",
            "hex": "76a91403fd4d00b65d415046ef3a844dbfdda4300f40d988ac",
            "reqSigs": 1,
            "type": "pubkeyhash",
            "addresses": [
              "LKb3jSFEmgLqyCFHLTFPk59dRQneEjuMX1"
            ]
          }
        }, 
        {
          "value": 136.10016599,
          "n": 1,
          "scriptPubKey": {
            "asm": "OP_DUP OP_HASH160 64599d4535e18780d67440ec7867e8a548e0f72e OP_EQUALVERIFY OP_CHECKSIG",
            "hex": "76a91464599d4535e18780d67440ec7867e8a548e0f72e88ac",
            "reqSigs": 1,
            "type": "pubkeyhash",
            "addresses": [
              "LUNZBuhNg4jh5XYgDWuNTKrXrReigeY25m"
            ]
          }
        }
      ],
      "hex": "0100000001d50cdf356c27f22dacd37273c4bcb762a19000ce8687655af843adfda4c6efae01000000694630430220171f0b507df6e2453b8ec68a245b224d19b524f687f7970abdbbb4187d18b59c021f357f938d235e4126a97c49c0ca60656e8300b922fd849a5b383c88d76258f10121038fe4ca2e5485f6f900892ddc4b28b6b710a9d2afa2836ece777b316f5d5b6270ffffffff02707fc9a5000000001976a91403fd4d00b65d415046ef3a844dbfdda4300f40d988ac575f382b030000001976a91464599d4535e18780d67440ec7867e8a548e0f72e88ac00000000"
    }, 
    {
      "txid": "e123989ec2d9e6bc5154a2de17e864dfbd183cf6b5df31bb78fa1d66895e77f0",
      "hash": "e123989ec2d9e6bc5154a2de17e864dfbd183cf6b5df31bb78fa1d66895e77f0",
      "version": 1,
      "size": 226,
      "vsize": 226,
      "locktime": 0,
      "vin": [
        {
          "txid": "eb79eb9e4b16ec5b833bbb203a96062867b81562395153b7a805c2bf2ab6240d",
          "vout": 1,
          "scriptSig": {
            "asm": "3045022100a6e7e2aafc5aa63dbaf2692ce81e2b72854a57c1376d6d838de6748df52380aa02205393b90aebdb9c3a89bbbe77a1a574c76b88e481f8277e5d8f9a4f7113db0bf8[ALL] 030584665036fe1aa9b78c8b05973910cb071b4ce389d8f2ab6e94dcc510c7dc96",
            "hex": "483045022100a6e7e2aafc5aa63dbaf2692ce81e2b72854a57c1376d6d838de6748df52380aa02205393b90aebdb9c3a89bbbe77a1a574c76b88e481f8277e5d8f9a4f7113db0bf80121030584665036fe1aa9b78c8b05973910cb071b4ce389d8f2ab6e94dcc510c7dc96"
          },
          "sequence": 4294967295
        }
      ],
      "vout": [
        {
          "value": 11.99900000,
          "n": 0,
          "scriptPubKey": {
            "asm": "OP_DUP OP_HASH160 1aa945e60479f6119c36e1c133974af669c3e3d2 OP_EQUALVERIFY OP_CHECKSIG",
            "hex": "76a9141aa945e60479f6119c36e1c133974af669c3e3d288ac",
            "reqSigs": 1,
            "type": "pubkeyhash",
            "addresses": [
              "LMevcVpTw8mC8AJrHUqbkmf9hmJwmgLvrz"
            ]
          }
        }, 
        {
          "value": 151.91292881,
          "n": 1,
          "scriptPubKey": {
            "asm": "OP_DUP OP_HASH160 8b888dcc99c44b03b33001230aaebc48ef84c6ea OP_EQUALVERIFY OP_CHECKSIG",
            "hex": "76a9148b888dcc99c44b03b33001230aaebc48ef84c6ea88ac",
            "reqSigs": 1,
            "type": "pubkeyhash",
            "addresses": [
              "LXwjmosdcFWxswqba8uzw1ZBUjKXtULPZy"
            ]
          }
        }
      ],
      "hex": "01000000010d24b62abfc205a8b75351396215b8672806963a20bb3b835bec164b9eeb79eb010000006b483045022100a6e7e2aafc5aa63dbaf2692ce81e2b72854a57c1376d6d838de6748df52380aa02205393b90aebdb9c3a89bbbe77a1a574c76b88e481f8277e5d8f9a4f7113db0bf80121030584665036fe1aa9b78c8b05973910cb071b4ce389d8f2ab6e94dcc510c7dc96ffffffff0260058547000000001976a9141aa945e60479f6119c36e1c133974af669c3e3d288acd1bb7889030000001976a9148b888dcc99c44b03b33001230aaebc48ef84c6ea88ac00000000"
    }, 
    {
      "txid": "8ec7f466bfc6843687d735b9258f2620bf4bb0b7840e93da609c4e4029d6b16d",
      "hash": "8ec7f466bfc6843687d735b9258f2620bf4bb0b7840e93da609c4e4029d6b16d",
      "version": 1,
      "size": 373,
      "vsize": 373,
      "locktime": 0,
      "vin": [
        {
          "txid": "c33c29fdb21c02942d679f4ab0911e883989dca11726481fd2f52aab19916e62",
          "vout": 1,
          "scriptSig": {
            "asm": "304402205c408022dd72ebe9119fbaf648a6daaf77a58168ecc0b92f842a3079d35d693d0220346a491316c1fa67b717dbeed1104277afb388d943ef9fc51c17738ef1076d93[ALL] 03017801b6fd399412a1f8375ca4544584d6b817bacae3868004e92f28bf806d99",
            "hex": "47304402205c408022dd72ebe9119fbaf648a6daaf77a58168ecc0b92f842a3079d35d693d0220346a491316c1fa67b717dbeed1104277afb388d943ef9fc51c17738ef1076d93012103017801b6fd399412a1f8375ca4544584d6b817bacae3868004e92f28bf806d99"
          },
          "sequence": 4294967295
        }, 
        {
          "txid": "7cb9bf0e1c188b7a19979b9e571a16cef4f6b11938d877a0265acb002cbe1116",
          "vout": 0,
          "scriptSig": {
            "asm": "304502210091210f6e806c29434bd83b2ac84806419a530a258ea8ebfc771c668c0cac290c02201231403ae12394d1435a4b08e91147cd4c3f97cac8b64cdc9cc4f2f00ecbdc0c[ALL] 020e801175e5772b8148c3b28bbe9e125bfca0d161b804fba96cf3d780d419542a",
            "hex": "48304502210091210f6e806c29434bd83b2ac84806419a530a258ea8ebfc771c668c0cac290c02201231403ae12394d1435a4b08e91147cd4c3f97cac8b64cdc9cc4f2f00ecbdc0c0121020e801175e5772b8148c3b28bbe9e125bfca0d161b804fba96cf3d780d419542a"
          },
          "sequence": 4294967295
        }
      ],
      "vout": [
        {
          "value": 0.93574200,
          "n": 0,
          "scriptPubKey": {
            "asm": "OP_DUP OP_HASH160 0894e6690dd98a63b7b582ee9327000e122403f8 OP_EQUALVERIFY OP_CHECKSIG",
            "hex": "76a9140894e6690dd98a63b7b582ee9327000e122403f888ac",
            "reqSigs": 1,
            "type": "pubkeyhash",
            "addresses": [
              "LL1L3WBBbYPrz2hyagyErY7st8uohpZjgq"
            ]
          }
        }, 
        {
          "value": 1.05163529,
          "n": 1,
          "scriptPubKey": {
            "asm": "OP_DUP OP_HASH160 0dbd35bb455e8768d0ded160ccada80106fbce4e OP_EQUALVERIFY OP_CHECKSIG",
            "hex": "76a9140dbd35bb455e8768d0ded160ccada80106fbce4e88ac",
            "reqSigs": 1,
            "type": "pubkeyhash",
            "addresses": [
              "LLUbiEtoq8PrL5oWj3zK9QCDZdkfbqGZRB"
            ]
          }
        }
      ],
      "hex": "0100000002626e9119ab2af5d21f482617a1dc8939881e91b04a9f672d94021cb2fd293cc3010000006a47304402205c408022dd72ebe9119fbaf648a6daaf77a58168ecc0b92f842a3079d35d693d0220346a491316c1fa67b717dbeed1104277afb388d943ef9fc51c17738ef1076d93012103017801b6fd399412a1f8375ca4544584d6b817bacae3868004e92f28bf806d99ffffffff1611be2c00cb5a26a077d83819b1f6f4ce161a579e9b97197a8b181c0ebfb97c000000006b48304502210091210f6e806c29434bd83b2ac84806419a530a258ea8ebfc771c668c0cac290c02201231403ae12394d1435a4b08e91147cd4c3f97cac8b64cdc9cc4f2f00ecbdc0c0121020e801175e5772b8148c3b28bbe9e125bfca0d161b804fba96cf3d780d419542affffffff0238d49305000000001976a9140894e6690dd98a63b7b582ee9327000e122403f888ac09ab4406000000001976a9140dbd35bb455e8768d0ded160ccada80106fbce4e88ac00000000"
    }, 
    {
      "txid": "2366bf800204f4264d3f899768c3b165624c5218707eeeef3e4d38e9ee258dce",
      "hash": "2366bf800204f4264d3f899768c3b165624c5218707eeeef3e4d38e9ee258dce",
      "version": 1,
      "size": 225,
      "vsize": 225,
      "locktime": 0,
      "vin": [
        {
          "txid": "dcdfaed3976b87768b2010846e59b2722c415e63580531105fd7204a6eee963a",
          "vout": 3,
          "scriptSig": {
            "asm": "304402200da635b9e7178412b4c626d209d29671e002633a9c8cfdb7005ef344305fec3402203076252ed32fd35b3e233b8211febc187bc7829136b6802fffe065a0f0fd9496[ALL] 0328c9ae635abf580c261c44815dc1aac309e16ff26250525b7e99951369d2b8c7",
            "hex": "47304402200da635b9e7178412b4c626d209d29671e002633a9c8cfdb7005ef344305fec3402203076252ed32fd35b3e233b8211febc187bc7829136b6802fffe065a0f0fd949601210328c9ae635abf580c261c44815dc1aac309e16ff26250525b7e99951369d2b8c7"
          },
          "sequence": 4294967295
        }
      ],
      "vout": [
        {
          "value": 0.33879484,
          "n": 0,
          "scriptPubKey": {
            "asm": "OP_DUP OP_HASH160 179721ba666740985534dff61320f8e19682b4a3 OP_EQUALVERIFY OP_CHECKSIG",
            "hex": "76a914179721ba666740985534dff61320f8e19682b4a388ac",
            "reqSigs": 1,
            "type": "pubkeyhash",
            "addresses": [
              "LMNgrSfGrAn3MFoF9CH3bpTWB2uSJ9ix4T"
            ]
          }
        }, 
        {
          "value": 5.59575604,
          "n": 1,
          "scriptPubKey": {
            "asm": "OP_DUP OP_HASH160 c6e3836c2f4cd8f9c53e32813ded99ac0ce001f1 OP_EQUALVERIFY OP_CHECKSIG",
            "hex": "76a914c6e3836c2f4cd8f9c53e32813ded99ac0ce001f188ac",
            "reqSigs": 1,
            "type": "pubkeyhash",
            "addresses": [
              "LdMac6qdwFnBCVXN96dvoPjzbcE36gzs64"
            ]
          }
        }
      ],
      "hex": "01000000013a96ee6e4a20d75f10310558635e412c72b2596e8410208b76876b97d3aedfdc030000006a47304402200da635b9e7178412b4c626d209d29671e002633a9c8cfdb7005ef344305fec3402203076252ed32fd35b3e233b8211febc187bc7829136b6802fffe065a0f0fd949601210328c9ae635abf580c261c44815dc1aac309e16ff26250525b7e99951369d2b8c7ffffffff02bcf50402000000001976a914179721ba666740985534dff61320f8e19682b4a388ac34725a21000000001976a914c6e3836c2f4cd8f9c53e32813ded99ac0ce001f188ac00000000"
    }, 
    {
      "txid": "636bb75f9d9164a9df8e040b8e041e8252addfd4e1034b26b9b9d99a19699ce1",
      "hash": "e7baaba3b2e87cec7c6dbb31fa22b1a2e05d8d1100d192f6135902a140a62a7f",
      "version": 1,
      "size": 374,
      "vsize": 208,
      "locktime": 0,
      "vin": [
        {
          "txid": "6db842412fcefa0bb88024606686f4a650d408207c3c8519d0a466bfb2ac8406",
          "vout": 1,
          "scriptSig": {
            "asm": "002077b6917beb44e5c5f59caad411269d902a45c6711b4ae081396da3709f1036e3",
            "hex": "22002077b6917beb44e5c5f59caad411269d902a45c6711b4ae081396da3709f1036e3"
          },
          "txinwitness": [
            "", 
            "3045022100e4d26863e0f375410d19add6892845f6d7cbb13272d4791e6e15b163ef4f270e02201d51751f472e849c375b5ec61d5d7a7a01b19d239ae2c933c6000dbbc862038001", 
            "3045022100ec2785e745734a0fe936da642705ec74e7623f722b61a6166b98432e0524a8ec02207ca762123761e720b8658682faf7551d1c9c7b2dd0691ee5aaf52262f28804b801", 
            "522102195643ac2f946c6fafdb6268da3b463dd1680641c69fb4f5c1f1cc45a0a5955421035601f3a2305646caace0c463b02eba89c2b789e281cef04109061d879d5bb51352ae"
          ],
          "sequence": 4294967295
        }
      ],
      "vout": [
        {
          "value": 0.10000000,
          "n": 0,
          "scriptPubKey": {
            "asm": "OP_DUP OP_HASH160 e963e35de0baa63226892e874aa30b2130ed3e98 OP_EQUALVERIFY OP_CHECKSIG",
            "hex": "76a914e963e35de0baa63226892e874aa30b2130ed3e9888ac",
            "reqSigs": 1,
            "type": "pubkeyhash",
            "addresses": [
              "LgW1NG2d77QQoRCxKfmJej1VZKb5G58sou"
            ]
          }
        }, 
        {
          "value": 0.19956800,
          "n": 1,
          "scriptPubKey": {
            "asm": "OP_HASH160 87c99b6dc8943bc5e572fe14a0e2072f968fe702 OP_EQUAL",
            "hex": "a91487c99b6dc8943bc5e572fe14a0e2072f968fe70287",
            "reqSigs": 1,
            "type": "scripthash",
            "addresses": [
              "MLH8yEiHsJbGEew3F3S2NY3Rn2ohygS5CF"
            ]
          }
        }
      ],
      "hex": "010000000001010684acb2bf66a4d019853c7c2008d450a6f48666602480b80bface2f4142b86d010000002322002077b6917beb44e5c5f59caad411269d902a45c6711b4ae081396da3709f1036e3ffffffff0280969800000000001976a914e963e35de0baa63226892e874aa30b2130ed3e9888ac408430010000000017a91487c99b6dc8943bc5e572fe14a0e2072f968fe702870400483045022100e4d26863e0f375410d19add6892845f6d7cbb13272d4791e6e15b163ef4f270e02201d51751f472e849c375b5ec61d5d7a7a01b19d239ae2c933c6000dbbc862038001483045022100ec2785e745734a0fe936da642705ec74e7623f722b61a6166b98432e0524a8ec02207ca762123761e720b8658682faf7551d1c9c7b2dd0691ee5aaf52262f28804b80147522102195643ac2f946c6fafdb6268da3b463dd1680641c69fb4f5c1f1cc45a0a5955421035601f3a2305646caace0c463b02eba89c2b789e281cef04109061d879d5bb51352ae00000000"
    }, 
    {
      "txid": "c63a120aaf2d4a359d23804817a7d4cda5f327a7f0d64266caea67abe239c61b",
      "hash": "c63a120aaf2d4a359d23804817a7d4cda5f327a7f0d64266caea67abe239c61b",
      "version": 1,
      "size": 225,
      "vsize": 225,
      "locktime": 0,
      "vin": [
        {
          "txid": "7d039096874613b9097fc3d98905fbb3d1a67087b48cf70ed2def04124b6fbb8",
          "vout": 1,
          "scriptSig": {
            "asm": "304402204f5b2152b44c58692e95783484cb18a0289a40b3757c1bece19e51394b490a9a02206ff030cedd40e3bf3dfc11db4ed2ab55ca8536ec1bcf80b4926a21f1696e3e84[ALL] 02780128a867553cf4d10a0b57275788dd7f964822e89f46802f5b84939cd45963",
            "hex": "47304402204f5b2152b44c58692e95783484cb18a0289a40b3757c1bece19e51394b490a9a02206ff030cedd40e3bf3dfc11db4ed2ab55ca8536ec1bcf80b4926a21f1696e3e84012102780128a867553cf4d10a0b57275788dd7f964822e89f46802f5b84939cd45963"
          },
          "sequence": 4294967295
        }
      ],
      "vout": [
        {
          "value": 0.66798000,
          "n": 0,
          "scriptPubKey": {
            "asm": "OP_DUP OP_HASH160 4f8c0c04d6efbc8bbb59b2baba6cfe76b65c9fcb OP_EQUALVERIFY OP_CHECKSIG",
            "hex": "76a9144f8c0c04d6efbc8bbb59b2baba6cfe76b65c9fcb88ac",
            "reqSigs": 1,
            "type": "pubkeyhash",
            "addresses": [
              "LSUZQzxxwifKEVBQTPQsHdsqZDh6KC2AEb"
            ]
          }
        }, 
        {
          "value": 0.04143286,
          "n": 1,
          "scriptPubKey": {
            "asm": "OP_DUP OP_HASH160 45de06f4de1750dbad0fa1b2b5fb918b758c106a OP_EQUALVERIFY OP_CHECKSIG",
            "hex": "76a91445de06f4de1750dbad0fa1b2b5fb918b758c106a88ac",
            "reqSigs": 1,
            "type": "pubkeyhash",
            "addresses": [
              "LRbNsAgjqewG1C72jomN8s8eSs9dFYnQQW"
            ]
          }
        }
      ],
      "hex": "0100000001b8fbb62441f0ded20ef78cb48770a6d1b3fb0589d9c37f09b91346879690037d010000006a47304402204f5b2152b44c58692e95783484cb18a0289a40b3757c1bece19e51394b490a9a02206ff030cedd40e3bf3dfc11db4ed2ab55ca8536ec1bcf80b4926a21f1696e3e84012102780128a867553cf4d10a0b57275788dd7f964822e89f46802f5b84939cd45963ffffffff02b041fb03000000001976a9144f8c0c04d6efbc8bbb59b2baba6cfe76b65c9fcb88acb6383f00000000001976a91445de06f4de1750dbad0fa1b2b5fb918b758c106a88ac00000000"
    }, 
    {
      "txid": "7ba9901d4c80b5e2dac9d3ce1a83ef3849c2195cea0b5201dc6c65c76440e24c",
      "hash": "7ba9901d4c80b5e2dac9d3ce1a83ef3849c2195cea0b5201dc6c65c76440e24c",
      "version": 2,
      "size": 225,
      "vsize": 225,
      "locktime": 1358497,
      "vin": [
        {
          "txid": "7200cd8156b4a18c0603489e71953f68f875617490f3b2a4f67d16c307ba6245",
          "vout": 0,
          "scriptSig": {
            "asm": "3044022035e123817c83e59bd9becc1e0f39eb81892e4a2867db9d88aea029c1875c82bc0220245bc2cdf913a939e9ed873d6cf8924cc7a35db18a9dbabd0cbe831046126497[ALL] 0342f0508a0e63eb14e63055ec5014a023ff464d9a11b7be1c58e07ed2b27d9cad",
            "hex": "473044022035e123817c83e59bd9becc1e0f39eb81892e4a2867db9d88aea029c1875c82bc0220245bc2cdf913a939e9ed873d6cf8924cc7a35db18a9dbabd0cbe83104612649701210342f0508a0e63eb14e63055ec5014a023ff464d9a11b7be1c58e07ed2b27d9cad"
          },
          "sequence": 4294967294
        }
      ],
      "vout": [
        {
          "value": 0.00977400,
          "n": 0,
          "scriptPubKey": {
            "asm": "OP_DUP OP_HASH160 200eea0c788713b1d02afa3a647dbc58857acb1d OP_EQUALVERIFY OP_CHECKSIG",
            "hex": "76a914200eea0c788713b1d02afa3a647dbc58857acb1d88ac",
            "reqSigs": 1,
            "type": "pubkeyhash",
            "addresses": [
              "LN9TkcT9UNbApWPSHxdYUQmrT61GGw5Qpv"
            ]
          }
        }, 
        {
          "value": 0.14530000,
          "n": 1,
          "scriptPubKey": {
            "asm": "OP_DUP OP_HASH160 3c99754858700ecf0fa1f8f602672de912c31680 OP_EQUALVERIFY OP_CHECKSIG",
            "hex": "76a9143c99754858700ecf0fa1f8f602672de912c3168088ac",
            "reqSigs": 1,
            "type": "pubkeyhash",
            "addresses": [
              "LQkNeBT7pHiAENYSzbyXLDGsQ51bZgZQ1e"
            ]
          }
        }
      ],
      "hex": "02000000014562ba07c3167df6a4b2f390746175f8683f95719e4803068ca1b45681cd0072000000006a473044022035e123817c83e59bd9becc1e0f39eb81892e4a2867db9d88aea029c1875c82bc0220245bc2cdf913a939e9ed873d6cf8924cc7a35db18a9dbabd0cbe83104612649701210342f0508a0e63eb14e63055ec5014a023ff464d9a11b7be1c58e07ed2b27d9cadfeffffff02f8e90e00000000001976a914200eea0c788713b1d02afa3a647dbc58857acb1d88acd0b5dd00000000001976a9143c99754858700ecf0fa1f8f602672de912c3168088aca1ba1400"
    }, 
    {
      "txid": "d202105fe48695c13a58ec44a5f4dc527e9e8bb2ceb054977a92c81212f2c95a",
      "hash": "d202105fe48695c13a58ec44a5f4dc527e9e8bb2ceb054977a92c81212f2c95a",
      "version": 1,
      "size": 225,
      "vsize": 225,
      "locktime": 0,
      "vin": [
        {
          "txid": "7c39aa6ec8e26095c71f2742477835df59e8bf346d7b8c47afdddedc4ed495a3",
          "vout": 0,
          "scriptSig": {
            "asm": "304402202f66e17bdd28d80cbf65830a1b647cc55ae04fe90a1ea89bf774e53ef6185e3402203526bf0578025f91967d517bf2750a11506c410349d2f36e260adc88eef9bac5[ALL] 0339ffddc75e4a2c94fc2855e638fb9ea0825df849626e9eb98655c9045ece0332",
            "hex": "47304402202f66e17bdd28d80cbf65830a1b647cc55ae04fe90a1ea89bf774e53ef6185e3402203526bf0578025f91967d517bf2750a11506c410349d2f36e260adc88eef9bac501210339ffddc75e4a2c94fc2855e638fb9ea0825df849626e9eb98655c9045ece0332"
          },
          "sequence": 4294967295
        }
      ],
      "vout": [
        {
          "value": 0.00098232,
          "n": 0,
          "scriptPubKey": {
            "asm": "OP_DUP OP_HASH160 dad4f81463882fe10dc2d518f4d8d7bc20a61a4d OP_EQUALVERIFY OP_CHECKSIG",
            "hex": "76a914dad4f81463882fe10dc2d518f4d8d7bc20a61a4d88ac",
            "reqSigs": 1,
            "type": "pubkeyhash",
            "addresses": [
              "LfB2hP6iNtAr2siMjkJ77jDRkfHgSq9qq2"
            ]
          }
        }, 
        {
          "value": 0.15019739,
          "n": 1,
          "scriptPubKey": {
            "asm": "OP_DUP OP_HASH160 394e7c4ca0efddcfb9ef92e32616d5cd28e6e594 OP_EQUALVERIFY OP_CHECKSIG",
            "hex": "76a914394e7c4ca0efddcfb9ef92e32616d5cd28e6e59488ac",
            "reqSigs": 1,
            "type": "pubkeyhash",
            "addresses": [
              "LQSxoREJdMxQQZ9wtgvzSMrkxdTtUshaN2"
            ]
          }
        }
      ],
      "hex": "0100000001a395d44edcdeddaf478c7b6d34bfe859df35784742271fc79560e2c86eaa397c000000006a47304402202f66e17bdd28d80cbf65830a1b647cc55ae04fe90a1ea89bf774e53ef6185e3402203526bf0578025f91967d517bf2750a11506c410349d2f36e260adc88eef9bac501210339ffddc75e4a2c94fc2855e638fb9ea0825df849626e9eb98655c9045ece0332ffffffff02b87f0100000000001976a914dad4f81463882fe10dc2d518f4d8d7bc20a61a4d88acdb2ee500000000001976a914394e7c4ca0efddcfb9ef92e32616d5cd28e6e59488ac00000000"
    }, 
    {
      "txid": "40c3ac65ded33ec7fd432c2b05f4f6a4415dab99e6ae1f87268804318fa02a89",
      "hash": "40c3ac65ded33ec7fd432c2b05f4f6a4415dab99e6ae1f87268804318fa02a89",
      "version": 2,
      "size": 225,
      "vsize": 225,
      "locktime": 1358498,
      "vin": [
        {
          "txid": "3206ffb4fadc3de7b1b47bdaa95dbdfe3d1c2074096ff82f69952d422964bdb2",
          "vout": 1,
          "scriptSig": {
            "asm": "3044022051e950d47a7b641c5c725cb88837bc50e9f53168760a50a091cbcf400cce99bd022070c7adc90a7852c49b4ec0827aec2ef5f3c8f94e0b634d8e5b879eabace822ba[ALL] 02fd13a869bb0899f5455e6ede8e44f854f9087a66b99506a3305efeff74c0e254",
            "hex": "473044022051e950d47a7b641c5c725cb88837bc50e9f53168760a50a091cbcf400cce99bd022070c7adc90a7852c49b4ec0827aec2ef5f3c8f94e0b634d8e5b879eabace822ba012102fd13a869bb0899f5455e6ede8e44f854f9087a66b99506a3305efeff74c0e254"
          },
          "sequence": 4294967294
        }
      ],
      "vout": [
        {
          "value": 0.50000000,
          "n": 0,
          "scriptPubKey": {
            "asm": "OP_DUP OP_HASH160 67c71b6bc3a0eb0c2f82b17470af98b3693faf46 OP_EQUALVERIFY OP_CHECKSIG",
            "hex": "76a91467c71b6bc3a0eb0c2f82b17470af98b3693faf4688ac",
            "reqSigs": 1,
            "type": "pubkeyhash",
            "addresses": [
              "LUggPBBJqQ2vpVBhPvdBx3igck9Eax2fug"
            ]
          }
        }, 
        {
          "value": 0.48253900,
          "n": 1,
          "scriptPubKey": {
            "asm": "OP_DUP OP_HASH160 2204c49e984ff647244fda9733ee8a3d55ecd891 OP_EQUALVERIFY OP_CHECKSIG",
            "hex": "76a9142204c49e984ff647244fda9733ee8a3d55ecd89188ac",
            "reqSigs": 1,
            "type": "pubkeyhash",
            "addresses": [
              "LNKpx2PkGVnCvnidvTbhk11YQ1HPNLHFPj"
            ]
          }
        }
      ],
      "hex": "0200000001b2bd6429422d95692ff86f0974201c3dfebd5da9da7bb4b1e73ddcfab4ff0632010000006a473044022051e950d47a7b641c5c725cb88837bc50e9f53168760a50a091cbcf400cce99bd022070c7adc90a7852c49b4ec0827aec2ef5f3c8f94e0b634d8e5b879eabace822ba012102fd13a869bb0899f5455e6ede8e44f854f9087a66b99506a3305efeff74c0e254feffffff0280f0fa02000000001976a91467c71b6bc3a0eb0c2f82b17470af98b3693faf4688accc4be002000000001976a9142204c49e984ff647244fda9733ee8a3d55ecd89188aca2ba1400"
    }, 
    {
      "txid": "eb0e23166e4c72727d3cc6ca9aeede9ef89b16ec1f0f9c3b89c8ea72e4b026b7",
      "hash": "eb0e23166e4c72727d3cc6ca9aeede9ef89b16ec1f0f9c3b89c8ea72e4b026b7",
      "version": 1,
      "size": 225,
      "vsize": 225,
      "locktime": 0,
      "vin": [
        {
          "txid": "c10bd7181c1b6a65858d5bf24753f40477a9a8864fa0e820f431ea442919a1ee",
          "vout": 1,
          "scriptSig": {
            "asm": "3044022036b668cdc673fbe50a56e6013b16ff2929afed619d36a8c79fe7024731ef70be02200235f55feb96139d804d344bd260af7587520cfdffe8920a0020777da16fab4d[ALL] 026ce9b053a1940f33b37728215090811dc5201011dee2dad74b9566aa4c6b573f",
            "hex": "473044022036b668cdc673fbe50a56e6013b16ff2929afed619d36a8c79fe7024731ef70be02200235f55feb96139d804d344bd260af7587520cfdffe8920a0020777da16fab4d0121026ce9b053a1940f33b37728215090811dc5201011dee2dad74b9566aa4c6b573f"
          },
          "sequence": 4294967295
        }
      ],
      "vout": [
        {
          "value": 1.00000000,
          "n": 0,
          "scriptPubKey": {
            "asm": "OP_DUP OP_HASH160 93119de7fe5f6081eb3d93653a932ffef4d2579c OP_EQUALVERIFY OP_CHECKSIG",
            "hex": "76a91493119de7fe5f6081eb3d93653a932ffef4d2579c88ac",
            "reqSigs": 1,
            "type": "pubkeyhash",
            "addresses": [
              "LYdahT4zi4KaT4StRWzXtJjCz7VS5wvPKU"
            ]
          }
        }, 
        {
          "value": 0.12302392,
          "n": 1,
          "scriptPubKey": {
            "asm": "OP_DUP OP_HASH160 78d27dac54e62d3b558add4eb4e8de42606ce2b5 OP_EQUALVERIFY OP_CHECKSIG",
            "hex": "76a91478d27dac54e62d3b558add4eb4e8de42606ce2b588ac",
            "reqSigs": 1,
            "type": "pubkeyhash",
            "addresses": [
              "LWEoWQ1bDuHVCSFE5Z5K6DHspJ4mgdrqga"
            ]
          }
        }
      ],
      "hex": "0100000001eea1192944ea31f420e8a04f86a8a97704f45347f25b8d85656a1b1c18d70bc1010000006a473044022036b668cdc673fbe50a56e6013b16ff2929afed619d36a8c79fe7024731ef70be02200235f55feb96139d804d344bd260af7587520cfdffe8920a0020777da16fab4d0121026ce9b053a1940f33b37728215090811dc5201011dee2dad74b9566aa4c6b573fffffffff0200e1f505000000001976a91493119de7fe5f6081eb3d93653a932ffef4d2579c88ac38b8bb00000000001976a91478d27dac54e62d3b558add4eb4e8de42606ce2b588ac00000000"
    }, 
    {
      "txid": "428a87c24e52afe2df51c2e1db3e66b25fa661297654c29fe58d45ebfe3f7fc0",
      "hash": "428a87c24e52afe2df51c2e1db3e66b25fa661297654c29fe58d45ebfe3f7fc0",
      "version": 1,
      "size": 225,
      "vsize": 225,
      "locktime": 0,
      "vin": [
        {
          "txid": "826319db64d88fcdac93b1998d03986bca9d75ac146be4aeb542e01c44a0a999",
          "vout": 1,
          "scriptSig": {
            "asm": "3044022028be23d3e528870e9d454b9d5b423c8957271fd060c8c89fc2239ac8b543f17e0220677ff7e8e4789537e7f8e945dc13de2d964b63d9ab2ff29b4b3abef4725108ec[ALL] 027bfb604a78061ef8834c8703ceae6ce7cffb6b32d7e22727fcada848f5a1a6b8",
            "hex": "473044022028be23d3e528870e9d454b9d5b423c8957271fd060c8c89fc2239ac8b543f17e0220677ff7e8e4789537e7f8e945dc13de2d964b63d9ab2ff29b4b3abef4725108ec0121027bfb604a78061ef8834c8703ceae6ce7cffb6b32d7e22727fcada848f5a1a6b8"
          },
          "sequence": 4294967295
        }
      ],
      "vout": [
        {
          "value": 0.29664239,
          "n": 0,
          "scriptPubKey": {
            "asm": "OP_DUP OP_HASH160 b84a56d88ab7cdd37684c22bdd8ddc0dbf97c505 OP_EQUALVERIFY OP_CHECKSIG",
            "hex": "76a914b84a56d88ab7cdd37684c22bdd8ddc0dbf97c50588ac",
            "reqSigs": 1,
            "type": "pubkeyhash",
            "addresses": [
              "Lc2Peh2MHY268n1PoeTaEpPZho8z49ehnL"
            ]
          }
        }, 
        {
          "value": 0.01732034,
          "n": 1,
          "scriptPubKey": {
            "asm": "OP_DUP OP_HASH160 015750f01cc2fa30942fc11fb760dd897ca6ff2d OP_EQUALVERIFY OP_CHECKSIG",
            "hex": "76a914015750f01cc2fa30942fc11fb760dd897ca6ff2d88ac",
            "reqSigs": 1,
            "type": "pubkeyhash",
            "addresses": [
              "LKM3YEmmya721qr8Vc1cjAgNfUnWaQwPf1"
            ]
          }
        }
      ],
      "hex": "010000000199a9a0441ce042b5aee46b14ac759dca6b98038d99b193accd8fd864db196382010000006a473044022028be23d3e528870e9d454b9d5b423c8957271fd060c8c89fc2239ac8b543f17e0220677ff7e8e4789537e7f8e945dc13de2d964b63d9ab2ff29b4b3abef4725108ec0121027bfb604a78061ef8834c8703ceae6ce7cffb6b32d7e22727fcada848f5a1a6b8ffffffff02efa3c401000000001976a914b84a56d88ab7cdd37684c22bdd8ddc0dbf97c50588acc26d1a00000000001976a914015750f01cc2fa30942fc11fb760dd897ca6ff2d88ac00000000"
    }, 
    {
      "txid": "1eab2e9693d512a64d59c88265d7f7e3fc1a720f03e0089fb38eb052d14a30e9",
      "hash": "1eab2e9693d512a64d59c88265d7f7e3fc1a720f03e0089fb38eb052d14a30e9",
      "version": 1,
      "size": 225,
      "vsize": 225,
      "locktime": 0,
      "vin": [
        {
          "txid": "70f8f31192fd17a1aea8e8f525510ae1bb0b38e9286d202a84ed3c564f3263d1",
          "vout": 16,
          "scriptSig": {
            "asm": "304402200ed301eff7faa8e939c81bbc720006d1040b6ef2e8ba739ea73adbaaba54a09602201a97324176d533a226e9b2192be553c731225485a582f2a943e156bac6bae900[ALL] 03e3bcbd0871803f0e3b483fed7e576a0dae6a2912c932340e3f16711e49aff23e",
            "hex": "47304402200ed301eff7faa8e939c81bbc720006d1040b6ef2e8ba739ea73adbaaba54a09602201a97324176d533a226e9b2192be553c731225485a582f2a943e156bac6bae900012103e3bcbd0871803f0e3b483fed7e576a0dae6a2912c932340e3f16711e49aff23e"
          },
          "sequence": 4294967295
        }
      ],
      "vout": [
        {
          "value": 2.00291917,
          "n": 0,
          "scriptPubKey": {
            "asm": "OP_DUP OP_HASH160 a5fe85234129d1b4e1aa64faff348b64ae840809 OP_EQUALVERIFY OP_CHECKSIG",
            "hex": "76a914a5fe85234129d1b4e1aa64faff348b64ae84080988ac",
            "reqSigs": 1,
            "type": "pubkeyhash",
            "addresses": [
              "LaMefEGBXvuQE1vm7i3GtzZiRqVXTBbXve"
            ]
          }
        }, 
        {
          "value": 0.08810810,
          "n": 1,
          "scriptPubKey": {
            "asm": "OP_DUP OP_HASH160 75617eef983be95b09fd524ecb7a678a31a2de40 OP_EQUALVERIFY OP_CHECKSIG",
            "hex": "76a91475617eef983be95b09fd524ecb7a678a31a2de4088ac",
            "reqSigs": 1,
            "type": "pubkeyhash",
            "addresses": [
              "LVvc7ncAXfjFmLCQvX4nz28HsfoTPFYfXc"
            ]
          }
        }
      ],
      "hex": "0100000001d163324f563ced842a206d28e9380bbbe10a5125f5e8a8aea117fd9211f3f870100000006a47304402200ed301eff7faa8e939c81bbc720006d1040b6ef2e8ba739ea73adbaaba54a09602201a97324176d533a226e9b2192be553c731225485a582f2a943e156bac6bae900012103e3bcbd0871803f0e3b483fed7e576a0dae6a2912c932340e3f16711e49aff23effffffff024d36f00b000000001976a914a5fe85234129d1b4e1aa64faff348b64ae84080988ac3a718600000000001976a91475617eef983be95b09fd524ecb7a678a31a2de4088ac00000000"
    }, 
    {
      "txid": "e9af74111bdbe9fd472ce196bad9e4ad88bd70c515aeee34cec8b4b685db4705",
      "hash": "e9af74111bdbe9fd472ce196bad9e4ad88bd70c515aeee34cec8b4b685db4705",
      "version": 1,
      "size": 226,
      "vsize": 226,
      "locktime": 0,
      "vin": [
        {
          "txid": "d0a406eaf2c6c702776b6f28c2a6e388b1fec9c700e6ade4f00cf58a79b54c73",
          "vout": 1,
          "scriptSig": {
            "asm": "30450221009b7ace3c7c25792c08d0f16a8357d13dc29d5af455bc127e5845fd2ab132d84b02200874db15a74432555081224194967632349186a86e14bd40749987ee403cc034[ALL] 02ad2fa4fc2945a943eef15cdf32767ec879d44f7eb0ac433a30c42dd3c34f1adb",
            "hex": "4830450221009b7ace3c7c25792c08d0f16a8357d13dc29d5af455bc127e5845fd2ab132d84b02200874db15a74432555081224194967632349186a86e14bd40749987ee403cc034012102ad2fa4fc2945a943eef15cdf32767ec879d44f7eb0ac433a30c42dd3c34f1adb"
          },
          "sequence": 4294967295
        }
      ],
      "vout": [
        {
          "value": 0.04853800,
          "n": 0,
          "scriptPubKey": {
            "asm": "OP_DUP OP_HASH160 163e5e6af286ee31b11a8e25f2fc61d0ebc45979 OP_EQUALVERIFY OP_CHECKSIG",
            "hex": "76a914163e5e6af286ee31b11a8e25f2fc61d0ebc4597988ac",
            "reqSigs": 1,
            "type": "pubkeyhash",
            "addresses": [
              "LMFZqtrSaZbgnnjiMWF4t5m1bLRjgecfJp"
            ]
          }
        }, 
        {
          "value": 0.52312000,
          "n": 1,
          "scriptPubKey": {
            "asm": "OP_DUP OP_HASH160 b854fd99a0b0a00675485b893e7a5519cac319a2 OP_EQUALVERIFY OP_CHECKSIG",
            "hex": "76a914b854fd99a0b0a00675485b893e7a5519cac319a288ac",
            "reqSigs": 1,
            "type": "pubkeyhash",
            "addresses": [
              "Lc2cQm9bCUJi3bF46uduvM3SavQBCwFcpw"
            ]
          }
        }
      ],
      "hex": "0100000001734cb5798af50cf0e4ade600c7c9feb188e3a6c2286f6b7702c7c6f2ea06a4d0010000006b4830450221009b7ace3c7c25792c08d0f16a8357d13dc29d5af455bc127e5845fd2ab132d84b02200874db15a74432555081224194967632349186a86e14bd40749987ee403cc034012102ad2fa4fc2945a943eef15cdf32767ec879d44f7eb0ac433a30c42dd3c34f1adbffffffff0228104a00000000001976a914163e5e6af286ee31b11a8e25f2fc61d0ebc4597988acc0371e03000000001976a914b854fd99a0b0a00675485b893e7a5519cac319a288ac00000000"
    }
  ],
  "time": 1517150946,
  "mediantime": 1517150510,
  "nonce": 1911497265,
  "bits": "1a047f14",
  "difficulty": 3731199.183374282,
  "chainwork": "00000000000000000000000000000000000000000000003325b579a4f87cb3c2",
  "previousblockhash": "6d786656b49707e54305811206911ab637f4f8d8138b12183fb70215b9eb7935",
  "nextblockhash": "8d24761f4a9115f01bcd68cf999470ba562c2d503a863a8211523312cf7174e7"
}
