{
  "hash": "97e673e6f38977a81f18558320aa203e1e96388dc093be0baed82224538b2db3",
  "confirmations": 2700,
  "strippedsize": 254,
  "size": 254,
  "weight": 1016,
  "height": 1358295,
  "version": 536870912,
  "versionHex": "20000000",
  "merkleroot": "3b0f40444a657edd06836019a5e46fe46da075aa493b8f71dc2c18b6f4c30b0c",
  "tx": [
    {
      "txid": "3b0f40444a657edd06836019a5e46fe46da075aa493b8f71dc2c18b6f4c30b0c",
      "hash": "3b0f40444a657edd06836019a5e46fe46da075aa493b8f71dc2c18b6f4c30b0c",
      "version": 1,
      "size": 173,
      "vsize": 173,
      "locktime": 0,
      "vin": [
        {
          "coinbase": "03d7b9141b4d696e656420627920416e74506f6f6c20626a312045205a6d7067fabe6d6dd09029130a80613ff555f1651854ac5659ae0f3581f37225be6b52d9ebda35790400000000000000753900000000000010000000",
          "sequence": 4294967295
        }
      ],
      "vout": [
        {
          "value": 25.00000000,
          "n": 0,
          "scriptPubKey": {
            "asm": "OP_DUP OP_HASH160 0ff3ccc5e8be88afe24b5d634e5852d474dbdff1 OP_EQUALVERIFY OP_CHECKSIG",
            "hex": "76a9140ff3ccc5e8be88afe24b5d634e5852d474dbdff188ac",
            "reqSigs": 1,
            "type": "pubkeyhash",
            "addresses": [
              "LLgJTbzZMsRTCUF1NtvvL9SR1a4pVieW89"
            ]
          }
        }
      ],
      "hex": "01000000010000000000000000000000000000000000000000000000000000000000000000ffffffff5803d7b9141b4d696e656420627920416e74506f6f6c20626a312045205a6d7067fabe6d6dd09029130a80613ff555f1651854ac5659ae0f3581f37225be6b52d9ebda35790400000000000000753900000000000010000000ffffffff0100f90295000000001976a9140ff3ccc5e8be88afe24b5d634e5852d474dbdff188ac00000000"
    }
  ],
  "time": 1517121639,
  "mediantime": 1517120560,
  "nonce": 1541801257,
  "bits": "1a047f14",
  "difficulty": 3731199.183374282,
  "chainwork": "000000000000000000000000000000000000000000000032f81de9b4d11112f0",
  "previousblockhash": "4a12b5f4a8af4f21ccfe18500ac6f77355fd4ea9f6bd4c3d703f1fb6298aa9c3",
  "nextblockhash": "4044ddefca22d3b2eea96dbb1b10eff08e951131d8ccecd170bc61ad09dcd960"
}
