{
  "hash": "98106cca395c05fca0ebd49ab5e9ea7ef0a75e9f033c41ab644ee1aee0144160",
  "confirmations": 3587,
  "strippedsize": 253,
  "size": 253,
  "weight": 1012,
  "height": 1357408,
  "version": 536870912,
  "versionHex": "20000000",
  "merkleroot": "6584a5e82d914900900d8350a97db80549ea9003f6798c2db2a7f8a2f26f0b8b",
  "tx": [
    {
      "txid": "6584a5e82d914900900d8350a97db80549ea9003f6798c2db2a7f8a2f26f0b8b",
      "hash": "6584a5e82d914900900d8350a97db80549ea9003f6798c2db2a7f8a2f26f0b8b",
      "version": 1,
      "size": 172,
      "vsize": 172,
      "locktime": 0,
      "vin": [
        {
          "coinbase": "0360b6141a4d696e656420627920416e74506f6f6c20626a341e205a6b912bfabe6d6d0955ee8d6e70ab789a6ddca8e137fea8700ee0bbdae2f7a88845c409fc34ca78040000000000000091200000000000001e000000",
          "sequence": 4294967295
        }
      ],
      "vout": [
        {
          "value": 25.00000000,
          "n": 0,
          "scriptPubKey": {
            "asm": "OP_DUP OP_HASH160 0ff3ccc5e8be88afe24b5d634e5852d474dbdff1 OP_EQUALVERIFY OP_CHECKSIG",
            "hex": "76a9140ff3ccc5e8be88afe24b5d634e5852d474dbdff188ac",
            "reqSigs": 1,
            "type": "pubkeyhash",
            "addresses": [
              "LLgJTbzZMsRTCUF1NtvvL9SR1a4pVieW89"
            ]
          }
        }
      ],
      "hex": "01000000010000000000000000000000000000000000000000000000000000000000000000ffffffff570360b6141a4d696e656420627920416e74506f6f6c20626a341e205a6b912bfabe6d6d0955ee8d6e70ab789a6ddca8e137fea8700ee0bbdae2f7a88845c409fc34ca78040000000000000091200000000000001e000000ffffffff0100f90295000000001976a9140ff3ccc5e8be88afe24b5d634e5852d474dbdff188ac00000000"
    }
  ],
  "time": 1516998955,
  "mediantime": 1516998513,
  "nonce": 2849155224,
  "bits": "1a047f14",
  "difficulty": 3731199.183374282,
  "chainwork": "00000000000000000000000000000000000000000000003232d90e444e7654da",
  "previousblockhash": "c96e39be3aea76d0729d3cdb63b99cfb0a86f9535e3d9bf873d4f224be6db83a",
  "nextblockhash": "07834a6912af88129f26792413e3026dabbc953c7341231ebda21a79a9ab150d"
}
