{
  "hash": "998f6fb2a5d29e416a82d67389595451572a42335470daeda065dee86812c466",
  "confirmations": 3758,
  "strippedsize": 234,
  "size": 234,
  "weight": 936,
  "height": 1357237,
  "version": 536870912,
  "versionHex": "20000000",
  "merkleroot": "d1ede2c89ae9fc7b3fbb38607c9096164b0b0bc4d9bf75e1ff9a78ccaa6698bf",
  "tx": [
    {
      "txid": "d1ede2c89ae9fc7b3fbb38607c9096164b0b0bc4d9bf75e1ff9a78ccaa6698bf",
      "hash": "d1ede2c89ae9fc7b3fbb38607c9096164b0b0bc4d9bf75e1ff9a78ccaa6698bf",
      "version": 1,
      "size": 153,
      "vsize": 153,
      "locktime": 0,
      "vin": [
        {
          "coinbase": "03b5b514045a6b372c2cfabe6d6d5522f48ad246d39c7373f7e7d0c4777505bcf0f0871cc800c520a61284bf56604000000000000000042f4c502f081600117e0a000000",
          "sequence": 4294967295
        }
      ],
      "vout": [
        {
          "value": 25.00000000,
          "n": 0,
          "scriptPubKey": {
            "asm": "OP_DUP OP_HASH160 57757ed2ecf2052ff3126c397aca7defb9ca2cec OP_EQUALVERIFY OP_CHECKSIG",
            "hex": "76a91457757ed2ecf2052ff3126c397aca7defb9ca2cec88ac",
            "reqSigs": 1,
            "type": "pubkeyhash",
            "addresses": [
              "LTCPodGk5FwcJaRzH9yKnwicxzFUbxp6tN"
            ]
          }
        }
      ],
      "hex": "01000000010000000000000000000000000000000000000000000000000000000000000000ffffffff4403b5b514045a6b372c2cfabe6d6d5522f48ad246d39c7373f7e7d0c4777505bcf0f0871cc800c520a61284bf56604000000000000000042f4c502f081600117e0a000000ffffffff0100f90295000000001976a91457757ed2ecf2052ff3126c397aca7defb9ca2cec88ac00000000"
    }
  ],
  "time": 1516975916,
  "mediantime": 1516975653,
  "nonce": 1289417862,
  "bits": "1a047f14",
  "difficulty": 3731199.183374282,
  "chainwork": "0000000000000000000000000000000000000000000000320cd143c82895af7c",
  "previousblockhash": "6bb5a08808e7b37982451ded4de6cb5a7a95639b61d2d02ff812b37bfa4f4156",
  "nextblockhash": "71139e5e3a086293cbf74534c6b4a6dff9b97ad6d1558a72791c9b1f6be37f9d"
}
