{
  "hash": "99e7c1fb6f07d4dc04de12e500b066bd5f304b28e361155dd51be4c80ccfe91c",
  "confirmations": 3031,
  "strippedsize": 1862,
  "size": 2118,
  "weight": 7704,
  "height": 1357964,
  "version": 536870912,
  "versionHex": "20000000",
  "merkleroot": "ba857c719ff67e2047ad9e1d129fce3c18ccd7c9c4d55188463384db75898d3b",
  "tx": [
    {
      "txid": "f1b8692001d3aae58a3cb87b2f43cfe28b689d679e180772f4162a05479128a1",
      "hash": "696ecd3d6454cbf9fc7782722080e05344baa44405d46f5504d0188437d6b8a8",
      "version": 1,
      "size": 277,
      "vsize": 250,
      "locktime": 957408320,
      "vin": [
        {
          "coinbase": "038cb8142cfabe6d6d87f6b8f272b671717e9763bb413f4795eae3c05626fd5bbd07f9045ec8e931e308000000f09f909f164d696e6564206279207869616e6b616e6875616c756f00000000000000000000000000000000000000000000000000000000",
          "sequence": 4
        }
      ],
      "vout": [
        {
          "value": 25.00285600,
          "n": 0,
          "scriptPubKey": {
            "asm": "OP_DUP OP_HASH160 aa3750aa18b8a0f3f0590731e1fab934856680cf OP_EQUALVERIFY OP_CHECKSIG",
            "hex": "76a914aa3750aa18b8a0f3f0590731e1fab934856680cf88ac",
            "reqSigs": 1,
            "type": "pubkeyhash",
            "addresses": [
              "LajyQBeZaBA1NkZDeY8YT5RYYVRkXMvb2T"
            ]
          }
        }, 
        {
          "value": 0.00000000,
          "n": 1,
          "scriptPubKey": {
            "asm": "OP_RETURN aa21a9ed3404ecb29bb4f01ac4decf57706437499d728ab803cfbf42f4a22d168e4d596f 0000000000000000",
            "hex": "6a24aa21a9ed3404ecb29bb4f01ac4decf57706437499d728ab803cfbf42f4a22d168e4d596f080000000000000000",
            "type": "nulldata"
          }
        }
      ],
      "hex": "010000000001010000000000000000000000000000000000000000000000000000000000000000ffffffff64038cb8142cfabe6d6d87f6b8f272b671717e9763bb413f4795eae3c05626fd5bbd07f9045ec8e931e308000000f09f909f164d696e6564206279207869616e6b616e6875616c756f000000000000000000000000000000000000000000000000000000000400000002a0540795000000001976a914aa3750aa18b8a0f3f0590731e1fab934856680cf88ac00000000000000002f6a24aa21a9ed3404ecb29bb4f01ac4decf57706437499d728ab803cfbf42f4a22d168e4d596f0800000000000000000120000000000000000000000000000000000000000000000000000000000000000040e41039"
    }, 
    {
      "txid": "d736537d64de3e8a8e94b5f50a6b3391768d124f7aada86602abd78886d4101b",
      "hash": "d736537d64de3e8a8e94b5f50a6b3391768d124f7aada86602abd78886d4101b",
      "version": 1,
      "size": 340,
      "vsize": 340,
      "locktime": 0,
      "vin": [
        {
          "txid": "0281375caafd128ec42b074c89b78f0b4a2a0b3b8c7782e845ef2b1c113d9ecd",
          "vout": 1,
          "scriptSig": {
            "asm": "3045022100ade9563deb695496e9aed7a7e61a65d9eb8be434c2b3e774fe18c27969262dff022031cfe5fe9d98f6c2036a62404ea88ec3024f6542b37df055aaf27f2d6c6179fb[ALL] 034a888df293a3f45ae526631d24c72f3b24182d05ee9730d515513406e922f788",
            "hex": "483045022100ade9563deb695496e9aed7a7e61a65d9eb8be434c2b3e774fe18c27969262dff022031cfe5fe9d98f6c2036a62404ea88ec3024f6542b37df055aaf27f2d6c6179fb0121034a888df293a3f45ae526631d24c72f3b24182d05ee9730d515513406e922f788"
          },
          "sequence": 4294967295
        }, 
        {
          "txid": "4315434d43f7f2e23d2e4dd6f73c2f239eefc1b31b8c72863f7cba8197400ed7",
          "vout": 0,
          "scriptSig": {
            "asm": "3045022100eca3a9e30dcd0c9bc1931c0b595513c0e9595ce3c175a40707ea7dcdbd94e5680220451fd69436aea926ffdd182fd7e23e0eac6bcee6ab9bc1879cad92563d4696fa[ALL] 0212ae0826c67b95c251fc253f29a1e32441366f4f9b1fef24c6d56e08669b2713",
            "hex": "483045022100eca3a9e30dcd0c9bc1931c0b595513c0e9595ce3c175a40707ea7dcdbd94e5680220451fd69436aea926ffdd182fd7e23e0eac6bcee6ab9bc1879cad92563d4696fa01210212ae0826c67b95c251fc253f29a1e32441366f4f9b1fef24c6d56e08669b2713"
          },
          "sequence": 4294967295
        }
      ],
      "vout": [
        {
          "value": 0.30003945,
          "n": 0,
          "scriptPubKey": {
            "asm": "OP_DUP OP_HASH160 858874111b2c1c961a9f1ddd92fe6985c98136bd OP_EQUALVERIFY OP_CHECKSIG",
            "hex": "76a914858874111b2c1c961a9f1ddd92fe6985c98136bd88ac",
            "reqSigs": 1,
            "type": "pubkeyhash",
            "addresses": [
              "LXQ1bg3Mq172QG9zoRrxwuMxig66K36V6N"
            ]
          }
        }
      ],
      "hex": "0100000002cd9e3d111c2bef45e882778c3b0b2a4a0b8fb7894c072bc48e12fdaa5c378102010000006b483045022100ade9563deb695496e9aed7a7e61a65d9eb8be434c2b3e774fe18c27969262dff022031cfe5fe9d98f6c2036a62404ea88ec3024f6542b37df055aaf27f2d6c6179fb0121034a888df293a3f45ae526631d24c72f3b24182d05ee9730d515513406e922f788ffffffffd70e409781ba7c3f86728c1bb3c1ef9e232f3cf7d64d2e3de2f2f7434d431543000000006b483045022100eca3a9e30dcd0c9bc1931c0b595513c0e9595ce3c175a40707ea7dcdbd94e5680220451fd69436aea926ffdd182fd7e23e0eac6bcee6ab9bc1879cad92563d4696fa01210212ae0826c67b95c251fc253f29a1e32441366f4f9b1fef24c6d56e08669b2713ffffffff01e9d2c901000000001976a914858874111b2c1c961a9f1ddd92fe6985c98136bd88ac00000000"
    }, 
    {
      "txid": "ba7ec0ac858be69cf621a3a6484b4d51ddf81caf34515732c8965662f31c7dad",
      "hash": "778fbc077b577a21c551f77628660394793b5850f48dc8958fa54a257a357426",
      "version": 1,
      "size": 372,
      "vsize": 207,
      "locktime": 0,
      "vin": [
        {
          "txid": "5bf0a197b6bdeb2115a08374564a6a24ba649396f42a9fd154428a0616f85b03",
          "vout": 1,
          "scriptSig": {
            "asm": "0020409fd93c7351b461fa46963fa28755038f397ee054ab9e56eda0b1081d768cc4",
            "hex": "220020409fd93c7351b461fa46963fa28755038f397ee054ab9e56eda0b1081d768cc4"
          },
          "txinwitness": [
            "", 
            "3044022037d6bc33ed0b775054f2313acff766dc3a7dceee17d88dacf90e14e45b50e3580220026f8afb4b1f3ea41fdd4a2721822eea0efa8bea8652032109f0463d95e06aa801", 
            "30440220165f298011bb57ee2247f2eac48c1769724c27edbe844d0787e0e195ce8be9530220428c3e19c5da8e252541091a2aa32f3e5c31e7db99ee5f8c312fe6f25e492eec01", 
            "522103ceb293b39e087131961da42b3deaef48432d57a08bfd111247901be2936525b32103fa185b0d6c2a6d812d1a9418c54b3cea527d229a73a0c6c72345a1851ebcdad352ae"
          ],
          "sequence": 4294967295
        }
      ],
      "vout": [
        {
          "value": 0.01041700,
          "n": 0,
          "scriptPubKey": {
            "asm": "OP_DUP OP_HASH160 660ec01e5c9010bf784ea07c65eb6c2310ffab87 OP_EQUALVERIFY OP_CHECKSIG",
            "hex": "76a914660ec01e5c9010bf784ea07c65eb6c2310ffab8788ac",
            "reqSigs": 1,
            "type": "pubkeyhash",
            "addresses": [
              "LUXarfE4ckMjHyT3thP3opooh5QjFSdfdL"
            ]
          }
        }, 
        {
          "value": 0.64219000,
          "n": 1,
          "scriptPubKey": {
            "asm": "OP_HASH160 2d9ba1f1c217fd18a576b17eaf8a1c6f1cd2f1de OP_EQUAL",
            "hex": "a9142d9ba1f1c217fd18a576b17eaf8a1c6f1cd2f1de87",
            "reqSigs": 1,
            "type": "scripthash",
            "addresses": [
              "MC4K5c2x6rcVohDBLrLNQRsqL5atuzztot"
            ]
          }
        }
      ],
      "hex": "01000000000101035bf816068a4254d19f2af4969364ba246a4a567483a01521ebbdb697a1f05b0100000023220020409fd93c7351b461fa46963fa28755038f397ee054ab9e56eda0b1081d768cc4ffffffff0224e50f00000000001976a914660ec01e5c9010bf784ea07c65eb6c2310ffab8788ac78e7d3030000000017a9142d9ba1f1c217fd18a576b17eaf8a1c6f1cd2f1de870400473044022037d6bc33ed0b775054f2313acff766dc3a7dceee17d88dacf90e14e45b50e3580220026f8afb4b1f3ea41fdd4a2721822eea0efa8bea8652032109f0463d95e06aa8014730440220165f298011bb57ee2247f2eac48c1769724c27edbe844d0787e0e195ce8be9530220428c3e19c5da8e252541091a2aa32f3e5c31e7db99ee5f8c312fe6f25e492eec0147522103ceb293b39e087131961da42b3deaef48432d57a08bfd111247901be2936525b32103fa185b0d6c2a6d812d1a9418c54b3cea527d229a73a0c6c72345a1851ebcdad352ae00000000"
    }, 
    {
      "txid": "014470ef090fe96a930d7022d878d5f4bb3420c83756d93984b924aec3d94b8b",
      "hash": "014470ef090fe96a930d7022d878d5f4bb3420c83756d93984b924aec3d94b8b",
      "version": 1,
      "size": 372,
      "vsize": 372,
      "locktime": 1357962,
      "vin": [
        {
          "txid": "00f976cbc22c9f4b8e8fd732d1a4df8c3dd7a95061cc973ba6881082cd879aa0",
          "vout": 0,
          "scriptSig": {
            "asm": "304402203bd9d8b0f3e62cd2ed3bea7ec1f68df0419edb90724a9868f8ec52456a7c48b30220319375577f57d3873bbaefed75e9f2639a7ad42f3eb68031243e306eba781547[ALL] 03d0afb31bba1cd09f8d342de49d5d9d45395dfce83304e0ed02b76970114e3162",
            "hex": "47304402203bd9d8b0f3e62cd2ed3bea7ec1f68df0419edb90724a9868f8ec52456a7c48b30220319375577f57d3873bbaefed75e9f2639a7ad42f3eb68031243e306eba781547012103d0afb31bba1cd09f8d342de49d5d9d45395dfce83304e0ed02b76970114e3162"
          },
          "sequence": 4294967294
        }, 
        {
          "txid": "76bb849f72b83a493667b41c479f1b81f946aa2e1bb259156d8e52f5324cbbfc",
          "vout": 260,
          "scriptSig": {
            "asm": "30440220627437724d86d20283693c8358fbfb489227c7c00e8e596b863a383309287f9002201e07f037cb371037d9a0776aa47589d84bd47c3e932b670f9fc493cc6c4d2291[ALL] 037385d2ef7bacaf057efd7202cfe2a0f0b86defc32be7278e623ef604327540b1",
            "hex": "4730440220627437724d86d20283693c8358fbfb489227c7c00e8e596b863a383309287f9002201e07f037cb371037d9a0776aa47589d84bd47c3e932b670f9fc493cc6c4d22910121037385d2ef7bacaf057efd7202cfe2a0f0b86defc32be7278e623ef604327540b1"
          },
          "sequence": 4294967294
        }
      ],
      "vout": [
        {
          "value": 0.01000217,
          "n": 0,
          "scriptPubKey": {
            "asm": "OP_DUP OP_HASH160 65e5a4f6408e060a74de53f3c9c162403adf5f59 OP_EQUALVERIFY OP_CHECKSIG",
            "hex": "76a91465e5a4f6408e060a74de53f3c9c162403adf5f5988ac",
            "reqSigs": 1,
            "type": "pubkeyhash",
            "addresses": [
              "LUWjcZPmcXaeYWoyEwzP6sbsRcV4dcfozm"
            ]
          }
        }, 
        {
          "value": 0.64714120,
          "n": 1,
          "scriptPubKey": {
            "asm": "OP_DUP OP_HASH160 3d57f7440594f56812cf398223e76e944f4568d6 OP_EQUALVERIFY OP_CHECKSIG",
            "hex": "76a9143d57f7440594f56812cf398223e76e944f4568d688ac",
            "reqSigs": 1,
            "type": "pubkeyhash",
            "addresses": [
              "LQpJrteWherVzzwJ4CvjifjwpfEU5vZu2U"
            ]
          }
        }
      ],
      "hex": "0100000002a09a87cd821088a63b97cc6150a9d73d8cdfa4d132d78f8e4b9f2cc2cb76f900000000006a47304402203bd9d8b0f3e62cd2ed3bea7ec1f68df0419edb90724a9868f8ec52456a7c48b30220319375577f57d3873bbaefed75e9f2639a7ad42f3eb68031243e306eba781547012103d0afb31bba1cd09f8d342de49d5d9d45395dfce83304e0ed02b76970114e3162fefffffffcbb4c32f5528e6d1559b21b2eaa46f9811b9f471cb46736493ab8729f84bb76040100006a4730440220627437724d86d20283693c8358fbfb489227c7c00e8e596b863a383309287f9002201e07f037cb371037d9a0776aa47589d84bd47c3e932b670f9fc493cc6c4d22910121037385d2ef7bacaf057efd7202cfe2a0f0b86defc32be7278e623ef604327540b1feffffff0219430f00000000001976a91465e5a4f6408e060a74de53f3c9c162403adf5f5988ac8875db03000000001976a9143d57f7440594f56812cf398223e76e944f4568d688ac8ab81400"
    }, 
    {
      "txid": "79cfb9e81973631d4ecfa6dc4de9784adf9582f31cfb9abf62556c4167fcd52c",
      "hash": "79cfb9e81973631d4ecfa6dc4de9784adf9582f31cfb9abf62556c4167fcd52c",
      "version": 1,
      "size": 225,
      "vsize": 225,
      "locktime": 0,
      "vin": [
        {
          "txid": "bdfb6b9959845859cff79272c85420f3a8ace1cb74b0932c81a538dd725b4834",
          "vout": 0,
          "scriptSig": {
            "asm": "304402204430102c0d87007dfb74ebbc17f42776e9369ae2597a621fada3dc7916b26a3402207efd412ac031ab86a589aefa34fa3f5ca246eacb6ffab9ad336908030814572d[ALL] 0361bf0373c6b50054e83e295c947c916cb85b64c102f5ca8ed5654e0ed4241b93",
            "hex": "47304402204430102c0d87007dfb74ebbc17f42776e9369ae2597a621fada3dc7916b26a3402207efd412ac031ab86a589aefa34fa3f5ca246eacb6ffab9ad336908030814572d01210361bf0373c6b50054e83e295c947c916cb85b64c102f5ca8ed5654e0ed4241b93"
          },
          "sequence": 4294967295
        }
      ],
      "vout": [
        {
          "value": 0.00093074,
          "n": 0,
          "scriptPubKey": {
            "asm": "OP_DUP OP_HASH160 21d21e0085aa5fae108cf3b8976465853cf4fe66 OP_EQUALVERIFY OP_CHECKSIG",
            "hex": "76a91421d21e0085aa5fae108cf3b8976465853cf4fe6688ac",
            "reqSigs": 1,
            "type": "pubkeyhash",
            "addresses": [
              "LNJnGjzg7nkytfnHDvvmw4GAryCmS1YLjB"
            ]
          }
        }, 
        {
          "value": 0.02838442,
          "n": 1,
          "scriptPubKey": {
            "asm": "OP_DUP OP_HASH160 34c88ffd9c4afd380410684edeb573a61b2467d7 OP_EQUALVERIFY OP_CHECKSIG",
            "hex": "76a91434c88ffd9c4afd380410684edeb573a61b2467d788ac",
            "reqSigs": 1,
            "type": "pubkeyhash",
            "addresses": [
              "LQ33fWgBboAwapGpWQB3tsd5gNUWvjwSBU"
            ]
          }
        }
      ],
      "hex": "010000000134485b72dd38a5812c93b074cbe1aca8f32054c87292f7cf59588459996bfbbd000000006a47304402204430102c0d87007dfb74ebbc17f42776e9369ae2597a621fada3dc7916b26a3402207efd412ac031ab86a589aefa34fa3f5ca246eacb6ffab9ad336908030814572d01210361bf0373c6b50054e83e295c947c916cb85b64c102f5ca8ed5654e0ed4241b93ffffffff02926b0100000000001976a91421d21e0085aa5fae108cf3b8976465853cf4fe6688acaa4f2b00000000001976a91434c88ffd9c4afd380410684edeb573a61b2467d788ac00000000"
    }, 
    {
      "txid": "c7569a12e0c0e3a790fe87df4d09336ee20fcc2058e9abc0c92f026364e8d1c1",
      "hash": "c7569a12e0c0e3a790fe87df4d09336ee20fcc2058e9abc0c92f026364e8d1c1",
      "version": 1,
      "size": 225,
      "vsize": 225,
      "locktime": 0,
      "vin": [
        {
          "txid": "b7678a5bf425cbfcc1490824466777050c0d285422e33ba3c5d93bb65a23aca4",
          "vout": 1,
          "scriptSig": {
            "asm": "304402202677d7ba204cd3a048ae679b1abb5f27bad71a966554aed1fe1add03df0e238c022016968265ab09c3c726bc239c429ccd5aa90462bde0b56e52f9189776df4954ce[ALL] 03683fffa830e239ba36dde673c65063feecec45266cc72c6dfbf31d66527932c4",
            "hex": "47304402202677d7ba204cd3a048ae679b1abb5f27bad71a966554aed1fe1add03df0e238c022016968265ab09c3c726bc239c429ccd5aa90462bde0b56e52f9189776df4954ce012103683fffa830e239ba36dde673c65063feecec45266cc72c6dfbf31d66527932c4"
          },
          "sequence": 4294967295
        }
      ],
      "vout": [
        {
          "value": 1.02610830,
          "n": 0,
          "scriptPubKey": {
            "asm": "OP_DUP OP_HASH160 db53cf974a683e152bfaab66f4e97ac2b96141e7 OP_EQUALVERIFY OP_CHECKSIG",
            "hex": "76a914db53cf974a683e152bfaab66f4e97ac2b96141e788ac",
            "reqSigs": 1,
            "type": "pubkeyhash",
            "addresses": [
              "LfDeeWPKsooikrFCfurpopLiujT8emwwmH"
            ]
          }
        }, 
        {
          "value": 83.46468012,
          "n": 1,
          "scriptPubKey": {
            "asm": "OP_DUP OP_HASH160 9a00afb2db47eeca535f4faf3e5531a93dd19425 OP_EQUALVERIFY OP_CHECKSIG",
            "hex": "76a9149a00afb2db47eeca535f4faf3e5531a93dd1942588ac",
            "reqSigs": 1,
            "type": "pubkeyhash",
            "addresses": [
              "LZGF9SZHRSsxuiGJmzsoPj5H7gJsjpZEcE"
            ]
          }
        }
      ],
      "hex": "0100000001a4ac235ab63bd9c5a33be32254280d0c05776746240849c1fccb25f45b8a67b7010000006a47304402202677d7ba204cd3a048ae679b1abb5f27bad71a966554aed1fe1add03df0e238c022016968265ab09c3c726bc239c429ccd5aa90462bde0b56e52f9189776df4954ce012103683fffa830e239ba36dde673c65063feecec45266cc72c6dfbf31d66527932c4ffffffff028eb71d06000000001976a914db53cf974a683e152bfaab66f4e97ac2b96141e788acacfe7cf1010000001976a9149a00afb2db47eeca535f4faf3e5531a93dd1942588ac00000000"
    }, 
    {
      "txid": "334abde0dc79e42144d82963004ae4f7dbd6929e5980441c4af028f0f40df2da",
      "hash": "334abde0dc79e42144d82963004ae4f7dbd6929e5980441c4af028f0f40df2da",
      "version": 1,
      "size": 226,
      "vsize": 226,
      "locktime": 0,
      "vin": [
        {
          "txid": "3cb3bd268dd4f14ca3a35a197698660c86dec54b695e06142e27ad4c908807ea",
          "vout": 1,
          "scriptSig": {
            "asm": "30450221009dc8d354d64a43042d73f69e865c2f7c7ee9fc80432bab305cf31fead42c4ec002201812c24c4aed7abd60fd13a9b954cf0d4fb87afd8d3c96bfeed11e0c6b4c01ed[ALL] 03222216e8a00edb2c01e936c6f0bd0a1d63011e6a181d8f21ad733f2d07b9f6be",
            "hex": "4830450221009dc8d354d64a43042d73f69e865c2f7c7ee9fc80432bab305cf31fead42c4ec002201812c24c4aed7abd60fd13a9b954cf0d4fb87afd8d3c96bfeed11e0c6b4c01ed012103222216e8a00edb2c01e936c6f0bd0a1d63011e6a181d8f21ad733f2d07b9f6be"
          },
          "sequence": 4294967295
        }
      ],
      "vout": [
        {
          "value": 0.00092844,
          "n": 0,
          "scriptPubKey": {
            "asm": "OP_DUP OP_HASH160 cbfebe88880fbc95c3b132a99620e756746a52da OP_EQUALVERIFY OP_CHECKSIG",
            "hex": "76a914cbfebe88880fbc95c3b132a99620e756746a52da88ac",
            "reqSigs": 1,
            "type": "pubkeyhash",
            "addresses": [
              "Ldpac6ZyKgXfZ8X3zyc5bqKQJUzBLQX8dF"
            ]
          }
        }, 
        {
          "value": 0.00220000,
          "n": 1,
          "scriptPubKey": {
            "asm": "OP_DUP OP_HASH160 7252033202a0b9c742af199adbcfa7c46b62f118 OP_EQUALVERIFY OP_CHECKSIG",
            "hex": "76a9147252033202a0b9c742af199adbcfa7c46b62f11888ac",
            "reqSigs": 1,
            "type": "pubkeyhash",
            "addresses": [
              "LVeRYQfWxunsH4CtC4jeNN3NrCW52D3rkc"
            ]
          }
        }
      ],
      "hex": "0100000001ea0788904cad272e14065e694bc5de860c669876195aa3a34cf1d48d26bdb33c010000006b4830450221009dc8d354d64a43042d73f69e865c2f7c7ee9fc80432bab305cf31fead42c4ec002201812c24c4aed7abd60fd13a9b954cf0d4fb87afd8d3c96bfeed11e0c6b4c01ed012103222216e8a00edb2c01e936c6f0bd0a1d63011e6a181d8f21ad733f2d07b9f6beffffffff02ac6a0100000000001976a914cbfebe88880fbc95c3b132a99620e756746a52da88ac605b0300000000001976a9147252033202a0b9c742af199adbcfa7c46b62f11888ac00000000"
    }
  ],
  "time": 1517070837,
  "mediantime": 1517070193,
  "nonce": 3961187399,
  "bits": "1a047f14",
  "difficulty": 3731199.183374282,
  "chainwork": "000000000000000000000000000000000000000000000032ae809c25d11add52",
  "previousblockhash": "a62f2e393df789acc5060df6b3008fcbdba378fbd09933ec5a2b4ef698d4449d",
  "nextblockhash": "3d60b2da75456e1c2d9c67caf3073d85c80c95c2af2b2c2ecbb05f23d8a69af0"
}
