{
  "hash": "9a5760cf48daf68cc82f7538c3b03c04409f32944a22f269a9e7576167902be0",
  "confirmations": 3456,
  "strippedsize": 253,
  "size": 253,
  "weight": 1012,
  "height": 1357539,
  "version": 536870912,
  "versionHex": "20000000",
  "merkleroot": "ce8f1de9d147774972649961de0364e78045dd361a8e1a8775e0374627462069",
  "tx": [
    {
      "txid": "ce8f1de9d147774972649961de0364e78045dd361a8e1a8775e0374627462069",
      "hash": "ce8f1de9d147774972649961de0364e78045dd361a8e1a8775e0374627462069",
      "version": 1,
      "size": 172,
      "vsize": 172,
      "locktime": 0,
      "vin": [
        {
          "coinbase": "03e3b6141a4d696e656420627920416e74506f6f6c20626a3242205a6bd34efabe6d6d2ce737c230b014ff93eb94471475f4186883678a6645b7a8c179d4da3bb245430400000000000000922b00000000000019000000",
          "sequence": 4294967295
        }
      ],
      "vout": [
        {
          "value": 25.00000000,
          "n": 0,
          "scriptPubKey": {
            "asm": "OP_DUP OP_HASH160 0ff3ccc5e8be88afe24b5d634e5852d474dbdff1 OP_EQUALVERIFY OP_CHECKSIG",
            "hex": "76a9140ff3ccc5e8be88afe24b5d634e5852d474dbdff188ac",
            "reqSigs": 1,
            "type": "pubkeyhash",
            "addresses": [
              "LLgJTbzZMsRTCUF1NtvvL9SR1a4pVieW89"
            ]
          }
        }
      ],
      "hex": "01000000010000000000000000000000000000000000000000000000000000000000000000ffffffff5703e3b6141a4d696e656420627920416e74506f6f6c20626a3242205a6bd34efabe6d6d2ce737c230b014ff93eb94471475f4186883678a6645b7a8c179d4da3bb245430400000000000000922b00000000000019000000ffffffff0100f90295000000001976a9140ff3ccc5e8be88afe24b5d634e5852d474dbdff188ac00000000"
    }
  ],
  "time": 1517015886,
  "mediantime": 1517015471,
  "nonce": 1851046352,
  "bits": "1a047f14",
  "difficulty": 3731199.183374282,
  "chainwork": "0000000000000000000000000000000000000000000000324ffb77fbbdd19628",
  "previousblockhash": "d5de77053ca339d37d647359d0fd46bb04c67d653f1a7502289b30ce2e4adeba",
  "nextblockhash": "02c69d27037bd4040cf62629f3b335ac7ab64b876974762a9ded29bf955233ea"
}
