{
  "hash": "9aa30c2bd80d9ca921701f3a9132a9d78a6a95d943a0f141725c55ea9be89536",
  "confirmations": 2592,
  "strippedsize": 266,
  "size": 266,
  "weight": 1064,
  "height": 1358403,
  "version": 536870912,
  "versionHex": "20000000",
  "merkleroot": "e2443b8ce1d4f830d9287556d467ac4ab2b7fd2187377cf4878858a2b70bf3be",
  "tx": [
    {
      "txid": "e2443b8ce1d4f830d9287556d467ac4ab2b7fd2187377cf4878858a2b70bf3be",
      "hash": "e2443b8ce1d4f830d9287556d467ac4ab2b7fd2187377cf4878858a2b70bf3be",
      "version": 1,
      "size": 185,
      "vsize": 185,
      "locktime": 956385592,
      "vin": [
        {
          "coinbase": "0343ba142cfabe6d6ddfe4376f2c1c7bd254b3182c058bfcf5ec44760ef443dd9443425ca2f1ac23bb08000000f09f909f104d696e6564206279206c757169616e6700000000000000000000000000000000000000000000000000000000000000000000",
          "sequence": 69
        }
      ],
      "vout": [
        {
          "value": 25.00000000,
          "n": 0,
          "scriptPubKey": {
            "asm": "OP_DUP OP_HASH160 aa3750aa18b8a0f3f0590731e1fab934856680cf OP_EQUALVERIFY OP_CHECKSIG",
            "hex": "76a914aa3750aa18b8a0f3f0590731e1fab934856680cf88ac",
            "reqSigs": 1,
            "type": "pubkeyhash",
            "addresses": [
              "LajyQBeZaBA1NkZDeY8YT5RYYVRkXMvb2T"
            ]
          }
        }
      ],
      "hex": "01000000010000000000000000000000000000000000000000000000000000000000000000ffffffff640343ba142cfabe6d6ddfe4376f2c1c7bd254b3182c058bfcf5ec44760ef443dd9443425ca2f1ac23bb08000000f09f909f104d696e6564206279206c757169616e6700000000000000000000000000000000000000000000000000000000000000000000450000000100f90295000000001976a914aa3750aa18b8a0f3f0590731e1fab934856680cf88ac38490139"
    }
  ],
  "time": 1517136631,
  "mediantime": 1517135801,
  "nonce": 494568990,
  "bits": "1a047f14",
  "difficulty": 3731199.183374282,
  "chainwork": "0000000000000000000000000000000000000000000000331022d5618aac6de8",
  "previousblockhash": "a7a14f2ec1cc3d4bcf84438afcf948089a0cee4053a9bb51f393018cc6e5f934",
  "nextblockhash": "fc41e04e5407083afabf98eee0210d3c4100d3e804a87fc16ea8d2d5dd0d7f2f"
}
