{
  "hash": "9ae4a828f62deab24c328a8051d069bda868250674c1883262fc2bfcd7ee0081",
  "confirmations": 614,
  "strippedsize": 688,
  "size": 724,
  "weight": 2788,
  "height": 1360380,
  "version": 536870912,
  "versionHex": "20000000",
  "merkleroot": "660bf2c0af0b45a996feedaffbb5d01920d64e70a02f8f8acbb27deb9773c690",
  "tx": [
    {
      "txid": "daf4e071104dc62f7ad0ab821ac62cddf750cd4b7a37d57ba8d9dd8a27619a67",
      "hash": "6d5311735ad4cdbb01cbf470cd49eca54db9ff3c61fce6ac0e74f43948abccdd",
      "version": 1,
      "size": 192,
      "vsize": 165,
      "locktime": 0,
      "vin": [
        {
          "coinbase": "03fcc114045203725a08540000af1e000000052f6d70682f",
          "sequence": 0
        }
      ],
      "vout": [
        {
          "value": 0.00000000,
          "n": 0,
          "scriptPubKey": {
            "asm": "OP_RETURN aa21a9ed6e90bac28e6a26723a1af31175b89fbc271da0d1bbd7d886bd8aa81ae3181702",
            "hex": "6a24aa21a9ed6e90bac28e6a26723a1af31175b89fbc271da0d1bbd7d886bd8aa81ae3181702",
            "type": "nulldata"
          }
        }, 
        {
          "value": 25.00400000,
          "n": 1,
          "scriptPubKey": {
            "asm": "OP_DUP OP_HASH160 a6783757194b8c9438239112cc567886dfa711eb OP_EQUALVERIFY OP_CHECKSIG",
            "hex": "76a914a6783757194b8c9438239112cc567886dfa711eb88ac",
            "reqSigs": 1,
            "type": "pubkeyhash",
            "addresses": [
              "LaQASpgm6oWTJ4sYDF5xJHdiZYkMP7uSW1"
            ]
          }
        }
      ],
      "hex": "010000000001010000000000000000000000000000000000000000000000000000000000000000ffffffff1803fcc114045203725a08540000af1e000000052f6d70682f00000000020000000000000000266a24aa21a9ed6e90bac28e6a26723a1af31175b89fbc271da0d1bbd7d886bd8aa81ae318170280130995000000001976a914a6783757194b8c9438239112cc567886dfa711eb88ac0120000000000000000000000000000000000000000000000000000000000000000000000000"
    }, 
    {
      "txid": "6cc3235025478c8613a33c7026f5cdcb65794c3e923e76df9b513b6dfb7903a6",
      "hash": "6cc3235025478c8613a33c7026f5cdcb65794c3e923e76df9b513b6dfb7903a6",
      "version": 1,
      "size": 225,
      "vsize": 225,
      "locktime": 0,
      "vin": [
        {
          "txid": "025e8d15654ad82cc999d297b3ee818c6505d2b7b6fa8a3a1aa48c47cf852e9f",
          "vout": 0,
          "scriptSig": {
            "asm": "304402203fd5d54121d95b51f0dd200041d73c878fd0916357f40a8f8924756875b6b7c20220606f1b5de96dc0661b81dc4e3f14a4c1b1db60dbdc47fb1631b99f2d4cce0309[ALL] 02c4cc1a5c44084e2c8870f7a487601c9786524dc4e1f1e80de6bd88451438fac6",
            "hex": "47304402203fd5d54121d95b51f0dd200041d73c878fd0916357f40a8f8924756875b6b7c20220606f1b5de96dc0661b81dc4e3f14a4c1b1db60dbdc47fb1631b99f2d4cce0309012102c4cc1a5c44084e2c8870f7a487601c9786524dc4e1f1e80de6bd88451438fac6"
          },
          "sequence": 4294967295
        }
      ],
      "vout": [
        {
          "value": 0.01004814,
          "n": 0,
          "scriptPubKey": {
            "asm": "OP_DUP OP_HASH160 f9d4fe8a8d231651432e6071095aea9c59795a6b OP_EQUALVERIFY OP_CHECKSIG",
            "hex": "76a914f9d4fe8a8d231651432e6071095aea9c59795a6b88ac",
            "reqSigs": 1,
            "type": "pubkeyhash",
            "addresses": [
              "Lhzwg5j9P9CEsj4jzSNagCTxPuFTvSUmyT"
            ]
          }
        }, 
        {
          "value": 0.32409781,
          "n": 1,
          "scriptPubKey": {
            "asm": "OP_DUP OP_HASH160 8e4707d4df33eb7124565f17e52b7d395864993a OP_EQUALVERIFY OP_CHECKSIG",
            "hex": "76a9148e4707d4df33eb7124565f17e52b7d395864993a88ac",
            "reqSigs": 1,
            "type": "pubkeyhash",
            "addresses": [
              "LYCFJkANKVKX8cWjYRjodH3PjewQSS3kP5"
            ]
          }
        }
      ],
      "hex": "01000000019f2e85cf478ca41a3a8afab6b7d205658c81eeb397d299c92cd84a65158d5e02000000006a47304402203fd5d54121d95b51f0dd200041d73c878fd0916357f40a8f8924756875b6b7c20220606f1b5de96dc0661b81dc4e3f14a4c1b1db60dbdc47fb1631b99f2d4cce0309012102c4cc1a5c44084e2c8870f7a487601c9786524dc4e1f1e80de6bd88451438fac6ffffffff020e550f00000000001976a914f9d4fe8a8d231651432e6071095aea9c59795a6b88acb588ee01000000001976a9148e4707d4df33eb7124565f17e52b7d395864993a88ac00000000"
    }, 
    {
      "txid": "0e46e857a157415d9559bc44094a208684347172bf523a763c058e00ef26fbd8",
      "hash": "0e46e857a157415d9559bc44094a208684347172bf523a763c058e00ef26fbd8",
      "version": 1,
      "size": 226,
      "vsize": 226,
      "locktime": 0,
      "vin": [
        {
          "txid": "a6bf5fd879d16456a0a1b0cdf2e0026b3891ee3926265bbfc13bba942a8f5e38",
          "vout": 1,
          "scriptSig": {
            "asm": "3045022100e99ffbfdee1cb4f300b19dcc4962b58f765c754fa26b682f6049bdc355b7f9cc02206098e11fd617a968343aefee6386daa5f86e7ffafe2f6ce3a1f927d8d0d333df[ALL] 0387ca858e21bfc6738373142d5700206965e0099de8b17849db87f26d6dd5b532",
            "hex": "483045022100e99ffbfdee1cb4f300b19dcc4962b58f765c754fa26b682f6049bdc355b7f9cc02206098e11fd617a968343aefee6386daa5f86e7ffafe2f6ce3a1f927d8d0d333df01210387ca858e21bfc6738373142d5700206965e0099de8b17849db87f26d6dd5b532"
          },
          "sequence": 4294967295
        }
      ],
      "vout": [
        {
          "value": 0.43057402,
          "n": 0,
          "scriptPubKey": {
            "asm": "OP_DUP OP_HASH160 0ea8d81d433b7975084ef335667e14aab40ac1e9 OP_EQUALVERIFY OP_CHECKSIG",
            "hex": "76a9140ea8d81d433b7975084ef335667e14aab40ac1e988ac",
            "reqSigs": 1,
            "type": "pubkeyhash",
            "addresses": [
              "LLZTzQ6kuBZn7MoCLBxBF59GPaJGnTZjQA"
            ]
          }
        }, 
        {
          "value": 0.01004095,
          "n": 1,
          "scriptPubKey": {
            "asm": "OP_DUP OP_HASH160 c27ed7e6cccf0086888b1c44c63910f2f6590d4e OP_EQUALVERIFY OP_CHECKSIG",
            "hex": "76a914c27ed7e6cccf0086888b1c44c63910f2f6590d4e88ac",
            "reqSigs": 1,
            "type": "pubkeyhash",
            "addresses": [
              "LcxMJfDL9Eniyk9eUW9ZrBXGJXPuNzYky7"
            ]
          }
        }
      ],
      "hex": "0100000001385e8f2a94ba3bc1bf5b262639ee91386b02e0f2cdb0a1a05664d179d85fbfa6010000006b483045022100e99ffbfdee1cb4f300b19dcc4962b58f765c754fa26b682f6049bdc355b7f9cc02206098e11fd617a968343aefee6386daa5f86e7ffafe2f6ce3a1f927d8d0d333df01210387ca858e21bfc6738373142d5700206965e0099de8b17849db87f26d6dd5b532ffffffff02fa009102000000001976a9140ea8d81d433b7975084ef335667e14aab40ac1e988ac3f520f00000000001976a914c27ed7e6cccf0086888b1c44c63910f2f6590d4e88ac00000000"
    }
  ],
  "time": 1517421394,
  "mediantime": 1517420638,
  "nonce": 1120005275,
  "bits": "1a042eae",
  "difficulty": 4011378.762614286,
  "chainwork": "000000000000000000000000000000000000000000000034e27dd7722083147a",
  "previousblockhash": "afc64e416378161f9066f25865402cdff0ef70369bd111a5a41f492450329df1",
  "nextblockhash": "35ccf66c401240478fd437e5b0181dc2216c7b01c0fee3b562149ae9ab750643"
}
