{
  "hash": "9af0ed44107539ccd3621bdd96b28cd9c7a2a1766a507a2f9e7c2df028da3951",
  "confirmations": 1933,
  "strippedsize": 254,
  "size": 254,
  "weight": 1016,
  "height": 1359061,
  "version": 536870912,
  "versionHex": "20000000",
  "merkleroot": "4f0d4332f3a1fa2e7905e51ebcb7ee413900a4d277789e5ba887ed773e9ddfbc",
  "tx": [
    {
      "txid": "4f0d4332f3a1fa2e7905e51ebcb7ee413900a4d277789e5ba887ed773e9ddfbc",
      "hash": "4f0d4332f3a1fa2e7905e51ebcb7ee413900a4d277789e5ba887ed773e9ddfbc",
      "version": 1,
      "size": 173,
      "vsize": 173,
      "locktime": 0,
      "vin": [
        {
          "coinbase": "03d5bc141b4d696e656420627920416e74506f6f6c20626a302042205a6f1ca3fabe6d6d5ace5216cf35783717c1178f1c88b446a505b1b18349875045ea57ac4d108ffd04000000000000003f2c0000000000000e000000",
          "sequence": 4294967295
        }
      ],
      "vout": [
        {
          "value": 25.00000000,
          "n": 0,
          "scriptPubKey": {
            "asm": "OP_DUP OP_HASH160 0ff3ccc5e8be88afe24b5d634e5852d474dbdff1 OP_EQUALVERIFY OP_CHECKSIG",
            "hex": "76a9140ff3ccc5e8be88afe24b5d634e5852d474dbdff188ac",
            "reqSigs": 1,
            "type": "pubkeyhash",
            "addresses": [
              "LLgJTbzZMsRTCUF1NtvvL9SR1a4pVieW89"
            ]
          }
        }
      ],
      "hex": "01000000010000000000000000000000000000000000000000000000000000000000000000ffffffff5803d5bc141b4d696e656420627920416e74506f6f6c20626a302042205a6f1ca3fabe6d6d5ace5216cf35783717c1178f1c88b446a505b1b18349875045ea57ac4d108ffd04000000000000003f2c0000000000000e000000ffffffff0100f90295000000001976a9140ff3ccc5e8be88afe24b5d634e5852d474dbdff188ac00000000"
    }
  ],
  "time": 1517231267,
  "mediantime": 1517230550,
  "nonce": 2048400547,
  "bits": "1a042eae",
  "difficulty": 4011378.762614286,
  "chainwork": "000000000000000000000000000000000000000000000033a71e39c69f73b7ac",
  "previousblockhash": "6928cb806da305ff7f1fb34547d50d27becccda5122a74d8642e9327d9ea6cac",
  "nextblockhash": "5b05f087c70c566a4af1c6444bb0fff438121246dd6a5c8bee0658582dd92314"
}
