{
  "hash": "9b5ccfd6b55874fa3b3345457e9d46fc397b2b6fb139a4961639bda1c60be5b2",
  "confirmations": 1154,
  "strippedsize": 253,
  "size": 253,
  "weight": 1012,
  "height": 1359840,
  "version": 536870912,
  "versionHex": "20000000",
  "merkleroot": "6b6d2b2f0119d3d84dd7d8bf034fb1c4ad753cafafe220ab64aefa4ae4863ec3",
  "tx": [
    {
      "txid": "6b6d2b2f0119d3d84dd7d8bf034fb1c4ad753cafafe220ab64aefa4ae4863ec3",
      "hash": "6b6d2b2f0119d3d84dd7d8bf034fb1c4ad753cafafe220ab64aefa4ae4863ec3",
      "version": 1,
      "size": 172,
      "vsize": 172,
      "locktime": 0,
      "vin": [
        {
          "coinbase": "03e0bf141a4d696e656420627920416e74506f6f6c20626a331f205a70c18bfabe6d6de42bd23ec5dcf4593c9d268b8a8ace06af84c4b0649ef36b59de148f773e7ec40400000000000000631d00000000000010000000",
          "sequence": 4294967295
        }
      ],
      "vout": [
        {
          "value": 25.00000000,
          "n": 0,
          "scriptPubKey": {
            "asm": "OP_DUP OP_HASH160 0ff3ccc5e8be88afe24b5d634e5852d474dbdff1 OP_EQUALVERIFY OP_CHECKSIG",
            "hex": "76a9140ff3ccc5e8be88afe24b5d634e5852d474dbdff188ac",
            "reqSigs": 1,
            "type": "pubkeyhash",
            "addresses": [
              "LLgJTbzZMsRTCUF1NtvvL9SR1a4pVieW89"
            ]
          }
        }
      ],
      "hex": "01000000010000000000000000000000000000000000000000000000000000000000000000ffffffff5703e0bf141a4d696e656420627920416e74506f6f6c20626a331f205a70c18bfabe6d6de42bd23ec5dcf4593c9d268b8a8ace06af84c4b0649ef36b59de148f773e7ec40400000000000000631d00000000000010000000ffffffff0100f90295000000001976a9140ff3ccc5e8be88afe24b5d634e5852d474dbdff188ac00000000"
    }
  ],
  "time": 1517339019,
  "mediantime": 1517337950,
  "nonce": 542541383,
  "bits": "1a042eae",
  "difficulty": 4011378.762614286,
  "chainwork": "0000000000000000000000000000000000000000000000346160984111858642",
  "previousblockhash": "b9cff011ee24a179ec73464d5d2212fcc64ee192835def796723bf98e78162c6",
  "nextblockhash": "df71bf7d5f102a9cea64f53de5a6f1d6185fe357631e24f6227febe9e612d7bc"
}
