{
  "hash": "9b6e588ee0b8939e79149d2021846067623247dcfa43b2e807caa6f38c923124",
  "confirmations": 215,
  "strippedsize": 3482,
  "size": 3518,
  "weight": 13964,
  "height": 1360779,
  "version": 536870912,
  "versionHex": "20000000",
  "merkleroot": "038d2402f4e4cfe9644d55e3cbcba7d49f3d97eed14224ab3479568a28a67c66",
  "tx": [
    {
      "txid": "8f79f01937a506063173e2b567515907720ee3f30a905691c26c3c3d429ff7b0",
      "hash": "b9be7395f34fe231236021a4685d1ab40fc0707de386d4e86f743a40c2077360",
      "version": 1,
      "size": 236,
      "vsize": 209,
      "locktime": 0,
      "vin": [
        {
          "coinbase": "038bc314045a72ea452cfabe6d6d3e63711f8b2f9541fa77a6b2c460ed675fdf3101130472e9e3b7c62687130d1a4000000000000000042f4c502f082200028b0a000000",
          "sequence": 4294967295
        }
      ],
      "vout": [
        {
          "value": 25.00856240,
          "n": 0,
          "scriptPubKey": {
            "asm": "OP_DUP OP_HASH160 57757ed2ecf2052ff3126c397aca7defb9ca2cec OP_EQUALVERIFY OP_CHECKSIG",
            "hex": "76a91457757ed2ecf2052ff3126c397aca7defb9ca2cec88ac",
            "reqSigs": 1,
            "type": "pubkeyhash",
            "addresses": [
              "LTCPodGk5FwcJaRzH9yKnwicxzFUbxp6tN"
            ]
          }
        }, 
        {
          "value": 0.00000000,
          "n": 1,
          "scriptPubKey": {
            "asm": "OP_RETURN aa21a9ed62bbb2cd7d42b447760c0de24fa802aed725631c67635a0a8171714d0b040f3d",
            "hex": "6a24aa21a9ed62bbb2cd7d42b447760c0de24fa802aed725631c67635a0a8171714d0b040f3d",
            "type": "nulldata"
          }
        }
      ],
      "hex": "010000000001010000000000000000000000000000000000000000000000000000000000000000ffffffff44038bc314045a72ea452cfabe6d6d3e63711f8b2f9541fa77a6b2c460ed675fdf3101130472e9e3b7c62687130d1a4000000000000000042f4c502f082200028b0a000000ffffffff02b0091095000000001976a91457757ed2ecf2052ff3126c397aca7defb9ca2cec88ac0000000000000000266a24aa21a9ed62bbb2cd7d42b447760c0de24fa802aed725631c67635a0a8171714d0b040f3d0120000000000000000000000000000000000000000000000000000000000000000000000000"
    }, 
    {
      "txid": "ddd803dd72aa5f58e6845d1a2e7c8a6dbd23034c349d550e7719f55642d2f4e6",
      "hash": "ddd803dd72aa5f58e6845d1a2e7c8a6dbd23034c349d550e7719f55642d2f4e6",
      "version": 1,
      "size": 334,
      "vsize": 334,
      "locktime": 0,
      "vin": [
        {
          "txid": "5293965368e69c95fbf09ec6ea7a2fb21c599bb851fa81693a67d301e45bcd98",
          "vout": 1,
          "scriptSig": {
            "asm": "0 304402204608a4021566c51efbbb6ea29345a45eea2939dce613c4c63bb97c66ba011f5602207314bd62f129d46e847e5bfc5e9b81478a1a5b83185c7d573316739619dc1a26[ALL] 30440220318fbd111370965252a46c9fa182d0363ba0fec28a0ce3ab5e24ebfe0f32f18002202b7543e0547ae297dc67832418e6433d745f4d037c57da8d8a3eabc2b8d7d95c[ALL] 522102f77ec37a042ba4e5e6aef7760398bf59b87ac4c5dee30a2fb8798e9630d4916e210276b93401dc495b28592f66411a7c9093b468f8678db51144fc6a36f550d94aa952ae",
            "hex": "0047304402204608a4021566c51efbbb6ea29345a45eea2939dce613c4c63bb97c66ba011f5602207314bd62f129d46e847e5bfc5e9b81478a1a5b83185c7d573316739619dc1a26014730440220318fbd111370965252a46c9fa182d0363ba0fec28a0ce3ab5e24ebfe0f32f18002202b7543e0547ae297dc67832418e6433d745f4d037c57da8d8a3eabc2b8d7d95c0147522102f77ec37a042ba4e5e6aef7760398bf59b87ac4c5dee30a2fb8798e9630d4916e210276b93401dc495b28592f66411a7c9093b468f8678db51144fc6a36f550d94aa952ae"
          },
          "sequence": 4294967295
        }
      ],
      "vout": [
        {
          "value": 0.03745200,
          "n": 0,
          "scriptPubKey": {
            "asm": "OP_DUP OP_HASH160 7de6cab510f0a5e7aae2fb9df3d5a28c076401ce OP_EQUALVERIFY OP_CHECKSIG",
            "hex": "76a9147de6cab510f0a5e7aae2fb9df3d5a28c076401ce88ac",
            "reqSigs": 1,
            "type": "pubkeyhash",
            "addresses": [
              "LWhfCtWjX1xw9iV7d59TqHQ2d3AJhQMRap"
            ]
          }
        }, 
        {
          "value": 25.35240100,
          "n": 1,
          "scriptPubKey": {
            "asm": "OP_HASH160 75b77316f8d91ff71fb2819115d1b6b9e80ccee9 OP_EQUAL",
            "hex": "a91475b77316f8d91ff71fb2819115d1b6b9e80ccee987",
            "reqSigs": 1,
            "type": "scripthash",
            "addresses": [
              "MJdb4B3BMDrfpB1FpKsPYQ1tDHdkNa1oLB"
            ]
          }
        }
      ],
      "hex": "010000000198cd5be401d3673a6981fa51b89b591cb22f7aeac69ef0fb959ce6685396935201000000d90047304402204608a4021566c51efbbb6ea29345a45eea2939dce613c4c63bb97c66ba011f5602207314bd62f129d46e847e5bfc5e9b81478a1a5b83185c7d573316739619dc1a26014730440220318fbd111370965252a46c9fa182d0363ba0fec28a0ce3ab5e24ebfe0f32f18002202b7543e0547ae297dc67832418e6433d745f4d037c57da8d8a3eabc2b8d7d95c0147522102f77ec37a042ba4e5e6aef7760398bf59b87ac4c5dee30a2fb8798e9630d4916e210276b93401dc495b28592f66411a7c9093b468f8678db51144fc6a36f550d94aa952aeffffffff02b0253900000000001976a9147de6cab510f0a5e7aae2fb9df3d5a28c076401ce88aca4b11c970000000017a91475b77316f8d91ff71fb2819115d1b6b9e80ccee98700000000"
    }, 
    {
      "txid": "1043a3ea22595de2421ba458d19e16920a2153de46bc46d11ded0c1c81a0f46a",
      "hash": "1043a3ea22595de2421ba458d19e16920a2153de46bc46d11ded0c1c81a0f46a",
      "version": 1,
      "size": 260,
      "vsize": 260,
      "locktime": 0,
      "vin": [
        {
          "txid": "72c850d2734d0d79b6a33168e12111b821ee638a6b1d84deee68c8fcbd57ea85",
          "vout": 10,
          "scriptSig": {
            "asm": "3045022100e9306d133aee240b3976ee7a03655391b361b3cc2dcb0dfdfd0833cd2b8775ce0220784c10defeca193fcda32affee3df965fae935cc80c69ab371069eadd206b1af[ALL] 028aaf0403249ef8e40e727a4cf7f8640437714a55d017498689000c31fd3ebe0f",
            "hex": "483045022100e9306d133aee240b3976ee7a03655391b361b3cc2dcb0dfdfd0833cd2b8775ce0220784c10defeca193fcda32affee3df965fae935cc80c69ab371069eadd206b1af0121028aaf0403249ef8e40e727a4cf7f8640437714a55d017498689000c31fd3ebe0f"
          },
          "sequence": 4294967295
        }
      ],
      "vout": [
        {
          "value": 0.18153504,
          "n": 0,
          "scriptPubKey": {
            "asm": "OP_DUP OP_HASH160 c4e842c1bfd0b67fced702d6814d9f16e11dd72f OP_EQUALVERIFY OP_CHECKSIG",
            "hex": "76a914c4e842c1bfd0b67fced702d6814d9f16e11dd72f88ac",
            "reqSigs": 1,
            "type": "pubkeyhash",
            "addresses": [
              "LdB6waBXVJrXhaDntFP9Bjx7vJn3TygVTX"
            ]
          }
        }, 
        {
          "value": 8.92208278,
          "n": 1,
          "scriptPubKey": {
            "asm": "OP_DUP OP_HASH160 ca9d2e19005df20b74c4e91873018f301fb1ba6a OP_EQUALVERIFY OP_CHECKSIG",
            "hex": "76a914ca9d2e19005df20b74c4e91873018f301fb1ba6a88ac",
            "reqSigs": 1,
            "type": "pubkeyhash",
            "addresses": [
              "LdhH42RjZVsNP1ej2zTuw9fYCDTto6nYow"
            ]
          }
        }, 
        {
          "value": 7.94099107,
          "n": 2,
          "scriptPubKey": {
            "asm": "OP_DUP OP_HASH160 f9871c6dd621879729cd7d502a5af822501cf2aa OP_EQUALVERIFY OP_CHECKSIG",
            "hex": "76a914f9871c6dd621879729cd7d502a5af822501cf2aa88ac",
            "reqSigs": 1,
            "type": "pubkeyhash",
            "addresses": [
              "LhyLNfBkoKshT7R8Pce6vkB9T2cP2o84hx"
            ]
          }
        }
      ],
      "hex": "010000000185ea57bdfcc868eede841d6b8a63ee21b81121e16831a3b6790d4d73d250c8720a0000006b483045022100e9306d133aee240b3976ee7a03655391b361b3cc2dcb0dfdfd0833cd2b8775ce0220784c10defeca193fcda32affee3df965fae935cc80c69ab371069eadd206b1af0121028aaf0403249ef8e40e727a4cf7f8640437714a55d017498689000c31fd3ebe0fffffffff0320001501000000001976a914c4e842c1bfd0b67fced702d6814d9f16e11dd72f88ac96042e35000000001976a914ca9d2e19005df20b74c4e91873018f301fb1ba6a88aca3fd542f000000001976a914f9871c6dd621879729cd7d502a5af822501cf2aa88ac00000000"
    }, 
    {
      "txid": "80e522e251b9b199c3a61779e483250d5da50a7e1b37bb6b8da7bb76b7554e7f",
      "hash": "80e522e251b9b199c3a61779e483250d5da50a7e1b37bb6b8da7bb76b7554e7f",
      "version": 1,
      "size": 226,
      "vsize": 226,
      "locktime": 0,
      "vin": [
        {
          "txid": "75b5774655f12d3924071ccbe1644989ae7c2ef4de889eae57923a94c876bb24",
          "vout": 47,
          "scriptSig": {
            "asm": "3045022100e270f8c01433308defc7f1fdfccaae91739806de8dc5207dde4f53aa0c90c1fd0220425481094f300e9fc45ea211aca61e62e19a8cbc11e979a2f4f37a5af69087e4[ALL] 0265ee152939b211aa636d533ca840462ad8eaf0356e6bb1e4dd80029d62520ae0",
            "hex": "483045022100e270f8c01433308defc7f1fdfccaae91739806de8dc5207dde4f53aa0c90c1fd0220425481094f300e9fc45ea211aca61e62e19a8cbc11e979a2f4f37a5af69087e401210265ee152939b211aa636d533ca840462ad8eaf0356e6bb1e4dd80029d62520ae0"
          },
          "sequence": 4294967295
        }
      ],
      "vout": [
        {
          "value": 1.00000000,
          "n": 0,
          "scriptPubKey": {
            "asm": "OP_DUP OP_HASH160 cac2a4faef856688a287c137f49fa8e8b1be0e36 OP_EQUALVERIFY OP_CHECKSIG",
            "hex": "76a914cac2a4faef856688a287c137f49fa8e8b1be0e3688ac",
            "reqSigs": 1,
            "type": "pubkeyhash",
            "addresses": [
              "Ldi3w6Yvhc5iJjx9PLqDD21TDuqEBqvRrP"
            ]
          }
        }, 
        {
          "value": 346.46790000,
          "n": 1,
          "scriptPubKey": {
            "asm": "OP_DUP OP_HASH160 c23d35dacfa48d44faa53c1da63ab6d5003f08f8 OP_EQUALVERIFY OP_CHECKSIG",
            "hex": "76a914c23d35dacfa48d44faa53c1da63ab6d5003f08f888ac",
            "reqSigs": 1,
            "type": "pubkeyhash",
            "addresses": [
              "LcvzgQ77PHxPE3BJYQyeEKiG3NjkrHueZR"
            ]
          }
        }
      ],
      "hex": "010000000124bb76c8943a9257ae9e88def42e7cae894964e1cb1c0724392df1554677b5752f0000006b483045022100e270f8c01433308defc7f1fdfccaae91739806de8dc5207dde4f53aa0c90c1fd0220425481094f300e9fc45ea211aca61e62e19a8cbc11e979a2f4f37a5af69087e401210265ee152939b211aa636d533ca840462ad8eaf0356e6bb1e4dd80029d62520ae0ffffffff0200e1f505000000001976a914cac2a4faef856688a287c137f49fa8e8b1be0e3688ac700f1c11080000001976a914c23d35dacfa48d44faa53c1da63ab6d5003f08f888ac00000000"
    }, 
    {
      "txid": "e84d79576055d43cc7784ab65c59341dfff072e53801a289f963c3a90d2f9768",
      "hash": "e84d79576055d43cc7784ab65c59341dfff072e53801a289f963c3a90d2f9768",
      "version": 1,
      "size": 336,
      "vsize": 336,
      "locktime": 0,
      "vin": [
        {
          "txid": "c2265dc4ed80a8a50079adbb19bd6d2dd49f8c7be41eacc97621683412a7048c",
          "vout": 1,
          "scriptSig": {
            "asm": "0 3045022100ddbf23319bf80154d42a80070acebfb65fded543938ab5b490a78f25d65791a102200eeb43e9c626be3b43e782ce03d52bc1f7d3dc999f565822b96a701492a6c511[ALL] 3045022100b9d4592ead6f82b21040bf91a3d66ae3910a14eb24418dd24161b1598046cc3902204216bca76846addc482a537389384e3ef6e4d04826549781eadf830e6674df55[ALL] 522103fd6b35e76a106f621af3c7e0ea0d784286885969e4844447e4102a594d5417fb2102efe86fbfe1b0f3735846cf22b42af3dabffa338f10979b21a7332054b41db0ac52ae",
            "hex": "00483045022100ddbf23319bf80154d42a80070acebfb65fded543938ab5b490a78f25d65791a102200eeb43e9c626be3b43e782ce03d52bc1f7d3dc999f565822b96a701492a6c51101483045022100b9d4592ead6f82b21040bf91a3d66ae3910a14eb24418dd24161b1598046cc3902204216bca76846addc482a537389384e3ef6e4d04826549781eadf830e6674df550147522103fd6b35e76a106f621af3c7e0ea0d784286885969e4844447e4102a594d5417fb2102efe86fbfe1b0f3735846cf22b42af3dabffa338f10979b21a7332054b41db0ac52ae"
          },
          "sequence": 4294967295
        }
      ],
      "vout": [
        {
          "value": 0.07870900,
          "n": 0,
          "scriptPubKey": {
            "asm": "OP_DUP OP_HASH160 822d29c4db13c7897c204f499f33cbc0da303f55 OP_EQUALVERIFY OP_CHECKSIG",
            "hex": "76a914822d29c4db13c7897c204f499f33cbc0da303f5588ac",
            "reqSigs": 1,
            "type": "pubkeyhash",
            "addresses": [
              "LX6GD9D5mXXQEVHwE1WqP88e6WXfGd3NAM"
            ]
          }
        }, 
        {
          "value": 4.39365664,
          "n": 1,
          "scriptPubKey": {
            "asm": "OP_HASH160 15cd569f68cd0e4248fc6de84c2fa54eead73025 OP_EQUAL",
            "hex": "a91415cd569f68cd0e4248fc6de84c2fa54eead7302587",
            "reqSigs": 1,
            "type": "scripthash",
            "addresses": [
              "M9tSQcqWx8mNAjwYGibvDRFjRDNaSUtcay"
            ]
          }
        }
      ],
      "hex": "01000000018c04a71234682176c9ac1ee47b8c9fd42d6dbd19bbad7900a5a880edc45d26c201000000db00483045022100ddbf23319bf80154d42a80070acebfb65fded543938ab5b490a78f25d65791a102200eeb43e9c626be3b43e782ce03d52bc1f7d3dc999f565822b96a701492a6c51101483045022100b9d4592ead6f82b21040bf91a3d66ae3910a14eb24418dd24161b1598046cc3902204216bca76846addc482a537389384e3ef6e4d04826549781eadf830e6674df550147522103fd6b35e76a106f621af3c7e0ea0d784286885969e4844447e4102a594d5417fb2102efe86fbfe1b0f3735846cf22b42af3dabffa338f10979b21a7332054b41db0ac52aeffffffff02b4197800000000001976a914822d29c4db13c7897c204f499f33cbc0da303f5588ac2030301a0000000017a91415cd569f68cd0e4248fc6de84c2fa54eead730258700000000"
    }, 
    {
      "txid": "999c94cf8fcb72da731b92ad30da794a2ce520fa62dc71dbd62347f77f90315f",
      "hash": "999c94cf8fcb72da731b92ad30da794a2ce520fa62dc71dbd62347f77f90315f",
      "version": 1,
      "size": 338,
      "vsize": 338,
      "locktime": 0,
      "vin": [
        {
          "txid": "f337a8d6caa99cde2f36d85ad75455c3b1f9eb8473d7c5be7b490dfd5eb8b9ea",
          "vout": 1,
          "scriptSig": {
            "asm": "30440220643a888f96e4e77e1b4142bdb319b5d3f6179c7adc3080299cffaf110d8026d50220671fde2a65da0ccac07714f9c9e39c45f4b2ddea795a2f15d83e149e29e2690a[ALL] 023530b09a2fc42e01d43b58c082971e5cc57ad5f9e651bedaf2b985ec77a18fa6",
            "hex": "4730440220643a888f96e4e77e1b4142bdb319b5d3f6179c7adc3080299cffaf110d8026d50220671fde2a65da0ccac07714f9c9e39c45f4b2ddea795a2f15d83e149e29e2690a0121023530b09a2fc42e01d43b58c082971e5cc57ad5f9e651bedaf2b985ec77a18fa6"
          },
          "sequence": 4294967295
        }, 
        {
          "txid": "8d9d80d4e9e692d3cece5962e808934363dda006a626a5ca811ae3da73a936e9",
          "vout": 1,
          "scriptSig": {
            "asm": "304402205abbd9d8479674e40f75866f1b8580a32294411d001e6cc75b5860967316f1ba02200099c7e5fa510dca9092faf17c100f369d6bf018b0c0ee3a9661ee91e6fe4e6c[ALL] 03b85d7379e27502c23f4039952fd77948b7f7f761b6c268f3eb0cbd94ecf9f5f4",
            "hex": "47304402205abbd9d8479674e40f75866f1b8580a32294411d001e6cc75b5860967316f1ba02200099c7e5fa510dca9092faf17c100f369d6bf018b0c0ee3a9661ee91e6fe4e6c012103b85d7379e27502c23f4039952fd77948b7f7f761b6c268f3eb0cbd94ecf9f5f4"
          },
          "sequence": 4294967295
        }
      ],
      "vout": [
        {
          "value": 4.67700000,
          "n": 0,
          "scriptPubKey": {
            "asm": "OP_DUP OP_HASH160 9793cb71b01fa5eedc9d09a443e0e905764131ee OP_EQUALVERIFY OP_CHECKSIG",
            "hex": "76a9149793cb71b01fa5eedc9d09a443e0e905764131ee88ac",
            "reqSigs": 1,
            "type": "pubkeyhash",
            "addresses": [
              "LZ3RM8or4R6KYinz4V8pJC1MpuWxyG4JVB"
            ]
          }
        }
      ],
      "hex": "0100000002eab9b85efd0d497bbec5d77384ebf9b1c35554d75ad8362fde9ca9cad6a837f3010000006a4730440220643a888f96e4e77e1b4142bdb319b5d3f6179c7adc3080299cffaf110d8026d50220671fde2a65da0ccac07714f9c9e39c45f4b2ddea795a2f15d83e149e29e2690a0121023530b09a2fc42e01d43b58c082971e5cc57ad5f9e651bedaf2b985ec77a18fa6ffffffffe936a973dae31a81caa526a606a0dd63439308e86259ceced392e6e9d4809d8d010000006a47304402205abbd9d8479674e40f75866f1b8580a32294411d001e6cc75b5860967316f1ba02200099c7e5fa510dca9092faf17c100f369d6bf018b0c0ee3a9661ee91e6fe4e6c012103b85d7379e27502c23f4039952fd77948b7f7f761b6c268f3eb0cbd94ecf9f5f4ffffffff012089e01b000000001976a9149793cb71b01fa5eedc9d09a443e0e905764131ee88ac00000000"
    }, 
    {
      "txid": "ecb03925364d47aba3ff73a7d6b967cad7a9e266eca2872caeb3713386b0f130",
      "hash": "ecb03925364d47aba3ff73a7d6b967cad7a9e266eca2872caeb3713386b0f130",
      "version": 2,
      "size": 225,
      "vsize": 225,
      "locktime": 1360777,
      "vin": [
        {
          "txid": "29b1f3831736f6315a0ceb5b0943b1bf7f4ae04acf6900d3a1c52f18db6694d9",
          "vout": 53,
          "scriptSig": {
            "asm": "304402201f0d0ac7cccc7cbea02ac02500b8f51177155af4a7bf68be2fd92f28cfc8877f022028f8aa31ce2ae1563443927cca980e4b2f056e22674603fcfac73ecffa1e9d20[ALL] 021b315ce3ee8f8144d5a50f9693f9dc1db3aaf4b901fcde6554d15067edb55161",
            "hex": "47304402201f0d0ac7cccc7cbea02ac02500b8f51177155af4a7bf68be2fd92f28cfc8877f022028f8aa31ce2ae1563443927cca980e4b2f056e22674603fcfac73ecffa1e9d200121021b315ce3ee8f8144d5a50f9693f9dc1db3aaf4b901fcde6554d15067edb55161"
          },
          "sequence": 4294967294
        }
      ],
      "vout": [
        {
          "value": 0.03265556,
          "n": 0,
          "scriptPubKey": {
            "asm": "OP_DUP OP_HASH160 0ec69f724b309522f9c4d781b77d4e9157f33688 OP_EQUALVERIFY OP_CHECKSIG",
            "hex": "76a9140ec69f724b309522f9c4d781b77d4e9157f3368888ac",
            "reqSigs": 1,
            "type": "pubkeyhash",
            "addresses": [
              "LLa5fTN2tSSSWsF4ae4DgeC2FCknkmfAYn"
            ]
          }
        }, 
        {
          "value": 3.20000000,
          "n": 1,
          "scriptPubKey": {
            "asm": "OP_DUP OP_HASH160 0a566745df7177420a7e98f351a0e9336e963efb OP_EQUALVERIFY OP_CHECKSIG",
            "hex": "76a9140a566745df7177420a7e98f351a0e9336e963efb88ac",
            "reqSigs": 1,
            "type": "pubkeyhash",
            "addresses": [
              "LLAcXYbGVU1h6MJidvvaQsGcekx6oD1gTM"
            ]
          }
        }
      ],
      "hex": "0200000001d99466db182fc5a1d30069cf4ae04a7fbfb143095beb0c5a31f6361783f3b129350000006a47304402201f0d0ac7cccc7cbea02ac02500b8f51177155af4a7bf68be2fd92f28cfc8877f022028f8aa31ce2ae1563443927cca980e4b2f056e22674603fcfac73ecffa1e9d200121021b315ce3ee8f8144d5a50f9693f9dc1db3aaf4b901fcde6554d15067edb55161feffffff0214d43100000000001976a9140ec69f724b309522f9c4d781b77d4e9157f3368888ac00d01213000000001976a9140a566745df7177420a7e98f351a0e9336e963efb88ac89c31400"
    }, 
    {
      "txid": "95883de786c2c04406a1a5dadbcb236161d028e413f016ab71ef297abc023370",
      "hash": "95883de786c2c04406a1a5dadbcb236161d028e413f016ab71ef297abc023370",
      "version": 1,
      "size": 225,
      "vsize": 225,
      "locktime": 0,
      "vin": [
        {
          "txid": "c6d48fc8a2034afc045dead5627cd611ac509e795a91bf6fc5ddd1ce3a854dca",
          "vout": 0,
          "scriptSig": {
            "asm": "3044022052f22512dd81bf59aa6a12e510df2eb64435096300f4c0702c7d969b42b446a8022030e15eb668c754662d2c3954b9c722b782dff271f12826ef197b11b81f63ab6d[ALL] 0371fff19b575b64e5b15967c2f46ee1d1074d9d767945d6a6d1398e370cd2eb8c",
            "hex": "473044022052f22512dd81bf59aa6a12e510df2eb64435096300f4c0702c7d969b42b446a8022030e15eb668c754662d2c3954b9c722b782dff271f12826ef197b11b81f63ab6d01210371fff19b575b64e5b15967c2f46ee1d1074d9d767945d6a6d1398e370cd2eb8c"
          },
          "sequence": 4294967295
        }
      ],
      "vout": [
        {
          "value": 0.56610816,
          "n": 0,
          "scriptPubKey": {
            "asm": "OP_DUP OP_HASH160 c633d518f3967d47ed001e7dfb89f50b104225b3 OP_EQUALVERIFY OP_CHECKSIG",
            "hex": "76a914c633d518f3967d47ed001e7dfb89f50b104225b388ac",
            "reqSigs": 1,
            "type": "pubkeyhash",
            "addresses": [
              "LdHx9aH4dQRtR5ZVbwZdRhpVJmG6xN7F9B"
            ]
          }
        }, 
        {
          "value": 0.05050925,
          "n": 1,
          "scriptPubKey": {
            "asm": "OP_DUP OP_HASH160 d104fe8f91bb1c59ef95201e3b9d0c023fd9b072 OP_EQUALVERIFY OP_CHECKSIG",
            "hex": "76a914d104fe8f91bb1c59ef95201e3b9d0c023fd9b07288ac",
            "reqSigs": 1,
            "type": "pubkeyhash",
            "addresses": [
              "LeH9UKaGcwMXGkzFVEWDPSUhvjf2jMjc8a"
            ]
          }
        }
      ],
      "hex": "0100000001ca4d853aced1ddc56fbf915a799e50ac11d67c62d5ea5d04fc4a03a2c88fd4c6000000006a473044022052f22512dd81bf59aa6a12e510df2eb64435096300f4c0702c7d969b42b446a8022030e15eb668c754662d2c3954b9c722b782dff271f12826ef197b11b81f63ab6d01210371fff19b575b64e5b15967c2f46ee1d1074d9d767945d6a6d1398e370cd2eb8cffffffff0200d05f03000000001976a914c633d518f3967d47ed001e7dfb89f50b104225b388ac2d124d00000000001976a914d104fe8f91bb1c59ef95201e3b9d0c023fd9b07288ac00000000"
    }, 
    {
      "txid": "a6e564b2bc793d58fafaab95b827d2b33ab9b03f2598634820b58282278988c0",
      "hash": "a6e564b2bc793d58fafaab95b827d2b33ab9b03f2598634820b58282278988c0",
      "version": 2,
      "size": 657,
      "vsize": 657,
      "locktime": 1360777,
      "vin": [
        {
          "txid": "3cec0bcb9e9ded7e00f373d5a844fb9afa06ba1b885c58d62c708de0fe96dfac",
          "vout": 1,
          "scriptSig": {
            "asm": "304402200945b3a33892c335fac29608989006cb33a705d12b9a62a904d2589c6d56931a02205a95cdf0f9376bb6a59f4efc8ca0e4a7812afcb4192776f075ed3692259085f9[ALL] 02a3fc6b52f37a17309cad578cc8aef5cfdec5b60c2e66b219f7981a5053e0e95f",
            "hex": "47304402200945b3a33892c335fac29608989006cb33a705d12b9a62a904d2589c6d56931a02205a95cdf0f9376bb6a59f4efc8ca0e4a7812afcb4192776f075ed3692259085f9012102a3fc6b52f37a17309cad578cc8aef5cfdec5b60c2e66b219f7981a5053e0e95f"
          },
          "sequence": 4294967294
        }, 
        {
          "txid": "f61be9a989483be69c7fb14f203d23fc10a682146732530658bf06ccb5e8e525",
          "vout": 1,
          "scriptSig": {
            "asm": "3045022100b854fd8ccc3c9804492bb7c169034a3d01ce66ddc01a25f1d0797155427a5dc7022054dc26c312422a43f9e7998a7e8d1981e77b934d48630e4e3de5ea4713463952[ALL] 032ffe6e45d90b4408e1acfb7b616839898fbd427da353ee79b4eea8c018e0fc08",
            "hex": "483045022100b854fd8ccc3c9804492bb7c169034a3d01ce66ddc01a25f1d0797155427a5dc7022054dc26c312422a43f9e7998a7e8d1981e77b934d48630e4e3de5ea47134639520121032ffe6e45d90b4408e1acfb7b616839898fbd427da353ee79b4eea8c018e0fc08"
          },
          "sequence": 4294967294
        }, 
        {
          "txid": "1c751a9ea5a09a699a1e39a70035e892693b9fcf89fdb9b7c169f78c9e3d3fcd",
          "vout": 8,
          "scriptSig": {
            "asm": "3045022100be76017c9c645fe64d1d536c5172fe6fafe84c98e232bbcc46828edcac21fa5402203069f3e045ef1321331f4a39b20d9cb0797f4cd2f16f92c46ed93ebf2f2dbbf7[ALL] 021cdb0645503c8549330a9373150b5081235c693622557b668dde3e55936f190b",
            "hex": "483045022100be76017c9c645fe64d1d536c5172fe6fafe84c98e232bbcc46828edcac21fa5402203069f3e045ef1321331f4a39b20d9cb0797f4cd2f16f92c46ed93ebf2f2dbbf70121021cdb0645503c8549330a9373150b5081235c693622557b668dde3e55936f190b"
          },
          "sequence": 4294967294
        }
      ],
      "vout": [
        {
          "value": 3.61660400,
          "n": 0,
          "scriptPubKey": {
            "asm": "OP_DUP OP_HASH160 62ff44023ae81c88b55b2cd0686d0cee57fce594 OP_EQUALVERIFY OP_CHECKSIG",
            "hex": "76a91462ff44023ae81c88b55b2cd0686d0cee57fce59488ac",
            "reqSigs": 1,
            "type": "pubkeyhash",
            "addresses": [
              "LUFQHBUDGmstzATRhJd2gAe8J5YmmaQ3us"
            ]
          }
        }, 
        {
          "value": 0.26065500,
          "n": 1,
          "scriptPubKey": {
            "asm": "OP_DUP OP_HASH160 f0b058003e1ee9053e19349b25ab0e64d36068c7 OP_EQUALVERIFY OP_CHECKSIG",
            "hex": "76a914f0b058003e1ee9053e19349b25ab0e64d36068c788ac",
            "reqSigs": 1,
            "type": "pubkeyhash",
            "addresses": [
              "LhAbgqA9nFnjLYnSafagueaqA9A1vHR1p6"
            ]
          }
        }, 
        {
          "value": 9.22738400,
          "n": 2,
          "scriptPubKey": {
            "asm": "OP_DUP OP_HASH160 7cec76776df2453ea5abecddf2ad79dc1319e57b OP_EQUALVERIFY OP_CHECKSIG",
            "hex": "76a9147cec76776df2453ea5abecddf2ad79dc1319e57b88ac",
            "reqSigs": 1,
            "type": "pubkeyhash",
            "addresses": [
              "LWcVKikFskZb9Tx1rfnhBrQrC6QAxHNWSW"
            ]
          }
        }, 
        {
          "value": 0.52848200,
          "n": 3,
          "scriptPubKey": {
            "asm": "OP_DUP OP_HASH160 121756954f864814ab9fcd2cf1a0504e4af75dbd OP_EQUALVERIFY OP_CHECKSIG",
            "hex": "76a914121756954f864814ab9fcd2cf1a0504e4af75dbd88ac",
            "reqSigs": 1,
            "type": "pubkeyhash",
            "addresses": [
              "LLscPEWACj8KFPHxuqUGaS6y3yvXLbj4cs"
            ]
          }
        }, 
        {
          "value": 1.67290900,
          "n": 4,
          "scriptPubKey": {
            "asm": "OP_DUP OP_HASH160 6a6fc1ef3d882101fc6a6c53a7d388c8f7e77307 OP_EQUALVERIFY OP_CHECKSIG",
            "hex": "76a9146a6fc1ef3d882101fc6a6c53a7d388c8f7e7730788ac",
            "reqSigs": 1,
            "type": "pubkeyhash",
            "addresses": [
              "LUvjmbee59ZWnynQvvVDu1BquhR7ZVv832"
            ]
          }
        }, 
        {
          "value": 0.00934219,
          "n": 5,
          "scriptPubKey": {
            "asm": "OP_DUP OP_HASH160 a28905b14b25a5209033b028ad216afaf293bb62 OP_EQUALVERIFY OP_CHECKSIG",
            "hex": "76a914a28905b14b25a5209033b028ad216afaf293bb6288ac",
            "reqSigs": 1,
            "type": "pubkeyhash",
            "addresses": [
              "La3Msm7jsHXRV7u7KWWvhJFS422rUuLror"
            ]
          }
        }
      ],
      "hex": "0200000003acdf96fee08d702cd6585c881bba06fa9afb44a8d573f3007eed9d9ecb0bec3c010000006a47304402200945b3a33892c335fac29608989006cb33a705d12b9a62a904d2589c6d56931a02205a95cdf0f9376bb6a59f4efc8ca0e4a7812afcb4192776f075ed3692259085f9012102a3fc6b52f37a17309cad578cc8aef5cfdec5b60c2e66b219f7981a5053e0e95ffeffffff25e5e8b5cc06bf58065332671482a610fc233d204fb17f9ce63b4889a9e91bf6010000006b483045022100b854fd8ccc3c9804492bb7c169034a3d01ce66ddc01a25f1d0797155427a5dc7022054dc26c312422a43f9e7998a7e8d1981e77b934d48630e4e3de5ea47134639520121032ffe6e45d90b4408e1acfb7b616839898fbd427da353ee79b4eea8c018e0fc08feffffffcd3f3d9e8cf769c1b7b9fd89cf9f3b6992e83500a7391e9a699aa0a59e1a751c080000006b483045022100be76017c9c645fe64d1d536c5172fe6fafe84c98e232bbcc46828edcac21fa5402203069f3e045ef1321331f4a39b20d9cb0797f4cd2f16f92c46ed93ebf2f2dbbf70121021cdb0645503c8549330a9373150b5081235c693622557b668dde3e55936f190bfeffffff06f07f8e15000000001976a91462ff44023ae81c88b55b2cd0686d0cee57fce59488ac5cba8d01000000001976a914f0b058003e1ee9053e19349b25ab0e64d36068c788ace0deff36000000001976a9147cec76776df2453ea5abecddf2ad79dc1319e57b88ac48662603000000001976a914121756954f864814ab9fcd2cf1a0504e4af75dbd88ac14a8f809000000001976a9146a6fc1ef3d882101fc6a6c53a7d388c8f7e7730788ac4b410e00000000001976a914a28905b14b25a5209033b028ad216afaf293bb6288ac89c31400"
    }, 
    {
      "txid": "1b61363ccd1daf63afde7878b232ec222a0ab27a6f69a98a28d771f5ac4cf056",
      "hash": "1b61363ccd1daf63afde7878b232ec222a0ab27a6f69a98a28d771f5ac4cf056",
      "version": 1,
      "size": 226,
      "vsize": 226,
      "locktime": 0,
      "vin": [
        {
          "txid": "26a4c8c2251d44405d815d012926ef5e2a92e082738d7f5bca67742acd116327",
          "vout": 0,
          "scriptSig": {
            "asm": "3045022100acde8841b43ac40d32ca5f3d8d2d460387e498b22c2a06237cff7fb986d605f6022063fdb985b5e7a0ed9c84c2f18dd15ad8bf698b6a33c91453e6c9ec192606cba0[ALL] 021dbbb772d9b2fb47839315ab6284186e5d57408b3db8443df599a05e85c8efb7",
            "hex": "483045022100acde8841b43ac40d32ca5f3d8d2d460387e498b22c2a06237cff7fb986d605f6022063fdb985b5e7a0ed9c84c2f18dd15ad8bf698b6a33c91453e6c9ec192606cba00121021dbbb772d9b2fb47839315ab6284186e5d57408b3db8443df599a05e85c8efb7"
          },
          "sequence": 4294967295
        }
      ],
      "vout": [
        {
          "value": 0.52000000,
          "n": 0,
          "scriptPubKey": {
            "asm": "OP_DUP OP_HASH160 9d5baef4e924460686b25225ae73dc408f3f658d OP_EQUALVERIFY OP_CHECKSIG",
            "hex": "76a9149d5baef4e924460686b25225ae73dc408f3f658d88ac",
            "reqSigs": 1,
            "type": "pubkeyhash",
            "addresses": [
              "LZZzBc8CU7dAJ9c1FPCrJV3MgukjdA8D9S"
            ]
          }
        }, 
        {
          "value": 95.87173214,
          "n": 1,
          "scriptPubKey": {
            "asm": "OP_DUP OP_HASH160 9ac072d23bccda0c0fdbbcc785d0af74bab43d32 OP_EQUALVERIFY OP_CHECKSIG",
            "hex": "76a9149ac072d23bccda0c0fdbbcc785d0af74bab43d3288ac",
            "reqSigs": 1,
            "type": "pubkeyhash",
            "addresses": [
              "LZLCsK5Z69VakFakgDG1McqwwbqURco9dH"
            ]
          }
        }
      ],
      "hex": "0100000001276311cd2a7467ca5b7f8d7382e0922a5eef2629015d815d40441d25c2c8a426000000006b483045022100acde8841b43ac40d32ca5f3d8d2d460387e498b22c2a06237cff7fb986d605f6022063fdb985b5e7a0ed9c84c2f18dd15ad8bf698b6a33c91453e6c9ec192606cba00121021dbbb772d9b2fb47839315ab6284186e5d57408b3db8443df599a05e85c8efb7ffffffff0200751903000000001976a9149d5baef4e924460686b25225ae73dc408f3f658d88ac5ea7703b020000001976a9149ac072d23bccda0c0fdbbcc785d0af74bab43d3288ac00000000"
    }, 
    {
      "txid": "d10638e855891da167231dea4746895ef1552f29e075feec570783413dd78bbf",
      "hash": "d10638e855891da167231dea4746895ef1552f29e075feec570783413dd78bbf",
      "version": 2,
      "size": 374,
      "vsize": 374,
      "locktime": 1360777,
      "vin": [
        {
          "txid": "fab76188d5b8011ccbab7fd9cb0ecddc8a346bb479fe364f4a0c93711ccb601f",
          "vout": 1,
          "scriptSig": {
            "asm": "3045022100b3c685edfb096b30db9a84595a1815376d9eade6a67061935c835cff9f83de03022015d869fc790d1dd1213c4a0f89b5d1267dd820cbc3d73f16ba42863cca4150c4[ALL] 035625993fb9ceed4dbd8f02458f0ffa108e5b7a6a06d9da314f835a15f4448e56",
            "hex": "483045022100b3c685edfb096b30db9a84595a1815376d9eade6a67061935c835cff9f83de03022015d869fc790d1dd1213c4a0f89b5d1267dd820cbc3d73f16ba42863cca4150c40121035625993fb9ceed4dbd8f02458f0ffa108e5b7a6a06d9da314f835a15f4448e56"
          },
          "sequence": 4294967294
        }, 
        {
          "txid": "241cf8c4f9942b7a1bbaba6e932e37540aef27837648006f7f13f642bb4641b0",
          "vout": 1,
          "scriptSig": {
            "asm": "3045022100e14109a2835f596013b521d364f0bc507e7d3be4904c92c5a09bf2c3d297e44902203e069d728978fc34710faa8204e0a84ec2e1b6cb6b294eb50ba0221954a3f9c8[ALL] 03281fabef69e07de206ebf383bba4cdd27f68f0bbe21f620f2cba2ef5950bffc0",
            "hex": "483045022100e14109a2835f596013b521d364f0bc507e7d3be4904c92c5a09bf2c3d297e44902203e069d728978fc34710faa8204e0a84ec2e1b6cb6b294eb50ba0221954a3f9c8012103281fabef69e07de206ebf383bba4cdd27f68f0bbe21f620f2cba2ef5950bffc0"
          },
          "sequence": 4294967294
        }
      ],
      "vout": [
        {
          "value": 0.06159730,
          "n": 0,
          "scriptPubKey": {
            "asm": "OP_DUP OP_HASH160 94b572dd1485ffdf524945607ef2ea3abeb1f577 OP_EQUALVERIFY OP_CHECKSIG",
            "hex": "76a91494b572dd1485ffdf524945607ef2ea3abeb1f57788ac",
            "reqSigs": 1,
            "type": "pubkeyhash",
            "addresses": [
              "LYnFdsyLdHeWPCJs5wKtZXrZWQEWNW6zTd"
            ]
          }
        }, 
        {
          "value": 5.19177420,
          "n": 1,
          "scriptPubKey": {
            "asm": "OP_DUP OP_HASH160 ee83d875b1dc99de580b8bf4c9fc2db79b42551e OP_EQUALVERIFY OP_CHECKSIG",
            "hex": "76a914ee83d875b1dc99de580b8bf4c9fc2db79b42551e88ac",
            "reqSigs": 1,
            "type": "pubkeyhash",
            "addresses": [
              "Lgy72f72TpqFS1hT4oqurbbG6nveZAtbba"
            ]
          }
        }
      ],
      "hex": "02000000021f60cb1c71930c4a4f36fe79b46b348adccd0ecbd97fabcb1c01b8d58861b7fa010000006b483045022100b3c685edfb096b30db9a84595a1815376d9eade6a67061935c835cff9f83de03022015d869fc790d1dd1213c4a0f89b5d1267dd820cbc3d73f16ba42863cca4150c40121035625993fb9ceed4dbd8f02458f0ffa108e5b7a6a06d9da314f835a15f4448e56feffffffb04146bb42f6137f6f0048768327ef0a54372e936ebaba1b7a2b94f9c4f81c24010000006b483045022100e14109a2835f596013b521d364f0bc507e7d3be4904c92c5a09bf2c3d297e44902203e069d728978fc34710faa8204e0a84ec2e1b6cb6b294eb50ba0221954a3f9c8012103281fabef69e07de206ebf383bba4cdd27f68f0bbe21f620f2cba2ef5950bffc0feffffff0272fd5d00000000001976a91494b572dd1485ffdf524945607ef2ea3abeb1f57788accc04f21e000000001976a914ee83d875b1dc99de580b8bf4c9fc2db79b42551e88ac89c31400"
    }
  ],
  "time": 1517480517,
  "mediantime": 1517479608,
  "nonce": 3731916049,
  "bits": "1a042eae",
  "difficulty": 4011378.762614286,
  "chainwork": "00000000000000000000000000000000000000000000003541e484b716414618",
  "previousblockhash": "0d4352bea188e43d0a9503774152de089a49488cf85b110700f43ceffb936729",
  "nextblockhash": "ec90c59cb39d875ef0195c61f0f5e7401f0a6c2a55ae76cfd1d532f014f081bd"
}
