{
  "hash": "9bdda0e40e07eb6be82958f58a1cae68e40414dc7da433a45ce7bdb9c47bc228",
  "confirmations": 3296,
  "strippedsize": 234,
  "size": 234,
  "weight": 936,
  "height": 1357699,
  "version": 536870912,
  "versionHex": "20000000",
  "merkleroot": "ff53de973b7e7e42d7585bca0716a87070ceffcccddf58c362c0d32ff2ac73cb",
  "tx": [
    {
      "txid": "ff53de973b7e7e42d7585bca0716a87070ceffcccddf58c362c0d32ff2ac73cb",
      "hash": "ff53de973b7e7e42d7585bca0716a87070ceffcccddf58c362c0d32ff2ac73cb",
      "version": 1,
      "size": 153,
      "vsize": 153,
      "locktime": 0,
      "vin": [
        {
          "coinbase": "0383b714045a6c23a52cfabe6d6d6be72aa3c1e04b752cfd4190067ba44da4fe96c09fe8b173944ac8a136c9beab4000000000000000042f4c502f082200138ef3030000",
          "sequence": 4294967295
        }
      ],
      "vout": [
        {
          "value": 25.00000000,
          "n": 0,
          "scriptPubKey": {
            "asm": "OP_DUP OP_HASH160 57757ed2ecf2052ff3126c397aca7defb9ca2cec OP_EQUALVERIFY OP_CHECKSIG",
            "hex": "76a91457757ed2ecf2052ff3126c397aca7defb9ca2cec88ac",
            "reqSigs": 1,
            "type": "pubkeyhash",
            "addresses": [
              "LTCPodGk5FwcJaRzH9yKnwicxzFUbxp6tN"
            ]
          }
        }
      ],
      "hex": "01000000010000000000000000000000000000000000000000000000000000000000000000ffffffff440383b714045a6c23a52cfabe6d6d6be72aa3c1e04b752cfd4190067ba44da4fe96c09fe8b173944ac8a136c9beab4000000000000000042f4c502f082200138ef3030000ffffffff0100f90295000000001976a91457757ed2ecf2052ff3126c397aca7defb9ca2cec88ac00000000"
    }
  ],
  "time": 1517036453,
  "mediantime": 1517035968,
  "nonce": 3523563429,
  "bits": "1a047f14",
  "difficulty": 3731199.183374282,
  "chainwork": "0000000000000000000000000000000000000000000000327390fb0e97e72668",
  "previousblockhash": "0235ef2ca800fd10e2a6b14b23765b2e5219f9b486128c40c53a64778b7d3f5a",
  "nextblockhash": "e67f4a8281fd502844fce3355e0b101bd1113b0f62881969f5a9b80a4fae89d1"
}
