{
  "hash": "9c6719df14c2816a01d9f3b3ea7a7e369ae77d46e4b3ec2fd53f378bbab598c4",
  "confirmations": 1563,
  "strippedsize": 253,
  "size": 253,
  "weight": 1012,
  "height": 1359431,
  "version": 536870912,
  "versionHex": "20000000",
  "merkleroot": "7eefc16a0bdaf4e9451a1645faa82f1120c5b3d949c0d60fd83b12e39ac82a07",
  "tx": [
    {
      "txid": "7eefc16a0bdaf4e9451a1645faa82f1120c5b3d949c0d60fd83b12e39ac82a07",
      "hash": "7eefc16a0bdaf4e9451a1645faa82f1120c5b3d949c0d60fd83b12e39ac82a07",
      "version": 1,
      "size": 172,
      "vsize": 172,
      "locktime": 0,
      "vin": [
        {
          "coinbase": "0347be141a4d696e656420627920416e74506f6f6c20626a3532205a6fe1f4fabe6d6d09d7bc5af218e6cd49265bb23ed45ed4cab9047c378b523e3a24583b7b1439ca0400000000000000c5010000000000000e000000",
          "sequence": 4294967295
        }
      ],
      "vout": [
        {
          "value": 25.00000000,
          "n": 0,
          "scriptPubKey": {
            "asm": "OP_DUP OP_HASH160 0ff3ccc5e8be88afe24b5d634e5852d474dbdff1 OP_EQUALVERIFY OP_CHECKSIG",
            "hex": "76a9140ff3ccc5e8be88afe24b5d634e5852d474dbdff188ac",
            "reqSigs": 1,
            "type": "pubkeyhash",
            "addresses": [
              "LLgJTbzZMsRTCUF1NtvvL9SR1a4pVieW89"
            ]
          }
        }
      ],
      "hex": "01000000010000000000000000000000000000000000000000000000000000000000000000ffffffff570347be141a4d696e656420627920416e74506f6f6c20626a3532205a6fe1f4fabe6d6d09d7bc5af218e6cd49265bb23ed45ed4cab9047c378b523e3a24583b7b1439ca0400000000000000c5010000000000000e000000ffffffff0100f90295000000001976a9140ff3ccc5e8be88afe24b5d634e5852d474dbdff188ac00000000"
    }
  ],
  "time": 1517281780,
  "mediantime": 1517281093,
  "nonce": 3088185931,
  "bits": "1a042eae",
  "difficulty": 4011378.762614286,
  "chainwork": "000000000000000000000000000000000000000000000033ff95d21c629cb590",
  "previousblockhash": "84f7c1aa9b668c902c0fa5a43e6dec8136b0b523ff47f19130bc446c119fc132",
  "nextblockhash": "3c227babcd6b45260be7239419b10716e613d52ce433f1bbf66f118023ad51b0"
}
