{
  "hash": "9d380bc89f9ec30cdbd4fb5452f97639ec98424748aab901428dcb2a90c9deca",
  "confirmations": 2402,
  "strippedsize": 234,
  "size": 234,
  "weight": 936,
  "height": 1358593,
  "version": 536870912,
  "versionHex": "20000000",
  "merkleroot": "4fd7540e9a2c10f012c60f95f6e7e71adcaed312614c4571911faf606f27982f",
  "tx": [
    {
      "txid": "4fd7540e9a2c10f012c60f95f6e7e71adcaed312614c4571911faf606f27982f",
      "hash": "4fd7540e9a2c10f012c60f95f6e7e71adcaed312614c4571911faf606f27982f",
      "version": 1,
      "size": 153,
      "vsize": 153,
      "locktime": 0,
      "vin": [
        {
          "coinbase": "0301bb14045a6e0ee12cfabe6d6d4431d74f6858ac238228c31f29a430fbb6ed17a51cb7f202f957ca126a55f53c4000000000000000042f4c502f08220092cf10000000",
          "sequence": 4294967295
        }
      ],
      "vout": [
        {
          "value": 25.00000000,
          "n": 0,
          "scriptPubKey": {
            "asm": "OP_DUP OP_HASH160 57757ed2ecf2052ff3126c397aca7defb9ca2cec OP_EQUALVERIFY OP_CHECKSIG",
            "hex": "76a91457757ed2ecf2052ff3126c397aca7defb9ca2cec88ac",
            "reqSigs": 1,
            "type": "pubkeyhash",
            "addresses": [
              "LTCPodGk5FwcJaRzH9yKnwicxzFUbxp6tN"
            ]
          }
        }
      ],
      "hex": "01000000010000000000000000000000000000000000000000000000000000000000000000ffffffff440301bb14045a6e0ee12cfabe6d6d4431d74f6858ac238228c31f29a430fbb6ed17a51cb7f202f957ca126a55f53c4000000000000000042f4c502f08220092cf10000000ffffffff0100f90295000000001976a91457757ed2ecf2052ff3126c397aca7defb9ca2cec88ac00000000"
    }
  ],
  "time": 1517162209,
  "mediantime": 1517161184,
  "nonce": 1401706426,
  "bits": "1a047f14",
  "difficulty": 3731199.183374282,
  "chainwork": "0000000000000000000000000000000000000000000000333a646107eda60934",
  "previousblockhash": "39c3b6c87b0073e5087469c8241f1445c40c277e4f8d0ab9dfd93124b1f8c2ba",
  "nextblockhash": "0c8aed6ae677f7475fee8291a4ec2135138290bad70d0f054ab6d6fbff61c066"
}
