{
  "hash": "9d53d86931f8383e02f9aef9e3f8348a2713e4d9c54eeaef380053af5e3af829",
  "confirmations": 2558,
  "strippedsize": 256,
  "size": 256,
  "weight": 1024,
  "height": 1358437,
  "version": 536870912,
  "versionHex": "20000000",
  "merkleroot": "9e35a385b6f927885bf933097a89c18b456a13cf7972bbea45b59d0a1bf9bf0f",
  "tx": [
    {
      "txid": "9e35a385b6f927885bf933097a89c18b456a13cf7972bbea45b59d0a1bf9bf0f",
      "hash": "9e35a385b6f927885bf933097a89c18b456a13cf7972bbea45b59d0a1bf9bf0f",
      "version": 1,
      "size": 175,
      "vsize": 175,
      "locktime": 0,
      "vin": [
        {
          "coinbase": "0365ba141d4d696e656420627920416e74506f6f6c20626a302042205a6dbf840dccfabe6d6d79105bce3873dd89b4b5e7c0f18e09ce9c6607855f50c578d83d27a9346c0ad10400000000000000bb0f00000000000004000000",
          "sequence": 4294967295
        }
      ],
      "vout": [
        {
          "value": 25.00000000,
          "n": 0,
          "scriptPubKey": {
            "asm": "OP_DUP OP_HASH160 0ff3ccc5e8be88afe24b5d634e5852d474dbdff1 OP_EQUALVERIFY OP_CHECKSIG",
            "hex": "76a9140ff3ccc5e8be88afe24b5d634e5852d474dbdff188ac",
            "reqSigs": 1,
            "type": "pubkeyhash",
            "addresses": [
              "LLgJTbzZMsRTCUF1NtvvL9SR1a4pVieW89"
            ]
          }
        }
      ],
      "hex": "01000000010000000000000000000000000000000000000000000000000000000000000000ffffffff5a0365ba141d4d696e656420627920416e74506f6f6c20626a302042205a6dbf840dccfabe6d6d79105bce3873dd89b4b5e7c0f18e09ce9c6607855f50c578d83d27a9346c0ad10400000000000000bb0f00000000000004000000ffffffff0100f90295000000001976a9140ff3ccc5e8be88afe24b5d634e5852d474dbdff188ac00000000"
    }
  ],
  "time": 1517141892,
  "mediantime": 1517141446,
  "nonce": 470795568,
  "bits": "1a047f14",
  "difficulty": 3731199.183374282,
  "chainwork": "00000000000000000000000000000000000000000000003317b29ad58c37695c",
  "previousblockhash": "c65db2c015d00db9822143e8377d03b489d278c0d9117f8f913f13ec4a4a88e9",
  "nextblockhash": "9902513963eabf20be4e9abc2db47260e391a24dec2359c7b2837e3e8cda3fc7"
}
