{
  "hash": "9d675e11483540fa26f9f98a4dcc5e216d7ddec5e7d7b312ad0f3fe7b62775d2",
  "confirmations": 3424,
  "strippedsize": 234,
  "size": 234,
  "weight": 936,
  "height": 1357571,
  "version": 536870912,
  "versionHex": "20000000",
  "merkleroot": "0383700a2460e59fce9e7351218915be02887ca14e3cdc24927fb3edc07d8bb5",
  "tx": [
    {
      "txid": "0383700a2460e59fce9e7351218915be02887ca14e3cdc24927fb3edc07d8bb5",
      "hash": "0383700a2460e59fce9e7351218915be02887ca14e3cdc24927fb3edc07d8bb5",
      "version": 1,
      "size": 153,
      "vsize": 153,
      "locktime": 0,
      "vin": [
        {
          "coinbase": "0303b714045a6be28b2cfabe6d6dd54221436c735cbc46a3d81fe9ff366c8b731b73cc4a867597ca314a152208fc4000000000000000042f4c502f085800526e2e000000",
          "sequence": 4294967295
        }
      ],
      "vout": [
        {
          "value": 25.00000000,
          "n": 0,
          "scriptPubKey": {
            "asm": "OP_DUP OP_HASH160 57757ed2ecf2052ff3126c397aca7defb9ca2cec OP_EQUALVERIFY OP_CHECKSIG",
            "hex": "76a91457757ed2ecf2052ff3126c397aca7defb9ca2cec88ac",
            "reqSigs": 1,
            "type": "pubkeyhash",
            "addresses": [
              "LTCPodGk5FwcJaRzH9yKnwicxzFUbxp6tN"
            ]
          }
        }
      ],
      "hex": "01000000010000000000000000000000000000000000000000000000000000000000000000ffffffff440303b714045a6be28b2cfabe6d6dd54221436c735cbc46a3d81fe9ff366c8b731b73cc4a867597ca314a152208fc4000000000000000042f4c502f085800526e2e000000ffffffff0100f90295000000001976a91457757ed2ecf2052ff3126c397aca7defb9ca2cec88ac00000000"
    }
  ],
  "time": 1517019787,
  "mediantime": 1517019418,
  "nonce": 1019450916,
  "bits": "1a047f14",
  "difficulty": 3731199.183374282,
  "chainwork": "00000000000000000000000000000000000000000000003257195eff83091968",
  "previousblockhash": "06d7475184073708642cc396d26a239cb9fa810bcf29af5e6d8d489ee6a3a2b3",
  "nextblockhash": "ad679e06e574769358bca1cf4a260173b63a78c5736d6d2ab378d6e4e04eaf7b"
}
