{
  "hash": "9e38379e96bd869db33d57e38480152cf329b51e5e1883203bb719cff23de747",
  "confirmations": 1825,
  "strippedsize": 253,
  "size": 253,
  "weight": 1012,
  "height": 1359169,
  "version": 536870912,
  "versionHex": "20000000",
  "merkleroot": "0a0331f9e1816e601953ffc1e9b36d69ab761b789a59ee6a1208d3c3129f8870",
  "tx": [
    {
      "txid": "0a0331f9e1816e601953ffc1e9b36d69ab761b789a59ee6a1208d3c3129f8870",
      "hash": "0a0331f9e1816e601953ffc1e9b36d69ab761b789a59ee6a1208d3c3129f8870",
      "version": 1,
      "size": 172,
      "vsize": 172,
      "locktime": 0,
      "vin": [
        {
          "coinbase": "0341bd141a4d696e656420627920416e74506f6f6c20626a3532205a6f5418fabe6d6de3fd5e4b371fa83bbe71629d1f2e9ffae0f6bbdc2810795df14cd5dcb1d35c020400000000000000950a0000000000001c000000",
          "sequence": 4294967295
        }
      ],
      "vout": [
        {
          "value": 25.00000000,
          "n": 0,
          "scriptPubKey": {
            "asm": "OP_DUP OP_HASH160 0ff3ccc5e8be88afe24b5d634e5852d474dbdff1 OP_EQUALVERIFY OP_CHECKSIG",
            "hex": "76a9140ff3ccc5e8be88afe24b5d634e5852d474dbdff188ac",
            "reqSigs": 1,
            "type": "pubkeyhash",
            "addresses": [
              "LLgJTbzZMsRTCUF1NtvvL9SR1a4pVieW89"
            ]
          }
        }
      ],
      "hex": "01000000010000000000000000000000000000000000000000000000000000000000000000ffffffff570341bd141a4d696e656420627920416e74506f6f6c20626a3532205a6f5418fabe6d6de3fd5e4b371fa83bbe71629d1f2e9ffae0f6bbdc2810795df14cd5dcb1d35c020400000000000000950a0000000000001c000000ffffffff0100f90295000000001976a9140ff3ccc5e8be88afe24b5d634e5852d474dbdff188ac00000000"
    }
  ],
  "time": 1517245464,
  "mediantime": 1517245317,
  "nonce": 2579687882,
  "bits": "1a042eae",
  "difficulty": 4011378.762614286,
  "chainwork": "000000000000000000000000000000000000000000000033c0f0e003a2733a84",
  "previousblockhash": "3cd15a3505087bf70a875d03639c01aa39713d4ef67245a1cca5452c025d8d49",
  "nextblockhash": "226ad35181a578125c81658b7a111a2f8e82ea3f04001243f6ad34a8fbb17531"
}
