{
  "hash": "9e5ff18d61184866bfd17a9e479bd9f2296dac4f24b58a2ccc38b1f177f9f32d",
  "confirmations": 3136,
  "strippedsize": 1925,
  "size": 1961,
  "weight": 7736,
  "height": 1357859,
  "version": 536870912,
  "versionHex": "20000000",
  "merkleroot": "ff24ba9a5a4b6f25df3a051cf12c41d1e30da85468006debcef02e621fb8e175",
  "tx": [
    {
      "txid": "9dcd023cc705ff1523667603942d2c430fd0d0f650b551f56306256fc0fc09ad",
      "hash": "77dfbc9953f791cbdd9da7afcf4fa9e3200e3a1e775302bd91c000e4c284af0f",
      "version": 2,
      "size": 234,
      "vsize": 207,
      "locktime": 0,
      "vin": [
        {
          "coinbase": "0323b814048c766c5a2ffabe6d6d076df96553d67e7f81a6a42b994ec406a3f23bc89f65808f783bd953fa0bcf9e01000000000000001a1decc03f00000000000000",
          "sequence": 4294967295
        }
      ],
      "vout": [
        {
          "value": 25.00335200,
          "n": 0,
          "scriptPubKey": {
            "asm": "OP_DUP OP_HASH160 3d29d474d0a98b5b2669d990d2917780837edf0c OP_EQUALVERIFY OP_CHECKSIG",
            "hex": "76a9143d29d474d0a98b5b2669d990d2917780837edf0c88ac",
            "reqSigs": 1,
            "type": "pubkeyhash",
            "addresses": [
              "LQoMbJnzRK2sDXazJuUNXPTx7FrKKPJgt6"
            ]
          }
        }, 
        {
          "value": 0.00000000,
          "n": 1,
          "scriptPubKey": {
            "asm": "OP_RETURN aa21a9ed269021ae5038b95b0b9f71b4e47de91d81b94d9a9c9dd04496f95a273b5a2fcf",
            "hex": "6a24aa21a9ed269021ae5038b95b0b9f71b4e47de91d81b94d9a9c9dd04496f95a273b5a2fcf",
            "type": "nulldata"
          }
        }
      ],
      "hex": "020000000001010000000000000000000000000000000000000000000000000000000000000000ffffffff420323b814048c766c5a2ffabe6d6d076df96553d67e7f81a6a42b994ec406a3f23bc89f65808f783bd953fa0bcf9e01000000000000001a1decc03f00000000000000ffffffff0260160895000000001976a9143d29d474d0a98b5b2669d990d2917780837edf0c88ac0000000000000000266a24aa21a9ed269021ae5038b95b0b9f71b4e47de91d81b94d9a9c9dd04496f95a273b5a2fcf0120000000000000000000000000000000000000000000000000000000000000000000000000"
    }, 
    {
      "txid": "e5da965ac57c028ff7e70d8da0e15c9b633e457cafab418157caeb96e8f3b938",
      "hash": "e5da965ac57c028ff7e70d8da0e15c9b633e457cafab418157caeb96e8f3b938",
      "version": 1,
      "size": 520,
      "vsize": 520,
      "locktime": 0,
      "vin": [
        {
          "txid": "cdaed47c891c18d374e27d8f402132d2777041d920d77f314d6b40045f332185",
          "vout": 197,
          "scriptSig": {
            "asm": "3044022031a988b0756c4f44b1ac2ef56fa9deea23b154f5d30b19e7547c0a1c41d7828702204baba4a0eb2fc5bea709d74b112201593e7d82c900e0a84dd10211de872cf815[ALL] 038bd8d6f002ed5610fad71be5abdd6ed0b07e81458b26df627a6981c179153b98",
            "hex": "473044022031a988b0756c4f44b1ac2ef56fa9deea23b154f5d30b19e7547c0a1c41d7828702204baba4a0eb2fc5bea709d74b112201593e7d82c900e0a84dd10211de872cf8150121038bd8d6f002ed5610fad71be5abdd6ed0b07e81458b26df627a6981c179153b98"
          },
          "sequence": 4294967295
        }, 
        {
          "txid": "3768ed5657e1b77d3caff02d44cc8f395c03fe760747a405e9e19f656f364daf",
          "vout": 0,
          "scriptSig": {
            "asm": "30440220279fcaa1ccb023f43ac0f95c2fbf808bf84db5282ee177114fcadb9fa591aa9102204573658f675654f35830a01dad622766e108bb4d00f4c05023b2290876d8c985[ALL] 03ae9feb5bfd8995e9578f85564dbbba3e8e2b4e134066e1ccda975f2df169e8a4",
            "hex": "4730440220279fcaa1ccb023f43ac0f95c2fbf808bf84db5282ee177114fcadb9fa591aa9102204573658f675654f35830a01dad622766e108bb4d00f4c05023b2290876d8c985012103ae9feb5bfd8995e9578f85564dbbba3e8e2b4e134066e1ccda975f2df169e8a4"
          },
          "sequence": 4294967295
        }, 
        {
          "txid": "73e346046c01b0d13ec8bdba71c1700a08f7424e367f446eff08e82d51545f80",
          "vout": 3,
          "scriptSig": {
            "asm": "3045022100fb9f1abf5884ccceaf5571ed68a158b54a7d4c13bdb0405182b6881ef3baa8ad02204b8aa7ae2e926a9f53dcd57421099120496aa407cf07cc2b4ffe2939066c6c00[ALL] 0208e54f0eecc8b66f55604524830a267eda98758346662b999a9ebeee6ffd01b7",
            "hex": "483045022100fb9f1abf5884ccceaf5571ed68a158b54a7d4c13bdb0405182b6881ef3baa8ad02204b8aa7ae2e926a9f53dcd57421099120496aa407cf07cc2b4ffe2939066c6c0001210208e54f0eecc8b66f55604524830a267eda98758346662b999a9ebeee6ffd01b7"
          },
          "sequence": 4294967295
        }
      ],
      "vout": [
        {
          "value": 0.01000292,
          "n": 0,
          "scriptPubKey": {
            "asm": "OP_DUP OP_HASH160 c621304716a0398850d04ae9f53157c60bce0bb5 OP_EQUALVERIFY OP_CHECKSIG",
            "hex": "76a914c621304716a0398850d04ae9f53157c60bce0bb588ac",
            "reqSigs": 1,
            "type": "pubkeyhash",
            "addresses": [
              "LdHZpBKVuPZ3HJrbxP7qrg5exmHqEcW1JA"
            ]
          }
        }, 
        {
          "value": 4.14978447,
          "n": 1,
          "scriptPubKey": {
            "asm": "OP_DUP OP_HASH160 9e9bde7a4464f85a900ab62aad6fce35cdf97ba0 OP_EQUALVERIFY OP_CHECKSIG",
            "hex": "76a9149e9bde7a4464f85a900ab62aad6fce35cdf97ba088ac",
            "reqSigs": 1,
            "type": "pubkeyhash",
            "addresses": [
              "LZgbkVbiP98Si48wvjKuEzjppDdr1XmXch"
            ]
          }
        }
      ],
      "hex": "01000000038521335f04406b4d317fd720d9417077d23221408f7de274d3181c897cd4aecdc50000006a473044022031a988b0756c4f44b1ac2ef56fa9deea23b154f5d30b19e7547c0a1c41d7828702204baba4a0eb2fc5bea709d74b112201593e7d82c900e0a84dd10211de872cf8150121038bd8d6f002ed5610fad71be5abdd6ed0b07e81458b26df627a6981c179153b98ffffffffaf4d366f659fe1e905a4470776fe035c398fcc442df0af3c7db7e15756ed6837000000006a4730440220279fcaa1ccb023f43ac0f95c2fbf808bf84db5282ee177114fcadb9fa591aa9102204573658f675654f35830a01dad622766e108bb4d00f4c05023b2290876d8c985012103ae9feb5bfd8995e9578f85564dbbba3e8e2b4e134066e1ccda975f2df169e8a4ffffffff805f54512de808ff6e447f364e42f7080a70c171babdc83ed1b0016c0446e373030000006b483045022100fb9f1abf5884ccceaf5571ed68a158b54a7d4c13bdb0405182b6881ef3baa8ad02204b8aa7ae2e926a9f53dcd57421099120496aa407cf07cc2b4ffe2939066c6c0001210208e54f0eecc8b66f55604524830a267eda98758346662b999a9ebeee6ffd01b7ffffffff0264430f00000000001976a914c621304716a0398850d04ae9f53157c60bce0bb588ac8f11bc18000000001976a9149e9bde7a4464f85a900ab62aad6fce35cdf97ba088ac00000000"
    }, 
    {
      "txid": "bf0a624d0ccb788486ca6fe0bb7fc9b017e736131b01dc898e1db9de8e1a6fd2",
      "hash": "bf0a624d0ccb788486ca6fe0bb7fc9b017e736131b01dc898e1db9de8e1a6fd2",
      "version": 2,
      "size": 224,
      "vsize": 224,
      "locktime": 1357857,
      "vin": [
        {
          "txid": "db27fc8f344ebd3831c894818e4ba6c627c04da2ac688ca11773f02aed54536e",
          "vout": 1,
          "scriptSig": {
            "asm": "3045022100b04fca0cc8d7658cf6c2d5c226946175e0cbbe38eb72260fc5438ccb56d87b6202207555bf39876401a5eeaf1410043e41696fa101fcdb5d5abc61092e47c56c81aa[ALL] 0288052e849c8a7fbd851c5a22f59043773ad5cdf2dd30dd452d131720d33cedd5",
            "hex": "483045022100b04fca0cc8d7658cf6c2d5c226946175e0cbbe38eb72260fc5438ccb56d87b6202207555bf39876401a5eeaf1410043e41696fa101fcdb5d5abc61092e47c56c81aa01210288052e849c8a7fbd851c5a22f59043773ad5cdf2dd30dd452d131720d33cedd5"
          },
          "sequence": 4294967294
        }
      ],
      "vout": [
        {
          "value": 1.16747833,
          "n": 0,
          "scriptPubKey": {
            "asm": "OP_DUP OP_HASH160 926d40c84d2e19a3160d1afc8457c928ae7dba51 OP_EQUALVERIFY OP_CHECKSIG",
            "hex": "76a914926d40c84d2e19a3160d1afc8457c928ae7dba5188ac",
            "reqSigs": 1,
            "type": "pubkeyhash",
            "addresses": [
              "LYaBoFnPqhvEsTcSAqjLWqGWK5z5B9j4ah"
            ]
          }
        }, 
        {
          "value": 6.29656547,
          "n": 1,
          "scriptPubKey": {
            "asm": "OP_HASH160 2261229ea0acad4f76c7417b4dd7d631d6fc8949 OP_EQUAL",
            "hex": "a9142261229ea0acad4f76c7417b4dd7d631d6fc894987",
            "reqSigs": 1,
            "type": "scripthash",
            "addresses": [
              "MB2wa2WAbrms18wNgpicrPBbs5LaCFasT4"
            ]
          }
        }
      ],
      "hex": "02000000016e5354ed2af07317a18c68aca24dc027c6a64b8e8194c83138bd4e348ffc27db010000006b483045022100b04fca0cc8d7658cf6c2d5c226946175e0cbbe38eb72260fc5438ccb56d87b6202207555bf39876401a5eeaf1410043e41696fa101fcdb5d5abc61092e47c56c81aa01210288052e849c8a7fbd851c5a22f59043773ad5cdf2dd30dd452d131720d33cedd5feffffff02396ef506000000001976a914926d40c84d2e19a3160d1afc8457c928ae7dba5188ace3cb87250000000017a9142261229ea0acad4f76c7417b4dd7d631d6fc89498721b81400"
    }, 
    {
      "txid": "8fb8b79589d87c4b2af0fc6757d986adcbcd2513fa6087cee9b374594309d113",
      "hash": "8fb8b79589d87c4b2af0fc6757d986adcbcd2513fa6087cee9b374594309d113",
      "version": 1,
      "size": 225,
      "vsize": 225,
      "locktime": 0,
      "vin": [
        {
          "txid": "45b933aabc4bb0cb9f14c1583f9c7edd8d0499abb8c3c944c53f46e26a62f06a",
          "vout": 0,
          "scriptSig": {
            "asm": "30440220469acdc02ec0491e39bab4579459b6bbde09cb98aab9daf99b598fce37845cad022014b47199736f3d3c8ec5965716365f94797a29470769cd7c5595ad366c69d33d[ALL] 0290585bac2ae9d149e1543287fa7cfd2eb901789d27f0f9d4b464c2f162969f2b",
            "hex": "4730440220469acdc02ec0491e39bab4579459b6bbde09cb98aab9daf99b598fce37845cad022014b47199736f3d3c8ec5965716365f94797a29470769cd7c5595ad366c69d33d01210290585bac2ae9d149e1543287fa7cfd2eb901789d27f0f9d4b464c2f162969f2b"
          },
          "sequence": 4294967295
        }
      ],
      "vout": [
        {
          "value": 0.00909667,
          "n": 0,
          "scriptPubKey": {
            "asm": "OP_DUP OP_HASH160 e33518f7e1161c9d3c86e431f656bbe10544f104 OP_EQUALVERIFY OP_CHECKSIG",
            "hex": "76a914e33518f7e1161c9d3c86e431f656bbe10544f10488ac",
            "reqSigs": 1,
            "type": "pubkeyhash",
            "addresses": [
              "LfwKG3FwvYgC6KJvF6QU7HDK7rpRe3rP6L"
            ]
          }
        }, 
        {
          "value": 0.31196000,
          "n": 1,
          "scriptPubKey": {
            "asm": "OP_DUP OP_HASH160 b147d0c66618c1ffcf3183643208657715450791 OP_EQUALVERIFY OP_CHECKSIG",
            "hex": "76a914b147d0c66618c1ffcf318364320865771545079188ac",
            "reqSigs": 1,
            "type": "pubkeyhash",
            "addresses": [
              "LbPKtzoDWjXQUx4Vy3s5aHbXA3Ep6bsx2Z"
            ]
          }
        }
      ],
      "hex": "01000000016af0626ae2463fc544c9c3b8ab99048ddd7e9c3f58c1149fcbb04bbcaa33b945000000006a4730440220469acdc02ec0491e39bab4579459b6bbde09cb98aab9daf99b598fce37845cad022014b47199736f3d3c8ec5965716365f94797a29470769cd7c5595ad366c69d33d01210290585bac2ae9d149e1543287fa7cfd2eb901789d27f0f9d4b464c2f162969f2bffffffff0263e10d00000000001976a914e33518f7e1161c9d3c86e431f656bbe10544f10488ac6003dc01000000001976a914b147d0c66618c1ffcf318364320865771545079188ac00000000"
    }, 
    {
      "txid": "af76941f29fb8a0193bb216109b96eaeeb9c6ed16c1ee7f450d31543b974b583",
      "hash": "af76941f29fb8a0193bb216109b96eaeeb9c6ed16c1ee7f450d31543b974b583",
      "version": 1,
      "size": 225,
      "vsize": 225,
      "locktime": 0,
      "vin": [
        {
          "txid": "041682e84d65ab20135df39357645a56be74cd2873c144a709016c3fc00137e2",
          "vout": 0,
          "scriptSig": {
            "asm": "304402207193d933bade6ff64c4fc7f5869f17608b58ae17491396b7aaecc9052733efe502203da39852ba22749e8729820fb2707d92cf044f7b75d7d3c0bbf4399e7797fd12[ALL] 03519718ea8d07506a09dbeca7bd506c67668bdcd8b9cbc0ed582b3fe4500b020f",
            "hex": "47304402207193d933bade6ff64c4fc7f5869f17608b58ae17491396b7aaecc9052733efe502203da39852ba22749e8729820fb2707d92cf044f7b75d7d3c0bbf4399e7797fd12012103519718ea8d07506a09dbeca7bd506c67668bdcd8b9cbc0ed582b3fe4500b020f"
          },
          "sequence": 4294967295
        }
      ],
      "vout": [
        {
          "value": 4.02866807,
          "n": 0,
          "scriptPubKey": {
            "asm": "OP_DUP OP_HASH160 231442fbfe9e4b4e238c8fca1a7111deff5dc6b8 OP_EQUALVERIFY OP_CHECKSIG",
            "hex": "76a914231442fbfe9e4b4e238c8fca1a7111deff5dc6b888ac",
            "reqSigs": 1,
            "type": "pubkeyhash",
            "addresses": [
              "LNRSBjPo5nomFAJVVxtH9npicRSVEBie5M"
            ]
          }
        }, 
        {
          "value": 27.55123959,
          "n": 1,
          "scriptPubKey": {
            "asm": "OP_DUP OP_HASH160 45011d2d6fc04a66f70788374c5bd950c7b08e10 OP_EQUALVERIFY OP_CHECKSIG",
            "hex": "76a91445011d2d6fc04a66f70788374c5bd950c7b08e1088ac",
            "reqSigs": 1,
            "type": "pubkeyhash",
            "addresses": [
              "LRWpDrENx8ZCtEYqL51rpenrKLmRVi1CSf"
            ]
          }
        }
      ],
      "hex": "0100000001e23701c03f6c0109a744c17328cd74be565a645793f35d1320ab654de8821604000000006a47304402207193d933bade6ff64c4fc7f5869f17608b58ae17491396b7aaecc9052733efe502203da39852ba22749e8729820fb2707d92cf044f7b75d7d3c0bbf4399e7797fd12012103519718ea8d07506a09dbeca7bd506c67668bdcd8b9cbc0ed582b3fe4500b020fffffffff0277420318000000001976a914231442fbfe9e4b4e238c8fca1a7111deff5dc6b888acf7da37a4000000001976a91445011d2d6fc04a66f70788374c5bd950c7b08e1088ac00000000"
    }, 
    {
      "txid": "7902f86d0091623910f252314a1f8fef42ab566b5eccf949d98c29d1f5d14517",
      "hash": "7902f86d0091623910f252314a1f8fef42ab566b5eccf949d98c29d1f5d14517",
      "version": 1,
      "size": 226,
      "vsize": 226,
      "locktime": 0,
      "vin": [
        {
          "txid": "aac9c9cbf6c50b9fbe965d822e200cceddda100aeb65bf2b7330b81c66b3ac21",
          "vout": 1,
          "scriptSig": {
            "asm": "3045022100aa23f570c0b8e797ee490a68f99e9fa0d65e16c287821f71a354478c03f2eb330220339803b5e8cf69247ff350a7311989d6591e4beba847cd93afe535ea3f00492d[ALL] 0308d6caed4d58134450eab77b4559a164eaaba8be108582d3fccd313207511144",
            "hex": "483045022100aa23f570c0b8e797ee490a68f99e9fa0d65e16c287821f71a354478c03f2eb330220339803b5e8cf69247ff350a7311989d6591e4beba847cd93afe535ea3f00492d01210308d6caed4d58134450eab77b4559a164eaaba8be108582d3fccd313207511144"
          },
          "sequence": 4294967295
        }
      ],
      "vout": [
        {
          "value": 0.70000000,
          "n": 0,
          "scriptPubKey": {
            "asm": "OP_DUP OP_HASH160 abdcf6085595bf9c054e550476a0dfe86906f079 OP_EQUALVERIFY OP_CHECKSIG",
            "hex": "76a914abdcf6085595bf9c054e550476a0dfe86906f07988ac",
            "reqSigs": 1,
            "type": "pubkeyhash",
            "addresses": [
              "LatgWfEHXPPP5R2DEfacF9biRrWDCGKuUX"
            ]
          }
        }, 
        {
          "value": 9.29977400,
          "n": 1,
          "scriptPubKey": {
            "asm": "OP_DUP OP_HASH160 839ab39f40af56ea98874ae062c6841bc581337a OP_EQUALVERIFY OP_CHECKSIG",
            "hex": "76a914839ab39f40af56ea98874ae062c6841bc581337a88ac",
            "reqSigs": 1,
            "type": "pubkeyhash",
            "addresses": [
              "LXDp7Cf625GJUD6tQA44raYsKStsxE7m2d"
            ]
          }
        }
      ],
      "hex": "010000000121acb3661cb830732bbf65eb0a10daddce0c202e825d96be9f0bc5f6cbc9c9aa010000006b483045022100aa23f570c0b8e797ee490a68f99e9fa0d65e16c287821f71a354478c03f2eb330220339803b5e8cf69247ff350a7311989d6591e4beba847cd93afe535ea3f00492d01210308d6caed4d58134450eab77b4559a164eaaba8be108582d3fccd313207511144ffffffff02801d2c04000000001976a914abdcf6085595bf9c054e550476a0dfe86906f07988ac38546e37000000001976a914839ab39f40af56ea98874ae062c6841bc581337a88ac00000000"
    }, 
    {
      "txid": "f3e13e2801ffe18ee05914fba0cc392513a30fd294491fe991e4e061768d1d36",
      "hash": "f3e13e2801ffe18ee05914fba0cc392513a30fd294491fe991e4e061768d1d36",
      "version": 1,
      "size": 226,
      "vsize": 226,
      "locktime": 0,
      "vin": [
        {
          "txid": "ce74774f2c346f7c8d6065621c2fb7d3b1276bd5a1b8e1456a0d9fed2d2cf955",
          "vout": 1,
          "scriptSig": {
            "asm": "3045022100f5a1f4522e83b2c30ab4622c9c1a97dddb68e9cfbda8d3022ace5984269a4a6b02203200849f97e09f1ecfae848d493b558e12765a80585aebb8f9ccdfb3fec1f6b9[ALL] 021dd811586f117f42641d42fb0c6f7ebe728462f5f2352edbf8af085d51aedd1a",
            "hex": "483045022100f5a1f4522e83b2c30ab4622c9c1a97dddb68e9cfbda8d3022ace5984269a4a6b02203200849f97e09f1ecfae848d493b558e12765a80585aebb8f9ccdfb3fec1f6b90121021dd811586f117f42641d42fb0c6f7ebe728462f5f2352edbf8af085d51aedd1a"
          },
          "sequence": 4294967295
        }
      ],
      "vout": [
        {
          "value": 0.50061579,
          "n": 0,
          "scriptPubKey": {
            "asm": "OP_DUP OP_HASH160 940267338cd41fe2ff57e846948da20aed892277 OP_EQUALVERIFY OP_CHECKSIG",
            "hex": "76a914940267338cd41fe2ff57e846948da20aed89227788ac",
            "reqSigs": 1,
            "type": "pubkeyhash",
            "addresses": [
              "LYiZ9aP4FMPd6jM4eLp67DaMtUEtSFsdDQ"
            ]
          }
        }, 
        {
          "value": 9.67315821,
          "n": 1,
          "scriptPubKey": {
            "asm": "OP_DUP OP_HASH160 2e7784bca817eaaca46a89d4869ed2338a4b178f OP_EQUALVERIFY OP_CHECKSIG",
            "hex": "76a9142e7784bca817eaaca46a89d4869ed2338a4b178f88ac",
            "reqSigs": 1,
            "type": "pubkeyhash",
            "addresses": [
              "LPTeXL16bZEzeZxnewGAfMTLPbsgfzcVCY"
            ]
          }
        }
      ],
      "hex": "010000000155f92c2ded9f0d6a45e1b8a1d56b27b1d3b72f1c6265608d7c6f342c4f7774ce010000006b483045022100f5a1f4522e83b2c30ab4622c9c1a97dddb68e9cfbda8d3022ace5984269a4a6b02203200849f97e09f1ecfae848d493b558e12765a80585aebb8f9ccdfb3fec1f6b90121021dd811586f117f42641d42fb0c6f7ebe728462f5f2352edbf8af085d51aedd1affffffff020be1fb02000000001976a914940267338cd41fe2ff57e846948da20aed89227788ac6d11a839000000001976a9142e7784bca817eaaca46a89d4869ed2338a4b178f88ac00000000"
    }
  ],
  "time": 1517057676,
  "mediantime": 1517057414,
  "nonce": 71324071,
  "bits": "1a047f14",
  "difficulty": 3731199.183374282,
  "chainwork": "00000000000000000000000000000000000000000000003297267e2171fcb6a8",
  "previousblockhash": "f96712914332d4844536e954991f6b3cf74064356471d660aa6606b3e179a013",
  "nextblockhash": "8daced950c9d66f18cf31da4b5937ea656ae220a0d732157b6cfb1f73855306f"
}
