{
  "hash": "9e8067e423d85257dd2801ce04a0767c89a34c3b320a01ee3f92ea08855b9260",
  "confirmations": 219,
  "strippedsize": 2693,
  "size": 2729,
  "weight": 10808,
  "height": 1360775,
  "version": 536870912,
  "versionHex": "20000000",
  "merkleroot": "f6efc373749bc51ea8469f3bbd9919ee823d842fb3546cd2a4b79d0f6e2838dd",
  "tx": [
    {
      "txid": "a5bb3b98b62cea51a894958ea5ceae365ec16d014f41a2f43ac0c7f464c904ba",
      "hash": "3f1921339984f7db31e23a0f8a4ae00fd59bbe6d6a469dfdb9f0110af523be54",
      "version": 1,
      "size": 277,
      "vsize": 250,
      "locktime": 949871861,
      "vin": [
        {
          "coinbase": "0387c3142cfabe6d6dd8cab21eb6bbb03a6ac4ccc3a914c68b105721a8ca089b34fb24d742e8f8251708000000f09f909f164d696e6564206279206d696e696e676d6f6e7374657200000000000000000000000000000000000000000000000000000000",
          "sequence": 1
        }
      ],
      "vout": [
        {
          "value": 25.00764514,
          "n": 0,
          "scriptPubKey": {
            "asm": "OP_DUP OP_HASH160 aa3750aa18b8a0f3f0590731e1fab934856680cf OP_EQUALVERIFY OP_CHECKSIG",
            "hex": "76a914aa3750aa18b8a0f3f0590731e1fab934856680cf88ac",
            "reqSigs": 1,
            "type": "pubkeyhash",
            "addresses": [
              "LajyQBeZaBA1NkZDeY8YT5RYYVRkXMvb2T"
            ]
          }
        }, 
        {
          "value": 0.00000000,
          "n": 1,
          "scriptPubKey": {
            "asm": "OP_RETURN aa21a9ed4e1521fd91731cf2ebc053bfd4b8633971f1f1b9d0b7fe95201afcca3982ae22 0000000000000000",
            "hex": "6a24aa21a9ed4e1521fd91731cf2ebc053bfd4b8633971f1f1b9d0b7fe95201afcca3982ae22080000000000000000",
            "type": "nulldata"
          }
        }
      ],
      "hex": "010000000001010000000000000000000000000000000000000000000000000000000000000000ffffffff640387c3142cfabe6d6dd8cab21eb6bbb03a6ac4ccc3a914c68b105721a8ca089b34fb24d742e8f8251708000000f09f909f164d696e6564206279206d696e696e676d6f6e7374657200000000000000000000000000000000000000000000000000000000010000000262a30e95000000001976a914aa3750aa18b8a0f3f0590731e1fab934856680cf88ac00000000000000002f6a24aa21a9ed4e1521fd91731cf2ebc053bfd4b8633971f1f1b9d0b7fe95201afcca3982ae2208000000000000000001200000000000000000000000000000000000000000000000000000000000000000f5e49d38"
    }, 
    {
      "txid": "5e72022b6f8393de3cf707c188ab3ec7d63e0a0d9fa3d859d54cc0b76ad53754",
      "hash": "5e72022b6f8393de3cf707c188ab3ec7d63e0a0d9fa3d859d54cc0b76ad53754",
      "version": 2,
      "size": 226,
      "vsize": 226,
      "locktime": 1353194,
      "vin": [
        {
          "txid": "fbd7b48106cbb9311d57c5aafcd9eda95c1214e1105cd8b1c3ceaec43b25ff4a",
          "vout": 0,
          "scriptSig": {
            "asm": "3045022100d79b3a6d8212cbd8542f585543cddb4a5d35e85fa85707fb65218e80cd53aec90220041ac4aa40b16f9cd8b19343b56640d3a64f411b46d4fe78ff78c59dde7ebbfd[ALL] 03b3fa3faa3b904bcfd33d68dd45ac52a63216e6067ff846669e05c7bbd461b7d3",
            "hex": "483045022100d79b3a6d8212cbd8542f585543cddb4a5d35e85fa85707fb65218e80cd53aec90220041ac4aa40b16f9cd8b19343b56640d3a64f411b46d4fe78ff78c59dde7ebbfd012103b3fa3faa3b904bcfd33d68dd45ac52a63216e6067ff846669e05c7bbd461b7d3"
          },
          "sequence": 4294967294
        }
      ],
      "vout": [
        {
          "value": 0.20000000,
          "n": 0,
          "scriptPubKey": {
            "asm": "OP_DUP OP_HASH160 da100ae01b13489b4cb31b032621b6ee5b2a2817 OP_EQUALVERIFY OP_CHECKSIG",
            "hex": "76a914da100ae01b13489b4cb31b032621b6ee5b2a281788ac",
            "reqSigs": 1,
            "type": "pubkeyhash",
            "addresses": [
              "Lf6xngag9qGp1sqwThCa4CzakpLTLsp7JK"
            ]
          }
        }, 
        {
          "value": 4.03644000,
          "n": 1,
          "scriptPubKey": {
            "asm": "OP_DUP OP_HASH160 c7ed0ce6810cf82d713bb4413fa8468ee6c548a8 OP_EQUALVERIFY OP_CHECKSIG",
            "hex": "76a914c7ed0ce6810cf82d713bb4413fa8468ee6c548a888ac",
            "reqSigs": 1,
            "type": "pubkeyhash",
            "addresses": [
              "LdT4hwKDTkw9iSKtBTa2qVZHpzUDrQRN6b"
            ]
          }
        }
      ],
      "hex": "02000000014aff253bc4aecec3b1d85c10e114125ca9edd9fcaac5571d31b9cb0681b4d7fb000000006b483045022100d79b3a6d8212cbd8542f585543cddb4a5d35e85fa85707fb65218e80cd53aec90220041ac4aa40b16f9cd8b19343b56640d3a64f411b46d4fe78ff78c59dde7ebbfd012103b3fa3faa3b904bcfd33d68dd45ac52a63216e6067ff846669e05c7bbd461b7d3feffffff02002d3101000000001976a914da100ae01b13489b4cb31b032621b6ee5b2a281788ac601e0f18000000001976a914c7ed0ce6810cf82d713bb4413fa8468ee6c548a888aceaa51400"
    }, 
    {
      "txid": "145d34ebfdcf9c176c368c739a22a8f5ed75e7db7bab4154a4c7cb0d306c453f",
      "hash": "145d34ebfdcf9c176c368c739a22a8f5ed75e7db7bab4154a4c7cb0d306c453f",
      "version": 1,
      "size": 191,
      "vsize": 191,
      "locktime": 0,
      "vin": [
        {
          "txid": "e57d041651ac64b27fac19aba848032032694b810eaa770c37ebfec4145d29f1",
          "vout": 0,
          "scriptSig": {
            "asm": "304402204df7fa945406a0cf966cfbfb09f4ab8373792a708bbbdd0c9065773246c9bfeb022073eec9ff32938af3bc684330cd46bc892838a5c9de0bf7fcaeed35f7ba8818a8[ALL] 0374cea5d38a039ed08b7bdcf8a887217b7436c0b3aa5c55f5174c328f8b98611d",
            "hex": "47304402204df7fa945406a0cf966cfbfb09f4ab8373792a708bbbdd0c9065773246c9bfeb022073eec9ff32938af3bc684330cd46bc892838a5c9de0bf7fcaeed35f7ba8818a801210374cea5d38a039ed08b7bdcf8a887217b7436c0b3aa5c55f5174c328f8b98611d"
          },
          "sequence": 4294967295
        }
      ],
      "vout": [
        {
          "value": 1.00487400,
          "n": 0,
          "scriptPubKey": {
            "asm": "OP_DUP OP_HASH160 8c964b7cff90a8e43647c65f8022e52d03a6449e OP_EQUALVERIFY OP_CHECKSIG",
            "hex": "76a9148c964b7cff90a8e43647c65f8022e52d03a6449e88ac",
            "reqSigs": 1,
            "type": "pubkeyhash",
            "addresses": [
              "LY3Jujtjf9RfRHAx6JZuXsTCCjZFYxopRD"
            ]
          }
        }
      ],
      "hex": "0100000001f1295d14c4feeb370c77aa0e814b6932200348a8ab19ac7fb264ac5116047de5000000006a47304402204df7fa945406a0cf966cfbfb09f4ab8373792a708bbbdd0c9065773246c9bfeb022073eec9ff32938af3bc684330cd46bc892838a5c9de0bf7fcaeed35f7ba8818a801210374cea5d38a039ed08b7bdcf8a887217b7436c0b3aa5c55f5174c328f8b98611dffffffff01e850fd05000000001976a9148c964b7cff90a8e43647c65f8022e52d03a6449e88ac00000000"
    }, 
    {
      "txid": "ea9e45e0beea98adb3a0bd16c7cc0947f1acc0e859f0e85e570e0527d6ae4a68",
      "hash": "ea9e45e0beea98adb3a0bd16c7cc0947f1acc0e859f0e85e570e0527d6ae4a68",
      "version": 2,
      "size": 226,
      "vsize": 226,
      "locktime": 0,
      "vin": [
        {
          "txid": "14972dd589c583a274f076d1137bdafc853a5a41704c298a75effa1b39cb5165",
          "vout": 1,
          "scriptSig": {
            "asm": "3045022100d37a065f9fc430bb33f2bf1f0e85d15a4d5713cf7ce66ef19c7a2bed0ab27b4402204d5c104d662a6620732efac09541b8ece2904a152a4454ec46657c00db94d5b0[ALL] 02e894db52bae5d3ff6a92a4f4759ca5919220db361062f85556e91dc7e40982d5",
            "hex": "483045022100d37a065f9fc430bb33f2bf1f0e85d15a4d5713cf7ce66ef19c7a2bed0ab27b4402204d5c104d662a6620732efac09541b8ece2904a152a4454ec46657c00db94d5b0012102e894db52bae5d3ff6a92a4f4759ca5919220db361062f85556e91dc7e40982d5"
          },
          "sequence": 4294967295
        }
      ],
      "vout": [
        {
          "value": 0.00545672,
          "n": 0,
          "scriptPubKey": {
            "asm": "OP_DUP OP_HASH160 e2e23eb764f2ce803fee48259327a9b7c3fac0a2 OP_EQUALVERIFY OP_CHECKSIG",
            "hex": "76a914e2e23eb764f2ce803fee48259327a9b7c3fac0a288ac",
            "reqSigs": 1,
            "type": "pubkeyhash",
            "addresses": [
              "Lfuc1Lu7GtK1Zg2Axv7ZYFYr2fo26oCgBs"
            ]
          }
        }, 
        {
          "value": 0.13366414,
          "n": 1,
          "scriptPubKey": {
            "asm": "OP_DUP OP_HASH160 a348dfad2fba9fab3f6477c0d4e7ac6364cce026 OP_EQUALVERIFY OP_CHECKSIG",
            "hex": "76a914a348dfad2fba9fab3f6477c0d4e7ac6364cce02688ac",
            "reqSigs": 1,
            "type": "pubkeyhash",
            "addresses": [
              "La7KhqX4u8LefEpRXN7Yq5SRDZKjRHFJaL"
            ]
          }
        }
      ],
      "hex": "02000000016551cb391bfaef758a294c70415a3a85fcda7b13d176f074a283c589d52d9714010000006b483045022100d37a065f9fc430bb33f2bf1f0e85d15a4d5713cf7ce66ef19c7a2bed0ab27b4402204d5c104d662a6620732efac09541b8ece2904a152a4454ec46657c00db94d5b0012102e894db52bae5d3ff6a92a4f4759ca5919220db361062f85556e91dc7e40982d5ffffffff0288530800000000001976a914e2e23eb764f2ce803fee48259327a9b7c3fac0a288ac8ef4cb00000000001976a914a348dfad2fba9fab3f6477c0d4e7ac6364cce02688ac00000000"
    }, 
    {
      "txid": "fa19f73e8204871d5717ca8723647ec01d2c54f7e96e0f985375314d33c8746a",
      "hash": "fa19f73e8204871d5717ca8723647ec01d2c54f7e96e0f985375314d33c8746a",
      "version": 1,
      "size": 225,
      "vsize": 225,
      "locktime": 0,
      "vin": [
        {
          "txid": "dcfdf2f0d06f7c3ec75746c14201de50a56cf27a7e47a16041ee6c5ee4491bf7",
          "vout": 49,
          "scriptSig": {
            "asm": "3044022011f3e81278c9e542786ab45fca4d13059c635576c0c37789b7aae679cf680d2202202f6bb8262c79ae78eacfff1b273f9eac158cf08348a32d30eba8a4c06d1d9c08[ALL] 0352f722a388d59785668fa64ef9ae273a1a0ce36c1b0b45d1471bc156bf885aa9",
            "hex": "473044022011f3e81278c9e542786ab45fca4d13059c635576c0c37789b7aae679cf680d2202202f6bb8262c79ae78eacfff1b273f9eac158cf08348a32d30eba8a4c06d1d9c0801210352f722a388d59785668fa64ef9ae273a1a0ce36c1b0b45d1471bc156bf885aa9"
          },
          "sequence": 4294967295
        }
      ],
      "vout": [
        {
          "value": 0.80000000,
          "n": 0,
          "scriptPubKey": {
            "asm": "OP_DUP OP_HASH160 f08bdaba967c8ea9a0e0ffb5e8cd5989e3b3d1d5 OP_EQUALVERIFY OP_CHECKSIG",
            "hex": "76a914f08bdaba967c8ea9a0e0ffb5e8cd5989e3b3d1d588ac",
            "reqSigs": 1,
            "type": "pubkeyhash",
            "addresses": [
              "Lh9qyWMxpzQqxfDVC5WkvqjENNWUZGfqzy"
            ]
          }
        }, 
        {
          "value": 0.19977400,
          "n": 1,
          "scriptPubKey": {
            "asm": "OP_DUP OP_HASH160 33ee443112dd15f35717c797026b782578907b3c OP_EQUALVERIFY OP_CHECKSIG",
            "hex": "76a91433ee443112dd15f35717c797026b782578907b3c88ac",
            "reqSigs": 1,
            "type": "pubkeyhash",
            "addresses": [
              "LPxYA2wTS3hCne2PFQiiS6UXGrcnZWd6Ch"
            ]
          }
        }
      ],
      "hex": "0100000001f71b49e45e6cee4160a1477e7af26ca550de0142c14657c73e7c6fd0f0f2fddc310000006a473044022011f3e81278c9e542786ab45fca4d13059c635576c0c37789b7aae679cf680d2202202f6bb8262c79ae78eacfff1b273f9eac158cf08348a32d30eba8a4c06d1d9c0801210352f722a388d59785668fa64ef9ae273a1a0ce36c1b0b45d1471bc156bf885aa9ffffffff0200b4c404000000001976a914f08bdaba967c8ea9a0e0ffb5e8cd5989e3b3d1d588acb8d43001000000001976a91433ee443112dd15f35717c797026b782578907b3c88ac00000000"
    }, 
    {
      "txid": "535fa49e45dde69eb48d7a29fd6142c53ced2353f0d5479baca1c46115b7e1f6",
      "hash": "535fa49e45dde69eb48d7a29fd6142c53ced2353f0d5479baca1c46115b7e1f6",
      "version": 2,
      "size": 225,
      "vsize": 225,
      "locktime": 1360773,
      "vin": [
        {
          "txid": "3da64a75cd6989dea01456ee689c982b457a5df53e1280278417239046dc9614",
          "vout": 1,
          "scriptSig": {
            "asm": "304402206a2a0a2891ab706d36d50e72e6af3071d55a549a058487563f6da3b511f8549e02200a57df3380504923e707c059c96b0029f188a6b88bb990ddec52da0303157481[ALL] 03bd40ea804733ecf19f6ceb8233dadf06fc5eca46dcf463d71868f9d026fa278f",
            "hex": "47304402206a2a0a2891ab706d36d50e72e6af3071d55a549a058487563f6da3b511f8549e02200a57df3380504923e707c059c96b0029f188a6b88bb990ddec52da0303157481012103bd40ea804733ecf19f6ceb8233dadf06fc5eca46dcf463d71868f9d026fa278f"
          },
          "sequence": 4294967294
        }
      ],
      "vout": [
        {
          "value": 158.30388053,
          "n": 0,
          "scriptPubKey": {
            "asm": "OP_DUP OP_HASH160 a3c971183fa6ac9ef4888b42d2f4fa8b24651122 OP_EQUALVERIFY OP_CHECKSIG",
            "hex": "76a914a3c971183fa6ac9ef4888b42d2f4fa8b2465112288ac",
            "reqSigs": 1,
            "type": "pubkeyhash",
            "addresses": [
              "La9yiuERhwi6W7NqeThBXVAKVGf4aaGMww"
            ]
          }
        }, 
        {
          "value": 0.35518021,
          "n": 1,
          "scriptPubKey": {
            "asm": "OP_DUP OP_HASH160 c61b0ac2b23f576045e5184cb1ab24229b54f43c OP_EQUALVERIFY OP_CHECKSIG",
            "hex": "76a914c61b0ac2b23f576045e5184cb1ab24229b54f43c88ac",
            "reqSigs": 1,
            "type": "pubkeyhash",
            "addresses": [
              "LdHST7GRu929H9td1pRJDiT8iZNzRq5eJo"
            ]
          }
        }
      ],
      "hex": "02000000011496dc46902317842780123ef55d7a452b989c68ee5614a0de8969cd754aa63d010000006a47304402206a2a0a2891ab706d36d50e72e6af3071d55a549a058487563f6da3b511f8549e02200a57df3380504923e707c059c96b0029f188a6b88bb990ddec52da0303157481012103bd40ea804733ecf19f6ceb8233dadf06fc5eca46dcf463d71868f9d026fa278ffeffffff02558d90af030000001976a914a3c971183fa6ac9ef4888b42d2f4fa8b2465112288ac45f61d02000000001976a914c61b0ac2b23f576045e5184cb1ab24229b54f43c88ac85c31400"
    }, 
    {
      "txid": "6467200afa6e9a170ee0e535790d07ba7c2d06547e2213de11133a316b9de40b",
      "hash": "6467200afa6e9a170ee0e535790d07ba7c2d06547e2213de11133a316b9de40b",
      "version": 1,
      "size": 226,
      "vsize": 226,
      "locktime": 0,
      "vin": [
        {
          "txid": "19f2e7f0bfe5236500df91438003c91fd8fe15891cbaa2c8e29d25045db7ba2c",
          "vout": 0,
          "scriptSig": {
            "asm": "304502210081ffe2560f46d4419194a62e10ed0b8dd9c06e3f75bcdffd47e307f3c9348490022050a23c5e318baeca3309724f2ff45a4e5f0d7280c8a6f6b598bcd261b5571738[ALL] 033070227928ae834dd05d6fc33abe57577d14d56649ecbf1d9182be69d4c00ea7",
            "hex": "48304502210081ffe2560f46d4419194a62e10ed0b8dd9c06e3f75bcdffd47e307f3c9348490022050a23c5e318baeca3309724f2ff45a4e5f0d7280c8a6f6b598bcd261b55717380121033070227928ae834dd05d6fc33abe57577d14d56649ecbf1d9182be69d4c00ea7"
          },
          "sequence": 4294967295
        }
      ],
      "vout": [
        {
          "value": 6.00000000,
          "n": 0,
          "scriptPubKey": {
            "asm": "OP_DUP OP_HASH160 c20f124f7cf2abe6ce392f3ffb057f4cf38d2144 OP_EQUALVERIFY OP_CHECKSIG",
            "hex": "76a914c20f124f7cf2abe6ce392f3ffb057f4cf38d214488ac",
            "reqSigs": 1,
            "type": "pubkeyhash",
            "addresses": [
              "Lcv3QcgfpGd7zPxbUhVhHGwyGVx6sTuU49"
            ]
          }
        }, 
        {
          "value": 0.82070800,
          "n": 1,
          "scriptPubKey": {
            "asm": "OP_DUP OP_HASH160 bdc3c882b34ebb4eb08ad918ec29801558a8729f OP_EQUALVERIFY OP_CHECKSIG",
            "hex": "76a914bdc3c882b34ebb4eb08ad918ec29801558a8729f88ac",
            "reqSigs": 1,
            "type": "pubkeyhash",
            "addresses": [
              "LcXLWj8kkCWkuGXt7jV7nSGBoL2sHPHy6P"
            ]
          }
        }
      ],
      "hex": "01000000012cbab75d04259de2c8a2ba1c8915fed81fc903804391df006523e5bff0e7f219000000006b48304502210081ffe2560f46d4419194a62e10ed0b8dd9c06e3f75bcdffd47e307f3c9348490022050a23c5e318baeca3309724f2ff45a4e5f0d7280c8a6f6b598bcd261b55717380121033070227928ae834dd05d6fc33abe57577d14d56649ecbf1d9182be69d4c00ea7ffffffff020046c323000000001976a914c20f124f7cf2abe6ce392f3ffb057f4cf38d214488ac104de404000000001976a914bdc3c882b34ebb4eb08ad918ec29801558a8729f88ac00000000"
    }, 
    {
      "txid": "ec4a5dc71ea54250ad066aed1e49beb4f08b11931579219c01082538960a8c0f",
      "hash": "ec4a5dc71ea54250ad066aed1e49beb4f08b11931579219c01082538960a8c0f",
      "version": 1,
      "size": 226,
      "vsize": 226,
      "locktime": 0,
      "vin": [
        {
          "txid": "8660e8440c475e76a7971aa0b4c77c7dabe41b918056400a03cd7810a1a15f03",
          "vout": 1,
          "scriptSig": {
            "asm": "3045022100c7297aadff9051f5a5d62e335be708d02a0737c497720b2008d6202af2bf73c80220597364a331f3b5d98f35432f0bf173e5104b06b088d6bc4c48dbbfc6a1294ceb[ALL] 021eaa73db65a0fd8835c9c8cced90bfaf208248e1b3e3c6f63c4c2e4b3eddb03f",
            "hex": "483045022100c7297aadff9051f5a5d62e335be708d02a0737c497720b2008d6202af2bf73c80220597364a331f3b5d98f35432f0bf173e5104b06b088d6bc4c48dbbfc6a1294ceb0121021eaa73db65a0fd8835c9c8cced90bfaf208248e1b3e3c6f63c4c2e4b3eddb03f"
          },
          "sequence": 4294967295
        }
      ],
      "vout": [
        {
          "value": 20.08829728,
          "n": 0,
          "scriptPubKey": {
            "asm": "OP_DUP OP_HASH160 5f0057e926b3ab7358380948f20d9299fc3b84a3 OP_EQUALVERIFY OP_CHECKSIG",
            "hex": "76a9145f0057e926b3ab7358380948f20d9299fc3b84a388ac",
            "reqSigs": 1,
            "type": "pubkeyhash",
            "addresses": [
              "LTtGsJAr9xQQzV1LZMwraxDEuu574Q1x7n"
            ]
          }
        }, 
        {
          "value": 26.79187657,
          "n": 1,
          "scriptPubKey": {
            "asm": "OP_DUP OP_HASH160 c61816ab9d32c484b93c4b7c85eee9fdb6353525 OP_EQUALVERIFY OP_CHECKSIG",
            "hex": "76a914c61816ab9d32c484b93c4b7c85eee9fdb635352588ac",
            "reqSigs": 1,
            "type": "pubkeyhash",
            "addresses": [
              "LdHNuu1yRyvoyse7zV1Sygd9MZmWuSMmCq"
            ]
          }
        }
      ],
      "hex": "0100000001035fa1a11078cd030a405680911be4ab7d7cc7b4a01a97a7765e470c44e86086010000006b483045022100c7297aadff9051f5a5d62e335be708d02a0737c497720b2008d6202af2bf73c80220597364a331f3b5d98f35432f0bf173e5104b06b088d6bc4c48dbbfc6a1294ceb0121021eaa73db65a0fd8835c9c8cced90bfaf208248e1b3e3c6f63c4c2e4b3eddb03fffffffff02204fbc77000000001976a9145f0057e926b3ab7358380948f20d9299fc3b84a388acc928b19f000000001976a914c61816ab9d32c484b93c4b7c85eee9fdb635352588ac00000000"
    }, 
    {
      "txid": "14b86ba8ab6258e51bb0e576de1063b4e347c3f86eea99fa7c7d0aa4142ef87d",
      "hash": "14b86ba8ab6258e51bb0e576de1063b4e347c3f86eea99fa7c7d0aa4142ef87d",
      "version": 2,
      "size": 226,
      "vsize": 226,
      "locktime": 1360773,
      "vin": [
        {
          "txid": "aba8c9bc323b55e1d0c0ffe36b6e74974b8ab880134f0df281326306356a7fb2",
          "vout": 0,
          "scriptSig": {
            "asm": "30450221008e9b30d4a79ea8af755824d01208cb69f30a6d02d9ce4c3a9ced3e3031b160260220183a75c7bd37da5fbf867e649abf6fb552820d47cc6c10ff1532d7b6c1a44c0f[ALL] 020d6072f2f4196a16b56ecdaf39d818836e004f78be50b4127eaa6c0e64ecdac7",
            "hex": "4830450221008e9b30d4a79ea8af755824d01208cb69f30a6d02d9ce4c3a9ced3e3031b160260220183a75c7bd37da5fbf867e649abf6fb552820d47cc6c10ff1532d7b6c1a44c0f0121020d6072f2f4196a16b56ecdaf39d818836e004f78be50b4127eaa6c0e64ecdac7"
          },
          "sequence": 4294967294
        }
      ],
      "vout": [
        {
          "value": 1.53167735,
          "n": 0,
          "scriptPubKey": {
            "asm": "OP_DUP OP_HASH160 eca48a29eaa3b454074fe499eb0f87a51489b9fc OP_EQUALVERIFY OP_CHECKSIG",
            "hex": "76a914eca48a29eaa3b454074fe499eb0f87a51489b9fc88ac",
            "reqSigs": 1,
            "type": "pubkeyhash",
            "addresses": [
              "LgoCquP2prY5fW88hZFwH1nPA8zAvmSp3m"
            ]
          }
        }, 
        {
          "value": 5.18517641,
          "n": 1,
          "scriptPubKey": {
            "asm": "OP_DUP OP_HASH160 3a52092646058921e63da70baf02053878198029 OP_EQUALVERIFY OP_CHECKSIG",
            "hex": "76a9143a52092646058921e63da70baf0205387819802988ac",
            "reqSigs": 1,
            "type": "pubkeyhash",
            "addresses": [
              "LQYKjHL34AABsyZ8uiL3ksDiua8WGsPNWX"
            ]
          }
        }
      ],
      "hex": "0200000001b27f6a3506633281f20d4f1380b88a4b97746e6be3ffc0d0e1553b32bcc9a8ab000000006b4830450221008e9b30d4a79ea8af755824d01208cb69f30a6d02d9ce4c3a9ced3e3031b160260220183a75c7bd37da5fbf867e649abf6fb552820d47cc6c10ff1532d7b6c1a44c0f0121020d6072f2f4196a16b56ecdaf39d818836e004f78be50b4127eaa6c0e64ecdac7feffffff0277272109000000001976a914eca48a29eaa3b454074fe499eb0f87a51489b9fc88ac89f3e71e000000001976a9143a52092646058921e63da70baf0205387819802988ac85c31400"
    }, 
    {
      "txid": "21312cfd878ac9ae98861802cc6a17af9099e8c97a4bf5d6bde876c948eb68ba",
      "hash": "21312cfd878ac9ae98861802cc6a17af9099e8c97a4bf5d6bde876c948eb68ba",
      "version": 2,
      "size": 374,
      "vsize": 374,
      "locktime": 1360763,
      "vin": [
        {
          "txid": "a27f142326b95e51cba7a8525d0cd4897f8d4a240b11633d63366dd8cc7d8890",
          "vout": 6,
          "scriptSig": {
            "asm": "3045022100aa8b7d1070b559eb64f82b7c9a761a46eae452cd5b98e691a4ada05b450617e4022007d4b4e530ce7b627190e8346bbfc2b04c4d65f4222a906c13efe96c5716e2b5[ALL] 023bf53de9ff8c9e5e3922f19eba00f4ec4e5c1ded0106a564c87fd47143821212",
            "hex": "483045022100aa8b7d1070b559eb64f82b7c9a761a46eae452cd5b98e691a4ada05b450617e4022007d4b4e530ce7b627190e8346bbfc2b04c4d65f4222a906c13efe96c5716e2b50121023bf53de9ff8c9e5e3922f19eba00f4ec4e5c1ded0106a564c87fd47143821212"
          },
          "sequence": 4294967294
        }, 
        {
          "txid": "c530f0d1e652fb8bc5f30ac1b2f9ca31db6966cf3044a577b108cb8a41c1b177",
          "vout": 0,
          "scriptSig": {
            "asm": "3045022100a194b0e88241ea7c86520f70132fd281b299cf7ab41720cad4fd9efc5810e7c102201fc44d984eb7375a1e1c9fecf8ae05a617fb9791f66904053811e7218ad2e722[ALL] 03a5391c22991ca883886d1fa937315e0cd95266b7fe81fbf9750c6da6f841d78f",
            "hex": "483045022100a194b0e88241ea7c86520f70132fd281b299cf7ab41720cad4fd9efc5810e7c102201fc44d984eb7375a1e1c9fecf8ae05a617fb9791f66904053811e7218ad2e722012103a5391c22991ca883886d1fa937315e0cd95266b7fe81fbf9750c6da6f841d78f"
          },
          "sequence": 4294967294
        }
      ],
      "vout": [
        {
          "value": 0.01116935,
          "n": 0,
          "scriptPubKey": {
            "asm": "OP_DUP OP_HASH160 682b33fa7bdb5b2fcd7582ed173ee2187233e9d3 OP_EQUALVERIFY OP_CHECKSIG",
            "hex": "76a914682b33fa7bdb5b2fcd7582ed173ee2187233e9d388ac",
            "reqSigs": 1,
            "type": "pubkeyhash",
            "addresses": [
              "LUikHxpiu4wNDYKjaRA8ryZ7RVsrwnLQf9"
            ]
          }
        }, 
        {
          "value": 1.99389285,
          "n": 1,
          "scriptPubKey": {
            "asm": "OP_DUP OP_HASH160 75691c5614173623b732c9c2eb1470b476ec9f07 OP_EQUALVERIFY OP_CHECKSIG",
            "hex": "76a91475691c5614173623b732c9c2eb1470b476ec9f0788ac",
            "reqSigs": 1,
            "type": "pubkeyhash",
            "addresses": [
              "LVvmEskaZB4ncXFHiJQZa7iAaccatgUdnv"
            ]
          }
        }
      ],
      "hex": "020000000290887dccd86d36633d63110b244a8d7f89d40c5d52a8a7cb515eb92623147fa2060000006b483045022100aa8b7d1070b559eb64f82b7c9a761a46eae452cd5b98e691a4ada05b450617e4022007d4b4e530ce7b627190e8346bbfc2b04c4d65f4222a906c13efe96c5716e2b50121023bf53de9ff8c9e5e3922f19eba00f4ec4e5c1ded0106a564c87fd47143821212feffffff77b1c1418acb08b177a54430cf6669db31caf9b2c10af3c58bfb52e6d1f030c5000000006b483045022100a194b0e88241ea7c86520f70132fd281b299cf7ab41720cad4fd9efc5810e7c102201fc44d984eb7375a1e1c9fecf8ae05a617fb9791f66904053811e7218ad2e722012103a5391c22991ca883886d1fa937315e0cd95266b7fe81fbf9750c6da6f841d78ffeffffff02070b1100000000001976a914682b33fa7bdb5b2fcd7582ed173ee2187233e9d388ac6570e20b000000001976a91475691c5614173623b732c9c2eb1470b476ec9f0788ac7bc31400"
    }, 
    {
      "txid": "b02e3d9d7f8039e51400746ee8f9f8e24e766d58e5635a75840bbff7459c4cdf",
      "hash": "b02e3d9d7f8039e51400746ee8f9f8e24e766d58e5635a75840bbff7459c4cdf",
      "version": 1,
      "size": 226,
      "vsize": 226,
      "locktime": 0,
      "vin": [
        {
          "txid": "b7fa0df418dc19a00348f829584b2d0a7b2f0830cfbfe846c1970380f97e389d",
          "vout": 0,
          "scriptSig": {
            "asm": "3045022100adcdf36d6f2e7c3e907e972fb4500f9482821bbb8fd882d9f796d1438797fcfe022043d5d1cca0175e322525ad55188fe0b7e59d87f9d70e1e1af0c099636dcfb88c[ALL] 032084e259dd878e6489485899553c6a26c29586fa75dd7af76a59f7ea0445756c",
            "hex": "483045022100adcdf36d6f2e7c3e907e972fb4500f9482821bbb8fd882d9f796d1438797fcfe022043d5d1cca0175e322525ad55188fe0b7e59d87f9d70e1e1af0c099636dcfb88c0121032084e259dd878e6489485899553c6a26c29586fa75dd7af76a59f7ea0445756c"
          },
          "sequence": 4294967295
        }
      ],
      "vout": [
        {
          "value": 1.51368612,
          "n": 0,
          "scriptPubKey": {
            "asm": "OP_DUP OP_HASH160 4ef5173360a17edf616346da1484aaa28f608069 OP_EQUALVERIFY OP_CHECKSIG",
            "hex": "76a9144ef5173360a17edf616346da1484aaa28f60806988ac",
            "reqSigs": 1,
            "type": "pubkeyhash",
            "addresses": [
              "LSRSaNUmhRRwWccVsjqWiaLSFNHR5Vzfn5"
            ]
          }
        }, 
        {
          "value": 0.04717180,
          "n": 1,
          "scriptPubKey": {
            "asm": "OP_DUP OP_HASH160 39f96666d399a731bdd3b6947eec4953b9c5e3b8 OP_EQUALVERIFY OP_CHECKSIG",
            "hex": "76a91439f96666d399a731bdd3b6947eec4953b9c5e3b888ac",
            "reqSigs": 1,
            "type": "pubkeyhash",
            "addresses": [
              "LQWVYmEyJNiZRgQtsnELCTc1URmVyBAoQ8"
            ]
          }
        }
      ],
      "hex": "01000000019d387ef9800397c146e8bfcf30082f7b0a2d4b5829f84803a019dc18f40dfab7000000006b483045022100adcdf36d6f2e7c3e907e972fb4500f9482821bbb8fd882d9f796d1438797fcfe022043d5d1cca0175e322525ad55188fe0b7e59d87f9d70e1e1af0c099636dcfb88c0121032084e259dd878e6489485899553c6a26c29586fa75dd7af76a59f7ea0445756cffffffff02a4b30509000000001976a9144ef5173360a17edf616346da1484aaa28f60806988ac7cfa4700000000001976a91439f96666d399a731bdd3b6947eec4953b9c5e3b888ac00000000"
    }
  ],
  "time": 1517479635,
  "mediantime": 1517479316,
  "nonce": 3580955571,
  "bits": "1a042eae",
  "difficulty": 4011378.762614286,
  "chainwork": "00000000000000000000000000000000000000000000003540efadf73296a010",
  "previousblockhash": "842b9ea6ee58d5cf77695e5f1947350b75ed3dfb64ff8557fc6ec803784b88b9",
  "nextblockhash": "07643c056a411ce5a519893c73c1bb6bac10723eb73dfce1cba05bcebc3baa77"
}
