{
  "hash": "9e835270e4884dd33db580879d856e726f144e3377e475f77052cbd5ac326304",
  "confirmations": 916,
  "strippedsize": 254,
  "size": 254,
  "weight": 1016,
  "height": 1360078,
  "version": 536870912,
  "versionHex": "20000000",
  "merkleroot": "1c2d0cd1decb7feccc25f4c044eef27ee9536f970ca112b67d816b644f31ac91",
  "tx": [
    {
      "txid": "1c2d0cd1decb7feccc25f4c044eef27ee9536f970ca112b67d816b644f31ac91",
      "hash": "1c2d0cd1decb7feccc25f4c044eef27ee9536f970ca112b67d816b644f31ac91",
      "version": 1,
      "size": 173,
      "vsize": 173,
      "locktime": 0,
      "vin": [
        {
          "coinbase": "03cec0141b4d696e656420627920416e74506f6f6c20626a302042205a713ccdfabe6d6d38a9c4bfab44279fa189c64a6a5de8d6e2febad07d279d57c12967613b4b12ec04000000000000005e1900000000000001000000",
          "sequence": 4294967295
        }
      ],
      "vout": [
        {
          "value": 25.00000000,
          "n": 0,
          "scriptPubKey": {
            "asm": "OP_DUP OP_HASH160 0ff3ccc5e8be88afe24b5d634e5852d474dbdff1 OP_EQUALVERIFY OP_CHECKSIG",
            "hex": "76a9140ff3ccc5e8be88afe24b5d634e5852d474dbdff188ac",
            "reqSigs": 1,
            "type": "pubkeyhash",
            "addresses": [
              "LLgJTbzZMsRTCUF1NtvvL9SR1a4pVieW89"
            ]
          }
        }
      ],
      "hex": "01000000010000000000000000000000000000000000000000000000000000000000000000ffffffff5803cec0141b4d696e656420627920416e74506f6f6c20626a302042205a713ccdfabe6d6d38a9c4bfab44279fa189c64a6a5de8d6e2febad07d279d57c12967613b4b12ec04000000000000005e1900000000000001000000ffffffff0100f90295000000001976a9140ff3ccc5e8be88afe24b5d634e5852d474dbdff188ac00000000"
    }
  ],
  "time": 1517370573,
  "mediantime": 1517369952,
  "nonce": 3137123369,
  "bits": "1a042eae",
  "difficulty": 4011378.762614286,
  "chainwork": "0000000000000000000000000000000000000000000000349a4881da7baf1d1e",
  "previousblockhash": "e9aa0498d122222c630024dfb8015288e5106e2264ddf10b9954aeb3bc6ff395",
  "nextblockhash": "e49f3c4475f56c826e625631231d9ebc07ae0a006316a77ab7a433dfee5d3ccd"
}
