{
  "hash": "9fbade6855ca40f9f3aa0da97186e765a59671961d45429e93744b1d0402baa9",
  "confirmations": 2092,
  "strippedsize": 4484,
  "size": 4520,
  "weight": 17972,
  "height": 1358902,
  "version": 536870912,
  "versionHex": "20000000",
  "merkleroot": "d0c897b6fd5725bbec042b26f955da418ef76b8f61060627ea3d4e03b4d7683b",
  "tx": [
    {
      "txid": "1a3580103ecb74a6c05e51d8de281118ea35bd13aaf20d751715da830607faa3",
      "hash": "89ab7e250aa94616cecb3b47a7947bfc95ea1bbd6c01c4e40cb7e6a769ff3d55",
      "version": 1,
      "size": 236,
      "vsize": 209,
      "locktime": 0,
      "vin": [
        {
          "coinbase": "0336bc14045a6ec3582cfabe6d6de629c0d7e4a6d747e400e00eb376451d5277645eb76397a9aff3dccea286f8bc4000000000000000042f4c502f08220016b60e000000",
          "sequence": 4294967295
        }
      ],
      "vout": [
        {
          "value": 25.00510433,
          "n": 0,
          "scriptPubKey": {
            "asm": "OP_DUP OP_HASH160 57757ed2ecf2052ff3126c397aca7defb9ca2cec OP_EQUALVERIFY OP_CHECKSIG",
            "hex": "76a91457757ed2ecf2052ff3126c397aca7defb9ca2cec88ac",
            "reqSigs": 1,
            "type": "pubkeyhash",
            "addresses": [
              "LTCPodGk5FwcJaRzH9yKnwicxzFUbxp6tN"
            ]
          }
        }, 
        {
          "value": 0.00000000,
          "n": 1,
          "scriptPubKey": {
            "asm": "OP_RETURN aa21a9ed5ed110200494aa05b1f97fd79f86b7c1cb6885c1c1b9f4de5c18f89b502ed5bb",
            "hex": "6a24aa21a9ed5ed110200494aa05b1f97fd79f86b7c1cb6885c1c1b9f4de5c18f89b502ed5bb",
            "type": "nulldata"
          }
        }
      ],
      "hex": "010000000001010000000000000000000000000000000000000000000000000000000000000000ffffffff440336bc14045a6ec3582cfabe6d6de629c0d7e4a6d747e400e00eb376451d5277645eb76397a9aff3dccea286f8bc4000000000000000042f4c502f08220016b60e000000ffffffff02e1c20a95000000001976a91457757ed2ecf2052ff3126c397aca7defb9ca2cec88ac0000000000000000266a24aa21a9ed5ed110200494aa05b1f97fd79f86b7c1cb6885c1c1b9f4de5c18f89b502ed5bb0120000000000000000000000000000000000000000000000000000000000000000000000000"
    }, 
    {
      "txid": "c302baf6c73d554a0d8b91c3e3f588a3c62e294b05368af02485f3350908b5ff",
      "hash": "c302baf6c73d554a0d8b91c3e3f588a3c62e294b05368af02485f3350908b5ff",
      "version": 2,
      "size": 668,
      "vsize": 668,
      "locktime": 1358900,
      "vin": [
        {
          "txid": "9d268f74d373b3cbccc69097e8e01edd9e2d6911faab048e1eb62938aad8419c",
          "vout": 77,
          "scriptSig": {
            "asm": "304402205631b9f1cd804444d2c9a10bb4fb0bc398c9b2f9529e0c4c7b8abaa0429e587a0220546f170c74ebb67397f02e1d7fb575bd88a0028d9bf88047f38adf2fa373e1ca[ALL] 0349936deb77120978cd66e93c9da28f87b201192e39a32a87c1a24633a1fa2c1b",
            "hex": "47304402205631b9f1cd804444d2c9a10bb4fb0bc398c9b2f9529e0c4c7b8abaa0429e587a0220546f170c74ebb67397f02e1d7fb575bd88a0028d9bf88047f38adf2fa373e1ca01210349936deb77120978cd66e93c9da28f87b201192e39a32a87c1a24633a1fa2c1b"
          },
          "sequence": 4294967294
        }, 
        {
          "txid": "762ff7dff8f97ed12deca1b36d2da2d5868a8d5bc6aa82fb1f0f72211e057a0b",
          "vout": 43,
          "scriptSig": {
            "asm": "3045022100dd473a647e926e96047682749e1f4b9df0e19df75dd1a22605296ee7e75cac7b02207e5d6ec6111b7a72b193d4ecdb13f15194ca89c5fac6d29bc8a732c3c726a9a6[ALL] 0347896b85d8c566cb7a02c29cb4ad4bbe2e2c54fe502e24e95bd4df27face434f",
            "hex": "483045022100dd473a647e926e96047682749e1f4b9df0e19df75dd1a22605296ee7e75cac7b02207e5d6ec6111b7a72b193d4ecdb13f15194ca89c5fac6d29bc8a732c3c726a9a601210347896b85d8c566cb7a02c29cb4ad4bbe2e2c54fe502e24e95bd4df27face434f"
          },
          "sequence": 4294967294
        }, 
        {
          "txid": "585c1de092e5c0442459c51bb5f199d8dc63fe76cc1c95d2e85c4f823947834a",
          "vout": 93,
          "scriptSig": {
            "asm": "3045022100f262e5541b37f6b93fe01aed5085dc7c4dc92ab61373aadd87a5165c2a1ab85b0220183ba2d93e1fa5c1d6b559324c8ddd55730b688907273378d0b6cd8a9cf49c02[ALL] 03bdc90a75ce323c00ed6509f7a1147bf9c5ee486779c47931029a581b0ce30684",
            "hex": "483045022100f262e5541b37f6b93fe01aed5085dc7c4dc92ab61373aadd87a5165c2a1ab85b0220183ba2d93e1fa5c1d6b559324c8ddd55730b688907273378d0b6cd8a9cf49c02012103bdc90a75ce323c00ed6509f7a1147bf9c5ee486779c47931029a581b0ce30684"
          },
          "sequence": 4294967294
        }, 
        {
          "txid": "aca1193d0e6ef43edb47429177f5263fcf51fd57d8c498e971ad985360785c47",
          "vout": 1,
          "scriptSig": {
            "asm": "30440220154588c20ddd233cedf81eafe8ec338825b2a11d7e9ebebb98f13fd3c37637f50220524569aa1c7046b71f40a6fdce7ee65f8a8d2c618257f047efaee64d4ac953d3[ALL] 0327a82646c74fe055db86abb2fe9352d1d3e0120df8fac7b80d7e597dfff98916",
            "hex": "4730440220154588c20ddd233cedf81eafe8ec338825b2a11d7e9ebebb98f13fd3c37637f50220524569aa1c7046b71f40a6fdce7ee65f8a8d2c618257f047efaee64d4ac953d301210327a82646c74fe055db86abb2fe9352d1d3e0120df8fac7b80d7e597dfff98916"
          },
          "sequence": 4294967294
        }
      ],
      "vout": [
        {
          "value": 0.02013546,
          "n": 0,
          "scriptPubKey": {
            "asm": "OP_DUP OP_HASH160 60d4079a8f8190b67c06ec57da159f0b5191dbdb OP_EQUALVERIFY OP_CHECKSIG",
            "hex": "76a91460d4079a8f8190b67c06ec57da159f0b5191dbdb88ac",
            "reqSigs": 1,
            "type": "pubkeyhash",
            "addresses": [
              "LU3w8iB5ikKABywn5sCXCnBYFPZF7uWat7"
            ]
          }
        }, 
        {
          "value": 56.58625000,
          "n": 1,
          "scriptPubKey": {
            "asm": "OP_DUP OP_HASH160 b40ff25413bc15a892ede1da087cde57feac1e25 OP_EQUALVERIFY OP_CHECKSIG",
            "hex": "76a914b40ff25413bc15a892ede1da087cde57feac1e2588ac",
            "reqSigs": 1,
            "type": "pubkeyhash",
            "addresses": [
              "Lbe2zjNZFJZDJNX3j7KW3KxpZe7vqDBpZy"
            ]
          }
        }
      ],
      "hex": "02000000049c41d8aa3829b61e8e04abfa11692d9edd1ee0e89790c6cccbb373d3748f269d4d0000006a47304402205631b9f1cd804444d2c9a10bb4fb0bc398c9b2f9529e0c4c7b8abaa0429e587a0220546f170c74ebb67397f02e1d7fb575bd88a0028d9bf88047f38adf2fa373e1ca01210349936deb77120978cd66e93c9da28f87b201192e39a32a87c1a24633a1fa2c1bfeffffff0b7a051e21720f1ffb82aac65b8d8a86d5a22d6db3a1ec2dd17ef9f8dff72f762b0000006b483045022100dd473a647e926e96047682749e1f4b9df0e19df75dd1a22605296ee7e75cac7b02207e5d6ec6111b7a72b193d4ecdb13f15194ca89c5fac6d29bc8a732c3c726a9a601210347896b85d8c566cb7a02c29cb4ad4bbe2e2c54fe502e24e95bd4df27face434ffeffffff4a834739824f5ce8d2951ccc76fe63dcd899f1b51bc5592444c0e592e01d5c585d0000006b483045022100f262e5541b37f6b93fe01aed5085dc7c4dc92ab61373aadd87a5165c2a1ab85b0220183ba2d93e1fa5c1d6b559324c8ddd55730b688907273378d0b6cd8a9cf49c02012103bdc90a75ce323c00ed6509f7a1147bf9c5ee486779c47931029a581b0ce30684feffffff475c78605398ad71e998c4d857fd51cf3f26f577914247db3ef46e0e3d19a1ac010000006a4730440220154588c20ddd233cedf81eafe8ec338825b2a11d7e9ebebb98f13fd3c37637f50220524569aa1c7046b71f40a6fdce7ee65f8a8d2c618257f047efaee64d4ac953d301210327a82646c74fe055db86abb2fe9352d1d3e0120df8fac7b80d7e597dfff98916feffffff026ab91e00000000001976a91460d4079a8f8190b67c06ec57da159f0b5191dbdb88ace8c34751010000001976a914b40ff25413bc15a892ede1da087cde57feac1e2588ac34bc1400"
    }, 
    {
      "txid": "d6b92735ac02086bbf2fdc1442218145a1757301bbf599a985c61a26812b7b1d",
      "hash": "d6b92735ac02086bbf2fdc1442218145a1757301bbf599a985c61a26812b7b1d",
      "version": 1,
      "size": 372,
      "vsize": 372,
      "locktime": 0,
      "vin": [
        {
          "txid": "406f05c1af548d8a573b226343309898dbcf9664614284d734be15c5f6dbee3d",
          "vout": 0,
          "scriptSig": {
            "asm": "304402202694d2442629c15aec3b69157caa8ef399d3eaf2ee9b2e91a9244030fa45986502201cb23640e2167851580c5d48d0aa99c5893f84d130149a8118a879d5d6f4f75a[ALL] 0379c91364089df041a5b4d6885aef6d0593feb462d621af3fa99ede0477a32b41",
            "hex": "47304402202694d2442629c15aec3b69157caa8ef399d3eaf2ee9b2e91a9244030fa45986502201cb23640e2167851580c5d48d0aa99c5893f84d130149a8118a879d5d6f4f75a01210379c91364089df041a5b4d6885aef6d0593feb462d621af3fa99ede0477a32b41"
          },
          "sequence": 4294967295
        }, 
        {
          "txid": "13caa266cc81114ba43e6b45dd8b93989d0542b38c5966ee3abc63bfc508f406",
          "vout": 0,
          "scriptSig": {
            "asm": "304402202558ef7c9a647669dfbda3db892b49da91f1a57573da1d0108ecc548defdd1780220214945f5a3cc733de92a937a9fe601ed65c2c7480de4e5f180e5fe71d3914939[ALL] 03ce45bdcf5c3bf2d2cb1af3ab83a78924653b71072b276b812c264744da9ffde3",
            "hex": "47304402202558ef7c9a647669dfbda3db892b49da91f1a57573da1d0108ecc548defdd1780220214945f5a3cc733de92a937a9fe601ed65c2c7480de4e5f180e5fe71d3914939012103ce45bdcf5c3bf2d2cb1af3ab83a78924653b71072b276b812c264744da9ffde3"
          },
          "sequence": 4294967295
        }
      ],
      "vout": [
        {
          "value": 0.32941502,
          "n": 0,
          "scriptPubKey": {
            "asm": "OP_DUP OP_HASH160 ba2490f5de431f05cfb8a0a2db5eec82cb4446c9 OP_EQUALVERIFY OP_CHECKSIG",
            "hex": "76a914ba2490f5de431f05cfb8a0a2db5eec82cb4446c988ac",
            "reqSigs": 1,
            "type": "pubkeyhash",
            "addresses": [
              "LcCBkZW3zUREepTQcv6faFDBJa1imVwX4m"
            ]
          }
        }, 
        {
          "value": 0.14505040,
          "n": 1,
          "scriptPubKey": {
            "asm": "OP_DUP OP_HASH160 3211202827d959f654084a083de3823304fed8f5 OP_EQUALVERIFY OP_CHECKSIG",
            "hex": "76a9143211202827d959f654084a083de3823304fed8f588ac",
            "reqSigs": 1,
            "type": "pubkeyhash",
            "addresses": [
              "LPngZiJg45EPDDmZqhd4dnvfVmJ122WXVW"
            ]
          }
        }
      ],
      "hex": "01000000023deedbf6c515be34d78442616496cfdb9898304363223b578a8d54afc1056f40000000006a47304402202694d2442629c15aec3b69157caa8ef399d3eaf2ee9b2e91a9244030fa45986502201cb23640e2167851580c5d48d0aa99c5893f84d130149a8118a879d5d6f4f75a01210379c91364089df041a5b4d6885aef6d0593feb462d621af3fa99ede0477a32b41ffffffff06f408c5bf63bc3aee66598cb342059d98938bdd456b3ea44b1181cc66a2ca13000000006a47304402202558ef7c9a647669dfbda3db892b49da91f1a57573da1d0108ecc548defdd1780220214945f5a3cc733de92a937a9fe601ed65c2c7480de4e5f180e5fe71d3914939012103ce45bdcf5c3bf2d2cb1af3ab83a78924653b71072b276b812c264744da9ffde3ffffffff02bea5f601000000001976a914ba2490f5de431f05cfb8a0a2db5eec82cb4446c988ac5054dd00000000001976a9143211202827d959f654084a083de3823304fed8f588ac00000000"
    }, 
    {
      "txid": "16ff0f7a537dcb3535b73b5dcec8952c0ca9b12ee4b1d98e1b1b1bd9125e701b",
      "hash": "16ff0f7a537dcb3535b73b5dcec8952c0ca9b12ee4b1d98e1b1b1bd9125e701b",
      "version": 1,
      "size": 225,
      "vsize": 225,
      "locktime": 0,
      "vin": [
        {
          "txid": "35de33bfe54c393b72d45a2de862176df71cd18d53b458d87e616c4e62fd5057",
          "vout": 19,
          "scriptSig": {
            "asm": "304402203457ec3e385b95ffbacdea7c09aa712881b2d831b102f5975ddaf1aecc802d8402207dae34b29aac55e1fabd32df2c34a77c8e2f52d5df7297f2fe5c1c33e572c7bc[ALL] 022b46464c4b659d4e73309eaff617b45124412748a47194e966d063c3ddbe7437",
            "hex": "47304402203457ec3e385b95ffbacdea7c09aa712881b2d831b102f5975ddaf1aecc802d8402207dae34b29aac55e1fabd32df2c34a77c8e2f52d5df7297f2fe5c1c33e572c7bc0121022b46464c4b659d4e73309eaff617b45124412748a47194e966d063c3ddbe7437"
          },
          "sequence": 4294967295
        }
      ],
      "vout": [
        {
          "value": 0.17828000,
          "n": 0,
          "scriptPubKey": {
            "asm": "OP_DUP OP_HASH160 e14bea56d4763caac48c86841ae3010d5ade97c9 OP_EQUALVERIFY OP_CHECKSIG",
            "hex": "76a914e14bea56d4763caac48c86841ae3010d5ade97c988ac",
            "reqSigs": 1,
            "type": "pubkeyhash",
            "addresses": [
              "LfmDF4vWWCQ33ccDsCoXt5iP8sXUCXaUAf"
            ]
          }
        }, 
        {
          "value": 0.00091288,
          "n": 1,
          "scriptPubKey": {
            "asm": "OP_DUP OP_HASH160 05e7c2f2751941ef190b5d4d487a2203d0043ab6 OP_EQUALVERIFY OP_CHECKSIG",
            "hex": "76a91405e7c2f2751941ef190b5d4d487a2203d0043ab688ac",
            "reqSigs": 1,
            "type": "pubkeyhash",
            "addresses": [
              "LKmBHF8BovZmbTCQVMWvi3d2y8AokL1eMk"
            ]
          }
        }
      ],
      "hex": "01000000015750fd624e6c617ed858b4538dd11cf76d1762e82d5ad4723b394ce5bf33de35130000006a47304402203457ec3e385b95ffbacdea7c09aa712881b2d831b102f5975ddaf1aecc802d8402207dae34b29aac55e1fabd32df2c34a77c8e2f52d5df7297f2fe5c1c33e572c7bc0121022b46464c4b659d4e73309eaff617b45124412748a47194e966d063c3ddbe7437ffffffff02a0081001000000001976a914e14bea56d4763caac48c86841ae3010d5ade97c988ac98640100000000001976a91405e7c2f2751941ef190b5d4d487a2203d0043ab688ac00000000"
    }, 
    {
      "txid": "524d63b315fa606313e8bef58932fdbaa298074ac6e9bae61b83561036ffbd4e",
      "hash": "524d63b315fa606313e8bef58932fdbaa298074ac6e9bae61b83561036ffbd4e",
      "version": 1,
      "size": 225,
      "vsize": 225,
      "locktime": 0,
      "vin": [
        {
          "txid": "8c086f92211eb493bfbba065843774d881c33e36c985298da121c0c9b61cd6c5",
          "vout": 0,
          "scriptSig": {
            "asm": "3044022075859aa969959252f654299f9ca217cc03f7782d260eee98825700ecdbc6b61302204d69bc421dc29a79e3d43443573fdb5f7d716d411d8d2820d861db298c65cbd4[ALL] 02f8343801cf772d5bc4bdcf6a593084492d443620c7aabc7b4a6c6e5cddbb941c",
            "hex": "473044022075859aa969959252f654299f9ca217cc03f7782d260eee98825700ecdbc6b61302204d69bc421dc29a79e3d43443573fdb5f7d716d411d8d2820d861db298c65cbd4012102f8343801cf772d5bc4bdcf6a593084492d443620c7aabc7b4a6c6e5cddbb941c"
          },
          "sequence": 4294967295
        }
      ],
      "vout": [
        {
          "value": 41.36653257,
          "n": 0,
          "scriptPubKey": {
            "asm": "OP_DUP OP_HASH160 bbebec328c09b82a0296fe418916471b80010b1e OP_EQUALVERIFY OP_CHECKSIG",
            "hex": "76a914bbebec328c09b82a0296fe418916471b80010b1e88ac",
            "reqSigs": 1,
            "type": "pubkeyhash",
            "addresses": [
              "LcMbFH5v7tKYZDGxyjd79qWLbtatSddKPG"
            ]
          }
        }, 
        {
          "value": 4.94980298,
          "n": 1,
          "scriptPubKey": {
            "asm": "OP_DUP OP_HASH160 acdacffddfbe97b00a696c81fbbb359a8772f275 OP_EQUALVERIFY OP_CHECKSIG",
            "hex": "76a914acdacffddfbe97b00a696c81fbbb359a8772f27588ac",
            "reqSigs": 1,
            "type": "pubkeyhash",
            "addresses": [
              "LayvcZhebx6Ns1ryxfucKSyxwjoYZhXV9W"
            ]
          }
        }
      ],
      "hex": "0100000001c5d61cb6c9c021a18d2985c9363ec381d874378465a0bbbf93b41e21926f088c000000006a473044022075859aa969959252f654299f9ca217cc03f7782d260eee98825700ecdbc6b61302204d69bc421dc29a79e3d43443573fdb5f7d716d411d8d2820d861db298c65cbd4012102f8343801cf772d5bc4bdcf6a593084492d443620c7aabc7b4a6c6e5cddbb941cffffffff02c95190f6000000001976a914bbebec328c09b82a0296fe418916471b80010b1e88accacc801d000000001976a914acdacffddfbe97b00a696c81fbbb359a8772f27588ac00000000"
    }, 
    {
      "txid": "f2b1cefacdc8d4fd39777c784d1d0960b6db1a6eb5915694d0d30865d9344827",
      "hash": "f2b1cefacdc8d4fd39777c784d1d0960b6db1a6eb5915694d0d30865d9344827",
      "version": 2,
      "size": 373,
      "vsize": 373,
      "locktime": 1358900,
      "vin": [
        {
          "txid": "89f55ad4919acaa61164f2f009bde9573cd41c3a6d5b48b152d3404787b42d24",
          "vout": 1,
          "scriptSig": {
            "asm": "3044022008e3508ca78f523156f04f00e88180ae474ba005514bbe00b8465dc754a2111d022028e0f33863a623a5f80947b992e954834d2e99195d08756fa72cf3198f3aa988[ALL] 02b90954037a21f1c95f7a448b5d6cd405f3193a9bcbc7d1668401d8f590af7a53",
            "hex": "473044022008e3508ca78f523156f04f00e88180ae474ba005514bbe00b8465dc754a2111d022028e0f33863a623a5f80947b992e954834d2e99195d08756fa72cf3198f3aa988012102b90954037a21f1c95f7a448b5d6cd405f3193a9bcbc7d1668401d8f590af7a53"
          },
          "sequence": 4294967294
        }, 
        {
          "txid": "e94140a3f608aee934b9f30d743c75a38419bc07c42fd488b31bfe0d1a04defe",
          "vout": 0,
          "scriptSig": {
            "asm": "3045022100cd3e83b1f6b51eaf41986ef406a51a1aa2ac8b479af96b8098988aabfd0b2a9c022005aac625946999630cc89a177bc42ef65a5ffbf3ac48b95f573eac3787552daa[ALL] 0307d4ea055b5e0357dafe2db17369ecad8a3978cd62da5e2d874f10ab54cbf4bd",
            "hex": "483045022100cd3e83b1f6b51eaf41986ef406a51a1aa2ac8b479af96b8098988aabfd0b2a9c022005aac625946999630cc89a177bc42ef65a5ffbf3ac48b95f573eac3787552daa01210307d4ea055b5e0357dafe2db17369ecad8a3978cd62da5e2d874f10ab54cbf4bd"
          },
          "sequence": 4294967294
        }
      ],
      "vout": [
        {
          "value": 4.96606994,
          "n": 0,
          "scriptPubKey": {
            "asm": "OP_DUP OP_HASH160 f26de79a6684e942e45f135b5341a7c13ff0371b OP_EQUALVERIFY OP_CHECKSIG",
            "hex": "76a914f26de79a6684e942e45f135b5341a7c13ff0371b88ac",
            "reqSigs": 1,
            "type": "pubkeyhash",
            "addresses": [
              "LhKoSwxcqM9frdons7CqywV9Ys2SkxuHwi"
            ]
          }
        }, 
        {
          "value": 0.98865606,
          "n": 1,
          "scriptPubKey": {
            "asm": "OP_DUP OP_HASH160 eb8577f4ad81d89e637555df029dbde7fe3886f7 OP_EQUALVERIFY OP_CHECKSIG",
            "hex": "76a914eb8577f4ad81d89e637555df029dbde7fe3886f788ac",
            "reqSigs": 1,
            "type": "pubkeyhash",
            "addresses": [
              "LghGwrQ1dM6ZpnndjZ95n1LuLhV1FCqZv6"
            ]
          }
        }
      ],
      "hex": "0200000002242db4874740d352b1485b6d3a1cd43c57e9bd09f0f26411a6ca9a91d45af589010000006a473044022008e3508ca78f523156f04f00e88180ae474ba005514bbe00b8465dc754a2111d022028e0f33863a623a5f80947b992e954834d2e99195d08756fa72cf3198f3aa988012102b90954037a21f1c95f7a448b5d6cd405f3193a9bcbc7d1668401d8f590af7a53fefffffffede041a0dfe1bb388d42fc407bc1984a3753c740df3b934e9ae08f6a34041e9000000006b483045022100cd3e83b1f6b51eaf41986ef406a51a1aa2ac8b479af96b8098988aabfd0b2a9c022005aac625946999630cc89a177bc42ef65a5ffbf3ac48b95f573eac3787552daa01210307d4ea055b5e0357dafe2db17369ecad8a3978cd62da5e2d874f10ab54cbf4bdfeffffff02129f991d000000001976a914f26de79a6684e942e45f135b5341a7c13ff0371b88acc691e405000000001976a914eb8577f4ad81d89e637555df029dbde7fe3886f788ac34bc1400"
    }, 
    {
      "txid": "de760f3dca33bd4762732f27cfd4740405a4151b8b03ab5499b1e434c37a4554",
      "hash": "de760f3dca33bd4762732f27cfd4740405a4151b8b03ab5499b1e434c37a4554",
      "version": 2,
      "size": 226,
      "vsize": 226,
      "locktime": 1358852,
      "vin": [
        {
          "txid": "3638d40eecfeb1260664a89da641d35bfa6d5fc6d19033d9e4dd75e161522ace",
          "vout": 466,
          "scriptSig": {
            "asm": "3045022100c05017a7d927d77a28edf7ac662d002eef4d5c8abd2cedb4553e08dd04e5028e02204d3995dec1ee47c44f7eb66688e884b215df0248e9622b04a0eca770955c6d85[ALL] 02d4a591ef7fafedf7e594a77d8af4b9f7f0eaaf37feb4f5ab4e433ecd50cae627",
            "hex": "483045022100c05017a7d927d77a28edf7ac662d002eef4d5c8abd2cedb4553e08dd04e5028e02204d3995dec1ee47c44f7eb66688e884b215df0248e9622b04a0eca770955c6d85012102d4a591ef7fafedf7e594a77d8af4b9f7f0eaaf37feb4f5ab4e433ecd50cae627"
          },
          "sequence": 4294967294
        }
      ],
      "vout": [
        {
          "value": 0.13903400,
          "n": 0,
          "scriptPubKey": {
            "asm": "OP_DUP OP_HASH160 17a07173fcbd3180e57c71874f73837fd68cc288 OP_EQUALVERIFY OP_CHECKSIG",
            "hex": "76a91417a07173fcbd3180e57c71874f73837fd68cc28888ac",
            "reqSigs": 1,
            "type": "pubkeyhash",
            "addresses": [
              "LMNt1QsdpNGHDaPtsDeYnQBi52BmkcQsXA"
            ]
          }
        }, 
        {
          "value": 0.01001954,
          "n": 1,
          "scriptPubKey": {
            "asm": "OP_DUP OP_HASH160 4717e41a556f08c9e80a919e29ada7544185c2bd OP_EQUALVERIFY OP_CHECKSIG",
            "hex": "76a9144717e41a556f08c9e80a919e29ada7544185c2bd88ac",
            "reqSigs": 1,
            "type": "pubkeyhash",
            "addresses": [
              "LRhrroyAvSqsTwrpP2pejJPZjpSnVnUQvr"
            ]
          }
        }
      ],
      "hex": "0200000001ce2a5261e175dde4d93390d1c65f6dfa5bd341a69da8640626b1feec0ed43836d20100006b483045022100c05017a7d927d77a28edf7ac662d002eef4d5c8abd2cedb4553e08dd04e5028e02204d3995dec1ee47c44f7eb66688e884b215df0248e9622b04a0eca770955c6d85012102d4a591ef7fafedf7e594a77d8af4b9f7f0eaaf37feb4f5ab4e433ecd50cae627feffffff022826d400000000001976a91417a07173fcbd3180e57c71874f73837fd68cc28888ace2490f00000000001976a9144717e41a556f08c9e80a919e29ada7544185c2bd88ac04bc1400"
    }, 
    {
      "txid": "c873bd860ba01b8ad35548f74f13f815dfef041b8ff84419e2a1de7dbf797478",
      "hash": "c873bd860ba01b8ad35548f74f13f815dfef041b8ff84419e2a1de7dbf797478",
      "version": 1,
      "size": 226,
      "vsize": 226,
      "locktime": 0,
      "vin": [
        {
          "txid": "0129ea631ca2fbd9220bf57d73d3730a0895953c4e6f8e5d628d0242a82ddf2d",
          "vout": 0,
          "scriptSig": {
            "asm": "3045022100dfe7e59a9e8f0c39ec89e7d967625d32ae8dbf8cdd5f4aa1d1428f34b506405102206bf20d86b79b43d7482538777c07afac713561c389c9cdebf56a0c1b83038a45[ALL] 0362d94640d17a8771e89f4e01009d018193cc82d3814a8aad771375c286133e2f",
            "hex": "483045022100dfe7e59a9e8f0c39ec89e7d967625d32ae8dbf8cdd5f4aa1d1428f34b506405102206bf20d86b79b43d7482538777c07afac713561c389c9cdebf56a0c1b83038a4501210362d94640d17a8771e89f4e01009d018193cc82d3814a8aad771375c286133e2f"
          },
          "sequence": 4294967295
        }
      ],
      "vout": [
        {
          "value": 0.01681365,
          "n": 0,
          "scriptPubKey": {
            "asm": "OP_DUP OP_HASH160 7e40461df67887681b5bef4d21ac18f8e9f4f63b OP_EQUALVERIFY OP_CHECKSIG",
            "hex": "76a9147e40461df67887681b5bef4d21ac18f8e9f4f63b88ac",
            "reqSigs": 1,
            "type": "pubkeyhash",
            "addresses": [
              "LWjWQDFtrjR5D3sqgWmK14CtaCzoZoBALc"
            ]
          }
        }, 
        {
          "value": 0.47473435,
          "n": 1,
          "scriptPubKey": {
            "asm": "OP_DUP OP_HASH160 f826b1f01ff2d203e6fa564d4569d8e8df48f028 OP_EQUALVERIFY OP_CHECKSIG",
            "hex": "76a914f826b1f01ff2d203e6fa564d4569d8e8df48f02888ac",
            "reqSigs": 1,
            "type": "pubkeyhash",
            "addresses": [
              "Lhr4CNGmaySJFXVD3KBWy27fB8kHdgpEAW"
            ]
          }
        }
      ],
      "hex": "01000000012ddf2da842028d625d8e6f4e3c9595080a73d3737df50b22d9fba21c63ea2901000000006b483045022100dfe7e59a9e8f0c39ec89e7d967625d32ae8dbf8cdd5f4aa1d1428f34b506405102206bf20d86b79b43d7482538777c07afac713561c389c9cdebf56a0c1b83038a4501210362d94640d17a8771e89f4e01009d018193cc82d3814a8aad771375c286133e2fffffffff02d5a71900000000001976a9147e40461df67887681b5bef4d21ac18f8e9f4f63b88ac1b63d402000000001976a914f826b1f01ff2d203e6fa564d4569d8e8df48f02888ac00000000"
    }, 
    {
      "txid": "2495273c9df8ca4a734c93d5db4f1dbd5ea4456797f9a5c6bada5d864d6928f1",
      "hash": "2495273c9df8ca4a734c93d5db4f1dbd5ea4456797f9a5c6bada5d864d6928f1",
      "version": 2,
      "size": 226,
      "vsize": 226,
      "locktime": 1358900,
      "vin": [
        {
          "txid": "6d04a9a2a8d8b1da364037db5aed653fdacb04dac83b09d204f61b9d3a128271",
          "vout": 0,
          "scriptSig": {
            "asm": "30450221008410d5e8a5bce5ce58823fbcafa8db28c68d5a861c0a5db861ea11cf7ef10826022023d4c411964d9243af71efa8374fb3a9b092d181e4514717dbd6b36f671a10de[ALL] 026db0ca331d3acd92286373b41f443be0c1d6c0e446534a0b7c2432e2f3d1e315",
            "hex": "4830450221008410d5e8a5bce5ce58823fbcafa8db28c68d5a861c0a5db861ea11cf7ef10826022023d4c411964d9243af71efa8374fb3a9b092d181e4514717dbd6b36f671a10de0121026db0ca331d3acd92286373b41f443be0c1d6c0e446534a0b7c2432e2f3d1e315"
          },
          "sequence": 4294967294
        }
      ],
      "vout": [
        {
          "value": 3.91686810,
          "n": 0,
          "scriptPubKey": {
            "asm": "OP_DUP OP_HASH160 1acd13957d1bbeac4b6aa70cb862c06d8f6832b5 OP_EQUALVERIFY OP_CHECKSIG",
            "hex": "76a9141acd13957d1bbeac4b6aa70cb862c06d8f6832b588ac",
            "reqSigs": 1,
            "type": "pubkeyhash",
            "addresses": [
              "LMffWAZMxaGsLrijCJ4ZpPpenE42AiKfui"
            ]
          }
        }, 
        {
          "value": 1.46138600,
          "n": 1,
          "scriptPubKey": {
            "asm": "OP_DUP OP_HASH160 53defed4c689e8d43f6fa192b53709a308be09a2 OP_EQUALVERIFY OP_CHECKSIG",
            "hex": "76a91453defed4c689e8d43f6fa192b53709a308be09a288ac",
            "reqSigs": 1,
            "type": "pubkeyhash",
            "addresses": [
              "LSsRV8TLGUYzbfkotExhav8Mv8sGsr4y1R"
            ]
          }
        }
      ],
      "hex": "02000000017182123a9d1bf604d2093bc8da04cbda3f65ed5adb374036dab1d8a8a2a9046d000000006b4830450221008410d5e8a5bce5ce58823fbcafa8db28c68d5a861c0a5db861ea11cf7ef10826022023d4c411964d9243af71efa8374fb3a9b092d181e4514717dbd6b36f671a10de0121026db0ca331d3acd92286373b41f443be0c1d6c0e446534a0b7c2432e2f3d1e315feffffff029aaa5817000000001976a9141acd13957d1bbeac4b6aa70cb862c06d8f6832b588ace8e5b508000000001976a91453defed4c689e8d43f6fa192b53709a308be09a288ac34bc1400"
    }, 
    {
      "txid": "c9017bf4140feb52899a35b4a8625dc76b6a1a8be7035eb907d4cc6c491bdcaa",
      "hash": "c9017bf4140feb52899a35b4a8625dc76b6a1a8be7035eb907d4cc6c491bdcaa",
      "version": 1,
      "size": 1662,
      "vsize": 1662,
      "locktime": 0,
      "vin": [
        {
          "txid": "04cdc699deee67ec92b1c236c50ffadf4c45d02e4765c232c714b5b3cb964b56",
          "vout": 0,
          "scriptSig": {
            "asm": "304402207a2a2c0d7744a7f55876979f1b7308b56af3a69d3cc101b3051f53a112f7e46a02204cc7f2e08bcd312a02080153d168824a0b51c21bc6eb4cb4520ad246cee2155d[ALL] 02d782a0bbeb4b01065692660fa1619acf793c1caba5505e45f90ad3a9675fdaf9",
            "hex": "47304402207a2a2c0d7744a7f55876979f1b7308b56af3a69d3cc101b3051f53a112f7e46a02204cc7f2e08bcd312a02080153d168824a0b51c21bc6eb4cb4520ad246cee2155d012102d782a0bbeb4b01065692660fa1619acf793c1caba5505e45f90ad3a9675fdaf9"
          },
          "sequence": 4294967295
        }, 
        {
          "txid": "e986a39f0729b40a7870796ff435f66d155ffe62b57b1544362c29e6a0afd7d6",
          "vout": 0,
          "scriptSig": {
            "asm": "3044022064ee6b0cc4e6d828a5b2750f0737e3cff03968df12999c3e99c0610609f5ad230220237d6377405215431ea6d512c06c57351cf52b0377775b7fafa09ef9ccd2ba8a[ALL] 036629eafb51f178e1557215a09d2fe85d7d5a57978800c41d08e4a771a71120de",
            "hex": "473044022064ee6b0cc4e6d828a5b2750f0737e3cff03968df12999c3e99c0610609f5ad230220237d6377405215431ea6d512c06c57351cf52b0377775b7fafa09ef9ccd2ba8a0121036629eafb51f178e1557215a09d2fe85d7d5a57978800c41d08e4a771a71120de"
          },
          "sequence": 4294967295
        }, 
        {
          "txid": "65494d5cc085d4230d5737f66e36356599b79ecb77596b51009a0195375bbf04",
          "vout": 1,
          "scriptSig": {
            "asm": "30440220651adc55dbb2d142b988f600b1d18cc38b4202aa5ebd59e3144a5b250a3e60760220566115458c4b775812b2b4c2f7ad1d40d43e523bdefdeecdcf3af4e653e72201[ALL] 024c733b523ec8efbeb08b0d3f0d3fb35706c80c69f6b993318b8f01f7d0d8463b",
            "hex": "4730440220651adc55dbb2d142b988f600b1d18cc38b4202aa5ebd59e3144a5b250a3e60760220566115458c4b775812b2b4c2f7ad1d40d43e523bdefdeecdcf3af4e653e722010121024c733b523ec8efbeb08b0d3f0d3fb35706c80c69f6b993318b8f01f7d0d8463b"
          },
          "sequence": 4294967295
        }, 
        {
          "txid": "b549d1dc51356cc2b66542e1437975b2ba2c67cfdf3e48c5739e8124359dcfb3",
          "vout": 1,
          "scriptSig": {
            "asm": "304402205cc98bc6cf1f8f8af8c7e418a159e6fa631d08279635f9cf4e45e85c72f63cb2022058f5f561510a7f34fb572e694298d5662b8bb5b23a297e1c8c28fff7a8cc8a40[ALL] 031aec1c1706b32fe06ffbdec0c709a7163d154ae185f708eba27ae7f29e27c49e",
            "hex": "47304402205cc98bc6cf1f8f8af8c7e418a159e6fa631d08279635f9cf4e45e85c72f63cb2022058f5f561510a7f34fb572e694298d5662b8bb5b23a297e1c8c28fff7a8cc8a400121031aec1c1706b32fe06ffbdec0c709a7163d154ae185f708eba27ae7f29e27c49e"
          },
          "sequence": 4294967295
        }, 
        {
          "txid": "67106f55ccad79fa44071cd908ea89535c558b0c7e4ac635fcf1a4eed62ddeed",
          "vout": 1,
          "scriptSig": {
            "asm": "304402206d4f455237753ab795dad49f6d0d259f78f648f6d68246821cfd848abc19f0ce022046ce2d837ea2b1ddbfc5532047e537773d0e080b9522e3130b425a1620af9ce2[ALL] 0223e3017f479d5fd7dfe41dfd04984ea301047ded0e4615e17d03782b7179a62a",
            "hex": "47304402206d4f455237753ab795dad49f6d0d259f78f648f6d68246821cfd848abc19f0ce022046ce2d837ea2b1ddbfc5532047e537773d0e080b9522e3130b425a1620af9ce201210223e3017f479d5fd7dfe41dfd04984ea301047ded0e4615e17d03782b7179a62a"
          },
          "sequence": 4294967295
        }, 
        {
          "txid": "c4be32a3858bbf852f0452f4a88fc04e6636f2972a37c9556814feaa5da0b93c",
          "vout": 25,
          "scriptSig": {
            "asm": "30440220296c3d451ae55c4a66016d8ae15bf5652027ff5576264e46a07e45c0fdc26bbf02203c0793d674a43d3fbdd00886d0e6e00b30a545dabec621edf6347488dbc52b34[ALL] 03378f6be88d925f8984d9d217b2f0a36a23038c80c0209aa96e21e663e9a8af50",
            "hex": "4730440220296c3d451ae55c4a66016d8ae15bf5652027ff5576264e46a07e45c0fdc26bbf02203c0793d674a43d3fbdd00886d0e6e00b30a545dabec621edf6347488dbc52b34012103378f6be88d925f8984d9d217b2f0a36a23038c80c0209aa96e21e663e9a8af50"
          },
          "sequence": 4294967295
        }, 
        {
          "txid": "9ee66aabcb11d01476881e9e37ec6655af06aec2519c56aa6f4cf830b878ea95",
          "vout": 3,
          "scriptSig": {
            "asm": "3045022100a83129f00871b59ca24c98773604c9d16d24f92fde0888f3dc0ac45980659ef202201c18c16f76bc1610abc7805650a560a53a6ab645263c8519ad6c5fa7e31e5469[ALL] 0219001abb2762a5cac0617a22326dcd5628905f962c68e4c397fcb21ab567a8e3",
            "hex": "483045022100a83129f00871b59ca24c98773604c9d16d24f92fde0888f3dc0ac45980659ef202201c18c16f76bc1610abc7805650a560a53a6ab645263c8519ad6c5fa7e31e546901210219001abb2762a5cac0617a22326dcd5628905f962c68e4c397fcb21ab567a8e3"
          },
          "sequence": 4294967295
        }, 
        {
          "txid": "8c8c04b66878154da5533e6804007344b0fa48746ca9856aa32976e8f3ef77f1",
          "vout": 1,
          "scriptSig": {
            "asm": "3044022024224dd6eee09b9790cd52d5456ef8546c6c4b18688a06579f244c1dbb344e73022005d731af0c85e368b6726faa0180f5df08a285d8678a250568d2d74a900b87b5[ALL] 03798df04787ba9f1db6d46ceb39d132ba0ffe04839dec281c1c8e1d9766b5e21a",
            "hex": "473044022024224dd6eee09b9790cd52d5456ef8546c6c4b18688a06579f244c1dbb344e73022005d731af0c85e368b6726faa0180f5df08a285d8678a250568d2d74a900b87b5012103798df04787ba9f1db6d46ceb39d132ba0ffe04839dec281c1c8e1d9766b5e21a"
          },
          "sequence": 4294967295
        }, 
        {
          "txid": "419e2736514b5eb659c99ee989681b7a60069980bbad9fd31e3c64227a898bbe",
          "vout": 0,
          "scriptSig": {
            "asm": "3044022013a05ff7ef6a40e3fbda19fc3f38905fea4cf4560ace95c4a168833be159586402205709d54931c9270b9d2ce6e25a502edc0b1ed9bb8d4bf690ff91d2610e534136[ALL] 0383cb93876198dd37531e597bc5917f49f34a373c3c4f36ecd94657eb39015f8e",
            "hex": "473044022013a05ff7ef6a40e3fbda19fc3f38905fea4cf4560ace95c4a168833be159586402205709d54931c9270b9d2ce6e25a502edc0b1ed9bb8d4bf690ff91d2610e53413601210383cb93876198dd37531e597bc5917f49f34a373c3c4f36ecd94657eb39015f8e"
          },
          "sequence": 4294967295
        }, 
        {
          "txid": "419e2736514b5eb659c99ee989681b7a60069980bbad9fd31e3c64227a898bbe",
          "vout": 1,
          "scriptSig": {
            "asm": "3044022061d68ebb7301c5f8e923a740322aab54b2218b7c8f0368067f2695a16c4a79bd02205c06b5934e2ede60e0f7bb399eb3f57d88c2251a6763a83e6a1624f562dea1ec[ALL] 022f57524daa5b591a36296a8581c2f4344eafda88db32d29f1e8b229f73f80fba",
            "hex": "473044022061d68ebb7301c5f8e923a740322aab54b2218b7c8f0368067f2695a16c4a79bd02205c06b5934e2ede60e0f7bb399eb3f57d88c2251a6763a83e6a1624f562dea1ec0121022f57524daa5b591a36296a8581c2f4344eafda88db32d29f1e8b229f73f80fba"
          },
          "sequence": 4294967295
        }, 
        {
          "txid": "364afe420abbb8693492359ee3da98229014599df1d3360a321417fcbc71104c",
          "vout": 1,
          "scriptSig": {
            "asm": "3044022070b47bc74cd4252a1434d9e1872bb798c91ff0d40f549a13f4cbaa4ce1ef84be022040f3dc8513a7afea2a10a8c4742e68bf693838fe7c318cd6c74fbf0ac71e6aca[ALL] 03b1bef71ca29077c47bd411a4fa7d435dc6e5db7e7583cdd7041f5fabf5529f5e",
            "hex": "473044022070b47bc74cd4252a1434d9e1872bb798c91ff0d40f549a13f4cbaa4ce1ef84be022040f3dc8513a7afea2a10a8c4742e68bf693838fe7c318cd6c74fbf0ac71e6aca012103b1bef71ca29077c47bd411a4fa7d435dc6e5db7e7583cdd7041f5fabf5529f5e"
          },
          "sequence": 4294967295
        }
      ],
      "vout": [
        {
          "value": 284.96991945,
          "n": 0,
          "scriptPubKey": {
            "asm": "OP_DUP OP_HASH160 6c2614c7b45ef8dfa8dc83e6739ddbe201d05ab0 OP_EQUALVERIFY OP_CHECKSIG",
            "hex": "76a9146c2614c7b45ef8dfa8dc83e6739ddbe201d05ab088ac",
            "reqSigs": 1,
            "type": "pubkeyhash",
            "addresses": [
              "LV5nrreyVZJVvptA9PZSD4ViegKh7Qa8MA"
            ]
          }
        }
      ],
      "hex": "010000000b564b96cbb3b514c732c265472ed0454cdffa0fc536c2b192ec67eede99c6cd04000000006a47304402207a2a2c0d7744a7f55876979f1b7308b56af3a69d3cc101b3051f53a112f7e46a02204cc7f2e08bcd312a02080153d168824a0b51c21bc6eb4cb4520ad246cee2155d012102d782a0bbeb4b01065692660fa1619acf793c1caba5505e45f90ad3a9675fdaf9ffffffffd6d7afa0e6292c3644157bb562fe5f156df635f46f7970780ab429079fa386e9000000006a473044022064ee6b0cc4e6d828a5b2750f0737e3cff03968df12999c3e99c0610609f5ad230220237d6377405215431ea6d512c06c57351cf52b0377775b7fafa09ef9ccd2ba8a0121036629eafb51f178e1557215a09d2fe85d7d5a57978800c41d08e4a771a71120deffffffff04bf5b3795019a00516b5977cb9eb7996535366ef637570d23d485c05c4d4965010000006a4730440220651adc55dbb2d142b988f600b1d18cc38b4202aa5ebd59e3144a5b250a3e60760220566115458c4b775812b2b4c2f7ad1d40d43e523bdefdeecdcf3af4e653e722010121024c733b523ec8efbeb08b0d3f0d3fb35706c80c69f6b993318b8f01f7d0d8463bffffffffb3cf9d3524819e73c5483edfcf672cbab2757943e14265b6c26c3551dcd149b5010000006a47304402205cc98bc6cf1f8f8af8c7e418a159e6fa631d08279635f9cf4e45e85c72f63cb2022058f5f561510a7f34fb572e694298d5662b8bb5b23a297e1c8c28fff7a8cc8a400121031aec1c1706b32fe06ffbdec0c709a7163d154ae185f708eba27ae7f29e27c49effffffffedde2dd6eea4f1fc35c64a7e0c8b555c5389ea08d91c0744fa79adcc556f1067010000006a47304402206d4f455237753ab795dad49f6d0d259f78f648f6d68246821cfd848abc19f0ce022046ce2d837ea2b1ddbfc5532047e537773d0e080b9522e3130b425a1620af9ce201210223e3017f479d5fd7dfe41dfd04984ea301047ded0e4615e17d03782b7179a62affffffff3cb9a05daafe146855c9372a97f236664ec08fa8f452042f85bf8b85a332bec4190000006a4730440220296c3d451ae55c4a66016d8ae15bf5652027ff5576264e46a07e45c0fdc26bbf02203c0793d674a43d3fbdd00886d0e6e00b30a545dabec621edf6347488dbc52b34012103378f6be88d925f8984d9d217b2f0a36a23038c80c0209aa96e21e663e9a8af50ffffffff95ea78b830f84c6faa569c51c2ae06af5566ec379e1e887614d011cbab6ae69e030000006b483045022100a83129f00871b59ca24c98773604c9d16d24f92fde0888f3dc0ac45980659ef202201c18c16f76bc1610abc7805650a560a53a6ab645263c8519ad6c5fa7e31e546901210219001abb2762a5cac0617a22326dcd5628905f962c68e4c397fcb21ab567a8e3fffffffff177eff3e87629a36a85a96c7448fab044730004683e53a54d157868b6048c8c010000006a473044022024224dd6eee09b9790cd52d5456ef8546c6c4b18688a06579f244c1dbb344e73022005d731af0c85e368b6726faa0180f5df08a285d8678a250568d2d74a900b87b5012103798df04787ba9f1db6d46ceb39d132ba0ffe04839dec281c1c8e1d9766b5e21affffffffbe8b897a22643c1ed39fadbb809906607a1b6889e99ec959b65e4b5136279e41000000006a473044022013a05ff7ef6a40e3fbda19fc3f38905fea4cf4560ace95c4a168833be159586402205709d54931c9270b9d2ce6e25a502edc0b1ed9bb8d4bf690ff91d2610e53413601210383cb93876198dd37531e597bc5917f49f34a373c3c4f36ecd94657eb39015f8effffffffbe8b897a22643c1ed39fadbb809906607a1b6889e99ec959b65e4b5136279e41010000006a473044022061d68ebb7301c5f8e923a740322aab54b2218b7c8f0368067f2695a16c4a79bd02205c06b5934e2ede60e0f7bb399eb3f57d88c2251a6763a83e6a1624f562dea1ec0121022f57524daa5b591a36296a8581c2f4344eafda88db32d29f1e8b229f73f80fbaffffffff4c1071bcfc1714320a36d3f19d5914902298dae39e35923469b8bb0a42fe4a36010000006a473044022070b47bc74cd4252a1434d9e1872bb798c91ff0d40f549a13f4cbaa4ce1ef84be022040f3dc8513a7afea2a10a8c4742e68bf693838fe7c318cd6c74fbf0ac71e6aca012103b1bef71ca29077c47bd411a4fa7d435dc6e5db7e7583cdd7041f5fabf5529f5effffffff01c9968da2060000001976a9146c2614c7b45ef8dfa8dc83e6739ddbe201d05ab088ac00000000"
    }
  ],
  "time": 1517208408,
  "mediantime": 1517207572,
  "nonce": 3193673894,
  "bits": "1a042eae",
  "difficulty": 4011378.762614286,
  "chainwork": "0000000000000000000000000000000000000000000000338119e17b05b46fee",
  "previousblockhash": "388ca1185ddc73d5327d9d8e183511b2f8fac5d688e3fe0a5923fcaf5585307f",
  "nextblockhash": "07cfb55d2b2b04daf88dc8167aecd5fe937a829321b25aac407a9f01634d7872"
}
