{
  "hash": "a0489a1dc2625453d6adbef3e4e6f9c25c61c33e3f22456949ebea43def938a0",
  "confirmations": 3176,
  "strippedsize": 234,
  "size": 234,
  "weight": 936,
  "height": 1357819,
  "version": 536870912,
  "versionHex": "20000000",
  "merkleroot": "6ee9375ce645b7c1569acd8a9bb39cf080b2ea906d76b4f134273b8a540c946c",
  "tx": [
    {
      "txid": "6ee9375ce645b7c1569acd8a9bb39cf080b2ea906d76b4f134273b8a540c946c",
      "hash": "6ee9375ce645b7c1569acd8a9bb39cf080b2ea906d76b4f134273b8a540c946c",
      "version": 1,
      "size": 153,
      "vsize": 153,
      "locktime": 0,
      "vin": [
        {
          "coinbase": "03fbb714045a6c62172cfabe6d6d952b35ba84aa00639e30b137961b876bbd604850d2bec0cd72809f9919a907f04000000000000000042f4c502f08560002bd6a020000",
          "sequence": 4294967295
        }
      ],
      "vout": [
        {
          "value": 25.00000000,
          "n": 0,
          "scriptPubKey": {
            "asm": "OP_DUP OP_HASH160 57757ed2ecf2052ff3126c397aca7defb9ca2cec OP_EQUALVERIFY OP_CHECKSIG",
            "hex": "76a91457757ed2ecf2052ff3126c397aca7defb9ca2cec88ac",
            "reqSigs": 1,
            "type": "pubkeyhash",
            "addresses": [
              "LTCPodGk5FwcJaRzH9yKnwicxzFUbxp6tN"
            ]
          }
        }
      ],
      "hex": "01000000010000000000000000000000000000000000000000000000000000000000000000ffffffff4403fbb714045a6c62172cfabe6d6d952b35ba84aa00639e30b137961b876bbd604850d2bec0cd72809f9919a907f04000000000000000042f4c502f08560002bd6a020000ffffffff0100f90295000000001976a91457757ed2ecf2052ff3126c397aca7defb9ca2cec88ac00000000"
    }
  ],
  "time": 1517052439,
  "mediantime": 1517051905,
  "nonce": 81016889,
  "bits": "1a047f14",
  "difficulty": 3731199.183374282,
  "chainwork": "0000000000000000000000000000000000000000000000328e411d5cbb775298",
  "previousblockhash": "f085dbd383f216eb40ece55e2e0531677dbc2e0cfc3e8ae3abf5379b49821504",
  "nextblockhash": "af387e83e024252090b8fb7ac248314786abb6448d62f7e2e01dafb4f7626332"
}
