{
  "hash": "a071cb8d9c7f26ed08e3eb63c892e9ee92088f875977dcf3fdf7a6e62ba96369",
  "confirmations": 1860,
  "strippedsize": 2388,
  "size": 2424,
  "weight": 9588,
  "height": 1359134,
  "version": 536870912,
  "versionHex": "20000000",
  "merkleroot": "a7e581435e8b78ff2249e016c39e57bd9960b526c5032578af1036f623bfc40d",
  "tx": [
    {
      "txid": "30bd57dbe90e41f6ff23dd7dcd7e095e764226bbbf206678b3031d0cbc8f2bb6",
      "hash": "0821639fa9cdb19de4125763f0d3e24088f7dc29e96093f637581011732c6ec4",
      "version": 1,
      "size": 244,
      "vsize": 217,
      "locktime": 0,
      "vin": [
        {
          "coinbase": "031ebd140407416f5a08055ba9da17000000fabe6d6dde34fc1f4d2b498d8dda0415cb6bda153374987380ab61fea1927c218ae947e740000000000000000d2f6e6f64655374726174756d2f",
          "sequence": 0
        }
      ],
      "vout": [
        {
          "value": 25.00210300,
          "n": 0,
          "scriptPubKey": {
            "asm": "OP_DUP OP_HASH160 0c617fdb2ea42aed30a509595ee21ba3f6688db0 OP_EQUALVERIFY OP_CHECKSIG",
            "hex": "76a9140c617fdb2ea42aed30a509595ee21ba3f6688db088ac",
            "reqSigs": 1,
            "type": "pubkeyhash",
            "addresses": [
              "LLMRAtr3qBje2ySEa3CnZ55LA4TQMWnRY3"
            ]
          }
        }, 
        {
          "value": 0.00000000,
          "n": 1,
          "scriptPubKey": {
            "asm": "OP_RETURN aa21a9ed5f7aa4a12f168c35aa0cdbaeb7860651e9677f479dc0cf6cbd0206b799bfcd39",
            "hex": "6a24aa21a9ed5f7aa4a12f168c35aa0cdbaeb7860651e9677f479dc0cf6cbd0206b799bfcd39",
            "type": "nulldata"
          }
        }
      ],
      "hex": "010000000001010000000000000000000000000000000000000000000000000000000000000000ffffffff4c031ebd140407416f5a08055ba9da17000000fabe6d6dde34fc1f4d2b498d8dda0415cb6bda153374987380ab61fea1927c218ae947e740000000000000000d2f6e6f64655374726174756d2f00000000027c2e0695000000001976a9140c617fdb2ea42aed30a509595ee21ba3f6688db088ac0000000000000000266a24aa21a9ed5f7aa4a12f168c35aa0cdbaeb7860651e9677f479dc0cf6cbd0206b799bfcd390120000000000000000000000000000000000000000000000000000000000000000000000000"
    }, 
    {
      "txid": "ea7f771d0b521024eabd6fad8a647d6ed81d753feb04c7f5d7bc046b20f1f301",
      "hash": "ea7f771d0b521024eabd6fad8a647d6ed81d753feb04c7f5d7bc046b20f1f301",
      "version": 2,
      "size": 225,
      "vsize": 225,
      "locktime": 1359132,
      "vin": [
        {
          "txid": "1afe88f9d6d348364ea35375f823eb3a941143b91cc82066872f2f6fc1e9f010",
          "vout": 1,
          "scriptSig": {
            "asm": "304402202c47de7adaa47b45065238ac0b80c511dabbd49d019178455cbd54ab8857cb0b022070f55f181da86056607acc20936235070f17765ae874fd090afb1fa01c11e27d[ALL] 0354b7aba3507b5501549ff9913b01c7caf43b71237ca2dd4859a112d28775d293",
            "hex": "47304402202c47de7adaa47b45065238ac0b80c511dabbd49d019178455cbd54ab8857cb0b022070f55f181da86056607acc20936235070f17765ae874fd090afb1fa01c11e27d01210354b7aba3507b5501549ff9913b01c7caf43b71237ca2dd4859a112d28775d293"
          },
          "sequence": 4294967294
        }
      ],
      "vout": [
        {
          "value": 60.72799739,
          "n": 0,
          "scriptPubKey": {
            "asm": "OP_DUP OP_HASH160 ec082237dd4a25243f201faa7453f9e3f893d955 OP_EQUALVERIFY OP_CHECKSIG",
            "hex": "76a914ec082237dd4a25243f201faa7453f9e3f893d95588ac",
            "reqSigs": 1,
            "type": "pubkeyhash",
            "addresses": [
              "LgjyUd2TLYTTetY7EgchM59b8jJRcg9Gqc"
            ]
          }
        }, 
        {
          "value": 1.90898854,
          "n": 1,
          "scriptPubKey": {
            "asm": "OP_DUP OP_HASH160 1942a0848741989f62093fc95628939591bc37c1 OP_EQUALVERIFY OP_CHECKSIG",
            "hex": "76a9141942a0848741989f62093fc95628939591bc37c188ac",
            "reqSigs": 1,
            "type": "pubkeyhash",
            "addresses": [
              "LMXWyLQf63UTAc8FppQ5yarkjgHhrxe3s3"
            ]
          }
        }
      ],
      "hex": "020000000110f0e9c16f2f2f876620c81cb94311943aeb23f87553a34e3648d3d6f988fe1a010000006a47304402202c47de7adaa47b45065238ac0b80c511dabbd49d019178455cbd54ab8857cb0b022070f55f181da86056607acc20936235070f17765ae874fd090afb1fa01c11e27d01210354b7aba3507b5501549ff9913b01c7caf43b71237ca2dd4859a112d28775d293feffffff02fb91f769010000001976a914ec082237dd4a25243f201faa7453f9e3f893d95588aca6e2600b000000001976a9141942a0848741989f62093fc95628939591bc37c188ac1cbd1400"
    }, 
    {
      "txid": "4a447f5fca71e8373f02b88840fe31aa827765f86a15475b55cdec3fe3b1b114",
      "hash": "4a447f5fca71e8373f02b88840fe31aa827765f86a15475b55cdec3fe3b1b114",
      "version": 1,
      "size": 225,
      "vsize": 225,
      "locktime": 0,
      "vin": [
        {
          "txid": "2790866d9b03e443a3e895b46181032e6e953c35944023885e2ab808a9beb9df",
          "vout": 34,
          "scriptSig": {
            "asm": "304402204f9db18fef0208c6bb725d514365428a8bf02707a5101fbfdb1404dec22bfcf602205fa13b1671dcb4578528bf4128a95d6d9ccaa3945b44e8cbbf989da85e7899c6[ALL] 0287fad3f30231e2a8f7c41feea7dd79090fb69d707b065d5cfef8f340170a1e23",
            "hex": "47304402204f9db18fef0208c6bb725d514365428a8bf02707a5101fbfdb1404dec22bfcf602205fa13b1671dcb4578528bf4128a95d6d9ccaa3945b44e8cbbf989da85e7899c601210287fad3f30231e2a8f7c41feea7dd79090fb69d707b065d5cfef8f340170a1e23"
          },
          "sequence": 4294967295
        }
      ],
      "vout": [
        {
          "value": 0.27044661,
          "n": 0,
          "scriptPubKey": {
            "asm": "OP_DUP OP_HASH160 eaba85ac5c8e39c11c883b1c941baf4584e94dfe OP_EQUALVERIFY OP_CHECKSIG",
            "hex": "76a914eaba85ac5c8e39c11c883b1c941baf4584e94dfe88ac",
            "reqSigs": 1,
            "type": "pubkeyhash",
            "addresses": [
              "Lgd5ptUV83BApcwNyDEfb9vrpoeRy2YBA1"
            ]
          }
        }, 
        {
          "value": 1.68142585,
          "n": 1,
          "scriptPubKey": {
            "asm": "OP_DUP OP_HASH160 2d9cb2d58f620f7ebda04ff21fea2e0c7786824a OP_EQUALVERIFY OP_CHECKSIG",
            "hex": "76a9142d9cb2d58f620f7ebda04ff21fea2e0c7786824a88ac",
            "reqSigs": 1,
            "type": "pubkeyhash",
            "addresses": [
              "LPP8PTE5Nhv4EdJqXMsgqz6ScKYVwS19Cn"
            ]
          }
        }
      ],
      "hex": "0100000001dfb9bea908b82a5e88234094353c956e2e038161b495e8a343e4039b6d869027220000006a47304402204f9db18fef0208c6bb725d514365428a8bf02707a5101fbfdb1404dec22bfcf602205fa13b1671dcb4578528bf4128a95d6d9ccaa3945b44e8cbbf989da85e7899c601210287fad3f30231e2a8f7c41feea7dd79090fb69d707b065d5cfef8f340170a1e23ffffffff0235ab9c01000000001976a914eaba85ac5c8e39c11c883b1c941baf4584e94dfe88acf9a6050a000000001976a9142d9cb2d58f620f7ebda04ff21fea2e0c7786824a88ac00000000"
    }, 
    {
      "txid": "0d4926cfd95c118b775da6a366a83faa458f9084c961660b679ef33f10301393",
      "hash": "0d4926cfd95c118b775da6a366a83faa458f9084c961660b679ef33f10301393",
      "version": 1,
      "size": 225,
      "vsize": 225,
      "locktime": 0,
      "vin": [
        {
          "txid": "ebeb41a86e5cb72b22fa927400f50092f7a6d150fac503eb1f2f14a9fbeadb74",
          "vout": 0,
          "scriptSig": {
            "asm": "3044022062f72f711d45edab4c4540817c5b9a85b4052250b1a0cec85a003aacd2f0aeb002206a0b597542f6792e5e4f0bfb0c89b448410b10c3c91e0da7f83f0870b78ccdde[ALL] 02f5abdfb9c5166c547f199f85fc83171876726d30581597d646c1ed527ffd2396",
            "hex": "473044022062f72f711d45edab4c4540817c5b9a85b4052250b1a0cec85a003aacd2f0aeb002206a0b597542f6792e5e4f0bfb0c89b448410b10c3c91e0da7f83f0870b78ccdde012102f5abdfb9c5166c547f199f85fc83171876726d30581597d646c1ed527ffd2396"
          },
          "sequence": 4294967295
        }
      ],
      "vout": [
        {
          "value": 1.00154228,
          "n": 0,
          "scriptPubKey": {
            "asm": "OP_DUP OP_HASH160 f2a76c4188e6aefcb1d36b429ecfb10032fa30d8 OP_EQUALVERIFY OP_CHECKSIG",
            "hex": "76a914f2a76c4188e6aefcb1d36b429ecfb10032fa30d888ac",
            "reqSigs": 1,
            "type": "pubkeyhash",
            "addresses": [
              "LhLzMP4ps7LJaYVXPpVGk4CcXZWSdXijyN"
            ]
          }
        }, 
        {
          "value": 0.90496340,
          "n": 1,
          "scriptPubKey": {
            "asm": "OP_DUP OP_HASH160 4f339d4fe3f53c6451e055f5cfbf6eca678d2311 OP_EQUALVERIFY OP_CHECKSIG",
            "hex": "76a9144f339d4fe3f53c6451e055f5cfbf6eca678d231188ac",
            "reqSigs": 1,
            "type": "pubkeyhash",
            "addresses": [
              "LSSjUc6j4gigesqPmdgL37mdanss3piA9N"
            ]
          }
        }
      ],
      "hex": "010000000174dbeafba9142f1feb03c5fa50d1a6f79200f5007492fa222bb75c6ea841ebeb000000006a473044022062f72f711d45edab4c4540817c5b9a85b4052250b1a0cec85a003aacd2f0aeb002206a0b597542f6792e5e4f0bfb0c89b448410b10c3c91e0da7f83f0870b78ccdde012102f5abdfb9c5166c547f199f85fc83171876726d30581597d646c1ed527ffd2396ffffffff02743bf805000000001976a914f2a76c4188e6aefcb1d36b429ecfb10032fa30d888ac54dd6405000000001976a9144f339d4fe3f53c6451e055f5cfbf6eca678d231188ac00000000"
    }, 
    {
      "txid": "6cfca5ada159f4c718441fb3d358f178d7e8ec53ce60bef0eb9b4e17bfc302d8",
      "hash": "6cfca5ada159f4c718441fb3d358f178d7e8ec53ce60bef0eb9b4e17bfc302d8",
      "version": 1,
      "size": 520,
      "vsize": 520,
      "locktime": 1359132,
      "vin": [
        {
          "txid": "cf3bf500be54804606f89bef8ac6d877552122a8ed14baea627efed80eee89ed",
          "vout": 1,
          "scriptSig": {
            "asm": "3045022100a1b5c8e84dadc715a1602e8b43ceabe31b4c683240e86f3a54b2a28e4db5392802201180e3167316bbd58ecf4f8d4634fb13ce37e2f40112377dbd30ec4c5dfad55d[ALL] 02b1a24fedd9c9eac9b5576a04e45ed4ddb34cc555a3c1065b0750c2bf6c9d1a57",
            "hex": "483045022100a1b5c8e84dadc715a1602e8b43ceabe31b4c683240e86f3a54b2a28e4db5392802201180e3167316bbd58ecf4f8d4634fb13ce37e2f40112377dbd30ec4c5dfad55d012102b1a24fedd9c9eac9b5576a04e45ed4ddb34cc555a3c1065b0750c2bf6c9d1a57"
          },
          "sequence": 4294967294
        }, 
        {
          "txid": "d63562004571d0ca7f2b47e9bf29cdfb416a16fd565d598bc42c59e0bc309f27",
          "vout": 0,
          "scriptSig": {
            "asm": "3044022074b3722777dc0cf8be2e75aa691b3701b5c18bd3d158e1b66675480249bd4c4302200d8a676257b30c9f59091c8dcc243f9e722b5e84990d41f96aac8779eb59afde[ALL] 029125fd5349d0f05abe4b9ae1c278945f873f18bf9a3bdf58e9d8ee3a5e96c2f6",
            "hex": "473044022074b3722777dc0cf8be2e75aa691b3701b5c18bd3d158e1b66675480249bd4c4302200d8a676257b30c9f59091c8dcc243f9e722b5e84990d41f96aac8779eb59afde0121029125fd5349d0f05abe4b9ae1c278945f873f18bf9a3bdf58e9d8ee3a5e96c2f6"
          },
          "sequence": 4294967294
        }, 
        {
          "txid": "9ec4c5d38434ed64fe05ee3bbcdef47fa9e521aa719c02cea6ce7ec97becd83f",
          "vout": 1,
          "scriptSig": {
            "asm": "304402204c15409caea9f35ea435e531db9e91b00464f5e4fa0fe751706be40c2c60c3560220250e536c8363f06d19d0fc983c2e579323e281b3e24e5c95f08992a2133642b1[ALL] 033c0983cafed4ebd92a87bd536d82cb95313bf0b5f5333108852bd135fcad3c1d",
            "hex": "47304402204c15409caea9f35ea435e531db9e91b00464f5e4fa0fe751706be40c2c60c3560220250e536c8363f06d19d0fc983c2e579323e281b3e24e5c95f08992a2133642b10121033c0983cafed4ebd92a87bd536d82cb95313bf0b5f5333108852bd135fcad3c1d"
          },
          "sequence": 4294967294
        }
      ],
      "vout": [
        {
          "value": 0.01020143,
          "n": 0,
          "scriptPubKey": {
            "asm": "OP_DUP OP_HASH160 9bc871c808684e49e6bbf9780e190d602deac999 OP_EQUALVERIFY OP_CHECKSIG",
            "hex": "76a9149bc871c808684e49e6bbf9780e190d602deac99988ac",
            "reqSigs": 1,
            "type": "pubkeyhash",
            "addresses": [
              "LZRf8581FFegQb3PHbWkBNHhoXya1BnaV1"
            ]
          }
        }, 
        {
          "value": 1.65631789,
          "n": 1,
          "scriptPubKey": {
            "asm": "OP_DUP OP_HASH160 bea5724ce123f39aa57d9a042cda746bca4ed253 OP_EQUALVERIFY OP_CHECKSIG",
            "hex": "76a914bea5724ce123f39aa57d9a042cda746bca4ed25388ac",
            "reqSigs": 1,
            "type": "pubkeyhash",
            "addresses": [
              "Lcbzr5qJLvPQGWG1jWt1C7ooRVsNfo4yHq"
            ]
          }
        }
      ],
      "hex": "0100000003ed89ee0ed8fe7e62eaba14eda822215577d8c68aef9bf806468054be00f53bcf010000006b483045022100a1b5c8e84dadc715a1602e8b43ceabe31b4c683240e86f3a54b2a28e4db5392802201180e3167316bbd58ecf4f8d4634fb13ce37e2f40112377dbd30ec4c5dfad55d012102b1a24fedd9c9eac9b5576a04e45ed4ddb34cc555a3c1065b0750c2bf6c9d1a57feffffff279f30bce0592cc48b595d56fd166a41fbcd29bfe9472b7fcad07145006235d6000000006a473044022074b3722777dc0cf8be2e75aa691b3701b5c18bd3d158e1b66675480249bd4c4302200d8a676257b30c9f59091c8dcc243f9e722b5e84990d41f96aac8779eb59afde0121029125fd5349d0f05abe4b9ae1c278945f873f18bf9a3bdf58e9d8ee3a5e96c2f6feffffff3fd8ec7bc97ecea6ce029c71aa21e5a97ff4debc3bee05fe64ed3484d3c5c49e010000006a47304402204c15409caea9f35ea435e531db9e91b00464f5e4fa0fe751706be40c2c60c3560220250e536c8363f06d19d0fc983c2e579323e281b3e24e5c95f08992a2133642b10121033c0983cafed4ebd92a87bd536d82cb95313bf0b5f5333108852bd135fcad3c1dfeffffff02ef900f00000000001976a9149bc871c808684e49e6bbf9780e190d602deac99988ac2d57df09000000001976a914bea5724ce123f39aa57d9a042cda746bca4ed25388ac1cbd1400"
    }, 
    {
      "txid": "cca9260128cab2d0fd4f4656d63880301416faa55d1a4f28c2d4bf7bf5a3c201",
      "hash": "cca9260128cab2d0fd4f4656d63880301416faa55d1a4f28c2d4bf7bf5a3c201",
      "version": 1,
      "size": 226,
      "vsize": 226,
      "locktime": 0,
      "vin": [
        {
          "txid": "8cfa8046fb91ddc75d87f1a2bc94598183e178f748269c2e828f823ccb3aa720",
          "vout": 1,
          "scriptSig": {
            "asm": "3045022100912e797610a0f569b53c1638b7dc3a871ce70fb5ebcabd7f82c1dacdd5b23b2902201e7daf559e463995cbdacf1b7e26fbfb4322f75c20f6668cbcd6b29e175ad663[ALL] 03b20b253674e4089ca3762318712c15aa72d0a50ab9681f2a8e2a6005adc1d576",
            "hex": "483045022100912e797610a0f569b53c1638b7dc3a871ce70fb5ebcabd7f82c1dacdd5b23b2902201e7daf559e463995cbdacf1b7e26fbfb4322f75c20f6668cbcd6b29e175ad663012103b20b253674e4089ca3762318712c15aa72d0a50ab9681f2a8e2a6005adc1d576"
          },
          "sequence": 4294967295
        }
      ],
      "vout": [
        {
          "value": 1.19059584,
          "n": 0,
          "scriptPubKey": {
            "asm": "OP_DUP OP_HASH160 99849ad01c9791642b7329c3358504464cf2f61b OP_EQUALVERIFY OP_CHECKSIG",
            "hex": "76a91499849ad01c9791642b7329c3358504464cf2f61b88ac",
            "reqSigs": 1,
            "type": "pubkeyhash",
            "addresses": [
              "LZDgW6rg7cmv6U1v5V95hmG1M79usTBuD4"
            ]
          }
        }, 
        {
          "value": 2.00000000,
          "n": 1,
          "scriptPubKey": {
            "asm": "OP_DUP OP_HASH160 d86cfaaf7abf6734be53eef41b149ddc1993f065 OP_EQUALVERIFY OP_CHECKSIG",
            "hex": "76a914d86cfaaf7abf6734be53eef41b149ddc1993f06588ac",
            "reqSigs": 1,
            "type": "pubkeyhash",
            "addresses": [
              "LexJmfAEGxLHsnGxYndY6xD2YhFEVNGsjv"
            ]
          }
        }
      ],
      "hex": "010000000120a73acb3c828f822e9c2648f778e183815994bca2f1875dc7dd91fb4680fa8c010000006b483045022100912e797610a0f569b53c1638b7dc3a871ce70fb5ebcabd7f82c1dacdd5b23b2902201e7daf559e463995cbdacf1b7e26fbfb4322f75c20f6668cbcd6b29e175ad663012103b20b253674e4089ca3762318712c15aa72d0a50ab9681f2a8e2a6005adc1d576ffffffff0280b41807000000001976a91499849ad01c9791642b7329c3358504464cf2f61b88ac00c2eb0b000000001976a914d86cfaaf7abf6734be53eef41b149ddc1993f06588ac00000000"
    }, 
    {
      "txid": "ca8558dfa9a864be62e98ef3b40b12ce8be128ba3d612cbc545cd5c729651f22",
      "hash": "ca8558dfa9a864be62e98ef3b40b12ce8be128ba3d612cbc545cd5c729651f22",
      "version": 1,
      "size": 226,
      "vsize": 226,
      "locktime": 0,
      "vin": [
        {
          "txid": "9799ff27f03b1dab3f498034f47125ae433679cfb1aff233c3af02db0c1fb3b7",
          "vout": 0,
          "scriptSig": {
            "asm": "3045022100b2dc2f10e34f8095ccc1e92b030620ae28fc973305e120eb6b5d5147af5022ba02201e7e1a02a73e7cb6f21865838873e05dad7fc7b0677ed7b6d4229c7036467332[ALL] 025abbe8b9941dd88e252de107b42e07db0ae6ae04e01fd13015c79fcea8d2c953",
            "hex": "483045022100b2dc2f10e34f8095ccc1e92b030620ae28fc973305e120eb6b5d5147af5022ba02201e7e1a02a73e7cb6f21865838873e05dad7fc7b0677ed7b6d4229c70364673320121025abbe8b9941dd88e252de107b42e07db0ae6ae04e01fd13015c79fcea8d2c953"
          },
          "sequence": 4294967295
        }
      ],
      "vout": [
        {
          "value": 7.48840138,
          "n": 0,
          "scriptPubKey": {
            "asm": "OP_DUP OP_HASH160 59267449dfb41a17d6bd15a2aee7fba26f98f013 OP_EQUALVERIFY OP_CHECKSIG",
            "hex": "76a91459267449dfb41a17d6bd15a2aee7fba26f98f01388ac",
            "reqSigs": 1,
            "type": "pubkeyhash",
            "addresses": [
              "LTMLU8jipBa7FvqdVenaXnmwA7BeHhMVEc"
            ]
          }
        }, 
        {
          "value": 0.47605526,
          "n": 1,
          "scriptPubKey": {
            "asm": "OP_DUP OP_HASH160 14890c0d7606126b2480cf3c6c3cff84eb12e9b4 OP_EQUALVERIFY OP_CHECKSIG",
            "hex": "76a91414890c0d7606126b2480cf3c6c3cff84eb12e9b488ac",
            "reqSigs": 1,
            "type": "pubkeyhash",
            "addresses": [
              "LM6XxFKXVMNteneRYwnU5aC1uWZqn3mSkC"
            ]
          }
        }
      ],
      "hex": "0100000001b7b31f0cdb02afc333f2afb1cf793643ae2571f43480493fab1d3bf027ff9997000000006b483045022100b2dc2f10e34f8095ccc1e92b030620ae28fc973305e120eb6b5d5147af5022ba02201e7e1a02a73e7cb6f21865838873e05dad7fc7b0677ed7b6d4229c70364673320121025abbe8b9941dd88e252de107b42e07db0ae6ae04e01fd13015c79fcea8d2c953ffffffff02ca64a22c000000001976a91459267449dfb41a17d6bd15a2aee7fba26f98f01388ac1667d602000000001976a91414890c0d7606126b2480cf3c6c3cff84eb12e9b488ac00000000"
    }, 
    {
      "txid": "58c140ee05a8d2a4757050a48037a3a5df74d576f7d24e0e4582f5e9cd941b24",
      "hash": "58c140ee05a8d2a4757050a48037a3a5df74d576f7d24e0e4582f5e9cd941b24",
      "version": 1,
      "size": 226,
      "vsize": 226,
      "locktime": 0,
      "vin": [
        {
          "txid": "6340b7a6550fefbe44bc3b44823717294b61cf2ae496c919d052399961b56135",
          "vout": 1,
          "scriptSig": {
            "asm": "30450221008c4a6db406d6e97258ffd445d26fef2ad0e44c3a9a0937e0238bbb0d055734b5022016112470b89c03777e21da25bb0a9fa2e2ba678c16d7fc355c00b98834c7243f[ALL] 02f052e8bea148866ce16fcc8b204b1a25aa494e69631bc801c170c290c240a408",
            "hex": "4830450221008c4a6db406d6e97258ffd445d26fef2ad0e44c3a9a0937e0238bbb0d055734b5022016112470b89c03777e21da25bb0a9fa2e2ba678c16d7fc355c00b98834c7243f012102f052e8bea148866ce16fcc8b204b1a25aa494e69631bc801c170c290c240a408"
          },
          "sequence": 4294967295
        }
      ],
      "vout": [
        {
          "value": 0.25902809,
          "n": 0,
          "scriptPubKey": {
            "asm": "OP_DUP OP_HASH160 c32ac1c83a71e9dc2f482b88c7efbba3b779df4d OP_EQUALVERIFY OP_CHECKSIG",
            "hex": "76a914c32ac1c83a71e9dc2f482b88c7efbba3b779df4d88ac",
            "reqSigs": 1,
            "type": "pubkeyhash",
            "addresses": [
              "Ld1uFReM1SufBQEsqbmg5GjxuTZ5gJRpCz"
            ]
          }
        }, 
        {
          "value": 0.05239020,
          "n": 1,
          "scriptPubKey": {
            "asm": "OP_DUP OP_HASH160 d5288516d33e0c0b5e803202c1fce1457ac16c3e OP_EQUALVERIFY OP_CHECKSIG",
            "hex": "76a914d5288516d33e0c0b5e803202c1fce1457ac16c3e88ac",
            "reqSigs": 1,
            "type": "pubkeyhash",
            "addresses": [
              "Lef2jSg7oR5kGZe5825pdcTK3j93jH1Cyf"
            ]
          }
        }
      ],
      "hex": "01000000013561b561993952d019c996e42acf614b29173782443bbc44beef0f55a6b74063010000006b4830450221008c4a6db406d6e97258ffd445d26fef2ad0e44c3a9a0937e0238bbb0d055734b5022016112470b89c03777e21da25bb0a9fa2e2ba678c16d7fc355c00b98834c7243f012102f052e8bea148866ce16fcc8b204b1a25aa494e69631bc801c170c290c240a408ffffffff02d93e8b01000000001976a914c32ac1c83a71e9dc2f482b88c7efbba3b779df4d88acecf04f00000000001976a914d5288516d33e0c0b5e803202c1fce1457ac16c3e88ac00000000"
    }, 
    {
      "txid": "b3caf484befa297b1aaea752c4a1b7a640556b90fc615aedad80906a732bbabb",
      "hash": "b3caf484befa297b1aaea752c4a1b7a640556b90fc615aedad80906a732bbabb",
      "version": 1,
      "size": 226,
      "vsize": 226,
      "locktime": 1359132,
      "vin": [
        {
          "txid": "b7efce85e9678345479a5379a49048c084e1b63754a5d2ac45e09d46692f691d",
          "vout": 0,
          "scriptSig": {
            "asm": "3045022100e2b161cc05d95b482692e8129f8a2cedb87e4641059fb14b309fc14cd82d621402206c646e20c38ba09cc02d7ec0ddee725d41666c37095b000d226f85570f88d8fc[ALL] 03127c0ce20ff3642f95cc4a63fa6281ec9c0f545ede4135baaf863416393c1424",
            "hex": "483045022100e2b161cc05d95b482692e8129f8a2cedb87e4641059fb14b309fc14cd82d621402206c646e20c38ba09cc02d7ec0ddee725d41666c37095b000d226f85570f88d8fc012103127c0ce20ff3642f95cc4a63fa6281ec9c0f545ede4135baaf863416393c1424"
          },
          "sequence": 4294967294
        }
      ],
      "vout": [
        {
          "value": 0.07153992,
          "n": 0,
          "scriptPubKey": {
            "asm": "OP_DUP OP_HASH160 927a3663d5f90c68a68ef12167be589b6e571ad6 OP_EQUALVERIFY OP_CHECKSIG",
            "hex": "76a914927a3663d5f90c68a68ef12167be589b6e571ad688ac",
            "reqSigs": 1,
            "type": "pubkeyhash",
            "addresses": [
              "LYaTKh2SpJSkXfZeKK53NiLHBeF4K1hkHh"
            ]
          }
        }, 
        {
          "value": 0.01109558,
          "n": 1,
          "scriptPubKey": {
            "asm": "OP_DUP OP_HASH160 8c36daf8182d44c71270ad90c178c306e44197ad OP_EQUALVERIFY OP_CHECKSIG",
            "hex": "76a9148c36daf8182d44c71270ad90c178c306e44197ad88ac",
            "reqSigs": 1,
            "type": "pubkeyhash",
            "addresses": [
              "LY1LaV85FjVca9SLHCtDrruSErnaNdYwJp"
            ]
          }
        }
      ],
      "hex": "01000000011d692f69469de045acd2a55437b6e184c04890a479539a47458367e985ceefb7000000006b483045022100e2b161cc05d95b482692e8129f8a2cedb87e4641059fb14b309fc14cd82d621402206c646e20c38ba09cc02d7ec0ddee725d41666c37095b000d226f85570f88d8fc012103127c0ce20ff3642f95cc4a63fa6281ec9c0f545ede4135baaf863416393c1424feffffff0248296d00000000001976a914927a3663d5f90c68a68ef12167be589b6e571ad688ac36ee1000000000001976a9148c36daf8182d44c71270ad90c178c306e44197ad88ac1cbd1400"
    }
  ],
  "time": 1517240564,
  "mediantime": 1517240300,
  "nonce": 546702729,
  "bits": "1a042eae",
  "difficulty": 4011378.762614286,
  "chainwork": "000000000000000000000000000000000000000000000033b89288f49a5e0dbe",
  "previousblockhash": "056be6abae584732186def7def62bd3377cf82e1d272085cb7829a51eee57a95",
  "nextblockhash": "ae9b842a3410ec2eb0bf2e99a7509b2ea4da5ccc84eabdd57fcc0e39771dbb05"
}
