{
  "hash": "a09dc3010215117a403dee99414b42381234563c561ba20ac51bd32533194811",
  "confirmations": 3145,
  "strippedsize": 4957,
  "size": 4993,
  "weight": 19864,
  "height": 1357850,
  "version": 536870912,
  "versionHex": "20000000",
  "merkleroot": "59bb2d82e2567501070aefa5ed6ed3865a88cb6075d31cea4d2a3b46ab14f406",
  "tx": [
    {
      "txid": "cf86a410dcfcf74358e97262cb0395c92c5eb04c28f08a995b8eeeb0d29b194e",
      "hash": "bb71351aa52ce11e3781ce8b037046575291aa92d5865715c98eb7c579741508",
      "version": 1,
      "size": 253,
      "vsize": 226,
      "locktime": 0,
      "vin": [
        {
          "coinbase": "031ab81441d69b1c9fde921d41d69b1c9fdd1d552f4c54432e544f502ffabe6d6d0dd4789be8f479ee76f6a3167350ba2b651572ceb0d1e3f1e0e3af4e035c86710100000000000000672f37fc0a00000000000000",
          "sequence": 4294967295
        }
      ],
      "vout": [
        {
          "value": 25.01232852,
          "n": 0,
          "scriptPubKey": {
            "asm": "OP_DUP OP_HASH160 0c617fdb2ea42aed30a509595ee21ba3f6688db0 OP_EQUALVERIFY OP_CHECKSIG",
            "hex": "76a9140c617fdb2ea42aed30a509595ee21ba3f6688db088ac",
            "reqSigs": 1,
            "type": "pubkeyhash",
            "addresses": [
              "LLMRAtr3qBje2ySEa3CnZ55LA4TQMWnRY3"
            ]
          }
        }, 
        {
          "value": 0.00000000,
          "n": 1,
          "scriptPubKey": {
            "asm": "OP_RETURN aa21a9ed28029547c324cda23a2488eb6d520e0a36f261f9315e7beec539992774030ca7",
            "hex": "6a24aa21a9ed28029547c324cda23a2488eb6d520e0a36f261f9315e7beec539992774030ca7",
            "type": "nulldata"
          }
        }
      ],
      "hex": "010000000001010000000000000000000000000000000000000000000000000000000000000000ffffffff55031ab81441d69b1c9fde921d41d69b1c9fdd1d552f4c54432e544f502ffabe6d6d0dd4789be8f479ee76f6a3167350ba2b651572ceb0d1e3f1e0e3af4e035c86710100000000000000672f37fc0a00000000000000ffffffff02d4c81595000000001976a9140c617fdb2ea42aed30a509595ee21ba3f6688db088ac0000000000000000266a24aa21a9ed28029547c324cda23a2488eb6d520e0a36f261f9315e7beec539992774030ca70120000000000000000000000000000000000000000000000000000000000000000000000000"
    }, 
    {
      "txid": "73cd3277f95908adaee3417e0992063c3fefab4ca2bae01c12957c75c21df101",
      "hash": "73cd3277f95908adaee3417e0992063c3fefab4ca2bae01c12957c75c21df101",
      "version": 1,
      "size": 339,
      "vsize": 339,
      "locktime": 0,
      "vin": [
        {
          "txid": "a781a73b39898b856f891819f3857830bdc5ae75a8a969483835abcd3b503b2c",
          "vout": 0,
          "scriptSig": {
            "asm": "304402203866de8d4bfdfdf0e13ab82f94840141d4abe906010cde39790f1269cc7737c002201e26bda7fd1df8b918ce27c3bd272b660a70a1386736b5edddb3738995fb3660[ALL] 03757825493a7b01efbb134b073ea45a5e4d6c324c465f549c51cdb1ea9c6aaf71",
            "hex": "47304402203866de8d4bfdfdf0e13ab82f94840141d4abe906010cde39790f1269cc7737c002201e26bda7fd1df8b918ce27c3bd272b660a70a1386736b5edddb3738995fb3660012103757825493a7b01efbb134b073ea45a5e4d6c324c465f549c51cdb1ea9c6aaf71"
          },
          "sequence": 4294967295
        }, 
        {
          "txid": "e5db05fd91909746999b5d7700405ca684fab161ca825e1f8162d141dd944b2b",
          "vout": 50,
          "scriptSig": {
            "asm": "3045022100ba1dfaf950a46b1419ef375a5306d251eecda812a643e180b4e5b60af6a66b900220174a0924323c06d641e3c7d26b9c892818fc7e6905afb71db2b1fbcdce43f9e4[ALL] 03757825493a7b01efbb134b073ea45a5e4d6c324c465f549c51cdb1ea9c6aaf71",
            "hex": "483045022100ba1dfaf950a46b1419ef375a5306d251eecda812a643e180b4e5b60af6a66b900220174a0924323c06d641e3c7d26b9c892818fc7e6905afb71db2b1fbcdce43f9e4012103757825493a7b01efbb134b073ea45a5e4d6c324c465f549c51cdb1ea9c6aaf71"
          },
          "sequence": 4294967295
        }
      ],
      "vout": [
        {
          "value": 0.37850369,
          "n": 0,
          "scriptPubKey": {
            "asm": "OP_DUP OP_HASH160 8822ed6f4ea00f7e5e044920ca715d0cf5fdc1dd OP_EQUALVERIFY OP_CHECKSIG",
            "hex": "76a9148822ed6f4ea00f7e5e044920ca715d0cf5fdc1dd88ac",
            "reqSigs": 1,
            "type": "pubkeyhash",
            "addresses": [
              "LXdn1766yGUDJRebiRLSgX9vJajr4zU9N6"
            ]
          }
        }
      ],
      "hex": "01000000022c3b503bcdab35384869a9a875aec5bd307885f31918896f858b89393ba781a7000000006a47304402203866de8d4bfdfdf0e13ab82f94840141d4abe906010cde39790f1269cc7737c002201e26bda7fd1df8b918ce27c3bd272b660a70a1386736b5edddb3738995fb3660012103757825493a7b01efbb134b073ea45a5e4d6c324c465f549c51cdb1ea9c6aaf71ffffffff2b4b94dd41d162811f5e82ca61b1fa84a65c4000775d9b9946979091fd05dbe5320000006b483045022100ba1dfaf950a46b1419ef375a5306d251eecda812a643e180b4e5b60af6a66b900220174a0924323c06d641e3c7d26b9c892818fc7e6905afb71db2b1fbcdce43f9e4012103757825493a7b01efbb134b073ea45a5e4d6c324c465f549c51cdb1ea9c6aaf71ffffffff01018d4102000000001976a9148822ed6f4ea00f7e5e044920ca715d0cf5fdc1dd88ac00000000"
    }, 
    {
      "txid": "5813e3d476a746541b4517bfce767aa8846d3e299e4fc4c74d5b5bdf0d8720f6",
      "hash": "5813e3d476a746541b4517bfce767aa8846d3e299e4fc4c74d5b5bdf0d8720f6",
      "version": 1,
      "size": 226,
      "vsize": 226,
      "locktime": 0,
      "vin": [
        {
          "txid": "7b4babc63837047eb11e320d68fb3198ed5e0d16e267eff1fb11f9fe9155e7c9",
          "vout": 1,
          "scriptSig": {
            "asm": "3045022100f80e0af4a6f723b8a4f0d87ba0282088221984ef27af3719d13b7aad403ccebc02202f94b66e7f395219803dbf40875c051c9798ebfc6c37fc7d616e3a9664ba6686[ALL] 034cef3f33356af270586450d3dbab24fcbed5f20a3e5e313eb688f7a1b36a3886",
            "hex": "483045022100f80e0af4a6f723b8a4f0d87ba0282088221984ef27af3719d13b7aad403ccebc02202f94b66e7f395219803dbf40875c051c9798ebfc6c37fc7d616e3a9664ba66860121034cef3f33356af270586450d3dbab24fcbed5f20a3e5e313eb688f7a1b36a3886"
          },
          "sequence": 4294967295
        }
      ],
      "vout": [
        {
          "value": 0.22000000,
          "n": 0,
          "scriptPubKey": {
            "asm": "OP_DUP OP_HASH160 00c88f49e1274a463fc064f982b8bd3c78f47b60 OP_EQUALVERIFY OP_CHECKSIG",
            "hex": "76a91400c88f49e1274a463fc064f982b8bd3c78f47b6088ac",
            "reqSigs": 1,
            "type": "pubkeyhash",
            "addresses": [
              "LKJ6XM4fCYd2qiSZkK4yndBUQ2u42ZrbXB"
            ]
          }
        }, 
        {
          "value": 544.69993420,
          "n": 1,
          "scriptPubKey": {
            "asm": "OP_DUP OP_HASH160 342ec2480f9b5b83b3f5df67480c6794291b4745 OP_EQUALVERIFY OP_CHECKSIG",
            "hex": "76a914342ec2480f9b5b83b3f5df67480c6794291b474588ac",
            "reqSigs": 1,
            "type": "pubkeyhash",
            "addresses": [
              "LPysR478FbfjvZmxisG8k6kTFdVUCtignR"
            ]
          }
        }
      ],
      "hex": "0100000001c9e75591fef911fbf1ef67e2160d5eed9831fb680d321eb17e043738c6ab4b7b010000006b483045022100f80e0af4a6f723b8a4f0d87ba0282088221984ef27af3719d13b7aad403ccebc02202f94b66e7f395219803dbf40875c051c9798ebfc6c37fc7d616e3a9664ba66860121034cef3f33356af270586450d3dbab24fcbed5f20a3e5e313eb688f7a1b36a3886ffffffff0280b14f01000000001976a91400c88f49e1274a463fc064f982b8bd3c78f47b6088accc23aaae0c0000001976a914342ec2480f9b5b83b3f5df67480c6794291b474588ac00000000"
    }, 
    {
      "txid": "112edef499675f094f26edc3e3e309a5f598fab76e0713d8e2caa180912c1f53",
      "hash": "112edef499675f094f26edc3e3e309a5f598fab76e0713d8e2caa180912c1f53",
      "version": 1,
      "size": 371,
      "vsize": 371,
      "locktime": 0,
      "vin": [
        {
          "txid": "98719ed6efb08b925b730ad4b22e5efc796fa6142689eaf8a7f5a2dc084a8b3f",
          "vout": 0,
          "scriptSig": {
            "asm": "304502210081f0154f45a53a960260a2adc3a1469d9d1f329b2c1e5d7e6fd8f86050d4698b022025782de4a918cef9387446f5c38dda3b92722ffd7403079ee9f3d6cd89c3bd49[ALL] 03335f698c39616a5e517dd75a159d9e3807d29cceb22d6d3f006e43e661d8b6cf",
            "hex": "48304502210081f0154f45a53a960260a2adc3a1469d9d1f329b2c1e5d7e6fd8f86050d4698b022025782de4a918cef9387446f5c38dda3b92722ffd7403079ee9f3d6cd89c3bd49012103335f698c39616a5e517dd75a159d9e3807d29cceb22d6d3f006e43e661d8b6cf"
          },
          "sequence": 4294967295
        }, 
        {
          "txid": "c2e1fb617e223dc7f2e2528a6a4379fd1b798efad808c82f8215294c57cab1e8",
          "vout": 754,
          "scriptSig": {
            "asm": "3044022011fe3062e6ac68069c11aa30e7b2af6efa7a2a014f857eaab29e8a06247a33eb022051e8145c16fbd0f4fdbfabcf106282c86a6fd640b6e8f9843ed6e949b28d354c[ALL] 0353df7124b8b4e356153cb512ca5a4aa6421a1e9da93d23ab386b7d875ba6ef3e",
            "hex": "473044022011fe3062e6ac68069c11aa30e7b2af6efa7a2a014f857eaab29e8a06247a33eb022051e8145c16fbd0f4fdbfabcf106282c86a6fd640b6e8f9843ed6e949b28d354c01210353df7124b8b4e356153cb512ca5a4aa6421a1e9da93d23ab386b7d875ba6ef3e"
          },
          "sequence": 4294967295
        }
      ],
      "vout": [
        {
          "value": 0.01001744,
          "n": 0,
          "scriptPubKey": {
            "asm": "OP_DUP OP_HASH160 9f30e216f52cef7de4815f6f4a03a142eba99bca OP_EQUALVERIFY OP_CHECKSIG",
            "hex": "76a9149f30e216f52cef7de4815f6f4a03a142eba99bca88ac",
            "reqSigs": 1,
            "type": "pubkeyhash",
            "addresses": [
              "LZjgGB9TkQTvrBfxNmefCjHjsyDa3zdV4s"
            ]
          }
        }, 
        {
          "value": 0.80497179,
          "n": 1,
          "scriptPubKey": {
            "asm": "OP_HASH160 0adefc5dd5e9974f95920b90ea1c2d1be0c277fe OP_EQUAL",
            "hex": "a9140adefc5dd5e9974f95920b90ea1c2d1be0c277fe87",
            "reqSigs": 1,
            "type": "scripthash",
            "addresses": [
              "M8te7g3UYA4yuWPwDgpAHorytcJ3Ym31jb"
            ]
          }
        }
      ],
      "hex": "01000000023f8b4a08dca2f5a7f8ea892614a66f79fc5e2eb2d40a735b928bb0efd69e7198000000006b48304502210081f0154f45a53a960260a2adc3a1469d9d1f329b2c1e5d7e6fd8f86050d4698b022025782de4a918cef9387446f5c38dda3b92722ffd7403079ee9f3d6cd89c3bd49012103335f698c39616a5e517dd75a159d9e3807d29cceb22d6d3f006e43e661d8b6cfffffffffe8b1ca574c2915822fc808d8fa8e791bfd79436a8a52e2f2c73d227e61fbe1c2f20200006a473044022011fe3062e6ac68069c11aa30e7b2af6efa7a2a014f857eaab29e8a06247a33eb022051e8145c16fbd0f4fdbfabcf106282c86a6fd640b6e8f9843ed6e949b28d354c01210353df7124b8b4e356153cb512ca5a4aa6421a1e9da93d23ab386b7d875ba6ef3effffffff0210490f00000000001976a9149f30e216f52cef7de4815f6f4a03a142eba99bca88ac1b4acc040000000017a9140adefc5dd5e9974f95920b90ea1c2d1be0c277fe8700000000"
    }, 
    {
      "txid": "71b3a32d486a888cd59056595d712c9df612c57c3e7513bfb01da1abc37f4443",
      "hash": "71b3a32d486a888cd59056595d712c9df612c57c3e7513bfb01da1abc37f4443",
      "version": 1,
      "size": 191,
      "vsize": 191,
      "locktime": 0,
      "vin": [
        {
          "txid": "8c3a76d5daa3433007c3b15c1ec0fae1739a5cd39de9561395723b8ae9fa9705",
          "vout": 1,
          "scriptSig": {
            "asm": "304402202ad52723ca5b9ebc1db12faecca93fbfb7a745b40d8af68347c43c76933e78410220405ddf874bb138000b2bc55594534dbbb89d2808fa0e9273c3b0748c3cca5569[ALL] 03eb9fa6caf521bf99604a3a0afa5b9ac3137e3624b434bf82c6009bb8b04c0e55",
            "hex": "47304402202ad52723ca5b9ebc1db12faecca93fbfb7a745b40d8af68347c43c76933e78410220405ddf874bb138000b2bc55594534dbbb89d2808fa0e9273c3b0748c3cca5569012103eb9fa6caf521bf99604a3a0afa5b9ac3137e3624b434bf82c6009bb8b04c0e55"
          },
          "sequence": 4294967295
        }
      ],
      "vout": [
        {
          "value": 4.99900000,
          "n": 0,
          "scriptPubKey": {
            "asm": "OP_DUP OP_HASH160 f2294611d50b987e49a291958bc11b3f0290b120 OP_EQUALVERIFY OP_CHECKSIG",
            "hex": "76a914f2294611d50b987e49a291958bc11b3f0290b12088ac",
            "reqSigs": 1,
            "type": "pubkeyhash",
            "addresses": [
              "LhJPEPCfAqYzvHwZXExHb1epxrc4o4Bbm2"
            ]
          }
        }
      ],
      "hex": "01000000010597fae98a3b72951356e99dd35c9a73e1fac01e5cb1c3073043a3dad5763a8c010000006a47304402202ad52723ca5b9ebc1db12faecca93fbfb7a745b40d8af68347c43c76933e78410220405ddf874bb138000b2bc55594534dbbb89d2808fa0e9273c3b0748c3cca5569012103eb9fa6caf521bf99604a3a0afa5b9ac3137e3624b434bf82c6009bb8b04c0e55ffffffff0160decb1d000000001976a914f2294611d50b987e49a291958bc11b3f0290b12088ac00000000"
    }, 
    {
      "txid": "8bc2157aba7ea0f9fd989132cb01aeea3498fefdaf36c3bd460355421dbf7795",
      "hash": "8bc2157aba7ea0f9fd989132cb01aeea3498fefdaf36c3bd460355421dbf7795",
      "version": 1,
      "size": 225,
      "vsize": 225,
      "locktime": 1357846,
      "vin": [
        {
          "txid": "3b9becdf833d491bb853dfc2a97ed910593af7fb4eb38effe69bf3599e699929",
          "vout": 831,
          "scriptSig": {
            "asm": "3044022024e901b55db3112b31868ae3e5baf90d985699bb99fc1b8cbc3fc8e9f4d56fe502203589dc2c6d31916194a9bb0eeed1c9d04137ed12f53739973e86e6e98553f276[ALL] 03162eca8bafb58a3b5b8370f45486288ec79a4fcbfe753fea3b90e5bf30c396bb",
            "hex": "473044022024e901b55db3112b31868ae3e5baf90d985699bb99fc1b8cbc3fc8e9f4d56fe502203589dc2c6d31916194a9bb0eeed1c9d04137ed12f53739973e86e6e98553f276012103162eca8bafb58a3b5b8370f45486288ec79a4fcbfe753fea3b90e5bf30c396bb"
          },
          "sequence": 4294967294
        }
      ],
      "vout": [
        {
          "value": 0.24880322,
          "n": 0,
          "scriptPubKey": {
            "asm": "OP_DUP OP_HASH160 b5dd0f15a9d1ea9ef5f26a909a98f46edea0f212 OP_EQUALVERIFY OP_CHECKSIG",
            "hex": "76a914b5dd0f15a9d1ea9ef5f26a909a98f46edea0f21288ac",
            "reqSigs": 1,
            "type": "pubkeyhash",
            "addresses": [
              "LboZPNrfXFpFvRDJL7Fi6UF2dt4o95GLZb"
            ]
          }
        }, 
        {
          "value": 0.01000359,
          "n": 1,
          "scriptPubKey": {
            "asm": "OP_DUP OP_HASH160 5b9877aa9060804d9149b234ea4566dd689cdc7d OP_EQUALVERIFY OP_CHECKSIG",
            "hex": "76a9145b9877aa9060804d9149b234ea4566dd689cdc7d88ac",
            "reqSigs": 1,
            "type": "pubkeyhash",
            "addresses": [
              "LTaGQHyVecC44BkeP4wZJLxECKTJM7a8Bv"
            ]
          }
        }
      ],
      "hex": "01000000012999699e59f39be6ff8eb34efbf73a5910d97ea9c2df53b81b493d83dfec9b3b3f0300006a473044022024e901b55db3112b31868ae3e5baf90d985699bb99fc1b8cbc3fc8e9f4d56fe502203589dc2c6d31916194a9bb0eeed1c9d04137ed12f53739973e86e6e98553f276012103162eca8bafb58a3b5b8370f45486288ec79a4fcbfe753fea3b90e5bf30c396bbfeffffff02c2a47b01000000001976a914b5dd0f15a9d1ea9ef5f26a909a98f46edea0f21288aca7430f00000000001976a9145b9877aa9060804d9149b234ea4566dd689cdc7d88ac16b81400"
    }, 
    {
      "txid": "dfaa32b183e2169851529ed40b041ad8d92d4058c6af828ce64a4e7b7c98d7e8",
      "hash": "dfaa32b183e2169851529ed40b041ad8d92d4058c6af828ce64a4e7b7c98d7e8",
      "version": 2,
      "size": 225,
      "vsize": 225,
      "locktime": 1357847,
      "vin": [
        {
          "txid": "9ce98d2939e82d115b0cfd257d62d5eaf97fda77a776c874e495631a92b3e53c",
          "vout": 0,
          "scriptSig": {
            "asm": "304402205307d314c355ad2b1a13e28fdc4defa6516f856844952154e255a7658318303d02200fb8718d9430db5632ca6b44573fd632b42f106f937f736a79854eeba939a12c[ALL] 0295dbde2f02ba2196d5169d2d82bb5c87f2d426eb082621014202f04166620b14",
            "hex": "47304402205307d314c355ad2b1a13e28fdc4defa6516f856844952154e255a7658318303d02200fb8718d9430db5632ca6b44573fd632b42f106f937f736a79854eeba939a12c01210295dbde2f02ba2196d5169d2d82bb5c87f2d426eb082621014202f04166620b14"
          },
          "sequence": 4294967294
        }
      ],
      "vout": [
        {
          "value": 20.32400231,
          "n": 0,
          "scriptPubKey": {
            "asm": "OP_DUP OP_HASH160 7994e8eab070d7e79359a812257da15a3d37f8ba OP_EQUALVERIFY OP_CHECKSIG",
            "hex": "76a9147994e8eab070d7e79359a812257da15a3d37f8ba88ac",
            "reqSigs": 1,
            "type": "pubkeyhash",
            "addresses": [
              "LWJpQrtToDSVpdEWSvwXtkvNdRP4rW5LeF"
            ]
          }
        }, 
        {
          "value": 0.66410941,
          "n": 1,
          "scriptPubKey": {
            "asm": "OP_DUP OP_HASH160 5c425105ffc6fdb9c8aa9f38891ab9544e387dde OP_EQUALVERIFY OP_CHECKSIG",
            "hex": "76a9145c425105ffc6fdb9c8aa9f38891ab9544e387dde88ac",
            "reqSigs": 1,
            "type": "pubkeyhash",
            "addresses": [
              "LTdmscUZTiKpfZ4n17gBYukPihBmdnWn2Q"
            ]
          }
        }
      ],
      "hex": "02000000013ce5b3921a6395e474c876a777da7ff9ead5627d25fd0c5b112de839298de99c000000006a47304402205307d314c355ad2b1a13e28fdc4defa6516f856844952154e255a7658318303d02200fb8718d9430db5632ca6b44573fd632b42f106f937f736a79854eeba939a12c01210295dbde2f02ba2196d5169d2d82bb5c87f2d426eb082621014202f04166620b14feffffff0267f72379000000001976a9147994e8eab070d7e79359a812257da15a3d37f8ba88acbd59f503000000001976a9145c425105ffc6fdb9c8aa9f38891ab9544e387dde88ac17b81400"
    }, 
    {
      "txid": "fc9579bb25410eac6e99a4332ce28f1e94f3ebc2231030e4e4f891d66bac7cfb",
      "hash": "fc9579bb25410eac6e99a4332ce28f1e94f3ebc2231030e4e4f891d66bac7cfb",
      "version": 2,
      "size": 226,
      "vsize": 226,
      "locktime": 1357846,
      "vin": [
        {
          "txid": "aeb837878ca4afe6257e616a8fa2297a6af725a641c08c0dafc574de01a2740a",
          "vout": 0,
          "scriptSig": {
            "asm": "3045022100dad17fb132758441e9b4d350cd3a9c1548b1811c9a2a96f3ebfe4ee3d6ab0bf2022019b8fbbf81b51125ca3414f01dafe36cccfffa506d69bd6e30dee0bab146d86f[ALL] 02848b41975247e0def1748030ea9304139138ce8408e81ad76b45a78ba59395e7",
            "hex": "483045022100dad17fb132758441e9b4d350cd3a9c1548b1811c9a2a96f3ebfe4ee3d6ab0bf2022019b8fbbf81b51125ca3414f01dafe36cccfffa506d69bd6e30dee0bab146d86f012102848b41975247e0def1748030ea9304139138ce8408e81ad76b45a78ba59395e7"
          },
          "sequence": 4294967294
        }
      ],
      "vout": [
        {
          "value": 0.99070000,
          "n": 0,
          "scriptPubKey": {
            "asm": "OP_DUP OP_HASH160 c7715b9b611889af3c26e03da378b71a22b0cec9 OP_EQUALVERIFY OP_CHECKSIG",
            "hex": "76a914c7715b9b611889af3c26e03da378b71a22b0cec988ac",
            "reqSigs": 1,
            "type": "pubkeyhash",
            "addresses": [
              "LdQWXdNzqF28LozWGTZRBXjJLtKfXTuhrE"
            ]
          }
        }, 
        {
          "value": 19.32699809,
          "n": 1,
          "scriptPubKey": {
            "asm": "OP_DUP OP_HASH160 e67eab6edf1397dcc1a373cd7999e265b218df86 OP_EQUALVERIFY OP_CHECKSIG",
            "hex": "76a914e67eab6edf1397dcc1a373cd7999e265b218df8688ac",
            "reqSigs": 1,
            "type": "pubkeyhash",
            "addresses": [
              "LgEhRVjs2zXq1zFVWipexFDF7iWfEGMxKM"
            ]
          }
        }
      ],
      "hex": "02000000010a74a201de74c5af0d8cc041a625f76a7a29a28f6a617e25e6afa48c8737b8ae000000006b483045022100dad17fb132758441e9b4d350cd3a9c1548b1811c9a2a96f3ebfe4ee3d6ab0bf2022019b8fbbf81b51125ca3414f01dafe36cccfffa506d69bd6e30dee0bab146d86f012102848b41975247e0def1748030ea9304139138ce8408e81ad76b45a78ba59395e7feffffff0230b0e705000000001976a914c7715b9b611889af3c26e03da378b71a22b0cec988aca1a83273000000001976a914e67eab6edf1397dcc1a373cd7999e265b218df8688ac16b81400"
    }, 
    {
      "txid": "69fb97edd07ab0b90cd7b2ee37fe02b8be03d26a505781188cb9a1878abc5b9d",
      "hash": "69fb97edd07ab0b90cd7b2ee37fe02b8be03d26a505781188cb9a1878abc5b9d",
      "version": 2,
      "size": 226,
      "vsize": 226,
      "locktime": 0,
      "vin": [
        {
          "txid": "71b87df443cb54a6822dc827462af438ed3880681b2417ea3f3b5aefb2c54463",
          "vout": 1,
          "scriptSig": {
            "asm": "3045022100dc0d98536920c40800e4307985bc443775f0382ce726e521dfe56ffd1e9fc0fc022075c076131136d0e3e7c94f1f14607104460d82274d29f2d70136d4c5eba78ce2[ALL] 03d390be8847757b8b9f7ebad53e0085d809a924f7ad8d0c44ceb403961eb78c45",
            "hex": "483045022100dc0d98536920c40800e4307985bc443775f0382ce726e521dfe56ffd1e9fc0fc022075c076131136d0e3e7c94f1f14607104460d82274d29f2d70136d4c5eba78ce2012103d390be8847757b8b9f7ebad53e0085d809a924f7ad8d0c44ceb403961eb78c45"
          },
          "sequence": 4294967295
        }
      ],
      "vout": [
        {
          "value": 0.32843978,
          "n": 0,
          "scriptPubKey": {
            "asm": "OP_DUP OP_HASH160 f2fc419f3d833f5dafaf76643c5137683d052ecc OP_EQUALVERIFY OP_CHECKSIG",
            "hex": "76a914f2fc419f3d833f5dafaf76643c5137683d052ecc88ac",
            "reqSigs": 1,
            "type": "pubkeyhash",
            "addresses": [
              "LhNjyiLP98zkhDRv9NbDknTHrQBpX4nhwZ"
            ]
          }
        }, 
        {
          "value": 0.35000000,
          "n": 1,
          "scriptPubKey": {
            "asm": "OP_DUP OP_HASH160 9ea1154679b31af28232af38067976206d4c619a OP_EQUALVERIFY OP_CHECKSIG",
            "hex": "76a9149ea1154679b31af28232af38067976206d4c619a88ac",
            "reqSigs": 1,
            "type": "pubkeyhash",
            "addresses": [
              "LZghzmmYw1J3N3wkuqURBCsP5bkf58y7tX"
            ]
          }
        }
      ],
      "hex": "02000000016344c5b2ef5a3b3fea17241b688038ed38f42a4627c82d82a654cb43f47db871010000006b483045022100dc0d98536920c40800e4307985bc443775f0382ce726e521dfe56ffd1e9fc0fc022075c076131136d0e3e7c94f1f14607104460d82274d29f2d70136d4c5eba78ce2012103d390be8847757b8b9f7ebad53e0085d809a924f7ad8d0c44ceb403961eb78c45ffffffff02ca28f501000000001976a914f2fc419f3d833f5dafaf76643c5137683d052ecc88acc00e1602000000001976a9149ea1154679b31af28232af38067976206d4c619a88ac00000000"
    }, 
    {
      "txid": "830e9b86887c50c36764d6129e3d66a02f164bb978d04e0c3af8e357f225836e",
      "hash": "830e9b86887c50c36764d6129e3d66a02f164bb978d04e0c3af8e357f225836e",
      "version": 1,
      "size": 374,
      "vsize": 374,
      "locktime": 1357847,
      "vin": [
        {
          "txid": "76f89b0903fccc0d6fad14988bb97b794f62b988b445b79a526d6f9c63b1b131",
          "vout": 1,
          "scriptSig": {
            "asm": "3045022100a51de15433d9c49e809bce9fd724ddd23dfb3e63b8687912c2b3e4950469a3f502207443fd9c1af40814e8691e32f07f9d59c2224678c9c8a0701d3dac0ce74d7628[ALL] 034b0b8c1cd822d9194285aff95953c1165e5c796e3d8b5f50695879e1ad94122a",
            "hex": "483045022100a51de15433d9c49e809bce9fd724ddd23dfb3e63b8687912c2b3e4950469a3f502207443fd9c1af40814e8691e32f07f9d59c2224678c9c8a0701d3dac0ce74d76280121034b0b8c1cd822d9194285aff95953c1165e5c796e3d8b5f50695879e1ad94122a"
          },
          "sequence": 4294967294
        }, 
        {
          "txid": "a2e4eac841702470dec8e8aff20a3b5ab509b007b7681a1f2ddec876dce2b918",
          "vout": 46,
          "scriptSig": {
            "asm": "3045022100a21e8481742dbc026084cfcdec02b8c6da5d7cc6e98fc693a877f871b5dfd07102200f70c6d05f2b723b468a4f874ae5f944f5fbad2dc20d6144b34b8d1b5fe2da69[ALL] 02332d8c386694eea23d7b084b72bea1a1632ecc3481d74b1bbe27eaae3e5219e3",
            "hex": "483045022100a21e8481742dbc026084cfcdec02b8c6da5d7cc6e98fc693a877f871b5dfd07102200f70c6d05f2b723b468a4f874ae5f944f5fbad2dc20d6144b34b8d1b5fe2da69012102332d8c386694eea23d7b084b72bea1a1632ecc3481d74b1bbe27eaae3e5219e3"
          },
          "sequence": 4294967294
        }
      ],
      "vout": [
        {
          "value": 0.01007292,
          "n": 0,
          "scriptPubKey": {
            "asm": "OP_DUP OP_HASH160 92b522d89d67bac9b8d23d5672e9807c940f2353 OP_EQUALVERIFY OP_CHECKSIG",
            "hex": "76a91492b522d89d67bac9b8d23d5672e9807c940f235388ac",
            "reqSigs": 1,
            "type": "pubkeyhash",
            "addresses": [
              "LYbfun6eYJfFGawJZSza3zyBFUecKGP1Qx"
            ]
          }
        }, 
        {
          "value": 1.00000000,
          "n": 1,
          "scriptPubKey": {
            "asm": "OP_DUP OP_HASH160 1b487b72a31613974c474f741299688f931f2b46 OP_EQUALVERIFY OP_CHECKSIG",
            "hex": "76a9141b487b72a31613974c474f741299688f931f2b4688ac",
            "reqSigs": 1,
            "type": "pubkeyhash",
            "addresses": [
              "LMiDLYaQMyCWbbLNg8fVd7T7ynEir37Qgp"
            ]
          }
        }
      ],
      "hex": "010000000231b1b1639c6f6d529ab745b488b9624f797bb98b9814ad6f0dccfc03099bf876010000006b483045022100a51de15433d9c49e809bce9fd724ddd23dfb3e63b8687912c2b3e4950469a3f502207443fd9c1af40814e8691e32f07f9d59c2224678c9c8a0701d3dac0ce74d76280121034b0b8c1cd822d9194285aff95953c1165e5c796e3d8b5f50695879e1ad94122afeffffff18b9e2dc76c8de2d1f1a68b707b009b55a3b0af2afe8c8de70247041c8eae4a22e0000006b483045022100a21e8481742dbc026084cfcdec02b8c6da5d7cc6e98fc693a877f871b5dfd07102200f70c6d05f2b723b468a4f874ae5f944f5fbad2dc20d6144b34b8d1b5fe2da69012102332d8c386694eea23d7b084b72bea1a1632ecc3481d74b1bbe27eaae3e5219e3feffffff02bc5e0f00000000001976a91492b522d89d67bac9b8d23d5672e9807c940f235388ac00e1f505000000001976a9141b487b72a31613974c474f741299688f931f2b4688ac17b81400"
    }, 
    {
      "txid": "e288cbec801e30c27c7b85cb8d289e71a72909b26ee8f5c1052e9db3e7233b0f",
      "hash": "e288cbec801e30c27c7b85cb8d289e71a72909b26ee8f5c1052e9db3e7233b0f",
      "version": 1,
      "size": 191,
      "vsize": 191,
      "locktime": 0,
      "vin": [
        {
          "txid": "5740fc07dd520a35c7f70d64e1728a0fa86dbb022642b1c04a5311bdabfa5dd3",
          "vout": 0,
          "scriptSig": {
            "asm": "3044022061bbe22a5371411354123b064caf881c8f904e5e96a1198a75f3f6fe2498daca022049f08d9a15d3e1267f2070cfcffba423c4e4f1c7b2bf786be5858c1dc5105f80[ALL] 03d9646649061366f72878a67037c2fff6c56a879724b0768f6ce03229bcee6db7",
            "hex": "473044022061bbe22a5371411354123b064caf881c8f904e5e96a1198a75f3f6fe2498daca022049f08d9a15d3e1267f2070cfcffba423c4e4f1c7b2bf786be5858c1dc5105f80012103d9646649061366f72878a67037c2fff6c56a879724b0768f6ce03229bcee6db7"
          },
          "sequence": 4294967295
        }
      ],
      "vout": [
        {
          "value": 0.00084484,
          "n": 0,
          "scriptPubKey": {
            "asm": "OP_DUP OP_HASH160 9837df5e2d08fcdc44538521528aac8b70ac29ff OP_EQUALVERIFY OP_CHECKSIG",
            "hex": "76a9149837df5e2d08fcdc44538521528aac8b70ac29ff88ac",
            "reqSigs": 1,
            "type": "pubkeyhash",
            "addresses": [
              "LZ6ouTntBrUBrxUu2ZwHWUtcGPc3U8rka5"
            ]
          }
        }
      ],
      "hex": "0100000001d35dfaabbd11534ac0b1422602bb6da80f8a72e1640df7c7350a52dd07fc4057000000006a473044022061bbe22a5371411354123b064caf881c8f904e5e96a1198a75f3f6fe2498daca022049f08d9a15d3e1267f2070cfcffba423c4e4f1c7b2bf786be5858c1dc5105f80012103d9646649061366f72878a67037c2fff6c56a879724b0768f6ce03229bcee6db7ffffffff01044a0100000000001976a9149837df5e2d08fcdc44538521528aac8b70ac29ff88ac00000000"
    }, 
    {
      "txid": "e49027ed0f7d9b58a125bd6bccb420f5eaeaf332d1411dc6139ce9ea49ba7cd2",
      "hash": "e49027ed0f7d9b58a125bd6bccb420f5eaeaf332d1411dc6139ce9ea49ba7cd2",
      "version": 1,
      "size": 192,
      "vsize": 192,
      "locktime": 0,
      "vin": [
        {
          "txid": "354c213c21f8cb3dec5c345e6fbb54037db8af20e47812a96c09fc66bbb6edad",
          "vout": 1,
          "scriptSig": {
            "asm": "3045022100a26aa8abd711faaa977df71e091d14efae2569b44495af793f83b524b484aedd02200de90cc5444f774ad17383acdb28f0c1714d2d359f8509da6fb1f8b9c51366e7[ALL] 03cbea1a6ee1e50c4910c37096b511ab874cf7cd6d59f85c762d953d0a0447f35d",
            "hex": "483045022100a26aa8abd711faaa977df71e091d14efae2569b44495af793f83b524b484aedd02200de90cc5444f774ad17383acdb28f0c1714d2d359f8509da6fb1f8b9c51366e7012103cbea1a6ee1e50c4910c37096b511ab874cf7cd6d59f85c762d953d0a0447f35d"
          },
          "sequence": 4294967295
        }
      ],
      "vout": [
        {
          "value": 0.05599152,
          "n": 0,
          "scriptPubKey": {
            "asm": "OP_DUP OP_HASH160 3b4ca36554318d4e90a6187972f237dfd6516667 OP_EQUALVERIFY OP_CHECKSIG",
            "hex": "76a9143b4ca36554318d4e90a6187972f237dfd651666788ac",
            "reqSigs": 1,
            "type": "pubkeyhash",
            "addresses": [
              "LQdVwT7SHNRk7JrY4dE9FVXkptuAp1sjT9"
            ]
          }
        }
      ],
      "hex": "0100000001adedb6bb66fc096ca91278e420afb87d0354bb6f5e345cec3dcbf8213c214c35010000006b483045022100a26aa8abd711faaa977df71e091d14efae2569b44495af793f83b524b484aedd02200de90cc5444f774ad17383acdb28f0c1714d2d359f8509da6fb1f8b9c51366e7012103cbea1a6ee1e50c4910c37096b511ab874cf7cd6d59f85c762d953d0a0447f35dffffffff01b06f5500000000001976a9143b4ca36554318d4e90a6187972f237dfd651666788ac00000000"
    }, 
    {
      "txid": "fa7a152666ef4e21826d5d2235c01559366258c682ff93fc88afec8f07f91f09",
      "hash": "fa7a152666ef4e21826d5d2235c01559366258c682ff93fc88afec8f07f91f09",
      "version": 1,
      "size": 225,
      "vsize": 225,
      "locktime": 0,
      "vin": [
        {
          "txid": "b3c54568eb8617017387c913747d49f69364aa5e74b0b4c6f0b4bd6905a17f4f",
          "vout": 2,
          "scriptSig": {
            "asm": "304402207ad065e0c2ee8fefc9c13f5a666557e24d46e32918633ebf32e8fec3bbeb513102203a52856238b5d6e35d6051935727e070afc7aa4208e9cb95b76d6cd65d7b957c[ALL] 0249bedf7fef93b90068a6a32fb767f0e7ce7911af6662b4c7a1736eff0700a4af",
            "hex": "47304402207ad065e0c2ee8fefc9c13f5a666557e24d46e32918633ebf32e8fec3bbeb513102203a52856238b5d6e35d6051935727e070afc7aa4208e9cb95b76d6cd65d7b957c01210249bedf7fef93b90068a6a32fb767f0e7ce7911af6662b4c7a1736eff0700a4af"
          },
          "sequence": 4294967295
        }
      ],
      "vout": [
        {
          "value": 0.08109744,
          "n": 0,
          "scriptPubKey": {
            "asm": "OP_DUP OP_HASH160 dd88bede0801e2888daf0003cca59ad92ede9b89 OP_EQUALVERIFY OP_CHECKSIG",
            "hex": "76a914dd88bede0801e2888daf0003cca59ad92ede9b8988ac",
            "reqSigs": 1,
            "type": "pubkeyhash",
            "addresses": [
              "LfRKQre98gmBR8jxWyXncENWpp8aCK9nQz"
            ]
          }
        }, 
        {
          "value": 0.41316621,
          "n": 1,
          "scriptPubKey": {
            "asm": "OP_DUP OP_HASH160 c89a635db6a8ae22c556381b14284c4111d42231 OP_EQUALVERIFY OP_CHECKSIG",
            "hex": "76a914c89a635db6a8ae22c556381b14284c4111d4223188ac",
            "reqSigs": 1,
            "type": "pubkeyhash",
            "addresses": [
              "LdWeMez7wK49Q8tKLVw2yniPkg53eBRjYW"
            ]
          }
        }
      ],
      "hex": "01000000014f7fa10569bdb4f0c6b4b0745eaa6493f6497d7413c98773011786eb6845c5b3020000006a47304402207ad065e0c2ee8fefc9c13f5a666557e24d46e32918633ebf32e8fec3bbeb513102203a52856238b5d6e35d6051935727e070afc7aa4208e9cb95b76d6cd65d7b957c01210249bedf7fef93b90068a6a32fb767f0e7ce7911af6662b4c7a1736eff0700a4afffffffff02b0be7b00000000001976a914dd88bede0801e2888daf0003cca59ad92ede9b8988ac0d717602000000001976a914c89a635db6a8ae22c556381b14284c4111d4223188ac00000000"
    }, 
    {
      "txid": "77313673d4c6868c190c9cc5ba04e6f921528bcd5c3dad37a0aa7d43548c6623",
      "hash": "77313673d4c6868c190c9cc5ba04e6f921528bcd5c3dad37a0aa7d43548c6623",
      "version": 1,
      "size": 225,
      "vsize": 225,
      "locktime": 0,
      "vin": [
        {
          "txid": "dfb28ff14ae0faca8e4a14d4810f658176ec71860d068a98bd4c32ef2547ee46",
          "vout": 0,
          "scriptSig": {
            "asm": "304402207c56726bc5a770b5e25c4f67c912b5c922196945639d2a17b5ab55c0aaae01560220208eddbe1ddf6f87fdd1c06cdad64ad15d02e0fcd6e28daa3b8e86910c0abca9[ALL] 02cbad3a99551c88b1d0ec3476ff9fc7dc10a1ba3e92aacb24de6faa0fa61fb93c",
            "hex": "47304402207c56726bc5a770b5e25c4f67c912b5c922196945639d2a17b5ab55c0aaae01560220208eddbe1ddf6f87fdd1c06cdad64ad15d02e0fcd6e28daa3b8e86910c0abca9012102cbad3a99551c88b1d0ec3476ff9fc7dc10a1ba3e92aacb24de6faa0fa61fb93c"
          },
          "sequence": 4294967295
        }
      ],
      "vout": [
        {
          "value": 0.04805633,
          "n": 0,
          "scriptPubKey": {
            "asm": "OP_DUP OP_HASH160 989cd8113690e0041d0da34c967cdd2e0c3597c5 OP_EQUALVERIFY OP_CHECKSIG",
            "hex": "76a914989cd8113690e0041d0da34c967cdd2e0c3597c588ac",
            "reqSigs": 1,
            "type": "pubkeyhash",
            "addresses": [
              "LZ8ts5qnpGSD8Tnsf1e991T5Fks3QAGDmW"
            ]
          }
        }, 
        {
          "value": 0.22153500,
          "n": 1,
          "scriptPubKey": {
            "asm": "OP_DUP OP_HASH160 f8a95ab052cb8e790e0d60369d5c618814b566f0 OP_EQUALVERIFY OP_CHECKSIG",
            "hex": "76a914f8a95ab052cb8e790e0d60369d5c618814b566f088ac",
            "reqSigs": 1,
            "type": "pubkeyhash",
            "addresses": [
              "Lhtkij71tB1rHi3C1Bmh48jeiLropFsn34"
            ]
          }
        }
      ],
      "hex": "010000000146ee4725ef324cbd988a060d8671ec7681650f81d4144a8ecafae04af18fb2df000000006a47304402207c56726bc5a770b5e25c4f67c912b5c922196945639d2a17b5ab55c0aaae01560220208eddbe1ddf6f87fdd1c06cdad64ad15d02e0fcd6e28daa3b8e86910c0abca9012102cbad3a99551c88b1d0ec3476ff9fc7dc10a1ba3e92aacb24de6faa0fa61fb93cffffffff0201544900000000001976a914989cd8113690e0041d0da34c967cdd2e0c3597c588ac1c095201000000001976a914f8a95ab052cb8e790e0d60369d5c618814b566f088ac00000000"
    }, 
    {
      "txid": "a7a94c66d52e8e3852f08896403ed3adf6d91ddfc905886595ec8e173ea14189",
      "hash": "a7a94c66d52e8e3852f08896403ed3adf6d91ddfc905886595ec8e173ea14189",
      "version": 1,
      "size": 225,
      "vsize": 225,
      "locktime": 0,
      "vin": [
        {
          "txid": "63d416d0f67566c15b51ac3677df747753091c77670061ebc4e0cbd20ed7a480",
          "vout": 1,
          "scriptSig": {
            "asm": "304402207db76125b12b1ba763293c5eb80e54a31e280b3da597a6e9871300bf19db104e02200ee00c85ad17541af1500295ee880fafa8822e93603a5632102b8569aa8ceb6a[ALL] 03d125bd312ccfeea4fb22f1b155e1991dfda8649d96d18ac4811ed2842691b579",
            "hex": "47304402207db76125b12b1ba763293c5eb80e54a31e280b3da597a6e9871300bf19db104e02200ee00c85ad17541af1500295ee880fafa8822e93603a5632102b8569aa8ceb6a012103d125bd312ccfeea4fb22f1b155e1991dfda8649d96d18ac4811ed2842691b579"
          },
          "sequence": 4294967295
        }
      ],
      "vout": [
        {
          "value": 2.93490636,
          "n": 0,
          "scriptPubKey": {
            "asm": "OP_DUP OP_HASH160 a9214c6c5af7b6ee8c074c6eae381cb0a5c8dc06 OP_EQUALVERIFY OP_CHECKSIG",
            "hex": "76a914a9214c6c5af7b6ee8c074c6eae381cb0a5c8dc0688ac",
            "reqSigs": 1,
            "type": "pubkeyhash",
            "addresses": [
              "LaeEMFix24Hio9k3hjBc8vJuPDzUydVYAU"
            ]
          }
        }, 
        {
          "value": 1.79977400,
          "n": 1,
          "scriptPubKey": {
            "asm": "OP_DUP OP_HASH160 3d6f0ae5157e37d27991b515d63e824d1cfe9967 OP_EQUALVERIFY OP_CHECKSIG",
            "hex": "76a9143d6f0ae5157e37d27991b515d63e824d1cfe996788ac",
            "reqSigs": 1,
            "type": "pubkeyhash",
            "addresses": [
              "LQpnWHbFii9WevLi2swHgiX9FVKbiuPeKG"
            ]
          }
        }
      ],
      "hex": "010000000180a4d70ed2cbe0c4eb610067771c09537774df7736ac515bc16675f6d016d463010000006a47304402207db76125b12b1ba763293c5eb80e54a31e280b3da597a6e9871300bf19db104e02200ee00c85ad17541af1500295ee880fafa8822e93603a5632102b8569aa8ceb6a012103d125bd312ccfeea4fb22f1b155e1991dfda8649d96d18ac4811ed2842691b579ffffffff02cc4f7e11000000001976a914a9214c6c5af7b6ee8c074c6eae381cb0a5c8dc0688acb83cba0a000000001976a9143d6f0ae5157e37d27991b515d63e824d1cfe996788ac00000000"
    }, 
    {
      "txid": "49010b89394cc0563478feba78832793de9f60fccf8c0938ead82be54fab1e9b",
      "hash": "49010b89394cc0563478feba78832793de9f60fccf8c0938ead82be54fab1e9b",
      "version": 1,
      "size": 225,
      "vsize": 225,
      "locktime": 0,
      "vin": [
        {
          "txid": "fdf2a29e0463ee1e32304318217477c32b0f31baf01938d7dff6728a10dcecb3",
          "vout": 0,
          "scriptSig": {
            "asm": "3044022041a776c058f76c585c22fd37aaeb2de9820f22b4f9ace8fdded19b8705ca8dcc02201221b1fd69d909486a54edd750e07fe21499b77aa6da5fe2efd6d06d0b9b7d85[ALL] 03720bd3ce94f43b836be58c829494c94ffbaacbfebcf0cab4b56ddeada0b2c8ae",
            "hex": "473044022041a776c058f76c585c22fd37aaeb2de9820f22b4f9ace8fdded19b8705ca8dcc02201221b1fd69d909486a54edd750e07fe21499b77aa6da5fe2efd6d06d0b9b7d85012103720bd3ce94f43b836be58c829494c94ffbaacbfebcf0cab4b56ddeada0b2c8ae"
          },
          "sequence": 4294967295
        }
      ],
      "vout": [
        {
          "value": 0.16733047,
          "n": 0,
          "scriptPubKey": {
            "asm": "OP_DUP OP_HASH160 8bcd9849462e2422f55d8d35f08af08f6af6ebd5 OP_EQUALVERIFY OP_CHECKSIG",
            "hex": "76a9148bcd9849462e2422f55d8d35f08af08f6af6ebd588ac",
            "reqSigs": 1,
            "type": "pubkeyhash",
            "addresses": [
              "LXyAUrnxwBd9FpqFmfoCvTmKkwwzU29ZGs"
            ]
          }
        }, 
        {
          "value": 0.33221753,
          "n": 1,
          "scriptPubKey": {
            "asm": "OP_DUP OP_HASH160 9f309b7234c21eb750d64191efa9fbd13902ac36 OP_EQUALVERIFY OP_CHECKSIG",
            "hex": "76a9149f309b7234c21eb750d64191efa9fbd13902ac3688ac",
            "reqSigs": 1,
            "type": "pubkeyhash",
            "addresses": [
              "LZjfw161VvM877rQKbsQ3nDf8jECTtSGHb"
            ]
          }
        }
      ],
      "hex": "0100000001b3ecdc108a72f6dfd73819f0ba310f2bc3777421184330321eee63049ea2f2fd000000006a473044022041a776c058f76c585c22fd37aaeb2de9820f22b4f9ace8fdded19b8705ca8dcc02201221b1fd69d909486a54edd750e07fe21499b77aa6da5fe2efd6d06d0b9b7d85012103720bd3ce94f43b836be58c829494c94ffbaacbfebcf0cab4b56ddeada0b2c8aeffffffff027753ff00000000001976a9148bcd9849462e2422f55d8d35f08af08f6af6ebd588ac79ecfa01000000001976a9149f309b7234c21eb750d64191efa9fbd13902ac3688ac00000000"
    }, 
    {
      "txid": "538c4ee7da38e85a06b898d67856bec91b3b8ce7099fe19326aeb8c469fd0cec",
      "hash": "538c4ee7da38e85a06b898d67856bec91b3b8ce7099fe19326aeb8c469fd0cec",
      "version": 1,
      "size": 225,
      "vsize": 225,
      "locktime": 0,
      "vin": [
        {
          "txid": "dcdbd1dd9ba5d6248d789d47cc881324429bb98e384dfdd969837f46514af7a7",
          "vout": 0,
          "scriptSig": {
            "asm": "304402200a5f69172b5bc0483fd4917ba8d02709827acf0d44a257dd852c12460202aa4d02201bdc466417ceb6e28475a66835cfc8b0598ebec85f8d52e97437f747972fc4fc[ALL] 0392524e39cdd7160a80e5fff003ae92e8ead9e9c1ee981c292cd7853c5f4fb725",
            "hex": "47304402200a5f69172b5bc0483fd4917ba8d02709827acf0d44a257dd852c12460202aa4d02201bdc466417ceb6e28475a66835cfc8b0598ebec85f8d52e97437f747972fc4fc01210392524e39cdd7160a80e5fff003ae92e8ead9e9c1ee981c292cd7853c5f4fb725"
          },
          "sequence": 4294967295
        }
      ],
      "vout": [
        {
          "value": 0.13721513,
          "n": 0,
          "scriptPubKey": {
            "asm": "OP_DUP OP_HASH160 9cff633818806d6d6b50b597cb5df5ce7c2fad32 OP_EQUALVERIFY OP_CHECKSIG",
            "hex": "76a9149cff633818806d6d6b50b597cb5df5ce7c2fad3288ac",
            "reqSigs": 1,
            "type": "pubkeyhash",
            "addresses": [
              "LZY5cn6ZqoWtiBFHELYxdJGrh7bfZxd5cK"
            ]
          }
        }, 
        {
          "value": 0.36000000,
          "n": 1,
          "scriptPubKey": {
            "asm": "OP_DUP OP_HASH160 9676e2547984051869d7d689dc8fbb74792364f4 OP_EQUALVERIFY OP_CHECKSIG",
            "hex": "76a9149676e2547984051869d7d689dc8fbb74792364f488ac",
            "reqSigs": 1,
            "type": "pubkeyhash",
            "addresses": [
              "LYwY3CYEthA4wMJawLFnL1hDioKwsnp5F4"
            ]
          }
        }
      ],
      "hex": "0100000001a7f74a51467f8369d9fd4d388eb99b42241388cc479d788d24d6a59bddd1dbdc000000006a47304402200a5f69172b5bc0483fd4917ba8d02709827acf0d44a257dd852c12460202aa4d02201bdc466417ceb6e28475a66835cfc8b0598ebec85f8d52e97437f747972fc4fc01210392524e39cdd7160a80e5fff003ae92e8ead9e9c1ee981c292cd7853c5f4fb725ffffffff02a95fd100000000001976a9149cff633818806d6d6b50b597cb5df5ce7c2fad3288ac00512502000000001976a9149676e2547984051869d7d689dc8fbb74792364f488ac00000000"
    }, 
    {
      "txid": "5e93c0b5eb7aae6f6fc2264b0bf33d0bcc4a4b7adc646c0ea7c198ccfaab1453",
      "hash": "5e93c0b5eb7aae6f6fc2264b0bf33d0bcc4a4b7adc646c0ea7c198ccfaab1453",
      "version": 1,
      "size": 226,
      "vsize": 226,
      "locktime": 0,
      "vin": [
        {
          "txid": "7b26bcdf5a295ce5848841c6623832c7a6402b87e1cd9201b9f9f5363916225e",
          "vout": 0,
          "scriptSig": {
            "asm": "3045022100ebfebbf0a1cdaa938a0e85762c0866acbfaeb85eaa57cb726f3d2890178b5cd002204280bd5004c6648aff4c2b896d05a040cf4bfc6bf2a2a6df18507037bfae6863[ALL] 0364125a33fabf7bf6d1814b7bfcab921abf0317bd146a522e1cc0c6e69c2d84c3",
            "hex": "483045022100ebfebbf0a1cdaa938a0e85762c0866acbfaeb85eaa57cb726f3d2890178b5cd002204280bd5004c6648aff4c2b896d05a040cf4bfc6bf2a2a6df18507037bfae686301210364125a33fabf7bf6d1814b7bfcab921abf0317bd146a522e1cc0c6e69c2d84c3"
          },
          "sequence": 4294967295
        }
      ],
      "vout": [
        {
          "value": 0.07158380,
          "n": 0,
          "scriptPubKey": {
            "asm": "OP_DUP OP_HASH160 7d37c4a7470da9f219ca0702793afa8b7dde6141 OP_EQUALVERIFY OP_CHECKSIG",
            "hex": "76a9147d37c4a7470da9f219ca0702793afa8b7dde614188ac",
            "reqSigs": 1,
            "type": "pubkeyhash",
            "addresses": [
              "LWe3Y2rJreXCYLTPyF2u56tiJXoY8MCq25"
            ]
          }
        }, 
        {
          "value": 0.42096420,
          "n": 1,
          "scriptPubKey": {
            "asm": "OP_DUP OP_HASH160 03f2bbc3e2a2c2ec37ac7d591b218a681d213451 OP_EQUALVERIFY OP_CHECKSIG",
            "hex": "76a91403f2bbc3e2a2c2ec37ac7d591b218a681d21345188ac",
            "reqSigs": 1,
            "type": "pubkeyhash",
            "addresses": [
              "LKaq5CqG2RntpfSgTX7hBQhtwNLQXbKZBG"
            ]
          }
        }
      ],
      "hex": "01000000015e22163936f5f9b90192cde1872b40a6c7323862c6418884e55c295adfbc267b000000006b483045022100ebfebbf0a1cdaa938a0e85762c0866acbfaeb85eaa57cb726f3d2890178b5cd002204280bd5004c6648aff4c2b896d05a040cf4bfc6bf2a2a6df18507037bfae686301210364125a33fabf7bf6d1814b7bfcab921abf0317bd146a522e1cc0c6e69c2d84c3ffffffff026c3a6d00000000001976a9147d37c4a7470da9f219ca0702793afa8b7dde614188ac24578202000000001976a91403f2bbc3e2a2c2ec37ac7d591b218a681d21345188ac00000000"
    }, 
    {
      "txid": "cb98e169d708bd615e804e503a09c69865057abeaa003316a50e2caab4a45068",
      "hash": "cb98e169d708bd615e804e503a09c69865057abeaa003316a50e2caab4a45068",
      "version": 2,
      "size": 522,
      "vsize": 522,
      "locktime": 1357756,
      "vin": [
        {
          "txid": "7357221bc8a05ffe63033b09df8006b3e2e666c3c47759d844ec904ab908970d",
          "vout": 1,
          "scriptSig": {
            "asm": "3045022100d1e0c2d7485a06b7a2c210a2720fd0057b71c4d594720f0171fcd67b15ec95bd0220473f2278dd14f43d89d93af6689f0913ebf3446ecf14f396f95ca2cdf20dd7fa[ALL] 038c96161e7943d6206f1948bb718b10528e30d371f96aae55d7d7d99bff38d904",
            "hex": "483045022100d1e0c2d7485a06b7a2c210a2720fd0057b71c4d594720f0171fcd67b15ec95bd0220473f2278dd14f43d89d93af6689f0913ebf3446ecf14f396f95ca2cdf20dd7fa0121038c96161e7943d6206f1948bb718b10528e30d371f96aae55d7d7d99bff38d904"
          },
          "sequence": 4294967294
        }, 
        {
          "txid": "d1b13950634d029987f15818d277ed862f6a3d910c81bfcb45fec0eadd66eccd",
          "vout": 1,
          "scriptSig": {
            "asm": "3045022100eda8f818024c7c657ddfb2c0288d243d79ea8dc2a3845430bb45d86375ba19710220073010cb59e704b40b6529750187734015e2c2ffc2461f4c05d82dce63c74779[ALL] 02953f637483052e0466f4385d40d6a0a85afac78e6d73a10528a44ea16ad2a2a0",
            "hex": "483045022100eda8f818024c7c657ddfb2c0288d243d79ea8dc2a3845430bb45d86375ba19710220073010cb59e704b40b6529750187734015e2c2ffc2461f4c05d82dce63c74779012102953f637483052e0466f4385d40d6a0a85afac78e6d73a10528a44ea16ad2a2a0"
          },
          "sequence": 4294967294
        }, 
        {
          "txid": "73a13a5505720f54515a852dabdd050e315ad0597203bc575bf09ef5a10ddc5d",
          "vout": 1,
          "scriptSig": {
            "asm": "30450221008206550eaa051daecbce3aa2212831b0d6250a690ab4b5ba1c33b18ba4b006360220611af923e0c9c1d4496a46befa3f853a4f08a32de4967f4f7cd050b7a5d553ff[ALL] 037550710f62e752bef87d86f913179d1a9a9b3b31ca958a4ad4120da92f9ac389",
            "hex": "4830450221008206550eaa051daecbce3aa2212831b0d6250a690ab4b5ba1c33b18ba4b006360220611af923e0c9c1d4496a46befa3f853a4f08a32de4967f4f7cd050b7a5d553ff0121037550710f62e752bef87d86f913179d1a9a9b3b31ca958a4ad4120da92f9ac389"
          },
          "sequence": 4294967294
        }
      ],
      "vout": [
        {
          "value": 0.22612166,
          "n": 0,
          "scriptPubKey": {
            "asm": "OP_DUP OP_HASH160 bec9c4841d52ec18defe4ad8256c2717c92865bf OP_EQUALVERIFY OP_CHECKSIG",
            "hex": "76a914bec9c4841d52ec18defe4ad8256c2717c92865bf88ac",
            "reqSigs": 1,
            "type": "pubkeyhash",
            "addresses": [
              "LcckMiqv3iyp8VcJ5EWnAf9aEFiYF76jkJ"
            ]
          }
        }, 
        {
          "value": 0.02949801,
          "n": 1,
          "scriptPubKey": {
            "asm": "OP_DUP OP_HASH160 d2689ca341ba5753920bd7fa535af59fe6caa7c0 OP_EQUALVERIFY OP_CHECKSIG",
            "hex": "76a914d2689ca341ba5753920bd7fa535af59fe6caa7c088ac",
            "reqSigs": 1,
            "type": "pubkeyhash",
            "addresses": [
              "LeQVV4GxXAy4BFhy4KuUKr8TtxX9ag8hwq"
            ]
          }
        }
      ],
      "hex": "02000000030d9708b94a90ec44d85977c4c366e6e2b30680df093b0363fe5fa0c81b225773010000006b483045022100d1e0c2d7485a06b7a2c210a2720fd0057b71c4d594720f0171fcd67b15ec95bd0220473f2278dd14f43d89d93af6689f0913ebf3446ecf14f396f95ca2cdf20dd7fa0121038c96161e7943d6206f1948bb718b10528e30d371f96aae55d7d7d99bff38d904feffffffcdec66ddeac0fe45cbbf810c913d6a2f86ed77d21858f18799024d635039b1d1010000006b483045022100eda8f818024c7c657ddfb2c0288d243d79ea8dc2a3845430bb45d86375ba19710220073010cb59e704b40b6529750187734015e2c2ffc2461f4c05d82dce63c74779012102953f637483052e0466f4385d40d6a0a85afac78e6d73a10528a44ea16ad2a2a0feffffff5ddc0da1f59ef05b57bc037259d05a310e05ddab2d855a51540f7205553aa173010000006b4830450221008206550eaa051daecbce3aa2212831b0d6250a690ab4b5ba1c33b18ba4b006360220611af923e0c9c1d4496a46befa3f853a4f08a32de4967f4f7cd050b7a5d553ff0121037550710f62e752bef87d86f913179d1a9a9b3b31ca958a4ad4120da92f9ac389feffffff02c6085901000000001976a914bec9c4841d52ec18defe4ad8256c2717c92865bf88aca9022d00000000001976a914d2689ca341ba5753920bd7fa535af59fe6caa7c088acbcb71400"
    }
  ],
  "time": 1517056639,
  "mediantime": 1517056231,
  "nonce": 477189273,
  "bits": "1a047f14",
  "difficulty": 3731199.183374282,
  "chainwork": "00000000000000000000000000000000000000000000003295261528628519be",
  "previousblockhash": "ed3cedd42c3e5796a2a41c5233d3fc667b14a0ed139728f721c1eeeaf7fcae01",
  "nextblockhash": "3a712e3c018744a420eb64c47b71446dd1411810699b70708a172a5c2d2d31d1"
}
