{
  "hash": "a0d9dd5ad1b2b033c4daaaf4d392db9c268e3512e61b5b4b693741590a25bf63",
  "confirmations": 203,
  "strippedsize": 255,
  "size": 255,
  "weight": 1020,
  "height": 1360791,
  "version": 536870912,
  "versionHex": "20000000",
  "merkleroot": "09079f41e846bf35a19063494ac0ba72b8b17db6f2f19759920bbcb56a793728",
  "tx": [
    {
      "txid": "09079f41e846bf35a19063494ac0ba72b8b17db6f2f19759920bbcb56a793728",
      "hash": "09079f41e846bf35a19063494ac0ba72b8b17db6f2f19759920bbcb56a793728",
      "version": 1,
      "size": 174,
      "vsize": 174,
      "locktime": 0,
      "vin": [
        {
          "coinbase": "0397c3141c4d696e656420627920416e74506f6f6c20626a3532205a72efb50649fabe6d6dbcdce696fb62f93a1397be634cdf4daa18de3561361d775b696492b47928ac7d04000000000000003f1700000000000010000000",
          "sequence": 4294967295
        }
      ],
      "vout": [
        {
          "value": 25.00000000,
          "n": 0,
          "scriptPubKey": {
            "asm": "OP_DUP OP_HASH160 0ff3ccc5e8be88afe24b5d634e5852d474dbdff1 OP_EQUALVERIFY OP_CHECKSIG",
            "hex": "76a9140ff3ccc5e8be88afe24b5d634e5852d474dbdff188ac",
            "reqSigs": 1,
            "type": "pubkeyhash",
            "addresses": [
              "LLgJTbzZMsRTCUF1NtvvL9SR1a4pVieW89"
            ]
          }
        }
      ],
      "hex": "01000000010000000000000000000000000000000000000000000000000000000000000000ffffffff590397c3141c4d696e656420627920416e74506f6f6c20626a3532205a72efb50649fabe6d6dbcdce696fb62f93a1397be634cdf4daa18de3561361d775b696492b47928ac7d04000000000000003f1700000000000010000000ffffffff0100f90295000000001976a9140ff3ccc5e8be88afe24b5d634e5852d474dbdff188ac00000000"
    }
  ],
  "time": 1517481909,
  "mediantime": 1517481146,
  "nonce": 1149140128,
  "bits": "1a042eae",
  "difficulty": 4011378.762614286,
  "chainwork": "00000000000000000000000000000000000000000000003544c308f6c1413830",
  "previousblockhash": "0705ff3a3ddcfca68cbfd004d587708d5f03a8ea4078dc7a252fada025cb610b",
  "nextblockhash": "c00808d01ae1dc0d2fb0a27315786eaab4338e6204552fa7c3068789f4ad634a"
}
