{
  "hash": "a1353980815e932c6a9ab08a8c75e00a34750a9ba0d55830f44c2d03c5da83dd",
  "confirmations": 1889,
  "strippedsize": 1776,
  "size": 1812,
  "weight": 7140,
  "height": 1359105,
  "version": 536870912,
  "versionHex": "20000000",
  "merkleroot": "b97101b7cc9e07bc621e8896b47339b84ee2f5449350ac0c8e59ea43aec5f563",
  "tx": [
    {
      "txid": "dff9b5160fac5341e057188446a6b87335cec56db97b97123448b03a05da2a15",
      "hash": "24f6e97b8bec9096bc1b316081e4480d1e84508a90068de008903aeaf1a956da",
      "version": 1,
      "size": 277,
      "vsize": 250,
      "locktime": 956899771,
      "vin": [
        {
          "coinbase": "0301bd142cfabe6d6d37c628ea76ec2c414fa474c4b40c0301b9b786370b3dc93df535e82d4d58ec3d08000000f09f909f134d696e6564206279206c74637465737473756200000000000000000000000000000000000000000000000000000000000000",
          "sequence": 305
        }
      ],
      "vout": [
        {
          "value": 25.00290462,
          "n": 0,
          "scriptPubKey": {
            "asm": "OP_DUP OP_HASH160 aa3750aa18b8a0f3f0590731e1fab934856680cf OP_EQUALVERIFY OP_CHECKSIG",
            "hex": "76a914aa3750aa18b8a0f3f0590731e1fab934856680cf88ac",
            "reqSigs": 1,
            "type": "pubkeyhash",
            "addresses": [
              "LajyQBeZaBA1NkZDeY8YT5RYYVRkXMvb2T"
            ]
          }
        }, 
        {
          "value": 0.00000000,
          "n": 1,
          "scriptPubKey": {
            "asm": "OP_RETURN aa21a9edf227d72f54904217fc3f7e88f1aa22cb085ab50ca03707fa6917739209d8a4df 0000000000000000",
            "hex": "6a24aa21a9edf227d72f54904217fc3f7e88f1aa22cb085ab50ca03707fa6917739209d8a4df080000000000000000",
            "type": "nulldata"
          }
        }
      ],
      "hex": "010000000001010000000000000000000000000000000000000000000000000000000000000000ffffffff640301bd142cfabe6d6d37c628ea76ec2c414fa474c4b40c0301b9b786370b3dc93df535e82d4d58ec3d08000000f09f909f134d696e6564206279206c7463746573747375620000000000000000000000000000000000000000000000000000000000000031010000029e670795000000001976a914aa3750aa18b8a0f3f0590731e1fab934856680cf88ac00000000000000002f6a24aa21a9edf227d72f54904217fc3f7e88f1aa22cb085ab50ca03707fa6917739209d8a4df08000000000000000001200000000000000000000000000000000000000000000000000000000000000000bb210939"
    }, 
    {
      "txid": "0c397bc01b35ce092b89202619f97648e1b6111dc0093c26e998a5f05d051467",
      "hash": "0c397bc01b35ce092b89202619f97648e1b6111dc0093c26e998a5f05d051467",
      "version": 1,
      "size": 226,
      "vsize": 226,
      "locktime": 0,
      "vin": [
        {
          "txid": "904b76222a450f9a1a5cee098649a9463f9d972a542702cae2749cc119016ff7",
          "vout": 1,
          "scriptSig": {
            "asm": "3045022100e941ece462f019dc3949f80b25a09422199e7e67fa24423ab87f5d8374309ce802201a91c2306ca14e0150c2c7396dee7011367fbb4139e2e848c0a424d9cf4aae28[ALL] 02d3592217745bc273d1d724c4183db9dc2aaf6a8349969c6dc20ad5ed3f47875e",
            "hex": "483045022100e941ece462f019dc3949f80b25a09422199e7e67fa24423ab87f5d8374309ce802201a91c2306ca14e0150c2c7396dee7011367fbb4139e2e848c0a424d9cf4aae28012102d3592217745bc273d1d724c4183db9dc2aaf6a8349969c6dc20ad5ed3f47875e"
          },
          "sequence": 4294967295
        }
      ],
      "vout": [
        {
          "value": 0.05000000,
          "n": 0,
          "scriptPubKey": {
            "asm": "OP_DUP OP_HASH160 a017d37e9a0aac54514bb0f4f6bbbf72aa655d6d OP_EQUALVERIFY OP_CHECKSIG",
            "hex": "76a914a017d37e9a0aac54514bb0f4f6bbbf72aa655d6d88ac",
            "reqSigs": 1,
            "type": "pubkeyhash",
            "addresses": [
              "LZpSvNkaxc6gY92rK2Q1NfWasABvRNZLzC"
            ]
          }
        }, 
        {
          "value": 0.23900000,
          "n": 1,
          "scriptPubKey": {
            "asm": "OP_DUP OP_HASH160 7b142340b7689bc35d7759cd7bd1850daaa2da76 OP_EQUALVERIFY OP_CHECKSIG",
            "hex": "76a9147b142340b7689bc35d7759cd7bd1850daaa2da7688ac",
            "reqSigs": 1,
            "type": "pubkeyhash",
            "addresses": [
              "LWSjVzyyyGrhkXAks8XTKdizkNeLL5bWET"
            ]
          }
        }
      ],
      "hex": "0100000001f76f0119c19c74e2ca0227542a979d3f46a9498609ee5c1a9a0f452a22764b90010000006b483045022100e941ece462f019dc3949f80b25a09422199e7e67fa24423ab87f5d8374309ce802201a91c2306ca14e0150c2c7396dee7011367fbb4139e2e848c0a424d9cf4aae28012102d3592217745bc273d1d724c4183db9dc2aaf6a8349969c6dc20ad5ed3f47875effffffff02404b4c00000000001976a914a017d37e9a0aac54514bb0f4f6bbbf72aa655d6d88ac60af6c01000000001976a9147b142340b7689bc35d7759cd7bd1850daaa2da7688ac00000000"
    }, 
    {
      "txid": "d9ada663f65eed4fe2fda4e8349103be70b47c478543a2bd1f94af39d638e0ce",
      "hash": "d9ada663f65eed4fe2fda4e8349103be70b47c478543a2bd1f94af39d638e0ce",
      "version": 1,
      "size": 325,
      "vsize": 325,
      "locktime": 0,
      "vin": [
        {
          "txid": "71b259e7aa9eb9bc66bf6efbe1d991dfe6861eae4f444e839e0a686fdac9e2bc",
          "vout": 1,
          "scriptSig": {
            "asm": "3044022038c94b38b57ae418f505895911a23fdb69ab10a6d8fb01212f59cefe75c00545022055b34b429b5ee1d3dfda0bb7deb42fb582a11028fde0deec7e07e3246bd0a299[ALL] 0328c9ae635abf580c261c44815dc1aac309e16ff26250525b7e99951369d2b8c7",
            "hex": "473044022038c94b38b57ae418f505895911a23fdb69ab10a6d8fb01212f59cefe75c00545022055b34b429b5ee1d3dfda0bb7deb42fb582a11028fde0deec7e07e3246bd0a29901210328c9ae635abf580c261c44815dc1aac309e16ff26250525b7e99951369d2b8c7"
          },
          "sequence": 4294967295
        }
      ],
      "vout": [
        {
          "value": 0.02000000,
          "n": 0,
          "scriptPubKey": {
            "asm": "OP_DUP OP_HASH160 83cf79addea85c0d76f2a2d7f27097a19036dd19 OP_EQUALVERIFY OP_CHECKSIG",
            "hex": "76a91483cf79addea85c0d76f2a2d7f27097a19036dd1988ac",
            "reqSigs": 1,
            "type": "pubkeyhash",
            "addresses": [
              "LXEuKyo1XksRuzm3ZfoToNd6eeBBfPPMim"
            ]
          }
        }, 
        {
          "value": 0.19450000,
          "n": 1,
          "scriptPubKey": {
            "asm": "OP_HASH160 2e85890db25995767221bdd7f2a3311b518260ab OP_EQUAL",
            "hex": "a9142e85890db25995767221bdd7f2a3311b518260ab87",
            "reqSigs": 1,
            "type": "scripthash",
            "addresses": [
              "MC99HTJFsponkwDm1zrNcPWbQ17ZHXJuYN"
            ]
          }
        }, 
        {
          "value": 1.11575906,
          "n": 2,
          "scriptPubKey": {
            "asm": "OP_DUP OP_HASH160 bf626a6601140a4ea3c8c80993cf083531c498c8 OP_EQUALVERIFY OP_CHECKSIG",
            "hex": "76a914bf626a6601140a4ea3c8c80993cf083531c498c888ac",
            "reqSigs": 1,
            "type": "pubkeyhash",
            "addresses": [
              "LcfuDtZEGygbUFLVSTfzcT18JyfKufusx4"
            ]
          }
        }, 
        {
          "value": 10.85000000,
          "n": 3,
          "scriptPubKey": {
            "asm": "OP_DUP OP_HASH160 eb8ba276bd6af167db0f259c397289ea0b8fef42 OP_EQUALVERIFY OP_CHECKSIG",
            "hex": "76a914eb8ba276bd6af167db0f259c397289ea0b8fef4288ac",
            "reqSigs": 1,
            "type": "pubkeyhash",
            "addresses": [
              "LghQLH1uPNNdAPYsnq3YxMsGNKVkzqCdk5"
            ]
          }
        }, 
        {
          "value": 25.97202970,
          "n": 4,
          "scriptPubKey": {
            "asm": "OP_DUP OP_HASH160 c6e3836c2f4cd8f9c53e32813ded99ac0ce001f1 OP_EQUALVERIFY OP_CHECKSIG",
            "hex": "76a914c6e3836c2f4cd8f9c53e32813ded99ac0ce001f188ac",
            "reqSigs": 1,
            "type": "pubkeyhash",
            "addresses": [
              "LdMac6qdwFnBCVXN96dvoPjzbcE36gzs64"
            ]
          }
        }
      ],
      "hex": "0100000001bce2c9da6f680a9e834e444fae1e86e6df91d9e1fb6ebf66bcb99eaae759b271010000006a473044022038c94b38b57ae418f505895911a23fdb69ab10a6d8fb01212f59cefe75c00545022055b34b429b5ee1d3dfda0bb7deb42fb582a11028fde0deec7e07e3246bd0a29901210328c9ae635abf580c261c44815dc1aac309e16ff26250525b7e99951369d2b8c7ffffffff0580841e00000000001976a91483cf79addea85c0d76f2a2d7f27097a19036dd1988ac90c828010000000017a9142e85890db25995767221bdd7f2a3311b518260ab876283a606000000001976a914bf626a6601140a4ea3c8c80993cf083531c498c888ac40c9ab40000000001976a914eb8ba276bd6af167db0f259c397289ea0b8fef4288ac1a2cce9a000000001976a914c6e3836c2f4cd8f9c53e32813ded99ac0ce001f188ac00000000"
    }, 
    {
      "txid": "39c8fd483173ab4bc6ffaa4908287fdd88dec34a0098523df8eb20b894415a85",
      "hash": "39c8fd483173ab4bc6ffaa4908287fdd88dec34a0098523df8eb20b894415a85",
      "version": 2,
      "size": 225,
      "vsize": 225,
      "locktime": 1359103,
      "vin": [
        {
          "txid": "41e735dbe32c86852899963b66e27fb9be7fcf8125def8a3a0f614bbbd0c08d6",
          "vout": 1,
          "scriptSig": {
            "asm": "304402200edc981dcd57ff4e888738cbaa39465a7cd717c16809705af401f729c8f6c10d02200793a23c8fd4cbaa0991ad06039475559ba2af66286e6b3816fd2469bf076e26[ALL] 02739bb2867a5b0d95c40ad4cc29c036cb74a743d2f8107ef7705f0d754363b089",
            "hex": "47304402200edc981dcd57ff4e888738cbaa39465a7cd717c16809705af401f729c8f6c10d02200793a23c8fd4cbaa0991ad06039475559ba2af66286e6b3816fd2469bf076e26012102739bb2867a5b0d95c40ad4cc29c036cb74a743d2f8107ef7705f0d754363b089"
          },
          "sequence": 4294967294
        }
      ],
      "vout": [
        {
          "value": 0.07252637,
          "n": 0,
          "scriptPubKey": {
            "asm": "OP_DUP OP_HASH160 7baf3e82f795494d2bce4c331f9107a89d2c0d50 OP_EQUALVERIFY OP_CHECKSIG",
            "hex": "76a9147baf3e82f795494d2bce4c331f9107a89d2c0d5088ac",
            "reqSigs": 1,
            "type": "pubkeyhash",
            "addresses": [
              "LWVwJzEimwXF5PRLvHu64eYwrw237tehLv"
            ]
          }
        }, 
        {
          "value": 0.14467000,
          "n": 1,
          "scriptPubKey": {
            "asm": "OP_DUP OP_HASH160 9b94a0a6d4f3a0eb4ac4b9fbb7fc10374e805349 OP_EQUALVERIFY OP_CHECKSIG",
            "hex": "76a9149b94a0a6d4f3a0eb4ac4b9fbb7fc10374e80534988ac",
            "reqSigs": 1,
            "type": "pubkeyhash",
            "addresses": [
              "LZQb3mbKwdq95iMEsBm67M6QELB5tNXst4"
            ]
          }
        }
      ],
      "hex": "0200000001d6080cbdbb14f6a0a3f8de2581cf7fbeb97fe2663b96992885862ce3db35e741010000006a47304402200edc981dcd57ff4e888738cbaa39465a7cd717c16809705af401f729c8f6c10d02200793a23c8fd4cbaa0991ad06039475559ba2af66286e6b3816fd2469bf076e26012102739bb2867a5b0d95c40ad4cc29c036cb74a743d2f8107ef7705f0d754363b089feffffff029daa6e00000000001976a9147baf3e82f795494d2bce4c331f9107a89d2c0d5088acb8bfdc00000000001976a9149b94a0a6d4f3a0eb4ac4b9fbb7fc10374e80534988acffbc1400"
    }, 
    {
      "txid": "1c9a7bed7bbcffc89170aa5de0d83860c58fe68efa5e12fa52138e01b89b6732",
      "hash": "1c9a7bed7bbcffc89170aa5de0d83860c58fe68efa5e12fa52138e01b89b6732",
      "version": 1,
      "size": 226,
      "vsize": 226,
      "locktime": 0,
      "vin": [
        {
          "txid": "fe5c42fb3005b7d806115573e14556b026bcc2bac56637b91b56f708a95bb80c",
          "vout": 0,
          "scriptSig": {
            "asm": "3045022100ab6e591080da1912d5b2c64197e16edf1d8dc1dc606ebb3c000a5cf5940f7f6902207047045a449b001943c45695f44be91108cda82343fd0e5c232f7ee75fe8ef53[ALL] 0261f4b189ea0dc41905ac293d84f0d250350afe7fb6a81ba33db30f158e2655ba",
            "hex": "483045022100ab6e591080da1912d5b2c64197e16edf1d8dc1dc606ebb3c000a5cf5940f7f6902207047045a449b001943c45695f44be91108cda82343fd0e5c232f7ee75fe8ef5301210261f4b189ea0dc41905ac293d84f0d250350afe7fb6a81ba33db30f158e2655ba"
          },
          "sequence": 4294967295
        }
      ],
      "vout": [
        {
          "value": 0.46625429,
          "n": 0,
          "scriptPubKey": {
            "asm": "OP_DUP OP_HASH160 a01b2c1cd88725a5ecfd195621c1fa83dc894da0 OP_EQUALVERIFY OP_CHECKSIG",
            "hex": "76a914a01b2c1cd88725a5ecfd195621c1fa83dc894da088ac",
            "reqSigs": 1,
            "type": "pubkeyhash",
            "addresses": [
              "LZpWvsVm9Z3uT4TxBb61rNDNKvQFYJ49Ht"
            ]
          }
        }, 
        {
          "value": 0.03422571,
          "n": 1,
          "scriptPubKey": {
            "asm": "OP_DUP OP_HASH160 6c460de4113f31648790d782d6fcf593b817a437 OP_EQUALVERIFY OP_CHECKSIG",
            "hex": "76a9146c460de4113f31648790d782d6fcf593b817a43788ac",
            "reqSigs": 1,
            "type": "pubkeyhash",
            "addresses": [
              "LV6TAPM7HwCtPAhWAtdDm6aF6g2pUXzUEs"
            ]
          }
        }
      ],
      "hex": "01000000010cb85ba908f7561bb93766c5bac2bc26b05645e173551106d8b70530fb425cfe000000006b483045022100ab6e591080da1912d5b2c64197e16edf1d8dc1dc606ebb3c000a5cf5940f7f6902207047045a449b001943c45695f44be91108cda82343fd0e5c232f7ee75fe8ef5301210261f4b189ea0dc41905ac293d84f0d250350afe7fb6a81ba33db30f158e2655baffffffff029572c702000000001976a914a01b2c1cd88725a5ecfd195621c1fa83dc894da088ac6b393400000000001976a9146c460de4113f31648790d782d6fcf593b817a43788ac00000000"
    }, 
    {
      "txid": "5e47a429a9c6188f6e6df660eb96db2aebb2b9c9b8bf2910f73841db2a10a13c",
      "hash": "5e47a429a9c6188f6e6df660eb96db2aebb2b9c9b8bf2910f73841db2a10a13c",
      "version": 1,
      "size": 226,
      "vsize": 226,
      "locktime": 1359103,
      "vin": [
        {
          "txid": "7f184e19cd1be2c0b42daf1aab3db48a1edd5e7fc9aa9842d76337a4d918c616",
          "vout": 1,
          "scriptSig": {
            "asm": "3045022100a324b569afa457f24639b96213b40332c8d2583442b70623ab18578670c2bf1302207702bb15ce7ad020a147280994693d1c868f3a4301996324cb0eac948a65d2c6[ALL] 031adb5d7ce25e4a63ed2243eea559d7cccafd4b193729302cd340f621edfccec2",
            "hex": "483045022100a324b569afa457f24639b96213b40332c8d2583442b70623ab18578670c2bf1302207702bb15ce7ad020a147280994693d1c868f3a4301996324cb0eac948a65d2c60121031adb5d7ce25e4a63ed2243eea559d7cccafd4b193729302cd340f621edfccec2"
          },
          "sequence": 4294967294
        }
      ],
      "vout": [
        {
          "value": 0.51729455,
          "n": 0,
          "scriptPubKey": {
            "asm": "OP_DUP OP_HASH160 7009ab553edfe9a567f14706a3c7b70e0b41a9fe OP_EQUALVERIFY OP_CHECKSIG",
            "hex": "76a9147009ab553edfe9a567f14706a3c7b70e0b41a9fe88ac",
            "reqSigs": 1,
            "type": "pubkeyhash",
            "addresses": [
              "LVSMXXjLQiB4NYwx4E5EiaAeB5JPAs68Z8"
            ]
          }
        }, 
        {
          "value": 0.51121429,
          "n": 1,
          "scriptPubKey": {
            "asm": "OP_DUP OP_HASH160 7ca6959ccd12012bd30b16e33d6ea0029065bb8f OP_EQUALVERIFY OP_CHECKSIG",
            "hex": "76a9147ca6959ccd12012bd30b16e33d6ea0029065bb8f88ac",
            "reqSigs": 1,
            "type": "pubkeyhash",
            "addresses": [
              "LWb3cVJ8i4LpGhgGSXTqLrVM6nApC8ju57"
            ]
          }
        }
      ],
      "hex": "010000000116c618d9a43763d74298aac97f5edd1e8ab43dab1aaf2db4c0e21bcd194e187f010000006b483045022100a324b569afa457f24639b96213b40332c8d2583442b70623ab18578670c2bf1302207702bb15ce7ad020a147280994693d1c868f3a4301996324cb0eac948a65d2c60121031adb5d7ce25e4a63ed2243eea559d7cccafd4b193729302cd340f621edfccec2feffffff022f541503000000001976a9147009ab553edfe9a567f14706a3c7b70e0b41a9fe88ac150d0c03000000001976a9147ca6959ccd12012bd30b16e33d6ea0029065bb8f88acffbc1400"
    }, 
    {
      "txid": "f41d051a5245c3839b54e0a958887925b792d51cd2fa080844f7697d656a5d55",
      "hash": "f41d051a5245c3839b54e0a958887925b792d51cd2fa080844f7697d656a5d55",
      "version": 1,
      "size": 226,
      "vsize": 226,
      "locktime": 0,
      "vin": [
        {
          "txid": "0f4f7458be82278c3618ed0a67689670657999fe8959b2aae6bc6ee5d2c67685",
          "vout": 0,
          "scriptSig": {
            "asm": "30450221009ac0d843c8862f7de92ea7b485c40d226eba1189424cf14294cdd61794b4be7702204f2e50b836f45d2aed5f2197dd6fed5f3504c8ec7443ed8cf670eb1bbc997ff4[ALL] 02cdd4fe0e50e7983702aa6513bbf78c639fa14b962be4be227acc41b80a346bf3",
            "hex": "4830450221009ac0d843c8862f7de92ea7b485c40d226eba1189424cf14294cdd61794b4be7702204f2e50b836f45d2aed5f2197dd6fed5f3504c8ec7443ed8cf670eb1bbc997ff4012102cdd4fe0e50e7983702aa6513bbf78c639fa14b962be4be227acc41b80a346bf3"
          },
          "sequence": 4294967295
        }
      ],
      "vout": [
        {
          "value": 85.08756482,
          "n": 0,
          "scriptPubKey": {
            "asm": "OP_DUP OP_HASH160 256147ea779ea294a47290289e4ba9948a4b38b3 OP_EQUALVERIFY OP_CHECKSIG",
            "hex": "76a914256147ea779ea294a47290289e4ba9948a4b38b388ac",
            "reqSigs": 1,
            "type": "pubkeyhash",
            "addresses": [
              "LNdboWQ1azJssHBMh5agX8vggTLNEWbkQu"
            ]
          }
        }, 
        {
          "value": 1.32285990,
          "n": 1,
          "scriptPubKey": {
            "asm": "OP_DUP OP_HASH160 41513f103d4857cfa020f524076ed7faf4853c18 OP_EQUALVERIFY OP_CHECKSIG",
            "hex": "76a91441513f103d4857cfa020f524076ed7faf4853c1888ac",
            "reqSigs": 1,
            "type": "pubkeyhash",
            "addresses": [
              "LRBKWn1J2jSXdVNAjqJrigjTM3zrxj6Ld1"
            ]
          }
        }
      ],
      "hex": "01000000018576c6d2e56ebce6aab25989fe997965709668670aed18368c2782be58744f0f000000006b4830450221009ac0d843c8862f7de92ea7b485c40d226eba1189424cf14294cdd61794b4be7702204f2e50b836f45d2aed5f2197dd6fed5f3504c8ec7443ed8cf670eb1bbc997ff4012102cdd4fe0e50e7983702aa6513bbf78c639fa14b962be4be227acc41b80a346bf3ffffffff02025229fb010000001976a914256147ea779ea294a47290289e4ba9948a4b38b388ac2686e207000000001976a91441513f103d4857cfa020f524076ed7faf4853c1888ac00000000"
    }
  ],
  "time": 1517237071,
  "mediantime": 1517236651,
  "nonce": 3684010,
  "bits": "1a042eae",
  "difficulty": 4011378.762614286,
  "chainwork": "000000000000000000000000000000000000000000000033b1a3740567c8da04",
  "previousblockhash": "85cb7c8dc51f206b007ce8dfa48246e8bbed43ef0dff16477119aba893120f3d",
  "nextblockhash": "96c5edeec01e9debd699e293078d136ca39456d716f213fb75b3300e1f335945"
}
