{
  "hash": "a1bf62bc98533955a3141fec49eb9f804553d0dd63fb2cd1d26f3003d54565f9",
  "confirmations": 2353,
  "strippedsize": 3450,
  "size": 3486,
  "weight": 13836,
  "height": 1358642,
  "version": 536870912,
  "versionHex": "20000000",
  "merkleroot": "18b4de27319d4e659d8198d9478a93c850b9f1ad495a02122decb396487f8f6e",
  "tx": [
    {
      "txid": "c2d478add2b95c53313128eae0368e27948ab2540da0fd940cc02bf14fd7058a",
      "hash": "4144557960f3dce1468a736b091860e5005957036413349e5220ddfca0c57cfb",
      "version": 1,
      "size": 244,
      "vsize": 217,
      "locktime": 0,
      "vin": [
        {
          "coinbase": "0332bb140439326e5a080113fef826000000fabe6d6d90c94193dcf547f788c831790db4b131875d806c0e35f2ee495320b960fdc28340000000000000000d2f6e6f64655374726174756d2f",
          "sequence": 0
        }
      ],
      "vout": [
        {
          "value": 25.02808609,
          "n": 0,
          "scriptPubKey": {
            "asm": "OP_DUP OP_HASH160 0c617fdb2ea42aed30a509595ee21ba3f6688db0 OP_EQUALVERIFY OP_CHECKSIG",
            "hex": "76a9140c617fdb2ea42aed30a509595ee21ba3f6688db088ac",
            "reqSigs": 1,
            "type": "pubkeyhash",
            "addresses": [
              "LLMRAtr3qBje2ySEa3CnZ55LA4TQMWnRY3"
            ]
          }
        }, 
        {
          "value": 0.00000000,
          "n": 1,
          "scriptPubKey": {
            "asm": "OP_RETURN aa21a9ed0bc0785c5dbadce778201bb2149a37fbf8887fdb62b01a424ac6fe797132c12b",
            "hex": "6a24aa21a9ed0bc0785c5dbadce778201bb2149a37fbf8887fdb62b01a424ac6fe797132c12b",
            "type": "nulldata"
          }
        }
      ],
      "hex": "010000000001010000000000000000000000000000000000000000000000000000000000000000ffffffff4c0332bb140439326e5a080113fef826000000fabe6d6d90c94193dcf547f788c831790db4b131875d806c0e35f2ee495320b960fdc28340000000000000000d2f6e6f64655374726174756d2f000000000221d42d95000000001976a9140c617fdb2ea42aed30a509595ee21ba3f6688db088ac0000000000000000266a24aa21a9ed0bc0785c5dbadce778201bb2149a37fbf8887fdb62b01a424ac6fe797132c12b0120000000000000000000000000000000000000000000000000000000000000000000000000"
    }, 
    {
      "txid": "7b6f5bd53cf897bb0b2db6bcb92044ac63bb7a77c491fd7c99508ee57b65c124",
      "hash": "7b6f5bd53cf897bb0b2db6bcb92044ac63bb7a77c491fd7c99508ee57b65c124",
      "version": 1,
      "size": 565,
      "vsize": 565,
      "locktime": 0,
      "vin": [
        {
          "txid": "6a9ad09a68db999824e8de2c82a610d480d4bc6946ac45dcd4bafc94c3a74475",
          "vout": 6,
          "scriptSig": {
            "asm": "0 3045022100a6fc49a6d123a47e3da001dcb74d74935c093871508f204df0ee25925d93f82b02201f28683b6d58b93d206bb2fdc43cc7e5162a3bb667a0445889932e6dd87c9c77[ALL] 3045022100b2d06ace2a5e5e500528877755432910147f46c1c48e1043c042bd6accf7e05e022074cc5d79ab4509e5ba362f04c6257e026c38f06ac3a9ccc285556bbc7461f6a4[ALL] 5221033e7556cf4ab4161462d8d638b470dd011f8dd224406d02ac8f3d6e194c5a36c421031b00465dcc21293c93d31dc8ecce5cc0f0dd4bc02b1b25ac18e3d64666ccaa9621025b18ffad6af35249378510117e0f99462223fa0fe212111557a3a7cfa39dc6cc53ae",
            "hex": "00483045022100a6fc49a6d123a47e3da001dcb74d74935c093871508f204df0ee25925d93f82b02201f28683b6d58b93d206bb2fdc43cc7e5162a3bb667a0445889932e6dd87c9c7701483045022100b2d06ace2a5e5e500528877755432910147f46c1c48e1043c042bd6accf7e05e022074cc5d79ab4509e5ba362f04c6257e026c38f06ac3a9ccc285556bbc7461f6a4014c695221033e7556cf4ab4161462d8d638b470dd011f8dd224406d02ac8f3d6e194c5a36c421031b00465dcc21293c93d31dc8ecce5cc0f0dd4bc02b1b25ac18e3d64666ccaa9621025b18ffad6af35249378510117e0f99462223fa0fe212111557a3a7cfa39dc6cc53ae"
          },
          "sequence": 4294967295
        }
      ],
      "vout": [
        {
          "value": 6.98306000,
          "n": 0,
          "scriptPubKey": {
            "asm": "OP_HASH160 49d689840f648f8b2c966339e0d2605f7e0a2809 OP_EQUAL",
            "hex": "a91449d689840f648f8b2c966339e0d2605f7e0a280987",
            "reqSigs": 1,
            "type": "scripthash",
            "addresses": [
              "MEdaZjkCpAGNEqTD4NxbK6NM425b6APS41"
            ]
          }
        }, 
        {
          "value": 6.25896000,
          "n": 1,
          "scriptPubKey": {
            "asm": "OP_HASH160 8bbb45ea41da2532b417ed39bbb479307a8fb13e OP_EQUAL",
            "hex": "a9148bbb45ea41da2532b417ed39bbb479307a8fb13e87",
            "reqSigs": 1,
            "type": "scripthash",
            "addresses": [
              "MLdzW4Km6yypsdMMwL7DcBoeVjmuY85D6r"
            ]
          }
        }, 
        {
          "value": 6.43116000,
          "n": 2,
          "scriptPubKey": {
            "asm": "OP_HASH160 84c57e829c35626e736fc560db4bb452ab6c693e OP_EQUAL",
            "hex": "a91484c57e829c35626e736fc560db4bb452ab6c693e87",
            "reqSigs": 1,
            "type": "scripthash",
            "addresses": [
              "ML1C1tTaHYQXqPeewNXAoHuN25yWbt94ax"
            ]
          }
        }, 
        {
          "value": 4.13926000,
          "n": 3,
          "scriptPubKey": {
            "asm": "OP_HASH160 2a76bfea5a4bf8a9c9cec77c30945727ed12b476 OP_EQUAL",
            "hex": "a9142a76bfea5a4bf8a9c9cec77c30945727ed12b47687",
            "reqSigs": 1,
            "type": "scripthash",
            "addresses": [
              "MBmgsMm8ePBPXC8BRrLgCG8YifxCaXsebT"
            ]
          }
        }, 
        {
          "value": 4.66086000,
          "n": 4,
          "scriptPubKey": {
            "asm": "OP_HASH160 58af9cb946ff8f99a1d890af2d23c37bb46e3f8f OP_EQUAL",
            "hex": "a91458af9cb946ff8f99a1d890af2d23c37bb46e3f8f87",
            "reqSigs": 1,
            "type": "scripthash",
            "addresses": [
              "MFz654VPHHSr85fzqFUKUpC8JWgmq4UdTf"
            ]
          }
        }, 
        {
          "value": 0.35471999,
          "n": 5,
          "scriptPubKey": {
            "asm": "OP_DUP OP_HASH160 5da9f6ba2287266c0f6272500e752754b55efebc OP_EQUALVERIFY OP_CHECKSIG",
            "hex": "76a9145da9f6ba2287266c0f6272500e752754b55efebc88ac",
            "reqSigs": 1,
            "type": "pubkeyhash",
            "addresses": [
              "LTmCiLswosdhmXjCVMkteEVPBicwxHYthQ"
            ]
          }
        }, 
        {
          "value": 3.36122566,
          "n": 6,
          "scriptPubKey": {
            "asm": "OP_HASH160 efd1bc3bdf0f7a1adc05d95121129f4dab219e7f OP_EQUAL",
            "hex": "a914efd1bc3bdf0f7a1adc05d95121129f4dab219e7f87",
            "reqSigs": 1,
            "type": "scripthash",
            "addresses": [
              "MVmCywXisALtKWmWnmhRtF9jX6EkgZZho7"
            ]
          }
        }, 
        {
          "value": 6.74006000,
          "n": 7,
          "scriptPubKey": {
            "asm": "OP_HASH160 b315d2f9ed6d7f63ad8ef9853967e18f5fabc385 OP_EQUAL",
            "hex": "a914b315d2f9ed6d7f63ad8ef9853967e18f5fabc38587",
            "reqSigs": 1,
            "type": "scripthash",
            "addresses": [
              "MQE5L8mNmgT8DxzS7NYWiLirwj9HnsQ6WU"
            ]
          }
        }
      ],
      "hex": "01000000017544a7c394fcbad4dc45ac4669bcd480d410a6822cdee8249899db689ad09a6a06000000fdfe0000483045022100a6fc49a6d123a47e3da001dcb74d74935c093871508f204df0ee25925d93f82b02201f28683b6d58b93d206bb2fdc43cc7e5162a3bb667a0445889932e6dd87c9c7701483045022100b2d06ace2a5e5e500528877755432910147f46c1c48e1043c042bd6accf7e05e022074cc5d79ab4509e5ba362f04c6257e026c38f06ac3a9ccc285556bbc7461f6a4014c695221033e7556cf4ab4161462d8d638b470dd011f8dd224406d02ac8f3d6e194c5a36c421031b00465dcc21293c93d31dc8ecce5cc0f0dd4bc02b1b25ac18e3d64666ccaa9621025b18ffad6af35249378510117e0f99462223fa0fe212111557a3a7cfa39dc6cc53aeffffffff08d04d9f290000000017a91449d689840f648f8b2c966339e0d2605f7e0a280987406a4e250000000017a9148bbb45ea41da2532b417ed39bbb479307a8fb13e87e02b55260000000017a91484c57e829c35626e736fc560db4bb452ab6c693e877002ac180000000017a9142a76bfea5a4bf8a9c9cec77c30945727ed12b4768770e8c71b0000000017a91458af9cb946ff8f99a1d890af2d23c37bb46e3f8f877f421d02000000001976a9145da9f6ba2287266c0f6272500e752754b55efebc88acc6d208140000000017a914efd1bc3bdf0f7a1adc05d95121129f4dab219e7f87f0832c280000000017a914b315d2f9ed6d7f63ad8ef9853967e18f5fabc3858700000000"
    }, 
    {
      "txid": "f455d58410a98ce1e9bb643bd31e43202db46f4877b6faeb071da9bb59a2dbf6",
      "hash": "f455d58410a98ce1e9bb643bd31e43202db46f4877b6faeb071da9bb59a2dbf6",
      "version": 2,
      "size": 486,
      "vsize": 486,
      "locktime": 1358640,
      "vin": [
        {
          "txid": "b9ab6ca8eac2186bff9c46a8efbae201403fb59ae3e77e188cc96599cf332f39",
          "vout": 1,
          "scriptSig": {
            "asm": "304402202f7668c4523a6fc7b230b0edd6eabc3411c5ec6a0207f524c4bdba7c8a8f6d2f0220788297b046cbfa4e0ad01980d1c4d2bb9371df64608da1a05c7cde6809b2577a[ALL] 02b7d3800564b531de36513f71e52a9ca586a5c3635835c4255eb158ce2aaf2335",
            "hex": "47304402202f7668c4523a6fc7b230b0edd6eabc3411c5ec6a0207f524c4bdba7c8a8f6d2f0220788297b046cbfa4e0ad01980d1c4d2bb9371df64608da1a05c7cde6809b2577a012102b7d3800564b531de36513f71e52a9ca586a5c3635835c4255eb158ce2aaf2335"
          },
          "sequence": 4294967294
        }, 
        {
          "txid": "1a3e9e1a0a9dbe70e536302ae1c5b4ac7605209a39c03613cf80713bee759b6f",
          "vout": 1,
          "scriptSig": {
            "asm": "3045022100ace4cc54ed9465772619a31bf1fa2861fcd4cac2fc00efeebfa389be85868b8e0220256def3fe6130084ff96789f1390fd26be746343aa9dbf6f0fb73dc070c3ee10[ALL] 027fbbe6d3685cfd768485027b41a339f3ce0c88ab5103aa395eb97950c3fda9b1",
            "hex": "483045022100ace4cc54ed9465772619a31bf1fa2861fcd4cac2fc00efeebfa389be85868b8e0220256def3fe6130084ff96789f1390fd26be746343aa9dbf6f0fb73dc070c3ee100121027fbbe6d3685cfd768485027b41a339f3ce0c88ab5103aa395eb97950c3fda9b1"
          },
          "sequence": 4294967294
        }, 
        {
          "txid": "8257febde6a273d8ec60b366840b19f867055f3347305bd8ea8353b9d04faedb",
          "vout": 1,
          "scriptSig": {
            "asm": "3044022043da2144772c50d2a2c2ac1ed5cfd4aaf4ea82b02cda065dd479607ed8b10c33022074680d21f5dc10c4bb62d7abee4e2f9a72fe3bf72b235477c9280bea301e8ec3[ALL] 02ce5f92721680de9a6df25e8434170c4c6ba8fab199130e430c9b2f4a345364a0",
            "hex": "473044022043da2144772c50d2a2c2ac1ed5cfd4aaf4ea82b02cda065dd479607ed8b10c33022074680d21f5dc10c4bb62d7abee4e2f9a72fe3bf72b235477c9280bea301e8ec3012102ce5f92721680de9a6df25e8434170c4c6ba8fab199130e430c9b2f4a345364a0"
          },
          "sequence": 4294967294
        }
      ],
      "vout": [
        {
          "value": 0.09000000,
          "n": 0,
          "scriptPubKey": {
            "asm": "OP_DUP OP_HASH160 95072e9dfd6a329b9c97b8621a187b01b9d1ed61 OP_EQUALVERIFY OP_CHECKSIG",
            "hex": "76a91495072e9dfd6a329b9c97b8621a187b01b9d1ed6188ac",
            "reqSigs": 1,
            "type": "pubkeyhash",
            "addresses": [
              "LYowYpKZcooqvFb4f7tCfZKuzgt4sYf88f"
            ]
          }
        }
      ],
      "hex": "0200000003392f33cf9965c98c187ee7e39ab53f4001e2baefa8469cff6b18c2eaa86cabb9010000006a47304402202f7668c4523a6fc7b230b0edd6eabc3411c5ec6a0207f524c4bdba7c8a8f6d2f0220788297b046cbfa4e0ad01980d1c4d2bb9371df64608da1a05c7cde6809b2577a012102b7d3800564b531de36513f71e52a9ca586a5c3635835c4255eb158ce2aaf2335feffffff6f9b75ee3b7180cf1336c0399a200576acb4c5e12a3036e570be9d0a1a9e3e1a010000006b483045022100ace4cc54ed9465772619a31bf1fa2861fcd4cac2fc00efeebfa389be85868b8e0220256def3fe6130084ff96789f1390fd26be746343aa9dbf6f0fb73dc070c3ee100121027fbbe6d3685cfd768485027b41a339f3ce0c88ab5103aa395eb97950c3fda9b1feffffffdbae4fd0b95383ead85b3047335f0567f8190b8466b360ecd873a2e6bdfe5782010000006a473044022043da2144772c50d2a2c2ac1ed5cfd4aaf4ea82b02cda065dd479607ed8b10c33022074680d21f5dc10c4bb62d7abee4e2f9a72fe3bf72b235477c9280bea301e8ec3012102ce5f92721680de9a6df25e8434170c4c6ba8fab199130e430c9b2f4a345364a0feffffff0140548900000000001976a91495072e9dfd6a329b9c97b8621a187b01b9d1ed6188ac30bb1400"
    }, 
    {
      "txid": "902fa9b0391ac8a95a6daa5a03982f255b3ad61e2393bc356b0c47d9a6f5b20f",
      "hash": "902fa9b0391ac8a95a6daa5a03982f255b3ad61e2393bc356b0c47d9a6f5b20f",
      "version": 1,
      "size": 339,
      "vsize": 339,
      "locktime": 0,
      "vin": [
        {
          "txid": "dc41235165d6e03590ebb05369b99e60f1371aebb49198755f57050aee326ae0",
          "vout": 0,
          "scriptSig": {
            "asm": "30450221009dcf53ee4336611fbe7d5a1dd2a2cd3e69a0269806b975d0c3208db69430b38802207c862ea560c6b4a1dc84e55209c09672e1fc881559b85af5e3747941b7e3fffd[ALL] 03fe7e375aa91ca989a016a4d71f357058bda4c51c7544c65be8cf61ed4bee3a4f",
            "hex": "4830450221009dcf53ee4336611fbe7d5a1dd2a2cd3e69a0269806b975d0c3208db69430b38802207c862ea560c6b4a1dc84e55209c09672e1fc881559b85af5e3747941b7e3fffd012103fe7e375aa91ca989a016a4d71f357058bda4c51c7544c65be8cf61ed4bee3a4f"
          },
          "sequence": 4294967295
        }, 
        {
          "txid": "32ea140b16b03f2a3677c55aeadca8101f01b788c5b2965c49380fb3b93e8c57",
          "vout": 0,
          "scriptSig": {
            "asm": "304402205087f616edb12a25cba76ff9ae3f4a1329f721b2e5a1db76a695197557ee466002200ec394b7ff33f11c9c9746b6f4b474226878404a66942893a5801bea55a41db3[ALL] 029503c1ae478ba94f1cc17992f09298e56c9868b84cddcf4a21be823faf30f4b5",
            "hex": "47304402205087f616edb12a25cba76ff9ae3f4a1329f721b2e5a1db76a695197557ee466002200ec394b7ff33f11c9c9746b6f4b474226878404a66942893a5801bea55a41db30121029503c1ae478ba94f1cc17992f09298e56c9868b84cddcf4a21be823faf30f4b5"
          },
          "sequence": 4294967295
        }
      ],
      "vout": [
        {
          "value": 5.28292466,
          "n": 0,
          "scriptPubKey": {
            "asm": "OP_DUP OP_HASH160 b9978a57b986a3a3855ff346ec2bcf154a17b5a8 OP_EQUALVERIFY OP_CHECKSIG",
            "hex": "76a914b9978a57b986a3a3855ff346ec2bcf154a17b5a888ac",
            "reqSigs": 1,
            "type": "pubkeyhash",
            "addresses": [
              "Lc9GouvapqReZymLXPsQB9iDWuX9t9feCg"
            ]
          }
        }
      ],
      "hex": "0100000002e06a32ee0a05575f759891b4eb1a37f1609eb96953b0eb9035e0d665512341dc000000006b4830450221009dcf53ee4336611fbe7d5a1dd2a2cd3e69a0269806b975d0c3208db69430b38802207c862ea560c6b4a1dc84e55209c09672e1fc881559b85af5e3747941b7e3fffd012103fe7e375aa91ca989a016a4d71f357058bda4c51c7544c65be8cf61ed4bee3a4fffffffff578c3eb9b30f38495c96b2c588b7011f10a8dcea5ac577362a3fb0160b14ea32000000006a47304402205087f616edb12a25cba76ff9ae3f4a1329f721b2e5a1db76a695197557ee466002200ec394b7ff33f11c9c9746b6f4b474226878404a66942893a5801bea55a41db30121029503c1ae478ba94f1cc17992f09298e56c9868b84cddcf4a21be823faf30f4b5ffffffff01721a7d1f000000001976a914b9978a57b986a3a3855ff346ec2bcf154a17b5a888ac00000000"
    }, 
    {
      "txid": "d913e3cee235ca99379afaeedcc369ad15033cf6f79cfe4fb7862e7d2dfc4895",
      "hash": "d913e3cee235ca99379afaeedcc369ad15033cf6f79cfe4fb7862e7d2dfc4895",
      "version": 1,
      "size": 192,
      "vsize": 192,
      "locktime": 0,
      "vin": [
        {
          "txid": "6982aad087492b86c05e4d0786e10f653d38c68c872c8c81c175f5e8a57c0347",
          "vout": 0,
          "scriptSig": {
            "asm": "30450221008664b13aa8c769262ab2362699ab11a176d8c359638af32d0d347a6e428d99e202201d5e925a16bcd26641ff893654c96bb84e9626f94b411828760fe351bcb5e359[ALL] 02832a9aa759b3b83c5a03cb2d95b3a5272aab4a35921eb23088ddb2c8515229bb",
            "hex": "4830450221008664b13aa8c769262ab2362699ab11a176d8c359638af32d0d347a6e428d99e202201d5e925a16bcd26641ff893654c96bb84e9626f94b411828760fe351bcb5e359012102832a9aa759b3b83c5a03cb2d95b3a5272aab4a35921eb23088ddb2c8515229bb"
          },
          "sequence": 4294967295
        }
      ],
      "vout": [
        {
          "value": 11.98580702,
          "n": 0,
          "scriptPubKey": {
            "asm": "OP_DUP OP_HASH160 83afe0ee82c7e5c28a8a4c5b792238aca6b9ae16 OP_EQUALVERIFY OP_CHECKSIG",
            "hex": "76a91483afe0ee82c7e5c28a8a4c5b792238aca6b9ae1688ac",
            "reqSigs": 1,
            "type": "pubkeyhash",
            "addresses": [
              "LXEFUc38aY5E1epK3veQ9s45RxnwAibd6x"
            ]
          }
        }
      ],
      "hex": "010000000147037ca5e8f575c1818c2c878cc6383d650fe186074d5ec0862b4987d0aa8269000000006b4830450221008664b13aa8c769262ab2362699ab11a176d8c359638af32d0d347a6e428d99e202201d5e925a16bcd26641ff893654c96bb84e9626f94b411828760fe351bcb5e359012102832a9aa759b3b83c5a03cb2d95b3a5272aab4a35921eb23088ddb2c8515229bbffffffff01dee37047000000001976a91483afe0ee82c7e5c28a8a4c5b792238aca6b9ae1688ac00000000"
    }, 
    {
      "txid": "c88d767282edb1094c572ba66ecc675560aa77ebe471d434aa45e4a9bcd42903",
      "hash": "c88d767282edb1094c572ba66ecc675560aa77ebe471d434aa45e4a9bcd42903",
      "version": 2,
      "size": 225,
      "vsize": 225,
      "locktime": 1358640,
      "vin": [
        {
          "txid": "9fcd4b4a31448dcf23b0beba6aad31626c26cab59c83be1e9202b302ca65f29b",
          "vout": 359,
          "scriptSig": {
            "asm": "30440220772c305243cd638ad886e7526415fa966b20bd5982052a70f15381be9eb25ac202207b88601e38815534a44f735d6d09bc47e1aa32e5763c2c619020db8fa2646a00[ALL] 020e206b92b3f12a469fc91f5d6871733a4c5f9e22e67dddaf0bafaad105d2668d",
            "hex": "4730440220772c305243cd638ad886e7526415fa966b20bd5982052a70f15381be9eb25ac202207b88601e38815534a44f735d6d09bc47e1aa32e5763c2c619020db8fa2646a000121020e206b92b3f12a469fc91f5d6871733a4c5f9e22e67dddaf0bafaad105d2668d"
          },
          "sequence": 4294967294
        }
      ],
      "vout": [
        {
          "value": 0.01037852,
          "n": 0,
          "scriptPubKey": {
            "asm": "OP_DUP OP_HASH160 605e87083389da0e178194aefc005ad887d7b161 OP_EQUALVERIFY OP_CHECKSIG",
            "hex": "76a914605e87083389da0e178194aefc005ad887d7b16188ac",
            "reqSigs": 1,
            "type": "pubkeyhash",
            "addresses": [
              "LU1WNWg1wH3GADFDLShbRcZm5BnMWHfama"
            ]
          }
        }, 
        {
          "value": 0.25000000,
          "n": 1,
          "scriptPubKey": {
            "asm": "OP_DUP OP_HASH160 9494c4f57c6a8eb13151297507ad2c1bee435e97 OP_EQUALVERIFY OP_CHECKSIG",
            "hex": "76a9149494c4f57c6a8eb13151297507ad2c1bee435e9788ac",
            "reqSigs": 1,
            "type": "pubkeyhash",
            "addresses": [
              "LYmaVHFaqm9bgXK55T9trGwBXD1fG7fufh"
            ]
          }
        }
      ],
      "hex": "02000000019bf265ca02b302921ebe839cb5ca266c6231ad6ababeb023cf8d44314a4bcd9f670100006a4730440220772c305243cd638ad886e7526415fa966b20bd5982052a70f15381be9eb25ac202207b88601e38815534a44f735d6d09bc47e1aa32e5763c2c619020db8fa2646a000121020e206b92b3f12a469fc91f5d6871733a4c5f9e22e67dddaf0bafaad105d2668dfeffffff021cd60f00000000001976a914605e87083389da0e178194aefc005ad887d7b16188ac40787d01000000001976a9149494c4f57c6a8eb13151297507ad2c1bee435e9788ac30bb1400"
    }, 
    {
      "txid": "facb3b9ba38e8c1360ef984e3c51b2a3ce6308207a8c6e8d298a9852f96bcf3d",
      "hash": "facb3b9ba38e8c1360ef984e3c51b2a3ce6308207a8c6e8d298a9852f96bcf3d",
      "version": 1,
      "size": 225,
      "vsize": 225,
      "locktime": 0,
      "vin": [
        {
          "txid": "57e14fdc11cac052fe826ef72a5a4869b22d481b800cbfcd4cfe1b455c58c5ac",
          "vout": 0,
          "scriptSig": {
            "asm": "3044022014fc21db3e34604122b1fd34e66c6865814602c86ef34213304cdd4c882985c60220104ed84285234d035db096d4607daab7cc2e878fb2e6f6a364e2e0ed944358ab[ALL] 03485034af51d6ba5e5cdef673d29febf65a34937f775be515b279f83890188bfa",
            "hex": "473044022014fc21db3e34604122b1fd34e66c6865814602c86ef34213304cdd4c882985c60220104ed84285234d035db096d4607daab7cc2e878fb2e6f6a364e2e0ed944358ab012103485034af51d6ba5e5cdef673d29febf65a34937f775be515b279f83890188bfa"
          },
          "sequence": 4294967295
        }
      ],
      "vout": [
        {
          "value": 92.71058058,
          "n": 0,
          "scriptPubKey": {
            "asm": "OP_DUP OP_HASH160 08ad72db6292c47ec0bb813d9c0c7d16457d76fa OP_EQUALVERIFY OP_CHECKSIG",
            "hex": "76a91408ad72db6292c47ec0bb813d9c0c7d16457d76fa88ac",
            "reqSigs": 1,
            "type": "pubkeyhash",
            "addresses": [
              "LL1qTAvJEVVuCLYyPXtZYc4ytvUC3nETVZ"
            ]
          }
        }, 
        {
          "value": 2.05223881,
          "n": 1,
          "scriptPubKey": {
            "asm": "OP_DUP OP_HASH160 e296b977c3881416a3afd004c76a618c0c6d93d6 OP_EQUALVERIFY OP_CHECKSIG",
            "hex": "76a914e296b977c3881416a3afd004c76a618c0c6d93d688ac",
            "reqSigs": 1,
            "type": "pubkeyhash",
            "addresses": [
              "Lft3Y62JcmtEz2b9q6UUWhK2vvATjDXqQh"
            ]
          }
        }
      ],
      "hex": "0100000001acc5585c451bfe4ccdbf0c801b482db269485a2af76e82fe52c0ca11dc4fe157000000006a473044022014fc21db3e34604122b1fd34e66c6865814602c86ef34213304cdd4c882985c60220104ed84285234d035db096d4607daab7cc2e878fb2e6f6a364e2e0ed944358ab012103485034af51d6ba5e5cdef673d29febf65a34937f775be515b279f83890188bfaffffffff028a1e9928020000001976a91408ad72db6292c47ec0bb813d9c0c7d16457d76fa88acc9773b0c000000001976a914e296b977c3881416a3afd004c76a618c0c6d93d688ac00000000"
    }, 
    {
      "txid": "2c85cb7f7c15002cdc154bfc0df430b16acd510c7f7af5f67d97243f586eb491",
      "hash": "2c85cb7f7c15002cdc154bfc0df430b16acd510c7f7af5f67d97243f586eb491",
      "version": 1,
      "size": 225,
      "vsize": 225,
      "locktime": 0,
      "vin": [
        {
          "txid": "afb5f80d2979998e2fcf14d5993aaf32f11f8a560914449353ecca709cade67c",
          "vout": 0,
          "scriptSig": {
            "asm": "30440220605979ae64eb90661effd5b671f002d6aaf8bacb823547453d7c3635aa9512e502200de26b5df518df8a5439e494bf89a54e928d95f8fcf243ea1476dbe2c926f9b5[ALL] 02fca1c8ddf4785ce43f9ab873b7a38af46063867aa16aa806ebdd57566dcda883",
            "hex": "4730440220605979ae64eb90661effd5b671f002d6aaf8bacb823547453d7c3635aa9512e502200de26b5df518df8a5439e494bf89a54e928d95f8fcf243ea1476dbe2c926f9b5012102fca1c8ddf4785ce43f9ab873b7a38af46063867aa16aa806ebdd57566dcda883"
          },
          "sequence": 4294967295
        }
      ],
      "vout": [
        {
          "value": 0.00067560,
          "n": 0,
          "scriptPubKey": {
            "asm": "OP_DUP OP_HASH160 57a7d97a095b3069f002ca598af164bface2637f OP_EQUALVERIFY OP_CHECKSIG",
            "hex": "76a91457a7d97a095b3069f002ca598af164bface2637f88ac",
            "reqSigs": 1,
            "type": "pubkeyhash",
            "addresses": [
              "LTDS8Hr2SXsmTmxEtyp8atyiEs8RV9v3cn"
            ]
          }
        }, 
        {
          "value": 0.04747632,
          "n": 1,
          "scriptPubKey": {
            "asm": "OP_DUP OP_HASH160 089254a8d5a15df63286c8560aa656eae5af2f9a OP_EQUALVERIFY OP_CHECKSIG",
            "hex": "76a914089254a8d5a15df63286c8560aa656eae5af2f9a88ac",
            "reqSigs": 1,
            "type": "pubkeyhash",
            "addresses": [
              "LL1Gxyy8h9xHqubosSjMR1JpZyWo88W7fK"
            ]
          }
        }
      ],
      "hex": "01000000017ce6ad9c70caec5393441409568a1ff132af3a99d514cf2f8e9979290df8b5af000000006a4730440220605979ae64eb90661effd5b671f002d6aaf8bacb823547453d7c3635aa9512e502200de26b5df518df8a5439e494bf89a54e928d95f8fcf243ea1476dbe2c926f9b5012102fca1c8ddf4785ce43f9ab873b7a38af46063867aa16aa806ebdd57566dcda883ffffffff02e8070100000000001976a91457a7d97a095b3069f002ca598af164bface2637f88ac70714800000000001976a914089254a8d5a15df63286c8560aa656eae5af2f9a88ac00000000"
    }, 
    {
      "txid": "c0eb97f393d1f6c26f45c725cf3f4616fe27dba87a8a3bbc48212785cbf99e02",
      "hash": "c0eb97f393d1f6c26f45c725cf3f4616fe27dba87a8a3bbc48212785cbf99e02",
      "version": 1,
      "size": 226,
      "vsize": 226,
      "locktime": 0,
      "vin": [
        {
          "txid": "e4ccf96ca94f2bed9ef8b2f81cd176c9602229d42bda9f49cfde402a089e68f7",
          "vout": 1,
          "scriptSig": {
            "asm": "304502210098fc348ab00544734f085a215d9860a9acb68191fbf713dda1de4cfb8d27e93102204b3ef159f40e0bd7d0ad53b97029adfce47e29d70646c7dba0cee0c0847d4492[ALL] 02eb98c88ed55b9b959c92b669016fe3052a4fcbf4d2a552cd377f674a505d5847",
            "hex": "48304502210098fc348ab00544734f085a215d9860a9acb68191fbf713dda1de4cfb8d27e93102204b3ef159f40e0bd7d0ad53b97029adfce47e29d70646c7dba0cee0c0847d4492012102eb98c88ed55b9b959c92b669016fe3052a4fcbf4d2a552cd377f674a505d5847"
          },
          "sequence": 4294967295
        }
      ],
      "vout": [
        {
          "value": 0.20105604,
          "n": 0,
          "scriptPubKey": {
            "asm": "OP_DUP OP_HASH160 6669aa4093ee064b78e36b673d936dda3717c554 OP_EQUALVERIFY OP_CHECKSIG",
            "hex": "76a9146669aa4093ee064b78e36b673d936dda3717c55488ac",
            "reqSigs": 1,
            "type": "pubkeyhash",
            "addresses": [
              "LUZTmWsv55bSNLyhShQUKHxS8TMFrwcPHD"
            ]
          }
        }, 
        {
          "value": 0.00152912,
          "n": 1,
          "scriptPubKey": {
            "asm": "OP_DUP OP_HASH160 622c0f263afc83de9c10b65da8c5cff4d9ca2196 OP_EQUALVERIFY OP_CHECKSIG",
            "hex": "76a914622c0f263afc83de9c10b65da8c5cff4d9ca219688ac",
            "reqSigs": 1,
            "type": "pubkeyhash",
            "addresses": [
              "LUB3GJDfzAcFXmu6yzFcfHzqNRGpzpQ1Yt"
            ]
          }
        }
      ],
      "hex": "0100000001f7689e082a40decf499fda2bd4292260c976d11cf8b2f89eed2b4fa96cf9cce4010000006b48304502210098fc348ab00544734f085a215d9860a9acb68191fbf713dda1de4cfb8d27e93102204b3ef159f40e0bd7d0ad53b97029adfce47e29d70646c7dba0cee0c0847d4492012102eb98c88ed55b9b959c92b669016fe3052a4fcbf4d2a552cd377f674a505d5847ffffffff0284c93201000000001976a9146669aa4093ee064b78e36b673d936dda3717c55488ac50550200000000001976a914622c0f263afc83de9c10b65da8c5cff4d9ca219688ac00000000"
    }, 
    {
      "txid": "e7f34caed4168df53c078e3ca7412c823d66179ea056459b4596a23e90840b23",
      "hash": "e7f34caed4168df53c078e3ca7412c823d66179ea056459b4596a23e90840b23",
      "version": 1,
      "size": 226,
      "vsize": 226,
      "locktime": 0,
      "vin": [
        {
          "txid": "c4e957bb24dfad569e1007045b934ab3fecb0362c5006d5542ba0c2d157e5ef4",
          "vout": 0,
          "scriptSig": {
            "asm": "3045022100886512758d85ce9519c7902ecb43da6f2463387baffaf6b203b7d2b20e4a9d9302207896680983802ef1ebc0b4cd94d0cab4485f64aa2d2ff6f88af97479319c5f3c[ALL] 022a07a2cc835e2456c45d6bf236e750e4a9f01e70e8617cf59924a43f7708dda8",
            "hex": "483045022100886512758d85ce9519c7902ecb43da6f2463387baffaf6b203b7d2b20e4a9d9302207896680983802ef1ebc0b4cd94d0cab4485f64aa2d2ff6f88af97479319c5f3c0121022a07a2cc835e2456c45d6bf236e750e4a9f01e70e8617cf59924a43f7708dda8"
          },
          "sequence": 4294967295
        }
      ],
      "vout": [
        {
          "value": 0.17129054,
          "n": 0,
          "scriptPubKey": {
            "asm": "OP_DUP OP_HASH160 b50204ed85a7bd27223a85f1870694dcfd1a80a3 OP_EQUALVERIFY OP_CHECKSIG",
            "hex": "76a914b50204ed85a7bd27223a85f1870694dcfd1a80a388ac",
            "reqSigs": 1,
            "type": "pubkeyhash",
            "addresses": [
              "Lbj2zEYAoWW9716AefL6CKZoZsXbGkwzko"
            ]
          }
        }, 
        {
          "value": 0.00058362,
          "n": 1,
          "scriptPubKey": {
            "asm": "OP_DUP OP_HASH160 f9194a79a2e0c2d533bfcd3c7f5ced20d18fd6c5 OP_EQUALVERIFY OP_CHECKSIG",
            "hex": "76a914f9194a79a2e0c2d533bfcd3c7f5ced20d18fd6c588ac",
            "reqSigs": 1,
            "type": "pubkeyhash",
            "addresses": [
              "Lhw4pDs89HTRuwtHVRnrdQQBfevBxpFKLp"
            ]
          }
        }
      ],
      "hex": "0100000001f45e7e152d0cba42556d00c56203cbfeb34a935b0407109e56addf24bb57e9c4000000006b483045022100886512758d85ce9519c7902ecb43da6f2463387baffaf6b203b7d2b20e4a9d9302207896680983802ef1ebc0b4cd94d0cab4485f64aa2d2ff6f88af97479319c5f3c0121022a07a2cc835e2456c45d6bf236e750e4a9f01e70e8617cf59924a43f7708dda8ffffffff025e5e0501000000001976a914b50204ed85a7bd27223a85f1870694dcfd1a80a388acfae30000000000001976a914f9194a79a2e0c2d533bfcd3c7f5ced20d18fd6c588ac00000000"
    }, 
    {
      "txid": "be7353bfdb805a17a009e6e974ff6856f364fdafb956a0ba95adddaa37078bad",
      "hash": "be7353bfdb805a17a009e6e974ff6856f364fdafb956a0ba95adddaa37078bad",
      "version": 1,
      "size": 226,
      "vsize": 226,
      "locktime": 0,
      "vin": [
        {
          "txid": "50edba850226bb06e37d46b9ab2bd856273b3365ef392fa5928fa844a4a2e61a",
          "vout": 0,
          "scriptSig": {
            "asm": "3045022100f9f852baa072c6a2964fdb973f76bf20b8a7fd08dc2c934148d5f6e88df7ad0102207af0dab42afe9da341ae18f00d3b274b45aecf9cb23c2e074d442df46b635dd0[ALL] 0385dfe23c728e9047d2ac498db7f28863e978a1e5331169703820bdfb33c3d0fb",
            "hex": "483045022100f9f852baa072c6a2964fdb973f76bf20b8a7fd08dc2c934148d5f6e88df7ad0102207af0dab42afe9da341ae18f00d3b274b45aecf9cb23c2e074d442df46b635dd001210385dfe23c728e9047d2ac498db7f28863e978a1e5331169703820bdfb33c3d0fb"
          },
          "sequence": 4294967295
        }
      ],
      "vout": [
        {
          "value": 10.20558458,
          "n": 0,
          "scriptPubKey": {
            "asm": "OP_DUP OP_HASH160 e804707b43fa90c7f82abcdf78ffc463f149f698 OP_EQUALVERIFY OP_CHECKSIG",
            "hex": "76a914e804707b43fa90c7f82abcdf78ffc463f149f69888ac",
            "reqSigs": 1,
            "type": "pubkeyhash",
            "addresses": [
              "LgNkMAtNtj1nSUQYMLw1LQKgGSWnJ7SxLS"
            ]
          }
        }, 
        {
          "value": 84.55596836,
          "n": 1,
          "scriptPubKey": {
            "asm": "OP_DUP OP_HASH160 9a9490d70aeafff1c19acfc357673d2f6d5e108f OP_EQUALVERIFY OP_CHECKSIG",
            "hex": "76a9149a9490d70aeafff1c19acfc357673d2f6d5e108f88ac",
            "reqSigs": 1,
            "type": "pubkeyhash",
            "addresses": [
              "LZKJJHZXanovFvCjXMGSmHN1MAwZm3Bpfj"
            ]
          }
        }
      ],
      "hex": "01000000011ae6a2a444a88f92a52f39ef65333b2756d82babb9467de306bb260285baed50000000006b483045022100f9f852baa072c6a2964fdb973f76bf20b8a7fd08dc2c934148d5f6e88df7ad0102207af0dab42afe9da341ae18f00d3b274b45aecf9cb23c2e074d442df46b635dd001210385dfe23c728e9047d2ac498db7f28863e978a1e5331169703820bdfb33c3d0fbffffffff027a7cd43c000000001976a914e804707b43fa90c7f82abcdf78ffc463f149f69888ac242bfef7010000001976a9149a9490d70aeafff1c19acfc357673d2f6d5e108f88ac00000000"
    }, 
    {
      "txid": "2ce9f11cddd934d4066eea56f66f8c6eb2c8054ec747b782aa4b82f2e72b1bef",
      "hash": "2ce9f11cddd934d4066eea56f66f8c6eb2c8054ec747b782aa4b82f2e72b1bef",
      "version": 2,
      "size": 226,
      "vsize": 226,
      "locktime": 1358640,
      "vin": [
        {
          "txid": "4106ecb1c422271ad60ae892bf9f07d9fc53094d2152fbb80685dce19e5627c0",
          "vout": 0,
          "scriptSig": {
            "asm": "3045022100c66d6309f0b16d71466fd4b8a47776e63d42e3ee5d914087ea6185ec63737f3002200b4599695c75cad3006b81bbfa048ca820adbccf65419ef1b1befbeb0e7e1569[ALL] 038ba189913b42ac26de55ebefa5da329631634331b2d662d2d8e96fd1f2320511",
            "hex": "483045022100c66d6309f0b16d71466fd4b8a47776e63d42e3ee5d914087ea6185ec63737f3002200b4599695c75cad3006b81bbfa048ca820adbccf65419ef1b1befbeb0e7e15690121038ba189913b42ac26de55ebefa5da329631634331b2d662d2d8e96fd1f2320511"
          },
          "sequence": 4294967294
        }
      ],
      "vout": [
        {
          "value": 29.83287833,
          "n": 0,
          "scriptPubKey": {
            "asm": "OP_DUP OP_HASH160 c6c89dffa6600ebf746a83f8b61149e94bab806e OP_EQUALVERIFY OP_CHECKSIG",
            "hex": "76a914c6c89dffa6600ebf746a83f8b61149e94bab806e88ac",
            "reqSigs": 1,
            "type": "pubkeyhash",
            "addresses": [
              "LdM2PKcBwoDdHVzeVuTpjHxVCKzDbPR7fi"
            ]
          }
        }, 
        {
          "value": 0.15689567,
          "n": 1,
          "scriptPubKey": {
            "asm": "OP_DUP OP_HASH160 74967caba021026b23f8565a292e56fdf1aa3e34 OP_EQUALVERIFY OP_CHECKSIG",
            "hex": "76a91474967caba021026b23f8565a292e56fdf1aa3e3488ac",
            "reqSigs": 1,
            "type": "pubkeyhash",
            "addresses": [
              "LVrQvV5iXovgTZVe3nGbZQQLqqmR94Pj4D"
            ]
          }
        }
      ],
      "hex": "0200000001c027569ee1dc8506b8fb52214d0953fcd9079fbf92e80ad61a2722c4b1ec0641000000006b483045022100c66d6309f0b16d71466fd4b8a47776e63d42e3ee5d914087ea6185ec63737f3002200b4599695c75cad3006b81bbfa048ca820adbccf65419ef1b1befbeb0e7e15690121038ba189913b42ac26de55ebefa5da329631634331b2d662d2d8e96fd1f2320511feffffff02195cd1b1000000001976a914c6c89dffa6600ebf746a83f8b61149e94bab806e88ac5f67ef00000000001976a91474967caba021026b23f8565a292e56fdf1aa3e3488ac30bb1400"
    }
  ],
  "time": 1517171205,
  "mediantime": 1517170277,
  "nonce": 420235550,
  "bits": "1a047f14",
  "difficulty": 3731199.183374282,
  "chainwork": "000000000000000000000000000000000000000000000033454a2ac5b3a30a2e",
  "previousblockhash": "572173919726ececa533c5f2d02875bddeeb6d89281b6d8a1c67bccd999ca9bd",
  "nextblockhash": "ecff3a1930f6fb1106cfee06d55e040b2ed3a6bd2f5bf08e4d580c45fb490df3"
}
