{
  "hash": "a1c916b8813561395abffd430ca4b6363e120b02015c101d6592a4713ae3061b",
  "confirmations": 1269,
  "strippedsize": 255,
  "size": 255,
  "weight": 1020,
  "height": 1359725,
  "version": 536870912,
  "versionHex": "20000000",
  "merkleroot": "22a12c30420f941b063840f664244575870d72a58675b000c665a6e852f7b32e",
  "tx": [
    {
      "txid": "22a12c30420f941b063840f664244575870d72a58675b000c665a6e852f7b32e",
      "hash": "22a12c30420f941b063840f664244575870d72a58675b000c665a6e852f7b32e",
      "version": 1,
      "size": 174,
      "vsize": 174,
      "locktime": 0,
      "vin": [
        {
          "coinbase": "036dbf141c4d696e656420627920416e74506f6f6c20626a331f205a70847702ccfabe6d6d09c1e0664d2632212df832c358d997dbb248b71ba231bb72e18403c416558e830400000000000000d62e00000000000010000000",
          "sequence": 4294967295
        }
      ],
      "vout": [
        {
          "value": 25.00000000,
          "n": 0,
          "scriptPubKey": {
            "asm": "OP_DUP OP_HASH160 0ff3ccc5e8be88afe24b5d634e5852d474dbdff1 OP_EQUALVERIFY OP_CHECKSIG",
            "hex": "76a9140ff3ccc5e8be88afe24b5d634e5852d474dbdff188ac",
            "reqSigs": 1,
            "type": "pubkeyhash",
            "addresses": [
              "LLgJTbzZMsRTCUF1NtvvL9SR1a4pVieW89"
            ]
          }
        }
      ],
      "hex": "01000000010000000000000000000000000000000000000000000000000000000000000000ffffffff59036dbf141c4d696e656420627920416e74506f6f6c20626a331f205a70847702ccfabe6d6d09c1e0664d2632212df832c358d997dbb248b71ba231bb72e18403c416558e830400000000000000d62e00000000000010000000ffffffff0100f90295000000001976a9140ff3ccc5e8be88afe24b5d634e5852d474dbdff188ac00000000"
    }
  ],
  "time": 1517323383,
  "mediantime": 1517323014,
  "nonce": 119281118,
  "bits": "1a042eae",
  "difficulty": 4011378.762614286,
  "chainwork": "00000000000000000000000000000000000000000000003445e17a34401b60dc",
  "previousblockhash": "207bedced03b348d01c9a50c326f120e97d70cfce890cf81b37008882320d7b1",
  "nextblockhash": "754818612ee1a3e8f486d3cb2f984c7d801bbf1961b6d170d05deeef2af903c9"
}
