{
  "hash": "a1e658e4e94903cc1f00675441cb781bf38b7734faf3cf1c6f12020f33711771",
  "confirmations": 1522,
  "strippedsize": 2347,
  "size": 2383,
  "weight": 9424,
  "height": 1359472,
  "version": 536870912,
  "versionHex": "20000000",
  "merkleroot": "e626fb9fdf59ebbc900eae9456ab819701912093cb27d085fc28a52942931458",
  "tx": [
    {
      "txid": "2f2e70f093cf9e4535d546c33ac6cadcabf0bdec5b461978a6aa4a10de23485d",
      "hash": "0640dc88e18b1744aaf16f159d974f173523ff46fefc7c64a859a068e4db743d",
      "version": 1,
      "size": 236,
      "vsize": 209,
      "locktime": 0,
      "vin": [
        {
          "coinbase": "0370be14045a6ff78f2cfabe6d6d09b9165d9362041ef781002627712969f8f5cbfdc0df7a54247b584285e964bc4000000000000000042f4c502f0822009d9f05000000",
          "sequence": 4294967295
        }
      ],
      "vout": [
        {
          "value": 25.00679606,
          "n": 0,
          "scriptPubKey": {
            "asm": "OP_DUP OP_HASH160 57757ed2ecf2052ff3126c397aca7defb9ca2cec OP_EQUALVERIFY OP_CHECKSIG",
            "hex": "76a91457757ed2ecf2052ff3126c397aca7defb9ca2cec88ac",
            "reqSigs": 1,
            "type": "pubkeyhash",
            "addresses": [
              "LTCPodGk5FwcJaRzH9yKnwicxzFUbxp6tN"
            ]
          }
        }, 
        {
          "value": 0.00000000,
          "n": 1,
          "scriptPubKey": {
            "asm": "OP_RETURN aa21a9ed208aac75a542b086bc8f111797cb9fc88af869d19f1d7e6a7f8b2ded371cb557",
            "hex": "6a24aa21a9ed208aac75a542b086bc8f111797cb9fc88af869d19f1d7e6a7f8b2ded371cb557",
            "type": "nulldata"
          }
        }
      ],
      "hex": "010000000001010000000000000000000000000000000000000000000000000000000000000000ffffffff440370be14045a6ff78f2cfabe6d6d09b9165d9362041ef781002627712969f8f5cbfdc0df7a54247b584285e964bc4000000000000000042f4c502f0822009d9f05000000ffffffff02b6570d95000000001976a91457757ed2ecf2052ff3126c397aca7defb9ca2cec88ac0000000000000000266a24aa21a9ed208aac75a542b086bc8f111797cb9fc88af869d19f1d7e6a7f8b2ded371cb5570120000000000000000000000000000000000000000000000000000000000000000000000000"
    }, 
    {
      "txid": "9dc9f4e2d2a84beb5679e36b4d7692cc2f0d5b5833d8b055528508f51386fe51",
      "hash": "9dc9f4e2d2a84beb5679e36b4d7692cc2f0d5b5833d8b055528508f51386fe51",
      "version": 1,
      "size": 225,
      "vsize": 225,
      "locktime": 0,
      "vin": [
        {
          "txid": "b334e6f21689cac2df864d4281320c77c076cce48db867be302f92c6df11a230",
          "vout": 0,
          "scriptSig": {
            "asm": "304402206e64dbc09be9164dcba41c067f74c97fbc4ff2460e0a3da9223ba7239e0f393102205495d0ba5fbafbf30228c58f2c7a3a610eee425ee9e781954f92821abc5fe413[ALL] 023a1ae8eb33d776d70421cd8767a36195280f054d8dcc22259c8d3494fbcc81ac",
            "hex": "47304402206e64dbc09be9164dcba41c067f74c97fbc4ff2460e0a3da9223ba7239e0f393102205495d0ba5fbafbf30228c58f2c7a3a610eee425ee9e781954f92821abc5fe4130121023a1ae8eb33d776d70421cd8767a36195280f054d8dcc22259c8d3494fbcc81ac"
          },
          "sequence": 4294967295
        }
      ],
      "vout": [
        {
          "value": 0.49119624,
          "n": 0,
          "scriptPubKey": {
            "asm": "OP_DUP OP_HASH160 20528c75666690d72ba30a37faecb066a7450b91 OP_EQUALVERIFY OP_CHECKSIG",
            "hex": "76a91420528c75666690d72ba30a37faecb066a7450b9188ac",
            "reqSigs": 1,
            "type": "pubkeyhash",
            "addresses": [
              "LNArmw6UUbuzq7DUPiq5VhzRFKLQe8UQox"
            ]
          }
        }, 
        {
          "value": 0.01040776,
          "n": 1,
          "scriptPubKey": {
            "asm": "OP_DUP OP_HASH160 de5310d99c0dae1924a3c994b775edd384843709 OP_EQUALVERIFY OP_CHECKSIG",
            "hex": "76a914de5310d99c0dae1924a3c994b775edd38484370988ac",
            "reqSigs": 1,
            "type": "pubkeyhash",
            "addresses": [
              "LfVVnK9igKz57ZRwgYXtvWoTfDFYQWLcfK"
            ]
          }
        }
      ],
      "hex": "010000000130a211dfc6922f30be67b88de4cc76c0770c3281424d86dfc2ca8916f2e634b3000000006a47304402206e64dbc09be9164dcba41c067f74c97fbc4ff2460e0a3da9223ba7239e0f393102205495d0ba5fbafbf30228c58f2c7a3a610eee425ee9e781954f92821abc5fe4130121023a1ae8eb33d776d70421cd8767a36195280f054d8dcc22259c8d3494fbcc81acffffffff028881ed02000000001976a91420528c75666690d72ba30a37faecb066a7450b9188ac88e10f00000000001976a914de5310d99c0dae1924a3c994b775edd38484370988ac00000000"
    }, 
    {
      "txid": "97df24ce807aeeb29968812d2e00360ef1021c9cb50db14ed1951ff4efdd987d",
      "hash": "97df24ce807aeeb29968812d2e00360ef1021c9cb50db14ed1951ff4efdd987d",
      "version": 1,
      "size": 225,
      "vsize": 225,
      "locktime": 0,
      "vin": [
        {
          "txid": "99d2aa7d11bce11cf50782695ad1aaf5c78cd17bafacd9326fdd8174d69dfe71",
          "vout": 1,
          "scriptSig": {
            "asm": "304402200e2e9e04898a0909d19f893043872588b2504c4cadc22fa32810fd47068263630220495910bf0226e62d2e85fc2bf83eb5f025b654ed87ce301cfc6f6eb81848292f[ALL] 027facd24dd6c5d6f9c63469e5cf84c3ddd183a3a92b8e25e5e2bf25d75282c683",
            "hex": "47304402200e2e9e04898a0909d19f893043872588b2504c4cadc22fa32810fd47068263630220495910bf0226e62d2e85fc2bf83eb5f025b654ed87ce301cfc6f6eb81848292f0121027facd24dd6c5d6f9c63469e5cf84c3ddd183a3a92b8e25e5e2bf25d75282c683"
          },
          "sequence": 4294967295
        }
      ],
      "vout": [
        {
          "value": 0.50000000,
          "n": 0,
          "scriptPubKey": {
            "asm": "OP_DUP OP_HASH160 f394d13c23a76ea8e5d812b51b82778fe466b1cd OP_EQUALVERIFY OP_CHECKSIG",
            "hex": "76a914f394d13c23a76ea8e5d812b51b82778fe466b1cd88ac",
            "reqSigs": 1,
            "type": "pubkeyhash",
            "addresses": [
              "LhRtjqV49DpT6Skv2NWHF55XLqHRQoCHCn"
            ]
          }
        }, 
        {
          "value": 34.07150000,
          "n": 1,
          "scriptPubKey": {
            "asm": "OP_DUP OP_HASH160 b9b697e63a113630b617c4f605883a291ed15f75 OP_EQUALVERIFY OP_CHECKSIG",
            "hex": "76a914b9b697e63a113630b617c4f605883a291ed15f7588ac",
            "reqSigs": 1,
            "type": "pubkeyhash",
            "addresses": [
              "Lc9v1WZWgLksy8Kn9pqP6XjTBQpaFbnpS3"
            ]
          }
        }
      ],
      "hex": "010000000171fe9dd67481dd6f32d9acaf7bd18cc7f5aad15a698207f51ce1bc117daad299010000006a47304402200e2e9e04898a0909d19f893043872588b2504c4cadc22fa32810fd47068263630220495910bf0226e62d2e85fc2bf83eb5f025b654ed87ce301cfc6f6eb81848292f0121027facd24dd6c5d6f9c63469e5cf84c3ddd183a3a92b8e25e5e2bf25d75282c683ffffffff0280f0fa02000000001976a914f394d13c23a76ea8e5d812b51b82778fe466b1cd88acb0fb14cb000000001976a914b9b697e63a113630b617c4f605883a291ed15f7588ac00000000"
    }, 
    {
      "txid": "def4fce9e19407b391b8fa6624ef8637acfec644afbef44280b0e00b99fab270",
      "hash": "def4fce9e19407b391b8fa6624ef8637acfec644afbef44280b0e00b99fab270",
      "version": 1,
      "size": 372,
      "vsize": 372,
      "locktime": 0,
      "vin": [
        {
          "txid": "459952a9b0772d0521c642a8bea4f495960f9dcbf426ec784420076246940151",
          "vout": 30,
          "scriptSig": {
            "asm": "30450221009a67e357be47e54692b77794c0c819cca2c9d71394723458e60729b7867522040220223276dbdfad073e5d0d909f30c0bf6fb060052ebd14e7be750a33ffba0471b3[ALL] 0325e356ee1f0460296042684f43d102e82fdb6924e453e0085fda3a661c10c467",
            "hex": "4830450221009a67e357be47e54692b77794c0c819cca2c9d71394723458e60729b7867522040220223276dbdfad073e5d0d909f30c0bf6fb060052ebd14e7be750a33ffba0471b301210325e356ee1f0460296042684f43d102e82fdb6924e453e0085fda3a661c10c467"
          },
          "sequence": 4294967295
        }, 
        {
          "txid": "0799e6cdac96eb31f681c5a1a46202a4c7b4615f2771a4c24e92c8b7ebdbf334",
          "vout": 2,
          "scriptSig": {
            "asm": "304502210096b103bc6733f219ffbc9708353358af574b8357c059714585a4baf5e41fd4cd02205fd7e3ccd76a549a0ad9f2054786e6e33fb2b57e6e169bdc83a1a7cf8297b4c9[ALL] 0349cd6db4feddd5eefa6b6ea5a5b37f62de42cc8cc62f0b3d8fe4886d3057112b",
            "hex": "48304502210096b103bc6733f219ffbc9708353358af574b8357c059714585a4baf5e41fd4cd02205fd7e3ccd76a549a0ad9f2054786e6e33fb2b57e6e169bdc83a1a7cf8297b4c901210349cd6db4feddd5eefa6b6ea5a5b37f62de42cc8cc62f0b3d8fe4886d3057112b"
          },
          "sequence": 4294967295
        }
      ],
      "vout": [
        {
          "value": 0.01001011,
          "n": 0,
          "scriptPubKey": {
            "asm": "OP_DUP OP_HASH160 c428a7863c4862db5de7ec4751b258a72d4a0cfa OP_EQUALVERIFY OP_CHECKSIG",
            "hex": "76a914c428a7863c4862db5de7ec4751b258a72d4a0cfa88ac",
            "reqSigs": 1,
            "type": "pubkeyhash",
            "addresses": [
              "Ld79QXbyJTW6FCPtBL9oiNfLttNY4Hyd2h"
            ]
          }
        }, 
        {
          "value": 1.82477948,
          "n": 1,
          "scriptPubKey": {
            "asm": "OP_HASH160 495e01b0f2a70e135a31f2cec5c5513f6dac44e9 OP_EQUAL",
            "hex": "a914495e01b0f2a70e135a31f2cec5c5513f6dac44e987",
            "reqSigs": 1,
            "type": "scripthash",
            "addresses": [
              "MEb6B8LZHyHh8Am2uxQj4JAGQXzT7cfnsq"
            ]
          }
        }
      ],
      "hex": "0100000002510194466207204478ec26f4cb9d0f9695f4a4bea842c621052d77b0a95299451e0000006b4830450221009a67e357be47e54692b77794c0c819cca2c9d71394723458e60729b7867522040220223276dbdfad073e5d0d909f30c0bf6fb060052ebd14e7be750a33ffba0471b301210325e356ee1f0460296042684f43d102e82fdb6924e453e0085fda3a661c10c467ffffffff34f3dbebb7c8924ec2a471275f61b4c7a40262a4a1c581f631eb96accde69907020000006b48304502210096b103bc6733f219ffbc9708353358af574b8357c059714585a4baf5e41fd4cd02205fd7e3ccd76a549a0ad9f2054786e6e33fb2b57e6e169bdc83a1a7cf8297b4c901210349cd6db4feddd5eefa6b6ea5a5b37f62de42cc8cc62f0b3d8fe4886d3057112bffffffff0233460f00000000001976a914c428a7863c4862db5de7ec4751b258a72d4a0cfa88ac7c64e00a0000000017a914495e01b0f2a70e135a31f2cec5c5513f6dac44e98700000000"
    }, 
    {
      "txid": "6c5f615336ff038ee4f17c5a31cd3e6c52ecda24f12b610096a455254e969041",
      "hash": "6c5f615336ff038ee4f17c5a31cd3e6c52ecda24f12b610096a455254e969041",
      "version": 1,
      "size": 192,
      "vsize": 192,
      "locktime": 1359470,
      "vin": [
        {
          "txid": "4a0113130f9d34080dc2e70b8a45d88d9e724398bc30a717d0d230b010fb8cde",
          "vout": 0,
          "scriptSig": {
            "asm": "3045022100cdcdf30b5fda20e20ce8249489e47623b4fce7251ac720027b91794b679023a4022058be36ad8a8a9197114495a0197e3cfb9eb60aa65b0932156ba5310cff4df98b[ALL] 02fdf5459271ffee9b9dba8e8cf79f26aa1a96ba2e6a908d0c96b1981698b8f585",
            "hex": "483045022100cdcdf30b5fda20e20ce8249489e47623b4fce7251ac720027b91794b679023a4022058be36ad8a8a9197114495a0197e3cfb9eb60aa65b0932156ba5310cff4df98b012102fdf5459271ffee9b9dba8e8cf79f26aa1a96ba2e6a908d0c96b1981698b8f585"
          },
          "sequence": 4294967294
        }
      ],
      "vout": [
        {
          "value": 0.59976000,
          "n": 0,
          "scriptPubKey": {
            "asm": "OP_DUP OP_HASH160 b3907bf4968de49b46c9a6478b79767254642a1b OP_EQUALVERIFY OP_CHECKSIG",
            "hex": "76a914b3907bf4968de49b46c9a6478b79767254642a1b88ac",
            "reqSigs": 1,
            "type": "pubkeyhash",
            "addresses": [
              "LbbQJVK1aJ56hft2JCfbbEWZ69ooPzR3wq"
            ]
          }
        }
      ],
      "hex": "0100000001de8cfb10b030d2d017a730bc9843729e8dd8458a0be7c20d08349d0f1313014a000000006b483045022100cdcdf30b5fda20e20ce8249489e47623b4fce7251ac720027b91794b679023a4022058be36ad8a8a9197114495a0197e3cfb9eb60aa65b0932156ba5310cff4df98b012102fdf5459271ffee9b9dba8e8cf79f26aa1a96ba2e6a908d0c96b1981698b8f585feffffff0140299303000000001976a914b3907bf4968de49b46c9a6478b79767254642a1b88ac6ebe1400"
    }, 
    {
      "txid": "b349e0bb8102aad49ea61c5d8c17de30a4dce63aa313d658843a7f323153f531",
      "hash": "b349e0bb8102aad49ea61c5d8c17de30a4dce63aa313d658843a7f323153f531",
      "version": 1,
      "size": 226,
      "vsize": 226,
      "locktime": 0,
      "vin": [
        {
          "txid": "8118b0858fe1f0da9ccf0677943b93b10f8dda419db98c9dee47c4ecf6a5ea9c",
          "vout": 1,
          "scriptSig": {
            "asm": "304502210088624ea725860da4efb8f005a9c8c847f86696f2f7e3ebbe09966fe4f0ba392c02203710778bba4d9c019e04ddc939a9a25c23847878f5e58f4151df394ddc6fe14d[ALL] 0287d032fcd520b7bc7fd3c7d82ad4fd0ba7a8ba00b7b305391e002d6fad9c53b0",
            "hex": "48304502210088624ea725860da4efb8f005a9c8c847f86696f2f7e3ebbe09966fe4f0ba392c02203710778bba4d9c019e04ddc939a9a25c23847878f5e58f4151df394ddc6fe14d01210287d032fcd520b7bc7fd3c7d82ad4fd0ba7a8ba00b7b305391e002d6fad9c53b0"
          },
          "sequence": 4294967295
        }
      ],
      "vout": [
        {
          "value": 4.00000000,
          "n": 0,
          "scriptPubKey": {
            "asm": "OP_DUP OP_HASH160 ed80c6f25b9ba3b9668f31bb832d5ebe46c1ffae OP_EQUALVERIFY OP_CHECKSIG",
            "hex": "76a914ed80c6f25b9ba3b9668f31bb832d5ebe46c1ffae88ac",
            "reqSigs": 1,
            "type": "pubkeyhash",
            "addresses": [
              "LgskgGZPUZY32625uFa5tT14XdjhHCDeDj"
            ]
          }
        }, 
        {
          "value": 232.49542000,
          "n": 1,
          "scriptPubKey": {
            "asm": "OP_DUP OP_HASH160 7732fb0d2cda094dbed62764775c98a9e14817a6 OP_EQUALVERIFY OP_CHECKSIG",
            "hex": "76a9147732fb0d2cda094dbed62764775c98a9e14817a688ac",
            "reqSigs": 1,
            "type": "pubkeyhash",
            "addresses": [
              "LW6DkEsAx6iEipqfkyrW8HUgnHCzRDYjSF"
            ]
          }
        }
      ],
      "hex": "01000000019ceaa5f6ecc447ee9d8cb99d41da8d0fb1933b947706cf9cdaf0e18f85b01881010000006b48304502210088624ea725860da4efb8f005a9c8c847f86696f2f7e3ebbe09966fe4f0ba392c02203710778bba4d9c019e04ddc939a9a25c23847878f5e58f4151df394ddc6fe14d01210287d032fcd520b7bc7fd3c7d82ad4fd0ba7a8ba00b7b305391e002d6fad9c53b0ffffffff020084d717000000001976a914ed80c6f25b9ba3b9668f31bb832d5ebe46c1ffae88ac70dbc769050000001976a9147732fb0d2cda094dbed62764775c98a9e14817a688ac00000000"
    }, 
    {
      "txid": "f9103d757a0adde97ad18b3575854dd0e128e692f8e5abfe4ae7240a008e68d8",
      "hash": "f9103d757a0adde97ad18b3575854dd0e128e692f8e5abfe4ae7240a008e68d8",
      "version": 2,
      "size": 374,
      "vsize": 374,
      "locktime": 1359470,
      "vin": [
        {
          "txid": "90c565fb73ddad6c8c9c45a07c5138188b8d6417d0c8d4d3d2c6463d096b7c8e",
          "vout": 0,
          "scriptSig": {
            "asm": "304502210092794583c2489a7449a40f298fe926547b54dbf7d4a70d736681b3eabf1b9d1602205b822dc7bf6fca5021e278c4f45f2916dc645031e2156d1e20e793c0f5e18d2e[ALL] 0256702cdec676dd9fa1476337b109c7d45c474bc336c37e408cf0ef6e5ef08eac",
            "hex": "48304502210092794583c2489a7449a40f298fe926547b54dbf7d4a70d736681b3eabf1b9d1602205b822dc7bf6fca5021e278c4f45f2916dc645031e2156d1e20e793c0f5e18d2e01210256702cdec676dd9fa1476337b109c7d45c474bc336c37e408cf0ef6e5ef08eac"
          },
          "sequence": 4294967294
        }, 
        {
          "txid": "c3a27580c450c1bcbc6aea0c11356add01748881958c7f41a513571b04b253df",
          "vout": 1,
          "scriptSig": {
            "asm": "30450221008451adf908d53e2418c35dffe493c4955e16513e7e4a1db08b7968e726de7e16022030396a299c525ef0439cf711f096e7aa700d6cf85a14087466a1859c60ab4cf4[ALL] 039302d98bdc7b493da0764873f58168a79cc075f02deba950a16c144840b588bc",
            "hex": "4830450221008451adf908d53e2418c35dffe493c4955e16513e7e4a1db08b7968e726de7e16022030396a299c525ef0439cf711f096e7aa700d6cf85a14087466a1859c60ab4cf40121039302d98bdc7b493da0764873f58168a79cc075f02deba950a16c144840b588bc"
          },
          "sequence": 4294967294
        }
      ],
      "vout": [
        {
          "value": 0.12507060,
          "n": 0,
          "scriptPubKey": {
            "asm": "OP_DUP OP_HASH160 49aaa03855dfca32f51373967dcea35f7304e209 OP_EQUALVERIFY OP_CHECKSIG",
            "hex": "76a91449aaa03855dfca32f51373967dcea35f7304e20988ac",
            "reqSigs": 1,
            "type": "pubkeyhash",
            "addresses": [
              "LRwTzWVC4TK5kRrP46so4Mx4hW7YYzb1ET"
            ]
          }
        }, 
        {
          "value": 1.43466936,
          "n": 1,
          "scriptPubKey": {
            "asm": "OP_DUP OP_HASH160 d90cc415c11ced0765d4868f7e2e0cb89407735a OP_EQUALVERIFY OP_CHECKSIG",
            "hex": "76a914d90cc415c11ced0765d4868f7e2e0cb89407735a88ac",
            "reqSigs": 1,
            "type": "pubkeyhash",
            "addresses": [
              "Lf1cBqMMR1YBSstsZxjuXqX9oN4y2ph4uy"
            ]
          }
        }
      ],
      "hex": "02000000028e7c6b093d46c6d2d3d4c8d017648d8b1838517ca0459c8c6caddd73fb65c590000000006b48304502210092794583c2489a7449a40f298fe926547b54dbf7d4a70d736681b3eabf1b9d1602205b822dc7bf6fca5021e278c4f45f2916dc645031e2156d1e20e793c0f5e18d2e01210256702cdec676dd9fa1476337b109c7d45c474bc336c37e408cf0ef6e5ef08eacfeffffffdf53b2041b5713a5417f8c9581887401dd6a35110cea6abcbcc150c48075a2c3010000006b4830450221008451adf908d53e2418c35dffe493c4955e16513e7e4a1db08b7968e726de7e16022030396a299c525ef0439cf711f096e7aa700d6cf85a14087466a1859c60ab4cf40121039302d98bdc7b493da0764873f58168a79cc075f02deba950a16c144840b588bcfeffffff02b4d7be00000000001976a91449aaa03855dfca32f51373967dcea35f7304e20988acb8218d08000000001976a914d90cc415c11ced0765d4868f7e2e0cb89407735a88ac6ebe1400"
    }, 
    {
      "txid": "e0dc8ccfcbd3f976942467c4d743b3a9a5a1164af67b5195071271c91878ed00",
      "hash": "e0dc8ccfcbd3f976942467c4d743b3a9a5a1164af67b5195071271c91878ed00",
      "version": 1,
      "size": 226,
      "vsize": 226,
      "locktime": 0,
      "vin": [
        {
          "txid": "f7e8ad9f1526f44395a27daf2d57966d92455645c6a3132de2be97e74c561900",
          "vout": 0,
          "scriptSig": {
            "asm": "304502210093c2a171a10f7c19905c906ecc26030d757bc9ce940958572c5a5b4860ccdc5102201f7d81d72be433072917f8859d913802dff4671a347d9d2b63cfe6d221d32028[ALL] 03dfc335d46f19ae132cdadc3b31a2a4adc1fe61ee5a34ae394992180521a028d4",
            "hex": "48304502210093c2a171a10f7c19905c906ecc26030d757bc9ce940958572c5a5b4860ccdc5102201f7d81d72be433072917f8859d913802dff4671a347d9d2b63cfe6d221d32028012103dfc335d46f19ae132cdadc3b31a2a4adc1fe61ee5a34ae394992180521a028d4"
          },
          "sequence": 4294967295
        }
      ],
      "vout": [
        {
          "value": 0.00054611,
          "n": 0,
          "scriptPubKey": {
            "asm": "OP_DUP OP_HASH160 192839535714b3178b6e2cb180d0014c81e13226 OP_EQUALVERIFY OP_CHECKSIG",
            "hex": "76a914192839535714b3178b6e2cb180d0014c81e1322688ac",
            "reqSigs": 1,
            "type": "pubkeyhash",
            "addresses": [
              "LMWyLpJE2jnE2gf8iea3aew2CxqttHYvjV"
            ]
          }
        }, 
        {
          "value": 0.02323522,
          "n": 1,
          "scriptPubKey": {
            "asm": "OP_DUP OP_HASH160 9a503710e6f7863e18c5f86be93e3379b50fa231 OP_EQUALVERIFY OP_CHECKSIG",
            "hex": "76a9149a503710e6f7863e18c5f86be93e3379b50fa23188ac",
            "reqSigs": 1,
            "type": "pubkeyhash",
            "addresses": [
              "LZHtRCRtTdEe1TDf1JzZ7DZhDjH3yLmsXE"
            ]
          }
        }
      ],
      "hex": "01000000010019564ce797bee22d13a3c6455645926d96572daf7da29543f426159fade8f7000000006b48304502210093c2a171a10f7c19905c906ecc26030d757bc9ce940958572c5a5b4860ccdc5102201f7d81d72be433072917f8859d913802dff4671a347d9d2b63cfe6d221d32028012103dfc335d46f19ae132cdadc3b31a2a4adc1fe61ee5a34ae394992180521a028d4ffffffff0253d50000000000001976a914192839535714b3178b6e2cb180d0014c81e1322688ac42742300000000001976a9149a503710e6f7863e18c5f86be93e3379b50fa23188ac00000000"
    }, 
    {
      "txid": "521584486c9a8c07e5fc6cc405f4e252cc4a8a5410a14eea9c2903bea4dd21af",
      "hash": "521584486c9a8c07e5fc6cc405f4e252cc4a8a5410a14eea9c2903bea4dd21af",
      "version": 1,
      "size": 226,
      "vsize": 226,
      "locktime": 0,
      "vin": [
        {
          "txid": "82cad8796b8fa5a11a7cf17d7ab6d0ec699f783033723f325781d64f1c53a223",
          "vout": 1,
          "scriptSig": {
            "asm": "304502210087691125c99038b57cca2e23107af996276031bca399723a7c936d224420681202204a8747c830c9b43090ad40b192fd9bdc5cf3dd1d13e0e65dce9e228dd9ab7e68[ALL] 037017be79c050a5e1bb05a3ce061d36323476dbf60cf32bd272a1d718e8b79d6b",
            "hex": "48304502210087691125c99038b57cca2e23107af996276031bca399723a7c936d224420681202204a8747c830c9b43090ad40b192fd9bdc5cf3dd1d13e0e65dce9e228dd9ab7e680121037017be79c050a5e1bb05a3ce061d36323476dbf60cf32bd272a1d718e8b79d6b"
          },
          "sequence": 4294967295
        }
      ],
      "vout": [
        {
          "value": 1.04187000,
          "n": 0,
          "scriptPubKey": {
            "asm": "OP_DUP OP_HASH160 30fefa6c3e38cb9728d7e66b491c2ef0a51a5e2b OP_EQUALVERIFY OP_CHECKSIG",
            "hex": "76a91430fefa6c3e38cb9728d7e66b491c2ef0a51a5e2b88ac",
            "reqSigs": 1,
            "type": "pubkeyhash",
            "addresses": [
              "LPh29cnTiJHVqmnBFfhW3MGmnk287pq1Cj"
            ]
          }
        }, 
        {
          "value": 31.98078949,
          "n": 1,
          "scriptPubKey": {
            "asm": "OP_DUP OP_HASH160 7642ddddf605950988e20dc9e278a4928c82c4ae OP_EQUALVERIFY OP_CHECKSIG",
            "hex": "76a9147642ddddf605950988e20dc9e278a4928c82c4ae88ac",
            "reqSigs": 1,
            "type": "pubkeyhash",
            "addresses": [
              "LW1G6ptmuQL6TjA6genFhKbqfJuia6kFHa"
            ]
          }
        }
      ],
      "hex": "010000000123a2531c4fd68157323f723330789f69ecd0b67a7df17c1aa1a58f6b79d8ca82010000006b48304502210087691125c99038b57cca2e23107af996276031bca399723a7c936d224420681202204a8747c830c9b43090ad40b192fd9bdc5cf3dd1d13e0e65dce9e228dd9ab7e680121037017be79c050a5e1bb05a3ce061d36323476dbf60cf32bd272a1d718e8b79d6bffffffff0278c43506000000001976a91430fefa6c3e38cb9728d7e66b491c2ef0a51a5e2b88ace5cf9ebe000000001976a9147642ddddf605950988e20dc9e278a4928c82c4ae88ac00000000"
    }
  ],
  "time": 1517287311,
  "mediantime": 1517286944,
  "nonce": 4279880128,
  "bits": "1a042eae",
  "difficulty": 4011378.762614286,
  "chainwork": "00000000000000000000000000000000000000000000003409636b4b4031db62",
  "previousblockhash": "a411052677c395d658b1745e4b39f3695f113f4bff98daf0d935e78413b2ea10",
  "nextblockhash": "51ea79319437bc8a222d1ade792e148d0b128d58d3ad168cc4f7dd4c1dbf060f"
}
