{
  "hash": "a210c914168287adbafd7314a50f6888330ac49098b476b4d9a285efbc29e756",
  "confirmations": 3234,
  "strippedsize": 254,
  "size": 254,
  "weight": 1016,
  "height": 1357761,
  "version": 536870912,
  "versionHex": "20000000",
  "merkleroot": "e01f7683bd77ccc18771e88f3914fcdec95773b2189b89fa32f2d8cf88e7ce4e",
  "tx": [
    {
      "txid": "e01f7683bd77ccc18771e88f3914fcdec95773b2189b89fa32f2d8cf88e7ce4e",
      "hash": "e01f7683bd77ccc18771e88f3914fcdec95773b2189b89fa32f2d8cf88e7ce4e",
      "version": 1,
      "size": 173,
      "vsize": 173,
      "locktime": 0,
      "vin": [
        {
          "coinbase": "03c1b7141b4d696e656420627920416e74506f6f6c20626a312045205a6c4545fabe6d6d9e3e01d035c568188099f4a1c89601919a39a39dda7dde7fa6889997ef6012f90400000000000000910f00000000000011000000",
          "sequence": 4294967295
        }
      ],
      "vout": [
        {
          "value": 25.00000000,
          "n": 0,
          "scriptPubKey": {
            "asm": "OP_DUP OP_HASH160 0ff3ccc5e8be88afe24b5d634e5852d474dbdff1 OP_EQUALVERIFY OP_CHECKSIG",
            "hex": "76a9140ff3ccc5e8be88afe24b5d634e5852d474dbdff188ac",
            "reqSigs": 1,
            "type": "pubkeyhash",
            "addresses": [
              "LLgJTbzZMsRTCUF1NtvvL9SR1a4pVieW89"
            ]
          }
        }
      ],
      "hex": "01000000010000000000000000000000000000000000000000000000000000000000000000ffffffff5803c1b7141b4d696e656420627920416e74506f6f6c20626a312045205a6c4545fabe6d6d9e3e01d035c568188099f4a1c89601919a39a39dda7dde7fa6889997ef6012f90400000000000000910f00000000000011000000ffffffff0100f90295000000001976a9140ff3ccc5e8be88afe24b5d634e5852d474dbdff188ac00000000"
    }
  ],
  "time": 1517045061,
  "mediantime": 1517044536,
  "nonce": 3784075709,
  "bits": "1a047f14",
  "difficulty": 3731199.183374282,
  "chainwork": "000000000000000000000000000000000000000000000032815aeaa5e602b4b4",
  "previousblockhash": "b07796c4baf33b32f2b4e18bc3f348346a07c2f7bd34c1c38b601e485a1cbd00",
  "nextblockhash": "1ce352b844954557285cf0caa23ac39732bb33e4717ecb04afe39ffc771f23bc"
}
