{
  "hash": "a21d309c02936bf033c3a3a6c87f92db63adb64b5b08820f2c0dbf6134f62e93",
  "confirmations": 3760,
  "strippedsize": 234,
  "size": 234,
  "weight": 936,
  "height": 1357235,
  "version": 536870912,
  "versionHex": "20000000",
  "merkleroot": "3d0eb9512cd3680882cf35bc9c9e40181a6826034a4e6cd232e26c54e45261e3",
  "tx": [
    {
      "txid": "3d0eb9512cd3680882cf35bc9c9e40181a6826034a4e6cd232e26c54e45261e3",
      "hash": "3d0eb9512cd3680882cf35bc9c9e40181a6826034a4e6cd232e26c54e45261e3",
      "version": 1,
      "size": 153,
      "vsize": 153,
      "locktime": 0,
      "vin": [
        {
          "coinbase": "03b3b514045a6b36812cfabe6d6d07fa7958ce57f0c96c3f0a65215ad2534c5a7eab039bfd7b3b6962c578a6d1f94000000000000000042f4c502f081600be3310000000",
          "sequence": 4294967295
        }
      ],
      "vout": [
        {
          "value": 25.00000000,
          "n": 0,
          "scriptPubKey": {
            "asm": "OP_DUP OP_HASH160 57757ed2ecf2052ff3126c397aca7defb9ca2cec OP_EQUALVERIFY OP_CHECKSIG",
            "hex": "76a91457757ed2ecf2052ff3126c397aca7defb9ca2cec88ac",
            "reqSigs": 1,
            "type": "pubkeyhash",
            "addresses": [
              "LTCPodGk5FwcJaRzH9yKnwicxzFUbxp6tN"
            ]
          }
        }
      ],
      "hex": "01000000010000000000000000000000000000000000000000000000000000000000000000ffffffff4403b3b514045a6b36812cfabe6d6d07fa7958ce57f0c96c3f0a65215ad2534c5a7eab039bfd7b3b6962c578a6d1f94000000000000000042f4c502f081600be3310000000ffffffff0100f90295000000001976a91457757ed2ecf2052ff3126c397aca7defb9ca2cec88ac00000000"
    }
  ],
  "time": 1516975745,
  "mediantime": 1516975520,
  "nonce": 2065212041,
  "bits": "1a047f14",
  "difficulty": 3731199.183374282,
  "chainwork": "0000000000000000000000000000000000000000000000320c5f6557ec423748",
  "previousblockhash": "b1b8387eb6a20911107203ce17bdfaed8f094dca6585f11953d1f12bb03ee7bf",
  "nextblockhash": "6bb5a08808e7b37982451ded4de6cb5a7a95639b61d2d02ff812b37bfa4f4156"
}
