{
  "hash": "a238c9a46df3a3f7dca6ca1ebeb85d49039c7f293ee627c7d1d9ba3620896aaa",
  "confirmations": 530,
  "strippedsize": 234,
  "size": 234,
  "weight": 936,
  "height": 1360464,
  "version": 536870912,
  "versionHex": "20000000",
  "merkleroot": "87d3c8236abf6aa88efb4afa612fde471b05d1ee53266611669b71962833eb4a",
  "tx": [
    {
      "txid": "87d3c8236abf6aa88efb4afa612fde471b05d1ee53266611669b71962833eb4a",
      "hash": "87d3c8236abf6aa88efb4afa612fde471b05d1ee53266611669b71962833eb4a",
      "version": 1,
      "size": 153,
      "vsize": 153,
      "locktime": 0,
      "vin": [
        {
          "coinbase": "0350c214045a7237772cfabe6d6da73dce713c17b22f881b8935849c7321a7ac71b5ee12bd67ead2ad5bd014134a4000000000000000042f4c502f082200482001000000",
          "sequence": 4294967295
        }
      ],
      "vout": [
        {
          "value": 25.00000000,
          "n": 0,
          "scriptPubKey": {
            "asm": "OP_DUP OP_HASH160 57757ed2ecf2052ff3126c397aca7defb9ca2cec OP_EQUALVERIFY OP_CHECKSIG",
            "hex": "76a91457757ed2ecf2052ff3126c397aca7defb9ca2cec88ac",
            "reqSigs": 1,
            "type": "pubkeyhash",
            "addresses": [
              "LTCPodGk5FwcJaRzH9yKnwicxzFUbxp6tN"
            ]
          }
        }
      ],
      "hex": "01000000010000000000000000000000000000000000000000000000000000000000000000ffffffff440350c214045a7237772cfabe6d6da73dce713c17b22f881b8935849c7321a7ac71b5ee12bd67ead2ad5bd014134a4000000000000000042f4c502f082200482001000000ffffffff0100f90295000000001976a91457757ed2ecf2052ff3126c397aca7defb9ca2cec88ac00000000"
    }
  ],
  "time": 1517434743,
  "mediantime": 1517434451,
  "nonce": 4112946840,
  "bits": "1a042eae",
  "difficulty": 4011378.762614286,
  "chainwork": "000000000000000000000000000000000000000000000034f693752fcd82b322",
  "previousblockhash": "809034962516248ab81326b476b3e444a09c7f38129693bc4116bf44646e5c6c",
  "nextblockhash": "8f0628702b5ca939ef07c13e6964b3c4353350bc662da79a1f2f97f76b11c0a3"
}
