{
  "hash": "a2a88d0d16a9cefa34b7783cfd7207982489558b9cc252950422ff204b555acf",
  "confirmations": 2707,
  "strippedsize": 254,
  "size": 254,
  "weight": 1016,
  "height": 1358288,
  "version": 536870912,
  "versionHex": "20000000",
  "merkleroot": "1f0a4924434b78d76a2f0114d45dfc75793b894369039815b617c980afd85603",
  "tx": [
    {
      "txid": "1f0a4924434b78d76a2f0114d45dfc75793b894369039815b617c980afd85603",
      "hash": "1f0a4924434b78d76a2f0114d45dfc75793b894369039815b617c980afd85603",
      "version": 1,
      "size": 173,
      "vsize": 173,
      "locktime": 0,
      "vin": [
        {
          "coinbase": "03d0b9141b4d696e656420627920416e74506f6f6c20626a302042205a6d6b66fabe6d6d9ffd0c9400578acc01c773dac107f91c285ee95a7d7280bd2e17af32b3a4a6790400000000000000910e0000000000003c000000",
          "sequence": 4294967295
        }
      ],
      "vout": [
        {
          "value": 25.00000000,
          "n": 0,
          "scriptPubKey": {
            "asm": "OP_DUP OP_HASH160 0ff3ccc5e8be88afe24b5d634e5852d474dbdff1 OP_EQUALVERIFY OP_CHECKSIG",
            "hex": "76a9140ff3ccc5e8be88afe24b5d634e5852d474dbdff188ac",
            "reqSigs": 1,
            "type": "pubkeyhash",
            "addresses": [
              "LLgJTbzZMsRTCUF1NtvvL9SR1a4pVieW89"
            ]
          }
        }
      ],
      "hex": "01000000010000000000000000000000000000000000000000000000000000000000000000ffffffff5803d0b9141b4d696e656420627920416e74506f6f6c20626a302042205a6d6b66fabe6d6d9ffd0c9400578acc01c773dac107f91c285ee95a7d7280bd2e17af32b3a4a6790400000000000000910e0000000000003c000000ffffffff0100f90295000000001976a9140ff3ccc5e8be88afe24b5d634e5852d474dbdff188ac00000000"
    }
  ],
  "time": 1517120358,
  "mediantime": 1517119937,
  "nonce": 46468361,
  "bits": "1a047f14",
  "difficulty": 3731199.183374282,
  "chainwork": "000000000000000000000000000000000000000000000032f68f5f2bfdecee3a",
  "previousblockhash": "1c8eea28f62cfdbbe63e9f3af2a26ad52aeff6c6a1b6ea64ab11f4ea3e12542b",
  "nextblockhash": "15b73e56d2ef1e81ee1a8436f65f5e2ea46fa074e4bc186c5c29f98011673e59"
}
