{
  "hash": "a2e0ca93e3bb80ddeb9afb9947d890f53501e9cd84da82a088636b3a31d258b8",
  "confirmations": 3300,
  "strippedsize": 1223,
  "size": 1259,
  "weight": 4928,
  "height": 1357695,
  "version": 536870912,
  "versionHex": "20000000",
  "merkleroot": "ad41542a5ae70b835a749e18fa65ccf935bfa574e9650c22c3f57bc1bebdb157",
  "tx": [
    {
      "txid": "7a9d6962675de9ddf36190712453660d4fa4e7d88233e7df08e77b649d4870ff",
      "hash": "2c5fac81abd5c2b6af569393ef049f187c3fe2065ec24a78d9031101c9e644ba",
      "version": 1,
      "size": 277,
      "vsize": 250,
      "locktime": 893324687,
      "vin": [
        {
          "coinbase": "037fb7142cfabe6d6dca88279e1202f6d6246e41c34147a45bada0291b1fba40705f044c9b47ea4d8a08000000f09f909f124d696e6564206279206e6f7465726c6565310000000000000000000000000000000000000000000000000000000000000000",
          "sequence": 187
        }
      ],
      "vout": [
        {
          "value": 25.00090400,
          "n": 0,
          "scriptPubKey": {
            "asm": "OP_DUP OP_HASH160 aa3750aa18b8a0f3f0590731e1fab934856680cf OP_EQUALVERIFY OP_CHECKSIG",
            "hex": "76a914aa3750aa18b8a0f3f0590731e1fab934856680cf88ac",
            "reqSigs": 1,
            "type": "pubkeyhash",
            "addresses": [
              "LajyQBeZaBA1NkZDeY8YT5RYYVRkXMvb2T"
            ]
          }
        }, 
        {
          "value": 0.00000000,
          "n": 1,
          "scriptPubKey": {
            "asm": "OP_RETURN aa21a9ed8a4af9eadc604ceb9ea3d9d97cabd69165847ff3077b830399628fe6fd5d7ee6 0000000000000000",
            "hex": "6a24aa21a9ed8a4af9eadc604ceb9ea3d9d97cabd69165847ff3077b830399628fe6fd5d7ee6080000000000000000",
            "type": "nulldata"
          }
        }
      ],
      "hex": "010000000001010000000000000000000000000000000000000000000000000000000000000000ffffffff64037fb7142cfabe6d6dca88279e1202f6d6246e41c34147a45bada0291b1fba40705f044c9b47ea4d8a08000000f09f909f124d696e6564206279206e6f7465726c6565310000000000000000000000000000000000000000000000000000000000000000bb00000002205a0495000000001976a914aa3750aa18b8a0f3f0590731e1fab934856680cf88ac00000000000000002f6a24aa21a9ed8a4af9eadc604ceb9ea3d9d97cabd69165847ff3077b830399628fe6fd5d7ee6080000000000000000012000000000000000000000000000000000000000000000000000000000000000008f0d3f35"
    }, 
    {
      "txid": "917f42f89702189e7bc18e3fb6e545062df866cb8ce19f477b960a714bca6c96",
      "hash": "917f42f89702189e7bc18e3fb6e545062df866cb8ce19f477b960a714bca6c96",
      "version": 1,
      "size": 225,
      "vsize": 225,
      "locktime": 0,
      "vin": [
        {
          "txid": "e8aec78f2d31e2373dab6eca3c8cecb39e3c2553e643a84dbefbaf1bb0322065",
          "vout": 0,
          "scriptSig": {
            "asm": "3044022036839097612c0cd00e5dfce6ea12a41f87bfe759aac0fe49c78d9ac161fd282202205b5004c9e48f8331a073cb98ad632b5f2096003e53bc8510aa32803e50f264dd[ALL] 03d31a81d6878dfe7ba8c0375f00f74081c0da08f47c3326421564224cf2b75822",
            "hex": "473044022036839097612c0cd00e5dfce6ea12a41f87bfe759aac0fe49c78d9ac161fd282202205b5004c9e48f8331a073cb98ad632b5f2096003e53bc8510aa32803e50f264dd012103d31a81d6878dfe7ba8c0375f00f74081c0da08f47c3326421564224cf2b75822"
          },
          "sequence": 4294967295
        }
      ],
      "vout": [
        {
          "value": 94.10100926,
          "n": 0,
          "scriptPubKey": {
            "asm": "OP_DUP OP_HASH160 19c4dff4a342d723610570d2900ef6f727cb2900 OP_EQUALVERIFY OP_CHECKSIG",
            "hex": "76a91419c4dff4a342d723610570d2900ef6f727cb290088ac",
            "reqSigs": 1,
            "type": "pubkeyhash",
            "addresses": [
              "LMaD17RU8jeqzX3D2ueMACC9WXLUCV6i6A"
            ]
          }
        }, 
        {
          "value": 4.00000000,
          "n": 1,
          "scriptPubKey": {
            "asm": "OP_DUP OP_HASH160 ca3e515f5f973dee411747d0301bd873ebf4b63b OP_EQUALVERIFY OP_CHECKSIG",
            "hex": "76a914ca3e515f5f973dee411747d0301bd873ebf4b63b88ac",
            "reqSigs": 1,
            "type": "pubkeyhash",
            "addresses": [
              "LdfKQtCyNCN3zd3pgsfQaJZTRUfVJ3iuZB"
            ]
          }
        }
      ],
      "hex": "0100000001652032b01baffbbe4da843e653253c9eb3ec8c3cca6eab3d37e2312d8fc7aee8000000006a473044022036839097612c0cd00e5dfce6ea12a41f87bfe759aac0fe49c78d9ac161fd282202205b5004c9e48f8331a073cb98ad632b5f2096003e53bc8510aa32803e50f264dd012103d31a81d6878dfe7ba8c0375f00f74081c0da08f47c3326421564224cf2b75822ffffffff02bebee230020000001976a91419c4dff4a342d723610570d2900ef6f727cb290088ac0084d717000000001976a914ca3e515f5f973dee411747d0301bd873ebf4b63b88ac00000000"
    }, 
    {
      "txid": "986b5a842cd98c3966ba5db5e5e0a8be98c002a0818b2200087c21c0e55900aa",
      "hash": "986b5a842cd98c3966ba5db5e5e0a8be98c002a0818b2200087c21c0e55900aa",
      "version": 1,
      "size": 225,
      "vsize": 225,
      "locktime": 0,
      "vin": [
        {
          "txid": "6e5133e30f3e208bcfae1c09e601ed5e5e8d44dab84a5747a8ef0886329ea065",
          "vout": 0,
          "scriptSig": {
            "asm": "3044022051851f990c26cf5727f3459a7cebb5bce4961d54c08b660697aa214c5c2fa16b02206547b3ca9fecd624f137d18e745abaaa5df42125fa38962199b2cac16661ff7a[ALL] 0204cfff349ad6dd09de128a42ab18865fab16d022e8f4aade74190fe5411b9acd",
            "hex": "473044022051851f990c26cf5727f3459a7cebb5bce4961d54c08b660697aa214c5c2fa16b02206547b3ca9fecd624f137d18e745abaaa5df42125fa38962199b2cac16661ff7a01210204cfff349ad6dd09de128a42ab18865fab16d022e8f4aade74190fe5411b9acd"
          },
          "sequence": 4294967295
        }
      ],
      "vout": [
        {
          "value": 2.02847470,
          "n": 0,
          "scriptPubKey": {
            "asm": "OP_DUP OP_HASH160 b73cc34b50773e1007db74b11c99f2235499d911 OP_EQUALVERIFY OP_CHECKSIG",
            "hex": "76a914b73cc34b50773e1007db74b11c99f2235499d91188ac",
            "reqSigs": 1,
            "type": "pubkeyhash",
            "addresses": [
              "LbvpiCKoK6tp6ysNVRtdvxEbyTGrvMmv8F"
            ]
          }
        }, 
        {
          "value": 96.19123545,
          "n": 1,
          "scriptPubKey": {
            "asm": "OP_DUP OP_HASH160 4aa9bf7490fd5563400cb1cae0158ee06f54ae9c OP_EQUALVERIFY OP_CHECKSIG",
            "hex": "76a9144aa9bf7490fd5563400cb1cae0158ee06f54ae9c88ac",
            "reqSigs": 1,
            "type": "pubkeyhash",
            "addresses": [
              "LS2jchQLAFKEFCsvX3hnocPoXieZ4Gy4Hq"
            ]
          }
        }
      ],
      "hex": "010000000165a09e328608efa847574ab8da448d5e5eed01e6091caecf8b203e0fe333516e000000006a473044022051851f990c26cf5727f3459a7cebb5bce4961d54c08b660697aa214c5c2fa16b02206547b3ca9fecd624f137d18e745abaaa5df42125fa38962199b2cac16661ff7a01210204cfff349ad6dd09de128a42ab18865fab16d022e8f4aade74190fe5411b9acdffffffff02ee34170c000000001976a914b73cc34b50773e1007db74b11c99f2235499d91188ac592d583d020000001976a9144aa9bf7490fd5563400cb1cae0158ee06f54ae9c88ac00000000"
    }, 
    {
      "txid": "d861510d08af65be2c82a0a4e4db8c5fe184c24965be4fc354a9af1269881fc3",
      "hash": "d861510d08af65be2c82a0a4e4db8c5fe184c24965be4fc354a9af1269881fc3",
      "version": 1,
      "size": 225,
      "vsize": 225,
      "locktime": 0,
      "vin": [
        {
          "txid": "9fcd4b4a31448dcf23b0beba6aad31626c26cab59c83be1e9202b302ca65f29b",
          "vout": 173,
          "scriptSig": {
            "asm": "304402205b0cc0eb16daef33139f081ed13e97347b8ca21509308ebedaff0ab00dc17757022054246212ce629c115a3e7577ad906bd8eaf16970aa370b4dff8304feac940cca[ALL] 03a657da5d7d92388877d13f665043b6922edc66818226cf0f77650dadea7e11b0",
            "hex": "47304402205b0cc0eb16daef33139f081ed13e97347b8ca21509308ebedaff0ab00dc17757022054246212ce629c115a3e7577ad906bd8eaf16970aa370b4dff8304feac940cca012103a657da5d7d92388877d13f665043b6922edc66818226cf0f77650dadea7e11b0"
          },
          "sequence": 4294967295
        }
      ],
      "vout": [
        {
          "value": 0.21323613,
          "n": 0,
          "scriptPubKey": {
            "asm": "OP_DUP OP_HASH160 c2d1b9e71bfb3e4ed2d5be375eea56d82f4d988b OP_EQUALVERIFY OP_CHECKSIG",
            "hex": "76a914c2d1b9e71bfb3e4ed2d5be375eea56d82f4d988b88ac",
            "reqSigs": 1,
            "type": "pubkeyhash",
            "addresses": [
              "Lcz4bTZVvsCAhHd4ifNf7Qv6rUdwQVKsH2"
            ]
          }
        }, 
        {
          "value": 0.00115659,
          "n": 1,
          "scriptPubKey": {
            "asm": "OP_DUP OP_HASH160 d39965c988405d2d003f470007541edd8eff2fdf OP_EQUALVERIFY OP_CHECKSIG",
            "hex": "76a914d39965c988405d2d003f470007541edd8eff2fdf88ac",
            "reqSigs": 1,
            "type": "pubkeyhash",
            "addresses": [
              "LeWnbwaPJubsH7YkQGkeD4em8aTu52fBRh"
            ]
          }
        }
      ],
      "hex": "01000000019bf265ca02b302921ebe839cb5ca266c6231ad6ababeb023cf8d44314a4bcd9fad0000006a47304402205b0cc0eb16daef33139f081ed13e97347b8ca21509308ebedaff0ab00dc17757022054246212ce629c115a3e7577ad906bd8eaf16970aa370b4dff8304feac940cca012103a657da5d7d92388877d13f665043b6922edc66818226cf0f77650dadea7e11b0ffffffff025d5f4501000000001976a914c2d1b9e71bfb3e4ed2d5be375eea56d82f4d988b88accbc30100000000001976a914d39965c988405d2d003f470007541edd8eff2fdf88ac00000000"
    }, 
    {
      "txid": "ec37e5b381438d7f15dcfa649a1c4aa487242feaa1335bfc78cadb90b8bde3d6",
      "hash": "ec37e5b381438d7f15dcfa649a1c4aa487242feaa1335bfc78cadb90b8bde3d6",
      "version": 1,
      "size": 226,
      "vsize": 226,
      "locktime": 0,
      "vin": [
        {
          "txid": "f01bd5aafde9c51a869a309adc1e1cbdb6d716406baee890335cec650f05339a",
          "vout": 431,
          "scriptSig": {
            "asm": "304502210092d505e71049c2b8e819671b2b4aac109517165f09b6b1beeca007a5cade3952022008bec61bf6ea2a58edd3d473c1dbb813859d6807f18ad8c4c299e160a1faa543[ALL] 0321dd8ea954fb8e2f8f83283434e914e5f0498d6731abeddeb00b446abfe0f9ea",
            "hex": "48304502210092d505e71049c2b8e819671b2b4aac109517165f09b6b1beeca007a5cade3952022008bec61bf6ea2a58edd3d473c1dbb813859d6807f18ad8c4c299e160a1faa54301210321dd8ea954fb8e2f8f83283434e914e5f0498d6731abeddeb00b446abfe0f9ea"
          },
          "sequence": 4294967295
        }
      ],
      "vout": [
        {
          "value": 0.20852163,
          "n": 0,
          "scriptPubKey": {
            "asm": "OP_DUP OP_HASH160 e3a562a5ea3f88114ee9359689fb256b3964866b OP_EQUALVERIFY OP_CHECKSIG",
            "hex": "76a914e3a562a5ea3f88114ee9359689fb256b3964866b88ac",
            "reqSigs": 1,
            "type": "pubkeyhash",
            "addresses": [
              "Lfydmw7AjoC3ivSdPY2Dt8eMvBiAvmzAt7"
            ]
          }
        }, 
        {
          "value": 0.00093948,
          "n": 1,
          "scriptPubKey": {
            "asm": "OP_DUP OP_HASH160 adb858f71fd54f58b884377882f3ebc40b0b267a OP_EQUALVERIFY OP_CHECKSIG",
            "hex": "76a914adb858f71fd54f58b884377882f3ebc40b0b267a88ac",
            "reqSigs": 1,
            "type": "pubkeyhash",
            "addresses": [
              "Lb4W16AvbQB7RbG2NJJAKs5feHy7t6ytbX"
            ]
          }
        }
      ],
      "hex": "01000000019a33050f65ec5c3390e8ae6b4016d7b6bd1c1edc9a309a861ac5e9fdaad51bf0af0100006b48304502210092d505e71049c2b8e819671b2b4aac109517165f09b6b1beeca007a5cade3952022008bec61bf6ea2a58edd3d473c1dbb813859d6807f18ad8c4c299e160a1faa54301210321dd8ea954fb8e2f8f83283434e914e5f0498d6731abeddeb00b446abfe0f9eaffffffff02c32d3e01000000001976a914e3a562a5ea3f88114ee9359689fb256b3964866b88acfc6e0100000000001976a914adb858f71fd54f58b884377882f3ebc40b0b267a88ac00000000"
    }
  ],
  "time": 1517035980,
  "mediantime": 1517035425,
  "nonce": 8730710,
  "bits": "1a047f14",
  "difficulty": 3731199.183374282,
  "chainwork": "00000000000000000000000000000000000000000000003272ad3e2e1f403600",
  "previousblockhash": "8f6af8653ef8baa079ede9cfda49a7c9d1e1c6ff9a152da4c6f53503b32b8e4e",
  "nextblockhash": "27d9407a9fa62450c86e3c0fc5dc08e167b83f67ebbb6e041ead5b8b1435de83"
}
