{
  "hash": "a2f4396724ba8e0a5296edc14b66658901be4048d7d1e4e976f10880e3b995c5",
  "confirmations": 492,
  "strippedsize": 234,
  "size": 234,
  "weight": 936,
  "height": 1360502,
  "version": 536870912,
  "versionHex": "20000000",
  "merkleroot": "c74233ed23cbee4e8acafd8ae9b6efd9282cf70596ebc8a1545bec732c859d8f",
  "tx": [
    {
      "txid": "c74233ed23cbee4e8acafd8ae9b6efd9282cf70596ebc8a1545bec732c859d8f",
      "hash": "c74233ed23cbee4e8acafd8ae9b6efd9282cf70596ebc8a1545bec732c859d8f",
      "version": 1,
      "size": 153,
      "vsize": 153,
      "locktime": 0,
      "vin": [
        {
          "coinbase": "0376c214045a724b0e2cfabe6d6d0bf6b6c74bd4585e0e39c989830055856bd373e5bcdb949c1061d5ca92371de54000000000000000042f4c502f085600479a14000000",
          "sequence": 4294967295
        }
      ],
      "vout": [
        {
          "value": 25.00000000,
          "n": 0,
          "scriptPubKey": {
            "asm": "OP_DUP OP_HASH160 57757ed2ecf2052ff3126c397aca7defb9ca2cec OP_EQUALVERIFY OP_CHECKSIG",
            "hex": "76a91457757ed2ecf2052ff3126c397aca7defb9ca2cec88ac",
            "reqSigs": 1,
            "type": "pubkeyhash",
            "addresses": [
              "LTCPodGk5FwcJaRzH9yKnwicxzFUbxp6tN"
            ]
          }
        }
      ],
      "hex": "01000000010000000000000000000000000000000000000000000000000000000000000000ffffffff440376c214045a724b0e2cfabe6d6d0bf6b6c74bd4585e0e39c989830055856bd373e5bcdb949c1061d5ca92371de54000000000000000042f4c502f085600479a14000000ffffffff0100f90295000000001976a91457757ed2ecf2052ff3126c397aca7defb9ca2cec88ac00000000"
    }
  ],
  "time": 1517439758,
  "mediantime": 1517439006,
  "nonce": 3353691529,
  "bits": "1a042eae",
  "difficulty": 4011378.762614286,
  "chainwork": "000000000000000000000000000000000000000000000034ffa96d4ec057dc6e",
  "previousblockhash": "a2c7f62ea10f10823c63fd4cb60cd0158c133f33e2b05618a3022d392fff2555",
  "nextblockhash": "9567cb1dce33ab1e8afb9075f36226254e7cb861eaf9d39ed6e6e0807fa3be5c"
}
