{
  "hash": "a34e657ed72aecf4bf98c9d87c43744e239736e79754b7ffef4dbf32f80adc8e",
  "confirmations": 3372,
  "strippedsize": 4573,
  "size": 4718,
  "weight": 18437,
  "height": 1357623,
  "version": 536870912,
  "versionHex": "20000000",
  "merkleroot": "deae19615849615a486398a252b2700885e67224bb88fcaab9f900b0d43a8b70",
  "tx": [
    {
      "txid": "2c397e44d9ca176a8dc4f7fe7e5361c1ff6267cceb0f875a52df776cd6538443",
      "hash": "76f30c7daf950c5e11ef056d218fa41974e81b60af52e98de8b1271517804119",
      "version": 1,
      "size": 253,
      "vsize": 226,
      "locktime": 0,
      "vin": [
        {
          "coinbase": "0337b71441d69aff705d243941d69aff705c0b1d2f4c54432e544f502ffabe6d6df3e546cf42396b54ac03eabfa015df6054fc4ddb13f7e0c290a872d1197835520100000000000000162d5a360300000000000000",
          "sequence": 4294967295
        }
      ],
      "vout": [
        {
          "value": 25.02201808,
          "n": 0,
          "scriptPubKey": {
            "asm": "OP_DUP OP_HASH160 0c617fdb2ea42aed30a509595ee21ba3f6688db0 OP_EQUALVERIFY OP_CHECKSIG",
            "hex": "76a9140c617fdb2ea42aed30a509595ee21ba3f6688db088ac",
            "reqSigs": 1,
            "type": "pubkeyhash",
            "addresses": [
              "LLMRAtr3qBje2ySEa3CnZ55LA4TQMWnRY3"
            ]
          }
        }, 
        {
          "value": 0.00000000,
          "n": 1,
          "scriptPubKey": {
            "asm": "OP_RETURN aa21a9ed7c306c34b723e66c80629ad094ee479a836bb0789b38b61aeff7d6ee369fbb2b",
            "hex": "6a24aa21a9ed7c306c34b723e66c80629ad094ee479a836bb0789b38b61aeff7d6ee369fbb2b",
            "type": "nulldata"
          }
        }
      ],
      "hex": "010000000001010000000000000000000000000000000000000000000000000000000000000000ffffffff550337b71441d69aff705d243941d69aff705c0b1d2f4c54432e544f502ffabe6d6df3e546cf42396b54ac03eabfa015df6054fc4ddb13f7e0c290a872d1197835520100000000000000162d5a360300000000000000ffffffff02d0912495000000001976a9140c617fdb2ea42aed30a509595ee21ba3f6688db088ac0000000000000000266a24aa21a9ed7c306c34b723e66c80629ad094ee479a836bb0789b38b61aeff7d6ee369fbb2b0120000000000000000000000000000000000000000000000000000000000000000000000000"
    }, 
    {
      "txid": "9e6ebe5f6a7c25caf0b67607b14961bd3b8df4a54839f26c9a04d7828e58ceba",
      "hash": "9e6ebe5f6a7c25caf0b67607b14961bd3b8df4a54839f26c9a04d7828e58ceba",
      "version": 1,
      "size": 372,
      "vsize": 372,
      "locktime": 0,
      "vin": [
        {
          "txid": "1c531f9433a3368826903b034bc55c3ba84831ce5b66a075015f1a0bc938aaec",
          "vout": 1,
          "scriptSig": {
            "asm": "0 3045022100df838987b5bcdcce9afe7ca98007a394e94a876bf76e8a21d3e890a7b0894d3802204d4b4ef382140d80580befa9abe5b9df329cfe4eeafb6020a7c1ce812570ed69[ALL] 304402207992f9cfb4278e3fec6b7e1237c604c8db046041aa08c33df2e0428773c6b24b02207acfb56544c37ea1f11c420f973aae4fbe8efd5b1a49ed060fc31d38821db43d[ALL] 5221030b30e18cdd37e4ec4354ae28bcea4ab44b21a9cfa4355ba172515f46411642fa2102a37e026858fe8ecd1526a05108f691217908466f224ca9f59e1b1c4ff75ca1f02103981c1b47bed053b76cd4f4576eaac404097298f119bf5bb96eb54d85d450e08653ae",
            "hex": "00483045022100df838987b5bcdcce9afe7ca98007a394e94a876bf76e8a21d3e890a7b0894d3802204d4b4ef382140d80580befa9abe5b9df329cfe4eeafb6020a7c1ce812570ed690147304402207992f9cfb4278e3fec6b7e1237c604c8db046041aa08c33df2e0428773c6b24b02207acfb56544c37ea1f11c420f973aae4fbe8efd5b1a49ed060fc31d38821db43d014c695221030b30e18cdd37e4ec4354ae28bcea4ab44b21a9cfa4355ba172515f46411642fa2102a37e026858fe8ecd1526a05108f691217908466f224ca9f59e1b1c4ff75ca1f02103981c1b47bed053b76cd4f4576eaac404097298f119bf5bb96eb54d85d450e08653ae"
          },
          "sequence": 4294967295
        }
      ],
      "vout": [
        {
          "value": 0.03705993,
          "n": 0,
          "scriptPubKey": {
            "asm": "OP_HASH160 221be7afbfdcf67319da3ce34dda31070b847ec1 OP_EQUAL",
            "hex": "a914221be7afbfdcf67319da3ce34dda31070b847ec187",
            "reqSigs": 1,
            "type": "scripthash",
            "addresses": [
              "MB1WdpxF2aaXUoCiE6qh3CVNhahNftaUqH"
            ]
          }
        }, 
        {
          "value": 0.23754850,
          "n": 1,
          "scriptPubKey": {
            "asm": "OP_DUP OP_HASH160 f08eeca8c3ae4c57fd041f2c414e37892509822e OP_EQUALVERIFY OP_CHECKSIG",
            "hex": "76a914f08eeca8c3ae4c57fd041f2c414e37892509822e88ac",
            "reqSigs": 1,
            "type": "pubkeyhash",
            "addresses": [
              "Lh9uepMKz28NaxDfuCPxvn1P7zHrp4vSK1"
            ]
          }
        }
      ],
      "hex": "0100000001ecaa38c90b1a5f0175a0665bce3148a83b5cc54b033b90268836a333941f531c01000000fdfd0000483045022100df838987b5bcdcce9afe7ca98007a394e94a876bf76e8a21d3e890a7b0894d3802204d4b4ef382140d80580befa9abe5b9df329cfe4eeafb6020a7c1ce812570ed690147304402207992f9cfb4278e3fec6b7e1237c604c8db046041aa08c33df2e0428773c6b24b02207acfb56544c37ea1f11c420f973aae4fbe8efd5b1a49ed060fc31d38821db43d014c695221030b30e18cdd37e4ec4354ae28bcea4ab44b21a9cfa4355ba172515f46411642fa2102a37e026858fe8ecd1526a05108f691217908466f224ca9f59e1b1c4ff75ca1f02103981c1b47bed053b76cd4f4576eaac404097298f119bf5bb96eb54d85d450e08653aeffffffff02898c38000000000017a914221be7afbfdcf67319da3ce34dda31070b847ec18762786a01000000001976a914f08eeca8c3ae4c57fd041f2c414e37892509822e88ac00000000"
    }, 
    {
      "txid": "90773be2268674ff7772aa6e130179332892cf3c7f52731ac8b00c1e2f6d69c4",
      "hash": "90773be2268674ff7772aa6e130179332892cf3c7f52731ac8b00c1e2f6d69c4",
      "version": 1,
      "size": 191,
      "vsize": 191,
      "locktime": 0,
      "vin": [
        {
          "txid": "178ea946d812c3ccf3a99c918fba9327e80b76e1c32dea36b6b888bcca82f920",
          "vout": 1,
          "scriptSig": {
            "asm": "304402202f805c7d2e6841b8d4de1446c4c1e3debf29e38733a8f732cf9a717940a720ce0220651fa3601ef8c20a8d48e379aa013492472df7e56878260b53c7c9e156e59134[ALL] 020fbed43e5e80d61d93f73f2ce97c9d7386827ab746228b7371ce5c724fa59998",
            "hex": "47304402202f805c7d2e6841b8d4de1446c4c1e3debf29e38733a8f732cf9a717940a720ce0220651fa3601ef8c20a8d48e379aa013492472df7e56878260b53c7c9e156e591340121020fbed43e5e80d61d93f73f2ce97c9d7386827ab746228b7371ce5c724fa59998"
          },
          "sequence": 4294967295
        }
      ],
      "vout": [
        {
          "value": 2.10208752,
          "n": 0,
          "scriptPubKey": {
            "asm": "OP_DUP OP_HASH160 5b7527c073717cf4764d8c8c76079a44421234a3 OP_EQUALVERIFY OP_CHECKSIG",
            "hex": "76a9145b7527c073717cf4764d8c8c76079a44421234a388ac",
            "reqSigs": 1,
            "type": "pubkeyhash",
            "addresses": [
              "LTZY6m6ok8QFaSrgMdjeRLAi6seETvQaso"
            ]
          }
        }
      ],
      "hex": "010000000120f982cabc88b8b636ea2dc3e1760be82793ba8f919ca9f3ccc312d846a98e17010000006a47304402202f805c7d2e6841b8d4de1446c4c1e3debf29e38733a8f732cf9a717940a720ce0220651fa3601ef8c20a8d48e379aa013492472df7e56878260b53c7c9e156e591340121020fbed43e5e80d61d93f73f2ce97c9d7386827ab746228b7371ce5c724fa59998ffffffff01f087870c000000001976a9145b7527c073717cf4764d8c8c76079a44421234a388ac00000000"
    }, 
    {
      "txid": "7aed7643aabf9e98238dafedcf7e9404fa72e3766afbf938b36bc8bd2298fcc7",
      "hash": "7aed7643aabf9e98238dafedcf7e9404fa72e3766afbf938b36bc8bd2298fcc7",
      "version": 2,
      "size": 815,
      "vsize": 815,
      "locktime": 0,
      "vin": [
        {
          "txid": "a0842004384ef106c060b3c647a43b65eea007d7afa19d8162e1cf67058f711f",
          "vout": 0,
          "scriptSig": {
            "asm": "304402207cf856e621c3046d012719167ce4d5b0ec897b5b34937d966662e5da918f29d60220479780f823607570e6ab566eadcf0e015449962609d0a8995a51c3c8e8ed2b5d[ALL] 02051a9a87596cd292f5aab0333938ef07aed7bec9e9d446870c3fe9d3979e662d",
            "hex": "47304402207cf856e621c3046d012719167ce4d5b0ec897b5b34937d966662e5da918f29d60220479780f823607570e6ab566eadcf0e015449962609d0a8995a51c3c8e8ed2b5d012102051a9a87596cd292f5aab0333938ef07aed7bec9e9d446870c3fe9d3979e662d"
          },
          "sequence": 4294967295
        }, 
        {
          "txid": "c53fa988e2b971c0d42ee6b78e6735cb61de8164ec57f8e649bab03abc56ae1f",
          "vout": 0,
          "scriptSig": {
            "asm": "30440220231f13230efb84e988450fa9f00b7c1c7d3d323ca9ef4678accb738b041eb1e4022057093a6dc938a3ce8908ef3c9fb9e2463de1242e9584cc10c12302ad727f6e7d[ALL] 03ad976b40903c27cce387293f38c34706c27428bef8ceb980cd17c33345eb3c3a",
            "hex": "4730440220231f13230efb84e988450fa9f00b7c1c7d3d323ca9ef4678accb738b041eb1e4022057093a6dc938a3ce8908ef3c9fb9e2463de1242e9584cc10c12302ad727f6e7d012103ad976b40903c27cce387293f38c34706c27428bef8ceb980cd17c33345eb3c3a"
          },
          "sequence": 4294967295
        }, 
        {
          "txid": "85bb30197e67140f39430a9f5ee11de837e63ad4a8060cfdb89f09fc337c571f",
          "vout": 19,
          "scriptSig": {
            "asm": "304402200975ba5489561884fe8dc149ad2811668e5c495e96ce9eaff0a43a57ad104514022019c655e42f01f9d8dce0d92fe517bb5c7d56420d88d1fe7e89bf9afb88812e16[ALL] 02f25f718d8fb0e6a5401fa5a46a236ee81f31358166bc9184e850b87ab4d494eb",
            "hex": "47304402200975ba5489561884fe8dc149ad2811668e5c495e96ce9eaff0a43a57ad104514022019c655e42f01f9d8dce0d92fe517bb5c7d56420d88d1fe7e89bf9afb88812e16012102f25f718d8fb0e6a5401fa5a46a236ee81f31358166bc9184e850b87ab4d494eb"
          },
          "sequence": 4294967295
        }, 
        {
          "txid": "d1e42ccfce5c999cb99eaf08c008e26171eedf15abac135e833daad911008f1e",
          "vout": 450,
          "scriptSig": {
            "asm": "3045022100dea5e457f45ecfd5bb1483794216a160d4142796c0742bf9456a411054b8642902206f8b52dd866b385424a11b824dc9f2e5249ef921c35f3a37ffe354227d608094[ALL] 02aee91e84291ebf7ee4a2e4bf4c025f8c12be2eb1d9856e6c0b9bbb5cc7db618d",
            "hex": "483045022100dea5e457f45ecfd5bb1483794216a160d4142796c0742bf9456a411054b8642902206f8b52dd866b385424a11b824dc9f2e5249ef921c35f3a37ffe354227d608094012102aee91e84291ebf7ee4a2e4bf4c025f8c12be2eb1d9856e6c0b9bbb5cc7db618d"
          },
          "sequence": 4294967295
        }, 
        {
          "txid": "d1e42ccfce5c999cb99eaf08c008e26171eedf15abac135e833daad911008f1e",
          "vout": 394,
          "scriptSig": {
            "asm": "3045022100b202fbdb8b9e295cd6173b6b01f7983dbad0b40c84a66f66656fd19c32040e3002201cd2695bff762d0fe8e3ec257a71e918dc515cf0cc30fb92da5f07d3d8326aa6[ALL] 039493753ecb5ae2b67dd59264704ea3ec1fff19da4daa80baff9e28f1fcf575ec",
            "hex": "483045022100b202fbdb8b9e295cd6173b6b01f7983dbad0b40c84a66f66656fd19c32040e3002201cd2695bff762d0fe8e3ec257a71e918dc515cf0cc30fb92da5f07d3d8326aa60121039493753ecb5ae2b67dd59264704ea3ec1fff19da4daa80baff9e28f1fcf575ec"
          },
          "sequence": 4294967295
        }
      ],
      "vout": [
        {
          "value": 0.86124315,
          "n": 0,
          "scriptPubKey": {
            "asm": "OP_DUP OP_HASH160 5d688e6b00f94e7c85059d8ac1cd6a73111a0340 OP_EQUALVERIFY OP_CHECKSIG",
            "hex": "76a9145d688e6b00f94e7c85059d8ac1cd6a73111a034088ac",
            "reqSigs": 1,
            "type": "pubkeyhash",
            "addresses": [
              "LTjrMkfon3Tuk4ZJzFQFCCDxddspcWLkcV"
            ]
          }
        }, 
        {
          "value": 0.03360047,
          "n": 1,
          "scriptPubKey": {
            "asm": "OP_DUP OP_HASH160 f968ae3dd6bd8ccda4194ea7cd164feac13e6e42 OP_EQUALVERIFY OP_CHECKSIG",
            "hex": "76a914f968ae3dd6bd8ccda4194ea7cd164feac13e6e4288ac",
            "reqSigs": 1,
            "type": "pubkeyhash",
            "addresses": [
              "LhxhvKK7WkUnjnjJ6xUyYUMHpWQ7X1NzMM"
            ]
          }
        }
      ],
      "hex": "02000000051f718f0567cfe162819da1afd707a0ee653ba447c6b360c006f14e38042084a0000000006a47304402207cf856e621c3046d012719167ce4d5b0ec897b5b34937d966662e5da918f29d60220479780f823607570e6ab566eadcf0e015449962609d0a8995a51c3c8e8ed2b5d012102051a9a87596cd292f5aab0333938ef07aed7bec9e9d446870c3fe9d3979e662dffffffff1fae56bc3ab0ba49e6f857ec6481de61cb35678eb7e62ed4c071b9e288a93fc5000000006a4730440220231f13230efb84e988450fa9f00b7c1c7d3d323ca9ef4678accb738b041eb1e4022057093a6dc938a3ce8908ef3c9fb9e2463de1242e9584cc10c12302ad727f6e7d012103ad976b40903c27cce387293f38c34706c27428bef8ceb980cd17c33345eb3c3affffffff1f577c33fc099fb8fd0c06a8d43ae637e81de15e9f0a43390f14677e1930bb85130000006a47304402200975ba5489561884fe8dc149ad2811668e5c495e96ce9eaff0a43a57ad104514022019c655e42f01f9d8dce0d92fe517bb5c7d56420d88d1fe7e89bf9afb88812e16012102f25f718d8fb0e6a5401fa5a46a236ee81f31358166bc9184e850b87ab4d494ebffffffff1e8f0011d9aa3d835e13acab15dfee7161e208c008af9eb99c995ccecf2ce4d1c20100006b483045022100dea5e457f45ecfd5bb1483794216a160d4142796c0742bf9456a411054b8642902206f8b52dd866b385424a11b824dc9f2e5249ef921c35f3a37ffe354227d608094012102aee91e84291ebf7ee4a2e4bf4c025f8c12be2eb1d9856e6c0b9bbb5cc7db618dffffffff1e8f0011d9aa3d835e13acab15dfee7161e208c008af9eb99c995ccecf2ce4d18a0100006b483045022100b202fbdb8b9e295cd6173b6b01f7983dbad0b40c84a66f66656fd19c32040e3002201cd2695bff762d0fe8e3ec257a71e918dc515cf0cc30fb92da5f07d3d8326aa60121039493753ecb5ae2b67dd59264704ea3ec1fff19da4daa80baff9e28f1fcf575ecffffffff021b272205000000001976a9145d688e6b00f94e7c85059d8ac1cd6a73111a034088ac2f453300000000001976a914f968ae3dd6bd8ccda4194ea7cd164feac13e6e4288ac00000000"
    }, 
    {
      "txid": "bdcf09838cdc1d35632b990db46e0cc82b43ac5158c1de543b419e27417a2b7f",
      "hash": "bdcf09838cdc1d35632b990db46e0cc82b43ac5158c1de543b419e27417a2b7f",
      "version": 1,
      "size": 226,
      "vsize": 226,
      "locktime": 0,
      "vin": [
        {
          "txid": "706d89f6034d307a31139e4672a9340c39c6471e60e58a8fe6d92d10324f404a",
          "vout": 1,
          "scriptSig": {
            "asm": "3045022100ce5aa52acb94fd0423357716afa6c86a96184cd6ed432dc8cef17089dede30f002204f8c9c3156e03d1a405405529f284d575e46c44a3e34ae710a1f6e5489b265bf[ALL] 02512077a4b02a799a9da51a9f5277f151cbfa5884449af807e41d0e46791fc407",
            "hex": "483045022100ce5aa52acb94fd0423357716afa6c86a96184cd6ed432dc8cef17089dede30f002204f8c9c3156e03d1a405405529f284d575e46c44a3e34ae710a1f6e5489b265bf012102512077a4b02a799a9da51a9f5277f151cbfa5884449af807e41d0e46791fc407"
          },
          "sequence": 4294967295
        }
      ],
      "vout": [
        {
          "value": 0.08000000,
          "n": 0,
          "scriptPubKey": {
            "asm": "OP_DUP OP_HASH160 4f6bc65c7c267a23686a3d13579df6556dc08b5c OP_EQUALVERIFY OP_CHECKSIG",
            "hex": "76a9144f6bc65c7c267a23686a3d13579df6556dc08b5c88ac",
            "reqSigs": 1,
            "type": "pubkeyhash",
            "addresses": [
              "LSTtkhHXNu2psaNRPp7NL9Eyn5x2Wska1H"
            ]
          }
        }, 
        {
          "value": 4.02466995,
          "n": 1,
          "scriptPubKey": {
            "asm": "OP_DUP OP_HASH160 41d00d36281488f47bea719892e37de35728d765 OP_EQUALVERIFY OP_CHECKSIG",
            "hex": "76a91441d00d36281488f47bea719892e37de35728d76588ac",
            "reqSigs": 1,
            "type": "pubkeyhash",
            "addresses": [
              "LRDwRMu33KRiUgbngvT6CUcojVTMAokSii"
            ]
          }
        }
      ],
      "hex": "01000000014a404f32102dd9e68f8ae5601e47c6390c34a972469e13317a304d03f6896d70010000006b483045022100ce5aa52acb94fd0423357716afa6c86a96184cd6ed432dc8cef17089dede30f002204f8c9c3156e03d1a405405529f284d575e46c44a3e34ae710a1f6e5489b265bf012102512077a4b02a799a9da51a9f5277f151cbfa5884449af807e41d0e46791fc407ffffffff0200127a00000000001976a9144f6bc65c7c267a23686a3d13579df6556dc08b5c88acb328fd17000000001976a91441d00d36281488f47bea719892e37de35728d76588ac00000000"
    }, 
    {
      "txid": "ac949bd09a644ae0b182f612afe4c395149a2d142e056030c1e24c733ba6401a",
      "hash": "ac949bd09a644ae0b182f612afe4c395149a2d142e056030c1e24c733ba6401a",
      "version": 2,
      "size": 815,
      "vsize": 815,
      "locktime": 1357621,
      "vin": [
        {
          "txid": "9a28c1587ab6aa7da95b1efed3879092b040a59027fabda6afcb91da34eea3f1",
          "vout": 0,
          "scriptSig": {
            "asm": "304402206a6eb37d088b7d4d84bba53bb925ec609ad993d6b4bf7eccc5638a68c7f3755502203e3f1cb92d342829a66fa768b903ee481e625232f4bbc079c2ab785bb6dc05ce[ALL] 031dc0ff0ede67451babde84c5f029c506ffe48ff0e209f64c09e6c4ce913153e1",
            "hex": "47304402206a6eb37d088b7d4d84bba53bb925ec609ad993d6b4bf7eccc5638a68c7f3755502203e3f1cb92d342829a66fa768b903ee481e625232f4bbc079c2ab785bb6dc05ce0121031dc0ff0ede67451babde84c5f029c506ffe48ff0e209f64c09e6c4ce913153e1"
          },
          "sequence": 4294967294
        }, 
        {
          "txid": "6f4c3e53afd25db0d4bfd75ceca6bb3ca2318f7978d2d90b3775a3632b1edce3",
          "vout": 1,
          "scriptSig": {
            "asm": "30450221009a8d53d1423a7b29e376d1b38bc040b09e5777dcd694bd0c28962625524a333a02205b166529138243d2c282e7ff9817710fde0b200afce072e9c53e43603af24b5b[ALL] 037a820c72066cc4fe7dccf8970708130c75978acc50f6a8a841782d3dc05b2940",
            "hex": "4830450221009a8d53d1423a7b29e376d1b38bc040b09e5777dcd694bd0c28962625524a333a02205b166529138243d2c282e7ff9817710fde0b200afce072e9c53e43603af24b5b0121037a820c72066cc4fe7dccf8970708130c75978acc50f6a8a841782d3dc05b2940"
          },
          "sequence": 4294967294
        }, 
        {
          "txid": "d99023471ef09f6ccb28c61426137e2dad97f148323ef02e3821bd68566febed",
          "vout": 0,
          "scriptSig": {
            "asm": "304402200fdd1b54459e8666c62e0976096a77a99c141091a3441197b094eacb9a53e179022047cbb80fa493e3ab1f6bc9db47c9dda2c0791044cc5f741c16a32a5546078278[ALL] 037ed783159554bebe70a50fdc2978ba1725d58100ac96887e6cf1a2011b9de538",
            "hex": "47304402200fdd1b54459e8666c62e0976096a77a99c141091a3441197b094eacb9a53e179022047cbb80fa493e3ab1f6bc9db47c9dda2c0791044cc5f741c16a32a55460782780121037ed783159554bebe70a50fdc2978ba1725d58100ac96887e6cf1a2011b9de538"
          },
          "sequence": 4294967294
        }, 
        {
          "txid": "34b6834195573154dabf828ea53e9dd3503ab93466be8395a14f87ca5938537d",
          "vout": 1,
          "scriptSig": {
            "asm": "3044022004b12119dbff2c5024362b22f420bd8eb2a16910d5d0988c64fa42b6e921db46022067c262cac17461a3355124070753293fa77729d955340fbb0bf98fb813aa2619[ALL] 02418d0b02479cc8e7016de56b10b93dc6b663f2386d4be019ee3351c43177db10",
            "hex": "473044022004b12119dbff2c5024362b22f420bd8eb2a16910d5d0988c64fa42b6e921db46022067c262cac17461a3355124070753293fa77729d955340fbb0bf98fb813aa2619012102418d0b02479cc8e7016de56b10b93dc6b663f2386d4be019ee3351c43177db10"
          },
          "sequence": 4294967294
        }, 
        {
          "txid": "2325ed0f4f06f432964cb36d7980cb3cf65d760cfee297fec02e58d797460587",
          "vout": 0,
          "scriptSig": {
            "asm": "30450221009279e49cae2b93e6cf8aebb49ca9e72090d69cd15c3e05ab9aa8d0f66815f32f0220364b06e41240e45941211033fa7954917225db31c80904ac496a00bfad054251[ALL] 03711ccaf888785a5cd8920c3cbe85d414e8352c16d3ddeb645c2815be67d2ea81",
            "hex": "4830450221009279e49cae2b93e6cf8aebb49ca9e72090d69cd15c3e05ab9aa8d0f66815f32f0220364b06e41240e45941211033fa7954917225db31c80904ac496a00bfad054251012103711ccaf888785a5cd8920c3cbe85d414e8352c16d3ddeb645c2815be67d2ea81"
          },
          "sequence": 4294967294
        }
      ],
      "vout": [
        {
          "value": 0.00850096,
          "n": 0,
          "scriptPubKey": {
            "asm": "OP_DUP OP_HASH160 e102b0778d4a83bdbfb47544825dbbd42a4c390e OP_EQUALVERIFY OP_CHECKSIG",
            "hex": "76a914e102b0778d4a83bdbfb47544825dbbd42a4c390e88ac",
            "reqSigs": 1,
            "type": "pubkeyhash",
            "addresses": [
              "LfjhXERynufysDjUqi8TPynUDybyf83XPh"
            ]
          }
        }, 
        {
          "value": 0.19638250,
          "n": 1,
          "scriptPubKey": {
            "asm": "OP_DUP OP_HASH160 d1fbb7db09c31d7e194676ee97455d625cc66775 OP_EQUALVERIFY OP_CHECKSIG",
            "hex": "76a914d1fbb7db09c31d7e194676ee97455d625cc6677588ac",
            "reqSigs": 1,
            "type": "pubkeyhash",
            "addresses": [
              "LeNF2zUVsEjigmcXq7APaYxUgH8EyMgvmp"
            ]
          }
        }
      ],
      "hex": "0200000005f1a3ee34da91cbafa6bdfa2790a540b0929087d3fe1e5ba97daab67a58c1289a000000006a47304402206a6eb37d088b7d4d84bba53bb925ec609ad993d6b4bf7eccc5638a68c7f3755502203e3f1cb92d342829a66fa768b903ee481e625232f4bbc079c2ab785bb6dc05ce0121031dc0ff0ede67451babde84c5f029c506ffe48ff0e209f64c09e6c4ce913153e1feffffffe3dc1e2b63a375370bd9d278798f31a23cbba6ec5cd7bfd4b05dd2af533e4c6f010000006b4830450221009a8d53d1423a7b29e376d1b38bc040b09e5777dcd694bd0c28962625524a333a02205b166529138243d2c282e7ff9817710fde0b200afce072e9c53e43603af24b5b0121037a820c72066cc4fe7dccf8970708130c75978acc50f6a8a841782d3dc05b2940feffffffedeb6f5668bd21382ef03e3248f197ad2d7e132614c628cb6c9ff01e472390d9000000006a47304402200fdd1b54459e8666c62e0976096a77a99c141091a3441197b094eacb9a53e179022047cbb80fa493e3ab1f6bc9db47c9dda2c0791044cc5f741c16a32a55460782780121037ed783159554bebe70a50fdc2978ba1725d58100ac96887e6cf1a2011b9de538feffffff7d533859ca874fa19583be6634b93a50d39d3ea58e82bfda543157954183b634010000006a473044022004b12119dbff2c5024362b22f420bd8eb2a16910d5d0988c64fa42b6e921db46022067c262cac17461a3355124070753293fa77729d955340fbb0bf98fb813aa2619012102418d0b02479cc8e7016de56b10b93dc6b663f2386d4be019ee3351c43177db10feffffff87054697d7582ec0fe97e2fe0c765df63ccb80796db34c9632f4064f0fed2523000000006b4830450221009279e49cae2b93e6cf8aebb49ca9e72090d69cd15c3e05ab9aa8d0f66815f32f0220364b06e41240e45941211033fa7954917225db31c80904ac496a00bfad054251012103711ccaf888785a5cd8920c3cbe85d414e8352c16d3ddeb645c2815be67d2ea81feffffff02b0f80c00000000001976a914e102b0778d4a83bdbfb47544825dbbd42a4c390e88aceaa72b01000000001976a914d1fbb7db09c31d7e194676ee97455d625cc6677588ac35b71400"
    }, 
    {
      "txid": "fe098481c690e6854a04d2e660d8c3ed378d4f2a8dd8540139ddc471aaeae431",
      "hash": "aaaf6ae16eeb22f760208dee4dfe5b2485b0d5a9305f38828f08ad042a8a002a",
      "version": 1,
      "size": 249,
      "vsize": 168,
      "locktime": 0,
      "vin": [
        {
          "txid": "11abf1b33d26e9060803bb1b98f4d333d519da801158228cfdd1ca7361ae1fe6",
          "vout": 1,
          "scriptSig": {
            "asm": "0014a880a97194828cb34422752949beac7e8dc5462c",
            "hex": "160014a880a97194828cb34422752949beac7e8dc5462c"
          },
          "txinwitness": [
            "304402203b27370c3d637a58414d0ca35b518f97f7432a924dd2e39e0d7c119d03b2bdf602206832c1012347400a91a9c652bcd48a05c61b50601d6fc35ea14f9a0600b9685401", 
            "03a3c1d285a740fd70d33484c681c8d05260e9a58b80235d57b3129abc57031058"
          ],
          "sequence": 4294967295
        }
      ],
      "vout": [
        {
          "value": 1.00000000,
          "n": 0,
          "scriptPubKey": {
            "asm": "OP_DUP OP_HASH160 0ec7b136268f39420c11b91977d047c24d2ad567 OP_EQUALVERIFY OP_CHECKSIG",
            "hex": "76a9140ec7b136268f39420c11b91977d047c24d2ad56788ac",
            "reqSigs": 1,
            "type": "pubkeyhash",
            "addresses": [
              "LLa6wkvq4S1M9uebKCYyToE1fR1XbdKUaC"
            ]
          }
        }, 
        {
          "value": 16.99914500,
          "n": 1,
          "scriptPubKey": {
            "asm": "OP_HASH160 44d36bd03fb024f9a7c9bad0718e12589d630a29 OP_EQUAL",
            "hex": "a91444d36bd03fb024f9a7c9bad0718e12589d630a2987",
            "reqSigs": 1,
            "type": "scripthash",
            "addresses": [
              "MEB5TGp6KeBoPqCL6BSW2HX2x1hWo3hxNv"
            ]
          }
        }
      ],
      "hex": "01000000000101e61fae6173cad1fd8c22581180da19d533d3f4981bbb030806e9263db3f1ab110100000017160014a880a97194828cb34422752949beac7e8dc5462cffffffff0200e1f505000000001976a9140ec7b136268f39420c11b91977d047c24d2ad56788ac04a352650000000017a91444d36bd03fb024f9a7c9bad0718e12589d630a29870247304402203b27370c3d637a58414d0ca35b518f97f7432a924dd2e39e0d7c119d03b2bdf602206832c1012347400a91a9c652bcd48a05c61b50601d6fc35ea14f9a0600b96854012103a3c1d285a740fd70d33484c681c8d05260e9a58b80235d57b3129abc5703105800000000"
    }, 
    {
      "txid": "c240e801a99f53d271375b0346f07d886db3493e2358c24837612d006a3a4be4",
      "hash": "c240e801a99f53d271375b0346f07d886db3493e2358c24837612d006a3a4be4",
      "version": 2,
      "size": 814,
      "vsize": 814,
      "locktime": 1357621,
      "vin": [
        {
          "txid": "3eaddbe1646fb56b84f9972e2fe284c44c0cde6f5302ae9854d6ac34ec3c0d3a",
          "vout": 1,
          "scriptSig": {
            "asm": "304402207a9e8dff8fdde6ad7d1b30c3cccd8161018a23561f5e82e8080a5631c9dc99c60220254535b64975a174d49deb2975a6aba5d560e697328c716710e745cf98f57836[ALL] 03157d2991d70c65022366d4a2bd2077a9e72d070a566252aa5625103f5eda8f5b",
            "hex": "47304402207a9e8dff8fdde6ad7d1b30c3cccd8161018a23561f5e82e8080a5631c9dc99c60220254535b64975a174d49deb2975a6aba5d560e697328c716710e745cf98f57836012103157d2991d70c65022366d4a2bd2077a9e72d070a566252aa5625103f5eda8f5b"
          },
          "sequence": 4294967294
        }, 
        {
          "txid": "96b6609d075511c00fd044d7251aee2879664f8ecd849d6d6a99060f86e2694a",
          "vout": 0,
          "scriptSig": {
            "asm": "3044022000ab49b569b51cb7d2267f4a7bfa57342ff1bbf806d1002975e9877a9d10ceea02200e8e2b9e6a2ca0be75c392dc7b876a2859b3825c65320610d95d8b73977b9b4b[ALL] 020404c6ba7845ebaeca703c23c08887ed5ec6a382ee30a481f9615e2f357da9b8",
            "hex": "473044022000ab49b569b51cb7d2267f4a7bfa57342ff1bbf806d1002975e9877a9d10ceea02200e8e2b9e6a2ca0be75c392dc7b876a2859b3825c65320610d95d8b73977b9b4b0121020404c6ba7845ebaeca703c23c08887ed5ec6a382ee30a481f9615e2f357da9b8"
          },
          "sequence": 4294967294
        }, 
        {
          "txid": "d6eb9931a04fbb4192242680e08763bd907dfe01e98dceebd8149cfb8abf1e51",
          "vout": 0,
          "scriptSig": {
            "asm": "304402204a130653060e1b10880f27d3dc30013b58a056631f471532a9202fc85b000646022022bfe7c60f5c69e3c97265b0dfd8497287d1d6701479f162cf3f95297f13a7e7[ALL] 02a1c61f692a30eceac472cdb34721dc7aa9d3d50f368f3a00864a50eacce501fb",
            "hex": "47304402204a130653060e1b10880f27d3dc30013b58a056631f471532a9202fc85b000646022022bfe7c60f5c69e3c97265b0dfd8497287d1d6701479f162cf3f95297f13a7e7012102a1c61f692a30eceac472cdb34721dc7aa9d3d50f368f3a00864a50eacce501fb"
          },
          "sequence": 4294967294
        }, 
        {
          "txid": "59adbc0acb2a025be8ea376273f252837af88e0a9ccb4e0dfc8e1da112c7d297",
          "vout": 1,
          "scriptSig": {
            "asm": "3045022100ad7088d80dd794a403ab66d2fe2e35bfeb8165a51292d4286be58db1500e2aee02207cb31025eda2ba73ea05552cb0da1e055f32b970d23c8a4fc797918f7bfe2acf[ALL] 034c9250ce2aad065b6a2622bb740af86e5a26ef60cd4de3ae0ef167dfc0affef2",
            "hex": "483045022100ad7088d80dd794a403ab66d2fe2e35bfeb8165a51292d4286be58db1500e2aee02207cb31025eda2ba73ea05552cb0da1e055f32b970d23c8a4fc797918f7bfe2acf0121034c9250ce2aad065b6a2622bb740af86e5a26ef60cd4de3ae0ef167dfc0affef2"
          },
          "sequence": 4294967294
        }, 
        {
          "txid": "f7a7f4922c335936b950bb5ae7c4603ecc28818068ede72e61e731ac4c0fbfd7",
          "vout": 0,
          "scriptSig": {
            "asm": "304402200f9bebe87c78e7df8a90425a9c0499a742415d8135ed085cf134f8e01b04a60a022036fe67ce6af42a62047ebc3da66ff11c38f7c6eb0bd86a5655f3fd1770c73317[ALL] 02710223745f53e8d11099b8beb0be5a52c7ad1d76b172c768c9ac770311f6c530",
            "hex": "47304402200f9bebe87c78e7df8a90425a9c0499a742415d8135ed085cf134f8e01b04a60a022036fe67ce6af42a62047ebc3da66ff11c38f7c6eb0bd86a5655f3fd1770c73317012102710223745f53e8d11099b8beb0be5a52c7ad1d76b172c768c9ac770311f6c530"
          },
          "sequence": 4294967294
        }
      ],
      "vout": [
        {
          "value": 0.13008137,
          "n": 0,
          "scriptPubKey": {
            "asm": "OP_DUP OP_HASH160 b0c4e886281a7d6fa486ddf4e9de1044086ee806 OP_EQUALVERIFY OP_CHECKSIG",
            "hex": "76a914b0c4e886281a7d6fa486ddf4e9de1044086ee80688ac",
            "reqSigs": 1,
            "type": "pubkeyhash",
            "addresses": [
              "LbLd5QMd8HheQ33eGBsUe2ay8GHdX7ANS9"
            ]
          }
        }, 
        {
          "value": 0.00981912,
          "n": 1,
          "scriptPubKey": {
            "asm": "OP_DUP OP_HASH160 c4f828f6da69e2b2f66f27f9969eeefb4747dd6c OP_EQUALVERIFY OP_CHECKSIG",
            "hex": "76a914c4f828f6da69e2b2f66f27f9969eeefb4747dd6c88ac",
            "reqSigs": 1,
            "type": "pubkeyhash",
            "addresses": [
              "LdBRzGjK3qibKDASMcY6W3WeQM5P1wJx65"
            ]
          }
        }
      ],
      "hex": "02000000053a0d3cec34acd65498ae02536fde0c4cc484e22f2e97f9846bb56f64e1dbad3e010000006a47304402207a9e8dff8fdde6ad7d1b30c3cccd8161018a23561f5e82e8080a5631c9dc99c60220254535b64975a174d49deb2975a6aba5d560e697328c716710e745cf98f57836012103157d2991d70c65022366d4a2bd2077a9e72d070a566252aa5625103f5eda8f5bfeffffff4a69e2860f06996a6d9d84cd8e4f667928ee1a25d744d00fc01155079d60b696000000006a473044022000ab49b569b51cb7d2267f4a7bfa57342ff1bbf806d1002975e9877a9d10ceea02200e8e2b9e6a2ca0be75c392dc7b876a2859b3825c65320610d95d8b73977b9b4b0121020404c6ba7845ebaeca703c23c08887ed5ec6a382ee30a481f9615e2f357da9b8feffffff511ebf8afb9c14d8ebce8de901fe7d90bd6387e08026249241bb4fa03199ebd6000000006a47304402204a130653060e1b10880f27d3dc30013b58a056631f471532a9202fc85b000646022022bfe7c60f5c69e3c97265b0dfd8497287d1d6701479f162cf3f95297f13a7e7012102a1c61f692a30eceac472cdb34721dc7aa9d3d50f368f3a00864a50eacce501fbfeffffff97d2c712a11d8efc0d4ecb9c0a8ef87a8352f2736237eae85b022acb0abcad59010000006b483045022100ad7088d80dd794a403ab66d2fe2e35bfeb8165a51292d4286be58db1500e2aee02207cb31025eda2ba73ea05552cb0da1e055f32b970d23c8a4fc797918f7bfe2acf0121034c9250ce2aad065b6a2622bb740af86e5a26ef60cd4de3ae0ef167dfc0affef2feffffffd7bf0f4cac31e7612ee7ed68808128cc3e60c4e75abb50b93659332c92f4a7f7000000006a47304402200f9bebe87c78e7df8a90425a9c0499a742415d8135ed085cf134f8e01b04a60a022036fe67ce6af42a62047ebc3da66ff11c38f7c6eb0bd86a5655f3fd1770c73317012102710223745f53e8d11099b8beb0be5a52c7ad1d76b172c768c9ac770311f6c530feffffff02097dc600000000001976a914b0c4e886281a7d6fa486ddf4e9de1044086ee80688ac98fb0e00000000001976a914c4f828f6da69e2b2f66f27f9969eeefb4747dd6c88ac35b71400"
    }, 
    {
      "txid": "b0d9d9ab103af213391631998b344cf640f34d1d1d232f163bd3f5662effb656",
      "hash": "b0d9d9ab103af213391631998b344cf640f34d1d1d232f163bd3f5662effb656",
      "version": 2,
      "size": 225,
      "vsize": 225,
      "locktime": 1357621,
      "vin": [
        {
          "txid": "848c97cf7b0c781637a4d10adeb23580ee66e5908c00837429013011fc985ecc",
          "vout": 1,
          "scriptSig": {
            "asm": "304402204b2aaa994e21f9bd8bf8da2609a60e279d68a1c0cf55baa297d3e26c86fb784a0220013429e5df48838d080f25b043051cefaaf7ffd543895727537ecfa087816ec8[ALL] 02055641fc6a4cb602f954c64854589b7c4e634f7067bd7fbf35cbd507c1bf9e57",
            "hex": "47304402204b2aaa994e21f9bd8bf8da2609a60e279d68a1c0cf55baa297d3e26c86fb784a0220013429e5df48838d080f25b043051cefaaf7ffd543895727537ecfa087816ec8012102055641fc6a4cb602f954c64854589b7c4e634f7067bd7fbf35cbd507c1bf9e57"
          },
          "sequence": 4294967294
        }
      ],
      "vout": [
        {
          "value": 1.71915227,
          "n": 0,
          "scriptPubKey": {
            "asm": "OP_DUP OP_HASH160 27d61281989f7a53ca3fac8cd60ea5d8924be024 OP_EQUALVERIFY OP_CHECKSIG",
            "hex": "76a91427d61281989f7a53ca3fac8cd60ea5d8924be02488ac",
            "reqSigs": 1,
            "type": "pubkeyhash",
            "addresses": [
              "LNrb4hRsj3LCk1tVUskGZbF1WfURGep4qS"
            ]
          }
        }, 
        {
          "value": 251.03542717,
          "n": 1,
          "scriptPubKey": {
            "asm": "OP_DUP OP_HASH160 bf92546bd8ab26f523bc9abac5d949902cab1f34 OP_EQUALVERIFY OP_CHECKSIG",
            "hex": "76a914bf92546bd8ab26f523bc9abac5d949902cab1f3488ac",
            "reqSigs": 1,
            "type": "pubkeyhash",
            "addresses": [
              "Lcgtd2Jj7fd58Ac6zpPH9Fzd4znB9F3P5M"
            ]
          }
        }
      ],
      "hex": "0200000001cc5e98fc113001297483008c90e566ee8035b2de0ad1a43716780c7bcf978c84010000006a47304402204b2aaa994e21f9bd8bf8da2609a60e279d68a1c0cf55baa297d3e26c86fb784a0220013429e5df48838d080f25b043051cefaaf7ffd543895727537ecfa087816ec8012102055641fc6a4cb602f954c64854589b7c4e634f7067bd7fbf35cbd507c1bf9e57feffffff02db373f0a000000001976a91427d61281989f7a53ca3fac8cd60ea5d8924be02488acbda949d8050000001976a914bf92546bd8ab26f523bc9abac5d949902cab1f3488ac35b71400"
    }, 
    {
      "txid": "2ee843402a791fb7d1e99bc86e9dd6329838cffc82d78a6c979323c2a68a9ec1",
      "hash": "2ee843402a791fb7d1e99bc86e9dd6329838cffc82d78a6c979323c2a68a9ec1",
      "version": 1,
      "size": 225,
      "vsize": 225,
      "locktime": 0,
      "vin": [
        {
          "txid": "b431413cedf4f3a55dabc1794c81e999daf570dfb9e718b51a053afee78a123a",
          "vout": 0,
          "scriptSig": {
            "asm": "3044022063fff31235d642dda9f7f5151bf63c4eea3cb513f75153c0a525591a3b5d3ade022000b23e9d90b3002b360373bf29aa1f7fd6693811bcf6c252c74d86256a9d38fc[ALL] 0243e51e90954b580444e15a8ceede417a7fa361fa9954f37df987439a80d515be",
            "hex": "473044022063fff31235d642dda9f7f5151bf63c4eea3cb513f75153c0a525591a3b5d3ade022000b23e9d90b3002b360373bf29aa1f7fd6693811bcf6c252c74d86256a9d38fc01210243e51e90954b580444e15a8ceede417a7fa361fa9954f37df987439a80d515be"
          },
          "sequence": 4294967295
        }
      ],
      "vout": [
        {
          "value": 10.18450522,
          "n": 0,
          "scriptPubKey": {
            "asm": "OP_DUP OP_HASH160 43058366c8450805dc76aad8546135a828531f66 OP_EQUALVERIFY OP_CHECKSIG",
            "hex": "76a91443058366c8450805dc76aad8546135a828531f6688ac",
            "reqSigs": 1,
            "type": "pubkeyhash",
            "addresses": [
              "LRLL98pFmkvj4fBjXox6XSq6jNTZ6wHXFv"
            ]
          }
        }, 
        {
          "value": 0.99026878,
          "n": 1,
          "scriptPubKey": {
            "asm": "OP_DUP OP_HASH160 c4ef56b5579bee817da16149ef60b0bb8dba33f0 OP_EQUALVERIFY OP_CHECKSIG",
            "hex": "76a914c4ef56b5579bee817da16149ef60b0bb8dba33f088ac",
            "reqSigs": 1,
            "type": "pubkeyhash",
            "addresses": [
              "LdBFRMdXrP79KeJsWSGLmgXGbuR93rDtDB"
            ]
          }
        }
      ],
      "hex": "01000000013a128ae7fe3a051ab518e7b9df70f5da99e9814c79c1ab5da5f3f4ed3c4131b4000000006a473044022063fff31235d642dda9f7f5151bf63c4eea3cb513f75153c0a525591a3b5d3ade022000b23e9d90b3002b360373bf29aa1f7fd6693811bcf6c252c74d86256a9d38fc01210243e51e90954b580444e15a8ceede417a7fa361fa9954f37df987439a80d515beffffffff025a52b43c000000001976a91443058366c8450805dc76aad8546135a828531f6688acbe07e705000000001976a914c4ef56b5579bee817da16149ef60b0bb8dba33f088ac00000000"
    }, 
    {
      "txid": "7ad92a603766e8e9cec17b6a272ace3f5cc7c5c209dd62db8fab877ddb657602",
      "hash": "7ad92a603766e8e9cec17b6a272ace3f5cc7c5c209dd62db8fab877ddb657602",
      "version": 1,
      "size": 226,
      "vsize": 226,
      "locktime": 0,
      "vin": [
        {
          "txid": "a98b32860e4bf2c16aa1ee8ef3fd0d5fa9d5aadd56084f1b05bf819fffb9de3d",
          "vout": 1,
          "scriptSig": {
            "asm": "304502210083e66de33e8a2537ff58b356304f2fc20e423283448843b81939f5380cb9e2f902203c09c955536eb84b34d9ab0c167cea048c792b4de5fe1ce7a40299218ab12948[ALL] 0388a05c8c8a878fff94f35d74f543954f95c5a524525a92f54543185ad4fa2171",
            "hex": "48304502210083e66de33e8a2537ff58b356304f2fc20e423283448843b81939f5380cb9e2f902203c09c955536eb84b34d9ab0c167cea048c792b4de5fe1ce7a40299218ab1294801210388a05c8c8a878fff94f35d74f543954f95c5a524525a92f54543185ad4fa2171"
          },
          "sequence": 4294967295
        }
      ],
      "vout": [
        {
          "value": 15.73908393,
          "n": 0,
          "scriptPubKey": {
            "asm": "OP_DUP OP_HASH160 d554174332fa05fa87988a0e669f24003e6e6234 OP_EQUALVERIFY OP_CHECKSIG",
            "hex": "76a914d554174332fa05fa87988a0e669f24003e6e623488ac",
            "reqSigs": 1,
            "type": "pubkeyhash",
            "addresses": [
              "LefvvosRcnZBnq1KfVecjUTrQBkFpM69En"
            ]
          }
        }, 
        {
          "value": 0.99977400,
          "n": 1,
          "scriptPubKey": {
            "asm": "OP_DUP OP_HASH160 2809ea6a6ec03013ac2e9f495cf544962a36fcef OP_EQUALVERIFY OP_CHECKSIG",
            "hex": "76a9142809ea6a6ec03013ac2e9f495cf544962a36fcef88ac",
            "reqSigs": 1,
            "type": "pubkeyhash",
            "addresses": [
              "LNsfAqgiQNpQwTnLkkrQEsADRH8Q3ter3H"
            ]
          }
        }
      ],
      "hex": "01000000013ddeb9ff9f81bf051b4f0856ddaad5a95f0dfdf38eeea16ac1f24b0e86328ba9010000006b48304502210083e66de33e8a2537ff58b356304f2fc20e423283448843b81939f5380cb9e2f902203c09c955536eb84b34d9ab0c167cea048c792b4de5fe1ce7a40299218ab1294801210388a05c8c8a878fff94f35d74f543954f95c5a524525a92f54543185ad4fa2171ffffffff02a9efcf5d000000001976a914d554174332fa05fa87988a0e669f24003e6e623488acb888f505000000001976a9142809ea6a6ec03013ac2e9f495cf544962a36fcef88ac00000000"
    }, 
    {
      "txid": "c8836f3149fcc5aba4f408775e831ba3ab337b18ed08ebd9b0f0fe943c2069a4",
      "hash": "c8836f3149fcc5aba4f408775e831ba3ab337b18ed08ebd9b0f0fe943c2069a4",
      "version": 2,
      "size": 226,
      "vsize": 226,
      "locktime": 1357621,
      "vin": [
        {
          "txid": "2c1627862e1748219547e5c835dcd97d40323731b50894da24c4e833ae426900",
          "vout": 1,
          "scriptSig": {
            "asm": "3045022100da720967226f0b7eef2465b0ac327f07b47b12e803c67feb8da416caf0c807ee02206d557a0bde29d54f1cc420efe008d64cbb5e5b08c6e8fa967fc3023150c76389[ALL] 031267fa02010c8990c7711947aa8a916b6313a849af8f706e39d0cd32c1ee1f35",
            "hex": "483045022100da720967226f0b7eef2465b0ac327f07b47b12e803c67feb8da416caf0c807ee02206d557a0bde29d54f1cc420efe008d64cbb5e5b08c6e8fa967fc3023150c763890121031267fa02010c8990c7711947aa8a916b6313a849af8f706e39d0cd32c1ee1f35"
          },
          "sequence": 4294967294
        }
      ],
      "vout": [
        {
          "value": 0.41175054,
          "n": 0,
          "scriptPubKey": {
            "asm": "OP_DUP OP_HASH160 4c4890e71ea21925a2b5f79c85e264b71a03557d OP_EQUALVERIFY OP_CHECKSIG",
            "hex": "76a9144c4890e71ea21925a2b5f79c85e264b71a03557d88ac",
            "reqSigs": 1,
            "type": "pubkeyhash",
            "addresses": [
              "LSBJYmVxY3nnTKzo1bHEByWifca7Uqke1B"
            ]
          }
        }, 
        {
          "value": 0.58098281,
          "n": 1,
          "scriptPubKey": {
            "asm": "OP_DUP OP_HASH160 7ed266393f2bd40a0fde0c8afcd356b3e6867521 OP_EQUALVERIFY OP_CHECKSIG",
            "hex": "76a9147ed266393f2bd40a0fde0c8afcd356b3e686752188ac",
            "reqSigs": 1,
            "type": "pubkeyhash",
            "addresses": [
              "LWnXTBdS1xoDno7EC6x5javA1cJXBecCxm"
            ]
          }
        }
      ],
      "hex": "0200000001006942ae33e8c424da9408b5313732407dd9dc35c8e547952148172e8627162c010000006b483045022100da720967226f0b7eef2465b0ac327f07b47b12e803c67feb8da416caf0c807ee02206d557a0bde29d54f1cc420efe008d64cbb5e5b08c6e8fa967fc3023150c763890121031267fa02010c8990c7711947aa8a916b6313a849af8f706e39d0cd32c1ee1f35feffffff020e487402000000001976a9144c4890e71ea21925a2b5f79c85e264b71a03557d88ac69827603000000001976a9147ed266393f2bd40a0fde0c8afcd356b3e686752188ac35b71400"
    }
  ],
  "time": 1517026753,
  "mediantime": 1517026456,
  "nonce": 436537525,
  "bits": "1a047f14",
  "difficulty": 3731199.183374282,
  "chainwork": "00000000000000000000000000000000000000000000003262a9f665a3834eb0",
  "previousblockhash": "07425aa86a84aac2f312c09ed116cead4ae7bafefb134e4683a918039432500c",
  "nextblockhash": "aecba9fc36a487038ba202156b4370e74bf99f912f9fb22c849348344cc5a66b"
}
