{
  "hash": "a3d0de2a920e3e446d4f273d6cc634f567124d2e2d457caac91f634d28af17df",
  "confirmations": 790,
  "strippedsize": 2375,
  "size": 2411,
  "weight": 9536,
  "height": 1360204,
  "version": 536870912,
  "versionHex": "20000000",
  "merkleroot": "ed27867c6e7870ffed53a27bd06c8bd13568d20bdff38c0333b3eb06ff9a1664",
  "tx": [
    {
      "txid": "5b92161eb96818ef63caa1e2569dc5c7a9a7950c2eb2cacb5fd7dfee61b5fc47",
      "hash": "0bfda0a300bf3448ac41794e1a75586707c5ae257bb911a1c919070ad042c016",
      "version": 2,
      "size": 234,
      "vsize": 207,
      "locktime": 0,
      "vin": [
        {
          "coinbase": "034cc11404288a715a2ffabe6d6d00b7feee1ec5ece2353413118d6150a8a7d375b0d841e70a4921915df22e0b0601000000000000000304b8911d04000000000000",
          "sequence": 4294967295
        }
      ],
      "vout": [
        {
          "value": 25.00224021,
          "n": 0,
          "scriptPubKey": {
            "asm": "OP_DUP OP_HASH160 3d29d474d0a98b5b2669d990d2917780837edf0c OP_EQUALVERIFY OP_CHECKSIG",
            "hex": "76a9143d29d474d0a98b5b2669d990d2917780837edf0c88ac",
            "reqSigs": 1,
            "type": "pubkeyhash",
            "addresses": [
              "LQoMbJnzRK2sDXazJuUNXPTx7FrKKPJgt6"
            ]
          }
        }, 
        {
          "value": 0.00000000,
          "n": 1,
          "scriptPubKey": {
            "asm": "OP_RETURN aa21a9ed9ed78ec14d12bb045de0a931d9d3da5f83a8553fa15b388edb85a595b3ba8e65",
            "hex": "6a24aa21a9ed9ed78ec14d12bb045de0a931d9d3da5f83a8553fa15b388edb85a595b3ba8e65",
            "type": "nulldata"
          }
        }
      ],
      "hex": "020000000001010000000000000000000000000000000000000000000000000000000000000000ffffffff42034cc11404288a715a2ffabe6d6d00b7feee1ec5ece2353413118d6150a8a7d375b0d841e70a4921915df22e0b0601000000000000000304b8911d04000000000000ffffffff0215640695000000001976a9143d29d474d0a98b5b2669d990d2917780837edf0c88ac0000000000000000266a24aa21a9ed9ed78ec14d12bb045de0a931d9d3da5f83a8553fa15b388edb85a595b3ba8e650120000000000000000000000000000000000000000000000000000000000000000000000000"
    }, 
    {
      "txid": "778df2dfdb3cb7655aea4cb808ea70dabcadb307117463480e89c1bea235353e",
      "hash": "778df2dfdb3cb7655aea4cb808ea70dabcadb307117463480e89c1bea235353e",
      "version": 1,
      "size": 487,
      "vsize": 487,
      "locktime": 0,
      "vin": [
        {
          "txid": "f01b831dd9bd7f9701bfd71ea1e904b118be6a7ea96c16afb44a049ded499466",
          "vout": 0,
          "scriptSig": {
            "asm": "3045022100a00cc21de9ebe2df4382a046a1284b0b2b12d157e1df44919a12200a90e9cd5c022033e7d800ac3dd0633f7a3602e6446adf6f61e4ed0781f5d14be1e6fd6c5799e2[ALL] 025f09c13eea223452149033054f4ea9b0506875b412baca655e73430da12678a5",
            "hex": "483045022100a00cc21de9ebe2df4382a046a1284b0b2b12d157e1df44919a12200a90e9cd5c022033e7d800ac3dd0633f7a3602e6446adf6f61e4ed0781f5d14be1e6fd6c5799e20121025f09c13eea223452149033054f4ea9b0506875b412baca655e73430da12678a5"
          },
          "sequence": 4294967295
        }, 
        {
          "txid": "2e0c474f5c8d9327cfd1c99e0c7a8924b2ae55f34b5d5b512530aa46c10ca49f",
          "vout": 0,
          "scriptSig": {
            "asm": "304402200641f48acc1f504ae2c31ed0400639f5a47e1c337077c93edf3ba68050ccc86a0220159f8307ba2220180ecb1d36e9f1f0eab31264cce65bc62fa6da247ec6f39c39[ALL] 0353abfc77f29b15cd85a5c570d36ae1e5b78f348e115e91b4b73e7155c38c598a",
            "hex": "47304402200641f48acc1f504ae2c31ed0400639f5a47e1c337077c93edf3ba68050ccc86a0220159f8307ba2220180ecb1d36e9f1f0eab31264cce65bc62fa6da247ec6f39c3901210353abfc77f29b15cd85a5c570d36ae1e5b78f348e115e91b4b73e7155c38c598a"
          },
          "sequence": 4294967295
        }, 
        {
          "txid": "afaa3afb581f6bb7b88e92a256a5fd136dd44e206d340e94133d304a2bff9555",
          "vout": 1,
          "scriptSig": {
            "asm": "3045022100d7f3481702424a44de204a42c832388f42adec552736d949be508c6a7018aa5202201b3c1139c3a774b6093286073683e8e0f0536db926e26a64776d58b54d8c99c4[ALL] 03a6d242a4e980a1592375ce1a2ed5f330e546fbf8e67f6dd413fb1ddddb035c2d",
            "hex": "483045022100d7f3481702424a44de204a42c832388f42adec552736d949be508c6a7018aa5202201b3c1139c3a774b6093286073683e8e0f0536db926e26a64776d58b54d8c99c4012103a6d242a4e980a1592375ce1a2ed5f330e546fbf8e67f6dd413fb1ddddb035c2d"
          },
          "sequence": 4294967295
        }
      ],
      "vout": [
        {
          "value": 1.00460000,
          "n": 0,
          "scriptPubKey": {
            "asm": "OP_DUP OP_HASH160 dc3366f7195071d7ccf9aceb58ecb674b938af2f OP_EQUALVERIFY OP_CHECKSIG",
            "hex": "76a914dc3366f7195071d7ccf9aceb58ecb674b938af2f88ac",
            "reqSigs": 1,
            "type": "pubkeyhash",
            "addresses": [
              "LfJGVuNPDWC9XyxunWKdFNrD2vDTVXPDwT"
            ]
          }
        }
      ],
      "hex": "0100000003669449ed9d044ab4af166ca97e6abe18b104e9a11ed7bf01977fbdd91d831bf0000000006b483045022100a00cc21de9ebe2df4382a046a1284b0b2b12d157e1df44919a12200a90e9cd5c022033e7d800ac3dd0633f7a3602e6446adf6f61e4ed0781f5d14be1e6fd6c5799e20121025f09c13eea223452149033054f4ea9b0506875b412baca655e73430da12678a5ffffffff9fa40cc146aa3025515b5d4bf355aeb224897a0c9ec9d1cf27938d5c4f470c2e000000006a47304402200641f48acc1f504ae2c31ed0400639f5a47e1c337077c93edf3ba68050ccc86a0220159f8307ba2220180ecb1d36e9f1f0eab31264cce65bc62fa6da247ec6f39c3901210353abfc77f29b15cd85a5c570d36ae1e5b78f348e115e91b4b73e7155c38c598affffffff5595ff2b4a303d13940e346d204ed46d13fda556a2928eb8b76b1f58fb3aaaaf010000006b483045022100d7f3481702424a44de204a42c832388f42adec552736d949be508c6a7018aa5202201b3c1139c3a774b6093286073683e8e0f0536db926e26a64776d58b54d8c99c4012103a6d242a4e980a1592375ce1a2ed5f330e546fbf8e67f6dd413fb1ddddb035c2dffffffff01e0e5fc05000000001976a914dc3366f7195071d7ccf9aceb58ecb674b938af2f88ac00000000"
    }, 
    {
      "txid": "42f49f394ad9f59385dc615d4be48e6938847ba0e2dae1c62f2a866428595b37",
      "hash": "42f49f394ad9f59385dc615d4be48e6938847ba0e2dae1c62f2a866428595b37",
      "version": 1,
      "size": 226,
      "vsize": 226,
      "locktime": 0,
      "vin": [
        {
          "txid": "8ce716d5ab8071fc18193ad7dea9fdd31912ab5c77a7142a8bd7ea9418b22e15",
          "vout": 1,
          "scriptSig": {
            "asm": "3045022100f70a1e1113653000d4d36d65d2817ca372f18fa5c7c9b0d26b37ccb286feefcb022048f97499f5e0725ca4371853148d1c696ec9d8f7106b59ebe2a3c1b4f632a659[ALL] 02d9c05892fcfab95c05958f0286c1840ced6abceb32b87f96dd4bf161086c980d",
            "hex": "483045022100f70a1e1113653000d4d36d65d2817ca372f18fa5c7c9b0d26b37ccb286feefcb022048f97499f5e0725ca4371853148d1c696ec9d8f7106b59ebe2a3c1b4f632a659012102d9c05892fcfab95c05958f0286c1840ced6abceb32b87f96dd4bf161086c980d"
          },
          "sequence": 4294967295
        }
      ],
      "vout": [
        {
          "value": 0.09100000,
          "n": 0,
          "scriptPubKey": {
            "asm": "OP_DUP OP_HASH160 252d71fedeed364c71e9fad4257683c2bfce3370 OP_EQUALVERIFY OP_CHECKSIG",
            "hex": "76a914252d71fedeed364c71e9fad4257683c2bfce337088ac",
            "reqSigs": 1,
            "type": "pubkeyhash",
            "addresses": [
              "LNcXhuTP4pNK7h3KXMJp1dYqh95oMY8kxw"
            ]
          }
        }, 
        {
          "value": 0.08077400,
          "n": 1,
          "scriptPubKey": {
            "asm": "OP_DUP OP_HASH160 393049857d78895f95d0a0e3a1d9847fe674db7a OP_EQUALVERIFY OP_CHECKSIG",
            "hex": "76a914393049857d78895f95d0a0e3a1d9847fe674db7a88ac",
            "reqSigs": 1,
            "type": "pubkeyhash",
            "addresses": [
              "LQSLdCaDNXFsZWKPYZYWzWTV8nUHsHZLL3"
            ]
          }
        }
      ],
      "hex": "0100000001152eb21894ead78b2a14a7775cab1219d3fda9ded73a1918fc7180abd516e78c010000006b483045022100f70a1e1113653000d4d36d65d2817ca372f18fa5c7c9b0d26b37ccb286feefcb022048f97499f5e0725ca4371853148d1c696ec9d8f7106b59ebe2a3c1b4f632a659012102d9c05892fcfab95c05958f0286c1840ced6abceb32b87f96dd4bf161086c980dffffffff02e0da8a00000000001976a914252d71fedeed364c71e9fad4257683c2bfce337088ac58407b00000000001976a914393049857d78895f95d0a0e3a1d9847fe674db7a88ac00000000"
    }, 
    {
      "txid": "3c7e26c3909e12fce2c66f9e665b3236967dcf15e5b307eae06f717e769a57db",
      "hash": "3c7e26c3909e12fce2c66f9e665b3236967dcf15e5b307eae06f717e769a57db",
      "version": 1,
      "size": 225,
      "vsize": 225,
      "locktime": 0,
      "vin": [
        {
          "txid": "a2dd72af0b41ab466dab607713c5496703b6f271a90bc4617b6a4e8896c30f1a",
          "vout": 38,
          "scriptSig": {
            "asm": "304402200995d80efa426842df2f9d4869c86d90ec53a13aa479b1f3318e6b4bba14d2400220766e6369d9e71ea82dfe9a147156c1da3d8346fbcbbe1a52519b54de57551a9d[ALL] 03c646ad5edfe137bdb1770e773c05986c0ee49f528a9e93d556f96394f82451b4",
            "hex": "47304402200995d80efa426842df2f9d4869c86d90ec53a13aa479b1f3318e6b4bba14d2400220766e6369d9e71ea82dfe9a147156c1da3d8346fbcbbe1a52519b54de57551a9d012103c646ad5edfe137bdb1770e773c05986c0ee49f528a9e93d556f96394f82451b4"
          },
          "sequence": 4294967295
        }
      ],
      "vout": [
        {
          "value": 0.13989809,
          "n": 0,
          "scriptPubKey": {
            "asm": "OP_DUP OP_HASH160 e85d3b923c8c25ef74724b9a7030ccce0e6e6216 OP_EQUALVERIFY OP_CHECKSIG",
            "hex": "76a914e85d3b923c8c25ef74724b9a7030ccce0e6e621688ac",
            "reqSigs": 1,
            "type": "pubkeyhash",
            "addresses": [
              "LgQaie2fSS6zUY3Qku531uAmuWkkDxuAK2"
            ]
          }
        }, 
        {
          "value": 0.00056697,
          "n": 1,
          "scriptPubKey": {
            "asm": "OP_DUP OP_HASH160 d3dbaf39ffbeab1914b53b07cff3f3936edb53b7 OP_EQUALVERIFY OP_CHECKSIG",
            "hex": "76a914d3dbaf39ffbeab1914b53b07cff3f3936edb53b788ac",
            "reqSigs": 1,
            "type": "pubkeyhash",
            "addresses": [
              "LeYA1dkQd9utQqZteW4Wz3u56Q1JfBLSNx"
            ]
          }
        }
      ],
      "hex": "01000000011a0fc396884e6a7b61c40ba971f2b6036749c5137760ab6d46ab410baf72dda2260000006a47304402200995d80efa426842df2f9d4869c86d90ec53a13aa479b1f3318e6b4bba14d2400220766e6369d9e71ea82dfe9a147156c1da3d8346fbcbbe1a52519b54de57551a9d012103c646ad5edfe137bdb1770e773c05986c0ee49f528a9e93d556f96394f82451b4ffffffff02b177d500000000001976a914e85d3b923c8c25ef74724b9a7030ccce0e6e621688ac79dd0000000000001976a914d3dbaf39ffbeab1914b53b07cff3f3936edb53b788ac00000000"
    }, 
    {
      "txid": "c9e693ea1d7fa833d77099bd6fa6d00408b319907bfdc3a2e0cf7ac0d51b70ee",
      "hash": "c9e693ea1d7fa833d77099bd6fa6d00408b319907bfdc3a2e0cf7ac0d51b70ee",
      "version": 1,
      "size": 225,
      "vsize": 225,
      "locktime": 0,
      "vin": [
        {
          "txid": "31391a21b4a487dbb7b1cf42a0783ea55991557f6930ae0d28d418faae204a7f",
          "vout": 59,
          "scriptSig": {
            "asm": "304402200924ca05819f1801b6fab92c5bd67a77df5badf1deaf4fc88442ea2c70f5882b022079ffb36920ebee0fa817166ea641684ac7ce386d2bae32b9d3508a270a8dc1a1[ALL] 03f3595df74507f853ff2fb8c98b011885f50e629c286cf604b2f244753d49f88c",
            "hex": "47304402200924ca05819f1801b6fab92c5bd67a77df5badf1deaf4fc88442ea2c70f5882b022079ffb36920ebee0fa817166ea641684ac7ce386d2bae32b9d3508a270a8dc1a1012103f3595df74507f853ff2fb8c98b011885f50e629c286cf604b2f244753d49f88c"
          },
          "sequence": 4294967295
        }
      ],
      "vout": [
        {
          "value": 0.72766744,
          "n": 0,
          "scriptPubKey": {
            "asm": "OP_DUP OP_HASH160 a0182719f8bd358a3c8520b5468c69eb4eed67b8 OP_EQUALVERIFY OP_CHECKSIG",
            "hex": "76a914a0182719f8bd358a3c8520b5468c69eb4eed67b888ac",
            "reqSigs": 1,
            "type": "pubkeyhash",
            "addresses": [
              "LZpTK4svcKHtoBLYX7iKX9aUWe9yEHB52r"
            ]
          }
        }, 
        {
          "value": 0.27210656,
          "n": 1,
          "scriptPubKey": {
            "asm": "OP_DUP OP_HASH160 654b8123c82a33afecb019d396d81fbdba2011cc OP_EQUALVERIFY OP_CHECKSIG",
            "hex": "76a914654b8123c82a33afecb019d396d81fbdba2011cc88ac",
            "reqSigs": 1,
            "type": "pubkeyhash",
            "addresses": [
              "LUTYxjFGxUWrq3UH9UJSvR9AcqRbW2K2PW"
            ]
          }
        }
      ],
      "hex": "01000000017f4a20aefa18d4280dae30697f559159a53e78a042cfb1b7db87a4b4211a39313b0000006a47304402200924ca05819f1801b6fab92c5bd67a77df5badf1deaf4fc88442ea2c70f5882b022079ffb36920ebee0fa817166ea641684ac7ce386d2bae32b9d3508a270a8dc1a1012103f3595df74507f853ff2fb8c98b011885f50e629c286cf604b2f244753d49f88cffffffff0218555604000000001976a914a0182719f8bd358a3c8520b5468c69eb4eed67b888aca0339f01000000001976a914654b8123c82a33afecb019d396d81fbdba2011cc88ac00000000"
    }, 
    {
      "txid": "c4cb73fd56d88d3099c6f01a71e1a2dc9ee5c4b176084922a107cefd32b794f9",
      "hash": "c4cb73fd56d88d3099c6f01a71e1a2dc9ee5c4b176084922a107cefd32b794f9",
      "version": 2,
      "size": 257,
      "vsize": 257,
      "locktime": 1360202,
      "vin": [
        {
          "txid": "c7d173eba69deb6f16b6e1b0bd254104acff2854e40527f246107de9bdfe1b5f",
          "vout": 16,
          "scriptSig": {
            "asm": "304402201a25f5028a513da851609daf0feea5a26b3e4ef3a49b8eaaf5a825e7593d7ff202201dcb6d68f96e6e2fb0aee8a626fc5c2893fa691a14d7a9be53fa497076a4c84e[ALL] 02c49613ac284133d0227367b443b12cea673976ce8cf791b5b0deb9f580cd3360",
            "hex": "47304402201a25f5028a513da851609daf0feea5a26b3e4ef3a49b8eaaf5a825e7593d7ff202201dcb6d68f96e6e2fb0aee8a626fc5c2893fa691a14d7a9be53fa497076a4c84e012102c49613ac284133d0227367b443b12cea673976ce8cf791b5b0deb9f580cd3360"
          },
          "sequence": 4294967294
        }
      ],
      "vout": [
        {
          "value": 0.03018038,
          "n": 0,
          "scriptPubKey": {
            "asm": "OP_DUP OP_HASH160 e922f23c79fd27b82f05ac75008b0413047ee335 OP_EQUALVERIFY OP_CHECKSIG",
            "hex": "76a914e922f23c79fd27b82f05ac75008b0413047ee33588ac",
            "reqSigs": 1,
            "type": "pubkeyhash",
            "addresses": [
              "LgUfa1ukRr33vgUmkypgYkWvRtoFZWhXPE"
            ]
          }
        }, 
        {
          "value": 0.10338706,
          "n": 1,
          "scriptPubKey": {
            "asm": "OP_DUP OP_HASH160 5b569919802e8d16823e4ce5bdd684867a3a3303 OP_EQUALVERIFY OP_CHECKSIG",
            "hex": "76a9145b569919802e8d16823e4ce5bdd684867a3a330388ac",
            "reqSigs": 1,
            "type": "pubkeyhash",
            "addresses": [
              "LTYuVcB4n3f6igAKwN7sDBCzgBsQStciCd"
            ]
          }
        }, 
        {
          "value": 0.14589391,
          "n": 2,
          "scriptPubKey": {
            "asm": "OP_HASH160 7938bd64fb8251c84f3382b88407251abe845adb OP_EQUAL",
            "hex": "a9147938bd64fb8251c84f3382b88407251abe845adb87",
            "reqSigs": 1,
            "type": "scripthash",
            "addresses": [
              "MJx7xzaoaQ1wQhapFdiJkeHYnmVRm7GoHr"
            ]
          }
        }
      ],
      "hex": "02000000015f1bfebde97d1046f22705e45428ffac044125bdb0e1b6166feb9da6eb73d1c7100000006a47304402201a25f5028a513da851609daf0feea5a26b3e4ef3a49b8eaaf5a825e7593d7ff202201dcb6d68f96e6e2fb0aee8a626fc5c2893fa691a14d7a9be53fa497076a4c84e012102c49613ac284133d0227367b443b12cea673976ce8cf791b5b0deb9f580cd3360feffffff03360d2e00000000001976a914e922f23c79fd27b82f05ac75008b0413047ee33588ac92c19d00000000001976a9145b569919802e8d16823e4ce5bdd684867a3a330388accf9dde000000000017a9147938bd64fb8251c84f3382b88407251abe845adb874ac11400"
    }, 
    {
      "txid": "2ddae7e248b1daa33f28ff1193ce3176d805e67467730a9aa5cd0d8c4249c35b",
      "hash": "2ddae7e248b1daa33f28ff1193ce3176d805e67467730a9aa5cd0d8c4249c35b",
      "version": 1,
      "size": 224,
      "vsize": 224,
      "locktime": 0,
      "vin": [
        {
          "txid": "5ddb7ff11caa0027c71f6bcdf1d68baea33261289c95e0220c8d74f952aa7c5a",
          "vout": 1,
          "scriptSig": {
            "asm": "304502210089106cb5b352b4a4a1d1791d4173f4af28e465b635fcc8b1524bb9a0d3d2ea6402203e59a11b96081001b7fd025290f382d5172490add9426cb086521fd7a3eaa880[ALL] 03ad2b61cbe2db15d6c10ba54bcaa5d1c7e215a749616044beb53f8025da1b3c97",
            "hex": "48304502210089106cb5b352b4a4a1d1791d4173f4af28e465b635fcc8b1524bb9a0d3d2ea6402203e59a11b96081001b7fd025290f382d5172490add9426cb086521fd7a3eaa880012103ad2b61cbe2db15d6c10ba54bcaa5d1c7e215a749616044beb53f8025da1b3c97"
          },
          "sequence": 4294967295
        }
      ],
      "vout": [
        {
          "value": 4.00106634,
          "n": 0,
          "scriptPubKey": {
            "asm": "OP_HASH160 a2602cc5613db02e020c38a067b0fba8fed652f4 OP_EQUAL",
            "hex": "a914a2602cc5613db02e020c38a067b0fba8fed652f487",
            "reqSigs": 1,
            "type": "scripthash",
            "addresses": [
              "MNhiurYUAmA5XfmsW2H9Ms5BG3LFznsik6"
            ]
          }
        }, 
        {
          "value": 41.29021265,
          "n": 1,
          "scriptPubKey": {
            "asm": "OP_DUP OP_HASH160 1e07f3de7561506cdd820d34f04c78fd157b0842 OP_EQUALVERIFY OP_CHECKSIG",
            "hex": "76a9141e07f3de7561506cdd820d34f04c78fd157b084288ac",
            "reqSigs": 1,
            "type": "pubkeyhash",
            "addresses": [
              "LMxk4XQx8P2xxZVYPqX3nr2Q2jviRHFyYV"
            ]
          }
        }
      ],
      "hex": "01000000015a7caa52f9748d0c22e0959c286132a3ae8bd6f1cd6b1fc72700aa1cf17fdb5d010000006b48304502210089106cb5b352b4a4a1d1791d4173f4af28e465b635fcc8b1524bb9a0d3d2ea6402203e59a11b96081001b7fd025290f382d5172490add9426cb086521fd7a3eaa880012103ad2b61cbe2db15d6c10ba54bcaa5d1c7e215a749616044beb53f8025da1b3c97ffffffff028a24d9170000000017a914a2602cc5613db02e020c38a067b0fba8fed652f48751dd1bf6000000001976a9141e07f3de7561506cdd820d34f04c78fd157b084288ac00000000"
    }, 
    {
      "txid": "8fcb31130ddcb081a43bac83ed59433ff6b82e6cd6a547fe521326399785f0a6",
      "hash": "8fcb31130ddcb081a43bac83ed59433ff6b82e6cd6a547fe521326399785f0a6",
      "version": 1,
      "size": 226,
      "vsize": 226,
      "locktime": 1360201,
      "vin": [
        {
          "txid": "ac051337ea9dab71ef1086feb17f9e0035a0b33fa536f0e67e13807dcf8e7b3e",
          "vout": 0,
          "scriptSig": {
            "asm": "3045022100d91f8d9997f427dd72ed04b05eb04cc1e36c58f0e0864dc4e04f49af509260e002200d2253c91e1e31be00a99ed2650e64f78d2ec41a1d4f321512712346e871fff8[ALL] 033faffadbfc2dd767e602b69168cd19215165380f9a0082b7cbc8238c87d9475d",
            "hex": "483045022100d91f8d9997f427dd72ed04b05eb04cc1e36c58f0e0864dc4e04f49af509260e002200d2253c91e1e31be00a99ed2650e64f78d2ec41a1d4f321512712346e871fff80121033faffadbfc2dd767e602b69168cd19215165380f9a0082b7cbc8238c87d9475d"
          },
          "sequence": 4294967294
        }
      ],
      "vout": [
        {
          "value": 0.59932881,
          "n": 0,
          "scriptPubKey": {
            "asm": "OP_DUP OP_HASH160 1ce7adfe6003b9ca6ca2c67dfbce91b07fcbb41a OP_EQUALVERIFY OP_CHECKSIG",
            "hex": "76a9141ce7adfe6003b9ca6ca2c67dfbce91b07fcbb41a88ac",
            "reqSigs": 1,
            "type": "pubkeyhash",
            "addresses": [
              "LMrniyBSDPTkQVxnhn4U5fSRRoByxSF8s6"
            ]
          }
        }, 
        {
          "value": 0.01012694,
          "n": 1,
          "scriptPubKey": {
            "asm": "OP_DUP OP_HASH160 a03c8d3bcbcfa6605dffd387de17bba21ffb2c51 OP_EQUALVERIFY OP_CHECKSIG",
            "hex": "76a914a03c8d3bcbcfa6605dffd387de17bba21ffb2c5188ac",
            "reqSigs": 1,
            "type": "pubkeyhash",
            "addresses": [
              "LZqCv7QiGAAZMttZLxmXFVebQZZkjWj5fN"
            ]
          }
        }
      ],
      "hex": "01000000013e7b8ecf7d80137ee6f036a53fb3a035009e7fb1fe8610ef71ab9dea371305ac000000006b483045022100d91f8d9997f427dd72ed04b05eb04cc1e36c58f0e0864dc4e04f49af509260e002200d2253c91e1e31be00a99ed2650e64f78d2ec41a1d4f321512712346e871fff80121033faffadbfc2dd767e602b69168cd19215165380f9a0082b7cbc8238c87d9475dfeffffff02d1809203000000001976a9141ce7adfe6003b9ca6ca2c67dfbce91b07fcbb41a88acd6730f00000000001976a914a03c8d3bcbcfa6605dffd387de17bba21ffb2c5188ac49c11400"
    }, 
    {
      "txid": "bde1fb173ad590608001460ff6d5817b5776b7f2104678133e4e1f232c096eb4",
      "hash": "bde1fb173ad590608001460ff6d5817b5776b7f2104678133e4e1f232c096eb4",
      "version": 2,
      "size": 226,
      "vsize": 226,
      "locktime": 1360201,
      "vin": [
        {
          "txid": "13bc37fdddeef338b2f1ea084a78192426eb8bf8a5f5dbe70daa2f04d16d6ff3",
          "vout": 0,
          "scriptSig": {
            "asm": "3045022100d07e67b95e54242bc67aae1de9804de2c9d131fb401338785dca55c81cbc5c4602201d5934eaa16bbafd2fc115ab826462e9b1bfb40f16661aaab461e6929dd684d3[ALL] 02ee92262d35b1aaa2ddd6509082fa9778883e45ba015e7a83d46bdba80728fe74",
            "hex": "483045022100d07e67b95e54242bc67aae1de9804de2c9d131fb401338785dca55c81cbc5c4602201d5934eaa16bbafd2fc115ab826462e9b1bfb40f16661aaab461e6929dd684d3012102ee92262d35b1aaa2ddd6509082fa9778883e45ba015e7a83d46bdba80728fe74"
          },
          "sequence": 4294967294
        }
      ],
      "vout": [
        {
          "value": 4.49900000,
          "n": 0,
          "scriptPubKey": {
            "asm": "OP_DUP OP_HASH160 5b95972ea07463dcde214169f087d72ed940960e OP_EQUALVERIFY OP_CHECKSIG",
            "hex": "76a9145b95972ea07463dcde214169f087d72ed940960e88ac",
            "reqSigs": 1,
            "type": "pubkeyhash",
            "addresses": [
              "LTaCxQMsTQXhf8bBMiAze3jGf8EZFGCwEu"
            ]
          }
        }, 
        {
          "value": 9.81970951,
          "n": 1,
          "scriptPubKey": {
            "asm": "OP_DUP OP_HASH160 4105619b34a0ff7e4b45add714f82252dbd1f472 OP_EQUALVERIFY OP_CHECKSIG",
            "hex": "76a9144105619b34a0ff7e4b45add714f82252dbd1f47288ac",
            "reqSigs": 1,
            "type": "pubkeyhash",
            "addresses": [
              "LR9kdaZgaJTgBb9tDZwxEvw6uCgjEPkmsq"
            ]
          }
        }
      ],
      "hex": "0200000001f36f6dd1042faa0de7dbf5a5f88beb262419784a08eaf1b238f3eeddfd37bc13000000006b483045022100d07e67b95e54242bc67aae1de9804de2c9d131fb401338785dca55c81cbc5c4602201d5934eaa16bbafd2fc115ab826462e9b1bfb40f16661aaab461e6929dd684d3012102ee92262d35b1aaa2ddd6509082fa9778883e45ba015e7a83d46bdba80728fe74feffffff02e0edd01a000000001976a9145b95972ea07463dcde214169f087d72ed940960e88ac07b0873a000000001976a9144105619b34a0ff7e4b45add714f82252dbd1f47288ac49c11400"
    }
  ],
  "time": 1517390376,
  "mediantime": 1517389366,
  "nonce": 62520702,
  "bits": "1a042eae",
  "difficulty": 4011378.762614286,
  "chainwork": "000000000000000000000000000000000000000000000034b868ee76ff2e8b1a",
  "previousblockhash": "6269d49dcdf6936fd4f9bbb8d34aa4ec8c6ea9bbe532def119c9c709f027ed24",
  "nextblockhash": "f6c34ed0c7eb48d4c21ee80e516df4999bac4408e441192965127104cd8c7343"
}
