{
  "hash": "a45bb671127979a33f9d35dc28411c5fe0ec7cc55d0c57cd753547828f751161",
  "confirmations": 2794,
  "strippedsize": 515,
  "size": 551,
  "weight": 2096,
  "height": 1358201,
  "version": 536870912,
  "versionHex": "20000000",
  "merkleroot": "572974c5790118cd539fcf178a76a6d96c7465977ac9e1516583f6aed478ad21",
  "tx": [
    {
      "txid": "e9f00c36db3ceea9b03fa96389ba5f80eeb7ed9bb41f09ac52c722f9dc666044",
      "hash": "4297305785e03aaf84697ed4efbbcefeee17effce2db76ff3a04f9c3376be2f8",
      "version": 1,
      "size": 244,
      "vsize": 217,
      "locktime": 0,
      "vin": [
        {
          "coinbase": "0379b9140496326d5a0804e808c21b000000fabe6d6df08d54f6a4bb72017658f16c6381ad535474da222e7fb316cd31e7e8bbc8cbf840000000000000000d2f6e6f64655374726174756d2f",
          "sequence": 0
        }
      ],
      "vout": [
        {
          "value": 25.00022600,
          "n": 0,
          "scriptPubKey": {
            "asm": "OP_DUP OP_HASH160 0c617fdb2ea42aed30a509595ee21ba3f6688db0 OP_EQUALVERIFY OP_CHECKSIG",
            "hex": "76a9140c617fdb2ea42aed30a509595ee21ba3f6688db088ac",
            "reqSigs": 1,
            "type": "pubkeyhash",
            "addresses": [
              "LLMRAtr3qBje2ySEa3CnZ55LA4TQMWnRY3"
            ]
          }
        }, 
        {
          "value": 0.00000000,
          "n": 1,
          "scriptPubKey": {
            "asm": "OP_RETURN aa21a9ed5eb59286202bb3f33cec126da50a1d1ea52bad81877b20b4ddadae46b80b897d",
            "hex": "6a24aa21a9ed5eb59286202bb3f33cec126da50a1d1ea52bad81877b20b4ddadae46b80b897d",
            "type": "nulldata"
          }
        }
      ],
      "hex": "010000000001010000000000000000000000000000000000000000000000000000000000000000ffffffff4c0379b9140496326d5a0804e808c21b000000fabe6d6df08d54f6a4bb72017658f16c6381ad535474da222e7fb316cd31e7e8bbc8cbf840000000000000000d2f6e6f64655374726174756d2f000000000248510395000000001976a9140c617fdb2ea42aed30a509595ee21ba3f6688db088ac0000000000000000266a24aa21a9ed5eb59286202bb3f33cec126da50a1d1ea52bad81877b20b4ddadae46b80b897d0120000000000000000000000000000000000000000000000000000000000000000000000000"
    }, 
    {
      "txid": "5a2270cedea366048252fca1ef2cc59ecd2d646c2a20f63912ce1e760e91c8fc",
      "hash": "5a2270cedea366048252fca1ef2cc59ecd2d646c2a20f63912ce1e760e91c8fc",
      "version": 1,
      "size": 226,
      "vsize": 226,
      "locktime": 1358199,
      "vin": [
        {
          "txid": "0458a3495ead1a0a627b779c372c18bf0fcb0a6d5f489c32e0d74f612b53514a",
          "vout": 1,
          "scriptSig": {
            "asm": "3045022100d07666d1af8cb4ad3ab080b1193a0403854d661f165e3941255edaae577ad502022071001681a219adcaf65023eb93dbbb3fd711e1b649a97c79c2f5c380597deee6[ALL] 0210e430d437e188a8942e7aaecf037f6e78ee1778c9778dc3a9965e95e09573e0",
            "hex": "483045022100d07666d1af8cb4ad3ab080b1193a0403854d661f165e3941255edaae577ad502022071001681a219adcaf65023eb93dbbb3fd711e1b649a97c79c2f5c380597deee601210210e430d437e188a8942e7aaecf037f6e78ee1778c9778dc3a9965e95e09573e0"
          },
          "sequence": 4294967294
        }
      ],
      "vout": [
        {
          "value": 0.08942820,
          "n": 0,
          "scriptPubKey": {
            "asm": "OP_DUP OP_HASH160 6718ef5f01c4b0c4a2cd75f4e9c79a0a3e7e0c74 OP_EQUALVERIFY OP_CHECKSIG",
            "hex": "76a9146718ef5f01c4b0c4a2cd75f4e9c79a0a3e7e0c7488ac",
            "reqSigs": 1,
            "type": "pubkeyhash",
            "addresses": [
              "LUd5jVJNF9bo2zdpKzwGHSyU47eAwVLg6t"
            ]
          }
        }, 
        {
          "value": 2.74391721,
          "n": 1,
          "scriptPubKey": {
            "asm": "OP_DUP OP_HASH160 33bdc80e94cab81c317769badd5b7296ca30a3ea OP_EQUALVERIFY OP_CHECKSIG",
            "hex": "76a91433bdc80e94cab81c317769badd5b7296ca30a3ea88ac",
            "reqSigs": 1,
            "type": "pubkeyhash",
            "addresses": [
              "LPwY5F7tYQT4DXEzstuDVdWuiSJcJu716n"
            ]
          }
        }
      ],
      "hex": "01000000014a51532b614fd7e0329c485f6d0acb0fbf182c379c777b620a1aad5e49a35804010000006b483045022100d07666d1af8cb4ad3ab080b1193a0403854d661f165e3941255edaae577ad502022071001681a219adcaf65023eb93dbbb3fd711e1b649a97c79c2f5c380597deee601210210e430d437e188a8942e7aaecf037f6e78ee1778c9778dc3a9965e95e09573e0feffffff02e4748800000000001976a9146718ef5f01c4b0c4a2cd75f4e9c79a0a3e7e0c7488aca9e25a10000000001976a91433bdc80e94cab81c317769badd5b7296ca30a3ea88ac77b91400"
    }
  ],
  "time": 1517105358,
  "mediantime": 1517104476,
  "nonce": 3614747218,
  "bits": "1a047f14",
  "difficulty": 3731199.183374282,
  "chainwork": "000000000000000000000000000000000000000000000032e3361319bdbe0164",
  "previousblockhash": "0831c1db347647eeb0eb2287e19e47dc84695555bba7b6f0d373791e8a8e60bb",
  "nextblockhash": "8716bd4c7087a3cdc8516c2b086a41ca84c9eafb26ea6fe2855719fb119562ef"
}
