{
  "hash": "a4697e800368d440be5ed3126f37cf832bf57bf74cd5767bd1f5c26384526772",
  "confirmations": 1401,
  "strippedsize": 256,
  "size": 256,
  "weight": 1024,
  "height": 1359593,
  "version": 536870912,
  "versionHex": "20000000",
  "merkleroot": "fe05339e031a67eae505c532bd4010dca031e0747f96e33098da50a58ed8a634",
  "tx": [
    {
      "txid": "fe05339e031a67eae505c532bd4010dca031e0747f96e33098da50a58ed8a634",
      "hash": "fe05339e031a67eae505c532bd4010dca031e0747f96e33098da50a58ed8a634",
      "version": 1,
      "size": 175,
      "vsize": 175,
      "locktime": 0,
      "vin": [
        {
          "coinbase": "03e9be141d4d696e656420627920416e74506f6f6c20626a302042205a703b180194fabe6d6dcd7776bb194e527fe6e5d9c75ba7315f75601ac3b0e622dfdc658ef032411b9604000000000000006f1000000000000003000000",
          "sequence": 4294967295
        }
      ],
      "vout": [
        {
          "value": 25.00000000,
          "n": 0,
          "scriptPubKey": {
            "asm": "OP_DUP OP_HASH160 0ff3ccc5e8be88afe24b5d634e5852d474dbdff1 OP_EQUALVERIFY OP_CHECKSIG",
            "hex": "76a9140ff3ccc5e8be88afe24b5d634e5852d474dbdff188ac",
            "reqSigs": 1,
            "type": "pubkeyhash",
            "addresses": [
              "LLgJTbzZMsRTCUF1NtvvL9SR1a4pVieW89"
            ]
          }
        }
      ],
      "hex": "01000000010000000000000000000000000000000000000000000000000000000000000000ffffffff5a03e9be141d4d696e656420627920416e74506f6f6c20626a302042205a703b180194fabe6d6dcd7776bb194e527fe6e5d9c75ba7315f75601ac3b0e622dfdc658ef032411b9604000000000000006f1000000000000003000000ffffffff0100f90295000000001976a9140ff3ccc5e8be88afe24b5d634e5852d474dbdff188ac00000000"
    }
  ],
  "time": 1517304600,
  "mediantime": 1517303912,
  "nonce": 3303991768,
  "bits": "1a042eae",
  "difficulty": 4011378.762614286,
  "chainwork": "0000000000000000000000000000000000000000000000342651cb77e71bf9d4",
  "previousblockhash": "0342d7227996bd6123c6e7214dd3fb4131a864e68d4c2d3bb0776b42886c0153",
  "nextblockhash": "14b9a27acf00bf1085685357910b15aaa32986d1dbdaf40f6cf3a560efd50d8a"
}
