{
  "hash": "a48d63dbaa5438338297207dc34c43990f8cdb76bc1561104cee1ed5233dc776",
  "confirmations": 1643,
  "strippedsize": 2579,
  "size": 2615,
  "weight": 10352,
  "height": 1359351,
  "version": 536870912,
  "versionHex": "20000000",
  "merkleroot": "27e5fc6cef52d65be5b9724f372121722794af43d0a7cf34b35d3edae617aa87",
  "tx": [
    {
      "txid": "1625a4fe3111a57ab1b49040869ece68854ae3f50d52e16c370567429a797e05",
      "hash": "d1e542dcec398f156aa1677d98904fc68e5bcb691b25f4a8c7f7415eadae6326",
      "version": 1,
      "size": 277,
      "vsize": 250,
      "locktime": 949484349,
      "vin": [
        {
          "coinbase": "03f7bd142cfabe6d6da20105c388de508128ea29f9c00ff25a7d59f202a37b60f44000ced4337de60608000000f09f909f144d696e6564206279207869616f6d616e30383233000000000000000000000000000000000000000000000000000000000000",
          "sequence": 4
        }
      ],
      "vout": [
        {
          "value": 25.00226000,
          "n": 0,
          "scriptPubKey": {
            "asm": "OP_DUP OP_HASH160 aa3750aa18b8a0f3f0590731e1fab934856680cf OP_EQUALVERIFY OP_CHECKSIG",
            "hex": "76a914aa3750aa18b8a0f3f0590731e1fab934856680cf88ac",
            "reqSigs": 1,
            "type": "pubkeyhash",
            "addresses": [
              "LajyQBeZaBA1NkZDeY8YT5RYYVRkXMvb2T"
            ]
          }
        }, 
        {
          "value": 0.00000000,
          "n": 1,
          "scriptPubKey": {
            "asm": "OP_RETURN aa21a9ed48162c5e856bba338d576aed5aab58466b9dd8d8933e8f0143fc7e4226392129 0000000000000000",
            "hex": "6a24aa21a9ed48162c5e856bba338d576aed5aab58466b9dd8d8933e8f0143fc7e4226392129080000000000000000",
            "type": "nulldata"
          }
        }
      ],
      "hex": "010000000001010000000000000000000000000000000000000000000000000000000000000000ffffffff6403f7bd142cfabe6d6da20105c388de508128ea29f9c00ff25a7d59f202a37b60f44000ced4337de60608000000f09f909f144d696e6564206279207869616f6d616e303832330000000000000000000000000000000000000000000000000000000000000400000002d06b0695000000001976a914aa3750aa18b8a0f3f0590731e1fab934856680cf88ac00000000000000002f6a24aa21a9ed48162c5e856bba338d576aed5aab58466b9dd8d8933e8f0143fc7e4226392129080000000000000000012000000000000000000000000000000000000000000000000000000000000000003dfb9738"
    }, 
    {
      "txid": "74f6f5a6f197a4c3d32e094959bf84c9bd679d9cf3f159e3a7afe3e4ff04ff15",
      "hash": "74f6f5a6f197a4c3d32e094959bf84c9bd679d9cf3f159e3a7afe3e4ff04ff15",
      "version": 1,
      "size": 225,
      "vsize": 225,
      "locktime": 0,
      "vin": [
        {
          "txid": "6e701bfc0dc48fa0b43506e8bae6532a97cd275d182a1a9d597d961edd08f3f7",
          "vout": 0,
          "scriptSig": {
            "asm": "304402204f2e35c7af180276e19fb2f593a3af61d4e9ef41df40ea77e9c0336fa4c65d0f022071c8bdaecbc9c108de28877532733f51edda23eb54a1b8e397ed2911e54bced9[ALL] 0288a8eff3c532742cb610b84e147b3755ccaa04da8aa241acf2ce4a0bbeb6d035",
            "hex": "47304402204f2e35c7af180276e19fb2f593a3af61d4e9ef41df40ea77e9c0336fa4c65d0f022071c8bdaecbc9c108de28877532733f51edda23eb54a1b8e397ed2911e54bced901210288a8eff3c532742cb610b84e147b3755ccaa04da8aa241acf2ce4a0bbeb6d035"
          },
          "sequence": 4294967295
        }
      ],
      "vout": [
        {
          "value": 0.00566720,
          "n": 0,
          "scriptPubKey": {
            "asm": "OP_DUP OP_HASH160 ed09c4224e22aee96e29421d66e10b987461c3b3 OP_EQUALVERIFY OP_CHECKSIG",
            "hex": "76a914ed09c4224e22aee96e29421d66e10b987461c3b388ac",
            "reqSigs": 1,
            "type": "pubkeyhash",
            "addresses": [
              "LgqJ7Ev1ivQyoaMbzSuxLR3ufhYorM2dNY"
            ]
          }
        }, 
        {
          "value": 0.33388080,
          "n": 1,
          "scriptPubKey": {
            "asm": "OP_DUP OP_HASH160 c096b0d62da03eb44b35f64153469c5a9517b227 OP_EQUALVERIFY OP_CHECKSIG",
            "hex": "76a914c096b0d62da03eb44b35f64153469c5a9517b22788ac",
            "reqSigs": 1,
            "type": "pubkeyhash",
            "addresses": [
              "LcnGXDrztLKdkdVf87tVyNrUm1Rtvn22u9"
            ]
          }
        }
      ],
      "hex": "0100000001f7f308dd1e967d599d1a2a185d27cd972a53e6bae80635b4a08fc40dfc1b706e000000006a47304402204f2e35c7af180276e19fb2f593a3af61d4e9ef41df40ea77e9c0336fa4c65d0f022071c8bdaecbc9c108de28877532733f51edda23eb54a1b8e397ed2911e54bced901210288a8eff3c532742cb610b84e147b3755ccaa04da8aa241acf2ce4a0bbeb6d035ffffffff02c0a50800000000001976a914ed09c4224e22aee96e29421d66e10b987461c3b388ac3076fd01000000001976a914c096b0d62da03eb44b35f64153469c5a9517b22788ac00000000"
    }, 
    {
      "txid": "855c3e29debcafc0b02006a45a3eb1a3da837be517dfe869cbb20c3bae8ab985",
      "hash": "855c3e29debcafc0b02006a45a3eb1a3da837be517dfe869cbb20c3bae8ab985",
      "version": 1,
      "size": 225,
      "vsize": 225,
      "locktime": 0,
      "vin": [
        {
          "txid": "57e3bade8b83d347e106a61110c2b4bd0bf8a483681b766623cec22d90147a89",
          "vout": 3,
          "scriptSig": {
            "asm": "30440220277380b970bcfbb7060f3957d7578523ee324016e66f981fe11d89ebc99792dc02201dc11d9e10a336ad7d26c6d3795f49a6302e5070f44b54463c19be5964470c88[ALL] 0301ef82fb9811178734ddd677abfddae8f8ab672d026813224abf067998bc2ae1",
            "hex": "4730440220277380b970bcfbb7060f3957d7578523ee324016e66f981fe11d89ebc99792dc02201dc11d9e10a336ad7d26c6d3795f49a6302e5070f44b54463c19be5964470c8801210301ef82fb9811178734ddd677abfddae8f8ab672d026813224abf067998bc2ae1"
          },
          "sequence": 4294967295
        }
      ],
      "vout": [
        {
          "value": 0.39745453,
          "n": 0,
          "scriptPubKey": {
            "asm": "OP_DUP OP_HASH160 091e1e32ebcc5fe464aec7198ca4a2c03c49b911 OP_EQUALVERIFY OP_CHECKSIG",
            "hex": "76a914091e1e32ebcc5fe464aec7198ca4a2c03c49b91188ac",
            "reqSigs": 1,
            "type": "pubkeyhash",
            "addresses": [
              "LL4ARa9dHnP8pjfAcw9vdKzHqzPQPsg1FZ"
            ]
          }
        }, 
        {
          "value": 3.59231947,
          "n": 1,
          "scriptPubKey": {
            "asm": "OP_DUP OP_HASH160 2a3193f75ce1738adb57ce480a7ffa551513975e OP_EQUALVERIFY OP_CHECKSIG",
            "hex": "76a9142a3193f75ce1738adb57ce480a7ffa551513975e88ac",
            "reqSigs": 1,
            "type": "pubkeyhash",
            "addresses": [
              "LP5431VNH1WbYmz8eMZyMDoV4u2eKHgCNC"
            ]
          }
        }
      ],
      "hex": "0100000001897a14902dc2ce2366761b6883a4f80bbdb4c21011a606e147d3838bdebae357030000006a4730440220277380b970bcfbb7060f3957d7578523ee324016e66f981fe11d89ebc99792dc02201dc11d9e10a336ad7d26c6d3795f49a6302e5070f44b54463c19be5964470c8801210301ef82fb9811178734ddd677abfddae8f8ab672d026813224abf067998bc2ae1ffffffff02ad775e02000000001976a914091e1e32ebcc5fe464aec7198ca4a2c03c49b91188accb716915000000001976a9142a3193f75ce1738adb57ce480a7ffa551513975e88ac00000000"
    }, 
    {
      "txid": "c29d590dbd6a694fb1fff42e9e48f12926393eab427b42530e983375ca63269c",
      "hash": "c29d590dbd6a694fb1fff42e9e48f12926393eab427b42530e983375ca63269c",
      "version": 2,
      "size": 225,
      "vsize": 225,
      "locktime": 1359349,
      "vin": [
        {
          "txid": "814250b46a511e8666719d21a149c394a4b52dc2bd76d8d87f06050aa1a2759b",
          "vout": 0,
          "scriptSig": {
            "asm": "30440220579bc54ebca98a2d487cbae522ed733cdc59d8326e087dd11d34ee088a847b8502206747914226b8b872a2768ae35b9fc18885a89420912cf186155156084d48e055[ALL] 03f0962ebe5418f27d2fbbcda8814e00d533897f28f251de5c7f48ea857d6818fa",
            "hex": "4730440220579bc54ebca98a2d487cbae522ed733cdc59d8326e087dd11d34ee088a847b8502206747914226b8b872a2768ae35b9fc18885a89420912cf186155156084d48e055012103f0962ebe5418f27d2fbbcda8814e00d533897f28f251de5c7f48ea857d6818fa"
          },
          "sequence": 4294967294
        }
      ],
      "vout": [
        {
          "value": 0.01161628,
          "n": 0,
          "scriptPubKey": {
            "asm": "OP_DUP OP_HASH160 5541a75f844a7f2ddd9e3bd1de4f91a2e8decb72 OP_EQUALVERIFY OP_CHECKSIG",
            "hex": "76a9145541a75f844a7f2ddd9e3bd1de4f91a2e8decb7288ac",
            "reqSigs": 1,
            "type": "pubkeyhash",
            "addresses": [
              "LSzkMDz5MpGwck3zwJuEDvVxpeCMFrg3Ez"
            ]
          }
        }, 
        {
          "value": 0.75261292,
          "n": 1,
          "scriptPubKey": {
            "asm": "OP_DUP OP_HASH160 bca16589ca0153fd827f3c3d4af3d32b3ec11bbc OP_EQUALVERIFY OP_CHECKSIG",
            "hex": "76a914bca16589ca0153fd827f3c3d4af3d32b3ec11bbc88ac",
            "reqSigs": 1,
            "type": "pubkeyhash",
            "addresses": [
              "LcRLeK3HMarURMo7gKWfzeNQgtsy7CbfDE"
            ]
          }
        }
      ],
      "hex": "02000000019b75a2a10a05067fd8d876bdc22db5a494c349a1219d7166861e516ab4504281000000006a4730440220579bc54ebca98a2d487cbae522ed733cdc59d8326e087dd11d34ee088a847b8502206747914226b8b872a2768ae35b9fc18885a89420912cf186155156084d48e055012103f0962ebe5418f27d2fbbcda8814e00d533897f28f251de5c7f48ea857d6818fafeffffff029cb91100000000001976a9145541a75f844a7f2ddd9e3bd1de4f91a2e8decb7288ac6c657c04000000001976a914bca16589ca0153fd827f3c3d4af3d32b3ec11bbc88acf5bd1400"
    }, 
    {
      "txid": "f5e72dc4b48157dfd7e42c10442eb1413d09c7927147439bf05390c337ccea15",
      "hash": "f5e72dc4b48157dfd7e42c10442eb1413d09c7927147439bf05390c337ccea15",
      "version": 1,
      "size": 226,
      "vsize": 226,
      "locktime": 0,
      "vin": [
        {
          "txid": "41b0bba096324cafd4b46aaba6a63ef694011b5f6c2cb4c633d745f73d66361c",
          "vout": 18,
          "scriptSig": {
            "asm": "3045022100dd636eb9e821800a47e7a7f040e60e959e876006f90c9ccd03438cff1b589c9d0220563f2469f660ed28098157024721f82f5d2c9b281d7d328940096ddf679b979a[ALL] 0231161cbf6122e198ceebc023333ae2a393c52eea7021fde7597f0e91aa1fca93",
            "hex": "483045022100dd636eb9e821800a47e7a7f040e60e959e876006f90c9ccd03438cff1b589c9d0220563f2469f660ed28098157024721f82f5d2c9b281d7d328940096ddf679b979a01210231161cbf6122e198ceebc023333ae2a393c52eea7021fde7597f0e91aa1fca93"
          },
          "sequence": 4294967295
        }
      ],
      "vout": [
        {
          "value": 0.00070659,
          "n": 0,
          "scriptPubKey": {
            "asm": "OP_DUP OP_HASH160 48abca48a3a5edb2ae782693b786775a08a59b86 OP_EQUALVERIFY OP_CHECKSIG",
            "hex": "76a91448abca48a3a5edb2ae782693b786775a08a59b8688ac",
            "reqSigs": 1,
            "type": "pubkeyhash",
            "addresses": [
              "LRrCiDRxWMtqcnxQXgzUScKbHiRDJfZHmk"
            ]
          }
        }, 
        {
          "value": 0.09119676,
          "n": 1,
          "scriptPubKey": {
            "asm": "OP_DUP OP_HASH160 cf9f0f63d6e734a741654b2fb9a069d40901a6cb OP_EQUALVERIFY OP_CHECKSIG",
            "hex": "76a914cf9f0f63d6e734a741654b2fb9a069d40901a6cb88ac",
            "reqSigs": 1,
            "type": "pubkeyhash",
            "addresses": [
              "Le9kgcV3RZsTeLBF1zyvLsZz6vJU1wBNPA"
            ]
          }
        }
      ],
      "hex": "01000000011c36663df745d733c6b42c6c5f1b0194f63ea6a6ab6ab4d4af4c3296a0bbb041120000006b483045022100dd636eb9e821800a47e7a7f040e60e959e876006f90c9ccd03438cff1b589c9d0220563f2469f660ed28098157024721f82f5d2c9b281d7d328940096ddf679b979a01210231161cbf6122e198ceebc023333ae2a393c52eea7021fde7597f0e91aa1fca93ffffffff0203140100000000001976a91448abca48a3a5edb2ae782693b786775a08a59b8688acbc278b00000000001976a914cf9f0f63d6e734a741654b2fb9a069d40901a6cb88ac00000000"
    }, 
    {
      "txid": "27957521ecbb597b1d64e3f76357fe1478a156f22d3b5731c4e722c102095a41",
      "hash": "27957521ecbb597b1d64e3f76357fe1478a156f22d3b5731c4e722c102095a41",
      "version": 1,
      "size": 226,
      "vsize": 226,
      "locktime": 0,
      "vin": [
        {
          "txid": "a89b2ecccb24ff2d61ab0e4b6e690c2c5e0107261e68f8a61df7c003ef715115",
          "vout": 1,
          "scriptSig": {
            "asm": "3045022100d09a7506d04bd64384ada0352fe8b6bc51e593af328dff1cda31d544de3c2b08022053bd330d6bbaf739c0e1917acf01fbac455cc7c28d5e8ba528e1407abced6b6d[ALL] 029ae176498ea34304fb6a5679ebe2897a22f10d47cc0981ac4d89bc2cf796cd27",
            "hex": "483045022100d09a7506d04bd64384ada0352fe8b6bc51e593af328dff1cda31d544de3c2b08022053bd330d6bbaf739c0e1917acf01fbac455cc7c28d5e8ba528e1407abced6b6d0121029ae176498ea34304fb6a5679ebe2897a22f10d47cc0981ac4d89bc2cf796cd27"
          },
          "sequence": 4294967295
        }
      ],
      "vout": [
        {
          "value": 0.30397831,
          "n": 0,
          "scriptPubKey": {
            "asm": "OP_DUP OP_HASH160 bfddd4f9ea686d64ce99618e8c671a9c69ec5add OP_EQUALVERIFY OP_CHECKSIG",
            "hex": "76a914bfddd4f9ea686d64ce99618e8c671a9c69ec5add88ac",
            "reqSigs": 1,
            "type": "pubkeyhash",
            "addresses": [
              "LciT51J9hj2bh3f1iMM83seiJxMvJNzNPw"
            ]
          }
        }, 
        {
          "value": 4.08939265,
          "n": 1,
          "scriptPubKey": {
            "asm": "OP_DUP OP_HASH160 c8bbbeda83855aabae0c702e3255e2d0e02d818e OP_EQUALVERIFY OP_CHECKSIG",
            "hex": "76a914c8bbbeda83855aabae0c702e3255e2d0e02d818e88ac",
            "reqSigs": 1,
            "type": "pubkeyhash",
            "addresses": [
              "LdXLKNDdMM9NtnTvnFrTBZBXbXnoh44dX8"
            ]
          }
        }
      ],
      "hex": "0100000001155171ef03c0f71da6f8681e2607015e2c0c696e4b0eab612dff24cbcc2e9ba8010000006b483045022100d09a7506d04bd64384ada0352fe8b6bc51e593af328dff1cda31d544de3c2b08022053bd330d6bbaf739c0e1917acf01fbac455cc7c28d5e8ba528e1407abced6b6d0121029ae176498ea34304fb6a5679ebe2897a22f10d47cc0981ac4d89bc2cf796cd27ffffffff0287d5cf01000000001976a914bfddd4f9ea686d64ce99618e8c671a9c69ec5add88ac01eb5f18000000001976a914c8bbbeda83855aabae0c702e3255e2d0e02d818e88ac00000000"
    }, 
    {
      "txid": "b160c0df5d42d8f0455e9f2e0d02ea202d8696d2dd46ebbbbfdcc12f78afdb60",
      "hash": "b160c0df5d42d8f0455e9f2e0d02ea202d8696d2dd46ebbbbfdcc12f78afdb60",
      "version": 1,
      "size": 226,
      "vsize": 226,
      "locktime": 0,
      "vin": [
        {
          "txid": "9b00a773c28ccc772fb60d61ede99a7b98c2114ec73ad1bc503c6153afc3d84a",
          "vout": 1,
          "scriptSig": {
            "asm": "3045022100b6001065ac0fe6939a095fa2dc7acc69286f64020160c1ced4eb3aee6ffb8c7002202c77837ca27ce8af8d673ee21323a08853b1ee77ab72a3ff2b6bac4f6bd039b3[ALL] 022ffd7da5ad028e35cc8d6ba8f3ddfcc475e86572f2a834b8f55cad3137c4b9cf",
            "hex": "483045022100b6001065ac0fe6939a095fa2dc7acc69286f64020160c1ced4eb3aee6ffb8c7002202c77837ca27ce8af8d673ee21323a08853b1ee77ab72a3ff2b6bac4f6bd039b30121022ffd7da5ad028e35cc8d6ba8f3ddfcc475e86572f2a834b8f55cad3137c4b9cf"
          },
          "sequence": 4294967295
        }
      ],
      "vout": [
        {
          "value": 1.97462584,
          "n": 0,
          "scriptPubKey": {
            "asm": "OP_DUP OP_HASH160 12b8502e1b9086dbc472614b53a439c16becea8d OP_EQUALVERIFY OP_CHECKSIG",
            "hex": "76a91412b8502e1b9086dbc472614b53a439c16becea8d88ac",
            "reqSigs": 1,
            "type": "pubkeyhash",
            "addresses": [
              "LLvwDyKZoRhpUpqkQSbJnKVeU1YBZsg9YL"
            ]
          }
        }, 
        {
          "value": 10.98626951,
          "n": 1,
          "scriptPubKey": {
            "asm": "OP_DUP OP_HASH160 194cbece6aa291fe517cea2c3045327c754c96fb OP_EQUALVERIFY OP_CHECKSIG",
            "hex": "76a914194cbece6aa291fe517cea2c3045327c754c96fb88ac",
            "reqSigs": 1,
            "type": "pubkeyhash",
            "addresses": [
              "LMXj6NK9zkpmELy9K9tdkU4xHmtYsD5iut"
            ]
          }
        }
      ],
      "hex": "01000000014ad8c3af53613c50bcd13ac74e11c2987b9ae9ed610db62f77cc8cc273a7009b010000006b483045022100b6001065ac0fe6939a095fa2dc7acc69286f64020160c1ced4eb3aee6ffb8c7002202c77837ca27ce8af8d673ee21323a08853b1ee77ab72a3ff2b6bac4f6bd039b30121022ffd7da5ad028e35cc8d6ba8f3ddfcc475e86572f2a834b8f55cad3137c4b9cfffffffff02380ac50b000000001976a91412b8502e1b9086dbc472614b53a439c16becea8d88ac87b77b41000000001976a914194cbece6aa291fe517cea2c3045327c754c96fb88ac00000000"
    }, 
    {
      "txid": "4a7483ff426aef2af18d71f8e4562df06e8834a6ecb251fbd9ac8d55d2ef8f65",
      "hash": "4a7483ff426aef2af18d71f8e4562df06e8834a6ecb251fbd9ac8d55d2ef8f65",
      "version": 1,
      "size": 226,
      "vsize": 226,
      "locktime": 0,
      "vin": [
        {
          "txid": "e63722a91b4a0ea2728347589049bbd6397d9145f970433d6e72cc18d360ddcb",
          "vout": 0,
          "scriptSig": {
            "asm": "30450221009399e506274e8723c9691f7ee9f22196d26fc8cd6685d755ea57725db9d36c3d0220598818591faec5e2c42082aff782f68b71c1fe5e40a25a837ad3b526f0ce0a2f[ALL] 029fc5af95e31174fc07e04b0a2bd10e5b0e3959c948939fd91315ee364798377e",
            "hex": "4830450221009399e506274e8723c9691f7ee9f22196d26fc8cd6685d755ea57725db9d36c3d0220598818591faec5e2c42082aff782f68b71c1fe5e40a25a837ad3b526f0ce0a2f0121029fc5af95e31174fc07e04b0a2bd10e5b0e3959c948939fd91315ee364798377e"
          },
          "sequence": 4294967295
        }
      ],
      "vout": [
        {
          "value": 0.00054798,
          "n": 0,
          "scriptPubKey": {
            "asm": "OP_DUP OP_HASH160 0b1374abd95ea667ee0fd8c7f90e2d0547d68980 OP_EQUALVERIFY OP_CHECKSIG",
            "hex": "76a9140b1374abd95ea667ee0fd8c7f90e2d0547d6898088ac",
            "reqSigs": 1,
            "type": "pubkeyhash",
            "addresses": [
              "LLEX18crBTCMnmz2dQvB8qty8k3qRK4y85"
            ]
          }
        }, 
        {
          "value": 0.05240881,
          "n": 1,
          "scriptPubKey": {
            "asm": "OP_DUP OP_HASH160 0210e98e98c1b3d53c6ed608c6289bfbd6326716 OP_EQUALVERIFY OP_CHECKSIG",
            "hex": "76a9140210e98e98c1b3d53c6ed608c6289bfbd632671688ac",
            "reqSigs": 1,
            "type": "pubkeyhash",
            "addresses": [
              "LKQssgkKoLoDJJpe8cj2C4h6L7RU7P5odb"
            ]
          }
        }
      ],
      "hex": "0100000001cbdd60d318cc726e3d4370f945917d39d6bb499058478372a20e4a1ba92237e6000000006b4830450221009399e506274e8723c9691f7ee9f22196d26fc8cd6685d755ea57725db9d36c3d0220598818591faec5e2c42082aff782f68b71c1fe5e40a25a837ad3b526f0ce0a2f0121029fc5af95e31174fc07e04b0a2bd10e5b0e3959c948939fd91315ee364798377effffffff020ed60000000000001976a9140b1374abd95ea667ee0fd8c7f90e2d0547d6898088ac31f84f00000000001976a9140210e98e98c1b3d53c6ed608c6289bfbd632671688ac00000000"
    }, 
    {
      "txid": "735cc5d33b44c25bca74711116039ebf0165223ad787fb67845601592b2ffa9c",
      "hash": "735cc5d33b44c25bca74711116039ebf0165223ad787fb67845601592b2ffa9c",
      "version": 1,
      "size": 226,
      "vsize": 226,
      "locktime": 0,
      "vin": [
        {
          "txid": "40ca40d5fa75d5f1168150bed45aba5e4b79ef116447de3e4b422bd67309cb3c",
          "vout": 0,
          "scriptSig": {
            "asm": "3045022100e5af3b7d7ca1198cc48cae1ae77968583b1fb83826843e294fc5e41d303bccb5022010ca829fc5e1e8849209b8aeaa977541e51c9eb65111728b908085a4cec60ddb[ALL] 0301ef82fb9811178734ddd677abfddae8f8ab672d026813224abf067998bc2ae1",
            "hex": "483045022100e5af3b7d7ca1198cc48cae1ae77968583b1fb83826843e294fc5e41d303bccb5022010ca829fc5e1e8849209b8aeaa977541e51c9eb65111728b908085a4cec60ddb01210301ef82fb9811178734ddd677abfddae8f8ab672d026813224abf067998bc2ae1"
          },
          "sequence": 4294967295
        }
      ],
      "vout": [
        {
          "value": 0.20890637,
          "n": 0,
          "scriptPubKey": {
            "asm": "OP_DUP OP_HASH160 51082c7e411063227fafeddcd4823d8cc3f32a1e OP_EQUALVERIFY OP_CHECKSIG",
            "hex": "76a91451082c7e411063227fafeddcd4823d8cc3f32a1e88ac",
            "reqSigs": 1,
            "type": "pubkeyhash",
            "addresses": [
              "LScQngDYpxFL7keyCFqdunCuoipwBwZP7i"
            ]
          }
        }, 
        {
          "value": 2.78086763,
          "n": 1,
          "scriptPubKey": {
            "asm": "OP_DUP OP_HASH160 50515990341f43b7ebad0d7fc357c06811de79c9 OP_EQUALVERIFY OP_CHECKSIG",
            "hex": "76a91450515990341f43b7ebad0d7fc357c06811de79c988ac",
            "reqSigs": 1,
            "type": "pubkeyhash",
            "addresses": [
              "LSYdmr48p9dbz4soJFa7MgrLUYesHUqn3g"
            ]
          }
        }
      ],
      "hex": "01000000013ccb0973d62b424b3ede476411ef794b5eba5ad4be508116f1d575fad540ca40000000006b483045022100e5af3b7d7ca1198cc48cae1ae77968583b1fb83826843e294fc5e41d303bccb5022010ca829fc5e1e8849209b8aeaa977541e51c9eb65111728b908085a4cec60ddb01210301ef82fb9811178734ddd677abfddae8f8ab672d026813224abf067998bc2ae1ffffffff020dc43e01000000001976a91451082c7e411063227fafeddcd4823d8cc3f32a1e88ac6b449310000000001976a91450515990341f43b7ebad0d7fc357c06811de79c988ac00000000"
    }, 
    {
      "txid": "a7b385d752e807eb783f3655270696e25863a9b419d3161d6eebbce470a549cf",
      "hash": "a7b385d752e807eb783f3655270696e25863a9b419d3161d6eebbce470a549cf",
      "version": 1,
      "size": 226,
      "vsize": 226,
      "locktime": 0,
      "vin": [
        {
          "txid": "90252824ffcee47f81937005aa93d9dcefd9ec118678c90e1846f4b9df5e4b3b",
          "vout": 0,
          "scriptSig": {
            "asm": "3045022100b29658cb7c99065c8c592a6555603b0c6d0ef9f1a5b7812732cc06e52a42aba80220382c60f9ffd492c210be5a7ec7d632109965f71a5de4e00e767aa6dcbe36a2a6[ALL] 02c661810f8230c0da34ef89251701c9ad8e0115b133f88723a8e5fd02d2c816d3",
            "hex": "483045022100b29658cb7c99065c8c592a6555603b0c6d0ef9f1a5b7812732cc06e52a42aba80220382c60f9ffd492c210be5a7ec7d632109965f71a5de4e00e767aa6dcbe36a2a6012102c661810f8230c0da34ef89251701c9ad8e0115b133f88723a8e5fd02d2c816d3"
          },
          "sequence": 4294967295
        }
      ],
      "vout": [
        {
          "value": 0.42840229,
          "n": 0,
          "scriptPubKey": {
            "asm": "OP_DUP OP_HASH160 887da5148dfc08da10ba5242c237d763e2e0e7cc OP_EQUALVERIFY OP_CHECKSIG",
            "hex": "76a914887da5148dfc08da10ba5242c237d763e2e0e7cc88ac",
            "reqSigs": 1,
            "type": "pubkeyhash",
            "addresses": [
              "LXfegFxvTBjpSBS12L6EW9c6pFuGvce3vx"
            ]
          }
        }, 
        {
          "value": 0.03905608,
          "n": 1,
          "scriptPubKey": {
            "asm": "OP_DUP OP_HASH160 633985b32f51b3ece9457aaeeda9a050a193ac7c OP_EQUALVERIFY OP_CHECKSIG",
            "hex": "76a914633985b32f51b3ece9457aaeeda9a050a193ac7c88ac",
            "reqSigs": 1,
            "type": "pubkeyhash",
            "addresses": [
              "LUGc4vPUfgq8ZPprwhgWbZLgykPVvLfjcF"
            ]
          }
        }
      ],
      "hex": "01000000013b4b5edfb9f446180ec9788611ecd9efdcd993aa057093817fe4ceff24282590000000006b483045022100b29658cb7c99065c8c592a6555603b0c6d0ef9f1a5b7812732cc06e52a42aba80220382c60f9ffd492c210be5a7ec7d632109965f71a5de4e00e767aa6dcbe36a2a6012102c661810f8230c0da34ef89251701c9ad8e0115b133f88723a8e5fd02d2c816d3ffffffff02a5b08d02000000001976a914887da5148dfc08da10ba5242c237d763e2e0e7cc88ac48983b00000000001976a914633985b32f51b3ece9457aaeeda9a050a193ac7c88ac00000000"
    }, 
    {
      "txid": "fd1047f5e850ee2fa52c3273e57007274f3efc23f4a0fd2b2fa49f0b415cb7f1",
      "hash": "fd1047f5e850ee2fa52c3273e57007274f3efc23f4a0fd2b2fa49f0b415cb7f1",
      "version": 1,
      "size": 226,
      "vsize": 226,
      "locktime": 0,
      "vin": [
        {
          "txid": "480d0cdace44e8a0342112ca164a5b055414fdd7396059560ec3507f364e3b92",
          "vout": 0,
          "scriptSig": {
            "asm": "3045022100b2b1b10f4cd28400b8218638991690d19af21ba203bd6193d09e22e6fd2f5b23022066936307a0717b580dd41dce696f4cb57135d9e082e9729307e9a4c9d92917ee[ALL] 0211b234cab9c150b8d99d1f0e32ceddaba41eeb7160fa2d01d8d5e0952d14a1ee",
            "hex": "483045022100b2b1b10f4cd28400b8218638991690d19af21ba203bd6193d09e22e6fd2f5b23022066936307a0717b580dd41dce696f4cb57135d9e082e9729307e9a4c9d92917ee01210211b234cab9c150b8d99d1f0e32ceddaba41eeb7160fa2d01d8d5e0952d14a1ee"
          },
          "sequence": 4294967295
        }
      ],
      "vout": [
        {
          "value": 0.09266259,
          "n": 0,
          "scriptPubKey": {
            "asm": "OP_DUP OP_HASH160 a8eca0a4207c11c9fe293d80e030210a5f35e572 OP_EQUALVERIFY OP_CHECKSIG",
            "hex": "76a914a8eca0a4207c11c9fe293d80e030210a5f35e57288ac",
            "reqSigs": 1,
            "type": "pubkeyhash",
            "addresses": [
              "Lad9FcCm6DAMtwSsQof285MkfXAGJXe8JU"
            ]
          }
        }, 
        {
          "value": 0.45573300,
          "n": 1,
          "scriptPubKey": {
            "asm": "OP_DUP OP_HASH160 14531b8014bab2ac5de304ef7609a656606e18c5 OP_EQUALVERIFY OP_CHECKSIG",
            "hex": "76a91414531b8014bab2ac5de304ef7609a656606e18c588ac",
            "reqSigs": 1,
            "type": "pubkeyhash",
            "addresses": [
              "LM5RLTKZo7P9FF3JSRbwrAJHooWGRABrwt"
            ]
          }
        }
      ],
      "hex": "0100000001923b4e367f50c30e56596039d7fd1454055b4a16ca122134a0e844ceda0c0d48000000006b483045022100b2b1b10f4cd28400b8218638991690d19af21ba203bd6193d09e22e6fd2f5b23022066936307a0717b580dd41dce696f4cb57135d9e082e9729307e9a4c9d92917ee01210211b234cab9c150b8d99d1f0e32ceddaba41eeb7160fa2d01d8d5e0952d14a1eeffffffff0253648d00000000001976a914a8eca0a4207c11c9fe293d80e030210a5f35e57288acb464b702000000001976a91414531b8014bab2ac5de304ef7609a656606e18c588ac00000000"
    }
  ],
  "time": 1517270181,
  "mediantime": 1517270103,
  "nonce": 1824227931,
  "bits": "1a042eae",
  "difficulty": 4011378.762614286,
  "chainwork": "000000000000000000000000000000000000000000000033ec750b1e9947bcf0",
  "previousblockhash": "13e7adbdf26ae328f2f362e2150040b3ef3f3d00dc91d0b4f6241e12c6acf6ca",
  "nextblockhash": "140e4ac133e6b8f7d6e9d3c78d9b20700dc0f68254aa59b025b60a09eefb05da"
}
