{
  "hash": "a4b72debafca81382835e0eafef36ffbbfad709c4dfcca157741c835cc353acc",
  "confirmations": 3611,
  "strippedsize": 234,
  "size": 234,
  "weight": 936,
  "height": 1357384,
  "version": 536870912,
  "versionHex": "20000000",
  "merkleroot": "eaad851ae7094c1d35cc9cd4b167af0aa6ad37c67a8e09b74310d2c2a82d9365",
  "tx": [
    {
      "txid": "eaad851ae7094c1d35cc9cd4b167af0aa6ad37c67a8e09b74310d2c2a82d9365",
      "hash": "eaad851ae7094c1d35cc9cd4b167af0aa6ad37c67a8e09b74310d2c2a82d9365",
      "version": 1,
      "size": 153,
      "vsize": 153,
      "locktime": 0,
      "vin": [
        {
          "coinbase": "0348b614045a6b87322cfabe6d6dbd0c5c8e56e6efba54dd03dff2176b7708e04d2c5b000fbac87a64a8aa3bc4a14000000000000000042f4c502f08560010b303000000",
          "sequence": 4294967295
        }
      ],
      "vout": [
        {
          "value": 25.00000000,
          "n": 0,
          "scriptPubKey": {
            "asm": "OP_DUP OP_HASH160 57757ed2ecf2052ff3126c397aca7defb9ca2cec OP_EQUALVERIFY OP_CHECKSIG",
            "hex": "76a91457757ed2ecf2052ff3126c397aca7defb9ca2cec88ac",
            "reqSigs": 1,
            "type": "pubkeyhash",
            "addresses": [
              "LTCPodGk5FwcJaRzH9yKnwicxzFUbxp6tN"
            ]
          }
        }
      ],
      "hex": "01000000010000000000000000000000000000000000000000000000000000000000000000ffffffff440348b614045a6b87322cfabe6d6dbd0c5c8e56e6efba54dd03dff2176b7708e04d2c5b000fbac87a64a8aa3bc4a14000000000000000042f4c502f08560010b303000000ffffffff0100f90295000000001976a91457757ed2ecf2052ff3126c397aca7defb9ca2cec88ac00000000"
    }
  ],
  "time": 1516996402,
  "mediantime": 1516996090,
  "nonce": 232219336,
  "bits": "1a047f14",
  "difficulty": 3731199.183374282,
  "chainwork": "0000000000000000000000000000000000000000000000322d82a1017a8cb26a",
  "previousblockhash": "65790d67376f94735b2826aab0ad2bd828d3d84426e184c0018e18c4c37d465a",
  "nextblockhash": "1ce8ee1e8a9db2be27f8ae9c5d873fd7c83d34915a9e45d684c2bf4c0206b917"
}
