{
  "hash": "a4b7b79a098f5dce5f22ea19a8059de6ead97418d460c40c6a5fa9fbc26705da",
  "confirmations": 2416,
  "strippedsize": 5222,
  "size": 5258,
  "weight": 20924,
  "height": 1358579,
  "version": 536870912,
  "versionHex": "20000000",
  "merkleroot": "b92753e4c66b72dde31730e90bfb291761e8173562a6fafbdd4cbd6800ef413b",
  "tx": [
    {
      "txid": "59fdf06977ef7f4d3bcb131027ab58c7dc2fee9ac3f3deb1723db99508719120",
      "hash": "710e913ef01fd6dc59f18caa9adf655e01caadc2318a6afd47e75c32900cbccd",
      "version": 1,
      "size": 243,
      "vsize": 216,
      "locktime": 0,
      "vin": [
        {
          "coinbase": "03f3ba14043f066e5afabe6d6d6627ae1564be0bac716b6fe27e7697aa463a12902e84a38aeadbdb2693ce49a6100000000000000008480eba2a100000000c2f41533935434e555151452f",
          "sequence": 0
        }
      ],
      "vout": [
        {
          "value": 25.01924156,
          "n": 0,
          "scriptPubKey": {
            "asm": "OP_DUP OP_HASH160 81308472f5a29a68cec40cbb4cd3f4be72094456 OP_EQUALVERIFY OP_CHECKSIG",
            "hex": "76a91481308472f5a29a68cec40cbb4cd3f4be7209445688ac",
            "reqSigs": 1,
            "type": "pubkeyhash",
            "addresses": [
              "LX13Z1HZKVzRDabi8CsPdGhp7YbC7Q8qtn"
            ]
          }
        }, 
        {
          "value": 0.00000000,
          "n": 1,
          "scriptPubKey": {
            "asm": "OP_RETURN aa21a9ed221359c76f580b444f3fe25f1acf232ae9f5901bb75aba03ab8d68421ba99abb",
            "hex": "6a24aa21a9ed221359c76f580b444f3fe25f1acf232ae9f5901bb75aba03ab8d68421ba99abb",
            "type": "nulldata"
          }
        }
      ],
      "hex": "010000000001010000000000000000000000000000000000000000000000000000000000000000ffffffff4b03f3ba14043f066e5afabe6d6d6627ae1564be0bac716b6fe27e7697aa463a12902e84a38aeadbdb2693ce49a6100000000000000008480eba2a100000000c2f41533935434e555151452f00000000023c552095000000001976a91481308472f5a29a68cec40cbb4cd3f4be7209445688ac0000000000000000266a24aa21a9ed221359c76f580b444f3fe25f1acf232ae9f5901bb75aba03ab8d68421ba99abb0120000000000000000000000000000000000000000000000000000000000000000000000000"
    }, 
    {
      "txid": "138875d30800ef1918564756afb6f2ffbb8146f2926e2ed0b3ed8db9f0dea4d6",
      "hash": "138875d30800ef1918564756afb6f2ffbb8146f2926e2ed0b3ed8db9f0dea4d6",
      "version": 1,
      "size": 371,
      "vsize": 371,
      "locktime": 0,
      "vin": [
        {
          "txid": "d18ec2d91d4b735588d528f3ac92f5467cd4710dd357cecfe956b448d4ad17ef",
          "vout": 0,
          "scriptSig": {
            "asm": "304402207644597052b480102a4ca4caeec07682420c2835647c279cb1f63b31fca782b902207d8eb3ee112294828e07fc01ac3c47a5232c18f8224597aa04e48738a5b89e7b[ALL] 0281e39da244a57a3b958b8673fe2a9cda875de6952e6aa6a053b607d215675d24",
            "hex": "47304402207644597052b480102a4ca4caeec07682420c2835647c279cb1f63b31fca782b902207d8eb3ee112294828e07fc01ac3c47a5232c18f8224597aa04e48738a5b89e7b01210281e39da244a57a3b958b8673fe2a9cda875de6952e6aa6a053b607d215675d24"
          },
          "sequence": 4294967295
        }, 
        {
          "txid": "e6bd9f873e9f5536bd8655e350776c5e694c6e3cc7a69806dbc52a5447467370",
          "vout": 1,
          "scriptSig": {
            "asm": "3045022100dbae422efc2f6b40f52ece0807ebf29e0691bff7a7f2bb37bf1d73efd3e9beba02202141e1aebd785e1a1b1a608145c7ce10841aed3150ba6ee48df2e226e5f9e4e6[ALL] 02286abf1069656b0943eaabc46a7fc6f19387087805d02ca61652a269435c286e",
            "hex": "483045022100dbae422efc2f6b40f52ece0807ebf29e0691bff7a7f2bb37bf1d73efd3e9beba02202141e1aebd785e1a1b1a608145c7ce10841aed3150ba6ee48df2e226e5f9e4e6012102286abf1069656b0943eaabc46a7fc6f19387087805d02ca61652a269435c286e"
          },
          "sequence": 4294967295
        }
      ],
      "vout": [
        {
          "value": 0.13636612,
          "n": 0,
          "scriptPubKey": {
            "asm": "OP_HASH160 c92475778b8eb85c3fa48e54acc686759d07b856 OP_EQUAL",
            "hex": "a914c92475778b8eb85c3fa48e54acc686759d07b85687",
            "reqSigs": 1,
            "type": "scripthash",
            "addresses": [
              "MSEhjCC95EfxuG4j8xaqaB2r8cq87vQ8oj"
            ]
          }
        }, 
        {
          "value": 0.03054430,
          "n": 1,
          "scriptPubKey": {
            "asm": "OP_DUP OP_HASH160 382a547360086d9b443c5259493a3e6c41950606 OP_EQUALVERIFY OP_CHECKSIG",
            "hex": "76a914382a547360086d9b443c5259493a3e6c4195060688ac",
            "reqSigs": 1,
            "type": "pubkeyhash",
            "addresses": [
              "LQLvp62gBTp72msCWMCvsKx92Yzu5bKAWC"
            ]
          }
        }
      ],
      "hex": "0100000002ef17add448b456e9cfce57d30d71d47c46f592acf328d58855734b1dd9c28ed1000000006a47304402207644597052b480102a4ca4caeec07682420c2835647c279cb1f63b31fca782b902207d8eb3ee112294828e07fc01ac3c47a5232c18f8224597aa04e48738a5b89e7b01210281e39da244a57a3b958b8673fe2a9cda875de6952e6aa6a053b607d215675d24ffffffff70734647542ac5db0698a6c73c6e4c695e6c7750e35586bd36559f3e879fbde6010000006b483045022100dbae422efc2f6b40f52ece0807ebf29e0691bff7a7f2bb37bf1d73efd3e9beba02202141e1aebd785e1a1b1a608145c7ce10841aed3150ba6ee48df2e226e5f9e4e6012102286abf1069656b0943eaabc46a7fc6f19387087805d02ca61652a269435c286effffffff020414d0000000000017a914c92475778b8eb85c3fa48e54acc686759d07b856875e9b2e00000000001976a914382a547360086d9b443c5259493a3e6c4195060688ac00000000"
    }, 
    {
      "txid": "9f872d652c05d56054aeb9f75dcebe95dd150f880baab53ca96091f163c96646",
      "hash": "9f872d652c05d56054aeb9f75dcebe95dd150f880baab53ca96091f163c96646",
      "version": 1,
      "size": 373,
      "vsize": 373,
      "locktime": 0,
      "vin": [
        {
          "txid": "8886099b91ad420f5680f22054d503cbda560fa7135197adf32e7b0269ebf55a",
          "vout": 1,
          "scriptSig": {
            "asm": "304402202a70a92a58917b305358e9d9c7744b411e471a15427ad6cb67721b12a1ae0cdf022052de9ee79d5bdf3d04dda181e0f790ebe9771ac079b9ef49200ce29e700d120b[ALL] 0228b6d498cd94565829a89b11c3a9f2c6e14000705eecd948bca72b0963ec0c68",
            "hex": "47304402202a70a92a58917b305358e9d9c7744b411e471a15427ad6cb67721b12a1ae0cdf022052de9ee79d5bdf3d04dda181e0f790ebe9771ac079b9ef49200ce29e700d120b01210228b6d498cd94565829a89b11c3a9f2c6e14000705eecd948bca72b0963ec0c68"
          },
          "sequence": 4294967295
        }, 
        {
          "txid": "00b79c87e4a5d2ccbd303b0ab2e5a6d98784058f486e7d0c5712c380070c43a3",
          "vout": 0,
          "scriptSig": {
            "asm": "30450221009e77435d6fb3bfcaf1ef850d3fcbe8bad59d469177b5bfadceceb78458c7224302205e68a05d4ec54ebf103f9809dd063baecb3dc6783084ce1f5ccd787037a837ff[ALL] 0312e3c4bb7065352992cca3ca73439024d2d15f823072ef16866e4fc03d223b88",
            "hex": "4830450221009e77435d6fb3bfcaf1ef850d3fcbe8bad59d469177b5bfadceceb78458c7224302205e68a05d4ec54ebf103f9809dd063baecb3dc6783084ce1f5ccd787037a837ff01210312e3c4bb7065352992cca3ca73439024d2d15f823072ef16866e4fc03d223b88"
          },
          "sequence": 4294967295
        }
      ],
      "vout": [
        {
          "value": 0.50334672,
          "n": 0,
          "scriptPubKey": {
            "asm": "OP_DUP OP_HASH160 0f7268045912dbd607473af3974599e72693b227 OP_EQUALVERIFY OP_CHECKSIG",
            "hex": "76a9140f7268045912dbd607473af3974599e72693b22788ac",
            "reqSigs": 1,
            "type": "pubkeyhash",
            "addresses": [
              "LLddTBS5fBVJYDbbaXMkcG2fkRnZ9Dokgt"
            ]
          }
        }, 
        {
          "value": 0.00201297,
          "n": 1,
          "scriptPubKey": {
            "asm": "OP_DUP OP_HASH160 011372417653973451417a09ba834983361789f7 OP_EQUALVERIFY OP_CHECKSIG",
            "hex": "76a914011372417653973451417a09ba834983361789f788ac",
            "reqSigs": 1,
            "type": "pubkeyhash",
            "addresses": [
              "LKKeEZLBzEXnNbWQ7S9oVgDsY4G7is1WNi"
            ]
          }
        }
      ],
      "hex": "01000000025af5eb69027b2ef3ad975113a70f56dacb03d55420f280560f42ad919b098688010000006a47304402202a70a92a58917b305358e9d9c7744b411e471a15427ad6cb67721b12a1ae0cdf022052de9ee79d5bdf3d04dda181e0f790ebe9771ac079b9ef49200ce29e700d120b01210228b6d498cd94565829a89b11c3a9f2c6e14000705eecd948bca72b0963ec0c68ffffffffa3430c0780c312570c7d6e488f058487d9a6e5b20a3b30bdccd2a5e4879cb700000000006b4830450221009e77435d6fb3bfcaf1ef850d3fcbe8bad59d469177b5bfadceceb78458c7224302205e68a05d4ec54ebf103f9809dd063baecb3dc6783084ce1f5ccd787037a837ff01210312e3c4bb7065352992cca3ca73439024d2d15f823072ef16866e4fc03d223b88ffffffff02d00b0003000000001976a9140f7268045912dbd607473af3974599e72693b22788ac51120300000000001976a914011372417653973451417a09ba834983361789f788ac00000000"
    }, 
    {
      "txid": "4e46d06e893cf02287fb3a049557307f4611f39c2732a7840085c160df8946a4",
      "hash": "4e46d06e893cf02287fb3a049557307f4611f39c2732a7840085c160df8946a4",
      "version": 1,
      "size": 191,
      "vsize": 191,
      "locktime": 0,
      "vin": [
        {
          "txid": "f96c1ddd8c842b858e52e7c9ce8b5dbb2a61ecad55a70a2ce1d5253c573c4f60",
          "vout": 1,
          "scriptSig": {
            "asm": "304402203b39e03244ef0a2108f77d9a854b46c61ae1cf2d0ffd9e236e41fd5437afa0d6022045a38e808506d210ddea14fe00d1548b142c4bc53a2ec9690357e90c7279dd22[ALL] 026e49d99fd3e06bbf7fc288c0f6785155844c1cdeb019deca548316ae6a8c8d06",
            "hex": "47304402203b39e03244ef0a2108f77d9a854b46c61ae1cf2d0ffd9e236e41fd5437afa0d6022045a38e808506d210ddea14fe00d1548b142c4bc53a2ec9690357e90c7279dd220121026e49d99fd3e06bbf7fc288c0f6785155844c1cdeb019deca548316ae6a8c8d06"
          },
          "sequence": 4294967295
        }
      ],
      "vout": [
        {
          "value": 0.68993021,
          "n": 0,
          "scriptPubKey": {
            "asm": "OP_DUP OP_HASH160 a1922054236c6bb1ce7752cd0d931aa4785055d5 OP_EQUALVERIFY OP_CHECKSIG",
            "hex": "76a914a1922054236c6bb1ce7752cd0d931aa4785055d588ac",
            "reqSigs": 1,
            "type": "pubkeyhash",
            "addresses": [
              "LZxG78VG7VbXrDsG4vqRBG4ZuZ5qmcfpGa"
            ]
          }
        }
      ],
      "hex": "0100000001604f3c573c25d5e12c0aa755adec612abb5d8bcec9e7528e852b848cdd1d6cf9010000006a47304402203b39e03244ef0a2108f77d9a854b46c61ae1cf2d0ffd9e236e41fd5437afa0d6022045a38e808506d210ddea14fe00d1548b142c4bc53a2ec9690357e90c7279dd220121026e49d99fd3e06bbf7fc288c0f6785155844c1cdeb019deca548316ae6a8c8d06ffffffff01fdbf1c04000000001976a914a1922054236c6bb1ce7752cd0d931aa4785055d588ac00000000"
    }, 
    {
      "txid": "dd3307b52a0f815964379f18463dd2ab77967fa8595be8a5f937e5b58a74f0e7",
      "hash": "dd3307b52a0f815964379f18463dd2ab77967fa8595be8a5f937e5b58a74f0e7",
      "version": 1,
      "size": 3323,
      "vsize": 3323,
      "locktime": 0,
      "vin": [
        {
          "txid": "df74c383546ae8f1c9033872919acfe6f90401c826363fc8139f4efc0f7f95a5",
          "vout": 0,
          "scriptSig": {
            "asm": "304402203c8e776d70ef144beda326062230f8128909a650be6d90fd2b91e341d9064f6302202a3140f5d333dd4065ceea78a47504354104ea539bde4c0b7e8a88cf5157ed09[ALL] 038c109f961c6b26f2efc4d1a83dafa71f2e262c32462df5c96a986f4afc0360f1",
            "hex": "47304402203c8e776d70ef144beda326062230f8128909a650be6d90fd2b91e341d9064f6302202a3140f5d333dd4065ceea78a47504354104ea539bde4c0b7e8a88cf5157ed090121038c109f961c6b26f2efc4d1a83dafa71f2e262c32462df5c96a986f4afc0360f1"
          },
          "sequence": 4294967295
        }, 
        {
          "txid": "a3e23b9ca83e1f2620298d7a9c620e74f1dd5285546586218c691fabec6c8b81",
          "vout": 1,
          "scriptSig": {
            "asm": "30440220586c0e67638bcfe2651db48cccc6b24f1c2789b66016562d8f77c5098de45dee02201c6653ad3be22b6ecdff7db0eecb25301d905db6324e0329fbd0c4fd3afef7ae[ALL] 03f2ffa833e718a6ac5d78f57a4089d83dbf7be362baf7c56d219705298ac1816e",
            "hex": "4730440220586c0e67638bcfe2651db48cccc6b24f1c2789b66016562d8f77c5098de45dee02201c6653ad3be22b6ecdff7db0eecb25301d905db6324e0329fbd0c4fd3afef7ae012103f2ffa833e718a6ac5d78f57a4089d83dbf7be362baf7c56d219705298ac1816e"
          },
          "sequence": 4294967295
        }, 
        {
          "txid": "05c4c8713f9004d53a7490cc8d855228d83a294fb25f030710d80fa3d6e8377b",
          "vout": 1,
          "scriptSig": {
            "asm": "3045022100912a40eb557ac76e092a405d5b108796c007e255b533a2021e85a08e2a96cb3b022021a416afae1549ed7d48f484a246dfc9c3778e39d1acde1f18d3b81281ea4b7e[ALL] 0201c363ab02814cc23f6af81b52a08d0475c7b5d0888047e8fb645e8d225a5ca7",
            "hex": "483045022100912a40eb557ac76e092a405d5b108796c007e255b533a2021e85a08e2a96cb3b022021a416afae1549ed7d48f484a246dfc9c3778e39d1acde1f18d3b81281ea4b7e01210201c363ab02814cc23f6af81b52a08d0475c7b5d0888047e8fb645e8d225a5ca7"
          },
          "sequence": 4294967295
        }, 
        {
          "txid": "d4b030cbcdbee2c889c2782856d4f86d036126052d5930fa2d11f04db3c891fa",
          "vout": 17,
          "scriptSig": {
            "asm": "30440220009bfd37c6c88a05a52129a72bacd4ae0606cd3056c0aa94f4f1386840ad3063022035b6959ca6f754f94d19a4a9053665cff9b6fc6129b4f2de7ceea90b3e7ed2b6[ALL] 0328716151821eaaf649111d9ecc1ee914150ff520cc9a66115e86817511c6f999",
            "hex": "4730440220009bfd37c6c88a05a52129a72bacd4ae0606cd3056c0aa94f4f1386840ad3063022035b6959ca6f754f94d19a4a9053665cff9b6fc6129b4f2de7ceea90b3e7ed2b601210328716151821eaaf649111d9ecc1ee914150ff520cc9a66115e86817511c6f999"
          },
          "sequence": 4294967295
        }, 
        {
          "txid": "1d2b9fd6081ebdd026d0311e53ed46ebe6eb0e41d76e4c4d04154973ac5606fe",
          "vout": 1,
          "scriptSig": {
            "asm": "304502210089ebf45868286e3e7a4b9fc2cb085c8ce6cdbadc8c3a883b19a2cbadb5dfd0f602206d57f80bcaf504f2201243e89727207548e15ed87af9cd95ee2dc344ef2d863c[ALL] 030716c0e772fde45e7bfa0863519bbc93c5ac7c7cec42761a4095e4647e271fc2",
            "hex": "48304502210089ebf45868286e3e7a4b9fc2cb085c8ce6cdbadc8c3a883b19a2cbadb5dfd0f602206d57f80bcaf504f2201243e89727207548e15ed87af9cd95ee2dc344ef2d863c0121030716c0e772fde45e7bfa0863519bbc93c5ac7c7cec42761a4095e4647e271fc2"
          },
          "sequence": 4294967295
        }, 
        {
          "txid": "3259ff7d653de5fa21ee966d942fc62e0748b0082073bcc4fcb79e0917120e28",
          "vout": 0,
          "scriptSig": {
            "asm": "3045022100c474b43a453dfbab0f4374b31e36d165cbf2c0011425f9296206635a62cc75800220208a914ed09f531a73b435b883300f7af5d3014e84318218621bcbf30339418f[ALL] 02aeacfbdd251bfe8bf8a5f290c4afcadef4ee6f5d65caf9eb1d194f785d4f5db3",
            "hex": "483045022100c474b43a453dfbab0f4374b31e36d165cbf2c0011425f9296206635a62cc75800220208a914ed09f531a73b435b883300f7af5d3014e84318218621bcbf30339418f012102aeacfbdd251bfe8bf8a5f290c4afcadef4ee6f5d65caf9eb1d194f785d4f5db3"
          },
          "sequence": 4294967295
        }, 
        {
          "txid": "6f072ceb7869395024f0e1837afaf80f5ca824c276f335d5d9927f9d0ab753db",
          "vout": 0,
          "scriptSig": {
            "asm": "3045022100e72b6e4573e843d86cd09f916778b194ce247b02ff6debb98d055366d46b2729022009c6a69c12b117755d6ba604d60da256e8da3ad48fb25d400e70c74e8250a235[ALL] 03f946a47d60eb22ee9edcca5d08abf4cbf5c1874e78383c2929aa4d0e73995d4c",
            "hex": "483045022100e72b6e4573e843d86cd09f916778b194ce247b02ff6debb98d055366d46b2729022009c6a69c12b117755d6ba604d60da256e8da3ad48fb25d400e70c74e8250a235012103f946a47d60eb22ee9edcca5d08abf4cbf5c1874e78383c2929aa4d0e73995d4c"
          },
          "sequence": 4294967295
        }, 
        {
          "txid": "9d6ab489424370217f47042a735b87994c24989a8ad2993765ba8136e60db8dc",
          "vout": 0,
          "scriptSig": {
            "asm": "3044022040975a9aacc2fd8882df8e09b6ad9e5da7c68d2f153914835b00d067d4762c3b02205e6fb6840b94cc862015f6de8da0805630fa2706659bded725d9dd1d290ce5a8[ALL] 0307c5e1d1598f23f53966c75b8ff77a8d7bf4623a6d761d99792aea03f2efe3d4",
            "hex": "473044022040975a9aacc2fd8882df8e09b6ad9e5da7c68d2f153914835b00d067d4762c3b02205e6fb6840b94cc862015f6de8da0805630fa2706659bded725d9dd1d290ce5a801210307c5e1d1598f23f53966c75b8ff77a8d7bf4623a6d761d99792aea03f2efe3d4"
          },
          "sequence": 4294967295
        }, 
        {
          "txid": "2273b5bf4d0662f4c92a60bfb2f4308e9a05c71fb0886190db7a6b65f623994c",
          "vout": 1,
          "scriptSig": {
            "asm": "3045022100bd2b26a8159c4e28816f74d79b26c5f303ab37efb2b0d931a18d6160e90903a102204562df6debf42e6f3e4f95b702b7bc7e4e24293f5d0618797ece4816bb446d06[ALL] 036b815c105360316b4a2d49a3abc3e748020c1b2747251c1e3bbe2808f51315fc",
            "hex": "483045022100bd2b26a8159c4e28816f74d79b26c5f303ab37efb2b0d931a18d6160e90903a102204562df6debf42e6f3e4f95b702b7bc7e4e24293f5d0618797ece4816bb446d060121036b815c105360316b4a2d49a3abc3e748020c1b2747251c1e3bbe2808f51315fc"
          },
          "sequence": 4294967295
        }, 
        {
          "txid": "8a85a233dbf759790d7dd2ebae95a23eb50dfd171db38d6413db3bd8e293ed9a",
          "vout": 0,
          "scriptSig": {
            "asm": "30440220077dad3c544d2cba348da232468ff15d4697e2d20000b67397cf85aecadeb8fb022040ce3b1da0ae94f09d800b4d7fb07436bd689d5c338117c5609cfeedf6582b0a[ALL] 02ce0e037dcb0b7e86aa8046fde169643599c7b512869ed81b18005c4a0e92f832",
            "hex": "4730440220077dad3c544d2cba348da232468ff15d4697e2d20000b67397cf85aecadeb8fb022040ce3b1da0ae94f09d800b4d7fb07436bd689d5c338117c5609cfeedf6582b0a012102ce0e037dcb0b7e86aa8046fde169643599c7b512869ed81b18005c4a0e92f832"
          },
          "sequence": 4294967295
        }, 
        {
          "txid": "31a7e28e6dfffe008b38062e3785f56c1cb9b07c3a5a384302ece97e915c5cb9",
          "vout": 1,
          "scriptSig": {
            "asm": "3045022100d0233e653d33c1f2957fcfe37349524713c9635893c8a3ac5f3f88f49531f343022024c87523b890278c4c90bb103a39256d8bfbb2c292fa3cb99f09937d983522ed[ALL] 02ce0e037dcb0b7e86aa8046fde169643599c7b512869ed81b18005c4a0e92f832",
            "hex": "483045022100d0233e653d33c1f2957fcfe37349524713c9635893c8a3ac5f3f88f49531f343022024c87523b890278c4c90bb103a39256d8bfbb2c292fa3cb99f09937d983522ed012102ce0e037dcb0b7e86aa8046fde169643599c7b512869ed81b18005c4a0e92f832"
          },
          "sequence": 4294967295
        }, 
        {
          "txid": "433ec85f3eedebff0c52bbd36fb66775845f1fee7264e074002df4650f302361",
          "vout": 20,
          "scriptSig": {
            "asm": "3045022100fcc6642e84843b45adc0db3a68684d74969ce6e7176ad76a3cdd7e149576a1ad02204e9960f55da9531c860992cfc9ab19a4c6a0050a7922078418b82c5ea4d22aa0[ALL] 03452722dcdb2c5b436f0b870f36c55b6a0735a455d36a1a96b5a4cbe15a3b66d3",
            "hex": "483045022100fcc6642e84843b45adc0db3a68684d74969ce6e7176ad76a3cdd7e149576a1ad02204e9960f55da9531c860992cfc9ab19a4c6a0050a7922078418b82c5ea4d22aa0012103452722dcdb2c5b436f0b870f36c55b6a0735a455d36a1a96b5a4cbe15a3b66d3"
          },
          "sequence": 4294967295
        }, 
        {
          "txid": "de5b0065faa3b8e4a0101b3b7ea7ea07aea92690caff74c67c5b9e3739d9f768",
          "vout": 0,
          "scriptSig": {
            "asm": "3045022100cfb721893b11877152eddf1f3ce154f4473bf06feb29615e91b73429136556f802206c92868075cc1eb1716eb018be17cc7121599153ad8b7347a843fbd7553e26f6[ALL] 035fca2389e92da81000aa02291a0f45506253b5041bf9b532935afbd6c765e602",
            "hex": "483045022100cfb721893b11877152eddf1f3ce154f4473bf06feb29615e91b73429136556f802206c92868075cc1eb1716eb018be17cc7121599153ad8b7347a843fbd7553e26f60121035fca2389e92da81000aa02291a0f45506253b5041bf9b532935afbd6c765e602"
          },
          "sequence": 4294967295
        }, 
        {
          "txid": "e137c266a956eada3bdc38067b8aeab7c17fab4f12214e4052613fcd07e03f0e",
          "vout": 1,
          "scriptSig": {
            "asm": "3045022100f4431f0d3a6def556204542fcb4a0cacea40fc7fde5aa09146952b383a0435550220402f8edc56915d5f10ef29ce1727ccd10957ca4df8f698b903cde10cda6eed04[ALL] 03e555b3d4730c18b90611c9d29571d3592c4365695a4511ca893d356b1e510d40",
            "hex": "483045022100f4431f0d3a6def556204542fcb4a0cacea40fc7fde5aa09146952b383a0435550220402f8edc56915d5f10ef29ce1727ccd10957ca4df8f698b903cde10cda6eed04012103e555b3d4730c18b90611c9d29571d3592c4365695a4511ca893d356b1e510d40"
          },
          "sequence": 4294967295
        }, 
        {
          "txid": "22c775025b1946ef1fd09624e18fa509ac761002e4a4684cb25005767c3c2b0e",
          "vout": 2,
          "scriptSig": {
            "asm": "304402200836c77019a4742ec61cbf1250364346027b9ce90a64102d2ff0461a0e1bcb8d022054bbc7322cad0f52f9312381f21edf5b28560e13f4da29ee9ac53e7b01b68019[ALL] 02630d14180a2dfed72f10bce5a63b82b1d82e91e63629dc5ace74bd8878ad3fa0",
            "hex": "47304402200836c77019a4742ec61cbf1250364346027b9ce90a64102d2ff0461a0e1bcb8d022054bbc7322cad0f52f9312381f21edf5b28560e13f4da29ee9ac53e7b01b68019012102630d14180a2dfed72f10bce5a63b82b1d82e91e63629dc5ace74bd8878ad3fa0"
          },
          "sequence": 4294967295
        }, 
        {
          "txid": "28a9004168f9260d3dc274a3c580f0f250dd487e0a0e9c69e8921fbb85530018",
          "vout": 27,
          "scriptSig": {
            "asm": "304402206aef60112387a0fa6f680f34a9368aae2041fa0a57f43f41d958ce1dd7038631022060889fe77672f87a5de466756ce23a428f5b96105d3648e717250154999eb11f[ALL] 02076f5515c53dee89a297ef039d032066e7d4dd2dbeeaaed26b4ed11232e621c7",
            "hex": "47304402206aef60112387a0fa6f680f34a9368aae2041fa0a57f43f41d958ce1dd7038631022060889fe77672f87a5de466756ce23a428f5b96105d3648e717250154999eb11f012102076f5515c53dee89a297ef039d032066e7d4dd2dbeeaaed26b4ed11232e621c7"
          },
          "sequence": 4294967295
        }, 
        {
          "txid": "00a5b3a995517e9b40f0c630dd66507209975fa16cba0c76ca458bd2c7bee990",
          "vout": 1,
          "scriptSig": {
            "asm": "30440220678914fcc2659c5f937666b7817ec5f5f09a08217b28ab8f1b6c99b76b6ef3d2022077327b67723163c32809817b211f54b0ac796bab9c206c336aace1ca792b74db[ALL] 03f2699ebdeb7569f887ea0e95f691484880e758414f3afdcfbc59a5cbc66d4b63",
            "hex": "4730440220678914fcc2659c5f937666b7817ec5f5f09a08217b28ab8f1b6c99b76b6ef3d2022077327b67723163c32809817b211f54b0ac796bab9c206c336aace1ca792b74db012103f2699ebdeb7569f887ea0e95f691484880e758414f3afdcfbc59a5cbc66d4b63"
          },
          "sequence": 4294967295
        }, 
        {
          "txid": "1d27be20568fadc3974186f9ea7f63424cf3fbc7785e6f5d3d1a962091973c94",
          "vout": 1,
          "scriptSig": {
            "asm": "30440220164bcfea9d625aa690b65764235f1094ebbf517eff24e660018ae220c7c7bbce0220131db86da7e3e553630b892f313836ba6dc7ef664380ddf52ced32b7e6af41c1[ALL] 03b40b433bf10523d0417e72d11e60781a0ec64473a1fe3b69c302c91229aeb1e5",
            "hex": "4730440220164bcfea9d625aa690b65764235f1094ebbf517eff24e660018ae220c7c7bbce0220131db86da7e3e553630b892f313836ba6dc7ef664380ddf52ced32b7e6af41c1012103b40b433bf10523d0417e72d11e60781a0ec64473a1fe3b69c302c91229aeb1e5"
          },
          "sequence": 4294967295
        }, 
        {
          "txid": "e7b94f83848f35d60564d15b8a1d13c4c45af59671a488b58f03c30d133e0c85",
          "vout": 1,
          "scriptSig": {
            "asm": "3045022100c28862f09d3ae6ed16d32dd6566eeaec5b64500554df1528b8785bb406f7906b0220141f047484b146af1fce7b683872c750aae8a8906b0c47940f5217a3ee5dde1a[ALL] 03b0efb9907690a68b6c5f155825de4e3f86cc7f334770f5aabba44b0560316412",
            "hex": "483045022100c28862f09d3ae6ed16d32dd6566eeaec5b64500554df1528b8785bb406f7906b0220141f047484b146af1fce7b683872c750aae8a8906b0c47940f5217a3ee5dde1a012103b0efb9907690a68b6c5f155825de4e3f86cc7f334770f5aabba44b0560316412"
          },
          "sequence": 4294967295
        }, 
        {
          "txid": "4b56c6aaed24e073a726e1075ca17b7c6dbcff9dafd92a23a6b415b256014a43",
          "vout": 1,
          "scriptSig": {
            "asm": "3045022100d2ddf6cda5cceb50187392aea87f8f5528983aefc3e5cca30a65b507b08b1586022059fa7da288bb90790dada678c25089c1482fd0c624b391ef3cdac41673892e81[ALL] 02648393853baa2749985ac6d8a4a173d4334eaf033e9f19a3745896477a1194b0",
            "hex": "483045022100d2ddf6cda5cceb50187392aea87f8f5528983aefc3e5cca30a65b507b08b1586022059fa7da288bb90790dada678c25089c1482fd0c624b391ef3cdac41673892e81012102648393853baa2749985ac6d8a4a173d4334eaf033e9f19a3745896477a1194b0"
          },
          "sequence": 4294967295
        }, 
        {
          "txid": "cb908a503e5c90a6cdc5ab71c28c9e4730e590ea0b536a6e742aba328413a0e1",
          "vout": 1,
          "scriptSig": {
            "asm": "30440220527a3194a2caa59e0d7fc5a9644a28e7036d1f4e98a77474694db8c67c9ab51a02207eb3ded613840779fc6354ae30fca9703c4e2e039a8bf75aed10d36bfd6bcb05[ALL] 033bc2f34f69b723604335f2933606f7b41d62009f0552bde40cf96c89733f8b21",
            "hex": "4730440220527a3194a2caa59e0d7fc5a9644a28e7036d1f4e98a77474694db8c67c9ab51a02207eb3ded613840779fc6354ae30fca9703c4e2e039a8bf75aed10d36bfd6bcb050121033bc2f34f69b723604335f2933606f7b41d62009f0552bde40cf96c89733f8b21"
          },
          "sequence": 4294967295
        }, 
        {
          "txid": "31c70305929381752e10df140afdb8d465b22536853ef0ebdbc891bfaf6d663a",
          "vout": 0,
          "scriptSig": {
            "asm": "304402200e6a1109bfba82627af3e8f450c6f6320ffa064ef8d723614fee938f9ee4b87502205f4ba29d3b2e183aee4fecabcaa652327512c2a4f094de7f2b4c6d85aee6c55d[ALL] 02014162d3e20eeb0a10a0aee6e0614beefa5272efd8b25bffb9af2261f9449f65",
            "hex": "47304402200e6a1109bfba82627af3e8f450c6f6320ffa064ef8d723614fee938f9ee4b87502205f4ba29d3b2e183aee4fecabcaa652327512c2a4f094de7f2b4c6d85aee6c55d012102014162d3e20eeb0a10a0aee6e0614beefa5272efd8b25bffb9af2261f9449f65"
          },
          "sequence": 4294967295
        }
      ],
      "vout": [
        {
          "value": 100.00000000,
          "n": 0,
          "scriptPubKey": {
            "asm": "OP_DUP OP_HASH160 8a4fd1372b1dd683fede7d68f2332fae2e9c9f71 OP_EQUALVERIFY OP_CHECKSIG",
            "hex": "76a9148a4fd1372b1dd683fede7d68f2332fae2e9c9f7188ac",
            "reqSigs": 1,
            "type": "pubkeyhash",
            "addresses": [
              "LXqH8V6ZtsHBrURFbVxHR59KA24qcdosN3"
            ]
          }
        }, 
        {
          "value": 0.19397359,
          "n": 1,
          "scriptPubKey": {
            "asm": "OP_DUP OP_HASH160 2635cddcbac59a138de2b8bab93e451deba2e0be OP_EQUALVERIFY OP_CHECKSIG",
            "hex": "76a9142635cddcbac59a138de2b8bab93e451deba2e0be88ac",
            "reqSigs": 1,
            "type": "pubkeyhash",
            "addresses": [
              "LNhzPt1vbzeUMwRJu4DNN2vthxnovHaJos"
            ]
          }
        }
      ],
      "hex": "0100000016a5957f0ffc4e9f13c83f3626c80104f9e6cf9a91723803c9f1e86a5483c374df000000006a47304402203c8e776d70ef144beda326062230f8128909a650be6d90fd2b91e341d9064f6302202a3140f5d333dd4065ceea78a47504354104ea539bde4c0b7e8a88cf5157ed090121038c109f961c6b26f2efc4d1a83dafa71f2e262c32462df5c96a986f4afc0360f1ffffffff818b6cecab1f698c218665548552ddf1740e629c7a8d2920261f3ea89c3be2a3010000006a4730440220586c0e67638bcfe2651db48cccc6b24f1c2789b66016562d8f77c5098de45dee02201c6653ad3be22b6ecdff7db0eecb25301d905db6324e0329fbd0c4fd3afef7ae012103f2ffa833e718a6ac5d78f57a4089d83dbf7be362baf7c56d219705298ac1816effffffff7b37e8d6a30fd81007035fb24f293ad82852858dcc90743ad504903f71c8c405010000006b483045022100912a40eb557ac76e092a405d5b108796c007e255b533a2021e85a08e2a96cb3b022021a416afae1549ed7d48f484a246dfc9c3778e39d1acde1f18d3b81281ea4b7e01210201c363ab02814cc23f6af81b52a08d0475c7b5d0888047e8fb645e8d225a5ca7fffffffffa91c8b34df0112dfa30592d052661036df8d4562878c289c8e2becdcb30b0d4110000006a4730440220009bfd37c6c88a05a52129a72bacd4ae0606cd3056c0aa94f4f1386840ad3063022035b6959ca6f754f94d19a4a9053665cff9b6fc6129b4f2de7ceea90b3e7ed2b601210328716151821eaaf649111d9ecc1ee914150ff520cc9a66115e86817511c6f999fffffffffe0656ac734915044d4c6ed7410eebe6eb46ed531e31d026d0bd1e08d69f2b1d010000006b48304502210089ebf45868286e3e7a4b9fc2cb085c8ce6cdbadc8c3a883b19a2cbadb5dfd0f602206d57f80bcaf504f2201243e89727207548e15ed87af9cd95ee2dc344ef2d863c0121030716c0e772fde45e7bfa0863519bbc93c5ac7c7cec42761a4095e4647e271fc2ffffffff280e1217099eb7fcc4bc732008b048072ec62f946d96ee21fae53d657dff5932000000006b483045022100c474b43a453dfbab0f4374b31e36d165cbf2c0011425f9296206635a62cc75800220208a914ed09f531a73b435b883300f7af5d3014e84318218621bcbf30339418f012102aeacfbdd251bfe8bf8a5f290c4afcadef4ee6f5d65caf9eb1d194f785d4f5db3ffffffffdb53b70a9d7f92d9d535f376c224a85c0ff8fa7a83e1f02450396978eb2c076f000000006b483045022100e72b6e4573e843d86cd09f916778b194ce247b02ff6debb98d055366d46b2729022009c6a69c12b117755d6ba604d60da256e8da3ad48fb25d400e70c74e8250a235012103f946a47d60eb22ee9edcca5d08abf4cbf5c1874e78383c2929aa4d0e73995d4cffffffffdcb80de63681ba653799d28a9a98244c99875b732a04477f2170434289b46a9d000000006a473044022040975a9aacc2fd8882df8e09b6ad9e5da7c68d2f153914835b00d067d4762c3b02205e6fb6840b94cc862015f6de8da0805630fa2706659bded725d9dd1d290ce5a801210307c5e1d1598f23f53966c75b8ff77a8d7bf4623a6d761d99792aea03f2efe3d4ffffffff4c9923f6656b7adb906188b01fc7059a8e30f4b2bf602ac9f462064dbfb57322010000006b483045022100bd2b26a8159c4e28816f74d79b26c5f303ab37efb2b0d931a18d6160e90903a102204562df6debf42e6f3e4f95b702b7bc7e4e24293f5d0618797ece4816bb446d060121036b815c105360316b4a2d49a3abc3e748020c1b2747251c1e3bbe2808f51315fcffffffff9aed93e2d83bdb13648db31d17fd0db53ea295aeebd27d0d7959f7db33a2858a000000006a4730440220077dad3c544d2cba348da232468ff15d4697e2d20000b67397cf85aecadeb8fb022040ce3b1da0ae94f09d800b4d7fb07436bd689d5c338117c5609cfeedf6582b0a012102ce0e037dcb0b7e86aa8046fde169643599c7b512869ed81b18005c4a0e92f832ffffffffb95c5c917ee9ec0243385a3a7cb0b91c6cf585372e06388b00feff6d8ee2a731010000006b483045022100d0233e653d33c1f2957fcfe37349524713c9635893c8a3ac5f3f88f49531f343022024c87523b890278c4c90bb103a39256d8bfbb2c292fa3cb99f09937d983522ed012102ce0e037dcb0b7e86aa8046fde169643599c7b512869ed81b18005c4a0e92f832ffffffff6123300f65f42d0074e06472ee1f5f847567b66fd3bb520cffebed3e5fc83e43140000006b483045022100fcc6642e84843b45adc0db3a68684d74969ce6e7176ad76a3cdd7e149576a1ad02204e9960f55da9531c860992cfc9ab19a4c6a0050a7922078418b82c5ea4d22aa0012103452722dcdb2c5b436f0b870f36c55b6a0735a455d36a1a96b5a4cbe15a3b66d3ffffffff68f7d939379e5b7cc674ffca9026a9ae07eaa77e3b1b10a0e4b8a3fa65005bde000000006b483045022100cfb721893b11877152eddf1f3ce154f4473bf06feb29615e91b73429136556f802206c92868075cc1eb1716eb018be17cc7121599153ad8b7347a843fbd7553e26f60121035fca2389e92da81000aa02291a0f45506253b5041bf9b532935afbd6c765e602ffffffff0e3fe007cd3f6152404e21124fab7fc1b7ea8a7b0638dc3bdaea56a966c237e1010000006b483045022100f4431f0d3a6def556204542fcb4a0cacea40fc7fde5aa09146952b383a0435550220402f8edc56915d5f10ef29ce1727ccd10957ca4df8f698b903cde10cda6eed04012103e555b3d4730c18b90611c9d29571d3592c4365695a4511ca893d356b1e510d40ffffffff0e2b3c7c760550b24c68a4e4021076ac09a58fe12496d01fef46195b0275c722020000006a47304402200836c77019a4742ec61cbf1250364346027b9ce90a64102d2ff0461a0e1bcb8d022054bbc7322cad0f52f9312381f21edf5b28560e13f4da29ee9ac53e7b01b68019012102630d14180a2dfed72f10bce5a63b82b1d82e91e63629dc5ace74bd8878ad3fa0ffffffff18005385bb1f92e8699c0e0a7e48dd50f2f080c5a374c23d0d26f9684100a9281b0000006a47304402206aef60112387a0fa6f680f34a9368aae2041fa0a57f43f41d958ce1dd7038631022060889fe77672f87a5de466756ce23a428f5b96105d3648e717250154999eb11f012102076f5515c53dee89a297ef039d032066e7d4dd2dbeeaaed26b4ed11232e621c7ffffffff90e9bec7d28b45ca760cba6ca15f9709725066dd30c6f0409b7e5195a9b3a500010000006a4730440220678914fcc2659c5f937666b7817ec5f5f09a08217b28ab8f1b6c99b76b6ef3d2022077327b67723163c32809817b211f54b0ac796bab9c206c336aace1ca792b74db012103f2699ebdeb7569f887ea0e95f691484880e758414f3afdcfbc59a5cbc66d4b63ffffffff943c979120961a3d5d6f5e78c7fbf34c42637feaf9864197c3ad8f5620be271d010000006a4730440220164bcfea9d625aa690b65764235f1094ebbf517eff24e660018ae220c7c7bbce0220131db86da7e3e553630b892f313836ba6dc7ef664380ddf52ced32b7e6af41c1012103b40b433bf10523d0417e72d11e60781a0ec64473a1fe3b69c302c91229aeb1e5ffffffff850c3e130dc3038fb588a47196f55ac4c4131d8a5bd16405d6358f84834fb9e7010000006b483045022100c28862f09d3ae6ed16d32dd6566eeaec5b64500554df1528b8785bb406f7906b0220141f047484b146af1fce7b683872c750aae8a8906b0c47940f5217a3ee5dde1a012103b0efb9907690a68b6c5f155825de4e3f86cc7f334770f5aabba44b0560316412ffffffff434a0156b215b4a6232ad9af9dffbc6d7c7ba15c07e126a773e024edaac6564b010000006b483045022100d2ddf6cda5cceb50187392aea87f8f5528983aefc3e5cca30a65b507b08b1586022059fa7da288bb90790dada678c25089c1482fd0c624b391ef3cdac41673892e81012102648393853baa2749985ac6d8a4a173d4334eaf033e9f19a3745896477a1194b0ffffffffe1a0138432ba2a746e6a530bea90e530479e8cc271abc5cda6905c3e508a90cb010000006a4730440220527a3194a2caa59e0d7fc5a9644a28e7036d1f4e98a77474694db8c67c9ab51a02207eb3ded613840779fc6354ae30fca9703c4e2e039a8bf75aed10d36bfd6bcb050121033bc2f34f69b723604335f2933606f7b41d62009f0552bde40cf96c89733f8b21ffffffff3a666dafbf91c8dbebf03e853625b265d4b8fd0a14df102e758193920503c731000000006a47304402200e6a1109bfba82627af3e8f450c6f6320ffa064ef8d723614fee938f9ee4b87502205f4ba29d3b2e183aee4fecabcaa652327512c2a4f094de7f2b4c6d85aee6c55d012102014162d3e20eeb0a10a0aee6e0614beefa5272efd8b25bffb9af2261f9449f65ffffffff0200e40b54020000001976a9148a4fd1372b1dd683fede7d68f2332fae2e9c9f7188aceffa2701000000001976a9142635cddcbac59a138de2b8bab93e451deba2e0be88ac00000000"
    }, 
    {
      "txid": "868a69fd3f21a0052ed0d91598427fddf79708fc45972c05264a6d51f6c77521",
      "hash": "868a69fd3f21a0052ed0d91598427fddf79708fc45972c05264a6d51f6c77521",
      "version": 2,
      "size": 225,
      "vsize": 225,
      "locktime": 1358577,
      "vin": [
        {
          "txid": "1012bb32b3c91f5701e7d58b8e77c80bdeb30c640b616dadcfdb1cf86fae3b14",
          "vout": 0,
          "scriptSig": {
            "asm": "3044022057d1b716009256ce6ce3b557fce4a9d444bd6320713224441f98696c4de6fd11022061a9607538b4a1a7417fbd169ed25cbf2eaee927d330e86582f1a612cc7d8899[ALL] 039058b22cdf901a6e639471c115e6b8c5f45e13fe2354d0034855d169b4ebaef4",
            "hex": "473044022057d1b716009256ce6ce3b557fce4a9d444bd6320713224441f98696c4de6fd11022061a9607538b4a1a7417fbd169ed25cbf2eaee927d330e86582f1a612cc7d88990121039058b22cdf901a6e639471c115e6b8c5f45e13fe2354d0034855d169b4ebaef4"
          },
          "sequence": 4294967294
        }
      ],
      "vout": [
        {
          "value": 268.50170134,
          "n": 0,
          "scriptPubKey": {
            "asm": "OP_DUP OP_HASH160 ed6d107664144ad7c78ffbc40bb9b3c88c216350 OP_EQUALVERIFY OP_CHECKSIG",
            "hex": "76a914ed6d107664144ad7c78ffbc40bb9b3c88c21635088ac",
            "reqSigs": 1,
            "type": "pubkeyhash",
            "addresses": [
              "LgsM4bcsp1HpvnKrPAAEqzzS11myyugFUY"
            ]
          }
        }, 
        {
          "value": 6.23824453,
          "n": 1,
          "scriptPubKey": {
            "asm": "OP_DUP OP_HASH160 b8c500ce02ff29f1f767aab03e3bbfb8a3d4c3bf OP_EQUALVERIFY OP_CHECKSIG",
            "hex": "76a914b8c500ce02ff29f1f767aab03e3bbfb8a3d4c3bf88ac",
            "reqSigs": 1,
            "type": "pubkeyhash",
            "addresses": [
              "Lc4vbXb5J5yPhFsvNnbVheRYdDJ1GRGcX7"
            ]
          }
        }
      ],
      "hex": "0200000001143bae6ff81cdbcfad6d610b640cb3de0bc8778e8bd5e701571fc9b332bb1210000000006a473044022057d1b716009256ce6ce3b557fce4a9d444bd6320713224441f98696c4de6fd11022061a9607538b4a1a7417fbd169ed25cbf2eaee927d330e86582f1a612cc7d88990121039058b22cdf901a6e639471c115e6b8c5f45e13fe2354d0034855d169b4ebaef4feffffff0216156540060000001976a914ed6d107664144ad7c78ffbc40bb9b3c88c21635088ac45ce2e25000000001976a914b8c500ce02ff29f1f767aab03e3bbfb8a3d4c3bf88acf1ba1400"
    }, 
    {
      "txid": "5297e4b65bbff188095d5d789f9822ca4168dc24854ad71b1488985cbd1545b5",
      "hash": "5297e4b65bbff188095d5d789f9822ca4168dc24854ad71b1488985cbd1545b5",
      "version": 1,
      "size": 225,
      "vsize": 225,
      "locktime": 0,
      "vin": [
        {
          "txid": "30bff275baf967cea383d4a1fb8cf3645e41e724e7f43f6822d42ec1343571e1",
          "vout": 1,
          "scriptSig": {
            "asm": "304402204902f7fce2d4840c9f8ab2d7ca557b2cca82aa19094d2446387eed1cbc9659280220784439a43bd4da77c85f288b03ed0cfdea686ba2a903f2d308e1ed08dbfc5fd8[ALL] 0371f63a1fb4135d4c779620d4611e70b9e9c541775f17d30159725387b728bb7d",
            "hex": "47304402204902f7fce2d4840c9f8ab2d7ca557b2cca82aa19094d2446387eed1cbc9659280220784439a43bd4da77c85f288b03ed0cfdea686ba2a903f2d308e1ed08dbfc5fd801210371f63a1fb4135d4c779620d4611e70b9e9c541775f17d30159725387b728bb7d"
          },
          "sequence": 4294967295
        }
      ],
      "vout": [
        {
          "value": 0.27000000,
          "n": 0,
          "scriptPubKey": {
            "asm": "OP_DUP OP_HASH160 4b43041dd67a80f82f08176380ff5a14d8cd0afe OP_EQUALVERIFY OP_CHECKSIG",
            "hex": "76a9144b43041dd67a80f82f08176380ff5a14d8cd0afe88ac",
            "reqSigs": 1,
            "type": "pubkeyhash",
            "addresses": [
              "LS5uDxax5FKpKjSYX5KWxz7FU6M5FvQn5M"
            ]
          }
        }, 
        {
          "value": 97.55933514,
          "n": 1,
          "scriptPubKey": {
            "asm": "OP_DUP OP_HASH160 fb3420f0ac16b54d5fe34e5641089bf3ff90bb2d OP_EQUALVERIFY OP_CHECKSIG",
            "hex": "76a914fb3420f0ac16b54d5fe34e5641089bf3ff90bb2d88ac",
            "reqSigs": 1,
            "type": "pubkeyhash",
            "addresses": [
              "Li8CKKsG2wcbhu5AqpQqfcseUEgmNxq97E"
            ]
          }
        }
      ],
      "hex": "0100000001e1713534c12ed422683ff4e724e7415e64f38cfba1d483a3ce67f9ba75f2bf30010000006a47304402204902f7fce2d4840c9f8ab2d7ca557b2cca82aa19094d2446387eed1cbc9659280220784439a43bd4da77c85f288b03ed0cfdea686ba2a903f2d308e1ed08dbfc5fd801210371f63a1fb4135d4c779620d4611e70b9e9c541775f17d30159725387b728bb7dffffffff02c0fc9b01000000001976a9144b43041dd67a80f82f08176380ff5a14d8cd0afe88ac4abb7f45020000001976a914fb3420f0ac16b54d5fe34e5641089bf3ff90bb2d88ac00000000"
    }, 
    {
      "txid": "d93fdb8ea4a32d2ac18c7fcece8ac7ff342d271a9283163e413360234e251013",
      "hash": "d93fdb8ea4a32d2ac18c7fcece8ac7ff342d271a9283163e413360234e251013",
      "version": 1,
      "size": 226,
      "vsize": 226,
      "locktime": 0,
      "vin": [
        {
          "txid": "1b04bb3b8244e100bd67aae3d99161e23866fc57c6e3c24d9a8aff216bbf6d37",
          "vout": 0,
          "scriptSig": {
            "asm": "3045022100c6efda1b2a37de8f40a7f6a8badc9c132aa699382ab76e1b27d0180c25ac861002202c0a9fa322ccdcd643842b0b330e53ad8e4417a8c0994abe8eabf52472b009fa[ALL] 03e844c4489d618339f80e603b5c27b04b3313d66160414b89685868e021d3a6e3",
            "hex": "483045022100c6efda1b2a37de8f40a7f6a8badc9c132aa699382ab76e1b27d0180c25ac861002202c0a9fa322ccdcd643842b0b330e53ad8e4417a8c0994abe8eabf52472b009fa012103e844c4489d618339f80e603b5c27b04b3313d66160414b89685868e021d3a6e3"
          },
          "sequence": 4294967295
        }
      ],
      "vout": [
        {
          "value": 0.63300000,
          "n": 0,
          "scriptPubKey": {
            "asm": "OP_DUP OP_HASH160 e85e72ff46c0c7ed1fa43adec962159d61a99898 OP_EQUALVERIFY OP_CHECKSIG",
            "hex": "76a914e85e72ff46c0c7ed1fa43adec962159d61a9989888ac",
            "reqSigs": 1,
            "type": "pubkeyhash",
            "addresses": [
              "LgQcBASqYN7DEFCHhrz9Jc9xdNFLRLCNWh"
            ]
          }
        }, 
        {
          "value": 97.22632200,
          "n": 1,
          "scriptPubKey": {
            "asm": "OP_DUP OP_HASH160 302eccc32ca937e86545b63774ed52e28574628d OP_EQUALVERIFY OP_CHECKSIG",
            "hex": "76a914302eccc32ca937e86545b63774ed52e28574628d88ac",
            "reqSigs": 1,
            "type": "pubkeyhash",
            "addresses": [
              "LPcim8bCzXDLn1YUXGTVepU8nusbMF3uvY"
            ]
          }
        }
      ],
      "hex": "0100000001376dbf6b21ff8a9a4dc2e3c657fc6638e26191d9e3aa67bd00e144823bbb041b000000006b483045022100c6efda1b2a37de8f40a7f6a8badc9c132aa699382ab76e1b27d0180c25ac861002202c0a9fa322ccdcd643842b0b330e53ad8e4417a8c0994abe8eabf52472b009fa012103e844c4489d618339f80e603b5c27b04b3313d66160414b89685868e021d3a6e3ffffffff02a0e1c503000000001976a914e85e72ff46c0c7ed1fa43adec962159d61a9989888ac08988343020000001976a914302eccc32ca937e86545b63774ed52e28574628d88ac00000000"
    }
  ],
  "time": 1517159816,
  "mediantime": 1517159155,
  "nonce": 2850206422,
  "bits": "1a047f14",
  "difficulty": 3731199.183374282,
  "chainwork": "00000000000000000000000000000000000000000000003337474bf6475dbfc8",
  "previousblockhash": "b35d9e89c28194181bcd91c166fa4fe4bea9a9a7b42a58a188d61f261abef123",
  "nextblockhash": "14aca247bfa47cf96c3e6673f5039ac52d65c732bd34b6edd08e1250612f9279"
}
