{
  "hash": "a5f99dc26a779ecd2b02747f4051eff1340c986b40cce831c03a6f7cdcec5e8a",
  "confirmations": 2893,
  "strippedsize": 2817,
  "size": 3516,
  "weight": 11967,
  "height": 1358102,
  "version": 536870912,
  "versionHex": "20000000",
  "merkleroot": "5f44e54d192b7658d4e086107144ac5e57d45ab00a1dbe20c0ea8a4cfcbce3f9",
  "tx": [
    {
      "txid": "54f27227a21e2c2927a91fe581bedf38df8d151de65914b08f5d3aa8f61ed58f",
      "hash": "3b3b1832b4188d11379b6519edd5873994ab4e21bbee06730abaf548aa9369a7",
      "version": 1,
      "size": 236,
      "vsize": 209,
      "locktime": 0,
      "vin": [
        {
          "coinbase": "0316b914045a6cf2fe2cfabe6d6d1e53baf7164028df625af94067dd7a3a61f35cdacb2d23010384d92943779a714000000000000000042f4c502f0816005f1d68240000",
          "sequence": 4294967295
        }
      ],
      "vout": [
        {
          "value": 25.00693200,
          "n": 0,
          "scriptPubKey": {
            "asm": "OP_DUP OP_HASH160 57757ed2ecf2052ff3126c397aca7defb9ca2cec OP_EQUALVERIFY OP_CHECKSIG",
            "hex": "76a91457757ed2ecf2052ff3126c397aca7defb9ca2cec88ac",
            "reqSigs": 1,
            "type": "pubkeyhash",
            "addresses": [
              "LTCPodGk5FwcJaRzH9yKnwicxzFUbxp6tN"
            ]
          }
        }, 
        {
          "value": 0.00000000,
          "n": 1,
          "scriptPubKey": {
            "asm": "OP_RETURN aa21a9edf3e7e078609de7fdbec52e53540a41cd26dc0443597aade085f857a81672e001",
            "hex": "6a24aa21a9edf3e7e078609de7fdbec52e53540a41cd26dc0443597aade085f857a81672e001",
            "type": "nulldata"
          }
        }
      ],
      "hex": "010000000001010000000000000000000000000000000000000000000000000000000000000000ffffffff440316b914045a6cf2fe2cfabe6d6d1e53baf7164028df625af94067dd7a3a61f35cdacb2d23010384d92943779a714000000000000000042f4c502f0816005f1d68240000ffffffff02d08c0d95000000001976a91457757ed2ecf2052ff3126c397aca7defb9ca2cec88ac0000000000000000266a24aa21a9edf3e7e078609de7fdbec52e53540a41cd26dc0443597aade085f857a81672e0010120000000000000000000000000000000000000000000000000000000000000000000000000"
    }, 
    {
      "txid": "7a36d698042b61485e58b55338161d74b32df9f591253d6de136e9e1340da464",
      "hash": "7a36d698042b61485e58b55338161d74b32df9f591253d6de136e9e1340da464",
      "version": 1,
      "size": 225,
      "vsize": 225,
      "locktime": 0,
      "vin": [
        {
          "txid": "11929e4d97f849cf8aa5a1801e90504912c674edc9126225e7822e05381ae20d",
          "vout": 16,
          "scriptSig": {
            "asm": "3044022033d275a512ebe4f3852862efdf996c21509326ae44c914312be8f47d9b55eee1022002fbdd940495c1ac845fead0384556874ec8f939df1b12b95e33ce142363332e[ALL] 038ff3fda4e694f86f7f20eebb8ab37b903d3d5ce974c20c49b9d7f204d7eb68d2",
            "hex": "473044022033d275a512ebe4f3852862efdf996c21509326ae44c914312be8f47d9b55eee1022002fbdd940495c1ac845fead0384556874ec8f939df1b12b95e33ce142363332e0121038ff3fda4e694f86f7f20eebb8ab37b903d3d5ce974c20c49b9d7f204d7eb68d2"
          },
          "sequence": 4294967295
        }
      ],
      "vout": [
        {
          "value": 0.01005123,
          "n": 0,
          "scriptPubKey": {
            "asm": "OP_DUP OP_HASH160 4d6adde9bf19ccab128fe2812de2ec5ec44c1109 OP_EQUALVERIFY OP_CHECKSIG",
            "hex": "76a9144d6adde9bf19ccab128fe2812de2ec5ec44c110988ac",
            "reqSigs": 1,
            "type": "pubkeyhash",
            "addresses": [
              "LSHJKDsVfeGCWUzg23xTSyyeqezBwRFWV8"
            ]
          }
        }, 
        {
          "value": 0.61725969,
          "n": 1,
          "scriptPubKey": {
            "asm": "OP_DUP OP_HASH160 e68c9cf1edc98fe2345b39bd340f760adef2ea79 OP_EQUALVERIFY OP_CHECKSIG",
            "hex": "76a914e68c9cf1edc98fe2345b39bd340f760adef2ea7988ac",
            "reqSigs": 1,
            "type": "pubkeyhash",
            "addresses": [
              "LgEz8JRL2WaYFRDHVqh6pyNGzff1vhvxfj"
            ]
          }
        }
      ],
      "hex": "01000000010de21a38052e82e7256212c9ed74c6124950901e80a1a58acf49f8974d9e9211100000006a473044022033d275a512ebe4f3852862efdf996c21509326ae44c914312be8f47d9b55eee1022002fbdd940495c1ac845fead0384556874ec8f939df1b12b95e33ce142363332e0121038ff3fda4e694f86f7f20eebb8ab37b903d3d5ce974c20c49b9d7f204d7eb68d2ffffffff0243560f00000000001976a9144d6adde9bf19ccab128fe2812de2ec5ec44c110988ac11ddad03000000001976a914e68c9cf1edc98fe2345b39bd340f760adef2ea7988ac00000000"
    }, 
    {
      "txid": "ef5b5f694019afc7048820723c9476deac36f4ecd4e0b04571c4fefbd70421e9",
      "hash": "ef5b5f694019afc7048820723c9476deac36f4ecd4e0b04571c4fefbd70421e9",
      "version": 1,
      "size": 226,
      "vsize": 226,
      "locktime": 0,
      "vin": [
        {
          "txid": "abb00d7d84dda65fe03febf30fbaca3cc6341c0514e984f870ef3160ad6add41",
          "vout": 0,
          "scriptSig": {
            "asm": "30450221009499f87ce4a2ce3dfbf22d1178efc7f4ef9ae7df529a20287742817fe2f876c602200c285b7e45f99d478734c6ff0ee52d43b33974d3f1a7dd85baf412eb4c909127[ALL] 024b7f5d53e82d0c14e8040d394e4840757994d710a8b8f96fb7e172e59a6ea14a",
            "hex": "4830450221009499f87ce4a2ce3dfbf22d1178efc7f4ef9ae7df529a20287742817fe2f876c602200c285b7e45f99d478734c6ff0ee52d43b33974d3f1a7dd85baf412eb4c9091270121024b7f5d53e82d0c14e8040d394e4840757994d710a8b8f96fb7e172e59a6ea14a"
          },
          "sequence": 4294967295
        }
      ],
      "vout": [
        {
          "value": 0.01005173,
          "n": 0,
          "scriptPubKey": {
            "asm": "OP_DUP OP_HASH160 1bb2918dba1afdb49a310682af1757710af6d925 OP_EQUALVERIFY OP_CHECKSIG",
            "hex": "76a9141bb2918dba1afdb49a310682af1757710af6d92588ac",
            "reqSigs": 1,
            "type": "pubkeyhash",
            "addresses": [
              "LMkQRZ6GzRZE1uRwJseByGyUWgM7T3iFKa"
            ]
          }
        }, 
        {
          "value": 0.29033880,
          "n": 1,
          "scriptPubKey": {
            "asm": "OP_DUP OP_HASH160 b6e7bf16369c0095a524e7b48c33a92731573f26 OP_EQUALVERIFY OP_CHECKSIG",
            "hex": "76a914b6e7bf16369c0095a524e7b48c33a92731573f2688ac",
            "reqSigs": 1,
            "type": "pubkeyhash",
            "addresses": [
              "Lbu4s9gonqWjkfF8ZPxeNw8ZPJDbAoFmu1"
            ]
          }
        }
      ],
      "hex": "010000000141dd6aad6031ef70f884e914051c34c63ccaba0ff3eb3fe05fa6dd847d0db0ab000000006b4830450221009499f87ce4a2ce3dfbf22d1178efc7f4ef9ae7df529a20287742817fe2f876c602200c285b7e45f99d478734c6ff0ee52d43b33974d3f1a7dd85baf412eb4c9091270121024b7f5d53e82d0c14e8040d394e4840757994d710a8b8f96fb7e172e59a6ea14affffffff0275560f00000000001976a9141bb2918dba1afdb49a310682af1757710af6d92588ac9805bb01000000001976a914b6e7bf16369c0095a524e7b48c33a92731573f2688ac00000000"
    }, 
    {
      "txid": "8befc2e1ba149404b9b027dfa5aa252542acf43d3c1c5891096c70bd3149960c",
      "hash": "5c2364f371bdfdb523bd30e847c89209cb2646904f4b9b40f140c2472a1ae135",
      "version": 1,
      "size": 373,
      "vsize": 208,
      "locktime": 0,
      "vin": [
        {
          "txid": "c1c5c40ccc909807064c5c4f2c073e5d8c9c7d87b2811b041ab4e49d1a8406bd",
          "vout": 1,
          "scriptSig": {
            "asm": "00207975c3f0d1bf8b6205e1c664d703c93d68409676bf17c5e78cdece78bdbf3dbf",
            "hex": "2200207975c3f0d1bf8b6205e1c664d703c93d68409676bf17c5e78cdece78bdbf3dbf"
          },
          "txinwitness": [
            "", 
            "304402206af3691d370e38664d835dcd9eeb1dd181a28bf30f925a1f1029e615dcad0fdc02204a7bce9910cbfa195626c0770a08eb14ffafb55805cae8962f13ed146d818d8001", 
            "30450221008463ece24613af2cc138b1822d42910e507c73cf943960b0e46e8f21dbc775f102204459e52231de9ffbbed1d8ab1fe93f2700dd2058b56621ddc40caf30568ab42101", 
            "522102611be09a0c6a571c8f68adb2481e938888756d93d4ee5b670f08c16e939b7f1a21022cc7a96a72ef014bf078a6489644e2edb05bb216d30b4f28363b637fe4463fd652ae"
          ],
          "sequence": 4294967295
        }
      ],
      "vout": [
        {
          "value": 0.02555200,
          "n": 0,
          "scriptPubKey": {
            "asm": "OP_DUP OP_HASH160 c11ae1c565a90566301405b597796185b636508f OP_EQUALVERIFY OP_CHECKSIG",
            "hex": "76a914c11ae1c565a90566301405b597796185b636508f88ac",
            "reqSigs": 1,
            "type": "pubkeyhash",
            "addresses": [
              "Lcpzt2PPB1tvU9wv1fgmjDP2wwHhj8RV3X"
            ]
          }
        }, 
        {
          "value": 12.29185494,
          "n": 1,
          "scriptPubKey": {
            "asm": "OP_HASH160 486ce63d83e8406016f310cd321d36bbdd10d412 OP_EQUAL",
            "hex": "a914486ce63d83e8406016f310cd321d36bbdd10d41287",
            "reqSigs": 1,
            "type": "scripthash",
            "addresses": [
              "MEW7Lhk6QzBLmCNp5pmpYzwv1KAcKYsSQp"
            ]
          }
        }
      ],
      "hex": "01000000000101bd06841a9de4b41a041b81b2877d9c8c5d3e072c4f5c4c06079890cc0cc4c5c101000000232200207975c3f0d1bf8b6205e1c664d703c93d68409676bf17c5e78cdece78bdbf3dbfffffffff0240fd2600000000001976a914c11ae1c565a90566301405b597796185b636508f88acd6e143490000000017a914486ce63d83e8406016f310cd321d36bbdd10d41287040047304402206af3691d370e38664d835dcd9eeb1dd181a28bf30f925a1f1029e615dcad0fdc02204a7bce9910cbfa195626c0770a08eb14ffafb55805cae8962f13ed146d818d80014830450221008463ece24613af2cc138b1822d42910e507c73cf943960b0e46e8f21dbc775f102204459e52231de9ffbbed1d8ab1fe93f2700dd2058b56621ddc40caf30568ab4210147522102611be09a0c6a571c8f68adb2481e938888756d93d4ee5b670f08c16e939b7f1a21022cc7a96a72ef014bf078a6489644e2edb05bb216d30b4f28363b637fe4463fd652ae00000000"
    }, 
    {
      "txid": "02b63a1941951e30b6804baf3505f8cedbff156b622aadb9c55c67cbbb836720",
      "hash": "ec926c86fc54e4a456319bb544a86616552bb9f308691776cca5e24199f9ca80",
      "version": 1,
      "size": 373,
      "vsize": 208,
      "locktime": 0,
      "vin": [
        {
          "txid": "8befc2e1ba149404b9b027dfa5aa252542acf43d3c1c5891096c70bd3149960c",
          "vout": 1,
          "scriptSig": {
            "asm": "00207975c3f0d1bf8b6205e1c664d703c93d68409676bf17c5e78cdece78bdbf3dbf",
            "hex": "2200207975c3f0d1bf8b6205e1c664d703c93d68409676bf17c5e78cdece78bdbf3dbf"
          },
          "txinwitness": [
            "", 
            "3045022100b127f635aa21baeabd9493e433171b1ae9beb4b9339d323ccebc2961722d7e0d022035c3d29fde54d04bba72d36e8df4a0445c759a2ab0f99672a5f805e68cdeb19901", 
            "3044022063596072d528971c19b012ca1bcc3202202fa9502076d03a287849753d685c2902206d80f4593eedab59743f4d36986c5c9020d26cc035e3282665f2694f84b63ed601", 
            "522102611be09a0c6a571c8f68adb2481e938888756d93d4ee5b670f08c16e939b7f1a21022cc7a96a72ef014bf078a6489644e2edb05bb216d30b4f28363b637fe4463fd652ae"
          ],
          "sequence": 4294967295
        }
      ],
      "vout": [
        {
          "value": 0.02555200,
          "n": 0,
          "scriptPubKey": {
            "asm": "OP_DUP OP_HASH160 2e0d8a449b2a16dbdc023bddaac61398afe8993f OP_EQUALVERIFY OP_CHECKSIG",
            "hex": "76a9142e0d8a449b2a16dbdc023bddaac61398afe8993f88ac",
            "reqSigs": 1,
            "type": "pubkeyhash",
            "addresses": [
              "LPRTZpYRcarvG6YJXkUud5gUW9pap28hex"
            ]
          }
        }, 
        {
          "value": 12.26587094,
          "n": 1,
          "scriptPubKey": {
            "asm": "OP_HASH160 486ce63d83e8406016f310cd321d36bbdd10d412 OP_EQUAL",
            "hex": "a914486ce63d83e8406016f310cd321d36bbdd10d41287",
            "reqSigs": 1,
            "type": "scripthash",
            "addresses": [
              "MEW7Lhk6QzBLmCNp5pmpYzwv1KAcKYsSQp"
            ]
          }
        }
      ],
      "hex": "010000000001010c964931bd706c0991581c3c3df4ac422525aaa5df27b0b9049414bae1c2ef8b01000000232200207975c3f0d1bf8b6205e1c664d703c93d68409676bf17c5e78cdece78bdbf3dbfffffffff0240fd2600000000001976a9142e0d8a449b2a16dbdc023bddaac61398afe8993f88acd63b1c490000000017a914486ce63d83e8406016f310cd321d36bbdd10d412870400483045022100b127f635aa21baeabd9493e433171b1ae9beb4b9339d323ccebc2961722d7e0d022035c3d29fde54d04bba72d36e8df4a0445c759a2ab0f99672a5f805e68cdeb19901473044022063596072d528971c19b012ca1bcc3202202fa9502076d03a287849753d685c2902206d80f4593eedab59743f4d36986c5c9020d26cc035e3282665f2694f84b63ed60147522102611be09a0c6a571c8f68adb2481e938888756d93d4ee5b670f08c16e939b7f1a21022cc7a96a72ef014bf078a6489644e2edb05bb216d30b4f28363b637fe4463fd652ae00000000"
    }, 
    {
      "txid": "a3280ecea80ae5472631b15c1ea4e955ccf21dc8ef2b1fb0a388bd3c6119b6c1",
      "hash": "59e08f799c8dfa995c620dafeaf9af75b03f49baa75e0701a7b05c3fceb16ad7",
      "version": 1,
      "size": 373,
      "vsize": 208,
      "locktime": 0,
      "vin": [
        {
          "txid": "29d90100465a07b6f3963b6174f3a06dc2e2ee1d9d74494288f2a68b0df217c3",
          "vout": 1,
          "scriptSig": {
            "asm": "00207975c3f0d1bf8b6205e1c664d703c93d68409676bf17c5e78cdece78bdbf3dbf",
            "hex": "2200207975c3f0d1bf8b6205e1c664d703c93d68409676bf17c5e78cdece78bdbf3dbf"
          },
          "txinwitness": [
            "", 
            "3045022100eeb6e9db011d7e9dc900cdf85f17e6c91a82fcbe31c72f3d15cdd2c72b8d59af022054879492875c3ce720cf927b0eb1428f8e60c4c1f85617fdb7c5c28072abcf3001", 
            "304402200eb6c1623532dc774b1b2a8811ade5856baeacb064ba9164e6e0344bf77685510220517fcf7990bf4701e4ef44ffaeeb00f79c61c8db07d857fa666ccd4cd943ff2601", 
            "522102611be09a0c6a571c8f68adb2481e938888756d93d4ee5b670f08c16e939b7f1a21022cc7a96a72ef014bf078a6489644e2edb05bb216d30b4f28363b637fe4463fd652ae"
          ],
          "sequence": 4294967295
        }
      ],
      "vout": [
        {
          "value": 0.01231800,
          "n": 0,
          "scriptPubKey": {
            "asm": "OP_DUP OP_HASH160 9b6110e15f4b696b877758259f71670247ca91b9 OP_EQUALVERIFY OP_CHECKSIG",
            "hex": "76a9149b6110e15f4b696b877758259f71670247ca91b988ac",
            "reqSigs": 1,
            "type": "pubkeyhash",
            "addresses": [
              "LZPXHCvaSn3pAbj7MUh1sxGN9dVgvHgTuu"
            ]
          }
        }, 
        {
          "value": 1.85826155,
          "n": 1,
          "scriptPubKey": {
            "asm": "OP_HASH160 486ce63d83e8406016f310cd321d36bbdd10d412 OP_EQUAL",
            "hex": "a914486ce63d83e8406016f310cd321d36bbdd10d41287",
            "reqSigs": 1,
            "type": "scripthash",
            "addresses": [
              "MEW7Lhk6QzBLmCNp5pmpYzwv1KAcKYsSQp"
            ]
          }
        }
      ],
      "hex": "01000000000101c317f20d8ba6f2884249749d1deee2c26da0f374613b96f3b6075a460001d92901000000232200207975c3f0d1bf8b6205e1c664d703c93d68409676bf17c5e78cdece78bdbf3dbfffffffff02b8cb1200000000001976a9149b6110e15f4b696b877758259f71670247ca91b988ac6b7b130b0000000017a914486ce63d83e8406016f310cd321d36bbdd10d412870400483045022100eeb6e9db011d7e9dc900cdf85f17e6c91a82fcbe31c72f3d15cdd2c72b8d59af022054879492875c3ce720cf927b0eb1428f8e60c4c1f85617fdb7c5c28072abcf300147304402200eb6c1623532dc774b1b2a8811ade5856baeacb064ba9164e6e0344bf77685510220517fcf7990bf4701e4ef44ffaeeb00f79c61c8db07d857fa666ccd4cd943ff260147522102611be09a0c6a571c8f68adb2481e938888756d93d4ee5b670f08c16e939b7f1a21022cc7a96a72ef014bf078a6489644e2edb05bb216d30b4f28363b637fe4463fd652ae00000000"
    }, 
    {
      "txid": "ec20442dddd4095efe26eaa3d4bb90b48a27d5591623098de6c79dc313410cd2",
      "hash": "ec20442dddd4095efe26eaa3d4bb90b48a27d5591623098de6c79dc313410cd2",
      "version": 1,
      "size": 1403,
      "vsize": 1403,
      "locktime": 0,
      "vin": [
        {
          "txid": "672355771f9bfcd6a8ffeb7121a88f361686afdb07d5e9c984794f9697eb24a8",
          "vout": 0,
          "scriptSig": {
            "asm": "304402206caab9b12c925b908d46ee772575b4b62362a8b5a3e9fbffe5596fd6389de53b02207004d0a555656c31619634a74966525cc18cdb1d66dd69e603c3fcab145ee6c8[ALL] 021bf099275922f07127dcb73d57b2429c5392ea5c9cb3d13e684f2ca31681d4f1",
            "hex": "47304402206caab9b12c925b908d46ee772575b4b62362a8b5a3e9fbffe5596fd6389de53b02207004d0a555656c31619634a74966525cc18cdb1d66dd69e603c3fcab145ee6c80121021bf099275922f07127dcb73d57b2429c5392ea5c9cb3d13e684f2ca31681d4f1"
          },
          "sequence": 4294967295
        }, 
        {
          "txid": "82c140be7670b73ef3903a4c5fbb1cb176e5870585dcd747062420c503e1de9f",
          "vout": 0,
          "scriptSig": {
            "asm": "304402205f38b1b218d235c7dc36f58b524c9a643800bc63068f5f4f8402fc72d0e46b0002205a0daedb76bbd14e33874b391b826cec1c39167cd99923c8ceeaa2122a634fe9[ALL] 0329bac055aa8faf2638b5d90a7c18577ed7c7d3aca9610d3c2f68b80e5d2afa73",
            "hex": "47304402205f38b1b218d235c7dc36f58b524c9a643800bc63068f5f4f8402fc72d0e46b0002205a0daedb76bbd14e33874b391b826cec1c39167cd99923c8ceeaa2122a634fe901210329bac055aa8faf2638b5d90a7c18577ed7c7d3aca9610d3c2f68b80e5d2afa73"
          },
          "sequence": 4294967295
        }, 
        {
          "txid": "04d5ef4dbf8769d8fcc5c30be10a7249151478d0ad36d76e10cd67f45ec17650",
          "vout": 1,
          "scriptSig": {
            "asm": "30440220161a123b2f70e7a13bd1e3c16aeca0d3a07e1735653f91d31e1eaae8f1bc4a920220758ed3634ba2e973f1aa6f05c343e59c717633902b40de6a53a25fae156f6182[ALL] 02a5e90846b799bc407d58c3ce422d38e059d0830643c97bc8f5b9f97d5eaa8b20",
            "hex": "4730440220161a123b2f70e7a13bd1e3c16aeca0d3a07e1735653f91d31e1eaae8f1bc4a920220758ed3634ba2e973f1aa6f05c343e59c717633902b40de6a53a25fae156f6182012102a5e90846b799bc407d58c3ce422d38e059d0830643c97bc8f5b9f97d5eaa8b20"
          },
          "sequence": 4294967295
        }, 
        {
          "txid": "8d38fb185cd9928e4f994df15387f8255f16079927ec4eefd44e015f3af49248",
          "vout": 0,
          "scriptSig": {
            "asm": "3044022040677447ab8a0add9a4a7a841c6d5750089bba7d7115a86e67024739cfb47dc30220025d3025c54c7e2c4c1414a9ca37018c10a47aad08420dd98830f31e12b75a74[ALL] 032d94b102d0c4f0b3e3e90e3785643755167885ea191cf52fe294ea9c59beebcb",
            "hex": "473044022040677447ab8a0add9a4a7a841c6d5750089bba7d7115a86e67024739cfb47dc30220025d3025c54c7e2c4c1414a9ca37018c10a47aad08420dd98830f31e12b75a740121032d94b102d0c4f0b3e3e90e3785643755167885ea191cf52fe294ea9c59beebcb"
          },
          "sequence": 4294967295
        }, 
        {
          "txid": "ded65f4d997b03c0772db58fd4330fb7dedf2eec8e3e761f61401945f09944cf",
          "vout": 185,
          "scriptSig": {
            "asm": "30450221008313991b42bfbb59f910c9c04a0292a13545854afcc07e24008e604d6c69b1a002203847f5ee1134085be54bfe3295006a4dcf6cad4d3d3a46475d9ab12564bb7159[ALL] 028a854c9076fe65386b2a2b02c84c2efa82a19384d953466410d469620c82cdb6",
            "hex": "4830450221008313991b42bfbb59f910c9c04a0292a13545854afcc07e24008e604d6c69b1a002203847f5ee1134085be54bfe3295006a4dcf6cad4d3d3a46475d9ab12564bb71590121028a854c9076fe65386b2a2b02c84c2efa82a19384d953466410d469620c82cdb6"
          },
          "sequence": 4294967295
        }, 
        {
          "txid": "7be42ead7f049feb122e18d4c6c7ee688f77da09cbfa8d3236e22f05d4f3f1fa",
          "vout": 0,
          "scriptSig": {
            "asm": "304402202de1ed49c637509ac68df37d724525727624b43afd395a25c4ceb9b652d01818022004b7e6ed95eb3bba97dacca1a7c8adff99e2fe95719e6d97ed625c75daec5348[ALL] 028d6cffd41e81aa56893fc9a5b6fc148d14b25c42d981bfc028112bb5fb82127c",
            "hex": "47304402202de1ed49c637509ac68df37d724525727624b43afd395a25c4ceb9b652d01818022004b7e6ed95eb3bba97dacca1a7c8adff99e2fe95719e6d97ed625c75daec53480121028d6cffd41e81aa56893fc9a5b6fc148d14b25c42d981bfc028112bb5fb82127c"
          },
          "sequence": 4294967295
        }, 
        {
          "txid": "472555d26425f57cc3e1b39a560f9c39e77fe11ce197136d8979cc128ec83a4b",
          "vout": 0,
          "scriptSig": {
            "asm": "3044022042995401178cb54c39bda07e550f63663e7fa4517924b0bdd3df651a9d5de2ba022027704fe1cd877d97a4c85d6e2ca59121514f3b694787a57576c4aa61d58b13fc[ALL] 0301394a113f940e5f4b044ab728fdd0e51cd2529b9127e85b53fcd4a14bb37709",
            "hex": "473044022042995401178cb54c39bda07e550f63663e7fa4517924b0bdd3df651a9d5de2ba022027704fe1cd877d97a4c85d6e2ca59121514f3b694787a57576c4aa61d58b13fc01210301394a113f940e5f4b044ab728fdd0e51cd2529b9127e85b53fcd4a14bb37709"
          },
          "sequence": 4294967295
        }, 
        {
          "txid": "3dca146bb063b514237e5cd5e974a1630c6a29720b580f5d8f3645bd29a01bbd",
          "vout": 1,
          "scriptSig": {
            "asm": "3044022015ae0fd1e8f4ddca5b8ab8c0616f6766918329695c3b1940e0f72a2988a6c8b7022027b4dd0fcea047fe5e9e9703d8de91406a27d5d55794db12fca44e080e1c50a0[ALL] 0214270cb6a6b91790cad06f97676692495fa51ca0ca1a33059b634f3df7fb1337",
            "hex": "473044022015ae0fd1e8f4ddca5b8ab8c0616f6766918329695c3b1940e0f72a2988a6c8b7022027b4dd0fcea047fe5e9e9703d8de91406a27d5d55794db12fca44e080e1c50a001210214270cb6a6b91790cad06f97676692495fa51ca0ca1a33059b634f3df7fb1337"
          },
          "sequence": 4294967295
        }, 
        {
          "txid": "cd0f8039b8adecaae057c1f68811491e3ed6657d43bcce681a475f123e29e558",
          "vout": 23,
          "scriptSig": {
            "asm": "3045022100edb062f1382b6496c6c41387bf709d29a6e1c66dd288440b69d9cbde9de7487e02201fd7d83c883762e7a1a7bf3ce92c8725008741e9cc6bf5981b57ef3ae2800a1a[ALL] 03f84ec00b12cf879635dc46f4eb23668091a64011cdaff5c5a63897a0bf6f6980",
            "hex": "483045022100edb062f1382b6496c6c41387bf709d29a6e1c66dd288440b69d9cbde9de7487e02201fd7d83c883762e7a1a7bf3ce92c8725008741e9cc6bf5981b57ef3ae2800a1a012103f84ec00b12cf879635dc46f4eb23668091a64011cdaff5c5a63897a0bf6f6980"
          },
          "sequence": 4294967295
        }
      ],
      "vout": [
        {
          "value": 0.15043387,
          "n": 0,
          "scriptPubKey": {
            "asm": "OP_DUP OP_HASH160 b22e863fda398adcc389370005ec115c47c4c772 OP_EQUALVERIFY OP_CHECKSIG",
            "hex": "76a914b22e863fda398adcc389370005ec115c47c4c77288ac",
            "reqSigs": 1,
            "type": "pubkeyhash",
            "addresses": [
              "LbU6GvzG6orGVY3C4GXfXwiyFvv3QXLPJJ"
            ]
          }
        }, 
        {
          "value": 0.00292145,
          "n": 1,
          "scriptPubKey": {
            "asm": "OP_DUP OP_HASH160 bab7306ce37cc2a962e32a72538c4c61adfdda9f OP_EQUALVERIFY OP_CHECKSIG",
            "hex": "76a914bab7306ce37cc2a962e32a72538c4c61adfdda9f88ac",
            "reqSigs": 1,
            "type": "pubkeyhash",
            "addresses": [
              "LcFDQ6j9hDzdp7JrEcqrSiwUKQK2jaYaYH"
            ]
          }
        }
      ],
      "hex": "0100000009a824eb97964f7984c9e9d507dbaf8616368fa82171ebffa8d6fc9b1f77552367000000006a47304402206caab9b12c925b908d46ee772575b4b62362a8b5a3e9fbffe5596fd6389de53b02207004d0a555656c31619634a74966525cc18cdb1d66dd69e603c3fcab145ee6c80121021bf099275922f07127dcb73d57b2429c5392ea5c9cb3d13e684f2ca31681d4f1ffffffff9fdee103c520240647d7dc850587e576b11cbb5f4c3a90f33eb77076be40c182000000006a47304402205f38b1b218d235c7dc36f58b524c9a643800bc63068f5f4f8402fc72d0e46b0002205a0daedb76bbd14e33874b391b826cec1c39167cd99923c8ceeaa2122a634fe901210329bac055aa8faf2638b5d90a7c18577ed7c7d3aca9610d3c2f68b80e5d2afa73ffffffff5076c15ef467cd106ed736add078141549720ae10bc3c5fcd86987bf4defd504010000006a4730440220161a123b2f70e7a13bd1e3c16aeca0d3a07e1735653f91d31e1eaae8f1bc4a920220758ed3634ba2e973f1aa6f05c343e59c717633902b40de6a53a25fae156f6182012102a5e90846b799bc407d58c3ce422d38e059d0830643c97bc8f5b9f97d5eaa8b20ffffffff4892f43a5f014ed4ef4eec279907165f25f88753f14d994f8e92d95c18fb388d000000006a473044022040677447ab8a0add9a4a7a841c6d5750089bba7d7115a86e67024739cfb47dc30220025d3025c54c7e2c4c1414a9ca37018c10a47aad08420dd98830f31e12b75a740121032d94b102d0c4f0b3e3e90e3785643755167885ea191cf52fe294ea9c59beebcbffffffffcf4499f0451940611f763e8eec2edfdeb70f33d48fb52d77c0037b994d5fd6deb90000006b4830450221008313991b42bfbb59f910c9c04a0292a13545854afcc07e24008e604d6c69b1a002203847f5ee1134085be54bfe3295006a4dcf6cad4d3d3a46475d9ab12564bb71590121028a854c9076fe65386b2a2b02c84c2efa82a19384d953466410d469620c82cdb6fffffffffaf1f3d4052fe236328dfacb09da778f68eec7c6d4182e12eb9f047fad2ee47b000000006a47304402202de1ed49c637509ac68df37d724525727624b43afd395a25c4ceb9b652d01818022004b7e6ed95eb3bba97dacca1a7c8adff99e2fe95719e6d97ed625c75daec53480121028d6cffd41e81aa56893fc9a5b6fc148d14b25c42d981bfc028112bb5fb82127cffffffff4b3ac88e12cc79896d1397e11ce17fe7399c0f569ab3e1c37cf52564d2552547000000006a473044022042995401178cb54c39bda07e550f63663e7fa4517924b0bdd3df651a9d5de2ba022027704fe1cd877d97a4c85d6e2ca59121514f3b694787a57576c4aa61d58b13fc01210301394a113f940e5f4b044ab728fdd0e51cd2529b9127e85b53fcd4a14bb37709ffffffffbd1ba029bd45368f5d0f580b72296a0c63a174e9d55c7e2314b563b06b14ca3d010000006a473044022015ae0fd1e8f4ddca5b8ab8c0616f6766918329695c3b1940e0f72a2988a6c8b7022027b4dd0fcea047fe5e9e9703d8de91406a27d5d55794db12fca44e080e1c50a001210214270cb6a6b91790cad06f97676692495fa51ca0ca1a33059b634f3df7fb1337ffffffff58e5293e125f471a68cebc437d65d63e1e491188f6c157e0aaecadb839800fcd170000006b483045022100edb062f1382b6496c6c41387bf709d29a6e1c66dd288440b69d9cbde9de7487e02201fd7d83c883762e7a1a7bf3ce92c8725008741e9cc6bf5981b57ef3ae2800a1a012103f84ec00b12cf879635dc46f4eb23668091a64011cdaff5c5a63897a0bf6f6980ffffffff023b8be500000000001976a914b22e863fda398adcc389370005ec115c47c4c77288ac31750400000000001976a914bab7306ce37cc2a962e32a72538c4c61adfdda9f88ac00000000"
    }, 
    {
      "txid": "b1f8a1b46b90df7185b37b8a58186dc5a284afa5640bf311f9db94939946ca45",
      "hash": "b1f8a1b46b90df7185b37b8a58186dc5a284afa5640bf311f9db94939946ca45",
      "version": 2,
      "size": 226,
      "vsize": 226,
      "locktime": 1358100,
      "vin": [
        {
          "txid": "235ccca4dccc5252b4915b864b3aeecb1f2e104263fbb1b68f6a5712090296c7",
          "vout": 0,
          "scriptSig": {
            "asm": "304502210089edb655446a378407f3baf598727c8ab7ac865c8e9b82048a668cd2324d9e020220633e537bbc84180de2016649dda89930ddf63344a6b46115f082b3c7b5e45292[ALL] 02c40cb4eb274111fd463243ca3ccc21bd1fb64dedb1b32dbc93575f16159e21c9",
            "hex": "48304502210089edb655446a378407f3baf598727c8ab7ac865c8e9b82048a668cd2324d9e020220633e537bbc84180de2016649dda89930ddf63344a6b46115f082b3c7b5e45292012102c40cb4eb274111fd463243ca3ccc21bd1fb64dedb1b32dbc93575f16159e21c9"
          },
          "sequence": 4294967294
        }
      ],
      "vout": [
        {
          "value": 0.49465770,
          "n": 0,
          "scriptPubKey": {
            "asm": "OP_DUP OP_HASH160 c8267358306014cc5a3d141f04ea29b5678cbbfd OP_EQUALVERIFY OP_CHECKSIG",
            "hex": "76a914c8267358306014cc5a3d141f04ea29b5678cbbfd88ac",
            "reqSigs": 1,
            "type": "pubkeyhash",
            "addresses": [
              "LdUFUAszjLArSASpCGgXNZuV7g6kwzkyun"
            ]
          }
        }, 
        {
          "value": 26.27597775,
          "n": 1,
          "scriptPubKey": {
            "asm": "OP_DUP OP_HASH160 11e80ff3670f3c07db500921c6f410229c86d988 OP_EQUALVERIFY OP_CHECKSIG",
            "hex": "76a91411e80ff3670f3c07db500921c6f410229c86d98888ac",
            "reqSigs": 1,
            "type": "pubkeyhash",
            "addresses": [
              "LLrdkSpRG7DV2r2oVJhYpDVzcorTqBG1iX"
            ]
          }
        }
      ],
      "hex": "0200000001c796020912576a8fb6b1fb6342102e1fcbee3a4b865b91b45252ccdca4cc5c23000000006b48304502210089edb655446a378407f3baf598727c8ab7ac865c8e9b82048a668cd2324d9e020220633e537bbc84180de2016649dda89930ddf63344a6b46115f082b3c7b5e45292012102c40cb4eb274111fd463243ca3ccc21bd1fb64dedb1b32dbc93575f16159e21c9feffffff02aac9f202000000001976a914c8267358306014cc5a3d141f04ea29b5678cbbfd88accff59d9c000000001976a91411e80ff3670f3c07db500921c6f410229c86d98888ac14b91400"
    }
  ],
  "time": 1517089534,
  "mediantime": 1517089043,
  "nonce": 3807528588,
  "bits": "1a047f14",
  "difficulty": 3731199.183374282,
  "chainwork": "000000000000000000000000000000000000000000000032cd319066139a4356",
  "previousblockhash": "2b2a02e65e2da9b31a8515bb0f3db2042347cdb62ed6a2ee830b641a5064aed4",
  "nextblockhash": "39176197f3ebce85a67b81873270fee460f188e9fc23b5223902dafa2fe5caf2"
}
