{
  "hash": "a6058ad46886e694186eee0ff8ef8b80165879fd0095aae2751aed2a53af2833",
  "confirmations": 2550,
  "strippedsize": 253,
  "size": 253,
  "weight": 1012,
  "height": 1358445,
  "version": 536870912,
  "versionHex": "20000000",
  "merkleroot": "404c216593ef669b2edce151168cf297222c01b4689662f5d99a23b7b462bc99",
  "tx": [
    {
      "txid": "404c216593ef669b2edce151168cf297222c01b4689662f5d99a23b7b462bc99",
      "hash": "404c216593ef669b2edce151168cf297222c01b4689662f5d99a23b7b462bc99",
      "version": 1,
      "size": 172,
      "vsize": 172,
      "locktime": 0,
      "vin": [
        {
          "coinbase": "036dba141a4d696e656420627920416e74506f6f6c20626a341e205a6dc392fabe6d6d9f0087ec5d63a690ee981a62de6f0989acc4592daaae2d3ced84680f4e499945040000000000000060340000000000001f000000",
          "sequence": 4294967295
        }
      ],
      "vout": [
        {
          "value": 25.00000000,
          "n": 0,
          "scriptPubKey": {
            "asm": "OP_DUP OP_HASH160 0ff3ccc5e8be88afe24b5d634e5852d474dbdff1 OP_EQUALVERIFY OP_CHECKSIG",
            "hex": "76a9140ff3ccc5e8be88afe24b5d634e5852d474dbdff188ac",
            "reqSigs": 1,
            "type": "pubkeyhash",
            "addresses": [
              "LLgJTbzZMsRTCUF1NtvvL9SR1a4pVieW89"
            ]
          }
        }
      ],
      "hex": "01000000010000000000000000000000000000000000000000000000000000000000000000ffffffff57036dba141a4d696e656420627920416e74506f6f6c20626a341e205a6dc392fabe6d6d9f0087ec5d63a690ee981a62de6f0989acc4592daaae2d3ced84680f4e499945040000000000000060340000000000001f000000ffffffff0100f90295000000001976a9140ff3ccc5e8be88afe24b5d634e5852d474dbdff188ac00000000"
    }
  ],
  "time": 1517142930,
  "mediantime": 1517142078,
  "nonce": 984515841,
  "bits": "1a047f14",
  "difficulty": 3731199.183374282,
  "chainwork": "000000000000000000000000000000000000000000000033197a14967d854a2c",
  "previousblockhash": "fb86867f0a1003901f3f20e945f7defe649b086224ed485a785d832dd43f161d",
  "nextblockhash": "76870f6ec9150fb2816b6b0fd1526dc0bf7ab8521b6c3380046657059460dfd4"
}
