{
  "hash": "a61e9cf91f4cdad14b8e5b7b8045d32eaa042ff9fa947b38668c9cbe2066d4b1",
  "confirmations": 1710,
  "strippedsize": 4491,
  "size": 4970,
  "weight": 18443,
  "height": 1359284,
  "version": 536870912,
  "versionHex": "20000000",
  "merkleroot": "312ce2705b8ee2b8b861c6cfbd0770848694d075125e4fc732d6728b9ef231cc",
  "tx": [
    {
      "txid": "21a55d15d9d56b1d0edbfe8c9e935fe2d54b4641aec2394939704e240561780e",
      "hash": "e95a8165bb1f67e14897c54290453f3529900430e69215d0db00d37284d97b5a",
      "version": 1,
      "size": 236,
      "vsize": 209,
      "locktime": 0,
      "vin": [
        {
          "coinbase": "03b4bd14045a6f95ab2cfabe6d6d36c527219e5e5c2d089fec108d7944bcd2a63a3c80344f00c67ce9af606d7d964000000000000000042f4c502f082200a27b27000000",
          "sequence": 4294967295
        }
      ],
      "vout": [
        {
          "value": 25.01357477,
          "n": 0,
          "scriptPubKey": {
            "asm": "OP_DUP OP_HASH160 57757ed2ecf2052ff3126c397aca7defb9ca2cec OP_EQUALVERIFY OP_CHECKSIG",
            "hex": "76a91457757ed2ecf2052ff3126c397aca7defb9ca2cec88ac",
            "reqSigs": 1,
            "type": "pubkeyhash",
            "addresses": [
              "LTCPodGk5FwcJaRzH9yKnwicxzFUbxp6tN"
            ]
          }
        }, 
        {
          "value": 0.00000000,
          "n": 1,
          "scriptPubKey": {
            "asm": "OP_RETURN aa21a9ede4b4c6f291c6b03682a51588e12820a0bf0271ee6847a41fbc216c7b185d7fc4",
            "hex": "6a24aa21a9ede4b4c6f291c6b03682a51588e12820a0bf0271ee6847a41fbc216c7b185d7fc4",
            "type": "nulldata"
          }
        }
      ],
      "hex": "010000000001010000000000000000000000000000000000000000000000000000000000000000ffffffff4403b4bd14045a6f95ab2cfabe6d6d36c527219e5e5c2d089fec108d7944bcd2a63a3c80344f00c67ce9af606d7d964000000000000000042f4c502f082200a27b27000000ffffffff02a5af1795000000001976a91457757ed2ecf2052ff3126c397aca7defb9ca2cec88ac0000000000000000266a24aa21a9ede4b4c6f291c6b03682a51588e12820a0bf0271ee6847a41fbc216c7b185d7fc40120000000000000000000000000000000000000000000000000000000000000000000000000"
    }, 
    {
      "txid": "6c74dc2c903b3550a91571354d4c5ea1537d25b8ab125d7f694f2a0528c3dc62",
      "hash": "6c74dc2c903b3550a91571354d4c5ea1537d25b8ab125d7f694f2a0528c3dc62",
      "version": 1,
      "size": 374,
      "vsize": 374,
      "locktime": 0,
      "vin": [
        {
          "txid": "2a4452225dae08bf06f12e7f0d925a7cda0adec6a45af6650e9378eb765945d1",
          "vout": 1,
          "scriptSig": {
            "asm": "3045022100f96435ad3972dbb1e2b3291b57af38e67282f04f252e82b023c0808dc0e8bb470220429f81750596a26ba399f1a934a703f5b45575a20a530360fa72f177f8829263[ALL] 027fb957149483ded926df1843c5cc93a4f30e3c0231de3d93c181726d997c52cb",
            "hex": "483045022100f96435ad3972dbb1e2b3291b57af38e67282f04f252e82b023c0808dc0e8bb470220429f81750596a26ba399f1a934a703f5b45575a20a530360fa72f177f88292630121027fb957149483ded926df1843c5cc93a4f30e3c0231de3d93c181726d997c52cb"
          },
          "sequence": 4294967295
        }, 
        {
          "txid": "cb8c6b8dd1acd8715bf380b762b48dd1fd1720de6bc487c07ba643b8effff260",
          "vout": 1,
          "scriptSig": {
            "asm": "3045022100fd4f618f60c50962fe4c1ac0aa379e1fc97e09563633a5933d06ab65a26d0933022076e04c9d8cc29fc86e54cb9746e6389fbf1fd984dc59c35d536fa2eefc706192[ALL] 02db6345ae521d036f36d01034739d67c14aff5c41f3c9f6ef587109edd684a50a",
            "hex": "483045022100fd4f618f60c50962fe4c1ac0aa379e1fc97e09563633a5933d06ab65a26d0933022076e04c9d8cc29fc86e54cb9746e6389fbf1fd984dc59c35d536fa2eefc706192012102db6345ae521d036f36d01034739d67c14aff5c41f3c9f6ef587109edd684a50a"
          },
          "sequence": 4294967295
        }
      ],
      "vout": [
        {
          "value": 0.75000000,
          "n": 0,
          "scriptPubKey": {
            "asm": "OP_DUP OP_HASH160 488906721431b86ea02df3a267a2b9ba673c287d OP_EQUALVERIFY OP_CHECKSIG",
            "hex": "76a914488906721431b86ea02df3a267a2b9ba673c287d88ac",
            "reqSigs": 1,
            "type": "pubkeyhash",
            "addresses": [
              "LRqV4hcjTuRpuZX2LpKeMBhTAcqhu2tU4H"
            ]
          }
        }, 
        {
          "value": 2.24644700,
          "n": 1,
          "scriptPubKey": {
            "asm": "OP_DUP OP_HASH160 437bee070e34c03faba2cce3223ce38601da56e0 OP_EQUALVERIFY OP_CHECKSIG",
            "hex": "76a914437bee070e34c03faba2cce3223ce38601da56e088ac",
            "reqSigs": 1,
            "type": "pubkeyhash",
            "addresses": [
              "LRNmzrmBChdkvSeWXHzSCsH4dBpCK8fKbJ"
            ]
          }
        }
      ],
      "hex": "0100000002d1455976eb78930e65f65aa4c6de0ada7c5a920d7f2ef106bf08ae5d2252442a010000006b483045022100f96435ad3972dbb1e2b3291b57af38e67282f04f252e82b023c0808dc0e8bb470220429f81750596a26ba399f1a934a703f5b45575a20a530360fa72f177f88292630121027fb957149483ded926df1843c5cc93a4f30e3c0231de3d93c181726d997c52cbffffffff60f2ffefb843a67bc087c46bde2017fdd18db462b780f35b71d8acd18d6b8ccb010000006b483045022100fd4f618f60c50962fe4c1ac0aa379e1fc97e09563633a5933d06ab65a26d0933022076e04c9d8cc29fc86e54cb9746e6389fbf1fd984dc59c35d536fa2eefc706192012102db6345ae521d036f36d01034739d67c14aff5c41f3c9f6ef587109edd684a50affffffff02c0687804000000001976a914488906721431b86ea02df3a267a2b9ba673c287d88ac5cce630d000000001976a914437bee070e34c03faba2cce3223ce38601da56e088ac00000000"
    }, 
    {
      "txid": "ac92179f85c00a423867e1a2140dd157841e0477ab3076bcb918104eb9c2795f",
      "hash": "ac92179f85c00a423867e1a2140dd157841e0477ab3076bcb918104eb9c2795f",
      "version": 1,
      "size": 225,
      "vsize": 225,
      "locktime": 0,
      "vin": [
        {
          "txid": "ba216d266d4eab1ca03d2e4687c49c36e5c7ec229f725ce702b2a7843d46c140",
          "vout": 1,
          "scriptSig": {
            "asm": "304402206e7f1a28d4ad3495d6eb90907465f8230fa29ffc0a50c07ade943095b637340e02205c572b532dbab5e5ce188e4a4ea6da432bc789524fb48c9c9f744f5caada4ebc[ALL] 032303b1d501613e480252c7bb41b5092a8021178e3b144e3da223c6e3bb39d018",
            "hex": "47304402206e7f1a28d4ad3495d6eb90907465f8230fa29ffc0a50c07ade943095b637340e02205c572b532dbab5e5ce188e4a4ea6da432bc789524fb48c9c9f744f5caada4ebc0121032303b1d501613e480252c7bb41b5092a8021178e3b144e3da223c6e3bb39d018"
          },
          "sequence": 4294967295
        }
      ],
      "vout": [
        {
          "value": 0.01004202,
          "n": 0,
          "scriptPubKey": {
            "asm": "OP_DUP OP_HASH160 8195716b3643b9b6f471c0c457b94490a7c4e0ab OP_EQUALVERIFY OP_CHECKSIG",
            "hex": "76a9148195716b3643b9b6f471c0c457b94490a7c4e0ab88ac",
            "reqSigs": 1,
            "type": "pubkeyhash",
            "addresses": [
              "LX38TSh17DTAz25SzQSetAgy9moyqszLmx"
            ]
          }
        }, 
        {
          "value": 0.26016334,
          "n": 1,
          "scriptPubKey": {
            "asm": "OP_DUP OP_HASH160 0f3f9e5c48881014eb359495c9f5225cd3814ffa OP_EQUALVERIFY OP_CHECKSIG",
            "hex": "76a9140f3f9e5c48881014eb359495c9f5225cd3814ffa88ac",
            "reqSigs": 1,
            "type": "pubkeyhash",
            "addresses": [
              "LLcacPTSa7yRVJhavMWApcLxaNJULjhZSp"
            ]
          }
        }
      ],
      "hex": "010000000140c1463d84a7b202e75c729f22ecc7e5369cc487462e3da01cab4e6d266d21ba010000006a47304402206e7f1a28d4ad3495d6eb90907465f8230fa29ffc0a50c07ade943095b637340e02205c572b532dbab5e5ce188e4a4ea6da432bc789524fb48c9c9f744f5caada4ebc0121032303b1d501613e480252c7bb41b5092a8021178e3b144e3da223c6e3bb39d018ffffffff02aa520f00000000001976a9148195716b3643b9b6f471c0c457b94490a7c4e0ab88ac4efa8c01000000001976a9140f3f9e5c48881014eb359495c9f5225cd3814ffa88ac00000000"
    }, 
    {
      "txid": "752e828d0ee0a769f769430238d8c17dbe00f46a1e28685d88f4835394292405",
      "hash": "752e828d0ee0a769f769430238d8c17dbe00f46a1e28685d88f4835394292405",
      "version": 1,
      "size": 226,
      "vsize": 226,
      "locktime": 0,
      "vin": [
        {
          "txid": "8b622cb1b6adc1689cdebee2f5a12584ea96120e83cd1328afe865891dde4767",
          "vout": 1,
          "scriptSig": {
            "asm": "3045022100d02364007b8d5a9a3785d88282856dec136c6e595a2b26d4595be4a4eec31c3f02206ea93d82c573afb4430383b1418bf4e335e133ecb4aa0c7115574d5bfdd35340[ALL] 03e6b7c306be5e3b681fdc7003dba595550676bcf5fa085fab074e4383c6ce9284",
            "hex": "483045022100d02364007b8d5a9a3785d88282856dec136c6e595a2b26d4595be4a4eec31c3f02206ea93d82c573afb4430383b1418bf4e335e133ecb4aa0c7115574d5bfdd35340012103e6b7c306be5e3b681fdc7003dba595550676bcf5fa085fab074e4383c6ce9284"
          },
          "sequence": 4294967295
        }
      ],
      "vout": [
        {
          "value": 0.87050000,
          "n": 0,
          "scriptPubKey": {
            "asm": "OP_DUP OP_HASH160 73052bab97696e76bb4db827336ebba146ee149f OP_EQUALVERIFY OP_CHECKSIG",
            "hex": "76a91473052bab97696e76bb4db827336ebba146ee149f88ac",
            "reqSigs": 1,
            "type": "pubkeyhash",
            "addresses": [
              "LVi8AXpZYo3JVFsLaNxexxGhfHESGMWtyY"
            ]
          }
        }, 
        {
          "value": 160.12152420,
          "n": 1,
          "scriptPubKey": {
            "asm": "OP_DUP OP_HASH160 d7ca5333c9c48faafaf9c92e4309aa9625f5fcb2 OP_EQUALVERIFY OP_CHECKSIG",
            "hex": "76a914d7ca5333c9c48faafaf9c92e4309aa9625f5fcb288ac",
            "reqSigs": 1,
            "type": "pubkeyhash",
            "addresses": [
              "LetwvF9BE3F51LTaKGwSepBb5Mij4Ukof4"
            ]
          }
        }
      ],
      "hex": "01000000016747de1d8965e8af2813cd830e1296ea8425a1f5e2bede9c68c1adb6b12c628b010000006b483045022100d02364007b8d5a9a3785d88282856dec136c6e595a2b26d4595be4a4eec31c3f02206ea93d82c573afb4430383b1418bf4e335e133ecb4aa0c7115574d5bfdd35340012103e6b7c306be5e3b681fdc7003dba595550676bcf5fa085fab074e4383c6ce9284ffffffff0210473005000000001976a91473052bab97696e76bb4db827336ebba146ee149f88ac640e66ba030000001976a914d7ca5333c9c48faafaf9c92e4309aa9625f5fcb288ac00000000"
    }, 
    {
      "txid": "b46a8e77e139d4b37eebda42d8e2ca826c0ae431f5f0d7b55503f2cf08e8316c",
      "hash": "b46a8e77e139d4b37eebda42d8e2ca826c0ae431f5f0d7b55503f2cf08e8316c",
      "version": 1,
      "size": 226,
      "vsize": 226,
      "locktime": 0,
      "vin": [
        {
          "txid": "bb8dad75f91cc3a5cd483e5d56d1726f53116aa3b43f3ae6f936f9f8757b92df",
          "vout": 1,
          "scriptSig": {
            "asm": "3045022100c2e0c90eb5f54231d605d1edba9a68a33f2b100c88887ae2028a8ea1baf7ca9d02201402d5a2fc76892945a864eb21763befb8746a506885e3f4e901ac7477823926[ALL] 0368f324841d200c8f414353338223f90dc4b418f33f3e85be474dfeb233c31ce8",
            "hex": "483045022100c2e0c90eb5f54231d605d1edba9a68a33f2b100c88887ae2028a8ea1baf7ca9d02201402d5a2fc76892945a864eb21763befb8746a506885e3f4e901ac747782392601210368f324841d200c8f414353338223f90dc4b418f33f3e85be474dfeb233c31ce8"
          },
          "sequence": 4294967295
        }
      ],
      "vout": [
        {
          "value": 0.99900000,
          "n": 0,
          "scriptPubKey": {
            "asm": "OP_DUP OP_HASH160 2f8ca413c26e48c0f33bbb91f1804d0ff7f58c77 OP_EQUALVERIFY OP_CHECKSIG",
            "hex": "76a9142f8ca413c26e48c0f33bbb91f1804d0ff7f58c7788ac",
            "reqSigs": 1,
            "type": "pubkeyhash",
            "addresses": [
              "LPZNW8c4gZ8CMJemVUPLB23br3upTWaEiX"
            ]
          }
        }, 
        {
          "value": 159.99435775,
          "n": 1,
          "scriptPubKey": {
            "asm": "OP_DUP OP_HASH160 2487eb6f4aedae82eda9b96d720bc879281032dd OP_EQUALVERIFY OP_CHECKSIG",
            "hex": "76a9142487eb6f4aedae82eda9b96d720bc879281032dd88ac",
            "reqSigs": 1,
            "type": "pubkeyhash",
            "addresses": [
              "LNZ7Qyxpz52eimZ68CayCSQ1DDqMWXUgvu"
            ]
          }
        }
      ],
      "hex": "0100000001df927b75f8f936f9e63a3fb4a36a11536f72d1565d3e48cda5c31cf975ad8dbb010000006b483045022100c2e0c90eb5f54231d605d1edba9a68a33f2b100c88887ae2028a8ea1baf7ca9d02201402d5a2fc76892945a864eb21763befb8746a506885e3f4e901ac747782392601210368f324841d200c8f414353338223f90dc4b418f33f3e85be474dfeb233c31ce8ffffffff02605af405000000001976a9142f8ca413c26e48c0f33bbb91f1804d0ff7f58c7788acff03a4b9030000001976a9142487eb6f4aedae82eda9b96d720bc879281032dd88ac00000000"
    }, 
    {
      "txid": "71f3594c3afd2d5bb20453f5040fad6b5c88bf1671675226e6c3112ac1d5aff0",
      "hash": "71f3594c3afd2d5bb20453f5040fad6b5c88bf1671675226e6c3112ac1d5aff0",
      "version": 2,
      "size": 226,
      "vsize": 226,
      "locktime": 0,
      "vin": [
        {
          "txid": "89ac70372bfc0cee88e1728d5d8840359eb3894d3e7af67b8ebb62a57a0bcda8",
          "vout": 0,
          "scriptSig": {
            "asm": "3045022100a8c7dcd81cde1d072496b220a2a17dc2f036ee7c66d50f3cf1d4e3843c5194e9022004eafdfa4e6df02e61f31c1ca4e3547e82805b80c5ccffa76063d4b2b66269e1[ALL] 020a9faea93ba11c16c3afcae209f64a0301919670e65ac683113893cc1e79b775",
            "hex": "483045022100a8c7dcd81cde1d072496b220a2a17dc2f036ee7c66d50f3cf1d4e3843c5194e9022004eafdfa4e6df02e61f31c1ca4e3547e82805b80c5ccffa76063d4b2b66269e10121020a9faea93ba11c16c3afcae209f64a0301919670e65ac683113893cc1e79b775"
          },
          "sequence": 4294967295
        }
      ],
      "vout": [
        {
          "value": 0.81108628,
          "n": 0,
          "scriptPubKey": {
            "asm": "OP_DUP OP_HASH160 240a1cad7bc6b5eb4cd4d10f459a1e9ac74c7974 OP_EQUALVERIFY OP_CHECKSIG",
            "hex": "76a914240a1cad7bc6b5eb4cd4d10f459a1e9ac74c797488ac",
            "reqSigs": 1,
            "type": "pubkeyhash",
            "addresses": [
              "LNWWhiPux9iVeutCW99gsj7HyUSzqV6r6d"
            ]
          }
        }, 
        {
          "value": 0.00269155,
          "n": 1,
          "scriptPubKey": {
            "asm": "OP_DUP OP_HASH160 eab0488842a0b5117021faada016121bda59ca15 OP_EQUALVERIFY OP_CHECKSIG",
            "hex": "76a914eab0488842a0b5117021faada016121bda59ca1588ac",
            "reqSigs": 1,
            "type": "pubkeyhash",
            "addresses": [
              "LgcsZUtvqjRCBLfDCZGdm9zXBSMNLijfDM"
            ]
          }
        }
      ],
      "hex": "0200000001a8cd0b7aa562bb8e7bf67a3e4d89b39e3540885d8d72e188ee0cfc2b3770ac89000000006b483045022100a8c7dcd81cde1d072496b220a2a17dc2f036ee7c66d50f3cf1d4e3843c5194e9022004eafdfa4e6df02e61f31c1ca4e3547e82805b80c5ccffa76063d4b2b66269e10121020a9faea93ba11c16c3afcae209f64a0301919670e65ac683113893cc1e79b775ffffffff02949ed504000000001976a914240a1cad7bc6b5eb4cd4d10f459a1e9ac74c797488ac631b0400000000001976a914eab0488842a0b5117021faada016121bda59ca1588ac00000000"
    }, 
    {
      "txid": "1553ab987992409372e8b284792831be39ad49aa9b4675b98bcd6f0cf97bc3d8",
      "hash": "1553ab987992409372e8b284792831be39ad49aa9b4675b98bcd6f0cf97bc3d8",
      "version": 1,
      "size": 372,
      "vsize": 372,
      "locktime": 0,
      "vin": [
        {
          "txid": "65fdfde2b576a69eeb94aaadf4606b0e6e80b041d3bb24009de85dd441020e60",
          "vout": 1,
          "scriptSig": {
            "asm": "304402207f05097d73db37d085229bb387f2244d7c3a5433425f9cf8cf49781f32031f02022047427d8f4303b93dcf8d47cb5cd786e03f62f23529f61d06a203b8e18eeb6be9[ALL] 0328c9ae635abf580c261c44815dc1aac309e16ff26250525b7e99951369d2b8c7",
            "hex": "47304402207f05097d73db37d085229bb387f2244d7c3a5433425f9cf8cf49781f32031f02022047427d8f4303b93dcf8d47cb5cd786e03f62f23529f61d06a203b8e18eeb6be901210328c9ae635abf580c261c44815dc1aac309e16ff26250525b7e99951369d2b8c7"
          },
          "sequence": 4294967295
        }, 
        {
          "txid": "5b666c7fe688d5d7a9f26f6e7cd2dd62ff46d61448a4150ac0d2231016a57999",
          "vout": 1,
          "scriptSig": {
            "asm": "30440220582b3aa3784f4fb5f75dfd44b9e240f816277d096a5b9f958feac4231b27a0e20220190ccb901a123745169286f8349f022d7a50815ab6ca229dd5e958483f41654f[ALL] 0328c9ae635abf580c261c44815dc1aac309e16ff26250525b7e99951369d2b8c7",
            "hex": "4730440220582b3aa3784f4fb5f75dfd44b9e240f816277d096a5b9f958feac4231b27a0e20220190ccb901a123745169286f8349f022d7a50815ab6ca229dd5e958483f41654f01210328c9ae635abf580c261c44815dc1aac309e16ff26250525b7e99951369d2b8c7"
          },
          "sequence": 4294967295
        }
      ],
      "vout": [
        {
          "value": 0.99900000,
          "n": 0,
          "scriptPubKey": {
            "asm": "OP_DUP OP_HASH160 54b5e8b0a9437911c8d83df5f38ff2dc24fea053 OP_EQUALVERIFY OP_CHECKSIG",
            "hex": "76a91454b5e8b0a9437911c8d83df5f38ff2dc24fea05388ac",
            "reqSigs": 1,
            "type": "pubkeyhash",
            "addresses": [
              "LSwrwahjowvYZVmpPhVRV9eRodJSmD4AFV"
            ]
          }
        }, 
        {
          "value": 23.21439803,
          "n": 1,
          "scriptPubKey": {
            "asm": "OP_DUP OP_HASH160 c6e3836c2f4cd8f9c53e32813ded99ac0ce001f1 OP_EQUALVERIFY OP_CHECKSIG",
            "hex": "76a914c6e3836c2f4cd8f9c53e32813ded99ac0ce001f188ac",
            "reqSigs": 1,
            "type": "pubkeyhash",
            "addresses": [
              "LdMac6qdwFnBCVXN96dvoPjzbcE36gzs64"
            ]
          }
        }
      ],
      "hex": "0100000002600e0241d45de89d0024bbd341b0806e0e6b60f4adaa94eb9ea676b5e2fdfd65010000006a47304402207f05097d73db37d085229bb387f2244d7c3a5433425f9cf8cf49781f32031f02022047427d8f4303b93dcf8d47cb5cd786e03f62f23529f61d06a203b8e18eeb6be901210328c9ae635abf580c261c44815dc1aac309e16ff26250525b7e99951369d2b8c7ffffffff9979a5161023d2c00a15a44814d646ff62ddd27c6e6ff2a9d7d588e67f6c665b010000006a4730440220582b3aa3784f4fb5f75dfd44b9e240f816277d096a5b9f958feac4231b27a0e20220190ccb901a123745169286f8349f022d7a50815ab6ca229dd5e958483f41654f01210328c9ae635abf580c261c44815dc1aac309e16ff26250525b7e99951369d2b8c7ffffffff02605af405000000001976a91454b5e8b0a9437911c8d83df5f38ff2dc24fea05388ac3b5c5e8a000000001976a914c6e3836c2f4cd8f9c53e32813ded99ac0ce001f188ac00000000"
    }, 
    {
      "txid": "ea0c386941a0be5a0fc9f774f86448a8201763cd6c616c5963fbb28850d05cfa",
      "hash": "ea0c386941a0be5a0fc9f774f86448a8201763cd6c616c5963fbb28850d05cfa",
      "version": 1,
      "size": 226,
      "vsize": 226,
      "locktime": 0,
      "vin": [
        {
          "txid": "a15e83aacc6cef37b433965da9d1fe7b99acdc57c7fbf784d33efb40b861a46f",
          "vout": 1,
          "scriptSig": {
            "asm": "3045022100a2600b5df2b4b71f4dc6be3cc0bdd49a2e42646974752e1bf96c5b4520983f4e0220665f53a9036093967e28171a9ad3fc04e9d820077dd9c7f18231b3b3ba3cd216[ALL] 0368397611cf25931ef03ec222827756abe031781ae1998f3cc038c6a16c3bc9c7",
            "hex": "483045022100a2600b5df2b4b71f4dc6be3cc0bdd49a2e42646974752e1bf96c5b4520983f4e0220665f53a9036093967e28171a9ad3fc04e9d820077dd9c7f18231b3b3ba3cd21601210368397611cf25931ef03ec222827756abe031781ae1998f3cc038c6a16c3bc9c7"
          },
          "sequence": 4294967295
        }
      ],
      "vout": [
        {
          "value": 0.06936400,
          "n": 0,
          "scriptPubKey": {
            "asm": "OP_DUP OP_HASH160 69a543b0161dd79532531945ba9a6a0f673df120 OP_EQUALVERIFY OP_CHECKSIG",
            "hex": "76a91469a543b0161dd79532531945ba9a6a0f673df12088ac",
            "reqSigs": 1,
            "type": "pubkeyhash",
            "addresses": [
              "LUrZC8Lt2PCXnXh36iaL1JGGjr2pM1nunM"
            ]
          }
        }, 
        {
          "value": 0.05350000,
          "n": 1,
          "scriptPubKey": {
            "asm": "OP_DUP OP_HASH160 99ca8e3727913d9085c575f06522f59e4bffdac2 OP_EQUALVERIFY OP_CHECKSIG",
            "hex": "76a91499ca8e3727913d9085c575f06522f59e4bffdac288ac",
            "reqSigs": 1,
            "type": "pubkeyhash",
            "addresses": [
              "LZF8JNJ4t3X44kvhjAk1cM8s2cBQwSLM6n"
            ]
          }
        }
      ],
      "hex": "01000000016fa461b840fb3ed384f7fbc757dcac997bfed1a95d9633b437ef6cccaa835ea1010000006b483045022100a2600b5df2b4b71f4dc6be3cc0bdd49a2e42646974752e1bf96c5b4520983f4e0220665f53a9036093967e28171a9ad3fc04e9d820077dd9c7f18231b3b3ba3cd21601210368397611cf25931ef03ec222827756abe031781ae1998f3cc038c6a16c3bc9c7ffffffff0250d76900000000001976a91469a543b0161dd79532531945ba9a6a0f673df12088ac70a25100000000001976a91499ca8e3727913d9085c575f06522f59e4bffdac288ac00000000"
    }, 
    {
      "txid": "6d0818d0e8888860f0029fb29d4e55c01b3f078c93ba201c67a3f9673e9284b0",
      "hash": "c2ecad6c5e4dfe00b80736adabc33893fd85f1436e9eb34518a52a16ff014ca2",
      "version": 1,
      "size": 373,
      "vsize": 208,
      "locktime": 0,
      "vin": [
        {
          "txid": "546a771934f0698bd8b191140ad39e7e17974f4d86e8827b40c44ca5f5b2f921",
          "vout": 1,
          "scriptSig": {
            "asm": "00207975c3f0d1bf8b6205e1c664d703c93d68409676bf17c5e78cdece78bdbf3dbf",
            "hex": "2200207975c3f0d1bf8b6205e1c664d703c93d68409676bf17c5e78cdece78bdbf3dbf"
          },
          "txinwitness": [
            "", 
            "304402204bcd0bce3c183e10599a8f365d97412d353516970d6bb85dcb4f8a9f41c849f002202cf8e79e53b08bc262ac29f3bf30c70e61fe1888840f2a7ec6aee73daf64d26001", 
            "3045022100ae78c2888852e713d35c048de93388ed4b9cbc47b8877a9d5be8f3550b056eae02204182709ab42e8a666485134d4c211fe3723a6a493fc58ffeca0030fb65fa758a01", 
            "522102611be09a0c6a571c8f68adb2481e938888756d93d4ee5b670f08c16e939b7f1a21022cc7a96a72ef014bf078a6489644e2edb05bb216d30b4f28363b637fe4463fd652ae"
          ],
          "sequence": 4294967295
        }
      ],
      "vout": [
        {
          "value": 0.03920200,
          "n": 0,
          "scriptPubKey": {
            "asm": "OP_DUP OP_HASH160 4c7a3cda195677c0b8f690ee91a14d6be9e42d6c OP_EQUALVERIFY OP_CHECKSIG",
            "hex": "76a9144c7a3cda195677c0b8f690ee91a14d6be9e42d6c88ac",
            "reqSigs": 1,
            "type": "pubkeyhash",
            "addresses": [
              "LSCL41vAXzzbxn2zrznRXpL6oJWh5V1ucq"
            ]
          }
        }, 
        {
          "value": 8.27681142,
          "n": 1,
          "scriptPubKey": {
            "asm": "OP_HASH160 486ce63d83e8406016f310cd321d36bbdd10d412 OP_EQUAL",
            "hex": "a914486ce63d83e8406016f310cd321d36bbdd10d41287",
            "reqSigs": 1,
            "type": "scripthash",
            "addresses": [
              "MEW7Lhk6QzBLmCNp5pmpYzwv1KAcKYsSQp"
            ]
          }
        }
      ],
      "hex": "0100000000010121f9b2f5a54cc4407b82e8864d4f97177e9ed30a1491b1d88b69f03419776a5401000000232200207975c3f0d1bf8b6205e1c664d703c93d68409676bf17c5e78cdece78bdbf3dbfffffffff0248d13b00000000001976a9144c7a3cda195677c0b8f690ee91a14d6be9e42d6c88ac766955310000000017a914486ce63d83e8406016f310cd321d36bbdd10d41287040047304402204bcd0bce3c183e10599a8f365d97412d353516970d6bb85dcb4f8a9f41c849f002202cf8e79e53b08bc262ac29f3bf30c70e61fe1888840f2a7ec6aee73daf64d26001483045022100ae78c2888852e713d35c048de93388ed4b9cbc47b8877a9d5be8f3550b056eae02204182709ab42e8a666485134d4c211fe3723a6a493fc58ffeca0030fb65fa758a0147522102611be09a0c6a571c8f68adb2481e938888756d93d4ee5b670f08c16e939b7f1a21022cc7a96a72ef014bf078a6489644e2edb05bb216d30b4f28363b637fe4463fd652ae00000000"
    }, 
    {
      "txid": "38608ab36225bacaa4639882e8ec7f68121aaeeb652ceeba1d25cea99e1073e7",
      "hash": "b7849ac962f6d8c636d843515b1f6c56a806b716a07ea874e0efa1fcd7e45666",
      "version": 1,
      "size": 374,
      "vsize": 208,
      "locktime": 0,
      "vin": [
        {
          "txid": "af643102714dd6526f0f7991a90b3dd41c57651a9a6c6ccdc780e9bfebdf6dd5",
          "vout": 1,
          "scriptSig": {
            "asm": "00207975c3f0d1bf8b6205e1c664d703c93d68409676bf17c5e78cdece78bdbf3dbf",
            "hex": "2200207975c3f0d1bf8b6205e1c664d703c93d68409676bf17c5e78cdece78bdbf3dbf"
          },
          "txinwitness": [
            "", 
            "3045022100a3c13f1cee46b3b47d47080ebce8f34837b33777dd15e7d2c530be4dcc5fbf1102205b4f6dbae0db27397d3db020e60230da7135b4a0eaefa26d2763f8ce8e7e8d6f01", 
            "3045022100b557ea15e72a31bfef5f9c27dc6ba742e854b78d0793e363a35676dea1ff15f90220549c4f7867e914ba9d87eafb08353013ae045c13eee29ee1918f6aad46a8aa1e01", 
            "522102611be09a0c6a571c8f68adb2481e938888756d93d4ee5b670f08c16e939b7f1a21022cc7a96a72ef014bf078a6489644e2edb05bb216d30b4f28363b637fe4463fd652ae"
          ],
          "sequence": 4294967295
        }
      ],
      "vout": [
        {
          "value": 0.00531800,
          "n": 0,
          "scriptPubKey": {
            "asm": "OP_DUP OP_HASH160 f1c15fd9e6deec73fb57feaee813edbbc571d5ec OP_EQUALVERIFY OP_CHECKSIG",
            "hex": "76a914f1c15fd9e6deec73fb57feaee813edbbc571d5ec88ac",
            "reqSigs": 1,
            "type": "pubkeyhash",
            "addresses": [
              "LhGEmLLqfVrm9JbiqbGV1amTfeWxKLSMkJ"
            ]
          }
        }, 
        {
          "value": 8.42479819,
          "n": 1,
          "scriptPubKey": {
            "asm": "OP_HASH160 486ce63d83e8406016f310cd321d36bbdd10d412 OP_EQUAL",
            "hex": "a914486ce63d83e8406016f310cd321d36bbdd10d41287",
            "reqSigs": 1,
            "type": "scripthash",
            "addresses": [
              "MEW7Lhk6QzBLmCNp5pmpYzwv1KAcKYsSQp"
            ]
          }
        }
      ],
      "hex": "01000000000101d56ddfebbfe980c7cd6c6c9a1a65571cd43d0ba991790f6f52d64d71023164af01000000232200207975c3f0d1bf8b6205e1c664d703c93d68409676bf17c5e78cdece78bdbf3dbfffffffff02581d0800000000001976a914f1c15fd9e6deec73fb57feaee813edbbc571d5ec88accb3837320000000017a914486ce63d83e8406016f310cd321d36bbdd10d412870400483045022100a3c13f1cee46b3b47d47080ebce8f34837b33777dd15e7d2c530be4dcc5fbf1102205b4f6dbae0db27397d3db020e60230da7135b4a0eaefa26d2763f8ce8e7e8d6f01483045022100b557ea15e72a31bfef5f9c27dc6ba742e854b78d0793e363a35676dea1ff15f90220549c4f7867e914ba9d87eafb08353013ae045c13eee29ee1918f6aad46a8aa1e0147522102611be09a0c6a571c8f68adb2481e938888756d93d4ee5b670f08c16e939b7f1a21022cc7a96a72ef014bf078a6489644e2edb05bb216d30b4f28363b637fe4463fd652ae00000000"
    }, 
    {
      "txid": "ad18fecc3a475c498def66faea9d85178ec56a1da64b20b22965dda44dc64807",
      "hash": "ad18fecc3a475c498def66faea9d85178ec56a1da64b20b22965dda44dc64807",
      "version": 2,
      "size": 225,
      "vsize": 225,
      "locktime": 0,
      "vin": [
        {
          "txid": "099e1f25ec6985389c996d5a7bc1f19d529120f606aef046bc24ebff0e0fa6a8",
          "vout": 1,
          "scriptSig": {
            "asm": "304402207c576b06ffad9c7086ed95eaf8f6a292607ab5a3b5db4e707178560107f47df2022045ab2f88eebf48f0825307480e231c917ca611a8ded2e574c17ae3d04c326b59[ALL] 02b0692a3f44bde919015862360725e4ea9cadf8b9eb208f4885cfc6f7475fcd42",
            "hex": "47304402207c576b06ffad9c7086ed95eaf8f6a292607ab5a3b5db4e707178560107f47df2022045ab2f88eebf48f0825307480e231c917ca611a8ded2e574c17ae3d04c326b59012102b0692a3f44bde919015862360725e4ea9cadf8b9eb208f4885cfc6f7475fcd42"
          },
          "sequence": 4294967295
        }
      ],
      "vout": [
        {
          "value": 0.00270697,
          "n": 0,
          "scriptPubKey": {
            "asm": "OP_DUP OP_HASH160 ef5764de10e7ecdc18536b7faac5e00a5acae3da OP_EQUALVERIFY OP_CHECKSIG",
            "hex": "76a914ef5764de10e7ecdc18536b7faac5e00a5acae3da88ac",
            "reqSigs": 1,
            "type": "pubkeyhash",
            "addresses": [
              "Lh3UTJXX4NrP5qg85Zwjcz2uRTJMyztioN"
            ]
          }
        }, 
        {
          "value": 0.26773833,
          "n": 1,
          "scriptPubKey": {
            "asm": "OP_DUP OP_HASH160 2035cad05cde87ab6798b1e45b9ffe501a2340fc OP_EQUALVERIFY OP_CHECKSIG",
            "hex": "76a9142035cad05cde87ab6798b1e45b9ffe501a2340fc88ac",
            "reqSigs": 1,
            "type": "pubkeyhash",
            "addresses": [
              "LNAGKuGqJRkzC3uxFqw7cr39mQYc4QL6Rk"
            ]
          }
        }
      ],
      "hex": "0200000001a8a60f0effeb24bc46f0ae06f62091529df1c17b5a6d999c388569ec251f9e09010000006a47304402207c576b06ffad9c7086ed95eaf8f6a292607ab5a3b5db4e707178560107f47df2022045ab2f88eebf48f0825307480e231c917ca611a8ded2e574c17ae3d04c326b59012102b0692a3f44bde919015862360725e4ea9cadf8b9eb208f4885cfc6f7475fcd42ffffffff0269210400000000001976a914ef5764de10e7ecdc18536b7faac5e00a5acae3da88ac49899801000000001976a9142035cad05cde87ab6798b1e45b9ffe501a2340fc88ac00000000"
    }, 
    {
      "txid": "54d698e33487254457786a4188e159145d4044b6b0e098f7454fcb6b45cd406c",
      "hash": "54d698e33487254457786a4188e159145d4044b6b0e098f7454fcb6b45cd406c",
      "version": 2,
      "size": 225,
      "vsize": 225,
      "locktime": 1359191,
      "vin": [
        {
          "txid": "4f02d59a3978ab07f35f1b9fd75e19e77105c5463ccbebbff5a56adb8e6935d9",
          "vout": 1,
          "scriptSig": {
            "asm": "304402207f235084016c95c0bd7f7ff7653e37f822c7e6fa93534e3b27fd044b58e9f24602205365caa39ae583a4a2d87f559f4e0d6789865c4bbf7df47ff2bc0845fd8affab[ALL] 03f72255042d54441e1e2e0a000645783ea1a1248a3ec706277af2b92398993b91",
            "hex": "47304402207f235084016c95c0bd7f7ff7653e37f822c7e6fa93534e3b27fd044b58e9f24602205365caa39ae583a4a2d87f559f4e0d6789865c4bbf7df47ff2bc0845fd8affab012103f72255042d54441e1e2e0a000645783ea1a1248a3ec706277af2b92398993b91"
          },
          "sequence": 4294967294
        }
      ],
      "vout": [
        {
          "value": 609.83760000,
          "n": 0,
          "scriptPubKey": {
            "asm": "OP_DUP OP_HASH160 07aa60ec968b25b8eb7feeda0ae817a33b3e70a9 OP_EQUALVERIFY OP_CHECKSIG",
            "hex": "76a91407aa60ec968b25b8eb7feeda0ae817a33b3e70a988ac",
            "reqSigs": 1,
            "type": "pubkeyhash",
            "addresses": [
              "LKvV6fmQKGw1Ldj9p8psLsQ7skrLPi5yFz"
            ]
          }
        }, 
        {
          "value": 2038.75248800,
          "n": 1,
          "scriptPubKey": {
            "asm": "OP_DUP OP_HASH160 14b417ec491f8cb2078d3b3e6a500fc9b5a32d0f OP_EQUALVERIFY OP_CHECKSIG",
            "hex": "76a91414b417ec491f8cb2078d3b3e6a500fc9b5a32d0f88ac",
            "reqSigs": 1,
            "type": "pubkeyhash",
            "addresses": [
              "LM7RXALgesfAb4NEUsWaPxhoeFiZxM4WoW"
            ]
          }
        }
      ],
      "hex": "0200000001d935698edb6aa5f5bfebcb3c46c50571e7195ed79f1b5ff307ab78399ad5024f010000006a47304402207f235084016c95c0bd7f7ff7653e37f822c7e6fa93534e3b27fd044b58e9f24602205365caa39ae583a4a2d87f559f4e0d6789865c4bbf7df47ff2bc0845fd8affab012103f72255042d54441e1e2e0a000645783ea1a1248a3ec706277af2b92398993b91feffffff028054ea320e0000001976a91407aa60ec968b25b8eb7feeda0ae817a33b3e70a988aca06ae9772f0000001976a91414b417ec491f8cb2078d3b3e6a500fc9b5a32d0f88ac57bd1400"
    }, 
    {
      "txid": "ce4767f9c5a42dc2c4d976da13f567901665cc198163cf4eb5842d6eada0d5f5",
      "hash": "ce4767f9c5a42dc2c4d976da13f567901665cc198163cf4eb5842d6eada0d5f5",
      "version": 1,
      "size": 225,
      "vsize": 225,
      "locktime": 0,
      "vin": [
        {
          "txid": "9afdab689cf40cee7eb92e73575e0eb8f28ff879e7ac382903de504fea6442d4",
          "vout": 0,
          "scriptSig": {
            "asm": "304402203e7e852349595561cc8af403bf37e7430627a67603d42a1d981dacf3b61aab43022016a163edfe311fd3b1807b0b93a548fb98a384426f1e89a60ac328b1d503beb7[ALL] 0379bc8b87166afa73cadad54b7833ed8bcbc384912731df7bc28c0cbcef429f22",
            "hex": "47304402203e7e852349595561cc8af403bf37e7430627a67603d42a1d981dacf3b61aab43022016a163edfe311fd3b1807b0b93a548fb98a384426f1e89a60ac328b1d503beb701210379bc8b87166afa73cadad54b7833ed8bcbc384912731df7bc28c0cbcef429f22"
          },
          "sequence": 4294967295
        }
      ],
      "vout": [
        {
          "value": 0.16565000,
          "n": 0,
          "scriptPubKey": {
            "asm": "OP_DUP OP_HASH160 5aadd598be2392a3d4acfca8dc48918322d07d5e OP_EQUALVERIFY OP_CHECKSIG",
            "hex": "76a9145aadd598be2392a3d4acfca8dc48918322d07d5e88ac",
            "reqSigs": 1,
            "type": "pubkeyhash",
            "addresses": [
              "LTVRKhcHruHj1aHn7vmQW6YXBnECNrSp22"
            ]
          }
        }, 
        {
          "value": 0.00093564,
          "n": 1,
          "scriptPubKey": {
            "asm": "OP_DUP OP_HASH160 fa12f0083e9762eb41c0e281b924c5435ec9e7f3 OP_EQUALVERIFY OP_CHECKSIG",
            "hex": "76a914fa12f0083e9762eb41c0e281b924c5435ec9e7f388ac",
            "reqSigs": 1,
            "type": "pubkeyhash",
            "addresses": [
              "Li2Dsynj4Qxk5kK4oDa2aGeLvVcWCHkqbF"
            ]
          }
        }
      ],
      "hex": "0100000001d44264ea4f50de032938ace779f88ff2b80e5e57732eb97eee0cf49c68abfd9a000000006a47304402203e7e852349595561cc8af403bf37e7430627a67603d42a1d981dacf3b61aab43022016a163edfe311fd3b1807b0b93a548fb98a384426f1e89a60ac328b1d503beb701210379bc8b87166afa73cadad54b7833ed8bcbc384912731df7bc28c0cbcef429f22ffffffff0208c3fc00000000001976a9145aadd598be2392a3d4acfca8dc48918322d07d5e88ac7c6d0100000000001976a914fa12f0083e9762eb41c0e281b924c5435ec9e7f388ac00000000"
    }, 
    {
      "txid": "c8b1f385dadc2580563d4ad7950990dd6dadcdae0295e586daf82b4ad5652f01",
      "hash": "c8b1f385dadc2580563d4ad7950990dd6dadcdae0295e586daf82b4ad5652f01",
      "version": 1,
      "size": 226,
      "vsize": 226,
      "locktime": 0,
      "vin": [
        {
          "txid": "cdd3460b1128e0d00db616945b556bacd2cbf3ef267449b9a15ecc3c5bef36c0",
          "vout": 1,
          "scriptSig": {
            "asm": "3045022100dc3be737da4711e64de0e0a17417916cb89052fda51737240e8e45099f429d4d022001606387db57f1343728bda844d3847e0d1c6ce06a82b61b84f1f6f3560f2354[ALL] 024489c0107b51472cf3d887d3b9ca65bd4b101155f88f69bea3b9a01bca453859",
            "hex": "483045022100dc3be737da4711e64de0e0a17417916cb89052fda51737240e8e45099f429d4d022001606387db57f1343728bda844d3847e0d1c6ce06a82b61b84f1f6f3560f23540121024489c0107b51472cf3d887d3b9ca65bd4b101155f88f69bea3b9a01bca453859"
          },
          "sequence": 4294967295
        }
      ],
      "vout": [
        {
          "value": 0.02778010,
          "n": 0,
          "scriptPubKey": {
            "asm": "OP_DUP OP_HASH160 8b51dac0af1e7ef66b18f0b4731e01aabc28d07f OP_EQUALVERIFY OP_CHECKSIG",
            "hex": "76a9148b51dac0af1e7ef66b18f0b4731e01aabc28d07f88ac",
            "reqSigs": 1,
            "type": "pubkeyhash",
            "addresses": [
              "LXvcFEBDDNubpp3Z4qhWiKBbKFpRHcAKV1"
            ]
          }
        }, 
        {
          "value": 0.00164118,
          "n": 1,
          "scriptPubKey": {
            "asm": "OP_DUP OP_HASH160 0e57cf82afbe89e470e2c5dbc6595b457da71622 OP_EQUALVERIFY OP_CHECKSIG",
            "hex": "76a9140e57cf82afbe89e470e2c5dbc6595b457da7162288ac",
            "reqSigs": 1,
            "type": "pubkeyhash",
            "addresses": [
              "LLXnv5u1zcNeeDi8VfhsXM19V3M1BqH483"
            ]
          }
        }
      ],
      "hex": "0100000001c036ef5b3ccc5ea1b9497426eff3cbd2ac6b555b9416b60dd0e028110b46d3cd010000006b483045022100dc3be737da4711e64de0e0a17417916cb89052fda51737240e8e45099f429d4d022001606387db57f1343728bda844d3847e0d1c6ce06a82b61b84f1f6f3560f23540121024489c0107b51472cf3d887d3b9ca65bd4b101155f88f69bea3b9a01bca453859ffffffff029a632a00000000001976a9148b51dac0af1e7ef66b18f0b4731e01aabc28d07f88ac16810200000000001976a9140e57cf82afbe89e470e2c5dbc6595b457da7162288ac00000000"
    }, 
    {
      "txid": "e16f3c8f9ccd7f533fe6e4adac090dea5244d1e54ce7e77b3a1e050b7159eb2d",
      "hash": "e16f3c8f9ccd7f533fe6e4adac090dea5244d1e54ce7e77b3a1e050b7159eb2d",
      "version": 1,
      "size": 226,
      "vsize": 226,
      "locktime": 0,
      "vin": [
        {
          "txid": "e7c36bfae3553d50d87aba3c997493202c878c4b90f78e80f84c593468375a05",
          "vout": 6,
          "scriptSig": {
            "asm": "3045022100cc13835b4df8bb70d9a41df940894034eb99604a319d38303c9df539856e6202022025b1c2cb5da1eecff658d4083a4331d89fd2229125719d50973ef2620fc56631[ALL] 0345aa24c6e010fa9144c16b155a2dd33258b7c4efa945e044cbfe472bac9615a5",
            "hex": "483045022100cc13835b4df8bb70d9a41df940894034eb99604a319d38303c9df539856e6202022025b1c2cb5da1eecff658d4083a4331d89fd2229125719d50973ef2620fc5663101210345aa24c6e010fa9144c16b155a2dd33258b7c4efa945e044cbfe472bac9615a5"
          },
          "sequence": 4294967295
        }
      ],
      "vout": [
        {
          "value": 3.40319184,
          "n": 0,
          "scriptPubKey": {
            "asm": "OP_DUP OP_HASH160 b08864c031983c0f3eb71463e73586e9a98a5c94 OP_EQUALVERIFY OP_CHECKSIG",
            "hex": "76a914b08864c031983c0f3eb71463e73586e9a98a5c9488ac",
            "reqSigs": 1,
            "type": "pubkeyhash",
            "addresses": [
              "LbKNamN3EdeEf6XwGKLdqdfgzB1mckHAVU"
            ]
          }
        }, 
        {
          "value": 4.08670528,
          "n": 1,
          "scriptPubKey": {
            "asm": "OP_DUP OP_HASH160 2d9768ffd6ce766036a31645aee85d5cb3583018 OP_EQUALVERIFY OP_CHECKSIG",
            "hex": "76a9142d9768ffd6ce766036a31645aee85d5cb358301888ac",
            "reqSigs": 1,
            "type": "pubkeyhash",
            "addresses": [
              "LPP241NogpHPAuS3vMa3sqYHfw36DZH6Ra"
            ]
          }
        }
      ],
      "hex": "0100000001055a376834594cf8808ef7904b8c872c209374993cba7ad8503d55e3fa6bc3e7060000006b483045022100cc13835b4df8bb70d9a41df940894034eb99604a319d38303c9df539856e6202022025b1c2cb5da1eecff658d4083a4331d89fd2229125719d50973ef2620fc5663101210345aa24c6e010fa9144c16b155a2dd33258b7c4efa945e044cbfe472bac9615a5ffffffff02d0db4814000000001976a914b08864c031983c0f3eb71463e73586e9a98a5c9488ac40d15b18000000001976a9142d9768ffd6ce766036a31645aee85d5cb358301888ac00000000"
    }, 
    {
      "txid": "da42a8e6b07be05f66a820343571edd294a25bba6affdc2ffdd86c9824ca9e59",
      "hash": "da42a8e6b07be05f66a820343571edd294a25bba6affdc2ffdd86c9824ca9e59",
      "version": 2,
      "size": 226,
      "vsize": 226,
      "locktime": 1359282,
      "vin": [
        {
          "txid": "c8b7b47b3a166c48759a46964f9bd2f7480887dddc496b692af4ece3e10f10fd",
          "vout": 1,
          "scriptSig": {
            "asm": "3045022100e864f5b4de01976f516eaf020e02de919c0cef26afa95bcbc58d251651a95069022006b537dfc0990401cc2cd6a54e2bf1911ee22aa2dd1586f695900337a2adf271[ALL] 026f47273a6f90644072717660b3315884c18fab9ac4706e923a532c8145af499b",
            "hex": "483045022100e864f5b4de01976f516eaf020e02de919c0cef26afa95bcbc58d251651a95069022006b537dfc0990401cc2cd6a54e2bf1911ee22aa2dd1586f695900337a2adf2710121026f47273a6f90644072717660b3315884c18fab9ac4706e923a532c8145af499b"
          },
          "sequence": 4294967294
        }
      ],
      "vout": [
        {
          "value": 1.82718047,
          "n": 0,
          "scriptPubKey": {
            "asm": "OP_DUP OP_HASH160 8d03f92b9d3188cdd353150c0f0a00477344b6ed OP_EQUALVERIFY OP_CHECKSIG",
            "hex": "76a9148d03f92b9d3188cdd353150c0f0a00477344b6ed88ac",
            "reqSigs": 1,
            "type": "pubkeyhash",
            "addresses": [
              "LY5aJLEEdamWbujCeVc8cXBVVPbURy79ny"
            ]
          }
        }, 
        {
          "value": 71.85432523,
          "n": 1,
          "scriptPubKey": {
            "asm": "OP_DUP OP_HASH160 60d22a02e6c3a2c49f1fc2d19334bf3bf1b3b8d6 OP_EQUALVERIFY OP_CHECKSIG",
            "hex": "76a91460d22a02e6c3a2c49f1fc2d19334bf3bf1b3b8d688ac",
            "reqSigs": 1,
            "type": "pubkeyhash",
            "addresses": [
              "LU3tu5zV66Dm3FAd9z9LE4CmGY2UKP84nM"
            ]
          }
        }
      ],
      "hex": "0200000001fd100fe1e3ecf42a696b49dcdd870848f7d29b4f96469a75486c163a7bb4b7c8010000006b483045022100e864f5b4de01976f516eaf020e02de919c0cef26afa95bcbc58d251651a95069022006b537dfc0990401cc2cd6a54e2bf1911ee22aa2dd1586f695900337a2adf2710121026f47273a6f90644072717660b3315884c18fab9ac4706e923a532c8145af499bfeffffff025f0ee40a000000001976a9148d03f92b9d3188cdd353150c0f0a00477344b6ed88accbff48ac010000001976a91460d22a02e6c3a2c49f1fc2d19334bf3bf1b3b8d688acb2bd1400"
    }, 
    {
      "txid": "93d37de8623804e2b0f9385154ae506ade11eb902b26091b7cdad0a16d7cef82",
      "hash": "93d37de8623804e2b0f9385154ae506ade11eb902b26091b7cdad0a16d7cef82",
      "version": 1,
      "size": 226,
      "vsize": 226,
      "locktime": 0,
      "vin": [
        {
          "txid": "be9ab8a87e6c020b73132a22be340babfb0600212e2b375a227461e0d893c63d",
          "vout": 1,
          "scriptSig": {
            "asm": "30450221009123cd12d26f4a62ec79ee129258193148335309a1a1e9db5a95b7984c0b7bd5022038c3ea8a0312556ddfa263010989688bcaf0e538dc292c49c709904461490025[ALL] 03b68eadb873474da343d1c5d9e1398193a834bf6c297bf416e424afd55bbb01a3",
            "hex": "4830450221009123cd12d26f4a62ec79ee129258193148335309a1a1e9db5a95b7984c0b7bd5022038c3ea8a0312556ddfa263010989688bcaf0e538dc292c49c709904461490025012103b68eadb873474da343d1c5d9e1398193a834bf6c297bf416e424afd55bbb01a3"
          },
          "sequence": 4294967295
        }
      ],
      "vout": [
        {
          "value": 1.00000000,
          "n": 0,
          "scriptPubKey": {
            "asm": "OP_DUP OP_HASH160 a7982ce83df25040abe8fa01342a65b49c3a0b43 OP_EQUALVERIFY OP_CHECKSIG",
            "hex": "76a914a7982ce83df25040abe8fa01342a65b49c3a0b4388ac",
            "reqSigs": 1,
            "type": "pubkeyhash",
            "addresses": [
              "LaW7Qaic3dMVzTDVSSoC9y8eGwPYqPiBWQ"
            ]
          }
        }, 
        {
          "value": 2.25544811,
          "n": 1,
          "scriptPubKey": {
            "asm": "OP_DUP OP_HASH160 e9094589f2d26b9c6fa44aeda755cebaf3078eeb OP_EQUALVERIFY OP_CHECKSIG",
            "hex": "76a914e9094589f2d26b9c6fa44aeda755cebaf3078eeb88ac",
            "reqSigs": 1,
            "type": "pubkeyhash",
            "addresses": [
              "LgU8p7a1J2Wd87LwbUKevcFCshxJDnftwr"
            ]
          }
        }
      ],
      "hex": "01000000013dc693d8e06174225a372b2e210006fbab0b34be222a13730b026c7ea8b89abe010000006b4830450221009123cd12d26f4a62ec79ee129258193148335309a1a1e9db5a95b7984c0b7bd5022038c3ea8a0312556ddfa263010989688bcaf0e538dc292c49c709904461490025012103b68eadb873474da343d1c5d9e1398193a834bf6c297bf416e424afd55bbb01a3ffffffff0200e1f505000000001976a914a7982ce83df25040abe8fa01342a65b49c3a0b4388ac6b8a710d000000001976a914e9094589f2d26b9c6fa44aeda755cebaf3078eeb88ac00000000"
    }, 
    {
      "txid": "738e01239a95a85f3c5ff2cc9bc955cfbda3e355c397971e746c0b29d38b62a9",
      "hash": "738e01239a95a85f3c5ff2cc9bc955cfbda3e355c397971e746c0b29d38b62a9",
      "version": 1,
      "size": 226,
      "vsize": 226,
      "locktime": 0,
      "vin": [
        {
          "txid": "dd59155aa59f0ebe9bde4c461c0f1efd4c330014a9a7f2c8997be880e25e11ce",
          "vout": 1,
          "scriptSig": {
            "asm": "30450221008b0a6d914eeb4a0b492bbba32d79ad2f0edd997a47a626e9fd4b30ce44c9d4ca0220629d0084d9c5ffbbcbbb63ba3930275e4842deed5f73a029758786a20d8ac1f8[ALL] 02db98aadf5472525c923ab18f84228d6f3ffcb699e0505d53872508c4eff943d4",
            "hex": "4830450221008b0a6d914eeb4a0b492bbba32d79ad2f0edd997a47a626e9fd4b30ce44c9d4ca0220629d0084d9c5ffbbcbbb63ba3930275e4842deed5f73a029758786a20d8ac1f8012102db98aadf5472525c923ab18f84228d6f3ffcb699e0505d53872508c4eff943d4"
          },
          "sequence": 4294967295
        }
      ],
      "vout": [
        {
          "value": 3.90335967,
          "n": 0,
          "scriptPubKey": {
            "asm": "OP_DUP OP_HASH160 f83d7e459712b7519ffc25000b81b634a69e5610 OP_EQUALVERIFY OP_CHECKSIG",
            "hex": "76a914f83d7e459712b7519ffc25000b81b634a69e561088ac",
            "reqSigs": 1,
            "type": "pubkeyhash",
            "addresses": [
              "LhrXWQu1ACy7MXD9cogXuRhc2tsQKRGYvm"
            ]
          }
        }, 
        {
          "value": 3.64576626,
          "n": 1,
          "scriptPubKey": {
            "asm": "OP_DUP OP_HASH160 0b39e286d7658299c210d374961686ce9d469938 OP_EQUALVERIFY OP_CHECKSIG",
            "hex": "76a9140b39e286d7658299c210d374961686ce9d46993888ac",
            "reqSigs": 1,
            "type": "pubkeyhash",
            "addresses": [
              "LLFK3EYrrfsE869cyKA544fRU9xU4w2S5q"
            ]
          }
        }
      ],
      "hex": "0100000001ce115ee280e87b99c8f2a7a91400334cfd1e0f1c464cde9bbe0e9fa55a1559dd010000006b4830450221008b0a6d914eeb4a0b492bbba32d79ad2f0edd997a47a626e9fd4b30ce44c9d4ca0220629d0084d9c5ffbbcbbb63ba3930275e4842deed5f73a029758786a20d8ac1f8012102db98aadf5472525c923ab18f84228d6f3ffcb699e0505d53872508c4eff943d4ffffffff02df0d4417000000001976a914f83d7e459712b7519ffc25000b81b634a69e561088ac72ffba15000000001976a9140b39e286d7658299c210d374961686ce9d46993888ac00000000"
    }, 
    {
      "txid": "b575b5e19b53382d3bd01a5c65b090f29c2c0fd48e0db8546b013199ed1b84bf",
      "hash": "b575b5e19b53382d3bd01a5c65b090f29c2c0fd48e0db8546b013199ed1b84bf",
      "version": 1,
      "size": 226,
      "vsize": 226,
      "locktime": 0,
      "vin": [
        {
          "txid": "c8b7b47b3a166c48759a46964f9bd2f7480887dddc496b692af4ece3e10f10fd",
          "vout": 0,
          "scriptSig": {
            "asm": "304502210088ffefc77d12c6e10b5ac93c1673c9eab110e87af53d677b09b005d1222e0c5d02200ff8643356c0e1b09a1bce6992a6677f1ccea7b303956a4266cf18eaeb86d017[ALL] 02759359b223e93ea098bfc94283e5479e0c677f4372792cae21f7ff16d85de237",
            "hex": "48304502210088ffefc77d12c6e10b5ac93c1673c9eab110e87af53d677b09b005d1222e0c5d02200ff8643356c0e1b09a1bce6992a6677f1ccea7b303956a4266cf18eaeb86d017012102759359b223e93ea098bfc94283e5479e0c677f4372792cae21f7ff16d85de237"
          },
          "sequence": 4294967295
        }
      ],
      "vout": [
        {
          "value": 1.66681000,
          "n": 0,
          "scriptPubKey": {
            "asm": "OP_DUP OP_HASH160 e8e0eb56d48b6152053c3745352939ce7edfd92b OP_EQUALVERIFY OP_CHECKSIG",
            "hex": "76a914e8e0eb56d48b6152053c3745352939ce7edfd92b88ac",
            "reqSigs": 1,
            "type": "pubkeyhash",
            "addresses": [
              "LgTJUPEb8okGNKt93dg8VWYW2W5zWXFrWL"
            ]
          }
        }, 
        {
          "value": 0.31296400,
          "n": 1,
          "scriptPubKey": {
            "asm": "OP_DUP OP_HASH160 f587c8bdb4d9ae8f5bc28e1e1f71ff0d9008b7a7 OP_EQUALVERIFY OP_CHECKSIG",
            "hex": "76a914f587c8bdb4d9ae8f5bc28e1e1f71ff0d9008b7a788ac",
            "reqSigs": 1,
            "type": "pubkeyhash",
            "addresses": [
              "LhcCUfBvXHjEhVg1HJohxKcQ873A1n7Vb1"
            ]
          }
        }
      ],
      "hex": "0100000001fd100fe1e3ecf42a696b49dcdd870848f7d29b4f96469a75486c163a7bb4b7c8000000006b48304502210088ffefc77d12c6e10b5ac93c1673c9eab110e87af53d677b09b005d1222e0c5d02200ff8643356c0e1b09a1bce6992a6677f1ccea7b303956a4266cf18eaeb86d017012102759359b223e93ea098bfc94283e5479e0c677f4372792cae21f7ff16d85de237ffffffff02a859ef09000000001976a914e8e0eb56d48b6152053c3745352939ce7edfd92b88ac908bdd01000000001976a914f587c8bdb4d9ae8f5bc28e1e1f71ff0d9008b7a788ac00000000"
    }
  ],
  "time": 1517262251,
  "mediantime": 1517261820,
  "nonce": 189595608,
  "bits": "1a042eae",
  "difficulty": 4011378.762614286,
  "chainwork": "000000000000000000000000000000000000000000000033dc6ffe1073dd5fea",
  "previousblockhash": "1d04efc9daca233a558590b989fd55dc7defe3d9afd4057ce56fea2e402bb359",
  "nextblockhash": "9a443802c0c5ca272f2ed4f0439dbd72d437eddc644ed6c992af1276298af013"
}
