{
  "hash": "a68250951b051aa73d7b51305fe2508e0938ed27333c1de0a7fa042db0714628",
  "confirmations": 2744,
  "strippedsize": 1180,
  "size": 1216,
  "weight": 4756,
  "height": 1358251,
  "version": 536870912,
  "versionHex": "20000000",
  "merkleroot": "050c338680ddbe5c7f8344c65c2e63e2defe6df18b4af9dad3af622106dc54d0",
  "tx": [
    {
      "txid": "915a821d3ea0933d8d6e83ffd56786948dfa64e428c96dfd05f8d2b51f3f28e7",
      "hash": "99dfd6e3bf41489340f48f7ff2dd2d6e77717fe2b6a6f3684867f9e7981fcbcf",
      "version": 1,
      "size": 243,
      "vsize": 216,
      "locktime": 0,
      "vin": [
        {
          "coinbase": "03abb9140418576d5afabe6d6dd6884541d5cbd2282827c0d7a838c10fa9cdb2fcfde3dd9c7f1103884b8aa479100000000000000008480df677040000000c2f305854494452525044552f",
          "sequence": 0
        }
      ],
      "vout": [
        {
          "value": 25.01056600,
          "n": 0,
          "scriptPubKey": {
            "asm": "OP_DUP OP_HASH160 81308472f5a29a68cec40cbb4cd3f4be72094456 OP_EQUALVERIFY OP_CHECKSIG",
            "hex": "76a91481308472f5a29a68cec40cbb4cd3f4be7209445688ac",
            "reqSigs": 1,
            "type": "pubkeyhash",
            "addresses": [
              "LX13Z1HZKVzRDabi8CsPdGhp7YbC7Q8qtn"
            ]
          }
        }, 
        {
          "value": 0.00000000,
          "n": 1,
          "scriptPubKey": {
            "asm": "OP_RETURN aa21a9edd63f87450ce287271cd5cb30c9cf12fda98b32365042f3bf6a416d5b523affbf",
            "hex": "6a24aa21a9edd63f87450ce287271cd5cb30c9cf12fda98b32365042f3bf6a416d5b523affbf",
            "type": "nulldata"
          }
        }
      ],
      "hex": "010000000001010000000000000000000000000000000000000000000000000000000000000000ffffffff4b03abb9140418576d5afabe6d6dd6884541d5cbd2282827c0d7a838c10fa9cdb2fcfde3dd9c7f1103884b8aa479100000000000000008480df677040000000c2f305854494452525044552f000000000258181395000000001976a91481308472f5a29a68cec40cbb4cd3f4be7209445688ac0000000000000000266a24aa21a9edd63f87450ce287271cd5cb30c9cf12fda98b32365042f3bf6a416d5b523affbf0120000000000000000000000000000000000000000000000000000000000000000000000000"
    }, 
    {
      "txid": "941d87bd594b4290bbcbafed06c92688fa1ccc951e58c2b802fd282c71606bf6",
      "hash": "941d87bd594b4290bbcbafed06c92688fa1ccc951e58c2b802fd282c71606bf6",
      "version": 1,
      "size": 666,
      "vsize": 666,
      "locktime": 0,
      "vin": [
        {
          "txid": "9a03e24d0b272c1a134b45f8d66e4ced9deed43ee96524f5a4784b5ec1600687",
          "vout": 0,
          "scriptSig": {
            "asm": "0 3045022100ff473c89596e8f0f91117aef624704aa9540d4b03b0dea446bb654b47ec9161402205cd2af1d3334b02924090423b6348b4fbe966c7174de396b8457ada0631c21f4[ALL] 3045022100de99c8c5fa2a4921f1ec581eb1b59df283d1e89f4c82041325635ba28668d27302205671e133fc6425992fa0a515a1c301b0381350308d1564e58354c4fc75049bbb[ALL] 5221035969629c998edbe997fbd4bbe7807735504d441884fe1d405c5e0a7aaaf83a7f210330fb9c93599a3e2fa4f7925112d5192128172e98470044a8c7cf8b9e8ce127612102692d2eeb3c3b8380df1db2f5bc59ad3b8393aa3322fd518c4091a56b81b6b02053ae",
            "hex": "00483045022100ff473c89596e8f0f91117aef624704aa9540d4b03b0dea446bb654b47ec9161402205cd2af1d3334b02924090423b6348b4fbe966c7174de396b8457ada0631c21f401483045022100de99c8c5fa2a4921f1ec581eb1b59df283d1e89f4c82041325635ba28668d27302205671e133fc6425992fa0a515a1c301b0381350308d1564e58354c4fc75049bbb014c695221035969629c998edbe997fbd4bbe7807735504d441884fe1d405c5e0a7aaaf83a7f210330fb9c93599a3e2fa4f7925112d5192128172e98470044a8c7cf8b9e8ce127612102692d2eeb3c3b8380df1db2f5bc59ad3b8393aa3322fd518c4091a56b81b6b02053ae"
          },
          "sequence": 4294967295
        }, 
        {
          "txid": "d48e991d74fd0523f1aa782193ecfcdc5227109d0adf220b42dbea888a292731",
          "vout": 1,
          "scriptSig": {
            "asm": "0 3044022043e3a5706ea7b96556dae8502c58abbce45ea31e0148b18307b10a2b27dd942f02206154141050914b2c80913839e5b041b063d7690c96472ef8a120a305be08d4b5[ALL] 304402201bf1f28b8da35a81a4a53e3266959fadaca2805efa74b11159f2d7866eb77d4f02200553e381c04b448878639e26d7dadc38e6353ebf5c1d75d2f0f802a690a4c0ad[ALL] 5221031c1d6d41650c03db0577c9ece4b1059635afee2f5825c5f865e1662e987e95ea210391a68ddc710e955543298cd583dab4723d56b5213f8b03e6aeed90651461c09f2102b5ea2ea5f33b8b3428f2fbc1ce24c3b6ef1d20ef6ed6b0944c9d9e222e0c55df53ae",
            "hex": "00473044022043e3a5706ea7b96556dae8502c58abbce45ea31e0148b18307b10a2b27dd942f02206154141050914b2c80913839e5b041b063d7690c96472ef8a120a305be08d4b50147304402201bf1f28b8da35a81a4a53e3266959fadaca2805efa74b11159f2d7866eb77d4f02200553e381c04b448878639e26d7dadc38e6353ebf5c1d75d2f0f802a690a4c0ad014c695221031c1d6d41650c03db0577c9ece4b1059635afee2f5825c5f865e1662e987e95ea210391a68ddc710e955543298cd583dab4723d56b5213f8b03e6aeed90651461c09f2102b5ea2ea5f33b8b3428f2fbc1ce24c3b6ef1d20ef6ed6b0944c9d9e222e0c55df53ae"
          },
          "sequence": 4294967295
        }
      ],
      "vout": [
        {
          "value": 0.23772721,
          "n": 0,
          "scriptPubKey": {
            "asm": "OP_HASH160 9eac87148b4f7f2a0eac7e0ebfc3dddc137bd2ab OP_EQUAL",
            "hex": "a9149eac87148b4f7f2a0eac7e0ebfc3dddc137bd2ab87",
            "reqSigs": 1,
            "type": "scripthash",
            "addresses": [
              "MNN9gAt5SwFfmjzfrAoxTn7WbagY4EKB1n"
            ]
          }
        }, 
        {
          "value": 0.79051383,
          "n": 1,
          "scriptPubKey": {
            "asm": "OP_DUP OP_HASH160 86b7322886085d99112f8b1462f056312450639a OP_EQUALVERIFY OP_CHECKSIG",
            "hex": "76a91486b7322886085d99112f8b1462f056312450639a88ac",
            "reqSigs": 1,
            "type": "pubkeyhash",
            "addresses": [
              "LXWGGbSsH14JrSF8gNvMidBTqGqXQVc3tH"
            ]
          }
        }
      ],
      "hex": "0100000002870660c15e4b78a4f52465e93ed4ee9ded4c6ed6f8454b131a2c270b4de2039a00000000fdfe0000483045022100ff473c89596e8f0f91117aef624704aa9540d4b03b0dea446bb654b47ec9161402205cd2af1d3334b02924090423b6348b4fbe966c7174de396b8457ada0631c21f401483045022100de99c8c5fa2a4921f1ec581eb1b59df283d1e89f4c82041325635ba28668d27302205671e133fc6425992fa0a515a1c301b0381350308d1564e58354c4fc75049bbb014c695221035969629c998edbe997fbd4bbe7807735504d441884fe1d405c5e0a7aaaf83a7f210330fb9c93599a3e2fa4f7925112d5192128172e98470044a8c7cf8b9e8ce127612102692d2eeb3c3b8380df1db2f5bc59ad3b8393aa3322fd518c4091a56b81b6b02053aeffffffff3127298a88eadb420b22df0a9d102752dcfcec932178aaf12305fd741d998ed401000000fc00473044022043e3a5706ea7b96556dae8502c58abbce45ea31e0148b18307b10a2b27dd942f02206154141050914b2c80913839e5b041b063d7690c96472ef8a120a305be08d4b50147304402201bf1f28b8da35a81a4a53e3266959fadaca2805efa74b11159f2d7866eb77d4f02200553e381c04b448878639e26d7dadc38e6353ebf5c1d75d2f0f802a690a4c0ad014c695221031c1d6d41650c03db0577c9ece4b1059635afee2f5825c5f865e1662e987e95ea210391a68ddc710e955543298cd583dab4723d56b5213f8b03e6aeed90651461c09f2102b5ea2ea5f33b8b3428f2fbc1ce24c3b6ef1d20ef6ed6b0944c9d9e222e0c55df53aeffffffff0231be6a010000000017a9149eac87148b4f7f2a0eac7e0ebfc3dddc137bd2ab87773ab604000000001976a91486b7322886085d99112f8b1462f056312450639a88ac00000000"
    }, 
    {
      "txid": "81016c1b7779468cf9ad442b010933d1d0ebd21d0379a7d2ae102e1dd493165f",
      "hash": "81016c1b7779468cf9ad442b010933d1d0ebd21d0379a7d2ae102e1dd493165f",
      "version": 2,
      "size": 226,
      "vsize": 226,
      "locktime": 1358248,
      "vin": [
        {
          "txid": "31aa03924c7e369230a41dcef389f84b8fea491f2f15ae1a8d3cd07de33d2888",
          "vout": 0,
          "scriptSig": {
            "asm": "30450221009fc8c81f18d205aff755b21add9eb4012969f56e4e5a4c36c179e4cb72f57f4202205efd3708770d57787883ed7baa7a5ef275dce0985923b89efb5b409c877e464d[ALL] 033c894d27109de93fab8a5c5544a5b7a19f5dd9215a3aab69b2aca7f374687a96",
            "hex": "4830450221009fc8c81f18d205aff755b21add9eb4012969f56e4e5a4c36c179e4cb72f57f4202205efd3708770d57787883ed7baa7a5ef275dce0985923b89efb5b409c877e464d0121033c894d27109de93fab8a5c5544a5b7a19f5dd9215a3aab69b2aca7f374687a96"
          },
          "sequence": 4294967294
        }
      ],
      "vout": [
        {
          "value": 0.06991617,
          "n": 0,
          "scriptPubKey": {
            "asm": "OP_DUP OP_HASH160 3c7d59a0a57211d658f75e37fab3a7534d286d32 OP_EQUALVERIFY OP_CHECKSIG",
            "hex": "76a9143c7d59a0a57211d658f75e37fab3a7534d286d3288ac",
            "reqSigs": 1,
            "type": "pubkeyhash",
            "addresses": [
              "LQjnyCcQQHZho6pBk5d1tWcsKSXFSC5Pab"
            ]
          }
        }, 
        {
          "value": 0.41392362,
          "n": 1,
          "scriptPubKey": {
            "asm": "OP_DUP OP_HASH160 1a23a760341afa3f4191227d2078933810fbcaa8 OP_EQUALVERIFY OP_CHECKSIG",
            "hex": "76a9141a23a760341afa3f4191227d2078933810fbcaa888ac",
            "reqSigs": 1,
            "type": "pubkeyhash",
            "addresses": [
              "LMcAYUGG8FjPRntv9tc3p7Soq3LrbxoBLM"
            ]
          }
        }
      ],
      "hex": "020000000188283de37dd03c8d1aae152f1f49ea8f4bf889f3ce1da43092367e4c9203aa31000000006b4830450221009fc8c81f18d205aff755b21add9eb4012969f56e4e5a4c36c179e4cb72f57f4202205efd3708770d57787883ed7baa7a5ef275dce0985923b89efb5b409c877e464d0121033c894d27109de93fab8a5c5544a5b7a19f5dd9215a3aab69b2aca7f374687a96feffffff0201af6a00000000001976a9143c7d59a0a57211d658f75e37fab3a7534d286d3288acea987702000000001976a9141a23a760341afa3f4191227d2078933810fbcaa888aca8b91400"
    }
  ],
  "time": 1517115080,
  "mediantime": 1517114773,
  "nonce": 2061059600,
  "bits": "1a047f14",
  "difficulty": 3731199.183374282,
  "chainwork": "000000000000000000000000000000000000000000000032ee54cc0fa1e4be78",
  "previousblockhash": "2f7d62b45d04c257bf6e66708d513f45151f25f0a1a4cf22fe1046a8ceae1787",
  "nextblockhash": "74a3c8b19be381d06ea91d9308e47dfc317c67006b1d6e66916952eef7c8eb66"
}
