{
  "hash": "a694b88f3c5c95e59de4bd9f09d8203b99bce62cd9f1f7ac746719b9d3a50c9d",
  "confirmations": 1632,
  "strippedsize": 2858,
  "size": 2894,
  "weight": 11468,
  "height": 1359362,
  "version": 536870912,
  "versionHex": "20000000",
  "merkleroot": "3038ec472072d6f0a064b3613316380fb9e641ab7689fe0d8cb817db2cbf972e",
  "tx": [
    {
      "txid": "c7c5a138fb49e347bb2115893138476475985e9695096a810c40f489551db37f",
      "hash": "cae0949ba242af29ea68861057a2866180a4ca8af4dd11861f31015d7859dcea",
      "version": 1,
      "size": 236,
      "vsize": 209,
      "locktime": 0,
      "vin": [
        {
          "coinbase": "0302be14045a6fb90a2cfabe6d6d6af836d6d1f872c73923439917d4a8600df4919d80dd922d438f5a4acf0827724000000000000000042f4c502f085c001582940d0000",
          "sequence": 4294967295
        }
      ],
      "vout": [
        {
          "value": 25.01503385,
          "n": 0,
          "scriptPubKey": {
            "asm": "OP_DUP OP_HASH160 57757ed2ecf2052ff3126c397aca7defb9ca2cec OP_EQUALVERIFY OP_CHECKSIG",
            "hex": "76a91457757ed2ecf2052ff3126c397aca7defb9ca2cec88ac",
            "reqSigs": 1,
            "type": "pubkeyhash",
            "addresses": [
              "LTCPodGk5FwcJaRzH9yKnwicxzFUbxp6tN"
            ]
          }
        }, 
        {
          "value": 0.00000000,
          "n": 1,
          "scriptPubKey": {
            "asm": "OP_RETURN aa21a9ed568557d2fc274610a1a47b2f390d8d316ba46e8aa2d1dd388b9e8cc2a731a9f6",
            "hex": "6a24aa21a9ed568557d2fc274610a1a47b2f390d8d316ba46e8aa2d1dd388b9e8cc2a731a9f6",
            "type": "nulldata"
          }
        }
      ],
      "hex": "010000000001010000000000000000000000000000000000000000000000000000000000000000ffffffff440302be14045a6fb90a2cfabe6d6d6af836d6d1f872c73923439917d4a8600df4919d80dd922d438f5a4acf0827724000000000000000042f4c502f085c001582940d0000ffffffff0299e91995000000001976a91457757ed2ecf2052ff3126c397aca7defb9ca2cec88ac0000000000000000266a24aa21a9ed568557d2fc274610a1a47b2f390d8d316ba46e8aa2d1dd388b9e8cc2a731a9f60120000000000000000000000000000000000000000000000000000000000000000000000000"
    }, 
    {
      "txid": "501bd4e11a2f762efad004010fbefdfde31e969e30b29b46a9ec57c8e64f926e",
      "hash": "501bd4e11a2f762efad004010fbefdfde31e969e30b29b46a9ec57c8e64f926e",
      "version": 1,
      "size": 372,
      "vsize": 372,
      "locktime": 0,
      "vin": [
        {
          "txid": "ad5a08cbe5c4a9d514924e119194731b700232a75ac70033fcec23a1412e56b7",
          "vout": 1,
          "scriptSig": {
            "asm": "0 3045022100ee7f130fad5f9c088ae814619d3551a41207d4a8210de048d33cccc3e7b750e502207e3c71319d357a32cfe192eb8d55d5940a907e65d648ba0b06ee174a0256f95a[ALL] 304402203277e03c067a45248e40e19bb473fef70169d504394eed0b5261150ac7aa6d63022004335fc8f0b686b1ddc025e884cfc5c18546431fc69668cd960d794c7e64f3d5[ALL] 522102670941bf2e68a2831af679e5cb7e832ff49cb81dc6dbd92e09ae3c9332c2805f210252cd5aa7dfd0276d403391a545d7546cf4d06ded27c6515ff8f47400c57b3f1821032341591cf30bebb0af98da7c72ef96278adc56e575d46ebda3c637066e71fd1353ae",
            "hex": "00483045022100ee7f130fad5f9c088ae814619d3551a41207d4a8210de048d33cccc3e7b750e502207e3c71319d357a32cfe192eb8d55d5940a907e65d648ba0b06ee174a0256f95a0147304402203277e03c067a45248e40e19bb473fef70169d504394eed0b5261150ac7aa6d63022004335fc8f0b686b1ddc025e884cfc5c18546431fc69668cd960d794c7e64f3d5014c69522102670941bf2e68a2831af679e5cb7e832ff49cb81dc6dbd92e09ae3c9332c2805f210252cd5aa7dfd0276d403391a545d7546cf4d06ded27c6515ff8f47400c57b3f1821032341591cf30bebb0af98da7c72ef96278adc56e575d46ebda3c637066e71fd1353ae"
          },
          "sequence": 4294967295
        }
      ],
      "vout": [
        {
          "value": 2.93517967,
          "n": 0,
          "scriptPubKey": {
            "asm": "OP_HASH160 9c886cdec8f3bad900fc59d47ee0f0211d5f6f49 OP_EQUAL",
            "hex": "a9149c886cdec8f3bad900fc59d47ee0f0211d5f6f4987",
            "reqSigs": 1,
            "type": "scripthash",
            "addresses": [
              "MNAq5MFahvot3YtFFA5n8PAu1NMPpoTVDW"
            ]
          }
        }, 
        {
          "value": 0.07745033,
          "n": 1,
          "scriptPubKey": {
            "asm": "OP_DUP OP_HASH160 67cc534328ef50a68ca7e4b86bd816f15c9d8513 OP_EQUALVERIFY OP_CHECKSIG",
            "hex": "76a91467cc534328ef50a68ca7e4b86bd816f15c9d851388ac",
            "reqSigs": 1,
            "type": "pubkeyhash",
            "addresses": [
              "LUgndjn59d1TyRP9fF7Vmus2XT1zQxwPUC"
            ]
          }
        }
      ],
      "hex": "0100000001b7562e41a123ecfc3300c75aa73202701b739491114e9214d5a9c4e5cb085aad01000000fdfd0000483045022100ee7f130fad5f9c088ae814619d3551a41207d4a8210de048d33cccc3e7b750e502207e3c71319d357a32cfe192eb8d55d5940a907e65d648ba0b06ee174a0256f95a0147304402203277e03c067a45248e40e19bb473fef70169d504394eed0b5261150ac7aa6d63022004335fc8f0b686b1ddc025e884cfc5c18546431fc69668cd960d794c7e64f3d5014c69522102670941bf2e68a2831af679e5cb7e832ff49cb81dc6dbd92e09ae3c9332c2805f210252cd5aa7dfd0276d403391a545d7546cf4d06ded27c6515ff8f47400c57b3f1821032341591cf30bebb0af98da7c72ef96278adc56e575d46ebda3c637066e71fd1353aeffffffff028fba7e110000000017a9149c886cdec8f3bad900fc59d47ee0f0211d5f6f4987092e7600000000001976a91467cc534328ef50a68ca7e4b86bd816f15c9d851388ac00000000"
    }, 
    {
      "txid": "c5e60360f603ae90cadcf3421042798e3b8a1663634b8e507555443b37e257a8",
      "hash": "c5e60360f603ae90cadcf3421042798e3b8a1663634b8e507555443b37e257a8",
      "version": 1,
      "size": 226,
      "vsize": 226,
      "locktime": 0,
      "vin": [
        {
          "txid": "a4019e77d5155d65138e4bd33dbdfc5e1a26790b788f4d175e94e783f6050039",
          "vout": 1,
          "scriptSig": {
            "asm": "3045022100f04ba167353d6f47e0509de9e03a7b591354157ba28120c6f586bc1280da611f022010b5b76f41fab6ecb3ea70bbfa8c1410c58958f7ca4b49ef458ba8b23125d616[ALL] 03718b9cf1bbff6f4dff9062745e2e9a43edc7c13085d59f143e44631352eb317a",
            "hex": "483045022100f04ba167353d6f47e0509de9e03a7b591354157ba28120c6f586bc1280da611f022010b5b76f41fab6ecb3ea70bbfa8c1410c58958f7ca4b49ef458ba8b23125d616012103718b9cf1bbff6f4dff9062745e2e9a43edc7c13085d59f143e44631352eb317a"
          },
          "sequence": 4294967295
        }
      ],
      "vout": [
        {
          "value": 2.94452605,
          "n": 0,
          "scriptPubKey": {
            "asm": "OP_DUP OP_HASH160 3655fbb41d04efe570e683964bd7ee3802fe152b OP_EQUALVERIFY OP_CHECKSIG",
            "hex": "76a9143655fbb41d04efe570e683964bd7ee3802fe152b88ac",
            "reqSigs": 1,
            "type": "pubkeyhash",
            "addresses": [
              "LQBFknoY71bT8rZuWb13mir4S6nR6Xtuhd"
            ]
          }
        }, 
        {
          "value": 1.23300885,
          "n": 1,
          "scriptPubKey": {
            "asm": "OP_DUP OP_HASH160 be3ca72cd69fc6710d520d25e99b04d431b67850 OP_EQUALVERIFY OP_CHECKSIG",
            "hex": "76a914be3ca72cd69fc6710d520d25e99b04d431b6785088ac",
            "reqSigs": 1,
            "type": "pubkeyhash",
            "addresses": [
              "LcZqJuZaoQ8yx6WcsHNtBz8HSJfoSLF14c"
            ]
          }
        }
      ],
      "hex": "0100000001390005f683e7945e174d8f780b79261a5efcbd3dd34b8e13655d15d5779e01a4010000006b483045022100f04ba167353d6f47e0509de9e03a7b591354157ba28120c6f586bc1280da611f022010b5b76f41fab6ecb3ea70bbfa8c1410c58958f7ca4b49ef458ba8b23125d616012103718b9cf1bbff6f4dff9062745e2e9a43edc7c13085d59f143e44631352eb317affffffff027dfd8c11000000001976a9143655fbb41d04efe570e683964bd7ee3802fe152b88ac156c5907000000001976a914be3ca72cd69fc6710d520d25e99b04d431b6785088ac00000000"
    }, 
    {
      "txid": "12e1c3c1d8f0b2a4d5c0da387b1cd6ab618ce525af4cae2e36821fe98deab87b",
      "hash": "12e1c3c1d8f0b2a4d5c0da387b1cd6ab618ce525af4cae2e36821fe98deab87b",
      "version": 1,
      "size": 226,
      "vsize": 226,
      "locktime": 0,
      "vin": [
        {
          "txid": "68147501609769d7a2372ea0930e2920824d77e6ba10f66b53eb393de23c99aa",
          "vout": 20,
          "scriptSig": {
            "asm": "3045022100d17aa3556aa80fbf5547571e1a09a8f7262dec50b5afb4cebab66c731193447002201745f983a07d096f41d2e7cb261a8df01d1c4bb4ec57737981c154898327f7f3[ALL] 022a099c737c61c644b3816af4a1422c02bdd4e847dc659fc397937449e8ad797c",
            "hex": "483045022100d17aa3556aa80fbf5547571e1a09a8f7262dec50b5afb4cebab66c731193447002201745f983a07d096f41d2e7cb261a8df01d1c4bb4ec57737981c154898327f7f30121022a099c737c61c644b3816af4a1422c02bdd4e847dc659fc397937449e8ad797c"
          },
          "sequence": 4294967294
        }
      ],
      "vout": [
        {
          "value": 0.37105800,
          "n": 0,
          "scriptPubKey": {
            "asm": "OP_DUP OP_HASH160 1e4127ce50051000f3f47b1a87c59cdd2a4ce0d6 OP_EQUALVERIFY OP_CHECKSIG",
            "hex": "76a9141e4127ce50051000f3f47b1a87c59cdd2a4ce0d688ac",
            "reqSigs": 1,
            "type": "pubkeyhash",
            "addresses": [
              "LMyvb3uMgH9zgbrtxTQSP77Te9K33oDBib"
            ]
          }
        }, 
        {
          "value": 1.00000000,
          "n": 1,
          "scriptPubKey": {
            "asm": "OP_DUP OP_HASH160 fe466c48903af3d5d83c7c69cc2915ed37942d97 OP_EQUALVERIFY OP_CHECKSIG",
            "hex": "76a914fe466c48903af3d5d83c7c69cc2915ed37942d9788ac",
            "reqSigs": 1,
            "type": "pubkeyhash",
            "addresses": [
              "LiQSG1gPiGnPhh3tpxKbXds7qpmp6NxW4x"
            ]
          }
        }
      ],
      "hex": "0100000001aa993ce23d39eb536bf610bae6774d8220290e93a02e37a2d769976001751468140000006b483045022100d17aa3556aa80fbf5547571e1a09a8f7262dec50b5afb4cebab66c731193447002201745f983a07d096f41d2e7cb261a8df01d1c4bb4ec57737981c154898327f7f30121022a099c737c61c644b3816af4a1422c02bdd4e847dc659fc397937449e8ad797cfeffffff0288303602000000001976a9141e4127ce50051000f3f47b1a87c59cdd2a4ce0d688ac00e1f505000000001976a914fe466c48903af3d5d83c7c69cc2915ed37942d9788ac00000000"
    }, 
    {
      "txid": "477b9f5de8aed8bd4c79890f425f225be4cfc79e674856886817127bc8d005f6",
      "hash": "477b9f5de8aed8bd4c79890f425f225be4cfc79e674856886817127bc8d005f6",
      "version": 1,
      "size": 850,
      "vsize": 850,
      "locktime": 0,
      "vin": [
        {
          "txid": "fc3c69a8d73adfb34ed25e5e3afdf9fce94674c189ad0de73875400a28e8869b",
          "vout": 0,
          "scriptSig": {
            "asm": "30450221009b76d52f44add0a2b0354ecaa14ea2e5afa9997fed7cd2c204b312c22d46083f022011257a0371e6763f5998b559df1487bb3387d6014198ca51b4693d49258e2f1a[ALL] 031d9960ac1e4056a5da78c748941b9c9ed38f33f048e77295174c72086c44c5a0",
            "hex": "4830450221009b76d52f44add0a2b0354ecaa14ea2e5afa9997fed7cd2c204b312c22d46083f022011257a0371e6763f5998b559df1487bb3387d6014198ca51b4693d49258e2f1a0121031d9960ac1e4056a5da78c748941b9c9ed38f33f048e77295174c72086c44c5a0"
          },
          "sequence": 4294967295
        }, 
        {
          "txid": "9058f209cc3e73a372ec3cc000071145fa35ac67e04aa5ab25ee134b305e7e4e",
          "vout": 0,
          "scriptSig": {
            "asm": "3045022100dc4c27937e0b15dde855d7fe00c05a0c6d1c4588956d1c8e16678df963556493022025f0dbeebac95174d452a9c0e8c0800e24f8d828351cef3dad18e3d891340067[ALL] 031d9960ac1e4056a5da78c748941b9c9ed38f33f048e77295174c72086c44c5a0",
            "hex": "483045022100dc4c27937e0b15dde855d7fe00c05a0c6d1c4588956d1c8e16678df963556493022025f0dbeebac95174d452a9c0e8c0800e24f8d828351cef3dad18e3d8913400670121031d9960ac1e4056a5da78c748941b9c9ed38f33f048e77295174c72086c44c5a0"
          },
          "sequence": 4294967295
        }, 
        {
          "txid": "e37889734d4e1f8e319b2c836b79c42c39ffb89f63ed2815cbf75aa1def69b3b",
          "vout": 1,
          "scriptSig": {
            "asm": "304402203e4cc7ca957e3d4a59fc88abc7b22cd6baf41467b2c2fe261dd0778d3c8dc4a10220460a97e7d6ad896c139d9c8e4c0baa05310517981fac4c07a57b7dd148a49a56[ALL] 03ee22409662579c86db7a30ed25cf8e33a28a750c6586710004b16ae7bd242e2f",
            "hex": "47304402203e4cc7ca957e3d4a59fc88abc7b22cd6baf41467b2c2fe261dd0778d3c8dc4a10220460a97e7d6ad896c139d9c8e4c0baa05310517981fac4c07a57b7dd148a49a56012103ee22409662579c86db7a30ed25cf8e33a28a750c6586710004b16ae7bd242e2f"
          },
          "sequence": 4294967295
        }, 
        {
          "txid": "f0d13c0141ebd20bc964875e814aa70aae904391ba39411bf9fba1e37b1862cb",
          "vout": 0,
          "scriptSig": {
            "asm": "30450221009f01cfc07ac0e71b6565e040844f57709a4ffd86b338fb2ee03660f6ffcb1c55022035e2b140e7e68b70d0eaac97e9083724786d4f9682895e741318616cd328f6d9[ALL] 039512cecf686257a6c6d61b9b3bd478c3e193c97734ab7d5163e811579bcef75c",
            "hex": "4830450221009f01cfc07ac0e71b6565e040844f57709a4ffd86b338fb2ee03660f6ffcb1c55022035e2b140e7e68b70d0eaac97e9083724786d4f9682895e741318616cd328f6d90121039512cecf686257a6c6d61b9b3bd478c3e193c97734ab7d5163e811579bcef75c"
          },
          "sequence": 4294967295
        }, 
        {
          "txid": "f277ce0eb878716bedc1ad1d5d12042099cfd481928fd923f660fc22e214cf07",
          "vout": 0,
          "scriptSig": {
            "asm": "304402200d60072103c579c7cc284ea45f994c4b05ae579250baf4375f6d5733bdead4a30220607ffe6a56b0320f17542df5996c31e4503346bd66b363d5bb9443c9a8a08523[ALL] 034fc8c63f1a7f836753d096e953625ab7675857c39ac27ad55a1fa7c049cac18a",
            "hex": "47304402200d60072103c579c7cc284ea45f994c4b05ae579250baf4375f6d5733bdead4a30220607ffe6a56b0320f17542df5996c31e4503346bd66b363d5bb9443c9a8a085230121034fc8c63f1a7f836753d096e953625ab7675857c39ac27ad55a1fa7c049cac18a"
          },
          "sequence": 4294967295
        }
      ],
      "vout": [
        {
          "value": 0.71316155,
          "n": 0,
          "scriptPubKey": {
            "asm": "OP_DUP OP_HASH160 864858361d7ee9bb9b8ee11451ecfd6f305ebe2a OP_EQUALVERIFY OP_CHECKSIG",
            "hex": "76a914864858361d7ee9bb9b8ee11451ecfd6f305ebe2a88ac",
            "reqSigs": 1,
            "type": "pubkeyhash",
            "addresses": [
              "LXTyUWPbVxbhdpjuTdLx5bB41JVQtPuryt"
            ]
          }
        }, 
        {
          "value": 4.34423533,
          "n": 1,
          "scriptPubKey": {
            "asm": "OP_DUP OP_HASH160 598889702b5ae9cb31e356a99333c79d66290968 OP_EQUALVERIFY OP_CHECKSIG",
            "hex": "76a914598889702b5ae9cb31e356a99333c79d6629096888ac",
            "reqSigs": 1,
            "type": "pubkeyhash",
            "addresses": [
              "LTPMy2uzUNQYgg3991uPgYfJnj4jC4wTVA"
            ]
          }
        }, 
        {
          "value": 4.35996662,
          "n": 2,
          "scriptPubKey": {
            "asm": "OP_DUP OP_HASH160 c6e3836c2f4cd8f9c53e32813ded99ac0ce001f1 OP_EQUALVERIFY OP_CHECKSIG",
            "hex": "76a914c6e3836c2f4cd8f9c53e32813ded99ac0ce001f188ac",
            "reqSigs": 1,
            "type": "pubkeyhash",
            "addresses": [
              "LdMac6qdwFnBCVXN96dvoPjzbcE36gzs64"
            ]
          }
        }
      ],
      "hex": "01000000059b86e8280a407538e70dad89c17446e9fcf9fd3a5e5ed24eb3df3ad7a8693cfc000000006b4830450221009b76d52f44add0a2b0354ecaa14ea2e5afa9997fed7cd2c204b312c22d46083f022011257a0371e6763f5998b559df1487bb3387d6014198ca51b4693d49258e2f1a0121031d9960ac1e4056a5da78c748941b9c9ed38f33f048e77295174c72086c44c5a0ffffffff4e7e5e304b13ee25aba54ae067ac35fa45110700c03cec72a3733ecc09f25890000000006b483045022100dc4c27937e0b15dde855d7fe00c05a0c6d1c4588956d1c8e16678df963556493022025f0dbeebac95174d452a9c0e8c0800e24f8d828351cef3dad18e3d8913400670121031d9960ac1e4056a5da78c748941b9c9ed38f33f048e77295174c72086c44c5a0ffffffff3b9bf6dea15af7cb1528ed639fb8ff392cc4796b832c9b318e1f4e4d738978e3010000006a47304402203e4cc7ca957e3d4a59fc88abc7b22cd6baf41467b2c2fe261dd0778d3c8dc4a10220460a97e7d6ad896c139d9c8e4c0baa05310517981fac4c07a57b7dd148a49a56012103ee22409662579c86db7a30ed25cf8e33a28a750c6586710004b16ae7bd242e2fffffffffcb62187be3a1fbf91b4139ba914390ae0aa74a815e8764c90bd2eb41013cd1f0000000006b4830450221009f01cfc07ac0e71b6565e040844f57709a4ffd86b338fb2ee03660f6ffcb1c55022035e2b140e7e68b70d0eaac97e9083724786d4f9682895e741318616cd328f6d90121039512cecf686257a6c6d61b9b3bd478c3e193c97734ab7d5163e811579bcef75cffffffff07cf14e222fc60f623d98f9281d4cf992004125d1dadc1ed6b7178b80ece77f2000000006a47304402200d60072103c579c7cc284ea45f994c4b05ae579250baf4375f6d5733bdead4a30220607ffe6a56b0320f17542df5996c31e4503346bd66b363d5bb9443c9a8a085230121034fc8c63f1a7f836753d096e953625ab7675857c39ac27ad55a1fa7c049cac18affffffff03bb324004000000001976a914864858361d7ee9bb9b8ee11451ecfd6f305ebe2a88acedc6e419000000001976a914598889702b5ae9cb31e356a99333c79d6629096888acf6c7fc19000000001976a914c6e3836c2f4cd8f9c53e32813ded99ac0ce001f188ac00000000"
    }, 
    {
      "txid": "9c4d97c920c3fd69890596c861564da8cf5de50a5594bdd5ec36a8b4c6b37f90",
      "hash": "9c4d97c920c3fd69890596c861564da8cf5de50a5594bdd5ec36a8b4c6b37f90",
      "version": 1,
      "size": 225,
      "vsize": 225,
      "locktime": 0,
      "vin": [
        {
          "txid": "6118e455809bd29a57cfbee83efbfcdf2e6405b46bc0ba5236d407cf2a6845ad",
          "vout": 0,
          "scriptSig": {
            "asm": "30440220362cd2a7dc28d6e5d4eb1587ffe42982f1228a93a07ab77efcef76a701ecd09d02204014e247e918ed8d1f42bc71e05503256995774afa2ae3f50589520e6d993835[ALL] 03c1e64f4ccc2966a82161955f7c38bd6694e32a6a9ac685e824d9e623606f9930",
            "hex": "4730440220362cd2a7dc28d6e5d4eb1587ffe42982f1228a93a07ab77efcef76a701ecd09d02204014e247e918ed8d1f42bc71e05503256995774afa2ae3f50589520e6d993835012103c1e64f4ccc2966a82161955f7c38bd6694e32a6a9ac685e824d9e623606f9930"
          },
          "sequence": 4294967295
        }
      ],
      "vout": [
        {
          "value": 0.00721873,
          "n": 0,
          "scriptPubKey": {
            "asm": "OP_DUP OP_HASH160 08fcd1093059b4a3e70efaeaa578b00e20f8dfd1 OP_EQUALVERIFY OP_CHECKSIG",
            "hex": "76a91408fcd1093059b4a3e70efaeaa578b00e20f8dfd188ac",
            "reqSigs": 1,
            "type": "pubkeyhash",
            "addresses": [
              "LL3UXkQkkadK9RdFZsvGxXnVNFBDKMK6jy"
            ]
          }
        }, 
        {
          "value": 0.11173184,
          "n": 1,
          "scriptPubKey": {
            "asm": "OP_DUP OP_HASH160 5607c97d1e10768d8450bc47559c6e28bed95423 OP_EQUALVERIFY OP_CHECKSIG",
            "hex": "76a9145607c97d1e10768d8450bc47559c6e28bed9542388ac",
            "reqSigs": 1,
            "type": "pubkeyhash",
            "addresses": [
              "LT4qhmLSrZrwZHZRfm5gor33t3Q6qyQekj"
            ]
          }
        }
      ],
      "hex": "0100000001ad45682acf07d43652bac06bb405642edffcfb3ee8becf579ad29b8055e41861000000006a4730440220362cd2a7dc28d6e5d4eb1587ffe42982f1228a93a07ab77efcef76a701ecd09d02204014e247e918ed8d1f42bc71e05503256995774afa2ae3f50589520e6d993835012103c1e64f4ccc2966a82161955f7c38bd6694e32a6a9ac685e824d9e623606f9930ffffffff02d1030b00000000001976a91408fcd1093059b4a3e70efaeaa578b00e20f8dfd188ac407daa00000000001976a9145607c97d1e10768d8450bc47559c6e28bed9542388ac00000000"
    }, 
    {
      "txid": "cc415ef810617ec5aba33da207f0651ac02967c552300dc1fad0334f7dfda5f0",
      "hash": "cc415ef810617ec5aba33da207f0651ac02967c552300dc1fad0334f7dfda5f0",
      "version": 1,
      "size": 226,
      "vsize": 226,
      "locktime": 0,
      "vin": [
        {
          "txid": "476fab7bd977c1a720afaf0b20f4f49bf459e1769c299a250e64a4ef0db0cbe1",
          "vout": 0,
          "scriptSig": {
            "asm": "3045022100cfd4aef3f3b5d18dfb7c91cde92820b36849c4ff7eeadf53f0fff0ff52ac922202206b15782948bdbd319c38c64b9c969298e431be90625ddf1a361d955b40b41e06[ALL] 03ada985142d61a71687c6efd31df9c99452d9c355d4fcb45f37ebdaad78dd95fc",
            "hex": "483045022100cfd4aef3f3b5d18dfb7c91cde92820b36849c4ff7eeadf53f0fff0ff52ac922202206b15782948bdbd319c38c64b9c969298e431be90625ddf1a361d955b40b41e06012103ada985142d61a71687c6efd31df9c99452d9c355d4fcb45f37ebdaad78dd95fc"
          },
          "sequence": 4294967295
        }
      ],
      "vout": [
        {
          "value": 0.17059083,
          "n": 0,
          "scriptPubKey": {
            "asm": "OP_DUP OP_HASH160 268f358580f0fae10c830bc488a1c2f0c525f9cc OP_EQUALVERIFY OP_CHECKSIG",
            "hex": "76a914268f358580f0fae10c830bc488a1c2f0c525f9cc88ac",
            "reqSigs": 1,
            "type": "pubkeyhash",
            "addresses": [
              "LNjqVqrNbZJMtXdQab6XDtFMERN1kHhXYB"
            ]
          }
        }, 
        {
          "value": 0.79989096,
          "n": 1,
          "scriptPubKey": {
            "asm": "OP_DUP OP_HASH160 17bfc4878b86f392da8aafc847c6cdb004d46ba0 OP_EQUALVERIFY OP_CHECKSIG",
            "hex": "76a91417bfc4878b86f392da8aafc847c6cdb004d46ba088ac",
            "reqSigs": 1,
            "type": "pubkeyhash",
            "addresses": [
              "LMPXXsswpePfAN42dGrqLab3c8J38CLG7r"
            ]
          }
        }
      ],
      "hex": "0100000001e1cbb00defa4640e259a299c76e159f49bf4f4200bafaf20a7c177d97bab6f47000000006b483045022100cfd4aef3f3b5d18dfb7c91cde92820b36849c4ff7eeadf53f0fff0ff52ac922202206b15782948bdbd319c38c64b9c969298e431be90625ddf1a361d955b40b41e06012103ada985142d61a71687c6efd31df9c99452d9c355d4fcb45f37ebdaad78dd95fcffffffff020b4d0401000000001976a914268f358580f0fae10c830bc488a1c2f0c525f9cc88ac6889c404000000001976a91417bfc4878b86f392da8aafc847c6cdb004d46ba088ac00000000"
    }, 
    {
      "txid": "25febb63ced8b8aa7c4d30a243b92d6f6fcf668c1f5e6fd750be19e46133491e",
      "hash": "25febb63ced8b8aa7c4d30a243b92d6f6fcf668c1f5e6fd750be19e46133491e",
      "version": 1,
      "size": 226,
      "vsize": 226,
      "locktime": 0,
      "vin": [
        {
          "txid": "6250651464fb6507ceddf6378469f7858a6a9f2d84b4f2591aefbd74198ed12e",
          "vout": 1,
          "scriptSig": {
            "asm": "3045022100c89ed4b28c05e77a2c989cd3585329b55c1ad3c3d2fb4b9dd3d83c023aec3a980220166f44d5bc8ced11f3f6ed02a238b22cbba0d1b81b9145fc010900785e0134d0[ALL] 02f30299d1d7cb88de35291beb998f24aa269e6ece58ead17aba34d1ff5e418d74",
            "hex": "483045022100c89ed4b28c05e77a2c989cd3585329b55c1ad3c3d2fb4b9dd3d83c023aec3a980220166f44d5bc8ced11f3f6ed02a238b22cbba0d1b81b9145fc010900785e0134d0012102f30299d1d7cb88de35291beb998f24aa269e6ece58ead17aba34d1ff5e418d74"
          },
          "sequence": 4294967295
        }
      ],
      "vout": [
        {
          "value": 4.69287000,
          "n": 0,
          "scriptPubKey": {
            "asm": "OP_DUP OP_HASH160 3d667741cf55990787984d30ffe25c64a49d8fe0 OP_EQUALVERIFY OP_CHECKSIG",
            "hex": "76a9143d667741cf55990787984d30ffe25c64a49d8fe088ac",
            "reqSigs": 1,
            "type": "pubkeyhash",
            "addresses": [
              "LQpcENDUnxxaevJbDoTuqQ9dABtsntkxc2"
            ]
          }
        }, 
        {
          "value": 17.95630400,
          "n": 1,
          "scriptPubKey": {
            "asm": "OP_DUP OP_HASH160 bf681e1407ff0968e9cfa341c7fe97f4b0451823 OP_EQUALVERIFY OP_CHECKSIG",
            "hex": "76a914bf681e1407ff0968e9cfa341c7fe97f4b045182388ac",
            "reqSigs": 1,
            "type": "pubkeyhash",
            "addresses": [
              "Lcg244bkh9cwA4Q6o1J2T67uCkd5QefL4E"
            ]
          }
        }
      ],
      "hex": "01000000012ed18e1974bdef1a59f2b4842d9f6a8a85f7698437f6ddce0765fb6414655062010000006b483045022100c89ed4b28c05e77a2c989cd3585329b55c1ad3c3d2fb4b9dd3d83c023aec3a980220166f44d5bc8ced11f3f6ed02a238b22cbba0d1b81b9145fc010900785e0134d0012102f30299d1d7cb88de35291beb998f24aa269e6ece58ead17aba34d1ff5e418d74ffffffff0258c0f81b000000001976a9143d667741cf55990787984d30ffe25c64a49d8fe088ac4025076b000000001976a914bf681e1407ff0968e9cfa341c7fe97f4b045182388ac00000000"
    }, 
    {
      "txid": "8c981ba0460529169b9894ab93780a36b9fdee4c4996ed013be3d3698c576da1",
      "hash": "8c981ba0460529169b9894ab93780a36b9fdee4c4996ed013be3d3698c576da1",
      "version": 1,
      "size": 226,
      "vsize": 226,
      "locktime": 0,
      "vin": [
        {
          "txid": "acbfc8f4afb5da1e99316f156411ce3d7051fc65798136672494ee2dbc58d85f",
          "vout": 1,
          "scriptSig": {
            "asm": "3045022100d49cbaed24505ca2f11c227edcb64c8e1266ad33b6f53f3316e02219c482f1f002202b3f7ae2bce0b12ee975b2c146b9fbd4ff272ff02514bb15650007842dfbfd92[ALL] 024a1a43ae051a18130edc35c7baf0be0bad5eaa8a717376cba275b9b59ad93137",
            "hex": "483045022100d49cbaed24505ca2f11c227edcb64c8e1266ad33b6f53f3316e02219c482f1f002202b3f7ae2bce0b12ee975b2c146b9fbd4ff272ff02514bb15650007842dfbfd920121024a1a43ae051a18130edc35c7baf0be0bad5eaa8a717376cba275b9b59ad93137"
          },
          "sequence": 4294967295
        }
      ],
      "vout": [
        {
          "value": 3.99977400,
          "n": 0,
          "scriptPubKey": {
            "asm": "OP_DUP OP_HASH160 0a98efb84afa4d0a6b2d302dae1728e3721d7444 OP_EQUALVERIFY OP_CHECKSIG",
            "hex": "76a9140a98efb84afa4d0a6b2d302dae1728e3721d744488ac",
            "reqSigs": 1,
            "type": "pubkeyhash",
            "addresses": [
              "LLBzELcwAnF6g8m1xDALy6jvqKfvdPe4yz"
            ]
          }
        }, 
        {
          "value": 23.69892240,
          "n": 1,
          "scriptPubKey": {
            "asm": "OP_DUP OP_HASH160 279375effec8b0ae1aff4b541385a649dc3405a8 OP_EQUALVERIFY OP_CHECKSIG",
            "hex": "76a914279375effec8b0ae1aff4b541385a649dc3405a888ac",
            "reqSigs": 1,
            "type": "pubkeyhash",
            "addresses": [
              "LNqDGSeU9tdyxwMYTtJcxMbVocyxMqmHQp"
            ]
          }
        }
      ],
      "hex": "01000000015fd858bc2dee94246736817965fc51703dce1164156f31991edab5aff4c8bfac010000006b483045022100d49cbaed24505ca2f11c227edcb64c8e1266ad33b6f53f3316e02219c482f1f002202b3f7ae2bce0b12ee975b2c146b9fbd4ff272ff02514bb15650007842dfbfd920121024a1a43ae051a18130edc35c7baf0be0bad5eaa8a717376cba275b9b59ad93137ffffffff02b82bd717000000001976a9140a98efb84afa4d0a6b2d302dae1728e3721d744488ac90af418d000000001976a914279375effec8b0ae1aff4b541385a649dc3405a888ac00000000"
    }
  ],
  "time": 1517271306,
  "mediantime": 1517270833,
  "nonce": 17430620,
  "bits": "1a042eae",
  "difficulty": 4011378.762614286,
  "chainwork": "000000000000000000000000000000000000000000000033ef1659ae4b5d0586",
  "previousblockhash": "5e6c8672aa85b879b8e3b8f8541a597009be46b059511dd39d7d634dd193bec0",
  "nextblockhash": "85ba302f3d27607d4aade027d407c18f6d1bff8b1aeb226bc449f84ff28bff29"
}
