{
  "hash": "a7263179409d8d90ef2ce285f56f555ddf4c73ff7d53ba88e689de9925a01955",
  "confirmations": 3393,
  "strippedsize": 4064,
  "size": 4100,
  "weight": 16292,
  "height": 1357602,
  "version": 536870912,
  "versionHex": "20000000",
  "merkleroot": "1fb27e0938c49767f22c48dee65b47768956db0012f39aa3c385bb608b2dbc7c",
  "tx": [
    {
      "txid": "81622a572b4180a5c9992871475827ac927c580e5009a2a84f0ad1ee1a12b86c",
      "hash": "5fc362248a1d170a56c7e56ae63ccbb45a53b4b502e78853a065c96ad918df60",
      "version": 1,
      "size": 243,
      "vsize": 216,
      "locktime": 0,
      "vin": [
        {
          "coinbase": "0322b71404f0f46b5afabe6d6d159967be0ba007f5ab1ee99525238f93dc1fc70faa720dfce1169be9e92296231000000000000000084805459e5b0000000c2f4b574e4e53503236464b2f",
          "sequence": 0
        }
      ],
      "vout": [
        {
          "value": 25.01073798,
          "n": 0,
          "scriptPubKey": {
            "asm": "OP_DUP OP_HASH160 81308472f5a29a68cec40cbb4cd3f4be72094456 OP_EQUALVERIFY OP_CHECKSIG",
            "hex": "76a91481308472f5a29a68cec40cbb4cd3f4be7209445688ac",
            "reqSigs": 1,
            "type": "pubkeyhash",
            "addresses": [
              "LX13Z1HZKVzRDabi8CsPdGhp7YbC7Q8qtn"
            ]
          }
        }, 
        {
          "value": 0.00000000,
          "n": 1,
          "scriptPubKey": {
            "asm": "OP_RETURN aa21a9edd02f2d3e2fc2e13dfebef535e14ab1ac615590f72d3cc654489734bf8f6c4bbb",
            "hex": "6a24aa21a9edd02f2d3e2fc2e13dfebef535e14ab1ac615590f72d3cc654489734bf8f6c4bbb",
            "type": "nulldata"
          }
        }
      ],
      "hex": "010000000001010000000000000000000000000000000000000000000000000000000000000000ffffffff4b0322b71404f0f46b5afabe6d6d159967be0ba007f5ab1ee99525238f93dc1fc70faa720dfce1169be9e92296231000000000000000084805459e5b0000000c2f4b574e4e53503236464b2f0000000002865b1395000000001976a91481308472f5a29a68cec40cbb4cd3f4be7209445688ac0000000000000000266a24aa21a9edd02f2d3e2fc2e13dfebef535e14ab1ac615590f72d3cc654489734bf8f6c4bbb0120000000000000000000000000000000000000000000000000000000000000000000000000"
    }, 
    {
      "txid": "1763e5ac2514128b7ab64f9e18938afc00f23ea0831b3ebb0265273f779b386c",
      "hash": "1763e5ac2514128b7ab64f9e18938afc00f23ea0831b3ebb0265273f779b386c",
      "version": 1,
      "size": 225,
      "vsize": 225,
      "locktime": 0,
      "vin": [
        {
          "txid": "223a157c4d3877457fa3075b9a328741d3e0c9755a75563bf91a1719ff5b3e68",
          "vout": 1,
          "scriptSig": {
            "asm": "30440220138bde6a643938f774990d1e937142c9986871576faa1317b42f2ee9d7b09d1c02203cad575450ca2068164164babdfa3960918e6c14fe43f0928fd93613f9bbc1d6[ALL] 03045557468cb480ae3fdf7b18f7869def61be4e141fdfcba7f53ba667d2007c9a",
            "hex": "4730440220138bde6a643938f774990d1e937142c9986871576faa1317b42f2ee9d7b09d1c02203cad575450ca2068164164babdfa3960918e6c14fe43f0928fd93613f9bbc1d6012103045557468cb480ae3fdf7b18f7869def61be4e141fdfcba7f53ba667d2007c9a"
          },
          "sequence": 4294967295
        }
      ],
      "vout": [
        {
          "value": 0.99245978,
          "n": 0,
          "scriptPubKey": {
            "asm": "OP_DUP OP_HASH160 bc507ac279c3d7e4ab2031fd824b4ce5e0ae980b OP_EQUALVERIFY OP_CHECKSIG",
            "hex": "76a914bc507ac279c3d7e4ab2031fd824b4ce5e0ae980b88ac",
            "reqSigs": 1,
            "type": "pubkeyhash",
            "addresses": [
              "LcPfi6LnXyo1mL9yVijpy5zaPwXBaU3U39"
            ]
          }
        }, 
        {
          "value": 917.04366115,
          "n": 1,
          "scriptPubKey": {
            "asm": "OP_DUP OP_HASH160 8c184560f54552e065fe1a43a555ab79bb9fd40b OP_EQUALVERIFY OP_CHECKSIG",
            "hex": "76a9148c184560f54552e065fe1a43a555ab79bb9fd40b88ac",
            "reqSigs": 1,
            "type": "pubkeyhash",
            "addresses": [
              "LXzhwSyYhTxZt4piVs7KvYPAWKDdXvMTNo"
            ]
          }
        }
      ],
      "hex": "0100000001683e5bff19171af93b56755a75c9e0d34187329a5b07a37f4577384d7c153a22010000006a4730440220138bde6a643938f774990d1e937142c9986871576faa1317b42f2ee9d7b09d1c02203cad575450ca2068164164babdfa3960918e6c14fe43f0928fd93613f9bbc1d6012103045557468cb480ae3fdf7b18f7869def61be4e141fdfcba7f53ba667d2007c9affffffff029a5fea05000000001976a914bc507ac279c3d7e4ab2031fd824b4ce5e0ae980b88ac2394015a150000001976a9148c184560f54552e065fe1a43a555ab79bb9fd40b88ac00000000"
    }, 
    {
      "txid": "45f9e4ed703744b10cf16a8d9534cdbcfc6c4be4522e92c891c05a37a05684da",
      "hash": "45f9e4ed703744b10cf16a8d9534cdbcfc6c4be4522e92c891c05a37a05684da",
      "version": 1,
      "size": 225,
      "vsize": 225,
      "locktime": 0,
      "vin": [
        {
          "txid": "081620806dfc0224ba05560012452f8b9e6843db0b88ed4a6d721d2f6ba93cdd",
          "vout": 1,
          "scriptSig": {
            "asm": "304402200a3aef67015e7b7457a1b4676340d850c6f0798b2906dc9544d26b5380119c4a02203329f82e3f502b6404cefed2e68a1e7d5dd0797c311bd58383e74082259c5890[ALL] 03d9c3885957a47c63ae1c907ff8487aee2cfda35f2e93173d85e02d78b2e745e7",
            "hex": "47304402200a3aef67015e7b7457a1b4676340d850c6f0798b2906dc9544d26b5380119c4a02203329f82e3f502b6404cefed2e68a1e7d5dd0797c311bd58383e74082259c5890012103d9c3885957a47c63ae1c907ff8487aee2cfda35f2e93173d85e02d78b2e745e7"
          },
          "sequence": 4294967295
        }
      ],
      "vout": [
        {
          "value": 0.70000000,
          "n": 0,
          "scriptPubKey": {
            "asm": "OP_DUP OP_HASH160 75fa68fe894aa9e42187c92d73435966d41d611f OP_EQUALVERIFY OP_CHECKSIG",
            "hex": "76a91475fa68fe894aa9e42187c92d73435966d41d611f88ac",
            "reqSigs": 1,
            "type": "pubkeyhash",
            "addresses": [
              "LVymJTXy8iNzk2yfzU6qgr2hhutatSfW3o"
            ]
          }
        }, 
        {
          "value": 2.24048444,
          "n": 1,
          "scriptPubKey": {
            "asm": "OP_DUP OP_HASH160 d54d4ddcb87c61cb8ede5d9ace1085ce58414afa OP_EQUALVERIFY OP_CHECKSIG",
            "hex": "76a914d54d4ddcb87c61cb8ede5d9ace1085ce58414afa88ac",
            "reqSigs": 1,
            "type": "pubkeyhash",
            "addresses": [
              "LefnoFzg9yg16pdfitRZX4igACzqQPocXj"
            ]
          }
        }
      ],
      "hex": "0100000001dd3ca96b2f1d726d4aed880bdb43689e8b2f4512005605ba2402fc6d80201608010000006a47304402200a3aef67015e7b7457a1b4676340d850c6f0798b2906dc9544d26b5380119c4a02203329f82e3f502b6404cefed2e68a1e7d5dd0797c311bd58383e74082259c5890012103d9c3885957a47c63ae1c907ff8487aee2cfda35f2e93173d85e02d78b2e745e7ffffffff02801d2c04000000001976a91475fa68fe894aa9e42187c92d73435966d41d611f88ac3cb55a0d000000001976a914d54d4ddcb87c61cb8ede5d9ace1085ce58414afa88ac00000000"
    }, 
    {
      "txid": "caf2cd78eb9653c11ed120678f628185fa9712909d165383abff446cfec40c15",
      "hash": "caf2cd78eb9653c11ed120678f628185fa9712909d165383abff446cfec40c15",
      "version": 1,
      "size": 192,
      "vsize": 192,
      "locktime": 0,
      "vin": [
        {
          "txid": "538faa000710200a2da43074b10bfcce7cbf2132d7c3e41925ff84868a2cf78e",
          "vout": 8,
          "scriptSig": {
            "asm": "3045022100dc5259b8627846ee0ab7129fb28f419cc92090cea658528daf87d817882074ea02202f2faaee7928d887ff7115cda77a8d321cde3d2774a37a4ac919cf721a2be68e[ALL] 02427c21ca562e832fdb041a828793735b9a347eb519cb5b052113a523828f4fac",
            "hex": "483045022100dc5259b8627846ee0ab7129fb28f419cc92090cea658528daf87d817882074ea02202f2faaee7928d887ff7115cda77a8d321cde3d2774a37a4ac919cf721a2be68e012102427c21ca562e832fdb041a828793735b9a347eb519cb5b052113a523828f4fac"
          },
          "sequence": 4294967295
        }
      ],
      "vout": [
        {
          "value": 1.24574100,
          "n": 0,
          "scriptPubKey": {
            "asm": "OP_DUP OP_HASH160 b09013d980dd8e109075899c01caa79ccc5c6a5f OP_EQUALVERIFY OP_CHECKSIG",
            "hex": "76a914b09013d980dd8e109075899c01caa79ccc5c6a5f88ac",
            "reqSigs": 1,
            "type": "pubkeyhash",
            "addresses": [
              "LbKXnf7h18bN7HcG7gMXr8H2KcPyrTAJGh"
            ]
          }
        }
      ],
      "hex": "01000000018ef72c8a8684ff2519e4c3d73221bf7ccefc0bb17430a42d0a20100700aa8f53080000006b483045022100dc5259b8627846ee0ab7129fb28f419cc92090cea658528daf87d817882074ea02202f2faaee7928d887ff7115cda77a8d321cde3d2774a37a4ac919cf721a2be68e012102427c21ca562e832fdb041a828793735b9a347eb519cb5b052113a523828f4facffffffff0194d96c07000000001976a914b09013d980dd8e109075899c01caa79ccc5c6a5f88ac00000000"
    }, 
    {
      "txid": "2b512501609f721ccdd2f63884e0ed1bc574d7c23721d983b552dea9b8bfbe99",
      "hash": "2b512501609f721ccdd2f63884e0ed1bc574d7c23721d983b552dea9b8bfbe99",
      "version": 1,
      "size": 1260,
      "vsize": 1260,
      "locktime": 0,
      "vin": [
        {
          "txid": "d9ff61504388b3e5440d7f9b2f643889abb0d6db7b61ec155de8c562c98b8e11",
          "vout": 0,
          "scriptSig": {
            "asm": "3045022100e524161b85b751e9ac6a02fd5da49f5d47215450be283959552aa683e7ebceb7022072f9ba02e7eedfa8456cc0ea3abd3a125540060783028c84ac92d5b0cd185252[ALL] 028688b295a215319a0de458a3746328e47eec0a61f0a7b346607f9c18c0841b24",
            "hex": "483045022100e524161b85b751e9ac6a02fd5da49f5d47215450be283959552aa683e7ebceb7022072f9ba02e7eedfa8456cc0ea3abd3a125540060783028c84ac92d5b0cd1852520121028688b295a215319a0de458a3746328e47eec0a61f0a7b346607f9c18c0841b24"
          },
          "sequence": 4294967295
        }, 
        {
          "txid": "69258c93561009925a08c4b3207ff72f8d13fef545a00a1029945420a6328ae0",
          "vout": 1,
          "scriptSig": {
            "asm": "3045022100bf11996b86bd2bee7324a85ddccd63f7aecd9be9e0fa20cc5598f03a946f2e9b02201a80a606f1496ee164fcf1f52db535dd2b14beb2e91fde6f93f94b0a42f36439[ALL] 022215bbb7de428cbec6f1f3e0a7d1ddf388821f0af06cafda79b980ade33fb89d",
            "hex": "483045022100bf11996b86bd2bee7324a85ddccd63f7aecd9be9e0fa20cc5598f03a946f2e9b02201a80a606f1496ee164fcf1f52db535dd2b14beb2e91fde6f93f94b0a42f364390121022215bbb7de428cbec6f1f3e0a7d1ddf388821f0af06cafda79b980ade33fb89d"
          },
          "sequence": 4294967295
        }, 
        {
          "txid": "71d0f9da52dc308d182f55f98a34f764d47e333d5c954787ad0f6e83ff692c98",
          "vout": 0,
          "scriptSig": {
            "asm": "304502210082807beda43513c4466636c6cb6b8d97326f14efa283a659b9624a915e5b762e022022704a72413153ec6a6e3292593a8d1ccdc6efbb70a089c79207a209857f5ada[ALL] 0223774e261f5823288c6335b9bcda7ddf89d96859516f1071f5a3bd950a21722f",
            "hex": "48304502210082807beda43513c4466636c6cb6b8d97326f14efa283a659b9624a915e5b762e022022704a72413153ec6a6e3292593a8d1ccdc6efbb70a089c79207a209857f5ada01210223774e261f5823288c6335b9bcda7ddf89d96859516f1071f5a3bd950a21722f"
          },
          "sequence": 4294967295
        }, 
        {
          "txid": "04d83f3b1b2f00618a1b8b9806275a2105c24c26a29cb876ef2fa69c0054e4f3",
          "vout": 1,
          "scriptSig": {
            "asm": "3044022049781a0502d73b6494f59058259be029e51484f3f752dbc2ebacdc5b895fd32802202af456a3d9f0265e94999718f82baf6c9a8049cd16a3cc690b5ffc6e6f83c534[ALL] 03f42060f35f83d1778739b06a113bdfb3e86a86f37378eff45409bad394cfabba",
            "hex": "473044022049781a0502d73b6494f59058259be029e51484f3f752dbc2ebacdc5b895fd32802202af456a3d9f0265e94999718f82baf6c9a8049cd16a3cc690b5ffc6e6f83c534012103f42060f35f83d1778739b06a113bdfb3e86a86f37378eff45409bad394cfabba"
          },
          "sequence": 4294967295
        }, 
        {
          "txid": "77c5487f0e88bb18a30da3b802b4abe7385452375fec1406ed676f2f0d92c3c9",
          "vout": 1,
          "scriptSig": {
            "asm": "30450221009db5b239cb93550792fba016b368df8fb7dca889ace9782a078f6dd889af90ed022052490c6d019bf58c4e9c98bed7285afdc51c3c4b4ebd2efdb01fe95ab3402f54[ALL] 033656cf3e87cd299f2655dcb519e2d310eb981a7dfd9e201ef4373b1f33b07d45",
            "hex": "4830450221009db5b239cb93550792fba016b368df8fb7dca889ace9782a078f6dd889af90ed022052490c6d019bf58c4e9c98bed7285afdc51c3c4b4ebd2efdb01fe95ab3402f540121033656cf3e87cd299f2655dcb519e2d310eb981a7dfd9e201ef4373b1f33b07d45"
          },
          "sequence": 4294967295
        }, 
        {
          "txid": "c3adc77cf0a3c805a1c72b4da206f0682eee54c81456b80126c98060a4e87e25",
          "vout": 1,
          "scriptSig": {
            "asm": "304502210089aef9bac8a96c78b3fba449bfc3e8205b43a27598348cf2bded4f1ed47dbf2b02201c48f488568470f8f264b54b52799482a939235556976336c88af45d2cd0de23[ALL] 022e28cb8e3c5c5766336cf5ab6a15fcfb9c247440433e1cc8697c96285d8b794b",
            "hex": "48304502210089aef9bac8a96c78b3fba449bfc3e8205b43a27598348cf2bded4f1ed47dbf2b02201c48f488568470f8f264b54b52799482a939235556976336c88af45d2cd0de230121022e28cb8e3c5c5766336cf5ab6a15fcfb9c247440433e1cc8697c96285d8b794b"
          },
          "sequence": 4294967295
        }, 
        {
          "txid": "4061ac97a2102b781bda7a8cdc9b11fce27595dc31ea4984ba218d41214cd275",
          "vout": 1,
          "scriptSig": {
            "asm": "3044022059c64afbb180e19937484045add4a13c3016430399cb84ae0647d0247a212c3d02207eefb998c9ad47a96ca5b9ec2531386ee05933f489013c8b2539e7770a192e63[ALL] 0328c9ae635abf580c261c44815dc1aac309e16ff26250525b7e99951369d2b8c7",
            "hex": "473044022059c64afbb180e19937484045add4a13c3016430399cb84ae0647d0247a212c3d02207eefb998c9ad47a96ca5b9ec2531386ee05933f489013c8b2539e7770a192e6301210328c9ae635abf580c261c44815dc1aac309e16ff26250525b7e99951369d2b8c7"
          },
          "sequence": 4294967295
        }, 
        {
          "txid": "5a4c0f1a3f40c2d4ffcf4ff93f24adab2c6865d5d2614716121cecea0bae45a6",
          "vout": 0,
          "scriptSig": {
            "asm": "3045022100a894522d438891973c9f3d175c44a17253535f8a83ff8032ae050c03c80eda3e022009e09ab5fe3d8ec59ec17adc591b51988dc61cfb8d2a1faff46d13ae537ead9c[ALL] 03cb377d536f1c426ad9868d4cb84abe0dfcaea7c14027051c647c1c868c9b0e80",
            "hex": "483045022100a894522d438891973c9f3d175c44a17253535f8a83ff8032ae050c03c80eda3e022009e09ab5fe3d8ec59ec17adc591b51988dc61cfb8d2a1faff46d13ae537ead9c012103cb377d536f1c426ad9868d4cb84abe0dfcaea7c14027051c647c1c868c9b0e80"
          },
          "sequence": 4294967295
        }
      ],
      "vout": [
        {
          "value": 11.29900000,
          "n": 0,
          "scriptPubKey": {
            "asm": "OP_DUP OP_HASH160 a6497b87cd35025391b1d5eae379b8dbd4252535 OP_EQUALVERIFY OP_CHECKSIG",
            "hex": "76a914a6497b87cd35025391b1d5eae379b8dbd425253588ac",
            "reqSigs": 1,
            "type": "pubkeyhash",
            "addresses": [
              "LaPCTiKqmfAVnzHdaYXdyMHZToaN36M2Re"
            ]
          }
        }, 
        {
          "value": 0.75408320,
          "n": 1,
          "scriptPubKey": {
            "asm": "OP_DUP OP_HASH160 c6e3836c2f4cd8f9c53e32813ded99ac0ce001f1 OP_EQUALVERIFY OP_CHECKSIG",
            "hex": "76a914c6e3836c2f4cd8f9c53e32813ded99ac0ce001f188ac",
            "reqSigs": 1,
            "type": "pubkeyhash",
            "addresses": [
              "LdMac6qdwFnBCVXN96dvoPjzbcE36gzs64"
            ]
          }
        }
      ],
      "hex": "0100000008118e8bc962c5e85d15ec617bdbd6b0ab8938642f9b7f0d44e5b388435061ffd9000000006b483045022100e524161b85b751e9ac6a02fd5da49f5d47215450be283959552aa683e7ebceb7022072f9ba02e7eedfa8456cc0ea3abd3a125540060783028c84ac92d5b0cd1852520121028688b295a215319a0de458a3746328e47eec0a61f0a7b346607f9c18c0841b24ffffffffe08a32a620549429100aa045f5fe138d2ff77f20b3c4085a92091056938c2569010000006b483045022100bf11996b86bd2bee7324a85ddccd63f7aecd9be9e0fa20cc5598f03a946f2e9b02201a80a606f1496ee164fcf1f52db535dd2b14beb2e91fde6f93f94b0a42f364390121022215bbb7de428cbec6f1f3e0a7d1ddf388821f0af06cafda79b980ade33fb89dffffffff982c69ff836e0fad8747955c3d337ed464f7348af9552f188d30dc52daf9d071000000006b48304502210082807beda43513c4466636c6cb6b8d97326f14efa283a659b9624a915e5b762e022022704a72413153ec6a6e3292593a8d1ccdc6efbb70a089c79207a209857f5ada01210223774e261f5823288c6335b9bcda7ddf89d96859516f1071f5a3bd950a21722ffffffffff3e454009ca62fef76b89ca2264cc205215a2706988b1b8a61002f1b3b3fd804010000006a473044022049781a0502d73b6494f59058259be029e51484f3f752dbc2ebacdc5b895fd32802202af456a3d9f0265e94999718f82baf6c9a8049cd16a3cc690b5ffc6e6f83c534012103f42060f35f83d1778739b06a113bdfb3e86a86f37378eff45409bad394cfabbaffffffffc9c3920d2f6f67ed0614ec5f37525438e7abb402b8a30da318bb880e7f48c577010000006b4830450221009db5b239cb93550792fba016b368df8fb7dca889ace9782a078f6dd889af90ed022052490c6d019bf58c4e9c98bed7285afdc51c3c4b4ebd2efdb01fe95ab3402f540121033656cf3e87cd299f2655dcb519e2d310eb981a7dfd9e201ef4373b1f33b07d45ffffffff257ee8a46080c92601b85614c854ee2e68f006a24d2bc7a105c8a3f07cc7adc3010000006b48304502210089aef9bac8a96c78b3fba449bfc3e8205b43a27598348cf2bded4f1ed47dbf2b02201c48f488568470f8f264b54b52799482a939235556976336c88af45d2cd0de230121022e28cb8e3c5c5766336cf5ab6a15fcfb9c247440433e1cc8697c96285d8b794bffffffff75d24c21418d21ba8449ea31dc9575e2fc119bdc8c7ada1b782b10a297ac6140010000006a473044022059c64afbb180e19937484045add4a13c3016430399cb84ae0647d0247a212c3d02207eefb998c9ad47a96ca5b9ec2531386ee05933f489013c8b2539e7770a192e6301210328c9ae635abf580c261c44815dc1aac309e16ff26250525b7e99951369d2b8c7ffffffffa645ae0beaec1c12164761d2d565682cabad243ff94fcfffd4c2403f1a0f4c5a000000006b483045022100a894522d438891973c9f3d175c44a17253535f8a83ff8032ae050c03c80eda3e022009e09ab5fe3d8ec59ec17adc591b51988dc61cfb8d2a1faff46d13ae537ead9c012103cb377d536f1c426ad9868d4cb84abe0dfcaea7c14027051c647c1c868c9b0e80ffffffff02e0e75843000000001976a914a6497b87cd35025391b1d5eae379b8dbd425253588acc0a37e04000000001976a914c6e3836c2f4cd8f9c53e32813ded99ac0ce001f188ac00000000"
    }, 
    {
      "txid": "0d7b4b528c843f631715c71bfb0eecdf8893ca7be9342c9d291a4331b6282c78",
      "hash": "0d7b4b528c843f631715c71bfb0eecdf8893ca7be9342c9d291a4331b6282c78",
      "version": 1,
      "size": 225,
      "vsize": 225,
      "locktime": 0,
      "vin": [
        {
          "txid": "95723b933bf4c3e1a60bef7bc5b07f54ec352cf9fb1d73fda367be49e3ec5e80",
          "vout": 0,
          "scriptSig": {
            "asm": "304402204693e8ddd4393a1fa06577ecc877e44241330a7e6f5ac25f08aecdbe382b20bf02202cd0b207c8f77b32ddbaa4fd0b2b81ee60b524376a71f2355e45624c8a31a521[ALL] 032c375d07191c27aee14bfd5e111820b46dea81773fe0a68f3feec64c7dfe341f",
            "hex": "47304402204693e8ddd4393a1fa06577ecc877e44241330a7e6f5ac25f08aecdbe382b20bf02202cd0b207c8f77b32ddbaa4fd0b2b81ee60b524376a71f2355e45624c8a31a5210121032c375d07191c27aee14bfd5e111820b46dea81773fe0a68f3feec64c7dfe341f"
          },
          "sequence": 4294967295
        }
      ],
      "vout": [
        {
          "value": 0.01873395,
          "n": 0,
          "scriptPubKey": {
            "asm": "OP_DUP OP_HASH160 534f2403c982516e87523dcdd6939b0326bfdd02 OP_EQUALVERIFY OP_CHECKSIG",
            "hex": "76a914534f2403c982516e87523dcdd6939b0326bfdd0288ac",
            "reqSigs": 1,
            "type": "pubkeyhash",
            "addresses": [
              "LSpT9vfF99s1DqbPhZdYM8y1zSi9VrEA3H"
            ]
          }
        }, 
        {
          "value": 0.11468185,
          "n": 1,
          "scriptPubKey": {
            "asm": "OP_DUP OP_HASH160 75d80038142e39934b0338b58ade56bf6920c803 OP_EQUALVERIFY OP_CHECKSIG",
            "hex": "76a91475d80038142e39934b0338b58ade56bf6920c80388ac",
            "reqSigs": 1,
            "type": "pubkeyhash",
            "addresses": [
              "LVy45fDbfDVkfLyBYnHEqgSgMFxm6UcwGa"
            ]
          }
        }
      ],
      "hex": "0100000001805eece349be67a3fd731dfbf92c35ec547fb0c57bef0ba6e1c3f43b933b7295000000006a47304402204693e8ddd4393a1fa06577ecc877e44241330a7e6f5ac25f08aecdbe382b20bf02202cd0b207c8f77b32ddbaa4fd0b2b81ee60b524376a71f2355e45624c8a31a5210121032c375d07191c27aee14bfd5e111820b46dea81773fe0a68f3feec64c7dfe341fffffffff02f3951c00000000001976a914534f2403c982516e87523dcdd6939b0326bfdd0288ac99fdae00000000001976a91475d80038142e39934b0338b58ade56bf6920c80388ac00000000"
    }, 
    {
      "txid": "440fd2ce607b2b3acd130245c7519255743f511edb1b79886b8e2437606944ea",
      "hash": "440fd2ce607b2b3acd130245c7519255743f511edb1b79886b8e2437606944ea",
      "version": 2,
      "size": 225,
      "vsize": 225,
      "locktime": 1357554,
      "vin": [
        {
          "txid": "0c57393fb475eb8779b893ef6064b258dc7a64808f3e63e974ef7030681d063a",
          "vout": 1,
          "scriptSig": {
            "asm": "3044022016fa95d0e17fcb83927a975f1e7c2dcf55da8b632fc13968a2ad328a2a1138c4022070744f699bfc9f5fe05b3438ee4907853f18b92900f6ee00873cd794770e603e[ALL] 029e7002655f09046aa5e4ada7970cec23a1a1a96ed5a05748134fed1c850851df",
            "hex": "473044022016fa95d0e17fcb83927a975f1e7c2dcf55da8b632fc13968a2ad328a2a1138c4022070744f699bfc9f5fe05b3438ee4907853f18b92900f6ee00873cd794770e603e0121029e7002655f09046aa5e4ada7970cec23a1a1a96ed5a05748134fed1c850851df"
          },
          "sequence": 4294967294
        }
      ],
      "vout": [
        {
          "value": 3.59990800,
          "n": 0,
          "scriptPubKey": {
            "asm": "OP_DUP OP_HASH160 135c11f021aee32d48c723c9d6a341dca8125bc9 OP_EQUALVERIFY OP_CHECKSIG",
            "hex": "76a914135c11f021aee32d48c723c9d6a341dca8125bc988ac",
            "reqSigs": 1,
            "type": "pubkeyhash",
            "addresses": [
              "LLzKPzryGAVxuBhHGDX96noqv9UpGkLniX"
            ]
          }
        }, 
        {
          "value": 19.68950119,
          "n": 1,
          "scriptPubKey": {
            "asm": "OP_DUP OP_HASH160 7755d6025370aba49b273dace3ecad95b5e82ac2 OP_EQUALVERIFY OP_CHECKSIG",
            "hex": "76a9147755d6025370aba49b273dace3ecad95b5e82ac288ac",
            "reqSigs": 1,
            "type": "pubkeyhash",
            "addresses": [
              "LW6wW2d7NPrRLj3B3RUWxQ8Rf8fQNzWp3P"
            ]
          }
        }
      ],
      "hex": "02000000013a061d683070ef74e9633e8f80647adc58b26460ef93b87987eb75b43f39570c010000006a473044022016fa95d0e17fcb83927a975f1e7c2dcf55da8b632fc13968a2ad328a2a1138c4022070744f699bfc9f5fe05b3438ee4907853f18b92900f6ee00873cd794770e603e0121029e7002655f09046aa5e4ada7970cec23a1a1a96ed5a05748134fed1c850851dffeffffff0210067515000000001976a914135c11f021aee32d48c723c9d6a341dca8125bc988ac67cb5b75000000001976a9147755d6025370aba49b273dace3ecad95b5e82ac288acf2b61400"
    }, 
    {
      "txid": "e28c94d9b801bbeafee00e2d80d22b3bed530cd419e075e18a8ee293e6a1f6cc",
      "hash": "e28c94d9b801bbeafee00e2d80d22b3bed530cd419e075e18a8ee293e6a1f6cc",
      "version": 2,
      "size": 520,
      "vsize": 520,
      "locktime": 1357560,
      "vin": [
        {
          "txid": "598e81e93d6ca3430838a55eb39e2f6088cf6d4dcafc3e097487ff3b22043962",
          "vout": 1,
          "scriptSig": {
            "asm": "3045022100e60534dbd11ef920b58bf117a52a38b4f98e3b8c981e0c383daef5333d092e1c02204eaa38ec0dfc07482f4b13e649d77153b69850e5537841a00eb5a1284d267c9e[ALL] 03ffee347a16259f7e4b1777fc792e93982dbf4e497c5d60d523191bb3db460a88",
            "hex": "483045022100e60534dbd11ef920b58bf117a52a38b4f98e3b8c981e0c383daef5333d092e1c02204eaa38ec0dfc07482f4b13e649d77153b69850e5537841a00eb5a1284d267c9e012103ffee347a16259f7e4b1777fc792e93982dbf4e497c5d60d523191bb3db460a88"
          },
          "sequence": 4294967294
        }, 
        {
          "txid": "dd60f6e6013cccdd161120cfbf98387486b7952e2e62222cf5f659933b3f5196",
          "vout": 1,
          "scriptSig": {
            "asm": "304402205c67e54717695513a88c7d557f02025912aa9e5017a9d7de087937747b0397c00220359306408a0ebaac54aa513aafca725e5c033fd2d24f280627497e6bc8d450a9[ALL] 02c053fac2c7a5d09fdb3398151204810e006b28082aeffab4d30c07abebae6338",
            "hex": "47304402205c67e54717695513a88c7d557f02025912aa9e5017a9d7de087937747b0397c00220359306408a0ebaac54aa513aafca725e5c033fd2d24f280627497e6bc8d450a9012102c053fac2c7a5d09fdb3398151204810e006b28082aeffab4d30c07abebae6338"
          },
          "sequence": 4294967294
        }, 
        {
          "txid": "bb4a88fad55e5a29e4473246fcf5a246b67c9ad4635704e679b3bd49c62448f8",
          "vout": 1,
          "scriptSig": {
            "asm": "304402201ab2192126ea375e410fab2faacc2ae6de0b24ec5985c33ec37d30850ac96fa8022061884bc42c4e4c5dcc8d8dc36c9645133c205436f2e2f90d86022823930ceb9c[ALL] 02a75178ed3e90eb9bc43e72a31793b584758ba1f276e026f0da641943519be495",
            "hex": "47304402201ab2192126ea375e410fab2faacc2ae6de0b24ec5985c33ec37d30850ac96fa8022061884bc42c4e4c5dcc8d8dc36c9645133c205436f2e2f90d86022823930ceb9c012102a75178ed3e90eb9bc43e72a31793b584758ba1f276e026f0da641943519be495"
          },
          "sequence": 4294967294
        }
      ],
      "vout": [
        {
          "value": 0.58500000,
          "n": 0,
          "scriptPubKey": {
            "asm": "OP_DUP OP_HASH160 77f72241af1763a5234467949530d97c405ed1b2 OP_EQUALVERIFY OP_CHECKSIG",
            "hex": "76a91477f72241af1763a5234467949530d97c405ed1b288ac",
            "reqSigs": 1,
            "type": "pubkeyhash",
            "addresses": [
              "LWAGjCWk2mQX1yhDyWxLx6UwnxrEkbuEjD"
            ]
          }
        }, 
        {
          "value": 0.00951454,
          "n": 1,
          "scriptPubKey": {
            "asm": "OP_DUP OP_HASH160 164858d1dfa3e392df676a48a0fdaa12e27cf915 OP_EQUALVERIFY OP_CHECKSIG",
            "hex": "76a914164858d1dfa3e392df676a48a0fdaa12e27cf91588ac",
            "reqSigs": 1,
            "type": "pubkeyhash",
            "addresses": [
              "LMFmoBqYcnkjQy99CG3ZioezgMECob69Kh"
            ]
          }
        }
      ],
      "hex": "0200000003623904223bff8774093efcca4d6dcf88602f9eb35ea5380843a36c3de9818e59010000006b483045022100e60534dbd11ef920b58bf117a52a38b4f98e3b8c981e0c383daef5333d092e1c02204eaa38ec0dfc07482f4b13e649d77153b69850e5537841a00eb5a1284d267c9e012103ffee347a16259f7e4b1777fc792e93982dbf4e497c5d60d523191bb3db460a88feffffff96513f3b9359f6f52c22622e2e95b786743898bfcf201116ddcc3c01e6f660dd010000006a47304402205c67e54717695513a88c7d557f02025912aa9e5017a9d7de087937747b0397c00220359306408a0ebaac54aa513aafca725e5c033fd2d24f280627497e6bc8d450a9012102c053fac2c7a5d09fdb3398151204810e006b28082aeffab4d30c07abebae6338fefffffff84824c649bdb379e6045763d49a7cb646a2f5fc463247e4295a5ed5fa884abb010000006a47304402201ab2192126ea375e410fab2faacc2ae6de0b24ec5985c33ec37d30850ac96fa8022061884bc42c4e4c5dcc8d8dc36c9645133c205436f2e2f90d86022823930ceb9c012102a75178ed3e90eb9bc43e72a31793b584758ba1f276e026f0da641943519be495feffffff02a0a37c03000000001976a91477f72241af1763a5234467949530d97c405ed1b288ac9e840e00000000001976a914164858d1dfa3e392df676a48a0fdaa12e27cf91588acf8b61400"
    }, 
    {
      "txid": "ef311b200b9c1c1ff23c3420b25534bf3a2582593280ae8599f7fe657a56ae17",
      "hash": "ef311b200b9c1c1ff23c3420b25534bf3a2582593280ae8599f7fe657a56ae17",
      "version": 1,
      "size": 226,
      "vsize": 226,
      "locktime": 0,
      "vin": [
        {
          "txid": "2b37184d5df2dc1c2132ae5b1e4be7413452177acea7f9a7d8ecb41ed8e5ac1a",
          "vout": 1,
          "scriptSig": {
            "asm": "304502210092b510f08a76960623bdd6cc1bc2e4aaec38582e11533a567bfcd34d0402b2ec02201cb0c65c067de13e0008c4b421893fa5b22557d90d38f156084118db557eef54[ALL] 03c7e1a4125e2e899eb671f7807360ca25456c4a125c12e474f75aea4e7e2444ff",
            "hex": "48304502210092b510f08a76960623bdd6cc1bc2e4aaec38582e11533a567bfcd34d0402b2ec02201cb0c65c067de13e0008c4b421893fa5b22557d90d38f156084118db557eef54012103c7e1a4125e2e899eb671f7807360ca25456c4a125c12e474f75aea4e7e2444ff"
          },
          "sequence": 4294967295
        }
      ],
      "vout": [
        {
          "value": 1.99703298,
          "n": 0,
          "scriptPubKey": {
            "asm": "OP_DUP OP_HASH160 1d9d3cc27d1b29f7d1dd4100b2e56bee7184d351 OP_EQUALVERIFY OP_CHECKSIG",
            "hex": "76a9141d9d3cc27d1b29f7d1dd4100b2e56bee7184d35188ac",
            "reqSigs": 1,
            "type": "pubkeyhash",
            "addresses": [
              "LMvYDpQeoQPypXj2WUee37PbPHeGnAomuB"
            ]
          }
        }, 
        {
          "value": 1.32691960,
          "n": 1,
          "scriptPubKey": {
            "asm": "OP_DUP OP_HASH160 0c91ae939ff03b12a668d809d825a5e6bad6b8d7 OP_EQUALVERIFY OP_CHECKSIG",
            "hex": "76a9140c91ae939ff03b12a668d809d825a5e6bad6b8d788ac",
            "reqSigs": 1,
            "type": "pubkeyhash",
            "addresses": [
              "LLNQtg2LZLp8VbsuE3caMMvDBzf1uDEBas"
            ]
          }
        }
      ],
      "hex": "01000000011aace5d81eb4ecd8a7f9a7ce7a17523441e74b1e5bae32211cdcf25d4d18372b010000006b48304502210092b510f08a76960623bdd6cc1bc2e4aaec38582e11533a567bfcd34d0402b2ec02201cb0c65c067de13e0008c4b421893fa5b22557d90d38f156084118db557eef54012103c7e1a4125e2e899eb671f7807360ca25456c4a125c12e474f75aea4e7e2444ffffffffff02023be70b000000001976a9141d9d3cc27d1b29f7d1dd4100b2e56bee7184d35188acf8b7e807000000001976a9140c91ae939ff03b12a668d809d825a5e6bad6b8d788ac00000000"
    }, 
    {
      "txid": "e4e29af036c12062f533ff1f80762e157d02408e2ac38198f82e2c219e26561b",
      "hash": "e4e29af036c12062f533ff1f80762e157d02408e2ac38198f82e2c219e26561b",
      "version": 2,
      "size": 226,
      "vsize": 226,
      "locktime": 1357599,
      "vin": [
        {
          "txid": "b4ccd90057d8e6a722fede0acc097f49a260e3d7245db1118444e4e628b1ebbe",
          "vout": 1,
          "scriptSig": {
            "asm": "30450221008dbe13b4fd4f0506b8a2388809c653995366e7334248b3af4c2e951ef4eeec5e022036c123ffdde82fdaa42a4b7d0d0df4c154bc59f61491bf830d25d8b79311a64a[ALL] 0306983e4c33cb281fdf00a1a72268ee4fb86f6560c776e1c3a60e2226affe15b4",
            "hex": "4830450221008dbe13b4fd4f0506b8a2388809c653995366e7334248b3af4c2e951ef4eeec5e022036c123ffdde82fdaa42a4b7d0d0df4c154bc59f61491bf830d25d8b79311a64a01210306983e4c33cb281fdf00a1a72268ee4fb86f6560c776e1c3a60e2226affe15b4"
          },
          "sequence": 4294967294
        }
      ],
      "vout": [
        {
          "value": 0.25877400,
          "n": 0,
          "scriptPubKey": {
            "asm": "OP_DUP OP_HASH160 d36875a9397611bb99cc24b3ab5eaf07470cd1ab OP_EQUALVERIFY OP_CHECKSIG",
            "hex": "76a914d36875a9397611bb99cc24b3ab5eaf07470cd1ab88ac",
            "reqSigs": 1,
            "type": "pubkeyhash",
            "addresses": [
              "LeVmyfqXARjZNCA358grQbXhTX4uDLYdkw"
            ]
          }
        }, 
        {
          "value": 0.13600000,
          "n": 1,
          "scriptPubKey": {
            "asm": "OP_DUP OP_HASH160 f8dbba9b8d8bb7c8cf02f4c5d9d7adc70632df68 OP_EQUALVERIFY OP_CHECKSIG",
            "hex": "76a914f8dbba9b8d8bb7c8cf02f4c5d9d7adc70632df6888ac",
            "reqSigs": 1,
            "type": "pubkeyhash",
            "addresses": [
              "Lhuo4paNofC3D5eskK3j8wjJQWrcnBDqoP"
            ]
          }
        }
      ],
      "hex": "0200000001beebb128e6e4448411b15d24d7e360a2497f09cc0adefe22a7e6d85700d9ccb4010000006b4830450221008dbe13b4fd4f0506b8a2388809c653995366e7334248b3af4c2e951ef4eeec5e022036c123ffdde82fdaa42a4b7d0d0df4c154bc59f61491bf830d25d8b79311a64a01210306983e4c33cb281fdf00a1a72268ee4fb86f6560c776e1c3a60e2226affe15b4feffffff0298db8a01000000001976a914d36875a9397611bb99cc24b3ab5eaf07470cd1ab88ac0085cf00000000001976a914f8dbba9b8d8bb7c8cf02f4c5d9d7adc70632df6888ac1fb71400"
    }, 
    {
      "txid": "c585cdef86cd6c795ea86e494d888c4d5b960c6a9b4927a2c06bf75a794f8168",
      "hash": "c585cdef86cd6c795ea86e494d888c4d5b960c6a9b4927a2c06bf75a794f8168",
      "version": 1,
      "size": 226,
      "vsize": 226,
      "locktime": 0,
      "vin": [
        {
          "txid": "ff36a6ad1b83f5f7c95c3491bb00ca6c64cc2b6dbfe3c907fac6b0c1c460cbae",
          "vout": 0,
          "scriptSig": {
            "asm": "304502210081bfd75917ee3846faa509e6059b0af4fd89c46725331917201dbaecdae2deee0220183dd8e980545c19a66e9cc4a206dc1a501a6848d93e8c61d10b8f8a99e0f3df[ALL] 02141ca46d64d365412e6b6d6cabd8d1a9feeecaab2b6ebdf6eec4d0917f282324",
            "hex": "48304502210081bfd75917ee3846faa509e6059b0af4fd89c46725331917201dbaecdae2deee0220183dd8e980545c19a66e9cc4a206dc1a501a6848d93e8c61d10b8f8a99e0f3df012102141ca46d64d365412e6b6d6cabd8d1a9feeecaab2b6ebdf6eec4d0917f282324"
          },
          "sequence": 4294967295
        }
      ],
      "vout": [
        {
          "value": 0.26243514,
          "n": 0,
          "scriptPubKey": {
            "asm": "OP_DUP OP_HASH160 3e88d3ec08f47d34d217eb6d554e44b8d852c296 OP_EQUALVERIFY OP_CHECKSIG",
            "hex": "76a9143e88d3ec08f47d34d217eb6d554e44b8d852c29688ac",
            "reqSigs": 1,
            "type": "pubkeyhash",
            "addresses": [
              "LQvc552A4kukGD9MxBPxHjoeXPQY9QUM1E"
            ]
          }
        }, 
        {
          "value": 0.00653773,
          "n": 1,
          "scriptPubKey": {
            "asm": "OP_DUP OP_HASH160 53cd7147c09f52464cefcfa88b40aea5b24782cf OP_EQUALVERIFY OP_CHECKSIG",
            "hex": "76a91453cd7147c09f52464cefcfa88b40aea5b24782cf88ac",
            "reqSigs": 1,
            "type": "pubkeyhash",
            "addresses": [
              "LSs4TXhiaGw3n7etHnJH1RBGEDCDLJt7yz"
            ]
          }
        }
      ],
      "hex": "0100000001aecb60c4c1b0c6fa07c9e3bf6d2bcc646cca00bb91345cc9f7f5831bada636ff000000006b48304502210081bfd75917ee3846faa509e6059b0af4fd89c46725331917201dbaecdae2deee0220183dd8e980545c19a66e9cc4a206dc1a501a6848d93e8c61d10b8f8a99e0f3df012102141ca46d64d365412e6b6d6cabd8d1a9feeecaab2b6ebdf6eec4d0917f282324ffffffff02ba719001000000001976a9143e88d3ec08f47d34d217eb6d554e44b8d852c29688accdf90900000000001976a91453cd7147c09f52464cefcfa88b40aea5b24782cf88ac00000000"
    }, 
    {
      "txid": "ae30ac4b568fde63c57f57353fc028abc11bcecd2a0e03d18809c1136d5d15e6",
      "hash": "ae30ac4b568fde63c57f57353fc028abc11bcecd2a0e03d18809c1136d5d15e6",
      "version": 1,
      "size": 226,
      "vsize": 226,
      "locktime": 0,
      "vin": [
        {
          "txid": "a9ebbcdf044ac11f013db5a2534faebc256c11ad79b1f1988ce63f0deb5d7b7e",
          "vout": 1,
          "scriptSig": {
            "asm": "3045022100af1603c29314517f3dd03ddac8b0df8a585a78d013838f22d1e902b27ef304b7022022fe73510cf19e42f1c0299dc7ee5400d102eac1dbdda7a5f725729bfc0ee426[ALL] 024cfa1c2827b4d8453f89232e27c288b70452a7e9fbe5c71f0f6fe70ad635cd1d",
            "hex": "483045022100af1603c29314517f3dd03ddac8b0df8a585a78d013838f22d1e902b27ef304b7022022fe73510cf19e42f1c0299dc7ee5400d102eac1dbdda7a5f725729bfc0ee4260121024cfa1c2827b4d8453f89232e27c288b70452a7e9fbe5c71f0f6fe70ad635cd1d"
          },
          "sequence": 4294967295
        }
      ],
      "vout": [
        {
          "value": 0.21137967,
          "n": 0,
          "scriptPubKey": {
            "asm": "OP_DUP OP_HASH160 9c50942401e9effe19787dd63917d0d2b89328eb OP_EQUALVERIFY OP_CHECKSIG",
            "hex": "76a9149c50942401e9effe19787dd63917d0d2b89328eb88ac",
            "reqSigs": 1,
            "type": "pubkeyhash",
            "addresses": [
              "LZUUCqr91eQCEgVtSavygPNV3tp3BQzY3J"
            ]
          }
        }, 
        {
          "value": 0.61939543,
          "n": 1,
          "scriptPubKey": {
            "asm": "OP_DUP OP_HASH160 b08fc6104f25eaa1cf023d5c613649ca99ae17f9 OP_EQUALVERIFY OP_CHECKSIG",
            "hex": "76a914b08fc6104f25eaa1cf023d5c613649ca99ae17f988ac",
            "reqSigs": 1,
            "type": "pubkeyhash",
            "addresses": [
              "LbKXRYd5Wvk7wTapTR2va6cCSvi2BMZMps"
            ]
          }
        }
      ],
      "hex": "01000000017e7b5deb0d3fe68c98f1b179ad116c25bcae4f53a2b53d011fc14a04dfbceba9010000006b483045022100af1603c29314517f3dd03ddac8b0df8a585a78d013838f22d1e902b27ef304b7022022fe73510cf19e42f1c0299dc7ee5400d102eac1dbdda7a5f725729bfc0ee4260121024cfa1c2827b4d8453f89232e27c288b70452a7e9fbe5c71f0f6fe70ad635cd1dffffffff022f8a4201000000001976a9149c50942401e9effe19787dd63917d0d2b89328eb88ac571fb103000000001976a914b08fc6104f25eaa1cf023d5c613649ca99ae17f988ac00000000"
    }
  ],
  "time": 1517024360,
  "mediantime": 1517023565,
  "nonce": 2814097671,
  "bits": "1a047f14",
  "difficulty": 3731199.183374282,
  "chainwork": "0000000000000000000000000000000000000000000000325dfe56cb2a16e08e",
  "previousblockhash": "b5f5335044406499e39f01fe9f4a197a428488cfd4762733685637fe4bdb03d2",
  "nextblockhash": "0e8ebb9a3ca3d0066801591b23ccbdc764904c0fd2f2384066a223896ae3c13a"
}
