{
  "hash": "a797424991f42aef698044311ade0dafce4b1e1cd206e5e49dc6bf0772ae3f1e",
  "confirmations": 1918,
  "strippedsize": 4104,
  "size": 4140,
  "weight": 16452,
  "height": 1359076,
  "version": 536870912,
  "versionHex": "20000000",
  "merkleroot": "880c7b4288ad12cae7eadd4bf8b0ee49739b8ea90190ec81d7368b8952bc10d6",
  "tx": [
    {
      "txid": "b979443795abfd476c097b6ca60a6e7e0bbcba2e68cf8fddf9180934064f67b4",
      "hash": "b9c9c6d7d071b56e4b48d4279964f727c37a7e84387c98c334644a98351d2341",
      "version": 1,
      "size": 266,
      "vsize": 239,
      "locktime": 0,
      "vin": [
        {
          "coinbase": "03e4bc141f2f5669614254432f4d696e6564206279206d6a31383636303135333336362f2cfabe6d6dd324a813eff110434c80efbac2758f5bd881bf62e055a1f2a83cd09dbea1578c0100000000000000105e74d600b231c9ed8c7455ea04000000",
          "sequence": 4294967295
        }
      ],
      "vout": [
        {
          "value": 25.01882368,
          "n": 0,
          "scriptPubKey": {
            "asm": "OP_DUP OP_HASH160 e16c28146ed4869c190b3f0bdc18d80d45f92134 OP_EQUALVERIFY OP_CHECKSIG",
            "hex": "76a914e16c28146ed4869c190b3f0bdc18d80d45f9213488ac",
            "reqSigs": 1,
            "type": "pubkeyhash",
            "addresses": [
              "LfmssDyX6iZvbVqHv6t9P6JWXia2JG7mdb"
            ]
          }
        }, 
        {
          "value": 0.00000000,
          "n": 1,
          "scriptPubKey": {
            "asm": "OP_RETURN aa21a9edafa840460ce50fa534120984b8c6dbf100e76ebf2c98b73811eec9d606cc49c3",
            "hex": "6a24aa21a9edafa840460ce50fa534120984b8c6dbf100e76ebf2c98b73811eec9d606cc49c3",
            "type": "nulldata"
          }
        }
      ],
      "hex": "010000000001010000000000000000000000000000000000000000000000000000000000000000ffffffff6203e4bc141f2f5669614254432f4d696e6564206279206d6a31383636303135333336362f2cfabe6d6dd324a813eff110434c80efbac2758f5bd881bf62e055a1f2a83cd09dbea1578c0100000000000000105e74d600b231c9ed8c7455ea04000000ffffffff0200b21f95000000001976a914e16c28146ed4869c190b3f0bdc18d80d45f9213488ac0000000000000000266a24aa21a9edafa840460ce50fa534120984b8c6dbf100e76ebf2c98b73811eec9d606cc49c30120000000000000000000000000000000000000000000000000000000000000000000000000"
    }, 
    {
      "txid": "172da8ea494d1951823c4059a892a750ee47f56c42604af0ece538a98605a6dc",
      "hash": "172da8ea494d1951823c4059a892a750ee47f56c42604af0ece538a98605a6dc",
      "version": 1,
      "size": 372,
      "vsize": 372,
      "locktime": 0,
      "vin": [
        {
          "txid": "d4ffb1b82ca4b499c311b52c66d1764c1d652a1355aa96cd681a882dda79f5f1",
          "vout": 7,
          "scriptSig": {
            "asm": "0 304402203b33357c0b047c401ae64410651caac1d29da3f931f287137c550101ab1ba7320220545aba0fb12588827e29074b47777bf8c4818ac34b6ed2838e8fdbf69387dbe6[ALL] 3045022100b43fda7ee70992d665c3f562592f21bbd7023369aad916f268bace5f1263bfb702204ae071c2dd57a521d1d42afee02eb931dd5d2ab3cfc4a175014adbfe7be6aee3[ALL] 522103c2b862737d0c04c211e7a7711969f6f35f53d09f201dd8d9f1d22691b5ad569b2102774aa8dfc9d3677f078eb0d07344e76b1a3613e9ac51298fa0cbfa082a64fca12102b2ef4a0bae2f51f96c46b9a4e2e6f983b9e7da760fb27bfca22a6aa4cc47f00b53ae",
            "hex": "0047304402203b33357c0b047c401ae64410651caac1d29da3f931f287137c550101ab1ba7320220545aba0fb12588827e29074b47777bf8c4818ac34b6ed2838e8fdbf69387dbe601483045022100b43fda7ee70992d665c3f562592f21bbd7023369aad916f268bace5f1263bfb702204ae071c2dd57a521d1d42afee02eb931dd5d2ab3cfc4a175014adbfe7be6aee3014c69522103c2b862737d0c04c211e7a7711969f6f35f53d09f201dd8d9f1d22691b5ad569b2102774aa8dfc9d3677f078eb0d07344e76b1a3613e9ac51298fa0cbfa082a64fca12102b2ef4a0bae2f51f96c46b9a4e2e6f983b9e7da760fb27bfca22a6aa4cc47f00b53ae"
          },
          "sequence": 4294967295
        }
      ],
      "vout": [
        {
          "value": 2.64446345,
          "n": 0,
          "scriptPubKey": {
            "asm": "OP_DUP OP_HASH160 cd16967f71bd6cb0fd9d401d1836720eeaf78091 OP_EQUALVERIFY OP_CHECKSIG",
            "hex": "76a914cd16967f71bd6cb0fd9d401d1836720eeaf7809188ac",
            "reqSigs": 1,
            "type": "pubkeyhash",
            "addresses": [
              "LdvMqyKSN4RhyvCzcPYEgeahoMUn6m1ftr"
            ]
          }
        }, 
        {
          "value": 12.19555655,
          "n": 1,
          "scriptPubKey": {
            "asm": "OP_HASH160 9bc6c9c65496944fd81f5e7d45cc53beb5943372 OP_EQUAL",
            "hex": "a9149bc6c9c65496944fd81f5e7d45cc53beb594337287",
            "reqSigs": 1,
            "type": "scripthash",
            "addresses": [
              "MN6q7D5Db4dKiu5k6PGyMfgcfoRMDZuSjd"
            ]
          }
        }
      ],
      "hex": "0100000001f1f579da2d881a68cd96aa55132a651d4c76d1662cb511c399b4a42cb8b1ffd407000000fdfd000047304402203b33357c0b047c401ae64410651caac1d29da3f931f287137c550101ab1ba7320220545aba0fb12588827e29074b47777bf8c4818ac34b6ed2838e8fdbf69387dbe601483045022100b43fda7ee70992d665c3f562592f21bbd7023369aad916f268bace5f1263bfb702204ae071c2dd57a521d1d42afee02eb931dd5d2ab3cfc4a175014adbfe7be6aee3014c69522103c2b862737d0c04c211e7a7711969f6f35f53d09f201dd8d9f1d22691b5ad569b2102774aa8dfc9d3677f078eb0d07344e76b1a3613e9ac51298fa0cbfa082a64fca12102b2ef4a0bae2f51f96c46b9a4e2e6f983b9e7da760fb27bfca22a6aa4cc47f00b53aeffffffff028921c30f000000001976a914cd16967f71bd6cb0fd9d401d1836720eeaf7809188ac47f1b0480000000017a9149bc6c9c65496944fd81f5e7d45cc53beb59433728700000000"
    }, 
    {
      "txid": "4cd1caa7b4fafaece6268584f0f574dab6d71255ea333e5375c3b1bcc337df75",
      "hash": "4cd1caa7b4fafaece6268584f0f574dab6d71255ea333e5375c3b1bcc337df75",
      "version": 2,
      "size": 814,
      "vsize": 814,
      "locktime": 0,
      "vin": [
        {
          "txid": "5fe26d37dcf03444e798925b68909c0de2836a553fa95fd2391d59b31d562327",
          "vout": 41,
          "scriptSig": {
            "asm": "3044022061132ce3645245ad3f2ebc97e18b2c215e721ee9a1bdc2a31180abc3ad565a9e02200871f3b5611f198da56a1f872b8e18ed44be50c682d87e7f5ba45bbc224182fe[ALL] 03ee8809bb6dc0c673ba953ad75ac418457fc45e426cf4d08df7d6348acfbaf719",
            "hex": "473044022061132ce3645245ad3f2ebc97e18b2c215e721ee9a1bdc2a31180abc3ad565a9e02200871f3b5611f198da56a1f872b8e18ed44be50c682d87e7f5ba45bbc224182fe012103ee8809bb6dc0c673ba953ad75ac418457fc45e426cf4d08df7d6348acfbaf719"
          },
          "sequence": 4294967295
        }, 
        {
          "txid": "5fe26d37dcf03444e798925b68909c0de2836a553fa95fd2391d59b31d562327",
          "vout": 25,
          "scriptSig": {
            "asm": "3044022032a9b9c44731700abb06915936129215a55c9fddd53114257ff2cf24298bb0d8022064de9efd30ba3d5729ab7e5e1254371b7afde0001c4e5561a4a2bdaf6322e297[ALL] 02c0d2d1395ba76b6bf0bd46d82f8d63eb213a25e68b485854d876e59eebe90a17",
            "hex": "473044022032a9b9c44731700abb06915936129215a55c9fddd53114257ff2cf24298bb0d8022064de9efd30ba3d5729ab7e5e1254371b7afde0001c4e5561a4a2bdaf6322e297012102c0d2d1395ba76b6bf0bd46d82f8d63eb213a25e68b485854d876e59eebe90a17"
          },
          "sequence": 4294967295
        }, 
        {
          "txid": "5fe26d37dcf03444e798925b68909c0de2836a553fa95fd2391d59b31d562327",
          "vout": 49,
          "scriptSig": {
            "asm": "304402201eda22eeb65c352ae847e2faebb94d1629e34bf4d22712e27f101b6c1793b35702203dd96b039a35421d31d701526b1b8242db1e88ca56c3862671429a447f361c4c[ALL] 023eee086153c0af858c00d38d39c338673688b21df85e72012228f2e9d0390460",
            "hex": "47304402201eda22eeb65c352ae847e2faebb94d1629e34bf4d22712e27f101b6c1793b35702203dd96b039a35421d31d701526b1b8242db1e88ca56c3862671429a447f361c4c0121023eee086153c0af858c00d38d39c338673688b21df85e72012228f2e9d0390460"
          },
          "sequence": 4294967295
        }, 
        {
          "txid": "ddfdc98382c8f14ef107992df7f29809759a3feba11318e4a088f15b48537026",
          "vout": 1,
          "scriptSig": {
            "asm": "3045022100976985beae16c564f28aa0a433bcd9ffdc1b52d9ee7ba34e618e469e3c82bd0f022040b5541487a3ef90c9621392de631c90d8c055c7a5a8d32344daa24ebbcc1d17[ALL] 02325853ef350cbf1543ff4f5da78acf4e3c7630127ca9e5d31aadbe40174aaf82",
            "hex": "483045022100976985beae16c564f28aa0a433bcd9ffdc1b52d9ee7ba34e618e469e3c82bd0f022040b5541487a3ef90c9621392de631c90d8c055c7a5a8d32344daa24ebbcc1d17012102325853ef350cbf1543ff4f5da78acf4e3c7630127ca9e5d31aadbe40174aaf82"
          },
          "sequence": 4294967295
        }, 
        {
          "txid": "dec3fcfac696924430efd215bd100a764085fd83b4c303d582420f5cf9453a26",
          "vout": 0,
          "scriptSig": {
            "asm": "3044022078ead48467c6dbe4902f8f6815cdbbb583998980f4283f210637a60a7fae1c7b022020091c57a124a96edb05fde4406cc51cc312d6a1e9d2d044593edc5ec51197d5[ALL] 027fe28400951b134cd0a08a139c0392fe816d8f283d87b520e3731e057dd0c803",
            "hex": "473044022078ead48467c6dbe4902f8f6815cdbbb583998980f4283f210637a60a7fae1c7b022020091c57a124a96edb05fde4406cc51cc312d6a1e9d2d044593edc5ec51197d50121027fe28400951b134cd0a08a139c0392fe816d8f283d87b520e3731e057dd0c803"
          },
          "sequence": 4294967295
        }
      ],
      "vout": [
        {
          "value": 0.94865850,
          "n": 0,
          "scriptPubKey": {
            "asm": "OP_DUP OP_HASH160 ad4cebb77ae71030640e06ecb559a900b9ad093f OP_EQUALVERIFY OP_CHECKSIG",
            "hex": "76a914ad4cebb77ae71030640e06ecb559a900b9ad093f88ac",
            "reqSigs": 1,
            "type": "pubkeyhash",
            "addresses": [
              "Lb2HJwxYchxmaeuMCVTLKWchRAW1jYrCqN"
            ]
          }
        }, 
        {
          "value": 0.15856975,
          "n": 1,
          "scriptPubKey": {
            "asm": "OP_DUP OP_HASH160 88dcf9fe9a8640d87958d3ca2791a23aec7b6f00 OP_EQUALVERIFY OP_CHECKSIG",
            "hex": "76a91488dcf9fe9a8640d87958d3ca2791a23aec7b6f0088ac",
            "reqSigs": 1,
            "type": "pubkeyhash",
            "addresses": [
              "LXhct2BaF5vztKuqarifHRRWSKrq4HGRE4"
            ]
          }
        }
      ],
      "hex": "02000000052723561db3591d39d25fa93f556a83e20d9c90685b9298e74434f0dc376de25f290000006a473044022061132ce3645245ad3f2ebc97e18b2c215e721ee9a1bdc2a31180abc3ad565a9e02200871f3b5611f198da56a1f872b8e18ed44be50c682d87e7f5ba45bbc224182fe012103ee8809bb6dc0c673ba953ad75ac418457fc45e426cf4d08df7d6348acfbaf719ffffffff2723561db3591d39d25fa93f556a83e20d9c90685b9298e74434f0dc376de25f190000006a473044022032a9b9c44731700abb06915936129215a55c9fddd53114257ff2cf24298bb0d8022064de9efd30ba3d5729ab7e5e1254371b7afde0001c4e5561a4a2bdaf6322e297012102c0d2d1395ba76b6bf0bd46d82f8d63eb213a25e68b485854d876e59eebe90a17ffffffff2723561db3591d39d25fa93f556a83e20d9c90685b9298e74434f0dc376de25f310000006a47304402201eda22eeb65c352ae847e2faebb94d1629e34bf4d22712e27f101b6c1793b35702203dd96b039a35421d31d701526b1b8242db1e88ca56c3862671429a447f361c4c0121023eee086153c0af858c00d38d39c338673688b21df85e72012228f2e9d0390460ffffffff267053485bf188a0e41813a1eb3f9a750998f2f72d9907f14ef1c88283c9fddd010000006b483045022100976985beae16c564f28aa0a433bcd9ffdc1b52d9ee7ba34e618e469e3c82bd0f022040b5541487a3ef90c9621392de631c90d8c055c7a5a8d32344daa24ebbcc1d17012102325853ef350cbf1543ff4f5da78acf4e3c7630127ca9e5d31aadbe40174aaf82ffffffff263a45f95c0f4282d503c3b483fd8540760a10bd15d2ef30449296c6fafcc3de000000006a473044022078ead48467c6dbe4902f8f6815cdbbb583998980f4283f210637a60a7fae1c7b022020091c57a124a96edb05fde4406cc51cc312d6a1e9d2d044593edc5ec51197d50121027fe28400951b134cd0a08a139c0392fe816d8f283d87b520e3731e057dd0c803ffffffff02ba89a705000000001976a914ad4cebb77ae71030640e06ecb559a900b9ad093f88ac4ff5f100000000001976a91488dcf9fe9a8640d87958d3ca2791a23aec7b6f0088ac00000000"
    }, 
    {
      "txid": "bfed30c8ada13e87e23774b1140e67e25ad9a1a32bf44615cf119d69ee3dd0c8",
      "hash": "bfed30c8ada13e87e23774b1140e67e25ad9a1a32bf44615cf119d69ee3dd0c8",
      "version": 2,
      "size": 373,
      "vsize": 373,
      "locktime": 1359024,
      "vin": [
        {
          "txid": "57822aad61e043465d81dfddbd1c87885e71650d131003c98f14c39795b1313a",
          "vout": 0,
          "scriptSig": {
            "asm": "304402200222d07ebb63275e4ff6b7b50112d70f2a600c6d2239f31e6705da7e86056d9102201fe13e429e170cbcaee037b8c0d48d2bab232b11277a23a0aaf229f6fdaefce8[ALL] 02ad0231d56d9b99af18e24a9d776fbe4b74266422cd732ffbde605f13d37e11c3",
            "hex": "47304402200222d07ebb63275e4ff6b7b50112d70f2a600c6d2239f31e6705da7e86056d9102201fe13e429e170cbcaee037b8c0d48d2bab232b11277a23a0aaf229f6fdaefce8012102ad0231d56d9b99af18e24a9d776fbe4b74266422cd732ffbde605f13d37e11c3"
          },
          "sequence": 4294967294
        }, 
        {
          "txid": "09ba7d4dd5d8194090a5c9c78c35e5a282fc3972c4289075146b3397ce86ccd8",
          "vout": 1,
          "scriptSig": {
            "asm": "3045022100a5d2ba3d1eca9c223bb798592fdb038c2fde2a7e2ed0e6945cabc31e87d061170220700ae0e365ace7b52365abc8b6253d8b227fd2a51a5eb346451aeb6dfdd3071a[ALL] 02947197c9c805d80a1b457d8cdc8e36017e411f35834e17cc3b7a6e499c86511b",
            "hex": "483045022100a5d2ba3d1eca9c223bb798592fdb038c2fde2a7e2ed0e6945cabc31e87d061170220700ae0e365ace7b52365abc8b6253d8b227fd2a51a5eb346451aeb6dfdd3071a012102947197c9c805d80a1b457d8cdc8e36017e411f35834e17cc3b7a6e499c86511b"
          },
          "sequence": 4294967294
        }
      ],
      "vout": [
        {
          "value": 11.38164279,
          "n": 0,
          "scriptPubKey": {
            "asm": "OP_DUP OP_HASH160 9a1456986c6b1ad5ea98dd626c1705645a411a29 OP_EQUALVERIFY OP_CHECKSIG",
            "hex": "76a9149a1456986c6b1ad5ea98dd626c1705645a411a2988ac",
            "reqSigs": 1,
            "type": "pubkeyhash",
            "addresses": [
              "LZGegt7zYQTDtEZDChR5Whdj8TmWnGv5V7"
            ]
          }
        }, 
        {
          "value": 0.01162953,
          "n": 1,
          "scriptPubKey": {
            "asm": "OP_DUP OP_HASH160 d398e0422fd999634ddc74e1ee62f908216acafb OP_EQUALVERIFY OP_CHECKSIG",
            "hex": "76a914d398e0422fd999634ddc74e1ee62f908216acafb88ac",
            "reqSigs": 1,
            "type": "pubkeyhash",
            "addresses": [
              "LeWmyhb8ffrfv9mK9v8qJiMdTH9cN1GmGE"
            ]
          }
        }
      ],
      "hex": "02000000023a31b19597c3148fc90310130d65715e88871cbddddf815d4643e061ad2a8257000000006a47304402200222d07ebb63275e4ff6b7b50112d70f2a600c6d2239f31e6705da7e86056d9102201fe13e429e170cbcaee037b8c0d48d2bab232b11277a23a0aaf229f6fdaefce8012102ad0231d56d9b99af18e24a9d776fbe4b74266422cd732ffbde605f13d37e11c3feffffffd8cc86ce97336b14759028c47239fc82a2e5358cc7c9a5904019d8d54d7dba09010000006b483045022100a5d2ba3d1eca9c223bb798592fdb038c2fde2a7e2ed0e6945cabc31e87d061170220700ae0e365ace7b52365abc8b6253d8b227fd2a51a5eb346451aeb6dfdd3071a012102947197c9c805d80a1b457d8cdc8e36017e411f35834e17cc3b7a6e499c86511bfeffffff023702d743000000001976a9149a1456986c6b1ad5ea98dd626c1705645a411a2988acc9be1100000000001976a914d398e0422fd999634ddc74e1ee62f908216acafb88acb0bc1400"
    }, 
    {
      "txid": "0362cd704a0752eb38416fe26d5db9cc1ec0ca3e0c177cb252837cf89419a0b5",
      "hash": "0362cd704a0752eb38416fe26d5db9cc1ec0ca3e0c177cb252837cf89419a0b5",
      "version": 2,
      "size": 814,
      "vsize": 814,
      "locktime": 1359074,
      "vin": [
        {
          "txid": "05da3ad75f4a00070db8aad8f3d870dfd95571cca107b316fcc27a4c1bcdc906",
          "vout": 0,
          "scriptSig": {
            "asm": "304502210083ad7b15b241490e081f3398282b7a8fc9c89bf2ab25525bb2b88c89f9170df20220504927b9f427e6e6b63e6fe407bcc565352b1521ca503f64715067d2a9eeea64[ALL] 0368a2c30b4edee2511ffa8473062fcb0dde28333b9d6e00bbb8ec3f8ba3b52320",
            "hex": "48304502210083ad7b15b241490e081f3398282b7a8fc9c89bf2ab25525bb2b88c89f9170df20220504927b9f427e6e6b63e6fe407bcc565352b1521ca503f64715067d2a9eeea6401210368a2c30b4edee2511ffa8473062fcb0dde28333b9d6e00bbb8ec3f8ba3b52320"
          },
          "sequence": 4294967294
        }, 
        {
          "txid": "bc10774078804eeab057fa60f8272605973cfff04a16bc2752e419197c31d84a",
          "vout": 22,
          "scriptSig": {
            "asm": "30440220418d432ffa4e55dfcce54e7734044775d42e7fc59a561afecab68a7f469899f702207460785b7c89ed64a090e2c230dcdee3bf466720b76d54c2a7c0b9eabbf0ada8[ALL] 03f15c070c5c00fac6a0a9a75345f53e03f60d78b889db59a51bd8793b677f9b0f",
            "hex": "4730440220418d432ffa4e55dfcce54e7734044775d42e7fc59a561afecab68a7f469899f702207460785b7c89ed64a090e2c230dcdee3bf466720b76d54c2a7c0b9eabbf0ada8012103f15c070c5c00fac6a0a9a75345f53e03f60d78b889db59a51bd8793b677f9b0f"
          },
          "sequence": 4294967294
        }, 
        {
          "txid": "5dd42fc6bbfeea965e09986cfb094d695322085247e972a12c631ed17152c2fa",
          "vout": 1,
          "scriptSig": {
            "asm": "3044022062e45d5367842ee4369092f8f47b50f8e1da195e5208594513b405f2a536105d02202306804d8bcfc0c2ff750af536e4e72a08a43118f814dc34581d350ee93d4f88[ALL] 02941fd5ba72ad4e29133ff7f3f2e57548cd13064438aa8c3ead1d6ad35e685935",
            "hex": "473044022062e45d5367842ee4369092f8f47b50f8e1da195e5208594513b405f2a536105d02202306804d8bcfc0c2ff750af536e4e72a08a43118f814dc34581d350ee93d4f88012102941fd5ba72ad4e29133ff7f3f2e57548cd13064438aa8c3ead1d6ad35e685935"
          },
          "sequence": 4294967294
        }, 
        {
          "txid": "1cb15d727ba94d2bbb002201b88e403762d8e550e4fad148ebd66cf9b74c1fb1",
          "vout": 1,
          "scriptSig": {
            "asm": "3044022026c94d8e85da3139fc1a8fd9047b64e2ecda2934b5d251d745b7481ddd234ce802201f1fe7d032f3191eee3d2edb058a11dce8dc715a13bcdeca657d0132144ed5b0[ALL] 03d8e449dc6aa9f39d194c360dcfd3f145113694d92f0b3be745cfc6111c3f3dd3",
            "hex": "473044022026c94d8e85da3139fc1a8fd9047b64e2ecda2934b5d251d745b7481ddd234ce802201f1fe7d032f3191eee3d2edb058a11dce8dc715a13bcdeca657d0132144ed5b0012103d8e449dc6aa9f39d194c360dcfd3f145113694d92f0b3be745cfc6111c3f3dd3"
          },
          "sequence": 4294967294
        }, 
        {
          "txid": "e4b757fca7f3060dde46fcac5c7ffd38ece23954dba4bdc5c6c5e6146a555bc6",
          "vout": 1,
          "scriptSig": {
            "asm": "3044022069e0cff38c5f22bc2772b3a767f741892ed8b42801f9c3cc6051469d3581a08c02200af27c749a4fe23c09756dd220accc30ece70284088badc4ee3f02082609b6f4[ALL] 033d1a15b71ddf04e23578aae4a8ce211b3d6a912b54827a2d5278e7a0fe3f2592",
            "hex": "473044022069e0cff38c5f22bc2772b3a767f741892ed8b42801f9c3cc6051469d3581a08c02200af27c749a4fe23c09756dd220accc30ece70284088badc4ee3f02082609b6f40121033d1a15b71ddf04e23578aae4a8ce211b3d6a912b54827a2d5278e7a0fe3f2592"
          },
          "sequence": 4294967294
        }
      ],
      "vout": [
        {
          "value": 1.46635478,
          "n": 0,
          "scriptPubKey": {
            "asm": "OP_DUP OP_HASH160 ddfa318b340210f6ea4414fd100c2cfa3305b6e2 OP_EQUALVERIFY OP_CHECKSIG",
            "hex": "76a914ddfa318b340210f6ea4414fd100c2cfa3305b6e288ac",
            "reqSigs": 1,
            "type": "pubkeyhash",
            "addresses": [
              "LfTfKMmBze3EFK3vcKWQfYAe41URJ5ZQ2w"
            ]
          }
        }, 
        {
          "value": 0.01380360,
          "n": 1,
          "scriptPubKey": {
            "asm": "OP_DUP OP_HASH160 a3a864241d7124580d19e098e61730ba4cc14fb6 OP_EQUALVERIFY OP_CHECKSIG",
            "hex": "76a914a3a864241d7124580d19e098e61730ba4cc14fb688ac",
            "reqSigs": 1,
            "type": "pubkeyhash",
            "addresses": [
              "La9J8WGRJMF6vQaD8vtiePxv8CumzcTcKX"
            ]
          }
        }
      ],
      "hex": "020000000506c9cd1b4c7ac2fc16b307a1cc7155d9df70d8f3d8aab80d07004a5fd73ada05000000006b48304502210083ad7b15b241490e081f3398282b7a8fc9c89bf2ab25525bb2b88c89f9170df20220504927b9f427e6e6b63e6fe407bcc565352b1521ca503f64715067d2a9eeea6401210368a2c30b4edee2511ffa8473062fcb0dde28333b9d6e00bbb8ec3f8ba3b52320feffffff4ad8317c1919e45227bc164af0ff3c97052627f860fa57b0ea4e8078407710bc160000006a4730440220418d432ffa4e55dfcce54e7734044775d42e7fc59a561afecab68a7f469899f702207460785b7c89ed64a090e2c230dcdee3bf466720b76d54c2a7c0b9eabbf0ada8012103f15c070c5c00fac6a0a9a75345f53e03f60d78b889db59a51bd8793b677f9b0ffefffffffac25271d11e632ca172e94752082253694d09fb6c98095e96eafebbc62fd45d010000006a473044022062e45d5367842ee4369092f8f47b50f8e1da195e5208594513b405f2a536105d02202306804d8bcfc0c2ff750af536e4e72a08a43118f814dc34581d350ee93d4f88012102941fd5ba72ad4e29133ff7f3f2e57548cd13064438aa8c3ead1d6ad35e685935feffffffb11f4cb7f96cd6eb48d1fae450e5d86237408eb8012200bb2b4da97b725db11c010000006a473044022026c94d8e85da3139fc1a8fd9047b64e2ecda2934b5d251d745b7481ddd234ce802201f1fe7d032f3191eee3d2edb058a11dce8dc715a13bcdeca657d0132144ed5b0012103d8e449dc6aa9f39d194c360dcfd3f145113694d92f0b3be745cfc6111c3f3dd3feffffffc65b556a14e6c5c6c5bda4db5439e2ec38fd7f5cacfc46de0d06f3a7fc57b7e4010000006a473044022069e0cff38c5f22bc2772b3a767f741892ed8b42801f9c3cc6051469d3581a08c02200af27c749a4fe23c09756dd220accc30ece70284088badc4ee3f02082609b6f40121033d1a15b71ddf04e23578aae4a8ce211b3d6a912b54827a2d5278e7a0fe3f2592feffffff02d67abd08000000001976a914ddfa318b340210f6ea4414fd100c2cfa3305b6e288ac08101500000000001976a914a3a864241d7124580d19e098e61730ba4cc14fb688ace2bc1400"
    }, 
    {
      "txid": "db228b4eb7754675daa7d1b9d3bc08bba08a32e2804bacd482271ea5b7979b2b",
      "hash": "db228b4eb7754675daa7d1b9d3bc08bba08a32e2804bacd482271ea5b7979b2b",
      "version": 1,
      "size": 225,
      "vsize": 225,
      "locktime": 0,
      "vin": [
        {
          "txid": "df716a5857558d7c6f24707ee33aa42fdc866fbd5210757a00f7cbe6cc03745a",
          "vout": 2322,
          "scriptSig": {
            "asm": "30440220643ebf710a104d0af3fed3c4a103b9c6e46cb8e17bea1bfb0f2e228e62d94e110220125cf10478bcaf72e389d39f0115004ddbf4659e4c162d052b48e31fe74c6b05[ALL] 035f2b057ecb5cd452aa67c848a38082b9ed8e6987acfd1770c56046c218fdb03f",
            "hex": "4730440220643ebf710a104d0af3fed3c4a103b9c6e46cb8e17bea1bfb0f2e228e62d94e110220125cf10478bcaf72e389d39f0115004ddbf4659e4c162d052b48e31fe74c6b050121035f2b057ecb5cd452aa67c848a38082b9ed8e6987acfd1770c56046c218fdb03f"
          },
          "sequence": 4294967295
        }
      ],
      "vout": [
        {
          "value": 0.00054608,
          "n": 0,
          "scriptPubKey": {
            "asm": "OP_DUP OP_HASH160 abdcf16498defe66046543b714a81afa02b66465 OP_EQUALVERIFY OP_CHECKSIG",
            "hex": "76a914abdcf16498defe66046543b714a81afa02b6646588ac",
            "reqSigs": 1,
            "type": "pubkeyhash",
            "addresses": [
              "LatgVQCD52EXuhyV5Apuuo65ek4zdgsJAK"
            ]
          }
        }, 
        {
          "value": 0.00181613,
          "n": 1,
          "scriptPubKey": {
            "asm": "OP_DUP OP_HASH160 bf7ad8b98f3fa1a8bda4f9a45c34bd8e8c7d4c02 OP_EQUALVERIFY OP_CHECKSIG",
            "hex": "76a914bf7ad8b98f3fa1a8bda4f9a45c34bd8e8c7d4c0288ac",
            "reqSigs": 1,
            "type": "pubkeyhash",
            "addresses": [
              "LcgQVP9nQdmmSQxw23pqaeDVjZ2DYPD1jw"
            ]
          }
        }
      ],
      "hex": "01000000015a7403cce6cbf7007a751052bd6f86dc2fa43ae37e70246f7c8d5557586a71df120900006a4730440220643ebf710a104d0af3fed3c4a103b9c6e46cb8e17bea1bfb0f2e228e62d94e110220125cf10478bcaf72e389d39f0115004ddbf4659e4c162d052b48e31fe74c6b050121035f2b057ecb5cd452aa67c848a38082b9ed8e6987acfd1770c56046c218fdb03fffffffff0250d50000000000001976a914abdcf16498defe66046543b714a81afa02b6646588ac6dc50200000000001976a914bf7ad8b98f3fa1a8bda4f9a45c34bd8e8c7d4c0288ac00000000"
    }, 
    {
      "txid": "03de5044c7cd091267cb12aa59b3ef54acafaddd3fe9cec6c90735cf1f4b0b36",
      "hash": "03de5044c7cd091267cb12aa59b3ef54acafaddd3fe9cec6c90735cf1f4b0b36",
      "version": 1,
      "size": 225,
      "vsize": 225,
      "locktime": 0,
      "vin": [
        {
          "txid": "83326c068ae418b5deff079fd5f4f1e3256a0778d445b795bbd99fc93a876b6e",
          "vout": 5,
          "scriptSig": {
            "asm": "304402200458b1e8b2c0501d4e6414c73a20be0d8d29486adcc6a2b2bfb3a95ca307dd06022008194e97cc50032cd8f0915108aeb8b5f8f5fa0f9f3e4ba9f797ab7350de965b[ALL] 026d166fcec3ebb4b8393b68991b23d589b78cd14e1614a73f6015e4cb8505b7af",
            "hex": "47304402200458b1e8b2c0501d4e6414c73a20be0d8d29486adcc6a2b2bfb3a95ca307dd06022008194e97cc50032cd8f0915108aeb8b5f8f5fa0f9f3e4ba9f797ab7350de965b0121026d166fcec3ebb4b8393b68991b23d589b78cd14e1614a73f6015e4cb8505b7af"
          },
          "sequence": 4294967295
        }
      ],
      "vout": [
        {
          "value": 0.46924400,
          "n": 0,
          "scriptPubKey": {
            "asm": "OP_DUP OP_HASH160 3097be7d62880485b2465e5d9e4013e1d41645b4 OP_EQUALVERIFY OP_CHECKSIG",
            "hex": "76a9143097be7d62880485b2465e5d9e4013e1d41645b488ac",
            "reqSigs": 1,
            "type": "pubkeyhash",
            "addresses": [
              "LPetUnXnLH3kX69XBfzPVExvq1MTaj592N"
            ]
          }
        }, 
        {
          "value": 1.01053000,
          "n": 1,
          "scriptPubKey": {
            "asm": "OP_DUP OP_HASH160 932682445f72791960477024c6dfec50266aa0b4 OP_EQUALVERIFY OP_CHECKSIG",
            "hex": "76a914932682445f72791960477024c6dfec50266aa0b488ac",
            "reqSigs": 1,
            "type": "pubkeyhash",
            "addresses": [
              "LYe1j46th4jmachAsP3oFaB6VeAqXsfg8E"
            ]
          }
        }
      ],
      "hex": "01000000016e6b873ac99fd9bb95b745d478076a25e3f1f4d59f07ffdeb518e48a066c3283050000006a47304402200458b1e8b2c0501d4e6414c73a20be0d8d29486adcc6a2b2bfb3a95ca307dd06022008194e97cc50032cd8f0915108aeb8b5f8f5fa0f9f3e4ba9f797ab7350de965b0121026d166fcec3ebb4b8393b68991b23d589b78cd14e1614a73f6015e4cb8505b7afffffffff027002cc02000000001976a9143097be7d62880485b2465e5d9e4013e1d41645b488ac48f20506000000001976a914932682445f72791960477024c6dfec50266aa0b488ac00000000"
    }, 
    {
      "txid": "913a96fd77729c7296b5ae5abfa8be6ab1b66033c56d0d5c77f943175b36fb47",
      "hash": "913a96fd77729c7296b5ae5abfa8be6ab1b66033c56d0d5c77f943175b36fb47",
      "version": 1,
      "size": 225,
      "vsize": 225,
      "locktime": 0,
      "vin": [
        {
          "txid": "263ca985fcf6c8115dc94fad826956cdeae3a3afe5ec67ca61b583036e5414f2",
          "vout": 1,
          "scriptSig": {
            "asm": "304402205e7f49331282e39066a88f1badc550e4b9eef3085ad0a329bd9d7b4c0a558b1402206534ab1958f3453c34e3b7cf3386f77d2d4822556fba8af285bc3ea46b8566d8[ALL] 03ec6a151cd06e6beaa99eb4477f0f06bf302c508add5cc1a429c0e3de199fba12",
            "hex": "47304402205e7f49331282e39066a88f1badc550e4b9eef3085ad0a329bd9d7b4c0a558b1402206534ab1958f3453c34e3b7cf3386f77d2d4822556fba8af285bc3ea46b8566d8012103ec6a151cd06e6beaa99eb4477f0f06bf302c508add5cc1a429c0e3de199fba12"
          },
          "sequence": 4294967295
        }
      ],
      "vout": [
        {
          "value": 73.17731212,
          "n": 0,
          "scriptPubKey": {
            "asm": "OP_DUP OP_HASH160 a8472ce30489cbc26e47259667f078e58b644074 OP_EQUALVERIFY OP_CHECKSIG",
            "hex": "76a914a8472ce30489cbc26e47259667f078e58b64407488ac",
            "reqSigs": 1,
            "type": "pubkeyhash",
            "addresses": [
              "LaZj3nm4UycBteEQBzyfEybfifLZWo7cDH"
            ]
          }
        }, 
        {
          "value": 1.68006759,
          "n": 1,
          "scriptPubKey": {
            "asm": "OP_DUP OP_HASH160 baf275b06d47c8bfa12323afb4ea1a08690d6d5a OP_EQUALVERIFY OP_CHECKSIG",
            "hex": "76a914baf275b06d47c8bfa12323afb4ea1a08690d6d5a88ac",
            "reqSigs": 1,
            "type": "pubkeyhash",
            "addresses": [
              "LcGSQHo74VCAzf4zkxoUmimqKthV93oXBc"
            ]
          }
        }
      ],
      "hex": "0100000001f214546e0383b561ca67ece5afa3e3eacd566982ad4fc95d11c8f6fc85a93c26010000006a47304402205e7f49331282e39066a88f1badc550e4b9eef3085ad0a329bd9d7b4c0a558b1402206534ab1958f3453c34e3b7cf3386f77d2d4822556fba8af285bc3ea46b8566d8012103ec6a151cd06e6beaa99eb4477f0f06bf302c508add5cc1a429c0e3de199fba12ffffffff028cb72bb4010000001976a914a8472ce30489cbc26e47259667f078e58b64407488ac6794030a000000001976a914baf275b06d47c8bfa12323afb4ea1a08690d6d5a88ac00000000"
    }, 
    {
      "txid": "846600367b6e67ece11cd9821805891ff0705be7e11b3e144e841d5e782d2041",
      "hash": "846600367b6e67ece11cd9821805891ff0705be7e11b3e144e841d5e782d2041",
      "version": 2,
      "size": 519,
      "vsize": 519,
      "locktime": 1359074,
      "vin": [
        {
          "txid": "9688e7274c4bf994f235431f9040801463e53cdda77eac09215b97ecda6d1f82",
          "vout": 0,
          "scriptSig": {
            "asm": "3045022100882a484205c3e4ca20c9b1fa987e6b22b14c4480a834f16a5aa916d58ba5f1d30220026f1b56f8d73752eb3c19724721701532bf2c1a697901a2928405721c0f0a26[ALL] 0241e9b179b9246c228dadc816f034ddd9d285683a659743d7644688da50945899",
            "hex": "483045022100882a484205c3e4ca20c9b1fa987e6b22b14c4480a834f16a5aa916d58ba5f1d30220026f1b56f8d73752eb3c19724721701532bf2c1a697901a2928405721c0f0a2601210241e9b179b9246c228dadc816f034ddd9d285683a659743d7644688da50945899"
          },
          "sequence": 4294967294
        }, 
        {
          "txid": "bcbb600d9da2039bcdfdeb4cb921b1a0afd36e21c9560105d0a1a73034cee62a",
          "vout": 0,
          "scriptSig": {
            "asm": "3044022019ecf3aa27a6010b8fa0b5361e899d258bd565f7054a5453d21c04ba358f19f00220158937a378551e614b64e4bc7c099662a03944a16887c4b2be54f9eafc46684c[ALL] 03755b463f868a807df9d8d58011be4b6cdc0dcfd7ba8744a94ee663ccd1925118",
            "hex": "473044022019ecf3aa27a6010b8fa0b5361e899d258bd565f7054a5453d21c04ba358f19f00220158937a378551e614b64e4bc7c099662a03944a16887c4b2be54f9eafc46684c012103755b463f868a807df9d8d58011be4b6cdc0dcfd7ba8744a94ee663ccd1925118"
          },
          "sequence": 4294967294
        }, 
        {
          "txid": "bb4c48dff588a365e7fcfe2f64efaa4ca56cc140191c627187ad8d6d9efac11f",
          "vout": 0,
          "scriptSig": {
            "asm": "3045022100ca44619635172832b6a654eca04b4d54bedbaad5230383099c98cfa436cf728f0220268163b87e38cc09903ffa39a16cf873211118c707ba81746a9e157779807f3e[ALL] 03bb1a133844913230958b3977f00c5535c46e48583bd5412be7eb58011e0e3865",
            "hex": "483045022100ca44619635172832b6a654eca04b4d54bedbaad5230383099c98cfa436cf728f0220268163b87e38cc09903ffa39a16cf873211118c707ba81746a9e157779807f3e012103bb1a133844913230958b3977f00c5535c46e48583bd5412be7eb58011e0e3865"
          },
          "sequence": 4294967294
        }
      ],
      "vout": [
        {
          "value": 0.14516332,
          "n": 0,
          "scriptPubKey": {
            "asm": "OP_DUP OP_HASH160 c08db40c70839bb36fc38d0aa37aaa4acf9abc5c OP_EQUALVERIFY OP_CHECKSIG",
            "hex": "76a914c08db40c70839bb36fc38d0aa37aaa4acf9abc5c88ac",
            "reqSigs": 1,
            "type": "pubkeyhash",
            "addresses": [
              "Lcn5kmEF4p3rVfZ9ohtbC9hSo7PSxDz9ff"
            ]
          }
        }, 
        {
          "value": 8.97650000,
          "n": 1,
          "scriptPubKey": {
            "asm": "OP_HASH160 93aaa4b6a1ef8beaf727871f9f0b585a00e73fad OP_EQUAL",
            "hex": "a91493aaa4b6a1ef8beaf727871f9f0b585a00e73fad87",
            "reqSigs": 1,
            "type": "scripthash",
            "addresses": [
              "MMMwz99p2FiUw5fcPV51q5rsmq6VnwFGwB"
            ]
          }
        }
      ],
      "hex": "0200000003821f6ddaec975b2109ac7ea7dd3ce563148040901f4335f294f94b4c27e78896000000006b483045022100882a484205c3e4ca20c9b1fa987e6b22b14c4480a834f16a5aa916d58ba5f1d30220026f1b56f8d73752eb3c19724721701532bf2c1a697901a2928405721c0f0a2601210241e9b179b9246c228dadc816f034ddd9d285683a659743d7644688da50945899feffffff2ae6ce3430a7a1d0050156c9216ed3afa0b121b94cebfdcd9b03a29d0d60bbbc000000006a473044022019ecf3aa27a6010b8fa0b5361e899d258bd565f7054a5453d21c04ba358f19f00220158937a378551e614b64e4bc7c099662a03944a16887c4b2be54f9eafc46684c012103755b463f868a807df9d8d58011be4b6cdc0dcfd7ba8744a94ee663ccd1925118feffffff1fc1fa9e6d8dad8771621c1940c16ca54caaef642ffefce765a388f5df484cbb000000006b483045022100ca44619635172832b6a654eca04b4d54bedbaad5230383099c98cfa436cf728f0220268163b87e38cc09903ffa39a16cf873211118c707ba81746a9e157779807f3e012103bb1a133844913230958b3977f00c5535c46e48583bd5412be7eb58011e0e3865feffffff026c80dd00000000001976a914c08db40c70839bb36fc38d0aa37aaa4acf9abc5c88ac500d81350000000017a91493aaa4b6a1ef8beaf727871f9f0b585a00e73fad87e2bc1400"
    }, 
    {
      "txid": "6849dd4bc9e73d553098b943376b201abfa1dcdbcdc2a01839d6ad3813d8e31d",
      "hash": "6849dd4bc9e73d553098b943376b201abfa1dcdbcdc2a01839d6ad3813d8e31d",
      "version": 1,
      "size": 226,
      "vsize": 226,
      "locktime": 0,
      "vin": [
        {
          "txid": "94dade89b3cf66b544999f3eeaff577d8a09a585c48b91851497e288130d0d1d",
          "vout": 0,
          "scriptSig": {
            "asm": "3045022100def6e894c339cf7e9503fb75acbfd1d101eb612259bc7bc906bbfb8ae5d9c466022047287ddd9416188b1d21b7b4a33358a28c57037896542a2181dd4cf46055a5c8[ALL] 03dca30a63478c76172b584b09a5a9ae8624e5cd7714ef44622c006c622129168f",
            "hex": "483045022100def6e894c339cf7e9503fb75acbfd1d101eb612259bc7bc906bbfb8ae5d9c466022047287ddd9416188b1d21b7b4a33358a28c57037896542a2181dd4cf46055a5c8012103dca30a63478c76172b584b09a5a9ae8624e5cd7714ef44622c006c622129168f"
          },
          "sequence": 4294967295
        }
      ],
      "vout": [
        {
          "value": 0.00100000,
          "n": 0,
          "scriptPubKey": {
            "asm": "OP_DUP OP_HASH160 d836c871df83b472e7578769e146848dc4a2fe94 OP_EQUALVERIFY OP_CHECKSIG",
            "hex": "76a914d836c871df83b472e7578769e146848dc4a2fe9488ac",
            "reqSigs": 1,
            "type": "pubkeyhash",
            "addresses": [
              "LewBr372RmsPStuLBJqknfCWyCdXn8Eokn"
            ]
          }
        }, 
        {
          "value": 0.00057090,
          "n": 1,
          "scriptPubKey": {
            "asm": "OP_DUP OP_HASH160 33d77f5ad98c0c7a85dee5980fa889f7a483a834 OP_EQUALVERIFY OP_CHECKSIG",
            "hex": "76a91433d77f5ad98c0c7a85dee5980fa889f7a483a83488ac",
            "reqSigs": 1,
            "type": "pubkeyhash",
            "addresses": [
              "LPx4t2LDXh2JRqHG96i5YgpP2bVFR5KXHH"
            ]
          }
        }
      ],
      "hex": "01000000011d0d0d1388e2971485918bc485a5098a7d57ffea3e9f9944b566cfb389deda94000000006b483045022100def6e894c339cf7e9503fb75acbfd1d101eb612259bc7bc906bbfb8ae5d9c466022047287ddd9416188b1d21b7b4a33358a28c57037896542a2181dd4cf46055a5c8012103dca30a63478c76172b584b09a5a9ae8624e5cd7714ef44622c006c622129168fffffffff02a0860100000000001976a914d836c871df83b472e7578769e146848dc4a2fe9488ac02df0000000000001976a91433d77f5ad98c0c7a85dee5980fa889f7a483a83488ac00000000"
    }
  ],
  "time": 1517233375,
  "mediantime": 1517232597,
  "nonce": 3742651289,
  "bits": "1a042eae",
  "difficulty": 4011378.762614286,
  "chainwork": "000000000000000000000000000000000000000000000033aab45f163533a64a",
  "previousblockhash": "aa06643c7c6cc53e4e0f02ea121741d5f40589432281a4941a5c5f6d11aa8038",
  "nextblockhash": "7464dd162b5698473dc850d3bf51a46e7bf0f98c270ea3a0cfeb67acccb3a3dc"
}
