{
  "hash": "a7a14f2ec1cc3d4bcf84438afcf948089a0cee4053a9bb51f393018cc6e5f934",
  "confirmations": 2593,
  "strippedsize": 255,
  "size": 255,
  "weight": 1020,
  "height": 1358402,
  "version": 536870912,
  "versionHex": "20000000",
  "merkleroot": "8c2629626a439c8fb410f982cd2d57b20edb9adcdbe7819d5ab4250d8b22360f",
  "tx": [
    {
      "txid": "8c2629626a439c8fb410f982cd2d57b20edb9adcdbe7819d5ab4250d8b22360f",
      "hash": "8c2629626a439c8fb410f982cd2d57b20edb9adcdbe7819d5ab4250d8b22360f",
      "version": 1,
      "size": 174,
      "vsize": 174,
      "locktime": 0,
      "vin": [
        {
          "coinbase": "0342ba141c4d696e656420627920416e74506f6f6c20626a302042205a6daacf01fabe6d6de8cc9fe4382af627951c78b347854b8cc01bb205bab001f669db43676a2504de0400000000000000ad1b0000000000001e000000",
          "sequence": 4294967295
        }
      ],
      "vout": [
        {
          "value": 25.00000000,
          "n": 0,
          "scriptPubKey": {
            "asm": "OP_DUP OP_HASH160 0ff3ccc5e8be88afe24b5d634e5852d474dbdff1 OP_EQUALVERIFY OP_CHECKSIG",
            "hex": "76a9140ff3ccc5e8be88afe24b5d634e5852d474dbdff188ac",
            "reqSigs": 1,
            "type": "pubkeyhash",
            "addresses": [
              "LLgJTbzZMsRTCUF1NtvvL9SR1a4pVieW89"
            ]
          }
        }
      ],
      "hex": "01000000010000000000000000000000000000000000000000000000000000000000000000ffffffff590342ba141c4d696e656420627920416e74506f6f6c20626a302042205a6daacf01fabe6d6de8cc9fe4382af627951c78b347854b8cc01bb205bab001f669db43676a2504de0400000000000000ad1b0000000000001e000000ffffffff0100f90295000000001976a9140ff3ccc5e8be88afe24b5d634e5852d474dbdff188ac00000000"
    }
  ],
  "time": 1517136591,
  "mediantime": 1517135742,
  "nonce": 1600317082,
  "bits": "1a047f14",
  "difficulty": 3731199.183374282,
  "chainwork": "0000000000000000000000000000000000000000000000330fe9e6296c82b1ce",
  "previousblockhash": "21a219ca45036ed73a4a0ff14be565c53642062a3ba446aaf4e7ef0419c2e389",
  "nextblockhash": "9aa30c2bd80d9ca921701f3a9132a9d78a6a95d943a0f141725c55ea9be89536"
}
