{
  "hash": "a7d7a2fa7b1cc20deff130d1084c2a3597935bec0865a051a15a171e210a4251",
  "confirmations": 3542,
  "strippedsize": 3455,
  "size": 3711,
  "weight": 14076,
  "height": 1357453,
  "version": 536870912,
  "versionHex": "20000000",
  "merkleroot": "d548df647b2bca91f9c6ef0e2fe3652024bbe6856c4d9e6cc046cefefea97372",
  "tx": [
    {
      "txid": "1263e5b9b61a99612548df3285f4e317b2ec22619adeadf2e9383ece0a9960d2",
      "hash": "38fe60924b977005408203dc9f2ae241daebb4d5a3ee5513fb1f28083a768a65",
      "version": 1,
      "size": 253,
      "vsize": 226,
      "locktime": 0,
      "vin": [
        {
          "coinbase": "038db61441d69aea5b91be1441d69aea5b90d56a2f4c54432e544f502ffabe6d6d9aea4d771a35bd26654c1915d8dacc13fb9f547c0d0d313f666aa9078c092b44010000000000000068362f340200000000000000",
          "sequence": 4294967295
        }
      ],
      "vout": [
        {
          "value": 25.00744900,
          "n": 0,
          "scriptPubKey": {
            "asm": "OP_DUP OP_HASH160 0c617fdb2ea42aed30a509595ee21ba3f6688db0 OP_EQUALVERIFY OP_CHECKSIG",
            "hex": "76a9140c617fdb2ea42aed30a509595ee21ba3f6688db088ac",
            "reqSigs": 1,
            "type": "pubkeyhash",
            "addresses": [
              "LLMRAtr3qBje2ySEa3CnZ55LA4TQMWnRY3"
            ]
          }
        }, 
        {
          "value": 0.00000000,
          "n": 1,
          "scriptPubKey": {
            "asm": "OP_RETURN aa21a9ed3f53603dbf905ab1e3e56b1d933fb0a294a29ccdf17287aa734679a59c25759b",
            "hex": "6a24aa21a9ed3f53603dbf905ab1e3e56b1d933fb0a294a29ccdf17287aa734679a59c25759b",
            "type": "nulldata"
          }
        }
      ],
      "hex": "010000000001010000000000000000000000000000000000000000000000000000000000000000ffffffff55038db61441d69aea5b91be1441d69aea5b90d56a2f4c54432e544f502ffabe6d6d9aea4d771a35bd26654c1915d8dacc13fb9f547c0d0d313f666aa9078c092b44010000000000000068362f340200000000000000ffffffff02c4560e95000000001976a9140c617fdb2ea42aed30a509595ee21ba3f6688db088ac0000000000000000266a24aa21a9ed3f53603dbf905ab1e3e56b1d933fb0a294a29ccdf17287aa734679a59c25759b0120000000000000000000000000000000000000000000000000000000000000000000000000"
    }, 
    {
      "txid": "c76bdc4acea56d0708410ae74a3ddf00c2b946260096ef2b899c301d99d29862",
      "hash": "c76bdc4acea56d0708410ae74a3ddf00c2b946260096ef2b899c301d99d29862",
      "version": 1,
      "size": 191,
      "vsize": 191,
      "locktime": 0,
      "vin": [
        {
          "txid": "7a914b987a174c14d940785215cebe1f5ccfd65d241b1e49272f9c9d903385e7",
          "vout": 1,
          "scriptSig": {
            "asm": "304402201407725befa8b48982d4bbe30de2245be37328a8236e1171aa3c1a3a463bc65c02200175947a6ad3e2bdd1bea8c2d34dc38ab1612074d4906b9c286ec32662388121[ALL] 02ac072c7394107e233e6341a61d41579e5f4965cbefd23eff51ede0fdb6f25ae4",
            "hex": "47304402201407725befa8b48982d4bbe30de2245be37328a8236e1171aa3c1a3a463bc65c02200175947a6ad3e2bdd1bea8c2d34dc38ab1612074d4906b9c286ec32662388121012102ac072c7394107e233e6341a61d41579e5f4965cbefd23eff51ede0fdb6f25ae4"
          },
          "sequence": 4294967295
        }
      ],
      "vout": [
        {
          "value": 0.55303069,
          "n": 0,
          "scriptPubKey": {
            "asm": "OP_DUP OP_HASH160 54d723d9769e39d0434129aa7b0f0b7ae8513946 OP_EQUALVERIFY OP_CHECKSIG",
            "hex": "76a91454d723d9769e39d0434129aa7b0f0b7ae851394688ac",
            "reqSigs": 1,
            "type": "pubkeyhash",
            "addresses": [
              "LSxYkX2pA3429BnARXa4kwv3RK27RwKTqT"
            ]
          }
        }
      ],
      "hex": "0100000001e78533909d9c2f27491e1b245dd6cf5c1fbece15527840d9144c177a984b917a010000006a47304402201407725befa8b48982d4bbe30de2245be37328a8236e1171aa3c1a3a463bc65c02200175947a6ad3e2bdd1bea8c2d34dc38ab1612074d4906b9c286ec32662388121012102ac072c7394107e233e6341a61d41579e5f4965cbefd23eff51ede0fdb6f25ae4ffffffff019ddb4b03000000001976a91454d723d9769e39d0434129aa7b0f0b7ae851394688ac00000000"
    }, 
    {
      "txid": "37a3a989e71e3029949f3b65eb6da9b5d5c7ccd68dc2936fe5ab7f31566d4627",
      "hash": "37a3a989e71e3029949f3b65eb6da9b5d5c7ccd68dc2936fe5ab7f31566d4627",
      "version": 1,
      "size": 225,
      "vsize": 225,
      "locktime": 0,
      "vin": [
        {
          "txid": "758d30bc0b56c81e2a847181075f27b034be7455216ba2157b236efea06da17c",
          "vout": 1,
          "scriptSig": {
            "asm": "304402205a41c4a6c88d4bfac15c4e7a169f556ae0f8505908451f2022334681e82ab2fe02202ff7355c5fc506d5b9859ff1b28297b85a0154259b53fabbfa85e201acfaf5b9[ALL] 0234bf87c63d3389cd9dbf86449b21e420c8a38395456a6abab7c63fc1cd24f3d1",
            "hex": "47304402205a41c4a6c88d4bfac15c4e7a169f556ae0f8505908451f2022334681e82ab2fe02202ff7355c5fc506d5b9859ff1b28297b85a0154259b53fabbfa85e201acfaf5b901210234bf87c63d3389cd9dbf86449b21e420c8a38395456a6abab7c63fc1cd24f3d1"
          },
          "sequence": 4294967295
        }
      ],
      "vout": [
        {
          "value": 30.00000000,
          "n": 0,
          "scriptPubKey": {
            "asm": "OP_DUP OP_HASH160 24d8cc2fcd64cb11129e11ed6ffa17e72fec1d03 OP_EQUALVERIFY OP_CHECKSIG",
            "hex": "76a91424d8cc2fcd64cb11129e11ed6ffa17e72fec1d0388ac",
            "reqSigs": 1,
            "type": "pubkeyhash",
            "addresses": [
              "LNanJUpnwU61rxNCEw88ni9wiU6jSMAXpC"
            ]
          }
        }, 
        {
          "value": 4.99213474,
          "n": 1,
          "scriptPubKey": {
            "asm": "OP_DUP OP_HASH160 1ca6e2bc1e3dff5995b93fece3613740212f9f56 OP_EQUALVERIFY OP_CHECKSIG",
            "hex": "76a9141ca6e2bc1e3dff5995b93fece3613740212f9f5688ac",
            "reqSigs": 1,
            "type": "pubkeyhash",
            "addresses": [
              "LMqT71EPoaFxdRsQyeqeD58ReRSvmBKaUv"
            ]
          }
        }
      ],
      "hex": "01000000017ca16da0fe6e237b15a26b215574be34b0275f078171842a1ec8560bbc308d75010000006a47304402205a41c4a6c88d4bfac15c4e7a169f556ae0f8505908451f2022334681e82ab2fe02202ff7355c5fc506d5b9859ff1b28297b85a0154259b53fabbfa85e201acfaf5b901210234bf87c63d3389cd9dbf86449b21e420c8a38395456a6abab7c63fc1cd24f3d1ffffffff02005ed0b2000000001976a91424d8cc2fcd64cb11129e11ed6ffa17e72fec1d0388aca264c11d000000001976a9141ca6e2bc1e3dff5995b93fece3613740212f9f5688ac00000000"
    }, 
    {
      "txid": "3a4ba355e6bf15e08b241029fff7503a0f35013ad225d5da6f07bd5f2851819b",
      "hash": "3a4ba355e6bf15e08b241029fff7503a0f35013ad225d5da6f07bd5f2851819b",
      "version": 1,
      "size": 335,
      "vsize": 335,
      "locktime": 0,
      "vin": [
        {
          "txid": "12677dd348df27aeca1f17d9b92216aceaa75685481df42676ab893b10312891",
          "vout": 5,
          "scriptSig": {
            "asm": "0 30440220789c8b67f33ee5616b1b20a97e014e682ce5ba6710f1e24361d8706c27a9549a02206d3f99acea2103e77c920cb22b84692239d80891ba2a885fe4ea65d88fa33d8c[ALL] 304502210080db37a25d6d91f380e7c90e8cc2397ca45921050d89f490b1ba81f1b3e1506002203e61bec1e8c2767d96cf5810d5a4367036387c1a5ae3e0c8768dfe08ba28bf27[ALL] 522103d29c4ae1256357c6d8e22362d8109cb07bcaad6668dfed8ad48fd8e32d6db9462102dd856fe2ec0682022c100311c82a5710108d074b021dac4bf7d642429deeac3852ae",
            "hex": "004730440220789c8b67f33ee5616b1b20a97e014e682ce5ba6710f1e24361d8706c27a9549a02206d3f99acea2103e77c920cb22b84692239d80891ba2a885fe4ea65d88fa33d8c0148304502210080db37a25d6d91f380e7c90e8cc2397ca45921050d89f490b1ba81f1b3e1506002203e61bec1e8c2767d96cf5810d5a4367036387c1a5ae3e0c8768dfe08ba28bf270147522103d29c4ae1256357c6d8e22362d8109cb07bcaad6668dfed8ad48fd8e32d6db9462102dd856fe2ec0682022c100311c82a5710108d074b021dac4bf7d642429deeac3852ae"
          },
          "sequence": 4294967295
        }
      ],
      "vout": [
        {
          "value": 0.38521100,
          "n": 0,
          "scriptPubKey": {
            "asm": "OP_DUP OP_HASH160 0934b287ff964b9879d7dbf5898cc864ed395394 OP_EQUALVERIFY OP_CHECKSIG",
            "hex": "76a9140934b287ff964b9879d7dbf5898cc864ed39539488ac",
            "reqSigs": 1,
            "type": "pubkeyhash",
            "addresses": [
              "LL4dURCz6bBKLFvkYRLrZxR5SYsoozLWZu"
            ]
          }
        }, 
        {
          "value": 5.84874300,
          "n": 1,
          "scriptPubKey": {
            "asm": "OP_HASH160 e7adc870aa0ddd49102d377dd0c3e7170b74ce02 OP_EQUAL",
            "hex": "a914e7adc870aa0ddd49102d377dd0c3e7170b74ce0287",
            "reqSigs": 1,
            "type": "scripthash",
            "addresses": [
              "MV2AWPtMSaexwLNEbgQ6PUTSfmagvcVron"
            ]
          }
        }
      ],
      "hex": "0100000001912831103b89ab7626f41d488556a7eaac1622b9d9171fcaae27df48d37d671205000000da004730440220789c8b67f33ee5616b1b20a97e014e682ce5ba6710f1e24361d8706c27a9549a02206d3f99acea2103e77c920cb22b84692239d80891ba2a885fe4ea65d88fa33d8c0148304502210080db37a25d6d91f380e7c90e8cc2397ca45921050d89f490b1ba81f1b3e1506002203e61bec1e8c2767d96cf5810d5a4367036387c1a5ae3e0c8768dfe08ba28bf270147522103d29c4ae1256357c6d8e22362d8109cb07bcaad6668dfed8ad48fd8e32d6db9462102dd856fe2ec0682022c100311c82a5710108d074b021dac4bf7d642429deeac3852aeffffffff020cc94b02000000001976a9140934b287ff964b9879d7dbf5898cc864ed39539488ac3c79dc220000000017a914e7adc870aa0ddd49102d377dd0c3e7170b74ce028700000000"
    }, 
    {
      "txid": "6d006e85e0a250db9db9168ee6438b153fc2a0f338bb47f7aea26b7941d9486b",
      "hash": "9136d63d0596fe07f4b12e21ac256bb25b3d7b3417c3fc6b30457fe0e34976b8",
      "version": 1,
      "size": 372,
      "vsize": 207,
      "locktime": 0,
      "vin": [
        {
          "txid": "d18444ba880ed5977df1493f14c822c428b207721f98d84c82a69a409686c863",
          "vout": 1,
          "scriptSig": {
            "asm": "0020073eb3a2e7d5bc945641bb77189b56aefd2d7f030f3d8fbe581506c6a23c6712",
            "hex": "220020073eb3a2e7d5bc945641bb77189b56aefd2d7f030f3d8fbe581506c6a23c6712"
          },
          "txinwitness": [
            "", 
            "3044022054623b94353107536d3262500ea14ceccdc10faa633a92e87bc1357c6cde97320220673a4a8a776673d863fe886e6482511965fc4fff00c335429e36ff5ff826ab9501", 
            "30440220780e0c5654898701f3522b5d2405163ec5449cd04135cf92321c3b1edb362bda022024c5ddde0bc564659d61fab934990136f5bb875e0a1e6b2395f9f8fa31e8ef9601", 
            "522103e7dfea3845312d0b5b3412099fc6472104784a7f2d4c5ebb1ea4d6bb470eeb6321020f2fea6018ec3a73e671484acfea91e6c59b61c3519137ab9d138c3a87c1a5cb52ae"
          ],
          "sequence": 4294967295
        }
      ],
      "vout": [
        {
          "value": 0.16757800,
          "n": 0,
          "scriptPubKey": {
            "asm": "OP_DUP OP_HASH160 a6a6e31a998c50b63c7044314b58714daa766541 OP_EQUALVERIFY OP_CHECKSIG",
            "hex": "76a914a6a6e31a998c50b63c7044314b58714daa76654188ac",
            "reqSigs": 1,
            "type": "pubkeyhash",
            "addresses": [
              "LaR8MaTBaRMuUMgHQdixB8YNSsVXzHYjZ8"
            ]
          }
        }, 
        {
          "value": 172.19278210,
          "n": 1,
          "scriptPubKey": {
            "asm": "OP_HASH160 e4bee272fa2b9b67dd91379a001e593e34fcee8b OP_EQUAL",
            "hex": "a914e4bee272fa2b9b67dd91379a001e593e34fcee8b87",
            "reqSigs": 1,
            "type": "scripthash",
            "addresses": [
              "MUkey4RF18vqR93hMV1U2MMRtFZeQLXqoH"
            ]
          }
        }
      ],
      "hex": "0100000000010163c88696409aa6824cd8981f7207b228c422c8143f49f17d97d50e88ba4484d10100000023220020073eb3a2e7d5bc945641bb77189b56aefd2d7f030f3d8fbe581506c6a23c6712ffffffff0228b4ff00000000001976a914a6a6e31a998c50b63c7044314b58714daa76654188ac825559020400000017a914e4bee272fa2b9b67dd91379a001e593e34fcee8b870400473044022054623b94353107536d3262500ea14ceccdc10faa633a92e87bc1357c6cde97320220673a4a8a776673d863fe886e6482511965fc4fff00c335429e36ff5ff826ab95014730440220780e0c5654898701f3522b5d2405163ec5449cd04135cf92321c3b1edb362bda022024c5ddde0bc564659d61fab934990136f5bb875e0a1e6b2395f9f8fa31e8ef960147522103e7dfea3845312d0b5b3412099fc6472104784a7f2d4c5ebb1ea4d6bb470eeb6321020f2fea6018ec3a73e671484acfea91e6c59b61c3519137ab9d138c3a87c1a5cb52ae00000000"
    }, 
    {
      "txid": "84980941339e9d981e351b99004930d3dc6fc57591b9bd250a8a99df1bf50d93",
      "hash": "84980941339e9d981e351b99004930d3dc6fc57591b9bd250a8a99df1bf50d93",
      "version": 2,
      "size": 225,
      "vsize": 225,
      "locktime": 1357438,
      "vin": [
        {
          "txid": "1b9d34fe69b708fbfbd12b31e65f1a38dbf3e233eea3114d765eb620f66ec8b5",
          "vout": 0,
          "scriptSig": {
            "asm": "30440220573107c8e55ca68df81221d000488572b0d10a28f0e9159b3571ef45d5cefa7e0220542d0e8e7cbbb30dd6b6e30ec186d3610b5c7455bb1b86416ced03545703bdfc[ALL] 0345a0b58a5898dc183f466945f3416341488e71d04690e6aa35ca79e53b0d70ec",
            "hex": "4730440220573107c8e55ca68df81221d000488572b0d10a28f0e9159b3571ef45d5cefa7e0220542d0e8e7cbbb30dd6b6e30ec186d3610b5c7455bb1b86416ced03545703bdfc01210345a0b58a5898dc183f466945f3416341488e71d04690e6aa35ca79e53b0d70ec"
          },
          "sequence": 4294967294
        }
      ],
      "vout": [
        {
          "value": 1.09654285,
          "n": 0,
          "scriptPubKey": {
            "asm": "OP_DUP OP_HASH160 79d98cb79aac30c05223b6a82a0330cfc10cbb8d OP_EQUALVERIFY OP_CHECKSIG",
            "hex": "76a91479d98cb79aac30c05223b6a82a0330cfc10cbb8d88ac",
            "reqSigs": 1,
            "type": "pubkeyhash",
            "addresses": [
              "LWLEe3LEb1JmDeDsRWz2YeWv9Haa48LzMj"
            ]
          }
        }, 
        {
          "value": 0.76663913,
          "n": 1,
          "scriptPubKey": {
            "asm": "OP_DUP OP_HASH160 01826c3529bf9716c262acb09c950a0ae12e63ae OP_EQUALVERIFY OP_CHECKSIG",
            "hex": "76a91401826c3529bf9716c262acb09c950a0ae12e63ae88ac",
            "reqSigs": 1,
            "type": "pubkeyhash",
            "addresses": [
              "LKMwBLCvZQeZuEuaB17riir6BdgnvUCEgy"
            ]
          }
        }
      ],
      "hex": "0200000001b5c86ef620b65e764d11a3ee33e2f3db381a5fe6312bd1fbfb08b769fe349d1b000000006a4730440220573107c8e55ca68df81221d000488572b0d10a28f0e9159b3571ef45d5cefa7e0220542d0e8e7cbbb30dd6b6e30ec186d3610b5c7455bb1b86416ced03545703bdfc01210345a0b58a5898dc183f466945f3416341488e71d04690e6aa35ca79e53b0d70ecfeffffff020d318906000000001976a91479d98cb79aac30c05223b6a82a0330cfc10cbb8d88ac69cc9104000000001976a91401826c3529bf9716c262acb09c950a0ae12e63ae88ac7eb61400"
    }, 
    {
      "txid": "32985492401ec296e04e512580e1f87f5d611748e793b5f188535d87211aa208",
      "hash": "32985492401ec296e04e512580e1f87f5d611748e793b5f188535d87211aa208",
      "version": 1,
      "size": 225,
      "vsize": 225,
      "locktime": 0,
      "vin": [
        {
          "txid": "fcb8baa3f9c740692bad3e7f0a1e5c0efe1c518c98ed56d9e115da5d836b0a13",
          "vout": 1,
          "scriptSig": {
            "asm": "304402206c84f6d2e843cd792e59e9dff2d2fa72ded4fc6d378e2d1394d58b46bb3731e0022070dc684142e778934a81ace2e18a5fb3e86bd0551a901042663b16efebf4359b[ALL] 02157a80ed7e59ff34f6a1dd1eeaa18a153e1d1291eab9b4cf7174cdff1ee27dfd",
            "hex": "47304402206c84f6d2e843cd792e59e9dff2d2fa72ded4fc6d378e2d1394d58b46bb3731e0022070dc684142e778934a81ace2e18a5fb3e86bd0551a901042663b16efebf4359b012102157a80ed7e59ff34f6a1dd1eeaa18a153e1d1291eab9b4cf7174cdff1ee27dfd"
          },
          "sequence": 4294967295
        }
      ],
      "vout": [
        {
          "value": 0.00749081,
          "n": 0,
          "scriptPubKey": {
            "asm": "OP_DUP OP_HASH160 aab6ebe3be99cc1fcb3c1a63d777d7abb7a2bcf9 OP_EQUALVERIFY OP_CHECKSIG",
            "hex": "76a914aab6ebe3be99cc1fcb3c1a63d777d7abb7a2bcf988ac",
            "reqSigs": 1,
            "type": "pubkeyhash",
            "addresses": [
              "LancGRq8hDUJbg1VxREtHP9QYDd7sAYwtt"
            ]
          }
        }, 
        {
          "value": 0.41175503,
          "n": 1,
          "scriptPubKey": {
            "asm": "OP_DUP OP_HASH160 a0a38e16f7dda73c03f2d58cd0764be0f478a586 OP_EQUALVERIFY OP_CHECKSIG",
            "hex": "76a914a0a38e16f7dda73c03f2d58cd0764be0f478a58688ac",
            "reqSigs": 1,
            "type": "pubkeyhash",
            "addresses": [
              "LZsLJugcJ2ewDdZRK2JgS8TbQC7LkVPhNS"
            ]
          }
        }
      ],
      "hex": "0100000001130a6b835dda15e1d956ed988c511cfe0e5c1e0a7f3ead2b6940c7f9a3bab8fc010000006a47304402206c84f6d2e843cd792e59e9dff2d2fa72ded4fc6d378e2d1394d58b46bb3731e0022070dc684142e778934a81ace2e18a5fb3e86bd0551a901042663b16efebf4359b012102157a80ed7e59ff34f6a1dd1eeaa18a153e1d1291eab9b4cf7174cdff1ee27dfdffffffff02196e0b00000000001976a914aab6ebe3be99cc1fcb3c1a63d777d7abb7a2bcf988accf497402000000001976a914a0a38e16f7dda73c03f2d58cd0764be0f478a58688ac00000000"
    }, 
    {
      "txid": "157cda6c9c9f00f78b14dc49e73cb733b256768295d8c8a608e19f137f298fa4",
      "hash": "157cda6c9c9f00f78b14dc49e73cb733b256768295d8c8a608e19f137f298fa4",
      "version": 1,
      "size": 225,
      "vsize": 225,
      "locktime": 0,
      "vin": [
        {
          "txid": "40861cd06cfc0184c83309edd7e4031253652a8397dbefec84d7201cb4824951",
          "vout": 36,
          "scriptSig": {
            "asm": "304402200524255a6b136d16e466d71ea0d677ebc76de56317f52201d3018441d9057a4202206e0f9e99a05f37d818386724a800c7cb5e5f8a6b01089ddafff474545fe5c613[ALL] 03f2a07c60a9cfbb927a80e82902bc9aa17bcec8603c573596013e593b2ecd68eb",
            "hex": "47304402200524255a6b136d16e466d71ea0d677ebc76de56317f52201d3018441d9057a4202206e0f9e99a05f37d818386724a800c7cb5e5f8a6b01089ddafff474545fe5c613012103f2a07c60a9cfbb927a80e82902bc9aa17bcec8603c573596013e593b2ecd68eb"
          },
          "sequence": 4294967295
        }
      ],
      "vout": [
        {
          "value": 2.66380953,
          "n": 0,
          "scriptPubKey": {
            "asm": "OP_DUP OP_HASH160 162e72fe79b78fe3270553d6a4e525f1da9e7e8d OP_EQUALVERIFY OP_CHECKSIG",
            "hex": "76a914162e72fe79b78fe3270553d6a4e525f1da9e7e8d88ac",
            "reqSigs": 1,
            "type": "pubkeyhash",
            "addresses": [
              "LMFEmnC411tga9XYo4a1bUL4EKFE9Zajzj"
            ]
          }
        }, 
        {
          "value": 3.74592990,
          "n": 1,
          "scriptPubKey": {
            "asm": "OP_DUP OP_HASH160 9a440d132fa4e2cf1518fdef1fc105b6ac2b4764 OP_EQUALVERIFY OP_CHECKSIG",
            "hex": "76a9149a440d132fa4e2cf1518fdef1fc105b6ac2b476488ac",
            "reqSigs": 1,
            "type": "pubkeyhash",
            "addresses": [
              "LZHdr2V6wkNqYkRDo81Bto2evYZ8LTBgMq"
            ]
          }
        }
      ],
      "hex": "0100000001514982b41c20d784ecefdb97832a65531203e4d7ed0933c88401fc6cd01c8640240000006a47304402200524255a6b136d16e466d71ea0d677ebc76de56317f52201d3018441d9057a4202206e0f9e99a05f37d818386724a800c7cb5e5f8a6b01089ddafff474545fe5c613012103f2a07c60a9cfbb927a80e82902bc9aa17bcec8603c573596013e593b2ecd68ebffffffff0299a6e00f000000001976a914162e72fe79b78fe3270553d6a4e525f1da9e7e8d88acded55316000000001976a9149a440d132fa4e2cf1518fdef1fc105b6ac2b476488ac00000000"
    }, 
    {
      "txid": "967ec809f84313065b95605c31287542ef3e5e5bd4798ab7fc30088c4f9f21bf",
      "hash": "967ec809f84313065b95605c31287542ef3e5e5bd4798ab7fc30088c4f9f21bf",
      "version": 1,
      "size": 225,
      "vsize": 225,
      "locktime": 0,
      "vin": [
        {
          "txid": "11b2cb5369f7e126f3a2f2d87fe4b8b228721588fb3779db03e68453697bf89b",
          "vout": 0,
          "scriptSig": {
            "asm": "3044022052e627668665c1f335f145b57a15ce7f87af504c8b85c321fbca17cc49140aff02206ee3cf226ad24bf4c401ac3afef0ab337cfd942673123bc5d16a809803cdd6ba[ALL] 02724307160522fef6f4ec4165a0eced6e55bcd7b2824b4a53b0a8bcdd0436f953",
            "hex": "473044022052e627668665c1f335f145b57a15ce7f87af504c8b85c321fbca17cc49140aff02206ee3cf226ad24bf4c401ac3afef0ab337cfd942673123bc5d16a809803cdd6ba012102724307160522fef6f4ec4165a0eced6e55bcd7b2824b4a53b0a8bcdd0436f953"
          },
          "sequence": 4294967295
        }
      ],
      "vout": [
        {
          "value": 0.04684309,
          "n": 0,
          "scriptPubKey": {
            "asm": "OP_DUP OP_HASH160 070d1ed46b0924d6a4bf1d3c33439f2eacd547a9 OP_EQUALVERIFY OP_CHECKSIG",
            "hex": "76a914070d1ed46b0924d6a4bf1d3c33439f2eacd547a988ac",
            "reqSigs": 1,
            "type": "pubkeyhash",
            "addresses": [
              "LKsEiBM59Dd7FAZCLaKxPvWQVZXJ6nssmt"
            ]
          }
        }, 
        {
          "value": 0.44114201,
          "n": 1,
          "scriptPubKey": {
            "asm": "OP_DUP OP_HASH160 07cb6fa94c1758469d49e4d675c4618f083dce31 OP_EQUALVERIFY OP_CHECKSIG",
            "hex": "76a91407cb6fa94c1758469d49e4d675c4618f083dce3188ac",
            "reqSigs": 1,
            "type": "pubkeyhash",
            "addresses": [
              "LKwAhYonqmSf1Ky8XuVBZk3cBZLBkqrZjB"
            ]
          }
        }
      ],
      "hex": "01000000019bf87b695384e603db7937fb88157228b2b8e47fd8f2a2f326e1f76953cbb211000000006a473044022052e627668665c1f335f145b57a15ce7f87af504c8b85c321fbca17cc49140aff02206ee3cf226ad24bf4c401ac3afef0ab337cfd942673123bc5d16a809803cdd6ba012102724307160522fef6f4ec4165a0eced6e55bcd7b2824b4a53b0a8bcdd0436f953ffffffff02157a4700000000001976a914070d1ed46b0924d6a4bf1d3c33439f2eacd547a988ac1921a102000000001976a91407cb6fa94c1758469d49e4d675c4618f083dce3188ac00000000"
    }, 
    {
      "txid": "4f63bb3b9f60cf29fbae5aa09f66b879664bfc719b49aa373c2bacdfce2e22cc",
      "hash": "4f63bb3b9f60cf29fbae5aa09f66b879664bfc719b49aa373c2bacdfce2e22cc",
      "version": 1,
      "size": 225,
      "vsize": 225,
      "locktime": 0,
      "vin": [
        {
          "txid": "3633c0dea395541ba4bf9807f1de92b014967732ac13eb99b7b277effe23099a",
          "vout": 3,
          "scriptSig": {
            "asm": "30440220387619dd5de595956a6ffc3b252e5b3d101621351ad7cbc8d92c200d8b96536c02206c08cbeeb18073acb99f1d9fc590297b14ed1b6f66f9f31fcc2f896750b9a930[ALL] 0341ac0fa0ac66030638bc49358a6c0afff30f30e9cc91843b46d5c57faf126bc2",
            "hex": "4730440220387619dd5de595956a6ffc3b252e5b3d101621351ad7cbc8d92c200d8b96536c02206c08cbeeb18073acb99f1d9fc590297b14ed1b6f66f9f31fcc2f896750b9a93001210341ac0fa0ac66030638bc49358a6c0afff30f30e9cc91843b46d5c57faf126bc2"
          },
          "sequence": 4294967295
        }
      ],
      "vout": [
        {
          "value": 2.86258000,
          "n": 0,
          "scriptPubKey": {
            "asm": "OP_DUP OP_HASH160 7cb9df2d0017bbd0b96838a439dcbf4edc0c6472 OP_EQUALVERIFY OP_CHECKSIG",
            "hex": "76a9147cb9df2d0017bbd0b96838a439dcbf4edc0c647288ac",
            "reqSigs": 1,
            "type": "pubkeyhash",
            "addresses": [
              "LWbSibcuEZSRzLUux5H8gmjKmxHAkCYmFY"
            ]
          }
        }, 
        {
          "value": 0.17924419,
          "n": 1,
          "scriptPubKey": {
            "asm": "OP_DUP OP_HASH160 ee7270e568c53a739e903ad824e591a0b16be59e OP_EQUALVERIFY OP_CHECKSIG",
            "hex": "76a914ee7270e568c53a739e903ad824e591a0b16be59e88ac",
            "reqSigs": 1,
            "type": "pubkeyhash",
            "addresses": [
              "LgxkBNLncX8GjFNf8Hd8B3CYih2xWMSSgz"
            ]
          }
        }
      ],
      "hex": "01000000019a0923feef77b2b799eb13ac32779614b092def10798bfa41b5495a3dec03336030000006a4730440220387619dd5de595956a6ffc3b252e5b3d101621351ad7cbc8d92c200d8b96536c02206c08cbeeb18073acb99f1d9fc590297b14ed1b6f66f9f31fcc2f896750b9a93001210341ac0fa0ac66030638bc49358a6c0afff30f30e9cc91843b46d5c57faf126bc2ffffffff0250f30f11000000001976a9147cb9df2d0017bbd0b96838a439dcbf4edc0c647288ac43811101000000001976a914ee7270e568c53a739e903ad824e591a0b16be59e88ac00000000"
    }, 
    {
      "txid": "440be3863e8dd6a669d5d6fd9581c805c5b3f48d431db40af5e3cb0c126296f5",
      "hash": "440be3863e8dd6a669d5d6fd9581c805c5b3f48d431db40af5e3cb0c126296f5",
      "version": 1,
      "size": 225,
      "vsize": 225,
      "locktime": 0,
      "vin": [
        {
          "txid": "844141c78f469574fd298a4223a78ebf183550635c222214ada4bcc8551856c2",
          "vout": 46,
          "scriptSig": {
            "asm": "304402200ee6d6cf217164f081192cd82fec3bbab82fbb8125070caf689814f8418e83f802205f0d42f403734a7b6914e42663ca3bc318b65b6e0ba07db859626aa807b38f2e[ALL] 03bb726f296da20b15b046ec3b42bb3c95cbfaf16d70614c6bfd696948501d32ef",
            "hex": "47304402200ee6d6cf217164f081192cd82fec3bbab82fbb8125070caf689814f8418e83f802205f0d42f403734a7b6914e42663ca3bc318b65b6e0ba07db859626aa807b38f2e012103bb726f296da20b15b046ec3b42bb3c95cbfaf16d70614c6bfd696948501d32ef"
          },
          "sequence": 4294967295
        }
      ],
      "vout": [
        {
          "value": 0.02921746,
          "n": 0,
          "scriptPubKey": {
            "asm": "OP_DUP OP_HASH160 25a54b12d96da7413afab6bf0119c4e61d2ca955 OP_EQUALVERIFY OP_CHECKSIG",
            "hex": "76a91425a54b12d96da7413afab6bf0119c4e61d2ca95588ac",
            "reqSigs": 1,
            "type": "pubkeyhash",
            "addresses": [
              "LNf1H62iMbFEvpgfNbLo8qkR2HooZT9sCt"
            ]
          }
        }, 
        {
          "value": 0.22055654,
          "n": 1,
          "scriptPubKey": {
            "asm": "OP_DUP OP_HASH160 6dd82f2cbaa45eeab7c83991c3793aef44bb084e OP_EQUALVERIFY OP_CHECKSIG",
            "hex": "76a9146dd82f2cbaa45eeab7c83991c3793aef44bb084e88ac",
            "reqSigs": 1,
            "type": "pubkeyhash",
            "addresses": [
              "LVEktsNq8ySNhT2kCsdRySXzbYjqQMB853"
            ]
          }
        }
      ],
      "hex": "0100000001c2561855c8bca4ad1422225c63503518bf8ea723428a29fd7495468fc74141842e0000006a47304402200ee6d6cf217164f081192cd82fec3bbab82fbb8125070caf689814f8418e83f802205f0d42f403734a7b6914e42663ca3bc318b65b6e0ba07db859626aa807b38f2e012103bb726f296da20b15b046ec3b42bb3c95cbfaf16d70614c6bfd696948501d32efffffffff0212952c00000000001976a91425a54b12d96da7413afab6bf0119c4e61d2ca95588ace68a5001000000001976a9146dd82f2cbaa45eeab7c83991c3793aef44bb084e88ac00000000"
    }, 
    {
      "txid": "51f6c229eae4c165569584eaf4d87a81983cdcc3807fc434bd38df49b5119121",
      "hash": "51f6c229eae4c165569584eaf4d87a81983cdcc3807fc434bd38df49b5119121",
      "version": 1,
      "size": 226,
      "vsize": 226,
      "locktime": 0,
      "vin": [
        {
          "txid": "6f16731b54ce0070f84a4bef5e9444d410d50c9b2b3a9f11739700f7d2c5506e",
          "vout": 1,
          "scriptSig": {
            "asm": "3045022100c4c001579c31704e0e22f7182a645526ae8998aaf8ab1b85a53547e0e5942dd60220743c7ec46d283a85a9163b8b7f4673c7e65eaddc56abec786fb49d038c1d136b[ALL] 0315154ac43530bc942d98762a7807689d851502b013f5e2339142fc61a4c80728",
            "hex": "483045022100c4c001579c31704e0e22f7182a645526ae8998aaf8ab1b85a53547e0e5942dd60220743c7ec46d283a85a9163b8b7f4673c7e65eaddc56abec786fb49d038c1d136b01210315154ac43530bc942d98762a7807689d851502b013f5e2339142fc61a4c80728"
          },
          "sequence": 4294967295
        }
      ],
      "vout": [
        {
          "value": 1.08496538,
          "n": 0,
          "scriptPubKey": {
            "asm": "OP_DUP OP_HASH160 5bfe8fbe3ee495c9ef67702c352abc6f59c32bb2 OP_EQUALVERIFY OP_CHECKSIG",
            "hex": "76a9145bfe8fbe3ee495c9ef67702c352abc6f59c32bb288ac",
            "reqSigs": 1,
            "type": "pubkeyhash",
            "addresses": [
              "LTcNhusjE8jhMRrodKsbMsPhokoKfTHMXH"
            ]
          }
        }, 
        {
          "value": 51.15962564,
          "n": 1,
          "scriptPubKey": {
            "asm": "OP_DUP OP_HASH160 e8eb693be8a7168e87952a9a12d58f92ff4d9038 OP_EQUALVERIFY OP_CHECKSIG",
            "hex": "76a914e8eb693be8a7168e87952a9a12d58f92ff4d903888ac",
            "reqSigs": 1,
            "type": "pubkeyhash",
            "addresses": [
              "LgTX3NA75wj8sVeQgUmUxXATG84ASomP88"
            ]
          }
        }
      ],
      "hex": "01000000016e50c5d2f7009773119f3a2b9b0cd510d444945eef4b4af87000ce541b73166f010000006b483045022100c4c001579c31704e0e22f7182a645526ae8998aaf8ab1b85a53547e0e5942dd60220743c7ec46d283a85a9163b8b7f4673c7e65eaddc56abec786fb49d038c1d136b01210315154ac43530bc942d98762a7807689d851502b013f5e2339142fc61a4c80728ffffffff029a867706000000001976a9145bfe8fbe3ee495c9ef67702c352abc6f59c32bb288acc464ef30010000001976a914e8eb693be8a7168e87952a9a12d58f92ff4d903888ac00000000"
    }, 
    {
      "txid": "0c1144499795ac80c947158e472d31fe681a618ec62c53dc201aa401bba90843",
      "hash": "0c1144499795ac80c947158e472d31fe681a618ec62c53dc201aa401bba90843",
      "version": 1,
      "size": 226,
      "vsize": 226,
      "locktime": 0,
      "vin": [
        {
          "txid": "9be2dd37eb26b4206e1112809f01f204862e4f95b55637f7c82f1c97097c593d",
          "vout": 1,
          "scriptSig": {
            "asm": "3045022100d3660911e266f671a2a970900284c80e94533ea7787c938e910eaf790695b23202207f91c2f6d26e3f8b2a7c2f1d8bfe72732f2739f995fd78de7dee78db7f9aefa3[ALL] 036a2b502060cd5e39c76cecb50fc2049098057f2e76468bc78d6caa4c36e833a0",
            "hex": "483045022100d3660911e266f671a2a970900284c80e94533ea7787c938e910eaf790695b23202207f91c2f6d26e3f8b2a7c2f1d8bfe72732f2739f995fd78de7dee78db7f9aefa30121036a2b502060cd5e39c76cecb50fc2049098057f2e76468bc78d6caa4c36e833a0"
          },
          "sequence": 4294967295
        }
      ],
      "vout": [
        {
          "value": 7.10455136,
          "n": 0,
          "scriptPubKey": {
            "asm": "OP_DUP OP_HASH160 bc23de02a8cc9832502dbe92357a052452d92627 OP_EQUALVERIFY OP_CHECKSIG",
            "hex": "76a914bc23de02a8cc9832502dbe92357a052452d9262788ac",
            "reqSigs": 1,
            "type": "pubkeyhash",
            "addresses": [
              "LcNkGNkYHa6TVpBrchnb1ffToSD9AFPvXZ"
            ]
          }
        }, 
        {
          "value": 0.90068664,
          "n": 1,
          "scriptPubKey": {
            "asm": "OP_DUP OP_HASH160 3a9c0e1360d373d23b1d1bbb441f1303bc530368 OP_EQUALVERIFY OP_CHECKSIG",
            "hex": "76a9143a9c0e1360d373d23b1d1bbb441f1303bc53036888ac",
            "reqSigs": 1,
            "type": "pubkeyhash",
            "addresses": [
              "LQZrQEGHUvT1KwedkUBKzfzpe4VPtQ8tN1"
            ]
          }
        }
      ],
      "hex": "01000000013d597c09971c2fc8f73756b5954f2e8604f2019f8012116e20b426eb37dde29b010000006b483045022100d3660911e266f671a2a970900284c80e94533ea7787c938e910eaf790695b23202207f91c2f6d26e3f8b2a7c2f1d8bfe72732f2739f995fd78de7dee78db7f9aefa30121036a2b502060cd5e39c76cecb50fc2049098057f2e76468bc78d6caa4c36e833a0ffffffff0260af582a000000001976a914bc23de02a8cc9832502dbe92357a052452d9262788acb8565e05000000001976a9143a9c0e1360d373d23b1d1bbb441f1303bc53036888ac00000000"
    }, 
    {
      "txid": "78d63e807bc9c8ab7225b91ea3a7896e1363ac923cfecc31d9fd512476bae46f",
      "hash": "78d63e807bc9c8ab7225b91ea3a7896e1363ac923cfecc31d9fd512476bae46f",
      "version": 1,
      "size": 226,
      "vsize": 226,
      "locktime": 0,
      "vin": [
        {
          "txid": "c157e1105ac531a73e4ef8f82b3b2a6dc6973beba9419637877f3a39510bc6e7",
          "vout": 1,
          "scriptSig": {
            "asm": "3045022100e9e72abcf7e0d8d2a95ac06d5feb60f46dd6fafead825bdb8f38ea2beb139fca02200d58f85ee89939087d5ba13d3f2e913c59188eae7a696bb6f1e0edd54d149009[ALL] 03ba2c35670577cb0e803086b48afdc6bf2ef9c5b0db6e9a4fe79ff41dfbfe83c3",
            "hex": "483045022100e9e72abcf7e0d8d2a95ac06d5feb60f46dd6fafead825bdb8f38ea2beb139fca02200d58f85ee89939087d5ba13d3f2e913c59188eae7a696bb6f1e0edd54d149009012103ba2c35670577cb0e803086b48afdc6bf2ef9c5b0db6e9a4fe79ff41dfbfe83c3"
          },
          "sequence": 4294967295
        }
      ],
      "vout": [
        {
          "value": 0.26515374,
          "n": 0,
          "scriptPubKey": {
            "asm": "OP_DUP OP_HASH160 8554f0120e1c8d2e7b46ee8e014da683e3819981 OP_EQUALVERIFY OP_CHECKSIG",
            "hex": "76a9148554f0120e1c8d2e7b46ee8e014da683e381998188ac",
            "reqSigs": 1,
            "type": "pubkeyhash",
            "addresses": [
              "LXNwtJjXeH3mbYcgHaUx8TdGPe2KxWpNqS"
            ]
          }
        }, 
        {
          "value": 0.04240117,
          "n": 1,
          "scriptPubKey": {
            "asm": "OP_DUP OP_HASH160 347bb6f684d3201bf62ea94001b369b39b80d88d OP_EQUALVERIFY OP_CHECKSIG",
            "hex": "76a914347bb6f684d3201bf62ea94001b369b39b80d88d88ac",
            "reqSigs": 1,
            "type": "pubkeyhash",
            "addresses": [
              "LQ1Tc33yGKTTwbXCM6DB36oZ8n2nf56Mur"
            ]
          }
        }
      ],
      "hex": "0100000001e7c60b51393a7f87379641a9eb3b97c66d2a3b2bf8f84e3ea731c55a10e157c1010000006b483045022100e9e72abcf7e0d8d2a95ac06d5feb60f46dd6fafead825bdb8f38ea2beb139fca02200d58f85ee89939087d5ba13d3f2e913c59188eae7a696bb6f1e0edd54d149009012103ba2c35670577cb0e803086b48afdc6bf2ef9c5b0db6e9a4fe79ff41dfbfe83c3ffffffff02ae979401000000001976a9148554f0120e1c8d2e7b46ee8e014da683e381998188acf5b24000000000001976a914347bb6f684d3201bf62ea94001b369b39b80d88d88ac00000000"
    }, 
    {
      "txid": "dc6c896d881447fc48df42abfa2207ff494649eff2f923e86f11b7e10250f8b7",
      "hash": "dc6c896d881447fc48df42abfa2207ff494649eff2f923e86f11b7e10250f8b7",
      "version": 1,
      "size": 226,
      "vsize": 226,
      "locktime": 0,
      "vin": [
        {
          "txid": "a18c26a3ead940f5c2b3cfddecce5d940dc9c3640023f45fb0e7b23e81182171",
          "vout": 1,
          "scriptSig": {
            "asm": "3045022100a6273ee163e1666d0d84afe06ddf3853f85b8d4bd89587bed1f018b69fc18ce70220581a8d5efde8fdc3fba7786b00e5b725f1c3db3f32b7befa7d2a68fab7757669[ALL] 0289ed90259536bad9736da755f4c17a103cd8db85c0ec7f70bfcfa352c9d852b1",
            "hex": "483045022100a6273ee163e1666d0d84afe06ddf3853f85b8d4bd89587bed1f018b69fc18ce70220581a8d5efde8fdc3fba7786b00e5b725f1c3db3f32b7befa7d2a68fab775766901210289ed90259536bad9736da755f4c17a103cd8db85c0ec7f70bfcfa352c9d852b1"
          },
          "sequence": 4294967295
        }
      ],
      "vout": [
        {
          "value": 0.00054680,
          "n": 0,
          "scriptPubKey": {
            "asm": "OP_DUP OP_HASH160 32784b3045a7e75a7cc6d920b1060d6a797fa413 OP_EQUALVERIFY OP_CHECKSIG",
            "hex": "76a91432784b3045a7e75a7cc6d920b1060d6a797fa41388ac",
            "reqSigs": 1,
            "type": "pubkeyhash",
            "addresses": [
              "LPpp9xVz3EGcMfaaDEZe9ktNLeHuqix7zT"
            ]
          }
        }, 
        {
          "value": 0.04560053,
          "n": 1,
          "scriptPubKey": {
            "asm": "OP_DUP OP_HASH160 e04fc8b7a0dbed16d99724ca11ba6a49e8657fa5 OP_EQUALVERIFY OP_CHECKSIG",
            "hex": "76a914e04fc8b7a0dbed16d99724ca11ba6a49e8657fa588ac",
            "reqSigs": 1,
            "type": "pubkeyhash",
            "addresses": [
              "Lfg1CgAnkgsnM7ZAeb1cT4GfKn7FpYm6JE"
            ]
          }
        }
      ],
      "hex": "0100000001712118813eb2e7b05ff4230064c3c90d945dceecddcfb3c2f540d9eaa3268ca1010000006b483045022100a6273ee163e1666d0d84afe06ddf3853f85b8d4bd89587bed1f018b69fc18ce70220581a8d5efde8fdc3fba7786b00e5b725f1c3db3f32b7befa7d2a68fab775766901210289ed90259536bad9736da755f4c17a103cd8db85c0ec7f70bfcfa352c9d852b1ffffffff0298d50000000000001976a91432784b3045a7e75a7cc6d920b1060d6a797fa41388acb5944500000000001976a914e04fc8b7a0dbed16d99724ca11ba6a49e8657fa588ac00000000"
    }
  ],
  "time": 1517005166,
  "mediantime": 1517004595,
  "nonce": 1474201381,
  "bits": "1a047f14",
  "difficulty": 3731199.183374282,
  "chainwork": "0000000000000000000000000000000000000000000000323cdb1b219bcc656c",
  "previousblockhash": "dba89ab7912d12cd6d3495a44c7715fab4dba6719c630770097b33665cad5096",
  "nextblockhash": "6e23ee31ba42fefd82b2b261fd754cad7d35bb186baf4ac3b892a8a257ce6913"
}
