{
  "hash": "a897f3f81e4fd70ac3a7db87ec3c5608ed1a57178ae29bdf5467ccfc7ff85f46",
  "confirmations": 1913,
  "strippedsize": 254,
  "size": 254,
  "weight": 1016,
  "height": 1359081,
  "version": 536870912,
  "versionHex": "20000000",
  "merkleroot": "68bab1c945d6a4c4543bd040cfc80299e59f655a7f24c11ea87b5f1188d8eb1e",
  "tx": [
    {
      "txid": "68bab1c945d6a4c4543bd040cfc80299e59f655a7f24c11ea87b5f1188d8eb1e",
      "hash": "68bab1c945d6a4c4543bd040cfc80299e59f655a7f24c11ea87b5f1188d8eb1e",
      "version": 1,
      "size": 173,
      "vsize": 173,
      "locktime": 0,
      "vin": [
        {
          "coinbase": "03e9bc141b4d696e656420627920416e74506f6f6c20626a302042205a6f287dfabe6d6dcf787ceffcb8f0134b697b50b0ad57c1c5c4a74276bc2c480ae363cc2ce98319040000000000000073230000000000001b000000",
          "sequence": 4294967295
        }
      ],
      "vout": [
        {
          "value": 25.00000000,
          "n": 0,
          "scriptPubKey": {
            "asm": "OP_DUP OP_HASH160 0ff3ccc5e8be88afe24b5d634e5852d474dbdff1 OP_EQUALVERIFY OP_CHECKSIG",
            "hex": "76a9140ff3ccc5e8be88afe24b5d634e5852d474dbdff188ac",
            "reqSigs": 1,
            "type": "pubkeyhash",
            "addresses": [
              "LLgJTbzZMsRTCUF1NtvvL9SR1a4pVieW89"
            ]
          }
        }
      ],
      "hex": "01000000010000000000000000000000000000000000000000000000000000000000000000ffffffff5803e9bc141b4d696e656420627920416e74506f6f6c20626a302042205a6f287dfabe6d6dcf787ceffcb8f0134b697b50b0ad57c1c5c4a74276bc2c480ae363cc2ce98319040000000000000073230000000000001b000000ffffffff0100f90295000000001976a9140ff3ccc5e8be88afe24b5d634e5852d474dbdff188ac00000000"
    }
  ],
  "time": 1517234301,
  "mediantime": 1517233375,
  "nonce": 224671378,
  "bits": "1a042eae",
  "difficulty": 4011378.762614286,
  "chainwork": "000000000000000000000000000000000000000000000033abe66b8611c8f5d4",
  "previousblockhash": "4bc1860603893cef2441382ae5024f7088ece4f947b68a12e285ef1078bb4503",
  "nextblockhash": "093db12755e0d41e724030518b7ac43d06d9c181586440ec5622e5910e9b7408"
}
