{
  "hash": "a8bf99e5d86a0db49dbf9a68bb92a0563d6aa8b44009d4e40cbad65b9172f0e6",
  "confirmations": 673,
  "strippedsize": 234,
  "size": 234,
  "weight": 936,
  "height": 1360321,
  "version": 536870912,
  "versionHex": "20000000",
  "merkleroot": "e0892e07a32fb1764cbad47c2cdfd671c76cd8fd4f8cdc317e2f7c2509d2ccd5",
  "tx": [
    {
      "txid": "e0892e07a32fb1764cbad47c2cdfd671c76cd8fd4f8cdc317e2f7c2509d2ccd5",
      "hash": "e0892e07a32fb1764cbad47c2cdfd671c76cd8fd4f8cdc317e2f7c2509d2ccd5",
      "version": 1,
      "size": 153,
      "vsize": 153,
      "locktime": 0,
      "vin": [
        {
          "coinbase": "03c1c114045a71dd562cfabe6d6ddf187e144777fb87a59ae84b942ec607930fb0ec9d02183db0c3dfdc0253b0f04000000000000000042f4c502f08220089200a000000",
          "sequence": 4294967295
        }
      ],
      "vout": [
        {
          "value": 25.00000000,
          "n": 0,
          "scriptPubKey": {
            "asm": "OP_DUP OP_HASH160 57757ed2ecf2052ff3126c397aca7defb9ca2cec OP_EQUALVERIFY OP_CHECKSIG",
            "hex": "76a91457757ed2ecf2052ff3126c397aca7defb9ca2cec88ac",
            "reqSigs": 1,
            "type": "pubkeyhash",
            "addresses": [
              "LTCPodGk5FwcJaRzH9yKnwicxzFUbxp6tN"
            ]
          }
        }
      ],
      "hex": "01000000010000000000000000000000000000000000000000000000000000000000000000ffffffff4403c1c114045a71dd562cfabe6d6ddf187e144777fb87a59ae84b942ec607930fb0ec9d02183db0c3dfdc0253b0f04000000000000000042f4c502f08220089200a000000ffffffff0100f90295000000001976a91457757ed2ecf2052ff3126c397aca7defb9ca2cec88ac00000000"
    }
  ],
  "time": 1517411670,
  "mediantime": 1517411219,
  "nonce": 3862848534,
  "bits": "1a042eae",
  "difficulty": 4011378.762614286,
  "chainwork": "000000000000000000000000000000000000000000000034d46277e3c26e0384",
  "previousblockhash": "4eeb9b10bf418f2bc02238bba07c63beb028ce487ab313a634bbf1b8be8676cb",
  "nextblockhash": "e3916fba8e7f39c9e8dd41bbba2b277e930895c19d57d24f62f1a4dc92f733e2"
}
