{
  "hash": "a8c8e314cb68e66542f34008d69fc4594ebf3b1e398d1f687dd8b6ff7fa91aaa",
  "confirmations": 1558,
  "strippedsize": 2874,
  "size": 2910,
  "weight": 11532,
  "height": 1359436,
  "version": 536870912,
  "versionHex": "20000000",
  "merkleroot": "4aed31a30eefda786f7a2202300ab660598907173a89a491798e30bf6c0a6311",
  "tx": [
    {
      "txid": "c77814eb7b05ed193a6262db7a61f46aa9ec96050b42c1aa3531bda00e2b4925",
      "hash": "b8856eba9ea56f105068c7464b90a9eb2684276adfe17f0146a39088a5bf13fb",
      "version": 1,
      "size": 244,
      "vsize": 217,
      "locktime": 0,
      "vin": [
        {
          "coinbase": "034cbe140443e36f5a08016515772f000000fabe6d6ddfdf5b406565a8b0df73ccbb6fa92a70aada721c6f2bf0b4fbd2af94e2fb422f40000000000000000d2f6e6f64655374726174756d2f",
          "sequence": 0
        }
      ],
      "vout": [
        {
          "value": 25.00937635,
          "n": 0,
          "scriptPubKey": {
            "asm": "OP_DUP OP_HASH160 0c617fdb2ea42aed30a509595ee21ba3f6688db0 OP_EQUALVERIFY OP_CHECKSIG",
            "hex": "76a9140c617fdb2ea42aed30a509595ee21ba3f6688db088ac",
            "reqSigs": 1,
            "type": "pubkeyhash",
            "addresses": [
              "LLMRAtr3qBje2ySEa3CnZ55LA4TQMWnRY3"
            ]
          }
        }, 
        {
          "value": 0.00000000,
          "n": 1,
          "scriptPubKey": {
            "asm": "OP_RETURN aa21a9ed66c56c375d4f33337106e28363c450c00db3845b79a22408bd0275e3ed045c20",
            "hex": "6a24aa21a9ed66c56c375d4f33337106e28363c450c00db3845b79a22408bd0275e3ed045c20",
            "type": "nulldata"
          }
        }
      ],
      "hex": "010000000001010000000000000000000000000000000000000000000000000000000000000000ffffffff4c034cbe140443e36f5a08016515772f000000fabe6d6ddfdf5b406565a8b0df73ccbb6fa92a70aada721c6f2bf0b4fbd2af94e2fb422f40000000000000000d2f6e6f64655374726174756d2f0000000002a3471195000000001976a9140c617fdb2ea42aed30a509595ee21ba3f6688db088ac0000000000000000266a24aa21a9ed66c56c375d4f33337106e28363c450c00db3845b79a22408bd0275e3ed045c200120000000000000000000000000000000000000000000000000000000000000000000000000"
    }, 
    {
      "txid": "7f2e6c987a76fc1a5e2f61ee78cd257330d93f962030711c4e631fa0cbb286b9",
      "hash": "7f2e6c987a76fc1a5e2f61ee78cd257330d93f962030711c4e631fa0cbb286b9",
      "version": 1,
      "size": 226,
      "vsize": 226,
      "locktime": 0,
      "vin": [
        {
          "txid": "d9e717b138756eca6629c4cf96775eed8c8887e3e9af6c9565b6c57b5f22d473",
          "vout": 1,
          "scriptSig": {
            "asm": "3045022100b38f5dc91bcbc6b53891cac3920d4739187a53691da1d5d6b78d9bb11ce735ba02206b9e0e7667edca725fbcf132266c1930498a1a18b4bb766627f068dea18f0213[ALL] 02594db84b51cdffbfce9b09f3f73564fd87dfebf2296d5662d69e6fae8ed212bb",
            "hex": "483045022100b38f5dc91bcbc6b53891cac3920d4739187a53691da1d5d6b78d9bb11ce735ba02206b9e0e7667edca725fbcf132266c1930498a1a18b4bb766627f068dea18f0213012102594db84b51cdffbfce9b09f3f73564fd87dfebf2296d5662d69e6fae8ed212bb"
          },
          "sequence": 4294967295
        }
      ],
      "vout": [
        {
          "value": 0.02404947,
          "n": 0,
          "scriptPubKey": {
            "asm": "OP_DUP OP_HASH160 95f6f9ccd3bbb65a867fe99f301e241c926ff3c5 OP_EQUALVERIFY OP_CHECKSIG",
            "hex": "76a91495f6f9ccd3bbb65a867fe99f301e241c926ff3c588ac",
            "reqSigs": 1,
            "type": "pubkeyhash",
            "addresses": [
              "LYttoySS29pV8AULeo1z9pyPDHnDTxNXRv"
            ]
          }
        }, 
        {
          "value": 5.60973968,
          "n": 1,
          "scriptPubKey": {
            "asm": "OP_DUP OP_HASH160 06d828fd2e9dda42f578da6e8cedbfb7444f0d4e OP_EQUALVERIFY OP_CHECKSIG",
            "hex": "76a91406d828fd2e9dda42f578da6e8cedbfb7444f0d4e88ac",
            "reqSigs": 1,
            "type": "pubkeyhash",
            "addresses": [
              "LKr9GS1PV15Rk1kEGMi2mbKG89Liw6FhRn"
            ]
          }
        }
      ],
      "hex": "010000000173d4225f7bc5b665956cafe9e387888ced5e7796cfc42966ca6e7538b117e7d9010000006b483045022100b38f5dc91bcbc6b53891cac3920d4739187a53691da1d5d6b78d9bb11ce735ba02206b9e0e7667edca725fbcf132266c1930498a1a18b4bb766627f068dea18f0213012102594db84b51cdffbfce9b09f3f73564fd87dfebf2296d5662d69e6fae8ed212bbffffffff0253b22400000000001976a91495f6f9ccd3bbb65a867fe99f301e241c926ff3c588ac90c86f21000000001976a91406d828fd2e9dda42f578da6e8cedbfb7444f0d4e88ac00000000"
    }, 
    {
      "txid": "9e498d893d9f94d8fb594ee47b8845dacefc6e5e102efd7593a64deef69f0b80",
      "hash": "9e498d893d9f94d8fb594ee47b8845dacefc6e5e102efd7593a64deef69f0b80",
      "version": 1,
      "size": 336,
      "vsize": 336,
      "locktime": 0,
      "vin": [
        {
          "txid": "cc7d2bb7e8fba055d6b9f0ba5563cbf9d610031db48af11b35c3f5b67326e53f",
          "vout": 1,
          "scriptSig": {
            "asm": "0 3045022100dcbc0cc0058c4a396854d60ae35b2c753cef080d81a8f78b62a6a0c5298998c9022020e437863c592458378f455e74121acd00e0f656d4facab749d5761ef0b61b0e[ALL] 3045022100b973781dcf4a065e54b1fd0f0f6e8784c537e610a2c02c1b50e2740350a705a3022077c2656750273e551549dac129f379f66d15202d5785382a1a8e2092b1adb290[ALL] 522102f77ec37a042ba4e5e6aef7760398bf59b87ac4c5dee30a2fb8798e9630d4916e210276b93401dc495b28592f66411a7c9093b468f8678db51144fc6a36f550d94aa952ae",
            "hex": "00483045022100dcbc0cc0058c4a396854d60ae35b2c753cef080d81a8f78b62a6a0c5298998c9022020e437863c592458378f455e74121acd00e0f656d4facab749d5761ef0b61b0e01483045022100b973781dcf4a065e54b1fd0f0f6e8784c537e610a2c02c1b50e2740350a705a3022077c2656750273e551549dac129f379f66d15202d5785382a1a8e2092b1adb2900147522102f77ec37a042ba4e5e6aef7760398bf59b87ac4c5dee30a2fb8798e9630d4916e210276b93401dc495b28592f66411a7c9093b468f8678db51144fc6a36f550d94aa952ae"
          },
          "sequence": 4294967295
        }
      ],
      "vout": [
        {
          "value": 0.08401600,
          "n": 0,
          "scriptPubKey": {
            "asm": "OP_DUP OP_HASH160 10706c84dcaa156b876f74d0c2684d62330f59bb OP_EQUALVERIFY OP_CHECKSIG",
            "hex": "76a91410706c84dcaa156b876f74d0c2684d62330f59bb88ac",
            "reqSigs": 1,
            "type": "pubkeyhash",
            "addresses": [
              "LLiskdcDWXpAyj5JLRZQebX636QgTPYdCS"
            ]
          }
        }, 
        {
          "value": 7.67718700,
          "n": 1,
          "scriptPubKey": {
            "asm": "OP_HASH160 75b77316f8d91ff71fb2819115d1b6b9e80ccee9 OP_EQUAL",
            "hex": "a91475b77316f8d91ff71fb2819115d1b6b9e80ccee987",
            "reqSigs": 1,
            "type": "scripthash",
            "addresses": [
              "MJdb4B3BMDrfpB1FpKsPYQ1tDHdkNa1oLB"
            ]
          }
        }
      ],
      "hex": "01000000013fe52673b6f5c3351bf18ab41d0310d6f9cb6355baf0b9d655a0fbe8b72b7dcc01000000db00483045022100dcbc0cc0058c4a396854d60ae35b2c753cef080d81a8f78b62a6a0c5298998c9022020e437863c592458378f455e74121acd00e0f656d4facab749d5761ef0b61b0e01483045022100b973781dcf4a065e54b1fd0f0f6e8784c537e610a2c02c1b50e2740350a705a3022077c2656750273e551549dac129f379f66d15202d5785382a1a8e2092b1adb2900147522102f77ec37a042ba4e5e6aef7760398bf59b87ac4c5dee30a2fb8798e9630d4916e210276b93401dc495b28592f66411a7c9093b468f8678db51144fc6a36f550d94aa952aeffffffff02c0328000000000001976a91410706c84dcaa156b876f74d0c2684d62330f59bb88ac2c75c22d0000000017a91475b77316f8d91ff71fb2819115d1b6b9e80ccee98700000000"
    }, 
    {
      "txid": "393ec0f85927f1c3714bc1e05eec155a6c6b30acc3c305017f80b2a587bb0cf3",
      "hash": "393ec0f85927f1c3714bc1e05eec155a6c6b30acc3c305017f80b2a587bb0cf3",
      "version": 1,
      "size": 224,
      "vsize": 224,
      "locktime": 0,
      "vin": [
        {
          "txid": "40f9baffe3096cfe2697b7bd757581e9a07daa8c2c0c5d0b0231a6595e7fe2e0",
          "vout": 1,
          "scriptSig": {
            "asm": "3045022100b8c047ee2a9a7ccd4abdf1aae84d35e8afb4e0d8ed8b7304742183c61d3ffdb7022066a57d1e601ad4d2c22d3b586c29d7a8f48dd521e81f07527a127e6b86baa2f3[ALL] 025f1d370640c6466dd8712012b0796e07b9770b454ad50dc74982145d253d4a91",
            "hex": "483045022100b8c047ee2a9a7ccd4abdf1aae84d35e8afb4e0d8ed8b7304742183c61d3ffdb7022066a57d1e601ad4d2c22d3b586c29d7a8f48dd521e81f07527a127e6b86baa2f30121025f1d370640c6466dd8712012b0796e07b9770b454ad50dc74982145d253d4a91"
          },
          "sequence": 4294967295
        }
      ],
      "vout": [
        {
          "value": 14.99900000,
          "n": 0,
          "scriptPubKey": {
            "asm": "OP_HASH160 6f98ed656e086a1997d0758490f2fd9d60aad86e OP_EQUAL",
            "hex": "a9146f98ed656e086a1997d0758490f2fd9d60aad86e87",
            "reqSigs": 1,
            "type": "scripthash",
            "addresses": [
              "MJ5ESJNzkDr9RyvVzh4FdFRWk2phQRz9uc"
            ]
          }
        }, 
        {
          "value": 157.14798486,
          "n": 1,
          "scriptPubKey": {
            "asm": "OP_DUP OP_HASH160 7ce2edcf034edfe1bc38f862a6f65b89832af3a5 OP_EQUALVERIFY OP_CHECKSIG",
            "hex": "76a9147ce2edcf034edfe1bc38f862a6f65b89832af3a588ac",
            "reqSigs": 1,
            "type": "pubkeyhash",
            "addresses": [
              "LWcHuJJckYxMAikmJQ8NwLQzTnkDxg5fVK"
            ]
          }
        }
      ],
      "hex": "0100000001e0e27f5e59a631020b5d0c2c8caa7da0e9817575bdb79726fe6c09e3ffbaf940010000006b483045022100b8c047ee2a9a7ccd4abdf1aae84d35e8afb4e0d8ed8b7304742183c61d3ffdb7022066a57d1e601ad4d2c22d3b586c29d7a8f48dd521e81f07527a127e6b86baa2f30121025f1d370640c6466dd8712012b0796e07b9770b454ad50dc74982145d253d4a91ffffffff0260a866590000000017a9146f98ed656e086a1997d0758490f2fd9d60aad86e8796cbaca8030000001976a9147ce2edcf034edfe1bc38f862a6f65b89832af3a588ac00000000"
    }, 
    {
      "txid": "f73dddf899cfeb2710c281bcbd2b783e57661091c641bc831b4ed6ade7fa765b",
      "hash": "f73dddf899cfeb2710c281bcbd2b783e57661091c641bc831b4ed6ade7fa765b",
      "version": 1,
      "size": 225,
      "vsize": 225,
      "locktime": 0,
      "vin": [
        {
          "txid": "c58c013910d21c88a5d014acf334e955570739a0afa725050c0cce147064c934",
          "vout": 0,
          "scriptSig": {
            "asm": "3044022014e1995fd4e8a2327246529e70a3bb64c808d5d95072aadc65098541d6011cc602205d0ea4f2febee2817bc4aa3de9c959bb03fec25907bcf019017ff6be8427727b[ALL] 034a746087d3af248688cac99acaf15023afc8597422f4695c891b2e32a03cc52d",
            "hex": "473044022014e1995fd4e8a2327246529e70a3bb64c808d5d95072aadc65098541d6011cc602205d0ea4f2febee2817bc4aa3de9c959bb03fec25907bcf019017ff6be8427727b0121034a746087d3af248688cac99acaf15023afc8597422f4695c891b2e32a03cc52d"
          },
          "sequence": 4294967295
        }
      ],
      "vout": [
        {
          "value": 9.15496000,
          "n": 0,
          "scriptPubKey": {
            "asm": "OP_DUP OP_HASH160 bc51a4a7aaa5d7e2e66dca54811f5b9f4c8d9ec3 OP_EQUALVERIFY OP_CHECKSIG",
            "hex": "76a914bc51a4a7aaa5d7e2e66dca54811f5b9f4c8d9ec388ac",
            "reqSigs": 1,
            "type": "pubkeyhash",
            "addresses": [
              "LcPh6wm7BCYD2p5qLByLiApYFQrALwJyFM"
            ]
          }
        }, 
        {
          "value": 550.27642972,
          "n": 1,
          "scriptPubKey": {
            "asm": "OP_DUP OP_HASH160 e77fc4f768e4114f479f702e094375c506643150 OP_EQUALVERIFY OP_CHECKSIG",
            "hex": "76a914e77fc4f768e4114f479f702e094375c50664315088ac",
            "reqSigs": 1,
            "type": "pubkeyhash",
            "addresses": [
              "LgL1R6idUz9ELhG8Tg2RWJt2P3tRgz92kR"
            ]
          }
        }
      ],
      "hex": "010000000134c9647014ce0c0c0525a7afa039075755e934f3ac14d0a5881cd21039018cc5000000006a473044022014e1995fd4e8a2327246529e70a3bb64c808d5d95072aadc65098541d6011cc602205d0ea4f2febee2817bc4aa3de9c959bb03fec25907bcf019017ff6be8427727b0121034a746087d3af248688cac99acaf15023afc8597422f4695c891b2e32a03cc52dffffffff02405c9136000000001976a914bc51a4a7aaa5d7e2e66dca54811f5b9f4c8d9ec388ac5c32e7cf0c0000001976a914e77fc4f768e4114f479f702e094375c50664315088ac00000000"
    }, 
    {
      "txid": "723bdd653330e29b370a1c4f44206a6166bc6c05dbb39dfc4e8cdde9afd242a1",
      "hash": "723bdd653330e29b370a1c4f44206a6166bc6c05dbb39dfc4e8cdde9afd242a1",
      "version": 1,
      "size": 225,
      "vsize": 225,
      "locktime": 0,
      "vin": [
        {
          "txid": "985def3fa508aa93882992829c0d139cfd13198fb58de6461bc842ad1e517273",
          "vout": 1,
          "scriptSig": {
            "asm": "30440220315cd95d3ed33e6f66fa3a4ec1e0de56ff3bfb461d009442774ff4a746def504022057ecd9948aac2e1cbab66f1c16e370ef5bea6f28f0aa7478938401074da40cf6[ALL] 0257eafb46c181e063e315ef653dc55233a0fb29f7aefd3fbac795205fea20744d",
            "hex": "4730440220315cd95d3ed33e6f66fa3a4ec1e0de56ff3bfb461d009442774ff4a746def504022057ecd9948aac2e1cbab66f1c16e370ef5bea6f28f0aa7478938401074da40cf601210257eafb46c181e063e315ef653dc55233a0fb29f7aefd3fbac795205fea20744d"
          },
          "sequence": 4294967295
        }
      ],
      "vout": [
        {
          "value": 12.96900000,
          "n": 0,
          "scriptPubKey": {
            "asm": "OP_DUP OP_HASH160 6b30331276af11cd3fb92bc586ea0bba126bc988 OP_EQUALVERIFY OP_CHECKSIG",
            "hex": "76a9146b30331276af11cd3fb92bc586ea0bba126bc98888ac",
            "reqSigs": 1,
            "type": "pubkeyhash",
            "addresses": [
              "LUziJhVG8AK9YRfvRJWjKo7TcjFNH6Ybet"
            ]
          }
        }, 
        {
          "value": 147.32620419,
          "n": 1,
          "scriptPubKey": {
            "asm": "OP_DUP OP_HASH160 fb316e15f46c419c7eccd73d72c328ccdfdfefbc OP_EQUALVERIFY OP_CHECKSIG",
            "hex": "76a914fb316e15f46c419c7eccd73d72c328ccdfdfefbc88ac",
            "reqSigs": 1,
            "type": "pubkeyhash",
            "addresses": [
              "Li895pYpsy2U6945jRoUWWknkPkqiDDHw3"
            ]
          }
        }
      ],
      "hex": "01000000017372511ead42c81b46e68db58f1913fd9c130d9c8292298893aa08a53fef5d98010000006a4730440220315cd95d3ed33e6f66fa3a4ec1e0de56ff3bfb461d009442774ff4a746def504022057ecd9948aac2e1cbab66f1c16e370ef5bea6f28f0aa7478938401074da40cf601210257eafb46c181e063e315ef653dc55233a0fb29f7aefd3fbac795205fea20744dffffffff02a01f4d4d000000001976a9146b30331276af11cd3fb92bc586ea0bba126bc98888ac83f2216e030000001976a914fb316e15f46c419c7eccd73d72c328ccdfdfefbc88ac00000000"
    }, 
    {
      "txid": "813c605ca208cf381807c071d1f7985aee3df3486af18827c76d1be3f9e90501",
      "hash": "813c605ca208cf381807c071d1f7985aee3df3486af18827c76d1be3f9e90501",
      "version": 1,
      "size": 223,
      "vsize": 223,
      "locktime": 0,
      "vin": [
        {
          "txid": "daf2064ae83258b4d2c628d8f7301e665c47e14f2a4372361c5e9b6bb8b0fbcd",
          "vout": 9,
          "scriptSig": {
            "asm": "3044022002d94884b561e27584e34ee51d493afe94ee3474c3cd58a4936e84316728c95902207aa96cbb7278051fbae0fc44cfb8641cb560e7ff5bacd9f2e276c9dad15399d1[ALL] 02a8a80fe189c60e6c8d18f3a5c16e9dfe0441f40c37b07324f2e99b8dfeff88b1",
            "hex": "473044022002d94884b561e27584e34ee51d493afe94ee3474c3cd58a4936e84316728c95902207aa96cbb7278051fbae0fc44cfb8641cb560e7ff5bacd9f2e276c9dad15399d1012102a8a80fe189c60e6c8d18f3a5c16e9dfe0441f40c37b07324f2e99b8dfeff88b1"
          },
          "sequence": 4294967295
        }
      ],
      "vout": [
        {
          "value": 0.12975850,
          "n": 0,
          "scriptPubKey": {
            "asm": "OP_DUP OP_HASH160 c54d6bf258ab8f93e76e1db11418eda4ee3f14d7 OP_EQUALVERIFY OP_CHECKSIG",
            "hex": "76a914c54d6bf258ab8f93e76e1db11418eda4ee3f14d788ac",
            "reqSigs": 1,
            "type": "pubkeyhash",
            "addresses": [
              "LdDC8MZXGaKnbb37p4xtNAPfrAxFJRY7cx"
            ]
          }
        }, 
        {
          "value": 0.86001750,
          "n": 1,
          "scriptPubKey": {
            "asm": "OP_HASH160 c799d8e63f74b0b5333d3607d53b748244f6299b OP_EQUAL",
            "hex": "a914c799d8e63f74b0b5333d3607d53b748244f6299b87",
            "reqSigs": 1,
            "type": "scripthash",
            "addresses": [
              "MS6Z16jdQcT4aQ49Fpq9qnzxDBvyfnpHgC"
            ]
          }
        }
      ],
      "hex": "0100000001cdfbb0b86b9b5e1c3672432a4fe1475c661e30f7d828c6d2b45832e84a06f2da090000006a473044022002d94884b561e27584e34ee51d493afe94ee3474c3cd58a4936e84316728c95902207aa96cbb7278051fbae0fc44cfb8641cb560e7ff5bacd9f2e276c9dad15399d1012102a8a80fe189c60e6c8d18f3a5c16e9dfe0441f40c37b07324f2e99b8dfeff88b1ffffffff02eafec500000000001976a914c54d6bf258ab8f93e76e1db11418eda4ee3f14d788ac564820050000000017a914c799d8e63f74b0b5333d3607d53b748244f6299b8700000000"
    }, 
    {
      "txid": "54a3094cf6a937d300ae21f162fe34e1cc66d34d305fef5411ca37d20e3cec21",
      "hash": "54a3094cf6a937d300ae21f162fe34e1cc66d34d305fef5411ca37d20e3cec21",
      "version": 1,
      "size": 225,
      "vsize": 225,
      "locktime": 0,
      "vin": [
        {
          "txid": "44be1d05a4d1a362673918058e8711d32fa29717da073c88e6e66c307b8a613a",
          "vout": 0,
          "scriptSig": {
            "asm": "3044022066f6bc02e42f619e4d8d2e7c1735fb882149e8cbaba75da0d9a0054397c000e802201935b78a5f4c23d22b473d9bbc81f1950e29cf912dfaaca666bbd0e8c561f335[ALL] 02864fb6ad1307e49fd7c4a7312e807117a4fd54c54bb5c4372a204762661226b6",
            "hex": "473044022066f6bc02e42f619e4d8d2e7c1735fb882149e8cbaba75da0d9a0054397c000e802201935b78a5f4c23d22b473d9bbc81f1950e29cf912dfaaca666bbd0e8c561f335012102864fb6ad1307e49fd7c4a7312e807117a4fd54c54bb5c4372a204762661226b6"
          },
          "sequence": 4294967295
        }
      ],
      "vout": [
        {
          "value": 1.00000000,
          "n": 0,
          "scriptPubKey": {
            "asm": "OP_DUP OP_HASH160 2236313989c4e3ced6cb8373d9a4d1c386fe8bcd OP_EQUALVERIFY OP_CHECKSIG",
            "hex": "76a9142236313989c4e3ced6cb8373d9a4d1c386fe8bcd88ac",
            "reqSigs": 1,
            "type": "pubkeyhash",
            "addresses": [
              "LNLrA5fJ1pEyxdxDquWa8oCaLSzrwEVJVd"
            ]
          }
        }, 
        {
          "value": 0.87260808,
          "n": 1,
          "scriptPubKey": {
            "asm": "OP_DUP OP_HASH160 9e23a3853b0738a591d9501991a9d7051aa6d53e OP_EQUALVERIFY OP_CHECKSIG",
            "hex": "76a9149e23a3853b0738a591d9501991a9d7051aa6d53e88ac",
            "reqSigs": 1,
            "type": "pubkeyhash",
            "addresses": [
              "LZe7ikE8J3dkcW9xm3PL4XFfEjnztDtHUL"
            ]
          }
        }
      ],
      "hex": "01000000013a618a7b306ce6e6883c07da1797a22fd311878e0518396762a3d1a4051dbe44000000006a473044022066f6bc02e42f619e4d8d2e7c1735fb882149e8cbaba75da0d9a0054397c000e802201935b78a5f4c23d22b473d9bbc81f1950e29cf912dfaaca666bbd0e8c561f335012102864fb6ad1307e49fd7c4a7312e807117a4fd54c54bb5c4372a204762661226b6ffffffff0200e1f505000000001976a9142236313989c4e3ced6cb8373d9a4d1c386fe8bcd88ac887e3305000000001976a9149e23a3853b0738a591d9501991a9d7051aa6d53e88ac00000000"
    }, 
    {
      "txid": "5b6792c56ca7a391e1e3660f232be21f8bbc9dca748ce4d135c1b1eaa9aa41bb",
      "hash": "5b6792c56ca7a391e1e3660f232be21f8bbc9dca748ce4d135c1b1eaa9aa41bb",
      "version": 2,
      "size": 225,
      "vsize": 225,
      "locktime": 1359433,
      "vin": [
        {
          "txid": "35d85bf2e262310d9dd1f5732bc687cca0d21429ff4aab3b4f378184d0621cf7",
          "vout": 1,
          "scriptSig": {
            "asm": "304402203b668a2346678b0b5731a17c2823757d9b63a054e058279ed7993d836d7f12f1022031f1c503a3edd2c7ed4f00c4863d84cd336c8fb23355f08f6356d3e8273e00ed[ALL] 03a5732f07153ce86585ca2d2e503c95126ae891e058bd4bf3afe2b61eb4172480",
            "hex": "47304402203b668a2346678b0b5731a17c2823757d9b63a054e058279ed7993d836d7f12f1022031f1c503a3edd2c7ed4f00c4863d84cd336c8fb23355f08f6356d3e8273e00ed012103a5732f07153ce86585ca2d2e503c95126ae891e058bd4bf3afe2b61eb4172480"
          },
          "sequence": 4294967294
        }
      ],
      "vout": [
        {
          "value": 0.00980364,
          "n": 0,
          "scriptPubKey": {
            "asm": "OP_DUP OP_HASH160 0767fe27e3c5575ddb7c313f1222259d02b1131f OP_EQUALVERIFY OP_CHECKSIG",
            "hex": "76a9140767fe27e3c5575ddb7c313f1222259d02b1131f88ac",
            "reqSigs": 1,
            "type": "pubkeyhash",
            "addresses": [
              "LKu7a6sJSvTiX6U4pYoFWxRuJwyaPqqjrh"
            ]
          }
        }, 
        {
          "value": 0.45497036,
          "n": 1,
          "scriptPubKey": {
            "asm": "OP_DUP OP_HASH160 9013ab6d1cb85a835428ac2341385cec9c5e6547 OP_EQUALVERIFY OP_CHECKSIG",
            "hex": "76a9149013ab6d1cb85a835428ac2341385cec9c5e654788ac",
            "reqSigs": 1,
            "type": "pubkeyhash",
            "addresses": [
              "LYMm8WLny58RVkpaiSW24TX5RiBxG5muTN"
            ]
          }
        }
      ],
      "hex": "0200000001f71c62d08481374f3bab4aff2914d2a0cc87c62b73f5d19d0d3162e2f25bd835010000006a47304402203b668a2346678b0b5731a17c2823757d9b63a054e058279ed7993d836d7f12f1022031f1c503a3edd2c7ed4f00c4863d84cd336c8fb23355f08f6356d3e8273e00ed012103a5732f07153ce86585ca2d2e503c95126ae891e058bd4bf3afe2b61eb4172480feffffff028cf50e00000000001976a9140767fe27e3c5575ddb7c313f1222259d02b1131f88accc3ab602000000001976a9149013ab6d1cb85a835428ac2341385cec9c5e654788ac49be1400"
    }, 
    {
      "txid": "21590375905554f580b500a1cc663af4de91a4cb1cdb352a972f67b6e72f0dd2",
      "hash": "21590375905554f580b500a1cc663af4de91a4cb1cdb352a972f67b6e72f0dd2",
      "version": 1,
      "size": 225,
      "vsize": 225,
      "locktime": 0,
      "vin": [
        {
          "txid": "fd1b52ea3b17b97c94a38bb67868d97047e54270981ba1bd61456204eaaaa4f1",
          "vout": 0,
          "scriptSig": {
            "asm": "30440220210ac72b65fdf87a428e61d456eeb8097b556b8faea9e7a52aada825c9772b1f0220635ac9e879e9da7afba34f15f8e6250f2962010d39cf961375c659d5ac07bcda[ALL] 03781b34c9cb322b492ebcced2be4e1360b60537c57e425e90536524eee412758e",
            "hex": "4730440220210ac72b65fdf87a428e61d456eeb8097b556b8faea9e7a52aada825c9772b1f0220635ac9e879e9da7afba34f15f8e6250f2962010d39cf961375c659d5ac07bcda012103781b34c9cb322b492ebcced2be4e1360b60537c57e425e90536524eee412758e"
          },
          "sequence": 4294967295
        }
      ],
      "vout": [
        {
          "value": 0.54493719,
          "n": 0,
          "scriptPubKey": {
            "asm": "OP_DUP OP_HASH160 2295a7862de5866252ac15df2e330eb142c00bee OP_EQUALVERIFY OP_CHECKSIG",
            "hex": "76a9142295a7862de5866252ac15df2e330eb142c00bee88ac",
            "reqSigs": 1,
            "type": "pubkeyhash",
            "addresses": [
              "LNNpWuRTK2fq7PVybQsn3eBwWG7Y1BVB5X"
            ]
          }
        }, 
        {
          "value": 0.02699181,
          "n": 1,
          "scriptPubKey": {
            "asm": "OP_DUP OP_HASH160 a4ca3604544e6484b3f5dc1ac4d3c583abe3afeb OP_EQUALVERIFY OP_CHECKSIG",
            "hex": "76a914a4ca3604544e6484b3f5dc1ac4d3c583abe3afeb88ac",
            "reqSigs": 1,
            "type": "pubkeyhash",
            "addresses": [
              "LaFHKYGwxCYjrdWQjibaM94znGD7ALPGBH"
            ]
          }
        }
      ],
      "hex": "0100000001f1a4aaea04624561bda11b987042e54770d96878b68ba3947cb9173bea521bfd000000006a4730440220210ac72b65fdf87a428e61d456eeb8097b556b8faea9e7a52aada825c9772b1f0220635ac9e879e9da7afba34f15f8e6250f2962010d39cf961375c659d5ac07bcda012103781b34c9cb322b492ebcced2be4e1360b60537c57e425e90536524eee412758effffffff0217823f03000000001976a9142295a7862de5866252ac15df2e330eb142c00bee88acad2f2900000000001976a914a4ca3604544e6484b3f5dc1ac4d3c583abe3afeb88ac00000000"
    }, 
    {
      "txid": "4973a185ce7ebfbdddfd843101b21fd1a3c165f0321f37b1117bb9a78e2b23d6",
      "hash": "4973a185ce7ebfbdddfd843101b21fd1a3c165f0321f37b1117bb9a78e2b23d6",
      "version": 1,
      "size": 225,
      "vsize": 225,
      "locktime": 0,
      "vin": [
        {
          "txid": "072d435b4482a1cf0f9bdad6062af94e8ef285953f16d4d842eb9b81fcf6ac52",
          "vout": 0,
          "scriptSig": {
            "asm": "3044022073533b67a18e28e99388e87ceddc64c40df09cbeac7fb79f84f1c238eff56cd8022066da5b416e7948658e7a827879ed716e8078984d2b8a6d1aabc512ddca661228[ALL] 0207ac5ea5d1fa8969f7f42133e2d7a3f58c3e2264013f61324a176ac34e67f81a",
            "hex": "473044022073533b67a18e28e99388e87ceddc64c40df09cbeac7fb79f84f1c238eff56cd8022066da5b416e7948658e7a827879ed716e8078984d2b8a6d1aabc512ddca66122801210207ac5ea5d1fa8969f7f42133e2d7a3f58c3e2264013f61324a176ac34e67f81a"
          },
          "sequence": 4294967295
        }
      ],
      "vout": [
        {
          "value": 0.00054650,
          "n": 0,
          "scriptPubKey": {
            "asm": "OP_DUP OP_HASH160 83601d8fe60638373c2909eb7208b4ec8ee07d67 OP_EQUALVERIFY OP_CHECKSIG",
            "hex": "76a91483601d8fe60638373c2909eb7208b4ec8ee07d6788ac",
            "reqSigs": 1,
            "type": "pubkeyhash",
            "addresses": [
              "LXCbvZcueAS1JY3zBgLKuJufmU5svxzBVz"
            ]
          }
        }, 
        {
          "value": 0.01764371,
          "n": 1,
          "scriptPubKey": {
            "asm": "OP_DUP OP_HASH160 09b65912868d173432fec1069b17e6ccd86c56b3 OP_EQUALVERIFY OP_CHECKSIG",
            "hex": "76a91409b65912868d173432fec1069b17e6ccd86c56b388ac",
            "reqSigs": 1,
            "type": "pubkeyhash",
            "addresses": [
              "LL7JnhLwYKYkMw6f1huSLSRBgA2GpENonv"
            ]
          }
        }
      ],
      "hex": "010000000152acf6fc819beb42d8d4163f9585f28e4ef92a06d6da9b0fcfa182445b432d07000000006a473044022073533b67a18e28e99388e87ceddc64c40df09cbeac7fb79f84f1c238eff56cd8022066da5b416e7948658e7a827879ed716e8078984d2b8a6d1aabc512ddca66122801210207ac5ea5d1fa8969f7f42133e2d7a3f58c3e2264013f61324a176ac34e67f81affffffff027ad50000000000001976a91483601d8fe60638373c2909eb7208b4ec8ee07d6788ac13ec1a00000000001976a91409b65912868d173432fec1069b17e6ccd86c56b388ac00000000"
    }, 
    {
      "txid": "de63ac0c67f4ede1da543118c2fc93b47089e0548c1687362a1f0e2d7bf6e632",
      "hash": "de63ac0c67f4ede1da543118c2fc93b47089e0548c1687362a1f0e2d7bf6e632",
      "version": 1,
      "size": 226,
      "vsize": 226,
      "locktime": 0,
      "vin": [
        {
          "txid": "fec4e76dd5c9e4aa2777d1f175f0936c0868f4d844ffbea8fae94e2a27605f5c",
          "vout": 0,
          "scriptSig": {
            "asm": "3045022100c4c0c65cff8fc5ef211223ccc7dac8a192da66257e95c894c3c3878253935204022054ca23fd63fa53d25af9f8e523290be363b6a2586dfcc77148103c90966ed2fa[ALL] 0282bc7a47fabcf4bf53b5b3252a923057b866cf8df4360762c8bfc9722d7e1c51",
            "hex": "483045022100c4c0c65cff8fc5ef211223ccc7dac8a192da66257e95c894c3c3878253935204022054ca23fd63fa53d25af9f8e523290be363b6a2586dfcc77148103c90966ed2fa01210282bc7a47fabcf4bf53b5b3252a923057b866cf8df4360762c8bfc9722d7e1c51"
          },
          "sequence": 4294967295
        }
      ],
      "vout": [
        {
          "value": 0.75000000,
          "n": 0,
          "scriptPubKey": {
            "asm": "OP_DUP OP_HASH160 d57afb1ccc5ada0451bbf0ecbfe1ce8b09f639a0 OP_EQUALVERIFY OP_CHECKSIG",
            "hex": "76a914d57afb1ccc5ada0451bbf0ecbfe1ce8b09f639a088ac",
            "reqSigs": 1,
            "type": "pubkeyhash",
            "addresses": [
              "LegjWwFcNejFZ6F9sjc8dJLg4q2QFs7gUu"
            ]
          }
        }, 
        {
          "value": 0.09138400,
          "n": 1,
          "scriptPubKey": {
            "asm": "OP_DUP OP_HASH160 863a3bbcfcedc306aa247f5a507aeae234c7cc64 OP_EQUALVERIFY OP_CHECKSIG",
            "hex": "76a914863a3bbcfcedc306aa247f5a507aeae234c7cc6488ac",
            "reqSigs": 1,
            "type": "pubkeyhash",
            "addresses": [
              "LXTga3RQEhvPeYhzubKNUYhL6kZzZGnWH3"
            ]
          }
        }
      ],
      "hex": "01000000015c5f60272a4ee9faa8beff44d8f468086c93f075f1d17727aae4c9d56de7c4fe000000006b483045022100c4c0c65cff8fc5ef211223ccc7dac8a192da66257e95c894c3c3878253935204022054ca23fd63fa53d25af9f8e523290be363b6a2586dfcc77148103c90966ed2fa01210282bc7a47fabcf4bf53b5b3252a923057b866cf8df4360762c8bfc9722d7e1c51ffffffff02c0687804000000001976a914d57afb1ccc5ada0451bbf0ecbfe1ce8b09f639a088ace0708b00000000001976a914863a3bbcfcedc306aa247f5a507aeae234c7cc6488ac00000000"
    }
  ],
  "time": 1517282068,
  "mediantime": 1517281780,
  "nonce": 3732400923,
  "bits": "1a042eae",
  "difficulty": 4011378.762614286,
  "chainwork": "00000000000000000000000000000000000000000000003400c7de8c3f32051a",
  "previousblockhash": "3793c2e999c37f5a2bc9f42288c57069e8628990c788aaa48195ff0b89b6d40a",
  "nextblockhash": "da48de4ca11c96cb70a4dce110bb64ff656270f28e1dda5fd1a24cf8a742e1ed"
}
