{
  "hash": "a961762b9b9ae88d675dcc1f1ddb16bfbb71c31cbc06f462bc4887aaea7b8ca5",
  "confirmations": 143,
  "strippedsize": 234,
  "size": 234,
  "weight": 936,
  "height": 1360851,
  "version": 536870912,
  "versionHex": "20000000",
  "merkleroot": "f37bb4d226a7b173eca3ba37f69dd71c8630076a643e7933568276eb915a8e21",
  "tx": [
    {
      "txid": "f37bb4d226a7b173eca3ba37f69dd71c8630076a643e7933568276eb915a8e21",
      "hash": "f37bb4d226a7b173eca3ba37f69dd71c8630076a643e7933568276eb915a8e21",
      "version": 1,
      "size": 153,
      "vsize": 153,
      "locktime": 0,
      "vin": [
        {
          "coinbase": "03d3c314045a730f282cfabe6d6ddc90ddcb66da6e1d8feedd95fadba2baa866e740ba2521e55d487a568b7e9a6d4000000000000000042f4c502f08220043ab01000000",
          "sequence": 4294967295
        }
      ],
      "vout": [
        {
          "value": 25.00000000,
          "n": 0,
          "scriptPubKey": {
            "asm": "OP_DUP OP_HASH160 57757ed2ecf2052ff3126c397aca7defb9ca2cec OP_EQUALVERIFY OP_CHECKSIG",
            "hex": "76a91457757ed2ecf2052ff3126c397aca7defb9ca2cec88ac",
            "reqSigs": 1,
            "type": "pubkeyhash",
            "addresses": [
              "LTCPodGk5FwcJaRzH9yKnwicxzFUbxp6tN"
            ]
          }
        }
      ],
      "hex": "01000000010000000000000000000000000000000000000000000000000000000000000000ffffffff4403d3c314045a730f282cfabe6d6ddc90ddcb66da6e1d8feedd95fadba2baa866e740ba2521e55d487a568b7e9a6d4000000000000000042f4c502f08220043ab01000000ffffffff0100f90295000000001976a91457757ed2ecf2052ff3126c397aca7defb9ca2cec88ac00000000"
    }
  ],
  "time": 1517489960,
  "mediantime": 1517489278,
  "nonce": 2905118993,
  "bits": "1a04088e",
  "difficulty": 4159490.835685156,
  "chainwork": "000000000000000000000000000000000000000000000035539123ee6ab27180",
  "previousblockhash": "e168fdff969e0f9c58cdf51b1a0354178e1b53b4ac699bc7c586dfea8c69f2f9",
  "nextblockhash": "f64e0c16df8e97444acdaca05271b1a855760748102a46950a1801508a9ef1cc"
}
