{
  "hash": "a9d747d89a8265bbee05be3c968eb0b1d6d5be28f6a2468f5f62cbf8a9c992c0",
  "confirmations": 3013,
  "strippedsize": 4577,
  "size": 4613,
  "weight": 18344,
  "height": 1357982,
  "version": 536870912,
  "versionHex": "20000000",
  "merkleroot": "ed50aa4b3781aa46f963fecabd50af76a50362778022de7e2fa1cb0904f99e1a",
  "tx": [
    {
      "txid": "73b808d3330149beee11bd5c5c9f48caf21369233087cd349c15d07e0637f7de",
      "hash": "240e30bc90ce9f52f9e767e3c05dc46eb31cecfd66a638d9507a3fd3938c9a2e",
      "version": 1,
      "size": 240,
      "vsize": 213,
      "locktime": 0,
      "vin": [
        {
          "coinbase": "039eb814049cae6c5a08040cd5b711000000fabe6d6df4a60dc812bda4c1f209cc96408bebf9ec6a0b4867ac6cdaed8c48651482107f4000000000000000092f4c54432e544f502f",
          "sequence": 0
        }
      ],
      "vout": [
        {
          "value": 25.01512389,
          "n": 0,
          "scriptPubKey": {
            "asm": "OP_DUP OP_HASH160 0c617fdb2ea42aed30a509595ee21ba3f6688db0 OP_EQUALVERIFY OP_CHECKSIG",
            "hex": "76a9140c617fdb2ea42aed30a509595ee21ba3f6688db088ac",
            "reqSigs": 1,
            "type": "pubkeyhash",
            "addresses": [
              "LLMRAtr3qBje2ySEa3CnZ55LA4TQMWnRY3"
            ]
          }
        }, 
        {
          "value": 0.00000000,
          "n": 1,
          "scriptPubKey": {
            "asm": "OP_RETURN aa21a9ed82c4ef52ffcc320d6128bfad1374316f29c5e1c34fada660110c37615598dc38",
            "hex": "6a24aa21a9ed82c4ef52ffcc320d6128bfad1374316f29c5e1c34fada660110c37615598dc38",
            "type": "nulldata"
          }
        }
      ],
      "hex": "010000000001010000000000000000000000000000000000000000000000000000000000000000ffffffff48039eb814049cae6c5a08040cd5b711000000fabe6d6df4a60dc812bda4c1f209cc96408bebf9ec6a0b4867ac6cdaed8c48651482107f4000000000000000092f4c54432e544f502f0000000002c50c1a95000000001976a9140c617fdb2ea42aed30a509595ee21ba3f6688db088ac0000000000000000266a24aa21a9ed82c4ef52ffcc320d6128bfad1374316f29c5e1c34fada660110c37615598dc380120000000000000000000000000000000000000000000000000000000000000000000000000"
    }, 
    {
      "txid": "aaa35a572465567b1750e97c520c00328ce53bf62c391dc465263cd4f972142b",
      "hash": "aaa35a572465567b1750e97c520c00328ce53bf62c391dc465263cd4f972142b",
      "version": 1,
      "size": 374,
      "vsize": 374,
      "locktime": 1357943,
      "vin": [
        {
          "txid": "fb822a20b0697f4e69f7e595f7b5c6d713b7a5ebab01b51f7606541209aac940",
          "vout": 0,
          "scriptSig": {
            "asm": "3045022100885399cd4f9a286c392a8df8d7ff6d867d161603987e41878eb82c8c1a4615da02206d855f9a1ec5b9b3735a2e2a0f73a80b85ab68eb57388e1b137da168219ec83a[ALL] 02f88f59530684da80a553d06cdd118d326ada6c867952cd865b0dbc279dde50dd",
            "hex": "483045022100885399cd4f9a286c392a8df8d7ff6d867d161603987e41878eb82c8c1a4615da02206d855f9a1ec5b9b3735a2e2a0f73a80b85ab68eb57388e1b137da168219ec83a012102f88f59530684da80a553d06cdd118d326ada6c867952cd865b0dbc279dde50dd"
          },
          "sequence": 4294967294
        }, 
        {
          "txid": "8321136f280913fdac1892b3a8f918aeb72af5e8d595b350c2eb8b934806004d",
          "vout": 0,
          "scriptSig": {
            "asm": "30450221008afb51ce73055a994bc512799836b29eff2cc23b7bcdff301de7966c38f85a77022054b1e4ccf912d6df04677bea2fc204d777d980eb3921804a3fc0308617d62717[ALL] 02589d3fffafab2b96e60736accb4240ec0cee6384c666acc0cef8704657ab6b16",
            "hex": "4830450221008afb51ce73055a994bc512799836b29eff2cc23b7bcdff301de7966c38f85a77022054b1e4ccf912d6df04677bea2fc204d777d980eb3921804a3fc0308617d62717012102589d3fffafab2b96e60736accb4240ec0cee6384c666acc0cef8704657ab6b16"
          },
          "sequence": 4294967294
        }
      ],
      "vout": [
        {
          "value": 0.07049043,
          "n": 0,
          "scriptPubKey": {
            "asm": "OP_DUP OP_HASH160 83ef8dbc5576dba5278ef831dedc812f93eed444 OP_EQUALVERIFY OP_CHECKSIG",
            "hex": "76a91483ef8dbc5576dba5278ef831dedc812f93eed44488ac",
            "reqSigs": 1,
            "type": "pubkeyhash",
            "addresses": [
              "LXFZkpfHyvTbM4UkS1SbSDapv5xrtwK8Yg"
            ]
          }
        }, 
        {
          "value": 0.01000061,
          "n": 1,
          "scriptPubKey": {
            "asm": "OP_DUP OP_HASH160 a46c5b3879badcd9ce8e485a6b2f094404429fe8 OP_EQUALVERIFY OP_CHECKSIG",
            "hex": "76a914a46c5b3879badcd9ce8e485a6b2f094404429fe888ac",
            "reqSigs": 1,
            "type": "pubkeyhash",
            "addresses": [
              "LaDLtQL48SKosTsoLCmeP6uexeZUDMAgVZ"
            ]
          }
        }
      ],
      "hex": "010000000240c9aa09125406761fb501abeba5b713d7c6b5f795e5f7694e7f69b0202a82fb000000006b483045022100885399cd4f9a286c392a8df8d7ff6d867d161603987e41878eb82c8c1a4615da02206d855f9a1ec5b9b3735a2e2a0f73a80b85ab68eb57388e1b137da168219ec83a012102f88f59530684da80a553d06cdd118d326ada6c867952cd865b0dbc279dde50ddfeffffff4d000648938bebc250b395d5e8f52ab7ae18f9a8b39218acfd1309286f132183000000006b4830450221008afb51ce73055a994bc512799836b29eff2cc23b7bcdff301de7966c38f85a77022054b1e4ccf912d6df04677bea2fc204d777d980eb3921804a3fc0308617d62717012102589d3fffafab2b96e60736accb4240ec0cee6384c666acc0cef8704657ab6b16feffffff02538f6b00000000001976a91483ef8dbc5576dba5278ef831dedc812f93eed44488ac7d420f00000000001976a914a46c5b3879badcd9ce8e485a6b2f094404429fe888ac77b81400"
    }, 
    {
      "txid": "cb0417b6d614fcb335ab0758d10b3d88bc512b164c04335355b7f6dce43cc338",
      "hash": "cb0417b6d614fcb335ab0758d10b3d88bc512b164c04335355b7f6dce43cc338",
      "version": 1,
      "size": 226,
      "vsize": 226,
      "locktime": 0,
      "vin": [
        {
          "txid": "a3772342f12d6cc6dbd873737c10923a001f6b9aeb59e53b0ff7bbeec341ccad",
          "vout": 1,
          "scriptSig": {
            "asm": "30450221009284dbe076b47252ad3197ced9623b11a7087add7cde589b462ab11de034d2940220380fa2dbfead5010aad10cf1b268ff0055354c1b5fd97ad60688e7dabd3a79fd[ALL] 037cc8b20704e8cd9ea625ceae1db3f0d553664b1e2afc791ba8a42006a62b161a",
            "hex": "4830450221009284dbe076b47252ad3197ced9623b11a7087add7cde589b462ab11de034d2940220380fa2dbfead5010aad10cf1b268ff0055354c1b5fd97ad60688e7dabd3a79fd0121037cc8b20704e8cd9ea625ceae1db3f0d553664b1e2afc791ba8a42006a62b161a"
          },
          "sequence": 4294967295
        }
      ],
      "vout": [
        {
          "value": 2.30000000,
          "n": 0,
          "scriptPubKey": {
            "asm": "OP_DUP OP_HASH160 b1a0e79737a8b18974442a89d08cc45381dff509 OP_EQUALVERIFY OP_CHECKSIG",
            "hex": "76a914b1a0e79737a8b18974442a89d08cc45381dff50988ac",
            "reqSigs": 1,
            "type": "pubkeyhash",
            "addresses": [
              "LbRAd21KuDbseYkGZQwyBkzY1CrANi7iPe"
            ]
          }
        }, 
        {
          "value": 28.54168951,
          "n": 1,
          "scriptPubKey": {
            "asm": "OP_DUP OP_HASH160 9f9e71d62d643db9f07846d452c5a885c83bfefa OP_EQUALVERIFY OP_CHECKSIG",
            "hex": "76a9149f9e71d62d643db9f07846d452c5a885c83bfefa88ac",
            "reqSigs": 1,
            "type": "pubkeyhash",
            "addresses": [
              "LZmwWeFP1yfaaBfjpVtdNMGzGhizC9anYS"
            ]
          }
        }
      ],
      "hex": "0100000001adcc41c3eebbf70f3be559eb9a6b1f003a92107c7373d8dbc66c2df1422377a3010000006b4830450221009284dbe076b47252ad3197ced9623b11a7087add7cde589b462ab11de034d2940220380fa2dbfead5010aad10cf1b268ff0055354c1b5fd97ad60688e7dabd3a79fd0121037cc8b20704e8cd9ea625ceae1db3f0d553664b1e2afc791ba8a42006a62b161affffffff028085b50d000000001976a914b1a0e79737a8b18974442a89d08cc45381dff50988ac77291faa000000001976a9149f9e71d62d643db9f07846d452c5a885c83bfefa88ac00000000"
    }, 
    {
      "txid": "a0ab28642c460ba470bfd08ee138bf742c0519dee8f9e619b16c75a6fc804e14",
      "hash": "a0ab28642c460ba470bfd08ee138bf742c0519dee8f9e619b16c75a6fc804e14",
      "version": 1,
      "size": 226,
      "vsize": 226,
      "locktime": 0,
      "vin": [
        {
          "txid": "04e21c797779b34667819859cc30be6d692247a4e38c1b63210dbe3e11e8cef6",
          "vout": 1,
          "scriptSig": {
            "asm": "3045022100e63a0605a962c8d23c3a3df6eb45e26e458fa006c1a82d0fe2d55ef287ed58920220666942032116610510c038f4e912b5d2d7955b7a46a3f92d3cfa5617724e3a8c[ALL] 028192031fc6b2835ddc9720d32314733ab60ceaf66af132bbbfb8d3e8cd17808c",
            "hex": "483045022100e63a0605a962c8d23c3a3df6eb45e26e458fa006c1a82d0fe2d55ef287ed58920220666942032116610510c038f4e912b5d2d7955b7a46a3f92d3cfa5617724e3a8c0121028192031fc6b2835ddc9720d32314733ab60ceaf66af132bbbfb8d3e8cd17808c"
          },
          "sequence": 4294967295
        }
      ],
      "vout": [
        {
          "value": 0.10437000,
          "n": 0,
          "scriptPubKey": {
            "asm": "OP_DUP OP_HASH160 70e7e17149a41f1d36d960ecf894d19de1eb3690 OP_EQUALVERIFY OP_CHECKSIG",
            "hex": "76a91470e7e17149a41f1d36d960ecf894d19de1eb369088ac",
            "reqSigs": 1,
            "type": "pubkeyhash",
            "addresses": [
              "LVWwj3gJYpJB84F3T8DCgbtCNMaKkuptST"
            ]
          }
        }, 
        {
          "value": 165.75026420,
          "n": 1,
          "scriptPubKey": {
            "asm": "OP_DUP OP_HASH160 2ec9bab610ba41733eac8301f84e498a668e43b2 OP_EQUALVERIFY OP_CHECKSIG",
            "hex": "76a9142ec9bab610ba41733eac8301f84e498a668e43b288ac",
            "reqSigs": 1,
            "type": "pubkeyhash",
            "addresses": [
              "LPVM1SL5H7e29788H9pRKExaJ7WD6v66iW"
            ]
          }
        }
      ],
      "hex": "0100000001f6cee8113ebe0d21631b8ce3a44722696dbe30cc5998816746b37977791ce204010000006b483045022100e63a0605a962c8d23c3a3df6eb45e26e458fa006c1a82d0fe2d55ef287ed58920220666942032116610510c038f4e912b5d2d7955b7a46a3f92d3cfa5617724e3a8c0121028192031fc6b2835ddc9720d32314733ab60ceaf66af132bbbfb8d3e8cd17808cffffffff0288419f00000000001976a91470e7e17149a41f1d36d960ecf894d19de1eb369088acf4d4f2db030000001976a9142ec9bab610ba41733eac8301f84e498a668e43b288ac00000000"
    }, 
    {
      "txid": "7538f5dc7349b5ae792b204df4cb4633cbfa3695cc887ee323828741c69ebebb",
      "hash": "7538f5dc7349b5ae792b204df4cb4633cbfa3695cc887ee323828741c69ebebb",
      "version": 1,
      "size": 226,
      "vsize": 226,
      "locktime": 0,
      "vin": [
        {
          "txid": "67819ce8c6e4bd463c95c3a415634bf522aedcb199817dbecbdafd698868e844",
          "vout": 1,
          "scriptSig": {
            "asm": "3045022100edbb95853430a7875ac664ca60cd021cd7fad2432faab1adc114b0d526543a730220660fd6dff046348696b2b376cebd0f39ced53c3b626ccbaf528d8cebd4a77797[ALL] 03e4790665c5eb1e35398c765300a3b354637c9f30b8e0dc214c9a6eed881988ef",
            "hex": "483045022100edbb95853430a7875ac664ca60cd021cd7fad2432faab1adc114b0d526543a730220660fd6dff046348696b2b376cebd0f39ced53c3b626ccbaf528d8cebd4a77797012103e4790665c5eb1e35398c765300a3b354637c9f30b8e0dc214c9a6eed881988ef"
          },
          "sequence": 4294967295
        }
      ],
      "vout": [
        {
          "value": 20.39900000,
          "n": 0,
          "scriptPubKey": {
            "asm": "OP_DUP OP_HASH160 9c07dc3f7019aa5565d1a1f7d6813efea034e9fb OP_EQUALVERIFY OP_CHECKSIG",
            "hex": "76a9149c07dc3f7019aa5565d1a1f7d6813efea034e9fb88ac",
            "reqSigs": 1,
            "type": "pubkeyhash",
            "addresses": [
              "LZSy6HUCVtds4bX8LvDRJ2DVkTeMjNXqjy"
            ]
          }
        }, 
        {
          "value": 145.45738710,
          "n": 1,
          "scriptPubKey": {
            "asm": "OP_DUP OP_HASH160 3728492b52d01fb6ee7019200e609d69339110be OP_EQUALVERIFY OP_CHECKSIG",
            "hex": "76a9143728492b52d01fb6ee7019200e609d69339110be88ac",
            "reqSigs": 1,
            "type": "pubkeyhash",
            "addresses": [
              "LQFbgsVTVoRCQW5BNeoeBh6SDx35h4hsny"
            ]
          }
        }
      ],
      "hex": "010000000144e8688869fddacbbe7d8199b1dcae22f54b6315a4c3953c46bde4c6e89c8167010000006b483045022100edbb95853430a7875ac664ca60cd021cd7fad2432faab1adc114b0d526543a730220660fd6dff046348696b2b376cebd0f39ced53c3b626ccbaf528d8cebd4a77797012103e4790665c5eb1e35398c765300a3b354637c9f30b8e0dc214c9a6eed881988efffffffff0260679679000000001976a9149c07dc3f7019aa5565d1a1f7d6813efea034e9fb88acd65bfe62030000001976a9143728492b52d01fb6ee7019200e609d69339110be88ac00000000"
    }, 
    {
      "txid": "424bf0d80f1332e7114364a78e9ecf89254f2462d1563e163ee6e355a92556ce",
      "hash": "424bf0d80f1332e7114364a78e9ecf89254f2462d1563e163ee6e355a92556ce",
      "version": 1,
      "size": 191,
      "vsize": 191,
      "locktime": 0,
      "vin": [
        {
          "txid": "4761cf7eb2c6821d9308cb16bfcfe172bb2fae439d745774266d288e0d860551",
          "vout": 29,
          "scriptSig": {
            "asm": "30440220429c1517f21a6f5b390590d0d88e422e43a5561c40f73e655e0dca529a3e23df0220354ea08f2e4f41bbebc470f5673d0d17df35f4c4607834e1761df7efda50b0dc[ALL] 02ab81509c82f643a172a8e97bb8bd54a45da8c0a3803622a23a216525ffff1b6e",
            "hex": "4730440220429c1517f21a6f5b390590d0d88e422e43a5561c40f73e655e0dca529a3e23df0220354ea08f2e4f41bbebc470f5673d0d17df35f4c4607834e1761df7efda50b0dc012102ab81509c82f643a172a8e97bb8bd54a45da8c0a3803622a23a216525ffff1b6e"
          },
          "sequence": 4294967295
        }
      ],
      "vout": [
        {
          "value": 0.19900000,
          "n": 0,
          "scriptPubKey": {
            "asm": "OP_DUP OP_HASH160 f6c98f9bf265e384942ac742a036726e79b5afcb OP_EQUALVERIFY OP_CHECKSIG",
            "hex": "76a914f6c98f9bf265e384942ac742a036726e79b5afcb88ac",
            "reqSigs": 1,
            "type": "pubkeyhash",
            "addresses": [
              "Lhiqx74HRSJoYbL9roXP2WpQbHMbXAg6in"
            ]
          }
        }
      ],
      "hex": "01000000015105860d8e286d267457749d43ae2fbb72e1cfbf16cb08931d82c6b27ecf61471d0000006a4730440220429c1517f21a6f5b390590d0d88e422e43a5561c40f73e655e0dca529a3e23df0220354ea08f2e4f41bbebc470f5673d0d17df35f4c4607834e1761df7efda50b0dc012102ab81509c82f643a172a8e97bb8bd54a45da8c0a3803622a23a216525ffff1b6effffffff0160a62f01000000001976a914f6c98f9bf265e384942ac742a036726e79b5afcb88ac00000000"
    }, 
    {
      "txid": "b2f0e32477158e9c97740f528ed24eb8c9bbd1679ef23f563375f1838872175c",
      "hash": "b2f0e32477158e9c97740f528ed24eb8c9bbd1679ef23f563375f1838872175c",
      "version": 1,
      "size": 223,
      "vsize": 223,
      "locktime": 0,
      "vin": [
        {
          "txid": "78a6d560eab80d9d73aff0c2fc7345440b1823bcf71536566fe493067e8e863f",
          "vout": 26,
          "scriptSig": {
            "asm": "304402206c06c15faa637ff663e57d1088d00cda1e316e4ddb74dae4a75ad6c16256ef4e022043368105fcc8f63be807f49d42a6f38826f341a8945050e979c0a57103fd3487[ALL] 03a04e9a3289e27292c64e867ea7d9b7dcc12f68f5b1dd649d6f35ce4ce757d521",
            "hex": "47304402206c06c15faa637ff663e57d1088d00cda1e316e4ddb74dae4a75ad6c16256ef4e022043368105fcc8f63be807f49d42a6f38826f341a8945050e979c0a57103fd3487012103a04e9a3289e27292c64e867ea7d9b7dcc12f68f5b1dd649d6f35ce4ce757d521"
          },
          "sequence": 4294967295
        }
      ],
      "vout": [
        {
          "value": 0.01523841,
          "n": 0,
          "scriptPubKey": {
            "asm": "OP_DUP OP_HASH160 b42b6566c62ccfde4f6c93e66ca707ae8826beeb OP_EQUALVERIFY OP_CHECKSIG",
            "hex": "76a914b42b6566c62ccfde4f6c93e66ca707ae8826beeb88ac",
            "reqSigs": 1,
            "type": "pubkeyhash",
            "addresses": [
              "LbebsxRNwHtMEVDgAHsRh9Y1rgDYpypAf9"
            ]
          }
        }, 
        {
          "value": 0.11320000,
          "n": 1,
          "scriptPubKey": {
            "asm": "OP_HASH160 80957fd2e01bc0049b7b8630a066a5a621a27035 OP_EQUAL",
            "hex": "a91480957fd2e01bc0049b7b8630a066a5a621a2703587",
            "reqSigs": 1,
            "type": "scripthash",
            "addresses": [
              "MKd3pNvMJqwXS5hYaqE17HB3C8YKWFueQ5"
            ]
          }
        }
      ],
      "hex": "01000000013f868e7e0693e46f563615f7bc23180b444573fcc2f0af739d0db8ea60d5a6781a0000006a47304402206c06c15faa637ff663e57d1088d00cda1e316e4ddb74dae4a75ad6c16256ef4e022043368105fcc8f63be807f49d42a6f38826f341a8945050e979c0a57103fd3487012103a04e9a3289e27292c64e867ea7d9b7dcc12f68f5b1dd649d6f35ce4ce757d521ffffffff0281401700000000001976a914b42b6566c62ccfde4f6c93e66ca707ae8826beeb88acc0baac000000000017a91480957fd2e01bc0049b7b8630a066a5a621a270358700000000"
    }, 
    {
      "txid": "fcb08e1fbcc3fa344eab5d58ab013c91d2471f7876b76862d3114a12e95a239a",
      "hash": "fcb08e1fbcc3fa344eab5d58ab013c91d2471f7876b76862d3114a12e95a239a",
      "version": 1,
      "size": 225,
      "vsize": 225,
      "locktime": 0,
      "vin": [
        {
          "txid": "20260e73bd7cdaec9e295c08a483f796c837453c2fb44f3f088bb1d70d4dff78",
          "vout": 0,
          "scriptSig": {
            "asm": "3044022027956bc9f6a0e9bb7abc059291df152a001c41add54f14c21fd72083b74b2955022045f09c78b2ae6d1b656dda98214e15d1808f4b056f72ab6044937e305b16eb80[ALL] 0396e925105d2d0cf4717b13fcc68f9b6273c15ba808bb3f58dad08641e793a644",
            "hex": "473044022027956bc9f6a0e9bb7abc059291df152a001c41add54f14c21fd72083b74b2955022045f09c78b2ae6d1b656dda98214e15d1808f4b056f72ab6044937e305b16eb8001210396e925105d2d0cf4717b13fcc68f9b6273c15ba808bb3f58dad08641e793a644"
          },
          "sequence": 4294967295
        }
      ],
      "vout": [
        {
          "value": 6.00003406,
          "n": 0,
          "scriptPubKey": {
            "asm": "OP_DUP OP_HASH160 044dff365ee18940ddadbe4e967cb5946f6a9940 OP_EQUALVERIFY OP_CHECKSIG",
            "hex": "76a914044dff365ee18940ddadbe4e967cb5946f6a994088ac",
            "reqSigs": 1,
            "type": "pubkeyhash",
            "addresses": [
              "LKciQJSmDQb3kUt7FvE37LJBFfaGe3n2Qg"
            ]
          }
        }, 
        {
          "value": 0.84751815,
          "n": 1,
          "scriptPubKey": {
            "asm": "OP_DUP OP_HASH160 f0a2f73d338766302996b1ddabe7eb6aa88453bb OP_EQUALVERIFY OP_CHECKSIG",
            "hex": "76a914f0a2f73d338766302996b1ddabe7eb6aa88453bb88ac",
            "reqSigs": 1,
            "type": "pubkeyhash",
            "addresses": [
              "LhAKfK7MCfJmSzjkTj46TTEFgrDCnfFGz5"
            ]
          }
        }
      ],
      "hex": "010000000178ff4d0dd7b18b083f4fb42f3c4537c896f783a4085c299eecda7cbd730e2620000000006a473044022027956bc9f6a0e9bb7abc059291df152a001c41add54f14c21fd72083b74b2955022045f09c78b2ae6d1b656dda98214e15d1808f4b056f72ab6044937e305b16eb8001210396e925105d2d0cf4717b13fcc68f9b6273c15ba808bb3f58dad08641e793a644ffffffff024e53c323000000001976a914044dff365ee18940ddadbe4e967cb5946f6a994088acc7350d05000000001976a914f0a2f73d338766302996b1ddabe7eb6aa88453bb88ac00000000"
    }, 
    {
      "txid": "cb7f8ff2de3493f16a1a2ebb8612a73a0af0a1b5465d115d7f59f94f18bba52e",
      "hash": "cb7f8ff2de3493f16a1a2ebb8612a73a0af0a1b5465d115d7f59f94f18bba52e",
      "version": 1,
      "size": 226,
      "vsize": 226,
      "locktime": 0,
      "vin": [
        {
          "txid": "ec14bea29d961dbd7e2ce9a57610908c798f9410efb06cae77b2b970741c78e6",
          "vout": 16,
          "scriptSig": {
            "asm": "3045022100cf29a74eff230b7bda2059a7085198fb07b88ceae0d85c2fae1d11caf285f19902202393cc27195a482b406f91980ec9f03cecd66517adbacbd56f443191a2e7113e[ALL] 02d437fc61f64794c2cf2ed90930495b366244bb796bcc0cae8af01061956d13d4",
            "hex": "483045022100cf29a74eff230b7bda2059a7085198fb07b88ceae0d85c2fae1d11caf285f19902202393cc27195a482b406f91980ec9f03cecd66517adbacbd56f443191a2e7113e012102d437fc61f64794c2cf2ed90930495b366244bb796bcc0cae8af01061956d13d4"
          },
          "sequence": 4294967295
        }
      ],
      "vout": [
        {
          "value": 0.00056371,
          "n": 0,
          "scriptPubKey": {
            "asm": "OP_DUP OP_HASH160 b7e7f37553770132154f2550afbf25bf2f2f15d4 OP_EQUALVERIFY OP_CHECKSIG",
            "hex": "76a914b7e7f37553770132154f2550afbf25bf2f2f15d488ac",
            "reqSigs": 1,
            "type": "pubkeyhash",
            "addresses": [
              "LbzMnZEjKJDkNFBUMkhsDAcJGbqGmYTZQw"
            ]
          }
        }, 
        {
          "value": 0.08303800,
          "n": 1,
          "scriptPubKey": {
            "asm": "OP_DUP OP_HASH160 1286820392ee05d12085c1f54caaee9df617af5f OP_EQUALVERIFY OP_CHECKSIG",
            "hex": "76a9141286820392ee05d12085c1f54caaee9df617af5f88ac",
            "reqSigs": 1,
            "type": "pubkeyhash",
            "addresses": [
              "LLuuZSGKS28ovBLjfzTKtTphWiYVGjQ5q7"
            ]
          }
        }
      ],
      "hex": "0100000001e6781c7470b9b277ae6cb0ef10948f798c901076a5e92c7ebd1d969da2be14ec100000006b483045022100cf29a74eff230b7bda2059a7085198fb07b88ceae0d85c2fae1d11caf285f19902202393cc27195a482b406f91980ec9f03cecd66517adbacbd56f443191a2e7113e012102d437fc61f64794c2cf2ed90930495b366244bb796bcc0cae8af01061956d13d4ffffffff0233dc0000000000001976a914b7e7f37553770132154f2550afbf25bf2f2f15d488acb8b47e00000000001976a9141286820392ee05d12085c1f54caaee9df617af5f88ac00000000"
    }, 
    {
      "txid": "b41c4704c9566a530816810951c17e394012c853619c08d33755e00556fe7ae1",
      "hash": "b41c4704c9566a530816810951c17e394012c853619c08d33755e00556fe7ae1",
      "version": 1,
      "size": 226,
      "vsize": 226,
      "locktime": 0,
      "vin": [
        {
          "txid": "57a82e5ecf7c696686c17e5bb5f1de12570c6d55e6c5816b3ef0f78066d31fd7",
          "vout": 1,
          "scriptSig": {
            "asm": "30450221009c8361eb41dcc46be6034956156371b64b1ca8f247e0076cd4924ff7740a3c37022077a8ac3ffd875360e8970fa1193d85b8f925b2ae4605489523a1edb0493a0aff[ALL] 03194fb3a84402784a07486e781a401704581c487389f823c96e83aaac50ef4a29",
            "hex": "4830450221009c8361eb41dcc46be6034956156371b64b1ca8f247e0076cd4924ff7740a3c37022077a8ac3ffd875360e8970fa1193d85b8f925b2ae4605489523a1edb0493a0aff012103194fb3a84402784a07486e781a401704581c487389f823c96e83aaac50ef4a29"
          },
          "sequence": 4294967295
        }
      ],
      "vout": [
        {
          "value": 2.05917253,
          "n": 0,
          "scriptPubKey": {
            "asm": "OP_DUP OP_HASH160 95986eb647a18466f4c812ba2198483dda12b124 OP_EQUALVERIFY OP_CHECKSIG",
            "hex": "76a91495986eb647a18466f4c812ba2198483dda12b12488ac",
            "reqSigs": 1,
            "type": "pubkeyhash",
            "addresses": [
              "LYrwYzLTS7Hroud8qLAwxMTfa4NQnPsAE6"
            ]
          }
        }, 
        {
          "value": 6.92789537,
          "n": 1,
          "scriptPubKey": {
            "asm": "OP_DUP OP_HASH160 bb153e39fa60375b46f92811eb9d94e174e54d37 OP_EQUALVERIFY OP_CHECKSIG",
            "hex": "76a914bb153e39fa60375b46f92811eb9d94e174e54d3788ac",
            "reqSigs": 1,
            "type": "pubkeyhash",
            "addresses": [
              "LcHA55aotKq6hATdDHqaP3eyNmRBy1TVvp"
            ]
          }
        }
      ],
      "hex": "0100000001d71fd36680f7f03e6b81c5e6556d0c5712def1b55b7ec18666697ccf5e2ea857010000006b4830450221009c8361eb41dcc46be6034956156371b64b1ca8f247e0076cd4924ff7740a3c37022077a8ac3ffd875360e8970fa1193d85b8f925b2ae4605489523a1edb0493a0aff012103194fb3a84402784a07486e781a401704581c487389f823c96e83aaac50ef4a29ffffffff02450c460c000000001976a91495986eb647a18466f4c812ba2198483dda12b12488ac21214b29000000001976a914bb153e39fa60375b46f92811eb9d94e174e54d3788ac00000000"
    }, 
    {
      "txid": "f5f7e1c6d04b35414a417e139a564b645aa313fb96690e9064f3cd590d5bba22",
      "hash": "f5f7e1c6d04b35414a417e139a564b645aa313fb96690e9064f3cd590d5bba22",
      "version": 1,
      "size": 226,
      "vsize": 226,
      "locktime": 0,
      "vin": [
        {
          "txid": "cb7f8ff2de3493f16a1a2ebb8612a73a0af0a1b5465d115d7f59f94f18bba52e",
          "vout": 1,
          "scriptSig": {
            "asm": "3045022100d149cd74160c3bed28ec9dcfc91b38deb472daf25d1f20ae234315abe0a5dd0002206a6a34ac45f72a33c2d876ebfbc5b81cef3909f1f44b79d2b541b51fbe8cb457[ALL] 029260f943183ba20bc18cc842c3f02ea56cd7893159c29a8d14646ad3c7364c23",
            "hex": "483045022100d149cd74160c3bed28ec9dcfc91b38deb472daf25d1f20ae234315abe0a5dd0002206a6a34ac45f72a33c2d876ebfbc5b81cef3909f1f44b79d2b541b51fbe8cb4570121029260f943183ba20bc18cc842c3f02ea56cd7893159c29a8d14646ad3c7364c23"
          },
          "sequence": 4294967295
        }
      ],
      "vout": [
        {
          "value": 0.08034105,
          "n": 0,
          "scriptPubKey": {
            "asm": "OP_DUP OP_HASH160 84dd7d045f1206b69cd1534a371993faa3e7f286 OP_EQUALVERIFY OP_CHECKSIG",
            "hex": "76a91484dd7d045f1206b69cd1534a371993faa3e7f28688ac",
            "reqSigs": 1,
            "type": "pubkeyhash",
            "addresses": [
              "LXLUnpDN2VDVUUrxnzWV4cEsb58uAumFLK"
            ]
          }
        }, 
        {
          "value": 0.00207595,
          "n": 1,
          "scriptPubKey": {
            "asm": "OP_DUP OP_HASH160 4379ca027bdc34ae921a9173e38993476722ff89 OP_EQUALVERIFY OP_CHECKSIG",
            "hex": "76a9144379ca027bdc34ae921a9173e38993476722ff8988ac",
            "reqSigs": 1,
            "type": "pubkeyhash",
            "addresses": [
              "LRNjS7xH4mWjy2Bx6j1SCMbEpVMSKKkXBF"
            ]
          }
        }
      ],
      "hex": "01000000012ea5bb184ff9597f5d115d46b5a1f00a3aa71286bb2e1a6af19334def28f7fcb010000006b483045022100d149cd74160c3bed28ec9dcfc91b38deb472daf25d1f20ae234315abe0a5dd0002206a6a34ac45f72a33c2d876ebfbc5b81cef3909f1f44b79d2b541b51fbe8cb4570121029260f943183ba20bc18cc842c3f02ea56cd7893159c29a8d14646ad3c7364c23ffffffff0239977a00000000001976a91484dd7d045f1206b69cd1534a371993faa3e7f28688aceb2a0300000000001976a9144379ca027bdc34ae921a9173e38993476722ff8988ac00000000"
    }, 
    {
      "txid": "b69077d33366753d3453a02fc6496e4a477a587dc83d29393d025cd1d5b8a236",
      "hash": "b69077d33366753d3453a02fc6496e4a477a587dc83d29393d025cd1d5b8a236",
      "version": 1,
      "size": 770,
      "vsize": 770,
      "locktime": 0,
      "vin": [
        {
          "txid": "e98a3e3d8f62eae320705be78a872ba3aa9211ae815c93714d8a7eccc3301406",
          "vout": 2,
          "scriptSig": {
            "asm": "3045022100e111474e683b18634ed80118a80c11e0de068af7c669ee23bda793e065763600022004659b6f1966a2a587fe3f9512d892a03d47eb1a8cda17a5117c27e33c537eae[ALL] 0328c9ae635abf580c261c44815dc1aac309e16ff26250525b7e99951369d2b8c7",
            "hex": "483045022100e111474e683b18634ed80118a80c11e0de068af7c669ee23bda793e065763600022004659b6f1966a2a587fe3f9512d892a03d47eb1a8cda17a5117c27e33c537eae01210328c9ae635abf580c261c44815dc1aac309e16ff26250525b7e99951369d2b8c7"
          },
          "sequence": 4294967295
        }, 
        {
          "txid": "fdce62c67880244a70a4e7fe46a8e8252fedc9d4562db8b69f9580878389243e",
          "vout": 1,
          "scriptSig": {
            "asm": "3044022076280ec61296afb55d2bc169b136b37b6a9a9f132f31b33761c09b29892d037f02204b8ec5f6da36a522e90d1f8c84321290045b44b7d219efdd9de99601ad9b9a42[ALL] 03a937015275e34c380c4833c7caf6a68808a195dc6757a1d7936acfce92d41733",
            "hex": "473044022076280ec61296afb55d2bc169b136b37b6a9a9f132f31b33761c09b29892d037f02204b8ec5f6da36a522e90d1f8c84321290045b44b7d219efdd9de99601ad9b9a42012103a937015275e34c380c4833c7caf6a68808a195dc6757a1d7936acfce92d41733"
          },
          "sequence": 4294967295
        }, 
        {
          "txid": "27fb3a97212b552996123a22adc6eb2f5d58a904a1b515eae83b55906c9bbd56",
          "vout": 4,
          "scriptSig": {
            "asm": "304402207d981deb53f1c09394f0193ae54848b5e24a0a6e910757527f7248d9ddf6f1f6022036ff32df982c4851efa50b8bc8a532328668170def180c20202aa1893eba7565[ALL] 0328c9ae635abf580c261c44815dc1aac309e16ff26250525b7e99951369d2b8c7",
            "hex": "47304402207d981deb53f1c09394f0193ae54848b5e24a0a6e910757527f7248d9ddf6f1f6022036ff32df982c4851efa50b8bc8a532328668170def180c20202aa1893eba756501210328c9ae635abf580c261c44815dc1aac309e16ff26250525b7e99951369d2b8c7"
          },
          "sequence": 4294967295
        }, 
        {
          "txid": "d109a82a51f0c6094ee8da5b675714173b748bcab15bbf4fe0db3ef02e9044f1",
          "vout": 2,
          "scriptSig": {
            "asm": "3045022100a718c78f587e58f0bf13c87cf111b4aa52d7ffd9a70907078d042729f2d778df022003bccf626a15b834a22f316c0152e9a0e860c5dbb75f4f5b9cab3be1c8503cdf[ALL] 0328c9ae635abf580c261c44815dc1aac309e16ff26250525b7e99951369d2b8c7",
            "hex": "483045022100a718c78f587e58f0bf13c87cf111b4aa52d7ffd9a70907078d042729f2d778df022003bccf626a15b834a22f316c0152e9a0e860c5dbb75f4f5b9cab3be1c8503cdf01210328c9ae635abf580c261c44815dc1aac309e16ff26250525b7e99951369d2b8c7"
          },
          "sequence": 4294967295
        }
      ],
      "vout": [
        {
          "value": 0.11380000,
          "n": 0,
          "scriptPubKey": {
            "asm": "OP_DUP OP_HASH160 dc989a2e0e1ec78f9c0915488dc45d915406c922 OP_EQUALVERIFY OP_CHECKSIG",
            "hex": "76a914dc989a2e0e1ec78f9c0915488dc45d915406c92288ac",
            "reqSigs": 1,
            "type": "pubkeyhash",
            "addresses": [
              "LfLMjQZKtVYUDBCEGG2tggHQfRo487Th3f"
            ]
          }
        }, 
        {
          "value": 1.49955095,
          "n": 1,
          "scriptPubKey": {
            "asm": "OP_DUP OP_HASH160 99f89e08b7f3a52bde68314bb4c0904e242825be OP_EQUALVERIFY OP_CHECKSIG",
            "hex": "76a91499f89e08b7f3a52bde68314bb4c0904e242825be88ac",
            "reqSigs": 1,
            "type": "pubkeyhash",
            "addresses": [
              "LZG5UoCVSJEy3wjCcLGLHb9Bn2bTzHaFBa"
            ]
          }
        }, 
        {
          "value": 1.99900000,
          "n": 2,
          "scriptPubKey": {
            "asm": "OP_DUP OP_HASH160 71fd9bfb27e8d93f30c44ae92a5e891efa42843c OP_EQUALVERIFY OP_CHECKSIG",
            "hex": "76a91471fd9bfb27e8d93f30c44ae92a5e891efa42843c88ac",
            "reqSigs": 1,
            "type": "pubkeyhash",
            "addresses": [
              "LVcgRyPTFYaCKFxBz8aWGrPcemGMzXENiT"
            ]
          }
        }, 
        {
          "value": 16.00000000,
          "n": 3,
          "scriptPubKey": {
            "asm": "OP_DUP OP_HASH160 2f5413895f12b06eabe190d814ec883232f7c5c8 OP_EQUALVERIFY OP_CHECKSIG",
            "hex": "76a9142f5413895f12b06eabe190d814ec883232f7c5c888ac",
            "reqSigs": 1,
            "type": "pubkeyhash",
            "addresses": [
              "LPYCjxGsuc2neYHcXf7htCwfPMF5caTTWg"
            ]
          }
        }, 
        {
          "value": 17.82665888,
          "n": 4,
          "scriptPubKey": {
            "asm": "OP_DUP OP_HASH160 c6e3836c2f4cd8f9c53e32813ded99ac0ce001f1 OP_EQUALVERIFY OP_CHECKSIG",
            "hex": "76a914c6e3836c2f4cd8f9c53e32813ded99ac0ce001f188ac",
            "reqSigs": 1,
            "type": "pubkeyhash",
            "addresses": [
              "LdMac6qdwFnBCVXN96dvoPjzbcE36gzs64"
            ]
          }
        }
      ],
      "hex": "0100000004061430c3cc7e8a4d71935c81ae1192aaa32b878ae75b7020e3ea628f3d3e8ae9020000006b483045022100e111474e683b18634ed80118a80c11e0de068af7c669ee23bda793e065763600022004659b6f1966a2a587fe3f9512d892a03d47eb1a8cda17a5117c27e33c537eae01210328c9ae635abf580c261c44815dc1aac309e16ff26250525b7e99951369d2b8c7ffffffff3e2489838780959fb6b82d56d4c9ed2f25e8a846fee7a4704a248078c662cefd010000006a473044022076280ec61296afb55d2bc169b136b37b6a9a9f132f31b33761c09b29892d037f02204b8ec5f6da36a522e90d1f8c84321290045b44b7d219efdd9de99601ad9b9a42012103a937015275e34c380c4833c7caf6a68808a195dc6757a1d7936acfce92d41733ffffffff56bd9b6c90553be8ea15b5a104a9585d2febc6ad223a129629552b21973afb27040000006a47304402207d981deb53f1c09394f0193ae54848b5e24a0a6e910757527f7248d9ddf6f1f6022036ff32df982c4851efa50b8bc8a532328668170def180c20202aa1893eba756501210328c9ae635abf580c261c44815dc1aac309e16ff26250525b7e99951369d2b8c7fffffffff144902ef03edbe04fbf5bb1ca8b743b171457675bdae84e09c6f0512aa809d1020000006b483045022100a718c78f587e58f0bf13c87cf111b4aa52d7ffd9a70907078d042729f2d778df022003bccf626a15b834a22f316c0152e9a0e860c5dbb75f4f5b9cab3be1c8503cdf01210328c9ae635abf580c261c44815dc1aac309e16ff26250525b7e99951369d2b8c7ffffffff0520a5ad00000000001976a914dc989a2e0e1ec78f9c0915488dc45d915406c92288ac1722f008000000001976a91499f89e08b7f3a52bde68314bb4c0904e242825be88ac603bea0b000000001976a91471fd9bfb27e8d93f30c44ae92a5e891efa42843c88ac00105e5f000000001976a9142f5413895f12b06eabe190d814ec883232f7c5c888aca052416a000000001976a914c6e3836c2f4cd8f9c53e32813ded99ac0ce001f188ac00000000"
    }, 
    {
      "txid": "828a1d4ae24bf106b75981b6bbd9cbcbf56ee1c457f1e55baa2c973f7180f0e3",
      "hash": "828a1d4ae24bf106b75981b6bbd9cbcbf56ee1c457f1e55baa2c973f7180f0e3",
      "version": 2,
      "size": 259,
      "vsize": 259,
      "locktime": 1357979,
      "vin": [
        {
          "txid": "546dc5bc5f9ca4293e29643107ad658c3cc00ff7be0891d9dd8d1c178a59d24d",
          "vout": 1,
          "scriptSig": {
            "asm": "304402206a868135ea15f1f27a362b58733b4c2d0291810a375c1690672d23af694470aa02200c1e193ff4472480af53aa3875fd258e25cf939df6b07f4f0f86dd55e63f42a7[ALL] 02108be211cc23f3a8959379682bec32f972544c1c6ef42055b49243f676e345d6",
            "hex": "47304402206a868135ea15f1f27a362b58733b4c2d0291810a375c1690672d23af694470aa02200c1e193ff4472480af53aa3875fd258e25cf939df6b07f4f0f86dd55e63f42a7012102108be211cc23f3a8959379682bec32f972544c1c6ef42055b49243f676e345d6"
          },
          "sequence": 4294967294
        }
      ],
      "vout": [
        {
          "value": 0.20601128,
          "n": 0,
          "scriptPubKey": {
            "asm": "OP_DUP OP_HASH160 53d90c61e5441f212b2daf34ffe5798455e1c7d0 OP_EQUALVERIFY OP_CHECKSIG",
            "hex": "76a91453d90c61e5441f212b2daf34ffe5798455e1c7d088ac",
            "reqSigs": 1,
            "type": "pubkeyhash",
            "addresses": [
              "LSsJMvK5ZEqR1HZQF16ugxbyK5NPibDVsm"
            ]
          }
        }, 
        {
          "value": 0.30481021,
          "n": 1,
          "scriptPubKey": {
            "asm": "OP_DUP OP_HASH160 367191587a2639cb5045c7f2deda9bae2108160b OP_EQUALVERIFY OP_CHECKSIG",
            "hex": "76a914367191587a2639cb5045c7f2deda9bae2108160b88ac",
            "reqSigs": 1,
            "type": "pubkeyhash",
            "addresses": [
              "LQBpoQ2naxDw2Qmze5Q1ZktWFEppzXgXjF"
            ]
          }
        }, 
        {
          "value": 0.00976851,
          "n": 2,
          "scriptPubKey": {
            "asm": "OP_DUP OP_HASH160 d8935bd233a86bd8bfa4e282215d13a41fa691ab OP_EQUALVERIFY OP_CHECKSIG",
            "hex": "76a914d8935bd233a86bd8bfa4e282215d13a41fa691ab88ac",
            "reqSigs": 1,
            "type": "pubkeyhash",
            "addresses": [
              "Ley6kJrimcui2jb3bDAdwHyg3kekxxVV4N"
            ]
          }
        }
      ],
      "hex": "02000000014dd2598a171c8dddd99108bef70fc03c8c65ad073164293e29a49c5fbcc56d54010000006a47304402206a868135ea15f1f27a362b58733b4c2d0291810a375c1690672d23af694470aa02200c1e193ff4472480af53aa3875fd258e25cf939df6b07f4f0f86dd55e63f42a7012102108be211cc23f3a8959379682bec32f972544c1c6ef42055b49243f676e345d6feffffff0328593a01000000001976a91453d90c61e5441f212b2daf34ffe5798455e1c7d088ac7d1ad101000000001976a914367191587a2639cb5045c7f2deda9bae2108160b88acd3e70e00000000001976a914d8935bd233a86bd8bfa4e282215d13a41fa691ab88ac9bb81400"
    }, 
    {
      "txid": "c6db9fadc96328cbf8e134013c18899b119ac2dfc0c61c4fbb0fb7ae76ec8017",
      "hash": "c6db9fadc96328cbf8e134013c18899b119ac2dfc0c61c4fbb0fb7ae76ec8017",
      "version": 2,
      "size": 373,
      "vsize": 373,
      "locktime": 1357979,
      "vin": [
        {
          "txid": "0f27fd307c1af395bf0e004aa58bf8816619971b9748af78e84a5a3003d1ba3e",
          "vout": 0,
          "scriptSig": {
            "asm": "30450221008f1d00be0fd5343403c0a3da821ace92e1deb918e0da7b5a03e89223c5f6e01d02207aa5daf9000485b3ce306909138de5044732397d20964f882a1f50019f52ced0[ALL] 03bb724e409d67164576ae0176f2d08f80fcc99df329a07739dee319168892b234",
            "hex": "4830450221008f1d00be0fd5343403c0a3da821ace92e1deb918e0da7b5a03e89223c5f6e01d02207aa5daf9000485b3ce306909138de5044732397d20964f882a1f50019f52ced0012103bb724e409d67164576ae0176f2d08f80fcc99df329a07739dee319168892b234"
          },
          "sequence": 4294967294
        }, 
        {
          "txid": "937c80d58772395f0afc2a9f20bc61b15b416950028f0b697a583a6ace5e4be6",
          "vout": 312,
          "scriptSig": {
            "asm": "30440220676cbe26515c72447d6b8df212d4159b87846e56d1978462ad0ae274918a880b02203f3fc7e41790e832418d230a6628da5bc76e2ef1fbf9ffd1afbb3c4e24814985[ALL] 02c8fec87b8937ed873d4058b6fde85f991b583d470982b3045ac0df1a80748534",
            "hex": "4730440220676cbe26515c72447d6b8df212d4159b87846e56d1978462ad0ae274918a880b02203f3fc7e41790e832418d230a6628da5bc76e2ef1fbf9ffd1afbb3c4e24814985012102c8fec87b8937ed873d4058b6fde85f991b583d470982b3045ac0df1a80748534"
          },
          "sequence": 4294967294
        }
      ],
      "vout": [
        {
          "value": 1.34000000,
          "n": 0,
          "scriptPubKey": {
            "asm": "OP_DUP OP_HASH160 3ddf95c933e01608a59381420e3ca825a3df6d5c OP_EQUALVERIFY OP_CHECKSIG",
            "hex": "76a9143ddf95c933e01608a59381420e3ca825a3df6d5c88ac",
            "reqSigs": 1,
            "type": "pubkeyhash",
            "addresses": [
              "LQs7Ksz6PhonPrnLdXfSHH4FydiYLzqG7F"
            ]
          }
        }, 
        {
          "value": 0.00996601,
          "n": 1,
          "scriptPubKey": {
            "asm": "OP_DUP OP_HASH160 b3ee9904d40a8fd7186a8230887c72445155ab01 OP_EQUALVERIFY OP_CHECKSIG",
            "hex": "76a914b3ee9904d40a8fd7186a8230887c72445155ab0188ac",
            "reqSigs": 1,
            "type": "pubkeyhash",
            "addresses": [
              "LbdM3cRZaoMfvCmXqSDaFqzEA8M5LGAjYm"
            ]
          }
        }
      ],
      "hex": "02000000023ebad103305a4ae878af48971b97196681f88ba54a000ebf95f31a7c30fd270f000000006b4830450221008f1d00be0fd5343403c0a3da821ace92e1deb918e0da7b5a03e89223c5f6e01d02207aa5daf9000485b3ce306909138de5044732397d20964f882a1f50019f52ced0012103bb724e409d67164576ae0176f2d08f80fcc99df329a07739dee319168892b234feffffffe64b5ece6a3a587a690b8f025069415bb161bc209f2afc0a5f397287d5807c93380100006a4730440220676cbe26515c72447d6b8df212d4159b87846e56d1978462ad0ae274918a880b02203f3fc7e41790e832418d230a6628da5bc76e2ef1fbf9ffd1afbb3c4e24814985012102c8fec87b8937ed873d4058b6fde85f991b583d470982b3045ac0df1a80748534feffffff0280adfc07000000001976a9143ddf95c933e01608a59381420e3ca825a3df6d5c88acf9340f00000000001976a914b3ee9904d40a8fd7186a8230887c72445155ab0188ac9bb81400"
    }, 
    {
      "txid": "349129d621ac3069a8d973d91acb03c7a43c62a99dd0bf1b9e8af9cabb088563",
      "hash": "349129d621ac3069a8d973d91acb03c7a43c62a99dd0bf1b9e8af9cabb088563",
      "version": 2,
      "size": 521,
      "vsize": 521,
      "locktime": 1357980,
      "vin": [
        {
          "txid": "b71c27d506e7580da7265e00be965675fff45796897857185d85d5fa77ca9855",
          "vout": 19,
          "scriptSig": {
            "asm": "3045022100f2939201053a4461d456b11e49c99e3e091ab6e1adb9169cf893779999a286f0022048a9047496c926e4ce15751d2c60dc203cfbb317426c7e448a4627b6c54c0043[ALL] 035e096ba511080f2addda54b8106aeace23ef6a38f441f0af6ba710576f537b36",
            "hex": "483045022100f2939201053a4461d456b11e49c99e3e091ab6e1adb9169cf893779999a286f0022048a9047496c926e4ce15751d2c60dc203cfbb317426c7e448a4627b6c54c00430121035e096ba511080f2addda54b8106aeace23ef6a38f441f0af6ba710576f537b36"
          },
          "sequence": 4294967294
        }, 
        {
          "txid": "e24502d896ebdd4e0bf945d3385111c97baddcb0ee6f36507a4875443cee0928",
          "vout": 0,
          "scriptSig": {
            "asm": "304402205b30fa9d2d795c1aac771fe012bdd1cc6caf1c4dd5d84414444c22f885b662be02203a572ccfb90e986d0b50e158b1aace0872c0a7d1b38bed347f959ea0219528b7[ALL] 036724a1239a86b6e2ff9c8ac45325054d0e0857bae65688e82aff4bdaa543f0c4",
            "hex": "47304402205b30fa9d2d795c1aac771fe012bdd1cc6caf1c4dd5d84414444c22f885b662be02203a572ccfb90e986d0b50e158b1aace0872c0a7d1b38bed347f959ea0219528b70121036724a1239a86b6e2ff9c8ac45325054d0e0857bae65688e82aff4bdaa543f0c4"
          },
          "sequence": 4294967294
        }, 
        {
          "txid": "04cca5a4c36ab07a5c7cf54035951a1e8b357bf727b14fafe7003bde36bd3b9e",
          "vout": 1626,
          "scriptSig": {
            "asm": "3045022100877157440cbde729cdd8503034655085e9a37832f480aa72b611f96158c87c30022043ad8ae0d13bf33f46084f911417803838ab7e9a88b7e59bf85013fc82bf6330[ALL] 035de28ea9ea93ddf70dd834161746278ccdacdbc1a74a3c728971ae44770d69a2",
            "hex": "483045022100877157440cbde729cdd8503034655085e9a37832f480aa72b611f96158c87c30022043ad8ae0d13bf33f46084f911417803838ab7e9a88b7e59bf85013fc82bf63300121035de28ea9ea93ddf70dd834161746278ccdacdbc1a74a3c728971ae44770d69a2"
          },
          "sequence": 4294967294
        }
      ],
      "vout": [
        {
          "value": 0.00970841,
          "n": 0,
          "scriptPubKey": {
            "asm": "OP_DUP OP_HASH160 4697518c6d2bd70be931d9f015fa15e74bc65df0 OP_EQUALVERIFY OP_CHECKSIG",
            "hex": "76a9144697518c6d2bd70be931d9f015fa15e74bc65df088ac",
            "reqSigs": 1,
            "type": "pubkeyhash",
            "addresses": [
              "LRfCqSNWbpD4hqJG3KjMpKPKFsV9SJYBnF"
            ]
          }
        }, 
        {
          "value": 5.00000000,
          "n": 1,
          "scriptPubKey": {
            "asm": "OP_DUP OP_HASH160 0969325c6b41507798d67ca60f7f83deb63fa039 OP_EQUALVERIFY OP_CHECKSIG",
            "hex": "76a9140969325c6b41507798d67ca60f7f83deb63fa03988ac",
            "reqSigs": 1,
            "type": "pubkeyhash",
            "addresses": [
              "LL5iN8qV6ZWZaR1E7s7Y6cbxN1E1sW8XaZ"
            ]
          }
        }
      ],
      "hex": "02000000035598ca77fad5855d185778899657f4ff755696be005e26a70d58e706d5271cb7130000006b483045022100f2939201053a4461d456b11e49c99e3e091ab6e1adb9169cf893779999a286f0022048a9047496c926e4ce15751d2c60dc203cfbb317426c7e448a4627b6c54c00430121035e096ba511080f2addda54b8106aeace23ef6a38f441f0af6ba710576f537b36feffffff2809ee3c4475487a50366feeb0dcad7bc9115138d345f90b4eddeb96d80245e2000000006a47304402205b30fa9d2d795c1aac771fe012bdd1cc6caf1c4dd5d84414444c22f885b662be02203a572ccfb90e986d0b50e158b1aace0872c0a7d1b38bed347f959ea0219528b70121036724a1239a86b6e2ff9c8ac45325054d0e0857bae65688e82aff4bdaa543f0c4feffffff9e3bbd36de3b00e7af4fb127f77b358b1e1a953540f57c5c7ab06ac3a4a5cc045a0600006b483045022100877157440cbde729cdd8503034655085e9a37832f480aa72b611f96158c87c30022043ad8ae0d13bf33f46084f911417803838ab7e9a88b7e59bf85013fc82bf63300121035de28ea9ea93ddf70dd834161746278ccdacdbc1a74a3c728971ae44770d69a2feffffff0259d00e00000000001976a9144697518c6d2bd70be931d9f015fa15e74bc65df088ac0065cd1d000000001976a9140969325c6b41507798d67ca60f7f83deb63fa03988ac9cb81400"
    }
  ],
  "time": 1517071952,
  "mediantime": 1517071537,
  "nonce": 4137197491,
  "bits": "1a047f14",
  "difficulty": 3731199.183374282,
  "chainwork": "000000000000000000000000000000000000000000000032b2816e17f00a1726",
  "previousblockhash": "19b94dd510fc000378c102d669c492515866e7f1b068aa51eade27ea050ec9eb",
  "nextblockhash": "9a389ea1fdd22c7dfadf53e3d2e95675ef9430e03496d329d812a5e3392b6f76"
}
