{
  "hash": "aa2207272db0a5d89e665f86101631a2ea86c3b21d3aaf88edc3599eaff0a1ea",
  "confirmations": 1986,
  "strippedsize": 2993,
  "size": 3029,
  "weight": 12008,
  "height": 1359008,
  "version": 536870912,
  "versionHex": "20000000",
  "merkleroot": "9ffda0bb3b39c1597f96da938f3cdda5a24aaf0f76f3c46be97edd0b69f3a7c1",
  "tx": [
    {
      "txid": "47ed4d30b1a602aece719cd7c2a1d0a6447f7e460bb563400a756d0e5cbd9e7e",
      "hash": "19488f4e7c3ecc45ded5ae5d70e2a1cd1a6ae97ac30c00d94bb9844822667ad0",
      "version": 1,
      "size": 251,
      "vsize": 224,
      "locktime": 0,
      "vin": [
        {
          "coinbase": "03a0bc140000000000fabe6d6d5fc76d326c50301aa766c4874d53ab289813a9064e1fbd9be6c90d1ea32caa5701000000000000000400fe6e5a04ab18e61e083d32cd58210000000a42570a6657042f42572f",
          "sequence": 4294967295
        }
      ],
      "vout": [
        {
          "value": 25.00370398,
          "n": 0,
          "scriptPubKey": {
            "asm": "OP_DUP OP_HASH160 5373bc9425fd49e6bfe522d3dfc85432da2cc023 OP_EQUALVERIFY OP_CHECKSIG",
            "hex": "76a9145373bc9425fd49e6bfe522d3dfc85432da2cc02388ac",
            "reqSigs": 1,
            "type": "pubkeyhash",
            "addresses": [
              "LSqCzf5bPfkqGf94pJcfxWx5bZMPJE5XRf"
            ]
          }
        }, 
        {
          "value": 0.00000000,
          "n": 1,
          "scriptPubKey": {
            "asm": "OP_RETURN aa21a9ed9856c2c88d2ca1e840b997e96d5657914f802b762efaa192f2c613a82691c0a9",
            "hex": "6a24aa21a9ed9856c2c88d2ca1e840b997e96d5657914f802b762efaa192f2c613a82691c0a9",
            "type": "nulldata"
          }
        }
      ],
      "hex": "010000000001010000000000000000000000000000000000000000000000000000000000000000ffffffff5303a0bc140000000000fabe6d6d5fc76d326c50301aa766c4874d53ab289813a9064e1fbd9be6c90d1ea32caa5701000000000000000400fe6e5a04ab18e61e083d32cd58210000000a42570a6657042f42572fffffffff02de9f0895000000001976a9145373bc9425fd49e6bfe522d3dfc85432da2cc02388ac0000000000000000266a24aa21a9ed9856c2c88d2ca1e840b997e96d5657914f802b762efaa192f2c613a82691c0a90120000000000000000000000000000000000000000000000000000000000000000000000000"
    }, 
    {
      "txid": "7bb846d7cb627c6d95c9266ff33825344ca3bfabeb32c07aaa489e09cbd45542",
      "hash": "7bb846d7cb627c6d95c9266ff33825344ca3bfabeb32c07aaa489e09cbd45542",
      "version": 1,
      "size": 226,
      "vsize": 226,
      "locktime": 0,
      "vin": [
        {
          "txid": "a1652b93db6bb738c82d0abc94e519206c683800de8d67a952a4036419eaacf7",
          "vout": 496,
          "scriptSig": {
            "asm": "304502210097ef13a400668ad532f65b0449c911787240d437a39141e1e5b0e09f53657c2202201b51ecfe29b5aedc3d9e81d4934237c012587850b83f249674403892f5d16d86[ALL] 02db1135cc4902c1d3107a1dd027f8e03c402a84320a1f9c20efbbd01cf3cb4b8e",
            "hex": "48304502210097ef13a400668ad532f65b0449c911787240d437a39141e1e5b0e09f53657c2202201b51ecfe29b5aedc3d9e81d4934237c012587850b83f249674403892f5d16d86012102db1135cc4902c1d3107a1dd027f8e03c402a84320a1f9c20efbbd01cf3cb4b8e"
          },
          "sequence": 4294967295
        }
      ],
      "vout": [
        {
          "value": 0.10654658,
          "n": 0,
          "scriptPubKey": {
            "asm": "OP_DUP OP_HASH160 0522362873562f8d332f8c7e899c086e2d06eca4 OP_EQUALVERIFY OP_CHECKSIG",
            "hex": "76a9140522362873562f8d332f8c7e899c086e2d06eca488ac",
            "reqSigs": 1,
            "type": "pubkeyhash",
            "addresses": [
              "LKh6dESvUTjZ5YmapG9y2hCMm5NvgNPg8K"
            ]
          }
        }, 
        {
          "value": 0.00567943,
          "n": 1,
          "scriptPubKey": {
            "asm": "OP_DUP OP_HASH160 eebbc5f47e94e32aff27a6bb39245a8cb3ac4f43 OP_EQUALVERIFY OP_CHECKSIG",
            "hex": "76a914eebbc5f47e94e32aff27a6bb39245a8cb3ac4f4388ac",
            "reqSigs": 1,
            "type": "pubkeyhash",
            "addresses": [
              "LgzG2aoYJwSSgm7Vkumw19gnTn4e3T2aSg"
            ]
          }
        }
      ],
      "hex": "0100000001f7acea196403a452a9678dde0038686c2019e594bc0a2dc838b76bdb932b65a1f00100006b48304502210097ef13a400668ad532f65b0449c911787240d437a39141e1e5b0e09f53657c2202201b51ecfe29b5aedc3d9e81d4934237c012587850b83f249674403892f5d16d86012102db1135cc4902c1d3107a1dd027f8e03c402a84320a1f9c20efbbd01cf3cb4b8effffffff02c293a200000000001976a9140522362873562f8d332f8c7e899c086e2d06eca488ac87aa0800000000001976a914eebbc5f47e94e32aff27a6bb39245a8cb3ac4f4388ac00000000"
    }, 
    {
      "txid": "37f52e0c0df882799ee8d450c8d33ae89cc93573294602ba57439093655262d9",
      "hash": "37f52e0c0df882799ee8d450c8d33ae89cc93573294602ba57439093655262d9",
      "version": 2,
      "size": 226,
      "vsize": 226,
      "locktime": 1359006,
      "vin": [
        {
          "txid": "c1eb1c4169148f90cb5d4e0e87c17843b446c614c4fe4ded869e3e8df6f6252e",
          "vout": 0,
          "scriptSig": {
            "asm": "30450221008af99a17ff40da492f9d34b9f0f7f76b611e88f049df3c5dee18fdd5cdf6857402205d0cab71efe52a73eea13c1967dd0b651e1d5fa5ab94b57daa4e8f9108708552[ALL] 0280c476bd3b321d7ac75fb644c527ac936e46f1588ddf2f338fcbb1c5b499727f",
            "hex": "4830450221008af99a17ff40da492f9d34b9f0f7f76b611e88f049df3c5dee18fdd5cdf6857402205d0cab71efe52a73eea13c1967dd0b651e1d5fa5ab94b57daa4e8f910870855201210280c476bd3b321d7ac75fb644c527ac936e46f1588ddf2f338fcbb1c5b499727f"
          },
          "sequence": 4294967294
        }
      ],
      "vout": [
        {
          "value": 1.20000000,
          "n": 0,
          "scriptPubKey": {
            "asm": "OP_DUP OP_HASH160 8c9efd203900c7a81ffed41419a24811e89fec9a OP_EQUALVERIFY OP_CHECKSIG",
            "hex": "76a9148c9efd203900c7a81ffed41419a24811e89fec9a88ac",
            "reqSigs": 1,
            "type": "pubkeyhash",
            "addresses": [
              "LY3VKoX8eN5AdK5vMqqJ1D3toEVWed3u3Z"
            ]
          }
        }, 
        {
          "value": 0.10960612,
          "n": 1,
          "scriptPubKey": {
            "asm": "OP_DUP OP_HASH160 e54a26892e493b2f9646696a05ced5c50d90ccf3 OP_EQUALVERIFY OP_CHECKSIG",
            "hex": "76a914e54a26892e493b2f9646696a05ced5c50d90ccf388ac",
            "reqSigs": 1,
            "type": "pubkeyhash",
            "addresses": [
              "Lg8KqDDKToxigYVK8Kg1LHhDxqZMTEJ5UT"
            ]
          }
        }
      ],
      "hex": "02000000012e25f6f68d3e9e86ed4dfec414c646b44378c1870e4e5dcb908f1469411cebc1000000006b4830450221008af99a17ff40da492f9d34b9f0f7f76b611e88f049df3c5dee18fdd5cdf6857402205d0cab71efe52a73eea13c1967dd0b651e1d5fa5ab94b57daa4e8f910870855201210280c476bd3b321d7ac75fb644c527ac936e46f1588ddf2f338fcbb1c5b499727ffeffffff02000e2707000000001976a9148c9efd203900c7a81ffed41419a24811e89fec9a88ace43ea700000000001976a914e54a26892e493b2f9646696a05ced5c50d90ccf388ac9ebc1400"
    }, 
    {
      "txid": "b677e8e888fa61e7f3caaf05276014e9d9285bf8b22f5bfa7f051c0e6e588621",
      "hash": "b677e8e888fa61e7f3caaf05276014e9d9285bf8b22f5bfa7f051c0e6e588621",
      "version": 2,
      "size": 225,
      "vsize": 225,
      "locktime": 1359006,
      "vin": [
        {
          "txid": "699ff82fbd87f7061c087b47de7767ad7b03cb15e677c4baec2890d6d1c56c51",
          "vout": 1,
          "scriptSig": {
            "asm": "30440220225c68dbb969a980ba838abb43de53f0f5f32551c0e01e08e676f3cae5f6258402205188dfb3e232b50a817ff9ab3dce45afc24e93dabd6d96fb6c41f98ea2d015bf[ALL] 02f27b0190b692bb2e15da3a3469901fd160200e232b77070d0917fe992a204c80",
            "hex": "4730440220225c68dbb969a980ba838abb43de53f0f5f32551c0e01e08e676f3cae5f6258402205188dfb3e232b50a817ff9ab3dce45afc24e93dabd6d96fb6c41f98ea2d015bf012102f27b0190b692bb2e15da3a3469901fd160200e232b77070d0917fe992a204c80"
          },
          "sequence": 4294967294
        }
      ],
      "vout": [
        {
          "value": 0.25648000,
          "n": 0,
          "scriptPubKey": {
            "asm": "OP_DUP OP_HASH160 75aaad4594467164bbeb4250ff3789ffb5071cfd OP_EQUALVERIFY OP_CHECKSIG",
            "hex": "76a91475aaad4594467164bbeb4250ff3789ffb5071cfd88ac",
            "reqSigs": 1,
            "type": "pubkeyhash",
            "addresses": [
              "LVx7nVVk3zJSn91QdxbhwGqtsXKCQYQLmD"
            ]
          }
        }, 
        {
          "value": 11.78568222,
          "n": 1,
          "scriptPubKey": {
            "asm": "OP_DUP OP_HASH160 2ffeb38b4305fefc9c6f3e270e4b053e2a1eedb0 OP_EQUALVERIFY OP_CHECKSIG",
            "hex": "76a9142ffeb38b4305fefc9c6f3e270e4b053e2a1eedb088ac",
            "reqSigs": 1,
            "type": "pubkeyhash",
            "addresses": [
              "LPbj9Btt6MTW1KACgU9J2VhdSLWLit3V32"
            ]
          }
        }
      ],
      "hex": "0200000001516cc5d1d69028ecbac477e615cb037bad6777de477b081c06f787bd2ff89f69010000006a4730440220225c68dbb969a980ba838abb43de53f0f5f32551c0e01e08e676f3cae5f6258402205188dfb3e232b50a817ff9ab3dce45afc24e93dabd6d96fb6c41f98ea2d015bf012102f27b0190b692bb2e15da3a3469901fd160200e232b77070d0917fe992a204c80feffffff02805b8701000000001976a91475aaad4594467164bbeb4250ff3789ffb5071cfd88ac1e863f46000000001976a9142ffeb38b4305fefc9c6f3e270e4b053e2a1eedb088ac9ebc1400"
    }, 
    {
      "txid": "fd4f7ccccd1fd82fd764548b0c390184fd1e0b771ab7d4287b9c2eb49be7eba9",
      "hash": "fd4f7ccccd1fd82fd764548b0c390184fd1e0b771ab7d4287b9c2eb49be7eba9",
      "version": 2,
      "size": 225,
      "vsize": 225,
      "locktime": 1359006,
      "vin": [
        {
          "txid": "ca4f5fcaeaf16e12d371e6fce78fdea35369d17373f558732e1f033ec00589d0",
          "vout": 24,
          "scriptSig": {
            "asm": "3044022008fc49281c8fa5d49a1f5027d6002fd9ad4a483cc79956f74a39d84521ba604d02206e472eec56ba302dd11929603547aa691917c3751759e66711d6a28994853c4a[ALL] 020dbeb2ef5d982739554d6db4bc67c682100368c873e97680f5e1654e0115c56c",
            "hex": "473044022008fc49281c8fa5d49a1f5027d6002fd9ad4a483cc79956f74a39d84521ba604d02206e472eec56ba302dd11929603547aa691917c3751759e66711d6a28994853c4a0121020dbeb2ef5d982739554d6db4bc67c682100368c873e97680f5e1654e0115c56c"
          },
          "sequence": 4294967294
        }
      ],
      "vout": [
        {
          "value": 6.84886163,
          "n": 0,
          "scriptPubKey": {
            "asm": "OP_DUP OP_HASH160 331c1fa28a5b3d848dd502ccda87e79682ef5b2d OP_EQUALVERIFY OP_CHECKSIG",
            "hex": "76a914331c1fa28a5b3d848dd502ccda87e79682ef5b2d88ac",
            "reqSigs": 1,
            "type": "pubkeyhash",
            "addresses": [
              "LPtCR4ESosWo2PeQCiWszuaVVE2tSaLgxH"
            ]
          }
        }, 
        {
          "value": 1.32946121,
          "n": 1,
          "scriptPubKey": {
            "asm": "OP_DUP OP_HASH160 b676a578e93631d21b9cafbf74a40436e6599a73 OP_EQUALVERIFY OP_CHECKSIG",
            "hex": "76a914b676a578e93631d21b9cafbf74a40436e6599a7388ac",
            "reqSigs": 1,
            "type": "pubkeyhash",
            "addresses": [
              "LbrjNpZj8tXEZBzTSkwmQoYWJTW1hSdXUj"
            ]
          }
        }
      ],
      "hex": "0200000001d08905c03e031f2e7358f57373d16953a3de8fe7fce671d3126ef1eaca5f4fca180000006a473044022008fc49281c8fa5d49a1f5027d6002fd9ad4a483cc79956f74a39d84521ba604d02206e472eec56ba302dd11929603547aa691917c3751759e66711d6a28994853c4a0121020dbeb2ef5d982739554d6db4bc67c682100368c873e97680f5e1654e0115c56cfeffffff029388d228000000001976a914331c1fa28a5b3d848dd502ccda87e79682ef5b2d88acc998ec07000000001976a914b676a578e93631d21b9cafbf74a40436e6599a7388ac9ebc1400"
    }, 
    {
      "txid": "5c4a2d6941155537cd65f50fe5d7fe089ff150f2ec8d10a4eacc8d961c114901",
      "hash": "5c4a2d6941155537cd65f50fe5d7fe089ff150f2ec8d10a4eacc8d961c114901",
      "version": 1,
      "size": 225,
      "vsize": 225,
      "locktime": 0,
      "vin": [
        {
          "txid": "cc7b22e6a7427a786e003eaa16fdc98404fe60df3e278b57feef76da2f576f49",
          "vout": 7,
          "scriptSig": {
            "asm": "3044022032baf19985b24182e8987d11c105e622773576a35de62285b840eae66facf1110220008e0aed1f99a1a0d78859e0d9133bcd96bbf6e84a3bc3abb3526da2727c5837[ALL] 03d52a0dae891bd9c4085b6b19c1282ae6c15f08cd8e7909496722d71c31980e7c",
            "hex": "473044022032baf19985b24182e8987d11c105e622773576a35de62285b840eae66facf1110220008e0aed1f99a1a0d78859e0d9133bcd96bbf6e84a3bc3abb3526da2727c5837012103d52a0dae891bd9c4085b6b19c1282ae6c15f08cd8e7909496722d71c31980e7c"
          },
          "sequence": 4294967295
        }
      ],
      "vout": [
        {
          "value": 0.01344317,
          "n": 0,
          "scriptPubKey": {
            "asm": "OP_DUP OP_HASH160 52fb7ee16428eb1ec8866aa029a661ce3e92da4d OP_EQUALVERIFY OP_CHECKSIG",
            "hex": "76a91452fb7ee16428eb1ec8866aa029a661ce3e92da4d88ac",
            "reqSigs": 1,
            "type": "pubkeyhash",
            "addresses": [
              "LSnixAZK5LU8AFTNnu8ZistQCS5LdMjcRY"
            ]
          }
        }, 
        {
          "value": 0.47533360,
          "n": 1,
          "scriptPubKey": {
            "asm": "OP_DUP OP_HASH160 daafd0bd29f8cd86707691512ba9e9a46742d8da OP_EQUALVERIFY OP_CHECKSIG",
            "hex": "76a914daafd0bd29f8cd86707691512ba9e9a46742d8da88ac",
            "reqSigs": 1,
            "type": "pubkeyhash",
            "addresses": [
              "LfAGBu7LM4CQ3XPfNkcjwAQRu6tgseN9zV"
            ]
          }
        }
      ],
      "hex": "0100000001496f572fda76effe578b273edf60fe0484c9fd16aa3e006e787a42a7e6227bcc070000006a473044022032baf19985b24182e8987d11c105e622773576a35de62285b840eae66facf1110220008e0aed1f99a1a0d78859e0d9133bcd96bbf6e84a3bc3abb3526da2727c5837012103d52a0dae891bd9c4085b6b19c1282ae6c15f08cd8e7909496722d71c31980e7cffffffff023d831400000000001976a91452fb7ee16428eb1ec8866aa029a661ce3e92da4d88ac304dd502000000001976a914daafd0bd29f8cd86707691512ba9e9a46742d8da88ac00000000"
    }, 
    {
      "txid": "e69a703c9996ec370fac053d563c4fa5ede9eed27f85ab4933e3ff0970e93262",
      "hash": "e69a703c9996ec370fac053d563c4fa5ede9eed27f85ab4933e3ff0970e93262",
      "version": 1,
      "size": 225,
      "vsize": 225,
      "locktime": 0,
      "vin": [
        {
          "txid": "826368d4f616bbd1e2ed49a38dc1983fd5805888638977659e8533799450899b",
          "vout": 1,
          "scriptSig": {
            "asm": "304402203dcf88ed2374ee364b840aed1d2da63e26072f7329c8c9e5c46dd1b960616f32022047e09b966a02f21a5a07b16d8a381954e7dd206af8e9055bde623989f9889c9b[ALL] 02dc2e3117562226b405b8ed198a26ecc6d46e12a3764478c26a9e390a1ab1b62c",
            "hex": "47304402203dcf88ed2374ee364b840aed1d2da63e26072f7329c8c9e5c46dd1b960616f32022047e09b966a02f21a5a07b16d8a381954e7dd206af8e9055bde623989f9889c9b012102dc2e3117562226b405b8ed198a26ecc6d46e12a3764478c26a9e390a1ab1b62c"
          },
          "sequence": 4294967295
        }
      ],
      "vout": [
        {
          "value": 4.20000000,
          "n": 0,
          "scriptPubKey": {
            "asm": "OP_DUP OP_HASH160 7f196ba71afc7c2f7fbe068cc4b08b5376d54915 OP_EQUALVERIFY OP_CHECKSIG",
            "hex": "76a9147f196ba71afc7c2f7fbe068cc4b08b5376d5491588ac",
            "reqSigs": 1,
            "type": "pubkeyhash",
            "addresses": [
              "LWozXpkRuWCLoFhZuH2nREr8Nf764eQEKZ"
            ]
          }
        }, 
        {
          "value": 69.34695682,
          "n": 1,
          "scriptPubKey": {
            "asm": "OP_DUP OP_HASH160 572ef68ba44084bfe9fb95e18df34446bae76a7b OP_EQUALVERIFY OP_CHECKSIG",
            "hex": "76a914572ef68ba44084bfe9fb95e18df34446bae76a7b88ac",
            "reqSigs": 1,
            "type": "pubkeyhash",
            "addresses": [
              "LTAwJxFejQat77VhLX8zFJTA1knsdgMx6k"
            ]
          }
        }
      ],
      "hex": "01000000019b8950947933859e65778963885880d53f98c18da349ede2d1bb16f6d4686382010000006a47304402203dcf88ed2374ee364b840aed1d2da63e26072f7329c8c9e5c46dd1b960616f32022047e09b966a02f21a5a07b16d8a381954e7dd206af8e9055bde623989f9889c9b012102dc2e3117562226b405b8ed198a26ecc6d46e12a3764478c26a9e390a1ab1b62cffffffff0200b10819000000001976a9147f196ba71afc7c2f7fbe068cc4b08b5376d5491588ac020f579d010000001976a914572ef68ba44084bfe9fb95e18df34446bae76a7b88ac00000000"
    }, 
    {
      "txid": "a7d26f3c952ac381ab0905bc2347ac6bf0a4e191e0c505cbc32516538281d66e",
      "hash": "a7d26f3c952ac381ab0905bc2347ac6bf0a4e191e0c505cbc32516538281d66e",
      "version": 2,
      "size": 224,
      "vsize": 224,
      "locktime": 1359006,
      "vin": [
        {
          "txid": "84087f300c4673aec86f62914bff73ab832780ce41c21dfe949a267f3b766137",
          "vout": 1,
          "scriptSig": {
            "asm": "3045022100b91200df8eb8ad2895597065d7566543c519676d19b2cb3e87dc81b6316f701002203df361140adbe9ec43e68f80bf14a308b3195b0634af1c7e5ca106a675be0efc[ALL] 026f179dfa0fb5ba88c215a3bd5bc946aa3e00de0d5fc3e9954863e5692fec367f",
            "hex": "483045022100b91200df8eb8ad2895597065d7566543c519676d19b2cb3e87dc81b6316f701002203df361140adbe9ec43e68f80bf14a308b3195b0634af1c7e5ca106a675be0efc0121026f179dfa0fb5ba88c215a3bd5bc946aa3e00de0d5fc3e9954863e5692fec367f"
          },
          "sequence": 4294967294
        }
      ],
      "vout": [
        {
          "value": 2.74288380,
          "n": 0,
          "scriptPubKey": {
            "asm": "OP_DUP OP_HASH160 291c382048e2a32fc2d576625edae26fff274224 OP_EQUALVERIFY OP_CHECKSIG",
            "hex": "76a914291c382048e2a32fc2d576625edae26fff27422488ac",
            "reqSigs": 1,
            "type": "pubkeyhash",
            "addresses": [
              "LNyKmnWNs9wJVhbqET8eh3UMohHLbAYR9Y"
            ]
          }
        }, 
        {
          "value": 1.13440000,
          "n": 1,
          "scriptPubKey": {
            "asm": "OP_HASH160 2a22fbaec5f2cb80409301c6d208f286758d24e1 OP_EQUAL",
            "hex": "a9142a22fbaec5f2cb80409301c6d208f286758d24e187",
            "reqSigs": 1,
            "type": "scripthash",
            "addresses": [
              "MBjxXA7ZH9ewP5pUnkGhWHeaUnR7BXh3Ek"
            ]
          }
        }
      ],
      "hex": "02000000013761763b7f269a94fe1dc241ce802783ab73ff4b91626fc8ae73460c307f0884010000006b483045022100b91200df8eb8ad2895597065d7566543c519676d19b2cb3e87dc81b6316f701002203df361140adbe9ec43e68f80bf14a308b3195b0634af1c7e5ca106a675be0efc0121026f179dfa0fb5ba88c215a3bd5bc946aa3e00de0d5fc3e9954863e5692fec367ffeffffff02fc4e5910000000001976a914291c382048e2a32fc2d576625edae26fff27422488ac00f5c2060000000017a9142a22fbaec5f2cb80409301c6d208f286758d24e1879ebc1400"
    }, 
    {
      "txid": "a71b3b31d5925b8e9e6f3a2f312c3e8568e9045a564d95e3d6c7d80088bd08b6",
      "hash": "a71b3b31d5925b8e9e6f3a2f312c3e8568e9045a564d95e3d6c7d80088bd08b6",
      "version": 2,
      "size": 669,
      "vsize": 669,
      "locktime": 1359006,
      "vin": [
        {
          "txid": "95a2bcfb1041c77c0c25b284313be26e88a946454125a46b36efc1a07f26f3e1",
          "vout": 1,
          "scriptSig": {
            "asm": "30450221009d932f0ff9e3ddc8515066f506b0ce4eb7cbb6a08b8efa8cc991cf8ca56dc910022010a914fa2738cf9e26d3f5dd9f16cdf23a6fde7374fe2a9a6cabffe77ea3cb90[ALL] 038fa088effc3b30396b2bdd297eb2eb9a7f02f4a30b397fb84a312e84a608d0ba",
            "hex": "4830450221009d932f0ff9e3ddc8515066f506b0ce4eb7cbb6a08b8efa8cc991cf8ca56dc910022010a914fa2738cf9e26d3f5dd9f16cdf23a6fde7374fe2a9a6cabffe77ea3cb900121038fa088effc3b30396b2bdd297eb2eb9a7f02f4a30b397fb84a312e84a608d0ba"
          },
          "sequence": 4294967294
        }, 
        {
          "txid": "d2a56f7f3b1bf44a71d90eb475f7e70c129c08eaeae2d374e35877861d0e5ee0",
          "vout": 1431,
          "scriptSig": {
            "asm": "3045022100a38b0cdc9bcb08785fd56444fc738265d3c6909e9fd46de8bb02b11d1fbb37cf0220781a316b267667eb92fd2cebfeb3a7e29f4c03d56159c63a86ac6fa147e90e81[ALL] 03164f4f59beb9ee769770b399b97c467b13c1b27bac2adfdbd210188b3d046fee",
            "hex": "483045022100a38b0cdc9bcb08785fd56444fc738265d3c6909e9fd46de8bb02b11d1fbb37cf0220781a316b267667eb92fd2cebfeb3a7e29f4c03d56159c63a86ac6fa147e90e81012103164f4f59beb9ee769770b399b97c467b13c1b27bac2adfdbd210188b3d046fee"
          },
          "sequence": 4294967294
        }, 
        {
          "txid": "d2a56f7f3b1bf44a71d90eb475f7e70c129c08eaeae2d374e35877861d0e5ee0",
          "vout": 1571,
          "scriptSig": {
            "asm": "3045022100e9b72ff26262c6b89cdba84be6afca62f8c69ca266719ed31b03b11d53437496022048ce3f487b1688471346275048b8718ba7a55e0b149fd8b723ced73cfcbe58b6[ALL] 024b8c7cd771858eec85772fdf6feea4989e3e1d139e1d086e67d3b72884a08f1f",
            "hex": "483045022100e9b72ff26262c6b89cdba84be6afca62f8c69ca266719ed31b03b11d53437496022048ce3f487b1688471346275048b8718ba7a55e0b149fd8b723ced73cfcbe58b60121024b8c7cd771858eec85772fdf6feea4989e3e1d139e1d086e67d3b72884a08f1f"
          },
          "sequence": 4294967294
        }, 
        {
          "txid": "a8eb3ecaeacef156ae6d18e3fa9b13310edac5e3dec810fc57e81d40cdd6c5d4",
          "vout": 1,
          "scriptSig": {
            "asm": "30440220202647bedbf0826e9aa7919d5a61587b2a818610ada3a74193f03cb9874d3cc5022057866f784f89061d25359066b6d2a5a82dd1b8830def80108da2b24dd7d3ea98[ALL] 02030acb156ecd7723e2017369df1f24407a7ba524fbf733946e68c7817b2f678c",
            "hex": "4730440220202647bedbf0826e9aa7919d5a61587b2a818610ada3a74193f03cb9874d3cc5022057866f784f89061d25359066b6d2a5a82dd1b8830def80108da2b24dd7d3ea98012102030acb156ecd7723e2017369df1f24407a7ba524fbf733946e68c7817b2f678c"
          },
          "sequence": 4294967294
        }
      ],
      "vout": [
        {
          "value": 0.01543534,
          "n": 0,
          "scriptPubKey": {
            "asm": "OP_DUP OP_HASH160 350f6936afcb4449441ae7b5d86ae5e5e596d654 OP_EQUALVERIFY OP_CHECKSIG",
            "hex": "76a914350f6936afcb4449441ae7b5d86ae5e5e596d65488ac",
            "reqSigs": 1,
            "type": "pubkeyhash",
            "addresses": [
              "LQ4WY9um4zxoRVwUc1rZjygpYAwS1B3GWA"
            ]
          }
        }, 
        {
          "value": 0.31900000,
          "n": 1,
          "scriptPubKey": {
            "asm": "OP_DUP OP_HASH160 b9b9f197fe7b3e29385ccb1e454afe5dcc54463c OP_EQUALVERIFY OP_CHECKSIG",
            "hex": "76a914b9b9f197fe7b3e29385ccb1e454afe5dcc54463c88ac",
            "reqSigs": 1,
            "type": "pubkeyhash",
            "addresses": [
              "Lc9z2JFLve1wb7zC86b2UobdsHRZhfxPSj"
            ]
          }
        }
      ],
      "hex": "0200000004e1f3267fa0c1ef366ba425414546a9886ee23b3184b2250c7cc74110fbbca295010000006b4830450221009d932f0ff9e3ddc8515066f506b0ce4eb7cbb6a08b8efa8cc991cf8ca56dc910022010a914fa2738cf9e26d3f5dd9f16cdf23a6fde7374fe2a9a6cabffe77ea3cb900121038fa088effc3b30396b2bdd297eb2eb9a7f02f4a30b397fb84a312e84a608d0bafeffffffe05e0e1d867758e374d3e2eaea089c120ce7f775b40ed9714af41b3b7f6fa5d2970500006b483045022100a38b0cdc9bcb08785fd56444fc738265d3c6909e9fd46de8bb02b11d1fbb37cf0220781a316b267667eb92fd2cebfeb3a7e29f4c03d56159c63a86ac6fa147e90e81012103164f4f59beb9ee769770b399b97c467b13c1b27bac2adfdbd210188b3d046feefeffffffe05e0e1d867758e374d3e2eaea089c120ce7f775b40ed9714af41b3b7f6fa5d2230600006b483045022100e9b72ff26262c6b89cdba84be6afca62f8c69ca266719ed31b03b11d53437496022048ce3f487b1688471346275048b8718ba7a55e0b149fd8b723ced73cfcbe58b60121024b8c7cd771858eec85772fdf6feea4989e3e1d139e1d086e67d3b72884a08f1ffeffffffd4c5d6cd401de857fc10c8dee3c5da0e31139bfae3186dae56f1ceeaca3eeba8010000006a4730440220202647bedbf0826e9aa7919d5a61587b2a818610ada3a74193f03cb9874d3cc5022057866f784f89061d25359066b6d2a5a82dd1b8830def80108da2b24dd7d3ea98012102030acb156ecd7723e2017369df1f24407a7ba524fbf733946e68c7817b2f678cfeffffff026e8d1700000000001976a914350f6936afcb4449441ae7b5d86ae5e5e596d65488ac60c1e601000000001976a914b9b9f197fe7b3e29385ccb1e454afe5dcc54463c88ac9ebc1400"
    }, 
    {
      "txid": "26d9598338932ad3d5ae8dbcadb1bfae47a56913c4543a6ad276c0209ab0c8c4",
      "hash": "26d9598338932ad3d5ae8dbcadb1bfae47a56913c4543a6ad276c0209ab0c8c4",
      "version": 2,
      "size": 226,
      "vsize": 226,
      "locktime": 1359006,
      "vin": [
        {
          "txid": "f2ec945dfc1827a32e1c4627d50aa484f87ff7039ef4ccddc229ad832c47d1c5",
          "vout": 0,
          "scriptSig": {
            "asm": "3045022100a6cf3e1fbb731b5da64cd392a9face1f38e42f8503ca0dd08be9f8034227600b0220363c24628ea8de7a33d4fac5725a0cfc0ba7cab60420cae88734ffc3dd9929cc[ALL] 027959831d7d3dae211c28e4d8c0e7837d3609d4930ba32886de8d40c863f06830",
            "hex": "483045022100a6cf3e1fbb731b5da64cd392a9face1f38e42f8503ca0dd08be9f8034227600b0220363c24628ea8de7a33d4fac5725a0cfc0ba7cab60420cae88734ffc3dd9929cc0121027959831d7d3dae211c28e4d8c0e7837d3609d4930ba32886de8d40c863f06830"
          },
          "sequence": 4294967294
        }
      ],
      "vout": [
        {
          "value": 60.85209545,
          "n": 0,
          "scriptPubKey": {
            "asm": "OP_DUP OP_HASH160 fc05c0a2475e8114a6ca2ce16e2cc1bc1bb8c302 OP_EQUALVERIFY OP_CHECKSIG",
            "hex": "76a914fc05c0a2475e8114a6ca2ce16e2cc1bc1bb8c30288ac",
            "reqSigs": 1,
            "type": "pubkeyhash",
            "addresses": [
              "LiCXSF4pQeRacSAzVkAy2AcBNjPNqGLSoy"
            ]
          }
        }, 
        {
          "value": 2.99900000,
          "n": 1,
          "scriptPubKey": {
            "asm": "OP_DUP OP_HASH160 8f094a717b7b9d38598f5cd633942a8a6d3dbf13 OP_EQUALVERIFY OP_CHECKSIG",
            "hex": "76a9148f094a717b7b9d38598f5cd633942a8a6d3dbf1388ac",
            "reqSigs": 1,
            "type": "pubkeyhash",
            "addresses": [
              "LYGG2BRJVLsom5ymQRSnDNXURRPnZAjXJR"
            ]
          }
        }
      ],
      "hex": "0200000001c5d1472c83ad29c2ddccf49e03f77ff884a40ad527461c2ea32718fc5d94ecf2000000006b483045022100a6cf3e1fbb731b5da64cd392a9face1f38e42f8503ca0dd08be9f8034227600b0220363c24628ea8de7a33d4fac5725a0cfc0ba7cab60420cae88734ffc3dd9929cc0121027959831d7d3dae211c28e4d8c0e7837d3609d4930ba32886de8d40c863f06830feffffff02c9edb46a010000001976a914fc05c0a2475e8114a6ca2ce16e2cc1bc1bb8c30288ac601ce011000000001976a9148f094a717b7b9d38598f5cd633942a8a6d3dbf1388ac9ebc1400"
    }, 
    {
      "txid": "a7616b098a099212e2d0403eeedf83dc61745b6950df072d3c0d336d83ba18fb",
      "hash": "a7616b098a099212e2d0403eeedf83dc61745b6950df072d3c0d336d83ba18fb",
      "version": 1,
      "size": 226,
      "vsize": 226,
      "locktime": 0,
      "vin": [
        {
          "txid": "7cc092ce871675193a31263f37a7323ff7d11b12d087a14a25025bed3f6d8c9a",
          "vout": 1,
          "scriptSig": {
            "asm": "3045022100c259c5e25b6cb0b8bf6b05579efbdb00c8bdc52ffcdac0693cc362945ddec73a02200d29abaf411555a6b05a132fa704dacceebe6c3831b6a69dc2c125e3c1de95dc[ALL] 02948c64f226eb1338a3763f3316a2a6fdb206c00858851b41fef80686581f56bb",
            "hex": "483045022100c259c5e25b6cb0b8bf6b05579efbdb00c8bdc52ffcdac0693cc362945ddec73a02200d29abaf411555a6b05a132fa704dacceebe6c3831b6a69dc2c125e3c1de95dc012102948c64f226eb1338a3763f3316a2a6fdb206c00858851b41fef80686581f56bb"
          },
          "sequence": 4294967295
        }
      ],
      "vout": [
        {
          "value": 2.01949000,
          "n": 0,
          "scriptPubKey": {
            "asm": "OP_DUP OP_HASH160 039b435f6ec4be324e0a80658132e1deff9f88e4 OP_EQUALVERIFY OP_CHECKSIG",
            "hex": "76a914039b435f6ec4be324e0a80658132e1deff9f88e488ac",
            "reqSigs": 1,
            "type": "pubkeyhash",
            "addresses": [
              "LKZ2HfQfSYM1a8ZNJPDevVZdRxnYJ4CfhT"
            ]
          }
        }, 
        {
          "value": 0.13598994,
          "n": 1,
          "scriptPubKey": {
            "asm": "OP_DUP OP_HASH160 e1a951d699d30cf9447e1b8a66d3c1cc876c606d OP_EQUALVERIFY OP_CHECKSIG",
            "hex": "76a914e1a951d699d30cf9447e1b8a66d3c1cc876c606d88ac",
            "reqSigs": 1,
            "type": "pubkeyhash",
            "addresses": [
              "Lfo98uszNqHkXqLXAkUMJKU8V4tnaNromz"
            ]
          }
        }
      ],
      "hex": "01000000019a8c6d3fed5b02254aa187d0121bd1f73f32a7373f26313a19751687ce92c07c010000006b483045022100c259c5e25b6cb0b8bf6b05579efbdb00c8bdc52ffcdac0693cc362945ddec73a02200d29abaf411555a6b05a132fa704dacceebe6c3831b6a69dc2c125e3c1de95dc012102948c64f226eb1338a3763f3316a2a6fdb206c00858851b41fef80686581f56bbffffffff02487f090c000000001976a914039b435f6ec4be324e0a80658132e1deff9f88e488ac1281cf00000000001976a914e1a951d699d30cf9447e1b8a66d3c1cc876c606d88ac00000000"
    }
  ],
  "time": 1517223424,
  "mediantime": 1517222965,
  "nonce": 2175492676,
  "bits": "1a042eae",
  "difficulty": 4011378.762614286,
  "chainwork": "0000000000000000000000000000000000000000000000339a721c5816de9fc2",
  "previousblockhash": "429516331f7bb0970a3c9121246072925192e6f4fba5447c38649744004129c9",
  "nextblockhash": "c48c77c5c528fc2470b69a3b696c6d65e21afc0958215aa8fbba95b6efad3f09"
}
