{
  "hash": "aa6a55ed93a0510da7d7243bde7d40352adcf3a8b61fc3b6313be03368678fd4",
  "confirmations": 989,
  "strippedsize": 253,
  "size": 253,
  "weight": 1012,
  "height": 1360005,
  "version": 536870912,
  "versionHex": "20000000",
  "merkleroot": "651b90f2b7354228d05d9593da7788b53864ca63806812744a7526e2a8b33bd4",
  "tx": [
    {
      "txid": "651b90f2b7354228d05d9593da7788b53864ca63806812744a7526e2a8b33bd4",
      "hash": "651b90f2b7354228d05d9593da7788b53864ca63806812744a7526e2a8b33bd4",
      "version": 1,
      "size": 172,
      "vsize": 172,
      "locktime": 0,
      "vin": [
        {
          "coinbase": "0385c0141a4d696e656420627920416e74506f6f6c20626a341e205a7117b2fabe6d6d56b886a7d4caa560cd1fba64a0f87136e6e4a58a859ed103413d000a4156c89f040000000000000013180000000000000f000000",
          "sequence": 4294967295
        }
      ],
      "vout": [
        {
          "value": 25.00000000,
          "n": 0,
          "scriptPubKey": {
            "asm": "OP_DUP OP_HASH160 0ff3ccc5e8be88afe24b5d634e5852d474dbdff1 OP_EQUALVERIFY OP_CHECKSIG",
            "hex": "76a9140ff3ccc5e8be88afe24b5d634e5852d474dbdff188ac",
            "reqSigs": 1,
            "type": "pubkeyhash",
            "addresses": [
              "LLgJTbzZMsRTCUF1NtvvL9SR1a4pVieW89"
            ]
          }
        }
      ],
      "hex": "01000000010000000000000000000000000000000000000000000000000000000000000000ffffffff570385c0141a4d696e656420627920416e74506f6f6c20626a341e205a7117b2fabe6d6d56b886a7d4caa560cd1fba64a0f87136e6e4a58a859ed103413d000a4156c89f040000000000000013180000000000000f000000ffffffff0100f90295000000001976a9140ff3ccc5e8be88afe24b5d634e5852d474dbdff188ac00000000"
    }
  ],
  "time": 1517361074,
  "mediantime": 1517359847,
  "nonce": 2590072260,
  "bits": "1a042eae",
  "difficulty": 4011378.762614286,
  "chainwork": "00000000000000000000000000000000000000000000003488d432ac80c4c70c",
  "previousblockhash": "125a558dfdb8c52306c09cd378b736cb30c4e768ecfa2576970ec116cf822ffa",
  "nextblockhash": "691baa9f6ef10062dec87d1b8e1edc6a37e1c4d4a63e097d16ab8808f4b6ae67"
}
