{
  "hash": "aa6c21fe22aacdf04c746b67c3d5677541e5eb2bd35266089d691bdd21fa8bfb",
  "confirmations": 2154,
  "strippedsize": 253,
  "size": 253,
  "weight": 1012,
  "height": 1358840,
  "version": 536870912,
  "versionHex": "20000000",
  "merkleroot": "ac30b0512b074aedb9963a85066f78868de06feed58d5a588a174d1ce966ea6b",
  "tx": [
    {
      "txid": "ac30b0512b074aedb9963a85066f78868de06feed58d5a588a174d1ce966ea6b",
      "hash": "ac30b0512b074aedb9963a85066f78868de06feed58d5a588a174d1ce966ea6b",
      "version": 1,
      "size": 172,
      "vsize": 172,
      "locktime": 0,
      "vin": [
        {
          "coinbase": "03f8bb141a4d696e656420627920416e74506f6f6c20626a341e205a6e9e28fabe6d6d49781442bcebc98a0e58ef89a81a63b5d74152034c0ac45105f5b3400562065f0400000000000000c3120000000000001e000000",
          "sequence": 4294967295
        }
      ],
      "vout": [
        {
          "value": 25.00000000,
          "n": 0,
          "scriptPubKey": {
            "asm": "OP_DUP OP_HASH160 0ff3ccc5e8be88afe24b5d634e5852d474dbdff1 OP_EQUALVERIFY OP_CHECKSIG",
            "hex": "76a9140ff3ccc5e8be88afe24b5d634e5852d474dbdff188ac",
            "reqSigs": 1,
            "type": "pubkeyhash",
            "addresses": [
              "LLgJTbzZMsRTCUF1NtvvL9SR1a4pVieW89"
            ]
          }
        }
      ],
      "hex": "01000000010000000000000000000000000000000000000000000000000000000000000000ffffffff5703f8bb141a4d696e656420627920416e74506f6f6c20626a341e205a6e9e28fabe6d6d49781442bcebc98a0e58ef89a81a63b5d74152034c0ac45105f5b3400562065f0400000000000000c3120000000000001e000000ffffffff0100f90295000000001976a9140ff3ccc5e8be88afe24b5d634e5852d474dbdff188ac00000000"
    }
  ],
  "time": 1517198888,
  "mediantime": 1517198359,
  "nonce": 3537098,
  "bits": "1a042eae",
  "difficulty": 4011378.762614286,
  "chainwork": "0000000000000000000000000000000000000000000000337246e0dcbcdf6272",
  "previousblockhash": "d8640e0dac527aea64b18b890046a5cd41f787e0de29ef4134cda4f500cdade0",
  "nextblockhash": "89f1625b2b981be2f88eac7740a27eba24688fc04d067cd75d9372ffb3955494"
}
