{
  "hash": "aa930c40a0b7c378ca32b1780d68dc45b8b97f6955922d95d3449fcf329c2fa7",
  "confirmations": 3190,
  "strippedsize": 4155,
  "size": 4191,
  "weight": 16656,
  "height": 1357805,
  "version": 536870912,
  "versionHex": "20000000",
  "merkleroot": "be821ebf3c06f4688c9fe338036c0af4ee7a0e24a95d367a280c17660c157637",
  "tx": [
    {
      "txid": "bb083b7b2442f82c4ecff83387efb73274a139b47c9cb5d94bca7d849721413e",
      "hash": "4f70e0b3f11a09f44f2d4782cebaa7493902729b6c33f6113457fd9441339180",
      "version": 1,
      "size": 236,
      "vsize": 209,
      "locktime": 0,
      "vin": [
        {
          "coinbase": "03edb714045a6c5a6e2cfabe6d6d6dbf0710b455399c4a9c5cf499afbd47a86156e31a53aae621f534794a9bffc24000000000000000042f4c502f0856000fab18000000",
          "sequence": 4294967295
        }
      ],
      "vout": [
        {
          "value": 25.00822800,
          "n": 0,
          "scriptPubKey": {
            "asm": "OP_DUP OP_HASH160 57757ed2ecf2052ff3126c397aca7defb9ca2cec OP_EQUALVERIFY OP_CHECKSIG",
            "hex": "76a91457757ed2ecf2052ff3126c397aca7defb9ca2cec88ac",
            "reqSigs": 1,
            "type": "pubkeyhash",
            "addresses": [
              "LTCPodGk5FwcJaRzH9yKnwicxzFUbxp6tN"
            ]
          }
        }, 
        {
          "value": 0.00000000,
          "n": 1,
          "scriptPubKey": {
            "asm": "OP_RETURN aa21a9edf164c3b7b43b5c63a27fcf28c31c9aad7a9f8b985865de77f0d46860c1699225",
            "hex": "6a24aa21a9edf164c3b7b43b5c63a27fcf28c31c9aad7a9f8b985865de77f0d46860c1699225",
            "type": "nulldata"
          }
        }
      ],
      "hex": "010000000001010000000000000000000000000000000000000000000000000000000000000000ffffffff4403edb714045a6c5a6e2cfabe6d6d6dbf0710b455399c4a9c5cf499afbd47a86156e31a53aae621f534794a9bffc24000000000000000042f4c502f0856000fab18000000ffffffff0210870f95000000001976a91457757ed2ecf2052ff3126c397aca7defb9ca2cec88ac0000000000000000266a24aa21a9edf164c3b7b43b5c63a27fcf28c31c9aad7a9f8b985865de77f0d46860c16992250120000000000000000000000000000000000000000000000000000000000000000000000000"
    }, 
    {
      "txid": "791d5e1ff2bb638de71c8063ff2e953330db2445617e56e1d116da407ce08922",
      "hash": "791d5e1ff2bb638de71c8063ff2e953330db2445617e56e1d116da407ce08922",
      "version": 1,
      "size": 225,
      "vsize": 225,
      "locktime": 1357803,
      "vin": [
        {
          "txid": "0da91a6c41028c2dfb53e33ef15111f6c8f894addbae0bf17659cedfbfa58b2b",
          "vout": 0,
          "scriptSig": {
            "asm": "3044022016ca42281d35d2ae2006c78684c19d67562d33938a9171ec8231021caa7fa7390220605764c5cb166d79d3acf7d487b9f3cbe928aa227f939714ded4c06eac3f636e[ALL] 03296586404466fa473ec1e692789d773b4a641637ffed4fdac46707eb9949ab66",
            "hex": "473044022016ca42281d35d2ae2006c78684c19d67562d33938a9171ec8231021caa7fa7390220605764c5cb166d79d3acf7d487b9f3cbe928aa227f939714ded4c06eac3f636e012103296586404466fa473ec1e692789d773b4a641637ffed4fdac46707eb9949ab66"
          },
          "sequence": 4294967294
        }
      ],
      "vout": [
        {
          "value": 474.63077242,
          "n": 0,
          "scriptPubKey": {
            "asm": "OP_DUP OP_HASH160 26791fa3cb6450a88f2892d33229a2284f98506a OP_EQUALVERIFY OP_CHECKSIG",
            "hex": "76a91426791fa3cb6450a88f2892d33229a2284f98506a88ac",
            "reqSigs": 1,
            "type": "pubkeyhash",
            "addresses": [
              "LNjP3KMqBf5HbFcn7v5zmEhrsiuZNbopaG"
            ]
          }
        }, 
        {
          "value": 1.00000000,
          "n": 1,
          "scriptPubKey": {
            "asm": "OP_DUP OP_HASH160 ea0ebc8310150de315eae92d1dea9ab223ffa8ab OP_EQUALVERIFY OP_CHECKSIG",
            "hex": "76a914ea0ebc8310150de315eae92d1dea9ab223ffa8ab88ac",
            "reqSigs": 1,
            "type": "pubkeyhash",
            "addresses": [
              "LgZY3172H99soBNXJbzFD3gk9dFVxVMqU8"
            ]
          }
        }
      ],
      "hex": "01000000012b8ba5bfdfce5976f10baedbad94f8c8f61151f13ee353fb2d8c02416c1aa90d000000006a473044022016ca42281d35d2ae2006c78684c19d67562d33938a9171ec8231021caa7fa7390220605764c5cb166d79d3acf7d487b9f3cbe928aa227f939714ded4c06eac3f636e012103296586404466fa473ec1e692789d773b4a641637ffed4fdac46707eb9949ab66feffffff027a15050d0b0000001976a91426791fa3cb6450a88f2892d33229a2284f98506a88ac00e1f505000000001976a914ea0ebc8310150de315eae92d1dea9ab223ffa8ab88acebb71400"
    }, 
    {
      "txid": "b0411249f1d80ffe4bfef0187c89760025ab2075164cda8fa85d215971ae6a90",
      "hash": "b0411249f1d80ffe4bfef0187c89760025ab2075164cda8fa85d215971ae6a90",
      "version": 1,
      "size": 335,
      "vsize": 335,
      "locktime": 0,
      "vin": [
        {
          "txid": "60d091ef65815cb8a21b25269a5be5d04940048f404bf5e3d9405a94e178a0bd",
          "vout": 1,
          "scriptSig": {
            "asm": "0 30440220445d33b68f97eae7f50c6cde592107a521077060d1b8c142df0b53e74dd7582502203119ae5942b27940a0dd8edea0a6df45689101e3cfba339cba31772e0d83aaa1[ALL] 3045022100cb41e807d5751e94750a68ab42dfa1de67e876309f1a07ca64adc8d5a933d2290220534fe8697b26677e4374121d6db91d34886997ba61a35539639a81052546bb63[ALL] 522102f77ec37a042ba4e5e6aef7760398bf59b87ac4c5dee30a2fb8798e9630d4916e210276b93401dc495b28592f66411a7c9093b468f8678db51144fc6a36f550d94aa952ae",
            "hex": "004730440220445d33b68f97eae7f50c6cde592107a521077060d1b8c142df0b53e74dd7582502203119ae5942b27940a0dd8edea0a6df45689101e3cfba339cba31772e0d83aaa101483045022100cb41e807d5751e94750a68ab42dfa1de67e876309f1a07ca64adc8d5a933d2290220534fe8697b26677e4374121d6db91d34886997ba61a35539639a81052546bb630147522102f77ec37a042ba4e5e6aef7760398bf59b87ac4c5dee30a2fb8798e9630d4916e210276b93401dc495b28592f66411a7c9093b468f8678db51144fc6a36f550d94aa952ae"
          },
          "sequence": 4294967295
        }
      ],
      "vout": [
        {
          "value": 0.08188700,
          "n": 0,
          "scriptPubKey": {
            "asm": "OP_DUP OP_HASH160 57c7227d37dc4d173781d7b460bc3a2f80b2b600 OP_EQUALVERIFY OP_CHECKSIG",
            "hex": "76a91457c7227d37dc4d173781d7b460bc3a2f80b2b60088ac",
            "reqSigs": 1,
            "type": "pubkeyhash",
            "addresses": [
              "LTE5c2RfUdQR4FPDGhY7TPCN7aoriBEDcx"
            ]
          }
        }, 
        {
          "value": 29.44690100,
          "n": 1,
          "scriptPubKey": {
            "asm": "OP_HASH160 75b77316f8d91ff71fb2819115d1b6b9e80ccee9 OP_EQUAL",
            "hex": "a91475b77316f8d91ff71fb2819115d1b6b9e80ccee987",
            "reqSigs": 1,
            "type": "scripthash",
            "addresses": [
              "MJdb4B3BMDrfpB1FpKsPYQ1tDHdkNa1oLB"
            ]
          }
        }
      ],
      "hex": "0100000001bda078e1945a40d9e3f54b408f044049d0e55b9a26251ba2b85c8165ef91d06001000000da004730440220445d33b68f97eae7f50c6cde592107a521077060d1b8c142df0b53e74dd7582502203119ae5942b27940a0dd8edea0a6df45689101e3cfba339cba31772e0d83aaa101483045022100cb41e807d5751e94750a68ab42dfa1de67e876309f1a07ca64adc8d5a933d2290220534fe8697b26677e4374121d6db91d34886997ba61a35539639a81052546bb630147522102f77ec37a042ba4e5e6aef7760398bf59b87ac4c5dee30a2fb8798e9630d4916e210276b93401dc495b28592f66411a7c9093b468f8678db51144fc6a36f550d94aa952aeffffffff021cf37c00000000001976a91457c7227d37dc4d173781d7b460bc3a2f80b2b60088acb46784af0000000017a91475b77316f8d91ff71fb2819115d1b6b9e80ccee98700000000"
    }, 
    {
      "txid": "75c1e18d385503f13a9997122f52390bd7fbdddb042cc14a2f23115531f9d507",
      "hash": "75c1e18d385503f13a9997122f52390bd7fbdddb042cc14a2f23115531f9d507",
      "version": 1,
      "size": 225,
      "vsize": 225,
      "locktime": 0,
      "vin": [
        {
          "txid": "9d59a1dcab34dc34d425a2ceb1970bb8a5a92e394540e6bd619feef1675845f0",
          "vout": 1,
          "scriptSig": {
            "asm": "3044022004f732fbb95b3d3d97ebfaebc036802c0ee6e3804e689d723583ddcb3334c26e0220399d56e01f4fe18dc4abb5073fc622863c22b5b35719795fa635e55ba1bab837[ALL] 0384f0a0bb651ff365e926dcc742c9145c99329b0087ae5f8f284579bf3a01658b",
            "hex": "473044022004f732fbb95b3d3d97ebfaebc036802c0ee6e3804e689d723583ddcb3334c26e0220399d56e01f4fe18dc4abb5073fc622863c22b5b35719795fa635e55ba1bab83701210384f0a0bb651ff365e926dcc742c9145c99329b0087ae5f8f284579bf3a01658b"
          },
          "sequence": 4294967295
        }
      ],
      "vout": [
        {
          "value": 1.02000000,
          "n": 0,
          "scriptPubKey": {
            "asm": "OP_DUP OP_HASH160 78c33f568592c13c9bdfca30aaf82823fee92587 OP_EQUALVERIFY OP_CHECKSIG",
            "hex": "76a91478c33f568592c13c9bdfca30aaf82823fee9258788ac",
            "reqSigs": 1,
            "type": "pubkeyhash",
            "addresses": [
              "LWEVFG5dgUFBuqyLqxWcoLU8ZNWEfbWc4M"
            ]
          }
        }, 
        {
          "value": 11.04000000,
          "n": 1,
          "scriptPubKey": {
            "asm": "OP_DUP OP_HASH160 d589176af57e211fb996c4ec3e512d52e6f8d8fd OP_EQUALVERIFY OP_CHECKSIG",
            "hex": "76a914d589176af57e211fb996c4ec3e512d52e6f8d8fd88ac",
            "reqSigs": 1,
            "type": "pubkeyhash",
            "addresses": [
              "Leh2RMaZgju25fMTMTwYQA1QE2DQCxn5c9"
            ]
          }
        }
      ],
      "hex": "0100000001f0455867f1ee9f61bde64045392ea9a5b80b97b1cea225d434dc34abdca1599d010000006a473044022004f732fbb95b3d3d97ebfaebc036802c0ee6e3804e689d723583ddcb3334c26e0220399d56e01f4fe18dc4abb5073fc622863c22b5b35719795fa635e55ba1bab83701210384f0a0bb651ff365e926dcc742c9145c99329b0087ae5f8f284579bf3a01658bffffffff0280651406000000001976a91478c33f568592c13c9bdfca30aaf82823fee9258788ac00b4cd41000000001976a914d589176af57e211fb996c4ec3e512d52e6f8d8fd88ac00000000"
    }, 
    {
      "txid": "7cc9dc6d93d73ffa80ef4acde4d74c7d73cfbc85c2c422592865658aee19fb25",
      "hash": "7cc9dc6d93d73ffa80ef4acde4d74c7d73cfbc85c2c422592865658aee19fb25",
      "version": 1,
      "size": 226,
      "vsize": 226,
      "locktime": 0,
      "vin": [
        {
          "txid": "f8cd69154273d458e5bda0d4dbf8aa07a1137cdabcfd0820d651f71bc4303ac6",
          "vout": 0,
          "scriptSig": {
            "asm": "3045022100e3c7ff0459f3084262de6a4231ba768330e9599b4208f1bd23fb7287927280a802204a16236bf434a3b63156c02e7678488cd729e129a1a7f5c71c57393601d1bf5b[ALL] 032f8378e1be84c6657a3ac06a6d93bd2f3db8727b9bfb5308674918fadfc8a658",
            "hex": "483045022100e3c7ff0459f3084262de6a4231ba768330e9599b4208f1bd23fb7287927280a802204a16236bf434a3b63156c02e7678488cd729e129a1a7f5c71c57393601d1bf5b0121032f8378e1be84c6657a3ac06a6d93bd2f3db8727b9bfb5308674918fadfc8a658"
          },
          "sequence": 4294967295
        }
      ],
      "vout": [
        {
          "value": 0.48000000,
          "n": 0,
          "scriptPubKey": {
            "asm": "OP_DUP OP_HASH160 35fb06e91965bc57da6b7e20b366e829d7bfbbe2 OP_EQUALVERIFY OP_CHECKSIG",
            "hex": "76a91435fb06e91965bc57da6b7e20b366e829d7bfbbe288ac",
            "reqSigs": 1,
            "type": "pubkeyhash",
            "addresses": [
              "LQ9No3MQ5jicvVy7Axb7Z6e1JaFJWssZFx"
            ]
          }
        }, 
        {
          "value": 0.57137990,
          "n": 1,
          "scriptPubKey": {
            "asm": "OP_DUP OP_HASH160 6e3930ee731601f4f3b973467b1ce5a5b0308fcf OP_EQUALVERIFY OP_CHECKSIG",
            "hex": "76a9146e3930ee731601f4f3b973467b1ce5a5b0308fcf88ac",
            "reqSigs": 1,
            "type": "pubkeyhash",
            "addresses": [
              "LVGm72N5KJWck7JwtXTvNEFyWMhxXbaBYz"
            ]
          }
        }
      ],
      "hex": "0100000001c63a30c41bf751d62008fdbcda7c13a107aaf8dbd4a0bde558d473421569cdf8000000006b483045022100e3c7ff0459f3084262de6a4231ba768330e9599b4208f1bd23fb7287927280a802204a16236bf434a3b63156c02e7678488cd729e129a1a7f5c71c57393601d1bf5b0121032f8378e1be84c6657a3ac06a6d93bd2f3db8727b9bfb5308674918fadfc8a658ffffffff02006cdc02000000001976a91435fb06e91965bc57da6b7e20b366e829d7bfbbe288ac46db6703000000001976a9146e3930ee731601f4f3b973467b1ce5a5b0308fcf88ac00000000"
    }, 
    {
      "txid": "2961c1fc7ef8fd76c438f9d258294e49f6a71c045c3a59584f09141b15e12b51",
      "hash": "2961c1fc7ef8fd76c438f9d258294e49f6a71c045c3a59584f09141b15e12b51",
      "version": 1,
      "size": 225,
      "vsize": 225,
      "locktime": 0,
      "vin": [
        {
          "txid": "e95d2a8d3f35ea1a8aa792df61b92a8b04d0075284548a844cbf78fb483c16a7",
          "vout": 1,
          "scriptSig": {
            "asm": "304402201ee6a1cfba6c42d2969636ea59178dd99c993f8d1bc544b3dc19446e9b458379022079438e8259d92b4b800647195f9f658caf75b26d84a78b11659399edc1483668[ALL] 034a7876b5d68fef17ff23794fa8a8345f1228689b9bf89f04e8a7397ea4d494a6",
            "hex": "47304402201ee6a1cfba6c42d2969636ea59178dd99c993f8d1bc544b3dc19446e9b458379022079438e8259d92b4b800647195f9f658caf75b26d84a78b11659399edc14836680121034a7876b5d68fef17ff23794fa8a8345f1228689b9bf89f04e8a7397ea4d494a6"
          },
          "sequence": 4294967295
        }
      ],
      "vout": [
        {
          "value": 0.00054760,
          "n": 0,
          "scriptPubKey": {
            "asm": "OP_DUP OP_HASH160 787ad6364463360e56af1fbd3f1200bd807c8ab8 OP_EQUALVERIFY OP_CHECKSIG",
            "hex": "76a914787ad6364463360e56af1fbd3f1200bd807c8ab888ac",
            "reqSigs": 1,
            "type": "pubkeyhash",
            "addresses": [
              "LWCzW5dvtTo3CXcdkLJmhez9t3EZ7CjVAC"
            ]
          }
        }, 
        {
          "value": 0.02815315,
          "n": 1,
          "scriptPubKey": {
            "asm": "OP_DUP OP_HASH160 0931006aaa14ae816d20179f1201eb4d0409e0a5 OP_EQUALVERIFY OP_CHECKSIG",
            "hex": "76a9140931006aaa14ae816d20179f1201eb4d0409e0a588ac",
            "reqSigs": 1,
            "type": "pubkeyhash",
            "addresses": [
              "LL4Z3ddAvP7DbsaVBGSD1w9wQh81ndLoZC"
            ]
          }
        }
      ],
      "hex": "0100000001a7163c48fb78bf4c848a54845207d0048b2ab961df92a78a1aea353f8d2a5de9010000006a47304402201ee6a1cfba6c42d2969636ea59178dd99c993f8d1bc544b3dc19446e9b458379022079438e8259d92b4b800647195f9f658caf75b26d84a78b11659399edc14836680121034a7876b5d68fef17ff23794fa8a8345f1228689b9bf89f04e8a7397ea4d494a6ffffffff02e8d50000000000001976a914787ad6364463360e56af1fbd3f1200bd807c8ab888ac53f52a00000000001976a9140931006aaa14ae816d20179f1201eb4d0409e0a588ac00000000"
    }, 
    {
      "txid": "a7ce7acf51fa34cec46cd3abecc1a542065b095308be57a22a90dc91c3ce6e84",
      "hash": "a7ce7acf51fa34cec46cd3abecc1a542065b095308be57a22a90dc91c3ce6e84",
      "version": 1,
      "size": 225,
      "vsize": 225,
      "locktime": 0,
      "vin": [
        {
          "txid": "e4ba864241dab825ec44535a279e5b10a8b274ea9267efb2e92219cb6e169ad5",
          "vout": 0,
          "scriptSig": {
            "asm": "304402204dc30a91fe1d30b1efeb550f9c51064e49291f1597163fda51d6ce1ed70372ec02206968ac39c3b66b094f9143e7ec7841219354e614881e73b91e117daa2ca1c663[ALL] 02314d1cc8821e34e763f9dacfb84923184336a0fec0a0a3107d056ff9e8017ea4",
            "hex": "47304402204dc30a91fe1d30b1efeb550f9c51064e49291f1597163fda51d6ce1ed70372ec02206968ac39c3b66b094f9143e7ec7841219354e614881e73b91e117daa2ca1c663012102314d1cc8821e34e763f9dacfb84923184336a0fec0a0a3107d056ff9e8017ea4"
          },
          "sequence": 4294967295
        }
      ],
      "vout": [
        {
          "value": 9.99700000,
          "n": 0,
          "scriptPubKey": {
            "asm": "OP_DUP OP_HASH160 b0217ca2249c970954d402a485c90975ccf0be3d OP_EQUALVERIFY OP_CHECKSIG",
            "hex": "76a914b0217ca2249c970954d402a485c90975ccf0be3d88ac",
            "reqSigs": 1,
            "type": "pubkeyhash",
            "addresses": [
              "LbHFJgXHU4P23H5MYQQSwFaZrcZipRdc6P"
            ]
          }
        }, 
        {
          "value": 12.06854597,
          "n": 1,
          "scriptPubKey": {
            "asm": "OP_DUP OP_HASH160 2f58668cb9f8f039206e79a437660ecbfe110164 OP_EQUALVERIFY OP_CHECKSIG",
            "hex": "76a9142f58668cb9f8f039206e79a437660ecbfe11016488ac",
            "reqSigs": 1,
            "type": "pubkeyhash",
            "addresses": [
              "LPYHvQhKq163q3C9KfmZwvG4vCQoGoTnRM"
            ]
          }
        }
      ],
      "hex": "0100000001d59a166ecb1922e9b2ef6792ea74b2a8105b9e275a5344ec25b8da414286bae4000000006a47304402204dc30a91fe1d30b1efeb550f9c51064e49291f1597163fda51d6ce1ed70372ec02206968ac39c3b66b094f9143e7ec7841219354e614881e73b91e117daa2ca1c663012102314d1cc8821e34e763f9dacfb84923184336a0fec0a0a3107d056ff9e8017ea4ffffffff022036963b000000001976a914b0217ca2249c970954d402a485c90975ccf0be3d88acc523ef47000000001976a9142f58668cb9f8f039206e79a437660ecbfe11016488ac00000000"
    }, 
    {
      "txid": "25ab1942f6a21fa6630c4a4e280281b9a1cad4301cf13e3e70dd1de8a616b60d",
      "hash": "25ab1942f6a21fa6630c4a4e280281b9a1cad4301cf13e3e70dd1de8a616b60d",
      "version": 1,
      "size": 226,
      "vsize": 226,
      "locktime": 1357803,
      "vin": [
        {
          "txid": "ea18f0f0401cbf6479e06ab0f5fa1204a06091e2913356573b41f1d3b0d9c459",
          "vout": 0,
          "scriptSig": {
            "asm": "3045022100ccf979fcef96321ae7995373a9359d246a3d4a6e99f7215f8106785c80f7fe0a022045490e46d9dca4bca55ad90b9e8903d41f0bfb59eaef4af53578a72831669511[ALL] 0219e7a730eb125b2724f3516a772c8ae502f86f7966f3aec5e7e2d1ef9c1a2bc6",
            "hex": "483045022100ccf979fcef96321ae7995373a9359d246a3d4a6e99f7215f8106785c80f7fe0a022045490e46d9dca4bca55ad90b9e8903d41f0bfb59eaef4af53578a7283166951101210219e7a730eb125b2724f3516a772c8ae502f86f7966f3aec5e7e2d1ef9c1a2bc6"
          },
          "sequence": 4294967294
        }
      ],
      "vout": [
        {
          "value": 7.49000000,
          "n": 0,
          "scriptPubKey": {
            "asm": "OP_DUP OP_HASH160 11115412deff7223dc69bd89cd7fe888f23d528e OP_EQUALVERIFY OP_CHECKSIG",
            "hex": "76a91411115412deff7223dc69bd89cd7fe888f23d528e88ac",
            "reqSigs": 1,
            "type": "pubkeyhash",
            "addresses": [
              "LLnCWUQfk2LyZvDVSyEtP148cx8w69GMog"
            ]
          }
        }, 
        {
          "value": 18.98964686,
          "n": 1,
          "scriptPubKey": {
            "asm": "OP_DUP OP_HASH160 6645aaa104677d1db3564affcb061b0afaac48f0 OP_EQUALVERIFY OP_CHECKSIG",
            "hex": "76a9146645aaa104677d1db3564affcb061b0afaac48f088ac",
            "reqSigs": 1,
            "type": "pubkeyhash",
            "addresses": [
              "LUYieJ2S39ash62pzeDC3gpp3jfELJnupM"
            ]
          }
        }
      ],
      "hex": "010000000159c4d9b0d3f1413b57563391e29160a00412faf5b06ae07964bf1c40f0f018ea000000006b483045022100ccf979fcef96321ae7995373a9359d246a3d4a6e99f7215f8106785c80f7fe0a022045490e46d9dca4bca55ad90b9e8903d41f0bfb59eaef4af53578a7283166951101210219e7a730eb125b2724f3516a772c8ae502f86f7966f3aec5e7e2d1ef9c1a2bc6feffffff0240d5a42c000000001976a91411115412deff7223dc69bd89cd7fe888f23d528e88accee62f71000000001976a9146645aaa104677d1db3564affcb061b0afaac48f088acebb71400"
    }, 
    {
      "txid": "056a2cbc4ee0c5ae72861faf7c16f78f58b0726e229ef0d09856c7312e714838",
      "hash": "056a2cbc4ee0c5ae72861faf7c16f78f58b0726e229ef0d09856c7312e714838",
      "version": 2,
      "size": 224,
      "vsize": 224,
      "locktime": 1357794,
      "vin": [
        {
          "txid": "1bec22cbfbdf0edd1762b0b34a94178f5a79d6a001927225538f500fd0562a74",
          "vout": 1,
          "scriptSig": {
            "asm": "30450221009615f2502d8d375c139b97d2e4740e3ffc8f475834cb49a64bd513ba732cf5dc02200eb8f71a28376f24e103df813ee4edb732d1425c5e414bc2d85175baa048dcaf[ALL] 031ad240f09893965b98d4acdf363176786d75d653cd8de44b43c6a35bb1f334a6",
            "hex": "4830450221009615f2502d8d375c139b97d2e4740e3ffc8f475834cb49a64bd513ba732cf5dc02200eb8f71a28376f24e103df813ee4edb732d1425c5e414bc2d85175baa048dcaf0121031ad240f09893965b98d4acdf363176786d75d653cd8de44b43c6a35bb1f334a6"
          },
          "sequence": 4294967294
        }
      ],
      "vout": [
        {
          "value": 3.92883370,
          "n": 0,
          "scriptPubKey": {
            "asm": "OP_HASH160 311d3915b91b188b90222559b2638473a0c705c0 OP_EQUAL",
            "hex": "a914311d3915b91b188b90222559b2638473a0c705c087",
            "reqSigs": 1,
            "type": "scripthash",
            "addresses": [
              "MCNrMH7fqHC1AgEtUczy4cw5GuUVtfhUxx"
            ]
          }
        }, 
        {
          "value": 298.55820601,
          "n": 1,
          "scriptPubKey": {
            "asm": "OP_DUP OP_HASH160 8a5adca40a91b56ead4af6793befed5662368fb9 OP_EQUALVERIFY OP_CHECKSIG",
            "hex": "76a9148a5adca40a91b56ead4af6793befed5662368fb988ac",
            "reqSigs": 1,
            "type": "pubkeyhash",
            "addresses": [
              "LXqWMsy9itEh9TCP5WkozsutkhMoNrCTHc"
            ]
          }
        }
      ],
      "hex": "0200000001742a56d00f508f5325729201a0d6795a8f17944ab3b06217dd0edffbcb22ec1b010000006b4830450221009615f2502d8d375c139b97d2e4740e3ffc8f475834cb49a64bd513ba732cf5dc02200eb8f71a28376f24e103df813ee4edb732d1425c5e414bc2d85175baa048dcaf0121031ad240f09893965b98d4acdf363176786d75d653cd8de44b43c6a35bb1f334a6feffffff02aaec6a170000000017a914311d3915b91b188b90222559b2638473a0c705c08739ab8bf3060000001976a9148a5adca40a91b56ead4af6793befed5662368fb988ace2b71400"
    }, 
    {
      "txid": "c9426b90ec03b8dccdd5bf93a2371ecd964353f4204a25f41992fad8d7294a37",
      "hash": "c9426b90ec03b8dccdd5bf93a2371ecd964353f4204a25f41992fad8d7294a37",
      "version": 1,
      "size": 1963,
      "vsize": 1963,
      "locktime": 0,
      "vin": [
        {
          "txid": "77627f09d34d613edbf5e71a860a21145b38e9f887b19f96b90d4dc8d8d325dd",
          "vout": 0,
          "scriptSig": {
            "asm": "3045022100ff4f2402f59111c3dba8f89897634aadfd989484065e045212da01b30ad92c7d0220777e6fcaec8b5d11c4479bd6377832357b4bc75cb85d737147ad2f7043659d70[ALL] 02ff7e23af6f1d10895707a8e38f228ffd3a4999d0fbf7e7d02091744ee62a747e",
            "hex": "483045022100ff4f2402f59111c3dba8f89897634aadfd989484065e045212da01b30ad92c7d0220777e6fcaec8b5d11c4479bd6377832357b4bc75cb85d737147ad2f7043659d70012102ff7e23af6f1d10895707a8e38f228ffd3a4999d0fbf7e7d02091744ee62a747e"
          },
          "sequence": 4294967295
        }, 
        {
          "txid": "1813ded727e00e2884d3137a131240dd99631e84850ef2e8e10c0aad540514a2",
          "vout": 329,
          "scriptSig": {
            "asm": "3045022100b070d45b27fcc0bade69eb29f1ffbf0d05a6d0b7353598bd1664680046f344270220717dda07a53dbad46da87de7c86d8416e6f129165a4297bdf1c3c69126969754[ALL] 02f2547902de955d1e0e03811664fc481b11cc95a76a757db2589e670b91de1ad5",
            "hex": "483045022100b070d45b27fcc0bade69eb29f1ffbf0d05a6d0b7353598bd1664680046f344270220717dda07a53dbad46da87de7c86d8416e6f129165a4297bdf1c3c69126969754012102f2547902de955d1e0e03811664fc481b11cc95a76a757db2589e670b91de1ad5"
          },
          "sequence": 4294967295
        }, 
        {
          "txid": "1813ded727e00e2884d3137a131240dd99631e84850ef2e8e10c0aad540514a2",
          "vout": 1300,
          "scriptSig": {
            "asm": "3045022100c4162c1e86adbccaeafd052f6e458ccd8417eff8a067324bf65a02c1e37a50b50220794aac8f70eab794f90bd5534a1ffdde07b0b1595eac728474d5718488bcfbb9[ALL] 02f1bc61cf2fe9e9180d020ee3f3ecc16b94616e034244522b7f25e11bf0e88d2a",
            "hex": "483045022100c4162c1e86adbccaeafd052f6e458ccd8417eff8a067324bf65a02c1e37a50b50220794aac8f70eab794f90bd5534a1ffdde07b0b1595eac728474d5718488bcfbb9012102f1bc61cf2fe9e9180d020ee3f3ecc16b94616e034244522b7f25e11bf0e88d2a"
          },
          "sequence": 4294967295
        }, 
        {
          "txid": "1813ded727e00e2884d3137a131240dd99631e84850ef2e8e10c0aad540514a2",
          "vout": 1466,
          "scriptSig": {
            "asm": "3044022029eff4fa08d5f2e66a675a32799b1c5aeea4e344b10834fa49d30b3bd324eabc02201b0c16689cb2b78dfd98075c4f2558d103952403db3ffc029bdabd1ca2736840[ALL] 027e04fc427e6279c9190b9825c2a3894103d831f2a978a990b9c165242b991ffa",
            "hex": "473044022029eff4fa08d5f2e66a675a32799b1c5aeea4e344b10834fa49d30b3bd324eabc02201b0c16689cb2b78dfd98075c4f2558d103952403db3ffc029bdabd1ca27368400121027e04fc427e6279c9190b9825c2a3894103d831f2a978a990b9c165242b991ffa"
          },
          "sequence": 4294967295
        }, 
        {
          "txid": "5135d1c328aadbd9440c8a368d394e5b5a5d261c0ae7c3e5fd787f37f981b12f",
          "vout": 0,
          "scriptSig": {
            "asm": "3045022100a88174fcb4354140e29ba3c6945820aac56685d43bfb66f9cc3a8d16bca1dcfd02200b481de71f445eaa1c9e3600a706bc6d03286951d268964b4d5764b1542220ba[ALL] 03462f11f462a9ba92a272ad5bc52b70f9d9029b4e3912246bc8da3cbb2a6298a4",
            "hex": "483045022100a88174fcb4354140e29ba3c6945820aac56685d43bfb66f9cc3a8d16bca1dcfd02200b481de71f445eaa1c9e3600a706bc6d03286951d268964b4d5764b1542220ba012103462f11f462a9ba92a272ad5bc52b70f9d9029b4e3912246bc8da3cbb2a6298a4"
          },
          "sequence": 4294967295
        }, 
        {
          "txid": "1813ded727e00e2884d3137a131240dd99631e84850ef2e8e10c0aad540514a2",
          "vout": 1699,
          "scriptSig": {
            "asm": "3045022100b710a9e101f16bf845b9723b865e727e9bb89cd366305e90f502b9e4369b238b02202b9dff9f4babd3ea5ff2529877023aa36dd5dc81b3c5c5e4a9e30ccdbd2e1b67[ALL] 03e36760e5c2ca1b13dc704c998d48fd9bd8faf742f3a9f1a2e9674aadd6a0b3bc",
            "hex": "483045022100b710a9e101f16bf845b9723b865e727e9bb89cd366305e90f502b9e4369b238b02202b9dff9f4babd3ea5ff2529877023aa36dd5dc81b3c5c5e4a9e30ccdbd2e1b67012103e36760e5c2ca1b13dc704c998d48fd9bd8faf742f3a9f1a2e9674aadd6a0b3bc"
          },
          "sequence": 4294967295
        }, 
        {
          "txid": "1813ded727e00e2884d3137a131240dd99631e84850ef2e8e10c0aad540514a2",
          "vout": 1604,
          "scriptSig": {
            "asm": "3044022019cccca4eeee9b972bcbbb161d47b6dedd0740ec39428491e0c1a29cf5855fb00220619f3a444a42e19647055ef38e9a2156f6f77abdaf6683270e9511333c2d3611[ALL] 02cb99218e1087c6f6f51792613f21ffb463ed9e288f27976ff349cb46944c5269",
            "hex": "473044022019cccca4eeee9b972bcbbb161d47b6dedd0740ec39428491e0c1a29cf5855fb00220619f3a444a42e19647055ef38e9a2156f6f77abdaf6683270e9511333c2d3611012102cb99218e1087c6f6f51792613f21ffb463ed9e288f27976ff349cb46944c5269"
          },
          "sequence": 4294967295
        }, 
        {
          "txid": "1813ded727e00e2884d3137a131240dd99631e84850ef2e8e10c0aad540514a2",
          "vout": 1658,
          "scriptSig": {
            "asm": "3045022100be4a16b9884860425ffdc3ee0045cffe45489c1a89b3ac03719228b71d789e22022040ee3f5dcb0bf6692ca27fcd3ae05263739dee2a1eaa3229b11eeb5c2f7ffb5f[ALL] 026a3ed0af574f00e5d72abed6d82784808b3ab09b17d9b839bb32fe1b1da95223",
            "hex": "483045022100be4a16b9884860425ffdc3ee0045cffe45489c1a89b3ac03719228b71d789e22022040ee3f5dcb0bf6692ca27fcd3ae05263739dee2a1eaa3229b11eeb5c2f7ffb5f0121026a3ed0af574f00e5d72abed6d82784808b3ab09b17d9b839bb32fe1b1da95223"
          },
          "sequence": 4294967295
        }, 
        {
          "txid": "1813ded727e00e2884d3137a131240dd99631e84850ef2e8e10c0aad540514a2",
          "vout": 1320,
          "scriptSig": {
            "asm": "3045022100f4d546e8ecd836a5718108f190d9c6701c9e18f9e93964d05123033a474fe91f022055ca68106148fa10880433eedc1376e065228cbc0e1f499e1e9e961558012a71[ALL] 02dd611beb083b6cda13440974ae045c369d5b5405e02fe20c89b6a139c53916a3",
            "hex": "483045022100f4d546e8ecd836a5718108f190d9c6701c9e18f9e93964d05123033a474fe91f022055ca68106148fa10880433eedc1376e065228cbc0e1f499e1e9e961558012a71012102dd611beb083b6cda13440974ae045c369d5b5405e02fe20c89b6a139c53916a3"
          },
          "sequence": 4294967295
        }, 
        {
          "txid": "04fdd8613d6fd4961cf66039863ef4067adcb37a5447ac94ac35aa943e5cf804",
          "vout": 1,
          "scriptSig": {
            "asm": "3045022100e5feadf90d4463e9ac42b68c4a3840e3725b059903c0c786e7f6b65a7f67affc02203d3f8106c52187bf04222097571b7d645a8e3675b513361d6e75b1a440b0fb4e[ALL] 02f9365fad1acdf6ddde02777024abb0fce5499e1722716d2c3f4646170c4eac13",
            "hex": "483045022100e5feadf90d4463e9ac42b68c4a3840e3725b059903c0c786e7f6b65a7f67affc02203d3f8106c52187bf04222097571b7d645a8e3675b513361d6e75b1a440b0fb4e012102f9365fad1acdf6ddde02777024abb0fce5499e1722716d2c3f4646170c4eac13"
          },
          "sequence": 4294967295
        }, 
        {
          "txid": "abe3fe90930ed51356d4b2d4d877c46f3c7029e2dbb6962b604b9db0b74529d3",
          "vout": 3,
          "scriptSig": {
            "asm": "3044022064cf6bc6b6cd324d4b89fe66376ae959e71200b73566af2080c66ec0c8315bc4022027788594fc2f248bfecc3f25af45b2e5cba57d016ef94e2233f1d9fb75fbd8d9[ALL] 036eadf11b1f6baecc6dbbfbea4525e3f9bcead03fe2a3e479fd55cd80df204f5a",
            "hex": "473044022064cf6bc6b6cd324d4b89fe66376ae959e71200b73566af2080c66ec0c8315bc4022027788594fc2f248bfecc3f25af45b2e5cba57d016ef94e2233f1d9fb75fbd8d90121036eadf11b1f6baecc6dbbfbea4525e3f9bcead03fe2a3e479fd55cd80df204f5a"
          },
          "sequence": 4294967295
        }, 
        {
          "txid": "5d9fae0285f8b15d7d4ed136996eab83cebf366aa509ce83e51e96c2e369d38f",
          "vout": 1,
          "scriptSig": {
            "asm": "3044022041bb57d712da252d1de84b108abcd12596a1cd1fc6f46fe043d79e36eea753cb02202209b0bf4121b7fab03a597400e11283761446f01a795ec9d741148d47fef330[ALL] 02690e958def6b14bfa7f406a5f0cb6cd6bfc5251f7648d9411a26a064b7c25ebf",
            "hex": "473044022041bb57d712da252d1de84b108abcd12596a1cd1fc6f46fe043d79e36eea753cb02202209b0bf4121b7fab03a597400e11283761446f01a795ec9d741148d47fef330012102690e958def6b14bfa7f406a5f0cb6cd6bfc5251f7648d9411a26a064b7c25ebf"
          },
          "sequence": 4294967295
        }, 
        {
          "txid": "e9a8fa1d8f54ba6595f92bceb5d0dc001d12726fcdc6f975f3de419c7c848e92",
          "vout": 1,
          "scriptSig": {
            "asm": "304402207c3132b260c03deefac2acbfff5283f43a45c1ee3e07cd3a97d3136437e5d65502201905b0bc6a7254efb12c442677e0429bc6881f988f57bbbd3b17e73cf3383505[ALL] 02afb555a6495b54d4854a2401f6e80914bb96f785fc46e2a175e482bf9b6fbae7",
            "hex": "47304402207c3132b260c03deefac2acbfff5283f43a45c1ee3e07cd3a97d3136437e5d65502201905b0bc6a7254efb12c442677e0429bc6881f988f57bbbd3b17e73cf3383505012102afb555a6495b54d4854a2401f6e80914bb96f785fc46e2a175e482bf9b6fbae7"
          },
          "sequence": 4294967295
        }
      ],
      "vout": [
        {
          "value": 37.06335108,
          "n": 0,
          "scriptPubKey": {
            "asm": "OP_DUP OP_HASH160 6c2614c7b45ef8dfa8dc83e6739ddbe201d05ab0 OP_EQUALVERIFY OP_CHECKSIG",
            "hex": "76a9146c2614c7b45ef8dfa8dc83e6739ddbe201d05ab088ac",
            "reqSigs": 1,
            "type": "pubkeyhash",
            "addresses": [
              "LV5nrreyVZJVvptA9PZSD4ViegKh7Qa8MA"
            ]
          }
        }
      ],
      "hex": "010000000ddd25d3d8c84d0db9969fb187f8e9385b14210a861ae7f5db3e614dd3097f6277000000006b483045022100ff4f2402f59111c3dba8f89897634aadfd989484065e045212da01b30ad92c7d0220777e6fcaec8b5d11c4479bd6377832357b4bc75cb85d737147ad2f7043659d70012102ff7e23af6f1d10895707a8e38f228ffd3a4999d0fbf7e7d02091744ee62a747effffffffa2140554ad0a0ce1e8f20e85841e6399dd4012137a13d384280ee027d7de1318490100006b483045022100b070d45b27fcc0bade69eb29f1ffbf0d05a6d0b7353598bd1664680046f344270220717dda07a53dbad46da87de7c86d8416e6f129165a4297bdf1c3c69126969754012102f2547902de955d1e0e03811664fc481b11cc95a76a757db2589e670b91de1ad5ffffffffa2140554ad0a0ce1e8f20e85841e6399dd4012137a13d384280ee027d7de1318140500006b483045022100c4162c1e86adbccaeafd052f6e458ccd8417eff8a067324bf65a02c1e37a50b50220794aac8f70eab794f90bd5534a1ffdde07b0b1595eac728474d5718488bcfbb9012102f1bc61cf2fe9e9180d020ee3f3ecc16b94616e034244522b7f25e11bf0e88d2affffffffa2140554ad0a0ce1e8f20e85841e6399dd4012137a13d384280ee027d7de1318ba0500006a473044022029eff4fa08d5f2e66a675a32799b1c5aeea4e344b10834fa49d30b3bd324eabc02201b0c16689cb2b78dfd98075c4f2558d103952403db3ffc029bdabd1ca27368400121027e04fc427e6279c9190b9825c2a3894103d831f2a978a990b9c165242b991ffaffffffff2fb181f9377f78fde5c3e70a1c265d5a5b4e398d368a0c44d9dbaa28c3d13551000000006b483045022100a88174fcb4354140e29ba3c6945820aac56685d43bfb66f9cc3a8d16bca1dcfd02200b481de71f445eaa1c9e3600a706bc6d03286951d268964b4d5764b1542220ba012103462f11f462a9ba92a272ad5bc52b70f9d9029b4e3912246bc8da3cbb2a6298a4ffffffffa2140554ad0a0ce1e8f20e85841e6399dd4012137a13d384280ee027d7de1318a30600006b483045022100b710a9e101f16bf845b9723b865e727e9bb89cd366305e90f502b9e4369b238b02202b9dff9f4babd3ea5ff2529877023aa36dd5dc81b3c5c5e4a9e30ccdbd2e1b67012103e36760e5c2ca1b13dc704c998d48fd9bd8faf742f3a9f1a2e9674aadd6a0b3bcffffffffa2140554ad0a0ce1e8f20e85841e6399dd4012137a13d384280ee027d7de1318440600006a473044022019cccca4eeee9b972bcbbb161d47b6dedd0740ec39428491e0c1a29cf5855fb00220619f3a444a42e19647055ef38e9a2156f6f77abdaf6683270e9511333c2d3611012102cb99218e1087c6f6f51792613f21ffb463ed9e288f27976ff349cb46944c5269ffffffffa2140554ad0a0ce1e8f20e85841e6399dd4012137a13d384280ee027d7de13187a0600006b483045022100be4a16b9884860425ffdc3ee0045cffe45489c1a89b3ac03719228b71d789e22022040ee3f5dcb0bf6692ca27fcd3ae05263739dee2a1eaa3229b11eeb5c2f7ffb5f0121026a3ed0af574f00e5d72abed6d82784808b3ab09b17d9b839bb32fe1b1da95223ffffffffa2140554ad0a0ce1e8f20e85841e6399dd4012137a13d384280ee027d7de1318280500006b483045022100f4d546e8ecd836a5718108f190d9c6701c9e18f9e93964d05123033a474fe91f022055ca68106148fa10880433eedc1376e065228cbc0e1f499e1e9e961558012a71012102dd611beb083b6cda13440974ae045c369d5b5405e02fe20c89b6a139c53916a3ffffffff04f85c3e94aa35ac94ac47547ab3dc7a06f43e863960f61c96d46f3d61d8fd04010000006b483045022100e5feadf90d4463e9ac42b68c4a3840e3725b059903c0c786e7f6b65a7f67affc02203d3f8106c52187bf04222097571b7d645a8e3675b513361d6e75b1a440b0fb4e012102f9365fad1acdf6ddde02777024abb0fce5499e1722716d2c3f4646170c4eac13ffffffffd32945b7b09d4b602b96b6dbe229703c6fc477d8d4b2d45613d50e9390fee3ab030000006a473044022064cf6bc6b6cd324d4b89fe66376ae959e71200b73566af2080c66ec0c8315bc4022027788594fc2f248bfecc3f25af45b2e5cba57d016ef94e2233f1d9fb75fbd8d90121036eadf11b1f6baecc6dbbfbea4525e3f9bcead03fe2a3e479fd55cd80df204f5affffffff8fd369e3c2961ee583ce09a56a36bfce83ab6e9936d14e7d5db1f88502ae9f5d010000006a473044022041bb57d712da252d1de84b108abcd12596a1cd1fc6f46fe043d79e36eea753cb02202209b0bf4121b7fab03a597400e11283761446f01a795ec9d741148d47fef330012102690e958def6b14bfa7f406a5f0cb6cd6bfc5251f7648d9411a26a064b7c25ebfffffffff928e847c9c41def375f9c6cd6f72121d00dcd0b5ce2bf99565ba548f1dfaa8e9010000006a47304402207c3132b260c03deefac2acbfff5283f43a45c1ee3e07cd3a97d3136437e5d65502201905b0bc6a7254efb12c442677e0429bc6881f988f57bbbd3b17e73cf3383505012102afb555a6495b54d4854a2401f6e80914bb96f785fc46e2a175e482bf9b6fbae7ffffffff01842feadc000000001976a9146c2614c7b45ef8dfa8dc83e6739ddbe201d05ab088ac00000000"
    }
  ],
  "time": 1517050478,
  "mediantime": 1517049573,
  "nonce": 2562432540,
  "bits": "1a047f14",
  "difficulty": 3731199.183374282,
  "chainwork": "0000000000000000000000000000000000000000000000328b24084b152f092c",
  "previousblockhash": "3918319ec66fd262da76ed05e847187ada21e2c0580b47621665ce6efe4fbc70",
  "nextblockhash": "35aec8d4898ed858843421ca5ae46faba4dbf7cb0cdc2bb9bcbd454f349f975f"
}
