{
  "hash": "aacf9cd39a3b83e80ce837243f9bc861eb88dd5052d2a66d5dd36f3d48ce5485",
  "confirmations": 894,
  "strippedsize": 2014,
  "size": 2050,
  "weight": 8092,
  "height": 1360100,
  "version": 536870912,
  "versionHex": "20000000",
  "merkleroot": "a13031939e9314fb601cdfe5cd5b93aee8967a3517b165b34e03b97f4532a6b7",
  "tx": [
    {
      "txid": "1bc2b0cb6546e78b0fc051fc5688876ca52e11ec52ce184033fc1f9acc722e90",
      "hash": "544ad229bafbbf4255b14511f3e275eb02bb8934515a7480b2221f7cb050ffff",
      "version": 1,
      "size": 244,
      "vsize": 217,
      "locktime": 0,
      "vin": [
        {
          "coinbase": "03e4c01404d647715a0804fc443f36000000fabe6d6d895d5d7b031677f68b079286f60aa4d921cd6433d8f57e1092a60e76dc6d72b740000000000000000d2f6e6f64655374726174756d2f",
          "sequence": 0
        }
      ],
      "vout": [
        {
          "value": 25.00218200,
          "n": 0,
          "scriptPubKey": {
            "asm": "OP_DUP OP_HASH160 0c617fdb2ea42aed30a509595ee21ba3f6688db0 OP_EQUALVERIFY OP_CHECKSIG",
            "hex": "76a9140c617fdb2ea42aed30a509595ee21ba3f6688db088ac",
            "reqSigs": 1,
            "type": "pubkeyhash",
            "addresses": [
              "LLMRAtr3qBje2ySEa3CnZ55LA4TQMWnRY3"
            ]
          }
        }, 
        {
          "value": 0.00000000,
          "n": 1,
          "scriptPubKey": {
            "asm": "OP_RETURN aa21a9ed4b8213e50fb6764efc829a560a1ecd56bc7718f4cff3cf7aa7397e47f99ea53a",
            "hex": "6a24aa21a9ed4b8213e50fb6764efc829a560a1ecd56bc7718f4cff3cf7aa7397e47f99ea53a",
            "type": "nulldata"
          }
        }
      ],
      "hex": "010000000001010000000000000000000000000000000000000000000000000000000000000000ffffffff4c03e4c01404d647715a0804fc443f36000000fabe6d6d895d5d7b031677f68b079286f60aa4d921cd6433d8f57e1092a60e76dc6d72b740000000000000000d2f6e6f64655374726174756d2f0000000002584d0695000000001976a9140c617fdb2ea42aed30a509595ee21ba3f6688db088ac0000000000000000266a24aa21a9ed4b8213e50fb6764efc829a560a1ecd56bc7718f4cff3cf7aa7397e47f99ea53a0120000000000000000000000000000000000000000000000000000000000000000000000000"
    }, 
    {
      "txid": "b40546788eb594851f4773142c35a166e043ef6bacc24b54a4eaab44d14e2716",
      "hash": "b40546788eb594851f4773142c35a166e043ef6bacc24b54a4eaab44d14e2716",
      "version": 1,
      "size": 225,
      "vsize": 225,
      "locktime": 1360027,
      "vin": [
        {
          "txid": "784cb5bf20b78670404d36cbf9c4f0da766598eb8dae36c5bdafce047ce9f007",
          "vout": 0,
          "scriptSig": {
            "asm": "3044022036b13949af8323d442ed6fbd9066a9ae2c18a6e7a71d315a3325e5210049f3cc0220467c570d0b7b2b6872b81584a483f3cbd0436bf7f540ff32fb30ff20caf1438f[ALL] 02afa43c6f1377c2733c1b2905db920e24ca8aa93741b89a2014f16dfa781a86fe",
            "hex": "473044022036b13949af8323d442ed6fbd9066a9ae2c18a6e7a71d315a3325e5210049f3cc0220467c570d0b7b2b6872b81584a483f3cbd0436bf7f540ff32fb30ff20caf1438f012102afa43c6f1377c2733c1b2905db920e24ca8aa93741b89a2014f16dfa781a86fe"
          },
          "sequence": 4294967294
        }
      ],
      "vout": [
        {
          "value": 0.01326002,
          "n": 0,
          "scriptPubKey": {
            "asm": "OP_DUP OP_HASH160 4da8c702e7042a94d8afae828ff61cb212d452d8 OP_EQUALVERIFY OP_CHECKSIG",
            "hex": "76a9144da8c702e7042a94d8afae828ff61cb212d452d888ac",
            "reqSigs": 1,
            "type": "pubkeyhash",
            "addresses": [
              "LSJaUqpJ6EaNq2s7W3kpyg3pMsGLjNsVCR"
            ]
          }
        }, 
        {
          "value": 0.00200619,
          "n": 1,
          "scriptPubKey": {
            "asm": "OP_DUP OP_HASH160 d225a75d9d922e2421e9272717c172945a514355 OP_EQUALVERIFY OP_CHECKSIG",
            "hex": "76a914d225a75d9d922e2421e9272717c172945a51435588ac",
            "reqSigs": 1,
            "type": "pubkeyhash",
            "addresses": [
              "LeP7Gj96KQNHh6NHqAj4JRDiQUr21Eb5UE"
            ]
          }
        }
      ],
      "hex": "010000000107f0e97c04ceafbdc536ae8deb986576daf0c4f9cb364d407086b720bfb54c78000000006a473044022036b13949af8323d442ed6fbd9066a9ae2c18a6e7a71d315a3325e5210049f3cc0220467c570d0b7b2b6872b81584a483f3cbd0436bf7f540ff32fb30ff20caf1438f012102afa43c6f1377c2733c1b2905db920e24ca8aa93741b89a2014f16dfa781a86fefeffffff02b23b1400000000001976a9144da8c702e7042a94d8afae828ff61cb212d452d888acab0f0300000000001976a914d225a75d9d922e2421e9272717c172945a51435588ac9bc01400"
    }, 
    {
      "txid": "15168e5dcf38b54c134e7a5fa2a0488b00be6bf569911a6ab9d8e5680d21f657",
      "hash": "15168e5dcf38b54c134e7a5fa2a0488b00be6bf569911a6ab9d8e5680d21f657",
      "version": 2,
      "size": 372,
      "vsize": 372,
      "locktime": 1360098,
      "vin": [
        {
          "txid": "f517fdcba03ba0b32e1e5a39fd83258a95eedcc56e23df8e3fea8b5f28352667",
          "vout": 485,
          "scriptSig": {
            "asm": "304402202e06e4d67cc7eab016eaa3c256db59c1a04aa38c28ee906e251cc4f33977efd0022062f8cd2c1d24f02e529f1a9c060914ccb5e969683de4f92f546573e1358bbf92[ALL] 03b32a8ef26dac45c3c9a40b4181fdd30cbda40f68864ff00de1475317a536c9a2",
            "hex": "47304402202e06e4d67cc7eab016eaa3c256db59c1a04aa38c28ee906e251cc4f33977efd0022062f8cd2c1d24f02e529f1a9c060914ccb5e969683de4f92f546573e1358bbf92012103b32a8ef26dac45c3c9a40b4181fdd30cbda40f68864ff00de1475317a536c9a2"
          },
          "sequence": 4294967294
        }, 
        {
          "txid": "1b22e63a40c63cb8f1a3acf45a961e1eebfe44ff8c223e152958663a7c6c3983",
          "vout": 0,
          "scriptSig": {
            "asm": "304402205a302cc60f38cd3e1125f6abf002b77b0a03c748aaf0635ccdbe9071101c1e320220136a272f5158d1207e22ff04e295f429ba37f2f1d4e07b2bb96dd487634d42ec[ALL] 02884fa2541c19fc76d8f4418135585d0a5920412fa8ca6050e4e0868842fde3be",
            "hex": "47304402205a302cc60f38cd3e1125f6abf002b77b0a03c748aaf0635ccdbe9071101c1e320220136a272f5158d1207e22ff04e295f429ba37f2f1d4e07b2bb96dd487634d42ec012102884fa2541c19fc76d8f4418135585d0a5920412fa8ca6050e4e0868842fde3be"
          },
          "sequence": 4294967294
        }
      ],
      "vout": [
        {
          "value": 5.47384000,
          "n": 0,
          "scriptPubKey": {
            "asm": "OP_DUP OP_HASH160 493edce7690c86d786f20f0ba08c3916d18e740e OP_EQUALVERIFY OP_CHECKSIG",
            "hex": "76a914493edce7690c86d786f20f0ba08c3916d18e740e88ac",
            "reqSigs": 1,
            "type": "pubkeyhash",
            "addresses": [
              "LRuEu1QtaAdaBomf8siU9vh2yH7V4WYMSv"
            ]
          }
        }, 
        {
          "value": 0.00962693,
          "n": 1,
          "scriptPubKey": {
            "asm": "OP_DUP OP_HASH160 bccd0f4862600d21305baf685d3fa8826d2f20b4 OP_EQUALVERIFY OP_CHECKSIG",
            "hex": "76a914bccd0f4862600d21305baf685d3fa8826d2f20b488ac",
            "reqSigs": 1,
            "type": "pubkeyhash",
            "addresses": [
              "LcSEx5HhfuXD3UZSph1b9erQJrPpgKxtuK"
            ]
          }
        }
      ],
      "hex": "0200000002672635285f8bea3f8edf236ec5dcee958a2583fd395a1e2eb3a03ba0cbfd17f5e50100006a47304402202e06e4d67cc7eab016eaa3c256db59c1a04aa38c28ee906e251cc4f33977efd0022062f8cd2c1d24f02e529f1a9c060914ccb5e969683de4f92f546573e1358bbf92012103b32a8ef26dac45c3c9a40b4181fdd30cbda40f68864ff00de1475317a536c9a2feffffff83396c7c3a665829153e228cff44feeb1e1e965af4aca3f1b83cc6403ae6221b000000006a47304402205a302cc60f38cd3e1125f6abf002b77b0a03c748aaf0635ccdbe9071101c1e320220136a272f5158d1207e22ff04e295f429ba37f2f1d4e07b2bb96dd487634d42ec012102884fa2541c19fc76d8f4418135585d0a5920412fa8ca6050e4e0868842fde3befeffffff02c06aa020000000001976a914493edce7690c86d786f20f0ba08c3916d18e740e88ac85b00e00000000001976a914bccd0f4862600d21305baf685d3fa8826d2f20b488ace2c01400"
    }, 
    {
      "txid": "50b6741f16ec69e456cc9add978e4cd8dff91ddbf7705c59e2b4b771b922e64d",
      "hash": "50b6741f16ec69e456cc9add978e4cd8dff91ddbf7705c59e2b4b771b922e64d",
      "version": 1,
      "size": 225,
      "vsize": 225,
      "locktime": 0,
      "vin": [
        {
          "txid": "5c89d0a4ec45a8b929a6bf0b26ca1a01054b0ccb2b965abf7f81b392b1d8fd80",
          "vout": 1,
          "scriptSig": {
            "asm": "304402204e4bbf3b05f53517d8f86a6da5e09a40849ede5bf78e0a5c2f7a03b45edbccc102206c7f6dbf91c64b39eeb19123ba6e8b59cc82476427802eba7849e89750a50c8d[ALL] 023c95bd5ec0a388ccb6e3a992ce751b81a6f34c2202c5eed3429876ce5c0fb6bb",
            "hex": "47304402204e4bbf3b05f53517d8f86a6da5e09a40849ede5bf78e0a5c2f7a03b45edbccc102206c7f6dbf91c64b39eeb19123ba6e8b59cc82476427802eba7849e89750a50c8d0121023c95bd5ec0a388ccb6e3a992ce751b81a6f34c2202c5eed3429876ce5c0fb6bb"
          },
          "sequence": 4294967295
        }
      ],
      "vout": [
        {
          "value": 21.97360975,
          "n": 0,
          "scriptPubKey": {
            "asm": "OP_DUP OP_HASH160 0b843b70c9e3d0eed5161d3e16efa82568b9d668 OP_EQUALVERIFY OP_CHECKSIG",
            "hex": "76a9140b843b70c9e3d0eed5161d3e16efa82568b9d66888ac",
            "reqSigs": 1,
            "type": "pubkeyhash",
            "addresses": [
              "LLGr6yc5tPrubpFpH9cEuiTk29RjFCfzoC"
            ]
          }
        }, 
        {
          "value": 3.00000000,
          "n": 1,
          "scriptPubKey": {
            "asm": "OP_DUP OP_HASH160 c3843c9e1af34f475208ad3d26f3d17d60ad1029 OP_EQUALVERIFY OP_CHECKSIG",
            "hex": "76a914c3843c9e1af34f475208ad3d26f3d17d60ad102988ac",
            "reqSigs": 1,
            "type": "pubkeyhash",
            "addresses": [
              "Ld3kSbMADn94unh3DNWY2vSFrhGdfxD9vD"
            ]
          }
        }
      ],
      "hex": "010000000180fdd8b192b3817fbf5a962bcb0c4b05011aca260bbfa629b9a845eca4d0895c010000006a47304402204e4bbf3b05f53517d8f86a6da5e09a40849ede5bf78e0a5c2f7a03b45edbccc102206c7f6dbf91c64b39eeb19123ba6e8b59cc82476427802eba7849e89750a50c8d0121023c95bd5ec0a388ccb6e3a992ce751b81a6f34c2202c5eed3429876ce5c0fb6bbffffffff024f11f982000000001976a9140b843b70c9e3d0eed5161d3e16efa82568b9d66888ac00a3e111000000001976a914c3843c9e1af34f475208ad3d26f3d17d60ad102988ac00000000"
    }, 
    {
      "txid": "202c39e8cb7e1330bb0fb1d8da297a80d4c0e567be6d6ca1b6546ad462dff463",
      "hash": "202c39e8cb7e1330bb0fb1d8da297a80d4c0e567be6d6ca1b6546ad462dff463",
      "version": 1,
      "size": 225,
      "vsize": 225,
      "locktime": 0,
      "vin": [
        {
          "txid": "6cc9bc7ef7b9066d87b21d7a1f0f3ea21f1199e509977c7fb17ecaabdaeca99b",
          "vout": 1,
          "scriptSig": {
            "asm": "304402203d22064445c502a7dd4f6b46cb2e6fefa6ebd625f3731ec0cf0213eb50aba92b0220589b275d18ddd0124eb077b5f7738e1f7a20de277be6590c3cda748086d6fb10[ALL] 03f76cbbde7522b2d34cb3b18812cf4dfa1411b678aec1a087e17ec32bcb51c3fd",
            "hex": "47304402203d22064445c502a7dd4f6b46cb2e6fefa6ebd625f3731ec0cf0213eb50aba92b0220589b275d18ddd0124eb077b5f7738e1f7a20de277be6590c3cda748086d6fb10012103f76cbbde7522b2d34cb3b18812cf4dfa1411b678aec1a087e17ec32bcb51c3fd"
          },
          "sequence": 4294967295
        }
      ],
      "vout": [
        {
          "value": 25.71887850,
          "n": 0,
          "scriptPubKey": {
            "asm": "OP_DUP OP_HASH160 cce8d369df363433bc382d2994cca2f7a16dafc6 OP_EQUALVERIFY OP_CHECKSIG",
            "hex": "76a914cce8d369df363433bc382d2994cca2f7a16dafc688ac",
            "reqSigs": 1,
            "type": "pubkeyhash",
            "addresses": [
              "LduR2NMWhG6GBfuwroT3FTN71yU483hkxJ"
            ]
          }
        }, 
        {
          "value": 0.74735210,
          "n": 1,
          "scriptPubKey": {
            "asm": "OP_DUP OP_HASH160 7825c4ad520a8298c28423b306c863b7031f7c8d OP_EQUALVERIFY OP_CHECKSIG",
            "hex": "76a9147825c4ad520a8298c28423b306c863b7031f7c8d88ac",
            "reqSigs": 1,
            "type": "pubkeyhash",
            "addresses": [
              "LWBEbRCZB2DzizU6uPie4XtwqxEEtiLKKY"
            ]
          }
        }
      ],
      "hex": "01000000019ba9ecdaabca7eb17f7c9709e599111fa23e0f1f7a1db2876d06b9f77ebcc96c010000006a47304402203d22064445c502a7dd4f6b46cb2e6fefa6ebd625f3731ec0cf0213eb50aba92b0220589b275d18ddd0124eb077b5f7738e1f7a20de277be6590c3cda748086d6fb10012103f76cbbde7522b2d34cb3b18812cf4dfa1411b678aec1a087e17ec32bcb51c3fdffffffff02eae44b99000000001976a914cce8d369df363433bc382d2994cca2f7a16dafc688ac6a5e7404000000001976a9147825c4ad520a8298c28423b306c863b7031f7c8d88ac00000000"
    }, 
    {
      "txid": "8731f94d8af9a4b33181205b88d0348b3337b89d3e4437509c714a1c7fb2aa04",
      "hash": "8731f94d8af9a4b33181205b88d0348b3337b89d3e4437509c714a1c7fb2aa04",
      "version": 1,
      "size": 226,
      "vsize": 226,
      "locktime": 0,
      "vin": [
        {
          "txid": "7373266c7aa7ac2e6f1bbf50ad840c51caa9b3dffa17a343c8712fb82966d16e",
          "vout": 1,
          "scriptSig": {
            "asm": "30450221008991cb1ec03d8827ab36f4fb05d3eafacfc4128d54b89017bab08a57d3a8de050220031a03fcd5fdce7eca1238e51e39844528bfcaa9d6191a047c277147e7d9c8ec[ALL] 025c5298d876ca0a8a3eaa2d52221adee9c037b4eef6749a754d146850639bdd03",
            "hex": "4830450221008991cb1ec03d8827ab36f4fb05d3eafacfc4128d54b89017bab08a57d3a8de050220031a03fcd5fdce7eca1238e51e39844528bfcaa9d6191a047c277147e7d9c8ec0121025c5298d876ca0a8a3eaa2d52221adee9c037b4eef6749a754d146850639bdd03"
          },
          "sequence": 4294967295
        }
      ],
      "vout": [
        {
          "value": 8.00000000,
          "n": 0,
          "scriptPubKey": {
            "asm": "OP_DUP OP_HASH160 78e229cc7121952e5f2e8dc02b1fd12f23b5ec73 OP_EQUALVERIFY OP_CHECKSIG",
            "hex": "76a91478e229cc7121952e5f2e8dc02b1fd12f23b5ec7388ac",
            "reqSigs": 1,
            "type": "pubkeyhash",
            "addresses": [
              "LWF8HLExWLUpCPekBgXezqsi6Lgw1jsbt5"
            ]
          }
        }, 
        {
          "value": 16.04429888,
          "n": 1,
          "scriptPubKey": {
            "asm": "OP_DUP OP_HASH160 dc7aef72939338b74b61bf468c5108990e12937b OP_EQUALVERIFY OP_CHECKSIG",
            "hex": "76a914dc7aef72939338b74b61bf468c5108990e12937b88ac",
            "reqSigs": 1,
            "type": "pubkeyhash",
            "addresses": [
              "LfKkC7WSdU1t5hRbqPHbxrgpFjEr5Ks9HS"
            ]
          }
        }
      ],
      "hex": "01000000016ed16629b82f71c843a317fadfb3a9ca510c84ad50bf1b6f2eaca77a6c267373010000006b4830450221008991cb1ec03d8827ab36f4fb05d3eafacfc4128d54b89017bab08a57d3a8de050220031a03fcd5fdce7eca1238e51e39844528bfcaa9d6191a047c277147e7d9c8ec0121025c5298d876ca0a8a3eaa2d52221adee9c037b4eef6749a754d146850639bdd03ffffffff020008af2f000000001976a91478e229cc7121952e5f2e8dc02b1fd12f23b5ec7388ac40a8a15f000000001976a914dc7aef72939338b74b61bf468c5108990e12937b88ac00000000"
    }, 
    {
      "txid": "00617f996389c5dc98846e36d4db4c7d0730def474167b27487c0d32d733c63e",
      "hash": "00617f996389c5dc98846e36d4db4c7d0730def474167b27487c0d32d733c63e",
      "version": 1,
      "size": 226,
      "vsize": 226,
      "locktime": 0,
      "vin": [
        {
          "txid": "de08bd48c84dc12da6cc397bacb67d5f40e31129f3c51ebb85fddbe4718cb504",
          "vout": 1,
          "scriptSig": {
            "asm": "3045022100c86fed5f87b00a532d541dc8d676846b6d79f6db3c2f56008c117af07af83f6f02204b322232d9c8af9ed60efffdaf322fab616c4aff8da6ca2cd406cb6e6a8a97e8[ALL] 03c639ece628886dd7d688175f882ec7bf1d041a926254068ab06eb2aea7e134e8",
            "hex": "483045022100c86fed5f87b00a532d541dc8d676846b6d79f6db3c2f56008c117af07af83f6f02204b322232d9c8af9ed60efffdaf322fab616c4aff8da6ca2cd406cb6e6a8a97e8012103c639ece628886dd7d688175f882ec7bf1d041a926254068ab06eb2aea7e134e8"
          },
          "sequence": 4294967295
        }
      ],
      "vout": [
        {
          "value": 9.49390594,
          "n": 0,
          "scriptPubKey": {
            "asm": "OP_DUP OP_HASH160 17556f8ef68c4031aabdf9def23ee50ca1c3e300 OP_EQUALVERIFY OP_CHECKSIG",
            "hex": "76a91417556f8ef68c4031aabdf9def23ee50ca1c3e30088ac",
            "reqSigs": 1,
            "type": "pubkeyhash",
            "addresses": [
              "LMML9okU7nogCgC7CFMknrnbCYpaup9ME9"
            ]
          }
        }, 
        {
          "value": 15.01119886,
          "n": 1,
          "scriptPubKey": {
            "asm": "OP_DUP OP_HASH160 3b780d9b9597445107102797c73ff1d3dac836ab OP_EQUALVERIFY OP_CHECKSIG",
            "hex": "76a9143b780d9b9597445107102797c73ff1d3dac836ab88ac",
            "reqSigs": 1,
            "type": "pubkeyhash",
            "addresses": [
              "LQePwyEvNqt1cL4uishGUTHknGppp2PBxh"
            ]
          }
        }
      ],
      "hex": "010000000104b58c71e4dbfd85bb1ec5f32911e3405f7db6ac7b39cca62dc14dc848bd08de010000006b483045022100c86fed5f87b00a532d541dc8d676846b6d79f6db3c2f56008c117af07af83f6f02204b322232d9c8af9ed60efffdaf322fab616c4aff8da6ca2cd406cb6e6a8a97e8012103c639ece628886dd7d688175f882ec7bf1d041a926254068ab06eb2aea7e134e8ffffffff02028d9638000000001976a91417556f8ef68c4031aabdf9def23ee50ca1c3e30088ac8e457959000000001976a9143b780d9b9597445107102797c73ff1d3dac836ab88ac00000000"
    }, 
    {
      "txid": "74de407cb9017b92493767e9fbfe7ea57798222d46806f408a06179d4b97a5a3",
      "hash": "74de407cb9017b92493767e9fbfe7ea57798222d46806f408a06179d4b97a5a3",
      "version": 1,
      "size": 226,
      "vsize": 226,
      "locktime": 0,
      "vin": [
        {
          "txid": "04a7d5e84dbede9df9d5d271d1dcdaca6d4ac78fe4260e180fddbc644ebf9ec0",
          "vout": 1,
          "scriptSig": {
            "asm": "304502210090d66dc1c891f702ef4ed51b8165a2688a3286b7b90f7d123ce093c5a33b68bb02202de20e3991d1e5f146c530b76bd90b500fcf1909c41d136ad718615843ada303[ALL] 02f7ab2870af9baa8336f3c0fb1b337191aaf42a2a0a197c9917ecebd8860128aa",
            "hex": "48304502210090d66dc1c891f702ef4ed51b8165a2688a3286b7b90f7d123ce093c5a33b68bb02202de20e3991d1e5f146c530b76bd90b500fcf1909c41d136ad718615843ada303012102f7ab2870af9baa8336f3c0fb1b337191aaf42a2a0a197c9917ecebd8860128aa"
          },
          "sequence": 4294967295
        }
      ],
      "vout": [
        {
          "value": 0.00058355,
          "n": 0,
          "scriptPubKey": {
            "asm": "OP_DUP OP_HASH160 19e04e0cf76bdf86f66b4aec7b3eb3949abed402 OP_EQUALVERIFY OP_CHECKSIG",
            "hex": "76a91419e04e0cf76bdf86f66b4aec7b3eb3949abed40288ac",
            "reqSigs": 1,
            "type": "pubkeyhash",
            "addresses": [
              "LMamrz7F4gW3UJ8XKa22RMcUCVFeBUtovx"
            ]
          }
        }, 
        {
          "value": 0.09458000,
          "n": 1,
          "scriptPubKey": {
            "asm": "OP_DUP OP_HASH160 fbdc4c0ba2efdbbe119517a8283414361a0cc11d OP_EQUALVERIFY OP_CHECKSIG",
            "hex": "76a914fbdc4c0ba2efdbbe119517a8283414361a0cc11d88ac",
            "reqSigs": 1,
            "type": "pubkeyhash",
            "addresses": [
              "LiBfmsQwMwEkqWmFV5Zm849LKB8dLQJHqx"
            ]
          }
        }
      ],
      "hex": "0100000001c09ebf4e64bcdd0f180e26e48fc74a6dcadadcd171d2d5f99ddebe4de8d5a704010000006b48304502210090d66dc1c891f702ef4ed51b8165a2688a3286b7b90f7d123ce093c5a33b68bb02202de20e3991d1e5f146c530b76bd90b500fcf1909c41d136ad718615843ada303012102f7ab2870af9baa8336f3c0fb1b337191aaf42a2a0a197c9917ecebd8860128aaffffffff02f3e30000000000001976a91419e04e0cf76bdf86f66b4aec7b3eb3949abed40288ac50519000000000001976a914fbdc4c0ba2efdbbe119517a8283414361a0cc11d88ac00000000"
    }
  ],
  "time": 1517373340,
  "mediantime": 1517373054,
  "nonce": 3660611000,
  "bits": "1a042eae",
  "difficulty": 4011378.762614286,
  "chainwork": "0000000000000000000000000000000000000000000000349f8b1ef9dfd9ae4a",
  "previousblockhash": "042730c0c0a56c2d71dc5bb5e011f1092f96200734a8d259c39a67e211518a56",
  "nextblockhash": "ebf0ef61225370b1f19ae638cf8193c9ddd94ebc2e25757f1e0cc70b03610b30"
}
