{
  "hash": "aae55560c3878da0b62761848d82230b78cd55ff119d29def8de9ce118516cab",
  "confirmations": 2222,
  "strippedsize": 5536,
  "size": 5572,
  "weight": 22180,
  "height": 1358772,
  "version": 536870912,
  "versionHex": "20000000",
  "merkleroot": "46c23dbee5b9da9e7df8e840388c0223562b0796c7b99c2acc8b1ce3416961c4",
  "tx": [
    {
      "txid": "d92d1bb7c000bca90e867bab0d2e6f5e698f324e74d68bbe3ed48854652f4f1a",
      "hash": "19a5b70b0cc3c102d23fe8fcfa76baa4f028113a1f6f0cacc9f539ab83a15e58",
      "version": 1,
      "size": 236,
      "vsize": 209,
      "locktime": 0,
      "vin": [
        {
          "coinbase": "03b4bb14045a6e7f422cfabe6d6ddf4d9a71790da440240a316b771bfe2997fbad90e714c29fa554e03b82b953374000000000000000042f4c502f0822000b5c22110000",
          "sequence": 4294967295
        }
      ],
      "vout": [
        {
          "value": 25.00514600,
          "n": 0,
          "scriptPubKey": {
            "asm": "OP_DUP OP_HASH160 57757ed2ecf2052ff3126c397aca7defb9ca2cec OP_EQUALVERIFY OP_CHECKSIG",
            "hex": "76a91457757ed2ecf2052ff3126c397aca7defb9ca2cec88ac",
            "reqSigs": 1,
            "type": "pubkeyhash",
            "addresses": [
              "LTCPodGk5FwcJaRzH9yKnwicxzFUbxp6tN"
            ]
          }
        }, 
        {
          "value": 0.00000000,
          "n": 1,
          "scriptPubKey": {
            "asm": "OP_RETURN aa21a9ed0d6742536bff8ffe7df6645182bb9fb7690ef5537d0d7607515f937cff9e8e75",
            "hex": "6a24aa21a9ed0d6742536bff8ffe7df6645182bb9fb7690ef5537d0d7607515f937cff9e8e75",
            "type": "nulldata"
          }
        }
      ],
      "hex": "010000000001010000000000000000000000000000000000000000000000000000000000000000ffffffff4403b4bb14045a6e7f422cfabe6d6ddf4d9a71790da440240a316b771bfe2997fbad90e714c29fa554e03b82b953374000000000000000042f4c502f0822000b5c22110000ffffffff0228d30a95000000001976a91457757ed2ecf2052ff3126c397aca7defb9ca2cec88ac0000000000000000266a24aa21a9ed0d6742536bff8ffe7df6645182bb9fb7690ef5537d0d7607515f937cff9e8e750120000000000000000000000000000000000000000000000000000000000000000000000000"
    }, 
    {
      "txid": "89e3d5511587889302c0d8542ca7ce774c9df707378fe276481e68d8c00437f3",
      "hash": "89e3d5511587889302c0d8542ca7ce774c9df707378fe276481e68d8c00437f3",
      "version": 1,
      "size": 192,
      "vsize": 192,
      "locktime": 0,
      "vin": [
        {
          "txid": "8da07aeaead2bf60b7e531f5bb53a1e7fe77b0d7ac05ba6dbd47490a6588fe67",
          "vout": 0,
          "scriptSig": {
            "asm": "3045022100a70e0d27a884c88853c688d8d13ae6704b4d22735c78eb8612bd24d628ca68da02207c2c6e822126eafc12b1ca47e7ddd6d5140ffa0f58a18436fe389c3f6d4a29ed[ALL] 020f09fe94492a2f34c280983034c40f2590c26d3fb69bf74c5a58d41e8a618242",
            "hex": "483045022100a70e0d27a884c88853c688d8d13ae6704b4d22735c78eb8612bd24d628ca68da02207c2c6e822126eafc12b1ca47e7ddd6d5140ffa0f58a18436fe389c3f6d4a29ed0121020f09fe94492a2f34c280983034c40f2590c26d3fb69bf74c5a58d41e8a618242"
          },
          "sequence": 4294967295
        }
      ],
      "vout": [
        {
          "value": 0.01211105,
          "n": 0,
          "scriptPubKey": {
            "asm": "OP_DUP OP_HASH160 a14f3b940bc8fe93ced9ed900c688a9e2206f32f OP_EQUALVERIFY OP_CHECKSIG",
            "hex": "76a914a14f3b940bc8fe93ced9ed900c688a9e2206f32f88ac",
            "reqSigs": 1,
            "type": "pubkeyhash",
            "addresses": [
              "LZvsyHS8ECLZiVqAjdpoqeSyFqCjcGYNXq"
            ]
          }
        }
      ],
      "hex": "010000000167fe88650a4947bd6dba05acd7b077fee7a153bbf531e5b760bfd2eaea7aa08d000000006b483045022100a70e0d27a884c88853c688d8d13ae6704b4d22735c78eb8612bd24d628ca68da02207c2c6e822126eafc12b1ca47e7ddd6d5140ffa0f58a18436fe389c3f6d4a29ed0121020f09fe94492a2f34c280983034c40f2590c26d3fb69bf74c5a58d41e8a618242ffffffff01e17a1200000000001976a914a14f3b940bc8fe93ced9ed900c688a9e2206f32f88ac00000000"
    }, 
    {
      "txid": "2a370b1ffd1b6059e9928a9b354bf487428b64ecbb0d88b11f81ca8ac582fc38",
      "hash": "2a370b1ffd1b6059e9928a9b354bf487428b64ecbb0d88b11f81ca8ac582fc38",
      "version": 1,
      "size": 554,
      "vsize": 554,
      "locktime": 0,
      "vin": [
        {
          "txid": "d42dc2ef3668ebf0d03b2a0da5e5fd5548dc70f817c04ec156f4883abe52979f",
          "vout": 1,
          "scriptSig": {
            "asm": "3044022030a0fbb064b22619d96c00cd0ecf0bbd8cea9ed4164e8f397718f43d2511b3f302200841bff942917d380be85f003cd564b65e2401922272e446852650dbe6483bdd[ALL] 034bfd55db473d93f08ef6d4cef9bc8ce07af05e365a2558bfc8a3d306ceaffa5c",
            "hex": "473044022030a0fbb064b22619d96c00cd0ecf0bbd8cea9ed4164e8f397718f43d2511b3f302200841bff942917d380be85f003cd564b65e2401922272e446852650dbe6483bdd0121034bfd55db473d93f08ef6d4cef9bc8ce07af05e365a2558bfc8a3d306ceaffa5c"
          },
          "sequence": 4294967295
        }, 
        {
          "txid": "8293671960f979e063af9fb26aa30a4c3d5c28fbb03d2352b9293893873bf3ed",
          "vout": 1,
          "scriptSig": {
            "asm": "3044022048fc58d38280eb3eca30f3d9eecfa17cc81d2efa21f5bae5b6255939eb6937a8022046890eb98cd908fb8900ec978192f6fa6d6fdcdb6e13a598c3caa22c5fc7773e[ALL] 025d04da738759857340426d32f601d4cba26c9dca2a2e7c54801cc42c39db30c1",
            "hex": "473044022048fc58d38280eb3eca30f3d9eecfa17cc81d2efa21f5bae5b6255939eb6937a8022046890eb98cd908fb8900ec978192f6fa6d6fdcdb6e13a598c3caa22c5fc7773e0121025d04da738759857340426d32f601d4cba26c9dca2a2e7c54801cc42c39db30c1"
          },
          "sequence": 4294967295
        }, 
        {
          "txid": "58a37e48a40f198a4ae4c4cd267d5b18cf4c6d0845be98ba68041300d9014242",
          "vout": 1,
          "scriptSig": {
            "asm": "3045022100db769dee0baa349b7e0345b632a153e5f6c578b983fd4588df2710470c4b52a302201ce9f03e3fe106bca09a826cc6c037120ddd361ae43a5c9ca1b87ed4ed99e081[ALL] 0328c9ae635abf580c261c44815dc1aac309e16ff26250525b7e99951369d2b8c7",
            "hex": "483045022100db769dee0baa349b7e0345b632a153e5f6c578b983fd4588df2710470c4b52a302201ce9f03e3fe106bca09a826cc6c037120ddd361ae43a5c9ca1b87ed4ed99e08101210328c9ae635abf580c261c44815dc1aac309e16ff26250525b7e99951369d2b8c7"
          },
          "sequence": 4294967295
        }
      ],
      "vout": [
        {
          "value": 2.51714700,
          "n": 0,
          "scriptPubKey": {
            "asm": "OP_DUP OP_HASH160 ebbe096fb5f341a87e3790b5dc21006a391a4da5 OP_EQUALVERIFY OP_CHECKSIG",
            "hex": "76a914ebbe096fb5f341a87e3790b5dc21006a391a4da588ac",
            "reqSigs": 1,
            "type": "pubkeyhash",
            "addresses": [
              "LgiSiHXTcwy9poWXpEFdCsSYjwxvrS8Pp3"
            ]
          }
        }, 
        {
          "value": 10.00000000,
          "n": 1,
          "scriptPubKey": {
            "asm": "OP_DUP OP_HASH160 ba9c97e03a6bcb5677fb84c8e64b7c6db4582750 OP_EQUALVERIFY OP_CHECKSIG",
            "hex": "76a914ba9c97e03a6bcb5677fb84c8e64b7c6db458275088ac",
            "reqSigs": 1,
            "type": "pubkeyhash",
            "addresses": [
              "LcEfYBeBE1oKAjA5BmznPWujaXFE3BvyJ6"
            ]
          }
        }, 
        {
          "value": 26.10934865,
          "n": 2,
          "scriptPubKey": {
            "asm": "OP_DUP OP_HASH160 c6e3836c2f4cd8f9c53e32813ded99ac0ce001f1 OP_EQUALVERIFY OP_CHECKSIG",
            "hex": "76a914c6e3836c2f4cd8f9c53e32813ded99ac0ce001f188ac",
            "reqSigs": 1,
            "type": "pubkeyhash",
            "addresses": [
              "LdMac6qdwFnBCVXN96dvoPjzbcE36gzs64"
            ]
          }
        }
      ],
      "hex": "01000000039f9752be3a88f456c14ec017f870dc4855fde5a50d2a3bd0f0eb6836efc22dd4010000006a473044022030a0fbb064b22619d96c00cd0ecf0bbd8cea9ed4164e8f397718f43d2511b3f302200841bff942917d380be85f003cd564b65e2401922272e446852650dbe6483bdd0121034bfd55db473d93f08ef6d4cef9bc8ce07af05e365a2558bfc8a3d306ceaffa5cffffffffedf33b87933829b952233db0fb285c3d4c0aa36ab29faf63e079f96019679382010000006a473044022048fc58d38280eb3eca30f3d9eecfa17cc81d2efa21f5bae5b6255939eb6937a8022046890eb98cd908fb8900ec978192f6fa6d6fdcdb6e13a598c3caa22c5fc7773e0121025d04da738759857340426d32f601d4cba26c9dca2a2e7c54801cc42c39db30c1ffffffff424201d900130468ba98be45086d4ccf185b7d26cdc4e44a8a190fa4487ea358010000006b483045022100db769dee0baa349b7e0345b632a153e5f6c578b983fd4588df2710470c4b52a302201ce9f03e3fe106bca09a826cc6c037120ddd361ae43a5c9ca1b87ed4ed99e08101210328c9ae635abf580c261c44815dc1aac309e16ff26250525b7e99951369d2b8c7ffffffff038cdc000f000000001976a914ebbe096fb5f341a87e3790b5dc21006a391a4da588ac00ca9a3b000000001976a914ba9c97e03a6bcb5677fb84c8e64b7c6db458275088ac51b49f9b000000001976a914c6e3836c2f4cd8f9c53e32813ded99ac0ce001f188ac00000000"
    }, 
    {
      "txid": "a223def23ff179a4e596cf849fc17916449ce5b408c28f1889f0a74bc6760d08",
      "hash": "a223def23ff179a4e596cf849fc17916449ce5b408c28f1889f0a74bc6760d08",
      "version": 1,
      "size": 225,
      "vsize": 225,
      "locktime": 0,
      "vin": [
        {
          "txid": "12ca8058cf196d3a2448a833385cc72e0bb4638670a1215287732d5941ba4d3e",
          "vout": 34,
          "scriptSig": {
            "asm": "304402204a0218fa95100119cfcd5add5f2b6d5c4757a93c6d40c4e02759b819726dc8cd02200600d20e7a819c8567a70432ea297c0f407fb0b6b4ec50b21e388f78860e346a[ALL] 0332d3440e0863a94e73d04120c30fed9d44af1dee5ee516245ad4f90bf200e63f",
            "hex": "47304402204a0218fa95100119cfcd5add5f2b6d5c4757a93c6d40c4e02759b819726dc8cd02200600d20e7a819c8567a70432ea297c0f407fb0b6b4ec50b21e388f78860e346a01210332d3440e0863a94e73d04120c30fed9d44af1dee5ee516245ad4f90bf200e63f"
          },
          "sequence": 4294967295
        }
      ],
      "vout": [
        {
          "value": 0.05498093,
          "n": 0,
          "scriptPubKey": {
            "asm": "OP_DUP OP_HASH160 bec441a1a517f1260447bac967162c74a029ded0 OP_EQUALVERIFY OP_CHECKSIG",
            "hex": "76a914bec441a1a517f1260447bac967162c74a029ded088ac",
            "reqSigs": 1,
            "type": "pubkeyhash",
            "addresses": [
              "LccdknvfALmBDjGhahBDPvwaA4b3oPM6d8"
            ]
          }
        }, 
        {
          "value": 0.00089869,
          "n": 1,
          "scriptPubKey": {
            "asm": "OP_DUP OP_HASH160 02ea62b6b1b8351e38e9a7e1c3192188b48f37b1 OP_EQUALVERIFY OP_CHECKSIG",
            "hex": "76a91402ea62b6b1b8351e38e9a7e1c3192188b48f37b188ac",
            "reqSigs": 1,
            "type": "pubkeyhash",
            "addresses": [
              "LKVNPzaz5FvZGw6BnQBEVP245kjisoaLzk"
            ]
          }
        }
      ],
      "hex": "01000000013e4dba41592d73875221a1708663b40b2ec75c3833a848243a6d19cf5880ca12220000006a47304402204a0218fa95100119cfcd5add5f2b6d5c4757a93c6d40c4e02759b819726dc8cd02200600d20e7a819c8567a70432ea297c0f407fb0b6b4ec50b21e388f78860e346a01210332d3440e0863a94e73d04120c30fed9d44af1dee5ee516245ad4f90bf200e63fffffffff02ede45300000000001976a914bec441a1a517f1260447bac967162c74a029ded088ac0d5f0100000000001976a91402ea62b6b1b8351e38e9a7e1c3192188b48f37b188ac00000000"
    }, 
    {
      "txid": "2ea550b1973fa784d2541292687f166530ae4e4744c10deffb47c692f5853808",
      "hash": "2ea550b1973fa784d2541292687f166530ae4e4744c10deffb47c692f5853808",
      "version": 1,
      "size": 225,
      "vsize": 225,
      "locktime": 1358770,
      "vin": [
        {
          "txid": "97d6dc159e8d7f76422454b368fcaca26fb86939b62ab308df3d43702f3f992d",
          "vout": 1,
          "scriptSig": {
            "asm": "304402204d95a492fe0e6bb7fb7a1fb9d319665f2bfa768cc6b268c574097289f453d39402203cb55dabe3bede9f56b75dc86c1ec42c0475cd5b3112f5ed45f37f69a60b1cfc[ALL] 031f839aae04d2085037e6753f680d863b577fc65ffab6b8f831279bc9564a82ce",
            "hex": "47304402204d95a492fe0e6bb7fb7a1fb9d319665f2bfa768cc6b268c574097289f453d39402203cb55dabe3bede9f56b75dc86c1ec42c0475cd5b3112f5ed45f37f69a60b1cfc0121031f839aae04d2085037e6753f680d863b577fc65ffab6b8f831279bc9564a82ce"
          },
          "sequence": 4294967294
        }
      ],
      "vout": [
        {
          "value": 0.20000000,
          "n": 0,
          "scriptPubKey": {
            "asm": "OP_DUP OP_HASH160 49ee21d219cd1b7c3cc3f58528233297624b55ab OP_EQUALVERIFY OP_CHECKSIG",
            "hex": "76a91449ee21d219cd1b7c3cc3f58528233297624b55ab88ac",
            "reqSigs": 1,
            "type": "pubkeyhash",
            "addresses": [
              "LRxrrvepDiW1Q3a6r9ieV4caimfk869c5c"
            ]
          }
        }, 
        {
          "value": 1.64322100,
          "n": 1,
          "scriptPubKey": {
            "asm": "OP_DUP OP_HASH160 1b57ffe1ec8fa844d0cb99bd431a62a7523cb938 OP_EQUALVERIFY OP_CHECKSIG",
            "hex": "76a9141b57ffe1ec8fa844d0cb99bd431a62a7523cb93888ac",
            "reqSigs": 1,
            "type": "pubkeyhash",
            "addresses": [
              "LMiXvi16Ak95VdY8ujEPY1MEZHA5gTJoqo"
            ]
          }
        }
      ],
      "hex": "01000000012d993f2f70433ddf08b32ab63969b86fa2acfc68b3542442767f8d9e15dcd697010000006a47304402204d95a492fe0e6bb7fb7a1fb9d319665f2bfa768cc6b268c574097289f453d39402203cb55dabe3bede9f56b75dc86c1ec42c0475cd5b3112f5ed45f37f69a60b1cfc0121031f839aae04d2085037e6753f680d863b577fc65ffab6b8f831279bc9564a82cefeffffff02002d3101000000001976a91449ee21d219cd1b7c3cc3f58528233297624b55ab88ac345bcb09000000001976a9141b57ffe1ec8fa844d0cb99bd431a62a7523cb93888acb2bb1400"
    }, 
    {
      "txid": "1ee7dacbfee5d2a6fe27d5191335e37b749e69c02d9c0eeed3640619e7aa682e",
      "hash": "1ee7dacbfee5d2a6fe27d5191335e37b749e69c02d9c0eeed3640619e7aa682e",
      "version": 1,
      "size": 225,
      "vsize": 225,
      "locktime": 0,
      "vin": [
        {
          "txid": "ddb12e66e97c1b0ae97892013037f26fdf79266e4868d4e6b99b37cb01f1aa1a",
          "vout": 1,
          "scriptSig": {
            "asm": "30440220323d2eef5506a228ffc67118ce093dabc3f1c634839ece45b275aa010825c4300220231dca079448882178a3f785fc98cb65e87d118c1a2e30fb7de468ede410c42d[ALL] 031e1acc262c37b21963ba0bac5ab2d653cf47f94b3c2d5c83bd0ee57768386679",
            "hex": "4730440220323d2eef5506a228ffc67118ce093dabc3f1c634839ece45b275aa010825c4300220231dca079448882178a3f785fc98cb65e87d118c1a2e30fb7de468ede410c42d0121031e1acc262c37b21963ba0bac5ab2d653cf47f94b3c2d5c83bd0ee57768386679"
          },
          "sequence": 4294967295
        }
      ],
      "vout": [
        {
          "value": 1.00000000,
          "n": 0,
          "scriptPubKey": {
            "asm": "OP_DUP OP_HASH160 f52d211b3bc0d1e32fb7bded19db7844ba4388aa OP_EQUALVERIFY OP_CHECKSIG",
            "hex": "76a914f52d211b3bc0d1e32fb7bded19db7844ba4388aa88ac",
            "reqSigs": 1,
            "type": "pubkeyhash",
            "addresses": [
              "LhaKsrMRg3uWM6w9t7g4FPmPAdcBiu6MfA"
            ]
          }
        }, 
        {
          "value": 65.04328934,
          "n": 1,
          "scriptPubKey": {
            "asm": "OP_DUP OP_HASH160 a1983b5717447a33a250ca1b426e2440c482db27 OP_EQUALVERIFY OP_CHECKSIG",
            "hex": "76a914a1983b5717447a33a250ca1b426e2440c482db2788ac",
            "reqSigs": 1,
            "type": "pubkeyhash",
            "addresses": [
              "LZxPRMAR7GVN9s3hzPD3AUYeP8irL5414N"
            ]
          }
        }
      ],
      "hex": "01000000011aaaf101cb379bb9e6d468486e2679df6ff23730019278e90a1b7ce9662eb1dd010000006a4730440220323d2eef5506a228ffc67118ce093dabc3f1c634839ece45b275aa010825c4300220231dca079448882178a3f785fc98cb65e87d118c1a2e30fb7de468ede410c42d0121031e1acc262c37b21963ba0bac5ab2d653cf47f94b3c2d5c83bd0ee57768386679ffffffff0200e1f505000000001976a914f52d211b3bc0d1e32fb7bded19db7844ba4388aa88ace62eb083010000001976a914a1983b5717447a33a250ca1b426e2440c482db2788ac00000000"
    }, 
    {
      "txid": "318d01bf30d6d18c134cce2fb2576b47992a20a3f28ec910a3c479234508f18f",
      "hash": "318d01bf30d6d18c134cce2fb2576b47992a20a3f28ec910a3c479234508f18f",
      "version": 2,
      "size": 225,
      "vsize": 225,
      "locktime": 1358770,
      "vin": [
        {
          "txid": "99369ac25f8a7ab6732200b057af7ecd2d6a6cab02e6d0c7e39dcf13af0ff684",
          "vout": 1,
          "scriptSig": {
            "asm": "3044022026c6409288b713ab67ca8d5475b50253e94242961679da2f5483015e8683df0602206646c86e2d183c09e73ab99cc9721188d3f1b776b65a6bd82873f50eb8679b2c[ALL] 0322d5e57e221f8ab3476dd3875dfce659e4d791eccf68506cf1b439c699408fa7",
            "hex": "473044022026c6409288b713ab67ca8d5475b50253e94242961679da2f5483015e8683df0602206646c86e2d183c09e73ab99cc9721188d3f1b776b65a6bd82873f50eb8679b2c01210322d5e57e221f8ab3476dd3875dfce659e4d791eccf68506cf1b439c699408fa7"
          },
          "sequence": 4294967294
        }
      ],
      "vout": [
        {
          "value": 231.82615877,
          "n": 0,
          "scriptPubKey": {
            "asm": "OP_DUP OP_HASH160 7f3286a2519a7dd3159bf5e1b6abea0ed312d18b OP_EQUALVERIFY OP_CHECKSIG",
            "hex": "76a9147f3286a2519a7dd3159bf5e1b6abea0ed312d18b88ac",
            "reqSigs": 1,
            "type": "pubkeyhash",
            "addresses": [
              "LWpWcBFX3TfVEkHyjJvPyWYeAhosUjiHSo"
            ]
          }
        }, 
        {
          "value": 18.78000000,
          "n": 1,
          "scriptPubKey": {
            "asm": "OP_DUP OP_HASH160 ed722061f5f1a72dd3272bbb599f9422459fe87f OP_EQUALVERIFY OP_CHECKSIG",
            "hex": "76a914ed722061f5f1a72dd3272bbb599f9422459fe87f88ac",
            "reqSigs": 1,
            "type": "pubkeyhash",
            "addresses": [
              "LgsT8KnXVoLj1ycwtZ7rAiTeAkzLCX1ez1"
            ]
          }
        }
      ],
      "hex": "020000000184f60faf13cf9de3c7d0e602ab6c6a2dcd7eaf57b0002273b67a8a5fc29a3699010000006a473044022026c6409288b713ab67ca8d5475b50253e94242961679da2f5483015e8683df0602206646c86e2d183c09e73ab99cc9721188d3f1b776b65a6bd82873f50eb8679b2c01210322d5e57e221f8ab3476dd3875dfce659e4d791eccf68506cf1b439c699408fa7feffffff0245a5ca65050000001976a9147f3286a2519a7dd3159bf5e1b6abea0ed312d18b88ac8001f06f000000001976a914ed722061f5f1a72dd3272bbb599f9422459fe87f88acb2bb1400"
    }, 
    {
      "txid": "1a49e284b3f3544d7f32824f1ca132133ab48f75e283d05b5ed89b6b2ce36e22",
      "hash": "1a49e284b3f3544d7f32824f1ca132133ab48f75e283d05b5ed89b6b2ce36e22",
      "version": 1,
      "size": 226,
      "vsize": 226,
      "locktime": 0,
      "vin": [
        {
          "txid": "7a32dd57a54b9ffdfbe58381896f655bcd471858868d8b5516f9e4b6182ca4a8",
          "vout": 0,
          "scriptSig": {
            "asm": "30450221009f740c012c477477a50e17bca6be094c6e9bd97020a62f9a272acadf0de8db9302205a122980379e87b334d9119b09fabd00e8b8f1320b5330e052535896969ca92b[ALL] 02054d5d1cab064306a8cc66b38d43ea96e4fe721cd24389dcda837fc966d2c24b",
            "hex": "4830450221009f740c012c477477a50e17bca6be094c6e9bd97020a62f9a272acadf0de8db9302205a122980379e87b334d9119b09fabd00e8b8f1320b5330e052535896969ca92b012102054d5d1cab064306a8cc66b38d43ea96e4fe721cd24389dcda837fc966d2c24b"
          },
          "sequence": 4294967295
        }
      ],
      "vout": [
        {
          "value": 1.53350688,
          "n": 0,
          "scriptPubKey": {
            "asm": "OP_DUP OP_HASH160 3b8e3a7569f8c92be6f552e1de0b3635c3850d4c OP_EQUALVERIFY OP_CHECKSIG",
            "hex": "76a9143b8e3a7569f8c92be6f552e1de0b3635c3850d4c88ac",
            "reqSigs": 1,
            "type": "pubkeyhash",
            "addresses": [
              "LQerWjJyNJJdf2XB9LoLfesFWX7XezGqtr"
            ]
          }
        }, 
        {
          "value": 66.49115281,
          "n": 1,
          "scriptPubKey": {
            "asm": "OP_DUP OP_HASH160 843deee97a031b818bf3161923dd329315ca664a OP_EQUALVERIFY OP_CHECKSIG",
            "hex": "76a914843deee97a031b818bf3161923dd329315ca664a88ac",
            "reqSigs": 1,
            "type": "pubkeyhash",
            "addresses": [
              "LXHBejRey5rdsfm4FduPBjwxmsML3GYUnG"
            ]
          }
        }
      ],
      "hex": "0100000001a8a42c18b6e4f916558b8d86581847cd5b656f898183e5fbfd9f4ba557dd327a000000006b4830450221009f740c012c477477a50e17bca6be094c6e9bd97020a62f9a272acadf0de8db9302205a122980379e87b334d9119b09fabd00e8b8f1320b5330e052535896969ca92b012102054d5d1cab064306a8cc66b38d43ea96e4fe721cd24389dcda837fc966d2c24bffffffff0220f22309000000001976a9143b8e3a7569f8c92be6f552e1de0b3635c3850d4c88ac9172518c010000001976a914843deee97a031b818bf3161923dd329315ca664a88ac00000000"
    }, 
    {
      "txid": "b5ff89594427a227ae7e57238af938a34f786252b421182147e46a38fcf4383a",
      "hash": "b5ff89594427a227ae7e57238af938a34f786252b421182147e46a38fcf4383a",
      "version": 1,
      "size": 226,
      "vsize": 226,
      "locktime": 0,
      "vin": [
        {
          "txid": "bcd54fa14bad3985ab64fb2d889dcd42a56719abd6dbc1540be1e7538857a234",
          "vout": 1,
          "scriptSig": {
            "asm": "3045022100db0122cac61ba9a18b10ee3bb29ecf50181e9cb6c351c9eb2bc4b6de68fe340702205545214a0d3454c8e6ceae83ab32c2ffe8674b9f3f3661a5fc39cad89825ffa3[ALL] 024e89f36902c8b64ff7c9b6fe63462f9465289a6fa4ff715b10d4d68e7fcfaeb8",
            "hex": "483045022100db0122cac61ba9a18b10ee3bb29ecf50181e9cb6c351c9eb2bc4b6de68fe340702205545214a0d3454c8e6ceae83ab32c2ffe8674b9f3f3661a5fc39cad89825ffa30121024e89f36902c8b64ff7c9b6fe63462f9465289a6fa4ff715b10d4d68e7fcfaeb8"
          },
          "sequence": 4294967295
        }
      ],
      "vout": [
        {
          "value": 1.00000000,
          "n": 0,
          "scriptPubKey": {
            "asm": "OP_DUP OP_HASH160 347579851aa67f0025485cf720ebf709104d3182 OP_EQUALVERIFY OP_CHECKSIG",
            "hex": "76a914347579851aa67f0025485cf720ebf709104d318288ac",
            "reqSigs": 1,
            "type": "pubkeyhash",
            "addresses": [
              "LQ1L8UMwoPmPuaeEJnHfknmF9uUzA3YnBJ"
            ]
          }
        }, 
        {
          "value": 63.62759095,
          "n": 1,
          "scriptPubKey": {
            "asm": "OP_DUP OP_HASH160 37447caa670ac0945dc7c30758efba3ceafd8074 OP_EQUALVERIFY OP_CHECKSIG",
            "hex": "76a91437447caa670ac0945dc7c30758efba3ceafd807488ac",
            "reqSigs": 1,
            "type": "pubkeyhash",
            "addresses": [
              "LQGBUKdwPg8pVwp9bu2vyV7vy8MAG1CNUR"
            ]
          }
        }
      ],
      "hex": "010000000134a2578853e7e10b54c1dbd6ab1967a542cd9d882dfb64ab8539ad4ba14fd5bc010000006b483045022100db0122cac61ba9a18b10ee3bb29ecf50181e9cb6c351c9eb2bc4b6de68fe340702205545214a0d3454c8e6ceae83ab32c2ffe8674b9f3f3661a5fc39cad89825ffa30121024e89f36902c8b64ff7c9b6fe63462f9465289a6fa4ff715b10d4d68e7fcfaeb8ffffffff0200e1f505000000001976a914347579851aa67f0025485cf720ebf709104d318288acb7ff3f7b010000001976a91437447caa670ac0945dc7c30758efba3ceafd807488ac00000000"
    }, 
    {
      "txid": "1fb632e397f2ab17c343814e976239425ec7867d5ce7d84e7005e398b5f9f13e",
      "hash": "1fb632e397f2ab17c343814e976239425ec7867d5ce7d84e7005e398b5f9f13e",
      "version": 1,
      "size": 226,
      "vsize": 226,
      "locktime": 0,
      "vin": [
        {
          "txid": "bbb672dd909c0545a3555f8da717e5011efca62519f36d37b2e52adc77daea3b",
          "vout": 1,
          "scriptSig": {
            "asm": "3045022100d0613b5260de316d0afce0a224a9db6baee889c3437ba1b5bc10e342788eed3f02207f4da2bb1051e4883506aa50af15b652a64d70c05ad63b555554ec39be8a11b3[ALL] 02ab992d333ff512d2b326a31c9908ff4db028d33f7a2c69abf561201a659bba28",
            "hex": "483045022100d0613b5260de316d0afce0a224a9db6baee889c3437ba1b5bc10e342788eed3f02207f4da2bb1051e4883506aa50af15b652a64d70c05ad63b555554ec39be8a11b3012102ab992d333ff512d2b326a31c9908ff4db028d33f7a2c69abf561201a659bba28"
          },
          "sequence": 4294967295
        }
      ],
      "vout": [
        {
          "value": 0.25367466,
          "n": 0,
          "scriptPubKey": {
            "asm": "OP_DUP OP_HASH160 3eccad4f5e493823b1b0484da60ca055a4b84c0e OP_EQUALVERIFY OP_CHECKSIG",
            "hex": "76a9143eccad4f5e493823b1b0484da60ca055a4b84c0e88ac",
            "reqSigs": 1,
            "type": "pubkeyhash",
            "addresses": [
              "LQx1MK7zUa5XBN1U8YMw8AkWXHN2vrS71M"
            ]
          }
        }, 
        {
          "value": 0.33570766,
          "n": 1,
          "scriptPubKey": {
            "asm": "OP_DUP OP_HASH160 dd829a236ce6ece62716e9bc2a6739f0b87cedd9 OP_EQUALVERIFY OP_CHECKSIG",
            "hex": "76a914dd829a236ce6ece62716e9bc2a6739f0b87cedd988ac",
            "reqSigs": 1,
            "type": "pubkeyhash",
            "addresses": [
              "LfRC3zzk9CDP7nCJW9aLbkMqVbdDnoWw24"
            ]
          }
        }
      ],
      "hex": "01000000013beada77dc2ae5b2376df31925a6fc1e01e517a78d5f55a345059c90dd72b6bb010000006b483045022100d0613b5260de316d0afce0a224a9db6baee889c3437ba1b5bc10e342788eed3f02207f4da2bb1051e4883506aa50af15b652a64d70c05ad63b555554ec39be8a11b3012102ab992d333ff512d2b326a31c9908ff4db028d33f7a2c69abf561201a659bba28ffffffff02aa138301000000001976a9143eccad4f5e493823b1b0484da60ca055a4b84c0e88acce3f0002000000001976a914dd829a236ce6ece62716e9bc2a6739f0b87cedd988ac00000000"
    }, 
    {
      "txid": "3d187166d4f592480eb3cf520a16f9d8b60a8c26d4e756b3ca6562253bbbfe4e",
      "hash": "3d187166d4f592480eb3cf520a16f9d8b60a8c26d4e756b3ca6562253bbbfe4e",
      "version": 2,
      "size": 226,
      "vsize": 226,
      "locktime": 1358770,
      "vin": [
        {
          "txid": "094c6386a1a9d8e4374bc26c1e0f154f0b2a60989806c9bb60bb143055770a22",
          "vout": 1,
          "scriptSig": {
            "asm": "3045022100f78fa03a33c594a1c9d336cf9f478ca29cc729d8f87cae520a4b8b4e5a04e2b402202215ff8672d04f61907f57676509bbb02700dc4c7390060614894b8cf5c1ba9b[ALL] 02843e36ebaeeda81c288b1003104fe3b2d8dde746649de47182e91c907fbf2445",
            "hex": "483045022100f78fa03a33c594a1c9d336cf9f478ca29cc729d8f87cae520a4b8b4e5a04e2b402202215ff8672d04f61907f57676509bbb02700dc4c7390060614894b8cf5c1ba9b012102843e36ebaeeda81c288b1003104fe3b2d8dde746649de47182e91c907fbf2445"
          },
          "sequence": 4294967294
        }
      ],
      "vout": [
        {
          "value": 1.93590832,
          "n": 0,
          "scriptPubKey": {
            "asm": "OP_DUP OP_HASH160 2dd934158de96b44a5b38bfa103a92c49e9627fb OP_EQUALVERIFY OP_CHECKSIG",
            "hex": "76a9142dd934158de96b44a5b38bfa103a92c49e9627fb88ac",
            "reqSigs": 1,
            "type": "pubkeyhash",
            "addresses": [
              "LPQNsQVojp4d8r7Hfnjx1wUZgZoRZg2F2j"
            ]
          }
        }, 
        {
          "value": 245.37047360,
          "n": 1,
          "scriptPubKey": {
            "asm": "OP_DUP OP_HASH160 31802c6565a027505e8c0f56d4fba03b52f8bc96 OP_EQUALVERIFY OP_CHECKSIG",
            "hex": "76a91431802c6565a027505e8c0f56d4fba03b52f8bc9688ac",
            "reqSigs": 1,
            "type": "pubkeyhash",
            "addresses": [
              "LPjgvFvrQskN27uddW5F9P6uLpdetAYkvk"
            ]
          }
        }
      ],
      "hex": "0200000001220a77553014bb60bbc9069898602a0b4f150f1e6cc24b37e4d8a9a186634c09010000006b483045022100f78fa03a33c594a1c9d336cf9f478ca29cc729d8f87cae520a4b8b4e5a04e2b402202215ff8672d04f61907f57676509bbb02700dc4c7390060614894b8cf5c1ba9b012102843e36ebaeeda81c288b1003104fe3b2d8dde746649de47182e91c907fbf2445feffffff0230f6890b000000001976a9142dd934158de96b44a5b38bfa103a92c49e9627fb88ac40a185b6050000001976a91431802c6565a027505e8c0f56d4fba03b52f8bc9688acb2bb1400"
    }, 
    {
      "txid": "a9a06797a11d98b21748e240a730ec874210218433a7d3a4f8f1587411e5e3d9",
      "hash": "a9a06797a11d98b21748e240a730ec874210218433a7d3a4f8f1587411e5e3d9",
      "version": 1,
      "size": 226,
      "vsize": 226,
      "locktime": 0,
      "vin": [
        {
          "txid": "aea5d125f85425f7ad04c3f94fa1148311d4aa1e4711dc7368c2015a40104a60",
          "vout": 0,
          "scriptSig": {
            "asm": "30450221009b1f6b05dcad704dbdccfbe413c6008799e8c53a614c1e9fc76f221c010a72d10220483be98790d1c852195894fd283aaa86ddf9a620a85798a944aa4c07ae3d1e63[ALL] 0295dac5766091f2443a5c796ceeebdf85f4435b22f44f0684339297ed0e84ee47",
            "hex": "4830450221009b1f6b05dcad704dbdccfbe413c6008799e8c53a614c1e9fc76f221c010a72d10220483be98790d1c852195894fd283aaa86ddf9a620a85798a944aa4c07ae3d1e6301210295dac5766091f2443a5c796ceeebdf85f4435b22f44f0684339297ed0e84ee47"
          },
          "sequence": 4294967295
        }
      ],
      "vout": [
        {
          "value": 59.27577179,
          "n": 0,
          "scriptPubKey": {
            "asm": "OP_DUP OP_HASH160 8ebe7299e076141d85fd69ad5646a9a33b4d21b8 OP_EQUALVERIFY OP_CHECKSIG",
            "hex": "76a9148ebe7299e076141d85fd69ad5646a9a33b4d21b888ac",
            "reqSigs": 1,
            "type": "pubkeyhash",
            "addresses": [
              "LYEiMzH7QitsNnqzYvdt2XL1GhDmQd44c8"
            ]
          }
        }, 
        {
          "value": 1.61028133,
          "n": 1,
          "scriptPubKey": {
            "asm": "OP_DUP OP_HASH160 ca40d6ce41ae0eb24b59906960c05434b4583e13 OP_EQUALVERIFY OP_CHECKSIG",
            "hex": "76a914ca40d6ce41ae0eb24b59906960c05434b4583e1388ac",
            "reqSigs": 1,
            "type": "pubkeyhash",
            "addresses": [
              "LdfNS4WcfwYdLUzLip1ZS2SkdgDvSmkWav"
            ]
          }
        }
      ],
      "hex": "0100000001604a10405a01c26873dc11471eaad4118314a14ff9c304adf72554f825d1a5ae000000006b4830450221009b1f6b05dcad704dbdccfbe413c6008799e8c53a614c1e9fc76f221c010a72d10220483be98790d1c852195894fd283aaa86ddf9a620a85798a944aa4c07ae3d1e6301210295dac5766091f2443a5c796ceeebdf85f4435b22f44f0684339297ed0e84ee47ffffffff025ba64f61010000001976a9148ebe7299e076141d85fd69ad5646a9a33b4d21b888ac25189909000000001976a914ca40d6ce41ae0eb24b59906960c05434b4583e1388ac00000000"
    }, 
    {
      "txid": "ab973c5abc4b6933b8b77604d6d8a43355f3cb9c014bd67ec51b46e03aee4389",
      "hash": "ab973c5abc4b6933b8b77604d6d8a43355f3cb9c014bd67ec51b46e03aee4389",
      "version": 1,
      "size": 224,
      "vsize": 224,
      "locktime": 0,
      "vin": [
        {
          "txid": "cfe4c3eef73e8a07408ed3165fef79566203db04bd7c5356cb23ffa2472fb6ce",
          "vout": 6,
          "scriptSig": {
            "asm": "3045022100a6023139c8bb96b315527f90b9228826b6956d210d8c285f5c298864cef87c3e0220524c8cfa34ae074bae02f4911b1e7f253aabebad62bc40ec1e85e70d058821e3[ALL] 04700613a511f5a355989d18fe4ddc370973a697b3b8a1bb8aa1adc0bde11d306455933897c24b72da859cf447ced303b18d361d8141c3f6b791818aa5aab4472a",
            "hex": "483045022100a6023139c8bb96b315527f90b9228826b6956d210d8c285f5c298864cef87c3e0220524c8cfa34ae074bae02f4911b1e7f253aabebad62bc40ec1e85e70d058821e3014104700613a511f5a355989d18fe4ddc370973a697b3b8a1bb8aa1adc0bde11d306455933897c24b72da859cf447ced303b18d361d8141c3f6b791818aa5aab4472a"
          },
          "sequence": 4294967295
        }
      ],
      "vout": [
        {
          "value": 99.99988800,
          "n": 0,
          "scriptPubKey": {
            "asm": "OP_DUP OP_HASH160 7fe6b4d13be49ff7e866c32dba77a1745b038e83 OP_EQUALVERIFY OP_CHECKSIG",
            "hex": "76a9147fe6b4d13be49ff7e866c32dba77a1745b038e8388ac",
            "reqSigs": 1,
            "type": "pubkeyhash",
            "addresses": [
              "LWtETLBF6DFNQyKJoqtmZfgcxMHBzPYrTn"
            ]
          }
        }
      ],
      "hex": "0100000001ceb62f47a2ff23cb56537cbd04db03625679ef5f16d38e40078a3ef7eec3e4cf060000008b483045022100a6023139c8bb96b315527f90b9228826b6956d210d8c285f5c298864cef87c3e0220524c8cfa34ae074bae02f4911b1e7f253aabebad62bc40ec1e85e70d058821e3014104700613a511f5a355989d18fe4ddc370973a697b3b8a1bb8aa1adc0bde11d306455933897c24b72da859cf447ced303b18d361d8141c3f6b791818aa5aab4472affffffff0140b80b54020000001976a9147fe6b4d13be49ff7e866c32dba77a1745b038e8388ac00000000"
    }, 
    {
      "txid": "8c91c4e2872ed214cec06fbffe0f0a61c7bc30be22b17893e231935de5cf8640",
      "hash": "8c91c4e2872ed214cec06fbffe0f0a61c7bc30be22b17893e231935de5cf8640",
      "version": 1,
      "size": 2255,
      "vsize": 2255,
      "locktime": 0,
      "vin": [
        {
          "txid": "683a8581402d94d2164ea496e47920dd595a02ca97a11897c6758a6d63f3c693",
          "vout": 36,
          "scriptSig": {
            "asm": "3045022100946a7b324aaeffd0676d9bec2cf12cfb77ae469c1d95646170802c819a1e029b02206f1c2edc355f6f4d16781aa5fecf402127e93d749e4621c4c6be3080548a85d8[ALL] 02acb603926164cc0c535efe940943426b607129ad83b07aada093e54d40c59375",
            "hex": "483045022100946a7b324aaeffd0676d9bec2cf12cfb77ae469c1d95646170802c819a1e029b02206f1c2edc355f6f4d16781aa5fecf402127e93d749e4621c4c6be3080548a85d8012102acb603926164cc0c535efe940943426b607129ad83b07aada093e54d40c59375"
          },
          "sequence": 4294967295
        }, 
        {
          "txid": "b844f6824d66b806a51f323a77065dc10e4b58c337659e1beb71764ebc38b511",
          "vout": 0,
          "scriptSig": {
            "asm": "304402206afacc6f0618b807aa08245f74a9e9e6e6663cd42690d3dc580f47bde1e11e5502200dfc85ee1cacf10b10aff719a1a4e5bd683439ec2e4d9e8cfcd14a09432da79e[ALL] 024f2ab13dbc22010d7af6c0418085f38436aa95f478741f65621b1012195e540f",
            "hex": "47304402206afacc6f0618b807aa08245f74a9e9e6e6663cd42690d3dc580f47bde1e11e5502200dfc85ee1cacf10b10aff719a1a4e5bd683439ec2e4d9e8cfcd14a09432da79e0121024f2ab13dbc22010d7af6c0418085f38436aa95f478741f65621b1012195e540f"
          },
          "sequence": 4294967295
        }, 
        {
          "txid": "48c817dc1622c4a4ca1d5a7a74f9eea40e28a4850b6c077ad658d2073b55ee17",
          "vout": 0,
          "scriptSig": {
            "asm": "304402206b1a291446c107576778d18f11bd0811b5a6f8ae48282ca103a0af3cd79eb714022009caf2051742be5bc0e55693b47add24e81f4a557db56c0ba91e70beb9833c3f[ALL] 025b098c82c30c2e412d948f8feaf8c9491f888b466d95f30449dc63bc34591469",
            "hex": "47304402206b1a291446c107576778d18f11bd0811b5a6f8ae48282ca103a0af3cd79eb714022009caf2051742be5bc0e55693b47add24e81f4a557db56c0ba91e70beb9833c3f0121025b098c82c30c2e412d948f8feaf8c9491f888b466d95f30449dc63bc34591469"
          },
          "sequence": 4294967295
        }, 
        {
          "txid": "b071d7d6a0e1b00ab11c6111c8dc06ac23d12009dcc4c16b8d424344c5295e6d",
          "vout": 1,
          "scriptSig": {
            "asm": "3044022040b974ab6814b552282c2045b73deb00320b70a9685dbc3efc9a13f766826e7e02204cdd37d2b0aa2633c0eb0b10f50ab0ecc335e0c125bc308a4368ee01e95c7679[ALL] 03d4f88c998a4747093e2cafe27320e9e90f320d30dfc3fcc425771615cf213ca4",
            "hex": "473044022040b974ab6814b552282c2045b73deb00320b70a9685dbc3efc9a13f766826e7e02204cdd37d2b0aa2633c0eb0b10f50ab0ecc335e0c125bc308a4368ee01e95c7679012103d4f88c998a4747093e2cafe27320e9e90f320d30dfc3fcc425771615cf213ca4"
          },
          "sequence": 4294967295
        }, 
        {
          "txid": "bb6ff3210448549bc41d8b72bcfb0e966b3eb04eb7264d68cbe20af675cbbce0",
          "vout": 0,
          "scriptSig": {
            "asm": "3045022100bfb7c68bac399b3ddf0bbcfd8fdb1b5939dce0e0e4886f11627644a85240011f02200fb258154669ae79b241aa8ccb580ac4c2a6a0f84bdf5e37b885ff8a8b058ad0[ALL] 03f19917c7e4271ffe40202450cab48c16e2f0b1b404fdd5389b7db2b3d928211d",
            "hex": "483045022100bfb7c68bac399b3ddf0bbcfd8fdb1b5939dce0e0e4886f11627644a85240011f02200fb258154669ae79b241aa8ccb580ac4c2a6a0f84bdf5e37b885ff8a8b058ad0012103f19917c7e4271ffe40202450cab48c16e2f0b1b404fdd5389b7db2b3d928211d"
          },
          "sequence": 4294967295
        }, 
        {
          "txid": "a702f968c3eeb302bbf7e965550f38e21ac6f50064d6fcf7c83b9c6790474501",
          "vout": 0,
          "scriptSig": {
            "asm": "304402206bf5566a687d5fc44ddc8c0065454d9382c1e569dbb01079b3b31921c183694f0220299ea5dea5539fcdef2a11be0e45d1dee82281415892a9fa7b72f2f868a5e77d[ALL] 03381f9621282ac1e5f8915ed2d09f6db845dd6bfafc50823706f99c1cf955f013",
            "hex": "47304402206bf5566a687d5fc44ddc8c0065454d9382c1e569dbb01079b3b31921c183694f0220299ea5dea5539fcdef2a11be0e45d1dee82281415892a9fa7b72f2f868a5e77d012103381f9621282ac1e5f8915ed2d09f6db845dd6bfafc50823706f99c1cf955f013"
          },
          "sequence": 4294967295
        }, 
        {
          "txid": "82fdd02c6e4507c421489a3705c6cf2cd4ef45ba08ca61295127955b85d3f6f8",
          "vout": 0,
          "scriptSig": {
            "asm": "3044022069b94ed1838603f9335999fd2e96346fddd326045fae9232bebaebb03854a87a02202219d42bd12be0514dbfdb6aa6f6db36fd1f213b70bc00f0deb78171b78c9fa1[ALL] 02dcef2f9350b997ac5df514cc9847ec7f0e0b78f7716d8d11afca8d6aabc6615a",
            "hex": "473044022069b94ed1838603f9335999fd2e96346fddd326045fae9232bebaebb03854a87a02202219d42bd12be0514dbfdb6aa6f6db36fd1f213b70bc00f0deb78171b78c9fa1012102dcef2f9350b997ac5df514cc9847ec7f0e0b78f7716d8d11afca8d6aabc6615a"
          },
          "sequence": 4294967295
        }, 
        {
          "txid": "380e70666efd72a9444844b39dab0c9bf2182776893c0fd80e8ae43b857686ce",
          "vout": 0,
          "scriptSig": {
            "asm": "3045022100b95088dcc92c4f29f52100baf5ada7845a957e75168bf79e8e7816975c4e8aee02201d75bd9099c443c06a44c218e81d2713f817cf0333619872ce8b07f05141cb42[ALL] 0238f62b7567dd33284a7bf5ceaf133434a9c7b5b26e811eae93e727420d70988c",
            "hex": "483045022100b95088dcc92c4f29f52100baf5ada7845a957e75168bf79e8e7816975c4e8aee02201d75bd9099c443c06a44c218e81d2713f817cf0333619872ce8b07f05141cb4201210238f62b7567dd33284a7bf5ceaf133434a9c7b5b26e811eae93e727420d70988c"
          },
          "sequence": 4294967295
        }, 
        {
          "txid": "46b6fbb02a4d475107b99a39dc879f37da2f3427da4e201fba831ae23296f0ba",
          "vout": 0,
          "scriptSig": {
            "asm": "3045022100bdbe7883d3372acef19f664f351959eef0a658dc4aab4b6d08cc5e81ba7f4f3f02203a883b162a965418126a5df9ecf01bd80fc3a9d704ccab3b76e85693ed968634[ALL] 03a2b89a0894bd2dbc3e647645e4f84aff41f066366c7838c444e71a4869005f89",
            "hex": "483045022100bdbe7883d3372acef19f664f351959eef0a658dc4aab4b6d08cc5e81ba7f4f3f02203a883b162a965418126a5df9ecf01bd80fc3a9d704ccab3b76e85693ed968634012103a2b89a0894bd2dbc3e647645e4f84aff41f066366c7838c444e71a4869005f89"
          },
          "sequence": 4294967295
        }, 
        {
          "txid": "da1b4fdb741f2a0458df0dc609993ce511ba36a199953ddfa6f5daf043aa0df1",
          "vout": 2,
          "scriptSig": {
            "asm": "3045022100d2b73a4cfe3ba54abee247af1256385b74bab976480a1ba94f2fc0567a91e73f02205fcfc627d4480436caba01635b9d96e9b03d7b8eaea1657b1b04e4f7419773e1[ALL] 020637385df0e27cc146e0e160e2f7319add86782d6b6fc240bd0ef4042313cd71",
            "hex": "483045022100d2b73a4cfe3ba54abee247af1256385b74bab976480a1ba94f2fc0567a91e73f02205fcfc627d4480436caba01635b9d96e9b03d7b8eaea1657b1b04e4f7419773e10121020637385df0e27cc146e0e160e2f7319add86782d6b6fc240bd0ef4042313cd71"
          },
          "sequence": 4294967295
        }, 
        {
          "txid": "24e94f17da4256f47a3b54625ce3575ea23da7c33885197e93bc3c7be47693b3",
          "vout": 13,
          "scriptSig": {
            "asm": "304402202db2f4569316120ec54a550d9b564f15c703c18d13b7fdfc6ddb77bd30ca2d8b0220736497c1fbf7b7253839bb014194499fb885266c60c4970e5c6f38474b1b440b[ALL] 035ea0cf4d8e1b23a64b80f5f4288a5f5703d09abad8e29f1fc12b3f61e91c623e",
            "hex": "47304402202db2f4569316120ec54a550d9b564f15c703c18d13b7fdfc6ddb77bd30ca2d8b0220736497c1fbf7b7253839bb014194499fb885266c60c4970e5c6f38474b1b440b0121035ea0cf4d8e1b23a64b80f5f4288a5f5703d09abad8e29f1fc12b3f61e91c623e"
          },
          "sequence": 4294967295
        }, 
        {
          "txid": "21c8c926c5568f708153363051dc84b202318447903a85659b47aa2d66e796f6",
          "vout": 1,
          "scriptSig": {
            "asm": "3045022100c47e86f8505a83c32f4c9c8b1ffb758c9a487811f29218cfe39c739404f5953802202737d6fb6f25ca6d402f708601c5de595c3a0ea24a448b6fbb1cb8f65c774dfd[ALL] 030c1d630adcaa26fa5bd9799a5aad1004559d40256bdf24af733be3575ebad7e0",
            "hex": "483045022100c47e86f8505a83c32f4c9c8b1ffb758c9a487811f29218cfe39c739404f5953802202737d6fb6f25ca6d402f708601c5de595c3a0ea24a448b6fbb1cb8f65c774dfd0121030c1d630adcaa26fa5bd9799a5aad1004559d40256bdf24af733be3575ebad7e0"
          },
          "sequence": 4294967295
        }, 
        {
          "txid": "8196a03155ee28a874fa2917f045ff6cf986eece72f60eb74a873c14558fb8df",
          "vout": 0,
          "scriptSig": {
            "asm": "3044022016e71531343ff150131955029f56377770275020d422dfee151c36f6326d0576022013a996e284685b9f3dba25a033be3f3f6a110cd56247b16a5d03457305b960a2[ALL] 03484b6b1a3c00ead3f0ddd82ce329cb993328cd4fc191163fd7f36ff2b54324bd",
            "hex": "473044022016e71531343ff150131955029f56377770275020d422dfee151c36f6326d0576022013a996e284685b9f3dba25a033be3f3f6a110cd56247b16a5d03457305b960a2012103484b6b1a3c00ead3f0ddd82ce329cb993328cd4fc191163fd7f36ff2b54324bd"
          },
          "sequence": 4294967295
        }, 
        {
          "txid": "1823a4f08c6a31dbe13b784e7607b03858581a3c34d6655cb727b263103557be",
          "vout": 1,
          "scriptSig": {
            "asm": "304402206e8597def03aafa812f8549fc4febbe8bc12e912d748812cd95f7670709365130220623d92a2ccc762566df01c830730cc1452040dc14f9b7ca82c08c3d01d9cd06f[ALL] 02061473ebd9c24af117ad0de9a622e4d15fda5a8755ac8e639aa769bcf3036d1a",
            "hex": "47304402206e8597def03aafa812f8549fc4febbe8bc12e912d748812cd95f7670709365130220623d92a2ccc762566df01c830730cc1452040dc14f9b7ca82c08c3d01d9cd06f012102061473ebd9c24af117ad0de9a622e4d15fda5a8755ac8e639aa769bcf3036d1a"
          },
          "sequence": 4294967295
        }, 
        {
          "txid": "bd7bafd7cf109357e85b7b7d19827da123cd92d0b14e5e9de164cae32ddde325",
          "vout": 0,
          "scriptSig": {
            "asm": "304402207cda234c03cd542e0c7a4b7868c6c24b56c6aa48fc2ac8b6f50f4e5e98a9dee7022005d79d64242866f8040a17843f552d29c42365ea0d05ffba79a0ab99cd385411[ALL] 02268a213a04bd0a8221bd0313f2e14afdfb9a5e562b86a91412db892a301a625d",
            "hex": "47304402207cda234c03cd542e0c7a4b7868c6c24b56c6aa48fc2ac8b6f50f4e5e98a9dee7022005d79d64242866f8040a17843f552d29c42365ea0d05ffba79a0ab99cd385411012102268a213a04bd0a8221bd0313f2e14afdfb9a5e562b86a91412db892a301a625d"
          },
          "sequence": 4294967295
        }
      ],
      "vout": [
        {
          "value": 22.60613570,
          "n": 0,
          "scriptPubKey": {
            "asm": "OP_DUP OP_HASH160 6c2614c7b45ef8dfa8dc83e6739ddbe201d05ab0 OP_EQUALVERIFY OP_CHECKSIG",
            "hex": "76a9146c2614c7b45ef8dfa8dc83e6739ddbe201d05ab088ac",
            "reqSigs": 1,
            "type": "pubkeyhash",
            "addresses": [
              "LV5nrreyVZJVvptA9PZSD4ViegKh7Qa8MA"
            ]
          }
        }
      ],
      "hex": "010000000f93c6f3636d8a75c69718a197ca025a59dd2079e496a44e16d2942d4081853a68240000006b483045022100946a7b324aaeffd0676d9bec2cf12cfb77ae469c1d95646170802c819a1e029b02206f1c2edc355f6f4d16781aa5fecf402127e93d749e4621c4c6be3080548a85d8012102acb603926164cc0c535efe940943426b607129ad83b07aada093e54d40c59375ffffffff11b538bc4e7671eb1b9e6537c3584b0ec15d06773a321fa506b8664d82f644b8000000006a47304402206afacc6f0618b807aa08245f74a9e9e6e6663cd42690d3dc580f47bde1e11e5502200dfc85ee1cacf10b10aff719a1a4e5bd683439ec2e4d9e8cfcd14a09432da79e0121024f2ab13dbc22010d7af6c0418085f38436aa95f478741f65621b1012195e540fffffffff17ee553b07d258d67a076c0b85a4280ea4eef9747a5a1dcaa4c42216dc17c848000000006a47304402206b1a291446c107576778d18f11bd0811b5a6f8ae48282ca103a0af3cd79eb714022009caf2051742be5bc0e55693b47add24e81f4a557db56c0ba91e70beb9833c3f0121025b098c82c30c2e412d948f8feaf8c9491f888b466d95f30449dc63bc34591469ffffffff6d5e29c54443428d6bc1c4dc0920d123ac06dcc811611cb10ab0e1a0d6d771b0010000006a473044022040b974ab6814b552282c2045b73deb00320b70a9685dbc3efc9a13f766826e7e02204cdd37d2b0aa2633c0eb0b10f50ab0ecc335e0c125bc308a4368ee01e95c7679012103d4f88c998a4747093e2cafe27320e9e90f320d30dfc3fcc425771615cf213ca4ffffffffe0bccb75f60ae2cb684d26b74eb03e6b960efbbc728b1dc49b54480421f36fbb000000006b483045022100bfb7c68bac399b3ddf0bbcfd8fdb1b5939dce0e0e4886f11627644a85240011f02200fb258154669ae79b241aa8ccb580ac4c2a6a0f84bdf5e37b885ff8a8b058ad0012103f19917c7e4271ffe40202450cab48c16e2f0b1b404fdd5389b7db2b3d928211dffffffff01454790679c3bc8f7fcd66400f5c61ae2380f5565e9f7bb02b3eec368f902a7000000006a47304402206bf5566a687d5fc44ddc8c0065454d9382c1e569dbb01079b3b31921c183694f0220299ea5dea5539fcdef2a11be0e45d1dee82281415892a9fa7b72f2f868a5e77d012103381f9621282ac1e5f8915ed2d09f6db845dd6bfafc50823706f99c1cf955f013fffffffff8f6d3855b9527512961ca08ba45efd42ccfc605379a4821c407456e2cd0fd82000000006a473044022069b94ed1838603f9335999fd2e96346fddd326045fae9232bebaebb03854a87a02202219d42bd12be0514dbfdb6aa6f6db36fd1f213b70bc00f0deb78171b78c9fa1012102dcef2f9350b997ac5df514cc9847ec7f0e0b78f7716d8d11afca8d6aabc6615affffffffce8676853be48a0ed80f3c89762718f29b0cab9db3444844a972fd6e66700e38000000006b483045022100b95088dcc92c4f29f52100baf5ada7845a957e75168bf79e8e7816975c4e8aee02201d75bd9099c443c06a44c218e81d2713f817cf0333619872ce8b07f05141cb4201210238f62b7567dd33284a7bf5ceaf133434a9c7b5b26e811eae93e727420d70988cffffffffbaf09632e21a83ba1f204eda27342fda379f87dc399ab90751474d2ab0fbb646000000006b483045022100bdbe7883d3372acef19f664f351959eef0a658dc4aab4b6d08cc5e81ba7f4f3f02203a883b162a965418126a5df9ecf01bd80fc3a9d704ccab3b76e85693ed968634012103a2b89a0894bd2dbc3e647645e4f84aff41f066366c7838c444e71a4869005f89fffffffff10daa43f0daf5a6df3d9599a136ba11e53c9909c60ddf58042a1f74db4f1bda020000006b483045022100d2b73a4cfe3ba54abee247af1256385b74bab976480a1ba94f2fc0567a91e73f02205fcfc627d4480436caba01635b9d96e9b03d7b8eaea1657b1b04e4f7419773e10121020637385df0e27cc146e0e160e2f7319add86782d6b6fc240bd0ef4042313cd71ffffffffb39376e47b3cbc937e198538c3a73da25e57e35c62543b7af45642da174fe9240d0000006a47304402202db2f4569316120ec54a550d9b564f15c703c18d13b7fdfc6ddb77bd30ca2d8b0220736497c1fbf7b7253839bb014194499fb885266c60c4970e5c6f38474b1b440b0121035ea0cf4d8e1b23a64b80f5f4288a5f5703d09abad8e29f1fc12b3f61e91c623efffffffff696e7662daa479b65853a9047843102b284dc5130365381708f56c526c9c821010000006b483045022100c47e86f8505a83c32f4c9c8b1ffb758c9a487811f29218cfe39c739404f5953802202737d6fb6f25ca6d402f708601c5de595c3a0ea24a448b6fbb1cb8f65c774dfd0121030c1d630adcaa26fa5bd9799a5aad1004559d40256bdf24af733be3575ebad7e0ffffffffdfb88f55143c874ab70ef672ceee86f96cff45f01729fa74a828ee5531a09681000000006a473044022016e71531343ff150131955029f56377770275020d422dfee151c36f6326d0576022013a996e284685b9f3dba25a033be3f3f6a110cd56247b16a5d03457305b960a2012103484b6b1a3c00ead3f0ddd82ce329cb993328cd4fc191163fd7f36ff2b54324bdffffffffbe57351063b227b75c65d6343c1a585838b007764e783be1db316a8cf0a42318010000006a47304402206e8597def03aafa812f8549fc4febbe8bc12e912d748812cd95f7670709365130220623d92a2ccc762566df01c830730cc1452040dc14f9b7ca82c08c3d01d9cd06f012102061473ebd9c24af117ad0de9a622e4d15fda5a8755ac8e639aa769bcf3036d1affffffff25e3dd2de3ca64e19d5e4eb1d092cd23a17d82197d7b5be8579310cfd7af7bbd000000006a47304402207cda234c03cd542e0c7a4b7868c6c24b56c6aa48fc2ac8b6f50f4e5e98a9dee7022005d79d64242866f8040a17843f552d29c42365ea0d05ffba79a0ab99cd385411012102268a213a04bd0a8221bd0313f2e14afdfb9a5e562b86a91412db892a301a625dffffffff01c239be86000000001976a9146c2614c7b45ef8dfa8dc83e6739ddbe201d05ab088ac00000000"
    }
  ],
  "time": 1517190978,
  "mediantime": 1517190174,
  "nonce": 1417659846,
  "bits": "1a047f14",
  "difficulty": 3731199.183374282,
  "chainwork": "0000000000000000000000000000000000000000000000336233a54504d48f62",
  "previousblockhash": "d25cb9bb4008625b657a2c08580101f148c2bcb79c8ec0be25a34647e5136652",
  "nextblockhash": "a6123c5b9dd5b558344bc36b87b142e317fd4d5345a45e48e5e427749bec5060"
}
