{
  "hash": "ab206cbb0d59dd91c58a4a30ae69716f6224a8b085288399fbd785d4febd6ec9",
  "confirmations": 3774,
  "strippedsize": 3059,
  "size": 3095,
  "weight": 12272,
  "height": 1357221,
  "version": 536870912,
  "versionHex": "20000000",
  "merkleroot": "706590e361cb21e969a0b5567a63a0eff513eb39493d64a915f42d965a0fb61a",
  "tx": [
    {
      "txid": "71d784b8cbad5dcb0c7c91658f45568492fc4d644684773a404950fdf268efa7",
      "hash": "b6a5e591af2605c3bd46a6fe9bcc62b9c604e34cea252a6a1ebcea04ada23ede",
      "version": 1,
      "size": 240,
      "vsize": 213,
      "locktime": 0,
      "vin": [
        {
          "coinbase": "03a5b51404ba316b5a0803cf3e3b43000000fabe6d6de3cada1bae9445427569ebf4ec2007f98d203399ea94e19859cfd184671df1584000000000000000092f4c54432e544f502f",
          "sequence": 0
        }
      ],
      "vout": [
        {
          "value": 25.00400300,
          "n": 0,
          "scriptPubKey": {
            "asm": "OP_DUP OP_HASH160 0c617fdb2ea42aed30a509595ee21ba3f6688db0 OP_EQUALVERIFY OP_CHECKSIG",
            "hex": "76a9140c617fdb2ea42aed30a509595ee21ba3f6688db088ac",
            "reqSigs": 1,
            "type": "pubkeyhash",
            "addresses": [
              "LLMRAtr3qBje2ySEa3CnZ55LA4TQMWnRY3"
            ]
          }
        }, 
        {
          "value": 0.00000000,
          "n": 1,
          "scriptPubKey": {
            "asm": "OP_RETURN aa21a9edc7528de715f2c74a05a9951f4334cd838f7db3d316a48c1bbebb82914192f623",
            "hex": "6a24aa21a9edc7528de715f2c74a05a9951f4334cd838f7db3d316a48c1bbebb82914192f623",
            "type": "nulldata"
          }
        }
      ],
      "hex": "010000000001010000000000000000000000000000000000000000000000000000000000000000ffffffff4803a5b51404ba316b5a0803cf3e3b43000000fabe6d6de3cada1bae9445427569ebf4ec2007f98d203399ea94e19859cfd184671df1584000000000000000092f4c54432e544f502f0000000002ac140995000000001976a9140c617fdb2ea42aed30a509595ee21ba3f6688db088ac0000000000000000266a24aa21a9edc7528de715f2c74a05a9951f4334cd838f7db3d316a48c1bbebb82914192f6230120000000000000000000000000000000000000000000000000000000000000000000000000"
    }, 
    {
      "txid": "25e178af354f3fe2a79340a35d0719e3b12e7f0d1392817435c6e7ea226ce841",
      "hash": "25e178af354f3fe2a79340a35d0719e3b12e7f0d1392817435c6e7ea226ce841",
      "version": 1,
      "size": 223,
      "vsize": 223,
      "locktime": 0,
      "vin": [
        {
          "txid": "16787f943d23d8b0694670593b8ff72b693951d1a3b8be36dd50f05ce5ba2cec",
          "vout": 0,
          "scriptSig": {
            "asm": "304402203302bbcdb73c3c7997be069490a1d6bfbc6f9bd226e080b9247721558afdc126022000a008c8410cca501aae64b1f0f7539c6c2c575e90846c7f0776f94917fc2e69[ALL] 047f9f8a8d655db3f4cfa2395d049f18ef6396fa590dfe99afaf9d75d856b3acac3b896fb6b017e6974bf6ce508b008bba13fdfcbd7666f5c78ecc3ba01cacf290",
            "hex": "47304402203302bbcdb73c3c7997be069490a1d6bfbc6f9bd226e080b9247721558afdc126022000a008c8410cca501aae64b1f0f7539c6c2c575e90846c7f0776f94917fc2e690141047f9f8a8d655db3f4cfa2395d049f18ef6396fa590dfe99afaf9d75d856b3acac3b896fb6b017e6974bf6ce508b008bba13fdfcbd7666f5c78ecc3ba01cacf290"
          },
          "sequence": 4294967295
        }
      ],
      "vout": [
        {
          "value": 3.41668362,
          "n": 0,
          "scriptPubKey": {
            "asm": "OP_DUP OP_HASH160 a2fcc0b2b9f52104c49d3f38367f6b23ef8c1bb6 OP_EQUALVERIFY OP_CHECKSIG",
            "hex": "76a914a2fcc0b2b9f52104c49d3f38367f6b23ef8c1bb688ac",
            "reqSigs": 1,
            "type": "pubkeyhash",
            "addresses": [
              "La5kWrerp3Asbosx5gEYxH7bqsqxNwgNBx"
            ]
          }
        }
      ],
      "hex": "0100000001ec2cbae55cf050dd36beb8a3d15139692bf78f3b59704669b0d8233d947f7816000000008a47304402203302bbcdb73c3c7997be069490a1d6bfbc6f9bd226e080b9247721558afdc126022000a008c8410cca501aae64b1f0f7539c6c2c575e90846c7f0776f94917fc2e690141047f9f8a8d655db3f4cfa2395d049f18ef6396fa590dfe99afaf9d75d856b3acac3b896fb6b017e6974bf6ce508b008bba13fdfcbd7666f5c78ecc3ba01cacf290ffffffff010a725d14000000001976a914a2fcc0b2b9f52104c49d3f38367f6b23ef8c1bb688ac00000000"
    }, 
    {
      "txid": "cd7c8c5c10e58202b1f96feaf83fe206afce31349b6f4f1169615b4ee7ade496",
      "hash": "cd7c8c5c10e58202b1f96feaf83fe206afce31349b6f4f1169615b4ee7ade496",
      "version": 1,
      "size": 225,
      "vsize": 225,
      "locktime": 0,
      "vin": [
        {
          "txid": "4983486ebdf6b949416329fd45f682017f92114eeb4a35fcb41311facb5bf610",
          "vout": 2,
          "scriptSig": {
            "asm": "304402207113fe0e61d3dfadfc73082092c8575fc923aef509ed2c75ecd6b6535905c0e302206d61f0ee8e2a923b6dda2216ecf617cc884c02c97e73f0babd06e45e401942ba[ALL] 02939a20539cc80e13280c8939f22ba73680895206705e8d69550138c0b812b36f",
            "hex": "47304402207113fe0e61d3dfadfc73082092c8575fc923aef509ed2c75ecd6b6535905c0e302206d61f0ee8e2a923b6dda2216ecf617cc884c02c97e73f0babd06e45e401942ba012102939a20539cc80e13280c8939f22ba73680895206705e8d69550138c0b812b36f"
          },
          "sequence": 4294967294
        }
      ],
      "vout": [
        {
          "value": 1.29920000,
          "n": 0,
          "scriptPubKey": {
            "asm": "OP_DUP OP_HASH160 aabcea4d30ca12abc75cee7757d100110e7138ea OP_EQUALVERIFY OP_CHECKSIG",
            "hex": "76a914aabcea4d30ca12abc75cee7757d100110e7138ea88ac",
            "reqSigs": 1,
            "type": "pubkeyhash",
            "addresses": [
              "LanjStJ4Tm6nweUZFmRhnyPvJeMRa5t8JP"
            ]
          }
        }, 
        {
          "value": 23.38816000,
          "n": 1,
          "scriptPubKey": {
            "asm": "OP_DUP OP_HASH160 25fa7ef9e7b80b9cc2fa3070dfc597791690fd02 OP_EQUALVERIFY OP_CHECKSIG",
            "hex": "76a91425fa7ef9e7b80b9cc2fa3070dfc597791690fd0288ac",
            "reqSigs": 1,
            "type": "pubkeyhash",
            "addresses": [
              "LNgmM5UdnGzPLc3iLz4UTD1LKYCfVj66VV"
            ]
          }
        }
      ],
      "hex": "010000000110f65bcbfa1113b4fc354aeb4e11927f0182f645fd29634149b9f6bd6e488349020000006a47304402207113fe0e61d3dfadfc73082092c8575fc923aef509ed2c75ecd6b6535905c0e302206d61f0ee8e2a923b6dda2216ecf617cc884c02c97e73f0babd06e45e401942ba012102939a20539cc80e13280c8939f22ba73680895206705e8d69550138c0b812b36ffeffffff02006cbe07000000001976a914aabcea4d30ca12abc75cee7757d100110e7138ea88ac0080678b000000001976a91425fa7ef9e7b80b9cc2fa3070dfc597791690fd0288ac00000000"
    }, 
    {
      "txid": "2f178e1dbe6f5d9ac43e2dd69bea5d82c71771d52ae2299995ab29ecf0c89b3c",
      "hash": "2f178e1dbe6f5d9ac43e2dd69bea5d82c71771d52ae2299995ab29ecf0c89b3c",
      "version": 1,
      "size": 225,
      "vsize": 225,
      "locktime": 0,
      "vin": [
        {
          "txid": "57ec10161ff597d1a1472a93f7a576b543a46dfb4a3af97d4f049de16aa0d4a2",
          "vout": 0,
          "scriptSig": {
            "asm": "304402205a47df11f0cdc6f402211477310b1cdeddc15311924bb84bbacc35ba47a1f60e02204f5fc298a92f889708e82c39877856f4d4163ad195d86a00c9beafea076f0c79[ALL] 0344e17b65c9ad8a46212afebc19e3c25da883279ceb747c0fbad8a46e20f76219",
            "hex": "47304402205a47df11f0cdc6f402211477310b1cdeddc15311924bb84bbacc35ba47a1f60e02204f5fc298a92f889708e82c39877856f4d4163ad195d86a00c9beafea076f0c7901210344e17b65c9ad8a46212afebc19e3c25da883279ceb747c0fbad8a46e20f76219"
          },
          "sequence": 4294967295
        }
      ],
      "vout": [
        {
          "value": 22.11821152,
          "n": 0,
          "scriptPubKey": {
            "asm": "OP_DUP OP_HASH160 b3dbab13cfce001e86aec06d38e353fc7a638ae3 OP_EQUALVERIFY OP_CHECKSIG",
            "hex": "76a914b3dbab13cfce001e86aec06d38e353fc7a638ae388ac",
            "reqSigs": 1,
            "type": "pubkeyhash",
            "addresses": [
              "LbcxNNPwnF3KjFxqW75Knk1Rp2Q3iTEb2m"
            ]
          }
        }, 
        {
          "value": 1.27497248,
          "n": 1,
          "scriptPubKey": {
            "asm": "OP_DUP OP_HASH160 156dcad2d087969446d3e7cb6df0482b3b2e6ed2 OP_EQUALVERIFY OP_CHECKSIG",
            "hex": "76a914156dcad2d087969446d3e7cb6df0482b3b2e6ed288ac",
            "reqSigs": 1,
            "type": "pubkeyhash",
            "addresses": [
              "LMBFyk2sc4mZtKqKKFuv8wJswSFZB21JxU"
            ]
          }
        }
      ],
      "hex": "0100000001a2d4a06ae19d044f7df93a4afb6da443b576a5f7932a47a1d197f51f1610ec57000000006a47304402205a47df11f0cdc6f402211477310b1cdeddc15311924bb84bbacc35ba47a1f60e02204f5fc298a92f889708e82c39877856f4d4163ad195d86a00c9beafea076f0c7901210344e17b65c9ad8a46212afebc19e3c25da883279ceb747c0fbad8a46e20f76219ffffffff0260b6d583000000001976a914b3dbab13cfce001e86aec06d38e353fc7a638ae388ac20749907000000001976a914156dcad2d087969446d3e7cb6df0482b3b2e6ed288ac00000000"
    }, 
    {
      "txid": "b7967f1aa8a7241feb6228f8d9cb780c1cb211f61ce15ea4c587b87b3d403d04",
      "hash": "b7967f1aa8a7241feb6228f8d9cb780c1cb211f61ce15ea4c587b87b3d403d04",
      "version": 2,
      "size": 521,
      "vsize": 521,
      "locktime": 1357217,
      "vin": [
        {
          "txid": "a170fa5959afc24b87b895182125512e341624644aeced7876684d0954f164de",
          "vout": 0,
          "scriptSig": {
            "asm": "3045022100dde2e27fbed82ef4dbf97aa4fe468eb9b7dcb450d17c09a0cf2a4860947bad1e02205b4deb1c510903102bfeb8525c237b21919c1c3874301c5f5afaf4d0cffc30d2[ALL] 03ec8ba58f8a737c49fb6cd64aba84d62db4a0a2acec461fe879279d3e322e403c",
            "hex": "483045022100dde2e27fbed82ef4dbf97aa4fe468eb9b7dcb450d17c09a0cf2a4860947bad1e02205b4deb1c510903102bfeb8525c237b21919c1c3874301c5f5afaf4d0cffc30d2012103ec8ba58f8a737c49fb6cd64aba84d62db4a0a2acec461fe879279d3e322e403c"
          },
          "sequence": 4294967294
        }, 
        {
          "txid": "9d3b2e34ba381e20522bf219c381576e28c9e2f85adc00851579dfb5671363b0",
          "vout": 1,
          "scriptSig": {
            "asm": "304402210088d417848b6398afe17bae82e9249990f3019e7df8cbc07778daf0660c2329ea021f0b04466d3b507a1f7ed42b25aed9b765f1f6ad15009dfbb5f65725cbef50ea[ALL] 037ce38c9350391ae6ec8c1a938a31d78e89fb73480f0f58748611ab6af6490718",
            "hex": "47304402210088d417848b6398afe17bae82e9249990f3019e7df8cbc07778daf0660c2329ea021f0b04466d3b507a1f7ed42b25aed9b765f1f6ad15009dfbb5f65725cbef50ea0121037ce38c9350391ae6ec8c1a938a31d78e89fb73480f0f58748611ab6af6490718"
          },
          "sequence": 4294967294
        }, 
        {
          "txid": "c561565cc85f224c50464610b2f29c96777a814ad6da7427f35cb954a61e8ee4",
          "vout": 0,
          "scriptSig": {
            "asm": "304502210099497655669f7e1452d02cf27e56e4b2d680cbe8ec0901f7b7681b30e779264e022062c12b723fa571f042cc2c92474e876a95752ea488d41a730b43f3e32564d407[ALL] 03b8ad361ec473a8321e3dae75cea05e974b72c496592b27a9799a43f71a4aeb0f",
            "hex": "48304502210099497655669f7e1452d02cf27e56e4b2d680cbe8ec0901f7b7681b30e779264e022062c12b723fa571f042cc2c92474e876a95752ea488d41a730b43f3e32564d407012103b8ad361ec473a8321e3dae75cea05e974b72c496592b27a9799a43f71a4aeb0f"
          },
          "sequence": 4294967294
        }
      ],
      "vout": [
        {
          "value": 6.00000000,
          "n": 0,
          "scriptPubKey": {
            "asm": "OP_DUP OP_HASH160 5a6a76740916623dd878d5da570abdea7c4faa0c OP_EQUALVERIFY OP_CHECKSIG",
            "hex": "76a9145a6a76740916623dd878d5da570abdea7c4faa0c88ac",
            "reqSigs": 1,
            "type": "pubkeyhash",
            "addresses": [
              "LTU2cds4aSdXFip9sV4gXphnhxGQjgfjmg"
            ]
          }
        }, 
        {
          "value": 0.21792077,
          "n": 1,
          "scriptPubKey": {
            "asm": "OP_DUP OP_HASH160 bef2b3839e45c8243591b117a8c9ef2335eb37fe OP_EQUALVERIFY OP_CHECKSIG",
            "hex": "76a914bef2b3839e45c8243591b117a8c9ef2335eb37fe88ac",
            "reqSigs": 1,
            "type": "pubkeyhash",
            "addresses": [
              "LcdbPqYDVQaLkU4TbCT3wutyridPmv8CXi"
            ]
          }
        }
      ],
      "hex": "0200000003de64f154094d687678edec4a642416342e5125211895b8874bc2af5959fa70a1000000006b483045022100dde2e27fbed82ef4dbf97aa4fe468eb9b7dcb450d17c09a0cf2a4860947bad1e02205b4deb1c510903102bfeb8525c237b21919c1c3874301c5f5afaf4d0cffc30d2012103ec8ba58f8a737c49fb6cd64aba84d62db4a0a2acec461fe879279d3e322e403cfeffffffb0631367b5df79158500dc5af8e2c9286e5781c319f22b52201e38ba342e3b9d010000006a47304402210088d417848b6398afe17bae82e9249990f3019e7df8cbc07778daf0660c2329ea021f0b04466d3b507a1f7ed42b25aed9b765f1f6ad15009dfbb5f65725cbef50ea0121037ce38c9350391ae6ec8c1a938a31d78e89fb73480f0f58748611ab6af6490718feffffffe48e1ea654b95cf32774dad64a817a77969cf2b2104646504c225fc85c5661c5000000006b48304502210099497655669f7e1452d02cf27e56e4b2d680cbe8ec0901f7b7681b30e779264e022062c12b723fa571f042cc2c92474e876a95752ea488d41a730b43f3e32564d407012103b8ad361ec473a8321e3dae75cea05e974b72c496592b27a9799a43f71a4aeb0ffeffffff020046c323000000001976a9145a6a76740916623dd878d5da570abdea7c4faa0c88ac4d854c01000000001976a914bef2b3839e45c8243591b117a8c9ef2335eb37fe88aca1b51400"
    }, 
    {
      "txid": "2339a0c6a14d757dff8d0257cac8fc24bd754caccd28d3704fbb35f32db7e004",
      "hash": "2339a0c6a14d757dff8d0257cac8fc24bd754caccd28d3704fbb35f32db7e004",
      "version": 2,
      "size": 224,
      "vsize": 224,
      "locktime": 1357219,
      "vin": [
        {
          "txid": "60afc2d68c8ed03f840e14186886faafaf45a1f2de0f30a127fba29950a15183",
          "vout": 1,
          "scriptSig": {
            "asm": "3045022100f76ae475f016736732d0375a48f725f3181ddbe42b9d4612d719b083d64fa8680220301e5c1c2aff1bc07188e02eb6703a901b6912202a803bc61ec40fcbb66f10ab[ALL] 027c6119c6884049547a0adac271519d3bb019d77dd575527ccc933f070631369b",
            "hex": "483045022100f76ae475f016736732d0375a48f725f3181ddbe42b9d4612d719b083d64fa8680220301e5c1c2aff1bc07188e02eb6703a901b6912202a803bc61ec40fcbb66f10ab0121027c6119c6884049547a0adac271519d3bb019d77dd575527ccc933f070631369b"
          },
          "sequence": 4294967294
        }
      ],
      "vout": [
        {
          "value": 231.18158835,
          "n": 0,
          "scriptPubKey": {
            "asm": "OP_DUP OP_HASH160 65bfed6292467f05eb1f891a0e4053fe4f2f221f OP_EQUALVERIFY OP_CHECKSIG",
            "hex": "76a91465bfed6292467f05eb1f891a0e4053fe4f2f221f88ac",
            "reqSigs": 1,
            "type": "pubkeyhash",
            "addresses": [
              "LUVxRvrwPPPvLK2JG8xC8pCsB9BRuaiLnK"
            ]
          }
        }, 
        {
          "value": 0.85811141,
          "n": 1,
          "scriptPubKey": {
            "asm": "OP_HASH160 2e331d7f6377fb99e329d036ce29d2ccc4b554d5 OP_EQUAL",
            "hex": "a9142e331d7f6377fb99e329d036ce29d2ccc4b554d587",
            "reqSigs": 1,
            "type": "scripthash",
            "addresses": [
              "MC7SYoVpMgrwXfzt5ZAo7RVoNeRcT5wPCX"
            ]
          }
        }
      ],
      "hex": "02000000018351a15099a2fb27a1300fdef2a145afaffa866818140e843fd08e8cd6c2af60010000006b483045022100f76ae475f016736732d0375a48f725f3181ddbe42b9d4612d719b083d64fa8680220301e5c1c2aff1bc07188e02eb6703a901b6912202a803bc61ec40fcbb66f10ab0121027c6119c6884049547a0adac271519d3bb019d77dd575527ccc933f070631369bfeffffff02f31bf361050000001976a91465bfed6292467f05eb1f891a0e4053fe4f2f221f88acc55f1d050000000017a9142e331d7f6377fb99e329d036ce29d2ccc4b554d587a3b51400"
    }, 
    {
      "txid": "d22be4de5b6166a3a9aaa8d1bc3bb9121839769e3e239bfce23cd3cc0987720e",
      "hash": "d22be4de5b6166a3a9aaa8d1bc3bb9121839769e3e239bfce23cd3cc0987720e",
      "version": 2,
      "size": 226,
      "vsize": 226,
      "locktime": 1357132,
      "vin": [
        {
          "txid": "3bf45b0399bb071a02fbc5936ecd70803517ee407d97b5b31e6b8429c0cd70b5",
          "vout": 1,
          "scriptSig": {
            "asm": "3045022100e699ba165c9f4299113fb5dd33753be58d724b8a4e63a1e30dcbada5482b5c29022046ae3dba2ab039125514d28f8da5699e8dc09d935b54131902364c9441363330[ALL] 02420b30c7dcf506e8e3acb5203d4f1ca3c3fe074d1897eaad5fcab870303df1ce",
            "hex": "483045022100e699ba165c9f4299113fb5dd33753be58d724b8a4e63a1e30dcbada5482b5c29022046ae3dba2ab039125514d28f8da5699e8dc09d935b54131902364c9441363330012102420b30c7dcf506e8e3acb5203d4f1ca3c3fe074d1897eaad5fcab870303df1ce"
          },
          "sequence": 4294967294
        }
      ],
      "vout": [
        {
          "value": 72.82224242,
          "n": 0,
          "scriptPubKey": {
            "asm": "OP_DUP OP_HASH160 55ad8c208b8cac1864ff2df5a86c1d7eb5730e14 OP_EQUALVERIFY OP_CHECKSIG",
            "hex": "76a91455ad8c208b8cac1864ff2df5a86c1d7eb5730e1488ac",
            "reqSigs": 1,
            "type": "pubkeyhash",
            "addresses": [
              "LT2yboS5EHKcrP4TMPGZcmhwyCnDntnuPa"
            ]
          }
        }, 
        {
          "value": 0.50380000,
          "n": 1,
          "scriptPubKey": {
            "asm": "OP_DUP OP_HASH160 600fd715e76724e580b04fe0f8b8d9596dec434d OP_EQUALVERIFY OP_CHECKSIG",
            "hex": "76a914600fd715e76724e580b04fe0f8b8d9596dec434d88ac",
            "reqSigs": 1,
            "type": "pubkeyhash",
            "addresses": [
              "LTyt7DvRY2BsE3Txm5A3H5WJqM8EV6fiff"
            ]
          }
        }
      ],
      "hex": "0200000001b570cdc029846b1eb3b5977d40ee17358070cd6e93c5fb021a07bb99035bf43b010000006b483045022100e699ba165c9f4299113fb5dd33753be58d724b8a4e63a1e30dcbada5482b5c29022046ae3dba2ab039125514d28f8da5699e8dc09d935b54131902364c9441363330012102420b30c7dcf506e8e3acb5203d4f1ca3c3fe074d1897eaad5fcab870303df1cefeffffff0272ec0db2010000001976a91455ad8c208b8cac1864ff2df5a86c1d7eb5730e1488ace0bc0003000000001976a914600fd715e76724e580b04fe0f8b8d9596dec434d88ac4cb51400"
    }, 
    {
      "txid": "71a4eb5e34d09951cf1e77e785c281fc5adc9f46b26ca52c99eaa09dee77ea80",
      "hash": "71a4eb5e34d09951cf1e77e785c281fc5adc9f46b26ca52c99eaa09dee77ea80",
      "version": 2,
      "size": 226,
      "vsize": 226,
      "locktime": 1357219,
      "vin": [
        {
          "txid": "95694587821ea6879ee306d2454d9e2550407c7be3506c7d20dcfaef3bfa4471",
          "vout": 0,
          "scriptSig": {
            "asm": "3045022100d0d46950e3eaef5568d6ab00cf7d5888c5408ac0dabfeca46667d1bf45c895bd02202f010c5ecf21a3c354b9863467dea3f6979ef5767b81118725598b38ba944c8a[ALL] 03c0f95be80152e4e44681abb3407422050499e31739c9fba24104bb8d9b7f9349",
            "hex": "483045022100d0d46950e3eaef5568d6ab00cf7d5888c5408ac0dabfeca46667d1bf45c895bd02202f010c5ecf21a3c354b9863467dea3f6979ef5767b81118725598b38ba944c8a012103c0f95be80152e4e44681abb3407422050499e31739c9fba24104bb8d9b7f9349"
          },
          "sequence": 4294967294
        }
      ],
      "vout": [
        {
          "value": 252.48545594,
          "n": 0,
          "scriptPubKey": {
            "asm": "OP_DUP OP_HASH160 15240f830b6b8ce1b55ee6c741efeb421c212c3c OP_EQUALVERIFY OP_CHECKSIG",
            "hex": "76a91415240f830b6b8ce1b55ee6c741efeb421c212c3c88ac",
            "reqSigs": 1,
            "type": "pubkeyhash",
            "addresses": [
              "LM9jemvhphLfNFmmH9U2CTFmRi7hX1R3q3"
            ]
          }
        }, 
        {
          "value": 13.10489358,
          "n": 1,
          "scriptPubKey": {
            "asm": "OP_DUP OP_HASH160 efaeb3b59303c695a5d8a4c76cd90a04a4d9be70 OP_EQUALVERIFY OP_CHECKSIG",
            "hex": "76a914efaeb3b59303c695a5d8a4c76cd90a04a4d9be7088ac",
            "reqSigs": 1,
            "type": "pubkeyhash",
            "addresses": [
              "Lh5H3ZsLuB8QGKtDpAMCbfHGzXeYMWf36w"
            ]
          }
        }
      ],
      "hex": "02000000017144fa3beffadc207d6c50e37b7c4050259e4d45d206e39e87a61e8287456995000000006b483045022100d0d46950e3eaef5568d6ab00cf7d5888c5408ac0dabfeca46667d1bf45c895bd02202f010c5ecf21a3c354b9863467dea3f6979ef5767b81118725598b38ba944c8a012103c0f95be80152e4e44681abb3407422050499e31739c9fba24104bb8d9b7f9349feffffff023a3beee0050000001976a91415240f830b6b8ce1b55ee6c741efeb421c212c3c88ac0e7b1c4e000000001976a914efaeb3b59303c695a5d8a4c76cd90a04a4d9be7088aca3b51400"
    }, 
    {
      "txid": "24429a34aa40b23cf95de9cff542e5a7dc48b4c4607250431a5a1fc9b9d9f980",
      "hash": "24429a34aa40b23cf95de9cff542e5a7dc48b4c4607250431a5a1fc9b9d9f980",
      "version": 1,
      "size": 226,
      "vsize": 226,
      "locktime": 0,
      "vin": [
        {
          "txid": "0a940240d30a8365474f8aac3e8cdeba5609ec37679c4c87fbc39e15dc52080b",
          "vout": 1,
          "scriptSig": {
            "asm": "30450221008e063dcf6b6e136b62f3f62d65543b3a36802075f5b2a42da67e7a87d5ecf08a022063f6e0252e52a383ecd87f17e9d44a061a35ac994fcb78ac64e9273c381936d6[ALL] 03e2a1233decb7357701de14dc0827cb3be5ee407eeb9da5ebe20d0f691fa374e3",
            "hex": "4830450221008e063dcf6b6e136b62f3f62d65543b3a36802075f5b2a42da67e7a87d5ecf08a022063f6e0252e52a383ecd87f17e9d44a061a35ac994fcb78ac64e9273c381936d6012103e2a1233decb7357701de14dc0827cb3be5ee407eeb9da5ebe20d0f691fa374e3"
          },
          "sequence": 4294967295
        }
      ],
      "vout": [
        {
          "value": 0.29606427,
          "n": 0,
          "scriptPubKey": {
            "asm": "OP_DUP OP_HASH160 cabe7041e10e685b9b237b4290577c53051d5344 OP_EQUALVERIFY OP_CHECKSIG",
            "hex": "76a914cabe7041e10e685b9b237b4290577c53051d534488ac",
            "reqSigs": 1,
            "type": "pubkeyhash",
            "addresses": [
              "LdhxtrxGLrNoiKY7ufWkBwjAyBEkF54Reg"
            ]
          }
        }, 
        {
          "value": 0.01841790,
          "n": 1,
          "scriptPubKey": {
            "asm": "OP_DUP OP_HASH160 c4e5e5393e2e281f6fad8984ee3b650744330aa2 OP_EQUALVERIFY OP_CHECKSIG",
            "hex": "76a914c4e5e5393e2e281f6fad8984ee3b650744330aa288ac",
            "reqSigs": 1,
            "type": "pubkeyhash",
            "addresses": [
              "LdB47DyZcGfuTaSWYtd3QAf2WvvMK2G2z5"
            ]
          }
        }
      ],
      "hex": "01000000010b0852dc159ec3fb874c9c6737ec0956bade8c3eac8a4f4765830ad34002940a010000006b4830450221008e063dcf6b6e136b62f3f62d65543b3a36802075f5b2a42da67e7a87d5ecf08a022063f6e0252e52a383ecd87f17e9d44a061a35ac994fcb78ac64e9273c381936d6012103e2a1233decb7357701de14dc0827cb3be5ee407eeb9da5ebe20d0f691fa374e3ffffffff021bc2c301000000001976a914cabe7041e10e685b9b237b4290577c53051d534488ac7e1a1c00000000001976a914c4e5e5393e2e281f6fad8984ee3b650744330aa288ac00000000"
    }, 
    {
      "txid": "07eed565890450b80d5770297403c52049aa1138c4f5e021d9013c70345fde91",
      "hash": "07eed565890450b80d5770297403c52049aa1138c4f5e021d9013c70345fde91",
      "version": 2,
      "size": 226,
      "vsize": 226,
      "locktime": 1357217,
      "vin": [
        {
          "txid": "3501ce45109f12bb50539a1363b0c4d5a3204312d8bf39fc4d7fb0c1d91f2f30",
          "vout": 1,
          "scriptSig": {
            "asm": "3045022100d01764dc711aff0902af8b1b638e69d72203d685283b199f63c4275bef7765af02202fbeb44601edcb63567d6ac0cbbcf66552f3310c8c30d51ea433ec2e1a96d189[ALL] 0354f1e3c070fb23a454df4ea2e63e27e02efac114eaa21c7e322a1fc425961d6a",
            "hex": "483045022100d01764dc711aff0902af8b1b638e69d72203d685283b199f63c4275bef7765af02202fbeb44601edcb63567d6ac0cbbcf66552f3310c8c30d51ea433ec2e1a96d18901210354f1e3c070fb23a454df4ea2e63e27e02efac114eaa21c7e322a1fc425961d6a"
          },
          "sequence": 4294967294
        }
      ],
      "vout": [
        {
          "value": 1.00000000,
          "n": 0,
          "scriptPubKey": {
            "asm": "OP_DUP OP_HASH160 5a6a76740916623dd878d5da570abdea7c4faa0c OP_EQUALVERIFY OP_CHECKSIG",
            "hex": "76a9145a6a76740916623dd878d5da570abdea7c4faa0c88ac",
            "reqSigs": 1,
            "type": "pubkeyhash",
            "addresses": [
              "LTU2cds4aSdXFip9sV4gXphnhxGQjgfjmg"
            ]
          }
        }, 
        {
          "value": 1.07784289,
          "n": 1,
          "scriptPubKey": {
            "asm": "OP_DUP OP_HASH160 508b609a689ee8f8660c8cf8c1a1638b7e0089d6 OP_EQUALVERIFY OP_CHECKSIG",
            "hex": "76a914508b609a689ee8f8660c8cf8c1a1638b7e0089d688ac",
            "reqSigs": 1,
            "type": "pubkeyhash",
            "addresses": [
              "LSZqHfh9BkFqyNbwuN8bE5HV85YXLD1CGd"
            ]
          }
        }
      ],
      "hex": "0200000001302f1fd9c1b07f4dfc39bfd8124320a3d5c4b063139a5350bb129f1045ce0135010000006b483045022100d01764dc711aff0902af8b1b638e69d72203d685283b199f63c4275bef7765af02202fbeb44601edcb63567d6ac0cbbcf66552f3310c8c30d51ea433ec2e1a96d18901210354f1e3c070fb23a454df4ea2e63e27e02efac114eaa21c7e322a1fc425961d6afeffffff0200e1f505000000001976a9145a6a76740916623dd878d5da570abdea7c4faa0c88ac61a86c06000000001976a914508b609a689ee8f8660c8cf8c1a1638b7e0089d688aca1b51400"
    }, 
    {
      "txid": "19dcc6d2e248dff8fa22793aa0f90984c4b3848e90de1575bdc87eb97af03995",
      "hash": "19dcc6d2e248dff8fa22793aa0f90984c4b3848e90de1575bdc87eb97af03995",
      "version": 1,
      "size": 226,
      "vsize": 226,
      "locktime": 0,
      "vin": [
        {
          "txid": "8c785aa51668365725cdab2af305a1d8804e0b3a789174c65247c358aa892bbc",
          "vout": 25,
          "scriptSig": {
            "asm": "3045022100c01b08df315f8f040a0e2038d402ec0617cb4dd3035418e49adf7659a51c650f02205b7622d8f5898ca47d9589290404c48062e52928d6e0cd4b81de6c11ec3b77c3[ALL] 02071d09f26d96c9ad9dcec3c9d46191027f0a4d01c77ecd9c5bae22b235d4829c",
            "hex": "483045022100c01b08df315f8f040a0e2038d402ec0617cb4dd3035418e49adf7659a51c650f02205b7622d8f5898ca47d9589290404c48062e52928d6e0cd4b81de6c11ec3b77c3012102071d09f26d96c9ad9dcec3c9d46191027f0a4d01c77ecd9c5bae22b235d4829c"
          },
          "sequence": 4294967295
        }
      ],
      "vout": [
        {
          "value": 0.28420240,
          "n": 0,
          "scriptPubKey": {
            "asm": "OP_DUP OP_HASH160 3ad293fdb1f943d1e23a521d4241a55388c10dff OP_EQUALVERIFY OP_CHECKSIG",
            "hex": "76a9143ad293fdb1f943d1e23a521d4241a55388c10dff88ac",
            "reqSigs": 1,
            "type": "pubkeyhash",
            "addresses": [
              "LQayiZWg2wAhDP7DYcH3B9yaNhZSS9qxR7"
            ]
          }
        }, 
        {
          "value": 0.00557160,
          "n": 1,
          "scriptPubKey": {
            "asm": "OP_DUP OP_HASH160 4165af21313d7dd27b1d601a4cefc2b13daa1bd4 OP_EQUALVERIFY OP_CHECKSIG",
            "hex": "76a9144165af21313d7dd27b1d601a4cefc2b13daa1bd488ac",
            "reqSigs": 1,
            "type": "pubkeyhash",
            "addresses": [
              "LRBjzpM6M5Qs47eFULqyPsDJ8tkNsCwNn6"
            ]
          }
        }
      ],
      "hex": "0100000001bc2b89aa58c34752c67491783a0b4e80d8a105f32aabcd2557366816a55a788c190000006b483045022100c01b08df315f8f040a0e2038d402ec0617cb4dd3035418e49adf7659a51c650f02205b7622d8f5898ca47d9589290404c48062e52928d6e0cd4b81de6c11ec3b77c3012102071d09f26d96c9ad9dcec3c9d46191027f0a4d01c77ecd9c5bae22b235d4829cffffffff0290a8b101000000001976a9143ad293fdb1f943d1e23a521d4241a55388c10dff88ac68800800000000001976a9144165af21313d7dd27b1d601a4cefc2b13daa1bd488ac00000000"
    }, 
    {
      "txid": "f15047f1fc4cb5575239f907590ff656c0c541c8a8f1b05003a39f895c5b77c3",
      "hash": "f15047f1fc4cb5575239f907590ff656c0c541c8a8f1b05003a39f895c5b77c3",
      "version": 2,
      "size": 226,
      "vsize": 226,
      "locktime": 1357217,
      "vin": [
        {
          "txid": "07eed565890450b80d5770297403c52049aa1138c4f5e021d9013c70345fde91",
          "vout": 1,
          "scriptSig": {
            "asm": "3045022100d3aef4d803331250dc5e4ba4a0f3996b2bf4dee47911bcc040759993478057a40220663e3d770deb9f5155f440b295f703e251204b5de2ad25fc24c63a844d90abe8[ALL] 03c2681e6d67f42a100b6e4bb4e7f1248be55d0fbe7bbb5347aa13904a4e4dd0e1",
            "hex": "483045022100d3aef4d803331250dc5e4ba4a0f3996b2bf4dee47911bcc040759993478057a40220663e3d770deb9f5155f440b295f703e251204b5de2ad25fc24c63a844d90abe8012103c2681e6d67f42a100b6e4bb4e7f1248be55d0fbe7bbb5347aa13904a4e4dd0e1"
          },
          "sequence": 4294967294
        }
      ],
      "vout": [
        {
          "value": 0.07761689,
          "n": 0,
          "scriptPubKey": {
            "asm": "OP_DUP OP_HASH160 6004b6d45d00ddd75e001d57bfa85ca48cafcdd3 OP_EQUALVERIFY OP_CHECKSIG",
            "hex": "76a9146004b6d45d00ddd75e001d57bfa85ca48cafcdd388ac",
            "reqSigs": 1,
            "type": "pubkeyhash",
            "addresses": [
              "LTyenB8pscTPH1JdHX9eHwvBH8SyejCPLm"
            ]
          }
        }, 
        {
          "value": 1.00000000,
          "n": 1,
          "scriptPubKey": {
            "asm": "OP_DUP OP_HASH160 5a6a76740916623dd878d5da570abdea7c4faa0c OP_EQUALVERIFY OP_CHECKSIG",
            "hex": "76a9145a6a76740916623dd878d5da570abdea7c4faa0c88ac",
            "reqSigs": 1,
            "type": "pubkeyhash",
            "addresses": [
              "LTU2cds4aSdXFip9sV4gXphnhxGQjgfjmg"
            ]
          }
        }
      ],
      "hex": "020000000191de5f34703c01d921e0f5c43811aa4920c503742970570db850048965d5ee07010000006b483045022100d3aef4d803331250dc5e4ba4a0f3996b2bf4dee47911bcc040759993478057a40220663e3d770deb9f5155f440b295f703e251204b5de2ad25fc24c63a844d90abe8012103c2681e6d67f42a100b6e4bb4e7f1248be55d0fbe7bbb5347aa13904a4e4dd0e1feffffff02196f7600000000001976a9146004b6d45d00ddd75e001d57bfa85ca48cafcdd388ac00e1f505000000001976a9145a6a76740916623dd878d5da570abdea7c4faa0c88aca1b51400"
    }
  ],
  "time": 1516974470,
  "mediantime": 1516974211,
  "nonce": 19447601,
  "bits": "1a047f14",
  "difficulty": 3731199.183374282,
  "chainwork": "0000000000000000000000000000000000000000000000320942504645f9eddc",
  "previousblockhash": "5a31682101eff69486b050fc6cf78cc4755a4fd43fe4bff8a8951603c38a92af",
  "nextblockhash": "169e172b0852e1927b0531546af50abd4a8069e1bec1b53a53b2b6ccf6d64dca"
}
