{
  "hash": "ab584d3724c072389f4821f9f6c79b71f168645a5c47c3348a86145f418e94c2",
  "confirmations": 845,
  "strippedsize": 1298,
  "size": 1334,
  "weight": 5228,
  "height": 1360149,
  "version": 536870912,
  "versionHex": "20000000",
  "merkleroot": "e6dd3c475196eb9b2c73544462c26886d9a16aee001461413d03e1bb3bd25189",
  "tx": [
    {
      "txid": "93bd3b5cddc9b8704701c374b6c0badf358969ee91320553a682d5c1d9ba35b9",
      "hash": "cc9f81b2b1de15cdaf55602671c91cdf6ac6a034f06aa3c21c2f7acff3e761ab",
      "version": 1,
      "size": 243,
      "vsize": 216,
      "locktime": 0,
      "vin": [
        {
          "coinbase": "0315c11404116a715afabe6d6d94ec07bfe0c19508636985e7c4b657e28f6788dff6f2a262813c25d1976dea95100000000000000008780026bd100000000c2f4644483530384856544a2f",
          "sequence": 0
        }
      ],
      "vout": [
        {
          "value": 25.00352662,
          "n": 0,
          "scriptPubKey": {
            "asm": "OP_DUP OP_HASH160 81308472f5a29a68cec40cbb4cd3f4be72094456 OP_EQUALVERIFY OP_CHECKSIG",
            "hex": "76a91481308472f5a29a68cec40cbb4cd3f4be7209445688ac",
            "reqSigs": 1,
            "type": "pubkeyhash",
            "addresses": [
              "LX13Z1HZKVzRDabi8CsPdGhp7YbC7Q8qtn"
            ]
          }
        }, 
        {
          "value": 0.00000000,
          "n": 1,
          "scriptPubKey": {
            "asm": "OP_RETURN aa21a9ed873fe9e46413032f0eba0fa00e8e1f05f43a12f88830217217eeb99329e8589d",
            "hex": "6a24aa21a9ed873fe9e46413032f0eba0fa00e8e1f05f43a12f88830217217eeb99329e8589d",
            "type": "nulldata"
          }
        }
      ],
      "hex": "010000000001010000000000000000000000000000000000000000000000000000000000000000ffffffff4b0315c11404116a715afabe6d6d94ec07bfe0c19508636985e7c4b657e28f6788dff6f2a262813c25d1976dea95100000000000000008780026bd100000000c2f4644483530384856544a2f0000000002965a0895000000001976a91481308472f5a29a68cec40cbb4cd3f4be7209445688ac0000000000000000266a24aa21a9ed873fe9e46413032f0eba0fa00e8e1f05f43a12f88830217217eeb99329e8589d0120000000000000000000000000000000000000000000000000000000000000000000000000"
    }, 
    {
      "txid": "ffacd054f79bce6bf9ea098405591a83c6473da0d4e5a0e559ee52ad2f0439c3",
      "hash": "ffacd054f79bce6bf9ea098405591a83c6473da0d4e5a0e559ee52ad2f0439c3",
      "version": 1,
      "size": 335,
      "vsize": 335,
      "locktime": 0,
      "vin": [
        {
          "txid": "fcec5c1f8adff7092683cd1d99def7b41a6fae25c024d39f65d5c41b2b81dd7e",
          "vout": 1,
          "scriptSig": {
            "asm": "0 30440220232df458306de0d82c3f798f551a6680929fe021250ee9755b2ad1bd11d38d2f0220054aaedd9165c013ce7c510d3ae8753651c2d54535f23d9e6218871196ad5c90[ALL] 3045022100c828a712a535da1b6ba169b4ada192549d70190850b367018e35aec652f3468902201890a067493e929f7c456ae106a15fd41ed5f33e935554439672cf7e5ca9e885[ALL] 522102f77ec37a042ba4e5e6aef7760398bf59b87ac4c5dee30a2fb8798e9630d4916e210276b93401dc495b28592f66411a7c9093b468f8678db51144fc6a36f550d94aa952ae",
            "hex": "004730440220232df458306de0d82c3f798f551a6680929fe021250ee9755b2ad1bd11d38d2f0220054aaedd9165c013ce7c510d3ae8753651c2d54535f23d9e6218871196ad5c9001483045022100c828a712a535da1b6ba169b4ada192549d70190850b367018e35aec652f3468902201890a067493e929f7c456ae106a15fd41ed5f33e935554439672cf7e5ca9e8850147522102f77ec37a042ba4e5e6aef7760398bf59b87ac4c5dee30a2fb8798e9630d4916e210276b93401dc495b28592f66411a7c9093b468f8678db51144fc6a36f550d94aa952ae"
          },
          "sequence": 4294967295
        }
      ],
      "vout": [
        {
          "value": 0.08956000,
          "n": 0,
          "scriptPubKey": {
            "asm": "OP_DUP OP_HASH160 8cfb5f4b7b0bb44e9f627bfc1172ca5f29f967d6 OP_EQUALVERIFY OP_CHECKSIG",
            "hex": "76a9148cfb5f4b7b0bb44e9f627bfc1172ca5f29f967d688ac",
            "reqSigs": 1,
            "type": "pubkeyhash",
            "addresses": [
              "LY5PzifFDpwRMFW5qcCnboKRfK7AvoBug6"
            ]
          }
        }, 
        {
          "value": 9.61278800,
          "n": 1,
          "scriptPubKey": {
            "asm": "OP_HASH160 75b77316f8d91ff71fb2819115d1b6b9e80ccee9 OP_EQUAL",
            "hex": "a91475b77316f8d91ff71fb2819115d1b6b9e80ccee987",
            "reqSigs": 1,
            "type": "scripthash",
            "addresses": [
              "MJdb4B3BMDrfpB1FpKsPYQ1tDHdkNa1oLB"
            ]
          }
        }
      ],
      "hex": "01000000017edd812b1bc4d5659fd324c025ae6f1ab4f7de991dcd832609f7df8a1f5cecfc01000000da004730440220232df458306de0d82c3f798f551a6680929fe021250ee9755b2ad1bd11d38d2f0220054aaedd9165c013ce7c510d3ae8753651c2d54535f23d9e6218871196ad5c9001483045022100c828a712a535da1b6ba169b4ada192549d70190850b367018e35aec652f3468902201890a067493e929f7c456ae106a15fd41ed5f33e935554439672cf7e5ca9e8850147522102f77ec37a042ba4e5e6aef7760398bf59b87ac4c5dee30a2fb8798e9630d4916e210276b93401dc495b28592f66411a7c9093b468f8678db51144fc6a36f550d94aa952aeffffffff0260a88800000000001976a9148cfb5f4b7b0bb44e9f627bfc1172ca5f29f967d688ac50f34b390000000017a91475b77316f8d91ff71fb2819115d1b6b9e80ccee98700000000"
    }, 
    {
      "txid": "cad9ffe7c0b817d48bf4b5752422eade92e51985f5eac18926ad46b835c37c70",
      "hash": "cad9ffe7c0b817d48bf4b5752422eade92e51985f5eac18926ad46b835c37c70",
      "version": 1,
      "size": 225,
      "vsize": 225,
      "locktime": 0,
      "vin": [
        {
          "txid": "5d3773d3b72aa276180f3b9f597971b967b3445b689ed2b3c7e7770e6a9fa6de",
          "vout": 0,
          "scriptSig": {
            "asm": "3044022069070e49cc0dfcc6f77d439b6a615a20abe69f6471f4c86f8f86bda648cae79402207587b41fae98e8332cb48f6f84048c9f68ef4e8e2bea74d3011335344ae444f6[ALL] 031b0ea5cad86aab6bacb97a2be975d2b9883593d9318cbb8f554f6324ce9aebb4",
            "hex": "473044022069070e49cc0dfcc6f77d439b6a615a20abe69f6471f4c86f8f86bda648cae79402207587b41fae98e8332cb48f6f84048c9f68ef4e8e2bea74d3011335344ae444f60121031b0ea5cad86aab6bacb97a2be975d2b9883593d9318cbb8f554f6324ce9aebb4"
          },
          "sequence": 4294967295
        }
      ],
      "vout": [
        {
          "value": 0.10000000,
          "n": 0,
          "scriptPubKey": {
            "asm": "OP_DUP OP_HASH160 a1329bca3dfa83aca4665c3c0d3515d76885d462 OP_EQUALVERIFY OP_CHECKSIG",
            "hex": "76a914a1329bca3dfa83aca4665c3c0d3515d76885d46288ac",
            "reqSigs": 1,
            "type": "pubkeyhash",
            "addresses": [
              "LZvHgSaG6h1Sv5DzhSkk32viJGjSAa3a2d"
            ]
          }
        }, 
        {
          "value": 0.04901800,
          "n": 1,
          "scriptPubKey": {
            "asm": "OP_DUP OP_HASH160 8f0101a690fded8b19cc4071273e703a4543770d OP_EQUALVERIFY OP_CHECKSIG",
            "hex": "76a9148f0101a690fded8b19cc4071273e703a4543770d88ac",
            "reqSigs": 1,
            "type": "pubkeyhash",
            "addresses": [
              "LYG66aF9BCcFo9eLPT246KSRd9UacJYEq1"
            ]
          }
        }
      ],
      "hex": "0100000001dea69f6a0e77e7c7b3d29e685b44b367b97179599f3b0f1876a22ab7d373375d000000006a473044022069070e49cc0dfcc6f77d439b6a615a20abe69f6471f4c86f8f86bda648cae79402207587b41fae98e8332cb48f6f84048c9f68ef4e8e2bea74d3011335344ae444f60121031b0ea5cad86aab6bacb97a2be975d2b9883593d9318cbb8f554f6324ce9aebb4ffffffff0280969800000000001976a914a1329bca3dfa83aca4665c3c0d3515d76885d46288aca8cb4a00000000001976a9148f0101a690fded8b19cc4071273e703a4543770d88ac00000000"
    }, 
    {
      "txid": "3b9dd43bebd54a81f89145d07a8b186b40c17a56f3ed10f57d7a48bbc27f5fe5",
      "hash": "3b9dd43bebd54a81f89145d07a8b186b40c17a56f3ed10f57d7a48bbc27f5fe5",
      "version": 2,
      "size": 226,
      "vsize": 226,
      "locktime": 1360147,
      "vin": [
        {
          "txid": "432701a2bc3aebd9aa6b3a173877eabcf850eb246f0aa5097c9c3ec5477daef2",
          "vout": 1,
          "scriptSig": {
            "asm": "3045022100b84a1b8a1cb8183afaefa53f3b6e7e3e43d833ff9f63a3bbb111ab25e132598f022023a84f88383ecde68aa2ac410b826833519ea7cd391ac50ce03037b61507e378[ALL] 0356b3a42c998e2e4a549428c98401d50853ef270c7f7f39995b4521d2d4aec30d",
            "hex": "483045022100b84a1b8a1cb8183afaefa53f3b6e7e3e43d833ff9f63a3bbb111ab25e132598f022023a84f88383ecde68aa2ac410b826833519ea7cd391ac50ce03037b61507e37801210356b3a42c998e2e4a549428c98401d50853ef270c7f7f39995b4521d2d4aec30d"
          },
          "sequence": 4294967294
        }
      ],
      "vout": [
        {
          "value": 0.42285729,
          "n": 0,
          "scriptPubKey": {
            "asm": "OP_DUP OP_HASH160 79e2d9f508b5ea881e673539fe20d98026722880 OP_EQUALVERIFY OP_CHECKSIG",
            "hex": "76a91479e2d9f508b5ea881e673539fe20d9802672288088ac",
            "reqSigs": 1,
            "type": "pubkeyhash",
            "addresses": [
              "LWLRnLRjZbYKU2e7QGkQUDm5EWfuGcXL2j"
            ]
          }
        }, 
        {
          "value": 1.60683000,
          "n": 1,
          "scriptPubKey": {
            "asm": "OP_DUP OP_HASH160 dd450f4ad4b5fcd69703377b978fee7644d5ab30 OP_EQUALVERIFY OP_CHECKSIG",
            "hex": "76a914dd450f4ad4b5fcd69703377b978fee7644d5ab3088ac",
            "reqSigs": 1,
            "type": "pubkeyhash",
            "addresses": [
              "LfPvKxkhw6Qmkx4JPdh8h2g2SiVoTdUYxM"
            ]
          }
        }
      ],
      "hex": "0200000001f2ae7d47c53e9c7c09a50a6f24eb50f8bcea7738173a6baad9eb3abca2012743010000006b483045022100b84a1b8a1cb8183afaefa53f3b6e7e3e43d833ff9f63a3bbb111ab25e132598f022023a84f88383ecde68aa2ac410b826833519ea7cd391ac50ce03037b61507e37801210356b3a42c998e2e4a549428c98401d50853ef270c7f7f39995b4521d2d4aec30dfeffffff02a13a8502000000001976a91479e2d9f508b5ea881e673539fe20d9802672288088acf8d39309000000001976a914dd450f4ad4b5fcd69703377b978fee7644d5ab3088ac13c11400"
    }, 
    {
      "txid": "c2e98c0cac26c02a4973f85d1938ebb2a6c1dd880435fada381cb8fab38b8cf4",
      "hash": "c2e98c0cac26c02a4973f85d1938ebb2a6c1dd880435fada381cb8fab38b8cf4",
      "version": 2,
      "size": 224,
      "vsize": 224,
      "locktime": 1360146,
      "vin": [
        {
          "txid": "bfb10ee80be5489e101b215794fd4e6aa8655a842ac198aa35b1f3fba9fa7efa",
          "vout": 1,
          "scriptSig": {
            "asm": "3045022100d1ecb127edae2d1ef3f0c4e1cb36663e5315fe4931d2ef78f42e3c73a13b2a8f0220315896a9b84612e3773c19767722c0d42ebf8ac32c2413908a84e2771571422b[ALL] 03543ee4ea3aba2ea0003b00fedc1f0a0289ef199ce85b0d8fedfcd3a50914839c",
            "hex": "483045022100d1ecb127edae2d1ef3f0c4e1cb36663e5315fe4931d2ef78f42e3c73a13b2a8f0220315896a9b84612e3773c19767722c0d42ebf8ac32c2413908a84e2771571422b012103543ee4ea3aba2ea0003b00fedc1f0a0289ef199ce85b0d8fedfcd3a50914839c"
          },
          "sequence": 4294967294
        }
      ],
      "vout": [
        {
          "value": 10.00000000,
          "n": 0,
          "scriptPubKey": {
            "asm": "OP_HASH160 9976e448bd0a87ac514c82b4b4cb28b3a3085605 OP_EQUAL",
            "hex": "a9149976e448bd0a87ac514c82b4b4cb28b3a308560587",
            "reqSigs": 1,
            "type": "scripthash",
            "addresses": [
              "MMtc3XGxvXmcruAPpnMTrtKSid4wiAWvqH"
            ]
          }
        }, 
        {
          "value": 10.40539600,
          "n": 1,
          "scriptPubKey": {
            "asm": "OP_DUP OP_HASH160 ff8f65c43c603eacaf621929e404c21efe7473ab OP_EQUALVERIFY OP_CHECKSIG",
            "hex": "76a914ff8f65c43c603eacaf621929e404c21efe7473ab88ac",
            "reqSigs": 1,
            "type": "pubkeyhash",
            "addresses": [
              "LiXEMZhHpLzhCFr7EpeoPeq8LhgzMfQzq5"
            ]
          }
        }
      ],
      "hex": "0200000001fa7efaa9fbf3b135aa98c12a845a65a86a4efd9457211b109e48e50be80eb1bf010000006b483045022100d1ecb127edae2d1ef3f0c4e1cb36663e5315fe4931d2ef78f42e3c73a13b2a8f0220315896a9b84612e3773c19767722c0d42ebf8ac32c2413908a84e2771571422b012103543ee4ea3aba2ea0003b00fedc1f0a0289ef199ce85b0d8fedfcd3a50914839cfeffffff0200ca9a3b0000000017a9149976e448bd0a87ac514c82b4b4cb28b3a308560587d05f053e000000001976a914ff8f65c43c603eacaf621929e404c21efe7473ab88ac12c11400"
    }
  ],
  "time": 1517382161,
  "mediantime": 1517381768,
  "nonce": 3018027465,
  "bits": "1a042eae",
  "difficulty": 4011378.762614286,
  "chainwork": "000000000000000000000000000000000000000000000034ab4265a884c4202c",
  "previousblockhash": "838035dfea694f9fc8dfde1d9d451bacc87fe0d122a9c42d832d0271e2da6703",
  "nextblockhash": "e89d51f7af412fd53fdab58a6e21abfa8c28339ac070cd70a6b249490e401dc6"
}
