{
  "hash": "ab720009595157614b2f3b32aac69d6110fdbe8f234c05656586d33180349bfd",
  "confirmations": 1662,
  "strippedsize": 234,
  "size": 234,
  "weight": 936,
  "height": 1359332,
  "version": 536870912,
  "versionHex": "20000000",
  "merkleroot": "3bf812e006459078bc94a6f18b6526d693153a8a10bdc83124aa476a9c376a83",
  "tx": [
    {
      "txid": "3bf812e006459078bc94a6f18b6526d693153a8a10bdc83124aa476a9c376a83",
      "hash": "3bf812e006459078bc94a6f18b6526d693153a8a10bdc83124aa476a9c376a83",
      "version": 1,
      "size": 153,
      "vsize": 153,
      "locktime": 0,
      "vin": [
        {
          "coinbase": "03e4bd14045a6fafa52cfabe6d6d18c87860921ef0fa3435b622daceb40c7eff32d0b3c66b6db296000aa36ea1994000000000000000042f4c502f0856006d9540002336",
          "sequence": 4294967295
        }
      ],
      "vout": [
        {
          "value": 25.00000000,
          "n": 0,
          "scriptPubKey": {
            "asm": "OP_DUP OP_HASH160 57757ed2ecf2052ff3126c397aca7defb9ca2cec OP_EQUALVERIFY OP_CHECKSIG",
            "hex": "76a91457757ed2ecf2052ff3126c397aca7defb9ca2cec88ac",
            "reqSigs": 1,
            "type": "pubkeyhash",
            "addresses": [
              "LTCPodGk5FwcJaRzH9yKnwicxzFUbxp6tN"
            ]
          }
        }
      ],
      "hex": "01000000010000000000000000000000000000000000000000000000000000000000000000ffffffff4403e4bd14045a6fafa52cfabe6d6d18c87860921ef0fa3435b622daceb40c7eff32d0b3c66b6db296000aa36ea1994000000000000000042f4c502f0856006d9540002336ffffffff0100f90295000000001976a91457757ed2ecf2052ff3126c397aca7defb9ca2cec88ac00000000"
    }
  ],
  "time": 1517268901,
  "mediantime": 1517268114,
  "nonce": 558900711,
  "bits": "1a042eae",
  "difficulty": 4011378.762614286,
  "chainwork": "000000000000000000000000000000000000000000000033e7ea0f0f1fdd284a",
  "previousblockhash": "49478dc840e44085813981e8c44eb14a4caef414097a53929f7129c6e26fb364",
  "nextblockhash": "6d9ac29426700350bffc6d9a7a3d1bda00532d6c37006a52720c44a868b4772b"
}
