{
  "hash": "acbf4ff52d9196bd70cc69a94008bde535dd3f39168f8d359166bc33daa975a2",
  "confirmations": 556,
  "strippedsize": 2082,
  "size": 2118,
  "weight": 8364,
  "height": 1360438,
  "version": 536870912,
  "versionHex": "20000000",
  "merkleroot": "5083025a0823d543e739c3ea51e0c46108adcb27357c5c43f9aa574b81475b49",
  "tx": [
    {
      "txid": "e9aa193c8f55f1415f30adfd6bb3876c9e2d1cf9f3f52f9d23df410d57562462",
      "hash": "a6ea480a192acca10097f98e70b4027b357660c29dddd7b85d861ac5a4f10d39",
      "version": 1,
      "size": 236,
      "vsize": 209,
      "locktime": 0,
      "vin": [
        {
          "coinbase": "0336c214045a7229142cfabe6d6d32b357a7e7d6e57debfb25c133d77fe48c39a396aaac0012f38c56c30d1b8a824000000000000000042f4c502f08220099ed7d0c0000",
          "sequence": 4294967295
        }
      ],
      "vout": [
        {
          "value": 25.00354600,
          "n": 0,
          "scriptPubKey": {
            "asm": "OP_DUP OP_HASH160 57757ed2ecf2052ff3126c397aca7defb9ca2cec OP_EQUALVERIFY OP_CHECKSIG",
            "hex": "76a91457757ed2ecf2052ff3126c397aca7defb9ca2cec88ac",
            "reqSigs": 1,
            "type": "pubkeyhash",
            "addresses": [
              "LTCPodGk5FwcJaRzH9yKnwicxzFUbxp6tN"
            ]
          }
        }, 
        {
          "value": 0.00000000,
          "n": 1,
          "scriptPubKey": {
            "asm": "OP_RETURN aa21a9ed1daf0cd53e3c36a8f67a57a28b4ae307f0ab97979849fb2a57fa90b16c8e74cf",
            "hex": "6a24aa21a9ed1daf0cd53e3c36a8f67a57a28b4ae307f0ab97979849fb2a57fa90b16c8e74cf",
            "type": "nulldata"
          }
        }
      ],
      "hex": "010000000001010000000000000000000000000000000000000000000000000000000000000000ffffffff440336c214045a7229142cfabe6d6d32b357a7e7d6e57debfb25c133d77fe48c39a396aaac0012f38c56c30d1b8a824000000000000000042f4c502f08220099ed7d0c0000ffffffff0228620895000000001976a91457757ed2ecf2052ff3126c397aca7defb9ca2cec88ac0000000000000000266a24aa21a9ed1daf0cd53e3c36a8f67a57a28b4ae307f0ab97979849fb2a57fa90b16c8e74cf0120000000000000000000000000000000000000000000000000000000000000000000000000"
    }, 
    {
      "txid": "d6c326ac36c22aa6a96bf3625a179525b435f55d2367d131db7596429688cd1d",
      "hash": "d6c326ac36c22aa6a96bf3625a179525b435f55d2367d131db7596429688cd1d",
      "version": 1,
      "size": 336,
      "vsize": 336,
      "locktime": 0,
      "vin": [
        {
          "txid": "91a27db374441862b8988012329152ab5d01febac104d7bd59ff13c06328a9d8",
          "vout": 1,
          "scriptSig": {
            "asm": "0 30450221008707c1804d3626800ebe23fb59853b3cc353bed6642fdab84741f7ffd14258b30220327d9f2c93b239f54a00fb7fd69684ce3451f81ec0bdce0806d9eec10fff6169[ALL] 3045022100ce2b36938edbe8081afda39a1845c8a59f7318a0a3e5994bec5551690fad14e3022058b38a9b4b459c3c26f1d8103bdbd1f8c806ebdc682db15017b4bc8915717062[ALL] 522102f77ec37a042ba4e5e6aef7760398bf59b87ac4c5dee30a2fb8798e9630d4916e210276b93401dc495b28592f66411a7c9093b468f8678db51144fc6a36f550d94aa952ae",
            "hex": "004830450221008707c1804d3626800ebe23fb59853b3cc353bed6642fdab84741f7ffd14258b30220327d9f2c93b239f54a00fb7fd69684ce3451f81ec0bdce0806d9eec10fff616901483045022100ce2b36938edbe8081afda39a1845c8a59f7318a0a3e5994bec5551690fad14e3022058b38a9b4b459c3c26f1d8103bdbd1f8c806ebdc682db15017b4bc89157170620147522102f77ec37a042ba4e5e6aef7760398bf59b87ac4c5dee30a2fb8798e9630d4916e210276b93401dc495b28592f66411a7c9093b468f8678db51144fc6a36f550d94aa952ae"
          },
          "sequence": 4294967295
        }
      ],
      "vout": [
        {
          "value": 0.09036600,
          "n": 0,
          "scriptPubKey": {
            "asm": "OP_DUP OP_HASH160 b70d61a1b10a791c1af07bf107ad7a91aa6bcfa3 OP_EQUALVERIFY OP_CHECKSIG",
            "hex": "76a914b70d61a1b10a791c1af07bf107ad7a91aa6bcfa388ac",
            "reqSigs": 1,
            "type": "pubkeyhash",
            "addresses": [
              "Lbuqx58ppnqqc2KNJwt3cj94vCM3mWvm2P"
            ]
          }
        }, 
        {
          "value": 0.25012600,
          "n": 1,
          "scriptPubKey": {
            "asm": "OP_HASH160 75b77316f8d91ff71fb2819115d1b6b9e80ccee9 OP_EQUAL",
            "hex": "a91475b77316f8d91ff71fb2819115d1b6b9e80ccee987",
            "reqSigs": 1,
            "type": "scripthash",
            "addresses": [
              "MJdb4B3BMDrfpB1FpKsPYQ1tDHdkNa1oLB"
            ]
          }
        }
      ],
      "hex": "0100000001d8a92863c013ff59bdd704c1bafe015dab529132128098b862184474b37da29101000000db004830450221008707c1804d3626800ebe23fb59853b3cc353bed6642fdab84741f7ffd14258b30220327d9f2c93b239f54a00fb7fd69684ce3451f81ec0bdce0806d9eec10fff616901483045022100ce2b36938edbe8081afda39a1845c8a59f7318a0a3e5994bec5551690fad14e3022058b38a9b4b459c3c26f1d8103bdbd1f8c806ebdc682db15017b4bc89157170620147522102f77ec37a042ba4e5e6aef7760398bf59b87ac4c5dee30a2fb8798e9630d4916e210276b93401dc495b28592f66411a7c9093b468f8678db51144fc6a36f550d94aa952aeffffffff0238e38900000000001976a914b70d61a1b10a791c1af07bf107ad7a91aa6bcfa388ac78a97d010000000017a91475b77316f8d91ff71fb2819115d1b6b9e80ccee98700000000"
    }, 
    {
      "txid": "38abf8b97773d1d8c1a7dbe689891a1fc307274f3fa41aae3df98d826c05225f",
      "hash": "38abf8b97773d1d8c1a7dbe689891a1fc307274f3fa41aae3df98d826c05225f",
      "version": 2,
      "size": 225,
      "vsize": 225,
      "locktime": 1360436,
      "vin": [
        {
          "txid": "e0ea08f67c66a85583ce8fe3dc6b04ba1c32dba2ed2a9e65fd75ee4c9ffddd78",
          "vout": 482,
          "scriptSig": {
            "asm": "304402207f95acdf3dc68debced0e5a8566f2eeedf625c46d5207c509cd6ea9c8cd8331f02202e88d245eedaa77435fde7b06eaa686bbac5b342ac6ab51fe84448a86a69a112[ALL] 02f387e76bd4eb61d7d6b91666bedc6709c7436e8f2592ad4a1fdbcdcb57880105",
            "hex": "47304402207f95acdf3dc68debced0e5a8566f2eeedf625c46d5207c509cd6ea9c8cd8331f02202e88d245eedaa77435fde7b06eaa686bbac5b342ac6ab51fe84448a86a69a112012102f387e76bd4eb61d7d6b91666bedc6709c7436e8f2592ad4a1fdbcdcb57880105"
          },
          "sequence": 4294967294
        }
      ],
      "vout": [
        {
          "value": 0.00977615,
          "n": 0,
          "scriptPubKey": {
            "asm": "OP_DUP OP_HASH160 7c088f7e118a242630f061eaa6064d3941108234 OP_EQUALVERIFY OP_CHECKSIG",
            "hex": "76a9147c088f7e118a242630f061eaa6064d394110823488ac",
            "reqSigs": 1,
            "type": "pubkeyhash",
            "addresses": [
              "LWXnJo5BGUrjK4PJ9iQ6qvzs7pjbzhyF8b"
            ]
          }
        }, 
        {
          "value": 0.15390000,
          "n": 1,
          "scriptPubKey": {
            "asm": "OP_DUP OP_HASH160 17263f358bfa8483e176928671a1575514f6771f OP_EQUALVERIFY OP_CHECKSIG",
            "hex": "76a91417263f358bfa8483e176928671a1575514f6771f88ac",
            "reqSigs": 1,
            "type": "pubkeyhash",
            "addresses": [
              "LMLMd4qrdgfCxQjUexffgNLsZjTGPV5D73"
            ]
          }
        }
      ],
      "hex": "020000000178ddfd9f4cee75fd659e2aeda2db321cba046bdce38fce8355a8667cf608eae0e20100006a47304402207f95acdf3dc68debced0e5a8566f2eeedf625c46d5207c509cd6ea9c8cd8331f02202e88d245eedaa77435fde7b06eaa686bbac5b342ac6ab51fe84448a86a69a112012102f387e76bd4eb61d7d6b91666bedc6709c7436e8f2592ad4a1fdbcdcb57880105feffffff02cfea0e00000000001976a9147c088f7e118a242630f061eaa6064d394110823488ac30d5ea00000000001976a91417263f358bfa8483e176928671a1575514f6771f88ac34c21400"
    }, 
    {
      "txid": "a12d972a80913ae46879a47fff22577f473332ee25b38b947223a30d32e1a564",
      "hash": "a12d972a80913ae46879a47fff22577f473332ee25b38b947223a30d32e1a564",
      "version": 1,
      "size": 225,
      "vsize": 225,
      "locktime": 0,
      "vin": [
        {
          "txid": "11a5c0bfe081a808c6e62e149b8754c095c81a00ca131f7398737f936d06a63a",
          "vout": 0,
          "scriptSig": {
            "asm": "304402205b71f2a33a7e1a5a17ef7081af0775a78ae2455a18c55afb7584010594cbce5302206da9adb78842a93501cca24140e0b618ba07f57aec90a5acdbe00f8de8871696[ALL] 03ab504740d6d25cdd28e130040d1158e89bfb6729fe3ae4d6cac0c2195f74dae4",
            "hex": "47304402205b71f2a33a7e1a5a17ef7081af0775a78ae2455a18c55afb7584010594cbce5302206da9adb78842a93501cca24140e0b618ba07f57aec90a5acdbe00f8de8871696012103ab504740d6d25cdd28e130040d1158e89bfb6729fe3ae4d6cac0c2195f74dae4"
          },
          "sequence": 4294967295
        }
      ],
      "vout": [
        {
          "value": 17.33445106,
          "n": 0,
          "scriptPubKey": {
            "asm": "OP_DUP OP_HASH160 fc9a5f23620f15fae59591d6ff779184d6bbfa8c OP_EQUALVERIFY OP_CHECKSIG",
            "hex": "76a914fc9a5f23620f15fae59591d6ff779184d6bbfa8c88ac",
            "reqSigs": 1,
            "type": "pubkeyhash",
            "addresses": [
              "LiFbUUzVLJhV3WWrKBXmYucHkg2Ee6GVDq"
            ]
          }
        }, 
        {
          "value": 5.00000000,
          "n": 1,
          "scriptPubKey": {
            "asm": "OP_DUP OP_HASH160 c55fc1ca05c98d2bc35207f238c981fd28f334c2 OP_EQUALVERIFY OP_CHECKSIG",
            "hex": "76a914c55fc1ca05c98d2bc35207f238c981fd28f334c288ac",
            "reqSigs": 1,
            "type": "pubkeyhash",
            "addresses": [
              "LdDa6KGiTGTop2a7AAxvF3FqeJzjhPJHep"
            ]
          }
        }
      ],
      "hex": "01000000013aa6066d937f7398731f13ca001ac895c054879b142ee6c608a881e0bfc0a511000000006a47304402205b71f2a33a7e1a5a17ef7081af0775a78ae2455a18c55afb7584010594cbce5302206da9adb78842a93501cca24140e0b618ba07f57aec90a5acdbe00f8de8871696012103ab504740d6d25cdd28e130040d1158e89bfb6729fe3ae4d6cac0c2195f74dae4ffffffff02f2455267000000001976a914fc9a5f23620f15fae59591d6ff779184d6bbfa8c88ac0065cd1d000000001976a914c55fc1ca05c98d2bc35207f238c981fd28f334c288ac00000000"
    }, 
    {
      "txid": "fe9eb156137c4397c4d53bfb073369bc804921b64aad664d2f47cd4c0107627e",
      "hash": "fe9eb156137c4397c4d53bfb073369bc804921b64aad664d2f47cd4c0107627e",
      "version": 2,
      "size": 225,
      "vsize": 225,
      "locktime": 1360436,
      "vin": [
        {
          "txid": "15902f3d7f87b22346ab83ec21cd1fd7b79789e64ec7d759f5f714b22f2399ec",
          "vout": 0,
          "scriptSig": {
            "asm": "3044022026d2d73bbbb3e148066e9a1236a604f508ea082c10526a52c20a0cba82b4590802203bae06524b7cb33b46a0e7a226b237874ee7f9e016f810a6b8f5f0f7ab18b00a[ALL] 0262ff9daac3dc1c7ec108e88b1febd6adf55762a3f7980cbd4cfd7e6c11224924",
            "hex": "473044022026d2d73bbbb3e148066e9a1236a604f508ea082c10526a52c20a0cba82b4590802203bae06524b7cb33b46a0e7a226b237874ee7f9e016f810a6b8f5f0f7ab18b00a01210262ff9daac3dc1c7ec108e88b1febd6adf55762a3f7980cbd4cfd7e6c11224924"
          },
          "sequence": 4294967294
        }
      ],
      "vout": [
        {
          "value": 75.95333791,
          "n": 0,
          "scriptPubKey": {
            "asm": "OP_DUP OP_HASH160 f1674278f5a24880caeaccd1507460a47cad0e42 OP_EQUALVERIFY OP_CHECKSIG",
            "hex": "76a914f1674278f5a24880caeaccd1507460a47cad0e4288ac",
            "reqSigs": 1,
            "type": "pubkeyhash",
            "addresses": [
              "LhENp3ujVox9ZXjKtHwdzbcEZbf3PU6p1A"
            ]
          }
        }, 
        {
          "value": 2.74179673,
          "n": 1,
          "scriptPubKey": {
            "asm": "OP_DUP OP_HASH160 7129487831e88e039758bcc13bb71bdf7da51bcf OP_EQUALVERIFY OP_CHECKSIG",
            "hex": "76a9147129487831e88e039758bcc13bb71bdf7da51bcf88ac",
            "reqSigs": 1,
            "type": "pubkeyhash",
            "addresses": [
              "LVYJ5HhpzveSyzXRTEKEoxHBc9UzTpP2uc"
            ]
          }
        }
      ],
      "hex": "0200000001ec99232fb214f7f559d7c74ee68997b7d71fcd21ec83ab4623b2877f3d2f9015000000006a473044022026d2d73bbbb3e148066e9a1236a604f508ea082c10526a52c20a0cba82b4590802203bae06524b7cb33b46a0e7a226b237874ee7f9e016f810a6b8f5f0f7ab18b00a01210262ff9daac3dc1c7ec108e88b1febd6adf55762a3f7980cbd4cfd7e6c11224924feffffff029f98b7c4010000001976a914f1674278f5a24880caeaccd1507460a47cad0e4288ac59a65710000000001976a9147129487831e88e039758bcc13bb71bdf7da51bcf88ac34c21400"
    }, 
    {
      "txid": "e0e4471e00f3809e5acda0c10118b685c4bb479e18e5953a4d5060e746af85fc",
      "hash": "e0e4471e00f3809e5acda0c10118b685c4bb479e18e5953a4d5060e746af85fc",
      "version": 1,
      "size": 225,
      "vsize": 225,
      "locktime": 0,
      "vin": [
        {
          "txid": "afe2ae8a59249457056ad28cfaa5c2d2719edf481ad0d0070e013496ecadb203",
          "vout": 0,
          "scriptSig": {
            "asm": "30440220016e616130a67378c9668f278713da53b41ea252c59fe3f07cc858751075a95a022020af445b55e9b703e06ced71be0d2e4f519dcf15e0c6c13c1fe59fe46069311e[ALL] 029a59b7a9a6e400fde58b1e5a7f81e606195f9f3543435bf25c199423ab935bea",
            "hex": "4730440220016e616130a67378c9668f278713da53b41ea252c59fe3f07cc858751075a95a022020af445b55e9b703e06ced71be0d2e4f519dcf15e0c6c13c1fe59fe46069311e0121029a59b7a9a6e400fde58b1e5a7f81e606195f9f3543435bf25c199423ab935bea"
          },
          "sequence": 4294967295
        }
      ],
      "vout": [
        {
          "value": 1.27591097,
          "n": 0,
          "scriptPubKey": {
            "asm": "OP_DUP OP_HASH160 fcaeb8f505ca173aece7c4298a64c10601f2064a OP_EQUALVERIFY OP_CHECKSIG",
            "hex": "76a914fcaeb8f505ca173aece7c4298a64c10601f2064a88ac",
            "reqSigs": 1,
            "type": "pubkeyhash",
            "addresses": [
              "LiG1rV7tp7i4QVPw1d6VFgVkvj92QZZvEW"
            ]
          }
        }, 
        {
          "value": 0.21203383,
          "n": 1,
          "scriptPubKey": {
            "asm": "OP_DUP OP_HASH160 2fda2dfca5f9c25e9a72942225cffeeee270bc5a OP_EQUALVERIFY OP_CHECKSIG",
            "hex": "76a9142fda2dfca5f9c25e9a72942225cffeeee270bc5a88ac",
            "reqSigs": 1,
            "type": "pubkeyhash",
            "addresses": [
              "LPayPcgGjTuYUs9hqhUPYcP1Khr4aCCFNw"
            ]
          }
        }
      ],
      "hex": "010000000103b2adec9634010e07d0d01a48df9e71d2c2a5fa8cd26a05579424598aaee2af000000006a4730440220016e616130a67378c9668f278713da53b41ea252c59fe3f07cc858751075a95a022020af445b55e9b703e06ced71be0d2e4f519dcf15e0c6c13c1fe59fe46069311e0121029a59b7a9a6e400fde58b1e5a7f81e606195f9f3543435bf25c199423ab935beaffffffff02b9e29a07000000001976a914fcaeb8f505ca173aece7c4298a64c10601f2064a88acb7894301000000001976a9142fda2dfca5f9c25e9a72942225cffeeee270bc5a88ac00000000"
    }, 
    {
      "txid": "a694e9574dc3eceebabf034a8b38f7c7ca60f3af1c8ad8fc876aa55650114a0b",
      "hash": "a694e9574dc3eceebabf034a8b38f7c7ca60f3af1c8ad8fc876aa55650114a0b",
      "version": 2,
      "size": 373,
      "vsize": 373,
      "locktime": 1360436,
      "vin": [
        {
          "txid": "975c1c61628052faa169150db5cbb17b94e9326175e4f6f6829958022d5a7269",
          "vout": 13,
          "scriptSig": {
            "asm": "30450221009aa07640a57ecbd91ac859b81b720cbd16658b11d2829b8763f5e520191264d302202d0975217d5a5c6766173f271542b5ea20e8e4b77b70c271a42a777cf65c6af1[ALL] 03ad095c797c097c6841adeeb2683a3c1a5450ec031c94e605cbca8523ee2f4876",
            "hex": "4830450221009aa07640a57ecbd91ac859b81b720cbd16658b11d2829b8763f5e520191264d302202d0975217d5a5c6766173f271542b5ea20e8e4b77b70c271a42a777cf65c6af1012103ad095c797c097c6841adeeb2683a3c1a5450ec031c94e605cbca8523ee2f4876"
          },
          "sequence": 4294967294
        }, 
        {
          "txid": "da21dd5373b61404b2af56104d633d266e09b1f4c2b16c265b4f164c18c09812",
          "vout": 39,
          "scriptSig": {
            "asm": "304402205d6e87fc68c014dd6af80354a92ff94b0d0898fceba4e117ff777e60d885a74602206476a64019cad585bd6a21bfa0f4cd76c8ca2fc6eb26a6d4396f238cdc08fb69[ALL] 02c3d068aa9b4bb4efbb0028500da1b15645dfcac2850f2811f47c61e219f035e4",
            "hex": "47304402205d6e87fc68c014dd6af80354a92ff94b0d0898fceba4e117ff777e60d885a74602206476a64019cad585bd6a21bfa0f4cd76c8ca2fc6eb26a6d4396f238cdc08fb69012102c3d068aa9b4bb4efbb0028500da1b15645dfcac2850f2811f47c61e219f035e4"
          },
          "sequence": 4294967294
        }
      ],
      "vout": [
        {
          "value": 0.10146729,
          "n": 0,
          "scriptPubKey": {
            "asm": "OP_DUP OP_HASH160 3930fe93e5ee32c9dc59673d531f3cb529be44ae OP_EQUALVERIFY OP_CHECKSIG",
            "hex": "76a9143930fe93e5ee32c9dc59673d531f3cb529be44ae88ac",
            "reqSigs": 1,
            "type": "pubkeyhash",
            "addresses": [
              "LQSMULjRMxyyTSd5Z6pn7vxVwF4jDE23rX"
            ]
          }
        }, 
        {
          "value": 0.02115061,
          "n": 1,
          "scriptPubKey": {
            "asm": "OP_DUP OP_HASH160 d23030bb9f6d927409f6000ed25631175b4890ef OP_EQUALVERIFY OP_CHECKSIG",
            "hex": "76a914d23030bb9f6d927409f6000ed25631175b4890ef88ac",
            "reqSigs": 1,
            "type": "pubkeyhash",
            "addresses": [
              "LePKtpfCHFkzZbNGMHYUtKKNoieHZ3HgcT"
            ]
          }
        }
      ],
      "hex": "020000000269725a2d02589982f6f6e4756132e9947bb1cbb50d1569a1fa528062611c5c970d0000006b4830450221009aa07640a57ecbd91ac859b81b720cbd16658b11d2829b8763f5e520191264d302202d0975217d5a5c6766173f271542b5ea20e8e4b77b70c271a42a777cf65c6af1012103ad095c797c097c6841adeeb2683a3c1a5450ec031c94e605cbca8523ee2f4876feffffff1298c0184c164f5b266cb1c2f4b1096e263d634d1056afb20414b67353dd21da270000006a47304402205d6e87fc68c014dd6af80354a92ff94b0d0898fceba4e117ff777e60d885a74602206476a64019cad585bd6a21bfa0f4cd76c8ca2fc6eb26a6d4396f238cdc08fb69012102c3d068aa9b4bb4efbb0028500da1b15645dfcac2850f2811f47c61e219f035e4feffffff02a9d39a00000000001976a9143930fe93e5ee32c9dc59673d531f3cb529be44ae88acf5452000000000001976a914d23030bb9f6d927409f6000ed25631175b4890ef88ac34c21400"
    }, 
    {
      "txid": "26faf8c3c4a39e877c76bcdbf3b80d2c223e416637fe4a184d941186fb0c8207",
      "hash": "26faf8c3c4a39e877c76bcdbf3b80d2c223e416637fe4a184d941186fb0c8207",
      "version": 1,
      "size": 192,
      "vsize": 192,
      "locktime": 1360436,
      "vin": [
        {
          "txid": "38cced1375997ff9fc414cea07fa63f51a06454fbadcf4843fa835f474a5016d",
          "vout": 0,
          "scriptSig": {
            "asm": "3045022100a04c55500669a5582f4ffafcba50d2895da928c62c5c7160e6401b649c4d27d902204be5aae10eeb54fdf03893081d9a03256dbfa56bd344002eba451ea62944797d[ALL] 02d29a0d13532b6402a09562e296bf69bcf45b7ada19bd49a47de1454a2e45754c",
            "hex": "483045022100a04c55500669a5582f4ffafcba50d2895da928c62c5c7160e6401b649c4d27d902204be5aae10eeb54fdf03893081d9a03256dbfa56bd344002eba451ea62944797d012102d29a0d13532b6402a09562e296bf69bcf45b7ada19bd49a47de1454a2e45754c"
          },
          "sequence": 4294967294
        }
      ],
      "vout": [
        {
          "value": 1.19721492,
          "n": 0,
          "scriptPubKey": {
            "asm": "OP_DUP OP_HASH160 eed9770dae9d58e82a76b4908c6cb26dc80f9249 OP_EQUALVERIFY OP_CHECKSIG",
            "hex": "76a914eed9770dae9d58e82a76b4908c6cb26dc80f924988ac",
            "reqSigs": 1,
            "type": "pubkeyhash",
            "addresses": [
              "Lgzsbc4oF1e3PefksgC4JjNyVTKaBHLg5a"
            ]
          }
        }
      ],
      "hex": "01000000016d01a574f435a83f84f4dcba4f45061af563fa07ea4c41fcf97f997513edcc38000000006b483045022100a04c55500669a5582f4ffafcba50d2895da928c62c5c7160e6401b649c4d27d902204be5aae10eeb54fdf03893081d9a03256dbfa56bd344002eba451ea62944797d012102d29a0d13532b6402a09562e296bf69bcf45b7ada19bd49a47de1454a2e45754cfeffffff0114ce2207000000001976a914eed9770dae9d58e82a76b4908c6cb26dc80f924988ac34c21400"
    }
  ],
  "time": 1517431060,
  "mediantime": 1517430473,
  "nonce": 3610964764,
  "bits": "1a042eae",
  "difficulty": 4011378.762614286,
  "chainwork": "000000000000000000000000000000000000000000000034f05c015085ad7bee",
  "previousblockhash": "9faee937867f2fb943ed44bab84b88637a2de056971cd55d9cb62a1f430a0b62",
  "nextblockhash": "896470e6f21001a9e0d87633f655c559639b9a978ac573349e2b16ad0bb54794"
}
