{
  "hash": "acc553cc617fc6d6a70983b5c25af8c425f7a4f32d71f17c1269d8714b81bbf6",
  "confirmations": 1639,
  "strippedsize": 234,
  "size": 234,
  "weight": 936,
  "height": 1359355,
  "version": 536870912,
  "versionHex": "20000000",
  "merkleroot": "6fdbec2e121ab74e69ea4e46b47ada6232495359b2b8e917945ae88c1174f7e1",
  "tx": [
    {
      "txid": "6fdbec2e121ab74e69ea4e46b47ada6232495359b2b8e917945ae88c1174f7e1",
      "hash": "6fdbec2e121ab74e69ea4e46b47ada6232495359b2b8e917945ae88c1174f7e1",
      "version": 1,
      "size": 153,
      "vsize": 153,
      "locktime": 0,
      "vin": [
        {
          "coinbase": "03fbbd14045a6fb6382cfabe6d6dfbbee2771e483d1c9f71654342ecb684173a0f1e03265a4b76396700ef9223f54000000000000000042f4c502f08580042b90d000000",
          "sequence": 4294967295
        }
      ],
      "vout": [
        {
          "value": 25.00000000,
          "n": 0,
          "scriptPubKey": {
            "asm": "OP_DUP OP_HASH160 57757ed2ecf2052ff3126c397aca7defb9ca2cec OP_EQUALVERIFY OP_CHECKSIG",
            "hex": "76a91457757ed2ecf2052ff3126c397aca7defb9ca2cec88ac",
            "reqSigs": 1,
            "type": "pubkeyhash",
            "addresses": [
              "LTCPodGk5FwcJaRzH9yKnwicxzFUbxp6tN"
            ]
          }
        }
      ],
      "hex": "01000000010000000000000000000000000000000000000000000000000000000000000000ffffffff4403fbbd14045a6fb6382cfabe6d6dfbbee2771e483d1c9f71654342ecb684173a0f1e03265a4b76396700ef9223f54000000000000000042f4c502f08580042b90d000000ffffffff0100f90295000000001976a91457757ed2ecf2052ff3126c397aca7defb9ca2cec88ac00000000"
    }
  ],
  "time": 1517270584,
  "mediantime": 1517270174,
  "nonce": 1597961024,
  "bits": "1a042eae",
  "difficulty": 4011378.762614286,
  "chainwork": "000000000000000000000000000000000000000000000033ed69e1de7cf262f8",
  "previousblockhash": "43d4edea5e5e237bb5d5719cec1ed1d860d05251a2851af6bf8490c141b98a52",
  "nextblockhash": "4ba034de22c9b551f2698c6b9dc0fa94f0e1d6224b4661a706abe42734801c0d"
}
