{
  "hash": "acee390514e6738462cf59dbf15cc248d1de9421bdf718a59cb6805cca4d64d2",
  "confirmations": 1374,
  "strippedsize": 1327,
  "size": 1363,
  "weight": 5344,
  "height": 1359620,
  "version": 536870912,
  "versionHex": "20000000",
  "merkleroot": "40a5cd6b9c00037bc1af7c6ce87d359303d57f1cec93dd9b0bec4b76c9207487",
  "tx": [
    {
      "txid": "2e7efcafc5c31227b803239aa3aab96a2447de16921d22b35b7ebee297fcfad5",
      "hash": "b28a41d3f5ae8fae897e60f57e96adc9eea9c71f3115559c408829d69e19446b",
      "version": 2,
      "size": 234,
      "vsize": 207,
      "locktime": 0,
      "vin": [
        {
          "coinbase": "0304bf1404b149705a2ffabe6d6d9e538d54458f5a1e8cd63043412fbc9c8976be014258a8762deda29c5f9e30e101000000000000000103eb3e3602000000000000",
          "sequence": 4294967295
        }
      ],
      "vout": [
        {
          "value": 25.00157192,
          "n": 0,
          "scriptPubKey": {
            "asm": "OP_DUP OP_HASH160 3d29d474d0a98b5b2669d990d2917780837edf0c OP_EQUALVERIFY OP_CHECKSIG",
            "hex": "76a9143d29d474d0a98b5b2669d990d2917780837edf0c88ac",
            "reqSigs": 1,
            "type": "pubkeyhash",
            "addresses": [
              "LQoMbJnzRK2sDXazJuUNXPTx7FrKKPJgt6"
            ]
          }
        }, 
        {
          "value": 0.00000000,
          "n": 1,
          "scriptPubKey": {
            "asm": "OP_RETURN aa21a9ed433a239164a7155b70b4ff0aa3ec0af8685b4bbfd363616327e8b090320d25e4",
            "hex": "6a24aa21a9ed433a239164a7155b70b4ff0aa3ec0af8685b4bbfd363616327e8b090320d25e4",
            "type": "nulldata"
          }
        }
      ],
      "hex": "020000000001010000000000000000000000000000000000000000000000000000000000000000ffffffff420304bf1404b149705a2ffabe6d6d9e538d54458f5a1e8cd63043412fbc9c8976be014258a8762deda29c5f9e30e101000000000000000103eb3e3602000000000000ffffffff02085f0595000000001976a9143d29d474d0a98b5b2669d990d2917780837edf0c88ac0000000000000000266a24aa21a9ed433a239164a7155b70b4ff0aa3ec0af8685b4bbfd363616327e8b090320d25e40120000000000000000000000000000000000000000000000000000000000000000000000000"
    }, 
    {
      "txid": "abc637f3fca40f02f085abf6a75aae4af1ca0513c55a650738031d555c8e65a1",
      "hash": "abc637f3fca40f02f085abf6a75aae4af1ca0513c55a650738031d555c8e65a1",
      "version": 1,
      "size": 225,
      "vsize": 225,
      "locktime": 1359618,
      "vin": [
        {
          "txid": "57fd207c08f524c061e8d604c65e050f68e641f76ec7569b39d6a5ee3c0342bc",
          "vout": 16,
          "scriptSig": {
            "asm": "304402205ccc4501beff2d74d60b028cc38433a61e8c0b3666028a3b9e8fc2952bb4b814022053682d4194550664ff5be6497926f9438cc43e8fd1ecd0e4f09144cd6ceebf33[ALL] 036bb47f962e337b747d964cfbdd78abc3b26f496f49b8d0d2b6d5d28644bec36a",
            "hex": "47304402205ccc4501beff2d74d60b028cc38433a61e8c0b3666028a3b9e8fc2952bb4b814022053682d4194550664ff5be6497926f9438cc43e8fd1ecd0e4f09144cd6ceebf330121036bb47f962e337b747d964cfbdd78abc3b26f496f49b8d0d2b6d5d28644bec36a"
          },
          "sequence": 4294967294
        }
      ],
      "vout": [
        {
          "value": 0.01000482,
          "n": 0,
          "scriptPubKey": {
            "asm": "OP_DUP OP_HASH160 0216106418ff2d294ed4a25d4c7ea2f3d091c404 OP_EQUALVERIFY OP_CHECKSIG",
            "hex": "76a9140216106418ff2d294ed4a25d4c7ea2f3d091c40488ac",
            "reqSigs": 1,
            "type": "pubkeyhash",
            "addresses": [
              "LKQz3dcsuNhatFebF7cMsNu34aAu3Srodz"
            ]
          }
        }, 
        {
          "value": 0.16653912,
          "n": 1,
          "scriptPubKey": {
            "asm": "OP_DUP OP_HASH160 fd4a0de0507ca0d2977c7c684d8d1b2483a02fad OP_EQUALVERIFY OP_CHECKSIG",
            "hex": "76a914fd4a0de0507ca0d2977c7c684d8d1b2483a02fad88ac",
            "reqSigs": 1,
            "type": "pubkeyhash",
            "addresses": [
              "LiKDw8436ddEVvcPS28WGu2arptb3ynnnw"
            ]
          }
        }
      ],
      "hex": "0100000001bc42033ceea5d6399b56c76ef741e6680f055ec604d6e861c024f5087c20fd57100000006a47304402205ccc4501beff2d74d60b028cc38433a61e8c0b3666028a3b9e8fc2952bb4b814022053682d4194550664ff5be6497926f9438cc43e8fd1ecd0e4f09144cd6ceebf330121036bb47f962e337b747d964cfbdd78abc3b26f496f49b8d0d2b6d5d28644bec36afeffffff0222440f00000000001976a9140216106418ff2d294ed4a25d4c7ea2f3d091c40488ac581efe00000000001976a914fd4a0de0507ca0d2977c7c684d8d1b2483a02fad88ac02bf1400"
    }, 
    {
      "txid": "9f670f4e1f6e9038928abee76e70c99e8a687c14951ea19d5a5784f7bda2b361",
      "hash": "9f670f4e1f6e9038928abee76e70c99e8a687c14951ea19d5a5784f7bda2b361",
      "version": 2,
      "size": 373,
      "vsize": 373,
      "locktime": 0,
      "vin": [
        {
          "txid": "07fd3b1851b607458545d042974caa106af07f5e9e747830bcdfe0e419e780db",
          "vout": 0,
          "scriptSig": {
            "asm": "30440220689efacb4a97a70ceed35e51fe964d9ea4424e3dd0685692211d33d6b3270922022071bdbfcf270dd3b062f88be0d13de560aa254c1de5650df045cbbd9b3699bd93[ALL] 03bf9fa9362d0cf78db920d897f709e531886ae089cb7b615882f4399d3af1f519",
            "hex": "4730440220689efacb4a97a70ceed35e51fe964d9ea4424e3dd0685692211d33d6b3270922022071bdbfcf270dd3b062f88be0d13de560aa254c1de5650df045cbbd9b3699bd93012103bf9fa9362d0cf78db920d897f709e531886ae089cb7b615882f4399d3af1f519"
          },
          "sequence": 4294967295
        }, 
        {
          "txid": "e7b951f3ce2cf9d976f55136ff165e7cdfc386b6f97c0882333f4283d7ab6169",
          "vout": 1,
          "scriptSig": {
            "asm": "304502210094066d83d1454c3c6106639dc4b59f1e2487c892d0bb12ef2658ef837b2e013502203cf97cd0ea21c6d454232ee835dbc16a74b438876ffe4a5a810472eb8c6eb9e6[ALL] 0381e41271b1bd0c72cb318e8c897cb7f9ec31b8aa7bef8bae142c6cb921f4b07e",
            "hex": "48304502210094066d83d1454c3c6106639dc4b59f1e2487c892d0bb12ef2658ef837b2e013502203cf97cd0ea21c6d454232ee835dbc16a74b438876ffe4a5a810472eb8c6eb9e601210381e41271b1bd0c72cb318e8c897cb7f9ec31b8aa7bef8bae142c6cb921f4b07e"
          },
          "sequence": 4294967295
        }
      ],
      "vout": [
        {
          "value": 0.02000000,
          "n": 0,
          "scriptPubKey": {
            "asm": "OP_DUP OP_HASH160 070827f76f2b283267a112eb9fcec2bd7a3d8362 OP_EQUALVERIFY OP_CHECKSIG",
            "hex": "76a914070827f76f2b283267a112eb9fcec2bd7a3d836288ac",
            "reqSigs": 1,
            "type": "pubkeyhash",
            "addresses": [
              "LKs8mFd7HJnh11c6MCNc3siCYR2SnHkxRv"
            ]
          }
        }, 
        {
          "value": 0.01933008,
          "n": 1,
          "scriptPubKey": {
            "asm": "OP_DUP OP_HASH160 a9e82a8dfd6461c546a2c3ec35588169792dd54d OP_EQUALVERIFY OP_CHECKSIG",
            "hex": "76a914a9e82a8dfd6461c546a2c3ec35588169792dd54d88ac",
            "reqSigs": 1,
            "type": "pubkeyhash",
            "addresses": [
              "LaiLapniKnhLu6HiaCGgLgWKLrJu63TrLg"
            ]
          }
        }
      ],
      "hex": "0200000002db80e719e4e0dfbc3078749e5e7ff06a10aa4c9742d045854507b651183bfd07000000006a4730440220689efacb4a97a70ceed35e51fe964d9ea4424e3dd0685692211d33d6b3270922022071bdbfcf270dd3b062f88be0d13de560aa254c1de5650df045cbbd9b3699bd93012103bf9fa9362d0cf78db920d897f709e531886ae089cb7b615882f4399d3af1f519ffffffff6961abd783423f3382087cf9b686c3df7c5e16ff3651f576d9f92ccef351b9e7010000006b48304502210094066d83d1454c3c6106639dc4b59f1e2487c892d0bb12ef2658ef837b2e013502203cf97cd0ea21c6d454232ee835dbc16a74b438876ffe4a5a810472eb8c6eb9e601210381e41271b1bd0c72cb318e8c897cb7f9ec31b8aa7bef8bae142c6cb921f4b07effffffff0280841e00000000001976a914070827f76f2b283267a112eb9fcec2bd7a3d836288acd07e1d00000000001976a914a9e82a8dfd6461c546a2c3ec35588169792dd54d88ac00000000"
    }, 
    {
      "txid": "704568abe2cf0e56b7c78c8f6babfbbb6df78c0f754dfcf7fc52dd9b1013c701",
      "hash": "704568abe2cf0e56b7c78c8f6babfbbb6df78c0f754dfcf7fc52dd9b1013c701",
      "version": 1,
      "size": 225,
      "vsize": 225,
      "locktime": 0,
      "vin": [
        {
          "txid": "51a03aa0763d737cf5ee35bd623612d29e2c855940bc32927954d5c7085c9a4a",
          "vout": 1,
          "scriptSig": {
            "asm": "3044022005cd6e144b63713aaceabc24e20a1a982b9d3e47781ddd47a2d398f16ea6075e0220450650855198f344d1bbddb89538bee2398bb19a2c4e3cc75a69b5aada601937[ALL] 032e7eb20ee9443068471ae9585f26a752df25d47485e89bbc03927afaf13a51ca",
            "hex": "473044022005cd6e144b63713aaceabc24e20a1a982b9d3e47781ddd47a2d398f16ea6075e0220450650855198f344d1bbddb89538bee2398bb19a2c4e3cc75a69b5aada6019370121032e7eb20ee9443068471ae9585f26a752df25d47485e89bbc03927afaf13a51ca"
          },
          "sequence": 4294967295
        }
      ],
      "vout": [
        {
          "value": 0.15309930,
          "n": 0,
          "scriptPubKey": {
            "asm": "OP_DUP OP_HASH160 67adaccc325ca3d04158cc7fedae4213e1a1a2ba OP_EQUALVERIFY OP_CHECKSIG",
            "hex": "76a91467adaccc325ca3d04158cc7fedae4213e1a1a2ba88ac",
            "reqSigs": 1,
            "type": "pubkeyhash",
            "addresses": [
              "LUg9v7zqbmxvQxMFavUy9aSzjLLAJd8sEG"
            ]
          }
        }, 
        {
          "value": 0.00101009,
          "n": 1,
          "scriptPubKey": {
            "asm": "OP_DUP OP_HASH160 81223e69485a20bf384691603a011d519aff8641 OP_EQUALVERIFY OP_CHECKSIG",
            "hex": "76a91481223e69485a20bf384691603a011d519aff864188ac",
            "reqSigs": 1,
            "type": "pubkeyhash",
            "addresses": [
              "LWzkTG1jXfX3qrn3dGRTdVsvWcoxNHwvfi"
            ]
          }
        }
      ],
      "hex": "01000000014a9a5c08c7d554799232bc4059852c9ed2123662bd35eef57c733d76a03aa051010000006a473044022005cd6e144b63713aaceabc24e20a1a982b9d3e47781ddd47a2d398f16ea6075e0220450650855198f344d1bbddb89538bee2398bb19a2c4e3cc75a69b5aada6019370121032e7eb20ee9443068471ae9585f26a752df25d47485e89bbc03927afaf13a51caffffffff026a9ce900000000001976a91467adaccc325ca3d04158cc7fedae4213e1a1a2ba88ac918a0100000000001976a91481223e69485a20bf384691603a011d519aff864188ac00000000"
    }, 
    {
      "txid": "64b431c107396a71373da6d3468d409335d79659776fcd179ac9819261d1eb90",
      "hash": "64b431c107396a71373da6d3468d409335d79659776fcd179ac9819261d1eb90",
      "version": 2,
      "size": 225,
      "vsize": 225,
      "locktime": 1359618,
      "vin": [
        {
          "txid": "6471d3849cd406a170c5615526838591b4d98d42c189a9ac5d405002e91687ec",
          "vout": 0,
          "scriptSig": {
            "asm": "3044022058e686d6fdc97aa734c529be2c789005fe0969069d4b2a7100850fd0d1ba17f8022068b0b7faaad913118b10dd900ffe0ef1ed0f62a25789aee69a431df5824cb71b[ALL] 02af8dd4f09150175462c56b23bded84a4efcb1293d872c0eb539cf097b3daf517",
            "hex": "473044022058e686d6fdc97aa734c529be2c789005fe0969069d4b2a7100850fd0d1ba17f8022068b0b7faaad913118b10dd900ffe0ef1ed0f62a25789aee69a431df5824cb71b012102af8dd4f09150175462c56b23bded84a4efcb1293d872c0eb539cf097b3daf517"
          },
          "sequence": 4294967294
        }
      ],
      "vout": [
        {
          "value": 1.50000000,
          "n": 0,
          "scriptPubKey": {
            "asm": "OP_DUP OP_HASH160 a6ece8176d078fe79778544aee5458b9c04e643a OP_EQUALVERIFY OP_CHECKSIG",
            "hex": "76a914a6ece8176d078fe79778544aee5458b9c04e643a88ac",
            "reqSigs": 1,
            "type": "pubkeyhash",
            "addresses": [
              "LaSaEciEQ9YXbAwcqRaghqakgESJeiGjmu"
            ]
          }
        }, 
        {
          "value": 1.99709600,
          "n": 1,
          "scriptPubKey": {
            "asm": "OP_DUP OP_HASH160 20f7961475e7b316b3cf2ba599096311c42b8d4e OP_EQUALVERIFY OP_CHECKSIG",
            "hex": "76a91420f7961475e7b316b3cf2ba599096311c42b8d4e88ac",
            "reqSigs": 1,
            "type": "pubkeyhash",
            "addresses": [
              "LNEGUwov9CzQ8eHyKH29KZLbMZcSTkszBX"
            ]
          }
        }
      ],
      "hex": "0200000001ec8716e90250405daca989c1428dd9b4918583265561c570a106d49c84d37164000000006a473044022058e686d6fdc97aa734c529be2c789005fe0969069d4b2a7100850fd0d1ba17f8022068b0b7faaad913118b10dd900ffe0ef1ed0f62a25789aee69a431df5824cb71b012102af8dd4f09150175462c56b23bded84a4efcb1293d872c0eb539cf097b3daf517feffffff0280d1f008000000001976a914a6ece8176d078fe79778544aee5458b9c04e643a88aca053e70b000000001976a91420f7961475e7b316b3cf2ba599096311c42b8d4e88ac02bf1400"
    }
  ],
  "time": 1517308337,
  "mediantime": 1517307946,
  "nonce": 3493319,
  "bits": "1a042eae",
  "difficulty": 4011378.762614286,
  "chainwork": "0000000000000000000000000000000000000000000000342cc6750727dbda8a",
  "previousblockhash": "24e256919b155cfe7ec05396d48d4d29f1dbb0749ee4ade0ca21e6a107f77f75",
  "nextblockhash": "8bd2b05a680ab9caef6047c6548249a401b799569f2ddaf4c24be7ab39ad9346"
}
