{
  "hash": "ad120edceee0fd41a66516ddb018b1ec61c4172c8908b045580c8ea6f5e1ae3c",
  "confirmations": 3517,
  "strippedsize": 705,
  "size": 741,
  "weight": 2856,
  "height": 1357478,
  "version": 536870912,
  "versionHex": "20000000",
  "merkleroot": "ede27e38bceea988b03f15858ce7ab9756842d4568a253b78f9e70866d262a9b",
  "tx": [
    {
      "txid": "007fa9b8f3c610ee205c6085fc30c89ed41b6540ca00f1d6ccffc5fb5c59361e",
      "hash": "0c19208c3fd59b5d8b8347f62e1111fc2c5ac910dcd91352100f5f448caa8789",
      "version": 1,
      "size": 277,
      "vsize": 250,
      "locktime": 956522754,
      "vin": [
        {
          "coinbase": "03a6b6142cfabe6d6d574acad2c0fbe7ea93304595c10ff5c5f9e2a602dbac85e97b622fee73ea714208000000f09f909f0f4d696e65642062792077657272616e0000000000000000000000000000000000000000000000000000000000000000000000",
          "sequence": 16
        }
      ],
      "vout": [
        {
          "value": 25.00314700,
          "n": 0,
          "scriptPubKey": {
            "asm": "OP_DUP OP_HASH160 aa3750aa18b8a0f3f0590731e1fab934856680cf OP_EQUALVERIFY OP_CHECKSIG",
            "hex": "76a914aa3750aa18b8a0f3f0590731e1fab934856680cf88ac",
            "reqSigs": 1,
            "type": "pubkeyhash",
            "addresses": [
              "LajyQBeZaBA1NkZDeY8YT5RYYVRkXMvb2T"
            ]
          }
        }, 
        {
          "value": 0.00000000,
          "n": 1,
          "scriptPubKey": {
            "asm": "OP_RETURN aa21a9ed0e28470f74045325142125968090d07bf98986a98c451a37f0f0d6a1fc94f9a7 0000000000000000",
            "hex": "6a24aa21a9ed0e28470f74045325142125968090d07bf98986a98c451a37f0f0d6a1fc94f9a7080000000000000000",
            "type": "nulldata"
          }
        }
      ],
      "hex": "010000000001010000000000000000000000000000000000000000000000000000000000000000ffffffff6403a6b6142cfabe6d6d574acad2c0fbe7ea93304595c10ff5c5f9e2a602dbac85e97b622fee73ea714208000000f09f909f0f4d696e65642062792077657272616e000000000000000000000000000000000000000000000000000000000000000000000010000000024cc60795000000001976a914aa3750aa18b8a0f3f0590731e1fab934856680cf88ac00000000000000002f6a24aa21a9ed0e28470f74045325142125968090d07bf98986a98c451a37f0f0d6a1fc94f9a70800000000000000000120000000000000000000000000000000000000000000000000000000000000000002610339"
    }, 
    {
      "txid": "5179ba7a107343f0c901f6102594b62ec9d0c8a23c832617bb4f671546a1309e",
      "hash": "5179ba7a107343f0c901f6102594b62ec9d0c8a23c832617bb4f671546a1309e",
      "version": 1,
      "size": 192,
      "vsize": 192,
      "locktime": 0,
      "vin": [
        {
          "txid": "29cfde6e2ca62523f52fe4281684e22de480a09ef00ee0e8074cb14da2b29114",
          "vout": 1,
          "scriptSig": {
            "asm": "3045022100b27845b3578a42f7bc01af28bdc41dda818f3d11e95f87cfc7f269c717c90c8702202d21f08f5c9ba7de7b2f3aecec3badf5afaf4b9fe79c93e7c42e883d32c13fd3[ALL] 025a8e4806de7ecb5ca4ccf53fba7baa1b5c2bd9e63c9ccda535dc7232c7278a50",
            "hex": "483045022100b27845b3578a42f7bc01af28bdc41dda818f3d11e95f87cfc7f269c717c90c8702202d21f08f5c9ba7de7b2f3aecec3badf5afaf4b9fe79c93e7c42e883d32c13fd30121025a8e4806de7ecb5ca4ccf53fba7baa1b5c2bd9e63c9ccda535dc7232c7278a50"
          },
          "sequence": 4294967295
        }
      ],
      "vout": [
        {
          "value": 0.11279523,
          "n": 0,
          "scriptPubKey": {
            "asm": "OP_DUP OP_HASH160 66c7d6edf1ae0395a0a82522d98d12727530cd29 OP_EQUALVERIFY OP_CHECKSIG",
            "hex": "76a91466c7d6edf1ae0395a0a82522d98d12727530cd2988ac",
            "reqSigs": 1,
            "type": "pubkeyhash",
            "addresses": [
              "LUbQasnFxihtDb6rfHZ7onav27LP5rLabw"
            ]
          }
        }
      ],
      "hex": "01000000011491b2a24db14c07e8e00ef09ea080e42de2841628e42ff52325a62c6edecf29010000006b483045022100b27845b3578a42f7bc01af28bdc41dda818f3d11e95f87cfc7f269c717c90c8702202d21f08f5c9ba7de7b2f3aecec3badf5afaf4b9fe79c93e7c42e883d32c13fd30121025a8e4806de7ecb5ca4ccf53fba7baa1b5c2bd9e63c9ccda535dc7232c7278a50ffffffff01a31cac00000000001976a91466c7d6edf1ae0395a0a82522d98d12727530cd2988ac00000000"
    }, 
    {
      "txid": "7bf0d9a5a41d5963209c6c14bbd0cea90be27128a62f007cc67d9fafc2a8501e",
      "hash": "7bf0d9a5a41d5963209c6c14bbd0cea90be27128a62f007cc67d9fafc2a8501e",
      "version": 1,
      "size": 191,
      "vsize": 191,
      "locktime": 0,
      "vin": [
        {
          "txid": "7416dd140da01c53b6c49390b52340cde8ae98e6c03f525d656833fbe66ac87d",
          "vout": 0,
          "scriptSig": {
            "asm": "304402207e4ceab7c0953f53a0db11238371491aa2989055c892f6dd21da0511a14b7867022045a20bb334f5128c3aeb48d0ab1c5f027575427f1afde72f857b3c7286c59ecf[ALL] 03112564f80b01a734481e4b006862a0eddd4891898a168f914889bd00d2e52f59",
            "hex": "47304402207e4ceab7c0953f53a0db11238371491aa2989055c892f6dd21da0511a14b7867022045a20bb334f5128c3aeb48d0ab1c5f027575427f1afde72f857b3c7286c59ecf012103112564f80b01a734481e4b006862a0eddd4891898a168f914889bd00d2e52f59"
          },
          "sequence": 4294967295
        }
      ],
      "vout": [
        {
          "value": 0.12748000,
          "n": 0,
          "scriptPubKey": {
            "asm": "OP_DUP OP_HASH160 aa1caef1290fba7f3b826c380668c0c0eb73a1fa OP_EQUALVERIFY OP_CHECKSIG",
            "hex": "76a914aa1caef1290fba7f3b826c380668c0c0eb73a1fa88ac",
            "reqSigs": 1,
            "type": "pubkeyhash",
            "addresses": [
              "LajRVnASRe5K9k6J4oGgVcFkaW7NLU1Ay8"
            ]
          }
        }
      ],
      "hex": "01000000017dc86ae6fb3368655d523fc0e698aee8cd4023b59093c4b6531ca00d14dd1674000000006a47304402207e4ceab7c0953f53a0db11238371491aa2989055c892f6dd21da0511a14b7867022045a20bb334f5128c3aeb48d0ab1c5f027575427f1afde72f857b3c7286c59ecf012103112564f80b01a734481e4b006862a0eddd4891898a168f914889bd00d2e52f59ffffffff01e084c200000000001976a914aa1caef1290fba7f3b826c380668c0c0eb73a1fa88ac00000000"
    }
  ],
  "time": 1517008045,
  "mediantime": 1517006916,
  "nonce": 1195291457,
  "bits": "1a047f14",
  "difficulty": 3731199.183374282,
  "chainwork": "000000000000000000000000000000000000000000000032426a779c8ddfc3f6",
  "previousblockhash": "1ce821309c7f8fe383611a1df595e49db5b89f82c8790f355c26bedfdb0c3cb5",
  "nextblockhash": "ec90e1b1ade1f1d782242b643facef98c1dab2069b110e798625aa9c46562e45"
}
