{
  "hash": "ad16e7c666dddb46f4c188d7966f2b8b0d14f355ce2c8fbfee4648bced483305",
  "confirmations": 2685,
  "strippedsize": 253,
  "size": 253,
  "weight": 1012,
  "height": 1358310,
  "version": 536870912,
  "versionHex": "20000000",
  "merkleroot": "ea087042e37efdac9eca1d46b4ef1f1ffe388e71a8a1e45d4f95603155dd0af2",
  "tx": [
    {
      "txid": "ea087042e37efdac9eca1d46b4ef1f1ffe388e71a8a1e45d4f95603155dd0af2",
      "hash": "ea087042e37efdac9eca1d46b4ef1f1ffe388e71a8a1e45d4f95603155dd0af2",
      "version": 1,
      "size": 172,
      "vsize": 172,
      "locktime": 0,
      "vin": [
        {
          "coinbase": "03e6b9141a4d696e656420627920416e74506f6f6c20626a3532205a6d7a4efabe6d6de565e2ecb347bac96537d30cb6a81b0b7a624f406033ca2bef965fc1b038c91b04000000000000003f2c0000000000001c000000",
          "sequence": 4294967295
        }
      ],
      "vout": [
        {
          "value": 25.00000000,
          "n": 0,
          "scriptPubKey": {
            "asm": "OP_DUP OP_HASH160 0ff3ccc5e8be88afe24b5d634e5852d474dbdff1 OP_EQUALVERIFY OP_CHECKSIG",
            "hex": "76a9140ff3ccc5e8be88afe24b5d634e5852d474dbdff188ac",
            "reqSigs": 1,
            "type": "pubkeyhash",
            "addresses": [
              "LLgJTbzZMsRTCUF1NtvvL9SR1a4pVieW89"
            ]
          }
        }
      ],
      "hex": "01000000010000000000000000000000000000000000000000000000000000000000000000ffffffff5703e6b9141a4d696e656420627920416e74506f6f6c20626a3532205a6d7a4efabe6d6de565e2ecb347bac96537d30cb6a81b0b7a624f406033ca2bef965fc1b038c91b04000000000000003f2c0000000000001c000000ffffffff0100f90295000000001976a9140ff3ccc5e8be88afe24b5d634e5852d474dbdff188ac00000000"
    }
  ],
  "time": 1517124174,
  "mediantime": 1517123326,
  "nonce": 1803621432,
  "bits": "1a047f14",
  "difficulty": 3731199.183374282,
  "chainwork": "000000000000000000000000000000000000000000000032fb73edfe95831876",
  "previousblockhash": "0e17525bbb521345908aefe86a786264201b503a262b846bafb8e8a95c3da107",
  "nextblockhash": "8cc5ffdc04609586025a4e85aa27f8f3ea2ed376eb32460d2c6fdacfe5b67bce"
}
