{
  "hash": "ad43ca867acd40d3cf8b9b0e99732c51b29489c218b4ff7ec7caa9db7884ab7b",
  "confirmations": 3502,
  "strippedsize": 253,
  "size": 253,
  "weight": 1012,
  "height": 1357493,
  "version": 536870912,
  "versionHex": "20000000",
  "merkleroot": "4e93c9144df07f375396c4487ede252167937fac09da85432778e5932b175de5",
  "tx": [
    {
      "txid": "4e93c9144df07f375396c4487ede252167937fac09da85432778e5932b175de5",
      "hash": "4e93c9144df07f375396c4487ede252167937fac09da85432778e5932b175de5",
      "version": 1,
      "size": 172,
      "vsize": 172,
      "locktime": 0,
      "vin": [
        {
          "coinbase": "03b5b6141a4d696e656420627920416e74506f6f6c20626a341e205a6bb8edfabe6d6d27b285946f50bb935189be1999b2ceebfdbb33e7bcadab30824090dd658a3d880400000000000000a72f0000000000000e000000",
          "sequence": 4294967295
        }
      ],
      "vout": [
        {
          "value": 25.00000000,
          "n": 0,
          "scriptPubKey": {
            "asm": "OP_DUP OP_HASH160 0ff3ccc5e8be88afe24b5d634e5852d474dbdff1 OP_EQUALVERIFY OP_CHECKSIG",
            "hex": "76a9140ff3ccc5e8be88afe24b5d634e5852d474dbdff188ac",
            "reqSigs": 1,
            "type": "pubkeyhash",
            "addresses": [
              "LLgJTbzZMsRTCUF1NtvvL9SR1a4pVieW89"
            ]
          }
        }
      ],
      "hex": "01000000010000000000000000000000000000000000000000000000000000000000000000ffffffff5703b5b6141a4d696e656420627920416e74506f6f6c20626a341e205a6bb8edfabe6d6d27b285946f50bb935189be1999b2ceebfdbb33e7bcadab30824090dd658a3d880400000000000000a72f0000000000000e000000ffffffff0100f90295000000001976a9140ff3ccc5e8be88afe24b5d634e5852d474dbdff188ac00000000"
    }
  ],
  "time": 1517009133,
  "mediantime": 1517008729,
  "nonce": 1448797884,
  "bits": "1a047f14",
  "difficulty": 3731199.183374282,
  "chainwork": "00000000000000000000000000000000000000000000003245c07be65251c97c",
  "previousblockhash": "5e1b36f643fd19024957c3fa8d93cc5fe01ae83c659ad9451b541ae2fa6fe378",
  "nextblockhash": "307c2d05233065b37c373a3f710b27167355109a65fa5cd0334f81033d00bc1e"
}
