{
  "hash": "ae57083274a0db8b50fcc761361fa9611ada57e850ea6e491212a40985d9790a",
  "confirmations": 3070,
  "strippedsize": 255,
  "size": 255,
  "weight": 1020,
  "height": 1357925,
  "version": 536870912,
  "versionHex": "20000000",
  "merkleroot": "94a6ee513b70846b43f6378623245e61d8ec4c8f16646dbe3cda3dc7e7dbae8e",
  "tx": [
    {
      "txid": "94a6ee513b70846b43f6378623245e61d8ec4c8f16646dbe3cda3dc7e7dbae8e",
      "hash": "94a6ee513b70846b43f6378623245e61d8ec4c8f16646dbe3cda3dc7e7dbae8e",
      "version": 1,
      "size": 174,
      "vsize": 174,
      "locktime": 0,
      "vin": [
        {
          "coinbase": "0365b8141c4d696e656420627920416e74506f6f6c20626a3532205a6c95ee0b10fabe6d6dae0a4fdc37f4f17f0f881a6a23b9c9ccd6992aceda6f2006dfa0e884a17bdf040400000000000000c41f00000000000003000000",
          "sequence": 4294967295
        }
      ],
      "vout": [
        {
          "value": 25.00000000,
          "n": 0,
          "scriptPubKey": {
            "asm": "OP_DUP OP_HASH160 0ff3ccc5e8be88afe24b5d634e5852d474dbdff1 OP_EQUALVERIFY OP_CHECKSIG",
            "hex": "76a9140ff3ccc5e8be88afe24b5d634e5852d474dbdff188ac",
            "reqSigs": 1,
            "type": "pubkeyhash",
            "addresses": [
              "LLgJTbzZMsRTCUF1NtvvL9SR1a4pVieW89"
            ]
          }
        }
      ],
      "hex": "01000000010000000000000000000000000000000000000000000000000000000000000000ffffffff590365b8141c4d696e656420627920416e74506f6f6c20626a3532205a6c95ee0b10fabe6d6dae0a4fdc37f4f17f0f881a6a23b9c9ccd6992aceda6f2006dfa0e884a17bdf040400000000000000c41f00000000000003000000ffffffff0100f90295000000001976a9140ff3ccc5e8be88afe24b5d634e5852d474dbdff188ac00000000"
    }
  ],
  "time": 1517065710,
  "mediantime": 1517065365,
  "nonce": 3327320753,
  "bits": "1a047f14",
  "difficulty": 3731199.183374282,
  "chainwork": "000000000000000000000000000000000000000000000032a5d42a9938bf355c",
  "previousblockhash": "e8698e81b9f4e531f1a7a6b59692af81a574e9f8c6521d07a49205f12708feea",
  "nextblockhash": "c8b37e00be310a940dd13fd2827786430075154866a42bd0e2a7677ff6d76766"
}
