{
  "hash": "ae62048b8493fbb28583cca6b21322dc51d689b662d77aa039529f43e6f648ff",
  "confirmations": 362,
  "strippedsize": 3342,
  "size": 3378,
  "weight": 13404,
  "height": 1360632,
  "version": 536870912,
  "versionHex": "20000000",
  "merkleroot": "bac7f6a343202b04db9e1d09b15e1f0dc17130e3b03b0d8d5c1ff9471b798e65",
  "tx": [
    {
      "txid": "733b089efb5205f3728bbd6194d2a38fcbc5102819ded81c58601d6369bbc4e9",
      "hash": "c87ae1e0250c798081eebb607a65bbba1603702408e21c6062d62c41e5f091e0",
      "version": 1,
      "size": 236,
      "vsize": 209,
      "locktime": 0,
      "vin": [
        {
          "coinbase": "03f8c214045a72999f2cfabe6d6dc377ebd983fe56fdc349b1de43feea759be2ac8c9c84bae7da7163b4e14f2d614000000000000000042f4c502f085c006e63ff1d0000",
          "sequence": 4294967295
        }
      ],
      "vout": [
        {
          "value": 25.00644597,
          "n": 0,
          "scriptPubKey": {
            "asm": "OP_DUP OP_HASH160 57757ed2ecf2052ff3126c397aca7defb9ca2cec OP_EQUALVERIFY OP_CHECKSIG",
            "hex": "76a91457757ed2ecf2052ff3126c397aca7defb9ca2cec88ac",
            "reqSigs": 1,
            "type": "pubkeyhash",
            "addresses": [
              "LTCPodGk5FwcJaRzH9yKnwicxzFUbxp6tN"
            ]
          }
        }, 
        {
          "value": 0.00000000,
          "n": 1,
          "scriptPubKey": {
            "asm": "OP_RETURN aa21a9eda8a60a7771087367aa712dbff4adbaeb6c2ca8d5c249afdc5aec32f4e4d24b66",
            "hex": "6a24aa21a9eda8a60a7771087367aa712dbff4adbaeb6c2ca8d5c249afdc5aec32f4e4d24b66",
            "type": "nulldata"
          }
        }
      ],
      "hex": "010000000001010000000000000000000000000000000000000000000000000000000000000000ffffffff4403f8c214045a72999f2cfabe6d6dc377ebd983fe56fdc349b1de43feea759be2ac8c9c84bae7da7163b4e14f2d614000000000000000042f4c502f085c006e63ff1d0000ffffffff02f5ce0c95000000001976a91457757ed2ecf2052ff3126c397aca7defb9ca2cec88ac0000000000000000266a24aa21a9eda8a60a7771087367aa712dbff4adbaeb6c2ca8d5c249afdc5aec32f4e4d24b660120000000000000000000000000000000000000000000000000000000000000000000000000"
    }, 
    {
      "txid": "162cffba87ba5c33fdb62457286bf997b1647a00207da46a6d74c371f64791fa",
      "hash": "162cffba87ba5c33fdb62457286bf997b1647a00207da46a6d74c371f64791fa",
      "version": 1,
      "size": 374,
      "vsize": 374,
      "locktime": 0,
      "vin": [
        {
          "txid": "084ccc783f1e4bb8beac88462e907e837ba558f26a65d136396fb109ca6e577d",
          "vout": 1,
          "scriptSig": {
            "asm": "3045022100bc2d45fa3fcda6ddef11d3e3345b0b3eab967203d75b0f6cc1b785e2e159c2c10220781ef3f2790516ed588c1faba64e6bd2862c1571bde1690b8559b7c4c255587d[ALL] 0323a092f55f3fc138897d0e1cd7cf256bc87badf739ddae7a2424b9bcb687e3ca",
            "hex": "483045022100bc2d45fa3fcda6ddef11d3e3345b0b3eab967203d75b0f6cc1b785e2e159c2c10220781ef3f2790516ed588c1faba64e6bd2862c1571bde1690b8559b7c4c255587d01210323a092f55f3fc138897d0e1cd7cf256bc87badf739ddae7a2424b9bcb687e3ca"
          },
          "sequence": 4294967295
        }, 
        {
          "txid": "20b27e40474be169534814f5e022fe29a93954d2dcdb0d5c4dbc0cf781e69883",
          "vout": 1,
          "scriptSig": {
            "asm": "3045022100f64284ed6efc8486c8323477ef3cef694fe7c98417ccb5fc4390e1dcaabd235e02203eacdcc96f06dff9cb9ea7d7a57985ceec689f36c74796c7b125cf449c6f0b92[ALL] 0205726a3290ae3418f2b2ad3c744926c804620e2de891a515798fc51f354317a8",
            "hex": "483045022100f64284ed6efc8486c8323477ef3cef694fe7c98417ccb5fc4390e1dcaabd235e02203eacdcc96f06dff9cb9ea7d7a57985ceec689f36c74796c7b125cf449c6f0b9201210205726a3290ae3418f2b2ad3c744926c804620e2de891a515798fc51f354317a8"
          },
          "sequence": 4294967295
        }
      ],
      "vout": [
        {
          "value": 0.75328943,
          "n": 0,
          "scriptPubKey": {
            "asm": "OP_DUP OP_HASH160 8225eef9fea3536e4f81676d0b07cde71f2f19a4 OP_EQUALVERIFY OP_CHECKSIG",
            "hex": "76a9148225eef9fea3536e4f81676d0b07cde71f2f19a488ac",
            "reqSigs": 1,
            "type": "pubkeyhash",
            "addresses": [
              "LX67YpLJrjL3co4mazoCFwQkXpUtkMnUnS"
            ]
          }
        }, 
        {
          "value": 0.01000687,
          "n": 1,
          "scriptPubKey": {
            "asm": "OP_DUP OP_HASH160 76a0a71bb22ea81905c7d4667e7360f07cd6248b OP_EQUALVERIFY OP_CHECKSIG",
            "hex": "76a91476a0a71bb22ea81905c7d4667e7360f07cd6248b88ac",
            "reqSigs": 1,
            "type": "pubkeyhash",
            "addresses": [
              "LW3CTCVM7Xk5jn9PdtiGDnbAXvs6sdam9M"
            ]
          }
        }
      ],
      "hex": "01000000027d576eca09b16f3936d1656af258a57b837e902e4688acbeb84b1e3f78cc4c08010000006b483045022100bc2d45fa3fcda6ddef11d3e3345b0b3eab967203d75b0f6cc1b785e2e159c2c10220781ef3f2790516ed588c1faba64e6bd2862c1571bde1690b8559b7c4c255587d01210323a092f55f3fc138897d0e1cd7cf256bc87badf739ddae7a2424b9bcb687e3caffffffff8398e681f70cbc4d5c0ddbdcd25439a929fe22e0f514485369e14b47407eb220010000006b483045022100f64284ed6efc8486c8323477ef3cef694fe7c98417ccb5fc4390e1dcaabd235e02203eacdcc96f06dff9cb9ea7d7a57985ceec689f36c74796c7b125cf449c6f0b9201210205726a3290ae3418f2b2ad3c744926c804620e2de891a515798fc51f354317a8ffffffff02af6d7d04000000001976a9148225eef9fea3536e4f81676d0b07cde71f2f19a488acef440f00000000001976a91476a0a71bb22ea81905c7d4667e7360f07cd6248b88ac00000000"
    }, 
    {
      "txid": "9cb8f77f44d3eb15d4776d8f84e6c5379db59d18add035c2ff318ba228a07b1c",
      "hash": "9cb8f77f44d3eb15d4776d8f84e6c5379db59d18add035c2ff318ba228a07b1c",
      "version": 1,
      "size": 336,
      "vsize": 336,
      "locktime": 0,
      "vin": [
        {
          "txid": "2db44cbe1bf75a372169da821739be6c05ff21d5ccd8077cf15ab1d8be83941a",
          "vout": 0,
          "scriptSig": {
            "asm": "0 30450221008e9e3b302438c56e263c35c1d9b9ff4f4bd48af5a237cb1117adb92b955946aa0220607ecfc4684b4fc26dcc2b7a9b30b3cff0bc6e0e61417766f11e9aa01330b905[ALL] 3045022100ffa2f67fbb0b3d2c55a3b1b3ab6fc18cbe1460c2d7de3d5d656f8b043a3da57502201e10a79fdbd67b2143cb1ea03870928a7d9a054b30988e23ee850527766a8946[ALL] 522103cdb7a9174cd7bec93cfca86fac6cf43b9bc84bb5104d3ec2a4a95d06de14855d21026556df61e39c2258268d82ad4b8433c239ba58e3c96708195f45cd738aee1e3452ae",
            "hex": "004830450221008e9e3b302438c56e263c35c1d9b9ff4f4bd48af5a237cb1117adb92b955946aa0220607ecfc4684b4fc26dcc2b7a9b30b3cff0bc6e0e61417766f11e9aa01330b90501483045022100ffa2f67fbb0b3d2c55a3b1b3ab6fc18cbe1460c2d7de3d5d656f8b043a3da57502201e10a79fdbd67b2143cb1ea03870928a7d9a054b30988e23ee850527766a89460147522103cdb7a9174cd7bec93cfca86fac6cf43b9bc84bb5104d3ec2a4a95d06de14855d21026556df61e39c2258268d82ad4b8433c239ba58e3c96708195f45cd738aee1e3452ae"
          },
          "sequence": 4294967295
        }
      ],
      "vout": [
        {
          "value": 0.08296900,
          "n": 0,
          "scriptPubKey": {
            "asm": "OP_DUP OP_HASH160 9a4ce862420b69dd8fbdb8fea73c7ffa9553f8ed OP_EQUALVERIFY OP_CHECKSIG",
            "hex": "76a9149a4ce862420b69dd8fbdb8fea73c7ffa9553f8ed88ac",
            "reqSigs": 1,
            "type": "pubkeyhash",
            "addresses": [
              "LZHpTQ6VDvV9hJfKZGrLT1FT33eXm9SwLe"
            ]
          }
        }, 
        {
          "value": 8.62000400,
          "n": 1,
          "scriptPubKey": {
            "asm": "OP_HASH160 81dffc8e9d541aa69b09d0bc6816e01b68c1ac8a OP_EQUAL",
            "hex": "a91481dffc8e9d541aa69b09d0bc6816e01b68c1ac8a87",
            "reqSigs": 1,
            "type": "scripthash",
            "addresses": [
              "MKjsj2y3s8xiMRT1CvCjY6AndLDYJz1PYa"
            ]
          }
        }
      ],
      "hex": "01000000011a9483bed8b15af17c07d8ccd521ff056cbe391782da6921375af71bbe4cb42d00000000db004830450221008e9e3b302438c56e263c35c1d9b9ff4f4bd48af5a237cb1117adb92b955946aa0220607ecfc4684b4fc26dcc2b7a9b30b3cff0bc6e0e61417766f11e9aa01330b90501483045022100ffa2f67fbb0b3d2c55a3b1b3ab6fc18cbe1460c2d7de3d5d656f8b043a3da57502201e10a79fdbd67b2143cb1ea03870928a7d9a054b30988e23ee850527766a89460147522103cdb7a9174cd7bec93cfca86fac6cf43b9bc84bb5104d3ec2a4a95d06de14855d21026556df61e39c2258268d82ad4b8433c239ba58e3c96708195f45cd738aee1e3452aeffffffff02c4997e00000000001976a9149a4ce862420b69dd8fbdb8fea73c7ffa9553f8ed88ac101561330000000017a91481dffc8e9d541aa69b09d0bc6816e01b68c1ac8a8700000000"
    }, 
    {
      "txid": "a38594f7bc1373841195ad0e27c4a7ae725a65d2f371d8b15f0a0251bf0be265",
      "hash": "a38594f7bc1373841195ad0e27c4a7ae725a65d2f371d8b15f0a0251bf0be265",
      "version": 1,
      "size": 373,
      "vsize": 373,
      "locktime": 0,
      "vin": [
        {
          "txid": "0940ead78deb7f70d681db204508a9ae0cd15399f0b471d443f3103f0cc9ac5c",
          "vout": 1,
          "scriptSig": {
            "asm": "3045022100a55071dfff6580a4013ad787e0a7ed472ea6c9a79f97f967d4cb02e234d1fb1a022010f9cab79dd94ec2f1b840305ff202fb0280f9f6addb20ddf4d9e61e87c4086d[ALL] 0384a9a36de00797765bb8cbd04dabb5aa68695b13ab3d76e64a85d79f0c76db7f",
            "hex": "483045022100a55071dfff6580a4013ad787e0a7ed472ea6c9a79f97f967d4cb02e234d1fb1a022010f9cab79dd94ec2f1b840305ff202fb0280f9f6addb20ddf4d9e61e87c4086d01210384a9a36de00797765bb8cbd04dabb5aa68695b13ab3d76e64a85d79f0c76db7f"
          },
          "sequence": 4294967295
        }, 
        {
          "txid": "a4559f53a18b824b34e7dbe93b1eaf50078285db7d89637dfe2b4d68b767ca9c",
          "vout": 0,
          "scriptSig": {
            "asm": "3044022064d3105b01f2c092ae879a1670ec03b838a7976a19ef609cce792abd8ecd80fd02206414d3cf6eac84e2c298fbf0f9d1015c98cdd6daadc323d5b4b2f7e2818c1f68[ALL] 0384a9a36de00797765bb8cbd04dabb5aa68695b13ab3d76e64a85d79f0c76db7f",
            "hex": "473044022064d3105b01f2c092ae879a1670ec03b838a7976a19ef609cce792abd8ecd80fd02206414d3cf6eac84e2c298fbf0f9d1015c98cdd6daadc323d5b4b2f7e2818c1f6801210384a9a36de00797765bb8cbd04dabb5aa68695b13ab3d76e64a85d79f0c76db7f"
          },
          "sequence": 4294967295
        }
      ],
      "vout": [
        {
          "value": 17.38600000,
          "n": 0,
          "scriptPubKey": {
            "asm": "OP_DUP OP_HASH160 918b14d48531791b4580a5214c39f859acbc8ff7 OP_EQUALVERIFY OP_CHECKSIG",
            "hex": "76a914918b14d48531791b4580a5214c39f859acbc8ff788ac",
            "reqSigs": 1,
            "type": "pubkeyhash",
            "addresses": [
              "LYVWra61iZJ7HempSqAJ34jQXB1FuUtbkE"
            ]
          }
        }, 
        {
          "value": 64.49100860,
          "n": 1,
          "scriptPubKey": {
            "asm": "OP_DUP OP_HASH160 8a4fd1372b1dd683fede7d68f2332fae2e9c9f71 OP_EQUALVERIFY OP_CHECKSIG",
            "hex": "76a9148a4fd1372b1dd683fede7d68f2332fae2e9c9f7188ac",
            "reqSigs": 1,
            "type": "pubkeyhash",
            "addresses": [
              "LXqH8V6ZtsHBrURFbVxHR59KA24qcdosN3"
            ]
          }
        }
      ],
      "hex": "01000000025cacc90c3f10f343d471b4f09953d10caea9084520db81d6707feb8dd7ea4009010000006b483045022100a55071dfff6580a4013ad787e0a7ed472ea6c9a79f97f967d4cb02e234d1fb1a022010f9cab79dd94ec2f1b840305ff202fb0280f9f6addb20ddf4d9e61e87c4086d01210384a9a36de00797765bb8cbd04dabb5aa68695b13ab3d76e64a85d79f0c76db7fffffffff9cca67b7684d2bfe7d63897ddb85820750af1e3be9dbe7344b828ba1539f55a4000000006a473044022064d3105b01f2c092ae879a1670ec03b838a7976a19ef609cce792abd8ecd80fd02206414d3cf6eac84e2c298fbf0f9d1015c98cdd6daadc323d5b4b2f7e2818c1f6801210384a9a36de00797765bb8cbd04dabb5aa68695b13ab3d76e64a85d79f0c76db7fffffffff0240eea067000000001976a914918b14d48531791b4580a5214c39f859acbc8ff788ac3c786580010000001976a9148a4fd1372b1dd683fede7d68f2332fae2e9c9f7188ac00000000"
    }, 
    {
      "txid": "1aa578151754d6c865bd05df3e719d3e6f92371ab310d0de1b669bbf61d737c6",
      "hash": "1aa578151754d6c865bd05df3e719d3e6f92371ab310d0de1b669bbf61d737c6",
      "version": 1,
      "size": 1077,
      "vsize": 1077,
      "locktime": 0,
      "vin": [
        {
          "txid": "67fd93a92bb995dd3c12de603217fafd23ac49f4e67048c97a531bf9c938bb0e",
          "vout": 303,
          "scriptSig": {
            "asm": "30440220491a03f1760adf468a05b18ea2963bbc089ade8e5043600afc8e22c72cad79380220219f8e69919874a85eee805df6cd78cb86ba565e569fbadf7c468f65f3ff2243[ALL] 035795eb59eb2af07abdefdb9680f9a75eec0bcd433097e99a145de082116edc7a",
            "hex": "4730440220491a03f1760adf468a05b18ea2963bbc089ade8e5043600afc8e22c72cad79380220219f8e69919874a85eee805df6cd78cb86ba565e569fbadf7c468f65f3ff22430121035795eb59eb2af07abdefdb9680f9a75eec0bcd433097e99a145de082116edc7a"
          },
          "sequence": 4294967295
        }, 
        {
          "txid": "04cca5a4c36ab07a5c7cf54035951a1e8b357bf727b14fafe7003bde36bd3b9e",
          "vout": 301,
          "scriptSig": {
            "asm": "3045022100919fa271ca944530fdf13665c0ad6e99184a9cdb7b8075edfe313f814a4b27250220151fe5a6b926ba8403410ec07ff07aa15c00f0fa50a8b64643bbde13b3c0a6a4[ALL] 035795eb59eb2af07abdefdb9680f9a75eec0bcd433097e99a145de082116edc7a",
            "hex": "483045022100919fa271ca944530fdf13665c0ad6e99184a9cdb7b8075edfe313f814a4b27250220151fe5a6b926ba8403410ec07ff07aa15c00f0fa50a8b64643bbde13b3c0a6a40121035795eb59eb2af07abdefdb9680f9a75eec0bcd433097e99a145de082116edc7a"
          },
          "sequence": 4294967295
        }, 
        {
          "txid": "2d89132a921b0e140ba6c4d892e06bc09c00293259842ba3d304bee22d05346e",
          "vout": 302,
          "scriptSig": {
            "asm": "304402207986276333e10f00b7a5b79d0d41af5d1a621152bea31b5b344c5896d416b918022003d67a66c1a88913cd5c0380ddcc6ce815f2607f67105c2f92ff97bae710a747[ALL] 035795eb59eb2af07abdefdb9680f9a75eec0bcd433097e99a145de082116edc7a",
            "hex": "47304402207986276333e10f00b7a5b79d0d41af5d1a621152bea31b5b344c5896d416b918022003d67a66c1a88913cd5c0380ddcc6ce815f2607f67105c2f92ff97bae710a7470121035795eb59eb2af07abdefdb9680f9a75eec0bcd433097e99a145de082116edc7a"
          },
          "sequence": 4294967295
        }, 
        {
          "txid": "d86b1419fa6cc6d44b4678c48fb3d06a01c044be945312fb5cdf18c9495ebd15",
          "vout": 305,
          "scriptSig": {
            "asm": "304402204ebd8473ba87023ce803b840dcae2bb803d703735c02ef51941c695d44220f49022079f2876fc1fc4e62da605002860375c12c2a6655847d688ecaf1db40dedcbc01[ALL] 035795eb59eb2af07abdefdb9680f9a75eec0bcd433097e99a145de082116edc7a",
            "hex": "47304402204ebd8473ba87023ce803b840dcae2bb803d703735c02ef51941c695d44220f49022079f2876fc1fc4e62da605002860375c12c2a6655847d688ecaf1db40dedcbc010121035795eb59eb2af07abdefdb9680f9a75eec0bcd433097e99a145de082116edc7a"
          },
          "sequence": 4294967295
        }, 
        {
          "txid": "977f1b2f5cbd745d81bb33837f31a2f8a3ac52e7db29eb2a2417c660a67d0082",
          "vout": 302,
          "scriptSig": {
            "asm": "3045022100d17d57e2400749f5879016d70de432327f1bb0be14662405781512431743869402203fe2f750d7455e40ee8163835422c2d7d552f692e351e64ecc013b66ae452c9a[ALL] 035795eb59eb2af07abdefdb9680f9a75eec0bcd433097e99a145de082116edc7a",
            "hex": "483045022100d17d57e2400749f5879016d70de432327f1bb0be14662405781512431743869402203fe2f750d7455e40ee8163835422c2d7d552f692e351e64ecc013b66ae452c9a0121035795eb59eb2af07abdefdb9680f9a75eec0bcd433097e99a145de082116edc7a"
          },
          "sequence": 4294967295
        }, 
        {
          "txid": "67fef90ac5e9f1cc2ef3eb13bfffbc18e0b861c284a3759ab756e3372c9d06f3",
          "vout": 301,
          "scriptSig": {
            "asm": "3045022100a879854338ac3a13af276f4ad30af72f3ae7fdbc0bc2412ee4fb52f421b92f1e022026fbd4ed014d6d2cc003f943308d1188e8bd6d97cd6f9b9fbaf9d60cad3fae95[ALL] 035795eb59eb2af07abdefdb9680f9a75eec0bcd433097e99a145de082116edc7a",
            "hex": "483045022100a879854338ac3a13af276f4ad30af72f3ae7fdbc0bc2412ee4fb52f421b92f1e022026fbd4ed014d6d2cc003f943308d1188e8bd6d97cd6f9b9fbaf9d60cad3fae950121035795eb59eb2af07abdefdb9680f9a75eec0bcd433097e99a145de082116edc7a"
          },
          "sequence": 4294967295
        }, 
        {
          "txid": "bd15b117bdd5594ef901f9c0561c71b301dd2c20c418d5f8e27f35784e59a035",
          "vout": 1,
          "scriptSig": {
            "asm": "3045022100affd63fb5183a194a8e3254f8eb1241a44ac786547d02e0343017ef948ac867302202ee40fe86943d65d7410d434c6d864cd92deafd29b887f84036e3cdab5369dbf[ALL] 0349fb97611e573f40e49dcce650a1ed70253cc5177f0fa4dadc04e3eb3bd915b7",
            "hex": "483045022100affd63fb5183a194a8e3254f8eb1241a44ac786547d02e0343017ef948ac867302202ee40fe86943d65d7410d434c6d864cd92deafd29b887f84036e3cdab5369dbf01210349fb97611e573f40e49dcce650a1ed70253cc5177f0fa4dadc04e3eb3bd915b7"
          },
          "sequence": 4294967295
        }
      ],
      "vout": [
        {
          "value": 0.19431842,
          "n": 0,
          "scriptPubKey": {
            "asm": "OP_DUP OP_HASH160 6f06a33384560ae5c6ca1675e0ba968e8e563ff4 OP_EQUALVERIFY OP_CHECKSIG",
            "hex": "76a9146f06a33384560ae5c6ca1675e0ba968e8e563ff488ac",
            "reqSigs": 1,
            "type": "pubkeyhash",
            "addresses": [
              "LVM1Dgs4LMNY5kXjSrR3duFmDo5XhRBibR"
            ]
          }
        }
      ],
      "hex": "01000000070ebb38c9f91b537ac94870e6f449ac23fdfa173260de123cdd95b92ba993fd672f0100006a4730440220491a03f1760adf468a05b18ea2963bbc089ade8e5043600afc8e22c72cad79380220219f8e69919874a85eee805df6cd78cb86ba565e569fbadf7c468f65f3ff22430121035795eb59eb2af07abdefdb9680f9a75eec0bcd433097e99a145de082116edc7affffffff9e3bbd36de3b00e7af4fb127f77b358b1e1a953540f57c5c7ab06ac3a4a5cc042d0100006b483045022100919fa271ca944530fdf13665c0ad6e99184a9cdb7b8075edfe313f814a4b27250220151fe5a6b926ba8403410ec07ff07aa15c00f0fa50a8b64643bbde13b3c0a6a40121035795eb59eb2af07abdefdb9680f9a75eec0bcd433097e99a145de082116edc7affffffff6e34052de2be04d3a32b84593229009cc06be092d8c4a60b140e1b922a13892d2e0100006a47304402207986276333e10f00b7a5b79d0d41af5d1a621152bea31b5b344c5896d416b918022003d67a66c1a88913cd5c0380ddcc6ce815f2607f67105c2f92ff97bae710a7470121035795eb59eb2af07abdefdb9680f9a75eec0bcd433097e99a145de082116edc7affffffff15bd5e49c918df5cfb125394be44c0016ad0b38fc478464bd4c66cfa19146bd8310100006a47304402204ebd8473ba87023ce803b840dcae2bb803d703735c02ef51941c695d44220f49022079f2876fc1fc4e62da605002860375c12c2a6655847d688ecaf1db40dedcbc010121035795eb59eb2af07abdefdb9680f9a75eec0bcd433097e99a145de082116edc7affffffff82007da660c617242aeb29dbe752aca3f8a2317f8333bb815d74bd5c2f1b7f972e0100006b483045022100d17d57e2400749f5879016d70de432327f1bb0be14662405781512431743869402203fe2f750d7455e40ee8163835422c2d7d552f692e351e64ecc013b66ae452c9a0121035795eb59eb2af07abdefdb9680f9a75eec0bcd433097e99a145de082116edc7afffffffff3069d2c37e356b79a75a384c261b8e018bcffbf13ebf32eccf1e9c50af9fe672d0100006b483045022100a879854338ac3a13af276f4ad30af72f3ae7fdbc0bc2412ee4fb52f421b92f1e022026fbd4ed014d6d2cc003f943308d1188e8bd6d97cd6f9b9fbaf9d60cad3fae950121035795eb59eb2af07abdefdb9680f9a75eec0bcd433097e99a145de082116edc7affffffff35a0594e78357fe2f8d518c4202cdd01b3711c56c0f901f94e59d5bd17b115bd010000006b483045022100affd63fb5183a194a8e3254f8eb1241a44ac786547d02e0343017ef948ac867302202ee40fe86943d65d7410d434c6d864cd92deafd29b887f84036e3cdab5369dbf01210349fb97611e573f40e49dcce650a1ed70253cc5177f0fa4dadc04e3eb3bd915b7ffffffff01a2812801000000001976a9146f06a33384560ae5c6ca1675e0ba968e8e563ff488ac00000000"
    }, 
    {
      "txid": "5ab32dfc9fb93142f4a07ab705a36b15d066d5525449af7cc958bc58098fe4dc",
      "hash": "5ab32dfc9fb93142f4a07ab705a36b15d066d5525449af7cc958bc58098fe4dc",
      "version": 1,
      "size": 225,
      "vsize": 225,
      "locktime": 0,
      "vin": [
        {
          "txid": "33cdbf09475b100505842afed828f8e63d20f8830faae99a6c27c66146c677be",
          "vout": 1,
          "scriptSig": {
            "asm": "3044022001d7d6320869442146f77423283063c12c809251d97b32d96e9400cfa8b72aa802203bea58539767cfdce0dc1f3c5d32c408c57dd3f9b55105c0be75dcd073522131[ALL] 023b9d521b50e7d69df15d159cd34701a938bc3853fe1bb56fc03f6c4a826ab918",
            "hex": "473044022001d7d6320869442146f77423283063c12c809251d97b32d96e9400cfa8b72aa802203bea58539767cfdce0dc1f3c5d32c408c57dd3f9b55105c0be75dcd0735221310121023b9d521b50e7d69df15d159cd34701a938bc3853fe1bb56fc03f6c4a826ab918"
          },
          "sequence": 4294967295
        }
      ],
      "vout": [
        {
          "value": 23.55847477,
          "n": 0,
          "scriptPubKey": {
            "asm": "OP_DUP OP_HASH160 231262eee742af24065871cdf72e21a5337bb7d7 OP_EQUALVERIFY OP_CHECKSIG",
            "hex": "76a914231262eee742af24065871cdf72e21a5337bb7d788ac",
            "reqSigs": 1,
            "type": "pubkeyhash",
            "addresses": [
              "LNRPwSWKeATjLqDsFUF7z6vTYeLJBy7Ugw"
            ]
          }
        }, 
        {
          "value": 0.71259637,
          "n": 1,
          "scriptPubKey": {
            "asm": "OP_DUP OP_HASH160 20bf8189e17f317640556b4fb8a2da004601fe2e OP_EQUALVERIFY OP_CHECKSIG",
            "hex": "76a91420bf8189e17f317640556b4fb8a2da004601fe2e88ac",
            "reqSigs": 1,
            "type": "pubkeyhash",
            "addresses": [
              "LND7JRTMGP29qerck5v7QtnisxznNvNmDc"
            ]
          }
        }
      ],
      "hex": "0100000001be77c64661c6276c9ae9aa0f83f8203de6f828d8fe2a840505105b4709bfcd33010000006a473044022001d7d6320869442146f77423283063c12c809251d97b32d96e9400cfa8b72aa802203bea58539767cfdce0dc1f3c5d32c408c57dd3f9b55105c0be75dcd0735221310121023b9d521b50e7d69df15d159cd34701a938bc3853fe1bb56fc03f6c4a826ab918ffffffff0235616b8c000000001976a914231262eee742af24065871cdf72e21a5337bb7d788acf5553f04000000001976a91420bf8189e17f317640556b4fb8a2da004601fe2e88ac00000000"
    }, 
    {
      "txid": "659a2f4f66ae9e44e8095a40da4c02f24ef90900f32ebaff26ca338488ad6c85",
      "hash": "659a2f4f66ae9e44e8095a40da4c02f24ef90900f32ebaff26ca338488ad6c85",
      "version": 1,
      "size": 226,
      "vsize": 226,
      "locktime": 0,
      "vin": [
        {
          "txid": "1bfe101c62ea037796abe3b7710fc173fd8f71ef0777a2ff7821c132cff79f9c",
          "vout": 1,
          "scriptSig": {
            "asm": "3045022100beefefbd395e82640f83b34ffe86ff3c2a0a340e7c254e0366e4dcad698c67c502201a6f74e04715560be6c82c8e2421232e94774cedb58027ffd945e7fbd67736ee[ALL] 02e705d2316a9015b139391c271d306fe0ca60bf972580f650c159dfa116602366",
            "hex": "483045022100beefefbd395e82640f83b34ffe86ff3c2a0a340e7c254e0366e4dcad698c67c502201a6f74e04715560be6c82c8e2421232e94774cedb58027ffd945e7fbd67736ee012102e705d2316a9015b139391c271d306fe0ca60bf972580f650c159dfa116602366"
          },
          "sequence": 4294967295
        }
      ],
      "vout": [
        {
          "value": 0.35717873,
          "n": 0,
          "scriptPubKey": {
            "asm": "OP_DUP OP_HASH160 1e64a9d1e1fc956c20faf19d694e9870f333333d OP_EQUALVERIFY OP_CHECKSIG",
            "hex": "76a9141e64a9d1e1fc956c20faf19d694e9870f333333d88ac",
            "reqSigs": 1,
            "type": "pubkeyhash",
            "addresses": [
              "LMzf8BSApaae9yQnQuMTk2v2sxVhKXbLpF"
            ]
          }
        }, 
        {
          "value": 7.50476096,
          "n": 1,
          "scriptPubKey": {
            "asm": "OP_DUP OP_HASH160 08b84f8444f0618a56ea42578547bd4eff7cb648 OP_EQUALVERIFY OP_CHECKSIG",
            "hex": "76a91408b84f8444f0618a56ea42578547bd4eff7cb64888ac",
            "reqSigs": 1,
            "type": "pubkeyhash",
            "addresses": [
              "LL24TscfGpnp4GWpsEUWmDSiR55LqcUebf"
            ]
          }
        }
      ],
      "hex": "01000000019c9ff7cf32c12178ffa27707ef718ffd73c10f71b7e3ab967703ea621c10fe1b010000006b483045022100beefefbd395e82640f83b34ffe86ff3c2a0a340e7c254e0366e4dcad698c67c502201a6f74e04715560be6c82c8e2421232e94774cedb58027ffd945e7fbd67736ee012102e705d2316a9015b139391c271d306fe0ca60bf972580f650c159dfa116602366ffffffff02f1022102000000001976a9141e64a9d1e1fc956c20faf19d694e9870f333333d88ac405bbb2c000000001976a91408b84f8444f0618a56ea42578547bd4eff7cb64888ac00000000"
    }, 
    {
      "txid": "3d0446863f1f78081f3ccd240f3a2a2718c54ac198113ae31f5dac0572f94398",
      "hash": "3d0446863f1f78081f3ccd240f3a2a2718c54ac198113ae31f5dac0572f94398",
      "version": 1,
      "size": 226,
      "vsize": 226,
      "locktime": 0,
      "vin": [
        {
          "txid": "e8cef79621ccd94811126faded2f8a3b54f75ef3ba0a096d3991362c02349036",
          "vout": 147,
          "scriptSig": {
            "asm": "3045022100fb360d86bacb292cd835d806abca141b9f756ccfbc30f4def1ddb2707c0ee87d02200bfee3135fdd5de9448abb94167f0704764cfb5a8f126be3df99ccab542173ea[ALL] 034840749cf10b731290b22e8362f232ef5900cbd74cdb3a6fca953ebb5051e8b8",
            "hex": "483045022100fb360d86bacb292cd835d806abca141b9f756ccfbc30f4def1ddb2707c0ee87d02200bfee3135fdd5de9448abb94167f0704764cfb5a8f126be3df99ccab542173ea0121034840749cf10b731290b22e8362f232ef5900cbd74cdb3a6fca953ebb5051e8b8"
          },
          "sequence": 4294967295
        }
      ],
      "vout": [
        {
          "value": 0.06000000,
          "n": 0,
          "scriptPubKey": {
            "asm": "OP_DUP OP_HASH160 b17d78d9a165ad2a15c440c3a5656dc79b6a1075 OP_EQUALVERIFY OP_CHECKSIG",
            "hex": "76a914b17d78d9a165ad2a15c440c3a5656dc79b6a107588ac",
            "reqSigs": 1,
            "type": "pubkeyhash",
            "addresses": [
              "LbQSB7scfeUdF2i2VUtqaqzeLEe8tpnaCo"
            ]
          }
        }, 
        {
          "value": 0.00054809,
          "n": 1,
          "scriptPubKey": {
            "asm": "OP_DUP OP_HASH160 aab0ca69db83794e990f108c8f7735a76c30d58a OP_EQUALVERIFY OP_CHECKSIG",
            "hex": "76a914aab0ca69db83794e990f108c8f7735a76c30d58a88ac",
            "reqSigs": 1,
            "type": "pubkeyhash",
            "addresses": [
              "LanUvTPdv7Khet5PaSrkB5ywsqmyduPxwL"
            ]
          }
        }
      ],
      "hex": "0100000001369034022c3691396d090abaf35ef7543b8a2fedad6f121148d9cc2196f7cee8930000006b483045022100fb360d86bacb292cd835d806abca141b9f756ccfbc30f4def1ddb2707c0ee87d02200bfee3135fdd5de9448abb94167f0704764cfb5a8f126be3df99ccab542173ea0121034840749cf10b731290b22e8362f232ef5900cbd74cdb3a6fca953ebb5051e8b8ffffffff02808d5b00000000001976a914b17d78d9a165ad2a15c440c3a5656dc79b6a107588ac19d60000000000001976a914aab0ca69db83794e990f108c8f7735a76c30d58a88ac00000000"
    }, 
    {
      "txid": "245a52dfcd303ece950da42a6abd51265db4294a1da205074e04049c71d220c9",
      "hash": "245a52dfcd303ece950da42a6abd51265db4294a1da205074e04049c71d220c9",
      "version": 2,
      "size": 224,
      "vsize": 224,
      "locktime": 1360628,
      "vin": [
        {
          "txid": "f0ccf9ae47d0b8d9cc7b398e94b8d803f5cc9c0dccda216058a1cebc9cb6bd9e",
          "vout": 0,
          "scriptSig": {
            "asm": "304502210080e050d670986afecb7308779f85e9338091a938465a786a1cddc001a7dd246c0220787bef397bcfe45975429c396e89924d976374e8d4c19d73140f9932c0a708fa[ALL] 02d94f02bf814a733aec2e689039a71a619af2ea2666f17756bc305b18d0762e1f",
            "hex": "48304502210080e050d670986afecb7308779f85e9338091a938465a786a1cddc001a7dd246c0220787bef397bcfe45975429c396e89924d976374e8d4c19d73140f9932c0a708fa012102d94f02bf814a733aec2e689039a71a619af2ea2666f17756bc305b18d0762e1f"
          },
          "sequence": 4294967294
        }
      ],
      "vout": [
        {
          "value": 10.99955000,
          "n": 0,
          "scriptPubKey": {
            "asm": "OP_DUP OP_HASH160 5b16465d244fb7bb003779d058c6145493855d5a OP_EQUALVERIFY OP_CHECKSIG",
            "hex": "76a9145b16465d244fb7bb003779d058c6145493855d5a88ac",
            "reqSigs": 1,
            "type": "pubkeyhash",
            "addresses": [
              "LTXaSMUmYvueaZxzsmfFcaHMorG6TvUjBi"
            ]
          }
        }, 
        {
          "value": 8.00000000,
          "n": 1,
          "scriptPubKey": {
            "asm": "OP_HASH160 a2fa2bf464d69f8c4bd9bad9f6b2a34d861f76c9 OP_EQUAL",
            "hex": "a914a2fa2bf464d69f8c4bd9bad9f6b2a34d861f76c987",
            "reqSigs": 1,
            "type": "scripthash",
            "addresses": [
              "MNkuPjw34JsEhFmboFEe9UVsuoymK7g9DV"
            ]
          }
        }
      ],
      "hex": "02000000019ebdb69cbccea1586021dacc0d9cccf503d8b8948e397bccd9b8d047aef9ccf0000000006b48304502210080e050d670986afecb7308779f85e9338091a938465a786a1cddc001a7dd246c0220787bef397bcfe45975429c396e89924d976374e8d4c19d73140f9932c0a708fa012102d94f02bf814a733aec2e689039a71a619af2ea2666f17756bc305b18d0762e1ffeffffff0238fb8f41000000001976a9145b16465d244fb7bb003779d058c6145493855d5a88ac0008af2f0000000017a914a2fa2bf464d69f8c4bd9bad9f6b2a34d861f76c987f4c21400"
    }
  ],
  "time": 1517459871,
  "mediantime": 1517458810,
  "nonce": 3058893338,
  "bits": "1a042eae",
  "difficulty": 4011378.762614286,
  "chainwork": "0000000000000000000000000000000000000000000000351ebeb0ab2781f072",
  "previousblockhash": "90e52562cf7723c27417c98661a479cce918679afb2aced289d9f8e00a9de8d4",
  "nextblockhash": "cd920056c12f5eeddde8732f0a44f4c7f97dbe24b9320cf8dc2d8255338dc323"
}
