{
  "hash": "aec4e33acf74dfc013feded256c3b7cd561ea2bae2ddb268a87da8cc670ca106",
  "confirmations": 3558,
  "strippedsize": 2065,
  "size": 2101,
  "weight": 8296,
  "height": 1357437,
  "version": 536870912,
  "versionHex": "20000000",
  "merkleroot": "09b1c9094e94405c710d2ccd9bd92e474ae63db9572ab5b64bbf79e438eeb515",
  "tx": [
    {
      "txid": "13b622243868badab2afa94abff5e7ff0b92ba7ec9e05776ec2223b6f001f05c",
      "hash": "bc951e14d6e642c1a23e7e96519a7aaa84a952f8600d87b80e10673063f6f545",
      "version": 1,
      "size": 251,
      "vsize": 224,
      "locktime": 0,
      "vin": [
        {
          "coinbase": "037db6140000000000fabe6d6d820792401b1d5370bb4462530c9ba0288366e53e4e1d100e3647fec5ac7510b7010000000000000004e49e6b5a04cadb812b0837ab6ad5060000000a42570a6657042f42572f",
          "sequence": 4294967295
        }
      ],
      "vout": [
        {
          "value": 25.00335600,
          "n": 0,
          "scriptPubKey": {
            "asm": "OP_DUP OP_HASH160 5373bc9425fd49e6bfe522d3dfc85432da2cc023 OP_EQUALVERIFY OP_CHECKSIG",
            "hex": "76a9145373bc9425fd49e6bfe522d3dfc85432da2cc02388ac",
            "reqSigs": 1,
            "type": "pubkeyhash",
            "addresses": [
              "LSqCzf5bPfkqGf94pJcfxWx5bZMPJE5XRf"
            ]
          }
        }, 
        {
          "value": 0.00000000,
          "n": 1,
          "scriptPubKey": {
            "asm": "OP_RETURN aa21a9ed02925d672856a7c7aa336eeb462067d4b453602a70a496d71a950b3a178f0f6d",
            "hex": "6a24aa21a9ed02925d672856a7c7aa336eeb462067d4b453602a70a496d71a950b3a178f0f6d",
            "type": "nulldata"
          }
        }
      ],
      "hex": "010000000001010000000000000000000000000000000000000000000000000000000000000000ffffffff53037db6140000000000fabe6d6d820792401b1d5370bb4462530c9ba0288366e53e4e1d100e3647fec5ac7510b7010000000000000004e49e6b5a04cadb812b0837ab6ad5060000000a42570a6657042f42572fffffffff02f0170895000000001976a9145373bc9425fd49e6bfe522d3dfc85432da2cc02388ac0000000000000000266a24aa21a9ed02925d672856a7c7aa336eeb462067d4b453602a70a496d71a950b3a178f0f6d0120000000000000000000000000000000000000000000000000000000000000000000000000"
    }, 
    {
      "txid": "e635e9a464dd75a9a682948a161b64f4a740f49bd9978231777a08dde50fe592",
      "hash": "e635e9a464dd75a9a682948a161b64f4a740f49bd9978231777a08dde50fe592",
      "version": 1,
      "size": 225,
      "vsize": 225,
      "locktime": 0,
      "vin": [
        {
          "txid": "2d2c38c3fb28a4fca66bd700da53d6732dc7b4b69c5810287ab4d7d00f030f54",
          "vout": 1,
          "scriptSig": {
            "asm": "3044022062d45a074adfab02ec02f78cf51701ce8b705fbbf21bded8d5db73ea12bc38a60220215fff98eeb9ed9ce5b7ff95eb1baebe421a7661bd86cacffd374c681b6d50fc[ALL] 02f7fcb8a075917319ad1551a2549df721df09e63725cd36d33a4bc8886a8c6359",
            "hex": "473044022062d45a074adfab02ec02f78cf51701ce8b705fbbf21bded8d5db73ea12bc38a60220215fff98eeb9ed9ce5b7ff95eb1baebe421a7661bd86cacffd374c681b6d50fc012102f7fcb8a075917319ad1551a2549df721df09e63725cd36d33a4bc8886a8c6359"
          },
          "sequence": 4294967295
        }
      ],
      "vout": [
        {
          "value": 0.01644800,
          "n": 0,
          "scriptPubKey": {
            "asm": "OP_DUP OP_HASH160 1091919e9f987170058ea518260c484fc699fae5 OP_EQUALVERIFY OP_CHECKSIG",
            "hex": "76a9141091919e9f987170058ea518260c484fc699fae588ac",
            "reqSigs": 1,
            "type": "pubkeyhash",
            "addresses": [
              "LLjZTah4b4rsUvxMnt62gYw9iuMSPuPPKq"
            ]
          }
        }, 
        {
          "value": 0.02113400,
          "n": 1,
          "scriptPubKey": {
            "asm": "OP_DUP OP_HASH160 d72778606bb0ca8e322beff9c8b44f628b17e4aa OP_EQUALVERIFY OP_CHECKSIG",
            "hex": "76a914d72778606bb0ca8e322beff9c8b44f628b17e4aa88ac",
            "reqSigs": 1,
            "type": "pubkeyhash",
            "addresses": [
              "Leqaptu4vHbvFR7yvTkXLN3QWEJKX9cC5a"
            ]
          }
        }
      ],
      "hex": "0100000001540f030fd0d7b47a2810589cb6b4c72d73d653da00d76ba6fca428fbc3382c2d010000006a473044022062d45a074adfab02ec02f78cf51701ce8b705fbbf21bded8d5db73ea12bc38a60220215fff98eeb9ed9ce5b7ff95eb1baebe421a7661bd86cacffd374c681b6d50fc012102f7fcb8a075917319ad1551a2549df721df09e63725cd36d33a4bc8886a8c6359ffffffff0200191900000000001976a9141091919e9f987170058ea518260c484fc699fae588ac783f2000000000001976a914d72778606bb0ca8e322beff9c8b44f628b17e4aa88ac00000000"
    }, 
    {
      "txid": "9d932336544bb0de2d80beec821c2634e0cf64b5f53243446f15d0634ba0029e",
      "hash": "9d932336544bb0de2d80beec821c2634e0cf64b5f53243446f15d0634ba0029e",
      "version": 1,
      "size": 190,
      "vsize": 190,
      "locktime": 0,
      "vin": [
        {
          "txid": "e635e9a464dd75a9a682948a161b64f4a740f49bd9978231777a08dde50fe592",
          "vout": 0,
          "scriptSig": {
            "asm": "3045022100a5484081de65b1c00944e91aa4561fd4203a543d45028b82d8ef325880493b98022075537ac561c157038917ca2bfc02f4da4c5f20ccb1b9e39af161ef2e1718d9a7[ALL] 0363c8e1c186e48dc280e29bebd70d3ac17e6bfacbd7eaff0df3bbced064d74caf",
            "hex": "483045022100a5484081de65b1c00944e91aa4561fd4203a543d45028b82d8ef325880493b98022075537ac561c157038917ca2bfc02f4da4c5f20ccb1b9e39af161ef2e1718d9a701210363c8e1c186e48dc280e29bebd70d3ac17e6bfacbd7eaff0df3bbced064d74caf"
          },
          "sequence": 4294967295
        }
      ],
      "vout": [
        {
          "value": 0.01544800,
          "n": 0,
          "scriptPubKey": {
            "asm": "OP_HASH160 100180e2cca7fa864c8dd6718b78495d452350a7 OP_EQUAL",
            "hex": "a914100180e2cca7fa864c8dd6718b78495d452350a787",
            "reqSigs": 1,
            "type": "scripthash",
            "addresses": [
              "M9MnqxjbVWe6rYgJxZF7vZZzHuU5XHJGwN"
            ]
          }
        }
      ],
      "hex": "010000000192e50fe5dd087a77318297d99bf440a7f4641b168a9482a6a975dd64a4e935e6000000006b483045022100a5484081de65b1c00944e91aa4561fd4203a543d45028b82d8ef325880493b98022075537ac561c157038917ca2bfc02f4da4c5f20ccb1b9e39af161ef2e1718d9a701210363c8e1c186e48dc280e29bebd70d3ac17e6bfacbd7eaff0df3bbced064d74cafffffffff01609217000000000017a914100180e2cca7fa864c8dd6718b78495d452350a78700000000"
    }, 
    {
      "txid": "0638ed99b5a1fa749c7fb0bbc5b338fba69d74a4a2e18ce5cccdf885bd726166",
      "hash": "0638ed99b5a1fa749c7fb0bbc5b338fba69d74a4a2e18ce5cccdf885bd726166",
      "version": 1,
      "size": 225,
      "vsize": 225,
      "locktime": 0,
      "vin": [
        {
          "txid": "df5213d7f45bc52f216e21d050754774649f23e906396081c0dc87c4757a5694",
          "vout": 1,
          "scriptSig": {
            "asm": "304402204ff6c4b0a282e3c6d45a424084cc5228bfd61c84eb4fe097c7c52d0864662139022044d9c52470e3419725b140d9a904dacfdd0b40b17b0cc5237e6c78f0761f1de3[ALL] 0298e5824c6b1adf3bfdbab56c58662d7c52cf6fda36253e5367a2ccbe165f5277",
            "hex": "47304402204ff6c4b0a282e3c6d45a424084cc5228bfd61c84eb4fe097c7c52d0864662139022044d9c52470e3419725b140d9a904dacfdd0b40b17b0cc5237e6c78f0761f1de301210298e5824c6b1adf3bfdbab56c58662d7c52cf6fda36253e5367a2ccbe165f5277"
          },
          "sequence": 4294967295
        }
      ],
      "vout": [
        {
          "value": 1.00000000,
          "n": 0,
          "scriptPubKey": {
            "asm": "OP_DUP OP_HASH160 95eeb3ff621db6fd39b816ca491cd4b5a0658e28 OP_EQUALVERIFY OP_CHECKSIG",
            "hex": "76a91495eeb3ff621db6fd39b816ca491cd4b5a0658e2888ac",
            "reqSigs": 1,
            "type": "pubkeyhash",
            "addresses": [
              "LYtiuBLLSSkZ7LxktZMLWiSsmNa5UWG7YY"
            ]
          }
        }, 
        {
          "value": 36.62394717,
          "n": 1,
          "scriptPubKey": {
            "asm": "OP_DUP OP_HASH160 c9d4ae4e73bdda7cfcc9f1d7100a3e143c45871e OP_EQUALVERIFY OP_CHECKSIG",
            "hex": "76a914c9d4ae4e73bdda7cfcc9f1d7100a3e143c45871e88ac",
            "reqSigs": 1,
            "type": "pubkeyhash",
            "addresses": [
              "Ldd8s6dRpzpeJtvXQD3xk5MZfmnp5snfYE"
            ]
          }
        }
      ],
      "hex": "010000000194567a75c487dcc081603906e9239f6474477550d0216e212fc55bf4d71352df010000006a47304402204ff6c4b0a282e3c6d45a424084cc5228bfd61c84eb4fe097c7c52d0864662139022044d9c52470e3419725b140d9a904dacfdd0b40b17b0cc5237e6c78f0761f1de301210298e5824c6b1adf3bfdbab56c58662d7c52cf6fda36253e5367a2ccbe165f5277ffffffff0200e1f505000000001976a91495eeb3ff621db6fd39b816ca491cd4b5a0658e2888ac5db54bda000000001976a914c9d4ae4e73bdda7cfcc9f1d7100a3e143c45871e88ac00000000"
    }, 
    {
      "txid": "cf68c859788e42339337301bc1abbe3108b6b16859eb69d7aacd2337e361217e",
      "hash": "cf68c859788e42339337301bc1abbe3108b6b16859eb69d7aacd2337e361217e",
      "version": 1,
      "size": 225,
      "vsize": 225,
      "locktime": 0,
      "vin": [
        {
          "txid": "2bb916aa0bc5b8bc52d4ec3ea3f42a21f3902c1fa6c7bc975fc6a26a37baeaa3",
          "vout": 1,
          "scriptSig": {
            "asm": "304402203401b2a52bb88a9835a543bf88b76460da80dfa1b2e5f203f92d88d2d4c15db6022007bd63e7c5aaa42cd9a388201239e0be6c7df00676aa0268a583018708d84e17[ALL] 0264bc85bd64f54aa1593626915f7157fe58f95b9606b63e60f7c9e8b45f387f19",
            "hex": "47304402203401b2a52bb88a9835a543bf88b76460da80dfa1b2e5f203f92d88d2d4c15db6022007bd63e7c5aaa42cd9a388201239e0be6c7df00676aa0268a583018708d84e1701210264bc85bd64f54aa1593626915f7157fe58f95b9606b63e60f7c9e8b45f387f19"
          },
          "sequence": 4294967295
        }
      ],
      "vout": [
        {
          "value": 3.00000000,
          "n": 0,
          "scriptPubKey": {
            "asm": "OP_DUP OP_HASH160 9494c4f57c6a8eb13151297507ad2c1bee435e97 OP_EQUALVERIFY OP_CHECKSIG",
            "hex": "76a9149494c4f57c6a8eb13151297507ad2c1bee435e9788ac",
            "reqSigs": 1,
            "type": "pubkeyhash",
            "addresses": [
              "LYmaVHFaqm9bgXK55T9trGwBXD1fG7fufh"
            ]
          }
        }, 
        {
          "value": 33.25651838,
          "n": 1,
          "scriptPubKey": {
            "asm": "OP_DUP OP_HASH160 307121fd0fcb5f6e8ae14ce8ab2239427fff5f25 OP_EQUALVERIFY OP_CHECKSIG",
            "hex": "76a914307121fd0fcb5f6e8ae14ce8ab2239427fff5f2588ac",
            "reqSigs": 1,
            "type": "pubkeyhash",
            "addresses": [
              "LPe6E2JtemgEpUM7CAXQ16GdaaprUyRgcy"
            ]
          }
        }
      ],
      "hex": "0100000001a3eaba376aa2c65f97bcc7a61f2c90f3212af4a33eecd452bcb8c50baa16b92b010000006a47304402203401b2a52bb88a9835a543bf88b76460da80dfa1b2e5f203f92d88d2d4c15db6022007bd63e7c5aaa42cd9a388201239e0be6c7df00676aa0268a583018708d84e1701210264bc85bd64f54aa1593626915f7157fe58f95b9606b63e60f7c9e8b45f387f19ffffffff0200a3e111000000001976a9149494c4f57c6a8eb13151297507ad2c1bee435e9788ac7e6b39c6000000001976a914307121fd0fcb5f6e8ae14ce8ab2239427fff5f2588ac00000000"
    }, 
    {
      "txid": "4d2293a938f9229306f9483363afea4c19654710e409403b282c9d90d466ca06",
      "hash": "4d2293a938f9229306f9483363afea4c19654710e409403b282c9d90d466ca06",
      "version": 1,
      "size": 226,
      "vsize": 226,
      "locktime": 0,
      "vin": [
        {
          "txid": "d09c035a9aceeff3a52eaaec34b81a8adf3ee3c2f3bc2fc2ab4f85d6cdcfc274",
          "vout": 0,
          "scriptSig": {
            "asm": "3045022100e36b8c52c2ec60cfd6722b5640e832132038d415b2635907236b7ba6501c39f60220127597f3b6654027905159d5e8b9dd4ca6171bd329ae45799fd31eea3873e1ed[ALL] 0319636c5bee5fc0411c41c760edcd80c2bfb28dde1c15a02442478c43dd89abf2",
            "hex": "483045022100e36b8c52c2ec60cfd6722b5640e832132038d415b2635907236b7ba6501c39f60220127597f3b6654027905159d5e8b9dd4ca6171bd329ae45799fd31eea3873e1ed01210319636c5bee5fc0411c41c760edcd80c2bfb28dde1c15a02442478c43dd89abf2"
          },
          "sequence": 4294967295
        }
      ],
      "vout": [
        {
          "value": 0.35398148,
          "n": 0,
          "scriptPubKey": {
            "asm": "OP_DUP OP_HASH160 b4b8033fd72dee4b51c05544690c3028865fb428 OP_EQUALVERIFY OP_CHECKSIG",
            "hex": "76a914b4b8033fd72dee4b51c05544690c3028865fb42888ac",
            "reqSigs": 1,
            "type": "pubkeyhash",
            "addresses": [
              "LbhWLAjCa7Qzu8KgbXktmxKHSiQekMEwDU"
            ]
          }
        }, 
        {
          "value": 34.15048338,
          "n": 1,
          "scriptPubKey": {
            "asm": "OP_DUP OP_HASH160 b5aaa1cc7fbc29f7067166014f051f9835528ceb OP_EQUALVERIFY OP_CHECKSIG",
            "hex": "76a914b5aaa1cc7fbc29f7067166014f051f9835528ceb88ac",
            "reqSigs": 1,
            "type": "pubkeyhash",
            "addresses": [
              "LbnWyexwNZnBYmeR9M59R42dGEww5U2GjL"
            ]
          }
        }
      ],
      "hex": "010000000174c2cfcdd6854fabc22fbcf3c2e33edf8a1ab834ecaa2ea5f3efce9a5a039cd0000000006b483045022100e36b8c52c2ec60cfd6722b5640e832132038d415b2635907236b7ba6501c39f60220127597f3b6654027905159d5e8b9dd4ca6171bd329ae45799fd31eea3873e1ed01210319636c5bee5fc0411c41c760edcd80c2bfb28dde1c15a02442478c43dd89abf2ffffffff0204221c02000000001976a914b4b8033fd72dee4b51c05544690c3028865fb42888ac92808dcb000000001976a914b5aaa1cc7fbc29f7067166014f051f9835528ceb88ac00000000"
    }, 
    {
      "txid": "8f2119a71f6776ee6572c912dcd26e4c777a4ae018ef8cc3d04b4c532d13fc57",
      "hash": "8f2119a71f6776ee6572c912dcd26e4c777a4ae018ef8cc3d04b4c532d13fc57",
      "version": 1,
      "size": 226,
      "vsize": 226,
      "locktime": 0,
      "vin": [
        {
          "txid": "b93ed53b3bcbf47f6bd8acc9bc79f9b6de7dc30bfa0080b7054f2df7cd4bce45",
          "vout": 0,
          "scriptSig": {
            "asm": "3045022100f32f1f0aab041afec730e9720e6c1120e5cd8b760c11d5c0b64961462b73572b0220637d62bff1fd4e25c2c18056d099ef581d86ccf9ae75749e6c8fc35716815565[ALL] 027c1f33acac4f58173fca59ed7397db0d87cbfcf048af7db420ee2058ef0a9bef",
            "hex": "483045022100f32f1f0aab041afec730e9720e6c1120e5cd8b760c11d5c0b64961462b73572b0220637d62bff1fd4e25c2c18056d099ef581d86ccf9ae75749e6c8fc357168155650121027c1f33acac4f58173fca59ed7397db0d87cbfcf048af7db420ee2058ef0a9bef"
          },
          "sequence": 4294967295
        }
      ],
      "vout": [
        {
          "value": 27.32940627,
          "n": 0,
          "scriptPubKey": {
            "asm": "OP_DUP OP_HASH160 9508efd54cdcfe69390b9ddd8e7ee52ee5a6f472 OP_EQUALVERIFY OP_CHECKSIG",
            "hex": "76a9149508efd54cdcfe69390b9ddd8e7ee52ee5a6f47288ac",
            "reqSigs": 1,
            "type": "pubkeyhash",
            "addresses": [
              "LYoyejonX4Fwx5hG1dbnobMUrCqhwQVNFy"
            ]
          }
        }, 
        {
          "value": 6.16309387,
          "n": 1,
          "scriptPubKey": {
            "asm": "OP_DUP OP_HASH160 3e2d616bdf541254e14f47ca6822b0039bbffb1e OP_EQUALVERIFY OP_CHECKSIG",
            "hex": "76a9143e2d616bdf541254e14f47ca6822b0039bbffb1e88ac",
            "reqSigs": 1,
            "type": "pubkeyhash",
            "addresses": [
              "LQtiXChd2nUubaFL7UCVRTGH3nzZomhDyf"
            ]
          }
        }
      ],
      "hex": "010000000145ce4bcdf72d4f05b78000fa0bc37ddeb6f979bcc9acd86b7ff4cb3b3bd53eb9000000006b483045022100f32f1f0aab041afec730e9720e6c1120e5cd8b760c11d5c0b64961462b73572b0220637d62bff1fd4e25c2c18056d099ef581d86ccf9ae75749e6c8fc357168155650121027c1f33acac4f58173fca59ed7397db0d87cbfcf048af7db420ee2058ef0a9befffffffff02535de5a2000000001976a9149508efd54cdcfe69390b9ddd8e7ee52ee5a6f47288ac8b22bc24000000001976a9143e2d616bdf541254e14f47ca6822b0039bbffb1e88ac00000000"
    }, 
    {
      "txid": "960309c2cf9f84975949da6dc2463dc5ef18feb76904f86c05d1919f3634a0df",
      "hash": "960309c2cf9f84975949da6dc2463dc5ef18feb76904f86c05d1919f3634a0df",
      "version": 2,
      "size": 226,
      "vsize": 226,
      "locktime": 1357435,
      "vin": [
        {
          "txid": "d666bd735257d6388311295427230cb1b59842b998c77127c3d7c7b08c49be66",
          "vout": 2,
          "scriptSig": {
            "asm": "3045022100fe493339abe8c24085f84251b38aa19f7907e4077300cfcf40a6ee443776bd01022071903d43d5232c0d65a69a6bbc728c8e7c404f227b73d9057c03a5de3896727c[ALL] 03eb58674243f0164054c4b5d3dde975ebce02c97a419f3250b016757c7250459c",
            "hex": "483045022100fe493339abe8c24085f84251b38aa19f7907e4077300cfcf40a6ee443776bd01022071903d43d5232c0d65a69a6bbc728c8e7c404f227b73d9057c03a5de3896727c012103eb58674243f0164054c4b5d3dde975ebce02c97a419f3250b016757c7250459c"
          },
          "sequence": 4294967294
        }
      ],
      "vout": [
        {
          "value": 0.02999924,
          "n": 0,
          "scriptPubKey": {
            "asm": "OP_DUP OP_HASH160 806635087afa7a8124dd40888e483d32e602af16 OP_EQUALVERIFY OP_CHECKSIG",
            "hex": "76a914806635087afa7a8124dd40888e483d32e602af1688ac",
            "reqSigs": 1,
            "type": "pubkeyhash",
            "addresses": [
              "LWvsCFBXjKXQcnvixWx6gQQFKCQAfMMvEn"
            ]
          }
        }, 
        {
          "value": 0.00977410,
          "n": 1,
          "scriptPubKey": {
            "asm": "OP_DUP OP_HASH160 66d64d319270750684c06abbe3b0aa7c93b9f8bd OP_EQUALVERIFY OP_CHECKSIG",
            "hex": "76a91466d64d319270750684c06abbe3b0aa7c93b9f8bd88ac",
            "reqSigs": 1,
            "type": "pubkeyhash",
            "addresses": [
              "LUbhuiE3WoqGBWT6e5dY8cJh8VFw4yq4Ex"
            ]
          }
        }
      ],
      "hex": "020000000166be498cb0c7d7c32771c798b94298b5b10c23275429118338d6575273bd66d6020000006b483045022100fe493339abe8c24085f84251b38aa19f7907e4077300cfcf40a6ee443776bd01022071903d43d5232c0d65a69a6bbc728c8e7c404f227b73d9057c03a5de3896727c012103eb58674243f0164054c4b5d3dde975ebce02c97a419f3250b016757c7250459cfeffffff0274c62d00000000001976a914806635087afa7a8124dd40888e483d32e602af1688ac02ea0e00000000001976a91466d64d319270750684c06abbe3b0aa7c93b9f8bd88ac7bb61400"
    }, 
    {
      "txid": "1149638b5cd54013a16ddc3a174e392f36c54e6387d551dee818e58638230ffe",
      "hash": "1149638b5cd54013a16ddc3a174e392f36c54e6387d551dee818e58638230ffe",
      "version": 1,
      "size": 226,
      "vsize": 226,
      "locktime": 0,
      "vin": [
        {
          "txid": "292a7d928fd41f3da414aee25eb9f676b725f961748ca53c4f0fd0ecd37a90c8",
          "vout": 0,
          "scriptSig": {
            "asm": "3045022100eb069193b95c1e1a3cd4b4e4b5c8fb560e51624829f965694e6cb0450a61c12502201396fd571493b52f8107ac2c8d69729450ccde0ec5dfd829102cba6f3545b985[ALL] 02f3b22424cf0d9c7ff855d34ea725cbc1182214710749b325a56da722a6505194",
            "hex": "483045022100eb069193b95c1e1a3cd4b4e4b5c8fb560e51624829f965694e6cb0450a61c12502201396fd571493b52f8107ac2c8d69729450ccde0ec5dfd829102cba6f3545b985012102f3b22424cf0d9c7ff855d34ea725cbc1182214710749b325a56da722a6505194"
          },
          "sequence": 4294967295
        }
      ],
      "vout": [
        {
          "value": 1.41389969,
          "n": 0,
          "scriptPubKey": {
            "asm": "OP_DUP OP_HASH160 2e0a17f3db6b8d41b3b2873c36c21a7e836ee93d OP_EQUALVERIFY OP_CHECKSIG",
            "hex": "76a9142e0a17f3db6b8d41b3b2873c36c21a7e836ee93d88ac",
            "reqSigs": 1,
            "type": "pubkeyhash",
            "addresses": [
              "LPRPSMGwiHBy85P8ABYMir53ycWJ3Zpxxy"
            ]
          }
        }, 
        {
          "value": 36.87793371,
          "n": 1,
          "scriptPubKey": {
            "asm": "OP_DUP OP_HASH160 1015ab5791d194a57c01fea89e3afd34a2f48a35 OP_EQUALVERIFY OP_CHECKSIG",
            "hex": "76a9141015ab5791d194a57c01fea89e3afd34a2f48a3588ac",
            "reqSigs": 1,
            "type": "pubkeyhash",
            "addresses": [
              "LLh12tgxDGyF5MAgzWUocamzLMS9SZJ4c7"
            ]
          }
        }
      ],
      "hex": "0100000001c8907ad3ecd00f4f3ca58c7461f925b776f6b95ee2ae14a43d1fd48f927d2a29000000006b483045022100eb069193b95c1e1a3cd4b4e4b5c8fb560e51624829f965694e6cb0450a61c12502201396fd571493b52f8107ac2c8d69729450ccde0ec5dfd829102cba6f3545b985012102f3b22424cf0d9c7ff855d34ea725cbc1182214710749b325a56da722a6505194ffffffff0291706d08000000001976a9142e0a17f3db6b8d41b3b2873c36c21a7e836ee93d88acdb42cfdb000000001976a9141015ab5791d194a57c01fea89e3afd34a2f48a3588ac00000000"
    }
  ],
  "time": 1517002468,
  "mediantime": 1517002084,
  "nonce": 836223095,
  "bits": "1a047f14",
  "difficulty": 3731199.183374282,
  "chainwork": "000000000000000000000000000000000000000000000032394c279fb930a3cc",
  "previousblockhash": "9c004b5f28a1dfbd7dd3ea2cfe63f841e67d59ad55f28d52ed3f1406542d5d8a",
  "nextblockhash": "a5752f6cc149deec4fe3e98b868807146b7aa5396e35073e28e2785eb6f23147"
}
