{
  "hash": "aec5c2d4eff252625c655505a44ff2edbcc391c2a6b418c3e1f81eeeb2af3ac2",
  "confirmations": 1535,
  "strippedsize": 3694,
  "size": 3730,
  "weight": 14812,
  "height": 1359459,
  "version": 536870912,
  "versionHex": "20000000",
  "merkleroot": "bf0910027c9480b9175a8f9f0b064836e07695ebe82a50e4baa8c02278395b25",
  "tx": [
    {
      "txid": "68185c5f35904987f141c72fb9ee043a33061ac47c8150f642e6f6b8e82e7ed2",
      "hash": "c74304247a9f57ae752169d9dc33a2316cf8ca9a6b1fd761f7df87725e528a7a",
      "version": 1,
      "size": 244,
      "vsize": 217,
      "locktime": 0,
      "vin": [
        {
          "coinbase": "0363be1404baf16f5a08055e2d7f1e000000fabe6d6d15d483d4e302ddee75fac9324c3f849cf51d6e5d169998269fcc1f8d0987cbed40000000000000000d2f6e6f64655374726174756d2f",
          "sequence": 0
        }
      ],
      "vout": [
        {
          "value": 25.00802482,
          "n": 0,
          "scriptPubKey": {
            "asm": "OP_DUP OP_HASH160 0c617fdb2ea42aed30a509595ee21ba3f6688db0 OP_EQUALVERIFY OP_CHECKSIG",
            "hex": "76a9140c617fdb2ea42aed30a509595ee21ba3f6688db088ac",
            "reqSigs": 1,
            "type": "pubkeyhash",
            "addresses": [
              "LLMRAtr3qBje2ySEa3CnZ55LA4TQMWnRY3"
            ]
          }
        }, 
        {
          "value": 0.00000000,
          "n": 1,
          "scriptPubKey": {
            "asm": "OP_RETURN aa21a9edf0e1d6f10cf784d5f8a82f39b37e01f62ba50038e703d715d5c3bc76907b1035",
            "hex": "6a24aa21a9edf0e1d6f10cf784d5f8a82f39b37e01f62ba50038e703d715d5c3bc76907b1035",
            "type": "nulldata"
          }
        }
      ],
      "hex": "010000000001010000000000000000000000000000000000000000000000000000000000000000ffffffff4c0363be1404baf16f5a08055e2d7f1e000000fabe6d6d15d483d4e302ddee75fac9324c3f849cf51d6e5d169998269fcc1f8d0987cbed40000000000000000d2f6e6f64655374726174756d2f0000000002b2370f95000000001976a9140c617fdb2ea42aed30a509595ee21ba3f6688db088ac0000000000000000266a24aa21a9edf0e1d6f10cf784d5f8a82f39b37e01f62ba50038e703d715d5c3bc76907b10350120000000000000000000000000000000000000000000000000000000000000000000000000"
    }, 
    {
      "txid": "1193785c53d983497c214bc807e40c00ef9d9170ee9bf163e11817deb8ae077d",
      "hash": "1193785c53d983497c214bc807e40c00ef9d9170ee9bf163e11817deb8ae077d",
      "version": 1,
      "size": 225,
      "vsize": 225,
      "locktime": 0,
      "vin": [
        {
          "txid": "a86f378da88441683d22f1a7f9d0aad033cd620a18d50200c684be32ee89a948",
          "vout": 1,
          "scriptSig": {
            "asm": "30440220174b8d2edda9fe9268b324928e8fc5ffc6ac37e02ab0720f738d3debc62fb02d022062f5cb9656780a01128e2a3b3a28242857e1245b61dafbdd004c8111f8a9cee5[ALL] 02f21605b6446e2128278070aa1363c4408ef458f11ccf145b4724979ad8da90c5",
            "hex": "4730440220174b8d2edda9fe9268b324928e8fc5ffc6ac37e02ab0720f738d3debc62fb02d022062f5cb9656780a01128e2a3b3a28242857e1245b61dafbdd004c8111f8a9cee5012102f21605b6446e2128278070aa1363c4408ef458f11ccf145b4724979ad8da90c5"
          },
          "sequence": 4294967295
        }
      ],
      "vout": [
        {
          "value": 4.66123528,
          "n": 0,
          "scriptPubKey": {
            "asm": "OP_DUP OP_HASH160 421505be0d0e693a90d24f25ed04b79430465c6d OP_EQUALVERIFY OP_CHECKSIG",
            "hex": "76a914421505be0d0e693a90d24f25ed04b79430465c6d88ac",
            "reqSigs": 1,
            "type": "pubkeyhash",
            "addresses": [
              "LRFN3Y9uhgeSRPoNXCDzjFn76k779pRypE"
            ]
          }
        }, 
        {
          "value": 13.56275861,
          "n": 1,
          "scriptPubKey": {
            "asm": "OP_DUP OP_HASH160 09dd3399959982f29982ac9f28e76609c8a8cdf4 OP_EQUALVERIFY OP_CHECKSIG",
            "hex": "76a91409dd3399959982f29982ac9f28e76609c8a8cdf488ac",
            "reqSigs": 1,
            "type": "pubkeyhash",
            "addresses": [
              "LL87LHyWJBR6vd73F4e9TDgNQCKKeTwLmP"
            ]
          }
        }
      ],
      "hex": "010000000148a989ee32be84c60002d5180a62cd33d0aad0f9a7f1223d684184a88d376fa8010000006a4730440220174b8d2edda9fe9268b324928e8fc5ffc6ac37e02ab0720f738d3debc62fb02d022062f5cb9656780a01128e2a3b3a28242857e1245b61dafbdd004c8111f8a9cee5012102f21605b6446e2128278070aa1363c4408ef458f11ccf145b4724979ad8da90c5ffffffff02087bc81b000000001976a914421505be0d0e693a90d24f25ed04b79430465c6d88ac9520d750000000001976a91409dd3399959982f29982ac9f28e76609c8a8cdf488ac00000000"
    }, 
    {
      "txid": "e122d13942c840310e8fc3b32c84eb318264750f89d9b00c7707f8d3a0cc529b",
      "hash": "e122d13942c840310e8fc3b32c84eb318264750f89d9b00c7707f8d3a0cc529b",
      "version": 1,
      "size": 464,
      "vsize": 464,
      "locktime": 0,
      "vin": [
        {
          "txid": "f7e8a067792602453dd89e041d8557f311c2257cf6f1a3a25be0f1a7bc01fe00",
          "vout": 8,
          "scriptSig": {
            "asm": "3045022100caf557d1daf6540b49623e0b60d4c0a5402ed0d8b03ce6fca838089a94f5c16302207bbb62dafc23121b5932c4ab18d5d8b1bd0f5e568046a530926730a867791d1b[ALL] 0294a923650a9a8f247b2be51a2064d0710c99dfbd0d4c37a26e76946253611554",
            "hex": "483045022100caf557d1daf6540b49623e0b60d4c0a5402ed0d8b03ce6fca838089a94f5c16302207bbb62dafc23121b5932c4ab18d5d8b1bd0f5e568046a530926730a867791d1b01210294a923650a9a8f247b2be51a2064d0710c99dfbd0d4c37a26e76946253611554"
          },
          "sequence": 4294967295
        }
      ],
      "vout": [
        {
          "value": 0.34000000,
          "n": 0,
          "scriptPubKey": {
            "asm": "OP_DUP OP_HASH160 195ed772fcad80f46c1ef87176d2b54eb37e4182 OP_EQUALVERIFY OP_CHECKSIG",
            "hex": "76a914195ed772fcad80f46c1ef87176d2b54eb37e418288ac",
            "reqSigs": 1,
            "type": "pubkeyhash",
            "addresses": [
              "LMY6midTLvikwa81zRTtgtP5VdQhUmFRdn"
            ]
          }
        }, 
        {
          "value": 0.85738508,
          "n": 1,
          "scriptPubKey": {
            "asm": "OP_DUP OP_HASH160 945f59e71e311a75873bbc7467099b1fe16884ed OP_EQUALVERIFY OP_CHECKSIG",
            "hex": "76a914945f59e71e311a75873bbc7467099b1fe16884ed88ac",
            "reqSigs": 1,
            "type": "pubkeyhash",
            "addresses": [
              "LYkUVij9yg91EMerCwfY4GyNDirM6onDSZ"
            ]
          }
        }, 
        {
          "value": 3.00000000,
          "n": 2,
          "scriptPubKey": {
            "asm": "OP_DUP OP_HASH160 056201d5ceef827ba3b790a6ac82bbed366771ff OP_EQUALVERIFY OP_CHECKSIG",
            "hex": "76a914056201d5ceef827ba3b790a6ac82bbed366771ff88ac",
            "reqSigs": 1,
            "type": "pubkeyhash",
            "addresses": [
              "LKiR3q586M1C4um3MDsa9EBACmQgdN7gBP"
            ]
          }
        }, 
        {
          "value": 0.99000000,
          "n": 3,
          "scriptPubKey": {
            "asm": "OP_DUP OP_HASH160 4fc1ec74250e9f684a51e159a2efab77994cb52e OP_EQUALVERIFY OP_CHECKSIG",
            "hex": "76a9144fc1ec74250e9f684a51e159a2efab77994cb52e88ac",
            "reqSigs": 1,
            "type": "pubkeyhash",
            "addresses": [
              "LSVfxRFEhjMhmmswZb8ZQwM8btCZt4HNnE"
            ]
          }
        }, 
        {
          "value": 0.29039982,
          "n": 4,
          "scriptPubKey": {
            "asm": "OP_DUP OP_HASH160 3763d6a89295cf0785d55ce3693381df8dd5601a OP_EQUALVERIFY OP_CHECKSIG",
            "hex": "76a9143763d6a89295cf0785d55ce3693381df8dd5601a88ac",
            "reqSigs": 1,
            "type": "pubkeyhash",
            "addresses": [
              "LQGq2fXA1HgC9vFCAgKxE5Smt8s7uggedX"
            ]
          }
        }, 
        {
          "value": 0.99000000,
          "n": 5,
          "scriptPubKey": {
            "asm": "OP_DUP OP_HASH160 d15a1a0d4bb166d02cddcde3404418db0f7cddae OP_EQUALVERIFY OP_CHECKSIG",
            "hex": "76a914d15a1a0d4bb166d02cddcde3404418db0f7cddae88ac",
            "reqSigs": 1,
            "type": "pubkeyhash",
            "addresses": [
              "LeJuRgjtnbHpU7qEsEDRKALxdJZh2k466f"
            ]
          }
        }, 
        {
          "value": 1.72039668,
          "n": 6,
          "scriptPubKey": {
            "asm": "OP_DUP OP_HASH160 04a0e045f35edfa68fa61664ec583105051a2320 OP_EQUALVERIFY OP_CHECKSIG",
            "hex": "76a91404a0e045f35edfa68fa61664ec583105051a232088ac",
            "reqSigs": 1,
            "type": "pubkeyhash",
            "addresses": [
              "LKeRgqzNLAhbxuQe8KeE6SqPPuzJxvB8S8"
            ]
          }
        }, 
        {
          "value": 1.98082217,
          "n": 7,
          "scriptPubKey": {
            "asm": "OP_DUP OP_HASH160 ceca19522455af22662cd0d2ecb324e712f29d75 OP_EQUALVERIFY OP_CHECKSIG",
            "hex": "76a914ceca19522455af22662cd0d2ecb324e712f29d7588ac",
            "reqSigs": 1,
            "type": "pubkeyhash",
            "addresses": [
              "Le5MZor2o5bFZpE3WePxRJNV9JAB54onpR"
            ]
          }
        }, 
        {
          "value": 1.46663368,
          "n": 8,
          "scriptPubKey": {
            "asm": "OP_DUP OP_HASH160 f9871c6dd621879729cd7d502a5af822501cf2aa OP_EQUALVERIFY OP_CHECKSIG",
            "hex": "76a914f9871c6dd621879729cd7d502a5af822501cf2aa88ac",
            "reqSigs": 1,
            "type": "pubkeyhash",
            "addresses": [
              "LhyLNfBkoKshT7R8Pce6vkB9T2cP2o84hx"
            ]
          }
        }
      ],
      "hex": "010000000100fe01bca7f1e05ba2a3f1f67c25c211f357851d049ed83d4502267967a0e8f7080000006b483045022100caf557d1daf6540b49623e0b60d4c0a5402ed0d8b03ce6fca838089a94f5c16302207bbb62dafc23121b5932c4ab18d5d8b1bd0f5e568046a530926730a867791d1b01210294a923650a9a8f247b2be51a2064d0710c99dfbd0d4c37a26e76946253611554ffffffff0980cc0602000000001976a914195ed772fcad80f46c1ef87176d2b54eb37e418288ac0c441c05000000001976a914945f59e71e311a75873bbc7467099b1fe16884ed88ac00a3e111000000001976a914056201d5ceef827ba3b790a6ac82bbed366771ff88acc09ee605000000001976a9144fc1ec74250e9f684a51e159a2efab77994cb52e88ac6e1dbb01000000001976a9143763d6a89295cf0785d55ce3693381df8dd5601a88acc09ee605000000001976a914d15a1a0d4bb166d02cddcde3404418db0f7cddae88acf41d410a000000001976a91404a0e045f35edfa68fa61664ec583105051a232088aca97ece0b000000001976a914ceca19522455af22662cd0d2ecb324e712f29d7588acc8e7bd08000000001976a914f9871c6dd621879729cd7d502a5af822501cf2aa88ac00000000"
    }, 
    {
      "txid": "3d9b1d290d69cbfa4d510ae27ac9142e0d2310dc5b539645eeded9f067223564",
      "hash": "3d9b1d290d69cbfa4d510ae27ac9142e0d2310dc5b539645eeded9f067223564",
      "version": 1,
      "size": 338,
      "vsize": 338,
      "locktime": 0,
      "vin": [
        {
          "txid": "2da3f79d157a34635c9dc547dea36ed4a4287c19fa7cc8aed54be626ed65765a",
          "vout": 1,
          "scriptSig": {
            "asm": "304402201e1ba2e0afabff49402e18c02b82e64ad1c95a908a66a7ccfbb9af8133474869022011888091690f0a885572cd0ed28913d639b003165d95efa9119c337c2480e9c9[ALL] 02ccca69133bc4ff6220655cf2942fb89bdf233f04d5bfcd13912a070cd2425a5d",
            "hex": "47304402201e1ba2e0afabff49402e18c02b82e64ad1c95a908a66a7ccfbb9af8133474869022011888091690f0a885572cd0ed28913d639b003165d95efa9119c337c2480e9c9012102ccca69133bc4ff6220655cf2942fb89bdf233f04d5bfcd13912a070cd2425a5d"
          },
          "sequence": 4294967295
        }, 
        {
          "txid": "ff3572486e8f7bf9de9ecf86199ae443b7e8d6af55321f6ef6017b02144a4901",
          "vout": 0,
          "scriptSig": {
            "asm": "304402207e6eeb59990ad994b75a5995dc2917bbe703636ff5968e6cab68d5f802d84bad02204bf46fbb180522444fae8bfef61fe794ba663766c01132f85360f2a8ae3b7974[ALL] 03fc0388c59b44c11097d1dcf66df13e2a536a6cd5776f20c89ddf3a415e8a40ce",
            "hex": "47304402207e6eeb59990ad994b75a5995dc2917bbe703636ff5968e6cab68d5f802d84bad02204bf46fbb180522444fae8bfef61fe794ba663766c01132f85360f2a8ae3b7974012103fc0388c59b44c11097d1dcf66df13e2a536a6cd5776f20c89ddf3a415e8a40ce"
          },
          "sequence": 4294967295
        }
      ],
      "vout": [
        {
          "value": 4.00754800,
          "n": 0,
          "scriptPubKey": {
            "asm": "OP_DUP OP_HASH160 1ce4e6caa4b9ab12bc9b42480950674522017a0d OP_EQUALVERIFY OP_CHECKSIG",
            "hex": "76a9141ce4e6caa4b9ab12bc9b42480950674522017a0d88ac",
            "reqSigs": 1,
            "type": "pubkeyhash",
            "addresses": [
              "LMrjPwYzuvLngkifsZeKZo9Bsb6Y4KK3p6"
            ]
          }
        }
      ],
      "hex": "01000000025a7665ed26e64bd5aec87cfa197c28a4d46ea3de47c59d5c63347a159df7a32d010000006a47304402201e1ba2e0afabff49402e18c02b82e64ad1c95a908a66a7ccfbb9af8133474869022011888091690f0a885572cd0ed28913d639b003165d95efa9119c337c2480e9c9012102ccca69133bc4ff6220655cf2942fb89bdf233f04d5bfcd13912a070cd2425a5dffffffff01494a14027b01f66e1f3255afd6e8b743e49a1986cf9edef97b8f6e487235ff000000006a47304402207e6eeb59990ad994b75a5995dc2917bbe703636ff5968e6cab68d5f802d84bad02204bf46fbb180522444fae8bfef61fe794ba663766c01132f85360f2a8ae3b7974012103fc0388c59b44c11097d1dcf66df13e2a536a6cd5776f20c89ddf3a415e8a40ceffffffff017008e317000000001976a9141ce4e6caa4b9ab12bc9b42480950674522017a0d88ac00000000"
    }, 
    {
      "txid": "206aa97f443d54b4c72f0e952626b5ba5267c2bf097451db49ea61d9fc85ae99",
      "hash": "206aa97f443d54b4c72f0e952626b5ba5267c2bf097451db49ea61d9fc85ae99",
      "version": 1,
      "size": 223,
      "vsize": 223,
      "locktime": 0,
      "vin": [
        {
          "txid": "7c89b309dc6caa627af8ccdd75e1ccee9dce2ac9002765dd0eeea1fc44a2273f",
          "vout": 1,
          "scriptSig": {
            "asm": "3044022039c70df379a28b49c3d0dab3a4fc8f163e1386ee08413007318d9c8728b97aad022077fab36592448cf8efef68370058806e279cf6498cab6cda84dcf3f2489954cf[ALL] 03625722c7e875965de6adb0adb438ef31dcf853068ac98f2e56962f4ad5e42d6a",
            "hex": "473044022039c70df379a28b49c3d0dab3a4fc8f163e1386ee08413007318d9c8728b97aad022077fab36592448cf8efef68370058806e279cf6498cab6cda84dcf3f2489954cf012103625722c7e875965de6adb0adb438ef31dcf853068ac98f2e56962f4ad5e42d6a"
          },
          "sequence": 4294967295
        }
      ],
      "vout": [
        {
          "value": 1.50000000,
          "n": 0,
          "scriptPubKey": {
            "asm": "OP_HASH160 39b53255d09f8b0e22bde9aa7c6768ff0b5dad72 OP_EQUAL",
            "hex": "a91439b53255d09f8b0e22bde9aa7c6768ff0b5dad7287",
            "reqSigs": 1,
            "type": "scripthash",
            "addresses": [
              "MDAHp8HtckDftn5J7PbLvsaGX9xMg1rxg5"
            ]
          }
        }, 
        {
          "value": 4.15045404,
          "n": 1,
          "scriptPubKey": {
            "asm": "OP_DUP OP_HASH160 63052b7da30aa943875cf561dd0ddbe7bb42b064 OP_EQUALVERIFY OP_CHECKSIG",
            "hex": "76a91463052b7da30aa943875cf561dd0ddbe7bb42b06488ac",
            "reqSigs": 1,
            "type": "pubkeyhash",
            "addresses": [
              "LUFXMQyapwyMtUy571i34sFCeoSuxVoPXB"
            ]
          }
        }
      ],
      "hex": "01000000013f27a244fca1ee0edd652700c92ace9deecce175ddccf87a62aa6cdc09b3897c010000006a473044022039c70df379a28b49c3d0dab3a4fc8f163e1386ee08413007318d9c8728b97aad022077fab36592448cf8efef68370058806e279cf6498cab6cda84dcf3f2489954cf012103625722c7e875965de6adb0adb438ef31dcf853068ac98f2e56962f4ad5e42d6affffffff0280d1f0080000000017a91439b53255d09f8b0e22bde9aa7c6768ff0b5dad72871c17bd18000000001976a91463052b7da30aa943875cf561dd0ddbe7bb42b06488ac00000000"
    }, 
    {
      "txid": "4279a91e60a14cdb2a7265fb9ebadda36ddee876a5a4dff8a9db25b3ee7576d3",
      "hash": "4279a91e60a14cdb2a7265fb9ebadda36ddee876a5a4dff8a9db25b3ee7576d3",
      "version": 1,
      "size": 223,
      "vsize": 223,
      "locktime": 0,
      "vin": [
        {
          "txid": "2eb50f79bf097673f1c39d66660c886bf0a651499fab2fe43b170af15be1db5a",
          "vout": 0,
          "scriptSig": {
            "asm": "3044022053f5aae96ef3c0570a3255a92177f6ad7a4dd73e48deb14f69bbc5c2d1a19922022063abc98f0643f7d93f2ca1fc22fbc2e8f785f9dcf7cec63ca89b023d7d394ce4[ALL] 03c3c86cd3b90d4596935d124099652b45829039b2a9086988ea14e9d389678121",
            "hex": "473044022053f5aae96ef3c0570a3255a92177f6ad7a4dd73e48deb14f69bbc5c2d1a19922022063abc98f0643f7d93f2ca1fc22fbc2e8f785f9dcf7cec63ca89b023d7d394ce4012103c3c86cd3b90d4596935d124099652b45829039b2a9086988ea14e9d389678121"
          },
          "sequence": 4294967295
        }
      ],
      "vout": [
        {
          "value": 0.00054646,
          "n": 0,
          "scriptPubKey": {
            "asm": "OP_DUP OP_HASH160 4d69c23ba30a45cdade5242fc67fc66d4b8bf170 OP_EQUALVERIFY OP_CHECKSIG",
            "hex": "76a9144d69c23ba30a45cdade5242fc67fc66d4b8bf17088ac",
            "reqSigs": 1,
            "type": "pubkeyhash",
            "addresses": [
              "LSHGzEDzeF842axcjstYf3HfKmkChVAxHz"
            ]
          }
        }, 
        {
          "value": 0.00137655,
          "n": 1,
          "scriptPubKey": {
            "asm": "OP_HASH160 3e756f983522b3f8972d5fb46fcc702b5a69d032 OP_EQUAL",
            "hex": "a9143e756f983522b3f8972d5fb46fcc702b5a69d03287",
            "reqSigs": 1,
            "type": "scripthash",
            "addresses": [
              "MDbQouyZdy617CtdzBY8PcWAM6EScAmZHt"
            ]
          }
        }
      ],
      "hex": "01000000015adbe15bf10a173be42fab9f4951a6f06b880c66669dc3f1737609bf790fb52e000000006a473044022053f5aae96ef3c0570a3255a92177f6ad7a4dd73e48deb14f69bbc5c2d1a19922022063abc98f0643f7d93f2ca1fc22fbc2e8f785f9dcf7cec63ca89b023d7d394ce4012103c3c86cd3b90d4596935d124099652b45829039b2a9086988ea14e9d389678121ffffffff0276d50000000000001976a9144d69c23ba30a45cdade5242fc67fc66d4b8bf17088acb71902000000000017a9143e756f983522b3f8972d5fb46fcc702b5a69d0328700000000"
    }, 
    {
      "txid": "132efc0f15af892d1f3a3d97c7471b5645114b7a0472e4d02c68aaa9a7683f6a",
      "hash": "132efc0f15af892d1f3a3d97c7471b5645114b7a0472e4d02c68aaa9a7683f6a",
      "version": 1,
      "size": 225,
      "vsize": 225,
      "locktime": 0,
      "vin": [
        {
          "txid": "864e1e5b7da6a89a87807c62ad05226e88a578cfc4d87b45c3f7aa943b52e7cf",
          "vout": 460,
          "scriptSig": {
            "asm": "3044022100ede43d1f9d16f94f118104a9232a368d4e4db48d98687b3f28fa3a4ab38030bf021f1212265117c9353ee48968d4616b33dc1438f595cd5090636a8841a44090be[ALL] 03af4a6c7899ef0c582320ef64851a1859d76236b6f8a24db580ea1eaae2e080a1",
            "hex": "473044022100ede43d1f9d16f94f118104a9232a368d4e4db48d98687b3f28fa3a4ab38030bf021f1212265117c9353ee48968d4616b33dc1438f595cd5090636a8841a44090be012103af4a6c7899ef0c582320ef64851a1859d76236b6f8a24db580ea1eaae2e080a1"
          },
          "sequence": 4294967295
        }
      ],
      "vout": [
        {
          "value": 0.00055449,
          "n": 0,
          "scriptPubKey": {
            "asm": "OP_DUP OP_HASH160 f5a5043188d57716637b77fc8faf117d5852f80f OP_EQUALVERIFY OP_CHECKSIG",
            "hex": "76a914f5a5043188d57716637b77fc8faf117d5852f80f88ac",
            "reqSigs": 1,
            "type": "pubkeyhash",
            "addresses": [
              "LhcoVkVJrLyzoPSoCnGFSfEpm8p5veUTMo"
            ]
          }
        }, 
        {
          "value": 0.12430440,
          "n": 1,
          "scriptPubKey": {
            "asm": "OP_DUP OP_HASH160 6fbac1b5de66e6c32f62adf27cdd255320e9507a OP_EQUALVERIFY OP_CHECKSIG",
            "hex": "76a9146fbac1b5de66e6c32f62adf27cdd255320e9507a88ac",
            "reqSigs": 1,
            "type": "pubkeyhash",
            "addresses": [
              "LVQizb3wAgq6Ax2QWo9fzKkAkKQWoqGT69"
            ]
          }
        }
      ],
      "hex": "0100000001cfe7523b94aaf7c3457bd8c4cf78a5886e2205ad627c80879aa8a67d5b1e4e86cc0100006a473044022100ede43d1f9d16f94f118104a9232a368d4e4db48d98687b3f28fa3a4ab38030bf021f1212265117c9353ee48968d4616b33dc1438f595cd5090636a8841a44090be012103af4a6c7899ef0c582320ef64851a1859d76236b6f8a24db580ea1eaae2e080a1ffffffff0299d80000000000001976a914f5a5043188d57716637b77fc8faf117d5852f80f88ac68acbd00000000001976a9146fbac1b5de66e6c32f62adf27cdd255320e9507a88ac00000000"
    }, 
    {
      "txid": "86f7d9900792b2b0c9d5c907b0f28cba89e494b30864fbf3724beea91b78109c",
      "hash": "86f7d9900792b2b0c9d5c907b0f28cba89e494b30864fbf3724beea91b78109c",
      "version": 1,
      "size": 225,
      "vsize": 225,
      "locktime": 0,
      "vin": [
        {
          "txid": "86fa55d6036791854ecfcbe95a5ffd3e9048f53fc7c4630d4ff8bf39cfb4c789",
          "vout": 1,
          "scriptSig": {
            "asm": "3044022068f2e9d52a6d9a6c8f771b929265f4707e8093f580ab02422962b2221b3ef02e02202e14d63f35c30791e5e7d9c60f1ff10f3f57ec1908778f7f8111dfa96063e9c1[ALL] 022786b2dee3a95194776845f10ce31bc720f0effd2f49631ea4a9432595203c31",
            "hex": "473044022068f2e9d52a6d9a6c8f771b929265f4707e8093f580ab02422962b2221b3ef02e02202e14d63f35c30791e5e7d9c60f1ff10f3f57ec1908778f7f8111dfa96063e9c10121022786b2dee3a95194776845f10ce31bc720f0effd2f49631ea4a9432595203c31"
          },
          "sequence": 4294967295
        }
      ],
      "vout": [
        {
          "value": 0.05650000,
          "n": 0,
          "scriptPubKey": {
            "asm": "OP_DUP OP_HASH160 e407112f08265c54cb7cf4c2b01423584087af36 OP_EQUALVERIFY OP_CHECKSIG",
            "hex": "76a914e407112f08265c54cb7cf4c2b01423584087af3688ac",
            "reqSigs": 1,
            "type": "pubkeyhash",
            "addresses": [
              "Lg1enyx9Ebh6XzEzA1vZKQJobH7wH5AdWq"
            ]
          }
        }, 
        {
          "value": 0.00055000,
          "n": 1,
          "scriptPubKey": {
            "asm": "OP_DUP OP_HASH160 11bb5fbea49013e40c69506be3ded2fc3ebd843e OP_EQUALVERIFY OP_CHECKSIG",
            "hex": "76a91411bb5fbea49013e40c69506be3ded2fc3ebd843e88ac",
            "reqSigs": 1,
            "type": "pubkeyhash",
            "addresses": [
              "LLqiDSwb1zJmKLMM2JD24Ad5ymMgfWBnCZ"
            ]
          }
        }
      ],
      "hex": "010000000189c7b4cf39bff84f0d63c4c73ff548903efd5f5ae9cbcf4e85916703d655fa86010000006a473044022068f2e9d52a6d9a6c8f771b929265f4707e8093f580ab02422962b2221b3ef02e02202e14d63f35c30791e5e7d9c60f1ff10f3f57ec1908778f7f8111dfa96063e9c10121022786b2dee3a95194776845f10ce31bc720f0effd2f49631ea4a9432595203c31ffffffff0250365600000000001976a914e407112f08265c54cb7cf4c2b01423584087af3688acd8d60000000000001976a91411bb5fbea49013e40c69506be3ded2fc3ebd843e88ac00000000"
    }, 
    {
      "txid": "1a32457f370002e005317951941392b5ba06b60921421f0c28f0f8d5f9d4016e",
      "hash": "1a32457f370002e005317951941392b5ba06b60921421f0c28f0f8d5f9d4016e",
      "version": 2,
      "size": 1256,
      "vsize": 1256,
      "locktime": 1359457,
      "vin": [
        {
          "txid": "d8668d51f384b94fb082ec85a56f28c036af0e8bdccda208384bfa53640d497f",
          "vout": 211,
          "scriptSig": {
            "asm": "3044022048f027c5313cb6c777156b1f43f5339f763b76d36ca8950a3c5477e129382b1b02200f8ed22b5a240647e5420f2fcd7c4f1b8d1666922c6c937bb0815c8609397425[ALL] 02539a68c04e160c6ccb9e39e6e4c963f9005433273c5735fed820d384b9f74841",
            "hex": "473044022048f027c5313cb6c777156b1f43f5339f763b76d36ca8950a3c5477e129382b1b02200f8ed22b5a240647e5420f2fcd7c4f1b8d1666922c6c937bb0815c8609397425012102539a68c04e160c6ccb9e39e6e4c963f9005433273c5735fed820d384b9f74841"
          },
          "sequence": 4294967294
        }, 
        {
          "txid": "d8668d51f384b94fb082ec85a56f28c036af0e8bdccda208384bfa53640d497f",
          "vout": 295,
          "scriptSig": {
            "asm": "3045022100aa03905421b03cab2e0ca4b9306ed7b684fe14b15b0030036c4525177a3bc28b0220518013c99e7c7d862736e361f03b525b3440d5c998a73922b4e2abdbcb02ccc0[ALL] 022e83264c03d07e39a3ed2e6b78cafd2a571652c083f4cfce9c1dd5362fb46f34",
            "hex": "483045022100aa03905421b03cab2e0ca4b9306ed7b684fe14b15b0030036c4525177a3bc28b0220518013c99e7c7d862736e361f03b525b3440d5c998a73922b4e2abdbcb02ccc00121022e83264c03d07e39a3ed2e6b78cafd2a571652c083f4cfce9c1dd5362fb46f34"
          },
          "sequence": 4294967294
        }, 
        {
          "txid": "d8668d51f384b94fb082ec85a56f28c036af0e8bdccda208384bfa53640d497f",
          "vout": 302,
          "scriptSig": {
            "asm": "3045022100c3935e22516c5f5955d58e8b1e1a1a82afa6828c23db71ae2ca17c27d2bd0fce0220019b9a6db5ee30238793e47ce22d6d9a4535ca7e13793393d36d9f96e396a984[ALL] 024151d6ca9bfea0a20f860e1491f5b3ad35464ea25b1f368cc162edc4369a51a4",
            "hex": "483045022100c3935e22516c5f5955d58e8b1e1a1a82afa6828c23db71ae2ca17c27d2bd0fce0220019b9a6db5ee30238793e47ce22d6d9a4535ca7e13793393d36d9f96e396a9840121024151d6ca9bfea0a20f860e1491f5b3ad35464ea25b1f368cc162edc4369a51a4"
          },
          "sequence": 4294967294
        }, 
        {
          "txid": "d8668d51f384b94fb082ec85a56f28c036af0e8bdccda208384bfa53640d497f",
          "vout": 304,
          "scriptSig": {
            "asm": "3045022100f81b85c525b820a6a62d6c364ff5dc07cf1140b07395313147b1403b297106ec0220337ce7ab980ced80e02defda160d12682244590a7f1efab498b3d2362109400f[ALL] 0302798fe254c8aadb8086d4d1803bdcd5a923cc39ece484f2a908abe60d216d1a",
            "hex": "483045022100f81b85c525b820a6a62d6c364ff5dc07cf1140b07395313147b1403b297106ec0220337ce7ab980ced80e02defda160d12682244590a7f1efab498b3d2362109400f01210302798fe254c8aadb8086d4d1803bdcd5a923cc39ece484f2a908abe60d216d1a"
          },
          "sequence": 4294967294
        }, 
        {
          "txid": "9eaea942c790da75d03fe8c00957b5b48c4f16aaa85f173aa5cb1634808720af",
          "vout": 177,
          "scriptSig": {
            "asm": "3045022100e0879254d238c0bbfa239564b0ab3884257d12508a0f3c778717bba395463adc022078d8fb93cae23dac8344dd7808e43ff468586686b611e6eaf8b7b10a27e7d0ce[ALL] 020b2fec018335910bc9f80cfe4fcc330d732a1ae86ef9ac5d369be029c16889ba",
            "hex": "483045022100e0879254d238c0bbfa239564b0ab3884257d12508a0f3c778717bba395463adc022078d8fb93cae23dac8344dd7808e43ff468586686b611e6eaf8b7b10a27e7d0ce0121020b2fec018335910bc9f80cfe4fcc330d732a1ae86ef9ac5d369be029c16889ba"
          },
          "sequence": 4294967294
        }, 
        {
          "txid": "9669417f8658c950e2e827d471920037965e3cc4deb09678009ed46b1620d10c",
          "vout": 561,
          "scriptSig": {
            "asm": "30430220578824eb903af56b7dd58f7b8cbdcd5ece7d86c9d9b164e6c285178b34ba561d021f6d2bb40d340c0810c77c19f66a02e85373977b965c3196a9999b633f8410c8[ALL] 0363049cc149bbfd8a7bebe24943765a01766d6ba57230bc73b9a6446d7f01229a",
            "hex": "4630430220578824eb903af56b7dd58f7b8cbdcd5ece7d86c9d9b164e6c285178b34ba561d021f6d2bb40d340c0810c77c19f66a02e85373977b965c3196a9999b633f8410c801210363049cc149bbfd8a7bebe24943765a01766d6ba57230bc73b9a6446d7f01229a"
          },
          "sequence": 4294967294
        }, 
        {
          "txid": "9669417f8658c950e2e827d471920037965e3cc4deb09678009ed46b1620d10c",
          "vout": 1704,
          "scriptSig": {
            "asm": "304402206df01a537527b5920e61dca9839b340db1479d57ffbb64bf93187289fd9d5666022073e1f37284fe8512bd9222cec4607d50af4656e0623deb079119aea0cd2329b9[ALL] 035239338459916f0b024ff0a5bb04e8824f06f32fc8ff871a0086646d59c2eea4",
            "hex": "47304402206df01a537527b5920e61dca9839b340db1479d57ffbb64bf93187289fd9d5666022073e1f37284fe8512bd9222cec4607d50af4656e0623deb079119aea0cd2329b90121035239338459916f0b024ff0a5bb04e8824f06f32fc8ff871a0086646d59c2eea4"
          },
          "sequence": 4294967294
        }, 
        {
          "txid": "e4b907f9c6d14bbddea79bd2c078e12e3c1b7f32d7e46d8bbac087c9e1f3da5e",
          "vout": 1,
          "scriptSig": {
            "asm": "3045022100adbc9e4c666e4052250f2fa971ca3042a016f6eb6a18156b24ae43cdfd7e752602204b40d675248b84b7ee7398de98334abba345aff1a185ce15998a3f6a1163deaf[ALL] 036e3d98be2ad2a1464d2cdf328841db5cea0bc1f59651e94127f1f001dbc4d9f2",
            "hex": "483045022100adbc9e4c666e4052250f2fa971ca3042a016f6eb6a18156b24ae43cdfd7e752602204b40d675248b84b7ee7398de98334abba345aff1a185ce15998a3f6a1163deaf0121036e3d98be2ad2a1464d2cdf328841db5cea0bc1f59651e94127f1f001dbc4d9f2"
          },
          "sequence": 4294967294
        }
      ],
      "vout": [
        {
          "value": 9.23548976,
          "n": 0,
          "scriptPubKey": {
            "asm": "OP_HASH160 a86d59fbc4e66888e75058d123f115610ce4380e OP_EQUAL",
            "hex": "a914a86d59fbc4e66888e75058d123f115610ce4380e87",
            "reqSigs": 1,
            "type": "scripthash",
            "addresses": [
              "MPFikXsBXEp5bA2YmTYBGfA31CEfWe6Nzb"
            ]
          }
        }, 
        {
          "value": 0.00874465,
          "n": 1,
          "scriptPubKey": {
            "asm": "OP_DUP OP_HASH160 5294401f7ebfebae10b00522bc92890b513080c8 OP_EQUALVERIFY OP_CHECKSIG",
            "hex": "76a9145294401f7ebfebae10b00522bc92890b513080c888ac",
            "reqSigs": 1,
            "type": "pubkeyhash",
            "addresses": [
              "LSkbGZquoMbEuQpqPVo832d1RQapv2akXH"
            ]
          }
        }
      ],
      "hex": "02000000087f490d6453fa4b3808a2cddc8b0eaf36c0286fa585ec82b04fb984f3518d66d8d30000006a473044022048f027c5313cb6c777156b1f43f5339f763b76d36ca8950a3c5477e129382b1b02200f8ed22b5a240647e5420f2fcd7c4f1b8d1666922c6c937bb0815c8609397425012102539a68c04e160c6ccb9e39e6e4c963f9005433273c5735fed820d384b9f74841feffffff7f490d6453fa4b3808a2cddc8b0eaf36c0286fa585ec82b04fb984f3518d66d8270100006b483045022100aa03905421b03cab2e0ca4b9306ed7b684fe14b15b0030036c4525177a3bc28b0220518013c99e7c7d862736e361f03b525b3440d5c998a73922b4e2abdbcb02ccc00121022e83264c03d07e39a3ed2e6b78cafd2a571652c083f4cfce9c1dd5362fb46f34feffffff7f490d6453fa4b3808a2cddc8b0eaf36c0286fa585ec82b04fb984f3518d66d82e0100006b483045022100c3935e22516c5f5955d58e8b1e1a1a82afa6828c23db71ae2ca17c27d2bd0fce0220019b9a6db5ee30238793e47ce22d6d9a4535ca7e13793393d36d9f96e396a9840121024151d6ca9bfea0a20f860e1491f5b3ad35464ea25b1f368cc162edc4369a51a4feffffff7f490d6453fa4b3808a2cddc8b0eaf36c0286fa585ec82b04fb984f3518d66d8300100006b483045022100f81b85c525b820a6a62d6c364ff5dc07cf1140b07395313147b1403b297106ec0220337ce7ab980ced80e02defda160d12682244590a7f1efab498b3d2362109400f01210302798fe254c8aadb8086d4d1803bdcd5a923cc39ece484f2a908abe60d216d1afeffffffaf2087803416cba53a175fa8aa164f8cb4b55709c0e83fd075da90c742a9ae9eb10000006b483045022100e0879254d238c0bbfa239564b0ab3884257d12508a0f3c778717bba395463adc022078d8fb93cae23dac8344dd7808e43ff468586686b611e6eaf8b7b10a27e7d0ce0121020b2fec018335910bc9f80cfe4fcc330d732a1ae86ef9ac5d369be029c16889bafeffffff0cd120166bd49e007896b0dec43c5e9637009271d427e8e250c958867f41699631020000694630430220578824eb903af56b7dd58f7b8cbdcd5ece7d86c9d9b164e6c285178b34ba561d021f6d2bb40d340c0810c77c19f66a02e85373977b965c3196a9999b633f8410c801210363049cc149bbfd8a7bebe24943765a01766d6ba57230bc73b9a6446d7f01229afeffffff0cd120166bd49e007896b0dec43c5e9637009271d427e8e250c958867f416996a80600006a47304402206df01a537527b5920e61dca9839b340db1479d57ffbb64bf93187289fd9d5666022073e1f37284fe8512bd9222cec4607d50af4656e0623deb079119aea0cd2329b90121035239338459916f0b024ff0a5bb04e8824f06f32fc8ff871a0086646d59c2eea4feffffff5edaf3e1c987c0ba8b6de4d7327f1b3c2ee178c0d29ba7debd4bd1c6f907b9e4010000006b483045022100adbc9e4c666e4052250f2fa971ca3042a016f6eb6a18156b24ae43cdfd7e752602204b40d675248b84b7ee7398de98334abba345aff1a185ce15998a3f6a1163deaf0121036e3d98be2ad2a1464d2cdf328841db5cea0bc1f59651e94127f1f001dbc4d9f2feffffff02303d0c370000000017a914a86d59fbc4e66888e75058d123f115610ce4380e87e1570d00000000001976a9145294401f7ebfebae10b00522bc92890b513080c888ac61be1400"
    }, 
    {
      "txid": "8449487a515873019e8d7cd8a8c3c2dae1da0ede7a8d3bed8789ddb24fda8c9a",
      "hash": "8449487a515873019e8d7cd8a8c3c2dae1da0ede7a8d3bed8789ddb24fda8c9a",
      "version": 1,
      "size": 226,
      "vsize": 226,
      "locktime": 0,
      "vin": [
        {
          "txid": "b341edb0e85cc345b37a1e6f907d8351aebada02b164d614c8e63fec66592742",
          "vout": 83,
          "scriptSig": {
            "asm": "304502210091562c64a909ad6069d4fa443ffcef175039bbc818c9b9432ddb698c8a7be55f0220782fbd8703ca7fdbcb5facdfd2a2b51ac32853eb1fb4204c18d817a5fda37085[ALL] 03e30f70d778b40a0bb3361b5cf08b782640ba1225bcfab1b3d5f67869633173fc",
            "hex": "48304502210091562c64a909ad6069d4fa443ffcef175039bbc818c9b9432ddb698c8a7be55f0220782fbd8703ca7fdbcb5facdfd2a2b51ac32853eb1fb4204c18d817a5fda37085012103e30f70d778b40a0bb3361b5cf08b782640ba1225bcfab1b3d5f67869633173fc"
          },
          "sequence": 4294967295
        }
      ],
      "vout": [
        {
          "value": 0.00060381,
          "n": 0,
          "scriptPubKey": {
            "asm": "OP_DUP OP_HASH160 d978c2439250895d5a6f97b225ca0450ac4f95ca OP_EQUALVERIFY OP_CHECKSIG",
            "hex": "76a914d978c2439250895d5a6f97b225ca0450ac4f95ca88ac",
            "reqSigs": 1,
            "type": "pubkeyhash",
            "addresses": [
              "Lf3qZK31hTpBn82VtuQnsSXZSFTiLp4V9M"
            ]
          }
        }, 
        {
          "value": 0.11919241,
          "n": 1,
          "scriptPubKey": {
            "asm": "OP_DUP OP_HASH160 cb27e187d57f2506478032f20ead9473da4417da OP_EQUALVERIFY OP_CHECKSIG",
            "hex": "76a914cb27e187d57f2506478032f20ead9473da4417da88ac",
            "reqSigs": 1,
            "type": "pubkeyhash",
            "addresses": [
              "Ldk9D8hd3XoLiX3pibdu89mHqXxy1JkMGS"
            ]
          }
        }
      ],
      "hex": "010000000142275966ec3fe6c814d664b102dabaae51837d906f1e7ab345c35ce8b0ed41b3530000006b48304502210091562c64a909ad6069d4fa443ffcef175039bbc818c9b9432ddb698c8a7be55f0220782fbd8703ca7fdbcb5facdfd2a2b51ac32853eb1fb4204c18d817a5fda37085012103e30f70d778b40a0bb3361b5cf08b782640ba1225bcfab1b3d5f67869633173fcffffffff02ddeb0000000000001976a914d978c2439250895d5a6f97b225ca0450ac4f95ca88ac89dfb500000000001976a914cb27e187d57f2506478032f20ead9473da4417da88ac00000000"
    }
  ],
  "time": 1517285792,
  "mediantime": 1517285181,
  "nonce": 3060887938,
  "bits": "1a042eae",
  "difficulty": 4011378.762614286,
  "chainwork": "0000000000000000000000000000000000000000000000340647b15b9c473fc8",
  "previousblockhash": "9103cfe5363187441af70b491e0ea340302382325a15a9c5881ec37a8ce30c1c",
  "nextblockhash": "40aac106b7c61199a5a1c2bd2f2f1e072d105fbfb6503c84bb71c4d646240903"
}
