{
  "hash": "aecba9fc36a487038ba202156b4370e74bf99f912f9fb22c849348344cc5a66b",
  "confirmations": 3371,
  "strippedsize": 254,
  "size": 254,
  "weight": 1016,
  "height": 1357624,
  "version": 536870912,
  "versionHex": "20000000",
  "merkleroot": "d17ad25d6f003802a65edddfbfe36c85bfdf6abbcf64615a1fa636f8d6f3b03d",
  "tx": [
    {
      "txid": "d17ad25d6f003802a65edddfbfe36c85bfdf6abbcf64615a1fa636f8d6f3b03d",
      "hash": "d17ad25d6f003802a65edddfbfe36c85bfdf6abbcf64615a1fa636f8d6f3b03d",
      "version": 1,
      "size": 173,
      "vsize": 173,
      "locktime": 0,
      "vin": [
        {
          "coinbase": "0338b7141b4d696e656420627920416e74506f6f6c20626a302042205a6bfdd1fabe6d6d4f900878c163e6f6c4656d974fb7c3991ea747aa83bab193bd2868e44992fb5504000000000000003d2a00000000000010000000",
          "sequence": 4294967295
        }
      ],
      "vout": [
        {
          "value": 25.00000000,
          "n": 0,
          "scriptPubKey": {
            "asm": "OP_DUP OP_HASH160 0ff3ccc5e8be88afe24b5d634e5852d474dbdff1 OP_EQUALVERIFY OP_CHECKSIG",
            "hex": "76a9140ff3ccc5e8be88afe24b5d634e5852d474dbdff188ac",
            "reqSigs": 1,
            "type": "pubkeyhash",
            "addresses": [
              "LLgJTbzZMsRTCUF1NtvvL9SR1a4pVieW89"
            ]
          }
        }
      ],
      "hex": "01000000010000000000000000000000000000000000000000000000000000000000000000ffffffff580338b7141b4d696e656420627920416e74506f6f6c20626a302042205a6bfdd1fabe6d6d4f900878c163e6f6c4656d974fb7c3991ea747aa83bab193bd2868e44992fb5504000000000000003d2a00000000000010000000ffffffff0100f90295000000001976a9140ff3ccc5e8be88afe24b5d634e5852d474dbdff188ac00000000"
    }
  ],
  "time": 1517026769,
  "mediantime": 1517026459,
  "nonce": 2203076428,
  "bits": "1a047f14",
  "difficulty": 3731199.183374282,
  "chainwork": "00000000000000000000000000000000000000000000003262e2e59dc1ad0aca",
  "previousblockhash": "a34e657ed72aecf4bf98c9d87c43744e239736e79754b7ffef4dbf32f80adc8e",
  "nextblockhash": "3aa7bd31fd3e65e29e1e657926085a256add0d08280387b5ba5d16b1e39965dd"
}
