{
  "hash": "af387e83e024252090b8fb7ac248314786abb6448d62f7e2e01dafb4f7626332",
  "confirmations": 3175,
  "strippedsize": 2277,
  "size": 2534,
  "weight": 9365,
  "height": 1357820,
  "version": 536870912,
  "versionHex": "20000000",
  "merkleroot": "b6a3ce0ea99baa9659639b07b22c58d19615a846bc7bda990c9b2ca6da3a2185",
  "tx": [
    {
      "txid": "6a68c88fc5dbafa0385ddea8bea35da80a919d7120f96dbeea415e104337cac2",
      "hash": "5e7718153de6b3e80b4320d60ee899cab17a5c23218a31babe4f424f539ec84e",
      "version": 1,
      "size": 244,
      "vsize": 217,
      "locktime": 0,
      "vin": [
        {
          "coinbase": "03fcb7140425626c5a080418f2fe0c000000fabe6d6de0cc3e473497e0ad292e5d838148f5bd115cc17c6b9916ecad361f979e9d9e1440000000000000000d2f6e6f64655374726174756d2f",
          "sequence": 0
        }
      ],
      "vout": [
        {
          "value": 25.00735735,
          "n": 0,
          "scriptPubKey": {
            "asm": "OP_DUP OP_HASH160 0c617fdb2ea42aed30a509595ee21ba3f6688db0 OP_EQUALVERIFY OP_CHECKSIG",
            "hex": "76a9140c617fdb2ea42aed30a509595ee21ba3f6688db088ac",
            "reqSigs": 1,
            "type": "pubkeyhash",
            "addresses": [
              "LLMRAtr3qBje2ySEa3CnZ55LA4TQMWnRY3"
            ]
          }
        }, 
        {
          "value": 0.00000000,
          "n": 1,
          "scriptPubKey": {
            "asm": "OP_RETURN aa21a9ed13460527fb314a5c7bfee43710d58b2940c5a08d7a65d420f2dea55aa26eea3c",
            "hex": "6a24aa21a9ed13460527fb314a5c7bfee43710d58b2940c5a08d7a65d420f2dea55aa26eea3c",
            "type": "nulldata"
          }
        }
      ],
      "hex": "010000000001010000000000000000000000000000000000000000000000000000000000000000ffffffff4c03fcb7140425626c5a080418f2fe0c000000fabe6d6de0cc3e473497e0ad292e5d838148f5bd115cc17c6b9916ecad361f979e9d9e1440000000000000000d2f6e6f64655374726174756d2f0000000002f7320e95000000001976a9140c617fdb2ea42aed30a509595ee21ba3f6688db088ac0000000000000000266a24aa21a9ed13460527fb314a5c7bfee43710d58b2940c5a08d7a65d420f2dea55aa26eea3c0120000000000000000000000000000000000000000000000000000000000000000000000000"
    }, 
    {
      "txid": "471ad40930c4353089297e4488a2fc63c2e141c45eba8bc1578b9f4f56706f09",
      "hash": "471ad40930c4353089297e4488a2fc63c2e141c45eba8bc1578b9f4f56706f09",
      "version": 1,
      "size": 336,
      "vsize": 336,
      "locktime": 0,
      "vin": [
        {
          "txid": "6b1fe5b635242764613db37797dd41aaf9ffe2c81bfc5b006605d5314f4a2bf9",
          "vout": 1,
          "scriptSig": {
            "asm": "0 3045022100dc12813e18fd4b8c93ff135c0ed5a952d22f61bac00355ef3abfee8f36708f8302200de774b036efbdbe8866d11bdbd8bb14d211c5a37652ca5e08f9163b5f66899e[ALL] 30450221009df8b5454a49739ae28e4f7bb0e4ff7c7f38512b07974cc921a221bfadd8deb402202bf445b21aca54fd935aad4f6ed12fb1f470db9bfd59d964b9b7875494d6abe7[ALL] 522102a618de23e72ad0b9e998bb2921f510cb4e078dcfe13c48cae85fec0587718f78210235de611525feac0afecdd7faefde5b645b007e2de1e7e9477ff773a9529a435e52ae",
            "hex": "00483045022100dc12813e18fd4b8c93ff135c0ed5a952d22f61bac00355ef3abfee8f36708f8302200de774b036efbdbe8866d11bdbd8bb14d211c5a37652ca5e08f9163b5f66899e014830450221009df8b5454a49739ae28e4f7bb0e4ff7c7f38512b07974cc921a221bfadd8deb402202bf445b21aca54fd935aad4f6ed12fb1f470db9bfd59d964b9b7875494d6abe70147522102a618de23e72ad0b9e998bb2921f510cb4e078dcfe13c48cae85fec0587718f78210235de611525feac0afecdd7faefde5b645b007e2de1e7e9477ff773a9529a435e52ae"
          },
          "sequence": 4294967295
        }
      ],
      "vout": [
        {
          "value": 0.11427436,
          "n": 0,
          "scriptPubKey": {
            "asm": "OP_DUP OP_HASH160 733affec281547e0e3ac9e15d0de35803eceac14 OP_EQUALVERIFY OP_CHECKSIG",
            "hex": "76a914733affec281547e0e3ac9e15d0de35803eceac1488ac",
            "reqSigs": 1,
            "type": "pubkeyhash",
            "addresses": [
              "LVjEeeKpEv42r8EGcDWS7oMpxHHsdDp2x1"
            ]
          }
        }, 
        {
          "value": 21.15666036,
          "n": 1,
          "scriptPubKey": {
            "asm": "OP_HASH160 8bfc0bc6105a628bd82effe05523aea40f0eb873 OP_EQUAL",
            "hex": "a9148bfc0bc6105a628bd82effe05523aea40f0eb87387",
            "reqSigs": 1,
            "type": "scripthash",
            "addresses": [
              "MLfL6ZGHAz972E3kEmnAurRy8FnjCvjfab"
            ]
          }
        }
      ],
      "hex": "0100000001f92b4a4f31d50566005bfc1bc8e2fff9aa41dd9777b33d6164272435b6e51f6b01000000db00483045022100dc12813e18fd4b8c93ff135c0ed5a952d22f61bac00355ef3abfee8f36708f8302200de774b036efbdbe8866d11bdbd8bb14d211c5a37652ca5e08f9163b5f66899e014830450221009df8b5454a49739ae28e4f7bb0e4ff7c7f38512b07974cc921a221bfadd8deb402202bf445b21aca54fd935aad4f6ed12fb1f470db9bfd59d964b9b7875494d6abe70147522102a618de23e72ad0b9e998bb2921f510cb4e078dcfe13c48cae85fec0587718f78210235de611525feac0afecdd7faefde5b645b007e2de1e7e9477ff773a9529a435e52aeffffffff026c5eae00000000001976a914733affec281547e0e3ac9e15d0de35803eceac1488ac74801a7e0000000017a9148bfc0bc6105a628bd82effe05523aea40f0eb8738700000000"
    }, 
    {
      "txid": "cfdaa0addde6cdb9d1902e401afcad06ccb975e7d6aa89473dfb25c1a867adaf",
      "hash": "cfdaa0addde6cdb9d1902e401afcad06ccb975e7d6aa89473dfb25c1a867adaf",
      "version": 1,
      "size": 225,
      "vsize": 225,
      "locktime": 0,
      "vin": [
        {
          "txid": "1735b2cc94691899f08defc6946ebd73c4e806926e4aa734aa147b84c566bef0",
          "vout": 1,
          "scriptSig": {
            "asm": "304402200932c453e999e440a3989e77d39d5b6c6b694e0981b442e9150e3bdba0c20ca10220594237cee93678c34bc6cfaded59e42c46afce8e6a24f03c759f16bcc187057e[ALL] 03afc0db4580e035fecad119b32608b31b416e5231aca58a4c906a630aef229786",
            "hex": "47304402200932c453e999e440a3989e77d39d5b6c6b694e0981b442e9150e3bdba0c20ca10220594237cee93678c34bc6cfaded59e42c46afce8e6a24f03c759f16bcc187057e012103afc0db4580e035fecad119b32608b31b416e5231aca58a4c906a630aef229786"
          },
          "sequence": 4294967295
        }
      ],
      "vout": [
        {
          "value": 1.81000000,
          "n": 0,
          "scriptPubKey": {
            "asm": "OP_DUP OP_HASH160 8cb586cd70600f5f1168402ad6afeedc0b9a56a0 OP_EQUALVERIFY OP_CHECKSIG",
            "hex": "76a9148cb586cd70600f5f1168402ad6afeedc0b9a56a088ac",
            "reqSigs": 1,
            "type": "pubkeyhash",
            "addresses": [
              "LY3xKkqYgXoMYRCBAV3BB63N9jpf9rcz1X"
            ]
          }
        }, 
        {
          "value": 164.60856710,
          "n": 1,
          "scriptPubKey": {
            "asm": "OP_DUP OP_HASH160 0d96bb5d578959755234d8fb1382dbeee9141588 OP_EQUALVERIFY OP_CHECKSIG",
            "hex": "76a9140d96bb5d578959755234d8fb1382dbeee914158888ac",
            "reqSigs": 1,
            "type": "pubkeyhash",
            "addresses": [
              "LLTock1VMnnhgSKbVW3dy3f75NQbjhdjrd"
            ]
          }
        }
      ],
      "hex": "0100000001f0be66c5847b14aa34a74a6e9206e8c473bd6e94c6ef8df099186994ccb23517010000006a47304402200932c453e999e440a3989e77d39d5b6c6b694e0981b442e9150e3bdba0c20ca10220594237cee93678c34bc6cfaded59e42c46afce8e6a24f03c759f16bcc187057e012103afc0db4580e035fecad119b32608b31b416e5231aca58a4c906a630aef229786ffffffff0240d7c90a000000001976a9148cb586cd70600f5f1168402ad6afeedc0b9a56a088ac86bd24d5030000001976a9140d96bb5d578959755234d8fb1382dbeee914158888ac00000000"
    }, 
    {
      "txid": "22a2d05b20e196f2bbee437d42abe8854fc185a7092e0b2c19896916bc714571",
      "hash": "22a2d05b20e196f2bbee437d42abe8854fc185a7092e0b2c19896916bc714571",
      "version": 1,
      "size": 226,
      "vsize": 226,
      "locktime": 0,
      "vin": [
        {
          "txid": "40b6b6c2c392ea94f23faa8db06adc9830673a1e8eb5b4f482eab1177968782d",
          "vout": 1,
          "scriptSig": {
            "asm": "3045022100edaeed4fe26bdad467a7212823d0d9fc667c5d99867e5966b567c874f93dfd3a0220693c899e999d47c6a56593e40b5a73231b0575a5c52a0cd12d0487b35e8b04fb[ALL] 02c9ef2b04b556d10702056b6fd23d55613324446061e3e5c06e2ae7c657b36b18",
            "hex": "483045022100edaeed4fe26bdad467a7212823d0d9fc667c5d99867e5966b567c874f93dfd3a0220693c899e999d47c6a56593e40b5a73231b0575a5c52a0cd12d0487b35e8b04fb012102c9ef2b04b556d10702056b6fd23d55613324446061e3e5c06e2ae7c657b36b18"
          },
          "sequence": 4294967295
        }
      ],
      "vout": [
        {
          "value": 8.99900000,
          "n": 0,
          "scriptPubKey": {
            "asm": "OP_DUP OP_HASH160 e83372b0f4e893ba29b2f1425a65100639fa33e3 OP_EQUALVERIFY OP_CHECKSIG",
            "hex": "76a914e83372b0f4e893ba29b2f1425a65100639fa33e388ac",
            "reqSigs": 1,
            "type": "pubkeyhash",
            "addresses": [
              "LgPifPUMJeAsvh7o6yLuBHfL2iB8VT9ftU"
            ]
          }
        }, 
        {
          "value": 157.42501413,
          "n": 1,
          "scriptPubKey": {
            "asm": "OP_DUP OP_HASH160 0c23a16df4add89845c0f29027fdb60658f566f7 OP_EQUALVERIFY OP_CHECKSIG",
            "hex": "76a9140c23a16df4add89845c0f29027fdb60658f566f788ac",
            "reqSigs": 1,
            "type": "pubkeyhash",
            "addresses": [
              "LLL94Athn5LDf4kqTDQfYfMxVpky2UAeDW"
            ]
          }
        }
      ],
      "hex": "01000000012d78687917b1ea82f4b4b58e1e3a673098dc6ab08daa3ff294ea92c3c2b6b640010000006b483045022100edaeed4fe26bdad467a7212823d0d9fc667c5d99867e5966b567c874f93dfd3a0220693c899e999d47c6a56593e40b5a73231b0575a5c52a0cd12d0487b35e8b04fb012102c9ef2b04b556d10702056b6fd23d55613324446061e3e5c06e2ae7c657b36b18ffffffff026062a335000000001976a914e83372b0f4e893ba29b2f1425a65100639fa33e388ac258253aa030000001976a9140c23a16df4add89845c0f29027fdb60658f566f788ac00000000"
    }, 
    {
      "txid": "67de14fa80161585a7222b81cd4fe6aee32319bd957da34e40d60ea1d78a08fd",
      "hash": "67de14fa80161585a7222b81cd4fe6aee32319bd957da34e40d60ea1d78a08fd",
      "version": 1,
      "size": 226,
      "vsize": 226,
      "locktime": 0,
      "vin": [
        {
          "txid": "6ce37f27b73fa81035f74ee2a3cc2c8e8eba552f92925ce8974b8a254b7a66ad",
          "vout": 1,
          "scriptSig": {
            "asm": "3045022100e47aa65989e390b81f43596a8d53051d482331e53516495853e7b0f9657157b702201edc9c3e20d2e72bb3d7739d0709d5a34be2aa54fde55ae65e43467c7c44609e[ALL] 024d0d02ea2a7744b250ca27e79737bb758fe4171adf315930e9a4e656b1572919",
            "hex": "483045022100e47aa65989e390b81f43596a8d53051d482331e53516495853e7b0f9657157b702201edc9c3e20d2e72bb3d7739d0709d5a34be2aa54fde55ae65e43467c7c44609e0121024d0d02ea2a7744b250ca27e79737bb758fe4171adf315930e9a4e656b1572919"
          },
          "sequence": 4294967295
        }
      ],
      "vout": [
        {
          "value": 8.99900000,
          "n": 0,
          "scriptPubKey": {
            "asm": "OP_DUP OP_HASH160 0b674f85f0a3d7e9b0db433f8b4d43fa082dbf06 OP_EQUALVERIFY OP_CHECKSIG",
            "hex": "76a9140b674f85f0a3d7e9b0db433f8b4d43fa082dbf0688ac",
            "reqSigs": 1,
            "type": "pubkeyhash",
            "addresses": [
              "LLGFTULLpSrehRxPkuVp7vybG2dEdZ7kiP"
            ]
          }
        }, 
        {
          "value": 157.44059334,
          "n": 1,
          "scriptPubKey": {
            "asm": "OP_DUP OP_HASH160 7ea5bb39492312b58574313ce615126988eb24f1 OP_EQUALVERIFY OP_CHECKSIG",
            "hex": "76a9147ea5bb39492312b58574313ce615126988eb24f188ac",
            "reqSigs": 1,
            "type": "pubkeyhash",
            "addresses": [
              "LWmbwbi3JfoqaBL3G1jyqyxBjAsSsjNAKm"
            ]
          }
        }
      ],
      "hex": "0100000001ad667a4b258a4b97e85c92922f55ba8e8e2ccca3e24ef73510a83fb7277fe36c010000006b483045022100e47aa65989e390b81f43596a8d53051d482331e53516495853e7b0f9657157b702201edc9c3e20d2e72bb3d7739d0709d5a34be2aa54fde55ae65e43467c7c44609e0121024d0d02ea2a7744b250ca27e79737bb758fe4171adf315930e9a4e656b1572919ffffffff026062a335000000001976a9140b674f85f0a3d7e9b0db433f8b4d43fa082dbf0688acc6476baa030000001976a9147ea5bb39492312b58574313ce615126988eb24f188ac00000000"
    }, 
    {
      "txid": "36bd280f448008b334194a643397c37389c08e7f79ddb14b2c4730a92f047943",
      "hash": "e8d217411913bb52ee3af8cdfa8625cb8abdba6938e16f22b376335df5b07957",
      "version": 1,
      "size": 373,
      "vsize": 208,
      "locktime": 0,
      "vin": [
        {
          "txid": "fe8c8f1d0118564b0e690c582fd0f32de843f36c53abea1020df9b6e64f64d99",
          "vout": 1,
          "scriptSig": {
            "asm": "002094e135cef725e45dd4afb57f1808e55a1008f63a533ddb2403e0628dd764a363",
            "hex": "22002094e135cef725e45dd4afb57f1808e55a1008f63a533ddb2403e0628dd764a363"
          },
          "txinwitness": [
            "", 
            "3045022100be39223f5cb58533041de6e8314558c7363cb83a7e4c8d48706fd9e0605b341002200478cfddd92dbb99f1d092f654798d449d6b4a86ec47dacb74a1a9921990215001", 
            "30440220474e1ab02e102710c604764f36f6d7c4a166fced82466fd03f3cf138d3571e4502202d77c97f42baef9480526e7f752b00009b8538a6314e871f64002d99f7b64d5e01", 
            "5221038661f954fba41f32db9a16f0cf0381e754a97af05da06937e005ce8360182b34210293cd75ae63055fa43e4bf0ee7d36f8616043752d372979d4cf2fba3170c1702d52ae"
          ],
          "sequence": 4294967295
        }
      ],
      "vout": [
        {
          "value": 0.47440000,
          "n": 0,
          "scriptPubKey": {
            "asm": "OP_DUP OP_HASH160 d23fdac9bceb70abf94bfc1b4860224f0a2e35c7 OP_EQUALVERIFY OP_CHECKSIG",
            "hex": "76a914d23fdac9bceb70abf94bfc1b4860224f0a2e35c788ac",
            "reqSigs": 1,
            "type": "pubkeyhash",
            "addresses": [
              "LePefCJL4DWHwfk4jYFWwSyTHFzYMzjHMV"
            ]
          }
        }, 
        {
          "value": 2.82473600,
          "n": 1,
          "scriptPubKey": {
            "asm": "OP_HASH160 c522180335f2b9d06c9db38fed4b2038f64104a1 OP_EQUAL",
            "hex": "a914c522180335f2b9d06c9db38fed4b2038f64104a187",
            "reqSigs": 1,
            "type": "scripthash",
            "addresses": [
              "MRsWC6irFcmRMXRV5uvjNM43b4jHe2RcgR"
            ]
          }
        }
      ],
      "hex": "01000000000101994df6646e9bdf2010eaab536cf343e82df3d02f580c690e4b5618011d8f8cfe010000002322002094e135cef725e45dd4afb57f1808e55a1008f63a533ddb2403e0628dd764a363ffffffff0280e0d302000000001976a914d23fdac9bceb70abf94bfc1b4860224f0a2e35c788ac8034d6100000000017a914c522180335f2b9d06c9db38fed4b2038f64104a1870400483045022100be39223f5cb58533041de6e8314558c7363cb83a7e4c8d48706fd9e0605b341002200478cfddd92dbb99f1d092f654798d449d6b4a86ec47dacb74a1a99219902150014730440220474e1ab02e102710c604764f36f6d7c4a166fced82466fd03f3cf138d3571e4502202d77c97f42baef9480526e7f752b00009b8538a6314e871f64002d99f7b64d5e01475221038661f954fba41f32db9a16f0cf0381e754a97af05da06937e005ce8360182b34210293cd75ae63055fa43e4bf0ee7d36f8616043752d372979d4cf2fba3170c1702d52ae00000000"
    }, 
    {
      "txid": "14ec68d82f3d696e2e0d3046d1f23ff5a940564001c7c36dd2c1f273185b6a34",
      "hash": "14ec68d82f3d696e2e0d3046d1f23ff5a940564001c7c36dd2c1f273185b6a34",
      "version": 1,
      "size": 225,
      "vsize": 225,
      "locktime": 1357772,
      "vin": [
        {
          "txid": "22618746a68ce5daaaff2e82438b5a309b4916662685cb06b390a059f112f197",
          "vout": 4443,
          "scriptSig": {
            "asm": "304402202683724aedffbed093783830910e74ec9afdac7434d9dc4433086de986fc2e53022029255e74d6c0834627c5ef596f0b7dc5a2d03b6306b5509372c30f9dfb42eb66[ALL] 0320152bfb8797c8f565ee5e20b705a018c1c8d91ea831aafee08ce2152307452d",
            "hex": "47304402202683724aedffbed093783830910e74ec9afdac7434d9dc4433086de986fc2e53022029255e74d6c0834627c5ef596f0b7dc5a2d03b6306b5509372c30f9dfb42eb6601210320152bfb8797c8f565ee5e20b705a018c1c8d91ea831aafee08ce2152307452d"
          },
          "sequence": 4294967294
        }
      ],
      "vout": [
        {
          "value": 0.04555634,
          "n": 0,
          "scriptPubKey": {
            "asm": "OP_DUP OP_HASH160 2758a62de49f99bfb33bc254c358beb63af7789a OP_EQUALVERIFY OP_CHECKSIG",
            "hex": "76a9142758a62de49f99bfb33bc254c358beb63af7789a88ac",
            "reqSigs": 1,
            "type": "pubkeyhash",
            "addresses": [
              "LNozp9LGLmR3SQ5vGsjNgLCgLrvaVVVUQM"
            ]
          }
        }, 
        {
          "value": 0.01002009,
          "n": 1,
          "scriptPubKey": {
            "asm": "OP_DUP OP_HASH160 df2bd2496441252d0f47f0523778e58971d4efcc OP_EQUALVERIFY OP_CHECKSIG",
            "hex": "76a914df2bd2496441252d0f47f0523778e58971d4efcc88ac",
            "reqSigs": 1,
            "type": "pubkeyhash",
            "addresses": [
              "LfZySku9EMAGmRGv6esEK2YQmtdFKUbkRa"
            ]
          }
        }
      ],
      "hex": "010000000197f112f159a090b306cb85266616499b305a8b43822effaadae58ca6468761225b1100006a47304402202683724aedffbed093783830910e74ec9afdac7434d9dc4433086de986fc2e53022029255e74d6c0834627c5ef596f0b7dc5a2d03b6306b5509372c30f9dfb42eb6601210320152bfb8797c8f565ee5e20b705a018c1c8d91ea831aafee08ce2152307452dfeffffff0272834500000000001976a9142758a62de49f99bfb33bc254c358beb63af7789a88ac194a0f00000000001976a914df2bd2496441252d0f47f0523778e58971d4efcc88acccb71400"
    }, 
    {
      "txid": "16d3e412a4ee7aea73c3de5d1a4d460e912aa03705fd5e23c219e9a534c858bf",
      "hash": "16d3e412a4ee7aea73c3de5d1a4d460e912aa03705fd5e23c219e9a534c858bf",
      "version": 1,
      "size": 225,
      "vsize": 225,
      "locktime": 0,
      "vin": [
        {
          "txid": "810feae71419d879ed0f264d152151437a9af548d2288c97818ae399c6030e09",
          "vout": 208,
          "scriptSig": {
            "asm": "304402203eeca71cd871fa67c1c15b4497ae3e8cade6289e68424a8a8d94a9ffee4dd1ae022051941d22cfa3b6b1578ee7bd0cc73fd0efd2300ca17f1b40e2b15152ca4cc7cd[ALL] 03dfcbd6f1dd23b8c8a87dd4a684b88bec874e02fcd55ab13897dec72b56715a41",
            "hex": "47304402203eeca71cd871fa67c1c15b4497ae3e8cade6289e68424a8a8d94a9ffee4dd1ae022051941d22cfa3b6b1578ee7bd0cc73fd0efd2300ca17f1b40e2b15152ca4cc7cd012103dfcbd6f1dd23b8c8a87dd4a684b88bec874e02fcd55ab13897dec72b56715a41"
          },
          "sequence": 4294967295
        }
      ],
      "vout": [
        {
          "value": 0.13140000,
          "n": 0,
          "scriptPubKey": {
            "asm": "OP_DUP OP_HASH160 033d55cd272888a728a0d9a80c9c899d251c42f9 OP_EQUALVERIFY OP_CHECKSIG",
            "hex": "76a914033d55cd272888a728a0d9a80c9c899d251c42f988ac",
            "reqSigs": 1,
            "type": "pubkeyhash",
            "addresses": [
              "LKX5mRubuZC7EtTiHsuotbGcPqD5Lm54Yy"
            ]
          }
        }, 
        {
          "value": 0.00054729,
          "n": 1,
          "scriptPubKey": {
            "asm": "OP_DUP OP_HASH160 671386585bd74ffecdf2fc27dc814b67ba6f2b47 OP_EQUALVERIFY OP_CHECKSIG",
            "hex": "76a914671386585bd74ffecdf2fc27dc814b67ba6f2b4788ac",
            "reqSigs": 1,
            "type": "pubkeyhash",
            "addresses": [
              "LUcyFaSmim18fvhP4DAEPxFtXiQr8rstGt"
            ]
          }
        }
      ],
      "hex": "0100000001090e03c699e38a81978c28d248f59a7a435121154d260fed79d81914e7ea0f81d00000006a47304402203eeca71cd871fa67c1c15b4497ae3e8cade6289e68424a8a8d94a9ffee4dd1ae022051941d22cfa3b6b1578ee7bd0cc73fd0efd2300ca17f1b40e2b15152ca4cc7cd012103dfcbd6f1dd23b8c8a87dd4a684b88bec874e02fcd55ab13897dec72b56715a41ffffffff022080c800000000001976a914033d55cd272888a728a0d9a80c9c899d251c42f988acc9d50000000000001976a914671386585bd74ffecdf2fc27dc814b67ba6f2b4788ac00000000"
    }, 
    {
      "txid": "015bdcfbbad8a8ec4ba788c490182172658019a863f89b7bf3b60a98137f3c8f",
      "hash": "015bdcfbbad8a8ec4ba788c490182172658019a863f89b7bf3b60a98137f3c8f",
      "version": 2,
      "size": 373,
      "vsize": 373,
      "locktime": 1357816,
      "vin": [
        {
          "txid": "3feb915e535e8bfdf1e67774e949ea5c51ce35195257628416aeb9a313d7bb8e",
          "vout": 1,
          "scriptSig": {
            "asm": "304402206fe997bec3a30e06ce9784d9b7fa26fd772ee86e1c5fa97718a5cde474be3dd202203cc46290f7c28743df7d79a0da75bc6346250bba8fccc2c598e4b29168444471[ALL] 037484f90c8dfc387d39e3fcd73167f5129a861cffbdee580222a17c82165cf85b",
            "hex": "47304402206fe997bec3a30e06ce9784d9b7fa26fd772ee86e1c5fa97718a5cde474be3dd202203cc46290f7c28743df7d79a0da75bc6346250bba8fccc2c598e4b291684444710121037484f90c8dfc387d39e3fcd73167f5129a861cffbdee580222a17c82165cf85b"
          },
          "sequence": 4294967294
        }, 
        {
          "txid": "02fa7e23564f31634ff08349402a33aa66c210001d88cb555e66b2048b48f3e7",
          "vout": 2,
          "scriptSig": {
            "asm": "3045022100d499fd248267479799b0fddacedc326e70ce705838efed98a7a5b6976a322ce202200b4c587bb29928b27ad3716ccb0f15c0143ac6ec6b6cdf5411049b957a07d1f4[ALL] 038ba189913b42ac26de55ebefa5da329631634331b2d662d2d8e96fd1f2320511",
            "hex": "483045022100d499fd248267479799b0fddacedc326e70ce705838efed98a7a5b6976a322ce202200b4c587bb29928b27ad3716ccb0f15c0143ac6ec6b6cdf5411049b957a07d1f40121038ba189913b42ac26de55ebefa5da329631634331b2d662d2d8e96fd1f2320511"
          },
          "sequence": 4294967294
        }
      ],
      "vout": [
        {
          "value": 0.48627171,
          "n": 0,
          "scriptPubKey": {
            "asm": "OP_DUP OP_HASH160 42c55bf9f2d749bf79fe416f2a48693f0e43e1df OP_EQUALVERIFY OP_CHECKSIG",
            "hex": "76a91442c55bf9f2d749bf79fe416f2a48693f0e43e1df88ac",
            "reqSigs": 1,
            "type": "pubkeyhash",
            "addresses": [
              "LRK1HdujMD2wZ9WuEEGu6QmF1LS8JAg3dW"
            ]
          }
        }, 
        {
          "value": 2.03733500,
          "n": 1,
          "scriptPubKey": {
            "asm": "OP_DUP OP_HASH160 88b9e9e8a0c53fb3868d377d7cff9239b136d789 OP_EQUALVERIFY OP_CHECKSIG",
            "hex": "76a91488b9e9e8a0c53fb3868d377d7cff9239b136d78988ac",
            "reqSigs": 1,
            "type": "pubkeyhash",
            "addresses": [
              "LXgtsp69tQD8WvGL8cdXGccQYjog4gGGry"
            ]
          }
        }
      ],
      "hex": "02000000028ebbd713a3b9ae16846257521935ce515cea49e97477e6f1fd8b5e535e91eb3f010000006a47304402206fe997bec3a30e06ce9784d9b7fa26fd772ee86e1c5fa97718a5cde474be3dd202203cc46290f7c28743df7d79a0da75bc6346250bba8fccc2c598e4b291684444710121037484f90c8dfc387d39e3fcd73167f5129a861cffbdee580222a17c82165cf85bfeffffffe7f3488b04b2665e55cb881d0010c266aa332a404983f04f63314f56237efa02020000006b483045022100d499fd248267479799b0fddacedc326e70ce705838efed98a7a5b6976a322ce202200b4c587bb29928b27ad3716ccb0f15c0143ac6ec6b6cdf5411049b957a07d1f40121038ba189913b42ac26de55ebefa5da329631634331b2d662d2d8e96fd1f2320511feffffff02e3fde502000000001976a91442c55bf9f2d749bf79fe416f2a48693f0e43e1df88acfcb9240c000000001976a91488b9e9e8a0c53fb3868d377d7cff9239b136d78988acf8b71400"
    }
  ],
  "time": 1517052444,
  "mediantime": 1517052164,
  "nonce": 3648227623,
  "bits": "1a047f14",
  "difficulty": 3731199.183374282,
  "chainwork": "0000000000000000000000000000000000000000000000328e7a0c94d9a10eb2",
  "previousblockhash": "a0489a1dc2625453d6adbef3e4e6f9c25c61c33e3f22456949ebea43def938a0",
  "nextblockhash": "589126b958661c2689dc56894838af43051c51f0871d9f7dc29cd290ca403425"
}
