{
  "hash": "af4bf82e94aea573a9e2ed6b2c83f5f33e3d4578b331abad1883651c970e2f4a",
  "confirmations": 3019,
  "strippedsize": 253,
  "size": 253,
  "weight": 1012,
  "height": 1357976,
  "version": 536870912,
  "versionHex": "20000000",
  "merkleroot": "c28206491f9f1b6f03eb0afa3392c17081591833e6ab9839df37d985b1b828fc",
  "tx": [
    {
      "txid": "c28206491f9f1b6f03eb0afa3392c17081591833e6ab9839df37d985b1b828fc",
      "hash": "c28206491f9f1b6f03eb0afa3392c17081591833e6ab9839df37d985b1b828fc",
      "version": 1,
      "size": 172,
      "vsize": 172,
      "locktime": 0,
      "vin": [
        {
          "coinbase": "0398b8141a4d696e656420627920416e74506f6f6c20626a331f205a6caca9fabe6d6da94a37af38a9af3f41e3fd9a67565ab8302d7e60f69de90c1bdde63377882d5404000000000000008c3600000000000004000000",
          "sequence": 4294967295
        }
      ],
      "vout": [
        {
          "value": 25.00000000,
          "n": 0,
          "scriptPubKey": {
            "asm": "OP_DUP OP_HASH160 0ff3ccc5e8be88afe24b5d634e5852d474dbdff1 OP_EQUALVERIFY OP_CHECKSIG",
            "hex": "76a9140ff3ccc5e8be88afe24b5d634e5852d474dbdff188ac",
            "reqSigs": 1,
            "type": "pubkeyhash",
            "addresses": [
              "LLgJTbzZMsRTCUF1NtvvL9SR1a4pVieW89"
            ]
          }
        }
      ],
      "hex": "01000000010000000000000000000000000000000000000000000000000000000000000000ffffffff570398b8141a4d696e656420627920416e74506f6f6c20626a331f205a6caca9fabe6d6da94a37af38a9af3f41e3fd9a67565ab8302d7e60f69de90c1bdde63377882d5404000000000000008c3600000000000004000000ffffffff0100f90295000000001976a9140ff3ccc5e8be88afe24b5d634e5852d474dbdff188ac00000000"
    }
  ],
  "time": 1517071529,
  "mediantime": 1517071127,
  "nonce": 2454124489,
  "bits": "1a047f14",
  "difficulty": 3731199.183374282,
  "chainwork": "000000000000000000000000000000000000000000000032b12bd2c73b0fae8a",
  "previousblockhash": "f58e1eef661b53d94cf30d171ee10b4970dc13df893714e1a17128663a6c4db0",
  "nextblockhash": "34a5e776f2861dd6c4475cb9bcf0633aae2e0fa4a82c8241dbbe0489d8c38e1a"
}
