{
  "hash": "afa234a9a01edce8fb89d2eb665a9e9e222a89570fd98f758fa413fae0aaf3fd",
  "confirmations": 2051,
  "strippedsize": 666,
  "size": 702,
  "weight": 2700,
  "height": 1358943,
  "version": 536870912,
  "versionHex": "20000000",
  "merkleroot": "803c279f6b4e0ba67d9be1e5a33a2b0995988b82a3e9d39c3b8864b3e8091197",
  "tx": [
    {
      "txid": "aee7964646f8f6991ec7888a2e59f7dde9e64d46971d03088838d8cf108521a8",
      "hash": "505f48d25e9d589be354031201b2b44270a25421dc488fc2aa7e7badfa7a92fc",
      "version": 1,
      "size": 287,
      "vsize": 260,
      "locktime": 0,
      "vin": [
        {
          "coinbase": "035fbc1441d69bb77820abe841d69bb777ed42f42f4c54432e544f502ffabe6d6d22d54f2f449896a2c3f6ac81533dfa9f6a487032f633e2e901a4419006b2e7820100000000000000511432c70400000000000000",
          "sequence": 4294967295
        }
      ],
      "vout": [
        {
          "value": 24.75205524,
          "n": 0,
          "scriptPubKey": {
            "asm": "OP_DUP OP_HASH160 7b96c291c4d9e252907e9275cd3d14fdeaeac0f1 OP_EQUALVERIFY OP_CHECKSIG",
            "hex": "76a9147b96c291c4d9e252907e9275cd3d14fdeaeac0f188ac",
            "reqSigs": 1,
            "type": "pubkeyhash",
            "addresses": [
              "LWVRyoJawzDYtvRmLVzUXqUSkNT7H1MLTt"
            ]
          }
        }, 
        {
          "value": 0.00000000,
          "n": 1,
          "scriptPubKey": {
            "asm": "OP_RETURN aa21a9ed36158c43f60c3c4319d8b6fb3d4948bbdc46400a9d6d9534132f305d1f8eec0f",
            "hex": "6a24aa21a9ed36158c43f60c3c4319d8b6fb3d4948bbdc46400a9d6d9534132f305d1f8eec0f",
            "type": "nulldata"
          }
        }, 
        {
          "value": 0.25002076,
          "n": 2,
          "scriptPubKey": {
            "asm": "OP_DUP OP_HASH160 0c617fdb2ea42aed30a509595ee21ba3f6688db0 OP_EQUALVERIFY OP_CHECKSIG",
            "hex": "76a9140c617fdb2ea42aed30a509595ee21ba3f6688db088ac",
            "reqSigs": 1,
            "type": "pubkeyhash",
            "addresses": [
              "LLMRAtr3qBje2ySEa3CnZ55LA4TQMWnRY3"
            ]
          }
        }
      ],
      "hex": "010000000001010000000000000000000000000000000000000000000000000000000000000000ffffffff55035fbc1441d69bb77820abe841d69bb777ed42f42f4c54432e544f502ffabe6d6d22d54f2f449896a2c3f6ac81533dfa9f6a487032f633e2e901a4419006b2e7820100000000000000511432c70400000000000000ffffffff0394a38893000000001976a9147b96c291c4d9e252907e9275cd3d14fdeaeac0f188ac0000000000000000266a24aa21a9ed36158c43f60c3c4319d8b6fb3d4948bbdc46400a9d6d9534132f305d1f8eec0f5c807d01000000001976a9140c617fdb2ea42aed30a509595ee21ba3f6688db088ac0120000000000000000000000000000000000000000000000000000000000000000000000000"
    }, 
    {
      "txid": "b639afe379f074cfa87678acc368ae5b8a822b10d48a8e35c6a029a047e5ef40",
      "hash": "b639afe379f074cfa87678acc368ae5b8a822b10d48a8e35c6a029a047e5ef40",
      "version": 1,
      "size": 334,
      "vsize": 334,
      "locktime": 0,
      "vin": [
        {
          "txid": "e8f39ffd9537af187168c0dc4115633f3b902bd49c48b88073db0c80ec486f87",
          "vout": 1,
          "scriptSig": {
            "asm": "0 30440220369f955c338c578e61fbe4b277c9a180450b94b4a706de8b22b2923004870ee802207c2de3dac8faeb3b4a59e098246df49fd8d76e510d18c8862760979d4df1b938[ALL] 3044022047374a49874d6348999691812105836ae945d490b120d73c5e459f29d4fc8cc90220560c9249d9fbfe031ea6aab4d7b541692c59e3eed9ebd82e1d47e4a5e3be4e56[ALL] 522102f77ec37a042ba4e5e6aef7760398bf59b87ac4c5dee30a2fb8798e9630d4916e210276b93401dc495b28592f66411a7c9093b468f8678db51144fc6a36f550d94aa952ae",
            "hex": "004730440220369f955c338c578e61fbe4b277c9a180450b94b4a706de8b22b2923004870ee802207c2de3dac8faeb3b4a59e098246df49fd8d76e510d18c8862760979d4df1b93801473044022047374a49874d6348999691812105836ae945d490b120d73c5e459f29d4fc8cc90220560c9249d9fbfe031ea6aab4d7b541692c59e3eed9ebd82e1d47e4a5e3be4e560147522102f77ec37a042ba4e5e6aef7760398bf59b87ac4c5dee30a2fb8798e9630d4916e210276b93401dc495b28592f66411a7c9093b468f8678db51144fc6a36f550d94aa952ae"
          },
          "sequence": 4294967295
        }
      ],
      "vout": [
        {
          "value": 0.07940900,
          "n": 0,
          "scriptPubKey": {
            "asm": "OP_DUP OP_HASH160 3e53cc5490673ae1d82b9e4a60bec2ac10338e87 OP_EQUALVERIFY OP_CHECKSIG",
            "hex": "76a9143e53cc5490673ae1d82b9e4a60bec2ac10338e8788ac",
            "reqSigs": 1,
            "type": "pubkeyhash",
            "addresses": [
              "LQuWYWFQuAR8NY4J2frvx4RupDsUb688wQ"
            ]
          }
        }, 
        {
          "value": 6.87245400,
          "n": 1,
          "scriptPubKey": {
            "asm": "OP_HASH160 75b77316f8d91ff71fb2819115d1b6b9e80ccee9 OP_EQUAL",
            "hex": "a91475b77316f8d91ff71fb2819115d1b6b9e80ccee987",
            "reqSigs": 1,
            "type": "scripthash",
            "addresses": [
              "MJdb4B3BMDrfpB1FpKsPYQ1tDHdkNa1oLB"
            ]
          }
        }
      ],
      "hex": "0100000001876f48ec800cdb7380b8489cd42b903b3f631541dcc0687118af3795fd9ff3e801000000d9004730440220369f955c338c578e61fbe4b277c9a180450b94b4a706de8b22b2923004870ee802207c2de3dac8faeb3b4a59e098246df49fd8d76e510d18c8862760979d4df1b93801473044022047374a49874d6348999691812105836ae945d490b120d73c5e459f29d4fc8cc90220560c9249d9fbfe031ea6aab4d7b541692c59e3eed9ebd82e1d47e4a5e3be4e560147522102f77ec37a042ba4e5e6aef7760398bf59b87ac4c5dee30a2fb8798e9630d4916e210276b93401dc495b28592f66411a7c9093b468f8678db51144fc6a36f550d94aa952aeffffffff02242b7900000000001976a9143e53cc5490673ae1d82b9e4a60bec2ac10338e8788ac5888f6280000000017a91475b77316f8d91ff71fb2819115d1b6b9e80ccee98700000000"
    }
  ],
  "time": 1517215199,
  "mediantime": 1517214594,
  "nonce": 1982276625,
  "bits": "1a042eae",
  "difficulty": 4011378.762614286,
  "chainwork": "0000000000000000000000000000000000000000000000338ae77aa9e34995c0",
  "previousblockhash": "b44d557c34f107b2d92549f5185fb05f544ca1c902847ef3d03b2d36c2b9572c",
  "nextblockhash": "16090d86a7955ad3f2537f56a4dc07ff598b746a26bea9c949a1740b2aeb8e22"
}
