{
  "hash": "afdb0d9096957bac57b1d6d2c25df3bba1dd6d5c81a7847fd688b5f20a993c3e",
  "confirmations": 683,
  "strippedsize": 1633,
  "size": 1669,
  "weight": 6568,
  "height": 1360311,
  "version": 536870912,
  "versionHex": "20000000",
  "merkleroot": "d7a82beab497de3971575d7042e22f21ad237cfedd18b72ba99affa97348a1e1",
  "tx": [
    {
      "txid": "ab8b35c04e0b3dd094b997fa48c4482e14fde454ca35376775f582ec4cc494b7",
      "hash": "4123fbd7741450bfb7ee86255a9323c3abbbd84df4b8cfecbd5e9a69c109e7c7",
      "version": 1,
      "size": 244,
      "vsize": 217,
      "locktime": 0,
      "vin": [
        {
          "coinbase": "03b7c1140407d9715a080259336210000000fabe6d6d965f82abb05ec243461b5d3fb373ae5da4947faa4cc5048612e83141d43f6af040000000000000000d2f6e6f64655374726174756d2f",
          "sequence": 0
        }
      ],
      "vout": [
        {
          "value": 25.01212000,
          "n": 0,
          "scriptPubKey": {
            "asm": "OP_DUP OP_HASH160 0c617fdb2ea42aed30a509595ee21ba3f6688db0 OP_EQUALVERIFY OP_CHECKSIG",
            "hex": "76a9140c617fdb2ea42aed30a509595ee21ba3f6688db088ac",
            "reqSigs": 1,
            "type": "pubkeyhash",
            "addresses": [
              "LLMRAtr3qBje2ySEa3CnZ55LA4TQMWnRY3"
            ]
          }
        }, 
        {
          "value": 0.00000000,
          "n": 1,
          "scriptPubKey": {
            "asm": "OP_RETURN aa21a9ed04f9acfd2034420908cc36ce94f70747720f8f12ca59f742accd2fe80fb42b0e",
            "hex": "6a24aa21a9ed04f9acfd2034420908cc36ce94f70747720f8f12ca59f742accd2fe80fb42b0e",
            "type": "nulldata"
          }
        }
      ],
      "hex": "010000000001010000000000000000000000000000000000000000000000000000000000000000ffffffff4c03b7c1140407d9715a080259336210000000fabe6d6d965f82abb05ec243461b5d3fb373ae5da4947faa4cc5048612e83141d43f6af040000000000000000d2f6e6f64655374726174756d2f000000000260771595000000001976a9140c617fdb2ea42aed30a509595ee21ba3f6688db088ac0000000000000000266a24aa21a9ed04f9acfd2034420908cc36ce94f70747720f8f12ca59f742accd2fe80fb42b0e0120000000000000000000000000000000000000000000000000000000000000000000000000"
    }, 
    {
      "txid": "eba533fb4efd5695b1aa88c4b60161c50f27b732aca3caa8444eead83be88af5",
      "hash": "eba533fb4efd5695b1aa88c4b60161c50f27b732aca3caa8444eead83be88af5",
      "version": 1,
      "size": 373,
      "vsize": 373,
      "locktime": 0,
      "vin": [
        {
          "txid": "c4842ab41c8b3acfa4ffe26e38fb3c95283f903401cdc91f73b60a1fcbdfbe20",
          "vout": 6,
          "scriptSig": {
            "asm": "0 3045022100e8081551c733fbca498921cf2fb5e69f186db937cbbd95f9863bda776df8c0f302207622ccdfea927567b923b7f55aac50504761fd51a2885a462b877681b17e7341[ALL] 3045022100cec0d60760e3fd24a8b8bd6fdc3d9fab33d240c7e097947310c65941c9bcb05c0220715727351c051da8b71e381631ec554882dab58c11ff89c704aff59ec25a797f[ALL] 5221025bf74728b5cb72b8c9b8250daabba980f09620ea194c7347f3969d2742d3ff562103061a50881cfb57431fc5d0df3652283a9fc840fef462979fd49a8e1705853fb4210231d1f981ec40878eb8167b0da24f69e794ddd3eb03dc3745574494db93aca32453ae",
            "hex": "00483045022100e8081551c733fbca498921cf2fb5e69f186db937cbbd95f9863bda776df8c0f302207622ccdfea927567b923b7f55aac50504761fd51a2885a462b877681b17e734101483045022100cec0d60760e3fd24a8b8bd6fdc3d9fab33d240c7e097947310c65941c9bcb05c0220715727351c051da8b71e381631ec554882dab58c11ff89c704aff59ec25a797f014c695221025bf74728b5cb72b8c9b8250daabba980f09620ea194c7347f3969d2742d3ff562103061a50881cfb57431fc5d0df3652283a9fc840fef462979fd49a8e1705853fb4210231d1f981ec40878eb8167b0da24f69e794ddd3eb03dc3745574494db93aca32453ae"
          },
          "sequence": 4294967295
        }
      ],
      "vout": [
        {
          "value": 0.10368604,
          "n": 0,
          "scriptPubKey": {
            "asm": "OP_DUP OP_HASH160 19f3062b79f36d3b8a2c38c89ba36525c616904f OP_EQUALVERIFY OP_CHECKSIG",
            "hex": "76a91419f3062b79f36d3b8a2c38c89ba36525c616904f88ac",
            "reqSigs": 1,
            "type": "pubkeyhash",
            "addresses": [
              "LMbAHcsg6fxVEDLGGG4G8R8S7bnniuyKaq"
            ]
          }
        }, 
        {
          "value": 0.56063396,
          "n": 1,
          "scriptPubKey": {
            "asm": "OP_HASH160 b4013ff62acdef563c00a6432068ab7ce6c04af0 OP_EQUAL",
            "hex": "a914b4013ff62acdef563c00a6432068ab7ce6c04af087",
            "reqSigs": 1,
            "type": "scripthash",
            "addresses": [
              "MQJwMoQ1pfcvN8PiF8eozxnLFpzf4jMDvA"
            ]
          }
        }
      ],
      "hex": "010000000120bedfcb1f0ab6731fc9cd0134903f28953cfb386ee2ffa4cf3a8b1cb42a84c406000000fdfe0000483045022100e8081551c733fbca498921cf2fb5e69f186db937cbbd95f9863bda776df8c0f302207622ccdfea927567b923b7f55aac50504761fd51a2885a462b877681b17e734101483045022100cec0d60760e3fd24a8b8bd6fdc3d9fab33d240c7e097947310c65941c9bcb05c0220715727351c051da8b71e381631ec554882dab58c11ff89c704aff59ec25a797f014c695221025bf74728b5cb72b8c9b8250daabba980f09620ea194c7347f3969d2742d3ff562103061a50881cfb57431fc5d0df3652283a9fc840fef462979fd49a8e1705853fb4210231d1f981ec40878eb8167b0da24f69e794ddd3eb03dc3745574494db93aca32453aeffffffff025c369e00000000001976a91419f3062b79f36d3b8a2c38c89ba36525c616904f88aca47557030000000017a914b4013ff62acdef563c00a6432068ab7ce6c04af08700000000"
    }, 
    {
      "txid": "f71d0c2ddda3e4e9eb70742615a68f53c9d33f4aa2222994e3f429ca27f391bd",
      "hash": "f71d0c2ddda3e4e9eb70742615a68f53c9d33f4aa2222994e3f429ca27f391bd",
      "version": 1,
      "size": 192,
      "vsize": 192,
      "locktime": 0,
      "vin": [
        {
          "txid": "18f0be108c4421bad00943fbae9632b5c6df5254f4b50aa1cc73f753db930af5",
          "vout": 1,
          "scriptSig": {
            "asm": "3045022100f2c61c5512788141a29d4c8343df18ef0747d13b279045afa0caff47e356244802202493416e19a3e7860514ac3cf0698bf11bc6872ce6d14a65ffdfaa8699b6aefe[ALL] 02bf5b92407906e0fac01aeacc9de8ecac712775bc9f4b2a82310bf56c1fbf357f",
            "hex": "483045022100f2c61c5512788141a29d4c8343df18ef0747d13b279045afa0caff47e356244802202493416e19a3e7860514ac3cf0698bf11bc6872ce6d14a65ffdfaa8699b6aefe012102bf5b92407906e0fac01aeacc9de8ecac712775bc9f4b2a82310bf56c1fbf357f"
          },
          "sequence": 4294967295
        }
      ],
      "vout": [
        {
          "value": 4.99836850,
          "n": 0,
          "scriptPubKey": {
            "asm": "OP_DUP OP_HASH160 bb3aba5aaf83f8bd83484853d6f6f9fd3f957557 OP_EQUALVERIFY OP_CHECKSIG",
            "hex": "76a914bb3aba5aaf83f8bd83484853d6f6f9fd3f95755788ac",
            "reqSigs": 1,
            "type": "pubkeyhash",
            "addresses": [
              "LcHvyaH1u7aqt1H2qaWy4Jx3S9WSDb5EE6"
            ]
          }
        }
      ],
      "hex": "0100000001f50a93db53f773cca10ab5f45452dfc6b53296aefb4309d0ba21448c10bef018010000006b483045022100f2c61c5512788141a29d4c8343df18ef0747d13b279045afa0caff47e356244802202493416e19a3e7860514ac3cf0698bf11bc6872ce6d14a65ffdfaa8699b6aefe012102bf5b92407906e0fac01aeacc9de8ecac712775bc9f4b2a82310bf56c1fbf357fffffffff01b2e7ca1d000000001976a914bb3aba5aaf83f8bd83484853d6f6f9fd3f95755788ac00000000"
    }, 
    {
      "txid": "f4d690b47b1645ed1d72729e17bbccfca8623f56095d32ceb99a0d4f55a67328",
      "hash": "f4d690b47b1645ed1d72729e17bbccfca8623f56095d32ceb99a0d4f55a67328",
      "version": 2,
      "size": 225,
      "vsize": 225,
      "locktime": 1360308,
      "vin": [
        {
          "txid": "f89327cd34a1a7980eab20ded813e95fb11d7531c550425cadb4160badc9a0ca",
          "vout": 1,
          "scriptSig": {
            "asm": "3044022077de7e8f9cacad810ebfa7b1d54e42c77ea500ee44f37530e3d27994595a4595022041a5470568896bed094ce5b99c1a2f405f5d0f6869d975b6dbad03dd75715f80[ALL] 022a66e23f017ad72476ec80dc69713beb1933bff673c9074737914279bbf834ee",
            "hex": "473044022077de7e8f9cacad810ebfa7b1d54e42c77ea500ee44f37530e3d27994595a4595022041a5470568896bed094ce5b99c1a2f405f5d0f6869d975b6dbad03dd75715f800121022a66e23f017ad72476ec80dc69713beb1933bff673c9074737914279bbf834ee"
          },
          "sequence": 4294967294
        }
      ],
      "vout": [
        {
          "value": 0.00981459,
          "n": 0,
          "scriptPubKey": {
            "asm": "OP_DUP OP_HASH160 557973c68a683684aad60d95d76ca014021f1780 OP_EQUALVERIFY OP_CHECKSIG",
            "hex": "76a914557973c68a683684aad60d95d76ca014021f178088ac",
            "reqSigs": 1,
            "type": "pubkeyhash",
            "addresses": [
              "LT1uCAjv2gsGiUDQDHXsePhAM7X6xGoXLr"
            ]
          }
        }, 
        {
          "value": 0.03376101,
          "n": 1,
          "scriptPubKey": {
            "asm": "OP_DUP OP_HASH160 4d26e9c58dc5f8ad48d9f5b26adbd5c5c4044a5b OP_EQUALVERIFY OP_CHECKSIG",
            "hex": "76a9144d26e9c58dc5f8ad48d9f5b26adbd5c5c4044a5b88ac",
            "reqSigs": 1,
            "type": "pubkeyhash",
            "addresses": [
              "LSFtuid8fxJ7aP2wdShWiMgcu9kNgLVy9G"
            ]
          }
        }
      ],
      "hex": "0200000001caa0c9ad0b16b4ad5c4250c531751db15fe913d8de20ab0e98a7a134cd2793f8010000006a473044022077de7e8f9cacad810ebfa7b1d54e42c77ea500ee44f37530e3d27994595a4595022041a5470568896bed094ce5b99c1a2f405f5d0f6869d975b6dbad03dd75715f800121022a66e23f017ad72476ec80dc69713beb1933bff673c9074737914279bbf834eefeffffff02d3f90e00000000001976a914557973c68a683684aad60d95d76ca014021f178088ace5833300000000001976a9144d26e9c58dc5f8ad48d9f5b26adbd5c5c4044a5b88acb4c11400"
    }, 
    {
      "txid": "2b06bc4b5a27df4255eead4dd8fca6598beba46c4905d5b35d719b7525d8cdbb",
      "hash": "2b06bc4b5a27df4255eead4dd8fca6598beba46c4905d5b35d719b7525d8cdbb",
      "version": 1,
      "size": 328,
      "vsize": 328,
      "locktime": 1360308,
      "vin": [
        {
          "txid": "0529bf207fc47999f6059eb735eb87f91aeb4ac3401568fae5cad7510c564855",
          "vout": 0,
          "scriptSig": {
            "asm": "3045022100878aa5029c9b5deabbecefe5dcd9783fe444d40e440a7c760124af68ca69751a022018cfd17e75d4a9dcf6cabaefc8bd9ef4b6e20102fd720aa09e0017e42f395b3d[ALL] 031b327fed2fe8449f9e3d08fe71c8a528e631778e71a8eca0493791eefdbd38c7",
            "hex": "483045022100878aa5029c9b5deabbecefe5dcd9783fe444d40e440a7c760124af68ca69751a022018cfd17e75d4a9dcf6cabaefc8bd9ef4b6e20102fd720aa09e0017e42f395b3d0121031b327fed2fe8449f9e3d08fe71c8a528e631778e71a8eca0493791eefdbd38c7"
          },
          "sequence": 4294967294
        }
      ],
      "vout": [
        {
          "value": 910.02000000,
          "n": 0,
          "scriptPubKey": {
            "asm": "OP_DUP OP_HASH160 f010b5f6971e2cdb675cdeaf3f22c0c17215678b OP_EQUALVERIFY OP_CHECKSIG",
            "hex": "76a914f010b5f6971e2cdb675cdeaf3f22c0c17215678b88ac",
            "reqSigs": 1,
            "type": "pubkeyhash",
            "addresses": [
              "Lh7JTLbQYymVPdouxHtgDLdFieCHqRFBCV"
            ]
          }
        }, 
        {
          "value": 3.69251972,
          "n": 1,
          "scriptPubKey": {
            "asm": "OP_DUP OP_HASH160 9a853f78407d78d8d0e7181b1315f7462224bd90 OP_EQUALVERIFY OP_CHECKSIG",
            "hex": "76a9149a853f78407d78d8d0e7181b1315f7462224bd9088ac",
            "reqSigs": 1,
            "type": "pubkeyhash",
            "addresses": [
              "LZJywyz2w54CKM2LSGzn8snNhfdZoqFmem"
            ]
          }
        }, 
        {
          "value": 1.66586130,
          "n": 2,
          "scriptPubKey": {
            "asm": "OP_DUP OP_HASH160 75c467b7c788a15b2c0b14088680d9e36ee9d52f OP_EQUALVERIFY OP_CHECKSIG",
            "hex": "76a91475c467b7c788a15b2c0b14088680d9e36ee9d52f88ac",
            "reqSigs": 1,
            "type": "pubkeyhash",
            "addresses": [
              "LVxec8GS8BPRZKPuW71rTJfC35xWygqgHB"
            ]
          }
        }, 
        {
          "value": 6789.84745840,
          "n": 3,
          "scriptPubKey": {
            "asm": "OP_DUP OP_HASH160 39eb4b4409e215ae37f35d9a1936b4d1b7a5296c OP_EQUALVERIFY OP_CHECKSIG",
            "hex": "76a91439eb4b4409e215ae37f35d9a1936b4d1b7a5296c88ac",
            "reqSigs": 1,
            "type": "pubkeyhash",
            "addresses": [
              "LQWCefKjWixHttGvA28RJT2VZCMVCBuNCL"
            ]
          }
        }, 
        {
          "value": 1.63020465,
          "n": 4,
          "scriptPubKey": {
            "asm": "OP_DUP OP_HASH160 ffc58be62bc455ac96645b845b766e8673ed85c4 OP_EQUALVERIFY OP_CHECKSIG",
            "hex": "76a914ffc58be62bc455ac96645b845b766e8673ed85c488ac",
            "reqSigs": 1,
            "type": "pubkeyhash",
            "addresses": [
              "LiYMDu9V7tJHU2oH5Nofg1mYimccwhc57K"
            ]
          }
        }
      ],
      "hex": "01000000015548560c51d7cae5fa681540c34aeb1af987eb35b79e05f69979c47f20bf2905000000006b483045022100878aa5029c9b5deabbecefe5dcd9783fe444d40e440a7c760124af68ca69751a022018cfd17e75d4a9dcf6cabaefc8bd9ef4b6e20102fd720aa09e0017e42f395b3d0121031b327fed2fe8449f9e3d08fe71c8a528e631778e71a8eca0493791eefdbd38c7feffffff0580522430150000001976a914f010b5f6971e2cdb675cdeaf3f22c0c17215678b88ac84560216000000001976a9149a853f78407d78d8d0e7181b1315f7462224bd9088ac12e7ed09000000001976a91475c467b7c788a15b2c0b14088680d9e36ee9d52f88ac7003a5169e0000001976a91439eb4b4409e215ae37f35d9a1936b4d1b7a5296c88acb17eb709000000001976a914ffc58be62bc455ac96645b845b766e8673ed85c488acb4c11400"
    }, 
    {
      "txid": "aa91ca28bd2362df2bffaf47964b613295f3d5e43beb16063af56ba45aaf82d9",
      "hash": "aa91ca28bd2362df2bffaf47964b613295f3d5e43beb16063af56ba45aaf82d9",
      "version": 1,
      "size": 226,
      "vsize": 226,
      "locktime": 0,
      "vin": [
        {
          "txid": "485f5855afb19e41e1be24195e31d5bbd151039a0008bd50d52ce922d982e31f",
          "vout": 0,
          "scriptSig": {
            "asm": "3045022100a12963762543cec88a1513f1a8b4743c7263bdb1b381a42cbda65904f89a83e102204a73223f6ee160ef01974425f261720c467479d0001c54d1e5457bd474df75b2[ALL] 02297098869abb8381a3c42627cc48ffed66f5c964aca0b1244894d18c691e8989",
            "hex": "483045022100a12963762543cec88a1513f1a8b4743c7263bdb1b381a42cbda65904f89a83e102204a73223f6ee160ef01974425f261720c467479d0001c54d1e5457bd474df75b2012102297098869abb8381a3c42627cc48ffed66f5c964aca0b1244894d18c691e8989"
          },
          "sequence": 4294967295
        }
      ],
      "vout": [
        {
          "value": 0.19690746,
          "n": 0,
          "scriptPubKey": {
            "asm": "OP_DUP OP_HASH160 24712f161b0b139b2adaa19034cd2bbea81deda4 OP_EQUALVERIFY OP_CHECKSIG",
            "hex": "76a91424712f161b0b139b2adaa19034cd2bbea81deda488ac",
            "reqSigs": 1,
            "type": "pubkeyhash",
            "addresses": [
              "LNYeBGykG1AtusN3imadi5r4LgwUU6xTaw"
            ]
          }
        }, 
        {
          "value": 0.00071954,
          "n": 1,
          "scriptPubKey": {
            "asm": "OP_DUP OP_HASH160 62d4cee3e955204b1ca3398b6bd5794a994da21d OP_EQUALVERIFY OP_CHECKSIG",
            "hex": "76a91462d4cee3e955204b1ca3398b6bd5794a994da21d88ac",
            "reqSigs": 1,
            "type": "pubkeyhash",
            "addresses": [
              "LUEXRBZd82FL3EsXwNfhHHQfENAZRrt497"
            ]
          }
        }
      ],
      "hex": "01000000011fe382d922e92cd550bd08009a0351d1bbd5315e1924bee1419eb1af55585f48000000006b483045022100a12963762543cec88a1513f1a8b4743c7263bdb1b381a42cbda65904f89a83e102204a73223f6ee160ef01974425f261720c467479d0001c54d1e5457bd474df75b2012102297098869abb8381a3c42627cc48ffed66f5c964aca0b1244894d18c691e8989ffffffff02fa742c01000000001976a91424712f161b0b139b2adaa19034cd2bbea81deda488ac12190100000000001976a91462d4cee3e955204b1ca3398b6bd5794a994da21d88ac00000000"
    }
  ],
  "time": 1517410107,
  "mediantime": 1517409699,
  "nonce": 1506990275,
  "bits": "1a042eae",
  "difficulty": 4011378.762614286,
  "chainwork": "000000000000000000000000000000000000000000000034d1fe5f0409436470",
  "previousblockhash": "b40a36a9f885c91d8dc28e09c416b1c3952ae92f35323cc66aeb556ac7761c3a",
  "nextblockhash": "2d26cf17f4db16d1a466d1fa8698f11cf0f67f56f077ec03fe28a614d8d8a383"
}
