{
  "hash": "b0393edce7a82d23dd04101a90fca97162521dddcb0e64fa84b06cea578a0331",
  "confirmations": 2505,
  "strippedsize": 234,
  "size": 234,
  "weight": 936,
  "height": 1358490,
  "version": 536870912,
  "versionHex": "20000000",
  "merkleroot": "fc2c33fd6e5935813d57675aaaf3eb18528180c041a396bb0972aa6738ed9dc0",
  "tx": [
    {
      "txid": "fc2c33fd6e5935813d57675aaaf3eb18528180c041a396bb0972aa6738ed9dc0",
      "hash": "fc2c33fd6e5935813d57675aaaf3eb18528180c041a396bb0972aa6738ed9dc0",
      "version": 1,
      "size": 153,
      "vsize": 153,
      "locktime": 0,
      "vin": [
        {
          "coinbase": "039aba14045a6dde492cfabe6d6d6f825770bd93bca7fc7ab779c4ae4f4ee37cd02df6858d7de55b35e0cf2b31e44000000000000000042f4c502f085600365603000000",
          "sequence": 4294967295
        }
      ],
      "vout": [
        {
          "value": 25.00000000,
          "n": 0,
          "scriptPubKey": {
            "asm": "OP_DUP OP_HASH160 57757ed2ecf2052ff3126c397aca7defb9ca2cec OP_EQUALVERIFY OP_CHECKSIG",
            "hex": "76a91457757ed2ecf2052ff3126c397aca7defb9ca2cec88ac",
            "reqSigs": 1,
            "type": "pubkeyhash",
            "addresses": [
              "LTCPodGk5FwcJaRzH9yKnwicxzFUbxp6tN"
            ]
          }
        }
      ],
      "hex": "01000000010000000000000000000000000000000000000000000000000000000000000000ffffffff44039aba14045a6dde492cfabe6d6d6f825770bd93bca7fc7ab779c4ae4f4ee37cd02df6858d7de55b35e0cf2b31e44000000000000000042f4c502f085600365603000000ffffffff0100f90295000000001976a91457757ed2ecf2052ff3126c397aca7defb9ca2cec88ac00000000"
    }
  ],
  "time": 1517149769,
  "mediantime": 1517149036,
  "nonce": 3151158598,
  "bits": "1a047f14",
  "difficulty": 3731199.183374282,
  "chainwork": "000000000000000000000000000000000000000000000033237c2173cadb5abe",
  "previousblockhash": "8cb2dec91ab8bd0e8b8250312d2bcf9254e956771ccfcdeb2c281f58a1c6982d",
  "nextblockhash": "d054090f15d291b8a38d982521290b5a955aefee6b224a4e606c9128be9b7d20"
}
