{
  "hash": "b0853cf87be0b22f7f16ca3e1138b4a21c96df4b5ef5aacfa70a81db77ff1979",
  "confirmations": 377,
  "strippedsize": 253,
  "size": 253,
  "weight": 1012,
  "height": 1360617,
  "version": 536870912,
  "versionHex": "20000000",
  "merkleroot": "d96f6c35c430b02a6a74226220e92cd839f5ca8d6c6fa9e19fb642ea6d4ff564",
  "tx": [
    {
      "txid": "d96f6c35c430b02a6a74226220e92cd839f5ca8d6c6fa9e19fb642ea6d4ff564",
      "hash": "d96f6c35c430b02a6a74226220e92cd839f5ca8d6c6fa9e19fb642ea6d4ff564",
      "version": 1,
      "size": 172,
      "vsize": 172,
      "locktime": 0,
      "vin": [
        {
          "coinbase": "03e9c2141a4d696e656420627920416e74506f6f6c20626a341e205a728f6efabe6d6d17ff2a0a84d179bffde43bd7e2d602ec6e66ef2869d3a92d065ab6ffdb90c5220400000000000000e13a00000000000025000000",
          "sequence": 4294967295
        }
      ],
      "vout": [
        {
          "value": 25.00000000,
          "n": 0,
          "scriptPubKey": {
            "asm": "OP_DUP OP_HASH160 0ff3ccc5e8be88afe24b5d634e5852d474dbdff1 OP_EQUALVERIFY OP_CHECKSIG",
            "hex": "76a9140ff3ccc5e8be88afe24b5d634e5852d474dbdff188ac",
            "reqSigs": 1,
            "type": "pubkeyhash",
            "addresses": [
              "LLgJTbzZMsRTCUF1NtvvL9SR1a4pVieW89"
            ]
          }
        }
      ],
      "hex": "01000000010000000000000000000000000000000000000000000000000000000000000000ffffffff5703e9c2141a4d696e656420627920416e74506f6f6c20626a341e205a728f6efabe6d6d17ff2a0a84d179bffde43bd7e2d602ec6e66ef2869d3a92d065ab6ffdb90c5220400000000000000e13a00000000000025000000ffffffff0100f90295000000001976a9140ff3ccc5e8be88afe24b5d634e5852d474dbdff188ac00000000"
    }
  ],
  "time": 1517457262,
  "mediantime": 1517456720,
  "nonce": 2559443082,
  "bits": "1a042eae",
  "difficulty": 4011378.762614286,
  "chainwork": "0000000000000000000000000000000000000000000000351b288b5b91c201d4",
  "previousblockhash": "ec4855a6aef486983800d3e2fc9cc7a94e3c2f63017c8a86b697e99ed6d296e3",
  "nextblockhash": "f3ac7c0aec5c67184bac03ea22672d672599a5b4d0f374be039c3ffb2c3c17c6"
}
