{
  "hash": "b0a2ff7e413b25aa4a2ac86cb8973d7f8bb3029b26ddebea27b61ed7eb6b028e",
  "confirmations": 1320,
  "strippedsize": 1338,
  "size": 1374,
  "weight": 5388,
  "height": 1359674,
  "version": 536870912,
  "versionHex": "20000000",
  "merkleroot": "addaf6ed6d4b921e793861a2ba1fa61c84344849ad6f09a00ee6deb4a80cd558",
  "tx": [
    {
      "txid": "f8c5df1faf785b1003a027428aebd96bc01f4e8a3ca342454be6ad79f45e28a6",
      "hash": "ca42fb6d8376a8e12c8c2508426d901ea176d47e41b5255c176da1097846dc85",
      "version": 1,
      "size": 244,
      "vsize": 217,
      "locktime": 0,
      "vin": [
        {
          "coinbase": "033abf1404d16a705a08050d550221000000fabe6d6d26e77fc524076c6c9c2b8720c19668709c151c4de0d2c8bdcf13f869529872b440000000000000000d2f6e6f64655374726174756d2f",
          "sequence": 0
        }
      ],
      "vout": [
        {
          "value": 25.01608600,
          "n": 0,
          "scriptPubKey": {
            "asm": "OP_DUP OP_HASH160 0c617fdb2ea42aed30a509595ee21ba3f6688db0 OP_EQUALVERIFY OP_CHECKSIG",
            "hex": "76a9140c617fdb2ea42aed30a509595ee21ba3f6688db088ac",
            "reqSigs": 1,
            "type": "pubkeyhash",
            "addresses": [
              "LLMRAtr3qBje2ySEa3CnZ55LA4TQMWnRY3"
            ]
          }
        }, 
        {
          "value": 0.00000000,
          "n": 1,
          "scriptPubKey": {
            "asm": "OP_RETURN aa21a9ed5cdc6de026332407bef793c10ac0df2c51f3ba28d7c933fc3c92508d3aa16fd5",
            "hex": "6a24aa21a9ed5cdc6de026332407bef793c10ac0df2c51f3ba28d7c933fc3c92508d3aa16fd5",
            "type": "nulldata"
          }
        }
      ],
      "hex": "010000000001010000000000000000000000000000000000000000000000000000000000000000ffffffff4c033abf1404d16a705a08050d550221000000fabe6d6d26e77fc524076c6c9c2b8720c19668709c151c4de0d2c8bdcf13f869529872b440000000000000000d2f6e6f64655374726174756d2f000000000298841b95000000001976a9140c617fdb2ea42aed30a509595ee21ba3f6688db088ac0000000000000000266a24aa21a9ed5cdc6de026332407bef793c10ac0df2c51f3ba28d7c933fc3c92508d3aa16fd50120000000000000000000000000000000000000000000000000000000000000000000000000"
    }, 
    {
      "txid": "219dbfa1d9a27c62e0ff838fb2bd0deabb7c103281aff71b246bd4f6a04d6f32",
      "hash": "219dbfa1d9a27c62e0ff838fb2bd0deabb7c103281aff71b246bd4f6a04d6f32",
      "version": 1,
      "size": 372,
      "vsize": 372,
      "locktime": 0,
      "vin": [
        {
          "txid": "397d5318d11291f45f7caef2cb14e1966db42dbca6b691cd6e39e5bfbb25bc55",
          "vout": 1,
          "scriptSig": {
            "asm": "0 3045022100c67b4bec20c951e57b0b99a73d940443bc87cf7423360de829dcc151c5573fb802204c06bd6bc1bc0b5a3b2c2fd04844e8724e57278496232e3bc7a61ef9f44c89a7[ALL] 304402201eae79feb3a5b1bd3ce89c1a779a2e414dd7305a025bc34420ec30e1f38c1922022051b81fda851b6e73f33d116bc082705200c616f2d26f8079a44cb8442d4f23d8[ALL] 522102b03c0a5122bf2ecc41fb7df4ef4af40faac423ca61e335b4cd9574b47fab858b2102a304fa4dfc5cbaad89192af2a33ae36e394916b26a5b1fede4d593eb8872b66a210223c0049bf7a759671721ea015a1d97a1c40007a56020ff58283b0ce67389863453ae",
            "hex": "00483045022100c67b4bec20c951e57b0b99a73d940443bc87cf7423360de829dcc151c5573fb802204c06bd6bc1bc0b5a3b2c2fd04844e8724e57278496232e3bc7a61ef9f44c89a70147304402201eae79feb3a5b1bd3ce89c1a779a2e414dd7305a025bc34420ec30e1f38c1922022051b81fda851b6e73f33d116bc082705200c616f2d26f8079a44cb8442d4f23d8014c69522102b03c0a5122bf2ecc41fb7df4ef4af40faac423ca61e335b4cd9574b47fab858b2102a304fa4dfc5cbaad89192af2a33ae36e394916b26a5b1fede4d593eb8872b66a210223c0049bf7a759671721ea015a1d97a1c40007a56020ff58283b0ce67389863453ae"
          },
          "sequence": 4294967295
        }
      ],
      "vout": [
        {
          "value": 9.54314621,
          "n": 0,
          "scriptPubKey": {
            "asm": "OP_HASH160 d068c556c7cc72434125f1a6c8c1ff4269d0ecf0 OP_EQUAL",
            "hex": "a914d068c556c7cc72434125f1a6c8c1ff4269d0ecf087",
            "reqSigs": 1,
            "type": "scripthash",
            "addresses": [
              "MSu8HwLEjejhSq7ZGjMk9t9c2JVKqJ8s3o"
            ]
          }
        }, 
        {
          "value": 4.76423379,
          "n": 1,
          "scriptPubKey": {
            "asm": "OP_DUP OP_HASH160 94f43fc96ac3eab678069de77eae8fbcf02f0293 OP_EQUALVERIFY OP_CHECKSIG",
            "hex": "76a91494f43fc96ac3eab678069de77eae8fbcf02f029388ac",
            "reqSigs": 1,
            "type": "pubkeyhash",
            "addresses": [
              "LYoYsLJN4ngWH7qjgaLrr2oJKB3cgWpyuX"
            ]
          }
        }
      ],
      "hex": "010000000155bc25bbbfe5396ecd91b6a6bc2db46d96e114cbf2ae7c5ff49112d118537d3901000000fdfd0000483045022100c67b4bec20c951e57b0b99a73d940443bc87cf7423360de829dcc151c5573fb802204c06bd6bc1bc0b5a3b2c2fd04844e8724e57278496232e3bc7a61ef9f44c89a70147304402201eae79feb3a5b1bd3ce89c1a779a2e414dd7305a025bc34420ec30e1f38c1922022051b81fda851b6e73f33d116bc082705200c616f2d26f8079a44cb8442d4f23d8014c69522102b03c0a5122bf2ecc41fb7df4ef4af40faac423ca61e335b4cd9574b47fab858b2102a304fa4dfc5cbaad89192af2a33ae36e394916b26a5b1fede4d593eb8872b66a210223c0049bf7a759671721ea015a1d97a1c40007a56020ff58283b0ce67389863453aeffffffff027dafe1380000000017a914d068c556c7cc72434125f1a6c8c1ff4269d0ecf087d3a4651c000000001976a91494f43fc96ac3eab678069de77eae8fbcf02f029388ac00000000"
    }, 
    {
      "txid": "552a365f4df1b115fc11c46548a3ae1b1dc402bd576b149f108aae05b7701e0b",
      "hash": "552a365f4df1b115fc11c46548a3ae1b1dc402bd576b149f108aae05b7701e0b",
      "version": 1,
      "size": 226,
      "vsize": 226,
      "locktime": 1359619,
      "vin": [
        {
          "txid": "e46dd7728bd11efe29749de77fcb61ea5d758fb16f78a28203d5bc8742f37a1c",
          "vout": 0,
          "scriptSig": {
            "asm": "3045022100edf6e3b36d7d01b595f3d7aa25d1545a0808da4f46afd544af7730084b4452c0022001deef592a58a0d096ec584e90ca7e29d3606bbe7513ca2c7990649db45b258a[ALL] 03735cad09adc752916588a1aca4aa270f2a7fd7939d466b052e469470a28bae8a",
            "hex": "483045022100edf6e3b36d7d01b595f3d7aa25d1545a0808da4f46afd544af7730084b4452c0022001deef592a58a0d096ec584e90ca7e29d3606bbe7513ca2c7990649db45b258a012103735cad09adc752916588a1aca4aa270f2a7fd7939d466b052e469470a28bae8a"
          },
          "sequence": 4294967294
        }
      ],
      "vout": [
        {
          "value": 1.14963529,
          "n": 0,
          "scriptPubKey": {
            "asm": "OP_DUP OP_HASH160 000b6fbce03d88d242a957a10da8424ca21502de OP_EQUALVERIFY OP_CHECKSIG",
            "hex": "76a914000b6fbce03d88d242a957a10da8424ca21502de88ac",
            "reqSigs": 1,
            "type": "pubkeyhash",
            "addresses": [
              "LKEBxqHQceyHGJcFVNwV69hiwNd9vWeZpB"
            ]
          }
        }, 
        {
          "value": 1.48000000,
          "n": 1,
          "scriptPubKey": {
            "asm": "OP_DUP OP_HASH160 32de98d1b2614c1557738b86b48a4f2686d803bf OP_EQUALVERIFY OP_CHECKSIG",
            "hex": "76a91432de98d1b2614c1557738b86b48a4f2686d803bf88ac",
            "reqSigs": 1,
            "type": "pubkeyhash",
            "addresses": [
              "LPrvi7SA6gVH9Vhcyv1GVpti2ZRAKejp9n"
            ]
          }
        }
      ],
      "hex": "01000000011c7af34287bcd50382a2786fb18f755dea61cb7fe79d7429fe1ed18b72d76de4000000006b483045022100edf6e3b36d7d01b595f3d7aa25d1545a0808da4f46afd544af7730084b4452c0022001deef592a58a0d096ec584e90ca7e29d3606bbe7513ca2c7990649db45b258a012103735cad09adc752916588a1aca4aa270f2a7fd7939d466b052e469470a28bae8afeffffff024934da06000000001976a914000b6fbce03d88d242a957a10da8424ca21502de88ac004dd208000000001976a91432de98d1b2614c1557738b86b48a4f2686d803bf88ac03bf1400"
    }, 
    {
      "txid": "66ade6f62e463fa5a25a8384877db5a5e95b07ec46247a2a4f723a7654c93b34",
      "hash": "66ade6f62e463fa5a25a8384877db5a5e95b07ec46247a2a4f723a7654c93b34",
      "version": 1,
      "size": 226,
      "vsize": 226,
      "locktime": 0,
      "vin": [
        {
          "txid": "ed794ea52aefcb54c1cd2d39f2ee0cd4463754037086b9c8f639eb332f93cdc7",
          "vout": 5,
          "scriptSig": {
            "asm": "3045022100fd65c5d2c3737e2fc3c71dd5b1c7746463d93e3bf3258d051cd34553e4fb7b6c022074e1a28c669a36e2fa33191eec4e60a23e427a3537d11192aea10399cccf74cc[ALL] 0328c9ae635abf580c261c44815dc1aac309e16ff26250525b7e99951369d2b8c7",
            "hex": "483045022100fd65c5d2c3737e2fc3c71dd5b1c7746463d93e3bf3258d051cd34553e4fb7b6c022074e1a28c669a36e2fa33191eec4e60a23e427a3537d11192aea10399cccf74cc01210328c9ae635abf580c261c44815dc1aac309e16ff26250525b7e99951369d2b8c7"
          },
          "sequence": 4294967295
        }
      ],
      "vout": [
        {
          "value": 0.22900000,
          "n": 0,
          "scriptPubKey": {
            "asm": "OP_DUP OP_HASH160 4e86e061bd883054600836d1b36f29b458e15c04 OP_EQUALVERIFY OP_CHECKSIG",
            "hex": "76a9144e86e061bd883054600836d1b36f29b458e15c0488ac",
            "reqSigs": 1,
            "type": "pubkeyhash",
            "addresses": [
              "LSPAYZMig7RLe63CxeeszBr6dMEXkN7QGD"
            ]
          }
        }, 
        {
          "value": 235.40939189,
          "n": 1,
          "scriptPubKey": {
            "asm": "OP_DUP OP_HASH160 c6e3836c2f4cd8f9c53e32813ded99ac0ce001f1 OP_EQUALVERIFY OP_CHECKSIG",
            "hex": "76a914c6e3836c2f4cd8f9c53e32813ded99ac0ce001f188ac",
            "reqSigs": 1,
            "type": "pubkeyhash",
            "addresses": [
              "LdMac6qdwFnBCVXN96dvoPjzbcE36gzs64"
            ]
          }
        }
      ],
      "hex": "0100000001c7cd932f33eb39f6c8b9867003543746d40ceef2392dcdc154cbef2aa54e79ed050000006b483045022100fd65c5d2c3737e2fc3c71dd5b1c7746463d93e3bf3258d051cd34553e4fb7b6c022074e1a28c669a36e2fa33191eec4e60a23e427a3537d11192aea10399cccf74cc01210328c9ae635abf580c261c44815dc1aac309e16ff26250525b7e99951369d2b8c7ffffffff02206d5d01000000001976a9144e86e061bd883054600836d1b36f29b458e15c0488acb539267b050000001976a914c6e3836c2f4cd8f9c53e32813ded99ac0ce001f188ac00000000"
    }, 
    {
      "txid": "c1753c67990ef384cb519821a5bd5d2b1af1a43558a133fcba11464d186575c8",
      "hash": "c1753c67990ef384cb519821a5bd5d2b1af1a43558a133fcba11464d186575c8",
      "version": 2,
      "size": 225,
      "vsize": 225,
      "locktime": 1359671,
      "vin": [
        {
          "txid": "0f49fe55d09eb3ad6fdeb79225bd3f8db70aa173c4c36b2bdd27543b9f62d678",
          "vout": 0,
          "scriptSig": {
            "asm": "304402207647e2707b549416af0ec3e4557bd643c15401fbadcb97525989f0aaaf9e869602203665b6e65b3a42813b633b8f202e7d78b26c050307f16204d47ffc4c25d84fa7[ALL] 02da1e9007534c7335012602ae67904cfbaae4248b08a4e2081bcfa0714ab249c8",
            "hex": "47304402207647e2707b549416af0ec3e4557bd643c15401fbadcb97525989f0aaaf9e869602203665b6e65b3a42813b633b8f202e7d78b26c050307f16204d47ffc4c25d84fa7012102da1e9007534c7335012602ae67904cfbaae4248b08a4e2081bcfa0714ab249c8"
          },
          "sequence": 4294967294
        }
      ],
      "vout": [
        {
          "value": 0.07720617,
          "n": 0,
          "scriptPubKey": {
            "asm": "OP_DUP OP_HASH160 c6be8857e2f9de8a79395869f47d3335a418d07c OP_EQUALVERIFY OP_CHECKSIG",
            "hex": "76a914c6be8857e2f9de8a79395869f47d3335a418d07c88ac",
            "reqSigs": 1,
            "type": "pubkeyhash",
            "addresses": [
              "LdLpJdc8AXVge7ktuQi7R97im4sTHQzKHD"
            ]
          }
        }, 
        {
          "value": 0.01882556,
          "n": 1,
          "scriptPubKey": {
            "asm": "OP_DUP OP_HASH160 ee6e9eb34e5a80e31971ca0b77ad89e6146abade OP_EQUALVERIFY OP_CHECKSIG",
            "hex": "76a914ee6e9eb34e5a80e31971ca0b77ad89e6146abade88ac",
            "reqSigs": 1,
            "type": "pubkeyhash",
            "addresses": [
              "Lgxfbsk3kEXm11vJ6C688XdXYuciQYfn8X"
            ]
          }
        }
      ],
      "hex": "020000000178d6629f3b5427dd2b6bc3c473a10ab78d3fbd2592b7de6fadb39ed055fe490f000000006a47304402207647e2707b549416af0ec3e4557bd643c15401fbadcb97525989f0aaaf9e869602203665b6e65b3a42813b633b8f202e7d78b26c050307f16204d47ffc4c25d84fa7012102da1e9007534c7335012602ae67904cfbaae4248b08a4e2081bcfa0714ab249c8feffffff02a9ce7500000000001976a914c6be8857e2f9de8a79395869f47d3335a418d07c88acbcb91c00000000001976a914ee6e9eb34e5a80e31971ca0b77ad89e6146abade88ac37bf1400"
    }
  ],
  "time": 1517316789,
  "mediantime": 1517316376,
  "nonce": 4139923392,
  "bits": "1a042eae",
  "difficulty": 4011378.762614286,
  "chainwork": "00000000000000000000000000000000000000000000003439afc825a95b9bf6",
  "previousblockhash": "b31b95298885e9c470ec21cd82923c805aa5c22cde392ed2dbe44ce26ceb2023",
  "nextblockhash": "a2befd0aec8c4c096f08b4cd84aeb38d090832b9570ff1fed351cdf6d450e454"
}
