{
  "hash": "b0b2304e018933698c9627e25357e90f9f02d075735903f9a70ef629d436b5ab",
  "confirmations": 3313,
  "strippedsize": 3012,
  "size": 3048,
  "weight": 12084,
  "height": 1357682,
  "version": 536870912,
  "versionHex": "20000000",
  "merkleroot": "542083f0231d87fd0fe0df3b0bec0397a2198e5370e3e262a696cdb44b0c34b0",
  "tx": [
    {
      "txid": "e45d4a4953f9238cfbc4d8df43bc4744f9546f884bea251a99a884bcb01efef4",
      "hash": "5961b8b30d7d757dcae2a169c832cd261b99af2e566a098f236ac7f9622cc0bb",
      "version": 1,
      "size": 277,
      "vsize": 250,
      "locktime": 953439922,
      "vin": [
        {
          "coinbase": "0372b7142cfabe6d6dfa081a931de5cc39626aa03aa5c246cc9912641e9af983a989866c3cfbc1b35f08000000f09f909f0f4d696e6564206279207a62313233340000000000000000000000000000000000000000000000000000000000000000000000",
          "sequence": 21
        }
      ],
      "vout": [
        {
          "value": 25.00479195,
          "n": 0,
          "scriptPubKey": {
            "asm": "OP_DUP OP_HASH160 aa3750aa18b8a0f3f0590731e1fab934856680cf OP_EQUALVERIFY OP_CHECKSIG",
            "hex": "76a914aa3750aa18b8a0f3f0590731e1fab934856680cf88ac",
            "reqSigs": 1,
            "type": "pubkeyhash",
            "addresses": [
              "LajyQBeZaBA1NkZDeY8YT5RYYVRkXMvb2T"
            ]
          }
        }, 
        {
          "value": 0.00000000,
          "n": 1,
          "scriptPubKey": {
            "asm": "OP_RETURN aa21a9ed3beeb9ec6045bfe703a99c73ac9594a77cd243895b1f8f336cbc14e6d75b13c6 0000000000000000",
            "hex": "6a24aa21a9ed3beeb9ec6045bfe703a99c73ac9594a77cd243895b1f8f336cbc14e6d75b13c6080000000000000000",
            "type": "nulldata"
          }
        }
      ],
      "hex": "010000000001010000000000000000000000000000000000000000000000000000000000000000ffffffff640372b7142cfabe6d6dfa081a931de5cc39626aa03aa5c246cc9912641e9af983a989866c3cfbc1b35f08000000f09f909f0f4d696e6564206279207a623132333400000000000000000000000000000000000000000000000000000000000000000000001500000002db480a95000000001976a914aa3750aa18b8a0f3f0590731e1fab934856680cf88ac00000000000000002f6a24aa21a9ed3beeb9ec6045bfe703a99c73ac9594a77cd243895b1f8f336cbc14e6d75b13c608000000000000000001200000000000000000000000000000000000000000000000000000000000000000b256d438"
    }, 
    {
      "txid": "2f9c814fc2dc2892f37e94a81befe954ecfa20c0f1d86ae0fcde96bdea002009",
      "hash": "2f9c814fc2dc2892f37e94a81befe954ecfa20c0f1d86ae0fcde96bdea002009",
      "version": 1,
      "size": 225,
      "vsize": 225,
      "locktime": 0,
      "vin": [
        {
          "txid": "24c6bd95de01c7c9829629b94ce100a6393ed7d035c8f3f40882cd68577148ca",
          "vout": 1,
          "scriptSig": {
            "asm": "304402201c7d4079d992be5f997d24b6652464b0b428445dde9e479d4e79b8f291c279a7022028aed14abbf2a8c7f9a84fad142314e2b61f25b6740f0fef4c9fe511be659b30[ALL] 02e30ebad1371da3fcd2bf7c0b55edd6f8210e85ca043f68b3900d76cb502a1eaf",
            "hex": "47304402201c7d4079d992be5f997d24b6652464b0b428445dde9e479d4e79b8f291c279a7022028aed14abbf2a8c7f9a84fad142314e2b61f25b6740f0fef4c9fe511be659b30012102e30ebad1371da3fcd2bf7c0b55edd6f8210e85ca043f68b3900d76cb502a1eaf"
          },
          "sequence": 4294967295
        }
      ],
      "vout": [
        {
          "value": 0.05370000,
          "n": 0,
          "scriptPubKey": {
            "asm": "OP_DUP OP_HASH160 aa2f7c2e48ca0f741122fbd52a5ea0da743b8eac OP_EQUALVERIFY OP_CHECKSIG",
            "hex": "76a914aa2f7c2e48ca0f741122fbd52a5ea0da743b8eac88ac",
            "reqSigs": 1,
            "type": "pubkeyhash",
            "addresses": [
              "Lajp29PceV3MBwQTwAg24wG5p7CMGid9kv"
            ]
          }
        }, 
        {
          "value": 0.31686194,
          "n": 1,
          "scriptPubKey": {
            "asm": "OP_DUP OP_HASH160 44bdfd7b4fb8b098406a3f69491316e1b074d54a OP_EQUALVERIFY OP_CHECKSIG",
            "hex": "76a91444bdfd7b4fb8b098406a3f69491316e1b074d54a88ac",
            "reqSigs": 1,
            "type": "pubkeyhash",
            "addresses": [
              "LRVRp1GVAEUHn2zsTevZmNcTkbZDg5Xpjk"
            ]
          }
        }
      ],
      "hex": "0100000001ca48715768cd8208f4f3c835d0d73e39a600e14cb9299682c9c701de95bdc624010000006a47304402201c7d4079d992be5f997d24b6652464b0b428445dde9e479d4e79b8f291c279a7022028aed14abbf2a8c7f9a84fad142314e2b61f25b6740f0fef4c9fe511be659b30012102e30ebad1371da3fcd2bf7c0b55edd6f8210e85ca043f68b3900d76cb502a1eafffffffff0290f05100000000001976a914aa2f7c2e48ca0f741122fbd52a5ea0da743b8eac88ac327ee301000000001976a91444bdfd7b4fb8b098406a3f69491316e1b074d54a88ac00000000"
    }, 
    {
      "txid": "62423d5fcfcef721d9b60fac5efac9291e031f676acb4e9dee3a17d0e8c665bb",
      "hash": "62423d5fcfcef721d9b60fac5efac9291e031f676acb4e9dee3a17d0e8c665bb",
      "version": 2,
      "size": 816,
      "vsize": 816,
      "locktime": 1357680,
      "vin": [
        {
          "txid": "b42c08b780305c597d2d18fb350fdde991b0e80753b374e34b9ba519d3ea5da3",
          "vout": 0,
          "scriptSig": {
            "asm": "30440220420ef297174557bd5cb0b6a01846473775eebe2e008f1ba378c3eed1f0f0cd1502204108d128f3ac25e6d00724bb0e12aed8ca5e6e410a6f3d1d906ce0aab1d3cc8e[ALL] 03cd0a08559f0d48b55bd24fdda9036c8865d181fd71213d5d5fd5cb912c732745",
            "hex": "4730440220420ef297174557bd5cb0b6a01846473775eebe2e008f1ba378c3eed1f0f0cd1502204108d128f3ac25e6d00724bb0e12aed8ca5e6e410a6f3d1d906ce0aab1d3cc8e012103cd0a08559f0d48b55bd24fdda9036c8865d181fd71213d5d5fd5cb912c732745"
          },
          "sequence": 4294967294
        }, 
        {
          "txid": "ef4cb5ff71820be94d764954a3dd0f6c13d2e9c72f7d85fca3792ea14106f992",
          "vout": 0,
          "scriptSig": {
            "asm": "304402205064d5146014a39a233b2855ed7740e339789c0e83ede0c1b875b366a25b0e4a02207beaa9f32a0f3e946e3535e8502bbd4819d9c57493c396b7356a12ea3d806388[ALL] 022fd329d6c54713a6f19d5c2dfe6e4100eba026256f4be166a4545c032a23446d",
            "hex": "47304402205064d5146014a39a233b2855ed7740e339789c0e83ede0c1b875b366a25b0e4a02207beaa9f32a0f3e946e3535e8502bbd4819d9c57493c396b7356a12ea3d8063880121022fd329d6c54713a6f19d5c2dfe6e4100eba026256f4be166a4545c032a23446d"
          },
          "sequence": 4294967294
        }, 
        {
          "txid": "b7c710d83fcf070720a932c042a8f665113838aa2d4a683c506cd71d1a8c507b",
          "vout": 0,
          "scriptSig": {
            "asm": "3045022100efe7820e6ee371e0adbe6889b93dd55e32067cf7f44adc61cdf48ce1f50dc4fa0220528a853b611ffc836d892019e2204ebe8439535c5e09402d521a9aebf2e3ddbc[ALL] 0225d44ef3dee12a15d2e3df45da6833e2ec11c472f97d400818e4d102a01c78ca",
            "hex": "483045022100efe7820e6ee371e0adbe6889b93dd55e32067cf7f44adc61cdf48ce1f50dc4fa0220528a853b611ffc836d892019e2204ebe8439535c5e09402d521a9aebf2e3ddbc01210225d44ef3dee12a15d2e3df45da6833e2ec11c472f97d400818e4d102a01c78ca"
          },
          "sequence": 4294967294
        }, 
        {
          "txid": "3b14ea6243fa6a6b70e6b836d94375d35514423a95218e7e5637a3f9a29ce32a",
          "vout": 1041,
          "scriptSig": {
            "asm": "3045022100cb259e9ad0430bf02fc7d54deea70f91427ff78a2c72698e21a8bfee9164f06a0220322686c4da646395b2de2cb92db91fe4c23ff4cf94ab6021614e0fcfe8417052[ALL] 021fb5cd9e3b0db3cbb9389cbe0b57227e3418bf3f3d4c58c0f5129a903aed6531",
            "hex": "483045022100cb259e9ad0430bf02fc7d54deea70f91427ff78a2c72698e21a8bfee9164f06a0220322686c4da646395b2de2cb92db91fe4c23ff4cf94ab6021614e0fcfe84170520121021fb5cd9e3b0db3cbb9389cbe0b57227e3418bf3f3d4c58c0f5129a903aed6531"
          },
          "sequence": 4294967294
        }, 
        {
          "txid": "946a7946da24fd2ba974ee50ac93881494423a115a9d8eca40c4877d921f99a6",
          "vout": 0,
          "scriptSig": {
            "asm": "30450221009c0c325a51d73e0c64f0422f3f221fac64ecacd0192debe91b010bd612482e1b022074d23601a3103666cc6722cb4f2372a38c6f0390627461895acbcddc20fc10ef[ALL] 0319c223badac313938a9e02d56694fd3a7e7d4b9dc6ee15aa251fc5edff461acd",
            "hex": "4830450221009c0c325a51d73e0c64f0422f3f221fac64ecacd0192debe91b010bd612482e1b022074d23601a3103666cc6722cb4f2372a38c6f0390627461895acbcddc20fc10ef01210319c223badac313938a9e02d56694fd3a7e7d4b9dc6ee15aa251fc5edff461acd"
          },
          "sequence": 4294967294
        }
      ],
      "vout": [
        {
          "value": 0.01000730,
          "n": 0,
          "scriptPubKey": {
            "asm": "OP_DUP OP_HASH160 f49835dad47db9a645962f6dc677aec6cf4552e2 OP_EQUALVERIFY OP_CHECKSIG",
            "hex": "76a914f49835dad47db9a645962f6dc677aec6cf4552e288ac",
            "reqSigs": 1,
            "type": "pubkeyhash",
            "addresses": [
              "LhXFUnHTgbCk2oVFjgpcd8Q3oJHBrKca8h"
            ]
          }
        }, 
        {
          "value": 1.45900693,
          "n": 1,
          "scriptPubKey": {
            "asm": "OP_DUP OP_HASH160 94f60bfd3919772b481d04578d0a5683aad04c40 OP_EQUALVERIFY OP_CHECKSIG",
            "hex": "76a91494f60bfd3919772b481d04578d0a5683aad04c4088ac",
            "reqSigs": 1,
            "type": "pubkeyhash",
            "addresses": [
              "LYob2EjP4CEbkLoNJciXnHD5caivJe9Bo8"
            ]
          }
        }
      ],
      "hex": "0200000005a35dead319a59b4be374b35307e8b091e9dd0f35fb182d7d595c3080b7082cb4000000006a4730440220420ef297174557bd5cb0b6a01846473775eebe2e008f1ba378c3eed1f0f0cd1502204108d128f3ac25e6d00724bb0e12aed8ca5e6e410a6f3d1d906ce0aab1d3cc8e012103cd0a08559f0d48b55bd24fdda9036c8865d181fd71213d5d5fd5cb912c732745feffffff92f90641a12e79a3fc857d2fc7e9d2136c0fdda35449764de90b8271ffb54cef000000006a47304402205064d5146014a39a233b2855ed7740e339789c0e83ede0c1b875b366a25b0e4a02207beaa9f32a0f3e946e3535e8502bbd4819d9c57493c396b7356a12ea3d8063880121022fd329d6c54713a6f19d5c2dfe6e4100eba026256f4be166a4545c032a23446dfeffffff7b508c1a1dd76c503c684a2daa38381165f6a842c032a9200707cf3fd810c7b7000000006b483045022100efe7820e6ee371e0adbe6889b93dd55e32067cf7f44adc61cdf48ce1f50dc4fa0220528a853b611ffc836d892019e2204ebe8439535c5e09402d521a9aebf2e3ddbc01210225d44ef3dee12a15d2e3df45da6833e2ec11c472f97d400818e4d102a01c78cafeffffff2ae39ca2f9a337567e8e21953a421455d37543d936b8e6706b6afa4362ea143b110400006b483045022100cb259e9ad0430bf02fc7d54deea70f91427ff78a2c72698e21a8bfee9164f06a0220322686c4da646395b2de2cb92db91fe4c23ff4cf94ab6021614e0fcfe84170520121021fb5cd9e3b0db3cbb9389cbe0b57227e3418bf3f3d4c58c0f5129a903aed6531feffffffa6991f927d87c440ca8e9d5a113a4294148893ac50ee74a92bfd24da46796a94000000006b4830450221009c0c325a51d73e0c64f0422f3f221fac64ecacd0192debe91b010bd612482e1b022074d23601a3103666cc6722cb4f2372a38c6f0390627461895acbcddc20fc10ef01210319c223badac313938a9e02d56694fd3a7e7d4b9dc6ee15aa251fc5edff461acdfeffffff021a450f00000000001976a914f49835dad47db9a645962f6dc677aec6cf4552e288ac9544b208000000001976a91494f60bfd3919772b481d04578d0a5683aad04c4088ac70b71400"
    }, 
    {
      "txid": "a35c02a901e7fa657e8579d407807362218d6d52debcf38ead429c761672b840",
      "hash": "a35c02a901e7fa657e8579d407807362218d6d52debcf38ead429c761672b840",
      "version": 1,
      "size": 373,
      "vsize": 373,
      "locktime": 1357680,
      "vin": [
        {
          "txid": "da7aa2bbc594232996e69e362fc2aeb958f56a62af5651df75b94bae04e5e0d4",
          "vout": 452,
          "scriptSig": {
            "asm": "304402204a144fc83a7ee5d741ba87138298507484606be7cc355d03a4fbcaf2105f9466022079f49ae1f3a0cea44aaadc3a1f33c3505b3df41a3f67820ffccf73e4888dc7a8[ALL] 0345603099afe58ddb7b001ac8afb8a33914ed854285d2b5f3387cad1c3aa661d3",
            "hex": "47304402204a144fc83a7ee5d741ba87138298507484606be7cc355d03a4fbcaf2105f9466022079f49ae1f3a0cea44aaadc3a1f33c3505b3df41a3f67820ffccf73e4888dc7a801210345603099afe58ddb7b001ac8afb8a33914ed854285d2b5f3387cad1c3aa661d3"
          },
          "sequence": 4294967294
        }, 
        {
          "txid": "e1d6eeece77abc03d7d622166a1fd59f2f99f855a3b4e3f78d582947d7f9e10d",
          "vout": 15,
          "scriptSig": {
            "asm": "304502210094e49b7a9cef66326c6dfa138b2f2b3d1b1a147daf1c8e8805f324f8836c656902204eb8b6bd616f7b3a7159ed8c5876ea5759beea874a0b93c6cad25648f760be37[ALL] 03f62d6eadf21f5376dcf95fcf8a7cbc4a751cfdf775bd25268dab4e689694e339",
            "hex": "48304502210094e49b7a9cef66326c6dfa138b2f2b3d1b1a147daf1c8e8805f324f8836c656902204eb8b6bd616f7b3a7159ed8c5876ea5759beea874a0b93c6cad25648f760be37012103f62d6eadf21f5376dcf95fcf8a7cbc4a751cfdf775bd25268dab4e689694e339"
          },
          "sequence": 4294967294
        }
      ],
      "vout": [
        {
          "value": 0.01000036,
          "n": 0,
          "scriptPubKey": {
            "asm": "OP_DUP OP_HASH160 841801af3bc784224757dd793b70492b16a06dd4 OP_EQUALVERIFY OP_CHECKSIG",
            "hex": "76a914841801af3bc784224757dd793b70492b16a06dd488ac",
            "reqSigs": 1,
            "type": "pubkeyhash",
            "addresses": [
              "LXGQDYLNCHu4brCZGnZ9CTvi4kd8CdxT2x"
            ]
          }
        }, 
        {
          "value": 1.07337838,
          "n": 1,
          "scriptPubKey": {
            "asm": "OP_DUP OP_HASH160 b0b2868f76080da0eafe1f824810b622833477c2 OP_EQUALVERIFY OP_CHECKSIG",
            "hex": "76a914b0b2868f76080da0eafe1f824810b622833477c288ac",
            "reqSigs": 1,
            "type": "pubkeyhash",
            "addresses": [
              "LbLF49qUpN9avnqMfvBxaSQe4rucoT7vJz"
            ]
          }
        }
      ],
      "hex": "0100000002d4e0e504ae4bb975df5156af626af558b9aec22f369ee696292394c5bba27adac40100006a47304402204a144fc83a7ee5d741ba87138298507484606be7cc355d03a4fbcaf2105f9466022079f49ae1f3a0cea44aaadc3a1f33c3505b3df41a3f67820ffccf73e4888dc7a801210345603099afe58ddb7b001ac8afb8a33914ed854285d2b5f3387cad1c3aa661d3feffffff0de1f9d74729588df7e3b4a355f8992f9fd51f6a1622d6d703bc7ae7eceed6e10f0000006b48304502210094e49b7a9cef66326c6dfa138b2f2b3d1b1a147daf1c8e8805f324f8836c656902204eb8b6bd616f7b3a7159ed8c5876ea5759beea874a0b93c6cad25648f760be37012103f62d6eadf21f5376dcf95fcf8a7cbc4a751cfdf775bd25268dab4e689694e339feffffff0264420f00000000001976a914841801af3bc784224757dd793b70492b16a06dd488ac6ed86506000000001976a914b0b2868f76080da0eafe1f824810b622833477c288ac70b71400"
    }, 
    {
      "txid": "c6ff38e28d5bd75d436bde05efe9f9a2fc52f57d421f83ae9b29e19bf36c91b0",
      "hash": "c6ff38e28d5bd75d436bde05efe9f9a2fc52f57d421f83ae9b29e19bf36c91b0",
      "version": 1,
      "size": 373,
      "vsize": 373,
      "locktime": 0,
      "vin": [
        {
          "txid": "1a00964a9c3e4f59a89de0ff978aeb16c7e6a1c94b2b2e3b7cb0be103c0910b8",
          "vout": 0,
          "scriptSig": {
            "asm": "304402204fbe577cc660bfb8b7ac624fd90dbf9a8c37edbcafb424326829dadc2193b7980220730a40ca52a9f1e448c13e2e36000f44f7eedf267a3998ed63efb08bee88eded[ALL] 024fbe94ef7946bdc268b66f88ff90508d4975ba0bccbf768b76bdbec6d28b044a",
            "hex": "47304402204fbe577cc660bfb8b7ac624fd90dbf9a8c37edbcafb424326829dadc2193b7980220730a40ca52a9f1e448c13e2e36000f44f7eedf267a3998ed63efb08bee88eded0121024fbe94ef7946bdc268b66f88ff90508d4975ba0bccbf768b76bdbec6d28b044a"
          },
          "sequence": 4294967295
        }, 
        {
          "txid": "262bc3e90019d321ed8e2c5483fbc5871f7a2973fba16ab0fee4007d5356438d",
          "vout": 18,
          "scriptSig": {
            "asm": "3045022100b11c5a5f65088987ff1dd3ae05f5cd01bc7080a17e3524129dbf47b617b4af7d022035896054ca051db66a16d3c79d850b7ef086e52c0b29c9948b80f88b1e0adc4f[ALL] 024fbe94ef7946bdc268b66f88ff90508d4975ba0bccbf768b76bdbec6d28b044a",
            "hex": "483045022100b11c5a5f65088987ff1dd3ae05f5cd01bc7080a17e3524129dbf47b617b4af7d022035896054ca051db66a16d3c79d850b7ef086e52c0b29c9948b80f88b1e0adc4f0121024fbe94ef7946bdc268b66f88ff90508d4975ba0bccbf768b76bdbec6d28b044a"
          },
          "sequence": 4294967295
        }
      ],
      "vout": [
        {
          "value": 0.82624598,
          "n": 0,
          "scriptPubKey": {
            "asm": "OP_DUP OP_HASH160 9d443e51e6d8c05e21a8def4fafd28463ff26313 OP_EQUALVERIFY OP_CHECKSIG",
            "hex": "76a9149d443e51e6d8c05e21a8def4fafd28463ff2631388ac",
            "reqSigs": 1,
            "type": "pubkeyhash",
            "addresses": [
              "LZZW6y5361ykWEfc1GtybMfAii5TjiS4dd"
            ]
          }
        }, 
        {
          "value": 0.03284411,
          "n": 1,
          "scriptPubKey": {
            "asm": "OP_DUP OP_HASH160 0ebd6fbab61a28da6e22782cd8be373cd15bd301 OP_EQUALVERIFY OP_CHECKSIG",
            "hex": "76a9140ebd6fbab61a28da6e22782cd8be373cd15bd30188ac",
            "reqSigs": 1,
            "type": "pubkeyhash",
            "addresses": [
              "LLZtfB1g5386i3Ncq1KMunpp9Vn1Zydcif"
            ]
          }
        }
      ],
      "hex": "0100000002b810093c10beb07c3b2e2b4bc9a1e6c716eb8a97ffe09da8594f3e9c4a96001a000000006a47304402204fbe577cc660bfb8b7ac624fd90dbf9a8c37edbcafb424326829dadc2193b7980220730a40ca52a9f1e448c13e2e36000f44f7eedf267a3998ed63efb08bee88eded0121024fbe94ef7946bdc268b66f88ff90508d4975ba0bccbf768b76bdbec6d28b044affffffff8d4356537d00e4feb06aa1fb73297a1f87c5fb83542c8eed21d31900e9c32b26120000006b483045022100b11c5a5f65088987ff1dd3ae05f5cd01bc7080a17e3524129dbf47b617b4af7d022035896054ca051db66a16d3c79d850b7ef086e52c0b29c9948b80f88b1e0adc4f0121024fbe94ef7946bdc268b66f88ff90508d4975ba0bccbf768b76bdbec6d28b044affffffff0256c0ec04000000001976a9149d443e51e6d8c05e21a8def4fafd28463ff2631388acbb1d3200000000001976a9140ebd6fbab61a28da6e22782cd8be373cd15bd30188ac00000000"
    }, 
    {
      "txid": "2454b7fc9e315888db4c4d8c529a5c45518d7dbb47dcdc4990839dfa0748acb2",
      "hash": "2454b7fc9e315888db4c4d8c529a5c45518d7dbb47dcdc4990839dfa0748acb2",
      "version": 2,
      "size": 225,
      "vsize": 225,
      "locktime": 1357680,
      "vin": [
        {
          "txid": "e3224eed51fbeea84d2fdba6920db4cddb3285fda64b07abbed6b6929681440c",
          "vout": 1,
          "scriptSig": {
            "asm": "30440220488234feeb0c2063c26e0d33eada388d59430de7cea8059a5b8a2cbb74d845b1022056f82c8578325e25ea627113fdf5a8598e06765ae0d932155cf494375b2566f6[ALL] 02a602064294b3dbb9daad45c627985613acbfb906f9b93e3c762eb7b2d6df6661",
            "hex": "4730440220488234feeb0c2063c26e0d33eada388d59430de7cea8059a5b8a2cbb74d845b1022056f82c8578325e25ea627113fdf5a8598e06765ae0d932155cf494375b2566f6012102a602064294b3dbb9daad45c627985613acbfb906f9b93e3c762eb7b2d6df6661"
          },
          "sequence": 4294967294
        }
      ],
      "vout": [
        {
          "value": 0.07816700,
          "n": 0,
          "scriptPubKey": {
            "asm": "OP_DUP OP_HASH160 cb5c4e3c90f3af74ca942a80534b5cf05d87461b OP_EQUALVERIFY OP_CHECKSIG",
            "hex": "76a914cb5c4e3c90f3af74ca942a80534b5cf05d87461b88ac",
            "reqSigs": 1,
            "type": "pubkeyhash",
            "addresses": [
              "LdmE1fHbix5fpkhHiJG37dWykzRweg5DEr"
            ]
          }
        }, 
        {
          "value": 0.09314600,
          "n": 1,
          "scriptPubKey": {
            "asm": "OP_DUP OP_HASH160 69f43c7c396ffbb66bb9e2d92c5f475686578f37 OP_EQUALVERIFY OP_CHECKSIG",
            "hex": "76a91469f43c7c396ffbb66bb9e2d92c5f475686578f3788ac",
            "reqSigs": 1,
            "type": "pubkeyhash",
            "addresses": [
              "LUtBoBuKcbt7b5JvuKhhC6q3YTZxUjwj6t"
            ]
          }
        }
      ],
      "hex": "02000000010c44819692b6d6beab074ba6fd8532dbcdb40d92a6db2f4da8eefb51ed4e22e3010000006a4730440220488234feeb0c2063c26e0d33eada388d59430de7cea8059a5b8a2cbb74d845b1022056f82c8578325e25ea627113fdf5a8598e06765ae0d932155cf494375b2566f6012102a602064294b3dbb9daad45c627985613acbfb906f9b93e3c762eb7b2d6df6661feffffff02fc457700000000001976a914cb5c4e3c90f3af74ca942a80534b5cf05d87461b88ac28218e00000000001976a91469f43c7c396ffbb66bb9e2d92c5f475686578f3788ac70b71400"
    }, 
    {
      "txid": "dc51ea567f09827f9bdcfbee3b87591c3464b2c0c0489a4b85abbae7d6536921",
      "hash": "dc51ea567f09827f9bdcfbee3b87591c3464b2c0c0489a4b85abbae7d6536921",
      "version": 1,
      "size": 226,
      "vsize": 226,
      "locktime": 0,
      "vin": [
        {
          "txid": "28ca5b5e20869d0b679fb02b313d3d3a1306c75009ad1b52b64fc90edcf0bdcf",
          "vout": 0,
          "scriptSig": {
            "asm": "3045022100a7a936eb6d9ee5328be128c42e65ee2937fd7da7efa91cbe3579c86a1015626302202948e887573ddbd4bcb0103b2ff4941952a37f562531b41ece579715025cd65a[ALL] 03e5dea70a8a8a0b8d8d01c29435f42bcd0f95bf58e685a94710c1c8c03a2009bd",
            "hex": "483045022100a7a936eb6d9ee5328be128c42e65ee2937fd7da7efa91cbe3579c86a1015626302202948e887573ddbd4bcb0103b2ff4941952a37f562531b41ece579715025cd65a012103e5dea70a8a8a0b8d8d01c29435f42bcd0f95bf58e685a94710c1c8c03a2009bd"
          },
          "sequence": 4294967295
        }
      ],
      "vout": [
        {
          "value": 0.95000000,
          "n": 0,
          "scriptPubKey": {
            "asm": "OP_DUP OP_HASH160 b0eace74fa11c29ededdfbcdba5923ce5be3e78a OP_EQUALVERIFY OP_CHECKSIG",
            "hex": "76a914b0eace74fa11c29ededdfbcdba5923ce5be3e78a88ac",
            "reqSigs": 1,
            "type": "pubkeyhash",
            "addresses": [
              "LbMQUccjHNCjSnLpe4n56xfy1sEpjSrMbq"
            ]
          }
        }, 
        {
          "value": 0.73008516,
          "n": 1,
          "scriptPubKey": {
            "asm": "OP_DUP OP_HASH160 7888afcb92a9659add1990f79c291647d0a13f17 OP_EQUALVERIFY OP_CHECKSIG",
            "hex": "76a9147888afcb92a9659add1990f79c291647d0a13f1788ac",
            "reqSigs": 1,
            "type": "pubkeyhash",
            "addresses": [
              "LWDH6PdqcAdX3WZAaynyQCjEzbhv9zrVUd"
            ]
          }
        }
      ],
      "hex": "0100000001cfbdf0dc0ec94fb6521bad0950c706133a3d3d312bb09f670b9d86205e5bca28000000006b483045022100a7a936eb6d9ee5328be128c42e65ee2937fd7da7efa91cbe3579c86a1015626302202948e887573ddbd4bcb0103b2ff4941952a37f562531b41ece579715025cd65a012103e5dea70a8a8a0b8d8d01c29435f42bcd0f95bf58e685a94710c1c8c03a2009bdffffffff02c095a905000000001976a914b0eace74fa11c29ededdfbcdba5923ce5be3e78a88ac84055a04000000001976a9147888afcb92a9659add1990f79c291647d0a13f1788ac00000000"
    }, 
    {
      "txid": "959c65068ed1e1bf9f81a76a07c84e479a1ff0ad0725bbad53cf3d33342c1e75",
      "hash": "959c65068ed1e1bf9f81a76a07c84e479a1ff0ad0725bbad53cf3d33342c1e75",
      "version": 2,
      "size": 226,
      "vsize": 226,
      "locktime": 1357680,
      "vin": [
        {
          "txid": "73b19488b79239a29bbbf75f7481662f9406184f0912de41212885f3c82b323e",
          "vout": 1,
          "scriptSig": {
            "asm": "3045022100bcd64d7166b399eccf6e03c82e1cea248d5f69db161e412840ebf126aa2ed96e02200f688ae9f9631d8632fcc6d3b352d11b9cb1a36fa13f934f5c4d490ff7545bdc[ALL] 02b0393184aef4bb738e4a0fc597654e02543b0bffbe3e94f63c47172d24605e50",
            "hex": "483045022100bcd64d7166b399eccf6e03c82e1cea248d5f69db161e412840ebf126aa2ed96e02200f688ae9f9631d8632fcc6d3b352d11b9cb1a36fa13f934f5c4d490ff7545bdc012102b0393184aef4bb738e4a0fc597654e02543b0bffbe3e94f63c47172d24605e50"
          },
          "sequence": 4294967294
        }
      ],
      "vout": [
        {
          "value": 11.44988474,
          "n": 0,
          "scriptPubKey": {
            "asm": "OP_DUP OP_HASH160 6faf262f329368cfdbc5d6cd27f927f7b879cdad OP_EQUALVERIFY OP_CHECKSIG",
            "hex": "76a9146faf262f329368cfdbc5d6cd27f927f7b879cdad88ac",
            "reqSigs": 1,
            "type": "pubkeyhash",
            "addresses": [
              "LVQV65mWLG27ikQ3n4H4ZUMNyJmxt8uPEU"
            ]
          }
        }, 
        {
          "value": 10.90398028,
          "n": 1,
          "scriptPubKey": {
            "asm": "OP_DUP OP_HASH160 7b931a9fe7c0b07c79278c1c09c100f195abd3f3 OP_EQUALVERIFY OP_CHECKSIG",
            "hex": "76a9147b931a9fe7c0b07c79278c1c09c100f195abd3f388ac",
            "reqSigs": 1,
            "type": "pubkeyhash",
            "addresses": [
              "LWVMbmp5PZaFu3v4gvYNE6mteevqzBDE9j"
            ]
          }
        }
      ],
      "hex": "02000000013e322bc8f385282141de12094f1806942f6681745ff7bb9ba23992b78894b173010000006b483045022100bcd64d7166b399eccf6e03c82e1cea248d5f69db161e412840ebf126aa2ed96e02200f688ae9f9631d8632fcc6d3b352d11b9cb1a36fa13f934f5c4d490ff7545bdc012102b0393184aef4bb738e4a0fc597654e02543b0bffbe3e94f63c47172d24605e50feffffff023a233f44000000001976a9146faf262f329368cfdbc5d6cd27f927f7b879cdad88ac4c27fe40000000001976a9147b931a9fe7c0b07c79278c1c09c100f195abd3f388ac70b71400"
    }, 
    {
      "txid": "cad3156648a487dcf330c75b9945b4494fd45d27062313c30a809660db44a9d5",
      "hash": "cad3156648a487dcf330c75b9945b4494fd45d27062313c30a809660db44a9d5",
      "version": 1,
      "size": 226,
      "vsize": 226,
      "locktime": 0,
      "vin": [
        {
          "txid": "b216b6ad77cdf93d6ad4f2f3317b9aeeb50b59473467fa0f7522be7e3dccdff2",
          "vout": 0,
          "scriptSig": {
            "asm": "3045022100af10e63adce1f8a9fc37afc71bd403f950b1128f7d2d2fa9fed320668478fd92022022ccdf65714cec36dfdd670131847a0f94b8a1ee6dab5a2a25d8571dbd78c735[ALL] 02d788ae0c66e73ee5ccdc808d381de0ace3d8ddfc080ab5f3493f2ff69f6ca4c1",
            "hex": "483045022100af10e63adce1f8a9fc37afc71bd403f950b1128f7d2d2fa9fed320668478fd92022022ccdf65714cec36dfdd670131847a0f94b8a1ee6dab5a2a25d8571dbd78c735012102d788ae0c66e73ee5ccdc808d381de0ace3d8ddfc080ab5f3493f2ff69f6ca4c1"
          },
          "sequence": 4294967295
        }
      ],
      "vout": [
        {
          "value": 1.14732768,
          "n": 0,
          "scriptPubKey": {
            "asm": "OP_DUP OP_HASH160 d0ce9f5c1fc83e6575bcc16c220e8a660f76fead OP_EQUALVERIFY OP_CHECKSIG",
            "hex": "76a914d0ce9f5c1fc83e6575bcc16c220e8a660f76fead88ac",
            "reqSigs": 1,
            "type": "pubkeyhash",
            "addresses": [
              "LeG2LVm7CYUpzUY9DXGJNEs8XoAZU8wDBu"
            ]
          }
        }, 
        {
          "value": 0.85156444,
          "n": 1,
          "scriptPubKey": {
            "asm": "OP_DUP OP_HASH160 767f60f629fd15ba547feca54b6b64a5dd4a703b OP_EQUALVERIFY OP_CHECKSIG",
            "hex": "76a914767f60f629fd15ba547feca54b6b64a5dd4a703b88ac",
            "reqSigs": 1,
            "type": "pubkeyhash",
            "addresses": [
              "LW2WbHCeEVwQdrDTjjb4G1V2LpxxRbLm72"
            ]
          }
        }
      ],
      "hex": "0100000001f2dfcc3d7ebe22750ffa673447590bb5ee9a7b31f3f2d46a3df9cd77adb616b2000000006b483045022100af10e63adce1f8a9fc37afc71bd403f950b1128f7d2d2fa9fed320668478fd92022022ccdf65714cec36dfdd670131847a0f94b8a1ee6dab5a2a25d8571dbd78c735012102d788ae0c66e73ee5ccdc808d381de0ace3d8ddfc080ab5f3493f2ff69f6ca4c1ffffffff02e0aed606000000001976a914d0ce9f5c1fc83e6575bcc16c220e8a660f76fead88ac5c621305000000001976a914767f60f629fd15ba547feca54b6b64a5dd4a703b88ac00000000"
    }
  ],
  "time": 1517034484,
  "mediantime": 1517034010,
  "nonce": 9548304,
  "bits": "1a047f14",
  "difficulty": 3731199.183374282,
  "chainwork": "0000000000000000000000000000000000000000000000326fc918549721a8ae",
  "previousblockhash": "1b9c91096b221c2e82971bcf9f7e1078c642562e20b5925d9fee0358db969fe5",
  "nextblockhash": "fb48d73a7b6cafef3bb156753b75366750564507074d6e94e1a551556c944a97"
}
