{
  "hash": "b0ce0b72bf201131dbf650754f84f33fc074d5b195076ecad605d8366943e4f0",
  "confirmations": 1568,
  "strippedsize": 5003,
  "size": 5039,
  "weight": 20048,
  "height": 1359426,
  "version": 536870912,
  "versionHex": "20000000",
  "merkleroot": "652b6f6bed803649a4ebb9eead146d269365173a38d76452152ce3163d3ed04c",
  "tx": [
    {
      "txid": "9f6ae1044faf96c50c557a7f833cafd8c458126ab02f7f89d5208691a8eb2439",
      "hash": "cd47b53128d2972bc4591eb1c1ef0c328f9b6efb6ce6330968ef1891edc3f786",
      "version": 1,
      "size": 236,
      "vsize": 209,
      "locktime": 0,
      "vin": [
        {
          "coinbase": "0342be14045a6fdf452cfabe6d6db16eb07250ae30e1210177d6381091ddccfe9793d66d303299cb888197fa7f364000000000000000042f4c502f082200763901000000",
          "sequence": 4294967295
        }
      ],
      "vout": [
        {
          "value": 25.00880700,
          "n": 0,
          "scriptPubKey": {
            "asm": "OP_DUP OP_HASH160 57757ed2ecf2052ff3126c397aca7defb9ca2cec OP_EQUALVERIFY OP_CHECKSIG",
            "hex": "76a91457757ed2ecf2052ff3126c397aca7defb9ca2cec88ac",
            "reqSigs": 1,
            "type": "pubkeyhash",
            "addresses": [
              "LTCPodGk5FwcJaRzH9yKnwicxzFUbxp6tN"
            ]
          }
        }, 
        {
          "value": 0.00000000,
          "n": 1,
          "scriptPubKey": {
            "asm": "OP_RETURN aa21a9ed165936d7b3900aeae06127cb35dfb9c5a95cabc6d01b0148890d9d9add6eed5e",
            "hex": "6a24aa21a9ed165936d7b3900aeae06127cb35dfb9c5a95cabc6d01b0148890d9d9add6eed5e",
            "type": "nulldata"
          }
        }
      ],
      "hex": "010000000001010000000000000000000000000000000000000000000000000000000000000000ffffffff440342be14045a6fdf452cfabe6d6db16eb07250ae30e1210177d6381091ddccfe9793d66d303299cb888197fa7f364000000000000000042f4c502f082200763901000000ffffffff023c691095000000001976a91457757ed2ecf2052ff3126c397aca7defb9ca2cec88ac0000000000000000266a24aa21a9ed165936d7b3900aeae06127cb35dfb9c5a95cabc6d01b0148890d9d9add6eed5e0120000000000000000000000000000000000000000000000000000000000000000000000000"
    }, 
    {
      "txid": "484ea7de36f0f841da2b250bcb1a4c6c2f28f9062d910b7d98eb6cf3608fde9f",
      "hash": "484ea7de36f0f841da2b250bcb1a4c6c2f28f9062d910b7d98eb6cf3608fde9f",
      "version": 1,
      "size": 520,
      "vsize": 520,
      "locktime": 0,
      "vin": [
        {
          "txid": "b6b1e99660734b7a464f0f7d7783b4c76209113b97fb1cc1baa01aa8ed9ca3b1",
          "vout": 0,
          "scriptSig": {
            "asm": "304402203719021cad585fe046706844f7083ac6d028129f1c15a8825072c9582c0f4f5c02201e63017bc194ef512f298d27273a6d09cda93fd1dcec9e72991e2a01987ff54f[ALL] 027450686ba49b436453c5c97412b383d1b9f6d4a67496e11cf9beba5bad8606f5",
            "hex": "47304402203719021cad585fe046706844f7083ac6d028129f1c15a8825072c9582c0f4f5c02201e63017bc194ef512f298d27273a6d09cda93fd1dcec9e72991e2a01987ff54f0121027450686ba49b436453c5c97412b383d1b9f6d4a67496e11cf9beba5bad8606f5"
          },
          "sequence": 4294967295
        }, 
        {
          "txid": "ff3c505570bfcbeaeb3329d00d673d2222d0ebd0f5bcf2b692c211a1bd4e3266",
          "vout": 1,
          "scriptSig": {
            "asm": "30450221008614afa846ac7d52636baf7ed87c3bea2f88b75d4ff8910f512cb8cf35f2f8eb022058dad8db14de4df01184f9b0b390bedd6ed155eab8d00c873d33c5d9ecd5bc1c[ALL] 03acdaf85d800fb5abcf833f0f43495adcf54694572aa82f4b788d4d2dbc10c463",
            "hex": "4830450221008614afa846ac7d52636baf7ed87c3bea2f88b75d4ff8910f512cb8cf35f2f8eb022058dad8db14de4df01184f9b0b390bedd6ed155eab8d00c873d33c5d9ecd5bc1c012103acdaf85d800fb5abcf833f0f43495adcf54694572aa82f4b788d4d2dbc10c463"
          },
          "sequence": 4294967295
        }, 
        {
          "txid": "96c3493003cfccbc8c8f4951f03941c1cb57622fc1b8d04887732bf9901f401d",
          "vout": 1,
          "scriptSig": {
            "asm": "3044022022cf7aa9b46129e5096cd648545d25782eedd23a431f3469188c16c742ab3dda02204f29943b66a902fa7f86bcc5736685ae975499c43ce4f04c8f30d5c684c34f4b[ALL] 03c27c6b88d1d31d9fce70bfefa3a77da9cd1e69f74de7f831cceedcf703b11e9d",
            "hex": "473044022022cf7aa9b46129e5096cd648545d25782eedd23a431f3469188c16c742ab3dda02204f29943b66a902fa7f86bcc5736685ae975499c43ce4f04c8f30d5c684c34f4b012103c27c6b88d1d31d9fce70bfefa3a77da9cd1e69f74de7f831cceedcf703b11e9d"
          },
          "sequence": 4294967295
        }
      ],
      "vout": [
        {
          "value": 0.77677770,
          "n": 0,
          "scriptPubKey": {
            "asm": "OP_DUP OP_HASH160 d95e0fd81d4739b6b673c04a57524fbda0cb6ae8 OP_EQUALVERIFY OP_CHECKSIG",
            "hex": "76a914d95e0fd81d4739b6b673c04a57524fbda0cb6ae888ac",
            "reqSigs": 1,
            "type": "pubkeyhash",
            "addresses": [
              "Lf3HaNhmQqqZPHf7bhAbMtEE2tVWRXthS9"
            ]
          }
        }, 
        {
          "value": 1.00161693,
          "n": 1,
          "scriptPubKey": {
            "asm": "OP_DUP OP_HASH160 820e2974aead0607e85e0dcc41228cbd7be15b19 OP_EQUALVERIFY OP_CHECKSIG",
            "hex": "76a914820e2974aead0607e85e0dcc41228cbd7be15b1988ac",
            "reqSigs": 1,
            "type": "pubkeyhash",
            "addresses": [
              "LX5d593o9u5JWw4arHA7FZzexw79mTCGCu"
            ]
          }
        }
      ],
      "hex": "0100000003b1a39ceda81aa0bac11cfb973b110962c7b483777d0f4f467a4b736096e9b1b6000000006a47304402203719021cad585fe046706844f7083ac6d028129f1c15a8825072c9582c0f4f5c02201e63017bc194ef512f298d27273a6d09cda93fd1dcec9e72991e2a01987ff54f0121027450686ba49b436453c5c97412b383d1b9f6d4a67496e11cf9beba5bad8606f5ffffffff66324ebda111c292b6f2bcf5d0ebd022223d670dd02933ebeacbbf7055503cff010000006b4830450221008614afa846ac7d52636baf7ed87c3bea2f88b75d4ff8910f512cb8cf35f2f8eb022058dad8db14de4df01184f9b0b390bedd6ed155eab8d00c873d33c5d9ecd5bc1c012103acdaf85d800fb5abcf833f0f43495adcf54694572aa82f4b788d4d2dbc10c463ffffffff1d401f90f92b738748d0b8c12f6257cbc14139f051498f8cbccccf033049c396010000006a473044022022cf7aa9b46129e5096cd648545d25782eedd23a431f3469188c16c742ab3dda02204f29943b66a902fa7f86bcc5736685ae975499c43ce4f04c8f30d5c684c34f4b012103c27c6b88d1d31d9fce70bfefa3a77da9cd1e69f74de7f831cceedcf703b11e9dffffffff02ca44a104000000001976a914d95e0fd81d4739b6b673c04a57524fbda0cb6ae888ac9d58f805000000001976a914820e2974aead0607e85e0dcc41228cbd7be15b1988ac00000000"
    }, 
    {
      "txid": "fb78bc48414570ccb11681bf3af9092693da9dbd93c5e1400fda38fd338e4bee",
      "hash": "fb78bc48414570ccb11681bf3af9092693da9dbd93c5e1400fda38fd338e4bee",
      "version": 1,
      "size": 225,
      "vsize": 225,
      "locktime": 0,
      "vin": [
        {
          "txid": "fa6add6e957ec5354a3bdc12ac5e83fddd24dbb484727a197f18b63ed0367883",
          "vout": 1,
          "scriptSig": {
            "asm": "30440220730bfe1ce4d8a2641c289e73588aa6446697b47c8f18cea9715adaaa98c28f6f0220796208c6ea1d2faa8bc8dc9f36ac34df2a76f186222e1b5faff2a19d6d7f60f8[ALL] 03f8d5a6d0721a54dacb5fe778310eb0068f80471a068114e744a5ff6a072db194",
            "hex": "4730440220730bfe1ce4d8a2641c289e73588aa6446697b47c8f18cea9715adaaa98c28f6f0220796208c6ea1d2faa8bc8dc9f36ac34df2a76f186222e1b5faff2a19d6d7f60f8012103f8d5a6d0721a54dacb5fe778310eb0068f80471a068114e744a5ff6a072db194"
          },
          "sequence": 4294967295
        }
      ],
      "vout": [
        {
          "value": 0.99900000,
          "n": 0,
          "scriptPubKey": {
            "asm": "OP_DUP OP_HASH160 326d2c443ec643fe485550844ec41499b452c619 OP_EQUALVERIFY OP_CHECKSIG",
            "hex": "76a914326d2c443ec643fe485550844ec41499b452c61988ac",
            "reqSigs": 1,
            "type": "pubkeyhash",
            "addresses": [
              "LPpaqGiQ67GsYL2YJ2uTuyFVqD7MN7hXY6"
            ]
          }
        }, 
        {
          "value": 1.00000000,
          "n": 1,
          "scriptPubKey": {
            "asm": "OP_DUP OP_HASH160 c71b6eb7c94bb627e937275697c99d0805f00ba2 OP_EQUALVERIFY OP_CHECKSIG",
            "hex": "76a914c71b6eb7c94bb627e937275697c99d0805f00ba288ac",
            "reqSigs": 1,
            "type": "pubkeyhash",
            "addresses": [
              "LdNjbRuVyAnkhq2uzUenN9QG738yd869Dj"
            ]
          }
        }
      ],
      "hex": "0100000001837836d03eb6187f197a7284b4db24ddfd835eac12dc3b4a35c57e956edd6afa010000006a4730440220730bfe1ce4d8a2641c289e73588aa6446697b47c8f18cea9715adaaa98c28f6f0220796208c6ea1d2faa8bc8dc9f36ac34df2a76f186222e1b5faff2a19d6d7f60f8012103f8d5a6d0721a54dacb5fe778310eb0068f80471a068114e744a5ff6a072db194ffffffff02605af405000000001976a914326d2c443ec643fe485550844ec41499b452c61988ac00e1f505000000001976a914c71b6eb7c94bb627e937275697c99d0805f00ba288ac00000000"
    }, 
    {
      "txid": "febd04264ea6fc8aefd10480126adc8010f7a40affb6c4a7a8845b30b42461c3",
      "hash": "febd04264ea6fc8aefd10480126adc8010f7a40affb6c4a7a8845b30b42461c3",
      "version": 1,
      "size": 225,
      "vsize": 225,
      "locktime": 0,
      "vin": [
        {
          "txid": "35dc3393ef6126c641869131924b6ab5681ebd2667841e142ab27b2603e2c023",
          "vout": 1,
          "scriptSig": {
            "asm": "30440220239ed17bfc72ab604c1dd6b9b63db05f44a551f56c04aa080b2bbfef69ff67190220669da845b56e1da10724b7f49d3aff63e33dfd26f047e2a4ab39ceace9e9371a[ALL] 0391ac96575b48a90b5767492e651f2e457259f82673419180ff019d24beac458c",
            "hex": "4730440220239ed17bfc72ab604c1dd6b9b63db05f44a551f56c04aa080b2bbfef69ff67190220669da845b56e1da10724b7f49d3aff63e33dfd26f047e2a4ab39ceace9e9371a01210391ac96575b48a90b5767492e651f2e457259f82673419180ff019d24beac458c"
          },
          "sequence": 4294967295
        }
      ],
      "vout": [
        {
          "value": 35.72802301,
          "n": 0,
          "scriptPubKey": {
            "asm": "OP_DUP OP_HASH160 6754d0926beb3d67eb8ef825d09dbb761c138c1d OP_EQUALVERIFY OP_CHECKSIG",
            "hex": "76a9146754d0926beb3d67eb8ef825d09dbb761c138c1d88ac",
            "reqSigs": 1,
            "type": "pubkeyhash",
            "addresses": [
              "LUeKU16yHMDkUPwhy5zbrzADtSEsApUsfk"
            ]
          }
        }, 
        {
          "value": 1.85248131,
          "n": 1,
          "scriptPubKey": {
            "asm": "OP_DUP OP_HASH160 3e159240156ad66993515bed4cb36ed56379a30f OP_EQUALVERIFY OP_CHECKSIG",
            "hex": "76a9143e159240156ad66993515bed4cb36ed56379a30f88ac",
            "reqSigs": 1,
            "type": "pubkeyhash",
            "addresses": [
              "LQtDzuW8XSe8oTP2D2ZoamyXCFJvsg2THQ"
            ]
          }
        }
      ],
      "hex": "010000000123c0e203267bb22a141e846726bd1e68b56a4b9231918641c62661ef9333dc35010000006a4730440220239ed17bfc72ab604c1dd6b9b63db05f44a551f56c04aa080b2bbfef69ff67190220669da845b56e1da10724b7f49d3aff63e33dfd26f047e2a4ab39ceace9e9371a01210391ac96575b48a90b5767492e651f2e457259f82673419180ff019d24beac458cffffffff02fda2f4d4000000001976a9146754d0926beb3d67eb8ef825d09dbb761c138c1d88ac83a90a0b000000001976a9143e159240156ad66993515bed4cb36ed56379a30f88ac00000000"
    }, 
    {
      "txid": "fa31c1db2023d0e1c1997978fc57df9cd1d07b3e0f2fb09cd5ccfa178aea6b67",
      "hash": "fa31c1db2023d0e1c1997978fc57df9cd1d07b3e0f2fb09cd5ccfa178aea6b67",
      "version": 1,
      "size": 192,
      "vsize": 192,
      "locktime": 0,
      "vin": [
        {
          "txid": "febd04264ea6fc8aefd10480126adc8010f7a40affb6c4a7a8845b30b42461c3",
          "vout": 1,
          "scriptSig": {
            "asm": "3045022100aad7f3566db9d4de7d49b94c8961506f740fb79ee3689cb3dd31d233f7c2499a02200beb929d820dfc39eaab1aca426559ae62014ebf27cb27c54ba272f0cb470300[ALL] 03a0b2f6e678c2b3ee25654233d437e00c823112d532bf95dab9eccbc7632a78f9",
            "hex": "483045022100aad7f3566db9d4de7d49b94c8961506f740fb79ee3689cb3dd31d233f7c2499a02200beb929d820dfc39eaab1aca426559ae62014ebf27cb27c54ba272f0cb470300012103a0b2f6e678c2b3ee25654233d437e00c823112d532bf95dab9eccbc7632a78f9"
          },
          "sequence": 4294967295
        }
      ],
      "vout": [
        {
          "value": 1.85198131,
          "n": 0,
          "scriptPubKey": {
            "asm": "OP_DUP OP_HASH160 4848f1e0e33b1539629f5c2182eed26f202f3e93 OP_EQUALVERIFY OP_CHECKSIG",
            "hex": "76a9144848f1e0e33b1539629f5c2182eed26f202f3e9388ac",
            "reqSigs": 1,
            "type": "pubkeyhash",
            "addresses": [
              "LRpAJKa3Yz7FwrwUsBM5rZh57qVJd1ZvH4"
            ]
          }
        }
      ],
      "hex": "0100000001c36124b4305b84a8a7c4b6ff0aa4f71080dc6a128004d1ef8afca64e2604bdfe010000006b483045022100aad7f3566db9d4de7d49b94c8961506f740fb79ee3689cb3dd31d233f7c2499a02200beb929d820dfc39eaab1aca426559ae62014ebf27cb27c54ba272f0cb470300012103a0b2f6e678c2b3ee25654233d437e00c823112d532bf95dab9eccbc7632a78f9ffffffff0133e6090b000000001976a9144848f1e0e33b1539629f5c2182eed26f202f3e9388ac00000000"
    }, 
    {
      "txid": "a69c7107daeace68028039cc4ee79a7ee5edd55cc9c773d8c7a448e8347ce58d",
      "hash": "a69c7107daeace68028039cc4ee79a7ee5edd55cc9c773d8c7a448e8347ce58d",
      "version": 1,
      "size": 225,
      "vsize": 225,
      "locktime": 1359424,
      "vin": [
        {
          "txid": "5b9199e5a12a56b2d2fdd747430cb37a7b233bd138e031a5e10ec48d82c83211",
          "vout": 1,
          "scriptSig": {
            "asm": "30440220653345b75f083e46adc54551fe7766b3fccb1fc175f13ae6eb19d58167b9508102200e37abe3493c42ceba5e8921d1021a0298d9e7321fefd97048bcb38db216295f[ALL] 02409b22755f698341d3d4ee07c898af1df5d0c084c8b3892293797f0caeceaa70",
            "hex": "4730440220653345b75f083e46adc54551fe7766b3fccb1fc175f13ae6eb19d58167b9508102200e37abe3493c42ceba5e8921d1021a0298d9e7321fefd97048bcb38db216295f012102409b22755f698341d3d4ee07c898af1df5d0c084c8b3892293797f0caeceaa70"
          },
          "sequence": 4294967294
        }
      ],
      "vout": [
        {
          "value": 0.11162850,
          "n": 0,
          "scriptPubKey": {
            "asm": "OP_DUP OP_HASH160 4ca01f8ad784a65e9efc882d2b5581bd909ccb1a OP_EQUALVERIFY OP_CHECKSIG",
            "hex": "76a9144ca01f8ad784a65e9efc882d2b5581bd909ccb1a88ac",
            "reqSigs": 1,
            "type": "pubkeyhash",
            "addresses": [
              "LSD7SM8nu8LWJ9NhJzSAm5GTqNwPKPg3xk"
            ]
          }
        }, 
        {
          "value": 0.18960690,
          "n": 1,
          "scriptPubKey": {
            "asm": "OP_DUP OP_HASH160 56e456935f4a46fbcaaafb840c5fdcef304bf468 OP_EQUALVERIFY OP_CHECKSIG",
            "hex": "76a91456e456935f4a46fbcaaafb840c5fdcef304bf46888ac",
            "reqSigs": 1,
            "type": "pubkeyhash",
            "addresses": [
              "LT9PuveTPaHA4X6fHJU17913rdP8SYZh42"
            ]
          }
        }
      ],
      "hex": "01000000011132c8828dc40ee1a531e038d13b237b7ab30c4347d7fdd2b2562aa1e599915b010000006a4730440220653345b75f083e46adc54551fe7766b3fccb1fc175f13ae6eb19d58167b9508102200e37abe3493c42ceba5e8921d1021a0298d9e7321fefd97048bcb38db216295f012102409b22755f698341d3d4ee07c898af1df5d0c084c8b3892293797f0caeceaa70feffffff02e254aa00000000001976a9144ca01f8ad784a65e9efc882d2b5581bd909ccb1a88ac32512101000000001976a91456e456935f4a46fbcaaafb840c5fdcef304bf46888ac40be1400"
    }, 
    {
      "txid": "62493f31c001afe1dac6350648895faab104fd63b910a3b3b8484c22ea794236",
      "hash": "62493f31c001afe1dac6350648895faab104fd63b910a3b3b8484c22ea794236",
      "version": 1,
      "size": 225,
      "vsize": 225,
      "locktime": 0,
      "vin": [
        {
          "txid": "c9032c99c5dd9c3b03dd9e778831d6b757e204af7b11e78f44aa639cda5ad3a7",
          "vout": 1,
          "scriptSig": {
            "asm": "3044022051ef90575f7005b81422e2406e01779143bf1a913f2077ef2aef6cb6ce311ecc0220703f81feadc9de9ae7194a6cd7014bcecf3971cdcfc0f5c24a2cbe0e46138e44[ALL] 03d918533ea22cea758313edf456e976bf0563d3e3759046376ca78301ad415a04",
            "hex": "473044022051ef90575f7005b81422e2406e01779143bf1a913f2077ef2aef6cb6ce311ecc0220703f81feadc9de9ae7194a6cd7014bcecf3971cdcfc0f5c24a2cbe0e46138e44012103d918533ea22cea758313edf456e976bf0563d3e3759046376ca78301ad415a04"
          },
          "sequence": 4294967295
        }
      ],
      "vout": [
        {
          "value": 4.63457226,
          "n": 0,
          "scriptPubKey": {
            "asm": "OP_DUP OP_HASH160 381344feb934894bd90a168aa6da0f36bb014ca5 OP_EQUALVERIFY OP_CHECKSIG",
            "hex": "76a914381344feb934894bd90a168aa6da0f36bb014ca588ac",
            "reqSigs": 1,
            "type": "pubkeyhash",
            "addresses": [
              "LQLTBpnRzCoquRbBX9P8eewJkNggVLFmhZ"
            ]
          }
        }, 
        {
          "value": 1.62706837,
          "n": 1,
          "scriptPubKey": {
            "asm": "OP_DUP OP_HASH160 8171419c4fc661b043cf5e65dde086e17d859999 OP_EQUALVERIFY OP_CHECKSIG",
            "hex": "76a9148171419c4fc661b043cf5e65dde086e17d85999988ac",
            "reqSigs": 1,
            "type": "pubkeyhash",
            "addresses": [
              "LX2P79KQMa8v9mmUbH4YviBMW25Ne5vogK"
            ]
          }
        }
      ],
      "hex": "0100000001a7d35ada9c63aa448fe7117baf04e257b7d63188779edd033b9cddc5992c03c9010000006a473044022051ef90575f7005b81422e2406e01779143bf1a913f2077ef2aef6cb6ce311ecc0220703f81feadc9de9ae7194a6cd7014bcecf3971cdcfc0f5c24a2cbe0e46138e44012103d918533ea22cea758313edf456e976bf0563d3e3759046376ca78301ad415a04ffffffff02cacb9f1b000000001976a914381344feb934894bd90a168aa6da0f36bb014ca588ac95b5b209000000001976a9148171419c4fc661b043cf5e65dde086e17d85999988ac00000000"
    }, 
    {
      "txid": "db4773cebff6c2347da7ca957204fd3eb8641735c134af086d6a1420f342334e",
      "hash": "db4773cebff6c2347da7ca957204fd3eb8641735c134af086d6a1420f342334e",
      "version": 1,
      "size": 225,
      "vsize": 225,
      "locktime": 0,
      "vin": [
        {
          "txid": "b392d58cb6d4523f96bcab456dadcb324458bf3f44d94e29b52ed36758d5e200",
          "vout": 0,
          "scriptSig": {
            "asm": "3044022027a5fe69138068af5724142bf268c75a71a9e863ceeee2b0c70d1ee0209f8d7e022062cc80a0cad8c86d282c5bd7fcf89212ad875d218c157e816b205acf78b5aa95[ALL] 03dc6ea05bddbe21a1d251b55674b6567362165a2bd9ce7e1b94e7f444438e144a",
            "hex": "473044022027a5fe69138068af5724142bf268c75a71a9e863ceeee2b0c70d1ee0209f8d7e022062cc80a0cad8c86d282c5bd7fcf89212ad875d218c157e816b205acf78b5aa95012103dc6ea05bddbe21a1d251b55674b6567362165a2bd9ce7e1b94e7f444438e144a"
          },
          "sequence": 4294967295
        }
      ],
      "vout": [
        {
          "value": 42.13783666,
          "n": 0,
          "scriptPubKey": {
            "asm": "OP_DUP OP_HASH160 dfc28b85e538a4dfec34683861754cc28325c313 OP_EQUALVERIFY OP_CHECKSIG",
            "hex": "76a914dfc28b85e538a4dfec34683861754cc28325c31388ac",
            "reqSigs": 1,
            "type": "pubkeyhash",
            "addresses": [
              "Lfd61DTWBFHWfrVrf3pe2ZGYsBmqnR5n94"
            ]
          }
        }, 
        {
          "value": 0.99977400,
          "n": 1,
          "scriptPubKey": {
            "asm": "OP_DUP OP_HASH160 a1e04655ae58cce928d2943f5acb58b0e5751d8d OP_EQUALVERIFY OP_CHECKSIG",
            "hex": "76a914a1e04655ae58cce928d2943f5acb58b0e5751d8d88ac",
            "reqSigs": 1,
            "type": "pubkeyhash",
            "addresses": [
              "LZysiyoYxKSS8Fnu4EzfM3cxVSPNqvwyrq"
            ]
          }
        }
      ],
      "hex": "010000000100e2d55867d32eb5294ed9443fbf584432cbad6d45abbc963f52d4b68cd592b3000000006a473044022027a5fe69138068af5724142bf268c75a71a9e863ceeee2b0c70d1ee0209f8d7e022062cc80a0cad8c86d282c5bd7fcf89212ad875d218c157e816b205acf78b5aa95012103dc6ea05bddbe21a1d251b55674b6567362165a2bd9ce7e1b94e7f444438e144affffffff02723c29fb000000001976a914dfc28b85e538a4dfec34683861754cc28325c31388acb888f505000000001976a914a1e04655ae58cce928d2943f5acb58b0e5751d8d88ac00000000"
    }, 
    {
      "txid": "df62faa7c2ba26eff471fcd7aa715d29b8e3c518ff7c9d2392d829de09e68162",
      "hash": "df62faa7c2ba26eff471fcd7aa715d29b8e3c518ff7c9d2392d829de09e68162",
      "version": 2,
      "size": 225,
      "vsize": 225,
      "locktime": 1359424,
      "vin": [
        {
          "txid": "a982a710cd40b8151c67bf6b06a9389f694184491eb3082d1d96615cf9b00673",
          "vout": 1,
          "scriptSig": {
            "asm": "304402206db7fc96fab373777977bf19ffa9e98ffd198122061e410ced3247ae83cdb25b02206ee5e1f218ccd385496a7737405522b5dc02416d0766e8bb378825517daedea9[ALL] 0245e08b3c2cf876d07e5972376be048bc0171a75ec54e5f2c14578d7811b879c4",
            "hex": "47304402206db7fc96fab373777977bf19ffa9e98ffd198122061e410ced3247ae83cdb25b02206ee5e1f218ccd385496a7737405522b5dc02416d0766e8bb378825517daedea901210245e08b3c2cf876d07e5972376be048bc0171a75ec54e5f2c14578d7811b879c4"
          },
          "sequence": 4294967294
        }
      ],
      "vout": [
        {
          "value": 225.13596326,
          "n": 0,
          "scriptPubKey": {
            "asm": "OP_DUP OP_HASH160 d04c346be299d14e5fc9cd496dbc65728f97a053 OP_EQUALVERIFY OP_CHECKSIG",
            "hex": "76a914d04c346be299d14e5fc9cd496dbc65728f97a05388ac",
            "reqSigs": 1,
            "type": "pubkeyhash",
            "addresses": [
              "LeDL6uyB9upshULHxDStwReyrZ3iHx53Qn"
            ]
          }
        }, 
        {
          "value": 0.18799643,
          "n": 1,
          "scriptPubKey": {
            "asm": "OP_DUP OP_HASH160 926610d2b87a3fae4acab9149e509eb60381bfb6 OP_EQUALVERIFY OP_CHECKSIG",
            "hex": "76a914926610d2b87a3fae4acab9149e509eb60381bfb688ac",
            "reqSigs": 1,
            "type": "pubkeyhash",
            "addresses": [
              "LYa3BsSZ1ZTRNsJBg9sFJQFSY9tcu817ii"
            ]
          }
        }
      ],
      "hex": "02000000017306b0f95c61961d2d08b31e498441699f38a9066bbf671c15b840cd10a782a9010000006a47304402206db7fc96fab373777977bf19ffa9e98ffd198122061e410ced3247ae83cdb25b02206ee5e1f218ccd385496a7737405522b5dc02416d0766e8bb378825517daedea901210245e08b3c2cf876d07e5972376be048bc0171a75ec54e5f2c14578d7811b879c4feffffff02a637ea3d050000001976a914d04c346be299d14e5fc9cd496dbc65728f97a05388ac1bdc1e01000000001976a914926610d2b87a3fae4acab9149e509eb60381bfb688ac40be1400"
    }, 
    {
      "txid": "b401c9dd1ddc5841fb6b2f9b09954800df45adee5bb117143b6849a3a8a1db82",
      "hash": "b401c9dd1ddc5841fb6b2f9b09954800df45adee5bb117143b6849a3a8a1db82",
      "version": 1,
      "size": 225,
      "vsize": 225,
      "locktime": 0,
      "vin": [
        {
          "txid": "4241d73be6962fcdd72a21882ca23e0b1f6508a528a142ff70944f0622c1a844",
          "vout": 1,
          "scriptSig": {
            "asm": "30440220544f0c914e1e6374fc7ff1627b6d39e7b41fdb45776b4a5f5a4f612637dee0d6022056241fd39bfc8b546d08ef23b93ab3b68a9b8a076106bbef1ecb8c5cdc7e1995[ALL] 0200bb3da69ca41636c9f72864b910fdcc0b4e2f4877537b660f3822be1e0a4058",
            "hex": "4730440220544f0c914e1e6374fc7ff1627b6d39e7b41fdb45776b4a5f5a4f612637dee0d6022056241fd39bfc8b546d08ef23b93ab3b68a9b8a076106bbef1ecb8c5cdc7e199501210200bb3da69ca41636c9f72864b910fdcc0b4e2f4877537b660f3822be1e0a4058"
          },
          "sequence": 4294967295
        }
      ],
      "vout": [
        {
          "value": 0.00065085,
          "n": 0,
          "scriptPubKey": {
            "asm": "OP_DUP OP_HASH160 2292ebb6658ccacff0a53f91cf18cfaf14686b18 OP_EQUALVERIFY OP_CHECKSIG",
            "hex": "76a9142292ebb6658ccacff0a53f91cf18cfaf14686b1888ac",
            "reqSigs": 1,
            "type": "pubkeyhash",
            "addresses": [
              "LNNmEy6nD9DhdfhEbHWYfxPUs91URh6jry"
            ]
          }
        }, 
        {
          "value": 0.00566524,
          "n": 1,
          "scriptPubKey": {
            "asm": "OP_DUP OP_HASH160 bc3dbf834c173add7071358d3b0918737b48e299 OP_EQUALVERIFY OP_CHECKSIG",
            "hex": "76a914bc3dbf834c173add7071358d3b0918737b48e29988ac",
            "reqSigs": 1,
            "type": "pubkeyhash",
            "addresses": [
              "LcPHGcLm8dGTYfYBK12EqtaXba22GzGoeE"
            ]
          }
        }
      ],
      "hex": "010000000144a8c122064f9470ff42a128a508651f0b3ea22c88212ad7cd2f96e63bd74142010000006a4730440220544f0c914e1e6374fc7ff1627b6d39e7b41fdb45776b4a5f5a4f612637dee0d6022056241fd39bfc8b546d08ef23b93ab3b68a9b8a076106bbef1ecb8c5cdc7e199501210200bb3da69ca41636c9f72864b910fdcc0b4e2f4877537b660f3822be1e0a4058ffffffff023dfe0000000000001976a9142292ebb6658ccacff0a53f91cf18cfaf14686b1888acfca40800000000001976a914bc3dbf834c173add7071358d3b0918737b48e29988ac00000000"
    }, 
    {
      "txid": "8b4bbcad542a755b7bd4fa76a35b278fb9e7defe2e970a78d0a82892bef1dec5",
      "hash": "8b4bbcad542a755b7bd4fa76a35b278fb9e7defe2e970a78d0a82892bef1dec5",
      "version": 1,
      "size": 225,
      "vsize": 225,
      "locktime": 0,
      "vin": [
        {
          "txid": "84c4fc359426b8c6b1032953889a348b1ccbd950f1f0957a2b5c1dd0f4b16a18",
          "vout": 1,
          "scriptSig": {
            "asm": "304402203240072f28e3fdca781f4a4ae8dec55c567e030f6c348341f1ada01c7e485b6002200c0ee3d2f3324aebf6c51978e93a34f26004c3dbe7f4d29f92a9ee5d17019213[ALL] 0291c646ce550de02263b74f47ee945427a226f434de4283f470b7b5b46cb4cd74",
            "hex": "47304402203240072f28e3fdca781f4a4ae8dec55c567e030f6c348341f1ada01c7e485b6002200c0ee3d2f3324aebf6c51978e93a34f26004c3dbe7f4d29f92a9ee5d1701921301210291c646ce550de02263b74f47ee945427a226f434de4283f470b7b5b46cb4cd74"
          },
          "sequence": 4294967295
        }
      ],
      "vout": [
        {
          "value": 42.96805896,
          "n": 0,
          "scriptPubKey": {
            "asm": "OP_DUP OP_HASH160 f8df7851508e7da159a8af8adf8d3177b174cf4b OP_EQUALVERIFY OP_CHECKSIG",
            "hex": "76a914f8df7851508e7da159a8af8adf8d3177b174cf4b88ac",
            "reqSigs": 1,
            "type": "pubkeyhash",
            "addresses": [
              "LhusYkh7oxpFTzDsX1vh5VtRMMiEdhWj2g"
            ]
          }
        }, 
        {
          "value": 4.78996935,
          "n": 1,
          "scriptPubKey": {
            "asm": "OP_DUP OP_HASH160 edf26bee657511fc97fbb678b49d32a08b9c63c8 OP_EQUALVERIFY OP_CHECKSIG",
            "hex": "76a914edf26bee657511fc97fbb678b49d32a08b9c63c888ac",
            "reqSigs": 1,
            "type": "pubkeyhash",
            "addresses": [
              "Lgv6pRd3itBsQziyzFcwGDqSz69dLLQhpo"
            ]
          }
        }
      ],
      "hex": "0100000001186ab1f4d01d5c2b7a95f0f150d9cb1c8b349a88532903b1c6b8269435fcc484010000006a47304402203240072f28e3fdca781f4a4ae8dec55c567e030f6c348341f1ada01c7e485b6002200c0ee3d2f3324aebf6c51978e93a34f26004c3dbe7f4d29f92a9ee5d1701921301210291c646ce550de02263b74f47ee945427a226f434de4283f470b7b5b46cb4cd74ffffffff02080e1c00010000001976a914f8df7851508e7da159a8af8adf8d3177b174cf4b88acc7e98c1c000000001976a914edf26bee657511fc97fbb678b49d32a08b9c63c888ac00000000"
    }, 
    {
      "txid": "17783bf5c62a1713b669f4221c42876ea02bb9aff5622c8e299f829e951902c7",
      "hash": "17783bf5c62a1713b669f4221c42876ea02bb9aff5622c8e299f829e951902c7",
      "version": 1,
      "size": 225,
      "vsize": 225,
      "locktime": 0,
      "vin": [
        {
          "txid": "516179df5eedb9aecf780e5a69f6e3cc0eb0e8e1ace7e3a71c60ae777fdf3586",
          "vout": 1,
          "scriptSig": {
            "asm": "30440220326e40331e6821b228816e53301ca5153876958393d5949c6c989034323366520220462b6b5da0267d0caec9bfc75d4395934c17633ab7ed75465b737415bcce8b83[ALL] 02e693ea58deefa8229a06e45e81997f07b2b069379d02804c4a8ca932aad8a408",
            "hex": "4730440220326e40331e6821b228816e53301ca5153876958393d5949c6c989034323366520220462b6b5da0267d0caec9bfc75d4395934c17633ab7ed75465b737415bcce8b83012102e693ea58deefa8229a06e45e81997f07b2b069379d02804c4a8ca932aad8a408"
          },
          "sequence": 4294967295
        }
      ],
      "vout": [
        {
          "value": 0.14998800,
          "n": 0,
          "scriptPubKey": {
            "asm": "OP_DUP OP_HASH160 6da7b61a27f86805592f23972736b1cc4e1f52f5 OP_EQUALVERIFY OP_CHECKSIG",
            "hex": "76a9146da7b61a27f86805592f23972736b1cc4e1f52f588ac",
            "reqSigs": 1,
            "type": "pubkeyhash",
            "addresses": [
              "LVDkpum7xW73XKN18RD7gJEyeQhN2sCUjx"
            ]
          }
        }, 
        {
          "value": 0.84978600,
          "n": 1,
          "scriptPubKey": {
            "asm": "OP_DUP OP_HASH160 0ff51e2bbe76c40d8ea09013c836c205fb79cd8e OP_EQUALVERIFY OP_CHECKSIG",
            "hex": "76a9140ff51e2bbe76c40d8ea09013c836c205fb79cd8e88ac",
            "reqSigs": 1,
            "type": "pubkeyhash",
            "addresses": [
              "LLgL3BFjD6NtUqdBHfpnpbFgLzH5YqznWW"
            ]
          }
        }
      ],
      "hex": "01000000018635df7f77ae601ca7e3e7ace1e8b00ecce3f6695a0e78cfaeb9ed5edf796151010000006a4730440220326e40331e6821b228816e53301ca5153876958393d5949c6c989034323366520220462b6b5da0267d0caec9bfc75d4395934c17633ab7ed75465b737415bcce8b83012102e693ea58deefa8229a06e45e81997f07b2b069379d02804c4a8ca932aad8a408ffffffff0210dde400000000001976a9146da7b61a27f86805592f23972736b1cc4e1f52f588aca8ab1005000000001976a9140ff51e2bbe76c40d8ea09013c836c205fb79cd8e88ac00000000"
    }, 
    {
      "txid": "b9826104db24454efa4f849b1ce84632e8b4b23b8504e113a4a8ca38c7d57d61",
      "hash": "b9826104db24454efa4f849b1ce84632e8b4b23b8504e113a4a8ca38c7d57d61",
      "version": 1,
      "size": 226,
      "vsize": 226,
      "locktime": 0,
      "vin": [
        {
          "txid": "5aa14f654d5873241fd4f664907dc8fbc3e7ec9188729ee048a8d1a9e024f464",
          "vout": 50,
          "scriptSig": {
            "asm": "3045022100a3ddf381a9a7a2894a4ed373a295a126926c0d1f9ae0da31ae925abaaba4745d02206cc2c35b1a641339171fe64821b8e781d12840d4569cd1ff9a605a1a2323e5ed[ALL] 035c222a1eab290cedd01bad8112bfd27983ac13c907adf20ceb1b1799925a43a5",
            "hex": "483045022100a3ddf381a9a7a2894a4ed373a295a126926c0d1f9ae0da31ae925abaaba4745d02206cc2c35b1a641339171fe64821b8e781d12840d4569cd1ff9a605a1a2323e5ed0121035c222a1eab290cedd01bad8112bfd27983ac13c907adf20ceb1b1799925a43a5"
          },
          "sequence": 4294967295
        }
      ],
      "vout": [
        {
          "value": 0.29977400,
          "n": 0,
          "scriptPubKey": {
            "asm": "OP_DUP OP_HASH160 3aa0ce24ceb8d7df1a54addd137f41cbc5e273ae OP_EQUALVERIFY OP_CHECKSIG",
            "hex": "76a9143aa0ce24ceb8d7df1a54addd137f41cbc5e273ae88ac",
            "reqSigs": 1,
            "type": "pubkeyhash",
            "addresses": [
              "LQZx6HQq86UDRTY1V3Cx6qDsWYV1io5jGr"
            ]
          }
        }, 
        {
          "value": 0.70000000,
          "n": 1,
          "scriptPubKey": {
            "asm": "OP_DUP OP_HASH160 1fcbd2e704a05ef5ebe8e641ec2e8139df829d08 OP_EQUALVERIFY OP_CHECKSIG",
            "hex": "76a9141fcbd2e704a05ef5ebe8e641ec2e8139df829d0888ac",
            "reqSigs": 1,
            "type": "pubkeyhash",
            "addresses": [
              "LN85P65BBs8io83zjm7TgJLB9qT6rsegaR"
            ]
          }
        }
      ],
      "hex": "010000000164f424e0a9d1a848e09e728891ece7c3fbc87d9064f6d41f2473584d654fa15a320000006b483045022100a3ddf381a9a7a2894a4ed373a295a126926c0d1f9ae0da31ae925abaaba4745d02206cc2c35b1a641339171fe64821b8e781d12840d4569cd1ff9a605a1a2323e5ed0121035c222a1eab290cedd01bad8112bfd27983ac13c907adf20ceb1b1799925a43a5ffffffff02386bc901000000001976a9143aa0ce24ceb8d7df1a54addd137f41cbc5e273ae88ac801d2c04000000001976a9141fcbd2e704a05ef5ebe8e641ec2e8139df829d0888ac00000000"
    }, 
    {
      "txid": "67641d6ce45f19de0c0eaa30778af03c4222fa6a46173cc364b992f3d9856f8c",
      "hash": "67641d6ce45f19de0c0eaa30778af03c4222fa6a46173cc364b992f3d9856f8c",
      "version": 2,
      "size": 226,
      "vsize": 226,
      "locktime": 1359424,
      "vin": [
        {
          "txid": "b49697891b81e75a64d7d5abe6a259b82cd1b465a3d4033c030e560b38766896",
          "vout": 0,
          "scriptSig": {
            "asm": "3045022100cc9f75b8e41d27de2e589240880aae35cc1defd6cf14eae72272a7cb22333a83022035106f7b0f4509282a2937fa5c8a29a00979aa4d28fb6d6ccc8e8f04388efaf8[ALL] 0247a38d6ecace2514dfd4f9198aa6c5dab796f3755abcf27c3e481d81b8116b09",
            "hex": "483045022100cc9f75b8e41d27de2e589240880aae35cc1defd6cf14eae72272a7cb22333a83022035106f7b0f4509282a2937fa5c8a29a00979aa4d28fb6d6ccc8e8f04388efaf801210247a38d6ecace2514dfd4f9198aa6c5dab796f3755abcf27c3e481d81b8116b09"
          },
          "sequence": 4294967294
        }
      ],
      "vout": [
        {
          "value": 0.74958641,
          "n": 0,
          "scriptPubKey": {
            "asm": "OP_DUP OP_HASH160 43549f7bc479e15e7ec8e452b03742051c7c8cdc OP_EQUALVERIFY OP_CHECKSIG",
            "hex": "76a91443549f7bc479e15e7ec8e452b03742051c7c8cdc88ac",
            "reqSigs": 1,
            "type": "pubkeyhash",
            "addresses": [
              "LRMxumpSRUpqTvSpBiBkqupi58cJ2bRzj5"
            ]
          }
        }, 
        {
          "value": 0.05400000,
          "n": 1,
          "scriptPubKey": {
            "asm": "OP_DUP OP_HASH160 90cc1c21a124960a88cce67183c764e2fa0c58d2 OP_EQUALVERIFY OP_CHECKSIG",
            "hex": "76a91490cc1c21a124960a88cce67183c764e2fa0c58d288ac",
            "reqSigs": 1,
            "type": "pubkeyhash",
            "addresses": [
              "LYRa5e63G2KhHaGBvUFBsJerBmL6F6G83K"
            ]
          }
        }
      ],
      "hex": "0200000001966876380b560e033c03d4a365b4d12cb859a2e6abd5d7645ae7811b899796b4000000006b483045022100cc9f75b8e41d27de2e589240880aae35cc1defd6cf14eae72272a7cb22333a83022035106f7b0f4509282a2937fa5c8a29a00979aa4d28fb6d6ccc8e8f04388efaf801210247a38d6ecace2514dfd4f9198aa6c5dab796f3755abcf27c3e481d81b8116b09feffffff0231c77704000000001976a91443549f7bc479e15e7ec8e452b03742051c7c8cdc88acc0655200000000001976a91490cc1c21a124960a88cce67183c764e2fa0c58d288ac40be1400"
    }, 
    {
      "txid": "305515091c16c3acd57b261eff9e6af735a3e34461318065f7577215f306e98c",
      "hash": "305515091c16c3acd57b261eff9e6af735a3e34461318065f7577215f306e98c",
      "version": 1,
      "size": 226,
      "vsize": 226,
      "locktime": 0,
      "vin": [
        {
          "txid": "8541a0ce7a4fbefb39d1789711e155225f575e7a3ebc5f14c192107a86920cd9",
          "vout": 0,
          "scriptSig": {
            "asm": "3045022100e45805fdfd6644ef425210d81c0da3e0dcbe8c1e5f7948aae92633e4c86b750d022046cd208515b92b93f4b4fb9578c5aa3c9a7f2f73678dd117770cd6eea9c112d0[ALL] 03e7bdcf38090f72cf5c57fa9280706d3217ccb2c44c89a5395519a8d0f644b29e",
            "hex": "483045022100e45805fdfd6644ef425210d81c0da3e0dcbe8c1e5f7948aae92633e4c86b750d022046cd208515b92b93f4b4fb9578c5aa3c9a7f2f73678dd117770cd6eea9c112d0012103e7bdcf38090f72cf5c57fa9280706d3217ccb2c44c89a5395519a8d0f644b29e"
          },
          "sequence": 4294967295
        }
      ],
      "vout": [
        {
          "value": 28.59703144,
          "n": 0,
          "scriptPubKey": {
            "asm": "OP_DUP OP_HASH160 d7388cc02bf5e741a96b6ab5da981af09505f140 OP_EQUALVERIFY OP_CHECKSIG",
            "hex": "76a914d7388cc02bf5e741a96b6ab5da981af09505f14088ac",
            "reqSigs": 1,
            "type": "pubkeyhash",
            "addresses": [
              "LeqwHc6zqwHqqdTf1XrfUZKdWkk17BS6gB"
            ]
          }
        }, 
        {
          "value": 5.36613456,
          "n": 1,
          "scriptPubKey": {
            "asm": "OP_DUP OP_HASH160 fdb7f37d495316e77f43ee51497321c81a3eaeed OP_EQUALVERIFY OP_CHECKSIG",
            "hex": "76a914fdb7f37d495316e77f43ee51497321c81a3eaeed88ac",
            "reqSigs": 1,
            "type": "pubkeyhash",
            "addresses": [
              "LiMVatr6qJjHpQ4oc5bN4qLXh5rGHwXWzj"
            ]
          }
        }
      ],
      "hex": "0100000001d90c92867a1092c1145fbc3e7a5e575f2255e1119778d139fbbe4f7acea04185000000006b483045022100e45805fdfd6644ef425210d81c0da3e0dcbe8c1e5f7948aae92633e4c86b750d022046cd208515b92b93f4b4fb9578c5aa3c9a7f2f73678dd117770cd6eea9c112d0012103e7bdcf38090f72cf5c57fa9280706d3217ccb2c44c89a5395519a8d0f644b29effffffff02689b73aa000000001976a914d7388cc02bf5e741a96b6ab5da981af09505f14088ac5012fc1f000000001976a914fdb7f37d495316e77f43ee51497321c81a3eaeed88ac00000000"
    }, 
    {
      "txid": "9c3de4a7681ed00cb9dcdd66b8f0791bf05db1f576dcff4c91c08aeb8902a28d",
      "hash": "9c3de4a7681ed00cb9dcdd66b8f0791bf05db1f576dcff4c91c08aeb8902a28d",
      "version": 1,
      "size": 226,
      "vsize": 226,
      "locktime": 0,
      "vin": [
        {
          "txid": "1e48de6ca954937e9fcd47cfd6c7b376ce68ae9285d31f10493a6f56ebad3522",
          "vout": 0,
          "scriptSig": {
            "asm": "3045022100888000b2530a2a53ae1291894ce1ac10ae0db1ebebbadb92cd32e3cbdf91e310022012c2b6132e2c7006466fb13e98fdde9eaf25b09bbf6170b4493baf73d8ecc227[ALL] 02d08f34b15043a6a789dd315efebee9581f0a347244c1d1f32c12a70494af65ef",
            "hex": "483045022100888000b2530a2a53ae1291894ce1ac10ae0db1ebebbadb92cd32e3cbdf91e310022012c2b6132e2c7006466fb13e98fdde9eaf25b09bbf6170b4493baf73d8ecc227012102d08f34b15043a6a789dd315efebee9581f0a347244c1d1f32c12a70494af65ef"
          },
          "sequence": 4294967295
        }
      ],
      "vout": [
        {
          "value": 46.50069829,
          "n": 0,
          "scriptPubKey": {
            "asm": "OP_DUP OP_HASH160 ffc972483e51bc769f722a09787aa1cc631968d8 OP_EQUALVERIFY OP_CHECKSIG",
            "hex": "76a914ffc972483e51bc769f722a09787aa1cc631968d888ac",
            "reqSigs": 1,
            "type": "pubkeyhash",
            "addresses": [
              "LiYRtsXqguCaDx3qvq1NZSN1gsW74D17bh"
            ]
          }
        }, 
        {
          "value": 1.13078028,
          "n": 1,
          "scriptPubKey": {
            "asm": "OP_DUP OP_HASH160 519b26907fba156756ae0ffcb5902bd828c5e371 OP_EQUALVERIFY OP_CHECKSIG",
            "hex": "76a914519b26907fba156756ae0ffcb5902bd828c5e37188ac",
            "reqSigs": 1,
            "type": "pubkeyhash",
            "addresses": [
              "LSfSroketK7PzfCWe96MTJp5uBj7vTsAkU"
            ]
          }
        }
      ],
      "hex": "01000000012235adeb566f3a49101fd38592ae68ce76b3c7d6cf47cd9f7e9354a96cde481e000000006b483045022100888000b2530a2a53ae1291894ce1ac10ae0db1ebebbadb92cd32e3cbdf91e310022012c2b6132e2c7006466fb13e98fdde9eaf25b09bbf6170b4493baf73d8ecc227012102d08f34b15043a6a789dd315efebee9581f0a347244c1d1f32c12a70494af65efffffffff02456f2a15010000001976a914ffc972483e51bc769f722a09787aa1cc631968d888ac0c6fbd06000000001976a914519b26907fba156756ae0ffcb5902bd828c5e37188ac00000000"
    }, 
    {
      "txid": "5b63cd38c526370da5f0f822539e73f747d627426390ce06e08c00567f4a5390",
      "hash": "5b63cd38c526370da5f0f822539e73f747d627426390ce06e08c00567f4a5390",
      "version": 1,
      "size": 226,
      "vsize": 226,
      "locktime": 0,
      "vin": [
        {
          "txid": "4f646bd9ed5197703b117926cfb820bda46a785216a49c696d137f44bbcdda16",
          "vout": 493,
          "scriptSig": {
            "asm": "3045022100fdfd7fa303e68c9c6a3db8d981e9878fd3c4d60dd64dd4acf2c7bfbc9e092ce702202a57a6028fd0721f8e53e6e1925fd7b26d156e7cf2f03c81088d3eddd1afb54d[ALL] 02ca8aab26672e837fb9cdadde2423fc8a6e283069fc831a7f4689b8ebf560d832",
            "hex": "483045022100fdfd7fa303e68c9c6a3db8d981e9878fd3c4d60dd64dd4acf2c7bfbc9e092ce702202a57a6028fd0721f8e53e6e1925fd7b26d156e7cf2f03c81088d3eddd1afb54d012102ca8aab26672e837fb9cdadde2423fc8a6e283069fc831a7f4689b8ebf560d832"
          },
          "sequence": 4294967295
        }
      ],
      "vout": [
        {
          "value": 0.02222815,
          "n": 0,
          "scriptPubKey": {
            "asm": "OP_DUP OP_HASH160 05b951610a158c6cfc3a8a1ac3430ff9644fb53d OP_EQUALVERIFY OP_CHECKSIG",
            "hex": "76a91405b951610a158c6cfc3a8a1ac3430ff9644fb53d88ac",
            "reqSigs": 1,
            "type": "pubkeyhash",
            "addresses": [
              "LKkDeHTvxpCQtZvHig3zB5TjPNpXHhT1Jv"
            ]
          }
        }, 
        {
          "value": 0.27023195,
          "n": 1,
          "scriptPubKey": {
            "asm": "OP_DUP OP_HASH160 684be6753149fc11fc317a86e893238b0f4cca16 OP_EQUALVERIFY OP_CHECKSIG",
            "hex": "76a914684be6753149fc11fc317a86e893238b0f4cca1688ac",
            "reqSigs": 1,
            "type": "pubkeyhash",
            "addresses": [
              "LUjRToZGdAFBkaGokmKA6ztcPDz571421K"
            ]
          }
        }
      ],
      "hex": "010000000116dacdbb447f136d699ca41652786aa4bd20b8cf2679113b709751edd96b644fed0100006b483045022100fdfd7fa303e68c9c6a3db8d981e9878fd3c4d60dd64dd4acf2c7bfbc9e092ce702202a57a6028fd0721f8e53e6e1925fd7b26d156e7cf2f03c81088d3eddd1afb54d012102ca8aab26672e837fb9cdadde2423fc8a6e283069fc831a7f4689b8ebf560d832ffffffff02dfea2100000000001976a91405b951610a158c6cfc3a8a1ac3430ff9644fb53d88ac5b579c01000000001976a914684be6753149fc11fc317a86e893238b0f4cca1688ac00000000"
    }, 
    {
      "txid": "a53352ff937ca8381d2f9c806c99392f66cdb386f672638f0a2a055a11ea42e4",
      "hash": "a53352ff937ca8381d2f9c806c99392f66cdb386f672638f0a2a055a11ea42e4",
      "version": 1,
      "size": 226,
      "vsize": 226,
      "locktime": 0,
      "vin": [
        {
          "txid": "6c1c0c472e62d859f50c462098a6c7f98f6c0bb27fd18d37799536f5a3c11f3b",
          "vout": 0,
          "scriptSig": {
            "asm": "3045022100dd04287b752c11165e1469124666ee0e8b207c35e5dc18c2d8701a50e2d21079022073bf3954294794dae5628f1caf418c46297528798b42e693062c56ef02c1d74f[ALL] 03118eb5c4fccbee09dba831297a738ff7771ea4dffda096e53026629092f6ecf2",
            "hex": "483045022100dd04287b752c11165e1469124666ee0e8b207c35e5dc18c2d8701a50e2d21079022073bf3954294794dae5628f1caf418c46297528798b42e693062c56ef02c1d74f012103118eb5c4fccbee09dba831297a738ff7771ea4dffda096e53026629092f6ecf2"
          },
          "sequence": 4294967295
        }
      ],
      "vout": [
        {
          "value": 2.17044192,
          "n": 0,
          "scriptPubKey": {
            "asm": "OP_DUP OP_HASH160 bc23167341e0fdea69f6a91a736dc4d889ece284 OP_EQUALVERIFY OP_CHECKSIG",
            "hex": "76a914bc23167341e0fdea69f6a91a736dc4d889ece28488ac",
            "reqSigs": 1,
            "type": "pubkeyhash",
            "addresses": [
              "LcNjLDJo79WXuhpWTveiThp6eessk89usn"
            ]
          }
        }, 
        {
          "value": 33.26551608,
          "n": 1,
          "scriptPubKey": {
            "asm": "OP_DUP OP_HASH160 3ae1ad4e76afa9abf2973feee0c10b9be5d111cf OP_EQUALVERIFY OP_CHECKSIG",
            "hex": "76a9143ae1ad4e76afa9abf2973feee0c10b9be5d111cf88ac",
            "reqSigs": 1,
            "type": "pubkeyhash",
            "addresses": [
              "LQbHoegfZVciBQe4b2NXzSEaS8TL8qNApS"
            ]
          }
        }
      ],
      "hex": "01000000013b1fc1a3f5369579378dd17fb20b6c8ff9c7a69820460cf559d8622e470c1c6c000000006b483045022100dd04287b752c11165e1469124666ee0e8b207c35e5dc18c2d8701a50e2d21079022073bf3954294794dae5628f1caf418c46297528798b42e693062c56ef02c1d74f012103118eb5c4fccbee09dba831297a738ff7771ea4dffda096e53026629092f6ecf2ffffffff02e0d4ef0c000000001976a914bc23167341e0fdea69f6a91a736dc4d889ece28488ac382647c6000000001976a9143ae1ad4e76afa9abf2973feee0c10b9be5d111cf88ac00000000"
    }, 
    {
      "txid": "1cfc5235ace671700d87582cc13f9e7259c8bd5a90575d46a59c03e7662455fa",
      "hash": "1cfc5235ace671700d87582cc13f9e7259c8bd5a90575d46a59c03e7662455fa",
      "version": 1,
      "size": 226,
      "vsize": 226,
      "locktime": 0,
      "vin": [
        {
          "txid": "864e1e5b7da6a89a87807c62ad05226e88a578cfc4d87b45c3f7aa943b52e7cf",
          "vout": 259,
          "scriptSig": {
            "asm": "3045022100c90229f68b3d68323dc9cadeaa0616187d660aadf49b18e8dee2ba1e200250a40220746d3ae1c8ee6531da9fbb3ea38ab48aaaaa9790aaca3284049380be8ad970a7[ALL] 03067b4e66c77d09a1973f8d3e9d7d4b5c898350f617b92cbb5c26c8fdb7ed31a4",
            "hex": "483045022100c90229f68b3d68323dc9cadeaa0616187d660aadf49b18e8dee2ba1e200250a40220746d3ae1c8ee6531da9fbb3ea38ab48aaaaa9790aaca3284049380be8ad970a7012103067b4e66c77d09a1973f8d3e9d7d4b5c898350f617b92cbb5c26c8fdb7ed31a4"
          },
          "sequence": 4294967295
        }
      ],
      "vout": [
        {
          "value": 0.00071920,
          "n": 0,
          "scriptPubKey": {
            "asm": "OP_DUP OP_HASH160 bac707065e941e100b3d4c20db81904da44ebb95 OP_EQUALVERIFY OP_CHECKSIG",
            "hex": "76a914bac707065e941e100b3d4c20db81904da44ebb9588ac",
            "reqSigs": 1,
            "type": "pubkeyhash",
            "addresses": [
              "LcFYNZaWGf7wdYzUF5t1bQcNWhX28jCg6G"
            ]
          }
        }, 
        {
          "value": 0.12657167,
          "n": 1,
          "scriptPubKey": {
            "asm": "OP_DUP OP_HASH160 2c4ce15d77ffaa3a85effa11681a6c2b2a26e1d6 OP_EQUALVERIFY OP_CHECKSIG",
            "hex": "76a9142c4ce15d77ffaa3a85effa11681a6c2b2a26e1d688ac",
            "reqSigs": 1,
            "type": "pubkeyhash",
            "addresses": [
              "LPGC6PjHsK4eiXHpTZdc6cZpQxHMj9AQqi"
            ]
          }
        }
      ],
      "hex": "0100000001cfe7523b94aaf7c3457bd8c4cf78a5886e2205ad627c80879aa8a67d5b1e4e86030100006b483045022100c90229f68b3d68323dc9cadeaa0616187d660aadf49b18e8dee2ba1e200250a40220746d3ae1c8ee6531da9fbb3ea38ab48aaaaa9790aaca3284049380be8ad970a7012103067b4e66c77d09a1973f8d3e9d7d4b5c898350f617b92cbb5c26c8fdb7ed31a4ffffffff02f0180100000000001976a914bac707065e941e100b3d4c20db81904da44ebb9588ac0f22c100000000001976a9142c4ce15d77ffaa3a85effa11681a6c2b2a26e1d688ac00000000"
    }, 
    {
      "txid": "b278b71df29db186f4fc968aece4c2c3102ff64254d25310aac225bacfc07ede",
      "hash": "b278b71df29db186f4fc968aece4c2c3102ff64254d25310aac225bacfc07ede",
      "version": 1,
      "size": 403,
      "vsize": 403,
      "locktime": 0,
      "vin": [
        {
          "txid": "60419f6cf15d47f339f0e491924b3d363e0ebf67e1165ecb1d5ebeb913cfe31b",
          "vout": 0,
          "scriptSig": {
            "asm": "3044022041f3a77523dd1160dee5b4275d70105d55cb97361a43179a84d692e0cdf8f11302205c1d01a44a425704ae69c5459ce5684d70ac2944bebba7d88e7245708bff7e5e[ALL] 0478ce5cefcac1eba53734a52cdb8379d9c469e131fcfae32c81d635660312d1adee604681c7cfa59b16ad2ff025228375f218e804621b24ff687e21fd2cf89716",
            "hex": "473044022041f3a77523dd1160dee5b4275d70105d55cb97361a43179a84d692e0cdf8f11302205c1d01a44a425704ae69c5459ce5684d70ac2944bebba7d88e7245708bff7e5e01410478ce5cefcac1eba53734a52cdb8379d9c469e131fcfae32c81d635660312d1adee604681c7cfa59b16ad2ff025228375f218e804621b24ff687e21fd2cf89716"
          },
          "sequence": 4294967295
        }, 
        {
          "txid": "f9faf89071cbdcd77c19fe4d2eef1053f0384129a5954207b1e37758fa6063d3",
          "vout": 1,
          "scriptSig": {
            "asm": "3045022100f9e16bf8cbd189675a5c006340f8eefa4163fade35caeffaa1d5705ae2f2b9190220247edead023857c60c8bae457faf4021ce44f0a83d54215d5a23161f559b2a8a[ALL] 0478ce5cefcac1eba53734a52cdb8379d9c469e131fcfae32c81d635660312d1adee604681c7cfa59b16ad2ff025228375f218e804621b24ff687e21fd2cf89716",
            "hex": "483045022100f9e16bf8cbd189675a5c006340f8eefa4163fade35caeffaa1d5705ae2f2b9190220247edead023857c60c8bae457faf4021ce44f0a83d54215d5a23161f559b2a8a01410478ce5cefcac1eba53734a52cdb8379d9c469e131fcfae32c81d635660312d1adee604681c7cfa59b16ad2ff025228375f218e804621b24ff687e21fd2cf89716"
          },
          "sequence": 4294967295
        }
      ],
      "vout": [
        {
          "value": 0.50240687,
          "n": 0,
          "scriptPubKey": {
            "asm": "OP_DUP OP_HASH160 c54cc85c37ca680c03519bed990c21417f2f5f00 OP_EQUALVERIFY OP_CHECKSIG",
            "hex": "76a914c54cc85c37ca680c03519bed990c21417f2f5f0088ac",
            "reqSigs": 1,
            "type": "pubkeyhash",
            "addresses": [
              "LdDBMxQkHghm18KkoxgSQfZ5b3kLyHfoVe"
            ]
          }
        }
      ],
      "hex": "01000000021be3cf13b9be5e1dcb5e16e167bf0e3e363d4b9291e4f039f3475df16c9f4160000000008a473044022041f3a77523dd1160dee5b4275d70105d55cb97361a43179a84d692e0cdf8f11302205c1d01a44a425704ae69c5459ce5684d70ac2944bebba7d88e7245708bff7e5e01410478ce5cefcac1eba53734a52cdb8379d9c469e131fcfae32c81d635660312d1adee604681c7cfa59b16ad2ff025228375f218e804621b24ff687e21fd2cf89716ffffffffd36360fa5877e3b1074295a5294138f05310ef2e4dfe197cd7dccb7190f8faf9010000008b483045022100f9e16bf8cbd189675a5c006340f8eefa4163fade35caeffaa1d5705ae2f2b9190220247edead023857c60c8bae457faf4021ce44f0a83d54215d5a23161f559b2a8a01410478ce5cefcac1eba53734a52cdb8379d9c469e131fcfae32c81d635660312d1adee604681c7cfa59b16ad2ff025228375f218e804621b24ff687e21fd2cf89716ffffffff01af9cfe02000000001976a914c54cc85c37ca680c03519bed990c21417f2f5f0088ac00000000"
    }
  ],
  "time": 1517281093,
  "mediantime": 1517280506,
  "nonce": 3642288535,
  "bits": "1a042eae",
  "difficulty": 4011378.762614286,
  "chainwork": "000000000000000000000000000000000000000000000033fe63c5ac86076606",
  "previousblockhash": "490125af5d9d98294f7036b3343efb6ed3c70300a377b46fef31bb82b243e6d0",
  "nextblockhash": "c5450dca38eea84193d897061b07541a185c013f03ff5742241769d9c37b1321"
}
