{
  "hash": "b145e48c36f03d9850ccd5c6245f489063505161311914e1f8730529a0520299",
  "confirmations": 3305,
  "strippedsize": 4526,
  "size": 4562,
  "weight": 18140,
  "height": 1357690,
  "version": 536870912,
  "versionHex": "20000000",
  "merkleroot": "da05fd7b0cbbdea01f08e7ffbfc14cf12eb5c9176f01d1e095c030824662af40",
  "tx": [
    {
      "txid": "32403c792e97591dfc26e24d6c1c62f028e71bc5f0bb32962ff8247d8ed5dced",
      "hash": "6d1b0cef4f5568c2e59ebb8012c3192fd192b5951f5f51b21e419a92655c3c18",
      "version": 1,
      "size": 244,
      "vsize": 217,
      "locktime": 0,
      "vin": [
        {
          "coinbase": "037ab71404e81f6c5a08054682de02000000fabe6d6dc10b836757fb33a0d1acf68d33bed6eb3488266b88cbba672922acd32bfcdf1740000000000000000d2f6e6f64655374726174756d2f",
          "sequence": 0
        }
      ],
      "vout": [
        {
          "value": 25.00617000,
          "n": 0,
          "scriptPubKey": {
            "asm": "OP_DUP OP_HASH160 0c617fdb2ea42aed30a509595ee21ba3f6688db0 OP_EQUALVERIFY OP_CHECKSIG",
            "hex": "76a9140c617fdb2ea42aed30a509595ee21ba3f6688db088ac",
            "reqSigs": 1,
            "type": "pubkeyhash",
            "addresses": [
              "LLMRAtr3qBje2ySEa3CnZ55LA4TQMWnRY3"
            ]
          }
        }, 
        {
          "value": 0.00000000,
          "n": 1,
          "scriptPubKey": {
            "asm": "OP_RETURN aa21a9eda7dfaaab4d2264fb2b7686f5319a3293d789a19eb3c3236417a36b66820db354",
            "hex": "6a24aa21a9eda7dfaaab4d2264fb2b7686f5319a3293d789a19eb3c3236417a36b66820db354",
            "type": "nulldata"
          }
        }
      ],
      "hex": "010000000001010000000000000000000000000000000000000000000000000000000000000000ffffffff4c037ab71404e81f6c5a08054682de02000000fabe6d6dc10b836757fb33a0d1acf68d33bed6eb3488266b88cbba672922acd32bfcdf1740000000000000000d2f6e6f64655374726174756d2f000000000228630c95000000001976a9140c617fdb2ea42aed30a509595ee21ba3f6688db088ac0000000000000000266a24aa21a9eda7dfaaab4d2264fb2b7686f5319a3293d789a19eb3c3236417a36b66820db3540120000000000000000000000000000000000000000000000000000000000000000000000000"
    }, 
    {
      "txid": "65cdc9f4133ac134f3d3cd739deedad2070d0ee1e476bd7fd7b993d3228d1ac3",
      "hash": "65cdc9f4133ac134f3d3cd739deedad2070d0ee1e476bd7fd7b993d3228d1ac3",
      "version": 1,
      "size": 225,
      "vsize": 225,
      "locktime": 0,
      "vin": [
        {
          "txid": "595f4926a6ad56d913991cad77e61ea494e891dc00d70c0dbef12577547edc56",
          "vout": 1,
          "scriptSig": {
            "asm": "304402200194b318b864e60ead974344fc3bdfce9f63b09a48b7bb34629edf94bef3a3ec02203588270cf5d5b25c26e9ef60cc95a26d9d7b1d101fbc027266e4d1d665d9753a[ALL] 03c96eb5e4c01c1f7428f9a249d046ff2e3a3c3fabac952c206c3562f26f7f8870",
            "hex": "47304402200194b318b864e60ead974344fc3bdfce9f63b09a48b7bb34629edf94bef3a3ec02203588270cf5d5b25c26e9ef60cc95a26d9d7b1d101fbc027266e4d1d665d9753a012103c96eb5e4c01c1f7428f9a249d046ff2e3a3c3fabac952c206c3562f26f7f8870"
          },
          "sequence": 4294967295
        }
      ],
      "vout": [
        {
          "value": 0.02625533,
          "n": 0,
          "scriptPubKey": {
            "asm": "OP_DUP OP_HASH160 157798dbcf70ab3a7a741ae4e0fdeaa894fa0819 OP_EQUALVERIFY OP_CHECKSIG",
            "hex": "76a914157798dbcf70ab3a7a741ae4e0fdeaa894fa081988ac",
            "reqSigs": 1,
            "type": "pubkeyhash",
            "addresses": [
              "LMBTizboStobSseTa2CaPNoKvuM72WXxHF"
            ]
          }
        }, 
        {
          "value": 0.11285010,
          "n": 1,
          "scriptPubKey": {
            "asm": "OP_DUP OP_HASH160 02588035aaf604598583aa2bc1e76ae2f3967225 OP_EQUALVERIFY OP_CHECKSIG",
            "hex": "76a91402588035aaf604598583aa2bc1e76ae2f396722588ac",
            "reqSigs": 1,
            "type": "pubkeyhash",
            "addresses": [
              "LKSMdjxEVPpWAy2fNW7xQrH2aRVFqfi4ha"
            ]
          }
        }
      ],
      "hex": "010000000156dc7e547725f1be0d0cd700dc91e894a41ee677ad1c9913d956ada626495f59010000006a47304402200194b318b864e60ead974344fc3bdfce9f63b09a48b7bb34629edf94bef3a3ec02203588270cf5d5b25c26e9ef60cc95a26d9d7b1d101fbc027266e4d1d665d9753a012103c96eb5e4c01c1f7428f9a249d046ff2e3a3c3fabac952c206c3562f26f7f8870ffffffff02fd0f2800000000001976a914157798dbcf70ab3a7a741ae4e0fdeaa894fa081988ac1232ac00000000001976a91402588035aaf604598583aa2bc1e76ae2f396722588ac00000000"
    }, 
    {
      "txid": "fedd1bbfd812ef8b0d1428954def45e46f2b9f20c8c6ad5b832cf6a3a65fd9ee",
      "hash": "fedd1bbfd812ef8b0d1428954def45e46f2b9f20c8c6ad5b832cf6a3a65fd9ee",
      "version": 2,
      "size": 223,
      "vsize": 223,
      "locktime": 1357687,
      "vin": [
        {
          "txid": "2cb61422e1c164604d0b257bdeef2b97404b7d0c2b43bf68d87eb0da6db6e648",
          "vout": 1,
          "scriptSig": {
            "asm": "3044022065eb453ba91c6e959ff8727733889dfc5caf486d29c352a1eb447d9dfdea18490220124d1d556e125c959e93610f459be49f3fad03fb0c9fd739cf4771fda216e7bb[ALL] 03807958632414129f9e490485b1c230689d8b57824c979fd0068998888a792c0d",
            "hex": "473044022065eb453ba91c6e959ff8727733889dfc5caf486d29c352a1eb447d9dfdea18490220124d1d556e125c959e93610f459be49f3fad03fb0c9fd739cf4771fda216e7bb012103807958632414129f9e490485b1c230689d8b57824c979fd0068998888a792c0d"
          },
          "sequence": 4294967294
        }
      ],
      "vout": [
        {
          "value": 0.70000000,
          "n": 0,
          "scriptPubKey": {
            "asm": "OP_HASH160 e3f6e35e0fca254cd9936c5bf55db335ff989af9 OP_EQUAL",
            "hex": "a914e3f6e35e0fca254cd9936c5bf55db335ff989af987",
            "reqSigs": 1,
            "type": "scripthash",
            "addresses": [
              "MUgXP4k9JkQE8Tn5n3FHA749aeVeQBEW6q"
            ]
          }
        }, 
        {
          "value": 0.00996681,
          "n": 1,
          "scriptPubKey": {
            "asm": "OP_DUP OP_HASH160 c5647159037268b27509543ad380962bb5f98aed OP_EQUALVERIFY OP_CHECKSIG",
            "hex": "76a914c5647159037268b27509543ad380962bb5f98aed88ac",
            "reqSigs": 1,
            "type": "pubkeyhash",
            "addresses": [
              "LdDfhtXdCfK4tujnFSQ3SfkhKS8oA4xHHz"
            ]
          }
        }
      ],
      "hex": "020000000148e6b66ddab07ed868bf432b0c7d4b40972befde7b250b4d6064c1e12214b62c010000006a473044022065eb453ba91c6e959ff8727733889dfc5caf486d29c352a1eb447d9dfdea18490220124d1d556e125c959e93610f459be49f3fad03fb0c9fd739cf4771fda216e7bb012103807958632414129f9e490485b1c230689d8b57824c979fd0068998888a792c0dfeffffff02801d2c040000000017a914e3f6e35e0fca254cd9936c5bf55db335ff989af98749350f00000000001976a914c5647159037268b27509543ad380962bb5f98aed88ac77b71400"
    }, 
    {
      "txid": "235d5821d9e27fe6a1131a9dcec603a9b2386b17a9d2c6464f8be20dc6441379",
      "hash": "235d5821d9e27fe6a1131a9dcec603a9b2386b17a9d2c6464f8be20dc6441379",
      "version": 1,
      "size": 225,
      "vsize": 225,
      "locktime": 1357687,
      "vin": [
        {
          "txid": "83f47eeb44841c8132db0758618413f7795f41b6803adcf73068c296f65789ae",
          "vout": 0,
          "scriptSig": {
            "asm": "30440220444cad13f47f4d57c52e91a5c072e24a2dad743950e2ba098b97d42905d304c5022068b0ec3fe159d5afa02a720fa86c358bf0a4ba95d18d617b75b6462adf67219b[ALL] 02d7ae9e41684a2db3c3b7d74651d8e3debe81a9d162a78b4b8fa6ff9fcaf635a6",
            "hex": "4730440220444cad13f47f4d57c52e91a5c072e24a2dad743950e2ba098b97d42905d304c5022068b0ec3fe159d5afa02a720fa86c358bf0a4ba95d18d617b75b6462adf67219b012102d7ae9e41684a2db3c3b7d74651d8e3debe81a9d162a78b4b8fa6ff9fcaf635a6"
          },
          "sequence": 4294967294
        }
      ],
      "vout": [
        {
          "value": 0.60000000,
          "n": 0,
          "scriptPubKey": {
            "asm": "OP_DUP OP_HASH160 29d811ccca00bf8bf1437344f5cbe42aacd89f24 OP_EQUALVERIFY OP_CHECKSIG",
            "hex": "76a91429d811ccca00bf8bf1437344f5cbe42aacd89f2488ac",
            "reqSigs": 1,
            "type": "pubkeyhash",
            "addresses": [
              "LP3CorPJ5j2y9vQqiL12j9P9kXbodG55Tb"
            ]
          }
        }, 
        {
          "value": 0.01171795,
          "n": 1,
          "scriptPubKey": {
            "asm": "OP_DUP OP_HASH160 6cef9fca48fa0532b0014bcb4ee9ff1e73ab04ff OP_EQUALVERIFY OP_CHECKSIG",
            "hex": "76a9146cef9fca48fa0532b0014bcb4ee9ff1e73ab04ff88ac",
            "reqSigs": 1,
            "type": "pubkeyhash",
            "addresses": [
              "LV9xJJyE7Zzc8jbzaJxad4Wa6WxPq4aXJB"
            ]
          }
        }
      ],
      "hex": "0100000001ae8957f696c26830f7dc3a80b6415f79f71384615807db32811c8444eb7ef483000000006a4730440220444cad13f47f4d57c52e91a5c072e24a2dad743950e2ba098b97d42905d304c5022068b0ec3fe159d5afa02a720fa86c358bf0a4ba95d18d617b75b6462adf67219b012102d7ae9e41684a2db3c3b7d74651d8e3debe81a9d162a78b4b8fa6ff9fcaf635a6feffffff0200879303000000001976a91429d811ccca00bf8bf1437344f5cbe42aacd89f2488ac53e11100000000001976a9146cef9fca48fa0532b0014bcb4ee9ff1e73ab04ff88ac77b71400"
    }, 
    {
      "txid": "c83cf937a15b4e799f57356a6ca7773d009b954e18edca19e81f65a96beb37f6",
      "hash": "c83cf937a15b4e799f57356a6ca7773d009b954e18edca19e81f65a96beb37f6",
      "version": 1,
      "size": 225,
      "vsize": 225,
      "locktime": 0,
      "vin": [
        {
          "txid": "65a191e250a75528d2d288426830ec5835f3adc51c06ad9f5374a80cf29f840f",
          "vout": 0,
          "scriptSig": {
            "asm": "30440220445d7c3f4145b8da557022fbe6ef996cc193d4fd33472616392b491a4fab3f7102206285d26a275c17b48442ca75172f891c1327dc6be8c9faa5eea2c785fc0a8697[ALL] 03f6a55f8ab1418f7fce3d1e04e3e7153f74db583039fdc2fa9808de56509e2fbb",
            "hex": "4730440220445d7c3f4145b8da557022fbe6ef996cc193d4fd33472616392b491a4fab3f7102206285d26a275c17b48442ca75172f891c1327dc6be8c9faa5eea2c785fc0a8697012103f6a55f8ab1418f7fce3d1e04e3e7153f74db583039fdc2fa9808de56509e2fbb"
          },
          "sequence": 4294967295
        }
      ],
      "vout": [
        {
          "value": 0.05533422,
          "n": 0,
          "scriptPubKey": {
            "asm": "OP_DUP OP_HASH160 9a76037c9fc2a1fdae30e62980803219839ef300 OP_EQUALVERIFY OP_CHECKSIG",
            "hex": "76a9149a76037c9fc2a1fdae30e62980803219839ef30088ac",
            "reqSigs": 1,
            "type": "pubkeyhash",
            "addresses": [
              "LZJfhV5mKF9qTMeuCD1yHLMvHGNtLmzRvK"
            ]
          }
        }, 
        {
          "value": 0.00060688,
          "n": 1,
          "scriptPubKey": {
            "asm": "OP_DUP OP_HASH160 622077e7db318846708884111f777d5611bdc5cc OP_EQUALVERIFY OP_CHECKSIG",
            "hex": "76a914622077e7db318846708884111f777d5611bdc5cc88ac",
            "reqSigs": 1,
            "type": "pubkeyhash",
            "addresses": [
              "LUAoNxMCWoMGyidhN6mYPpcmiPCb2dLjhU"
            ]
          }
        }
      ],
      "hex": "01000000010f849ff20ca874539fad061cc5adf33558ec30684288d2d22855a750e291a165000000006a4730440220445d7c3f4145b8da557022fbe6ef996cc193d4fd33472616392b491a4fab3f7102206285d26a275c17b48442ca75172f891c1327dc6be8c9faa5eea2c785fc0a8697012103f6a55f8ab1418f7fce3d1e04e3e7153f74db583039fdc2fa9808de56509e2fbbffffffff02ee6e5400000000001976a9149a76037c9fc2a1fdae30e62980803219839ef30088ac10ed0000000000001976a914622077e7db318846708884111f777d5611bdc5cc88ac00000000"
    }, 
    {
      "txid": "9916d9c34a4b90dbf597c9702463d436338d3aec210c9009e1a268b13aa47a7f",
      "hash": "9916d9c34a4b90dbf597c9702463d436338d3aec210c9009e1a268b13aa47a7f",
      "version": 2,
      "size": 1553,
      "vsize": 1553,
      "locktime": 1357688,
      "vin": [
        {
          "txid": "6be1ba1450f01f1205082444e12507b69752af35ec5a53dc70adda7aa6d69ce6",
          "vout": 0,
          "scriptSig": {
            "asm": "3045022100c150f9e04745b44eeeb6f8fab20b8480cf628b57280270006f1fa49f07be0c2002206659ffc9f7665e6cea6884cbfa876a08cdd72a7cc33662e370b6b174c8302a6f[ALL] 03562edf3e12c495016c453d0e64eeba6b18dabc6613b6163a13145c7862d80e01",
            "hex": "483045022100c150f9e04745b44eeeb6f8fab20b8480cf628b57280270006f1fa49f07be0c2002206659ffc9f7665e6cea6884cbfa876a08cdd72a7cc33662e370b6b174c8302a6f012103562edf3e12c495016c453d0e64eeba6b18dabc6613b6163a13145c7862d80e01"
          },
          "sequence": 4294967294
        }, 
        {
          "txid": "248e067d4859011e710a462461ee8de747acf0fcf9ea7f71d31392ed30343af0",
          "vout": 1,
          "scriptSig": {
            "asm": "304402206a13b083f869efce9588229e45ca78bc3b3ef48ff85d9a8d1f119feb06fdb32d022000f04b1e1aff4d33ac03284de0a1701d0b7c86a30a1e31706fa887c3e9dde20c[ALL] 038b010066e323ef6e7da3d57c007e1ad0027608cb435227140fb45c759361ff25",
            "hex": "47304402206a13b083f869efce9588229e45ca78bc3b3ef48ff85d9a8d1f119feb06fdb32d022000f04b1e1aff4d33ac03284de0a1701d0b7c86a30a1e31706fa887c3e9dde20c0121038b010066e323ef6e7da3d57c007e1ad0027608cb435227140fb45c759361ff25"
          },
          "sequence": 4294967294
        }, 
        {
          "txid": "791346ab81610c80182b82d6d543ca7e0975378607577e38981d726366f3c0b8",
          "vout": 0,
          "scriptSig": {
            "asm": "30450221009b38781cf46f0763935f68e52f9c2c92a4862e1a2b0cde93fa8bc21134303cb002200e509a47487ad5fecdbf853f9ee0c5f42b318537a124a42420d11acb5e0211d4[ALL] 031612d6c5d9460d559ef0517504a2316cade8fdf7b9a8e7c3dc47f6b80e08b62c",
            "hex": "4830450221009b38781cf46f0763935f68e52f9c2c92a4862e1a2b0cde93fa8bc21134303cb002200e509a47487ad5fecdbf853f9ee0c5f42b318537a124a42420d11acb5e0211d40121031612d6c5d9460d559ef0517504a2316cade8fdf7b9a8e7c3dc47f6b80e08b62c"
          },
          "sequence": 4294967294
        }, 
        {
          "txid": "136c8638ce19bacd6527cd0e5effe076331b1033b0d4be27b4108bac7fed8da9",
          "vout": 0,
          "scriptSig": {
            "asm": "30450221009cfa2e4249a3a85f0967c1e71246e144fdac6ee33f011840409d7e24030ae92602203b9b6a501b1170ef1e7646fbd4654dedda31a7262e4bddb5c0ea82db69635cc9[ALL] 03bed2274eae154d4b6f6788beb4aecf01af1ca5f18af715eafba5454160aa195a",
            "hex": "4830450221009cfa2e4249a3a85f0967c1e71246e144fdac6ee33f011840409d7e24030ae92602203b9b6a501b1170ef1e7646fbd4654dedda31a7262e4bddb5c0ea82db69635cc9012103bed2274eae154d4b6f6788beb4aecf01af1ca5f18af715eafba5454160aa195a"
          },
          "sequence": 4294967294
        }, 
        {
          "txid": "92f196b1963f2ae0904218c0a767508cec83c4488f2bc634d07e00e1d03d351c",
          "vout": 0,
          "scriptSig": {
            "asm": "3044022004ca2a986e6c20b3923c8b3178907f3b6f160be0df7032da5d8925d35f56c0e202205d7cf15539a7def60ad1b1c7cfe59b40b8b53678810d6ecbc04da06db29ead26[ALL] 039c5414d4ebd48c70e6c38d8a540258377af98da7a9c6bb6d353245d7d0b0a609",
            "hex": "473044022004ca2a986e6c20b3923c8b3178907f3b6f160be0df7032da5d8925d35f56c0e202205d7cf15539a7def60ad1b1c7cfe59b40b8b53678810d6ecbc04da06db29ead260121039c5414d4ebd48c70e6c38d8a540258377af98da7a9c6bb6d353245d7d0b0a609"
          },
          "sequence": 4294967294
        }, 
        {
          "txid": "fc35071c84197af533e899cae6126ae56d0efdb0a0add3a280395389ccf1ef27",
          "vout": 0,
          "scriptSig": {
            "asm": "304402205d4079d0d27150eb82b9725de68f07cee6512bda4c5f5ed9bdd5e76fc740dddb0220507568ef7d33ffc59daf2e41491230f26884a59b69f765975aa68354391bc0e7[ALL] 03c82a4170c2842ee33e2289213a9a00f8049faa45c79303bff430f0cc0679c888",
            "hex": "47304402205d4079d0d27150eb82b9725de68f07cee6512bda4c5f5ed9bdd5e76fc740dddb0220507568ef7d33ffc59daf2e41491230f26884a59b69f765975aa68354391bc0e7012103c82a4170c2842ee33e2289213a9a00f8049faa45c79303bff430f0cc0679c888"
          },
          "sequence": 4294967294
        }, 
        {
          "txid": "0f1b549261bb892fde71fe2ffab32a20995d9cde9a48e46721619850b8e333b0",
          "vout": 2,
          "scriptSig": {
            "asm": "30440220248b6acfd63c1a4fda6c93cc9e8a7e886b6a2d220f59ec622187f3a537c492c102202e013efb2ec5bc7b115bfd57a7b1d65b9af2e334e497d33460615bf1657a15d4[ALL] 03562edf3e12c495016c453d0e64eeba6b18dabc6613b6163a13145c7862d80e01",
            "hex": "4730440220248b6acfd63c1a4fda6c93cc9e8a7e886b6a2d220f59ec622187f3a537c492c102202e013efb2ec5bc7b115bfd57a7b1d65b9af2e334e497d33460615bf1657a15d4012103562edf3e12c495016c453d0e64eeba6b18dabc6613b6163a13145c7862d80e01"
          },
          "sequence": 4294967294
        }, 
        {
          "txid": "e18d3cf6bfcf4a895af51346800e528ec1c84991e00a72f45813c3614197e554",
          "vout": 0,
          "scriptSig": {
            "asm": "30450221009b0fe4215af801cf5a959434fa556f339e5138445b223acb7f7d3a26e53806c302201c7f1819deed0373294dc542cd8d916b7d0bfb4bd91fe2463285b199f4a6807e[ALL] 03562edf3e12c495016c453d0e64eeba6b18dabc6613b6163a13145c7862d80e01",
            "hex": "4830450221009b0fe4215af801cf5a959434fa556f339e5138445b223acb7f7d3a26e53806c302201c7f1819deed0373294dc542cd8d916b7d0bfb4bd91fe2463285b199f4a6807e012103562edf3e12c495016c453d0e64eeba6b18dabc6613b6163a13145c7862d80e01"
          },
          "sequence": 4294967294
        }, 
        {
          "txid": "cc1b03a95f825b3ca573bf79acbfc5bfe588f0a75d88b9770236835139a5673f",
          "vout": 0,
          "scriptSig": {
            "asm": "3045022100a9a8acad54b38c5a709c2ccf27876cb0bfca6b9aac9041801cd452f4cf53256002203e915072c000af2fbbd867b999aba52a2fc5c5ca24dcff409f3c709f19032cd6[ALL] 0268b2e8cf893d72a98e9440b929ef4e2c3f6763caf8d754c4a7159415da132476",
            "hex": "483045022100a9a8acad54b38c5a709c2ccf27876cb0bfca6b9aac9041801cd452f4cf53256002203e915072c000af2fbbd867b999aba52a2fc5c5ca24dcff409f3c709f19032cd601210268b2e8cf893d72a98e9440b929ef4e2c3f6763caf8d754c4a7159415da132476"
          },
          "sequence": 4294967294
        }, 
        {
          "txid": "88b8db8beafe21bd936d2d962497bf0b71d7881d60e8f4221029918cd9755031",
          "vout": 0,
          "scriptSig": {
            "asm": "304402202ad40df85dbe6fcf4daeb138a309aaeab055058b82898845ce40509f1721bc9d02202b285f48725348b2168e0888dfe433a5d65ede8464ce881b1320f53a7d5ae12c[ALL] 03e96c314f3e0bc962a1fd6dbc581410a5b4e875ca8d7a7e6b1fe53b811e9cc3f6",
            "hex": "47304402202ad40df85dbe6fcf4daeb138a309aaeab055058b82898845ce40509f1721bc9d02202b285f48725348b2168e0888dfe433a5d65ede8464ce881b1320f53a7d5ae12c012103e96c314f3e0bc962a1fd6dbc581410a5b4e875ca8d7a7e6b1fe53b811e9cc3f6"
          },
          "sequence": 4294967294
        }
      ],
      "vout": [
        {
          "value": 0.00847570,
          "n": 0,
          "scriptPubKey": {
            "asm": "OP_DUP OP_HASH160 e52cac5d78e160a98e427ac96766580ab06a6c27 OP_EQUALVERIFY OP_CHECKSIG",
            "hex": "76a914e52cac5d78e160a98e427ac96766580ab06a6c2788ac",
            "reqSigs": 1,
            "type": "pubkeyhash",
            "addresses": [
              "Lg7iX6cUH6Bowhi7ksGrjHfVTourgB9DFr"
            ]
          }
        }, 
        {
          "value": 12.12510000,
          "n": 1,
          "scriptPubKey": {
            "asm": "OP_DUP OP_HASH160 adab682169b5e288a2df9a7f8b7838b985eac473 OP_EQUALVERIFY OP_CHECKSIG",
            "hex": "76a914adab682169b5e288a2df9a7f8b7838b985eac47388ac",
            "reqSigs": 1,
            "type": "pubkeyhash",
            "addresses": [
              "Lb4EVx4WyMCnhK5n4YdEJdv6N6ZUMz7z2x"
            ]
          }
        }
      ],
      "hex": "020000000ae69cd6a67adaad70dc535aec35af5297b60725e144240805121ff05014bae16b000000006b483045022100c150f9e04745b44eeeb6f8fab20b8480cf628b57280270006f1fa49f07be0c2002206659ffc9f7665e6cea6884cbfa876a08cdd72a7cc33662e370b6b174c8302a6f012103562edf3e12c495016c453d0e64eeba6b18dabc6613b6163a13145c7862d80e01fefffffff03a3430ed9213d3717feaf9fcf0ac47e78dee6124460a711e0159487d068e24010000006a47304402206a13b083f869efce9588229e45ca78bc3b3ef48ff85d9a8d1f119feb06fdb32d022000f04b1e1aff4d33ac03284de0a1701d0b7c86a30a1e31706fa887c3e9dde20c0121038b010066e323ef6e7da3d57c007e1ad0027608cb435227140fb45c759361ff25feffffffb8c0f36663721d98387e5707863775097eca43d5d6822b18800c6181ab461379000000006b4830450221009b38781cf46f0763935f68e52f9c2c92a4862e1a2b0cde93fa8bc21134303cb002200e509a47487ad5fecdbf853f9ee0c5f42b318537a124a42420d11acb5e0211d40121031612d6c5d9460d559ef0517504a2316cade8fdf7b9a8e7c3dc47f6b80e08b62cfeffffffa98ded7fac8b10b427bed4b033101b3376e0ff5e0ecd2765cdba19ce38866c13000000006b4830450221009cfa2e4249a3a85f0967c1e71246e144fdac6ee33f011840409d7e24030ae92602203b9b6a501b1170ef1e7646fbd4654dedda31a7262e4bddb5c0ea82db69635cc9012103bed2274eae154d4b6f6788beb4aecf01af1ca5f18af715eafba5454160aa195afeffffff1c353dd0e1007ed034c62b8f48c483ec8c5067a7c0184290e02a3f96b196f192000000006a473044022004ca2a986e6c20b3923c8b3178907f3b6f160be0df7032da5d8925d35f56c0e202205d7cf15539a7def60ad1b1c7cfe59b40b8b53678810d6ecbc04da06db29ead260121039c5414d4ebd48c70e6c38d8a540258377af98da7a9c6bb6d353245d7d0b0a609feffffff27eff1cc89533980a2d3ada0b0fd0e6de56a12e6ca99e833f57a19841c0735fc000000006a47304402205d4079d0d27150eb82b9725de68f07cee6512bda4c5f5ed9bdd5e76fc740dddb0220507568ef7d33ffc59daf2e41491230f26884a59b69f765975aa68354391bc0e7012103c82a4170c2842ee33e2289213a9a00f8049faa45c79303bff430f0cc0679c888feffffffb033e3b85098612167e4489ade9c5d99202ab3fa2ffe71de2f89bb6192541b0f020000006a4730440220248b6acfd63c1a4fda6c93cc9e8a7e886b6a2d220f59ec622187f3a537c492c102202e013efb2ec5bc7b115bfd57a7b1d65b9af2e334e497d33460615bf1657a15d4012103562edf3e12c495016c453d0e64eeba6b18dabc6613b6163a13145c7862d80e01feffffff54e5974161c31358f4720ae09149c8c18e520e804613f55a894acfbff63c8de1000000006b4830450221009b0fe4215af801cf5a959434fa556f339e5138445b223acb7f7d3a26e53806c302201c7f1819deed0373294dc542cd8d916b7d0bfb4bd91fe2463285b199f4a6807e012103562edf3e12c495016c453d0e64eeba6b18dabc6613b6163a13145c7862d80e01feffffff3f67a5395183360277b9885da7f088e5bfc5bfac79bf73a53c5b825fa9031bcc000000006b483045022100a9a8acad54b38c5a709c2ccf27876cb0bfca6b9aac9041801cd452f4cf53256002203e915072c000af2fbbd867b999aba52a2fc5c5ca24dcff409f3c709f19032cd601210268b2e8cf893d72a98e9440b929ef4e2c3f6763caf8d754c4a7159415da132476feffffff315075d98c91291022f4e8601d88d7710bbf9724962d6d93bd21feea8bdbb888000000006a47304402202ad40df85dbe6fcf4daeb138a309aaeab055058b82898845ce40509f1721bc9d02202b285f48725348b2168e0888dfe433a5d65ede8464ce881b1320f53a7d5ae12c012103e96c314f3e0bc962a1fd6dbc581410a5b4e875ca8d7a7e6b1fe53b811e9cc3f6feffffff02d2ee0c00000000001976a914e52cac5d78e160a98e427ac96766580ab06a6c2788ac306f4548000000001976a914adab682169b5e288a2df9a7f8b7838b985eac47388ac78b71400"
    }, 
    {
      "txid": "1cbc4a37f0fdc39e194e34527ed8bcd318328cef8363c8d0a88109d23ab6315c",
      "hash": "1cbc4a37f0fdc39e194e34527ed8bcd318328cef8363c8d0a88109d23ab6315c",
      "version": 2,
      "size": 373,
      "vsize": 373,
      "locktime": 1357688,
      "vin": [
        {
          "txid": "cddd3144add04491cf69fc4e2116dc2611a106f5e400c2aeb2778ee6ab1b6ea8",
          "vout": 1,
          "scriptSig": {
            "asm": "3045022100a91985e937a4889a9ee5047508be3c6fab8323c6b877939e1934586f11a8259e02205a3f86bc5389d726f246c4946525c79ced7ca91091434683fd4b28f464d7c682[ALL] 03d2ccb9da0b1ab07a487b1235daa6c3116a1ecd3004a78778323822b8888afe44",
            "hex": "483045022100a91985e937a4889a9ee5047508be3c6fab8323c6b877939e1934586f11a8259e02205a3f86bc5389d726f246c4946525c79ced7ca91091434683fd4b28f464d7c682012103d2ccb9da0b1ab07a487b1235daa6c3116a1ecd3004a78778323822b8888afe44"
          },
          "sequence": 4294967294
        }, 
        {
          "txid": "c8b40a3aa7ea84258540bb4ccafc2b99efc29a38703599137dea410e48c0d1f3",
          "vout": 13,
          "scriptSig": {
            "asm": "304402202cececffe159c5546b411484c91f59bef860d8233f86fde10e61eea157adf8a40220789af104e30b3d80947fc2130255375eb7e1d13f607edc835b6fde70ac5ac650[ALL] 02714459ca124019c73469d4939ae78b007397971dfbcf1a2613c38ccca81222c6",
            "hex": "47304402202cececffe159c5546b411484c91f59bef860d8233f86fde10e61eea157adf8a40220789af104e30b3d80947fc2130255375eb7e1d13f607edc835b6fde70ac5ac650012102714459ca124019c73469d4939ae78b007397971dfbcf1a2613c38ccca81222c6"
          },
          "sequence": 4294967294
        }
      ],
      "vout": [
        {
          "value": 0.01068889,
          "n": 0,
          "scriptPubKey": {
            "asm": "OP_DUP OP_HASH160 512fd41c4fd540575e7a90559fb264dec3dd26d6 OP_EQUALVERIFY OP_CHECKSIG",
            "hex": "76a914512fd41c4fd540575e7a90559fb264dec3dd26d688ac",
            "reqSigs": 1,
            "type": "pubkeyhash",
            "addresses": [
              "LSdEHwLbjKCnYXvhYF4qRTFxmXian6ngc2"
            ]
          }
        }, 
        {
          "value": 0.01000000,
          "n": 1,
          "scriptPubKey": {
            "asm": "OP_DUP OP_HASH160 974add2f2c6041cce00d5f7e06902729785fd873 OP_EQUALVERIFY OP_CHECKSIG",
            "hex": "76a914974add2f2c6041cce00d5f7e06902729785fd87388ac",
            "reqSigs": 1,
            "type": "pubkeyhash",
            "addresses": [
              "LZ1uypbQtWDxgp7WRWE1xu8XDYn1NSBR4i"
            ]
          }
        }
      ],
      "hex": "0200000002a86e1babe68e77b2aec200e4f506a11126dc16214efc69cf9144d0ad4431ddcd010000006b483045022100a91985e937a4889a9ee5047508be3c6fab8323c6b877939e1934586f11a8259e02205a3f86bc5389d726f246c4946525c79ced7ca91091434683fd4b28f464d7c682012103d2ccb9da0b1ab07a487b1235daa6c3116a1ecd3004a78778323822b8888afe44fefffffff3d1c0480e41ea7d13993570389ac2ef992bfcca4cbb40852584eaa73a0ab4c80d0000006a47304402202cececffe159c5546b411484c91f59bef860d8233f86fde10e61eea157adf8a40220789af104e30b3d80947fc2130255375eb7e1d13f607edc835b6fde70ac5ac650012102714459ca124019c73469d4939ae78b007397971dfbcf1a2613c38ccca81222c6feffffff02594f1000000000001976a914512fd41c4fd540575e7a90559fb264dec3dd26d688ac40420f00000000001976a914974add2f2c6041cce00d5f7e06902729785fd87388ac78b71400"
    }, 
    {
      "txid": "cdb5fe57bc70b1eaeb891d4537e2e56036453b36d4690c55f5a0436a282dee72",
      "hash": "cdb5fe57bc70b1eaeb891d4537e2e56036453b36d4690c55f5a0436a282dee72",
      "version": 1,
      "size": 373,
      "vsize": 373,
      "locktime": 1357659,
      "vin": [
        {
          "txid": "de92da9f6952a48c97eea04fbdbeacf925072ad2ad4e9a8ff3e2dab18ced5783",
          "vout": 1,
          "scriptSig": {
            "asm": "304402207cb2e09e8c112f25a496aee52e49766848efd5759308ae3fbedf3276514bd82502206aea12eb083bed0c4ebd7e212ff5bbc907c4413ca0d7ed82e37502316d001aae[ALL] 03ce3bf1d5581e5270a822343ad22b41212f224ea17a17767d83ed130d88cccb3d",
            "hex": "47304402207cb2e09e8c112f25a496aee52e49766848efd5759308ae3fbedf3276514bd82502206aea12eb083bed0c4ebd7e212ff5bbc907c4413ca0d7ed82e37502316d001aae012103ce3bf1d5581e5270a822343ad22b41212f224ea17a17767d83ed130d88cccb3d"
          },
          "sequence": 4294967294
        }, 
        {
          "txid": "9db613437f6f4b074cdef5028027e44f9d08424677444cb1c7b569f0f64fa8f3",
          "vout": 0,
          "scriptSig": {
            "asm": "3045022100801615b60249bee3b0e28d0816bd1fa708be15793ed95a17a92c94d1145d51ae02202f99418e61f7089dacf7c6e21e14ac17cc9122d22ecbc10f72ed3acce292aa58[ALL] 0341572fec859dd3035e4423cf52644b9fba559571d0d830545b7c7a0ac815bb3f",
            "hex": "483045022100801615b60249bee3b0e28d0816bd1fa708be15793ed95a17a92c94d1145d51ae02202f99418e61f7089dacf7c6e21e14ac17cc9122d22ecbc10f72ed3acce292aa5801210341572fec859dd3035e4423cf52644b9fba559571d0d830545b7c7a0ac815bb3f"
          },
          "sequence": 4294967294
        }
      ],
      "vout": [
        {
          "value": 1.00000000,
          "n": 0,
          "scriptPubKey": {
            "asm": "OP_DUP OP_HASH160 32c20f70824434848140e2d826db4d55d3c02fb1 OP_EQUALVERIFY OP_CHECKSIG",
            "hex": "76a91432c20f70824434848140e2d826db4d55d3c02fb188ac",
            "reqSigs": 1,
            "type": "pubkeyhash",
            "addresses": [
              "LPrLXMKzZbhdcBQdiL2DY4v124nReAucnm"
            ]
          }
        }, 
        {
          "value": 0.01020273,
          "n": 1,
          "scriptPubKey": {
            "asm": "OP_DUP OP_HASH160 6701b7ba991a65c633fedab1250e557b73623449 OP_EQUALVERIFY OP_CHECKSIG",
            "hex": "76a9146701b7ba991a65c633fedab1250e557b7362344988ac",
            "reqSigs": 1,
            "type": "pubkeyhash",
            "addresses": [
              "LUcbvKSjL8oxYEJvpTmrwmH1CnWP16MimN"
            ]
          }
        }
      ],
      "hex": "01000000028357ed8cb1dae2f38f9a4eadd22a0725f9acbebd4fa0ee978ca452699fda92de010000006a47304402207cb2e09e8c112f25a496aee52e49766848efd5759308ae3fbedf3276514bd82502206aea12eb083bed0c4ebd7e212ff5bbc907c4413ca0d7ed82e37502316d001aae012103ce3bf1d5581e5270a822343ad22b41212f224ea17a17767d83ed130d88cccb3dfefffffff3a84ff6f069b5c7b14c44774642089d4fe4278002f5de4c074b6f7f4313b69d000000006b483045022100801615b60249bee3b0e28d0816bd1fa708be15793ed95a17a92c94d1145d51ae02202f99418e61f7089dacf7c6e21e14ac17cc9122d22ecbc10f72ed3acce292aa5801210341572fec859dd3035e4423cf52644b9fba559571d0d830545b7c7a0ac815bb3ffeffffff0200e1f505000000001976a91432c20f70824434848140e2d826db4d55d3c02fb188ac71910f00000000001976a9146701b7ba991a65c633fedab1250e557b7362344988ac5bb71400"
    }, 
    {
      "txid": "c8357d023b911d2b72c528aea32cff416580f9114992a81c4f1f64a18ed9223b",
      "hash": "c8357d023b911d2b72c528aea32cff416580f9114992a81c4f1f64a18ed9223b",
      "version": 1,
      "size": 814,
      "vsize": 814,
      "locktime": 1357687,
      "vin": [
        {
          "txid": "ac8249ab106a8377157e19c8b652a40c408c374db78c3a1865c547089e245ea5",
          "vout": 1,
          "scriptSig": {
            "asm": "3044022028b61fe5900538fa932d349d67724396de80a9522fb0dc8f76c9ce2b0d3dc01402200a6955cda90e2cd832f06c3273c2e5eedbb89bed7a9df8adff44e7e9c6f6dd3f[ALL] 033c54188390809ab3780bdd155dbf7997f1163bf16265d8ca5d3e3b496ad08ad2",
            "hex": "473044022028b61fe5900538fa932d349d67724396de80a9522fb0dc8f76c9ce2b0d3dc01402200a6955cda90e2cd832f06c3273c2e5eedbb89bed7a9df8adff44e7e9c6f6dd3f0121033c54188390809ab3780bdd155dbf7997f1163bf16265d8ca5d3e3b496ad08ad2"
          },
          "sequence": 4294967294
        }, 
        {
          "txid": "5d2d34a1af0fbd207680f0f515db9d669209480a19714146d47f47feffd15842",
          "vout": 0,
          "scriptSig": {
            "asm": "3044022077162e2d5deda2ca38f4697c97a5336d8461cd4e491b8e2209b256173034a06b022054d619f7feb2a4d170004aca54ad6cfb9398d0ed8e500b538fe9c6a48babd219[ALL] 0275ee11824572932bc0cadcaa1801970922ed2968c10b1b04f50aeec1d0415057",
            "hex": "473044022077162e2d5deda2ca38f4697c97a5336d8461cd4e491b8e2209b256173034a06b022054d619f7feb2a4d170004aca54ad6cfb9398d0ed8e500b538fe9c6a48babd21901210275ee11824572932bc0cadcaa1801970922ed2968c10b1b04f50aeec1d0415057"
          },
          "sequence": 4294967294
        }, 
        {
          "txid": "a807f849985dd2ea47787bb3105ac13fd0145246d3fd95c7837f20066ab28b97",
          "vout": 1,
          "scriptSig": {
            "asm": "3044022048a0161e8e1010b9d7dd2ec969b608d48cb219b3a2dc0b0200d8a16b018bb3f1022032d15fbd65ff5341ca9d1ac3ca5b4fe79e7c9aa7bcf82f68438814db9237a7ee[ALL] 031fc56c07416c7f56225394753cb26aebf3aeea7fe7f2b53c41f8d4d067379c61",
            "hex": "473044022048a0161e8e1010b9d7dd2ec969b608d48cb219b3a2dc0b0200d8a16b018bb3f1022032d15fbd65ff5341ca9d1ac3ca5b4fe79e7c9aa7bcf82f68438814db9237a7ee0121031fc56c07416c7f56225394753cb26aebf3aeea7fe7f2b53c41f8d4d067379c61"
          },
          "sequence": 4294967294
        }, 
        {
          "txid": "0e4996d393bf2afa0f760d8ad81273e93166b552d4ade23b14a4c44691a776c9",
          "vout": 1,
          "scriptSig": {
            "asm": "30440220190f82cac839f2499bf8d27cf798866e45480f4746a3b779dd2db5208a58f57f02206f11d7af8873d1f9132ee5224ab1a90afa9d1af140c52ef03825c5df02c94c8a[ALL] 033c54188390809ab3780bdd155dbf7997f1163bf16265d8ca5d3e3b496ad08ad2",
            "hex": "4730440220190f82cac839f2499bf8d27cf798866e45480f4746a3b779dd2db5208a58f57f02206f11d7af8873d1f9132ee5224ab1a90afa9d1af140c52ef03825c5df02c94c8a0121033c54188390809ab3780bdd155dbf7997f1163bf16265d8ca5d3e3b496ad08ad2"
          },
          "sequence": 4294967294
        }, 
        {
          "txid": "91a62471a4b2c8fbd5d4340fd66e60019e6da2c774306fdcef89f0a562dea45e",
          "vout": 0,
          "scriptSig": {
            "asm": "3045022100e77af80b744683dcd882ac6503c604a8e21d88d065ecce59a1a0c3d55cf45c2d0220151d0d11326f967e1e751ba73d67eb468e6a3ad05adc27b642125cd9bed8b230[ALL] 02747278844ef531d26e1794af965ea0c8c3e271515ad56b8fc27216755ccfa583",
            "hex": "483045022100e77af80b744683dcd882ac6503c604a8e21d88d065ecce59a1a0c3d55cf45c2d0220151d0d11326f967e1e751ba73d67eb468e6a3ad05adc27b642125cd9bed8b230012102747278844ef531d26e1794af965ea0c8c3e271515ad56b8fc27216755ccfa583"
          },
          "sequence": 4294967294
        }
      ],
      "vout": [
        {
          "value": 0.01000004,
          "n": 0,
          "scriptPubKey": {
            "asm": "OP_DUP OP_HASH160 9d1462c2a0ef3fc0339ebff88bddfb79e2f86b9b OP_EQUALVERIFY OP_CHECKSIG",
            "hex": "76a9149d1462c2a0ef3fc0339ebff88bddfb79e2f86b9b88ac",
            "reqSigs": 1,
            "type": "pubkeyhash",
            "addresses": [
              "LZYWmkznnL4MRqoAXf89BHvd1uR4ctyN8B"
            ]
          }
        }, 
        {
          "value": 17.10110177,
          "n": 1,
          "scriptPubKey": {
            "asm": "OP_DUP OP_HASH160 f06c1945082f4b8f70bf36143c8977d18a9931b9 OP_EQUALVERIFY OP_CHECKSIG",
            "hex": "76a914f06c1945082f4b8f70bf36143c8977d18a9931b988ac",
            "reqSigs": 1,
            "type": "pubkeyhash",
            "addresses": [
              "Lh9Bw5jDGERycBDM5o3av1RqDMkhVVC8R9"
            ]
          }
        }
      ],
      "hex": "0100000005a55e249e0847c565183a8cb74d378c400ca452b6c8197e1577836a10ab4982ac010000006a473044022028b61fe5900538fa932d349d67724396de80a9522fb0dc8f76c9ce2b0d3dc01402200a6955cda90e2cd832f06c3273c2e5eedbb89bed7a9df8adff44e7e9c6f6dd3f0121033c54188390809ab3780bdd155dbf7997f1163bf16265d8ca5d3e3b496ad08ad2feffffff4258d1fffe477fd4464171190a480992669ddb15f5f0807620bd0fafa1342d5d000000006a473044022077162e2d5deda2ca38f4697c97a5336d8461cd4e491b8e2209b256173034a06b022054d619f7feb2a4d170004aca54ad6cfb9398d0ed8e500b538fe9c6a48babd21901210275ee11824572932bc0cadcaa1801970922ed2968c10b1b04f50aeec1d0415057feffffff978bb26a06207f83c795fdd3465214d03fc15a10b37b7847ead25d9849f807a8010000006a473044022048a0161e8e1010b9d7dd2ec969b608d48cb219b3a2dc0b0200d8a16b018bb3f1022032d15fbd65ff5341ca9d1ac3ca5b4fe79e7c9aa7bcf82f68438814db9237a7ee0121031fc56c07416c7f56225394753cb26aebf3aeea7fe7f2b53c41f8d4d067379c61feffffffc976a79146c4a4143be2add452b56631e97312d88a0d760ffa2abf93d396490e010000006a4730440220190f82cac839f2499bf8d27cf798866e45480f4746a3b779dd2db5208a58f57f02206f11d7af8873d1f9132ee5224ab1a90afa9d1af140c52ef03825c5df02c94c8a0121033c54188390809ab3780bdd155dbf7997f1163bf16265d8ca5d3e3b496ad08ad2feffffff5ea4de62a5f089efdc6f3074c7a26d9e01606ed60f34d4d5fbc8b2a47124a691000000006b483045022100e77af80b744683dcd882ac6503c604a8e21d88d065ecce59a1a0c3d55cf45c2d0220151d0d11326f967e1e751ba73d67eb468e6a3ad05adc27b642125cd9bed8b230012102747278844ef531d26e1794af965ea0c8c3e271515ad56b8fc27216755ccfa583feffffff0244420f00000000001976a9149d1462c2a0ef3fc0339ebff88bddfb79e2f86b9b88ace135ee65000000001976a914f06c1945082f4b8f70bf36143c8977d18a9931b988ac77b71400"
    }, 
    {
      "txid": "3d66cc6a15dcf46fb7821ba29d83621182da986712b97196ca1220bd052f47cf",
      "hash": "3d66cc6a15dcf46fb7821ba29d83621182da986712b97196ca1220bd052f47cf",
      "version": 1,
      "size": 226,
      "vsize": 226,
      "locktime": 0,
      "vin": [
        {
          "txid": "9fcd4b4a31448dcf23b0beba6aad31626c26cab59c83be1e9202b302ca65f29b",
          "vout": 210,
          "scriptSig": {
            "asm": "3045022100cf8f84d1ee0540b5abcb72313e5a10b75764216f4d2749b63d7d835b29e554af0220790f47884e6d8c24e54efa6bc05c4a45e19330a6485bf52f750f2158a3e6daeb[ALL] 0293336d57ee9291cbbe5b342d98e967a71b9425bb6a26819186f6e201ad30d940",
            "hex": "483045022100cf8f84d1ee0540b5abcb72313e5a10b75764216f4d2749b63d7d835b29e554af0220790f47884e6d8c24e54efa6bc05c4a45e19330a6485bf52f750f2158a3e6daeb01210293336d57ee9291cbbe5b342d98e967a71b9425bb6a26819186f6e201ad30d940"
          },
          "sequence": 4294967295
        }
      ],
      "vout": [
        {
          "value": 0.26025189,
          "n": 0,
          "scriptPubKey": {
            "asm": "OP_DUP OP_HASH160 94eed64de9b9fa519f6c6bdf31e0601aea3bd3d3 OP_EQUALVERIFY OP_CHECKSIG",
            "hex": "76a91494eed64de9b9fa519f6c6bdf31e0601aea3bd3d388ac",
            "reqSigs": 1,
            "type": "pubkeyhash",
            "addresses": [
              "LYoSPJG11a4c1VeMDW39SetQrgroW543GN"
            ]
          }
        }, 
        {
          "value": 0.00115315,
          "n": 1,
          "scriptPubKey": {
            "asm": "OP_DUP OP_HASH160 6080fbfe48c355d47f70172d2f2ba9a7cd1a321b OP_EQUALVERIFY OP_CHECKSIG",
            "hex": "76a9146080fbfe48c355d47f70172d2f2ba9a7cd1a321b88ac",
            "reqSigs": 1,
            "type": "pubkeyhash",
            "addresses": [
              "LU2DecpZdYaf2jjY9uXWdW82eLgCdS7GYL"
            ]
          }
        }
      ],
      "hex": "01000000019bf265ca02b302921ebe839cb5ca266c6231ad6ababeb023cf8d44314a4bcd9fd20000006b483045022100cf8f84d1ee0540b5abcb72313e5a10b75764216f4d2749b63d7d835b29e554af0220790f47884e6d8c24e54efa6bc05c4a45e19330a6485bf52f750f2158a3e6daeb01210293336d57ee9291cbbe5b342d98e967a71b9425bb6a26819186f6e201ad30d940ffffffff02e51c8d01000000001976a91494eed64de9b9fa519f6c6bdf31e0601aea3bd3d388ac73c20100000000001976a9146080fbfe48c355d47f70172d2f2ba9a7cd1a321b88ac00000000"
    }
  ],
  "time": 1517035425,
  "mediantime": 1517035082,
  "nonce": 1265650384,
  "bits": "1a047f14",
  "difficulty": 3731199.183374282,
  "chainwork": "00000000000000000000000000000000000000000000003271909215886f897e",
  "previousblockhash": "0598d3449b505c08877d6967a7f55332565d94db49e392f730f9553fef176cf2",
  "nextblockhash": "75740cd785053f769f34daebb7988f7576c86a21068468dbdb4039b9c03a9af4"
}
