{
  "hash": "b15867dc2c96822f07ef0087425df0aaf9f9e12526dc37a1ae88a89da1c5f226",
  "confirmations": 1045,
  "strippedsize": 253,
  "size": 253,
  "weight": 1012,
  "height": 1359949,
  "version": 536870912,
  "versionHex": "20000000",
  "merkleroot": "a72fd600d4c72ddd56ea89a6654ff564c94ec75a1a23d9953dbdf9135a6ff26e",
  "tx": [
    {
      "txid": "a72fd600d4c72ddd56ea89a6654ff564c94ec75a1a23d9953dbdf9135a6ff26e",
      "hash": "a72fd600d4c72ddd56ea89a6654ff564c94ec75a1a23d9953dbdf9135a6ff26e",
      "version": 1,
      "size": 172,
      "vsize": 172,
      "locktime": 0,
      "vin": [
        {
          "coinbase": "034dc0141a4d696e656420627920416e74506f6f6c20626a3242205a70fba7fabe6d6d7798351daed8e921b183fb39fbb4da8d9891505bdfbdb3c895de3c734656a99d0400000000000000cd040000000000001a000000",
          "sequence": 4294967295
        }
      ],
      "vout": [
        {
          "value": 25.00000000,
          "n": 0,
          "scriptPubKey": {
            "asm": "OP_DUP OP_HASH160 0ff3ccc5e8be88afe24b5d634e5852d474dbdff1 OP_EQUALVERIFY OP_CHECKSIG",
            "hex": "76a9140ff3ccc5e8be88afe24b5d634e5852d474dbdff188ac",
            "reqSigs": 1,
            "type": "pubkeyhash",
            "addresses": [
              "LLgJTbzZMsRTCUF1NtvvL9SR1a4pVieW89"
            ]
          }
        }
      ],
      "hex": "01000000010000000000000000000000000000000000000000000000000000000000000000ffffffff57034dc0141a4d696e656420627920416e74506f6f6c20626a3242205a70fba7fabe6d6d7798351daed8e921b183fb39fbb4da8d9891505bdfbdb3c895de3c734656a99d0400000000000000cd040000000000001a000000ffffffff0100f90295000000001976a9140ff3ccc5e8be88afe24b5d634e5852d474dbdff188ac00000000"
    }
  ],
  "time": 1517353895,
  "mediantime": 1517352766,
  "nonce": 2112001088,
  "bits": "1a042eae",
  "difficulty": 4011378.762614286,
  "chainwork": "0000000000000000000000000000000000000000000000347b70742e0d6fb29c",
  "previousblockhash": "8a87e07d6a8f8b05af09f712a4252aaf2a263a51be6ddb655b8f7b0472acc268",
  "nextblockhash": "58ec39c922de22e8260b21843c85b90ef89b11d805053ed4a3f9258955f8a869"
}
