{
  "hash": "b18cad38f253972c04d715b7b9e4bd83da58315a7ac5f8679eb0fa508cd821da",
  "confirmations": 1223,
  "strippedsize": 1829,
  "size": 1865,
  "weight": 7352,
  "height": 1359771,
  "version": 536870912,
  "versionHex": "20000000",
  "merkleroot": "992b8b0de218ce38114adf39ef10bae89cf9e63d08cc804b07077a7084d297d7",
  "tx": [
    {
      "txid": "bd3be99c25b139547c215a668f0c42dcf45eb0ac8415c4d860997bd889d62282",
      "hash": "b2c26940924f8bc537e8c1abf5e18c3edde299b9e43c404f8088b09c8e992c26",
      "version": 1,
      "size": 287,
      "vsize": 260,
      "locktime": 0,
      "vin": [
        {
          "coinbase": "039bbf1441d69c2759037ab041d69c27584d8df92f4c54432e544f502ffabe6d6d1f4b57a74c299244eb2b6c9b4461ecce28dcca38b016d2654f91cd691d766e6a010000000000000052327f020d00000000000000",
          "sequence": 4294967295
        }
      ],
      "vout": [
        {
          "value": 24.75400868,
          "n": 0,
          "scriptPubKey": {
            "asm": "OP_DUP OP_HASH160 7b96c291c4d9e252907e9275cd3d14fdeaeac0f1 OP_EQUALVERIFY OP_CHECKSIG",
            "hex": "76a9147b96c291c4d9e252907e9275cd3d14fdeaeac0f188ac",
            "reqSigs": 1,
            "type": "pubkeyhash",
            "addresses": [
              "LWVRyoJawzDYtvRmLVzUXqUSkNT7H1MLTt"
            ]
          }
        }, 
        {
          "value": 0.00000000,
          "n": 1,
          "scriptPubKey": {
            "asm": "OP_RETURN aa21a9ed58a0cacfa89ae90ce5049abcb916e17b67167ab61fa1bed9f43e50137eb7ae56",
            "hex": "6a24aa21a9ed58a0cacfa89ae90ce5049abcb916e17b67167ab61fa1bed9f43e50137eb7ae56",
            "type": "nulldata"
          }
        }, 
        {
          "value": 0.25004049,
          "n": 2,
          "scriptPubKey": {
            "asm": "OP_DUP OP_HASH160 0c617fdb2ea42aed30a509595ee21ba3f6688db0 OP_EQUALVERIFY OP_CHECKSIG",
            "hex": "76a9140c617fdb2ea42aed30a509595ee21ba3f6688db088ac",
            "reqSigs": 1,
            "type": "pubkeyhash",
            "addresses": [
              "LLMRAtr3qBje2ySEa3CnZ55LA4TQMWnRY3"
            ]
          }
        }
      ],
      "hex": "010000000001010000000000000000000000000000000000000000000000000000000000000000ffffffff55039bbf1441d69c2759037ab041d69c27584d8df92f4c54432e544f502ffabe6d6d1f4b57a74c299244eb2b6c9b4461ecce28dcca38b016d2654f91cd691d766e6a010000000000000052327f020d00000000000000ffffffff03a49e8b93000000001976a9147b96c291c4d9e252907e9275cd3d14fdeaeac0f188ac0000000000000000266a24aa21a9ed58a0cacfa89ae90ce5049abcb916e17b67167ab61fa1bed9f43e50137eb7ae5611887d01000000001976a9140c617fdb2ea42aed30a509595ee21ba3f6688db088ac0120000000000000000000000000000000000000000000000000000000000000000000000000"
    }, 
    {
      "txid": "4c7401d4d951f25d5e3e1ceb08b26fd51fb3d569b8a94b88ee82b1434ebf7596",
      "hash": "4c7401d4d951f25d5e3e1ceb08b26fd51fb3d569b8a94b88ee82b1434ebf7596",
      "version": 1,
      "size": 226,
      "vsize": 226,
      "locktime": 0,
      "vin": [
        {
          "txid": "e5c22a13258f0041216d660b4758090768a4cc9d02a8edc83ff389a85c904cf1",
          "vout": 1,
          "scriptSig": {
            "asm": "30450221008fdd2d9b60b972ce2da8123f728c8aeb394cbe576dab4792fb67f8a0f76561a502204e72ff038ce29e515d5bacabebe73d494a579be54af83dbfe7b1cc9aeeb953fb[ALL] 03476ad729797d285db02da8dc4c98b8d4e7356a7d00b362aa52e591e13b52fc2b",
            "hex": "4830450221008fdd2d9b60b972ce2da8123f728c8aeb394cbe576dab4792fb67f8a0f76561a502204e72ff038ce29e515d5bacabebe73d494a579be54af83dbfe7b1cc9aeeb953fb012103476ad729797d285db02da8dc4c98b8d4e7356a7d00b362aa52e591e13b52fc2b"
          },
          "sequence": 4294967295
        }
      ],
      "vout": [
        {
          "value": 1.17357118,
          "n": 0,
          "scriptPubKey": {
            "asm": "OP_DUP OP_HASH160 f3d7cf32c95c867b1b6f08b76aac79dc6869c988 OP_EQUALVERIFY OP_CHECKSIG",
            "hex": "76a914f3d7cf32c95c867b1b6f08b76aac79dc6869c98888ac",
            "reqSigs": 1,
            "type": "pubkeyhash",
            "addresses": [
              "LhTGzXSRkSmSuQPS17WvmBtz9uaG5bow6w"
            ]
          }
        }, 
        {
          "value": 2.66266406,
          "n": 1,
          "scriptPubKey": {
            "asm": "OP_DUP OP_HASH160 303a6bc9508cc401ce3d0ab6f2b8a979ac8ed64b OP_EQUALVERIFY OP_CHECKSIG",
            "hex": "76a914303a6bc9508cc401ce3d0ab6f2b8a979ac8ed64b88ac",
            "reqSigs": 1,
            "type": "pubkeyhash",
            "addresses": [
              "LPcxgawLPeWZgGRixpMawS5EW7StyFWrMP"
            ]
          }
        }
      ],
      "hex": "0100000001f14c905ca889f33fc8eda8029dcca468070958470b666d2141008f25132ac2e5010000006b4830450221008fdd2d9b60b972ce2da8123f728c8aeb394cbe576dab4792fb67f8a0f76561a502204e72ff038ce29e515d5bacabebe73d494a579be54af83dbfe7b1cc9aeeb953fb012103476ad729797d285db02da8dc4c98b8d4e7356a7d00b362aa52e591e13b52fc2bffffffff023ebafe06000000001976a914f3d7cf32c95c867b1b6f08b76aac79dc6869c98888ac26e7de0f000000001976a914303a6bc9508cc401ce3d0ab6f2b8a979ac8ed64b88ac00000000"
    }, 
    {
      "txid": "81f330ce515ecf0402a19a3f5854d5db55c02fed6d9aab5f7d3d440eb230b056",
      "hash": "81f330ce515ecf0402a19a3f5854d5db55c02fed6d9aab5f7d3d440eb230b056",
      "version": 1,
      "size": 372,
      "vsize": 372,
      "locktime": 0,
      "vin": [
        {
          "txid": "571836c7eabe3f29078c94a16eb94a439d0e7edb2c800a22ebe95bed5d31bc10",
          "vout": 1,
          "scriptSig": {
            "asm": "3044022052d4d5b743568cd37faeeaabdf1f42443c5160295246eaeccf234e696217a21c0220697a1cc517b36fa6cc4f827c55eec9bd65c8dc38f0a216bf539e2a49aade620d[ALL] 0234175562037f7b6c62d58f969866494aa159cc77bf3d0c9311a829745efce9b8",
            "hex": "473044022052d4d5b743568cd37faeeaabdf1f42443c5160295246eaeccf234e696217a21c0220697a1cc517b36fa6cc4f827c55eec9bd65c8dc38f0a216bf539e2a49aade620d01210234175562037f7b6c62d58f969866494aa159cc77bf3d0c9311a829745efce9b8"
          },
          "sequence": 4294967294
        }, 
        {
          "txid": "fe6926d4a57b4d751c1975bcc3f95891200db4273cf6e300eacadf4a71d04ce3",
          "vout": 1,
          "scriptSig": {
            "asm": "30440220668dfc1844c47866094b38acb2a978cb5c726a47ec641e205069442fdaefc3aa022019697da454391402b12a0a135a9ef19c30c3ced355b62c4f53134b6d546fa052[ALL] 0234175562037f7b6c62d58f969866494aa159cc77bf3d0c9311a829745efce9b8",
            "hex": "4730440220668dfc1844c47866094b38acb2a978cb5c726a47ec641e205069442fdaefc3aa022019697da454391402b12a0a135a9ef19c30c3ced355b62c4f53134b6d546fa05201210234175562037f7b6c62d58f969866494aa159cc77bf3d0c9311a829745efce9b8"
          },
          "sequence": 4294967294
        }
      ],
      "vout": [
        {
          "value": 0.09946000,
          "n": 0,
          "scriptPubKey": {
            "asm": "OP_DUP OP_HASH160 4a6fc9e97489c4599d64ddc714d8fbc4b6692cf8 OP_EQUALVERIFY OP_CHECKSIG",
            "hex": "76a9144a6fc9e97489c4599d64ddc714d8fbc4b6692cf888ac",
            "reqSigs": 1,
            "type": "pubkeyhash",
            "addresses": [
              "LS1YBdC4PhfcAaLK5PrC8vJzm2oSthgxAJ"
            ]
          }
        }, 
        {
          "value": 1.00000000,
          "n": 1,
          "scriptPubKey": {
            "asm": "OP_DUP OP_HASH160 a94ebad3a0d2684a266344503bf7cfb5851cc3d9 OP_EQUALVERIFY OP_CHECKSIG",
            "hex": "76a914a94ebad3a0d2684a266344503bf7cfb5851cc3d988ac",
            "reqSigs": 1,
            "type": "pubkeyhash",
            "addresses": [
              "LafAmsezmBHKNjj359ejh6h5zsscsVN3xu"
            ]
          }
        }
      ],
      "hex": "010000000210bc315ded5be9eb220a802cdb7e0e9d434ab96ea1948c07293fbeeac7361857010000006a473044022052d4d5b743568cd37faeeaabdf1f42443c5160295246eaeccf234e696217a21c0220697a1cc517b36fa6cc4f827c55eec9bd65c8dc38f0a216bf539e2a49aade620d01210234175562037f7b6c62d58f969866494aa159cc77bf3d0c9311a829745efce9b8feffffffe34cd0714adfcaea00e3f63c27b40d209158f9c3bc75191c754d7ba5d42669fe010000006a4730440220668dfc1844c47866094b38acb2a978cb5c726a47ec641e205069442fdaefc3aa022019697da454391402b12a0a135a9ef19c30c3ced355b62c4f53134b6d546fa05201210234175562037f7b6c62d58f969866494aa159cc77bf3d0c9311a829745efce9b8feffffff0290c39700000000001976a9144a6fc9e97489c4599d64ddc714d8fbc4b6692cf888ac00e1f505000000001976a914a94ebad3a0d2684a266344503bf7cfb5851cc3d988ac00000000"
    }, 
    {
      "txid": "ed4d200f5ec2b3446a4f4a2bb694dc32c6d80daf7bca63597e101c467686d9ad",
      "hash": "ed4d200f5ec2b3446a4f4a2bb694dc32c6d80daf7bca63597e101c467686d9ad",
      "version": 1,
      "size": 223,
      "vsize": 223,
      "locktime": 34271,
      "vin": [
        {
          "txid": "5259ddb54b6f842546995d4fdea5c11ab06ad78499e1a48857622242f4f093c0",
          "vout": 1,
          "scriptSig": {
            "asm": "3044022025da1552f94527044098de9970d8a45d736682eaac2c2c3c4a8f32fafe56735b022023bf58ff647c2194e786cae64199a9eb57648099d47a0e2388c5a4f03d475fe1[ALL] 03bbffa56942b91e2e737cf3bcfc448f615b9eb41f6d8c7691df042c9ac7c16e9e",
            "hex": "473044022025da1552f94527044098de9970d8a45d736682eaac2c2c3c4a8f32fafe56735b022023bf58ff647c2194e786cae64199a9eb57648099d47a0e2388c5a4f03d475fe1012103bbffa56942b91e2e737cf3bcfc448f615b9eb41f6d8c7691df042c9ac7c16e9e"
          },
          "sequence": 4294967294
        }
      ],
      "vout": [
        {
          "value": 0.00934000,
          "n": 0,
          "scriptPubKey": {
            "asm": "OP_DUP OP_HASH160 1da4478738f2dc7b0ad2bd89d8f35635bc0326a7 OP_EQUALVERIFY OP_CHECKSIG",
            "hex": "76a9141da4478738f2dc7b0ad2bd89d8f35635bc0326a788ac",
            "reqSigs": 1,
            "type": "pubkeyhash",
            "addresses": [
              "LMvgf7JJ5qtoduQHmpvrzgpcgjcLV56R7X"
            ]
          }
        }, 
        {
          "value": 0.14000000,
          "n": 1,
          "scriptPubKey": {
            "asm": "OP_HASH160 badc4d683f8f5cac8126e4b50b1b314ef07bb8ae OP_EQUAL",
            "hex": "a914badc4d683f8f5cac8126e4b50b1b314ef07bb8ae87",
            "reqSigs": 1,
            "type": "scripthash",
            "addresses": [
              "MQwBpzFCgsRZv4LRdZYY4H2hXTB8dJW2oR"
            ]
          }
        }
      ],
      "hex": "0100000001c093f0f44222625788a4e19984d76ab01ac1a5de4f5d994625846f4bb5dd5952010000006a473044022025da1552f94527044098de9970d8a45d736682eaac2c2c3c4a8f32fafe56735b022023bf58ff647c2194e786cae64199a9eb57648099d47a0e2388c5a4f03d475fe1012103bbffa56942b91e2e737cf3bcfc448f615b9eb41f6d8c7691df042c9ac7c16e9efeffffff0270400e00000000001976a9141da4478738f2dc7b0ad2bd89d8f35635bc0326a788ac809fd5000000000017a914badc4d683f8f5cac8126e4b50b1b314ef07bb8ae87df850000"
    }, 
    {
      "txid": "6ba4e6c2bfe0700a07fe31a283b8bf90fff4a2a526a7bacebd2bd3412e3596a6",
      "hash": "6ba4e6c2bfe0700a07fe31a283b8bf90fff4a2a526a7bacebd2bd3412e3596a6",
      "version": 1,
      "size": 225,
      "vsize": 225,
      "locktime": 0,
      "vin": [
        {
          "txid": "b121d4f5e2c0313d7c115a09aa77ed69108a8f0f850a3c0531198e408026ea0d",
          "vout": 1,
          "scriptSig": {
            "asm": "30440220257ba9ad7b8bcefa8b7fb021f7362c772ec80a7b860476a7e6a648d72de1ec85022066c6b86b035779d2c737960d2eb932b4e2aeb202786597b05f0c5fe195d9abcd[ALL] 037b5adfcb790ed258c73e2562442bd66a16cf0dd5f5c19ce5ccc73b7ea53d479d",
            "hex": "4730440220257ba9ad7b8bcefa8b7fb021f7362c772ec80a7b860476a7e6a648d72de1ec85022066c6b86b035779d2c737960d2eb932b4e2aeb202786597b05f0c5fe195d9abcd0121037b5adfcb790ed258c73e2562442bd66a16cf0dd5f5c19ce5ccc73b7ea53d479d"
          },
          "sequence": 4294967295
        }
      ],
      "vout": [
        {
          "value": 13.44833219,
          "n": 0,
          "scriptPubKey": {
            "asm": "OP_DUP OP_HASH160 1b18760a6e92d67188b9b38e1c96c936eae5474a OP_EQUALVERIFY OP_CHECKSIG",
            "hex": "76a9141b18760a6e92d67188b9b38e1c96c936eae5474a88ac",
            "reqSigs": 1,
            "type": "pubkeyhash",
            "addresses": [
              "LMhDoykNgufAXdAx5gbXySEpzodYEjktgE"
            ]
          }
        }, 
        {
          "value": 1.46249042,
          "n": 1,
          "scriptPubKey": {
            "asm": "OP_DUP OP_HASH160 f0d420145afa01426232e6b38a5578f5902a8427 OP_EQUALVERIFY OP_CHECKSIG",
            "hex": "76a914f0d420145afa01426232e6b38a5578f5902a842788ac",
            "reqSigs": 1,
            "type": "pubkeyhash",
            "addresses": [
              "LhBLYydpzmZykMzqH8f3rSKQPwQQBZQECo"
            ]
          }
        }
      ],
      "hex": "01000000010dea2680408e1931053c0a850f8f8a1069ed77aa095a117c3d31c0e2f5d421b1010000006a4730440220257ba9ad7b8bcefa8b7fb021f7362c772ec80a7b860476a7e6a648d72de1ec85022066c6b86b035779d2c737960d2eb932b4e2aeb202786597b05f0c5fe195d9abcd0121037b5adfcb790ed258c73e2562442bd66a16cf0dd5f5c19ce5ccc73b7ea53d479dffffffff02c3862850000000001976a9141b18760a6e92d67188b9b38e1c96c936eae5474a88ac5295b708000000001976a914f0d420145afa01426232e6b38a5578f5902a842788ac00000000"
    }, 
    {
      "txid": "2668dd8164e7c3491dc65e950c3d8479f9a6e040bbd002ddc6e131cd13a9fbc4",
      "hash": "2668dd8164e7c3491dc65e950c3d8479f9a6e040bbd002ddc6e131cd13a9fbc4",
      "version": 1,
      "size": 225,
      "vsize": 225,
      "locktime": 0,
      "vin": [
        {
          "txid": "004d6ba2b4d0588aab72639cca79238335baf3401b0485778fdd5cba472be179",
          "vout": 1,
          "scriptSig": {
            "asm": "3044022041bc0987efd33ae98b8032966e52cbad835b7f9a089b98514a8136e0786e926a022035107c374508dda6dcb716348aa44bdb6d4dc7dc2fdb24f04727055aed3a0bd5[ALL] 03adf162d986764de5d13ab57f1cc1f83c39030a48317b3db66ff46d94291c266d",
            "hex": "473044022041bc0987efd33ae98b8032966e52cbad835b7f9a089b98514a8136e0786e926a022035107c374508dda6dcb716348aa44bdb6d4dc7dc2fdb24f04727055aed3a0bd5012103adf162d986764de5d13ab57f1cc1f83c39030a48317b3db66ff46d94291c266d"
          },
          "sequence": 4294967295
        }
      ],
      "vout": [
        {
          "value": 13.91826735,
          "n": 0,
          "scriptPubKey": {
            "asm": "OP_DUP OP_HASH160 41df7aaa7d5e6c3afc1515b5feb27370fee0179f OP_EQUALVERIFY OP_CHECKSIG",
            "hex": "76a91441df7aaa7d5e6c3afc1515b5feb27370fee0179f88ac",
            "reqSigs": 1,
            "type": "pubkeyhash",
            "addresses": [
              "LREFuHa79w1QJagfrGUj9DfASDGZQC4unE"
            ]
          }
        }, 
        {
          "value": 1.00000000,
          "n": 1,
          "scriptPubKey": {
            "asm": "OP_DUP OP_HASH160 be609e886d95356d7df735b83891c0108f478e50 OP_EQUALVERIFY OP_CHECKSIG",
            "hex": "76a914be609e886d95356d7df735b83891c0108f478e5088ac",
            "reqSigs": 1,
            "type": "pubkeyhash",
            "addresses": [
              "LcaaPtJSAdbqdjRByrbEFePbWGszKY7Q8g"
            ]
          }
        }
      ],
      "hex": "010000000179e12b47ba5cdd8f7785041b40f3ba35832379ca9c6372ab8a58d0b4a26b4d00010000006a473044022041bc0987efd33ae98b8032966e52cbad835b7f9a089b98514a8136e0786e926a022035107c374508dda6dcb716348aa44bdb6d4dc7dc2fdb24f04727055aed3a0bd5012103adf162d986764de5d13ab57f1cc1f83c39030a48317b3db66ff46d94291c266dffffffff022f97f552000000001976a91441df7aaa7d5e6c3afc1515b5feb27370fee0179f88ac00e1f505000000001976a914be609e886d95356d7df735b83891c0108f478e5088ac00000000"
    }, 
    {
      "txid": "d65892e0f9c5203d1eaf5756a8d1982ebfb590cd3a9ac7424ca7aff97311a8cf",
      "hash": "d65892e0f9c5203d1eaf5756a8d1982ebfb590cd3a9ac7424ca7aff97311a8cf",
      "version": 1,
      "size": 226,
      "vsize": 226,
      "locktime": 0,
      "vin": [
        {
          "txid": "81b5ba5ba21059939e94a8c22da0080a9835c4a2ce11c06df85e65fe0372e5c3",
          "vout": 0,
          "scriptSig": {
            "asm": "304502210085142b2c9d88824f7409e4adbc497d3783f7a987a478447649a2dc53accd0fd202200182163449e002ea20ff7818ef6531d045697ff68149d9b76cd63eda8fd28295[ALL] 0395da4904da002f7c5923ea58a523aa89c9f64316b342b5a01d46390428181c0d",
            "hex": "48304502210085142b2c9d88824f7409e4adbc497d3783f7a987a478447649a2dc53accd0fd202200182163449e002ea20ff7818ef6531d045697ff68149d9b76cd63eda8fd2829501210395da4904da002f7c5923ea58a523aa89c9f64316b342b5a01d46390428181c0d"
          },
          "sequence": 4294967295
        }
      ],
      "vout": [
        {
          "value": 10.51276192,
          "n": 0,
          "scriptPubKey": {
            "asm": "OP_DUP OP_HASH160 e94535c330f06d43380fd624acc30df4bb84b2f5 OP_EQUALVERIFY OP_CHECKSIG",
            "hex": "76a914e94535c330f06d43380fd624acc30df4bb84b2f588ac",
            "reqSigs": 1,
            "type": "pubkeyhash",
            "addresses": [
              "LgVNchro4pM3T8UHGVsm74oXS68sraNHUa"
            ]
          }
        }, 
        {
          "value": 3.33088200,
          "n": 1,
          "scriptPubKey": {
            "asm": "OP_DUP OP_HASH160 e847b59f03a54e0ac4bc72c8f06a0d8d9fa29e26 OP_EQUALVERIFY OP_CHECKSIG",
            "hex": "76a914e847b59f03a54e0ac4bc72c8f06a0d8d9fa29e2688ac",
            "reqSigs": 1,
            "type": "pubkeyhash",
            "addresses": [
              "LgQ8wBHVjf5NT9K8S4V34HTFDuL85jtA7v"
            ]
          }
        }
      ],
      "hex": "0100000001c3e57203fe655ef86dc011cea2c435980a08a02dc2a8949e935910a25bbab581000000006b48304502210085142b2c9d88824f7409e4adbc497d3783f7a987a478447649a2dc53accd0fd202200182163449e002ea20ff7818ef6531d045697ff68149d9b76cd63eda8fd2829501210395da4904da002f7c5923ea58a523aa89c9f64316b342b5a01d46390428181c0dffffffff02a033a93e000000001976a914e94535c330f06d43380fd624acc30df4bb84b2f588acc885da13000000001976a914e847b59f03a54e0ac4bc72c8f06a0d8d9fa29e2688ac00000000"
    }
  ],
  "time": 1517329761,
  "mediantime": 1517328960,
  "nonce": 1450362263,
  "bits": "1a042eae",
  "difficulty": 4011378.762614286,
  "chainwork": "00000000000000000000000000000000000000000000003450e11fd2fa45d638",
  "previousblockhash": "98e740aea7d9601c90e922046604e1a0b33ac41aa60b19491709378bb8e53883",
  "nextblockhash": "02b58f184f26a7d661133b95681f85fd9dc11e6633c239252f94e64697f08cda"
}
