{
  "hash": "b1b8387eb6a20911107203ce17bdfaed8f094dca6585f11953d1f12bb03ee7bf",
  "confirmations": 3761,
  "strippedsize": 254,
  "size": 254,
  "weight": 1016,
  "height": 1357234,
  "version": 536870912,
  "versionHex": "20000000",
  "merkleroot": "3ae0eaf6ec53c20a1e64af4938a3d19c2b0455716c7e1544ea9be5398c6d9ece",
  "tx": [
    {
      "txid": "3ae0eaf6ec53c20a1e64af4938a3d19c2b0455716c7e1544ea9be5398c6d9ece",
      "hash": "3ae0eaf6ec53c20a1e64af4938a3d19c2b0455716c7e1544ea9be5398c6d9ece",
      "version": 1,
      "size": 173,
      "vsize": 173,
      "locktime": 0,
      "vin": [
        {
          "coinbase": "03b2b5141b4d696e656420627920416e74506f6f6c20626a312045205a6b3636fabe6d6d2dde7bf8911ba6fc1327bb975041e0244ad8c8478a45e2e429514d0b37842f4f0400000000000000763800000000000003000000",
          "sequence": 4294967295
        }
      ],
      "vout": [
        {
          "value": 25.00000000,
          "n": 0,
          "scriptPubKey": {
            "asm": "OP_DUP OP_HASH160 0ff3ccc5e8be88afe24b5d634e5852d474dbdff1 OP_EQUALVERIFY OP_CHECKSIG",
            "hex": "76a9140ff3ccc5e8be88afe24b5d634e5852d474dbdff188ac",
            "reqSigs": 1,
            "type": "pubkeyhash",
            "addresses": [
              "LLgJTbzZMsRTCUF1NtvvL9SR1a4pVieW89"
            ]
          }
        }
      ],
      "hex": "01000000010000000000000000000000000000000000000000000000000000000000000000ffffffff5803b2b5141b4d696e656420627920416e74506f6f6c20626a312045205a6b3636fabe6d6d2dde7bf8911ba6fc1327bb975041e0244ad8c8478a45e2e429514d0b37842f4f0400000000000000763800000000000003000000ffffffff0100f90295000000001976a9140ff3ccc5e8be88afe24b5d634e5852d474dbdff188ac00000000"
    }
  ],
  "time": 1516975670,
  "mediantime": 1516975291,
  "nonce": 3075074626,
  "bits": "1a047f14",
  "difficulty": 3731199.183374282,
  "chainwork": "0000000000000000000000000000000000000000000000320c26761fce187b2e",
  "previousblockhash": "cdae519cc7e8ae83d356cee142d9f4137637494aa2b749220ba3e1ffb4ecc949",
  "nextblockhash": "a21d309c02936bf033c3a3a6c87f92db63adb64b5b08820f2c0dbf6134f62e93"
}
