{
  "hash": "b2c9d743eb9a4fe282a4dfc654ada667e7d2f52943bb56023669bde161ac392c",
  "confirmations": 977,
  "strippedsize": 4760,
  "size": 4905,
  "weight": 19185,
  "height": 1360017,
  "version": 536870912,
  "versionHex": "20000000",
  "merkleroot": "b4ae2f79148b322d3f280f5e8989d4dfefcee281b04c6848b4efd3d85d523dd1",
  "tx": [
    {
      "txid": "2f7aa31211353aad1fc2d6f4593a6b112ffb30bb0847f3bdd6ce3be6be8e0af9",
      "hash": "71cb0ac02b6bc99853862f5a0330dc5245f1d9e90c37e8ad123d40d48d1f511d",
      "version": 1,
      "size": 244,
      "vsize": 217,
      "locktime": 0,
      "vin": [
        {
          "coinbase": "0391c01404f51f715a08030b52e910000000fabe6d6dc3150407e93fecd7efcaa30c2eb8f34d8db45c1496a273f08f248181e06143cf40000000000000000d2f6e6f64655374726174756d2f",
          "sequence": 0
        }
      ],
      "vout": [
        {
          "value": 25.02207333,
          "n": 0,
          "scriptPubKey": {
            "asm": "OP_DUP OP_HASH160 0c617fdb2ea42aed30a509595ee21ba3f6688db0 OP_EQUALVERIFY OP_CHECKSIG",
            "hex": "76a9140c617fdb2ea42aed30a509595ee21ba3f6688db088ac",
            "reqSigs": 1,
            "type": "pubkeyhash",
            "addresses": [
              "LLMRAtr3qBje2ySEa3CnZ55LA4TQMWnRY3"
            ]
          }
        }, 
        {
          "value": 0.00000000,
          "n": 1,
          "scriptPubKey": {
            "asm": "OP_RETURN aa21a9edc3aba549596238d02136d97552f019b84c63bcaafa84b38e4ef0c93b46b10642",
            "hex": "6a24aa21a9edc3aba549596238d02136d97552f019b84c63bcaafa84b38e4ef0c93b46b10642",
            "type": "nulldata"
          }
        }
      ],
      "hex": "010000000001010000000000000000000000000000000000000000000000000000000000000000ffffffff4c0391c01404f51f715a08030b52e910000000fabe6d6dc3150407e93fecd7efcaa30c2eb8f34d8db45c1496a273f08f248181e06143cf40000000000000000d2f6e6f64655374726174756d2f000000000265a72495000000001976a9140c617fdb2ea42aed30a509595ee21ba3f6688db088ac0000000000000000266a24aa21a9edc3aba549596238d02136d97552f019b84c63bcaafa84b38e4ef0c93b46b106420120000000000000000000000000000000000000000000000000000000000000000000000000"
    }, 
    {
      "txid": "22fe5b91c64699b049085fec1be79312aed79cbca6adb578482b23198175e9e3",
      "hash": "22fe5b91c64699b049085fec1be79312aed79cbca6adb578482b23198175e9e3",
      "version": 1,
      "size": 372,
      "vsize": 372,
      "locktime": 0,
      "vin": [
        {
          "txid": "e240a843830d4b086d4912049acf2b38a4ff9462d5ed508f3b5bff27040adec0",
          "vout": 5,
          "scriptSig": {
            "asm": "0 3045022100e9b094388ea336982ff17577ba1a6f4d30b79cd15f3024ac6799e51c4ec94e0702205582b79fba85a909832474157cb3e23b9d13617f39790e39a00a8712f1e6ca72[ALL] 3044022076c846ccac9ed2d4199a6089a7a5dd904af7d1bb5caccfafd3d2ddbf56e921ba0220050d4defcb1029b3293610fce657be366f4afee8a34e50234a643e53a57f9029[ALL] 52210385dc31e487e3eca24cdff240808c4e18f9bdb315682365d2709cb577866fd8552102463bbe49a8fb570b7c9feeb8f4df57deb03f537b048f8f145a4afbdb7076a20a210307c21814de20e58682cf8995046708c5081abd90d0de5aed3b94bf43638d64f253ae",
            "hex": "00483045022100e9b094388ea336982ff17577ba1a6f4d30b79cd15f3024ac6799e51c4ec94e0702205582b79fba85a909832474157cb3e23b9d13617f39790e39a00a8712f1e6ca7201473044022076c846ccac9ed2d4199a6089a7a5dd904af7d1bb5caccfafd3d2ddbf56e921ba0220050d4defcb1029b3293610fce657be366f4afee8a34e50234a643e53a57f9029014c6952210385dc31e487e3eca24cdff240808c4e18f9bdb315682365d2709cb577866fd8552102463bbe49a8fb570b7c9feeb8f4df57deb03f537b048f8f145a4afbdb7076a20a210307c21814de20e58682cf8995046708c5081abd90d0de5aed3b94bf43638d64f253ae"
          },
          "sequence": 4294967295
        }
      ],
      "vout": [
        {
          "value": 0.33474930,
          "n": 0,
          "scriptPubKey": {
            "asm": "OP_HASH160 8b4c5b24943c624ddfeab02cdf4766d4935fc408 OP_EQUAL",
            "hex": "a9148b4c5b24943c624ddfeab02cdf4766d4935fc40887",
            "reqSigs": 1,
            "type": "scripthash",
            "addresses": [
              "MLbhdQQZqnTbvSr2YQDtZFS1JNTJpcbPfU"
            ]
          }
        }, 
        {
          "value": 0.12337070,
          "n": 1,
          "scriptPubKey": {
            "asm": "OP_DUP OP_HASH160 eaffd278e78356f770b920b0e0cb173888bf9361 OP_EQUALVERIFY OP_CHECKSIG",
            "hex": "76a914eaffd278e78356f770b920b0e0cb173888bf936188ac",
            "reqSigs": 1,
            "type": "pubkeyhash",
            "addresses": [
              "LgeWqwGRy5c3SNKNTfGayc66kbU5EWK8jL"
            ]
          }
        }
      ],
      "hex": "0100000001c0de0a0427ff5b3b8f50edd56294ffa4382bcf9a0412496d084b0d8343a840e205000000fdfd0000483045022100e9b094388ea336982ff17577ba1a6f4d30b79cd15f3024ac6799e51c4ec94e0702205582b79fba85a909832474157cb3e23b9d13617f39790e39a00a8712f1e6ca7201473044022076c846ccac9ed2d4199a6089a7a5dd904af7d1bb5caccfafd3d2ddbf56e921ba0220050d4defcb1029b3293610fce657be366f4afee8a34e50234a643e53a57f9029014c6952210385dc31e487e3eca24cdff240808c4e18f9bdb315682365d2709cb577866fd8552102463bbe49a8fb570b7c9feeb8f4df57deb03f537b048f8f145a4afbdb7076a20a210307c21814de20e58682cf8995046708c5081abd90d0de5aed3b94bf43638d64f253aeffffffff0272c9fe010000000017a9148b4c5b24943c624ddfeab02cdf4766d4935fc40887ae3fbc00000000001976a914eaffd278e78356f770b920b0e0cb173888bf936188ac00000000"
    }, 
    {
      "txid": "68a4e94cca5c2de8659b17fbd3e38d3c1a8b650736169b2745cc0ac84d74917b",
      "hash": "68a4e94cca5c2de8659b17fbd3e38d3c1a8b650736169b2745cc0ac84d74917b",
      "version": 1,
      "size": 192,
      "vsize": 192,
      "locktime": 0,
      "vin": [
        {
          "txid": "2e00d0bfa45593b0fe55b458019a1e8e1b1d08c78a86ece65d4337ba83600dab",
          "vout": 5,
          "scriptSig": {
            "asm": "3045022100a93c870670fa9b949705fe8e9e236f81b40d275ef5ab5fea4ac3e485b3d5573302200e43c7e54bd18cbc9ee526dcdf67281cb57f9622b2ef722809dff70689b82aaf[ALL] 039308baf0eff3f246ef062ded193bd97197ba48d5e3f688178c61dba70d2f0879",
            "hex": "483045022100a93c870670fa9b949705fe8e9e236f81b40d275ef5ab5fea4ac3e485b3d5573302200e43c7e54bd18cbc9ee526dcdf67281cb57f9622b2ef722809dff70689b82aaf0121039308baf0eff3f246ef062ded193bd97197ba48d5e3f688178c61dba70d2f0879"
          },
          "sequence": 4294967295
        }
      ],
      "vout": [
        {
          "value": 3.19468503,
          "n": 0,
          "scriptPubKey": {
            "asm": "OP_DUP OP_HASH160 242af99a3c0d8f803c93d3d533f76936e15f3329 OP_EQUALVERIFY OP_CHECKSIG",
            "hex": "76a914242af99a3c0d8f803c93d3d533f76936e15f332988ac",
            "reqSigs": 1,
            "type": "pubkeyhash",
            "addresses": [
              "LNXC55JK5cgJiZZqXxu44h2duzgiS3W3Fx"
            ]
          }
        }
      ],
      "hex": "0100000001ab0d6083ba37435de6ec868ac7081d1b8e1e9a0158b455feb09355a4bfd0002e050000006b483045022100a93c870670fa9b949705fe8e9e236f81b40d275ef5ab5fea4ac3e485b3d5573302200e43c7e54bd18cbc9ee526dcdf67281cb57f9622b2ef722809dff70689b82aaf0121039308baf0eff3f246ef062ded193bd97197ba48d5e3f688178c61dba70d2f0879ffffffff01d7b30a13000000001976a914242af99a3c0d8f803c93d3d533f76936e15f332988ac00000000"
    }, 
    {
      "txid": "60f0f87f0fdb918c0502b4e852d794ab2b60f9ae27dba93a45bcebbfe7ec57f4",
      "hash": "60f0f87f0fdb918c0502b4e852d794ab2b60f9ae27dba93a45bcebbfe7ec57f4",
      "version": 1,
      "size": 226,
      "vsize": 226,
      "locktime": 0,
      "vin": [
        {
          "txid": "501c985a4931d52ad0d7c6888c97c0736394af9c93e8fb4659e3974502700a62",
          "vout": 1,
          "scriptSig": {
            "asm": "3045022100961973084beae31ddbe2fcfb3a438bbd31534b949c7fdda9ce16e33a9ede3b4a022061f009a72a8e17a25270a961ef441f7d6890d81e85b79874d20e7b4b36c0e5be[ALL] 03de00cd34a2c87b863ba81464644121be3356f6ff9a9ca06b8b0e18d28dfa4bfc",
            "hex": "483045022100961973084beae31ddbe2fcfb3a438bbd31534b949c7fdda9ce16e33a9ede3b4a022061f009a72a8e17a25270a961ef441f7d6890d81e85b79874d20e7b4b36c0e5be012103de00cd34a2c87b863ba81464644121be3356f6ff9a9ca06b8b0e18d28dfa4bfc"
          },
          "sequence": 4294967295
        }
      ],
      "vout": [
        {
          "value": 9.05063300,
          "n": 0,
          "scriptPubKey": {
            "asm": "OP_DUP OP_HASH160 5a4d12bfa0a3d0cce70bdf2bb202980cf4c2f3e9 OP_EQUALVERIFY OP_CHECKSIG",
            "hex": "76a9145a4d12bfa0a3d0cce70bdf2bb202980cf4c2f3e988ac",
            "reqSigs": 1,
            "type": "pubkeyhash",
            "addresses": [
              "LTTRQcvHcXMnTjs78TwmcsN6xaSebmi2VJ"
            ]
          }
        }, 
        {
          "value": 164.36751828,
          "n": 1,
          "scriptPubKey": {
            "asm": "OP_DUP OP_HASH160 7c79143c0fb3a71bffbe11719d3496125807fc75 OP_EQUALVERIFY OP_CHECKSIG",
            "hex": "76a9147c79143c0fb3a71bffbe11719d3496125807fc7588ac",
            "reqSigs": 1,
            "type": "pubkeyhash",
            "addresses": [
              "LWa76ift3mbJakA1TgxAxG5dGfvrFmXBb6"
            ]
          }
        }
      ],
      "hex": "0100000001620a70024597e35946fbe8939caf946373c0978c88c6d7d02ad531495a981c50010000006b483045022100961973084beae31ddbe2fcfb3a438bbd31534b949c7fdda9ce16e33a9ede3b4a022061f009a72a8e17a25270a961ef441f7d6890d81e85b79874d20e7b4b36c0e5be012103de00cd34a2c87b863ba81464644121be3356f6ff9a9ca06b8b0e18d28dfa4bfcffffffff02842bf235000000001976a9145a4d12bfa0a3d0cce70bdf2bb202980cf4c2f3e988acd4edb4d3030000001976a9147c79143c0fb3a71bffbe11719d3496125807fc7588ac00000000"
    }, 
    {
      "txid": "b2e78b90e5a6c265266f0a0599639d799886057c7044629fa941aaea853edeae",
      "hash": "b2e78b90e5a6c265266f0a0599639d799886057c7044629fa941aaea853edeae",
      "version": 1,
      "size": 226,
      "vsize": 226,
      "locktime": 0,
      "vin": [
        {
          "txid": "60f0f87f0fdb918c0502b4e852d794ab2b60f9ae27dba93a45bcebbfe7ec57f4",
          "vout": 1,
          "scriptSig": {
            "asm": "3045022100edbf94502a7fbe5383e55d7775e2d0070ea030c7a23679495d1719edb655a5d202203f3b4e5eaa96d9df84ac80dc01440b6344513bfd31a6af8febc8f16f0e98238a[ALL] 03d22427f04f06ad9faf012e83010fef2c97e1083d53af33eff4eaee1007821269",
            "hex": "483045022100edbf94502a7fbe5383e55d7775e2d0070ea030c7a23679495d1719edb655a5d202203f3b4e5eaa96d9df84ac80dc01440b6344513bfd31a6af8febc8f16f0e98238a012103d22427f04f06ad9faf012e83010fef2c97e1083d53af33eff4eaee1007821269"
          },
          "sequence": 4294967295
        }
      ],
      "vout": [
        {
          "value": 0.88810100,
          "n": 0,
          "scriptPubKey": {
            "asm": "OP_DUP OP_HASH160 a913dc5c6e7eacf151627f296129924428b2ab82 OP_EQUALVERIFY OP_CHECKSIG",
            "hex": "76a914a913dc5c6e7eacf151627f296129924428b2ab8288ac",
            "reqSigs": 1,
            "type": "pubkeyhash",
            "addresses": [
              "LadxFapYaBQFxt4Q9TPSDP63df72c8sapt"
            ]
          }
        }, 
        {
          "value": 163.47727028,
          "n": 1,
          "scriptPubKey": {
            "asm": "OP_DUP OP_HASH160 514b7b1201d9bd5b7c337593420c5b44202ec1fa OP_EQUALVERIFY OP_CHECKSIG",
            "hex": "76a914514b7b1201d9bd5b7c337593420c5b44202ec1fa88ac",
            "reqSigs": 1,
            "type": "pubkeyhash",
            "addresses": [
              "LSdoRFBNXbQe4M9DG9gqgDAaWZxZ99GWTd"
            ]
          }
        }
      ],
      "hex": "0100000001f457ece7bfebbc453aa9db27aef9602bab94d752e8b402058c91db0f7ff8f060010000006b483045022100edbf94502a7fbe5383e55d7775e2d0070ea030c7a23679495d1719edb655a5d202203f3b4e5eaa96d9df84ac80dc01440b6344513bfd31a6af8febc8f16f0e98238a012103d22427f04f06ad9faf012e83010fef2c97e1083d53af33eff4eaee1007821269ffffffff0274224b05000000001976a914a913dc5c6e7eacf151627f296129924428b2ab8288acb48466ce030000001976a914514b7b1201d9bd5b7c337593420c5b44202ec1fa88ac00000000"
    }, 
    {
      "txid": "19ef5a38dd460f55e66beb4057bb7b2d33622a0203f50d761485e78a33c73902",
      "hash": "19ef5a38dd460f55e66beb4057bb7b2d33622a0203f50d761485e78a33c73902",
      "version": 1,
      "size": 192,
      "vsize": 192,
      "locktime": 0,
      "vin": [
        {
          "txid": "dfa6156a7f45205ebca12c7fe20bef9ed6f97c7622b75cb2cc9895d690e4166e",
          "vout": 0,
          "scriptSig": {
            "asm": "3045022100ee0268ec1e63801f510948f5f7cee655a765bd80f18216fe30aab02a65746bfa0220107ec662ac30f07ef4d94cb47b050a21db8c1c190c858984a1dd168502b261b4[ALL] 02a194f29e79bae06c4235234e2ad6476bae5ca98539582ddcf1a949571d6f9d4a",
            "hex": "483045022100ee0268ec1e63801f510948f5f7cee655a765bd80f18216fe30aab02a65746bfa0220107ec662ac30f07ef4d94cb47b050a21db8c1c190c858984a1dd168502b261b4012102a194f29e79bae06c4235234e2ad6476bae5ca98539582ddcf1a949571d6f9d4a"
          },
          "sequence": 4294967295
        }
      ],
      "vout": [
        {
          "value": 4.17699484,
          "n": 0,
          "scriptPubKey": {
            "asm": "OP_DUP OP_HASH160 80900676ce8de023d78eda290c661a03a446e4ee OP_EQUALVERIFY OP_CHECKSIG",
            "hex": "76a91480900676ce8de023d78eda290c661a03a446e4ee88ac",
            "reqSigs": 1,
            "type": "pubkeyhash",
            "addresses": [
              "LWwjHpM6nfvazenp3tumb2oxC1HuQKPLPA"
            ]
          }
        }
      ],
      "hex": "01000000016e16e490d69598ccb25cb722767cf9d69eef0be27f2ca1bc5e20457f6a15a6df000000006b483045022100ee0268ec1e63801f510948f5f7cee655a765bd80f18216fe30aab02a65746bfa0220107ec662ac30f07ef4d94cb47b050a21db8c1c190c858984a1dd168502b261b4012102a194f29e79bae06c4235234e2ad6476bae5ca98539582ddcf1a949571d6f9d4affffffff019c96e518000000001976a91480900676ce8de023d78eda290c661a03a446e4ee88ac00000000"
    }, 
    {
      "txid": "385434c3bd35513c3679cb1541a4750c90b82a4d5a912fe29e6115efb1478651",
      "hash": "385434c3bd35513c3679cb1541a4750c90b82a4d5a912fe29e6115efb1478651",
      "version": 1,
      "size": 225,
      "vsize": 225,
      "locktime": 0,
      "vin": [
        {
          "txid": "53831478166e81238d834ada1cdb4edeebb1b78bc11e79ffbfa997a9aa98469e",
          "vout": 0,
          "scriptSig": {
            "asm": "304402207f29188b448495bfa089eda9b0f2e56974d9a587390df2fe74960a6a223a73cc022073b75e0c14ae7b626be729f736dcec8339b2ea4750843cf99ba5c971c184731c[ALL] 0266b7dec315efcbd168c9426f195934e1dc97e4475295f2fc95c5b6b2c1ebb4f2",
            "hex": "47304402207f29188b448495bfa089eda9b0f2e56974d9a587390df2fe74960a6a223a73cc022073b75e0c14ae7b626be729f736dcec8339b2ea4750843cf99ba5c971c184731c01210266b7dec315efcbd168c9426f195934e1dc97e4475295f2fc95c5b6b2c1ebb4f2"
          },
          "sequence": 4294967294
        }
      ],
      "vout": [
        {
          "value": 1.00000000,
          "n": 0,
          "scriptPubKey": {
            "asm": "OP_DUP OP_HASH160 83830dbcd8b112269c4244ffe0908efbfd8f457e OP_EQUALVERIFY OP_CHECKSIG",
            "hex": "76a91483830dbcd8b112269c4244ffe0908efbfd8f457e88ac",
            "reqSigs": 1,
            "type": "pubkeyhash",
            "addresses": [
              "LXDKn7PQZwcPqSWzZi1cPx77MoV3eSnF27"
            ]
          }
        }, 
        {
          "value": 9.33729800,
          "n": 1,
          "scriptPubKey": {
            "asm": "OP_DUP OP_HASH160 81d047f3726111d3747d4809c3793f14623f2b4f OP_EQUALVERIFY OP_CHECKSIG",
            "hex": "76a91481d047f3726111d3747d4809c3793f14623f2b4f88ac",
            "reqSigs": 1,
            "type": "pubkeyhash",
            "addresses": [
              "LX4Lwae1RoXv17kzSW3tYn2u4SfAjHeLKz"
            ]
          }
        }
      ],
      "hex": "01000000019e4698aaa997a9bfff791ec18bb7b1ebde4edb1cda4a838d23816e1678148353000000006a47304402207f29188b448495bfa089eda9b0f2e56974d9a587390df2fe74960a6a223a73cc022073b75e0c14ae7b626be729f736dcec8339b2ea4750843cf99ba5c971c184731c01210266b7dec315efcbd168c9426f195934e1dc97e4475295f2fc95c5b6b2c1ebb4f2feffffff0200e1f505000000001976a91483830dbcd8b112269c4244ffe0908efbfd8f457e88ac0896a737000000001976a91481d047f3726111d3747d4809c3793f14623f2b4f88ac00000000"
    }, 
    {
      "txid": "e68cb6276a7a0ac56029a1977020d9187037ddd6aa53d0714c46a9be12557585",
      "hash": "e68cb6276a7a0ac56029a1977020d9187037ddd6aa53d0714c46a9be12557585",
      "version": 2,
      "size": 226,
      "vsize": 226,
      "locktime": 0,
      "vin": [
        {
          "txid": "e83c3d21220ffa494b7fd53bf663dfaab25d51741adb7306e2bf8d36b0ecaa42",
          "vout": 1,
          "scriptSig": {
            "asm": "3045022100ecf8717abd8d5cb00bb3f99557cb350bd77554181ea5340956ff03481762b52802206340f7c34ce5281ced7e0e097b3701d1ee7dd2d4c7a4542fe9224573b0bfe588[ALL] 03297e5e9c04d71b001f592f63d816f631dea309aee03f973d5f418354ec12ad39",
            "hex": "483045022100ecf8717abd8d5cb00bb3f99557cb350bd77554181ea5340956ff03481762b52802206340f7c34ce5281ced7e0e097b3701d1ee7dd2d4c7a4542fe9224573b0bfe588012103297e5e9c04d71b001f592f63d816f631dea309aee03f973d5f418354ec12ad39"
          },
          "sequence": 4294967295
        }
      ],
      "vout": [
        {
          "value": 0.02915309,
          "n": 0,
          "scriptPubKey": {
            "asm": "OP_DUP OP_HASH160 777bf18ed506ecfe187e4c558ac50a6889ac4cc3 OP_EQUALVERIFY OP_CHECKSIG",
            "hex": "76a914777bf18ed506ecfe187e4c558ac50a6889ac4cc388ac",
            "reqSigs": 1,
            "type": "pubkeyhash",
            "addresses": [
              "LW7j9nu1wbncqXzZ9fBiiQEAdqQ2Q5taZS"
            ]
          }
        }, 
        {
          "value": 0.05100030,
          "n": 1,
          "scriptPubKey": {
            "asm": "OP_DUP OP_HASH160 d69920fe59726a272dea97e8efc7487e97403907 OP_EQUALVERIFY OP_CHECKSIG",
            "hex": "76a914d69920fe59726a272dea97e8efc7487e9740390788ac",
            "reqSigs": 1,
            "type": "pubkeyhash",
            "addresses": [
              "LeneJr1scZNoMjMjsjPRpPbs6Z63yptLvy"
            ]
          }
        }
      ],
      "hex": "020000000142aaecb0368dbfe20673db1a74515db2aadf63f63bd57f4b49fa0f22213d3ce8010000006b483045022100ecf8717abd8d5cb00bb3f99557cb350bd77554181ea5340956ff03481762b52802206340f7c34ce5281ced7e0e097b3701d1ee7dd2d4c7a4542fe9224573b0bfe588012103297e5e9c04d71b001f592f63d816f631dea309aee03f973d5f418354ec12ad39ffffffff02ed7b2c00000000001976a914777bf18ed506ecfe187e4c558ac50a6889ac4cc388acfed14d00000000001976a914d69920fe59726a272dea97e8efc7487e9740390788ac00000000"
    }, 
    {
      "txid": "6e7eda315c22a5e335c6613b90cdcb38dd479032383eef8c11449b82abd7398c",
      "hash": "ba729924cecf0f166d8f70f43fcab5d5108add04844ffc18475e01654895390d",
      "version": 1,
      "size": 225,
      "vsize": 144,
      "locktime": 1360015,
      "vin": [
        {
          "txid": "ff808773fe7c9968c2c7b46a5867abd1cb6bd99e8880b08c622411407b00c522",
          "vout": 0,
          "scriptSig": {
            "asm": "",
            "hex": ""
          },
          "txinwitness": [
            "304402202ae3686c1ed7ed1a6d9bf6a0d27606e893f8d83054b94b19358558a8dfcea45b02201a9f8894e95692fd2a38d0d7b4ebf7eb5ba4d6c325edd1448793a383445d65c801", 
            "02c3b160b82c83b358357c1500884f11cd1df32f69b23d8a3c3c9ea4d57d3688c4"
          ],
          "sequence": 4294967294
        }
      ],
      "vout": [
        {
          "value": 0.34721700,
          "n": 0,
          "scriptPubKey": {
            "asm": "0 6cf8cc3806424afa346502b5f5bf8a0a1495d847",
            "hex": "00146cf8cc3806424afa346502b5f5bf8a0a1495d847",
            "type": "witness_v0_keyhash"
          }
        }, 
        {
          "value": 0.42649000,
          "n": 1,
          "scriptPubKey": {
            "asm": "OP_DUP OP_HASH160 4d2d57cbf0f3ca37ac63a29b57fafbb5d3115b4f OP_EQUALVERIFY OP_CHECKSIG",
            "hex": "76a9144d2d57cbf0f3ca37ac63a29b57fafbb5d3115b4f88ac",
            "reqSigs": 1,
            "type": "pubkeyhash",
            "addresses": [
              "LSG2cU5kQcQJ4meoNFUKHLpkDH8RoWFTjg"
            ]
          }
        }
      ],
      "hex": "0100000000010122c5007b401124628cb080889ed96bcbd1ab67586ab4c7c268997cfe738780ff0000000000feffffff02a4cf1102000000001600146cf8cc3806424afa346502b5f5bf8a0a1495d847a8c58a02000000001976a9144d2d57cbf0f3ca37ac63a29b57fafbb5d3115b4f88ac0247304402202ae3686c1ed7ed1a6d9bf6a0d27606e893f8d83054b94b19358558a8dfcea45b02201a9f8894e95692fd2a38d0d7b4ebf7eb5ba4d6c325edd1448793a383445d65c8012102c3b160b82c83b358357c1500884f11cd1df32f69b23d8a3c3c9ea4d57d3688c48fc01400"
    }, 
    {
      "txid": "5937f04bea29f4e70d052128816cd84dd850c51a8a80f76af7535826652d6efd",
      "hash": "5937f04bea29f4e70d052128816cd84dd850c51a8a80f76af7535826652d6efd",
      "version": 2,
      "size": 225,
      "vsize": 225,
      "locktime": 1360015,
      "vin": [
        {
          "txid": "ab9b937fc2edcc1a5e41bc20ba55715390cc78a2beab3189032c1c1a26d68e9f",
          "vout": 0,
          "scriptSig": {
            "asm": "3044022005ace53410e57940380ecc3b3d1a320f0d3a27bba32c9758579a8c16c5fbf2e9022016f261cc34ca25b46ab0d0b352f23c5f638fd695a67cd4146a1d4370bb0cc3e0[ALL] 02fb7bbaf76911eddd442e4eea4c24193e432432c013be1fe439198f5e28b6bab8",
            "hex": "473044022005ace53410e57940380ecc3b3d1a320f0d3a27bba32c9758579a8c16c5fbf2e9022016f261cc34ca25b46ab0d0b352f23c5f638fd695a67cd4146a1d4370bb0cc3e0012102fb7bbaf76911eddd442e4eea4c24193e432432c013be1fe439198f5e28b6bab8"
          },
          "sequence": 4294967294
        }
      ],
      "vout": [
        {
          "value": 0.57039444,
          "n": 0,
          "scriptPubKey": {
            "asm": "OP_DUP OP_HASH160 028d0d41cd9519b5aba7f2f2b40f093bc7f8b2ba OP_EQUALVERIFY OP_CHECKSIG",
            "hex": "76a914028d0d41cd9519b5aba7f2f2b40f093bc7f8b2ba88ac",
            "reqSigs": 1,
            "type": "pubkeyhash",
            "addresses": [
              "LKTSb3ena4tgsnUt8RHYpF8wLVN5R7tzkb"
            ]
          }
        }, 
        {
          "value": 0.28986371,
          "n": 1,
          "scriptPubKey": {
            "asm": "OP_DUP OP_HASH160 9abab35fd366940dcc750da2403a104780c5f302 OP_EQUALVERIFY OP_CHECKSIG",
            "hex": "76a9149abab35fd366940dcc750da2403a104780c5f30288ac",
            "reqSigs": 1,
            "type": "pubkeyhash",
            "addresses": [
              "LZL5ywoLpmMy5YvW2ss928jJnHxrfMfPt3"
            ]
          }
        }
      ],
      "hex": "02000000019f8ed6261a1c2c038931abbea278cc90537155ba20bc415e1accedc27f939bab000000006a473044022005ace53410e57940380ecc3b3d1a320f0d3a27bba32c9758579a8c16c5fbf2e9022016f261cc34ca25b46ab0d0b352f23c5f638fd695a67cd4146a1d4370bb0cc3e0012102fb7bbaf76911eddd442e4eea4c24193e432432c013be1fe439198f5e28b6bab8feffffff02545a6603000000001976a914028d0d41cd9519b5aba7f2f2b40f093bc7f8b2ba88ac034cba01000000001976a9149abab35fd366940dcc750da2403a104780c5f30288ac8fc01400"
    }, 
    {
      "txid": "a06ef6e605f9688e0a84638d8e96cc5e2e7ce7e8d9c4110e89fcf6f8790146e1",
      "hash": "a06ef6e605f9688e0a84638d8e96cc5e2e7ce7e8d9c4110e89fcf6f8790146e1",
      "version": 1,
      "size": 223,
      "vsize": 223,
      "locktime": 0,
      "vin": [
        {
          "txid": "833b31cd6caf83efa7d3501ca22b40ceb4e426f4b76c677d84208272ae0975b5",
          "vout": 32,
          "scriptSig": {
            "asm": "304402206faaf5a5db0637e68e8116b70ed4fe4b09b692a00bfcccce78874e903273a9ee02201d8994fdbe6cfb37e6a83e72b92b26d1f4a878da30367d240454c6acd04f69c0[ALL] 0289b66d0fb4efab9182351716a4ffe5fb4a9a462398c3b9cf2dff0977b7e9066a",
            "hex": "47304402206faaf5a5db0637e68e8116b70ed4fe4b09b692a00bfcccce78874e903273a9ee02201d8994fdbe6cfb37e6a83e72b92b26d1f4a878da30367d240454c6acd04f69c001210289b66d0fb4efab9182351716a4ffe5fb4a9a462398c3b9cf2dff0977b7e9066a"
          },
          "sequence": 4294967295
        }
      ],
      "vout": [
        {
          "value": 6.09937000,
          "n": 0,
          "scriptPubKey": {
            "asm": "OP_HASH160 2686a2e2bcb8e89407cc975d747247ec4fa5322f OP_EQUAL",
            "hex": "a9142686a2e2bcb8e89407cc975d747247ec4fa5322f87",
            "reqSigs": 1,
            "type": "scripthash",
            "addresses": [
              "MBQsCQr1dY3K7we7e8EfkiBhv2vAeE9gMx"
            ]
          }
        }, 
        {
          "value": 0.08174717,
          "n": 1,
          "scriptPubKey": {
            "asm": "OP_DUP OP_HASH160 1c42780508ec5751a92d60cdb309ec0e21941395 OP_EQUALVERIFY OP_CHECKSIG",
            "hex": "76a9141c42780508ec5751a92d60cdb309ec0e2194139588ac",
            "reqSigs": 1,
            "type": "pubkeyhash",
            "addresses": [
              "LMoNovGqZFMNwGapqyjPcGFxAcM47vgVgK"
            ]
          }
        }
      ],
      "hex": "0100000001b57509ae728220847d676cb7f426e4b4ce402ba21c50d3a7ef83af6ccd313b83200000006a47304402206faaf5a5db0637e68e8116b70ed4fe4b09b692a00bfcccce78874e903273a9ee02201d8994fdbe6cfb37e6a83e72b92b26d1f4a878da30367d240454c6acd04f69c001210289b66d0fb4efab9182351716a4ffe5fb4a9a462398c3b9cf2dff0977b7e9066affffffff0268e65a240000000017a9142686a2e2bcb8e89407cc975d747247ec4fa5322f877dbc7c00000000001976a9141c42780508ec5751a92d60cdb309ec0e2194139588ac00000000"
    }, 
    {
      "txid": "9d6c0806542a6537842c84b79d30ade57fc9920059b41f7956dff3cc10d7863d",
      "hash": "9d6c0806542a6537842c84b79d30ade57fc9920059b41f7956dff3cc10d7863d",
      "version": 1,
      "size": 225,
      "vsize": 225,
      "locktime": 0,
      "vin": [
        {
          "txid": "6fc25735df414c797f2664fcdfff1d0d44cbadf55ed9b141daed50def9f84a70",
          "vout": 1,
          "scriptSig": {
            "asm": "304402206aa86db46ed60ee20239bb2ddb395d557f4d22add62ed89a44d7c0bdcdba9bd602205bbb5db189ede1ff3f0ac8f47e8920ecdd83d733c362f042bff6b6cd56aad4fc[ALL] 027a27c31aa03055d41e7b0787f43f5763e9b9d7e75ecb22dd531767ab8df45eaf",
            "hex": "47304402206aa86db46ed60ee20239bb2ddb395d557f4d22add62ed89a44d7c0bdcdba9bd602205bbb5db189ede1ff3f0ac8f47e8920ecdd83d733c362f042bff6b6cd56aad4fc0121027a27c31aa03055d41e7b0787f43f5763e9b9d7e75ecb22dd531767ab8df45eaf"
          },
          "sequence": 4294967295
        }
      ],
      "vout": [
        {
          "value": 0.02606474,
          "n": 0,
          "scriptPubKey": {
            "asm": "OP_DUP OP_HASH160 76772f91330454e8940522b573bd121094401deb OP_EQUALVERIFY OP_CHECKSIG",
            "hex": "76a91476772f91330454e8940522b573bd121094401deb88ac",
            "reqSigs": 1,
            "type": "pubkeyhash",
            "addresses": [
              "LW2Ln2MhqVutvmyB79Y4PSp3vYAoqo93im"
            ]
          }
        }, 
        {
          "value": 0.25631368,
          "n": 1,
          "scriptPubKey": {
            "asm": "OP_DUP OP_HASH160 897a69620be8c8e64a8c9f39125d0b69bf236dbd OP_EQUALVERIFY OP_CHECKSIG",
            "hex": "76a914897a69620be8c8e64a8c9f39125d0b69bf236dbd88ac",
            "reqSigs": 1,
            "type": "pubkeyhash",
            "addresses": [
              "LXksUocZi2HmvRpL4ByKbd1tqGKYKVpyCy"
            ]
          }
        }
      ],
      "hex": "0100000001704af8f9de50edda41b1d95ef5adcb440d1dffdffc64267f794c41df3557c26f010000006a47304402206aa86db46ed60ee20239bb2ddb395d557f4d22add62ed89a44d7c0bdcdba9bd602205bbb5db189ede1ff3f0ac8f47e8920ecdd83d733c362f042bff6b6cd56aad4fc0121027a27c31aa03055d41e7b0787f43f5763e9b9d7e75ecb22dd531767ab8df45eafffffffff028ac52700000000001976a91476772f91330454e8940522b573bd121094401deb88ac881a8701000000001976a914897a69620be8c8e64a8c9f39125d0b69bf236dbd88ac00000000"
    }, 
    {
      "txid": "7cfdfa6df8820a583e28f0269e8fa9f37e997f5b6bd6681ed489e515924f78ac",
      "hash": "7cfdfa6df8820a583e28f0269e8fa9f37e997f5b6bd6681ed489e515924f78ac",
      "version": 1,
      "size": 225,
      "vsize": 225,
      "locktime": 0,
      "vin": [
        {
          "txid": "ea7c03ed49bf95a59498e1d68f6a9f13fe582dd655636aa12197f9147004d409",
          "vout": 0,
          "scriptSig": {
            "asm": "3044022030d48e237a2403b1afb69142652056348fa4a408988c0cfd65a9bff8ca7117ed022042547c2cfb1f7b2a07fc3c088ee96d471d717ea85718410e9050fea8adccfd59[ALL] 02c9077283269075241651b6a2dc618c38323193283148d065ba11424152c1e015",
            "hex": "473044022030d48e237a2403b1afb69142652056348fa4a408988c0cfd65a9bff8ca7117ed022042547c2cfb1f7b2a07fc3c088ee96d471d717ea85718410e9050fea8adccfd59012102c9077283269075241651b6a2dc618c38323193283148d065ba11424152c1e015"
          },
          "sequence": 4294967295
        }
      ],
      "vout": [
        {
          "value": 0.00892858,
          "n": 0,
          "scriptPubKey": {
            "asm": "OP_DUP OP_HASH160 2f65eee9f50724745be2ebfe494b38a6fc3089fd OP_EQUALVERIFY OP_CHECKSIG",
            "hex": "76a9142f65eee9f50724745be2ebfe494b38a6fc3089fd88ac",
            "reqSigs": 1,
            "type": "pubkeyhash",
            "addresses": [
              "LPYa8gA5stWYX2eDDp4VVJjxUph6DkJ3Pt"
            ]
          }
        }, 
        {
          "value": 1.00000000,
          "n": 1,
          "scriptPubKey": {
            "asm": "OP_DUP OP_HASH160 eb48d59833f15659e2a0fc99a64feb3e22e5a1e2 OP_EQUALVERIFY OP_CHECKSIG",
            "hex": "76a914eb48d59833f15659e2a0fc99a64feb3e22e5a1e288ac",
            "reqSigs": 1,
            "type": "pubkeyhash",
            "addresses": [
              "Lgg2Jutprt7EQLH1RPxfUeHd3o24M9zXMf"
            ]
          }
        }
      ],
      "hex": "010000000109d4047014f99721a16a6355d62d58fe139f6a8fd6e19894a595bf49ed037cea000000006a473044022030d48e237a2403b1afb69142652056348fa4a408988c0cfd65a9bff8ca7117ed022042547c2cfb1f7b2a07fc3c088ee96d471d717ea85718410e9050fea8adccfd59012102c9077283269075241651b6a2dc618c38323193283148d065ba11424152c1e015ffffffff02ba9f0d00000000001976a9142f65eee9f50724745be2ebfe494b38a6fc3089fd88ac00e1f505000000001976a914eb48d59833f15659e2a0fc99a64feb3e22e5a1e288ac00000000"
    }, 
    {
      "txid": "7eadd196a6bbcc244b0c039982cda785cc5422d4cf1b381e0f58528b469188e2",
      "hash": "7eadd196a6bbcc244b0c039982cda785cc5422d4cf1b381e0f58528b469188e2",
      "version": 1,
      "size": 225,
      "vsize": 225,
      "locktime": 0,
      "vin": [
        {
          "txid": "833b31cd6caf83efa7d3501ca22b40ceb4e426f4b76c677d84208272ae0975b5",
          "vout": 30,
          "scriptSig": {
            "asm": "30440220153b8bcc5751595aba4aed5b99ef738a32c29d32f43a4326735e203fd750617f0220452eca2ada246e3bd473b34cfc9a0339726bd0fa6cfb842b4cafb11cb5817b84[ALL] 02f6b4f95c6e3a47fa5902301e9934bace09ee225d0c38f93999640c9ee3bd5738",
            "hex": "4730440220153b8bcc5751595aba4aed5b99ef738a32c29d32f43a4326735e203fd750617f0220452eca2ada246e3bd473b34cfc9a0339726bd0fa6cfb842b4cafb11cb5817b84012102f6b4f95c6e3a47fa5902301e9934bace09ee225d0c38f93999640c9ee3bd5738"
          },
          "sequence": 4294967295
        }
      ],
      "vout": [
        {
          "value": 2.00000000,
          "n": 0,
          "scriptPubKey": {
            "asm": "OP_DUP OP_HASH160 16849670a36d4c9c313b14906e84f8ac3452c20f OP_EQUALVERIFY OP_CHECKSIG",
            "hex": "76a91416849670a36d4c9c313b14906e84f8ac3452c20f88ac",
            "reqSigs": 1,
            "type": "pubkeyhash",
            "addresses": [
              "LMH1xnVTxFB6GsAHen4QneBVx5Y4CF56zV"
            ]
          }
        }, 
        {
          "value": 0.56645393,
          "n": 1,
          "scriptPubKey": {
            "asm": "OP_DUP OP_HASH160 4bb0accb033236a02d7ee0bee027a4cf88b7716f OP_EQUALVERIFY OP_CHECKSIG",
            "hex": "76a9144bb0accb033236a02d7ee0bee027a4cf88b7716f88ac",
            "reqSigs": 1,
            "type": "pubkeyhash",
            "addresses": [
              "LS8AbC8BEJiHzaqksABe21JXLxVYom73Tn"
            ]
          }
        }
      ],
      "hex": "0100000001b57509ae728220847d676cb7f426e4b4ce402ba21c50d3a7ef83af6ccd313b831e0000006a4730440220153b8bcc5751595aba4aed5b99ef738a32c29d32f43a4326735e203fd750617f0220452eca2ada246e3bd473b34cfc9a0339726bd0fa6cfb842b4cafb11cb5817b84012102f6b4f95c6e3a47fa5902301e9934bace09ee225d0c38f93999640c9ee3bd5738ffffffff0200c2eb0b000000001976a91416849670a36d4c9c313b14906e84f8ac3452c20f88ac11576003000000001976a9144bb0accb033236a02d7ee0bee027a4cf88b7716f88ac00000000"
    }, 
    {
      "txid": "f9803e8ffe83fafaf47a6135bcc2dbb7953ba6c01bb82fe86a32cd21bec4a899",
      "hash": "f9803e8ffe83fafaf47a6135bcc2dbb7953ba6c01bb82fe86a32cd21bec4a899",
      "version": 2,
      "size": 521,
      "vsize": 521,
      "locktime": 1360015,
      "vin": [
        {
          "txid": "c1381354360e3cd248401b8fce94ab32882075ec09d7fa3b66ff452a8bd09773",
          "vout": 0,
          "scriptSig": {
            "asm": "3045022100be7d5ecbce3324a9b0a3ca3689c99e922f083bb0411cf1272e84da4cff634c02022026bfc01585308eb7592f7645f53bae9a7a15b55619d63ef2c21f347d89bb1e56[ALL] 0354fdf0a9be3a2a6316137253e255bf9f107bf06ffdfc149ec785b9270e9026e9",
            "hex": "483045022100be7d5ecbce3324a9b0a3ca3689c99e922f083bb0411cf1272e84da4cff634c02022026bfc01585308eb7592f7645f53bae9a7a15b55619d63ef2c21f347d89bb1e5601210354fdf0a9be3a2a6316137253e255bf9f107bf06ffdfc149ec785b9270e9026e9"
          },
          "sequence": 4294967294
        }, 
        {
          "txid": "8528868a59be2199e2e85fc15d8ac741c0a8bbdf5626dbd293581316be60e7be",
          "vout": 0,
          "scriptSig": {
            "asm": "3044022061486baad38f97040f26bf9fbdc29d164f938ae36925508f27e2735b95ffed1202201963d7a45bad6892a95eec743238ca2ae196713f7c7c3e8da632a895ca692ce9[ALL] 0218e1db56e5071f99c3d5891750c664ffc3ca34eedecfe3dace83f1d908964c3d",
            "hex": "473044022061486baad38f97040f26bf9fbdc29d164f938ae36925508f27e2735b95ffed1202201963d7a45bad6892a95eec743238ca2ae196713f7c7c3e8da632a895ca692ce901210218e1db56e5071f99c3d5891750c664ffc3ca34eedecfe3dace83f1d908964c3d"
          },
          "sequence": 4294967294
        }, 
        {
          "txid": "f42d1c3c92d42193952bd98c54e7bea190119f05ae6b50927899a62b0edf1310",
          "vout": 1,
          "scriptSig": {
            "asm": "3045022100d818e686cc3c4477998d07b91635fc9fbb24a19d16641b78184318accb66514302201cb96107e4bc494a5e410ca5d9236eaf1c03fa1c06c58520c2ae8fe63566532e[ALL] 02152ae9d0c4a36956596569616d606dde169dc8b992f39c9e0e928ae494ede5c3",
            "hex": "483045022100d818e686cc3c4477998d07b91635fc9fbb24a19d16641b78184318accb66514302201cb96107e4bc494a5e410ca5d9236eaf1c03fa1c06c58520c2ae8fe63566532e012102152ae9d0c4a36956596569616d606dde169dc8b992f39c9e0e928ae494ede5c3"
          },
          "sequence": 4294967294
        }
      ],
      "vout": [
        {
          "value": 0.00947871,
          "n": 0,
          "scriptPubKey": {
            "asm": "OP_DUP OP_HASH160 c7b22097f099c8908edfea07f9e30311455a2285 OP_EQUALVERIFY OP_CHECKSIG",
            "hex": "76a914c7b22097f099c8908edfea07f9e30311455a228588ac",
            "reqSigs": 1,
            "type": "pubkeyhash",
            "addresses": [
              "LdRr7tbJkiDYof4j6gAT9MfeFvMio6PcwG"
            ]
          }
        }, 
        {
          "value": 2.48294559,
          "n": 1,
          "scriptPubKey": {
            "asm": "OP_DUP OP_HASH160 d2fd584e8afcfce8d936b5184432d315dbfc71c4 OP_EQUALVERIFY OP_CHECKSIG",
            "hex": "76a914d2fd584e8afcfce8d936b5184432d315dbfc71c488ac",
            "reqSigs": 1,
            "type": "pubkeyhash",
            "addresses": [
              "LeTZfDJqtaRnFeBncgpHgaPqrHXh91UsuZ"
            ]
          }
        }
      ],
      "hex": "02000000037397d08b2a45ff663bfad709ec75208832ab94ce8f1b4048d23c0e36541338c1000000006b483045022100be7d5ecbce3324a9b0a3ca3689c99e922f083bb0411cf1272e84da4cff634c02022026bfc01585308eb7592f7645f53bae9a7a15b55619d63ef2c21f347d89bb1e5601210354fdf0a9be3a2a6316137253e255bf9f107bf06ffdfc149ec785b9270e9026e9feffffffbee760be16135893d2db2656dfbba8c041c78a5dc15fe8e29921be598a862885000000006a473044022061486baad38f97040f26bf9fbdc29d164f938ae36925508f27e2735b95ffed1202201963d7a45bad6892a95eec743238ca2ae196713f7c7c3e8da632a895ca692ce901210218e1db56e5071f99c3d5891750c664ffc3ca34eedecfe3dace83f1d908964c3dfeffffff1013df0e2ba6997892506bae059f1190a1bee7548cd92b959321d4923c1c2df4010000006b483045022100d818e686cc3c4477998d07b91635fc9fbb24a19d16641b78184318accb66514302201cb96107e4bc494a5e410ca5d9236eaf1c03fa1c06c58520c2ae8fe63566532e012102152ae9d0c4a36956596569616d606dde169dc8b992f39c9e0e928ae494ede5c3feffffff029f760e00000000001976a914c7b22097f099c8908edfea07f9e30311455a228588ac9faccc0e000000001976a914d2fd584e8afcfce8d936b5184432d315dbfc71c488ac8fc01400"
    }, 
    {
      "txid": "6458a4216e6829fec1a8a1e14cf8f885df8feb0e6c50b477905b35ad3ebb3a11",
      "hash": "6458a4216e6829fec1a8a1e14cf8f885df8feb0e6c50b477905b35ad3ebb3a11",
      "version": 1,
      "size": 374,
      "vsize": 374,
      "locktime": 1360015,
      "vin": [
        {
          "txid": "18db61867dd119277ac29c4add6e3e053f7090d730d5ba5844863f62112b9c01",
          "vout": 0,
          "scriptSig": {
            "asm": "3045022100dc561ca5c2c62e5cc3523d906efc96db4a8b40f6b6f18ec32f4f5a8e463c17630220122c2d36a8bcd0c9a999925c74909fecdd3a9ab6db9c29f0011210e294915f1d[ALL] 02e97749264cfeec2fea32dd47fa211bb171af7e33054141ab8fb3d0ff4762f10a",
            "hex": "483045022100dc561ca5c2c62e5cc3523d906efc96db4a8b40f6b6f18ec32f4f5a8e463c17630220122c2d36a8bcd0c9a999925c74909fecdd3a9ab6db9c29f0011210e294915f1d012102e97749264cfeec2fea32dd47fa211bb171af7e33054141ab8fb3d0ff4762f10a"
          },
          "sequence": 4294967294
        }, 
        {
          "txid": "bbc2786789a7d4a484255e9642497ec76bd5b0fea3568554cf66d096558b38f9",
          "vout": 1,
          "scriptSig": {
            "asm": "30450221009ab149c2780858f6f7d88a8ca28488e2210901726bdd798b5c827b487d1c4e840220349ee195f0cdb3a0b7dfed1985c1655b83a31b1469be1e9d73179a101bfba8dc[ALL] 02d0237e161b69e61e8aff9f44b02c6d010c6d8b6b1ef1c182286e709c5e98223f",
            "hex": "4830450221009ab149c2780858f6f7d88a8ca28488e2210901726bdd798b5c827b487d1c4e840220349ee195f0cdb3a0b7dfed1985c1655b83a31b1469be1e9d73179a101bfba8dc012102d0237e161b69e61e8aff9f44b02c6d010c6d8b6b1ef1c182286e709c5e98223f"
          },
          "sequence": 4294967294
        }
      ],
      "vout": [
        {
          "value": 0.01000117,
          "n": 0,
          "scriptPubKey": {
            "asm": "OP_DUP OP_HASH160 aaae51a3fa736ba2f348188a72968a8a8db59d13 OP_EQUALVERIFY OP_CHECKSIG",
            "hex": "76a914aaae51a3fa736ba2f348188a72968a8a8db59d1388ac",
            "reqSigs": 1,
            "type": "pubkeyhash",
            "addresses": [
              "LanRxiP4ugg8LsBra9BXijLbWMtSShMNkM"
            ]
          }
        }, 
        {
          "value": 0.03602953,
          "n": 1,
          "scriptPubKey": {
            "asm": "OP_DUP OP_HASH160 7e383d50bfa2279408fad4c49e4e94e0454d0091 OP_EQUALVERIFY OP_CHECKSIG",
            "hex": "76a9147e383d50bfa2279408fad4c49e4e94e0454d009188ac",
            "reqSigs": 1,
            "type": "pubkeyhash",
            "addresses": [
              "LWjLmyREzgcNaFefZbTCrd9HptMeEGGSib"
            ]
          }
        }
      ],
      "hex": "0100000002019c2b11623f864458bad530d790703f053e6edd4a9cc27a2719d17d8661db18000000006b483045022100dc561ca5c2c62e5cc3523d906efc96db4a8b40f6b6f18ec32f4f5a8e463c17630220122c2d36a8bcd0c9a999925c74909fecdd3a9ab6db9c29f0011210e294915f1d012102e97749264cfeec2fea32dd47fa211bb171af7e33054141ab8fb3d0ff4762f10afefffffff9388b5596d066cf548556a3feb0d56bc77e4942965e2584a4d4a7896778c2bb010000006b4830450221009ab149c2780858f6f7d88a8ca28488e2210901726bdd798b5c827b487d1c4e840220349ee195f0cdb3a0b7dfed1985c1655b83a31b1469be1e9d73179a101bfba8dc012102d0237e161b69e61e8aff9f44b02c6d010c6d8b6b1ef1c182286e709c5e98223ffeffffff02b5420f00000000001976a914aaae51a3fa736ba2f348188a72968a8a8db59d1388ac09fa3600000000001976a9147e383d50bfa2279408fad4c49e4e94e0454d009188ac8fc01400"
    }, 
    {
      "txid": "af40beabfa3b69a99ca60821e6e2ff615b1609d0b201dff91eed13efd5334889",
      "hash": "af40beabfa3b69a99ca60821e6e2ff615b1609d0b201dff91eed13efd5334889",
      "version": 1,
      "size": 226,
      "vsize": 226,
      "locktime": 0,
      "vin": [
        {
          "txid": "c2dd21d4ad8c6462a1aa5587f634568a8b56069404387729fce2bed1b8154f86",
          "vout": 1,
          "scriptSig": {
            "asm": "3045022100f0b20d765c1f7d0aafa2be5f2adb8618e009643cbbb4a42cd70b776ae9c769a1022070f775b08c0229d9ab913d5148bc4e4e50d8b024981e54b8e7f1dd9312c80b25[ALL] 02c33cfe39297016bc07a96e3ac0563c51955133783ed6008eeb0688529e34d8f5",
            "hex": "483045022100f0b20d765c1f7d0aafa2be5f2adb8618e009643cbbb4a42cd70b776ae9c769a1022070f775b08c0229d9ab913d5148bc4e4e50d8b024981e54b8e7f1dd9312c80b25012102c33cfe39297016bc07a96e3ac0563c51955133783ed6008eeb0688529e34d8f5"
          },
          "sequence": 4294967295
        }
      ],
      "vout": [
        {
          "value": 2.00000000,
          "n": 0,
          "scriptPubKey": {
            "asm": "OP_DUP OP_HASH160 ab8a441b9cc06e052f43cb27881660322fc9f78f OP_EQUALVERIFY OP_CHECKSIG",
            "hex": "76a914ab8a441b9cc06e052f43cb27881660322fc9f78f88ac",
            "reqSigs": 1,
            "type": "pubkeyhash",
            "addresses": [
              "LarySuhFeu9LVfsZ7WXMmBxmQD6iGBZoGu"
            ]
          }
        }, 
        {
          "value": 0.16600955,
          "n": 1,
          "scriptPubKey": {
            "asm": "OP_DUP OP_HASH160 8e5699c9241bf8d8c375968f7ad8773dded15c94 OP_EQUALVERIFY OP_CHECKSIG",
            "hex": "76a9148e5699c9241bf8d8c375968f7ad8773dded15c9488ac",
            "reqSigs": 1,
            "type": "pubkeyhash",
            "addresses": [
              "LYCZxaQgaJMGLaDB8L2kYaQP1KK66g6HNx"
            ]
          }
        }
      ],
      "hex": "0100000001864f15b8d1bee2fc297738049406568b8a5634f68755aaa162648cadd421ddc2010000006b483045022100f0b20d765c1f7d0aafa2be5f2adb8618e009643cbbb4a42cd70b776ae9c769a1022070f775b08c0229d9ab913d5148bc4e4e50d8b024981e54b8e7f1dd9312c80b25012102c33cfe39297016bc07a96e3ac0563c51955133783ed6008eeb0688529e34d8f5ffffffff0200c2eb0b000000001976a914ab8a441b9cc06e052f43cb27881660322fc9f78f88ac7b4ffd00000000001976a9148e5699c9241bf8d8c375968f7ad8773dded15c9488ac00000000"
    }, 
    {
      "txid": "b9f77c73541ad4c1081e7cc0d3c57c3ae28b985d7d18e3b9fa8506fc57195bda",
      "hash": "b9f77c73541ad4c1081e7cc0d3c57c3ae28b985d7d18e3b9fa8506fc57195bda",
      "version": 1,
      "size": 226,
      "vsize": 226,
      "locktime": 0,
      "vin": [
        {
          "txid": "833b31cd6caf83efa7d3501ca22b40ceb4e426f4b76c677d84208272ae0975b5",
          "vout": 13,
          "scriptSig": {
            "asm": "3045022100fe07764b17b87e9494c1afe35ef2e6d696014e1409b1d06b63cdfaaf6bcaff04022019e918f108dd0697818ea14a78f6dc4dbad584dea565a4798d5c1b6afa925ce0[ALL] 035e3f1418f207152da12a2d456992d5925c818b60f143a3bfe39c87f5efca450f",
            "hex": "483045022100fe07764b17b87e9494c1afe35ef2e6d696014e1409b1d06b63cdfaaf6bcaff04022019e918f108dd0697818ea14a78f6dc4dbad584dea565a4798d5c1b6afa925ce00121035e3f1418f207152da12a2d456992d5925c818b60f143a3bfe39c87f5efca450f"
          },
          "sequence": 4294967295
        }
      ],
      "vout": [
        {
          "value": 0.02742281,
          "n": 0,
          "scriptPubKey": {
            "asm": "OP_DUP OP_HASH160 66da7c2000b14ec0ea0f809082dc47e0140d625f OP_EQUALVERIFY OP_CHECKSIG",
            "hex": "76a91466da7c2000b14ec0ea0f809082dc47e0140d625f88ac",
            "reqSigs": 1,
            "type": "pubkeyhash",
            "addresses": [
              "LUbnvNeuTXNZuYgQ1krVfDkof1iFNh4QST"
            ]
          }
        }, 
        {
          "value": 0.56080655,
          "n": 1,
          "scriptPubKey": {
            "asm": "OP_DUP OP_HASH160 be36cad3cad8f75f08c387d29457ed732e491046 OP_EQUALVERIFY OP_CHECKSIG",
            "hex": "76a914be36cad3cad8f75f08c387d29457ed732e49104688ac",
            "reqSigs": 1,
            "type": "pubkeyhash",
            "addresses": [
              "LcZiHhL42MiZjbgL4zTFDUap3TqKUdQH9f"
            ]
          }
        }
      ],
      "hex": "0100000001b57509ae728220847d676cb7f426e4b4ce402ba21c50d3a7ef83af6ccd313b830d0000006b483045022100fe07764b17b87e9494c1afe35ef2e6d696014e1409b1d06b63cdfaaf6bcaff04022019e918f108dd0697818ea14a78f6dc4dbad584dea565a4798d5c1b6afa925ce00121035e3f1418f207152da12a2d456992d5925c818b60f143a3bfe39c87f5efca450fffffffff0209d82900000000001976a91466da7c2000b14ec0ea0f809082dc47e0140d625f88ac0fb95703000000001976a914be36cad3cad8f75f08c387d29457ed732e49104688ac00000000"
    }, 
    {
      "txid": "a1c407cbc2023d0afb5fe692c39ff7323763a5e8f05582c372aa254afb0639db",
      "hash": "a1c407cbc2023d0afb5fe692c39ff7323763a5e8f05582c372aa254afb0639db",
      "version": 1,
      "size": 226,
      "vsize": 226,
      "locktime": 0,
      "vin": [
        {
          "txid": "9e83d345c04c12e611bf7755cb346640d6b0c223dbf2ecc9cf2662fac7909303",
          "vout": 1,
          "scriptSig": {
            "asm": "3045022100ceea73582597861e9cfce7cf44cf546fee9a39b71f4126be9b975e7c6bb0e9c802205ab84ec2f5c2629bd2911e0a951eba37a21f65a695ae52d10abcf0ce99d0ccb6[ALL] 033f79255a5927e1fe2535cac75347d6f31cab07b67b573749180eed0d31ea4c72",
            "hex": "483045022100ceea73582597861e9cfce7cf44cf546fee9a39b71f4126be9b975e7c6bb0e9c802205ab84ec2f5c2629bd2911e0a951eba37a21f65a695ae52d10abcf0ce99d0ccb60121033f79255a5927e1fe2535cac75347d6f31cab07b67b573749180eed0d31ea4c72"
          },
          "sequence": 4294967295
        }
      ],
      "vout": [
        {
          "value": 0.18947644,
          "n": 0,
          "scriptPubKey": {
            "asm": "OP_DUP OP_HASH160 82d5cf9583b3ad6ecde9151eff6bce3ac5d38c2b OP_EQUALVERIFY OP_CHECKSIG",
            "hex": "76a91482d5cf9583b3ad6ecde9151eff6bce3ac5d38c2b88ac",
            "reqSigs": 1,
            "type": "pubkeyhash",
            "addresses": [
              "LX9kEzS2R1skNksg8P8sTJR29tmD9CdfMu"
            ]
          }
        }, 
        {
          "value": 2.30729756,
          "n": 1,
          "scriptPubKey": {
            "asm": "OP_DUP OP_HASH160 08e3a25fe268c6a840fbf613f870d766c1e423a8 OP_EQUALVERIFY OP_CHECKSIG",
            "hex": "76a91408e3a25fe268c6a840fbf613f870d766c1e423a888ac",
            "reqSigs": 1,
            "type": "pubkeyhash",
            "addresses": [
              "LL2xN47GCV9TwQBcjoZ8NusWUHWyRhSK5v"
            ]
          }
        }
      ],
      "hex": "0100000001039390c7fa6226cfc9ecf2db23c2b0d6406634cb5577bf11e6124cc045d3839e010000006b483045022100ceea73582597861e9cfce7cf44cf546fee9a39b71f4126be9b975e7c6bb0e9c802205ab84ec2f5c2629bd2911e0a951eba37a21f65a695ae52d10abcf0ce99d0ccb60121033f79255a5927e1fe2535cac75347d6f31cab07b67b573749180eed0d31ea4c72ffffffff023c1e2101000000001976a91482d5cf9583b3ad6ecde9151eff6bce3ac5d38c2b88ac1ca8c00d000000001976a91408e3a25fe268c6a840fbf613f870d766c1e423a888ac00000000"
    }
  ],
  "time": 1517362745,
  "mediantime": 1517361784,
  "nonce": 1500041646,
  "bits": "1a042eae",
  "difficulty": 4011378.762614286,
  "chainwork": "0000000000000000000000000000000000000000000000348bb2b6ec2bc4b924",
  "previousblockhash": "4fd880c8984daf204a7104acda4b97db068a40ca86914171866ebca00717a224",
  "nextblockhash": "cb2e36fff2389ca11d6fb5aa817f5264074be552f5f3ae430ccddc53a75f4a92"
}
