{
  "hash": "b2eaa6142b2820b877ae15b1b56f1a95f23308adb0105156e2a0689f3acc9438",
  "confirmations": 1519,
  "strippedsize": 234,
  "size": 234,
  "weight": 936,
  "height": 1359475,
  "version": 536870912,
  "versionHex": "20000000",
  "merkleroot": "0adf7115b4e1c6d9b58864be2b9836b6237387addbac8579316e6e2e6258216b",
  "tx": [
    {
      "txid": "0adf7115b4e1c6d9b58864be2b9836b6237387addbac8579316e6e2e6258216b",
      "hash": "0adf7115b4e1c6d9b58864be2b9836b6237387addbac8579316e6e2e6258216b",
      "version": 1,
      "size": 153,
      "vsize": 153,
      "locktime": 0,
      "vin": [
        {
          "coinbase": "0373be14045a6ff8412cfabe6d6d7cdb500ba3bf613289e3c92a6e92a2a1a9a7034c9cd388c786c09d393556bacc4000000000000000042f4c502f081600768028000000",
          "sequence": 4294967295
        }
      ],
      "vout": [
        {
          "value": 25.00000000,
          "n": 0,
          "scriptPubKey": {
            "asm": "OP_DUP OP_HASH160 57757ed2ecf2052ff3126c397aca7defb9ca2cec OP_EQUALVERIFY OP_CHECKSIG",
            "hex": "76a91457757ed2ecf2052ff3126c397aca7defb9ca2cec88ac",
            "reqSigs": 1,
            "type": "pubkeyhash",
            "addresses": [
              "LTCPodGk5FwcJaRzH9yKnwicxzFUbxp6tN"
            ]
          }
        }
      ],
      "hex": "01000000010000000000000000000000000000000000000000000000000000000000000000ffffffff440373be14045a6ff8412cfabe6d6d7cdb500ba3bf613289e3c92a6e92a2a1a9a7034c9cd388c786c09d393556bacc4000000000000000042f4c502f081600768028000000ffffffff0100f90295000000001976a91457757ed2ecf2052ff3126c397aca7defb9ca2cec88ac00000000"
    }
  ],
  "time": 1517287489,
  "mediantime": 1517287170,
  "nonce": 2402768049,
  "bits": "1a042eae",
  "difficulty": 4011378.762614286,
  "chainwork": "0000000000000000000000000000000000000000000000340a1b0c5b2af1d7e8",
  "previousblockhash": "f932649ae53bd51daf22ce37b0b7e7a590f5cf04fe82b58e94675377e929be94",
  "nextblockhash": "763bdf07eb05b155d945830e59b8a85751d394174aada0156a051b4f1b459157"
}
