{
  "hash": "b31b95298885e9c470ec21cd82923c805aa5c22cde392ed2dbe44ce26ceb2023",
  "confirmations": 1321,
  "strippedsize": 234,
  "size": 234,
  "weight": 936,
  "height": 1359673,
  "version": 536870912,
  "versionHex": "20000000",
  "merkleroot": "ad2bb264ee3af78666ca46fefb21973e7de217e252156681111c3538c333b1a6",
  "tx": [
    {
      "txid": "ad2bb264ee3af78666ca46fefb21973e7de217e252156681111c3538c333b1a6",
      "hash": "ad2bb264ee3af78666ca46fefb21973e7de217e252156681111c3538c333b1a6",
      "version": 1,
      "size": 153,
      "vsize": 153,
      "locktime": 0,
      "vin": [
        {
          "coinbase": "0339bf14045a706ab12cfabe6d6d090fbab0b8c8c2b203a848020d2493445c9932eea392ba8349ea8d222d1004ff4000000000000000042f4c502f08160056f460020000",
          "sequence": 4294967295
        }
      ],
      "vout": [
        {
          "value": 25.00000000,
          "n": 0,
          "scriptPubKey": {
            "asm": "OP_DUP OP_HASH160 57757ed2ecf2052ff3126c397aca7defb9ca2cec OP_EQUALVERIFY OP_CHECKSIG",
            "hex": "76a91457757ed2ecf2052ff3126c397aca7defb9ca2cec88ac",
            "reqSigs": 1,
            "type": "pubkeyhash",
            "addresses": [
              "LTCPodGk5FwcJaRzH9yKnwicxzFUbxp6tN"
            ]
          }
        }
      ],
      "hex": "01000000010000000000000000000000000000000000000000000000000000000000000000ffffffff440339bf14045a706ab12cfabe6d6d090fbab0b8c8c2b203a848020d2493445c9932eea392ba8349ea8d222d1004ff4000000000000000042f4c502f08160056f460020000ffffffff0100f90295000000001976a91457757ed2ecf2052ff3126c397aca7defb9ca2cec88ac00000000"
    }
  ],
  "time": 1517316785,
  "mediantime": 1517316293,
  "nonce": 4162651721,
  "bits": "1a042eae",
  "difficulty": 4011378.762614286,
  "chainwork": "00000000000000000000000000000000000000000000003439729275b070f274",
  "previousblockhash": "5fdbcb3c459badace42924da2a4246b28a5aa9880f9288238765fafb16e4f863",
  "nextblockhash": "b0a2ff7e413b25aa4a2ac86cb8973d7f8bb3029b26ddebea27b61ed7eb6b028e"
}
