{
  "hash": "b355ecb8ebf2d43cc778944c997c576f27cebe820e755b29f9e102b5c6c30e6b",
  "confirmations": 254,
  "strippedsize": 3592,
  "size": 3849,
  "weight": 14625,
  "height": 1360740,
  "version": 536870912,
  "versionHex": "20000000",
  "merkleroot": "c229db22b1cabe0ff472f396f0233e5afa83dec8c3f4bb4a0f2e1fe85df9e4cd",
  "tx": [
    {
      "txid": "7ca62c88f5917d32d3781cb768593bee857fdb91f82224f45e35fe5d62f8d101",
      "hash": "69f3d9f8f4721362a980a72f891d0024f00380c124ad560bc18ec8432c735f53",
      "version": 1,
      "size": 282,
      "vsize": 255,
      "locktime": 0,
      "vin": [
        {
          "coinbase": "0364c314000467d1725a0487623c170c9fe28f590100000000000000065442446963652cfabe6d6d29f3b490b7cf3b77cf52af7f2b3b8704de415657292b105b0d20e8864bb7dc5e0100000000000000",
          "sequence": 4294967295
        }
      ],
      "vout": [
        {
          "value": 0.12508808,
          "n": 0,
          "scriptPubKey": {
            "asm": "OP_DUP OP_HASH160 646e4e6a52f8d0512b2f4cd743edaf39a7075319 OP_EQUALVERIFY OP_CHECKSIG",
            "hex": "76a914646e4e6a52f8d0512b2f4cd743edaf39a707531988ac",
            "reqSigs": 1,
            "type": "pubkeyhash",
            "addresses": [
              "LUNyycVonDH9aQMZn1fxyUeu8N3yS8w7ud"
            ]
          }
        }, 
        {
          "value": 0.00000000,
          "n": 1,
          "scriptPubKey": {
            "asm": "OP_RETURN aa21a9ed619ed87a086770240b4b4bfba63080964ac0cd4b2e1c16a77bc66ed7a5cc846d",
            "hex": "6a24aa21a9ed619ed87a086770240b4b4bfba63080964ac0cd4b2e1c16a77bc66ed7a5cc846d",
            "type": "nulldata"
          }
        }, 
        {
          "value": 24.89252792,
          "n": 2,
          "scriptPubKey": {
            "asm": "OP_DUP OP_HASH160 b1836b7b8fa36ae255974486ed83f534b5081b49 OP_EQUALVERIFY OP_CHECKSIG",
            "hex": "76a914b1836b7b8fa36ae255974486ed83f534b5081b4988ac",
            "reqSigs": 1,
            "type": "pubkeyhash",
            "addresses": [
              "LbQZJNugAUfWxJmKWDWmrNsKWbVon3172A"
            ]
          }
        }
      ],
      "hex": "010000000001010000000000000000000000000000000000000000000000000000000000000000ffffffff500364c314000467d1725a0487623c170c9fe28f590100000000000000065442446963652cfabe6d6d29f3b490b7cf3b77cf52af7f2b3b8704de415657292b105b0d20e8864bb7dc5e0100000000000000ffffffff0388debe00000000001976a914646e4e6a52f8d0512b2f4cd743edaf39a707531988ac0000000000000000266a24aa21a9ed619ed87a086770240b4b4bfba63080964ac0cd4b2e1c16a77bc66ed7a5cc846db8fb5e94000000001976a914b1836b7b8fa36ae255974486ed83f534b5081b4988ac0120000000000000000000000000000000000000000000000000000000000000000000000000"
    }, 
    {
      "txid": "0daaa3cbd0bf013136da4f98399e277909215c2612f51b5fe1014a65fd6a2c17",
      "hash": "0daaa3cbd0bf013136da4f98399e277909215c2612f51b5fe1014a65fd6a2c17",
      "version": 1,
      "size": 405,
      "vsize": 405,
      "locktime": 0,
      "vin": [
        {
          "txid": "b43ca4dcebe765f2054f8ac3444aaa57d92dd343aa1ae814fae098b9d1284d35",
          "vout": 5,
          "scriptSig": {
            "asm": "0 30450221009c2a84727b9459fdb0c803cd62850f162a9329a2aa7d5a605d923761cb92630702202eed0791f1f8cfc537820883983b53c7b2cb7957e673fd083ee2ed53686e6249[ALL] 3045022100f5f9340f733c02e07a929526e1f4a35364c95431dec40554d72b848e848d15df02205642e0f1b41243eb85e3a8540f8407108d23488f7920cee5a8c6cfa0e26efa0b[ALL] 52210209941036190f3d21dd531340bdb565d224f2f13ef0feebd0ea3f9d24c0b217682102f0c131306f381d271f1eb45d1955f872afc435ad7183683e5c5899ea36db8f1821039d3815695519eba92d2ef511c15ec8923a09085102e9569146d65ae2c15cc38e53ae",
            "hex": "004830450221009c2a84727b9459fdb0c803cd62850f162a9329a2aa7d5a605d923761cb92630702202eed0791f1f8cfc537820883983b53c7b2cb7957e673fd083ee2ed53686e624901483045022100f5f9340f733c02e07a929526e1f4a35364c95431dec40554d72b848e848d15df02205642e0f1b41243eb85e3a8540f8407108d23488f7920cee5a8c6cfa0e26efa0b014c6952210209941036190f3d21dd531340bdb565d224f2f13ef0feebd0ea3f9d24c0b217682102f0c131306f381d271f1eb45d1955f872afc435ad7183683e5c5899ea36db8f1821039d3815695519eba92d2ef511c15ec8923a09085102e9569146d65ae2c15cc38e53ae"
          },
          "sequence": 4294967295
        }
      ],
      "vout": [
        {
          "value": 4.99797843,
          "n": 0,
          "scriptPubKey": {
            "asm": "OP_DUP OP_HASH160 1a97d94a4b4d61f3edc49359ef8e3e63a7b4b479 OP_EQUALVERIFY OP_CHECKSIG",
            "hex": "76a9141a97d94a4b4d61f3edc49359ef8e3e63a7b4b47988ac",
            "reqSigs": 1,
            "type": "pubkeyhash",
            "addresses": [
              "LMeZjqeJMrB2gjcK31TBjquCJqjcYJEmyj"
            ]
          }
        }, 
        {
          "value": 3.72040157,
          "n": 1,
          "scriptPubKey": {
            "asm": "OP_HASH160 b03b397eab5eab0d276a85710fb6f61a26be7627 OP_EQUAL",
            "hex": "a914b03b397eab5eab0d276a85710fb6f61a26be762787",
            "reqSigs": 1,
            "type": "scripthash",
            "addresses": [
              "MPxz7BupRbR8D9Q5gCdkbEVduK6XNzbCeu"
            ]
          }
        }, 
        {
          "value": 5.95186000,
          "n": 2,
          "scriptPubKey": {
            "asm": "OP_HASH160 f6990dabd5759584cd8ca6614a09ad11a49ec50e OP_EQUAL",
            "hex": "a914f6990dabd5759584cd8ca6614a09ad11a49ec50e87",
            "reqSigs": 1,
            "type": "scripthash",
            "addresses": [
              "MWP3oxUp3umMmUyrL86eZq3AeeNMuBqVac"
            ]
          }
        }
      ],
      "hex": "0100000001354d28d1b998e0fa14e81aaa43d32dd957aa4a44c38a4f05f265e7ebdca43cb405000000fdfe00004830450221009c2a84727b9459fdb0c803cd62850f162a9329a2aa7d5a605d923761cb92630702202eed0791f1f8cfc537820883983b53c7b2cb7957e673fd083ee2ed53686e624901483045022100f5f9340f733c02e07a929526e1f4a35364c95431dec40554d72b848e848d15df02205642e0f1b41243eb85e3a8540f8407108d23488f7920cee5a8c6cfa0e26efa0b014c6952210209941036190f3d21dd531340bdb565d224f2f13ef0feebd0ea3f9d24c0b217682102f0c131306f381d271f1eb45d1955f872afc435ad7183683e5c5899ea36db8f1821039d3815695519eba92d2ef511c15ec8923a09085102e9569146d65ae2c15cc38e53aeffffffff03534fca1d000000001976a9141a97d94a4b4d61f3edc49359ef8e3e63a7b4b47988acdde12c160000000017a914b03b397eab5eab0d276a85710fb6f61a26be76278750d179230000000017a914f6990dabd5759584cd8ca6614a09ad11a49ec50e8700000000"
    }, 
    {
      "txid": "544d4ee2cbeb01f5f2552b4e936fd4f06c5e576c4ba20a99929f0398c71a3e3c",
      "hash": "544d4ee2cbeb01f5f2552b4e936fd4f06c5e576c4ba20a99929f0398c71a3e3c",
      "version": 1,
      "size": 226,
      "vsize": 226,
      "locktime": 0,
      "vin": [
        {
          "txid": "4cc8cb90528fccecbedf01cfffcff34901342eb6bfa94f9bcba79e024376852e",
          "vout": 1,
          "scriptSig": {
            "asm": "3045022100db43819be64be33c6329ac2edb8213119f6cc1540c63b8019581399f693d577202206942760289fa96cc922537f14ce6c61aaf2134c35cf71c6eded84febf1c9fad1[ALL] 03b1ba77bb6c14d3c553daeea8765afb62ed0696e9a7e64fd96d63d7ed370fc0ab",
            "hex": "483045022100db43819be64be33c6329ac2edb8213119f6cc1540c63b8019581399f693d577202206942760289fa96cc922537f14ce6c61aaf2134c35cf71c6eded84febf1c9fad1012103b1ba77bb6c14d3c553daeea8765afb62ed0696e9a7e64fd96d63d7ed370fc0ab"
          },
          "sequence": 4294967295
        }
      ],
      "vout": [
        {
          "value": 4.99000000,
          "n": 0,
          "scriptPubKey": {
            "asm": "OP_DUP OP_HASH160 d68c9b4fe1250ad26959544763517005a27335d7 OP_EQUALVERIFY OP_CHECKSIG",
            "hex": "76a914d68c9b4fe1250ad26959544763517005a27335d788ac",
            "reqSigs": 1,
            "type": "pubkeyhash",
            "addresses": [
              "LenPJnhGfcTqd3tgLsLmnQJmLTfwQNNzyN"
            ]
          }
        }, 
        {
          "value": 0.00400000,
          "n": 1,
          "scriptPubKey": {
            "asm": "OP_DUP OP_HASH160 f66e467c3b6b1aaa021e9e4996fc7b244942788b OP_EQUALVERIFY OP_CHECKSIG",
            "hex": "76a914f66e467c3b6b1aaa021e9e4996fc7b244942788b88ac",
            "reqSigs": 1,
            "type": "pubkeyhash",
            "addresses": [
              "LhgxbU5pgjs96rX7AseG6KkAp4en3UKLyh"
            ]
          }
        }
      ],
      "hex": "01000000012e857643029ea7cb9b4fa9bfb62e340149f3cfffcf01dfbeeccc8f5290cbc84c010000006b483045022100db43819be64be33c6329ac2edb8213119f6cc1540c63b8019581399f693d577202206942760289fa96cc922537f14ce6c61aaf2134c35cf71c6eded84febf1c9fad1012103b1ba77bb6c14d3c553daeea8765afb62ed0696e9a7e64fd96d63d7ed370fc0abffffffff02c022be1d000000001976a914d68c9b4fe1250ad26959544763517005a27335d788ac801a0600000000001976a914f66e467c3b6b1aaa021e9e4996fc7b244942788b88ac00000000"
    }, 
    {
      "txid": "cc7e719c5d362ec0f8568cddf59e1ed6c62b19211024fa002c8538c4eb30fcc2",
      "hash": "cc7e719c5d362ec0f8568cddf59e1ed6c62b19211024fa002c8538c4eb30fcc2",
      "version": 2,
      "size": 226,
      "vsize": 226,
      "locktime": 1360738,
      "vin": [
        {
          "txid": "7aa971ed0a64ea37f0c0f598da70da71abd20d8e7623d451b95238d65d0de408",
          "vout": 1,
          "scriptSig": {
            "asm": "3045022100e2425015cff578bcefc27f75062c44e357024de983248912e75b76c8c162595202206ab09494a3e3824a5bff0f8e607236a5a040f5f07efe77a97b0f45229223d5a3[ALL] 02d585004614e9014415528cf2956cca3083412fc148a4df1ffb3b5560db38bded",
            "hex": "483045022100e2425015cff578bcefc27f75062c44e357024de983248912e75b76c8c162595202206ab09494a3e3824a5bff0f8e607236a5a040f5f07efe77a97b0f45229223d5a3012102d585004614e9014415528cf2956cca3083412fc148a4df1ffb3b5560db38bded"
          },
          "sequence": 4294967294
        }
      ],
      "vout": [
        {
          "value": 0.82036061,
          "n": 0,
          "scriptPubKey": {
            "asm": "OP_DUP OP_HASH160 f5f848cec4f8117fee13f084b716ce822257cd46 OP_EQUALVERIFY OP_CHECKSIG",
            "hex": "76a914f5f848cec4f8117fee13f084b716ce822257cd4688ac",
            "reqSigs": 1,
            "type": "pubkeyhash",
            "addresses": [
              "LheXFKBmGfCyUov8zpxeEJdgssJwEMXctQ"
            ]
          }
        }, 
        {
          "value": 3.03279590,
          "n": 1,
          "scriptPubKey": {
            "asm": "OP_DUP OP_HASH160 3623808e77851d2d91e55721f5fcfec7a4949659 OP_EQUALVERIFY OP_CHECKSIG",
            "hex": "76a9143623808e77851d2d91e55721f5fcfec7a494965988ac",
            "reqSigs": 1,
            "type": "pubkeyhash",
            "addresses": [
              "LQADHJi7UnmFRprhaRCZvzEsHnTH7nTs9Y"
            ]
          }
        }
      ],
      "hex": "020000000108e40d5dd63852b951d423768e0dd2ab71da70da98f5c0f037ea640aed71a97a010000006b483045022100e2425015cff578bcefc27f75062c44e357024de983248912e75b76c8c162595202206ab09494a3e3824a5bff0f8e607236a5a040f5f07efe77a97b0f45229223d5a3012102d585004614e9014415528cf2956cca3083412fc148a4df1ffb3b5560db38bdedfeffffff025dc5e304000000001976a914f5f848cec4f8117fee13f084b716ce822257cd4688ace6ad1312000000001976a9143623808e77851d2d91e55721f5fcfec7a494965988ac62c31400"
    }, 
    {
      "txid": "687ac2d60f6beb63e7439f583adf3cf098ba060b58168814ce718fd4f6830245",
      "hash": "65163a2c231d4e9a79c6afcf3487705fb5e5bd555c24700d670d55593462851c",
      "version": 1,
      "size": 373,
      "vsize": 208,
      "locktime": 0,
      "vin": [
        {
          "txid": "be0ec8cd00d9a60d7c637875ef41c38b07f9aa5b37cd0ba868dc2dd62f2cf874",
          "vout": 1,
          "scriptSig": {
            "asm": "0020409fd93c7351b461fa46963fa28755038f397ee054ab9e56eda0b1081d768cc4",
            "hex": "220020409fd93c7351b461fa46963fa28755038f397ee054ab9e56eda0b1081d768cc4"
          },
          "txinwitness": [
            "", 
            "30450221009d02d5d1a7808c0864cd76a0709e6374a5ed2d01c7999b88cc750350ac05cbc902202376ac3a37d09e1beac199887c32d9a7b6b26e67951f86dd95fcbfb10bed44f301", 
            "304402207ecf3f31d6a3d1da52aee232e0ba1a9ff9f04f9b2cd43d2441426a90416f140f02201247cc70abf467d6caa6c465ac01fd11d4c629c91d13011e9c721a07b12c052a01", 
            "522103ceb293b39e087131961da42b3deaef48432d57a08bfd111247901be2936525b32103fa185b0d6c2a6d812d1a9418c54b3cea527d229a73a0c6c72345a1851ebcdad352ae"
          ],
          "sequence": 4294967295
        }
      ],
      "vout": [
        {
          "value": 0.01225500,
          "n": 0,
          "scriptPubKey": {
            "asm": "OP_DUP OP_HASH160 3faf524b220c4b0b8cb8d25a60a49d88dd6a049b OP_EQUALVERIFY OP_CHECKSIG",
            "hex": "76a9143faf524b220c4b0b8cb8d25a60a49d88dd6a049b88ac",
            "reqSigs": 1,
            "type": "pubkeyhash",
            "addresses": [
              "LR2grr54wopVPy5iymt36mNGFPUVXLRQnA"
            ]
          }
        }, 
        {
          "value": 0.13252800,
          "n": 1,
          "scriptPubKey": {
            "asm": "OP_HASH160 2d9ba1f1c217fd18a576b17eaf8a1c6f1cd2f1de OP_EQUAL",
            "hex": "a9142d9ba1f1c217fd18a576b17eaf8a1c6f1cd2f1de87",
            "reqSigs": 1,
            "type": "scripthash",
            "addresses": [
              "MC4K5c2x6rcVohDBLrLNQRsqL5atuzztot"
            ]
          }
        }
      ],
      "hex": "0100000000010174f82c2fd62ddc68a80bcd375baaf9078bc341ef7578637c0da6d900cdc80ebe0100000023220020409fd93c7351b461fa46963fa28755038f397ee054ab9e56eda0b1081d768cc4ffffffff021cb31200000000001976a9143faf524b220c4b0b8cb8d25a60a49d88dd6a049b88acc038ca000000000017a9142d9ba1f1c217fd18a576b17eaf8a1c6f1cd2f1de8704004830450221009d02d5d1a7808c0864cd76a0709e6374a5ed2d01c7999b88cc750350ac05cbc902202376ac3a37d09e1beac199887c32d9a7b6b26e67951f86dd95fcbfb10bed44f30147304402207ecf3f31d6a3d1da52aee232e0ba1a9ff9f04f9b2cd43d2441426a90416f140f02201247cc70abf467d6caa6c465ac01fd11d4c629c91d13011e9c721a07b12c052a0147522103ceb293b39e087131961da42b3deaef48432d57a08bfd111247901be2936525b32103fa185b0d6c2a6d812d1a9418c54b3cea527d229a73a0c6c72345a1851ebcdad352ae00000000"
    }, 
    {
      "txid": "8ce1af7018d9597e53127e48d465c61dc3d8dc464e3bfb68913b211c0a9dcc0b",
      "hash": "8ce1af7018d9597e53127e48d465c61dc3d8dc464e3bfb68913b211c0a9dcc0b",
      "version": 1,
      "size": 225,
      "vsize": 225,
      "locktime": 0,
      "vin": [
        {
          "txid": "633fc1278430e803c668caa6d7310c61268caf6b35bf1843c3a2bbc89d198e30",
          "vout": 0,
          "scriptSig": {
            "asm": "30440220333e5e21a9c971f4e8de00151a649e7ecadff36db6c2119cce4b0c12a0b8b25d022031be30535aca0a20847043d2f5c511b26c0ced2f019531a8f99afc830da7a1bf[ALL] 02dd4b87226b9a37d44a8cd75f816ba57ed7b082932c08eda7cde56d8d9fb556c5",
            "hex": "4730440220333e5e21a9c971f4e8de00151a649e7ecadff36db6c2119cce4b0c12a0b8b25d022031be30535aca0a20847043d2f5c511b26c0ced2f019531a8f99afc830da7a1bf012102dd4b87226b9a37d44a8cd75f816ba57ed7b082932c08eda7cde56d8d9fb556c5"
          },
          "sequence": 4294967295
        }
      ],
      "vout": [
        {
          "value": 0.05000000,
          "n": 0,
          "scriptPubKey": {
            "asm": "OP_DUP OP_HASH160 48c7f4f01905a49eee6a86c2d23e174ac1e45529 OP_EQUALVERIFY OP_CHECKSIG",
            "hex": "76a91448c7f4f01905a49eee6a86c2d23e174ac1e4552988ac",
            "reqSigs": 1,
            "type": "pubkeyhash",
            "addresses": [
              "LRrnTGPDJNdNSGn8xJVHYGJQGK3AceuwMt"
            ]
          }
        }, 
        {
          "value": 2.94877400,
          "n": 1,
          "scriptPubKey": {
            "asm": "OP_DUP OP_HASH160 6abc0795b0f28a24eda7aa576fd5e82585dcec32 OP_EQUALVERIFY OP_CHECKSIG",
            "hex": "76a9146abc0795b0f28a24eda7aa576fd5e82585dcec3288ac",
            "reqSigs": 1,
            "type": "pubkeyhash",
            "addresses": [
              "LUxK95HGTZP21M5yV9UpgT6GmWyYF9zKk3"
            ]
          }
        }
      ],
      "hex": "0100000001308e199dc8bba2c34318bf356baf8c26610c31d7a6ca68c603e8308427c13f63000000006a4730440220333e5e21a9c971f4e8de00151a649e7ecadff36db6c2119cce4b0c12a0b8b25d022031be30535aca0a20847043d2f5c511b26c0ced2f019531a8f99afc830da7a1bf012102dd4b87226b9a37d44a8cd75f816ba57ed7b082932c08eda7cde56d8d9fb556c5ffffffff02404b4c00000000001976a91448c7f4f01905a49eee6a86c2d23e174ac1e4552988acd8789311000000001976a9146abc0795b0f28a24eda7aa576fd5e82585dcec3288ac00000000"
    }, 
    {
      "txid": "59e49ff9d2a0013c7ffc8b90c0b84197e6204265612b2a331440e8143674bf52",
      "hash": "59e49ff9d2a0013c7ffc8b90c0b84197e6204265612b2a331440e8143674bf52",
      "version": 1,
      "size": 225,
      "vsize": 225,
      "locktime": 0,
      "vin": [
        {
          "txid": "b286c3b6a6d158db7cab850ab57851de168ca0767ba293d1b54fd69d91356040",
          "vout": 1,
          "scriptSig": {
            "asm": "30440220346bff45dcc3e8862f0c73cc7230feb556d0e42a0f1d3089f6c91c083975894402201bfde936d0fbb61d0b2d08d01eab683cfa779616d0b09d48ad8026649778e6e8[ALL] 02fc58ba1261fe60c8b7e6c0d0378ad4a62891d50ca8c4e0001e7512a93dc996ce",
            "hex": "4730440220346bff45dcc3e8862f0c73cc7230feb556d0e42a0f1d3089f6c91c083975894402201bfde936d0fbb61d0b2d08d01eab683cfa779616d0b09d48ad8026649778e6e8012102fc58ba1261fe60c8b7e6c0d0378ad4a62891d50ca8c4e0001e7512a93dc996ce"
          },
          "sequence": 4294967295
        }
      ],
      "vout": [
        {
          "value": 1.39117238,
          "n": 0,
          "scriptPubKey": {
            "asm": "OP_DUP OP_HASH160 2840e3095d911531e562aee426c39044be0336b5 OP_EQUALVERIFY OP_CHECKSIG",
            "hex": "76a9142840e3095d911531e562aee426c39044be0336b588ac",
            "reqSigs": 1,
            "type": "pubkeyhash",
            "addresses": [
              "LNto2JcJp3u689k4cahVBByprqmu6E5btA"
            ]
          }
        }, 
        {
          "value": 69.36938002,
          "n": 1,
          "scriptPubKey": {
            "asm": "OP_DUP OP_HASH160 cadb7601425ddfda68e55c6abd9739afe81f05e2 OP_EQUALVERIFY OP_CHECKSIG",
            "hex": "76a914cadb7601425ddfda68e55c6abd9739afe81f05e288ac",
            "reqSigs": 1,
            "type": "pubkeyhash",
            "addresses": [
              "LdiZfNqfn9EaUH7XQ66y7Nu2SXmFw1AB1U"
            ]
          }
        }
      ],
      "hex": "0100000001406035919dd64fb5d193a27b76a08c16de5178b50a85ab7cdb58d1a6b6c386b2010000006a4730440220346bff45dcc3e8862f0c73cc7230feb556d0e42a0f1d3089f6c91c083975894402201bfde936d0fbb61d0b2d08d01eab683cfa779616d0b09d48ad8026649778e6e8012102fc58ba1261fe60c8b7e6c0d0378ad4a62891d50ca8c4e0001e7512a93dc996ceffffffff02b6c24a08000000001976a9142840e3095d911531e562aee426c39044be0336b588ac1246799d010000001976a914cadb7601425ddfda68e55c6abd9739afe81f05e288ac00000000"
    }, 
    {
      "txid": "790fab377f53d4b984bbd60db6f315b25c8cc226707b64221b96984186e2e9bb",
      "hash": "790fab377f53d4b984bbd60db6f315b25c8cc226707b64221b96984186e2e9bb",
      "version": 1,
      "size": 225,
      "vsize": 225,
      "locktime": 0,
      "vin": [
        {
          "txid": "a0e27e01371853a838ff6269089a1d77923e3d3e6f2558640c4c9c7b30c663fd",
          "vout": 1,
          "scriptSig": {
            "asm": "304402201eef9105bff0cd8c3e8cbd956973ca94087a2e30ee0022c8af64ce7636f57a3102203505062d2352f978f6915d2f2093340d9810a11b3dc4518e71dd83aa659551a3[ALL] 038d1e5fa013246e4e6ec357a7355843a1265e3e04e83aae35b305f8512008dd0f",
            "hex": "47304402201eef9105bff0cd8c3e8cbd956973ca94087a2e30ee0022c8af64ce7636f57a3102203505062d2352f978f6915d2f2093340d9810a11b3dc4518e71dd83aa659551a30121038d1e5fa013246e4e6ec357a7355843a1265e3e04e83aae35b305f8512008dd0f"
          },
          "sequence": 4294967295
        }
      ],
      "vout": [
        {
          "value": 0.56910000,
          "n": 0,
          "scriptPubKey": {
            "asm": "OP_DUP OP_HASH160 9e221bccd73db9f582c44768dca918880dd8581e OP_EQUALVERIFY OP_CHECKSIG",
            "hex": "76a9149e221bccd73db9f582c44768dca918880dd8581e88ac",
            "reqSigs": 1,
            "type": "pubkeyhash",
            "addresses": [
              "LZe5tRq5vBL4t3H5rdC5yrVVVmRNtQVcce"
            ]
          }
        }, 
        {
          "value": 0.02867400,
          "n": 1,
          "scriptPubKey": {
            "asm": "OP_DUP OP_HASH160 08be2254c632beea2b308ac3792aae14a18d92c0 OP_EQUALVERIFY OP_CHECKSIG",
            "hex": "76a91408be2254c632beea2b308ac3792aae14a18d92c088ac",
            "reqSigs": 1,
            "type": "pubkeyhash",
            "addresses": [
              "LL2BSVmyb5MWGr8ah4YbkwVp2PLUBcn41P"
            ]
          }
        }
      ],
      "hex": "0100000001fd63c6307b9c4c0c6458256f3e3d3e92771d9a086962ff38a8531837017ee2a0010000006a47304402201eef9105bff0cd8c3e8cbd956973ca94087a2e30ee0022c8af64ce7636f57a3102203505062d2352f978f6915d2f2093340d9810a11b3dc4518e71dd83aa659551a30121038d1e5fa013246e4e6ec357a7355843a1265e3e04e83aae35b305f8512008dd0fffffffff02b0606403000000001976a9149e221bccd73db9f582c44768dca918880dd8581e88acc8c02b00000000001976a91408be2254c632beea2b308ac3792aae14a18d92c088ac00000000"
    }, 
    {
      "txid": "19ca36b82277b4e90768d551026c31c0bb22416254193fcf347b4e94ee157efb",
      "hash": "19ca36b82277b4e90768d551026c31c0bb22416254193fcf347b4e94ee157efb",
      "version": 1,
      "size": 225,
      "vsize": 225,
      "locktime": 0,
      "vin": [
        {
          "txid": "b4ac4592672929b020f8fb42a64bd9e91ccd2a57e0d0856857670f371dea8662",
          "vout": 1,
          "scriptSig": {
            "asm": "304402204ce15c8eb2ab412a05b8d3cd40a9e4095abaa4a035dcd7610490c32494baadac022047789eb1aa925a5d89a0c4c750b429a5759a917f5ef6ab554cb66299b0004348[ALL] 0252fe670a4b21811764cfd8eedd76f9f74c78cd417863575d40892a798389e088",
            "hex": "47304402204ce15c8eb2ab412a05b8d3cd40a9e4095abaa4a035dcd7610490c32494baadac022047789eb1aa925a5d89a0c4c750b429a5759a917f5ef6ab554cb66299b000434801210252fe670a4b21811764cfd8eedd76f9f74c78cd417863575d40892a798389e088"
          },
          "sequence": 4294967295
        }
      ],
      "vout": [
        {
          "value": 0.00060333,
          "n": 0,
          "scriptPubKey": {
            "asm": "OP_DUP OP_HASH160 fbd654f101b5cd8b936f173050f3cfe999df7169 OP_EQUALVERIFY OP_CHECKSIG",
            "hex": "76a914fbd654f101b5cd8b936f173050f3cfe999df716988ac",
            "reqSigs": 1,
            "type": "pubkeyhash",
            "addresses": [
              "LiBYdPzJ9WgwZsVryGv6HG85Mob4cCNo2K"
            ]
          }
        }, 
        {
          "value": 0.09376479,
          "n": 1,
          "scriptPubKey": {
            "asm": "OP_DUP OP_HASH160 b7d275a3a7b92386822144730f8ed712637bf49a OP_EQUALVERIFY OP_CHECKSIG",
            "hex": "76a914b7d275a3a7b92386822144730f8ed712637bf49a88ac",
            "reqSigs": 1,
            "type": "pubkeyhash",
            "addresses": [
              "Lbyv3JVSLJENJBKpfwsmzPmw8RwQnyfZYf"
            ]
          }
        }
      ],
      "hex": "01000000016286ea1d370f67576885d0e0572acd1ce9d94ba642fbf820b02929679245acb4010000006a47304402204ce15c8eb2ab412a05b8d3cd40a9e4095abaa4a035dcd7610490c32494baadac022047789eb1aa925a5d89a0c4c750b429a5759a917f5ef6ab554cb66299b000434801210252fe670a4b21811764cfd8eedd76f9f74c78cd417863575d40892a798389e088ffffffff02adeb0000000000001976a914fbd654f101b5cd8b936f173050f3cfe999df716988acdf128f00000000001976a914b7d275a3a7b92386822144730f8ed712637bf49a88ac00000000"
    }, 
    {
      "txid": "c35984b1592482a697361402774139a1c282dfc5e3c3d3ad2d67650700e46907",
      "hash": "c35984b1592482a697361402774139a1c282dfc5e3c3d3ad2d67650700e46907",
      "version": 2,
      "size": 226,
      "vsize": 226,
      "locktime": 1360644,
      "vin": [
        {
          "txid": "6647c9532f48066d6dda5ea02a4daba389349f35f8a7fb533733a534ac9f6f77",
          "vout": 0,
          "scriptSig": {
            "asm": "3045022100e042e42914a1e4869e1482e656d3d1b531a913bd9e04dd7aceb76da0a5fe62c602207574d3c9c0207938b02897bc8d56972f22c0bf911441c21a5fbfd650ad4f59f5[ALL] 028cb9acf7d4f2a89e12f7bda4df9541b41c1695c9ce1480fdee015066519d7f44",
            "hex": "483045022100e042e42914a1e4869e1482e656d3d1b531a913bd9e04dd7aceb76da0a5fe62c602207574d3c9c0207938b02897bc8d56972f22c0bf911441c21a5fbfd650ad4f59f50121028cb9acf7d4f2a89e12f7bda4df9541b41c1695c9ce1480fdee015066519d7f44"
          },
          "sequence": 4294967294
        }
      ],
      "vout": [
        {
          "value": 0.97768800,
          "n": 0,
          "scriptPubKey": {
            "asm": "OP_DUP OP_HASH160 fd8f96e15b0c7deb99715959245524cd838d7f27 OP_EQUALVERIFY OP_CHECKSIG",
            "hex": "76a914fd8f96e15b0c7deb99715959245524cd838d7f2788ac",
            "reqSigs": 1,
            "type": "pubkeyhash",
            "addresses": [
              "LiLfEWapKokCQCCHqu87h9v7ymPctSWe4P"
            ]
          }
        }, 
        {
          "value": 0.13480000,
          "n": 1,
          "scriptPubKey": {
            "asm": "OP_DUP OP_HASH160 fd4c53374782f207a42267945c1b6eb8dd92622b OP_EQUALVERIFY OP_CHECKSIG",
            "hex": "76a914fd4c53374782f207a42267945c1b6eb8dd92622b88ac",
            "reqSigs": 1,
            "type": "pubkeyhash",
            "addresses": [
              "LiKGeuQft8aLTjmwH6HvJmiqqir2Qzp8oU"
            ]
          }
        }
      ],
      "hex": "0200000001776f9fac34a5333753fba7f8359f3489a3ab4d2aa05eda6d6d06482f53c94766000000006b483045022100e042e42914a1e4869e1482e656d3d1b531a913bd9e04dd7aceb76da0a5fe62c602207574d3c9c0207938b02897bc8d56972f22c0bf911441c21a5fbfd650ad4f59f50121028cb9acf7d4f2a89e12f7bda4df9541b41c1695c9ce1480fdee015066519d7f44feffffff0260d5d305000000001976a914fd8f96e15b0c7deb99715959245524cd838d7f2788ac40b0cd00000000001976a914fd4c53374782f207a42267945c1b6eb8dd92622b88ac04c31400"
    }, 
    {
      "txid": "c377eb95f17ace5a670aa0f125a027458934e6b1390990c9f7bca8375ce3d94e",
      "hash": "c377eb95f17ace5a670aa0f125a027458934e6b1390990c9f7bca8375ce3d94e",
      "version": 1,
      "size": 226,
      "vsize": 226,
      "locktime": 0,
      "vin": [
        {
          "txid": "65516d208abac58dbd180f99390ecb61833a5ffda90e3d08e2d55cf8ba768557",
          "vout": 1,
          "scriptSig": {
            "asm": "3045022100ead13a60ce6d9039215e26c8f1d38bf2fbe006ee7f4f679c2b85b77eec42cc9a022020de0fac32aa9355dbebe23862dfd3d7e384d787846192b3e4e786913764476e[ALL] 032a9a50145eebf06dd0de51fb3e0d3c10041973c2f60a09544806cf860b25bc44",
            "hex": "483045022100ead13a60ce6d9039215e26c8f1d38bf2fbe006ee7f4f679c2b85b77eec42cc9a022020de0fac32aa9355dbebe23862dfd3d7e384d787846192b3e4e786913764476e0121032a9a50145eebf06dd0de51fb3e0d3c10041973c2f60a09544806cf860b25bc44"
          },
          "sequence": 4294967295
        }
      ],
      "vout": [
        {
          "value": 58.69447641,
          "n": 0,
          "scriptPubKey": {
            "asm": "OP_DUP OP_HASH160 8b55caa3683320069ba0ddc8800b22b922e0c956 OP_EQUALVERIFY OP_CHECKSIG",
            "hex": "76a9148b55caa3683320069ba0ddc8800b22b922e0c95688ac",
            "reqSigs": 1,
            "type": "pubkeyhash",
            "addresses": [
              "LXvgxn9e22G4VXy6gNcvmTkUXwSsJPiZWo"
            ]
          }
        }, 
        {
          "value": 2.15556684,
          "n": 1,
          "scriptPubKey": {
            "asm": "OP_DUP OP_HASH160 8d012406117d434bcd41153720281ca177b90d46 OP_EQUALVERIFY OP_CHECKSIG",
            "hex": "76a9148d012406117d434bcd41153720281ca177b90d4688ac",
            "reqSigs": 1,
            "type": "pubkeyhash",
            "addresses": [
              "LY5WuX62AP4oBp3HbfivEz77E8zcDdsXLX"
            ]
          }
        }
      ],
      "hex": "0100000001578576baf85cd5e2083d0ea9fd5f3a8361cb0e39990f18bd8dc5ba8a206d5165010000006b483045022100ead13a60ce6d9039215e26c8f1d38bf2fbe006ee7f4f679c2b85b77eec42cc9a022020de0fac32aa9355dbebe23862dfd3d7e384d787846192b3e4e786913764476e0121032a9a50145eebf06dd0de51fb3e0d3c10041973c2f60a09544806cf860b25bc44ffffffff02d9a9d85d010000001976a9148b55caa3683320069ba0ddc8800b22b922e0c95688ac4c22d90c000000001976a9148d012406117d434bcd41153720281ca177b90d4688ac00000000"
    }, 
    {
      "txid": "f0121cd98ae94ec5cd0ae6ed14624bb2a99e59f6414be4569a31e4850728d6a3",
      "hash": "f0121cd98ae94ec5cd0ae6ed14624bb2a99e59f6414be4569a31e4850728d6a3",
      "version": 1,
      "size": 226,
      "vsize": 226,
      "locktime": 0,
      "vin": [
        {
          "txid": "8987edcc93e987f92f707ba7effe920f49b5d67a3c004e74d5553e8a5ee40808",
          "vout": 0,
          "scriptSig": {
            "asm": "3045022100a8b854f5a832f4881af78658f792303817b2d0e4c49db4633b0b2bffe820e6df022007aefcdb7656dce6e86a4a3e90578b2de9d72936ba69b50767f3d60a3e824707[ALL] 03db24d257f32d327831b254cd1c9af0ed2f991c24e7b6ad9cb17df70f9423d283",
            "hex": "483045022100a8b854f5a832f4881af78658f792303817b2d0e4c49db4633b0b2bffe820e6df022007aefcdb7656dce6e86a4a3e90578b2de9d72936ba69b50767f3d60a3e824707012103db24d257f32d327831b254cd1c9af0ed2f991c24e7b6ad9cb17df70f9423d283"
          },
          "sequence": 4294967295
        }
      ],
      "vout": [
        {
          "value": 0.00538487,
          "n": 0,
          "scriptPubKey": {
            "asm": "OP_DUP OP_HASH160 356717c06284cdd38e477bc4dd9ee55f52fb5fb2 OP_EQUALVERIFY OP_CHECKSIG",
            "hex": "76a914356717c06284cdd38e477bc4dd9ee55f52fb5fb288ac",
            "reqSigs": 1,
            "type": "pubkeyhash",
            "addresses": [
              "LQ6KaPgdawNmeoWf2QYxWJ49PDNrKjq8Ta"
            ]
          }
        }, 
        {
          "value": 0.74039768,
          "n": 1,
          "scriptPubKey": {
            "asm": "OP_DUP OP_HASH160 43e90e4918c53f015a71746a8831f410e6f9569d OP_EQUALVERIFY OP_CHECKSIG",
            "hex": "76a91443e90e4918c53f015a71746a8831f410e6f9569d88ac",
            "reqSigs": 1,
            "type": "pubkeyhash",
            "addresses": [
              "LRR2j4pgvuHQGJMAPXSap2axVxpdfgnF5t"
            ]
          }
        }
      ],
      "hex": "01000000010808e45e8a3e55d5744e003c7ad6b5490f92feefa77b702ff987e993cced8789000000006b483045022100a8b854f5a832f4881af78658f792303817b2d0e4c49db4633b0b2bffe820e6df022007aefcdb7656dce6e86a4a3e90578b2de9d72936ba69b50767f3d60a3e824707012103db24d257f32d327831b254cd1c9af0ed2f991c24e7b6ad9cb17df70f9423d283ffffffff0277370800000000001976a914356717c06284cdd38e477bc4dd9ee55f52fb5fb288acd8c16904000000001976a91443e90e4918c53f015a71746a8831f410e6f9569d88ac00000000"
    }, 
    {
      "txid": "5dc6a35fdfae7ed7eb400438f8e13031b4fa802186ab58761154002ca92787b8",
      "hash": "5dc6a35fdfae7ed7eb400438f8e13031b4fa802186ab58761154002ca92787b8",
      "version": 1,
      "size": 226,
      "vsize": 226,
      "locktime": 0,
      "vin": [
        {
          "txid": "ce95d735794900c647d37d201a3403c4ee37008953ebed9b8326776af85b5edb",
          "vout": 1,
          "scriptSig": {
            "asm": "3045022100be69ac353b558fc088705e84df0212725a16db4bab0697683492e1cfe46410d0022046af054dd83118f8241a3742b1cc13a86228beb4bda8ed9e3cdf0c3c02271bc0[ALL] 0310692e9da23453d0194264b87689b1556ff58424a69be2be11b7bf77119a3383",
            "hex": "483045022100be69ac353b558fc088705e84df0212725a16db4bab0697683492e1cfe46410d0022046af054dd83118f8241a3742b1cc13a86228beb4bda8ed9e3cdf0c3c02271bc001210310692e9da23453d0194264b87689b1556ff58424a69be2be11b7bf77119a3383"
          },
          "sequence": 4294967295
        }
      ],
      "vout": [
        {
          "value": 67.94026458,
          "n": 0,
          "scriptPubKey": {
            "asm": "OP_DUP OP_HASH160 21093e2d366ff1279eef89ca86a66abb7e7cd350 OP_EQUALVERIFY OP_CHECKSIG",
            "hex": "76a91421093e2d366ff1279eef89ca86a66abb7e7cd35088ac",
            "reqSigs": 1,
            "type": "pubkeyhash",
            "addresses": [
              "LNEddkSZzcLzkhNN647jt7arqg5pxoVMBt"
            ]
          }
        }, 
        {
          "value": 4.20089437,
          "n": 1,
          "scriptPubKey": {
            "asm": "OP_DUP OP_HASH160 c54289c5c7fe355c25e4dba759d9ad4f10064d11 OP_EQUALVERIFY OP_CHECKSIG",
            "hex": "76a914c54289c5c7fe355c25e4dba759d9ad4f10064d1188ac",
            "reqSigs": 1,
            "type": "pubkeyhash",
            "addresses": [
              "LdCy6A4PJyT2oH5g1BKUn7afUsk34Wdxqb"
            ]
          }
        }
      ],
      "hex": "0100000001db5e5bf86a7726839bedeb53890037eec403341a207dd347c600497935d795ce010000006b483045022100be69ac353b558fc088705e84df0212725a16db4bab0697683492e1cfe46410d0022046af054dd83118f8241a3742b1cc13a86228beb4bda8ed9e3cdf0c3c02271bc001210310692e9da23453d0194264b87689b1556ff58424a69be2be11b7bf77119a3383ffffffff02da9df494010000001976a91421093e2d366ff1279eef89ca86a66abb7e7cd35088ac5d0e0a19000000001976a914c54289c5c7fe355c25e4dba759d9ad4f10064d1188ac00000000"
    }, 
    {
      "txid": "5a7f7627bfe9e65d4ae19140a4c24b289b7080fda139faba008f91cba109e3d8",
      "hash": "5a7f7627bfe9e65d4ae19140a4c24b289b7080fda139faba008f91cba109e3d8",
      "version": 2,
      "size": 226,
      "vsize": 226,
      "locktime": 1360738,
      "vin": [
        {
          "txid": "82c8da59c34233cc57d8c93f0d9343f25457421b6c579b094e03e079a9e1f3c8",
          "vout": 1,
          "scriptSig": {
            "asm": "30450221009157c611b92c0cc93fe5c54553d24f486e9f05e243bf5d2c2269dc76efdab23302202130013e7951fbf2de23938100eea3f0728b2ceb676d3267a98cb827c1846254[ALL] 0289083406725a24bbd6445b6c8531fa8c59c6ed0ce36f9cd10270db1d41d87f83",
            "hex": "4830450221009157c611b92c0cc93fe5c54553d24f486e9f05e243bf5d2c2269dc76efdab23302202130013e7951fbf2de23938100eea3f0728b2ceb676d3267a98cb827c184625401210289083406725a24bbd6445b6c8531fa8c59c6ed0ce36f9cd10270db1d41d87f83"
          },
          "sequence": 4294967294
        }
      ],
      "vout": [
        {
          "value": 0.55460000,
          "n": 0,
          "scriptPubKey": {
            "asm": "OP_DUP OP_HASH160 9d1133c7d1b07202fb836f5c15cc8341d3471aa7 OP_EQUALVERIFY OP_CHECKSIG",
            "hex": "76a9149d1133c7d1b07202fb836f5c15cc8341d3471aa788ac",
            "reqSigs": 1,
            "type": "pubkeyhash",
            "addresses": [
              "LZYSxZibbeNvvPMCpVEKMCPwzzqdekzqRU"
            ]
          }
        }, 
        {
          "value": 0.23195137,
          "n": 1,
          "scriptPubKey": {
            "asm": "OP_DUP OP_HASH160 d38c9d69cb0c33c8ae0c9a681b6da7516cba2921 OP_EQUALVERIFY OP_CHECKSIG",
            "hex": "76a914d38c9d69cb0c33c8ae0c9a681b6da7516cba292188ac",
            "reqSigs": 1,
            "type": "pubkeyhash",
            "addresses": [
              "LeWXHnPnwunAAZkhx5AMkDGNrUiJjUbWwx"
            ]
          }
        }
      ],
      "hex": "0200000001c8f3e1a979e0034e099b576c1b425754f243930d3fc9d857cc3342c359dac882010000006b4830450221009157c611b92c0cc93fe5c54553d24f486e9f05e243bf5d2c2269dc76efdab23302202130013e7951fbf2de23938100eea3f0728b2ceb676d3267a98cb827c184625401210289083406725a24bbd6445b6c8531fa8c59c6ed0ce36f9cd10270db1d41d87f83feffffff02a0404e03000000001976a9149d1133c7d1b07202fb836f5c15cc8341d3471aa788ac01ee6101000000001976a914d38c9d69cb0c33c8ae0c9a681b6da7516cba292188ac62c31400"
    }, 
    {
      "txid": "adf425ca3f8155e690ffe53daa2d7925b546993bdd0a25e38f5990f1ab15e1ff",
      "hash": "adf425ca3f8155e690ffe53daa2d7925b546993bdd0a25e38f5990f1ab15e1ff",
      "version": 1,
      "size": 226,
      "vsize": 226,
      "locktime": 0,
      "vin": [
        {
          "txid": "6ce82fa5663d26adbcbdf0ee0c079515d59d4638d3cddcc38728443238b7f864",
          "vout": 1,
          "scriptSig": {
            "asm": "30450221009010d9377bca73829f76f69e4cb0b7d2ca2bb42ad82459f3c01c6606d63afac5022066d8c2bc6bb4dd7528b663ea2fe9146fa16eae67b425e6eb89697dc232c66ca5[ALL] 0383e393c8d1674942bb4285d791bc333cf31d9dff2fc8570aa20bffbbd13bf8a1",
            "hex": "4830450221009010d9377bca73829f76f69e4cb0b7d2ca2bb42ad82459f3c01c6606d63afac5022066d8c2bc6bb4dd7528b663ea2fe9146fa16eae67b425e6eb89697dc232c66ca501210383e393c8d1674942bb4285d791bc333cf31d9dff2fc8570aa20bffbbd13bf8a1"
          },
          "sequence": 4294967295
        }
      ],
      "vout": [
        {
          "value": 3.68995460,
          "n": 0,
          "scriptPubKey": {
            "asm": "OP_DUP OP_HASH160 b108c4711ab63e76026fba5ef5311a8918ebe66d OP_EQUALVERIFY OP_CHECKSIG",
            "hex": "76a914b108c4711ab63e76026fba5ef5311a8918ebe66d88ac",
            "reqSigs": 1,
            "type": "pubkeyhash",
            "addresses": [
              "LbN2NLHBVFM16z8p9zewaFmi6CPJmZ7CzF"
            ]
          }
        }, 
        {
          "value": 69.35483604,
          "n": 1,
          "scriptPubKey": {
            "asm": "OP_DUP OP_HASH160 bdfc3ac9e91d61c8d9f34eb0380d6a40862a166b OP_EQUALVERIFY OP_CHECKSIG",
            "hex": "76a914bdfc3ac9e91d61c8d9f34eb0380d6a40862a166b88ac",
            "reqSigs": 1,
            "type": "pubkeyhash",
            "addresses": [
              "LcYW8h5Yv75SPezEm1CQRiaBN9m7mmEhAM"
            ]
          }
        }
      ],
      "hex": "010000000164f8b73832442887c3dccdd338469dd51595070ceef0bdbcad263d66a52fe86c010000006b4830450221009010d9377bca73829f76f69e4cb0b7d2ca2bb42ad82459f3c01c6606d63afac5022066d8c2bc6bb4dd7528b663ea2fe9146fa16eae67b425e6eb89697dc232c66ca501210383e393c8d1674942bb4285d791bc333cf31d9dff2fc8570aa20bffbbd13bf8a1ffffffff02846cfe15000000001976a914b108c4711ab63e76026fba5ef5311a8918ebe66d88acd414639d010000001976a914bdfc3ac9e91d61c8d9f34eb0380d6a40862a166b88ac00000000"
    }
  ],
  "time": 1517474151,
  "mediantime": 1517473674,
  "nonce": 4037521863,
  "bits": "1a042eae",
  "difficulty": 4011378.762614286,
  "chainwork": "000000000000000000000000000000000000000000000035389156e82a81734a",
  "previousblockhash": "49711a87db85184f37f719a07689c422c9692fd45a7f0e074b40dbc8cbb27826",
  "nextblockhash": "f6b718fc8e19a81169e3461a310648fa4aabfc797604789bb08e5be018bd7f3f"
}
