{
  "hash": "b37c38cb25210876f9d30ada48422bb98d114ac85f69bebec0e35be10d395737",
  "confirmations": 1670,
  "strippedsize": 4207,
  "size": 4243,
  "weight": 16864,
  "height": 1359324,
  "version": 536870912,
  "versionHex": "20000000",
  "merkleroot": "b55b0532282b01f8bbff5906ab3f12f01c3d2ac822f1f60647cec05064018b59",
  "tx": [
    {
      "txid": "96a2afe574940cca41b75d397fb7508d5629f8ca8870c8455ed090d4ae43edd9",
      "hash": "a9688b835958b84ff109c62e047c10c7f781548bcd726ceb2a89d2e32bd397ee",
      "version": 1,
      "size": 253,
      "vsize": 226,
      "locktime": 0,
      "vin": [
        {
          "coinbase": "03dcbd1441d69beada95a90f41d69bead982a5fc2f4c54432e544f502ffabe6d6d736aa2be1d14a646ee4463301782b309b1dde94f2aea187592083c13636c5afc01000000000000007a31bf240100000000000000",
          "sequence": 4294967295
        }
      ],
      "vout": [
        {
          "value": 25.01182500,
          "n": 0,
          "scriptPubKey": {
            "asm": "OP_DUP OP_HASH160 0c617fdb2ea42aed30a509595ee21ba3f6688db0 OP_EQUALVERIFY OP_CHECKSIG",
            "hex": "76a9140c617fdb2ea42aed30a509595ee21ba3f6688db088ac",
            "reqSigs": 1,
            "type": "pubkeyhash",
            "addresses": [
              "LLMRAtr3qBje2ySEa3CnZ55LA4TQMWnRY3"
            ]
          }
        }, 
        {
          "value": 0.00000000,
          "n": 1,
          "scriptPubKey": {
            "asm": "OP_RETURN aa21a9ed7da6f4a7565770ec09b84b6aad5a939f4920139904f91ffa3d1a8364c0c0166d",
            "hex": "6a24aa21a9ed7da6f4a7565770ec09b84b6aad5a939f4920139904f91ffa3d1a8364c0c0166d",
            "type": "nulldata"
          }
        }
      ],
      "hex": "010000000001010000000000000000000000000000000000000000000000000000000000000000ffffffff5503dcbd1441d69beada95a90f41d69bead982a5fc2f4c54432e544f502ffabe6d6d736aa2be1d14a646ee4463301782b309b1dde94f2aea187592083c13636c5afc01000000000000007a31bf240100000000000000ffffffff0224041595000000001976a9140c617fdb2ea42aed30a509595ee21ba3f6688db088ac0000000000000000266a24aa21a9ed7da6f4a7565770ec09b84b6aad5a939f4920139904f91ffa3d1a8364c0c0166d0120000000000000000000000000000000000000000000000000000000000000000000000000"
    }, 
    {
      "txid": "fa3e89ca1500de65f667d1fb480a8054be66c33efc4d4e05558ab4d071312a19",
      "hash": "fa3e89ca1500de65f667d1fb480a8054be66c33efc4d4e05558ab4d071312a19",
      "version": 1,
      "size": 191,
      "vsize": 191,
      "locktime": 0,
      "vin": [
        {
          "txid": "53e39391eed352ad88d62dbd6e990b396f608ffb773d631b5a3ce510ab949ae6",
          "vout": 9,
          "scriptSig": {
            "asm": "3044022017b1190806fe366db49c2b6b15b2020ec8a2d0760dcb71fa078ff69e8828b0c102203884b90cae96d7275bf2ee9f1550cdc29d7fe1a1c7fe60f7699cc02a246804df[ALL] 030e7114f2738a8fec7f1717cc0651365dc16bd07ae0da4f345259b4e018e3b79e",
            "hex": "473044022017b1190806fe366db49c2b6b15b2020ec8a2d0760dcb71fa078ff69e8828b0c102203884b90cae96d7275bf2ee9f1550cdc29d7fe1a1c7fe60f7699cc02a246804df0121030e7114f2738a8fec7f1717cc0651365dc16bd07ae0da4f345259b4e018e3b79e"
          },
          "sequence": 4294967295
        }
      ],
      "vout": [
        {
          "value": 0.74399573,
          "n": 0,
          "scriptPubKey": {
            "asm": "OP_DUP OP_HASH160 85cf8029738a949e5722bff370c0f926c161ebc3 OP_EQUALVERIFY OP_CHECKSIG",
            "hex": "76a91485cf8029738a949e5722bff370c0f926c161ebc388ac",
            "reqSigs": 1,
            "type": "pubkeyhash",
            "addresses": [
              "LXRUi86ZRLaioWWtqNKsNAXoTWRNYK5Bd3"
            ]
          }
        }
      ],
      "hex": "0100000001e69a94ab10e53c5a1b633d77fb8f606f390b996ebd2dd688ad52d3ee9193e353090000006a473044022017b1190806fe366db49c2b6b15b2020ec8a2d0760dcb71fa078ff69e8828b0c102203884b90cae96d7275bf2ee9f1550cdc29d7fe1a1c7fe60f7699cc02a246804df0121030e7114f2738a8fec7f1717cc0651365dc16bd07ae0da4f345259b4e018e3b79effffffff01553f6f04000000001976a91485cf8029738a949e5722bff370c0f926c161ebc388ac00000000"
    }, 
    {
      "txid": "e8cb58fe71311d5e8e3815dc36816b946f587380bd523fad128869684601e9df",
      "hash": "e8cb58fe71311d5e8e3815dc36816b946f587380bd523fad128869684601e9df",
      "version": 1,
      "size": 225,
      "vsize": 225,
      "locktime": 0,
      "vin": [
        {
          "txid": "622c9155727e40b244562eb05493e312e30a5f76231d17e73b790c6b6c14cd6e",
          "vout": 1,
          "scriptSig": {
            "asm": "3044022063052af81f043e50044d6e0bd67fe7dbcbd3ec204c7b53cbd68b026b45113e6502205f8d71b588fe8b6f26ed3c014c98a9d72735ee44d05adf5975e9b4e4c3be1b4a[ALL] 03091d77e72b598b42be94d2addc4b742206575532803dc247608f08bc9c1acada",
            "hex": "473044022063052af81f043e50044d6e0bd67fe7dbcbd3ec204c7b53cbd68b026b45113e6502205f8d71b588fe8b6f26ed3c014c98a9d72735ee44d05adf5975e9b4e4c3be1b4a012103091d77e72b598b42be94d2addc4b742206575532803dc247608f08bc9c1acada"
          },
          "sequence": 4294967295
        }
      ],
      "vout": [
        {
          "value": 0.01023829,
          "n": 0,
          "scriptPubKey": {
            "asm": "OP_DUP OP_HASH160 725def71566c873284b359c3731b062d18722548 OP_EQUALVERIFY OP_CHECKSIG",
            "hex": "76a914725def71566c873284b359c3731b062d1872254888ac",
            "reqSigs": 1,
            "type": "pubkeyhash",
            "addresses": [
              "LVefppeetmNDzXW4Fcj31RjyMbGibr8zTr"
            ]
          }
        }, 
        {
          "value": 0.77376579,
          "n": 1,
          "scriptPubKey": {
            "asm": "OP_DUP OP_HASH160 73407d7ee7253d79776d13a3337dd11a2387dde9 OP_EQUALVERIFY OP_CHECKSIG",
            "hex": "76a91473407d7ee7253d79776d13a3337dd11a2387dde988ac",
            "reqSigs": 1,
            "type": "pubkeyhash",
            "addresses": [
              "LVjME8dc2jXhbaogF6fitUQhrEGufEB9h5"
            ]
          }
        }
      ],
      "hex": "01000000016ecd146c6b0c793be7171d23765f0ae312e39354b02e5644b2407e7255912c62010000006a473044022063052af81f043e50044d6e0bd67fe7dbcbd3ec204c7b53cbd68b026b45113e6502205f8d71b588fe8b6f26ed3c014c98a9d72735ee44d05adf5975e9b4e4c3be1b4a012103091d77e72b598b42be94d2addc4b742206575532803dc247608f08bc9c1acadaffffffff02559f0f00000000001976a914725def71566c873284b359c3731b062d1872254888ac43ac9c04000000001976a91473407d7ee7253d79776d13a3337dd11a2387dde988ac00000000"
    }, 
    {
      "txid": "01703d9bf17785c6df91d5a0d31dd07ac550f7f0de521b24e48c9bd28e6871ae",
      "hash": "01703d9bf17785c6df91d5a0d31dd07ac550f7f0de521b24e48c9bd28e6871ae",
      "version": 1,
      "size": 226,
      "vsize": 226,
      "locktime": 0,
      "vin": [
        {
          "txid": "7addfa68f3df04908e6a8e72e01df1a1adc98f92e6d89ae7879ee61fd7fde820",
          "vout": 2,
          "scriptSig": {
            "asm": "3045022100ac197a42e9660acce9c5e690a2762e4f0e64a0c8e58427fbcc6dd8e625bb419702200e1c123753434f0b31e95c170bf6a21f18325b442285456794b0c68d199207f7[ALL] 0328c9ae635abf580c261c44815dc1aac309e16ff26250525b7e99951369d2b8c7",
            "hex": "483045022100ac197a42e9660acce9c5e690a2762e4f0e64a0c8e58427fbcc6dd8e625bb419702200e1c123753434f0b31e95c170bf6a21f18325b442285456794b0c68d199207f701210328c9ae635abf580c261c44815dc1aac309e16ff26250525b7e99951369d2b8c7"
          },
          "sequence": 4294967295
        }
      ],
      "vout": [
        {
          "value": 0.09900000,
          "n": 0,
          "scriptPubKey": {
            "asm": "OP_DUP OP_HASH160 b346079dcb6e50385a46867ae5b65ca0ac640908 OP_EQUALVERIFY OP_CHECKSIG",
            "hex": "76a914b346079dcb6e50385a46867ae5b65ca0ac64090888ac",
            "reqSigs": 1,
            "type": "pubkeyhash",
            "addresses": [
              "LbZs7JXsB6DXjpPASshBR4WCWAhsDHqtZV"
            ]
          }
        }, 
        {
          "value": 97.82365382,
          "n": 1,
          "scriptPubKey": {
            "asm": "OP_DUP OP_HASH160 c6e3836c2f4cd8f9c53e32813ded99ac0ce001f1 OP_EQUALVERIFY OP_CHECKSIG",
            "hex": "76a914c6e3836c2f4cd8f9c53e32813ded99ac0ce001f188ac",
            "reqSigs": 1,
            "type": "pubkeyhash",
            "addresses": [
              "LdMac6qdwFnBCVXN96dvoPjzbcE36gzs64"
            ]
          }
        }
      ],
      "hex": "010000000120e8fdd71fe69e87e79ad8e6928fc9ada1f11de0728e6a8e9004dff368fadd7a020000006b483045022100ac197a42e9660acce9c5e690a2762e4f0e64a0c8e58427fbcc6dd8e625bb419702200e1c123753434f0b31e95c170bf6a21f18325b442285456794b0c68d199207f701210328c9ae635abf580c261c44815dc1aac309e16ff26250525b7e99951369d2b8c7ffffffff02e00f9700000000001976a914b346079dcb6e50385a46867ae5b65ca0ac64090888acc60c1347020000001976a914c6e3836c2f4cd8f9c53e32813ded99ac0ce001f188ac00000000"
    }, 
    {
      "txid": "bf09eeb511ec41c56491b01b677d33f7f3572bef91d5f1ab99517b9ebf3399b7",
      "hash": "bf09eeb511ec41c56491b01b677d33f7f3572bef91d5f1ab99517b9ebf3399b7",
      "version": 1,
      "size": 519,
      "vsize": 519,
      "locktime": 0,
      "vin": [
        {
          "txid": "c390612b077879d7f40572ac9d5c886e64c8b7c8bd9598ae8fb7a2b85098c7b7",
          "vout": 18,
          "scriptSig": {
            "asm": "304402206fbbb93054b0290b3b3f061456e9c71b11785aebef3bcad310b7a7cdb56f692402205605c5a162d13cdf5617d265b6f3cc714a4fc38ed1b488605c2c1d0ae70818cf[ALL] 0304af4624c3cdcf5c4dd84679a92f957118ddf489cb06fed567b323eb43a61c4b",
            "hex": "47304402206fbbb93054b0290b3b3f061456e9c71b11785aebef3bcad310b7a7cdb56f692402205605c5a162d13cdf5617d265b6f3cc714a4fc38ed1b488605c2c1d0ae70818cf01210304af4624c3cdcf5c4dd84679a92f957118ddf489cb06fed567b323eb43a61c4b"
          },
          "sequence": 4294967295
        }, 
        {
          "txid": "1e1b79b54987af8f838fd24707805226972e15a775348fbf94994af0b0d4f9a0",
          "vout": 0,
          "scriptSig": {
            "asm": "3044022071de6586b14230c71eaec7f6705dd1f9e81e75b2907f8a65f0bce107db9b0402022009569531b6ae29c33036ff6baccd0e1ab55a6f3757d1180dd787447dd9e2ff26[ALL] 027ff15589f505c3b1a11eaebc6a2bf3881567dad47b088184f17a2b2a02bd6d27",
            "hex": "473044022071de6586b14230c71eaec7f6705dd1f9e81e75b2907f8a65f0bce107db9b0402022009569531b6ae29c33036ff6baccd0e1ab55a6f3757d1180dd787447dd9e2ff260121027ff15589f505c3b1a11eaebc6a2bf3881567dad47b088184f17a2b2a02bd6d27"
          },
          "sequence": 4294967295
        }, 
        {
          "txid": "7deae4f4d479f1f1c7dff14148fdb7837f638a70a0fe18d81e7d7fdcf98d386a",
          "vout": 0,
          "scriptSig": {
            "asm": "304402206648d0bb8cad6b345e3be3a016b4e82d05d99651c0c7326605e6e5f576514de30220794104023df1c5ba7f414b893dce24886e15a8afd54300f3a37b7209f653d16e[ALL] 02fffa2c9afa267f8a53c3ff3234828871927de8c78c079e10c47c504240800f06",
            "hex": "47304402206648d0bb8cad6b345e3be3a016b4e82d05d99651c0c7326605e6e5f576514de30220794104023df1c5ba7f414b893dce24886e15a8afd54300f3a37b7209f653d16e012102fffa2c9afa267f8a53c3ff3234828871927de8c78c079e10c47c504240800f06"
          },
          "sequence": 4294967295
        }
      ],
      "vout": [
        {
          "value": 2.89028321,
          "n": 0,
          "scriptPubKey": {
            "asm": "OP_DUP OP_HASH160 e323e2cbd26496282754621772bceba7e216dacb OP_EQUALVERIFY OP_CHECKSIG",
            "hex": "76a914e323e2cbd26496282754621772bceba7e216dacb88ac",
            "reqSigs": 1,
            "type": "pubkeyhash",
            "addresses": [
              "LfvxeA1Ui13wDTHtKizvhC3KYJguqHJGUK"
            ]
          }
        }, 
        {
          "value": 0.01030625,
          "n": 1,
          "scriptPubKey": {
            "asm": "OP_DUP OP_HASH160 ec3e982377dd7304bfd425a43bb17ca6914da5c2 OP_EQUALVERIFY OP_CHECKSIG",
            "hex": "76a914ec3e982377dd7304bfd425a43bb17ca6914da5c288ac",
            "reqSigs": 1,
            "type": "pubkeyhash",
            "addresses": [
              "Lgm6icV1NAKDgsVhwjnqHE72py3ZR1JqLC"
            ]
          }
        }
      ],
      "hex": "0100000003b7c79850b8a2b78fae9895bdc8b7c8646e885c9dac7205f4d77978072b6190c3120000006a47304402206fbbb93054b0290b3b3f061456e9c71b11785aebef3bcad310b7a7cdb56f692402205605c5a162d13cdf5617d265b6f3cc714a4fc38ed1b488605c2c1d0ae70818cf01210304af4624c3cdcf5c4dd84679a92f957118ddf489cb06fed567b323eb43a61c4bffffffffa0f9d4b0f04a9994bf8f3475a7152e972652800747d28f838faf8749b5791b1e000000006a473044022071de6586b14230c71eaec7f6705dd1f9e81e75b2907f8a65f0bce107db9b0402022009569531b6ae29c33036ff6baccd0e1ab55a6f3757d1180dd787447dd9e2ff260121027ff15589f505c3b1a11eaebc6a2bf3881567dad47b088184f17a2b2a02bd6d27ffffffff6a388df9dc7f7d1ed818fea0708a637f83b7fd4841f1dfc7f1f179d4f4e4ea7d000000006a47304402206648d0bb8cad6b345e3be3a016b4e82d05d99651c0c7326605e6e5f576514de30220794104023df1c5ba7f414b893dce24886e15a8afd54300f3a37b7209f653d16e012102fffa2c9afa267f8a53c3ff3234828871927de8c78c079e10c47c504240800f06ffffffff02e1383a11000000001976a914e323e2cbd26496282754621772bceba7e216dacb88ace1b90f00000000001976a914ec3e982377dd7304bfd425a43bb17ca6914da5c288ac00000000"
    }, 
    {
      "txid": "c8064ef50b246f97bf9da1164bec0cfe9f38160cdfae06af6b190b6e5ae1d3db",
      "hash": "c8064ef50b246f97bf9da1164bec0cfe9f38160cdfae06af6b190b6e5ae1d3db",
      "version": 1,
      "size": 666,
      "vsize": 666,
      "locktime": 0,
      "vin": [
        {
          "txid": "7e647566b0d26c5f9a9a8cdb2618d4fc6dbdb8f2e75a49a0da60093871b7d167",
          "vout": 1,
          "scriptSig": {
            "asm": "30440220608d36bf5a8d71e99a8db2d9b1c1fbc3525d51fe92fe561fdfed1d9d56109de502204eb1375399a7bb519d3bdfb064d2af066be78b8f4baa3b6ce7df13e647ea959a[ALL] 03b381a7e835e7bfe6bfcda9f19bd31e80325582b138184fd8ec955eeca42d0757",
            "hex": "4730440220608d36bf5a8d71e99a8db2d9b1c1fbc3525d51fe92fe561fdfed1d9d56109de502204eb1375399a7bb519d3bdfb064d2af066be78b8f4baa3b6ce7df13e647ea959a012103b381a7e835e7bfe6bfcda9f19bd31e80325582b138184fd8ec955eeca42d0757"
          },
          "sequence": 4294967295
        }, 
        {
          "txid": "065344ecc5280e8083ec6bdcd0dff5a84d3179343c1105a2748e9cc77870c1f3",
          "vout": 0,
          "scriptSig": {
            "asm": "304402203f789c7cec3555f0099f55897f6060123f70aa9231cbb82743adaaf31d29284302205b78869344dd088e36d2ea44e955a91feeba27028223b01178141d5ac42983e5[ALL] 02b28b08d4719391b00bb2164cdc3c1f9f73ae6cea126042970a6d6d1aef1d32f8",
            "hex": "47304402203f789c7cec3555f0099f55897f6060123f70aa9231cbb82743adaaf31d29284302205b78869344dd088e36d2ea44e955a91feeba27028223b01178141d5ac42983e5012102b28b08d4719391b00bb2164cdc3c1f9f73ae6cea126042970a6d6d1aef1d32f8"
          },
          "sequence": 4294967295
        }, 
        {
          "txid": "89e6387b83e5c3cbdb4dab9deb071f8803ef82a8bbbe05080d3d7c0df19e40ab",
          "vout": 43,
          "scriptSig": {
            "asm": "3044022073182adfa361bc8fa3919efd771e0f2dd94c666344dcfff221caf03e353ab78802206d4dc23183bbe3bd086dd894c3d839e2ae37ef66c0671d69922cf56dd2d1ef4e[ALL] 035ebd82f2b2ab066d90bf26b04365013cd56b5e6323b99c2c12e31aa2bf443eea",
            "hex": "473044022073182adfa361bc8fa3919efd771e0f2dd94c666344dcfff221caf03e353ab78802206d4dc23183bbe3bd086dd894c3d839e2ae37ef66c0671d69922cf56dd2d1ef4e0121035ebd82f2b2ab066d90bf26b04365013cd56b5e6323b99c2c12e31aa2bf443eea"
          },
          "sequence": 4294967295
        }, 
        {
          "txid": "e983ce74fa9ad50304bf52d517d129395c5137a7e5841e92f2fae485483c732b",
          "vout": 8,
          "scriptSig": {
            "asm": "304402205f115c1536c1b0597a66290e7709b982a159162a18c72dee970dfb08687aa4d40220009d12826b7bae5a0042ade103c45d51adae865996be5d70021802162d86b5da[ALL] 02836f218f310e6561e5ebd177836bf50e3b8650b006b2a594a86ca1a523b3e025",
            "hex": "47304402205f115c1536c1b0597a66290e7709b982a159162a18c72dee970dfb08687aa4d40220009d12826b7bae5a0042ade103c45d51adae865996be5d70021802162d86b5da012102836f218f310e6561e5ebd177836bf50e3b8650b006b2a594a86ca1a523b3e025"
          },
          "sequence": 4294967295
        }
      ],
      "vout": [
        {
          "value": 0.01000135,
          "n": 0,
          "scriptPubKey": {
            "asm": "OP_DUP OP_HASH160 a359627a0633a8900cd38730b015364c1debac63 OP_EQUALVERIFY OP_CHECKSIG",
            "hex": "76a914a359627a0633a8900cd38730b015364c1debac6388ac",
            "reqSigs": 1,
            "type": "pubkeyhash",
            "addresses": [
              "La7fV38AjCBDhu4dKbVnjgEjLGPL8DdtRa"
            ]
          }
        }, 
        {
          "value": 4.47095956,
          "n": 1,
          "scriptPubKey": {
            "asm": "OP_DUP OP_HASH160 7540ae8d8408a7172a6680b536154533444a453b OP_EQUALVERIFY OP_CHECKSIG",
            "hex": "76a9147540ae8d8408a7172a6680b536154533444a453b88ac",
            "reqSigs": 1,
            "type": "pubkeyhash",
            "addresses": [
              "LVuvoq8fL2gA63cQDtmWXUSGRLvSD9AKUg"
            ]
          }
        }
      ],
      "hex": "010000000467d1b771380960daa0495ae7f2b8bd6dfcd41826db8c9a9a5f6cd2b06675647e010000006a4730440220608d36bf5a8d71e99a8db2d9b1c1fbc3525d51fe92fe561fdfed1d9d56109de502204eb1375399a7bb519d3bdfb064d2af066be78b8f4baa3b6ce7df13e647ea959a012103b381a7e835e7bfe6bfcda9f19bd31e80325582b138184fd8ec955eeca42d0757fffffffff3c17078c79c8e74a205113c3479314da8f5dfd0dc6bec83800e28c5ec445306000000006a47304402203f789c7cec3555f0099f55897f6060123f70aa9231cbb82743adaaf31d29284302205b78869344dd088e36d2ea44e955a91feeba27028223b01178141d5ac42983e5012102b28b08d4719391b00bb2164cdc3c1f9f73ae6cea126042970a6d6d1aef1d32f8ffffffffab409ef10d7c3d0d0805bebba882ef03881f07eb9dab4ddbcbc3e5837b38e6892b0000006a473044022073182adfa361bc8fa3919efd771e0f2dd94c666344dcfff221caf03e353ab78802206d4dc23183bbe3bd086dd894c3d839e2ae37ef66c0671d69922cf56dd2d1ef4e0121035ebd82f2b2ab066d90bf26b04365013cd56b5e6323b99c2c12e31aa2bf443eeaffffffff2b733c4885e4faf2921e84e5a737515c3929d117d552bf0403d59afa74ce83e9080000006a47304402205f115c1536c1b0597a66290e7709b982a159162a18c72dee970dfb08687aa4d40220009d12826b7bae5a0042ade103c45d51adae865996be5d70021802162d86b5da012102836f218f310e6561e5ebd177836bf50e3b8650b006b2a594a86ca1a523b3e025ffffffff02c7420f00000000001976a914a359627a0633a8900cd38730b015364c1debac6388ac9424a61a000000001976a9147540ae8d8408a7172a6680b536154533444a453b88ac00000000"
    }, 
    {
      "txid": "3ce9c43a9acf2b1560db19e857e22367e470cb63bc5bb2d765430c3108c7517b",
      "hash": "3ce9c43a9acf2b1560db19e857e22367e470cb63bc5bb2d765430c3108c7517b",
      "version": 1,
      "size": 1405,
      "vsize": 1405,
      "locktime": 0,
      "vin": [
        {
          "txid": "4dda1551de931194223186c37eb90a4292451b635ab44b783f416ecdc61a28be",
          "vout": 0,
          "scriptSig": {
            "asm": "3045022100b5672adef45bc614bc878e7f9aca32f3e0b46179aa42eb06e22392124503532c022062bd25f03711a05d1a07629c08a6f764e96664c68e44c7f6820df5a581d667b5[ALL] 028dfcf35e170ba5fed5686f7c9d7612e588b4b14c9ec9f5709d384b01ec50456e",
            "hex": "483045022100b5672adef45bc614bc878e7f9aca32f3e0b46179aa42eb06e22392124503532c022062bd25f03711a05d1a07629c08a6f764e96664c68e44c7f6820df5a581d667b50121028dfcf35e170ba5fed5686f7c9d7612e588b4b14c9ec9f5709d384b01ec50456e"
          },
          "sequence": 4294967295
        }, 
        {
          "txid": "47fd8ecc82cb66b5896b39ac2d956f2b3a163088fb451fa9e0615bcd8853a127",
          "vout": 0,
          "scriptSig": {
            "asm": "304402204dbac5d5d12ce67819848e9e56cf08a51ef68115d0b2cd86dcccd99f3e049dd80220793e4ac6640b0049fca635464d923b439b87328ef2afb958e951d93514daa686[ALL] 028dfcf35e170ba5fed5686f7c9d7612e588b4b14c9ec9f5709d384b01ec50456e",
            "hex": "47304402204dbac5d5d12ce67819848e9e56cf08a51ef68115d0b2cd86dcccd99f3e049dd80220793e4ac6640b0049fca635464d923b439b87328ef2afb958e951d93514daa6860121028dfcf35e170ba5fed5686f7c9d7612e588b4b14c9ec9f5709d384b01ec50456e"
          },
          "sequence": 4294967295
        }, 
        {
          "txid": "9ffd952c751a90504ededbf95109d4ac2439accd8dbbb77953b68e1d90c4d5f9",
          "vout": 1,
          "scriptSig": {
            "asm": "3045022100ac53b65dda09441d6ace400a5cf8e37f7403f346225c8812265070b18736090c022050722fd8757b6c5ef99d611f09d1d0406f63bdd5c938d49dd93b0eca757c630d[ALL] 028dfcf35e170ba5fed5686f7c9d7612e588b4b14c9ec9f5709d384b01ec50456e",
            "hex": "483045022100ac53b65dda09441d6ace400a5cf8e37f7403f346225c8812265070b18736090c022050722fd8757b6c5ef99d611f09d1d0406f63bdd5c938d49dd93b0eca757c630d0121028dfcf35e170ba5fed5686f7c9d7612e588b4b14c9ec9f5709d384b01ec50456e"
          },
          "sequence": 4294967295
        }, 
        {
          "txid": "b57a8e4ae5340e4dddd3c35f2b8f14703ab442f3999a6705fe39ae6ea02d1149",
          "vout": 0,
          "scriptSig": {
            "asm": "304402203f8ba1c7c9a135acb0f4386ddd5bd1d86a51f76f9002366e2bc6c6584ac86ab9022003e17ec31db768305f069f0cde01b3a01fff78953cebfcd3bb9ea2f25b2c4ce1[ALL] 028dfcf35e170ba5fed5686f7c9d7612e588b4b14c9ec9f5709d384b01ec50456e",
            "hex": "47304402203f8ba1c7c9a135acb0f4386ddd5bd1d86a51f76f9002366e2bc6c6584ac86ab9022003e17ec31db768305f069f0cde01b3a01fff78953cebfcd3bb9ea2f25b2c4ce10121028dfcf35e170ba5fed5686f7c9d7612e588b4b14c9ec9f5709d384b01ec50456e"
          },
          "sequence": 4294967295
        }, 
        {
          "txid": "d4eff4012e96f9c67e7b23518d8b35cffecb41ff3601b604631688788dc5570d",
          "vout": 1,
          "scriptSig": {
            "asm": "3045022100d1b5b28263d4e4bf6d203ba147294e1dfc30f6f17ceb577880fe304dd643d54a0220472a54d91748d4f8f015d9373a984871588f26394fee037db2f7092b2bd74d5f[ALL] 028dfcf35e170ba5fed5686f7c9d7612e588b4b14c9ec9f5709d384b01ec50456e",
            "hex": "483045022100d1b5b28263d4e4bf6d203ba147294e1dfc30f6f17ceb577880fe304dd643d54a0220472a54d91748d4f8f015d9373a984871588f26394fee037db2f7092b2bd74d5f0121028dfcf35e170ba5fed5686f7c9d7612e588b4b14c9ec9f5709d384b01ec50456e"
          },
          "sequence": 4294967295
        }, 
        {
          "txid": "a72b7d108fddf76703aa06243921e39563d6a5288454df3640031f225b1b6c6e",
          "vout": 0,
          "scriptSig": {
            "asm": "3044022048b0026dffc90e8c48599eb09442affbe30b2c8a2038677efb733bad7b996efb022047ece0e7a9f8aced23a10de428d6aae1c6a646f259febb508b0909488faf9494[ALL] 028dfcf35e170ba5fed5686f7c9d7612e588b4b14c9ec9f5709d384b01ec50456e",
            "hex": "473044022048b0026dffc90e8c48599eb09442affbe30b2c8a2038677efb733bad7b996efb022047ece0e7a9f8aced23a10de428d6aae1c6a646f259febb508b0909488faf94940121028dfcf35e170ba5fed5686f7c9d7612e588b4b14c9ec9f5709d384b01ec50456e"
          },
          "sequence": 4294967295
        }, 
        {
          "txid": "2f9e0eb4a72879704845cdb887dd80e04dbe8eb76f238e6edee84af8516bd97a",
          "vout": 1,
          "scriptSig": {
            "asm": "3044022079810f4e624b5f6373841b9325aee7a40a64f03f5b60c71862b53cc45b5010c30220472df0f2c246fda8aa530478f0bb823a79bccf4f8fc1fdba531891f6be57d2b7[ALL] 028dfcf35e170ba5fed5686f7c9d7612e588b4b14c9ec9f5709d384b01ec50456e",
            "hex": "473044022079810f4e624b5f6373841b9325aee7a40a64f03f5b60c71862b53cc45b5010c30220472df0f2c246fda8aa530478f0bb823a79bccf4f8fc1fdba531891f6be57d2b70121028dfcf35e170ba5fed5686f7c9d7612e588b4b14c9ec9f5709d384b01ec50456e"
          },
          "sequence": 4294967295
        }, 
        {
          "txid": "f44f6a5579a407c87ef4e89f06ed1433f8685f220a994adb763a42bba8e9e5b5",
          "vout": 1,
          "scriptSig": {
            "asm": "3045022100d3d60d2acd2f79c7689cdbc7f5dab5037fab061e4a246984173289ecf240a0f702203bbd73d122251132f3636ac09c94a50058b6f162c698581237235684d39f41c3[ALL] 028dfcf35e170ba5fed5686f7c9d7612e588b4b14c9ec9f5709d384b01ec50456e",
            "hex": "483045022100d3d60d2acd2f79c7689cdbc7f5dab5037fab061e4a246984173289ecf240a0f702203bbd73d122251132f3636ac09c94a50058b6f162c698581237235684d39f41c30121028dfcf35e170ba5fed5686f7c9d7612e588b4b14c9ec9f5709d384b01ec50456e"
          },
          "sequence": 4294967295
        }, 
        {
          "txid": "cb1883724e7506edb2185aff0e488bd14900d460032841599e7d038fe4b340eb",
          "vout": 1,
          "scriptSig": {
            "asm": "30440220793d47ec8ab6dda65f6a2162150cf1ef3bc6f18e7f296ee5363a4d78a029c17402201a12f99d98fd064d2f0a171030b9147b6a147e23ea87e86ad15025734799940e[ALL] 028dfcf35e170ba5fed5686f7c9d7612e588b4b14c9ec9f5709d384b01ec50456e",
            "hex": "4730440220793d47ec8ab6dda65f6a2162150cf1ef3bc6f18e7f296ee5363a4d78a029c17402201a12f99d98fd064d2f0a171030b9147b6a147e23ea87e86ad15025734799940e0121028dfcf35e170ba5fed5686f7c9d7612e588b4b14c9ec9f5709d384b01ec50456e"
          },
          "sequence": 4294967295
        }
      ],
      "vout": [
        {
          "value": 1.51769828,
          "n": 0,
          "scriptPubKey": {
            "asm": "OP_DUP OP_HASH160 e65a44f81044f2588c913afb31b38e3006c94f1d OP_EQUALVERIFY OP_CHECKSIG",
            "hex": "76a914e65a44f81044f2588c913afb31b38e3006c94f1d88ac",
            "reqSigs": 1,
            "type": "pubkeyhash",
            "addresses": [
              "LgDwpMyyw5QTxSkDiSViz1Y73Kf1qjyhbc"
            ]
          }
        }, 
        {
          "value": 0.05377990,
          "n": 1,
          "scriptPubKey": {
            "asm": "OP_DUP OP_HASH160 573a2c0d6582754f336b2d463d4ba7ebe251fa9b OP_EQUALVERIFY OP_CHECKSIG",
            "hex": "76a914573a2c0d6582754f336b2d463d4ba7ebe251fa9b88ac",
            "reqSigs": 1,
            "type": "pubkeyhash",
            "addresses": [
              "LTBAjmZq3YxCXyXM1RZ7JXtNynCnmeG7QE"
            ]
          }
        }
      ],
      "hex": "0100000009be281ac6cd6e413f784bb45a631b4592420ab97ec3863122941193de5115da4d000000006b483045022100b5672adef45bc614bc878e7f9aca32f3e0b46179aa42eb06e22392124503532c022062bd25f03711a05d1a07629c08a6f764e96664c68e44c7f6820df5a581d667b50121028dfcf35e170ba5fed5686f7c9d7612e588b4b14c9ec9f5709d384b01ec50456effffffff27a15388cd5b61e0a91f45fb8830163a2b6f952dac396b89b566cb82cc8efd47000000006a47304402204dbac5d5d12ce67819848e9e56cf08a51ef68115d0b2cd86dcccd99f3e049dd80220793e4ac6640b0049fca635464d923b439b87328ef2afb958e951d93514daa6860121028dfcf35e170ba5fed5686f7c9d7612e588b4b14c9ec9f5709d384b01ec50456efffffffff9d5c4901d8eb65379b7bb8dcdac3924acd40951f9dbde4e50901a752c95fd9f010000006b483045022100ac53b65dda09441d6ace400a5cf8e37f7403f346225c8812265070b18736090c022050722fd8757b6c5ef99d611f09d1d0406f63bdd5c938d49dd93b0eca757c630d0121028dfcf35e170ba5fed5686f7c9d7612e588b4b14c9ec9f5709d384b01ec50456effffffff49112da06eae39fe05679a99f342b43a70148f2b5fc3d3dd4d0e34e54a8e7ab5000000006a47304402203f8ba1c7c9a135acb0f4386ddd5bd1d86a51f76f9002366e2bc6c6584ac86ab9022003e17ec31db768305f069f0cde01b3a01fff78953cebfcd3bb9ea2f25b2c4ce10121028dfcf35e170ba5fed5686f7c9d7612e588b4b14c9ec9f5709d384b01ec50456effffffff0d57c58d7888166304b60136ff41cbfecf358b8d51237b7ec6f9962e01f4efd4010000006b483045022100d1b5b28263d4e4bf6d203ba147294e1dfc30f6f17ceb577880fe304dd643d54a0220472a54d91748d4f8f015d9373a984871588f26394fee037db2f7092b2bd74d5f0121028dfcf35e170ba5fed5686f7c9d7612e588b4b14c9ec9f5709d384b01ec50456effffffff6e6c1b5b221f034036df548428a5d66395e321392406aa0367f7dd8f107d2ba7000000006a473044022048b0026dffc90e8c48599eb09442affbe30b2c8a2038677efb733bad7b996efb022047ece0e7a9f8aced23a10de428d6aae1c6a646f259febb508b0909488faf94940121028dfcf35e170ba5fed5686f7c9d7612e588b4b14c9ec9f5709d384b01ec50456effffffff7ad96b51f84ae8de6e8e236fb78ebe4de080dd87b8cd4548707928a7b40e9e2f010000006a473044022079810f4e624b5f6373841b9325aee7a40a64f03f5b60c71862b53cc45b5010c30220472df0f2c246fda8aa530478f0bb823a79bccf4f8fc1fdba531891f6be57d2b70121028dfcf35e170ba5fed5686f7c9d7612e588b4b14c9ec9f5709d384b01ec50456effffffffb5e5e9a8bb423a76db4a990a225f68f83314ed069fe8f47ec807a479556a4ff4010000006b483045022100d3d60d2acd2f79c7689cdbc7f5dab5037fab061e4a246984173289ecf240a0f702203bbd73d122251132f3636ac09c94a50058b6f162c698581237235684d39f41c30121028dfcf35e170ba5fed5686f7c9d7612e588b4b14c9ec9f5709d384b01ec50456effffffffeb40b3e48f037d9e5941280360d40049d18b480eff5a18b2ed06754e728318cb010000006a4730440220793d47ec8ab6dda65f6a2162150cf1ef3bc6f18e7f296ee5363a4d78a029c17402201a12f99d98fd064d2f0a171030b9147b6a147e23ea87e86ad15025734799940e0121028dfcf35e170ba5fed5686f7c9d7612e588b4b14c9ec9f5709d384b01ec50456effffffff02e4d20b09000000001976a914e65a44f81044f2588c913afb31b38e3006c94f1d88acc60f5200000000001976a914573a2c0d6582754f336b2d463d4ba7ebe251fa9b88ac00000000"
    }, 
    {
      "txid": "31eddfbc4e348d45306c55b6d1de557734747dd4ce1b76dada8b87ca6447c3c8",
      "hash": "31eddfbc4e348d45306c55b6d1de557734747dd4ce1b76dada8b87ca6447c3c8",
      "version": 1,
      "size": 225,
      "vsize": 225,
      "locktime": 0,
      "vin": [
        {
          "txid": "b7c2f5e72e49a73e95ded951201da2d4da7ec4a416e500ce647eb301c7391594",
          "vout": 0,
          "scriptSig": {
            "asm": "304402205db4916ebc17c327c159040d81e2e04a9f16ac8e7be81ed4c2f9cf43bee3ff5b022035d99f1932951b02469f3678788f88680a01c155a8e26c982660e7c901ae73e9[ALL] 0280bd0866ca8bae198557776d1779ec88bcee6f838ed4669729a5f9fd4475e35d",
            "hex": "47304402205db4916ebc17c327c159040d81e2e04a9f16ac8e7be81ed4c2f9cf43bee3ff5b022035d99f1932951b02469f3678788f88680a01c155a8e26c982660e7c901ae73e901210280bd0866ca8bae198557776d1779ec88bcee6f838ed4669729a5f9fd4475e35d"
          },
          "sequence": 4294967295
        }
      ],
      "vout": [
        {
          "value": 1.11032985,
          "n": 0,
          "scriptPubKey": {
            "asm": "OP_DUP OP_HASH160 75ee100e729a6f9bc72f33ca8de16e743e8c8b13 OP_EQUALVERIFY OP_CHECKSIG",
            "hex": "76a91475ee100e729a6f9bc72f33ca8de16e743e8c8b1388ac",
            "reqSigs": 1,
            "type": "pubkeyhash",
            "addresses": [
              "LVyWWYZXy9FJTcytAPAeu6EosteAa7nt8H"
            ]
          }
        }, 
        {
          "value": 36.17429574,
          "n": 1,
          "scriptPubKey": {
            "asm": "OP_DUP OP_HASH160 fcb104ed16b528dd9762b6f4181b256ec448eb0d OP_EQUALVERIFY OP_CHECKSIG",
            "hex": "76a914fcb104ed16b528dd9762b6f4181b256ec448eb0d88ac",
            "reqSigs": 1,
            "type": "pubkeyhash",
            "addresses": [
              "LiG4c4qFruieKUczxGhJd5VhK1pgtUvFdr"
            ]
          }
        }
      ],
      "hex": "0100000001941539c701b37e64ce00e516a4c47edad4a21d2051d9de953ea7492ee7f5c2b7000000006a47304402205db4916ebc17c327c159040d81e2e04a9f16ac8e7be81ed4c2f9cf43bee3ff5b022035d99f1932951b02469f3678788f88680a01c155a8e26c982660e7c901ae73e901210280bd0866ca8bae198557776d1779ec88bcee6f838ed4669729a5f9fd4475e35dffffffff02993a9e06000000001976a91475ee100e729a6f9bc72f33ca8de16e743e8c8b1388ac46989dd7000000001976a914fcb104ed16b528dd9762b6f4181b256ec448eb0d88ac00000000"
    }, 
    {
      "txid": "b85872c71d57144b9a79203449af71fac4100e0954069e5f2d16e45c362d9a16",
      "hash": "b85872c71d57144b9a79203449af71fac4100e0954069e5f2d16e45c362d9a16",
      "version": 1,
      "size": 226,
      "vsize": 226,
      "locktime": 0,
      "vin": [
        {
          "txid": "484a8a549cc085281a4a0a2919be9b7567c6da268652ae85e7990e085ea8781c",
          "vout": 2,
          "scriptSig": {
            "asm": "3045022100938e0147ca83433981547a99c6cc414e20dc3c8b73952dffdb11056853da1400022055a6c0a247e285d3998513661fff9a4b50e4421b06010c2e6f91b88a15a84b19[ALL] 0391d6fdf5a5405d5346762ae9f320960ac105c4b9a5134c362f9aaae385fe9782",
            "hex": "483045022100938e0147ca83433981547a99c6cc414e20dc3c8b73952dffdb11056853da1400022055a6c0a247e285d3998513661fff9a4b50e4421b06010c2e6f91b88a15a84b1901210391d6fdf5a5405d5346762ae9f320960ac105c4b9a5134c362f9aaae385fe9782"
          },
          "sequence": 4294967295
        }
      ],
      "vout": [
        {
          "value": 39.34977400,
          "n": 0,
          "scriptPubKey": {
            "asm": "OP_DUP OP_HASH160 9b948e721693fe93e94e51c374d5f223d35ec402 OP_EQUALVERIFY OP_CHECKSIG",
            "hex": "76a9149b948e721693fe93e94e51c374d5f223d35ec40288ac",
            "reqSigs": 1,
            "type": "pubkeyhash",
            "addresses": [
              "LZQaxpzjiTY4xmt3rKo9ZJ9ghfjQFBBcWS"
            ]
          }
        }, 
        {
          "value": 0.64000000,
          "n": 1,
          "scriptPubKey": {
            "asm": "OP_DUP OP_HASH160 c7f42e62b859a0b65edc909a8f636387cdd211f1 OP_EQUALVERIFY OP_CHECKSIG",
            "hex": "76a914c7f42e62b859a0b65edc909a8f636387cdd211f188ac",
            "reqSigs": 1,
            "type": "pubkeyhash",
            "addresses": [
              "LdTDFPoqRcb7PUMpDUe56Gn5Gqq8DFo86a"
            ]
          }
        }
      ],
      "hex": "01000000011c78a85e080e99e785ae528626dac667759bbe19290a4a1a2885c09c548a4a48020000006b483045022100938e0147ca83433981547a99c6cc414e20dc3c8b73952dffdb11056853da1400022055a6c0a247e285d3998513661fff9a4b50e4421b06010c2e6f91b88a15a84b1901210391d6fdf5a5405d5346762ae9f320960ac105c4b9a5134c362f9aaae385fe9782ffffffff0278fd8aea000000001976a9149b948e721693fe93e94e51c374d5f223d35ec40288ac0090d003000000001976a914c7f42e62b859a0b65edc909a8f636387cdd211f188ac00000000"
    }, 
    {
      "txid": "885dcfe0b316b5966fc9eb22d25223875e501fb8c7bd47fc7881596928aa7e84",
      "hash": "885dcfe0b316b5966fc9eb22d25223875e501fb8c7bd47fc7881596928aa7e84",
      "version": 1,
      "size": 226,
      "vsize": 226,
      "locktime": 0,
      "vin": [
        {
          "txid": "e026bce7f702c3558de8839263d7759649dcff09d657e396d251bdfd34a6252f",
          "vout": 1,
          "scriptSig": {
            "asm": "3045022100f53ff5eeb1c7230980ffe5352cae719f1549ab0689b23b979f060670827f81f502206453320dc195b1e70871d3d3f991c634faca42a2e55caedfec43481f2b43aaf9[ALL] 038e5e36f0513af83c8a2e6727e3484947f307b7268deb63119230791864f9cf98",
            "hex": "483045022100f53ff5eeb1c7230980ffe5352cae719f1549ab0689b23b979f060670827f81f502206453320dc195b1e70871d3d3f991c634faca42a2e55caedfec43481f2b43aaf90121038e5e36f0513af83c8a2e6727e3484947f307b7268deb63119230791864f9cf98"
          },
          "sequence": 4294967295
        }
      ],
      "vout": [
        {
          "value": 0.25171144,
          "n": 0,
          "scriptPubKey": {
            "asm": "OP_DUP OP_HASH160 a606eb99616567258d95547332fb97109cb1e7d3 OP_EQUALVERIFY OP_CHECKSIG",
            "hex": "76a914a606eb99616567258d95547332fb97109cb1e7d388ac",
            "reqSigs": 1,
            "type": "pubkeyhash",
            "addresses": [
              "LaMpitUjiSTBQBML3g6gnc9kTEu5n5mJ2R"
            ]
          }
        }, 
        {
          "value": 0.00539731,
          "n": 1,
          "scriptPubKey": {
            "asm": "OP_DUP OP_HASH160 c4fc51e7ca37ab26865ce3117fda3a3d920a2977 OP_EQUALVERIFY OP_CHECKSIG",
            "hex": "76a914c4fc51e7ca37ab26865ce3117fda3a3d920a297788ac",
            "reqSigs": 1,
            "type": "pubkeyhash",
            "addresses": [
              "LdBWyJrx83eQpVDEv3z852k6fBcHKycmdm"
            ]
          }
        }
      ],
      "hex": "01000000012f25a634fdbd51d296e357d609ffdc499675d7639283e88d55c302f7e7bc26e0010000006b483045022100f53ff5eeb1c7230980ffe5352cae719f1549ab0689b23b979f060670827f81f502206453320dc195b1e70871d3d3f991c634faca42a2e55caedfec43481f2b43aaf90121038e5e36f0513af83c8a2e6727e3484947f307b7268deb63119230791864f9cf98ffffffff02c8148001000000001976a914a606eb99616567258d95547332fb97109cb1e7d388ac533c0800000000001976a914c4fc51e7ca37ab26865ce3117fda3a3d920a297788ac00000000"
    }
  ],
  "time": 1517267814,
  "mediantime": 1517267449,
  "nonce": 1004642489,
  "bits": "1a042eae",
  "difficulty": 4011378.762614286,
  "chainwork": "000000000000000000000000000000000000000000000033e600618f5887dc3a",
  "previousblockhash": "242f3fd0c1d568099ebf13649b37a25dbc424c6c73ac51a472d88c9fdf610014",
  "nextblockhash": "7cb3775d35924e10e57fea11dcefec3a6160233f1f795b5ccf0844f93b5bfda6"
}
