{
  "hash": "b40a36a9f885c91d8dc28e09c416b1c3952ae92f35323cc66aeb556ac7761c3a",
  "confirmations": 684,
  "strippedsize": 3054,
  "size": 3754,
  "weight": 12916,
  "height": 1360310,
  "version": 536870912,
  "versionHex": "20000000",
  "merkleroot": "0ef1fd1d244d7af953db4addfe3c4370f08ac90a77b1df5b6d9fe0a23b6c2e3b",
  "tx": [
    {
      "txid": "b711741fdab7615f251943c2e59fbbbd412b61b6ec85995487817fc0e016af98",
      "hash": "1d18bc0a87e167ff7fc7c1f4f257f67e6af2d91936884d6aa0acf6dc3c7f343d",
      "version": 1,
      "size": 244,
      "vsize": 217,
      "locktime": 0,
      "vin": [
        {
          "coinbase": "03b6c1140436d7715a080290f6d409000000fabe6d6db465fbd23e5c66698a7c4663d7b8df9ef1bbccfc1695c70e82819cbe8e13aaa540000000000000000d2f6e6f64655374726174756d2f",
          "sequence": 0
        }
      ],
      "vout": [
        {
          "value": 25.00406500,
          "n": 0,
          "scriptPubKey": {
            "asm": "OP_DUP OP_HASH160 0c617fdb2ea42aed30a509595ee21ba3f6688db0 OP_EQUALVERIFY OP_CHECKSIG",
            "hex": "76a9140c617fdb2ea42aed30a509595ee21ba3f6688db088ac",
            "reqSigs": 1,
            "type": "pubkeyhash",
            "addresses": [
              "LLMRAtr3qBje2ySEa3CnZ55LA4TQMWnRY3"
            ]
          }
        }, 
        {
          "value": 0.00000000,
          "n": 1,
          "scriptPubKey": {
            "asm": "OP_RETURN aa21a9ed761fedd87f4ad240f20719dfd721354e41e401822692f1e30a5fb89471da11b6",
            "hex": "6a24aa21a9ed761fedd87f4ad240f20719dfd721354e41e401822692f1e30a5fb89471da11b6",
            "type": "nulldata"
          }
        }
      ],
      "hex": "010000000001010000000000000000000000000000000000000000000000000000000000000000ffffffff4c03b6c1140436d7715a080290f6d409000000fabe6d6db465fbd23e5c66698a7c4663d7b8df9ef1bbccfc1695c70e82819cbe8e13aaa540000000000000000d2f6e6f64655374726174756d2f0000000002e42c0995000000001976a9140c617fdb2ea42aed30a509595ee21ba3f6688db088ac0000000000000000266a24aa21a9ed761fedd87f4ad240f20719dfd721354e41e401822692f1e30a5fb89471da11b60120000000000000000000000000000000000000000000000000000000000000000000000000"
    }, 
    {
      "txid": "3cfb413d52a1d1c1a49520edab84e520bba86a065d37d0b850a5a54578070354",
      "hash": "3cfb413d52a1d1c1a49520edab84e520bba86a065d37d0b850a5a54578070354",
      "version": 2,
      "size": 225,
      "vsize": 225,
      "locktime": 1360308,
      "vin": [
        {
          "txid": "086a429b119cec712e998a57997ac0df1bb8f9548cfa0b792f6f8cbc7d362bce",
          "vout": 0,
          "scriptSig": {
            "asm": "304402206976c180344309e5d71f726316da5b41fdf4466e2c206332c57475696b602e6b02201d6ba78ce09915c2adaba1334d34f3d526ee7c824ede8ac94b370928c89ce85a[ALL] 02768807aa1cb2e9e26114d7a7c58cc465dee2dfd7a2584b24c8f580bae1161885",
            "hex": "47304402206976c180344309e5d71f726316da5b41fdf4466e2c206332c57475696b602e6b02201d6ba78ce09915c2adaba1334d34f3d526ee7c824ede8ac94b370928c89ce85a012102768807aa1cb2e9e26114d7a7c58cc465dee2dfd7a2584b24c8f580bae1161885"
          },
          "sequence": 4294967294
        }
      ],
      "vout": [
        {
          "value": 0.17756070,
          "n": 0,
          "scriptPubKey": {
            "asm": "OP_DUP OP_HASH160 123e428548a5f0687d885c064d64a097680297f7 OP_EQUALVERIFY OP_CHECKSIG",
            "hex": "76a914123e428548a5f0687d885c064d64a097680297f788ac",
            "reqSigs": 1,
            "type": "pubkeyhash",
            "addresses": [
              "LLtR1ZCMYp3N5aaK6LN45fZeaDnXnZ8QzH"
            ]
          }
        }, 
        {
          "value": 0.09976130,
          "n": 1,
          "scriptPubKey": {
            "asm": "OP_DUP OP_HASH160 6c641321b8e7396d11c560f66571a3492ae28d6a OP_EQUALVERIFY OP_CHECKSIG",
            "hex": "76a9146c641321b8e7396d11c560f66571a3492ae28d6a88ac",
            "reqSigs": 1,
            "type": "pubkeyhash",
            "addresses": [
              "LV758FAfWMpdnVEMQRtxHu7PqMsc4PKEXy"
            ]
          }
        }
      ],
      "hex": "0200000001ce2b367dbc8c6f2f790bfa8c54f9b81bdfc07a99578a992e71ec9c119b426a08000000006a47304402206976c180344309e5d71f726316da5b41fdf4466e2c206332c57475696b602e6b02201d6ba78ce09915c2adaba1334d34f3d526ee7c824ede8ac94b370928c89ce85a012102768807aa1cb2e9e26114d7a7c58cc465dee2dfd7a2584b24c8f580bae1161885feffffff02a6ef0e01000000001976a914123e428548a5f0687d885c064d64a097680297f788ac42399800000000001976a9146c641321b8e7396d11c560f66571a3492ae28d6a88acb4c11400"
    }, 
    {
      "txid": "fe3eba47bfee03ebfdf522ab749727003d870d88d4deb263545049a48e7e104a",
      "hash": "0d8ac1ad6814441490db4d003033b46b71e102fc0b28d1f91ed2ea121ead91c7",
      "version": 1,
      "size": 371,
      "vsize": 206,
      "locktime": 0,
      "vin": [
        {
          "txid": "90d25a701c67a8a779d2530891a13be58bd9b93261fae7fae82cc997f3586008",
          "vout": 1,
          "scriptSig": {
            "asm": "00207975c3f0d1bf8b6205e1c664d703c93d68409676bf17c5e78cdece78bdbf3dbf",
            "hex": "2200207975c3f0d1bf8b6205e1c664d703c93d68409676bf17c5e78cdece78bdbf3dbf"
          },
          "txinwitness": [
            "", 
            "3045022100e2f7f6c36ebe80ecff3750838c61fe01c726c4894188145cd2dbda7b212ecfdb0220273cbf192f4669cc3636c16aa553397253981c11024e4102521890aa52c60a5701", 
            "304402202cbeae50791a45e42c9e6a4b44af20f12c761b63a281d38bb54e50069015c5a80220113c827e59031f88928cfba05f2199023993ebea3182dec7a57d525a7d9e478201", 
            "522102611be09a0c6a571c8f68adb2481e938888756d93d4ee5b670f08c16e939b7f1a21022cc7a96a72ef014bf078a6489644e2edb05bb216d30b4f28363b637fe4463fd652ae"
          ],
          "sequence": 4294967295
        }
      ],
      "vout": [
        {
          "value": 0.00534100,
          "n": 0,
          "scriptPubKey": {
            "asm": "OP_HASH160 74ad38d49626b25b5064855901b6d784dafdc9a8 OP_EQUAL",
            "hex": "a91474ad38d49626b25b5064855901b6d784dafdc9a887",
            "reqSigs": 1,
            "type": "scripthash",
            "addresses": [
              "MJY68MhNksdszKswSf6Q72SoAxXX3hprMC"
            ]
          }
        }, 
        {
          "value": 1.71409496,
          "n": 1,
          "scriptPubKey": {
            "asm": "OP_HASH160 486ce63d83e8406016f310cd321d36bbdd10d412 OP_EQUAL",
            "hex": "a914486ce63d83e8406016f310cd321d36bbdd10d41287",
            "reqSigs": 1,
            "type": "scripthash",
            "addresses": [
              "MEW7Lhk6QzBLmCNp5pmpYzwv1KAcKYsSQp"
            ]
          }
        }
      ],
      "hex": "01000000000101086058f397c92ce8fae7fa6132b9d98be53ba1910853d279a7a8671c705ad29001000000232200207975c3f0d1bf8b6205e1c664d703c93d68409676bf17c5e78cdece78bdbf3dbfffffffff02542608000000000017a91474ad38d49626b25b5064855901b6d784dafdc9a8875880370a0000000017a914486ce63d83e8406016f310cd321d36bbdd10d412870400483045022100e2f7f6c36ebe80ecff3750838c61fe01c726c4894188145cd2dbda7b212ecfdb0220273cbf192f4669cc3636c16aa553397253981c11024e4102521890aa52c60a570147304402202cbeae50791a45e42c9e6a4b44af20f12c761b63a281d38bb54e50069015c5a80220113c827e59031f88928cfba05f2199023993ebea3182dec7a57d525a7d9e47820147522102611be09a0c6a571c8f68adb2481e938888756d93d4ee5b670f08c16e939b7f1a21022cc7a96a72ef014bf078a6489644e2edb05bb216d30b4f28363b637fe4463fd652ae00000000"
    }, 
    {
      "txid": "f4c4c190534daed6644d1cd3b11ae3af8710b91840e4920e7643d009c440270a",
      "hash": "080b70a73d8db1a5f70f7c7b26e2f3a6c6abfb1e02473dca31b8d2f766d2ab1b",
      "version": 1,
      "size": 373,
      "vsize": 208,
      "locktime": 0,
      "vin": [
        {
          "txid": "6341080c8ae530b85326190b540317dc88a5928209c900063c9aaaa6ad0b58e1",
          "vout": 1,
          "scriptSig": {
            "asm": "00207975c3f0d1bf8b6205e1c664d703c93d68409676bf17c5e78cdece78bdbf3dbf",
            "hex": "2200207975c3f0d1bf8b6205e1c664d703c93d68409676bf17c5e78cdece78bdbf3dbf"
          },
          "txinwitness": [
            "", 
            "304402207f2c445da2959350d80b2eefa4c6d5db0c106fd5df207fb02705f70a3b3bc3f40220234b6effcc79a4078fedb147f0da0f92be27937a9f9c8c4706156b7e4e8fe79601", 
            "3045022100fc32a371a0b2d89e864da354580b477994575db7885629eb937c193e4360411602206a48d72c256decd04427bd60fd2eed3d2d2ddef6dd3cf00d0ea86697e06243e401", 
            "522102611be09a0c6a571c8f68adb2481e938888756d93d4ee5b670f08c16e939b7f1a21022cc7a96a72ef014bf078a6489644e2edb05bb216d30b4f28363b637fe4463fd652ae"
          ],
          "sequence": 4294967295
        }
      ],
      "vout": [
        {
          "value": 0.00849420,
          "n": 0,
          "scriptPubKey": {
            "asm": "OP_DUP OP_HASH160 a0fa0420250f9119acd73ad8ee75322ba3e37689 OP_EQUALVERIFY OP_CHECKSIG",
            "hex": "76a914a0fa0420250f9119acd73ad8ee75322ba3e3768988ac",
            "reqSigs": 1,
            "type": "pubkeyhash",
            "addresses": [
              "LZu7tL6oDeLiTFSD5KE357nTut2dB3TeTh"
            ]
          }
        }, 
        {
          "value": 10.32499027,
          "n": 1,
          "scriptPubKey": {
            "asm": "OP_HASH160 486ce63d83e8406016f310cd321d36bbdd10d412 OP_EQUAL",
            "hex": "a914486ce63d83e8406016f310cd321d36bbdd10d41287",
            "reqSigs": 1,
            "type": "scripthash",
            "addresses": [
              "MEW7Lhk6QzBLmCNp5pmpYzwv1KAcKYsSQp"
            ]
          }
        }
      ],
      "hex": "01000000000101e1580bada6aa9a3c0600c9098292a588dc1703540b192653b830e58a0c08416301000000232200207975c3f0d1bf8b6205e1c664d703c93d68409676bf17c5e78cdece78bdbf3dbfffffffff020cf60c00000000001976a914a0fa0420250f9119acd73ad8ee75322ba3e3768988ac53af8a3d0000000017a914486ce63d83e8406016f310cd321d36bbdd10d41287040047304402207f2c445da2959350d80b2eefa4c6d5db0c106fd5df207fb02705f70a3b3bc3f40220234b6effcc79a4078fedb147f0da0f92be27937a9f9c8c4706156b7e4e8fe79601483045022100fc32a371a0b2d89e864da354580b477994575db7885629eb937c193e4360411602206a48d72c256decd04427bd60fd2eed3d2d2ddef6dd3cf00d0ea86697e06243e40147522102611be09a0c6a571c8f68adb2481e938888756d93d4ee5b670f08c16e939b7f1a21022cc7a96a72ef014bf078a6489644e2edb05bb216d30b4f28363b637fe4463fd652ae00000000"
    }, 
    {
      "txid": "cc345fc5d4818b0915d84814e74fe6a43f45ae3561c3c608901fea638434e7f2",
      "hash": "e1bc1f1ee447c3ddb8bf1f839456f2f0e227826e3754ef806038631d8ee086ff",
      "version": 1,
      "size": 374,
      "vsize": 208,
      "locktime": 0,
      "vin": [
        {
          "txid": "1dd49d3108f30de75d001de50a72e0a43b9a9e9c0f568ed7484a683335fcd302",
          "vout": 1,
          "scriptSig": {
            "asm": "00207975c3f0d1bf8b6205e1c664d703c93d68409676bf17c5e78cdece78bdbf3dbf",
            "hex": "2200207975c3f0d1bf8b6205e1c664d703c93d68409676bf17c5e78cdece78bdbf3dbf"
          },
          "txinwitness": [
            "", 
            "3045022100ad70949b70aaadcffdf731ddba98462c7ff611ad0066d6df80668b5449ea60430220082d1f4800ed7b9e477017e35c641ad3c23facb0ee7f09f954d3eb33b104b81201", 
            "3045022100e1019509502914cd25215eaa7a3dba9fba1d6e530624bce11f1e672292076dfc022067edd5b45a707a8bae37aef56d455adc562e298234ab7ce4c3320a621691f58901", 
            "522102611be09a0c6a571c8f68adb2481e938888756d93d4ee5b670f08c16e939b7f1a21022cc7a96a72ef014bf078a6489644e2edb05bb216d30b4f28363b637fe4463fd652ae"
          ],
          "sequence": 4294967295
        }
      ],
      "vout": [
        {
          "value": 0.00531800,
          "n": 0,
          "scriptPubKey": {
            "asm": "OP_DUP OP_HASH160 b1dcc5ae52da5c7677e3db19938894be3b405a0d OP_EQUALVERIFY OP_CHECKSIG",
            "hex": "76a914b1dcc5ae52da5c7677e3db19938894be3b405a0d88ac",
            "reqSigs": 1,
            "type": "pubkeyhash",
            "addresses": [
              "LbSQLgqtVXS1Wnm7vGaDe8uUdfenmVDUMp"
            ]
          }
        }, 
        {
          "value": 1.78928299,
          "n": 1,
          "scriptPubKey": {
            "asm": "OP_HASH160 486ce63d83e8406016f310cd321d36bbdd10d412 OP_EQUAL",
            "hex": "a914486ce63d83e8406016f310cd321d36bbdd10d41287",
            "reqSigs": 1,
            "type": "scripthash",
            "addresses": [
              "MEW7Lhk6QzBLmCNp5pmpYzwv1KAcKYsSQp"
            ]
          }
        }
      ],
      "hex": "0100000000010102d3fc3533684a48d78e560f9c9e9a3ba4e0720ae51d005de70df308319dd41d01000000232200207975c3f0d1bf8b6205e1c664d703c93d68409676bf17c5e78cdece78bdbf3dbfffffffff02581d0800000000001976a914b1dcc5ae52da5c7677e3db19938894be3b405a0d88acab3aaa0a0000000017a914486ce63d83e8406016f310cd321d36bbdd10d412870400483045022100ad70949b70aaadcffdf731ddba98462c7ff611ad0066d6df80668b5449ea60430220082d1f4800ed7b9e477017e35c641ad3c23facb0ee7f09f954d3eb33b104b81201483045022100e1019509502914cd25215eaa7a3dba9fba1d6e530624bce11f1e672292076dfc022067edd5b45a707a8bae37aef56d455adc562e298234ab7ce4c3320a621691f5890147522102611be09a0c6a571c8f68adb2481e938888756d93d4ee5b670f08c16e939b7f1a21022cc7a96a72ef014bf078a6489644e2edb05bb216d30b4f28363b637fe4463fd652ae00000000"
    }, 
    {
      "txid": "d1b1c6dd166710d6a9910d129ca8914d872bd752d1be1220b4b1fea569f26e08",
      "hash": "d1b1c6dd166710d6a9910d129ca8914d872bd752d1be1220b4b1fea569f26e08",
      "version": 1,
      "size": 223,
      "vsize": 223,
      "locktime": 0,
      "vin": [
        {
          "txid": "70d7287da0bc1b94f304230e28a1ec79eba69f9caf91157a021908b9412bd25a",
          "vout": 129,
          "scriptSig": {
            "asm": "304402201ce36bb901f4264776c69ce4c89f8e4913a38239cb074f9419ecb9e0f286451c02205aaf35352863d053fa32fe7a3c7999dd3293191a4c0bf2df738c8715dda93efc[ALL] 03d3939a9cfe9ac774a8fd42b816905b68661dd9558262c3a6bb201b5fbe50e317",
            "hex": "47304402201ce36bb901f4264776c69ce4c89f8e4913a38239cb074f9419ecb9e0f286451c02205aaf35352863d053fa32fe7a3c7999dd3293191a4c0bf2df738c8715dda93efc012103d3939a9cfe9ac774a8fd42b816905b68661dd9558262c3a6bb201b5fbe50e317"
          },
          "sequence": 4294967295
        }
      ],
      "vout": [
        {
          "value": 0.13189132,
          "n": 0,
          "scriptPubKey": {
            "asm": "OP_HASH160 e96b65c3ce71a6adac0717b3bd29c2231058e120 OP_EQUAL",
            "hex": "a914e96b65c3ce71a6adac0717b3bd29c2231058e12087",
            "reqSigs": 1,
            "type": "scripthash",
            "addresses": [
              "MVBNLEhuzTRArHPcoTdudYgvsHQW7ZKBDG"
            ]
          }
        }, 
        {
          "value": 0.00063165,
          "n": 1,
          "scriptPubKey": {
            "asm": "OP_DUP OP_HASH160 ff2f004f66cd2a95d289336778f6e1a5e7197b08 OP_EQUALVERIFY OP_CHECKSIG",
            "hex": "76a914ff2f004f66cd2a95d289336778f6e1a5e7197b0888ac",
            "reqSigs": 1,
            "type": "pubkeyhash",
            "addresses": [
              "LiVEsqAR6YpfmkgRtARPPzo3QyKi3gG6Qi"
            ]
          }
        }
      ],
      "hex": "01000000015ad22b41b90819027a1591af9c9fa6eb79eca1280e2304f3941bbca07d28d770810000006a47304402201ce36bb901f4264776c69ce4c89f8e4913a38239cb074f9419ecb9e0f286451c02205aaf35352863d053fa32fe7a3c7999dd3293191a4c0bf2df738c8715dda93efc012103d3939a9cfe9ac774a8fd42b816905b68661dd9558262c3a6bb201b5fbe50e317ffffffff020c40c9000000000017a914e96b65c3ce71a6adac0717b3bd29c2231058e12087bdf60000000000001976a914ff2f004f66cd2a95d289336778f6e1a5e7197b0888ac00000000"
    }, 
    {
      "txid": "af3ebf5629a382a7a0e270e0db433dfd7a65c5df27eebfb216b9f89c6254449a",
      "hash": "af3ebf5629a382a7a0e270e0db433dfd7a65c5df27eebfb216b9f89c6254449a",
      "version": 1,
      "size": 225,
      "vsize": 225,
      "locktime": 1360308,
      "vin": [
        {
          "txid": "c41c2ee338326ea135683dcc232caea16238694a1ed1f3fff86130942c77b7c5",
          "vout": 20,
          "scriptSig": {
            "asm": "304402200bb22684dbe6d4dbffc980235e831a8e07117e96de50ec11a96e593a3ce076a202203cceacf1b56005c63e1107966b23461d81946ea407ff4ac5f50b76355acdee91[ALL] 03d36c7e102b3a03eeac1b57d72bc873ee4da60984b9c73edbb1856be3db290064",
            "hex": "47304402200bb22684dbe6d4dbffc980235e831a8e07117e96de50ec11a96e593a3ce076a202203cceacf1b56005c63e1107966b23461d81946ea407ff4ac5f50b76355acdee91012103d36c7e102b3a03eeac1b57d72bc873ee4da60984b9c73edbb1856be3db290064"
          },
          "sequence": 4294967294
        }
      ],
      "vout": [
        {
          "value": 0.96711422,
          "n": 0,
          "scriptPubKey": {
            "asm": "OP_DUP OP_HASH160 bee00f7946c854535d595f0a1ccfdfe9368d51c6 OP_EQUALVERIFY OP_CHECKSIG",
            "hex": "76a914bee00f7946c854535d595f0a1ccfdfe9368d51c688ac",
            "reqSigs": 1,
            "type": "pubkeyhash",
            "addresses": [
              "LcdD4erFH5vXd2huHptLvWwMvkWi1ommQ5"
            ]
          }
        }, 
        {
          "value": 0.53365978,
          "n": 1,
          "scriptPubKey": {
            "asm": "OP_DUP OP_HASH160 eec8775b07ec346dc07e8e4c54961a589e7cecc8 OP_EQUALVERIFY OP_CHECKSIG",
            "hex": "76a914eec8775b07ec346dc07e8e4c54961a589e7cecc888ac",
            "reqSigs": 1,
            "type": "pubkeyhash",
            "addresses": [
              "LgzXEWLmEzGWRp7kCcmiNfot8H7DNxGg8T"
            ]
          }
        }
      ],
      "hex": "0100000001c5b7772c943061f8fff3d11e4a693862a1ae2c23cc3d6835a16e3238e32e1cc4140000006a47304402200bb22684dbe6d4dbffc980235e831a8e07117e96de50ec11a96e593a3ce076a202203cceacf1b56005c63e1107966b23461d81946ea407ff4ac5f50b76355acdee91012103d36c7e102b3a03eeac1b57d72bc873ee4da60984b9c73edbb1856be3db290064feffffff02feb2c305000000001976a914bee00f7946c854535d595f0a1ccfdfe9368d51c688acda4c2e03000000001976a914eec8775b07ec346dc07e8e4c54961a589e7cecc888acb4c11400"
    }, 
    {
      "txid": "148a57e7d77dcae9bb7e31dfd037803131ff83b02d61fe6ff594648c724e99e8",
      "hash": "148a57e7d77dcae9bb7e31dfd037803131ff83b02d61fe6ff594648c724e99e8",
      "version": 2,
      "size": 371,
      "vsize": 371,
      "locktime": 1360308,
      "vin": [
        {
          "txid": "541a6c8c82302b2b4aa958c4cac92dd3d25b83b5218b6c71e20054f541d6b163",
          "vout": 1,
          "scriptSig": {
            "asm": "3045022100837655290d46b670414dccef52d9e60ee0d9fbac13e01c2da9f785f7a031ea37022078d2040d630936ef6875f6974ddfc303cd4290da0d79da38c5225e5b0cc68929[ALL] 033c95f58ceb35650d555414acc02630c477e423e7132f72428513147710cccb35",
            "hex": "483045022100837655290d46b670414dccef52d9e60ee0d9fbac13e01c2da9f785f7a031ea37022078d2040d630936ef6875f6974ddfc303cd4290da0d79da38c5225e5b0cc689290121033c95f58ceb35650d555414acc02630c477e423e7132f72428513147710cccb35"
          },
          "sequence": 4294967294
        }, 
        {
          "txid": "8faac666629c8e01b4a7c29c256f4c9e72cd3ba93b47a533f6ccfc1e0e6ead92",
          "vout": 1,
          "scriptSig": {
            "asm": "30440220065e1e6da7daffefe8838bb2c5b54121822f83ee67d24d183fb19a023231b65602206df3abb38dc4f8da3abba7b6223843119e9016b7f6c5fa9e9c7ff43df5b93e11[ALL] 0266996c38594e34520d916488bad3d511a0086970a73b1b27cfa21f86d9f6506a",
            "hex": "4730440220065e1e6da7daffefe8838bb2c5b54121822f83ee67d24d183fb19a023231b65602206df3abb38dc4f8da3abba7b6223843119e9016b7f6c5fa9e9c7ff43df5b93e1101210266996c38594e34520d916488bad3d511a0086970a73b1b27cfa21f86d9f6506a"
          },
          "sequence": 4294967294
        }
      ],
      "vout": [
        {
          "value": 0.02385359,
          "n": 0,
          "scriptPubKey": {
            "asm": "OP_DUP OP_HASH160 fb86ca34b98954f5f67438c814bd387d5d09ff30 OP_EQUALVERIFY OP_CHECKSIG",
            "hex": "76a914fb86ca34b98954f5f67438c814bd387d5d09ff3088ac",
            "reqSigs": 1,
            "type": "pubkeyhash",
            "addresses": [
              "Li9uLj6Wz86HBeZmwYwEvDkKkDRFTZAnTP"
            ]
          }
        }, 
        {
          "value": 1.69000000,
          "n": 1,
          "scriptPubKey": {
            "asm": "OP_HASH160 3fd32a934a3346b507bb0798aee7fe22c39ba5d3 OP_EQUAL",
            "hex": "a9143fd32a934a3346b507bb0798aee7fe22c39ba5d387",
            "reqSigs": 1,
            "type": "scripthash",
            "addresses": [
              "MDidmcDN22KAo1Zv7Ng3LasLH2jFmtUPpu"
            ]
          }
        }
      ],
      "hex": "020000000263b1d641f55400e2716c8b21b5835bd2d32dc9cac458a94a2b2b30828c6c1a54010000006b483045022100837655290d46b670414dccef52d9e60ee0d9fbac13e01c2da9f785f7a031ea37022078d2040d630936ef6875f6974ddfc303cd4290da0d79da38c5225e5b0cc689290121033c95f58ceb35650d555414acc02630c477e423e7132f72428513147710cccb35feffffff92ad6e0e1efcccf633a5473ba93bcd729e4c6f259cc2a7b4018e9c6266c6aa8f010000006a4730440220065e1e6da7daffefe8838bb2c5b54121822f83ee67d24d183fb19a023231b65602206df3abb38dc4f8da3abba7b6223843119e9016b7f6c5fa9e9c7ff43df5b93e1101210266996c38594e34520d916488bad3d511a0086970a73b1b27cfa21f86d9f6506afeffffff02cf652400000000001976a914fb86ca34b98954f5f67438c814bd387d5d09ff3088ac40bc120a0000000017a9143fd32a934a3346b507bb0798aee7fe22c39ba5d387b4c11400"
    }, 
    {
      "txid": "67ecc665d03323b7bd3967937d6fd642c3e5d8f392796c16653ccea684f23406",
      "hash": "67ecc665d03323b7bd3967937d6fd642c3e5d8f392796c16653ccea684f23406",
      "version": 1,
      "size": 815,
      "vsize": 815,
      "locktime": 1360308,
      "vin": [
        {
          "txid": "81da8b141e46bb170d2ee5c86cc8cc361b0b5d63113775280ce365234469f75d",
          "vout": 1,
          "scriptSig": {
            "asm": "3045022100fd065695810eeeea0a8df412cbc038ad101100c028b73ed82be2943344227fe0022016b72f10bbac46e7de8432f310ebc8ceb54fb6e4a9f80c5f2419ffe00f9d0e2e[ALL] 02c27caea12805484851fefb014dd6753bf2d01ef2408d43e70207398b5b4418b7",
            "hex": "483045022100fd065695810eeeea0a8df412cbc038ad101100c028b73ed82be2943344227fe0022016b72f10bbac46e7de8432f310ebc8ceb54fb6e4a9f80c5f2419ffe00f9d0e2e012102c27caea12805484851fefb014dd6753bf2d01ef2408d43e70207398b5b4418b7"
          },
          "sequence": 4294967294
        }, 
        {
          "txid": "52eb3c1a850e20264e37b7895b6ee8e313a6fc1d1ea5c414b6233db899b184f4",
          "vout": 0,
          "scriptSig": {
            "asm": "30440220121995c95e573cf62f9d71969a21a38cdbed1d41bee90ee9056d848333f1e4e7022013f89347c9a96ea9a6132d2be15243e5a65427dc27275d3b9adcdf5436e40207[ALL] 022e1de1a724619ad4bb59340197f10d04b46a8126f621f5363c171fda6e1a3a69",
            "hex": "4730440220121995c95e573cf62f9d71969a21a38cdbed1d41bee90ee9056d848333f1e4e7022013f89347c9a96ea9a6132d2be15243e5a65427dc27275d3b9adcdf5436e402070121022e1de1a724619ad4bb59340197f10d04b46a8126f621f5363c171fda6e1a3a69"
          },
          "sequence": 4294967294
        }, 
        {
          "txid": "6511969fb6428c158bb473b00bc347fcaa68ecb6740c2047a1f2c0c684972a21",
          "vout": 0,
          "scriptSig": {
            "asm": "304502210087e389fa03b4515d349fe999402c900c44890dee7343b174c504f79d6604848002205f38230cf63fefbc35cb609c7989bc8c4df8108c0497ce0700e41092dd7ec074[ALL] 02a8cc2d68a76f8888dc362f765701bb47a2b21ec3849d980ff63223c7b4c8ad6d",
            "hex": "48304502210087e389fa03b4515d349fe999402c900c44890dee7343b174c504f79d6604848002205f38230cf63fefbc35cb609c7989bc8c4df8108c0497ce0700e41092dd7ec074012102a8cc2d68a76f8888dc362f765701bb47a2b21ec3849d980ff63223c7b4c8ad6d"
          },
          "sequence": 4294967294
        }, 
        {
          "txid": "81dc5f2daf0a139d24b0d8994d904d0d004160a68d3f39c606b422e630f68cf5",
          "vout": 0,
          "scriptSig": {
            "asm": "30440220301bf4769730f2c559363fa1ac22e7a1459da20220d388fdad5ba1379d4b291202205a67505da4e66ebd744b08fe4f17c3f8eb53433cc2f9481e9f5f6ae51bfe4ed7[ALL] 03d6d7bdcd4f65e426b0ed8511cda394de6c8f1fdfa921e7de95f288be03a42d98",
            "hex": "4730440220301bf4769730f2c559363fa1ac22e7a1459da20220d388fdad5ba1379d4b291202205a67505da4e66ebd744b08fe4f17c3f8eb53433cc2f9481e9f5f6ae51bfe4ed7012103d6d7bdcd4f65e426b0ed8511cda394de6c8f1fdfa921e7de95f288be03a42d98"
          },
          "sequence": 4294967294
        }, 
        {
          "txid": "37451b139c59d3b704b7d65c328bd41f8639bf81d6565a1efd86075a02a660bd",
          "vout": 1,
          "scriptSig": {
            "asm": "30440220346b5bd62ca2f4a31601fa4799fe3ab4a23babe02b536d8bd81f78f040a27fda02201caef918f2847439a6ca0b8ab73471ba5c0a808def0901b43d91fc4e316c1395[ALL] 02e79f5f5b9e7eafdf6bb0b9b439a1247a91f9007065403f1a49131c632241d4f6",
            "hex": "4730440220346b5bd62ca2f4a31601fa4799fe3ab4a23babe02b536d8bd81f78f040a27fda02201caef918f2847439a6ca0b8ab73471ba5c0a808def0901b43d91fc4e316c1395012102e79f5f5b9e7eafdf6bb0b9b439a1247a91f9007065403f1a49131c632241d4f6"
          },
          "sequence": 4294967294
        }
      ],
      "vout": [
        {
          "value": 0.49160000,
          "n": 0,
          "scriptPubKey": {
            "asm": "OP_DUP OP_HASH160 7ee7187e88c03c1bb852028be6ee3d375fc2c7bb OP_EQUALVERIFY OP_CHECKSIG",
            "hex": "76a9147ee7187e88c03c1bb852028be6ee3d375fc2c7bb88ac",
            "reqSigs": 1,
            "type": "pubkeyhash",
            "addresses": [
              "LWnxFC9e4R1A5BgfhWmeEEwNqDFDNsAxNx"
            ]
          }
        }, 
        {
          "value": 0.01117811,
          "n": 1,
          "scriptPubKey": {
            "asm": "OP_DUP OP_HASH160 d5107e85157c7be08dd673fb4d7bad9eef11e04f OP_EQUALVERIFY OP_CHECKSIG",
            "hex": "76a914d5107e85157c7be08dd673fb4d7bad9eef11e04f88ac",
            "reqSigs": 1,
            "type": "pubkeyhash",
            "addresses": [
              "LeeXx7QYgquaqVsUgS7fF2G6DmoVKnHp8c"
            ]
          }
        }
      ],
      "hex": "01000000055df769442365e30c28753711635d0b1b36ccc86cc8e52e0d17bb461e148bda81010000006b483045022100fd065695810eeeea0a8df412cbc038ad101100c028b73ed82be2943344227fe0022016b72f10bbac46e7de8432f310ebc8ceb54fb6e4a9f80c5f2419ffe00f9d0e2e012102c27caea12805484851fefb014dd6753bf2d01ef2408d43e70207398b5b4418b7fefffffff484b199b83d23b614c4a51e1dfca613e3e86e5b89b7374e26200e851a3ceb52000000006a4730440220121995c95e573cf62f9d71969a21a38cdbed1d41bee90ee9056d848333f1e4e7022013f89347c9a96ea9a6132d2be15243e5a65427dc27275d3b9adcdf5436e402070121022e1de1a724619ad4bb59340197f10d04b46a8126f621f5363c171fda6e1a3a69feffffff212a9784c6c0f2a147200c74b6ec68aafc47c30bb073b48b158c42b69f961165000000006b48304502210087e389fa03b4515d349fe999402c900c44890dee7343b174c504f79d6604848002205f38230cf63fefbc35cb609c7989bc8c4df8108c0497ce0700e41092dd7ec074012102a8cc2d68a76f8888dc362f765701bb47a2b21ec3849d980ff63223c7b4c8ad6dfefffffff58cf630e622b406c6393f8da66041000d4d904d99d8b0249d130aaf2d5fdc81000000006a4730440220301bf4769730f2c559363fa1ac22e7a1459da20220d388fdad5ba1379d4b291202205a67505da4e66ebd744b08fe4f17c3f8eb53433cc2f9481e9f5f6ae51bfe4ed7012103d6d7bdcd4f65e426b0ed8511cda394de6c8f1fdfa921e7de95f288be03a42d98feffffffbd60a6025a0786fd1e5a56d681bf39861fd48b325cd6b704b7d3599c131b4537010000006a4730440220346b5bd62ca2f4a31601fa4799fe3ab4a23babe02b536d8bd81f78f040a27fda02201caef918f2847439a6ca0b8ab73471ba5c0a808def0901b43d91fc4e316c1395012102e79f5f5b9e7eafdf6bb0b9b439a1247a91f9007065403f1a49131c632241d4f6feffffff02401fee02000000001976a9147ee7187e88c03c1bb852028be6ee3d375fc2c7bb88ac730e1100000000001976a914d5107e85157c7be08dd673fb4d7bad9eef11e04f88acb4c11400"
    }, 
    {
      "txid": "c191ca8fcefcea1255523eedd263106b67e8c4f47567756d7bd12d120b718d77",
      "hash": "c191ca8fcefcea1255523eedd263106b67e8c4f47567756d7bd12d120b718d77",
      "version": 2,
      "size": 226,
      "vsize": 226,
      "locktime": 1360236,
      "vin": [
        {
          "txid": "dc72c3c6065641f8927804b4f077cd00145bb73f6f9395641300ab1648a7ceb1",
          "vout": 1,
          "scriptSig": {
            "asm": "3045022100ec5d0f6d94ed945becf5d100b9639d07b7af27796f01c6cfcd524764c58b5b9a02204f34c43bcc6b84494cd7a67f29fa46ca6606884db2afac751d14dc34d3cce250[ALL] 024468211d31f8a31636ea2d37155d60f9f1445f9f0d5142a3fe99df5025503ca3",
            "hex": "483045022100ec5d0f6d94ed945becf5d100b9639d07b7af27796f01c6cfcd524764c58b5b9a02204f34c43bcc6b84494cd7a67f29fa46ca6606884db2afac751d14dc34d3cce2500121024468211d31f8a31636ea2d37155d60f9f1445f9f0d5142a3fe99df5025503ca3"
          },
          "sequence": 4294967294
        }
      ],
      "vout": [
        {
          "value": 0.15395900,
          "n": 0,
          "scriptPubKey": {
            "asm": "OP_DUP OP_HASH160 65a6488eaabb2d7535f653e66d1abeb70fb34a15 OP_EQUALVERIFY OP_CHECKSIG",
            "hex": "76a91465a6488eaabb2d7535f653e66d1abeb70fb34a1588ac",
            "reqSigs": 1,
            "type": "pubkeyhash",
            "addresses": [
              "LUVRiAQNRzuNGECuKC7dL7tNeXcet6CGQC"
            ]
          }
        }, 
        {
          "value": 1.40104500,
          "n": 1,
          "scriptPubKey": {
            "asm": "OP_DUP OP_HASH160 341a41a6e904812264df50c198d39ff3c16efd1d OP_EQUALVERIFY OP_CHECKSIG",
            "hex": "76a914341a41a6e904812264df50c198d39ff3c16efd1d88ac",
            "reqSigs": 1,
            "type": "pubkeyhash",
            "addresses": [
              "LPySrX2cpHgxp4Gf52ASh8ZqBqw7W1zPYw"
            ]
          }
        }
      ],
      "hex": "0200000001b1cea74816ab00136495936f3fb75b1400cd77f0b4047892f8415606c6c372dc010000006b483045022100ec5d0f6d94ed945becf5d100b9639d07b7af27796f01c6cfcd524764c58b5b9a02204f34c43bcc6b84494cd7a67f29fa46ca6606884db2afac751d14dc34d3cce2500121024468211d31f8a31636ea2d37155d60f9f1445f9f0d5142a3fe99df5025503ca3feffffff023cecea00000000001976a91465a6488eaabb2d7535f653e66d1abeb70fb34a1588ac34d35908000000001976a914341a41a6e904812264df50c198d39ff3c16efd1d88ac6cc11400"
    }, 
    {
      "txid": "4ad98d39416fa31e7efe263c37dcc5423a91baca13e56606f0242d8e4238cea5",
      "hash": "4ad98d39416fa31e7efe263c37dcc5423a91baca13e56606f0242d8e4238cea5",
      "version": 1,
      "size": 226,
      "vsize": 226,
      "locktime": 0,
      "vin": [
        {
          "txid": "28f6b280d1b37bbf26b567833868a18321beef36a4ed143b3186d4c2e921c539",
          "vout": 0,
          "scriptSig": {
            "asm": "3045022100c6a39526d97224a4ebc156c63dbfc20d70430b77aaaca37f91571847d1383a36022035abe1c3bf660ecf323c5f11715d05706af6839ab8444555b9a0cd22d2d6db89[ALL] 032e79137253ff048ee5e8837eee127b893e41b8d6b625f0e815b2f5523e55c2ea",
            "hex": "483045022100c6a39526d97224a4ebc156c63dbfc20d70430b77aaaca37f91571847d1383a36022035abe1c3bf660ecf323c5f11715d05706af6839ab8444555b9a0cd22d2d6db890121032e79137253ff048ee5e8837eee127b893e41b8d6b625f0e815b2f5523e55c2ea"
          },
          "sequence": 4294967295
        }
      ],
      "vout": [
        {
          "value": 0.00054800,
          "n": 0,
          "scriptPubKey": {
            "asm": "OP_DUP OP_HASH160 d378dd7d1519f89c6e4c27813ac59412f8339638 OP_EQUALVERIFY OP_CHECKSIG",
            "hex": "76a914d378dd7d1519f89c6e4c27813ac59412f833963888ac",
            "reqSigs": 1,
            "type": "pubkeyhash",
            "addresses": [
              "LeW7dYqwTyajJ3Bj7joCb31AQiF9AZYjXg"
            ]
          }
        }, 
        {
          "value": 0.05700000,
          "n": 1,
          "scriptPubKey": {
            "asm": "OP_DUP OP_HASH160 f9b9e5ce146169c10ec6448935967950c45c1eaf OP_EQUALVERIFY OP_CHECKSIG",
            "hex": "76a914f9b9e5ce146169c10ec6448935967950c45c1eaf88ac",
            "reqSigs": 1,
            "type": "pubkeyhash",
            "addresses": [
              "LhzPDNkF5CFrGBuBkpuNWPikoxCAsV6jEd"
            ]
          }
        }
      ],
      "hex": "010000000139c521e9c2d486313b14eda436efbe2183a168388367b526bf7bb3d180b2f628000000006b483045022100c6a39526d97224a4ebc156c63dbfc20d70430b77aaaca37f91571847d1383a36022035abe1c3bf660ecf323c5f11715d05706af6839ab8444555b9a0cd22d2d6db890121032e79137253ff048ee5e8837eee127b893e41b8d6b625f0e815b2f5523e55c2eaffffffff0210d60000000000001976a914d378dd7d1519f89c6e4c27813ac59412f833963888aca0f95600000000001976a914f9b9e5ce146169c10ec6448935967950c45c1eaf88ac00000000"
    }
  ],
  "time": 1517410100,
  "mediantime": 1517408880,
  "nonce": 1681442448,
  "bits": "1a042eae",
  "difficulty": 4011378.762614286,
  "chainwork": "000000000000000000000000000000000000000000000034d1c129541058baee",
  "previousblockhash": "0952613d9fb8e2460dcc3ed0b1acac0e89555ce9e74e6ec32ccc084219c84b1c",
  "nextblockhash": "afdb0d9096957bac57b1d6d2c25df3bba1dd6d5c81a7847fd688b5f20a993c3e"
}
