{
  "hash": "b4870a6bbf9829eac1f798ec9a7d2c05b529ee7b8c4eed8c3fe0a3e87b220d77",
  "confirmations": 877,
  "strippedsize": 253,
  "size": 253,
  "weight": 1012,
  "height": 1360117,
  "version": 536870912,
  "versionHex": "20000000",
  "merkleroot": "ab22bc231c76687affd3888edf115992789e880bd7f6c88871615fb33b9bb45a",
  "tx": [
    {
      "txid": "ab22bc231c76687affd3888edf115992789e880bd7f6c88871615fb33b9bb45a",
      "hash": "ab22bc231c76687affd3888edf115992789e880bd7f6c88871615fb33b9bb45a",
      "version": 1,
      "size": 172,
      "vsize": 172,
      "locktime": 0,
      "vin": [
        {
          "coinbase": "03f5c0141a4d696e656420627920416e74506f6f6c20626a341e205a7153bafabe6d6d5f4418553206232c6bdcb5e392723d05e22adeacc2171c9dec4c93f424c0e8860400000000000000b52500000000000004000000",
          "sequence": 4294967295
        }
      ],
      "vout": [
        {
          "value": 25.00000000,
          "n": 0,
          "scriptPubKey": {
            "asm": "OP_DUP OP_HASH160 0ff3ccc5e8be88afe24b5d634e5852d474dbdff1 OP_EQUALVERIFY OP_CHECKSIG",
            "hex": "76a9140ff3ccc5e8be88afe24b5d634e5852d474dbdff188ac",
            "reqSigs": 1,
            "type": "pubkeyhash",
            "addresses": [
              "LLgJTbzZMsRTCUF1NtvvL9SR1a4pVieW89"
            ]
          }
        }
      ],
      "hex": "01000000010000000000000000000000000000000000000000000000000000000000000000ffffffff5703f5c0141a4d696e656420627920416e74506f6f6c20626a341e205a7153bafabe6d6d5f4418553206232c6bdcb5e392723d05e22adeacc2171c9dec4c93f424c0e8860400000000000000b52500000000000004000000ffffffff0100f90295000000001976a9140ff3ccc5e8be88afe24b5d634e5852d474dbdff188ac00000000"
    }
  ],
  "time": 1517376442,
  "mediantime": 1517375259,
  "nonce": 2823125954,
  "bits": "1a042eae",
  "difficulty": 4011378.762614286,
  "chainwork": "000000000000000000000000000000000000000000000034a39bafa9676eefec",
  "previousblockhash": "5f5004f488d332b6a436f8a755e51cc7192bf3922a5f39886a13db349abdfc44",
  "nextblockhash": "0dd25ee3696d1002169cafb38e75a4d7caf6b2e4936c38c4732b895afc4a1fed"
}
