{
  "hash": "b4b7619f4b9a462c98c7e45545aa570db61dc94df8e60f662dd95f523078a210",
  "confirmations": 2229,
  "strippedsize": 234,
  "size": 234,
  "weight": 936,
  "height": 1358765,
  "version": 536870912,
  "versionHex": "20000000",
  "merkleroot": "e5c5fa514c6b1e2daed064d574c89cfb7f16bd5fa58738c0503772635a0a1742",
  "tx": [
    {
      "txid": "e5c5fa514c6b1e2daed064d574c89cfb7f16bd5fa58738c0503772635a0a1742",
      "hash": "e5c5fa514c6b1e2daed064d574c89cfb7f16bd5fa58738c0503772635a0a1742",
      "version": 1,
      "size": 153,
      "vsize": 153,
      "locktime": 0,
      "vin": [
        {
          "coinbase": "03adbb14045a6e79342cfabe6d6df4f4bca7e93b0ffc1474614f551e2b5866a556332f9976bd0728e6e86430b6974000000000000000042f4c502f085700568e5555556c",
          "sequence": 4294967295
        }
      ],
      "vout": [
        {
          "value": 25.00000000,
          "n": 0,
          "scriptPubKey": {
            "asm": "OP_DUP OP_HASH160 57757ed2ecf2052ff3126c397aca7defb9ca2cec OP_EQUALVERIFY OP_CHECKSIG",
            "hex": "76a91457757ed2ecf2052ff3126c397aca7defb9ca2cec88ac",
            "reqSigs": 1,
            "type": "pubkeyhash",
            "addresses": [
              "LTCPodGk5FwcJaRzH9yKnwicxzFUbxp6tN"
            ]
          }
        }
      ],
      "hex": "01000000010000000000000000000000000000000000000000000000000000000000000000ffffffff4403adbb14045a6e79342cfabe6d6df4f4bca7e93b0ffc1474614f551e2b5866a556332f9976bd0728e6e86430b6974000000000000000042f4c502f085700568e5555556cffffffff0100f90295000000001976a91457757ed2ecf2052ff3126c397aca7defb9ca2cec88ac00000000"
    }
  ],
  "time": 1517189428,
  "mediantime": 1517188717,
  "nonce": 3793086501,
  "bits": "1a047f14",
  "difficulty": 3731199.183374282,
  "chainwork": "00000000000000000000000000000000000000000000003360a51abc31b06aac",
  "previousblockhash": "3b6e41e52bf616be6c710a9a46b9057493da292c6cb4866431b84289b9d41157",
  "nextblockhash": "e44fc247e591669359ffb60094c55743466c19af5f757e6eeded7ae3c8bf9550"
}
