{
  "hash": "b5259f871c9e73dd60013ca9f6b4e6355006e181a614657c705fe2552073a076",
  "confirmations": 2363,
  "strippedsize": 506,
  "size": 542,
  "weight": 2060,
  "height": 1358632,
  "version": 536870912,
  "versionHex": "20000000",
  "merkleroot": "fc7184d3750b6faf9ed68b9836420759b1729d1fc297e503384e2f34c438e770",
  "tx": [
    {
      "txid": "47f72da315a40bd50fe2d0879d1ce72e6a75689c2e6da40fb64207f63a87201d",
      "hash": "ec322b99656e9d9ec2ffa7e91dcea2d0f219774b7720b854fab54ec23d11ea23",
      "version": 1,
      "size": 236,
      "vsize": 209,
      "locktime": 0,
      "vin": [
        {
          "coinbase": "0328bb14045a6e2a0f2cfabe6d6d9c94c74d38ce4a8675f7e1cbf29a5cf41a61b9ec299fb6eb0fa217d854f406524000000000000000042f4c502f085c00142a1a000000",
          "sequence": 4294967295
        }
      ],
      "vout": [
        {
          "value": 25.00113073,
          "n": 0,
          "scriptPubKey": {
            "asm": "OP_DUP OP_HASH160 57757ed2ecf2052ff3126c397aca7defb9ca2cec OP_EQUALVERIFY OP_CHECKSIG",
            "hex": "76a91457757ed2ecf2052ff3126c397aca7defb9ca2cec88ac",
            "reqSigs": 1,
            "type": "pubkeyhash",
            "addresses": [
              "LTCPodGk5FwcJaRzH9yKnwicxzFUbxp6tN"
            ]
          }
        }, 
        {
          "value": 0.00000000,
          "n": 1,
          "scriptPubKey": {
            "asm": "OP_RETURN aa21a9ed6e1e52193fd1237aacaf21ac38d06cb82600037d0d719341933c6cbe15551e6e",
            "hex": "6a24aa21a9ed6e1e52193fd1237aacaf21ac38d06cb82600037d0d719341933c6cbe15551e6e",
            "type": "nulldata"
          }
        }
      ],
      "hex": "010000000001010000000000000000000000000000000000000000000000000000000000000000ffffffff440328bb14045a6e2a0f2cfabe6d6d9c94c74d38ce4a8675f7e1cbf29a5cf41a61b9ec299fb6eb0fa217d854f406524000000000000000042f4c502f085c00142a1a000000ffffffff02b1b20495000000001976a91457757ed2ecf2052ff3126c397aca7defb9ca2cec88ac0000000000000000266a24aa21a9ed6e1e52193fd1237aacaf21ac38d06cb82600037d0d719341933c6cbe15551e6e0120000000000000000000000000000000000000000000000000000000000000000000000000"
    }, 
    {
      "txid": "6b0e0cf85e9043373c6ea3b55f2dc6d1c1f8674dace03dbd96d546897682ae5e",
      "hash": "6b0e0cf85e9043373c6ea3b55f2dc6d1c1f8674dace03dbd96d546897682ae5e",
      "version": 1,
      "size": 225,
      "vsize": 225,
      "locktime": 0,
      "vin": [
        {
          "txid": "92f2fd08032ffd31b79a27847b965e634de6bed85a82db498c4e95c2b3b8be22",
          "vout": 0,
          "scriptSig": {
            "asm": "304402200daa06f93f5904df73c00d52f7fe130ff58d8b17a6bbecd14dd549dbda77309d02207b0ab748f4cb72c965c4500ff2d930fafacdb5b46fde10c4367d9c16e2254635[ALL] 03f9631ac75d2427ed9874f69cb552babce37e11059d2ee1fcd43024c737967ffc",
            "hex": "47304402200daa06f93f5904df73c00d52f7fe130ff58d8b17a6bbecd14dd549dbda77309d02207b0ab748f4cb72c965c4500ff2d930fafacdb5b46fde10c4367d9c16e2254635012103f9631ac75d2427ed9874f69cb552babce37e11059d2ee1fcd43024c737967ffc"
          },
          "sequence": 4294967295
        }
      ],
      "vout": [
        {
          "value": 5.75554625,
          "n": 0,
          "scriptPubKey": {
            "asm": "OP_DUP OP_HASH160 82dfd6146f674fcfbc5a4629f8812bafe6a89b11 OP_EQUALVERIFY OP_CHECKSIG",
            "hex": "76a91482dfd6146f674fcfbc5a4629f8812bafe6a89b1188ac",
            "reqSigs": 1,
            "type": "pubkeyhash",
            "addresses": [
              "LX9xFZo2RvgGSpuv9MVyywzpKdk4i5Qzow"
            ]
          }
        }, 
        {
          "value": 23.77437100,
          "n": 1,
          "scriptPubKey": {
            "asm": "OP_DUP OP_HASH160 8419747ced5504b12327e0ed7e2cfae25a96f89e OP_EQUALVERIFY OP_CHECKSIG",
            "hex": "76a9148419747ced5504b12327e0ed7e2cfae25a96f89e88ac",
            "reqSigs": 1,
            "type": "pubkeyhash",
            "addresses": [
              "LXGRxBTpywSRD9HUuqHvkVWGJ26hERHC9b"
            ]
          }
        }
      ],
      "hex": "010000000122beb8b3c2954e8c49db825ad8bee64d635e967b84279ab731fd2f0308fdf292000000006a47304402200daa06f93f5904df73c00d52f7fe130ff58d8b17a6bbecd14dd549dbda77309d02207b0ab748f4cb72c965c4500ff2d930fafacdb5b46fde10c4367d9c16e2254635012103f9631ac75d2427ed9874f69cb552babce37e11059d2ee1fcd43024c737967ffcffffffff0241444e22000000001976a91482dfd6146f674fcfbc5a4629f8812bafe6a89b1188acaccfb48d000000001976a9148419747ced5504b12327e0ed7e2cfae25a96f89e88ac00000000"
    }
  ],
  "time": 1517169167,
  "mediantime": 1517168193,
  "nonce": 4146850898,
  "bits": "1a047f14",
  "difficulty": 3731199.183374282,
  "chainwork": "0000000000000000000000000000000000000000000000334310d2948601b12a",
  "previousblockhash": "a3df8b4a6920e82cb6af17affd4ef76797a29db8ca3530a9985e6db974a14d13",
  "nextblockhash": "2c3f453c91c562d3e2d2533b5b0996cfd8958c43bf380139ac59ccebc7aa85b1"
}
