{
  "hash": "b5532ba5c030dfd9feb985edd5be3b1e79c95495823eebd6143eb93a2886175c",
  "confirmations": 2470,
  "strippedsize": 1553,
  "size": 1589,
  "weight": 6248,
  "height": 1358525,
  "version": 536870912,
  "versionHex": "20000000",
  "merkleroot": "0e613eb41769eda18944e087c2422e1372a0c6bffc2ec1a1f547e17ce17a13cd",
  "tx": [
    {
      "txid": "3eed3fb3470c2c9bd02ed83e2de6de05ee10b71de5a847fdaf4d29a91498c6b0",
      "hash": "919f3df875fdf5be18ec1b9fa3ac2b3187c7718219375364b7c034639231160d",
      "version": 1,
      "size": 236,
      "vsize": 209,
      "locktime": 0,
      "vin": [
        {
          "coinbase": "03bdba14045a6deda42cfabe6d6d1c7d8bb12d8804c5b576121eb99ac68617b546dd8214da2169ce5fc3554b5ca04000000000000000042f4c502f08220069db38000000",
          "sequence": 4294967295
        }
      ],
      "vout": [
        {
          "value": 25.00334602,
          "n": 0,
          "scriptPubKey": {
            "asm": "OP_DUP OP_HASH160 57757ed2ecf2052ff3126c397aca7defb9ca2cec OP_EQUALVERIFY OP_CHECKSIG",
            "hex": "76a91457757ed2ecf2052ff3126c397aca7defb9ca2cec88ac",
            "reqSigs": 1,
            "type": "pubkeyhash",
            "addresses": [
              "LTCPodGk5FwcJaRzH9yKnwicxzFUbxp6tN"
            ]
          }
        }, 
        {
          "value": 0.00000000,
          "n": 1,
          "scriptPubKey": {
            "asm": "OP_RETURN aa21a9ed42d4f9ef9f7bbe88bbfd7c5b3c38428980c9d397ac91e173972f2075dc684355",
            "hex": "6a24aa21a9ed42d4f9ef9f7bbe88bbfd7c5b3c38428980c9d397ac91e173972f2075dc684355",
            "type": "nulldata"
          }
        }
      ],
      "hex": "010000000001010000000000000000000000000000000000000000000000000000000000000000ffffffff4403bdba14045a6deda42cfabe6d6d1c7d8bb12d8804c5b576121eb99ac68617b546dd8214da2169ce5fc3554b5ca04000000000000000042f4c502f08220069db38000000ffffffff020a140895000000001976a91457757ed2ecf2052ff3126c397aca7defb9ca2cec88ac0000000000000000266a24aa21a9ed42d4f9ef9f7bbe88bbfd7c5b3c38428980c9d397ac91e173972f2075dc6843550120000000000000000000000000000000000000000000000000000000000000000000000000"
    }, 
    {
      "txid": "3c1ceb8481c40b5e63924c61241b2f497eb4aa3909ab8f5d49ac466b789e127b",
      "hash": "3c1ceb8481c40b5e63924c61241b2f497eb4aa3909ab8f5d49ac466b789e127b",
      "version": 1,
      "size": 225,
      "vsize": 225,
      "locktime": 0,
      "vin": [
        {
          "txid": "5a146e94fc34ab484b93c8119311b778a04ffbc5ebf09b3a9f2aad633998d45b",
          "vout": 0,
          "scriptSig": {
            "asm": "304402202bbc21012ca1639d0ff6019a79a40f58ea20e02fdc50e6e52bde4ee131358baf02200846bff718890962cd41c9bb8a3ad6199f6846384d0c143fbe6d221bfcea4996[ALL] 02965b33ca07a0d5365e94199690f74bebe7d71a2920c16a90b82245221a4a8f2e",
            "hex": "47304402202bbc21012ca1639d0ff6019a79a40f58ea20e02fdc50e6e52bde4ee131358baf02200846bff718890962cd41c9bb8a3ad6199f6846384d0c143fbe6d221bfcea4996012102965b33ca07a0d5365e94199690f74bebe7d71a2920c16a90b82245221a4a8f2e"
          },
          "sequence": 4294967295
        }
      ],
      "vout": [
        {
          "value": 0.75000000,
          "n": 0,
          "scriptPubKey": {
            "asm": "OP_DUP OP_HASH160 b83e07bd88f3d8e83d2defd4db8b028d2270ea2f OP_EQUALVERIFY OP_CHECKSIG",
            "hex": "76a914b83e07bd88f3d8e83d2defd4db8b028d2270ea2f88ac",
            "reqSigs": 1,
            "type": "pubkeyhash",
            "addresses": [
              "Lc28uSq7baX1Wwc8mTgA6GT5cMiUPKYpCX"
            ]
          }
        }, 
        {
          "value": 0.75873292,
          "n": 1,
          "scriptPubKey": {
            "asm": "OP_DUP OP_HASH160 12b1f63e51969957cb6487c176d729d64b0bab53 OP_EQUALVERIFY OP_CHECKSIG",
            "hex": "76a91412b1f63e51969957cb6487c176d729d64b0bab5388ac",
            "reqSigs": 1,
            "type": "pubkeyhash",
            "addresses": [
              "LLvocg65crE7cBwyJ1YZAJnEUTCoSyRnBT"
            ]
          }
        }
      ],
      "hex": "01000000015bd4983963ad2a9f3a9bf0ebc5fb4fa078b7119311c8934b48ab34fc946e145a000000006a47304402202bbc21012ca1639d0ff6019a79a40f58ea20e02fdc50e6e52bde4ee131358baf02200846bff718890962cd41c9bb8a3ad6199f6846384d0c143fbe6d221bfcea4996012102965b33ca07a0d5365e94199690f74bebe7d71a2920c16a90b82245221a4a8f2effffffff02c0687804000000001976a914b83e07bd88f3d8e83d2defd4db8b028d2270ea2f88ac0cbc8504000000001976a91412b1f63e51969957cb6487c176d729d64b0bab5388ac00000000"
    }, 
    {
      "txid": "591ebcfd904aab78e6b3215d1e98515c5d6ebc6c0705c96aa83c2ea990355a55",
      "hash": "591ebcfd904aab78e6b3215d1e98515c5d6ebc6c0705c96aa83c2ea990355a55",
      "version": 1,
      "size": 225,
      "vsize": 225,
      "locktime": 1358523,
      "vin": [
        {
          "txid": "98b1915096402ca1abd01a35cd85daa2b5c178bc126674f721b36a44a58937ae",
          "vout": 0,
          "scriptSig": {
            "asm": "30440220253f436d5ba223e743d33048f9157c42ffeea2feb4d44889715fe92eb3fa5d11022022d7801c2a231e2fdb746928f7bff5cf54aaa6ad76293a4a85bab27077bd3364[ALL] 026c5c7fe3c9af3bb9c2eca82e9e1099310c473daed3087fce1e4d1f7203a8cd08",
            "hex": "4730440220253f436d5ba223e743d33048f9157c42ffeea2feb4d44889715fe92eb3fa5d11022022d7801c2a231e2fdb746928f7bff5cf54aaa6ad76293a4a85bab27077bd33640121026c5c7fe3c9af3bb9c2eca82e9e1099310c473daed3087fce1e4d1f7203a8cd08"
          },
          "sequence": 4294967294
        }
      ],
      "vout": [
        {
          "value": 0.01184339,
          "n": 0,
          "scriptPubKey": {
            "asm": "OP_DUP OP_HASH160 a3e549b402908d95a33ea268fa8ed0c66e542587 OP_EQUALVERIFY OP_CHECKSIG",
            "hex": "76a914a3e549b402908d95a33ea268fa8ed0c66e54258788ac",
            "reqSigs": 1,
            "type": "pubkeyhash",
            "addresses": [
              "LaAZ5gdnCqCJspepBMSrwYD333wBUo9onv"
            ]
          }
        }, 
        {
          "value": 0.66327029,
          "n": 1,
          "scriptPubKey": {
            "asm": "OP_DUP OP_HASH160 519de9721796a1079b768ec79cb6d05b0da95811 OP_EQUALVERIFY OP_CHECKSIG",
            "hex": "76a914519de9721796a1079b768ec79cb6d05b0da9581188ac",
            "reqSigs": 1,
            "type": "pubkeyhash",
            "addresses": [
              "LSfWAfN34LSnx717enLtMDp25KUWRQct9S"
            ]
          }
        }
      ],
      "hex": "0100000001ae3789a5446ab321f7746612bc78c1b5a2da85cd351ad0aba12c40965091b198000000006a4730440220253f436d5ba223e743d33048f9157c42ffeea2feb4d44889715fe92eb3fa5d11022022d7801c2a231e2fdb746928f7bff5cf54aaa6ad76293a4a85bab27077bd33640121026c5c7fe3c9af3bb9c2eca82e9e1099310c473daed3087fce1e4d1f7203a8cd08feffffff0253121200000000001976a914a3e549b402908d95a33ea268fa8ed0c66e54258788acf511f403000000001976a914519de9721796a1079b768ec79cb6d05b0da9581188acbbba1400"
    }, 
    {
      "txid": "9159dfbd833e4cf86a1443160c3a3671c2bc85690ddc04e648aff6a5391f38b6",
      "hash": "9159dfbd833e4cf86a1443160c3a3671c2bc85690ddc04e648aff6a5391f38b6",
      "version": 2,
      "size": 370,
      "vsize": 370,
      "locktime": 1358522,
      "vin": [
        {
          "txid": "01a2090402cc830949882e76f7a60a9dbe49ebb1563e26aa788037c57613ab04",
          "vout": 1,
          "scriptSig": {
            "asm": "3044022069e9099953e9f78c951e603a647fbba989c1b5de177f3d973a5772adbe24ce4f02201ade61d6dbc9c1c1cf55ef31590d68b2971a34c2b0018b50c951a3508dd4345b[ALL] 02f602fca1d379c102ac299d18ee7892f7ab6781db587e35a74bcc57e3b39f616d",
            "hex": "473044022069e9099953e9f78c951e603a647fbba989c1b5de177f3d973a5772adbe24ce4f02201ade61d6dbc9c1c1cf55ef31590d68b2971a34c2b0018b50c951a3508dd4345b012102f602fca1d379c102ac299d18ee7892f7ab6781db587e35a74bcc57e3b39f616d"
          },
          "sequence": 4294967294
        }, 
        {
          "txid": "acfad97978f9b5ab6eb26a35b70496cad6f009634e17755f87b9ee44ff03662d",
          "vout": 0,
          "scriptSig": {
            "asm": "3044022057cb14916edc6a51ecd5127254bf37dd8d2a37e738a2fece675744d756f6e24d02205af2960d675145f1417c8feca958855aa76415df5969a65f2e4f1c280e4f425d[ALL] 021e0a21dc167e5fb023dfcdcb082fd683b134343d0d48a04b75693f1190044d44",
            "hex": "473044022057cb14916edc6a51ecd5127254bf37dd8d2a37e738a2fece675744d756f6e24d02205af2960d675145f1417c8feca958855aa76415df5969a65f2e4f1c280e4f425d0121021e0a21dc167e5fb023dfcdcb082fd683b134343d0d48a04b75693f1190044d44"
          },
          "sequence": 4294967294
        }
      ],
      "vout": [
        {
          "value": 0.38874597,
          "n": 0,
          "scriptPubKey": {
            "asm": "OP_HASH160 898c94a8eba2ab65e982ae5529b73a5e8487a76f OP_EQUAL",
            "hex": "a914898c94a8eba2ab65e982ae5529b73a5e8487a76f87",
            "reqSigs": 1,
            "type": "scripthash",
            "addresses": [
              "MLSTDRrmyqbMr9rd2qrSqDHYPtAyrRZRba"
            ]
          }
        }, 
        {
          "value": 0.02039473,
          "n": 1,
          "scriptPubKey": {
            "asm": "OP_DUP OP_HASH160 ecdb7e76ec35da8156a68e9c3413bc8ce5e6e387 OP_EQUALVERIFY OP_CHECKSIG",
            "hex": "76a914ecdb7e76ec35da8156a68e9c3413bc8ce5e6e38788ac",
            "reqSigs": 1,
            "type": "pubkeyhash",
            "addresses": [
              "LgpLgCJKtRFvx6K8sdVbvBeknAbG4U5mzb"
            ]
          }
        }
      ],
      "hex": "020000000204ab1376c5378078aa263e56b1eb49be9d0aa6f7762e88490983cc020409a201010000006a473044022069e9099953e9f78c951e603a647fbba989c1b5de177f3d973a5772adbe24ce4f02201ade61d6dbc9c1c1cf55ef31590d68b2971a34c2b0018b50c951a3508dd4345b012102f602fca1d379c102ac299d18ee7892f7ab6781db587e35a74bcc57e3b39f616dfeffffff2d6603ff44eeb9875f75174e6309f0d6ca9604b7356ab26eabb5f97879d9faac000000006a473044022057cb14916edc6a51ecd5127254bf37dd8d2a37e738a2fece675744d756f6e24d02205af2960d675145f1417c8feca958855aa76415df5969a65f2e4f1c280e4f425d0121021e0a21dc167e5fb023dfcdcb082fd683b134343d0d48a04b75693f1190044d44feffffff02e52d51020000000017a914898c94a8eba2ab65e982ae5529b73a5e8487a76f87b11e1f00000000001976a914ecdb7e76ec35da8156a68e9c3413bc8ce5e6e38788acbaba1400"
    }, 
    {
      "txid": "3124cf628427a0b5bcbc83b3756522ca9d78ba1e8b463a95c272d10eee758704",
      "hash": "3124cf628427a0b5bcbc83b3756522ca9d78ba1e8b463a95c272d10eee758704",
      "version": 1,
      "size": 226,
      "vsize": 226,
      "locktime": 0,
      "vin": [
        {
          "txid": "bdcc857c5f076c1aed78b2e3837cc089ed687d7ce8f8a0f4e2456426c46ba7bf",
          "vout": 1,
          "scriptSig": {
            "asm": "3045022100e99182efd0a1328c559b48910e156fd2963a6dd85d954d4086865201b3e1748802202890882834c0eeacd046850d4917b70577f0817290f13f4908b4b7e62eb617c8[ALL] 028520f455d9668f2087e41df4f8e0ba9b7d60ee8ef7c7f8187beae4540e62331f",
            "hex": "483045022100e99182efd0a1328c559b48910e156fd2963a6dd85d954d4086865201b3e1748802202890882834c0eeacd046850d4917b70577f0817290f13f4908b4b7e62eb617c80121028520f455d9668f2087e41df4f8e0ba9b7d60ee8ef7c7f8187beae4540e62331f"
          },
          "sequence": 4294967295
        }
      ],
      "vout": [
        {
          "value": 11.71041549,
          "n": 0,
          "scriptPubKey": {
            "asm": "OP_DUP OP_HASH160 9a8cf04a9a288c9eb01d207e9e472b92a9d6322e OP_EQUALVERIFY OP_CHECKSIG",
            "hex": "76a9149a8cf04a9a288c9eb01d207e9e472b92a9d6322e88ac",
            "reqSigs": 1,
            "type": "pubkeyhash",
            "addresses": [
              "LZK9ALrfJTNiQnuWFmnfdJKWgP5gMGi8DY"
            ]
          }
        }, 
        {
          "value": 1.44759794,
          "n": 1,
          "scriptPubKey": {
            "asm": "OP_DUP OP_HASH160 dc42f6c5b02f5493e597e30b6c4ef414322f9fd5 OP_EQUALVERIFY OP_CHECKSIG",
            "hex": "76a914dc42f6c5b02f5493e597e30b6c4ef414322f9fd588ac",
            "reqSigs": 1,
            "type": "pubkeyhash",
            "addresses": [
              "LfJb99pG2LxM9dZTMANPxQxwFMzp3mtzxT"
            ]
          }
        }
      ],
      "hex": "0100000001bfa76bc4266445e2f4a0f8e87c7d68ed89c07c83e3b278ed1a6c075f7c85ccbd010000006b483045022100e99182efd0a1328c559b48910e156fd2963a6dd85d954d4086865201b3e1748802202890882834c0eeacd046850d4917b70577f0817290f13f4908b4b7e62eb617c80121028520f455d9668f2087e41df4f8e0ba9b7d60ee8ef7c7f8187beae4540e62331fffffffff020dadcc45000000001976a9149a8cf04a9a288c9eb01d207e9e472b92a9d6322e88acf2dba008000000001976a914dc42f6c5b02f5493e597e30b6c4ef414322f9fd588ac00000000"
    }, 
    {
      "txid": "e48ddf3e4dceb19cd51b6a3a5836a5f2b28406aa3321b9a839f71944bd387eec",
      "hash": "e48ddf3e4dceb19cd51b6a3a5836a5f2b28406aa3321b9a839f71944bd387eec",
      "version": 1,
      "size": 226,
      "vsize": 226,
      "locktime": 0,
      "vin": [
        {
          "txid": "4829e0e62719901c2bdf603da7e3ef6d4d6e54f7ee0350564fbafa808faacb0d",
          "vout": 1,
          "scriptSig": {
            "asm": "3045022100b4f7a04793ce5af52944ef48ddc0ebd6e1ea8af0db27c6ff6b228a442b2e2b6602202587d6eba23a9995016de4c32d8e0279ef7217bf81c0b77813255d2b515360d1[ALL] 0281308f49a7b00d9627e3615f407b49b74af0689180b53f8c56d1805502b9f721",
            "hex": "483045022100b4f7a04793ce5af52944ef48ddc0ebd6e1ea8af0db27c6ff6b228a442b2e2b6602202587d6eba23a9995016de4c32d8e0279ef7217bf81c0b77813255d2b515360d101210281308f49a7b00d9627e3615f407b49b74af0689180b53f8c56d1805502b9f721"
          },
          "sequence": 4294967295
        }
      ],
      "vout": [
        {
          "value": 2.64836993,
          "n": 0,
          "scriptPubKey": {
            "asm": "OP_DUP OP_HASH160 f09047cda7f41df8623eb2e5012bede4f48164f2 OP_EQUALVERIFY OP_CHECKSIG",
            "hex": "76a914f09047cda7f41df8623eb2e5012bede4f48164f288ac",
            "reqSigs": 1,
            "type": "pubkeyhash",
            "addresses": [
              "Lh9wH339J2wbu15cA1rXVZzaFhDUDQxBj1"
            ]
          }
        }, 
        {
          "value": 2.75956284,
          "n": 1,
          "scriptPubKey": {
            "asm": "OP_DUP OP_HASH160 58913d04e3d7fe760b9b544c8d9c2bc598370c2a OP_EQUALVERIFY OP_CHECKSIG",
            "hex": "76a91458913d04e3d7fe760b9b544c8d9c2bc598370c2a88ac",
            "reqSigs": 1,
            "type": "pubkeyhash",
            "addresses": [
              "LTJFiS1PvrbMTHSagw8qT3jbvn8VwJiigb"
            ]
          }
        }
      ],
      "hex": "01000000010dcbaa8f80faba4f565003eef7546e4d6defe3a73d60df2b1c901927e6e02948010000006b483045022100b4f7a04793ce5af52944ef48ddc0ebd6e1ea8af0db27c6ff6b228a442b2e2b6602202587d6eba23a9995016de4c32d8e0279ef7217bf81c0b77813255d2b515360d101210281308f49a7b00d9627e3615f407b49b74af0689180b53f8c56d1805502b9f721ffffffff028117c90f000000001976a914f09047cda7f41df8623eb2e5012bede4f48164f288ac3cc27210000000001976a91458913d04e3d7fe760b9b544c8d9c2bc598370c2a88ac00000000"
    }
  ],
  "time": 1517153700,
  "mediantime": 1517153523,
  "nonce": 1902574920,
  "bits": "1a047f14",
  "difficulty": 3731199.183374282,
  "chainwork": "0000000000000000000000000000000000000000000000332b44d61fea90124c",
  "previousblockhash": "2cc47a4d1e647f9cceba75acf7693c835cc1bc0a4410d12b1c0bf26f0f9c71fc",
  "nextblockhash": "864368e7d69f92c56f63ea498258595e9edcda1fc6c608600284b12c54a8af85"
}
