{
  "hash": "b5f5335044406499e39f01fe9f4a197a428488cfd4762733685637fe4bdb03d2",
  "confirmations": 3394,
  "strippedsize": 729,
  "size": 765,
  "weight": 2952,
  "height": 1357601,
  "version": 536870912,
  "versionHex": "20000000",
  "merkleroot": "26a1aa96c6d6d2f05ee14f1e41a17643629884b44bc0c56298238671a5bb1e13",
  "tx": [
    {
      "txid": "67489761b74214b03a3c23ab030104a0d8e9385dc419a55a4032a362d9217966",
      "hash": "1fdb1936813f68a6ce595b5c3e9eaf0e2a63ecb399f195879ef360e522bc5474",
      "version": 2,
      "size": 234,
      "vsize": 207,
      "locktime": 0,
      "vin": [
        {
          "coinbase": "0321b7140459f46b5a2ffabe6d6df4c509b0713875167d02a29e8db2fc1891f653cb968ae486477fc00efd4ced1c0100000000000000040355a67f04000000000000",
          "sequence": 4294967295
        }
      ],
      "vout": [
        {
          "value": 25.00045200,
          "n": 0,
          "scriptPubKey": {
            "asm": "OP_DUP OP_HASH160 3d29d474d0a98b5b2669d990d2917780837edf0c OP_EQUALVERIFY OP_CHECKSIG",
            "hex": "76a9143d29d474d0a98b5b2669d990d2917780837edf0c88ac",
            "reqSigs": 1,
            "type": "pubkeyhash",
            "addresses": [
              "LQoMbJnzRK2sDXazJuUNXPTx7FrKKPJgt6"
            ]
          }
        }, 
        {
          "value": 0.00000000,
          "n": 1,
          "scriptPubKey": {
            "asm": "OP_RETURN aa21a9ed74f9ae604cf33451ddbecbdd238067e8aa73acb9351f7d6247d5d0bde865a258",
            "hex": "6a24aa21a9ed74f9ae604cf33451ddbecbdd238067e8aa73acb9351f7d6247d5d0bde865a258",
            "type": "nulldata"
          }
        }
      ],
      "hex": "020000000001010000000000000000000000000000000000000000000000000000000000000000ffffffff420321b7140459f46b5a2ffabe6d6df4c509b0713875167d02a29e8db2fc1891f653cb968ae486477fc00efd4ced1c0100000000000000040355a67f04000000000000ffffffff0290a90395000000001976a9143d29d474d0a98b5b2669d990d2917780837edf0c88ac0000000000000000266a24aa21a9ed74f9ae604cf33451ddbecbdd238067e8aa73acb9351f7d6247d5d0bde865a2580120000000000000000000000000000000000000000000000000000000000000000000000000"
    }, 
    {
      "txid": "65f4efd48b84771c300dd1f2d1b3006ec59314a0ba6438a1c6f15da239b5cf04",
      "hash": "65f4efd48b84771c300dd1f2d1b3006ec59314a0ba6438a1c6f15da239b5cf04",
      "version": 2,
      "size": 225,
      "vsize": 225,
      "locktime": 1357579,
      "vin": [
        {
          "txid": "742ec24d4fa80f9cb2268c6e5157d4fe3ef18fcfbea1b0a2aa4d02ced1cdece0",
          "vout": 0,
          "scriptSig": {
            "asm": "304402207dcec7cad19557f2d1cdb91fd02298b0a3c3d93dce4e3629e09adfb3aec0c56902200c3d6682bab317dce54b656af1cc0791f5cf6471e57046e10f645811f9231ac1[ALL] 030256e728f51222b3e64e73373eebb9270ed4746ddee55489de4d067be4b4c7b1",
            "hex": "47304402207dcec7cad19557f2d1cdb91fd02298b0a3c3d93dce4e3629e09adfb3aec0c56902200c3d6682bab317dce54b656af1cc0791f5cf6471e57046e10f645811f9231ac10121030256e728f51222b3e64e73373eebb9270ed4746ddee55489de4d067be4b4c7b1"
          },
          "sequence": 4294967294
        }
      ],
      "vout": [
        {
          "value": 0.34992259,
          "n": 0,
          "scriptPubKey": {
            "asm": "OP_DUP OP_HASH160 53c9d572ab8cdfa9d7c2c7b4cf84476dd58bb55c OP_EQUALVERIFY OP_CHECKSIG",
            "hex": "76a91453c9d572ab8cdfa9d7c2c7b4cf84476dd58bb55c88ac",
            "reqSigs": 1,
            "type": "pubkeyhash",
            "addresses": [
              "LSrz8ntBC7bMuAGqYii8aagyppzy3jGFY9"
            ]
          }
        }, 
        {
          "value": 0.12617157,
          "n": 1,
          "scriptPubKey": {
            "asm": "OP_DUP OP_HASH160 7a9be2fc84a0658591297cfb5c05cd38ddc83939 OP_EQUALVERIFY OP_CHECKSIG",
            "hex": "76a9147a9be2fc84a0658591297cfb5c05cd38ddc8393988ac",
            "reqSigs": 1,
            "type": "pubkeyhash",
            "addresses": [
              "LWQFSp2vwjGmsnbpM1zhhvJcdfvDaBZxqL"
            ]
          }
        }
      ],
      "hex": "0200000001e0eccdd1ce024daaa2b0a1becf8ff13efed457516e8c26b29c0fa84f4dc22e74000000006a47304402207dcec7cad19557f2d1cdb91fd02298b0a3c3d93dce4e3629e09adfb3aec0c56902200c3d6682bab317dce54b656af1cc0791f5cf6471e57046e10f645811f9231ac10121030256e728f51222b3e64e73373eebb9270ed4746ddee55489de4d067be4b4c7b1feffffff0283f01502000000001976a91453c9d572ab8cdfa9d7c2c7b4cf84476dd58bb55c88acc585c000000000001976a9147a9be2fc84a0658591297cfb5c05cd38ddc8393988ac0bb71400"
    }, 
    {
      "txid": "06396eea3e94608608ab4f535cef542bf58321b07203ac97adaa638a99d91227",
      "hash": "06396eea3e94608608ab4f535cef542bf58321b07203ac97adaa638a99d91227",
      "version": 1,
      "size": 225,
      "vsize": 225,
      "locktime": 0,
      "vin": [
        {
          "txid": "8b097b82a4c7c3b7c6d3d90563944e26c525acae61fb268bb405f58e63e39480",
          "vout": 5,
          "scriptSig": {
            "asm": "304402206f0d9ad29acd9ef10f788ce13663cae65f96ff15d3010c0da5431dd9e51a1b1102207b2d34e550d9de88c3d03da09e054f4770421a617dff184c5968049595589e1f[ALL] 033e3c9dd8face9ab499abd34fd81c308edc540d5144c5764cf1eee8b392d6f28a",
            "hex": "47304402206f0d9ad29acd9ef10f788ce13663cae65f96ff15d3010c0da5431dd9e51a1b1102207b2d34e550d9de88c3d03da09e054f4770421a617dff184c5968049595589e1f0121033e3c9dd8face9ab499abd34fd81c308edc540d5144c5764cf1eee8b392d6f28a"
          },
          "sequence": 4294967295
        }
      ],
      "vout": [
        {
          "value": 0.54552800,
          "n": 0,
          "scriptPubKey": {
            "asm": "OP_DUP OP_HASH160 eb25c57a119ef824a93ab3194a6261b3a8d15adb OP_EQUALVERIFY OP_CHECKSIG",
            "hex": "76a914eb25c57a119ef824a93ab3194a6261b3a8d15adb88ac",
            "reqSigs": 1,
            "type": "pubkeyhash",
            "addresses": [
              "LgfJJhJJs1kGcbiwyTjtDqg7GS5QnFAUcw"
            ]
          }
        }, 
        {
          "value": 0.82724600,
          "n": 1,
          "scriptPubKey": {
            "asm": "OP_DUP OP_HASH160 5c1fe72c75c0da9a1c26322770849f232e3e9a07 OP_EQUALVERIFY OP_CHECKSIG",
            "hex": "76a9145c1fe72c75c0da9a1c26322770849f232e3e9a0788ac",
            "reqSigs": 1,
            "type": "pubkeyhash",
            "addresses": [
              "LTd4eXF7FT1fqiHpcc1b8JsgHQ9TaYWsQV"
            ]
          }
        }
      ],
      "hex": "01000000018094e3638ef505b48b26fb61aeac25c5264e946305d9d3c6b7c3c7a4827b098b050000006a47304402206f0d9ad29acd9ef10f788ce13663cae65f96ff15d3010c0da5431dd9e51a1b1102207b2d34e550d9de88c3d03da09e054f4770421a617dff184c5968049595589e1f0121033e3c9dd8face9ab499abd34fd81c308edc540d5144c5764cf1eee8b392d6f28affffffff02e0684003000000001976a914eb25c57a119ef824a93ab3194a6261b3a8d15adb88acf846ee04000000001976a9145c1fe72c75c0da9a1c26322770849f232e3e9a0788ac00000000"
    }
  ],
  "time": 1517024344,
  "mediantime": 1517023332,
  "nonce": 31850483,
  "bits": "1a047f14",
  "difficulty": 3731199.183374282,
  "chainwork": "0000000000000000000000000000000000000000000000325dc567930bed2474",
  "previousblockhash": "c427d831cbe2bfae7212796502108d7e099d77cafcc566c8278634eb9e7fc5ad",
  "nextblockhash": "a7263179409d8d90ef2ce285f56f555ddf4c73ff7d53ba88e689de9925a01955"
}
