{
  "hash": "b5fbaae935f4ca08f82aa26a16e025e615de4edcff7682a63d0b6ba488caf449",
  "confirmations": 2928,
  "strippedsize": 253,
  "size": 253,
  "weight": 1012,
  "height": 1358067,
  "version": 536870912,
  "versionHex": "20000000",
  "merkleroot": "a686b4dff76e9dce3230a7273fecf1611d1d139ec519ce82be74b3c9ef3aa5cd",
  "tx": [
    {
      "txid": "a686b4dff76e9dce3230a7273fecf1611d1d139ec519ce82be74b3c9ef3aa5cd",
      "hash": "a686b4dff76e9dce3230a7273fecf1611d1d139ec519ce82be74b3c9ef3aa5cd",
      "version": 1,
      "size": 172,
      "vsize": 172,
      "locktime": 0,
      "vin": [
        {
          "coinbase": "03f3b8141a4d696e656420627920416e74506f6f6c20626a3532205a6cdd06fabe6d6d581aca0e089b5ba92231c1c444d484bf46bf6b4499e80c0d2000280a4e1ed9770400000000000000fa1d00000000000019000000",
          "sequence": 4294967295
        }
      ],
      "vout": [
        {
          "value": 25.00000000,
          "n": 0,
          "scriptPubKey": {
            "asm": "OP_DUP OP_HASH160 0ff3ccc5e8be88afe24b5d634e5852d474dbdff1 OP_EQUALVERIFY OP_CHECKSIG",
            "hex": "76a9140ff3ccc5e8be88afe24b5d634e5852d474dbdff188ac",
            "reqSigs": 1,
            "type": "pubkeyhash",
            "addresses": [
              "LLgJTbzZMsRTCUF1NtvvL9SR1a4pVieW89"
            ]
          }
        }
      ],
      "hex": "01000000010000000000000000000000000000000000000000000000000000000000000000ffffffff5703f3b8141a4d696e656420627920416e74506f6f6c20626a3532205a6cdd06fabe6d6d581aca0e089b5ba92231c1c444d484bf46bf6b4499e80c0d2000280a4e1ed9770400000000000000fa1d00000000000019000000ffffffff0100f90295000000001976a9140ff3ccc5e8be88afe24b5d634e5852d474dbdff188ac00000000"
    }
  ],
  "time": 1517083910,
  "mediantime": 1517083056,
  "nonce": 182215579,
  "bits": "1a047f14",
  "difficulty": 3731199.183374282,
  "chainwork": "000000000000000000000000000000000000000000000032c568dbb9f3e58bc8",
  "previousblockhash": "20208b044730b91d6f0e7f0b2c116cdbd593fc8fdf144bb4b65c2da6f6038b17",
  "nextblockhash": "6abb24f3bf9fa5fa23b2589e0515e44383cdd9a4ee2cab70824b6a75e0cb3479"
}
