{
  "hash": "b6f7d76d63f1a5dec085d00a0d1febf5bded8415595c31f9d9513935d04af0ea",
  "confirmations": 187,
  "strippedsize": 256,
  "size": 256,
  "weight": 1024,
  "height": 1360805,
  "version": 536870912,
  "versionHex": "20000000",
  "merkleroot": "b33f2ba5f2a584dbc44f4806c962081178e101d415c3187dade723d4746c39be",
  "tx": [
    {
      "txid": "b33f2ba5f2a584dbc44f4806c962081178e101d415c3187dade723d4746c39be",
      "hash": "b33f2ba5f2a584dbc44f4806c962081178e101d415c3187dade723d4746c39be",
      "version": 1,
      "size": 175,
      "vsize": 175,
      "locktime": 0,
      "vin": [
        {
          "coinbase": "03a5c3141d4d696e656420627920416e74506f6f6c20626a312045205a72f9101001fabe6d6d17ff2a0a84d179bffde43bd7e2d602ec6e66ef2869d3a92d065ab6ffdb90c5220400000000000000601300000000000010000000",
          "sequence": 4294967295
        }
      ],
      "vout": [
        {
          "value": 25.00000000,
          "n": 0,
          "scriptPubKey": {
            "asm": "OP_DUP OP_HASH160 0ff3ccc5e8be88afe24b5d634e5852d474dbdff1 OP_EQUALVERIFY OP_CHECKSIG",
            "hex": "76a9140ff3ccc5e8be88afe24b5d634e5852d474dbdff188ac",
            "reqSigs": 1,
            "type": "pubkeyhash",
            "addresses": [
              "LLgJTbzZMsRTCUF1NtvvL9SR1a4pVieW89"
            ]
          }
        }
      ],
      "hex": "01000000010000000000000000000000000000000000000000000000000000000000000000ffffffff5a03a5c3141d4d696e656420627920416e74506f6f6c20626a312045205a72f9101001fabe6d6d17ff2a0a84d179bffde43bd7e2d602ec6e66ef2869d3a92d065ab6ffdb90c5220400000000000000601300000000000010000000ffffffff0100f90295000000001976a9140ff3ccc5e8be88afe24b5d634e5852d474dbdff188ac00000000"
    }
  ],
  "time": 1517484304,
  "mediantime": 1517483637,
  "nonce": 4222431169,
  "bits": "1a04088e",
  "difficulty": 4159490.835685156,
  "chainwork": "000000000000000000000000000000000000000000000035482988045dc11fa0",
  "previousblockhash": "902875db3bc56bb24dbd006b91e5136db22a6bcd53220cc4ae3f0ac618710205",
  "nextblockhash": "2eeb1241806d5a0d2cafccb4dae639c7871b63a6b436c78dbf2720537174f1e9"
}
