{
  "hash": "b70b94695caa7c2c149928cced9919d13c6a22e80553cfb60597b457f29b9e13",
  "confirmations": 737,
  "strippedsize": 1104,
  "size": 1140,
  "weight": 4452,
  "height": 1360257,
  "version": 536870912,
  "versionHex": "20000000",
  "merkleroot": "a1c516260bfffe24246bd8dd308cc87d3a1b16adc14ade2402a9765acc7eb5a1",
  "tx": [
    {
      "txid": "1cf7c6c508738a311c1e78dbce20ed94fea95ddf5e9d611b41adfc5c49446349",
      "hash": "e4e207942d24ec1ba82b97db5f3ce56a612fd410b95c351ed782e8a3c1d8fdda",
      "version": 1,
      "size": 244,
      "vsize": 217,
      "locktime": 0,
      "vin": [
        {
          "coinbase": "0381c114044ab2715a08013843c822000000fabe6d6da2b381f6644d75dde74863b879b6836c40e37cb82060d7278c866dac9cedbf1140000000000000000d2f6e6f64655374726174756d2f",
          "sequence": 0
        }
      ],
      "vout": [
        {
          "value": 25.00081500,
          "n": 0,
          "scriptPubKey": {
            "asm": "OP_DUP OP_HASH160 0c617fdb2ea42aed30a509595ee21ba3f6688db0 OP_EQUALVERIFY OP_CHECKSIG",
            "hex": "76a9140c617fdb2ea42aed30a509595ee21ba3f6688db088ac",
            "reqSigs": 1,
            "type": "pubkeyhash",
            "addresses": [
              "LLMRAtr3qBje2ySEa3CnZ55LA4TQMWnRY3"
            ]
          }
        }, 
        {
          "value": 0.00000000,
          "n": 1,
          "scriptPubKey": {
            "asm": "OP_RETURN aa21a9ed26f265fc18affeb8d42b24b04f5d4664b855a48334d1991957babe165c93376e",
            "hex": "6a24aa21a9ed26f265fc18affeb8d42b24b04f5d4664b855a48334d1991957babe165c93376e",
            "type": "nulldata"
          }
        }
      ],
      "hex": "010000000001010000000000000000000000000000000000000000000000000000000000000000ffffffff4c0381c114044ab2715a08013843c822000000fabe6d6da2b381f6644d75dde74863b879b6836c40e37cb82060d7278c866dac9cedbf1140000000000000000d2f6e6f64655374726174756d2f00000000025c370495000000001976a9140c617fdb2ea42aed30a509595ee21ba3f6688db088ac0000000000000000266a24aa21a9ed26f265fc18affeb8d42b24b04f5d4664b855a48334d1991957babe165c93376e0120000000000000000000000000000000000000000000000000000000000000000000000000"
    }, 
    {
      "txid": "54338b622a1db198e5829da1a4fa3c041055ba025066219ab82e80a7a2dbd683",
      "hash": "54338b622a1db198e5829da1a4fa3c041055ba025066219ab82e80a7a2dbd683",
      "version": 1,
      "size": 815,
      "vsize": 815,
      "locktime": 1360255,
      "vin": [
        {
          "txid": "a5cb30a6cb7233113667feee2b9e94103fff9a79f57856d4ff323f184713fa5e",
          "vout": 0,
          "scriptSig": {
            "asm": "3045022100a63e31bf3af7b71b10fbb6208fa781ecb382fa62fcdcf79f828d1521d19e855702202a13d8a697780605bf4882a33a4376337c710f74f7d1d6e8849205dbe7af2ac2[ALL] 023965d214b40affec5946094f19571b95e9238e442157e487390e2e638241db96",
            "hex": "483045022100a63e31bf3af7b71b10fbb6208fa781ecb382fa62fcdcf79f828d1521d19e855702202a13d8a697780605bf4882a33a4376337c710f74f7d1d6e8849205dbe7af2ac20121023965d214b40affec5946094f19571b95e9238e442157e487390e2e638241db96"
          },
          "sequence": 4294967294
        }, 
        {
          "txid": "2ee0ea734df25a7cc90079920e632b662b0b0ef2882a476d0a228f2e53cd86ac",
          "vout": 0,
          "scriptSig": {
            "asm": "304402204b8e82e260bc0902612ddf348bf43c3e4cd54fc2052471888a39c73befd19702022054ef927cb09e41db9c42fb2311a8e0cc03864aad5b2a29b668b81802cb27fc99[ALL] 02535c5fb23019ca94fbd64c55cbc833adc77e6ba7829244516627b718c55b0e0d",
            "hex": "47304402204b8e82e260bc0902612ddf348bf43c3e4cd54fc2052471888a39c73befd19702022054ef927cb09e41db9c42fb2311a8e0cc03864aad5b2a29b668b81802cb27fc99012102535c5fb23019ca94fbd64c55cbc833adc77e6ba7829244516627b718c55b0e0d"
          },
          "sequence": 4294967294
        }, 
        {
          "txid": "e59d36f10514c396e35d8e836693a86911e713bb4a85af6e26f3163f06d7f9a0",
          "vout": 0,
          "scriptSig": {
            "asm": "3045022100c0e4f106be0e8ccec9eea81d02c6cd30aa29d4f040118a9b810b55dca70016a602204525b66f708ca6ee665a45de56b757f03d24678c22b7f831e476799fa135a5b6[ALL] 03b944cf710ca66bb28ba4cd75c1dade988c837cae35054382952c9c8c19db819d",
            "hex": "483045022100c0e4f106be0e8ccec9eea81d02c6cd30aa29d4f040118a9b810b55dca70016a602204525b66f708ca6ee665a45de56b757f03d24678c22b7f831e476799fa135a5b6012103b944cf710ca66bb28ba4cd75c1dade988c837cae35054382952c9c8c19db819d"
          },
          "sequence": 4294967294
        }, 
        {
          "txid": "83cc136d6e46be02efd84a0f77ec2e85b532c2a82e8c47b1a74823f3b59e1687",
          "vout": 0,
          "scriptSig": {
            "asm": "304402206d6a306dd899ef325fd92affe51e429df93977a124d1b78c6299ad35672b1a09022001b0a5e1140bf937acba2c6908ee91e111c1c0cf656cffa54b48a1951be83e4f[ALL] 02db3e1f4252c5b0e58affebd1819f666aa699a8d5b6320703029cfac3b7157aa4",
            "hex": "47304402206d6a306dd899ef325fd92affe51e429df93977a124d1b78c6299ad35672b1a09022001b0a5e1140bf937acba2c6908ee91e111c1c0cf656cffa54b48a1951be83e4f012102db3e1f4252c5b0e58affebd1819f666aa699a8d5b6320703029cfac3b7157aa4"
          },
          "sequence": 4294967294
        }, 
        {
          "txid": "f9c98d95d0b74be9267a413a51c09209e98820b1a60910cc3a0748e3a05f1594",
          "vout": 1,
          "scriptSig": {
            "asm": "304402200ea09e212fa33350c7574dc6e89fe143686aadcca54cb3e223f20a9c949d59660220316d53249eaec693d234ad508c1f1f16f1549d8271b5337189d302946bbba53c[ALL] 0357d47f36b58d4110359a2658a739ae41b16db0f82c50c2103a91b2ff591b1429",
            "hex": "47304402200ea09e212fa33350c7574dc6e89fe143686aadcca54cb3e223f20a9c949d59660220316d53249eaec693d234ad508c1f1f16f1549d8271b5337189d302946bbba53c01210357d47f36b58d4110359a2658a739ae41b16db0f82c50c2103a91b2ff591b1429"
          },
          "sequence": 4294967294
        }
      ],
      "vout": [
        {
          "value": 0.01764905,
          "n": 0,
          "scriptPubKey": {
            "asm": "OP_DUP OP_HASH160 9a1e5364a8112a91840a90c0016e9f31d108c797 OP_EQUALVERIFY OP_CHECKSIG",
            "hex": "76a9149a1e5364a8112a91840a90c0016e9f31d108c79788ac",
            "reqSigs": 1,
            "type": "pubkeyhash",
            "addresses": [
              "LZGreppTkGVMAiFZfsyJBvEfPi7CA8cdxY"
            ]
          }
        }, 
        {
          "value": 2.01186400,
          "n": 1,
          "scriptPubKey": {
            "asm": "OP_DUP OP_HASH160 4cc4030dc89823d3841b1908700cc691bea710a1 OP_EQUALVERIFY OP_CHECKSIG",
            "hex": "76a9144cc4030dc89823d3841b1908700cc691bea710a188ac",
            "reqSigs": 1,
            "type": "pubkeyhash",
            "addresses": [
              "LSDrRwTTdwKedHZjz7ViuYhUTw4Zj9t8HY"
            ]
          }
        }
      ],
      "hex": "01000000055efa1347183f32ffd45678f5799aff3f10949e2beefe6736113372cba630cba5000000006b483045022100a63e31bf3af7b71b10fbb6208fa781ecb382fa62fcdcf79f828d1521d19e855702202a13d8a697780605bf4882a33a4376337c710f74f7d1d6e8849205dbe7af2ac20121023965d214b40affec5946094f19571b95e9238e442157e487390e2e638241db96feffffffac86cd532e8f220a6d472a88f20e0b2b662b630e927900c97c5af24d73eae02e000000006a47304402204b8e82e260bc0902612ddf348bf43c3e4cd54fc2052471888a39c73befd19702022054ef927cb09e41db9c42fb2311a8e0cc03864aad5b2a29b668b81802cb27fc99012102535c5fb23019ca94fbd64c55cbc833adc77e6ba7829244516627b718c55b0e0dfeffffffa0f9d7063f16f3266eaf854abb13e71169a89366838e5de396c31405f1369de5000000006b483045022100c0e4f106be0e8ccec9eea81d02c6cd30aa29d4f040118a9b810b55dca70016a602204525b66f708ca6ee665a45de56b757f03d24678c22b7f831e476799fa135a5b6012103b944cf710ca66bb28ba4cd75c1dade988c837cae35054382952c9c8c19db819dfeffffff87169eb5f32348a7b1478c2ea8c232b5852eec770f4ad8ef02be466e6d13cc83000000006a47304402206d6a306dd899ef325fd92affe51e429df93977a124d1b78c6299ad35672b1a09022001b0a5e1140bf937acba2c6908ee91e111c1c0cf656cffa54b48a1951be83e4f012102db3e1f4252c5b0e58affebd1819f666aa699a8d5b6320703029cfac3b7157aa4feffffff94155fa0e348073acc1009a6b12088e90992c0513a417a26e94bb7d0958dc9f9010000006a47304402200ea09e212fa33350c7574dc6e89fe143686aadcca54cb3e223f20a9c949d59660220316d53249eaec693d234ad508c1f1f16f1549d8271b5337189d302946bbba53c01210357d47f36b58d4110359a2658a739ae41b16db0f82c50c2103a91b2ff591b1429feffffff0229ee1a00000000001976a9149a1e5364a8112a91840a90c0016e9f31d108c79788ac60dcfd0b000000001976a9144cc4030dc89823d3841b1908700cc691bea710a188ac7fc11400"
    }
  ],
  "time": 1517400447,
  "mediantime": 1517400201,
  "nonce": 2493408470,
  "bits": "1a042eae",
  "difficulty": 4011378.762614286,
  "chainwork": "000000000000000000000000000000000000000000000034c5150be587c3a304",
  "previousblockhash": "91a3b5c472e8fbe75ce7636428083a0971ed84bb790e6721f1211dc7c6fff4a1",
  "nextblockhash": "ee8f6d25c7ffe7b747b89e5cc5bc47c2c87efde2c448cc2401c4e66a17fcb7ae"
}
