{
  "hash": "b84aa39968778a3ca159e87fd0a0d27aedcc24e021d067b6b69e1343de21909c",
  "confirmations": 709,
  "strippedsize": 254,
  "size": 254,
  "weight": 1016,
  "height": 1360285,
  "version": 536870912,
  "versionHex": "20000000",
  "merkleroot": "1256ea93e11838966ac19f5852c9a70622845adf199398eaeb7053b762112eeb",
  "tx": [
    {
      "txid": "1256ea93e11838966ac19f5852c9a70622845adf199398eaeb7053b762112eeb",
      "hash": "1256ea93e11838966ac19f5852c9a70622845adf199398eaeb7053b762112eeb",
      "version": 1,
      "size": 173,
      "vsize": 173,
      "locktime": 0,
      "vin": [
        {
          "coinbase": "039dc1141b4d696e656420627920416e74506f6f6c20626a302042205a71c715fabe6d6d1363e429c9485c77cc22d77f79f844e4de050576e73f82df49ce4acd046d57f60400000000000000370d0000000000001b000000",
          "sequence": 4294967295
        }
      ],
      "vout": [
        {
          "value": 25.00000000,
          "n": 0,
          "scriptPubKey": {
            "asm": "OP_DUP OP_HASH160 0ff3ccc5e8be88afe24b5d634e5852d474dbdff1 OP_EQUALVERIFY OP_CHECKSIG",
            "hex": "76a9140ff3ccc5e8be88afe24b5d634e5852d474dbdff188ac",
            "reqSigs": 1,
            "type": "pubkeyhash",
            "addresses": [
              "LLgJTbzZMsRTCUF1NtvvL9SR1a4pVieW89"
            ]
          }
        }
      ],
      "hex": "01000000010000000000000000000000000000000000000000000000000000000000000000ffffffff58039dc1141b4d696e656420627920416e74506f6f6c20626a302042205a71c715fabe6d6d1363e429c9485c77cc22d77f79f844e4de050576e73f82df49ce4acd046d57f60400000000000000370d0000000000001b000000ffffffff0100f90295000000001976a9140ff3ccc5e8be88afe24b5d634e5852d474dbdff188ac00000000"
    }
  ],
  "time": 1517405973,
  "mediantime": 1517405229,
  "nonce": 2260253127,
  "bits": "1a042eae",
  "difficulty": 4011378.762614286,
  "chainwork": "000000000000000000000000000000000000000000000034cbc6eb24c16e2d3c",
  "previousblockhash": "e4f51eea4dfb0ca006633043e520f185bbcdf395f7d3010de44910c0a5c266bb",
  "nextblockhash": "531e633e772d58c332de34b2310d89f80d205a9b311e05683fcdb67d58fb500b"
}
