{
  "hash": "b884b3989e4d7addb3925674d27675d874f8474f72001133ae8b768a8dda0f9b",
  "confirmations": 453,
  "strippedsize": 253,
  "size": 253,
  "weight": 1012,
  "height": 1360541,
  "version": 536870912,
  "versionHex": "20000000",
  "merkleroot": "fd662a1f6e05c87519959b8acc9fbe107dbc3cb5f0f0b4db5a482d2a78bc195b",
  "tx": [
    {
      "txid": "fd662a1f6e05c87519959b8acc9fbe107dbc3cb5f0f0b4db5a482d2a78bc195b",
      "hash": "fd662a1f6e05c87519959b8acc9fbe107dbc3cb5f0f0b4db5a482d2a78bc195b",
      "version": 1,
      "size": 172,
      "vsize": 172,
      "locktime": 0,
      "vin": [
        {
          "coinbase": "039dc2141a4d696e656420627920416e74506f6f6c20626a331f205a7266eafabe6d6d8a8bce6ca9b78fe0aeb16e4c24188a16d2a4d68d09c5fbf8721a4a062ef21dc60400000000000000b5020000000000007e010000",
          "sequence": 4294967295
        }
      ],
      "vout": [
        {
          "value": 25.00000000,
          "n": 0,
          "scriptPubKey": {
            "asm": "OP_DUP OP_HASH160 0ff3ccc5e8be88afe24b5d634e5852d474dbdff1 OP_EQUALVERIFY OP_CHECKSIG",
            "hex": "76a9140ff3ccc5e8be88afe24b5d634e5852d474dbdff188ac",
            "reqSigs": 1,
            "type": "pubkeyhash",
            "addresses": [
              "LLgJTbzZMsRTCUF1NtvvL9SR1a4pVieW89"
            ]
          }
        }
      ],
      "hex": "01000000010000000000000000000000000000000000000000000000000000000000000000ffffffff57039dc2141a4d696e656420627920416e74506f6f6c20626a331f205a7266eafabe6d6d8a8bce6ca9b78fe0aeb16e4c24188a16d2a4d68d09c5fbf8721a4a062ef21dc60400000000000000b5020000000000007e010000ffffffff0100f90295000000001976a9140ff3ccc5e8be88afe24b5d634e5852d474dbdff188ac00000000"
    }
  ],
  "time": 1517446890,
  "mediantime": 1517445994,
  "nonce": 78938179,
  "bits": "1a042eae",
  "difficulty": 4011378.762614286,
  "chainwork": "00000000000000000000000000000000000000000000003508fc9b1dac17af3c",
  "previousblockhash": "28fb397b34c91751eab033764e67b3f779ac025c070be3391916fd725acdef1e",
  "nextblockhash": "5d7d434d004ea503ee426b300cf8c8639784dbd74cdc218adcd007c7e51416ca"
}
