{
  "hash": "b8a798a6623432e95761d4f65149bb160d6c230b15c2b7daca34536723fb6112",
  "confirmations": 2960,
  "strippedsize": 234,
  "size": 234,
  "weight": 936,
  "height": 1358035,
  "version": 536870912,
  "versionHex": "20000000",
  "merkleroot": "425b6c8f04b6b772b9ba5a7dc01f4326e991f9a1372598e63bf41f5743814fd3",
  "tx": [
    {
      "txid": "425b6c8f04b6b772b9ba5a7dc01f4326e991f9a1372598e63bf41f5743814fd3",
      "hash": "425b6c8f04b6b772b9ba5a7dc01f4326e991f9a1372598e63bf41f5743814fd3",
      "version": 1,
      "size": 153,
      "vsize": 153,
      "locktime": 0,
      "vin": [
        {
          "coinbase": "03d3b814045a6cc9d12cfabe6d6d278ca2a283d95400a06edd1866c759e95bc97938bc81e872c24a22189d538f6b4000000000000000042f4c502f0822004c2610000000",
          "sequence": 4294967295
        }
      ],
      "vout": [
        {
          "value": 25.00000000,
          "n": 0,
          "scriptPubKey": {
            "asm": "OP_DUP OP_HASH160 57757ed2ecf2052ff3126c397aca7defb9ca2cec OP_EQUALVERIFY OP_CHECKSIG",
            "hex": "76a91457757ed2ecf2052ff3126c397aca7defb9ca2cec88ac",
            "reqSigs": 1,
            "type": "pubkeyhash",
            "addresses": [
              "LTCPodGk5FwcJaRzH9yKnwicxzFUbxp6tN"
            ]
          }
        }
      ],
      "hex": "01000000010000000000000000000000000000000000000000000000000000000000000000ffffffff4403d3b814045a6cc9d12cfabe6d6d278ca2a283d95400a06edd1866c759e95bc97938bc81e872c24a22189d538f6b4000000000000000042f4c502f0822004c2610000000ffffffff0100f90295000000001976a91457757ed2ecf2052ff3126c397aca7defb9ca2cec88ac00000000"
    }
  ],
  "time": 1517078993,
  "mediantime": 1517078392,
  "nonce": 2294385684,
  "bits": "1a047f14",
  "difficulty": 3731199.183374282,
  "chainwork": "000000000000000000000000000000000000000000000032be4af4b62eae0888",
  "previousblockhash": "c9251e046e32b8c0bdcf7f8b0d03527dda5b5737c385d811d6d41b27aa09b196",
  "nextblockhash": "4a91685267a2731d5e4a9ddca8dc088d0698d9adb2b74a6ca0088905e4cd5f68"
}
