{
  "hash": "ba19e6def8409ec0098b93d3b44216530653c899bd4f1136bd823c88e2b9912f",
  "confirmations": 413,
  "strippedsize": 234,
  "size": 234,
  "weight": 936,
  "height": 1360581,
  "version": 536870912,
  "versionHex": "20000000",
  "merkleroot": "12caa27679950d4017ab20032133abaed47c835759445caeaaf8c46bc25c6317",
  "tx": [
    {
      "txid": "12caa27679950d4017ab20032133abaed47c835759445caeaaf8c46bc25c6317",
      "hash": "12caa27679950d4017ab20032133abaed47c835759445caeaaf8c46bc25c6317",
      "version": 1,
      "size": 153,
      "vsize": 153,
      "locktime": 0,
      "vin": [
        {
          "coinbase": "03c5c214045a727c072cfabe6d6da9fa0871152c80b649321091dddf50d1f2edfa71f6dcae22a4aeb7200905962f4000000000000000042f4c502f082200aeafec000000",
          "sequence": 4294967295
        }
      ],
      "vout": [
        {
          "value": 25.00000000,
          "n": 0,
          "scriptPubKey": {
            "asm": "OP_DUP OP_HASH160 57757ed2ecf2052ff3126c397aca7defb9ca2cec OP_EQUALVERIFY OP_CHECKSIG",
            "hex": "76a91457757ed2ecf2052ff3126c397aca7defb9ca2cec88ac",
            "reqSigs": 1,
            "type": "pubkeyhash",
            "addresses": [
              "LTCPodGk5FwcJaRzH9yKnwicxzFUbxp6tN"
            ]
          }
        }
      ],
      "hex": "01000000010000000000000000000000000000000000000000000000000000000000000000ffffffff4403c5c214045a727c072cfabe6d6da9fa0871152c80b649321091dddf50d1f2edfa71f6dcae22a4aeb7200905962f4000000000000000042f4c502f082200aeafec000000ffffffff0100f90295000000001976a91457757ed2ecf2052ff3126c397aca7defb9ca2cec88ac00000000"
    }
  ],
  "time": 1517452295,
  "mediantime": 1517451736,
  "nonce": 12321331,
  "bits": "1a042eae",
  "difficulty": 4011378.762614286,
  "chainwork": "000000000000000000000000000000000000000000000035128cfe9c90c22b8c",
  "previousblockhash": "d104375350cea35c9648faf152da9df3a83c8aba79f52862dc011e65de4372cc",
  "nextblockhash": "c74f165016f0c3b26f7e88cb7e0bd464185cab65bec0228cbca008f982d15849"
}
