{
  "hash": "bafc42e2ab512af027e8ee14c2c2a7c0190ff6a7f36638dd6d1e64062d3972a1",
  "confirmations": 1453,
  "strippedsize": 2627,
  "size": 2663,
  "weight": 10544,
  "height": 1359541,
  "version": 536870912,
  "versionHex": "20000000",
  "merkleroot": "a97aa74d8b74947e833461d4c261757e954e4ae66a85995e9d7162538824522c",
  "tx": [
    {
      "txid": "5b5c7df11bd7ff1363d3a3b0f7b8f211d2581591e10d37ea0c1ca0c9308af922",
      "hash": "211a14f209a5dcaf1929fa779b4581cf83dcc21b8a288027c945d773360551a2",
      "version": 1,
      "size": 264,
      "vsize": 237,
      "locktime": 0,
      "vin": [
        {
          "coinbase": "03b5be141d2f5669614254432f4d696e65642062792031333933393132333339392f2cfabe6d6d41e2bf5a3d7edb6c1fee6a78c148eb44404429addd89e85fd171257c7dc55c420100000000000000100e7dce0025a6cdec0314edd70d000000",
          "sequence": 4294967295
        }
      ],
      "vout": [
        {
          "value": 25.00259098,
          "n": 0,
          "scriptPubKey": {
            "asm": "OP_DUP OP_HASH160 e16c28146ed4869c190b3f0bdc18d80d45f92134 OP_EQUALVERIFY OP_CHECKSIG",
            "hex": "76a914e16c28146ed4869c190b3f0bdc18d80d45f9213488ac",
            "reqSigs": 1,
            "type": "pubkeyhash",
            "addresses": [
              "LfmssDyX6iZvbVqHv6t9P6JWXia2JG7mdb"
            ]
          }
        }, 
        {
          "value": 0.00000000,
          "n": 1,
          "scriptPubKey": {
            "asm": "OP_RETURN aa21a9ed15692cd2ba189dab31fe1c6d1d7a485ad7b9514fdedc7eab536a3939bde5327d",
            "hex": "6a24aa21a9ed15692cd2ba189dab31fe1c6d1d7a485ad7b9514fdedc7eab536a3939bde5327d",
            "type": "nulldata"
          }
        }
      ],
      "hex": "010000000001010000000000000000000000000000000000000000000000000000000000000000ffffffff6003b5be141d2f5669614254432f4d696e65642062792031333933393132333339392f2cfabe6d6d41e2bf5a3d7edb6c1fee6a78c148eb44404429addd89e85fd171257c7dc55c420100000000000000100e7dce0025a6cdec0314edd70d000000ffffffff021aed0695000000001976a914e16c28146ed4869c190b3f0bdc18d80d45f9213488ac0000000000000000266a24aa21a9ed15692cd2ba189dab31fe1c6d1d7a485ad7b9514fdedc7eab536a3939bde5327d0120000000000000000000000000000000000000000000000000000000000000000000000000"
    }, 
    {
      "txid": "90b4dd82a75e02df917f3503a072ca7c90928f30ca481d8aed54c0619eb3b893",
      "hash": "90b4dd82a75e02df917f3503a072ca7c90928f30ca481d8aed54c0619eb3b893",
      "version": 1,
      "size": 407,
      "vsize": 407,
      "locktime": 1359537,
      "vin": [
        {
          "txid": "f03c5daa32970420ea6164bf8cbffa4c953de5fbba2ad0485e360909edcd7174",
          "vout": 942,
          "scriptSig": {
            "asm": "304402203b88e5ac163c69faece5d830bf8c0b8745ff507760ddd6c32601bbc5ec7e75360220048ecb6ce021c431b364c8572321868cbe079a1b280963568cc24eb8ec63e86b[ALL] 02e5f8d743ec531f0d4f6dd28c9a17390bb92be1cca07a71b151f6a7934603ad96",
            "hex": "47304402203b88e5ac163c69faece5d830bf8c0b8745ff507760ddd6c32601bbc5ec7e75360220048ecb6ce021c431b364c8572321868cbe079a1b280963568cc24eb8ec63e86b012102e5f8d743ec531f0d4f6dd28c9a17390bb92be1cca07a71b151f6a7934603ad96"
          },
          "sequence": 4294967294
        }, 
        {
          "txid": "2a0ad2ae83e7604cd71a2c4e1fce80180df12a9206994b5ccad4cfda2d89c6a0",
          "vout": 0,
          "scriptSig": {
            "asm": "3045022100b0b50de5d278f9113cfdf90efbc57b8a55cd3d29a0c364639237795c8082dd3102206df94ba6025e36d0be266afc04fb2ebf59e0ff4c7372fda190e35d0bd452e763[ALL] 033104e09a9a9df7319d4655a27d7e537d1f3c803892ef193f5365313a425b9e47",
            "hex": "483045022100b0b50de5d278f9113cfdf90efbc57b8a55cd3d29a0c364639237795c8082dd3102206df94ba6025e36d0be266afc04fb2ebf59e0ff4c7372fda190e35d0bd452e7630121033104e09a9a9df7319d4655a27d7e537d1f3c803892ef193f5365313a425b9e47"
          },
          "sequence": 4294967294
        }
      ],
      "vout": [
        {
          "value": 0.29770789,
          "n": 0,
          "scriptPubKey": {
            "asm": "OP_DUP OP_HASH160 8df91cd8b6c06b4563ef0e7cf52e204ddc9d5a1d OP_EQUALVERIFY OP_CHECKSIG",
            "hex": "76a9148df91cd8b6c06b4563ef0e7cf52e204ddc9d5a1d88ac",
            "reqSigs": 1,
            "type": "pubkeyhash",
            "addresses": [
              "LYAdxuwrU5hAVFQsynFdRknYTC5BKEgp4m"
            ]
          }
        }, 
        {
          "value": 0.51940075,
          "n": 1,
          "scriptPubKey": {
            "asm": "OP_DUP OP_HASH160 2c4dcedb344d391a0016c0929ab14956efb77171 OP_EQUALVERIFY OP_CHECKSIG",
            "hex": "76a9142c4dcedb344d391a0016c0929ab14956efb7717188ac",
            "reqSigs": 1,
            "type": "pubkeyhash",
            "addresses": [
              "LPGDCrH3JK5cUbi4syT64jw22H5HQkd35R"
            ]
          }
        }, 
        {
          "value": 0.01000014,
          "n": 2,
          "scriptPubKey": {
            "asm": "OP_DUP OP_HASH160 04e28026426cf3e4bcc576a7e91715f6db8b1621 OP_EQUALVERIFY OP_CHECKSIG",
            "hex": "76a91404e28026426cf3e4bcc576a7e91715f6db8b162188ac",
            "reqSigs": 1,
            "type": "pubkeyhash",
            "addresses": [
              "LKfnJWvkSBdUSmWjvDN9zXhYD7ttkMqcQL"
            ]
          }
        }
      ],
      "hex": "01000000027471cded0909365e48d02abafbe53d954cfabf8cbf6461ea20049732aa5d3cf0ae0300006a47304402203b88e5ac163c69faece5d830bf8c0b8745ff507760ddd6c32601bbc5ec7e75360220048ecb6ce021c431b364c8572321868cbe079a1b280963568cc24eb8ec63e86b012102e5f8d743ec531f0d4f6dd28c9a17390bb92be1cca07a71b151f6a7934603ad96feffffffa0c6892ddacfd4ca5c4b9906922af10d1880ce1f4e2c1ad74c60e783aed20a2a000000006b483045022100b0b50de5d278f9113cfdf90efbc57b8a55cd3d29a0c364639237795c8082dd3102206df94ba6025e36d0be266afc04fb2ebf59e0ff4c7372fda190e35d0bd452e7630121033104e09a9a9df7319d4655a27d7e537d1f3c803892ef193f5365313a425b9e47feffffff032544c601000000001976a9148df91cd8b6c06b4563ef0e7cf52e204ddc9d5a1d88aceb8a1803000000001976a9142c4dcedb344d391a0016c0929ab14956efb7717188ac4e420f00000000001976a91404e28026426cf3e4bcc576a7e91715f6db8b162188acb1be1400"
    }, 
    {
      "txid": "08556bd72e3a9546d82662242445fd20e3f56cd0b9efbfca4bb466ef00fd9e66",
      "hash": "08556bd72e3a9546d82662242445fd20e3f56cd0b9efbfca4bb466ef00fd9e66",
      "version": 1,
      "size": 373,
      "vsize": 373,
      "locktime": 1359537,
      "vin": [
        {
          "txid": "ed3ade9a6df6a267345f3f30bf5fc21185f531acf77993ee60a586b25aac4397",
          "vout": 0,
          "scriptSig": {
            "asm": "3045022100d6308c7b22e2fdc72db8222de76ecca471463d20558a3da9804449709e14fe3402204ebda7da0c2ae1fa3953013c5842f6c0240a971a77027c6e268645307081b502[ALL] 02700e2c3246ba8004c5d0460c963a463b26ba33b8cb207178d3f8a7fc182bc849",
            "hex": "483045022100d6308c7b22e2fdc72db8222de76ecca471463d20558a3da9804449709e14fe3402204ebda7da0c2ae1fa3953013c5842f6c0240a971a77027c6e268645307081b502012102700e2c3246ba8004c5d0460c963a463b26ba33b8cb207178d3f8a7fc182bc849"
          },
          "sequence": 4294967294
        }, 
        {
          "txid": "4a12cb7458980f6a7bbf29fd5088ccb7826059e54bae4350c993471f079010b8",
          "vout": 3,
          "scriptSig": {
            "asm": "304402201e987797b3c47fb5924f4d84dcfe68280dc3dfe280878577e959512abe28343b02205422bf40589a5566a62183272a3414099d80b80c9b030988b1bf89a7b56a6df0[ALL] 038d46256c6678f0baf07f47a09823305a4d58251871c63d54582f9e4b1503ef4a",
            "hex": "47304402201e987797b3c47fb5924f4d84dcfe68280dc3dfe280878577e959512abe28343b02205422bf40589a5566a62183272a3414099d80b80c9b030988b1bf89a7b56a6df00121038d46256c6678f0baf07f47a09823305a4d58251871c63d54582f9e4b1503ef4a"
          },
          "sequence": 4294967294
        }
      ],
      "vout": [
        {
          "value": 0.01000212,
          "n": 0,
          "scriptPubKey": {
            "asm": "OP_DUP OP_HASH160 8c69fc14847906d9f3aa32ff3102e4bd6a9a46cc OP_EQUALVERIFY OP_CHECKSIG",
            "hex": "76a9148c69fc14847906d9f3aa32ff3102e4bd6a9a46cc88ac",
            "reqSigs": 1,
            "type": "pubkeyhash",
            "addresses": [
              "LY2Pq1o2M1vgnPiuj1Smwd6oRaPmAyTr4s"
            ]
          }
        }, 
        {
          "value": 5.79845337,
          "n": 1,
          "scriptPubKey": {
            "asm": "OP_DUP OP_HASH160 4704f47943d949848a7da493bee4c995367d85a2 OP_EQUALVERIFY OP_CHECKSIG",
            "hex": "76a9144704f47943d949848a7da493bee4c995367d85a288ac",
            "reqSigs": 1,
            "type": "pubkeyhash",
            "addresses": [
              "LRhUB7NdrNWRY1uy4cugQMtpJ32KSJwfoV"
            ]
          }
        }
      ],
      "hex": "01000000029743ac5ab286a560ee9379f7ac31f58511c25fbf303f5f3467a2f66d9ade3aed000000006b483045022100d6308c7b22e2fdc72db8222de76ecca471463d20558a3da9804449709e14fe3402204ebda7da0c2ae1fa3953013c5842f6c0240a971a77027c6e268645307081b502012102700e2c3246ba8004c5d0460c963a463b26ba33b8cb207178d3f8a7fc182bc849feffffffb81090071f4793c95043ae4be5596082b7cc8850fd29bf7b6a0f985874cb124a030000006a47304402201e987797b3c47fb5924f4d84dcfe68280dc3dfe280878577e959512abe28343b02205422bf40589a5566a62183272a3414099d80b80c9b030988b1bf89a7b56a6df00121038d46256c6678f0baf07f47a09823305a4d58251871c63d54582f9e4b1503ef4afeffffff0214430f00000000001976a9148c69fc14847906d9f3aa32ff3102e4bd6a9a46cc88acd9bc8f22000000001976a9144704f47943d949848a7da493bee4c995367d85a288acb1be1400"
    }, 
    {
      "txid": "b31e4946612545d86afc028b20881b14fece6f29590e13b43fe37a981f520be0",
      "hash": "b31e4946612545d86afc028b20881b14fece6f29590e13b43fe37a981f520be0",
      "version": 1,
      "size": 192,
      "vsize": 192,
      "locktime": 0,
      "vin": [
        {
          "txid": "1b7958b7e8dfe25507e2b2f69c720ed1d0b7f6b23762c33f477a22ed399999e8",
          "vout": 0,
          "scriptSig": {
            "asm": "3045022100d1c11aa7d85ac9999ad8ee8732819d59e07b0387350663167d9f13b066857538022074852efe35e3b2199cfecf4edce09d1b5dda37314e7311ce847aa0eda99897c4[ALL] 022011d5ba6f947a40d29c7fa9962ae11fb603ec9d1e85d61f3da4cf4aaf8da094",
            "hex": "483045022100d1c11aa7d85ac9999ad8ee8732819d59e07b0387350663167d9f13b066857538022074852efe35e3b2199cfecf4edce09d1b5dda37314e7311ce847aa0eda99897c40121022011d5ba6f947a40d29c7fa9962ae11fb603ec9d1e85d61f3da4cf4aaf8da094"
          },
          "sequence": 4294967295
        }
      ],
      "vout": [
        {
          "value": 0.05063264,
          "n": 0,
          "scriptPubKey": {
            "asm": "OP_DUP OP_HASH160 c09d74ab68f4d930c06031116b44f69fa623f4e5 OP_EQUALVERIFY OP_CHECKSIG",
            "hex": "76a914c09d74ab68f4d930c06031116b44f69fa623f4e588ac",
            "reqSigs": 1,
            "type": "pubkeyhash",
            "addresses": [
              "LcnQdG6bEjdf7pUTyb1SPA9SZx3awdAi1u"
            ]
          }
        }
      ],
      "hex": "0100000001e8999939ed227a473fc36237b2f6b7d0d10e729cf6b2e20755e2dfe8b758791b000000006b483045022100d1c11aa7d85ac9999ad8ee8732819d59e07b0387350663167d9f13b066857538022074852efe35e3b2199cfecf4edce09d1b5dda37314e7311ce847aa0eda99897c40121022011d5ba6f947a40d29c7fa9962ae11fb603ec9d1e85d61f3da4cf4aaf8da094ffffffff0160424d00000000001976a914c09d74ab68f4d930c06031116b44f69fa623f4e588ac00000000"
    }, 
    {
      "txid": "5f6f6ccabe62bcefdd6df622b28a5d6d8cdd6ff7970c5d979d40ebfb2723b72f",
      "hash": "5f6f6ccabe62bcefdd6df622b28a5d6d8cdd6ff7970c5d979d40ebfb2723b72f",
      "version": 1,
      "size": 373,
      "vsize": 373,
      "locktime": 1359537,
      "vin": [
        {
          "txid": "413b702823a518815145e5dbe79396bc0383c5eb80e7009e88cf4c1a7b869741",
          "vout": 0,
          "scriptSig": {
            "asm": "3044022066a5d63031d6e7a464076dae44f525e2ad9915d89aba57af45b607a3c6867c2002201959d1d6d8579523d6cdae4b8de6b05a737458b0cf40a3803c2b336f0d014f38[ALL] 0266cbd602719a38e287a2beba3cb870bc48e370b8fe384f3dcabbb4d6354ee53e",
            "hex": "473044022066a5d63031d6e7a464076dae44f525e2ad9915d89aba57af45b607a3c6867c2002201959d1d6d8579523d6cdae4b8de6b05a737458b0cf40a3803c2b336f0d014f3801210266cbd602719a38e287a2beba3cb870bc48e370b8fe384f3dcabbb4d6354ee53e"
          },
          "sequence": 4294967294
        }, 
        {
          "txid": "b38e7f31519d2b242272d2fcd857534cab7e77f0724da38286df4fb77d7ef20e",
          "vout": 1,
          "scriptSig": {
            "asm": "3045022100ba6797f14469e934118cda40201af004fccc608ceec566b65ce45272a4208bf2022013847077d2616b2da460493cdb91e45fe7c57bf0afb00fa56b3ea251508273d8[ALL] 027fd20c777c2940f66081ab5f5ad3d08f02f7f70a6365c8f5fffd08d91d6b2588",
            "hex": "483045022100ba6797f14469e934118cda40201af004fccc608ceec566b65ce45272a4208bf2022013847077d2616b2da460493cdb91e45fe7c57bf0afb00fa56b3ea251508273d80121027fd20c777c2940f66081ab5f5ad3d08f02f7f70a6365c8f5fffd08d91d6b2588"
          },
          "sequence": 4294967294
        }
      ],
      "vout": [
        {
          "value": 0.01001308,
          "n": 0,
          "scriptPubKey": {
            "asm": "OP_DUP OP_HASH160 45ff96fea7f3aeef586ec645dc7b8e2f2069a197 OP_EQUALVERIFY OP_CHECKSIG",
            "hex": "76a91445ff96fea7f3aeef586ec645dc7b8e2f2069a19788ac",
            "reqSigs": 1,
            "type": "pubkeyhash",
            "addresses": [
              "LRc559AU53LG8L38ASEMvtPMnMbYcgg6Y6"
            ]
          }
        }, 
        {
          "value": 2.61510895,
          "n": 1,
          "scriptPubKey": {
            "asm": "OP_DUP OP_HASH160 7a1e4733c2de51499cdd74e6f40b6cbeed98326b OP_EQUALVERIFY OP_CHECKSIG",
            "hex": "76a9147a1e4733c2de51499cdd74e6f40b6cbeed98326b88ac",
            "reqSigs": 1,
            "type": "pubkeyhash",
            "addresses": [
              "LWMeyNsbWMNedmSWWV7kQWaMHeGVTLdnme"
            ]
          }
        }
      ],
      "hex": "01000000024197867b1a4ccf889e00e780ebc58303bc9693e7dbe545518118a52328703b41000000006a473044022066a5d63031d6e7a464076dae44f525e2ad9915d89aba57af45b607a3c6867c2002201959d1d6d8579523d6cdae4b8de6b05a737458b0cf40a3803c2b336f0d014f3801210266cbd602719a38e287a2beba3cb870bc48e370b8fe384f3dcabbb4d6354ee53efeffffff0ef27e7db74fdf8682a34d72f0777eab4c5357d8fcd27222242b9d51317f8eb3010000006b483045022100ba6797f14469e934118cda40201af004fccc608ceec566b65ce45272a4208bf2022013847077d2616b2da460493cdb91e45fe7c57bf0afb00fa56b3ea251508273d80121027fd20c777c2940f66081ab5f5ad3d08f02f7f70a6365c8f5fffd08d91d6b2588feffffff025c470f00000000001976a91445ff96fea7f3aeef586ec645dc7b8e2f2069a19788acef56960f000000001976a9147a1e4733c2de51499cdd74e6f40b6cbeed98326b88acb1be1400"
    }, 
    {
      "txid": "a402d93f8d15c3d61c4ae2871ed4340e18ad3e607e56c39509a63de0d6a289ab",
      "hash": "a402d93f8d15c3d61c4ae2871ed4340e18ad3e607e56c39509a63de0d6a289ab",
      "version": 2,
      "size": 226,
      "vsize": 226,
      "locktime": 1359537,
      "vin": [
        {
          "txid": "d888b1077a801edebd73f6fb53615893456053608c8a45af967e27d006fa0ba3",
          "vout": 0,
          "scriptSig": {
            "asm": "30450221009e88b21885d2f37ec2b5802be6d9398e5db68e9f3d4dad541e3eee12fad803cf0220775e53086a5befd9795fa8546cb05873b835ba7da079ed9c89d0efd546abf4b8[ALL] 021c75874f9571be24f4a10d0bcddd8d308a29ec480144011d37741697bfbe4ca0",
            "hex": "4830450221009e88b21885d2f37ec2b5802be6d9398e5db68e9f3d4dad541e3eee12fad803cf0220775e53086a5befd9795fa8546cb05873b835ba7da079ed9c89d0efd546abf4b80121021c75874f9571be24f4a10d0bcddd8d308a29ec480144011d37741697bfbe4ca0"
          },
          "sequence": 4294967294
        }
      ],
      "vout": [
        {
          "value": 5.30283429,
          "n": 0,
          "scriptPubKey": {
            "asm": "OP_DUP OP_HASH160 1471053cc52d888ee5a06f87026ea2099ab9e4a7 OP_EQUALVERIFY OP_CHECKSIG",
            "hex": "76a9141471053cc52d888ee5a06f87026ea2099ab9e4a788ac",
            "reqSigs": 1,
            "type": "pubkeyhash",
            "addresses": [
              "LM63ArBSnBGYRJpQLAbbawjxGkRUizwz7b"
            ]
          }
        }, 
        {
          "value": 6.68593971,
          "n": 1,
          "scriptPubKey": {
            "asm": "OP_DUP OP_HASH160 0f494cf5cc47e5a5332ea06b70e857ac120b092c OP_EQUALVERIFY OP_CHECKSIG",
            "hex": "76a9140f494cf5cc47e5a5332ea06b70e857ac120b092c88ac",
            "reqSigs": 1,
            "type": "pubkeyhash",
            "addresses": [
              "LLcnD7AwpRSqXkeCNP4sL6PGpCDnNUbWtB"
            ]
          }
        }
      ],
      "hex": "0200000001a30bfa06d0277e96af458a8c6053604593586153fbf673bdde1e807a07b188d8000000006b4830450221009e88b21885d2f37ec2b5802be6d9398e5db68e9f3d4dad541e3eee12fad803cf0220775e53086a5befd9795fa8546cb05873b835ba7da079ed9c89d0efd546abf4b80121021c75874f9571be24f4a10d0bcddd8d308a29ec480144011d37741697bfbe4ca0feffffff02a57b9b1f000000001976a9141471053cc52d888ee5a06f87026ea2099ab9e4a788ac33efd927000000001976a9140f494cf5cc47e5a5332ea06b70e857ac120b092c88acb1be1400"
    }, 
    {
      "txid": "4cf0b86465a882c3f6bbe992ace78b9591166d0c1c0238971920be9b225c43c1",
      "hash": "4cf0b86465a882c3f6bbe992ace78b9591166d0c1c0238971920be9b225c43c1",
      "version": 1,
      "size": 339,
      "vsize": 339,
      "locktime": 0,
      "vin": [
        {
          "txid": "c5648b620bca66bafc23f04c985ff7a1e12ae2b8ffb9541c8130c1f86ad29976",
          "vout": 0,
          "scriptSig": {
            "asm": "3045022100fcddb8cf913a8fd57413718da2ab79322a73c6cc833825359775085f4985356502207d011de1cd87a857153bd34e7ac364271d344d395a35e1340256596b02a33868[ALL] 03773a2fba1d2cc422a1b0af70b689adf1befcc095810a2cc51e63bcc7c0d70aed",
            "hex": "483045022100fcddb8cf913a8fd57413718da2ab79322a73c6cc833825359775085f4985356502207d011de1cd87a857153bd34e7ac364271d344d395a35e1340256596b02a33868012103773a2fba1d2cc422a1b0af70b689adf1befcc095810a2cc51e63bcc7c0d70aed"
          },
          "sequence": 4294967295
        }, 
        {
          "txid": "011f1fab70afd8037bb815b46efe47f497e7a9777ed66043f8dd6f2bdaa617c4",
          "vout": 1,
          "scriptSig": {
            "asm": "30440220219f60eed3a491439a71678f8b464db390ab973257b71066acb467e43892147f0220345a40b9581ff41327c53a43759647f1f2669e1acdd0f4052ad038e17a6bd087[ALL] 03ca7a4bae734fc74e8baff9df9bff4d803014411208515301efb12ec4b1ed5778",
            "hex": "4730440220219f60eed3a491439a71678f8b464db390ab973257b71066acb467e43892147f0220345a40b9581ff41327c53a43759647f1f2669e1acdd0f4052ad038e17a6bd087012103ca7a4bae734fc74e8baff9df9bff4d803014411208515301efb12ec4b1ed5778"
          },
          "sequence": 4294967295
        }
      ],
      "vout": [
        {
          "value": 1.77564900,
          "n": 0,
          "scriptPubKey": {
            "asm": "OP_DUP OP_HASH160 c5d3683c58e725e75ac6b12fe915d41b04d3ac79 OP_EQUALVERIFY OP_CHECKSIG",
            "hex": "76a914c5d3683c58e725e75ac6b12fe915d41b04d3ac7988ac",
            "reqSigs": 1,
            "type": "pubkeyhash",
            "addresses": [
              "LdFxdqAuVQFbWwzURyXDFTFJW7wQkU5PfF"
            ]
          }
        }
      ],
      "hex": "01000000027699d26af8c130811c54b9ffb8e22ae1a1f75f984cf023fcba66ca0b628b64c5000000006b483045022100fcddb8cf913a8fd57413718da2ab79322a73c6cc833825359775085f4985356502207d011de1cd87a857153bd34e7ac364271d344d395a35e1340256596b02a33868012103773a2fba1d2cc422a1b0af70b689adf1befcc095810a2cc51e63bcc7c0d70aedffffffffc417a6da2b6fddf84360d67e77a9e797f447fe6eb415b87b03d8af70ab1f1f01010000006a4730440220219f60eed3a491439a71678f8b464db390ab973257b71066acb467e43892147f0220345a40b9581ff41327c53a43759647f1f2669e1acdd0f4052ad038e17a6bd087012103ca7a4bae734fc74e8baff9df9bff4d803014411208515301efb12ec4b1ed5778ffffffff01e46c950a000000001976a914c5d3683c58e725e75ac6b12fe915d41b04d3ac7988ac00000000"
    }, 
    {
      "txid": "49978f31a8f0d55a560b3847c04426e6aa68ce476931072884728ac6827aa1c1",
      "hash": "49978f31a8f0d55a560b3847c04426e6aa68ce476931072884728ac6827aa1c1",
      "version": 1,
      "size": 408,
      "vsize": 408,
      "locktime": 0,
      "vin": [
        {
          "txid": "fe2fd4f1a4bded67070fb6e23c7ff082be014061c6475742d0ad5692fa8704db",
          "vout": 3,
          "scriptSig": {
            "asm": "304502210086b3a0801b9708fc8f2b98c38fa7bf979796b123af42253f87387eabd4a850c90220766c19f6a13af1029247cfeeb090f616bc066ac292c3e833709860199528394d[ALL] 02d1026b5e1be2af860e7f8503c8a65f548f0ccf30119f937b9ac753e8491f0c04",
            "hex": "48304502210086b3a0801b9708fc8f2b98c38fa7bf979796b123af42253f87387eabd4a850c90220766c19f6a13af1029247cfeeb090f616bc066ac292c3e833709860199528394d012102d1026b5e1be2af860e7f8503c8a65f548f0ccf30119f937b9ac753e8491f0c04"
          },
          "sequence": 4294967295
        }, 
        {
          "txid": "6c7de1a13c130807635ca51033a85d6b349b5e6f3f7b016e618cc8742a242457",
          "vout": 3,
          "scriptSig": {
            "asm": "3045022100ba956071268548cdb4e3950e2edbc5ba715a74e2f48b701170cf098fe1498fb7022040502e30508ab0746eee1e65757ef8200cffb5788d948bc04a845693a3b836ac[ALL] 02d1026b5e1be2af860e7f8503c8a65f548f0ccf30119f937b9ac753e8491f0c04",
            "hex": "483045022100ba956071268548cdb4e3950e2edbc5ba715a74e2f48b701170cf098fe1498fb7022040502e30508ab0746eee1e65757ef8200cffb5788d948bc04a845693a3b836ac012102d1026b5e1be2af860e7f8503c8a65f548f0ccf30119f937b9ac753e8491f0c04"
          },
          "sequence": 4294967295
        }
      ],
      "vout": [
        {
          "value": 2.85341211,
          "n": 0,
          "scriptPubKey": {
            "asm": "OP_DUP OP_HASH160 c05e164645c30e0f4f64a7205f032b525e27e1dd OP_EQUALVERIFY OP_CHECKSIG",
            "hex": "76a914c05e164645c30e0f4f64a7205f032b525e27e1dd88ac",
            "reqSigs": 1,
            "type": "pubkeyhash",
            "addresses": [
              "Lcm6iKmsJjrfLYx18WtsPCKbQJZgmQ6bdL"
            ]
          }
        }, 
        {
          "value": 21.16721726,
          "n": 1,
          "scriptPubKey": {
            "asm": "OP_DUP OP_HASH160 4e9170e783e01f35f8dfa6ccc01c1a253cfd7216 OP_EQUALVERIFY OP_CHECKSIG",
            "hex": "76a9144e9170e783e01f35f8dfa6ccc01c1a253cfd721688ac",
            "reqSigs": 1,
            "type": "pubkeyhash",
            "addresses": [
              "LSPPCbWqfXr2z1wCRRmKiCXCwJ2WWuyjjj"
            ]
          }
        }, 
        {
          "value": 221.14121192,
          "n": 2,
          "scriptPubKey": {
            "asm": "OP_DUP OP_HASH160 d03135f2f46776b93126830da160846edbe57fae OP_EQUALVERIFY OP_CHECKSIG",
            "hex": "76a914d03135f2f46776b93126830da160846edbe57fae88ac",
            "reqSigs": 1,
            "type": "pubkeyhash",
            "addresses": [
              "LeCmmLRrReLX5xmocu6XDsVx9arQJ8iqgw"
            ]
          }
        }
      ],
      "hex": "0100000002db0487fa9256add0425747c6614001be82f07f3ce2b60f0767edbda4f1d42ffe030000006b48304502210086b3a0801b9708fc8f2b98c38fa7bf979796b123af42253f87387eabd4a850c90220766c19f6a13af1029247cfeeb090f616bc066ac292c3e833709860199528394d012102d1026b5e1be2af860e7f8503c8a65f548f0ccf30119f937b9ac753e8491f0c04ffffffff5724242a74c88c616e017b3f6f5e9b346b5da83310a55c630708133ca1e17d6c030000006b483045022100ba956071268548cdb4e3950e2edbc5ba715a74e2f48b701170cf098fe1498fb7022040502e30508ab0746eee1e65757ef8200cffb5788d948bc04a845693a3b836ac012102d1026b5e1be2af860e7f8503c8a65f548f0ccf30119f937b9ac753e8491f0c04ffffffff031bf60111000000001976a914c05e164645c30e0f4f64a7205f032b525e27e1dd88ac3e9c2a7e000000001976a9144e9170e783e01f35f8dfa6ccc01c1a253cfd721688ace8b51a26050000001976a914d03135f2f46776b93126830da160846edbe57fae88ac00000000"
    }
  ],
  "time": 1517296319,
  "mediantime": 1517296161,
  "nonce": 458899380,
  "bits": "1a042eae",
  "difficulty": 4011378.762614286,
  "chainwork": "00000000000000000000000000000000000000000000003419e2e3b957718b6c",
  "previousblockhash": "25e6715059d757b86953127930efddb2fefda94c533ddd2452c27fe5089cc9f7",
  "nextblockhash": "5144e9774331bdd17bca0f903cca87a72ee3ac649963dbc25afe11e9c01fb941"
}
