{
  "hash": "bb23087bf2fa99edd0c804eec0c552dd10c42efdbe8b4b3a1d8d271acd2141ef",
  "confirmations": 116,
  "strippedsize": 234,
  "size": 234,
  "weight": 936,
  "height": 1360876,
  "version": 536870912,
  "versionHex": "20000000",
  "merkleroot": "fea4c73107c83d3d1d3f2cd0dba1e762440ffde2628eebeac787caa0d42be2f9",
  "tx": [
    {
      "txid": "fea4c73107c83d3d1d3f2cd0dba1e762440ffde2628eebeac787caa0d42be2f9",
      "hash": "fea4c73107c83d3d1d3f2cd0dba1e762440ffde2628eebeac787caa0d42be2f9",
      "version": 1,
      "size": 153,
      "vsize": 153,
      "locktime": 0,
      "vin": [
        {
          "coinbase": "03ecc314045a731c3a2cfabe6d6d88c6f9d9724610578bbf6179d84c5e838042841e011c555323b9e48a891da5264000000000000000042f4c502f0822005c3342000000",
          "sequence": 4294967295
        }
      ],
      "vout": [
        {
          "value": 25.00000000,
          "n": 0,
          "scriptPubKey": {
            "asm": "OP_DUP OP_HASH160 57757ed2ecf2052ff3126c397aca7defb9ca2cec OP_EQUALVERIFY OP_CHECKSIG",
            "hex": "76a91457757ed2ecf2052ff3126c397aca7defb9ca2cec88ac",
            "reqSigs": 1,
            "type": "pubkeyhash",
            "addresses": [
              "LTCPodGk5FwcJaRzH9yKnwicxzFUbxp6tN"
            ]
          }
        }
      ],
      "hex": "01000000010000000000000000000000000000000000000000000000000000000000000000ffffffff4403ecc314045a731c3a2cfabe6d6d88c6f9d9724610578bbf6179d84c5e838042841e011c555323b9e48a891da5264000000000000000042f4c502f0822005c3342000000ffffffff0100f90295000000001976a91457757ed2ecf2052ff3126c397aca7defb9ca2cec88ac00000000"
    }
  ],
  "time": 1517493306,
  "mediantime": 1517492681,
  "nonce": 2125974992,
  "bits": "1a04088e",
  "difficulty": 4159490.835685156,
  "chainwork": "00000000000000000000000000000000000000000000003559c3e2680d8ea390",
  "previousblockhash": "1a5eab38c39347cc85765f086b6ccacda5b7e2d0e7b09caa051b21ed009d88c4",
  "nextblockhash": "a2d916e6af8e16ef1e4f18c0f361c77d9f437b124a4f0d5c61fb0824a9f470e4"
}
