{
  "hash": "bb2a4ed57b7e46369257ab1c1415ef762029243ce0f168278cc28eccbde0c291",
  "confirmations": 913,
  "strippedsize": 255,
  "size": 255,
  "weight": 1020,
  "height": 1360081,
  "version": 536870912,
  "versionHex": "20000000",
  "merkleroot": "43e28917abbe0034853919240704e635ee59f8bdb63adb46dfbeff215c55c0cc",
  "tx": [
    {
      "txid": "43e28917abbe0034853919240704e635ee59f8bdb63adb46dfbeff215c55c0cc",
      "hash": "43e28917abbe0034853919240704e635ee59f8bdb63adb46dfbeff215c55c0cc",
      "version": 1,
      "size": 174,
      "vsize": 174,
      "locktime": 0,
      "vin": [
        {
          "coinbase": "03d1c0141c4d696e656420627920416e74506f6f6c20626a3532205a713f580a4cfabe6d6db8354f59b49102cde0d1252912dc0cf77a1434a4e721ac87ee34ca4f47ea06c40400000000000000062f00000000000001000000",
          "sequence": 4294967295
        }
      ],
      "vout": [
        {
          "value": 25.00000000,
          "n": 0,
          "scriptPubKey": {
            "asm": "OP_DUP OP_HASH160 0ff3ccc5e8be88afe24b5d634e5852d474dbdff1 OP_EQUALVERIFY OP_CHECKSIG",
            "hex": "76a9140ff3ccc5e8be88afe24b5d634e5852d474dbdff188ac",
            "reqSigs": 1,
            "type": "pubkeyhash",
            "addresses": [
              "LLgJTbzZMsRTCUF1NtvvL9SR1a4pVieW89"
            ]
          }
        }
      ],
      "hex": "01000000010000000000000000000000000000000000000000000000000000000000000000ffffffff5903d1c0141c4d696e656420627920416e74506f6f6c20626a3532205a713f580a4cfabe6d6db8354f59b49102cde0d1252912dc0cf77a1434a4e721ac87ee34ca4f47ea06c40400000000000000062f00000000000001000000ffffffff0100f90295000000001976a9140ff3ccc5e8be88afe24b5d634e5852d474dbdff188ac00000000"
    }
  ],
  "time": 1517371224,
  "mediantime": 1517370445,
  "nonce": 3889484418,
  "bits": "1a042eae",
  "difficulty": 4011378.762614286,
  "chainwork": "0000000000000000000000000000000000000000000000349b0022ea666f19a4",
  "previousblockhash": "c89b5ff54485d7c02a2336963224baf0674154f9525ab102b9b01b7f190ac24f",
  "nextblockhash": "662f2e2b913cada07ae5d54d649667436d7784125b585ffa63dbb12a914a3153"
}
