{
  "hash": "bb5465712aa2f50a88046fac606b05286c9d505c174ff340e7929c5d298b4f46",
  "confirmations": 1177,
  "strippedsize": 234,
  "size": 234,
  "weight": 936,
  "height": 1359817,
  "version": 536870912,
  "versionHex": "20000000",
  "merkleroot": "128e77f3419c65131fef0b053718e9d1f5914f6f29718a028cfca590283ae894",
  "tx": [
    {
      "txid": "128e77f3419c65131fef0b053718e9d1f5914f6f29718a028cfca590283ae894",
      "hash": "128e77f3419c65131fef0b053718e9d1f5914f6f29718a028cfca590283ae894",
      "version": 1,
      "size": 153,
      "vsize": 153,
      "locktime": 0,
      "vin": [
        {
          "coinbase": "03c9bf14045a70b4d62cfabe6d6d4697cf5ae7af8c23fdc244439f5072b57a24299be1a22310b0bc537f73ea3d724000000000000000042f4c502f0858006f8c02000000",
          "sequence": 4294967295
        }
      ],
      "vout": [
        {
          "value": 25.00000000,
          "n": 0,
          "scriptPubKey": {
            "asm": "OP_DUP OP_HASH160 57757ed2ecf2052ff3126c397aca7defb9ca2cec OP_EQUALVERIFY OP_CHECKSIG",
            "hex": "76a91457757ed2ecf2052ff3126c397aca7defb9ca2cec88ac",
            "reqSigs": 1,
            "type": "pubkeyhash",
            "addresses": [
              "LTCPodGk5FwcJaRzH9yKnwicxzFUbxp6tN"
            ]
          }
        }
      ],
      "hex": "01000000010000000000000000000000000000000000000000000000000000000000000000ffffffff4403c9bf14045a70b4d62cfabe6d6d4697cf5ae7af8c23fdc244439f5072b57a24299be1a22310b0bc537f73ea3d724000000000000000042f4c502f0858006f8c02000000ffffffff0100f90295000000001976a91457757ed2ecf2052ff3126c397aca7defb9ca2cec88ac00000000"
    }
  ],
  "time": 1517335766,
  "mediantime": 1517335526,
  "nonce": 2087395613,
  "bits": "1a042eae",
  "difficulty": 4011378.762614286,
  "chainwork": "0000000000000000000000000000000000000000000000345be0c571b4704b94",
  "previousblockhash": "3909a8c4cc90af0278f93eeeb8ed35aa3634a1026c3fba73765ce6fe35c5a412",
  "nextblockhash": "1ccc9bc1c6920df3689971d935a01481c82aa2bf6355c807d8f0a2c3f28c1181"
}
