{
  "hash": "bb7134674bc9e0fac95d435ff613c80d884a5eb8bb162ae77d95c2b526c18cec",
  "confirmations": 1206,
  "strippedsize": 266,
  "size": 266,
  "weight": 1064,
  "height": 1359788,
  "version": 536870912,
  "versionHex": "20000000",
  "merkleroot": "6f2e954b2f086a465708d54f8a13c192f22d93e4d2eb3a6e1552548e4bffa9b3",
  "tx": [
    {
      "txid": "6f2e954b2f086a465708d54f8a13c192f22d93e4d2eb3a6e1552548e4bffa9b3",
      "hash": "6f2e954b2f086a465708d54f8a13c192f22d93e4d2eb3a6e1552548e4bffa9b3",
      "version": 1,
      "size": 185,
      "vsize": 185,
      "locktime": 950245633,
      "vin": [
        {
          "coinbase": "03acbf142cfabe6d6d96b81878aa143e525ae0e098af7041bc43cda6148be7703ea512d65f58307e1908000000f09f909f144d696e6564206279207171373733323835303934000000000000000000000000000000000000000000000000000000000000",
          "sequence": 59
        }
      ],
      "vout": [
        {
          "value": 25.00000000,
          "n": 0,
          "scriptPubKey": {
            "asm": "OP_DUP OP_HASH160 aa3750aa18b8a0f3f0590731e1fab934856680cf OP_EQUALVERIFY OP_CHECKSIG",
            "hex": "76a914aa3750aa18b8a0f3f0590731e1fab934856680cf88ac",
            "reqSigs": 1,
            "type": "pubkeyhash",
            "addresses": [
              "LajyQBeZaBA1NkZDeY8YT5RYYVRkXMvb2T"
            ]
          }
        }
      ],
      "hex": "01000000010000000000000000000000000000000000000000000000000000000000000000ffffffff6403acbf142cfabe6d6d96b81878aa143e525ae0e098af7041bc43cda6148be7703ea512d65f58307e1908000000f09f909f144d696e65642062792071713737333238353039340000000000000000000000000000000000000000000000000000000000003b0000000100f90295000000001976a914aa3750aa18b8a0f3f0590731e1fab934856680cf88ac0199a338"
    }
  ],
  "time": 1517332101,
  "mediantime": 1517331659,
  "nonce": 4916037,
  "bits": "1a042eae",
  "difficulty": 4011378.762614286,
  "chainwork": "00000000000000000000000000000000000000000000003454f1b08281db17da",
  "previousblockhash": "5ba710dda434713d4f9cda0d24b92cfc1e74a59b94ef0f7e13aada5e47ae07f3",
  "nextblockhash": "1561fe0f5a2e8ac97d1f3c291fc9d718933cc4abe7781c94ab4a368940ae8179"
}
