{
  "hash": "bb90a050d85847374ae3bb3bbc09ee066fa045da24c3e2132ee6e02ac1f7e557",
  "confirmations": 368,
  "strippedsize": 254,
  "size": 254,
  "weight": 1016,
  "height": 1360626,
  "version": 536870912,
  "versionHex": "20000000",
  "merkleroot": "8ef1fef9fc659e1cf3d5220a1228aa0c82c20cb560d9ff39e8105a1372b47ea3",
  "tx": [
    {
      "txid": "8ef1fef9fc659e1cf3d5220a1228aa0c82c20cb560d9ff39e8105a1372b47ea3",
      "hash": "8ef1fef9fc659e1cf3d5220a1228aa0c82c20cb560d9ff39e8105a1372b47ea3",
      "version": 1,
      "size": 173,
      "vsize": 173,
      "locktime": 0,
      "vin": [
        {
          "coinbase": "03f2c2141b4d696e656420627920416e74506f6f6c20626a302042205a7293c9fabe6d6dd1dc680d1b00daeb13327e2f08fccddd3fc351dfee18266e4d1e6739aee7c9ba0400000000000000cf110000000000005556633f",
          "sequence": 4294967295
        }
      ],
      "vout": [
        {
          "value": 25.00000000,
          "n": 0,
          "scriptPubKey": {
            "asm": "OP_DUP OP_HASH160 0ff3ccc5e8be88afe24b5d634e5852d474dbdff1 OP_EQUALVERIFY OP_CHECKSIG",
            "hex": "76a9140ff3ccc5e8be88afe24b5d634e5852d474dbdff188ac",
            "reqSigs": 1,
            "type": "pubkeyhash",
            "addresses": [
              "LLgJTbzZMsRTCUF1NtvvL9SR1a4pVieW89"
            ]
          }
        }
      ],
      "hex": "01000000010000000000000000000000000000000000000000000000000000000000000000ffffffff5803f2c2141b4d696e656420627920416e74506f6f6c20626a302042205a7293c9fabe6d6dd1dc680d1b00daeb13327e2f08fccddd3fc351dfee18266e4d1e6739aee7c9ba0400000000000000cf110000000000005556633fffffffff0100f90295000000001976a9140ff3ccc5e8be88afe24b5d634e5852d474dbdff188ac00000000"
    }
  ],
  "time": 1517458377,
  "mediantime": 1517457695,
  "nonce": 1604511160,
  "bits": "1a042eae",
  "difficulty": 4011378.762614286,
  "chainwork": "0000000000000000000000000000000000000000000000351d4f6e8b5201f766",
  "previousblockhash": "125536618f666cca7b74d449d5444505c1518d8a1571d1a77bf1a2aad33f3c2f",
  "nextblockhash": "48244b867d47b841259ab041790fce14eca1ceb020289d6093784458ac0063c1"
}
