{
  "hash": "bbd2eb1d0acb08a0946d4139fea47f55356abb2d5b925f67f30cefbba1084094",
  "confirmations": 2349,
  "strippedsize": 4528,
  "size": 4564,
  "weight": 18148,
  "height": 1358646,
  "version": 536870912,
  "versionHex": "20000000",
  "merkleroot": "0de6b576114c8d87deb7e679d6709765db5c377a963fdf4d5b493bc11ef9599f",
  "tx": [
    {
      "txid": "7e92aa4854ccf30e01c1dbf5428a014816ec94f282539e0f1653b58a00bfb602",
      "hash": "f6bbb08c2ef29eae2710ce14468b2ceb7ac531a8d84c90ac9a458a37e32e4de2",
      "version": 1,
      "size": 253,
      "vsize": 226,
      "locktime": 0,
      "vin": [
        {
          "coinbase": "0336bb1441d69b8d1c512af841d69b8d1bd962c32f4c54432e544f502ffabe6d6d10e7c7fb22f4c30ce27ed9ff0ab8de74aab53936faa6bf00c1534ccd8816acdb01000000000000005b2882c79500000000000000",
          "sequence": 4294967295
        }
      ],
      "vout": [
        {
          "value": 25.01512090,
          "n": 0,
          "scriptPubKey": {
            "asm": "OP_DUP OP_HASH160 0c617fdb2ea42aed30a509595ee21ba3f6688db0 OP_EQUALVERIFY OP_CHECKSIG",
            "hex": "76a9140c617fdb2ea42aed30a509595ee21ba3f6688db088ac",
            "reqSigs": 1,
            "type": "pubkeyhash",
            "addresses": [
              "LLMRAtr3qBje2ySEa3CnZ55LA4TQMWnRY3"
            ]
          }
        }, 
        {
          "value": 0.00000000,
          "n": 1,
          "scriptPubKey": {
            "asm": "OP_RETURN aa21a9ed8155f489767794deb177a8b5f7def1cc7d496e04dc8958946c78420e76504587",
            "hex": "6a24aa21a9ed8155f489767794deb177a8b5f7def1cc7d496e04dc8958946c78420e76504587",
            "type": "nulldata"
          }
        }
      ],
      "hex": "010000000001010000000000000000000000000000000000000000000000000000000000000000ffffffff550336bb1441d69b8d1c512af841d69b8d1bd962c32f4c54432e544f502ffabe6d6d10e7c7fb22f4c30ce27ed9ff0ab8de74aab53936faa6bf00c1534ccd8816acdb01000000000000005b2882c79500000000000000ffffffff029a0b1a95000000001976a9140c617fdb2ea42aed30a509595ee21ba3f6688db088ac0000000000000000266a24aa21a9ed8155f489767794deb177a8b5f7def1cc7d496e04dc8958946c78420e765045870120000000000000000000000000000000000000000000000000000000000000000000000000"
    }, 
    {
      "txid": "0415758b0382519c3f4491ae074b17b70da915cec97a960d83fd69de318d52db",
      "hash": "0415758b0382519c3f4491ae074b17b70da915cec97a960d83fd69de318d52db",
      "version": 1,
      "size": 192,
      "vsize": 192,
      "locktime": 0,
      "vin": [
        {
          "txid": "6a0feb252b50789f26a05c4f2c4bc87975f4beba2eee4125e4faa0bbb97b4560",
          "vout": 898,
          "scriptSig": {
            "asm": "3045022100d655fe28ce6d3609102ae15c4675d142295f36bc02742ffbed8cc66f75ba6cf502206894df244f17481fd010e2bff0a7a30b66cd77ee9c9b2dad5c8dc9f671c7fc2e[ALL] 02e41bb1a50b1463fcf0c17e5da66a2e9d155faeeb90dc72fa7d4456c2857ef49b",
            "hex": "483045022100d655fe28ce6d3609102ae15c4675d142295f36bc02742ffbed8cc66f75ba6cf502206894df244f17481fd010e2bff0a7a30b66cd77ee9c9b2dad5c8dc9f671c7fc2e012102e41bb1a50b1463fcf0c17e5da66a2e9d155faeeb90dc72fa7d4456c2857ef49b"
          },
          "sequence": 4294967295
        }
      ],
      "vout": [
        {
          "value": 0.09175098,
          "n": 0,
          "scriptPubKey": {
            "asm": "OP_DUP OP_HASH160 a881e323e4fbf24dec8d7b4b63fffdc728b89b2d OP_EQUALVERIFY OP_CHECKSIG",
            "hex": "76a914a881e323e4fbf24dec8d7b4b63fffdc728b89b2d88ac",
            "reqSigs": 1,
            "type": "pubkeyhash",
            "addresses": [
              "LaawPAaiQzyvBREniiXkYQRw1u4KKFGMfF"
            ]
          }
        }
      ],
      "hex": "010000000160457bb9bba0fae42541ee2ebabef47579c84b2c4f5ca0269f78502b25eb0f6a820300006b483045022100d655fe28ce6d3609102ae15c4675d142295f36bc02742ffbed8cc66f75ba6cf502206894df244f17481fd010e2bff0a7a30b66cd77ee9c9b2dad5c8dc9f671c7fc2e012102e41bb1a50b1463fcf0c17e5da66a2e9d155faeeb90dc72fa7d4456c2857ef49bffffffff013a008c00000000001976a914a881e323e4fbf24dec8d7b4b63fffdc728b89b2d88ac00000000"
    }, 
    {
      "txid": "715a2000893313d07c05db140efe51b50e5ca65ca2388d88fc7536c63f7c4a03",
      "hash": "715a2000893313d07c05db140efe51b50e5ca65ca2388d88fc7536c63f7c4a03",
      "version": 1,
      "size": 191,
      "vsize": 191,
      "locktime": 0,
      "vin": [
        {
          "txid": "b397df83fad90bd24a00d0b3482337de60521d25ccd30e38380d4941f21efc93",
          "vout": 1,
          "scriptSig": {
            "asm": "3044022013683153cfb72531c75d6b8e984bbcc2f2c4cf7a2cd04daae34b6a13b839823c0220636cbc34fb4bcc4bf3842e9387aeb690db541fb579a8f9ab3250a3018c7b8d1b[ALL] 022696dfd71a6974f148ff1efc6dca9986960d78d081371aceb6c470557676440b",
            "hex": "473044022013683153cfb72531c75d6b8e984bbcc2f2c4cf7a2cd04daae34b6a13b839823c0220636cbc34fb4bcc4bf3842e9387aeb690db541fb579a8f9ab3250a3018c7b8d1b0121022696dfd71a6974f148ff1efc6dca9986960d78d081371aceb6c470557676440b"
          },
          "sequence": 4294967295
        }
      ],
      "vout": [
        {
          "value": 0.82302869,
          "n": 0,
          "scriptPubKey": {
            "asm": "OP_DUP OP_HASH160 b29cd72bce61d1d4359e014b0f4b6d40f1a1b15a OP_EQUALVERIFY OP_CHECKSIG",
            "hex": "76a914b29cd72bce61d1d4359e014b0f4b6d40f1a1b15a88ac",
            "reqSigs": 1,
            "type": "pubkeyhash",
            "addresses": [
              "LbWNRq1s5ZopoaFX3XUhrW8zhnCuapaf6X"
            ]
          }
        }
      ],
      "hex": "010000000193fc1ef241490d38380ed3cc251d5260de372348b3d0004ad20bd9fa83df97b3010000006a473044022013683153cfb72531c75d6b8e984bbcc2f2c4cf7a2cd04daae34b6a13b839823c0220636cbc34fb4bcc4bf3842e9387aeb690db541fb579a8f9ab3250a3018c7b8d1b0121022696dfd71a6974f148ff1efc6dca9986960d78d081371aceb6c470557676440bffffffff0195d7e704000000001976a914b29cd72bce61d1d4359e014b0f4b6d40f1a1b15a88ac00000000"
    }, 
    {
      "txid": "642169293d4de3e55e3500f6220900760fc7895fa7abcf8573c29815d05cd1de",
      "hash": "642169293d4de3e55e3500f6220900760fc7895fa7abcf8573c29815d05cd1de",
      "version": 1,
      "size": 226,
      "vsize": 226,
      "locktime": 0,
      "vin": [
        {
          "txid": "dd351427fcaea820e84688e70dfaa62d676668c2a19d0f73d55a9a009c36ab3e",
          "vout": 1,
          "scriptSig": {
            "asm": "3045022100972191c2bdd93dbac488c5a903fc0d87ca29acb63275d16e7bffe8fc99eb8039022012e2e52607b6e897abbba300ef3fc2875140ce7b86935e147a5820f59f20756f[ALL] 035e12bdaff20c7564362f188abefc4f3b7028052b580c68c3322e45de4021c0e5",
            "hex": "483045022100972191c2bdd93dbac488c5a903fc0d87ca29acb63275d16e7bffe8fc99eb8039022012e2e52607b6e897abbba300ef3fc2875140ce7b86935e147a5820f59f20756f0121035e12bdaff20c7564362f188abefc4f3b7028052b580c68c3322e45de4021c0e5"
          },
          "sequence": 4294967295
        }
      ],
      "vout": [
        {
          "value": 4.01000000,
          "n": 0,
          "scriptPubKey": {
            "asm": "OP_DUP OP_HASH160 3194df246432c5fc0fdc7fad729db1df88aba3f8 OP_EQUALVERIFY OP_CHECKSIG",
            "hex": "76a9143194df246432c5fc0fdc7fad729db1df88aba3f888ac",
            "reqSigs": 1,
            "type": "pubkeyhash",
            "addresses": [
              "LPk7iPw8UPTd9qi4cdh9gctSsJfozUnzsm"
            ]
          }
        }, 
        {
          "value": 20.61522363,
          "n": 1,
          "scriptPubKey": {
            "asm": "OP_DUP OP_HASH160 2c032428b4cc90cd9ccbc344382ea9828431f747 OP_EQUALVERIFY OP_CHECKSIG",
            "hex": "76a9142c032428b4cc90cd9ccbc344382ea9828431f74788ac",
            "reqSigs": 1,
            "type": "pubkeyhash",
            "addresses": [
              "LPEfkuoPhGmFTgAGdfx89FXNaWeH3iT4Pi"
            ]
          }
        }
      ],
      "hex": "01000000013eab369c009a5ad5730f9da1c26866672da6fa0de78846e820a8aefc271435dd010000006b483045022100972191c2bdd93dbac488c5a903fc0d87ca29acb63275d16e7bffe8fc99eb8039022012e2e52607b6e897abbba300ef3fc2875140ce7b86935e147a5820f59f20756f0121035e12bdaff20c7564362f188abefc4f3b7028052b580c68c3322e45de4021c0e5ffffffff0240c6e617000000001976a9143194df246432c5fc0fdc7fad729db1df88aba3f888acbb55e07a000000001976a9142c032428b4cc90cd9ccbc344382ea9828431f74788ac00000000"
    }, 
    {
      "txid": "67da9944ff02a4a81842a2185a18426bb9e51e95db4cb7ef8e170ec8a67020ac",
      "hash": "67da9944ff02a4a81842a2185a18426bb9e51e95db4cb7ef8e170ec8a67020ac",
      "version": 1,
      "size": 225,
      "vsize": 225,
      "locktime": 0,
      "vin": [
        {
          "txid": "ac47440098c256aeb6c2d7c4b34d0a81cc35cc5a091345185f04c69c143d2dd7",
          "vout": 0,
          "scriptSig": {
            "asm": "304402206d448a471698346a6f024af1ee7d761951e31a25aadf8bcc1e64b0fc42132ed40220555dd1adb058ce592599a673bde7a32f8ca6143883e41255e90c294d9c877ca8[ALL] 0223a9ad03afa11eefa333e5899402f8d6b15997bf297f7ae722c34a028b417645",
            "hex": "47304402206d448a471698346a6f024af1ee7d761951e31a25aadf8bcc1e64b0fc42132ed40220555dd1adb058ce592599a673bde7a32f8ca6143883e41255e90c294d9c877ca801210223a9ad03afa11eefa333e5899402f8d6b15997bf297f7ae722c34a028b417645"
          },
          "sequence": 4294967295
        }
      ],
      "vout": [
        {
          "value": 0.07923059,
          "n": 0,
          "scriptPubKey": {
            "asm": "OP_DUP OP_HASH160 fb5c2cb936e9eba0da42e3f317a9b31f3a43e115 OP_EQUALVERIFY OP_CHECKSIG",
            "hex": "76a914fb5c2cb936e9eba0da42e3f317a9b31f3a43e11588ac",
            "reqSigs": 1,
            "type": "pubkeyhash",
            "addresses": [
              "Li92HmnVfFh6G6DQ2Bc1rjSnVa6UCMZwhQ"
            ]
          }
        }, 
        {
          "value": 0.01011127,
          "n": 1,
          "scriptPubKey": {
            "asm": "OP_DUP OP_HASH160 3e96a95b547d3db4beb588876c119e37b0455835 OP_EQUALVERIFY OP_CHECKSIG",
            "hex": "76a9143e96a95b547d3db4beb588876c119e37b045583588ac",
            "reqSigs": 1,
            "type": "pubkeyhash",
            "addresses": [
              "LQvteFiPoZA2SgamnWACZ6FJo9MLpkbDEk"
            ]
          }
        }
      ],
      "hex": "0100000001d72d3d149cc6045f184513095acc35cc810a4db3c4d7c2b6ae56c298004447ac000000006a47304402206d448a471698346a6f024af1ee7d761951e31a25aadf8bcc1e64b0fc42132ed40220555dd1adb058ce592599a673bde7a32f8ca6143883e41255e90c294d9c877ca801210223a9ad03afa11eefa333e5899402f8d6b15997bf297f7ae722c34a028b417645ffffffff0273e57800000000001976a914fb5c2cb936e9eba0da42e3f317a9b31f3a43e11588acb76d0f00000000001976a9143e96a95b547d3db4beb588876c119e37b045583588ac00000000"
    }, 
    {
      "txid": "7f59110b511d74e7e69a099b6bf205553322bb5d7fa51c5e2e69239b233690ca",
      "hash": "7f59110b511d74e7e69a099b6bf205553322bb5d7fa51c5e2e69239b233690ca",
      "version": 1,
      "size": 225,
      "vsize": 225,
      "locktime": 0,
      "vin": [
        {
          "txid": "18f68eef869be885b0adbe7a3ae3499021bda1e9780e7b4571f10938f74a2565",
          "vout": 1,
          "scriptSig": {
            "asm": "304402202feb6396662542a8c837ee7053811748396f54f5ae88603ea10c10d5bc8b1ca1022004beb6fedee92a198831327b01e2e5bea757cf4169e376f6b7217923eab8c3a1[ALL] 02e4d7f9813a590834fd407c06ffdf68ec017656061fdd46c5b7889f22ea50d0f7",
            "hex": "47304402202feb6396662542a8c837ee7053811748396f54f5ae88603ea10c10d5bc8b1ca1022004beb6fedee92a198831327b01e2e5bea757cf4169e376f6b7217923eab8c3a1012102e4d7f9813a590834fd407c06ffdf68ec017656061fdd46c5b7889f22ea50d0f7"
          },
          "sequence": 4294967295
        }
      ],
      "vout": [
        {
          "value": 2.77456000,
          "n": 0,
          "scriptPubKey": {
            "asm": "OP_DUP OP_HASH160 34d939211c1b928802d0d7e71660c8a746be863c OP_EQUALVERIFY OP_CHECKSIG",
            "hex": "76a91434d939211c1b928802d0d7e71660c8a746be863c88ac",
            "reqSigs": 1,
            "type": "pubkeyhash",
            "addresses": [
              "LQ3Pd7oNiK7LyhnvwMKPG6fa2Z67GnFttq"
            ]
          }
        }, 
        {
          "value": 160.61376098,
          "n": 1,
          "scriptPubKey": {
            "asm": "OP_DUP OP_HASH160 4d19988f8f0816c3df2b36b6c2e2acfcd912c30d OP_EQUALVERIFY OP_CHECKSIG",
            "hex": "76a9144d19988f8f0816c3df2b36b6c2e2acfcd912c30d88ac",
            "reqSigs": 1,
            "type": "pubkeyhash",
            "addresses": [
              "LSFcxRNmkyNTTFFYsgQdns7tFk9Rjz79f3"
            ]
          }
        }
      ],
      "hex": "010000000165254af73809f171457b0e78e9a1bd219049e33a7abeadb085e89b86ef8ef618010000006a47304402202feb6396662542a8c837ee7053811748396f54f5ae88603ea10c10d5bc8b1ca1022004beb6fedee92a198831327b01e2e5bea757cf4169e376f6b7217923eab8c3a1012102e4d7f9813a590834fd407c06ffdf68ec017656061fdd46c5b7889f22ea50d0f7ffffffff0280a48910000000001976a91434d939211c1b928802d0d7e71660c8a746be863c88ac622655bd030000001976a9144d19988f8f0816c3df2b36b6c2e2acfcd912c30d88ac00000000"
    }, 
    {
      "txid": "105f462d750940c01af90edd5a7337ddda97dfdb5917a5aeffd1596cb24ace3e",
      "hash": "105f462d750940c01af90edd5a7337ddda97dfdb5917a5aeffd1596cb24ace3e",
      "version": 1,
      "size": 226,
      "vsize": 226,
      "locktime": 0,
      "vin": [
        {
          "txid": "45aa2ee9faa3e328db74843e66eb62c3c3dd19edc92376dd1d8e8511a53d92ef",
          "vout": 1,
          "scriptSig": {
            "asm": "3045022100b218935c8283131e9e4bf33166fd72aea39fda8aeea3d314144fec55809dc790022055c5a9d544eff490976933224d965450bcf9f89ae9bb6c7b8aaabf36c9ebfc5a[ALL] 031fae9f5fb60561f7206a46e01f1d580222714c290b4750c507509d31a620a0e6",
            "hex": "483045022100b218935c8283131e9e4bf33166fd72aea39fda8aeea3d314144fec55809dc790022055c5a9d544eff490976933224d965450bcf9f89ae9bb6c7b8aaabf36c9ebfc5a0121031fae9f5fb60561f7206a46e01f1d580222714c290b4750c507509d31a620a0e6"
          },
          "sequence": 4294967295
        }
      ],
      "vout": [
        {
          "value": 3.26100000,
          "n": 0,
          "scriptPubKey": {
            "asm": "OP_DUP OP_HASH160 b986f6a08ba2a9a2761c33eda4398f2dc56c85ab OP_EQUALVERIFY OP_CHECKSIG",
            "hex": "76a914b986f6a08ba2a9a2761c33eda4398f2dc56c85ab88ac",
            "reqSigs": 1,
            "type": "pubkeyhash",
            "addresses": [
              "Lc8vx83Gy8RkR5hKMWoGyWBHoDPn7TYCM8"
            ]
          }
        }, 
        {
          "value": 185.78957350,
          "n": 1,
          "scriptPubKey": {
            "asm": "OP_DUP OP_HASH160 1bc78e1c224acd5423106797a8f7b429e6adec89 OP_EQUALVERIFY OP_CHECKSIG",
            "hex": "76a9141bc78e1c224acd5423106797a8f7b429e6adec8988ac",
            "reqSigs": 1,
            "type": "pubkeyhash",
            "addresses": [
              "LMkqZj1EftuRDph7pdgpqTzekrHyJdTy8D"
            ]
          }
        }
      ],
      "hex": "0100000001ef923da511858e1ddd7623c9ed19ddc3c362eb663e8474db28e3a3fae92eaa45010000006b483045022100b218935c8283131e9e4bf33166fd72aea39fda8aeea3d314144fec55809dc790022055c5a9d544eff490976933224d965450bcf9f89ae9bb6c7b8aaabf36c9ebfc5a0121031fae9f5fb60561f7206a46e01f1d580222714c290b4750c507509d31a620a0e6ffffffff0220e46f13000000001976a914b986f6a08ba2a9a2761c33eda4398f2dc56c85ab88ac26646453040000001976a9141bc78e1c224acd5423106797a8f7b429e6adec8988ac00000000"
    }, 
    {
      "txid": "28c02abcf3c4e742f1ae4000648de6f0f12af969253788152158a562b1ffc706",
      "hash": "28c02abcf3c4e742f1ae4000648de6f0f12af969253788152158a562b1ffc706",
      "version": 1,
      "size": 192,
      "vsize": 192,
      "locktime": 0,
      "vin": [
        {
          "txid": "a199b70873da080665dd04f904c8560b9825d58d55f01e99f349c3fc521db4b4",
          "vout": 1,
          "scriptSig": {
            "asm": "3045022100cdbbce4c961ce453de951a020c83e0ed7a6cba3bfd8773d9ad9d8b5cf61d7483022048fd2c73e92f803185af51d5eb8edb850cf1b065fdbd9b2b8cdd620110fe16fb[ALL] 03d110d8c1f255e932611e5e17d8b4af0766a570f2d657189ad91fffbe27981eb0",
            "hex": "483045022100cdbbce4c961ce453de951a020c83e0ed7a6cba3bfd8773d9ad9d8b5cf61d7483022048fd2c73e92f803185af51d5eb8edb850cf1b065fdbd9b2b8cdd620110fe16fb012103d110d8c1f255e932611e5e17d8b4af0766a570f2d657189ad91fffbe27981eb0"
          },
          "sequence": 4294967295
        }
      ],
      "vout": [
        {
          "value": 0.51138245,
          "n": 0,
          "scriptPubKey": {
            "asm": "OP_DUP OP_HASH160 dcb1be632cd49d1645099472356b2ced738e1bc5 OP_EQUALVERIFY OP_CHECKSIG",
            "hex": "76a914dcb1be632cd49d1645099472356b2ced738e1bc588ac",
            "reqSigs": 1,
            "type": "pubkeyhash",
            "addresses": [
              "LfLsrGJBMGciHG7C9dP7yqbQJHjYjczQ6F"
            ]
          }
        }
      ],
      "hex": "0100000001b4b41d52fcc349f3991ef0558dd525980b56c804f904dd650608da7308b799a1010000006b483045022100cdbbce4c961ce453de951a020c83e0ed7a6cba3bfd8773d9ad9d8b5cf61d7483022048fd2c73e92f803185af51d5eb8edb850cf1b065fdbd9b2b8cdd620110fe16fb012103d110d8c1f255e932611e5e17d8b4af0766a570f2d657189ad91fffbe27981eb0ffffffff01c54e0c03000000001976a914dcb1be632cd49d1645099472356b2ced738e1bc588ac00000000"
    }, 
    {
      "txid": "18f0be108c4421bad00943fbae9632b5c6df5254f4b50aa1cc73f753db930af5",
      "hash": "18f0be108c4421bad00943fbae9632b5c6df5254f4b50aa1cc73f753db930af5",
      "version": 1,
      "size": 373,
      "vsize": 373,
      "locktime": 0,
      "vin": [
        {
          "txid": "df49298a4bbddca3bc2d3a52ef56fb66d44ea5a5c7e16addd3ee146eb00a08dc",
          "vout": 1,
          "scriptSig": {
            "asm": "30440220419cf622917e1468d72a805abfdb57d63e41d2c8dd7312086907a23b8813c96102203d7db0a32b3ecebcdbe341376afc15f6bd02173874f0980c56efa21edf5c6113[ALL] 03aaf6356bb4772f2db53524dddd36d3d0e2ce72d3974a9fd50de93110e1eb373d",
            "hex": "4730440220419cf622917e1468d72a805abfdb57d63e41d2c8dd7312086907a23b8813c96102203d7db0a32b3ecebcdbe341376afc15f6bd02173874f0980c56efa21edf5c6113012103aaf6356bb4772f2db53524dddd36d3d0e2ce72d3974a9fd50de93110e1eb373d"
          },
          "sequence": 4294967295
        }, 
        {
          "txid": "71b2493c3742237d03a3bf61f1ebed6168e0091d5f8722a73db42652e38940c4",
          "vout": 0,
          "scriptSig": {
            "asm": "3045022100971bde8a058e77403437fa87c8b287eb5e4d9fc584a9084d04dd189b6759e4a40220245e525de880a8a16d9cf8f49fb7c0020d959dfe3d6d523464fce160b04df1e0[ALL] 03b63959b94591d88dc144ca5b962f04aa8bb7417e9b4c2fe42d6a29ad28778a75",
            "hex": "483045022100971bde8a058e77403437fa87c8b287eb5e4d9fc584a9084d04dd189b6759e4a40220245e525de880a8a16d9cf8f49fb7c0020d959dfe3d6d523464fce160b04df1e0012103b63959b94591d88dc144ca5b962f04aa8bb7417e9b4c2fe42d6a29ad28778a75"
          },
          "sequence": 4294967295
        }
      ],
      "vout": [
        {
          "value": 5.00000000,
          "n": 0,
          "scriptPubKey": {
            "asm": "OP_DUP OP_HASH160 4e539258372a27f5337a8b5389c053a55c16a6d6 OP_EQUALVERIFY OP_CHECKSIG",
            "hex": "76a9144e539258372a27f5337a8b5389c053a55c16a6d688ac",
            "reqSigs": 1,
            "type": "pubkeyhash",
            "addresses": [
              "LSN75qTyJZqMu2zbRGa5bCxp7UDZL9y6Lo"
            ]
          }
        }, 
        {
          "value": 4.99936850,
          "n": 1,
          "scriptPubKey": {
            "asm": "OP_DUP OP_HASH160 acd27f0740b1c12e3e7c6c9a513db31d3d0c4a2b OP_EQUALVERIFY OP_CHECKSIG",
            "hex": "76a914acd27f0740b1c12e3e7c6c9a513db31d3d0c4a2b88ac",
            "reqSigs": 1,
            "type": "pubkeyhash",
            "addresses": [
              "LaykejuQA94qvpFhKUmyKebugWcJDpoMR2"
            ]
          }
        }
      ],
      "hex": "0100000002dc080ab06e14eed3dd6ae1c7a5a54ed466fb56ef523a2dbca3dcbd4b8a2949df010000006a4730440220419cf622917e1468d72a805abfdb57d63e41d2c8dd7312086907a23b8813c96102203d7db0a32b3ecebcdbe341376afc15f6bd02173874f0980c56efa21edf5c6113012103aaf6356bb4772f2db53524dddd36d3d0e2ce72d3974a9fd50de93110e1eb373dffffffffc44089e35226b43da722875f1d09e06861edebf161bfa3037d2342373c49b271000000006b483045022100971bde8a058e77403437fa87c8b287eb5e4d9fc584a9084d04dd189b6759e4a40220245e525de880a8a16d9cf8f49fb7c0020d959dfe3d6d523464fce160b04df1e0012103b63959b94591d88dc144ca5b962f04aa8bb7417e9b4c2fe42d6a29ad28778a75ffffffff020065cd1d000000001976a9144e539258372a27f5337a8b5389c053a55c16a6d688ac526ecc1d000000001976a914acd27f0740b1c12e3e7c6c9a513db31d3d0c4a2b88ac00000000"
    }, 
    {
      "txid": "0e91a7bae4ff7e8f6cc386e3060a7bc11a6d0ff5b58b15cdc685eebf324d242c",
      "hash": "0e91a7bae4ff7e8f6cc386e3060a7bc11a6d0ff5b58b15cdc685eebf324d242c",
      "version": 1,
      "size": 225,
      "vsize": 225,
      "locktime": 0,
      "vin": [
        {
          "txid": "85da4a30218cea0a24b28399a93fbeb14a65928313ab2415db64d1998bc612b7",
          "vout": 1,
          "scriptSig": {
            "asm": "304402201c5aee235579b83ef5336b61f7a484171ee96c6a8eb64f260994c506d186bc8002204ccd6eb3f28394781c0139e217599c8195cbaea0f23bc32f234a66ebc3ae60ff[ALL] 02422c6a55e3c23780547c96dd89e55c94735471ac320f977b5fca63360756f2e0",
            "hex": "47304402201c5aee235579b83ef5336b61f7a484171ee96c6a8eb64f260994c506d186bc8002204ccd6eb3f28394781c0139e217599c8195cbaea0f23bc32f234a66ebc3ae60ff012102422c6a55e3c23780547c96dd89e55c94735471ac320f977b5fca63360756f2e0"
          },
          "sequence": 4294967295
        }
      ],
      "vout": [
        {
          "value": 0.92887023,
          "n": 0,
          "scriptPubKey": {
            "asm": "OP_DUP OP_HASH160 67d0df40d0f8d74b7183ccd48613692139ccf4df OP_EQUALVERIFY OP_CHECKSIG",
            "hex": "76a91467d0df40d0f8d74b7183ccd48613692139ccf4df88ac",
            "reqSigs": 1,
            "type": "pubkeyhash",
            "addresses": [
              "LUgt5f8iJFdejM49kGGLwdkZrAYAvnLGAk"
            ]
          }
        }, 
        {
          "value": 68.90068352,
          "n": 1,
          "scriptPubKey": {
            "asm": "OP_DUP OP_HASH160 11f2369ccd720e4c6d7d09c7b504f867ec4857a9 OP_EQUALVERIFY OP_CHECKSIG",
            "hex": "76a91411f2369ccd720e4c6d7d09c7b504f867ec4857a988ac",
            "reqSigs": 1,
            "type": "pubkeyhash",
            "addresses": [
              "LLrqukXmrgrbUWUYp27zJgWBCKR7tYZpbm"
            ]
          }
        }
      ],
      "hex": "0100000001b712c68b99d164db1524ab138392654ab1be3fa99983b2240aea8c21304ada85010000006a47304402201c5aee235579b83ef5336b61f7a484171ee96c6a8eb64f260994c506d186bc8002204ccd6eb3f28394781c0139e217599c8195cbaea0f23bc32f234a66ebc3ae60ff012102422c6a55e3c23780547c96dd89e55c94735471ac320f977b5fca63360756f2e0ffffffff02ef578905000000001976a91467d0df40d0f8d74b7183ccd48613692139ccf4df88ac8019ae9a010000001976a91411f2369ccd720e4c6d7d09c7b504f867ec4857a988ac00000000"
    }, 
    {
      "txid": "d1588255bd8a6cc101e997817551c525e1bf128aec137f19f7ad34bbabac4c71",
      "hash": "d1588255bd8a6cc101e997817551c525e1bf128aec137f19f7ad34bbabac4c71",
      "version": 2,
      "size": 225,
      "vsize": 225,
      "locktime": 1358469,
      "vin": [
        {
          "txid": "5f0921b0c5f01273ca22dd329d932b7e14ec9884361433976e575ef346c0b3a0",
          "vout": 0,
          "scriptSig": {
            "asm": "304402203e927979d670fdfd4806e085432940524d2b337f93f4ca736b171045384c242b0220034f3659e6b22a437f1d036de67e2cb9b86cd67e383f2eca235f3650cccaaf00[ALL] 02ef6952ba6c11d5cd3f5bf87b08f72e0e5f3ba7be12d300445e3c93e2a5681994",
            "hex": "47304402203e927979d670fdfd4806e085432940524d2b337f93f4ca736b171045384c242b0220034f3659e6b22a437f1d036de67e2cb9b86cd67e383f2eca235f3650cccaaf00012102ef6952ba6c11d5cd3f5bf87b08f72e0e5f3ba7be12d300445e3c93e2a5681994"
          },
          "sequence": 4294967294
        }
      ],
      "vout": [
        {
          "value": 6.89827395,
          "n": 0,
          "scriptPubKey": {
            "asm": "OP_DUP OP_HASH160 1398d211d7a035cbdc5bd74ab79d978e157ac933 OP_EQUALVERIFY OP_CHECKSIG",
            "hex": "76a9141398d211d7a035cbdc5bd74ab79d978e157ac93388ac",
            "reqSigs": 1,
            "type": "pubkeyhash",
            "addresses": [
              "LM1aB21NZGrXr7A4NuyZmiKe3YgcRyvFv4"
            ]
          }
        }, 
        {
          "value": 0.51124745,
          "n": 1,
          "scriptPubKey": {
            "asm": "OP_DUP OP_HASH160 88978cad02f1a85785cebe37b4d19132d4fd0c45 OP_EQUALVERIFY OP_CHECKSIG",
            "hex": "76a91488978cad02f1a85785cebe37b4d19132d4fd0c4588ac",
            "reqSigs": 1,
            "type": "pubkeyhash",
            "addresses": [
              "LXgBi9UFi8qvp28ofYwVPGi1Rim6eiKGQD"
            ]
          }
        }
      ],
      "hex": "0200000001a0b3c046f35e576e973314368498ec147e2b939d32dd22ca7312f0c5b021095f000000006a47304402203e927979d670fdfd4806e085432940524d2b337f93f4ca736b171045384c242b0220034f3659e6b22a437f1d036de67e2cb9b86cd67e383f2eca235f3650cccaaf00012102ef6952ba6c11d5cd3f5bf87b08f72e0e5f3ba7be12d300445e3c93e2a5681994feffffff0243ee1d29000000001976a9141398d211d7a035cbdc5bd74ab79d978e157ac93388ac091a0c03000000001976a91488978cad02f1a85785cebe37b4d19132d4fd0c4588ac85ba1400"
    }, 
    {
      "txid": "20b8116ed139336a2e1fba39cea417b36e331fd55cb5c8432af0b10a29389499",
      "hash": "20b8116ed139336a2e1fba39cea417b36e331fd55cb5c8432af0b10a29389499",
      "version": 2,
      "size": 225,
      "vsize": 225,
      "locktime": 1358644,
      "vin": [
        {
          "txid": "c368c7d7e33a2b3ccf3679ab50dbaea2c59c9cd5746536e61957364cfa491cc5",
          "vout": 1,
          "scriptSig": {
            "asm": "304402201411bdae2d6f4bec3c51f0f07d917c120069cf31315df15fa05e3c96d882ab15022057b49a07a5674bda8afed9fdd294c82240da6cab186973db99911dc596a3b8b3[ALL] 03f7503d861658e6175fa3ea387b07814e109be5665c361c387be256a94984373d",
            "hex": "47304402201411bdae2d6f4bec3c51f0f07d917c120069cf31315df15fa05e3c96d882ab15022057b49a07a5674bda8afed9fdd294c82240da6cab186973db99911dc596a3b8b3012103f7503d861658e6175fa3ea387b07814e109be5665c361c387be256a94984373d"
          },
          "sequence": 4294967294
        }
      ],
      "vout": [
        {
          "value": 0.16920474,
          "n": 0,
          "scriptPubKey": {
            "asm": "OP_DUP OP_HASH160 78dc408527838f568305fd5a56794007a7f4bcf7 OP_EQUALVERIFY OP_CHECKSIG",
            "hex": "76a91478dc408527838f568305fd5a56794007a7f4bcf788ac",
            "reqSigs": 1,
            "type": "pubkeyhash",
            "addresses": [
              "LWF1CcTR7k5QAULFWKZ58sVLaHWEgLqVxW"
            ]
          }
        }, 
        {
          "value": 267.03521955,
          "n": 1,
          "scriptPubKey": {
            "asm": "OP_DUP OP_HASH160 12ee547850a27267f418ee9bff6530bd46344653 OP_EQUALVERIFY OP_CHECKSIG",
            "hex": "76a91412ee547850a27267f418ee9bff6530bd4634465388ac",
            "reqSigs": 1,
            "type": "pubkeyhash",
            "addresses": [
              "LLx3w82VCBXFakSbDiqgGiAjane9DqHKcC"
            ]
          }
        }
      ],
      "hex": "0200000001c51c49fa4c365719e6366574d59c9cc5a2aedb50ab7936cf3c2b3ae3d7c768c3010000006a47304402201411bdae2d6f4bec3c51f0f07d917c120069cf31315df15fa05e3c96d882ab15022057b49a07a5674bda8afed9fdd294c82240da6cab186973db99911dc596a3b8b3012103f7503d861658e6175fa3ea387b07814e109be5665c361c387be256a94984373dfeffffff029a2f0201000000001976a91478dc408527838f568305fd5a56794007a7f4bcf788aca368a737060000001976a91412ee547850a27267f418ee9bff6530bd4634465388ac34bb1400"
    }, 
    {
      "txid": "d4a64fd3ac1419389ff9b3688cfeeb1d8093ac8b92239533b81b84d5c3f065b2",
      "hash": "d4a64fd3ac1419389ff9b3688cfeeb1d8093ac8b92239533b81b84d5c3f065b2",
      "version": 1,
      "size": 225,
      "vsize": 225,
      "locktime": 0,
      "vin": [
        {
          "txid": "b8d7a769a4a923bb54c81d83cbc181ddd271d6521bcc60ff6b694bc4aa55682d",
          "vout": 0,
          "scriptSig": {
            "asm": "3044022067a6cf21d6bd60711905e7980c847ae19faa12190174035f49e1d5a98a17f6d60220252abf0bfb4bd207eb8c7959b1043fcb15c1ef9d6965796bbffe2300b345ae77[ALL] 022a62958d5c9647baf1f1ffacd0a01d9082cde13af51bbf601cdf307c49c6da37",
            "hex": "473044022067a6cf21d6bd60711905e7980c847ae19faa12190174035f49e1d5a98a17f6d60220252abf0bfb4bd207eb8c7959b1043fcb15c1ef9d6965796bbffe2300b345ae770121022a62958d5c9647baf1f1ffacd0a01d9082cde13af51bbf601cdf307c49c6da37"
          },
          "sequence": 4294967295
        }
      ],
      "vout": [
        {
          "value": 0.67882976,
          "n": 0,
          "scriptPubKey": {
            "asm": "OP_DUP OP_HASH160 b9ac026f3dae9ee454e7b387ae23d213b7f6fc5c OP_EQUALVERIFY OP_CHECKSIG",
            "hex": "76a914b9ac026f3dae9ee454e7b387ae23d213b7f6fc5c88ac",
            "reqSigs": 1,
            "type": "pubkeyhash",
            "addresses": [
              "Lc9hL8c1AN3vEsVimkLZP8ZDLvnsNiRKEx"
            ]
          }
        }, 
        {
          "value": 0.50000000,
          "n": 1,
          "scriptPubKey": {
            "asm": "OP_DUP OP_HASH160 47244f0d7f8684494cd19b582f093aa7e4b58135 OP_EQUALVERIFY OP_CHECKSIG",
            "hex": "76a91447244f0d7f8684494cd19b582f093aa7e4b5813588ac",
            "reqSigs": 1,
            "type": "pubkeyhash",
            "addresses": [
              "LRi7jcV49BkHpFBE4Bp1vHH7a1qbxSyp3A"
            ]
          }
        }
      ],
      "hex": "01000000012d6855aac44b696bff60cc1b52d671d2dd81c1cb831dc854bb23a9a469a7d7b8000000006a473044022067a6cf21d6bd60711905e7980c847ae19faa12190174035f49e1d5a98a17f6d60220252abf0bfb4bd207eb8c7959b1043fcb15c1ef9d6965796bbffe2300b345ae770121022a62958d5c9647baf1f1ffacd0a01d9082cde13af51bbf601cdf307c49c6da37ffffffff02e0cf0b04000000001976a914b9ac026f3dae9ee454e7b387ae23d213b7f6fc5c88ac80f0fa02000000001976a91447244f0d7f8684494cd19b582f093aa7e4b5813588ac00000000"
    }, 
    {
      "txid": "4e6ba9fdf6ee9f42a7ad62e7e4b9a0268492e99b05504302627feb459aaf0521",
      "hash": "4e6ba9fdf6ee9f42a7ad62e7e4b9a0268492e99b05504302627feb459aaf0521",
      "version": 1,
      "size": 226,
      "vsize": 226,
      "locktime": 0,
      "vin": [
        {
          "txid": "ae0cd17b65ca20eea39d1b0c6c1ea921faa6e6fade1483a5d4f46074976952c1",
          "vout": 1,
          "scriptSig": {
            "asm": "30450221009140c06a0314d751de11bf2f97b458aa688ec87737df89e6e7eece522271517402201ec5cec3708c01a3ed91c52d3f8319a2a46182cedb58b9399b56548b89743bd0[ALL] 0370b6e5920f57f2677ff46bb456958cbfc51c554a9cd2f48d18b98dd9a339a0f9",
            "hex": "4830450221009140c06a0314d751de11bf2f97b458aa688ec87737df89e6e7eece522271517402201ec5cec3708c01a3ed91c52d3f8319a2a46182cedb58b9399b56548b89743bd001210370b6e5920f57f2677ff46bb456958cbfc51c554a9cd2f48d18b98dd9a339a0f9"
          },
          "sequence": 4294967295
        }
      ],
      "vout": [
        {
          "value": 0.06738271,
          "n": 0,
          "scriptPubKey": {
            "asm": "OP_DUP OP_HASH160 6da9a33c909f39840ba98ba6336d24d6246521fa OP_EQUALVERIFY OP_CHECKSIG",
            "hex": "76a9146da9a33c909f39840ba98ba6336d24d6246521fa88ac",
            "reqSigs": 1,
            "type": "pubkeyhash",
            "addresses": [
              "LVDo8kbyBFneG3FuagTYBZ9vKFLepDpJoo"
            ]
          }
        }, 
        {
          "value": 0.49977400,
          "n": 1,
          "scriptPubKey": {
            "asm": "OP_DUP OP_HASH160 1a360766d0113b60297a5c4bdd84fca26b22b794 OP_EQUALVERIFY OP_CHECKSIG",
            "hex": "76a9141a360766d0113b60297a5c4bdd84fca26b22b79488ac",
            "reqSigs": 1,
            "type": "pubkeyhash",
            "addresses": [
              "LMcYZCH7CdqS1KfgP2uLYCKupSL6VqcrhL"
            ]
          }
        }
      ],
      "hex": "0100000001c15269977460f4d4a58314defae6a6fa21a91e6c0c1b9da3ee20ca657bd10cae010000006b4830450221009140c06a0314d751de11bf2f97b458aa688ec87737df89e6e7eece522271517402201ec5cec3708c01a3ed91c52d3f8319a2a46182cedb58b9399b56548b89743bd001210370b6e5920f57f2677ff46bb456958cbfc51c554a9cd2f48d18b98dd9a339a0f9ffffffff025fd16600000000001976a9146da9a33c909f39840ba98ba6336d24d6246521fa88ac3898fa02000000001976a9141a360766d0113b60297a5c4bdd84fca26b22b79488ac00000000"
    }, 
    {
      "txid": "ec03a5dd3a00427b1ac581a9ac929166cc21b3e6af6ed2510c03f597781f7c98",
      "hash": "ec03a5dd3a00427b1ac581a9ac929166cc21b3e6af6ed2510c03f597781f7c98",
      "version": 1,
      "size": 224,
      "vsize": 224,
      "locktime": 0,
      "vin": [
        {
          "txid": "4532dccfd91ec7dae534f3671248a9150725c971a416f8c4cc486defa8d6d123",
          "vout": 1,
          "scriptSig": {
            "asm": "3045022100a5e32b9fe01e8ff3d701075ed6a57a65aa371d65d4a5d6a992bb95a62f554a8202206b910d50ae0046a5856d433ab4c89556511794ddfde2a08b856166ce3cb65876[ALL] 02fd8763077092f4d3e19b07440607e6e9b36dd8227fdb313e439e485bcff54776",
            "hex": "483045022100a5e32b9fe01e8ff3d701075ed6a57a65aa371d65d4a5d6a992bb95a62f554a8202206b910d50ae0046a5856d433ab4c89556511794ddfde2a08b856166ce3cb65876012102fd8763077092f4d3e19b07440607e6e9b36dd8227fdb313e439e485bcff54776"
          },
          "sequence": 4294967295
        }
      ],
      "vout": [
        {
          "value": 0.99000000,
          "n": 0,
          "scriptPubKey": {
            "asm": "OP_HASH160 62a53779f26d16f1dab739485321b8a61d477ad4 OP_EQUAL",
            "hex": "a91462a53779f26d16f1dab739485321b8a61d477ad487",
            "reqSigs": 1,
            "type": "scripthash",
            "addresses": [
              "MGtkNgppqnXPiSRKN3rGwd5A2GQgprZAtn"
            ]
          }
        }, 
        {
          "value": 68.57771770,
          "n": 1,
          "scriptPubKey": {
            "asm": "OP_DUP OP_HASH160 d2f443fad9866925ccbff9a3c714684b7f623e9f OP_EQUALVERIFY OP_CHECKSIG",
            "hex": "76a914d2f443fad9866925ccbff9a3c714684b7f623e9f88ac",
            "reqSigs": 1,
            "type": "pubkeyhash",
            "addresses": [
              "LeTNnN8TcFr8EHkr6VtZMG6XLD2AzdC1p8"
            ]
          }
        }
      ],
      "hex": "010000000123d1d6a8ef6d48ccc4f816a471c9250715a9481267f334e5dac71ed9cfdc3245010000006b483045022100a5e32b9fe01e8ff3d701075ed6a57a65aa371d65d4a5d6a992bb95a62f554a8202206b910d50ae0046a5856d433ab4c89556511794ddfde2a08b856166ce3cb65876012102fd8763077092f4d3e19b07440607e6e9b36dd8227fdb313e439e485bcff54776ffffffff02c09ee6050000000017a91462a53779f26d16f1dab739485321b8a61d477ad487fa4ac198010000001976a914d2f443fad9866925ccbff9a3c714684b7f623e9f88ac00000000"
    }, 
    {
      "txid": "310e6c2b66062e1a399fd1d481af20739dd36c308ce9ecd88c740a3d3c3d30a4",
      "hash": "310e6c2b66062e1a399fd1d481af20739dd36c308ce9ecd88c740a3d3c3d30a4",
      "version": 1,
      "size": 226,
      "vsize": 226,
      "locktime": 0,
      "vin": [
        {
          "txid": "7966b983a55f98300a01a4a6e0dd93873dc55712200d9f9d3d7d7e312686e2db",
          "vout": 1,
          "scriptSig": {
            "asm": "304502210081f3534a9bd74e91172c255a964af06292ea45bb0e159476313971b256ee12cf02203234465eba708cfd80d53b88fd7c49d63c56e1e0a95b9503868ab9eefd32bf64[ALL] 03dc4591de309ec9166b36bf913f0d41c7e5534eba24e48fda5d667743f3108be0",
            "hex": "48304502210081f3534a9bd74e91172c255a964af06292ea45bb0e159476313971b256ee12cf02203234465eba708cfd80d53b88fd7c49d63c56e1e0a95b9503868ab9eefd32bf64012103dc4591de309ec9166b36bf913f0d41c7e5534eba24e48fda5d667743f3108be0"
          },
          "sequence": 4294967295
        }
      ],
      "vout": [
        {
          "value": 1.00000000,
          "n": 0,
          "scriptPubKey": {
            "asm": "OP_DUP OP_HASH160 a2fd0bd26d30e31d7250272066ba80bf44f18fa9 OP_EQUALVERIFY OP_CHECKSIG",
            "hex": "76a914a2fd0bd26d30e31d7250272066ba80bf44f18fa988ac",
            "reqSigs": 1,
            "type": "pubkeyhash",
            "addresses": [
              "La5ksFEv56GYNC4XoFzQiNkUzy5x9yut3u"
            ]
          }
        }, 
        {
          "value": 65.61324022,
          "n": 1,
          "scriptPubKey": {
            "asm": "OP_DUP OP_HASH160 873aa84496cef8cb3daaa9e8f733e60b800b1418 OP_EQUALVERIFY OP_CHECKSIG",
            "hex": "76a914873aa84496cef8cb3daaa9e8f733e60b800b141888ac",
            "reqSigs": 1,
            "type": "pubkeyhash",
            "addresses": [
              "LXYykh1Db8iZS9hZcn9tHkKbjuAemoiNfj"
            ]
          }
        }
      ],
      "hex": "0100000001dbe28626317e7d3d9d9f0d201257c53d8793dde0a6a4010a30985fa583b96679010000006b48304502210081f3534a9bd74e91172c255a964af06292ea45bb0e159476313971b256ee12cf02203234465eba708cfd80d53b88fd7c49d63c56e1e0a95b9503868ab9eefd32bf64012103dc4591de309ec9166b36bf913f0d41c7e5534eba24e48fda5d667743f3108be0ffffffff0200e1f505000000001976a914a2fd0bd26d30e31d7250272066ba80bf44f18fa988acf6db1587010000001976a914873aa84496cef8cb3daaa9e8f733e60b800b141888ac00000000"
    }, 
    {
      "txid": "425495cf65baf9f6e6df8ecf1e83c4062415000b1426712ce9f556430acfa9b6",
      "hash": "425495cf65baf9f6e6df8ecf1e83c4062415000b1426712ce9f556430acfa9b6",
      "version": 2,
      "size": 578,
      "vsize": 578,
      "locktime": 1358644,
      "vin": [
        {
          "txid": "368b712daea4cf1571aa2f568ec6218414ac663a5c4a4940ee59fe9374006734",
          "vout": 0,
          "scriptSig": {
            "asm": "3045022100e3793fcb92be0e35823163f220e03cfe34f27c9e9ed8f5ccfa882261c5719ddc02205e301372bd63ef99785b228b66ed691a0ae315900360d950534058b1983de79b[ALL] 02e2037bd3b8ff3ee3e1c67e232b207d138124a826a4f761eeba99ff99c4b60c29",
            "hex": "483045022100e3793fcb92be0e35823163f220e03cfe34f27c9e9ed8f5ccfa882261c5719ddc02205e301372bd63ef99785b228b66ed691a0ae315900360d950534058b1983de79b012102e2037bd3b8ff3ee3e1c67e232b207d138124a826a4f761eeba99ff99c4b60c29"
          },
          "sequence": 4294967294
        }, 
        {
          "txid": "6f17c57f9c2b87624654329d47bcb055cf65c09acf04406032b4e1309511628e",
          "vout": 1,
          "scriptSig": {
            "asm": "3045022100efb5962f808a53d602c7eb4ae34aebdc916aad21b440d2ee28e175f62e18314702207d96b76930ab247db26ca406758c488c3178ef26de4b64274fea99d7957db18b[ALL] 03ac5acf1f843502cd50252f500998c621179690d951f9b37fadeb0d05e27777bd",
            "hex": "483045022100efb5962f808a53d602c7eb4ae34aebdc916aad21b440d2ee28e175f62e18314702207d96b76930ab247db26ca406758c488c3178ef26de4b64274fea99d7957db18b012103ac5acf1f843502cd50252f500998c621179690d951f9b37fadeb0d05e27777bd"
          },
          "sequence": 4294967294
        }
      ],
      "vout": [
        {
          "value": 4.05217000,
          "n": 0,
          "scriptPubKey": {
            "asm": "OP_DUP OP_HASH160 c05603540222394993ff452962d4abac644db2c7 OP_EQUALVERIFY OP_CHECKSIG",
            "hex": "76a914c05603540222394993ff452962d4abac644db2c788ac",
            "reqSigs": 1,
            "type": "pubkeyhash",
            "addresses": [
              "Lckw3LEovx5m5kxsFCjd5smkr6MHkZgc7F"
            ]
          }
        }, 
        {
          "value": 0.30468500,
          "n": 1,
          "scriptPubKey": {
            "asm": "OP_DUP OP_HASH160 9e6580da2553ebae7f0029004305c9f65a4d80bb OP_EQUALVERIFY OP_CHECKSIG",
            "hex": "76a9149e6580da2553ebae7f0029004305c9f65a4d80bb88ac",
            "reqSigs": 1,
            "type": "pubkeyhash",
            "addresses": [
              "LZfUd6b1YZpcryPYtQEz9uGzSPtZZsRJ3D"
            ]
          }
        }, 
        {
          "value": 109.99000000,
          "n": 2,
          "scriptPubKey": {
            "asm": "OP_DUP OP_HASH160 ef4e15db5965c719c5cd7969838fae4eec713f6b OP_EQUALVERIFY OP_CHECKSIG",
            "hex": "76a914ef4e15db5965c719c5cd7969838fae4eec713f6b88ac",
            "reqSigs": 1,
            "type": "pubkeyhash",
            "addresses": [
              "Lh3HJXZNE2cxFuhvqchR6WCD8oVNppsV1J"
            ]
          }
        }, 
        {
          "value": 0.57442000,
          "n": 3,
          "scriptPubKey": {
            "asm": "OP_DUP OP_HASH160 af97f09b62e03981e26157a75154454b21d63c2d OP_EQUALVERIFY OP_CHECKSIG",
            "hex": "76a914af97f09b62e03981e26157a75154454b21d63c2d88ac",
            "reqSigs": 1,
            "type": "pubkeyhash",
            "addresses": [
              "LbEQXkVSWTqkEdDfgVp1Fg7NrK9XK2tQJk"
            ]
          }
        }, 
        {
          "value": 0.64000000,
          "n": 4,
          "scriptPubKey": {
            "asm": "OP_DUP OP_HASH160 39e3e0db0141ba214fa350a235b2870d0459941b OP_EQUALVERIFY OP_CHECKSIG",
            "hex": "76a91439e3e0db0141ba214fa350a235b2870d0459941b88ac",
            "reqSigs": 1,
            "type": "pubkeyhash",
            "addresses": [
              "LQW3mQraoPhrd1ECz8C4LwXZ1Zn9iGypjL"
            ]
          }
        }, 
        {
          "value": 0.15430165,
          "n": 5,
          "scriptPubKey": {
            "asm": "OP_DUP OP_HASH160 fce95fbcc489b1311432cc786d9700edec553fac OP_EQUALVERIFY OP_CHECKSIG",
            "hex": "76a914fce95fbcc489b1311432cc786d9700edec553fac88ac",
            "reqSigs": 1,
            "type": "pubkeyhash",
            "addresses": [
              "LiHE7fN8aSJuVWBkHNZarUvsn7C5SnJzi7"
            ]
          }
        }, 
        {
          "value": 0.03672168,
          "n": 6,
          "scriptPubKey": {
            "asm": "OP_DUP OP_HASH160 6ededba3152cd8aa3ef1a36e7b93460a2efb94bf OP_EQUALVERIFY OP_CHECKSIG",
            "hex": "76a9146ededba3152cd8aa3ef1a36e7b93460a2efb94bf88ac",
            "reqSigs": 1,
            "type": "pubkeyhash",
            "addresses": [
              "LVLBZkqk81zBm9L7Fhe1NBdoU8j57RCYLX"
            ]
          }
        }, 
        {
          "value": 1.74038836,
          "n": 7,
          "scriptPubKey": {
            "asm": "OP_DUP OP_HASH160 14b3df7d987ec11279ae46a84f8da89ca0d52e89 OP_EQUALVERIFY OP_CHECKSIG",
            "hex": "76a91414b3df7d987ec11279ae46a84f8da89ca0d52e8988ac",
            "reqSigs": 1,
            "type": "pubkeyhash",
            "addresses": [
              "LM7RFqzR6bFFGZKB8mXvi3XYSqdM24yzvF"
            ]
          }
        }
      ],
      "hex": "02000000023467007493fe59ee40494a5c3a66ac148421c68e562faa7115cfa4ae2d718b36000000006b483045022100e3793fcb92be0e35823163f220e03cfe34f27c9e9ed8f5ccfa882261c5719ddc02205e301372bd63ef99785b228b66ed691a0ae315900360d950534058b1983de79b012102e2037bd3b8ff3ee3e1c67e232b207d138124a826a4f761eeba99ff99c4b60c29feffffff8e62119530e1b432604004cf9ac065cf55b0bc479d32544662872b9c7fc5176f010000006b483045022100efb5962f808a53d602c7eb4ae34aebdc916aad21b440d2ee28e175f62e18314702207d96b76930ab247db26ca406758c488c3178ef26de4b64274fea99d7957db18b012103ac5acf1f843502cd50252f500998c621179690d951f9b37fadeb0d05e27777bdfeffffff08e81e2718000000001976a914c05603540222394993ff452962d4abac644db2c788ac94e9d001000000001976a9149e6580da2553ebae7f0029004305c9f65a4d80bb88acc06b978f020000001976a914ef4e15db5965c719c5cd7969838fae4eec713f6b88acd07e6c03000000001976a914af97f09b62e03981e26157a75154454b21d63c2d88ac0090d003000000001976a91439e3e0db0141ba214fa350a235b2870d0459941b88ac1572eb00000000001976a914fce95fbcc489b1311432cc786d9700edec553fac88ac68083800000000001976a9146ededba3152cd8aa3ef1a36e7b93460a2efb94bf88ac349f5f0a000000001976a91414b3df7d987ec11279ae46a84f8da89ca0d52e8988ac34bb1400"
    }, 
    {
      "txid": "b0ca752285c24fef31b1b5179c2af45f9d1e9e3132380c3569ff4573a8e4a0c8",
      "hash": "b0ca752285c24fef31b1b5179c2af45f9d1e9e3132380c3569ff4573a8e4a0c8",
      "version": 1,
      "size": 226,
      "vsize": 226,
      "locktime": 0,
      "vin": [
        {
          "txid": "29b197dc926095e51036402cefb2c8752c620e21251ef30fd4ea016f4b48cf83",
          "vout": 0,
          "scriptSig": {
            "asm": "3045022100d28cc874c59bbb66c3faa234155f77265763a1ef5bc5c8166aba944772982f5502206ffebd340c0360978f594c3f65c132d76e89d7b26ef1738d113705ff37985ada[ALL] 024703ceb012f92d4c2daada8318589a0e8a13306931114775f791ce86c9d476d5",
            "hex": "483045022100d28cc874c59bbb66c3faa234155f77265763a1ef5bc5c8166aba944772982f5502206ffebd340c0360978f594c3f65c132d76e89d7b26ef1738d113705ff37985ada0121024703ceb012f92d4c2daada8318589a0e8a13306931114775f791ce86c9d476d5"
          },
          "sequence": 4294967295
        }
      ],
      "vout": [
        {
          "value": 64.28362341,
          "n": 0,
          "scriptPubKey": {
            "asm": "OP_DUP OP_HASH160 aff467919ba2e5310ccfc131d485b3eee5de40b0 OP_EQUALVERIFY OP_CHECKSIG",
            "hex": "76a914aff467919ba2e5310ccfc131d485b3eee5de40b088ac",
            "reqSigs": 1,
            "type": "pubkeyhash",
            "addresses": [
              "LbGKJJwxa1BJEK26N4smEHRqZ36LPHv5PF"
            ]
          }
        }, 
        {
          "value": 2.33430000,
          "n": 1,
          "scriptPubKey": {
            "asm": "OP_DUP OP_HASH160 fb771de010481aee32a3bf2d454bc586620fdb17 OP_EQUALVERIFY OP_CHECKSIG",
            "hex": "76a914fb771de010481aee32a3bf2d454bc586620fdb1788ac",
            "reqSigs": 1,
            "type": "pubkeyhash",
            "addresses": [
              "Li9aZjdj9ywBtMQUeeCPPYzkFj5n1qejA3"
            ]
          }
        }
      ],
      "hex": "010000000183cf484b6f01ead40ff31e25210e622c75c8b2ef2c403610e5956092dc97b129000000006b483045022100d28cc874c59bbb66c3faa234155f77265763a1ef5bc5c8166aba944772982f5502206ffebd340c0360978f594c3f65c132d76e89d7b26ef1738d113705ff37985ada0121024703ceb012f92d4c2daada8318589a0e8a13306931114775f791ce86c9d476d5ffffffff026506297f010000001976a914aff467919ba2e5310ccfc131d485b3eee5de40b088acf0dbe90d000000001976a914fb771de010481aee32a3bf2d454bc586620fdb1788ac00000000"
    }
  ],
  "time": 1517171823,
  "mediantime": 1517171188,
  "nonce": 70424719,
  "bits": "1a047f14",
  "difficulty": 3731199.183374282,
  "chainwork": "000000000000000000000000000000000000000000000033462de7a62c49fa96",
  "previousblockhash": "012a1f7973e1693c2532d98e7a91cf9e2e068684fb09faee9ab3104dca809e1b",
  "nextblockhash": "788d9e8e2df6df658a31419eac17dc3bd369d4ce2e45ac0f3f03e87e59562174"
}
