{
  "hash": "bc2e0109a07ffe43b2cd2ba53dad8ad2deda18722f679dfdd6bdd2bb11ea1664",
  "confirmations": 2746,
  "strippedsize": 234,
  "size": 234,
  "weight": 936,
  "height": 1358249,
  "version": 536870912,
  "versionHex": "20000000",
  "merkleroot": "f6fe0628ea0c8f731633e48c7243ebc6242047eace67c70fddb4635a657762cc",
  "tx": [
    {
      "txid": "f6fe0628ea0c8f731633e48c7243ebc6242047eace67c70fddb4635a657762cc",
      "hash": "f6fe0628ea0c8f731633e48c7243ebc6242047eace67c70fddb4635a657762cc",
      "version": 1,
      "size": 153,
      "vsize": 153,
      "locktime": 0,
      "vin": [
        {
          "coinbase": "03a9b914045a6d56b52cfabe6d6da09127909431228893b08f8a73f19bdbe36f73ada3e081bc6c2fab01093d621a4000000000000000042f4c502f0856000a560c000000",
          "sequence": 4294967295
        }
      ],
      "vout": [
        {
          "value": 25.00000000,
          "n": 0,
          "scriptPubKey": {
            "asm": "OP_DUP OP_HASH160 57757ed2ecf2052ff3126c397aca7defb9ca2cec OP_EQUALVERIFY OP_CHECKSIG",
            "hex": "76a91457757ed2ecf2052ff3126c397aca7defb9ca2cec88ac",
            "reqSigs": 1,
            "type": "pubkeyhash",
            "addresses": [
              "LTCPodGk5FwcJaRzH9yKnwicxzFUbxp6tN"
            ]
          }
        }
      ],
      "hex": "01000000010000000000000000000000000000000000000000000000000000000000000000ffffffff4403a9b914045a6d56b52cfabe6d6da09127909431228893b08f8a73f19bdbe36f73ada3e081bc6c2fab01093d621a4000000000000000042f4c502f0856000a560c000000ffffffff0100f90295000000001976a91457757ed2ecf2052ff3126c397aca7defb9ca2cec88ac00000000"
    }
  ],
  "time": 1517115061,
  "mediantime": 1517114103,
  "nonce": 755266129,
  "bits": "1a047f14",
  "difficulty": 3731199.183374282,
  "chainwork": "000000000000000000000000000000000000000000000032ede2ed9f65914644",
  "previousblockhash": "45758ffbabf75b1fc59c07c0850bf54c74a98bd4ac9472dd0a55af7927c96de1",
  "nextblockhash": "2f7d62b45d04c257bf6e66708d513f45151f25f0a1a4cf22fe1046a8ceae1787"
}
