{
  "hash": "bc3927bfaa4d44f6677eb8e95be938f561046f017b2e99912193d0f5c6b1e60d",
  "confirmations": 1062,
  "strippedsize": 234,
  "size": 234,
  "weight": 936,
  "height": 1359932,
  "version": 536870912,
  "versionHex": "20000000",
  "merkleroot": "1255a89fa3262d028b7b00b0ae52b12d243765597fda249ec677960a68111f74",
  "tx": [
    {
      "txid": "1255a89fa3262d028b7b00b0ae52b12d243765597fda249ec677960a68111f74",
      "hash": "1255a89fa3262d028b7b00b0ae52b12d243765597fda249ec677960a68111f74",
      "version": 1,
      "size": 153,
      "vsize": 153,
      "locktime": 0,
      "vin": [
        {
          "coinbase": "033cc014045a70ef412cfabe6d6dd1be2561be170f7e0e6e1aee05c6b7f26ad0e34644472fa9d01fd805b7d0d8034000000000000000042f4c502f085800771103000000",
          "sequence": 4294967295
        }
      ],
      "vout": [
        {
          "value": 25.00000000,
          "n": 0,
          "scriptPubKey": {
            "asm": "OP_DUP OP_HASH160 57757ed2ecf2052ff3126c397aca7defb9ca2cec OP_EQUALVERIFY OP_CHECKSIG",
            "hex": "76a91457757ed2ecf2052ff3126c397aca7defb9ca2cec88ac",
            "reqSigs": 1,
            "type": "pubkeyhash",
            "addresses": [
              "LTCPodGk5FwcJaRzH9yKnwicxzFUbxp6tN"
            ]
          }
        }
      ],
      "hex": "01000000010000000000000000000000000000000000000000000000000000000000000000ffffffff44033cc014045a70ef412cfabe6d6dd1be2561be170f7e0e6e1aee05c6b7f26ad0e34644472fa9d01fd805b7d0d8034000000000000000042f4c502f085800771103000000ffffffff0100f90295000000001976a91457757ed2ecf2052ff3126c397aca7defb9ca2cec88ac00000000"
    }
  ],
  "time": 1517350721,
  "mediantime": 1517349989,
  "nonce": 2918217419,
  "bits": "1a042eae",
  "difficulty": 4011378.762614286,
  "chainwork": "000000000000000000000000000000000000000000000034775fe37e85da70fa",
  "previousblockhash": "bb2241758fa9f7ef92518b5c2432f3b7ec9a7999e010ccb1e884a9bb41e8d141",
  "nextblockhash": "782c4c9127b46f39afbf315d5fbd26b98b9845c6f62987691e87620d62aca2ec"
}
