{
  "hash": "bc47bc027bc1b69d22ebc13f9360d434cacfb534667bb9f8a6db4d49cff78817",
  "confirmations": 2118,
  "strippedsize": 874,
  "size": 910,
  "weight": 3532,
  "height": 1358876,
  "version": 536870912,
  "versionHex": "20000000",
  "merkleroot": "479ffa018b81bdae8444fe875352bb7e5ab5e073165ecc0448133e8903e97959",
  "tx": [
    {
      "txid": "d393f3e28607f09ecdd83128839bb556c0caf6da18f788430b7cce3455fbab96",
      "hash": "806625634216856ba8ff2f46629bcd914e374aa3bd0fd3788188613547de4b41",
      "version": 1,
      "size": 277,
      "vsize": 250,
      "locktime": 949333824,
      "vin": [
        {
          "coinbase": "031cbc142cfabe6d6de4ebfc747c5370583c3c95f7e521a7d4af43e87ec5f36c08584441be93b18ee608000000f09f909f104d696e6564206279207464617a65616c00000000000000000000000000000000000000000000000000000000000000000000",
          "sequence": 1
        }
      ],
      "vout": [
        {
          "value": 25.00069514,
          "n": 0,
          "scriptPubKey": {
            "asm": "OP_DUP OP_HASH160 aa3750aa18b8a0f3f0590731e1fab934856680cf OP_EQUALVERIFY OP_CHECKSIG",
            "hex": "76a914aa3750aa18b8a0f3f0590731e1fab934856680cf88ac",
            "reqSigs": 1,
            "type": "pubkeyhash",
            "addresses": [
              "LajyQBeZaBA1NkZDeY8YT5RYYVRkXMvb2T"
            ]
          }
        }, 
        {
          "value": 0.00000000,
          "n": 1,
          "scriptPubKey": {
            "asm": "OP_RETURN aa21a9ed91981627e3e4420d4fc3fc6edd35afc452e0db530f55db1da63da840231133c0 0000000000000000",
            "hex": "6a24aa21a9ed91981627e3e4420d4fc3fc6edd35afc452e0db530f55db1da63da840231133c0080000000000000000",
            "type": "nulldata"
          }
        }
      ],
      "hex": "010000000001010000000000000000000000000000000000000000000000000000000000000000ffffffff64031cbc142cfabe6d6de4ebfc747c5370583c3c95f7e521a7d4af43e87ec5f36c08584441be93b18ee608000000f09f909f104d696e6564206279207464617a65616c0000000000000000000000000000000000000000000000000000000000000000000001000000028a080495000000001976a914aa3750aa18b8a0f3f0590731e1fab934856680cf88ac00000000000000002f6a24aa21a9ed91981627e3e4420d4fc3fc6edd35afc452e0db530f55db1da63da840231133c00800000000000000000120000000000000000000000000000000000000000000000000000000000000000040af9538"
    }, 
    {
      "txid": "ff6156cfcace9e9bfe7631522d4e24e49c02244b5060810d3debcaa008cd1fff",
      "hash": "ff6156cfcace9e9bfe7631522d4e24e49c02244b5060810d3debcaa008cd1fff",
      "version": 2,
      "size": 226,
      "vsize": 226,
      "locktime": 0,
      "vin": [
        {
          "txid": "b88757923ad61034b306b41b9fd8f827818a7eb36e245b87550fa680e6ec0729",
          "vout": 0,
          "scriptSig": {
            "asm": "3045022100b8a532716cad2252755bd5b44832af5936c4cee3c654e99face35447f9463c1502206eb36a53d670360e4e4882860a991df448d5f2af19d0b101f137e2c80662027d[ALL] 03f09799a4f0d809ea0836da93919eed82d75c1233cf06f7e13a94a00553721d1f",
            "hex": "483045022100b8a532716cad2252755bd5b44832af5936c4cee3c654e99face35447f9463c1502206eb36a53d670360e4e4882860a991df448d5f2af19d0b101f137e2c80662027d012103f09799a4f0d809ea0836da93919eed82d75c1233cf06f7e13a94a00553721d1f"
          },
          "sequence": 4294967295
        }
      ],
      "vout": [
        {
          "value": 0.00215258,
          "n": 0,
          "scriptPubKey": {
            "asm": "OP_DUP OP_HASH160 6af48c1071e6227bff09bf9e70b0c8a39558bbcf OP_EQUALVERIFY OP_CHECKSIG",
            "hex": "76a9146af48c1071e6227bff09bf9e70b0c8a39558bbcf88ac",
            "reqSigs": 1,
            "type": "pubkeyhash",
            "addresses": [
              "LUyUqykNbyyGWQMDN52ypMDBbmmGP1fnsB"
            ]
          }
        }, 
        {
          "value": 0.05100030,
          "n": 1,
          "scriptPubKey": {
            "asm": "OP_DUP OP_HASH160 d69920fe59726a272dea97e8efc7487e97403907 OP_EQUALVERIFY OP_CHECKSIG",
            "hex": "76a914d69920fe59726a272dea97e8efc7487e9740390788ac",
            "reqSigs": 1,
            "type": "pubkeyhash",
            "addresses": [
              "LeneJr1scZNoMjMjsjPRpPbs6Z63yptLvy"
            ]
          }
        }
      ],
      "hex": "02000000012907ece680a60f55875b246eb37e8a8127f8d89f1bb406b33410d63a925787b8000000006b483045022100b8a532716cad2252755bd5b44832af5936c4cee3c654e99face35447f9463c1502206eb36a53d670360e4e4882860a991df448d5f2af19d0b101f137e2c80662027d012103f09799a4f0d809ea0836da93919eed82d75c1233cf06f7e13a94a00553721d1fffffffff02da480300000000001976a9146af48c1071e6227bff09bf9e70b0c8a39558bbcf88acfed14d00000000001976a914d69920fe59726a272dea97e8efc7487e9740390788ac00000000"
    }, 
    {
      "txid": "9beca26f500a4d02008c411623a7b9e92670a0ec23259c7fd211943eeb82b7f6",
      "hash": "9beca26f500a4d02008c411623a7b9e92670a0ec23259c7fd211943eeb82b7f6",
      "version": 2,
      "size": 326,
      "vsize": 326,
      "locktime": 1358873,
      "vin": [
        {
          "txid": "19bb4d8e54f64db55a5b9849d67e187148f39a98e8ca3ad49653a074623d1a1e",
          "vout": 21,
          "scriptSig": {
            "asm": "3045022100adb9027e7956e1206f3e71a0d9b26e989859cac14f7847a68719279782193f3902207f3e6a0987145da715ab26e30ab506091d7177b9fb674e58d73d691047e27a42[ALL] 0312fec37347cc1ab6e26f61da54b34c716338a4557db0142c403b0898ad5398ec",
            "hex": "483045022100adb9027e7956e1206f3e71a0d9b26e989859cac14f7847a68719279782193f3902207f3e6a0987145da715ab26e30ab506091d7177b9fb674e58d73d691047e27a4201210312fec37347cc1ab6e26f61da54b34c716338a4557db0142c403b0898ad5398ec"
          },
          "sequence": 4294967294
        }
      ],
      "vout": [
        {
          "value": 0.90000000,
          "n": 0,
          "scriptPubKey": {
            "asm": "OP_DUP OP_HASH160 a45577df6b66af3d93c4cbc0ecd91c12f142432e OP_EQUALVERIFY OP_CHECKSIG",
            "hex": "76a914a45577df6b66af3d93c4cbc0ecd91c12f142432e88ac",
            "reqSigs": 1,
            "type": "pubkeyhash",
            "addresses": [
              "LaCsU7RQH6GEnqg9AKZNHEMkrwKyCEeWc9"
            ]
          }
        }, 
        {
          "value": 5.30481403,
          "n": 1,
          "scriptPubKey": {
            "asm": "OP_HASH160 48e5dd0c8df88f61d58ab799a53901ed8f767553 OP_EQUAL",
            "hex": "a91448e5dd0c8df88f61d58ab799a53901ed8f76755387",
            "reqSigs": 1,
            "type": "scripthash",
            "addresses": [
              "MEYcFSFAsCTWRRHnwwNDomZAMrVCUrvomx"
            ]
          }
        }, 
        {
          "value": 0.52438491,
          "n": 2,
          "scriptPubKey": {
            "asm": "OP_DUP OP_HASH160 aad63a95c5a613294ce6c7027666e5d7cfd35d7b OP_EQUALVERIFY OP_CHECKSIG",
            "hex": "76a914aad63a95c5a613294ce6c7027666e5d7cfd35d7b88ac",
            "reqSigs": 1,
            "type": "pubkeyhash",
            "addresses": [
              "LaoFmhsVegarpGcngAL6yTZfZitK3tu2sP"
            ]
          }
        }, 
        {
          "value": 0.90000000,
          "n": 3,
          "scriptPubKey": {
            "asm": "OP_DUP OP_HASH160 cdf738cc29c0ff1101adb42c9867d9325a7683df OP_EQUALVERIFY OP_CHECKSIG",
            "hex": "76a914cdf738cc29c0ff1101adb42c9867d9325a7683df88ac",
            "reqSigs": 1,
            "type": "pubkeyhash",
            "addresses": [
              "LdzzwpCXKojGunjeEhRXrBCoGuuJmzUkuX"
            ]
          }
        }, 
        {
          "value": 4.06875506,
          "n": 4,
          "scriptPubKey": {
            "asm": "OP_DUP OP_HASH160 be66bb272caa7cf8b6eeafdd2af7c9bae7eca70e OP_EQUALVERIFY OP_CHECKSIG",
            "hex": "76a914be66bb272caa7cf8b6eeafdd2af7c9bae7eca70e88ac",
            "reqSigs": 1,
            "type": "pubkeyhash",
            "addresses": [
              "LcahiYJFrppC4Jt6Y9LqKYK8iwNHiS5WgY"
            ]
          }
        }
      ],
      "hex": "02000000011e1a3d6274a05396d43acae8989af34871187ed649985b5ab54df6548e4dbb19150000006b483045022100adb9027e7956e1206f3e71a0d9b26e989859cac14f7847a68719279782193f3902207f3e6a0987145da715ab26e30ab506091d7177b9fb674e58d73d691047e27a4201210312fec37347cc1ab6e26f61da54b34c716338a4557db0142c403b0898ad5398ecfeffffff05804a5d05000000001976a914a45577df6b66af3d93c4cbc0ecd91c12f142432e88acfb809e1f0000000017a91448e5dd0c8df88f61d58ab799a53901ed8f76755387db252003000000001976a914aad63a95c5a613294ce6c7027666e5d7cfd35d7b88ac804a5d05000000001976a914cdf738cc29c0ff1101adb42c9867d9325a7683df88ac726d4018000000001976a914be66bb272caa7cf8b6eeafdd2af7c9bae7eca70e88ac19bc1400"
    }
  ],
  "time": 1517204427,
  "mediantime": 1517204189,
  "nonce": 2910162301,
  "bits": "1a042eae",
  "difficulty": 4011378.762614286,
  "chainwork": "0000000000000000000000000000000000000000000000337ae26d9bbddf38ba",
  "previousblockhash": "f50e3fdee29d689512163793b83e37d9649a6819a179e50c9db730865481b105",
  "nextblockhash": "3ed0785e4f40da3d77d8bd23569d390ac67ee33bd2f00d2659ec0f84c569443a"
}
