{
  "hash": "bc4c55ae1883a00f52e99b603bfe58557dc7053f368cbb3ddc850a25423e8d1d",
  "confirmations": 265,
  "strippedsize": 256,
  "size": 256,
  "weight": 1024,
  "height": 1360729,
  "version": 536870912,
  "versionHex": "20000000",
  "merkleroot": "a996e238d7b85be04d2bba8be93d67d7ff0443eb4c83bf9f1ee865b0a128697a",
  "tx": [
    {
      "txid": "a996e238d7b85be04d2bba8be93d67d7ff0443eb4c83bf9f1ee865b0a128697a",
      "hash": "a996e238d7b85be04d2bba8be93d67d7ff0443eb4c83bf9f1ee865b0a128697a",
      "version": 1,
      "size": 175,
      "vsize": 175,
      "locktime": 0,
      "vin": [
        {
          "coinbase": "0359c3141d4d696e656420627920416e74506f6f6c20626a312045205a72cbf101e6fabe6d6d17ff2a0a84d179bffde43bd7e2d602ec6e66ef2869d3a92d065ab6ffdb90c5220400000000000000ff1100000000000002000000",
          "sequence": 4294967295
        }
      ],
      "vout": [
        {
          "value": 25.00000000,
          "n": 0,
          "scriptPubKey": {
            "asm": "OP_DUP OP_HASH160 0ff3ccc5e8be88afe24b5d634e5852d474dbdff1 OP_EQUALVERIFY OP_CHECKSIG",
            "hex": "76a9140ff3ccc5e8be88afe24b5d634e5852d474dbdff188ac",
            "reqSigs": 1,
            "type": "pubkeyhash",
            "addresses": [
              "LLgJTbzZMsRTCUF1NtvvL9SR1a4pVieW89"
            ]
          }
        }
      ],
      "hex": "01000000010000000000000000000000000000000000000000000000000000000000000000ffffffff5a0359c3141d4d696e656420627920416e74506f6f6c20626a312045205a72cbf101e6fabe6d6d17ff2a0a84d179bffde43bd7e2d602ec6e66ef2869d3a92d065ab6ffdb90c5220400000000000000ff1100000000000002000000ffffffff0100f90295000000001976a9140ff3ccc5e8be88afe24b5d634e5852d474dbdff188ac00000000"
    }
  ],
  "time": 1517472753,
  "mediantime": 1517472012,
  "nonce": 3719825692,
  "bits": "1a042eae",
  "difficulty": 4011378.762614286,
  "chainwork": "00000000000000000000000000000000000000000000003535f00858786c2ab4",
  "previousblockhash": "8c2c869d5f3ab7fedb16796fc05f2d852f7a4dd650bad3fff75809d10ba4758f",
  "nextblockhash": "e8f49f911d1d6de802cd1dc81935a68ca7a7738c76fbf7e58f65af59294d8753"
}
