{
  "hash": "bc863fa07680346cf084d13d19d7b9eb5bf68c5dafc608227b36860311b84303",
  "confirmations": 2104,
  "strippedsize": 5300,
  "size": 5336,
  "weight": 21236,
  "height": 1358890,
  "version": 536870912,
  "versionHex": "20000000",
  "merkleroot": "924c0c586eeb4813e39c6c2b383701b656ab4b1176e2e088764748c2a85b66c3",
  "tx": [
    {
      "txid": "b6e086a785a22506ffdfb2c8a15ef8cd26d384175457e5fba302978c44d73f3f",
      "hash": "905f6c85ec23a9a4f23a7d7ebff9792da3c379e978bbda1f024722bbd9aaddef",
      "version": 1,
      "size": 244,
      "vsize": 217,
      "locktime": 0,
      "vin": [
        {
          "coinbase": "032abc14044fbb6e5a0801f9d6d401000000fabe6d6d437829862b57ee82b0554a92f51f91fd56685fcd2bddb000c5807d7d3fd101dc40000000000000000d2f6e6f64655374726174756d2f",
          "sequence": 0
        }
      ],
      "vout": [
        {
          "value": 25.01621900,
          "n": 0,
          "scriptPubKey": {
            "asm": "OP_DUP OP_HASH160 0c617fdb2ea42aed30a509595ee21ba3f6688db0 OP_EQUALVERIFY OP_CHECKSIG",
            "hex": "76a9140c617fdb2ea42aed30a509595ee21ba3f6688db088ac",
            "reqSigs": 1,
            "type": "pubkeyhash",
            "addresses": [
              "LLMRAtr3qBje2ySEa3CnZ55LA4TQMWnRY3"
            ]
          }
        }, 
        {
          "value": 0.00000000,
          "n": 1,
          "scriptPubKey": {
            "asm": "OP_RETURN aa21a9ed7b74329eed9bca7e86d7d236865bdbf17952c7851ae6bd539034c7e787383f12",
            "hex": "6a24aa21a9ed7b74329eed9bca7e86d7d236865bdbf17952c7851ae6bd539034c7e787383f12",
            "type": "nulldata"
          }
        }
      ],
      "hex": "010000000001010000000000000000000000000000000000000000000000000000000000000000ffffffff4c032abc14044fbb6e5a0801f9d6d401000000fabe6d6d437829862b57ee82b0554a92f51f91fd56685fcd2bddb000c5807d7d3fd101dc40000000000000000d2f6e6f64655374726174756d2f00000000028cb81b95000000001976a9140c617fdb2ea42aed30a509595ee21ba3f6688db088ac0000000000000000266a24aa21a9ed7b74329eed9bca7e86d7d236865bdbf17952c7851ae6bd539034c7e787383f120120000000000000000000000000000000000000000000000000000000000000000000000000"
    }, 
    {
      "txid": "fe930e0f6f1380e143c2cb83af15d43b1e09866f4f6e52e56780071e81797202",
      "hash": "fe930e0f6f1380e143c2cb83af15d43b1e09866f4f6e52e56780071e81797202",
      "version": 1,
      "size": 225,
      "vsize": 225,
      "locktime": 0,
      "vin": [
        {
          "txid": "6f740d356a0a815b83cd366d6e12e8b7d478d1ab5d08a4e2f47218f7988f6a77",
          "vout": 1,
          "scriptSig": {
            "asm": "304402206f10d2831bf1ab3e222bd0f6d1905538019d4044d460b27502b1569cfd4d3cd00220015e8dd9854f1e9ed933a35d9220a1a73f9efb2480c5d88f279b8c3461e6b0c3[ALL] 03045557468cb480ae3fdf7b18f7869def61be4e141fdfcba7f53ba667d2007c9a",
            "hex": "47304402206f10d2831bf1ab3e222bd0f6d1905538019d4044d460b27502b1569cfd4d3cd00220015e8dd9854f1e9ed933a35d9220a1a73f9efb2480c5d88f279b8c3461e6b0c3012103045557468cb480ae3fdf7b18f7869def61be4e141fdfcba7f53ba667d2007c9a"
          },
          "sequence": 4294967295
        }
      ],
      "vout": [
        {
          "value": 0.17830502,
          "n": 0,
          "scriptPubKey": {
            "asm": "OP_DUP OP_HASH160 c96f18a75f73e980295e2365a89b2adcbebfb6e5 OP_EQUALVERIFY OP_CHECKSIG",
            "hex": "76a914c96f18a75f73e980295e2365a89b2adcbebfb6e588ac",
            "reqSigs": 1,
            "type": "pubkeyhash",
            "addresses": [
              "Ldb3AsqzHwrFHpnDuwnFo1t4ni3v257csG"
            ]
          }
        }, 
        {
          "value": 843.19446771,
          "n": 1,
          "scriptPubKey": {
            "asm": "OP_DUP OP_HASH160 8c184560f54552e065fe1a43a555ab79bb9fd40b OP_EQUALVERIFY OP_CHECKSIG",
            "hex": "76a9148c184560f54552e065fe1a43a555ab79bb9fd40b88ac",
            "reqSigs": 1,
            "type": "pubkeyhash",
            "addresses": [
              "LXzhwSyYhTxZt4piVs7KvYPAWKDdXvMTNo"
            ]
          }
        }
      ],
      "hex": "0100000001776a8f98f71872f4e2a4085dabd178d4b7e8126e6d36cd835b810a6a350d746f010000006a47304402206f10d2831bf1ab3e222bd0f6d1905538019d4044d460b27502b1569cfd4d3cd00220015e8dd9854f1e9ed933a35d9220a1a73f9efb2480c5d88f279b8c3461e6b0c3012103045557468cb480ae3fdf7b18f7869def61be4e141fdfcba7f53ba667d2007c9affffffff0266121001000000001976a914c96f18a75f73e980295e2365a89b2adcbebfb6e588acf3a6d4a1130000001976a9148c184560f54552e065fe1a43a555ab79bb9fd40b88ac00000000"
    }, 
    {
      "txid": "7b491d575a2e3aa811c5b5d1d6eff8839a4e0f07e9f0e5a793d0d42b846db20a",
      "hash": "7b491d575a2e3aa811c5b5d1d6eff8839a4e0f07e9f0e5a793d0d42b846db20a",
      "version": 1,
      "size": 225,
      "vsize": 225,
      "locktime": 0,
      "vin": [
        {
          "txid": "d45d47a3dea33b6108c887106052c55e7eb9d6897292e2edfa7e5e3a8aa32c63",
          "vout": 1249,
          "scriptSig": {
            "asm": "304402200599adc2dab4da213d42f7dbf4f0eb94b62432e62f1945350ac23c6d771518a102200c0cf8c7b0f9df0964cffa1efc956ed885058d4d1b32259a614fe795d121ffdd[ALL] 025b09e380473609062290395170d3bd28707925999dcf31fe69140a9f1b5510d7",
            "hex": "47304402200599adc2dab4da213d42f7dbf4f0eb94b62432e62f1945350ac23c6d771518a102200c0cf8c7b0f9df0964cffa1efc956ed885058d4d1b32259a614fe795d121ffdd0121025b09e380473609062290395170d3bd28707925999dcf31fe69140a9f1b5510d7"
          },
          "sequence": 4294967295
        }
      ],
      "vout": [
        {
          "value": 0.01025756,
          "n": 0,
          "scriptPubKey": {
            "asm": "OP_DUP OP_HASH160 9114b126011ed3e3fb9e2854408927669afa01e7 OP_EQUALVERIFY OP_CHECKSIG",
            "hex": "76a9149114b126011ed3e3fb9e2854408927669afa01e788ac",
            "reqSigs": 1,
            "type": "pubkeyhash",
            "addresses": [
              "LYT52jTUtGQzRy3kY6xVV4PeeESXniQVo5"
            ]
          }
        }, 
        {
          "value": 0.35728234,
          "n": 1,
          "scriptPubKey": {
            "asm": "OP_DUP OP_HASH160 ba882a3d0510b0391f90529171a478adf1a30a7e OP_EQUALVERIFY OP_CHECKSIG",
            "hex": "76a914ba882a3d0510b0391f90529171a478adf1a30a7e88ac",
            "reqSigs": 1,
            "type": "pubkeyhash",
            "addresses": [
              "LcEF4oXqVLsVLdQeXMqo1kuJN9C4LE8mpg"
            ]
          }
        }
      ],
      "hex": "0100000001632ca38a3a5e7efaede2927289d6b97e5ec552601087c808613ba3dea3475dd4e10400006a47304402200599adc2dab4da213d42f7dbf4f0eb94b62432e62f1945350ac23c6d771518a102200c0cf8c7b0f9df0964cffa1efc956ed885058d4d1b32259a614fe795d121ffdd0121025b09e380473609062290395170d3bd28707925999dcf31fe69140a9f1b5510d7ffffffff02dca60f00000000001976a9149114b126011ed3e3fb9e2854408927669afa01e788ac6a2b2102000000001976a914ba882a3d0510b0391f90529171a478adf1a30a7e88ac00000000"
    }, 
    {
      "txid": "ccbfff52c398fdf297741d23aa24ea0856eff2d481c96974bee6b4adf4bd06af",
      "hash": "ccbfff52c398fdf297741d23aa24ea0856eff2d481c96974bee6b4adf4bd06af",
      "version": 1,
      "size": 226,
      "vsize": 226,
      "locktime": 0,
      "vin": [
        {
          "txid": "575b95abd6b7ed444376d589caf4bcba6df78931ef1449d42e5704d65341c41b",
          "vout": 0,
          "scriptSig": {
            "asm": "3045022100ea0e05e7b42e9c96330204000462363bd1dc4dc95d8a103426875cc650381893022067717aec49153af1bd6edb865ab8caf24ba4fcd4bbd1d9d03b74067d494d2ad8[ALL] 033fee06a75d59813854b7f75919b97237ef562416ce7581e4ff2d87dcf7280330",
            "hex": "483045022100ea0e05e7b42e9c96330204000462363bd1dc4dc95d8a103426875cc650381893022067717aec49153af1bd6edb865ab8caf24ba4fcd4bbd1d9d03b74067d494d2ad80121033fee06a75d59813854b7f75919b97237ef562416ce7581e4ff2d87dcf7280330"
          },
          "sequence": 4294967295
        }
      ],
      "vout": [
        {
          "value": 0.01129500,
          "n": 0,
          "scriptPubKey": {
            "asm": "OP_DUP OP_HASH160 457e930dae6e8c16552935e28d473a17f350b43b OP_EQUALVERIFY OP_CHECKSIG",
            "hex": "76a914457e930dae6e8c16552935e28d473a17f350b43b88ac",
            "reqSigs": 1,
            "type": "pubkeyhash",
            "addresses": [
              "LRZQWzeUMqR9CzcNjo7VrF3pGGhjfY1mxp"
            ]
          }
        }, 
        {
          "value": 0.87400000,
          "n": 1,
          "scriptPubKey": {
            "asm": "OP_DUP OP_HASH160 d1e41e3472f98489fd2137385d1a4c16215f1a79 OP_EQUALVERIFY OP_CHECKSIG",
            "hex": "76a914d1e41e3472f98489fd2137385d1a4c16215f1a7988ac",
            "reqSigs": 1,
            "type": "pubkeyhash",
            "addresses": [
              "LeMkmDnUbXieUxs6g7VztzB1XdSzdRyjjK"
            ]
          }
        }
      ],
      "hex": "01000000011bc44153d604572ed44914ef3189f76dbabcf4ca89d5764344edb7d6ab955b57000000006b483045022100ea0e05e7b42e9c96330204000462363bd1dc4dc95d8a103426875cc650381893022067717aec49153af1bd6edb865ab8caf24ba4fcd4bbd1d9d03b74067d494d2ad80121033fee06a75d59813854b7f75919b97237ef562416ce7581e4ff2d87dcf7280330ffffffff021c3c1100000000001976a914457e930dae6e8c16552935e28d473a17f350b43b88ac409e3505000000001976a914d1e41e3472f98489fd2137385d1a4c16215f1a7988ac00000000"
    }, 
    {
      "txid": "0928965e849cfca0399dd862853bae38085a8e209f864a52cb2841f4bdd3f88b",
      "hash": "0928965e849cfca0399dd862853bae38085a8e209f864a52cb2841f4bdd3f88b",
      "version": 1,
      "size": 520,
      "vsize": 520,
      "locktime": 0,
      "vin": [
        {
          "txid": "3f19bef7b86bc77ec42a1188f9b8ba2d746b2ad539bd57e09408c1a0f54feaed",
          "vout": 1,
          "scriptSig": {
            "asm": "304402204c2ac45020e803e6d104fbf763924d564d7802ca6748cbd43f2ffdadce9fd449022010fd8b21ea7bd768dc5e2b375ee9aae07a90cdd9c65357b707f62a0c4c056cae[ALL] 0341ccc6e4025b086f59bfd94629b01fc8888b4f7eb81018b207df71861b0411d2",
            "hex": "47304402204c2ac45020e803e6d104fbf763924d564d7802ca6748cbd43f2ffdadce9fd449022010fd8b21ea7bd768dc5e2b375ee9aae07a90cdd9c65357b707f62a0c4c056cae01210341ccc6e4025b086f59bfd94629b01fc8888b4f7eb81018b207df71861b0411d2"
          },
          "sequence": 4294967295
        }, 
        {
          "txid": "eea8eba143064cbdc043fd1b6040e455ae5e0a16fbe62a956a0d6dd09e0e2b34",
          "vout": 249,
          "scriptSig": {
            "asm": "3044022073665d22ba97aa77836363611d50fc43d1ae01db35043794ea39a5c8113d126d02204e84405bb110c2ad3f35c0dadc417dfdcf364546bc93b0c1e43032ae2d18b2b1[ALL] 029952a8067ea3b17ab37de1d817d5d104efbeefdb00ef7689076fc7e2f029590a",
            "hex": "473044022073665d22ba97aa77836363611d50fc43d1ae01db35043794ea39a5c8113d126d02204e84405bb110c2ad3f35c0dadc417dfdcf364546bc93b0c1e43032ae2d18b2b10121029952a8067ea3b17ab37de1d817d5d104efbeefdb00ef7689076fc7e2f029590a"
          },
          "sequence": 4294967295
        }, 
        {
          "txid": "3dec29673c4b32ebc496e8c0be0dc8b1633c91d1c6366f647c21fb707a58fc7d",
          "vout": 11,
          "scriptSig": {
            "asm": "30450221009662aba8a0882357dcbc5585a016aca9972c87fb6b39f073375b019e4ec3c320022046b56b9866445bfb41be7be4a1f513dc0af058dc1f8664b7c2b8ad3c389e4618[ALL] 0339e27d6fe72054713cd7527f94806922b24dc6464e4e3a17008789262d890130",
            "hex": "4830450221009662aba8a0882357dcbc5585a016aca9972c87fb6b39f073375b019e4ec3c320022046b56b9866445bfb41be7be4a1f513dc0af058dc1f8664b7c2b8ad3c389e461801210339e27d6fe72054713cd7527f94806922b24dc6464e4e3a17008789262d890130"
          },
          "sequence": 4294967295
        }
      ],
      "vout": [
        {
          "value": 0.01000044,
          "n": 0,
          "scriptPubKey": {
            "asm": "OP_DUP OP_HASH160 7445aa667903579e6e3299ad0704946ee84c893e OP_EQUALVERIFY OP_CHECKSIG",
            "hex": "76a9147445aa667903579e6e3299ad0704946ee84c893e88ac",
            "reqSigs": 1,
            "type": "pubkeyhash",
            "addresses": [
              "LVpk6vC5Vw82NvLFC89T1vfKBFfa3cVpwY"
            ]
          }
        }, 
        {
          "value": 44.93807950,
          "n": 1,
          "scriptPubKey": {
            "asm": "OP_DUP OP_HASH160 80a148aa5c1931d4054ea02a05b737f0063e99f2 OP_EQUALVERIFY OP_CHECKSIG",
            "hex": "76a91480a148aa5c1931d4054ea02a05b737f0063e99f288ac",
            "reqSigs": 1,
            "type": "pubkeyhash",
            "addresses": [
              "LWx5xxxd3U8VNh3FVVhbKuwN85oYUFc3Yw"
            ]
          }
        }
      ],
      "hex": "0100000003edea4ff5a0c10894e057bd39d52a6b742dbab8f988112ac47ec76bb8f7be193f010000006a47304402204c2ac45020e803e6d104fbf763924d564d7802ca6748cbd43f2ffdadce9fd449022010fd8b21ea7bd768dc5e2b375ee9aae07a90cdd9c65357b707f62a0c4c056cae01210341ccc6e4025b086f59bfd94629b01fc8888b4f7eb81018b207df71861b0411d2ffffffff342b0e9ed06d0d6a952ae6fb160a5eae55e440601bfd43c0bd4c0643a1eba8eef90000006a473044022073665d22ba97aa77836363611d50fc43d1ae01db35043794ea39a5c8113d126d02204e84405bb110c2ad3f35c0dadc417dfdcf364546bc93b0c1e43032ae2d18b2b10121029952a8067ea3b17ab37de1d817d5d104efbeefdb00ef7689076fc7e2f029590affffffff7dfc587a70fb217c646f36c6d1913c63b1c80dbec0e896c4eb324b3c6729ec3d0b0000006b4830450221009662aba8a0882357dcbc5585a016aca9972c87fb6b39f073375b019e4ec3c320022046b56b9866445bfb41be7be4a1f513dc0af058dc1f8664b7c2b8ad3c389e461801210339e27d6fe72054713cd7527f94806922b24dc6464e4e3a17008789262d890130ffffffff026c420f00000000001976a9147445aa667903579e6e3299ad0704946ee84c893e88ac4e11da0b010000001976a91480a148aa5c1931d4054ea02a05b737f0063e99f288ac00000000"
    }, 
    {
      "txid": "0d3ca382e3ca2b2e37dc89c76b470b72746b9426dfe51959c66433c0e08ee09d",
      "hash": "0d3ca382e3ca2b2e37dc89c76b470b72746b9426dfe51959c66433c0e08ee09d",
      "version": 1,
      "size": 192,
      "vsize": 192,
      "locktime": 0,
      "vin": [
        {
          "txid": "e0921263bcf4046a7a0c47384139c089d90ec13444e09048304275761fc3d924",
          "vout": 0,
          "scriptSig": {
            "asm": "304502210096c0301b57c2841647de527aede3eeda4296d38a24174b3d34479e0f1d9aaa44022002aa4405aa1660a67e678acc3e3e6c28e37263ce0f16a14a479411f20c6a0cd5[ALL] 0375e1d05aedfb4c7d52f9a3af096247cdc1b766f3ccb88231eb61ea45447d5c91",
            "hex": "48304502210096c0301b57c2841647de527aede3eeda4296d38a24174b3d34479e0f1d9aaa44022002aa4405aa1660a67e678acc3e3e6c28e37263ce0f16a14a479411f20c6a0cd501210375e1d05aedfb4c7d52f9a3af096247cdc1b766f3ccb88231eb61ea45447d5c91"
          },
          "sequence": 4294967295
        }
      ],
      "vout": [
        {
          "value": 0.08892087,
          "n": 0,
          "scriptPubKey": {
            "asm": "OP_DUP OP_HASH160 770f127cc927c908802bf819b6fd7ef2cd27ea51 OP_EQUALVERIFY OP_CHECKSIG",
            "hex": "76a914770f127cc927c908802bf819b6fd7ef2cd27ea5188ac",
            "reqSigs": 1,
            "type": "pubkeyhash",
            "addresses": [
              "LW5UjH1QiutESnN66oBFZjBExTy21WorgP"
            ]
          }
        }
      ],
      "hex": "010000000124d9c31f767542304890e04434c10ed989c0394138470c7a6a04f4bc631292e0000000006b48304502210096c0301b57c2841647de527aede3eeda4296d38a24174b3d34479e0f1d9aaa44022002aa4405aa1660a67e678acc3e3e6c28e37263ce0f16a14a479411f20c6a0cd501210375e1d05aedfb4c7d52f9a3af096247cdc1b766f3ccb88231eb61ea45447d5c91ffffffff01b7ae8700000000001976a914770f127cc927c908802bf819b6fd7ef2cd27ea5188ac00000000"
    }, 
    {
      "txid": "7f2c3dfcb15a59ff1c0791206528257ce0ccc8013742b7631b11fe0e6f9e5cc1",
      "hash": "7f2c3dfcb15a59ff1c0791206528257ce0ccc8013742b7631b11fe0e6f9e5cc1",
      "version": 2,
      "size": 519,
      "vsize": 519,
      "locktime": 1358884,
      "vin": [
        {
          "txid": "6414482d3888df2739a5359cb36263e987935baa928de3bad9bf213a637b77b1",
          "vout": 0,
          "scriptSig": {
            "asm": "3044022035487ae42c45ca8e2f23659969a7931e654ca28128f0b39434b8db2935137e6902204eab2339b3f96c70f9b0d180f40661e813e10fc66285e7226929df41fae56300[ALL] 025001f257be21b668af6fc030530c447687b4015654e344d2fddccfe6ecb26281",
            "hex": "473044022035487ae42c45ca8e2f23659969a7931e654ca28128f0b39434b8db2935137e6902204eab2339b3f96c70f9b0d180f40661e813e10fc66285e7226929df41fae563000121025001f257be21b668af6fc030530c447687b4015654e344d2fddccfe6ecb26281"
          },
          "sequence": 4294967294
        }, 
        {
          "txid": "76d4e9270e866b760b2f72df1e8cac2b7741b2930e8aec0a9af89b51c8cab005",
          "vout": 1,
          "scriptSig": {
            "asm": "304402200294525cadfcc7212d2c4f8b5f59d788e46a5932354607e23e31ec42616fd97d022036c64281c169772f313b37c3fef5f91474746be862aa7c0a8d057dca7a01edc0[ALL] 02c55c6d9c4533b5af5c306e4e77fe5380a73cb1083ab5db0d6cfae4ebf9735856",
            "hex": "47304402200294525cadfcc7212d2c4f8b5f59d788e46a5932354607e23e31ec42616fd97d022036c64281c169772f313b37c3fef5f91474746be862aa7c0a8d057dca7a01edc0012102c55c6d9c4533b5af5c306e4e77fe5380a73cb1083ab5db0d6cfae4ebf9735856"
          },
          "sequence": 4294967294
        }, 
        {
          "txid": "dbac436b8dbaaa525b1e1d618b98277d2cca8235cf228521bec68ad606cb61ff",
          "vout": 0,
          "scriptSig": {
            "asm": "304402200b06546f8b0d9e0b915e8c164f27f783b5a69721cbfb9818a0bc6848e2f7624c022054e429b1cfbbec26f6aa7ec0059642c4167678f772c27a75a8d7fb1a1b8a761d[ALL] 028525ce1f35c11d60a1be7ddcbc37c84fe64bcf59405a444d12834d9a43c55cc7",
            "hex": "47304402200b06546f8b0d9e0b915e8c164f27f783b5a69721cbfb9818a0bc6848e2f7624c022054e429b1cfbbec26f6aa7ec0059642c4167678f772c27a75a8d7fb1a1b8a761d0121028525ce1f35c11d60a1be7ddcbc37c84fe64bcf59405a444d12834d9a43c55cc7"
          },
          "sequence": 4294967294
        }
      ],
      "vout": [
        {
          "value": 0.01367180,
          "n": 0,
          "scriptPubKey": {
            "asm": "OP_DUP OP_HASH160 6c881a8fe3249ba16d6e4079801e2e7436969e3b OP_EQUALVERIFY OP_CHECKSIG",
            "hex": "76a9146c881a8fe3249ba16d6e4079801e2e7436969e3b88ac",
            "reqSigs": 1,
            "type": "pubkeyhash",
            "addresses": [
              "LV7pHavC2qDUJMiPR4AY1348Jiwn5nvsrQ"
            ]
          }
        }, 
        {
          "value": 0.15998400,
          "n": 1,
          "scriptPubKey": {
            "asm": "OP_DUP OP_HASH160 c626267a17d8c262940faed10cba01de1efadb5d OP_EQUALVERIFY OP_CHECKSIG",
            "hex": "76a914c626267a17d8c262940faed10cba01de1efadb5d88ac",
            "reqSigs": 1,
            "type": "pubkeyhash",
            "addresses": [
              "LdHfkvbEJJvFqyDyDKSHdzfW64K6zMJmZG"
            ]
          }
        }
      ],
      "hex": "0200000003b1777b633a21bfd9bae38d92aa5b9387e96362b39c35a53927df88382d481464000000006a473044022035487ae42c45ca8e2f23659969a7931e654ca28128f0b39434b8db2935137e6902204eab2339b3f96c70f9b0d180f40661e813e10fc66285e7226929df41fae563000121025001f257be21b668af6fc030530c447687b4015654e344d2fddccfe6ecb26281feffffff05b0cac8519bf89a0aec8a0e93b241772bac8c1edf722f0b766b860e27e9d476010000006a47304402200294525cadfcc7212d2c4f8b5f59d788e46a5932354607e23e31ec42616fd97d022036c64281c169772f313b37c3fef5f91474746be862aa7c0a8d057dca7a01edc0012102c55c6d9c4533b5af5c306e4e77fe5380a73cb1083ab5db0d6cfae4ebf9735856feffffffff61cb06d68ac6be218522cf3582ca2c7d27988b611d1e5b52aaba8d6b43acdb000000006a47304402200b06546f8b0d9e0b915e8c164f27f783b5a69721cbfb9818a0bc6848e2f7624c022054e429b1cfbbec26f6aa7ec0059642c4167678f772c27a75a8d7fb1a1b8a761d0121028525ce1f35c11d60a1be7ddcbc37c84fe64bcf59405a444d12834d9a43c55cc7feffffff028cdc1400000000001976a9146c881a8fe3249ba16d6e4079801e2e7436969e3b88acc01df400000000001976a914c626267a17d8c262940faed10cba01de1efadb5d88ac24bc1400"
    }, 
    {
      "txid": "3a4e5bc894ed18cd807101137b2c1d0525a3eb931e646c371adb91838fc2cd0d",
      "hash": "3a4e5bc894ed18cd807101137b2c1d0525a3eb931e646c371adb91838fc2cd0d",
      "version": 1,
      "size": 225,
      "vsize": 225,
      "locktime": 0,
      "vin": [
        {
          "txid": "277e4679203a11e2634349d4cf251f6e5aac89829274f70ff915920c8cae5617",
          "vout": 0,
          "scriptSig": {
            "asm": "304402207bac704ba9b16b061c286c30c30eac9f972c6912ccf17a75e4113c6e4cc1ff7a0220446fab25c1cc9e4b74d23626a54fea9b9fbd199631c102abf6d4363595919a96[ALL] 03f734b16845fbb323fe25aaaa77d5340f458a4253c3dc7f56faaca7da1adc7577",
            "hex": "47304402207bac704ba9b16b061c286c30c30eac9f972c6912ccf17a75e4113c6e4cc1ff7a0220446fab25c1cc9e4b74d23626a54fea9b9fbd199631c102abf6d4363595919a96012103f734b16845fbb323fe25aaaa77d5340f458a4253c3dc7f56faaca7da1adc7577"
          },
          "sequence": 4294967295
        }
      ],
      "vout": [
        {
          "value": 0.00055963,
          "n": 0,
          "scriptPubKey": {
            "asm": "OP_DUP OP_HASH160 0a7a97c5e25a60d681f07172f4297adb39d82d81 OP_EQUALVERIFY OP_CHECKSIG",
            "hex": "76a9140a7a97c5e25a60d681f07172f4297adb39d82d8188ac",
            "reqSigs": 1,
            "type": "pubkeyhash",
            "addresses": [
              "LLBMt2rY18x5ttAsFyPqGnwXuwmQ4vQM9r"
            ]
          }
        }, 
        {
          "value": 0.02163229,
          "n": 1,
          "scriptPubKey": {
            "asm": "OP_DUP OP_HASH160 acab93ea2fa4b6723c131028bf2b2833441b4c95 OP_EQUALVERIFY OP_CHECKSIG",
            "hex": "76a914acab93ea2fa4b6723c131028bf2b2833441b4c9588ac",
            "reqSigs": 1,
            "type": "pubkeyhash",
            "addresses": [
              "Laxx2eBQRwJVGkJh8fKXrUTKzaJ9R4q7et"
            ]
          }
        }
      ],
      "hex": "01000000011756ae8c0c9215f90ff774928289ac5a6e1f25cfd4494363e2113a2079467e27000000006a47304402207bac704ba9b16b061c286c30c30eac9f972c6912ccf17a75e4113c6e4cc1ff7a0220446fab25c1cc9e4b74d23626a54fea9b9fbd199631c102abf6d4363595919a96012103f734b16845fbb323fe25aaaa77d5340f458a4253c3dc7f56faaca7da1adc7577ffffffff029bda0000000000001976a9140a7a97c5e25a60d681f07172f4297adb39d82d8188ac1d022100000000001976a914acab93ea2fa4b6723c131028bf2b2833441b4c9588ac00000000"
    }, 
    {
      "txid": "bd754c88eb81a5b3948d4f989b82b9a2c20ae5b4c08eadc4745d6d6aee4e6527",
      "hash": "bd754c88eb81a5b3948d4f989b82b9a2c20ae5b4c08eadc4745d6d6aee4e6527",
      "version": 2,
      "size": 225,
      "vsize": 225,
      "locktime": 1358794,
      "vin": [
        {
          "txid": "9e2b9f5ac01b898840c8438d063259a12385d75f5f44f419aeb72829350c07a7",
          "vout": 10,
          "scriptSig": {
            "asm": "304402206eb96ab8187a7769774e0b0369f649aabde844bf64899d63b9cff4a1a011232b0220128a78e9a087e105a289f1528ffc35f2a0c3672f596113d23df562fd2b36eed5[ALL] 0277c78c7b0222b88651afb24a6e0426230895a7c2e0579a062a99cbb2728b111b",
            "hex": "47304402206eb96ab8187a7769774e0b0369f649aabde844bf64899d63b9cff4a1a011232b0220128a78e9a087e105a289f1528ffc35f2a0c3672f596113d23df562fd2b36eed501210277c78c7b0222b88651afb24a6e0426230895a7c2e0579a062a99cbb2728b111b"
          },
          "sequence": 4294967294
        }
      ],
      "vout": [
        {
          "value": 0.39782270,
          "n": 0,
          "scriptPubKey": {
            "asm": "OP_DUP OP_HASH160 9e646ea6aa5b93958f8d24ea6f088031ab6e52aa OP_EQUALVERIFY OP_CHECKSIG",
            "hex": "76a9149e646ea6aa5b93958f8d24ea6f088031ab6e52aa88ac",
            "reqSigs": 1,
            "type": "pubkeyhash",
            "addresses": [
              "LZfTLgA7DWWnKZkzHyMBuWoLDJx4FUFbwb"
            ]
          }
        }, 
        {
          "value": 0.16437629,
          "n": 1,
          "scriptPubKey": {
            "asm": "OP_DUP OP_HASH160 d94effe7aa564411a1915dbac94f36d3bb54b035 OP_EQUALVERIFY OP_CHECKSIG",
            "hex": "76a914d94effe7aa564411a1915dbac94f36d3bb54b03588ac",
            "reqSigs": 1,
            "type": "pubkeyhash",
            "addresses": [
              "Lf2yXq8YByeZiAggjHgyH4sHPwU9J67Aqo"
            ]
          }
        }
      ],
      "hex": "0200000001a7070c352928b7ae19f4445f5fd78523a15932068d43c84088891bc05a9f2b9e0a0000006a47304402206eb96ab8187a7769774e0b0369f649aabde844bf64899d63b9cff4a1a011232b0220128a78e9a087e105a289f1528ffc35f2a0c3672f596113d23df562fd2b36eed501210277c78c7b0222b88651afb24a6e0426230895a7c2e0579a062a99cbb2728b111bfeffffff027e075f02000000001976a9149e646ea6aa5b93958f8d24ea6f088031ab6e52aa88ac7dd1fa00000000001976a914d94effe7aa564411a1915dbac94f36d3bb54b03588accabb1400"
    }, 
    {
      "txid": "0af7ba32baa4d8be251517f3245ae4099ef9a2c5435b4d0d79bbfe8a95be5f35",
      "hash": "0af7ba32baa4d8be251517f3245ae4099ef9a2c5435b4d0d79bbfe8a95be5f35",
      "version": 2,
      "size": 225,
      "vsize": 225,
      "locktime": 1358888,
      "vin": [
        {
          "txid": "7be34978d1fc2ebe0ee58df6e6f4e52c5e146286912168687d8844b060489987",
          "vout": 0,
          "scriptSig": {
            "asm": "304402203d619c65654dc854f00d8efcce21cc8b02647aafeb31727c9f23f6ceab11355302202489ac38caa65ad714e3196978807638d49ee2d17f78bf8074aeaec02660a55a[ALL] 035ce0dabdc12294c1c72f78139591e2b70fe5c00d2ec6ce6932a856edbc3771ad",
            "hex": "47304402203d619c65654dc854f00d8efcce21cc8b02647aafeb31727c9f23f6ceab11355302202489ac38caa65ad714e3196978807638d49ee2d17f78bf8074aeaec02660a55a0121035ce0dabdc12294c1c72f78139591e2b70fe5c00d2ec6ce6932a856edbc3771ad"
          },
          "sequence": 4294967294
        }
      ],
      "vout": [
        {
          "value": 3.82000000,
          "n": 0,
          "scriptPubKey": {
            "asm": "OP_DUP OP_HASH160 249cf1a9e8c59eb3396eb444a1f53dcbdb3948c0 OP_EQUALVERIFY OP_CHECKSIG",
            "hex": "76a914249cf1a9e8c59eb3396eb444a1f53dcbdb3948c088ac",
            "reqSigs": 1,
            "type": "pubkeyhash",
            "addresses": [
              "LNZYbn9DRuDELhF52u4Yyc8m52DLheYm68"
            ]
          }
        }, 
        {
          "value": 179.17187049,
          "n": 1,
          "scriptPubKey": {
            "asm": "OP_DUP OP_HASH160 5582f6a771fe8e82430b3bb47a28e5241352022b OP_EQUALVERIFY OP_CHECKSIG",
            "hex": "76a9145582f6a771fe8e82430b3bb47a28e5241352022b88ac",
            "reqSigs": 1,
            "type": "pubkeyhash",
            "addresses": [
              "LT26b2CrsiNiBaAyQUpaiHXEb7jnyXyCcQ"
            ]
          }
        }
      ],
      "hex": "020000000187994860b044887d686821918662145e2ce5f4e6f68de50ebe2efcd17849e37b000000006a47304402203d619c65654dc854f00d8efcce21cc8b02647aafeb31727c9f23f6ceab11355302202489ac38caa65ad714e3196978807638d49ee2d17f78bf8074aeaec02660a55a0121035ce0dabdc12294c1c72f78139591e2b70fe5c00d2ec6ce6932a856edbc3771adfeffffff0280dbc416000000001976a914249cf1a9e8c59eb3396eb444a1f53dcbdb3948c088ace993f22b040000001976a9145582f6a771fe8e82430b3bb47a28e5241352022b88ac28bc1400"
    }, 
    {
      "txid": "abe86cdc5229a64c4c0e117acc9bac09ef6c4304d2c868794890869aa8947ba8",
      "hash": "abe86cdc5229a64c4c0e117acc9bac09ef6c4304d2c868794890869aa8947ba8",
      "version": 1,
      "size": 225,
      "vsize": 225,
      "locktime": 0,
      "vin": [
        {
          "txid": "bff6bd920e786ecb73c686ca941c5968189cd90f7153bb672b7d1d46c6d047d7",
          "vout": 0,
          "scriptSig": {
            "asm": "3044022047484da30a6a4c3070e19eac50f0cbfe60d5894cd1823938060a497b70dbcdd602200c0973e2bc14189d616b8056f27cc04e3faf7834e2b5d6ae26c3d42a4d378f3c[ALL] 026b5e13ebab8a7df2f458f3b5ebdd9336aaa1d5aa3002e2e212e066f80cd24729",
            "hex": "473044022047484da30a6a4c3070e19eac50f0cbfe60d5894cd1823938060a497b70dbcdd602200c0973e2bc14189d616b8056f27cc04e3faf7834e2b5d6ae26c3d42a4d378f3c0121026b5e13ebab8a7df2f458f3b5ebdd9336aaa1d5aa3002e2e212e066f80cd24729"
          },
          "sequence": 4294967295
        }
      ],
      "vout": [
        {
          "value": 1.00000000,
          "n": 0,
          "scriptPubKey": {
            "asm": "OP_DUP OP_HASH160 3ce83c9c368bdc6a60d95d58a67920d6256a271f OP_EQUALVERIFY OP_CHECKSIG",
            "hex": "76a9143ce83c9c368bdc6a60d95d58a67920d6256a271f88ac",
            "reqSigs": 1,
            "type": "pubkeyhash",
            "addresses": [
              "LQn11pGJt75kr7UKvFVJcvAQjSQpY7UWLN"
            ]
          }
        }, 
        {
          "value": 0.89200365,
          "n": 1,
          "scriptPubKey": {
            "asm": "OP_DUP OP_HASH160 9a18a3276742b74c88ce467dab80836c51de6c4a OP_EQUALVERIFY OP_CHECKSIG",
            "hex": "76a9149a18a3276742b74c88ce467dab80836c51de6c4a88ac",
            "reqSigs": 1,
            "type": "pubkeyhash",
            "addresses": [
              "LZGjqawE6XwPRSMt5ykT3MJbPyy6RFUXRX"
            ]
          }
        }
      ],
      "hex": "0100000001d747d0c6461d7d2b67bb53710fd99c1868591c94ca86c673cb6e780e92bdf6bf000000006a473044022047484da30a6a4c3070e19eac50f0cbfe60d5894cd1823938060a497b70dbcdd602200c0973e2bc14189d616b8056f27cc04e3faf7834e2b5d6ae26c3d42a4d378f3c0121026b5e13ebab8a7df2f458f3b5ebdd9336aaa1d5aa3002e2e212e066f80cd24729ffffffff0200e1f505000000001976a9143ce83c9c368bdc6a60d95d58a67920d6256a271f88aced165105000000001976a9149a18a3276742b74c88ce467dab80836c51de6c4a88ac00000000"
    }, 
    {
      "txid": "7ca95926132a666ceef38faa81eca5af419f07947bc2b708e81c4c9fc5db14c7",
      "hash": "7ca95926132a666ceef38faa81eca5af419f07947bc2b708e81c4c9fc5db14c7",
      "version": 2,
      "size": 225,
      "vsize": 225,
      "locktime": 1358888,
      "vin": [
        {
          "txid": "4fb724bfa8a1954fed20c89b9574b955c6f6824d07fadb528fb153188d05b60d",
          "vout": 1,
          "scriptSig": {
            "asm": "3044022007a271a209fa5e60457e4cafadeade7e5ec8941ce02f3136079c55d95043c1920220496f8fed658fc2731d4858ac6943c6d6adc264f84a742e0cad0318bc0fa8a7a7[ALL] 03b2231d912c9fea8cf636400fe9f50aa57996dca89800d1c230564c40df7d1756",
            "hex": "473044022007a271a209fa5e60457e4cafadeade7e5ec8941ce02f3136079c55d95043c1920220496f8fed658fc2731d4858ac6943c6d6adc264f84a742e0cad0318bc0fa8a7a7012103b2231d912c9fea8cf636400fe9f50aa57996dca89800d1c230564c40df7d1756"
          },
          "sequence": 4294967294
        }
      ],
      "vout": [
        {
          "value": 3.21185637,
          "n": 0,
          "scriptPubKey": {
            "asm": "OP_DUP OP_HASH160 7c2d9a2533011f5a1ffde14b80a55e8382114146 OP_EQUALVERIFY OP_CHECKSIG",
            "hex": "76a9147c2d9a2533011f5a1ffde14b80a55e838211414688ac",
            "reqSigs": 1,
            "type": "pubkeyhash",
            "addresses": [
              "LWYYgVTmeF3NJcGz9AWP5szySf2WNZ1tEP"
            ]
          }
        }, 
        {
          "value": 316.15477182,
          "n": 1,
          "scriptPubKey": {
            "asm": "OP_DUP OP_HASH160 35b78693464dea3d655de21243975ac05c27d93c OP_EQUALVERIFY OP_CHECKSIG",
            "hex": "76a91435b78693464dea3d655de21243975ac05c27d93c88ac",
            "reqSigs": 1,
            "type": "pubkeyhash",
            "addresses": [
              "LQ7yvy77XecGTVrr3qoe7NSSw3ef1pHsYf"
            ]
          }
        }
      ],
      "hex": "02000000010db6058d1853b18f52dbfa074d82f6c655b974959bc820ed4f95a1a8bf24b74f010000006a473044022007a271a209fa5e60457e4cafadeade7e5ec8941ce02f3136079c55d95043c1920220496f8fed658fc2731d4858ac6943c6d6adc264f84a742e0cad0318bc0fa8a7a7012103b2231d912c9fea8cf636400fe9f50aa57996dca89800d1c230564c40df7d1756feffffff0265e72413000000001976a9147c2d9a2533011f5a1ffde14b80a55e838211414688acbee56d5c070000001976a91435b78693464dea3d655de21243975ac05c27d93c88ac28bc1400"
    }, 
    {
      "txid": "55a8cf6e228f9fc4274b37a2b5f3be5e70e8f0a4919a5c10d96b00ce9701bfe3",
      "hash": "55a8cf6e228f9fc4274b37a2b5f3be5e70e8f0a4919a5c10d96b00ce9701bfe3",
      "version": 1,
      "size": 225,
      "vsize": 225,
      "locktime": 0,
      "vin": [
        {
          "txid": "b236d7370d8b344b5c744aa359726ce74488d6d691e18aa1e5af07e276e6d94c",
          "vout": 405,
          "scriptSig": {
            "asm": "3044022100ade4feae042d5835b48447e80d163c6c777789cc72d3a181e0a259d68b047358021f12304f80ddf9ae65d2d88e93910e7a74e455c968931726d3732f2bc4ad53c0[ALL] 0386d8ed0f3f5d7d3ced5e05d3dd2678b7c3ae48fae5aead70c880164e74ffa721",
            "hex": "473044022100ade4feae042d5835b48447e80d163c6c777789cc72d3a181e0a259d68b047358021f12304f80ddf9ae65d2d88e93910e7a74e455c968931726d3732f2bc4ad53c001210386d8ed0f3f5d7d3ced5e05d3dd2678b7c3ae48fae5aead70c880164e74ffa721"
          },
          "sequence": 4294967295
        }
      ],
      "vout": [
        {
          "value": 0.04904944,
          "n": 0,
          "scriptPubKey": {
            "asm": "OP_DUP OP_HASH160 089254a8d5a15df63286c8560aa656eae5af2f9a OP_EQUALVERIFY OP_CHECKSIG",
            "hex": "76a914089254a8d5a15df63286c8560aa656eae5af2f9a88ac",
            "reqSigs": 1,
            "type": "pubkeyhash",
            "addresses": [
              "LL1Gxyy8h9xHqubosSjMR1JpZyWo88W7fK"
            ]
          }
        }, 
        {
          "value": 0.00056849,
          "n": 1,
          "scriptPubKey": {
            "asm": "OP_DUP OP_HASH160 862200a7fbb70241041f92aadb0a72c7c8de6833 OP_EQUALVERIFY OP_CHECKSIG",
            "hex": "76a914862200a7fbb70241041f92aadb0a72c7c8de683388ac",
            "reqSigs": 1,
            "type": "pubkeyhash",
            "addresses": [
              "LXTBYTWHx3id76PJebzBEMhYaPwe7V5rrx"
            ]
          }
        }
      ],
      "hex": "01000000014cd9e676e207afe5a18ae191d6d68844e76c7259a34a745c4b348b0d37d736b2950100006a473044022100ade4feae042d5835b48447e80d163c6c777789cc72d3a181e0a259d68b047358021f12304f80ddf9ae65d2d88e93910e7a74e455c968931726d3732f2bc4ad53c001210386d8ed0f3f5d7d3ced5e05d3dd2678b7c3ae48fae5aead70c880164e74ffa721ffffffff02f0d74a00000000001976a914089254a8d5a15df63286c8560aa656eae5af2f9a88ac11de0000000000001976a914862200a7fbb70241041f92aadb0a72c7c8de683388ac00000000"
    }, 
    {
      "txid": "b47945f684596510e4d245ac466aa3ec89244c11f0ad3cabb6351c400eafe45c",
      "hash": "b47945f684596510e4d245ac466aa3ec89244c11f0ad3cabb6351c400eafe45c",
      "version": 1,
      "size": 372,
      "vsize": 372,
      "locktime": 1358888,
      "vin": [
        {
          "txid": "3e18c817550eb27773117373dd269b519edb1dfc6afa379e3e49f9f85dfa1519",
          "vout": 0,
          "scriptSig": {
            "asm": "30440220434400d74dad436f8e877b410742b32c025b13db597fef9afe72d3f632324188022023e42098f853c354a9eb663fe5a09ade7ea3592ea37efbae9d9b7489d5d1d40a[ALL] 0375f53ade26d5e58ab41ae5f46052e223282eda650f255325ad5c68f7b980a26b",
            "hex": "4730440220434400d74dad436f8e877b410742b32c025b13db597fef9afe72d3f632324188022023e42098f853c354a9eb663fe5a09ade7ea3592ea37efbae9d9b7489d5d1d40a01210375f53ade26d5e58ab41ae5f46052e223282eda650f255325ad5c68f7b980a26b"
          },
          "sequence": 4294967294
        }, 
        {
          "txid": "33c53dc9a940c46ea2d1b473753d6816ed1086f637b368ca8d6912e64938021a",
          "vout": 3,
          "scriptSig": {
            "asm": "304402203c1b0f093d80c77b21f75034691caaa11198546443b50459b42d8656c25e6a6402200f4015fc3abecd7164f898975b47208bce36197bdb6acd4f90d9019f687f565c[ALL] 03cf31d64aaba3ad3b47d2ad4dd89ef7c5f1c95246687e230a7a341c65fa5d6dec",
            "hex": "47304402203c1b0f093d80c77b21f75034691caaa11198546443b50459b42d8656c25e6a6402200f4015fc3abecd7164f898975b47208bce36197bdb6acd4f90d9019f687f565c012103cf31d64aaba3ad3b47d2ad4dd89ef7c5f1c95246687e230a7a341c65fa5d6dec"
          },
          "sequence": 4294967294
        }
      ],
      "vout": [
        {
          "value": 1.41153855,
          "n": 0,
          "scriptPubKey": {
            "asm": "OP_DUP OP_HASH160 e91ef722519f8b435dc2d712b62b77f55375a46a OP_EQUALVERIFY OP_CHECKSIG",
            "hex": "76a914e91ef722519f8b435dc2d712b62b77f55375a46a88ac",
            "reqSigs": 1,
            "type": "pubkeyhash",
            "addresses": [
              "LgUaoRNKYVeNhdcBBYGwvMuEyQPPeKAktQ"
            ]
          }
        }, 
        {
          "value": 0.52021050,
          "n": 1,
          "scriptPubKey": {
            "asm": "OP_DUP OP_HASH160 f6262b1015e291353355d5c53c1ec7cdf17de019 OP_EQUALVERIFY OP_CHECKSIG",
            "hex": "76a914f6262b1015e291353355d5c53c1ec7cdf17de01988ac",
            "reqSigs": 1,
            "type": "pubkeyhash",
            "addresses": [
              "LhfUDNqXYHQMJz75fVx7wii8xfWaFc3zUM"
            ]
          }
        }
      ],
      "hex": "01000000021915fa5df8f9493e9e37fa6afc1ddb9e519b26dd7373117377b20e5517c8183e000000006a4730440220434400d74dad436f8e877b410742b32c025b13db597fef9afe72d3f632324188022023e42098f853c354a9eb663fe5a09ade7ea3592ea37efbae9d9b7489d5d1d40a01210375f53ade26d5e58ab41ae5f46052e223282eda650f255325ad5c68f7b980a26bfeffffff1a023849e612698dca68b337f68610ed16683d7573b4d1a26ec440a9c93dc533030000006a47304402203c1b0f093d80c77b21f75034691caaa11198546443b50459b42d8656c25e6a6402200f4015fc3abecd7164f898975b47208bce36197bdb6acd4f90d9019f687f565c012103cf31d64aaba3ad3b47d2ad4dd89ef7c5f1c95246687e230a7a341c65fa5d6decfeffffff023fd66908000000001976a914e91ef722519f8b435dc2d712b62b77f55375a46a88ac3ac71903000000001976a914f6262b1015e291353355d5c53c1ec7cdf17de01988ac28bc1400"
    }, 
    {
      "txid": "f886517858911959f8538d47cb09d661ed57d5d3649e84cc11b4c74e10510909",
      "hash": "f886517858911959f8538d47cb09d661ed57d5d3649e84cc11b4c74e10510909",
      "version": 1,
      "size": 226,
      "vsize": 226,
      "locktime": 0,
      "vin": [
        {
          "txid": "63aa8cdd86cafa62b335122d781b813b4cd389b50347270e9136e1861e466896",
          "vout": 1,
          "scriptSig": {
            "asm": "304502210087efa41f6d0b69ed06c52175604b5f368dd3826187b27c6dd3a7cb9a80a81d2802204d7a70e698fb0cb51c310f1653be19ce1da13f506aee0613e5a705fdb8f8f8ee[ALL] 02709f8ee40d7e61639f7ce38cb64fd953f5425b59d45739e21616bf245e19d5d6",
            "hex": "48304502210087efa41f6d0b69ed06c52175604b5f368dd3826187b27c6dd3a7cb9a80a81d2802204d7a70e698fb0cb51c310f1653be19ce1da13f506aee0613e5a705fdb8f8f8ee012102709f8ee40d7e61639f7ce38cb64fd953f5425b59d45739e21616bf245e19d5d6"
          },
          "sequence": 4294967295
        }
      ],
      "vout": [
        {
          "value": 2.00000000,
          "n": 0,
          "scriptPubKey": {
            "asm": "OP_DUP OP_HASH160 4b76607edc939458d58d74ebb7b5e9f052fba156 OP_EQUALVERIFY OP_CHECKSIG",
            "hex": "76a9144b76607edc939458d58d74ebb7b5e9f052fba15688ac",
            "reqSigs": 1,
            "type": "pubkeyhash",
            "addresses": [
              "LS6xkaF8thipFxWptdGkah8ACRRU9doinQ"
            ]
          }
        }, 
        {
          "value": 0.67775674,
          "n": 1,
          "scriptPubKey": {
            "asm": "OP_DUP OP_HASH160 fa0078e340e9fc6ee2fa7c8408054536f178c331 OP_EQUALVERIFY OP_CHECKSIG",
            "hex": "76a914fa0078e340e9fc6ee2fa7c8408054536f178c33188ac",
            "reqSigs": 1,
            "type": "pubkeyhash",
            "addresses": [
              "Li1qkyqumjv1YcZ8AxGKekTWbegcq6CDMN"
            ]
          }
        }
      ],
      "hex": "01000000019668461e86e136910e274703b589d34c3b811b782d1235b362faca86dd8caa63010000006b48304502210087efa41f6d0b69ed06c52175604b5f368dd3826187b27c6dd3a7cb9a80a81d2802204d7a70e698fb0cb51c310f1653be19ce1da13f506aee0613e5a705fdb8f8f8ee012102709f8ee40d7e61639f7ce38cb64fd953f5425b59d45739e21616bf245e19d5d6ffffffff0200c2eb0b000000001976a9144b76607edc939458d58d74ebb7b5e9f052fba15688acba2c0a04000000001976a914fa0078e340e9fc6ee2fa7c8408054536f178c33188ac00000000"
    }, 
    {
      "txid": "4193e624cad624645686a26afa0fb0808875af74c022ddaffb32c0ea95cbb092",
      "hash": "4193e624cad624645686a26afa0fb0808875af74c022ddaffb32c0ea95cbb092",
      "version": 2,
      "size": 670,
      "vsize": 670,
      "locktime": 1358888,
      "vin": [
        {
          "txid": "71e0cfcdfecd922976f4ee0e248143f5caadfee684d6d2127d47badb91a45540",
          "vout": 0,
          "scriptSig": {
            "asm": "3045022100e70bb09d3afc6448da0a04246b9f30119b498a51019a7caf4e08a9da9a0addb602200ef2ba644bab4cae25cd94de49e98404eedef3729527b8c865ed74cbe85e9581[ALL] 02427a71295b7fa767d69a127f74e44ce4c6444f3c7c539dc817376ad529cd0664",
            "hex": "483045022100e70bb09d3afc6448da0a04246b9f30119b498a51019a7caf4e08a9da9a0addb602200ef2ba644bab4cae25cd94de49e98404eedef3729527b8c865ed74cbe85e9581012102427a71295b7fa767d69a127f74e44ce4c6444f3c7c539dc817376ad529cd0664"
          },
          "sequence": 4294967294
        }, 
        {
          "txid": "b7b1a3f1510939c7744e2d555bca138f5cdcb3ca34d89795b5e8e4d10252b92d",
          "vout": 1,
          "scriptSig": {
            "asm": "3045022100e9cdf77bdadf00453cb08e097a0fd19db152b974341ab5ab1e8d6e2c7609a69d0220160ea7ae24b1956d56bce3a7cafeb143c1e14bc2094e71eb53005076f3783711[ALL] 0351a94b7ba833cc2f87ccc5e42f8e192013038b02e4dcac03f0c8e22ddbf074c5",
            "hex": "483045022100e9cdf77bdadf00453cb08e097a0fd19db152b974341ab5ab1e8d6e2c7609a69d0220160ea7ae24b1956d56bce3a7cafeb143c1e14bc2094e71eb53005076f378371101210351a94b7ba833cc2f87ccc5e42f8e192013038b02e4dcac03f0c8e22ddbf074c5"
          },
          "sequence": 4294967294
        }, 
        {
          "txid": "a5ca872dbb749360a0d2fb0ffd9cb8693547cf38e74f24a16d1237f03acb84f3",
          "vout": 0,
          "scriptSig": {
            "asm": "3045022100be35cf19657f1b447b5b72c08f1b42fc5198d739ccd98caf823315b160fde2d9022066e1331cbfefe5bcdf9d55ff9af6716d24815eca008caaa6ae451cc74474ff58[ALL] 02aab2b8ad238d1d0da9a03c70986cb6f76b19a681c9196d1e98e561380aefb58f",
            "hex": "483045022100be35cf19657f1b447b5b72c08f1b42fc5198d739ccd98caf823315b160fde2d9022066e1331cbfefe5bcdf9d55ff9af6716d24815eca008caaa6ae451cc74474ff58012102aab2b8ad238d1d0da9a03c70986cb6f76b19a681c9196d1e98e561380aefb58f"
          },
          "sequence": 4294967294
        }, 
        {
          "txid": "1f747a9810d8dd56936d026894cf590b62df46763249bbdf21d1309ffa42d501",
          "vout": 0,
          "scriptSig": {
            "asm": "3045022100b9854f909f60135034247b190e461525f339cad0552b8ec17ce26b9da61a1f8a0220411063c11093231580a6b812193f9687999c3204f5d621aa2ffb08435e46358d[ALL] 03755794342f53e098d71bfc4d681ec046b14f3852fe1dc8e82f8844e002d0e656",
            "hex": "483045022100b9854f909f60135034247b190e461525f339cad0552b8ec17ce26b9da61a1f8a0220411063c11093231580a6b812193f9687999c3204f5d621aa2ffb08435e46358d012103755794342f53e098d71bfc4d681ec046b14f3852fe1dc8e82f8844e002d0e656"
          },
          "sequence": 4294967294
        }
      ],
      "vout": [
        {
          "value": 0.01258871,
          "n": 0,
          "scriptPubKey": {
            "asm": "OP_DUP OP_HASH160 2cef6fd99776427d35cd2d62339edf4c772bf967 OP_EQUALVERIFY OP_CHECKSIG",
            "hex": "76a9142cef6fd99776427d35cd2d62339edf4c772bf96788ac",
            "reqSigs": 1,
            "type": "pubkeyhash",
            "addresses": [
              "LPKYq2EDaTZsCyn61aWZ1v7giKj6yCu9AL"
            ]
          }
        }, 
        {
          "value": 0.69000000,
          "n": 1,
          "scriptPubKey": {
            "asm": "OP_DUP OP_HASH160 f2b19624e29d0d717c26e3fc5a053a7f19d89a69 OP_EQUALVERIFY OP_CHECKSIG",
            "hex": "76a914f2b19624e29d0d717c26e3fc5a053a7f19d89a6988ac",
            "reqSigs": 1,
            "type": "pubkeyhash",
            "addresses": [
              "LhMCXZZwbSe25P1z79oE1kqQ71sGtNitSP"
            ]
          }
        }
      ],
      "hex": "02000000044055a491dbba477d12d2d684e6feadcaf54381240eeef4762992cdfecdcfe071000000006b483045022100e70bb09d3afc6448da0a04246b9f30119b498a51019a7caf4e08a9da9a0addb602200ef2ba644bab4cae25cd94de49e98404eedef3729527b8c865ed74cbe85e9581012102427a71295b7fa767d69a127f74e44ce4c6444f3c7c539dc817376ad529cd0664feffffff2db95202d1e4e8b59597d834cab3dc5c8f13ca5b552d4e74c7390951f1a3b1b7010000006b483045022100e9cdf77bdadf00453cb08e097a0fd19db152b974341ab5ab1e8d6e2c7609a69d0220160ea7ae24b1956d56bce3a7cafeb143c1e14bc2094e71eb53005076f378371101210351a94b7ba833cc2f87ccc5e42f8e192013038b02e4dcac03f0c8e22ddbf074c5fefffffff384cb3af037126da1244fe738cf473569b89cfd0ffbd2a0609374bb2d87caa5000000006b483045022100be35cf19657f1b447b5b72c08f1b42fc5198d739ccd98caf823315b160fde2d9022066e1331cbfefe5bcdf9d55ff9af6716d24815eca008caaa6ae451cc74474ff58012102aab2b8ad238d1d0da9a03c70986cb6f76b19a681c9196d1e98e561380aefb58ffeffffff01d542fa9f30d121dfbb49327646df620b59cf9468026d9356ddd810987a741f000000006b483045022100b9854f909f60135034247b190e461525f339cad0552b8ec17ce26b9da61a1f8a0220411063c11093231580a6b812193f9687999c3204f5d621aa2ffb08435e46358d012103755794342f53e098d71bfc4d681ec046b14f3852fe1dc8e82f8844e002d0e656feffffff0277351300000000001976a9142cef6fd99776427d35cd2d62339edf4c772bf96788ac40db1c04000000001976a914f2b19624e29d0d717c26e3fc5a053a7f19d89a6988ac28bc1400"
    }, 
    {
      "txid": "0fe789a39afff402482d71e2bd61a62b4a45e40e310d5239b3b3a4a2a6a054a8",
      "hash": "0fe789a39afff402482d71e2bd61a62b4a45e40e310d5239b3b3a4a2a6a054a8",
      "version": 2,
      "size": 260,
      "vsize": 260,
      "locktime": 1358888,
      "vin": [
        {
          "txid": "bac48f06090b306b9ad2108d39882defec641eca2650099882dc14c8588b9a36",
          "vout": 0,
          "scriptSig": {
            "asm": "30450221008768b7925b495403e9d8332a07ee8e10d69db3e9ba37ecd70031020801ec9ff2022022d6e7ba06720ee5872f8d2b5ca5366104da8ab766687ffb90b94fccb08750fb[ALL] 022e5f7b7bbd2b285d3fd358a72f79431706f324e86a22023f161884f67e55f280",
            "hex": "4830450221008768b7925b495403e9d8332a07ee8e10d69db3e9ba37ecd70031020801ec9ff2022022d6e7ba06720ee5872f8d2b5ca5366104da8ab766687ffb90b94fccb08750fb0121022e5f7b7bbd2b285d3fd358a72f79431706f324e86a22023f161884f67e55f280"
          },
          "sequence": 4294967294
        }
      ],
      "vout": [
        {
          "value": 201.14496737,
          "n": 0,
          "scriptPubKey": {
            "asm": "OP_DUP OP_HASH160 ffe459f7367d876932ed38b76de41d05a417e783 OP_EQUALVERIFY OP_CHECKSIG",
            "hex": "76a914ffe459f7367d876932ed38b76de41d05a417e78388ac",
            "reqSigs": 1,
            "type": "pubkeyhash",
            "addresses": [
              "LiYz8GLHG6KZzA2gCs4s5SpJsjzPgfn8t3"
            ]
          }
        }, 
        {
          "value": 252.75701837,
          "n": 1,
          "scriptPubKey": {
            "asm": "OP_DUP OP_HASH160 d921b88bfc241e5c80cb0226d21e482b677a22ee OP_EQUALVERIFY OP_CHECKSIG",
            "hex": "76a914d921b88bfc241e5c80cb0226d21e482b677a22ee88ac",
            "reqSigs": 1,
            "type": "pubkeyhash",
            "addresses": [
              "Lf23Hoqsfb6nsfB1QFNc9j3PZnhBt8py5H"
            ]
          }
        }, 
        {
          "value": 0.99900000,
          "n": 2,
          "scriptPubKey": {
            "asm": "OP_DUP OP_HASH160 ebc84927d46f8228a5d58184e6e8cb684ae966a5 OP_EQUALVERIFY OP_CHECKSIG",
            "hex": "76a914ebc84927d46f8228a5d58184e6e8cb684ae966a588ac",
            "reqSigs": 1,
            "type": "pubkeyhash",
            "addresses": [
              "LgiezPgybdbNZ1QH26wQzYvjdPnoMpAiin"
            ]
          }
        }
      ],
      "hex": "0200000001369a8b58c814dc8298095026ca1e64ecef2d88398d10d29a6b300b09068fc4ba000000006b4830450221008768b7925b495403e9d8332a07ee8e10d69db3e9ba37ecd70031020801ec9ff2022022d6e7ba06720ee5872f8d2b5ca5366104da8ab766687ffb90b94fccb08750fb0121022e5f7b7bbd2b285d3fd358a72f79431706f324e86a22023f161884f67e55f280feffffff03e1dceaae040000001976a914ffe459f7367d876932ed38b76de41d05a417e78388ac4d9a8ce2050000001976a914d921b88bfc241e5c80cb0226d21e482b677a22ee88ac605af405000000001976a914ebc84927d46f8228a5d58184e6e8cb684ae966a588ac28bc1400"
    }, 
    {
      "txid": "30f681943eb379119522c128c7fc304b2a53cff791df279cb9bdafad59a543fa",
      "hash": "30f681943eb379119522c128c7fc304b2a53cff791df279cb9bdafad59a543fa",
      "version": 1,
      "size": 226,
      "vsize": 226,
      "locktime": 0,
      "vin": [
        {
          "txid": "b07d889ed992ced9cf9eb91e367c4ab9fa48b4d1599affa5f9f23e951ca48bff",
          "vout": 17,
          "scriptSig": {
            "asm": "304502210096c17569bfeda7e90e0e7f9f921dea85f83f9e4e1fc9363185886d7f3b548542022022b5bc7416fba1bdedd20075500cf9795e9112ff3c7bb7297417e577f82ee154[ALL] 03598249216e7a5a2504fa93ce2302d29e87e557f5fb33d19617576609310435d1",
            "hex": "48304502210096c17569bfeda7e90e0e7f9f921dea85f83f9e4e1fc9363185886d7f3b548542022022b5bc7416fba1bdedd20075500cf9795e9112ff3c7bb7297417e577f82ee154012103598249216e7a5a2504fa93ce2302d29e87e557f5fb33d19617576609310435d1"
          },
          "sequence": 4294967295
        }
      ],
      "vout": [
        {
          "value": 0.13725706,
          "n": 0,
          "scriptPubKey": {
            "asm": "OP_DUP OP_HASH160 dab0685ff6db0449c8d27967a837142e430b8283 OP_EQUALVERIFY OP_CHECKSIG",
            "hex": "76a914dab0685ff6db0449c8d27967a837142e430b828388ac",
            "reqSigs": 1,
            "type": "pubkeyhash",
            "addresses": [
              "LfAGu48z4x7x6cqGEdt1RVzfXYQsjADZpM"
            ]
          }
        }, 
        {
          "value": 0.00161694,
          "n": 1,
          "scriptPubKey": {
            "asm": "OP_DUP OP_HASH160 0834ff701e89d802c448b3e07a2d91c6fd8eb917 OP_EQUALVERIFY OP_CHECKSIG",
            "hex": "76a9140834ff701e89d802c448b3e07a2d91c6fd8eb91788ac",
            "reqSigs": 1,
            "type": "pubkeyhash",
            "addresses": [
              "LKyMA6jZ3VrAU82yGVtiRGaicSprywABUf"
            ]
          }
        }
      ],
      "hex": "0100000001ff8ba41c953ef2f9a5ff9a59d1b448fab94a7c361eb99ecfd9ce92d99e887db0110000006b48304502210096c17569bfeda7e90e0e7f9f921dea85f83f9e4e1fc9363185886d7f3b548542022022b5bc7416fba1bdedd20075500cf9795e9112ff3c7bb7297417e577f82ee154012103598249216e7a5a2504fa93ce2302d29e87e557f5fb33d19617576609310435d1ffffffff020a70d100000000001976a914dab0685ff6db0449c8d27967a837142e430b828388ac9e770200000000001976a9140834ff701e89d802c448b3e07a2d91c6fd8eb91788ac00000000"
    }
  ],
  "time": 1517206338,
  "mediantime": 1517206021,
  "nonce": 2150343737,
  "bits": "1a042eae",
  "difficulty": 4011378.762614286,
  "chainwork": "0000000000000000000000000000000000000000000000337e3b5d3b5ab47dd6",
  "previousblockhash": "8ee5a0e73da21b25fafcc08b75112fa91bc6ef3c442c28d5634065761dfce2ad",
  "nextblockhash": "bf1b1ca566f0382de1e78690eeb45509c38b9c6de82604b8e389821cb4e3e7a9"
}
