{
  "hash": "bcae2e92685d5d9b342c4729730d3a495a402d3bc9987f80a6348ae1b127504a",
  "confirmations": 3675,
  "strippedsize": 254,
  "size": 254,
  "weight": 1016,
  "height": 1357320,
  "version": 536870912,
  "versionHex": "20000000",
  "merkleroot": "b32fe1cb48fdc5746cad64e6d9c7e1415f85cdb34542c6c2b608fdb879b6575b",
  "tx": [
    {
      "txid": "b32fe1cb48fdc5746cad64e6d9c7e1415f85cdb34542c6c2b608fdb879b6575b",
      "hash": "b32fe1cb48fdc5746cad64e6d9c7e1415f85cdb34542c6c2b608fdb879b6575b",
      "version": 1,
      "size": 173,
      "vsize": 173,
      "locktime": 0,
      "vin": [
        {
          "coinbase": "0308b6141b4d696e656420627920416e74506f6f6c20626a312045205a6b6a38fabe6d6d75e95648b54969327887be82b41a06f1ca011cbb8097cb38f2e4f0a6395b8bb50400000000000000552d00000000000029000000",
          "sequence": 4294967295
        }
      ],
      "vout": [
        {
          "value": 25.00000000,
          "n": 0,
          "scriptPubKey": {
            "asm": "OP_DUP OP_HASH160 0ff3ccc5e8be88afe24b5d634e5852d474dbdff1 OP_EQUALVERIFY OP_CHECKSIG",
            "hex": "76a9140ff3ccc5e8be88afe24b5d634e5852d474dbdff188ac",
            "reqSigs": 1,
            "type": "pubkeyhash",
            "addresses": [
              "LLgJTbzZMsRTCUF1NtvvL9SR1a4pVieW89"
            ]
          }
        }
      ],
      "hex": "01000000010000000000000000000000000000000000000000000000000000000000000000ffffffff580308b6141b4d696e656420627920416e74506f6f6c20626a312045205a6b6a38fabe6d6d75e95648b54969327887be82b41a06f1ca011cbb8097cb38f2e4f0a6395b8bb50400000000000000552d00000000000029000000ffffffff0100f90295000000001976a9140ff3ccc5e8be88afe24b5d634e5852d474dbdff188ac00000000"
    }
  ],
  "time": 1516988984,
  "mediantime": 1516987763,
  "nonce": 82790107,
  "bits": "1a047f14",
  "difficulty": 3731199.183374282,
  "chainwork": "0000000000000000000000000000000000000000000000321f46d2f9f01dabea",
  "previousblockhash": "e5703041a2657e95bdf6c01b961dca41fefe2dbb6792eaec7a7400be2120f207",
  "nextblockhash": "d927a6da2d0db04235163dde0b0546131f23ad5f8b90c03a6a7d0df8dd8eb25f"
}
