{
  "hash": "bd2e69a56580420870d330ce295ae8c4cd8d4bce61193646a34e27da13904b99",
  "confirmations": 1560,
  "strippedsize": 234,
  "size": 234,
  "weight": 936,
  "height": 1359434,
  "version": 536870912,
  "versionHex": "20000000",
  "merkleroot": "1a7a2edeb43edd0c6d92604789c989fa857e16dbc3bb578d9ebd24cc9d15389d",
  "tx": [
    {
      "txid": "1a7a2edeb43edd0c6d92604789c989fa857e16dbc3bb578d9ebd24cc9d15389d",
      "hash": "1a7a2edeb43edd0c6d92604789c989fa857e16dbc3bb578d9ebd24cc9d15389d",
      "version": 1,
      "size": 153,
      "vsize": 153,
      "locktime": 0,
      "vin": [
        {
          "coinbase": "034abe14045a6fe2ff2cfabe6d6dde631abaf70d6ae4aaad6810a7806d76b1e14339b3cb9827452558b5c5fc84a64000000000000000042f4c502f08220051e336000000",
          "sequence": 4294967295
        }
      ],
      "vout": [
        {
          "value": 25.00000000,
          "n": 0,
          "scriptPubKey": {
            "asm": "OP_DUP OP_HASH160 57757ed2ecf2052ff3126c397aca7defb9ca2cec OP_EQUALVERIFY OP_CHECKSIG",
            "hex": "76a91457757ed2ecf2052ff3126c397aca7defb9ca2cec88ac",
            "reqSigs": 1,
            "type": "pubkeyhash",
            "addresses": [
              "LTCPodGk5FwcJaRzH9yKnwicxzFUbxp6tN"
            ]
          }
        }
      ],
      "hex": "01000000010000000000000000000000000000000000000000000000000000000000000000ffffffff44034abe14045a6fe2ff2cfabe6d6dde631abaf70d6ae4aaad6810a7806d76b1e14339b3cb9827452558b5c5fc84a64000000000000000042f4c502f08220051e336000000ffffffff0100f90295000000001976a91457757ed2ecf2052ff3126c397aca7defb9ca2cec88ac00000000"
    }
  ],
  "time": 1517282047,
  "mediantime": 1517281614,
  "nonce": 3803846928,
  "bits": "1a042eae",
  "difficulty": 4011378.762614286,
  "chainwork": "000000000000000000000000000000000000000000000034004d732c4d5cb216",
  "previousblockhash": "5219ccfbdb55ede3b5cb79d69e2f68454bfd3aace3078d364ec2bdb1cdfcc082",
  "nextblockhash": "3793c2e999c37f5a2bc9f42288c57069e8628990c788aaa48195ff0b89b6d40a"
}
