{
  "hash": "bd3d6ab8a9eaec05ff0cdb5ac1dbcb489aef4f0d98061290eaa6e0f48f10493c",
  "confirmations": 438,
  "strippedsize": 253,
  "size": 253,
  "weight": 1012,
  "height": 1360556,
  "version": 536870912,
  "versionHex": "20000000",
  "merkleroot": "f42b7d361a32839280e582e40a75acfa1ce0cc2dbf7f2f50facfd610e511d4d9",
  "tx": [
    {
      "txid": "f42b7d361a32839280e582e40a75acfa1ce0cc2dbf7f2f50facfd610e511d4d9",
      "hash": "f42b7d361a32839280e582e40a75acfa1ce0cc2dbf7f2f50facfd610e511d4d9",
      "version": 1,
      "size": 172,
      "vsize": 172,
      "locktime": 0,
      "vin": [
        {
          "coinbase": "03acc2141a4d696e656420627920416e74506f6f6c20626a3532205a726f19fabe6d6dbcdce696fb62f93a1397be634cdf4daa18de3561361d775b696492b47928ac7d04000000000000009d3800000000000001000000",
          "sequence": 4294967295
        }
      ],
      "vout": [
        {
          "value": 25.00000000,
          "n": 0,
          "scriptPubKey": {
            "asm": "OP_DUP OP_HASH160 0ff3ccc5e8be88afe24b5d634e5852d474dbdff1 OP_EQUALVERIFY OP_CHECKSIG",
            "hex": "76a9140ff3ccc5e8be88afe24b5d634e5852d474dbdff188ac",
            "reqSigs": 1,
            "type": "pubkeyhash",
            "addresses": [
              "LLgJTbzZMsRTCUF1NtvvL9SR1a4pVieW89"
            ]
          }
        }
      ],
      "hex": "01000000010000000000000000000000000000000000000000000000000000000000000000ffffffff5703acc2141a4d696e656420627920416e74506f6f6c20626a3532205a726f19fabe6d6dbcdce696fb62f93a1397be634cdf4daa18de3561361d775b696492b47928ac7d04000000000000009d3800000000000001000000ffffffff0100f90295000000001976a9140ff3ccc5e8be88afe24b5d634e5852d474dbdff188ac00000000"
    }
  ],
  "time": 1517448985,
  "mediantime": 1517448170,
  "nonce": 879500636,
  "bits": "1a042eae",
  "difficulty": 4011378.762614286,
  "chainwork": "0000000000000000000000000000000000000000000000350c92c06d41d79dda",
  "previousblockhash": "d88b6f6d256e1886a3ded831cd79540c7895a70417e8f685b5335b9cc83aa901",
  "nextblockhash": "2cf79dba7d9bc89f73b182f8425aec2aff2bb403278fff210d46a4b0d37ee080"
}
