{
  "hash": "bd766ac427167b5f885ca74c82f0f652668c89da5856d47621239647d4d00a09",
  "confirmations": 1087,
  "strippedsize": 5038,
  "size": 6043,
  "weight": 21157,
  "height": 1359907,
  "version": 536870912,
  "versionHex": "20000000",
  "merkleroot": "23ba774742432fbfa79a5a9e4ff9c07e38439b3a056059ec56fc2072b36ee23a",
  "tx": [
    {
      "txid": "d92f3a1f81c3c27ec99cff9f0368b7e191a22b8c73d7d311872a526ed36ce72f",
      "hash": "6e96bb6d4d51e825f8af9a164369732c7140bdf329ec62b95a0eebe5d0c24fa9",
      "version": 1,
      "size": 236,
      "vsize": 209,
      "locktime": 0,
      "vin": [
        {
          "coinbase": "0323c014045a70e1372cfabe6d6d0785b0dff1d509687b8ca7153dc77427c584f307c73a67453e01e6bd135755e94000000000000000042f4c502f0857004bc603000000",
          "sequence": 4294967295
        }
      ],
      "vout": [
        {
          "value": 25.00435000,
          "n": 0,
          "scriptPubKey": {
            "asm": "OP_DUP OP_HASH160 57757ed2ecf2052ff3126c397aca7defb9ca2cec OP_EQUALVERIFY OP_CHECKSIG",
            "hex": "76a91457757ed2ecf2052ff3126c397aca7defb9ca2cec88ac",
            "reqSigs": 1,
            "type": "pubkeyhash",
            "addresses": [
              "LTCPodGk5FwcJaRzH9yKnwicxzFUbxp6tN"
            ]
          }
        }, 
        {
          "value": 0.00000000,
          "n": 1,
          "scriptPubKey": {
            "asm": "OP_RETURN aa21a9ed10e59456479a19be4a1c585484e5b507cfb077a31b35ebe0e5aaace17e039530",
            "hex": "6a24aa21a9ed10e59456479a19be4a1c585484e5b507cfb077a31b35ebe0e5aaace17e039530",
            "type": "nulldata"
          }
        }
      ],
      "hex": "010000000001010000000000000000000000000000000000000000000000000000000000000000ffffffff440323c014045a70e1372cfabe6d6d0785b0dff1d509687b8ca7153dc77427c584f307c73a67453e01e6bd135755e94000000000000000042f4c502f0857004bc603000000ffffffff02389c0995000000001976a91457757ed2ecf2052ff3126c397aca7defb9ca2cec88ac0000000000000000266a24aa21a9ed10e59456479a19be4a1c585484e5b507cfb077a31b35ebe0e5aaace17e0395300120000000000000000000000000000000000000000000000000000000000000000000000000"
    }, 
    {
      "txid": "5a99068ccb1ab5e1c2d22ce9ada4899de6e6f8f7afe9b7f37fe67edf59d63b9f",
      "hash": "5a99068ccb1ab5e1c2d22ce9ada4899de6e6f8f7afe9b7f37fe67edf59d63b9f",
      "version": 1,
      "size": 521,
      "vsize": 521,
      "locktime": 1359905,
      "vin": [
        {
          "txid": "f346fdf7e5b462a8133e15457ca14b68d172acb16dd9c8d3a2730c6aceee9116",
          "vout": 0,
          "scriptSig": {
            "asm": "3045022100dfba87d1b7d0f124b984046571adef7d3e27d7958923ae69cdc17fb7244893be02206caeb4ef1f3b8d793ba9362d8506a977d6dcf97902b36dbf0a1e40bb25743422[ALL] 02e0663a769e4f00022ea62f9d34411e6f0e5944e06ca0182a04e97715e41ee276",
            "hex": "483045022100dfba87d1b7d0f124b984046571adef7d3e27d7958923ae69cdc17fb7244893be02206caeb4ef1f3b8d793ba9362d8506a977d6dcf97902b36dbf0a1e40bb25743422012102e0663a769e4f00022ea62f9d34411e6f0e5944e06ca0182a04e97715e41ee276"
          },
          "sequence": 4294967294
        }, 
        {
          "txid": "89752c645d01f087b56fdd8dafb7d980951e4f7d61ec36de67cce58594594900",
          "vout": 0,
          "scriptSig": {
            "asm": "3044022047a7d7a4075ba788113fc75a8e640e6bedc619f6441cde2e112a7df40d2f07e302205473b1434e0c98954f0b4ee949c81d0c10fecf992a272b755564fa1d41e0adf4[ALL] 021692532f66e5bf97daca083a3dd7f098aeb01927e164be3d4a2b35d4c5c8ca63",
            "hex": "473044022047a7d7a4075ba788113fc75a8e640e6bedc619f6441cde2e112a7df40d2f07e302205473b1434e0c98954f0b4ee949c81d0c10fecf992a272b755564fa1d41e0adf40121021692532f66e5bf97daca083a3dd7f098aeb01927e164be3d4a2b35d4c5c8ca63"
          },
          "sequence": 4294967294
        }, 
        {
          "txid": "60f7605a6a55209de6e657ec38cf496e3c5accaa7ece5ca804c8349f38c69142",
          "vout": 0,
          "scriptSig": {
            "asm": "3045022100b877952359ea0ec3aa1e03a93366da584f9992ac96778b5804a0f0ccce8406740220495b5b8290aeff4cb3aec928260f8dde8b4ab865a4697b378c61b93ce2e8ab60[ALL] 03eb6f2507bfbcf29457b32accd0d05640bdf85d7da0e54dd6b2d7d6202e27ef78",
            "hex": "483045022100b877952359ea0ec3aa1e03a93366da584f9992ac96778b5804a0f0ccce8406740220495b5b8290aeff4cb3aec928260f8dde8b4ab865a4697b378c61b93ce2e8ab60012103eb6f2507bfbcf29457b32accd0d05640bdf85d7da0e54dd6b2d7d6202e27ef78"
          },
          "sequence": 4294967294
        }
      ],
      "vout": [
        {
          "value": 0.01001460,
          "n": 0,
          "scriptPubKey": {
            "asm": "OP_DUP OP_HASH160 5b131ccb18e809ca1109cacb88c1543db0c68abc OP_EQUALVERIFY OP_CHECKSIG",
            "hex": "76a9145b131ccb18e809ca1109cacb88c1543db0c68abc88ac",
            "reqSigs": 1,
            "type": "pubkeyhash",
            "addresses": [
              "LTXWedMMXVbvAhhGh9ptkbu6RBFByfWEDR"
            ]
          }
        }, 
        {
          "value": 4.35879526,
          "n": 1,
          "scriptPubKey": {
            "asm": "OP_DUP OP_HASH160 760cf7164fd10967a851b0b562d539e9f296ac4c OP_EQUALVERIFY OP_CHECKSIG",
            "hex": "76a914760cf7164fd10967a851b0b562d539e9f296ac4c88ac",
            "reqSigs": 1,
            "type": "pubkeyhash",
            "addresses": [
              "LVz9XgjGEW7d3Vn8Fna17g9zYGMbFBDNe9"
            ]
          }
        }
      ],
      "hex": "01000000031691eece6a0c73a2d3c8d96db1ac72d1684ba17c45153e13a862b4e5f7fd46f3000000006b483045022100dfba87d1b7d0f124b984046571adef7d3e27d7958923ae69cdc17fb7244893be02206caeb4ef1f3b8d793ba9362d8506a977d6dcf97902b36dbf0a1e40bb25743422012102e0663a769e4f00022ea62f9d34411e6f0e5944e06ca0182a04e97715e41ee276feffffff0049599485e5cc67de36ec617d4f1e9580d9b7af8ddd6fb587f0015d642c7589000000006a473044022047a7d7a4075ba788113fc75a8e640e6bedc619f6441cde2e112a7df40d2f07e302205473b1434e0c98954f0b4ee949c81d0c10fecf992a272b755564fa1d41e0adf40121021692532f66e5bf97daca083a3dd7f098aeb01927e164be3d4a2b35d4c5c8ca63feffffff4291c6389f34c804a85cce7eaacc5a3c6e49cf38ec57e6e69d20556a5a60f760000000006b483045022100b877952359ea0ec3aa1e03a93366da584f9992ac96778b5804a0f0ccce8406740220495b5b8290aeff4cb3aec928260f8dde8b4ab865a4697b378c61b93ce2e8ab60012103eb6f2507bfbcf29457b32accd0d05640bdf85d7da0e54dd6b2d7d6202e27ef78feffffff02f4470f00000000001976a9145b131ccb18e809ca1109cacb88c1543db0c68abc88ac66fefa19000000001976a914760cf7164fd10967a851b0b562d539e9f296ac4c88ac21c01400"
    }, 
    {
      "txid": "1d871cc846eb1c10d6aa5172865a4658db66a0b83f4d451bee54d6f9427ad9b9",
      "hash": "ab3018b95f3fc8c094a7ad0ece7edb2a516f37e786856ac0d5e0c4a9f912bc45",
      "version": 1,
      "size": 1589,
      "vsize": 863,
      "locktime": 0,
      "vin": [
        {
          "txid": "1b245bab9c90018a7da3fba7a80b1e7d1cc82418ce30b00b07264535e4f8b4df",
          "vout": 406,
          "scriptSig": {
            "asm": "001452e06df14a296cdd25ebee250d4a8fad82c8acdc",
            "hex": "16001452e06df14a296cdd25ebee250d4a8fad82c8acdc"
          },
          "txinwitness": [
            "304402207334092bbe2d8fd58bdde720391092b03179c7d8f569208ccc572c18ce78fa7b0220254da952a18c262cd0f6906223cc53a40980fe9372c3efbb94702bfcb580454001", 
            "0248297efb91aa2e356c48dd58b4c6ca995baea132f083ac80ea660622ee0f4f70"
          ],
          "sequence": 4294967295
        }, 
        {
          "txid": "3aebe3c10e9f8081ece13fe868b6facf29f510a3bb442e073a1a18036c48fb9a",
          "vout": 403,
          "scriptSig": {
            "asm": "001452e06df14a296cdd25ebee250d4a8fad82c8acdc",
            "hex": "16001452e06df14a296cdd25ebee250d4a8fad82c8acdc"
          },
          "txinwitness": [
            "3045022100f6a351a4c623891dbdbbdb1239c05716b92441c00ad4564a82fa36971ae9b738022044d7698f9ca8c669e8b5e81b981db1f22137ad619b927185f6b33cc4746da02501", 
            "0248297efb91aa2e356c48dd58b4c6ca995baea132f083ac80ea660622ee0f4f70"
          ],
          "sequence": 4294967295
        }, 
        {
          "txid": "3af654701877f8425f392b03d25b2a953473989167ddef67fe02e3d48dec5e82",
          "vout": 399,
          "scriptSig": {
            "asm": "001452e06df14a296cdd25ebee250d4a8fad82c8acdc",
            "hex": "16001452e06df14a296cdd25ebee250d4a8fad82c8acdc"
          },
          "txinwitness": [
            "3045022100be69b1d44edfb842d4963d99c63ddc5a4ce07488a6472d2f3e7519b956bd35460220421c1f4b4be4d0b14bebb16bbe37e9e0beef4fb214063f3021b85060ea5915ae01", 
            "0248297efb91aa2e356c48dd58b4c6ca995baea132f083ac80ea660622ee0f4f70"
          ],
          "sequence": 4294967295
        }, 
        {
          "txid": "5f0b236fec73113d825f176044fedc49fab8b6e67a8e86b42b44d0600d45d68b",
          "vout": 1024,
          "scriptSig": {
            "asm": "0014da6c22c2302fbefd3c9e60f4a29cc437fc506d15",
            "hex": "160014da6c22c2302fbefd3c9e60f4a29cc437fc506d15"
          },
          "txinwitness": [
            "3045022100fd3285a7addc8aafdf813d41013b90a4cd187e8e29827ff116cafb57dd23e0ef022021e36606205dd4e79861e4f0d1a1d630715d1d2a824c961715f4b660c065e20901", 
            "02bcab2926e8f8e062ea5a4215c76e61f70024a44178e67217116ae4b7a487438c"
          ],
          "sequence": 4294967295
        }, 
        {
          "txid": "730198781af4ef51245658de7faf9156a7d340aec8a5db89cfa23852a3975fc2",
          "vout": 1303,
          "scriptSig": {
            "asm": "00146dc5a45fc3d37bf04219fcb89da2a1fa80807d19",
            "hex": "1600146dc5a45fc3d37bf04219fcb89da2a1fa80807d19"
          },
          "txinwitness": [
            "304402201d330037d8ee19f9cd11074f749285e212f127d95174d35de7f1829d789385c60220404f8d99d1c933d8affb5ee4b6b0bb24d9cd06af93fd2c620495fa4bf953134001", 
            "026b9e89e3c44f6efc30052c00cdda68f222686441d1968527c3862b8f027774c9"
          ],
          "sequence": 4294967295
        }, 
        {
          "txid": "752926e8b36c372f211b2c899adece5fe08c287b274219bf674df2975c88a51a",
          "vout": 0,
          "scriptSig": {
            "asm": "00143ec723739b5dde2f29180cf844f41a28dbc66d86",
            "hex": "1600143ec723739b5dde2f29180cf844f41a28dbc66d86"
          },
          "txinwitness": [
            "304402200ae68169c78637516a4bb8eb9d5bd7a454dd04eefc0cee9d6ce6463b40f26ff10220092c0d1c8b59ae35b184ed68e71ddabaa7de9092774c7180a55e09f6dc54493f01", 
            "02fd66ed6fee14ae02649cff339a5c7bb165e627dcc1d6ec94f5ba0f7def161951"
          ],
          "sequence": 4294967295
        }, 
        {
          "txid": "8d3c141a49e22d82fab969ceddba57bd7f27b6bb3ee4957edaf2b5c77f1d9d13",
          "vout": 0,
          "scriptSig": {
            "asm": "0014cc373ccd848747f0f964a25932364366d1193a55",
            "hex": "160014cc373ccd848747f0f964a25932364366d1193a55"
          },
          "txinwitness": [
            "30440220521c999aa89cd7f58ed699fe7d0d88de6cce56d2294dc18bc4e62e59d4806eb90220050d46dab1e147f897eb423ea0da9f741059e5b01f53f462b399b6d4ca1ebc5f01", 
            "03690bdcb48446dc80f474e39d97030bb593f39b829e1777fecc3aeffacce7f3b4"
          ],
          "sequence": 4294967295
        }, 
        {
          "txid": "ced5ef95950a7877deeb646c51bdeb20f2020cd1d5b96bed1e1b35f512071691",
          "vout": 404,
          "scriptSig": {
            "asm": "001452e06df14a296cdd25ebee250d4a8fad82c8acdc",
            "hex": "16001452e06df14a296cdd25ebee250d4a8fad82c8acdc"
          },
          "txinwitness": [
            "304402200c9e6dc89165649ca3357873797a8f172043ad70c2e062e433c6c3dcbf9f079b02206a37114928137c9652fd02599b0fc34fd2909438422acff87ec4a77c55631d4901", 
            "0248297efb91aa2e356c48dd58b4c6ca995baea132f083ac80ea660622ee0f4f70"
          ],
          "sequence": 4294967295
        }, 
        {
          "txid": "ed1dc313f60966ee7be743c61812bf70ebc94fca51a2fde75920ceb8577bb640",
          "vout": 392,
          "scriptSig": {
            "asm": "001452e06df14a296cdd25ebee250d4a8fad82c8acdc",
            "hex": "16001452e06df14a296cdd25ebee250d4a8fad82c8acdc"
          },
          "txinwitness": [
            "3045022100b57baf034285570027f313e9f99b2aaba2318c6b91131742fcb1eb1bc26f1cfe02200ed19efd9e7c193d08f76e428d514338db26f455f595cb3146e265fe991a46ab01", 
            "0248297efb91aa2e356c48dd58b4c6ca995baea132f083ac80ea660622ee0f4f70"
          ],
          "sequence": 4294967295
        }
      ],
      "vout": [
        {
          "value": 3.93222302,
          "n": 0,
          "scriptPubKey": {
            "asm": "OP_DUP OP_HASH160 754280b977d7c2ec09a9ad122d5d1f801d98e142 OP_EQUALVERIFY OP_CHECKSIG",
            "hex": "76a914754280b977d7c2ec09a9ad122d5d1f801d98e14288ac",
            "reqSigs": 1,
            "type": "pubkeyhash",
            "addresses": [
              "LVuxzMXq1LpbAVtUwbFW8SYarXqKVSFnGV"
            ]
          }
        }
      ],
      "hex": "01000000000109dfb4f8e4354526070bb030ce1824c81c7d1e0ba8a7fba37d8a01909cab5b241b960100001716001452e06df14a296cdd25ebee250d4a8fad82c8acdcffffffff9afb486c03181a3a072e44bba310f529cffab668e83fe1ec81809f0ec1e3eb3a930100001716001452e06df14a296cdd25ebee250d4a8fad82c8acdcffffffff825eec8dd4e302fe67efdd6791987334952a5bd2032b395f42f877187054f63a8f0100001716001452e06df14a296cdd25ebee250d4a8fad82c8acdcffffffff8bd6450d60d0442bb4868e7ae6b6b8fa49dcfe4460175f823d1173ec6f230b5f0004000017160014da6c22c2302fbefd3c9e60f4a29cc437fc506d15ffffffffc25f97a35238a2cf89dba5c8ae40d3a75691af7fde58562451eff41a7898017317050000171600146dc5a45fc3d37bf04219fcb89da2a1fa80807d19ffffffff1aa5885c97f24d67bf1942277b288ce05fcede9a892c1b212f376cb3e826297500000000171600143ec723739b5dde2f29180cf844f41a28dbc66d86ffffffff139d1d7fc7b5f2da7e95e43ebbb6277fbd57baddce69b9fa822de2491a143c8d0000000017160014cc373ccd848747f0f964a25932364366d1193a55ffffffff91160712f5351b1eed6bb9d5d10c02f220ebbd516c64ebde77780a9595efd5ce940100001716001452e06df14a296cdd25ebee250d4a8fad82c8acdcffffffff40b67b57b8ce2059e7fda251ca4fc9eb70bf1218c643e77bee6609f613c31ded880100001716001452e06df14a296cdd25ebee250d4a8fad82c8acdcffffffff019e187017000000001976a914754280b977d7c2ec09a9ad122d5d1f801d98e14288ac0247304402207334092bbe2d8fd58bdde720391092b03179c7d8f569208ccc572c18ce78fa7b0220254da952a18c262cd0f6906223cc53a40980fe9372c3efbb94702bfcb580454001210248297efb91aa2e356c48dd58b4c6ca995baea132f083ac80ea660622ee0f4f7002483045022100f6a351a4c623891dbdbbdb1239c05716b92441c00ad4564a82fa36971ae9b738022044d7698f9ca8c669e8b5e81b981db1f22137ad619b927185f6b33cc4746da02501210248297efb91aa2e356c48dd58b4c6ca995baea132f083ac80ea660622ee0f4f7002483045022100be69b1d44edfb842d4963d99c63ddc5a4ce07488a6472d2f3e7519b956bd35460220421c1f4b4be4d0b14bebb16bbe37e9e0beef4fb214063f3021b85060ea5915ae01210248297efb91aa2e356c48dd58b4c6ca995baea132f083ac80ea660622ee0f4f7002483045022100fd3285a7addc8aafdf813d41013b90a4cd187e8e29827ff116cafb57dd23e0ef022021e36606205dd4e79861e4f0d1a1d630715d1d2a824c961715f4b660c065e209012102bcab2926e8f8e062ea5a4215c76e61f70024a44178e67217116ae4b7a487438c0247304402201d330037d8ee19f9cd11074f749285e212f127d95174d35de7f1829d789385c60220404f8d99d1c933d8affb5ee4b6b0bb24d9cd06af93fd2c620495fa4bf95313400121026b9e89e3c44f6efc30052c00cdda68f222686441d1968527c3862b8f027774c90247304402200ae68169c78637516a4bb8eb9d5bd7a454dd04eefc0cee9d6ce6463b40f26ff10220092c0d1c8b59ae35b184ed68e71ddabaa7de9092774c7180a55e09f6dc54493f012102fd66ed6fee14ae02649cff339a5c7bb165e627dcc1d6ec94f5ba0f7def161951024730440220521c999aa89cd7f58ed699fe7d0d88de6cce56d2294dc18bc4e62e59d4806eb90220050d46dab1e147f897eb423ea0da9f741059e5b01f53f462b399b6d4ca1ebc5f012103690bdcb48446dc80f474e39d97030bb593f39b829e1777fecc3aeffacce7f3b40247304402200c9e6dc89165649ca3357873797a8f172043ad70c2e062e433c6c3dcbf9f079b02206a37114928137c9652fd02599b0fc34fd2909438422acff87ec4a77c55631d4901210248297efb91aa2e356c48dd58b4c6ca995baea132f083ac80ea660622ee0f4f7002483045022100b57baf034285570027f313e9f99b2aaba2318c6b91131742fcb1eb1bc26f1cfe02200ed19efd9e7c193d08f76e428d514338db26f455f595cb3146e265fe991a46ab01210248297efb91aa2e356c48dd58b4c6ca995baea132f083ac80ea660622ee0f4f7000000000"
    }, 
    {
      "txid": "96fccaf1b4a2ad6a7e390d4445c4fbd3495793dacc029380f6131fcabe885e2d",
      "hash": "96fccaf1b4a2ad6a7e390d4445c4fbd3495793dacc029380f6131fcabe885e2d",
      "version": 1,
      "size": 225,
      "vsize": 225,
      "locktime": 0,
      "vin": [
        {
          "txid": "ae0667a848762d5a4ab02c3f7b5dfac451bb95ea9dc51490af577fd86792d3b2",
          "vout": 0,
          "scriptSig": {
            "asm": "304402207d5b9ddd8ec35556645c1cf8adc843744b89be1907262f02a888d7154be4b87702206480cdb08007f9ed814a16d1fe0a70762b3353ec82bd535e83c284545c1d50b6[ALL] 0240d22b9e4e6a4d9275fb09926edd779f604d74b2e8674ad0dc963308b36fe6d9",
            "hex": "47304402207d5b9ddd8ec35556645c1cf8adc843744b89be1907262f02a888d7154be4b87702206480cdb08007f9ed814a16d1fe0a70762b3353ec82bd535e83c284545c1d50b601210240d22b9e4e6a4d9275fb09926edd779f604d74b2e8674ad0dc963308b36fe6d9"
          },
          "sequence": 4294967295
        }
      ],
      "vout": [
        {
          "value": 0.02995716,
          "n": 0,
          "scriptPubKey": {
            "asm": "OP_DUP OP_HASH160 58f3822b2e43ec762a38b3e335ab5b4044470f6b OP_EQUALVERIFY OP_CHECKSIG",
            "hex": "76a91458f3822b2e43ec762a38b3e335ab5b4044470f6b88ac",
            "reqSigs": 1,
            "type": "pubkeyhash",
            "addresses": [
              "LTLHSMnvjdMQYi5tCqJ69iGZMRQs7SJHwp"
            ]
          }
        }, 
        {
          "value": 0.23265958,
          "n": 1,
          "scriptPubKey": {
            "asm": "OP_DUP OP_HASH160 fedc623d74cd7881b0cb2c004a1f2c47e4763bde OP_EQUALVERIFY OP_CHECKSIG",
            "hex": "76a914fedc623d74cd7881b0cb2c004a1f2c47e4763bde88ac",
            "reqSigs": 1,
            "type": "pubkeyhash",
            "addresses": [
              "LiTXuUBACJ19tbeX6q39cya4ed3veZ4vra"
            ]
          }
        }
      ],
      "hex": "0100000001b2d39267d87f57af9014c59dea95bb51c4fa5d7b3f2cb04a5a2d7648a86706ae000000006a47304402207d5b9ddd8ec35556645c1cf8adc843744b89be1907262f02a888d7154be4b87702206480cdb08007f9ed814a16d1fe0a70762b3353ec82bd535e83c284545c1d50b601210240d22b9e4e6a4d9275fb09926edd779f604d74b2e8674ad0dc963308b36fe6d9ffffffff0204b62d00000000001976a91458f3822b2e43ec762a38b3e335ab5b4044470f6b88aca6026301000000001976a914fedc623d74cd7881b0cb2c004a1f2c47e4763bde88ac00000000"
    }, 
    {
      "txid": "b2b2f722862e242492461f9da1144f1c8a9afbb7864b8c4631c23c2f52c60740",
      "hash": "b2b2f722862e242492461f9da1144f1c8a9afbb7864b8c4631c23c2f52c60740",
      "version": 1,
      "size": 225,
      "vsize": 225,
      "locktime": 0,
      "vin": [
        {
          "txid": "0a5672bb5cadbd5d8ffde896b69d217dcf1900d974804e5a96577c6f102b67fe",
          "vout": 46,
          "scriptSig": {
            "asm": "304402202cf9dee5652a1e7999a8868d53cb895725fb6a8ca7e92b19810b3f9879160d42022018c7c059ae44a047297412d969ddcc6defa1f1396872494e8473fd0b27b48d92[ALL] 02ef288f7bc6e7ccf811b0122cdd2f2880dee99307b8b16604bee3431a3b79ea17",
            "hex": "47304402202cf9dee5652a1e7999a8868d53cb895725fb6a8ca7e92b19810b3f9879160d42022018c7c059ae44a047297412d969ddcc6defa1f1396872494e8473fd0b27b48d92012102ef288f7bc6e7ccf811b0122cdd2f2880dee99307b8b16604bee3431a3b79ea17"
          },
          "sequence": 4294967295
        }
      ],
      "vout": [
        {
          "value": 0.05252645,
          "n": 0,
          "scriptPubKey": {
            "asm": "OP_DUP OP_HASH160 0962cb4fb850b6fbb58107216332abff5395b015 OP_EQUALVERIFY OP_CHECKSIG",
            "hex": "76a9140962cb4fb850b6fbb58107216332abff5395b01588ac",
            "reqSigs": 1,
            "type": "pubkeyhash",
            "addresses": [
              "LL5ahHBYaVSyPiTohLMMZQz2iosN5uMJwi"
            ]
          }
        }, 
        {
          "value": 0.57724755,
          "n": 1,
          "scriptPubKey": {
            "asm": "OP_DUP OP_HASH160 67e3012579a50344b05e82a83a0b874cb35eea09 OP_EQUALVERIFY OP_CHECKSIG",
            "hex": "76a91467e3012579a50344b05e82a83a0b874cb35eea0988ac",
            "reqSigs": 1,
            "type": "pubkeyhash",
            "addresses": [
              "LUhFoX4pigrHuJ76izbKkjG8fyZQQhnZXh"
            ]
          }
        }
      ],
      "hex": "0100000001fe672b106f7c57965a4e8074d90019cf7d219db696e8fd8f5dbdad5cbb72560a2e0000006a47304402202cf9dee5652a1e7999a8868d53cb895725fb6a8ca7e92b19810b3f9879160d42022018c7c059ae44a047297412d969ddcc6defa1f1396872494e8473fd0b27b48d92012102ef288f7bc6e7ccf811b0122cdd2f2880dee99307b8b16604bee3431a3b79ea17ffffffff0225265000000000001976a9140962cb4fb850b6fbb58107216332abff5395b01588ac53cf7003000000001976a91467e3012579a50344b05e82a83a0b874cb35eea0988ac00000000"
    }, 
    {
      "txid": "dbf0d41f8724073f721b94c72f8ebd7709bebcac9dee4c698dc74312c1590059",
      "hash": "dbf0d41f8724073f721b94c72f8ebd7709bebcac9dee4c698dc74312c1590059",
      "version": 1,
      "size": 225,
      "vsize": 225,
      "locktime": 0,
      "vin": [
        {
          "txid": "68bf4bea2519fda61935d8bca169f4906b4c50711910e82797227927dd0b0f70",
          "vout": 1,
          "scriptSig": {
            "asm": "304402204b2f6961949f9982e7fc31f4eb0e4a308a107a5872858dabef835f6779423b5e02200d5b008076d0aaefc127da78c854a1046ac734289968326e7d7624effc5e2abe[ALL] 02811239f9e5b19c4ee854781da3e8ae33dad1464b3a8721c5cddbee747e0356d8",
            "hex": "47304402204b2f6961949f9982e7fc31f4eb0e4a308a107a5872858dabef835f6779423b5e02200d5b008076d0aaefc127da78c854a1046ac734289968326e7d7624effc5e2abe012102811239f9e5b19c4ee854781da3e8ae33dad1464b3a8721c5cddbee747e0356d8"
          },
          "sequence": 4294967295
        }
      ],
      "vout": [
        {
          "value": 2.11244000,
          "n": 0,
          "scriptPubKey": {
            "asm": "OP_DUP OP_HASH160 ff41c84ef0bd127a444654733d4dd2728531a5ce OP_EQUALVERIFY OP_CHECKSIG",
            "hex": "76a914ff41c84ef0bd127a444654733d4dd2728531a5ce88ac",
            "reqSigs": 1,
            "type": "pubkeyhash",
            "addresses": [
              "LiVdNmtpFACddfkqDn5doD8W93bYozVQTC"
            ]
          }
        }, 
        {
          "value": 0.04157739,
          "n": 1,
          "scriptPubKey": {
            "asm": "OP_DUP OP_HASH160 b6d9ab2185ca9bd6629f45207b4f4c176edf2be9 OP_EQUALVERIFY OP_CHECKSIG",
            "hex": "76a914b6d9ab2185ca9bd6629f45207b4f4c176edf2be988ac",
            "reqSigs": 1,
            "type": "pubkeyhash",
            "addresses": [
              "LbtmzzoAPJ8rQZYuUhAZxbY3uy3U9KEJ7L"
            ]
          }
        }
      ],
      "hex": "0100000001700f0bdd2779229727e8101971504c6b90f469a1bcd83519a6fd1925ea4bbf68010000006a47304402204b2f6961949f9982e7fc31f4eb0e4a308a107a5872858dabef835f6779423b5e02200d5b008076d0aaefc127da78c854a1046ac734289968326e7d7624effc5e2abe012102811239f9e5b19c4ee854781da3e8ae33dad1464b3a8721c5cddbee747e0356d8ffffffff02e053970c000000001976a914ff41c84ef0bd127a444654733d4dd2728531a5ce88ac2b713f00000000001976a914b6d9ab2185ca9bd6629f45207b4f4c176edf2be988ac00000000"
    }, 
    {
      "txid": "905cae0bcac7f692477ec47b78246ec6fb1316a6846901e4fa668250ed6f39b9",
      "hash": "905cae0bcac7f692477ec47b78246ec6fb1316a6846901e4fa668250ed6f39b9",
      "version": 2,
      "size": 225,
      "vsize": 225,
      "locktime": 1359900,
      "vin": [
        {
          "txid": "3c6828777cd80287bd8b5b9ad27a0c43707cb9fb30b5ace024e56ce25e6c682d",
          "vout": 1,
          "scriptSig": {
            "asm": "30440220790004dce13bae3994da26d93531322a80b3d13fca18dc5fee3ef24b8558e1d302204118ef8baf5d723545fb4b728108896d4a3575abcd472d6e27217814080679a5[ALL] 039d4ed5ac70e97f3fa073ee363c89404e10969f7d5bd2530c8ae8b05a36fd8ba5",
            "hex": "4730440220790004dce13bae3994da26d93531322a80b3d13fca18dc5fee3ef24b8558e1d302204118ef8baf5d723545fb4b728108896d4a3575abcd472d6e27217814080679a50121039d4ed5ac70e97f3fa073ee363c89404e10969f7d5bd2530c8ae8b05a36fd8ba5"
          },
          "sequence": 4294967294
        }
      ],
      "vout": [
        {
          "value": 2.48311800,
          "n": 0,
          "scriptPubKey": {
            "asm": "OP_DUP OP_HASH160 113c1548846c8b7cb3ce58bdb0e5014c9ae3db9b OP_EQUALVERIFY OP_CHECKSIG",
            "hex": "76a914113c1548846c8b7cb3ce58bdb0e5014c9ae3db9b88ac",
            "reqSigs": 1,
            "type": "pubkeyhash",
            "addresses": [
              "LLo5j88UmL8tBnKheez3FAkH3eRA8iJFrv"
            ]
          }
        }, 
        {
          "value": 25.11007332,
          "n": 1,
          "scriptPubKey": {
            "asm": "OP_DUP OP_HASH160 f940f3b1bd34a32555664283975a390cc25465de OP_EQUALVERIFY OP_CHECKSIG",
            "hex": "76a914f940f3b1bd34a32555664283975a390cc25465de88ac",
            "reqSigs": 1,
            "type": "pubkeyhash",
            "addresses": [
              "LhwtKvCbzzWeXM9nU3gLTggkuFQgnJeXkC"
            ]
          }
        }
      ],
      "hex": "02000000012d686c5ee26ce524e0acb530fbb97c70430c7ad29a5b8bbd8702d87c7728683c010000006a4730440220790004dce13bae3994da26d93531322a80b3d13fca18dc5fee3ef24b8558e1d302204118ef8baf5d723545fb4b728108896d4a3575abcd472d6e27217814080679a50121039d4ed5ac70e97f3fa073ee363c89404e10969f7d5bd2530c8ae8b05a36fd8ba5feffffff02f8efcc0e000000001976a914113c1548846c8b7cb3ce58bdb0e5014c9ae3db9b88ac64eeaa95000000001976a914f940f3b1bd34a32555664283975a390cc25465de88ac1cc01400"
    }, 
    {
      "txid": "3a8289e9032d00b09e24d01135cf87f63bb19ebd1697651c70aca426db5558bc",
      "hash": "3a8289e9032d00b09e24d01135cf87f63bb19ebd1697651c70aca426db5558bc",
      "version": 1,
      "size": 225,
      "vsize": 225,
      "locktime": 0,
      "vin": [
        {
          "txid": "98e5f74c8822f2ded8f2a40e08808e8a232f8ccd1a75737d795775e08dd0857b",
          "vout": 9,
          "scriptSig": {
            "asm": "304402204dd4a8b81c46b74c1172ef6d4aa2cb6670224a7a9cf48e6c548c5a8cf35ce403022007d79e127bf47289a2f1c058fac37a3ee551bebf011570a33d8bbe992d59ea21[ALL] 036c2ceee49e7ba20929e857262048327aa57509cba701072f9c0819d41ebc6a66",
            "hex": "47304402204dd4a8b81c46b74c1172ef6d4aa2cb6670224a7a9cf48e6c548c5a8cf35ce403022007d79e127bf47289a2f1c058fac37a3ee551bebf011570a33d8bbe992d59ea210121036c2ceee49e7ba20929e857262048327aa57509cba701072f9c0819d41ebc6a66"
          },
          "sequence": 4294967295
        }
      ],
      "vout": [
        {
          "value": 0.90000000,
          "n": 0,
          "scriptPubKey": {
            "asm": "OP_DUP OP_HASH160 44494c5b91391e39d46e38aec6fe7b8b2175b32f OP_EQUALVERIFY OP_CHECKSIG",
            "hex": "76a91444494c5b91391e39d46e38aec6fe7b8b2175b32f88ac",
            "reqSigs": 1,
            "type": "pubkeyhash",
            "addresses": [
              "LRT227Ni7v9E26US8jMEw6da6J4MBBaEzM"
            ]
          }
        }, 
        {
          "value": 0.08977400,
          "n": 1,
          "scriptPubKey": {
            "asm": "OP_DUP OP_HASH160 8adc4c0f5e07146689fd11c9c67bfaf75132d423 OP_EQUALVERIFY OP_CHECKSIG",
            "hex": "76a9148adc4c0f5e07146689fd11c9c67bfaf75132d42388ac",
            "reqSigs": 1,
            "type": "pubkeyhash",
            "addresses": [
              "LXtBRCPN1SW26n5TRVQpxkFawkFFQyPZ5N"
            ]
          }
        }
      ],
      "hex": "01000000017b85d08de07557797d73751acd8c2f238a8e80080ea4f2d8def222884cf7e598090000006a47304402204dd4a8b81c46b74c1172ef6d4aa2cb6670224a7a9cf48e6c548c5a8cf35ce403022007d79e127bf47289a2f1c058fac37a3ee551bebf011570a33d8bbe992d59ea210121036c2ceee49e7ba20929e857262048327aa57509cba701072f9c0819d41ebc6a66ffffffff02804a5d05000000001976a91444494c5b91391e39d46e38aec6fe7b8b2175b32f88acf8fb8800000000001976a9148adc4c0f5e07146689fd11c9c67bfaf75132d42388ac00000000"
    }, 
    {
      "txid": "b8fdde1fd7fb9406184ed6e8ec67cb82a5c338b0465905079480e681656d05d4",
      "hash": "b8fdde1fd7fb9406184ed6e8ec67cb82a5c338b0465905079480e681656d05d4",
      "version": 1,
      "size": 225,
      "vsize": 225,
      "locktime": 0,
      "vin": [
        {
          "txid": "c640183c44fba8d2fcc3aa53e3101f7837fba2bb8d99325d4e389ccdc2efb5b9",
          "vout": 1,
          "scriptSig": {
            "asm": "304402202181b46c1d9f3a532c506e2d2fe96335d42a7769d4d777b0dc6ae6a4277d2f7c02200e1985cf3f4d4093c70ad278dcf28de54edeb612520e6c2c094f9ebf30eca11d[ALL] 0255bdbde129327c166e017dde45fd1b5a9723f1eb1d0cd4b15d1439236a0534a0",
            "hex": "47304402202181b46c1d9f3a532c506e2d2fe96335d42a7769d4d777b0dc6ae6a4277d2f7c02200e1985cf3f4d4093c70ad278dcf28de54edeb612520e6c2c094f9ebf30eca11d01210255bdbde129327c166e017dde45fd1b5a9723f1eb1d0cd4b15d1439236a0534a0"
          },
          "sequence": 4294967295
        }
      ],
      "vout": [
        {
          "value": 0.13952098,
          "n": 0,
          "scriptPubKey": {
            "asm": "OP_DUP OP_HASH160 f325f50ebc0bbbc659683a291f8eecc252ada192 OP_EQUALVERIFY OP_CHECKSIG",
            "hex": "76a914f325f50ebc0bbbc659683a291f8eecc252ada19288ac",
            "reqSigs": 1,
            "type": "pubkeyhash",
            "addresses": [
              "LhPbw9KKRqNeuXnrQ6FqzoMbZDpPcFkhoz"
            ]
          }
        }, 
        {
          "value": 1.05625302,
          "n": 1,
          "scriptPubKey": {
            "asm": "OP_DUP OP_HASH160 06fdd4e63e84a161c05469d27da0b1bbd2dbad5e OP_EQUALVERIFY OP_CHECKSIG",
            "hex": "76a91406fdd4e63e84a161c05469d27da0b1bbd2dbad5e88ac",
            "reqSigs": 1,
            "type": "pubkeyhash",
            "addresses": [
              "LKrvPttQxD1KmHL9uEAmPrWCDBkjqqQYvs"
            ]
          }
        }
      ],
      "hex": "0100000001b9b5efc2cd9c384e5d32998dbba2fb37781f10e353aac3fcd2a8fb443c1840c6010000006a47304402202181b46c1d9f3a532c506e2d2fe96335d42a7769d4d777b0dc6ae6a4277d2f7c02200e1985cf3f4d4093c70ad278dcf28de54edeb612520e6c2c094f9ebf30eca11d01210255bdbde129327c166e017dde45fd1b5a9723f1eb1d0cd4b15d1439236a0534a0ffffffff0262e4d400000000001976a914f325f50ebc0bbbc659683a291f8eecc252ada19288acd6b64b06000000001976a91406fdd4e63e84a161c05469d27da0b1bbd2dbad5e88ac00000000"
    }, 
    {
      "txid": "aedf4b2c0902ff49aad58abb030f0f25d2c48fdc9d526c564678471ca759056a",
      "hash": "aedf4b2c0902ff49aad58abb030f0f25d2c48fdc9d526c564678471ca759056a",
      "version": 1,
      "size": 226,
      "vsize": 226,
      "locktime": 0,
      "vin": [
        {
          "txid": "0f5dccc526b7bd3fdc561f94f0b102554f473bdd39605f6895d284dc55ecb881",
          "vout": 0,
          "scriptSig": {
            "asm": "3045022100860634a4e6dcaee0bc40adae7dc437c9bbbcefb2400014a8d567eff6755ffcd4022057580506ef1342107ea57dca1ac93d3df5f500a29eda60fb2d2b66ca9213147c[ALL] 03a06ea4a0be5e14c9b8d56aa2112709c33b45de9b8189d62794d469d43708f39a",
            "hex": "483045022100860634a4e6dcaee0bc40adae7dc437c9bbbcefb2400014a8d567eff6755ffcd4022057580506ef1342107ea57dca1ac93d3df5f500a29eda60fb2d2b66ca9213147c012103a06ea4a0be5e14c9b8d56aa2112709c33b45de9b8189d62794d469d43708f39a"
          },
          "sequence": 4294967295
        }
      ],
      "vout": [
        {
          "value": 0.00656871,
          "n": 0,
          "scriptPubKey": {
            "asm": "OP_DUP OP_HASH160 ed7f5e5c6f37261d0d5abaf96006fbadcdb90d70 OP_EQUALVERIFY OP_CHECKSIG",
            "hex": "76a914ed7f5e5c6f37261d0d5abaf96006fbadcdb90d7088ac",
            "reqSigs": 1,
            "type": "pubkeyhash",
            "addresses": [
              "LgsizQH6cfvzSem7TqAh1VV1G9WxWkgj4n"
            ]
          }
        }, 
        {
          "value": 0.21609748,
          "n": 1,
          "scriptPubKey": {
            "asm": "OP_DUP OP_HASH160 ff0ff3366df71c92210f3b22cf41b8a68bc47554 OP_EQUALVERIFY OP_CHECKSIG",
            "hex": "76a914ff0ff3366df71c92210f3b22cf41b8a68bc4755488ac",
            "reqSigs": 1,
            "type": "pubkeyhash",
            "addresses": [
              "LiUbgMkfEfxd3JEBDkFqFCNapkSpeEDZjA"
            ]
          }
        }
      ],
      "hex": "010000000181b8ec55dc84d295685f6039dd3b474f5502b1f0941f56dc3fbdb726c5cc5d0f000000006b483045022100860634a4e6dcaee0bc40adae7dc437c9bbbcefb2400014a8d567eff6755ffcd4022057580506ef1342107ea57dca1ac93d3df5f500a29eda60fb2d2b66ca9213147c012103a06ea4a0be5e14c9b8d56aa2112709c33b45de9b8189d62794d469d43708f39affffffff02e7050a00000000001976a914ed7f5e5c6f37261d0d5abaf96006fbadcdb90d7088ac14bd4901000000001976a914ff0ff3366df71c92210f3b22cf41b8a68bc4755488ac00000000"
    }, 
    {
      "txid": "62e4dac71ba733dd7455737eee35b4f47b512e0c36dfb3260198678e844f80cc",
      "hash": "62e4dac71ba733dd7455737eee35b4f47b512e0c36dfb3260198678e844f80cc",
      "version": 1,
      "size": 226,
      "vsize": 226,
      "locktime": 0,
      "vin": [
        {
          "txid": "1c92761dacf9ba377773f2ac609d4621307f4b41bae5420a045848a5bb7614b5",
          "vout": 38,
          "scriptSig": {
            "asm": "3045022100918fb8490515309c9dd5420558f3382f851b6488a22bc5834e882a1ac8756f7d0220489506b6fdb9b9f70719f850d66139c82c090e2b17471247920c267c59b08fa4[ALL] 024ce702b0f4670fe02821cd684832edd3f77ca0ed06f8c50ef366ea50634ee322",
            "hex": "483045022100918fb8490515309c9dd5420558f3382f851b6488a22bc5834e882a1ac8756f7d0220489506b6fdb9b9f70719f850d66139c82c090e2b17471247920c267c59b08fa40121024ce702b0f4670fe02821cd684832edd3f77ca0ed06f8c50ef366ea50634ee322"
          },
          "sequence": 4294967295
        }
      ],
      "vout": [
        {
          "value": 0.86598432,
          "n": 0,
          "scriptPubKey": {
            "asm": "OP_DUP OP_HASH160 71fc3c9851ec33353ff9ec59da5f5d8e6ca633e6 OP_EQUALVERIFY OP_CHECKSIG",
            "hex": "76a91471fc3c9851ec33353ff9ec59da5f5d8e6ca633e688ac",
            "reqSigs": 1,
            "type": "pubkeyhash",
            "addresses": [
              "LVcenbvc8nTHMh3a2Q6FC8db9r9uUYZ7kS"
            ]
          }
        }, 
        {
          "value": 0.01689568,
          "n": 1,
          "scriptPubKey": {
            "asm": "OP_DUP OP_HASH160 65b352a08cfab9029b7119a43c4e4f373387a5b2 OP_EQUALVERIFY OP_CHECKSIG",
            "hex": "76a91465b352a08cfab9029b7119a43c4e4f373387a5b288ac",
            "reqSigs": 1,
            "type": "pubkeyhash",
            "addresses": [
              "LUVhL9m3nBRFfxUyxNrkVu85TcvycfZLc2"
            ]
          }
        }
      ],
      "hex": "0100000001b51476bba54858040a42e5ba414b7f3021469d60acf2737737baf9ac1d76921c260000006b483045022100918fb8490515309c9dd5420558f3382f851b6488a22bc5834e882a1ac8756f7d0220489506b6fdb9b9f70719f850d66139c82c090e2b17471247920c267c59b08fa40121024ce702b0f4670fe02821cd684832edd3f77ca0ed06f8c50ef366ea50634ee322ffffffff0220632905000000001976a91471fc3c9851ec33353ff9ec59da5f5d8e6ca633e688ace0c71900000000001976a91465b352a08cfab9029b7119a43c4e4f373387a5b288ac00000000"
    }, 
    {
      "txid": "331d310bcd0f6edc9c24bdeabf58397c33b3acadaeadfbb4d313a72c2c85e334",
      "hash": "331d310bcd0f6edc9c24bdeabf58397c33b3acadaeadfbb4d313a72c2c85e334",
      "version": 1,
      "size": 1814,
      "vsize": 1814,
      "locktime": 0,
      "vin": [
        {
          "txid": "52392b4b3f6264bfe6808ca4aff99e6b3ff60e2001ff7b1fd4714caa34f490cd",
          "vout": 1,
          "scriptSig": {
            "asm": "30450221009597fb49c4e872bea3e0d978c1f4df6ea91531f00e931c2e697ac9a0cfde8f0e02206dca2d4098bd9144ae034f5ffaf73106cebcd53bfb3f41f58d90c0210d7c4efb[ALL] 036f044d14e300af54cb46448e3c1586d0324bdb0e5ba88bbb2b445b6d214daf46",
            "hex": "4830450221009597fb49c4e872bea3e0d978c1f4df6ea91531f00e931c2e697ac9a0cfde8f0e02206dca2d4098bd9144ae034f5ffaf73106cebcd53bfb3f41f58d90c0210d7c4efb0121036f044d14e300af54cb46448e3c1586d0324bdb0e5ba88bbb2b445b6d214daf46"
          },
          "sequence": 4294967295
        }, 
        {
          "txid": "2ffefbdffe474a6ec91d4f14d1617343fd252aa1646d97167c6ff57c7d8b01b3",
          "vout": 31,
          "scriptSig": {
            "asm": "30440220614c872179998ff343bbd4fc559b8c8f6c51b4575a30c361a5788edb94669c830220193ed0122af6c78f790918be31834f1be42e607c8d8f11598163a8380f4c3cb0[ALL] 038e89cedfa91b2e03d2f3d444cabe55a31086e13281508a2ac98fb8e2c16850cc",
            "hex": "4730440220614c872179998ff343bbd4fc559b8c8f6c51b4575a30c361a5788edb94669c830220193ed0122af6c78f790918be31834f1be42e607c8d8f11598163a8380f4c3cb00121038e89cedfa91b2e03d2f3d444cabe55a31086e13281508a2ac98fb8e2c16850cc"
          },
          "sequence": 4294967295
        }, 
        {
          "txid": "58ac64ab88300ef5cd94e9dca3c1e4f1d8832eaf8fda59890f2459d2cc3eebb6",
          "vout": 5,
          "scriptSig": {
            "asm": "3045022100b6978e2b49abdc6170748a2bd66f5d4c42155899ec74707c3946146a42a6c48c02206c3a8196868777ffe9c3dbe4211e54c801192a30b424a33726c96d023b026771[ALL] 02c897033df6e75a050063fc93de1944767853d6b5a6428c217436cb0608eee78e",
            "hex": "483045022100b6978e2b49abdc6170748a2bd66f5d4c42155899ec74707c3946146a42a6c48c02206c3a8196868777ffe9c3dbe4211e54c801192a30b424a33726c96d023b026771012102c897033df6e75a050063fc93de1944767853d6b5a6428c217436cb0608eee78e"
          },
          "sequence": 4294967295
        }, 
        {
          "txid": "351a7380617642329e4d576df7b1c2a8c9c30e8a2004d57f6cbdd1dace89f521",
          "vout": 1,
          "scriptSig": {
            "asm": "304402202b4ecf2ca485f82c572e2c84019e71b15708e2750065e7c01ff61841e1326b08022050c3edd5cf82edd824b68cd383cf76aeb768b2f614ba63c56115421e5d6f3d9d[ALL] 025a55efc79257a8989abe350d1b282a695586488b7c8b14a0dfaa5feeb3b35b17",
            "hex": "47304402202b4ecf2ca485f82c572e2c84019e71b15708e2750065e7c01ff61841e1326b08022050c3edd5cf82edd824b68cd383cf76aeb768b2f614ba63c56115421e5d6f3d9d0121025a55efc79257a8989abe350d1b282a695586488b7c8b14a0dfaa5feeb3b35b17"
          },
          "sequence": 4294967295
        }, 
        {
          "txid": "507688447415bcf5aad234735c302b633c78f6f99447d5e61ccd4feb685d8c6e",
          "vout": 0,
          "scriptSig": {
            "asm": "30450221009dcbffb33dabc56d36be0cf42b03ef08788d692ec17728290b1bea0393622f0f02200ed06c15d94bff26774bb65ea5b712dff21dea8be6b0e9eac977ab2c974f32c8[ALL] 03b88d91207af02bf61929399c0eba8c84789e6bdd190a992c7cd2fa3372590a07",
            "hex": "4830450221009dcbffb33dabc56d36be0cf42b03ef08788d692ec17728290b1bea0393622f0f02200ed06c15d94bff26774bb65ea5b712dff21dea8be6b0e9eac977ab2c974f32c8012103b88d91207af02bf61929399c0eba8c84789e6bdd190a992c7cd2fa3372590a07"
          },
          "sequence": 4294967295
        }, 
        {
          "txid": "0cf4c67e703e97ad9827ad1a42994b289a13d7fd1fbbdc416c822e9894cea6f7",
          "vout": 0,
          "scriptSig": {
            "asm": "3045022100c8e61b3b4dead1f13bec7db48566b400fd85934031cf5cce71439b220080e35202207d1d0b5008342acdf4a38bb8059c9383ea526f5f619529fc24a592d3040096a3[ALL] 02220625efc523d69cb6d6814a4df0c40c844061be6db880eee605f1979595ec8d",
            "hex": "483045022100c8e61b3b4dead1f13bec7db48566b400fd85934031cf5cce71439b220080e35202207d1d0b5008342acdf4a38bb8059c9383ea526f5f619529fc24a592d3040096a3012102220625efc523d69cb6d6814a4df0c40c844061be6db880eee605f1979595ec8d"
          },
          "sequence": 4294967295
        }, 
        {
          "txid": "1518d38c33dcd4c47bf16cec4271a113280fc7961b414a12cc57b651e21bedd5",
          "vout": 0,
          "scriptSig": {
            "asm": "304402201cf34c004a94cd045e2bc75b03de1f704bad328ff37968ac083bafa5a5dfab6a02207f7469db39877d2a7dff5534f29cec4b9bbecbcbdc21305151607924dd6074a5[ALL] 02b2f55df7718a393c67586e7f1aa17329f4000ad939bd6f47467df13c8f1d0019",
            "hex": "47304402201cf34c004a94cd045e2bc75b03de1f704bad328ff37968ac083bafa5a5dfab6a02207f7469db39877d2a7dff5534f29cec4b9bbecbcbdc21305151607924dd6074a5012102b2f55df7718a393c67586e7f1aa17329f4000ad939bd6f47467df13c8f1d0019"
          },
          "sequence": 4294967295
        }, 
        {
          "txid": "da5a48b48ad7dc04d65bba28b523c1828384ec97e3d0ec279485571052144809",
          "vout": 1,
          "scriptSig": {
            "asm": "3045022100c1d150b2480fa3c938f1e0dc8cd00cd5fc147e98107fe5cc9b03e2760cca1d5f022063901e434b1209e6b8a691cee87e52892c7d2ddccf28a0982cbb74e8101908fd[ALL] 023991114bdd819aca5ae085d741bd9fe8e841da89f8120616227c6759ca2d2396",
            "hex": "483045022100c1d150b2480fa3c938f1e0dc8cd00cd5fc147e98107fe5cc9b03e2760cca1d5f022063901e434b1209e6b8a691cee87e52892c7d2ddccf28a0982cbb74e8101908fd0121023991114bdd819aca5ae085d741bd9fe8e841da89f8120616227c6759ca2d2396"
          },
          "sequence": 4294967295
        }, 
        {
          "txid": "116ab8c1acb030308f31aebad6ede67819c5a1e0a2c4d18ead4a271be3d465e8",
          "vout": 2,
          "scriptSig": {
            "asm": "3045022100eef33131e58b115f6ff4147dbd108ed70575ef950a8668157027a946e3ddb00802207eb77601d2af05ee11c47a9feef6cc1bdf5d53b6b365fda1ddf91a58c9a42721[ALL] 038f36767b678af66a6a80093c229551e2f3d55edf8feecb88280e71503ce231d5",
            "hex": "483045022100eef33131e58b115f6ff4147dbd108ed70575ef950a8668157027a946e3ddb00802207eb77601d2af05ee11c47a9feef6cc1bdf5d53b6b365fda1ddf91a58c9a427210121038f36767b678af66a6a80093c229551e2f3d55edf8feecb88280e71503ce231d5"
          },
          "sequence": 4294967295
        }, 
        {
          "txid": "b97a2076373c8d47ca033d288bce390cffdd9bf437239d245245477cf0e85001",
          "vout": 3,
          "scriptSig": {
            "asm": "30440220606e2c436e1617a71c47ba5a656408e49faed73f781336bf82975021a5b4cb6b02202e75b648b18f81616ac0d955f1d65f9b74f193038d990225b498f2b8f751588d[ALL] 02151bc4ca37809764472ae5a3f1ed908b96ee0c7129d3d5deab0c7ef1f6690305",
            "hex": "4730440220606e2c436e1617a71c47ba5a656408e49faed73f781336bf82975021a5b4cb6b02202e75b648b18f81616ac0d955f1d65f9b74f193038d990225b498f2b8f751588d012102151bc4ca37809764472ae5a3f1ed908b96ee0c7129d3d5deab0c7ef1f6690305"
          },
          "sequence": 4294967295
        }, 
        {
          "txid": "bbec70a99bbf921aecc4595b3c4b36ea905667edcfa49d004529878ad62b0046",
          "vout": 1,
          "scriptSig": {
            "asm": "3044022012577758a3fd416c7b8af7726269d577a1c2fe414bb63af999200b189f127e870220108d934386ae94789e6e2a7cb87efab2c25d77bd1aedd3c3faa34642e6afc839[ALL] 021236f820acd01c091fd55ffaf0ea508524a749f6da8b8432e04e0c951af27f35",
            "hex": "473044022012577758a3fd416c7b8af7726269d577a1c2fe414bb63af999200b189f127e870220108d934386ae94789e6e2a7cb87efab2c25d77bd1aedd3c3faa34642e6afc8390121021236f820acd01c091fd55ffaf0ea508524a749f6da8b8432e04e0c951af27f35"
          },
          "sequence": 4294967295
        }, 
        {
          "txid": "96f41b60471a1f4e0f4e0fb803335a534de7b532e9531cbb0f500146bf869715",
          "vout": 0,
          "scriptSig": {
            "asm": "3044022005e3f9244fa1639521131890f906ee8a30b3cb81bc3ac1f52ecb7388916bd222022064478048bbe72444da32152ef33590aabdca529eb2dc779fbbb7b7e8059a6666[ALL] 0301e5235d20d12e73145034c3e4a965560a472c34a657f8bde4de989ad2857da3",
            "hex": "473044022005e3f9244fa1639521131890f906ee8a30b3cb81bc3ac1f52ecb7388916bd222022064478048bbe72444da32152ef33590aabdca529eb2dc779fbbb7b7e8059a666601210301e5235d20d12e73145034c3e4a965560a472c34a657f8bde4de989ad2857da3"
          },
          "sequence": 4294967295
        }
      ],
      "vout": [
        {
          "value": 430.37076915,
          "n": 0,
          "scriptPubKey": {
            "asm": "OP_DUP OP_HASH160 6c2614c7b45ef8dfa8dc83e6739ddbe201d05ab0 OP_EQUALVERIFY OP_CHECKSIG",
            "hex": "76a9146c2614c7b45ef8dfa8dc83e6739ddbe201d05ab088ac",
            "reqSigs": 1,
            "type": "pubkeyhash",
            "addresses": [
              "LV5nrreyVZJVvptA9PZSD4ViegKh7Qa8MA"
            ]
          }
        }
      ],
      "hex": "010000000ccd90f434aa4c71d41f7bff01200ef63f6b9ef9afa48c80e6bf64623f4b2b3952010000006b4830450221009597fb49c4e872bea3e0d978c1f4df6ea91531f00e931c2e697ac9a0cfde8f0e02206dca2d4098bd9144ae034f5ffaf73106cebcd53bfb3f41f58d90c0210d7c4efb0121036f044d14e300af54cb46448e3c1586d0324bdb0e5ba88bbb2b445b6d214daf46ffffffffb3018b7d7cf56f7c16976d64a12a25fd437361d1144f1dc96e4a47fedffbfe2f1f0000006a4730440220614c872179998ff343bbd4fc559b8c8f6c51b4575a30c361a5788edb94669c830220193ed0122af6c78f790918be31834f1be42e607c8d8f11598163a8380f4c3cb00121038e89cedfa91b2e03d2f3d444cabe55a31086e13281508a2ac98fb8e2c16850ccffffffffb6eb3eccd259240f8959da8faf2e83d8f1e4c1a3dce994cdf50e3088ab64ac58050000006b483045022100b6978e2b49abdc6170748a2bd66f5d4c42155899ec74707c3946146a42a6c48c02206c3a8196868777ffe9c3dbe4211e54c801192a30b424a33726c96d023b026771012102c897033df6e75a050063fc93de1944767853d6b5a6428c217436cb0608eee78effffffff21f589cedad1bd6c7fd504208a0ec3c9a8c2b1f76d574d9e3242766180731a35010000006a47304402202b4ecf2ca485f82c572e2c84019e71b15708e2750065e7c01ff61841e1326b08022050c3edd5cf82edd824b68cd383cf76aeb768b2f614ba63c56115421e5d6f3d9d0121025a55efc79257a8989abe350d1b282a695586488b7c8b14a0dfaa5feeb3b35b17ffffffff6e8c5d68eb4fcd1ce6d54794f9f6783c632b305c7334d2aaf5bc157444887650000000006b4830450221009dcbffb33dabc56d36be0cf42b03ef08788d692ec17728290b1bea0393622f0f02200ed06c15d94bff26774bb65ea5b712dff21dea8be6b0e9eac977ab2c974f32c8012103b88d91207af02bf61929399c0eba8c84789e6bdd190a992c7cd2fa3372590a07fffffffff7a6ce94982e826c41dcbb1ffdd7139a284b99421aad2798ad973e707ec6f40c000000006b483045022100c8e61b3b4dead1f13bec7db48566b400fd85934031cf5cce71439b220080e35202207d1d0b5008342acdf4a38bb8059c9383ea526f5f619529fc24a592d3040096a3012102220625efc523d69cb6d6814a4df0c40c844061be6db880eee605f1979595ec8dffffffffd5ed1be251b657cc124a411b96c70f2813a17142ec6cf17bc4d4dc338cd31815000000006a47304402201cf34c004a94cd045e2bc75b03de1f704bad328ff37968ac083bafa5a5dfab6a02207f7469db39877d2a7dff5534f29cec4b9bbecbcbdc21305151607924dd6074a5012102b2f55df7718a393c67586e7f1aa17329f4000ad939bd6f47467df13c8f1d0019ffffffff094814521057859427ecd0e397ec848382c123b528ba5bd604dcd78ab4485ada010000006b483045022100c1d150b2480fa3c938f1e0dc8cd00cd5fc147e98107fe5cc9b03e2760cca1d5f022063901e434b1209e6b8a691cee87e52892c7d2ddccf28a0982cbb74e8101908fd0121023991114bdd819aca5ae085d741bd9fe8e841da89f8120616227c6759ca2d2396ffffffffe865d4e31b274aad8ed1c4a2e0a1c51978e6edd6baae318f3030b0acc1b86a11020000006b483045022100eef33131e58b115f6ff4147dbd108ed70575ef950a8668157027a946e3ddb00802207eb77601d2af05ee11c47a9feef6cc1bdf5d53b6b365fda1ddf91a58c9a427210121038f36767b678af66a6a80093c229551e2f3d55edf8feecb88280e71503ce231d5ffffffff0150e8f07c474552249d2337f49bddff0c39ce8b283d03ca478d3c3776207ab9030000006a4730440220606e2c436e1617a71c47ba5a656408e49faed73f781336bf82975021a5b4cb6b02202e75b648b18f81616ac0d955f1d65f9b74f193038d990225b498f2b8f751588d012102151bc4ca37809764472ae5a3f1ed908b96ee0c7129d3d5deab0c7ef1f6690305ffffffff46002bd68a872945009da4cfed675690ea364b3c5b59c4ec1a92bf9ba970ecbb010000006a473044022012577758a3fd416c7b8af7726269d577a1c2fe414bb63af999200b189f127e870220108d934386ae94789e6e2a7cb87efab2c25d77bd1aedd3c3faa34642e6afc8390121021236f820acd01c091fd55ffaf0ea508524a749f6da8b8432e04e0c951af27f35ffffffff159786bf4601500fbb1c53e932b5e74d535a3303b80f4e0f4e1f1a47601bf496000000006a473044022005e3f9244fa1639521131890f906ee8a30b3cb81bc3ac1f52ecb7388916bd222022064478048bbe72444da32152ef33590aabdca529eb2dc779fbbb7b7e8059a666601210301e5235d20d12e73145034c3e4a965560a472c34a657f8bde4de989ad2857da3ffffffff01b3ad35050a0000001976a9146c2614c7b45ef8dfa8dc83e6739ddbe201d05ab088ac00000000"
    }
  ],
  "time": 1517347127,
  "mediantime": 1517346619,
  "nonce": 2541574986,
  "bits": "1a042eae",
  "difficulty": 4011378.762614286,
  "chainwork": "0000000000000000000000000000000000000000000000347165a54f36efe348",
  "previousblockhash": "6865dfaaa2cbb6e6c36c571e4f1653e36518bb128c8fd14a291fdae9e1a9d820",
  "nextblockhash": "746b364cdf50c228abd0f6b8689796560363c01e6c6bbd6b1b8ba0e606b1910b"
}
