{
  "hash": "bd8a2e990fe87440781a03d07550c262af0e94bb786a95246604ffffca253d9b",
  "confirmations": 2600,
  "strippedsize": 234,
  "size": 234,
  "weight": 936,
  "height": 1358395,
  "version": 536870912,
  "versionHex": "20000000",
  "merkleroot": "e23d3dbd81d12531347c3d32e8b1158b6c4c969789f799646399c8aa5ab1ae86",
  "tx": [
    {
      "txid": "e23d3dbd81d12531347c3d32e8b1158b6c4c969789f799646399c8aa5ab1ae86",
      "hash": "e23d3dbd81d12531347c3d32e8b1158b6c4c969789f799646399c8aa5ab1ae86",
      "version": 1,
      "size": 153,
      "vsize": 153,
      "locktime": 0,
      "vin": [
        {
          "coinbase": "033bba14045a6da5b02cfabe6d6d9d6c5dac137ae9f792ee1a7b207ab1472be8cd240bfc3515c8a474343bc616a04000000000000000042f4c502f085600118826640000",
          "sequence": 4294967295
        }
      ],
      "vout": [
        {
          "value": 25.00000000,
          "n": 0,
          "scriptPubKey": {
            "asm": "OP_DUP OP_HASH160 57757ed2ecf2052ff3126c397aca7defb9ca2cec OP_EQUALVERIFY OP_CHECKSIG",
            "hex": "76a91457757ed2ecf2052ff3126c397aca7defb9ca2cec88ac",
            "reqSigs": 1,
            "type": "pubkeyhash",
            "addresses": [
              "LTCPodGk5FwcJaRzH9yKnwicxzFUbxp6tN"
            ]
          }
        }
      ],
      "hex": "01000000010000000000000000000000000000000000000000000000000000000000000000ffffffff44033bba14045a6da5b02cfabe6d6d9d6c5dac137ae9f792ee1a7b207ab1472be8cd240bfc3515c8a474343bc616a04000000000000000042f4c502f085600118826640000ffffffff0100f90295000000001976a91457757ed2ecf2052ff3126c397aca7defb9ca2cec88ac00000000"
    }
  ],
  "time": 1517135280,
  "mediantime": 1517134899,
  "nonce": 3942745220,
  "bits": "1a047f14",
  "difficulty": 3731199.183374282,
  "chainwork": "0000000000000000000000000000000000000000000000330e5b5ba0995e8d18",
  "previousblockhash": "f5f985b8c17950ea8820237a15675ebb2ee88bc886f9f15619ba71af929586fb",
  "nextblockhash": "4ac45a710b69125fc57fde3acb2cb4ba3964e44b4430b5d8cbab8607f44445a5"
}
