{
  "hash": "bda3c10d581d5704487c446b2456faed977411825783c823eaab5f0812664215",
  "confirmations": 2871,
  "strippedsize": 253,
  "size": 253,
  "weight": 1012,
  "height": 1358124,
  "version": 536870912,
  "versionHex": "20000000",
  "merkleroot": "f0a4d74a5d92dc24205b457b4934833f6f0acd1630551728d6a61d568b2122e5",
  "tx": [
    {
      "txid": "f0a4d74a5d92dc24205b457b4934833f6f0acd1630551728d6a61d568b2122e5",
      "hash": "f0a4d74a5d92dc24205b457b4934833f6f0acd1630551728d6a61d568b2122e5",
      "version": 1,
      "size": 172,
      "vsize": 172,
      "locktime": 0,
      "vin": [
        {
          "coinbase": "032cb9141a4d696e656420627920416e74506f6f6c20626a3242205a6d005cfabe6d6dc2bd9d4cbae85c35dd7cc18eb54826fbc35418ca42f1747876b853985e37aa3f04000000000000007b0c0000000000001f000000",
          "sequence": 4294967295
        }
      ],
      "vout": [
        {
          "value": 25.00000000,
          "n": 0,
          "scriptPubKey": {
            "asm": "OP_DUP OP_HASH160 0ff3ccc5e8be88afe24b5d634e5852d474dbdff1 OP_EQUALVERIFY OP_CHECKSIG",
            "hex": "76a9140ff3ccc5e8be88afe24b5d634e5852d474dbdff188ac",
            "reqSigs": 1,
            "type": "pubkeyhash",
            "addresses": [
              "LLgJTbzZMsRTCUF1NtvvL9SR1a4pVieW89"
            ]
          }
        }
      ],
      "hex": "01000000010000000000000000000000000000000000000000000000000000000000000000ffffffff57032cb9141a4d696e656420627920416e74506f6f6c20626a3242205a6d005cfabe6d6dc2bd9d4cbae85c35dd7cc18eb54826fbc35418ca42f1747876b853985e37aa3f04000000000000007b0c0000000000001f000000ffffffff0100f90295000000001976a9140ff3ccc5e8be88afe24b5d634e5852d474dbdff188ac00000000"
    }
  ],
  "time": 1517092956,
  "mediantime": 1517092094,
  "nonce": 1077785376,
  "bits": "1a047f14",
  "difficulty": 3731199.183374282,
  "chainwork": "000000000000000000000000000000000000000000000032d2161f38ab306d92",
  "previousblockhash": "7df980511a3463a29853949210548a67f6612df79efd7ecfbb0fbd7d9b25b3c2",
  "nextblockhash": "72c5934de5f7b86fc64ddf82ac90b2a1d177bec2fee864932e1ef549a05f3603"
}
