{
  "hash": "bdb1d768a9c824ebecfeb83b1cee86d547fdb179936f3575f01777e29dc567f9",
  "confirmations": 3474,
  "strippedsize": 253,
  "size": 253,
  "weight": 1012,
  "height": 1357521,
  "version": 536870912,
  "versionHex": "20000000",
  "merkleroot": "a7eaf60659d32002cf8fd33d1044a019ae6fe216a69df7653e2990574dc1fe5d",
  "tx": [
    {
      "txid": "a7eaf60659d32002cf8fd33d1044a019ae6fe216a69df7653e2990574dc1fe5d",
      "hash": "a7eaf60659d32002cf8fd33d1044a019ae6fe216a69df7653e2990574dc1fe5d",
      "version": 1,
      "size": 172,
      "vsize": 172,
      "locktime": 0,
      "vin": [
        {
          "coinbase": "03d1b6141a4d696e656420627920416e74506f6f6c20626a3242205a6bc87ffabe6d6d789761521149b9e59f96545099b5f7d4a2b8352350f07c2ed0be5163a5a4888e0400000000000000b92400000000000001000000",
          "sequence": 4294967295
        }
      ],
      "vout": [
        {
          "value": 25.00000000,
          "n": 0,
          "scriptPubKey": {
            "asm": "OP_DUP OP_HASH160 0ff3ccc5e8be88afe24b5d634e5852d474dbdff1 OP_EQUALVERIFY OP_CHECKSIG",
            "hex": "76a9140ff3ccc5e8be88afe24b5d634e5852d474dbdff188ac",
            "reqSigs": 1,
            "type": "pubkeyhash",
            "addresses": [
              "LLgJTbzZMsRTCUF1NtvvL9SR1a4pVieW89"
            ]
          }
        }
      ],
      "hex": "01000000010000000000000000000000000000000000000000000000000000000000000000ffffffff5703d1b6141a4d696e656420627920416e74506f6f6c20626a3242205a6bc87ffabe6d6d789761521149b9e59f96545099b5f7d4a2b8352350f07c2ed0be5163a5a4888e0400000000000000b92400000000000001000000ffffffff0100f90295000000001976a9140ff3ccc5e8be88afe24b5d634e5852d474dbdff188ac00000000"
    }
  ],
  "time": 1517013119,
  "mediantime": 1517012075,
  "nonce": 1882982449,
  "bits": "1a047f14",
  "difficulty": 3731199.183374282,
  "chainwork": "0000000000000000000000000000000000000000000000324bfaa6099ee25c54",
  "previousblockhash": "35ceb783b510060c482724889c5d1a15f5ca35c81caad592b5a032bba1ada716",
  "nextblockhash": "9f2fe4770a872fe8ebc19a6905a801d9b15e501290d044b723ac1dc5ef8ea843"
}
