{
  "hash": "bdb66e3f92aab0d3dadf304da2e8c4b7857e49c90f5aa7c4ccaa35785f876c58",
  "confirmations": 1098,
  "strippedsize": 234,
  "size": 234,
  "weight": 936,
  "height": 1359896,
  "version": 536870912,
  "versionHex": "20000000",
  "merkleroot": "4df8f415653f07382b1c9dd9a4af5b29cc46e401e844f6c17411c4109e1a83c5",
  "tx": [
    {
      "txid": "4df8f415653f07382b1c9dd9a4af5b29cc46e401e844f6c17411c4109e1a83c5",
      "hash": "4df8f415653f07382b1c9dd9a4af5b29cc46e401e844f6c17411c4109e1a83c5",
      "version": 1,
      "size": 153,
      "vsize": 153,
      "locktime": 0,
      "vin": [
        {
          "coinbase": "0318c014045a70dcc62cfabe6d6d434edbd68fdc1c29ba3f1df148dcb06f4d1c89294ab4f50b66d6db8d8122e3714000000000000000042f4c502f085c00488503000000",
          "sequence": 4294967295
        }
      ],
      "vout": [
        {
          "value": 25.00000000,
          "n": 0,
          "scriptPubKey": {
            "asm": "OP_DUP OP_HASH160 57757ed2ecf2052ff3126c397aca7defb9ca2cec OP_EQUALVERIFY OP_CHECKSIG",
            "hex": "76a91457757ed2ecf2052ff3126c397aca7defb9ca2cec88ac",
            "reqSigs": 1,
            "type": "pubkeyhash",
            "addresses": [
              "LTCPodGk5FwcJaRzH9yKnwicxzFUbxp6tN"
            ]
          }
        }
      ],
      "hex": "01000000010000000000000000000000000000000000000000000000000000000000000000ffffffff440318c014045a70dcc62cfabe6d6d434edbd68fdc1c29ba3f1df148dcb06f4d1c89294ab4f50b66d6db8d8122e3714000000000000000042f4c502f085c00488503000000ffffffff0100f90295000000001976a91457757ed2ecf2052ff3126c397aca7defb9ca2cec88ac00000000"
    }
  ],
  "time": 1517345990,
  "mediantime": 1517345038,
  "nonce": 2248001578,
  "bits": "1a042eae",
  "difficulty": 4011378.762614286,
  "chainwork": "0000000000000000000000000000000000000000000000346ec456bf84da9ab2",
  "previousblockhash": "aa42fd998ab152c37a4e28b16f717c056bd38047ceaa95a5d9ede70697003c77",
  "nextblockhash": "f2c9d68bf26957bd92fdff0a14ec546499a5848947913f4506457b10cefb9ab9"
}
