{
  "hash": "bded381c00fd13a343ee29138b9490ab94f1941c01b85d61e3de22331f2e6e38",
  "confirmations": 30,
  "strippedsize": 254,
  "size": 254,
  "weight": 1016,
  "height": 1360964,
  "version": 536870912,
  "versionHex": "20000000",
  "merkleroot": "d4dac9b3a72b96b7a90e5e41bbfdef205c4219f7810f251906fa283db7d52d55",
  "tx": [
    {
      "txid": "d4dac9b3a72b96b7a90e5e41bbfdef205c4219f7810f251906fa283db7d52d55",
      "hash": "d4dac9b3a72b96b7a90e5e41bbfdef205c4219f7810f251906fa283db7d52d55",
      "version": 1,
      "size": 173,
      "vsize": 173,
      "locktime": 0,
      "vin": [
        {
          "coinbase": "0344c4141b4d696e656420627920416e74506f6f6c20626a302042205a7347d1fabe6d6dd1dc680d1b00daeb13327e2f08fccddd3fc351dfee18266e4d1e6739aee7c9ba04000000000000007c2a0000000000000f000000",
          "sequence": 4294967295
        }
      ],
      "vout": [
        {
          "value": 25.00000000,
          "n": 0,
          "scriptPubKey": {
            "asm": "OP_DUP OP_HASH160 0ff3ccc5e8be88afe24b5d634e5852d474dbdff1 OP_EQUALVERIFY OP_CHECKSIG",
            "hex": "76a9140ff3ccc5e8be88afe24b5d634e5852d474dbdff188ac",
            "reqSigs": 1,
            "type": "pubkeyhash",
            "addresses": [
              "LLgJTbzZMsRTCUF1NtvvL9SR1a4pVieW89"
            ]
          }
        }
      ],
      "hex": "01000000010000000000000000000000000000000000000000000000000000000000000000ffffffff580344c4141b4d696e656420627920416e74506f6f6c20626a302042205a7347d1fabe6d6dd1dc680d1b00daeb13327e2f08fccddd3fc351dfee18266e4d1e6739aee7c9ba04000000000000007c2a0000000000000f000000ffffffff0100f90295000000001976a9140ff3ccc5e8be88afe24b5d634e5852d474dbdff188ac00000000"
    }
  ],
  "time": 1517504465,
  "mediantime": 1517503996,
  "nonce": 20508354,
  "bits": "1a04088e",
  "difficulty": 4159490.835685156,
  "chainwork": "0000000000000000000000000000000000000000000000356f953932eeaa3510",
  "previousblockhash": "fa002979b6ea557b4842854f87e669ae2467803f303a634be64b92f2ada5f9dd",
  "nextblockhash": "1f32cb4e6b2d3db8d5ed7c8aea1c22b06142af2f16a5cc79b76a40119466a134"
}
