{
  "hash": "be2de86e1a4c8f8691fee2ec18cf3c153057a9623ea17f3d1d5d2359d03c7344",
  "confirmations": 873,
  "strippedsize": 253,
  "size": 253,
  "weight": 1012,
  "height": 1360121,
  "version": 536870912,
  "versionHex": "20000000",
  "merkleroot": "68076b5e04f32304127b5aac943e6182e0e02e379621c1998fb17ea7f87800d0",
  "tx": [
    {
      "txid": "68076b5e04f32304127b5aac943e6182e0e02e379621c1998fb17ea7f87800d0",
      "hash": "68076b5e04f32304127b5aac943e6182e0e02e379621c1998fb17ea7f87800d0",
      "version": 1,
      "size": 172,
      "vsize": 172,
      "locktime": 0,
      "vin": [
        {
          "coinbase": "03f9c0141a4d696e656420627920416e74506f6f6c20626a3532205a71552bfabe6d6d0f8f83f7cf50a513c815ad3b64731a8c703fe21d9a00ef4b32eb1010447f3d980400000000000000393700000000000001000000",
          "sequence": 4294967295
        }
      ],
      "vout": [
        {
          "value": 25.00000000,
          "n": 0,
          "scriptPubKey": {
            "asm": "OP_DUP OP_HASH160 0ff3ccc5e8be88afe24b5d634e5852d474dbdff1 OP_EQUALVERIFY OP_CHECKSIG",
            "hex": "76a9140ff3ccc5e8be88afe24b5d634e5852d474dbdff188ac",
            "reqSigs": 1,
            "type": "pubkeyhash",
            "addresses": [
              "LLgJTbzZMsRTCUF1NtvvL9SR1a4pVieW89"
            ]
          }
        }
      ],
      "hex": "01000000010000000000000000000000000000000000000000000000000000000000000000ffffffff5703f9c0141a4d696e656420627920416e74506f6f6c20626a3532205a71552bfabe6d6d0f8f83f7cf50a513c815ad3b64731a8c703fe21d9a00ef4b32eb1010447f3d980400000000000000393700000000000001000000ffffffff0100f90295000000001976a9140ff3ccc5e8be88afe24b5d634e5852d474dbdff188ac00000000"
    }
  ],
  "time": 1517376811,
  "mediantime": 1517376431,
  "nonce": 4042542656,
  "bits": "1a042eae",
  "difficulty": 4011378.762614286,
  "chainwork": "000000000000000000000000000000000000000000000034a49086694b1995f4",
  "previousblockhash": "d3cf381b5f39cc32c8630b6a03c6dd45222db61ac58b6792efff128e6d9d6c5e",
  "nextblockhash": "e3a197f5c2331a9c839a14a9d85cce974ea7e3186371fea03ea788475ca068fe"
}
