{
  "hash": "bf02ec263d7f6ed236374d5a3b81ee10f05758079346cdef9d445fce4ba56f71",
  "confirmations": 3251,
  "strippedsize": 3753,
  "size": 3789,
  "weight": 15048,
  "height": 1357744,
  "version": 536870912,
  "versionHex": "20000000",
  "merkleroot": "aaf0f80b92415c445c45b52be8e655b3025749da609e735e754c1b360518f4c0",
  "tx": [
    {
      "txid": "5dd87634039ae2db699892620e75c21d0a949a73ddf55ba322467603a8566a43",
      "hash": "d43f3fe875eef62372719c7d30e209363882874c03d3edb8dcd39e17b802e575",
      "version": 1,
      "size": 243,
      "vsize": 216,
      "locktime": 0,
      "vin": [
        {
          "coinbase": "03b0b71404bf3a6c5afabe6d6d975e819f32f3bcf362da79ade927dd45056756f0ef9bc22222625fc225672e4010000000000000000850001786380000000c2f44595a533941594a554e2f",
          "sequence": 0
        }
      ],
      "vout": [
        {
          "value": 25.02065000,
          "n": 0,
          "scriptPubKey": {
            "asm": "OP_DUP OP_HASH160 81308472f5a29a68cec40cbb4cd3f4be72094456 OP_EQUALVERIFY OP_CHECKSIG",
            "hex": "76a91481308472f5a29a68cec40cbb4cd3f4be7209445688ac",
            "reqSigs": 1,
            "type": "pubkeyhash",
            "addresses": [
              "LX13Z1HZKVzRDabi8CsPdGhp7YbC7Q8qtn"
            ]
          }
        }, 
        {
          "value": 0.00000000,
          "n": 1,
          "scriptPubKey": {
            "asm": "OP_RETURN aa21a9ede672d90feda35308707f4a88fbaeb3fa7f9f32703b15807c822c55485d4feca1",
            "hex": "6a24aa21a9ede672d90feda35308707f4a88fbaeb3fa7f9f32703b15807c822c55485d4feca1",
            "type": "nulldata"
          }
        }
      ],
      "hex": "010000000001010000000000000000000000000000000000000000000000000000000000000000ffffffff4b03b0b71404bf3a6c5afabe6d6d975e819f32f3bcf362da79ade927dd45056756f0ef9bc22222625fc225672e4010000000000000000850001786380000000c2f44595a533941594a554e2f0000000002687b2295000000001976a91481308472f5a29a68cec40cbb4cd3f4be7209445688ac0000000000000000266a24aa21a9ede672d90feda35308707f4a88fbaeb3fa7f9f32703b15807c822c55485d4feca10120000000000000000000000000000000000000000000000000000000000000000000000000"
    }, 
    {
      "txid": "380f1ae1fc68d58927bc2a05af232ca0a7673e0a1e705e6470b4315c09e02bc6",
      "hash": "380f1ae1fc68d58927bc2a05af232ca0a7673e0a1e705e6470b4315c09e02bc6",
      "version": 1,
      "size": 225,
      "vsize": 225,
      "locktime": 0,
      "vin": [
        {
          "txid": "897f51cc40b780c74dd2ce6c2e590a2fb0597ff290e3c75055ff04fd89f6446e",
          "vout": 0,
          "scriptSig": {
            "asm": "30440220110e008a1685491c058e89b05bb689e9b80ffbfbd80e2a792a512159b1394bf002205e4f2ade2d9fbe882509de6b3c7225eb062a19f8b3d38939fbab69bc8cc7bc0a[ALL] 02dcb7bb16446f05ce19431fc1093eb2fdb6fe70228085ac6b2f16a2ef61bf66b9",
            "hex": "4730440220110e008a1685491c058e89b05bb689e9b80ffbfbd80e2a792a512159b1394bf002205e4f2ade2d9fbe882509de6b3c7225eb062a19f8b3d38939fbab69bc8cc7bc0a012102dcb7bb16446f05ce19431fc1093eb2fdb6fe70228085ac6b2f16a2ef61bf66b9"
          },
          "sequence": 4294967295
        }
      ],
      "vout": [
        {
          "value": 49.00000000,
          "n": 0,
          "scriptPubKey": {
            "asm": "OP_DUP OP_HASH160 8e6c135c3118517943a85633d6bc0cf799db7a81 OP_EQUALVERIFY OP_CHECKSIG",
            "hex": "76a9148e6c135c3118517943a85633d6bc0cf799db7a8188ac",
            "reqSigs": 1,
            "type": "pubkeyhash",
            "addresses": [
              "LYD1ggLXvkLSkMX7u4M4GuDzxnLkMJyrwt"
            ]
          }
        }, 
        {
          "value": 19.75000000,
          "n": 1,
          "scriptPubKey": {
            "asm": "OP_DUP OP_HASH160 21aa01c878901df0291020e9016f9fdae107e764 OP_EQUALVERIFY OP_CHECKSIG",
            "hex": "76a91421aa01c878901df0291020e9016f9fdae107e76488ac",
            "reqSigs": 1,
            "type": "pubkeyhash",
            "addresses": [
              "LNHxDqMKKFjQBqVfSahq3qVd1ErfoSfreU"
            ]
          }
        }
      ],
      "hex": "01000000016e44f689fd04ff5550c7e390f27f59b02f0a592e6cced24dc780b740cc517f89000000006a4730440220110e008a1685491c058e89b05bb689e9b80ffbfbd80e2a792a512159b1394bf002205e4f2ade2d9fbe882509de6b3c7225eb062a19f8b3d38939fbab69bc8cc7bc0a012102dcb7bb16446f05ce19431fc1093eb2fdb6fe70228085ac6b2f16a2ef61bf66b9ffffffff0200111024010000001976a9148e6c135c3118517943a85633d6bc0cf799db7a8188acc01bb875000000001976a91421aa01c878901df0291020e9016f9fdae107e76488ac00000000"
    }, 
    {
      "txid": "c3286ca188475a7e8e5f4f48fc8316df4f6bf7455c58f57d6682b45a0dcf5219",
      "hash": "c3286ca188475a7e8e5f4f48fc8316df4f6bf7455c58f57d6682b45a0dcf5219",
      "version": 1,
      "size": 225,
      "vsize": 225,
      "locktime": 0,
      "vin": [
        {
          "txid": "a170e40308b0843fa04a65bcce0351daae35f0809022e302e19b0270849ccc1e",
          "vout": 0,
          "scriptSig": {
            "asm": "3044022032f6a8a5c2088ac322866059aae81f89a483f7d8237ce4c56caecbfd0d9e3bc302201046b1dd9e6fbbc4d3bbca6046610aeb94fb9496185baa839f812d2ccd88aa68[ALL] 0300e2e8c367beadaefac40754286cf1ea712f8861eb9859e0d2194a9fee06c579",
            "hex": "473044022032f6a8a5c2088ac322866059aae81f89a483f7d8237ce4c56caecbfd0d9e3bc302201046b1dd9e6fbbc4d3bbca6046610aeb94fb9496185baa839f812d2ccd88aa6801210300e2e8c367beadaefac40754286cf1ea712f8861eb9859e0d2194a9fee06c579"
          },
          "sequence": 4294967295
        }
      ],
      "vout": [
        {
          "value": 0.21565894,
          "n": 0,
          "scriptPubKey": {
            "asm": "OP_DUP OP_HASH160 e57c961d50e26cfc68cb24685fb1015759f6b1c5 OP_EQUALVERIFY OP_CHECKSIG",
            "hex": "76a914e57c961d50e26cfc68cb24685fb1015759f6b1c588ac",
            "reqSigs": 1,
            "type": "pubkeyhash",
            "addresses": [
              "Lg9NFZCUyMVwq7PabuUkDGJDDjBuLTy4mf"
            ]
          }
        }, 
        {
          "value": 0.01019257,
          "n": 1,
          "scriptPubKey": {
            "asm": "OP_DUP OP_HASH160 7a023cd72af728c31363d4e8d0622a1a680cee08 OP_EQUALVERIFY OP_CHECKSIG",
            "hex": "76a9147a023cd72af728c31363d4e8d0622a1a680cee0888ac",
            "reqSigs": 1,
            "type": "pubkeyhash",
            "addresses": [
              "LWM5P6GCZTVFaDoLULM7T5UzUhGvfpPguB"
            ]
          }
        }
      ],
      "hex": "01000000011ecc9c8470029be102e3229080f035aeda5103cebc654aa03f84b00803e470a1000000006a473044022032f6a8a5c2088ac322866059aae81f89a483f7d8237ce4c56caecbfd0d9e3bc302201046b1dd9e6fbbc4d3bbca6046610aeb94fb9496185baa839f812d2ccd88aa6801210300e2e8c367beadaefac40754286cf1ea712f8861eb9859e0d2194a9fee06c579ffffffff02c6114901000000001976a914e57c961d50e26cfc68cb24685fb1015759f6b1c588ac798d0f00000000001976a9147a023cd72af728c31363d4e8d0622a1a680cee0888ac00000000"
    }, 
    {
      "txid": "d7902da9a4f8b5c373ecdf0779daa530ed667627df8e5ddbc7b7af7d4a6301bb",
      "hash": "d7902da9a4f8b5c373ecdf0779daa530ed667627df8e5ddbc7b7af7d4a6301bb",
      "version": 1,
      "size": 225,
      "vsize": 225,
      "locktime": 0,
      "vin": [
        {
          "txid": "a0061b4b6d31170da02ac44c3d15c079e2654c2e16757c15fd074bd775f9d7ce",
          "vout": 13,
          "scriptSig": {
            "asm": "304402205b604409df41810ada32589e435d032b5c32fb531f46098e0119413c3035e56b02201fa6c6e183f3e4c06ccaf7d9d54f7f6b60fd26be1ff60607a3b8de5862bf68ea[ALL] 0306826c69de84aac753322f35cc6acf60c4c50ed144ea63d4582882267c747f06",
            "hex": "47304402205b604409df41810ada32589e435d032b5c32fb531f46098e0119413c3035e56b02201fa6c6e183f3e4c06ccaf7d9d54f7f6b60fd26be1ff60607a3b8de5862bf68ea01210306826c69de84aac753322f35cc6acf60c4c50ed144ea63d4582882267c747f06"
          },
          "sequence": 4294967295
        }
      ],
      "vout": [
        {
          "value": 0.01004340,
          "n": 0,
          "scriptPubKey": {
            "asm": "OP_DUP OP_HASH160 71889249d903abb2d34a9a4d4e795f7ffa9ca50e OP_EQUALVERIFY OP_CHECKSIG",
            "hex": "76a91471889249d903abb2d34a9a4d4e795f7ffa9ca50e88ac",
            "reqSigs": 1,
            "type": "pubkeyhash",
            "addresses": [
              "LVaGE3GBFkyJxFWjpbxCEzsxewtiSs1RqQ"
            ]
          }
        }, 
        {
          "value": 0.00100000,
          "n": 1,
          "scriptPubKey": {
            "asm": "OP_DUP OP_HASH160 b11510e95bd8039cc7627192e4263d8bba5b51b3 OP_EQUALVERIFY OP_CHECKSIG",
            "hex": "76a914b11510e95bd8039cc7627192e4263d8bba5b51b388ac",
            "reqSigs": 1,
            "type": "pubkeyhash",
            "addresses": [
              "LbNH6ryuW4KCKSLVZZnY3ZE7NyLoGXYKrh"
            ]
          }
        }
      ],
      "hex": "0100000001ced7f975d74b07fd157c75162e4c65e279c0153d4cc42aa00d17316d4b1b06a00d0000006a47304402205b604409df41810ada32589e435d032b5c32fb531f46098e0119413c3035e56b02201fa6c6e183f3e4c06ccaf7d9d54f7f6b60fd26be1ff60607a3b8de5862bf68ea01210306826c69de84aac753322f35cc6acf60c4c50ed144ea63d4582882267c747f06ffffffff0234530f00000000001976a91471889249d903abb2d34a9a4d4e795f7ffa9ca50e88aca0860100000000001976a914b11510e95bd8039cc7627192e4263d8bba5b51b388ac00000000"
    }, 
    {
      "txid": "925c4ace7e98b7cda9df034f5550232ee1c814999d853d6f3c69a35ce3229d1d",
      "hash": "925c4ace7e98b7cda9df034f5550232ee1c814999d853d6f3c69a35ce3229d1d",
      "version": 1,
      "size": 334,
      "vsize": 334,
      "locktime": 0,
      "vin": [
        {
          "txid": "a1d450043fcb085326da6fd23adf6714c16ce9d1ed2cfa5c81761c67f4c2ab3b",
          "vout": 1,
          "scriptSig": {
            "asm": "0 304402202f8c39b6461531d86d6baf650bb11651c7eb637b723f04147c430cc9bd26493f02207563ccf3362084d296b953a71bf96afd0f3639ad3699d44a50c14f857323ed12[ALL] 3044022062ec6a6ff44ab2bac8e4a190e321cc3b7d15826879d65f8a932a4342b9a3dce90220789b0ae5050d30b19b21311a03e6a1b06ad6a66a1671e59a639c61e6e15f655e[ALL] 522102f77ec37a042ba4e5e6aef7760398bf59b87ac4c5dee30a2fb8798e9630d4916e210276b93401dc495b28592f66411a7c9093b468f8678db51144fc6a36f550d94aa952ae",
            "hex": "0047304402202f8c39b6461531d86d6baf650bb11651c7eb637b723f04147c430cc9bd26493f02207563ccf3362084d296b953a71bf96afd0f3639ad3699d44a50c14f857323ed1201473044022062ec6a6ff44ab2bac8e4a190e321cc3b7d15826879d65f8a932a4342b9a3dce90220789b0ae5050d30b19b21311a03e6a1b06ad6a66a1671e59a639c61e6e15f655e0147522102f77ec37a042ba4e5e6aef7760398bf59b87ac4c5dee30a2fb8798e9630d4916e210276b93401dc495b28592f66411a7c9093b468f8678db51144fc6a36f550d94aa952ae"
          },
          "sequence": 4294967295
        }
      ],
      "vout": [
        {
          "value": 0.08229600,
          "n": 0,
          "scriptPubKey": {
            "asm": "OP_DUP OP_HASH160 2e4d500307e739b61d4cf9da3471778fd698e424 OP_EQUALVERIFY OP_CHECKSIG",
            "hex": "76a9142e4d500307e739b61d4cf9da3471778fd698e42488ac",
            "reqSigs": 1,
            "type": "pubkeyhash",
            "addresses": [
              "LPSmxomLPoyY7DBfnxbZSsUVcARvLDA5j8"
            ]
          }
        }, 
        {
          "value": 31.58301600,
          "n": 1,
          "scriptPubKey": {
            "asm": "OP_HASH160 75b77316f8d91ff71fb2819115d1b6b9e80ccee9 OP_EQUAL",
            "hex": "a91475b77316f8d91ff71fb2819115d1b6b9e80ccee987",
            "reqSigs": 1,
            "type": "scripthash",
            "addresses": [
              "MJdb4B3BMDrfpB1FpKsPYQ1tDHdkNa1oLB"
            ]
          }
        }
      ],
      "hex": "01000000013babc2f4671c76815cfa2cedd1e96cc11467df3ad26fda265308cb3f0450d4a101000000d90047304402202f8c39b6461531d86d6baf650bb11651c7eb637b723f04147c430cc9bd26493f02207563ccf3362084d296b953a71bf96afd0f3639ad3699d44a50c14f857323ed1201473044022062ec6a6ff44ab2bac8e4a190e321cc3b7d15826879d65f8a932a4342b9a3dce90220789b0ae5050d30b19b21311a03e6a1b06ad6a66a1671e59a639c61e6e15f655e0147522102f77ec37a042ba4e5e6aef7760398bf59b87ac4c5dee30a2fb8798e9630d4916e210276b93401dc495b28592f66411a7c9093b468f8678db51144fc6a36f550d94aa952aeffffffff02e0927d00000000001976a9142e4d500307e739b61d4cf9da3471778fd698e42488aca0db3fbc0000000017a91475b77316f8d91ff71fb2819115d1b6b9e80ccee98700000000"
    }, 
    {
      "txid": "cf406b1e5f9eaac5698e136f87b22f4e99f90956586eb5e0e133113a46fe11a0",
      "hash": "cf406b1e5f9eaac5698e136f87b22f4e99f90956586eb5e0e133113a46fe11a0",
      "version": 1,
      "size": 520,
      "vsize": 520,
      "locktime": 0,
      "vin": [
        {
          "txid": "e008fb33d68e4e56d516b520cb9dbcbb885ff73963ae3154e0c48423287a2a60",
          "vout": 21,
          "scriptSig": {
            "asm": "30440220351bfbdf375672b6c21207fc4e24c421c632a4e76b9c027e2b48b7fa83cb327f02201a6a12a53685f60eac5f6cbf0ff6b8a83361421f92fbc78ac6a9a9ce656a6368[ALL] 02525037d8afa7da3516707b472091221e1a928075c48d93dcff0938028751ff16",
            "hex": "4730440220351bfbdf375672b6c21207fc4e24c421c632a4e76b9c027e2b48b7fa83cb327f02201a6a12a53685f60eac5f6cbf0ff6b8a83361421f92fbc78ac6a9a9ce656a6368012102525037d8afa7da3516707b472091221e1a928075c48d93dcff0938028751ff16"
          },
          "sequence": 4294967295
        }, 
        {
          "txid": "7be7b83c428df22473f00cf295b87b692004473f92bad640c7a9793c9c269a63",
          "vout": 0,
          "scriptSig": {
            "asm": "304402207ebbf0144e688498f59369ba72394c5f6e12c19c90434ec6f5c252d464081aa4022015b4d512b7109d39e06c5733cf82ef45189155cafb532fb20d548eac3b0dc35e[ALL] 038418849b0e19d9ac554c2ed796a0db90587436d9b121d94b664d71d63178f010",
            "hex": "47304402207ebbf0144e688498f59369ba72394c5f6e12c19c90434ec6f5c252d464081aa4022015b4d512b7109d39e06c5733cf82ef45189155cafb532fb20d548eac3b0dc35e0121038418849b0e19d9ac554c2ed796a0db90587436d9b121d94b664d71d63178f010"
          },
          "sequence": 4294967295
        }, 
        {
          "txid": "60467a23e1189c2a723a0ff1598ae77dfae0dd23b8ff671f781d0e485e8d7e16",
          "vout": 20,
          "scriptSig": {
            "asm": "3045022100ef630a5cda3f356ed70e1529b194c1132441e23c0417238bb83ab47552bfecab022002c8a8d6027aa3e4bf9e93881df9357cc4e9f169a7b199ff07e902ae62f33920[ALL] 03358f18aa31e35e015cdb9e1ae6ee55240aede4d919119f491ad00cb5e10d3b35",
            "hex": "483045022100ef630a5cda3f356ed70e1529b194c1132441e23c0417238bb83ab47552bfecab022002c8a8d6027aa3e4bf9e93881df9357cc4e9f169a7b199ff07e902ae62f33920012103358f18aa31e35e015cdb9e1ae6ee55240aede4d919119f491ad00cb5e10d3b35"
          },
          "sequence": 4294967295
        }
      ],
      "vout": [
        {
          "value": 0.01000065,
          "n": 0,
          "scriptPubKey": {
            "asm": "OP_DUP OP_HASH160 aed771c6b65f246d5bf9a9552b07c754cb1ebeec OP_EQUALVERIFY OP_CHECKSIG",
            "hex": "76a914aed771c6b65f246d5bf9a9552b07c754cb1ebeec88ac",
            "reqSigs": 1,
            "type": "pubkeyhash",
            "addresses": [
              "LbARvw6bNcLRQGPcAP5mS5E17cSJL1uBkp"
            ]
          }
        }, 
        {
          "value": 8.71604543,
          "n": 1,
          "scriptPubKey": {
            "asm": "OP_DUP OP_HASH160 e97d0bb57b5010f776c9f4996f4e921217c7a52e OP_EQUALVERIFY OP_CHECKSIG",
            "hex": "76a914e97d0bb57b5010f776c9f4996f4e921217c7a52e88ac",
            "reqSigs": 1,
            "type": "pubkeyhash",
            "addresses": [
              "LgWXWErZztfRhm3cQHovQtqi9mz934KTes"
            ]
          }
        }
      ],
      "hex": "0100000003602a7a282384c4e05431ae6339f75f88bbbc9dcb20b516d5564e8ed633fb08e0150000006a4730440220351bfbdf375672b6c21207fc4e24c421c632a4e76b9c027e2b48b7fa83cb327f02201a6a12a53685f60eac5f6cbf0ff6b8a83361421f92fbc78ac6a9a9ce656a6368012102525037d8afa7da3516707b472091221e1a928075c48d93dcff0938028751ff16ffffffff639a269c3c79a9c740d6ba923f470420697bb895f20cf07324f28d423cb8e77b000000006a47304402207ebbf0144e688498f59369ba72394c5f6e12c19c90434ec6f5c252d464081aa4022015b4d512b7109d39e06c5733cf82ef45189155cafb532fb20d548eac3b0dc35e0121038418849b0e19d9ac554c2ed796a0db90587436d9b121d94b664d71d63178f010ffffffff167e8d5e480e1d781f67ffb823dde0fa7de78a59f10f3a722a9c18e1237a4660140000006b483045022100ef630a5cda3f356ed70e1529b194c1132441e23c0417238bb83ab47552bfecab022002c8a8d6027aa3e4bf9e93881df9357cc4e9f169a7b199ff07e902ae62f33920012103358f18aa31e35e015cdb9e1ae6ee55240aede4d919119f491ad00cb5e10d3b35ffffffff0281420f00000000001976a914aed771c6b65f246d5bf9a9552b07c754cb1ebeec88ac3fa1f333000000001976a914e97d0bb57b5010f776c9f4996f4e921217c7a52e88ac00000000"
    }, 
    {
      "txid": "b900fe46e90694c4b6a520c22518834cec269bb563c7b6a71e53e3cf6a2dcc59",
      "hash": "b900fe46e90694c4b6a520c22518834cec269bb563c7b6a71e53e3cf6a2dcc59",
      "version": 1,
      "size": 367,
      "vsize": 367,
      "locktime": 0,
      "vin": [
        {
          "txid": "625c0890f627b789737bb422c6f8049a6177d66827a46c3847d07421d64a4a5d",
          "vout": 59,
          "scriptSig": {
            "asm": "0 304402203aeaff9f913fc4d238172a9c3113d323f97a105c8f93b9d4721f61a3cef41534022029e53e0827b143243be9e84226160d4ef1c3d78caee001c6449eb005cbc01a21[ALL] 304402205da13a200e02acc7a0a021ecb1120e22547afac70ef054c3dc979afda8f0fd2c02205799d307fd0c8f67592be8370bda113f06ef1f056340dc36e400944d0428de9f[ALL] 522102a69bab443c98c65b05b4b6031d2f67dcc0330232d1454777af0df2cc8977dfa02102bf3952ae48efc8985014dbe0bb065496837e986d512f1bc01d4c062e60a4ac93210330d7c7094d4297c55c30261c251e747d668f3f53d815991d97dce558fcee4c2353ae",
            "hex": "0047304402203aeaff9f913fc4d238172a9c3113d323f97a105c8f93b9d4721f61a3cef41534022029e53e0827b143243be9e84226160d4ef1c3d78caee001c6449eb005cbc01a210147304402205da13a200e02acc7a0a021ecb1120e22547afac70ef054c3dc979afda8f0fd2c02205799d307fd0c8f67592be8370bda113f06ef1f056340dc36e400944d0428de9f014c69522102a69bab443c98c65b05b4b6031d2f67dcc0330232d1454777af0df2cc8977dfa02102bf3952ae48efc8985014dbe0bb065496837e986d512f1bc01d4c062e60a4ac93210330d7c7094d4297c55c30261c251e747d668f3f53d815991d97dce558fcee4c2353ae"
          },
          "sequence": 4294967295
        }
      ],
      "vout": [
        {
          "value": 0.44419283,
          "n": 0,
          "scriptPubKey": {
            "asm": "OP_HASH160 527269d6cbe73828c229bc5909c88e8d60348a36 OP_EQUAL",
            "hex": "a914527269d6cbe73828c229bc5909c88e8d60348a3687",
            "reqSigs": 1,
            "type": "scripthash",
            "addresses": [
              "MFR6hkAXS6cYVzj7xNf31n4EMGfpMQWT7D"
            ]
          }
        }, 
        {
          "value": 0.00537000,
          "n": 1,
          "scriptPubKey": {
            "asm": "OP_HASH160 bb2e19eb6f80c4b6a070bdca7ecbc099480c1215 OP_EQUAL",
            "hex": "a914bb2e19eb6f80c4b6a070bdca7ecbc099480c121587",
            "reqSigs": 1,
            "type": "scripthash",
            "addresses": [
              "MQxspUQkBPX628S8EEkTNb5QLmvWs8pVfF"
            ]
          }
        }
      ],
      "hex": "01000000015d4a4ad62174d047386ca42768d677619a04f8c622b47b7389b727f690085c623b000000fc0047304402203aeaff9f913fc4d238172a9c3113d323f97a105c8f93b9d4721f61a3cef41534022029e53e0827b143243be9e84226160d4ef1c3d78caee001c6449eb005cbc01a210147304402205da13a200e02acc7a0a021ecb1120e22547afac70ef054c3dc979afda8f0fd2c02205799d307fd0c8f67592be8370bda113f06ef1f056340dc36e400944d0428de9f014c69522102a69bab443c98c65b05b4b6031d2f67dcc0330232d1454777af0df2cc8977dfa02102bf3952ae48efc8985014dbe0bb065496837e986d512f1bc01d4c062e60a4ac93210330d7c7094d4297c55c30261c251e747d668f3f53d815991d97dce558fcee4c2353aeffffffff02d3c8a5020000000017a914527269d6cbe73828c229bc5909c88e8d60348a3687a83108000000000017a914bb2e19eb6f80c4b6a070bdca7ecbc099480c12158700000000"
    }, 
    {
      "txid": "f099fa027636ac64cfb963baf3d8a4c0029c0e0b8e5389a7ca3d5948f159f739",
      "hash": "f099fa027636ac64cfb963baf3d8a4c0029c0e0b8e5389a7ca3d5948f159f739",
      "version": 2,
      "size": 225,
      "vsize": 225,
      "locktime": 1357742,
      "vin": [
        {
          "txid": "95003ac3bf7ebd637c71e617aa8dff4aed3df322e614d17d477153c7a141f55d",
          "vout": 1,
          "scriptSig": {
            "asm": "304402207cd0fa37f834a86f3e51c6f89bd4f910354736aa9ada9f493ec6adb6569d2c8d02203d52a4185c54d746b07b3bdfbabcd8b8744efba4caf4ae2717f9df62801fa8bc[ALL] 03b41d1f090829bc5c00ba6df549b712c5664664f42bdb3bdfd4664e88ef9540ea",
            "hex": "47304402207cd0fa37f834a86f3e51c6f89bd4f910354736aa9ada9f493ec6adb6569d2c8d02203d52a4185c54d746b07b3bdfbabcd8b8744efba4caf4ae2717f9df62801fa8bc012103b41d1f090829bc5c00ba6df549b712c5664664f42bdb3bdfd4664e88ef9540ea"
          },
          "sequence": 4294967294
        }
      ],
      "vout": [
        {
          "value": 0.44673408,
          "n": 0,
          "scriptPubKey": {
            "asm": "OP_DUP OP_HASH160 b3fa64d941940ac57a4b9dcf68d0add45928e49a OP_EQUALVERIFY OP_CHECKSIG",
            "hex": "76a914b3fa64d941940ac57a4b9dcf68d0add45928e49a88ac",
            "reqSigs": 1,
            "type": "pubkeyhash",
            "addresses": [
              "LbdbBE6b7yHrwijtCmScu74HQdt9W8ibfb"
            ]
          }
        }, 
        {
          "value": 0.00977992,
          "n": 1,
          "scriptPubKey": {
            "asm": "OP_DUP OP_HASH160 b5cd02e992bd911f8782659fd67537cfc3272f09 OP_EQUALVERIFY OP_CHECKSIG",
            "hex": "76a914b5cd02e992bd911f8782659fd67537cfc3272f0988ac",
            "reqSigs": 1,
            "type": "pubkeyhash",
            "addresses": [
              "LboEANg1pxKnSZm3oRCaDoqwiiEUxy6FEn"
            ]
          }
        }
      ],
      "hex": "02000000015df541a1c75371477dd114e622f33ded4aff8daa17e6717c63bd7ebfc33a0095010000006a47304402207cd0fa37f834a86f3e51c6f89bd4f910354736aa9ada9f493ec6adb6569d2c8d02203d52a4185c54d746b07b3bdfbabcd8b8744efba4caf4ae2717f9df62801fa8bc012103b41d1f090829bc5c00ba6df549b712c5664664f42bdb3bdfd4664e88ef9540eafeffffff0280a9a902000000001976a914b3fa64d941940ac57a4b9dcf68d0add45928e49a88ac48ec0e00000000001976a914b5cd02e992bd911f8782659fd67537cfc3272f0988acaeb71400"
    }, 
    {
      "txid": "77c1b5719d185a63fbd1a5f64ea04478d03065f67b0dd91bef02eb50a855fe95",
      "hash": "77c1b5719d185a63fbd1a5f64ea04478d03065f67b0dd91bef02eb50a855fe95",
      "version": 1,
      "size": 225,
      "vsize": 225,
      "locktime": 0,
      "vin": [
        {
          "txid": "78a6d560eab80d9d73aff0c2fc7345440b1823bcf71536566fe493067e8e863f",
          "vout": 186,
          "scriptSig": {
            "asm": "30440220336d6afbc0a0c12a13e8ef3415dc0fe44d713e20dddb120c04334ffc02c4a64e022009a144deb0fdaee288572a9763657506690f235520628b6b00a119c038ea3f18[ALL] 02c676697211eacbdd7b92fd3180c32247a15d0e2bd758ef3b458d4d6d594bd82d",
            "hex": "4730440220336d6afbc0a0c12a13e8ef3415dc0fe44d713e20dddb120c04334ffc02c4a64e022009a144deb0fdaee288572a9763657506690f235520628b6b00a119c038ea3f18012102c676697211eacbdd7b92fd3180c32247a15d0e2bd758ef3b458d4d6d594bd82d"
          },
          "sequence": 4294967295
        }
      ],
      "vout": [
        {
          "value": 0.00073127,
          "n": 0,
          "scriptPubKey": {
            "asm": "OP_DUP OP_HASH160 25064e354120fe552c1e42b224d6a6884e945470 OP_EQUALVERIFY OP_CHECKSIG",
            "hex": "76a91425064e354120fe552c1e42b224d6a6884e94547088ac",
            "reqSigs": 1,
            "type": "pubkeyhash",
            "addresses": [
              "LNbipRaVc33qoo3BDGJeSaDiiiKe6d55vk"
            ]
          }
        }, 
        {
          "value": 0.12750000,
          "n": 1,
          "scriptPubKey": {
            "asm": "OP_DUP OP_HASH160 b0d784be62bde4afff800f30a2a925dc8a792b8d OP_EQUALVERIFY OP_CHECKSIG",
            "hex": "76a914b0d784be62bde4afff800f30a2a925dc8a792b8d88ac",
            "reqSigs": 1,
            "type": "pubkeyhash",
            "addresses": [
              "LbM1NTw37oPEDgipnXYyxAE7A6tRBmHcRA"
            ]
          }
        }
      ],
      "hex": "01000000013f868e7e0693e46f563615f7bc23180b444573fcc2f0af739d0db8ea60d5a678ba0000006a4730440220336d6afbc0a0c12a13e8ef3415dc0fe44d713e20dddb120c04334ffc02c4a64e022009a144deb0fdaee288572a9763657506690f235520628b6b00a119c038ea3f18012102c676697211eacbdd7b92fd3180c32247a15d0e2bd758ef3b458d4d6d594bd82dffffffff02a71d0100000000001976a91425064e354120fe552c1e42b224d6a6884e94547088acb08cc200000000001976a914b0d784be62bde4afff800f30a2a925dc8a792b8d88ac00000000"
    }, 
    {
      "txid": "4e6cbd079b549bc39c4d7285b04102ffb991e2300eb52c6d96fbdbd48864fbcd",
      "hash": "4e6cbd079b549bc39c4d7285b04102ffb991e2300eb52c6d96fbdbd48864fbcd",
      "version": 1,
      "size": 225,
      "vsize": 225,
      "locktime": 0,
      "vin": [
        {
          "txid": "52e959a0026aa99ad7f0756c34381e9cb388fd3f0422f8463fb4a4428ada87f2",
          "vout": 0,
          "scriptSig": {
            "asm": "304402201af70a2aec55bdc8d7dc44d561a69ab808667fb439e49618f771ad3f4754d04a02202d704f9f42bd8048d405af3b2f1a6a6a351c449fee44e6957a5c00f8f9c036a0[ALL] 03d95c7156b4eaa5c114b9b946e98b785480fda246e6eb59c0c2d9ab921e372dae",
            "hex": "47304402201af70a2aec55bdc8d7dc44d561a69ab808667fb439e49618f771ad3f4754d04a02202d704f9f42bd8048d405af3b2f1a6a6a351c449fee44e6957a5c00f8f9c036a0012103d95c7156b4eaa5c114b9b946e98b785480fda246e6eb59c0c2d9ab921e372dae"
          },
          "sequence": 4294967295
        }
      ],
      "vout": [
        {
          "value": 0.03946000,
          "n": 0,
          "scriptPubKey": {
            "asm": "OP_DUP OP_HASH160 cbc5cd915524f64ab3b3120f2750b5bd18daf5d1 OP_EQUALVERIFY OP_CHECKSIG",
            "hex": "76a914cbc5cd915524f64ab3b3120f2750b5bd18daf5d188ac",
            "reqSigs": 1,
            "type": "pubkeyhash",
            "addresses": [
              "LdoQPkL9vn7nsZUghVzeSNP1oiRLd9srTd"
            ]
          }
        }, 
        {
          "value": 0.00054631,
          "n": 1,
          "scriptPubKey": {
            "asm": "OP_DUP OP_HASH160 9abe6cf097bf981a008cdfac7b6a9a92f4f862ea OP_EQUALVERIFY OP_CHECKSIG",
            "hex": "76a9149abe6cf097bf981a008cdfac7b6a9a92f4f862ea88ac",
            "reqSigs": 1,
            "type": "pubkeyhash",
            "addresses": [
              "LZLASkg2zyEURQXWbRwSVgJr7GdQxYcwFj"
            ]
          }
        }
      ],
      "hex": "0100000001f287da8a42a4b43f46f822043ffd88b39c1e38346c75f0d79aa96a02a059e952000000006a47304402201af70a2aec55bdc8d7dc44d561a69ab808667fb439e49618f771ad3f4754d04a02202d704f9f42bd8048d405af3b2f1a6a6a351c449fee44e6957a5c00f8f9c036a0012103d95c7156b4eaa5c114b9b946e98b785480fda246e6eb59c0c2d9ab921e372daeffffffff0210363c00000000001976a914cbc5cd915524f64ab3b3120f2750b5bd18daf5d188ac67d50000000000001976a9149abe6cf097bf981a008cdfac7b6a9a92f4f862ea88ac00000000"
    }, 
    {
      "txid": "583872ab0ee00a7956bb5e5184955c227067aeee680f6d7a82e2997525318371",
      "hash": "583872ab0ee00a7956bb5e5184955c227067aeee680f6d7a82e2997525318371",
      "version": 2,
      "size": 668,
      "vsize": 668,
      "locktime": 1357742,
      "vin": [
        {
          "txid": "6093b405dabf4ec7d4b700d8d907760ab26a8f91774273792aea10a4eb411851",
          "vout": 1,
          "scriptSig": {
            "asm": "3045022100945847266a414acf2a6096e8628d13804769dbd2a1c70694bc600ff3dc7a9f1802201d1c1a409dbfa505b2f6478265b725217a2e69030f290dd78e120c55eaf59ce3[ALL] 0318a9e13efcf1a61ef084151e6fab6082523293447a630f406f170abf4b3388c3",
            "hex": "483045022100945847266a414acf2a6096e8628d13804769dbd2a1c70694bc600ff3dc7a9f1802201d1c1a409dbfa505b2f6478265b725217a2e69030f290dd78e120c55eaf59ce301210318a9e13efcf1a61ef084151e6fab6082523293447a630f406f170abf4b3388c3"
          },
          "sequence": 4294967294
        }, 
        {
          "txid": "c84d884611f22b26426566b3b25d0193be27e87f7207683f062ed2e27a28a1ca",
          "vout": 0,
          "scriptSig": {
            "asm": "304402205b1199a51adb974b92fcd9e077c2f75765798ad0659c0dc49e13a1383634a86b02203f7acf9cf2deef82856c0d356b6dd09e04a6fe56c9590aaaf750974331288b79[ALL] 0256da14a5a7f29e5a8b5bed6ea9de4c3346ff6739573d097512d495ee6548f53c",
            "hex": "47304402205b1199a51adb974b92fcd9e077c2f75765798ad0659c0dc49e13a1383634a86b02203f7acf9cf2deef82856c0d356b6dd09e04a6fe56c9590aaaf750974331288b7901210256da14a5a7f29e5a8b5bed6ea9de4c3346ff6739573d097512d495ee6548f53c"
          },
          "sequence": 4294967294
        }, 
        {
          "txid": "24ace46fd2b1b360e8b905d424978ba3ce38d7d98a85d9ac58d8e2b30eabae81",
          "vout": 0,
          "scriptSig": {
            "asm": "304402206cc1687e600400b985e858351764e06521345484fc5624989eeeecd0391e207a022048f5e1a04917de64933f0f12961cc80aad6f7e1d95855bcdaeb78d7541c016a2[ALL] 028cd9294e66c117d9b2ad24e286defecc712e696ca673aa8e4be98a81f65dab83",
            "hex": "47304402206cc1687e600400b985e858351764e06521345484fc5624989eeeecd0391e207a022048f5e1a04917de64933f0f12961cc80aad6f7e1d95855bcdaeb78d7541c016a20121028cd9294e66c117d9b2ad24e286defecc712e696ca673aa8e4be98a81f65dab83"
          },
          "sequence": 4294967294
        }, 
        {
          "txid": "9d9f6119ca3f59fc8fa46d7919307ca48914516b147770b5427d0e0c1b65f9af",
          "vout": 0,
          "scriptSig": {
            "asm": "30450221008aaa7abbb5d975c5c0332469e94e92cbc34708ca740e2bb7ff3bd65f1c2ea54c02206dafc659e8eee9677927d55eb1b5b78ae7edd77237c1d734e62108bb2c78c692[ALL] 02f119a8227f0a4cd64a53c1ee20ef7e928947539723d118c3e7acf2b3cf5c52e8",
            "hex": "4830450221008aaa7abbb5d975c5c0332469e94e92cbc34708ca740e2bb7ff3bd65f1c2ea54c02206dafc659e8eee9677927d55eb1b5b78ae7edd77237c1d734e62108bb2c78c692012102f119a8227f0a4cd64a53c1ee20ef7e928947539723d118c3e7acf2b3cf5c52e8"
          },
          "sequence": 4294967294
        }
      ],
      "vout": [
        {
          "value": 0.00963089,
          "n": 0,
          "scriptPubKey": {
            "asm": "OP_DUP OP_HASH160 66181a0f44df27400431853208c942f5b563f96b OP_EQUALVERIFY OP_CHECKSIG",
            "hex": "76a91466181a0f44df27400431853208c942f5b563f96b88ac",
            "reqSigs": 1,
            "type": "pubkeyhash",
            "addresses": [
              "LUXn4QFzSLAfNDEVfWenyYCQKs9V4Fqt7k"
            ]
          }
        }, 
        {
          "value": 0.15000000,
          "n": 1,
          "scriptPubKey": {
            "asm": "OP_DUP OP_HASH160 a3eb544105b6c5dc67c391f3db426434732a68db OP_EQUALVERIFY OP_CHECKSIG",
            "hex": "76a914a3eb544105b6c5dc67c391f3db426434732a68db88ac",
            "reqSigs": 1,
            "type": "pubkeyhash",
            "addresses": [
              "LaAgKSBsf7J3WasZryi6GcYtE18BF4FaUD"
            ]
          }
        }
      ],
      "hex": "0200000004511841eba410ea2a79734277918f6ab20a7607d9d800b7d4c74ebfda05b49360010000006b483045022100945847266a414acf2a6096e8628d13804769dbd2a1c70694bc600ff3dc7a9f1802201d1c1a409dbfa505b2f6478265b725217a2e69030f290dd78e120c55eaf59ce301210318a9e13efcf1a61ef084151e6fab6082523293447a630f406f170abf4b3388c3feffffffcaa1287ae2d22e063f6807727fe827be93015db2b3666542262bf21146884dc8000000006a47304402205b1199a51adb974b92fcd9e077c2f75765798ad0659c0dc49e13a1383634a86b02203f7acf9cf2deef82856c0d356b6dd09e04a6fe56c9590aaaf750974331288b7901210256da14a5a7f29e5a8b5bed6ea9de4c3346ff6739573d097512d495ee6548f53cfeffffff81aeab0eb3e2d858acd9858ad9d738cea38b9724d405b9e860b3b1d26fe4ac24000000006a47304402206cc1687e600400b985e858351764e06521345484fc5624989eeeecd0391e207a022048f5e1a04917de64933f0f12961cc80aad6f7e1d95855bcdaeb78d7541c016a20121028cd9294e66c117d9b2ad24e286defecc712e696ca673aa8e4be98a81f65dab83feffffffaff9651b0c0e7d42b57077146b511489a47c3019796da48ffc593fca19619f9d000000006b4830450221008aaa7abbb5d975c5c0332469e94e92cbc34708ca740e2bb7ff3bd65f1c2ea54c02206dafc659e8eee9677927d55eb1b5b78ae7edd77237c1d734e62108bb2c78c692012102f119a8227f0a4cd64a53c1ee20ef7e928947539723d118c3e7acf2b3cf5c52e8feffffff0211b20e00000000001976a91466181a0f44df27400431853208c942f5b563f96b88acc0e1e400000000001976a914a3eb544105b6c5dc67c391f3db426434732a68db88acaeb71400"
    }, 
    {
      "txid": "3cccf027fafdacf8fec1f6ec72081d420917cce8ac8ab4fe4491c6cf4058726d",
      "hash": "3cccf027fafdacf8fec1f6ec72081d420917cce8ac8ab4fe4491c6cf4058726d",
      "version": 1,
      "size": 226,
      "vsize": 226,
      "locktime": 0,
      "vin": [
        {
          "txid": "87439a415fa978807c130e8cd79ba58baccd34deef330eb23c50fdffced752cc",
          "vout": 0,
          "scriptSig": {
            "asm": "3045022100f65ee4198d08cb3bb761d3fb19d8e17f36597284e92b0e610c87c724297c9d8c0220709d086c3be6a1e96cf142777e5d61d0bab89a6bd00fc332577c9b209e21e732[ALL] 0389b719402bd3a075f2c34f0afba5dcd79ea25fb0f4da9970d349671812eaef29",
            "hex": "483045022100f65ee4198d08cb3bb761d3fb19d8e17f36597284e92b0e610c87c724297c9d8c0220709d086c3be6a1e96cf142777e5d61d0bab89a6bd00fc332577c9b209e21e73201210389b719402bd3a075f2c34f0afba5dcd79ea25fb0f4da9970d349671812eaef29"
          },
          "sequence": 4294967295
        }
      ],
      "vout": [
        {
          "value": 0.43739083,
          "n": 0,
          "scriptPubKey": {
            "asm": "OP_DUP OP_HASH160 9ada0f1bbbf469f0ce307890690e8691cef6536e OP_EQUALVERIFY OP_CHECKSIG",
            "hex": "76a9149ada0f1bbbf469f0ce307890690e8691cef6536e88ac",
            "reqSigs": 1,
            "type": "pubkeyhash",
            "addresses": [
              "LZLjYm6Ho9kKNJK2ixTDweehVuU2gDdHJA"
            ]
          }
        }, 
        {
          "value": 0.01324803,
          "n": 1,
          "scriptPubKey": {
            "asm": "OP_DUP OP_HASH160 8b58099d64d27e6e215407bd77c01ae140f000ec OP_EQUALVERIFY OP_CHECKSIG",
            "hex": "76a9148b58099d64d27e6e215407bd77c01ae140f000ec88ac",
            "reqSigs": 1,
            "type": "pubkeyhash",
            "addresses": [
              "LXvjeqLWJUAetjG9EZqe7DW1MreYyBvZjs"
            ]
          }
        }
      ],
      "hex": "0100000001cc52d7cefffd503cb20e33efde34cdac8ba59bd78c0e137c8078a95f419a4387000000006b483045022100f65ee4198d08cb3bb761d3fb19d8e17f36597284e92b0e610c87c724297c9d8c0220709d086c3be6a1e96cf142777e5d61d0bab89a6bd00fc332577c9b209e21e73201210389b719402bd3a075f2c34f0afba5dcd79ea25fb0f4da9970d349671812eaef29ffffffff02cb679b02000000001976a9149ada0f1bbbf469f0ce307890690e8691cef6536e88ac03371400000000001976a9148b58099d64d27e6e215407bd77c01ae140f000ec88ac00000000"
    }
  ],
  "time": 1517042204,
  "mediantime": 1517041914,
  "nonce": 1965661187,
  "bits": "1a047f14",
  "difficulty": 3731199.183374282,
  "chainwork": "0000000000000000000000000000000000000000000000327d9307ebe53d36fa",
  "previousblockhash": "3544ac6077c534395227c862ab69c8e15a4933088e166d72a204a5ae438f93a9",
  "nextblockhash": "23fe30fb4fae44f4f809ca894446925a485e0b703dfcabd15db1c22e10e7ec6d"
}
