{
  "hash": "bfbfe5767cb2f778f3441c0c193942eea3d926417d031040cd7fe19206a9649c",
  "confirmations": 1980,
  "strippedsize": 234,
  "size": 234,
  "weight": 936,
  "height": 1359014,
  "version": 536870912,
  "versionHex": "20000000",
  "merkleroot": "3f52677ad3aea9deff47c7506bbfcc8ac52059023dda30e8cc910de3d7c1340d",
  "tx": [
    {
      "txid": "3f52677ad3aea9deff47c7506bbfcc8ac52059023dda30e8cc910de3d7c1340d",
      "hash": "3f52677ad3aea9deff47c7506bbfcc8ac52059023dda30e8cc910de3d7c1340d",
      "version": 1,
      "size": 153,
      "vsize": 153,
      "locktime": 0,
      "vin": [
        {
          "coinbase": "03a6bc14045a6f00332cfabe6d6dadb28922d2c7dcee707f926cd9d395931b84d6be9fedecc335ce60d0b73f2fb54000000000000000042f4c502f082200516138000000",
          "sequence": 4294967295
        }
      ],
      "vout": [
        {
          "value": 25.00000000,
          "n": 0,
          "scriptPubKey": {
            "asm": "OP_DUP OP_HASH160 57757ed2ecf2052ff3126c397aca7defb9ca2cec OP_EQUALVERIFY OP_CHECKSIG",
            "hex": "76a91457757ed2ecf2052ff3126c397aca7defb9ca2cec88ac",
            "reqSigs": 1,
            "type": "pubkeyhash",
            "addresses": [
              "LTCPodGk5FwcJaRzH9yKnwicxzFUbxp6tN"
            ]
          }
        }
      ],
      "hex": "01000000010000000000000000000000000000000000000000000000000000000000000000ffffffff4403a6bc14045a6f00332cfabe6d6dadb28922d2c7dcee707f926cd9d395931b84d6be9fedecc335ce60d0b73f2fb54000000000000000042f4c502f082200516138000000ffffffff0100f90295000000001976a91457757ed2ecf2052ff3126c397aca7defb9ca2cec88ac00000000"
    }
  ],
  "time": 1517223987,
  "mediantime": 1517223689,
  "nonce": 124137530,
  "bits": "1a042eae",
  "difficulty": 4011378.762614286,
  "chainwork": "0000000000000000000000000000000000000000000000339be15e77ec5e98ce",
  "previousblockhash": "2518ca9b5e964f2af986a6b52b74c836990739a75c87eabe0dc2b7f5eab9db57",
  "nextblockhash": "dade2be1961e9cfefc1fee665d1d7e94c491a89a908cc63ff8ed05486292f2d3"
}
