{
  "hash": "c157bbc6c25c5d3561a3bcf3c052a903109be884faaf82952cbcc365307c4e6f",
  "confirmations": 2080,
  "strippedsize": 234,
  "size": 234,
  "weight": 936,
  "height": 1358914,
  "version": 536870912,
  "versionHex": "20000000",
  "merkleroot": "975f7e60c697de827dfe6d30e4bb383c41fa280d8d9982feb5a4b0f30ea43880",
  "tx": [
    {
      "txid": "975f7e60c697de827dfe6d30e4bb383c41fa280d8d9982feb5a4b0f30ea43880",
      "hash": "975f7e60c697de827dfe6d30e4bb383c41fa280d8d9982feb5a4b0f30ea43880",
      "version": 1,
      "size": 153,
      "vsize": 153,
      "locktime": 0,
      "vin": [
        {
          "coinbase": "0342bc14045a6ecb242cfabe6d6d3285df6a19bd1cece3ab92712ee22cfaf89d48c59724d5b0755bba0a7cf9e7e24000000000000000042f4c502f08160093102a000000",
          "sequence": 4294967295
        }
      ],
      "vout": [
        {
          "value": 25.00000000,
          "n": 0,
          "scriptPubKey": {
            "asm": "OP_DUP OP_HASH160 57757ed2ecf2052ff3126c397aca7defb9ca2cec OP_EQUALVERIFY OP_CHECKSIG",
            "hex": "76a91457757ed2ecf2052ff3126c397aca7defb9ca2cec88ac",
            "reqSigs": 1,
            "type": "pubkeyhash",
            "addresses": [
              "LTCPodGk5FwcJaRzH9yKnwicxzFUbxp6tN"
            ]
          }
        }
      ],
      "hex": "01000000010000000000000000000000000000000000000000000000000000000000000000ffffffff440342bc14045a6ecb242cfabe6d6d3285df6a19bd1cece3ab92712ee22cfaf89d48c59724d5b0755bba0a7cf9e7e24000000000000000042f4c502f08160093102a000000ffffffff0100f90295000000001976a91457757ed2ecf2052ff3126c397aca7defb9ca2cec88ac00000000"
    }
  ],
  "time": 1517210404,
  "mediantime": 1517209880,
  "nonce": 382577064,
  "bits": "1a042eae",
  "difficulty": 4011378.762614286,
  "chainwork": "00000000000000000000000000000000000000000000003383f865bab0b46206",
  "previousblockhash": "8acb1e0fed359f3db9a4184235a79e3061685518dcbb4d681c3cf2e57f0555d4",
  "nextblockhash": "a143b0ab83fc94b011fa692f2e4862c00f9f973d7f7bb3d4114ea3cb81d9649c"
}
