{
  "hash": "c168c178ecb5e2519e58e96fe919ffa6e1f17d846dda13d063a2ba072b03e670",
  "confirmations": 1326,
  "strippedsize": 254,
  "size": 254,
  "weight": 1016,
  "height": 1359668,
  "version": 536870912,
  "versionHex": "20000000",
  "merkleroot": "a41a04a7a4e796fd0749836d22dd480f6b44d12a79220d1155ca3ae66b884f2a",
  "tx": [
    {
      "txid": "a41a04a7a4e796fd0749836d22dd480f6b44d12a79220d1155ca3ae66b884f2a",
      "hash": "a41a04a7a4e796fd0749836d22dd480f6b44d12a79220d1155ca3ae66b884f2a",
      "version": 1,
      "size": 173,
      "vsize": 173,
      "locktime": 0,
      "vin": [
        {
          "coinbase": "0334bf141b4d696e656420627920416e74506f6f6c20626a312045205a7068c5fabe6d6db63ec175cb205986a3b2ccb0c75398efc490bf634d0aaf60fea0e36b4541d33c0400000000000000590b0000000000000f000000",
          "sequence": 4294967295
        }
      ],
      "vout": [
        {
          "value": 25.00000000,
          "n": 0,
          "scriptPubKey": {
            "asm": "OP_DUP OP_HASH160 0ff3ccc5e8be88afe24b5d634e5852d474dbdff1 OP_EQUALVERIFY OP_CHECKSIG",
            "hex": "76a9140ff3ccc5e8be88afe24b5d634e5852d474dbdff188ac",
            "reqSigs": 1,
            "type": "pubkeyhash",
            "addresses": [
              "LLgJTbzZMsRTCUF1NtvvL9SR1a4pVieW89"
            ]
          }
        }
      ],
      "hex": "01000000010000000000000000000000000000000000000000000000000000000000000000ffffffff580334bf141b4d696e656420627920416e74506f6f6c20626a312045205a7068c5fabe6d6db63ec175cb205986a3b2ccb0c75398efc490bf634d0aaf60fea0e36b4541d33c0400000000000000590b0000000000000f000000ffffffff0100f90295000000001976a9140ff3ccc5e8be88afe24b5d634e5852d474dbdff188ac00000000"
    }
  ],
  "time": 1517316293,
  "mediantime": 1517315813,
  "nonce": 2008851843,
  "bits": "1a042eae",
  "difficulty": 4011378.762614286,
  "chainwork": "00000000000000000000000000000000000000000000003438408605d3dba2ea",
  "previousblockhash": "190c63fee030bd9b42562f464829a56b246564a857caa49a4edf8ade9a4cc7a0",
  "nextblockhash": "34e672d51b3b82a05aa90f28796a3fa9f1d6004a7d17b0b2a3f7d5af91e65247"
}
