{
  "hash": "c19902b52c844dd57cfb69f17065d8ad17c0294dabc742d8b1528349ad383612",
  "confirmations": 442,
  "strippedsize": 253,
  "size": 253,
  "weight": 1012,
  "height": 1360552,
  "version": 536870912,
  "versionHex": "20000000",
  "merkleroot": "0c9f8ca4b5c48896a8cbf5322fa31478bc31e9659d55ce619f84b0599659ffd8",
  "tx": [
    {
      "txid": "0c9f8ca4b5c48896a8cbf5322fa31478bc31e9659d55ce619f84b0599659ffd8",
      "hash": "0c9f8ca4b5c48896a8cbf5322fa31478bc31e9659d55ce619f84b0599659ffd8",
      "version": 1,
      "size": 172,
      "vsize": 172,
      "locktime": 0,
      "vin": [
        {
          "coinbase": "03a8c2141a4d696e656420627920416e74506f6f6c20626a3242205a726c01fabe6d6d17ff2a0a84d179bffde43bd7e2d602ec6e66ef2869d3a92d065ab6ffdb90c522040000000000000050090000000000001e000000",
          "sequence": 4294967295
        }
      ],
      "vout": [
        {
          "value": 25.00000000,
          "n": 0,
          "scriptPubKey": {
            "asm": "OP_DUP OP_HASH160 0ff3ccc5e8be88afe24b5d634e5852d474dbdff1 OP_EQUALVERIFY OP_CHECKSIG",
            "hex": "76a9140ff3ccc5e8be88afe24b5d634e5852d474dbdff188ac",
            "reqSigs": 1,
            "type": "pubkeyhash",
            "addresses": [
              "LLgJTbzZMsRTCUF1NtvvL9SR1a4pVieW89"
            ]
          }
        }
      ],
      "hex": "01000000010000000000000000000000000000000000000000000000000000000000000000ffffffff5703a8c2141a4d696e656420627920416e74506f6f6c20626a3242205a726c01fabe6d6d17ff2a0a84d179bffde43bd7e2d602ec6e66ef2869d3a92d065ab6ffdb90c522040000000000000050090000000000001e000000ffffffff0100f90295000000001976a9140ff3ccc5e8be88afe24b5d634e5852d474dbdff188ac00000000"
    }
  ],
  "time": 1517448193,
  "mediantime": 1517447598,
  "nonce": 293447179,
  "bits": "1a042eae",
  "difficulty": 4011378.762614286,
  "chainwork": "0000000000000000000000000000000000000000000000350b9de9ad5e2cf7d2",
  "previousblockhash": "1c274a66cb644fc1fd0270ee15d58ceba4bd9c087c3988f552d9280ac81cf9f4",
  "nextblockhash": "e6373431f44ca05e801839c06d626708b05a88b0cfb017429fc985dcaba3f40c"
}
