{
  "hash": "c22e62e7a4027a71164ed6b08e47d1cdf5095e30c4b40d1db2f40c13fe500f5a",
  "confirmations": 3523,
  "strippedsize": 5546,
  "size": 5582,
  "weight": 22220,
  "height": 1357472,
  "version": 536870912,
  "versionHex": "20000000",
  "merkleroot": "6228f49861678f49d55b658edc101a698d2dc7f90eedc1c8100c66f027af7c7c",
  "tx": [
    {
      "txid": "eb86f13f987b05d0b8dbc0fdfa9a0504d20debe1b01d1e54d9e9e51a20f46ee3",
      "hash": "cf197f2ae01ac88655bbdbd7133dae5995f97a46ba8cf32e9b3044321c9e845c",
      "version": 2,
      "size": 234,
      "vsize": 207,
      "locktime": 0,
      "vin": [
        {
          "coinbase": "03a0b6140440b06b5a2ffabe6d6ddd9cce35147f091a8774ecf513d561f0929a3eae6ae91af32a2bd2f7a2d2040a010000000000000004034f822800000000000000",
          "sequence": 4294967295
        }
      ],
      "vout": [
        {
          "value": 25.05183880,
          "n": 0,
          "scriptPubKey": {
            "asm": "OP_DUP OP_HASH160 3d29d474d0a98b5b2669d990d2917780837edf0c OP_EQUALVERIFY OP_CHECKSIG",
            "hex": "76a9143d29d474d0a98b5b2669d990d2917780837edf0c88ac",
            "reqSigs": 1,
            "type": "pubkeyhash",
            "addresses": [
              "LQoMbJnzRK2sDXazJuUNXPTx7FrKKPJgt6"
            ]
          }
        }, 
        {
          "value": 0.00000000,
          "n": 1,
          "scriptPubKey": {
            "asm": "OP_RETURN aa21a9edc7d8af9f3664d7f60dcccc8953bcee605fb57d31cad64133faa9926ef4d563a1",
            "hex": "6a24aa21a9edc7d8af9f3664d7f60dcccc8953bcee605fb57d31cad64133faa9926ef4d563a1",
            "type": "nulldata"
          }
        }
      ],
      "hex": "020000000001010000000000000000000000000000000000000000000000000000000000000000ffffffff4203a0b6140440b06b5a2ffabe6d6ddd9cce35147f091a8774ecf513d561f0929a3eae6ae91af32a2bd2f7a2d2040a010000000000000004034f822800000000000000ffffffff0288125295000000001976a9143d29d474d0a98b5b2669d990d2917780837edf0c88ac0000000000000000266a24aa21a9edc7d8af9f3664d7f60dcccc8953bcee605fb57d31cad64133faa9926ef4d563a10120000000000000000000000000000000000000000000000000000000000000000000000000"
    }, 
    {
      "txid": "b6b7850d3f093c0f3ecf96284e47c46a3b0e1dfec5a44a245a4178f6ed033e79",
      "hash": "b6b7850d3f093c0f3ecf96284e47c46a3b0e1dfec5a44a245a4178f6ed033e79",
      "version": 1,
      "size": 2470,
      "vsize": 2470,
      "locktime": 0,
      "vin": [
        {
          "txid": "f79bef7e0a5f39b040aeda2744ad1c60179494b848bcdd0a8188b9f141e2266e",
          "vout": 0,
          "scriptSig": {
            "asm": "0 3045022100af6869357e0455b06f9118009efeda501816410db22693610b4be13584f566c402207eb30604bc873caa70222350875689305bdcdb250fe37f3fc86d3107afc8865a[ALL] 3045022100c13f01fe3f173ff430eba10a40867af3b1ef1d59a17e63cfb50d97fec2acf5c602202f69e47cbae4a0e3b9ff855ac283979c64e1fb9a873d86e5f93b3efc4d942eec[ALL] 522102706a926a3631ffaf73fa9f0b23023bb123e36c1db704382b430fadc60e51c2302103985b71fa77c1583dda93747de9fc48e959ffb08b3ece9bb6609eee50a4b37a14210336c96186896cbfbfdc7fd46e17e6b6c1d5568d20ec8899649a42fafbc28e4ea353ae",
            "hex": "00483045022100af6869357e0455b06f9118009efeda501816410db22693610b4be13584f566c402207eb30604bc873caa70222350875689305bdcdb250fe37f3fc86d3107afc8865a01483045022100c13f01fe3f173ff430eba10a40867af3b1ef1d59a17e63cfb50d97fec2acf5c602202f69e47cbae4a0e3b9ff855ac283979c64e1fb9a873d86e5f93b3efc4d942eec014c69522102706a926a3631ffaf73fa9f0b23023bb123e36c1db704382b430fadc60e51c2302103985b71fa77c1583dda93747de9fc48e959ffb08b3ece9bb6609eee50a4b37a14210336c96186896cbfbfdc7fd46e17e6b6c1d5568d20ec8899649a42fafbc28e4ea353ae"
          },
          "sequence": 4294967295
        }, 
        {
          "txid": "b13d71568724040e9658c1e10772143825af8a5581bca1d780393518b94855b6",
          "vout": 0,
          "scriptSig": {
            "asm": "0 30440220765565e7bc8216e4e48fb40dca2e1efb5b64fd0d4e39756a03a0cb17ae22b590022039e61060351c10ec995714490fd72d170b46d287901eac260a8b3b6f99b2616c[ALL] 304402201486249416c2c66c7a52577573cd3746c8f73982cb583e950ea9abfd0f34e11902204b2e262e8307017ab336bc242170fb7682b6406602f72d2bac0a37bbde7b41e7[ALL] 522103d2f11fe157104a8a5211e5e709c10f1992e3aebcd0750b72c7a2e2524e20fa74210227aacdec05d14d7f028fdbafa667d0f7cbf464682b620b0ef040c6e3dd6b6dca2102b92fd5e08e37f2fe939763fa23ee295cddff3b4802560dc7544c1f931482ea6153ae",
            "hex": "004730440220765565e7bc8216e4e48fb40dca2e1efb5b64fd0d4e39756a03a0cb17ae22b590022039e61060351c10ec995714490fd72d170b46d287901eac260a8b3b6f99b2616c0147304402201486249416c2c66c7a52577573cd3746c8f73982cb583e950ea9abfd0f34e11902204b2e262e8307017ab336bc242170fb7682b6406602f72d2bac0a37bbde7b41e7014c69522103d2f11fe157104a8a5211e5e709c10f1992e3aebcd0750b72c7a2e2524e20fa74210227aacdec05d14d7f028fdbafa667d0f7cbf464682b620b0ef040c6e3dd6b6dca2102b92fd5e08e37f2fe939763fa23ee295cddff3b4802560dc7544c1f931482ea6153ae"
          },
          "sequence": 4294967295
        }, 
        {
          "txid": "9d613deefddd31d23d20c08d9310c5038ea9eb7946b033412fb70e009de53f07",
          "vout": 1,
          "scriptSig": {
            "asm": "0 3045022100f4d832e34f93044ae87da0746e7afb56f6fb93ff28b59f32d7c83359928066cd02201d89692235e0aedb3c477fefa1c8c13972c3552c187e44fcd481aa58e0d75a76[ALL] 3045022100e8aadee9a951139bd7aa9952374ab38bab50de1c79bffc9b09f06ef7ba2edab902202da0a351cfd7e1057a30e78706fbc8bc1c494cde436e550c0a046b1d1f365ce7[ALL] 522103c9e4d00112fb4b7a2a8fd8ca53fe691436f7f9d2726a49c85dc3f3c75f5a494d210274544a1fe6a40744be54bf5e5628fdfbbcb3ad90ef3d34ebda717303d2b38dbc21039c0a14c6145850bda0f61b3074778bb36987d08e38ace330995fa7e75e1a388753ae",
            "hex": "00483045022100f4d832e34f93044ae87da0746e7afb56f6fb93ff28b59f32d7c83359928066cd02201d89692235e0aedb3c477fefa1c8c13972c3552c187e44fcd481aa58e0d75a7601483045022100e8aadee9a951139bd7aa9952374ab38bab50de1c79bffc9b09f06ef7ba2edab902202da0a351cfd7e1057a30e78706fbc8bc1c494cde436e550c0a046b1d1f365ce7014c69522103c9e4d00112fb4b7a2a8fd8ca53fe691436f7f9d2726a49c85dc3f3c75f5a494d210274544a1fe6a40744be54bf5e5628fdfbbcb3ad90ef3d34ebda717303d2b38dbc21039c0a14c6145850bda0f61b3074778bb36987d08e38ace330995fa7e75e1a388753ae"
          },
          "sequence": 4294967295
        }, 
        {
          "txid": "3189186208e19027772f2e5114fde7c99a1cd166870dc976d13a2179a02f486a",
          "vout": 0,
          "scriptSig": {
            "asm": "0 3045022100f0bc24993c48d5d2bd5e34384b3691377c4dc7754419f931f77709e3812b219f0220268d2c88e6d9a2a824db34063bb62339d7c509976f921f12fd6af1ba69e46c7a[ALL] 3044022009142c7d098db2d1ca87608a82e3868f25cc1552f8eb281fc7779cdaa60868770220679086540a6f591c77e84020c5ba9d68371722233aafe7887a844b1c29345a23[ALL] 52210310651dbe833a03b36de1823fdc09324de18d40d5a86a101daa362118479f04ce21035f9da34d55df5388a4ff12908bad29077ec4ee966831dcc15c12b07841d7bf5d21039658dbb0a3bcd0283f0d4efec71d51675e7ff3756aa51f6f9ce56296b861369253ae",
            "hex": "00483045022100f0bc24993c48d5d2bd5e34384b3691377c4dc7754419f931f77709e3812b219f0220268d2c88e6d9a2a824db34063bb62339d7c509976f921f12fd6af1ba69e46c7a01473044022009142c7d098db2d1ca87608a82e3868f25cc1552f8eb281fc7779cdaa60868770220679086540a6f591c77e84020c5ba9d68371722233aafe7887a844b1c29345a23014c6952210310651dbe833a03b36de1823fdc09324de18d40d5a86a101daa362118479f04ce21035f9da34d55df5388a4ff12908bad29077ec4ee966831dcc15c12b07841d7bf5d21039658dbb0a3bcd0283f0d4efec71d51675e7ff3756aa51f6f9ce56296b861369253ae"
          },
          "sequence": 4294967295
        }, 
        {
          "txid": "445d7c95374278bdfcb4da13314180f5f3e09901869fb079bc5774221e7644bb",
          "vout": 1,
          "scriptSig": {
            "asm": "0 3044022035025d4d18cebe16513d17e5ef37cc89c3eb28c67b020221069b20c8aa64bf7d022076f984b4e368784eb2752d8d1301c4953bb3aa95cc54e209a73c36ce169fa11d[ALL] 304402207ab322560a498f6e89171d6a654c508b55b9728dd6c0de132c538f2479f6d0b7022079e74d0d7313c902e7b704d81441945e2c389961f31b6150af3c761555de23b5[ALL] 522103776b0da9d47d4b0d546cd8efce6aa0c5e079c4dd32edabe469421b3280cf12aa21024b2dd28dddafa28f1f71d4f12a0cc97a7ef9ead9b27e40556fdd278847ba0c282102eda9e8d44ddbc82d1664b4625b71074b0a718c98fb401defb74340f0d1da350a53ae",
            "hex": "00473044022035025d4d18cebe16513d17e5ef37cc89c3eb28c67b020221069b20c8aa64bf7d022076f984b4e368784eb2752d8d1301c4953bb3aa95cc54e209a73c36ce169fa11d0147304402207ab322560a498f6e89171d6a654c508b55b9728dd6c0de132c538f2479f6d0b7022079e74d0d7313c902e7b704d81441945e2c389961f31b6150af3c761555de23b5014c69522103776b0da9d47d4b0d546cd8efce6aa0c5e079c4dd32edabe469421b3280cf12aa21024b2dd28dddafa28f1f71d4f12a0cc97a7ef9ead9b27e40556fdd278847ba0c282102eda9e8d44ddbc82d1664b4625b71074b0a718c98fb401defb74340f0d1da350a53ae"
          },
          "sequence": 4294967295
        }, 
        {
          "txid": "7dee15c2a6ed9d329f370e72e2bc90bfc5081a4600d5ac23f9d9bad97522f79c",
          "vout": 1,
          "scriptSig": {
            "asm": "0 30450221008cea5085d57d029bd19760e9d4c20f698ec5b1567256e26166e8576eaae44eb2022071250730533f3960366ae522f76d3dae266662e0734af2f2fe0eef64ff82cda9[ALL] 30440220630adb0780c41c4e89f0fcc2f3af35aab29809cfde7b9346454bf4bb24c22aae0220175f1774c797ebba0f4577561b4ad762a0125eed82c912d49f40646997a0886f[ALL] 52210343412dcb127f55ffce51a3b18dcd2523ce616101862afc198b70a5e64a03cc172103468e292cadaced0639023f86754a67b2eef0b8679a90e6a4aeed215ca6bf94cd2103b613e0c1490800a4cef5fdc29e7fbd56c47e8cf3d942deb57042ef88bbf8aae253ae",
            "hex": "004830450221008cea5085d57d029bd19760e9d4c20f698ec5b1567256e26166e8576eaae44eb2022071250730533f3960366ae522f76d3dae266662e0734af2f2fe0eef64ff82cda9014730440220630adb0780c41c4e89f0fcc2f3af35aab29809cfde7b9346454bf4bb24c22aae0220175f1774c797ebba0f4577561b4ad762a0125eed82c912d49f40646997a0886f014c6952210343412dcb127f55ffce51a3b18dcd2523ce616101862afc198b70a5e64a03cc172103468e292cadaced0639023f86754a67b2eef0b8679a90e6a4aeed215ca6bf94cd2103b613e0c1490800a4cef5fdc29e7fbd56c47e8cf3d942deb57042ef88bbf8aae253ae"
          },
          "sequence": 4294967295
        }, 
        {
          "txid": "db10299120a3ddd22a017f543ba89f839f388cd154f65cefc6fc103f9cbc9d9c",
          "vout": 1,
          "scriptSig": {
            "asm": "0 3045022100e7cc2d6d09a56efbf825c5654a08973ab95950c6120bd64ad53d74ee07daf659022023f0eebc62f3f1fb258d9ca58a4e9b6bd9697ecd37229e0148bf787cf3f45d73[ALL] 3045022100a0890a7357cad6121f63b7f8f98c7edcf9cad84fcd75a14bde5bb30a63ef7a5a022005b094cbe84e1359d1cb9dd57493e44f42bc2fefd87dc6be0c3fa380313202c6[ALL] 522103a4e1fa2a93447a464c6c228f60cfb8bf4cb503dd666f6eab05097a6beb81eb3421028a77a00ca645f53e7ee549873ad0472e13380f679d06fd283e2a0613be2562232102249057288c62e3de82b24b66052fe9173a8b2f78aad3d6dfd978490c35475ff853ae",
            "hex": "00483045022100e7cc2d6d09a56efbf825c5654a08973ab95950c6120bd64ad53d74ee07daf659022023f0eebc62f3f1fb258d9ca58a4e9b6bd9697ecd37229e0148bf787cf3f45d7301483045022100a0890a7357cad6121f63b7f8f98c7edcf9cad84fcd75a14bde5bb30a63ef7a5a022005b094cbe84e1359d1cb9dd57493e44f42bc2fefd87dc6be0c3fa380313202c6014c69522103a4e1fa2a93447a464c6c228f60cfb8bf4cb503dd666f6eab05097a6beb81eb3421028a77a00ca645f53e7ee549873ad0472e13380f679d06fd283e2a0613be2562232102249057288c62e3de82b24b66052fe9173a8b2f78aad3d6dfd978490c35475ff853ae"
          },
          "sequence": 4294967295
        }, 
        {
          "txid": "f8ba1adcb8941258073442b1d64fb7a2f46b7f8cc09d6badee64f238e1b39e2f",
          "vout": 0,
          "scriptSig": {
            "asm": "0 30440220439b51af10079355e742ef7db4fd7ba974dbdab5742f15bb8cf1a47f288e321f022010ae2fd9257a439a952091221577ed308c19fee066babfd772cd6ac4a437a500[ALL] 304402206c6327f7cf36575bbdbe880075f4a491412b5e745095f448eb0e7b91fbcbeb7702206b81bf0b9147be9ebb9af188a64afcdea8039bb91c3fdd64958ad487ab6f5249[ALL] 522103790af961598294fd2e9dec49567e8613776b4c40e464e2be5537495ba68c2d7d210336408aa8fbb1b652d57bd7f0a2a02657c210cf01e2732aef55dd4cc831889ff5210343141ea758f9b2847db3c339e78dc7d64db17b32e923876b7dfe3112395bbc6553ae",
            "hex": "004730440220439b51af10079355e742ef7db4fd7ba974dbdab5742f15bb8cf1a47f288e321f022010ae2fd9257a439a952091221577ed308c19fee066babfd772cd6ac4a437a5000147304402206c6327f7cf36575bbdbe880075f4a491412b5e745095f448eb0e7b91fbcbeb7702206b81bf0b9147be9ebb9af188a64afcdea8039bb91c3fdd64958ad487ab6f5249014c69522103790af961598294fd2e9dec49567e8613776b4c40e464e2be5537495ba68c2d7d210336408aa8fbb1b652d57bd7f0a2a02657c210cf01e2732aef55dd4cc831889ff5210343141ea758f9b2847db3c339e78dc7d64db17b32e923876b7dfe3112395bbc6553ae"
          },
          "sequence": 4294967295
        }
      ],
      "vout": [
        {
          "value": 0.08328015,
          "n": 0,
          "scriptPubKey": {
            "asm": "OP_HASH160 1ac13b3b8330550c08d9833283971986f2e6eba2 OP_EQUAL",
            "hex": "a9141ac13b3b8330550c08d9833283971986f2e6eba287",
            "reqSigs": 1,
            "type": "scripthash",
            "addresses": [
              "MALdHNNHp1ubb3qhMvdo3J5L8trMatL7Q7"
            ]
          }
        }, 
        {
          "value": 0.01017004,
          "n": 1,
          "scriptPubKey": {
            "asm": "OP_HASH160 5faeeac9ae607792136f316a918b18eb35bc0725 OP_EQUAL",
            "hex": "a9145faeeac9ae607792136f316a918b18eb35bc072587",
            "reqSigs": 1,
            "type": "scripthash",
            "addresses": [
              "MGd5y7LNWdumeqUzg9znN2LewDP49mT1YW"
            ]
          }
        }, 
        {
          "value": 4.06801725,
          "n": 2,
          "scriptPubKey": {
            "asm": "OP_DUP OP_HASH160 fd3c7d644b5fa550a3e40e6e371f5de0787bca98 OP_EQUALVERIFY OP_CHECKSIG",
            "hex": "76a914fd3c7d644b5fa550a3e40e6e371f5de0787bca9888ac",
            "reqSigs": 1,
            "type": "pubkeyhash",
            "addresses": [
              "LiJwgemFh9ghkMo3JRmG3tF8Sbg8PeoCqF"
            ]
          }
        }
      ],
      "hex": "01000000086e26e241f1b988810addbc48b8949417601cad4427daae40b0395f0a7eef9bf700000000fdfe0000483045022100af6869357e0455b06f9118009efeda501816410db22693610b4be13584f566c402207eb30604bc873caa70222350875689305bdcdb250fe37f3fc86d3107afc8865a01483045022100c13f01fe3f173ff430eba10a40867af3b1ef1d59a17e63cfb50d97fec2acf5c602202f69e47cbae4a0e3b9ff855ac283979c64e1fb9a873d86e5f93b3efc4d942eec014c69522102706a926a3631ffaf73fa9f0b23023bb123e36c1db704382b430fadc60e51c2302103985b71fa77c1583dda93747de9fc48e959ffb08b3ece9bb6609eee50a4b37a14210336c96186896cbfbfdc7fd46e17e6b6c1d5568d20ec8899649a42fafbc28e4ea353aeffffffffb65548b918353980d7a1bc81558aaf2538147207e1c158960e04248756713db100000000fc004730440220765565e7bc8216e4e48fb40dca2e1efb5b64fd0d4e39756a03a0cb17ae22b590022039e61060351c10ec995714490fd72d170b46d287901eac260a8b3b6f99b2616c0147304402201486249416c2c66c7a52577573cd3746c8f73982cb583e950ea9abfd0f34e11902204b2e262e8307017ab336bc242170fb7682b6406602f72d2bac0a37bbde7b41e7014c69522103d2f11fe157104a8a5211e5e709c10f1992e3aebcd0750b72c7a2e2524e20fa74210227aacdec05d14d7f028fdbafa667d0f7cbf464682b620b0ef040c6e3dd6b6dca2102b92fd5e08e37f2fe939763fa23ee295cddff3b4802560dc7544c1f931482ea6153aeffffffff073fe59d000eb72f4133b04679eba98e03c510938dc0203dd231ddfdee3d619d01000000fdfe0000483045022100f4d832e34f93044ae87da0746e7afb56f6fb93ff28b59f32d7c83359928066cd02201d89692235e0aedb3c477fefa1c8c13972c3552c187e44fcd481aa58e0d75a7601483045022100e8aadee9a951139bd7aa9952374ab38bab50de1c79bffc9b09f06ef7ba2edab902202da0a351cfd7e1057a30e78706fbc8bc1c494cde436e550c0a046b1d1f365ce7014c69522103c9e4d00112fb4b7a2a8fd8ca53fe691436f7f9d2726a49c85dc3f3c75f5a494d210274544a1fe6a40744be54bf5e5628fdfbbcb3ad90ef3d34ebda717303d2b38dbc21039c0a14c6145850bda0f61b3074778bb36987d08e38ace330995fa7e75e1a388753aeffffffff6a482fa079213ad176c90d8766d11c9ac9e7fd14512e2f772790e1086218893100000000fdfd0000483045022100f0bc24993c48d5d2bd5e34384b3691377c4dc7754419f931f77709e3812b219f0220268d2c88e6d9a2a824db34063bb62339d7c509976f921f12fd6af1ba69e46c7a01473044022009142c7d098db2d1ca87608a82e3868f25cc1552f8eb281fc7779cdaa60868770220679086540a6f591c77e84020c5ba9d68371722233aafe7887a844b1c29345a23014c6952210310651dbe833a03b36de1823fdc09324de18d40d5a86a101daa362118479f04ce21035f9da34d55df5388a4ff12908bad29077ec4ee966831dcc15c12b07841d7bf5d21039658dbb0a3bcd0283f0d4efec71d51675e7ff3756aa51f6f9ce56296b861369253aeffffffffbb44761e227457bc79b09f860199e0f3f580413113dab4fcbd784237957c5d4401000000fc00473044022035025d4d18cebe16513d17e5ef37cc89c3eb28c67b020221069b20c8aa64bf7d022076f984b4e368784eb2752d8d1301c4953bb3aa95cc54e209a73c36ce169fa11d0147304402207ab322560a498f6e89171d6a654c508b55b9728dd6c0de132c538f2479f6d0b7022079e74d0d7313c902e7b704d81441945e2c389961f31b6150af3c761555de23b5014c69522103776b0da9d47d4b0d546cd8efce6aa0c5e079c4dd32edabe469421b3280cf12aa21024b2dd28dddafa28f1f71d4f12a0cc97a7ef9ead9b27e40556fdd278847ba0c282102eda9e8d44ddbc82d1664b4625b71074b0a718c98fb401defb74340f0d1da350a53aeffffffff9cf72275d9bad9f923acd500461a08c5bf90bce2720e379f329deda6c215ee7d01000000fdfd00004830450221008cea5085d57d029bd19760e9d4c20f698ec5b1567256e26166e8576eaae44eb2022071250730533f3960366ae522f76d3dae266662e0734af2f2fe0eef64ff82cda9014730440220630adb0780c41c4e89f0fcc2f3af35aab29809cfde7b9346454bf4bb24c22aae0220175f1774c797ebba0f4577561b4ad762a0125eed82c912d49f40646997a0886f014c6952210343412dcb127f55ffce51a3b18dcd2523ce616101862afc198b70a5e64a03cc172103468e292cadaced0639023f86754a67b2eef0b8679a90e6a4aeed215ca6bf94cd2103b613e0c1490800a4cef5fdc29e7fbd56c47e8cf3d942deb57042ef88bbf8aae253aeffffffff9c9dbc9c3f10fcc6ef5cf654d18c389f839fa83b547f012ad2dda320912910db01000000fdfe0000483045022100e7cc2d6d09a56efbf825c5654a08973ab95950c6120bd64ad53d74ee07daf659022023f0eebc62f3f1fb258d9ca58a4e9b6bd9697ecd37229e0148bf787cf3f45d7301483045022100a0890a7357cad6121f63b7f8f98c7edcf9cad84fcd75a14bde5bb30a63ef7a5a022005b094cbe84e1359d1cb9dd57493e44f42bc2fefd87dc6be0c3fa380313202c6014c69522103a4e1fa2a93447a464c6c228f60cfb8bf4cb503dd666f6eab05097a6beb81eb3421028a77a00ca645f53e7ee549873ad0472e13380f679d06fd283e2a0613be2562232102249057288c62e3de82b24b66052fe9173a8b2f78aad3d6dfd978490c35475ff853aeffffffff2f9eb3e138f264eead6b9dc08c7f6bf4a2b74fd6b1423407581294b8dc1abaf800000000fc004730440220439b51af10079355e742ef7db4fd7ba974dbdab5742f15bb8cf1a47f288e321f022010ae2fd9257a439a952091221577ed308c19fee066babfd772cd6ac4a437a5000147304402206c6327f7cf36575bbdbe880075f4a491412b5e745095f448eb0e7b91fbcbeb7702206b81bf0b9147be9ebb9af188a64afcdea8039bb91c3fdd64958ad487ab6f5249014c69522103790af961598294fd2e9dec49567e8613776b4c40e464e2be5537495ba68c2d7d210336408aa8fbb1b652d57bd7f0a2a02657c210cf01e2732aef55dd4cc831889ff5210343141ea758f9b2847db3c339e78dc7d64db17b32e923876b7dfe3112395bbc6553aeffffffff034f137f000000000017a9141ac13b3b8330550c08d9833283971986f2e6eba287ac840f000000000017a9145faeeac9ae607792136f316a918b18eb35bc0725873d4d3f18000000001976a914fd3c7d644b5fa550a3e40e6e371f5de0787bca9888ac00000000"
    }, 
    {
      "txid": "03c3a7f5ebeab3bdb9d1f326753fab5bdeef4002dfb4324469a758d11b5a2313",
      "hash": "03c3a7f5ebeab3bdb9d1f326753fab5bdeef4002dfb4324469a758d11b5a2313",
      "version": 1,
      "size": 1668,
      "vsize": 1668,
      "locktime": 0,
      "vin": [
        {
          "txid": "ae3bf8f668b00655ac1b7f6c6247faf9c1133bedb233d8873b19b37640ff28d6",
          "vout": 2421,
          "scriptSig": {
            "asm": "30450221008fa8c46e95b0b931286433f344def16ba2f5f96c3295f66658e63afeb9719b00022014560392afaf85b5c8ba2cc5010319d8a008ba2d77b2d80c9463ffd565556601[ALL] 02aef25461e8e47111f375464d43174e70cf93874683a8b55b32931b0b47895a6e",
            "hex": "4830450221008fa8c46e95b0b931286433f344def16ba2f5f96c3295f66658e63afeb9719b00022014560392afaf85b5c8ba2cc5010319d8a008ba2d77b2d80c9463ffd565556601012102aef25461e8e47111f375464d43174e70cf93874683a8b55b32931b0b47895a6e"
          },
          "sequence": 4294967295
        }, 
        {
          "txid": "7ecf4bd63eecd94d40fe5877102d23a7844678e306491949ae2c63fa6fce34aa",
          "vout": 2421,
          "scriptSig": {
            "asm": "30450221008a50df9fff58000546fc898d933aca1775d4dec3153a1fb7d70a3e1a1df5443a02204e84b1c6e1e2dad592a6715be3a2bfe32393f79a7dded58669879f0c32965caf[ALL] 02aef25461e8e47111f375464d43174e70cf93874683a8b55b32931b0b47895a6e",
            "hex": "4830450221008a50df9fff58000546fc898d933aca1775d4dec3153a1fb7d70a3e1a1df5443a02204e84b1c6e1e2dad592a6715be3a2bfe32393f79a7dded58669879f0c32965caf012102aef25461e8e47111f375464d43174e70cf93874683a8b55b32931b0b47895a6e"
          },
          "sequence": 4294967295
        }, 
        {
          "txid": "e24968994699bc02fb699fe384a94537c16b4e527562a369d273e91002ab0745",
          "vout": 2426,
          "scriptSig": {
            "asm": "304402202f94d4ecddc01de5ef081f462f8655fe9eb34d3d5f3a34af7d3851048a9064c902205357e6f603c8a9953f92538bfa6248474ad07e25e4031bb931278650b8ce7d09[ALL] 02aef25461e8e47111f375464d43174e70cf93874683a8b55b32931b0b47895a6e",
            "hex": "47304402202f94d4ecddc01de5ef081f462f8655fe9eb34d3d5f3a34af7d3851048a9064c902205357e6f603c8a9953f92538bfa6248474ad07e25e4031bb931278650b8ce7d09012102aef25461e8e47111f375464d43174e70cf93874683a8b55b32931b0b47895a6e"
          },
          "sequence": 4294967295
        }, 
        {
          "txid": "2a31b60c312b34d2dc27b9c213c7c590618e73adb615da03c03306619cb00986",
          "vout": 2423,
          "scriptSig": {
            "asm": "30440220062e634bccff3ed307e8df1c312086e8d8105f1db12c8df72e93d9fc26d9781b02204ee0ce1e07ec3bb6420b033b66397c8877e496a23ea6903ddb89f146f57e6652[ALL] 02aef25461e8e47111f375464d43174e70cf93874683a8b55b32931b0b47895a6e",
            "hex": "4730440220062e634bccff3ed307e8df1c312086e8d8105f1db12c8df72e93d9fc26d9781b02204ee0ce1e07ec3bb6420b033b66397c8877e496a23ea6903ddb89f146f57e6652012102aef25461e8e47111f375464d43174e70cf93874683a8b55b32931b0b47895a6e"
          },
          "sequence": 4294967295
        }, 
        {
          "txid": "371ca7617482bc4c4be867a06e25e662ef8c743f2ee2a8a03e37152b80f9b3f5",
          "vout": 2417,
          "scriptSig": {
            "asm": "3045022100e0384289a6874113774a4a056a55e72186048f6abda5f0fc51c5c8c71c32a3e302206dba64e3cc0f3bb6435f90bb69def330c935834b429f8740bea142b7b2afdc4a[ALL] 02aef25461e8e47111f375464d43174e70cf93874683a8b55b32931b0b47895a6e",
            "hex": "483045022100e0384289a6874113774a4a056a55e72186048f6abda5f0fc51c5c8c71c32a3e302206dba64e3cc0f3bb6435f90bb69def330c935834b429f8740bea142b7b2afdc4a012102aef25461e8e47111f375464d43174e70cf93874683a8b55b32931b0b47895a6e"
          },
          "sequence": 4294967295
        }, 
        {
          "txid": "68b20e09339c1d214d8092138cdb461c6beceef0a3ad95967cbef5f9ad5b36c3",
          "vout": 2418,
          "scriptSig": {
            "asm": "3045022100f53ed72ac34cb6a4114c0e32d4ba7ca272fac96b3d14afbb3c5ac75a93ab1d2c02200e340b776b548b5fc096b6a4bf77e9c6bda9da6909d41b47b68ac14e6c85fec3[ALL] 02aef25461e8e47111f375464d43174e70cf93874683a8b55b32931b0b47895a6e",
            "hex": "483045022100f53ed72ac34cb6a4114c0e32d4ba7ca272fac96b3d14afbb3c5ac75a93ab1d2c02200e340b776b548b5fc096b6a4bf77e9c6bda9da6909d41b47b68ac14e6c85fec3012102aef25461e8e47111f375464d43174e70cf93874683a8b55b32931b0b47895a6e"
          },
          "sequence": 4294967295
        }, 
        {
          "txid": "8e1317049827f908b51f962853951a3dc4759017350482a739b120a7987b7716",
          "vout": 2420,
          "scriptSig": {
            "asm": "3045022100f4dcc60e7601adc534e95f2a6b1f8c4c28a7f5ef5c585dbc3660af8ee07f0911022039604af9e840500ef490fe0a49fe5ebabf989122138b25230fa8eb9e2ff8f598[ALL] 02aef25461e8e47111f375464d43174e70cf93874683a8b55b32931b0b47895a6e",
            "hex": "483045022100f4dcc60e7601adc534e95f2a6b1f8c4c28a7f5ef5c585dbc3660af8ee07f0911022039604af9e840500ef490fe0a49fe5ebabf989122138b25230fa8eb9e2ff8f598012102aef25461e8e47111f375464d43174e70cf93874683a8b55b32931b0b47895a6e"
          },
          "sequence": 4294967295
        }, 
        {
          "txid": "d5af44278cea7e21fe73f0f527c6319f5edccbc5a6bbb0dc15b50cceee702d3c",
          "vout": 2421,
          "scriptSig": {
            "asm": "304402207eaf6a38efbfd138acac530f0170f020349375d0867ba8353c00c7e24f178c0e02203a6d875bfff89e284d4a00c7aeeccda1966aa82a036bb25c81de7faa15fd6e89[ALL] 02aef25461e8e47111f375464d43174e70cf93874683a8b55b32931b0b47895a6e",
            "hex": "47304402207eaf6a38efbfd138acac530f0170f020349375d0867ba8353c00c7e24f178c0e02203a6d875bfff89e284d4a00c7aeeccda1966aa82a036bb25c81de7faa15fd6e89012102aef25461e8e47111f375464d43174e70cf93874683a8b55b32931b0b47895a6e"
          },
          "sequence": 4294967295
        }, 
        {
          "txid": "2b952f63a40c28d89261e84058174c07100c696e8c122d625c9b0ea11ed96487",
          "vout": 2421,
          "scriptSig": {
            "asm": "304402203691d229ac2acb99845b828d5dd0314fe088f160a132332d9490a93eae8ce44802207fc368c5dd2793cfbddbb8f1b39c3c446ad248664aab7a485aec3073da9a0ebf[ALL] 02aef25461e8e47111f375464d43174e70cf93874683a8b55b32931b0b47895a6e",
            "hex": "47304402203691d229ac2acb99845b828d5dd0314fe088f160a132332d9490a93eae8ce44802207fc368c5dd2793cfbddbb8f1b39c3c446ad248664aab7a485aec3073da9a0ebf012102aef25461e8e47111f375464d43174e70cf93874683a8b55b32931b0b47895a6e"
          },
          "sequence": 4294967295
        }, 
        {
          "txid": "67fd93a92bb995dd3c12de603217fafd23ac49f4e67048c97a531bf9c938bb0e",
          "vout": 2430,
          "scriptSig": {
            "asm": "3045022100dda1f5f8b7ab4dc07e9b2e5792402d020dadc696697d3190098648a8eb396bdd02207f9219f27278b53b194dbe5713b81e863985d896e86c3f16421056736d758554[ALL] 02aef25461e8e47111f375464d43174e70cf93874683a8b55b32931b0b47895a6e",
            "hex": "483045022100dda1f5f8b7ab4dc07e9b2e5792402d020dadc696697d3190098648a8eb396bdd02207f9219f27278b53b194dbe5713b81e863985d896e86c3f16421056736d758554012102aef25461e8e47111f375464d43174e70cf93874683a8b55b32931b0b47895a6e"
          },
          "sequence": 4294967295
        }, 
        {
          "txid": "f75a36899f4819413ec103b8e236072eb32bee9c5acb1ebdb755a7c03a7ac557",
          "vout": 1,
          "scriptSig": {
            "asm": "3045022100e6fb1c5d15b51378e3bc7fd038c90ecec292da5cc54bfc530c98336d75eb5d5202207a09210da3aeef5f73ba1fe4eed4e235b51f543137bbc3a6f0c34d6fd4ce1f67[ALL] 03bfb45a3c743a7b04582be0093ba5865e2f4fa417cefa11cb7dd368bd3f4c6590",
            "hex": "483045022100e6fb1c5d15b51378e3bc7fd038c90ecec292da5cc54bfc530c98336d75eb5d5202207a09210da3aeef5f73ba1fe4eed4e235b51f543137bbc3a6f0c34d6fd4ce1f67012103bfb45a3c743a7b04582be0093ba5865e2f4fa417cefa11cb7dd368bd3f4c6590"
          },
          "sequence": 4294967295
        }
      ],
      "vout": [
        {
          "value": 0.52313755,
          "n": 0,
          "scriptPubKey": {
            "asm": "OP_DUP OP_HASH160 2e8934f8e6cb265b18450617a0fdd0e07571ab84 OP_EQUALVERIFY OP_CHECKSIG",
            "hex": "76a9142e8934f8e6cb265b18450617a0fdd0e07571ab8488ac",
            "reqSigs": 1,
            "type": "pubkeyhash",
            "addresses": [
              "LPU1iLkYmbMAHfaXFAkYXcrt2SkhnhJHVL"
            ]
          }
        }
      ],
      "hex": "010000000bd628ff4076b3193b87d833b2ed3b13c1f9fa47626c7f1bac5506b068f6f83bae750900006b4830450221008fa8c46e95b0b931286433f344def16ba2f5f96c3295f66658e63afeb9719b00022014560392afaf85b5c8ba2cc5010319d8a008ba2d77b2d80c9463ffd565556601012102aef25461e8e47111f375464d43174e70cf93874683a8b55b32931b0b47895a6effffffffaa34ce6ffa632cae49194906e3784684a7232d107758fe404dd9ec3ed64bcf7e750900006b4830450221008a50df9fff58000546fc898d933aca1775d4dec3153a1fb7d70a3e1a1df5443a02204e84b1c6e1e2dad592a6715be3a2bfe32393f79a7dded58669879f0c32965caf012102aef25461e8e47111f375464d43174e70cf93874683a8b55b32931b0b47895a6effffffff4507ab0210e973d269a36275524e6bc13745a984e39f69fb02bc9946996849e27a0900006a47304402202f94d4ecddc01de5ef081f462f8655fe9eb34d3d5f3a34af7d3851048a9064c902205357e6f603c8a9953f92538bfa6248474ad07e25e4031bb931278650b8ce7d09012102aef25461e8e47111f375464d43174e70cf93874683a8b55b32931b0b47895a6effffffff8609b09c610633c003da15b6ad738e6190c5c713c2b927dcd2342b310cb6312a770900006a4730440220062e634bccff3ed307e8df1c312086e8d8105f1db12c8df72e93d9fc26d9781b02204ee0ce1e07ec3bb6420b033b66397c8877e496a23ea6903ddb89f146f57e6652012102aef25461e8e47111f375464d43174e70cf93874683a8b55b32931b0b47895a6efffffffff5b3f9802b15373ea0a8e22e3f748cef62e6256ea067e84b4cbc827461a71c37710900006b483045022100e0384289a6874113774a4a056a55e72186048f6abda5f0fc51c5c8c71c32a3e302206dba64e3cc0f3bb6435f90bb69def330c935834b429f8740bea142b7b2afdc4a012102aef25461e8e47111f375464d43174e70cf93874683a8b55b32931b0b47895a6effffffffc3365badf9f5be7c9695ada3f0eeec6b1c46db8c1392804d211d9c33090eb268720900006b483045022100f53ed72ac34cb6a4114c0e32d4ba7ca272fac96b3d14afbb3c5ac75a93ab1d2c02200e340b776b548b5fc096b6a4bf77e9c6bda9da6909d41b47b68ac14e6c85fec3012102aef25461e8e47111f375464d43174e70cf93874683a8b55b32931b0b47895a6effffffff16777b98a720b139a7820435179075c43d1a955328961fb508f927980417138e740900006b483045022100f4dcc60e7601adc534e95f2a6b1f8c4c28a7f5ef5c585dbc3660af8ee07f0911022039604af9e840500ef490fe0a49fe5ebabf989122138b25230fa8eb9e2ff8f598012102aef25461e8e47111f375464d43174e70cf93874683a8b55b32931b0b47895a6effffffff3c2d70eece0cb515dcb0bba6c5cbdc5e9f31c627f5f073fe217eea8c2744afd5750900006a47304402207eaf6a38efbfd138acac530f0170f020349375d0867ba8353c00c7e24f178c0e02203a6d875bfff89e284d4a00c7aeeccda1966aa82a036bb25c81de7faa15fd6e89012102aef25461e8e47111f375464d43174e70cf93874683a8b55b32931b0b47895a6effffffff8764d91ea10e9b5c622d128c6e690c10074c175840e86192d8280ca4632f952b750900006a47304402203691d229ac2acb99845b828d5dd0314fe088f160a132332d9490a93eae8ce44802207fc368c5dd2793cfbddbb8f1b39c3c446ad248664aab7a485aec3073da9a0ebf012102aef25461e8e47111f375464d43174e70cf93874683a8b55b32931b0b47895a6effffffff0ebb38c9f91b537ac94870e6f449ac23fdfa173260de123cdd95b92ba993fd677e0900006b483045022100dda1f5f8b7ab4dc07e9b2e5792402d020dadc696697d3190098648a8eb396bdd02207f9219f27278b53b194dbe5713b81e863985d896e86c3f16421056736d758554012102aef25461e8e47111f375464d43174e70cf93874683a8b55b32931b0b47895a6effffffff57c57a3ac0a755b7bd1ecb5a9cee2bb32e0736e2b803c13e4119489f89365af7010000006b483045022100e6fb1c5d15b51378e3bc7fd038c90ecec292da5cc54bfc530c98336d75eb5d5202207a09210da3aeef5f73ba1fe4eed4e235b51f543137bbc3a6f0c34d6fd4ce1f67012103bfb45a3c743a7b04582be0093ba5865e2f4fa417cefa11cb7dd368bd3f4c6590ffffffff019b3e1e03000000001976a9142e8934f8e6cb265b18450617a0fdd0e07571ab8488ac00000000"
    }, 
    {
      "txid": "95d23f502d0f4ba034d3d8aaa88ffdb2056b724ad736a92ded2b3d332d918282",
      "hash": "95d23f502d0f4ba034d3d8aaa88ffdb2056b724ad736a92ded2b3d332d918282",
      "version": 1,
      "size": 225,
      "vsize": 225,
      "locktime": 0,
      "vin": [
        {
          "txid": "729cbbaeee56ce8c6e6ae1545319c5ae11db27a9ddb727a89c6e23c9a4ff57d3",
          "vout": 1,
          "scriptSig": {
            "asm": "304402202c071bd16b2eac83f8e830bd6b9ad704a3857858e0b824cb9e723ba3ba1389db02204387c19fb610a66baf4c8eff1f665362c4a75182a0ec3daf366b60ed73d6a9ec[ALL] 035370018f08e53df38c07f1fb5933e218717ad47ddeedb342df482e3a205dc49e",
            "hex": "47304402202c071bd16b2eac83f8e830bd6b9ad704a3857858e0b824cb9e723ba3ba1389db02204387c19fb610a66baf4c8eff1f665362c4a75182a0ec3daf366b60ed73d6a9ec0121035370018f08e53df38c07f1fb5933e218717ad47ddeedb342df482e3a205dc49e"
          },
          "sequence": 4294967295
        }
      ],
      "vout": [
        {
          "value": 1.00000000,
          "n": 0,
          "scriptPubKey": {
            "asm": "OP_DUP OP_HASH160 f6f52aced1c04412bf971df8cd66fa665acb9686 OP_EQUALVERIFY OP_CHECKSIG",
            "hex": "76a914f6f52aced1c04412bf971df8cd66fa665acb968688ac",
            "reqSigs": 1,
            "type": "pubkeyhash",
            "addresses": [
              "LhjkBvL1QYfgHBeNYwrSm9B6LkaRMTd8ai"
            ]
          }
        }, 
        {
          "value": 166.06391554,
          "n": 1,
          "scriptPubKey": {
            "asm": "OP_DUP OP_HASH160 13ced5cc920302c5afd584422ff897aafe4eda6f OP_EQUALVERIFY OP_CHECKSIG",
            "hex": "76a91413ced5cc920302c5afd584422ff897aafe4eda6f88ac",
            "reqSigs": 1,
            "type": "pubkeyhash",
            "addresses": [
              "LM2gt1taBPptKSLzyapeNyX9wvoxZrnpsV"
            ]
          }
        }
      ],
      "hex": "0100000001d357ffa4c9236e9ca827b7dda927db11aec5195354e16a6e8cce56eeaebb9c72010000006a47304402202c071bd16b2eac83f8e830bd6b9ad704a3857858e0b824cb9e723ba3ba1389db02204387c19fb610a66baf4c8eff1f665362c4a75182a0ec3daf366b60ed73d6a9ec0121035370018f08e53df38c07f1fb5933e218717ad47ddeedb342df482e3a205dc49effffffff0200e1f505000000001976a914f6f52aced1c04412bf971df8cd66fa665acb968688ac026dd1dd030000001976a91413ced5cc920302c5afd584422ff897aafe4eda6f88ac00000000"
    }, 
    {
      "txid": "9d2fc402f549f4b2a88b16dca347044f93744a0007135af1b10ffcf8109d9b4b",
      "hash": "9d2fc402f549f4b2a88b16dca347044f93744a0007135af1b10ffcf8109d9b4b",
      "version": 1,
      "size": 226,
      "vsize": 226,
      "locktime": 0,
      "vin": [
        {
          "txid": "54063dde80f0c7bd6f954ae128edc1b1e82e5f26548eccd16c29915ccdfffbef",
          "vout": 1,
          "scriptSig": {
            "asm": "30450221009fbd13086f2da93f7ed85acde2e31190dcabac4d941c7ef0603a7ad26eccb67e022054308379b4c2547dd843a3cca7e8b63ef830ffefcefa07b5d18e26e929334601[ALL] 020aa8ba94c0069fe82cf2f501e8769bc5f0a5c9ffdf0aaa79d3cec33983d0b4cc",
            "hex": "4830450221009fbd13086f2da93f7ed85acde2e31190dcabac4d941c7ef0603a7ad26eccb67e022054308379b4c2547dd843a3cca7e8b63ef830ffefcefa07b5d18e26e9293346010121020aa8ba94c0069fe82cf2f501e8769bc5f0a5c9ffdf0aaa79d3cec33983d0b4cc"
          },
          "sequence": 4294967295
        }
      ],
      "vout": [
        {
          "value": 0.68230757,
          "n": 0,
          "scriptPubKey": {
            "asm": "OP_DUP OP_HASH160 efe1268ba8b7775f09c7bac369c07b87fb8922f1 OP_EQUALVERIFY OP_CHECKSIG",
            "hex": "76a914efe1268ba8b7775f09c7bac369c07b87fb8922f188ac",
            "reqSigs": 1,
            "type": "pubkeyhash",
            "addresses": [
              "Lh6KUo8oDxBRuR1onHwzoZP7CPg8qMuZG7"
            ]
          }
        }, 
        {
          "value": 607.19446676,
          "n": 1,
          "scriptPubKey": {
            "asm": "OP_DUP OP_HASH160 cfe81fbc487c2b836caa3acc550c298dd860166d OP_EQUALVERIFY OP_CHECKSIG",
            "hex": "76a914cfe81fbc487c2b836caa3acc550c298dd860166d88ac",
            "reqSigs": 1,
            "type": "pubkeyhash",
            "addresses": [
              "LeBGDBGbJQkC2bpaV2xwENBk2HzVNASSJD"
            ]
          }
        }
      ],
      "hex": "0100000001effbffcd5c91296cd1cc8e54265f2ee8b1c1ed28e14a956fbdc7f080de3d0654010000006b4830450221009fbd13086f2da93f7ed85acde2e31190dcabac4d941c7ef0603a7ad26eccb67e022054308379b4c2547dd843a3cca7e8b63ef830ffefcefa07b5d18e26e9293346010121020aa8ba94c0069fe82cf2f501e8769bc5f0a5c9ffdf0aaa79d3cec33983d0b4ccffffffff02651e1104000000001976a914efe1268ba8b7775f09c7bac369c07b87fb8922f188ac943a29230e0000001976a914cfe81fbc487c2b836caa3acc550c298dd860166d88ac00000000"
    }, 
    {
      "txid": "319f8093bcf03b748e6e2e5db04d41fcaa723d6a69adbea528cd088b4dc2985c",
      "hash": "319f8093bcf03b748e6e2e5db04d41fcaa723d6a69adbea528cd088b4dc2985c",
      "version": 1,
      "size": 226,
      "vsize": 226,
      "locktime": 0,
      "vin": [
        {
          "txid": "c1a1713145a32e255b253299bd1517bd6eead0b6d0242a2c46f4305d15958872",
          "vout": 1,
          "scriptSig": {
            "asm": "3045022100e53efc86f3b12e243ef4f6ac7abac3adb8420b2127b2913be9d27263170fff75022060018cce1fa4e6b8c7790b2bdca301ff6576b9acd986d0a09833a4c92cf924b3[ALL] 0376753613ae8a9a7cece4865c710f4387ec6d2243e05aa2ff03a91af851201514",
            "hex": "483045022100e53efc86f3b12e243ef4f6ac7abac3adb8420b2127b2913be9d27263170fff75022060018cce1fa4e6b8c7790b2bdca301ff6576b9acd986d0a09833a4c92cf924b301210376753613ae8a9a7cece4865c710f4387ec6d2243e05aa2ff03a91af851201514"
          },
          "sequence": 4294967295
        }
      ],
      "vout": [
        {
          "value": 0.81900000,
          "n": 0,
          "scriptPubKey": {
            "asm": "OP_DUP OP_HASH160 0b6ae42ba3de5587954655ddad1673148c1f0d72 OP_EQUALVERIFY OP_CHECKSIG",
            "hex": "76a9140b6ae42ba3de5587954655ddad1673148c1f0d7288ac",
            "reqSigs": 1,
            "type": "pubkeyhash",
            "addresses": [
              "LLGKkG3i28SceUTQEnC25gqh4CarUWehfZ"
            ]
          }
        }, 
        {
          "value": 712.71869840,
          "n": 1,
          "scriptPubKey": {
            "asm": "OP_DUP OP_HASH160 b8097c0aaa69fbfe0741a47ed4006cc193061738 OP_EQUALVERIFY OP_CHECKSIG",
            "hex": "76a914b8097c0aaa69fbfe0741a47ed4006cc19306173888ac",
            "reqSigs": 1,
            "type": "pubkeyhash",
            "addresses": [
              "Lc13xWMxQBwL5Wg76nNKaSif42BFAeGwTX"
            ]
          }
        }
      ],
      "hex": "0100000001728895155d30f4462c2a24d0b6d0ea6ebd1715bd9932255b252ea3453171a1c1010000006b483045022100e53efc86f3b12e243ef4f6ac7abac3adb8420b2127b2913be9d27263170fff75022060018cce1fa4e6b8c7790b2bdca301ff6576b9acd986d0a09833a4c92cf924b301210376753613ae8a9a7cece4865c710f4387ec6d2243e05aa2ff03a91af851201514ffffffff02e0b1e104000000001976a9140b6ae42ba3de5587954655ddad1673148c1f0d7288ac906d2298100000001976a914b8097c0aaa69fbfe0741a47ed4006cc19306173888ac00000000"
    }, 
    {
      "txid": "0e293abeeef8de211b7a70a33a9f2164c1cd2d3ee0ff9ed9a2e6d33c8cb15484",
      "hash": "0e293abeeef8de211b7a70a33a9f2164c1cd2d3ee0ff9ed9a2e6d33c8cb15484",
      "version": 1,
      "size": 226,
      "vsize": 226,
      "locktime": 0,
      "vin": [
        {
          "txid": "e31e6cb02f4e84b8f5e9476f1f8a9d3ae7c0c8a6a215b7cf1ab270b538f5d9b6",
          "vout": 1,
          "scriptSig": {
            "asm": "3045022100c4bd2389e6d8c6cd5a94206496f69231dafbad5ed5e9284c76ff8f6f483635a0022058861969c4d7e87b13e96b5c664a3ec8a36c93177e9cd3effcd86c8a2987229a[ALL] 0206683710825548d9e852982abefe3d3596938a35ab95f6814250303047e4885e",
            "hex": "483045022100c4bd2389e6d8c6cd5a94206496f69231dafbad5ed5e9284c76ff8f6f483635a0022058861969c4d7e87b13e96b5c664a3ec8a36c93177e9cd3effcd86c8a2987229a01210206683710825548d9e852982abefe3d3596938a35ab95f6814250303047e4885e"
          },
          "sequence": 4294967295
        }
      ],
      "vout": [
        {
          "value": 0.28461000,
          "n": 0,
          "scriptPubKey": {
            "asm": "OP_DUP OP_HASH160 6c59c3b2bba940e5dfeb39c040106dcd5a3c860b OP_EQUALVERIFY OP_CHECKSIG",
            "hex": "76a9146c59c3b2bba940e5dfeb39c040106dcd5a3c860b88ac",
            "reqSigs": 1,
            "type": "pubkeyhash",
            "addresses": [
              "LV6rmsdYHKBWBiKzQrDmeHq83zNMLJCNyR"
            ]
          }
        }, 
        {
          "value": 166.78221044,
          "n": 1,
          "scriptPubKey": {
            "asm": "OP_DUP OP_HASH160 08bc84138854ade7f74ba0690b67a9a6b4f80c56 OP_EQUALVERIFY OP_CHECKSIG",
            "hex": "76a91408bc84138854ade7f74ba0690b67a9a6b4f80c5688ac",
            "reqSigs": 1,
            "type": "pubkeyhash",
            "addresses": [
              "LL29W4eGNxZh9cCwQMko5r7Ys6m4sMzRBu"
            ]
          }
        }
      ],
      "hex": "0100000001b6d9f538b570b21acfb715a2a6c8c0e73a9d8a1f6f47e9f5b8844e2fb06c1ee3010000006b483045022100c4bd2389e6d8c6cd5a94206496f69231dafbad5ed5e9284c76ff8f6f483635a0022058861969c4d7e87b13e96b5c664a3ec8a36c93177e9cd3effcd86c8a2987229a01210206683710825548d9e852982abefe3d3596938a35ab95f6814250303047e4885effffffff02c847b201000000001976a9146c59c3b2bba940e5dfeb39c040106dcd5a3c860b88acf47419e2030000001976a91408bc84138854ade7f74ba0690b67a9a6b4f80c5688ac00000000"
    }, 
    {
      "txid": "360719a4ed405a58367e5274a6d8d6c68d368c1823cde6a3bc043ee1c8da5ac1",
      "hash": "360719a4ed405a58367e5274a6d8d6c68d368c1823cde6a3bc043ee1c8da5ac1",
      "version": 1,
      "size": 226,
      "vsize": 226,
      "locktime": 0,
      "vin": [
        {
          "txid": "6d3264cd07123ed0c4ff42b411f1b84ce6a30832d55c7fcc285ba0b73cb3612c",
          "vout": 1,
          "scriptSig": {
            "asm": "3045022100ed5fbb47a8aa17eb25919cff99fa0abc53aca4ac41b2733909954025ed901c520220718949f8c0784f6877642a8a8eea66226f28bd21fd4e8091f5c17bad50ab1905[ALL] 030d99aff500c9a3165b6c8804ca57ebfd0dbf68c62453289c036434fee3defb3d",
            "hex": "483045022100ed5fbb47a8aa17eb25919cff99fa0abc53aca4ac41b2733909954025ed901c520220718949f8c0784f6877642a8a8eea66226f28bd21fd4e8091f5c17bad50ab19050121030d99aff500c9a3165b6c8804ca57ebfd0dbf68c62453289c036434fee3defb3d"
          },
          "sequence": 4294967295
        }
      ],
      "vout": [
        {
          "value": 0.00064750,
          "n": 0,
          "scriptPubKey": {
            "asm": "OP_DUP OP_HASH160 b659c287dc57bc276218878323bc88025e4e3add OP_EQUALVERIFY OP_CHECKSIG",
            "hex": "76a914b659c287dc57bc276218878323bc88025e4e3add88ac",
            "reqSigs": 1,
            "type": "pubkeyhash",
            "addresses": [
              "Lbr8mkb77bpzx83Btw5Wb48e5rvefoCrqy"
            ]
          }
        }, 
        {
          "value": 0.05630000,
          "n": 1,
          "scriptPubKey": {
            "asm": "OP_DUP OP_HASH160 c09037d72dc43d25dcc3eb3bac3324908596f596 OP_EQUALVERIFY OP_CHECKSIG",
            "hex": "76a914c09037d72dc43d25dcc3eb3bac3324908596f59688ac",
            "reqSigs": 1,
            "type": "pubkeyhash",
            "addresses": [
              "Lcn8mVhSR7vb4CWQBW4w7Nftmj3ZcLj1W1"
            ]
          }
        }
      ],
      "hex": "01000000012c61b33cb7a05b28cc7f5cd53208a3e64cb8f111b442ffc4d03e1207cd64326d010000006b483045022100ed5fbb47a8aa17eb25919cff99fa0abc53aca4ac41b2733909954025ed901c520220718949f8c0784f6877642a8a8eea66226f28bd21fd4e8091f5c17bad50ab19050121030d99aff500c9a3165b6c8804ca57ebfd0dbf68c62453289c036434fee3defb3dffffffff02eefc0000000000001976a914b659c287dc57bc276218878323bc88025e4e3add88ac30e85500000000001976a914c09037d72dc43d25dcc3eb3bac3324908596f59688ac00000000"
    }
  ],
  "time": 1517006912,
  "mediantime": 1517006506,
  "nonce": 6681388,
  "bits": "1a047f14",
  "difficulty": 3731199.183374282,
  "chainwork": "0000000000000000000000000000000000000000000000324114dc4bd8e55b5a",
  "previousblockhash": "e750d59d8d439f6ffc43c7a1873f9ad40d3fffeaabe597eabb8cc111e59630d0",
  "nextblockhash": "947004759285e926accb5164fc2fcf497d88e1887031c35c4fb7c4620b4c64bb"
}
