{
  "hash": "c28c6db9fd95c9b7e289025da723b2f8b39f916526e352c2233afe9b12d29805",
  "confirmations": 2345,
  "strippedsize": 2505,
  "size": 2761,
  "weight": 10276,
  "height": 1358650,
  "version": 536870912,
  "versionHex": "20000000",
  "merkleroot": "4662f018b00c39bb84bc8a459517cd101b5399079a59699f977c0c15c383dd1b",
  "tx": [
    {
      "txid": "214458051b0225369192d7d60f4f50f0b9fbc9764d82364d411418a0bcc18cd0",
      "hash": "3f5e27336b59059cc3a7d8283b9522470f63dd1950df2e38ea170db0d364029a",
      "version": 1,
      "size": 253,
      "vsize": 226,
      "locktime": 0,
      "vin": [
        {
          "coinbase": "033abb1441d69b8d802ea5db41d69b8d7f2103ff2f4c54432e544f502ffabe6d6dc406052a5cbde772cb65b4a00392eb024dfe475235f618246567205cd247baf501000000000000007c18b9e70300000000000000",
          "sequence": 4294967295
        }
      ],
      "vout": [
        {
          "value": 25.00808281,
          "n": 0,
          "scriptPubKey": {
            "asm": "OP_DUP OP_HASH160 0c617fdb2ea42aed30a509595ee21ba3f6688db0 OP_EQUALVERIFY OP_CHECKSIG",
            "hex": "76a9140c617fdb2ea42aed30a509595ee21ba3f6688db088ac",
            "reqSigs": 1,
            "type": "pubkeyhash",
            "addresses": [
              "LLMRAtr3qBje2ySEa3CnZ55LA4TQMWnRY3"
            ]
          }
        }, 
        {
          "value": 0.00000000,
          "n": 1,
          "scriptPubKey": {
            "asm": "OP_RETURN aa21a9edc2598b722190845bfe5b8364a3b601ab149e92ccf3cf15061a92b43bddbd477f",
            "hex": "6a24aa21a9edc2598b722190845bfe5b8364a3b601ab149e92ccf3cf15061a92b43bddbd477f",
            "type": "nulldata"
          }
        }
      ],
      "hex": "010000000001010000000000000000000000000000000000000000000000000000000000000000ffffffff55033abb1441d69b8d802ea5db41d69b8d7f2103ff2f4c54432e544f502ffabe6d6dc406052a5cbde772cb65b4a00392eb024dfe475235f618246567205cd247baf501000000000000007c18b9e70300000000000000ffffffff02594e0f95000000001976a9140c617fdb2ea42aed30a509595ee21ba3f6688db088ac0000000000000000266a24aa21a9edc2598b722190845bfe5b8364a3b601ab149e92ccf3cf15061a92b43bddbd477f0120000000000000000000000000000000000000000000000000000000000000000000000000"
    }, 
    {
      "txid": "cc191771683ff527324528e95215d348a273a0bc2d6396b58b2c554e66ad2dc9",
      "hash": "cc191771683ff527324528e95215d348a273a0bc2d6396b58b2c554e66ad2dc9",
      "version": 1,
      "size": 519,
      "vsize": 519,
      "locktime": 1358648,
      "vin": [
        {
          "txid": "d5e93ca7131ee5454e4ba077979cefe91c195b0255f9df58776a87b9023b4ef5",
          "vout": 0,
          "scriptSig": {
            "asm": "304402204be5ebda1cab858370698e5ae3aced7603793625ddb5a93882c1196b3b3398c802200dffc06f7aaf1d9d64bee6e4734c6bb6cdb1c91f69bf9ba70c67e2302944bfcf[ALL] 02d38f5a060c5f3f36ce306da67c45f420569113de69dd62b9855667ca2aaa3fd4",
            "hex": "47304402204be5ebda1cab858370698e5ae3aced7603793625ddb5a93882c1196b3b3398c802200dffc06f7aaf1d9d64bee6e4734c6bb6cdb1c91f69bf9ba70c67e2302944bfcf012102d38f5a060c5f3f36ce306da67c45f420569113de69dd62b9855667ca2aaa3fd4"
          },
          "sequence": 4294967294
        }, 
        {
          "txid": "c74c304cf63ace3ef745bd77bea6f2fa090f0fd0af6f918c965b467be8bf4f22",
          "vout": 0,
          "scriptSig": {
            "asm": "304402202d39a3087fc3074ba8c52c6fe1bb9b99f8883054140ebed141a004de85ca5488022021ff4025cacec4c7a33a99f1f19b895c57c6412d001e955c250e383128006811[ALL] 02c2c442aefcccea955a5ebc5d44675761563ec6ffe67feec229f2f30999f2bba9",
            "hex": "47304402202d39a3087fc3074ba8c52c6fe1bb9b99f8883054140ebed141a004de85ca5488022021ff4025cacec4c7a33a99f1f19b895c57c6412d001e955c250e383128006811012102c2c442aefcccea955a5ebc5d44675761563ec6ffe67feec229f2f30999f2bba9"
          },
          "sequence": 4294967294
        }, 
        {
          "txid": "34f85c20f0fb8023b4e82252d3c3d458472c42e92de26e75acd173be1bd808ae",
          "vout": 1,
          "scriptSig": {
            "asm": "3044022079de22c814ddac81faf004ddf11c2839600dfa4f46fce69b7aa6167763e45a1f022037d414d7ce9f629afb4f20118687347c02eb80a53a869fce71b0757a3aa403b7[ALL] 0340a9c4eb3164717762ace2fcece1ea10cd854201891dfb17339cc57f66a4e232",
            "hex": "473044022079de22c814ddac81faf004ddf11c2839600dfa4f46fce69b7aa6167763e45a1f022037d414d7ce9f629afb4f20118687347c02eb80a53a869fce71b0757a3aa403b701210340a9c4eb3164717762ace2fcece1ea10cd854201891dfb17339cc57f66a4e232"
          },
          "sequence": 4294967294
        }
      ],
      "vout": [
        {
          "value": 20.00000000,
          "n": 0,
          "scriptPubKey": {
            "asm": "OP_DUP OP_HASH160 8bf750eb58d3a5ffc0ad44d2106648e4d6aafb33 OP_EQUALVERIFY OP_CHECKSIG",
            "hex": "76a9148bf750eb58d3a5ffc0ad44d2106648e4d6aafb3388ac",
            "reqSigs": 1,
            "type": "pubkeyhash",
            "addresses": [
              "LXz2ThbRWMdVJvNJFynjm2d4dzktXb6Vb3"
            ]
          }
        }, 
        {
          "value": 0.01108837,
          "n": 1,
          "scriptPubKey": {
            "asm": "OP_DUP OP_HASH160 e67a551b69f2c113cbaa4a3190bd8f424d9f0206 OP_EQUALVERIFY OP_CHECKSIG",
            "hex": "76a914e67a551b69f2c113cbaa4a3190bd8f424d9f020688ac",
            "reqSigs": 1,
            "type": "pubkeyhash",
            "addresses": [
              "LgEcE9AegLYukpyz8xmkXDkxQwN7X3hYsQ"
            ]
          }
        }
      ],
      "hex": "0100000003f54e3b02b9876a7758dff955025b191ce9ef9c9777a04b4e45e51e13a73ce9d5000000006a47304402204be5ebda1cab858370698e5ae3aced7603793625ddb5a93882c1196b3b3398c802200dffc06f7aaf1d9d64bee6e4734c6bb6cdb1c91f69bf9ba70c67e2302944bfcf012102d38f5a060c5f3f36ce306da67c45f420569113de69dd62b9855667ca2aaa3fd4feffffff224fbfe87b465b968c916fafd00f0f09faf2a6be77bd45f73ece3af64c304cc7000000006a47304402202d39a3087fc3074ba8c52c6fe1bb9b99f8883054140ebed141a004de85ca5488022021ff4025cacec4c7a33a99f1f19b895c57c6412d001e955c250e383128006811012102c2c442aefcccea955a5ebc5d44675761563ec6ffe67feec229f2f30999f2bba9feffffffae08d81bbe73d1ac756ee22de9422c4758d4c3d35222e8b42380fbf0205cf834010000006a473044022079de22c814ddac81faf004ddf11c2839600dfa4f46fce69b7aa6167763e45a1f022037d414d7ce9f629afb4f20118687347c02eb80a53a869fce71b0757a3aa403b701210340a9c4eb3164717762ace2fcece1ea10cd854201891dfb17339cc57f66a4e232feffffff0200943577000000001976a9148bf750eb58d3a5ffc0ad44d2106648e4d6aafb3388ac65eb1000000000001976a914e67a551b69f2c113cbaa4a3190bd8f424d9f020688ac38bb1400"
    }, 
    {
      "txid": "c733216d17976a93255087f33d2405fdce6ccd0b0ba15116da682b5f7baece9c",
      "hash": "c733216d17976a93255087f33d2405fdce6ccd0b0ba15116da682b5f7baece9c",
      "version": 1,
      "size": 374,
      "vsize": 374,
      "locktime": 0,
      "vin": [
        {
          "txid": "fd4a8294c75658553c7410cb0ad7bb77c5237d096a2baa32912e3a8cec223a0d",
          "vout": 1,
          "scriptSig": {
            "asm": "3045022100a7a2f3bdde0e086081f9754b1fb319c7d56b6bc264911c83303aea3403a755de022035bf637ac56eb176dc69dd097f4161a59d679d2d22550f1ff1451437a9a20a28[ALL] 025c656fdc3a8eee4c58c8e887d7078ee8da41d4bd2fbdce026d443bf4f5f8c272",
            "hex": "483045022100a7a2f3bdde0e086081f9754b1fb319c7d56b6bc264911c83303aea3403a755de022035bf637ac56eb176dc69dd097f4161a59d679d2d22550f1ff1451437a9a20a280121025c656fdc3a8eee4c58c8e887d7078ee8da41d4bd2fbdce026d443bf4f5f8c272"
          },
          "sequence": 4294967295
        }, 
        {
          "txid": "eab8f2c0a1c7f367c6081e6e01a15cf4d436d7c8058007994c6321421d69493b",
          "vout": 0,
          "scriptSig": {
            "asm": "3045022100fddd0b1d4651ba9c45356751184825857bb0378e268dc4dae95742aa1258888f022021120b891915a31615904d759ccb81af373fef3123861143d79c42d00834f2b7[ALL] 03938c469bb0b8f58feb4ab9fb1055d0497d633d594472c1c67bec29332d99bb6f",
            "hex": "483045022100fddd0b1d4651ba9c45356751184825857bb0378e268dc4dae95742aa1258888f022021120b891915a31615904d759ccb81af373fef3123861143d79c42d00834f2b7012103938c469bb0b8f58feb4ab9fb1055d0497d633d594472c1c67bec29332d99bb6f"
          },
          "sequence": 4294967295
        }
      ],
      "vout": [
        {
          "value": 0.13253810,
          "n": 0,
          "scriptPubKey": {
            "asm": "OP_DUP OP_HASH160 118f95edafc1c61c3d171c85161090612a843caa OP_EQUALVERIFY OP_CHECKSIG",
            "hex": "76a914118f95edafc1c61c3d171c85161090612a843caa88ac",
            "reqSigs": 1,
            "type": "pubkeyhash",
            "addresses": [
              "LLpokypq9QDAdVtfui8CrKxHWcJhUNqLmD"
            ]
          }
        }, 
        {
          "value": 0.25458100,
          "n": 1,
          "scriptPubKey": {
            "asm": "OP_DUP OP_HASH160 9c5b246aafb787c989c7e4d3989086f5e44ba517 OP_EQUALVERIFY OP_CHECKSIG",
            "hex": "76a9149c5b246aafb787c989c7e4d3989086f5e44ba51788ac",
            "reqSigs": 1,
            "type": "pubkeyhash",
            "addresses": [
              "LZUgrp8E9J8Dw27yUmzvj3f5Y3AVy7kR8S"
            ]
          }
        }
      ],
      "hex": "01000000020d3a22ec8c3a2e9132aa2b6a097d23c577bbd70acb10743c555856c794824afd010000006b483045022100a7a2f3bdde0e086081f9754b1fb319c7d56b6bc264911c83303aea3403a755de022035bf637ac56eb176dc69dd097f4161a59d679d2d22550f1ff1451437a9a20a280121025c656fdc3a8eee4c58c8e887d7078ee8da41d4bd2fbdce026d443bf4f5f8c272ffffffff3b49691d4221634c99078005c8d736d4f45ca1016e1e08c667f3c7a1c0f2b8ea000000006b483045022100fddd0b1d4651ba9c45356751184825857bb0378e268dc4dae95742aa1258888f022021120b891915a31615904d759ccb81af373fef3123861143d79c42d00834f2b7012103938c469bb0b8f58feb4ab9fb1055d0497d633d594472c1c67bec29332d99bb6fffffffff02b23cca00000000001976a914118f95edafc1c61c3d171c85161090612a843caa88acb4758401000000001976a9149c5b246aafb787c989c7e4d3989086f5e44ba51788ac00000000"
    }, 
    {
      "txid": "32c3f4d9a55a685bff5a74aa7b6bbc2c43d95f400d911c09e738d65856d0e54c",
      "hash": "32c3f4d9a55a685bff5a74aa7b6bbc2c43d95f400d911c09e738d65856d0e54c",
      "version": 1,
      "size": 486,
      "vsize": 486,
      "locktime": 0,
      "vin": [
        {
          "txid": "0bde6814e509194195cfa34b241ca4dc0ced2525e703d8345c2597fe40e1fb3b",
          "vout": 0,
          "scriptSig": {
            "asm": "3045022100ed9ca727710ba74d4f0c92e4ba21cc582fd00a83fcd53193c32ea131a264574b022003df0c39bec650709750f93d6cb74b613efe7e36b7434ca820f2453024d2e0d7[ALL] 02053cf4121e66d4ecfa314bfea3e56862e8f7006104bf8297f2bd275f68e4a621",
            "hex": "483045022100ed9ca727710ba74d4f0c92e4ba21cc582fd00a83fcd53193c32ea131a264574b022003df0c39bec650709750f93d6cb74b613efe7e36b7434ca820f2453024d2e0d7012102053cf4121e66d4ecfa314bfea3e56862e8f7006104bf8297f2bd275f68e4a621"
          },
          "sequence": 4294967294
        }, 
        {
          "txid": "335a98df67de60f554c1c03adf9ab0dd2edbf42bb47f4684ed111d918b988ba7",
          "vout": 0,
          "scriptSig": {
            "asm": "304402207c5a7f4924bfb84342d66d143b259b58148ac7ce7002a56b20aa96cd1d7d42bb022059ba0c2740293b52910af8c4219248c5ec45f63e61a23f2e5ce81959377bde36[ALL] 03bb8cd0bfa0106690241f5a49d21ec77cce89cb50add7c34aa37ec1abb4671a4b",
            "hex": "47304402207c5a7f4924bfb84342d66d143b259b58148ac7ce7002a56b20aa96cd1d7d42bb022059ba0c2740293b52910af8c4219248c5ec45f63e61a23f2e5ce81959377bde36012103bb8cd0bfa0106690241f5a49d21ec77cce89cb50add7c34aa37ec1abb4671a4b"
          },
          "sequence": 4294967294
        }, 
        {
          "txid": "d36680b2e72bd53c91dcc38fe9640a17936be4bf72db3830d1789f1e27cfe8ce",
          "vout": 1,
          "scriptSig": {
            "asm": "30440220723ed94ec23ce779f94ee91d02f9f92ea22338cd0a104d8c5aa183d0a1e5bf5402204fd7b7b94e0a170fa76e6c31371a6fd9fb01c1c7a4edcc60e5b7c6f5ea9893bb[ALL] 02a91d8892589e9f1e31fcc8827893f4e840e6f26f9ec515e30154cce501246672",
            "hex": "4730440220723ed94ec23ce779f94ee91d02f9f92ea22338cd0a104d8c5aa183d0a1e5bf5402204fd7b7b94e0a170fa76e6c31371a6fd9fb01c1c7a4edcc60e5b7c6f5ea9893bb012102a91d8892589e9f1e31fcc8827893f4e840e6f26f9ec515e30154cce501246672"
          },
          "sequence": 4294967294
        }
      ],
      "vout": [
        {
          "value": 1.19000000,
          "n": 0,
          "scriptPubKey": {
            "asm": "OP_DUP OP_HASH160 e648911cf03794a207ccf9c3af8a6cb3452c45d8 OP_EQUALVERIFY OP_CHECKSIG",
            "hex": "76a914e648911cf03794a207ccf9c3af8a6cb3452c45d888ac",
            "reqSigs": 1,
            "type": "pubkeyhash",
            "addresses": [
              "LgDacNEoXsgj1KfV6a7ten1tbt9gTp449k"
            ]
          }
        }
      ],
      "hex": "01000000033bfbe140fe97255c34d803e72525ed0cdca41c244ba3cf95411909e51468de0b000000006b483045022100ed9ca727710ba74d4f0c92e4ba21cc582fd00a83fcd53193c32ea131a264574b022003df0c39bec650709750f93d6cb74b613efe7e36b7434ca820f2453024d2e0d7012102053cf4121e66d4ecfa314bfea3e56862e8f7006104bf8297f2bd275f68e4a621feffffffa78b988b911d11ed84467fb42bf4db2eddb09adf3ac0c154f560de67df985a33000000006a47304402207c5a7f4924bfb84342d66d143b259b58148ac7ce7002a56b20aa96cd1d7d42bb022059ba0c2740293b52910af8c4219248c5ec45f63e61a23f2e5ce81959377bde36012103bb8cd0bfa0106690241f5a49d21ec77cce89cb50add7c34aa37ec1abb4671a4bfeffffffcee8cf271e9f78d13038db72bfe46b93170a64e98fc3dc913cd52be7b28066d3010000006a4730440220723ed94ec23ce779f94ee91d02f9f92ea22338cd0a104d8c5aa183d0a1e5bf5402204fd7b7b94e0a170fa76e6c31371a6fd9fb01c1c7a4edcc60e5b7c6f5ea9893bb012102a91d8892589e9f1e31fcc8827893f4e840e6f26f9ec515e30154cce501246672feffffff01c0cb1707000000001976a914e648911cf03794a207ccf9c3af8a6cb3452c45d888ac00000000"
    }, 
    {
      "txid": "a9362bc4c5bfd8dd3e95d1e5a6c46cdc546c2b41525fe6b590ee53adccbfc546",
      "hash": "a9362bc4c5bfd8dd3e95d1e5a6c46cdc546c2b41525fe6b590ee53adccbfc546",
      "version": 1,
      "size": 225,
      "vsize": 225,
      "locktime": 0,
      "vin": [
        {
          "txid": "a686d795a1a4448a8e8d84b12571a09e72ce34b571963a5f1b8a050d99a4712e",
          "vout": 1,
          "scriptSig": {
            "asm": "304402200c6d405389342bf4cfe75cc37f0895098511c51c81305eea6f23ab9416186a3802200111060f589eb4e75c9ed5cdc4d68b5b2a0f0f7bdc3e2c2b72fad3fc40b0cc71[ALL] 03baf184122bfcd785e6bf802f25a92c838dec75351cef9d6a13189c914ca91ad6",
            "hex": "47304402200c6d405389342bf4cfe75cc37f0895098511c51c81305eea6f23ab9416186a3802200111060f589eb4e75c9ed5cdc4d68b5b2a0f0f7bdc3e2c2b72fad3fc40b0cc71012103baf184122bfcd785e6bf802f25a92c838dec75351cef9d6a13189c914ca91ad6"
          },
          "sequence": 4294967295
        }
      ],
      "vout": [
        {
          "value": 0.42554533,
          "n": 0,
          "scriptPubKey": {
            "asm": "OP_DUP OP_HASH160 d95b8bc6663426335467c50b34db35b117a2bbcc OP_EQUALVERIFY OP_CHECKSIG",
            "hex": "76a914d95b8bc6663426335467c50b34db35b117a2bbcc88ac",
            "reqSigs": 1,
            "type": "pubkeyhash",
            "addresses": [
              "Lf3EZZsSAVPeSv479URW2uNT2zrdiu9cFB"
            ]
          }
        }, 
        {
          "value": 0.01866334,
          "n": 1,
          "scriptPubKey": {
            "asm": "OP_DUP OP_HASH160 61be33344eccea3792b9461cf6f570b661b23be7 OP_EQUALVERIFY OP_CHECKSIG",
            "hex": "76a91461be33344eccea3792b9461cf6f570b661b23be788ac",
            "reqSigs": 1,
            "type": "pubkeyhash",
            "addresses": [
              "LU8mf9cu2NBJqnoESLKzsC1M8FXTbRGMeK"
            ]
          }
        }
      ],
      "hex": "01000000012e71a4990d058a1b5f3a9671b534ce729ea07125b1848d8e8a44a4a195d786a6010000006a47304402200c6d405389342bf4cfe75cc37f0895098511c51c81305eea6f23ab9416186a3802200111060f589eb4e75c9ed5cdc4d68b5b2a0f0f7bdc3e2c2b72fad3fc40b0cc71012103baf184122bfcd785e6bf802f25a92c838dec75351cef9d6a13189c914ca91ad6ffffffff02a5548902000000001976a914d95b8bc6663426335467c50b34db35b117a2bbcc88ac5e7a1c00000000001976a91461be33344eccea3792b9461cf6f570b661b23be788ac00000000"
    }, 
    {
      "txid": "5887bbdcc0a1805dd8d355bc33d339b9f5a727f3e47b01b4008bceb50e11d51c",
      "hash": "aa28dc48850b4d156e4b3b89e1e91c39ba89b685f08783007ea40a5c6ac8b1a5",
      "version": 1,
      "size": 372,
      "vsize": 207,
      "locktime": 0,
      "vin": [
        {
          "txid": "9f27dd4411af1b2a2030715884565670265d399c5b7b748d1374d4a93c3592ed",
          "vout": 1,
          "scriptSig": {
            "asm": "0020409fd93c7351b461fa46963fa28755038f397ee054ab9e56eda0b1081d768cc4",
            "hex": "220020409fd93c7351b461fa46963fa28755038f397ee054ab9e56eda0b1081d768cc4"
          },
          "txinwitness": [
            "", 
            "30440220522d98af4499edfcaa313ccf15d7eb62d87676911b2f3d0429ebf25155cd4b360220430e6aca7771a19124b52300d25618164549843d8e021e0c3c757c851a9a393501", 
            "3044022064bbbc3783139aa78d78ec423f51a17255704e5a2a3246f3b37bc50e37e29943022077bb2cfd03d804e2f052b91030b888c332701462fb03faad9f6d681a7a7e096501", 
            "522103ceb293b39e087131961da42b3deaef48432d57a08bfd111247901be2936525b32103fa185b0d6c2a6d812d1a9418c54b3cea527d229a73a0c6c72345a1851ebcdad352ae"
          ],
          "sequence": 4294967295
        }
      ],
      "vout": [
        {
          "value": 0.01041700,
          "n": 0,
          "scriptPubKey": {
            "asm": "OP_DUP OP_HASH160 1addb4ea5392366592089ad6c1a3b9e0d3ae97da OP_EQUALVERIFY OP_CHECKSIG",
            "hex": "76a9141addb4ea5392366592089ad6c1a3b9e0d3ae97da88ac",
            "reqSigs": 1,
            "type": "pubkeyhash",
            "addresses": [
              "LMg1RenJkXu3C7YUFoLP29RBHFcBHnEYog"
            ]
          }
        }, 
        {
          "value": 0.93629200,
          "n": 1,
          "scriptPubKey": {
            "asm": "OP_HASH160 2d9ba1f1c217fd18a576b17eaf8a1c6f1cd2f1de OP_EQUAL",
            "hex": "a9142d9ba1f1c217fd18a576b17eaf8a1c6f1cd2f1de87",
            "reqSigs": 1,
            "type": "scripthash",
            "addresses": [
              "MC4K5c2x6rcVohDBLrLNQRsqL5atuzztot"
            ]
          }
        }
      ],
      "hex": "01000000000101ed92353ca9d474138d747b5b9c395d2670565684587130202a1baf1144dd279f0100000023220020409fd93c7351b461fa46963fa28755038f397ee054ab9e56eda0b1081d768cc4ffffffff0224e50f00000000001976a9141addb4ea5392366592089ad6c1a3b9e0d3ae97da88ac10ab94050000000017a9142d9ba1f1c217fd18a576b17eaf8a1c6f1cd2f1de8704004730440220522d98af4499edfcaa313ccf15d7eb62d87676911b2f3d0429ebf25155cd4b360220430e6aca7771a19124b52300d25618164549843d8e021e0c3c757c851a9a393501473044022064bbbc3783139aa78d78ec423f51a17255704e5a2a3246f3b37bc50e37e29943022077bb2cfd03d804e2f052b91030b888c332701462fb03faad9f6d681a7a7e09650147522103ceb293b39e087131961da42b3deaef48432d57a08bfd111247901be2936525b32103fa185b0d6c2a6d812d1a9418c54b3cea527d229a73a0c6c72345a1851ebcdad352ae00000000"
    }, 
    {
      "txid": "8693333fc1ff7383f46f8d9f35425b0a5545b7b214bed0d034fdbaac5b061338",
      "hash": "8693333fc1ff7383f46f8d9f35425b0a5545b7b214bed0d034fdbaac5b061338",
      "version": 1,
      "size": 225,
      "vsize": 225,
      "locktime": 0,
      "vin": [
        {
          "txid": "7f8a4a335084144f083f4d1b73536acd2f6157d3d62368b60d01f3623d4ee82a",
          "vout": 0,
          "scriptSig": {
            "asm": "3044022076c50e7629b0cb593f600afca260ba5d9762092717166fb07edb9afcf15a3e5002202bb39b0cf24a3331b9220e54a2b0ad12b848f432054b3b6bb21f44f58516ece5[ALL] 035ea5e07f3da8da3bcb84b288b58a44c9965439639dc66eb76eb05ff0b6fff272",
            "hex": "473044022076c50e7629b0cb593f600afca260ba5d9762092717166fb07edb9afcf15a3e5002202bb39b0cf24a3331b9220e54a2b0ad12b848f432054b3b6bb21f44f58516ece50121035ea5e07f3da8da3bcb84b288b58a44c9965439639dc66eb76eb05ff0b6fff272"
          },
          "sequence": 4294967295
        }
      ],
      "vout": [
        {
          "value": 39.96274732,
          "n": 0,
          "scriptPubKey": {
            "asm": "OP_DUP OP_HASH160 bd9b5bbd9204a393f63e9807135117ed22c66ee1 OP_EQUALVERIFY OP_CHECKSIG",
            "hex": "76a914bd9b5bbd9204a393f63e9807135117ed22c66ee188ac",
            "reqSigs": 1,
            "type": "pubkeyhash",
            "addresses": [
              "LcWW5xU797PRW1thTwJmDrkPziP84Jox5K"
            ]
          }
        }, 
        {
          "value": 3.03088086,
          "n": 1,
          "scriptPubKey": {
            "asm": "OP_DUP OP_HASH160 9d0eeef8d85b5e915a5e1913ee385c16b15009ca OP_EQUALVERIFY OP_CHECKSIG",
            "hex": "76a9149d0eeef8d85b5e915a5e1913ee385c16b15009ca88ac",
            "reqSigs": 1,
            "type": "pubkeyhash",
            "addresses": [
              "LZYQEviyaiNGwPRp1cwVxRTAB7La2chTqs"
            ]
          }
        }
      ],
      "hex": "01000000012ae84e3d62f3010db66823d6d357612fcd6a53731b4d3f084f148450334a8a7f000000006a473044022076c50e7629b0cb593f600afca260ba5d9762092717166fb07edb9afcf15a3e5002202bb39b0cf24a3331b9220e54a2b0ad12b848f432054b3b6bb21f44f58516ece50121035ea5e07f3da8da3bcb84b288b58a44c9965439639dc66eb76eb05ff0b6fff272ffffffff022c5032ee000000001976a914bd9b5bbd9204a393f63e9807135117ed22c66ee188acd6c11012000000001976a9149d0eeef8d85b5e915a5e1913ee385c16b15009ca88ac00000000"
    }, 
    {
      "txid": "63023c253d0acfd2476832b7971b7e6fb23a81793c4d071b8e575295cd761cc3",
      "hash": "63023c253d0acfd2476832b7971b7e6fb23a81793c4d071b8e575295cd761cc3",
      "version": 1,
      "size": 226,
      "vsize": 226,
      "locktime": 0,
      "vin": [
        {
          "txid": "52e6dd8755811ebb0a58ca5b3cd56b4db6c06b069ead5c574dd7ccc9645290fb",
          "vout": 0,
          "scriptSig": {
            "asm": "3045022100cdf07af286762cb4282c60daa625af940cfa87bfad40c2f0c0d4d563631c8aee022060fb7580d66ea16070ef8cc65b89eb16a1dce3966f5b383126d04ed60995fb89[ALL] 03cdb4cf19039d74823e51edfce10f6248f66b0779e1f24f20cc00e516b2809d46",
            "hex": "483045022100cdf07af286762cb4282c60daa625af940cfa87bfad40c2f0c0d4d563631c8aee022060fb7580d66ea16070ef8cc65b89eb16a1dce3966f5b383126d04ed60995fb89012103cdb4cf19039d74823e51edfce10f6248f66b0779e1f24f20cc00e516b2809d46"
          },
          "sequence": 4294967295
        }
      ],
      "vout": [
        {
          "value": 0.69963763,
          "n": 0,
          "scriptPubKey": {
            "asm": "OP_DUP OP_HASH160 9fb1ec5a500b626ef9e9227f4bbf6002a50cd206 OP_EQUALVERIFY OP_CHECKSIG",
            "hex": "76a9149fb1ec5a500b626ef9e9227f4bbf6002a50cd20688ac",
            "reqSigs": 1,
            "type": "pubkeyhash",
            "addresses": [
              "LZnLr3BRiEg7LNuq34SDNbxBQGfvFGrYnx"
            ]
          }
        }, 
        {
          "value": 42.28797074,
          "n": 1,
          "scriptPubKey": {
            "asm": "OP_DUP OP_HASH160 6045967923377979de4973fa554b29ad3e43bb85 OP_EQUALVERIFY OP_CHECKSIG",
            "hex": "76a9146045967923377979de4973fa554b29ad3e43bb8588ac",
            "reqSigs": 1,
            "type": "pubkeyhash",
            "addresses": [
              "LTzzVfymEmM36xaJgDU5VYEFKUkfLwGQTN"
            ]
          }
        }
      ],
      "hex": "0100000001fb905264c9ccd74d575cad9e066bc0b64d6bd53c5bca580abb1e815587dde652000000006b483045022100cdf07af286762cb4282c60daa625af940cfa87bfad40c2f0c0d4d563631c8aee022060fb7580d66ea16070ef8cc65b89eb16a1dce3966f5b383126d04ed60995fb89012103cdb4cf19039d74823e51edfce10f6248f66b0779e1f24f20cc00e516b2809d46ffffffff02f38f2b04000000001976a9149fb1ec5a500b626ef9e9227f4bbf6002a50cd20688ac92520efc000000001976a9146045967923377979de4973fa554b29ad3e43bb8588ac00000000"
    }
  ],
  "time": 1517172220,
  "mediantime": 1517171820,
  "nonce": 451202001,
  "bits": "1a047f14",
  "difficulty": 3731199.183374282,
  "chainwork": "0000000000000000000000000000000000000000000000334711a486a4f0eafe",
  "previousblockhash": "0c410397a6fbc5660a649c989980fe4438bfccaba9ae9811320ababad144b688",
  "nextblockhash": "cca105504d2b3cac40ca3f90d73f15dfad040fade30fb25e0901d73113b4dccc"
}
