{
  "hash": "c29d955811e15af087e244a991e876eae5c236c0fdbd7ddf5ccb0562542b0ed2",
  "confirmations": 147,
  "strippedsize": 234,
  "size": 234,
  "weight": 936,
  "height": 1360847,
  "version": 536870912,
  "versionHex": "20000000",
  "merkleroot": "19213e9f8a4d24667a95e9816459eebf0567dbe456f5b1c704756e9c9fb7b88c",
  "tx": [
    {
      "txid": "19213e9f8a4d24667a95e9816459eebf0567dbe456f5b1c704756e9c9fb7b88c",
      "hash": "19213e9f8a4d24667a95e9816459eebf0567dbe456f5b1c704756e9c9fb7b88c",
      "version": 1,
      "size": 153,
      "vsize": 153,
      "locktime": 0,
      "vin": [
        {
          "coinbase": "03cfc314045a730c842cfabe6d6d9ae5bcf037022c518030f7420e60b5a92c058b3772e2678121ca886036bd1d364000000000000000042f4c502f0822000d6b12000000",
          "sequence": 4294967295
        }
      ],
      "vout": [
        {
          "value": 25.00000000,
          "n": 0,
          "scriptPubKey": {
            "asm": "OP_DUP OP_HASH160 57757ed2ecf2052ff3126c397aca7defb9ca2cec OP_EQUALVERIFY OP_CHECKSIG",
            "hex": "76a91457757ed2ecf2052ff3126c397aca7defb9ca2cec88ac",
            "reqSigs": 1,
            "type": "pubkeyhash",
            "addresses": [
              "LTCPodGk5FwcJaRzH9yKnwicxzFUbxp6tN"
            ]
          }
        }
      ],
      "hex": "01000000010000000000000000000000000000000000000000000000000000000000000000ffffffff4403cfc314045a730c842cfabe6d6d9ae5bcf037022c518030f7420e60b5a92c058b3772e2678121ca886036bd1d364000000000000000042f4c502f0822000d6b12000000ffffffff0100f90295000000001976a91457757ed2ecf2052ff3126c397aca7defb9ca2cec88ac00000000"
    }
  ],
  "time": 1517489284,
  "mediantime": 1517488831,
  "nonce": 3951196835,
  "bits": "1a04088e",
  "difficulty": 4159490.835685156,
  "chainwork": "000000000000000000000000000000000000000000000035529342e531eb5f40",
  "previousblockhash": "830a30665edbc87f1210879ab8b71c09c6f77ac37199745efc357703764f0a83",
  "nextblockhash": "ce20bc6b226a4c019276c8781f45982f24a3f21152a2acd99f7dd4cb8f57cfe9"
}
