{
  "hash": "c2a1d0b361f84043a521fe2bd7eb1c9c1186a6538e9d8d918a87a6e3d693a7b0",
  "confirmations": 225,
  "strippedsize": 255,
  "size": 255,
  "weight": 1020,
  "height": 1360769,
  "version": 536870912,
  "versionHex": "20000000",
  "merkleroot": "70b40d437229a4b849d4aae17645bd81be0e560ee221f9b6d169ea79b62fc09f",
  "tx": [
    {
      "txid": "70b40d437229a4b849d4aae17645bd81be0e560ee221f9b6d169ea79b62fc09f",
      "hash": "70b40d437229a4b849d4aae17645bd81be0e560ee221f9b6d169ea79b62fc09f",
      "version": 1,
      "size": 174,
      "vsize": 174,
      "locktime": 0,
      "vin": [
        {
          "coinbase": "0381c3141c4d696e656420627920416e74506f6f6c20626a3242205a72e50f0686fabe6d6d17ff2a0a84d179bffde43bd7e2d602ec6e66ef2869d3a92d065ab6ffdb90c5220400000000000000d1010000000000001a000000",
          "sequence": 4294967295
        }
      ],
      "vout": [
        {
          "value": 25.00000000,
          "n": 0,
          "scriptPubKey": {
            "asm": "OP_DUP OP_HASH160 0ff3ccc5e8be88afe24b5d634e5852d474dbdff1 OP_EQUALVERIFY OP_CHECKSIG",
            "hex": "76a9140ff3ccc5e8be88afe24b5d634e5852d474dbdff188ac",
            "reqSigs": 1,
            "type": "pubkeyhash",
            "addresses": [
              "LLgJTbzZMsRTCUF1NtvvL9SR1a4pVieW89"
            ]
          }
        }
      ],
      "hex": "01000000010000000000000000000000000000000000000000000000000000000000000000ffffffff590381c3141c4d696e656420627920416e74506f6f6c20626a3242205a72e50f0686fabe6d6d17ff2a0a84d179bffde43bd7e2d602ec6e66ef2869d3a92d065ab6ffdb90c5220400000000000000d1010000000000001a000000ffffffff0100f90295000000001976a9140ff3ccc5e8be88afe24b5d634e5852d474dbdff188ac00000000"
    }
  ],
  "time": 1517479183,
  "mediantime": 1517478856,
  "nonce": 3034962690,
  "bits": "1a042eae",
  "difficulty": 4011378.762614286,
  "chainwork": "0000000000000000000000000000000000000000000000353f806bd75d16a704",
  "previousblockhash": "3dd545cfa0e1607bbeff37f70ab197f621ef99cf0789f00a1abe958eb432d0f4",
  "nextblockhash": "ffbd097ebe9305ad8ffed54b6ddf180198f2cc385ba6737321960bacf6de7bc2"
}
