{
  "hash": "c2afc4b51d4181fa3b8cab2c5e6c491b70dcfe5c902c7729c35a7efbdd87c04f",
  "confirmations": 1882,
  "strippedsize": 5040,
  "size": 5076,
  "weight": 20196,
  "height": 1359112,
  "version": 536870912,
  "versionHex": "20000000",
  "merkleroot": "21d89117a2fb7746b403b559ed737fcb000d8e0d5fd26cbeb7ef9caf65539140",
  "tx": [
    {
      "txid": "6453c1dfa2e6f6c5447bcfcd9738e93fb02e5877b6bab130ecafd0b8e246c294",
      "hash": "6777b32f3259098c6405ec1a7bb5f19c9519850f79ee24fe538737b387984c45",
      "version": 1,
      "size": 240,
      "vsize": 213,
      "locktime": 0,
      "vin": [
        {
          "coinbase": "0308bd1404ca376f5a0803d599f004000000fabe6d6db78b3f08d3c7caa1f26bae93628fbb17d0e82f3e863c7f8459c35b56b319d2b84000000000000000092f4c54432e544f502f",
          "sequence": 0
        }
      ],
      "vout": [
        {
          "value": 25.02916343,
          "n": 0,
          "scriptPubKey": {
            "asm": "OP_DUP OP_HASH160 0c617fdb2ea42aed30a509595ee21ba3f6688db0 OP_EQUALVERIFY OP_CHECKSIG",
            "hex": "76a9140c617fdb2ea42aed30a509595ee21ba3f6688db088ac",
            "reqSigs": 1,
            "type": "pubkeyhash",
            "addresses": [
              "LLMRAtr3qBje2ySEa3CnZ55LA4TQMWnRY3"
            ]
          }
        }, 
        {
          "value": 0.00000000,
          "n": 1,
          "scriptPubKey": {
            "asm": "OP_RETURN aa21a9ed7a7ab6ffca7db8b3b358fb601e5a466872fd060a39dfb2477177cac37ddb379f",
            "hex": "6a24aa21a9ed7a7ab6ffca7db8b3b358fb601e5a466872fd060a39dfb2477177cac37ddb379f",
            "type": "nulldata"
          }
        }
      ],
      "hex": "010000000001010000000000000000000000000000000000000000000000000000000000000000ffffffff480308bd1404ca376f5a0803d599f004000000fabe6d6db78b3f08d3c7caa1f26bae93628fbb17d0e82f3e863c7f8459c35b56b319d2b84000000000000000092f4c54432e544f502f0000000002f7782f95000000001976a9140c617fdb2ea42aed30a509595ee21ba3f6688db088ac0000000000000000266a24aa21a9ed7a7ab6ffca7db8b3b358fb601e5a466872fd060a39dfb2477177cac37ddb379f0120000000000000000000000000000000000000000000000000000000000000000000000000"
    }, 
    {
      "txid": "f07f5114a7a4f560c6ea57538c9cb3e9c99c9a67c26cee703195227affd622ce",
      "hash": "f07f5114a7a4f560c6ea57538c9cb3e9c99c9a67c26cee703195227affd622ce",
      "version": 1,
      "size": 529,
      "vsize": 529,
      "locktime": 0,
      "vin": [
        {
          "txid": "bda6db1474543e6ac500d1d33f5ec770885f93de46a206764de0b40cf3bc6128",
          "vout": 0,
          "scriptSig": {
            "asm": "0 30440220268ef775b36f1859947650c69eab2662e79818fe0c06fee90daaca5997fa71ba02200432d021014503979dfa5311acea3e09d18cfa2f205e172166f2e4aac1de04b7[ALL] 3044022017d9483a6eefbb4f738e071bd6c6c0978c81a4004d124a336771996602e3119d022059cddcc982a18c768643c894595f84aa92677c78bbfe566dcb6d309ee3bc0b8b[ALL] 522102cd2154a28997bbf7623cce0b14ed45b7c77cd824e7332f6cc23a469ec7164dd72103c7b9c23227843e95d692b571ae479e319016c5173c913a1b72a72b37b125fa2d2102d646ff0c784cfec841ddb07303272ef0fba77d2ffefa0bd7f47a70deb1feae2553ae",
            "hex": "004730440220268ef775b36f1859947650c69eab2662e79818fe0c06fee90daaca5997fa71ba02200432d021014503979dfa5311acea3e09d18cfa2f205e172166f2e4aac1de04b701473044022017d9483a6eefbb4f738e071bd6c6c0978c81a4004d124a336771996602e3119d022059cddcc982a18c768643c894595f84aa92677c78bbfe566dcb6d309ee3bc0b8b014c69522102cd2154a28997bbf7623cce0b14ed45b7c77cd824e7332f6cc23a469ec7164dd72103c7b9c23227843e95d692b571ae479e319016c5173c913a1b72a72b37b125fa2d2102d646ff0c784cfec841ddb07303272ef0fba77d2ffefa0bd7f47a70deb1feae2553ae"
          },
          "sequence": 4294967295
        }
      ],
      "vout": [
        {
          "value": 2.04806000,
          "n": 0,
          "scriptPubKey": {
            "asm": "OP_HASH160 e3a37e6eeb4914b1c425f77b99d9375562644256 OP_EQUAL",
            "hex": "a914e3a37e6eeb4914b1c425f77b99d937556264425687",
            "reqSigs": 1,
            "type": "scripthash",
            "addresses": [
              "MUeoUjGiEP7QiZd7sKQ79MCn1iyAFiRiC1"
            ]
          }
        }, 
        {
          "value": 1.67546000,
          "n": 1,
          "scriptPubKey": {
            "asm": "OP_HASH160 c75936dc283a513a1d83a947dea34435a0264d68 OP_EQUAL",
            "hex": "a914c75936dc283a513a1d83a947dea34435a0264d6887",
            "reqSigs": 1,
            "type": "scripthash",
            "addresses": [
              "MS5DaKezjGvotivPtQ8yDPXqDgNN54ifYu"
            ]
          }
        }, 
        {
          "value": 0.30901500,
          "n": 2,
          "scriptPubKey": {
            "asm": "OP_DUP OP_HASH160 dbadf26973c3f99aeddf958816b7c36cac0883ce OP_EQUALVERIFY OP_CHECKSIG",
            "hex": "76a914dbadf26973c3f99aeddf958816b7c36cac0883ce88ac",
            "reqSigs": 1,
            "type": "pubkeyhash",
            "addresses": [
              "LfFWdGVN2KVtKSdUsxFH97neSrVY5X1jSj"
            ]
          }
        }, 
        {
          "value": 1.96656000,
          "n": 3,
          "scriptPubKey": {
            "asm": "OP_HASH160 a93d40a823e1a41602a92d64011d946d1fdde18e OP_EQUAL",
            "hex": "a914a93d40a823e1a41602a92d64011d946d1fdde18e87",
            "reqSigs": 1,
            "type": "scripthash",
            "addresses": [
              "MPL1okbKhtEHDRyV7JGSEioC339SDT3DQ6"
            ]
          }
        }, 
        {
          "value": 4.10240500,
          "n": 4,
          "scriptPubKey": {
            "asm": "OP_HASH160 2735c82515fdbf7afefc53b7e2491105b27f3a14 OP_EQUAL",
            "hex": "a9142735c82515fdbf7afefc53b7e2491105b27f3a1487",
            "reqSigs": 1,
            "type": "scripthash",
            "addresses": [
              "MBUV1jjidRdMPfkdEiN4xa36AAQBd8iDbn"
            ]
          }
        }, 
        {
          "value": 2.00776000,
          "n": 5,
          "scriptPubKey": {
            "asm": "OP_HASH160 b7ccf1d956221488bc8501d4525a1f5e51a4890f OP_EQUAL",
            "hex": "a914b7ccf1d956221488bc8501d4525a1f5e51a4890f87",
            "reqSigs": 1,
            "type": "scripthash",
            "addresses": [
              "MQf1QLus8PJSQpMkG23NmRPYsQXfikEuwn"
            ]
          }
        }, 
        {
          "value": 2.16266000,
          "n": 6,
          "scriptPubKey": {
            "asm": "OP_HASH160 b303e218ffbda4076099dd3b03109b573c6e4cdb OP_EQUAL",
            "hex": "a914b303e218ffbda4076099dd3b03109b573c6e4cdb87",
            "reqSigs": 1,
            "type": "scripthash",
            "addresses": [
              "MQDhqaQshayaxtHhS6CnUCWX7oULPvGE1Q"
            ]
          }
        }
      ],
      "hex": "01000000012861bcf30cb4e04d7606a246de935f8870c75e3fd3d100c56a3e547414dba6bd00000000fc004730440220268ef775b36f1859947650c69eab2662e79818fe0c06fee90daaca5997fa71ba02200432d021014503979dfa5311acea3e09d18cfa2f205e172166f2e4aac1de04b701473044022017d9483a6eefbb4f738e071bd6c6c0978c81a4004d124a336771996602e3119d022059cddcc982a18c768643c894595f84aa92677c78bbfe566dcb6d309ee3bc0b8b014c69522102cd2154a28997bbf7623cce0b14ed45b7c77cd824e7332f6cc23a469ec7164dd72103c7b9c23227843e95d692b571ae479e319016c5173c913a1b72a72b37b125fa2d2102d646ff0c784cfec841ddb07303272ef0fba77d2ffefa0bd7f47a70deb1feae2553aeffffffff077017350c0000000017a914e3a37e6eeb4914b1c425f77b99d937556264425687908cfc090000000017a914c75936dc283a513a1d83a947dea34435a0264d6887fc84d701000000001976a914dbadf26973c3f99aeddf958816b7c36cac0883ce88ac80bbb80b0000000017a914a93d40a823e1a41602a92d64011d946d1fdde18e87f4c573180000000017a9142735c82515fdbf7afefc53b7e2491105b27f3a14874099f70b0000000017a914b7ccf1d956221488bc8501d4525a1f5e51a4890f8710f5e30c0000000017a914b303e218ffbda4076099dd3b03109b573c6e4cdb8700000000"
    }, 
    {
      "txid": "deef8e62b858b6ac41a1fe961ecc444df9d21dac706e5470f3a6505b51956946",
      "hash": "deef8e62b858b6ac41a1fe961ecc444df9d21dac706e5470f3a6505b51956946",
      "version": 1,
      "size": 225,
      "vsize": 225,
      "locktime": 1359110,
      "vin": [
        {
          "txid": "07ba0bd0dd37da1769f01f6861d7fc35804a48cffb5f410fc8f4dea17ee48ca3",
          "vout": 0,
          "scriptSig": {
            "asm": "3044022023a0e3120cc844da95ed758f3571a5fdeb092de3720961dba201ecf232362190022058d64e36e5f140916b92c3a76906457f114cc9e2d6d5c36ac8f34fd840f8eb06[ALL] 03ef926685993569e4bc1512a159f434ff84c1b58a0ec8b182afaca3688cc69bc4",
            "hex": "473044022023a0e3120cc844da95ed758f3571a5fdeb092de3720961dba201ecf232362190022058d64e36e5f140916b92c3a76906457f114cc9e2d6d5c36ac8f34fd840f8eb06012103ef926685993569e4bc1512a159f434ff84c1b58a0ec8b182afaca3688cc69bc4"
          },
          "sequence": 4294967294
        }
      ],
      "vout": [
        {
          "value": 15.14327365,
          "n": 0,
          "scriptPubKey": {
            "asm": "OP_DUP OP_HASH160 b3c355e4031ddcb5022c35d02b83fb941a6b9dde OP_EQUALVERIFY OP_CHECKSIG",
            "hex": "76a914b3c355e4031ddcb5022c35d02b83fb941a6b9dde88ac",
            "reqSigs": 1,
            "type": "pubkeyhash",
            "addresses": [
              "LbcTDhYacyv6a6zyxxeQAH29jPEsvG171o"
            ]
          }
        }, 
        {
          "value": 0.50000000,
          "n": 1,
          "scriptPubKey": {
            "asm": "OP_DUP OP_HASH160 4bcf694aadfc037548c362511b67b9e6d410b6cb OP_EQUALVERIFY OP_CHECKSIG",
            "hex": "76a9144bcf694aadfc037548c362511b67b9e6d410b6cb88ac",
            "reqSigs": 1,
            "type": "pubkeyhash",
            "addresses": [
              "LS8oQnm3F22hJQZ4gxW17xGqsEbEUGVNxw"
            ]
          }
        }
      ],
      "hex": "0100000001a38ce47ea1def4c80f415ffbcf484a8035fcd761681ff06917da37ddd00bba07000000006a473044022023a0e3120cc844da95ed758f3571a5fdeb092de3720961dba201ecf232362190022058d64e36e5f140916b92c3a76906457f114cc9e2d6d5c36ac8f34fd840f8eb06012103ef926685993569e4bc1512a159f434ff84c1b58a0ec8b182afaca3688cc69bc4feffffff0245cd425a000000001976a914b3c355e4031ddcb5022c35d02b83fb941a6b9dde88ac80f0fa02000000001976a9144bcf694aadfc037548c362511b67b9e6d410b6cb88ac06bd1400"
    }, 
    {
      "txid": "fbbf17456648b67a98b40239377f10c688dd8965370685bbcb5a251197423c1a",
      "hash": "fbbf17456648b67a98b40239377f10c688dd8965370685bbcb5a251197423c1a",
      "version": 1,
      "size": 226,
      "vsize": 226,
      "locktime": 0,
      "vin": [
        {
          "txid": "3e5817de7df4191ced8d6eafb8ebb240c54debb2f3e6da53de76aa99eea50235",
          "vout": 0,
          "scriptSig": {
            "asm": "30450221008964ede7f110b68c4c05c19dc49412627c4b3a91deff299fabe01ec8320119c702205e4f631e523b164c4ea6ab3df544e9c78d2215097212427b0842d7fb87c4cf44[ALL] 03f7bf7072adcb5c66b467d3d7662cf95418cf3255c5d2fe94c6fdf68e68007c3a",
            "hex": "4830450221008964ede7f110b68c4c05c19dc49412627c4b3a91deff299fabe01ec8320119c702205e4f631e523b164c4ea6ab3df544e9c78d2215097212427b0842d7fb87c4cf44012103f7bf7072adcb5c66b467d3d7662cf95418cf3255c5d2fe94c6fdf68e68007c3a"
          },
          "sequence": 4294967295
        }
      ],
      "vout": [
        {
          "value": 0.01012074,
          "n": 0,
          "scriptPubKey": {
            "asm": "OP_DUP OP_HASH160 7e57245b959b34a1c7a1745b1d181e7fa7871a45 OP_EQUALVERIFY OP_CHECKSIG",
            "hex": "76a9147e57245b959b34a1c7a1745b1d181e7fa7871a4588ac",
            "reqSigs": 1,
            "type": "pubkeyhash",
            "addresses": [
              "LWjyo7mZyw8TtQRs4e4sBg8Cqdsbf1tgh8"
            ]
          }
        }, 
        {
          "value": 0.01421619,
          "n": 1,
          "scriptPubKey": {
            "asm": "OP_DUP OP_HASH160 e83cca2a54e5d8ebb5c63047e3524a4e57df45cb OP_EQUALVERIFY OP_CHECKSIG",
            "hex": "76a914e83cca2a54e5d8ebb5c63047e3524a4e57df45cb88ac",
            "reqSigs": 1,
            "type": "pubkeyhash",
            "addresses": [
              "LgPurTfuq99m2M2djkj1PvXcHycfBVB7uz"
            ]
          }
        }
      ],
      "hex": "01000000013502a5ee99aa76de53dae6f3b2eb4dc540b2ebb8af6e8ded1c19f47dde17583e000000006b4830450221008964ede7f110b68c4c05c19dc49412627c4b3a91deff299fabe01ec8320119c702205e4f631e523b164c4ea6ab3df544e9c78d2215097212427b0842d7fb87c4cf44012103f7bf7072adcb5c66b467d3d7662cf95418cf3255c5d2fe94c6fdf68e68007c3affffffff026a710f00000000001976a9147e57245b959b34a1c7a1745b1d181e7fa7871a4588ac33b11500000000001976a914e83cca2a54e5d8ebb5c63047e3524a4e57df45cb88ac00000000"
    }, 
    {
      "txid": "18e1a80557aec1271bc2a6c5bd665cd016af50012898230e9eeafc53b4bdc234",
      "hash": "18e1a80557aec1271bc2a6c5bd665cd016af50012898230e9eeafc53b4bdc234",
      "version": 1,
      "size": 225,
      "vsize": 225,
      "locktime": 0,
      "vin": [
        {
          "txid": "491975d75b66ca9cfae1653b975c86a68e6bbdb73b93ea2bb3d67de2a35cd5fa",
          "vout": 1,
          "scriptSig": {
            "asm": "304402201ecd9321fba2a7f9693d40c2a9c1b30c95039ae529e553a2dcd2ef1b27bbe4810220682a163651c0cd81812cadebce06190e757ef175eafdd18919d688229d4e9d0a[ALL] 022a2b08d8f006e5016cdd8782aee53ca87c726c82743a1128725c4ff8ce3ad0b3",
            "hex": "47304402201ecd9321fba2a7f9693d40c2a9c1b30c95039ae529e553a2dcd2ef1b27bbe4810220682a163651c0cd81812cadebce06190e757ef175eafdd18919d688229d4e9d0a0121022a2b08d8f006e5016cdd8782aee53ca87c726c82743a1128725c4ff8ce3ad0b3"
          },
          "sequence": 4294967294
        }
      ],
      "vout": [
        {
          "value": 1.04181387,
          "n": 0,
          "scriptPubKey": {
            "asm": "OP_DUP OP_HASH160 349a987c837abca88eb067d5ecf12fac10977cdf OP_EQUALVERIFY OP_CHECKSIG",
            "hex": "76a914349a987c837abca88eb067d5ecf12fac10977cdf88ac",
            "reqSigs": 1,
            "type": "pubkeyhash",
            "addresses": [
              "LQ26bgXPLjcwYiQGxGvG9S2hjmhR1TfRYv"
            ]
          }
        }, 
        {
          "value": 1.15524169,
          "n": 1,
          "scriptPubKey": {
            "asm": "OP_DUP OP_HASH160 bd23cd333a37506d13e0263079787f058af9db75 OP_EQUALVERIFY OP_CHECKSIG",
            "hex": "76a914bd23cd333a37506d13e0263079787f058af9db7588ac",
            "reqSigs": 1,
            "type": "pubkeyhash",
            "addresses": [
              "LcU2s1Fd7RtGf218AywHfrayipdWESzPvF"
            ]
          }
        }
      ],
      "hex": "0100000001fad55ca3e27dd6b32bea933bb7bd6b8ea6865c973b65e1fa9cca665bd7751949010000006a47304402201ecd9321fba2a7f9693d40c2a9c1b30c95039ae529e553a2dcd2ef1b27bbe4810220682a163651c0cd81812cadebce06190e757ef175eafdd18919d688229d4e9d0a0121022a2b08d8f006e5016cdd8782aee53ca87c726c82743a1128725c4ff8ce3ad0b3feffffff028bae3506000000001976a914349a987c837abca88eb067d5ecf12fac10977cdf88ac49c2e206000000001976a914bd23cd333a37506d13e0263079787f058af9db7588ac00000000"
    }, 
    {
      "txid": "50f076e314d49e1e0d1fed649aed07ffeb2c7fbde279cae46757c227bbbf4fc8",
      "hash": "50f076e314d49e1e0d1fed649aed07ffeb2c7fbde279cae46757c227bbbf4fc8",
      "version": 1,
      "size": 224,
      "vsize": 224,
      "locktime": 0,
      "vin": [
        {
          "txid": "e975d373f710915d75622e7cf09d46b0bf0bbb87b7837184540d8732734e178a",
          "vout": 1,
          "scriptSig": {
            "asm": "3045022100e821477e50f9c67d2a71f1cf7d521b7c42131c1cabcdcc916f963b7ac6689e0c02200b37d7b990a7b191228d6d7564620052779958e181b213af66ce6c76dd4415d8[ALL] 02cf388dae4aa47980ca17b9f3476acba0f43106c4fa7b28b5dd0f50ae5f54c00c",
            "hex": "483045022100e821477e50f9c67d2a71f1cf7d521b7c42131c1cabcdcc916f963b7ac6689e0c02200b37d7b990a7b191228d6d7564620052779958e181b213af66ce6c76dd4415d8012102cf388dae4aa47980ca17b9f3476acba0f43106c4fa7b28b5dd0f50ae5f54c00c"
          },
          "sequence": 4294967295
        }
      ],
      "vout": [
        {
          "value": 0.11700000,
          "n": 0,
          "scriptPubKey": {
            "asm": "OP_HASH160 1e3a609005e76bf5af3e6d424945b0dc1909bdf2 OP_EQUAL",
            "hex": "a9141e3a609005e76bf5af3e6d424945b0dc1909bdf287",
            "reqSigs": 1,
            "type": "scripthash",
            "addresses": [
              "MAezSJaa7nLhcqCpggd8W5JHt8rhMNTgL9"
            ]
          }
        }, 
        {
          "value": 161.97173355,
          "n": 1,
          "scriptPubKey": {
            "asm": "OP_DUP OP_HASH160 9510aed616089b12288b7379a811af804b3dc9c6 OP_EQUALVERIFY OP_CHECKSIG",
            "hex": "76a9149510aed616089b12288b7379a811af804b3dc9c688ac",
            "reqSigs": 1,
            "type": "pubkeyhash",
            "addresses": [
              "LYp8vwvQ4REb9UzyzUVGAJCUDsHgy3TNiv"
            ]
          }
        }
      ],
      "hex": "01000000018a174e7332870d54847183b787bb0bbfb0469df07c2e62755d9110f773d375e9010000006b483045022100e821477e50f9c67d2a71f1cf7d521b7c42131c1cabcdcc916f963b7ac6689e0c02200b37d7b990a7b191228d6d7564620052779958e181b213af66ce6c76dd4415d8012102cf388dae4aa47980ca17b9f3476acba0f43106c4fa7b28b5dd0f50ae5f54c00cffffffff022087b2000000000017a9141e3a609005e76bf5af3e6d424945b0dc1909bdf2876b406dc5030000001976a9149510aed616089b12288b7379a811af804b3dc9c688ac00000000"
    }, 
    {
      "txid": "59361a5d60688a4119b0db68a362e5ec831595b74315abe973c6849fa95e705e",
      "hash": "59361a5d60688a4119b0db68a362e5ec831595b74315abe973c6849fa95e705e",
      "version": 1,
      "size": 373,
      "vsize": 373,
      "locktime": 0,
      "vin": [
        {
          "txid": "ceeef5ae1457aebd1717de5db31340312963af172f6fc7cdc15e6359c71fb660",
          "vout": 18,
          "scriptSig": {
            "asm": "304402205498dbbb92a6b946d38353369cdb29d332d9548617fb3f59249ddc9875071a9602204db71ae455cf7fa561264c2afeae10b9facfd74d6ea7b22077754cf56dce3f29[ALL] 0307737e367194ad107013c055fbf58b7deed1811b021e722af36f1d939037a2c7",
            "hex": "47304402205498dbbb92a6b946d38353369cdb29d332d9548617fb3f59249ddc9875071a9602204db71ae455cf7fa561264c2afeae10b9facfd74d6ea7b22077754cf56dce3f2901210307737e367194ad107013c055fbf58b7deed1811b021e722af36f1d939037a2c7"
          },
          "sequence": 4294967295
        }, 
        {
          "txid": "b8829e81993c35a40d63dddf091029a082913040900ff25c0a473d833fdb0421",
          "vout": 0,
          "scriptSig": {
            "asm": "3045022100c4a2d2861cea8f8ebc0a9239544101494fcd4de2267c98bd0609c65a3296eff0022063ad378a74200453a2b99c74c6c740998b4845d21657572752045bd11c26cf64[ALL] 03e8ac665a5739ea72e4bf829afaebdfb92c6bc4b34f1a3d6eaed7c9ccb9fbfb0e",
            "hex": "483045022100c4a2d2861cea8f8ebc0a9239544101494fcd4de2267c98bd0609c65a3296eff0022063ad378a74200453a2b99c74c6c740998b4845d21657572752045bd11c26cf64012103e8ac665a5739ea72e4bf829afaebdfb92c6bc4b34f1a3d6eaed7c9ccb9fbfb0e"
          },
          "sequence": 4294967295
        }
      ],
      "vout": [
        {
          "value": 0.01002675,
          "n": 0,
          "scriptPubKey": {
            "asm": "OP_DUP OP_HASH160 e5a725455a465bacc46ecc44b93b0b07d8a11aad OP_EQUALVERIFY OP_CHECKSIG",
            "hex": "76a914e5a725455a465bacc46ecc44b93b0b07d8a11aad88ac",
            "reqSigs": 1,
            "type": "pubkeyhash",
            "addresses": [
              "LgAFEczRXppYK1feQC6eJhPTtz1mZAVns3"
            ]
          }
        }, 
        {
          "value": 1.17205622,
          "n": 1,
          "scriptPubKey": {
            "asm": "OP_DUP OP_HASH160 c295b76d1e0add694149e3f7bebfc78d337ed37e OP_EQUALVERIFY OP_CHECKSIG",
            "hex": "76a914c295b76d1e0add694149e3f7bebfc78d337ed37e88ac",
            "reqSigs": 1,
            "type": "pubkeyhash",
            "addresses": [
              "LcxphuwJU95kjbxraxDBedNQXeb43pJjq5"
            ]
          }
        }
      ],
      "hex": "010000000260b61fc759635ec1cdc76f2f17af6329314013b35dde1717bdae5714aef5eece120000006a47304402205498dbbb92a6b946d38353369cdb29d332d9548617fb3f59249ddc9875071a9602204db71ae455cf7fa561264c2afeae10b9facfd74d6ea7b22077754cf56dce3f2901210307737e367194ad107013c055fbf58b7deed1811b021e722af36f1d939037a2c7ffffffff2104db3f833d470a5cf20f9040309182a0291009dfdd630da4353c99819e82b8000000006b483045022100c4a2d2861cea8f8ebc0a9239544101494fcd4de2267c98bd0609c65a3296eff0022063ad378a74200453a2b99c74c6c740998b4845d21657572752045bd11c26cf64012103e8ac665a5739ea72e4bf829afaebdfb92c6bc4b34f1a3d6eaed7c9ccb9fbfb0effffffff02b34c0f00000000001976a914e5a725455a465bacc46ecc44b93b0b07d8a11aad88ac766afc06000000001976a914c295b76d1e0add694149e3f7bebfc78d337ed37e88ac00000000"
    }, 
    {
      "txid": "cbb3b640ef168aa3b9e308a993fd47c200811cf5711e9e883be2c34b7f4dfb65",
      "hash": "cbb3b640ef168aa3b9e308a993fd47c200811cf5711e9e883be2c34b7f4dfb65",
      "version": 1,
      "size": 225,
      "vsize": 225,
      "locktime": 0,
      "vin": [
        {
          "txid": "fbda96d7829eea9866b2d8b66b93a5ed320098e0b42dfc2d9f1fb860cee894e7",
          "vout": 1,
          "scriptSig": {
            "asm": "304402204bb7ff7d783609f66b8dc696a0256a6ffcba12e011fbbd83524b0b4fb8c73e66022075ab28f7ac68f3d0fd91ebb8ce373e2b3b70545ddf0089e2ca271e25945cbe02[ALL] 0394b7252ebd78c2420737eec2fc4210d02260605e794545930d65a24e590d88b6",
            "hex": "47304402204bb7ff7d783609f66b8dc696a0256a6ffcba12e011fbbd83524b0b4fb8c73e66022075ab28f7ac68f3d0fd91ebb8ce373e2b3b70545ddf0089e2ca271e25945cbe0201210394b7252ebd78c2420737eec2fc4210d02260605e794545930d65a24e590d88b6"
          },
          "sequence": 4294967295
        }
      ],
      "vout": [
        {
          "value": 0.54900000,
          "n": 0,
          "scriptPubKey": {
            "asm": "OP_DUP OP_HASH160 f5a88ad198e51cc841fde01c7a3bca0f28e6985a OP_EQUALVERIFY OP_CHECKSIG",
            "hex": "76a914f5a88ad198e51cc841fde01c7a3bca0f28e6985a88ac",
            "reqSigs": 1,
            "type": "pubkeyhash",
            "addresses": [
              "LhcsijUCJ4WLh7MEBMyBnv1r1xKAfB5nCm"
            ]
          }
        }, 
        {
          "value": 8.70800965,
          "n": 1,
          "scriptPubKey": {
            "asm": "OP_DUP OP_HASH160 7ea90ba8a69ad40fb321b85f98ca74d1c3ecf324 OP_EQUALVERIFY OP_CHECKSIG",
            "hex": "76a9147ea90ba8a69ad40fb321b85f98ca74d1c3ecf32488ac",
            "reqSigs": 1,
            "type": "pubkeyhash",
            "addresses": [
              "LWmfusdos6KqEveSWTkRnQjEMupqJ1Yg2n"
            ]
          }
        }
      ],
      "hex": "0100000001e794e8ce60b81f9f2dfc2db4e0980032eda5936bb6d8b26698ea9e82d796dafb010000006a47304402204bb7ff7d783609f66b8dc696a0256a6ffcba12e011fbbd83524b0b4fb8c73e66022075ab28f7ac68f3d0fd91ebb8ce373e2b3b70545ddf0089e2ca271e25945cbe0201210394b7252ebd78c2420737eec2fc4210d02260605e794545930d65a24e590d88b6ffffffff0220b54503000000001976a914f5a88ad198e51cc841fde01c7a3bca0f28e6985a88ac455ee733000000001976a9147ea90ba8a69ad40fb321b85f98ca74d1c3ecf32488ac00000000"
    }, 
    {
      "txid": "cb624ae9a97db03b94b2811072490568e46fcc14da058628c6e751f4a2d4a425",
      "hash": "cb624ae9a97db03b94b2811072490568e46fcc14da058628c6e751f4a2d4a425",
      "version": 1,
      "size": 520,
      "vsize": 520,
      "locktime": 0,
      "vin": [
        {
          "txid": "7e614bfe8f40f883b84b2671a49d45bb4f2f94966704baa8f7357b56e1e8439e",
          "vout": 41,
          "scriptSig": {
            "asm": "304402202cf7566dc729b6895f1fdcda836e2a0fc5aecd1b86091d9496c1914ae46251830220436e3bca538766b022d1b21f81bff1485916a93940d56e7dd0b0e4add23d934c[ALL] 02e1fe242d03c214e0907bd352a5f714b37dbc09a5c471472fd2f32720f60def09",
            "hex": "47304402202cf7566dc729b6895f1fdcda836e2a0fc5aecd1b86091d9496c1914ae46251830220436e3bca538766b022d1b21f81bff1485916a93940d56e7dd0b0e4add23d934c012102e1fe242d03c214e0907bd352a5f714b37dbc09a5c471472fd2f32720f60def09"
          },
          "sequence": 4294967295
        }, 
        {
          "txid": "0ad6dfd9bfa40cb79cde53bb7e612f2ef6a5cfc7afb5beeade3be93c146ef3e8",
          "vout": 0,
          "scriptSig": {
            "asm": "304402205a49ae0734a44209c41b658f3106946444777001e043d783ae507d4c75892287022042d620940a72f9cb31a33bcb35f75bde751c435e07094547143d917d5532dbc8[ALL] 022833a1b6a91f0465eb105bd536be350f9879b03138ffb4827d72c95e1c1adcbc",
            "hex": "47304402205a49ae0734a44209c41b658f3106946444777001e043d783ae507d4c75892287022042d620940a72f9cb31a33bcb35f75bde751c435e07094547143d917d5532dbc80121022833a1b6a91f0465eb105bd536be350f9879b03138ffb4827d72c95e1c1adcbc"
          },
          "sequence": 4294967295
        }, 
        {
          "txid": "1bc6d47bdcd8db3916d3c588f1e08df5b05dca0d4ba08b90b03ca962a1e4aef4",
          "vout": 4,
          "scriptSig": {
            "asm": "3045022100c29429b9574fa33398b438599385deda7890a6e90fb7ddd6f43f29788c7ab68e022049829463d6c44c8e2a3b26cf63fb7b2d8344c1d9e39cec7640293dd5688081ed[ALL] 03e71d06f9c3f76e1713aaee870eb88139193badb690220d05b1ae61f8919b3a89",
            "hex": "483045022100c29429b9574fa33398b438599385deda7890a6e90fb7ddd6f43f29788c7ab68e022049829463d6c44c8e2a3b26cf63fb7b2d8344c1d9e39cec7640293dd5688081ed012103e71d06f9c3f76e1713aaee870eb88139193badb690220d05b1ae61f8919b3a89"
          },
          "sequence": 4294967295
        }
      ],
      "vout": [
        {
          "value": 2.73650591,
          "n": 0,
          "scriptPubKey": {
            "asm": "OP_DUP OP_HASH160 f8666b15a2687b9fbf2baeb6db24f9558b1bbf65 OP_EQUALVERIFY OP_CHECKSIG",
            "hex": "76a914f8666b15a2687b9fbf2baeb6db24f9558b1bbf6588ac",
            "reqSigs": 1,
            "type": "pubkeyhash",
            "addresses": [
              "LhsNXwBzAodogbojRRJ7YHduNBTFWwRyoz"
            ]
          }
        }, 
        {
          "value": 0.01105542,
          "n": 1,
          "scriptPubKey": {
            "asm": "OP_DUP OP_HASH160 60264a88da6f2c8bf574fa18421b3c2177c13a8a OP_EQUALVERIFY OP_CHECKSIG",
            "hex": "76a91460264a88da6f2c8bf574fa18421b3c2177c13a8a88ac",
            "reqSigs": 1,
            "type": "pubkeyhash",
            "addresses": [
              "LTzM19LSdRXBw1ihTwe54ju9NfvgNHdcau"
            ]
          }
        }
      ],
      "hex": "01000000039e43e8e1567b35f7a8ba046796942f4fbb459da471264bb883f8408ffe4b617e290000006a47304402202cf7566dc729b6895f1fdcda836e2a0fc5aecd1b86091d9496c1914ae46251830220436e3bca538766b022d1b21f81bff1485916a93940d56e7dd0b0e4add23d934c012102e1fe242d03c214e0907bd352a5f714b37dbc09a5c471472fd2f32720f60def09ffffffffe8f36e143ce93bdeeabeb5afc7cfa5f62e2f617ebb53de9cb70ca4bfd9dfd60a000000006a47304402205a49ae0734a44209c41b658f3106946444777001e043d783ae507d4c75892287022042d620940a72f9cb31a33bcb35f75bde751c435e07094547143d917d5532dbc80121022833a1b6a91f0465eb105bd536be350f9879b03138ffb4827d72c95e1c1adcbcfffffffff4aee4a162a93cb0908ba04b0dca5db0f58de0f188c5d31639dbd8dc7bd4c61b040000006b483045022100c29429b9574fa33398b438599385deda7890a6e90fb7ddd6f43f29788c7ab68e022049829463d6c44c8e2a3b26cf63fb7b2d8344c1d9e39cec7640293dd5688081ed012103e71d06f9c3f76e1713aaee870eb88139193badb690220d05b1ae61f8919b3a89ffffffff029f934f10000000001976a914f8666b15a2687b9fbf2baeb6db24f9558b1bbf6588ac86de1000000000001976a91460264a88da6f2c8bf574fa18421b3c2177c13a8a88ac00000000"
    }, 
    {
      "txid": "e73951c4dab473dfbba6863276d04a8edce323e47b7abe6165a9f6a1a459adf0",
      "hash": "e73951c4dab473dfbba6863276d04a8edce323e47b7abe6165a9f6a1a459adf0",
      "version": 1,
      "size": 226,
      "vsize": 226,
      "locktime": 0,
      "vin": [
        {
          "txid": "5e8252550859e56d64c6349e07f3abc0305c592ab17e853a904f7b6c9cb0d7d2",
          "vout": 0,
          "scriptSig": {
            "asm": "3045022100a2595879208c62503516c1f1d20d241886f94be331fda3592de3426aee90ceeb02203d69697e53075f9df1b940e05c596a55518a8845ca1bbe510321028898f2e72b[ALL] 02baedb62fd65ed23bb6aea9adb3737a86ebc6c4b2a81332388569691affd8b637",
            "hex": "483045022100a2595879208c62503516c1f1d20d241886f94be331fda3592de3426aee90ceeb02203d69697e53075f9df1b940e05c596a55518a8845ca1bbe510321028898f2e72b012102baedb62fd65ed23bb6aea9adb3737a86ebc6c4b2a81332388569691affd8b637"
          },
          "sequence": 4294967295
        }
      ],
      "vout": [
        {
          "value": 6.93300000,
          "n": 0,
          "scriptPubKey": {
            "asm": "OP_DUP OP_HASH160 c50b4db9e92c02c7d03cd44975f376b11872187d OP_EQUALVERIFY OP_CHECKSIG",
            "hex": "76a914c50b4db9e92c02c7d03cd44975f376b11872187d88ac",
            "reqSigs": 1,
            "type": "pubkeyhash",
            "addresses": [
              "LdBpvPjUrnuZwkjyA4AvHeYA4MtMLfCk7k"
            ]
          }
        }, 
        {
          "value": 6.01566567,
          "n": 1,
          "scriptPubKey": {
            "asm": "OP_DUP OP_HASH160 d8b695983f6ffc3bc898a78a3d3f5707ef26e393 OP_EQUALVERIFY OP_CHECKSIG",
            "hex": "76a914d8b695983f6ffc3bc898a78a3d3f5707ef26e39388ac",
            "reqSigs": 1,
            "type": "pubkeyhash",
            "addresses": [
              "LeypwqCBxYz62MMdf8Yipx9bNj5zBH8jrC"
            ]
          }
        }
      ],
      "hex": "0100000001d2d7b09c6c7b4f903a857eb12a595c30c0abf3079e34c6646de559085552825e000000006b483045022100a2595879208c62503516c1f1d20d241886f94be331fda3592de3426aee90ceeb02203d69697e53075f9df1b940e05c596a55518a8845ca1bbe510321028898f2e72b012102baedb62fd65ed23bb6aea9adb3737a86ebc6c4b2a81332388569691affd8b637ffffffff0220eb5229000000001976a914c50b4db9e92c02c7d03cd44975f376b11872187d88ac672ddb23000000001976a914d8b695983f6ffc3bc898a78a3d3f5707ef26e39388ac00000000"
    }, 
    {
      "txid": "8ebf489fcafdf67f4f121bb0b6264b2ba6d74d13bbf227dc41190aed80c7306f",
      "hash": "8ebf489fcafdf67f4f121bb0b6264b2ba6d74d13bbf227dc41190aed80c7306f",
      "version": 1,
      "size": 485,
      "vsize": 485,
      "locktime": 1359110,
      "vin": [
        {
          "txid": "68aa06d73225bdc7e4c4c32cb00f10ec996164e01d12a91e18b0af6113587948",
          "vout": 0,
          "scriptSig": {
            "asm": "30440220108b20cb1b56414bd79731f5c3ccddf2542846c5ab1dd393ead68b6e8392d3cd02207278fb3e35e931b757e190c298b64a19e4d1e09e82fbbc83113a9f0de162c81c[ALL] 032ff8891e0c2c45537560a89c76f2675967dd23bbcf504b448740a9f4f490d340",
            "hex": "4730440220108b20cb1b56414bd79731f5c3ccddf2542846c5ab1dd393ead68b6e8392d3cd02207278fb3e35e931b757e190c298b64a19e4d1e09e82fbbc83113a9f0de162c81c0121032ff8891e0c2c45537560a89c76f2675967dd23bbcf504b448740a9f4f490d340"
          },
          "sequence": 4294967294
        }, 
        {
          "txid": "552485eff47b8c0155a2c54a7d8c70ca550a0c3242ed19135084c692dd82668f",
          "vout": 1,
          "scriptSig": {
            "asm": "3044022060312115ef10ded7c54f0b417b2209419d1ed7a4760ef35d12d77e99a43962d10220118a5700dfb58a0a68fbaea67fb06bbfc103f3afa13774198850961eed4ebe0f[ALL] 02ee8244d8acb1caab6c6efa2d0eaf064764e0626bfce9cff2759f244c58ff4144",
            "hex": "473044022060312115ef10ded7c54f0b417b2209419d1ed7a4760ef35d12d77e99a43962d10220118a5700dfb58a0a68fbaea67fb06bbfc103f3afa13774198850961eed4ebe0f012102ee8244d8acb1caab6c6efa2d0eaf064764e0626bfce9cff2759f244c58ff4144"
          },
          "sequence": 4294967294
        }, 
        {
          "txid": "a1bbd253ff08813f3a943fa01caf389934d3cff786fcafddd2e418f92726a21f",
          "vout": 1,
          "scriptSig": {
            "asm": "3044022072164e5e3971a028f27c2c33d1eca33e08504671c44e17d314c81b94052f8a0b022032cd7ed160597ad747a6a5ce577926728e18b076a4124208ce7414b7fa63b07b[ALL] 02c8abd6830a95da76f88a5b86f7db92a4c9cb2758797c3746b090273936dbf8aa",
            "hex": "473044022072164e5e3971a028f27c2c33d1eca33e08504671c44e17d314c81b94052f8a0b022032cd7ed160597ad747a6a5ce577926728e18b076a4124208ce7414b7fa63b07b012102c8abd6830a95da76f88a5b86f7db92a4c9cb2758797c3746b090273936dbf8aa"
          },
          "sequence": 4294967294
        }
      ],
      "vout": [
        {
          "value": 0.06084868,
          "n": 0,
          "scriptPubKey": {
            "asm": "OP_DUP OP_HASH160 aaaef0e977d99dedd2b38669d69113f912920139 OP_EQUALVERIFY OP_CHECKSIG",
            "hex": "76a914aaaef0e977d99dedd2b38669d69113f91292013988ac",
            "reqSigs": 1,
            "type": "pubkeyhash",
            "addresses": [
              "LanShwc91HAtZpdvckVWmzjufDN92yjtvu"
            ]
          }
        }
      ],
      "hex": "01000000034879581361afb0181ea9121de0646199ec100fb02cc3c4e4c7bd2532d706aa68000000006a4730440220108b20cb1b56414bd79731f5c3ccddf2542846c5ab1dd393ead68b6e8392d3cd02207278fb3e35e931b757e190c298b64a19e4d1e09e82fbbc83113a9f0de162c81c0121032ff8891e0c2c45537560a89c76f2675967dd23bbcf504b448740a9f4f490d340feffffff8f6682dd92c684501319ed42320c0a55ca708c7d4ac5a255018c7bf4ef852455010000006a473044022060312115ef10ded7c54f0b417b2209419d1ed7a4760ef35d12d77e99a43962d10220118a5700dfb58a0a68fbaea67fb06bbfc103f3afa13774198850961eed4ebe0f012102ee8244d8acb1caab6c6efa2d0eaf064764e0626bfce9cff2759f244c58ff4144feffffff1fa22627f918e4d2ddaffc86f7cfd3349938af1ca03f943a3f8108ff53d2bba1010000006a473044022072164e5e3971a028f27c2c33d1eca33e08504671c44e17d314c81b94052f8a0b022032cd7ed160597ad747a6a5ce577926728e18b076a4124208ce7414b7fa63b07b012102c8abd6830a95da76f88a5b86f7db92a4c9cb2758797c3746b090273936dbf8aafeffffff0104d95c00000000001976a914aaaef0e977d99dedd2b38669d69113f91292013988ac06bd1400"
    }, 
    {
      "txid": "5b88d580f9997bbd76450832f2983743c45b191a755b95cf4e677d66399eddb4",
      "hash": "5b88d580f9997bbd76450832f2983743c45b191a755b95cf4e677d66399eddb4",
      "version": 1,
      "size": 226,
      "vsize": 226,
      "locktime": 0,
      "vin": [
        {
          "txid": "6cdf1292e7b53a80350045558ddbe1012e9650541e8a86d481203e6a2ccb83ad",
          "vout": 1,
          "scriptSig": {
            "asm": "3045022100d8822b98456e6dd38f7302dd06d6473ce2e2afd5b8c8883fb386d02307b195fd02206e88aceb17bd84f6d589fdee9c02095f67322f9ca9978da7571d86ba58710d70[ALL] 02a381ab7c45319314bece18da214e74894d1e79c80033f62901c9a95947cf1be4",
            "hex": "483045022100d8822b98456e6dd38f7302dd06d6473ce2e2afd5b8c8883fb386d02307b195fd02206e88aceb17bd84f6d589fdee9c02095f67322f9ca9978da7571d86ba58710d70012102a381ab7c45319314bece18da214e74894d1e79c80033f62901c9a95947cf1be4"
          },
          "sequence": 4294967295
        }
      ],
      "vout": [
        {
          "value": 7.00000000,
          "n": 0,
          "scriptPubKey": {
            "asm": "OP_DUP OP_HASH160 fb60e6394bcd364faec5b8b17a8c584b24dabac2 OP_EQUALVERIFY OP_CHECKSIG",
            "hex": "76a914fb60e6394bcd364faec5b8b17a8c584b24dabac288ac",
            "reqSigs": 1,
            "type": "pubkeyhash",
            "addresses": [
              "Li97x3YVm3J5KoHUkBz15igX3dbwNKLC6x"
            ]
          }
        }, 
        {
          "value": 9.83038218,
          "n": 1,
          "scriptPubKey": {
            "asm": "OP_DUP OP_HASH160 79817fdfbace8c039325531af9cb43b3c64d4268 OP_EQUALVERIFY OP_CHECKSIG",
            "hex": "76a91479817fdfbace8c039325531af9cb43b3c64d426888ac",
            "reqSigs": 1,
            "type": "pubkeyhash",
            "addresses": [
              "LWJRAD23WRtuUbwPZQSgUqsYk6h5wUPN1V"
            ]
          }
        }
      ],
      "hex": "0100000001ad83cb2c6a3e2081d4868a1e5450962e01e1db8d55450035803ab5e79212df6c010000006b483045022100d8822b98456e6dd38f7302dd06d6473ce2e2afd5b8c8883fb386d02307b195fd02206e88aceb17bd84f6d589fdee9c02095f67322f9ca9978da7571d86ba58710d70012102a381ab7c45319314bece18da214e74894d1e79c80033f62901c9a95947cf1be4ffffffff020027b929000000001976a914fb60e6394bcd364faec5b8b17a8c584b24dabac288ac0af9973a000000001976a91479817fdfbace8c039325531af9cb43b3c64d426888ac00000000"
    }, 
    {
      "txid": "4ad0f55252340cf94c27809e2d9b69055185f623fd8c2b667fea592a41bad737",
      "hash": "4ad0f55252340cf94c27809e2d9b69055185f623fd8c2b667fea592a41bad737",
      "version": 1,
      "size": 225,
      "vsize": 225,
      "locktime": 0,
      "vin": [
        {
          "txid": "dd698d09144d7f54368b4b0f5e469a747f5b93e9a0f2a966626a245bb7d38fb1",
          "vout": 2,
          "scriptSig": {
            "asm": "3044022002c1201dc886375cd7b292241bedb952832a01324e04a00b3f1eb2204cb6494602203a95bc71bdfb0671c28e4819784de5114aadfdf28c141e4ba074780481cbe282[ALL] 036a2b502060cd5e39c76cecb50fc2049098057f2e76468bc78d6caa4c36e833a0",
            "hex": "473044022002c1201dc886375cd7b292241bedb952832a01324e04a00b3f1eb2204cb6494602203a95bc71bdfb0671c28e4819784de5114aadfdf28c141e4ba074780481cbe2820121036a2b502060cd5e39c76cecb50fc2049098057f2e76468bc78d6caa4c36e833a0"
          },
          "sequence": 4294967295
        }
      ],
      "vout": [
        {
          "value": 3.96404900,
          "n": 0,
          "scriptPubKey": {
            "asm": "OP_DUP OP_HASH160 04327040c880c8081ad930485d58eb04461065a2 OP_EQUALVERIFY OP_CHECKSIG",
            "hex": "76a91404327040c880c8081ad930485d58eb04461065a288ac",
            "reqSigs": 1,
            "type": "pubkeyhash",
            "addresses": [
              "LKc9PWR1pc3NwTJJzD38QxMpqfrTk3D9ex"
            ]
          }
        }, 
        {
          "value": 4.00000000,
          "n": 1,
          "scriptPubKey": {
            "asm": "OP_DUP OP_HASH160 31d4f4cb7ad301f1d0b9b51cd8f3556a05bcbe03 OP_EQUALVERIFY OP_CHECKSIG",
            "hex": "76a91431d4f4cb7ad301f1d0b9b51cd8f3556a05bcbe0388ac",
            "reqSigs": 1,
            "type": "pubkeyhash",
            "addresses": [
              "LPmSV54wWrEpvUud8tVWRy1dsARM3Bg7tN"
            ]
          }
        }
      ],
      "hex": "0100000001b18fd3b75b246a6266a9f2a0e9935b7f749a465e0f4b8b36547f4d14098d69dd020000006a473044022002c1201dc886375cd7b292241bedb952832a01324e04a00b3f1eb2204cb6494602203a95bc71bdfb0671c28e4819784de5114aadfdf28c141e4ba074780481cbe2820121036a2b502060cd5e39c76cecb50fc2049098057f2e76468bc78d6caa4c36e833a0ffffffff02a4a8a017000000001976a91404327040c880c8081ad930485d58eb04461065a288ac0084d717000000001976a91431d4f4cb7ad301f1d0b9b51cd8f3556a05bcbe0388ac00000000"
    }, 
    {
      "txid": "07aa60cf15f5e6696aee92569fc91aec663c070346adbad15bb1a45f0af9600e",
      "hash": "07aa60cf15f5e6696aee92569fc91aec663c070346adbad15bb1a45f0af9600e",
      "version": 2,
      "size": 373,
      "vsize": 373,
      "locktime": 1359019,
      "vin": [
        {
          "txid": "ecf3c72c227327fc2464f389f0fce7ae2b659ba4642ab5304a44391153ac8e5e",
          "vout": 864,
          "scriptSig": {
            "asm": "304402200959d7e7336f78b4b6f2ebb3886173fb236e55386759d729df8e15d23f4229d1022039bc2272b2eb8ca68313b15b0ef9c2d2b5821746908a0fdaa238297f8ba36fdc[ALL] 02936cfe7b8ef4d68e1f7f03819062a84f336d588cfc73d5bbc1d90afaae0b5a5a",
            "hex": "47304402200959d7e7336f78b4b6f2ebb3886173fb236e55386759d729df8e15d23f4229d1022039bc2272b2eb8ca68313b15b0ef9c2d2b5821746908a0fdaa238297f8ba36fdc012102936cfe7b8ef4d68e1f7f03819062a84f336d588cfc73d5bbc1d90afaae0b5a5a"
          },
          "sequence": 4294967294
        }, 
        {
          "txid": "053b0f235475ece4ef9f062672fa3971fbdd30ef58206bdad27487619ff251e1",
          "vout": 821,
          "scriptSig": {
            "asm": "3045022100ed6318a19d7e658144fe8a2555e9fb0b7a92a215989881d3c0ebbae048b79aba0220133238b7ec19aa0ad28542bac3d8954c064614d6cb8ac518708008c50a320a76[ALL] 03c633a1ca1046ee0b90d999e0c56732c66f9d141c397d58be12a596d0823a5fba",
            "hex": "483045022100ed6318a19d7e658144fe8a2555e9fb0b7a92a215989881d3c0ebbae048b79aba0220133238b7ec19aa0ad28542bac3d8954c064614d6cb8ac518708008c50a320a76012103c633a1ca1046ee0b90d999e0c56732c66f9d141c397d58be12a596d0823a5fba"
          },
          "sequence": 4294967294
        }
      ],
      "vout": [
        {
          "value": 0.49903289,
          "n": 0,
          "scriptPubKey": {
            "asm": "OP_DUP OP_HASH160 6df72359f27aa3d12fbef9d8e746c263e62f4b50 OP_EQUALVERIFY OP_CHECKSIG",
            "hex": "76a9146df72359f27aa3d12fbef9d8e746c263e62f4b5088ac",
            "reqSigs": 1,
            "type": "pubkeyhash",
            "addresses": [
              "LVFPyaV8SZrFLiSCyiSdXNYncXkd1Lmh55"
            ]
          }
        }, 
        {
          "value": 0.00962655,
          "n": 1,
          "scriptPubKey": {
            "asm": "OP_DUP OP_HASH160 6efb182f2256f4b13ea865b69a2a9a8bcd3c0147 OP_EQUALVERIFY OP_CHECKSIG",
            "hex": "76a9146efb182f2256f4b13ea865b69a2a9a8bcd3c014788ac",
            "reqSigs": 1,
            "type": "pubkeyhash",
            "addresses": [
              "LVLmPfTjMj3Q8TUzKQw1rwxFZuLm6sDRsm"
            ]
          }
        }
      ],
      "hex": "02000000025e8eac531139444a30b52a64a49b652baee7fcf089f36424fc2773222cc7f3ec600300006a47304402200959d7e7336f78b4b6f2ebb3886173fb236e55386759d729df8e15d23f4229d1022039bc2272b2eb8ca68313b15b0ef9c2d2b5821746908a0fdaa238297f8ba36fdc012102936cfe7b8ef4d68e1f7f03819062a84f336d588cfc73d5bbc1d90afaae0b5a5afeffffffe151f29f618774d2da6b2058ef30ddfb7139fa7226069fefe4ec7554230f3b05350300006b483045022100ed6318a19d7e658144fe8a2555e9fb0b7a92a215989881d3c0ebbae048b79aba0220133238b7ec19aa0ad28542bac3d8954c064614d6cb8ac518708008c50a320a76012103c633a1ca1046ee0b90d999e0c56732c66f9d141c397d58be12a596d0823a5fbafeffffff02b976f902000000001976a9146df72359f27aa3d12fbef9d8e746c263e62f4b5088ac5fb00e00000000001976a9146efb182f2256f4b13ea865b69a2a9a8bcd3c014788acabbc1400"
    }, 
    {
      "txid": "bf18f23ad1257086ed91ccaf49eb343626046f4e1447afaa521e6f7da3998b22",
      "hash": "bf18f23ad1257086ed91ccaf49eb343626046f4e1447afaa521e6f7da3998b22",
      "version": 1,
      "size": 225,
      "vsize": 225,
      "locktime": 1359109,
      "vin": [
        {
          "txid": "5d1c4a370c132dcd7f28ff080048572a1917951999974e4e7eea9af354a68f84",
          "vout": 1,
          "scriptSig": {
            "asm": "3044022029ec044d3b6607f2200189e2b8ebb472ce4e706d4e77e5332dd7d4269d693f2a02203a2865c0894bbaf69c16dd0e7dc60bb54c9221776fd0de74d2ca7de32d81a65f[ALL] 020badce60def928c22ac271e3369a6bb4f6324334e3c07201bd31289ba64d0816",
            "hex": "473044022029ec044d3b6607f2200189e2b8ebb472ce4e706d4e77e5332dd7d4269d693f2a02203a2865c0894bbaf69c16dd0e7dc60bb54c9221776fd0de74d2ca7de32d81a65f0121020badce60def928c22ac271e3369a6bb4f6324334e3c07201bd31289ba64d0816"
          },
          "sequence": 4294967294
        }
      ],
      "vout": [
        {
          "value": 0.01001306,
          "n": 0,
          "scriptPubKey": {
            "asm": "OP_DUP OP_HASH160 0ad621c45a9edb0ac66bbdd8f7bbae09b2a210b9 OP_EQUALVERIFY OP_CHECKSIG",
            "hex": "76a9140ad621c45a9edb0ac66bbdd8f7bbae09b2a210b988ac",
            "reqSigs": 1,
            "type": "pubkeyhash",
            "addresses": [
              "LLDFYH1AAYgWFxhZoHfFDJ8QeGdgCpjQKd"
            ]
          }
        }, 
        {
          "value": 0.34669600,
          "n": 1,
          "scriptPubKey": {
            "asm": "OP_DUP OP_HASH160 2e071a0413d2805d6819c729b610edb05bd79baa OP_EQUALVERIFY OP_CHECKSIG",
            "hex": "76a9142e071a0413d2805d6819c729b610edb05bd79baa88ac",
            "reqSigs": 1,
            "type": "pubkeyhash",
            "addresses": [
              "LPRKrU2Ppy98DGfttQbYWZgVaJRevtgzaP"
            ]
          }
        }
      ],
      "hex": "0100000001848fa654f39aea7e4e4e9799199517192a57480008ff287fcd2d130c374a1c5d010000006a473044022029ec044d3b6607f2200189e2b8ebb472ce4e706d4e77e5332dd7d4269d693f2a02203a2865c0894bbaf69c16dd0e7dc60bb54c9221776fd0de74d2ca7de32d81a65f0121020badce60def928c22ac271e3369a6bb4f6324334e3c07201bd31289ba64d0816feffffff025a470f00000000001976a9140ad621c45a9edb0ac66bbdd8f7bbae09b2a210b988ac20041102000000001976a9142e071a0413d2805d6819c729b610edb05bd79baa88ac05bd1400"
    }, 
    {
      "txid": "5e8b602b05c26f8cd45a1246018b5cbfeeb01f4534c0f4a1f6fc97aa80bde58f",
      "hash": "5e8b602b05c26f8cd45a1246018b5cbfeeb01f4534c0f4a1f6fc97aa80bde58f",
      "version": 1,
      "size": 224,
      "vsize": 224,
      "locktime": 0,
      "vin": [
        {
          "txid": "1c1e0f64f0b916d1819f2ea0b6ba33a5389c4f29c718067f232e8e8d5baf646a",
          "vout": 1,
          "scriptSig": {
            "asm": "304502210091512f47f2738abbbba7037d962c3206f6f338f2efc5d357a88c30bfe745ce51022018925083e18872b2689dee4c6f46f9788cd0a82131b1de92e43256529e396456[ALL] 03f014bfb27fe015bad750a1e8cc6f0832eb48f403cc4d63d926607f17e6cb86a7",
            "hex": "48304502210091512f47f2738abbbba7037d962c3206f6f338f2efc5d357a88c30bfe745ce51022018925083e18872b2689dee4c6f46f9788cd0a82131b1de92e43256529e396456012103f014bfb27fe015bad750a1e8cc6f0832eb48f403cc4d63d926607f17e6cb86a7"
          },
          "sequence": 4294967295
        }
      ],
      "vout": [
        {
          "value": 0.22374821,
          "n": 0,
          "scriptPubKey": {
            "asm": "OP_DUP OP_HASH160 afc9834c5bd3affdfd6cf20084058ac351a5d35b OP_EQUALVERIFY OP_CHECKSIG",
            "hex": "76a914afc9834c5bd3affdfd6cf20084058ac351a5d35b88ac",
            "reqSigs": 1,
            "type": "pubkeyhash",
            "addresses": [
              "LbFRv9JZsemPsaWc3bb4N3hBoznMtsjnUP"
            ]
          }
        }, 
        {
          "value": 0.99533385,
          "n": 1,
          "scriptPubKey": {
            "asm": "OP_HASH160 118f985cfb9b042de96d76efd7a92958f86171c1 OP_EQUAL",
            "hex": "a914118f985cfb9b042de96d76efd7a92958f86171c187",
            "reqSigs": 1,
            "type": "scripthash",
            "addresses": [
              "M9W1jrkQ8smd3kbm1H4iSGFd9dD82PKSb1"
            ]
          }
        }
      ],
      "hex": "01000000016a64af5b8d8e2e237f0618c7294f9c38a533bab6a02e9f81d116b9f0640f1e1c010000006b48304502210091512f47f2738abbbba7037d962c3206f6f338f2efc5d357a88c30bfe745ce51022018925083e18872b2689dee4c6f46f9788cd0a82131b1de92e43256529e396456012103f014bfb27fe015bad750a1e8cc6f0832eb48f403cc4d63d926607f17e6cb86a7ffffffff02a5695501000000001976a914afc9834c5bd3affdfd6cf20084058ac351a5d35b88ac49c2ee050000000017a914118f985cfb9b042de96d76efd7a92958f86171c18700000000"
    }, 
    {
      "txid": "d4b8d5f4097c97fd9deaf8e0186be0e5ad4e2a5d26ff076e498e79cfcb6c5e91",
      "hash": "d4b8d5f4097c97fd9deaf8e0186be0e5ad4e2a5d26ff076e498e79cfcb6c5e91",
      "version": 1,
      "size": 224,
      "vsize": 224,
      "locktime": 0,
      "vin": [
        {
          "txid": "d86b1419fa6cc6d44b4678c48fb3d06a01c044be945312fb5cdf18c9495ebd15",
          "vout": 521,
          "scriptSig": {
            "asm": "3045022100c8ac11c81c253fe59115c071fa9a6375e86a5324e7861314c206a5fa04148f68022070c5e5f21df3fdfb25a0bd41d6faae3e64bc0c73068b7972060143969f3e55df[ALL] 02aa17ca6a180d5c48da15ed49a7e153d6d3f632e578c3c614cae212ec705a14b7",
            "hex": "483045022100c8ac11c81c253fe59115c071fa9a6375e86a5324e7861314c206a5fa04148f68022070c5e5f21df3fdfb25a0bd41d6faae3e64bc0c73068b7972060143969f3e55df012102aa17ca6a180d5c48da15ed49a7e153d6d3f632e578c3c614cae212ec705a14b7"
          },
          "sequence": 4294967295
        }
      ],
      "vout": [
        {
          "value": 0.00280135,
          "n": 0,
          "scriptPubKey": {
            "asm": "OP_DUP OP_HASH160 e0de2087be89e06061914fa2f58c24d7e0f92d3f OP_EQUALVERIFY OP_CHECKSIG",
            "hex": "76a914e0de2087be89e06061914fa2f58c24d7e0f92d3f88ac",
            "reqSigs": 1,
            "type": "pubkeyhash",
            "addresses": [
              "LfiwiqpTdqKLLZM1evxhiyouew7eNoK5h1"
            ]
          }
        }, 
        {
          "value": 0.36814000,
          "n": 1,
          "scriptPubKey": {
            "asm": "OP_HASH160 579d469b2ebb73025d485232848ddac61d5ccc78 OP_EQUAL",
            "hex": "a914579d469b2ebb73025d485232848ddac61d5ccc7887",
            "reqSigs": 1,
            "type": "scripthash",
            "addresses": [
              "MFtRRqKj4v57foYmRVP7VShQ83g2uCagJK"
            ]
          }
        }
      ],
      "hex": "010000000115bd5e49c918df5cfb125394be44c0016ad0b38fc478464bd4c66cfa19146bd8090200006b483045022100c8ac11c81c253fe59115c071fa9a6375e86a5324e7861314c206a5fa04148f68022070c5e5f21df3fdfb25a0bd41d6faae3e64bc0c73068b7972060143969f3e55df012102aa17ca6a180d5c48da15ed49a7e153d6d3f632e578c3c614cae212ec705a14b7ffffffff0247460400000000001976a914e0de2087be89e06061914fa2f58c24d7e0f92d3f88acb0bc31020000000017a914579d469b2ebb73025d485232848ddac61d5ccc788700000000"
    }
  ],
  "time": 1517238095,
  "mediantime": 1517237721,
  "nonce": 3915922083,
  "bits": "1a042eae",
  "difficulty": 4011378.762614286,
  "chainwork": "000000000000000000000000000000000000000000000033b34febd536337c92",
  "previousblockhash": "8eb3afd923cf878c87509226cd36390ca34b18e8ce4f32ec69db5b5139a4d654",
  "nextblockhash": "a01e4ea7b51e0a5c026be4f7d9e61c6bb717e9cfd88b6fcb71077ffbb987afd3"
}
