{
  "hash": "c2b607e5bebe95866d9e77250cb7d3370a4425ac609b98a04482352cb881f302",
  "confirmations": 561,
  "strippedsize": 254,
  "size": 254,
  "weight": 1016,
  "height": 1360433,
  "version": 536870912,
  "versionHex": "20000000",
  "merkleroot": "14cd90f3d660ef7d6c2d8ac2a2075b1ba62686973f53bf448297b5f7872072ee",
  "tx": [
    {
      "txid": "14cd90f3d660ef7d6c2d8ac2a2075b1ba62686973f53bf448297b5f7872072ee",
      "hash": "14cd90f3d660ef7d6c2d8ac2a2075b1ba62686973f53bf448297b5f7872072ee",
      "version": 1,
      "size": 173,
      "vsize": 173,
      "locktime": 0,
      "vin": [
        {
          "coinbase": "0331c2141b4d696e656420627920416e74506f6f6c20626a312045205a7226c9fabe6d6d17ff2a0a84d179bffde43bd7e2d602ec6e66ef2869d3a92d065ab6ffdb90c522040000000000000023240000000000001f000000",
          "sequence": 4294967295
        }
      ],
      "vout": [
        {
          "value": 25.00000000,
          "n": 0,
          "scriptPubKey": {
            "asm": "OP_DUP OP_HASH160 0ff3ccc5e8be88afe24b5d634e5852d474dbdff1 OP_EQUALVERIFY OP_CHECKSIG",
            "hex": "76a9140ff3ccc5e8be88afe24b5d634e5852d474dbdff188ac",
            "reqSigs": 1,
            "type": "pubkeyhash",
            "addresses": [
              "LLgJTbzZMsRTCUF1NtvvL9SR1a4pVieW89"
            ]
          }
        }
      ],
      "hex": "01000000010000000000000000000000000000000000000000000000000000000000000000ffffffff580331c2141b4d696e656420627920416e74506f6f6c20626a312045205a7226c9fabe6d6d17ff2a0a84d179bffde43bd7e2d602ec6e66ef2869d3a92d065ab6ffdb90c522040000000000000023240000000000001f000000ffffffff0100f90295000000001976a9140ff3ccc5e8be88afe24b5d634e5852d474dbdff188ac00000000"
    }
  ],
  "time": 1517430473,
  "mediantime": 1517429770,
  "nonce": 215568419,
  "bits": "1a042eae",
  "difficulty": 4011378.762614286,
  "chainwork": "000000000000000000000000000000000000000000000034ef29f4e0a9182c64",
  "previousblockhash": "81b0c68ca8770c4d524b3389cc5f9e440c7af9abe8231d5fee6bab4d7180395e",
  "nextblockhash": "d5562207ed9dd77fe97993564eecd7e4f2711809daa843f6b810073c63b4fa7f"
}
