{
  "hash": "c2b7ad731eeaa3588d8c8ab15650a42bf5157ce74c2023a89321946250b4b8fe",
  "confirmations": 1263,
  "strippedsize": 234,
  "size": 234,
  "weight": 936,
  "height": 1359731,
  "version": 536870912,
  "versionHex": "20000000",
  "merkleroot": "c3f3cd63513bb70fc273ad0c5e48ae1e6a6b5f06c8aa1acefaa21abde47dfb70",
  "tx": [
    {
      "txid": "c3f3cd63513bb70fc273ad0c5e48ae1e6a6b5f06c8aa1acefaa21abde47dfb70",
      "hash": "c3f3cd63513bb70fc273ad0c5e48ae1e6a6b5f06c8aa1acefaa21abde47dfb70",
      "version": 1,
      "size": 153,
      "vsize": 153,
      "locktime": 0,
      "vin": [
        {
          "coinbase": "0373bf14045a7088662cfabe6d6d3ece0a3785267effe8d6162d4e17c910c3d72768c6e7b4fe17c81485e6c7c8394000000000000000042f4c502f085c0080b01f260000",
          "sequence": 4294967295
        }
      ],
      "vout": [
        {
          "value": 25.00000000,
          "n": 0,
          "scriptPubKey": {
            "asm": "OP_DUP OP_HASH160 57757ed2ecf2052ff3126c397aca7defb9ca2cec OP_EQUALVERIFY OP_CHECKSIG",
            "hex": "76a91457757ed2ecf2052ff3126c397aca7defb9ca2cec88ac",
            "reqSigs": 1,
            "type": "pubkeyhash",
            "addresses": [
              "LTCPodGk5FwcJaRzH9yKnwicxzFUbxp6tN"
            ]
          }
        }
      ],
      "hex": "01000000010000000000000000000000000000000000000000000000000000000000000000ffffffff440373bf14045a7088662cfabe6d6d3ece0a3785267effe8d6162d4e17c910c3d72768c6e7b4fe17c81485e6c7c8394000000000000000042f4c502f085c0080b01f260000ffffffff0100f90295000000001976a91457757ed2ecf2052ff3126c397aca7defb9ca2cec88ac00000000"
    }
  ],
  "time": 1517324390,
  "mediantime": 1517323419,
  "nonce": 3571475369,
  "bits": "1a042eae",
  "difficulty": 4011378.762614286,
  "chainwork": "0000000000000000000000000000000000000000000000344750bc54159b59e8",
  "previousblockhash": "fc162f246b15f801f49a6740bd8fa8aa67904a9e08f29be7d28be46d4ae2beaf",
  "nextblockhash": "52f83d36d0aac44a94cee0b736032c16c40c92537b5c471ef915a93658bd2806"
}
