{
  "hash": "c3195a3e64a1714ede8eda6a95cc23576f39795cc405a7b8defd41fa2b8aef07",
  "confirmations": 2212,
  "strippedsize": 4655,
  "size": 5132,
  "weight": 19097,
  "height": 1358782,
  "version": 536870912,
  "versionHex": "20000000",
  "merkleroot": "6314c0495ac355dd5d97a4b32809ca29ea7205a383f0a5ba9ac1157058b7aa18",
  "tx": [
    {
      "txid": "1c1e5e2a4a8ea5bdf202ce3869f796428376ffecf2e01c17c906c733574f6f00",
      "hash": "ec98627b2980b6b77ca5733e45f76a86365ca4ab08b0a6e227c7338da16faf64",
      "version": 1,
      "size": 264,
      "vsize": 237,
      "locktime": 0,
      "vin": [
        {
          "coinbase": "03bebb141d2f5669614254432f4d696e65642062792031383931303331313835352f2cfabe6d6db93f895a843c8f0b98b8104a9d20d83bc92f741a4b13a6d1a3506b667ec65b69010000000000000010c76ed000d7bb4e84e7546e091f000000",
          "sequence": 4294967295
        }
      ],
      "vout": [
        {
          "value": 25.00819672,
          "n": 0,
          "scriptPubKey": {
            "asm": "OP_DUP OP_HASH160 e16c28146ed4869c190b3f0bdc18d80d45f92134 OP_EQUALVERIFY OP_CHECKSIG",
            "hex": "76a914e16c28146ed4869c190b3f0bdc18d80d45f9213488ac",
            "reqSigs": 1,
            "type": "pubkeyhash",
            "addresses": [
              "LfmssDyX6iZvbVqHv6t9P6JWXia2JG7mdb"
            ]
          }
        }, 
        {
          "value": 0.00000000,
          "n": 1,
          "scriptPubKey": {
            "asm": "OP_RETURN aa21a9ed01bafc5e07143bc55eba2d21a5ec6becc6f22aeaa69863269972d2263b3c7c2e",
            "hex": "6a24aa21a9ed01bafc5e07143bc55eba2d21a5ec6becc6f22aeaa69863269972d2263b3c7c2e",
            "type": "nulldata"
          }
        }
      ],
      "hex": "010000000001010000000000000000000000000000000000000000000000000000000000000000ffffffff6003bebb141d2f5669614254432f4d696e65642062792031383931303331313835352f2cfabe6d6db93f895a843c8f0b98b8104a9d20d83bc92f741a4b13a6d1a3506b667ec65b69010000000000000010c76ed000d7bb4e84e7546e091f000000ffffffff02d87a0f95000000001976a914e16c28146ed4869c190b3f0bdc18d80d45f9213488ac0000000000000000266a24aa21a9ed01bafc5e07143bc55eba2d21a5ec6becc6f22aeaa69863269972d2263b3c7c2e0120000000000000000000000000000000000000000000000000000000000000000000000000"
    }, 
    {
      "txid": "ace95cc28f1c049490234b6866bbba62c337b5a12ec2216b4a9584c3bc8ef588",
      "hash": "ace95cc28f1c049490234b6866bbba62c337b5a12ec2216b4a9584c3bc8ef588",
      "version": 1,
      "size": 191,
      "vsize": 191,
      "locktime": 0,
      "vin": [
        {
          "txid": "3ae5fa5e9c2d2290a98a974740420aea5980dad3e58a7db31158f1aaba14e5fc",
          "vout": 0,
          "scriptSig": {
            "asm": "3044022025cc572d5c0e233f5df8f82845ee7bc92ba5ddfe792d5f9e563b7e61dd99b38b02201f05239ce6eee90383907acbd408e2ed95299cb91e063187d96e198a307c831e[ALL] 03d6828ceb62725f8d9cd7f42cb8ed29c4b82d9a78ad67ecb0412aa4f93aee207f",
            "hex": "473044022025cc572d5c0e233f5df8f82845ee7bc92ba5ddfe792d5f9e563b7e61dd99b38b02201f05239ce6eee90383907acbd408e2ed95299cb91e063187d96e198a307c831e012103d6828ceb62725f8d9cd7f42cb8ed29c4b82d9a78ad67ecb0412aa4f93aee207f"
          },
          "sequence": 4294967295
        }
      ],
      "vout": [
        {
          "value": 0.31651228,
          "n": 0,
          "scriptPubKey": {
            "asm": "OP_DUP OP_HASH160 fbe5630d631f6b39dd2857a670d4db30a53ed909 OP_EQUALVERIFY OP_CHECKSIG",
            "hex": "76a914fbe5630d631f6b39dd2857a670d4db30a53ed90988ac",
            "reqSigs": 1,
            "type": "pubkeyhash",
            "addresses": [
              "LiBrfSn9rHUCW6vPZL4oqgnN5EEV5vLgKy"
            ]
          }
        }
      ],
      "hex": "0100000001fce514baaaf15811b37d8ae5d3da8059ea0a424047978aa990222d9c5efae53a000000006a473044022025cc572d5c0e233f5df8f82845ee7bc92ba5ddfe792d5f9e563b7e61dd99b38b02201f05239ce6eee90383907acbd408e2ed95299cb91e063187d96e198a307c831e012103d6828ceb62725f8d9cd7f42cb8ed29c4b82d9a78ad67ecb0412aa4f93aee207fffffffff019cf5e201000000001976a914fbe5630d631f6b39dd2857a670d4db30a53ed90988ac00000000"
    }, 
    {
      "txid": "34079f777f3745c95eaa1a161dfaf132f703d6c12b54e4642cd366c3c2156753",
      "hash": "34079f777f3745c95eaa1a161dfaf132f703d6c12b54e4642cd366c3c2156753",
      "version": 1,
      "size": 191,
      "vsize": 191,
      "locktime": 0,
      "vin": [
        {
          "txid": "4f3d5db0768231ae5e6515cc3e27ac649bea2ea98442b2a7ac4cdf9d51495a6b",
          "vout": 0,
          "scriptSig": {
            "asm": "304402203ca396dca85b67662f909380b4bb173d327ea64c35d11bc46011c5e63f099ef6022027b77ea934d40ff3522a97a3769cf63f0686d773d72d531d2651344955911f31[ALL] 02317a53f079bfd6bfd65f27d2e96b44296ebb87fbbfcf9a013b23c7627be92d64",
            "hex": "47304402203ca396dca85b67662f909380b4bb173d327ea64c35d11bc46011c5e63f099ef6022027b77ea934d40ff3522a97a3769cf63f0686d773d72d531d2651344955911f31012102317a53f079bfd6bfd65f27d2e96b44296ebb87fbbfcf9a013b23c7627be92d64"
          },
          "sequence": 4294967295
        }
      ],
      "vout": [
        {
          "value": 0.03528285,
          "n": 0,
          "scriptPubKey": {
            "asm": "OP_DUP OP_HASH160 6c85e2dcfaf2a2af1224d1c47ce496e4f2f72b58 OP_EQUALVERIFY OP_CHECKSIG",
            "hex": "76a9146c85e2dcfaf2a2af1224d1c47ce496e4f2f72b5888ac",
            "reqSigs": 1,
            "type": "pubkeyhash",
            "addresses": [
              "LV7mdWJ1xS97nSEfJ7goW3GCTbWHU6s7fk"
            ]
          }
        }
      ],
      "hex": "01000000016b5a49519ddf4caca7b24284a92eea9b64ac273ecc15655eae318276b05d3d4f000000006a47304402203ca396dca85b67662f909380b4bb173d327ea64c35d11bc46011c5e63f099ef6022027b77ea934d40ff3522a97a3769cf63f0686d773d72d531d2651344955911f31012102317a53f079bfd6bfd65f27d2e96b44296ebb87fbbfcf9a013b23c7627be92d64ffffffff015dd63500000000001976a9146c85e2dcfaf2a2af1224d1c47ce496e4f2f72b5888ac00000000"
    }, 
    {
      "txid": "9e625170585eb678d53ac5491e2fcbbed72e312766d60a652b86abe8ada52025",
      "hash": "9e625170585eb678d53ac5491e2fcbbed72e312766d60a652b86abe8ada52025",
      "version": 2,
      "size": 225,
      "vsize": 225,
      "locktime": 0,
      "vin": [
        {
          "txid": "cb881220f1e53f3f6c604e28ebdd2331ecc4f96d1729734b8edc664dad190ea9",
          "vout": 1,
          "scriptSig": {
            "asm": "304402205cfee1705b61276bea1cf293f51b567ab005b480c087f9113c3ab2ad496b6bf70220437b3421d2cb22964e248ff5bcc38f7e256f9a6511e7f352e4ee2ff7d4418f94[ALL] 03c6daf7bfef34db46e36e730c54e566b84f704c05292ed9820bd57cee20a9b6b2",
            "hex": "47304402205cfee1705b61276bea1cf293f51b567ab005b480c087f9113c3ab2ad496b6bf70220437b3421d2cb22964e248ff5bcc38f7e256f9a6511e7f352e4ee2ff7d4418f94012103c6daf7bfef34db46e36e730c54e566b84f704c05292ed9820bd57cee20a9b6b2"
          },
          "sequence": 4294967295
        }
      ],
      "vout": [
        {
          "value": 0.00900000,
          "n": 0,
          "scriptPubKey": {
            "asm": "OP_DUP OP_HASH160 c2551acbd4103bc8ee7bb22f445164639331b50e OP_EQUALVERIFY OP_CHECKSIG",
            "hex": "76a914c2551acbd4103bc8ee7bb22f445164639331b50e88ac",
            "reqSigs": 1,
            "type": "pubkeyhash",
            "addresses": [
              "LcwVJc1aYzvCRioPqFa6B5CBjhDvadQBCj"
            ]
          }
        }, 
        {
          "value": 0.00115204,
          "n": 1,
          "scriptPubKey": {
            "asm": "OP_DUP OP_HASH160 6365a2c16e930e741bc6cbd2d3fd14d9f5655cce OP_EQUALVERIFY OP_CHECKSIG",
            "hex": "76a9146365a2c16e930e741bc6cbd2d3fd14d9f5655cce88ac",
            "reqSigs": 1,
            "type": "pubkeyhash",
            "addresses": [
              "LUHWuyr3DRcuQRRtqsdUJGzTq7YqhkpMAP"
            ]
          }
        }
      ],
      "hex": "0200000001a90e19ad4d66dc8e4b7329176df9c4ec3123ddeb284e606c3f3fe5f1201288cb010000006a47304402205cfee1705b61276bea1cf293f51b567ab005b480c087f9113c3ab2ad496b6bf70220437b3421d2cb22964e248ff5bcc38f7e256f9a6511e7f352e4ee2ff7d4418f94012103c6daf7bfef34db46e36e730c54e566b84f704c05292ed9820bd57cee20a9b6b2ffffffff02a0bb0d00000000001976a914c2551acbd4103bc8ee7bb22f445164639331b50e88ac04c20100000000001976a9146365a2c16e930e741bc6cbd2d3fd14d9f5655cce88ac00000000"
    }, 
    {
      "txid": "c58c488ce0182176ec81a6249682ee37c8668dd1f6fca5d7bd3aeb9dcea4ded6",
      "hash": "c58c488ce0182176ec81a6249682ee37c8668dd1f6fca5d7bd3aeb9dcea4ded6",
      "version": 1,
      "size": 226,
      "vsize": 226,
      "locktime": 0,
      "vin": [
        {
          "txid": "2ec50c1f50fb6bdebc09b89382ee7fe9a830554e343f2386caecad090b643ecb",
          "vout": 2,
          "scriptSig": {
            "asm": "3045022100bfbb4fccdd18cf623b2dbc82dfc67dea38e2d4aaafea6b0bcd9ac25073623a8602204e90ef9fd3d069876ebb01b01405b196559e4935820f5f236c21d2f6226685bd[ALL] 0328c9ae635abf580c261c44815dc1aac309e16ff26250525b7e99951369d2b8c7",
            "hex": "483045022100bfbb4fccdd18cf623b2dbc82dfc67dea38e2d4aaafea6b0bcd9ac25073623a8602204e90ef9fd3d069876ebb01b01405b196559e4935820f5f236c21d2f6226685bd01210328c9ae635abf580c261c44815dc1aac309e16ff26250525b7e99951369d2b8c7"
          },
          "sequence": 4294967295
        }
      ],
      "vout": [
        {
          "value": 3.02795053,
          "n": 0,
          "scriptPubKey": {
            "asm": "OP_DUP OP_HASH160 7a53e5411633478eab70e1e84a2fea9e86978aee OP_EQUALVERIFY OP_CHECKSIG",
            "hex": "76a9147a53e5411633478eab70e1e84a2fea9e86978aee88ac",
            "reqSigs": 1,
            "type": "pubkeyhash",
            "addresses": [
              "LWNmCnAfVCc3MaRUW8y21r8iu7zuyL1Pi2"
            ]
          }
        }, 
        {
          "value": 100.34971010,
          "n": 1,
          "scriptPubKey": {
            "asm": "OP_DUP OP_HASH160 c6e3836c2f4cd8f9c53e32813ded99ac0ce001f1 OP_EQUALVERIFY OP_CHECKSIG",
            "hex": "76a914c6e3836c2f4cd8f9c53e32813ded99ac0ce001f188ac",
            "reqSigs": 1,
            "type": "pubkeyhash",
            "addresses": [
              "LdMac6qdwFnBCVXN96dvoPjzbcE36gzs64"
            ]
          }
        }
      ],
      "hex": "0100000001cb3e640b09adecca86233f344e5530a8e97fee8293b809bcde6bfb501f0cc52e020000006b483045022100bfbb4fccdd18cf623b2dbc82dfc67dea38e2d4aaafea6b0bcd9ac25073623a8602204e90ef9fd3d069876ebb01b01405b196559e4935820f5f236c21d2f6226685bd01210328c9ae635abf580c261c44815dc1aac309e16ff26250525b7e99951369d2b8c7ffffffff022d490c12000000001976a9147a53e5411633478eab70e1e84a2fea9e86978aee88ac82812156020000001976a914c6e3836c2f4cd8f9c53e32813ded99ac0ce001f188ac00000000"
    }, 
    {
      "txid": "f7b4bbe83dccb43caf2b171363d3d02a8a9c0a7b5a811b1491a249dc9970e92e",
      "hash": "7123f3d2c2324642e025394a959f29c8259d3b8ba6f965d4b2c33a8e9a8ec502",
      "version": 1,
      "size": 669,
      "vsize": 339,
      "locktime": 0,
      "vin": [
        {
          "txid": "6fbdb6190d244edfc4e02ae6057cd36d7fd34e65f00004e115a59a98643fb0de",
          "vout": 0,
          "scriptSig": {
            "asm": "002094d402ec61ee44a0d177585f39d7bbd235cf87788a880284bccc760a456fbe4c",
            "hex": "22002094d402ec61ee44a0d177585f39d7bbd235cf87788a880284bccc760a456fbe4c"
          },
          "txinwitness": [
            "", 
            "3045022100dd8ba3de04b04c615fadb6b6cc9d845f1ac77d2bcf881ac3cb8e7539d1f93efd0220659d5d298d32b6a4c82d03645819050460e8245413a8fb175fd637f718e0153101", 
            "3045022100c60c7197ec8679e33cea92aee759d045e989f183199c0eb75a860be9d64f45ee0220201fe40f17ec0f9b2d4d498de6b0a90f43f112395cb5a58d51dff4978b633f2101", 
            "5221027b57f6523c27781aae45609db9e286af03d6a30300bc699656ea0195cf7bebbb21035601f3a2305646caace0c463b02eba89c2b789e281cef04109061d879d5bb51352ae"
          ],
          "sequence": 4294967295
        }, 
        {
          "txid": "75b2cc4370fbfe4c400ada6b10642662a5e9094d2b66294a32f95a790f2d96d2",
          "vout": 1,
          "scriptSig": {
            "asm": "00205462036f0283dc4310ac92434b80e983ed9179be068480d93f1a396c7ae72c3c",
            "hex": "2200205462036f0283dc4310ac92434b80e983ed9179be068480d93f1a396c7ae72c3c"
          },
          "txinwitness": [
            "", 
            "3045022100f51409925f349a17788ae2547ea4b3613b87c02a117f5ee1f5bcae1f1c9b755b02204c44b0d5d24d229174f6ec3bcd05969442a71cd80e77d68cc75969f4a71704a601", 
            "3044022071da1afcc19a9c28ec0e9aa54f81863c0868ad61e4f5036b73306f5c975bab8102202a4eb1a312eb6d9e444c8311d714e5bd1f111cc32559efb5dce817773d0f385e01", 
            "522102ba9eb9be14f61e759385896af478146a0d8eb46198f5171eaad7004adba752b921035601f3a2305646caace0c463b02eba89c2b789e281cef04109061d879d5bb51352ae"
          ],
          "sequence": 4294967295
        }
      ],
      "vout": [
        {
          "value": 0.14153015,
          "n": 0,
          "scriptPubKey": {
            "asm": "OP_DUP OP_HASH160 223bfea41e12ab551b719f04e439a1fea2834d0e OP_EQUALVERIFY OP_CHECKSIG",
            "hex": "76a914223bfea41e12ab551b719f04e439a1fea2834d0e88ac",
            "reqSigs": 1,
            "type": "pubkeyhash",
            "addresses": [
              "LNLy7EqxX8i33gSaivoPwurDxixFYq5gYd"
            ]
          }
        }, 
        {
          "value": 0.13401636,
          "n": 1,
          "scriptPubKey": {
            "asm": "OP_HASH160 3b7b5703794a8fec53920cd2a46d2771aeb823a4 OP_EQUAL",
            "hex": "a9143b7b5703794a8fec53920cd2a46d2771aeb823a487",
            "reqSigs": 1,
            "type": "scripthash",
            "addresses": [
              "MDKfrZ7R9Z29ZxfLmGDJVZSok5DhVeNYmT"
            ]
          }
        }
      ],
      "hex": "01000000000102deb03f64989aa515e10400f0654ed37f6dd37c05e62ae0c4df4e240d19b6bd6f000000002322002094d402ec61ee44a0d177585f39d7bbd235cf87788a880284bccc760a456fbe4cffffffffd2962d0f795af9324a29662b4d09e9a5622664106bda0a404cfefb7043ccb27501000000232200205462036f0283dc4310ac92434b80e983ed9179be068480d93f1a396c7ae72c3cffffffff0237f5d700000000001976a914223bfea41e12ab551b719f04e439a1fea2834d0e88ac247ecc000000000017a9143b7b5703794a8fec53920cd2a46d2771aeb823a4870400483045022100dd8ba3de04b04c615fadb6b6cc9d845f1ac77d2bcf881ac3cb8e7539d1f93efd0220659d5d298d32b6a4c82d03645819050460e8245413a8fb175fd637f718e0153101483045022100c60c7197ec8679e33cea92aee759d045e989f183199c0eb75a860be9d64f45ee0220201fe40f17ec0f9b2d4d498de6b0a90f43f112395cb5a58d51dff4978b633f2101475221027b57f6523c27781aae45609db9e286af03d6a30300bc699656ea0195cf7bebbb21035601f3a2305646caace0c463b02eba89c2b789e281cef04109061d879d5bb51352ae0400483045022100f51409925f349a17788ae2547ea4b3613b87c02a117f5ee1f5bcae1f1c9b755b02204c44b0d5d24d229174f6ec3bcd05969442a71cd80e77d68cc75969f4a71704a601473044022071da1afcc19a9c28ec0e9aa54f81863c0868ad61e4f5036b73306f5c975bab8102202a4eb1a312eb6d9e444c8311d714e5bd1f111cc32559efb5dce817773d0f385e0147522102ba9eb9be14f61e759385896af478146a0d8eb46198f5171eaad7004adba752b921035601f3a2305646caace0c463b02eba89c2b789e281cef04109061d879d5bb51352ae00000000"
    }, 
    {
      "txid": "916efe4c9457da5995949f70134fa64059938daaf8e45514a34a5a4f9df78e2d",
      "hash": "916efe4c9457da5995949f70134fa64059938daaf8e45514a34a5a4f9df78e2d",
      "version": 1,
      "size": 225,
      "vsize": 225,
      "locktime": 0,
      "vin": [
        {
          "txid": "9eec2363d25ff7922645d415df310456d264974de5321e8c0b91613f830d6e4d",
          "vout": 1,
          "scriptSig": {
            "asm": "304402204dc13a8887482ec9ce0b4a69fc4970398587577dca744ece7d96b35442067ecb02202cf8dff58973521999f18ace9aa406df00d63db0a32402ac411bc5b40aa0c1f1[ALL] 03910a23cfff67b2501bac5ee6c9b15b33e0a4cad0f0f289ad6ab560d43bc519dd",
            "hex": "47304402204dc13a8887482ec9ce0b4a69fc4970398587577dca744ece7d96b35442067ecb02202cf8dff58973521999f18ace9aa406df00d63db0a32402ac411bc5b40aa0c1f1012103910a23cfff67b2501bac5ee6c9b15b33e0a4cad0f0f289ad6ab560d43bc519dd"
          },
          "sequence": 4294967295
        }
      ],
      "vout": [
        {
          "value": 13.20751156,
          "n": 0,
          "scriptPubKey": {
            "asm": "OP_DUP OP_HASH160 55a40a4c36639258a20782d52f61cfc7e7e5f40e OP_EQUALVERIFY OP_CHECKSIG",
            "hex": "76a91455a40a4c36639258a20782d52f61cfc7e7e5f40e88ac",
            "reqSigs": 1,
            "type": "pubkeyhash",
            "addresses": [
              "LT2nDEUzYC649FZzRKhrd2MgxEbrWcZ1PV"
            ]
          }
        }, 
        {
          "value": 57.45430722,
          "n": 1,
          "scriptPubKey": {
            "asm": "OP_DUP OP_HASH160 5da84e2d7e89bcf730e24a74c6c65bd9162bf1c0 OP_EQUALVERIFY OP_CHECKSIG",
            "hex": "76a9145da84e2d7e89bcf730e24a74c6c65bd9162bf1c088ac",
            "reqSigs": 1,
            "type": "pubkeyhash",
            "addresses": [
              "LTmAj7h4KF6Ca5YbwpxurhuBazNPJYLTDd"
            ]
          }
        }
      ],
      "hex": "01000000014d6e0d833f61910b8c1e32e54d9764d2560431df15d4452692f75fd26323ec9e010000006a47304402204dc13a8887482ec9ce0b4a69fc4970398587577dca744ece7d96b35442067ecb02202cf8dff58973521999f18ace9aa406df00d63db0a32402ac411bc5b40aa0c1f1012103910a23cfff67b2501bac5ee6c9b15b33e0a4cad0f0f289ad6ab560d43bc519ddffffffff023410b94e000000001976a91455a40a4c36639258a20782d52f61cfc7e7e5f40e88acc2507456010000001976a9145da84e2d7e89bcf730e24a74c6c65bd9162bf1c088ac00000000"
    }, 
    {
      "txid": "9a63815a1a0471bf61a2101f5f57c52db39fb4a7fbfaeb4700fa96b44baafa2f",
      "hash": "9a63815a1a0471bf61a2101f5f57c52db39fb4a7fbfaeb4700fa96b44baafa2f",
      "version": 1,
      "size": 225,
      "vsize": 225,
      "locktime": 0,
      "vin": [
        {
          "txid": "bba1c5084c6e3f63121c677bcb44294f47a0d268abcf6fe334b436d738870a44",
          "vout": 1,
          "scriptSig": {
            "asm": "3044022074474375151b2e2c78cbf043f86528466acc7a544da7aa59d9a42ae2f456423d02203bf223305d7f452c8e8c8e99976b2abe1e5cfbc717af24d363e31082ac384b75[ALL] 02e663d8ffc0ace3fa72d0964cb8d6fa472497f29591ff8d5afba07e28d5cd4a96",
            "hex": "473044022074474375151b2e2c78cbf043f86528466acc7a544da7aa59d9a42ae2f456423d02203bf223305d7f452c8e8c8e99976b2abe1e5cfbc717af24d363e31082ac384b75012102e663d8ffc0ace3fa72d0964cb8d6fa472497f29591ff8d5afba07e28d5cd4a96"
          },
          "sequence": 4294967295
        }
      ],
      "vout": [
        {
          "value": 71.04367282,
          "n": 0,
          "scriptPubKey": {
            "asm": "OP_DUP OP_HASH160 8e8a10fe1d12f3c30747c33e32a9b7dd70fae3c3 OP_EQUALVERIFY OP_CHECKSIG",
            "hex": "76a9148e8a10fe1d12f3c30747c33e32a9b7dd70fae3c388ac",
            "reqSigs": 1,
            "type": "pubkeyhash",
            "addresses": [
              "LYDdcUPUkYgpRAHfVU82TTShDmbaB2QHDx"
            ]
          }
        }, 
        {
          "value": 0.72031000,
          "n": 1,
          "scriptPubKey": {
            "asm": "OP_DUP OP_HASH160 ec9ba87625495b713bb07b3105057030e71924fa OP_EQUALVERIFY OP_CHECKSIG",
            "hex": "76a914ec9ba87625495b713bb07b3105057030e71924fa88ac",
            "reqSigs": 1,
            "type": "pubkeyhash",
            "addresses": [
              "Lgo2Co8LvH7U7nWyK3uwxJqKsbCXsrXpkp"
            ]
          }
        }
      ],
      "hex": "0100000001440a8738d736b434e36fcfab68d2a0474f2944cb7b671c12633f6e4c08c5a1bb010000006a473044022074474375151b2e2c78cbf043f86528466acc7a544da7aa59d9a42ae2f456423d02203bf223305d7f452c8e8c8e99976b2abe1e5cfbc717af24d363e31082ac384b75012102e663d8ffc0ace3fa72d0964cb8d6fa472497f29591ff8d5afba07e28d5cd4a96ffffffff02b20a74a7010000001976a9148e8a10fe1d12f3c30747c33e32a9b7dd70fae3c388ac181b4b04000000001976a914ec9ba87625495b713bb07b3105057030e71924fa88ac00000000"
    }, 
    {
      "txid": "06ec8a02aff07e1ae45b82567888e5cd92496512777fe173ec82ec76180b1a3e",
      "hash": "06ec8a02aff07e1ae45b82567888e5cd92496512777fe173ec82ec76180b1a3e",
      "version": 2,
      "size": 1258,
      "vsize": 1258,
      "locktime": 1358780,
      "vin": [
        {
          "txid": "f1bef01d834365c83e4e0852148f1175c6b3bd1260ccd0c03d5366f999a82d7d",
          "vout": 1,
          "scriptSig": {
            "asm": "30440220596f2db969bf60ab80174ac32d473842874fbb84617e0ab128610fb68330b2be022079210b6da50f9e88533df91b315b14f77df468187b445d17687ffca2706d95a2[ALL] 02af8cc53f9bcbe447402b6f47f87c0ced4b02b0b0beeb290285fba100d557587f",
            "hex": "4730440220596f2db969bf60ab80174ac32d473842874fbb84617e0ab128610fb68330b2be022079210b6da50f9e88533df91b315b14f77df468187b445d17687ffca2706d95a2012102af8cc53f9bcbe447402b6f47f87c0ced4b02b0b0beeb290285fba100d557587f"
          },
          "sequence": 4294967294
        }, 
        {
          "txid": "50ade025d25abcd45de034396e84deeb6f15b2f5ce5d1a1168c2c266da4ba58d",
          "vout": 0,
          "scriptSig": {
            "asm": "3045022100caf1dcb0a94332645bf7a30609639855bae866e95a995077c44ecaa71e16396302206cff147912ff52bfef8368c1fe24a82714ecf3d6251e3811ba9045d5ca2f0f4d[ALL] 03753a155472925d1f50dfdcece7caebe937eb50180619cb2c6d37cdcc42f9731b",
            "hex": "483045022100caf1dcb0a94332645bf7a30609639855bae866e95a995077c44ecaa71e16396302206cff147912ff52bfef8368c1fe24a82714ecf3d6251e3811ba9045d5ca2f0f4d012103753a155472925d1f50dfdcece7caebe937eb50180619cb2c6d37cdcc42f9731b"
          },
          "sequence": 4294967294
        }, 
        {
          "txid": "ebdff2d98c49b0d87d05fca5ccc1699b5aebcdae261067cabf90b95af5082442",
          "vout": 0,
          "scriptSig": {
            "asm": "30440220626f73349038e5d14477f1449f1ab498f4242058c8f32d80e472db6a2435b35402207ebd2719ffec5416da99e6b101ecc0830c52485dc4e28d10617912507858f6fc[ALL] 0249b5dcac550bcaec8cdfdd3c97e0f4dc507de161ce39a7adf29b46803e9bcc55",
            "hex": "4730440220626f73349038e5d14477f1449f1ab498f4242058c8f32d80e472db6a2435b35402207ebd2719ffec5416da99e6b101ecc0830c52485dc4e28d10617912507858f6fc01210249b5dcac550bcaec8cdfdd3c97e0f4dc507de161ce39a7adf29b46803e9bcc55"
          },
          "sequence": 4294967294
        }, 
        {
          "txid": "bd1e195756223e9e9e7bc93ae7141b5fb431f8ff88e130c819251773e1f851f4",
          "vout": 1,
          "scriptSig": {
            "asm": "3045022100e739c8e48ab1dcd4e5ef12fd3db02e6330230c5c6c48e58816436ed6b5346b0e02205777ef553def5209e350971b70a99dc6ffe6510a496c52e9d75852db874a5f1d[ALL] 02b6da27f95b559c2ef0b2f390683df327269156fcd4c002ad0df81439ef8a6d1e",
            "hex": "483045022100e739c8e48ab1dcd4e5ef12fd3db02e6330230c5c6c48e58816436ed6b5346b0e02205777ef553def5209e350971b70a99dc6ffe6510a496c52e9d75852db874a5f1d012102b6da27f95b559c2ef0b2f390683df327269156fcd4c002ad0df81439ef8a6d1e"
          },
          "sequence": 4294967294
        }, 
        {
          "txid": "837e5c82d9656f9c219e41a97838d76b2207aa8427a7cd18445123af90730365",
          "vout": 0,
          "scriptSig": {
            "asm": "3045022100ce5906db73535697bd45498439c9f2db3f4dfb350ddaa80df78a969190cec90f0220438e5538ff2a84ca7fcf8c07283f221efe6789bbf190815c3b57630ca00eb7cf[ALL] 037d56551d47e3267473fb8a701427c401bf7c3fc28448bbceba533be856217136",
            "hex": "483045022100ce5906db73535697bd45498439c9f2db3f4dfb350ddaa80df78a969190cec90f0220438e5538ff2a84ca7fcf8c07283f221efe6789bbf190815c3b57630ca00eb7cf0121037d56551d47e3267473fb8a701427c401bf7c3fc28448bbceba533be856217136"
          },
          "sequence": 4294967294
        }, 
        {
          "txid": "a4330b344f7ca2630f911090aa3ddb726a23255ff8fe5c2f5873655888bdc8bb",
          "vout": 11,
          "scriptSig": {
            "asm": "304402206421747693753962f1ceb8bfbc383ddc1a6302bb211172a97fc4958559e54f2a02205bf5631cce5e8d3aa5c3de7bef5dcb7630b3a25ee00ccc0056d0be563ff89387[ALL] 0250cdbb30bad5e52820d45c4723e8b349426ac580b5f172787844a00f9c9532fa",
            "hex": "47304402206421747693753962f1ceb8bfbc383ddc1a6302bb211172a97fc4958559e54f2a02205bf5631cce5e8d3aa5c3de7bef5dcb7630b3a25ee00ccc0056d0be563ff8938701210250cdbb30bad5e52820d45c4723e8b349426ac580b5f172787844a00f9c9532fa"
          },
          "sequence": 4294967294
        }, 
        {
          "txid": "a69d8173db0761a74dfb75b756c06e8c68551af543a875a59c5028e470ba803e",
          "vout": 1,
          "scriptSig": {
            "asm": "3045022100f2832da6e092c1d0ae79937fc24452d8ac859456b64f1dc3f626f15cecd3212c0220304ab5b5517cff28f8a4527a915a9f5c01c02980b6b7d1bc4b54d0d57644d352[ALL] 03a18df561cd1f063894e066534300a9e8563077f1d4b7cba53b7f1e0513088670",
            "hex": "483045022100f2832da6e092c1d0ae79937fc24452d8ac859456b64f1dc3f626f15cecd3212c0220304ab5b5517cff28f8a4527a915a9f5c01c02980b6b7d1bc4b54d0d57644d352012103a18df561cd1f063894e066534300a9e8563077f1d4b7cba53b7f1e0513088670"
          },
          "sequence": 4294967294
        }, 
        {
          "txid": "43441c0a1ad5a5f90c972b1d23ac708a6afaf5a09aa9c5fc6ae23b0838e1ed94",
          "vout": 1,
          "scriptSig": {
            "asm": "304402202820d37b54418075a8a3069ead742732e9c260127f120bbac815abe7083b3bef02207174e1fd2be964fc6c5cb83affe9dba491ca2897b1ec679858bc3a21b7b1b5a2[ALL] 0332a601a3ef4eb04fb4dc73f89da374f0f5cc975362575d4cb3d90e7ff3b064b1",
            "hex": "47304402202820d37b54418075a8a3069ead742732e9c260127f120bbac815abe7083b3bef02207174e1fd2be964fc6c5cb83affe9dba491ca2897b1ec679858bc3a21b7b1b5a201210332a601a3ef4eb04fb4dc73f89da374f0f5cc975362575d4cb3d90e7ff3b064b1"
          },
          "sequence": 4294967294
        }
      ],
      "vout": [
        {
          "value": 0.00873912,
          "n": 0,
          "scriptPubKey": {
            "asm": "OP_DUP OP_HASH160 cdb93fa1bb9eb1ae1f3f65c5206addaa5369e3a0 OP_EQUALVERIFY OP_CHECKSIG",
            "hex": "76a914cdb93fa1bb9eb1ae1f3f65c5206addaa5369e3a088ac",
            "reqSigs": 1,
            "type": "pubkeyhash",
            "addresses": [
              "LdyihqKgsLpQDSYVKeRNd9671eTgZ5FmNr"
            ]
          }
        }, 
        {
          "value": 12.39642759,
          "n": 1,
          "scriptPubKey": {
            "asm": "OP_DUP OP_HASH160 2fd098e2ccc00f0e53cebe2a7b5d8d512554f321 OP_EQUALVERIFY OP_CHECKSIG",
            "hex": "76a9142fd098e2ccc00f0e53cebe2a7b5d8d512554f32188ac",
            "reqSigs": 1,
            "type": "pubkeyhash",
            "addresses": [
              "LPamupMkoj4VryrxHhgDVhVNMf5EbfK39d"
            ]
          }
        }
      ],
      "hex": "02000000087d2da899f966533dc0d0cc6012bdb3c675118f1452084e3ec86543831df0bef1010000006a4730440220596f2db969bf60ab80174ac32d473842874fbb84617e0ab128610fb68330b2be022079210b6da50f9e88533df91b315b14f77df468187b445d17687ffca2706d95a2012102af8cc53f9bcbe447402b6f47f87c0ced4b02b0b0beeb290285fba100d557587ffeffffff8da54bda66c2c268111a5dcef5b2156febde846e3934e05dd4bc5ad225e0ad50000000006b483045022100caf1dcb0a94332645bf7a30609639855bae866e95a995077c44ecaa71e16396302206cff147912ff52bfef8368c1fe24a82714ecf3d6251e3811ba9045d5ca2f0f4d012103753a155472925d1f50dfdcece7caebe937eb50180619cb2c6d37cdcc42f9731bfeffffff422408f55ab990bfca671026aecdeb5a9b69c1cca5fc057dd8b0498cd9f2dfeb000000006a4730440220626f73349038e5d14477f1449f1ab498f4242058c8f32d80e472db6a2435b35402207ebd2719ffec5416da99e6b101ecc0830c52485dc4e28d10617912507858f6fc01210249b5dcac550bcaec8cdfdd3c97e0f4dc507de161ce39a7adf29b46803e9bcc55fefffffff451f8e173172519c830e188fff831b45f1b14e73ac97b9e9e3e225657191ebd010000006b483045022100e739c8e48ab1dcd4e5ef12fd3db02e6330230c5c6c48e58816436ed6b5346b0e02205777ef553def5209e350971b70a99dc6ffe6510a496c52e9d75852db874a5f1d012102b6da27f95b559c2ef0b2f390683df327269156fcd4c002ad0df81439ef8a6d1efeffffff65037390af23514418cda72784aa07226bd73878a9419e219c6f65d9825c7e83000000006b483045022100ce5906db73535697bd45498439c9f2db3f4dfb350ddaa80df78a969190cec90f0220438e5538ff2a84ca7fcf8c07283f221efe6789bbf190815c3b57630ca00eb7cf0121037d56551d47e3267473fb8a701427c401bf7c3fc28448bbceba533be856217136feffffffbbc8bd88586573582f5cfef85f25236a72db3daa9010910f63a27c4f340b33a40b0000006a47304402206421747693753962f1ceb8bfbc383ddc1a6302bb211172a97fc4958559e54f2a02205bf5631cce5e8d3aa5c3de7bef5dcb7630b3a25ee00ccc0056d0be563ff8938701210250cdbb30bad5e52820d45c4723e8b349426ac580b5f172787844a00f9c9532fafeffffff3e80ba70e428509ca575a843f51a55688c6ec056b775fb4da76107db73819da6010000006b483045022100f2832da6e092c1d0ae79937fc24452d8ac859456b64f1dc3f626f15cecd3212c0220304ab5b5517cff28f8a4527a915a9f5c01c02980b6b7d1bc4b54d0d57644d352012103a18df561cd1f063894e066534300a9e8563077f1d4b7cba53b7f1e0513088670feffffff94ede138083be26afcc5a99aa0f5fa6a8a70ac231d2b970cf9a5d51a0a1c4443010000006a47304402202820d37b54418075a8a3069ead742732e9c260127f120bbac815abe7083b3bef02207174e1fd2be964fc6c5cb83affe9dba491ca2897b1ec679858bc3a21b7b1b5a201210332a601a3ef4eb04fb4dc73f89da374f0f5cc975362575d4cb3d90e7ff3b064b1feffffff02b8550d00000000001976a914cdb93fa1bb9eb1ae1f3f65c5206addaa5369e3a088ac8772e349000000001976a9142fd098e2ccc00f0e53cebe2a7b5d8d512554f32188acbcbb1400"
    }, 
    {
      "txid": "27f417760f97be0bf6e08c0e7e3a36e78037920957f6b22e55a233aa7a387e05",
      "hash": "27f417760f97be0bf6e08c0e7e3a36e78037920957f6b22e55a233aa7a387e05",
      "version": 1,
      "size": 226,
      "vsize": 226,
      "locktime": 0,
      "vin": [
        {
          "txid": "1a49e284b3f3544d7f32824f1ca132133ab48f75e283d05b5ed89b6b2ce36e22",
          "vout": 1,
          "scriptSig": {
            "asm": "304502210086d41d19a00c0ff83957e0858c9569b716f4a7ece644a693c6e9424d3e14465702202938bbcdcbf2934f99e997869b2237a530ef934e10268387c6824f14bdf51e82[ALL] 035dfcce8b01de4d644faeb92aed3052158515dcc86d733e582560a714ef82f564",
            "hex": "48304502210086d41d19a00c0ff83957e0858c9569b716f4a7ece644a693c6e9424d3e14465702202938bbcdcbf2934f99e997869b2237a530ef934e10268387c6824f14bdf51e820121035dfcce8b01de4d644faeb92aed3052158515dcc86d733e582560a714ef82f564"
          },
          "sequence": 4294967295
        }
      ],
      "vout": [
        {
          "value": 9.29724115,
          "n": 0,
          "scriptPubKey": {
            "asm": "OP_DUP OP_HASH160 3e7ac3b7e144443e3f16fa1f6152797cf41073a9 OP_EQUALVERIFY OP_CHECKSIG",
            "hex": "76a9143e7ac3b7e144443e3f16fa1f6152797cf41073a988ac",
            "reqSigs": 1,
            "type": "pubkeyhash",
            "addresses": [
              "LQvKDwCGkunZduUrTFCRVa4aL7HfmApZne"
            ]
          }
        }, 
        {
          "value": 57.19368566,
          "n": 1,
          "scriptPubKey": {
            "asm": "OP_DUP OP_HASH160 554b647b7c66e4b36177bb03e9dde7d1ae39165c OP_EQUALVERIFY OP_CHECKSIG",
            "hex": "76a914554b647b7c66e4b36177bb03e9dde7d1ae39165c88ac",
            "reqSigs": 1,
            "type": "pubkeyhash",
            "addresses": [
              "LSzx1t7Dk3jfYMddUKGWGUwxk24oYSwwR8"
            ]
          }
        }
      ],
      "hex": "0100000001226ee32c6b9bd85e5bd083e2758fb43a1332a11c4f82327f4d54f3b384e2491a010000006b48304502210086d41d19a00c0ff83957e0858c9569b716f4a7ece644a693c6e9424d3e14465702202938bbcdcbf2934f99e997869b2237a530ef934e10268387c6824f14bdf51e820121035dfcce8b01de4d644faeb92aed3052158515dcc86d733e582560a714ef82f564ffffffff02d3766a37000000001976a9143e7ac3b7e144443e3f16fa1f6152797cf41073a988ac76a3e654010000001976a914554b647b7c66e4b36177bb03e9dde7d1ae39165c88ac00000000"
    }, 
    {
      "txid": "f021fb70bbff42ef816f3eb69c1adc1aca9ed946e9c042426fbd7fedb5144f14",
      "hash": "f021fb70bbff42ef816f3eb69c1adc1aca9ed946e9c042426fbd7fedb5144f14",
      "version": 1,
      "size": 226,
      "vsize": 226,
      "locktime": 0,
      "vin": [
        {
          "txid": "81f5487dc3b3c1ef8151ab2fae668d7c658e038db8352874f07e3ea406add135",
          "vout": 175,
          "scriptSig": {
            "asm": "3045022100d158762ebdf7afca76b138ff375d975e2bcebd6980c6c8e11b92b655c6151db3022052fc1bef356db1723febae3309998175d403dc96ac7ef9a1f06a135e7ac01643[ALL] 0223127f3358664515c200a4f08af1d46983a19db7e161a787c591e857d15fd167",
            "hex": "483045022100d158762ebdf7afca76b138ff375d975e2bcebd6980c6c8e11b92b655c6151db3022052fc1bef356db1723febae3309998175d403dc96ac7ef9a1f06a135e7ac0164301210223127f3358664515c200a4f08af1d46983a19db7e161a787c591e857d15fd167"
          },
          "sequence": 4294967295
        }
      ],
      "vout": [
        {
          "value": 0.00055647,
          "n": 0,
          "scriptPubKey": {
            "asm": "OP_DUP OP_HASH160 217ea6935aad13384180879fd628e3b5c4904fac OP_EQUALVERIFY OP_CHECKSIG",
            "hex": "76a914217ea6935aad13384180879fd628e3b5c4904fac88ac",
            "reqSigs": 1,
            "type": "pubkeyhash",
            "addresses": [
              "LNH4HPRHwakHEj6eNESSTDfVDqVDgxqCmY"
            ]
          }
        }, 
        {
          "value": 0.06824730,
          "n": 1,
          "scriptPubKey": {
            "asm": "OP_DUP OP_HASH160 0ba79dc5df272f228c2d16d65ea7a286eb0c4467 OP_EQUALVERIFY OP_CHECKSIG",
            "hex": "76a9140ba79dc5df272f228c2d16d65ea7a286eb0c446788ac",
            "reqSigs": 1,
            "type": "pubkeyhash",
            "addresses": [
              "LLHaVWQmADUyJW1iHrgE1d7miLJaq4NS8G"
            ]
          }
        }
      ],
      "hex": "010000000135d1ad06a43e7ef0742835b88d038e657c8d66ae2fab5181efc1b3c37d48f581af0000006b483045022100d158762ebdf7afca76b138ff375d975e2bcebd6980c6c8e11b92b655c6151db3022052fc1bef356db1723febae3309998175d403dc96ac7ef9a1f06a135e7ac0164301210223127f3358664515c200a4f08af1d46983a19db7e161a787c591e857d15fd167ffffffff025fd90000000000001976a914217ea6935aad13384180879fd628e3b5c4904fac88ac1a236800000000001976a9140ba79dc5df272f228c2d16d65ea7a286eb0c446788ac00000000"
    }, 
    {
      "txid": "c3f63113df28fbf4e44be8e566d35ba14ea24718b60a2339f9ef760047bfe597",
      "hash": "c3f63113df28fbf4e44be8e566d35ba14ea24718b60a2339f9ef760047bfe597",
      "version": 1,
      "size": 226,
      "vsize": 226,
      "locktime": 0,
      "vin": [
        {
          "txid": "39f95aedd26516fd78370b21d66f85e02171d340b3024b727aa38a6e05658cf4",
          "vout": 1,
          "scriptSig": {
            "asm": "3045022100b8c9003ec88eb4b6516fa3f69e6b86110f6a0ac31e9d9033741f51a4288eb0b702200fbd074abda052bf1118236e295075558191c3583ec5ef22b76c65c3f09b702b[ALL] 039486f18ea7c410b12c9e52431897cdd72c7fc42076237dcb3069ef68b145cdba",
            "hex": "483045022100b8c9003ec88eb4b6516fa3f69e6b86110f6a0ac31e9d9033741f51a4288eb0b702200fbd074abda052bf1118236e295075558191c3583ec5ef22b76c65c3f09b702b0121039486f18ea7c410b12c9e52431897cdd72c7fc42076237dcb3069ef68b145cdba"
          },
          "sequence": 4294967295
        }
      ],
      "vout": [
        {
          "value": 0.01270545,
          "n": 0,
          "scriptPubKey": {
            "asm": "OP_DUP OP_HASH160 204c951ed37f6f859b0a4d6f2414521f53b14a30 OP_EQUALVERIFY OP_CHECKSIG",
            "hex": "76a914204c951ed37f6f859b0a4d6f2414521f53b14a3088ac",
            "reqSigs": 1,
            "type": "pubkeyhash",
            "addresses": [
              "LNAjdPz3P3zjwbyDoCLsEz59x5oyTRGSqe"
            ]
          }
        }, 
        {
          "value": 0.09997780,
          "n": 1,
          "scriptPubKey": {
            "asm": "OP_DUP OP_HASH160 bebe6eabfb1f3493bd0ecd5c4122ef2ba59068ac OP_EQUALVERIFY OP_CHECKSIG",
            "hex": "76a914bebe6eabfb1f3493bd0ecd5c4122ef2ba59068ac88ac",
            "reqSigs": 1,
            "type": "pubkeyhash",
            "addresses": [
              "LccWn8UpDewtJucAtATKuk7k63xEJ9kNg8"
            ]
          }
        }
      ],
      "hex": "0100000001f48c65056e8aa37a724b02b340d37121e0856fd6210b3778fd1665d2ed5af939010000006b483045022100b8c9003ec88eb4b6516fa3f69e6b86110f6a0ac31e9d9033741f51a4288eb0b702200fbd074abda052bf1118236e295075558191c3583ec5ef22b76c65c3f09b702b0121039486f18ea7c410b12c9e52431897cdd72c7fc42076237dcb3069ef68b145cdbaffffffff0211631300000000001976a914204c951ed37f6f859b0a4d6f2414521f53b14a3088acd48d9800000000001976a914bebe6eabfb1f3493bd0ecd5c4122ef2ba59068ac88ac00000000"
    }, 
    {
      "txid": "9488144a558b3d2ad0a9c988adc99b0a7f2b62dfdce043ba57313513bb671098",
      "hash": "9488144a558b3d2ad0a9c988adc99b0a7f2b62dfdce043ba57313513bb671098",
      "version": 1,
      "size": 226,
      "vsize": 226,
      "locktime": 1358780,
      "vin": [
        {
          "txid": "5d8d89fb43846b924ab94d12a2ac7d30b14ce02f2602441fb552e1d32d9b7d9a",
          "vout": 1,
          "scriptSig": {
            "asm": "304502210098dad80ed5b5118ade05dbb51d803e8dc8cd0af60d2c019e6f4e0e050dfd27e4022051b96eedc077696a6d326bc8863e746840c58fe17d38ad89e9297a1e0b1f7c1b[ALL] 027702153ace512cb6b770c0ed1ca180d77036801ea8d8977f6b0a5ebb4f9abcd6",
            "hex": "48304502210098dad80ed5b5118ade05dbb51d803e8dc8cd0af60d2c019e6f4e0e050dfd27e4022051b96eedc077696a6d326bc8863e746840c58fe17d38ad89e9297a1e0b1f7c1b0121027702153ace512cb6b770c0ed1ca180d77036801ea8d8977f6b0a5ebb4f9abcd6"
          },
          "sequence": 4294967294
        }
      ],
      "vout": [
        {
          "value": 2.78077400,
          "n": 0,
          "scriptPubKey": {
            "asm": "OP_DUP OP_HASH160 7fae5d8d1c0a93abbf08bda86a4196de8fb91ba3 OP_EQUALVERIFY OP_CHECKSIG",
            "hex": "76a9147fae5d8d1c0a93abbf08bda86a4196de8fb91ba388ac",
            "reqSigs": 1,
            "type": "pubkeyhash",
            "addresses": [
              "LWs4xhTAwNnU8zo7u5C3177FH7TXHK8Qud"
            ]
          }
        }, 
        {
          "value": 1.19900000,
          "n": 1,
          "scriptPubKey": {
            "asm": "OP_DUP OP_HASH160 d85ffffc860b9f1cd41df6437d2f4931fc146530 OP_EQUALVERIFY OP_CHECKSIG",
            "hex": "76a914d85ffffc860b9f1cd41df6437d2f4931fc14653088ac",
            "reqSigs": 1,
            "type": "pubkeyhash",
            "addresses": [
              "Lex3DqmWf5b37qxm545rgearsicqvCdDHm"
            ]
          }
        }
      ],
      "hex": "01000000019a7d9b2dd3e152b51f4402262fe04cb1307daca2124db94a926b8443fb898d5d010000006b48304502210098dad80ed5b5118ade05dbb51d803e8dc8cd0af60d2c019e6f4e0e050dfd27e4022051b96eedc077696a6d326bc8863e746840c58fe17d38ad89e9297a1e0b1f7c1b0121027702153ace512cb6b770c0ed1ca180d77036801ea8d8977f6b0a5ebb4f9abcd6feffffff02d81f9310000000001976a9147fae5d8d1c0a93abbf08bda86a4196de8fb91ba388ac60872507000000001976a914d85ffffc860b9f1cd41df6437d2f4931fc14653088acbcbb1400"
    }, 
    {
      "txid": "0e16a785df86a01a053c396ed879f802b26192e5e0cd1cdb78b4da69e6645099",
      "hash": "0e16a785df86a01a053c396ed879f802b26192e5e0cd1cdb78b4da69e6645099",
      "version": 1,
      "size": 226,
      "vsize": 226,
      "locktime": 0,
      "vin": [
        {
          "txid": "aa3e73be40707214d1f337a1df9e5366c75a3e33a40a1ccdcd152d52cac3d941",
          "vout": 0,
          "scriptSig": {
            "asm": "30450221009c3dac56fb1cd570dd510d207915ef5167dab448f921f25538d4eb81e8f434c102201f78d2d8d4f316a25d5c89c71451913025fee636790d9ca40396ecde38d42c6d[ALL] 026178c69772f87c651fa9a1a7500a4ad917d65898d1968ef21a2d3bba923acdeb",
            "hex": "4830450221009c3dac56fb1cd570dd510d207915ef5167dab448f921f25538d4eb81e8f434c102201f78d2d8d4f316a25d5c89c71451913025fee636790d9ca40396ecde38d42c6d0121026178c69772f87c651fa9a1a7500a4ad917d65898d1968ef21a2d3bba923acdeb"
          },
          "sequence": 4294967295
        }
      ],
      "vout": [
        {
          "value": 0.00062323,
          "n": 0,
          "scriptPubKey": {
            "asm": "OP_DUP OP_HASH160 d4cdc324b5a1400befef3e7a650a029cecac087b OP_EQUALVERIFY OP_CHECKSIG",
            "hex": "76a914d4cdc324b5a1400befef3e7a650a029cecac087b88ac",
            "reqSigs": 1,
            "type": "pubkeyhash",
            "addresses": [
              "LedA1Vet7B4wR8Gs4U7iaYLDEH38SjK3X1"
            ]
          }
        }, 
        {
          "value": 0.05458420,
          "n": 1,
          "scriptPubKey": {
            "asm": "OP_DUP OP_HASH160 d4ab9d11b0a8ec1fc6f39d3a2ee8cb4bb4139197 OP_EQUALVERIFY OP_CHECKSIG",
            "hex": "76a914d4ab9d11b0a8ec1fc6f39d3a2ee8cb4bb413919788ac",
            "reqSigs": 1,
            "type": "pubkeyhash",
            "addresses": [
              "LecT6oLEhgMqrDZQCu8fpN17UuoBxaz3m7"
            ]
          }
        }
      ],
      "hex": "010000000141d9c3ca522d15cdcd1c0aa4333e5ac766539edfa137f3d114727040be733eaa000000006b4830450221009c3dac56fb1cd570dd510d207915ef5167dab448f921f25538d4eb81e8f434c102201f78d2d8d4f316a25d5c89c71451913025fee636790d9ca40396ecde38d42c6d0121026178c69772f87c651fa9a1a7500a4ad917d65898d1968ef21a2d3bba923acdebffffffff0273f30000000000001976a914d4cdc324b5a1400befef3e7a650a029cecac087b88acf4495300000000001976a914d4ab9d11b0a8ec1fc6f39d3a2ee8cb4bb413919788ac00000000"
    }, 
    {
      "txid": "454d593fa098738fda9a7d5b39189334aa8618dd2ae6cfebf9a4b2b8c1ca7510",
      "hash": "454d593fa098738fda9a7d5b39189334aa8618dd2ae6cfebf9a4b2b8c1ca7510",
      "version": 1,
      "size": 223,
      "vsize": 223,
      "locktime": 0,
      "vin": [
        {
          "txid": "6ef0e2e54989c6b084cb09a83dc826235d81d043af9c170f78b13eede14e22c7",
          "vout": 3,
          "scriptSig": {
            "asm": "30440220289c4ba53d9b81c29bd66871fcaa1a707d688882a4f35c49588823ffec2cce7402203e99ed55cd694e40254cad148e0df80db99e09eabed40a2d5bf4f6b64a4254b7[ALL] 04dd9f6f021d2dc787b6c87421d146cd82adc8cdf9be90732406a77a9589b49677465f093c7b917241e2b910172021dd3fdec10e33c8acb397c876f092cd6a63a5",
            "hex": "4730440220289c4ba53d9b81c29bd66871fcaa1a707d688882a4f35c49588823ffec2cce7402203e99ed55cd694e40254cad148e0df80db99e09eabed40a2d5bf4f6b64a4254b7014104dd9f6f021d2dc787b6c87421d146cd82adc8cdf9be90732406a77a9589b49677465f093c7b917241e2b910172021dd3fdec10e33c8acb397c876f092cd6a63a5"
          },
          "sequence": 4294967295
        }
      ],
      "vout": [
        {
          "value": 49.99988800,
          "n": 0,
          "scriptPubKey": {
            "asm": "OP_DUP OP_HASH160 1c27f1754cd1a5896d08aadbf0a950268087642c OP_EQUALVERIFY OP_CHECKSIG",
            "hex": "76a9141c27f1754cd1a5896d08aadbf0a950268087642c88ac",
            "reqSigs": 1,
            "type": "pubkeyhash",
            "addresses": [
              "LMnq2tMNwAVSJjxJ3112gpb5o4fizLxjUJ"
            ]
          }
        }
      ],
      "hex": "0100000001c7224ee1ed3eb1780f179caf43d0815d2326c83da809cb84b0c68949e5e2f06e030000008a4730440220289c4ba53d9b81c29bd66871fcaa1a707d688882a4f35c49588823ffec2cce7402203e99ed55cd694e40254cad148e0df80db99e09eabed40a2d5bf4f6b64a4254b7014104dd9f6f021d2dc787b6c87421d146cd82adc8cdf9be90732406a77a9589b49677465f093c7b917241e2b910172021dd3fdec10e33c8acb397c876f092cd6a63a5ffffffff0140c6052a010000001976a9141c27f1754cd1a5896d08aadbf0a950268087642c88ac00000000"
    }, 
    {
      "txid": "1876819d3bfe78b52afeae575f0c3e874aabae1649a0ffcb453a52d1f525ce93",
      "hash": "1876819d3bfe78b52afeae575f0c3e874aabae1649a0ffcb453a52d1f525ce93",
      "version": 1,
      "size": 224,
      "vsize": 224,
      "locktime": 0,
      "vin": [
        {
          "txid": "f74a676e87c74caabdaa08cca3b6cfc36dac63e94d1bc3889f46d1509c2edb33",
          "vout": 0,
          "scriptSig": {
            "asm": "3045022100e52cc8710f53660c6fd940fc242f9bc063ec46022bd74714a11612310ba3cbe502203b49ceaa81ed24ab389437db4f5e9441b7edf1fb3d9bc96c7c1b989a714f7e9d[ALL] 04511a7e362b8e09b15bbb290fc0756f54d4dcfaccedfaf5e3a042a7e7af1619b0e76b5f8e4588f4bbd36660bf310604928f7b7319b3f029b8d39c09bd66595a94",
            "hex": "483045022100e52cc8710f53660c6fd940fc242f9bc063ec46022bd74714a11612310ba3cbe502203b49ceaa81ed24ab389437db4f5e9441b7edf1fb3d9bc96c7c1b989a714f7e9d014104511a7e362b8e09b15bbb290fc0756f54d4dcfaccedfaf5e3a042a7e7af1619b0e76b5f8e4588f4bbd36660bf310604928f7b7319b3f029b8d39c09bd66595a94"
          },
          "sequence": 4294967295
        }
      ],
      "vout": [
        {
          "value": 13.99988800,
          "n": 0,
          "scriptPubKey": {
            "asm": "OP_DUP OP_HASH160 5bb91154770f93ecabf79d47c8b63317bb2eb4d1 OP_EQUALVERIFY OP_CHECKSIG",
            "hex": "76a9145bb91154770f93ecabf79d47c8b63317bb2eb4d188ac",
            "reqSigs": 1,
            "type": "pubkeyhash",
            "addresses": [
              "LTawTQ4gs3W5SwtDwDs4czZM8YBLoFGqsV"
            ]
          }
        }
      ],
      "hex": "010000000133db2e9c50d1469f88c31b4de963ac6dc3cfb6a3cc08aabdaa4cc7876e674af7000000008b483045022100e52cc8710f53660c6fd940fc242f9bc063ec46022bd74714a11612310ba3cbe502203b49ceaa81ed24ab389437db4f5e9441b7edf1fb3d9bc96c7c1b989a714f7e9d014104511a7e362b8e09b15bbb290fc0756f54d4dcfaccedfaf5e3a042a7e7af1619b0e76b5f8e4588f4bbd36660bf310604928f7b7319b3f029b8d39c09bd66595a94ffffffff0140227253000000001976a9145bb91154770f93ecabf79d47c8b63317bb2eb4d188ac00000000"
    }
  ],
  "time": 1517191793,
  "mediantime": 1517191298,
  "nonce": 3551778386,
  "bits": "1a047f14",
  "difficulty": 3731199.183374282,
  "chainwork": "000000000000000000000000000000000000000000000033646cfd763275e866",
  "previousblockhash": "55ce00049a22aa71d45b9d48377b2b1af2ff2057d33f269d2b8df30c2d79e918",
  "nextblockhash": "dad5cbe08c772c8c40b1cf43bd8c65c3a7278a56f3363b4119b1246eee8eab5b"
}
