{
  "hash": "c3744f5c1719d2c73cf7e1a9c1a62837e4845ae64a211cf915c77ce9de0b68d4",
  "confirmations": 151,
  "strippedsize": 266,
  "size": 266,
  "weight": 1064,
  "height": 1360843,
  "version": 536870912,
  "versionHex": "20000000",
  "merkleroot": "58c6689ab361297568606680cfb24c3b4452505211c1b51677ca003b30bff3cb",
  "tx": [
    {
      "txid": "58c6689ab361297568606680cfb24c3b4452505211c1b51677ca003b30bff3cb",
      "hash": "58c6689ab361297568606680cfb24c3b4452505211c1b51677ca003b30bff3cb",
      "version": 1,
      "size": 185,
      "vsize": 185,
      "locktime": 953567002,
      "vin": [
        {
          "coinbase": "03cbc3142cfabe6d6d59868b28c33d8ccdadbb759f885292c5047d47792ba37b0e9c19943df4fe0c0a08000000f09f909f0f4d696e6564206279207379683732380000000000000000000000000000000000000000000000000000000000000000000000",
          "sequence": 551
        }
      ],
      "vout": [
        {
          "value": 25.00000000,
          "n": 0,
          "scriptPubKey": {
            "asm": "OP_DUP OP_HASH160 aa3750aa18b8a0f3f0590731e1fab934856680cf OP_EQUALVERIFY OP_CHECKSIG",
            "hex": "76a914aa3750aa18b8a0f3f0590731e1fab934856680cf88ac",
            "reqSigs": 1,
            "type": "pubkeyhash",
            "addresses": [
              "LajyQBeZaBA1NkZDeY8YT5RYYVRkXMvb2T"
            ]
          }
        }
      ],
      "hex": "01000000010000000000000000000000000000000000000000000000000000000000000000ffffffff6403cbc3142cfabe6d6d59868b28c33d8ccdadbb759f885292c5047d47792ba37b0e9c19943df4fe0c0a08000000f09f909f0f4d696e6564206279207379683732380000000000000000000000000000000000000000000000000000000000000000000000270200000100f90295000000001976a914aa3750aa18b8a0f3f0590731e1fab934856680cf88ac1a47d638"
    }
  ],
  "time": 1517488834,
  "mediantime": 1517487993,
  "nonce": 30436877,
  "bits": "1a04088e",
  "difficulty": 4159490.835685156,
  "chainwork": "000000000000000000000000000000000000000000000035519561dbf9244d00",
  "previousblockhash": "3f93e0edc5d29a4693adccd9bedb69b506b0f1e4216a94c1c548fa27856dbf72",
  "nextblockhash": "0e9a1ab38d35c18dacbdcadf1e28ffd9c48f254c4183647093d1a010236be934"
}
