{
  "hash": "c38a03ed831f7d1a8a9735ed1eb0cc0c3dd67fc14bea1ee086c272d708edfc5f",
  "confirmations": 1759,
  "strippedsize": 3714,
  "size": 3750,
  "weight": 14892,
  "height": 1359235,
  "version": 536870912,
  "versionHex": "20000000",
  "merkleroot": "662c8be33cbac6d51c1d94601d86d85e4a781fc9e73882f3fb8338b4b4cef4fe",
  "tx": [
    {
      "txid": "b9886850981fa45bb4cab9ffff9859e3d64c8ff851eb73c087ef058360ca1359",
      "hash": "03878a788d54bdcd374433e921cfdd37caaf8260ef0b9c36db515f99374831d4",
      "version": 2,
      "size": 234,
      "vsize": 207,
      "locktime": 0,
      "vin": [
        {
          "coinbase": "0383bd14047e7e6f5a2ffabe6d6dc79344cf975994fd48c145c2771a2a927ca523135725fc0551c03f1150dfc0a3010000000000000003043cabd209000000000000",
          "sequence": 4294967295
        }
      ],
      "vout": [
        {
          "value": 25.01382574,
          "n": 0,
          "scriptPubKey": {
            "asm": "OP_DUP OP_HASH160 3d29d474d0a98b5b2669d990d2917780837edf0c OP_EQUALVERIFY OP_CHECKSIG",
            "hex": "76a9143d29d474d0a98b5b2669d990d2917780837edf0c88ac",
            "reqSigs": 1,
            "type": "pubkeyhash",
            "addresses": [
              "LQoMbJnzRK2sDXazJuUNXPTx7FrKKPJgt6"
            ]
          }
        }, 
        {
          "value": 0.00000000,
          "n": 1,
          "scriptPubKey": {
            "asm": "OP_RETURN aa21a9edfc0ec4496370c8ee9edb32a0b3e274fb9cb05a885f48b4cca436f7a1811de2b4",
            "hex": "6a24aa21a9edfc0ec4496370c8ee9edb32a0b3e274fb9cb05a885f48b4cca436f7a1811de2b4",
            "type": "nulldata"
          }
        }
      ],
      "hex": "020000000001010000000000000000000000000000000000000000000000000000000000000000ffffffff420383bd14047e7e6f5a2ffabe6d6dc79344cf975994fd48c145c2771a2a927ca523135725fc0551c03f1150dfc0a3010000000000000003043cabd209000000000000ffffffff02ae111895000000001976a9143d29d474d0a98b5b2669d990d2917780837edf0c88ac0000000000000000266a24aa21a9edfc0ec4496370c8ee9edb32a0b3e274fb9cb05a885f48b4cca436f7a1811de2b40120000000000000000000000000000000000000000000000000000000000000000000000000"
    }, 
    {
      "txid": "8c186246c133a08d1dded0b5c493b05d5157c0c78d287c04ff6da6856fa54db0",
      "hash": "8c186246c133a08d1dded0b5c493b05d5157c0c78d287c04ff6da6856fa54db0",
      "version": 1,
      "size": 964,
      "vsize": 964,
      "locktime": 0,
      "vin": [
        {
          "txid": "dc6b4de29ef99b4da4f069ef7e45f8ec984f417ac06b9ac695c2895e1538a9b0",
          "vout": 0,
          "scriptSig": {
            "asm": "0 3045022100c590a10e9eb6a7b2d492522e10338341fd1f189aa880c3519b6104dbd2212df90220053c2816439dbf0a959598abfe72407f188b53f429c63463d75176213c804227[ALL] 304402202bc63722ddbaca984ad8e60fce3d8a0340bdcecfed561e4857c286b4c9bd027f02201a8285de1e28fe42fffde2910bfc3e8dcc02c78ad212362a462c22a43bb4f566[ALL] 52210312878e1b66d3ec71e26af2d04093fd009b7c2eda8faaedddd0d53adb131b44f02103a0f38b2a842dda5b8a5b590797f3e71d33a99b9cdfccfae1460963067ff8b8f4210392725285afcd307b622aaa8aea73a66213ccf1c0f7920b4eb7c196eae537a08053ae",
            "hex": "00483045022100c590a10e9eb6a7b2d492522e10338341fd1f189aa880c3519b6104dbd2212df90220053c2816439dbf0a959598abfe72407f188b53f429c63463d75176213c8042270147304402202bc63722ddbaca984ad8e60fce3d8a0340bdcecfed561e4857c286b4c9bd027f02201a8285de1e28fe42fffde2910bfc3e8dcc02c78ad212362a462c22a43bb4f566014c6952210312878e1b66d3ec71e26af2d04093fd009b7c2eda8faaedddd0d53adb131b44f02103a0f38b2a842dda5b8a5b590797f3e71d33a99b9cdfccfae1460963067ff8b8f4210392725285afcd307b622aaa8aea73a66213ccf1c0f7920b4eb7c196eae537a08053ae"
          },
          "sequence": 4294967295
        }, 
        {
          "txid": "25be54deede2a303a59b670d9f7a0baff04aeefb82485ec25f68dbeec1099438",
          "vout": 1,
          "scriptSig": {
            "asm": "0 3045022100a871d75bb030f30ad089a50f6a8bd4c49933b76dd324ad6bcab68150840012a302200323aa148429d8fc94a5e6591ffe47c98e673c48756c8a33378b9d2aab88b91f[ALL] 304402207bcc319f5048d663f083a05bf6585091735fdac6cb5ee7949ccb9bdf62c617d70220010dd114173d35c429631a7be4a32552905cd88af3e77159d34565296d6000de[ALL] 522102a932f2e801384318ef77661b999e33ecf60ee51fbd7e3d77570fd97c2ba5f7912103652b539a64885c9a521ca09b37ed162161b41d3daf7beaf2393e8d36108d10cf2103cccb3146639956b945cb60ea70913ee352d41edf1593377790270cc64985351353ae",
            "hex": "00483045022100a871d75bb030f30ad089a50f6a8bd4c49933b76dd324ad6bcab68150840012a302200323aa148429d8fc94a5e6591ffe47c98e673c48756c8a33378b9d2aab88b91f0147304402207bcc319f5048d663f083a05bf6585091735fdac6cb5ee7949ccb9bdf62c617d70220010dd114173d35c429631a7be4a32552905cd88af3e77159d34565296d6000de014c69522102a932f2e801384318ef77661b999e33ecf60ee51fbd7e3d77570fd97c2ba5f7912103652b539a64885c9a521ca09b37ed162161b41d3daf7beaf2393e8d36108d10cf2103cccb3146639956b945cb60ea70913ee352d41edf1593377790270cc64985351353ae"
          },
          "sequence": 4294967295
        }, 
        {
          "txid": "4991519848522d750e5a276150a850f83b02c96231e5388297d89564f3693f9f",
          "vout": 0,
          "scriptSig": {
            "asm": "0 3044022064dc2843cb1872e44f649bc4781e354c8cdb36828dcef4883ac3549f015e2af0022015f41cc5344cc743bf7a9d810595516538df4d2e13f34ff1b7c69c2e81fd7a6a[ALL] 3045022100e8a6fb3d9d6842b1dbde10c657090820f4792c5545f8f1bbee5f0fa2e12336130220079a8c06d59f5d436d6c4921aa9d8d03cc9c940aa63c2fb4a73d94dc8fefc8b1[ALL] 522102c1bc0f16db65d196e140ccd64cac616837902d258039711a7283ac841ec462112102a49e4777f0d650f17df279659758e638fc1b20ae57f69a31aa08d199f4a136322103a46d82899eed4a4cc07c75865d0d4ffe6e60d74f445977b86856b9f68517a87b53ae",
            "hex": "00473044022064dc2843cb1872e44f649bc4781e354c8cdb36828dcef4883ac3549f015e2af0022015f41cc5344cc743bf7a9d810595516538df4d2e13f34ff1b7c69c2e81fd7a6a01483045022100e8a6fb3d9d6842b1dbde10c657090820f4792c5545f8f1bbee5f0fa2e12336130220079a8c06d59f5d436d6c4921aa9d8d03cc9c940aa63c2fb4a73d94dc8fefc8b1014c69522102c1bc0f16db65d196e140ccd64cac616837902d258039711a7283ac841ec462112102a49e4777f0d650f17df279659758e638fc1b20ae57f69a31aa08d199f4a136322103a46d82899eed4a4cc07c75865d0d4ffe6e60d74f445977b86856b9f68517a87b53ae"
          },
          "sequence": 4294967295
        }
      ],
      "vout": [
        {
          "value": 1.00197227,
          "n": 0,
          "scriptPubKey": {
            "asm": "OP_DUP OP_HASH160 8ef9ee5226287886943b5aaf98c12c44bded20f8 OP_EQUALVERIFY OP_CHECKSIG",
            "hex": "76a9148ef9ee5226287886943b5aaf98c12c44bded20f888ac",
            "reqSigs": 1,
            "type": "pubkeyhash",
            "addresses": [
              "LYFwcxaqVyyZ6VFra99pw3aT2Gb7LfHwWa"
            ]
          }
        }, 
        {
          "value": 0.76845572,
          "n": 1,
          "scriptPubKey": {
            "asm": "OP_HASH160 15b7b5d5023a6bd632f7dcb485792b4f1a09faa0 OP_EQUAL",
            "hex": "a91415b7b5d5023a6bd632f7dcb485792b4f1a09faa087",
            "reqSigs": 1,
            "type": "scripthash",
            "addresses": [
              "M9szVsaDoQzpTYeHWD6Y5JpUCsLJCjFQva"
            ]
          }
        }
      ],
      "hex": "0100000003b0a938155e89c295c69a6bc07a414f98ecf8457eef69f0a44d9bf99ee24d6bdc00000000fdfd0000483045022100c590a10e9eb6a7b2d492522e10338341fd1f189aa880c3519b6104dbd2212df90220053c2816439dbf0a959598abfe72407f188b53f429c63463d75176213c8042270147304402202bc63722ddbaca984ad8e60fce3d8a0340bdcecfed561e4857c286b4c9bd027f02201a8285de1e28fe42fffde2910bfc3e8dcc02c78ad212362a462c22a43bb4f566014c6952210312878e1b66d3ec71e26af2d04093fd009b7c2eda8faaedddd0d53adb131b44f02103a0f38b2a842dda5b8a5b590797f3e71d33a99b9cdfccfae1460963067ff8b8f4210392725285afcd307b622aaa8aea73a66213ccf1c0f7920b4eb7c196eae537a08053aeffffffff389409c1eedb685fc25e4882fbee4af0af0b7a9f0d679ba503a3e2edde54be2501000000fdfd0000483045022100a871d75bb030f30ad089a50f6a8bd4c49933b76dd324ad6bcab68150840012a302200323aa148429d8fc94a5e6591ffe47c98e673c48756c8a33378b9d2aab88b91f0147304402207bcc319f5048d663f083a05bf6585091735fdac6cb5ee7949ccb9bdf62c617d70220010dd114173d35c429631a7be4a32552905cd88af3e77159d34565296d6000de014c69522102a932f2e801384318ef77661b999e33ecf60ee51fbd7e3d77570fd97c2ba5f7912103652b539a64885c9a521ca09b37ed162161b41d3daf7beaf2393e8d36108d10cf2103cccb3146639956b945cb60ea70913ee352d41edf1593377790270cc64985351353aeffffffff9f3f69f36495d8978238e53162c9023bf850a85061275a0e752d52489851914900000000fdfd0000473044022064dc2843cb1872e44f649bc4781e354c8cdb36828dcef4883ac3549f015e2af0022015f41cc5344cc743bf7a9d810595516538df4d2e13f34ff1b7c69c2e81fd7a6a01483045022100e8a6fb3d9d6842b1dbde10c657090820f4792c5545f8f1bbee5f0fa2e12336130220079a8c06d59f5d436d6c4921aa9d8d03cc9c940aa63c2fb4a73d94dc8fefc8b1014c69522102c1bc0f16db65d196e140ccd64cac616837902d258039711a7283ac841ec462112102a49e4777f0d650f17df279659758e638fc1b20ae57f69a31aa08d199f4a136322103a46d82899eed4a4cc07c75865d0d4ffe6e60d74f445977b86856b9f68517a87b53aeffffffff026be3f805000000001976a9148ef9ee5226287886943b5aaf98c12c44bded20f888ac049294040000000017a91415b7b5d5023a6bd632f7dcb485792b4f1a09faa08700000000"
    }, 
    {
      "txid": "1bb36887b91fc06a3eb3b835ff321cc4ffb5d5f935e77d4e4140a2f2b46e901f",
      "hash": "1bb36887b91fc06a3eb3b835ff321cc4ffb5d5f935e77d4e4140a2f2b46e901f",
      "version": 2,
      "size": 225,
      "vsize": 225,
      "locktime": 1359194,
      "vin": [
        {
          "txid": "31f47c274e27459d12e282f955221fd54c9d74224a7bf16ab288a096fc57dcee",
          "vout": 0,
          "scriptSig": {
            "asm": "304402204fea05700693867c3428cd719105c3c424ff29223dd1c8a87d8bb0112d7136ac022040b5a40c35e37a5f42da62ecee1cedc791d559fb86bc0fbee701981de31ff26d[ALL] 02930d68c95f6dcfe840bc9581f8ad4e5317986438de38e63257ecd267eb0bc9fa",
            "hex": "47304402204fea05700693867c3428cd719105c3c424ff29223dd1c8a87d8bb0112d7136ac022040b5a40c35e37a5f42da62ecee1cedc791d559fb86bc0fbee701981de31ff26d012102930d68c95f6dcfe840bc9581f8ad4e5317986438de38e63257ecd267eb0bc9fa"
          },
          "sequence": 4294967294
        }
      ],
      "vout": [
        {
          "value": 0.01139265,
          "n": 0,
          "scriptPubKey": {
            "asm": "OP_DUP OP_HASH160 019daea1a5f80b98a4f000187d69c7f8e8457233 OP_EQUALVERIFY OP_CHECKSIG",
            "hex": "76a914019daea1a5f80b98a4f000187d69c7f8e845723388ac",
            "reqSigs": 1,
            "type": "pubkeyhash",
            "addresses": [
              "LKNVqMRfw9x231643s2tq7E6JyzprAbMcv"
            ]
          }
        }, 
        {
          "value": 0.52326906,
          "n": 1,
          "scriptPubKey": {
            "asm": "OP_DUP OP_HASH160 53e520ed66dc1bc1908c9850b466d695f2268cf6 OP_EQUALVERIFY OP_CHECKSIG",
            "hex": "76a91453e520ed66dc1bc1908c9850b466d695f2268cf688ac",
            "reqSigs": 1,
            "type": "pubkeyhash",
            "addresses": [
              "LSsYqGeyTG8RbJegnbmxyLSJcLAyYpWu66"
            ]
          }
        }
      ],
      "hex": "0200000001eedc57fc96a088b26af17b4a22749d4cd51f2255f982e2129d45274e277cf431000000006a47304402204fea05700693867c3428cd719105c3c424ff29223dd1c8a87d8bb0112d7136ac022040b5a40c35e37a5f42da62ecee1cedc791d559fb86bc0fbee701981de31ff26d012102930d68c95f6dcfe840bc9581f8ad4e5317986438de38e63257ecd267eb0bc9fafeffffff0241621100000000001976a914019daea1a5f80b98a4f000187d69c7f8e845723388acfa711e03000000001976a91453e520ed66dc1bc1908c9850b466d695f2268cf688ac5abd1400"
    }, 
    {
      "txid": "2115ba54436356397d2a73a42f4142fe481a32126c97cffd0046cf1bc490bec4",
      "hash": "2115ba54436356397d2a73a42f4142fe481a32126c97cffd0046cf1bc490bec4",
      "version": 1,
      "size": 374,
      "vsize": 374,
      "locktime": 0,
      "vin": [
        {
          "txid": "0e342dd7c75cfb6b17a768988c074d8a53a7238a310cb8cda390229e189ce313",
          "vout": 1,
          "scriptSig": {
            "asm": "3045022100f9ece706cf1a66d0c8020afc0e90b92e527bcdc226a23162c127f96beebf4f20022020fd8233342342c044e63c99db532b4df5fd2e3df7d2e5b52cd3e2a4fa9a70bc[ALL] 03eef578e7f06a307b090d7b4efc0546d670a6181e58a3a2017944199dc82c9fc9",
            "hex": "483045022100f9ece706cf1a66d0c8020afc0e90b92e527bcdc226a23162c127f96beebf4f20022020fd8233342342c044e63c99db532b4df5fd2e3df7d2e5b52cd3e2a4fa9a70bc012103eef578e7f06a307b090d7b4efc0546d670a6181e58a3a2017944199dc82c9fc9"
          },
          "sequence": 4294967295
        }, 
        {
          "txid": "9f5103e12de4a3c90297e6b188bff2977a4b0087b44fc5870880665596177166",
          "vout": 0,
          "scriptSig": {
            "asm": "30450221009c12d5cc4aff40a448166fbcce7a442e42e2715b04facf28cc61ee1d5dba4614022018c582553471d9829221f808216e5d61771d3818f343a4d4c36586ebf1bc17b4[ALL] 03540a086e9a2a52977f0e4a32399b8ec2a40859fb745ba7b041dd06c4f4fb20d4",
            "hex": "4830450221009c12d5cc4aff40a448166fbcce7a442e42e2715b04facf28cc61ee1d5dba4614022018c582553471d9829221f808216e5d61771d3818f343a4d4c36586ebf1bc17b4012103540a086e9a2a52977f0e4a32399b8ec2a40859fb745ba7b041dd06c4f4fb20d4"
          },
          "sequence": 4294967295
        }
      ],
      "vout": [
        {
          "value": 3.90000000,
          "n": 0,
          "scriptPubKey": {
            "asm": "OP_DUP OP_HASH160 00e31f4459a95aa6744f722c7ba06047731cbbe4 OP_EQUALVERIFY OP_CHECKSIG",
            "hex": "76a91400e31f4459a95aa6744f722c7ba06047731cbbe488ac",
            "reqSigs": 1,
            "type": "pubkeyhash",
            "addresses": [
              "LKJeLwE2sBvMw8hsLJdzjnEbthCwSgrsU2"
            ]
          }
        }, 
        {
          "value": 3.59124086,
          "n": 1,
          "scriptPubKey": {
            "asm": "OP_DUP OP_HASH160 317cc70eb42928faca7453457745add7539d7317 OP_EQUALVERIFY OP_CHECKSIG",
            "hex": "76a914317cc70eb42928faca7453457745add7539d731788ac",
            "reqSigs": 1,
            "type": "pubkeyhash",
            "addresses": [
              "LPjcrJwWyzon4Fc5BidKfjekS5rKk7c6SP"
            ]
          }
        }
      ],
      "hex": "010000000213e39c189e2290a3cdb80c318a23a7538a4d078c9868a7176bfb5cc7d72d340e010000006b483045022100f9ece706cf1a66d0c8020afc0e90b92e527bcdc226a23162c127f96beebf4f20022020fd8233342342c044e63c99db532b4df5fd2e3df7d2e5b52cd3e2a4fa9a70bc012103eef578e7f06a307b090d7b4efc0546d670a6181e58a3a2017944199dc82c9fc9ffffffff667117965566800887c54fb487004b7a97f2bf88b1e69702c9a3e42de103519f000000006b4830450221009c12d5cc4aff40a448166fbcce7a442e42e2715b04facf28cc61ee1d5dba4614022018c582553471d9829221f808216e5d61771d3818f343a4d4c36586ebf1bc17b4012103540a086e9a2a52977f0e4a32399b8ec2a40859fb745ba7b041dd06c4f4fb20d4ffffffff0280ed3e17000000001976a91400e31f4459a95aa6744f722c7ba06047731cbbe488ac76cc6715000000001976a914317cc70eb42928faca7453457745add7539d731788ac00000000"
    }, 
    {
      "txid": "ddda9cc5e94d985bb38d39b2f6a55ab75cff255c8a94dde98e93da188b66f63d",
      "hash": "ddda9cc5e94d985bb38d39b2f6a55ab75cff255c8a94dde98e93da188b66f63d",
      "version": 1,
      "size": 225,
      "vsize": 225,
      "locktime": 1359233,
      "vin": [
        {
          "txid": "1bb7aa0c7650429db607904c967672fd30e8c797a92a133e37c9c69ada950517",
          "vout": 0,
          "scriptSig": {
            "asm": "30440220618773f56ac8e01193738c9444ce30269ea17c3a4dcb4901d445713df44dc76e022034fa270d036ceabecf660139708a4b7a7ba453b4f66435748ca083c81c4a9cda[ALL] 02a0d052ec6b42939a49ce8f8d134a767a3386868df78bb11d62661905ac928a92",
            "hex": "4730440220618773f56ac8e01193738c9444ce30269ea17c3a4dcb4901d445713df44dc76e022034fa270d036ceabecf660139708a4b7a7ba453b4f66435748ca083c81c4a9cda012102a0d052ec6b42939a49ce8f8d134a767a3386868df78bb11d62661905ac928a92"
          },
          "sequence": 4294967294
        }
      ],
      "vout": [
        {
          "value": 0.01004869,
          "n": 0,
          "scriptPubKey": {
            "asm": "OP_DUP OP_HASH160 e6a9ee6d0054f980582701984401dd202bfabb2b OP_EQUALVERIFY OP_CHECKSIG",
            "hex": "76a914e6a9ee6d0054f980582701984401dd202bfabb2b88ac",
            "reqSigs": 1,
            "type": "pubkeyhash",
            "addresses": [
              "LgFbFNV8tgoj8Usge8ATu58EbVc1UBSabn"
            ]
          }
        }, 
        {
          "value": 0.36756858,
          "n": 1,
          "scriptPubKey": {
            "asm": "OP_DUP OP_HASH160 8358e1e4d1b63c82cde9ae1035fff7dab80e894b OP_EQUALVERIFY OP_CHECKSIG",
            "hex": "76a9148358e1e4d1b63c82cde9ae1035fff7dab80e894b88ac",
            "reqSigs": 1,
            "type": "pubkeyhash",
            "addresses": [
              "LXCTFzxTUv5VTVcagBhEL7qjT3VVtJuTsN"
            ]
          }
        }
      ],
      "hex": "0100000001170595da9ac6c9373e132aa997c7e830fd7276964c9007b69d4250760caab71b000000006a4730440220618773f56ac8e01193738c9444ce30269ea17c3a4dcb4901d445713df44dc76e022034fa270d036ceabecf660139708a4b7a7ba453b4f66435748ca083c81c4a9cda012102a0d052ec6b42939a49ce8f8d134a767a3386868df78bb11d62661905ac928a92feffffff0245550f00000000001976a914e6a9ee6d0054f980582701984401dd202bfabb2b88ac7add3002000000001976a9148358e1e4d1b63c82cde9ae1035fff7dab80e894b88ac81bd1400"
    }, 
    {
      "txid": "4152788acdc029d5e993bf9a2e579318cdef3524842618480ddb2190248de352",
      "hash": "4152788acdc029d5e993bf9a2e579318cdef3524842618480ddb2190248de352",
      "version": 2,
      "size": 225,
      "vsize": 225,
      "locktime": 1359233,
      "vin": [
        {
          "txid": "a745f4c6333dd69dafc1b11396350333b40eef7a6aa236caf460c4973136e430",
          "vout": 1,
          "scriptSig": {
            "asm": "30440220625d500b24f5dc3c730aea5488c5d4fe07875853aa67b51ee81f2d49d06466dd02201c1c1ef6dd82edd105fb5138830d8eeb7e3f27a0f20f888d1da858ba342064fe[ALL] 032e0da4082e02c396dd0d9a9d1d1607ba096f081c6bf60e80d67aaba209e8fa44",
            "hex": "4730440220625d500b24f5dc3c730aea5488c5d4fe07875853aa67b51ee81f2d49d06466dd02201c1c1ef6dd82edd105fb5138830d8eeb7e3f27a0f20f888d1da858ba342064fe0121032e0da4082e02c396dd0d9a9d1d1607ba096f081c6bf60e80d67aaba209e8fa44"
          },
          "sequence": 4294967294
        }
      ],
      "vout": [
        {
          "value": 2.17485471,
          "n": 0,
          "scriptPubKey": {
            "asm": "OP_DUP OP_HASH160 32f2829760916261d3715e145f73a502f721e0e9 OP_EQUALVERIFY OP_CHECKSIG",
            "hex": "76a91432f2829760916261d3715e145f73a502f721e0e988ac",
            "reqSigs": 1,
            "type": "pubkeyhash",
            "addresses": [
              "LPsLZhjvjq65eCgeSu5YJsxTScmC9MTC49"
            ]
          }
        }, 
        {
          "value": 101.26182324,
          "n": 1,
          "scriptPubKey": {
            "asm": "OP_DUP OP_HASH160 00af36415ac61915ce7a1a62f4b048cfd7925acd OP_EQUALVERIFY OP_CHECKSIG",
            "hex": "76a91400af36415ac61915ce7a1a62f4b048cfd7925acd88ac",
            "reqSigs": 1,
            "type": "pubkeyhash",
            "addresses": [
              "LKHaA9kShLVyTPmrFKM4Liokjm2FX9t26d"
            ]
          }
        }
      ],
      "hex": "020000000130e4363197c460f4ca36a26a7aef0eb43303359613b1c1af9dd63d33c6f445a7010000006a4730440220625d500b24f5dc3c730aea5488c5d4fe07875853aa67b51ee81f2d49d06466dd02201c1c1ef6dd82edd105fb5138830d8eeb7e3f27a0f20f888d1da858ba342064fe0121032e0da4082e02c396dd0d9a9d1d1607ba096f081c6bf60e80d67aaba209e8fa44feffffff029f90f60c000000001976a91432f2829760916261d3715e145f73a502f721e0e988acb447915b020000001976a91400af36415ac61915ce7a1a62f4b048cfd7925acd88ac81bd1400"
    }, 
    {
      "txid": "d8d3cf628331e20bd7953df67bb4746485277a70f4b63762b3bb3df6cf0cef4c",
      "hash": "d8d3cf628331e20bd7953df67bb4746485277a70f4b63762b3bb3df6cf0cef4c",
      "version": 1,
      "size": 372,
      "vsize": 372,
      "locktime": 1359233,
      "vin": [
        {
          "txid": "8dda5418e0506a82e6d7ef9480ed3c53f80fb9ececff6c3f424913ee91ffe05a",
          "vout": 0,
          "scriptSig": {
            "asm": "30440220205d17f1c46ab0fad54af378d247b232a3c900942afae4f9c701390c12c110b0022009299defbb416dddfb2df7dfb1eaceb895509efb1524334f5018e91b5f4a23b4[ALL] 02bfece7773a4eba635327bda4470d68f72bdeac946fccf717ddb0b6e0a2b3d5de",
            "hex": "4730440220205d17f1c46ab0fad54af378d247b232a3c900942afae4f9c701390c12c110b0022009299defbb416dddfb2df7dfb1eaceb895509efb1524334f5018e91b5f4a23b4012102bfece7773a4eba635327bda4470d68f72bdeac946fccf717ddb0b6e0a2b3d5de"
          },
          "sequence": 4294967294
        }, 
        {
          "txid": "e995e4295ac99a6631137cb810fa40b9ddffb4bf7a870ee7199802b6c49e06be",
          "vout": 1,
          "scriptSig": {
            "asm": "304402203c37ed4c6877313c8fe8b5fdbe9fb5afd203980074466ffd97cab47c32e6cc43022041546699a7602ddee6e777215dcd97d35ed1aae736c689e522cc67f7da3cd629[ALL] 038f90b8b5a19cf6d574b1f45c8c2d75f58f23869e5bb1e79042f365bcee3b6e97",
            "hex": "47304402203c37ed4c6877313c8fe8b5fdbe9fb5afd203980074466ffd97cab47c32e6cc43022041546699a7602ddee6e777215dcd97d35ed1aae736c689e522cc67f7da3cd6290121038f90b8b5a19cf6d574b1f45c8c2d75f58f23869e5bb1e79042f365bcee3b6e97"
          },
          "sequence": 4294967294
        }
      ],
      "vout": [
        {
          "value": 0.00427548,
          "n": 0,
          "scriptPubKey": {
            "asm": "OP_DUP OP_HASH160 39675581c67ec2377f55260b721dcb1fdd2857f2 OP_EQUALVERIFY OP_CHECKSIG",
            "hex": "76a91439675581c67ec2377f55260b721dcb1fdd2857f288ac",
            "reqSigs": 1,
            "type": "pubkeyhash",
            "addresses": [
              "LQTUZvLFmxor7BdEG7WbmSNyHu2Xys6rEx"
            ]
          }
        }, 
        {
          "value": 0.01067831,
          "n": 1,
          "scriptPubKey": {
            "asm": "OP_DUP OP_HASH160 f77b2a3bf0f0b626dd6bd5ceb0aa4a8a5ec70cce OP_EQUALVERIFY OP_CHECKSIG",
            "hex": "76a914f77b2a3bf0f0b626dd6bd5ceb0aa4a8a5ec70cce88ac",
            "reqSigs": 1,
            "type": "pubkeyhash",
            "addresses": [
              "LhnWiFKjHsPFHxn8ZMGPr3hPbbEet6eHYu"
            ]
          }
        }
      ],
      "hex": "01000000025ae0ff91ee1349423f6cffececb90ff8533ced8094efd7e6826a50e01854da8d000000006a4730440220205d17f1c46ab0fad54af378d247b232a3c900942afae4f9c701390c12c110b0022009299defbb416dddfb2df7dfb1eaceb895509efb1524334f5018e91b5f4a23b4012102bfece7773a4eba635327bda4470d68f72bdeac946fccf717ddb0b6e0a2b3d5defeffffffbe069ec4b6029819e70e877abfb4ffddb940fa10b87c1331669ac95a29e495e9010000006a47304402203c37ed4c6877313c8fe8b5fdbe9fb5afd203980074466ffd97cab47c32e6cc43022041546699a7602ddee6e777215dcd97d35ed1aae736c689e522cc67f7da3cd6290121038f90b8b5a19cf6d574b1f45c8c2d75f58f23869e5bb1e79042f365bcee3b6e97feffffff021c860600000000001976a91439675581c67ec2377f55260b721dcb1fdd2857f288ac374b1000000000001976a914f77b2a3bf0f0b626dd6bd5ceb0aa4a8a5ec70cce88ac81bd1400"
    }, 
    {
      "txid": "c3204d4cd1e33e9a186d964078803a143205e4a52c8d4ebbbe94a8c102c7eabc",
      "hash": "c3204d4cd1e33e9a186d964078803a143205e4a52c8d4ebbbe94a8c102c7eabc",
      "version": 1,
      "size": 372,
      "vsize": 372,
      "locktime": 1359233,
      "vin": [
        {
          "txid": "319e4bbb9ad6e64bcf0e095ee690e2180236719370f7b5dcca1f516bb3ba5ae4",
          "vout": 0,
          "scriptSig": {
            "asm": "30440220158c02147cefcc12087d37a2d3e61915330dffec442d11bfe63a02e2595f163d02207d640761e44498b2b26f46cbf4c8d961e83144266bd40e259b4cbc6be923c9b3[ALL] 03eeb50dcb8dd733027998ad4fc41ef81ec9b708132272ef7cde29dfb8a8e1688d",
            "hex": "4730440220158c02147cefcc12087d37a2d3e61915330dffec442d11bfe63a02e2595f163d02207d640761e44498b2b26f46cbf4c8d961e83144266bd40e259b4cbc6be923c9b3012103eeb50dcb8dd733027998ad4fc41ef81ec9b708132272ef7cde29dfb8a8e1688d"
          },
          "sequence": 4294967294
        }, 
        {
          "txid": "bf0c009b21c182d0a7286a98c7d476a7074022a59614c687a289c55487f3a21e",
          "vout": 0,
          "scriptSig": {
            "asm": "304402201a8ffccc28543caae65f530a0e8da7ebb85a8dfed7cca4ae6f81c246a624ee2502206f971b127e373537355018d697c30106b386e4acf2e84feb218e58df80ff96c6[ALL] 02421088c1212c959bf88bc68bf6c3011ff18d9f7ebc1c248617dd28f35b037917",
            "hex": "47304402201a8ffccc28543caae65f530a0e8da7ebb85a8dfed7cca4ae6f81c246a624ee2502206f971b127e373537355018d697c30106b386e4acf2e84feb218e58df80ff96c6012102421088c1212c959bf88bc68bf6c3011ff18d9f7ebc1c248617dd28f35b037917"
          },
          "sequence": 4294967294
        }
      ],
      "vout": [
        {
          "value": 0.01002235,
          "n": 0,
          "scriptPubKey": {
            "asm": "OP_DUP OP_HASH160 fda10a8b334c738e32d9c7897b16f9e2c5b49a8b OP_EQUALVERIFY OP_CHECKSIG",
            "hex": "76a914fda10a8b334c738e32d9c7897b16f9e2c5b49a8b88ac",
            "reqSigs": 1,
            "type": "pubkeyhash",
            "addresses": [
              "LiM295pXpydyt4ahLxEYJeevpLtm2e6LSv"
            ]
          }
        }, 
        {
          "value": 1.98338451,
          "n": 1,
          "scriptPubKey": {
            "asm": "OP_DUP OP_HASH160 b160acf637a04f5c571c38f88510c0d9219304e1 OP_EQUALVERIFY OP_CHECKSIG",
            "hex": "76a914b160acf637a04f5c571c38f88510c0d9219304e188ac",
            "reqSigs": 1,
            "type": "pubkeyhash",
            "addresses": [
              "LbPqgJoF7J1RRxYy5kWEUTZfT3xgfphEqU"
            ]
          }
        }
      ],
      "hex": "0100000002e45abab36b511fcadcb5f7709371360218e290e65e090ecf4be6d69abb4b9e31000000006a4730440220158c02147cefcc12087d37a2d3e61915330dffec442d11bfe63a02e2595f163d02207d640761e44498b2b26f46cbf4c8d961e83144266bd40e259b4cbc6be923c9b3012103eeb50dcb8dd733027998ad4fc41ef81ec9b708132272ef7cde29dfb8a8e1688dfeffffff1ea2f38754c589a287c61496a5224007a776d4c7986a28a7d082c1219b000cbf000000006a47304402201a8ffccc28543caae65f530a0e8da7ebb85a8dfed7cca4ae6f81c246a624ee2502206f971b127e373537355018d697c30106b386e4acf2e84feb218e58df80ff96c6012102421088c1212c959bf88bc68bf6c3011ff18d9f7ebc1c248617dd28f35b037917feffffff02fb4a0f00000000001976a914fda10a8b334c738e32d9c7897b16f9e2c5b49a8b88ac9367d20b000000001976a914b160acf637a04f5c571c38f88510c0d9219304e188ac81bd1400"
    }, 
    {
      "txid": "c68ca7c0e46b5de6705ce0a667b662c37936814b9b350741318d74fbafca1b51",
      "hash": "c68ca7c0e46b5de6705ce0a667b662c37936814b9b350741318d74fbafca1b51",
      "version": 2,
      "size": 226,
      "vsize": 226,
      "locktime": 1359233,
      "vin": [
        {
          "txid": "a1652b93db6bb738c82d0abc94e519206c683800de8d67a952a4036419eaacf7",
          "vout": 401,
          "scriptSig": {
            "asm": "3045022100e08ef88f4eb4b25aab7aa6a7737efb304ba6638ddafb8803b81c7681acb2f6ab02202ef625f8ff7cea9754c6d45c02ca48ecdeae4a844139a49ce21ddd62c56c7948[ALL] 0277b5367ec0b9a162acc3b255076dac9cdf5f234eb5f979a1517a67caebde1b99",
            "hex": "483045022100e08ef88f4eb4b25aab7aa6a7737efb304ba6638ddafb8803b81c7681acb2f6ab02202ef625f8ff7cea9754c6d45c02ca48ecdeae4a844139a49ce21ddd62c56c794801210277b5367ec0b9a162acc3b255076dac9cdf5f234eb5f979a1517a67caebde1b99"
          },
          "sequence": 4294967294
        }
      ],
      "vout": [
        {
          "value": 0.10433788,
          "n": 0,
          "scriptPubKey": {
            "asm": "OP_DUP OP_HASH160 d25bd79568dc174cd449e271f69ed9755d42ad04 OP_EQUALVERIFY OP_CHECKSIG",
            "hex": "76a914d25bd79568dc174cd449e271f69ed9755d42ad0488ac",
            "reqSigs": 1,
            "type": "pubkeyhash",
            "addresses": [
              "LeQEBoMWm9E213HM1PVe37wwuowgaCjSz4"
            ]
          }
        }, 
        {
          "value": 0.01287886,
          "n": 1,
          "scriptPubKey": {
            "asm": "OP_DUP OP_HASH160 7f88303ef4cf103d5f71233525a31f134911b9d0 OP_EQUALVERIFY OP_CHECKSIG",
            "hex": "76a9147f88303ef4cf103d5f71233525a31f134911b9d088ac",
            "reqSigs": 1,
            "type": "pubkeyhash",
            "addresses": [
              "LWrHE7fAk4tiYBxpPDxsawaLKM7WjiyAiC"
            ]
          }
        }
      ],
      "hex": "0200000001f7acea196403a452a9678dde0038686c2019e594bc0a2dc838b76bdb932b65a1910100006b483045022100e08ef88f4eb4b25aab7aa6a7737efb304ba6638ddafb8803b81c7681acb2f6ab02202ef625f8ff7cea9754c6d45c02ca48ecdeae4a844139a49ce21ddd62c56c794801210277b5367ec0b9a162acc3b255076dac9cdf5f234eb5f979a1517a67caebde1b99feffffff02fc349f00000000001976a914d25bd79568dc174cd449e271f69ed9755d42ad0488accea61300000000001976a9147f88303ef4cf103d5f71233525a31f134911b9d088ac81bd1400"
    }, 
    {
      "txid": "a6fc2eb4362ec4b9e4d28fcc3a0ed3bb64ff21f6e4b126d045f56081fa9d4b8a",
      "hash": "a6fc2eb4362ec4b9e4d28fcc3a0ed3bb64ff21f6e4b126d045f56081fa9d4b8a",
      "version": 2,
      "size": 226,
      "vsize": 226,
      "locktime": 1359233,
      "vin": [
        {
          "txid": "e3fc55d8d352f2d89a2cb5ca4e7cf7a0b6a4ae131ad00b4e70654efc79d55209",
          "vout": 0,
          "scriptSig": {
            "asm": "3045022100cf2a3550acafb231e0adbfbe161cd558bb2f649ab0f7e98318340e6176de41710220339066364ec36a6752ef1badb40f5c4459f4640f82bdf92da87d001b8d01798b[ALL] 03857fe1c69abb9b8fb4a49c6a3442560eb4ff8cddd41003a0cecf032a08782495",
            "hex": "483045022100cf2a3550acafb231e0adbfbe161cd558bb2f649ab0f7e98318340e6176de41710220339066364ec36a6752ef1badb40f5c4459f4640f82bdf92da87d001b8d01798b012103857fe1c69abb9b8fb4a49c6a3442560eb4ff8cddd41003a0cecf032a08782495"
          },
          "sequence": 4294967294
        }
      ],
      "vout": [
        {
          "value": 3.98509100,
          "n": 0,
          "scriptPubKey": {
            "asm": "OP_DUP OP_HASH160 efb11b9237e8c6dcf40942f7cc98d18cc9a589d3 OP_EQUALVERIFY OP_CHECKSIG",
            "hex": "76a914efb11b9237e8c6dcf40942f7cc98d18cc9a589d388ac",
            "reqSigs": 1,
            "type": "pubkeyhash",
            "addresses": [
              "Lh5KvifeknPEXz4mReR92oYBuHaboZ2auw"
            ]
          }
        }, 
        {
          "value": 0.66391200,
          "n": 1,
          "scriptPubKey": {
            "asm": "OP_DUP OP_HASH160 9cd1ea2d194964eb838a1cd412e80885fbe9c301 OP_EQUALVERIFY OP_CHECKSIG",
            "hex": "76a9149cd1ea2d194964eb838a1cd412e80885fbe9c30188ac",
            "reqSigs": 1,
            "type": "pubkeyhash",
            "addresses": [
              "LZX99GgL5wSdh2QwzWcKqR8xuWsQk5zKjo"
            ]
          }
        }
      ],
      "hex": "02000000010952d579fc4e65704e0bd01a13aea4b6a0f77c4ecab52c9ad8f252d3d855fce3000000006b483045022100cf2a3550acafb231e0adbfbe161cd558bb2f649ab0f7e98318340e6176de41710220339066364ec36a6752ef1badb40f5c4459f4640f82bdf92da87d001b8d01798b012103857fe1c69abb9b8fb4a49c6a3442560eb4ff8cddd41003a0cecf032a08782495feffffff022cc4c017000000001976a914efb11b9237e8c6dcf40942f7cc98d18cc9a589d388aca00cf503000000001976a9149cd1ea2d194964eb838a1cd412e80885fbe9c30188ac81bd1400"
    }, 
    {
      "txid": "f821a64107aefce290c62a333d51530bfaf8784c2dfe26bd42fafa9c2ccc36bb",
      "hash": "f821a64107aefce290c62a333d51530bfaf8784c2dfe26bd42fafa9c2ccc36bb",
      "version": 1,
      "size": 226,
      "vsize": 226,
      "locktime": 0,
      "vin": [
        {
          "txid": "364bdf472493463008b12958fdac451ae96cb7838e58f21e8fe10f3c914227f1",
          "vout": 0,
          "scriptSig": {
            "asm": "3045022100ff92fc152c5ad665038fedfe52ccbe76a936058cad5cc1fdeb8940d2ce24afa802200fee403ef067f2df05d272dba6f1eccf3a861d4f1bf141ceed6e88d79eb0767e[ALL] 03da64501b34d9497758a4a60a892827330f4195e5d6f03fbc6c757424b186b876",
            "hex": "483045022100ff92fc152c5ad665038fedfe52ccbe76a936058cad5cc1fdeb8940d2ce24afa802200fee403ef067f2df05d272dba6f1eccf3a861d4f1bf141ceed6e88d79eb0767e012103da64501b34d9497758a4a60a892827330f4195e5d6f03fbc6c757424b186b876"
          },
          "sequence": 4294967295
        }
      ],
      "vout": [
        {
          "value": 70.82298457,
          "n": 0,
          "scriptPubKey": {
            "asm": "OP_DUP OP_HASH160 1495581fa10e757ec1a4300064a49831b700a1ea OP_EQUALVERIFY OP_CHECKSIG",
            "hex": "76a9141495581fa10e757ec1a4300064a49831b700a1ea88ac",
            "reqSigs": 1,
            "type": "pubkeyhash",
            "addresses": [
              "LM6ngfkAAvKng6cpbR1vXUtE79P6mZ6sBk"
            ]
          }
        }, 
        {
          "value": 0.99977400,
          "n": 1,
          "scriptPubKey": {
            "asm": "OP_DUP OP_HASH160 07c1ea15d1ed00046102f08dcfbf0e1b225bd86d OP_EQUALVERIFY OP_CHECKSIG",
            "hex": "76a91407c1ea15d1ed00046102f08dcfbf0e1b225bd86d88ac",
            "reqSigs": 1,
            "type": "pubkeyhash",
            "addresses": [
              "LKvyHxsupBirVeMYaeCazp9ZtYUbR9FHuT"
            ]
          }
        }
      ],
      "hex": "0100000001f12742913c0fe18f1ef2588e83b76ce91a45acfd5829b1083046932447df4b36000000006b483045022100ff92fc152c5ad665038fedfe52ccbe76a936058cad5cc1fdeb8940d2ce24afa802200fee403ef067f2df05d272dba6f1eccf3a861d4f1bf141ceed6e88d79eb0767e012103da64501b34d9497758a4a60a892827330f4195e5d6f03fbc6c757424b186b876ffffffff02594c23a6010000001976a9141495581fa10e757ec1a4300064a49831b700a1ea88acb888f505000000001976a91407c1ea15d1ed00046102f08dcfbf0e1b225bd86d88ac00000000"
    }
  ],
  "time": 1517256315,
  "mediantime": 1517255262,
  "nonce": 58257134,
  "bits": "1a042eae",
  "difficulty": 4011378.762614286,
  "chainwork": "000000000000000000000000000000000000000000000033d0b8b761cef2ee08",
  "previousblockhash": "08868a30359288af3b30bf04c95635dd1022ed88a4b3e7c0ba4273ec80df13ee",
  "nextblockhash": "9ac46238d864c1136241f963bedabcf68e187f4ed1ddac7360128dea47c0e99f"
}
