{
  "hash": "c474ecabd2450a63139478a20a4525e3a1459e8884d217f4d143e6e909bb57ee",
  "confirmations": 1132,
  "strippedsize": 256,
  "size": 256,
  "weight": 1024,
  "height": 1359862,
  "version": 536870912,
  "versionHex": "20000000",
  "merkleroot": "337fb6ade9cefb2806fbd2afea826f12958a46d275e841c3c1cbec4d8cd504bc",
  "tx": [
    {
      "txid": "337fb6ade9cefb2806fbd2afea826f12958a46d275e841c3c1cbec4d8cd504bc",
      "hash": "337fb6ade9cefb2806fbd2afea826f12958a46d275e841c3c1cbec4d8cd504bc",
      "version": 1,
      "size": 175,
      "vsize": 175,
      "locktime": 0,
      "vin": [
        {
          "coinbase": "03f6bf141d4d696e656420627920416e74506f6f6c20626a312045205a70ca761001fabe6d6dd08c655ff1e16ab3eaa01a107176cf04c58086955caf3315936fe76300b3307f04000000000000004a230000000000000f000000",
          "sequence": 4294967295
        }
      ],
      "vout": [
        {
          "value": 25.00000000,
          "n": 0,
          "scriptPubKey": {
            "asm": "OP_DUP OP_HASH160 0ff3ccc5e8be88afe24b5d634e5852d474dbdff1 OP_EQUALVERIFY OP_CHECKSIG",
            "hex": "76a9140ff3ccc5e8be88afe24b5d634e5852d474dbdff188ac",
            "reqSigs": 1,
            "type": "pubkeyhash",
            "addresses": [
              "LLgJTbzZMsRTCUF1NtvvL9SR1a4pVieW89"
            ]
          }
        }
      ],
      "hex": "01000000010000000000000000000000000000000000000000000000000000000000000000ffffffff5a03f6bf141d4d696e656420627920416e74506f6f6c20626a312045205a70ca761001fabe6d6dd08c655ff1e16ab3eaa01a107176cf04c58086955caf3315936fe76300b3307f04000000000000004a230000000000000f000000ffffffff0100f90295000000001976a9140ff3ccc5e8be88afe24b5d634e5852d474dbdff188ac00000000"
    }
  ],
  "time": 1517341302,
  "mediantime": 1517340932,
  "nonce": 2231919658,
  "bits": "1a042eae",
  "difficulty": 4011378.762614286,
  "chainwork": "00000000000000000000000000000000000000000000003466a3356075b0176e",
  "previousblockhash": "731cb44c83a0ba2dfbb6ae917d82f5226cc7818a92d7da14948563f172f1e45d",
  "nextblockhash": "785ab9800e5c1261f2536d69d2a53fbc5cc46035efa8d9074ac6599579aa7ea9"
}
