{
  "hash": "c4df8e2f2e7e908498b0376262287d4c5d052fdee6c15e2748b8daa2818238e0",
  "confirmations": 1753,
  "strippedsize": 253,
  "size": 253,
  "weight": 1012,
  "height": 1359241,
  "version": 536870912,
  "versionHex": "20000000",
  "merkleroot": "67ae06f968a1f56ae145bf27e86001b6e9b122d6f0310de842d79866afc598cf",
  "tx": [
    {
      "txid": "67ae06f968a1f56ae145bf27e86001b6e9b122d6f0310de842d79866afc598cf",
      "hash": "67ae06f968a1f56ae145bf27e86001b6e9b122d6f0310de842d79866afc598cf",
      "version": 1,
      "size": 172,
      "vsize": 172,
      "locktime": 0,
      "vin": [
        {
          "coinbase": "0389bd141a4d696e656420627920416e74506f6f6c20626a3532205a6f801efabe6d6dfeabddabd0d3e829a9e6f65f63fd532c594f2a41b9dab22e8204ef520e2fe1020400000000000000040b00000000000002000000",
          "sequence": 4294967295
        }
      ],
      "vout": [
        {
          "value": 25.00000000,
          "n": 0,
          "scriptPubKey": {
            "asm": "OP_DUP OP_HASH160 0ff3ccc5e8be88afe24b5d634e5852d474dbdff1 OP_EQUALVERIFY OP_CHECKSIG",
            "hex": "76a9140ff3ccc5e8be88afe24b5d634e5852d474dbdff188ac",
            "reqSigs": 1,
            "type": "pubkeyhash",
            "addresses": [
              "LLgJTbzZMsRTCUF1NtvvL9SR1a4pVieW89"
            ]
          }
        }
      ],
      "hex": "01000000010000000000000000000000000000000000000000000000000000000000000000ffffffff570389bd141a4d696e656420627920416e74506f6f6c20626a3532205a6f801efabe6d6dfeabddabd0d3e829a9e6f65f63fd532c594f2a41b9dab22e8204ef520e2fe1020400000000000000040b00000000000002000000ffffffff0100f90295000000001976a9140ff3ccc5e8be88afe24b5d634e5852d474dbdff188ac00000000"
    }
  ],
  "time": 1517256734,
  "mediantime": 1517256420,
  "nonce": 3582973063,
  "bits": "1a042eae",
  "difficulty": 4011378.762614286,
  "chainwork": "000000000000000000000000000000000000000000000033d227f981a472e714",
  "previousblockhash": "d2d7249a64b47ef549d915b05803d657e96c04f1f0481ef3673c0bf4b49ecea0",
  "nextblockhash": "437d1ca0b63b9c7c579c1a684542c0695176e17b3e7ac7f729767d533409cc9a"
}
