{
  "hash": "c53ad843faf6bfe03be7513fcfad4133e8f649c84c238ce8527e1b0b544da506",
  "confirmations": 2636,
  "strippedsize": 3144,
  "size": 3511,
  "weight": 12943,
  "height": 1358359,
  "version": 536870912,
  "versionHex": "20000000",
  "merkleroot": "915daaad10e0280be71995a1fdb43e13c488736d040435f086b5b425fc833846",
  "tx": [
    {
      "txid": "eaad9cb98a094bd00b141f63592762ecf24098102d1710656d301973f19c64b3",
      "hash": "0e00adde1f561f5481b1c372cc14dc1ac56f5624ee64ac3286d4cfc826d39ec9",
      "version": 1,
      "size": 277,
      "vsize": 250,
      "locktime": 957093407,
      "vin": [
        {
          "coinbase": "0317ba142cfabe6d6d725cbf67e66e40e97b89bf5e6702e692a01828de82e4f44b7750f30da9f27c0e08000000f09f909f144d696e6564206279206731373233393139393832000000000000000000000000000000000000000000000000000000000000",
          "sequence": 8
        }
      ],
      "vout": [
        {
          "value": 25.00503129,
          "n": 0,
          "scriptPubKey": {
            "asm": "OP_DUP OP_HASH160 aa3750aa18b8a0f3f0590731e1fab934856680cf OP_EQUALVERIFY OP_CHECKSIG",
            "hex": "76a914aa3750aa18b8a0f3f0590731e1fab934856680cf88ac",
            "reqSigs": 1,
            "type": "pubkeyhash",
            "addresses": [
              "LajyQBeZaBA1NkZDeY8YT5RYYVRkXMvb2T"
            ]
          }
        }, 
        {
          "value": 0.00000000,
          "n": 1,
          "scriptPubKey": {
            "asm": "OP_RETURN aa21a9edbaff1483685776ecb1f969284e14622b1e1bc0e3655486d8ea10976ddccccf32 0000000000000000",
            "hex": "6a24aa21a9edbaff1483685776ecb1f969284e14622b1e1bc0e3655486d8ea10976ddccccf32080000000000000000",
            "type": "nulldata"
          }
        }
      ],
      "hex": "010000000001010000000000000000000000000000000000000000000000000000000000000000ffffffff640317ba142cfabe6d6d725cbf67e66e40e97b89bf5e6702e692a01828de82e4f44b7750f30da9f27c0e08000000f09f909f144d696e6564206279206731373233393139393832000000000000000000000000000000000000000000000000000000000000080000000259a60a95000000001976a914aa3750aa18b8a0f3f0590731e1fab934856680cf88ac00000000000000002f6a24aa21a9edbaff1483685776ecb1f969284e14622b1e1bc0e3655486d8ea10976ddccccf32080000000000000000012000000000000000000000000000000000000000000000000000000000000000001f160c39"
    }, 
    {
      "txid": "77935d0a4855fbbe8095d720294f14dd10db7db6fe28e8ec50a95f869694125c",
      "hash": "77935d0a4855fbbe8095d720294f14dd10db7db6fe28e8ec50a95f869694125c",
      "version": 1,
      "size": 519,
      "vsize": 519,
      "locktime": 0,
      "vin": [
        {
          "txid": "7fbb2a2001f51d5dd74db809fa4252c6ca9c45ec6102e9bd416c4afb5bd6312d",
          "vout": 200,
          "scriptSig": {
            "asm": "304402201391e72a97337030ec7a30a1f132c5a6163dd53b6bc68d8aa920963b5d4992bc022056c0c19aaf3a21abd93f33722f00a3cf46351c708b6ec88ddcc1f965a89cedcb[ALL] 038bd8d6f002ed5610fad71be5abdd6ed0b07e81458b26df627a6981c179153b98",
            "hex": "47304402201391e72a97337030ec7a30a1f132c5a6163dd53b6bc68d8aa920963b5d4992bc022056c0c19aaf3a21abd93f33722f00a3cf46351c708b6ec88ddcc1f965a89cedcb0121038bd8d6f002ed5610fad71be5abdd6ed0b07e81458b26df627a6981c179153b98"
          },
          "sequence": 4294967295
        }, 
        {
          "txid": "feb2353e7ac8e821806f29b2de08f9eac51066493c058367b46a6a4e67c768e3",
          "vout": 22,
          "scriptSig": {
            "asm": "304402201dbc8b81d7d310e8bc33695321df8b0609fd52cd3b2ae76ce478dc7a9018848602200ccf56a38cabb7f81012dbe593bb69cffafab9bda325169af21aef626b9be5cf[ALL] 03aa8948a64838ca22122a95113796c493d246181ddb7514285d31ccb531361732",
            "hex": "47304402201dbc8b81d7d310e8bc33695321df8b0609fd52cd3b2ae76ce478dc7a9018848602200ccf56a38cabb7f81012dbe593bb69cffafab9bda325169af21aef626b9be5cf012103aa8948a64838ca22122a95113796c493d246181ddb7514285d31ccb531361732"
          },
          "sequence": 4294967295
        }, 
        {
          "txid": "2cb18afd1f39816d76e7c31939d6e5e9316b04dc4ebaae0dc8c9dd753367fe6e",
          "vout": 441,
          "scriptSig": {
            "asm": "304402204857605b81c5c43d11330734aba63b8f1620372f46e624603e1f2566eb94556b0220794e7937b78b936748f46aac8a327ab979bc1052aad5edb5682faa6c8c688d65[ALL] 02946f4456a39f93550a9c56896cdf84d61aab1cd1e84e8fc1f12a512c093f8cdd",
            "hex": "47304402204857605b81c5c43d11330734aba63b8f1620372f46e624603e1f2566eb94556b0220794e7937b78b936748f46aac8a327ab979bc1052aad5edb5682faa6c8c688d65012102946f4456a39f93550a9c56896cdf84d61aab1cd1e84e8fc1f12a512c093f8cdd"
          },
          "sequence": 4294967295
        }
      ],
      "vout": [
        {
          "value": 3.95859275,
          "n": 0,
          "scriptPubKey": {
            "asm": "OP_DUP OP_HASH160 b2cec00c046e995791b90e3506227c6f794bdf6e OP_EQUALVERIFY OP_CHECKSIG",
            "hex": "76a914b2cec00c046e995791b90e3506227c6f794bdf6e88ac",
            "reqSigs": 1,
            "type": "pubkeyhash",
            "addresses": [
              "LbXQDcXkxcWzuvkJkiuk2ZppHrUU8QHCa9"
            ]
          }
        }, 
        {
          "value": 0.01000097,
          "n": 1,
          "scriptPubKey": {
            "asm": "OP_DUP OP_HASH160 1490b7b93404633db9a807ad8cb4246546740848 OP_EQUALVERIFY OP_CHECKSIG",
            "hex": "76a9141490b7b93404633db9a807ad8cb424654674084888ac",
            "reqSigs": 1,
            "type": "pubkeyhash",
            "addresses": [
              "LM6h9D7KkmbScJxwA87QE3s3iyJG1HyGRv"
            ]
          }
        }
      ],
      "hex": "01000000032d31d65bfb4a6c41bde90261ec459ccac65242fa09b84dd75d1df501202abb7fc80000006a47304402201391e72a97337030ec7a30a1f132c5a6163dd53b6bc68d8aa920963b5d4992bc022056c0c19aaf3a21abd93f33722f00a3cf46351c708b6ec88ddcc1f965a89cedcb0121038bd8d6f002ed5610fad71be5abdd6ed0b07e81458b26df627a6981c179153b98ffffffffe368c7674e6a6ab46783053c496610c5eaf908deb2296f8021e8c87a3e35b2fe160000006a47304402201dbc8b81d7d310e8bc33695321df8b0609fd52cd3b2ae76ce478dc7a9018848602200ccf56a38cabb7f81012dbe593bb69cffafab9bda325169af21aef626b9be5cf012103aa8948a64838ca22122a95113796c493d246181ddb7514285d31ccb531361732ffffffff6efe673375ddc9c80daeba4edc046b31e9e5d63919c3e7766d81391ffd8ab12cb90100006a47304402204857605b81c5c43d11330734aba63b8f1620372f46e624603e1f2566eb94556b0220794e7937b78b936748f46aac8a327ab979bc1052aad5edb5682faa6c8c688d65012102946f4456a39f93550a9c56896cdf84d61aab1cd1e84e8fc1f12a512c093f8cddffffffff024b559817000000001976a914b2cec00c046e995791b90e3506227c6f794bdf6e88aca1420f00000000001976a9141490b7b93404633db9a807ad8cb424654674084888ac00000000"
    }, 
    {
      "txid": "0fc79b09b6a3774a5b4df60fec03f27de520f8b284c843bcad05ef4ba3e11690",
      "hash": "0fc79b09b6a3774a5b4df60fec03f27de520f8b284c843bcad05ef4ba3e11690",
      "version": 1,
      "size": 225,
      "vsize": 225,
      "locktime": 0,
      "vin": [
        {
          "txid": "d0bb906bb430d5e82735ea8e330cb5bdf355bf5c3ad092bf52d89240a2718fef",
          "vout": 0,
          "scriptSig": {
            "asm": "304402204e0a2c2f1574a4658cf2ef39cc5a790fed029bf0df6066a22022909870b169790220108a52bd24132d5af40cdec2126efb84ed1d8b18af1fe782d8241d8ddc58a6e8[ALL] 0384a9a36de00797765bb8cbd04dabb5aa68695b13ab3d76e64a85d79f0c76db7f",
            "hex": "47304402204e0a2c2f1574a4658cf2ef39cc5a790fed029bf0df6066a22022909870b169790220108a52bd24132d5af40cdec2126efb84ed1d8b18af1fe782d8241d8ddc58a6e801210384a9a36de00797765bb8cbd04dabb5aa68695b13ab3d76e64a85d79f0c76db7f"
          },
          "sequence": 4294967295
        }
      ],
      "vout": [
        {
          "value": 80.88461896,
          "n": 0,
          "scriptPubKey": {
            "asm": "OP_DUP OP_HASH160 8a4fd1372b1dd683fede7d68f2332fae2e9c9f71 OP_EQUALVERIFY OP_CHECKSIG",
            "hex": "76a9148a4fd1372b1dd683fede7d68f2332fae2e9c9f7188ac",
            "reqSigs": 1,
            "type": "pubkeyhash",
            "addresses": [
              "LXqH8V6ZtsHBrURFbVxHR59KA24qcdosN3"
            ]
          }
        }, 
        {
          "value": 6.38630000,
          "n": 1,
          "scriptPubKey": {
            "asm": "OP_DUP OP_HASH160 796c3cddf38b9c86fb8f92b6ea9b032e25ba03a8 OP_EQUALVERIFY OP_CHECKSIG",
            "hex": "76a914796c3cddf38b9c86fb8f92b6ea9b032e25ba03a888ac",
            "reqSigs": 1,
            "type": "pubkeyhash",
            "addresses": [
              "LWHygv5kFqN6PW9Dr9xWXu3CNxfuwbfFSa"
            ]
          }
        }
      ],
      "hex": "0100000001ef8f71a24092d852bf92d03a5cbf55f3bdb50c338eea3527e8d530b46b90bbd0000000006a47304402204e0a2c2f1574a4658cf2ef39cc5a790fed029bf0df6066a22022909870b169790220108a52bd24132d5af40cdec2126efb84ed1d8b18af1fe782d8241d8ddc58a6e801210384a9a36de00797765bb8cbd04dabb5aa68695b13ab3d76e64a85d79f0c76db7fffffffff0248221ce2010000001976a9148a4fd1372b1dd683fede7d68f2332fae2e9c9f7188ac70b81026000000001976a914796c3cddf38b9c86fb8f92b6ea9b032e25ba03a888ac00000000"
    }, 
    {
      "txid": "f5787c3503f6ab63534e0f5cf5312da4316098daed660c93236fadde6a7c2dcd",
      "hash": "8735cf9a07476837600c8f912f13314c5d488139104346cee1f7ca4dfbe4dc04",
      "version": 1,
      "size": 371,
      "vsize": 206,
      "locktime": 0,
      "vin": [
        {
          "txid": "5b162b8f52dfa54d7a04e3f92240908179d31845265741f94335f8d2c4e64c81",
          "vout": 0,
          "scriptSig": {
            "asm": "0020e5f0fc77e59bd9ee4d3947fd1e3750ddfa4423904fb3e24b8822454702449875",
            "hex": "220020e5f0fc77e59bd9ee4d3947fd1e3750ddfa4423904fb3e24b8822454702449875"
          },
          "txinwitness": [
            "", 
            "30440220440e793cfbd57004bc6e51641a86c6754037b98c816530372b346167a86c1490022051d8a553941162d538c006ebd63be63732a6e08e4a6bf18cae2332c1736491c701", 
            "304502210080ede71528819d47fe2c06f5f8d77994c15f5a722e1e326f128039e76dd07a8f02206312b0b916e2e3ad0e5784f073e5d67558ef85577cca27268873b7f21f2942f301", 
            "522102221248fbd5f593e35bd11e8c970e4e5ef6f278f1c014355b6c339f5fbf325e8621035601f3a2305646caace0c463b02eba89c2b789e281cef04109061d879d5bb51352ae"
          ],
          "sequence": 4294967295
        }
      ],
      "vout": [
        {
          "value": 0.10000000,
          "n": 0,
          "scriptPubKey": {
            "asm": "OP_HASH160 2b191928a22a0f42a799964a0ef972a50f6bd0b2 OP_EQUAL",
            "hex": "a9142b191928a22a0f42a799964a0ef972a50f6bd0b287",
            "reqSigs": 1,
            "type": "scripthash",
            "addresses": [
              "MBq3MY95y34Lh3yJEiFVtGTxF5FTT9SRct"
            ]
          }
        }, 
        {
          "value": 9.89956800,
          "n": 1,
          "scriptPubKey": {
            "asm": "OP_HASH160 b5946e0bfd1da74539f69248e8ca8cfa68ac3af6 OP_EQUAL",
            "hex": "a914b5946e0bfd1da74539f69248e8ca8cfa68ac3af687",
            "reqSigs": 1,
            "type": "scripthash",
            "addresses": [
              "MQTGMEraVjFDcozVdk8vLSQaJbqCeMaCu8"
            ]
          }
        }
      ],
      "hex": "01000000000101814ce6c4d2f83543f94157264518d37981904022f9e3047a4da5df528f2b165b0000000023220020e5f0fc77e59bd9ee4d3947fd1e3750ddfa4423904fb3e24b8822454702449875ffffffff02809698000000000017a9142b191928a22a0f42a799964a0ef972a50f6bd0b287c08a013b0000000017a914b5946e0bfd1da74539f69248e8ca8cfa68ac3af68704004730440220440e793cfbd57004bc6e51641a86c6754037b98c816530372b346167a86c1490022051d8a553941162d538c006ebd63be63732a6e08e4a6bf18cae2332c1736491c70148304502210080ede71528819d47fe2c06f5f8d77994c15f5a722e1e326f128039e76dd07a8f02206312b0b916e2e3ad0e5784f073e5d67558ef85577cca27268873b7f21f2942f30147522102221248fbd5f593e35bd11e8c970e4e5ef6f278f1c014355b6c339f5fbf325e8621035601f3a2305646caace0c463b02eba89c2b789e281cef04109061d879d5bb51352ae00000000"
    }, 
    {
      "txid": "fda76454beaa3981da74c75428200418c4981dad0a8ad889b4ce5d2a965c3c7e",
      "hash": "46e3b1d5631890bb86a7dfa6c037260680ee8e96e3c0bb1011f1c36287bf7c92",
      "version": 1,
      "size": 248,
      "vsize": 166,
      "locktime": 0,
      "vin": [
        {
          "txid": "160a518b98c55bd8a6e776f90546cfd31a03bfdd987e14081250a775088ba633",
          "vout": 1,
          "scriptSig": {
            "asm": "00149824cd73ca9ab062c4c608d38d1dbc93fb49d15f",
            "hex": "1600149824cd73ca9ab062c4c608d38d1dbc93fb49d15f"
          },
          "txinwitness": [
            "30450221009890e79b4d2e6ea8020bd0187128a4165285ae46b30a9753f3d78b3921c388e302202a99a9546430bf308e937d6dd519f6223ae213598af8bb227f0c4a2cd8278bcc01", 
            "0288f0b0ad2856073d5af2b64fb4314fd29d4b8628b49b1ac1fc9dba11b1a22227"
          ],
          "sequence": 4294967295
        }
      ],
      "vout": [
        {
          "value": 0.00082900,
          "n": 0,
          "scriptPubKey": {
            "asm": "OP_HASH160 95c9f7dceb3bab6536e1ea92c29cc7af1f056c96 OP_EQUAL",
            "hex": "a91495c9f7dceb3bab6536e1ea92c29cc7af1f056c9687",
            "reqSigs": 1,
            "type": "scripthash",
            "addresses": [
              "MMZAs1ZZ1BziGAqMgCxWzjAGcdZmqWaGez"
            ]
          }
        }, 
        {
          "value": 0.43900000,
          "n": 1,
          "scriptPubKey": {
            "asm": "OP_HASH160 1de7610d0d0892e7cf41d877d3f6ae442f567cd2 OP_EQUAL",
            "hex": "a9141de7610d0d0892e7cf41d877d3f6ae442f567cd287",
            "reqSigs": 1,
            "type": "scripthash",
            "addresses": [
              "MAdH1Vgcvk2E5yPdBAd6nMNkfftKYShXhJ"
            ]
          }
        }
      ],
      "hex": "0100000000010133a68b0875a7501208147e98ddbf031ad3cf4605f976e7a6d85bc5988b510a1601000000171600149824cd73ca9ab062c4c608d38d1dbc93fb49d15fffffffff02d44301000000000017a91495c9f7dceb3bab6536e1ea92c29cc7af1f056c968760dc9d020000000017a9141de7610d0d0892e7cf41d877d3f6ae442f567cd287024830450221009890e79b4d2e6ea8020bd0187128a4165285ae46b30a9753f3d78b3921c388e302202a99a9546430bf308e937d6dd519f6223ae213598af8bb227f0c4a2cd8278bcc01210288f0b0ad2856073d5af2b64fb4314fd29d4b8628b49b1ac1fc9dba11b1a2222700000000"
    }, 
    {
      "txid": "5ff1180b446297cccaf1748b38d75e4e0b1ea91c070c75daae77359807113436",
      "hash": "5ff1180b446297cccaf1748b38d75e4e0b1ea91c070c75daae77359807113436",
      "version": 2,
      "size": 667,
      "vsize": 667,
      "locktime": 1358357,
      "vin": [
        {
          "txid": "59d9643130bb318857638a0a3d142946c8a420b071e0792afbceb2fda19c2b47",
          "vout": 1,
          "scriptSig": {
            "asm": "3045022100e489a00d9afccbb15b653cfb85b597ff7256d6824227f0d0e336517fdd2e8e8a02203561c4b6701b800d3f0ea1f3d6b445300897d721f5ec1d6f5c4c118e298cc424[ALL] 02eac05902262b2bcd92a039c832d5f11ae033f62425878650529582ef22d28866",
            "hex": "483045022100e489a00d9afccbb15b653cfb85b597ff7256d6824227f0d0e336517fdd2e8e8a02203561c4b6701b800d3f0ea1f3d6b445300897d721f5ec1d6f5c4c118e298cc424012102eac05902262b2bcd92a039c832d5f11ae033f62425878650529582ef22d28866"
          },
          "sequence": 4294967294
        }, 
        {
          "txid": "d19d55672307c4631a1515e8bbd60eedc95340598fa09ca0ee55499306ce6d3b",
          "vout": 5151,
          "scriptSig": {
            "asm": "304402201379ace3519adfb7452b60039ee57e7c323a09d8365e317f804d6e4c3046b1a5022013803d23c1a668d69b90ce0bf30865c274c3d3d0dacc4267b5b01f092436ae15[ALL] 024fdf2bb6dd1154b84caef76101c94572af9ec89fcd8a78c3daa870b11993217d",
            "hex": "47304402201379ace3519adfb7452b60039ee57e7c323a09d8365e317f804d6e4c3046b1a5022013803d23c1a668d69b90ce0bf30865c274c3d3d0dacc4267b5b01f092436ae150121024fdf2bb6dd1154b84caef76101c94572af9ec89fcd8a78c3daa870b11993217d"
          },
          "sequence": 4294967294
        }, 
        {
          "txid": "e85e3c90bbb4ab596dfa0d39abaca93a797e634e42728506739a255cc223733c",
          "vout": 325,
          "scriptSig": {
            "asm": "304402201b0be93d29739d1772ccee9eaf75049da559c296e6c8a9d45efe2a84c61e7f8102207e2a17dde4d8c9a312bd1207e9846337c925bc0d6614e2f9962f56df3e15466c[ALL] 02f22743af8f32e75430f516a522dfaf0d63e7880d95c84bf540347d427e826d46",
            "hex": "47304402201b0be93d29739d1772ccee9eaf75049da559c296e6c8a9d45efe2a84c61e7f8102207e2a17dde4d8c9a312bd1207e9846337c925bc0d6614e2f9962f56df3e15466c012102f22743af8f32e75430f516a522dfaf0d63e7880d95c84bf540347d427e826d46"
          },
          "sequence": 4294967294
        }, 
        {
          "txid": "2b361a27f90c622a96b677fc65c254829d521ba8d94197f3ef267c82dd67fa9f",
          "vout": 19,
          "scriptSig": {
            "asm": "3044022001c637bda434955bfe7329718c080be76fea4d99e95a91ee1c444218c99689c302205a40d131a0d4418061791632a73b619101d1ee650f491a2cf13db12a1d22ce99[ALL] 0278b9d8f91dd21169a11a77c65d0931f54aa9234ef65f82a70c641cdf2da6ea0a",
            "hex": "473044022001c637bda434955bfe7329718c080be76fea4d99e95a91ee1c444218c99689c302205a40d131a0d4418061791632a73b619101d1ee650f491a2cf13db12a1d22ce9901210278b9d8f91dd21169a11a77c65d0931f54aa9234ef65f82a70c641cdf2da6ea0a"
          },
          "sequence": 4294967294
        }
      ],
      "vout": [
        {
          "value": 0.40000000,
          "n": 0,
          "scriptPubKey": {
            "asm": "OP_DUP OP_HASH160 62c3a425c4fb3ef94fc0f200b53980da24d27733 OP_EQUALVERIFY OP_CHECKSIG",
            "hex": "76a91462c3a425c4fb3ef94fc0f200b53980da24d2773388ac",
            "reqSigs": 1,
            "type": "pubkeyhash",
            "addresses": [
              "LUEArQETjQ8iEP4r54TkFeZhZSWTZcxZJv"
            ]
          }
        }, 
        {
          "value": 0.00967892,
          "n": 1,
          "scriptPubKey": {
            "asm": "OP_DUP OP_HASH160 c0d236e5648ef466180de622468defb964456c5f OP_EQUALVERIFY OP_CHECKSIG",
            "hex": "76a914c0d236e5648ef466180de622468defb964456c5f88ac",
            "reqSigs": 1,
            "type": "pubkeyhash",
            "addresses": [
              "LcoVpzw56xNPEaRf1rs44Fv8y9NgWzSLgC"
            ]
          }
        }
      ],
      "hex": "0200000004472b9ca1fdb2cefb2a79e071b020a4c84629143d0a8a63578831bb303164d959010000006b483045022100e489a00d9afccbb15b653cfb85b597ff7256d6824227f0d0e336517fdd2e8e8a02203561c4b6701b800d3f0ea1f3d6b445300897d721f5ec1d6f5c4c118e298cc424012102eac05902262b2bcd92a039c832d5f11ae033f62425878650529582ef22d28866feffffff3b6dce06934955eea09ca08f594053c9ed0ed6bbe815151a63c4072367559dd11f1400006a47304402201379ace3519adfb7452b60039ee57e7c323a09d8365e317f804d6e4c3046b1a5022013803d23c1a668d69b90ce0bf30865c274c3d3d0dacc4267b5b01f092436ae150121024fdf2bb6dd1154b84caef76101c94572af9ec89fcd8a78c3daa870b11993217dfeffffff3c7323c25c259a73068572424e637e793aa9acab390dfa6d59abb4bb903c5ee8450100006a47304402201b0be93d29739d1772ccee9eaf75049da559c296e6c8a9d45efe2a84c61e7f8102207e2a17dde4d8c9a312bd1207e9846337c925bc0d6614e2f9962f56df3e15466c012102f22743af8f32e75430f516a522dfaf0d63e7880d95c84bf540347d427e826d46feffffff9ffa67dd827c26eff39741d9a81b529d8254c265fc77b6962a620cf9271a362b130000006a473044022001c637bda434955bfe7329718c080be76fea4d99e95a91ee1c444218c99689c302205a40d131a0d4418061791632a73b619101d1ee650f491a2cf13db12a1d22ce9901210278b9d8f91dd21169a11a77c65d0931f54aa9234ef65f82a70c641cdf2da6ea0afeffffff02005a6202000000001976a91462c3a425c4fb3ef94fc0f200b53980da24d2773388acd4c40e00000000001976a914c0d236e5648ef466180de622468defb964456c5f88ac15ba1400"
    }, 
    {
      "txid": "75c3afc31a7e8ddc538940974c27e0fed07e6cdab57695aa7cbdd361a318a2b4",
      "hash": "75c3afc31a7e8ddc538940974c27e0fed07e6cdab57695aa7cbdd361a318a2b4",
      "version": 1,
      "size": 223,
      "vsize": 223,
      "locktime": 0,
      "vin": [
        {
          "txid": "1c4de1a0c79f93b47403984d96896ba34047b98d9ebc692d962125a58c53ef4b",
          "vout": 1,
          "scriptSig": {
            "asm": "304402201a197122eaa7dcc385444eb648d7da2872e457e0d6a272bf78556cd68b2faaf40220274a5d98fd9dad0a954e0f5b801b0a5dfa4218921edafe8421597fa53443a188[ALL] 031ff85687c49d87958b367b71b74ede70c70c6e918f6a572cefbf54ae9b23c094",
            "hex": "47304402201a197122eaa7dcc385444eb648d7da2872e457e0d6a272bf78556cd68b2faaf40220274a5d98fd9dad0a954e0f5b801b0a5dfa4218921edafe8421597fa53443a1880121031ff85687c49d87958b367b71b74ede70c70c6e918f6a572cefbf54ae9b23c094"
          },
          "sequence": 4294967295
        }
      ],
      "vout": [
        {
          "value": 3.00000000,
          "n": 0,
          "scriptPubKey": {
            "asm": "OP_HASH160 bd2614d95d7bf120e02243f2ee6cc73bf5480f8f OP_EQUAL",
            "hex": "a914bd2614d95d7bf120e02243f2ee6cc73bf5480f8f87",
            "reqSigs": 1,
            "type": "scripthash",
            "addresses": [
              "MR9HZdZFuVQxWyLVvL2cCbdSDh9976evye"
            ]
          }
        }, 
        {
          "value": 0.39850050,
          "n": 1,
          "scriptPubKey": {
            "asm": "OP_DUP OP_HASH160 d0cc6d08e51f48a7303177d458cc2ff9f325eb95 OP_EQUALVERIFY OP_CHECKSIG",
            "hex": "76a914d0cc6d08e51f48a7303177d458cc2ff9f325eb9588ac",
            "reqSigs": 1,
            "type": "pubkeyhash",
            "addresses": [
              "LeFyhsjJYNZSMivN7Q5sZTgQ2jqCr2Tdqq"
            ]
          }
        }
      ],
      "hex": "01000000014bef538ca52521962d69bc9e8db94740a36b89964d980374b4939fc7a0e14d1c010000006a47304402201a197122eaa7dcc385444eb648d7da2872e457e0d6a272bf78556cd68b2faaf40220274a5d98fd9dad0a954e0f5b801b0a5dfa4218921edafe8421597fa53443a1880121031ff85687c49d87958b367b71b74ede70c70c6e918f6a572cefbf54ae9b23c094ffffffff0200a3e1110000000017a914bd2614d95d7bf120e02243f2ee6cc73bf5480f8f8742106002000000001976a914d0cc6d08e51f48a7303177d458cc2ff9f325eb9588ac00000000"
    }, 
    {
      "txid": "aeed411ac2cd1c9af5853451c735350ac5a197d82f4e6067508709b28ab7b413",
      "hash": "aeed411ac2cd1c9af5853451c735350ac5a197d82f4e6067508709b28ab7b413",
      "version": 1,
      "size": 224,
      "vsize": 224,
      "locktime": 0,
      "vin": [
        {
          "txid": "5a01ab3f7e2ee041ae0e023730a9002a061db76dd8534ac44e9ce66ba9d80635",
          "vout": 1,
          "scriptSig": {
            "asm": "3045022100f883fcb9ce2f808074219551b501203ead3889117f455c869f23e8a09fa16a03022040a7a00aac6f5f856aff8655253e25240f4a8ab74c010f20ac77231dbd7cefb0[ALL] 02a6cfdc66d3a852976dee73da47c9e50f16eacaa984406781be8e6c2c6895fc37",
            "hex": "483045022100f883fcb9ce2f808074219551b501203ead3889117f455c869f23e8a09fa16a03022040a7a00aac6f5f856aff8655253e25240f4a8ab74c010f20ac77231dbd7cefb0012102a6cfdc66d3a852976dee73da47c9e50f16eacaa984406781be8e6c2c6895fc37"
          },
          "sequence": 4294967295
        }
      ],
      "vout": [
        {
          "value": 54.99188870,
          "n": 0,
          "scriptPubKey": {
            "asm": "OP_HASH160 18ec1c07e075bdadb2f2e3e048260b422c9c4cce OP_EQUAL",
            "hex": "a91418ec1c07e075bdadb2f2e3e048260b422c9c4cce87",
            "reqSigs": 1,
            "type": "scripthash",
            "addresses": [
              "MAAwJD6q5Q78Lbm1R1RyZLY6dHTebkwcZ1"
            ]
          }
        }, 
        {
          "value": 0.59356274,
          "n": 1,
          "scriptPubKey": {
            "asm": "OP_DUP OP_HASH160 89cfc3cf084793131204c7c96ea5d6eb4c23d0f5 OP_EQUALVERIFY OP_CHECKSIG",
            "hex": "76a91489cfc3cf084793131204c7c96ea5d6eb4c23d0f588ac",
            "reqSigs": 1,
            "type": "pubkeyhash",
            "addresses": [
              "LXndjFVAGSNB2d9y6tdF8qKiU8hqjy6Szs"
            ]
          }
        }
      ],
      "hex": "01000000013506d8a96be69c4ec44a53d86db71d062a00a93037020eae41e02e7e3fab015a010000006b483045022100f883fcb9ce2f808074219551b501203ead3889117f455c869f23e8a09fa16a03022040a7a00aac6f5f856aff8655253e25240f4a8ab74c010f20ac77231dbd7cefb0012102a6cfdc66d3a852976dee73da47c9e50f16eacaa984406781be8e6c2c6895fc37ffffffff0286f6c6470100000017a91418ec1c07e075bdadb2f2e3e048260b422c9c4cce8772b48903000000001976a91489cfc3cf084793131204c7c96ea5d6eb4c23d0f588ac00000000"
    }, 
    {
      "txid": "458998cd90665c694ac0b411c011bdbf73770777a39729952a381191fa9c4d52",
      "hash": "458998cd90665c694ac0b411c011bdbf73770777a39729952a381191fa9c4d52",
      "version": 1,
      "size": 224,
      "vsize": 224,
      "locktime": 0,
      "vin": [
        {
          "txid": "dabe70f2c582c8c5cbe5c739616c45e25e2d9a70a012b56972b1d7f743a6c1ed",
          "vout": 1,
          "scriptSig": {
            "asm": "30450221009ae36fa21a4ba1313ade6925e39a4d0b24ecee667eed05177610751134bc0c1d022051271e524f3edb5c244781e987bd101f333c0e08ec67f98c14151a3b41887c7a[ALL] 03c53556609c0958522886393c1b2d9ad6361f86f4c1a3c5202f2b354ba57f9470",
            "hex": "4830450221009ae36fa21a4ba1313ade6925e39a4d0b24ecee667eed05177610751134bc0c1d022051271e524f3edb5c244781e987bd101f333c0e08ec67f98c14151a3b41887c7a012103c53556609c0958522886393c1b2d9ad6361f86f4c1a3c5202f2b354ba57f9470"
          },
          "sequence": 4294967295
        }
      ],
      "vout": [
        {
          "value": 0.00064177,
          "n": 0,
          "scriptPubKey": {
            "asm": "OP_DUP OP_HASH160 d50ab94a4bec8d0324b9c7d308d8d9d5b0a2dab0 OP_EQUALVERIFY OP_CHECKSIG",
            "hex": "76a914d50ab94a4bec8d0324b9c7d308d8d9d5b0a2dab088ac",
            "reqSigs": 1,
            "type": "pubkeyhash",
            "addresses": [
              "LeeR3B6Yfm4VS2btjKuUo4x4o2QBmqZXo7"
            ]
          }
        }, 
        {
          "value": 0.10000000,
          "n": 1,
          "scriptPubKey": {
            "asm": "OP_HASH160 b1770139276f98fe20d20d1e3df55f4136cb1b6e OP_EQUAL",
            "hex": "a914b1770139276f98fe20d20d1e3df55f4136cb1b6e87",
            "reqSigs": 1,
            "type": "scripthash",
            "addresses": [
              "MQ5WPyrmyHpFqGRoeFFVGimoE3qTW48hc4"
            ]
          }
        }
      ],
      "hex": "0100000001edc1a643f7d7b17269b512a0709a2d5ee2456c6139c7e5cbc5c882c5f270beda010000006b4830450221009ae36fa21a4ba1313ade6925e39a4d0b24ecee667eed05177610751134bc0c1d022051271e524f3edb5c244781e987bd101f333c0e08ec67f98c14151a3b41887c7a012103c53556609c0958522886393c1b2d9ad6361f86f4c1a3c5202f2b354ba57f9470ffffffff02b1fa0000000000001976a914d50ab94a4bec8d0324b9c7d308d8d9d5b0a2dab088ac809698000000000017a914b1770139276f98fe20d20d1e3df55f4136cb1b6e8700000000"
    }, 
    {
      "txid": "de82e592ce693cd239573efdfde92d4d01e80386456641cf938be648e44e5388",
      "hash": "de82e592ce693cd239573efdfde92d4d01e80386456641cf938be648e44e5388",
      "version": 1,
      "size": 226,
      "vsize": 226,
      "locktime": 0,
      "vin": [
        {
          "txid": "62067557e8f50df8ba892a64d35aa733bcfa25afaee0883e5cf359d959ba975a",
          "vout": 4,
          "scriptSig": {
            "asm": "3045022100c202a7004b8e6920a1f750b7522e391552602b7aa91d928cf0d6733147f6830602202341dcca4a0f5b44a726ab1e953b6b5e917b6a233781ddbd68b95f74942e8721[ALL] 021c0ba634e37118325ce4653a7f2cc971b7e14b8e8e14b6e8fb4e168f9f02401e",
            "hex": "483045022100c202a7004b8e6920a1f750b7522e391552602b7aa91d928cf0d6733147f6830602202341dcca4a0f5b44a726ab1e953b6b5e917b6a233781ddbd68b95f74942e87210121021c0ba634e37118325ce4653a7f2cc971b7e14b8e8e14b6e8fb4e168f9f02401e"
          },
          "sequence": 4294967295
        }
      ],
      "vout": [
        {
          "value": 0.17453089,
          "n": 0,
          "scriptPubKey": {
            "asm": "OP_DUP OP_HASH160 783a4bbdf4773714694d226b795e621eb5bc867f OP_EQUALVERIFY OP_CHECKSIG",
            "hex": "76a914783a4bbdf4773714694d226b795e621eb5bc867f88ac",
            "reqSigs": 1,
            "type": "pubkeyhash",
            "addresses": [
              "LWBfBhaq8kiHbSmrYhZUkdwBrga8rGNZMf"
            ]
          }
        }, 
        {
          "value": 2.06530575,
          "n": 1,
          "scriptPubKey": {
            "asm": "OP_DUP OP_HASH160 64465ca67612b4d0093aa58a3a50b4eb4a4831f5 OP_EQUALVERIFY OP_CHECKSIG",
            "hex": "76a91464465ca67612b4d0093aa58a3a50b4eb4a4831f588ac",
            "reqSigs": 1,
            "type": "pubkeyhash",
            "addresses": [
              "LUNA8E9xHQizw3scPdosvPYhQBNPmxJTkd"
            ]
          }
        }
      ],
      "hex": "01000000015a97ba59d959f35c3e88e0aeaf25fabc33a75ad3642a89baf80df5e857750662040000006b483045022100c202a7004b8e6920a1f750b7522e391552602b7aa91d928cf0d6733147f6830602202341dcca4a0f5b44a726ab1e953b6b5e917b6a233781ddbd68b95f74942e87210121021c0ba634e37118325ce4653a7f2cc971b7e14b8e8e14b6e8fb4e168f9f02401effffffff0221500a01000000001976a914783a4bbdf4773714694d226b795e621eb5bc867f88ac0f684f0c000000001976a91464465ca67612b4d0093aa58a3a50b4eb4a4831f588ac00000000"
    }, 
    {
      "txid": "5b1a2a952ce2316e12520b2b9bfe80a3ff06417749a8d731740f6689d45918a2",
      "hash": "5b1a2a952ce2316e12520b2b9bfe80a3ff06417749a8d731740f6689d45918a2",
      "version": 1,
      "size": 226,
      "vsize": 226,
      "locktime": 0,
      "vin": [
        {
          "txid": "8f68299eb09f2c479b8d5f03955ebf21e9a5a3c4f5376786553f7e0b0d0ab64e",
          "vout": 0,
          "scriptSig": {
            "asm": "3045022100f5a48f7c2dd9c8291ea842094ca2b5bd9e2f7206cc6b286b50360cfa11b2078402204b5b6d0e2c061e27d30945c863741c627dc9f41a8a402673e68d2810f66fbe99[ALL] 02d7fbc7b7be8fcb72e0db7eab4693d13809a1954438862cdcf519ce18447bda9e",
            "hex": "483045022100f5a48f7c2dd9c8291ea842094ca2b5bd9e2f7206cc6b286b50360cfa11b2078402204b5b6d0e2c061e27d30945c863741c627dc9f41a8a402673e68d2810f66fbe99012102d7fbc7b7be8fcb72e0db7eab4693d13809a1954438862cdcf519ce18447bda9e"
          },
          "sequence": 4294967295
        }
      ],
      "vout": [
        {
          "value": 0.46353931,
          "n": 0,
          "scriptPubKey": {
            "asm": "OP_DUP OP_HASH160 7ac958183de7d6c243f563d5ecddbe259210719e OP_EQUALVERIFY OP_CHECKSIG",
            "hex": "76a9147ac958183de7d6c243f563d5ecddbe259210719e88ac",
            "reqSigs": 1,
            "type": "pubkeyhash",
            "addresses": [
              "LWRBuFWibCg97u4LzpKonYxxbWNFsQXwvW"
            ]
          }
        }, 
        {
          "value": 23.23850366,
          "n": 1,
          "scriptPubKey": {
            "asm": "OP_DUP OP_HASH160 6b83d7cef978928bd0bb524f72fa236f2ee8a07e OP_EQUALVERIFY OP_CHECKSIG",
            "hex": "76a9146b83d7cef978928bd0bb524f72fa236f2ee8a07e88ac",
            "reqSigs": 1,
            "type": "pubkeyhash",
            "addresses": [
              "LV2SWMKpW5g7nf2i5kwuaZzVMQ9gfZ5sAo"
            ]
          }
        }
      ],
      "hex": "01000000014eb60a0d0b7e3f55866737f5c4a3a5e921bf5e95035f8d9b472c9fb09e29688f000000006b483045022100f5a48f7c2dd9c8291ea842094ca2b5bd9e2f7206cc6b286b50360cfa11b2078402204b5b6d0e2c061e27d30945c863741c627dc9f41a8a402673e68d2810f66fbe99012102d7fbc7b7be8fcb72e0db7eab4693d13809a1954438862cdcf519ce18447bda9effffffff020b4ec302000000001976a9147ac958183de7d6c243f563d5ecddbe259210719e88ac7e24838a000000001976a9146b83d7cef978928bd0bb524f72fa236f2ee8a07e88ac00000000"
    }
  ],
  "time": 1517131524,
  "mediantime": 1517130913,
  "nonce": 333509199,
  "bits": "1a047f14",
  "difficulty": 3731199.183374282,
  "chainwork": "0000000000000000000000000000000000000000000000330659b7bc5b801970",
  "previousblockhash": "1966fa20e6459c9e552a57a05195a5f62d62ab9b04acae6ccdd866ae9d93319b",
  "nextblockhash": "a679fe96d7a3bd3dbce4fe668ccdf3c2c6d130b552d76de60b464a566eff6757"
}
