{
  "hash": "c5a6e8eb894e7314d2fd3dab31abd74e30592f4f7f6a45de827a82db80debbb3",
  "confirmations": 2157,
  "strippedsize": 3903,
  "size": 3939,
  "weight": 15648,
  "height": 1358837,
  "version": 536870912,
  "versionHex": "20000000",
  "merkleroot": "dcfac77d2c9d6a0d8323d8cd785f571d68bc7c79b67e4439f9fcb240556320f2",
  "tx": [
    {
      "txid": "4e3b7bbaf916111d5f2a28c13e255c7c4bee8fd17473b4effceaa6b0a2077db4",
      "hash": "e4a09665720deb2ee3e43b1abccb99729e2e5735cd821e7641f216dd88517921",
      "version": 1,
      "size": 277,
      "vsize": 250,
      "locktime": 957063715,
      "vin": [
        {
          "coinbase": "03f5bb142cfabe6d6d3f521944b333ad123b2b7babb46d1337c1fd34ae9c84bfdd123adff1a687c64b08000000f09f909f0f4d696e656420627920696e6e6f31370000000000000000000000000000000000000000000000000000000000000000000000",
          "sequence": 34
        }
      ],
      "vout": [
        {
          "value": 25.00779627,
          "n": 0,
          "scriptPubKey": {
            "asm": "OP_DUP OP_HASH160 aa3750aa18b8a0f3f0590731e1fab934856680cf OP_EQUALVERIFY OP_CHECKSIG",
            "hex": "76a914aa3750aa18b8a0f3f0590731e1fab934856680cf88ac",
            "reqSigs": 1,
            "type": "pubkeyhash",
            "addresses": [
              "LajyQBeZaBA1NkZDeY8YT5RYYVRkXMvb2T"
            ]
          }
        }, 
        {
          "value": 0.00000000,
          "n": 1,
          "scriptPubKey": {
            "asm": "OP_RETURN aa21a9ed51c030c2c2961aa4e1dafc911072818fce78ca118242896ae85055e839fd619c 0000000000000000",
            "hex": "6a24aa21a9ed51c030c2c2961aa4e1dafc911072818fce78ca118242896ae85055e839fd619c080000000000000000",
            "type": "nulldata"
          }
        }
      ],
      "hex": "010000000001010000000000000000000000000000000000000000000000000000000000000000ffffffff6403f5bb142cfabe6d6d3f521944b333ad123b2b7babb46d1337c1fd34ae9c84bfdd123adff1a687c64b08000000f09f909f0f4d696e656420627920696e6e6f3137000000000000000000000000000000000000000000000000000000000000000000000022000000026bde0e95000000001976a914aa3750aa18b8a0f3f0590731e1fab934856680cf88ac00000000000000002f6a24aa21a9ed51c030c2c2961aa4e1dafc911072818fce78ca118242896ae85055e839fd619c0800000000000000000120000000000000000000000000000000000000000000000000000000000000000023a20b39"
    }, 
    {
      "txid": "c9b4ee0cdf3a656378773239357b65b80786fa8a77a3464aa41f7fcb3ac68f80",
      "hash": "c9b4ee0cdf3a656378773239357b65b80786fa8a77a3464aa41f7fcb3ac68f80",
      "version": 1,
      "size": 225,
      "vsize": 225,
      "locktime": 0,
      "vin": [
        {
          "txid": "b84802c1022e166b1aa5b5e3c3b65982b6f2850a155951816bc0b13ccc871445",
          "vout": 1,
          "scriptSig": {
            "asm": "304402202ebc2660685b7bbc588ce79295e84dcfc15a8943ea8ddf50067e3f1c978d4bc90220050f91b275be3ff025f5b15c573adc01f561610b3f55b5a51f85041a908a332a[ALL] 029b28d0df1f9099a67dfbbd8748dea6bc49bdbf7d0db4068c484411f0fb3ca5de",
            "hex": "47304402202ebc2660685b7bbc588ce79295e84dcfc15a8943ea8ddf50067e3f1c978d4bc90220050f91b275be3ff025f5b15c573adc01f561610b3f55b5a51f85041a908a332a0121029b28d0df1f9099a67dfbbd8748dea6bc49bdbf7d0db4068c484411f0fb3ca5de"
          },
          "sequence": 4294967295
        }
      ],
      "vout": [
        {
          "value": 1.00000000,
          "n": 0,
          "scriptPubKey": {
            "asm": "OP_DUP OP_HASH160 f8a5fe6c4dd3b17410cf449b7bf204d1ed160e1b OP_EQUALVERIFY OP_CHECKSIG",
            "hex": "76a914f8a5fe6c4dd3b17410cf449b7bf204d1ed160e1b88ac",
            "reqSigs": 1,
            "type": "pubkeyhash",
            "addresses": [
              "LhtghEwXBB5iWG519Xu8G6pwThyjNLXtAH"
            ]
          }
        }, 
        {
          "value": 5.46462025,
          "n": 1,
          "scriptPubKey": {
            "asm": "OP_DUP OP_HASH160 15dab32e17d976f4360f61f5f569e6b6fd46f77a OP_EQUALVERIFY OP_CHECKSIG",
            "hex": "76a91415dab32e17d976f4360f61f5f569e6b6fd46f77a88ac",
            "reqSigs": 1,
            "type": "pubkeyhash",
            "addresses": [
              "LMDWSn6uNDcpfTFmqPgqj3UfmZyaC4UD25"
            ]
          }
        }
      ],
      "hex": "0100000001451487cc3cb1c06b815159150a85f2b68259b6c3e3b5a51a6b162e02c10248b8010000006a47304402202ebc2660685b7bbc588ce79295e84dcfc15a8943ea8ddf50067e3f1c978d4bc90220050f91b275be3ff025f5b15c573adc01f561610b3f55b5a51f85041a908a332a0121029b28d0df1f9099a67dfbbd8748dea6bc49bdbf7d0db4068c484411f0fb3ca5deffffffff0200e1f505000000001976a914f8a5fe6c4dd3b17410cf449b7bf204d1ed160e1b88ac49599220000000001976a91415dab32e17d976f4360f61f5f569e6b6fd46f77a88ac00000000"
    }, 
    {
      "txid": "3aa137c6bc9944e0d98ff2a104a5d96c0a6a661e7295ba83d49d7f108d4cdce3",
      "hash": "3aa137c6bc9944e0d98ff2a104a5d96c0a6a661e7295ba83d49d7f108d4cdce3",
      "version": 1,
      "size": 427,
      "vsize": 427,
      "locktime": 0,
      "vin": [
        {
          "txid": "388e9b626d0ff3b6c921a5f035b606fea313753114ed4af51d12779f1b864c2c",
          "vout": 0,
          "scriptSig": {
            "asm": "304402201fa3748aa387267b07146b38ceaa319d8d99824c2e0231a3ece4c696f9ad4c1602202cfbd01c102647bc7d5ec810fbe1ea154ddd7d7805fe1b5cdcb4636691715a91[ALL] 0376154450c112769843277a1e0d0352cba5d2ccccc02a7c5564f48d6ae94dad15",
            "hex": "47304402201fa3748aa387267b07146b38ceaa319d8d99824c2e0231a3ece4c696f9ad4c1602202cfbd01c102647bc7d5ec810fbe1ea154ddd7d7805fe1b5cdcb4636691715a9101210376154450c112769843277a1e0d0352cba5d2ccccc02a7c5564f48d6ae94dad15"
          },
          "sequence": 4294967295
        }
      ],
      "vout": [
        {
          "value": 1.96433881,
          "n": 0,
          "scriptPubKey": {
            "asm": "OP_DUP OP_HASH160 bee495dc5b0bc8e875ce572094fd7be6b60d2c75 OP_EQUALVERIFY OP_CHECKSIG",
            "hex": "76a914bee495dc5b0bc8e875ce572094fd7be6b60d2c7588ac",
            "reqSigs": 1,
            "type": "pubkeyhash",
            "addresses": [
              "LcdJV3zTE9154UAp8art2dB41i4149AX4E"
            ]
          }
        }, 
        {
          "value": 3.08074850,
          "n": 1,
          "scriptPubKey": {
            "asm": "OP_DUP OP_HASH160 f0145935ef0f0e6e2f857fffaaf5789656bdf57f OP_EQUALVERIFY OP_CHECKSIG",
            "hex": "76a914f0145935ef0f0e6e2f857fffaaf5789656bdf57f88ac",
            "reqSigs": 1,
            "type": "pubkeyhash",
            "addresses": [
              "Lh7Np697geWQYBj88PkYFtTo2G5ovZxVDx"
            ]
          }
        }, 
        {
          "value": 8.81690260,
          "n": 2,
          "scriptPubKey": {
            "asm": "OP_DUP OP_HASH160 77a51704851d66ed676a4bd4a109318dfe566848 OP_EQUALVERIFY OP_CHECKSIG",
            "hex": "76a91477a51704851d66ed676a4bd4a109318dfe56684888ac",
            "reqSigs": 1,
            "type": "pubkeyhash",
            "addresses": [
              "LW8aSgvG5fKhN4CY6MybS9Wa7meaAnebyi"
            ]
          }
        }, 
        {
          "value": 8.16863178,
          "n": 3,
          "scriptPubKey": {
            "asm": "OP_DUP OP_HASH160 972f8be1d7f7619ebd8635969137e0525dda505c OP_EQUALVERIFY OP_CHECKSIG",
            "hex": "76a914972f8be1d7f7619ebd8635969137e0525dda505c88ac",
            "reqSigs": 1,
            "type": "pubkeyhash",
            "addresses": [
              "LZ1MFmAP6gC8JFwZaCAq2Vw6C6A12rNWHC"
            ]
          }
        }, 
        {
          "value": 2.99000000,
          "n": 4,
          "scriptPubKey": {
            "asm": "OP_DUP OP_HASH160 bcb1faa13811d05b6c9a87c17a8239ce28de9fba OP_EQUALVERIFY OP_CHECKSIG",
            "hex": "76a914bcb1faa13811d05b6c9a87c17a8239ce28de9fba88ac",
            "reqSigs": 1,
            "type": "pubkeyhash",
            "addresses": [
              "LcRgWUatwZMB5ekEDST7PMfSuhN5vATPYJ"
            ]
          }
        }, 
        {
          "value": 0.19000000,
          "n": 5,
          "scriptPubKey": {
            "asm": "OP_HASH160 e1512ab1883319b2d20d560f0670a12330d1b3ec OP_EQUAL",
            "hex": "a914e1512ab1883319b2d20d560f0670a12330d1b3ec87",
            "reqSigs": 1,
            "type": "scripthash",
            "addresses": [
              "MUSXWA8NKHdWMd8BBjTKfCTtq5BHmePek7"
            ]
          }
        }, 
        {
          "value": 2.50170316,
          "n": 6,
          "scriptPubKey": {
            "asm": "OP_DUP OP_HASH160 8bacc02da7432f58e7b56d72bb8b6eea1c895169 OP_EQUALVERIFY OP_CHECKSIG",
            "hex": "76a9148bacc02da7432f58e7b56d72bb8b6eea1c89516988ac",
            "reqSigs": 1,
            "type": "pubkeyhash",
            "addresses": [
              "LXxV8oiYBFzwRCfafArzsHh3TuLexxH31B"
            ]
          }
        }, 
        {
          "value": 12.28537095,
          "n": 7,
          "scriptPubKey": {
            "asm": "OP_DUP OP_HASH160 f9871c6dd621879729cd7d502a5af822501cf2aa OP_EQUALVERIFY OP_CHECKSIG",
            "hex": "76a914f9871c6dd621879729cd7d502a5af822501cf2aa88ac",
            "reqSigs": 1,
            "type": "pubkeyhash",
            "addresses": [
              "LhyLNfBkoKshT7R8Pce6vkB9T2cP2o84hx"
            ]
          }
        }
      ],
      "hex": "01000000012c4c861b9f77121df54aed14317513a3fe06b635f0a521c9b6f30f6d629b8e38000000006a47304402201fa3748aa387267b07146b38ceaa319d8d99824c2e0231a3ece4c696f9ad4c1602202cfbd01c102647bc7d5ec810fbe1ea154ddd7d7805fe1b5cdcb4636691715a9101210376154450c112769843277a1e0d0352cba5d2ccccc02a7c5564f48d6ae94dad15ffffffff08d957b50b000000001976a914bee495dc5b0bc8e875ce572094fd7be6b60d2c7588ac62d95c12000000001976a914f0145935ef0f0e6e2f857fffaaf5789656bdf57f88ac94868d34000000001976a91477a51704851d66ed676a4bd4a109318dfe56684888acca57b030000000001976a914972f8be1d7f7619ebd8635969137e0525dda505c88acc060d211000000001976a914bcb1faa13811d05b6c9a87c17a8239ce28de9fba88acc0ea21010000000017a914e1512ab1883319b2d20d560f0670a12330d1b3ec87cc4be90e000000001976a9148bacc02da7432f58e7b56d72bb8b6eea1c89516988ac07fd3949000000001976a914f9871c6dd621879729cd7d502a5af822501cf2aa88ac00000000"
    }, 
    {
      "txid": "a27cee27b02d62f7d4290355e34093204e346b66516922b9adf6b5345821b5ee",
      "hash": "a27cee27b02d62f7d4290355e34093204e346b66516922b9adf6b5345821b5ee",
      "version": 1,
      "size": 192,
      "vsize": 192,
      "locktime": 0,
      "vin": [
        {
          "txid": "3f3d888134095b7a48855781de540830e43be6b5e10f79e22e5353116cb0e51f",
          "vout": 0,
          "scriptSig": {
            "asm": "3045022100a4fae706a0f8c560a949c14e27ccaed0f1de5a382b50a48d050108edf22094bd02202ba2644c085f27101f56a9b2286339bc54b182b3b92645fc681ce7684926098f[ALL] 0248f16ec5dda5145ba8b2e12b12931e9fbfa8bb9917c349831952dcf694509072",
            "hex": "483045022100a4fae706a0f8c560a949c14e27ccaed0f1de5a382b50a48d050108edf22094bd02202ba2644c085f27101f56a9b2286339bc54b182b3b92645fc681ce7684926098f01210248f16ec5dda5145ba8b2e12b12931e9fbfa8bb9917c349831952dcf694509072"
          },
          "sequence": 4294967295
        }
      ],
      "vout": [
        {
          "value": 11.97088501,
          "n": 0,
          "scriptPubKey": {
            "asm": "OP_DUP OP_HASH160 826189a27339298c9c229ecbf30f184c0ba5c7ac OP_EQUALVERIFY OP_CHECKSIG",
            "hex": "76a914826189a27339298c9c229ecbf30f184c0ba5c7ac88ac",
            "reqSigs": 1,
            "type": "pubkeyhash",
            "addresses": [
              "LX7LxBfSzrc5gi6FKuurr4PKVDK7fD9ij7"
            ]
          }
        }
      ],
      "hex": "01000000011fe5b06c1153532ee2790fe1b5e63be4300854de815785487a5b093481883d3f000000006b483045022100a4fae706a0f8c560a949c14e27ccaed0f1de5a382b50a48d050108edf22094bd02202ba2644c085f27101f56a9b2286339bc54b182b3b92645fc681ce7684926098f01210248f16ec5dda5145ba8b2e12b12931e9fbfa8bb9917c349831952dcf694509072ffffffff01f51e5a47000000001976a914826189a27339298c9c229ecbf30f184c0ba5c7ac88ac00000000"
    }, 
    {
      "txid": "68e17ca6a90c3046b2021c5094359f70bd58a947eea5fa4ad058f2bf5d2d39e5",
      "hash": "68e17ca6a90c3046b2021c5094359f70bd58a947eea5fa4ad058f2bf5d2d39e5",
      "version": 1,
      "size": 223,
      "vsize": 223,
      "locktime": 1358836,
      "vin": [
        {
          "txid": "646c5a9e7d177168eeb5ce836bdf671709fecb8777950e692aa1fc3fc088e763",
          "vout": 1,
          "scriptSig": {
            "asm": "304402202e8c8383e49c98a6e5ae4cc18723a42b61f4fd25fce4465b526adfda75a594e5022052651a520a74856eab13ce361b8447ec348dab6303748bb2098bebc639482e28[ALL] 021636a48e4af01b4defb29be3e2f24fd711cc4e8b09b47cffef6eb757bc426785",
            "hex": "47304402202e8c8383e49c98a6e5ae4cc18723a42b61f4fd25fce4465b526adfda75a594e5022052651a520a74856eab13ce361b8447ec348dab6303748bb2098bebc639482e280121021636a48e4af01b4defb29be3e2f24fd711cc4e8b09b47cffef6eb757bc426785"
          },
          "sequence": 4294967294
        }
      ],
      "vout": [
        {
          "value": 0.68500000,
          "n": 0,
          "scriptPubKey": {
            "asm": "OP_HASH160 bea94a01d9867ecabdf924c5db07ddb6c5d68b92 OP_EQUAL",
            "hex": "a914bea94a01d9867ecabdf924c5db07ddb6c5d68b9287",
            "reqSigs": 1,
            "type": "scripthash",
            "addresses": [
              "MRHHRHnVCaRQ8tD47eUyXt71aGTRLcDQmY"
            ]
          }
        }, 
        {
          "value": 1.80831800,
          "n": 1,
          "scriptPubKey": {
            "asm": "OP_DUP OP_HASH160 ded092d318b3b3e65cef29aac7441e1fd71267e9 OP_EQUALVERIFY OP_CHECKSIG",
            "hex": "76a914ded092d318b3b3e65cef29aac7441e1fd71267e988ac",
            "reqSigs": 1,
            "type": "pubkeyhash",
            "addresses": [
              "LfY68k2A8oMwvUKu6XEhnBDy1DHShAM9uU"
            ]
          }
        }
      ],
      "hex": "010000000163e788c03ffca12a690e957787cbfe091767df6b83ceb5ee6871177d9e5a6c64010000006a47304402202e8c8383e49c98a6e5ae4cc18723a42b61f4fd25fce4465b526adfda75a594e5022052651a520a74856eab13ce361b8447ec348dab6303748bb2098bebc639482e280121021636a48e4af01b4defb29be3e2f24fd711cc4e8b09b47cffef6eb757bc426785feffffff02203a15040000000017a914bea94a01d9867ecabdf924c5db07ddb6c5d68b92873846c70a000000001976a914ded092d318b3b3e65cef29aac7441e1fd71267e988acf4bb1400"
    }, 
    {
      "txid": "dfcefa7e620dd4b6cde11737dc067fd38b895c887c299b9c5447644c0d413a6d",
      "hash": "dfcefa7e620dd4b6cde11737dc067fd38b895c887c299b9c5447644c0d413a6d",
      "version": 1,
      "size": 339,
      "vsize": 339,
      "locktime": 0,
      "vin": [
        {
          "txid": "05b387e1253f42af6fef97de007e55ec832231a9a656824a43b6fa30cb22136d",
          "vout": 1,
          "scriptSig": {
            "asm": "3044022015f91130136a05c7a8a3aa6b326b0d9d93b1c16e8ad515fa90b370ced9f3350802201fc745cbac7eb8003e5994c54072a98b0b050a1c84bfce78c203c34d25dd67a5[ALL] 03f523263d9dc9e36b6bda5b447104b290d87f8c5c2c89f86f439446147184dbc5",
            "hex": "473044022015f91130136a05c7a8a3aa6b326b0d9d93b1c16e8ad515fa90b370ced9f3350802201fc745cbac7eb8003e5994c54072a98b0b050a1c84bfce78c203c34d25dd67a5012103f523263d9dc9e36b6bda5b447104b290d87f8c5c2c89f86f439446147184dbc5"
          },
          "sequence": 4294967295
        }, 
        {
          "txid": "1fd58f95ef87b84f841f659eff2323ede9dd6c769fcb485b68682e5402a8487d",
          "vout": 1,
          "scriptSig": {
            "asm": "30450221009bb3fbb4b03ff287238a32003d4d74195c08d9bfcc79de9a76cb73ee18fe48980220259cfd7e008c5a79cc02de1df6e17d2ba0e666c161509f790a5001c427e9a56e[ALL] 03ef264feb6b4942fef77cfe6050db956b9be5462d0af6d0d68f5973a06d39d16f",
            "hex": "4830450221009bb3fbb4b03ff287238a32003d4d74195c08d9bfcc79de9a76cb73ee18fe48980220259cfd7e008c5a79cc02de1df6e17d2ba0e666c161509f790a5001c427e9a56e012103ef264feb6b4942fef77cfe6050db956b9be5462d0af6d0d68f5973a06d39d16f"
          },
          "sequence": 4294967295
        }
      ],
      "vout": [
        {
          "value": 3.52178910,
          "n": 0,
          "scriptPubKey": {
            "asm": "OP_DUP OP_HASH160 e0e46171ce7912a54a9538c2e4115a5de4956f3c OP_EQUALVERIFY OP_CHECKSIG",
            "hex": "76a914e0e46171ce7912a54a9538c2e4115a5de4956f3c88ac",
            "reqSigs": 1,
            "type": "pubkeyhash",
            "addresses": [
              "Lfj5DM9ravzZemCj2oFt1YVjXzszYqvvgg"
            ]
          }
        }
      ],
      "hex": "01000000026d1322cb30fab6434a8256a6a9312283ec557e00de97ef6faf423f25e187b305010000006a473044022015f91130136a05c7a8a3aa6b326b0d9d93b1c16e8ad515fa90b370ced9f3350802201fc745cbac7eb8003e5994c54072a98b0b050a1c84bfce78c203c34d25dd67a5012103f523263d9dc9e36b6bda5b447104b290d87f8c5c2c89f86f439446147184dbc5ffffffff7d48a802542e68685b48cb9f766cdde9ed2323ff9e651f844fb887ef958fd51f010000006b4830450221009bb3fbb4b03ff287238a32003d4d74195c08d9bfcc79de9a76cb73ee18fe48980220259cfd7e008c5a79cc02de1df6e17d2ba0e666c161509f790a5001c427e9a56e012103ef264feb6b4942fef77cfe6050db956b9be5462d0af6d0d68f5973a06d39d16fffffffff01ded2fd14000000001976a914e0e46171ce7912a54a9538c2e4115a5de4956f3c88ac00000000"
    }, 
    {
      "txid": "0f8df0073714c9d8e05a45e404244edbb02ddf8ac5afb30644d214c6b6c30372",
      "hash": "0f8df0073714c9d8e05a45e404244edbb02ddf8ac5afb30644d214c6b6c30372",
      "version": 1,
      "size": 226,
      "vsize": 226,
      "locktime": 0,
      "vin": [
        {
          "txid": "88301ef0e5c6bc0966898397574a2e0e40cd4ef58883748dfb7ce97858c33ee4",
          "vout": 1,
          "scriptSig": {
            "asm": "30450221008d8c0ec4217b15d1a23c2f8bcc28d128fb1f005181d6e002ad86c335e8cf8e7402204c1bdc970cc441604c9e46136b5961028b76982f5476bd2905cf6b4969a241e6[ALL] 03f0cca4bac088eb49c5713493772c6b049cad4e95e3a06039bc50cf959001a821",
            "hex": "4830450221008d8c0ec4217b15d1a23c2f8bcc28d128fb1f005181d6e002ad86c335e8cf8e7402204c1bdc970cc441604c9e46136b5961028b76982f5476bd2905cf6b4969a241e6012103f0cca4bac088eb49c5713493772c6b049cad4e95e3a06039bc50cf959001a821"
          },
          "sequence": 4294967295
        }
      ],
      "vout": [
        {
          "value": 26.86675635,
          "n": 0,
          "scriptPubKey": {
            "asm": "OP_DUP OP_HASH160 0de1b782fe58147ccb36129ad0af2c80e61e2eb3 OP_EQUALVERIFY OP_CHECKSIG",
            "hex": "76a9140de1b782fe58147ccb36129ad0af2c80e61e2eb388ac",
            "reqSigs": 1,
            "type": "pubkeyhash",
            "addresses": [
              "LLVMSnezTi7NvdAfsF1s5wTbkE3tvvVt7q"
            ]
          }
        }, 
        {
          "value": 191.90740422,
          "n": 1,
          "scriptPubKey": {
            "asm": "OP_DUP OP_HASH160 3200781325c41db95bfdeef8bee45cb77035ca0a OP_EQUALVERIFY OP_CHECKSIG",
            "hex": "76a9143200781325c41db95bfdeef8bee45cb77035ca0a88ac",
            "reqSigs": 1,
            "type": "pubkeyhash",
            "addresses": [
              "LPnLcPpC65oNsJFdX99ZGfEV9hp2ubu7Vw"
            ]
          }
        }
      ],
      "hex": "0100000001e43ec35878e97cfb8d748388f54ecd400e2e4a579783896609bcc6e5f01e3088010000006b4830450221008d8c0ec4217b15d1a23c2f8bcc28d128fb1f005181d6e002ad86c335e8cf8e7402204c1bdc970cc441604c9e46136b5961028b76982f5476bd2905cf6b4969a241e6012103f0cca4bac088eb49c5713493772c6b049cad4e95e3a06039bc50cf959001a821ffffffff02b36a23a0000000001976a9140de1b782fe58147ccb36129ad0af2c80e61e2eb388acc675db77040000001976a9143200781325c41db95bfdeef8bee45cb77035ca0a88ac00000000"
    }, 
    {
      "txid": "f4d80c98d07b4fc09e9055bd812f18347c6771d2daadcbd7593d53f898f08d28",
      "hash": "f4d80c98d07b4fc09e9055bd812f18347c6771d2daadcbd7593d53f898f08d28",
      "version": 1,
      "size": 225,
      "vsize": 225,
      "locktime": 0,
      "vin": [
        {
          "txid": "7bbc92573efc1bec6f1f8be756d65d6f2653f031cbd90068ed459606dd1c5b86",
          "vout": 0,
          "scriptSig": {
            "asm": "30440220175b26459aa70a8a4387a8e40a456ab085849f1bdc0023f1608bee2d51eb610902206342c80dd7d09472cdcf8eea5e77fef2f02951e5276ffe08d4ca545e20986ce9[ALL] 0320082099ab09ce0e724dcd160a085e555785f95acfb6787f508885fb22172dd8",
            "hex": "4730440220175b26459aa70a8a4387a8e40a456ab085849f1bdc0023f1608bee2d51eb610902206342c80dd7d09472cdcf8eea5e77fef2f02951e5276ffe08d4ca545e20986ce901210320082099ab09ce0e724dcd160a085e555785f95acfb6787f508885fb22172dd8"
          },
          "sequence": 4294967295
        }
      ],
      "vout": [
        {
          "value": 1.36594044,
          "n": 0,
          "scriptPubKey": {
            "asm": "OP_DUP OP_HASH160 aca55b3c4f6df9f451b411ca869b542715a806af OP_EQUALVERIFY OP_CHECKSIG",
            "hex": "76a914aca55b3c4f6df9f451b411ca869b542715a806af88ac",
            "reqSigs": 1,
            "type": "pubkeyhash",
            "addresses": [
              "LaxpaNUsrTYZ9oXf4dbNWaSRdFjD1VkRaB"
            ]
          }
        }, 
        {
          "value": 3.80582680,
          "n": 1,
          "scriptPubKey": {
            "asm": "OP_DUP OP_HASH160 850710b7d6b282fea0a632279818c12ec85deee1 OP_EQUALVERIFY OP_CHECKSIG",
            "hex": "76a914850710b7d6b282fea0a632279818c12ec85deee188ac",
            "reqSigs": 1,
            "type": "pubkeyhash",
            "addresses": [
              "LXMLbddsd41s8s2b9r3zPPvMFwFfkrHdMb"
            ]
          }
        }
      ],
      "hex": "0100000001865b1cdd069645ed6800d9cb31f053266f5dd656e78b1f6fec1bfc3e5792bc7b000000006a4730440220175b26459aa70a8a4387a8e40a456ab085849f1bdc0023f1608bee2d51eb610902206342c80dd7d09472cdcf8eea5e77fef2f02951e5276ffe08d4ca545e20986ce901210320082099ab09ce0e724dcd160a085e555785f95acfb6787f508885fb22172dd8ffffffff027c422408000000001976a914aca55b3c4f6df9f451b411ca869b542715a806af88ac183baf16000000001976a914850710b7d6b282fea0a632279818c12ec85deee188ac00000000"
    }, 
    {
      "txid": "c6e5617e61895849be30bba173134121c5a9eb58e8a7014a35c634ee14d91730",
      "hash": "c6e5617e61895849be30bba173134121c5a9eb58e8a7014a35c634ee14d91730",
      "version": 2,
      "size": 225,
      "vsize": 225,
      "locktime": 1358835,
      "vin": [
        {
          "txid": "d573766f4d597c8db06e0aff74207796f21f6593b406f9d6f45509d52ca41d57",
          "vout": 1,
          "scriptSig": {
            "asm": "304402207c6a0f2d13a65fd4302bd82aaa9908851c4ea34f913912fb79ed2fa6746e75e902200a198cec4c88b8b586ec721e5f4c279fb84784c15b92f542ca0bf02a1a71bab8[ALL] 03094a804b71b88822879d9d925b8e86714a4fc5468ecab665e887f25ead6a3732",
            "hex": "47304402207c6a0f2d13a65fd4302bd82aaa9908851c4ea34f913912fb79ed2fa6746e75e902200a198cec4c88b8b586ec721e5f4c279fb84784c15b92f542ca0bf02a1a71bab8012103094a804b71b88822879d9d925b8e86714a4fc5468ecab665e887f25ead6a3732"
          },
          "sequence": 4294967294
        }
      ],
      "vout": [
        {
          "value": 0.73304418,
          "n": 0,
          "scriptPubKey": {
            "asm": "OP_DUP OP_HASH160 b34610f4fd1e2daf6da5b16335c7b90dc3774993 OP_EQUALVERIFY OP_CHECKSIG",
            "hex": "76a914b34610f4fd1e2daf6da5b16335c7b90dc377499388ac",
            "reqSigs": 1,
            "type": "pubkeyhash",
            "addresses": [
              "LbZs9qa5qTD11SXQr23mimC9W1BrC4xWUH"
            ]
          }
        }, 
        {
          "value": 155.67450005,
          "n": 1,
          "scriptPubKey": {
            "asm": "OP_DUP OP_HASH160 0bc06fef6861f2688d1c8de894032736c3b2ae93 OP_EQUALVERIFY OP_CHECKSIG",
            "hex": "76a9140bc06fef6861f2688d1c8de894032736c3b2ae9388ac",
            "reqSigs": 1,
            "type": "pubkeyhash",
            "addresses": [
              "LLJ6E6c7k2d5cTGSwqjzKSXL2r4Q4PUgdN"
            ]
          }
        }
      ],
      "hex": "0200000001571da42cd50955f4d6f906b493651ff296772074ff0a6eb08d7c594d6f7673d5010000006a47304402207c6a0f2d13a65fd4302bd82aaa9908851c4ea34f913912fb79ed2fa6746e75e902200a198cec4c88b8b586ec721e5f4c279fb84784c15b92f542ca0bf02a1a71bab8012103094a804b71b88822879d9d925b8e86714a4fc5468ecab665e887f25ead6a3732feffffff0262895e04000000001976a914b34610f4fd1e2daf6da5b16335c7b90dc377499388ac956fe49f030000001976a9140bc06fef6861f2688d1c8de894032736c3b2ae9388acf3bb1400"
    }, 
    {
      "txid": "0cce520da11592aab5dcee140c37d5dbae27fee7f542a983bfebb7a2766afc3d",
      "hash": "0cce520da11592aab5dcee140c37d5dbae27fee7f542a983bfebb7a2766afc3d",
      "version": 1,
      "size": 225,
      "vsize": 225,
      "locktime": 0,
      "vin": [
        {
          "txid": "b236d7370d8b344b5c744aa359726ce74488d6d691e18aa1e5af07e276e6d94c",
          "vout": 243,
          "scriptSig": {
            "asm": "304402206c399c4ca7e1f82292cfcdb160351b9cf956f36b04fbb5bbae139a711633dba702206b0de9a5d3b32d400d94347c07e6292e7e768f4454a89fefb7a4f69e1d601ee6[ALL] 03b117232d6f233ee77fed45d7bf8630405f9a828b6d84979fc563430a29f75ef2",
            "hex": "47304402206c399c4ca7e1f82292cfcdb160351b9cf956f36b04fbb5bbae139a711633dba702206b0de9a5d3b32d400d94347c07e6292e7e768f4454a89fefb7a4f69e1d601ee6012103b117232d6f233ee77fed45d7bf8630405f9a828b6d84979fc563430a29f75ef2"
          },
          "sequence": 4294967295
        }
      ],
      "vout": [
        {
          "value": 0.00057550,
          "n": 0,
          "scriptPubKey": {
            "asm": "OP_DUP OP_HASH160 0ce77362484bf2654142a34d8921dd605ce8da92 OP_EQUALVERIFY OP_CHECKSIG",
            "hex": "76a9140ce77362484bf2654142a34d8921dd605ce8da9288ac",
            "reqSigs": 1,
            "type": "pubkeyhash",
            "addresses": [
              "LLQBdzY71Ma4HNpPjL2nzMiUqSnqxS5xVE"
            ]
          }
        }, 
        {
          "value": 0.04917096,
          "n": 1,
          "scriptPubKey": {
            "asm": "OP_DUP OP_HASH160 bd4ed5964bab5e6723459c2b891f69812782bf5c OP_EQUALVERIFY OP_CHECKSIG",
            "hex": "76a914bd4ed5964bab5e6723459c2b891f69812782bf5c88ac",
            "reqSigs": 1,
            "type": "pubkeyhash",
            "addresses": [
              "LcUvQySKge792PQNL83Zbv8tcYZfARcxLH"
            ]
          }
        }
      ],
      "hex": "01000000014cd9e676e207afe5a18ae191d6d68844e76c7259a34a745c4b348b0d37d736b2f30000006a47304402206c399c4ca7e1f82292cfcdb160351b9cf956f36b04fbb5bbae139a711633dba702206b0de9a5d3b32d400d94347c07e6292e7e768f4454a89fefb7a4f69e1d601ee6012103b117232d6f233ee77fed45d7bf8630405f9a828b6d84979fc563430a29f75ef2ffffffff02cee00000000000001976a9140ce77362484bf2654142a34d8921dd605ce8da9288ac68074b00000000001976a914bd4ed5964bab5e6723459c2b891f69812782bf5c88ac00000000"
    }, 
    {
      "txid": "2b9c547c1616d5b2436afec304a781982f3a14f83fd785618c163e2df02cd553",
      "hash": "2b9c547c1616d5b2436afec304a781982f3a14f83fd785618c163e2df02cd553",
      "version": 2,
      "size": 225,
      "vsize": 225,
      "locktime": 1358795,
      "vin": [
        {
          "txid": "7a578ad249d57097deb4ea73cb18e58401f6e3be0733aee32ec3a44a6431af76",
          "vout": 0,
          "scriptSig": {
            "asm": "304402200bf9800b0da9779a9004cf4c905f70db0099e932ce4e68f3e1716c219edd653e02201be4eeb6002111cb760cc8078bc62798a3486bb5acc06928aec350432d058ad3[ALL] 036d9623677b047134c3f461716bc9f2d406d6ee4e20263215f334f85f41bfbc46",
            "hex": "47304402200bf9800b0da9779a9004cf4c905f70db0099e932ce4e68f3e1716c219edd653e02201be4eeb6002111cb760cc8078bc62798a3486bb5acc06928aec350432d058ad30121036d9623677b047134c3f461716bc9f2d406d6ee4e20263215f334f85f41bfbc46"
          },
          "sequence": 4294967294
        }
      ],
      "vout": [
        {
          "value": 2.08000000,
          "n": 0,
          "scriptPubKey": {
            "asm": "OP_DUP OP_HASH160 5f732de38c519d858a80a7b2e00f614f9775f8ff OP_EQUALVERIFY OP_CHECKSIG",
            "hex": "76a9145f732de38c519d858a80a7b2e00f614f9775f8ff88ac",
            "reqSigs": 1,
            "type": "pubkeyhash",
            "addresses": [
              "LTveSEPmwyayDudBxu2MWDoz29N2hXqeCG"
            ]
          }
        }, 
        {
          "value": 198.21605893,
          "n": 1,
          "scriptPubKey": {
            "asm": "OP_DUP OP_HASH160 1cc21314ac232922fd4cf87af20da8c8ed750474 OP_EQUALVERIFY OP_CHECKSIG",
            "hex": "76a9141cc21314ac232922fd4cf87af20da8c8ed75047488ac",
            "reqSigs": 1,
            "type": "pubkeyhash",
            "addresses": [
              "LMr1g7saWGMapq2zoCekWJYhtyKGVuUwqe"
            ]
          }
        }
      ],
      "hex": "020000000176af31644aa4c32ee3ae3307bee3f60184e518cb73eab4de9770d549d28a577a000000006a47304402200bf9800b0da9779a9004cf4c905f70db0099e932ce4e68f3e1716c219edd653e02201be4eeb6002111cb760cc8078bc62798a3486bb5acc06928aec350432d058ad30121036d9623677b047134c3f461716bc9f2d406d6ee4e20263215f334f85f41bfbc46feffffff0200d4650c000000001976a9145f732de38c519d858a80a7b2e00f614f9775f8ff88ac05b4759d040000001976a9141cc21314ac232922fd4cf87af20da8c8ed75047488accbbb1400"
    }, 
    {
      "txid": "1788f08aa620a6efe1a27f3e5f89fe24163cfe1dbe23ccd265969345c00ec99a",
      "hash": "1788f08aa620a6efe1a27f3e5f89fe24163cfe1dbe23ccd265969345c00ec99a",
      "version": 2,
      "size": 225,
      "vsize": 225,
      "locktime": 1358835,
      "vin": [
        {
          "txid": "a2b88f076c5d6a2b0e8714aef0d7aa4fb831ec09ad233cb52462073f3941435d",
          "vout": 0,
          "scriptSig": {
            "asm": "30440220187ce45c3ea59ea1fdae1ba59228e18246e3b60cef872a78bef485080c8931d40220337d4a27869e116e8b7d2f964cd31376d8c93710adb2d42f4c6ef2f79aef5068[ALL] 03194e72e11c4a293ede1434d698af6ad6d8ffb7830f011b9d9e0129c03d47a07f",
            "hex": "4730440220187ce45c3ea59ea1fdae1ba59228e18246e3b60cef872a78bef485080c8931d40220337d4a27869e116e8b7d2f964cd31376d8c93710adb2d42f4c6ef2f79aef5068012103194e72e11c4a293ede1434d698af6ad6d8ffb7830f011b9d9e0129c03d47a07f"
          },
          "sequence": 4294967294
        }
      ],
      "vout": [
        {
          "value": 0.43727185,
          "n": 0,
          "scriptPubKey": {
            "asm": "OP_DUP OP_HASH160 4b9b17d08b2e95920319b61b5e37b1a002e2f111 OP_EQUALVERIFY OP_CHECKSIG",
            "hex": "76a9144b9b17d08b2e95920319b61b5e37b1a002e2f11188ac",
            "reqSigs": 1,
            "type": "pubkeyhash",
            "addresses": [
              "LS7ijeomMggLm1dcCJ6rC2W4EEAkjDrQWH"
            ]
          }
        }, 
        {
          "value": 218.89842817,
          "n": 1,
          "scriptPubKey": {
            "asm": "OP_DUP OP_HASH160 2f0d3a8a16a60602cae5a8643d6234ef5cd3175d OP_EQUALVERIFY OP_CHECKSIG",
            "hex": "76a9142f0d3a8a16a60602cae5a8643d6234ef5cd3175d88ac",
            "reqSigs": 1,
            "type": "pubkeyhash",
            "addresses": [
              "LPWjsNbRR3AoBuDqa4AerEhhvdRisKjRuV"
            ]
          }
        }
      ],
      "hex": "02000000015d4341393f076224b53c23ad09ec31b84faad7f0ae14870e2b6a5d6c078fb8a2000000006a4730440220187ce45c3ea59ea1fdae1ba59228e18246e3b60cef872a78bef485080c8931d40220337d4a27869e116e8b7d2f964cd31376d8c93710adb2d42f4c6ef2f79aef5068012103194e72e11c4a293ede1434d698af6ad6d8ffb7830f011b9d9e0129c03d47a07ffeffffff0251399b02000000001976a9144b9b17d08b2e95920319b61b5e37b1a002e2f11188ac817ebc18050000001976a9142f0d3a8a16a60602cae5a8643d6234ef5cd3175d88acf3bb1400"
    }, 
    {
      "txid": "ad1ac0c75b391dc37b01169f4df7b32cc8669b3b9688407dd91f2e46be84050e",
      "hash": "ad1ac0c75b391dc37b01169f4df7b32cc8669b3b9688407dd91f2e46be84050e",
      "version": 1,
      "size": 226,
      "vsize": 226,
      "locktime": 0,
      "vin": [
        {
          "txid": "6e300ef5eeeda9d8d359df26e1c65cff3978439ceae4ba39859c462ab11df872",
          "vout": 0,
          "scriptSig": {
            "asm": "3045022100b5b11697566e6427797ea839c536540b23b621d064fd0ea4d5165c897cbf533602207420951a6b27a30aee8e34034230ef7c4a05323656cff72e61deacb645be6391[ALL] 02446d814cf527db1b077b19d5ea7c5b8dc73479c64c5786e352b851440b0e7327",
            "hex": "483045022100b5b11697566e6427797ea839c536540b23b621d064fd0ea4d5165c897cbf533602207420951a6b27a30aee8e34034230ef7c4a05323656cff72e61deacb645be6391012102446d814cf527db1b077b19d5ea7c5b8dc73479c64c5786e352b851440b0e7327"
          },
          "sequence": 4294967295
        }
      ],
      "vout": [
        {
          "value": 0.54634400,
          "n": 0,
          "scriptPubKey": {
            "asm": "OP_DUP OP_HASH160 b9625bdf2149cd9a870d7d4f3ecc187b4c992dca OP_EQUALVERIFY OP_CHECKSIG",
            "hex": "76a914b9625bdf2149cd9a870d7d4f3ecc187b4c992dca88ac",
            "reqSigs": 1,
            "type": "pubkeyhash",
            "addresses": [
              "Lc8B6o7vQGSusfyzgpmyLFgZgLZvPZMVZP"
            ]
          }
        }, 
        {
          "value": 0.24376475,
          "n": 1,
          "scriptPubKey": {
            "asm": "OP_DUP OP_HASH160 4525d71a1647639ff31191b0a12718845179bfbc OP_EQUALVERIFY OP_CHECKSIG",
            "hex": "76a9144525d71a1647639ff31191b0a12718845179bfbc88ac",
            "reqSigs": 1,
            "type": "pubkeyhash",
            "addresses": [
              "LRXaDdokuWGV8SwvyVQP2y2AFun9jWeUPn"
            ]
          }
        }
      ],
      "hex": "010000000172f81db12a469c8539bae4ea9c437839ff5cc6e126df59d3d8a9edeef50e306e000000006b483045022100b5b11697566e6427797ea839c536540b23b621d064fd0ea4d5165c897cbf533602207420951a6b27a30aee8e34034230ef7c4a05323656cff72e61deacb645be6391012102446d814cf527db1b077b19d5ea7c5b8dc73479c64c5786e352b851440b0e7327ffffffff02a0a74103000000001976a914b9625bdf2149cd9a870d7d4f3ecc187b4c992dca88ac9bf47301000000001976a9144525d71a1647639ff31191b0a12718845179bfbc88ac00000000"
    }, 
    {
      "txid": "21210a287a9cbcd1eb6d47cdc2db3c35140c334970ff67f7087c88931e70f25f",
      "hash": "21210a287a9cbcd1eb6d47cdc2db3c35140c334970ff67f7087c88931e70f25f",
      "version": 1,
      "size": 226,
      "vsize": 226,
      "locktime": 0,
      "vin": [
        {
          "txid": "4d0902fb8cfc56c420c999f2bd564c3329c5c96a6eb641e2247bbab7d582fc20",
          "vout": 1,
          "scriptSig": {
            "asm": "3045022100b3eade609edf624f07fab3049bf826736d4fb3684fd7bc4d0b007a61122f90c402201fa48e624535d8039d5a1f384896eddd3e33be752bca987ad1a8a64781e36e5b[ALL] 027efe2d28e500427f1030b439de71ead7c2abafba551c60c3edf33aedf344f872",
            "hex": "483045022100b3eade609edf624f07fab3049bf826736d4fb3684fd7bc4d0b007a61122f90c402201fa48e624535d8039d5a1f384896eddd3e33be752bca987ad1a8a64781e36e5b0121027efe2d28e500427f1030b439de71ead7c2abafba551c60c3edf33aedf344f872"
          },
          "sequence": 4294967295
        }
      ],
      "vout": [
        {
          "value": 21.31220375,
          "n": 0,
          "scriptPubKey": {
            "asm": "OP_DUP OP_HASH160 11b115588fb890479355ecf5486449a01506f6dd OP_EQUALVERIFY OP_CHECKSIG",
            "hex": "76a91411b115588fb890479355ecf5486449a01506f6dd88ac",
            "reqSigs": 1,
            "type": "pubkeyhash",
            "addresses": [
              "LLqVtSfNAWzUdXWpzZS9YBw6wvDYmHeyDP"
            ]
          }
        }, 
        {
          "value": 1.15942059,
          "n": 1,
          "scriptPubKey": {
            "asm": "OP_DUP OP_HASH160 ba5f4e6b4e4ffb44e65699cb41fc8d243d38a1b8 OP_EQUALVERIFY OP_CHECKSIG",
            "hex": "76a914ba5f4e6b4e4ffb44e65699cb41fc8d243d38a1b888ac",
            "reqSigs": 1,
            "type": "pubkeyhash",
            "addresses": [
              "LcDQ7tkMNJwJwonafoFQWqBpDEqLs3YUqS"
            ]
          }
        }
      ],
      "hex": "010000000120fc82d5b7ba7b24e241b66e6ac9c529334c56bdf299c920c456fc8cfb02094d010000006b483045022100b3eade609edf624f07fab3049bf826736d4fb3684fd7bc4d0b007a61122f90c402201fa48e624535d8039d5a1f384896eddd3e33be752bca987ad1a8a64781e36e5b0121027efe2d28e500427f1030b439de71ead7c2abafba551c60c3edf33aedf344f872ffffffff0297d7077f000000001976a91411b115588fb890479355ecf5486449a01506f6dd88acab22e906000000001976a914ba5f4e6b4e4ffb44e65699cb41fc8d243d38a1b888ac00000000"
    }, 
    {
      "txid": "92c489242315e8705dbd345df6a3a26aa474d685795b2039742bae6b27bae068",
      "hash": "92c489242315e8705dbd345df6a3a26aa474d685795b2039742bae6b27bae068",
      "version": 1,
      "size": 372,
      "vsize": 372,
      "locktime": 1358835,
      "vin": [
        {
          "txid": "ed1870f406a5ba4ef783d250351da9bb081ab6e1e9f90479f1d6839028acda9f",
          "vout": 1,
          "scriptSig": {
            "asm": "304402203fed9210ceffccf3c07e22513922928daa989331020f1db17e8bf8557a97a38102206a28a71a4a3ec26301eaca39f43d8419aa94b93136375a951103757aa9b7488a[ALL] 0363a3075b5c528e2729e143a328da867e456473d9fd24fd9e42f9d8d7138f11fd",
            "hex": "47304402203fed9210ceffccf3c07e22513922928daa989331020f1db17e8bf8557a97a38102206a28a71a4a3ec26301eaca39f43d8419aa94b93136375a951103757aa9b7488a01210363a3075b5c528e2729e143a328da867e456473d9fd24fd9e42f9d8d7138f11fd"
          },
          "sequence": 4294967294
        }, 
        {
          "txid": "57487301321f7c912551ccad2f2b64dc97a954e1fcccd1b004065e648552cd61",
          "vout": 1,
          "scriptSig": {
            "asm": "3044022042f97a1531181e3a1b0b0abe5ba98bafadd51a33474b8118c8c334ee4fc0f09002201bd1c5ab50c8c65e586e55a21126d6021f18d38a7ef34ec364fe3d4250be39b5[ALL] 03c93635b69bb9ed1fd9b8401074ac5974601a70be8d4aacefb8b1d4ba0fb4a056",
            "hex": "473044022042f97a1531181e3a1b0b0abe5ba98bafadd51a33474b8118c8c334ee4fc0f09002201bd1c5ab50c8c65e586e55a21126d6021f18d38a7ef34ec364fe3d4250be39b5012103c93635b69bb9ed1fd9b8401074ac5974601a70be8d4aacefb8b1d4ba0fb4a056"
          },
          "sequence": 4294967294
        }
      ],
      "vout": [
        {
          "value": 2.01058400,
          "n": 0,
          "scriptPubKey": {
            "asm": "OP_DUP OP_HASH160 827026d57970b83d84ee512d9e6ba9c8a1e5c8a3 OP_EQUALVERIFY OP_CHECKSIG",
            "hex": "76a914827026d57970b83d84ee512d9e6ba9c8a1e5c8a388ac",
            "reqSigs": 1,
            "type": "pubkeyhash",
            "addresses": [
              "LX7eTb24CDUEKn2RkMd9uhHbasGCZtbLr4"
            ]
          }
        }, 
        {
          "value": 0.01594326,
          "n": 1,
          "scriptPubKey": {
            "asm": "OP_DUP OP_HASH160 bf4a61c4079289cf842abb5225924d559fcf6dcd OP_EQUALVERIFY OP_CHECKSIG",
            "hex": "76a914bf4a61c4079289cf842abb5225924d559fcf6dcd88ac",
            "reqSigs": 1,
            "type": "pubkeyhash",
            "addresses": [
              "LcfQRzoi58x6pYGvUg8E8BAqHV5U99aSUc"
            ]
          }
        }
      ],
      "hex": "01000000029fdaac289083d6f17904f9e9e1b61a08bba91d3550d283f74ebaa506f47018ed010000006a47304402203fed9210ceffccf3c07e22513922928daa989331020f1db17e8bf8557a97a38102206a28a71a4a3ec26301eaca39f43d8419aa94b93136375a951103757aa9b7488a01210363a3075b5c528e2729e143a328da867e456473d9fd24fd9e42f9d8d7138f11fdfeffffff61cd5285645e0604b0d1ccfce154a997dc642b2fadcc5125917c1f3201734857010000006a473044022042f97a1531181e3a1b0b0abe5ba98bafadd51a33474b8118c8c334ee4fc0f09002201bd1c5ab50c8c65e586e55a21126d6021f18d38a7ef34ec364fe3d4250be39b5012103c93635b69bb9ed1fd9b8401074ac5974601a70be8d4aacefb8b1d4ba0fb4a056feffffff0260e8fb0b000000001976a914827026d57970b83d84ee512d9e6ba9c8a1e5c8a388acd6531800000000001976a914bf4a61c4079289cf842abb5225924d559fcf6dcd88acf3bb1400"
    }
  ],
  "time": 1517198468,
  "mediantime": 1517198133,
  "nonce": 27578905,
  "bits": "1a042eae",
  "difficulty": 4011378.762614286,
  "chainwork": "000000000000000000000000000000000000000000000033718f3fccd21f65ec",
  "previousblockhash": "691a3578b559d5db61fa517cd696c684bfda1338553f37fbe2aa2e795944983f",
  "nextblockhash": "e18632e0448f09c055c4c38d4ba2dc3628fb6aca6467eec8e1ee1a93cfb41fd1"
}
