{
  "hash": "c637081c10b641f6e21c1637ff8ed8610b55132fe9374cdc7b66002c35366ff6",
  "confirmations": 2059,
  "strippedsize": 1078,
  "size": 1114,
  "weight": 4348,
  "height": 1358935,
  "version": 536870912,
  "versionHex": "20000000",
  "merkleroot": "eeccd03d92c2adc561aca78e9e8c4f196aef3e5720e2cf5a6481738fbfca555b",
  "tx": [
    {
      "txid": "189956f7be7272206f8428ffe84f01d23b0eb5adfa8e92d3161d8584e0174f0c",
      "hash": "2a2feb34870ab0473977930f65837ccb04338d4f4e32102a353484e808c36d00",
      "version": 1,
      "size": 244,
      "vsize": 217,
      "locktime": 0,
      "vin": [
        {
          "coinbase": "0357bc1404e7d86e5a08043071040d000000fabe6d6d315211e8f2bd4e1bae3f80ba22922daedc0ef5b098cf1da8c0788f69ebeb81b740000000000000000d2f6e6f64655374726174756d2f",
          "sequence": 0
        }
      ],
      "vout": [
        {
          "value": 25.00280800,
          "n": 0,
          "scriptPubKey": {
            "asm": "OP_DUP OP_HASH160 0c617fdb2ea42aed30a509595ee21ba3f6688db0 OP_EQUALVERIFY OP_CHECKSIG",
            "hex": "76a9140c617fdb2ea42aed30a509595ee21ba3f6688db088ac",
            "reqSigs": 1,
            "type": "pubkeyhash",
            "addresses": [
              "LLMRAtr3qBje2ySEa3CnZ55LA4TQMWnRY3"
            ]
          }
        }, 
        {
          "value": 0.00000000,
          "n": 1,
          "scriptPubKey": {
            "asm": "OP_RETURN aa21a9ed601b3972cf63b6dc398048de28290337ead3a2f5f23bb25b14503579f77fd2f7",
            "hex": "6a24aa21a9ed601b3972cf63b6dc398048de28290337ead3a2f5f23bb25b14503579f77fd2f7",
            "type": "nulldata"
          }
        }
      ],
      "hex": "010000000001010000000000000000000000000000000000000000000000000000000000000000ffffffff4c0357bc1404e7d86e5a08043071040d000000fabe6d6d315211e8f2bd4e1bae3f80ba22922daedc0ef5b098cf1da8c0788f69ebeb81b740000000000000000d2f6e6f64655374726174756d2f0000000002e0410795000000001976a9140c617fdb2ea42aed30a509595ee21ba3f6688db088ac0000000000000000266a24aa21a9ed601b3972cf63b6dc398048de28290337ead3a2f5f23bb25b14503579f77fd2f70120000000000000000000000000000000000000000000000000000000000000000000000000"
    }, 
    {
      "txid": "d5b081ddee587d093ede1495016d102ef8059b4e9baebf1b49d1f3f1ee75f8d8",
      "hash": "d5b081ddee587d093ede1495016d102ef8059b4e9baebf1b49d1f3f1ee75f8d8",
      "version": 2,
      "size": 225,
      "vsize": 225,
      "locktime": 1358933,
      "vin": [
        {
          "txid": "3c500ea801c78a3c1b74b51acdf488a605e12c57e4c8a3710f8d6e102ce1a4d4",
          "vout": 2,
          "scriptSig": {
            "asm": "3044022049ef3b6d79a7f9e5b4fc3f8a0f53a40a3a34e2fd08dcd13f3d17eafee76c22c90220549f9a2fc5b5017c7a548d46ca8c8a3d5614a57338d33d8fe3c09bc11811bc97[ALL] 033bc17e446f927e50f1a342aba6ecc46c2dbecc8bc58f338b6a02f3ec4a00f102",
            "hex": "473044022049ef3b6d79a7f9e5b4fc3f8a0f53a40a3a34e2fd08dcd13f3d17eafee76c22c90220549f9a2fc5b5017c7a548d46ca8c8a3d5614a57338d33d8fe3c09bc11811bc970121033bc17e446f927e50f1a342aba6ecc46c2dbecc8bc58f338b6a02f3ec4a00f102"
          },
          "sequence": 4294967294
        }
      ],
      "vout": [
        {
          "value": 5.90158694,
          "n": 0,
          "scriptPubKey": {
            "asm": "OP_DUP OP_HASH160 3f11e0d05ba17a87dbe6247df4cbd95b739d6f73 OP_EQUALVERIFY OP_CHECKSIG",
            "hex": "76a9143f11e0d05ba17a87dbe6247df4cbd95b739d6f7388ac",
            "reqSigs": 1,
            "type": "pubkeyhash",
            "addresses": [
              "LQySFVioxX7icfH6XEVNTZQoGaaDF8nwau"
            ]
          }
        }, 
        {
          "value": 0.35264528,
          "n": 1,
          "scriptPubKey": {
            "asm": "OP_DUP OP_HASH160 fe5f3eae65fde16494643047c3497224e0f50da6 OP_EQUALVERIFY OP_CHECKSIG",
            "hex": "76a914fe5f3eae65fde16494643047c3497224e0f50da688ac",
            "reqSigs": 1,
            "type": "pubkeyhash",
            "addresses": [
              "LiQwzfaobH3siXiK6J683yW8dqZC8XAe4E"
            ]
          }
        }
      ],
      "hex": "0200000001d4a4e12c106e8d0f71a3c8e4572ce105a688f4cd1ab5741b3c8ac701a80e503c020000006a473044022049ef3b6d79a7f9e5b4fc3f8a0f53a40a3a34e2fd08dcd13f3d17eafee76c22c90220549f9a2fc5b5017c7a548d46ca8c8a3d5614a57338d33d8fe3c09bc11811bc970121033bc17e446f927e50f1a342aba6ecc46c2dbecc8bc58f338b6a02f3ec4a00f102feffffff02661b2d23000000001976a9143f11e0d05ba17a87dbe6247df4cbd95b739d6f7388ac10181a02000000001976a914fe5f3eae65fde16494643047c3497224e0f50da688ac55bc1400"
    }, 
    {
      "txid": "730672ace13bffa249f62dd62c193d4a3807a9629afd3db1d3a831e720f515d2",
      "hash": "730672ace13bffa249f62dd62c193d4a3807a9629afd3db1d3a831e720f515d2",
      "version": 2,
      "size": 226,
      "vsize": 226,
      "locktime": 1358933,
      "vin": [
        {
          "txid": "31db3b373a456703fb9d5fa682daf218424d842e4604a7e293004d24fb0651aa",
          "vout": 0,
          "scriptSig": {
            "asm": "304502210092283560cbb7207196f962df623147749928b8a0070e2ee197423af0f1b418f902206370ffd7b57d411cd68d193a5acf5843002b73b6e0aca457ffd87b7d398b9829[ALL] 026489d0efd00129dbcab5ffa966362fe3fa43afc0149dde8dafb3468c8fbb6960",
            "hex": "48304502210092283560cbb7207196f962df623147749928b8a0070e2ee197423af0f1b418f902206370ffd7b57d411cd68d193a5acf5843002b73b6e0aca457ffd87b7d398b98290121026489d0efd00129dbcab5ffa966362fe3fa43afc0149dde8dafb3468c8fbb6960"
          },
          "sequence": 4294967294
        }
      ],
      "vout": [
        {
          "value": 0.95195561,
          "n": 0,
          "scriptPubKey": {
            "asm": "OP_DUP OP_HASH160 845964440e41d0d792991d6ea310f57e479ef924 OP_EQUALVERIFY OP_CHECKSIG",
            "hex": "76a914845964440e41d0d792991d6ea310f57e479ef92488ac",
            "reqSigs": 1,
            "type": "pubkeyhash",
            "addresses": [
              "LXHkYaNu6RpH98CFhz3v7sfU27uv7eeyi7"
            ]
          }
        }, 
        {
          "value": 1.37138515,
          "n": 1,
          "scriptPubKey": {
            "asm": "OP_DUP OP_HASH160 e8861ceba4115d3c203b160a0dda4f7a9cf028ff OP_EQUALVERIFY OP_CHECKSIG",
            "hex": "76a914e8861ceba4115d3c203b160a0dda4f7a9cf028ff88ac",
            "reqSigs": 1,
            "type": "pubkeyhash",
            "addresses": [
              "LgRRh3sDtontUiwtaDrJaXCbUmJ5gwY3oW"
            ]
          }
        }
      ],
      "hex": "0200000001aa5106fb244d0093e2a704462e844d4218f2da82a65f9dfb0367453a373bdb31000000006b48304502210092283560cbb7207196f962df623147749928b8a0070e2ee197423af0f1b418f902206370ffd7b57d411cd68d193a5acf5843002b73b6e0aca457ffd87b7d398b98290121026489d0efd00129dbcab5ffa966362fe3fa43afc0149dde8dafb3468c8fbb6960feffffff02a991ac05000000001976a914845964440e41d0d792991d6ea310f57e479ef92488ac53912c08000000001976a914e8861ceba4115d3c203b160a0dda4f7a9cf028ff88ac55bc1400"
    }, 
    {
      "txid": "ca71154e68d0dc9fa3e300384e8de06b3a485e2983e3718d509f57a4ab213037",
      "hash": "ca71154e68d0dc9fa3e300384e8de06b3a485e2983e3718d509f57a4ab213037",
      "version": 1,
      "size": 338,
      "vsize": 338,
      "locktime": 0,
      "vin": [
        {
          "txid": "79ed92f1c3662084bd10cce8f2dfc585280fa67c5f99fdbc9d299a23ee0a91b9",
          "vout": 1,
          "scriptSig": {
            "asm": "30440220770f02e9763ff2ca94fa2e2c2c57158cd20c182000c0a72b77ec0c93087e8bc902206a6698980c99b5ab94e1076f38cb5e824ab9ec9d5d965f3b704857f1ed5115c7[ALL] 036f044d14e300af54cb46448e3c1586d0324bdb0e5ba88bbb2b445b6d214daf46",
            "hex": "4730440220770f02e9763ff2ca94fa2e2c2c57158cd20c182000c0a72b77ec0c93087e8bc902206a6698980c99b5ab94e1076f38cb5e824ab9ec9d5d965f3b704857f1ed5115c70121036f044d14e300af54cb46448e3c1586d0324bdb0e5ba88bbb2b445b6d214daf46"
          },
          "sequence": 4294967295
        }, 
        {
          "txid": "19ed2a7df7bf3fffda6a80d2d83e7d3d5b1b0fd6cb837f5a05eab7c813b79b69",
          "vout": 0,
          "scriptSig": {
            "asm": "3044022053a4bc3f198a0e98cb6899c663c7944818dd471291d1a1990f6a1c5143611e0c0220431ea8f73299baf839038af9ddd5378b2e8831805b619fbd183074740264419b[ALL] 02eaa708b6aa6edfc1685fbc89f4b3bd0fe83acbc2454b3418a3da694f08acf007",
            "hex": "473044022053a4bc3f198a0e98cb6899c663c7944818dd471291d1a1990f6a1c5143611e0c0220431ea8f73299baf839038af9ddd5378b2e8831805b619fbd183074740264419b012102eaa708b6aa6edfc1685fbc89f4b3bd0fe83acbc2454b3418a3da694f08acf007"
          },
          "sequence": 4294967295
        }
      ],
      "vout": [
        {
          "value": 81.28290730,
          "n": 0,
          "scriptPubKey": {
            "asm": "OP_DUP OP_HASH160 6c2614c7b45ef8dfa8dc83e6739ddbe201d05ab0 OP_EQUALVERIFY OP_CHECKSIG",
            "hex": "76a9146c2614c7b45ef8dfa8dc83e6739ddbe201d05ab088ac",
            "reqSigs": 1,
            "type": "pubkeyhash",
            "addresses": [
              "LV5nrreyVZJVvptA9PZSD4ViegKh7Qa8MA"
            ]
          }
        }
      ],
      "hex": "0100000002b9910aee239a299dbcfd995f7ca60f2885c5dff2e8cc10bd842066c3f192ed79010000006a4730440220770f02e9763ff2ca94fa2e2c2c57158cd20c182000c0a72b77ec0c93087e8bc902206a6698980c99b5ab94e1076f38cb5e824ab9ec9d5d965f3b704857f1ed5115c70121036f044d14e300af54cb46448e3c1586d0324bdb0e5ba88bbb2b445b6d214daf46ffffffff699bb713c8b7ea055a7f83cbd60f1b5b3d7d3ed8d2806adaff3fbff77d2aed19000000006a473044022053a4bc3f198a0e98cb6899c663c7944818dd471291d1a1990f6a1c5143611e0c0220431ea8f73299baf839038af9ddd5378b2e8831805b619fbd183074740264419b012102eaa708b6aa6edfc1685fbc89f4b3bd0fe83acbc2454b3418a3da694f08acf007ffffffff01aadf7be4010000001976a9146c2614c7b45ef8dfa8dc83e6739ddbe201d05ab088ac00000000"
    }
  ],
  "time": 1517213915,
  "mediantime": 1517213594,
  "nonce": 1872230970,
  "bits": "1a042eae",
  "difficulty": 4011378.762614286,
  "chainwork": "00000000000000000000000000000000000000000000003388fdcd2a1bf449b0",
  "previousblockhash": "f94b347913e33bb980fb9a7f20aa0cc81dfd09cd7ad905d0dd39f05ff820eafb",
  "nextblockhash": "4f5af71e272c938d7759ed6320e0c1cbf79a874e8f1336ae95eececc765d58cc"
}
