{
  "hash": "c7bffda43dea54d55e58bb0df40188e920972f73d1980ed57f4a5a750d603bc9",
  "confirmations": 2577,
  "strippedsize": 234,
  "size": 234,
  "weight": 936,
  "height": 1358418,
  "version": 536870912,
  "versionHex": "20000000",
  "merkleroot": "e3fd2b7ee33dfd475faca524845081459a03e56cd7faed9b547f220bbf39f5d5",
  "tx": [
    {
      "txid": "e3fd2b7ee33dfd475faca524845081459a03e56cd7faed9b547f220bbf39f5d5",
      "hash": "e3fd2b7ee33dfd475faca524845081459a03e56cd7faed9b547f220bbf39f5d5",
      "version": 1,
      "size": 153,
      "vsize": 153,
      "locktime": 0,
      "vin": [
        {
          "coinbase": "0352ba14045a6db5412cfabe6d6d50f758eb1f0ec47a7be0347d1d3525346c425447d7b802f3b487b5d9df9224024000000000000000042f4c502f082200953e82000000",
          "sequence": 4294967295
        }
      ],
      "vout": [
        {
          "value": 25.00000000,
          "n": 0,
          "scriptPubKey": {
            "asm": "OP_DUP OP_HASH160 57757ed2ecf2052ff3126c397aca7defb9ca2cec OP_EQUALVERIFY OP_CHECKSIG",
            "hex": "76a91457757ed2ecf2052ff3126c397aca7defb9ca2cec88ac",
            "reqSigs": 1,
            "type": "pubkeyhash",
            "addresses": [
              "LTCPodGk5FwcJaRzH9yKnwicxzFUbxp6tN"
            ]
          }
        }
      ],
      "hex": "01000000010000000000000000000000000000000000000000000000000000000000000000ffffffff440352ba14045a6db5412cfabe6d6d50f758eb1f0ec47a7be0347d1d3525346c425447d7b802f3b487b5d9df9224024000000000000000042f4c502f082200953e82000000ffffffff0100f90295000000001976a91457757ed2ecf2052ff3126c397aca7defb9ca2cec88ac00000000"
    }
  ],
  "time": 1517139265,
  "mediantime": 1517138647,
  "nonce": 3988776123,
  "bits": "1a047f14",
  "difficulty": 3731199.183374282,
  "chainwork": "0000000000000000000000000000000000000000000000331378d9ab4f1e736e",
  "previousblockhash": "562884ed354016cb61554b77a22195e5e90e99fa471976af1bf2de73c5fbb31f",
  "nextblockhash": "097d8958cb00df6c7819463dec2a18942a9391bac958a1160ff71a51c7d459ce"
}
