{
  "hash": "c832f7bbbccc88c2834ede8f5ff7ac0e337be686f689fec8a1414797767e6dd3",
  "confirmations": 3577,
  "strippedsize": 266,
  "size": 266,
  "weight": 1064,
  "height": 1357418,
  "version": 536870912,
  "versionHex": "20000000",
  "merkleroot": "b592e91e6de89525615738c857e85c6984dde683e2a6d25c8bdd1ef4e6bdb952",
  "tx": [
    {
      "txid": "b592e91e6de89525615738c857e85c6984dde683e2a6d25c8bdd1ef4e6bdb952",
      "hash": "b592e91e6de89525615738c857e85c6984dde683e2a6d25c8bdd1ef4e6bdb952",
      "version": 1,
      "size": 185,
      "vsize": 185,
      "locktime": 957641019,
      "vin": [
        {
          "coinbase": "036ab6142cfabe6d6db3d7f467872537b7c1f1092621f6c474b9902802801ec26a393bda88f91a77e008000000f09f909f164d696e65642062792066756b61697a68616f3139383300000000000000000000000000000000000000000000000000000000",
          "sequence": 440
        }
      ],
      "vout": [
        {
          "value": 25.00000000,
          "n": 0,
          "scriptPubKey": {
            "asm": "OP_DUP OP_HASH160 aa3750aa18b8a0f3f0590731e1fab934856680cf OP_EQUALVERIFY OP_CHECKSIG",
            "hex": "76a914aa3750aa18b8a0f3f0590731e1fab934856680cf88ac",
            "reqSigs": 1,
            "type": "pubkeyhash",
            "addresses": [
              "LajyQBeZaBA1NkZDeY8YT5RYYVRkXMvb2T"
            ]
          }
        }
      ],
      "hex": "01000000010000000000000000000000000000000000000000000000000000000000000000ffffffff64036ab6142cfabe6d6db3d7f467872537b7c1f1092621f6c474b9902802801ec26a393bda88f91a77e008000000f09f909f164d696e65642062792066756b61697a68616f3139383300000000000000000000000000000000000000000000000000000000b80100000100f90295000000001976a914aa3750aa18b8a0f3f0590731e1fab934856680cf88ac3b711439"
    }
  ],
  "time": 1517000602,
  "mediantime": 1516999773,
  "nonce": 8167066,
  "bits": "1a047f14",
  "difficulty": 3731199.183374282,
  "chainwork": "000000000000000000000000000000000000000000000032351266757c17adde",
  "previousblockhash": "9ee4d79eac07bc3533ae2dc3ea093083f8fc4c915051a55eebf9a1d1661a6096",
  "nextblockhash": "f9bbb0214bfb2a3afee5c9a10e013fb50f3e6bb750be61ab34008c8daa9495f6"
}
