{
  "hash": "c8764b1798347f3c079b21a8ee3642129a0cff26df7ce9ae11132004e4232d0b",
  "confirmations": 53,
  "strippedsize": 1364,
  "size": 1400,
  "weight": 5492,
  "height": 1360938,
  "version": 536870912,
  "versionHex": "20000000",
  "merkleroot": "d36cdd835b47b340ab0ec0a92631fa389011e2cb53f7fd650b08326306c32c21",
  "tx": [
    {
      "txid": "98fe21d7e3bf19d53371df7b577ffe18fcd5ff3daa90b8a9d4d858aab7876437",
      "hash": "457545db73afb342f66a4add83b66994b6ca24af7eed0a7996e593345dc89747",
      "version": 1,
      "size": 236,
      "vsize": 209,
      "locktime": 0,
      "vin": [
        {
          "coinbase": "032ac414045a733bfe2cfabe6d6d09308fab944610331aa7039e585d1b517fa180a400776514553f99c34a12d5b94000000000000000042f4c502f0822008e3e40000000",
          "sequence": 4294967295
        }
      ],
      "vout": [
        {
          "value": 25.00108600,
          "n": 0,
          "scriptPubKey": {
            "asm": "OP_DUP OP_HASH160 57757ed2ecf2052ff3126c397aca7defb9ca2cec OP_EQUALVERIFY OP_CHECKSIG",
            "hex": "76a91457757ed2ecf2052ff3126c397aca7defb9ca2cec88ac",
            "reqSigs": 1,
            "type": "pubkeyhash",
            "addresses": [
              "LTCPodGk5FwcJaRzH9yKnwicxzFUbxp6tN"
            ]
          }
        }, 
        {
          "value": 0.00000000,
          "n": 1,
          "scriptPubKey": {
            "asm": "OP_RETURN aa21a9ede887a13d6405fe7a9bb15702ac13d3879fda0c8fe881420fd28f0c3a0a5be3ba",
            "hex": "6a24aa21a9ede887a13d6405fe7a9bb15702ac13d3879fda0c8fe881420fd28f0c3a0a5be3ba",
            "type": "nulldata"
          }
        }
      ],
      "hex": "010000000001010000000000000000000000000000000000000000000000000000000000000000ffffffff44032ac414045a733bfe2cfabe6d6d09308fab944610331aa7039e585d1b517fa180a400776514553f99c34a12d5b94000000000000000042f4c502f0822008e3e40000000ffffffff0238a10495000000001976a91457757ed2ecf2052ff3126c397aca7defb9ca2cec88ac0000000000000000266a24aa21a9ede887a13d6405fe7a9bb15702ac13d3879fda0c8fe881420fd28f0c3a0a5be3ba0120000000000000000000000000000000000000000000000000000000000000000000000000"
    }, 
    {
      "txid": "b5b6dcae4c5a3ca8c475e8b08d5f16cfd648fe45bc859d6bd6694cb258e9117a",
      "hash": "b5b6dcae4c5a3ca8c475e8b08d5f16cfd648fe45bc859d6bd6694cb258e9117a",
      "version": 2,
      "size": 225,
      "vsize": 225,
      "locktime": 1360936,
      "vin": [
        {
          "txid": "3acf4b83c7c8338be7afd5e8b592fdc7f08685d0a4e9154579d6808369ceb606",
          "vout": 3,
          "scriptSig": {
            "asm": "304402207ad5d9bf9a14fc8ae1d8c225c2348f857427ae466c8c4ff3dacb5c66bb5659f7022058a01d80c4489ce69cd58922688999e76e82d1e13c9d9bdf14dc8c07ecf4fc2f[ALL] 0349918905c2a0a83e9d7c284088ce1bc62e8a4d9a1038d7bc9cfc0facb1d9a37b",
            "hex": "47304402207ad5d9bf9a14fc8ae1d8c225c2348f857427ae466c8c4ff3dacb5c66bb5659f7022058a01d80c4489ce69cd58922688999e76e82d1e13c9d9bdf14dc8c07ecf4fc2f01210349918905c2a0a83e9d7c284088ce1bc62e8a4d9a1038d7bc9cfc0facb1d9a37b"
          },
          "sequence": 4294967294
        }
      ],
      "vout": [
        {
          "value": 3.20342385,
          "n": 0,
          "scriptPubKey": {
            "asm": "OP_DUP OP_HASH160 7c5f52bbd30d820ba46f7b0e00ce1953b3d92900 OP_EQUALVERIFY OP_CHECKSIG",
            "hex": "76a9147c5f52bbd30d820ba46f7b0e00ce1953b3d9290088ac",
            "reqSigs": 1,
            "type": "pubkeyhash",
            "addresses": [
              "LWZaFAqwZzsRKi5oXQ7sZGkS7ySsXdLoAk"
            ]
          }
        }, 
        {
          "value": 0.28539724,
          "n": 1,
          "scriptPubKey": {
            "asm": "OP_DUP OP_HASH160 97de7e1e594fd4cb95cf84acd0fce838483f6d0b OP_EQUALVERIFY OP_CHECKSIG",
            "hex": "76a91497de7e1e594fd4cb95cf84acd0fce838483f6d0b88ac",
            "reqSigs": 1,
            "type": "pubkeyhash",
            "addresses": [
              "LZ4xqErtZN6cHM8pDXcGaCV6pyANjM1UJS"
            ]
          }
        }
      ],
      "hex": "020000000106b6ce698380d6794515e9a4d08586f0c7fd92b5e8d5afe78b33c8c7834bcf3a030000006a47304402207ad5d9bf9a14fc8ae1d8c225c2348f857427ae466c8c4ff3dacb5c66bb5659f7022058a01d80c4489ce69cd58922688999e76e82d1e13c9d9bdf14dc8c07ecf4fc2f01210349918905c2a0a83e9d7c284088ce1bc62e8a4d9a1038d7bc9cfc0facb1d9a37bfeffffff0271091813000000001976a9147c5f52bbd30d820ba46f7b0e00ce1953b3d9290088ac4c7bb301000000001976a91497de7e1e594fd4cb95cf84acd0fce838483f6d0b88ac28c41400"
    }, 
    {
      "txid": "7afbb3b32a8e3534b4631674acdeb4f131f29010b09a0e6616ad4d4d8a478dbb",
      "hash": "7afbb3b32a8e3534b4631674acdeb4f131f29010b09a0e6616ad4d4d8a478dbb",
      "version": 1,
      "size": 225,
      "vsize": 225,
      "locktime": 0,
      "vin": [
        {
          "txid": "a2260de1d468393b99b7d54191273701d2de78bfe9fef3757b0f4ab4174a78da",
          "vout": 0,
          "scriptSig": {
            "asm": "3044022031e56bc4b9859115f69f8cec66115f0191a7d709f3a0b2233896674c798e38fb022013657c28f9417b66e166f7a4f6f2cae40f8d735ecc1e00ab216cc30359bd8cca[ALL] 03fd1817aef2d467a8765d8cc54ee4e721e7b2ca2f0c2ecd1f503da1a9afdec3a8",
            "hex": "473044022031e56bc4b9859115f69f8cec66115f0191a7d709f3a0b2233896674c798e38fb022013657c28f9417b66e166f7a4f6f2cae40f8d735ecc1e00ab216cc30359bd8cca012103fd1817aef2d467a8765d8cc54ee4e721e7b2ca2f0c2ecd1f503da1a9afdec3a8"
          },
          "sequence": 4294967295
        }
      ],
      "vout": [
        {
          "value": 1.96929178,
          "n": 0,
          "scriptPubKey": {
            "asm": "OP_DUP OP_HASH160 c4fc2d50f753f9a42ee16f5c126968e907952da5 OP_EQUALVERIFY OP_CHECKSIG",
            "hex": "76a914c4fc2d50f753f9a42ee16f5c126968e907952da588ac",
            "reqSigs": 1,
            "type": "pubkeyhash",
            "addresses": [
              "LdBWoNt5UCuQ8qoYxc6xcwp7EFz9LmYa7q"
            ]
          }
        }, 
        {
          "value": 17.14677641,
          "n": 1,
          "scriptPubKey": {
            "asm": "OP_DUP OP_HASH160 c696fd88059eecca8993864a462d79c5e3a7eccb OP_EQUALVERIFY OP_CHECKSIG",
            "hex": "76a914c696fd88059eecca8993864a462d79c5e3a7eccb88ac",
            "reqSigs": 1,
            "type": "pubkeyhash",
            "addresses": [
              "LdKzwBwD72SgWkh7X9EPfQebeHeCkR3TVo"
            ]
          }
        }
      ],
      "hex": "0100000001da784a17b44a0f7b75f3fee9bf78ded20137279141d5b7993b3968d4e10d26a2000000006a473044022031e56bc4b9859115f69f8cec66115f0191a7d709f3a0b2233896674c798e38fb022013657c28f9417b66e166f7a4f6f2cae40f8d735ecc1e00ab216cc30359bd8cca012103fd1817aef2d467a8765d8cc54ee4e721e7b2ca2f0c2ecd1f503da1a9afdec3a8ffffffff029ae6bc0b000000001976a914c4fc2d50f753f9a42ee16f5c126968e907952da588ac89e73366000000001976a914c696fd88059eecca8993864a462d79c5e3a7eccb88ac00000000"
    }, 
    {
      "txid": "f706f8f8f65476a55419e91ddfc982df556efb8e1cf5971944609d913fa6abc7",
      "hash": "f706f8f8f65476a55419e91ddfc982df556efb8e1cf5971944609d913fa6abc7",
      "version": 2,
      "size": 407,
      "vsize": 407,
      "locktime": 1360936,
      "vin": [
        {
          "txid": "e82e140aae4d719df3404b0a70c3288f500b4e4dbcb41ec368b582658d54ded9",
          "vout": 0,
          "scriptSig": {
            "asm": "304502210081df9f0ae0120e06c6bec702afa4ea69155315b94c54860b52a1fcc0c70431e802204c7563121c6b3dd49a78d3e09a741d43d971d1c1f9fa9e5db9ce217c4e4a2e79[ALL] 030335fed90da76a0bea3e8ef7d6dee2a655e4e773f02cebb73c39c0e4d3cee597",
            "hex": "48304502210081df9f0ae0120e06c6bec702afa4ea69155315b94c54860b52a1fcc0c70431e802204c7563121c6b3dd49a78d3e09a741d43d971d1c1f9fa9e5db9ce217c4e4a2e790121030335fed90da76a0bea3e8ef7d6dee2a655e4e773f02cebb73c39c0e4d3cee597"
          },
          "sequence": 4294967294
        }, 
        {
          "txid": "af8570eea7726ba93ed4f030a553a1180be997c183986b5a4d85ff29d8d603f4",
          "vout": 2,
          "scriptSig": {
            "asm": "304402202b13deb8c486503dd87c6506f44968fa3e9ba8eb97ff02b8ca2fecf7c8a3e23402206d174c4f1e684352a2fbedb64f994ae17fc29d5a5287b2f9935da671cb77f759[ALL] 03bbe5bcd5d8450a1ab991139ae0acca74a93b4da426c7976e41904d9c5640b26c",
            "hex": "47304402202b13deb8c486503dd87c6506f44968fa3e9ba8eb97ff02b8ca2fecf7c8a3e23402206d174c4f1e684352a2fbedb64f994ae17fc29d5a5287b2f9935da671cb77f759012103bbe5bcd5d8450a1ab991139ae0acca74a93b4da426c7976e41904d9c5640b26c"
          },
          "sequence": 4294967294
        }
      ],
      "vout": [
        {
          "value": 0.00959605,
          "n": 0,
          "scriptPubKey": {
            "asm": "OP_DUP OP_HASH160 2b76288300d91994d5cc2f8e97201005ee6204f7 OP_EQUALVERIFY OP_CHECKSIG",
            "hex": "76a9142b76288300d91994d5cc2f8e97201005ee6204f788ac",
            "reqSigs": 1,
            "type": "pubkeyhash",
            "addresses": [
              "LPBksEvFnzTNYHUELvtQ2gCp24w1Tcnw8U"
            ]
          }
        }, 
        {
          "value": 2.76577042,
          "n": 1,
          "scriptPubKey": {
            "asm": "OP_DUP OP_HASH160 919adcb34f656e78b19579ebd1ae5b31e6c690a3 OP_EQUALVERIFY OP_CHECKSIG",
            "hex": "76a914919adcb34f656e78b19579ebd1ae5b31e6c690a388ac",
            "reqSigs": 1,
            "type": "pubkeyhash",
            "addresses": [
              "LYVqm35ADw3Le19t7P8ntu28Et1p1hvDWE"
            ]
          }
        }, 
        {
          "value": 2.43673302,
          "n": 2,
          "scriptPubKey": {
            "asm": "OP_DUP OP_HASH160 a51e098fb63cf982858957310694d86a44f0ce33 OP_EQUALVERIFY OP_CHECKSIG",
            "hex": "76a914a51e098fb63cf982858957310694d86a44f0ce3388ac",
            "reqSigs": 1,
            "type": "pubkeyhash",
            "addresses": [
              "LaH1jtxYMgJPRP2KRBWsW5PcMnhzkPFeRR"
            ]
          }
        }
      ],
      "hex": "0200000002d9de548d6582b568c31eb4bc4d4e0b508f28c3700a4b40f39d714dae0a142ee8000000006b48304502210081df9f0ae0120e06c6bec702afa4ea69155315b94c54860b52a1fcc0c70431e802204c7563121c6b3dd49a78d3e09a741d43d971d1c1f9fa9e5db9ce217c4e4a2e790121030335fed90da76a0bea3e8ef7d6dee2a655e4e773f02cebb73c39c0e4d3cee597fefffffff403d6d829ff854d5a6b9883c197e90b18a153a530f0d43ea96b72a7ee7085af020000006a47304402202b13deb8c486503dd87c6506f44968fa3e9ba8eb97ff02b8ca2fecf7c8a3e23402206d174c4f1e684352a2fbedb64f994ae17fc29d5a5287b2f9935da671cb77f759012103bbe5bcd5d8450a1ab991139ae0acca74a93b4da426c7976e41904d9c5640b26cfeffffff0375a40e00000000001976a9142b76288300d91994d5cc2f8e97201005ee6204f788ac123b7c10000000001976a914919adcb34f656e78b19579ebd1ae5b31e6c690a388acd628860e000000001976a914a51e098fb63cf982858957310694d86a44f0ce3388ac28c41400"
    }, 
    {
      "txid": "f0ea855868eaa7df375d67ecaf314f88deaa92ba87d57183b2e3f88a3891f40b",
      "hash": "f0ea855868eaa7df375d67ecaf314f88deaa92ba87d57183b2e3f88a3891f40b",
      "version": 1,
      "size": 226,
      "vsize": 226,
      "locktime": 0,
      "vin": [
        {
          "txid": "43ba12441414099c6c0b765b5324cb62dbb84a0e31d2f2a4974bc0957654f372",
          "vout": 1,
          "scriptSig": {
            "asm": "304502210081d0f2576d45c52f542c12ecf6de7204dd9dc27f9380b4b65281ba99aaab3d4102205bde59564d47decab5b992babea9ecfad71256a9b252141e99c24d85b1e954e9[ALL] 03b374cba31b23bd7b531df6f826d496a263db70bc651f4fd33232d73d6494cfd1",
            "hex": "48304502210081d0f2576d45c52f542c12ecf6de7204dd9dc27f9380b4b65281ba99aaab3d4102205bde59564d47decab5b992babea9ecfad71256a9b252141e99c24d85b1e954e9012103b374cba31b23bd7b531df6f826d496a263db70bc651f4fd33232d73d6494cfd1"
          },
          "sequence": 4294967295
        }
      ],
      "vout": [
        {
          "value": 0.34293553,
          "n": 0,
          "scriptPubKey": {
            "asm": "OP_DUP OP_HASH160 05c1fbedab294cd6096b267181adbf4b4da9feb2 OP_EQUALVERIFY OP_CHECKSIG",
            "hex": "76a91405c1fbedab294cd6096b267181adbf4b4da9feb288ac",
            "reqSigs": 1,
            "type": "pubkeyhash",
            "addresses": [
              "LKkQ2RWZA47MohoJCCqPqpoEUVKgbidcZe"
            ]
          }
        }, 
        {
          "value": 0.02414584,
          "n": 1,
          "scriptPubKey": {
            "asm": "OP_DUP OP_HASH160 11a6d1686df5dd7428f7bf24ef527b35f24c637b OP_EQUALVERIFY OP_CHECKSIG",
            "hex": "76a91411a6d1686df5dd7428f7bf24ef527b35f24c637b88ac",
            "reqSigs": 1,
            "type": "pubkeyhash",
            "addresses": [
              "LLqHbC5yLWo6RFriWjoVfbp5U8v6QbGyE1"
            ]
          }
        }
      ],
      "hex": "010000000172f3547695c04b97a4f2d2310e4ab8db62cb24535b760b6c9c0914144412ba43010000006b48304502210081d0f2576d45c52f542c12ecf6de7204dd9dc27f9380b4b65281ba99aaab3d4102205bde59564d47decab5b992babea9ecfad71256a9b252141e99c24d85b1e954e9012103b374cba31b23bd7b531df6f826d496a263db70bc651f4fd33232d73d6494cfd1ffffffff0231470b02000000001976a91405c1fbedab294cd6096b267181adbf4b4da9feb288acf8d72400000000001976a91411a6d1686df5dd7428f7bf24ef527b35f24c637b88ac00000000"
    }
  ],
  "time": 1517501438,
  "mediantime": 1517501063,
  "nonce": 1226490804,
  "bits": "1a04088e",
  "difficulty": 4159490.835685156,
  "chainwork": "00000000000000000000000000000000000000000000003569230276fd9c3e70",
  "previousblockhash": "1161490c083f61e469754e038672189a56c49d9aeaa4825b15ec6d531e8b4ce3",
  "nextblockhash": "df72afa3342f5cbffe03edc4ebe1f6d2c46397da208f2317a039fb2e2a61e67a"
}
