{
  "hash": "c8ac35f239a53b2afedd9e3911a6f91ac8dff1bbd6a915add7a2ddc9c52ae956",
  "confirmations": 3776,
  "strippedsize": 253,
  "size": 253,
  "weight": 1012,
  "height": 1357219,
  "version": 536870912,
  "versionHex": "20000000",
  "merkleroot": "9359374dbd798a2cc60e0484b26a6a8f0c95c7c7bef2cc3ba4804bac37b3222b",
  "tx": [
    {
      "txid": "9359374dbd798a2cc60e0484b26a6a8f0c95c7c7bef2cc3ba4804bac37b3222b",
      "hash": "9359374dbd798a2cc60e0484b26a6a8f0c95c7c7bef2cc3ba4804bac37b3222b",
      "version": 1,
      "size": 172,
      "vsize": 172,
      "locktime": 0,
      "vin": [
        {
          "coinbase": "03a3b5141a4d696e656420627920416e74506f6f6c20626a341e205a6b3145fabe6d6d8fe6702ef61cc390ec14371d37fef8fb16be564995ca1c07a01227e8916b37050400000000000000f23300000000000001000000",
          "sequence": 4294967295
        }
      ],
      "vout": [
        {
          "value": 25.00000000,
          "n": 0,
          "scriptPubKey": {
            "asm": "OP_DUP OP_HASH160 0ff3ccc5e8be88afe24b5d634e5852d474dbdff1 OP_EQUALVERIFY OP_CHECKSIG",
            "hex": "76a9140ff3ccc5e8be88afe24b5d634e5852d474dbdff188ac",
            "reqSigs": 1,
            "type": "pubkeyhash",
            "addresses": [
              "LLgJTbzZMsRTCUF1NtvvL9SR1a4pVieW89"
            ]
          }
        }
      ],
      "hex": "01000000010000000000000000000000000000000000000000000000000000000000000000ffffffff5703a3b5141a4d696e656420627920416e74506f6f6c20626a341e205a6b3145fabe6d6d8fe6702ef61cc390ec14371d37fef8fb16be564995ca1c07a01227e8916b37050400000000000000f23300000000000001000000ffffffff0100f90295000000001976a9140ff3ccc5e8be88afe24b5d634e5852d474dbdff188ac00000000"
    }
  ],
  "time": 1516974405,
  "mediantime": 1516973738,
  "nonce": 3088261592,
  "bits": "1a047f14",
  "difficulty": 3731199.183374282,
  "chainwork": "00000000000000000000000000000000000000000000003208d071d609a675a8",
  "previousblockhash": "4f169a26eb877e9ee8859d3b03c20eaff8e68fac44504e0e88e8253fca082824",
  "nextblockhash": "5a31682101eff69486b050fc6cf78cc4755a4fd43fe4bff8a8951603c38a92af"
}
