{
  "hash": "c9251e046e32b8c0bdcf7f8b0d03527dda5b5737c385d811d6d41b27aa09b196",
  "confirmations": 2961,
  "strippedsize": 253,
  "size": 253,
  "weight": 1012,
  "height": 1358034,
  "version": 536870912,
  "versionHex": "20000000",
  "merkleroot": "48197e8f41c1134fde09714ddd101e957d0784544215770658e5ab0099ff9d6d",
  "tx": [
    {
      "txid": "48197e8f41c1134fde09714ddd101e957d0784544215770658e5ab0099ff9d6d",
      "hash": "48197e8f41c1134fde09714ddd101e957d0784544215770658e5ab0099ff9d6d",
      "version": 1,
      "size": 172,
      "vsize": 172,
      "locktime": 0,
      "vin": [
        {
          "coinbase": "03d2b8141a4d696e656420627920416e74506f6f6c20626a3532205a6cc9a8fabe6d6da82c996e9bd8ed1a48f50c2b160fd239b8fddf7e569705032b4754ec5954df6e0400000000000000ba1b00000000000019000000",
          "sequence": 4294967295
        }
      ],
      "vout": [
        {
          "value": 25.00000000,
          "n": 0,
          "scriptPubKey": {
            "asm": "OP_DUP OP_HASH160 0ff3ccc5e8be88afe24b5d634e5852d474dbdff1 OP_EQUALVERIFY OP_CHECKSIG",
            "hex": "76a9140ff3ccc5e8be88afe24b5d634e5852d474dbdff188ac",
            "reqSigs": 1,
            "type": "pubkeyhash",
            "addresses": [
              "LLgJTbzZMsRTCUF1NtvvL9SR1a4pVieW89"
            ]
          }
        }
      ],
      "hex": "01000000010000000000000000000000000000000000000000000000000000000000000000ffffffff5703d2b8141a4d696e656420627920416e74506f6f6c20626a3532205a6cc9a8fabe6d6da82c996e9bd8ed1a48f50c2b160fd239b8fddf7e569705032b4754ec5954df6e0400000000000000ba1b00000000000019000000ffffffff0100f90295000000001976a9140ff3ccc5e8be88afe24b5d634e5852d474dbdff188ac00000000"
    }
  ],
  "time": 1517078952,
  "mediantime": 1517078378,
  "nonce": 2578062592,
  "bits": "1a047f14",
  "difficulty": 3731199.183374282,
  "chainwork": "000000000000000000000000000000000000000000000032be12057e10844c6e",
  "previousblockhash": "cf1fb5d2286849125ba755da52bd37e897f6d13443cb77d49e48dfc4c3f3471b",
  "nextblockhash": "b8a798a6623432e95761d4f65149bb160d6c230b15c2b7daca34536723fb6112"
}
