{
  "hash": "c952684e1b4a247790e0e6667fd9f6e7fdc72f51cab6901a8b2757c6413b455e",
  "confirmations": 2106,
  "strippedsize": 234,
  "size": 234,
  "weight": 936,
  "height": 1358888,
  "version": 536870912,
  "versionHex": "20000000",
  "merkleroot": "76fa85478a288d3bba67411665639de9594ec80f34737089f8f2943e885c691b",
  "tx": [
    {
      "txid": "76fa85478a288d3bba67411665639de9594ec80f34737089f8f2943e885c691b",
      "hash": "76fa85478a288d3bba67411665639de9594ec80f34737089f8f2943e885c691b",
      "version": 1,
      "size": 153,
      "vsize": 153,
      "locktime": 0,
      "vin": [
        {
          "coinbase": "0328bc14045a6ebadf2cfabe6d6d7c46e2b18cb83d5d62db2e75661bf7a7f5ff6c9a71dc3e94efea3cfbccdce1224000000000000000042f4c502f082200894e0b000000",
          "sequence": 4294967295
        }
      ],
      "vout": [
        {
          "value": 25.00000000,
          "n": 0,
          "scriptPubKey": {
            "asm": "OP_DUP OP_HASH160 57757ed2ecf2052ff3126c397aca7defb9ca2cec OP_EQUALVERIFY OP_CHECKSIG",
            "hex": "76a91457757ed2ecf2052ff3126c397aca7defb9ca2cec88ac",
            "reqSigs": 1,
            "type": "pubkeyhash",
            "addresses": [
              "LTCPodGk5FwcJaRzH9yKnwicxzFUbxp6tN"
            ]
          }
        }
      ],
      "hex": "01000000010000000000000000000000000000000000000000000000000000000000000000ffffffff440328bc14045a6ebadf2cfabe6d6d7c46e2b18cb83d5d62db2e75661bf7a7f5ff6c9a71dc3e94efea3cfbccdce1224000000000000000042f4c502f082200894e0b000000ffffffff0100f90295000000001976a91457757ed2ecf2052ff3126c397aca7defb9ca2cec88ac00000000"
    }
  ],
  "time": 1517206239,
  "mediantime": 1517205794,
  "nonce": 2575195293,
  "bits": "1a042eae",
  "difficulty": 4011378.762614286,
  "chainwork": "0000000000000000000000000000000000000000000000337dc0f1db68df2ad2",
  "previousblockhash": "4c67f1dcceaa1f6831537312c0275ca5cb15553e2a589ceacc48c6e75586edfa",
  "nextblockhash": "8ee5a0e73da21b25fafcc08b75112fa91bc6ef3c442c28d5634065761dfce2ad"
}
