{
  "hash": "c96b1d2e4f871a4a0d8bcb1d36bd883e7cdcd39f68abbce4016c6a2ef00dbbd4",
  "confirmations": 2770,
  "strippedsize": 234,
  "size": 234,
  "weight": 936,
  "height": 1358225,
  "version": 536870912,
  "versionHex": "20000000",
  "merkleroot": "b5281234b1ea729cdb3d1185ae93e90aba040593a4cfaf08ef0fcdd9815f7d08",
  "tx": [
    {
      "txid": "b5281234b1ea729cdb3d1185ae93e90aba040593a4cfaf08ef0fcdd9815f7d08",
      "hash": "b5281234b1ea729cdb3d1185ae93e90aba040593a4cfaf08ef0fcdd9815f7d08",
      "version": 1,
      "size": 153,
      "vsize": 153,
      "locktime": 0,
      "vin": [
        {
          "coinbase": "0391b914045a6d43852cfabe6d6d72b107d5480cfcb846fc73ba4a3f14d52ae695e32e874e8fd0e07fe36320581e4000000000000000042f4c502f08560076b997150000",
          "sequence": 4294967295
        }
      ],
      "vout": [
        {
          "value": 25.00000000,
          "n": 0,
          "scriptPubKey": {
            "asm": "OP_DUP OP_HASH160 57757ed2ecf2052ff3126c397aca7defb9ca2cec OP_EQUALVERIFY OP_CHECKSIG",
            "hex": "76a91457757ed2ecf2052ff3126c397aca7defb9ca2cec88ac",
            "reqSigs": 1,
            "type": "pubkeyhash",
            "addresses": [
              "LTCPodGk5FwcJaRzH9yKnwicxzFUbxp6tN"
            ]
          }
        }
      ],
      "hex": "01000000010000000000000000000000000000000000000000000000000000000000000000ffffffff440391b914045a6d43852cfabe6d6d72b107d5480cfcb846fc73ba4a3f14d52ae695e32e874e8fd0e07fe36320581e4000000000000000042f4c502f08560076b997150000ffffffff0100f90295000000001976a91457757ed2ecf2052ff3126c397aca7defb9ca2cec88ac00000000"
    }
  ],
  "time": 1517110149,
  "mediantime": 1517108840,
  "nonce": 619564729,
  "bits": "1a047f14",
  "difficulty": 3731199.183374282,
  "chainwork": "000000000000000000000000000000000000000000000032e88c805c91a7a3d4",
  "previousblockhash": "6b30d2426a88cbf414b9db483a7adb8a21d9a6b9e196a6709604d472c34c44b3",
  "nextblockhash": "58a535a43cf25811ec2e6f9ba053c35211fbebffda5bdd371873eb7726189935"
}
