{
  "hash": "c96e39be3aea76d0729d3cdb63b99cfb0a86f9535e3d9bf873d4f224be6db83a",
  "confirmations": 3588,
  "strippedsize": 234,
  "size": 234,
  "weight": 936,
  "height": 1357407,
  "version": 536870912,
  "versionHex": "20000000",
  "merkleroot": "38dcaf1de73b4f718a72ad46d5ad4c1473c51a66d768267e9f913adbd9664736",
  "tx": [
    {
      "txid": "38dcaf1de73b4f718a72ad46d5ad4c1473c51a66d768267e9f913adbd9664736",
      "hash": "38dcaf1de73b4f718a72ad46d5ad4c1473c51a66d768267e9f913adbd9664736",
      "version": 1,
      "size": 153,
      "vsize": 153,
      "locktime": 0,
      "vin": [
        {
          "coinbase": "035fb614045a6b912b2cfabe6d6d21d208378f0d214b11e9ae75d73614cc33522f4d376124f26b7a66f7d8ffdc064000000000000000042f4c502f08160017cf2e000000",
          "sequence": 4294967295
        }
      ],
      "vout": [
        {
          "value": 25.00000000,
          "n": 0,
          "scriptPubKey": {
            "asm": "OP_DUP OP_HASH160 57757ed2ecf2052ff3126c397aca7defb9ca2cec OP_EQUALVERIFY OP_CHECKSIG",
            "hex": "76a91457757ed2ecf2052ff3126c397aca7defb9ca2cec88ac",
            "reqSigs": 1,
            "type": "pubkeyhash",
            "addresses": [
              "LTCPodGk5FwcJaRzH9yKnwicxzFUbxp6tN"
            ]
          }
        }
      ],
      "hex": "01000000010000000000000000000000000000000000000000000000000000000000000000ffffffff44035fb614045a6b912b2cfabe6d6d21d208378f0d214b11e9ae75d73614cc33522f4d376124f26b7a66f7d8ffdc064000000000000000042f4c502f08160017cf2e000000ffffffff0100f90295000000001976a91457757ed2ecf2052ff3126c397aca7defb9ca2cec88ac00000000"
    }
  ],
  "time": 1516998955,
  "mediantime": 1516998435,
  "nonce": 2067410960,
  "bits": "1a047f14",
  "difficulty": 3731199.183374282,
  "chainwork": "00000000000000000000000000000000000000000000003232a01f0c304c98c0",
  "previousblockhash": "0659742e2063496c107fb152029e470e9a9f4221d7503df5c5711dbd99adf83c",
  "nextblockhash": "98106cca395c05fca0ebd49ab5e9ea7ef0a75e9f033c41ab644ee1aee0144160"
}
