{
  "hash": "c987567f35af6ddcbb24b94a3bfe5a8e86ff8beb2a58507da3c4ae43ca5f3165",
  "confirmations": 1570,
  "strippedsize": 253,
  "size": 253,
  "weight": 1012,
  "height": 1359424,
  "version": 536870912,
  "versionHex": "20000000",
  "merkleroot": "196c77c925f46de52a5f2b2a875c0d31d8bc662e914079324e4bdc66e57e5f07",
  "tx": [
    {
      "txid": "196c77c925f46de52a5f2b2a875c0d31d8bc662e914079324e4bdc66e57e5f07",
      "hash": "196c77c925f46de52a5f2b2a875c0d31d8bc662e914079324e4bdc66e57e5f07",
      "version": 1,
      "size": 172,
      "vsize": 172,
      "locktime": 0,
      "vin": [
        {
          "coinbase": "0340be141a4d696e656420627920416e74506f6f6c20626a3242205a6fde37fabe6d6ddb7a435014028c2c3f9b8892a50e60a2f60590f71f597a91ec4d1af47a1402ea0400000000000000a81600000000000004000000",
          "sequence": 4294967295
        }
      ],
      "vout": [
        {
          "value": 25.00000000,
          "n": 0,
          "scriptPubKey": {
            "asm": "OP_DUP OP_HASH160 0ff3ccc5e8be88afe24b5d634e5852d474dbdff1 OP_EQUALVERIFY OP_CHECKSIG",
            "hex": "76a9140ff3ccc5e8be88afe24b5d634e5852d474dbdff188ac",
            "reqSigs": 1,
            "type": "pubkeyhash",
            "addresses": [
              "LLgJTbzZMsRTCUF1NtvvL9SR1a4pVieW89"
            ]
          }
        }
      ],
      "hex": "01000000010000000000000000000000000000000000000000000000000000000000000000ffffffff570340be141a4d696e656420627920416e74506f6f6c20626a3242205a6fde37fabe6d6ddb7a435014028c2c3f9b8892a50e60a2f60590f71f597a91ec4d1af47a1402ea0400000000000000a81600000000000004000000ffffffff0100f90295000000001976a9140ff3ccc5e8be88afe24b5d634e5852d474dbdff188ac00000000"
    }
  ],
  "time": 1517280823,
  "mediantime": 1517279832,
  "nonce": 425803530,
  "bits": "1a042eae",
  "difficulty": 4011378.762614286,
  "chainwork": "000000000000000000000000000000000000000000000033fde95a4c94321302",
  "previousblockhash": "13b1f2a220c0128e2d2e0a22db37d4744571c918621c1d25a45d8105765b7063",
  "nextblockhash": "490125af5d9d98294f7036b3343efb6ed3c70300a377b46fef31bb82b243e6d0"
}
