{
  "hash": "c98d1a5015dee9b405f4f91ec3a0d743cf16877d2932fa065838de067c008f37",
  "confirmations": 41,
  "strippedsize": 2735,
  "size": 3655,
  "weight": 11860,
  "height": 1360950,
  "version": 536870912,
  "versionHex": "20000000",
  "merkleroot": "d05e3acfac96de364b594ab255e29206c2724696274e0016f3c57a0377fa965c",
  "tx": [
    {
      "txid": "04c9b80522434e2404398fdf9b60bfb5ac84d6594193881185e56a247ac8c635",
      "hash": "f145124322b1f71ff07e675028b9544fc4ad38557fee129e44b816306dcce58a",
      "version": 1,
      "size": 287,
      "vsize": 260,
      "locktime": 0,
      "vin": [
        {
          "coinbase": "0336c41441d69cd083bcaec541d69cd082f457132f4c54432e544f502ffabe6d6dde361a97ebea4b81e7ff21ebf9eb3de7166edecb8be860cd6dc78040b9bee3b801000000000000005436d82adf00000000000000",
          "sequence": 4294967295
        }
      ],
      "vout": [
        {
          "value": 24.76168398,
          "n": 0,
          "scriptPubKey": {
            "asm": "OP_DUP OP_HASH160 7b96c291c4d9e252907e9275cd3d14fdeaeac0f1 OP_EQUALVERIFY OP_CHECKSIG",
            "hex": "76a9147b96c291c4d9e252907e9275cd3d14fdeaeac0f188ac",
            "reqSigs": 1,
            "type": "pubkeyhash",
            "addresses": [
              "LWVRyoJawzDYtvRmLVzUXqUSkNT7H1MLTt"
            ]
          }
        }, 
        {
          "value": 0.00000000,
          "n": 1,
          "scriptPubKey": {
            "asm": "OP_RETURN aa21a9eda6d8297d5fa11449b854d04f5086684049222dca62866b1c839bfadd8a7cf43b",
            "hex": "6a24aa21a9eda6d8297d5fa11449b854d04f5086684049222dca62866b1c839bfadd8a7cf43b",
            "type": "nulldata"
          }
        }, 
        {
          "value": 0.25011802,
          "n": 2,
          "scriptPubKey": {
            "asm": "OP_DUP OP_HASH160 0c617fdb2ea42aed30a509595ee21ba3f6688db0 OP_EQUALVERIFY OP_CHECKSIG",
            "hex": "76a9140c617fdb2ea42aed30a509595ee21ba3f6688db088ac",
            "reqSigs": 1,
            "type": "pubkeyhash",
            "addresses": [
              "LLMRAtr3qBje2ySEa3CnZ55LA4TQMWnRY3"
            ]
          }
        }
      ],
      "hex": "010000000001010000000000000000000000000000000000000000000000000000000000000000ffffffff550336c41441d69cd083bcaec541d69cd082f457132f4c54432e544f502ffabe6d6dde361a97ebea4b81e7ff21ebf9eb3de7166edecb8be860cd6dc78040b9bee3b801000000000000005436d82adf00000000000000ffffffff03ce549793000000001976a9147b96c291c4d9e252907e9275cd3d14fdeaeac0f188ac0000000000000000266a24aa21a9eda6d8297d5fa11449b854d04f5086684049222dca62866b1c839bfadd8a7cf43b5aa67d01000000001976a9140c617fdb2ea42aed30a509595ee21ba3f6688db088ac0120000000000000000000000000000000000000000000000000000000000000000000000000"
    }, 
    {
      "txid": "1e7436e3ca55ba7f9bae1a9473ed47debcf9b73090f719da5a14dcf64e7e7220",
      "hash": "1e7436e3ca55ba7f9bae1a9473ed47debcf9b73090f719da5a14dcf64e7e7220",
      "version": 1,
      "size": 225,
      "vsize": 225,
      "locktime": 0,
      "vin": [
        {
          "txid": "1d8553717e93554d07e11022c1484279fbb0bf9bdf65e3d3db8eac94bb7ca083",
          "vout": 1,
          "scriptSig": {
            "asm": "304402201ae912d408b296bfe1aa733fcab6b49553f6aea6f75b1bd097cf888c7817d8c6022002afa9c8d027844f98244480847d758ad06a1bb20e881c31f55ab258a04b2519[ALL] 03045557468cb480ae3fdf7b18f7869def61be4e141fdfcba7f53ba667d2007c9a",
            "hex": "47304402201ae912d408b296bfe1aa733fcab6b49553f6aea6f75b1bd097cf888c7817d8c6022002afa9c8d027844f98244480847d758ad06a1bb20e881c31f55ab258a04b2519012103045557468cb480ae3fdf7b18f7869def61be4e141fdfcba7f53ba667d2007c9a"
          },
          "sequence": 4294967295
        }
      ],
      "vout": [
        {
          "value": 2.99910300,
          "n": 0,
          "scriptPubKey": {
            "asm": "OP_DUP OP_HASH160 21dd2f035c20e66d953c8fc30b570cca930a7e76 OP_EQUALVERIFY OP_CHECKSIG",
            "hex": "76a91421dd2f035c20e66d953c8fc30b570cca930a7e7688ac",
            "reqSigs": 1,
            "type": "pubkeyhash",
            "addresses": [
              "LNK1XeoF3XN7RjyquyqUQ72dPp7pFTtw5S"
            ]
          }
        }, 
        {
          "value": 1.82780316,
          "n": 1,
          "scriptPubKey": {
            "asm": "OP_DUP OP_HASH160 8c184560f54552e065fe1a43a555ab79bb9fd40b OP_EQUALVERIFY OP_CHECKSIG",
            "hex": "76a9148c184560f54552e065fe1a43a555ab79bb9fd40b88ac",
            "reqSigs": 1,
            "type": "pubkeyhash",
            "addresses": [
              "LXzhwSyYhTxZt4piVs7KvYPAWKDdXvMTNo"
            ]
          }
        }
      ],
      "hex": "010000000183a07cbb94ac8edbd3e365df9bbfb0fb794248c12210e1074d55937e7153851d010000006a47304402201ae912d408b296bfe1aa733fcab6b49553f6aea6f75b1bd097cf888c7817d8c6022002afa9c8d027844f98244480847d758ad06a1bb20e881c31f55ab258a04b2519012103045557468cb480ae3fdf7b18f7869def61be4e141fdfcba7f53ba667d2007c9affffffff029c44e011000000001976a91421dd2f035c20e66d953c8fc30b570cca930a7e7688ac9c01e50a000000001976a9148c184560f54552e065fe1a43a555ab79bb9fd40b88ac00000000"
    }, 
    {
      "txid": "8337561f59ba5b78d725d0ebb0bd7ef85c2b4fbded94c1ab82ff26b85cb5ecac",
      "hash": "8337561f59ba5b78d725d0ebb0bd7ef85c2b4fbded94c1ab82ff26b85cb5ecac",
      "version": 1,
      "size": 226,
      "vsize": 226,
      "locktime": 0,
      "vin": [
        {
          "txid": "2becb831e928587f0cfe7e9f346729b7edb5a807931f6dad0beab85491229345",
          "vout": 1,
          "scriptSig": {
            "asm": "3045022100b585b12aac2f07630ac157c4bbd18c64a2a1f360a007b34bc7a78c22fe00b8b102206b65466316b829edeb15a0fbf7a663f7aa38030cb68d660fdae24b00b9be8759[ALL] 03045557468cb480ae3fdf7b18f7869def61be4e141fdfcba7f53ba667d2007c9a",
            "hex": "483045022100b585b12aac2f07630ac157c4bbd18c64a2a1f360a007b34bc7a78c22fe00b8b102206b65466316b829edeb15a0fbf7a663f7aa38030cb68d660fdae24b00b9be8759012103045557468cb480ae3fdf7b18f7869def61be4e141fdfcba7f53ba667d2007c9a"
          },
          "sequence": 4294967295
        }
      ],
      "vout": [
        {
          "value": 0.45251475,
          "n": 0,
          "scriptPubKey": {
            "asm": "OP_DUP OP_HASH160 0a7a3ac735d3f04155d575a8233819339523d5a1 OP_EQUALVERIFY OP_CHECKSIG",
            "hex": "76a9140a7a3ac735d3f04155d575a8233819339523d5a188ac",
            "reqSigs": 1,
            "type": "pubkeyhash",
            "addresses": [
              "LLBMSnwnfKzb3XheCzACaSRyGoWCkwnaAs"
            ]
          }
        }, 
        {
          "value": 47.34595397,
          "n": 1,
          "scriptPubKey": {
            "asm": "OP_DUP OP_HASH160 8c184560f54552e065fe1a43a555ab79bb9fd40b OP_EQUALVERIFY OP_CHECKSIG",
            "hex": "76a9148c184560f54552e065fe1a43a555ab79bb9fd40b88ac",
            "reqSigs": 1,
            "type": "pubkeyhash",
            "addresses": [
              "LXzhwSyYhTxZt4piVs7KvYPAWKDdXvMTNo"
            ]
          }
        }
      ],
      "hex": "01000000014593229154b8ea0bad6d1f9307a8b5edb72967349f7efe0c7f5828e931b8ec2b010000006b483045022100b585b12aac2f07630ac157c4bbd18c64a2a1f360a007b34bc7a78c22fe00b8b102206b65466316b829edeb15a0fbf7a663f7aa38030cb68d660fdae24b00b9be8759012103045557468cb480ae3fdf7b18f7869def61be4e141fdfcba7f53ba667d2007c9affffffff02937bb202000000001976a9140a7a3ac735d3f04155d575a8233819339523d5a188ac4531341a010000001976a9148c184560f54552e065fe1a43a555ab79bb9fd40b88ac00000000"
    }, 
    {
      "txid": "2d6238c62234d977a144eb30fa11e8a6cd26529f3ea9c950223bd6859a6570dd",
      "hash": "baad58cea2c3430cfbae6fd9f93735c47b09ad4d6888773cb92c03537e650b61",
      "version": 1,
      "size": 374,
      "vsize": 208,
      "locktime": 0,
      "vin": [
        {
          "txid": "dee51f3ccf85d242fc4df7dfca5ed7191723d607e679b282e6ae5f80ec032b93",
          "vout": 1,
          "scriptSig": {
            "asm": "00207975c3f0d1bf8b6205e1c664d703c93d68409676bf17c5e78cdece78bdbf3dbf",
            "hex": "2200207975c3f0d1bf8b6205e1c664d703c93d68409676bf17c5e78cdece78bdbf3dbf"
          },
          "txinwitness": [
            "", 
            "3045022100af9f3bc80bcd2a5727e22598248f3e8952d2170b9bf162cbe9013e8daf30c635022013a487109401c562eebe16650585bef8ad3d94c3f37d865294e04fd8defc7c7b01", 
            "3045022100e252dd8b301d11c288673e29b2c98af06abd83f24373a111b235389e7904ca98022030c80810fcd1e52b94c775ef53360a2d27c251798ce047da05ebd0a59946638501", 
            "522102611be09a0c6a571c8f68adb2481e938888756d93d4ee5b670f08c16e939b7f1a21022cc7a96a72ef014bf078a6489644e2edb05bb216d30b4f28363b637fe4463fd652ae"
          ],
          "sequence": 4294967295
        }
      ],
      "vout": [
        {
          "value": 0.00531800,
          "n": 0,
          "scriptPubKey": {
            "asm": "OP_DUP OP_HASH160 b1dcc5ae52da5c7677e3db19938894be3b405a0d OP_EQUALVERIFY OP_CHECKSIG",
            "hex": "76a914b1dcc5ae52da5c7677e3db19938894be3b405a0d88ac",
            "reqSigs": 1,
            "type": "pubkeyhash",
            "addresses": [
              "LbSQLgqtVXS1Wnm7vGaDe8uUdfenmVDUMp"
            ]
          }
        }, 
        {
          "value": 14.00509763,
          "n": 1,
          "scriptPubKey": {
            "asm": "OP_HASH160 486ce63d83e8406016f310cd321d36bbdd10d412 OP_EQUAL",
            "hex": "a914486ce63d83e8406016f310cd321d36bbdd10d41287",
            "reqSigs": 1,
            "type": "scripthash",
            "addresses": [
              "MEW7Lhk6QzBLmCNp5pmpYzwv1KAcKYsSQp"
            ]
          }
        }
      ],
      "hex": "01000000000101932b03ec805faee682b279e607d6231719d75ecadff74dfc42d285cf3c1fe5de01000000232200207975c3f0d1bf8b6205e1c664d703c93d68409676bf17c5e78cdece78bdbf3dbfffffffff02581d0800000000001976a914b1dcc5ae52da5c7677e3db19938894be3b405a0d88ac43157a530000000017a914486ce63d83e8406016f310cd321d36bbdd10d412870400483045022100af9f3bc80bcd2a5727e22598248f3e8952d2170b9bf162cbe9013e8daf30c635022013a487109401c562eebe16650585bef8ad3d94c3f37d865294e04fd8defc7c7b01483045022100e252dd8b301d11c288673e29b2c98af06abd83f24373a111b235389e7904ca98022030c80810fcd1e52b94c775ef53360a2d27c251798ce047da05ebd0a5994663850147522102611be09a0c6a571c8f68adb2481e938888756d93d4ee5b670f08c16e939b7f1a21022cc7a96a72ef014bf078a6489644e2edb05bb216d30b4f28363b637fe4463fd652ae00000000"
    }, 
    {
      "txid": "86ebed9dc4bbb764443e4e44237583aafa5ee3c576f7b2dac54afd43ac777020",
      "hash": "6c57a59ba185f91b80c0389b6994546c3fbf78353578f264873a4246fd84ea44",
      "version": 1,
      "size": 370,
      "vsize": 205,
      "locktime": 0,
      "vin": [
        {
          "txid": "2d6238c62234d977a144eb30fa11e8a6cd26529f3ea9c950223bd6859a6570dd",
          "vout": 1,
          "scriptSig": {
            "asm": "00207975c3f0d1bf8b6205e1c664d703c93d68409676bf17c5e78cdece78bdbf3dbf",
            "hex": "2200207975c3f0d1bf8b6205e1c664d703c93d68409676bf17c5e78cdece78bdbf3dbf"
          },
          "txinwitness": [
            "", 
            "30440220208fbef0faba1ba5de8d036a993cb362f124f33f2f401907ee3ee52bc97d164c022024a383b6416c3e6fb3764452f2213315949adf16796b99c1fd7012e199433e4d01", 
            "304402206fb69caec64111fc67e458de878d44969dd78694922b5f2293ac10a9760c2c460220286767f25beabece36c4409b163f996a595a1140f22f794fcec761b367d8f2b101", 
            "522102611be09a0c6a571c8f68adb2481e938888756d93d4ee5b670f08c16e939b7f1a21022cc7a96a72ef014bf078a6489644e2edb05bb216d30b4f28363b637fe4463fd652ae"
          ],
          "sequence": 4294967295
        }
      ],
      "vout": [
        {
          "value": 0.00534100,
          "n": 0,
          "scriptPubKey": {
            "asm": "OP_HASH160 74ad38d49626b25b5064855901b6d784dafdc9a8 OP_EQUAL",
            "hex": "a91474ad38d49626b25b5064855901b6d784dafdc9a887",
            "reqSigs": 1,
            "type": "scripthash",
            "addresses": [
              "MJY68MhNksdszKswSf6Q72SoAxXX3hprMC"
            ]
          }
        }, 
        {
          "value": 13.99932463,
          "n": 1,
          "scriptPubKey": {
            "asm": "OP_HASH160 486ce63d83e8406016f310cd321d36bbdd10d412 OP_EQUAL",
            "hex": "a914486ce63d83e8406016f310cd321d36bbdd10d41287",
            "reqSigs": 1,
            "type": "scripthash",
            "addresses": [
              "MEW7Lhk6QzBLmCNp5pmpYzwv1KAcKYsSQp"
            ]
          }
        }
      ],
      "hex": "01000000000101dd70659a85d63b2250c9a93e9f5226cda6e811fa30eb44a177d93422c638622d01000000232200207975c3f0d1bf8b6205e1c664d703c93d68409676bf17c5e78cdece78bdbf3dbfffffffff02542608000000000017a91474ad38d49626b25b5064855901b6d784dafdc9a8872f4671530000000017a914486ce63d83e8406016f310cd321d36bbdd10d4128704004730440220208fbef0faba1ba5de8d036a993cb362f124f33f2f401907ee3ee52bc97d164c022024a383b6416c3e6fb3764452f2213315949adf16796b99c1fd7012e199433e4d0147304402206fb69caec64111fc67e458de878d44969dd78694922b5f2293ac10a9760c2c460220286767f25beabece36c4409b163f996a595a1140f22f794fcec761b367d8f2b10147522102611be09a0c6a571c8f68adb2481e938888756d93d4ee5b670f08c16e939b7f1a21022cc7a96a72ef014bf078a6489644e2edb05bb216d30b4f28363b637fe4463fd652ae00000000"
    }, 
    {
      "txid": "9df3ea175ec10d1c98bcfc62666a976f29ea9521f0117fa5dda8c7db4805540c",
      "hash": "6541936cfbebaf60e69c7adaced7a297f8b6294d9de5950ced4adeaff233ec5b",
      "version": 1,
      "size": 373,
      "vsize": 208,
      "locktime": 0,
      "vin": [
        {
          "txid": "87614762e28bf080412062dcfc4385efab03c551ceb1695fac23d8121f8b02db",
          "vout": 1,
          "scriptSig": {
            "asm": "00207975c3f0d1bf8b6205e1c664d703c93d68409676bf17c5e78cdece78bdbf3dbf",
            "hex": "2200207975c3f0d1bf8b6205e1c664d703c93d68409676bf17c5e78cdece78bdbf3dbf"
          },
          "txinwitness": [
            "", 
            "304402205911ba58e801c79b136b48d99310dcbea236e6218ac75d9b13c2ec0ea4d993160220159e57d0d971028c272505b5a1eb138decf72569e9b9b5055fc995d1ab7b8c6d01", 
            "3045022100ffcb080eba851d239e4d46b81063f0659cc3f1310aac121b317a44232c76462102205a5b5c00fd3406c83f2391e21b0077f3ea7d9cc7304e99c786f16dec310d4b9c01", 
            "522102611be09a0c6a571c8f68adb2481e938888756d93d4ee5b670f08c16e939b7f1a21022cc7a96a72ef014bf078a6489644e2edb05bb216d30b4f28363b637fe4463fd652ae"
          ],
          "sequence": 4294967295
        }
      ],
      "vout": [
        {
          "value": 0.02542400,
          "n": 0,
          "scriptPubKey": {
            "asm": "OP_DUP OP_HASH160 fde9a21fd1ac61433a3d096df37d8d503d5e631e OP_EQUALVERIFY OP_CHECKSIG",
            "hex": "76a914fde9a21fd1ac61433a3d096df37d8d503d5e631e88ac",
            "reqSigs": 1,
            "type": "pubkeyhash",
            "addresses": [
              "LiNX6sYUTMkca1Yx7oh4YJdDuHKBSKNhv4"
            ]
          }
        }, 
        {
          "value": 6.23335197,
          "n": 1,
          "scriptPubKey": {
            "asm": "OP_HASH160 486ce63d83e8406016f310cd321d36bbdd10d412 OP_EQUAL",
            "hex": "a914486ce63d83e8406016f310cd321d36bbdd10d41287",
            "reqSigs": 1,
            "type": "scripthash",
            "addresses": [
              "MEW7Lhk6QzBLmCNp5pmpYzwv1KAcKYsSQp"
            ]
          }
        }
      ],
      "hex": "01000000000101db028b1f12d823ac5f69b1ce51c503abef8543fcdc62204180f08be26247618701000000232200207975c3f0d1bf8b6205e1c664d703c93d68409676bf17c5e78cdece78bdbf3dbfffffffff0240cb2600000000001976a914fde9a21fd1ac61433a3d096df37d8d503d5e631e88ac1d5727250000000017a914486ce63d83e8406016f310cd321d36bbdd10d41287040047304402205911ba58e801c79b136b48d99310dcbea236e6218ac75d9b13c2ec0ea4d993160220159e57d0d971028c272505b5a1eb138decf72569e9b9b5055fc995d1ab7b8c6d01483045022100ffcb080eba851d239e4d46b81063f0659cc3f1310aac121b317a44232c76462102205a5b5c00fd3406c83f2391e21b0077f3ea7d9cc7304e99c786f16dec310d4b9c0147522102611be09a0c6a571c8f68adb2481e938888756d93d4ee5b670f08c16e939b7f1a21022cc7a96a72ef014bf078a6489644e2edb05bb216d30b4f28363b637fe4463fd652ae00000000"
    }, 
    {
      "txid": "fa02ce2a99ce2c4fbb8f9cd0dcfa74560afa8330e5e88240735074fbb0fc8a2c",
      "hash": "d0bf97e13c4198c3e8c7bb2cd73ef06f150f3cb778cdcab00dff4bad6040504c",
      "version": 1,
      "size": 371,
      "vsize": 206,
      "locktime": 0,
      "vin": [
        {
          "txid": "9df3ea175ec10d1c98bcfc62666a976f29ea9521f0117fa5dda8c7db4805540c",
          "vout": 1,
          "scriptSig": {
            "asm": "00207975c3f0d1bf8b6205e1c664d703c93d68409676bf17c5e78cdece78bdbf3dbf",
            "hex": "2200207975c3f0d1bf8b6205e1c664d703c93d68409676bf17c5e78cdece78bdbf3dbf"
          },
          "txinwitness": [
            "", 
            "30450221009ff39d2318bd69c22884d42d7aaff200267db1b72324acf86d9bfb6eb3cf605002204e1f2beae5ead7b1f02e9ee29e1927b9a5393463bdad004d5351e795b7fb178301", 
            "30440220660423e512af7c25203c17be724f511d7c2d9f2ec3f002a0f0915ea36773b08d022071d7b404db12768dcf2f4cbae44de3558568c05b6f6c03c19aba7173cae64b1901", 
            "522102611be09a0c6a571c8f68adb2481e938888756d93d4ee5b670f08c16e939b7f1a21022cc7a96a72ef014bf078a6489644e2edb05bb216d30b4f28363b637fe4463fd652ae"
          ],
          "sequence": 4294967295
        }
      ],
      "vout": [
        {
          "value": 0.00531800,
          "n": 0,
          "scriptPubKey": {
            "asm": "OP_HASH160 09f7103f126cd1bcde930a6572646896fe5ea14f OP_EQUAL",
            "hex": "a91409f7103f126cd1bcde930a6572646896fe5ea14f87",
            "reqSigs": 1,
            "type": "scripthash",
            "addresses": [
              "M8orHRibVJ9vfLjztMUyt3zCu4E2P4pCNc"
            ]
          }
        }, 
        {
          "value": 6.22760197,
          "n": 1,
          "scriptPubKey": {
            "asm": "OP_HASH160 486ce63d83e8406016f310cd321d36bbdd10d412 OP_EQUAL",
            "hex": "a914486ce63d83e8406016f310cd321d36bbdd10d41287",
            "reqSigs": 1,
            "type": "scripthash",
            "addresses": [
              "MEW7Lhk6QzBLmCNp5pmpYzwv1KAcKYsSQp"
            ]
          }
        }
      ],
      "hex": "010000000001010c540548dbc7a8dda57f11f02195ea296f976a6662fcbc981c0dc15e17eaf39d01000000232200207975c3f0d1bf8b6205e1c664d703c93d68409676bf17c5e78cdece78bdbf3dbfffffffff02581d08000000000017a91409f7103f126cd1bcde930a6572646896fe5ea14f8705911e250000000017a914486ce63d83e8406016f310cd321d36bbdd10d4128704004830450221009ff39d2318bd69c22884d42d7aaff200267db1b72324acf86d9bfb6eb3cf605002204e1f2beae5ead7b1f02e9ee29e1927b9a5393463bdad004d5351e795b7fb1783014730440220660423e512af7c25203c17be724f511d7c2d9f2ec3f002a0f0915ea36773b08d022071d7b404db12768dcf2f4cbae44de3558568c05b6f6c03c19aba7173cae64b190147522102611be09a0c6a571c8f68adb2481e938888756d93d4ee5b670f08c16e939b7f1a21022cc7a96a72ef014bf078a6489644e2edb05bb216d30b4f28363b637fe4463fd652ae00000000"
    }, 
    {
      "txid": "a45ad3e92f2da1de79b4c018bb02832d968c33d0243c6801638219adf7cb26a7",
      "hash": "a45ad3e92f2da1de79b4c018bb02832d968c33d0243c6801638219adf7cb26a7",
      "version": 1,
      "size": 224,
      "vsize": 224,
      "locktime": 0,
      "vin": [
        {
          "txid": "b13b94b512b9ad82fbfef5c140051bdf588acb1cf0c2f61b98db46c8a59160f0",
          "vout": 1,
          "scriptSig": {
            "asm": "3043021f64a7d387faa55af34d0788a3b44cc901390b2e21a93c38888718bae66eebc3022032d7c81f98a85bd298da40109b659cdd140b26382d2cd0c5d173cbf57a834d3b[ALL] 0325e2af9f69dc11db7026c776dd50d59c1f4de59c85061d0a531099718c354455",
            "hex": "463043021f64a7d387faa55af34d0788a3b44cc901390b2e21a93c38888718bae66eebc3022032d7c81f98a85bd298da40109b659cdd140b26382d2cd0c5d173cbf57a834d3b01210325e2af9f69dc11db7026c776dd50d59c1f4de59c85061d0a531099718c354455"
          },
          "sequence": 4294967295
        }
      ],
      "vout": [
        {
          "value": 0.00745933,
          "n": 0,
          "scriptPubKey": {
            "asm": "OP_DUP OP_HASH160 652a750022349812d0423b2e7cf3ca85684666e0 OP_EQUALVERIFY OP_CHECKSIG",
            "hex": "76a914652a750022349812d0423b2e7cf3ca85684666e088ac",
            "reqSigs": 1,
            "type": "pubkeyhash",
            "addresses": [
              "LUSsNZ6qL2fzXbfmKruE2c79SLjbZA1y6n"
            ]
          }
        }, 
        {
          "value": 0.22853120,
          "n": 1,
          "scriptPubKey": {
            "asm": "OP_DUP OP_HASH160 a7bd1303ea7100efe7b2bbde8efd810f5609797d OP_EQUALVERIFY OP_CHECKSIG",
            "hex": "76a914a7bd1303ea7100efe7b2bbde8efd810f5609797d88ac",
            "reqSigs": 1,
            "type": "pubkeyhash",
            "addresses": [
              "LaWscMps6LxWn7XHGefSu8ucfGW5e6yzLw"
            ]
          }
        }
      ],
      "hex": "0100000001f06091a5c846db981bf6c2f01ccb8a58df1b0540c1f5fefb82adb912b5943bb10100000069463043021f64a7d387faa55af34d0788a3b44cc901390b2e21a93c38888718bae66eebc3022032d7c81f98a85bd298da40109b659cdd140b26382d2cd0c5d173cbf57a834d3b01210325e2af9f69dc11db7026c776dd50d59c1f4de59c85061d0a531099718c354455ffffffff02cd610b00000000001976a914652a750022349812d0423b2e7cf3ca85684666e088ac00b65c01000000001976a914a7bd1303ea7100efe7b2bbde8efd810f5609797d88ac00000000"
    }, 
    {
      "txid": "74fb40877f26a0c822ee0b9f5fd5528b84ee83d17302c8bfaa5ad6ce062aa7ed",
      "hash": "74fb40877f26a0c822ee0b9f5fd5528b84ee83d17302c8bfaa5ad6ce062aa7ed",
      "version": 2,
      "size": 223,
      "vsize": 223,
      "locktime": 1360875,
      "vin": [
        {
          "txid": "2eb7ac4d54637f29b4748bfe6b1495283685a543285e8b94250648c24e7cb987",
          "vout": 0,
          "scriptSig": {
            "asm": "304402203b04f118bf50897516c8ff85549316d3b565caa7827c8640c39b4b397872d27302203cf51b9cc7e9104b1b0c2a3d7b3c8aeb8f7268f29995f56c8ea60be6223b270c[ALL] 0277975d2330e286fb28b33095066955a27c27ea89081aa3cd25f1a08958b08241",
            "hex": "47304402203b04f118bf50897516c8ff85549316d3b565caa7827c8640c39b4b397872d27302203cf51b9cc7e9104b1b0c2a3d7b3c8aeb8f7268f29995f56c8ea60be6223b270c01210277975d2330e286fb28b33095066955a27c27ea89081aa3cd25f1a08958b08241"
          },
          "sequence": 4294967294
        }
      ],
      "vout": [
        {
          "value": 4.48255200,
          "n": 0,
          "scriptPubKey": {
            "asm": "OP_DUP OP_HASH160 3fcbf8a944409d7e88fd675d88138c2dac7c10e1 OP_EQUALVERIFY OP_CHECKSIG",
            "hex": "76a9143fcbf8a944409d7e88fd675d88138c2dac7c10e188ac",
            "reqSigs": 1,
            "type": "pubkeyhash",
            "addresses": [
              "LR3HBUW7TrKSYqeenbsnVRuhGerFXdEqdp"
            ]
          }
        }, 
        {
          "value": 4.47100000,
          "n": 1,
          "scriptPubKey": {
            "asm": "OP_HASH160 56b268a3a26617c4c4286c5e0ceb9a0fc68cc002 OP_EQUAL",
            "hex": "a91456b268a3a26617c4c4286c5e0ceb9a0fc68cc00287",
            "reqSigs": 1,
            "type": "scripthash",
            "addresses": [
              "MFoa4z4dPLXkejuCb9LxQdTnDXR1e9zwuM"
            ]
          }
        }
      ],
      "hex": "020000000187b97c4ec2480625948b5e2843a585362895146bfe8b74b4297f63544dacb72e000000006a47304402203b04f118bf50897516c8ff85549316d3b565caa7827c8640c39b4b397872d27302203cf51b9cc7e9104b1b0c2a3d7b3c8aeb8f7268f29995f56c8ea60be6223b270c01210277975d2330e286fb28b33095066955a27c27ea89081aa3cd25f1a08958b08241feffffff02e0d4b71a000000001976a9143fcbf8a944409d7e88fd675d88138c2dac7c10e188ac6034a61a0000000017a91456b268a3a26617c4c4286c5e0ceb9a0fc68cc00287ebc31400"
    }, 
    {
      "txid": "41567083395c67e060d76c31973bad4b449b201833bcd030f0eb7710ceb00101",
      "hash": "41567083395c67e060d76c31973bad4b449b201833bcd030f0eb7710ceb00101",
      "version": 1,
      "size": 225,
      "vsize": 225,
      "locktime": 0,
      "vin": [
        {
          "txid": "a4efd0ecc57ce5a2cd5e7d35469c995051e4b265bc458376408b2fca5c43ba58",
          "vout": 1,
          "scriptSig": {
            "asm": "304402205640a435f85a08317c1dc4b4ece84f221be5173b3116c98eb2eb5da95ec4911d0220393166933429ed2d7610fedb37808b7990433019e10911993e5ff86de1c17d24[ALL] 026eb6f9f6c8fd05192ad3329e22a39eff92fd4e5889e3ea0313541f26f2a65f06",
            "hex": "47304402205640a435f85a08317c1dc4b4ece84f221be5173b3116c98eb2eb5da95ec4911d0220393166933429ed2d7610fedb37808b7990433019e10911993e5ff86de1c17d240121026eb6f9f6c8fd05192ad3329e22a39eff92fd4e5889e3ea0313541f26f2a65f06"
          },
          "sequence": 4294967295
        }
      ],
      "vout": [
        {
          "value": 1.00000000,
          "n": 0,
          "scriptPubKey": {
            "asm": "OP_DUP OP_HASH160 61d69f130d56c916fb08208a2dc2495297614e29 OP_EQUALVERIFY OP_CHECKSIG",
            "hex": "76a91461d69f130d56c916fb08208a2dc2495297614e2988ac",
            "reqSigs": 1,
            "type": "pubkeyhash",
            "addresses": [
              "LU9GuyYnp2yX4k63Fw6oYcz3hqr9ddrUqD"
            ]
          }
        }, 
        {
          "value": 90.79552398,
          "n": 1,
          "scriptPubKey": {
            "asm": "OP_DUP OP_HASH160 a560eee6c62f432ee4949fd555cf79918bc853f5 OP_EQUALVERIFY OP_CHECKSIG",
            "hex": "76a914a560eee6c62f432ee4949fd555cf79918bc853f588ac",
            "reqSigs": 1,
            "type": "pubkeyhash",
            "addresses": [
              "LaJPsuJ7XK18CSt9zbZbRsjdnBqPwLFR5R"
            ]
          }
        }
      ],
      "hex": "010000000158ba435cca2f8b40768345bc65b2e45150999c46357d5ecda2e57cc5ecd0efa4010000006a47304402205640a435f85a08317c1dc4b4ece84f221be5173b3116c98eb2eb5da95ec4911d0220393166933429ed2d7610fedb37808b7990433019e10911993e5ff86de1c17d240121026eb6f9f6c8fd05192ad3329e22a39eff92fd4e5889e3ea0313541f26f2a65f06ffffffff0200e1f505000000001976a91461d69f130d56c916fb08208a2dc2495297614e2988ac8ef92e1d020000001976a914a560eee6c62f432ee4949fd555cf79918bc853f588ac00000000"
    }, 
    {
      "txid": "55ab627df80a876fd96bd53cb7572825d8331a08358298d2fa9094821ac9a33d",
      "hash": "55ab627df80a876fd96bd53cb7572825d8331a08358298d2fa9094821ac9a33d",
      "version": 1,
      "size": 225,
      "vsize": 225,
      "locktime": 0,
      "vin": [
        {
          "txid": "fc5ef380487ad6dbd5a0b1a769e673e85d54f08c24c3fe76026e1c678ca9956a",
          "vout": 1,
          "scriptSig": {
            "asm": "30440220601b7b6678baab448fd14646e19164b2da855c41d8b5e97ae44dcbfe214c7ed502207ad9e86b14c1daea158f310684576798458acd28afc451abf5cd662796174e83[ALL] 035ea45dc15d7263eee76fbdf01478bc836f427ac7a8ebd4d10b1f8bf1af393466",
            "hex": "4730440220601b7b6678baab448fd14646e19164b2da855c41d8b5e97ae44dcbfe214c7ed502207ad9e86b14c1daea158f310684576798458acd28afc451abf5cd662796174e830121035ea45dc15d7263eee76fbdf01478bc836f427ac7a8ebd4d10b1f8bf1af393466"
          },
          "sequence": 4294967295
        }
      ],
      "vout": [
        {
          "value": 0.00643515,
          "n": 0,
          "scriptPubKey": {
            "asm": "OP_DUP OP_HASH160 de679a06e81ab4e73ac8791eb091d906b1331294 OP_EQUALVERIFY OP_CHECKSIG",
            "hex": "76a914de679a06e81ab4e73ac8791eb091d906b133129488ac",
            "reqSigs": 1,
            "type": "pubkeyhash",
            "addresses": [
              "LfVvPAnGohwxkP4nk6ZKGfsC3WTiZFfh7k"
            ]
          }
        }, 
        {
          "value": 0.20000000,
          "n": 1,
          "scriptPubKey": {
            "asm": "OP_DUP OP_HASH160 1411831d7bf7d8a880b2ff1daf0811cbd20586c2 OP_EQUALVERIFY OP_CHECKSIG",
            "hex": "76a9141411831d7bf7d8a880b2ff1daf0811cbd20586c288ac",
            "reqSigs": 1,
            "type": "pubkeyhash",
            "addresses": [
              "LM44kpJj1CYL9rSDGGQR58bKbjt2JnqPeD"
            ]
          }
        }
      ],
      "hex": "01000000016a95a98c671c6e0276fec3248cf0545de873e669a7b1a0d5dbd67a4880f35efc010000006a4730440220601b7b6678baab448fd14646e19164b2da855c41d8b5e97ae44dcbfe214c7ed502207ad9e86b14c1daea158f310684576798458acd28afc451abf5cd662796174e830121035ea45dc15d7263eee76fbdf01478bc836f427ac7a8ebd4d10b1f8bf1af393466ffffffff02bbd10900000000001976a914de679a06e81ab4e73ac8791eb091d906b133129488ac002d3101000000001976a9141411831d7bf7d8a880b2ff1daf0811cbd20586c288ac00000000"
    }, 
    {
      "txid": "4324a22864c4556e8f4d85ed713638f3f16ea007c145bc2c470a03be19b5f367",
      "hash": "4324a22864c4556e8f4d85ed713638f3f16ea007c145bc2c470a03be19b5f367",
      "version": 1,
      "size": 225,
      "vsize": 225,
      "locktime": 0,
      "vin": [
        {
          "txid": "326eca7dfc948b382e61d098ef7a7538691051ad36a2f4ab1aa5ab28046046ad",
          "vout": 1,
          "scriptSig": {
            "asm": "3044022070260d3164b55ba08e375781953fa100e599573e0d866667d8365868480b8d5f02204b9c7ee8bdf0cd8abc889c7832b95258049ad85cd49059cc2326ff33ac7faf73[ALL] 0268837eecfb5aaff3b15c5b822f1b0d6553b270fa4e62432daee1f8774a782075",
            "hex": "473044022070260d3164b55ba08e375781953fa100e599573e0d866667d8365868480b8d5f02204b9c7ee8bdf0cd8abc889c7832b95258049ad85cd49059cc2326ff33ac7faf7301210268837eecfb5aaff3b15c5b822f1b0d6553b270fa4e62432daee1f8774a782075"
          },
          "sequence": 4294967295
        }
      ],
      "vout": [
        {
          "value": 0.27282727,
          "n": 0,
          "scriptPubKey": {
            "asm": "OP_DUP OP_HASH160 db5c357e7b4bbe50860db747e64218413eb217dd OP_EQUALVERIFY OP_CHECKSIG",
            "hex": "76a914db5c357e7b4bbe50860db747e64218413eb217dd88ac",
            "reqSigs": 1,
            "type": "pubkeyhash",
            "addresses": [
              "LfDpi1p6t1mXYVFKdrNTiaNJ6U5a6B2rm6"
            ]
          }
        }, 
        {
          "value": 0.00129566,
          "n": 1,
          "scriptPubKey": {
            "asm": "OP_DUP OP_HASH160 d4525554ca247750903140540a52846e0055c349 OP_EQUALVERIFY OP_CHECKSIG",
            "hex": "76a914d4525554ca247750903140540a52846e0055c34988ac",
            "reqSigs": 1,
            "type": "pubkeyhash",
            "addresses": [
              "Leac9Vzrr6ksrc7SPAyKaL9NtC7THMdRNZ"
            ]
          }
        }
      ],
      "hex": "0100000001ad46600428aba51aabf4a236ad51106938757aef98d0612e388b94fc7dca6e32010000006a473044022070260d3164b55ba08e375781953fa100e599573e0d866667d8365868480b8d5f02204b9c7ee8bdf0cd8abc889c7832b95258049ad85cd49059cc2326ff33ac7faf7301210268837eecfb5aaff3b15c5b822f1b0d6553b270fa4e62432daee1f8774a782075ffffffff02274da001000000001976a914db5c357e7b4bbe50860db747e64218413eb217dd88ac1efa0100000000001976a914d4525554ca247750903140540a52846e0055c34988ac00000000"
    }, 
    {
      "txid": "51e909667fb5bc4ff2692b7d02b92aad8a1565aec3654e82b4ba30960274e811",
      "hash": "51e909667fb5bc4ff2692b7d02b92aad8a1565aec3654e82b4ba30960274e811",
      "version": 1,
      "size": 226,
      "vsize": 226,
      "locktime": 0,
      "vin": [
        {
          "txid": "2fb3715197f23f770b434aac01a380c58b2428c51e89ec85bf8c3c4b2ba38869",
          "vout": 0,
          "scriptSig": {
            "asm": "3045022100d29d4b9fa9b8a3bacba7329a142a5259741bd04a84ba0d68dc8e51e176c1ddb80220360bf4696f1ba35192fe5541cdacc570d6f4870822689af4de7be5dcd107d377[ALL] 025546a6feac9e0bab208c8db548e4fed4c52c3e21d6d1cc5af8ffdb8c73575f2d",
            "hex": "483045022100d29d4b9fa9b8a3bacba7329a142a5259741bd04a84ba0d68dc8e51e176c1ddb80220360bf4696f1ba35192fe5541cdacc570d6f4870822689af4de7be5dcd107d3770121025546a6feac9e0bab208c8db548e4fed4c52c3e21d6d1cc5af8ffdb8c73575f2d"
          },
          "sequence": 4294967295
        }
      ],
      "vout": [
        {
          "value": 0.00301505,
          "n": 0,
          "scriptPubKey": {
            "asm": "OP_DUP OP_HASH160 e152e64020b425e6d4175094685c4fc7e071828d OP_EQUALVERIFY OP_CHECKSIG",
            "hex": "76a914e152e64020b425e6d4175094685c4fc7e071828d88ac",
            "reqSigs": 1,
            "type": "pubkeyhash",
            "addresses": [
              "LfmMcKwAAv9X4irDPDgVx3DhGbQCBiN4oa"
            ]
          }
        }, 
        {
          "value": 0.27717709,
          "n": 1,
          "scriptPubKey": {
            "asm": "OP_DUP OP_HASH160 b07f58a56ab71c81e18e9d50e175cec7d7b25c63 OP_EQUALVERIFY OP_CHECKSIG",
            "hex": "76a914b07f58a56ab71c81e18e9d50e175cec7d7b25c6388ac",
            "reqSigs": 1,
            "type": "pubkeyhash",
            "addresses": [
              "LbKBk9crtXzXoMzehD2TfJ4Ycz9L5uzJRk"
            ]
          }
        }
      ],
      "hex": "01000000016988a32b4b3c8cbf85ec891ec528248bc580a301ac4a430b773ff2975171b32f000000006b483045022100d29d4b9fa9b8a3bacba7329a142a5259741bd04a84ba0d68dc8e51e176c1ddb80220360bf4696f1ba35192fe5541cdacc570d6f4870822689af4de7be5dcd107d3770121025546a6feac9e0bab208c8db548e4fed4c52c3e21d6d1cc5af8ffdb8c73575f2dffffffff02c1990400000000001976a914e152e64020b425e6d4175094685c4fc7e071828d88ac4df0a601000000001976a914b07f58a56ab71c81e18e9d50e175cec7d7b25c6388ac00000000"
    }
  ],
  "time": 1517502987,
  "mediantime": 1517502162,
  "nonce": 25012949,
  "bits": "1a04088e",
  "difficulty": 4159490.835685156,
  "chainwork": "0000000000000000000000000000000000000000000000356c1ca592a7f17530",
  "previousblockhash": "390a73943ee46e26ac845694e874934843f4123ebcbfd64bece7b5010b4da93d",
  "nextblockhash": "9cebe3ffde06781371c9177c1613a25e59763f0ef34d7ee5174f5b8c1efc68b0"
}
