{
  "hash": "c9ec59d1939bf9d6601ea6f6106c0b4f33a2f999ae0f921bcdbc86c3b0187902",
  "confirmations": 2019,
  "strippedsize": 254,
  "size": 254,
  "weight": 1016,
  "height": 1358975,
  "version": 536870912,
  "versionHex": "20000000",
  "merkleroot": "9a3fb48bcc5a2ea8314a5a8b3e1c9119b59e8445365676427a346988adeab0ea",
  "tx": [
    {
      "txid": "9a3fb48bcc5a2ea8314a5a8b3e1c9119b59e8445365676427a346988adeab0ea",
      "hash": "9a3fb48bcc5a2ea8314a5a8b3e1c9119b59e8445365676427a346988adeab0ea",
      "version": 1,
      "size": 173,
      "vsize": 173,
      "locktime": 0,
      "vin": [
        {
          "coinbase": "037fbc141b4d696e656420627920416e74506f6f6c20626a302042205a6eeff2fabe6d6de76085f2cb1864f97cf26def12b00e117ca388573047886b3f1d5ee56f2d89dd0400000000000000931400000000000001000000",
          "sequence": 4294967295
        }
      ],
      "vout": [
        {
          "value": 25.00000000,
          "n": 0,
          "scriptPubKey": {
            "asm": "OP_DUP OP_HASH160 0ff3ccc5e8be88afe24b5d634e5852d474dbdff1 OP_EQUALVERIFY OP_CHECKSIG",
            "hex": "76a9140ff3ccc5e8be88afe24b5d634e5852d474dbdff188ac",
            "reqSigs": 1,
            "type": "pubkeyhash",
            "addresses": [
              "LLgJTbzZMsRTCUF1NtvvL9SR1a4pVieW89"
            ]
          }
        }
      ],
      "hex": "01000000010000000000000000000000000000000000000000000000000000000000000000ffffffff58037fbc141b4d696e656420627920416e74506f6f6c20626a302042205a6eeff2fabe6d6de76085f2cb1864f97cf26def12b00e117ca388573047886b3f1d5ee56f2d89dd0400000000000000931400000000000001000000ffffffff0100f90295000000001976a9140ff3ccc5e8be88afe24b5d634e5852d474dbdff188ac00000000"
    }
  ],
  "time": 1517219826,
  "mediantime": 1517218848,
  "nonce": 1498627648,
  "bits": "1a042eae",
  "difficulty": 4011378.762614286,
  "chainwork": "000000000000000000000000000000000000000000000033928e30a9009ec600",
  "previousblockhash": "53e5893a6e6ac2f6b511b723ac489996c4d74b45384f8d449b56224380a5df06",
  "nextblockhash": "142b309a2d86759572134c58975a67ec7733bf8aa9549802b659d9facfea5fd8"
}
