{
  "hash": "ca3c6717c1e4d486206986e2d903f9b84f7b67423a561045983597c913c2983b",
  "confirmations": 3260,
  "strippedsize": 234,
  "size": 234,
  "weight": 936,
  "height": 1357735,
  "version": 536870912,
  "versionHex": "20000000",
  "merkleroot": "b21ba1527fe44d56eacbc04043ff35452863da2e0641a06f937e351df8f4bc1a",
  "tx": [
    {
      "txid": "b21ba1527fe44d56eacbc04043ff35452863da2e0641a06f937e351df8f4bc1a",
      "hash": "b21ba1527fe44d56eacbc04043ff35452863da2e0641a06f937e351df8f4bc1a",
      "version": 1,
      "size": 153,
      "vsize": 153,
      "locktime": 0,
      "vin": [
        {
          "coinbase": "03a7b714045a6c37642cfabe6d6d161e446113b823265f32777a0c05d0c435cd705bafe32c4d0d1ae4cd996da21a4000000000000000042f4c502f08570022e50f000000",
          "sequence": 4294967295
        }
      ],
      "vout": [
        {
          "value": 25.00000000,
          "n": 0,
          "scriptPubKey": {
            "asm": "OP_DUP OP_HASH160 57757ed2ecf2052ff3126c397aca7defb9ca2cec OP_EQUALVERIFY OP_CHECKSIG",
            "hex": "76a91457757ed2ecf2052ff3126c397aca7defb9ca2cec88ac",
            "reqSigs": 1,
            "type": "pubkeyhash",
            "addresses": [
              "LTCPodGk5FwcJaRzH9yKnwicxzFUbxp6tN"
            ]
          }
        }
      ],
      "hex": "01000000010000000000000000000000000000000000000000000000000000000000000000ffffffff4403a7b714045a6c37642cfabe6d6d161e446113b823265f32777a0c05d0c435cd705bafe32c4d0d1ae4cd996da21a4000000000000000042f4c502f08570022e50f000000ffffffff0100f90295000000001976a91457757ed2ecf2052ff3126c397aca7defb9ca2cec88ac00000000"
    }
  ],
  "time": 1517041508,
  "mediantime": 1517040751,
  "nonce": 3009960098,
  "bits": "1a047f14",
  "difficulty": 3731199.183374282,
  "chainwork": "0000000000000000000000000000000000000000000000327b929ef2d5c59a10",
  "previousblockhash": "1686a329becda7a97b094d82420490c75d84c71a4102393af970d58cd9192c23",
  "nextblockhash": "30bc36ff034af821589545ace469ee422912eb848f971e1d58441e050b4a5402"
}
