{
  "hash": "ca6cacd8eaf670a805fb6dd08d00655909b28cbcb00853650fe0053bc53050c1",
  "confirmations": 2162,
  "strippedsize": 253,
  "size": 253,
  "weight": 1012,
  "height": 1358832,
  "version": 536870912,
  "versionHex": "20000000",
  "merkleroot": "7885ac40a8936dba98de8035e8a62ef372c2091b8cfe6db8505ad1f5a29ce9f3",
  "tx": [
    {
      "txid": "7885ac40a8936dba98de8035e8a62ef372c2091b8cfe6db8505ad1f5a29ce9f3",
      "hash": "7885ac40a8936dba98de8035e8a62ef372c2091b8cfe6db8505ad1f5a29ce9f3",
      "version": 1,
      "size": 172,
      "vsize": 172,
      "locktime": 0,
      "vin": [
        {
          "coinbase": "03f0bb141a4d696e656420627920416e74506f6f6c20626a331f205a6e9b35fabe6d6dd67e11f3383497b7357cdcd68013b332f5dcae63f8d52d55ef18eb8fdc191f510400000000000000950b00000000000003000000",
          "sequence": 4294967295
        }
      ],
      "vout": [
        {
          "value": 25.00000000,
          "n": 0,
          "scriptPubKey": {
            "asm": "OP_DUP OP_HASH160 0ff3ccc5e8be88afe24b5d634e5852d474dbdff1 OP_EQUALVERIFY OP_CHECKSIG",
            "hex": "76a9140ff3ccc5e8be88afe24b5d634e5852d474dbdff188ac",
            "reqSigs": 1,
            "type": "pubkeyhash",
            "addresses": [
              "LLgJTbzZMsRTCUF1NtvvL9SR1a4pVieW89"
            ]
          }
        }
      ],
      "hex": "01000000010000000000000000000000000000000000000000000000000000000000000000ffffffff5703f0bb141a4d696e656420627920416e74506f6f6c20626a331f205a6e9b35fabe6d6dd67e11f3383497b7357cdcd68013b332f5dcae63f8d52d55ef18eb8fdc191f510400000000000000950b00000000000003000000ffffffff0100f90295000000001976a9140ff3ccc5e8be88afe24b5d634e5852d474dbdff188ac00000000"
    }
  ],
  "time": 1517198133,
  "mediantime": 1517197551,
  "nonce": 1388537638,
  "bits": "1a042eae",
  "difficulty": 4011378.762614286,
  "chainwork": "000000000000000000000000000000000000000000000033705d335cf58a1662",
  "previousblockhash": "bcb9b5702fcd000a0a8ce167aa0bbeb10f118279f46364bdbfc66df2aa2bc63d",
  "nextblockhash": "947034e9bd6fa06595abebe9c6cc4de83994f60b0abfed2784ac123f642e26c2"
}
