{
  "hash": "cac08cc3652a1255694feaf7600f6c9cb9e40f40a2f5348a1ee9ad8d77cdf654",
  "confirmations": 3089,
  "strippedsize": 2262,
  "size": 2298,
  "weight": 9084,
  "height": 1357906,
  "version": 536870912,
  "versionHex": "20000000",
  "merkleroot": "f5885ef319a97c291ff212ee155d964fd394d58bf9f7991876b963e96cd27c4a",
  "tx": [
    {
      "txid": "35682331bd17b6b141df25c48e8c21b872425753aa334e5ba89970f01a4803f9",
      "hash": "cc15c3c734c259681c9ba33e7d7cc5ca5d539ab36871fbd6eee2e158136bafc2",
      "version": 1,
      "size": 244,
      "vsize": 217,
      "locktime": 0,
      "vin": [
        {
          "coinbase": "0352b81404e88d6c5a08057b303a11000000fabe6d6d9933d41f26c50411c86b7e70647f61656a1e2ab8ef858e68c1869300f043490f40000000000000000d2f6e6f64655374726174756d2f",
          "sequence": 0
        }
      ],
      "vout": [
        {
          "value": 25.00197600,
          "n": 0,
          "scriptPubKey": {
            "asm": "OP_DUP OP_HASH160 0c617fdb2ea42aed30a509595ee21ba3f6688db0 OP_EQUALVERIFY OP_CHECKSIG",
            "hex": "76a9140c617fdb2ea42aed30a509595ee21ba3f6688db088ac",
            "reqSigs": 1,
            "type": "pubkeyhash",
            "addresses": [
              "LLMRAtr3qBje2ySEa3CnZ55LA4TQMWnRY3"
            ]
          }
        }, 
        {
          "value": 0.00000000,
          "n": 1,
          "scriptPubKey": {
            "asm": "OP_RETURN aa21a9edd6107ebe8024c71a71d048f71e23fe5bea2aac45c4bcbc8b2c7fd37f0f46ae92",
            "hex": "6a24aa21a9edd6107ebe8024c71a71d048f71e23fe5bea2aac45c4bcbc8b2c7fd37f0f46ae92",
            "type": "nulldata"
          }
        }
      ],
      "hex": "010000000001010000000000000000000000000000000000000000000000000000000000000000ffffffff4c0352b81404e88d6c5a08057b303a11000000fabe6d6d9933d41f26c50411c86b7e70647f61656a1e2ab8ef858e68c1869300f043490f40000000000000000d2f6e6f64655374726174756d2f0000000002e0fc0595000000001976a9140c617fdb2ea42aed30a509595ee21ba3f6688db088ac0000000000000000266a24aa21a9edd6107ebe8024c71a71d048f71e23fe5bea2aac45c4bcbc8b2c7fd37f0f46ae920120000000000000000000000000000000000000000000000000000000000000000000000000"
    }, 
    {
      "txid": "c8826a0584dcc4680ca27ca69e98f67b27459003b7078c4e0153ad32c85616d2",
      "hash": "c8826a0584dcc4680ca27ca69e98f67b27459003b7078c4e0153ad32c85616d2",
      "version": 2,
      "size": 338,
      "vsize": 338,
      "locktime": 1330890,
      "vin": [
        {
          "txid": "3d6614495c5578183a990696d319b4d126076956ca98c8cc76809e422cadd3cc",
          "vout": 0,
          "scriptSig": {
            "asm": "304402201c52075e676bd2e0a5cc3507fb6ec5012d6c0bfdeef8be9bf9f69d7d1ec9bb43022039665f3d3c5763e3a6f2663946f7f026b0f5a5b84552162ed4ea69ce85b61479[ALL] 02a621b10f62a64a864685ecaf414bd169ac1304c727129bdb091fcb8b10e9d2e3",
            "hex": "47304402201c52075e676bd2e0a5cc3507fb6ec5012d6c0bfdeef8be9bf9f69d7d1ec9bb43022039665f3d3c5763e3a6f2663946f7f026b0f5a5b84552162ed4ea69ce85b61479012102a621b10f62a64a864685ecaf414bd169ac1304c727129bdb091fcb8b10e9d2e3"
          },
          "sequence": 4294967294
        }, 
        {
          "txid": "883b9fa08f4fc8c26668f78f29b8498363a81b53892623a9587ae0c8c389cf0a",
          "vout": 1,
          "scriptSig": {
            "asm": "304402205f3a24d63e4f94420c679819f39bdcc0fea8ce056b1b381da315738238cefb070220679184c3fdab51c9cb5928c4fc38aba756996c6b3a0c29aae4a570082c0a7ff7[ALL] 03eef3ad06aff8fa45db392d04956051e58553611a97ff75a4be5e590cae4e61f0",
            "hex": "47304402205f3a24d63e4f94420c679819f39bdcc0fea8ce056b1b381da315738238cefb070220679184c3fdab51c9cb5928c4fc38aba756996c6b3a0c29aae4a570082c0a7ff7012103eef3ad06aff8fa45db392d04956051e58553611a97ff75a4be5e590cae4e61f0"
          },
          "sequence": 4294967294
        }
      ],
      "vout": [
        {
          "value": 53.52457355,
          "n": 0,
          "scriptPubKey": {
            "asm": "OP_DUP OP_HASH160 d808c4a2952c36a8e9541cafec9347ecc1fe076a OP_EQUALVERIFY OP_CHECKSIG",
            "hex": "76a914d808c4a2952c36a8e9541cafec9347ecc1fe076a88ac",
            "reqSigs": 1,
            "type": "pubkeyhash",
            "addresses": [
              "LevEisF2igwhfEndgsNcXsJzAseroce7fr"
            ]
          }
        }
      ],
      "hex": "0200000002ccd3ad2c429e8076ccc898ca56690726d1b419d39606993a1878555c4914663d000000006a47304402201c52075e676bd2e0a5cc3507fb6ec5012d6c0bfdeef8be9bf9f69d7d1ec9bb43022039665f3d3c5763e3a6f2663946f7f026b0f5a5b84552162ed4ea69ce85b61479012102a621b10f62a64a864685ecaf414bd169ac1304c727129bdb091fcb8b10e9d2e3feffffff0acf89c3c8e07a58a9232689531ba8638349b8298ff76866c2c84f8fa09f3b88010000006a47304402205f3a24d63e4f94420c679819f39bdcc0fea8ce056b1b381da315738238cefb070220679184c3fdab51c9cb5928c4fc38aba756996c6b3a0c29aae4a570082c0a7ff7012103eef3ad06aff8fa45db392d04956051e58553611a97ff75a4be5e590cae4e61f0feffffff018b04083f010000001976a914d808c4a2952c36a8e9541cafec9347ecc1fe076a88acca4e1400"
    }, 
    {
      "txid": "563dcc84830ef1ea8ea45751cb3d6d90d33a17f522757748d1faf06746e90782",
      "hash": "563dcc84830ef1ea8ea45751cb3d6d90d33a17f522757748d1faf06746e90782",
      "version": 2,
      "size": 1635,
      "vsize": 1635,
      "locktime": 1357904,
      "vin": [
        {
          "txid": "2764c31d0c3f31e790766dd5f769c58f436eb9b90f165346e1dbf2840a4794ae",
          "vout": 1,
          "scriptSig": {
            "asm": "3045022100e0d7d13a63824e63c02f5f36514fe10a00592ef5962e51404caeaf5d7b57d8e202206289733700593f8bfa09dcd4810fe83dc0981920eef28828d3617d324c59220b[ALL] 02e2037bd3b8ff3ee3e1c67e232b207d138124a826a4f761eeba99ff99c4b60c29",
            "hex": "483045022100e0d7d13a63824e63c02f5f36514fe10a00592ef5962e51404caeaf5d7b57d8e202206289733700593f8bfa09dcd4810fe83dc0981920eef28828d3617d324c59220b012102e2037bd3b8ff3ee3e1c67e232b207d138124a826a4f761eeba99ff99c4b60c29"
          },
          "sequence": 4294967294
        }, 
        {
          "txid": "95538fbd9090a8342902f9c6a537c1238f27fb9b515b39f9e216c4933f8b1950",
          "vout": 5,
          "scriptSig": {
            "asm": "30450221009d1a895bc4072c7b2b6c20d60f12a7216460d77256bd5a886044181a89ad1ec20220092b51dbc8b0c75d6298374448994e34c7c6115f8eec53d98560eac1d593083a[ALL] 038902b5817dfbe1c1d1bd0f04df195ded2db7729d2ec6d88caf7f839f09fb904d",
            "hex": "4830450221009d1a895bc4072c7b2b6c20d60f12a7216460d77256bd5a886044181a89ad1ec20220092b51dbc8b0c75d6298374448994e34c7c6115f8eec53d98560eac1d593083a0121038902b5817dfbe1c1d1bd0f04df195ded2db7729d2ec6d88caf7f839f09fb904d"
          },
          "sequence": 4294967294
        }, 
        {
          "txid": "d432a7247ab05d7f78303fac0b01df39b908035c60a5ca879bbc67efc50038de",
          "vout": 2,
          "scriptSig": {
            "asm": "30440220323c75c54262dd4fbb6355bf8eab18a11bcd2761547758155d71251d1a86615902202ea05f87703c0bb21df200c8ae913eb4a6809c96c898f7791f3aea1ff2478bca[ALL] 035539084d17c818171151c5eb8bb6ad02e6e4982052c24c990604292456d5127b",
            "hex": "4730440220323c75c54262dd4fbb6355bf8eab18a11bcd2761547758155d71251d1a86615902202ea05f87703c0bb21df200c8ae913eb4a6809c96c898f7791f3aea1ff2478bca0121035539084d17c818171151c5eb8bb6ad02e6e4982052c24c990604292456d5127b"
          },
          "sequence": 4294967294
        }
      ],
      "vout": [
        {
          "value": 0.99000000,
          "n": 0,
          "scriptPubKey": {
            "asm": "OP_HASH160 0e307bd49b284ee3861a4315ecccda28f1f635db OP_EQUAL",
            "hex": "a9140e307bd49b284ee3861a4315ecccda28f1f635db87",
            "reqSigs": 1,
            "type": "scripthash",
            "addresses": [
              "M9CBmphdqWE4DrJBRJ8BsfQcgb7LwoyhQ9"
            ]
          }
        }, 
        {
          "value": 0.14357452,
          "n": 1,
          "scriptPubKey": {
            "asm": "OP_HASH160 e5d541ed451cde687782194bec7f72601dfdff85 OP_EQUAL",
            "hex": "a914e5d541ed451cde687782194bec7f72601dfdff8587",
            "reqSigs": 1,
            "type": "scripthash",
            "addresses": [
              "MUrQSkaEfC8b8RxJA8aaHYVagx8xyYJ1iQ"
            ]
          }
        }, 
        {
          "value": 0.50000000,
          "n": 2,
          "scriptPubKey": {
            "asm": "OP_DUP OP_HASH160 8110d710820af43b7a82b942fea789c1b504371a OP_EQUALVERIFY OP_CHECKSIG",
            "hex": "76a9148110d710820af43b7a82b942fea789c1b504371a88ac",
            "reqSigs": 1,
            "type": "pubkeyhash",
            "addresses": [
              "LWzPc2fUXLwpv9ByERzboGwwidxCn1SyDu"
            ]
          }
        }, 
        {
          "value": 0.23559670,
          "n": 3,
          "scriptPubKey": {
            "asm": "OP_DUP OP_HASH160 be2a80d7a409f9f0f1a30f99f63e8adc6fb0fe68 OP_EQUALVERIFY OP_CHECKSIG",
            "hex": "76a914be2a80d7a409f9f0f1a30f99f63e8adc6fb0fe6888ac",
            "reqSigs": 1,
            "type": "pubkeyhash",
            "addresses": [
              "LcZTZqjziENfc5GnNgFFGgvtq7ECD8FxNF"
            ]
          }
        }, 
        {
          "value": 2.19405528,
          "n": 4,
          "scriptPubKey": {
            "asm": "OP_DUP OP_HASH160 37fc4a32fb14a4f711adb9df45bb78a601067671 OP_EQUALVERIFY OP_CHECKSIG",
            "hex": "76a91437fc4a32fb14a4f711adb9df45bb78a60106767188ac",
            "reqSigs": 1,
            "type": "pubkeyhash",
            "addresses": [
              "LQKyfAm8o2jxBAvepQwaDdJkJSjWiXiVPe"
            ]
          }
        }, 
        {
          "value": 0.87484905,
          "n": 5,
          "scriptPubKey": {
            "asm": "OP_DUP OP_HASH160 078e0a5a1373ffdee5fae4f45e44b3e3daa8a6b5 OP_EQUALVERIFY OP_CHECKSIG",
            "hex": "76a914078e0a5a1373ffdee5fae4f45e44b3e3daa8a6b588ac",
            "reqSigs": 1,
            "type": "pubkeyhash",
            "addresses": [
              "LKuu9hTgV6V5KCRSMy4tbBTvqwsJm717BE"
            ]
          }
        }, 
        {
          "value": 0.17251900,
          "n": 6,
          "scriptPubKey": {
            "asm": "OP_DUP OP_HASH160 00315289746578844c98b8b8ad26f96c48c490b0 OP_EQUALVERIFY OP_CHECKSIG",
            "hex": "76a91400315289746578844c98b8b8ad26f96c48c490b088ac",
            "reqSigs": 1,
            "type": "pubkeyhash",
            "addresses": [
              "LKEyMCDK2zhHUkSA2bqMJC8MYNTvapeiGY"
            ]
          }
        }, 
        {
          "value": 0.99000000,
          "n": 7,
          "scriptPubKey": {
            "asm": "OP_DUP OP_HASH160 134b6dac706e363c41b636da16cdb328fef9c4ec OP_EQUALVERIFY OP_CHECKSIG",
            "hex": "76a914134b6dac706e363c41b636da16cdb328fef9c4ec88ac",
            "reqSigs": 1,
            "type": "pubkeyhash",
            "addresses": [
              "LLyyTiU6UvjQXCEJP42xbsNrtmsdbHwRyA"
            ]
          }
        }, 
        {
          "value": 5.13535437,
          "n": 8,
          "scriptPubKey": {
            "asm": "OP_DUP OP_HASH160 c0aa1390aeece16468f16fd1c4c8579715926bdf OP_EQUALVERIFY OP_CHECKSIG",
            "hex": "76a914c0aa1390aeece16468f16fd1c4c8579715926bdf88ac",
            "reqSigs": 1,
            "type": "pubkeyhash",
            "addresses": [
              "LcnfkALKJBjRtKA8FGgU1vaJJVTds1scq6"
            ]
          }
        }, 
        {
          "value": 0.39953775,
          "n": 9,
          "scriptPubKey": {
            "asm": "OP_DUP OP_HASH160 d4467b5120745ee8dcabf913e19efd3cbeece6d6 OP_EQUALVERIFY OP_CHECKSIG",
            "hex": "76a914d4467b5120745ee8dcabf913e19efd3cbeece6d688ac",
            "reqSigs": 1,
            "type": "pubkeyhash",
            "addresses": [
              "LeaMx32zmr8c7giZ1A9tftLRy8ZHyd4eTN"
            ]
          }
        }, 
        {
          "value": 1.22000000,
          "n": 10,
          "scriptPubKey": {
            "asm": "OP_HASH160 bd9aedb87adb567274b30b2647d40be0b18e7880 OP_EQUAL",
            "hex": "a914bd9aedb87adb567274b30b2647d40be0b18e788087",
            "reqSigs": 1,
            "type": "scripthash",
            "addresses": [
              "MRBhYK9bebDCPqZNXV8ZUHaLxvLtdqPDyf"
            ]
          }
        }, 
        {
          "value": 13.61636000,
          "n": 11,
          "scriptPubKey": {
            "asm": "OP_DUP OP_HASH160 0372069b31ff42ff30525049db667e5d4068f32d OP_EQUALVERIFY OP_CHECKSIG",
            "hex": "76a9140372069b31ff42ff30525049db667e5d4068f32d88ac",
            "reqSigs": 1,
            "type": "pubkeyhash",
            "addresses": [
              "LKYAtSVfCtJLYiFN6EQ2coWpUpLoj1hjGK"
            ]
          }
        }, 
        {
          "value": 0.65200000,
          "n": 12,
          "scriptPubKey": {
            "asm": "OP_DUP OP_HASH160 1c1eaa39a5fa170171f8dcc7c67a6261557bd585 OP_EQUALVERIFY OP_CHECKSIG",
            "hex": "76a9141c1eaa39a5fa170171f8dcc7c67a6261557bd58588ac",
            "reqSigs": 1,
            "type": "pubkeyhash",
            "addresses": [
              "LMndvDpP3PxtQP9b2jS44nobmWQWNucYBD"
            ]
          }
        }, 
        {
          "value": 0.02000000,
          "n": 13,
          "scriptPubKey": {
            "asm": "OP_DUP OP_HASH160 ded7b7ac95601a222dee5d8bfa811555753e5fdc OP_EQUALVERIFY OP_CHECKSIG",
            "hex": "76a914ded7b7ac95601a222dee5d8bfa811555753e5fdc88ac",
            "reqSigs": 1,
            "type": "pubkeyhash",
            "addresses": [
              "LfYEh7UWYb3xkVCh7hbsJBuLEXZuC387Kt"
            ]
          }
        }, 
        {
          "value": 3.14811000,
          "n": 14,
          "scriptPubKey": {
            "asm": "OP_DUP OP_HASH160 09367f8b337cf9e8e0c154efb34d3859d728ba27 OP_EQUALVERIFY OP_CHECKSIG",
            "hex": "76a91409367f8b337cf9e8e0c154efb34d3859d728ba2788ac",
            "reqSigs": 1,
            "type": "pubkeyhash",
            "addresses": [
              "LL4fdYPggMCVMAu663sM3b14K8v4P9R19L"
            ]
          }
        }, 
        {
          "value": 0.29469500,
          "n": 15,
          "scriptPubKey": {
            "asm": "OP_DUP OP_HASH160 1f41475a7ff3369b12bd306ce304b0c2c0d55f5d OP_EQUALVERIFY OP_CHECKSIG",
            "hex": "76a9141f41475a7ff3369b12bd306ce304b0c2c0d55f5d88ac",
            "reqSigs": 1,
            "type": "pubkeyhash",
            "addresses": [
              "LN5DQoeUmgGNCazM73CSZESW5dPJsX99CK"
            ]
          }
        }, 
        {
          "value": 0.29005400,
          "n": 16,
          "scriptPubKey": {
            "asm": "OP_DUP OP_HASH160 add8771f083d3b76e405aee60546771f6036561a OP_EQUALVERIFY OP_CHECKSIG",
            "hex": "76a914add8771f083d3b76e405aee60546771f6036561a88ac",
            "reqSigs": 1,
            "type": "pubkeyhash",
            "addresses": [
              "Lb5AUg2Divhe9szNqD1yeUg1BL1Zr3SYTL"
            ]
          }
        }, 
        {
          "value": 2.49000000,
          "n": 17,
          "scriptPubKey": {
            "asm": "OP_DUP OP_HASH160 713433d9cea16d5de4fe63ccd3aa42aaf60acb2d OP_EQUALVERIFY OP_CHECKSIG",
            "hex": "76a914713433d9cea16d5de4fe63ccd3aa42aaf60acb2d88ac",
            "reqSigs": 1,
            "type": "pubkeyhash",
            "addresses": [
              "LVYX9z9Q3aFFzexMddZNyXEwDQKyGWnpoT"
            ]
          }
        }, 
        {
          "value": 0.11297423,
          "n": 18,
          "scriptPubKey": {
            "asm": "OP_DUP OP_HASH160 e280c3eecf6bd43002ac03c75e5a897ad9d01701 OP_EQUALVERIFY OP_CHECKSIG",
            "hex": "76a914e280c3eecf6bd43002ac03c75e5a897ad9d0170188ac",
            "reqSigs": 1,
            "type": "pubkeyhash",
            "addresses": [
              "LfsbELjAQckKgaajA64z32axKJsNrSNT33"
            ]
          }
        }, 
        {
          "value": 0.20054700,
          "n": 19,
          "scriptPubKey": {
            "asm": "OP_DUP OP_HASH160 891ad65bb37841cef35ca660943cd92615cbab76 OP_EQUALVERIFY OP_CHECKSIG",
            "hex": "76a914891ad65bb37841cef35ca660943cd92615cbab7688ac",
            "reqSigs": 1,
            "type": "pubkeyhash",
            "addresses": [
              "LXitzBfLoo9ejtWU5Mdi6KxYQw6VY1HS8u"
            ]
          }
        }, 
        {
          "value": 0.47152718,
          "n": 20,
          "scriptPubKey": {
            "asm": "OP_DUP OP_HASH160 b17f8ee9be9abf631a648346407cfc3f959d447d OP_EQUALVERIFY OP_CHECKSIG",
            "hex": "76a914b17f8ee9be9abf631a648346407cfc3f959d447d88ac",
            "reqSigs": 1,
            "type": "pubkeyhash",
            "addresses": [
              "LbQUg51JpPwxkiVz2DS75HS6Fktfd5AS5T"
            ]
          }
        }, 
        {
          "value": 0.28941216,
          "n": 21,
          "scriptPubKey": {
            "asm": "OP_DUP OP_HASH160 b6c526fc382deac31f9bf198bb4462d3e27b723d OP_EQUALVERIFY OP_CHECKSIG",
            "hex": "76a914b6c526fc382deac31f9bf198bb4462d3e27b723d88ac",
            "reqSigs": 1,
            "type": "pubkeyhash",
            "addresses": [
              "LbtMRWNFacfoB8d96W1Rd6iV7zLrEgkB5B"
            ]
          }
        }, 
        {
          "value": 4.44557600,
          "n": 22,
          "scriptPubKey": {
            "asm": "OP_DUP OP_HASH160 337c362a7b0bd5907e52b44626a82d6049575b32 OP_EQUALVERIFY OP_CHECKSIG",
            "hex": "76a914337c362a7b0bd5907e52b44626a82d6049575b3288ac",
            "reqSigs": 1,
            "type": "pubkeyhash",
            "addresses": [
              "LPvBXNLMi4nZzrRsCz2tVQq3nuUnyyE9MF"
            ]
          }
        }, 
        {
          "value": 12.28769000,
          "n": 23,
          "scriptPubKey": {
            "asm": "OP_DUP OP_HASH160 5eb88fd66b29fac7450c632566d72b74fd5fce58 OP_EQUALVERIFY OP_CHECKSIG",
            "hex": "76a9145eb88fd66b29fac7450c632566d72b74fd5fce5888ac",
            "reqSigs": 1,
            "type": "pubkeyhash",
            "addresses": [
              "LTrnspzfBq6bZxG8ukLPin4DuH6NLBpqv1"
            ]
          }
        }, 
        {
          "value": 1.17322000,
          "n": 24,
          "scriptPubKey": {
            "asm": "OP_DUP OP_HASH160 e7752cc2bf7d0a0f6b73200f4ea5fa76bc90744d OP_EQUALVERIFY OP_CHECKSIG",
            "hex": "76a914e7752cc2bf7d0a0f6b73200f4ea5fa76bc90744d88ac",
            "reqSigs": 1,
            "type": "pubkeyhash",
            "addresses": [
              "LgKniycazCgWsmr1pyMCHzyDx9ww6aFGJU"
            ]
          }
        }, 
        {
          "value": 5.69000000,
          "n": 25,
          "scriptPubKey": {
            "asm": "OP_DUP OP_HASH160 45492e41e06678df9d0632071a06aee76c107a71 OP_EQUALVERIFY OP_CHECKSIG",
            "hex": "76a91445492e41e06678df9d0632071a06aee76c107a7188ac",
            "reqSigs": 1,
            "type": "pubkeyhash",
            "addresses": [
              "LRYJZ8fbsvcSwB2N4kGUkvWGZgJpC3RiRR"
            ]
          }
        }, 
        {
          "value": 0.05893000,
          "n": 26,
          "scriptPubKey": {
            "asm": "OP_DUP OP_HASH160 b627149bc275733f67d83b046a11e76526588991 OP_EQUALVERIFY OP_CHECKSIG",
            "hex": "76a914b627149bc275733f67d83b046a11e7652658899188ac",
            "reqSigs": 1,
            "type": "pubkeyhash",
            "addresses": [
              "Lbq64VCZQqVjJR81rhbNtGKjpir2CHr9ti"
            ]
          }
        }, 
        {
          "value": 0.63836000,
          "n": 27,
          "scriptPubKey": {
            "asm": "OP_DUP OP_HASH160 9671dff0438ae14dbfae88e67352021bb62367ba OP_EQUALVERIFY OP_CHECKSIG",
            "hex": "76a9149671dff0438ae14dbfae88e67352021bb62367ba88ac",
            "reqSigs": 1,
            "type": "pubkeyhash",
            "addresses": [
              "LYwS39LhK8EhMFiDstXSUCCKpB8f8yfwkK"
            ]
          }
        }, 
        {
          "value": 0.19355155,
          "n": 28,
          "scriptPubKey": {
            "asm": "OP_HASH160 d68e8139375ca48f13c33cfacf44ac02ffed87e7 OP_EQUAL",
            "hex": "a914d68e8139375ca48f13c33cfacf44ac02ffed87e787",
            "reqSigs": 1,
            "type": "scripthash",
            "addresses": [
              "MTTdYtRxiSj6kYWRXcbYXte3FHXhKvq43U"
            ]
          }
        }, 
        {
          "value": 0.22976718,
          "n": 29,
          "scriptPubKey": {
            "asm": "OP_DUP OP_HASH160 e551355720aa4a4f0307f578bdb495042638a866 OP_EQUALVERIFY OP_CHECKSIG",
            "hex": "76a914e551355720aa4a4f0307f578bdb495042638a86688ac",
            "reqSigs": 1,
            "type": "pubkeyhash",
            "addresses": [
              "Lg8UHbdviBsMuscGJ9UBzZ6AZNDne6Aw5E"
            ]
          }
        }, 
        {
          "value": 10.33212660,
          "n": 30,
          "scriptPubKey": {
            "asm": "OP_DUP OP_HASH160 d45304e9f9b7ff31b0a6c84fae76c1c536059ccf OP_EQUALVERIFY OP_CHECKSIG",
            "hex": "76a914d45304e9f9b7ff31b0a6c84fae76c1c536059ccf88ac",
            "reqSigs": 1,
            "type": "pubkeyhash",
            "addresses": [
              "Leacy9zbP686aYe4t4McdwEWhkdvJ69nqR"
            ]
          }
        }, 
        {
          "value": 0.84914000,
          "n": 31,
          "scriptPubKey": {
            "asm": "OP_DUP OP_HASH160 6859de4732e865fd1b8bb5a68d47cf8d9498faf4 OP_EQUALVERIFY OP_CHECKSIG",
            "hex": "76a9146859de4732e865fd1b8bb5a68d47cf8d9498faf488ac",
            "reqSigs": 1,
            "type": "pubkeyhash",
            "addresses": [
              "LUjiCKYU4968xydStgXxkbgFeGgpNfWTeN"
            ]
          }
        }, 
        {
          "value": 5.11000000,
          "n": 32,
          "scriptPubKey": {
            "asm": "OP_DUP OP_HASH160 9300970f2bbb6a99c4f52acd8ba98f53b10a1a17 OP_EQUALVERIFY OP_CHECKSIG",
            "hex": "76a9149300970f2bbb6a99c4f52acd8ba98f53b10a1a1788ac",
            "reqSigs": 1,
            "type": "pubkeyhash",
            "addresses": [
              "LYdEJQodo5RPwNT3Rs6C9gHz4tdBNca98P"
            ]
          }
        }, 
        {
          "value": 17.08000000,
          "n": 33,
          "scriptPubKey": {
            "asm": "OP_DUP OP_HASH160 8dd030016a0120c0761fa9f0e51d49d83b2fc876 OP_EQUALVERIFY OP_CHECKSIG",
            "hex": "76a9148dd030016a0120c0761fa9f0e51d49d83b2fc87688ac",
            "reqSigs": 1,
            "type": "pubkeyhash",
            "addresses": [
              "LY9nwPCzbgQUYpDnLSKw6ksdyRh4yyKZhV"
            ]
          }
        }, 
        {
          "value": 0.22047392,
          "n": 34,
          "scriptPubKey": {
            "asm": "OP_DUP OP_HASH160 3084e2c8aed144535b5d5d47ee3a0ee9e10e10ee OP_EQUALVERIFY OP_CHECKSIG",
            "hex": "76a9143084e2c8aed144535b5d5d47ee3a0ee9e10e10ee88ac",
            "reqSigs": 1,
            "type": "pubkeyhash",
            "addresses": [
              "LPeVtVZkrXpsnRrRHCCFAab94VKSAmWN1Y"
            ]
          }
        }
      ],
      "hex": "0200000003ae94470a84f2dbe14653160fb9b96e438fc569f7d56d7690e7313f0c1dc36427010000006b483045022100e0d7d13a63824e63c02f5f36514fe10a00592ef5962e51404caeaf5d7b57d8e202206289733700593f8bfa09dcd4810fe83dc0981920eef28828d3617d324c59220b012102e2037bd3b8ff3ee3e1c67e232b207d138124a826a4f761eeba99ff99c4b60c29feffffff50198b3f93c416e2f9395b519bfb278f23c137a5c6f9022934a89090bd8f5395050000006b4830450221009d1a895bc4072c7b2b6c20d60f12a7216460d77256bd5a886044181a89ad1ec20220092b51dbc8b0c75d6298374448994e34c7c6115f8eec53d98560eac1d593083a0121038902b5817dfbe1c1d1bd0f04df195ded2db7729d2ec6d88caf7f839f09fb904dfeffffffde3800c5ef67bc9b87caa5605c0308b939df010bac3f30787f5db07a24a732d4020000006a4730440220323c75c54262dd4fbb6355bf8eab18a11bcd2761547758155d71251d1a86615902202ea05f87703c0bb21df200c8ae913eb4a6809c96c898f7791f3aea1ff2478bca0121035539084d17c818171151c5eb8bb6ad02e6e4982052c24c990604292456d5127bfeffffff23c09ee6050000000017a9140e307bd49b284ee3861a4315ecccda28f1f635db87cc13db000000000017a914e5d541ed451cde687782194bec7f72601dfdff858780f0fa02000000001976a9148110d710820af43b7a82b942fea789c1b504371a88acf67d6701000000001976a914be2a80d7a409f9f0f1a30f99f63e8adc6fb0fe6888acd8dc130d000000001976a91437fc4a32fb14a4f711adb9df45bb78a60106767188ace9e93605000000001976a914078e0a5a1373ffdee5fae4f45e44b3e3daa8a6b588ac3c3e0701000000001976a91400315289746578844c98b8b8ad26f96c48c490b088acc09ee605000000001976a914134b6dac706e363c41b636da16cdb328fef9c4ec88accded9b1e000000001976a914c0aa1390aeece16468f16fd1c4c8579715926bdf88ac6fa56102000000001976a914d4467b5120745ee8dcabf913e19efd3cbeece6d688ac809245070000000017a914bd9aedb87adb567274b30b2647d40be0b18e788087a0ea2851000000001976a9140372069b31ff42ff30525049db667e5d4068f32d88ac80dfe203000000001976a9141c1eaa39a5fa170171f8dcc7c67a6261557bd58588ac80841e00000000001976a914ded7b7ac95601a222dee5d8bfa811555753e5fdc88ac78a2c312000000001976a91409367f8b337cf9e8e0c154efb34d3859d728ba2788ac3cabc101000000001976a9141f41475a7ff3369b12bd306ce304b0c2c0d55f5d88ac5896ba01000000001976a914add8771f083d3b76e405aee60546771f6036561a88ac4070d70e000000001976a914713433d9cea16d5de4fe63ccd3aa42aaf60acb2d88ac8f62ac00000000001976a914e280c3eecf6bd43002ac03c75e5a897ad9d0170188acac023201000000001976a914891ad65bb37841cef35ca660943cd92615cbab7688ac4e7ecf02000000001976a914b17f8ee9be9abf631a648346407cfc3f959d447d88aca09bb901000000001976a914b6c526fc382deac31f9bf198bb4462d3e27b723d88ac20697f1a000000001976a914337c362a7b0bd5907e52b44626a82d6049575b3288ace8863d49000000001976a9145eb88fd66b29fac7450c632566d72b74fd5fce5888ac1031fe06000000001976a914e7752cc2bf7d0a0f6b73200f4ea5fa76bc90744d88ac4040ea21000000001976a91445492e41e06678df9d0632071a06aee76c107a7188ac88eb5900000000001976a914b627149bc275733f67d83b046a11e7652658899188ac600fce03000000001976a9149671dff0438ae14dbfae88e67352021bb62367ba88ac135627010000000017a914d68e8139375ca48f13c33cfacf44ac02ffed87e787ce985e01000000001976a914e551355720aa4a4f0307f578bdb495042638a86688acf492953d000000001976a914d45304e9f9b7ff31b0a6c84fae76c1c536059ccf88ac50af0f05000000001976a9146859de4732e865fd1b8bb5a68d47cf8d9498faf488acc03d751e000000001976a9149300970f2bbb6a99c4f52acd8ba98f53b10a1a1788ac0003ce65000000001976a9148dd030016a0120c0761fa9f0e51d49d83b2fc87688aca06a5001000000001976a9143084e2c8aed144535b5d5d47ee3a0ee9e10e10ee88ac50b81400"
    }
  ],
  "time": 1517063562,
  "mediantime": 1517063110,
  "nonce": 2201966482,
  "bits": "1a047f14",
  "difficulty": 3731199.183374282,
  "chainwork": "000000000000000000000000000000000000000000000032a19a696efba63f6e",
  "previousblockhash": "143604e2ecff1220ae0e8322a4f88ceb38a4a6c2a8384ebd169a2195b02eba77",
  "nextblockhash": "b7a323a6a2915414d4361f79fd0986c78f9a73d579485c849d46fe7198ca1a21"
}
