{
  "hash": "caee332f2bc934ee90bc5541e2b192f75e8a07ebf99d39f5a2404330f38b66ac",
  "confirmations": 1416,
  "strippedsize": 254,
  "size": 254,
  "weight": 1016,
  "height": 1359578,
  "version": 536870912,
  "versionHex": "20000000",
  "merkleroot": "e5337d2f1a6bc0cc7f497ac4bd07a412313319841565324b7bda9389ccd59105",
  "tx": [
    {
      "txid": "e5337d2f1a6bc0cc7f497ac4bd07a412313319841565324b7bda9389ccd59105",
      "hash": "e5337d2f1a6bc0cc7f497ac4bd07a412313319841565324b7bda9389ccd59105",
      "version": 1,
      "size": 173,
      "vsize": 173,
      "locktime": 0,
      "vin": [
        {
          "coinbase": "03dabe141b4d696e656420627920416e74506f6f6c20626a302042205a703160fabe6d6d1d4647520ad663da0e0f9cb6024d1380a55361ce3df3b7ebc7fe59106248c8fd0400000000000000261d0000000000001b000000",
          "sequence": 4294967295
        }
      ],
      "vout": [
        {
          "value": 25.00000000,
          "n": 0,
          "scriptPubKey": {
            "asm": "OP_DUP OP_HASH160 0ff3ccc5e8be88afe24b5d634e5852d474dbdff1 OP_EQUALVERIFY OP_CHECKSIG",
            "hex": "76a9140ff3ccc5e8be88afe24b5d634e5852d474dbdff188ac",
            "reqSigs": 1,
            "type": "pubkeyhash",
            "addresses": [
              "LLgJTbzZMsRTCUF1NtvvL9SR1a4pVieW89"
            ]
          }
        }
      ],
      "hex": "01000000010000000000000000000000000000000000000000000000000000000000000000ffffffff5803dabe141b4d696e656420627920416e74506f6f6c20626a302042205a703160fabe6d6d1d4647520ad663da0e0f9cb6024d1380a55361ce3df3b7ebc7fe59106248c8fd0400000000000000261d0000000000001b000000ffffffff0100f90295000000001976a9140ff3ccc5e8be88afe24b5d634e5852d474dbdff188ac00000000"
    }
  ],
  "time": 1517302112,
  "mediantime": 1517301654,
  "nonce": 1093163217,
  "bits": "1a042eae",
  "difficulty": 4011378.762614286,
  "chainwork": "00000000000000000000000000000000000000000000003422bba628515c0b36",
  "previousblockhash": "7fc2e83c5135f3b48f7317f9fba91040b05cb89e6f9fa6c477d3f4e9b4c55523",
  "nextblockhash": "33e6353beae40da09e0429142ec20ca8a0d9b6abe2787a6fbd5610e3f6344cb8"
}
