{
  "hash": "cb2e36fff2389ca11d6fb5aa817f5264074be552f5f3ae430ccddc53a75f4a92",
  "confirmations": 976,
  "strippedsize": 255,
  "size": 255,
  "weight": 1020,
  "height": 1360018,
  "version": 536870912,
  "versionHex": "20000000",
  "merkleroot": "2b99b6006fce45700f6846c4b508a09944f25cefea489464459325e86bcd99ff",
  "tx": [
    {
      "txid": "2b99b6006fce45700f6846c4b508a09944f25cefea489464459325e86bcd99ff",
      "hash": "2b99b6006fce45700f6846c4b508a09944f25cefea489464459325e86bcd99ff",
      "version": 1,
      "size": 174,
      "vsize": 174,
      "locktime": 0,
      "vin": [
        {
          "coinbase": "0392c0141c4d696e656420627920416e74506f6f6c20626a341e205a71201103c6fabe6d6d4c921e47d10669196fdae87fed5372fadf782297899bdd22993775d3cdb4a7c70400000000000000bd100000000000001f000000",
          "sequence": 4294967295
        }
      ],
      "vout": [
        {
          "value": 25.00000000,
          "n": 0,
          "scriptPubKey": {
            "asm": "OP_DUP OP_HASH160 0ff3ccc5e8be88afe24b5d634e5852d474dbdff1 OP_EQUALVERIFY OP_CHECKSIG",
            "hex": "76a9140ff3ccc5e8be88afe24b5d634e5852d474dbdff188ac",
            "reqSigs": 1,
            "type": "pubkeyhash",
            "addresses": [
              "LLgJTbzZMsRTCUF1NtvvL9SR1a4pVieW89"
            ]
          }
        }
      ],
      "hex": "01000000010000000000000000000000000000000000000000000000000000000000000000ffffffff590392c0141c4d696e656420627920416e74506f6f6c20626a341e205a71201103c6fabe6d6d4c921e47d10669196fdae87fed5372fadf782297899bdd22993775d3cdb4a7c70400000000000000bd100000000000001f000000ffffffff0100f90295000000001976a9140ff3ccc5e8be88afe24b5d634e5852d474dbdff188ac00000000"
    }
  ],
  "time": 1517363217,
  "mediantime": 1517361798,
  "nonce": 287482506,
  "bits": "1a042eae",
  "difficulty": 4011378.762614286,
  "chainwork": "0000000000000000000000000000000000000000000000348befec9c24af62a6",
  "previousblockhash": "b2c9d743eb9a4fe282a4dfc654ada667e7d2f52943bb56023669bde161ac392c",
  "nextblockhash": "c8298c53ebb6088cd9decbd3ec5750d67038bc4a18a5650c5b30445ecc44c021"
}
