{
  "hash": "cb376b95d246abd4b2d74433ac2788463a245cab345226e0ad457fbc143fce3e",
  "confirmations": 273,
  "strippedsize": 522,
  "size": 558,
  "weight": 2124,
  "height": 1360721,
  "version": 536870912,
  "versionHex": "20000000",
  "merkleroot": "fe67025a47fd0820f9fb684fe634d9ecb3feec04a417ad775094f6295b43aa94",
  "tx": [
    {
      "txid": "ed4820edcdc512b7b7184690d28a4e3f5bb5b7220ab9131e09432aa5594a3bd9",
      "hash": "399f61c3f1bc42747cc50f810f3d9052e519430649b6471ef9f7319f2838cf63",
      "version": 1,
      "size": 251,
      "vsize": 224,
      "locktime": 0,
      "vin": [
        {
          "coinbase": "0351c3140000000000fabe6d6d122548a308220065d633d8c351017b8ac5bcfb3c1b609a92cf737eec0bca5f42010000000000000004d0c7725a04e2e3cd030804d52968020000000a42570a6657042f42572f",
          "sequence": 4294967295
        }
      ],
      "vout": [
        {
          "value": 25.00022600,
          "n": 0,
          "scriptPubKey": {
            "asm": "OP_DUP OP_HASH160 5373bc9425fd49e6bfe522d3dfc85432da2cc023 OP_EQUALVERIFY OP_CHECKSIG",
            "hex": "76a9145373bc9425fd49e6bfe522d3dfc85432da2cc02388ac",
            "reqSigs": 1,
            "type": "pubkeyhash",
            "addresses": [
              "LSqCzf5bPfkqGf94pJcfxWx5bZMPJE5XRf"
            ]
          }
        }, 
        {
          "value": 0.00000000,
          "n": 1,
          "scriptPubKey": {
            "asm": "OP_RETURN aa21a9ed688dd3811f901cf6447999d4610544994baaaa2268a5d6cea151090625575a1a",
            "hex": "6a24aa21a9ed688dd3811f901cf6447999d4610544994baaaa2268a5d6cea151090625575a1a",
            "type": "nulldata"
          }
        }
      ],
      "hex": "010000000001010000000000000000000000000000000000000000000000000000000000000000ffffffff530351c3140000000000fabe6d6d122548a308220065d633d8c351017b8ac5bcfb3c1b609a92cf737eec0bca5f42010000000000000004d0c7725a04e2e3cd030804d52968020000000a42570a6657042f42572fffffffff0248510395000000001976a9145373bc9425fd49e6bfe522d3dfc85432da2cc02388ac0000000000000000266a24aa21a9ed688dd3811f901cf6447999d4610544994baaaa2268a5d6cea151090625575a1a0120000000000000000000000000000000000000000000000000000000000000000000000000"
    }, 
    {
      "txid": "a992a662f96e4441108412cd88f46bed1db832ceb4e56d6ac20b600dbdfb5fc7",
      "hash": "a992a662f96e4441108412cd88f46bed1db832ceb4e56d6ac20b600dbdfb5fc7",
      "version": 1,
      "size": 226,
      "vsize": 226,
      "locktime": 1360630,
      "vin": [
        {
          "txid": "9d43f2374df54ca868d364be6a6c754a9f40627dfccd2559b38c3ce9f270a740",
          "vout": 0,
          "scriptSig": {
            "asm": "3045022100f42769facd4c7793e397d0f07981539e20d0bc78f7f62fe9422679d02de2d316022031d9a8609c169bbe3f30760688855f0e83bf23121f0467b9bb5901e596c69d62[ALL] 0231e2742ae0dfd20621559bf52abadbdb0beb762ab35140a22d21466828ae7935",
            "hex": "483045022100f42769facd4c7793e397d0f07981539e20d0bc78f7f62fe9422679d02de2d316022031d9a8609c169bbe3f30760688855f0e83bf23121f0467b9bb5901e596c69d6201210231e2742ae0dfd20621559bf52abadbdb0beb762ab35140a22d21466828ae7935"
          },
          "sequence": 4294967294
        }
      ],
      "vout": [
        {
          "value": 2.08187436,
          "n": 0,
          "scriptPubKey": {
            "asm": "OP_DUP OP_HASH160 9bf71006e155e3ce2d584e91d430df78a4b45199 OP_EQUALVERIFY OP_CHECKSIG",
            "hex": "76a9149bf71006e155e3ce2d584e91d430df78a4b4519988ac",
            "reqSigs": 1,
            "type": "pubkeyhash",
            "addresses": [
              "LZScyA5yEbBEYcwiGgqNCikTLCHWQSFrcf"
            ]
          }
        }, 
        {
          "value": 0.08859705,
          "n": 1,
          "scriptPubKey": {
            "asm": "OP_DUP OP_HASH160 b158b278fac7ff15f5b0bed26c0fcddcd6dd4a29 OP_EQUALVERIFY OP_CHECKSIG",
            "hex": "76a914b158b278fac7ff15f5b0bed26c0fcddcd6dd4a2988ac",
            "reqSigs": 1,
            "type": "pubkeyhash",
            "addresses": [
              "LbPg7xGCdB32d9ACepZycbD2MAN6vG2Ggk"
            ]
          }
        }
      ],
      "hex": "010000000140a770f2e93c8cb35925cdfc7d62409f4a756c6abe64d368a84cf54d37f2439d000000006b483045022100f42769facd4c7793e397d0f07981539e20d0bc78f7f62fe9422679d02de2d316022031d9a8609c169bbe3f30760688855f0e83bf23121f0467b9bb5901e596c69d6201210231e2742ae0dfd20621559bf52abadbdb0beb762ab35140a22d21466828ae7935feffffff022cb0680c000000001976a9149bf71006e155e3ce2d584e91d430df78a4b4519988ac39308700000000001976a914b158b278fac7ff15f5b0bed26c0fcddcd6dd4a2988acf6c21400"
    }
  ],
  "time": 1517471696,
  "mediantime": 1517470998,
  "nonce": 2687763907,
  "bits": "1a042eae",
  "difficulty": 4011378.762614286,
  "chainwork": "00000000000000000000000000000000000000000000003534065ad8b116dea4",
  "previousblockhash": "ea8634044b547135d3ae3e2c7e21e16a60a842ecf4b45c429f8ce97338c07806",
  "nextblockhash": "7e99af24fd1ffe0d74a05457468d57e481227feb0be9b340fd75e5227ae038aa"
}
