{
  "hash": "cbdb0343ad164063a2f4e338185fa5c07970bb37d7f12f375084f745730e549b",
  "confirmations": 3556,
  "strippedsize": 4336,
  "size": 4372,
  "weight": 17380,
  "height": 1357439,
  "version": 536870912,
  "versionHex": "20000000",
  "merkleroot": "a00f9e7eecaac80fa37cac34cfb24bc3870429c9b7f7895a77b7b626cf217c6b",
  "tx": [
    {
      "txid": "bf8be4d64f2858f6115bd7ff709741223b2563b3133ae5188dca4e16e0d104a4",
      "hash": "4141c5e7744d61fb45ca48632bb0db80d16b1d0a059c0182400c766ebb27f8df",
      "version": 1,
      "size": 287,
      "vsize": 260,
      "locktime": 0,
      "vin": [
        {
          "coinbase": "037fb61441d69ae831cbef9741d69ae831549aa52f4c54432e544f502ffabe6d6d1c653f2ac406cb4d1a0f6808f17a2c7055ffd2052dc1b858cfa2e6b8e682fb4901000000000000005530e7590e00000000000000",
          "sequence": 4294967295
        }
      ],
      "vout": [
        {
          "value": 24.76963839,
          "n": 0,
          "scriptPubKey": {
            "asm": "OP_DUP OP_HASH160 7b96c291c4d9e252907e9275cd3d14fdeaeac0f1 OP_EQUALVERIFY OP_CHECKSIG",
            "hex": "76a9147b96c291c4d9e252907e9275cd3d14fdeaeac0f188ac",
            "reqSigs": 1,
            "type": "pubkeyhash",
            "addresses": [
              "LWVRyoJawzDYtvRmLVzUXqUSkNT7H1MLTt"
            ]
          }
        }, 
        {
          "value": 0.00000000,
          "n": 1,
          "scriptPubKey": {
            "asm": "OP_RETURN aa21a9eda6a97e9b570eb0a9ba68297cc2d8a0534808b30add592ee6d6a8198a9149ea49",
            "hex": "6a24aa21a9eda6a97e9b570eb0a9ba68297cc2d8a0534808b30add592ee6d6a8198a9149ea49",
            "type": "nulldata"
          }
        }, 
        {
          "value": 0.25019836,
          "n": 2,
          "scriptPubKey": {
            "asm": "OP_DUP OP_HASH160 0c617fdb2ea42aed30a509595ee21ba3f6688db0 OP_EQUALVERIFY OP_CHECKSIG",
            "hex": "76a9140c617fdb2ea42aed30a509595ee21ba3f6688db088ac",
            "reqSigs": 1,
            "type": "pubkeyhash",
            "addresses": [
              "LLMRAtr3qBje2ySEa3CnZ55LA4TQMWnRY3"
            ]
          }
        }
      ],
      "hex": "010000000001010000000000000000000000000000000000000000000000000000000000000000ffffffff55037fb61441d69ae831cbef9741d69ae831549aa52f4c54432e544f502ffabe6d6d1c653f2ac406cb4d1a0f6808f17a2c7055ffd2052dc1b858cfa2e6b8e682fb4901000000000000005530e7590e00000000000000ffffffff03ff77a393000000001976a9147b96c291c4d9e252907e9275cd3d14fdeaeac0f188ac0000000000000000266a24aa21a9eda6a97e9b570eb0a9ba68297cc2d8a0534808b30add592ee6d6a8198a9149ea49bcc57d01000000001976a9140c617fdb2ea42aed30a509595ee21ba3f6688db088ac0120000000000000000000000000000000000000000000000000000000000000000000000000"
    }, 
    {
      "txid": "a2830ae0ce8f842448eab676a13225c5150195b3367be5caffcf6ef3f884f292",
      "hash": "a2830ae0ce8f842448eab676a13225c5150195b3367be5caffcf6ef3f884f292",
      "version": 1,
      "size": 406,
      "vsize": 406,
      "locktime": 0,
      "vin": [
        {
          "txid": "aaa61feb6bd2c1cfd922244cd1d3eecde6a1a568e68ab53ef5a0b9f0656beac0",
          "vout": 2,
          "scriptSig": {
            "asm": "0 3045022100e59462a0c445144cc0a5fd14d31252aacb15ff8a8d95fac748c314263e606a1a022059283a008545fa8b0c536541b2fcdca33c064e01095f0b108befb989b698c3ed[ALL] 3044022079b92913a8abdf75a5438c0149734ea80ce9215697a9b9e8ed2ffea60019f47802203736c1ae72bc772425a244980cf00199f01450918f1e89777bc5f74b3964c435[ALL] 5221034cb54b70ccdd851377b33b9a9aa268848e5d3b1cc50672fd51614bb6af4339cf2103495cd9282b1dd4af00a9346d33b6e66961aa9d1d3f8d4b482d60c5667c4f5f6821032040531ba06c23765e7b8e694bcc3e53fbb46ab2c91280c7bc2423c724f4686f53ae",
            "hex": "00483045022100e59462a0c445144cc0a5fd14d31252aacb15ff8a8d95fac748c314263e606a1a022059283a008545fa8b0c536541b2fcdca33c064e01095f0b108befb989b698c3ed01473044022079b92913a8abdf75a5438c0149734ea80ce9215697a9b9e8ed2ffea60019f47802203736c1ae72bc772425a244980cf00199f01450918f1e89777bc5f74b3964c435014c695221034cb54b70ccdd851377b33b9a9aa268848e5d3b1cc50672fd51614bb6af4339cf2103495cd9282b1dd4af00a9346d33b6e66961aa9d1d3f8d4b482d60c5667c4f5f6821032040531ba06c23765e7b8e694bcc3e53fbb46ab2c91280c7bc2423c724f4686f53ae"
          },
          "sequence": 4294967295
        }
      ],
      "vout": [
        {
          "value": 3.23136382,
          "n": 0,
          "scriptPubKey": {
            "asm": "OP_HASH160 54db5a8960046d07b8fa0a27a7d1734f8c7bb687 OP_EQUAL",
            "hex": "a91454db5a8960046d07b8fa0a27a7d1734f8c7bb68787",
            "reqSigs": 1,
            "type": "scripthash",
            "addresses": [
              "MFdqmW9VMYD5ernmzDTN8KBxppCxEE9BZE"
            ]
          }
        }, 
        {
          "value": 3.89738882,
          "n": 1,
          "scriptPubKey": {
            "asm": "OP_DUP OP_HASH160 b0433798358eb907bf8b69f21c62c46f2ad511a3 OP_EQUALVERIFY OP_CHECKSIG",
            "hex": "76a914b0433798358eb907bf8b69f21c62c46f2ad511a388ac",
            "reqSigs": 1,
            "type": "pubkeyhash",
            "addresses": [
              "LbHwiJgpQQXpcAdMUQkGxmCaEU8CmzEXaL"
            ]
          }
        }, 
        {
          "value": 3.07406736,
          "n": 2,
          "scriptPubKey": {
            "asm": "OP_DUP OP_HASH160 ecb0aa2d9b7dfa63761ea2158a857b8235c44305 OP_EQUALVERIFY OP_CHECKSIG",
            "hex": "76a914ecb0aa2d9b7dfa63761ea2158a857b8235c4430588ac",
            "reqSigs": 1,
            "type": "pubkeyhash",
            "addresses": [
              "LgoTNNGrp4XCJ3Udk1q3keFMw4G2JYkW4t"
            ]
          }
        }
      ],
      "hex": "0100000001c0ea6b65f0b9a0f53eb58ae668a5a1e6cdeed3d14c2422d9cfc1d26beb1fa6aa02000000fdfd0000483045022100e59462a0c445144cc0a5fd14d31252aacb15ff8a8d95fac748c314263e606a1a022059283a008545fa8b0c536541b2fcdca33c064e01095f0b108befb989b698c3ed01473044022079b92913a8abdf75a5438c0149734ea80ce9215697a9b9e8ed2ffea60019f47802203736c1ae72bc772425a244980cf00199f01450918f1e89777bc5f74b3964c435014c695221034cb54b70ccdd851377b33b9a9aa268848e5d3b1cc50672fd51614bb6af4339cf2103495cd9282b1dd4af00a9346d33b6e66961aa9d1d3f8d4b482d60c5667c4f5f6821032040531ba06c23765e7b8e694bcc3e53fbb46ab2c91280c7bc2423c724f4686f53aeffffffff037eab42130000000017a91454db5a8960046d07b8fa0a27a7d1734f8c7bb6878782f13a17000000001976a914b0433798358eb907bf8b69f21c62c46f2ad511a388ac90a75212000000001976a914ecb0aa2d9b7dfa63761ea2158a857b8235c4430588ac00000000"
    }, 
    {
      "txid": "6d58d359977cbf44e67227ef1fd2c3c805d29ed278088b50366972fa50940fe2",
      "hash": "6d58d359977cbf44e67227ef1fd2c3c805d29ed278088b50366972fa50940fe2",
      "version": 1,
      "size": 192,
      "vsize": 192,
      "locktime": 0,
      "vin": [
        {
          "txid": "9fb3f7db626eb983aa1e644fa31a72f22c6977a11c72256c5ee4233d77c0d434",
          "vout": 1,
          "scriptSig": {
            "asm": "3045022100fa253247de6e70a4ec269fe262d4946544e470842bb7b206511dde3e2767a6e1022006343bfdbf9abbfbbdc5b9e176066f29995df544de7196ee747e8a5e3b0db6eb[ALL] 03ba9be9516042602158b1f2bcdfdb8d5bebcd0574908a66acff1c99b0233e5285",
            "hex": "483045022100fa253247de6e70a4ec269fe262d4946544e470842bb7b206511dde3e2767a6e1022006343bfdbf9abbfbbdc5b9e176066f29995df544de7196ee747e8a5e3b0db6eb012103ba9be9516042602158b1f2bcdfdb8d5bebcd0574908a66acff1c99b0233e5285"
          },
          "sequence": 4294967295
        }
      ],
      "vout": [
        {
          "value": 0.99785300,
          "n": 0,
          "scriptPubKey": {
            "asm": "OP_DUP OP_HASH160 9788d6f8ddeffef7ca446748258d69cf9bbce11c OP_EQUALVERIFY OP_CHECKSIG",
            "hex": "76a9149788d6f8ddeffef7ca446748258d69cf9bbce11c88ac",
            "reqSigs": 1,
            "type": "pubkeyhash",
            "addresses": [
              "LZ3CDyGGBniVThbbGMoJEaWFozqe7aKcso"
            ]
          }
        }
      ],
      "hex": "010000000134d4c0773d23e45e6c25721ca177692cf2721aa34f641eaa83b96e62dbf7b39f010000006b483045022100fa253247de6e70a4ec269fe262d4946544e470842bb7b206511dde3e2767a6e1022006343bfdbf9abbfbbdc5b9e176066f29995df544de7196ee747e8a5e3b0db6eb012103ba9be9516042602158b1f2bcdfdb8d5bebcd0574908a66acff1c99b0233e5285ffffffff01549af205000000001976a9149788d6f8ddeffef7ca446748258d69cf9bbce11c88ac00000000"
    }, 
    {
      "txid": "df7a351ca54728567aa2f96c49326f75102e771bd0842bf156b3a55cee32e1c5",
      "hash": "df7a351ca54728567aa2f96c49326f75102e771bd0842bf156b3a55cee32e1c5",
      "version": 1,
      "size": 336,
      "vsize": 336,
      "locktime": 0,
      "vin": [
        {
          "txid": "ad897d54ebd0b9f678ae69948d06bb0b38daa2f2a70cbdb2bd88ff5d6391ad53",
          "vout": 1,
          "scriptSig": {
            "asm": "0 30450221009ee941cc3a753e4c5dc80367811b2221d455974fbbab9809a85d9cdeaa007bf102205abc4737f9e68b2d6def0c10e4ef2823d86dff8f4585be84fad146d052e3fe8b[ALL] 304502210092b626ee4acdb5818449a7480b0ecea10fee06aa897913820ce0dc1d62e7208802203c00489ed5b248884808e7653a448b5ecc07a1b80178ea0479d0e2a2f9aa3f0d[ALL] 522102f77ec37a042ba4e5e6aef7760398bf59b87ac4c5dee30a2fb8798e9630d4916e210276b93401dc495b28592f66411a7c9093b468f8678db51144fc6a36f550d94aa952ae",
            "hex": "004830450221009ee941cc3a753e4c5dc80367811b2221d455974fbbab9809a85d9cdeaa007bf102205abc4737f9e68b2d6def0c10e4ef2823d86dff8f4585be84fad146d052e3fe8b0148304502210092b626ee4acdb5818449a7480b0ecea10fee06aa897913820ce0dc1d62e7208802203c00489ed5b248884808e7653a448b5ecc07a1b80178ea0479d0e2a2f9aa3f0d0147522102f77ec37a042ba4e5e6aef7760398bf59b87ac4c5dee30a2fb8798e9630d4916e210276b93401dc495b28592f66411a7c9093b468f8678db51144fc6a36f550d94aa952ae"
          },
          "sequence": 4294967295
        }
      ],
      "vout": [
        {
          "value": 0.09898200,
          "n": 0,
          "scriptPubKey": {
            "asm": "OP_DUP OP_HASH160 1cac7d4eb6922e01335731b695dc56a011dbe550 OP_EQUALVERIFY OP_CHECKSIG",
            "hex": "76a9141cac7d4eb6922e01335731b695dc56a011dbe55088ac",
            "reqSigs": 1,
            "type": "pubkeyhash",
            "addresses": [
              "LMqZpN3R6A6WCADmSSnrBgmrr6iXz4vyAm"
            ]
          }
        }, 
        {
          "value": 14.34619600,
          "n": 1,
          "scriptPubKey": {
            "asm": "OP_HASH160 75b77316f8d91ff71fb2819115d1b6b9e80ccee9 OP_EQUAL",
            "hex": "a91475b77316f8d91ff71fb2819115d1b6b9e80ccee987",
            "reqSigs": 1,
            "type": "scripthash",
            "addresses": [
              "MJdb4B3BMDrfpB1FpKsPYQ1tDHdkNa1oLB"
            ]
          }
        }
      ],
      "hex": "010000000153ad91635dff88bdb2bd0ca7f2a2da380bbb068d9469ae78f6b9d0eb547d89ad01000000db004830450221009ee941cc3a753e4c5dc80367811b2221d455974fbbab9809a85d9cdeaa007bf102205abc4737f9e68b2d6def0c10e4ef2823d86dff8f4585be84fad146d052e3fe8b0148304502210092b626ee4acdb5818449a7480b0ecea10fee06aa897913820ce0dc1d62e7208802203c00489ed5b248884808e7653a448b5ecc07a1b80178ea0479d0e2a2f9aa3f0d0147522102f77ec37a042ba4e5e6aef7760398bf59b87ac4c5dee30a2fb8798e9630d4916e210276b93401dc495b28592f66411a7c9093b468f8678db51144fc6a36f550d94aa952aeffffffff02d8089700000000001976a9141cac7d4eb6922e01335731b695dc56a011dbe55088acd08e82550000000017a91475b77316f8d91ff71fb2819115d1b6b9e80ccee98700000000"
    }, 
    {
      "txid": "a9dd6143f2ca9e114307f750e4c74d7cecb4a70635db5d8766f2e773648f6fdd",
      "hash": "a9dd6143f2ca9e114307f750e4c74d7cecb4a70635db5d8766f2e773648f6fdd",
      "version": 1,
      "size": 371,
      "vsize": 371,
      "locktime": 0,
      "vin": [
        {
          "txid": "8c143ccca496a6aef9dab18dace34bd20f40a34c42aa6307feaa1b4c09f8fff6",
          "vout": 0,
          "scriptSig": {
            "asm": "304402201ecd02f0a23519145eb0309e51908eaf245cfc1a0ffb86ab1872267ed925c735022055a76ada7f6cabb92714b47935d373b9ae3f34f3e463590798a56e7349e12149[ALL] 02cfe2f26f6bc7a86d8ff5f19e82fcb2a915640b2b72d8f8d2d3de861e3aee1632",
            "hex": "47304402201ecd02f0a23519145eb0309e51908eaf245cfc1a0ffb86ab1872267ed925c735022055a76ada7f6cabb92714b47935d373b9ae3f34f3e463590798a56e7349e12149012102cfe2f26f6bc7a86d8ff5f19e82fcb2a915640b2b72d8f8d2d3de861e3aee1632"
          },
          "sequence": 4294967295
        }, 
        {
          "txid": "a8e53b121cb89d7c4b5aa0edb0adb0d74842d49801c476b8887a4072ac580ae3",
          "vout": 0,
          "scriptSig": {
            "asm": "3045022100c9c2025d2ebbd3526855ec93570438983a3a3779a988255cef27ebb60ba44ce6022057c819c67246e227a763bbba2810bc4972b6a08d16049f00d73b644f96355e23[ALL] 02ca6afd3c562f65b433b42227e7a0bbb7e1808385a1078e98e93ceebc24471461",
            "hex": "483045022100c9c2025d2ebbd3526855ec93570438983a3a3779a988255cef27ebb60ba44ce6022057c819c67246e227a763bbba2810bc4972b6a08d16049f00d73b644f96355e23012102ca6afd3c562f65b433b42227e7a0bbb7e1808385a1078e98e93ceebc24471461"
          },
          "sequence": 4294967295
        }
      ],
      "vout": [
        {
          "value": 0.00586900,
          "n": 0,
          "scriptPubKey": {
            "asm": "OP_DUP OP_HASH160 b3040494497dfad108e03c98f5eeb804a9533ffe OP_EQUALVERIFY OP_CHECKSIG",
            "hex": "76a914b3040494497dfad108e03c98f5eeb804a9533ffe88ac",
            "reqSigs": 1,
            "type": "pubkeyhash",
            "addresses": [
              "LbYW2icuskocVAqAE5QArsoquqcZeLFmzV"
            ]
          }
        }, 
        {
          "value": 1.03354934,
          "n": 1,
          "scriptPubKey": {
            "asm": "OP_HASH160 a0c6203e9ac61aee2aa65af126f9345afce4118f OP_EQUAL",
            "hex": "a914a0c6203e9ac61aee2aa65af126f9345afce4118f87",
            "reqSigs": 1,
            "type": "scripthash",
            "addresses": [
              "MNZFh9zEiAW5kvnqvH7iQWjFmhcb6DFLbP"
            ]
          }
        }
      ],
      "hex": "0100000002f6fff8094c1baafe0763aa424ca3400fd24be3ac8db1daf9aea696a4cc3c148c000000006a47304402201ecd02f0a23519145eb0309e51908eaf245cfc1a0ffb86ab1872267ed925c735022055a76ada7f6cabb92714b47935d373b9ae3f34f3e463590798a56e7349e12149012102cfe2f26f6bc7a86d8ff5f19e82fcb2a915640b2b72d8f8d2d3de861e3aee1632ffffffffe30a58ac72407a88b876c40198d44248d7b0adb0eda05a4b7c9db81c123be5a8000000006b483045022100c9c2025d2ebbd3526855ec93570438983a3a3779a988255cef27ebb60ba44ce6022057c819c67246e227a763bbba2810bc4972b6a08d16049f00d73b644f96355e23012102ca6afd3c562f65b433b42227e7a0bbb7e1808385a1078e98e93ceebc24471461ffffffff0294f40800000000001976a914b3040494497dfad108e03c98f5eeb804a9533ffe88ac361229060000000017a914a0c6203e9ac61aee2aa65af126f9345afce4118f8700000000"
    }, 
    {
      "txid": "f1420ee1e73fe8793b23306b3bcb7af51264cc3b74ee879639d5f163dd06bf37",
      "hash": "f1420ee1e73fe8793b23306b3bcb7af51264cc3b74ee879639d5f163dd06bf37",
      "version": 2,
      "size": 522,
      "vsize": 522,
      "locktime": 1357437,
      "vin": [
        {
          "txid": "d75afabe2454c395c818944b5276c614dbbf9b1884936dc15c483fef9952d57e",
          "vout": 1,
          "scriptSig": {
            "asm": "3045022100a29bbcafd6c9b5efe587c8644635ea1c62f936e2cd2f1dc39fd07b195459b16f022022fa261aa074acc80137d99742dd76f9d32615b19113fdb2fd00fcca576357b6[ALL] 02f703af8cebdd5bf5a3f25fd3cc2432c2b51de10172ee620e5163ffdc90dfd3f6",
            "hex": "483045022100a29bbcafd6c9b5efe587c8644635ea1c62f936e2cd2f1dc39fd07b195459b16f022022fa261aa074acc80137d99742dd76f9d32615b19113fdb2fd00fcca576357b6012102f703af8cebdd5bf5a3f25fd3cc2432c2b51de10172ee620e5163ffdc90dfd3f6"
          },
          "sequence": 4294967294
        }, 
        {
          "txid": "040c5ae8fe77d518f7513f55bb6d0bb0aa76bc471f064238310dca0c2bde4fb4",
          "vout": 0,
          "scriptSig": {
            "asm": "3045022100ab766d8b87b388a83513b857448e640e18def41397b6402e799f54184d562e7a0220095943f4ad3bbc01a087a73a43e0f36593e64d44f9f4cca494ba7f721c586751[ALL] 036ff68e46d7355c3bf05b11b43c284450bcf75f2ad70c3357587dff706d2bf7ba",
            "hex": "483045022100ab766d8b87b388a83513b857448e640e18def41397b6402e799f54184d562e7a0220095943f4ad3bbc01a087a73a43e0f36593e64d44f9f4cca494ba7f721c5867510121036ff68e46d7355c3bf05b11b43c284450bcf75f2ad70c3357587dff706d2bf7ba"
          },
          "sequence": 4294967294
        }, 
        {
          "txid": "c624f58baffdda3264599a2cb804ba346e203caa6ee2265ed4c3de86d06efd66",
          "vout": 1,
          "scriptSig": {
            "asm": "3045022100dd5c3e38d28805dd72cd1e758ce50ad2696a87dc3ceac92d71b702f11169e3b102206cc3693bb9217339ab2e7a89f7bb5f61be2d862f3893d93429c1c20759eb1ba6[ALL] 03f866b608918ffacb7403cd9806b2e9f1ba40ef37622b3dd63686d7cc4ae39da5",
            "hex": "483045022100dd5c3e38d28805dd72cd1e758ce50ad2696a87dc3ceac92d71b702f11169e3b102206cc3693bb9217339ab2e7a89f7bb5f61be2d862f3893d93429c1c20759eb1ba6012103f866b608918ffacb7403cd9806b2e9f1ba40ef37622b3dd63686d7cc4ae39da5"
          },
          "sequence": 4294967294
        }
      ],
      "vout": [
        {
          "value": 0.06512637,
          "n": 0,
          "scriptPubKey": {
            "asm": "OP_DUP OP_HASH160 70f826d58f77ab91de15b1d9d13182179f64da9e OP_EQUALVERIFY OP_CHECKSIG",
            "hex": "76a91470f826d58f77ab91de15b1d9d13182179f64da9e88ac",
            "reqSigs": 1,
            "type": "pubkeyhash",
            "addresses": [
              "LVXHDabr5xhM1k89b1qi8kuzo5oWafkmQe"
            ]
          }
        }, 
        {
          "value": 13.19224441,
          "n": 1,
          "scriptPubKey": {
            "asm": "OP_DUP OP_HASH160 5ebc5e20f66d47fff859ca81ec9cf840d06dbaf3 OP_EQUALVERIFY OP_CHECKSIG",
            "hex": "76a9145ebc5e20f66d47fff859ca81ec9cf840d06dbaf388ac",
            "reqSigs": 1,
            "type": "pubkeyhash",
            "addresses": [
              "LTrsSG8TeCSBGB5YnfquDtrKjnYgEWb5xZ"
            ]
          }
        }
      ],
      "hex": "02000000037ed55299ef3f485cc16d9384189bbfdb14c676524b9418c895c35424befa5ad7010000006b483045022100a29bbcafd6c9b5efe587c8644635ea1c62f936e2cd2f1dc39fd07b195459b16f022022fa261aa074acc80137d99742dd76f9d32615b19113fdb2fd00fcca576357b6012102f703af8cebdd5bf5a3f25fd3cc2432c2b51de10172ee620e5163ffdc90dfd3f6feffffffb44fde2b0cca0d313842061f47bc76aab00b6dbb553f51f718d577fee85a0c04000000006b483045022100ab766d8b87b388a83513b857448e640e18def41397b6402e799f54184d562e7a0220095943f4ad3bbc01a087a73a43e0f36593e64d44f9f4cca494ba7f721c5867510121036ff68e46d7355c3bf05b11b43c284450bcf75f2ad70c3357587dff706d2bf7bafeffffff66fd6ed086dec3d45e26e26eaa3c206e34ba04b82c9a596432dafdaf8bf524c6010000006b483045022100dd5c3e38d28805dd72cd1e758ce50ad2696a87dc3ceac92d71b702f11169e3b102206cc3693bb9217339ab2e7a89f7bb5f61be2d862f3893d93429c1c20759eb1ba6012103f866b608918ffacb7403cd9806b2e9f1ba40ef37622b3dd63686d7cc4ae39da5feffffff02fd5f6300000000001976a91470f826d58f77ab91de15b1d9d13182179f64da9e88ac79c4a14e000000001976a9145ebc5e20f66d47fff859ca81ec9cf840d06dbaf388ac7db61400"
    }, 
    {
      "txid": "63246f9d62c29bfc9f31832585ba2164528833dc228058b437aa36059914d3c6",
      "hash": "63246f9d62c29bfc9f31832585ba2164528833dc228058b437aa36059914d3c6",
      "version": 2,
      "size": 373,
      "vsize": 373,
      "locktime": 1357437,
      "vin": [
        {
          "txid": "9e47f2c991e7eea6377e8a59ef9ac5972d12ac4a5b0df381c9e34d537582d21b",
          "vout": 6,
          "scriptSig": {
            "asm": "3045022100f9652f563b09d238db9b97e7d42664151f19003ba3ec129799aea14bc2dc95a902206aa3005abf1abe3ab9bc5b782701b728b0e538865fab9d876882b05f9635aa6d[ALL] 0303fdba639cf9182b1faa7994c7b64d415b236754ea670951f179897f74efb502",
            "hex": "483045022100f9652f563b09d238db9b97e7d42664151f19003ba3ec129799aea14bc2dc95a902206aa3005abf1abe3ab9bc5b782701b728b0e538865fab9d876882b05f9635aa6d01210303fdba639cf9182b1faa7994c7b64d415b236754ea670951f179897f74efb502"
          },
          "sequence": 4294967294
        }, 
        {
          "txid": "85dd307024ecc47b566b6f2fe853018c9438a43bbc891d191ee58288313b17dd",
          "vout": 1,
          "scriptSig": {
            "asm": "304402201bb5fbab731a8973083ea0770534fa524af4370d8f11d32f0ddf9f87bc112160022031c38b06b3c2a2b6054fe73454cbbc2e64f433e902c186cec379f2dfe544679d[ALL] 03d35e521eb2126dde1949cb2be065255067a93f0c442ad007a4d7048be94ea0d4",
            "hex": "47304402201bb5fbab731a8973083ea0770534fa524af4370d8f11d32f0ddf9f87bc112160022031c38b06b3c2a2b6054fe73454cbbc2e64f433e902c186cec379f2dfe544679d012103d35e521eb2126dde1949cb2be065255067a93f0c442ad007a4d7048be94ea0d4"
          },
          "sequence": 4294967294
        }
      ],
      "vout": [
        {
          "value": 2.16724988,
          "n": 0,
          "scriptPubKey": {
            "asm": "OP_DUP OP_HASH160 c58de39e4d3a53b029a3496b89cc3068a11dc65d OP_EQUALVERIFY OP_CHECKSIG",
            "hex": "76a914c58de39e4d3a53b029a3496b89cc3068a11dc65d88ac",
            "reqSigs": 1,
            "type": "pubkeyhash",
            "addresses": [
              "LdEXMdhJSjGfF1MdZtTy1bx59rSDyEz7XD"
            ]
          }
        }, 
        {
          "value": 11.24860000,
          "n": 1,
          "scriptPubKey": {
            "asm": "OP_DUP OP_HASH160 9d88381131b510b0c970269abb637cfd8f50118d OP_EQUALVERIFY OP_CHECKSIG",
            "hex": "76a9149d88381131b510b0c970269abb637cfd8f50118d88ac",
            "reqSigs": 1,
            "type": "pubkeyhash",
            "addresses": [
              "LZauXzZhN5UtbXnNNvA4pp9ag5TbbwojDx"
            ]
          }
        }
      ],
      "hex": "02000000021bd28275534de3c981f30d5b4aac122d97c59aef598a7e37a6eee791c9f2479e060000006b483045022100f9652f563b09d238db9b97e7d42664151f19003ba3ec129799aea14bc2dc95a902206aa3005abf1abe3ab9bc5b782701b728b0e538865fab9d876882b05f9635aa6d01210303fdba639cf9182b1faa7994c7b64d415b236754ea670951f179897f74efb502feffffffdd173b318882e51e191d89bc3ba438948c0153e82f6f6b567bc4ec247030dd85010000006a47304402201bb5fbab731a8973083ea0770534fa524af4370d8f11d32f0ddf9f87bc112160022031c38b06b3c2a2b6054fe73454cbbc2e64f433e902c186cec379f2dfe544679d012103d35e521eb2126dde1949cb2be065255067a93f0c442ad007a4d7048be94ea0d4feffffff02fcf5ea0c000000001976a914c58de39e4d3a53b029a3496b89cc3068a11dc65d88ac60000c43000000001976a9149d88381131b510b0c970269abb637cfd8f50118d88ac7db61400"
    }, 
    {
      "txid": "a5406e050fefc3baaf72861bdbd9d57b92fadfb8b2f034fa50de311be83c5902",
      "hash": "a5406e050fefc3baaf72861bdbd9d57b92fadfb8b2f034fa50de311be83c5902",
      "version": 1,
      "size": 225,
      "vsize": 225,
      "locktime": 0,
      "vin": [
        {
          "txid": "458f2861861c4f32f40cfd1147a0915f8e9754467adf112996e7e5bb21db7449",
          "vout": 434,
          "scriptSig": {
            "asm": "304402203c0d69ec60f226a813580b8535b0d0bb600e4a9df17252b3e79a58a0581dff9702203209f44924c2b1909329a4835e070b4688dbf4094507f514421f87f8c41e8a25[ALL] 035398674f6e144c63d193d9836b1dbb0a352ae4ae826577ee1709544e748fed14",
            "hex": "47304402203c0d69ec60f226a813580b8535b0d0bb600e4a9df17252b3e79a58a0581dff9702203209f44924c2b1909329a4835e070b4688dbf4094507f514421f87f8c41e8a250121035398674f6e144c63d193d9836b1dbb0a352ae4ae826577ee1709544e748fed14"
          },
          "sequence": 4294967295
        }
      ],
      "vout": [
        {
          "value": 0.05764000,
          "n": 0,
          "scriptPubKey": {
            "asm": "OP_DUP OP_HASH160 3f690d4497a3caaabacf305a8bf667b4da688557 OP_EQUALVERIFY OP_CHECKSIG",
            "hex": "76a9143f690d4497a3caaabacf305a8bf667b4da68855788ac",
            "reqSigs": 1,
            "type": "pubkeyhash",
            "addresses": [
              "LR1EgRjfjhMdDJKKr75XX6vK8t68o8QvFF"
            ]
          }
        }, 
        {
          "value": 0.00057406,
          "n": 1,
          "scriptPubKey": {
            "asm": "OP_DUP OP_HASH160 6dff1081189c0bd2380e0875633e0febe4964c2e OP_EQUALVERIFY OP_CHECKSIG",
            "hex": "76a9146dff1081189c0bd2380e0875633e0febe4964c2e88ac",
            "reqSigs": 1,
            "type": "pubkeyhash",
            "addresses": [
              "LVFZUK5njozQwuL14PR16zzey2FBoQuaM8"
            ]
          }
        }
      ],
      "hex": "01000000014974db21bbe5e7962911df7a4654978e5f91a04711fd0cf4324f1c8661288f45b20100006a47304402203c0d69ec60f226a813580b8535b0d0bb600e4a9df17252b3e79a58a0581dff9702203209f44924c2b1909329a4835e070b4688dbf4094507f514421f87f8c41e8a250121035398674f6e144c63d193d9836b1dbb0a352ae4ae826577ee1709544e748fed14ffffffff02a0f35700000000001976a9143f690d4497a3caaabacf305a8bf667b4da68855788ac3ee00000000000001976a9146dff1081189c0bd2380e0875633e0febe4964c2e88ac00000000"
    }, 
    {
      "txid": "0db3c654d781c95ec04ec0f525885c8b9364ea2c850c63d5d89db3b355ced519",
      "hash": "0db3c654d781c95ec04ec0f525885c8b9364ea2c850c63d5d89db3b355ced519",
      "version": 1,
      "size": 225,
      "vsize": 225,
      "locktime": 0,
      "vin": [
        {
          "txid": "458bb22961a2c3eb3a93973860f2b806bdf07c28279067dec37d67b71af3ef6f",
          "vout": 1,
          "scriptSig": {
            "asm": "3044022063723d13351fc8482650860aa7ab1d17815aa68466b9a2b7d790a26134ab0a68022053d8b86da5eaa8d7c30a3f0365656f0803a0a6f5903aa386b9c62c2ae0fc6f94[ALL] 036e651e1c09fbc838eca792b48831e14f919454b721c35c25d67ae2ae28da89bb",
            "hex": "473044022063723d13351fc8482650860aa7ab1d17815aa68466b9a2b7d790a26134ab0a68022053d8b86da5eaa8d7c30a3f0365656f0803a0a6f5903aa386b9c62c2ae0fc6f940121036e651e1c09fbc838eca792b48831e14f919454b721c35c25d67ae2ae28da89bb"
          },
          "sequence": 4294967295
        }
      ],
      "vout": [
        {
          "value": 31.89453541,
          "n": 0,
          "scriptPubKey": {
            "asm": "OP_DUP OP_HASH160 959c3cf992633ac56ec9a0e80b655d8418615177 OP_EQUALVERIFY OP_CHECKSIG",
            "hex": "76a914959c3cf992633ac56ec9a0e80b655d841861517788ac",
            "reqSigs": 1,
            "type": "pubkeyhash",
            "addresses": [
              "LYs27R2Pm8iozbEpgCTBbUCzSrBxu3qnmd"
            ]
          }
        }, 
        {
          "value": 67.08073105,
          "n": 1,
          "scriptPubKey": {
            "asm": "OP_DUP OP_HASH160 f70f273f9d12771bd0fbc7b6d6de64b5cba03d2e OP_EQUALVERIFY OP_CHECKSIG",
            "hex": "76a914f70f273f9d12771bd0fbc7b6d6de64b5cba03d2e88ac",
            "reqSigs": 1,
            "type": "pubkeyhash",
            "addresses": [
              "LhkHKTySafSmWxfGiv7VagQUsiauvcAVdn"
            ]
          }
        }
      ],
      "hex": "01000000016feff31ab7677dc3de679027287cf0bd06b8f2603897933aebc3a26129b28b45010000006a473044022063723d13351fc8482650860aa7ab1d17815aa68466b9a2b7d790a26134ab0a68022053d8b86da5eaa8d7c30a3f0365656f0803a0a6f5903aa386b9c62c2ae0fc6f940121036e651e1c09fbc838eca792b48831e14f919454b721c35c25d67ae2ae28da89bbffffffff02e5321bbe000000001976a914959c3cf992633ac56ec9a0e80b655d841861517788ac9112d58f010000001976a914f70f273f9d12771bd0fbc7b6d6de64b5cba03d2e88ac00000000"
    }, 
    {
      "txid": "f55ba44c5f09f91ce7b93021d4c26d18c3a46249b97f31b22a9aabcd88143144",
      "hash": "f55ba44c5f09f91ce7b93021d4c26d18c3a46249b97f31b22a9aabcd88143144",
      "version": 1,
      "size": 225,
      "vsize": 225,
      "locktime": 0,
      "vin": [
        {
          "txid": "0131f680a96ef082749547287671c6a9cccb143cb46caac23576783e3422757d",
          "vout": 0,
          "scriptSig": {
            "asm": "304402200fd81c4e6af80ab615cd63cc998ef741c9165281d8f92d072a98f6118d2f60f002207bc69c582c092a2cbb29caded0a138fe4c3b171f4e6d7f718759f6539b656e5d[ALL] 03acc1dafeaf5017c504141be74401646b4a5465576519d1c10428bc236d6d539d",
            "hex": "47304402200fd81c4e6af80ab615cd63cc998ef741c9165281d8f92d072a98f6118d2f60f002207bc69c582c092a2cbb29caded0a138fe4c3b171f4e6d7f718759f6539b656e5d012103acc1dafeaf5017c504141be74401646b4a5465576519d1c10428bc236d6d539d"
          },
          "sequence": 4294967295
        }
      ],
      "vout": [
        {
          "value": 95.85952116,
          "n": 0,
          "scriptPubKey": {
            "asm": "OP_DUP OP_HASH160 af7126164c13af486483a9b64a321923c71a3439 OP_EQUALVERIFY OP_CHECKSIG",
            "hex": "76a914af7126164c13af486483a9b64a321923c71a343988ac",
            "reqSigs": 1,
            "type": "pubkeyhash",
            "addresses": [
              "LbDc4VrKvG4ZbrhVXdJH4dVph3ey8dh6Hn"
            ]
          }
        }, 
        {
          "value": 3.13203740,
          "n": 1,
          "scriptPubKey": {
            "asm": "OP_DUP OP_HASH160 49ad82df33faaaf69770cb3420999458dd45a1a1 OP_EQUALVERIFY OP_CHECKSIG",
            "hex": "76a91449ad82df33faaaf69770cb3420999458dd45a1a188ac",
            "reqSigs": 1,
            "type": "pubkeyhash",
            "addresses": [
              "LRwXSzDypeVTbce9fHSqLsUpZigJo1LEor"
            ]
          }
        }
      ],
      "hex": "01000000017d7522343e787635c2aa6cb43c14cbcca9c671762847957482f06ea980f63101000000006a47304402200fd81c4e6af80ab615cd63cc998ef741c9165281d8f92d072a98f6118d2f60f002207bc69c582c092a2cbb29caded0a138fe4c3b171f4e6d7f718759f6539b656e5d012103acc1dafeaf5017c504141be74401646b4a5465576519d1c10428bc236d6d539dffffffff0274055e3b020000001976a914af7126164c13af486483a9b64a321923c71a343988ac1c1cab12000000001976a91449ad82df33faaaf69770cb3420999458dd45a1a188ac00000000"
    }, 
    {
      "txid": "56d37ef29dda3a959b5061d66352096fe65fd3b0dc470e82e3b5a3753eaeb88a",
      "hash": "56d37ef29dda3a959b5061d66352096fe65fd3b0dc470e82e3b5a3753eaeb88a",
      "version": 1,
      "size": 225,
      "vsize": 225,
      "locktime": 0,
      "vin": [
        {
          "txid": "f044928d2f248aba5db6d812e83b0d758f90839e5e248a11da5fb7e5cb893d36",
          "vout": 0,
          "scriptSig": {
            "asm": "304402206e80571808eb50a681da1f6e38da2cb8354412ef3cccffd4d5c7d53084931df402200bf318e0a6c57bc10ae22cae77144cf3d49c2741035a2849a16eb553575a10b6[ALL] 02835d647e72b732f2802b6ae01ee1ec252c56602a8f17ad83cea2225b30f2259a",
            "hex": "47304402206e80571808eb50a681da1f6e38da2cb8354412ef3cccffd4d5c7d53084931df402200bf318e0a6c57bc10ae22cae77144cf3d49c2741035a2849a16eb553575a10b6012102835d647e72b732f2802b6ae01ee1ec252c56602a8f17ad83cea2225b30f2259a"
          },
          "sequence": 4294967295
        }
      ],
      "vout": [
        {
          "value": 2.24088984,
          "n": 0,
          "scriptPubKey": {
            "asm": "OP_DUP OP_HASH160 2308e78ddda970ef4b5150b2005484089a94dab0 OP_EQUALVERIFY OP_CHECKSIG",
            "hex": "76a9142308e78ddda970ef4b5150b2005484089a94dab088ac",
            "reqSigs": 1,
            "type": "pubkeyhash",
            "addresses": [
              "LNRCad6bu4uwgrUcMoR9nGA69ZtJAE126S"
            ]
          }
        }, 
        {
          "value": 96.75865816,
          "n": 1,
          "scriptPubKey": {
            "asm": "OP_DUP OP_HASH160 1f44e5e07719d784bd10c8f465515ea08bc34718 OP_EQUALVERIFY OP_CHECKSIG",
            "hex": "76a9141f44e5e07719d784bd10c8f465515ea08bc3471888ac",
            "reqSigs": 1,
            "type": "pubkeyhash",
            "addresses": [
              "LN5HkGpvrokRVbCgXG5DJQfxxbEMSTWrWW"
            ]
          }
        }
      ],
      "hex": "0100000001363d89cbe5b75fda118a245e9e83908f750d3be812d8b65dba8a242f8d9244f0000000006a47304402206e80571808eb50a681da1f6e38da2cb8354412ef3cccffd4d5c7d53084931df402200bf318e0a6c57bc10ae22cae77144cf3d49c2741035a2849a16eb553575a10b6012102835d647e72b732f2802b6ae01ee1ec252c56602a8f17ad83cea2225b30f2259affffffff0298535b0d000000001976a9142308e78ddda970ef4b5150b2005484089a94dab088acd8feb940020000001976a9141f44e5e07719d784bd10c8f465515ea08bc3471888ac00000000"
    }, 
    {
      "txid": "dc601e6706578ec147529fbe3b818e21323e3cf9db9ca179e2afb68e5f282077",
      "hash": "dc601e6706578ec147529fbe3b818e21323e3cf9db9ca179e2afb68e5f282077",
      "version": 1,
      "size": 226,
      "vsize": 226,
      "locktime": 0,
      "vin": [
        {
          "txid": "d8a3b84943c3bb83b4341afee754740003d32ee782c07feb78737c3e5e7b5245",
          "vout": 1,
          "scriptSig": {
            "asm": "3045022100a860bfe7f42bc2045e3b514db86a1983566884eed36ccf2ff5beb1ac421046dd022077617ba69764590fbccedc4bea63892057f777d632f85eae8b7d6d91ec09b196[ALL] 02795de689d82511b0f9209d0f7d009f3d8f6db010fcab546a6de27e0917ba0e8b",
            "hex": "483045022100a860bfe7f42bc2045e3b514db86a1983566884eed36ccf2ff5beb1ac421046dd022077617ba69764590fbccedc4bea63892057f777d632f85eae8b7d6d91ec09b196012102795de689d82511b0f9209d0f7d009f3d8f6db010fcab546a6de27e0917ba0e8b"
          },
          "sequence": 4294967295
        }
      ],
      "vout": [
        {
          "value": 98.45201800,
          "n": 0,
          "scriptPubKey": {
            "asm": "OP_DUP OP_HASH160 31d5b19c21714efe0cb8012424489160efb09020 OP_EQUALVERIFY OP_CHECKSIG",
            "hex": "76a91431d5b19c21714efe0cb8012424489160efb0902088ac",
            "reqSigs": 1,
            "type": "pubkeyhash",
            "addresses": [
              "LPmTNKN6vE1kzAtFH96S72kgZbuyk5vBbS"
            ]
          }
        }, 
        {
          "value": 0.54753000,
          "n": 1,
          "scriptPubKey": {
            "asm": "OP_DUP OP_HASH160 fb42d53038a60f0eedc9897125cf90a93ca5b942 OP_EQUALVERIFY OP_CHECKSIG",
            "hex": "76a914fb42d53038a60f0eedc9897125cf90a93ca5b94288ac",
            "reqSigs": 1,
            "type": "pubkeyhash",
            "addresses": [
              "Li8Vvz49brbqdQmQGXxN9ZiM7MGtnXXZaG"
            ]
          }
        }
      ],
      "hex": "010000000145527b5e3e7c7378eb7fc082e72ed303007454e7fe1a34b483bbc34349b8a3d8010000006b483045022100a860bfe7f42bc2045e3b514db86a1983566884eed36ccf2ff5beb1ac421046dd022077617ba69764590fbccedc4bea63892057f777d632f85eae8b7d6d91ec09b196012102795de689d82511b0f9209d0f7d009f3d8f6db010fcab546a6de27e0917ba0e8bffffffff0288dbd14a020000001976a91431d5b19c21714efe0cb8012424489160efb0902088ace8764303000000001976a914fb42d53038a60f0eedc9897125cf90a93ca5b94288ac00000000"
    }, 
    {
      "txid": "72ea5ffd8b184db0d7e7ba1abe9d124e7e406f7ab3c9328bb0c029aa460d919d",
      "hash": "72ea5ffd8b184db0d7e7ba1abe9d124e7e406f7ab3c9328bb0c029aa460d919d",
      "version": 1,
      "size": 226,
      "vsize": 226,
      "locktime": 0,
      "vin": [
        {
          "txid": "fb2253df175bfb96fa8a4d2bf71a03e4abe573a244cf7ef4c7de09b86cf5984f",
          "vout": 1,
          "scriptSig": {
            "asm": "30450221008a76b65c56ed8728253f676f432e4794efab7080537081e03d86a5d26256b83f022043f394ecd5cae2dbf51e7ecf70f54953208b3221e1c334e88b09e29eaf59a8a9[ALL] 02cbc879733da572f4b2835ce460512bf23984b8cbe998e192e7e2427e23b28ffc",
            "hex": "4830450221008a76b65c56ed8728253f676f432e4794efab7080537081e03d86a5d26256b83f022043f394ecd5cae2dbf51e7ecf70f54953208b3221e1c334e88b09e29eaf59a8a9012102cbc879733da572f4b2835ce460512bf23984b8cbe998e192e7e2427e23b28ffc"
          },
          "sequence": 4294967295
        }
      ],
      "vout": [
        {
          "value": 94.45273600,
          "n": 0,
          "scriptPubKey": {
            "asm": "OP_DUP OP_HASH160 736152deba8b95d7d0600e8ae106aadeca2caa65 OP_EQUALVERIFY OP_CHECKSIG",
            "hex": "76a914736152deba8b95d7d0600e8ae106aadeca2caa6588ac",
            "reqSigs": 1,
            "type": "pubkeyhash",
            "addresses": [
              "LVk2ZSgCstCaxSLhQnDqiS3Vc9gQcy13FX"
            ]
          }
        }, 
        {
          "value": 4.50000000,
          "n": 1,
          "scriptPubKey": {
            "asm": "OP_DUP OP_HASH160 0c1bf67d763b77609909de1e00a0212eba083782 OP_EQUALVERIFY OP_CHECKSIG",
            "hex": "76a9140c1bf67d763b77609909de1e00a0212eba08378288ac",
            "reqSigs": 1,
            "type": "pubkeyhash",
            "addresses": [
              "LLKysQcjELHhMwN2VbiGwF3fzY9qSVsyop"
            ]
          }
        }
      ],
      "hex": "01000000014f98f56cb809dec7f47ecf44a273e5abe4031af72b4d8afa96fb5b17df5322fb010000006b4830450221008a76b65c56ed8728253f676f432e4794efab7080537081e03d86a5d26256b83f022043f394ecd5cae2dbf51e7ecf70f54953208b3221e1c334e88b09e29eaf59a8a9012102cbc879733da572f4b2835ce460512bf23984b8cbe998e192e7e2427e23b28ffcffffffff020070fb32020000001976a914736152deba8b95d7d0600e8ae106aadeca2caa6588ac8074d21a000000001976a9140c1bf67d763b77609909de1e00a0212eba08378288ac00000000"
    }, 
    {
      "txid": "8a8c613b404b0e470990d8f06c7ba87871cd3db21ddc2f3b28737dc40f21c2b2",
      "hash": "8a8c613b404b0e470990d8f06c7ba87871cd3db21ddc2f3b28737dc40f21c2b2",
      "version": 1,
      "size": 226,
      "vsize": 226,
      "locktime": 0,
      "vin": [
        {
          "txid": "58d872bc0143cdde01513f51ee22e4d75c2155bd839b7a38edd503a7ca3516da",
          "vout": 0,
          "scriptSig": {
            "asm": "3045022100c29e81950854d6b0c54182ad4c7270d21414700b91b1afd60bc16ed354d0f3a002204a81e33c1c207b41c3803e4fa8e425744f175d5b888f9762bc5a1c062e449f2e[ALL] 039fd3e0d2f376b3c289f00390b33b2b8be98bddf85a04bedfe632fb6fbbff7301",
            "hex": "483045022100c29e81950854d6b0c54182ad4c7270d21414700b91b1afd60bc16ed354d0f3a002204a81e33c1c207b41c3803e4fa8e425744f175d5b888f9762bc5a1c062e449f2e0121039fd3e0d2f376b3c289f00390b33b2b8be98bddf85a04bedfe632fb6fbbff7301"
          },
          "sequence": 4294967295
        }
      ],
      "vout": [
        {
          "value": 98.40342200,
          "n": 0,
          "scriptPubKey": {
            "asm": "OP_DUP OP_HASH160 96785919299e2c52d0f388eac15acb28557ca99f OP_EQUALVERIFY OP_CHECKSIG",
            "hex": "76a91496785919299e2c52d0f388eac15acb28557ca99f88ac",
            "reqSigs": 1,
            "type": "pubkeyhash",
            "addresses": [
              "LYwZnv5gy3Y6B6uuygDrvpAb6EMnd7brYN"
            ]
          }
        }, 
        {
          "value": 0.57635200,
          "n": 1,
          "scriptPubKey": {
            "asm": "OP_DUP OP_HASH160 9ef9e0367ab61a6a07b20ecd23822c13ac1fa545 OP_EQUALVERIFY OP_CHECKSIG",
            "hex": "76a9149ef9e0367ab61a6a07b20ecd23822c13ac1fa54588ac",
            "reqSigs": 1,
            "type": "pubkeyhash",
            "addresses": [
              "LZiYNCWrrXMfWLEnRAVSDLf8cY92eyQkAM"
            ]
          }
        }
      ],
      "hex": "0100000001da1635caa703d5ed387a9b83bd55215cd7e422ee513f5101decd4301bc72d858000000006b483045022100c29e81950854d6b0c54182ad4c7270d21414700b91b1afd60bc16ed354d0f3a002204a81e33c1c207b41c3803e4fa8e425744f175d5b888f9762bc5a1c062e449f2e0121039fd3e0d2f376b3c289f00390b33b2b8be98bddf85a04bedfe632fb6fbbff7301ffffffff02b8b4874a020000001976a91496785919299e2c52d0f388eac15acb28557ca99f88ac80716f03000000001976a9149ef9e0367ab61a6a07b20ecd23822c13ac1fa54588ac00000000"
    }, 
    {
      "txid": "24cdca73ad8327ba8d3311427ed8670f0786a9c50ef010aff41a2109321222ff",
      "hash": "24cdca73ad8327ba8d3311427ed8670f0786a9c50ef010aff41a2109321222ff",
      "version": 1,
      "size": 226,
      "vsize": 226,
      "locktime": 0,
      "vin": [
        {
          "txid": "f3c5ca4994e4cb387a12413ad11dbef7e0607a648f017dd9c06a3af35466471e",
          "vout": 0,
          "scriptSig": {
            "asm": "3045022100a62ed679964fd09cf4ba2a3f4aff80077bdf290c3be4e7bd226ca1a768fe9de402207c965b479aea233b3cf288cde8161fa9b5520ed7f9d4b0ee3bb8e4a6e81ef7b9[ALL] 03f7f48af94162dae8e6fd52845c70003ffcb5b9fd28e7e315234364a1713e5a5c",
            "hex": "483045022100a62ed679964fd09cf4ba2a3f4aff80077bdf290c3be4e7bd226ca1a768fe9de402207c965b479aea233b3cf288cde8161fa9b5520ed7f9d4b0ee3bb8e4a6e81ef7b9012103f7f48af94162dae8e6fd52845c70003ffcb5b9fd28e7e315234364a1713e5a5c"
          },
          "sequence": 4294967295
        }
      ],
      "vout": [
        {
          "value": 95.99954800,
          "n": 0,
          "scriptPubKey": {
            "asm": "OP_DUP OP_HASH160 bf2aaacc1fcc83d930ff4d7b498b69613918b278 OP_EQUALVERIFY OP_CHECKSIG",
            "hex": "76a914bf2aaacc1fcc83d930ff4d7b498b69613918b27888ac",
            "reqSigs": 1,
            "type": "pubkeyhash",
            "addresses": [
              "LcekSRKMiNnsbeYuLLVPwgsXGdiotoawor"
            ]
          }
        }, 
        {
          "value": 3.00000000,
          "n": 1,
          "scriptPubKey": {
            "asm": "OP_DUP OP_HASH160 ce0131d2d07f0050be675532cec79450a66560d3 OP_EQUALVERIFY OP_CHECKSIG",
            "hex": "76a914ce0131d2d07f0050be675532cec79450a66560d388ac",
            "reqSigs": 1,
            "type": "pubkeyhash",
            "addresses": [
              "Le1CtjXEdLLRxEcsVsPyuJP1ypuVytKcTc"
            ]
          }
        }
      ],
      "hex": "01000000011e476654f33a6ac0d97d018f647a60e0f7be1dd13a41127a38cbe49449cac5f3000000006b483045022100a62ed679964fd09cf4ba2a3f4aff80077bdf290c3be4e7bd226ca1a768fe9de402207c965b479aea233b3cf288cde8161fa9b5520ed7f9d4b0ee3bb8e4a6e81ef7b9012103f7f48af94162dae8e6fd52845c70003ffcb5b9fd28e7e315234364a1713e5a5cffffffff0270af333c020000001976a914bf2aaacc1fcc83d930ff4d7b498b69613918b27888ac00a3e111000000001976a914ce0131d2d07f0050be675532cec79450a66560d388ac00000000"
    }
  ],
  "time": 1517002949,
  "mediantime": 1517002276,
  "nonce": 1145218057,
  "bits": "1a047f14",
  "difficulty": 3731199.183374282,
  "chainwork": "00000000000000000000000000000000000000000000003239be060ff5841c00",
  "previousblockhash": "a5752f6cc149deec4fe3e98b868807146b7aa5396e35073e28e2785eb6f23147",
  "nextblockhash": "28c39a09c37c2eb8123a42c76f7f0abe41b580356b93f4c85d32224af69eb6f8"
}
