{
  "hash": "cc42b489e5fd39ee875a2e50f2856f88e5d6e2cea5359ce866f0f25f8493878d",
  "confirmations": 3754,
  "strippedsize": 253,
  "size": 253,
  "weight": 1012,
  "height": 1357241,
  "version": 536870912,
  "versionHex": "20000000",
  "merkleroot": "49ce0bb73fce080aac1daf007610c355f3023557e6306ca0f00a707ed8cb9c97",
  "tx": [
    {
      "txid": "49ce0bb73fce080aac1daf007610c355f3023557e6306ca0f00a707ed8cb9c97",
      "hash": "49ce0bb73fce080aac1daf007610c355f3023557e6306ca0f00a707ed8cb9c97",
      "version": 1,
      "size": 172,
      "vsize": 172,
      "locktime": 0,
      "vin": [
        {
          "coinbase": "03b9b5141a4d696e656420627920416e74506f6f6c20626a331f205a6b3a28fabe6d6d3efada9d8a13af7b5add990a25bff1a878fa5a0c3deaad712ed8d828a85780e1040000000000000045330000000000001b000000",
          "sequence": 4294967295
        }
      ],
      "vout": [
        {
          "value": 25.00000000,
          "n": 0,
          "scriptPubKey": {
            "asm": "OP_DUP OP_HASH160 0ff3ccc5e8be88afe24b5d634e5852d474dbdff1 OP_EQUALVERIFY OP_CHECKSIG",
            "hex": "76a9140ff3ccc5e8be88afe24b5d634e5852d474dbdff188ac",
            "reqSigs": 1,
            "type": "pubkeyhash",
            "addresses": [
              "LLgJTbzZMsRTCUF1NtvvL9SR1a4pVieW89"
            ]
          }
        }
      ],
      "hex": "01000000010000000000000000000000000000000000000000000000000000000000000000ffffffff5703b9b5141a4d696e656420627920416e74506f6f6c20626a331f205a6b3a28fabe6d6d3efada9d8a13af7b5add990a25bff1a878fa5a0c3deaad712ed8d828a85780e1040000000000000045330000000000001b000000ffffffff0100f90295000000001976a9140ff3ccc5e8be88afe24b5d634e5852d474dbdff188ac00000000"
    }
  ],
  "time": 1516976680,
  "mediantime": 1516975885,
  "nonce": 4118578632,
  "bits": "1a047f14",
  "difficulty": 3731199.183374282,
  "chainwork": "0000000000000000000000000000000000000000000000320db500a8a13c9fe4",
  "previousblockhash": "02ebc4da2510ddd7a3d9e56baa722ee822444081c660d3d338705130831cfcb0",
  "nextblockhash": "f31ce83c6c584a2cad8d213f493b58eb90a5afb4a64f99809a138b0db7a13664"
}
