{
  "hash": "cdae519cc7e8ae83d356cee142d9f4137637494aa2b749220ba3e1ffb4ecc949",
  "confirmations": 3762,
  "strippedsize": 253,
  "size": 253,
  "weight": 1012,
  "height": 1357233,
  "version": 536870912,
  "versionHex": "20000000",
  "merkleroot": "2ee539767071c258363fa0ecff0bc43ba05b76922cbf33148ccfd71f5d177c47",
  "tx": [
    {
      "txid": "2ee539767071c258363fa0ecff0bc43ba05b76922cbf33148ccfd71f5d177c47",
      "hash": "2ee539767071c258363fa0ecff0bc43ba05b76922cbf33148ccfd71f5d177c47",
      "version": 1,
      "size": 172,
      "vsize": 172,
      "locktime": 0,
      "vin": [
        {
          "coinbase": "03b1b5141a4d696e656420627920416e74506f6f6c20626a3532205a6b3635fabe6d6d55d9ebcd9132969ed5d27c0af7bc0fc7ecea1de75417a1e8e87d4a1e67dd90c30400000000000000ca1100000000000003000000",
          "sequence": 4294967295
        }
      ],
      "vout": [
        {
          "value": 25.00000000,
          "n": 0,
          "scriptPubKey": {
            "asm": "OP_DUP OP_HASH160 0ff3ccc5e8be88afe24b5d634e5852d474dbdff1 OP_EQUALVERIFY OP_CHECKSIG",
            "hex": "76a9140ff3ccc5e8be88afe24b5d634e5852d474dbdff188ac",
            "reqSigs": 1,
            "type": "pubkeyhash",
            "addresses": [
              "LLgJTbzZMsRTCUF1NtvvL9SR1a4pVieW89"
            ]
          }
        }
      ],
      "hex": "01000000010000000000000000000000000000000000000000000000000000000000000000ffffffff5703b1b5141a4d696e656420627920416e74506f6f6c20626a3532205a6b3635fabe6d6d55d9ebcd9132969ed5d27c0af7bc0fc7ecea1de75417a1e8e87d4a1e67dd90c30400000000000000ca1100000000000003000000ffffffff0100f90295000000001976a9140ff3ccc5e8be88afe24b5d634e5852d474dbdff188ac00000000"
    }
  ],
  "time": 1516975669,
  "mediantime": 1516975108,
  "nonce": 2097091032,
  "bits": "1a047f14",
  "difficulty": 3731199.183374282,
  "chainwork": "0000000000000000000000000000000000000000000000320bed86e7afeebf14",
  "previousblockhash": "9b6ebb74b50c0569e4a289a4daa6052b60e79e3b5e1acddd69784212c66bcaa7",
  "nextblockhash": "b1b8387eb6a20911107203ce17bdfaed8f094dca6585f11953d1f12bb03ee7bf"
}
