{
  "hash": "cdcd331349e2c8ce19f5c1ebf0acffe2cd7b5f0cb7593f34a72a1621341c770f",
  "confirmations": 3257,
  "strippedsize": 3840,
  "size": 3876,
  "weight": 15396,
  "height": 1357738,
  "version": 536870912,
  "versionHex": "20000000",
  "merkleroot": "5c46cb65e48f916f7ae96b1ca6fe667556adccb9bd92befcf2cca0c525de2c97",
  "tx": [
    {
      "txid": "fc2e552dac21e03651cade369d1ce68db1063ffff2d54e554e23de3598bd743e",
      "hash": "98779c78cc58e539c7d6f38b21f74ba37b39327856eafefb145f839dff54047f",
      "version": 1,
      "size": 236,
      "vsize": 209,
      "locktime": 0,
      "vin": [
        {
          "coinbase": "03aab714045a6c38492cfabe6d6d3c6142dde06d30cf3eee4f493b135c8c75a3429b9c9a0f73c0f2bee113a87ad54000000000000000042f4c502f08160043342a000000",
          "sequence": 4294967295
        }
      ],
      "vout": [
        {
          "value": 25.00730600,
          "n": 0,
          "scriptPubKey": {
            "asm": "OP_DUP OP_HASH160 57757ed2ecf2052ff3126c397aca7defb9ca2cec OP_EQUALVERIFY OP_CHECKSIG",
            "hex": "76a91457757ed2ecf2052ff3126c397aca7defb9ca2cec88ac",
            "reqSigs": 1,
            "type": "pubkeyhash",
            "addresses": [
              "LTCPodGk5FwcJaRzH9yKnwicxzFUbxp6tN"
            ]
          }
        }, 
        {
          "value": 0.00000000,
          "n": 1,
          "scriptPubKey": {
            "asm": "OP_RETURN aa21a9ed9012fcd22d81515b3a20b2355ffe4b8bc927c65b154eaf6e6c699ecee2109560",
            "hex": "6a24aa21a9ed9012fcd22d81515b3a20b2355ffe4b8bc927c65b154eaf6e6c699ecee2109560",
            "type": "nulldata"
          }
        }
      ],
      "hex": "010000000001010000000000000000000000000000000000000000000000000000000000000000ffffffff4403aab714045a6c38492cfabe6d6d3c6142dde06d30cf3eee4f493b135c8c75a3429b9c9a0f73c0f2bee113a87ad54000000000000000042f4c502f08160043342a000000ffffffff02e81e0e95000000001976a91457757ed2ecf2052ff3126c397aca7defb9ca2cec88ac0000000000000000266a24aa21a9ed9012fcd22d81515b3a20b2355ffe4b8bc927c65b154eaf6e6c699ecee21095600120000000000000000000000000000000000000000000000000000000000000000000000000"
    }, 
    {
      "txid": "0aecb2f1cb327c1b8419d19df323996c573c404917dcd35bb663ac3a02955756",
      "hash": "0aecb2f1cb327c1b8419d19df323996c573c404917dcd35bb663ac3a02955756",
      "version": 1,
      "size": 336,
      "vsize": 336,
      "locktime": 0,
      "vin": [
        {
          "txid": "e208090ad4235bfae9b293d44a2e3ffb9de07783f885ca2ee11a970b72d141f3",
          "vout": 1,
          "scriptSig": {
            "asm": "0 3045022100f09e7e6235aa9e068da04b659f314d4191ea83e6cfb5671e1166d98ff13b0d77022070354b708d8d81ea2e4a070d1b7ab9fad31a4702155d7248ec2a84a9defa46a1[ALL] 3045022100a6940629c65ef8952c33b073f1e9d1a16fe1ed8d1ec6ddc5cee8f76bdf4557b20220251172ae3d1400567f7b966689545449b1eca2dabb3e69585b945d89bb5beb23[ALL] 522102a618de23e72ad0b9e998bb2921f510cb4e078dcfe13c48cae85fec0587718f78210235de611525feac0afecdd7faefde5b645b007e2de1e7e9477ff773a9529a435e52ae",
            "hex": "00483045022100f09e7e6235aa9e068da04b659f314d4191ea83e6cfb5671e1166d98ff13b0d77022070354b708d8d81ea2e4a070d1b7ab9fad31a4702155d7248ec2a84a9defa46a101483045022100a6940629c65ef8952c33b073f1e9d1a16fe1ed8d1ec6ddc5cee8f76bdf4557b20220251172ae3d1400567f7b966689545449b1eca2dabb3e69585b945d89bb5beb230147522102a618de23e72ad0b9e998bb2921f510cb4e078dcfe13c48cae85fec0587718f78210235de611525feac0afecdd7faefde5b645b007e2de1e7e9477ff773a9529a435e52ae"
          },
          "sequence": 4294967295
        }
      ],
      "vout": [
        {
          "value": 0.09656238,
          "n": 0,
          "scriptPubKey": {
            "asm": "OP_DUP OP_HASH160 22b408002227f7cf5fc19195aa8589b7ee75d4e0 OP_EQUALVERIFY OP_CHECKSIG",
            "hex": "76a91422b408002227f7cf5fc19195aa8589b7ee75d4e088ac",
            "reqSigs": 1,
            "type": "pubkeyhash",
            "addresses": [
              "LNPSuXTVSWM5RSqVYQCkadL7dmp31FcwfV"
            ]
          }
        }, 
        {
          "value": 54.48927403,
          "n": 1,
          "scriptPubKey": {
            "asm": "OP_HASH160 8bfc0bc6105a628bd82effe05523aea40f0eb873 OP_EQUAL",
            "hex": "a9148bfc0bc6105a628bd82effe05523aea40f0eb87387",
            "reqSigs": 1,
            "type": "scripthash",
            "addresses": [
              "MLfL6ZGHAz972E3kEmnAurRy8FnjCvjfab"
            ]
          }
        }
      ],
      "hex": "0100000001f341d1720b971ae12eca85f88377e09dfb3f2e4ad493b2e9fa5b23d40a0908e201000000db00483045022100f09e7e6235aa9e068da04b659f314d4191ea83e6cfb5671e1166d98ff13b0d77022070354b708d8d81ea2e4a070d1b7ab9fad31a4702155d7248ec2a84a9defa46a101483045022100a6940629c65ef8952c33b073f1e9d1a16fe1ed8d1ec6ddc5cee8f76bdf4557b20220251172ae3d1400567f7b966689545449b1eca2dabb3e69585b945d89bb5beb230147522102a618de23e72ad0b9e998bb2921f510cb4e078dcfe13c48cae85fec0587718f78210235de611525feac0afecdd7faefde5b645b007e2de1e7e9477ff773a9529a435e52aeffffffff02ae579300000000001976a91422b408002227f7cf5fc19195aa8589b7ee75d4e088acab08c8440100000017a9148bfc0bc6105a628bd82effe05523aea40f0eb8738700000000"
    }, 
    {
      "txid": "210b08a8684ec9f6542817f2b925c02191a055adeaa4daffeddb9d4b3cecd96c",
      "hash": "210b08a8684ec9f6542817f2b925c02191a055adeaa4daffeddb9d4b3cecd96c",
      "version": 1,
      "size": 191,
      "vsize": 191,
      "locktime": 0,
      "vin": [
        {
          "txid": "7de4edc0d47fbb8d52c62122f43982b1fca8f857f2cfc52d63f713abba1e4f93",
          "vout": 0,
          "scriptSig": {
            "asm": "30440220174df792c4d8d945fc8135f1f38e3c4463df80f6bbf70973cc73e1a585c63829022004f7daba78144c0131e72b0a25eb4611a69c978f50f4c6faf097d0730cd24a1e[ALL] 024c0890024799fbba123daaf85e9fe8f9f798f1b116417f2ebdea91a8f0e400c1",
            "hex": "4730440220174df792c4d8d945fc8135f1f38e3c4463df80f6bbf70973cc73e1a585c63829022004f7daba78144c0131e72b0a25eb4611a69c978f50f4c6faf097d0730cd24a1e0121024c0890024799fbba123daaf85e9fe8f9f798f1b116417f2ebdea91a8f0e400c1"
          },
          "sequence": 4294967295
        }
      ],
      "vout": [
        {
          "value": 0.26453836,
          "n": 0,
          "scriptPubKey": {
            "asm": "OP_DUP OP_HASH160 6de8b3d1763bebfbf64b44d4d8c528cda89a8add OP_EQUALVERIFY OP_CHECKSIG",
            "hex": "76a9146de8b3d1763bebfbf64b44d4d8c528cda89a8add88ac",
            "reqSigs": 1,
            "type": "pubkeyhash",
            "addresses": [
              "LVF6gZzx2nxJ3UD1da9GLDoM7SZgkpXDeK"
            ]
          }
        }
      ],
      "hex": "0100000001934f1ebaab13f7632dc5cff257f8a8fcb18239f42221c6528dbb7fd4c0ede47d000000006a4730440220174df792c4d8d945fc8135f1f38e3c4463df80f6bbf70973cc73e1a585c63829022004f7daba78144c0131e72b0a25eb4611a69c978f50f4c6faf097d0730cd24a1e0121024c0890024799fbba123daaf85e9fe8f9f798f1b116417f2ebdea91a8f0e400c1ffffffff014ca79301000000001976a9146de8b3d1763bebfbf64b44d4d8c528cda89a8add88ac00000000"
    }, 
    {
      "txid": "cdd9ccf7c165618b35390a7d79fc4a18d2aac860e76ae3ab6fd9af7a49d84f47",
      "hash": "cdd9ccf7c165618b35390a7d79fc4a18d2aac860e76ae3ab6fd9af7a49d84f47",
      "version": 2,
      "size": 223,
      "vsize": 223,
      "locktime": 1357736,
      "vin": [
        {
          "txid": "1b60afc4b12e00585c4c90c6204c5babe7ac9c89637a8610f5b201a0116d971d",
          "vout": 0,
          "scriptSig": {
            "asm": "3044022016bb1b86046da2603371589ed4b4d1dbd01930b722e6b83494ee7a7e97be9a8202203ed92e97b31c2708091d717bd10ddcebfcfaff5a375fc5b855d0c4bfed632262[ALL] 02310b0accff181ec140dd33bb8a83b6fdccf9368ea7ea295b406c3cc9b65a8349",
            "hex": "473044022016bb1b86046da2603371589ed4b4d1dbd01930b722e6b83494ee7a7e97be9a8202203ed92e97b31c2708091d717bd10ddcebfcfaff5a375fc5b855d0c4bfed632262012102310b0accff181ec140dd33bb8a83b6fdccf9368ea7ea295b406c3cc9b65a8349"
          },
          "sequence": 4294967294
        }
      ],
      "vout": [
        {
          "value": 0.13346261,
          "n": 0,
          "scriptPubKey": {
            "asm": "OP_HASH160 7d81a3b1934650e17bbebb4d9a0078b45e521175 OP_EQUAL",
            "hex": "a9147d81a3b1934650e17bbebb4d9a0078b45e52117587",
            "reqSigs": 1,
            "type": "scripthash",
            "addresses": [
              "MKLmzuzEot8bhhjYMcwJ68ZA3PfJKqG62D"
            ]
          }
        }, 
        {
          "value": 38.64707207,
          "n": 1,
          "scriptPubKey": {
            "asm": "OP_DUP OP_HASH160 6915cb4f1621eed37d6dd4a103a593b2c2121551 OP_EQUALVERIFY OP_CHECKSIG",
            "hex": "76a9146915cb4f1621eed37d6dd4a103a593b2c212155188ac",
            "reqSigs": 1,
            "type": "pubkeyhash",
            "addresses": [
              "LUobKe8owBcPjvzFboAjErTaKt5qxeQNgk"
            ]
          }
        }
      ],
      "hex": "02000000011d976d11a001b2f510867a63899cace7ab5b4c20c6904c5c58002eb1c4af601b000000006a473044022016bb1b86046da2603371589ed4b4d1dbd01930b722e6b83494ee7a7e97be9a8202203ed92e97b31c2708091d717bd10ddcebfcfaff5a375fc5b855d0c4bfed632262012102310b0accff181ec140dd33bb8a83b6fdccf9368ea7ea295b406c3cc9b65a8349feffffff02d5a5cb000000000017a9147d81a3b1934650e17bbebb4d9a0078b45e5211758787c05ae6000000001976a9146915cb4f1621eed37d6dd4a103a593b2c212155188aca8b71400"
    }, 
    {
      "txid": "6d2dbf72d2911c68e526ece22dd21ee14de661345fac6c8a34faf95e6f572b21",
      "hash": "6d2dbf72d2911c68e526ece22dd21ee14de661345fac6c8a34faf95e6f572b21",
      "version": 1,
      "size": 520,
      "vsize": 520,
      "locktime": 1357735,
      "vin": [
        {
          "txid": "f056fd879f003e349fc26a5f5388a29516afe12852d902626e3afa92f946d3e9",
          "vout": 0,
          "scriptSig": {
            "asm": "3045022100be78fe3b0279aec436523f59bdd540dcbaeb4c68d6b6745b50869d48ecc65720022027825d65e6f19a0b5869b56be1883edb5805d697e43ff5ce4f61a7dc3622e9a0[ALL] 022baf8aa4277f270bdd4a2eabe0d1c9d4facb2e49200287cbd7d60602b831e9b7",
            "hex": "483045022100be78fe3b0279aec436523f59bdd540dcbaeb4c68d6b6745b50869d48ecc65720022027825d65e6f19a0b5869b56be1883edb5805d697e43ff5ce4f61a7dc3622e9a00121022baf8aa4277f270bdd4a2eabe0d1c9d4facb2e49200287cbd7d60602b831e9b7"
          },
          "sequence": 4294967294
        }, 
        {
          "txid": "37b307da63ff84c063fdbfc801d71916287004eafe673cf2d954f071e24e39d5",
          "vout": 0,
          "scriptSig": {
            "asm": "30450221009b23260c3659ae770bea27a5ac161fafe00026b5868f72d35aebcc0e38dafb5402200f2deec7b3b57b1338c898741642e2ac8dbabc4c7086a11678dc9a10610b9358[ALL] 0214313577cb9edc89d18f3e2ad103d3b3ae8abce9323547ede03fab64b1676c4f",
            "hex": "4830450221009b23260c3659ae770bea27a5ac161fafe00026b5868f72d35aebcc0e38dafb5402200f2deec7b3b57b1338c898741642e2ac8dbabc4c7086a11678dc9a10610b935801210214313577cb9edc89d18f3e2ad103d3b3ae8abce9323547ede03fab64b1676c4f"
          },
          "sequence": 4294967294
        }, 
        {
          "txid": "0954042a07a452c0d3e271d4f7e7449435e424febcf6c184d8bd0a3eb41dbd91",
          "vout": 0,
          "scriptSig": {
            "asm": "304502210095ab7e71391120f32097bfa5a0997dd665c0efee1caeeeae8f7a48f8f6a10bf30220501a05a82f46a309c4b4620a52fc41b7af03a5d1ed0026699dcd4acad68cb899[ALL] 0362bc946467b7847c8b75bebe4bdee7952dd94141bd257343f8df7b4937bbe0d3",
            "hex": "48304502210095ab7e71391120f32097bfa5a0997dd665c0efee1caeeeae8f7a48f8f6a10bf30220501a05a82f46a309c4b4620a52fc41b7af03a5d1ed0026699dcd4acad68cb89901210362bc946467b7847c8b75bebe4bdee7952dd94141bd257343f8df7b4937bbe0d3"
          },
          "sequence": 4294967294
        }
      ],
      "vout": [
        {
          "value": 0.01339830,
          "n": 0,
          "scriptPubKey": {
            "asm": "OP_DUP OP_HASH160 c2ac5340ee670537b73b7b90ce564f2d7c04257e OP_EQUALVERIFY OP_CHECKSIG",
            "hex": "76a914c2ac5340ee670537b73b7b90ce564f2d7c04257e88ac",
            "reqSigs": 1,
            "type": "pubkeyhash",
            "addresses": [
              "LcyHnnyrWzK5YrZswQsAHsE3dRwHv2C9XB"
            ]
          }
        }, 
        {
          "value": 0.19800000,
          "n": 1,
          "scriptPubKey": {
            "asm": "OP_HASH160 c707e4b862794b56b18c0d373bcbb0acd464d15a OP_EQUAL",
            "hex": "a914c707e4b862794b56b18c0d373bcbb0acd464d15a87",
            "reqSigs": 1,
            "type": "scripthash",
            "addresses": [
              "MS3YA3rzxY4XtjZk21s9D5dcLobVhW2QiR"
            ]
          }
        }
      ],
      "hex": "0100000003e9d346f992fa3a6e6202d95228e1af1695a288535f6ac29f343e009f87fd56f0000000006b483045022100be78fe3b0279aec436523f59bdd540dcbaeb4c68d6b6745b50869d48ecc65720022027825d65e6f19a0b5869b56be1883edb5805d697e43ff5ce4f61a7dc3622e9a00121022baf8aa4277f270bdd4a2eabe0d1c9d4facb2e49200287cbd7d60602b831e9b7feffffffd5394ee271f054d9f23c67feea0470281619d701c8bffd63c084ff63da07b337000000006b4830450221009b23260c3659ae770bea27a5ac161fafe00026b5868f72d35aebcc0e38dafb5402200f2deec7b3b57b1338c898741642e2ac8dbabc4c7086a11678dc9a10610b935801210214313577cb9edc89d18f3e2ad103d3b3ae8abce9323547ede03fab64b1676c4ffeffffff91bd1db43e0abdd884c1f6bcfe24e4359444e7f7d471e2d3c052a4072a045409000000006b48304502210095ab7e71391120f32097bfa5a0997dd665c0efee1caeeeae8f7a48f8f6a10bf30220501a05a82f46a309c4b4620a52fc41b7af03a5d1ed0026699dcd4acad68cb89901210362bc946467b7847c8b75bebe4bdee7952dd94141bd257343f8df7b4937bbe0d3feffffff02b6711400000000001976a914c2ac5340ee670537b73b7b90ce564f2d7c04257e88acc01f2e010000000017a914c707e4b862794b56b18c0d373bcbb0acd464d15a87a7b71400"
    }, 
    {
      "txid": "ada152758aa5d2963a5d6aaedcaa03dfb638348a1945b39f228f8c374e58d509",
      "hash": "ada152758aa5d2963a5d6aaedcaa03dfb638348a1945b39f228f8c374e58d509",
      "version": 2,
      "size": 2063,
      "vsize": 2063,
      "locktime": 1357736,
      "vin": [
        {
          "txid": "7030ba494085fd667085b7a52c3541c2a15b20ee585cdefe8fcebc7b7e3058ac",
          "vout": 1,
          "scriptSig": {
            "asm": "304402201276f73e13c6ac50f75686c0826ea1353baf93c8c1763e76e1bb47fbffdcab49022073767d66bf36845d853147f1566d0b9dcda7e75a06fba3cb58cdc5747a0b417e[ALL] 0302f80d286c4248d2349dd66848c14873816c7bbbaf56020057fd1124ae866891",
            "hex": "47304402201276f73e13c6ac50f75686c0826ea1353baf93c8c1763e76e1bb47fbffdcab49022073767d66bf36845d853147f1566d0b9dcda7e75a06fba3cb58cdc5747a0b417e01210302f80d286c4248d2349dd66848c14873816c7bbbaf56020057fd1124ae866891"
          },
          "sequence": 4294967294
        }, 
        {
          "txid": "a315b52928c9a13b567dfb19c66b435a015651299bf90e6dad3170988f70d5cd",
          "vout": 0,
          "scriptSig": {
            "asm": "30440220705149a008fc498fb65665a47358f3b2ee174674563fc1fcde0c80031d6ccbd402201ec8b803896d1395ca989e649f30a6815c7204748d219c3653a4fe3dfcb161d9[ALL] 03449ecad37558eb9897e4225efb76f2fa0dbdefe8f23a0ff19e25be78c1ae1b79",
            "hex": "4730440220705149a008fc498fb65665a47358f3b2ee174674563fc1fcde0c80031d6ccbd402201ec8b803896d1395ca989e649f30a6815c7204748d219c3653a4fe3dfcb161d9012103449ecad37558eb9897e4225efb76f2fa0dbdefe8f23a0ff19e25be78c1ae1b79"
          },
          "sequence": 4294967294
        }, 
        {
          "txid": "9112f2b2fcea2f2266d027803d3b6356683d675b06828249d76c8f939a377564",
          "vout": 1,
          "scriptSig": {
            "asm": "3045022100e1705f59b194cd9c06c38604e62faca7cec9347644cf691699d5090c8564e516022029f1cb89d698a9d6eacecc0dd17979f7b2a81ce8ab5c84c81a8a06c2366a8ecc[ALL] 02fa574dfecde65c9c5c0cc91507f0e1ec15c85e71a4195307161524a9b127bdb1",
            "hex": "483045022100e1705f59b194cd9c06c38604e62faca7cec9347644cf691699d5090c8564e516022029f1cb89d698a9d6eacecc0dd17979f7b2a81ce8ab5c84c81a8a06c2366a8ecc012102fa574dfecde65c9c5c0cc91507f0e1ec15c85e71a4195307161524a9b127bdb1"
          },
          "sequence": 4294967294
        }, 
        {
          "txid": "ae1d2a9df876cf00b301afb356500592860f4ec1cea07800e7dd9a37da298b5a",
          "vout": 0,
          "scriptSig": {
            "asm": "3045022100960f369c4baf057e63d25044ea7288573d5785c3f4d2685623f05c51608c4f200220322c42806f630b677d5dca46dfa8a0d2b9ae5001ca1fbf3d820d65958bde84f2[ALL] 0297e59fbb2698f7eb2bdd268827bdb4c2818ac2e27624c17aa879adbbde062c08",
            "hex": "483045022100960f369c4baf057e63d25044ea7288573d5785c3f4d2685623f05c51608c4f200220322c42806f630b677d5dca46dfa8a0d2b9ae5001ca1fbf3d820d65958bde84f201210297e59fbb2698f7eb2bdd268827bdb4c2818ac2e27624c17aa879adbbde062c08"
          },
          "sequence": 4294967294
        }, 
        {
          "txid": "cc1c1e481448c18311c06f5862e8f7905da86a82e2e5b2fb750e8ccf85c9844c",
          "vout": 1,
          "scriptSig": {
            "asm": "304402203f42d8566bd1c051678f2be6417209b3b6c0036874d7f8f3119768905e8b84cc022031494b64b5370bde2fd27e5425643d44e3842261e6cc908a9cccb688b63dd8e1[ALL] 039d6d6f27e9047a67f9d3e4fac19e0ff7eabbecaf709c126b300c5207285ba102",
            "hex": "47304402203f42d8566bd1c051678f2be6417209b3b6c0036874d7f8f3119768905e8b84cc022031494b64b5370bde2fd27e5425643d44e3842261e6cc908a9cccb688b63dd8e10121039d6d6f27e9047a67f9d3e4fac19e0ff7eabbecaf709c126b300c5207285ba102"
          },
          "sequence": 4294967294
        }, 
        {
          "txid": "05a3d7eb464206122f239228155db152e877e410ad2f26fb9af910779172cff8",
          "vout": 0,
          "scriptSig": {
            "asm": "3045022100a7fab4c55ae09e1b51fbf4ac912540815bc36335fc326d45cbcfc1085defa29202200b4d63df1b6a6e4cd90b01d4d1cea3dc59ae968c0c9e3b8fc92f8918abd40d79[ALL] 03267280d7013fd75bb9eb86a1ac9f4a491d0411a10477f8fce978a1bd0213b149",
            "hex": "483045022100a7fab4c55ae09e1b51fbf4ac912540815bc36335fc326d45cbcfc1085defa29202200b4d63df1b6a6e4cd90b01d4d1cea3dc59ae968c0c9e3b8fc92f8918abd40d79012103267280d7013fd75bb9eb86a1ac9f4a491d0411a10477f8fce978a1bd0213b149"
          },
          "sequence": 4294967294
        }, 
        {
          "txid": "dedc2d3fca3579145fd1de4cb74bba9b4af72a7288a8539d3cd7124693883924",
          "vout": 2,
          "scriptSig": {
            "asm": "3045022100e91c3a099f153f393ae26c1fcb7f4b1ef184507ffeb209ecbb67121ea69e9ee002207afca46d3cac3ebdc9e5cb09114be5eaaf86985765d655764628cff54931cc9e[ALL] 029ac82e33441edb1143387772bc339d05d47556fdc7589633f28ede84290b7bfc",
            "hex": "483045022100e91c3a099f153f393ae26c1fcb7f4b1ef184507ffeb209ecbb67121ea69e9ee002207afca46d3cac3ebdc9e5cb09114be5eaaf86985765d655764628cff54931cc9e0121029ac82e33441edb1143387772bc339d05d47556fdc7589633f28ede84290b7bfc"
          },
          "sequence": 4294967294
        }, 
        {
          "txid": "3101f33ba83a302c70007153ae685586b7b742bb26714c24cad61c33ca4f7640",
          "vout": 3,
          "scriptSig": {
            "asm": "3045022100abd8abeaf62a87455c1710d9150432b9e9bfa64c3f19ef5887afdeb5beb5d23002202516394e32c46e1df65a0431f2fd500e45dcb998fcdfa91dba78b50fce22cf47[ALL] 02772f9e389db824003a91bb3ef194f0378e937be7716bb9c6da91fa16e41a77e5",
            "hex": "483045022100abd8abeaf62a87455c1710d9150432b9e9bfa64c3f19ef5887afdeb5beb5d23002202516394e32c46e1df65a0431f2fd500e45dcb998fcdfa91dba78b50fce22cf47012102772f9e389db824003a91bb3ef194f0378e937be7716bb9c6da91fa16e41a77e5"
          },
          "sequence": 4294967294
        }, 
        {
          "txid": "a181fe2aec821aa73011648fefb4830a2f91a6c9003080219249f9c4b1c88d83",
          "vout": 15,
          "scriptSig": {
            "asm": "304402207a0dbc7ff9d58587999ddb6b3e176f90c33cf3e17fb215149072b64c55c056d902202db9d327043cfbb8b1a08bc3e4e0da4929d9879f8648545d866fed4a7abedee8[ALL] 03810503aada31b4844d122742f7b108fde8bacb60214d9245f7365c7a8557a65d",
            "hex": "47304402207a0dbc7ff9d58587999ddb6b3e176f90c33cf3e17fb215149072b64c55c056d902202db9d327043cfbb8b1a08bc3e4e0da4929d9879f8648545d866fed4a7abedee8012103810503aada31b4844d122742f7b108fde8bacb60214d9245f7365c7a8557a65d"
          },
          "sequence": 4294967294
        }, 
        {
          "txid": "a6f073d2dbbef8aed5c734846b0c50ae5d1ec986c57cd2bc4ab2e6127f0dfd54",
          "vout": 0,
          "scriptSig": {
            "asm": "3045022100e549aeb44448bb21319cca215d2d8ad1f998ee44920cdb2e55140983c702ed9c02204653d22af6c9cd6d7342dd6d2c3bb485ce8f5ef3e84d0821a237b1d46f640c6b[ALL] 02cdbaffba3165ae2e0fefecbc1af3e47fcc72fc516309599e0e1d03cff5ea1542",
            "hex": "483045022100e549aeb44448bb21319cca215d2d8ad1f998ee44920cdb2e55140983c702ed9c02204653d22af6c9cd6d7342dd6d2c3bb485ce8f5ef3e84d0821a237b1d46f640c6b012102cdbaffba3165ae2e0fefecbc1af3e47fcc72fc516309599e0e1d03cff5ea1542"
          },
          "sequence": 4294967294
        }, 
        {
          "txid": "ab2435757d18581304fc547aae5d12a648382ca8c19b14de4ed75978e89d25ae",
          "vout": 0,
          "scriptSig": {
            "asm": "3045022100c37424e1c5f5ecdc6a94350220bdc44460ee238ab234e31a6c1a76da6bd3a20a02201bc646f6fab4acc3636504ed8aada035822831f49712e7060c79b6cbfc3ae875[ALL] 025c6fe2972712de519e85424e6f12ba78703dc10ae419a7127036d9c4dbb847fb",
            "hex": "483045022100c37424e1c5f5ecdc6a94350220bdc44460ee238ab234e31a6c1a76da6bd3a20a02201bc646f6fab4acc3636504ed8aada035822831f49712e7060c79b6cbfc3ae8750121025c6fe2972712de519e85424e6f12ba78703dc10ae419a7127036d9c4dbb847fb"
          },
          "sequence": 4294967294
        }, 
        {
          "txid": "36be9334fb54e9fe0ea9903ed96819c22b7fad4eed101a39ba5662aee7589b92",
          "vout": 22,
          "scriptSig": {
            "asm": "304402204deb9ee3c5cbc21081fb8d63cf13f983ee979392bb884793bf9606784ba6157b022008a6a0754bad470e31a08a56d22b19aed39aa3e1e70e79871fc32d1c58cd0215[ALL] 033c3de186876b03f5b343497bde0b8acb0806f1c561ea4adc4cb7ee822c7bd34f",
            "hex": "47304402204deb9ee3c5cbc21081fb8d63cf13f983ee979392bb884793bf9606784ba6157b022008a6a0754bad470e31a08a56d22b19aed39aa3e1e70e79871fc32d1c58cd02150121033c3de186876b03f5b343497bde0b8acb0806f1c561ea4adc4cb7ee822c7bd34f"
          },
          "sequence": 4294967294
        }, 
        {
          "txid": "0f6f9bcd254161712c9158ef6e5d53a39a3dcf837a1f13ef1e2015531109185d",
          "vout": 0,
          "scriptSig": {
            "asm": "3045022100f9af87b90791bdbf13eab02b528871977936c28546f6755d710867338c00247702205585cb4bd7686913ef71de03e71b0af1f6206a963ce4cf58b4bdc3963be7cb5c[ALL] 03834f649e5ac83004428dc90aed91b2dd375afe59291709ba003bc0c3d0902b70",
            "hex": "483045022100f9af87b90791bdbf13eab02b528871977936c28546f6755d710867338c00247702205585cb4bd7686913ef71de03e71b0af1f6206a963ce4cf58b4bdc3963be7cb5c012103834f649e5ac83004428dc90aed91b2dd375afe59291709ba003bc0c3d0902b70"
          },
          "sequence": 4294967294
        }
      ],
      "vout": [
        {
          "value": 12.62240000,
          "n": 0,
          "scriptPubKey": {
            "asm": "OP_DUP OP_HASH160 c24bc3e65e3fd7af800c90f3bb77963e2632f5e5 OP_EQUALVERIFY OP_CHECKSIG",
            "hex": "76a914c24bc3e65e3fd7af800c90f3bb77963e2632f5e588ac",
            "reqSigs": 1,
            "type": "pubkeyhash",
            "addresses": [
              "LcwJ7guZKGMpSjFh15n3V2imH4ByYtMJ29"
            ]
          }
        }, 
        {
          "value": 0.00793226,
          "n": 1,
          "scriptPubKey": {
            "asm": "OP_DUP OP_HASH160 2e03d34bd15b07c39582c4a1566732155fc2071e OP_EQUALVERIFY OP_CHECKSIG",
            "hex": "76a9142e03d34bd15b07c39582c4a1566732155fc2071e88ac",
            "reqSigs": 1,
            "type": "pubkeyhash",
            "addresses": [
              "LPRFvq2uvoaa7rScUXACHFgrHnyTHA9JGv"
            ]
          }
        }, 
        {
          "value": 14.59900000,
          "n": 2,
          "scriptPubKey": {
            "asm": "OP_HASH160 4d70e8d9c669e1536713533a655baed09d828d23 OP_EQUAL",
            "hex": "a9144d70e8d9c669e1536713533a655baed09d828d2387",
            "reqSigs": 1,
            "type": "scripthash",
            "addresses": [
              "MExdXJ7Joj8KzZYrip4x1FxkStRmVTqU6Y"
            ]
          }
        }, 
        {
          "value": 2.50860000,
          "n": 3,
          "scriptPubKey": {
            "asm": "OP_DUP OP_HASH160 68c162fdee3de40cf100b3fabd5304653fa2684e OP_EQUALVERIFY OP_CHECKSIG",
            "hex": "76a91468c162fdee3de40cf100b3fabd5304653fa2684e88ac",
            "reqSigs": 1,
            "type": "pubkeyhash",
            "addresses": [
              "LUmrCuVv2CCqeH555GqgsnzfqbjpyLV8MK"
            ]
          }
        }
      ],
      "hex": "020000000dac58307e7bbcce8ffede5c58ee205ba1c241352ca5b7857066fd854049ba3070010000006a47304402201276f73e13c6ac50f75686c0826ea1353baf93c8c1763e76e1bb47fbffdcab49022073767d66bf36845d853147f1566d0b9dcda7e75a06fba3cb58cdc5747a0b417e01210302f80d286c4248d2349dd66848c14873816c7bbbaf56020057fd1124ae866891feffffffcdd5708f987031ad6d0ef99b295156015a436bc619fb7d563ba1c92829b515a3000000006a4730440220705149a008fc498fb65665a47358f3b2ee174674563fc1fcde0c80031d6ccbd402201ec8b803896d1395ca989e649f30a6815c7204748d219c3653a4fe3dfcb161d9012103449ecad37558eb9897e4225efb76f2fa0dbdefe8f23a0ff19e25be78c1ae1b79feffffff6475379a938f6cd7498282065b673d6856633b3d8027d066222feafcb2f21291010000006b483045022100e1705f59b194cd9c06c38604e62faca7cec9347644cf691699d5090c8564e516022029f1cb89d698a9d6eacecc0dd17979f7b2a81ce8ab5c84c81a8a06c2366a8ecc012102fa574dfecde65c9c5c0cc91507f0e1ec15c85e71a4195307161524a9b127bdb1feffffff5a8b29da379adde70078a0cec14e0f8692055056b3af01b300cf76f89d2a1dae000000006b483045022100960f369c4baf057e63d25044ea7288573d5785c3f4d2685623f05c51608c4f200220322c42806f630b677d5dca46dfa8a0d2b9ae5001ca1fbf3d820d65958bde84f201210297e59fbb2698f7eb2bdd268827bdb4c2818ac2e27624c17aa879adbbde062c08feffffff4c84c985cf8c0e75fbb2e5e2826aa85d90f7e862586fc01183c14814481e1ccc010000006a47304402203f42d8566bd1c051678f2be6417209b3b6c0036874d7f8f3119768905e8b84cc022031494b64b5370bde2fd27e5425643d44e3842261e6cc908a9cccb688b63dd8e10121039d6d6f27e9047a67f9d3e4fac19e0ff7eabbecaf709c126b300c5207285ba102fefffffff8cf72917710f99afb262fad10e477e852b15d152892232f12064246ebd7a305000000006b483045022100a7fab4c55ae09e1b51fbf4ac912540815bc36335fc326d45cbcfc1085defa29202200b4d63df1b6a6e4cd90b01d4d1cea3dc59ae968c0c9e3b8fc92f8918abd40d79012103267280d7013fd75bb9eb86a1ac9f4a491d0411a10477f8fce978a1bd0213b149feffffff243988934612d73c9d53a888722af74a9bba4bb74cded15f147935ca3f2ddcde020000006b483045022100e91c3a099f153f393ae26c1fcb7f4b1ef184507ffeb209ecbb67121ea69e9ee002207afca46d3cac3ebdc9e5cb09114be5eaaf86985765d655764628cff54931cc9e0121029ac82e33441edb1143387772bc339d05d47556fdc7589633f28ede84290b7bfcfeffffff40764fca331cd6ca244c7126bb42b7b7865568ae537100702c303aa83bf30131030000006b483045022100abd8abeaf62a87455c1710d9150432b9e9bfa64c3f19ef5887afdeb5beb5d23002202516394e32c46e1df65a0431f2fd500e45dcb998fcdfa91dba78b50fce22cf47012102772f9e389db824003a91bb3ef194f0378e937be7716bb9c6da91fa16e41a77e5feffffff838dc8b1c4f9499221803000c9a6912f0a83b4ef8f641130a71a82ec2afe81a10f0000006a47304402207a0dbc7ff9d58587999ddb6b3e176f90c33cf3e17fb215149072b64c55c056d902202db9d327043cfbb8b1a08bc3e4e0da4929d9879f8648545d866fed4a7abedee8012103810503aada31b4844d122742f7b108fde8bacb60214d9245f7365c7a8557a65dfeffffff54fd0d7f12e6b24abcd27cc586c91e5dae500c6b8434c7d5aef8bedbd273f0a6000000006b483045022100e549aeb44448bb21319cca215d2d8ad1f998ee44920cdb2e55140983c702ed9c02204653d22af6c9cd6d7342dd6d2c3bb485ce8f5ef3e84d0821a237b1d46f640c6b012102cdbaffba3165ae2e0fefecbc1af3e47fcc72fc516309599e0e1d03cff5ea1542feffffffae259de87859d74ede149bc1a82c3848a6125dae7a54fc041358187d753524ab000000006b483045022100c37424e1c5f5ecdc6a94350220bdc44460ee238ab234e31a6c1a76da6bd3a20a02201bc646f6fab4acc3636504ed8aada035822831f49712e7060c79b6cbfc3ae8750121025c6fe2972712de519e85424e6f12ba78703dc10ae419a7127036d9c4dbb847fbfeffffff929b58e7ae6256ba391a10ed4ead7f2bc21968d93e90a90efee954fb3493be36160000006a47304402204deb9ee3c5cbc21081fb8d63cf13f983ee979392bb884793bf9606784ba6157b022008a6a0754bad470e31a08a56d22b19aed39aa3e1e70e79871fc32d1c58cd02150121033c3de186876b03f5b343497bde0b8acb0806f1c561ea4adc4cb7ee822c7bd34ffeffffff5d1809115315201eef131f7a83cf3d9aa3535d6eef58912c71614125cd9b6f0f000000006b483045022100f9af87b90791bdbf13eab02b528871977936c28546f6755d710867338c00247702205585cb4bd7686913ef71de03e71b0af1f6206a963ce4cf58b4bdc3963be7cb5c012103834f649e5ac83004428dc90aed91b2dd375afe59291709ba003bc0c3d0902b70feffffff0400413c4b000000001976a914c24bc3e65e3fd7af800c90f3bb77963e2632f5e588ac8a1a0c00000000001976a9142e03d34bd15b07c39582c4a1566732155fc2071e88ac604e04570000000017a9144d70e8d9c669e1536713533a655baed09d828d2387e0d1f30e000000001976a91468c162fdee3de40cf100b3fabd5304653fa2684e88aca8b71400"
    }, 
    {
      "txid": "781ffeb47d5a37d5534bd2d19a1cb9d2b217a2a16ef2c97248b18aae94c9c511",
      "hash": "781ffeb47d5a37d5534bd2d19a1cb9d2b217a2a16ef2c97248b18aae94c9c511",
      "version": 1,
      "size": 226,
      "vsize": 226,
      "locktime": 0,
      "vin": [
        {
          "txid": "d52964ae5851ecfd0f67585e6b5e53b36b712f29bae4a3f17d5a1ec37231cea2",
          "vout": 1,
          "scriptSig": {
            "asm": "3045022100a4c5f497c1af341a249807d90cb0e64f7beec455c4a7ef05e9c26df256fa63100220717c1854de4658300bba5b5dddf1d1f5a3dc2203cc3f647dc098fd8bbbda0144[ALL] 027b5787d564daf2a06bc66ce2301c04c269724e65e39881fe2ed1625c59591f0f",
            "hex": "483045022100a4c5f497c1af341a249807d90cb0e64f7beec455c4a7ef05e9c26df256fa63100220717c1854de4658300bba5b5dddf1d1f5a3dc2203cc3f647dc098fd8bbbda01440121027b5787d564daf2a06bc66ce2301c04c269724e65e39881fe2ed1625c59591f0f"
          },
          "sequence": 4294967295
        }
      ],
      "vout": [
        {
          "value": 1.72712972,
          "n": 0,
          "scriptPubKey": {
            "asm": "OP_DUP OP_HASH160 b1137d8ce1d9d365a2a53f7b7feacd37f88da9cb OP_EQUALVERIFY OP_CHECKSIG",
            "hex": "76a914b1137d8ce1d9d365a2a53f7b7feacd37f88da9cb88ac",
            "reqSigs": 1,
            "type": "pubkeyhash",
            "addresses": [
              "LbNFDPLMYZef2JSFCcn9bueTtpBzMDz3UU"
            ]
          }
        }, 
        {
          "value": 0.12436608,
          "n": 1,
          "scriptPubKey": {
            "asm": "OP_DUP OP_HASH160 7d4e74493201d0233b1c4daa9134bc2393da295c OP_EQUALVERIFY OP_CHECKSIG",
            "hex": "76a9147d4e74493201d0233b1c4daa9134bc2393da295c88ac",
            "reqSigs": 1,
            "type": "pubkeyhash",
            "addresses": [
              "LWeWiHfSQaPaPVt6mFFEGBb9XreQadjPk8"
            ]
          }
        }
      ],
      "hex": "0100000001a2ce3172c31e5a7df1a3e4ba292f716bb3535e6b5e58670ffdec5158ae6429d5010000006b483045022100a4c5f497c1af341a249807d90cb0e64f7beec455c4a7ef05e9c26df256fa63100220717c1854de4658300bba5b5dddf1d1f5a3dc2203cc3f647dc098fd8bbbda01440121027b5787d564daf2a06bc66ce2301c04c269724e65e39881fe2ed1625c59591f0fffffffff020c644b0a000000001976a914b1137d8ce1d9d365a2a53f7b7feacd37f88da9cb88ac80c4bd00000000001976a9147d4e74493201d0233b1c4daa9134bc2393da295c88ac00000000"
    }
  ],
  "time": 1517041737,
  "mediantime": 1517041089,
  "nonce": 3560576075,
  "bits": "1a047f14",
  "difficulty": 3731199.183374282,
  "chainwork": "0000000000000000000000000000000000000000000000327c3d6c9b3042ce5e",
  "previousblockhash": "19619ad945a5ac51f2091b6b856300c068a6f8e4b48f0fd7e5601a74e1669cd9",
  "nextblockhash": "7db615ecb0e9b4cc081f487667575c6df506473818517e31d8071edfcfe95a77"
}
