{
  "hash": "ce7c6e7e81bf89789b9a42f26688ada7ee1fc37ce46bef0e6fc03dd0291d0e2f",
  "confirmations": 1002,
  "strippedsize": 253,
  "size": 253,
  "weight": 1012,
  "height": 1359992,
  "version": 536870912,
  "versionHex": "20000000",
  "merkleroot": "19bd5b7573cc482c94dcec26be4457e59a0875d8438f9db6b3648b2872111699",
  "tx": [
    {
      "txid": "19bd5b7573cc482c94dcec26be4457e59a0875d8438f9db6b3648b2872111699",
      "hash": "19bd5b7573cc482c94dcec26be4457e59a0875d8438f9db6b3648b2872111699",
      "version": 1,
      "size": 172,
      "vsize": 172,
      "locktime": 0,
      "vin": [
        {
          "coinbase": "0378c0141a4d696e656420627920416e74506f6f6c20626a331f205a710ee9fabe6d6d599d2b5b7ca3a32db743a71be51d7bba01a641ad3a40ab33f1b32a92d63b69110400000000000000b3160000000000001c000000",
          "sequence": 4294967295
        }
      ],
      "vout": [
        {
          "value": 25.00000000,
          "n": 0,
          "scriptPubKey": {
            "asm": "OP_DUP OP_HASH160 0ff3ccc5e8be88afe24b5d634e5852d474dbdff1 OP_EQUALVERIFY OP_CHECKSIG",
            "hex": "76a9140ff3ccc5e8be88afe24b5d634e5852d474dbdff188ac",
            "reqSigs": 1,
            "type": "pubkeyhash",
            "addresses": [
              "LLgJTbzZMsRTCUF1NtvvL9SR1a4pVieW89"
            ]
          }
        }
      ],
      "hex": "01000000010000000000000000000000000000000000000000000000000000000000000000ffffffff570378c0141a4d696e656420627920416e74506f6f6c20626a331f205a710ee9fabe6d6d599d2b5b7ca3a32db743a71be51d7bba01a641ad3a40ab33f1b32a92d63b69110400000000000000b3160000000000001c000000ffffffff0100f90295000000001976a9140ff3ccc5e8be88afe24b5d634e5852d474dbdff188ac00000000"
    }
  ],
  "time": 1517358825,
  "mediantime": 1517358312,
  "nonce": 4057073493,
  "bits": "1a042eae",
  "difficulty": 4011378.762614286,
  "chainwork": "00000000000000000000000000000000000000000000003485b878bcdcda2b72",
  "previousblockhash": "fc535c5a3e47b91b8e8e9f4588523a8536cf44c4ab51c9ff27729819ba6cb277",
  "nextblockhash": "2f1dab944b51da68b4388607801c0cf71ff93f2a998307d6babbb137bdfa3315"
}
