{
  "hash": "ce9cfc2943a0f84cebecfcb1a9655b96251c2d37d5082ae743c21e2e66cdf974",
  "confirmations": 1617,
  "strippedsize": 234,
  "size": 234,
  "weight": 936,
  "height": 1359377,
  "version": 536870912,
  "versionHex": "20000000",
  "merkleroot": "c1db6384e77bd98224fed33809fcc371e7bfcd0208cc1fa5e813b02e0f550795",
  "tx": [
    {
      "txid": "c1db6384e77bd98224fed33809fcc371e7bfcd0208cc1fa5e813b02e0f550795",
      "hash": "c1db6384e77bd98224fed33809fcc371e7bfcd0208cc1fa5e813b02e0f550795",
      "version": 1,
      "size": 153,
      "vsize": 153,
      "locktime": 0,
      "vin": [
        {
          "coinbase": "0311be14045a6fc13b2cfabe6d6d80f2d4021640b89f32c84b3a152014754aea17b80103a3a0eb03c57f80661c014000000000000000042f4c502f085600675402000000",
          "sequence": 4294967295
        }
      ],
      "vout": [
        {
          "value": 25.00000000,
          "n": 0,
          "scriptPubKey": {
            "asm": "OP_DUP OP_HASH160 57757ed2ecf2052ff3126c397aca7defb9ca2cec OP_EQUALVERIFY OP_CHECKSIG",
            "hex": "76a91457757ed2ecf2052ff3126c397aca7defb9ca2cec88ac",
            "reqSigs": 1,
            "type": "pubkeyhash",
            "addresses": [
              "LTCPodGk5FwcJaRzH9yKnwicxzFUbxp6tN"
            ]
          }
        }
      ],
      "hex": "01000000010000000000000000000000000000000000000000000000000000000000000000ffffffff440311be14045a6fc13b2cfabe6d6d80f2d4021640b89f32c84b3a152014754aea17b80103a3a0eb03c57f80661c014000000000000000042f4c502f085600675402000000ffffffff0100f90295000000001976a91457757ed2ecf2052ff3126c397aca7defb9ca2cec88ac00000000"
    }
  ],
  "time": 1517273403,
  "mediantime": 1517272863,
  "nonce": 141050011,
  "bits": "1a042eae",
  "difficulty": 4011378.762614286,
  "chainwork": "000000000000000000000000000000000000000000000033f2ac7efde11cf424",
  "previousblockhash": "d84b264cff9fab651f632e0082cb567d8cf6b839abaf8cc1e11ae2f2ef01de40",
  "nextblockhash": "ea2b21e4c7c53c6521e608609520c10c6004d42c617f044b75cacd7678f947bf"
}
