{
  "hash": "ceb1e1fb6a5809190661f1fbf3eec72e8a7ee64d5c90003992b6630d3aa626b8",
  "confirmations": 3178,
  "strippedsize": 732,
  "size": 768,
  "weight": 2964,
  "height": 1357817,
  "version": 536870912,
  "versionHex": "20000000",
  "merkleroot": "5345764446ec15994a4d5128c38e20cd3cb112cf8c25dbf9ba775f9ca5fc3126",
  "tx": [
    {
      "txid": "58244ab4b25bb42c89cf00abf3977a08834a8f19c2fe853271b11386fe2640dc",
      "hash": "11187fd74275c443b8c9728aaa9943dbe4f746fad86276971e58600dc7325232",
      "version": 1,
      "size": 236,
      "vsize": 209,
      "locktime": 0,
      "vin": [
        {
          "coinbase": "03f9b714045a6c61912cfabe6d6d1c048251403935bd0b9bc6269821417217cbc699a72249b53f6a3bef1dadfca84000000000000000042f4c502f0857004196c0020000",
          "sequence": 4294967295
        }
      ],
      "vout": [
        {
          "value": 25.00045200,
          "n": 0,
          "scriptPubKey": {
            "asm": "OP_DUP OP_HASH160 57757ed2ecf2052ff3126c397aca7defb9ca2cec OP_EQUALVERIFY OP_CHECKSIG",
            "hex": "76a91457757ed2ecf2052ff3126c397aca7defb9ca2cec88ac",
            "reqSigs": 1,
            "type": "pubkeyhash",
            "addresses": [
              "LTCPodGk5FwcJaRzH9yKnwicxzFUbxp6tN"
            ]
          }
        }, 
        {
          "value": 0.00000000,
          "n": 1,
          "scriptPubKey": {
            "asm": "OP_RETURN aa21a9edacb923c02e206b49e22f3396cc8d92fd3ce34e83893b0a4356b69b7477289ef3",
            "hex": "6a24aa21a9edacb923c02e206b49e22f3396cc8d92fd3ce34e83893b0a4356b69b7477289ef3",
            "type": "nulldata"
          }
        }
      ],
      "hex": "010000000001010000000000000000000000000000000000000000000000000000000000000000ffffffff4403f9b714045a6c61912cfabe6d6d1c048251403935bd0b9bc6269821417217cbc699a72249b53f6a3bef1dadfca84000000000000000042f4c502f0857004196c0020000ffffffff0290a90395000000001976a91457757ed2ecf2052ff3126c397aca7defb9ca2cec88ac0000000000000000266a24aa21a9edacb923c02e206b49e22f3396cc8d92fd3ce34e83893b0a4356b69b7477289ef30120000000000000000000000000000000000000000000000000000000000000000000000000"
    }, 
    {
      "txid": "56238620f45ecf7c78f9adbe38988b16868cd4230e96353d38146e05687f279b",
      "hash": "56238620f45ecf7c78f9adbe38988b16868cd4230e96353d38146e05687f279b",
      "version": 1,
      "size": 225,
      "vsize": 225,
      "locktime": 0,
      "vin": [
        {
          "txid": "bac4b05e9e28cda6d4fe0263b91e5054a65a06b4330207d8c0598823778741cf",
          "vout": 0,
          "scriptSig": {
            "asm": "30440220017e09c08e4bdd7c517a1028603c9767a065d91d9ac399a1e8883a843bf02a8f02203a78f082628512bad1fa0b14dc266cff286a90b7a10794bcf12657168d879dc3[ALL] 0202ebe7826b5992aaecb107fc4b3b6c8ff0f5b2c1e27fee93da3683a80de67922",
            "hex": "4730440220017e09c08e4bdd7c517a1028603c9767a065d91d9ac399a1e8883a843bf02a8f02203a78f082628512bad1fa0b14dc266cff286a90b7a10794bcf12657168d879dc301210202ebe7826b5992aaecb107fc4b3b6c8ff0f5b2c1e27fee93da3683a80de67922"
          },
          "sequence": 4294967295
        }
      ],
      "vout": [
        {
          "value": 7.89221386,
          "n": 0,
          "scriptPubKey": {
            "asm": "OP_DUP OP_HASH160 b5eb6e4fa2f45053819a253c2ae67b327a6f53d7 OP_EQUALVERIFY OP_CHECKSIG",
            "hex": "76a914b5eb6e4fa2f45053819a253c2ae67b327a6f53d788ac",
            "reqSigs": 1,
            "type": "pubkeyhash",
            "addresses": [
              "LborbxeQPCdua6fzUUmp3CxBvEL3gtG9w1"
            ]
          }
        }, 
        {
          "value": 3.08354591,
          "n": 1,
          "scriptPubKey": {
            "asm": "OP_DUP OP_HASH160 9f2336c1f3ba5bf0cb54b3586ffcdf833564bead OP_EQUALVERIFY OP_CHECKSIG",
            "hex": "76a9149f2336c1f3ba5bf0cb54b3586ffcdf833564bead88ac",
            "reqSigs": 1,
            "type": "pubkeyhash",
            "addresses": [
              "LZjPtRE73ioAKGX9QcZEpcqoNvaJVnEEuh"
            ]
          }
        }
      ],
      "hex": "0100000001cf418777238859c0d8070233b4065aa654501eb96302fed4a6cd289e5eb0c4ba000000006a4730440220017e09c08e4bdd7c517a1028603c9767a065d91d9ac399a1e8883a843bf02a8f02203a78f082628512bad1fa0b14dc266cff286a90b7a10794bcf12657168d879dc301210202ebe7826b5992aaecb107fc4b3b6c8ff0f5b2c1e27fee93da3683a80de67922ffffffff020a900a2f000000001976a914b5eb6e4fa2f45053819a253c2ae67b327a6f53d788ac1f1e6112000000001976a9149f2336c1f3ba5bf0cb54b3586ffcdf833564bead88ac00000000"
    }, 
    {
      "txid": "13751933803496c39a55547c2423270e908c7da528df9c86be7c045e82d2e9ae",
      "hash": "13751933803496c39a55547c2423270e908c7da528df9c86be7c045e82d2e9ae",
      "version": 2,
      "size": 226,
      "vsize": 226,
      "locktime": 1357815,
      "vin": [
        {
          "txid": "b531d3f774be830b22e77202bbdb98bdb9a4630c058de9fa2bf6ab99924545df",
          "vout": 0,
          "scriptSig": {
            "asm": "30450221008f99207d45c6cf7139f2a4cfa16208ccdc6b7d41e321849fadd2090050cccdde02200839bd7e8f53e325f63e716b2057dc8a409fb292b13d0354e06968c38d1805b9[ALL] 0204943d41953617f3020aeb0792c8d61dd4bbedb1cf33ca3b3a615917c97478cf",
            "hex": "4830450221008f99207d45c6cf7139f2a4cfa16208ccdc6b7d41e321849fadd2090050cccdde02200839bd7e8f53e325f63e716b2057dc8a409fb292b13d0354e06968c38d1805b901210204943d41953617f3020aeb0792c8d61dd4bbedb1cf33ca3b3a615917c97478cf"
          },
          "sequence": 4294967294
        }
      ],
      "vout": [
        {
          "value": 3.39270110,
          "n": 0,
          "scriptPubKey": {
            "asm": "OP_DUP OP_HASH160 387e3ad6653bcedb8f88b371233b2df00e69d531 OP_EQUALVERIFY OP_CHECKSIG",
            "hex": "76a914387e3ad6653bcedb8f88b371233b2df00e69d53188ac",
            "reqSigs": 1,
            "type": "pubkeyhash",
            "addresses": [
              "LQNfKZKphXuonSp2R3Sno5Ni1qKd5jEG6w"
            ]
          }
        }, 
        {
          "value": 5.36879583,
          "n": 1,
          "scriptPubKey": {
            "asm": "OP_DUP OP_HASH160 c363477621febc0a7a0add2971b3e233234427dd OP_EQUALVERIFY OP_CHECKSIG",
            "hex": "76a914c363477621febc0a7a0add2971b3e233234427dd88ac",
            "reqSigs": 1,
            "type": "pubkeyhash",
            "addresses": [
              "Ld34xezudCG8jCbMPTbNJMyuPZ3uAta6cP"
            ]
          }
        }
      ],
      "hex": "0200000001df45459299abf62bfae98d050c63a4b9bd98dbbb0272e7220b83be74f7d331b5000000006b4830450221008f99207d45c6cf7139f2a4cfa16208ccdc6b7d41e321849fadd2090050cccdde02200839bd7e8f53e325f63e716b2057dc8a409fb292b13d0354e06968c38d1805b901210204943d41953617f3020aeb0792c8d61dd4bbedb1cf33ca3b3a615917c97478cffeffffff02ded93814000000001976a914387e3ad6653bcedb8f88b371233b2df00e69d53188acdf210020000000001976a914c363477621febc0a7a0add2971b3e233234427dd88acf7b71400"
    }
  ],
  "time": 1517052305,
  "mediantime": 1517051795,
  "nonce": 71787441,
  "bits": "1a047f14",
  "difficulty": 3731199.183374282,
  "chainwork": "0000000000000000000000000000000000000000000000328dcf3eec7f23da64",
  "previousblockhash": "9f8aad297e2244af429d0bc480fee696f483226962c61b500e31e7b18b3d7844",
  "nextblockhash": "f085dbd383f216eb40ece55e2e0531677dbc2e0cfc3e8ae3abf5379b49821504"
}
