{
  "hash": "ced5e78a833885f9cc8219f93610569a250a2fb12218e02dabb5748a6ae1a977",
  "confirmations": 2580,
  "strippedsize": 4628,
  "size": 4773,
  "weight": 18657,
  "height": 1358415,
  "version": 536870912,
  "versionHex": "20000000",
  "merkleroot": "f47ce801c518ba61d9d4b4812c4c00bd298dbe31a58560c00d3d4ae53e3dc66d",
  "tx": [
    {
      "txid": "c0479787271cc918ec2fb578afae4f70222921fbf9af591cd8a6cd9a4b2a9598",
      "hash": "7db072307373dcbec185a3f447a22ed819cdcb5dcf0da4d58edc37a6b5d0e808",
      "version": 1,
      "size": 277,
      "vsize": 250,
      "locktime": 953894987,
      "vin": [
        {
          "coinbase": "034fba142cfabe6d6dfb5af55c0529dd01c7cd2801f5b306cd999a25a635ccca85b77fb71832b18df908000000f09f909f0e4d696e6564206279206d61727479000000000000000000000000000000000000000000000000000000000000000000000000",
          "sequence": 16
        }
      ],
      "vout": [
        {
          "value": 25.01162959,
          "n": 0,
          "scriptPubKey": {
            "asm": "OP_DUP OP_HASH160 aa3750aa18b8a0f3f0590731e1fab934856680cf OP_EQUALVERIFY OP_CHECKSIG",
            "hex": "76a914aa3750aa18b8a0f3f0590731e1fab934856680cf88ac",
            "reqSigs": 1,
            "type": "pubkeyhash",
            "addresses": [
              "LajyQBeZaBA1NkZDeY8YT5RYYVRkXMvb2T"
            ]
          }
        }, 
        {
          "value": 0.00000000,
          "n": 1,
          "scriptPubKey": {
            "asm": "OP_RETURN aa21a9ed55ba5a82847fec9b01df241f650093434b1319504cfff5be3c41fa4dedaa0bfd 0000000000000000",
            "hex": "6a24aa21a9ed55ba5a82847fec9b01df241f650093434b1319504cfff5be3c41fa4dedaa0bfd080000000000000000",
            "type": "nulldata"
          }
        }
      ],
      "hex": "010000000001010000000000000000000000000000000000000000000000000000000000000000ffffffff64034fba142cfabe6d6dfb5af55c0529dd01c7cd2801f5b306cd999a25a635ccca85b77fb71832b18df908000000f09f909f0e4d696e6564206279206d617274790000000000000000000000000000000000000000000000000000000000000000000000001000000002cfb71495000000001976a914aa3750aa18b8a0f3f0590731e1fab934856680cf88ac00000000000000002f6a24aa21a9ed55ba5a82847fec9b01df241f650093434b1319504cfff5be3c41fa4dedaa0bfd080000000000000000012000000000000000000000000000000000000000000000000000000000000000004b48db38"
    }, 
    {
      "txid": "d7996c4683550bde26eb5fd0f42ad7cadb72dbdba0935cadf47d7d812496e601",
      "hash": "d7996c4683550bde26eb5fd0f42ad7cadb72dbdba0935cadf47d7d812496e601",
      "version": 1,
      "size": 226,
      "vsize": 226,
      "locktime": 0,
      "vin": [
        {
          "txid": "4ef36810593f93cc019b189a90056137857a849cd59cffec2591d897d6d18028",
          "vout": 10,
          "scriptSig": {
            "asm": "30450221009f55d8c248cb8506a70c972b75af62676ef89eed5f6386d30eaa481eee0c4f98022060929b31cb7630524672a60c3e0a72f2cb5dee6e42b469eba2deb4c3a4ce8d2e[ALL] 02ccea0daa6799a8eb1e8616b6d1f4f1bd642e9e8817cf35c5717c844e110935b4",
            "hex": "4830450221009f55d8c248cb8506a70c972b75af62676ef89eed5f6386d30eaa481eee0c4f98022060929b31cb7630524672a60c3e0a72f2cb5dee6e42b469eba2deb4c3a4ce8d2e012102ccea0daa6799a8eb1e8616b6d1f4f1bd642e9e8817cf35c5717c844e110935b4"
          },
          "sequence": 4294967295
        }
      ],
      "vout": [
        {
          "value": 0.12000000,
          "n": 0,
          "scriptPubKey": {
            "asm": "OP_DUP OP_HASH160 0429c0eb784e8f99e7b2b2100109c86a37d2a0bb OP_EQUALVERIFY OP_CHECKSIG",
            "hex": "76a9140429c0eb784e8f99e7b2b2100109c86a37d2a0bb88ac",
            "reqSigs": 1,
            "type": "pubkeyhash",
            "addresses": [
              "LKbxz54YRjnAUwzS8KL89PLWUZ7eYmds2b"
            ]
          }
        }, 
        {
          "value": 0.01014024,
          "n": 1,
          "scriptPubKey": {
            "asm": "OP_DUP OP_HASH160 5645a90567dc2fd9ecca3e77829a886d33261348 OP_EQUALVERIFY OP_CHECKSIG",
            "hex": "76a9145645a90567dc2fd9ecca3e77829a886d3326134888ac",
            "reqSigs": 1,
            "type": "pubkeyhash",
            "addresses": [
              "LT67pnhLQKdD8u8tVgoe3FsW9LFHMpiRnq"
            ]
          }
        }
      ],
      "hex": "01000000012880d1d697d89125ecff9cd59c847a85376105909a189b01cc933f591068f34e0a0000006b4830450221009f55d8c248cb8506a70c972b75af62676ef89eed5f6386d30eaa481eee0c4f98022060929b31cb7630524672a60c3e0a72f2cb5dee6e42b469eba2deb4c3a4ce8d2e012102ccea0daa6799a8eb1e8616b6d1f4f1bd642e9e8817cf35c5717c844e110935b4ffffffff02001bb700000000001976a9140429c0eb784e8f99e7b2b2100109c86a37d2a0bb88ac08790f00000000001976a9145645a90567dc2fd9ecca3e77829a886d3326134888ac00000000"
    }, 
    {
      "txid": "d7ed24c4a3b70d7f5ee148f2c24d71aa1f200e7a91d0a2e9d82e4fe355f37015",
      "hash": "d7ed24c4a3b70d7f5ee148f2c24d71aa1f200e7a91d0a2e9d82e4fe355f37015",
      "version": 1,
      "size": 226,
      "vsize": 226,
      "locktime": 0,
      "vin": [
        {
          "txid": "d45d47a3dea33b6108c887106052c55e7eb9d6897292e2edfa7e5e3a8aa32c63",
          "vout": 1003,
          "scriptSig": {
            "asm": "30450221009ad2d96ef9ce0256715cae6489fd6cab94cc887288ea4a1e161697c40c4be278022033fc48948a441a67b70b946f3950aa1b9ddcee6a9bc6f16e5bab024cf6edacef[ALL] 0324c8e37adfe368d4d85893f1f18dc5e43dec96e7866437c0da689c74983f1e20",
            "hex": "4830450221009ad2d96ef9ce0256715cae6489fd6cab94cc887288ea4a1e161697c40c4be278022033fc48948a441a67b70b946f3950aa1b9ddcee6a9bc6f16e5bab024cf6edacef01210324c8e37adfe368d4d85893f1f18dc5e43dec96e7866437c0da689c74983f1e20"
          },
          "sequence": 4294967295
        }
      ],
      "vout": [
        {
          "value": 0.01092590,
          "n": 0,
          "scriptPubKey": {
            "asm": "OP_DUP OP_HASH160 a7d2e2bb83f19164b0bdcf9b3b772759439089da OP_EQUALVERIFY OP_CHECKSIG",
            "hex": "76a914a7d2e2bb83f19164b0bdcf9b3b772759439089da88ac",
            "reqSigs": 1,
            "type": "pubkeyhash",
            "addresses": [
              "LaXKjqoMhW9Eh2ZeBjtBe3jHwMLJ2xm7vb"
            ]
          }
        }, 
        {
          "value": 0.44000000,
          "n": 1,
          "scriptPubKey": {
            "asm": "OP_DUP OP_HASH160 6399fd61f00851fcb7a6467cf16d86b35bc0bb63 OP_EQUALVERIFY OP_CHECKSIG",
            "hex": "76a9146399fd61f00851fcb7a6467cf16d86b35bc0bb6388ac",
            "reqSigs": 1,
            "type": "pubkeyhash",
            "addresses": [
              "LUJbdbqQ5LgXZh5bFbZF5YZJskRNKARUY9"
            ]
          }
        }
      ],
      "hex": "0100000001632ca38a3a5e7efaede2927289d6b97e5ec552601087c808613ba3dea3475dd4eb0300006b4830450221009ad2d96ef9ce0256715cae6489fd6cab94cc887288ea4a1e161697c40c4be278022033fc48948a441a67b70b946f3950aa1b9ddcee6a9bc6f16e5bab024cf6edacef01210324c8e37adfe368d4d85893f1f18dc5e43dec96e7866437c0da689c74983f1e20ffffffff02eeab1000000000001976a914a7d2e2bb83f19164b0bdcf9b3b772759439089da88ac00639f02000000001976a9146399fd61f00851fcb7a6467cf16d86b35bc0bb6388ac00000000"
    }, 
    {
      "txid": "23cc7b04042af2aa8cd107826089f0ef43c3b98dddc6a41947e09d6cde122f90",
      "hash": "4b8b13c1a0eacaa1b4cbc642c590845c2b501772db4a22e5c0bfe48ca7685f02",
      "version": 1,
      "size": 217,
      "vsize": 136,
      "locktime": 0,
      "vin": [
        {
          "txid": "5c2c0e3553127260ccf9ad2166f27404b75311a1d3e41aa471888bbd5f3c7bcf",
          "vout": 0,
          "scriptSig": {
            "asm": "0014b26f812a484412170df055b091121cc953e07741",
            "hex": "160014b26f812a484412170df055b091121cc953e07741"
          },
          "txinwitness": [
            "304402201e61786054d3e315c1e081d08accdbf3ae31518a8bab6e58412285aafaebe43702200acf3cb8fc7f98c7e270ad17e7c31328f595f0d3859facc5a3bf86e12941e34501", 
            "03250dc24ab3b33e9286419005af941c8a81278e2d3a1be4241c82cb268d9c1783"
          ],
          "sequence": 4294967295
        }
      ],
      "vout": [
        {
          "value": 1.26566296,
          "n": 0,
          "scriptPubKey": {
            "asm": "OP_DUP OP_HASH160 c19d7930c108d69d161444f83ba70c0eeb124c73 OP_EQUALVERIFY OP_CHECKSIG",
            "hex": "76a914c19d7930c108d69d161444f83ba70c0eeb124c7388ac",
            "reqSigs": 1,
            "type": "pubkeyhash",
            "addresses": [
              "LcshKgPb4eMCC6BFjVWQ2wx6mApFnarNdv"
            ]
          }
        }
      ],
      "hex": "01000000000101cf7b3c5fbd8b8871a41ae4d3a11153b70474f26621adf9cc60721253350e2c5c0000000017160014b26f812a484412170df055b091121cc953e07741ffffffff01983f8b07000000001976a914c19d7930c108d69d161444f83ba70c0eeb124c7388ac0247304402201e61786054d3e315c1e081d08accdbf3ae31518a8bab6e58412285aafaebe43702200acf3cb8fc7f98c7e270ad17e7c31328f595f0d3859facc5a3bf86e12941e345012103250dc24ab3b33e9286419005af941c8a81278e2d3a1be4241c82cb268d9c178300000000"
    }, 
    {
      "txid": "93e9e3b4be3fdc272efd1b8093813bb0898071bdcd6a1e7ad7e3cf62ea6ea229",
      "hash": "93e9e3b4be3fdc272efd1b8093813bb0898071bdcd6a1e7ad7e3cf62ea6ea229",
      "version": 1,
      "size": 225,
      "vsize": 225,
      "locktime": 0,
      "vin": [
        {
          "txid": "b3704db452c02cfe001cc7a3df1c9129c7b8cfddb9b94b0ba934aed86f38960f",
          "vout": 1,
          "scriptSig": {
            "asm": "3044022046852474c228d8a46cec0bae66b141ff4f33ae4176017e516d6af3762457f37b0220446f6ce7f66ea8be4682c8ba31fc1b9082c4a43c93140748109e36a38489465d[ALL] 02328c97daa56e00afc582de68db23886d0b7bcf7d9883867f170d81a79e020289",
            "hex": "473044022046852474c228d8a46cec0bae66b141ff4f33ae4176017e516d6af3762457f37b0220446f6ce7f66ea8be4682c8ba31fc1b9082c4a43c93140748109e36a38489465d012102328c97daa56e00afc582de68db23886d0b7bcf7d9883867f170d81a79e020289"
          },
          "sequence": 4294967295
        }
      ],
      "vout": [
        {
          "value": 0.20000000,
          "n": 0,
          "scriptPubKey": {
            "asm": "OP_DUP OP_HASH160 9f2b05d3bc5d8d5f0e8fa432f2a905b820f31fd0 OP_EQUALVERIFY OP_CHECKSIG",
            "hex": "76a9149f2b05d3bc5d8d5f0e8fa432f2a905b820f31fd088ac",
            "reqSigs": 1,
            "type": "pubkeyhash",
            "addresses": [
              "LZjZEzFmT7GFqY2baHLh6vWBdtQp9GMm8F"
            ]
          }
        }, 
        {
          "value": 164.21466193,
          "n": 1,
          "scriptPubKey": {
            "asm": "OP_DUP OP_HASH160 17140c4cba0cac6565ba65010e6a71eb9aed028e OP_EQUALVERIFY OP_CHECKSIG",
            "hex": "76a91417140c4cba0cac6565ba65010e6a71eb9aed028e88ac",
            "reqSigs": 1,
            "type": "pubkeyhash",
            "addresses": [
              "LMKypb3TBkeJetDAKx5LCzDfPk2g9BVo5u"
            ]
          }
        }
      ],
      "hex": "01000000010f96386fd8ae34a90b4bb9b9ddcfb8c729911cdfa3c71c00fe2cc052b44d70b3010000006a473044022046852474c228d8a46cec0bae66b141ff4f33ae4176017e516d6af3762457f37b0220446f6ce7f66ea8be4682c8ba31fc1b9082c4a43c93140748109e36a38489465d012102328c97daa56e00afc582de68db23886d0b7bcf7d9883867f170d81a79e020289ffffffff02002d3101000000001976a9149f2b05d3bc5d8d5f0e8fa432f2a905b820f31fd088ac51b0cbd2030000001976a91417140c4cba0cac6565ba65010e6a71eb9aed028e88ac00000000"
    }, 
    {
      "txid": "df49298a4bbddca3bc2d3a52ef56fb66d44ea5a5c7e16addd3ee146eb00a08dc",
      "hash": "df49298a4bbddca3bc2d3a52ef56fb66d44ea5a5c7e16addd3ee146eb00a08dc",
      "version": 1,
      "size": 225,
      "vsize": 225,
      "locktime": 0,
      "vin": [
        {
          "txid": "9b19fed6e6815be3423cebab66771d339734af4ba580df958cbc3358a49d6db0",
          "vout": 1,
          "scriptSig": {
            "asm": "304402201e0b8b9413a0435dc53a528638c03737a29e0b930416e3dcbbe68e084a7dd1a9022065a67170ed4d4412f44a295abaf49f8ddeb9c83517d6e0c5919bfa2d7c3f08e2[ALL] 029abb9772dbb5b3a6c48e0dacf37cc1d929b98bdaaa585adfebb45e385716fc8d",
            "hex": "47304402201e0b8b9413a0435dc53a528638c03737a29e0b930416e3dcbbe68e084a7dd1a9022065a67170ed4d4412f44a295abaf49f8ddeb9c83517d6e0c5919bfa2d7c3f08e20121029abb9772dbb5b3a6c48e0dacf37cc1d929b98bdaaa585adfebb45e385716fc8d"
          },
          "sequence": 4294967295
        }
      ],
      "vout": [
        {
          "value": 2.94300000,
          "n": 0,
          "scriptPubKey": {
            "asm": "OP_DUP OP_HASH160 5481f42f686eb0d8d48226ec744e539784a9c126 OP_EQUALVERIFY OP_CHECKSIG",
            "hex": "76a9145481f42f686eb0d8d48226ec744e539784a9c12688ac",
            "reqSigs": 1,
            "type": "pubkeyhash",
            "addresses": [
              "LSvnhgJZJo6TdZ2YS3njVMMvJEXzShqg2p"
            ]
          }
        }, 
        {
          "value": 4.00002182,
          "n": 1,
          "scriptPubKey": {
            "asm": "OP_DUP OP_HASH160 109e0c0d8c10e9f149b6a7940a23362876637777 OP_EQUALVERIFY OP_CHECKSIG",
            "hex": "76a914109e0c0d8c10e9f149b6a7940a2336287663777788ac",
            "reqSigs": 1,
            "type": "pubkeyhash",
            "addresses": [
              "LLjpQawjXWkrJkUJ3fjgyVY9JPpcrsPTu5"
            ]
          }
        }
      ],
      "hex": "0100000001b06d9da45833bc8c95df80a54baf3497331d7766abeb3c42e35b81e6d6fe199b010000006a47304402201e0b8b9413a0435dc53a528638c03737a29e0b930416e3dcbbe68e084a7dd1a9022065a67170ed4d4412f44a295abaf49f8ddeb9c83517d6e0c5919bfa2d7c3f08e20121029abb9772dbb5b3a6c48e0dacf37cc1d929b98bdaaa585adfebb45e385716fc8dffffffff0260a98a11000000001976a9145481f42f686eb0d8d48226ec744e539784a9c12688ac868cd717000000001976a914109e0c0d8c10e9f149b6a7940a2336287663777788ac00000000"
    }, 
    {
      "txid": "00b56806f20e36bad82101ec3eaf4f688eb13800b6690deff1907019af666ff2",
      "hash": "00b56806f20e36bad82101ec3eaf4f688eb13800b6690deff1907019af666ff2",
      "version": 1,
      "size": 338,
      "vsize": 338,
      "locktime": 0,
      "vin": [
        {
          "txid": "21ded0c86af2bf0d1de2fd5663d5c7fa9490d1dbb8e0e733c1196ccfff9a3323",
          "vout": 0,
          "scriptSig": {
            "asm": "304402201c68a33d53beebb052477c5f9b7dad3f02b721bb7d8483f07b7e91305ade033a02202533dfcad7c76d4124b3c5377bc58525aa62fd64c423bc0072123e675011759f[ALL] 02c15e868c2c37ae4936d448c5b261657485a2576a0204d48f1f77dd4731d051ca",
            "hex": "47304402201c68a33d53beebb052477c5f9b7dad3f02b721bb7d8483f07b7e91305ade033a02202533dfcad7c76d4124b3c5377bc58525aa62fd64c423bc0072123e675011759f012102c15e868c2c37ae4936d448c5b261657485a2576a0204d48f1f77dd4731d051ca"
          },
          "sequence": 4294967295
        }, 
        {
          "txid": "347d20fef5f0cf68284266e29b927f33cc98dcf5e867b132bf11822ad19798dc",
          "vout": 0,
          "scriptSig": {
            "asm": "304402201f332f4a27abff1fa678a1054ad04bcef50de52f71038f31089105fd598aff6902201695adee2cc20b3d9c9650ff67139f9ce1ec66d2a4b9d48dc8e4709b6edfd30a[ALL] 039685772a11761367e8fbb782c3c175ad71742331b9437b03011b09727bc93fdd",
            "hex": "47304402201f332f4a27abff1fa678a1054ad04bcef50de52f71038f31089105fd598aff6902201695adee2cc20b3d9c9650ff67139f9ce1ec66d2a4b9d48dc8e4709b6edfd30a0121039685772a11761367e8fbb782c3c175ad71742331b9437b03011b09727bc93fdd"
          },
          "sequence": 4294967295
        }
      ],
      "vout": [
        {
          "value": 185.26257488,
          "n": 0,
          "scriptPubKey": {
            "asm": "OP_DUP OP_HASH160 6c2614c7b45ef8dfa8dc83e6739ddbe201d05ab0 OP_EQUALVERIFY OP_CHECKSIG",
            "hex": "76a9146c2614c7b45ef8dfa8dc83e6739ddbe201d05ab088ac",
            "reqSigs": 1,
            "type": "pubkeyhash",
            "addresses": [
              "LV5nrreyVZJVvptA9PZSD4ViegKh7Qa8MA"
            ]
          }
        }
      ],
      "hex": "010000000223339affcf6c19c133e7e0b8dbd19094fac7d56356fde21d0dbff26ac8d0de21000000006a47304402201c68a33d53beebb052477c5f9b7dad3f02b721bb7d8483f07b7e91305ade033a02202533dfcad7c76d4124b3c5377bc58525aa62fd64c423bc0072123e675011759f012102c15e868c2c37ae4936d448c5b261657485a2576a0204d48f1f77dd4731d051caffffffffdc9897d12a8211bf32b167e8f5dc98cc337f929be266422868cff0f5fe207d34000000006a47304402201f332f4a27abff1fa678a1054ad04bcef50de52f71038f31089105fd598aff6902201695adee2cc20b3d9c9650ff67139f9ce1ec66d2a4b9d48dc8e4709b6edfd30a0121039685772a11761367e8fbb782c3c175ad71742331b9437b03011b09727bc93fddffffffff0150414050040000001976a9146c2614c7b45ef8dfa8dc83e6739ddbe201d05ab088ac00000000"
    }, 
    {
      "txid": "42dfca13665bc538c4db9aea1eac773fadef339f60da89e4974145ea22fb6004",
      "hash": "42dfca13665bc538c4db9aea1eac773fadef339f60da89e4974145ea22fb6004",
      "version": 1,
      "size": 225,
      "vsize": 225,
      "locktime": 0,
      "vin": [
        {
          "txid": "021789bc1b2c629a6af8e1d22bb4339721b08dfd77b08495387c37a4fb5b12b6",
          "vout": 0,
          "scriptSig": {
            "asm": "304402201b1ac771f774782b000e50d1ea58615bd07517a0857fa60f64c7a2914bc722a00220392c9b2576818aae4499bae8adb247f5c5775d8e6ff30e9e0439d8d0f68ac62a[ALL] 0384a9a36de00797765bb8cbd04dabb5aa68695b13ab3d76e64a85d79f0c76db7f",
            "hex": "47304402201b1ac771f774782b000e50d1ea58615bd07517a0857fa60f64c7a2914bc722a00220392c9b2576818aae4499bae8adb247f5c5775d8e6ff30e9e0439d8d0f68ac62a01210384a9a36de00797765bb8cbd04dabb5aa68695b13ab3d76e64a85d79f0c76db7f"
          },
          "sequence": 4294967295
        }
      ],
      "vout": [
        {
          "value": 77.57047768,
          "n": 0,
          "scriptPubKey": {
            "asm": "OP_DUP OP_HASH160 8a4fd1372b1dd683fede7d68f2332fae2e9c9f71 OP_EQUALVERIFY OP_CHECKSIG",
            "hex": "76a9148a4fd1372b1dd683fede7d68f2332fae2e9c9f7188ac",
            "reqSigs": 1,
            "type": "pubkeyhash",
            "addresses": [
              "LXqH8V6ZtsHBrURFbVxHR59KA24qcdosN3"
            ]
          }
        }, 
        {
          "value": 11.61090000,
          "n": 1,
          "scriptPubKey": {
            "asm": "OP_DUP OP_HASH160 55a2aef4511db672944b1d0fdc56a72afa1925ba OP_EQUALVERIFY OP_CHECKSIG",
            "hex": "76a91455a2aef4511db672944b1d0fdc56a72afa1925ba88ac",
            "reqSigs": 1,
            "type": "pubkeyhash",
            "addresses": [
              "LT2kaxfGgXyfddu7z8GWJ26A1TxmqCQYRb"
            ]
          }
        }
      ],
      "hex": "0100000001b6125bfba4377c389584b077fd8db0219733b42bd2e1f86a9a622c1bbc891702000000006a47304402201b1ac771f774782b000e50d1ea58615bd07517a0857fa60f64c7a2914bc722a00220392c9b2576818aae4499bae8adb247f5c5775d8e6ff30e9e0439d8d0f68ac62a01210384a9a36de00797765bb8cbd04dabb5aa68695b13ab3d76e64a85d79f0c76db7fffffffff02d8275bce010000001976a9148a4fd1372b1dd683fede7d68f2332fae2e9c9f7188acd0d33445000000001976a91455a2aef4511db672944b1d0fdc56a72afa1925ba88ac00000000"
    }, 
    {
      "txid": "9be0c05434152356ca074aacfe3e1feee7ae7b032be24602109c3e32190c7094",
      "hash": "9be0c05434152356ca074aacfe3e1feee7ae7b032be24602109c3e32190c7094",
      "version": 2,
      "size": 964,
      "vsize": 964,
      "locktime": 0,
      "vin": [
        {
          "txid": "6a0feb252b50789f26a05c4f2c4bc87975f4beba2eee4125e4faa0bbb97b4560",
          "vout": 1736,
          "scriptSig": {
            "asm": "304402203ce79de6ebfa7600d568175a3499280455b6f531add13845994c9f32fa990d19022072bd95cbee7dca43ac359f041f063007bd4d2adaf04eb97e58aedc3c7177a32a[ALL] 028894e39059faa2d2f8cc08800e2170940cd251d22058d5288c1dc7ae095ca461",
            "hex": "47304402203ce79de6ebfa7600d568175a3499280455b6f531add13845994c9f32fa990d19022072bd95cbee7dca43ac359f041f063007bd4d2adaf04eb97e58aedc3c7177a32a0121028894e39059faa2d2f8cc08800e2170940cd251d22058d5288c1dc7ae095ca461"
          },
          "sequence": 4294967295
        }, 
        {
          "txid": "b96fb2b7cf4b71833b05112f576240e3c54fc7b6ea396f9e8a4ce6ad9de5ba02",
          "vout": 1,
          "scriptSig": {
            "asm": "3044022017cd386519412e4cbca87bc756d330d3e9e43e1642cfc9f01aed5f984711e33902207d77fd9c3abde27ee8d8eed74c28809f68421fc30a900ab914b783310397ec9a[ALL] 020a79b318fd095ff818713fc1db03dd2f1caa1fce96bd16aadc3ff875d6510cc9",
            "hex": "473044022017cd386519412e4cbca87bc756d330d3e9e43e1642cfc9f01aed5f984711e33902207d77fd9c3abde27ee8d8eed74c28809f68421fc30a900ab914b783310397ec9a0121020a79b318fd095ff818713fc1db03dd2f1caa1fce96bd16aadc3ff875d6510cc9"
          },
          "sequence": 4294967295
        }, 
        {
          "txid": "5ef9cfca2043aad0344209d66130fd991f4a6ea789537462ba93cc5fe9b68431",
          "vout": 393,
          "scriptSig": {
            "asm": "3045022100e3a5628018f52cb80b540545e03c6e320f91d61958977e123f3165a82406262502206a8ab819a6b9782cafc7c883e40b08b1fb82c34459605eefb643e44d6453b0d3[ALL] 036f4f2d28d7487e01756264a8fff14a1ab17fc69da910fa15b372f5c0abf9f9f8",
            "hex": "483045022100e3a5628018f52cb80b540545e03c6e320f91d61958977e123f3165a82406262502206a8ab819a6b9782cafc7c883e40b08b1fb82c34459605eefb643e44d6453b0d30121036f4f2d28d7487e01756264a8fff14a1ab17fc69da910fa15b372f5c0abf9f9f8"
          },
          "sequence": 4294967295
        }, 
        {
          "txid": "fe518f14a675593c348eb5087b4c77af04ffa7306e72bfe9a1a42bbc9a79ff16",
          "vout": 1,
          "scriptSig": {
            "asm": "3045022100e943778146e135aa87f0f2e4e76f3633654b7f4493b02e1d7f8e897a5929880f0220079a9fbf275abb9b7b302d744c18bd2bf7d6932fd5f9f1d31b16e05a60c2e124[ALL] 0249ed268845325edbf7f6f36762cf868b48ab3c0a2663f6693ccd94e889fa51ad",
            "hex": "483045022100e943778146e135aa87f0f2e4e76f3633654b7f4493b02e1d7f8e897a5929880f0220079a9fbf275abb9b7b302d744c18bd2bf7d6932fd5f9f1d31b16e05a60c2e12401210249ed268845325edbf7f6f36762cf868b48ab3c0a2663f6693ccd94e889fa51ad"
          },
          "sequence": 4294967295
        }, 
        {
          "txid": "c5e0a253cd64fd5fe91dba3dcfecce6999498b8855e9b5f48eae656f24d5128d",
          "vout": 1,
          "scriptSig": {
            "asm": "3045022100c71c7f1883655d981be4ca003cc0251ae7fdefa888d8c22f2712ce4afb2473c702200a57e59855709f642ab223465100688721d1dda7ad07691ded1515df294816fb[ALL] 0206a1c23cbf788839ad4faf237bc44dc488714257ac9feae421b1d847320f8555",
            "hex": "483045022100c71c7f1883655d981be4ca003cc0251ae7fdefa888d8c22f2712ce4afb2473c702200a57e59855709f642ab223465100688721d1dda7ad07691ded1515df294816fb01210206a1c23cbf788839ad4faf237bc44dc488714257ac9feae421b1d847320f8555"
          },
          "sequence": 4294967295
        }, 
        {
          "txid": "fc5a03fe0ce352d1234c15e4bfd2afb4f1e2706bc039933503e255cf2eb1f2a2",
          "vout": 47,
          "scriptSig": {
            "asm": "3045022100b8b036364114b83d4d4f68d8b03b09f8f5782c4697bdc4e69364afb7ec15787702202f0aadc0574b5c2b24e4a2014c5e0587174301cafe17b89a34b3471290a53df3[ALL] 03b699abd44fcee958dcee834f23984213fd353c1fee4117cf4e40e569a6762521",
            "hex": "483045022100b8b036364114b83d4d4f68d8b03b09f8f5782c4697bdc4e69364afb7ec15787702202f0aadc0574b5c2b24e4a2014c5e0587174301cafe17b89a34b3471290a53df3012103b699abd44fcee958dcee834f23984213fd353c1fee4117cf4e40e569a6762521"
          },
          "sequence": 4294967295
        }
      ],
      "vout": [
        {
          "value": 1.00000000,
          "n": 0,
          "scriptPubKey": {
            "asm": "OP_DUP OP_HASH160 b31e91199900c2dc33f756678b8333633051a3be OP_EQUALVERIFY OP_CHECKSIG",
            "hex": "76a914b31e91199900c2dc33f756678b8333633051a3be88ac",
            "reqSigs": 1,
            "type": "pubkeyhash",
            "addresses": [
              "LbZ3qNMMSc4E5xC1UCESzTU4Vksp75exfi"
            ]
          }
        }, 
        {
          "value": 0.04860986,
          "n": 1,
          "scriptPubKey": {
            "asm": "OP_DUP OP_HASH160 d44adc936e05c8fe03460c43a189431f4a9b8416 OP_EQUALVERIFY OP_CHECKSIG",
            "hex": "76a914d44adc936e05c8fe03460c43a189431f4a9b841688ac",
            "reqSigs": 1,
            "type": "pubkeyhash",
            "addresses": [
              "LeaTCMiKaLwzwLuJquZekKkK5GDEZ4veXP"
            ]
          }
        }
      ],
      "hex": "020000000660457bb9bba0fae42541ee2ebabef47579c84b2c4f5ca0269f78502b25eb0f6ac80600006a47304402203ce79de6ebfa7600d568175a3499280455b6f531add13845994c9f32fa990d19022072bd95cbee7dca43ac359f041f063007bd4d2adaf04eb97e58aedc3c7177a32a0121028894e39059faa2d2f8cc08800e2170940cd251d22058d5288c1dc7ae095ca461ffffffff02bae59dade64c8a9e6f39eab6c74fc5e34062572f11053b83714bcfb7b26fb9010000006a473044022017cd386519412e4cbca87bc756d330d3e9e43e1642cfc9f01aed5f984711e33902207d77fd9c3abde27ee8d8eed74c28809f68421fc30a900ab914b783310397ec9a0121020a79b318fd095ff818713fc1db03dd2f1caa1fce96bd16aadc3ff875d6510cc9ffffffff3184b6e95fcc93ba62745389a76e4a1f99fd3061d6094234d0aa4320cacff95e890100006b483045022100e3a5628018f52cb80b540545e03c6e320f91d61958977e123f3165a82406262502206a8ab819a6b9782cafc7c883e40b08b1fb82c34459605eefb643e44d6453b0d30121036f4f2d28d7487e01756264a8fff14a1ab17fc69da910fa15b372f5c0abf9f9f8ffffffff16ff799abc2ba4a1e9bf726e30a7ff04af774c7b08b58e343c5975a6148f51fe010000006b483045022100e943778146e135aa87f0f2e4e76f3633654b7f4493b02e1d7f8e897a5929880f0220079a9fbf275abb9b7b302d744c18bd2bf7d6932fd5f9f1d31b16e05a60c2e12401210249ed268845325edbf7f6f36762cf868b48ab3c0a2663f6693ccd94e889fa51adffffffff8d12d5246f65ae8ef4b5e955888b499969ceeccf3dba1de95ffd64cd53a2e0c5010000006b483045022100c71c7f1883655d981be4ca003cc0251ae7fdefa888d8c22f2712ce4afb2473c702200a57e59855709f642ab223465100688721d1dda7ad07691ded1515df294816fb01210206a1c23cbf788839ad4faf237bc44dc488714257ac9feae421b1d847320f8555ffffffffa2f2b12ecf55e203359339c06b70e2f1b4afd2bfe4154c23d152e30cfe035afc2f0000006b483045022100b8b036364114b83d4d4f68d8b03b09f8f5782c4697bdc4e69364afb7ec15787702202f0aadc0574b5c2b24e4a2014c5e0587174301cafe17b89a34b3471290a53df3012103b699abd44fcee958dcee834f23984213fd353c1fee4117cf4e40e569a6762521ffffffff0200e1f505000000001976a914b31e91199900c2dc33f756678b8333633051a3be88ac3a2c4a00000000001976a914d44adc936e05c8fe03460c43a189431f4a9b841688ac00000000"
    }, 
    {
      "txid": "0e02b7b41b5f808c919e7c9e0b20348e3f31f178221bb78b3a8514d7b9e525eb",
      "hash": "0e02b7b41b5f808c919e7c9e0b20348e3f31f178221bb78b3a8514d7b9e525eb",
      "version": 1,
      "size": 191,
      "vsize": 191,
      "locktime": 0,
      "vin": [
        {
          "txid": "6f74288eb75a3982d2f66ea4be992f54e1ffd7789908c5f98ebcfbf5b565d706",
          "vout": 1,
          "scriptSig": {
            "asm": "304402206ca494035af1aec613adf91b04cc6b3db72d069134f38b052b88f04080e47b9a02203285b3c4009af12209c3f2a52c732e8916f25ead9084e0b4179e053f4c74431b[ALL] 0254759291dbdd3ca50f13d81b46e921f5f36d4112ac1e093da89e852acc9c1da7",
            "hex": "47304402206ca494035af1aec613adf91b04cc6b3db72d069134f38b052b88f04080e47b9a02203285b3c4009af12209c3f2a52c732e8916f25ead9084e0b4179e053f4c74431b01210254759291dbdd3ca50f13d81b46e921f5f36d4112ac1e093da89e852acc9c1da7"
          },
          "sequence": 4294967295
        }
      ],
      "vout": [
        {
          "value": 1.80019875,
          "n": 0,
          "scriptPubKey": {
            "asm": "OP_DUP OP_HASH160 d86979205fb4d44a1105646f31352852319eca66 OP_EQUALVERIFY OP_CHECKSIG",
            "hex": "76a914d86979205fb4d44a1105646f31352852319eca6688ac",
            "reqSigs": 1,
            "type": "pubkeyhash",
            "addresses": [
              "LexEa3vxGAq9s3XagsTqcaSb6o9npdRLtk"
            ]
          }
        }
      ],
      "hex": "010000000106d765b5f5fbbc8ef9c5089978d7ffe1542f99bea46ef6d282395ab78e28746f010000006a47304402206ca494035af1aec613adf91b04cc6b3db72d069134f38b052b88f04080e47b9a02203285b3c4009af12209c3f2a52c732e8916f25ead9084e0b4179e053f4c74431b01210254759291dbdd3ca50f13d81b46e921f5f36d4112ac1e093da89e852acc9c1da7ffffffff01a3e2ba0a000000001976a914d86979205fb4d44a1105646f31352852319eca6688ac00000000"
    }, 
    {
      "txid": "9e355e16fe0b8f828f6ad863737453fda2a8b5ff3cbafb9aaedb4c1d65d991fc",
      "hash": "9e355e16fe0b8f828f6ad863737453fda2a8b5ff3cbafb9aaedb4c1d65d991fc",
      "version": 1,
      "size": 223,
      "vsize": 223,
      "locktime": 0,
      "vin": [
        {
          "txid": "8dd06085259bec7d99ea6f9e9261862c693b97a2196c3eeea8068e09ee4a1a64",
          "vout": 0,
          "scriptSig": {
            "asm": "30440220361182f4f497219b11e4dc5a4c099bd2cbcbc4ef510874a966d630af07c8c48d022074a4faebbaf67fd24260982a205b167cabcef598820594612ae7c7f592a40ccd[ALL] 0247960aa1f55ad2dcd7b89ca68c289faa33346efa27a71d87aac164f7cb735cbd",
            "hex": "4730440220361182f4f497219b11e4dc5a4c099bd2cbcbc4ef510874a966d630af07c8c48d022074a4faebbaf67fd24260982a205b167cabcef598820594612ae7c7f592a40ccd01210247960aa1f55ad2dcd7b89ca68c289faa33346efa27a71d87aac164f7cb735cbd"
          },
          "sequence": 4294967295
        }
      ],
      "vout": [
        {
          "value": 54.00000000,
          "n": 0,
          "scriptPubKey": {
            "asm": "OP_HASH160 326bccfc544bd0ff3bb6d529139e90fb657ea88e OP_EQUAL",
            "hex": "a914326bccfc544bd0ff3bb6d529139e90fb657ea88e87",
            "reqSigs": 1,
            "type": "scripthash",
            "addresses": [
              "MCVmA9W8zMJP8sFk9tY8LN7LGgPthUAxhz"
            ]
          }
        }, 
        {
          "value": 3.06564595,
          "n": 1,
          "scriptPubKey": {
            "asm": "OP_DUP OP_HASH160 aec02d5b6a327cc48fe1ee79ccaa2693c3a88828 OP_EQUALVERIFY OP_CHECKSIG",
            "hex": "76a914aec02d5b6a327cc48fe1ee79ccaa2693c3a8882888ac",
            "reqSigs": 1,
            "type": "pubkeyhash",
            "addresses": [
              "Lb9x4J7JHR9bCQPXvB2q35diY6b2moiMKK"
            ]
          }
        }
      ],
      "hex": "0100000001641a4aee098e06a8ee3e6c19a2973b692c8661929e6fea997dec9b258560d08d000000006a4730440220361182f4f497219b11e4dc5a4c099bd2cbcbc4ef510874a966d630af07c8c48d022074a4faebbaf67fd24260982a205b167cabcef598820594612ae7c7f592a40ccd01210247960aa1f55ad2dcd7b89ca68c289faa33346efa27a71d87aac164f7cb735cbdffffffff020076dd410100000017a914326bccfc544bd0ff3bb6d529139e90fb657ea88e87f3cd4512000000001976a914aec02d5b6a327cc48fe1ee79ccaa2693c3a8882888ac00000000"
    }, 
    {
      "txid": "7103e065ec8be89c055230fb6f8cd139f4e810a230f8481fb38a683d6f255d59",
      "hash": "7103e065ec8be89c055230fb6f8cd139f4e810a230f8481fb38a683d6f255d59",
      "version": 2,
      "size": 225,
      "vsize": 225,
      "locktime": 1358413,
      "vin": [
        {
          "txid": "7dea2b8724dac2bc7ae93b7f81b29d208024864370b9aaa7bef56104f6917722",
          "vout": 428,
          "scriptSig": {
            "asm": "304402203d5e6335a6cfa728c12e572cf28889f050eb128646da3447e274918a69a5a2f20220015a56d2f158871f3bb61caa98c77f7ecaf61146030bc22087f08860235122c5[ALL] 02c732030450d3002d344209cf97d983357ea3314d7fc63eb51a0cb39cef0a19c5",
            "hex": "47304402203d5e6335a6cfa728c12e572cf28889f050eb128646da3447e274918a69a5a2f20220015a56d2f158871f3bb61caa98c77f7ecaf61146030bc22087f08860235122c5012102c732030450d3002d344209cf97d983357ea3314d7fc63eb51a0cb39cef0a19c5"
          },
          "sequence": 4294967294
        }
      ],
      "vout": [
        {
          "value": 0.00996787,
          "n": 0,
          "scriptPubKey": {
            "asm": "OP_DUP OP_HASH160 9614e74aa0f6e3adf7281ef140b24ec0a22f19dd OP_EQUALVERIFY OP_CHECKSIG",
            "hex": "76a9149614e74aa0f6e3adf7281ef140b24ec0a22f19dd88ac",
            "reqSigs": 1,
            "type": "pubkeyhash",
            "addresses": [
              "LYuWfPQ8Qqzjm3yS4YSFZU7KX5Jh9Kdni4"
            ]
          }
        }, 
        {
          "value": 0.05260000,
          "n": 1,
          "scriptPubKey": {
            "asm": "OP_DUP OP_HASH160 64f96d21cea0702c46615c1fc66dd012afe021f6 OP_EQUALVERIFY OP_CHECKSIG",
            "hex": "76a91464f96d21cea0702c46615c1fc66dd012afe021f688ac",
            "reqSigs": 1,
            "type": "pubkeyhash",
            "addresses": [
              "LURrdqceqtiTFPpXB6QGUsF4dEHbhGRWhF"
            ]
          }
        }
      ],
      "hex": "0200000001227791f60461f5bea7aab97043862480209db2817f3be97abcc2da24872bea7dac0100006a47304402203d5e6335a6cfa728c12e572cf28889f050eb128646da3447e274918a69a5a2f20220015a56d2f158871f3bb61caa98c77f7ecaf61146030bc22087f08860235122c5012102c732030450d3002d344209cf97d983357ea3314d7fc63eb51a0cb39cef0a19c5feffffff02b3350f00000000001976a9149614e74aa0f6e3adf7281ef140b24ec0a22f19dd88ace0425000000000001976a91464f96d21cea0702c46615c1fc66dd012afe021f688ac4dba1400"
    }, 
    {
      "txid": "e5e728bbce5357ce65725dce168aa399013ac8ff3fbb2b9950c910da7ba1c40c",
      "hash": "e5e728bbce5357ce65725dce168aa399013ac8ff3fbb2b9950c910da7ba1c40c",
      "version": 1,
      "size": 226,
      "vsize": 226,
      "locktime": 0,
      "vin": [
        {
          "txid": "b6de62ead08cf005db5010cde1c99e156e657f00a83b99bda1ca08030f6ca412",
          "vout": 34,
          "scriptSig": {
            "asm": "3045022100b6e951a5d9ca4514db6d8be8956a74120df186f59626b39947dee136f6168f28022011216469433f6c7028d528013693336aca5f28e48ce9e2b86a25fcdc63c40772[ALL] 030e4d807ddb04e06b17689a98701abb3e58fae4cdb36518fc0ae1558453eb5c2f",
            "hex": "483045022100b6e951a5d9ca4514db6d8be8956a74120df186f59626b39947dee136f6168f28022011216469433f6c7028d528013693336aca5f28e48ce9e2b86a25fcdc63c407720121030e4d807ddb04e06b17689a98701abb3e58fae4cdb36518fc0ae1558453eb5c2f"
          },
          "sequence": 4294967295
        }
      ],
      "vout": [
        {
          "value": 0.01000000,
          "n": 0,
          "scriptPubKey": {
            "asm": "OP_DUP OP_HASH160 a2c57e18916cc96d1ef7f961d1f2dd3be69714b3 OP_EQUALVERIFY OP_CHECKSIG",
            "hex": "76a914a2c57e18916cc96d1ef7f961d1f2dd3be69714b388ac",
            "reqSigs": 1,
            "type": "pubkeyhash",
            "addresses": [
              "La4cKK8Kkb8u72ZcRegW6TMCSC9TgkJLbT"
            ]
          }
        }, 
        {
          "value": 0.00062970,
          "n": 1,
          "scriptPubKey": {
            "asm": "OP_DUP OP_HASH160 2f6c23d5802c75e7e9aff3b7295de34aca74fe7d OP_EQUALVERIFY OP_CHECKSIG",
            "hex": "76a9142f6c23d5802c75e7e9aff3b7295de34aca74fe7d88ac",
            "reqSigs": 1,
            "type": "pubkeyhash",
            "addresses": [
              "LPYhZvgSi7ki8wSct3trZAiNJC9gHocamR"
            ]
          }
        }
      ],
      "hex": "010000000112a46c0f0308caa1bd993ba8007f656e159ec9e1cd1050db05f08cd0ea62deb6220000006b483045022100b6e951a5d9ca4514db6d8be8956a74120df186f59626b39947dee136f6168f28022011216469433f6c7028d528013693336aca5f28e48ce9e2b86a25fcdc63c407720121030e4d807ddb04e06b17689a98701abb3e58fae4cdb36518fc0ae1558453eb5c2fffffffff0240420f00000000001976a914a2c57e18916cc96d1ef7f961d1f2dd3be69714b388acfaf50000000000001976a9142f6c23d5802c75e7e9aff3b7295de34aca74fe7d88ac00000000"
    }, 
    {
      "txid": "0920fe560467ebaced4f0b37b8295bba0fa036397ef1ba1c581027b920644534",
      "hash": "0920fe560467ebaced4f0b37b8295bba0fa036397ef1ba1c581027b920644534",
      "version": 1,
      "size": 226,
      "vsize": 226,
      "locktime": 0,
      "vin": [
        {
          "txid": "c0d2e2a69c7fd0ae8b32c7906057c5972888fff745aa8421401d43429890786a",
          "vout": 0,
          "scriptSig": {
            "asm": "3045022100ba73a9c364183c80b9aa61f4157d64b2a42d7ca03afad751bf054c6060b7fea002205c716a33c34ae14927d82339cc14ee46c8827d8dd1726b92678f9629cf16d3a4[ALL] 0361a54114188f79d60354ee27ec2ced4bf525c859ae01835524328d1dc41891a1",
            "hex": "483045022100ba73a9c364183c80b9aa61f4157d64b2a42d7ca03afad751bf054c6060b7fea002205c716a33c34ae14927d82339cc14ee46c8827d8dd1726b92678f9629cf16d3a401210361a54114188f79d60354ee27ec2ced4bf525c859ae01835524328d1dc41891a1"
          },
          "sequence": 4294967295
        }
      ],
      "vout": [
        {
          "value": 0.00199165,
          "n": 0,
          "scriptPubKey": {
            "asm": "OP_DUP OP_HASH160 25630e139a9b6c7c63572192f9d085d4ce045794 OP_EQUALVERIFY OP_CHECKSIG",
            "hex": "76a91425630e139a9b6c7c63572192f9d085d4ce04579488ac",
            "reqSigs": 1,
            "type": "pubkeyhash",
            "addresses": [
              "LNddvmipH6UZtpHMMNBB9qRNx41ViT46uJ"
            ]
          }
        }, 
        {
          "value": 0.29663044,
          "n": 1,
          "scriptPubKey": {
            "asm": "OP_DUP OP_HASH160 4a751b682812acd409dfdb56d72c463e55ff2f8f OP_EQUALVERIFY OP_CHECKSIG",
            "hex": "76a9144a751b682812acd409dfdb56d72c463e55ff2f8f88ac",
            "reqSigs": 1,
            "type": "pubkeyhash",
            "addresses": [
              "LS1eZ9dBkaY4dVL6WKtbXpoTN3VkPSK1uT"
            ]
          }
        }
      ],
      "hex": "01000000016a78909842431d402184aa45f7ff882897c5576090c7328baed07f9ca6e2d2c0000000006b483045022100ba73a9c364183c80b9aa61f4157d64b2a42d7ca03afad751bf054c6060b7fea002205c716a33c34ae14927d82339cc14ee46c8827d8dd1726b92678f9629cf16d3a401210361a54114188f79d60354ee27ec2ced4bf525c859ae01835524328d1dc41891a1ffffffff02fd090300000000001976a91425630e139a9b6c7c63572192f9d085d4ce04579488ac449fc401000000001976a9144a751b682812acd409dfdb56d72c463e55ff2f8f88ac00000000"
    }, 
    {
      "txid": "251fdd1b43016124d5cbbdc60b80df33bcbbedbf1c3930e61d2080ef95e46e89",
      "hash": "251fdd1b43016124d5cbbdc60b80df33bcbbedbf1c3930e61d2080ef95e46e89",
      "version": 1,
      "size": 226,
      "vsize": 226,
      "locktime": 0,
      "vin": [
        {
          "txid": "cf3108923082457e21671afe310a611d3c06a5ac7801f0cbb926aa84bfabd7bc",
          "vout": 9,
          "scriptSig": {
            "asm": "3045022100c6d4bffe4a509e7fa307d79fbd9fc00cb70b3e90505a4100d7df4283db631fd70220238208656b6e460d54ce72875e15346e04524176f601673bd3b331278d07e68b[ALL] 0213c0355724a10ee66fea1754ac81096b98e943b4c32f1a58cf7cfce5cd5904af",
            "hex": "483045022100c6d4bffe4a509e7fa307d79fbd9fc00cb70b3e90505a4100d7df4283db631fd70220238208656b6e460d54ce72875e15346e04524176f601673bd3b331278d07e68b01210213c0355724a10ee66fea1754ac81096b98e943b4c32f1a58cf7cfce5cd5904af"
          },
          "sequence": 4294967295
        }
      ],
      "vout": [
        {
          "value": 0.00538400,
          "n": 0,
          "scriptPubKey": {
            "asm": "OP_DUP OP_HASH160 f3bf05d2802b6e17a76594f4aa85c500aa51fc27 OP_EQUALVERIFY OP_CHECKSIG",
            "hex": "76a914f3bf05d2802b6e17a76594f4aa85c500aa51fc2788ac",
            "reqSigs": 1,
            "type": "pubkeyhash",
            "addresses": [
              "LhSmJKZ3eQ5VzbacqZQ6pSxwk3arCQqXkC"
            ]
          }
        }, 
        {
          "value": 0.39139000,
          "n": 1,
          "scriptPubKey": {
            "asm": "OP_DUP OP_HASH160 b7d8e6f72fc31f23fc29a7c567eed50b02b17f7c OP_EQUALVERIFY OP_CHECKSIG",
            "hex": "76a914b7d8e6f72fc31f23fc29a7c567eed50b02b17f7c88ac",
            "reqSigs": 1,
            "type": "pubkeyhash",
            "addresses": [
              "Lbz3kwvGXEQC5pL2JtiddQnkXJ9vSf22mC"
            ]
          }
        }
      ],
      "hex": "0100000001bcd7abbf84aa26b9cbf00178aca5063c1d610a31fe1a67217e458230920831cf090000006b483045022100c6d4bffe4a509e7fa307d79fbd9fc00cb70b3e90505a4100d7df4283db631fd70220238208656b6e460d54ce72875e15346e04524176f601673bd3b331278d07e68b01210213c0355724a10ee66fea1754ac81096b98e943b4c32f1a58cf7cfce5cd5904afffffffff0220370800000000001976a914f3bf05d2802b6e17a76594f4aa85c500aa51fc2788acb8365502000000001976a914b7d8e6f72fc31f23fc29a7c567eed50b02b17f7c88ac00000000"
    }, 
    {
      "txid": "f413370c8dc9e6fa832d717f5952fd5d5722265e47a4611a2f5d11fd6a7e8b8c",
      "hash": "f413370c8dc9e6fa832d717f5952fd5d5722265e47a4611a2f5d11fd6a7e8b8c",
      "version": 1,
      "size": 226,
      "vsize": 226,
      "locktime": 0,
      "vin": [
        {
          "txid": "fa00243b70db98be1cd390d687374dcf0179aaf1d733d5e61c3c4fd2caccc9b9",
          "vout": 1,
          "scriptSig": {
            "asm": "3045022100da27bac9d1627646219b1dc3981d0fa91572ab595f804ed26a93449568c1de00022038d7c595c3670c6fb2efb38b7ef568b2ecc095252bf1b7f0833526fe2eb55b9c[ALL] 03f2eb05d85e2cb32f089337f44df11ffea41e2d736701c2c44955d7656f00f9fd",
            "hex": "483045022100da27bac9d1627646219b1dc3981d0fa91572ab595f804ed26a93449568c1de00022038d7c595c3670c6fb2efb38b7ef568b2ecc095252bf1b7f0833526fe2eb55b9c012103f2eb05d85e2cb32f089337f44df11ffea41e2d736701c2c44955d7656f00f9fd"
          },
          "sequence": 4294967295
        }
      ],
      "vout": [
        {
          "value": 0.23836318,
          "n": 0,
          "scriptPubKey": {
            "asm": "OP_DUP OP_HASH160 94a4beee5b5e132c7b6229741764df4ba288c197 OP_EQUALVERIFY OP_CHECKSIG",
            "hex": "76a91494a4beee5b5e132c7b6229741764df4ba288c19788ac",
            "reqSigs": 1,
            "type": "pubkeyhash",
            "addresses": [
              "LYmudLw5eC3WpnPopcwGgqMSnkPyLjvQbC"
            ]
          }
        }, 
        {
          "value": 6.46517413,
          "n": 1,
          "scriptPubKey": {
            "asm": "OP_DUP OP_HASH160 18b3d7c465c1a2aeeac797b8a4f961ae5e5c8255 OP_EQUALVERIFY OP_CHECKSIG",
            "hex": "76a91418b3d7c465c1a2aeeac797b8a4f961ae5e5c825588ac",
            "reqSigs": 1,
            "type": "pubkeyhash",
            "addresses": [
              "LMUZvWuzJF1TRUyBgteYDCs4DPVdfCAY1o"
            ]
          }
        }
      ],
      "hex": "0100000001b9c9cccad24f3c1ce6d533d7f1aa7901cf4d3787d690d31cbe98db703b2400fa010000006b483045022100da27bac9d1627646219b1dc3981d0fa91572ab595f804ed26a93449568c1de00022038d7c595c3670c6fb2efb38b7ef568b2ecc095252bf1b7f0833526fe2eb55b9c012103f2eb05d85e2cb32f089337f44df11ffea41e2d736701c2c44955d7656f00f9fdffffffff029eb66b01000000001976a91494a4beee5b5e132c7b6229741764df4ba288c19788aca5128926000000001976a91418b3d7c465c1a2aeeac797b8a4f961ae5e5c825588ac00000000"
    }, 
    {
      "txid": "b01ba1aef2af6414798800543c93aa56850993a3eae16204594372b2c594a68c",
      "hash": "b01ba1aef2af6414798800543c93aa56850993a3eae16204594372b2c594a68c",
      "version": 2,
      "size": 226,
      "vsize": 226,
      "locktime": 1358413,
      "vin": [
        {
          "txid": "f4d5fce05ebc98c88ab9ffd0d2f3c139cbd8435e5d7154d0e7e114e506ee4bc4",
          "vout": 1,
          "scriptSig": {
            "asm": "3045022100f1ac42a578ffe51e206d74769eaf59c6965cb0a7924aaedcacfa809925b3970902202fbe1feb2d5e7e6a7ccf4fc177e32b5c56cf8409b42b330efa82ce209f84fecc[ALL] 03fdfdbe1b95231a0bdbb328a412d1a513fab4771e19c45cdadf9bdd1a8eed992c",
            "hex": "483045022100f1ac42a578ffe51e206d74769eaf59c6965cb0a7924aaedcacfa809925b3970902202fbe1feb2d5e7e6a7ccf4fc177e32b5c56cf8409b42b330efa82ce209f84fecc012103fdfdbe1b95231a0bdbb328a412d1a513fab4771e19c45cdadf9bdd1a8eed992c"
          },
          "sequence": 4294967294
        }
      ],
      "vout": [
        {
          "value": 0.17000000,
          "n": 0,
          "scriptPubKey": {
            "asm": "OP_DUP OP_HASH160 e0690f007b439e32ae0555ee6bce87c24676f86c OP_EQUALVERIFY OP_CHECKSIG",
            "hex": "76a914e0690f007b439e32ae0555ee6bce87c24676f86c88ac",
            "reqSigs": 1,
            "type": "pubkeyhash",
            "addresses": [
              "LfgXUnLvh4uvtXjdiaq7bNa1uDoKuM7FUh"
            ]
          }
        }, 
        {
          "value": 4.24183066,
          "n": 1,
          "scriptPubKey": {
            "asm": "OP_DUP OP_HASH160 d94e9b32203913231cc3711ca8520c4aaef45bde OP_EQUALVERIFY OP_CHECKSIG",
            "hex": "76a914d94e9b32203913231cc3711ca8520c4aaef45bde88ac",
            "reqSigs": 1,
            "type": "pubkeyhash",
            "addresses": [
              "Lf2y4VnQuF3VDX2iJk5NzreWvgQxCirBX6"
            ]
          }
        }
      ],
      "hex": "0200000001c44bee06e514e1e7d054715d5e43d8cb39c1f3d2d0ffb98ac898bc5ee0fcd5f4010000006b483045022100f1ac42a578ffe51e206d74769eaf59c6965cb0a7924aaedcacfa809925b3970902202fbe1feb2d5e7e6a7ccf4fc177e32b5c56cf8409b42b330efa82ce209f84fecc012103fdfdbe1b95231a0bdbb328a412d1a513fab4771e19c45cdadf9bdd1a8eed992cfeffffff0240660301000000001976a914e0690f007b439e32ae0555ee6bce87c24676f86c88ac1a854819000000001976a914d94e9b32203913231cc3711ca8520c4aaef45bde88ac4dba1400"
    }
  ],
  "time": 1517138743,
  "mediantime": 1517138303,
  "nonce": 1866728589,
  "bits": "1a047f14",
  "difficulty": 3731199.183374282,
  "chainwork": "00000000000000000000000000000000000000000000003312ce0c02f4a13f20",
  "previousblockhash": "927adafd5649fbecfa547af870dc1418a41dace98665f4627c2bafaa3bbe19c7",
  "nextblockhash": "c7ff642f323eb238a652d7313d0c6b039f0e7cf18c444c370dfe09ed639b0139"
}
