{
  "hash": "cef9c0ba845f1474285e44c97161d90d95f9ba2cbd77e1a86b9a4acd13d87e5a",
  "confirmations": 2859,
  "strippedsize": 234,
  "size": 234,
  "weight": 936,
  "height": 1358136,
  "version": 536870912,
  "versionHex": "20000000",
  "merkleroot": "165521149763f157b4a366f5029fedcd0f4b84069cd30119673943fa6c0c83eb",
  "tx": [
    {
      "txid": "165521149763f157b4a366f5029fedcd0f4b84069cd30119673943fa6c0c83eb",
      "hash": "165521149763f157b4a366f5029fedcd0f4b84069cd30119673943fa6c0c83eb",
      "version": 1,
      "size": 153,
      "vsize": 153,
      "locktime": 0,
      "vin": [
        {
          "coinbase": "0338b914045a6d095c2cfabe6d6d83f5e1b31084cdd7954ea073e10e09328d38a64cea3f5344fff9b78fce709dca4000000000000000042f4c502f081600591266200000",
          "sequence": 4294967295
        }
      ],
      "vout": [
        {
          "value": 25.00000000,
          "n": 0,
          "scriptPubKey": {
            "asm": "OP_DUP OP_HASH160 57757ed2ecf2052ff3126c397aca7defb9ca2cec OP_EQUALVERIFY OP_CHECKSIG",
            "hex": "76a91457757ed2ecf2052ff3126c397aca7defb9ca2cec88ac",
            "reqSigs": 1,
            "type": "pubkeyhash",
            "addresses": [
              "LTCPodGk5FwcJaRzH9yKnwicxzFUbxp6tN"
            ]
          }
        }
      ],
      "hex": "01000000010000000000000000000000000000000000000000000000000000000000000000ffffffff440338b914045a6d095c2cfabe6d6d83f5e1b31084cdd7954ea073e10e09328d38a64cea3f5344fff9b78fce709dca4000000000000000042f4c502f081600591266200000ffffffff0100f90295000000001976a91457757ed2ecf2052ff3126c397aca7defb9ca2cec88ac00000000"
    }
  ],
  "time": 1517095260,
  "mediantime": 1517094738,
  "nonce": 3095340871,
  "bits": "1a047f14",
  "difficulty": 3731199.183374282,
  "chainwork": "000000000000000000000000000000000000000000000032d4c155da15253eca",
  "previousblockhash": "304a3ad8063d5c207d5ba1020d15ae1c81968ea54fe53017a7de6951b27598c3",
  "nextblockhash": "e057f8dd95d0558629ac84686e3119e4828440613dd08c190ae3fb860eed88fa"
}
