{
  "hash": "cf0f94a3fa4ee2153a44adc5d8c7d6c372ee6deb799b1b49cf31ee305f63c091",
  "confirmations": 2779,
  "strippedsize": 1032,
  "size": 1288,
  "weight": 4384,
  "height": 1358216,
  "version": 536870912,
  "versionHex": "20000000",
  "merkleroot": "b0a98b096615ce6dd39b0abafa28c0c7849cd9bbdb8d92265bddac1900981086",
  "tx": [
    {
      "txid": "c68f1e98f99d75430efd693317f2bbfdbdbcc6ba1f97977a9cee1d58b569374b",
      "hash": "ba4b2b27226405364927fb25aad827c4f15356f651438fb19e2718c636a6a8d0",
      "version": 1,
      "size": 240,
      "vsize": 213,
      "locktime": 0,
      "vin": [
        {
          "coinbase": "0388b91404603a6d5a080159c6d025000000fabe6d6dc0e857ccaeb455b29a364af1d17cb42a91c10bad4d8d9e5ad70564305dcc82f04000000000000000092f4c54432e544f502f",
          "sequence": 0
        }
      ],
      "vout": [
        {
          "value": 25.00618232,
          "n": 0,
          "scriptPubKey": {
            "asm": "OP_DUP OP_HASH160 0c617fdb2ea42aed30a509595ee21ba3f6688db0 OP_EQUALVERIFY OP_CHECKSIG",
            "hex": "76a9140c617fdb2ea42aed30a509595ee21ba3f6688db088ac",
            "reqSigs": 1,
            "type": "pubkeyhash",
            "addresses": [
              "LLMRAtr3qBje2ySEa3CnZ55LA4TQMWnRY3"
            ]
          }
        }, 
        {
          "value": 0.00000000,
          "n": 1,
          "scriptPubKey": {
            "asm": "OP_RETURN aa21a9edf4010e806b8b617984ba1dfdb7650b5c68fcffd5b32e3a302e202bfbbb914e96",
            "hex": "6a24aa21a9edf4010e806b8b617984ba1dfdb7650b5c68fcffd5b32e3a302e202bfbbb914e96",
            "type": "nulldata"
          }
        }
      ],
      "hex": "010000000001010000000000000000000000000000000000000000000000000000000000000000ffffffff480388b91404603a6d5a080159c6d025000000fabe6d6dc0e857ccaeb455b29a364af1d17cb42a91c10bad4d8d9e5ad70564305dcc82f04000000000000000092f4c54432e544f502f0000000002f8670c95000000001976a9140c617fdb2ea42aed30a509595ee21ba3f6688db088ac0000000000000000266a24aa21a9edf4010e806b8b617984ba1dfdb7650b5c68fcffd5b32e3a302e202bfbbb914e960120000000000000000000000000000000000000000000000000000000000000000000000000"
    }, 
    {
      "txid": "52238004a97f98ad23408f8db0e9c7b905838a954578d1ef293215648bfe9862",
      "hash": "52238004a97f98ad23408f8db0e9c7b905838a954578d1ef293215648bfe9862",
      "version": 2,
      "size": 372,
      "vsize": 372,
      "locktime": 0,
      "vin": [
        {
          "txid": "aabb8a272131baed99d5c9a21e2ec15a7368fb0cee3f036ef200375fffd7c51c",
          "vout": 1,
          "scriptSig": {
            "asm": "304402206f1ea8d024be1fee4c7807e5949d5d1e7c5f9113ad58e758e1d153e3a27857bb022038167d1c542dd024b166951025b4c15b1f13422dea845f619ca57347ed777f57[ALL] 032b203edbc8790b3d85dcc998ba2239f7868ef273f6a5f869e0915574dfd6c877",
            "hex": "47304402206f1ea8d024be1fee4c7807e5949d5d1e7c5f9113ad58e758e1d153e3a27857bb022038167d1c542dd024b166951025b4c15b1f13422dea845f619ca57347ed777f570121032b203edbc8790b3d85dcc998ba2239f7868ef273f6a5f869e0915574dfd6c877"
          },
          "sequence": 4294967295
        }, 
        {
          "txid": "00c1b9f705785b865e8498842ae7d3cee7e499a5d624a466b1477bc47d8031b7",
          "vout": 123,
          "scriptSig": {
            "asm": "3044022017e6743a6aabe6f6fc5220e87a04767805f1e0f6a82202471c3b738e32b978130220060f5a7e885a2c63c4ad20ad1a2df49506620b12fcc931ff60051942393fc840[ALL] 02f8bb78414170b33554cb6b57a2399a2552e875a34b4d441d904a3fb3cc6688ec",
            "hex": "473044022017e6743a6aabe6f6fc5220e87a04767805f1e0f6a82202471c3b738e32b978130220060f5a7e885a2c63c4ad20ad1a2df49506620b12fcc931ff60051942393fc840012102f8bb78414170b33554cb6b57a2399a2552e875a34b4d441d904a3fb3cc6688ec"
          },
          "sequence": 4294967295
        }
      ],
      "vout": [
        {
          "value": 1.77041697,
          "n": 0,
          "scriptPubKey": {
            "asm": "OP_DUP OP_HASH160 76161b7a4c5d478a9978139bcd3952d8354ee0ea OP_EQUALVERIFY OP_CHECKSIG",
            "hex": "76a91476161b7a4c5d478a9978139bcd3952d8354ee0ea88ac",
            "reqSigs": 1,
            "type": "pubkeyhash",
            "addresses": [
              "LVzLUtnBd1eZTWmC3iqicbzmTAuDMmRSUK"
            ]
          }
        }, 
        {
          "value": 0.29643120,
          "n": 1,
          "scriptPubKey": {
            "asm": "OP_DUP OP_HASH160 9e648f7795633f927549cd622e3832146a998f0e OP_EQUALVERIFY OP_CHECKSIG",
            "hex": "76a9149e648f7795633f927549cd622e3832146a998f0e88ac",
            "reqSigs": 1,
            "type": "pubkeyhash",
            "addresses": [
              "LZfTVak4wKrP8djY6wKuoQgWJQHR5ovmGY"
            ]
          }
        }
      ],
      "hex": "02000000021cc5d7ff5f3700f26e033fee0cfb68735ac12e1ea2c9d599edba3121278abbaa010000006a47304402206f1ea8d024be1fee4c7807e5949d5d1e7c5f9113ad58e758e1d153e3a27857bb022038167d1c542dd024b166951025b4c15b1f13422dea845f619ca57347ed777f570121032b203edbc8790b3d85dcc998ba2239f7868ef273f6a5f869e0915574dfd6c877ffffffffb731807dc47b47b166a424d6a599e4e7ced3e72a8498845e865b7805f7b9c1007b0000006a473044022017e6743a6aabe6f6fc5220e87a04767805f1e0f6a82202471c3b738e32b978130220060f5a7e885a2c63c4ad20ad1a2df49506620b12fcc931ff60051942393fc840012102f8bb78414170b33554cb6b57a2399a2552e875a34b4d441d904a3fb3cc6688ecffffffff0221718d0a000000001976a91476161b7a4c5d478a9978139bcd3952d8354ee0ea88ac7051c401000000001976a9149e648f7795633f927549cd622e3832146a998f0e88ac00000000"
    }, 
    {
      "txid": "c9af79ccc2b06f912e90f4a40c55b631968f003af9b46f7f5f4ccbd058c3d32a",
      "hash": "c9af79ccc2b06f912e90f4a40c55b631968f003af9b46f7f5f4ccbd058c3d32a",
      "version": 2,
      "size": 225,
      "vsize": 225,
      "locktime": 1358213,
      "vin": [
        {
          "txid": "f8582bf46515bc1ebf40e7e78c18001f005eb1ae06c7c0bbc598dc6219c95b9e",
          "vout": 5,
          "scriptSig": {
            "asm": "304402203c9260f0570def1e88b1ba71d5b7dbcb21638dac59f4d2da3fb72bbf48bdb26702206dd4607b989bc24f9648699d4e0172c353bffa7ac878015d40b70c846e773d8a[ALL] 02586846f3808af51c4c9d8e31e7550ca90a8b502b6e4326209e9eb5f4b2fd2505",
            "hex": "47304402203c9260f0570def1e88b1ba71d5b7dbcb21638dac59f4d2da3fb72bbf48bdb26702206dd4607b989bc24f9648699d4e0172c353bffa7ac878015d40b70c846e773d8a012102586846f3808af51c4c9d8e31e7550ca90a8b502b6e4326209e9eb5f4b2fd2505"
          },
          "sequence": 4294967294
        }
      ],
      "vout": [
        {
          "value": 5.00000000,
          "n": 0,
          "scriptPubKey": {
            "asm": "OP_DUP OP_HASH160 999e506ca1f2791bde62b651b2b1bbeae87f4de0 OP_EQUALVERIFY OP_CHECKSIG",
            "hex": "76a914999e506ca1f2791bde62b651b2b1bbeae87f4de088ac",
            "reqSigs": 1,
            "type": "pubkeyhash",
            "addresses": [
              "LZEDJRXApXLBDLGbU8w6k3qwm5s1jZN1Xh"
            ]
          }
        }, 
        {
          "value": 1.76924968,
          "n": 1,
          "scriptPubKey": {
            "asm": "OP_DUP OP_HASH160 77bbce65cd61a4ccd37f308b89450a84cf907b70 OP_EQUALVERIFY OP_CHECKSIG",
            "hex": "76a91477bbce65cd61a4ccd37f308b89450a84cf907b7088ac",
            "reqSigs": 1,
            "type": "pubkeyhash",
            "addresses": [
              "LW93f3h5eNgSdxqBTumySLhy85HBpxaHXy"
            ]
          }
        }
      ],
      "hex": "02000000019e5bc91962dc98c5bbc0c706aeb15e001f00188ce7e740bf1ebc1565f42b58f8050000006a47304402203c9260f0570def1e88b1ba71d5b7dbcb21638dac59f4d2da3fb72bbf48bdb26702206dd4607b989bc24f9648699d4e0172c353bffa7ac878015d40b70c846e773d8a012102586846f3808af51c4c9d8e31e7550ca90a8b502b6e4326209e9eb5f4b2fd2505feffffff020065cd1d000000001976a914999e506ca1f2791bde62b651b2b1bbeae87f4de088ac28a98b0a000000001976a91477bbce65cd61a4ccd37f308b89450a84cf907b7088ac85b91400"
    }, 
    {
      "txid": "54e8284ec1270adf7a81cc88265d5c80eb90a8c98b06cbb753dae1a236f1ec16",
      "hash": "e46bf719e6f97d461c3c030390479fc30d736d9f719fb2f41f16f3b7a03e1250",
      "version": 1,
      "size": 370,
      "vsize": 205,
      "locktime": 0,
      "vin": [
        {
          "txid": "17ff59029d22a50db29567f58357a7bfa6876d170355ba14926aff4456013dc6",
          "vout": 1,
          "scriptSig": {
            "asm": "00208fed2c62a6dcad6f858764db83c7ee81e967dc4eafaa674b1e93906a38f38d9b",
            "hex": "2200208fed2c62a6dcad6f858764db83c7ee81e967dc4eafaa674b1e93906a38f38d9b"
          },
          "txinwitness": [
            "", 
            "304402205ee1e95afbb85d1a00a18537f5d06af958814c29815f19ccc6897a90a819989402201c8b8e8369035f8bd8fd35b74374c9e43327aa7ffd90b2dc9915dfcaa9dfb58f01", 
            "304402205fd3935aee6cc2049dd2db0da2552a581daa650e194a0f703d4f506cbfc40d650220204f7b5ce4ed7f7241fec1f75c89b8d6faab86516b4e32cad9862da8c264f37f01", 
            "522102facb2f2f3c2c2211c09796e1d593a7b74300806f9ec3fd562ccb744684dfffb4210293cd75ae63055fa43e4bf0ee7d36f8616043752d372979d4cf2fba3170c1702d52ae"
          ],
          "sequence": 4294967295
        }
      ],
      "vout": [
        {
          "value": 0.13482700,
          "n": 0,
          "scriptPubKey": {
            "asm": "OP_HASH160 2f1551a9e0026bac0cde0f1416a23437fe28c83a OP_EQUAL",
            "hex": "a9142f1551a9e0026bac0cde0f1416a23437fe28c83a87",
            "reqSigs": 1,
            "type": "scripthash",
            "addresses": [
              "MCC7XiVX3QVavJDsVYHSXXB4bGWJwy8kFf"
            ]
          }
        }, 
        {
          "value": 0.76430900,
          "n": 1,
          "scriptPubKey": {
            "asm": "OP_HASH160 95c1d4770691f5337c0962b8aa4ee065ea763b46 OP_EQUAL",
            "hex": "a91495c1d4770691f5337c0962b8aa4ee065ea763b4687",
            "reqSigs": 1,
            "type": "scripthash",
            "addresses": [
              "MMZ17Z3gAk9AcXzr7AD3RJBQ8CpadbBY7m"
            ]
          }
        }
      ],
      "hex": "01000000000101c63d015644ff6a9214ba5503176d87a6bfa75783f56795b20da5229d0259ff1701000000232200208fed2c62a6dcad6f858764db83c7ee81e967dc4eafaa674b1e93906a38f38d9bffffffff02ccbacd000000000017a9142f1551a9e0026bac0cde0f1416a23437fe28c83a87343e8e040000000017a91495c1d4770691f5337c0962b8aa4ee065ea763b4687040047304402205ee1e95afbb85d1a00a18537f5d06af958814c29815f19ccc6897a90a819989402201c8b8e8369035f8bd8fd35b74374c9e43327aa7ffd90b2dc9915dfcaa9dfb58f0147304402205fd3935aee6cc2049dd2db0da2552a581daa650e194a0f703d4f506cbfc40d650220204f7b5ce4ed7f7241fec1f75c89b8d6faab86516b4e32cad9862da8c264f37f0147522102facb2f2f3c2c2211c09796e1d593a7b74300806f9ec3fd562ccb744684dfffb4210293cd75ae63055fa43e4bf0ee7d36f8616043752d372979d4cf2fba3170c1702d52ae00000000"
    }
  ],
  "time": 1517107610,
  "mediantime": 1517107362,
  "nonce": 714183978,
  "bits": "1a047f14",
  "difficulty": 3731199.183374282,
  "chainwork": "000000000000000000000000000000000000000000000032e68c1763823006ea",
  "previousblockhash": "36d1fc36e198d2022f6e31a3c79c51536b61d9913293419b71a9723581f6fe0b",
  "nextblockhash": "25215d4e3345ea78465fbcecc2a35df852d7060730bc35b5e241aeaf398fea3c"
}
