{
  "hash": "cf33ba10c9b98712474ac4f4a8142ff7d81b1c634e98a50e973bca7b966a57c3",
  "confirmations": 406,
  "strippedsize": 256,
  "size": 256,
  "weight": 1024,
  "height": 1360588,
  "version": 536870912,
  "versionHex": "20000000",
  "merkleroot": "66a36b3023f5c1e21a9a18381753d5a5ceaa2236d808cfb929fd9f7b1bf7c1a3",
  "tx": [
    {
      "txid": "66a36b3023f5c1e21a9a18381753d5a5ceaa2236d808cfb929fd9f7b1bf7c1a3",
      "hash": "66a36b3023f5c1e21a9a18381753d5a5ceaa2236d808cfb929fd9f7b1bf7c1a3",
      "version": 1,
      "size": 175,
      "vsize": 175,
      "locktime": 0,
      "vin": [
        {
          "coinbase": "03ccc2141d4d696e656420627920416e74506f6f6c20626a312045205a727d541001fabe6d6d17ff2a0a84d179bffde43bd7e2d602ec6e66ef2869d3a92d065ab6ffdb90c522040000000000000007010000000000001d000000",
          "sequence": 4294967295
        }
      ],
      "vout": [
        {
          "value": 25.00000000,
          "n": 0,
          "scriptPubKey": {
            "asm": "OP_DUP OP_HASH160 0ff3ccc5e8be88afe24b5d634e5852d474dbdff1 OP_EQUALVERIFY OP_CHECKSIG",
            "hex": "76a9140ff3ccc5e8be88afe24b5d634e5852d474dbdff188ac",
            "reqSigs": 1,
            "type": "pubkeyhash",
            "addresses": [
              "LLgJTbzZMsRTCUF1NtvvL9SR1a4pVieW89"
            ]
          }
        }
      ],
      "hex": "01000000010000000000000000000000000000000000000000000000000000000000000000ffffffff5a03ccc2141d4d696e656420627920416e74506f6f6c20626a312045205a727d541001fabe6d6d17ff2a0a84d179bffde43bd7e2d602ec6e66ef2869d3a92d065ab6ffdb90c522040000000000000007010000000000001d000000ffffffff0100f90295000000001976a9140ff3ccc5e8be88afe24b5d634e5852d474dbdff188ac00000000"
    }
  ],
  "time": 1517452628,
  "mediantime": 1517452430,
  "nonce": 64592665,
  "bits": "1a042eae",
  "difficulty": 4011378.762614286,
  "chainwork": "0000000000000000000000000000000000000000000000351439766c5f2cce1a",
  "previousblockhash": "729809fdbaaeecd5201e80b7617d3a1a5756c031a6268fa89e35e2b467db9d4a",
  "nextblockhash": "299adaecf6e9cb01f7547c535cdd2163be0263e34e1b3d6486eb8a6d1c79fc21"
}
