{
  "hash": "cfc204e1be862040c24d133dbc0c4c0a4b9d58b34965948e71552e428e145127",
  "confirmations": 1356,
  "strippedsize": 2542,
  "size": 2578,
  "weight": 10204,
  "height": 1359638,
  "version": 536870912,
  "versionHex": "20000000",
  "merkleroot": "9d6f82b3ca399bbde9ae44cae8d568535239dfda415de419350c9ff6b9d3a3cd",
  "tx": [
    {
      "txid": "f11c37513360511f1fa7b704d0b0006a45b8c2650119d91c41d559444daa8852",
      "hash": "d41ddb9c190256a21fdcc2c7bfc378350f4f5a86d4541207455674346beb0f8f",
      "version": 1,
      "size": 200,
      "vsize": 173,
      "locktime": 0,
      "vin": [
        {
          "coinbase": "0316bf1404ef55705a08280000f7860300000d2f6e6f64655374726174756d2f",
          "sequence": 0
        }
      ],
      "vout": [
        {
          "value": 0.00000000,
          "n": 0,
          "scriptPubKey": {
            "asm": "OP_RETURN aa21a9edcd62c3694c5c256348f1ad6998a9c6688425d20ccdd1dd8b075b0a8216d443ca",
            "hex": "6a24aa21a9edcd62c3694c5c256348f1ad6998a9c6688425d20ccdd1dd8b075b0a8216d443ca",
            "type": "nulldata"
          }
        }, 
        {
          "value": 25.01107767,
          "n": 1,
          "scriptPubKey": {
            "asm": "OP_DUP OP_HASH160 8836a0d567257e801254e29be08629fb71f36f9f OP_EQUALVERIFY OP_CHECKSIG",
            "hex": "76a9148836a0d567257e801254e29be08629fb71f36f9f88ac",
            "reqSigs": 1,
            "type": "pubkeyhash",
            "addresses": [
              "LXeBbwTXnzwSUzSbVubDZu4brFzmMjehn3"
            ]
          }
        }
      ],
      "hex": "010000000001010000000000000000000000000000000000000000000000000000000000000000ffffffff200316bf1404ef55705a08280000f7860300000d2f6e6f64655374726174756d2f00000000020000000000000000266a24aa21a9edcd62c3694c5c256348f1ad6998a9c6688425d20ccdd1dd8b075b0a8216d443ca37e01395000000001976a9148836a0d567257e801254e29be08629fb71f36f9f88ac0120000000000000000000000000000000000000000000000000000000000000000000000000"
    }, 
    {
      "txid": "b127f9adcc51a35776a5a8bdefa69145eb8e948a92f9b917e3428b4f6a2cae8b",
      "hash": "b127f9adcc51a35776a5a8bdefa69145eb8e948a92f9b917e3428b4f6a2cae8b",
      "version": 1,
      "size": 223,
      "vsize": 223,
      "locktime": 0,
      "vin": [
        {
          "txid": "bcfaa4c32854c19485afdd31093188ae29d91ad4b581077308d0e4e1c01f1ed2",
          "vout": 1,
          "scriptSig": {
            "asm": "304402205f67e58bbd52461dc057844870819a765c006b24e9476cf625c0acc7ec0f4606022022e746399763458f9f9664ad5d294826e65f93b99e2c76e70f21356a91950ecb[ALL] 03045557468cb480ae3fdf7b18f7869def61be4e141fdfcba7f53ba667d2007c9a",
            "hex": "47304402205f67e58bbd52461dc057844870819a765c006b24e9476cf625c0acc7ec0f4606022022e746399763458f9f9664ad5d294826e65f93b99e2c76e70f21356a91950ecb012103045557468cb480ae3fdf7b18f7869def61be4e141fdfcba7f53ba667d2007c9a"
          },
          "sequence": 4294967295
        }
      ],
      "vout": [
        {
          "value": 0.64351081,
          "n": 0,
          "scriptPubKey": {
            "asm": "OP_HASH160 70efc950040844266ff58acbeb29625f88e8e7b9 OP_EQUAL",
            "hex": "a91470efc950040844266ff58acbeb29625f88e8e7b987",
            "reqSigs": 1,
            "type": "scripthash",
            "addresses": [
              "MJCKAZi7jq4zLXkdgDTSN8duLZ8WnRKkm7"
            ]
          }
        }, 
        {
          "value": 68.74081671,
          "n": 1,
          "scriptPubKey": {
            "asm": "OP_DUP OP_HASH160 8c184560f54552e065fe1a43a555ab79bb9fd40b OP_EQUALVERIFY OP_CHECKSIG",
            "hex": "76a9148c184560f54552e065fe1a43a555ab79bb9fd40b88ac",
            "reqSigs": 1,
            "type": "pubkeyhash",
            "addresses": [
              "LXzhwSyYhTxZt4piVs7KvYPAWKDdXvMTNo"
            ]
          }
        }
      ],
      "hex": "0100000001d21e1fc0e1e4d008730781b5d41ad929ae88310931ddaf8594c15428c3a4fabc010000006a47304402205f67e58bbd52461dc057844870819a765c006b24e9476cf625c0acc7ec0f4606022022e746399763458f9f9664ad5d294826e65f93b99e2c76e70f21356a91950ecb012103045557468cb480ae3fdf7b18f7869def61be4e141fdfcba7f53ba667d2007c9affffffff0269ebd5030000000017a91470efc950040844266ff58acbeb29625f88e8e7b9878729ba99010000001976a9148c184560f54552e065fe1a43a555ab79bb9fd40b88ac00000000"
    }, 
    {
      "txid": "5b32160c21d3764ccaecd731c9ae4444a099efe9cdf4ffcd8c1bb4297f1ff2bb",
      "hash": "5b32160c21d3764ccaecd731c9ae4444a099efe9cdf4ffcd8c1bb4297f1ff2bb",
      "version": 1,
      "size": 373,
      "vsize": 373,
      "locktime": 0,
      "vin": [
        {
          "txid": "cd93bba9823da572c92594b9b4a9a7497e907a8ffbdf23735fc629fd9edb9c81",
          "vout": 0,
          "scriptSig": {
            "asm": "3045022100904464c57a948cde290746d75f2fb3bec36d4d829440f13ceff320f14e00c8c50220679c80c17c8aa5e146b63aa7f36e52de4e0710949a0edab8ca8bfa26b9b6235b[ALL] 023813fb9be16ef1a5799366440984fa2abc2ce43306b53f66725561e87fc88280",
            "hex": "483045022100904464c57a948cde290746d75f2fb3bec36d4d829440f13ceff320f14e00c8c50220679c80c17c8aa5e146b63aa7f36e52de4e0710949a0edab8ca8bfa26b9b6235b0121023813fb9be16ef1a5799366440984fa2abc2ce43306b53f66725561e87fc88280"
          },
          "sequence": 4294967295
        }, 
        {
          "txid": "7a45101b13c50e9dd1314ff50ca406c06fb545d51226ce27c054329f934ca065",
          "vout": 58,
          "scriptSig": {
            "asm": "3044022005e46495e40267552c8b1b44ed972017631a511fbf4d63c9738341add66d2ae60220278958bc507e1cdd1d8981ae984ddf7a4383b13c2b64568fcd099265eb6914d6[ALL] 030aedfc71abab7a26445d81911c48896e2dd4170f56b024dbcd2e385b51c72a65",
            "hex": "473044022005e46495e40267552c8b1b44ed972017631a511fbf4d63c9738341add66d2ae60220278958bc507e1cdd1d8981ae984ddf7a4383b13c2b64568fcd099265eb6914d60121030aedfc71abab7a26445d81911c48896e2dd4170f56b024dbcd2e385b51c72a65"
          },
          "sequence": 4294967295
        }
      ],
      "vout": [
        {
          "value": 5.10354654,
          "n": 0,
          "scriptPubKey": {
            "asm": "OP_DUP OP_HASH160 8054d8d8dd6bce91125bcfe8bbb473f54afcdc60 OP_EQUALVERIFY OP_CHECKSIG",
            "hex": "76a9148054d8d8dd6bce91125bcfe8bbb473f54afcdc6088ac",
            "reqSigs": 1,
            "type": "pubkeyhash",
            "addresses": [
              "LWvWQ3XMoipFsAqE1EZPQFUovLea7DC1ef"
            ]
          }
        }, 
        {
          "value": 2.80434046,
          "n": 1,
          "scriptPubKey": {
            "asm": "OP_DUP OP_HASH160 2868a743b89a66e31745b10b4148ea3c45d5a8fb OP_EQUALVERIFY OP_CHECKSIG",
            "hex": "76a9142868a743b89a66e31745b10b4148ea3c45d5a8fb88ac",
            "reqSigs": 1,
            "type": "pubkeyhash",
            "addresses": [
              "LNucfL7YNmhr3Y9S2oUbeAQGQ68UvZVLw5"
            ]
          }
        }
      ],
      "hex": "0100000002819cdb9efd29c65f7323dffb8f7a907e49a7a9b4b99425c972a53d82a9bb93cd000000006b483045022100904464c57a948cde290746d75f2fb3bec36d4d829440f13ceff320f14e00c8c50220679c80c17c8aa5e146b63aa7f36e52de4e0710949a0edab8ca8bfa26b9b6235b0121023813fb9be16ef1a5799366440984fa2abc2ce43306b53f66725561e87fc88280ffffffff65a04c939f3254c027ce2612d545b56fc006a40cf54f31d19d0ec5131b10457a3a0000006a473044022005e46495e40267552c8b1b44ed972017631a511fbf4d63c9738341add66d2ae60220278958bc507e1cdd1d8981ae984ddf7a4383b13c2b64568fcd099265eb6914d60121030aedfc71abab7a26445d81911c48896e2dd4170f56b024dbcd2e385b51c72a65ffffffff02de646b1e000000001976a9148054d8d8dd6bce91125bcfe8bbb473f54afcdc6088ac7e15b710000000001976a9142868a743b89a66e31745b10b4148ea3c45d5a8fb88ac00000000"
    }, 
    {
      "txid": "c308e78862e797e6c97824b6618133a51a015bf082663cea87cc8d331df9597a",
      "hash": "c308e78862e797e6c97824b6618133a51a015bf082663cea87cc8d331df9597a",
      "version": 2,
      "size": 225,
      "vsize": 225,
      "locktime": 1359636,
      "vin": [
        {
          "txid": "3bcee7f0e6e2872dd0f91debd2ccc8babd850b8290d416f513a58ac9fe2a07be",
          "vout": 0,
          "scriptSig": {
            "asm": "30440220272acf433719bef720f3a61acba670d8f625604f8f3469131d33be59cff64a7b02207cc9a6811932f61e3752c6016d7285512ad1781643c4e91d25a34fc51dbcd472[ALL] 0382d020f191f9a43ad6577d4b8078e60f8bda8b06c7e1b19ac6b812c222c4574f",
            "hex": "4730440220272acf433719bef720f3a61acba670d8f625604f8f3469131d33be59cff64a7b02207cc9a6811932f61e3752c6016d7285512ad1781643c4e91d25a34fc51dbcd47201210382d020f191f9a43ad6577d4b8078e60f8bda8b06c7e1b19ac6b812c222c4574f"
          },
          "sequence": 4294967294
        }
      ],
      "vout": [
        {
          "value": 1.13644927,
          "n": 0,
          "scriptPubKey": {
            "asm": "OP_DUP OP_HASH160 a4b5058559c75ba9d0e52b9bd3047d9c68a79bb3 OP_EQUALVERIFY OP_CHECKSIG",
            "hex": "76a914a4b5058559c75ba9d0e52b9bd3047d9c68a79bb388ac",
            "reqSigs": 1,
            "type": "pubkeyhash",
            "addresses": [
              "LaEqwGjdRZip1tgFLmwGa4p9CLgsJQ3xDY"
            ]
          }
        }, 
        {
          "value": 0.65661306,
          "n": 1,
          "scriptPubKey": {
            "asm": "OP_DUP OP_HASH160 00f39bb4fef3938f68825d2097308edff7724e38 OP_EQUALVERIFY OP_CHECKSIG",
            "hex": "76a91400f39bb4fef3938f68825d2097308edff7724e3888ac",
            "reqSigs": 1,
            "type": "pubkeyhash",
            "addresses": [
              "LKJz6QiAnadbgkcapeVLTjFeKVeqPEEnn8"
            ]
          }
        }
      ],
      "hex": "0200000001be072afec98aa513f516d490820b85bdbac8ccd2eb1df9d02d87e2e6f0e7ce3b000000006a4730440220272acf433719bef720f3a61acba670d8f625604f8f3469131d33be59cff64a7b02207cc9a6811932f61e3752c6016d7285512ad1781643c4e91d25a34fc51dbcd47201210382d020f191f9a43ad6577d4b8078e60f8bda8b06c7e1b19ac6b812c222c4574ffeffffff027f15c606000000001976a914a4b5058559c75ba9d0e52b9bd3047d9c68a79bb388ac7ae9e903000000001976a91400f39bb4fef3938f68825d2097308edff7724e3888ac14bf1400"
    }, 
    {
      "txid": "91d894937a740d2b8675c6e951b99144a20ba20b8db6cd5652b9f8e7e9fa6854",
      "hash": "91d894937a740d2b8675c6e951b99144a20ba20b8db6cd5652b9f8e7e9fa6854",
      "version": 2,
      "size": 576,
      "vsize": 576,
      "locktime": 1359636,
      "vin": [
        {
          "txid": "c79c068dc6f6a646e3a732bff6d78065f6d24127ae7bf5667e803a16f6ca3a2e",
          "vout": 0,
          "scriptSig": {
            "asm": "30440220186918b25316ead4e0aa17cb4bc4064a6fde845eab9fea13b0990ab4856a03c60220426f8bd5b98cd3e96227ac9313915255cfd13b6a46feeae1e7c0392d1286956e[ALL] 02c5ad8b289c5a2111448eb75b2735b13eda1e92d01116c3c2fd5e42029ef21dfc",
            "hex": "4730440220186918b25316ead4e0aa17cb4bc4064a6fde845eab9fea13b0990ab4856a03c60220426f8bd5b98cd3e96227ac9313915255cfd13b6a46feeae1e7c0392d1286956e012102c5ad8b289c5a2111448eb75b2735b13eda1e92d01116c3c2fd5e42029ef21dfc"
          },
          "sequence": 4294967294
        }, 
        {
          "txid": "61a07de39853e59b22bfd7447aad70ef99de7af707491a34ed1ac8ef3a519f07",
          "vout": 4,
          "scriptSig": {
            "asm": "3044022063631689b4a8c222b6bebdac5a80bb20a19a12805e6cee31b86330c18aeacf0902203efdb538eac4e51dfad0720779dabd36b48eaee87178449d70db72013dee7e12[ALL] 029639585d3b62b4275c9b5d81d622067f256f482b5c0664bc6d32f62c38a65ecf",
            "hex": "473044022063631689b4a8c222b6bebdac5a80bb20a19a12805e6cee31b86330c18aeacf0902203efdb538eac4e51dfad0720779dabd36b48eaee87178449d70db72013dee7e120121029639585d3b62b4275c9b5d81d622067f256f482b5c0664bc6d32f62c38a65ecf"
          },
          "sequence": 4294967294
        }
      ],
      "vout": [
        {
          "value": 0.02824596,
          "n": 0,
          "scriptPubKey": {
            "asm": "OP_DUP OP_HASH160 a481f9f92e3c819d863b54967d481cb2fa1693f0 OP_EQUALVERIFY OP_CHECKSIG",
            "hex": "76a914a481f9f92e3c819d863b54967d481cb2fa1693f088ac",
            "reqSigs": 1,
            "type": "pubkeyhash",
            "addresses": [
              "LaDnnbWib2VdoHGYwk83jNcJMCeX6PjfKy"
            ]
          }
        }, 
        {
          "value": 0.49350000,
          "n": 1,
          "scriptPubKey": {
            "asm": "OP_DUP OP_HASH160 62df71b58218b7bfe8a9c27cd2daf5d490d2738f OP_EQUALVERIFY OP_CHECKSIG",
            "hex": "76a91462df71b58218b7bfe8a9c27cd2daf5d490d2738f88ac",
            "reqSigs": 1,
            "type": "pubkeyhash",
            "addresses": [
              "LUEkABjeGBLYqTiQdXbhMfQD4j7orvZ47T"
            ]
          }
        }, 
        {
          "value": 0.32354456,
          "n": 2,
          "scriptPubKey": {
            "asm": "OP_DUP OP_HASH160 a3ab24f928d0effbbab82cae72cce48b01c17fff OP_EQUALVERIFY OP_CHECKSIG",
            "hex": "76a914a3ab24f928d0effbbab82cae72cce48b01c17fff88ac",
            "reqSigs": 1,
            "type": "pubkeyhash",
            "addresses": [
              "La9MRoczaCy6sCKvcFaAgnFnt4ms2yC4BY"
            ]
          }
        }, 
        {
          "value": 0.10000000,
          "n": 3,
          "scriptPubKey": {
            "asm": "OP_DUP OP_HASH160 0c0eb804cdaac59024f592967509b17b7fb4de23 OP_EQUALVERIFY OP_CHECKSIG",
            "hex": "76a9140c0eb804cdaac59024f592967509b17b7fb4de2388ac",
            "reqSigs": 1,
            "type": "pubkeyhash",
            "addresses": [
              "LLKi1CN7qftXRFVwHzjCVKv89ihdpPcmQa"
            ]
          }
        }, 
        {
          "value": 0.32760428,
          "n": 4,
          "scriptPubKey": {
            "asm": "OP_DUP OP_HASH160 9590efcb0ae662ebc9f439be0cfe7156054e9d7e OP_EQUALVERIFY OP_CHECKSIG",
            "hex": "76a9149590efcb0ae662ebc9f439be0cfe7156054e9d7e88ac",
            "reqSigs": 1,
            "type": "pubkeyhash",
            "addresses": [
              "LYrnaB2QEoBHjTo7cVXDdvHk2i6MQzEGae"
            ]
          }
        }, 
        {
          "value": 1.67063025,
          "n": 5,
          "scriptPubKey": {
            "asm": "OP_DUP OP_HASH160 f8def6ad1270b016bf6c277e18ace347701bdbb3 OP_EQUALVERIFY OP_CHECKSIG",
            "hex": "76a914f8def6ad1270b016bf6c277e18ace347701bdbb388ac",
            "reqSigs": 1,
            "type": "pubkeyhash",
            "addresses": [
              "LhurwZtuiUmqiFU3thYu85aEZQa6fo3aUj"
            ]
          }
        }, 
        {
          "value": 4.58242328,
          "n": 6,
          "scriptPubKey": {
            "asm": "OP_DUP OP_HASH160 989dc1fbe4f99683a009136a3ef6822faf0456e9 OP_EQUALVERIFY OP_CHECKSIG",
            "hex": "76a914989dc1fbe4f99683a009136a3ef6822faf0456e988ac",
            "reqSigs": 1,
            "type": "pubkeyhash",
            "addresses": [
              "LZ8uxa7zKUwaJisqU3ZVQvS5fo2TTNXZ28"
            ]
          }
        }, 
        {
          "value": 0.00889567,
          "n": 7,
          "scriptPubKey": {
            "asm": "OP_DUP OP_HASH160 fb545b9a6e7b1fed3ee9c7ba45b570cbf7968d2c OP_EQUALVERIFY OP_CHECKSIG",
            "hex": "76a914fb545b9a6e7b1fed3ee9c7ba45b570cbf7968d2c88ac",
            "reqSigs": 1,
            "type": "pubkeyhash",
            "addresses": [
              "Li8rveURBexzQDbhkYTyFHfL1vcP25ETxZ"
            ]
          }
        }
      ],
      "hex": "02000000022e3acaf6163a807e66f57bae2741d2f66580d7f6bf32a7e346a6f6c68d069cc7000000006a4730440220186918b25316ead4e0aa17cb4bc4064a6fde845eab9fea13b0990ab4856a03c60220426f8bd5b98cd3e96227ac9313915255cfd13b6a46feeae1e7c0392d1286956e012102c5ad8b289c5a2111448eb75b2735b13eda1e92d01116c3c2fd5e42029ef21dfcfeffffff079f513aefc81aed341a4907f77ade99ef70ad7a44d7bf229be55398e37da061040000006a473044022063631689b4a8c222b6bebdac5a80bb20a19a12805e6cee31b86330c18aeacf0902203efdb538eac4e51dfad0720779dabd36b48eaee87178449d70db72013dee7e120121029639585d3b62b4275c9b5d81d622067f256f482b5c0664bc6d32f62c38a65ecffeffffff0894192b00000000001976a914a481f9f92e3c819d863b54967d481cb2fa1693f088ac7005f102000000001976a91462df71b58218b7bfe8a9c27cd2daf5d490d2738f88ac98b0ed01000000001976a914a3ab24f928d0effbbab82cae72cce48b01c17fff88ac80969800000000001976a9140c0eb804cdaac59024f592967509b17b7fb4de2388ac6ce2f301000000001976a9149590efcb0ae662ebc9f439be0cfe7156054e9d7e88acf12df509000000001976a914f8def6ad1270b016bf6c277e18ace347701bdbb388ac1839501b000000001976a914989dc1fbe4f99683a009136a3ef6822faf0456e988acdf920d00000000001976a914fb545b9a6e7b1fed3ee9c7ba45b570cbf7968d2c88ac14bf1400"
    }, 
    {
      "txid": "5bc80dd206a8f2a3ca2427fb93319ca8dfb7a4dc35c1f9f733e5c1b9baee138a",
      "hash": "5bc80dd206a8f2a3ca2427fb93319ca8dfb7a4dc35c1f9f733e5c1b9baee138a",
      "version": 2,
      "size": 225,
      "vsize": 225,
      "locktime": 1359636,
      "vin": [
        {
          "txid": "036c0db778c5deb5b29ff84e2ba37d12fa3bb28e97c2a05fada1d87f56685066",
          "vout": 1,
          "scriptSig": {
            "asm": "304402205eadc5e229e6c6ffe98f9c36efc0c7148d96d8736ba21cf3365033818519ba9202205a122cf06af56ab6af12f35f5905c5dc5f18251bd517ce73a235414ec4e55b4b[ALL] 03abf6b0f13128c7f595fe75eb932ad518d11107800a2356c6a8beb546a79b2e5c",
            "hex": "47304402205eadc5e229e6c6ffe98f9c36efc0c7148d96d8736ba21cf3365033818519ba9202205a122cf06af56ab6af12f35f5905c5dc5f18251bd517ce73a235414ec4e55b4b012103abf6b0f13128c7f595fe75eb932ad518d11107800a2356c6a8beb546a79b2e5c"
          },
          "sequence": 4294967294
        }
      ],
      "vout": [
        {
          "value": 0.94894145,
          "n": 0,
          "scriptPubKey": {
            "asm": "OP_DUP OP_HASH160 f1b651a5460bf6180c5441dce7758e1fd314e515 OP_EQUALVERIFY OP_CHECKSIG",
            "hex": "76a914f1b651a5460bf6180c5441dce7758e1fd314e51588ac",
            "reqSigs": 1,
            "type": "pubkeyhash",
            "addresses": [
              "LhG1XBhmqMGjoDvPnZXbyyx2aChia9GNt4"
            ]
          }
        }, 
        {
          "value": 0.51219560,
          "n": 1,
          "scriptPubKey": {
            "asm": "OP_DUP OP_HASH160 1890ce371063e61a479fe4f41f1e54b0ef0d415d OP_EQUALVERIFY OP_CHECKSIG",
            "hex": "76a9141890ce371063e61a479fe4f41f1e54b0ef0d415d88ac",
            "reqSigs": 1,
            "type": "pubkeyhash",
            "addresses": [
              "LMTqx5g4g2jETyxkdx1ApDSz2soG4hwZYw"
            ]
          }
        }
      ],
      "hex": "0200000001665068567fd8a1ad5fa0c2978eb23bfa127da32b4ef89fb2b5dec578b70d6c03010000006a47304402205eadc5e229e6c6ffe98f9c36efc0c7148d96d8736ba21cf3365033818519ba9202205a122cf06af56ab6af12f35f5905c5dc5f18251bd517ce73a235414ec4e55b4b012103abf6b0f13128c7f595fe75eb932ad518d11107800a2356c6a8beb546a79b2e5cfeffffff0241f8a705000000001976a914f1b651a5460bf6180c5441dce7758e1fd314e51588ac688c0d03000000001976a9141890ce371063e61a479fe4f41f1e54b0ef0d415d88ac14bf1400"
    }, 
    {
      "txid": "1c98d535f91202b0c9383fc0cd88e0630ca58a9be9e6fa24e6bea867744d9db6",
      "hash": "1c98d535f91202b0c9383fc0cd88e0630ca58a9be9e6fa24e6bea867744d9db6",
      "version": 1,
      "size": 225,
      "vsize": 225,
      "locktime": 0,
      "vin": [
        {
          "txid": "8b30569e849e1d4dec8baeb68f052dfe5cd596c44885325905799445a4f4c831",
          "vout": 0,
          "scriptSig": {
            "asm": "304402202f65bfdb0c97e32e4942eb8dbee805ee11b06574d5c49ffbd40c229429c499c902202ba28af25932460e11bbccfcb743edde41157511cbcce6b5cccd96da9d983552[ALL] 02a3d865cd50f3f9fca955bc893dadd77777cd25f37555ad758b759832b96294ed",
            "hex": "47304402202f65bfdb0c97e32e4942eb8dbee805ee11b06574d5c49ffbd40c229429c499c902202ba28af25932460e11bbccfcb743edde41157511cbcce6b5cccd96da9d983552012102a3d865cd50f3f9fca955bc893dadd77777cd25f37555ad758b759832b96294ed"
          },
          "sequence": 4294967295
        }
      ],
      "vout": [
        {
          "value": 8.29099776,
          "n": 0,
          "scriptPubKey": {
            "asm": "OP_DUP OP_HASH160 50d0fab117005553fb8e2e7007a129fd087e06a7 OP_EQUALVERIFY OP_CHECKSIG",
            "hex": "76a91450d0fab117005553fb8e2e7007a129fd087e06a788ac",
            "reqSigs": 1,
            "type": "pubkeyhash",
            "addresses": [
              "LSbGfhAZ42F77neoo9jLv3FeL2HiajREdW"
            ]
          }
        }, 
        {
          "value": 15.27634226,
          "n": 1,
          "scriptPubKey": {
            "asm": "OP_DUP OP_HASH160 5f3a861393ae506efcd95987662c1d8be3cf2332 OP_EQUALVERIFY OP_CHECKSIG",
            "hex": "76a9145f3a861393ae506efcd95987662c1d8be3cf233288ac",
            "reqSigs": 1,
            "type": "pubkeyhash",
            "addresses": [
              "LTuUZjiorDG6rRpz2EZPvw1JwBwRdcaF28"
            ]
          }
        }
      ],
      "hex": "010000000131c8f4a44594790559328548c496d55cfe2d058fb6ae8bec4d1d9e849e56308b000000006a47304402202f65bfdb0c97e32e4942eb8dbee805ee11b06574d5c49ffbd40c229429c499c902202ba28af25932460e11bbccfcb743edde41157511cbcce6b5cccd96da9d983552012102a3d865cd50f3f9fca955bc893dadd77777cd25f37555ad758b759832b96294edffffffff02000f6b31000000001976a91450d0fab117005553fb8e2e7007a129fd087e06a788ac32d90d5b000000001976a9145f3a861393ae506efcd95987662c1d8be3cf233288ac00000000"
    }, 
    {
      "txid": "857d751773c6b4f66367bcdbca854b131c751b6a2089f2f02577ce564dab6cd1",
      "hash": "857d751773c6b4f66367bcdbca854b131c751b6a2089f2f02577ce564dab6cd1",
      "version": 1,
      "size": 225,
      "vsize": 225,
      "locktime": 0,
      "vin": [
        {
          "txid": "6d5cc2531aeb33c563c1c9e01d533e85ae01f9ef1786cd971e08080bc90a0391",
          "vout": 1,
          "scriptSig": {
            "asm": "304402205373246062090695c8bed7b217c6a8bbadb5a9e9c2fee87218f78940035e4eeb0220608449e45126b2c094a4d095f84a7958de750c54e9e4cb414313373f3ec405c8[ALL] 02381bf18258ab22edb07363e4b35579fac43e6881262ccbd953b24730623bc237",
            "hex": "47304402205373246062090695c8bed7b217c6a8bbadb5a9e9c2fee87218f78940035e4eeb0220608449e45126b2c094a4d095f84a7958de750c54e9e4cb414313373f3ec405c8012102381bf18258ab22edb07363e4b35579fac43e6881262ccbd953b24730623bc237"
          },
          "sequence": 4294967295
        }
      ],
      "vout": [
        {
          "value": 2.55800714,
          "n": 0,
          "scriptPubKey": {
            "asm": "OP_DUP OP_HASH160 9d76232f52eccb7ae7d99620a554696865cd065d OP_EQUALVERIFY OP_CHECKSIG",
            "hex": "76a9149d76232f52eccb7ae7d99620a554696865cd065d88ac",
            "reqSigs": 1,
            "type": "pubkeyhash",
            "addresses": [
              "LZaXsfSssbNLJFDh1YPstH3xbh8ByuvN4f"
            ]
          }
        }, 
        {
          "value": 5.73460259,
          "n": 1,
          "scriptPubKey": {
            "asm": "OP_DUP OP_HASH160 c18fba210814b9210abb19f269cab98ecdb01ced OP_EQUALVERIFY OP_CHECKSIG",
            "hex": "76a914c18fba210814b9210abb19f269cab98ecdb01ced88ac",
            "reqSigs": 1,
            "type": "pubkeyhash",
            "addresses": [
              "LcsQrZtoDpAEPd66AUB1RRXadbwkLtFJqx"
            ]
          }
        }
      ],
      "hex": "010000000191030ac90b08081e97cd8617eff901ae853e531de0c9c163c533eb1a53c25c6d010000006a47304402205373246062090695c8bed7b217c6a8bbadb5a9e9c2fee87218f78940035e4eeb0220608449e45126b2c094a4d095f84a7958de750c54e9e4cb414313373f3ec405c8012102381bf18258ab22edb07363e4b35579fac43e6881262ccbd953b24730623bc237ffffffff028a353f0f000000001976a9149d76232f52eccb7ae7d99620a554696865cd065d88ac234f2e22000000001976a914c18fba210814b9210abb19f269cab98ecdb01ced88ac00000000"
    }, 
    {
      "txid": "50a63dd0422c0e3f100f7e7b98b43b3b2c520c5399d0e0bf5794104037e980df",
      "hash": "50a63dd0422c0e3f100f7e7b98b43b3b2c520c5399d0e0bf5794104037e980df",
      "version": 1,
      "size": 225,
      "vsize": 225,
      "locktime": 0,
      "vin": [
        {
          "txid": "8dc4074d2746261f6f1025abb50e13ae8628e46962d017a8a1859d90515d18e2",
          "vout": 1,
          "scriptSig": {
            "asm": "304402201d7d8f3d1fb0f36e830ada5da0bbee8e2e08ee83338f8e243f3823915705fc1602207e356e37b2cebd29680e6f9df6ef9617f9d7ee33acfec17d5548988188dce3fd[ALL] 0365b3d21a5300e852c03675b76ec64bcc5567ceba584dbbe2600c2fe2abbf33a6",
            "hex": "47304402201d7d8f3d1fb0f36e830ada5da0bbee8e2e08ee83338f8e243f3823915705fc1602207e356e37b2cebd29680e6f9df6ef9617f9d7ee33acfec17d5548988188dce3fd01210365b3d21a5300e852c03675b76ec64bcc5567ceba584dbbe2600c2fe2abbf33a6"
          },
          "sequence": 4294967295
        }
      ],
      "vout": [
        {
          "value": 0.48814744,
          "n": 0,
          "scriptPubKey": {
            "asm": "OP_DUP OP_HASH160 bb96ccba9d4080c07601777e75631bdc4d84b12e OP_EQUALVERIFY OP_CHECKSIG",
            "hex": "76a914bb96ccba9d4080c07601777e75631bdc4d84b12e88ac",
            "reqSigs": 1,
            "type": "pubkeyhash",
            "addresses": [
              "LcKqGqJrEfeJfMwNK8vCHMtRwKAgi2t3zL"
            ]
          }
        }, 
        {
          "value": 1.99977400,
          "n": 1,
          "scriptPubKey": {
            "asm": "OP_DUP OP_HASH160 34223a2e8245507396d31ceb1d235058ef66f9f2 OP_EQUALVERIFY OP_CHECKSIG",
            "hex": "76a91434223a2e8245507396d31ceb1d235058ef66f9f288ac",
            "reqSigs": 1,
            "type": "pubkeyhash",
            "addresses": [
              "LPycQLiZTTS3LUGkqDjKzBE3Aqmt6QVuYF"
            ]
          }
        }
      ],
      "hex": "0100000001e2185d51909d85a1a817d06269e42886ae130eb5ab25106f1f2646274d07c48d010000006a47304402201d7d8f3d1fb0f36e830ada5da0bbee8e2e08ee83338f8e243f3823915705fc1602207e356e37b2cebd29680e6f9df6ef9617f9d7ee33acfec17d5548988188dce3fd01210365b3d21a5300e852c03675b76ec64bcc5567ceba584dbbe2600c2fe2abbf33a6ffffffff0298dae802000000001976a914bb96ccba9d4080c07601777e75631bdc4d84b12e88acb869eb0b000000001976a91434223a2e8245507396d31ceb1d235058ef66f9f288ac00000000"
    }
  ],
  "time": 1517311471,
  "mediantime": 1517310852,
  "nonce": 3494280604,
  "bits": "1a042eae",
  "difficulty": 4011378.762614286,
  "chainwork": "00000000000000000000000000000000000000000000003431143b66a85bc5ae",
  "previousblockhash": "daa3012120a7b27623127a8797c96afa42fbd1e6197fa8927b2aabae82d7eb3e",
  "nextblockhash": "47887a32d1641ffe0f595e9d8c97ee32a8331f5a9900e8226521907993070aa5"
}
