{
  "hash": "d09fb86311bead1c3b9ce928ffc9b449ae3aa349ae647e0d4b618605ed8e7b95",
  "confirmations": 2045,
  "strippedsize": 254,
  "size": 254,
  "weight": 1016,
  "height": 1358949,
  "version": 536870912,
  "versionHex": "20000000",
  "merkleroot": "edfd19b4acd22f6ef6c1c40329e1c588c9b64089914386accfd192ba66e34dab",
  "tx": [
    {
      "txid": "edfd19b4acd22f6ef6c1c40329e1c588c9b64089914386accfd192ba66e34dab",
      "hash": "edfd19b4acd22f6ef6c1c40329e1c588c9b64089914386accfd192ba66e34dab",
      "version": 1,
      "size": 173,
      "vsize": 173,
      "locktime": 0,
      "vin": [
        {
          "coinbase": "0365bc141b4d696e656420627920416e74506f6f6c20626a302042205a6edfcbfabe6d6debd4ab42dab2fb78b6defb385ae8fd62a51d6a8c0c959865b2a203fd2afa49070400000000000000ee0e00000000000001000000",
          "sequence": 4294967295
        }
      ],
      "vout": [
        {
          "value": 25.00000000,
          "n": 0,
          "scriptPubKey": {
            "asm": "OP_DUP OP_HASH160 0ff3ccc5e8be88afe24b5d634e5852d474dbdff1 OP_EQUALVERIFY OP_CHECKSIG",
            "hex": "76a9140ff3ccc5e8be88afe24b5d634e5852d474dbdff188ac",
            "reqSigs": 1,
            "type": "pubkeyhash",
            "addresses": [
              "LLgJTbzZMsRTCUF1NtvvL9SR1a4pVieW89"
            ]
          }
        }
      ],
      "hex": "01000000010000000000000000000000000000000000000000000000000000000000000000ffffffff580365bc141b4d696e656420627920416e74506f6f6c20626a302042205a6edfcbfabe6d6debd4ab42dab2fb78b6defb385ae8fd62a51d6a8c0c959865b2a203fd2afa49070400000000000000ee0e00000000000001000000ffffffff0100f90295000000001976a9140ff3ccc5e8be88afe24b5d634e5852d474dbdff188ac00000000"
    }
  ],
  "time": 1517215691,
  "mediantime": 1517215202,
  "nonce": 411797036,
  "bits": "1a042eae",
  "difficulty": 4011378.762614286,
  "chainwork": "0000000000000000000000000000000000000000000000338c56bcc9b8c98ecc",
  "previousblockhash": "4a019418301a499b236b2990be6532fd86b6ab6a529d7bac5b52405dd5e4bd6d",
  "nextblockhash": "a3032b8fe6c2345a2a7941062e824b32baa28447fd3c2e65701fe5f9dd1c990a"
}
