{
  "hash": "d0c71235e08f0ab13497a2004c1c91feddfdfa05dfa3c932b98003c330a81798",
  "confirmations": 3433,
  "strippedsize": 3152,
  "size": 3410,
  "weight": 12866,
  "height": 1357562,
  "version": 536870912,
  "versionHex": "20000000",
  "merkleroot": "994e3bf56757776514d71355c8564140d83de144aac69974b0d92d97b0e1afe0",
  "tx": [
    {
      "txid": "5aac2e5f0d2a2700b0e14992b9a20ec43af47e984d438618980b61e410497f7e",
      "hash": "073546ce9f67685d2a65eed0e2a4421bd006f6096950e48ce27817b14c5ba5a1",
      "version": 1,
      "size": 251,
      "vsize": 224,
      "locktime": 0,
      "vin": [
        {
          "coinbase": "03fab6140000000000fabe6d6d812dcb33fb33a750a482f477899ceb06ba91b9e7ab3cd43d42dfb34812796e4e010000000000000004a4de6b5a0462d0612208c1016bd5030000000a42570a6657042f42572f",
          "sequence": 4294967295
        }
      ],
      "vout": [
        {
          "value": 25.00639045,
          "n": 0,
          "scriptPubKey": {
            "asm": "OP_DUP OP_HASH160 5373bc9425fd49e6bfe522d3dfc85432da2cc023 OP_EQUALVERIFY OP_CHECKSIG",
            "hex": "76a9145373bc9425fd49e6bfe522d3dfc85432da2cc02388ac",
            "reqSigs": 1,
            "type": "pubkeyhash",
            "addresses": [
              "LSqCzf5bPfkqGf94pJcfxWx5bZMPJE5XRf"
            ]
          }
        }, 
        {
          "value": 0.00000000,
          "n": 1,
          "scriptPubKey": {
            "asm": "OP_RETURN aa21a9edbe695b7d96c0ad6bce668239bcd1e445ecbb7ba78ccc6c349adc3c4b10e58e8c",
            "hex": "6a24aa21a9edbe695b7d96c0ad6bce668239bcd1e445ecbb7ba78ccc6c349adc3c4b10e58e8c",
            "type": "nulldata"
          }
        }
      ],
      "hex": "010000000001010000000000000000000000000000000000000000000000000000000000000000ffffffff5303fab6140000000000fabe6d6d812dcb33fb33a750a482f477899ceb06ba91b9e7ab3cd43d42dfb34812796e4e010000000000000004a4de6b5a0462d0612208c1016bd5030000000a42570a6657042f42572fffffffff0245b90c95000000001976a9145373bc9425fd49e6bfe522d3dfc85432da2cc02388ac0000000000000000266a24aa21a9edbe695b7d96c0ad6bce668239bcd1e445ecbb7ba78ccc6c349adc3c4b10e58e8c0120000000000000000000000000000000000000000000000000000000000000000000000000"
    }, 
    {
      "txid": "d6b249e78462b2bdf585290bf11be464853722a2e7d7a6383b6e9ecd21c55514",
      "hash": "d6b249e78462b2bdf585290bf11be464853722a2e7d7a6383b6e9ecd21c55514",
      "version": 1,
      "size": 225,
      "vsize": 225,
      "locktime": 0,
      "vin": [
        {
          "txid": "2881471336666e8f9c87fd3e947d78e38381cae55f559602e19d1e7c138a50b5",
          "vout": 0,
          "scriptSig": {
            "asm": "30440220672059e2d5a42e90c318cdf40eee78c789b8f0ca6844cd247956ec89305a3c510220403efe3d175c51c5c86d2f1bf881e1cd5e965713599b218a936285af875e57f1[ALL] 038f73940926df28a043089066186d3d8ff0ec690a2c32e72f3cf2dd9c0d3863e0",
            "hex": "4730440220672059e2d5a42e90c318cdf40eee78c789b8f0ca6844cd247956ec89305a3c510220403efe3d175c51c5c86d2f1bf881e1cd5e965713599b218a936285af875e57f10121038f73940926df28a043089066186d3d8ff0ec690a2c32e72f3cf2dd9c0d3863e0"
          },
          "sequence": 4294967295
        }
      ],
      "vout": [
        {
          "value": 1.76943000,
          "n": 0,
          "scriptPubKey": {
            "asm": "OP_DUP OP_HASH160 caa3bec389028189b3905265c8effd4bc9304835 OP_EQUALVERIFY OP_CHECKSIG",
            "hex": "76a914caa3bec389028189b3905265c8effd4bc930483588ac",
            "reqSigs": 1,
            "type": "pubkeyhash",
            "addresses": [
              "LdhQvBCgjPny4Wn3XqVieeUzx3MPa7ixMW"
            ]
          }
        }, 
        {
          "value": 102.00100300,
          "n": 1,
          "scriptPubKey": {
            "asm": "OP_DUP OP_HASH160 66d2918f2389ec3b9b248eb3e7eea33feb66b4e9 OP_EQUALVERIFY OP_CHECKSIG",
            "hex": "76a91466d2918f2389ec3b9b248eb3e7eea33feb66b4e988ac",
            "reqSigs": 1,
            "type": "pubkeyhash",
            "addresses": [
              "LUbdSLnHrgPatFudPMe97iRbtcVX4cKXbW"
            ]
          }
        }
      ],
      "hex": "0100000001b5508a137c1e9de10296555fe5ca8183e3787d943efd879c8f6e663613478128000000006a4730440220672059e2d5a42e90c318cdf40eee78c789b8f0ca6844cd247956ec89305a3c510220403efe3d175c51c5c86d2f1bf881e1cd5e965713599b218a936285af875e57f10121038f73940926df28a043089066186d3d8ff0ec690a2c32e72f3cf2dd9c0d3863e0ffffffff0298ef8b0a000000001976a914caa3bec389028189b3905265c8effd4bc930483588accc2df95f020000001976a91466d2918f2389ec3b9b248eb3e7eea33feb66b4e988ac00000000"
    }, 
    {
      "txid": "4ece9af43ae2e31229ebc722237485dddd1182f9f55ad6f956a0513bbed05d5a",
      "hash": "4ece9af43ae2e31229ebc722237485dddd1182f9f55ad6f956a0513bbed05d5a",
      "version": 1,
      "size": 225,
      "vsize": 225,
      "locktime": 0,
      "vin": [
        {
          "txid": "1569e1463f488372e1c1becb167225faedd7931af2c6b57137e0161fddcf01e3",
          "vout": 0,
          "scriptSig": {
            "asm": "304402205bfcb4739d87768d806bf9c385ad709a6ee2428785fadf699d81cc3e2909f31e0220288a98722573af5d34a3bb98751d57266f1039a9ad98c132458ec0a52f3ab429[ALL] 020beaf3fcb9e9966b1ae71402be9d1da7dec775c922d7b31ede40014b168a4485",
            "hex": "47304402205bfcb4739d87768d806bf9c385ad709a6ee2428785fadf699d81cc3e2909f31e0220288a98722573af5d34a3bb98751d57266f1039a9ad98c132458ec0a52f3ab4290121020beaf3fcb9e9966b1ae71402be9d1da7dec775c922d7b31ede40014b168a4485"
          },
          "sequence": 4294967295
        }
      ],
      "vout": [
        {
          "value": 1.14856717,
          "n": 0,
          "scriptPubKey": {
            "asm": "OP_DUP OP_HASH160 1e0af666f17cb16aed453f7029a22ad3c385b273 OP_EQUALVERIFY OP_CHECKSIG",
            "hex": "76a9141e0af666f17cb16aed453f7029a22ad3c385b27388ac",
            "reqSigs": 1,
            "type": "pubkeyhash",
            "addresses": [
              "LMxoff2EQPB5ac3qGgydRMpjJ9oqHgJ4fG"
            ]
          }
        }, 
        {
          "value": 4.17231422,
          "n": 1,
          "scriptPubKey": {
            "asm": "OP_DUP OP_HASH160 bf57400b93bedce7b280272c4871a55b309aadb9 OP_EQUALVERIFY OP_CHECKSIG",
            "hex": "76a914bf57400b93bedce7b280272c4871a55b309aadb988ac",
            "reqSigs": 1,
            "type": "pubkeyhash",
            "addresses": [
              "Lcffr6pcDRUAVCFAMF6FdYTiVj4zV1eBex"
            ]
          }
        }
      ],
      "hex": "0100000001e301cfdd1f16e03771b5c6f21a93d7edfa257216cbbec1e17283483f46e16915000000006a47304402205bfcb4739d87768d806bf9c385ad709a6ee2428785fadf699d81cc3e2909f31e0220288a98722573af5d34a3bb98751d57266f1039a9ad98c132458ec0a52f3ab4290121020beaf3fcb9e9966b1ae71402be9d1da7dec775c922d7b31ede40014b168a4485ffffffff020d93d806000000001976a9141e0af666f17cb16aed453f7029a22ad3c385b27388ac3e72de18000000001976a914bf57400b93bedce7b280272c4871a55b309aadb988ac00000000"
    }, 
    {
      "txid": "1ce07f5f70184586281fb419ad7f039778763e3673ceba274971e0fc6766c436",
      "hash": "1ce07f5f70184586281fb419ad7f039778763e3673ceba274971e0fc6766c436",
      "version": 1,
      "size": 225,
      "vsize": 225,
      "locktime": 0,
      "vin": [
        {
          "txid": "c6354f9bdb5346c82a804e190d58a96a04d89248967fc1d7a0a5bc595b4cfc5a",
          "vout": 0,
          "scriptSig": {
            "asm": "30440220046353dd0bed0e67415822cac3ca749cc844801b856d80eed4b0791c83432bc8022043f2f969f8cd0564cae1f0c871f18a91c5ac83c4d7991d7645ec8accaf5b800b[ALL] 0384a9a36de00797765bb8cbd04dabb5aa68695b13ab3d76e64a85d79f0c76db7f",
            "hex": "4730440220046353dd0bed0e67415822cac3ca749cc844801b856d80eed4b0791c83432bc8022043f2f969f8cd0564cae1f0c871f18a91c5ac83c4d7991d7645ec8accaf5b800b01210384a9a36de00797765bb8cbd04dabb5aa68695b13ab3d76e64a85d79f0c76db7f"
          },
          "sequence": 4294967295
        }
      ],
      "vout": [
        {
          "value": 14.52584739,
          "n": 0,
          "scriptPubKey": {
            "asm": "OP_DUP OP_HASH160 8a4fd1372b1dd683fede7d68f2332fae2e9c9f71 OP_EQUALVERIFY OP_CHECKSIG",
            "hex": "76a9148a4fd1372b1dd683fede7d68f2332fae2e9c9f7188ac",
            "reqSigs": 1,
            "type": "pubkeyhash",
            "addresses": [
              "LXqH8V6ZtsHBrURFbVxHR59KA24qcdosN3"
            ]
          }
        }, 
        {
          "value": 26.88800000,
          "n": 1,
          "scriptPubKey": {
            "asm": "OP_DUP OP_HASH160 eebb4b0e3fec51ef6f99b38447c9fb752c0f0564 OP_EQUALVERIFY OP_CHECKSIG",
            "hex": "76a914eebb4b0e3fec51ef6f99b38447c9fb752c0f056488ac",
            "reqSigs": 1,
            "type": "pubkeyhash",
            "addresses": [
              "LgzFTE97zHq5RRmBzGreovFC1hkgxm2h2F"
            ]
          }
        }
      ],
      "hex": "01000000015afc4c5b59bca5a0d7c17f964892d8046aa9580d194e802ac84653db9b4f35c6000000006a4730440220046353dd0bed0e67415822cac3ca749cc844801b856d80eed4b0791c83432bc8022043f2f969f8cd0564cae1f0c871f18a91c5ac83c4d7991d7645ec8accaf5b800b01210384a9a36de00797765bb8cbd04dabb5aa68695b13ab3d76e64a85d79f0c76db7fffffffff0223af9456000000001976a9148a4fd1372b1dd683fede7d68f2332fae2e9c9f7188ac00d543a0000000001976a914eebb4b0e3fec51ef6f99b38447c9fb752c0f056488ac00000000"
    }, 
    {
      "txid": "17090ec659f25d2ea96078edf4011016989dd92d09427191dc927987f58382ec",
      "hash": "17693bdbf5fcc9fab06475bdeea6035dad05100ba57be259661456e3f05323ca",
      "version": 1,
      "size": 374,
      "vsize": 208,
      "locktime": 0,
      "vin": [
        {
          "txid": "917bb5f31364c8c7cdce52d4fa57d3bf616d16986f0451ed8d4f3580e2b014dd",
          "vout": 1,
          "scriptSig": {
            "asm": "00207975c3f0d1bf8b6205e1c664d703c93d68409676bf17c5e78cdece78bdbf3dbf",
            "hex": "2200207975c3f0d1bf8b6205e1c664d703c93d68409676bf17c5e78cdece78bdbf3dbf"
          },
          "txinwitness": [
            "", 
            "3045022100ec4feda1e1e16cc4d2ee3d0777d1abf256f90b435fd2cdf6f64b8372140fe15c022069357fd76b703ded56ae41c57010fa9f4cd994a953f97ad43064f7f80105140101", 
            "3045022100fa06a6c2cf65d2a5133c5256af92875479f0d45f70e4693fa8b0e4f42a1c5c8f02202cb628ea74fc39b30dff0938cff7fe4b414099b8f8458944d9c2cc54a0cdda5901", 
            "522102611be09a0c6a571c8f68adb2481e938888756d93d4ee5b670f08c16e939b7f1a21022cc7a96a72ef014bf078a6489644e2edb05bb216d30b4f28363b637fe4463fd652ae"
          ],
          "sequence": 4294967295
        }
      ],
      "vout": [
        {
          "value": 0.01231800,
          "n": 0,
          "scriptPubKey": {
            "asm": "OP_DUP OP_HASH160 9b6110e15f4b696b877758259f71670247ca91b9 OP_EQUALVERIFY OP_CHECKSIG",
            "hex": "76a9149b6110e15f4b696b877758259f71670247ca91b988ac",
            "reqSigs": 1,
            "type": "pubkeyhash",
            "addresses": [
              "LZPXHCvaSn3pAbj7MUh1sxGN9dVgvHgTuu"
            ]
          }
        }, 
        {
          "value": 0.88035244,
          "n": 1,
          "scriptPubKey": {
            "asm": "OP_HASH160 486ce63d83e8406016f310cd321d36bbdd10d412 OP_EQUAL",
            "hex": "a914486ce63d83e8406016f310cd321d36bbdd10d41287",
            "reqSigs": 1,
            "type": "scripthash",
            "addresses": [
              "MEW7Lhk6QzBLmCNp5pmpYzwv1KAcKYsSQp"
            ]
          }
        }
      ],
      "hex": "01000000000101dd14b0e280354f8ded51046f98166d61bfd357fad452cecdc7c86413f3b57b9101000000232200207975c3f0d1bf8b6205e1c664d703c93d68409676bf17c5e78cdece78bdbf3dbfffffffff02b8cb1200000000001976a9149b6110e15f4b696b877758259f71670247ca91b988acac4f3f050000000017a914486ce63d83e8406016f310cd321d36bbdd10d412870400483045022100ec4feda1e1e16cc4d2ee3d0777d1abf256f90b435fd2cdf6f64b8372140fe15c022069357fd76b703ded56ae41c57010fa9f4cd994a953f97ad43064f7f80105140101483045022100fa06a6c2cf65d2a5133c5256af92875479f0d45f70e4693fa8b0e4f42a1c5c8f02202cb628ea74fc39b30dff0938cff7fe4b414099b8f8458944d9c2cc54a0cdda590147522102611be09a0c6a571c8f68adb2481e938888756d93d4ee5b670f08c16e939b7f1a21022cc7a96a72ef014bf078a6489644e2edb05bb216d30b4f28363b637fe4463fd652ae00000000"
    }, 
    {
      "txid": "e5765d8b44159a9cf90823f735d08e4ea267d94d8a737175b44df143fb9444ba",
      "hash": "e5765d8b44159a9cf90823f735d08e4ea267d94d8a737175b44df143fb9444ba",
      "version": 1,
      "size": 225,
      "vsize": 225,
      "locktime": 0,
      "vin": [
        {
          "txid": "bfbd51cd58e6046706e341ff84519f3078a5abf4865b99fe88a9b7a145286d4e",
          "vout": 1,
          "scriptSig": {
            "asm": "30440220101644cfff970ef931343fba9923038cf778e31ed663a5c3cbffff1df067c77f022000f3041df877ee9d4349e80c49cbd46016e1a85a52ac41c10a4aefd16c9deda9[ALL] 02eb7965026f17a3d78ee8aee16f0cf7ec4b342098b15cdadabfdfefa1878e1391",
            "hex": "4730440220101644cfff970ef931343fba9923038cf778e31ed663a5c3cbffff1df067c77f022000f3041df877ee9d4349e80c49cbd46016e1a85a52ac41c10a4aefd16c9deda9012102eb7965026f17a3d78ee8aee16f0cf7ec4b342098b15cdadabfdfefa1878e1391"
          },
          "sequence": 4294967294
        }
      ],
      "vout": [
        {
          "value": 0.04176085,
          "n": 0,
          "scriptPubKey": {
            "asm": "OP_DUP OP_HASH160 93104d461d94912104c2c8fbc3d2e221e11e9364 OP_EQUALVERIFY OP_CHECKSIG",
            "hex": "76a91493104d461d94912104c2c8fbc3d2e221e11e936488ac",
            "reqSigs": 1,
            "type": "pubkeyhash",
            "addresses": [
              "LYdZ85ri14NwuDbfBXrYN98qvvuYuaVbx8"
            ]
          }
        }, 
        {
          "value": 0.06392323,
          "n": 1,
          "scriptPubKey": {
            "asm": "OP_DUP OP_HASH160 2aad0bb61934ee09d2226d9c517dea44b36cdfd7 OP_EQUALVERIFY OP_CHECKSIG",
            "hex": "76a9142aad0bb61934ee09d2226d9c517dea44b36cdfd788ac",
            "reqSigs": 1,
            "type": "pubkeyhash",
            "addresses": [
              "LP7bwhWNJ6xEdtp11U2Wh1LNqaBrWjCELy"
            ]
          }
        }
      ],
      "hex": "01000000014e6d2845a1b7a988fe995b86f4aba578309f5184ff41e3066704e658cd51bdbf010000006a4730440220101644cfff970ef931343fba9923038cf778e31ed663a5c3cbffff1df067c77f022000f3041df877ee9d4349e80c49cbd46016e1a85a52ac41c10a4aefd16c9deda9012102eb7965026f17a3d78ee8aee16f0cf7ec4b342098b15cdadabfdfefa1878e1391feffffff02d5b83f00000000001976a91493104d461d94912104c2c8fbc3d2e221e11e936488ac038a6100000000001976a9142aad0bb61934ee09d2226d9c517dea44b36cdfd788ac00000000"
    }, 
    {
      "txid": "e3301baba3f4fe4f536b6de624f07ba1703c4a8e03b1dae76efdf24a02034d23",
      "hash": "e3301baba3f4fe4f536b6de624f07ba1703c4a8e03b1dae76efdf24a02034d23",
      "version": 1,
      "size": 225,
      "vsize": 225,
      "locktime": 0,
      "vin": [
        {
          "txid": "08886166794f6f66c9e2e1526f2973a60837aa6048c17f0a0516be04e39279d0",
          "vout": 0,
          "scriptSig": {
            "asm": "304402206cd781973e81d40cf9017bcfb4eed362b3359fd46af3cb8e6b8994910f9171bd022055e9b0e80480a20f786bb0768d76c5e2f21a049a7011d43a5bbf21ab52e7ec3f[ALL] 03a6ead6311c0ec4e5cd8a9f218df5de0464a7f53e515ec4e0a2e59326c6d0dbcc",
            "hex": "47304402206cd781973e81d40cf9017bcfb4eed362b3359fd46af3cb8e6b8994910f9171bd022055e9b0e80480a20f786bb0768d76c5e2f21a049a7011d43a5bbf21ab52e7ec3f012103a6ead6311c0ec4e5cd8a9f218df5de0464a7f53e515ec4e0a2e59326c6d0dbcc"
          },
          "sequence": 4294967295
        }
      ],
      "vout": [
        {
          "value": 90.10560120,
          "n": 0,
          "scriptPubKey": {
            "asm": "OP_DUP OP_HASH160 57cca4eefc071fdeb683d1bb4e50aa444aa5e74c OP_EQUALVERIFY OP_CHECKSIG",
            "hex": "76a91457cca4eefc071fdeb683d1bb4e50aa444aa5e74c88ac",
            "reqSigs": 1,
            "type": "pubkeyhash",
            "addresses": [
              "LTECCqQxpCQhcC9MCgUeyNPi7hw7kSCYfJ"
            ]
          }
        }, 
        {
          "value": 2.09977400,
          "n": 1,
          "scriptPubKey": {
            "asm": "OP_DUP OP_HASH160 8ade8b5cc096355548b3f64747d751eecf0df275 OP_EQUALVERIFY OP_CHECKSIG",
            "hex": "76a9148ade8b5cc096355548b3f64747d751eecf0df27588ac",
            "reqSigs": 1,
            "type": "pubkeyhash",
            "addresses": [
              "LXtE7LhfqjQAegqa4XvswNqYKZhVP8gAWf"
            ]
          }
        }
      ],
      "hex": "0100000001d07992e304be16050a7fc14860aa3708a673296f52e1e2c9666f4f7966618808000000006a47304402206cd781973e81d40cf9017bcfb4eed362b3359fd46af3cb8e6b8994910f9171bd022055e9b0e80480a20f786bb0768d76c5e2f21a049a7011d43a5bbf21ab52e7ec3f012103a6ead6311c0ec4e5cd8a9f218df5de0464a7f53e515ec4e0a2e59326c6d0dbccffffffff02783c1219020000001976a91457cca4eefc071fdeb683d1bb4e50aa444aa5e74c88ac3800840c000000001976a9148ade8b5cc096355548b3f64747d751eecf0df27588ac00000000"
    }, 
    {
      "txid": "68a4edd361edbde89cfeb1a5712c7cf6060fd1b995068096ebacb49d65362324",
      "hash": "68a4edd361edbde89cfeb1a5712c7cf6060fd1b995068096ebacb49d65362324",
      "version": 1,
      "size": 225,
      "vsize": 225,
      "locktime": 0,
      "vin": [
        {
          "txid": "ded65f4d997b03c0772db58fd4330fb7dedf2eec8e3e761f61401945f09944cf",
          "vout": 287,
          "scriptSig": {
            "asm": "3044022041c0abfc6c33a43f7efde355265c27748c086ccd3856fcb9486a4230bc54a584022046c81b2cf5b7a57f851de5f84d10eb4745d6d5b1715bb8e66203461dea3e08be[ALL] 035d10655ad871bf0027d463558881050a7f549a5ddcff3e78684c38ac55c0d267",
            "hex": "473044022041c0abfc6c33a43f7efde355265c27748c086ccd3856fcb9486a4230bc54a584022046c81b2cf5b7a57f851de5f84d10eb4745d6d5b1715bb8e66203461dea3e08be0121035d10655ad871bf0027d463558881050a7f549a5ddcff3e78684c38ac55c0d267"
          },
          "sequence": 4294967295
        }
      ],
      "vout": [
        {
          "value": 0.03118564,
          "n": 0,
          "scriptPubKey": {
            "asm": "OP_DUP OP_HASH160 0601c9d05f664f7e76fa641e23c571b2af3d5707 OP_EQUALVERIFY OP_CHECKSIG",
            "hex": "76a9140601c9d05f664f7e76fa641e23c571b2af3d570788ac",
            "reqSigs": 1,
            "type": "pubkeyhash",
            "addresses": [
              "LKmiTcu4wZ8vQfX9S7BR97p5qKgtAZGmNS"
            ]
          }
        }, 
        {
          "value": 0.00055208,
          "n": 1,
          "scriptPubKey": {
            "asm": "OP_DUP OP_HASH160 4cb0f08bb54c24567cd988d15e195d1a035bef58 OP_EQUALVERIFY OP_CHECKSIG",
            "hex": "76a9144cb0f08bb54c24567cd988d15e195d1a035bef5888ac",
            "reqSigs": 1,
            "type": "pubkeyhash",
            "addresses": [
              "LSDTamoXi1EFx3jwfTLUc6D7toPqxgs29a"
            ]
          }
        }
      ],
      "hex": "0100000001cf4499f0451940611f763e8eec2edfdeb70f33d48fb52d77c0037b994d5fd6de1f0100006a473044022041c0abfc6c33a43f7efde355265c27748c086ccd3856fcb9486a4230bc54a584022046c81b2cf5b7a57f851de5f84d10eb4745d6d5b1715bb8e66203461dea3e08be0121035d10655ad871bf0027d463558881050a7f549a5ddcff3e78684c38ac55c0d267ffffffff02e4952f00000000001976a9140601c9d05f664f7e76fa641e23c571b2af3d570788aca8d70000000000001976a9144cb0f08bb54c24567cd988d15e195d1a035bef5888ac00000000"
    }, 
    {
      "txid": "c416cac948951edd99a7e8a535d721821f591ad60bfc86bcc3146f49226df36f",
      "hash": "c416cac948951edd99a7e8a535d721821f591ad60bfc86bcc3146f49226df36f",
      "version": 2,
      "size": 225,
      "vsize": 225,
      "locktime": 1357560,
      "vin": [
        {
          "txid": "d5ce3b4cb2d9ca77e1f879ce524081b31170fedc371a87d9e2809568cbc1ed12",
          "vout": 1,
          "scriptSig": {
            "asm": "3044022009a0f9ad1ffbe774c81ffa1bb423988203414132021f3ecd1e0ab4f676e7acdf02206db81162b130f0d013f846f55b5941ace6d6773df79f1dcd07c2f08b5d5eb040[ALL] 02560df9c86e6a0ae2798bf59d862f03b34b0320f568b93858eeb28604a3f0af69",
            "hex": "473044022009a0f9ad1ffbe774c81ffa1bb423988203414132021f3ecd1e0ab4f676e7acdf02206db81162b130f0d013f846f55b5941ace6d6773df79f1dcd07c2f08b5d5eb040012102560df9c86e6a0ae2798bf59d862f03b34b0320f568b93858eeb28604a3f0af69"
          },
          "sequence": 4294967294
        }
      ],
      "vout": [
        {
          "value": 14.24632957,
          "n": 0,
          "scriptPubKey": {
            "asm": "OP_DUP OP_HASH160 db3bb8376a01c42abc07d109925ed8024c8dfa94 OP_EQUALVERIFY OP_CHECKSIG",
            "hex": "76a914db3bb8376a01c42abc07d109925ed8024c8dfa9488ac",
            "reqSigs": 1,
            "type": "pubkeyhash",
            "addresses": [
              "LfD9nca9PdF6VrjN6xazr3N8rzcZC2n1AE"
            ]
          }
        }, 
        {
          "value": 0.37137446,
          "n": 1,
          "scriptPubKey": {
            "asm": "OP_DUP OP_HASH160 c31309786c2d34578238a2335bebbd711175f6a0 OP_EQUALVERIFY OP_CHECKSIG",
            "hex": "76a914c31309786c2d34578238a2335bebbd711175f6a088ac",
            "reqSigs": 1,
            "type": "pubkeyhash",
            "addresses": [
              "Ld1QqLJ1dm52eSoHqpLB1WnB87V8jnmTzu"
            ]
          }
        }
      ],
      "hex": "020000000112edc1cb689580e2d9871a37dcfe7011b3814052ce79f8e177cad9b24c3bced5010000006a473044022009a0f9ad1ffbe774c81ffa1bb423988203414132021f3ecd1e0ab4f676e7acdf02206db81162b130f0d013f846f55b5941ace6d6773df79f1dcd07c2f08b5d5eb040012102560df9c86e6a0ae2798bf59d862f03b34b0320f568b93858eeb28604a3f0af69feffffff027d2cea54000000001976a914db3bb8376a01c42abc07d109925ed8024c8dfa9488ac26ac3602000000001976a914c31309786c2d34578238a2335bebbd711175f6a088acf8b61400"
    }, 
    {
      "txid": "4015c11a52863b4075f9cbf5cd08bff2be0fb623999666338b7af18d537e5f7b",
      "hash": "4015c11a52863b4075f9cbf5cd08bff2be0fb623999666338b7af18d537e5f7b",
      "version": 1,
      "size": 225,
      "vsize": 225,
      "locktime": 0,
      "vin": [
        {
          "txid": "46bf878dd1cb44b34143257c8d3bde906d3b2d576d8b749fdd5ade82aaaabc33",
          "vout": 0,
          "scriptSig": {
            "asm": "304402200487d6d6ca77d395096dc984db1a81307c6da72ea0d42dbe66eb1fb656c00f4002203e8a6986268db9764c826fdd65de88ebe67deba0a2eb7575b8490e358cee8458[ALL] 03054d04a8b7a730b35cc412d9e9c1e68c0810549a15946ede82089fcedf51bde1",
            "hex": "47304402200487d6d6ca77d395096dc984db1a81307c6da72ea0d42dbe66eb1fb656c00f4002203e8a6986268db9764c826fdd65de88ebe67deba0a2eb7575b8490e358cee8458012103054d04a8b7a730b35cc412d9e9c1e68c0810549a15946ede82089fcedf51bde1"
          },
          "sequence": 4294967295
        }
      ],
      "vout": [
        {
          "value": 81.04617351,
          "n": 0,
          "scriptPubKey": {
            "asm": "OP_DUP OP_HASH160 dfcd687604f2073115668a9d40eff6ccb395409a OP_EQUALVERIFY OP_CHECKSIG",
            "hex": "76a914dfcd687604f2073115668a9d40eff6ccb395409a88ac",
            "reqSigs": 1,
            "type": "pubkeyhash",
            "addresses": [
              "LfdK1zXwgoEavtANHWTa21G8hdvemfZcoD"
            ]
          }
        }, 
        {
          "value": 11.46034000,
          "n": 1,
          "scriptPubKey": {
            "asm": "OP_DUP OP_HASH160 9f25a4d4aee5a0cda03e40ddc0a66e2dec1d3439 OP_EQUALVERIFY OP_CHECKSIG",
            "hex": "76a9149f25a4d4aee5a0cda03e40ddc0a66e2dec1d343988ac",
            "reqSigs": 1,
            "type": "pubkeyhash",
            "addresses": [
              "LZjSoFoUUmZt3J8Zg9cLwHj7gNbnZutre2"
            ]
          }
        }
      ],
      "hex": "010000000133bcaaaa82de5add9f748b6d572d3b6d90de3b8d7c254341b344cbd18d87bf46000000006a47304402200487d6d6ca77d395096dc984db1a81307c6da72ea0d42dbe66eb1fb656c00f4002203e8a6986268db9764c826fdd65de88ebe67deba0a2eb7575b8490e358cee8458012103054d04a8b7a730b35cc412d9e9c1e68c0810549a15946ede82089fcedf51bde1ffffffff0287a512e3010000001976a914dfcd687604f2073115668a9d40eff6ccb395409a88ac50174f44000000001976a9149f25a4d4aee5a0cda03e40ddc0a66e2dec1d343988ac00000000"
    }, 
    {
      "txid": "e075d6e186cb398380c79abfac3c49229532a92a5dfe515c98975608ca012324",
      "hash": "e075d6e186cb398380c79abfac3c49229532a92a5dfe515c98975608ca012324",
      "version": 1,
      "size": 226,
      "vsize": 226,
      "locktime": 0,
      "vin": [
        {
          "txid": "4c333a69c605df4ba5dafb521a2f2f8792214749dcbe33621446c0aae6c95afc",
          "vout": 0,
          "scriptSig": {
            "asm": "3045022100d776c48232d1fc43505901d918558f5f519bfe99ab8f7b18ba649e2b0d9b8b3b02201ab24d13b917a8c61a913d54a8cdaa697446fb77c22b8e5da2bd23b9892abd70[ALL] 032b7a05b10af093daa0594c5bf984ee2b043713e35bf52579b122dd832c8f1ce7",
            "hex": "483045022100d776c48232d1fc43505901d918558f5f519bfe99ab8f7b18ba649e2b0d9b8b3b02201ab24d13b917a8c61a913d54a8cdaa697446fb77c22b8e5da2bd23b9892abd700121032b7a05b10af093daa0594c5bf984ee2b043713e35bf52579b122dd832c8f1ce7"
          },
          "sequence": 4294967295
        }
      ],
      "vout": [
        {
          "value": 1.99970000,
          "n": 0,
          "scriptPubKey": {
            "asm": "OP_DUP OP_HASH160 3bd69abe5c624645fe8d4016d2a22f3f9e382985 OP_EQUALVERIFY OP_CHECKSIG",
            "hex": "76a9143bd69abe5c624645fe8d4016d2a22f3f9e38298588ac",
            "reqSigs": 1,
            "type": "pubkeyhash",
            "addresses": [
              "LQgMDWaZmZJQidVEcQKmcN4nBvvhHkqHwd"
            ]
          }
        }, 
        {
          "value": 90.73674107,
          "n": 1,
          "scriptPubKey": {
            "asm": "OP_DUP OP_HASH160 419062e2942db6df606b377065d062a358b5946e OP_EQUALVERIFY OP_CHECKSIG",
            "hex": "76a914419062e2942db6df606b377065d062a358b5946e88ac",
            "reqSigs": 1,
            "type": "pubkeyhash",
            "addresses": [
              "LRCd9pGv5oUFA8nA8MwgBfkmmgzi6Xh3rD"
            ]
          }
        }
      ],
      "hex": "0100000001fc5ac9e6aac046146233bedc49472192872f2f1a52fbdaa54bdf05c6693a334c000000006b483045022100d776c48232d1fc43505901d918558f5f519bfe99ab8f7b18ba649e2b0d9b8b3b02201ab24d13b917a8c61a913d54a8cdaa697446fb77c22b8e5da2bd23b9892abd700121032b7a05b10af093daa0594c5bf984ee2b043713e35bf52579b122dd832c8f1ce7ffffffff02d04ceb0b000000001976a9143bd69abe5c624645fe8d4016d2a22f3f9e38298588ac7b47d51c020000001976a914419062e2942db6df606b377065d062a358b5946e88ac00000000"
    }, 
    {
      "txid": "23f452c7e055e09ac29853d2372b079438ba457831303b546af633d838554359",
      "hash": "23f452c7e055e09ac29853d2372b079438ba457831303b546af633d838554359",
      "version": 1,
      "size": 226,
      "vsize": 226,
      "locktime": 0,
      "vin": [
        {
          "txid": "92fd9f1ffd8b6fcb95f7f375358d4d2cbf37344ab4019ae68c71b8bf38be8e5c",
          "vout": 1,
          "scriptSig": {
            "asm": "3045022100fca963b900b45fde9e022000964700633f69bb362eadf695de84732af8aad2ad02200e753f423b1403183ef3c9ff3b996c57b49186da3feea4e5716cb82c6a3dc2da[ALL] 02ff32a1c1ce99be12fafcee76b2ff178146f70bd7d94e0aece0233f9e0a07d97c",
            "hex": "483045022100fca963b900b45fde9e022000964700633f69bb362eadf695de84732af8aad2ad02200e753f423b1403183ef3c9ff3b996c57b49186da3feea4e5716cb82c6a3dc2da012102ff32a1c1ce99be12fafcee76b2ff178146f70bd7d94e0aece0233f9e0a07d97c"
          },
          "sequence": 4294967295
        }
      ],
      "vout": [
        {
          "value": 3.87413646,
          "n": 0,
          "scriptPubKey": {
            "asm": "OP_DUP OP_HASH160 857ae69f732ec9810acf2a53c9f1d62e26fd7768 OP_EQUALVERIFY OP_CHECKSIG",
            "hex": "76a914857ae69f732ec9810acf2a53c9f1d62e26fd776888ac",
            "reqSigs": 1,
            "type": "pubkeyhash",
            "addresses": [
              "LXPjN2cct3KuUaLTcDEjNKyiyd5dVyP8uj"
            ]
          }
        }, 
        {
          "value": 88.43743577,
          "n": 1,
          "scriptPubKey": {
            "asm": "OP_DUP OP_HASH160 59d4ce4728f58279bcd83310d073d4eaf5c798a3 OP_EQUALVERIFY OP_CHECKSIG",
            "hex": "76a91459d4ce4728f58279bcd83310d073d4eaf5c798a388ac",
            "reqSigs": 1,
            "type": "pubkeyhash",
            "addresses": [
              "LTQwLHni96PF3854xjczHkwhSkwyo31L9p"
            ]
          }
        }
      ],
      "hex": "01000000015c8ebe38bfb8718ce69a01b44a3437bf2c4d8d3575f3f795cb6f8bfd1f9ffd92010000006b483045022100fca963b900b45fde9e022000964700633f69bb362eadf695de84732af8aad2ad02200e753f423b1403183ef3c9ff3b996c57b49186da3feea4e5716cb82c6a3dc2da012102ff32a1c1ce99be12fafcee76b2ff178146f70bd7d94e0aece0233f9e0a07d97cffffffff028e761717000000001976a914857ae69f732ec9810acf2a53c9f1d62e26fd776888ac59d1200f020000001976a91459d4ce4728f58279bcd83310d073d4eaf5c798a388ac00000000"
    }, 
    {
      "txid": "4fc300ec16a8306912b08ca00abce0969b6d8fadaaa563d70c0806c0b9623dc2",
      "hash": "4fc300ec16a8306912b08ca00abce0969b6d8fadaaa563d70c0806c0b9623dc2",
      "version": 1,
      "size": 226,
      "vsize": 226,
      "locktime": 0,
      "vin": [
        {
          "txid": "c8d8d3729e398c0a636d860439c330f3ddff86232a7a32a3ec1f321bbfba8a33",
          "vout": 1,
          "scriptSig": {
            "asm": "3045022100bd8a25f64fdf4ae49ff9d2fb624e883c2ee5547504f7795d237241654d93488a02201c9fdabed579def00b3e14b3f843ea5fbc4886617d5f290d908f4067b2132605[ALL] 023f648e93b7735171cd28c857f50e4ef455728f9931d56b65aa70fed3558f6240",
            "hex": "483045022100bd8a25f64fdf4ae49ff9d2fb624e883c2ee5547504f7795d237241654d93488a02201c9fdabed579def00b3e14b3f843ea5fbc4886617d5f290d908f4067b21326050121023f648e93b7735171cd28c857f50e4ef455728f9931d56b65aa70fed3558f6240"
          },
          "sequence": 4294967295
        }
      ],
      "vout": [
        {
          "value": 0.48281517,
          "n": 0,
          "scriptPubKey": {
            "asm": "OP_DUP OP_HASH160 d44d10a0eb2ef6dbf1d3c974cb3b0c5d91ef5cd6 OP_EQUALVERIFY OP_CHECKSIG",
            "hex": "76a914d44d10a0eb2ef6dbf1d3c974cb3b0c5d91ef5cd688ac",
            "reqSigs": 1,
            "type": "pubkeyhash",
            "addresses": [
              "LeaVqSwT2VWHHB2U275Z9UKjEDVo26wNtP"
            ]
          }
        }, 
        {
          "value": 91.14321493,
          "n": 1,
          "scriptPubKey": {
            "asm": "OP_DUP OP_HASH160 99d53abf2049d4b54041ce481610a2ff3e2b8158 OP_EQUALVERIFY OP_CHECKSIG",
            "hex": "76a91499d53abf2049d4b54041ce481610a2ff3e2b815888ac",
            "reqSigs": 1,
            "type": "pubkeyhash",
            "addresses": [
              "LZFM61MmYRDA4x6rLGqoBKmgoEBDMcdoJS"
            ]
          }
        }
      ],
      "hex": "0100000001338ababf1b321feca3327a2a2386ffddf330c33904866d630a8c399e72d3d8c8010000006b483045022100bd8a25f64fdf4ae49ff9d2fb624e883c2ee5547504f7795d237241654d93488a02201c9fdabed579def00b3e14b3f843ea5fbc4886617d5f290d908f4067b21326050121023f648e93b7735171cd28c857f50e4ef455728f9931d56b65aa70fed3558f6240ffffffff02adb7e002000000001976a914d44d10a0eb2ef6dbf1d3c974cb3b0c5d91ef5cd688ac5582411f020000001976a91499d53abf2049d4b54041ce481610a2ff3e2b815888ac00000000"
    }, 
    {
      "txid": "67ac23d90b1ba5aae3f25c78651c65c07929b44a5d45ab6e0fb9eff6660bd4e0",
      "hash": "67ac23d90b1ba5aae3f25c78651c65c07929b44a5d45ab6e0fb9eff6660bd4e0",
      "version": 1,
      "size": 226,
      "vsize": 226,
      "locktime": 0,
      "vin": [
        {
          "txid": "ebd191cc831de54b789e3e491b5a215a3d8d453fca9b7d6257e80be0e78a78eb",
          "vout": 0,
          "scriptSig": {
            "asm": "3045022100ec3d515d3f14bfef819c70498f2b578a871512c125eecba9cfaf423cce0ae84002201aad6eb08ec1b6dd55bb11b8fa394def7cd92efd6471bdf3de427a8047dd7612[ALL] 02602c40b66bd365cd498e74134c330447131e6e77a6ee273f9d4b6458c9161424",
            "hex": "483045022100ec3d515d3f14bfef819c70498f2b578a871512c125eecba9cfaf423cce0ae84002201aad6eb08ec1b6dd55bb11b8fa394def7cd92efd6471bdf3de427a8047dd7612012102602c40b66bd365cd498e74134c330447131e6e77a6ee273f9d4b6458c9161424"
          },
          "sequence": 4294967295
        }
      ],
      "vout": [
        {
          "value": 0.00054700,
          "n": 0,
          "scriptPubKey": {
            "asm": "OP_DUP OP_HASH160 b11e32e918c39b122b64b7de0b36443ebddd9914 OP_EQUALVERIFY OP_CHECKSIG",
            "hex": "76a914b11e32e918c39b122b64b7de0b36443ebddd991488ac",
            "reqSigs": 1,
            "type": "pubkeyhash",
            "addresses": [
              "LbNU3RPEdMTN43io1WVktdBFBvZrocGoYZ"
            ]
          }
        }, 
        {
          "value": 0.01146000,
          "n": 1,
          "scriptPubKey": {
            "asm": "OP_DUP OP_HASH160 b0940c5e5e5adf8f382284c201e6a8ba2577f470 OP_EQUALVERIFY OP_CHECKSIG",
            "hex": "76a914b0940c5e5e5adf8f382284c201e6a8ba2577f47088ac",
            "reqSigs": 1,
            "type": "pubkeyhash",
            "addresses": [
              "LbKcYYzcWoVXRKrPPoLszQoyCsUSyfMECM"
            ]
          }
        }
      ],
      "hex": "0100000001eb788ae7e00be857627d9bca3f458d3d5a215a1b493e9e784be51d83cc91d1eb000000006b483045022100ec3d515d3f14bfef819c70498f2b578a871512c125eecba9cfaf423cce0ae84002201aad6eb08ec1b6dd55bb11b8fa394def7cd92efd6471bdf3de427a8047dd7612012102602c40b66bd365cd498e74134c330447131e6e77a6ee273f9d4b6458c9161424ffffffff02acd50000000000001976a914b11e32e918c39b122b64b7de0b36443ebddd991488ac907c1100000000001976a914b0940c5e5e5adf8f382284c201e6a8ba2577f47088ac00000000"
    }
  ],
  "time": 1517018788,
  "mediantime": 1517017749,
  "nonce": 1028023440,
  "bits": "1a047f14",
  "difficulty": 3731199.183374282,
  "chainwork": "0000000000000000000000000000000000000000000000325518f60673917c7e",
  "previousblockhash": "05978895d9e3b1eaa7e0b2aacb3ddb62f39d7f19218ee812416347571dc7d56a",
  "nextblockhash": "6b4610d9361a3e499749d0244f9d4615e8b99b0f677297f6ccaf5ec4463d42be"
}
