{
  "hash": "d181e5244156e06cdeb6d19d7a7e01777bd7bcb19b390acb64abbbb9db17ba13",
  "confirmations": 1770,
  "strippedsize": 4866,
  "size": 5123,
  "weight": 19721,
  "height": 1359224,
  "version": 536870912,
  "versionHex": "20000000",
  "merkleroot": "ffc89af673425e3b2e1ee07d44366105cd3b6941722ca6272029934677790ee0",
  "tx": [
    {
      "txid": "817d2f91ec0984aab2e31e9044e33bad70e5238f4c7c679dc2699b8f3401efdd",
      "hash": "d8d5f5ddd86b43cd64e8822f9da3e45255f4d5c1c46186f2fde528707dbbbd73",
      "version": 1,
      "size": 253,
      "vsize": 226,
      "locktime": 0,
      "vin": [
        {
          "coinbase": "0378bd1441d69bdd59fa299e41d69bdd598986162f4c54432e544f502ffabe6d6dbabadca211c7939dc887e50ee91f391465b0b5e467afc6a8502b33fc58f8a60201000000000000006539f2a51200000000000000",
          "sequence": 4294967295
        }
      ],
      "vout": [
        {
          "value": 25.01084537,
          "n": 0,
          "scriptPubKey": {
            "asm": "OP_DUP OP_HASH160 0c617fdb2ea42aed30a509595ee21ba3f6688db0 OP_EQUALVERIFY OP_CHECKSIG",
            "hex": "76a9140c617fdb2ea42aed30a509595ee21ba3f6688db088ac",
            "reqSigs": 1,
            "type": "pubkeyhash",
            "addresses": [
              "LLMRAtr3qBje2ySEa3CnZ55LA4TQMWnRY3"
            ]
          }
        }, 
        {
          "value": 0.00000000,
          "n": 1,
          "scriptPubKey": {
            "asm": "OP_RETURN aa21a9ed8188e68c18e01473fb34c77140978ffcefd5b1cac00d327540a5afa20a61ef5e",
            "hex": "6a24aa21a9ed8188e68c18e01473fb34c77140978ffcefd5b1cac00d327540a5afa20a61ef5e",
            "type": "nulldata"
          }
        }
      ],
      "hex": "010000000001010000000000000000000000000000000000000000000000000000000000000000ffffffff550378bd1441d69bdd59fa299e41d69bdd598986162f4c54432e544f502ffabe6d6dbabadca211c7939dc887e50ee91f391465b0b5e467afc6a8502b33fc58f8a60201000000000000006539f2a51200000000000000ffffffff0279851395000000001976a9140c617fdb2ea42aed30a509595ee21ba3f6688db088ac0000000000000000266a24aa21a9ed8188e68c18e01473fb34c77140978ffcefd5b1cac00d327540a5afa20a61ef5e0120000000000000000000000000000000000000000000000000000000000000000000000000"
    }, 
    {
      "txid": "e1608ed27d3722572e3e5d0d264b344821d34cefc84046a8e95f2e7914d83bfb",
      "hash": "e1608ed27d3722572e3e5d0d264b344821d34cefc84046a8e95f2e7914d83bfb",
      "version": 1,
      "size": 223,
      "vsize": 223,
      "locktime": 1359222,
      "vin": [
        {
          "txid": "4834b4f658e1f4218fbf445d0d654d436d8a9c6d898e9489e111137f8dd790cf",
          "vout": 0,
          "scriptSig": {
            "asm": "3044022034aef473051b4457bf2ee3f99cd22feb238bd788b1e514e68d1178924b7b902b02204c2b4ff6b9733e3b4bda9b847d1605ba2b4bf54119e46c7d4b6e9baea34da1e8[ALL] 03a8b840783782af9d2d6f622317ea81c4b5a47fe6f81d3ec0b27a9505b3844302",
            "hex": "473044022034aef473051b4457bf2ee3f99cd22feb238bd788b1e514e68d1178924b7b902b02204c2b4ff6b9733e3b4bda9b847d1605ba2b4bf54119e46c7d4b6e9baea34da1e8012103a8b840783782af9d2d6f622317ea81c4b5a47fe6f81d3ec0b27a9505b3844302"
          },
          "sequence": 4294967294
        }
      ],
      "vout": [
        {
          "value": 327.79640992,
          "n": 0,
          "scriptPubKey": {
            "asm": "OP_DUP OP_HASH160 84cdba48a81a1aeca90d27ec95d39ceb8e3655b3 OP_EQUALVERIFY OP_CHECKSIG",
            "hex": "76a91484cdba48a81a1aeca90d27ec95d39ceb8e3655b388ac",
            "reqSigs": 1,
            "type": "pubkeyhash",
            "addresses": [
              "LXL9uk6SoRQwKFcBVUZjSP92fBNpPcm7xa"
            ]
          }
        }, 
        {
          "value": 15.66766670,
          "n": 1,
          "scriptPubKey": {
            "asm": "OP_HASH160 c43c64e2551b6b6ed0a91dce8ac674eb1ee31652 OP_EQUAL",
            "hex": "a914c43c64e2551b6b6ed0a91dce8ac674eb1ee3165287",
            "reqSigs": 1,
            "type": "scripthash",
            "addresses": [
              "MRnm2HNafESu4yAnALkCWyntPjWDBGLBy6"
            ]
          }
        }
      ],
      "hex": "0100000001cf90d78d7f1311e189948e896d9c8a6d434d650d5d44bf8f21f4e158f6b43448000000006a473044022034aef473051b4457bf2ee3f99cd22feb238bd788b1e514e68d1178924b7b902b02204c2b4ff6b9733e3b4bda9b847d1605ba2b4bf54119e46c7d4b6e9baea34da1e8012103a8b840783782af9d2d6f622317ea81c4b5a47fe6f81d3ec0b27a9505b3844302feffffff02a0a0d1a1070000001976a91484cdba48a81a1aeca90d27ec95d39ceb8e3655b388ac4ef6625d0000000017a914c43c64e2551b6b6ed0a91dce8ac674eb1ee316528776bd1400"
    }, 
    {
      "txid": "0be9b95271bc40b9110fcf3f921f6c35c3c5cf476d81071fcff823aec79e9891",
      "hash": "0be9b95271bc40b9110fcf3f921f6c35c3c5cf476d81071fcff823aec79e9891",
      "version": 1,
      "size": 225,
      "vsize": 225,
      "locktime": 0,
      "vin": [
        {
          "txid": "c89f2096ecd7b16dac272dc9e77d10f6382c77372775d856e6d9189c9890960f",
          "vout": 1,
          "scriptSig": {
            "asm": "304402203b67ce79c16de8723dd37cce4e9c46e62f1c31bde6109d7d2a2e8b216ca6ccdc02204a9ccab7d56a63b899b850cd2bdc9ba7740a1208730ce073a6a0a6926ba5db48[ALL] 03968718b19fb6f82dd0f774b7aea7df8eb8b370f66dfef340bfa31bd5661107f3",
            "hex": "47304402203b67ce79c16de8723dd37cce4e9c46e62f1c31bde6109d7d2a2e8b216ca6ccdc02204a9ccab7d56a63b899b850cd2bdc9ba7740a1208730ce073a6a0a6926ba5db48012103968718b19fb6f82dd0f774b7aea7df8eb8b370f66dfef340bfa31bd5661107f3"
          },
          "sequence": 4294967295
        }
      ],
      "vout": [
        {
          "value": 1.40344000,
          "n": 0,
          "scriptPubKey": {
            "asm": "OP_DUP OP_HASH160 6cd34f7f82880747b89d87d42065b732f18d2b7f OP_EQUALVERIFY OP_CHECKSIG",
            "hex": "76a9146cd34f7f82880747b89d87d42065b732f18d2b7f88ac",
            "reqSigs": 1,
            "type": "pubkeyhash",
            "addresses": [
              "LV9NP3XWsaL73PPzHYNs7hpCSsPw6WU9Ut"
            ]
          }
        }, 
        {
          "value": 160.01440145,
          "n": 1,
          "scriptPubKey": {
            "asm": "OP_DUP OP_HASH160 74da49d522e58582545c9749fda88a1fb5a52b77 OP_EQUALVERIFY OP_CHECKSIG",
            "hex": "76a91474da49d522e58582545c9749fda88a1fb5a52b7788ac",
            "reqSigs": 1,
            "type": "pubkeyhash",
            "addresses": [
              "LVsp9Qj1P458eNDKyXYUp8ToJXKy6gb9Db"
            ]
          }
        }
      ],
      "hex": "01000000010f9690989c18d9e656d8752737772c38f6107de7c92d27ac6db1d7ec96209fc8010000006a47304402203b67ce79c16de8723dd37cce4e9c46e62f1c31bde6109d7d2a2e8b216ca6ccdc02204a9ccab7d56a63b899b850cd2bdc9ba7740a1208730ce073a6a0a6926ba5db48012103968718b19fb6f82dd0f774b7aea7df8eb8b370f66dfef340bfa31bd5661107f3ffffffff02c07a5d08000000001976a9146cd34f7f82880747b89d87d42065b732f18d2b7f88ac9199c2b9030000001976a91474da49d522e58582545c9749fda88a1fb5a52b7788ac00000000"
    }, 
    {
      "txid": "707b9608775ac81f73c99c90ff0d5aea00dff25f76f7b0ef226a8d227121e6fe",
      "hash": "707b9608775ac81f73c99c90ff0d5aea00dff25f76f7b0ef226a8d227121e6fe",
      "version": 1,
      "size": 226,
      "vsize": 226,
      "locktime": 0,
      "vin": [
        {
          "txid": "7268c4db4a261a4902ce1bdd7b0e3a0f9b9799d9bdb3f1c6f0e148e52667bfde",
          "vout": 1,
          "scriptSig": {
            "asm": "3045022100bff060fd5efca0c01ad3e9c9dc327c03b63cc1e8bb2fe372d7ebe3bc2e63b1dc02202842cd46da2676871d33587abd329c167a19318134ec5290009718965afb9834[ALL] 02951507a14dfcc4f8d892dd94ffc609a683c1f1c635cb5ffb127ef0d97f4133e0",
            "hex": "483045022100bff060fd5efca0c01ad3e9c9dc327c03b63cc1e8bb2fe372d7ebe3bc2e63b1dc02202842cd46da2676871d33587abd329c167a19318134ec5290009718965afb9834012102951507a14dfcc4f8d892dd94ffc609a683c1f1c635cb5ffb127ef0d97f4133e0"
          },
          "sequence": 4294967295
        }
      ],
      "vout": [
        {
          "value": 0.68230000,
          "n": 0,
          "scriptPubKey": {
            "asm": "OP_DUP OP_HASH160 bb953d45a6aa725c524095ef3322528fa23898e3 OP_EQUALVERIFY OP_CHECKSIG",
            "hex": "76a914bb953d45a6aa725c524095ef3322528fa23898e388ac",
            "reqSigs": 1,
            "type": "pubkeyhash",
            "addresses": [
              "LcKoQR85CYU1s1ekNrzMvJUUL3kuzKq5m2"
            ]
          }
        }, 
        {
          "value": 160.73626085,
          "n": 1,
          "scriptPubKey": {
            "asm": "OP_DUP OP_HASH160 f6435a2ab810f92bffd6b04aa45ac23b63c93dc0 OP_EQUALVERIFY OP_CHECKSIG",
            "hex": "76a914f6435a2ab810f92bffd6b04aa45ac23b63c93dc088ac",
            "reqSigs": 1,
            "type": "pubkeyhash",
            "addresses": [
              "Lhg5B7kUmL4VVtgPHMxhQFZFzezQ3Qxky5"
            ]
          }
        }
      ],
      "hex": "0100000001debf6726e548e1f0c6f1b3bdd999979b0f3a0e7bdd1bce02491a264adbc46872010000006b483045022100bff060fd5efca0c01ad3e9c9dc327c03b63cc1e8bb2fe372d7ebe3bc2e63b1dc02202842cd46da2676871d33587abd329c167a19318134ec5290009718965afb9834012102951507a14dfcc4f8d892dd94ffc609a683c1f1c635cb5ffb127ef0d97f4133e0ffffffff02701b1104000000001976a914bb953d45a6aa725c524095ef3322528fa23898e388ace51110be030000001976a914f6435a2ab810f92bffd6b04aa45ac23b63c93dc088ac00000000"
    }, 
    {
      "txid": "dfda9a7dae13dc06b402a2db733434b2e713bd4ca9966b1f44c7e2ece231049f",
      "hash": "dfda9a7dae13dc06b402a2db733434b2e713bd4ca9966b1f44c7e2ece231049f",
      "version": 1,
      "size": 521,
      "vsize": 521,
      "locktime": 0,
      "vin": [
        {
          "txid": "1700a55e0b9791a91bac8f7f39b1e7d065d4347b9834110dd70abb8660fd2a0c",
          "vout": 0,
          "scriptSig": {
            "asm": "3045022100d18f2a26fad328382df968ec06c4a4b6086436ed273c38bc0985544986bb209f022011acf34ccc85df254dd3429631cd034c50a98e1f545bd5239b7d2eb9b5ffe9ef[ALL] 025012299ace4cdbe66df4b1555e3c97802e4b6b6bce9315fa9ba57b2bb6a15be5",
            "hex": "483045022100d18f2a26fad328382df968ec06c4a4b6086436ed273c38bc0985544986bb209f022011acf34ccc85df254dd3429631cd034c50a98e1f545bd5239b7d2eb9b5ffe9ef0121025012299ace4cdbe66df4b1555e3c97802e4b6b6bce9315fa9ba57b2bb6a15be5"
          },
          "sequence": 4294967295
        }, 
        {
          "txid": "5844753206addf43a815f27ef3a7458388d4cb0ae58424986499043e8dedbda8",
          "vout": 0,
          "scriptSig": {
            "asm": "30440220019882b0a7173e5bb5e28b21c1f92d2b4cb9dc9481299456ee173a68b081ed8102206a8f2590ce4d065b1b6fc14bdab50ac13b494a23ef6ce96ffc5fc359d7d77823[ALL] 02d66099d7602b9665604d98751af3cf6b6c2366c7844f932220aaababf7459362",
            "hex": "4730440220019882b0a7173e5bb5e28b21c1f92d2b4cb9dc9481299456ee173a68b081ed8102206a8f2590ce4d065b1b6fc14bdab50ac13b494a23ef6ce96ffc5fc359d7d77823012102d66099d7602b9665604d98751af3cf6b6c2366c7844f932220aaababf7459362"
          },
          "sequence": 4294967295
        }, 
        {
          "txid": "a6867c96e550a6858649b0a7d9e7b2b18521e586524261488a6eff75bb062f76",
          "vout": 0,
          "scriptSig": {
            "asm": "30450221008fed6afb6dc3617ec9aeb92663eaf233e6057cff2daf5015f2b88a0a2c0bafe0022078e88e43a1fc80c8090ab8dffb9ed23638b075a18838aef802e2cebad550ebec[ALL] 03c6cb2d67c63c9ddab90861bb4323de81645705b639ad7e07df975e3f1c577f3e",
            "hex": "4830450221008fed6afb6dc3617ec9aeb92663eaf233e6057cff2daf5015f2b88a0a2c0bafe0022078e88e43a1fc80c8090ab8dffb9ed23638b075a18838aef802e2cebad550ebec012103c6cb2d67c63c9ddab90861bb4323de81645705b639ad7e07df975e3f1c577f3e"
          },
          "sequence": 4294967295
        }
      ],
      "vout": [
        {
          "value": 0.01000002,
          "n": 0,
          "scriptPubKey": {
            "asm": "OP_DUP OP_HASH160 854e08a544c154bc3277e6a71cca2e4133a6f62a OP_EQUALVERIFY OP_CHECKSIG",
            "hex": "76a914854e08a544c154bc3277e6a71cca2e4133a6f62a88ac",
            "reqSigs": 1,
            "type": "pubkeyhash",
            "addresses": [
              "LXNoccDUyFm3h6jrLALTCTDE9RANJGLi27"
            ]
          }
        }, 
        {
          "value": 17.99822229,
          "n": 1,
          "scriptPubKey": {
            "asm": "OP_DUP OP_HASH160 c01d48939873005f19caf54cd06342995ef9313e OP_EQUALVERIFY OP_CHECKSIG",
            "hex": "76a914c01d48939873005f19caf54cd06342995ef9313e88ac",
            "reqSigs": 1,
            "type": "pubkeyhash",
            "addresses": [
              "Lcjm5hRproQDU4XdPU8vg2dNUiwC7usKgi"
            ]
          }
        }
      ],
      "hex": "01000000030c2afd6086bb0ad70d1134987b34d465d0e7b1397f8fac1ba991970b5ea50017000000006b483045022100d18f2a26fad328382df968ec06c4a4b6086436ed273c38bc0985544986bb209f022011acf34ccc85df254dd3429631cd034c50a98e1f545bd5239b7d2eb9b5ffe9ef0121025012299ace4cdbe66df4b1555e3c97802e4b6b6bce9315fa9ba57b2bb6a15be5ffffffffa8bded8d3e049964982484e50acbd4888345a7f37ef215a843dfad0632754458000000006a4730440220019882b0a7173e5bb5e28b21c1f92d2b4cb9dc9481299456ee173a68b081ed8102206a8f2590ce4d065b1b6fc14bdab50ac13b494a23ef6ce96ffc5fc359d7d77823012102d66099d7602b9665604d98751af3cf6b6c2366c7844f932220aaababf7459362ffffffff762f06bb75ff6e8a4861425286e52185b1b2e7d9a7b0498685a650e5967c86a6000000006b4830450221008fed6afb6dc3617ec9aeb92663eaf233e6057cff2daf5015f2b88a0a2c0bafe0022078e88e43a1fc80c8090ab8dffb9ed23638b075a18838aef802e2cebad550ebec012103c6cb2d67c63c9ddab90861bb4323de81645705b639ad7e07df975e3f1c577f3effffffff0242420f00000000001976a914854e08a544c154bc3277e6a71cca2e4133a6f62a88ac951b476b000000001976a914c01d48939873005f19caf54cd06342995ef9313e88ac00000000"
    }, 
    {
      "txid": "25da60dcf3e6642580c6f2b339d09557ca355533522602c3f955e1ed1b1b47a5",
      "hash": "8bc48cddbc6dc3ce36b0bc9adcc42c1c25b683f8dc4ca407e31bb06538000d01",
      "version": 1,
      "size": 373,
      "vsize": 208,
      "locktime": 0,
      "vin": [
        {
          "txid": "6ae5c73e2964eb99e641053378e00ca4fc705a377a3af880c0bbd9433015ebc7",
          "vout": 1,
          "scriptSig": {
            "asm": "0020409fd93c7351b461fa46963fa28755038f397ee054ab9e56eda0b1081d768cc4",
            "hex": "220020409fd93c7351b461fa46963fa28755038f397ee054ab9e56eda0b1081d768cc4"
          },
          "txinwitness": [
            "", 
            "3044022027e2e6faffe8144c326dd77b41c93c0183120a551a9d501061ed9e1886f54cc602204c0074278cd14b37a921eb5855f6a09247e646c9ab3ba61b9a3882d3be32519401", 
            "3045022100f31bdb542110755f04ba56cf9821d377cde4b79c6478d8260ed448eda9fb6bc70220088e4d9d0ea2d2e1910b41c8ca16b8e36c2a50f7e849a3c2ace4b7782e4dc62201", 
            "522103ceb293b39e087131961da42b3deaef48432d57a08bfd111247901be2936525b32103fa185b0d6c2a6d812d1a9418c54b3cea527d229a73a0c6c72345a1851ebcdad352ae"
          ],
          "sequence": 4294967295
        }
      ],
      "vout": [
        {
          "value": 0.01123600,
          "n": 0,
          "scriptPubKey": {
            "asm": "OP_DUP OP_HASH160 2052d2daee4c1ffc8e1795d18bef7e1e83005ce3 OP_EQUALVERIFY OP_CHECKSIG",
            "hex": "76a9142052d2daee4c1ffc8e1795d18bef7e1e83005ce388ac",
            "reqSigs": 1,
            "type": "pubkeyhash",
            "addresses": [
              "LNAs73GT2Xh6YRLXdAZqket4S4sDL81gQH"
            ]
          }
        }, 
        {
          "value": 0.98833200,
          "n": 1,
          "scriptPubKey": {
            "asm": "OP_HASH160 2d9ba1f1c217fd18a576b17eaf8a1c6f1cd2f1de OP_EQUAL",
            "hex": "a9142d9ba1f1c217fd18a576b17eaf8a1c6f1cd2f1de87",
            "reqSigs": 1,
            "type": "scripthash",
            "addresses": [
              "MC4K5c2x6rcVohDBLrLNQRsqL5atuzztot"
            ]
          }
        }
      ],
      "hex": "01000000000101c7eb153043d9bbc080f83a7a375a70fca40ce078330541e699eb64293ec7e56a0100000023220020409fd93c7351b461fa46963fa28755038f397ee054ab9e56eda0b1081d768cc4ffffffff0210251100000000001976a9142052d2daee4c1ffc8e1795d18bef7e1e83005ce388ac3013e4050000000017a9142d9ba1f1c217fd18a576b17eaf8a1c6f1cd2f1de870400473044022027e2e6faffe8144c326dd77b41c93c0183120a551a9d501061ed9e1886f54cc602204c0074278cd14b37a921eb5855f6a09247e646c9ab3ba61b9a3882d3be32519401483045022100f31bdb542110755f04ba56cf9821d377cde4b79c6478d8260ed448eda9fb6bc70220088e4d9d0ea2d2e1910b41c8ca16b8e36c2a50f7e849a3c2ace4b7782e4dc6220147522103ceb293b39e087131961da42b3deaef48432d57a08bfd111247901be2936525b32103fa185b0d6c2a6d812d1a9418c54b3cea527d229a73a0c6c72345a1851ebcdad352ae00000000"
    }, 
    {
      "txid": "4bdcd31dcedd8e1a1583e2df6214d7abed9af675c9ccd0c96faa0ff13b9c461f",
      "hash": "4bdcd31dcedd8e1a1583e2df6214d7abed9af675c9ccd0c96faa0ff13b9c461f",
      "version": 1,
      "size": 225,
      "vsize": 225,
      "locktime": 0,
      "vin": [
        {
          "txid": "80297e4f608b8c888f5bdad17a2954814947b80da93ba52fa543043f7ec9c0fe",
          "vout": 1,
          "scriptSig": {
            "asm": "3044022079f40da035eeaf6586ccfc09062cde9372808a37a1fdcb6140fad9a85803f342022076fdd6bc5754211872f47f9ba0d0187a3c23f0b02e4e293e475b84bdfdd2e0f2[ALL] 023b6bf0152c980c298e6b23b379736ae83ec339536d94490ba811e719636c2790",
            "hex": "473044022079f40da035eeaf6586ccfc09062cde9372808a37a1fdcb6140fad9a85803f342022076fdd6bc5754211872f47f9ba0d0187a3c23f0b02e4e293e475b84bdfdd2e0f20121023b6bf0152c980c298e6b23b379736ae83ec339536d94490ba811e719636c2790"
          },
          "sequence": 4294967295
        }
      ],
      "vout": [
        {
          "value": 4.70598433,
          "n": 0,
          "scriptPubKey": {
            "asm": "OP_DUP OP_HASH160 b233b62d6ac5d490c8ce79decd7bf4bb3a8b6376 OP_EQUALVERIFY OP_CHECKSIG",
            "hex": "76a914b233b62d6ac5d490c8ce79decd7bf4bb3a8b637688ac",
            "reqSigs": 1,
            "type": "pubkeyhash",
            "addresses": [
              "LbUCVM1ssCK3qG5y9DHDdk2wU5w9ZZyjb9"
            ]
          }
        }, 
        {
          "value": 0.24809792,
          "n": 1,
          "scriptPubKey": {
            "asm": "OP_DUP OP_HASH160 774441bfc6355c4a118fe5195ff49c76779bb242 OP_EQUALVERIFY OP_CHECKSIG",
            "hex": "76a914774441bfc6355c4a118fe5195ff49c76779bb24288ac",
            "reqSigs": 1,
            "type": "pubkeyhash",
            "addresses": [
              "LW6aScFuqui4KfWST2hXx49msCi8RJSE3u"
            ]
          }
        }
      ],
      "hex": "0100000001fec0c97e3f0443a52fa53ba90db847498154297ad1da5b8f888c8b604f7e2980010000006a473044022079f40da035eeaf6586ccfc09062cde9372808a37a1fdcb6140fad9a85803f342022076fdd6bc5754211872f47f9ba0d0187a3c23f0b02e4e293e475b84bdfdd2e0f20121023b6bf0152c980c298e6b23b379736ae83ec339536d94490ba811e719636c2790ffffffff0221c30c1c000000001976a914b233b62d6ac5d490c8ce79decd7bf4bb3a8b637688ac40917a01000000001976a914774441bfc6355c4a118fe5195ff49c76779bb24288ac00000000"
    }, 
    {
      "txid": "5dce77e14602c535b29e3389ca5578aaf30dfe5055540140319138e3abd94bac",
      "hash": "5dce77e14602c535b29e3389ca5578aaf30dfe5055540140319138e3abd94bac",
      "version": 1,
      "size": 226,
      "vsize": 226,
      "locktime": 0,
      "vin": [
        {
          "txid": "4bdcd31dcedd8e1a1583e2df6214d7abed9af675c9ccd0c96faa0ff13b9c461f",
          "vout": 1,
          "scriptSig": {
            "asm": "3045022100f718698488960a9c2fe1ded50503cad7af53596680f9b5705040ec3833d0751f022048c96074c61235516530fa4944f2dc874bb2a18acaafcd1c0b6a57329aa4131c[ALL] 02d0f198cb0a14e1bcd7fe1b07ac0ef939761e7adb1b234be4b07d01ea2ab78a58",
            "hex": "483045022100f718698488960a9c2fe1ded50503cad7af53596680f9b5705040ec3833d0751f022048c96074c61235516530fa4944f2dc874bb2a18acaafcd1c0b6a57329aa4131c012102d0f198cb0a14e1bcd7fe1b07ac0ef939761e7adb1b234be4b07d01ea2ab78a58"
          },
          "sequence": 4294967295
        }
      ],
      "vout": [
        {
          "value": 0.24127898,
          "n": 0,
          "scriptPubKey": {
            "asm": "OP_DUP OP_HASH160 072217544c511f38c58735c7f8c66e1903aeb5cc OP_EQUALVERIFY OP_CHECKSIG",
            "hex": "76a914072217544c511f38c58735c7f8c66e1903aeb5cc88ac",
            "reqSigs": 1,
            "type": "pubkeyhash",
            "addresses": [
              "LKsfqFQ7dTdziESsv4jcqhdkSafMgrdtq1"
            ]
          }
        }, 
        {
          "value": 0.00620244,
          "n": 1,
          "scriptPubKey": {
            "asm": "OP_DUP OP_HASH160 46e5e8ce81fc3947dea3b30c993a84d79aa8ad4f OP_EQUALVERIFY OP_CHECKSIG",
            "hex": "76a91446e5e8ce81fc3947dea3b30c993a84d79aa8ad4f88ac",
            "reqSigs": 1,
            "type": "pubkeyhash",
            "addresses": [
              "LRgpz2UzHuKqPyq9m5EYQ4Mke7tVxi2Xqp"
            ]
          }
        }
      ],
      "hex": "01000000011f469c3bf10faa6fc9d0ccc975f69aedabd71462dfe283151a8eddce1dd3dc4b010000006b483045022100f718698488960a9c2fe1ded50503cad7af53596680f9b5705040ec3833d0751f022048c96074c61235516530fa4944f2dc874bb2a18acaafcd1c0b6a57329aa4131c012102d0f198cb0a14e1bcd7fe1b07ac0ef939761e7adb1b234be4b07d01ea2ab78a58ffffffff029a297001000000001976a914072217544c511f38c58735c7f8c66e1903aeb5cc88acd4760900000000001976a91446e5e8ce81fc3947dea3b30c993a84d79aa8ad4f88ac00000000"
    }, 
    {
      "txid": "6f089d30f2ea15e139346dec88f0cfc30ef4043d3e8bfa2d358cbc468138297f",
      "hash": "6f089d30f2ea15e139346dec88f0cfc30ef4043d3e8bfa2d358cbc468138297f",
      "version": 1,
      "size": 226,
      "vsize": 226,
      "locktime": 0,
      "vin": [
        {
          "txid": "0da17b1e106fb06bd6e03717df98c2ddb18ae305a043bc8b6379598b5fbd550e",
          "vout": 40,
          "scriptSig": {
            "asm": "3045022100a9e07e0630e72b03f8aa94c22130ed60fe37544bd036e210215311770535fc1d02207b3e65b64a9b93913213e63a3a0e72a074189350d8056aa49379b7696a18a8aa[ALL] 0392e8d41deaed975bb234e5fdfebb692022cfe251c251588d90f60089cdac9943",
            "hex": "483045022100a9e07e0630e72b03f8aa94c22130ed60fe37544bd036e210215311770535fc1d02207b3e65b64a9b93913213e63a3a0e72a074189350d8056aa49379b7696a18a8aa01210392e8d41deaed975bb234e5fdfebb692022cfe251c251588d90f60089cdac9943"
          },
          "sequence": 4294967295
        }
      ],
      "vout": [
        {
          "value": 3.51765700,
          "n": 0,
          "scriptPubKey": {
            "asm": "OP_DUP OP_HASH160 77fe9c20edd8fceb191b119823914c37ec31263a OP_EQUALVERIFY OP_CHECKSIG",
            "hex": "76a91477fe9c20edd8fceb191b119823914c37ec31263a88ac",
            "reqSigs": 1,
            "type": "pubkeyhash",
            "addresses": [
              "LWARgeNtrAfqmrDyD1k9KNdGNBjY5yFDAL"
            ]
          }
        }, 
        {
          "value": 16.48210000,
          "n": 1,
          "scriptPubKey": {
            "asm": "OP_DUP OP_HASH160 17d403da02d8f1fea6ca8a9527b5ddda93170103 OP_EQUALVERIFY OP_CHECKSIG",
            "hex": "76a91417d403da02d8f1fea6ca8a9527b5ddda9317010388ac",
            "reqSigs": 1,
            "type": "pubkeyhash",
            "addresses": [
              "LMPwngu6Lmtfb9vTLrT7m8LoQdzju7f6UP"
            ]
          }
        }
      ],
      "hex": "01000000010e55bd5f8b5979638bbc43a005e38ab1ddc298df1737e0d66bb06f101e7ba10d280000006b483045022100a9e07e0630e72b03f8aa94c22130ed60fe37544bd036e210215311770535fc1d02207b3e65b64a9b93913213e63a3a0e72a074189350d8056aa49379b7696a18a8aa01210392e8d41deaed975bb234e5fdfebb692022cfe251c251588d90f60089cdac9943ffffffff02c484f714000000001976a91477fe9c20edd8fceb191b119823914c37ec31263a88ac50b03d62000000001976a91417d403da02d8f1fea6ca8a9527b5ddda9317010388ac00000000"
    }, 
    {
      "txid": "dc8d4addc70d241139284d2a99c6df379853ecb0b5a5a9aeb9804987f63e2a12",
      "hash": "dc8d4addc70d241139284d2a99c6df379853ecb0b5a5a9aeb9804987f63e2a12",
      "version": 2,
      "size": 519,
      "vsize": 519,
      "locktime": 1359222,
      "vin": [
        {
          "txid": "2f0198c1f260fc624b612dd25da025b83b54b9e397833b6b6110b58e15c7e6e5",
          "vout": 0,
          "scriptSig": {
            "asm": "30440220328a26e6b3c917c306d001b5f6fbf4bf51ec04627498b5f6d5f18b4bd508d5e0022063121d2b5760eb38483b0be881b6f8cf3d9ceb4cbe617cac8852fa2c0aa9dcf3[ALL] 02064638c6d321f488d617f8d1ba5af7323899518e93544cec556d1ef5d337043d",
            "hex": "4730440220328a26e6b3c917c306d001b5f6fbf4bf51ec04627498b5f6d5f18b4bd508d5e0022063121d2b5760eb38483b0be881b6f8cf3d9ceb4cbe617cac8852fa2c0aa9dcf3012102064638c6d321f488d617f8d1ba5af7323899518e93544cec556d1ef5d337043d"
          },
          "sequence": 4294967294
        }, 
        {
          "txid": "8c887ba726b626b996c1a21b68ed10530b4ccf8b92f46f98f9ba940b2f8c7a4f",
          "vout": 0,
          "scriptSig": {
            "asm": "30440220367f3162359e0e942a170e3edd402be9bf363eae394a712fec134b8ed788ed88022016feaa9168015cc50f157535f10d2b92f813cf19c201849f3420aeb068eaaa56[ALL] 02593d04862956b188fd63b378a437b809ae52140028249de719708220487fdfd4",
            "hex": "4730440220367f3162359e0e942a170e3edd402be9bf363eae394a712fec134b8ed788ed88022016feaa9168015cc50f157535f10d2b92f813cf19c201849f3420aeb068eaaa56012102593d04862956b188fd63b378a437b809ae52140028249de719708220487fdfd4"
          },
          "sequence": 4294967294
        }, 
        {
          "txid": "fc421b52241a88384adb46f544232e90768f2af20956eb171c89bad8b9d77d55",
          "vout": 559,
          "scriptSig": {
            "asm": "30440220423c204a12b6ff3c9e26566f0951668db868edcb51517cf7def029cefe0232d602206597b102a0a5718c2aeb9dc3c2b6d696db1c95990b5bf0db8debd14804993bec[ALL] 03d68a1ea1b3d045fa55978edb4285e3023850b2e1adec2bd08a2db6b5fc7e6fdf",
            "hex": "4730440220423c204a12b6ff3c9e26566f0951668db868edcb51517cf7def029cefe0232d602206597b102a0a5718c2aeb9dc3c2b6d696db1c95990b5bf0db8debd14804993bec012103d68a1ea1b3d045fa55978edb4285e3023850b2e1adec2bd08a2db6b5fc7e6fdf"
          },
          "sequence": 4294967294
        }
      ],
      "vout": [
        {
          "value": 0.00947860,
          "n": 0,
          "scriptPubKey": {
            "asm": "OP_DUP OP_HASH160 459c0859191235a3b954bab54f65f896b1c5fe3f OP_EQUALVERIFY OP_CHECKSIG",
            "hex": "76a914459c0859191235a3b954bab54f65f896b1c5fe3f88ac",
            "reqSigs": 1,
            "type": "pubkeyhash",
            "addresses": [
              "LRa1onVGrJLu1rkYkcD5yoAUcdZhy1Lkse"
            ]
          }
        }, 
        {
          "value": 0.53980000,
          "n": 1,
          "scriptPubKey": {
            "asm": "OP_DUP OP_HASH160 3e3ac7f586187546eceb1fba8f8c7c01c2c04f12 OP_EQUALVERIFY OP_CHECKSIG",
            "hex": "76a9143e3ac7f586187546eceb1fba8f8c7c01c2c04f1288ac",
            "reqSigs": 1,
            "type": "pubkeyhash",
            "addresses": [
              "LQtzaHfuLHxxaMNaG9tyKD51p3ztZZ6Ncw"
            ]
          }
        }
      ],
      "hex": "0200000003e5e6c7158eb510616b3b8397e3b9543bb825a05dd22d614b62fc60f2c198012f000000006a4730440220328a26e6b3c917c306d001b5f6fbf4bf51ec04627498b5f6d5f18b4bd508d5e0022063121d2b5760eb38483b0be881b6f8cf3d9ceb4cbe617cac8852fa2c0aa9dcf3012102064638c6d321f488d617f8d1ba5af7323899518e93544cec556d1ef5d337043dfeffffff4f7a8c2f0b94baf9986ff4928bcf4c0b5310ed681ba2c196b926b626a77b888c000000006a4730440220367f3162359e0e942a170e3edd402be9bf363eae394a712fec134b8ed788ed88022016feaa9168015cc50f157535f10d2b92f813cf19c201849f3420aeb068eaaa56012102593d04862956b188fd63b378a437b809ae52140028249de719708220487fdfd4feffffff557dd7b9d8ba891c17eb5609f22a8f76902e2344f546db4a38881a24521b42fc2f0200006a4730440220423c204a12b6ff3c9e26566f0951668db868edcb51517cf7def029cefe0232d602206597b102a0a5718c2aeb9dc3c2b6d696db1c95990b5bf0db8debd14804993bec012103d68a1ea1b3d045fa55978edb4285e3023850b2e1adec2bd08a2db6b5fc7e6fdffeffffff0294760e00000000001976a914459c0859191235a3b954bab54f65f896b1c5fe3f88ac60ab3703000000001976a9143e3ac7f586187546eceb1fba8f8c7c01c2c04f1288ac76bd1400"
    }, 
    {
      "txid": "329298986d7b41e1bb4f74e48e2bbbaea9a354b0656a5311605e3964fb34c43a",
      "hash": "329298986d7b41e1bb4f74e48e2bbbaea9a354b0656a5311605e3964fb34c43a",
      "version": 1,
      "size": 225,
      "vsize": 225,
      "locktime": 0,
      "vin": [
        {
          "txid": "e6dd0c917e6c357a8c50602961e000ab2ebe3e0a58817913da2d88c265ae191f",
          "vout": 1,
          "scriptSig": {
            "asm": "304402204da6018fa2ca0b51410fd79112474e0c100a7f133016433e20744d3d38c4a8730220643b7673d51f5bcd3ca76600272dc757dafa329e10c5b5f38215ab4323a8965b[ALL] 0281f43ad59ff057bd7222a6b72767ee529d0c61f92ce4de5529dc8a5429897b7e",
            "hex": "47304402204da6018fa2ca0b51410fd79112474e0c100a7f133016433e20744d3d38c4a8730220643b7673d51f5bcd3ca76600272dc757dafa329e10c5b5f38215ab4323a8965b01210281f43ad59ff057bd7222a6b72767ee529d0c61f92ce4de5529dc8a5429897b7e"
          },
          "sequence": 4294967295
        }
      ],
      "vout": [
        {
          "value": 0.00096306,
          "n": 0,
          "scriptPubKey": {
            "asm": "OP_DUP OP_HASH160 2fd90520bb0517a6a324e70d885df64ffa8ba0ad OP_EQUALVERIFY OP_CHECKSIG",
            "hex": "76a9142fd90520bb0517a6a324e70d885df64ffa8ba0ad88ac",
            "reqSigs": 1,
            "type": "pubkeyhash",
            "addresses": [
              "LPax13a3riKGLDt49CneW3PrNP3pQYCZkd"
            ]
          }
        }, 
        {
          "value": 0.15640000,
          "n": 1,
          "scriptPubKey": {
            "asm": "OP_DUP OP_HASH160 1353c3d4e63f0464a265fdb808d7875a21767f5f OP_EQUALVERIFY OP_CHECKSIG",
            "hex": "76a9141353c3d4e63f0464a265fdb808d7875a21767f5f88ac",
            "reqSigs": 1,
            "type": "pubkeyhash",
            "addresses": [
              "LLz9Sx3EDCoQXYsiCPU622Bdcrs6JJwQ7Y"
            ]
          }
        }
      ],
      "hex": "01000000011f19ae65c2882dda137981580a3ebe2eab00e0612960508c7a356c7e910cdde6010000006a47304402204da6018fa2ca0b51410fd79112474e0c100a7f133016433e20744d3d38c4a8730220643b7673d51f5bcd3ca76600272dc757dafa329e10c5b5f38215ab4323a8965b01210281f43ad59ff057bd7222a6b72767ee529d0c61f92ce4de5529dc8a5429897b7effffffff0232780100000000001976a9142fd90520bb0517a6a324e70d885df64ffa8ba0ad88acc0a5ee00000000001976a9141353c3d4e63f0464a265fdb808d7875a21767f5f88ac00000000"
    }, 
    {
      "txid": "1dfb841c7eed32991ec890d4fda88ffb4dc3a16116ae69e38236f00b17167873",
      "hash": "1dfb841c7eed32991ec890d4fda88ffb4dc3a16116ae69e38236f00b17167873",
      "version": 1,
      "size": 225,
      "vsize": 225,
      "locktime": 0,
      "vin": [
        {
          "txid": "22afb06241c99d15792147a1d495ec9d1a5a457846809f40b55f032b49ea17ef",
          "vout": 43,
          "scriptSig": {
            "asm": "3044022016e650ef30b2aa78fa0c9a837c44d449d282a9dc0c5dcff2e19c40b6445c31c30220725dc167fd6c6d8cf83045708221d0a4597cd2d9f8d1e420a6265163c5c07924[ALL] 03a7ec51ceef418ef96e227006710b8ca79f0f7ecdc0d18a9ddd8ada50e852eda9",
            "hex": "473044022016e650ef30b2aa78fa0c9a837c44d449d282a9dc0c5dcff2e19c40b6445c31c30220725dc167fd6c6d8cf83045708221d0a4597cd2d9f8d1e420a6265163c5c07924012103a7ec51ceef418ef96e227006710b8ca79f0f7ecdc0d18a9ddd8ada50e852eda9"
          },
          "sequence": 4294967295
        }
      ],
      "vout": [
        {
          "value": 0.22344480,
          "n": 0,
          "scriptPubKey": {
            "asm": "OP_DUP OP_HASH160 b22345a21d93a5a97778f713db077d2f5e92f77f OP_EQUALVERIFY OP_CHECKSIG",
            "hex": "76a914b22345a21d93a5a97778f713db077d2f5e92f77f88ac",
            "reqSigs": 1,
            "type": "pubkeyhash",
            "addresses": [
              "LbTro6nzWVQDimKoCfjqxrPAXU67pYuQoU"
            ]
          }
        }, 
        {
          "value": 0.00632920,
          "n": 1,
          "scriptPubKey": {
            "asm": "OP_DUP OP_HASH160 5b09cbe007dc382a3913e2c1ce8b4df1cdbe2915 OP_EQUALVERIFY OP_CHECKSIG",
            "hex": "76a9145b09cbe007dc382a3913e2c1ce8b4df1cdbe291588ac",
            "reqSigs": 1,
            "type": "pubkeyhash",
            "addresses": [
              "LTXKVLMVqT2muMmX7CYMucwaism4Uw8m2t"
            ]
          }
        }
      ],
      "hex": "0100000001ef17ea492b035fb5409f804678455a1a9dec95d4a1472179159dc94162b0af222b0000006a473044022016e650ef30b2aa78fa0c9a837c44d449d282a9dc0c5dcff2e19c40b6445c31c30220725dc167fd6c6d8cf83045708221d0a4597cd2d9f8d1e420a6265163c5c07924012103a7ec51ceef418ef96e227006710b8ca79f0f7ecdc0d18a9ddd8ada50e852eda9ffffffff0220f35401000000001976a914b22345a21d93a5a97778f713db077d2f5e92f77f88ac58a80900000000001976a9145b09cbe007dc382a3913e2c1ce8b4df1cdbe291588ac00000000"
    }, 
    {
      "txid": "ec37af423c4907c725256c11f161a0a6fd022cd276293d6b27ebd042629f3086",
      "hash": "ec37af423c4907c725256c11f161a0a6fd022cd276293d6b27ebd042629f3086",
      "version": 1,
      "size": 225,
      "vsize": 225,
      "locktime": 0,
      "vin": [
        {
          "txid": "c6b40b4733fcec348f388c5c03ead428517ea7cc4206eb27d3b6903bf9c337a5",
          "vout": 0,
          "scriptSig": {
            "asm": "3044022015a2b372d8318de58dc30b45ce73a378a9d77823c5ebc0065bbc5205527aeab202202cfb1c3d38491a7f01e944a08a5109321440fb73f0f444b78166b16a2a541e27[ALL] 036e73c2301d734ef60c28b538490158865aa63e4d536baa0eae8598abba25f973",
            "hex": "473044022015a2b372d8318de58dc30b45ce73a378a9d77823c5ebc0065bbc5205527aeab202202cfb1c3d38491a7f01e944a08a5109321440fb73f0f444b78166b16a2a541e270121036e73c2301d734ef60c28b538490158865aa63e4d536baa0eae8598abba25f973"
          },
          "sequence": 4294967295
        }
      ],
      "vout": [
        {
          "value": 10.61423600,
          "n": 0,
          "scriptPubKey": {
            "asm": "OP_DUP OP_HASH160 bb83ee2a8d366e7663832bb4aa7bce4aec224a65 OP_EQUALVERIFY OP_CHECKSIG",
            "hex": "76a914bb83ee2a8d366e7663832bb4aa7bce4aec224a6588ac",
            "reqSigs": 1,
            "type": "pubkeyhash",
            "addresses": [
              "LcKSfmNRFckgiqQBVq42BjBt4nqEzaAGxs"
            ]
          }
        }, 
        {
          "value": 49.29602525,
          "n": 1,
          "scriptPubKey": {
            "asm": "OP_DUP OP_HASH160 b254f0680d9b750cc8bcd8124ddd7250f36b0e71 OP_EQUALVERIFY OP_CHECKSIG",
            "hex": "76a914b254f0680d9b750cc8bcd8124ddd7250f36b0e7188ac",
            "reqSigs": 1,
            "type": "pubkeyhash",
            "addresses": [
              "LbUtJ2hXkGwmpgJhwYb6ctozQABfUydvnw"
            ]
          }
        }
      ],
      "hex": "0100000001a537c3f93b90b6d327eb0642cca77e5128d4ea035c8c388f34ecfc33470bb4c6000000006a473044022015a2b372d8318de58dc30b45ce73a378a9d77823c5ebc0065bbc5205527aeab202202cfb1c3d38491a7f01e944a08a5109321440fb73f0f444b78166b16a2a541e270121036e73c2301d734ef60c28b538490158865aa63e4d536baa0eae8598abba25f973ffffffff02f009443f000000001976a914bb83ee2a8d366e7663832bb4aa7bce4aec224a6588acddc3d325010000001976a914b254f0680d9b750cc8bcd8124ddd7250f36b0e7188ac00000000"
    }, 
    {
      "txid": "554f0cc059aa39e9b20104017a2bb1b23479693b9af848ad84f3cdbfc807d98c",
      "hash": "554f0cc059aa39e9b20104017a2bb1b23479693b9af848ad84f3cdbfc807d98c",
      "version": 1,
      "size": 225,
      "vsize": 225,
      "locktime": 0,
      "vin": [
        {
          "txid": "22afb06241c99d15792147a1d495ec9d1a5a457846809f40b55f032b49ea17ef",
          "vout": 40,
          "scriptSig": {
            "asm": "30440220250183b997f8eb8c8577dfe5490edb16d194c6866d2cfdceab1a779ed6df6efa02206273cefd42fc0eaf6521a360feb96d862c9dcba143c8712687223d950d630048[ALL] 033f0b12002402177f7e845388376bb6b38153cf3349cc078b30828e6e3b738352",
            "hex": "4730440220250183b997f8eb8c8577dfe5490edb16d194c6866d2cfdceab1a779ed6df6efa02206273cefd42fc0eaf6521a360feb96d862c9dcba143c8712687223d950d6300480121033f0b12002402177f7e845388376bb6b38153cf3349cc078b30828e6e3b738352"
          },
          "sequence": 4294967295
        }
      ],
      "vout": [
        {
          "value": 0.47134830,
          "n": 0,
          "scriptPubKey": {
            "asm": "OP_DUP OP_HASH160 4c337f15ce701182d0bc1f58a977a2b576c8ac38 OP_EQUALVERIFY OP_CHECKSIG",
            "hex": "76a9144c337f15ce701182d0bc1f58a977a2b576c8ac3888ac",
            "reqSigs": 1,
            "type": "pubkeyhash",
            "addresses": [
              "LSAsJptpLzMefzUa9Bw2goGt35KqHyXzGY"
            ]
          }
        }, 
        {
          "value": 0.52842570,
          "n": 1,
          "scriptPubKey": {
            "asm": "OP_DUP OP_HASH160 cbe3a88d5b5d27fef1fe783c09695e557151029d OP_EQUALVERIFY OP_CHECKSIG",
            "hex": "76a914cbe3a88d5b5d27fef1fe783c09695e557151029d88ac",
            "reqSigs": 1,
            "type": "pubkeyhash",
            "addresses": [
              "Ldp2A8xX5SDRSbBDYpxat2xodt1BghvdBe"
            ]
          }
        }
      ],
      "hex": "0100000001ef17ea492b035fb5409f804678455a1a9dec95d4a1472179159dc94162b0af22280000006a4730440220250183b997f8eb8c8577dfe5490edb16d194c6866d2cfdceab1a779ed6df6efa02206273cefd42fc0eaf6521a360feb96d862c9dcba143c8712687223d950d6300480121033f0b12002402177f7e845388376bb6b38153cf3349cc078b30828e6e3b738352ffffffff026e38cf02000000001976a9144c337f15ce701182d0bc1f58a977a2b576c8ac3888ac4a502603000000001976a914cbe3a88d5b5d27fef1fe783c09695e557151029d88ac00000000"
    }, 
    {
      "txid": "cf642bf6e70caa91604a44f25b9ce336fa954e72d6d34a54a0111c5ac525d391",
      "hash": "cf642bf6e70caa91604a44f25b9ce336fa954e72d6d34a54a0111c5ac525d391",
      "version": 1,
      "size": 225,
      "vsize": 225,
      "locktime": 0,
      "vin": [
        {
          "txid": "f467f915b6c241cdbb115ab14f5cf91513350aa72eb82bce985bfebda7728799",
          "vout": 18,
          "scriptSig": {
            "asm": "3044022063a07ec6235a65d1216071b6c096c96dca0cf7e236a9513d7d7dd89b1fa330d402201a477b8df3e7916409841943f1950cbec18af0eba9f7db42d917cbf1cadcbe2c[ALL] 0247c90bf334772116e90b8419ad89da2f9a5c3920d7451f8c98392b2e9a61ac83",
            "hex": "473044022063a07ec6235a65d1216071b6c096c96dca0cf7e236a9513d7d7dd89b1fa330d402201a477b8df3e7916409841943f1950cbec18af0eba9f7db42d917cbf1cadcbe2c01210247c90bf334772116e90b8419ad89da2f9a5c3920d7451f8c98392b2e9a61ac83"
          },
          "sequence": 4294967295
        }
      ],
      "vout": [
        {
          "value": 0.27260000,
          "n": 0,
          "scriptPubKey": {
            "asm": "OP_DUP OP_HASH160 603b29e62339e596b1b0bb75a66881c84630da9a OP_EQUALVERIFY OP_CHECKSIG",
            "hex": "76a914603b29e62339e596b1b0bb75a66881c84630da9a88ac",
            "reqSigs": 1,
            "type": "pubkeyhash",
            "addresses": [
              "LTzn1PiS8C9fHnvPvVzLQbuyr4Lj8diXuq"
            ]
          }
        }, 
        {
          "value": 0.02717400,
          "n": 1,
          "scriptPubKey": {
            "asm": "OP_DUP OP_HASH160 86a812d71418aad4efcfffa84a55332d36408327 OP_EQUALVERIFY OP_CHECKSIG",
            "hex": "76a91486a812d71418aad4efcfffa84a55332d3640832788ac",
            "reqSigs": 1,
            "type": "pubkeyhash",
            "addresses": [
              "LXVx9snJWaKhpW8tB3oXEAZ1tmrdbFhPKe"
            ]
          }
        }
      ],
      "hex": "0100000001998772a7bdfe5b98ce2bb82ea70a351315f95c4fb15a11bbcd41c2b615f967f4120000006a473044022063a07ec6235a65d1216071b6c096c96dca0cf7e236a9513d7d7dd89b1fa330d402201a477b8df3e7916409841943f1950cbec18af0eba9f7db42d917cbf1cadcbe2c01210247c90bf334772116e90b8419ad89da2f9a5c3920d7451f8c98392b2e9a61ac83ffffffff0260f49f01000000001976a914603b29e62339e596b1b0bb75a66881c84630da9a88acd8762900000000001976a91486a812d71418aad4efcfffa84a55332d3640832788ac00000000"
    }, 
    {
      "txid": "b148865822fb2199882f8b6b2330c7f3a5d1ff1793e44788e278e81a48f6db92",
      "hash": "b148865822fb2199882f8b6b2330c7f3a5d1ff1793e44788e278e81a48f6db92",
      "version": 1,
      "size": 225,
      "vsize": 225,
      "locktime": 0,
      "vin": [
        {
          "txid": "2379e2b776ca456c80cc90ed439dd776d2ca0f2ef4fe45a205a7cb5f0a3c91a8",
          "vout": 1,
          "scriptSig": {
            "asm": "3044022025e159c054dfca05a933aea4562763313b2ec4d33c96f6fe283b172edc89068d0220783a6171fd0c604f6d20a3b4cf56daf5a6803ef1344072e83bac006096156365[ALL] 03ae219d0e22fd2dca735e4bc088f327f1e4db42f5a4459f17e2ec7f889b574461",
            "hex": "473044022025e159c054dfca05a933aea4562763313b2ec4d33c96f6fe283b172edc89068d0220783a6171fd0c604f6d20a3b4cf56daf5a6803ef1344072e83bac006096156365012103ae219d0e22fd2dca735e4bc088f327f1e4db42f5a4459f17e2ec7f889b574461"
          },
          "sequence": 4294967295
        }
      ],
      "vout": [
        {
          "value": 1.00000000,
          "n": 0,
          "scriptPubKey": {
            "asm": "OP_DUP OP_HASH160 f07bc46f258d403111e28c3f21e10ebef0138b10 OP_EQUALVERIFY OP_CHECKSIG",
            "hex": "76a914f07bc46f258d403111e28c3f21e10ebef0138b1088ac",
            "reqSigs": 1,
            "type": "pubkeyhash",
            "addresses": [
              "Lh9WhkqEVg93jJfhJmAGPkoxBwsvU2tqCH"
            ]
          }
        }, 
        {
          "value": 60.78873455,
          "n": 1,
          "scriptPubKey": {
            "asm": "OP_DUP OP_HASH160 d251a0d6ade4af3acf883fcf5bf563ea2679a10f OP_EQUALVERIFY OP_CHECKSIG",
            "hex": "76a914d251a0d6ade4af3acf883fcf5bf563ea2679a10f88ac",
            "reqSigs": 1,
            "type": "pubkeyhash",
            "addresses": [
              "LeQ1x8Tf6e5EnxSriMjnLTEADVZn9WvLg1"
            ]
          }
        }
      ],
      "hex": "0100000001a8913c0a5fcba705a245fef42e0fcad276d79d43ed90cc806c45ca76b7e27923010000006a473044022025e159c054dfca05a933aea4562763313b2ec4d33c96f6fe283b172edc89068d0220783a6171fd0c604f6d20a3b4cf56daf5a6803ef1344072e83bac006096156365012103ae219d0e22fd2dca735e4bc088f327f1e4db42f5a4459f17e2ec7f889b574461ffffffff0200e1f505000000001976a914f07bc46f258d403111e28c3f21e10ebef0138b1088ac6f3f546a010000001976a914d251a0d6ade4af3acf883fcf5bf563ea2679a10f88ac00000000"
    }, 
    {
      "txid": "8b07dda64d326123f66bd31db5dab5309aa18ddd2a9c75ef304fb52c96bff1a0",
      "hash": "8b07dda64d326123f66bd31db5dab5309aa18ddd2a9c75ef304fb52c96bff1a0",
      "version": 2,
      "size": 225,
      "vsize": 225,
      "locktime": 1359222,
      "vin": [
        {
          "txid": "cf0f745e56ab706c14b23ea34d7383b92ac1f4abfcda279e7611ca9032f28899",
          "vout": 1,
          "scriptSig": {
            "asm": "30440220730bc22c5114748b7244eeb7592579ee2d2190181b5a6f1f7db5551f434a155402206a6e654aab0ce49d4d584a1f8db4a6095abfff23143b4c772faa153f73378b28[ALL] 023099988420e14664ddf4af8acc1a1e09a738265429c053deed62649fef44503f",
            "hex": "4730440220730bc22c5114748b7244eeb7592579ee2d2190181b5a6f1f7db5551f434a155402206a6e654aab0ce49d4d584a1f8db4a6095abfff23143b4c772faa153f73378b280121023099988420e14664ddf4af8acc1a1e09a738265429c053deed62649fef44503f"
          },
          "sequence": 4294967294
        }
      ],
      "vout": [
        {
          "value": 0.19877050,
          "n": 0,
          "scriptPubKey": {
            "asm": "OP_DUP OP_HASH160 32f2829760916261d3715e145f73a502f721e0e9 OP_EQUALVERIFY OP_CHECKSIG",
            "hex": "76a91432f2829760916261d3715e145f73a502f721e0e988ac",
            "reqSigs": 1,
            "type": "pubkeyhash",
            "addresses": [
              "LPsLZhjvjq65eCgeSu5YJsxTScmC9MTC49"
            ]
          }
        }, 
        {
          "value": 112.41625895,
          "n": 1,
          "scriptPubKey": {
            "asm": "OP_DUP OP_HASH160 beff22737d7a857cbc863d571dc002832ae3382c OP_EQUALVERIFY OP_CHECKSIG",
            "hex": "76a914beff22737d7a857cbc863d571dc002832ae3382c88ac",
            "reqSigs": 1,
            "type": "pubkeyhash",
            "addresses": [
              "LcdrHipTofsAeYA4Zk2P77yq69hJFTHFSB"
            ]
          }
        }
      ],
      "hex": "02000000019988f23290ca11769e27dafcabf4c12ab983734da33eb2146c70ab565e740fcf010000006a4730440220730bc22c5114748b7244eeb7592579ee2d2190181b5a6f1f7db5551f434a155402206a6e654aab0ce49d4d584a1f8db4a6095abfff23143b4c772faa153f73378b280121023099988420e14664ddf4af8acc1a1e09a738265429c053deed62649fef44503ffeffffff02ba4c2f01000000001976a91432f2829760916261d3715e145f73a502f721e0e988ac27990d9e020000001976a914beff22737d7a857cbc863d571dc002832ae3382c88ac76bd1400"
    }, 
    {
      "txid": "4b8b8b462d051fe709c75d6a50ade53a96494274f2e0eb1fafeae35f2cfb9491",
      "hash": "4b8b8b462d051fe709c75d6a50ade53a96494274f2e0eb1fafeae35f2cfb9491",
      "version": 1,
      "size": 226,
      "vsize": 226,
      "locktime": 0,
      "vin": [
        {
          "txid": "6eeb0a051acf911acc559ddb5c60ca36e923e17822b633940e48efb860eebf0f",
          "vout": 0,
          "scriptSig": {
            "asm": "3045022100ac15fa3c8a64a6d0cb0a57a19e227064647945fc607ed0842e9565c539fc080f022070fca5d270f3347131578430ce1185d8f656894749ac084a596633184965bfe2[ALL] 037115aa6161850b92ea90c5f461dce7a1c46209c2fde4ba3d6a786ce070bced9d",
            "hex": "483045022100ac15fa3c8a64a6d0cb0a57a19e227064647945fc607ed0842e9565c539fc080f022070fca5d270f3347131578430ce1185d8f656894749ac084a596633184965bfe20121037115aa6161850b92ea90c5f461dce7a1c46209c2fde4ba3d6a786ce070bced9d"
          },
          "sequence": 4294967295
        }
      ],
      "vout": [
        {
          "value": 2.67009479,
          "n": 0,
          "scriptPubKey": {
            "asm": "OP_DUP OP_HASH160 33bea2a9f08b3b02a2801065a1e37b01ec8de575 OP_EQUALVERIFY OP_CHECKSIG",
            "hex": "76a91433bea2a9f08b3b02a2801065a1e37b01ec8de57588ac",
            "reqSigs": 1,
            "type": "pubkeyhash",
            "addresses": [
              "LPwZ6aPnLUSKBb4ZqJtZrYHyh4QAnZRo6v"
            ]
          }
        }, 
        {
          "value": 57.12390432,
          "n": 1,
          "scriptPubKey": {
            "asm": "OP_DUP OP_HASH160 af5d6cce5cccbf7fe963ee9fc567c6fd588c3959 OP_EQUALVERIFY OP_CHECKSIG",
            "hex": "76a914af5d6cce5cccbf7fe963ee9fc567c6fd588c395988ac",
            "reqSigs": 1,
            "type": "pubkeyhash",
            "addresses": [
              "LbDCS4tJtAtaSqNZWDQNZKVTNgyL7y17uS"
            ]
          }
        }
      ],
      "hex": "01000000010fbfee60b8ef480e9433b62278e123e936ca605cdb9d55cc1a91cf1a050aeb6e000000006b483045022100ac15fa3c8a64a6d0cb0a57a19e227064647945fc607ed0842e9565c539fc080f022070fca5d270f3347131578430ce1185d8f656894749ac084a596633184965bfe20121037115aa6161850b92ea90c5f461dce7a1c46209c2fde4ba3d6a786ce070bced9dffffffff02c73dea0f000000001976a91433bea2a9f08b3b02a2801065a1e37b01ec8de57588ac20297c54010000001976a914af5d6cce5cccbf7fe963ee9fc567c6fd588c395988ac00000000"
    }, 
    {
      "txid": "f9d46e0a0dd97b8970cc220a86dd7c800be7778d440c5657ac74a6167f2740e9",
      "hash": "f9d46e0a0dd97b8970cc220a86dd7c800be7778d440c5657ac74a6167f2740e9",
      "version": 2,
      "size": 224,
      "vsize": 224,
      "locktime": 1359222,
      "vin": [
        {
          "txid": "c59c19f597052c02206baef549753e1093952b9e66869038a76673a7827d83f2",
          "vout": 0,
          "scriptSig": {
            "asm": "3045022100d4c4c3d6bc1274d5e0e6613c934dc88284aa5d5209e4a6dca57693fc28cec241022004a0fd23a0b08eb5019180c0284db1997dea2cce46caa5fee45e8458a9a4c3f0[ALL] 0222da3cfbfff08647e8674f420a595a33ad487dfb03a8576414df46e62cfa6138",
            "hex": "483045022100d4c4c3d6bc1274d5e0e6613c934dc88284aa5d5209e4a6dca57693fc28cec241022004a0fd23a0b08eb5019180c0284db1997dea2cce46caa5fee45e8458a9a4c3f001210222da3cfbfff08647e8674f420a595a33ad487dfb03a8576414df46e62cfa6138"
          },
          "sequence": 4294967294
        }
      ],
      "vout": [
        {
          "value": 0.19406530,
          "n": 0,
          "scriptPubKey": {
            "asm": "OP_HASH160 733ed07372e18f93e728fe17e16615e9536ca2a7 OP_EQUAL",
            "hex": "a914733ed07372e18f93e728fe17e16615e9536ca2a787",
            "reqSigs": 1,
            "type": "scripthash",
            "addresses": [
              "MJQXBuGuRmghY4SyMbFiei6aLW8dpi7SXh"
            ]
          }
        }, 
        {
          "value": 0.36305070,
          "n": 1,
          "scriptPubKey": {
            "asm": "OP_DUP OP_HASH160 63fa5cae1f1d9ac67e45bc891745836fbfc444db OP_EQUALVERIFY OP_CHECKSIG",
            "hex": "76a91463fa5cae1f1d9ac67e45bc891745836fbfc444db88ac",
            "reqSigs": 1,
            "type": "pubkeyhash",
            "addresses": [
              "LULb5fR8hApU7zaPepeT1bieAeUqkQ1Q6a"
            ]
          }
        }
      ],
      "hex": "0200000001f2837d82a77366a7389086669e2b9593103e7549f5ae6b20022c0597f5199cc5000000006b483045022100d4c4c3d6bc1274d5e0e6613c934dc88284aa5d5209e4a6dca57693fc28cec241022004a0fd23a0b08eb5019180c0284db1997dea2cce46caa5fee45e8458a9a4c3f001210222da3cfbfff08647e8674f420a595a33ad487dfb03a8576414df46e62cfa6138feffffff02c21e28010000000017a914733ed07372e18f93e728fe17e16615e9536ca2a787aef82902000000001976a91463fa5cae1f1d9ac67e45bc891745836fbfc444db88ac76bd1400"
    }
  ],
  "time": 1517253990,
  "mediantime": 1517253660,
  "nonce": 4098124970,
  "bits": "1a042eae",
  "difficulty": 4011378.762614286,
  "chainwork": "000000000000000000000000000000000000000000000033ce1768d21cdda572",
  "previousblockhash": "8bc56290c8e3d6fadb968c222a8e230de200ad293923790c33bf672d306ba7fe",
  "nextblockhash": "2ab588e4260453b3a52339ef4d33d430d3be2f1bf08b1e2306029e3b946fe64f"
}
