{
  "hash": "d1c5b686b6a1b1243d07f3e272ccb14bdb70b227a35bcf0ee1b54a74b790d0f3",
  "confirmations": 290,
  "strippedsize": 661,
  "size": 697,
  "weight": 2680,
  "height": 1360704,
  "version": 536870912,
  "versionHex": "20000000",
  "merkleroot": "c0dc3f861fd354b3f8032430997d07eb03ee349b05cbd743c2ac04777e42e478",
  "tx": [
    {
      "txid": "7c7c94a2315771e72ccf499fbaecd22fa2916723d2d44923a03cd8e3bbef3ed5",
      "hash": "221a942445222c30b26daa064e2555cbf358bde403e82e0a1b95c1bb849558c3",
      "version": 1,
      "size": 244,
      "vsize": 217,
      "locktime": 0,
      "vin": [
        {
          "coinbase": "0340c314040abd725a0802b2cd4102000000fabe6d6d4b704933f6f0e2fca32ef1b8e21587a14fbcbdadaaaef69856367d2f619276a940000000000000000d2f6e6f64655374726174756d2f",
          "sequence": 0
        }
      ],
      "vout": [
        {
          "value": 25.00037400,
          "n": 0,
          "scriptPubKey": {
            "asm": "OP_DUP OP_HASH160 0c617fdb2ea42aed30a509595ee21ba3f6688db0 OP_EQUALVERIFY OP_CHECKSIG",
            "hex": "76a9140c617fdb2ea42aed30a509595ee21ba3f6688db088ac",
            "reqSigs": 1,
            "type": "pubkeyhash",
            "addresses": [
              "LLMRAtr3qBje2ySEa3CnZ55LA4TQMWnRY3"
            ]
          }
        }, 
        {
          "value": 0.00000000,
          "n": 1,
          "scriptPubKey": {
            "asm": "OP_RETURN aa21a9edbdac1cae96d75d4e3b09d3a0104ae2dbb0b62033eaa9ee0858090d8bfbdef040",
            "hex": "6a24aa21a9edbdac1cae96d75d4e3b09d3a0104ae2dbb0b62033eaa9ee0858090d8bfbdef040",
            "type": "nulldata"
          }
        }
      ],
      "hex": "010000000001010000000000000000000000000000000000000000000000000000000000000000ffffffff4c0340c314040abd725a0802b2cd4102000000fabe6d6d4b704933f6f0e2fca32ef1b8e21587a14fbcbdadaaaef69856367d2f619276a940000000000000000d2f6e6f64655374726174756d2f0000000002188b0395000000001976a9140c617fdb2ea42aed30a509595ee21ba3f6688db088ac0000000000000000266a24aa21a9edbdac1cae96d75d4e3b09d3a0104ae2dbb0b62033eaa9ee0858090d8bfbdef0400120000000000000000000000000000000000000000000000000000000000000000000000000"
    }, 
    {
      "txid": "10e4d2486b656d87b59021bd83706f6176fdf04fc6fdb78655f3cbe19b289b66",
      "hash": "10e4d2486b656d87b59021bd83706f6176fdf04fc6fdb78655f3cbe19b289b66",
      "version": 2,
      "size": 372,
      "vsize": 372,
      "locktime": 1360702,
      "vin": [
        {
          "txid": "a53e1d8c743dc85ff2012e5438651fd2fd2eedbc4e21acb15c636bb4592b0373",
          "vout": 0,
          "scriptSig": {
            "asm": "3043021f74cd937b2391da7a329f86bb6532e27826ea8422ef21a1e9416707ad94935b022006f4f0f18f04c345a0d51c2448492c5f819baaf18bef0a265ebbad534041d9bc[ALL] 022f8053b60ba60cf0928006088533abff60111f61ba2938ab2c7b4e91ed393b7c",
            "hex": "463043021f74cd937b2391da7a329f86bb6532e27826ea8422ef21a1e9416707ad94935b022006f4f0f18f04c345a0d51c2448492c5f819baaf18bef0a265ebbad534041d9bc0121022f8053b60ba60cf0928006088533abff60111f61ba2938ab2c7b4e91ed393b7c"
          },
          "sequence": 4294967294
        }, 
        {
          "txid": "67fef90ac5e9f1cc2ef3eb13bfffbc18e0b861c284a3759ab756e3372c9d06f3",
          "vout": 1472,
          "scriptSig": {
            "asm": "3045022100b3b94833a7b749da25e5b513c152a4e6a3a0ed133b75c109d52a033dd1b21d3d0220031774d6c85884bce5f16d13e4395b22276f3c7ec1f20790edcf13180dd80a1c[ALL] 020296c9da774e32e26978ff8cac524c6207384c07b95cc0ab3fcb952fbd121270",
            "hex": "483045022100b3b94833a7b749da25e5b513c152a4e6a3a0ed133b75c109d52a033dd1b21d3d0220031774d6c85884bce5f16d13e4395b22276f3c7ec1f20790edcf13180dd80a1c0121020296c9da774e32e26978ff8cac524c6207384c07b95cc0ab3fcb952fbd121270"
          },
          "sequence": 4294967294
        }
      ],
      "vout": [
        {
          "value": 0.12599326,
          "n": 0,
          "scriptPubKey": {
            "asm": "OP_DUP OP_HASH160 b9e6aa3a4b0710fb22400c1e298a81012b6fe351 OP_EQUALVERIFY OP_CHECKSIG",
            "hex": "76a914b9e6aa3a4b0710fb22400c1e298a81012b6fe35188ac",
            "reqSigs": 1,
            "type": "pubkeyhash",
            "addresses": [
              "LcAubao4Z37bfmvPyXDBTFpGpGVQ3DkBic"
            ]
          }
        }, 
        {
          "value": 0.01009955,
          "n": 1,
          "scriptPubKey": {
            "asm": "OP_DUP OP_HASH160 760021d28d80f27299af2225fa6b79e03c589b64 OP_EQUALVERIFY OP_CHECKSIG",
            "hex": "76a914760021d28d80f27299af2225fa6b79e03c589b6488ac",
            "reqSigs": 1,
            "type": "pubkeyhash",
            "addresses": [
              "LVytA2d7g9oYga59ZK1vefx83BPYKTD1mZ"
            ]
          }
        }
      ],
      "hex": "020000000273032b59b46b635cb1ac214ebced2efdd21f6538542e01f25fc83d748c1d3ea50000000069463043021f74cd937b2391da7a329f86bb6532e27826ea8422ef21a1e9416707ad94935b022006f4f0f18f04c345a0d51c2448492c5f819baaf18bef0a265ebbad534041d9bc0121022f8053b60ba60cf0928006088533abff60111f61ba2938ab2c7b4e91ed393b7cfefffffff3069d2c37e356b79a75a384c261b8e018bcffbf13ebf32eccf1e9c50af9fe67c00500006b483045022100b3b94833a7b749da25e5b513c152a4e6a3a0ed133b75c109d52a033dd1b21d3d0220031774d6c85884bce5f16d13e4395b22276f3c7ec1f20790edcf13180dd80a1c0121020296c9da774e32e26978ff8cac524c6207384c07b95cc0ab3fcb952fbd121270feffffff021e40c000000000001976a914b9e6aa3a4b0710fb22400c1e298a81012b6fe35188ac23690f00000000001976a914760021d28d80f27299af2225fa6b79e03c589b6488ac3ec31400"
    }
  ],
  "time": 1517468936,
  "mediantime": 1517468129,
  "nonce": 3351566466,
  "bits": "1a042eae",
  "difficulty": 4011378.762614286,
  "chainwork": "0000000000000000000000000000000000000000000000352ff5ca2929819d02",
  "previousblockhash": "122b19cbc5c2fdd7d50bd556e20654314fcb9f3fba7a8902aa1f9eab2b10ac36",
  "nextblockhash": "828b934916ac9dd3baa4167be844146a2a643dc6f7219a0062006b3ce56eb438"
}
