{
  "hash": "d1eef69f1f813efb7359227c5daac023a3ccf20c5067ea94248d6665f10f0dc5",
  "confirmations": 1337,
  "strippedsize": 2650,
  "size": 2686,
  "weight": 10636,
  "height": 1359657,
  "version": 536870912,
  "versionHex": "20000000",
  "merkleroot": "df23c0426b41d92e054b05598dbe62986cd0074866306f547c93972006f08d0e",
  "tx": [
    {
      "txid": "f890c792193ff975f404f21da3e801e3205dd8d15f819140a3fb80244d06b861",
      "hash": "db2721639f4ad5cd1c3e23bc74e170a65b2b21b68c31509f2a085fe537e97dc7",
      "version": 1,
      "size": 244,
      "vsize": 217,
      "locktime": 0,
      "vin": [
        {
          "coinbase": "0329bf1404c360705a0800badee101000000fabe6d6d5857ea30908f6f967ca0dd937862383a92f590d02e6910d8066293a8782fcbd940000000000000000d2f6e6f64655374726174756d2f",
          "sequence": 0
        }
      ],
      "vout": [
        {
          "value": 25.00691400,
          "n": 0,
          "scriptPubKey": {
            "asm": "OP_DUP OP_HASH160 0c617fdb2ea42aed30a509595ee21ba3f6688db0 OP_EQUALVERIFY OP_CHECKSIG",
            "hex": "76a9140c617fdb2ea42aed30a509595ee21ba3f6688db088ac",
            "reqSigs": 1,
            "type": "pubkeyhash",
            "addresses": [
              "LLMRAtr3qBje2ySEa3CnZ55LA4TQMWnRY3"
            ]
          }
        }, 
        {
          "value": 0.00000000,
          "n": 1,
          "scriptPubKey": {
            "asm": "OP_RETURN aa21a9ed6f72cb709fb77ad2c387b14a9350f18e30f0f357012763be65fca825e8492d3f",
            "hex": "6a24aa21a9ed6f72cb709fb77ad2c387b14a9350f18e30f0f357012763be65fca825e8492d3f",
            "type": "nulldata"
          }
        }
      ],
      "hex": "010000000001010000000000000000000000000000000000000000000000000000000000000000ffffffff4c0329bf1404c360705a0800badee101000000fabe6d6d5857ea30908f6f967ca0dd937862383a92f590d02e6910d8066293a8782fcbd940000000000000000d2f6e6f64655374726174756d2f0000000002c8850d95000000001976a9140c617fdb2ea42aed30a509595ee21ba3f6688db088ac0000000000000000266a24aa21a9ed6f72cb709fb77ad2c387b14a9350f18e30f0f357012763be65fca825e8492d3f0120000000000000000000000000000000000000000000000000000000000000000000000000"
    }, 
    {
      "txid": "4d18e3c05f9beeaf890bf5528b68e3c72d800d7162c51b10b547a11c9c545444",
      "hash": "4d18e3c05f9beeaf890bf5528b68e3c72d800d7162c51b10b547a11c9c545444",
      "version": 1,
      "size": 226,
      "vsize": 226,
      "locktime": 0,
      "vin": [
        {
          "txid": "68cb499b9366da7804dc1bab29c121679ef0a640298dd25d749d3452302e5055",
          "vout": 0,
          "scriptSig": {
            "asm": "3045022100cfcee91d62b4c2d188d27adf20320fac225f29240bef28b4ff77952c65b96585022020d3da78689aee016844fdc6bf1685ccc4b147867ce6a3abf2230c02d58cd709[ALL] 023e8f83566a9605339b8b1dc9dd7f9380f6807706fe52c96d98492360a9dbb642",
            "hex": "483045022100cfcee91d62b4c2d188d27adf20320fac225f29240bef28b4ff77952c65b96585022020d3da78689aee016844fdc6bf1685ccc4b147867ce6a3abf2230c02d58cd7090121023e8f83566a9605339b8b1dc9dd7f9380f6807706fe52c96d98492360a9dbb642"
          },
          "sequence": 4294967295
        }
      ],
      "vout": [
        {
          "value": 0.16122979,
          "n": 0,
          "scriptPubKey": {
            "asm": "OP_DUP OP_HASH160 b0208c202ba4416ce1ed37dec67ee03505936267 OP_EQUALVERIFY OP_CHECKSIG",
            "hex": "76a914b0208c202ba4416ce1ed37dec67ee0350593626788ac",
            "reqSigs": 1,
            "type": "pubkeyhash",
            "addresses": [
              "LbHEBQVLx6c2HQZG6Ns1q4KGDEfHMBRP6t"
            ]
          }
        }, 
        {
          "value": 0.03477021,
          "n": 1,
          "scriptPubKey": {
            "asm": "OP_DUP OP_HASH160 15ab793c4e95c8b7583e68da13f29f38f710956a OP_EQUALVERIFY OP_CHECKSIG",
            "hex": "76a91415ab793c4e95c8b7583e68da13f29f38f710956a88ac",
            "reqSigs": 1,
            "type": "pubkeyhash",
            "addresses": [
              "LMCXsS9d7Fg4kxj6UbisZbdvafRtdRWds3"
            ]
          }
        }
      ],
      "hex": "010000000155502e3052349d745dd28d2940a6f09e6721c129ab1bdc0478da66939b49cb68000000006b483045022100cfcee91d62b4c2d188d27adf20320fac225f29240bef28b4ff77952c65b96585022020d3da78689aee016844fdc6bf1685ccc4b147867ce6a3abf2230c02d58cd7090121023e8f83566a9605339b8b1dc9dd7f9380f6807706fe52c96d98492360a9dbb642ffffffff026304f600000000001976a914b0208c202ba4416ce1ed37dec67ee0350593626788ac1d0e3500000000001976a91415ab793c4e95c8b7583e68da13f29f38f710956a88ac00000000"
    }, 
    {
      "txid": "7686635c40a3026d4a5d12fd9ca95847d28dab2d164e92f98cee0b767adc6805",
      "hash": "7686635c40a3026d4a5d12fd9ca95847d28dab2d164e92f98cee0b767adc6805",
      "version": 1,
      "size": 225,
      "vsize": 225,
      "locktime": 0,
      "vin": [
        {
          "txid": "673f00e670a556cd243c9cc80c4015be4d81c5dd65eb809fd057440793efb7c8",
          "vout": 20,
          "scriptSig": {
            "asm": "304402201dc039e5830f0a49ca3e844bc0b369f780871d6a6e180bd4f7ff5837fbe33fd2022066b9d6a9f5a610832da4064367b3ecb22caa25a61744512e7e55a512aa9a5890[ALL] 02ee6d34b32414ef779dd271a39028e644ec5d255d1d2e5cfe2da6693a266f9265",
            "hex": "47304402201dc039e5830f0a49ca3e844bc0b369f780871d6a6e180bd4f7ff5837fbe33fd2022066b9d6a9f5a610832da4064367b3ecb22caa25a61744512e7e55a512aa9a5890012102ee6d34b32414ef779dd271a39028e644ec5d255d1d2e5cfe2da6693a266f9265"
          },
          "sequence": 4294967295
        }
      ],
      "vout": [
        {
          "value": 0.81849260,
          "n": 0,
          "scriptPubKey": {
            "asm": "OP_DUP OP_HASH160 711c0a9c77380e9210316d65f2ebbafa7df363e3 OP_EQUALVERIFY OP_CHECKSIG",
            "hex": "76a914711c0a9c77380e9210316d65f2ebbafa7df363e388ac",
            "reqSigs": 1,
            "type": "pubkeyhash",
            "addresses": [
              "LVY2DF6uc7ynjupsnL2kxbfdDELEVAit7h"
            ]
          }
        }, 
        {
          "value": 0.01001490,
          "n": 1,
          "scriptPubKey": {
            "asm": "OP_DUP OP_HASH160 0e9ae50e26a6c389f851e914ba8e08f25662e249 OP_EQUALVERIFY OP_CHECKSIG",
            "hex": "76a9140e9ae50e26a6c389f851e914ba8e08f25662e24988ac",
            "reqSigs": 1,
            "type": "pubkeyhash",
            "addresses": [
              "LLZBHB4m6MiQekXKC3L74GnbRdhtcewyUd"
            ]
          }
        }
      ],
      "hex": "0100000001c8b7ef93074457d09f80eb65ddc5814dbe15400cc89c3c24cd56a570e6003f67140000006a47304402201dc039e5830f0a49ca3e844bc0b369f780871d6a6e180bd4f7ff5837fbe33fd2022066b9d6a9f5a610832da4064367b3ecb22caa25a61744512e7e55a512aa9a5890012102ee6d34b32414ef779dd271a39028e644ec5d255d1d2e5cfe2da6693a266f9265ffffffff02acebe004000000001976a914711c0a9c77380e9210316d65f2ebbafa7df363e388ac12480f00000000001976a9140e9ae50e26a6c389f851e914ba8e08f25662e24988ac00000000"
    }, 
    {
      "txid": "f4ccc322274e87e58d8d07ecca0842978355f60587bf1098f35c52f85242d7a9",
      "hash": "f4ccc322274e87e58d8d07ecca0842978355f60587bf1098f35c52f85242d7a9",
      "version": 2,
      "size": 225,
      "vsize": 225,
      "locktime": 1359654,
      "vin": [
        {
          "txid": "4269c79d2ce082c4a8114edd8bd17fc1a2002ac001eee6ba50a3167ce256b056",
          "vout": 325,
          "scriptSig": {
            "asm": "304402201e77b5a05f168cbfa865973bfddb970ddaa21ee397762466d7f304f0a117ef47022009891acaa31da21d7a09da1581a11258e47d409aca9b457ad8127fe0e5d450a2[ALL] 02e00c424d1a9fb6bd90f416b54cfcec3b92a4f453a14f6dae904fc1dbae8e5116",
            "hex": "47304402201e77b5a05f168cbfa865973bfddb970ddaa21ee397762466d7f304f0a117ef47022009891acaa31da21d7a09da1581a11258e47d409aca9b457ad8127fe0e5d450a2012102e00c424d1a9fb6bd90f416b54cfcec3b92a4f453a14f6dae904fc1dbae8e5116"
          },
          "sequence": 4294967294
        }
      ],
      "vout": [
        {
          "value": 0.00981570,
          "n": 0,
          "scriptPubKey": {
            "asm": "OP_DUP OP_HASH160 72113bc53f48c55dac80c405ff6097162fe32436 OP_EQUALVERIFY OP_CHECKSIG",
            "hex": "76a91472113bc53f48c55dac80c405ff6097162fe3243688ac",
            "reqSigs": 1,
            "type": "pubkeyhash",
            "addresses": [
              "LVd5wV4z1qd2yBZfPst7PrAQ62WK8iEJx8"
            ]
          }
        }, 
        {
          "value": 0.14307600,
          "n": 1,
          "scriptPubKey": {
            "asm": "OP_DUP OP_HASH160 815bf2c9a8e627c318948f16ecf0bee7838be161 OP_EQUALVERIFY OP_CHECKSIG",
            "hex": "76a914815bf2c9a8e627c318948f16ecf0bee7838be16188ac",
            "reqSigs": 1,
            "type": "pubkeyhash",
            "addresses": [
              "LX1waeNs3WoehBa2nbbFxmgPGBYuCqHbkT"
            ]
          }
        }
      ],
      "hex": "020000000156b056e27c16a350bae6ee01c02a00a2c17fd18bdd4e11a8c482e02c9dc76942450100006a47304402201e77b5a05f168cbfa865973bfddb970ddaa21ee397762466d7f304f0a117ef47022009891acaa31da21d7a09da1581a11258e47d409aca9b457ad8127fe0e5d450a2012102e00c424d1a9fb6bd90f416b54cfcec3b92a4f453a14f6dae904fc1dbae8e5116feffffff0242fa0e00000000001976a91472113bc53f48c55dac80c405ff6097162fe3243688ac1051da00000000001976a914815bf2c9a8e627c318948f16ecf0bee7838be16188ac26bf1400"
    }, 
    {
      "txid": "f9b3121455018085afcc4be848b74904d2ee58d5a99478ffbf5cf94fb2dd1ad9",
      "hash": "f9b3121455018085afcc4be848b74904d2ee58d5a99478ffbf5cf94fb2dd1ad9",
      "version": 1,
      "size": 225,
      "vsize": 225,
      "locktime": 0,
      "vin": [
        {
          "txid": "e58d4664aae0d1ab48a9027887ef6c80c3e4230d92b442b4ae76b68aeb220b27",
          "vout": 34,
          "scriptSig": {
            "asm": "304402204c0df82d000db8be98315dc40db63502b5ad7c68f2a8a216beba7b8de06dc8d102202310a41a159356f0028e3496efb1fe4d52284de584d6b79be9f10f2e2c133a92[ALL] 030d86d27044a6194056e730b88a9d13b147edf512d54ee669ffce7c612ba52421",
            "hex": "47304402204c0df82d000db8be98315dc40db63502b5ad7c68f2a8a216beba7b8de06dc8d102202310a41a159356f0028e3496efb1fe4d52284de584d6b79be9f10f2e2c133a920121030d86d27044a6194056e730b88a9d13b147edf512d54ee669ffce7c612ba52421"
          },
          "sequence": 4294967295
        }
      ],
      "vout": [
        {
          "value": 0.01416939,
          "n": 0,
          "scriptPubKey": {
            "asm": "OP_DUP OP_HASH160 52afdd3d28b21e7d02098e55136aa6bd995ed460 OP_EQUALVERIFY OP_CHECKSIG",
            "hex": "76a91452afdd3d28b21e7d02098e55136aa6bd995ed46088ac",
            "reqSigs": 1,
            "type": "pubkeyhash",
            "addresses": [
              "LSmAMCixw6i6uqwAqqz6z89b9yd1tsSicD"
            ]
          }
        }, 
        {
          "value": 0.51102990,
          "n": 1,
          "scriptPubKey": {
            "asm": "OP_DUP OP_HASH160 85700bd379e8a142259b981f4b03afda99891b26 OP_EQUALVERIFY OP_CHECKSIG",
            "hex": "76a91485700bd379e8a142259b981f4b03afda99891b2688ac",
            "reqSigs": 1,
            "type": "pubkeyhash",
            "addresses": [
              "LXPWMqFAQLUB9xmoVy96iaJj9yx5UYcuUP"
            ]
          }
        }
      ],
      "hex": "0100000001270b22eb8ab676aeb442b4920d23e4c3806cef877802a948abd1e0aa64468de5220000006a47304402204c0df82d000db8be98315dc40db63502b5ad7c68f2a8a216beba7b8de06dc8d102202310a41a159356f0028e3496efb1fe4d52284de584d6b79be9f10f2e2c133a920121030d86d27044a6194056e730b88a9d13b147edf512d54ee669ffce7c612ba52421ffffffff02eb9e1500000000001976a91452afdd3d28b21e7d02098e55136aa6bd995ed46088ac0ec50b03000000001976a91485700bd379e8a142259b981f4b03afda99891b2688ac00000000"
    }, 
    {
      "txid": "1f944e300344cbc9c78efb19cfa8e63bb7e6fada32ec145bb98c1d19be99dbcd",
      "hash": "1f944e300344cbc9c78efb19cfa8e63bb7e6fada32ec145bb98c1d19be99dbcd",
      "version": 2,
      "size": 782,
      "vsize": 782,
      "locktime": 1359654,
      "vin": [
        {
          "txid": "da1332045e9d771787d12d875c813c9a5195b12f226296cc5d4462dfd6c97cd5",
          "vout": 1,
          "scriptSig": {
            "asm": "3045022100b64357598837bfe18d57609c38f7e75d089ef3bad2d762f4fd94110df974546202205b1863db031816aaf02afca74d54ae36b0d4f6651f2ba5fe3db0801dea8ae6ba[ALL] 039851b56217f94d50a0d268dc609999e02fa0975bfdc061e66324634096157a4d",
            "hex": "483045022100b64357598837bfe18d57609c38f7e75d089ef3bad2d762f4fd94110df974546202205b1863db031816aaf02afca74d54ae36b0d4f6651f2ba5fe3db0801dea8ae6ba0121039851b56217f94d50a0d268dc609999e02fa0975bfdc061e66324634096157a4d"
          },
          "sequence": 4294967294
        }, 
        {
          "txid": "29c8a075328b37762ba7160fb9fc68dca891316ff9e8bc110984983a284e4e3d",
          "vout": 2,
          "scriptSig": {
            "asm": "304402203311cff24cac625cbd493b42575e51a90f6548ac05989a0face9da062ba864dd02202193d9f8414e98c9cdbdb3c6ba459d356c96e5e7e1a0f05274b4c94c0dcbe3b5[ALL] 03ca423372aba74d8ff05952b667c640923fa832518e930064b2b80c6651223559",
            "hex": "47304402203311cff24cac625cbd493b42575e51a90f6548ac05989a0face9da062ba864dd02202193d9f8414e98c9cdbdb3c6ba459d356c96e5e7e1a0f05274b4c94c0dcbe3b5012103ca423372aba74d8ff05952b667c640923fa832518e930064b2b80c6651223559"
          },
          "sequence": 4294967294
        }, 
        {
          "txid": "f39538971834fdf1525d31c3d0e85a13cce656628ae67df3da7d8521fe0abd13",
          "vout": 2,
          "scriptSig": {
            "asm": "30450221008906952670a6072447aa14c2f422b7e416aee598c5e0f5a3e186cf84ccc3f23502204b2d16a68ec8da82d476f2115f2fac8c410a44f33a8cfbb02e4c34b32a7694bd[ALL] 027027f2b7a41243b70ff4fccb70522b460424524986fc0b0d850a2b6db1536a19",
            "hex": "4830450221008906952670a6072447aa14c2f422b7e416aee598c5e0f5a3e186cf84ccc3f23502204b2d16a68ec8da82d476f2115f2fac8c410a44f33a8cfbb02e4c34b32a7694bd0121027027f2b7a41243b70ff4fccb70522b460424524986fc0b0d850a2b6db1536a19"
          },
          "sequence": 4294967294
        }, 
        {
          "txid": "1a3b48a0e32cd2d7859458e64ef6a225c332b91ec088c2477ec462c6fbba344c",
          "vout": 2,
          "scriptSig": {
            "asm": "30440220519358bff5e3696e282b9c55c40184783994d1b54c887781366d22b343ec5f5802206f15c6c1783072ca8b23693a906c72521e5ca3bec889e025996706672851cb44[ALL] 02525fcdb6e8a82134f0ddc3f133663411ee7aa21d9f53b4720bd9c0555ebb5baa",
            "hex": "4730440220519358bff5e3696e282b9c55c40184783994d1b54c887781366d22b343ec5f5802206f15c6c1783072ca8b23693a906c72521e5ca3bec889e025996706672851cb44012102525fcdb6e8a82134f0ddc3f133663411ee7aa21d9f53b4720bd9c0555ebb5baa"
          },
          "sequence": 4294967294
        }, 
        {
          "txid": "cbb39673d3ef1b324db73c9d7bf9c4ad31aaeebd1b38805366ea807c1ff889c9",
          "vout": 1,
          "scriptSig": {
            "asm": "3045022100b16b4a153da2b6a4b651b7c1340f83a5fa00fa2acbf0baf3612964f5d55be1b30220414010e1f321ef006372738d646613bf99619f88c912d4f6fd6af7324c1c8de6[ALL] 02418698be04d24ce82418f2422bccc7f3bb75aacbc54ad47b9f7a57aa83c70208",
            "hex": "483045022100b16b4a153da2b6a4b651b7c1340f83a5fa00fa2acbf0baf3612964f5d55be1b30220414010e1f321ef006372738d646613bf99619f88c912d4f6fd6af7324c1c8de6012102418698be04d24ce82418f2422bccc7f3bb75aacbc54ad47b9f7a57aa83c70208"
          },
          "sequence": 4294967294
        }
      ],
      "vout": [
        {
          "value": 26.39632256,
          "n": 0,
          "scriptPubKey": {
            "asm": "OP_DUP OP_HASH160 91a19833047dbca3056c0aa56662fcddea6d6ca8 OP_EQUALVERIFY OP_CHECKSIG",
            "hex": "76a91491a19833047dbca3056c0aa56662fcddea6d6ca888ac",
            "reqSigs": 1,
            "type": "pubkeyhash",
            "addresses": [
              "LYVypp7WraFBUFXWpArAKuxeiACoZt8sP3"
            ]
          }
        }
      ],
      "hex": "0200000005d57cc9d6df62445dcc9662222fb195519a3c815c872dd18717779d5e043213da010000006b483045022100b64357598837bfe18d57609c38f7e75d089ef3bad2d762f4fd94110df974546202205b1863db031816aaf02afca74d54ae36b0d4f6651f2ba5fe3db0801dea8ae6ba0121039851b56217f94d50a0d268dc609999e02fa0975bfdc061e66324634096157a4dfeffffff3d4e4e283a98840911bce8f96f3191a8dc68fcb90f16a72b76378b3275a0c829020000006a47304402203311cff24cac625cbd493b42575e51a90f6548ac05989a0face9da062ba864dd02202193d9f8414e98c9cdbdb3c6ba459d356c96e5e7e1a0f05274b4c94c0dcbe3b5012103ca423372aba74d8ff05952b667c640923fa832518e930064b2b80c6651223559feffffff13bd0afe21857ddaf37de68a6256e6cc135ae8d0c3315d52f1fd3418973895f3020000006b4830450221008906952670a6072447aa14c2f422b7e416aee598c5e0f5a3e186cf84ccc3f23502204b2d16a68ec8da82d476f2115f2fac8c410a44f33a8cfbb02e4c34b32a7694bd0121027027f2b7a41243b70ff4fccb70522b460424524986fc0b0d850a2b6db1536a19feffffff4c34bafbc662c47e47c288c01eb932c325a2f64ee6589485d7d22ce3a0483b1a020000006a4730440220519358bff5e3696e282b9c55c40184783994d1b54c887781366d22b343ec5f5802206f15c6c1783072ca8b23693a906c72521e5ca3bec889e025996706672851cb44012102525fcdb6e8a82134f0ddc3f133663411ee7aa21d9f53b4720bd9c0555ebb5baafeffffffc989f81f7c80ea665380381bbdeeaa31adc4f97b9d3cb74d321befd37396b3cb010000006b483045022100b16b4a153da2b6a4b651b7c1340f83a5fa00fa2acbf0baf3612964f5d55be1b30220414010e1f321ef006372738d646613bf99619f88c912d4f6fd6af7324c1c8de6012102418698be04d24ce82418f2422bccc7f3bb75aacbc54ad47b9f7a57aa83c70208feffffff018097559d000000001976a91491a19833047dbca3056c0aa56662fcddea6d6ca888ac26bf1400"
    }, 
    {
      "txid": "47f90e106bf10c9d59d90d0615ee220e72b5c72e0aeaf5539609753e6124162b",
      "hash": "47f90e106bf10c9d59d90d0615ee220e72b5c72e0aeaf5539609753e6124162b",
      "version": 2,
      "size": 226,
      "vsize": 226,
      "locktime": 1359644,
      "vin": [
        {
          "txid": "3a4cfa901720b54f0fcc113f72d0d50bd317f18ff891b420279e559b75f97008",
          "vout": 14,
          "scriptSig": {
            "asm": "3045022100c362f0affea3193b0bd8797a822e1098de25114ac501d640f569070992a3c522022008e73382ed15fd358ee47db09b95fbb2a190d5af8d56c1292a5ff05f7105bb90[ALL] 03fe49142e7fd5c1f5ef3f00191a139cd828fff96cc18f2d96faf59de0db37cdc2",
            "hex": "483045022100c362f0affea3193b0bd8797a822e1098de25114ac501d640f569070992a3c522022008e73382ed15fd358ee47db09b95fbb2a190d5af8d56c1292a5ff05f7105bb90012103fe49142e7fd5c1f5ef3f00191a139cd828fff96cc18f2d96faf59de0db37cdc2"
          },
          "sequence": 4294967294
        }
      ],
      "vout": [
        {
          "value": 0.04434692,
          "n": 0,
          "scriptPubKey": {
            "asm": "OP_DUP OP_HASH160 f53b2f208202afeedf1f75f963ed8962a153461b OP_EQUALVERIFY OP_CHECKSIG",
            "hex": "76a914f53b2f208202afeedf1f75f963ed8962a153461b88ac",
            "reqSigs": 1,
            "type": "pubkeyhash",
            "addresses": [
              "LhaciPp4HZc5x3pRscoXoDeY7j9nvV3wdZ"
            ]
          }
        }, 
        {
          "value": 1.07784000,
          "n": 1,
          "scriptPubKey": {
            "asm": "OP_DUP OP_HASH160 94df10175b43da50c35bfc04a3ab21fc103d4918 OP_EQUALVERIFY OP_CHECKSIG",
            "hex": "76a91494df10175b43da50c35bfc04a3ab21fc103d491888ac",
            "reqSigs": 1,
            "type": "pubkeyhash",
            "addresses": [
              "LYo7VHMtQ4MEt2qU8rpfTeZd1JAqWcm8EU"
            ]
          }
        }
      ],
      "hex": "02000000010870f9759b559e2720b491f88ff117d30bd5d0723f11cc0f4fb5201790fa4c3a0e0000006b483045022100c362f0affea3193b0bd8797a822e1098de25114ac501d640f569070992a3c522022008e73382ed15fd358ee47db09b95fbb2a190d5af8d56c1292a5ff05f7105bb90012103fe49142e7fd5c1f5ef3f00191a139cd828fff96cc18f2d96faf59de0db37cdc2feffffff0204ab4300000000001976a914f53b2f208202afeedf1f75f963ed8962a153461b88ac40a76c06000000001976a91494df10175b43da50c35bfc04a3ab21fc103d491888ac1cbf1400"
    }, 
    {
      "txid": "e0cad595717488430de65fecb6119104703624dad494aeea1cad223798a6e040",
      "hash": "e0cad595717488430de65fecb6119104703624dad494aeea1cad223798a6e040",
      "version": 1,
      "size": 226,
      "vsize": 226,
      "locktime": 0,
      "vin": [
        {
          "txid": "6ce2bdf889116d24bb158906961691768bcfd814409d11694d93aaec33b2ab4b",
          "vout": 0,
          "scriptSig": {
            "asm": "30450221009fcaa3fba25dcf32d823c2d81d5f369fce932bdf82ce270990925f24e6701b260220652b25f14e316b029f2452192f9f07a55e8c8ed104fa8dd27268b46c61be5411[ALL] 02bdd11fd1166b3304431aac59fb6c928d477d22c1808607585b9da44d2a1627e2",
            "hex": "4830450221009fcaa3fba25dcf32d823c2d81d5f369fce932bdf82ce270990925f24e6701b260220652b25f14e316b029f2452192f9f07a55e8c8ed104fa8dd27268b46c61be5411012102bdd11fd1166b3304431aac59fb6c928d477d22c1808607585b9da44d2a1627e2"
          },
          "sequence": 4294967295
        }
      ],
      "vout": [
        {
          "value": 0.96061978,
          "n": 0,
          "scriptPubKey": {
            "asm": "OP_DUP OP_HASH160 9efb8e2d8125351bf61434137eb35a19dd8f9869 OP_EQUALVERIFY OP_CHECKSIG",
            "hex": "76a9149efb8e2d8125351bf61434137eb35a19dd8f986988ac",
            "reqSigs": 1,
            "type": "pubkeyhash",
            "addresses": [
              "LZiaNtxJXJ52AMqESGvxbWfquGH3Y7vBiT"
            ]
          }
        }, 
        {
          "value": 3.99977400,
          "n": 1,
          "scriptPubKey": {
            "asm": "OP_DUP OP_HASH160 a1256e77edc50cbf8169407ac72914b20c0f6244 OP_EQUALVERIFY OP_CHECKSIG",
            "hex": "76a914a1256e77edc50cbf8169407ac72914b20c0f624488ac",
            "reqSigs": 1,
            "type": "pubkeyhash",
            "addresses": [
              "LZv1ttHrx6PgcNxcUkE5g7Mpxh9NQqKdeV"
            ]
          }
        }
      ],
      "hex": "01000000014babb233ecaa934d69119d4014d8cf8b76911696068915bb246d1189f8bde26c000000006b4830450221009fcaa3fba25dcf32d823c2d81d5f369fce932bdf82ce270990925f24e6701b260220652b25f14e316b029f2452192f9f07a55e8c8ed104fa8dd27268b46c61be5411012102bdd11fd1166b3304431aac59fb6c928d477d22c1808607585b9da44d2a1627e2ffffffff021acab905000000001976a9149efb8e2d8125351bf61434137eb35a19dd8f986988acb82bd717000000001976a914a1256e77edc50cbf8169407ac72914b20c0f624488ac00000000"
    }, 
    {
      "txid": "c23c67f1e1e400d5f1e307c4d15bcfb4f96e47f7593efeea99626a249e22f0de",
      "hash": "c23c67f1e1e400d5f1e307c4d15bcfb4f96e47f7593efeea99626a249e22f0de",
      "version": 1,
      "size": 226,
      "vsize": 226,
      "locktime": 0,
      "vin": [
        {
          "txid": "a5ebd17ec2df17fd4cfd28df4ffb22a6374ee1967362ad305441af4d7b2ccd01",
          "vout": 1,
          "scriptSig": {
            "asm": "3045022100e44f55706fc97246a37b8ab567edfc963b9b99a050ee599dd8f245b932371b7002206a9fdfb08ed195f29c468a4003f9fdffff399e78fdcb72a1518f2b3cc9c4be66[ALL] 03521c7645e291df14e89adfdadc11486668e265466f6bf8ccb8c338da29d7fb5e",
            "hex": "483045022100e44f55706fc97246a37b8ab567edfc963b9b99a050ee599dd8f245b932371b7002206a9fdfb08ed195f29c468a4003f9fdffff399e78fdcb72a1518f2b3cc9c4be66012103521c7645e291df14e89adfdadc11486668e265466f6bf8ccb8c338da29d7fb5e"
          },
          "sequence": 4294967295
        }
      ],
      "vout": [
        {
          "value": 0.33677472,
          "n": 0,
          "scriptPubKey": {
            "asm": "OP_DUP OP_HASH160 76502c34904cb276ee47dd5b9d7aa4d14a2ffca0 OP_EQUALVERIFY OP_CHECKSIG",
            "hex": "76a91476502c34904cb276ee47dd5b9d7aa4d14a2ffca088ac",
            "reqSigs": 1,
            "type": "pubkeyhash",
            "addresses": [
              "LW1Y3LvMJhVLQb9Rrf8ZjoWtLBs5okZ8nn"
            ]
          }
        }, 
        {
          "value": 5.16254728,
          "n": 1,
          "scriptPubKey": {
            "asm": "OP_DUP OP_HASH160 1edf31b10bffb326b39460902c0c6515ec133595 OP_EQUALVERIFY OP_CHECKSIG",
            "hex": "76a9141edf31b10bffb326b39460902c0c6515ec13359588ac",
            "reqSigs": 1,
            "type": "pubkeyhash",
            "addresses": [
              "LN3BumQSCnZH7oigKeYPP2d8K3am2A5A3r"
            ]
          }
        }
      ],
      "hex": "010000000101cd2c7b4daf415430ad627396e14e37a622fb4fdf28fd4cfd17dfc27ed1eba5010000006b483045022100e44f55706fc97246a37b8ab567edfc963b9b99a050ee599dd8f245b932371b7002206a9fdfb08ed195f29c468a4003f9fdffff399e78fdcb72a1518f2b3cc9c4be66012103521c7645e291df14e89adfdadc11486668e265466f6bf8ccb8c338da29d7fb5effffffff02a0e00102000000001976a91476502c34904cb276ee47dd5b9d7aa4d14a2ffca088ac086cc51e000000001976a9141edf31b10bffb326b39460902c0c6515ec13359588ac00000000"
    }
  ],
  "time": 1517313765,
  "mediantime": 1517313089,
  "nonce": 1685461459,
  "bits": "1a042eae",
  "difficulty": 4011378.762614286,
  "chainwork": "000000000000000000000000000000000000000000000034359f377621c65a54",
  "previousblockhash": "e7b68c2a73e21fc2090ef1a40cde9b0d16e63fe163b4a05263f7b375d6c9e5aa",
  "nextblockhash": "60a4faf3f81eb1f1376ec888f07061c767dc6307203c3fa1136c2c90ff511dc9"
}
