{
  "hash": "d20118b989f47bcfb50faeacf92eeb060bc57e1990621aae0d10adf0949ce1e1",
  "confirmations": 785,
  "strippedsize": 253,
  "size": 253,
  "weight": 1012,
  "height": 1360209,
  "version": 536870912,
  "versionHex": "20000000",
  "merkleroot": "6327ffc022dfc493fd0850cd596910642e1da22f8c3fa3d37a189aa2c2831618",
  "tx": [
    {
      "txid": "6327ffc022dfc493fd0850cd596910642e1da22f8c3fa3d37a189aa2c2831618",
      "hash": "6327ffc022dfc493fd0850cd596910642e1da22f8c3fa3d37a189aa2c2831618",
      "version": 1,
      "size": 172,
      "vsize": 172,
      "locktime": 0,
      "vin": [
        {
          "coinbase": "0351c1141a4d696e656420627920416e74506f6f6c20626a341e205a718c34fabe6d6da14cfda7880c6e63b55ac15a19aac61ca9ddea1d00f40c77a7cd80b54f02e5140400000000000000c60000000000000002000000",
          "sequence": 4294967295
        }
      ],
      "vout": [
        {
          "value": 25.00000000,
          "n": 0,
          "scriptPubKey": {
            "asm": "OP_DUP OP_HASH160 0ff3ccc5e8be88afe24b5d634e5852d474dbdff1 OP_EQUALVERIFY OP_CHECKSIG",
            "hex": "76a9140ff3ccc5e8be88afe24b5d634e5852d474dbdff188ac",
            "reqSigs": 1,
            "type": "pubkeyhash",
            "addresses": [
              "LLgJTbzZMsRTCUF1NtvvL9SR1a4pVieW89"
            ]
          }
        }
      ],
      "hex": "01000000010000000000000000000000000000000000000000000000000000000000000000ffffffff570351c1141a4d696e656420627920416e74506f6f6c20626a341e205a718c34fabe6d6da14cfda7880c6e63b55ac15a19aac61ca9ddea1d00f40c77a7cd80b54f02e5140400000000000000c60000000000000002000000ffffffff0100f90295000000001976a9140ff3ccc5e8be88afe24b5d634e5852d474dbdff188ac00000000"
    }
  ],
  "time": 1517390900,
  "mediantime": 1517390376,
  "nonce": 1827204738,
  "bits": "1a042eae",
  "difficulty": 4011378.762614286,
  "chainwork": "000000000000000000000000000000000000000000000034b99afae6dbc3daa4",
  "previousblockhash": "58a38a73eed1186508eb8a8178dfa58fe3d25b4314f8037464a7b00af676f20b",
  "nextblockhash": "de8eadb515b8439c6a8105ecc0c67cd841b1eba29fb4e9d0337d596ff54805b4"
}
