{
  "hash": "d2307912beab64cc1a7e1140ca156e093d9720cdd491862eb21a4653d7593a22",
  "confirmations": 302,
  "strippedsize": 253,
  "size": 253,
  "weight": 1012,
  "height": 1360692,
  "version": 536870912,
  "versionHex": "20000000",
  "merkleroot": "4aa2c42ea627539c6556aaadcc18d3e7fb73bacf1f39b9fdeefe8b23c8bbc2be",
  "tx": [
    {
      "txid": "4aa2c42ea627539c6556aaadcc18d3e7fb73bacf1f39b9fdeefe8b23c8bbc2be",
      "hash": "4aa2c42ea627539c6556aaadcc18d3e7fb73bacf1f39b9fdeefe8b23c8bbc2be",
      "version": 1,
      "size": 172,
      "vsize": 172,
      "locktime": 0,
      "vin": [
        {
          "coinbase": "0334c3141a4d696e656420627920416e74506f6f6c20626a3532205a72b572fabe6d6dbcdce696fb62f93a1397be634cdf4daa18de3561361d775b696492b47928ac7d0400000000000000061100000000000004000000",
          "sequence": 4294967295
        }
      ],
      "vout": [
        {
          "value": 25.00000000,
          "n": 0,
          "scriptPubKey": {
            "asm": "OP_DUP OP_HASH160 0ff3ccc5e8be88afe24b5d634e5852d474dbdff1 OP_EQUALVERIFY OP_CHECKSIG",
            "hex": "76a9140ff3ccc5e8be88afe24b5d634e5852d474dbdff188ac",
            "reqSigs": 1,
            "type": "pubkeyhash",
            "addresses": [
              "LLgJTbzZMsRTCUF1NtvvL9SR1a4pVieW89"
            ]
          }
        }
      ],
      "hex": "01000000010000000000000000000000000000000000000000000000000000000000000000ffffffff570334c3141a4d696e656420627920416e74506f6f6c20626a3532205a72b572fabe6d6dbcdce696fb62f93a1397be634cdf4daa18de3561361d775b696492b47928ac7d0400000000000000061100000000000004000000ffffffff0100f90295000000001976a9140ff3ccc5e8be88afe24b5d634e5852d474dbdff188ac00000000"
    }
  ],
  "time": 1517466994,
  "mediantime": 1517466491,
  "nonce": 3370858890,
  "bits": "1a042eae",
  "difficulty": 4011378.762614286,
  "chainwork": "0000000000000000000000000000000000000000000000352d1745e97e81aaea",
  "previousblockhash": "7e2d424ba6bec79da99343d99ded612d788e1ed3326c8718876f2e6713440c6e",
  "nextblockhash": "7a12721d3e87c64119559ea1386a90bda1cdb1ae5ba071a263d833b485e2456e"
}
