{
  "hash": "d25fa231c1e50b43e2448932bb413ece07262edba0c0aa04c783505e0d305133",
  "confirmations": 1796,
  "strippedsize": 254,
  "size": 254,
  "weight": 1016,
  "height": 1359198,
  "version": 536870912,
  "versionHex": "20000000",
  "merkleroot": "09c3e262520829ffcfc20ed2123134a0d9ef1f7f07b67aaedaa259a57870d62e",
  "tx": [
    {
      "txid": "09c3e262520829ffcfc20ed2123134a0d9ef1f7f07b67aaedaa259a57870d62e",
      "hash": "09c3e262520829ffcfc20ed2123134a0d9ef1f7f07b67aaedaa259a57870d62e",
      "version": 1,
      "size": 173,
      "vsize": 173,
      "locktime": 0,
      "vin": [
        {
          "coinbase": "035ebd141b4d696e656420627920416e74506f6f6c20626a302042205a6f6738fabe6d6dea99024dbd6d875f9b98be97e73ceb960884d6e8e608483f460a2ec426b831b80400000000000000b3040000000000003d010000",
          "sequence": 4294967295
        }
      ],
      "vout": [
        {
          "value": 25.00000000,
          "n": 0,
          "scriptPubKey": {
            "asm": "OP_DUP OP_HASH160 0ff3ccc5e8be88afe24b5d634e5852d474dbdff1 OP_EQUALVERIFY OP_CHECKSIG",
            "hex": "76a9140ff3ccc5e8be88afe24b5d634e5852d474dbdff188ac",
            "reqSigs": 1,
            "type": "pubkeyhash",
            "addresses": [
              "LLgJTbzZMsRTCUF1NtvvL9SR1a4pVieW89"
            ]
          }
        }
      ],
      "hex": "01000000010000000000000000000000000000000000000000000000000000000000000000ffffffff58035ebd141b4d696e656420627920416e74506f6f6c20626a302042205a6f6738fabe6d6dea99024dbd6d875f9b98be97e73ceb960884d6e8e608483f460a2ec426b831b80400000000000000b3040000000000003d010000ffffffff0100f90295000000001976a9140ff3ccc5e8be88afe24b5d634e5852d474dbdff188ac00000000"
    }
  ],
  "time": 1517250360,
  "mediantime": 1517249599,
  "nonce": 39906084,
  "bits": "1a042eae",
  "difficulty": 4011378.762614286,
  "chainwork": "000000000000000000000000000000000000000000000033c7dff4f2d5086e3e",
  "previousblockhash": "c689283653044a0b32aa0b267dc82884663228f7309789df0c48d6da79b357a3",
  "nextblockhash": "a8f5243d0e10f5f97694200d725112f89f59261f781ed2c458dd411c2ad239e2"
}
