{
  "hash": "d31452fb3a4bcaca94d11126188ac08b52712ad3f0ef66b582aa69fd109303ac",
  "confirmations": 1281,
  "strippedsize": 255,
  "size": 255,
  "weight": 1020,
  "height": 1359713,
  "version": 536870912,
  "versionHex": "20000000",
  "merkleroot": "a4fcc16f428084c8202c157120748ee7481bacac4a3a747aa554c7766f7f3ffe",
  "tx": [
    {
      "txid": "a4fcc16f428084c8202c157120748ee7481bacac4a3a747aa554c7766f7f3ffe",
      "hash": "a4fcc16f428084c8202c157120748ee7481bacac4a3a747aa554c7766f7f3ffe",
      "version": 1,
      "size": 174,
      "vsize": 174,
      "locktime": 0,
      "vin": [
        {
          "coinbase": "0361bf141c4d696e656420627920416e74506f6f6c20626a341e205a707eb902aefabe6d6da2e5e11f91cdea1167e8fd7b924509b1ba8bb3ccab117be7ad447ac786649146040000000000000033320000000000000f000000",
          "sequence": 4294967295
        }
      ],
      "vout": [
        {
          "value": 25.00000000,
          "n": 0,
          "scriptPubKey": {
            "asm": "OP_DUP OP_HASH160 0ff3ccc5e8be88afe24b5d634e5852d474dbdff1 OP_EQUALVERIFY OP_CHECKSIG",
            "hex": "76a9140ff3ccc5e8be88afe24b5d634e5852d474dbdff188ac",
            "reqSigs": 1,
            "type": "pubkeyhash",
            "addresses": [
              "LLgJTbzZMsRTCUF1NtvvL9SR1a4pVieW89"
            ]
          }
        }
      ],
      "hex": "01000000010000000000000000000000000000000000000000000000000000000000000000ffffffff590361bf141c4d696e656420627920416e74506f6f6c20626a341e205a707eb902aefabe6d6da2e5e11f91cdea1167e8fd7b924509b1ba8bb3ccab117be7ad447ac786649146040000000000000033320000000000000f000000ffffffff0100f90295000000001976a9140ff3ccc5e8be88afe24b5d634e5852d474dbdff188ac00000000"
    }
  ],
  "time": 1517321913,
  "mediantime": 1517321166,
  "nonce": 2833335378,
  "bits": "1a042eae",
  "difficulty": 4011378.762614286,
  "chainwork": "0000000000000000000000000000000000000000000000344302f5f4951b6ec4",
  "previousblockhash": "f3f4f07d1f1ed4c8876bd2b0001549471185d8ab0b711debebfd669c8cc7aeb5",
  "nextblockhash": "6d504dbacc01d72a5d2358d6f991f3e6885e1a5591717b4f894be9ba430b6b38"
}
