{
  "hash": "d336d79bdc53857b102b04b2e8d85ddfbfe13d6532d3cebc0d7aa36dfdb5905d",
  "confirmations": 650,
  "strippedsize": 234,
  "size": 234,
  "weight": 936,
  "height": 1360344,
  "version": 536870912,
  "versionHex": "20000000",
  "merkleroot": "8c959645de48757539681bdfc402f6a1175c10b9a98635ca08ea8a5bfc76bf04",
  "tx": [
    {
      "txid": "8c959645de48757539681bdfc402f6a1175c10b9a98635ca08ea8a5bfc76bf04",
      "hash": "8c959645de48757539681bdfc402f6a1175c10b9a98635ca08ea8a5bfc76bf04",
      "version": 1,
      "size": 153,
      "vsize": 153,
      "locktime": 0,
      "vin": [
        {
          "coinbase": "03d8c114045a71ed3c2cfabe6d6d1845c9ae0168578994de191e24ec8aa97a26f454c54008c0f476bc036579a6484000000000000000042f4c502f085c004cbe23000000",
          "sequence": 4294967295
        }
      ],
      "vout": [
        {
          "value": 25.00000000,
          "n": 0,
          "scriptPubKey": {
            "asm": "OP_DUP OP_HASH160 57757ed2ecf2052ff3126c397aca7defb9ca2cec OP_EQUALVERIFY OP_CHECKSIG",
            "hex": "76a91457757ed2ecf2052ff3126c397aca7defb9ca2cec88ac",
            "reqSigs": 1,
            "type": "pubkeyhash",
            "addresses": [
              "LTCPodGk5FwcJaRzH9yKnwicxzFUbxp6tN"
            ]
          }
        }
      ],
      "hex": "01000000010000000000000000000000000000000000000000000000000000000000000000ffffffff4403d8c114045a71ed3c2cfabe6d6d1845c9ae0168578994de191e24ec8aa97a26f454c54008c0f476bc036579a6484000000000000000042f4c502f085c004cbe23000000ffffffff0100f90295000000001976a91457757ed2ecf2052ff3126c397aca7defb9ca2cec88ac00000000"
    }
  ],
  "time": 1517415740,
  "mediantime": 1517415330,
  "nonce": 1181916679,
  "bits": "1a042eae",
  "difficulty": 4011378.762614286,
  "chainwork": "000000000000000000000000000000000000000000000034d9e24ab31f833e32",
  "previousblockhash": "5fe470512a61e1883d10138fdaf1f8f1599db95b8eaec4a621115e994add1f46",
  "nextblockhash": "91595ecde8c6ce3d7ba7b733a6b74df3ce3b5158334224cda882cab6c7d1162e"
}
