{
  "hash": "d3cf381b5f39cc32c8630b6a03c6dd45222db61ac58b6792efff128e6d9d6c5e",
  "confirmations": 874,
  "strippedsize": 1169,
  "size": 1422,
  "weight": 4929,
  "height": 1360120,
  "version": 536870912,
  "versionHex": "20000000",
  "merkleroot": "0711c9b13c2f460a05f32adf2db73230215c55b940dfbbb7dc78dd135bfef16e",
  "tx": [
    {
      "txid": "eacba44965336bba06970a04a83748ad29ef42341070212f5fddcca08f571ed7",
      "hash": "bcb0e3210d86aaa8061bcf1f2e91730c66885faf1d6cca5ed071a008ebb452c1",
      "version": 1,
      "size": 244,
      "vsize": 217,
      "locktime": 0,
      "vin": [
        {
          "coinbase": "03f8c014042255715a080468481401000000fabe6d6ddc887aaf897449e30c09f4ffba97038c239752ea23050ba6ec5f5360e10d3cad40000000000000000d2f6e6f64655374726174756d2f",
          "sequence": 0
        }
      ],
      "vout": [
        {
          "value": 25.00245200,
          "n": 0,
          "scriptPubKey": {
            "asm": "OP_DUP OP_HASH160 0c617fdb2ea42aed30a509595ee21ba3f6688db0 OP_EQUALVERIFY OP_CHECKSIG",
            "hex": "76a9140c617fdb2ea42aed30a509595ee21ba3f6688db088ac",
            "reqSigs": 1,
            "type": "pubkeyhash",
            "addresses": [
              "LLMRAtr3qBje2ySEa3CnZ55LA4TQMWnRY3"
            ]
          }
        }, 
        {
          "value": 0.00000000,
          "n": 1,
          "scriptPubKey": {
            "asm": "OP_RETURN aa21a9ede74194b040de81c2f44dea73cc2366617b61ebfec405cee5151abece7277c3b0",
            "hex": "6a24aa21a9ede74194b040de81c2f44dea73cc2366617b61ebfec405cee5151abece7277c3b0",
            "type": "nulldata"
          }
        }
      ],
      "hex": "010000000001010000000000000000000000000000000000000000000000000000000000000000ffffffff4c03f8c014042255715a080468481401000000fabe6d6ddc887aaf897449e30c09f4ffba97038c239752ea23050ba6ec5f5360e10d3cad40000000000000000d2f6e6f64655374726174756d2f0000000002d0b60695000000001976a9140c617fdb2ea42aed30a509595ee21ba3f6688db088ac0000000000000000266a24aa21a9ede74194b040de81c2f44dea73cc2366617b61ebfec405cee5151abece7277c3b00120000000000000000000000000000000000000000000000000000000000000000000000000"
    }, 
    {
      "txid": "14cdd1678603151f33fd137fb7124b6836b8c8b0a15a25c4e194bf00e3d555a4",
      "hash": "14cdd1678603151f33fd137fb7124b6836b8c8b0a15a25c4e194bf00e3d555a4",
      "version": 1,
      "size": 226,
      "vsize": 226,
      "locktime": 0,
      "vin": [
        {
          "txid": "b52b48c06df095a25477ea13eeeea7877c47f31cb6c436da7e31aa877edc27c9",
          "vout": 0,
          "scriptSig": {
            "asm": "3045022100b2258272cb58fca64def9818d455257a93c54857f583efffaf5fb0b3a70a3b2202205d0b157d6ba6ae684b5660feddb03e329931ee1bf7fd25d23e2661e410868f31[ALL] 039762aeac7f2dfa57183ab23600f5107f0cc2007a223bbea994de8e876041974f",
            "hex": "483045022100b2258272cb58fca64def9818d455257a93c54857f583efffaf5fb0b3a70a3b2202205d0b157d6ba6ae684b5660feddb03e329931ee1bf7fd25d23e2661e410868f310121039762aeac7f2dfa57183ab23600f5107f0cc2007a223bbea994de8e876041974f"
          },
          "sequence": 4294967295
        }
      ],
      "vout": [
        {
          "value": 3.67065466,
          "n": 0,
          "scriptPubKey": {
            "asm": "OP_DUP OP_HASH160 8054d8d8dd6bce91125bcfe8bbb473f54afcdc60 OP_EQUALVERIFY OP_CHECKSIG",
            "hex": "76a9148054d8d8dd6bce91125bcfe8bbb473f54afcdc6088ac",
            "reqSigs": 1,
            "type": "pubkeyhash",
            "addresses": [
              "LWvWQ3XMoipFsAqE1EZPQFUovLea7DC1ef"
            ]
          }
        }, 
        {
          "value": 2.51000000,
          "n": 1,
          "scriptPubKey": {
            "asm": "OP_DUP OP_HASH160 6d2ef12fc19bf8b52499deeee68cad49bfdbb6e9 OP_EQUALVERIFY OP_CHECKSIG",
            "hex": "76a9146d2ef12fc19bf8b52499deeee68cad49bfdbb6e988ac",
            "reqSigs": 1,
            "type": "pubkeyhash",
            "addresses": [
              "LVBG9ifo15TSMAZRdwAvdZADkW8xssBcBj"
            ]
          }
        }
      ],
      "hex": "0100000001c927dc7e87aa317eda36c4b61cf3477c87a7eeee13ea7754a295f06dc0482bb5000000006b483045022100b2258272cb58fca64def9818d455257a93c54857f583efffaf5fb0b3a70a3b2202205d0b157d6ba6ae684b5660feddb03e329931ee1bf7fd25d23e2661e410868f310121039762aeac7f2dfa57183ab23600f5107f0cc2007a223bbea994de8e876041974fffffffff027af9e015000000001976a9148054d8d8dd6bce91125bcfe8bbb473f54afcdc6088acc0f4f50e000000001976a9146d2ef12fc19bf8b52499deeee68cad49bfdbb6e988ac00000000"
    }, 
    {
      "txid": "ee61ee8611531bbffa0413f693f4d5f27c7693b5878eee42f1b2a97199fb7771",
      "hash": "629b67cec44d94f11723019f39c8d4fd35e3618502433ed963f97e1f847773cd",
      "version": 1,
      "size": 421,
      "vsize": 259,
      "locktime": 0,
      "vin": [
        {
          "txid": "cf4074d00b0508b59f619a2fd5b005185a46a2bc45ef574efd4d8cd72b4ac67e",
          "vout": 1,
          "scriptSig": {
            "asm": "001425577dd93a0d5b89927b9ba8e2446c1796069bcd",
            "hex": "16001425577dd93a0d5b89927b9ba8e2446c1796069bcd"
          },
          "txinwitness": [
            "304402205c3ab0aafe9addd73ae497ba7d532ab58f2e2899a05cf50c1f63738a8f17b4a0022019a57eb064e80d2e99a7dbe0204b00475e29f2cb3372447f251724b11ad1922f01", 
            "0265e157d559ebfe511af9dd5c219d03e53317e232b5afd75f597f98850a1b8b6d"
          ],
          "sequence": 4294967295
        }, 
        {
          "txid": "ecc8e60e16a1e831544546d51fd82f0d3b9a6cbaf6eec8c1e29acb265a2cdf93",
          "vout": 0,
          "scriptSig": {
            "asm": "0014ff5f02324e04d7c04f3a2bf55e1e00b5d9d4873d",
            "hex": "160014ff5f02324e04d7c04f3a2bf55e1e00b5d9d4873d"
          },
          "txinwitness": [
            "3045022100a3cd438c2ad9f45f967ffce66d893ae7a9c28669b267ec2ddc75a5d206fad19a02203383f886a26fa78dfcb63843c569581b6e45ab6cf361b10e882edc09988312bf01", 
            "025a38dab78fafc6a506fbb9422a625b187906e61cd5ffc1c2bce65537aa07906d"
          ],
          "sequence": 4294967295
        }
      ],
      "vout": [
        {
          "value": 19.61583150,
          "n": 0,
          "scriptPubKey": {
            "asm": "OP_DUP OP_HASH160 48c9a899f3a685df43c8e669b99e7c7cc852ab5d OP_EQUALVERIFY OP_CHECKSIG",
            "hex": "76a91448c9a899f3a685df43c8e669b99e7c7cc852ab5d88ac",
            "reqSigs": 1,
            "type": "pubkeyhash",
            "addresses": [
              "LRrpVWXaoedoXSeVFKa4wrPUhYy6Cdeda6"
            ]
          }
        }, 
        {
          "value": 16.56584179,
          "n": 1,
          "scriptPubKey": {
            "asm": "OP_HASH160 5e527dab3a7e8b0c07b9e848695ae046015b3e43 OP_EQUAL",
            "hex": "a9145e527dab3a7e8b0c07b9e848695ae046015b3e4387",
            "reqSigs": 1,
            "type": "scripthash",
            "addresses": [
              "MGVta2hKQMR4hbwbvgmUEFUdPJuE5uQCRN"
            ]
          }
        }
      ],
      "hex": "010000000001027ec64a2bd78c4dfd4e57ef45bca2465a1805b0d52f9a619fb508050bd07440cf010000001716001425577dd93a0d5b89927b9ba8e2446c1796069bcdffffffff93df2c5a26cb9ae2c1c8eef6ba6c9a3b0d2fd81fd546455431e8a1160ee6c8ec0000000017160014ff5f02324e04d7c04f3a2bf55e1e00b5d9d4873dffffffff022e62eb74000000001976a91448c9a899f3a685df43c8e669b99e7c7cc852ab5d88acf377bd620000000017a9145e527dab3a7e8b0c07b9e848695ae046015b3e43870247304402205c3ab0aafe9addd73ae497ba7d532ab58f2e2899a05cf50c1f63738a8f17b4a0022019a57eb064e80d2e99a7dbe0204b00475e29f2cb3372447f251724b11ad1922f01210265e157d559ebfe511af9dd5c219d03e53317e232b5afd75f597f98850a1b8b6d02483045022100a3cd438c2ad9f45f967ffce66d893ae7a9c28669b267ec2ddc75a5d206fad19a02203383f886a26fa78dfcb63843c569581b6e45ab6cf361b10e882edc09988312bf0121025a38dab78fafc6a506fbb9422a625b187906e61cd5ffc1c2bce65537aa07906d00000000"
    }, 
    {
      "txid": "b44f2db10028336e7f1eea8c0dd1370189f6f870bb4fc3e2503929cd455e0f0e",
      "hash": "b44f2db10028336e7f1eea8c0dd1370189f6f870bb4fc3e2503929cd455e0f0e",
      "version": 1,
      "size": 225,
      "vsize": 225,
      "locktime": 0,
      "vin": [
        {
          "txid": "a4fe8fb2bb6cd5a832fe3e52576a9570cb6d4fb97f107a7b6363f1e5060686c2",
          "vout": 1,
          "scriptSig": {
            "asm": "3044022035519f397a3c21affafebea3423cd514e54f79a4677d56b8c6d05fe481f0046b022046c41df49f7f90e5483e480cc0432a551698bc20f9260996cb638a234d571f8d[ALL] 03e20868224f2df2bd2e67aea9feaa1fe3f3c357825ed2c19a489ba3a34810d7be",
            "hex": "473044022035519f397a3c21affafebea3423cd514e54f79a4677d56b8c6d05fe481f0046b022046c41df49f7f90e5483e480cc0432a551698bc20f9260996cb638a234d571f8d012103e20868224f2df2bd2e67aea9feaa1fe3f3c357825ed2c19a489ba3a34810d7be"
          },
          "sequence": 4294967295
        }
      ],
      "vout": [
        {
          "value": 0.01844824,
          "n": 0,
          "scriptPubKey": {
            "asm": "OP_DUP OP_HASH160 dafd7e0854a6648176edd315798088aeeb238ebe OP_EQUALVERIFY OP_CHECKSIG",
            "hex": "76a914dafd7e0854a6648176edd315798088aeeb238ebe88ac",
            "reqSigs": 1,
            "type": "pubkeyhash",
            "addresses": [
              "LfBsEzByysVAQkKUHUFSQDnCUmGsBnaZj5"
            ]
          }
        }, 
        {
          "value": 0.78743800,
          "n": 1,
          "scriptPubKey": {
            "asm": "OP_DUP OP_HASH160 753e536c4c7138e34736a637efba0ab226974775 OP_EQUALVERIFY OP_CHECKSIG",
            "hex": "76a914753e536c4c7138e34736a637efba0ab22697477588ac",
            "reqSigs": 1,
            "type": "pubkeyhash",
            "addresses": [
              "LVusz8m8hagnYtGzviFza9dNVYc1FimQyN"
            ]
          }
        }
      ],
      "hex": "0100000001c2860606e5f163637b7a107fb94f6dcb70956a57523efe32a8d56cbbb28ffea4010000006a473044022035519f397a3c21affafebea3423cd514e54f79a4677d56b8c6d05fe481f0046b022046c41df49f7f90e5483e480cc0432a551698bc20f9260996cb638a234d571f8d012103e20868224f2df2bd2e67aea9feaa1fe3f3c357825ed2c19a489ba3a34810d7beffffffff0258261c00000000001976a914dafd7e0854a6648176edd315798088aeeb238ebe88acf888b104000000001976a914753e536c4c7138e34736a637efba0ab22697477588ac00000000"
    }, 
    {
      "txid": "0ba5e55f4ae24a6c7a115eea21c3e770eaba7cf370b19355abd5ecd30d56929d",
      "hash": "0ba5e55f4ae24a6c7a115eea21c3e770eaba7cf370b19355abd5ecd30d56929d",
      "version": 1,
      "size": 225,
      "vsize": 225,
      "locktime": 0,
      "vin": [
        {
          "txid": "693e94e48b2d774c380101ed8cf16d20b50697abc3841515aa4608c5c9584ceb",
          "vout": 5,
          "scriptSig": {
            "asm": "304402202c4d1991bc9680bfcc683d63b3290a2766a65a9fbf58f84bb90a9bbf60d5a664022054887fc32c03b9810459057b8e5546bf2338af5cb3177fce54928d0548cd0b75[ALL] 02cbd6e71f8521371d42ee1b374132cf072d2afa5e236b302961dcf679005bfc05",
            "hex": "47304402202c4d1991bc9680bfcc683d63b3290a2766a65a9fbf58f84bb90a9bbf60d5a664022054887fc32c03b9810459057b8e5546bf2338af5cb3177fce54928d0548cd0b75012102cbd6e71f8521371d42ee1b374132cf072d2afa5e236b302961dcf679005bfc05"
          },
          "sequence": 4294967295
        }
      ],
      "vout": [
        {
          "value": 0.57016863,
          "n": 0,
          "scriptPubKey": {
            "asm": "OP_DUP OP_HASH160 1cb1d923bfdccd2239d4d685397442cd4cf88000 OP_EQUALVERIFY OP_CHECKSIG",
            "hex": "76a9141cb1d923bfdccd2239d4d685397442cd4cf8800088ac",
            "reqSigs": 1,
            "type": "pubkeyhash",
            "addresses": [
              "LMqgEhCiwhCiChoPhHE5J8QJscv43YEBbF"
            ]
          }
        }, 
        {
          "value": 0.00901022,
          "n": 1,
          "scriptPubKey": {
            "asm": "OP_DUP OP_HASH160 b7cacdaa81f009f1ac0ea4b5847c99565c11cf8e OP_EQUALVERIFY OP_CHECKSIG",
            "hex": "76a914b7cacdaa81f009f1ac0ea4b5847c99565c11cf8e88ac",
            "reqSigs": 1,
            "type": "pubkeyhash",
            "addresses": [
              "LbyksLugLsKxAyifo51z8D1NPwr1pna4pg"
            ]
          }
        }
      ],
      "hex": "0100000001eb4c58c9c50846aa151584c3ab9706b5206df18ced0101384c772d8be4943e69050000006a47304402202c4d1991bc9680bfcc683d63b3290a2766a65a9fbf58f84bb90a9bbf60d5a664022054887fc32c03b9810459057b8e5546bf2338af5cb3177fce54928d0548cd0b75012102cbd6e71f8521371d42ee1b374132cf072d2afa5e236b302961dcf679005bfc05ffffffff021f026603000000001976a9141cb1d923bfdccd2239d4d685397442cd4cf8800088ac9ebf0d00000000001976a914b7cacdaa81f009f1ac0ea4b5847c99565c11cf8e88ac00000000"
    }
  ],
  "time": 1517376783,
  "mediantime": 1517376351,
  "nonce": 994473222,
  "bits": "1a042eae",
  "difficulty": 4011378.762614286,
  "chainwork": "000000000000000000000000000000000000000000000034a45350b9522eec72",
  "previousblockhash": "5bd275306cbec7d19bb10299df15740aeefbc25c7f0a312363719a29a2b18e89",
  "nextblockhash": "be2de86e1a4c8f8691fee2ec18cf3c153057a9623ea17f3d1d5d2359d03c7344"
}
