{
  "hash": "d41a9d0f6d53c9722b55dd3dfb41efcb4ed77d28f10ca221784326ee8db29076",
  "confirmations": 1841,
  "strippedsize": 3808,
  "size": 3844,
  "weight": 15268,
  "height": 1359153,
  "version": 536870912,
  "versionHex": "20000000",
  "merkleroot": "26215a701e1da51d9ffa638bb83611576551e63e6069707205d2871bc407a48a",
  "tx": [
    {
      "txid": "5ee2be0198e8b482c81f1254217ea3c675de0c4e1916666bd91eef1d91bc842b",
      "hash": "8ecfab5367d38330e7634508da2cfaaaaa50f02117463e05f7e7641b34c54d90",
      "version": 1,
      "size": 244,
      "vsize": 217,
      "locktime": 0,
      "vin": [
        {
          "coinbase": "0331bd1404124b6f5a0805b1e2bd1b000000fabe6d6d5eaed7872a728277ff9d5f3b558840c03b2fa82c55a4896b70e7fbc938377b2540000000000000000d2f6e6f64655374726174756d2f",
          "sequence": 0
        }
      ],
      "vout": [
        {
          "value": 25.01336136,
          "n": 0,
          "scriptPubKey": {
            "asm": "OP_DUP OP_HASH160 0c617fdb2ea42aed30a509595ee21ba3f6688db0 OP_EQUALVERIFY OP_CHECKSIG",
            "hex": "76a9140c617fdb2ea42aed30a509595ee21ba3f6688db088ac",
            "reqSigs": 1,
            "type": "pubkeyhash",
            "addresses": [
              "LLMRAtr3qBje2ySEa3CnZ55LA4TQMWnRY3"
            ]
          }
        }, 
        {
          "value": 0.00000000,
          "n": 1,
          "scriptPubKey": {
            "asm": "OP_RETURN aa21a9edd97176d0ddef7170de1cd34cc2e7eb5014b7e82b975040b9cffdef938d887b1d",
            "hex": "6a24aa21a9edd97176d0ddef7170de1cd34cc2e7eb5014b7e82b975040b9cffdef938d887b1d",
            "type": "nulldata"
          }
        }
      ],
      "hex": "010000000001010000000000000000000000000000000000000000000000000000000000000000ffffffff4c0331bd1404124b6f5a0805b1e2bd1b000000fabe6d6d5eaed7872a728277ff9d5f3b558840c03b2fa82c55a4896b70e7fbc938377b2540000000000000000d2f6e6f64655374726174756d2f0000000002485c1795000000001976a9140c617fdb2ea42aed30a509595ee21ba3f6688db088ac0000000000000000266a24aa21a9edd97176d0ddef7170de1cd34cc2e7eb5014b7e82b975040b9cffdef938d887b1d0120000000000000000000000000000000000000000000000000000000000000000000000000"
    }, 
    {
      "txid": "ac0d835f132760387d47c19abc995a84e2407f7d111129409ea0737d3eec1dfa",
      "hash": "ac0d835f132760387d47c19abc995a84e2407f7d111129409ea0737d3eec1dfa",
      "version": 1,
      "size": 191,
      "vsize": 191,
      "locktime": 0,
      "vin": [
        {
          "txid": "b4b8046844e0879d6607d7471dbf6e0ae987886465b1dd55ac1def02e64e977d",
          "vout": 1,
          "scriptSig": {
            "asm": "304402200219469bda14bc3b2b37795eda5720c97d7c759ec46242a54d18fc01f3f35c090220201197c37e9c5df809219f84b8cf85abaff28ddebad4fef8686fcc536ee8614d[ALL] 036b5ff8aa23b43b08d8411811eab05cc79e0b58a026489e71d33434a671216b33",
            "hex": "47304402200219469bda14bc3b2b37795eda5720c97d7c759ec46242a54d18fc01f3f35c090220201197c37e9c5df809219f84b8cf85abaff28ddebad4fef8686fcc536ee8614d0121036b5ff8aa23b43b08d8411811eab05cc79e0b58a026489e71d33434a671216b33"
          },
          "sequence": 4294967295
        }
      ],
      "vout": [
        {
          "value": 1.87799857,
          "n": 0,
          "scriptPubKey": {
            "asm": "OP_DUP OP_HASH160 a0b715ea314fb999e0e1557f3cbc7939782ecbb8 OP_EQUALVERIFY OP_CHECKSIG",
            "hex": "76a914a0b715ea314fb999e0e1557f3cbc7939782ecbb888ac",
            "reqSigs": 1,
            "type": "pubkeyhash",
            "addresses": [
              "LZsjhv85EeQXWML6rJxiYNwtP7Bdy8ktmJ"
            ]
          }
        }
      ],
      "hex": "01000000017d974ee602ef1dac55ddb165648887e90a6ebf1d47d707669d87e0446804b8b4010000006a47304402200219469bda14bc3b2b37795eda5720c97d7c759ec46242a54d18fc01f3f35c090220201197c37e9c5df809219f84b8cf85abaff28ddebad4fef8686fcc536ee8614d0121036b5ff8aa23b43b08d8411811eab05cc79e0b58a026489e71d33434a671216b33ffffffff013199310b000000001976a914a0b715ea314fb999e0e1557f3cbc7939782ecbb888ac00000000"
    }, 
    {
      "txid": "c567f99f238b6570969e06f691bfea5a32d4f5c47202e0d543b89978e608aba6",
      "hash": "c567f99f238b6570969e06f691bfea5a32d4f5c47202e0d543b89978e608aba6",
      "version": 1,
      "size": 485,
      "vsize": 485,
      "locktime": 0,
      "vin": [
        {
          "txid": "180b7a2344ba3bd82a3fbe63df9e37a0da8bc78e0cdbaf6ab815f411b0884262",
          "vout": 0,
          "scriptSig": {
            "asm": "304402203b6521312cd83385e11689929459910f6a9df19a2d71154e68e833bf229561c1022070519b899c48a1308ba4bcc53569a942e2bf0e916bbd25410e71dd395d4cfa94[ALL] 030b3f6c1702934d010574e8583c964cb948212272049fd20225405c513a717546",
            "hex": "47304402203b6521312cd83385e11689929459910f6a9df19a2d71154e68e833bf229561c1022070519b899c48a1308ba4bcc53569a942e2bf0e916bbd25410e71dd395d4cfa940121030b3f6c1702934d010574e8583c964cb948212272049fd20225405c513a717546"
          },
          "sequence": 4294967295
        }, 
        {
          "txid": "0c8fb73880f228d6b648b253a56cea9add7ffe06ef805365fd53b0f56206abe1",
          "vout": 0,
          "scriptSig": {
            "asm": "304402207c5cd47b567d8f85afe1cf8fdaa6c65aaed3887fe1fb24515a3fb6f377067db802200f9151212a40855de7c0e509c9297b7b2a5b747d85172f1fa5b3e3e383fb5d5d[ALL] 030b3f6c1702934d010574e8583c964cb948212272049fd20225405c513a717546",
            "hex": "47304402207c5cd47b567d8f85afe1cf8fdaa6c65aaed3887fe1fb24515a3fb6f377067db802200f9151212a40855de7c0e509c9297b7b2a5b747d85172f1fa5b3e3e383fb5d5d0121030b3f6c1702934d010574e8583c964cb948212272049fd20225405c513a717546"
          },
          "sequence": 4294967295
        }, 
        {
          "txid": "3c1dc854f6577b3da98a8e430deb55b2bb9a0e1b66d436316d845e5260cf76a1",
          "vout": 1,
          "scriptSig": {
            "asm": "3044022034fe52045ed77cb9c51773ff3b5684890edac0e76feffa45c963c93bd2db67c5022057350a0cb40f73a7fc3ff38068484ead7d4f24435204165d6584628f91aaafa4[ALL] 030b3f6c1702934d010574e8583c964cb948212272049fd20225405c513a717546",
            "hex": "473044022034fe52045ed77cb9c51773ff3b5684890edac0e76feffa45c963c93bd2db67c5022057350a0cb40f73a7fc3ff38068484ead7d4f24435204165d6584628f91aaafa40121030b3f6c1702934d010574e8583c964cb948212272049fd20225405c513a717546"
          },
          "sequence": 4294967295
        }
      ],
      "vout": [
        {
          "value": 10.78968276,
          "n": 0,
          "scriptPubKey": {
            "asm": "OP_DUP OP_HASH160 42e54ba5880001fb604c3c67c3b15e03389c7a10 OP_EQUALVERIFY OP_CHECKSIG",
            "hex": "76a91442e54ba5880001fb604c3c67c3b15e03389c7a1088ac",
            "reqSigs": 1,
            "type": "pubkeyhash",
            "addresses": [
              "LRKfYbzPpPK5UVC6bBbncNJCuVDnDkT78K"
            ]
          }
        }
      ],
      "hex": "0100000003624288b011f415b86aafdb0c8ec78bdaa0379edf63be3f2ad83bba44237a0b18000000006a47304402203b6521312cd83385e11689929459910f6a9df19a2d71154e68e833bf229561c1022070519b899c48a1308ba4bcc53569a942e2bf0e916bbd25410e71dd395d4cfa940121030b3f6c1702934d010574e8583c964cb948212272049fd20225405c513a717546ffffffffe1ab0662f5b053fd655380ef06fe7fdd9aea6ca553b248b6d628f28038b78f0c000000006a47304402207c5cd47b567d8f85afe1cf8fdaa6c65aaed3887fe1fb24515a3fb6f377067db802200f9151212a40855de7c0e509c9297b7b2a5b747d85172f1fa5b3e3e383fb5d5d0121030b3f6c1702934d010574e8583c964cb948212272049fd20225405c513a717546ffffffffa176cf60525e846d3136d4661b0e9abbb255eb0d438e8aa93d7b57f654c81d3c010000006a473044022034fe52045ed77cb9c51773ff3b5684890edac0e76feffa45c963c93bd2db67c5022057350a0cb40f73a7fc3ff38068484ead7d4f24435204165d6584628f91aaafa40121030b3f6c1702934d010574e8583c964cb948212272049fd20225405c513a717546ffffffff01d4bf4f40000000001976a91442e54ba5880001fb604c3c67c3b15e03389c7a1088ac00000000"
    }, 
    {
      "txid": "6b9f2a89ecc51ad5ad2629905305c24d2268fe6e4028bbd92107c49456fe2f52",
      "hash": "6b9f2a89ecc51ad5ad2629905305c24d2268fe6e4028bbd92107c49456fe2f52",
      "version": 1,
      "size": 225,
      "vsize": 225,
      "locktime": 1359151,
      "vin": [
        {
          "txid": "217906a0853210e3a9160fa4cf1d79d60dfcf802ee3efbe007432d3668b55b36",
          "vout": 1,
          "scriptSig": {
            "asm": "304402206566da7519b73559517b72993e2714b3fe10dcddbeb544a10c7414a7b926863e022010951b84f1b2a56b34f28dc35d962477fb2c93b33c52fa6ac30b8dc4de475195[ALL] 02d62961903d1de320175c9db429ee0cbf6209c3cb97650fe9e310c789e0b53988",
            "hex": "47304402206566da7519b73559517b72993e2714b3fe10dcddbeb544a10c7414a7b926863e022010951b84f1b2a56b34f28dc35d962477fb2c93b33c52fa6ac30b8dc4de475195012102d62961903d1de320175c9db429ee0cbf6209c3cb97650fe9e310c789e0b53988"
          },
          "sequence": 4294967294
        }
      ],
      "vout": [
        {
          "value": 0.62670375,
          "n": 0,
          "scriptPubKey": {
            "asm": "OP_DUP OP_HASH160 34e6496e8cdedb6e160773c28254a0ffb6af873e OP_EQUALVERIFY OP_CHECKSIG",
            "hex": "76a91434e6496e8cdedb6e160773c28254a0ffb6af873e88ac",
            "reqSigs": 1,
            "type": "pubkeyhash",
            "addresses": [
              "LQ3fGoGd5qCEvEQt5E5B3PK1JmA4FhyADw"
            ]
          }
        }, 
        {
          "value": 421.62797367,
          "n": 1,
          "scriptPubKey": {
            "asm": "OP_DUP OP_HASH160 b861a096c09c184753521605b5a3b7ac974f2359 OP_EQUALVERIFY OP_CHECKSIG",
            "hex": "76a914b861a096c09c184753521605b5a3b7ac974f235988ac",
            "reqSigs": 1,
            "type": "pubkeyhash",
            "addresses": [
              "Lc2sYmpVGqJYSkTHD44fWjQU9otUCK9ihB"
            ]
          }
        }
      ],
      "hex": "0100000001365bb568362d4307e0fb3eee02f8fc0dd6791dcfa40f16a9e3103285a0067921010000006a47304402206566da7519b73559517b72993e2714b3fe10dcddbeb544a10c7414a7b926863e022010951b84f1b2a56b34f28dc35d962477fb2c93b33c52fa6ac30b8dc4de475195012102d62961903d1de320175c9db429ee0cbf6209c3cb97650fe9e310c789e0b53988feffffff022746bc03000000001976a91434e6496e8cdedb6e160773c28254a0ffb6af873e88ac373b19d1090000001976a914b861a096c09c184753521605b5a3b7ac974f235988ac2fbd1400"
    }, 
    {
      "txid": "c17073972227229be39465399c1228967ef8b532e50bd3f87b7b4a65bc136cf8",
      "hash": "c17073972227229be39465399c1228967ef8b532e50bd3f87b7b4a65bc136cf8",
      "version": 1,
      "size": 373,
      "vsize": 373,
      "locktime": 0,
      "vin": [
        {
          "txid": "5a5b71edeaec1adf8275f2adc1b32d71d4bcbf0d764c20e7ed988dd06f31a268",
          "vout": 0,
          "scriptSig": {
            "asm": "304402202cb747fe4736ca98da620a090b35464cc10cf3364a7d997a719700a5829a5edc02204f16384b6046d10b2189482f9c5d6575ebe2d092382e06dd082e6dcd1239629c[ALL] 035672810da3394738964e0afde8bbd78e1327369767a3510d8b8c003aa229a795",
            "hex": "47304402202cb747fe4736ca98da620a090b35464cc10cf3364a7d997a719700a5829a5edc02204f16384b6046d10b2189482f9c5d6575ebe2d092382e06dd082e6dcd1239629c0121035672810da3394738964e0afde8bbd78e1327369767a3510d8b8c003aa229a795"
          },
          "sequence": 4294967295
        }, 
        {
          "txid": "e7c8270222b25aec24df3ed912f3d25f4181251ffb83b53dca6437786967c473",
          "vout": 0,
          "scriptSig": {
            "asm": "3045022100861d22c698f60d5c8fda025364d8ccb635b1d40d678d91e4376b668b67bf3b7d0220535d7cc686c6afbbfe7c340710395dd7ad1905c1e4bb5126e5c49cc1a69d740c[ALL] 0374961bab836715a588b5adb01bbec593e97c1dfb68a674aedf5072d69b500422",
            "hex": "483045022100861d22c698f60d5c8fda025364d8ccb635b1d40d678d91e4376b668b67bf3b7d0220535d7cc686c6afbbfe7c340710395dd7ad1905c1e4bb5126e5c49cc1a69d740c01210374961bab836715a588b5adb01bbec593e97c1dfb68a674aedf5072d69b500422"
          },
          "sequence": 4294967295
        }
      ],
      "vout": [
        {
          "value": 0.03255915,
          "n": 0,
          "scriptPubKey": {
            "asm": "OP_DUP OP_HASH160 ea979f83b63668cc99be99d05597edd1ebca9f19 OP_EQUALVERIFY OP_CHECKSIG",
            "hex": "76a914ea979f83b63668cc99be99d05597edd1ebca9f1988ac",
            "reqSigs": 1,
            "type": "pubkeyhash",
            "addresses": [
              "LgcN24Pak8hiYjajkyEid36WwNgJ1Da7TT"
            ]
          }
        }, 
        {
          "value": 0.13617100,
          "n": 1,
          "scriptPubKey": {
            "asm": "OP_DUP OP_HASH160 13d897bf701c315f440e99bd954d2c4d77d8525d OP_EQUALVERIFY OP_CHECKSIG",
            "hex": "76a91413d897bf701c315f440e99bd954d2c4d77d8525d88ac",
            "reqSigs": 1,
            "type": "pubkeyhash",
            "addresses": [
              "LM2tZzCG76Rn8adGM4MnnFF9GacKTy51Ym"
            ]
          }
        }
      ],
      "hex": "010000000268a2316fd08d98ede7204c760dbfbcd4712db3c1adf27582df1aeceaed715b5a000000006a47304402202cb747fe4736ca98da620a090b35464cc10cf3364a7d997a719700a5829a5edc02204f16384b6046d10b2189482f9c5d6575ebe2d092382e06dd082e6dcd1239629c0121035672810da3394738964e0afde8bbd78e1327369767a3510d8b8c003aa229a795ffffffff73c46769783764ca3db583fb1f2581415fd2f312d93edf24ec5ab2220227c8e7000000006b483045022100861d22c698f60d5c8fda025364d8ccb635b1d40d678d91e4376b668b67bf3b7d0220535d7cc686c6afbbfe7c340710395dd7ad1905c1e4bb5126e5c49cc1a69d740c01210374961bab836715a588b5adb01bbec593e97c1dfb68a674aedf5072d69b500422ffffffff026bae3100000000001976a914ea979f83b63668cc99be99d05597edd1ebca9f1988acccc7cf00000000001976a91413d897bf701c315f440e99bd954d2c4d77d8525d88ac00000000"
    }, 
    {
      "txid": "ddf63d6d3a58155172a1dfabedd3b69a1b9fd0abf2e905d1102ce9f3de51ed07",
      "hash": "ddf63d6d3a58155172a1dfabedd3b69a1b9fd0abf2e905d1102ce9f3de51ed07",
      "version": 2,
      "size": 520,
      "vsize": 520,
      "locktime": 1359151,
      "vin": [
        {
          "txid": "e214ec9875816ac4904f3dda5bf4a0c735b56ac3c5341dea4069646eb98c14b8",
          "vout": 1,
          "scriptSig": {
            "asm": "3045022100e6403509ec6bb7032383c683e301f289cd78df28f5c1136c2b7fa1c412827be602201a5304043ee1e921554a956e1374e3af9310a6fdd49fa398869a36099895020b[ALL] 0310d173236166e99a9a44303bcc748f9238e3f09845caeb0597de9fff97354127",
            "hex": "483045022100e6403509ec6bb7032383c683e301f289cd78df28f5c1136c2b7fa1c412827be602201a5304043ee1e921554a956e1374e3af9310a6fdd49fa398869a36099895020b01210310d173236166e99a9a44303bcc748f9238e3f09845caeb0597de9fff97354127"
          },
          "sequence": 4294967294
        }, 
        {
          "txid": "7b2200b70f7e89045d9795b7d97a2f8a629dc07d6e37a91b77784e52becaaf72",
          "vout": 1,
          "scriptSig": {
            "asm": "304402206e83757f30f4d065eb0573b1009639ad312e880ee1be5f5ab1a22c87981341910220522e0cfd5ef3d1c6db589c5023f567fed36293c028387e0ff0f8aaa8822e4ce8[ALL] 03fee33be64decc1035b714e95d1ff409d27c9159760905caf54c8aa8cb84f5e79",
            "hex": "47304402206e83757f30f4d065eb0573b1009639ad312e880ee1be5f5ab1a22c87981341910220522e0cfd5ef3d1c6db589c5023f567fed36293c028387e0ff0f8aaa8822e4ce8012103fee33be64decc1035b714e95d1ff409d27c9159760905caf54c8aa8cb84f5e79"
          },
          "sequence": 4294967294
        }, 
        {
          "txid": "4bb0e40e088e57e83f4d9ac9dcaff97bb9dc19d5476132edcbf28730b930f547",
          "vout": 1,
          "scriptSig": {
            "asm": "3044022053e42d436cf7cf63fbbe2a93625214d61064a25f014f024de81a38fea99f0d8702206c23c509ec3375739d8e48b6e3c57ead5c4f9926908cbd74751ceba995543247[ALL] 039b5b3f28f91a05fd79610a9f02d25f08d1d4a9e240765a76d24ee0ac4494aef8",
            "hex": "473044022053e42d436cf7cf63fbbe2a93625214d61064a25f014f024de81a38fea99f0d8702206c23c509ec3375739d8e48b6e3c57ead5c4f9926908cbd74751ceba9955432470121039b5b3f28f91a05fd79610a9f02d25f08d1d4a9e240765a76d24ee0ac4494aef8"
          },
          "sequence": 4294967294
        }
      ],
      "vout": [
        {
          "value": 0.00956103,
          "n": 0,
          "scriptPubKey": {
            "asm": "OP_DUP OP_HASH160 3094a92e7a91a2e29bf0f64b9bc5df1823df78fe OP_EQUALVERIFY OP_CHECKSIG",
            "hex": "76a9143094a92e7a91a2e29bf0f64b9bc5df1823df78fe88ac",
            "reqSigs": 1,
            "type": "pubkeyhash",
            "addresses": [
              "LPepnZNMJHDVuMGW2tkqgjzXNogfFPDSLu"
            ]
          }
        }, 
        {
          "value": 0.44311251,
          "n": 1,
          "scriptPubKey": {
            "asm": "OP_DUP OP_HASH160 a3017f8205a7150bcead17edba1001dbf56c120a OP_EQUALVERIFY OP_CHECKSIG",
            "hex": "76a914a3017f8205a7150bcead17edba1001dbf56c120a88ac",
            "reqSigs": 1,
            "type": "pubkeyhash",
            "addresses": [
              "La5rCZzWfsswFs7P2RBrjvWxArWucuBGk1"
            ]
          }
        }
      ],
      "hex": "0200000003b8148cb96e646940ea1d34c5c36ab535c7a0f45bda3d4f90c46a817598ec14e2010000006b483045022100e6403509ec6bb7032383c683e301f289cd78df28f5c1136c2b7fa1c412827be602201a5304043ee1e921554a956e1374e3af9310a6fdd49fa398869a36099895020b01210310d173236166e99a9a44303bcc748f9238e3f09845caeb0597de9fff97354127feffffff72afcabe524e78771ba9376e7dc09d628a2f7ad9b795975d04897e0fb700227b010000006a47304402206e83757f30f4d065eb0573b1009639ad312e880ee1be5f5ab1a22c87981341910220522e0cfd5ef3d1c6db589c5023f567fed36293c028387e0ff0f8aaa8822e4ce8012103fee33be64decc1035b714e95d1ff409d27c9159760905caf54c8aa8cb84f5e79feffffff47f530b93087f2cbed326147d519dcb97bf9afdcc99a4d3fe8578e080ee4b04b010000006a473044022053e42d436cf7cf63fbbe2a93625214d61064a25f014f024de81a38fea99f0d8702206c23c509ec3375739d8e48b6e3c57ead5c4f9926908cbd74751ceba9955432470121039b5b3f28f91a05fd79610a9f02d25f08d1d4a9e240765a76d24ee0ac4494aef8feffffff02c7960e00000000001976a9143094a92e7a91a2e29bf0f64b9bc5df1823df78fe88acd322a402000000001976a914a3017f8205a7150bcead17edba1001dbf56c120a88ac2fbd1400"
    }, 
    {
      "txid": "3bec625409a9643e6ee42848d4b91d29fe1ca3e5fb6573381f5444fa1600d536",
      "hash": "3bec625409a9643e6ee42848d4b91d29fe1ca3e5fb6573381f5444fa1600d536",
      "version": 1,
      "size": 225,
      "vsize": 225,
      "locktime": 0,
      "vin": [
        {
          "txid": "a0913745831827cc79dda82260249f313a4801b6eb475658e7404ed6ab23854d",
          "vout": 1,
          "scriptSig": {
            "asm": "30440220065de2de8619d7513f0311b1cce2b1b5dc3caf4fdcdbe3b30fb49fac34d1c93302206ef3b3d3000e5c3c165db6c03c2a86124fc71cf6106c63a56eb3179db8209fb9[ALL] 038e0b53a113b9cd5d947e9c8c5cc620e52e04468bb9101d677c65818731d23284",
            "hex": "4730440220065de2de8619d7513f0311b1cce2b1b5dc3caf4fdcdbe3b30fb49fac34d1c93302206ef3b3d3000e5c3c165db6c03c2a86124fc71cf6106c63a56eb3179db8209fb90121038e0b53a113b9cd5d947e9c8c5cc620e52e04468bb9101d677c65818731d23284"
          },
          "sequence": 4294967295
        }
      ],
      "vout": [
        {
          "value": 11.70000000,
          "n": 0,
          "scriptPubKey": {
            "asm": "OP_DUP OP_HASH160 7f3abd71d8c0dfc2682d30d0f73a6670e6e1ca62 OP_EQUALVERIFY OP_CHECKSIG",
            "hex": "76a9147f3abd71d8c0dfc2682d30d0f73a6670e6e1ca6288ac",
            "reqSigs": 1,
            "type": "pubkeyhash",
            "addresses": [
              "LWpgSuMeZz7Tfy5yFhVhFkgBYVKocCokAj"
            ]
          }
        }, 
        {
          "value": 519.69922140,
          "n": 1,
          "scriptPubKey": {
            "asm": "OP_DUP OP_HASH160 8d285bd26d2e36d44bdd1032b6c18656da3decda OP_EQUALVERIFY OP_CHECKSIG",
            "hex": "76a9148d285bd26d2e36d44bdd1032b6c18656da3decda88ac",
            "reqSigs": 1,
            "type": "pubkeyhash",
            "addresses": [
              "LY6KtRyDfzF2mZuuRxt1vxP1i1tZrabUbk"
            ]
          }
        }
      ],
      "hex": "01000000014d8523abd64e40e7585647ebb601483a319f246022a8dd79cc271883453791a0010000006a4730440220065de2de8619d7513f0311b1cce2b1b5dc3caf4fdcdbe3b30fb49fac34d1c93302206ef3b3d3000e5c3c165db6c03c2a86124fc71cf6106c63a56eb3179db8209fb90121038e0b53a113b9cd5d947e9c8c5cc620e52e04468bb9101d677c65818731d23284ffffffff0280c8bc45000000001976a9147f3abd71d8c0dfc2682d30d0f73a6670e6e1ca6288ac5c14a6190c0000001976a9148d285bd26d2e36d44bdd1032b6c18656da3decda88ac00000000"
    }, 
    {
      "txid": "b2baa753c2292346e5451ec52eb7a6b8513526ff63372702fea3f52553f12181",
      "hash": "b2baa753c2292346e5451ec52eb7a6b8513526ff63372702fea3f52553f12181",
      "version": 1,
      "size": 225,
      "vsize": 225,
      "locktime": 0,
      "vin": [
        {
          "txid": "b891c37dc95027cb2742a5b499b05411aaaa64439d87ca0b7a859af7280c1cf9",
          "vout": 1,
          "scriptSig": {
            "asm": "304402206638a5914268231e44c42bea0f6d65c444c7d85959a54234cb62b1ac1946945b02203f04b284bf169822fc791e1bb719be135938b8d5b55b03b5b36353e073b0c2cb[ALL] 031300a2a4354fe6eebb1cf8e3b2870e42817aae7157129e1a4af4f42016b50275",
            "hex": "47304402206638a5914268231e44c42bea0f6d65c444c7d85959a54234cb62b1ac1946945b02203f04b284bf169822fc791e1bb719be135938b8d5b55b03b5b36353e073b0c2cb0121031300a2a4354fe6eebb1cf8e3b2870e42817aae7157129e1a4af4f42016b50275"
          },
          "sequence": 4294967295
        }
      ],
      "vout": [
        {
          "value": 5.79392353,
          "n": 0,
          "scriptPubKey": {
            "asm": "OP_DUP OP_HASH160 c9e4d7d9dc87f9e1abe5291c7a37aeefdf4a4f3d OP_EQUALVERIFY OP_CHECKSIG",
            "hex": "76a914c9e4d7d9dc87f9e1abe5291c7a37aeefdf4a4f3d88ac",
            "reqSigs": 1,
            "type": "pubkeyhash",
            "addresses": [
              "LddUE5Bop9XFGNyoxWFhnT1ovMpLLvMuiy"
            ]
          }
        }, 
        {
          "value": 63.31997843,
          "n": 1,
          "scriptPubKey": {
            "asm": "OP_DUP OP_HASH160 b5ccc96c942c0d8176419c707bf188a64e6b20f0 OP_EQUALVERIFY OP_CHECKSIG",
            "hex": "76a914b5ccc96c942c0d8176419c707bf188a64e6b20f088ac",
            "reqSigs": 1,
            "type": "pubkeyhash",
            "addresses": [
              "LboDtmhhjx8u4kY12e4sSPj7Xuacmu6v1U"
            ]
          }
        }
      ],
      "hex": "0100000001f91c0c28f79a857a0bca879d4364aaaa1154b099b4a54227cb2750c97dc391b8010000006a47304402206638a5914268231e44c42bea0f6d65c444c7d85959a54234cb62b1ac1946945b02203f04b284bf169822fc791e1bb719be135938b8d5b55b03b5b36353e073b0c2cb0121031300a2a4354fe6eebb1cf8e3b2870e42817aae7157129e1a4af4f42016b50275ffffffff0261d38822000000001976a914c9e4d7d9dc87f9e1abe5291c7a37aeefdf4a4f3d88ac939e6a79010000001976a914b5ccc96c942c0d8176419c707bf188a64e6b20f088ac00000000"
    }, 
    {
      "txid": "44db1c5f2e8afe0253f1036b2ce6a28c5e01e55bdb46b3ec6be93d97b1a1e8e7",
      "hash": "44db1c5f2e8afe0253f1036b2ce6a28c5e01e55bdb46b3ec6be93d97b1a1e8e7",
      "version": 2,
      "size": 225,
      "vsize": 225,
      "locktime": 1359151,
      "vin": [
        {
          "txid": "73b621c076c98269ff56fbbfba0fc4ad93df62e2a4018988828006071b42ea96",
          "vout": 1,
          "scriptSig": {
            "asm": "3044022071da6523cacb5207f590d9a5299384ca3cd285617d82329b9edc7ee5a26fcfae02207548ac15790cdf0228dbd17fd0f00c642788aa77250bb7c691b28a7dc03dd744[ALL] 03440506b6dedacbfa43ca553836054380f37cfc59a54bd609bc56ea1bb4e1990f",
            "hex": "473044022071da6523cacb5207f590d9a5299384ca3cd285617d82329b9edc7ee5a26fcfae02207548ac15790cdf0228dbd17fd0f00c642788aa77250bb7c691b28a7dc03dd744012103440506b6dedacbfa43ca553836054380f37cfc59a54bd609bc56ea1bb4e1990f"
          },
          "sequence": 4294967294
        }
      ],
      "vout": [
        {
          "value": 0.05454800,
          "n": 0,
          "scriptPubKey": {
            "asm": "OP_DUP OP_HASH160 444e6dfdcb20654fb8dd129c7269668245ae9b94 OP_EQUALVERIFY OP_CHECKSIG",
            "hex": "76a914444e6dfdcb20654fb8dd129c7269668245ae9b9488ac",
            "reqSigs": 1,
            "type": "pubkeyhash",
            "addresses": [
              "LRT8AePFvpwmHGmuDubsatj24FULLhZKsE"
            ]
          }
        }, 
        {
          "value": 0.10000000,
          "n": 1,
          "scriptPubKey": {
            "asm": "OP_DUP OP_HASH160 32bf11ecb23991dd9e64c7921e3b42998d298f91 OP_EQUALVERIFY OP_CHECKSIG",
            "hex": "76a91432bf11ecb23991dd9e64c7921e3b42998d298f9188ac",
            "reqSigs": 1,
            "type": "pubkeyhash",
            "addresses": [
              "LPrGwaiWUYg1WQ3DetbToiW6GRqkw338AR"
            ]
          }
        }
      ],
      "hex": "020000000196ea421b07068082888901a4e262df93adc40fbabffb56ff6982c976c021b673010000006a473044022071da6523cacb5207f590d9a5299384ca3cd285617d82329b9edc7ee5a26fcfae02207548ac15790cdf0228dbd17fd0f00c642788aa77250bb7c691b28a7dc03dd744012103440506b6dedacbfa43ca553836054380f37cfc59a54bd609bc56ea1bb4e1990ffeffffff02d03b5300000000001976a914444e6dfdcb20654fb8dd129c7269668245ae9b9488ac80969800000000001976a91432bf11ecb23991dd9e64c7921e3b42998d298f9188ac2fbd1400"
    }, 
    {
      "txid": "ef752ced2fbeb8c510a6c9cf800ed6e760e71d8740c0692569543c02037bf729",
      "hash": "ef752ced2fbeb8c510a6c9cf800ed6e760e71d8740c0692569543c02037bf729",
      "version": 1,
      "size": 226,
      "vsize": 226,
      "locktime": 0,
      "vin": [
        {
          "txid": "df6b6bd90a6b5d0653342e55ee8d677c8cc5b5d1ac4abb05d1964d83219c1ba6",
          "vout": 0,
          "scriptSig": {
            "asm": "304502210097461a4ad0b6ff98d2f1606b94135ca25035440f7030d2bff29a3fabd97844fc022075a0f5f4b0491e593a21ea6a92760bb74782237080c341669e58c1a92b1b5073[ALL] 02a5772b8f257ed1576ead5d62a545ab55e0514c26ca2c0bce0e0057eb741a7bca",
            "hex": "48304502210097461a4ad0b6ff98d2f1606b94135ca25035440f7030d2bff29a3fabd97844fc022075a0f5f4b0491e593a21ea6a92760bb74782237080c341669e58c1a92b1b5073012102a5772b8f257ed1576ead5d62a545ab55e0514c26ca2c0bce0e0057eb741a7bca"
          },
          "sequence": 4294967295
        }
      ],
      "vout": [
        {
          "value": 0.15368679,
          "n": 0,
          "scriptPubKey": {
            "asm": "OP_DUP OP_HASH160 bfebcb348cfc57efe59488f7b7002b28680cf604 OP_EQUALVERIFY OP_CHECKSIG",
            "hex": "76a914bfebcb348cfc57efe59488f7b7002b28680cf60488ac",
            "reqSigs": 1,
            "type": "pubkeyhash",
            "addresses": [
              "Lcijo6ETJ5gtx21D3vJ8gKS94cu84E9ahG"
            ]
          }
        }, 
        {
          "value": 0.00112480,
          "n": 1,
          "scriptPubKey": {
            "asm": "OP_DUP OP_HASH160 43cca1f75b383b41859a31fb2aa4b5ab32a044a0 OP_EQUALVERIFY OP_CHECKSIG",
            "hex": "76a91443cca1f75b383b41859a31fb2aa4b5ab32a044a088ac",
            "reqSigs": 1,
            "type": "pubkeyhash",
            "addresses": [
              "LRQSgCBPd72CRmTQ6mwCBCeorP21McSKu7"
            ]
          }
        }
      ],
      "hex": "0100000001a61b9c21834d96d105bb4aacd1b5c58c7c678dee552e3453065d6b0ad96b6bdf000000006b48304502210097461a4ad0b6ff98d2f1606b94135ca25035440f7030d2bff29a3fabd97844fc022075a0f5f4b0491e593a21ea6a92760bb74782237080c341669e58c1a92b1b5073012102a5772b8f257ed1576ead5d62a545ab55e0514c26ca2c0bce0e0057eb741a7bcaffffffff02e781ea00000000001976a914bfebcb348cfc57efe59488f7b7002b28680cf60488ac60b70100000000001976a91443cca1f75b383b41859a31fb2aa4b5ab32a044a088ac00000000"
    }, 
    {
      "txid": "a4bafd51eb4e2645fd60e58026f62865c230f3db76d4d2ad8e452f781100d537",
      "hash": "a4bafd51eb4e2645fd60e58026f62865c230f3db76d4d2ad8e452f781100d537",
      "version": 1,
      "size": 374,
      "vsize": 374,
      "locktime": 0,
      "vin": [
        {
          "txid": "b03abfa9c6a0c0628afca1b74df874e6c04cfd6abd2d4f2aeecac62e4c136096",
          "vout": 1,
          "scriptSig": {
            "asm": "3045022100a739c44b7080dec26f4c71f891a89d611d99890ffa3bdd603bc4741c4846061f022027b15ad30ddf503eb8d9fbc8caea1495ce81811315be3c30ca08dd5ab0410e22[ALL] 03983f0a52aa80e6cd3adebc62ec23f00aad98cc29a33a2cbeedd492569cc095f9",
            "hex": "483045022100a739c44b7080dec26f4c71f891a89d611d99890ffa3bdd603bc4741c4846061f022027b15ad30ddf503eb8d9fbc8caea1495ce81811315be3c30ca08dd5ab0410e22012103983f0a52aa80e6cd3adebc62ec23f00aad98cc29a33a2cbeedd492569cc095f9"
          },
          "sequence": 4294967295
        }, 
        {
          "txid": "e1f90a012e58fd0101923ded9c227d418411ae75d8168e7f4f07b32e897582da",
          "vout": 0,
          "scriptSig": {
            "asm": "3045022100fb3179449e49efdac1ef55a82ad43aaefba24637d92cabfc0fe3a2a17cd93039022075ebb6a51af21a6cf219a86fc25b60c466fb447a76187f2056bb3be5d164451e[ALL] 0265d4671512ebaad73857011a4bd199035da7482d4e58ee77b76e470166cd886f",
            "hex": "483045022100fb3179449e49efdac1ef55a82ad43aaefba24637d92cabfc0fe3a2a17cd93039022075ebb6a51af21a6cf219a86fc25b60c466fb447a76187f2056bb3be5d164451e01210265d4671512ebaad73857011a4bd199035da7482d4e58ee77b76e470166cd886f"
          },
          "sequence": 4294967295
        }
      ],
      "vout": [
        {
          "value": 1.14662070,
          "n": 0,
          "scriptPubKey": {
            "asm": "OP_DUP OP_HASH160 7ef270f4d89fa1afb7f995adf610615871da8048 OP_EQUALVERIFY OP_CHECKSIG",
            "hex": "76a9147ef270f4d89fa1afb7f995adf610615871da804888ac",
            "reqSigs": 1,
            "type": "pubkeyhash",
            "addresses": [
              "LWoBqViwP5ZBBNw1MUsghcy33zueBHQG4c"
            ]
          }
        }, 
        {
          "value": 3.96489046,
          "n": 1,
          "scriptPubKey": {
            "asm": "OP_DUP OP_HASH160 e68f82f11cffbd5db8f22db84b9dd1e049984425 OP_EQUALVERIFY OP_CHECKSIG",
            "hex": "76a914e68f82f11cffbd5db8f22db84b9dd1e04998442588ac",
            "reqSigs": 1,
            "type": "pubkeyhash",
            "addresses": [
              "LgF3bgpBRoAWJ4rb65tQ8JzcnVpzbzvLWt"
            ]
          }
        }
      ],
      "hex": "01000000029660134c2ec6caee2a4f2dbd6afd4cc0e674f84db7a1fc8a62c0a0c6a9bf3ab0010000006b483045022100a739c44b7080dec26f4c71f891a89d611d99890ffa3bdd603bc4741c4846061f022027b15ad30ddf503eb8d9fbc8caea1495ce81811315be3c30ca08dd5ab0410e22012103983f0a52aa80e6cd3adebc62ec23f00aad98cc29a33a2cbeedd492569cc095f9ffffffffda8275892eb3074f7f8e16d875ae1184417d229ced3d920101fd582e010af9e1000000006b483045022100fb3179449e49efdac1ef55a82ad43aaefba24637d92cabfc0fe3a2a17cd93039022075ebb6a51af21a6cf219a86fc25b60c466fb447a76187f2056bb3be5d164451e01210265d4671512ebaad73857011a4bd199035da7482d4e58ee77b76e470166cd886fffffffff02b69ad506000000001976a9147ef270f4d89fa1afb7f995adf610615871da804888ac56f1a117000000001976a914e68f82f11cffbd5db8f22db84b9dd1e04998442588ac00000000"
    }, 
    {
      "txid": "940c4b68fc63a3aa5b2dabc0e27c3d3fc3477d11aad4ef7c604f5ad70d0e5a94",
      "hash": "940c4b68fc63a3aa5b2dabc0e27c3d3fc3477d11aad4ef7c604f5ad70d0e5a94",
      "version": 1,
      "size": 226,
      "vsize": 226,
      "locktime": 0,
      "vin": [
        {
          "txid": "18062475360705f30e3b78e27ebc2dd7632b67818946bdc799729fb784701a37",
          "vout": 1,
          "scriptSig": {
            "asm": "3045022100c7e3e00b84056e48e4e5a185106e64526677f5f894b8c848f0fddbd86d5a9736022075ad81d2f0c056a794a4edbd4c143b593e6d89b4ba766a72cab0a85126c635d1[ALL] 0293838f646c28e74879106a18aa41b17d37124165057efce6429881762ef0e416",
            "hex": "483045022100c7e3e00b84056e48e4e5a185106e64526677f5f894b8c848f0fddbd86d5a9736022075ad81d2f0c056a794a4edbd4c143b593e6d89b4ba766a72cab0a85126c635d101210293838f646c28e74879106a18aa41b17d37124165057efce6429881762ef0e416"
          },
          "sequence": 4294967295
        }
      ],
      "vout": [
        {
          "value": 0.13962000,
          "n": 0,
          "scriptPubKey": {
            "asm": "OP_DUP OP_HASH160 bbd3956f83c01f101d3486ef20f8b5966cb0fecc OP_EQUALVERIFY OP_CHECKSIG",
            "hex": "76a914bbd3956f83c01f101d3486ef20f8b5966cb0fecc88ac",
            "reqSigs": 1,
            "type": "pubkeyhash",
            "addresses": [
              "LcM66BSRByQgDpGJ6bXzqZjjgfBxsTh6zh"
            ]
          }
        }, 
        {
          "value": 0.00057969,
          "n": 1,
          "scriptPubKey": {
            "asm": "OP_DUP OP_HASH160 93109eeb5c0a336fe2cf14abda820a7005a250bd OP_EQUALVERIFY OP_CHECKSIG",
            "hex": "76a91493109eeb5c0a336fe2cf14abda820a7005a250bd88ac",
            "reqSigs": 1,
            "type": "pubkeyhash",
            "addresses": [
              "LYdZWF7D68boHoxaZUs8yCRHEjtQCPsfQr"
            ]
          }
        }
      ],
      "hex": "0100000001371a7084b79f7299c7bd468981672b63d72dbc7ee2783b0ef305073675240618010000006b483045022100c7e3e00b84056e48e4e5a185106e64526677f5f894b8c848f0fddbd86d5a9736022075ad81d2f0c056a794a4edbd4c143b593e6d89b4ba766a72cab0a85126c635d101210293838f646c28e74879106a18aa41b17d37124165057efce6429881762ef0e416ffffffff02100bd500000000001976a914bbd3956f83c01f101d3486ef20f8b5966cb0fecc88ac71e20000000000001976a91493109eeb5c0a336fe2cf14abda820a7005a250bd88ac00000000"
    }, 
    {
      "txid": "00eb2de18d358f7cdf5006142e8bd26dc3fb76b50eb2ec013b9ba2d63de5bdc6",
      "hash": "00eb2de18d358f7cdf5006142e8bd26dc3fb76b50eb2ec013b9ba2d63de5bdc6",
      "version": 1,
      "size": 224,
      "vsize": 224,
      "locktime": 0,
      "vin": [
        {
          "txid": "3b241c680005eb6faefcdcb7ec769deb59cae25e737f55d8782a4761ae56c8de",
          "vout": 1,
          "scriptSig": {
            "asm": "3045022100f8e4e419f36350705dbf0b783a7fd5b6ff1ee31aa392f348a1e7ca97dcc668200220781402e29beb788a44eda1c660abab32d120b1ec157b9cb4b5d9b983a489261d[ALL] 0283a14336e0a9772c391fc8b5a4c5e41817e89576dfab7a31b9e1b2f7a791532d",
            "hex": "483045022100f8e4e419f36350705dbf0b783a7fd5b6ff1ee31aa392f348a1e7ca97dcc668200220781402e29beb788a44eda1c660abab32d120b1ec157b9cb4b5d9b983a489261d01210283a14336e0a9772c391fc8b5a4c5e41817e89576dfab7a31b9e1b2f7a791532d"
          },
          "sequence": 4294967295
        }
      ],
      "vout": [
        {
          "value": 0.01116976,
          "n": 0,
          "scriptPubKey": {
            "asm": "OP_HASH160 5042d6f55f3c9d562da8f236e49458c909d61319 OP_EQUAL",
            "hex": "a9145042d6f55f3c9d562da8f236e49458c909d6131987",
            "reqSigs": 1,
            "type": "scripthash",
            "addresses": [
              "MFDYMswbQzmg8ZuowxUfVFGnwrM58gwkum"
            ]
          }
        }, 
        {
          "value": 0.00055160,
          "n": 1,
          "scriptPubKey": {
            "asm": "OP_DUP OP_HASH160 3adce846da9ccf4480d9526ac3c1d5fcc001c0a5 OP_EQUALVERIFY OP_CHECKSIG",
            "hex": "76a9143adce846da9ccf4480d9526ac3c1d5fcc001c0a588ac",
            "reqSigs": 1,
            "type": "pubkeyhash",
            "addresses": [
              "LQbC6FS1TctqdXjEfhoHi4dM9vDkPsd1hF"
            ]
          }
        }
      ],
      "hex": "0100000001dec856ae61472a78d8557f735ee2ca59eb9d76ecb7dcfcae6feb0500681c243b010000006b483045022100f8e4e419f36350705dbf0b783a7fd5b6ff1ee31aa392f348a1e7ca97dcc668200220781402e29beb788a44eda1c660abab32d120b1ec157b9cb4b5d9b983a489261d01210283a14336e0a9772c391fc8b5a4c5e41817e89576dfab7a31b9e1b2f7a791532dffffffff02300b11000000000017a9145042d6f55f3c9d562da8f236e49458c909d613198778d70000000000001976a9143adce846da9ccf4480d9526ac3c1d5fcc001c0a588ac00000000"
    }
  ],
  "time": 1517242993,
  "mediantime": 1517242316,
  "nonce": 221925802,
  "bits": "1a042eae",
  "difficulty": 4011378.762614286,
  "chainwork": "000000000000000000000000000000000000000000000033bd1d850413c8a264",
  "previousblockhash": "5b8cc9c87a5ba79ddf3053d5a9ccc344c23ecfe1feb652a43e4c9d0259f9d33c",
  "nextblockhash": "2e5a6dc568bbaa8694efe447b89133c26acc86a42ed9e9606a8912b760c9d810"
}
