{
  "hash": "d439e6a3c9b2a5e198108c4cf03c0d5296ed5ef79a39d7439ae9cdf7434cc0bc",
  "confirmations": 2242,
  "strippedsize": 255,
  "size": 255,
  "weight": 1020,
  "height": 1358752,
  "version": 536870912,
  "versionHex": "20000000",
  "merkleroot": "7d684f4d3544d6e3e257c3b00e26f7ed70c47c65700070c6fd4db51466def5f3",
  "tx": [
    {
      "txid": "7d684f4d3544d6e3e257c3b00e26f7ed70c47c65700070c6fd4db51466def5f3",
      "hash": "7d684f4d3544d6e3e257c3b00e26f7ed70c47c65700070c6fd4db51466def5f3",
      "version": 1,
      "size": 174,
      "vsize": 174,
      "locktime": 0,
      "vin": [
        {
          "coinbase": "03a0bb141c4d696e656420627920416e74506f6f6c20626a3532205a6e711501aefabe6d6dc8716aa258635d543735450959fb6786a1c1ed5319934e5304e0a8841640f01f0400000000000000560200000000000001000000",
          "sequence": 4294967295
        }
      ],
      "vout": [
        {
          "value": 25.00000000,
          "n": 0,
          "scriptPubKey": {
            "asm": "OP_DUP OP_HASH160 0ff3ccc5e8be88afe24b5d634e5852d474dbdff1 OP_EQUALVERIFY OP_CHECKSIG",
            "hex": "76a9140ff3ccc5e8be88afe24b5d634e5852d474dbdff188ac",
            "reqSigs": 1,
            "type": "pubkeyhash",
            "addresses": [
              "LLgJTbzZMsRTCUF1NtvvL9SR1a4pVieW89"
            ]
          }
        }
      ],
      "hex": "01000000010000000000000000000000000000000000000000000000000000000000000000ffffffff5903a0bb141c4d696e656420627920416e74506f6f6c20626a3532205a6e711501aefabe6d6dc8716aa258635d543735450959fb6786a1c1ed5319934e5304e0a8841640f01f0400000000000000560200000000000001000000ffffffff0100f90295000000001976a9140ff3ccc5e8be88afe24b5d634e5852d474dbdff188ac00000000"
    }
  ],
  "time": 1517187349,
  "mediantime": 1517186141,
  "nonce": 3896654034,
  "bits": "1a047f14",
  "difficulty": 3731199.183374282,
  "chainwork": "0000000000000000000000000000000000000000000000335dc0f4e2a991dd5a",
  "previousblockhash": "b601ded1ba3bad6b7de1a5cc47fc666ea7a6e66320f259a107df4d003b4aa816",
  "nextblockhash": "83e5eeb618401ca029dcaf84baaaee6d5918e2806d20ca84bf84801c67418ef0"
}
