{
  "hash": "d4cbde4d4bccc256c3f01f94c8e7832fb8336174c36c5f98bb3b00bbd7ecbbb2",
  "confirmations": 1016,
  "strippedsize": 1066,
  "size": 1102,
  "weight": 4300,
  "height": 1359978,
  "version": 536870912,
  "versionHex": "20000000",
  "merkleroot": "cbf1cdd2c9a04aa040b6e0a2af1dbedd8ba3ab830e6ee4af75feb3acbb4ad22f",
  "tx": [
    {
      "txid": "28734da4ab5fbedf967754c2af1b151543042cbd880cc6c81c816ea196e0b39d",
      "hash": "f69dd366203935a98bc5485fa67a9d0f14dd4f481ae924246de7cd0a2516f5b0",
      "version": 1,
      "size": 236,
      "vsize": 209,
      "locktime": 0,
      "vin": [
        {
          "coinbase": "036ac014045a7108a22cfabe6d6d31e1526e4d77a9299effb9dcb6cbff22ef97342ff6db7427bec87ea9235c48cb4000000000000000042f4c502f085c0059730d020000",
          "sequence": 4294967295
        }
      ],
      "vout": [
        {
          "value": 25.00252800,
          "n": 0,
          "scriptPubKey": {
            "asm": "OP_DUP OP_HASH160 57757ed2ecf2052ff3126c397aca7defb9ca2cec OP_EQUALVERIFY OP_CHECKSIG",
            "hex": "76a91457757ed2ecf2052ff3126c397aca7defb9ca2cec88ac",
            "reqSigs": 1,
            "type": "pubkeyhash",
            "addresses": [
              "LTCPodGk5FwcJaRzH9yKnwicxzFUbxp6tN"
            ]
          }
        }, 
        {
          "value": 0.00000000,
          "n": 1,
          "scriptPubKey": {
            "asm": "OP_RETURN aa21a9edd9be4966aa9251d359fc11e74365fae724e95e576b04cb9a58f2aaa0afff2b45",
            "hex": "6a24aa21a9edd9be4966aa9251d359fc11e74365fae724e95e576b04cb9a58f2aaa0afff2b45",
            "type": "nulldata"
          }
        }
      ],
      "hex": "010000000001010000000000000000000000000000000000000000000000000000000000000000ffffffff44036ac014045a7108a22cfabe6d6d31e1526e4d77a9299effb9dcb6cbff22ef97342ff6db7427bec87ea9235c48cb4000000000000000042f4c502f085c0059730d020000ffffffff0280d40695000000001976a91457757ed2ecf2052ff3126c397aca7defb9ca2cec88ac0000000000000000266a24aa21a9edd9be4966aa9251d359fc11e74365fae724e95e576b04cb9a58f2aaa0afff2b450120000000000000000000000000000000000000000000000000000000000000000000000000"
    }, 
    {
      "txid": "885ea0aefae0b4361505ad9647ccf3ee8b989ac3857ef2d3f3210c55e10c949f",
      "hash": "885ea0aefae0b4361505ad9647ccf3ee8b989ac3857ef2d3f3210c55e10c949f",
      "version": 1,
      "size": 333,
      "vsize": 333,
      "locktime": 0,
      "vin": [
        {
          "txid": "0c20847ba988be32a875da6843ec2405584d2231683ba101aec98b4601b0411e",
          "vout": 1,
          "scriptSig": {
            "asm": "0 3045022100e4bf3b9a894c70283f3912b232de103547ebc5d0375bf07ede51d7629ad446440220357350c5278404190281b8976be5b5c7bbfc7f812877b990a420da679d3d7abe[ALL] 30440220570fd204809629510309f1d7878ce604e8d94196f929b9000900e4e67ee1580602206fa01af4786ad647f649dfba02460aa0e37f7ba49ed6090709f999ba33e1a192[ALL] 522102a618de23e72ad0b9e998bb2921f510cb4e078dcfe13c48cae85fec0587718f78210235de611525feac0afecdd7faefde5b645b007e2de1e7e9477ff773a9529a435e52ae",
            "hex": "00483045022100e4bf3b9a894c70283f3912b232de103547ebc5d0375bf07ede51d7629ad446440220357350c5278404190281b8976be5b5c7bbfc7f812877b990a420da679d3d7abe014730440220570fd204809629510309f1d7878ce604e8d94196f929b9000900e4e67ee1580602206fa01af4786ad647f649dfba02460aa0e37f7ba49ed6090709f999ba33e1a1920147522102a618de23e72ad0b9e998bb2921f510cb4e078dcfe13c48cae85fec0587718f78210235de611525feac0afecdd7faefde5b645b007e2de1e7e9477ff773a9529a435e52ae"
          },
          "sequence": 4294967295
        }
      ],
      "vout": [
        {
          "value": 0.21211157,
          "n": 0,
          "scriptPubKey": {
            "asm": "OP_HASH160 d8f502b5f62caa29193fe5b43f5ce6ade7d57497 OP_EQUAL",
            "hex": "a914d8f502b5f62caa29193fe5b43f5ce6ade7d5749787",
            "reqSigs": 1,
            "type": "scripthash",
            "addresses": [
              "MTgKhVwLXbkeyRQNgjfovndKUygEDMcuay"
            ]
          }
        }, 
        {
          "value": 23.97496288,
          "n": 1,
          "scriptPubKey": {
            "asm": "OP_HASH160 8bfc0bc6105a628bd82effe05523aea40f0eb873 OP_EQUAL",
            "hex": "a9148bfc0bc6105a628bd82effe05523aea40f0eb87387",
            "reqSigs": 1,
            "type": "scripthash",
            "addresses": [
              "MLfL6ZGHAz972E3kEmnAurRy8FnjCvjfab"
            ]
          }
        }
      ],
      "hex": "01000000011e41b001468bc9ae01a13b6831224d580524ec4368da75a832be88a97b84200c01000000da00483045022100e4bf3b9a894c70283f3912b232de103547ebc5d0375bf07ede51d7629ad446440220357350c5278404190281b8976be5b5c7bbfc7f812877b990a420da679d3d7abe014730440220570fd204809629510309f1d7878ce604e8d94196f929b9000900e4e67ee1580602206fa01af4786ad647f649dfba02460aa0e37f7ba49ed6090709f999ba33e1a1920147522102a618de23e72ad0b9e998bb2921f510cb4e078dcfe13c48cae85fec0587718f78210235de611525feac0afecdd7faefde5b645b007e2de1e7e9477ff773a9529a435e52aeffffffff0215a843010000000017a914d8f502b5f62caa29193fe5b43f5ce6ade7d5749787e0e3e68e0000000017a9148bfc0bc6105a628bd82effe05523aea40f0eb8738700000000"
    }, 
    {
      "txid": "fded00779d9a52e210e0e612544fa8788883535770ef9715bf5ee586ab0b3e09",
      "hash": "fded00779d9a52e210e0e612544fa8788883535770ef9715bf5ee586ab0b3e09",
      "version": 1,
      "size": 226,
      "vsize": 226,
      "locktime": 0,
      "vin": [
        {
          "txid": "2e8db56e7d14a33ac84d5525ea1db5650f238d945fc6321b6e5e026675e87940",
          "vout": 0,
          "scriptSig": {
            "asm": "3045022100c51ffdf4aa1a0519af87954c8c42c256bdfc87c4e9a64f25356d743b24322df30220340db2eca44bc84ab597a32460785b467a39fdb3c172c342951768e50ec297a7[ALL] 0387ecae74ace6a3a8f6ec0c4480661db1ab3f29cd3d6783edd41af1bcaddda984",
            "hex": "483045022100c51ffdf4aa1a0519af87954c8c42c256bdfc87c4e9a64f25356d743b24322df30220340db2eca44bc84ab597a32460785b467a39fdb3c172c342951768e50ec297a701210387ecae74ace6a3a8f6ec0c4480661db1ab3f29cd3d6783edd41af1bcaddda984"
          },
          "sequence": 4294967295
        }
      ],
      "vout": [
        {
          "value": 1.01794215,
          "n": 0,
          "scriptPubKey": {
            "asm": "OP_DUP OP_HASH160 6179465b7e11a1ad96d023e961467351ef247ecf OP_EQUALVERIFY OP_CHECKSIG",
            "hex": "76a9146179465b7e11a1ad96d023e961467351ef247ecf88ac",
            "reqSigs": 1,
            "type": "pubkeyhash",
            "addresses": [
              "LU7M69HjnrSemjLB5jWDysN8mZc7FetrR1"
            ]
          }
        }, 
        {
          "value": 0.20295980,
          "n": 1,
          "scriptPubKey": {
            "asm": "OP_DUP OP_HASH160 b2e72f75c6353d2aafd5632977a95f819e7767a8 OP_EQUALVERIFY OP_CHECKSIG",
            "hex": "76a914b2e72f75c6353d2aafd5632977a95f819e7767a888ac",
            "reqSigs": 1,
            "type": "pubkeyhash",
            "addresses": [
              "LbXuVQEXCiAbLTBERXH6KdXyazxvgFiVJs"
            ]
          }
        }
      ],
      "hex": "01000000014079e87566025e6e1b32c65f948d230f65b51dea25554dc83aa3147d6eb58d2e000000006b483045022100c51ffdf4aa1a0519af87954c8c42c256bdfc87c4e9a64f25356d743b24322df30220340db2eca44bc84ab597a32460785b467a39fdb3c172c342951768e50ec297a701210387ecae74ace6a3a8f6ec0c4480661db1ab3f29cd3d6783edd41af1bcaddda984ffffffff02a7411106000000001976a9146179465b7e11a1ad96d023e961467351ef247ecf88ac2cb13501000000001976a914b2e72f75c6353d2aafd5632977a95f819e7767a888ac00000000"
    }, 
    {
      "txid": "c9aee5b9d64682d2b722ed04ffac5587ff9775847c25fd1311f11bd49e8cd78c",
      "hash": "c9aee5b9d64682d2b722ed04ffac5587ff9775847c25fd1311f11bd49e8cd78c",
      "version": 2,
      "size": 226,
      "vsize": 226,
      "locktime": 1359976,
      "vin": [
        {
          "txid": "8d95d5066afcf3ef22b3e7afacdb5d3c735fcd3dbad194593dc831588fd39eeb",
          "vout": 0,
          "scriptSig": {
            "asm": "3045022100f3e0bd9158e54087620737890d449f8be09cc7f816fcf675e7637229d79f525f022019c01b513013582dd249a16a16e9bb295537925e963d64acd910fafbd3d48cbd[ALL] 037d1a281cbbac5496f885d4ebb398f4c1c157e5aacfc9a29ccf8f8cfcbeca273c",
            "hex": "483045022100f3e0bd9158e54087620737890d449f8be09cc7f816fcf675e7637229d79f525f022019c01b513013582dd249a16a16e9bb295537925e963d64acd910fafbd3d48cbd0121037d1a281cbbac5496f885d4ebb398f4c1c157e5aacfc9a29ccf8f8cfcbeca273c"
          },
          "sequence": 4294967294
        }
      ],
      "vout": [
        {
          "value": 24.44973272,
          "n": 0,
          "scriptPubKey": {
            "asm": "OP_DUP OP_HASH160 921a85f7de9cb38be0cbb203b45a83ebf06a1f41 OP_EQUALVERIFY OP_CHECKSIG",
            "hex": "76a914921a85f7de9cb38be0cbb203b45a83ebf06a1f4188ac",
            "reqSigs": 1,
            "type": "pubkeyhash",
            "addresses": [
              "LYYUh6K26CAnsWFsLXw5ZKgUBpGumzhN9A"
            ]
          }
        }, 
        {
          "value": 0.56954800,
          "n": 1,
          "scriptPubKey": {
            "asm": "OP_DUP OP_HASH160 3e21098596c07a7899782da9b9d1dff794fe7ded OP_EQUALVERIFY OP_CHECKSIG",
            "hex": "76a9143e21098596c07a7899782da9b9d1dff794fe7ded88ac",
            "reqSigs": 1,
            "type": "pubkeyhash",
            "addresses": [
              "LQtTja5Bg98qiXrJy8EGQXGP8YAdeswSfR"
            ]
          }
        }
      ],
      "hex": "0200000001eb9ed38f5831c83d5994d1ba3dcd5f733c5ddbacafe7b322eff3fc6a06d5958d000000006b483045022100f3e0bd9158e54087620737890d449f8be09cc7f816fcf675e7637229d79f525f022019c01b513013582dd249a16a16e9bb295537925e963d64acd910fafbd3d48cbd0121037d1a281cbbac5496f885d4ebb398f4c1c157e5aacfc9a29ccf8f8cfcbeca273cfeffffff02d854bb91000000001976a914921a85f7de9cb38be0cbb203b45a83ebf06a1f4188acb00f6503000000001976a9143e21098596c07a7899782da9b9d1dff794fe7ded88ac68c01400"
    }
  ],
  "time": 1517357218,
  "mediantime": 1517356717,
  "nonce": 1184681856,
  "bits": "1a042eae",
  "difficulty": 4011378.762614286,
  "chainwork": "000000000000000000000000000000000000000000000034825f891d4004e656",
  "previousblockhash": "ad7407e476d70ba27b404d2834b9eb2f4988dd0930d068f11f1d2837e44a8cba",
  "nextblockhash": "ba377f4d5300dfc274805348cf0cc5ba87d636679ffa6ff9c2fe711e7a2e6874"
}
