{
  "hash": "d520bda54d28f55d8c7a45456a9eeb9b42837747c3e0cd02ae572fbbead5020a",
  "confirmations": 2773,
  "strippedsize": 254,
  "size": 254,
  "weight": 1016,
  "height": 1358222,
  "version": 536870912,
  "versionHex": "20000000",
  "merkleroot": "1e3b4c88cdbeca73dccb14ae4b4411f3707aaab64ed217c008145ecf0f10b89b",
  "tx": [
    {
      "txid": "1e3b4c88cdbeca73dccb14ae4b4411f3707aaab64ed217c008145ecf0f10b89b",
      "hash": "1e3b4c88cdbeca73dccb14ae4b4411f3707aaab64ed217c008145ecf0f10b89b",
      "version": 1,
      "size": 173,
      "vsize": 173,
      "locktime": 0,
      "vin": [
        {
          "coinbase": "038eb9141b4d696e656420627920416e74506f6f6c20626a302042205a6d3ec3fabe6d6dd1cfe761b6fb440f454319da04d4121749cbaefabbd5a2171fd716fded8f01990400000000000000b90700000000000025000000",
          "sequence": 4294967295
        }
      ],
      "vout": [
        {
          "value": 25.00000000,
          "n": 0,
          "scriptPubKey": {
            "asm": "OP_DUP OP_HASH160 0ff3ccc5e8be88afe24b5d634e5852d474dbdff1 OP_EQUALVERIFY OP_CHECKSIG",
            "hex": "76a9140ff3ccc5e8be88afe24b5d634e5852d474dbdff188ac",
            "reqSigs": 1,
            "type": "pubkeyhash",
            "addresses": [
              "LLgJTbzZMsRTCUF1NtvvL9SR1a4pVieW89"
            ]
          }
        }
      ],
      "hex": "01000000010000000000000000000000000000000000000000000000000000000000000000ffffffff58038eb9141b4d696e656420627920416e74506f6f6c20626a302042205a6d3ec3fabe6d6dd1cfe761b6fb440f454319da04d4121749cbaefabbd5a2171fd716fded8f01990400000000000000b90700000000000025000000ffffffff0100f90295000000001976a9140ff3ccc5e8be88afe24b5d634e5852d474dbdff188ac00000000"
    }
  ],
  "time": 1517108931,
  "mediantime": 1517107874,
  "nonce": 2255032652,
  "bits": "1a047f14",
  "difficulty": 3731199.183374282,
  "chainwork": "000000000000000000000000000000000000000000000032e7e1b2b4372a6f86",
  "previousblockhash": "28c0c60122801e17952a4a0eac277121ee932e7d460dc796efe601e53194317c",
  "nextblockhash": "37b594f13eeb17ef29939f26bcefc12e904d399729529ab122d29a65fdde59a6"
}
