{
  "hash": "d544b78208f45324eaf18d4e64cca86bd89c8e7748dc6d31f27389a98a57666f",
  "confirmations": 223,
  "strippedsize": 253,
  "size": 253,
  "weight": 1012,
  "height": 1360771,
  "version": 536870912,
  "versionHex": "20000000",
  "merkleroot": "50fa1d1c28df6d25b5b79dfd46e26f33447785c03a5f4caeb39a09cdd17a275f",
  "tx": [
    {
      "txid": "50fa1d1c28df6d25b5b79dfd46e26f33447785c03a5f4caeb39a09cdd17a275f",
      "hash": "50fa1d1c28df6d25b5b79dfd46e26f33447785c03a5f4caeb39a09cdd17a275f",
      "version": 1,
      "size": 172,
      "vsize": 172,
      "locktime": 0,
      "vin": [
        {
          "coinbase": "0383c3141a4d696e656420627920416e74506f6f6c20626a3532205a72e59cfabe6d6dbcdce696fb62f93a1397be634cdf4daa18de3561361d775b696492b47928ac7d0400000000000000500b0000000000001f000000",
          "sequence": 4294967295
        }
      ],
      "vout": [
        {
          "value": 25.00000000,
          "n": 0,
          "scriptPubKey": {
            "asm": "OP_DUP OP_HASH160 0ff3ccc5e8be88afe24b5d634e5852d474dbdff1 OP_EQUALVERIFY OP_CHECKSIG",
            "hex": "76a9140ff3ccc5e8be88afe24b5d634e5852d474dbdff188ac",
            "reqSigs": 1,
            "type": "pubkeyhash",
            "addresses": [
              "LLgJTbzZMsRTCUF1NtvvL9SR1a4pVieW89"
            ]
          }
        }
      ],
      "hex": "01000000010000000000000000000000000000000000000000000000000000000000000000ffffffff570383c3141a4d696e656420627920416e74506f6f6c20626a3532205a72e59cfabe6d6dbcdce696fb62f93a1397be634cdf4daa18de3561361d775b696492b47928ac7d0400000000000000500b0000000000001f000000ffffffff0100f90295000000001976a9140ff3ccc5e8be88afe24b5d634e5852d474dbdff188ac00000000"
    }
  ],
  "time": 1517479324,
  "mediantime": 1517479047,
  "nonce": 525461201,
  "bits": "1a042eae",
  "difficulty": 4011378.762614286,
  "chainwork": "0000000000000000000000000000000000000000000000353ffad7374eebfa08",
  "previousblockhash": "ffbd097ebe9305ad8ffed54b6ddf180198f2cc385ba6737321960bacf6de7bc2",
  "nextblockhash": "678d747589cf5612c349c9a2380995be7373eec7a0c6eee4fe8bac4ed762c084"
}
