{
  "hash": "d579f0bb96edc5fdbb7ea3ba318a4db244ccc35a205a5d3c06e57af478f5de28",
  "confirmations": 318,
  "strippedsize": 253,
  "size": 253,
  "weight": 1012,
  "height": 1360676,
  "version": 536870912,
  "versionHex": "20000000",
  "merkleroot": "d7eff6e28e0ccac239c2e7ade5aff78cdc479cb686ddf5e058f03901abb491e1",
  "tx": [
    {
      "txid": "d7eff6e28e0ccac239c2e7ade5aff78cdc479cb686ddf5e058f03901abb491e1",
      "hash": "d7eff6e28e0ccac239c2e7ade5aff78cdc479cb686ddf5e058f03901abb491e1",
      "version": 1,
      "size": 172,
      "vsize": 172,
      "locktime": 0,
      "vin": [
        {
          "coinbase": "0324c3141a4d696e656420627920416e74506f6f6c20626a3242205a72ad69fabe6d6d17ff2a0a84d179bffde43bd7e2d602ec6e66ef2869d3a92d065ab6ffdb90c52204000000000000001c310000000000001e000000",
          "sequence": 4294967295
        }
      ],
      "vout": [
        {
          "value": 25.00000000,
          "n": 0,
          "scriptPubKey": {
            "asm": "OP_DUP OP_HASH160 0ff3ccc5e8be88afe24b5d634e5852d474dbdff1 OP_EQUALVERIFY OP_CHECKSIG",
            "hex": "76a9140ff3ccc5e8be88afe24b5d634e5852d474dbdff188ac",
            "reqSigs": 1,
            "type": "pubkeyhash",
            "addresses": [
              "LLgJTbzZMsRTCUF1NtvvL9SR1a4pVieW89"
            ]
          }
        }
      ],
      "hex": "01000000010000000000000000000000000000000000000000000000000000000000000000ffffffff570324c3141a4d696e656420627920416e74506f6f6c20626a3242205a72ad69fabe6d6d17ff2a0a84d179bffde43bd7e2d602ec6e66ef2869d3a92d065ab6ffdb90c52204000000000000001c310000000000001e000000ffffffff0100f90295000000001976a9140ff3ccc5e8be88afe24b5d634e5852d474dbdff188ac00000000"
    }
  ],
  "time": 1517464937,
  "mediantime": 1517464138,
  "nonce": 3999017146,
  "bits": "1a042eae",
  "difficulty": 4011378.762614286,
  "chainwork": "0000000000000000000000000000000000000000000000352943eae9efd712ca",
  "previousblockhash": "b0f2d6907918f82a70292712c78761998ce1ebbdf6497a27f48c10a772623119",
  "nextblockhash": "4ed77423ec0605f881cf6ec62e6b0e9a089348d0cca1d736e31c8c8194ab963a"
}
