{
  "hash": "d5f39485b5896f75211508882a118d9d4a72f2a9a27dbdbae79975169bda48ec",
  "confirmations": 2788,
  "strippedsize": 234,
  "size": 234,
  "weight": 936,
  "height": 1358207,
  "version": 536870912,
  "versionHex": "20000000",
  "merkleroot": "6981207a02f10134ffd00023669040b60d15f0ada0d1a72434a0ff9f84cc95fa",
  "tx": [
    {
      "txid": "6981207a02f10134ffd00023669040b60d15f0ada0d1a72434a0ff9f84cc95fa",
      "hash": "6981207a02f10134ffd00023669040b60d15f0ada0d1a72434a0ff9f84cc95fa",
      "version": 1,
      "size": 153,
      "vsize": 153,
      "locktime": 0,
      "vin": [
        {
          "coinbase": "037fb914045a6d357c2cfabe6d6d8a6a8c6614ab0d25b2c915311370fa609fd9055b90062bbdb046ff93a99d73ff4000000000000000042f4c502f0856001a2695020000",
          "sequence": 4294967295
        }
      ],
      "vout": [
        {
          "value": 25.00000000,
          "n": 0,
          "scriptPubKey": {
            "asm": "OP_DUP OP_HASH160 57757ed2ecf2052ff3126c397aca7defb9ca2cec OP_EQUALVERIFY OP_CHECKSIG",
            "hex": "76a91457757ed2ecf2052ff3126c397aca7defb9ca2cec88ac",
            "reqSigs": 1,
            "type": "pubkeyhash",
            "addresses": [
              "LTCPodGk5FwcJaRzH9yKnwicxzFUbxp6tN"
            ]
          }
        }
      ],
      "hex": "01000000010000000000000000000000000000000000000000000000000000000000000000ffffffff44037fb914045a6d357c2cfabe6d6d8a6a8c6614ab0d25b2c915311370fa609fd9055b90062bbdb046ff93a99d73ff4000000000000000042f4c502f0856001a2695020000ffffffff0100f90295000000001976a91457757ed2ecf2052ff3126c397aca7defb9ca2cec88ac00000000"
    }
  ],
  "time": 1517106556,
  "mediantime": 1517105963,
  "nonce": 1671167136,
  "bits": "1a047f14",
  "difficulty": 3731199.183374282,
  "chainwork": "000000000000000000000000000000000000000000000032e48bae6a72b86a00",
  "previousblockhash": "e6fa606894da6145ffdb4dc0c1eeeee75f9b1bedc278981d8853aa42027090ab",
  "nextblockhash": "5f240eeacd5b101c3a821920a6b386145b145c273d53d177180c1e17797c8a9a"
}
