{
  "hash": "d60fe7a3428cbb5a2ac7b987f7268a93346effd97018e48b9c3869a18511efab",
  "confirmations": 980,
  "strippedsize": 234,
  "size": 234,
  "weight": 936,
  "height": 1360014,
  "version": 536870912,
  "versionHex": "20000000",
  "merkleroot": "0e1f1d6407429ec88ec89a7aa6f23c04db3474f272d4f99c86c68f56bf625db0",
  "tx": [
    {
      "txid": "0e1f1d6407429ec88ec89a7aa6f23c04db3474f272d4f99c86c68f56bf625db0",
      "hash": "0e1f1d6407429ec88ec89a7aa6f23c04db3474f272d4f99c86c68f56bf625db0",
      "version": 1,
      "size": 153,
      "vsize": 153,
      "locktime": 0,
      "vin": [
        {
          "coinbase": "038ec014045a711c352cfabe6d6d305934bef82660c3ee4b22210a638bac20b0d344fa132dcb8fb4d4a7075520674000000000000000042f4c502f082200b0712c000000",
          "sequence": 4294967295
        }
      ],
      "vout": [
        {
          "value": 25.00000000,
          "n": 0,
          "scriptPubKey": {
            "asm": "OP_DUP OP_HASH160 57757ed2ecf2052ff3126c397aca7defb9ca2cec OP_EQUALVERIFY OP_CHECKSIG",
            "hex": "76a91457757ed2ecf2052ff3126c397aca7defb9ca2cec88ac",
            "reqSigs": 1,
            "type": "pubkeyhash",
            "addresses": [
              "LTCPodGk5FwcJaRzH9yKnwicxzFUbxp6tN"
            ]
          }
        }
      ],
      "hex": "01000000010000000000000000000000000000000000000000000000000000000000000000ffffffff44038ec014045a711c352cfabe6d6d305934bef82660c3ee4b22210a638bac20b0d344fa132dcb8fb4d4a7075520674000000000000000042f4c502f082200b0712c000000ffffffff0100f90295000000001976a91457757ed2ecf2052ff3126c397aca7defb9ca2cec88ac00000000"
    }
  ],
  "time": 1517362229,
  "mediantime": 1517361339,
  "nonce": 266103770,
  "bits": "1a042eae",
  "difficulty": 4011378.762614286,
  "chainwork": "0000000000000000000000000000000000000000000000348afb15dc4104bc9e",
  "previousblockhash": "eed9ad871ed720c6fb13a1cce634a1af2e9c572281667a1f5c5d358175fe1aae",
  "nextblockhash": "f1a49bee430adac9512ed13250b1b4e4f58f7305dd21a14cb6186ddc976a0593"
}
