{
  "hash": "d636398b55d49493b2cb524f1604e5b84616712f075142c3402000f454e37535",
  "confirmations": 1659,
  "strippedsize": 234,
  "size": 234,
  "weight": 936,
  "height": 1359335,
  "version": 536870912,
  "versionHex": "20000000",
  "merkleroot": "6ae3ce1e5cdbb7772b12208519ea6c5e91ca91235f3ea380b812a48db185ab20",
  "tx": [
    {
      "txid": "6ae3ce1e5cdbb7772b12208519ea6c5e91ca91235f3ea380b812a48db185ab20",
      "hash": "6ae3ce1e5cdbb7772b12208519ea6c5e91ca91235f3ea380b812a48db185ab20",
      "version": 1,
      "size": 153,
      "vsize": 153,
      "locktime": 0,
      "vin": [
        {
          "coinbase": "03e7bd14045a6faffb2cfabe6d6d5f1fcbae1c59b29cb4f3ffd556911bc41ba6cd76b047650010123c5e8ee86a6c4000000000000000042f4c502f0822000aad03000000",
          "sequence": 4294967295
        }
      ],
      "vout": [
        {
          "value": 25.00000000,
          "n": 0,
          "scriptPubKey": {
            "asm": "OP_DUP OP_HASH160 57757ed2ecf2052ff3126c397aca7defb9ca2cec OP_EQUALVERIFY OP_CHECKSIG",
            "hex": "76a91457757ed2ecf2052ff3126c397aca7defb9ca2cec88ac",
            "reqSigs": 1,
            "type": "pubkeyhash",
            "addresses": [
              "LTCPodGk5FwcJaRzH9yKnwicxzFUbxp6tN"
            ]
          }
        }
      ],
      "hex": "01000000010000000000000000000000000000000000000000000000000000000000000000ffffffff4403e7bd14045a6faffb2cfabe6d6d5f1fcbae1c59b29cb4f3ffd556911bc41ba6cd76b047650010123c5e8ee86a6c4000000000000000042f4c502f0822000aad03000000ffffffff0100f90295000000001976a91457757ed2ecf2052ff3126c397aca7defb9ca2cec88ac00000000"
    }
  ],
  "time": 1517268987,
  "mediantime": 1517268722,
  "nonce": 331208114,
  "bits": "1a042eae",
  "difficulty": 4011378.762614286,
  "chainwork": "000000000000000000000000000000000000000000000033e8a1b01f0a9d24d0",
  "previousblockhash": "f912bbdfa6ae3a766b02a2cb9579c510c5d68f425154ba150fb9b551a0511e5f",
  "nextblockhash": "e3dd5243d6f4a4bf4d9210d74d4a1698dcb20cbd96e87845e6121c48c5e6cd27"
}
