{
  "hash": "d661641382a16ee2023464968ff4b4c12cd66dbec14501a08a7765d07a860bcb",
  "confirmations": 352,
  "strippedsize": 255,
  "size": 255,
  "weight": 1020,
  "height": 1360642,
  "version": 536870912,
  "versionHex": "20000000",
  "merkleroot": "a8924adc64d2e255d7a57c28142a65f2385b3d809ea13d0be0763306bfb1bc2a",
  "tx": [
    {
      "txid": "a8924adc64d2e255d7a57c28142a65f2385b3d809ea13d0be0763306bfb1bc2a",
      "hash": "a8924adc64d2e255d7a57c28142a65f2385b3d809ea13d0be0763306bfb1bc2a",
      "version": 1,
      "size": 174,
      "vsize": 174,
      "locktime": 0,
      "vin": [
        {
          "coinbase": "0302c3141c4d696e656420627920416e74506f6f6c20626a3242205a729d7d100bfabe6d6d17ff2a0a84d179bffde43bd7e2d602ec6e66ef2869d3a92d065ab6ffdb90c52204000000000000009e340000000000001f000000",
          "sequence": 4294967295
        }
      ],
      "vout": [
        {
          "value": 25.00000000,
          "n": 0,
          "scriptPubKey": {
            "asm": "OP_DUP OP_HASH160 0ff3ccc5e8be88afe24b5d634e5852d474dbdff1 OP_EQUALVERIFY OP_CHECKSIG",
            "hex": "76a9140ff3ccc5e8be88afe24b5d634e5852d474dbdff188ac",
            "reqSigs": 1,
            "type": "pubkeyhash",
            "addresses": [
              "LLgJTbzZMsRTCUF1NtvvL9SR1a4pVieW89"
            ]
          }
        }
      ],
      "hex": "01000000010000000000000000000000000000000000000000000000000000000000000000ffffffff590302c3141c4d696e656420627920416e74506f6f6c20626a3242205a729d7d100bfabe6d6d17ff2a0a84d179bffde43bd7e2d602ec6e66ef2869d3a92d065ab6ffdb90c52204000000000000009e340000000000001f000000ffffffff0100f90295000000001976a9140ff3ccc5e8be88afe24b5d634e5852d474dbdff188ac00000000"
    }
  ],
  "time": 1517460861,
  "mediantime": 1517460483,
  "nonce": 1224446999,
  "bits": "1a042eae",
  "difficulty": 4011378.762614286,
  "chainwork": "0000000000000000000000000000000000000000000000352122c98ae0ac8f86",
  "previousblockhash": "37f4c795ae641490c07999803f66eeb43c807aee45b8c989f3072566decc5af1",
  "nextblockhash": "94285ec42cfa1af849e32adccb0f2ba07d98e64146399e280a9f6616139ffd1c"
}
