{
  "hash": "d6dd430bbbb71eac62b6eb42f1e90379446d520104c772086b1c0dc6af4fddf9",
  "confirmations": 3155,
  "strippedsize": 973,
  "size": 1009,
  "weight": 3928,
  "height": 1357840,
  "version": 536870912,
  "versionHex": "20000000",
  "merkleroot": "ec80ccb3764934984229e9c5848662ad1863592278c51df38a3ed3bc4be9bb2e",
  "tx": [
    {
      "txid": "cee24e3bb20e44d20267678bf592ee0689242ba19fb4bf1285685618e4636889",
      "hash": "c0cc1244dec10a1c68fedf2cf982d65f12af0322c8d9f26b01c6fc7050564f3a",
      "version": 1,
      "size": 253,
      "vsize": 226,
      "locktime": 0,
      "vin": [
        {
          "coinbase": "0310b81441d69b1b9a42cb0041d69b1b99c2f6382f4c54432e544f502ffabe6d6d376b2302ef95033fe296b178ab2b34c6aef33e67ab51b519df3d1cdecf56dbb40100000000000000792ee7010d00000000000000",
          "sequence": 4294967295
        }
      ],
      "vout": [
        {
          "value": 25.00259900,
          "n": 0,
          "scriptPubKey": {
            "asm": "OP_DUP OP_HASH160 0c617fdb2ea42aed30a509595ee21ba3f6688db0 OP_EQUALVERIFY OP_CHECKSIG",
            "hex": "76a9140c617fdb2ea42aed30a509595ee21ba3f6688db088ac",
            "reqSigs": 1,
            "type": "pubkeyhash",
            "addresses": [
              "LLMRAtr3qBje2ySEa3CnZ55LA4TQMWnRY3"
            ]
          }
        }, 
        {
          "value": 0.00000000,
          "n": 1,
          "scriptPubKey": {
            "asm": "OP_RETURN aa21a9ed407044adb78bcca2dd93426f72fff5d2dc888c412908193a191d0559ad7056fb",
            "hex": "6a24aa21a9ed407044adb78bcca2dd93426f72fff5d2dc888c412908193a191d0559ad7056fb",
            "type": "nulldata"
          }
        }
      ],
      "hex": "010000000001010000000000000000000000000000000000000000000000000000000000000000ffffffff550310b81441d69b1b9a42cb0041d69b1b99c2f6382f4c54432e544f502ffabe6d6d376b2302ef95033fe296b178ab2b34c6aef33e67ab51b519df3d1cdecf56dbb40100000000000000792ee7010d00000000000000ffffffff023cf00695000000001976a9140c617fdb2ea42aed30a509595ee21ba3f6688db088ac0000000000000000266a24aa21a9ed407044adb78bcca2dd93426f72fff5d2dc888c412908193a191d0559ad7056fb0120000000000000000000000000000000000000000000000000000000000000000000000000"
    }, 
    {
      "txid": "85e573ffce3d3d860d74022680ca3fe4f3d801d7fb4e41a0622e3295f49aaa0d",
      "hash": "85e573ffce3d3d860d74022680ca3fe4f3d801d7fb4e41a0622e3295f49aaa0d",
      "version": 1,
      "size": 225,
      "vsize": 225,
      "locktime": 0,
      "vin": [
        {
          "txid": "3aa8b0ed43433211ed751a8b2c6cdd09140449ee6c63b7a927adc13931b7269d",
          "vout": 1,
          "scriptSig": {
            "asm": "3044022052aeaf662444b11c68a033d66c4737d83b454486d171f8c68f460088b23f1eac0220092d286a0194ec1df30a75ee4b678b127a20eb68f529eed6825399b1ec387324[ALL] 0256fac51d4363f946ea46592bbb6b131c12a18bdb7177b54ddbf828cfa4318650",
            "hex": "473044022052aeaf662444b11c68a033d66c4737d83b454486d171f8c68f460088b23f1eac0220092d286a0194ec1df30a75ee4b678b127a20eb68f529eed6825399b1ec38732401210256fac51d4363f946ea46592bbb6b131c12a18bdb7177b54ddbf828cfa4318650"
          },
          "sequence": 4294967295
        }
      ],
      "vout": [
        {
          "value": 0.82072801,
          "n": 0,
          "scriptPubKey": {
            "asm": "OP_DUP OP_HASH160 2f788a010d4eae2db21d0155aecdd429ffe2b176 OP_EQUALVERIFY OP_CHECKSIG",
            "hex": "76a9142f788a010d4eae2db21d0155aecdd429ffe2b17688ac",
            "reqSigs": 1,
            "type": "pubkeyhash",
            "addresses": [
              "LPYxRRxJG75dq3Q29JjriRkbHPnkoCeEWA"
            ]
          }
        }, 
        {
          "value": 1.04000000,
          "n": 1,
          "scriptPubKey": {
            "asm": "OP_DUP OP_HASH160 1d3af2b12f119c4dcceda1cb8eb45175ef369ef7 OP_EQUALVERIFY OP_CHECKSIG",
            "hex": "76a9141d3af2b12f119c4dcceda1cb8eb45175ef369ef788ac",
            "reqSigs": 1,
            "type": "pubkeyhash",
            "addresses": [
              "LMtWUZCqMningKJv79SKfkfBuLmnLE516f"
            ]
          }
        }
      ],
      "hex": "01000000019d26b73139c1ad27a9b7636cee49041409dd6c2c8b1a75ed11324343edb0a83a010000006a473044022052aeaf662444b11c68a033d66c4737d83b454486d171f8c68f460088b23f1eac0220092d286a0194ec1df30a75ee4b678b127a20eb68f529eed6825399b1ec38732401210256fac51d4363f946ea46592bbb6b131c12a18bdb7177b54ddbf828cfa4318650ffffffff02e154e404000000001976a9142f788a010d4eae2db21d0155aecdd429ffe2b17688ac00ea3206000000001976a9141d3af2b12f119c4dcceda1cb8eb45175ef369ef788ac00000000"
    }, 
    {
      "txid": "22b0e7172e4ebf340db3ed03961a6c474984e2f08ce2dbb22952c15463fc453f",
      "hash": "22b0e7172e4ebf340db3ed03961a6c474984e2f08ce2dbb22952c15463fc453f",
      "version": 2,
      "size": 225,
      "vsize": 225,
      "locktime": 1357797,
      "vin": [
        {
          "txid": "366a931d414df98fbfae6f03f4d33e96d0f6a04f2317a3a67ba93eb64f7e4ba5",
          "vout": 0,
          "scriptSig": {
            "asm": "30440220556526b53c4601a20ac71c2cfe1218146161bfd73f1f1705f92a02b68ea2b11e02205d13eb73bbf4fb14159fc63cf49114977bace203fb75848bfb54652c310e2333[ALL] 038cac0a9b17d1fc1ee3c33213716763a484de3725ef0383045256d8d315bed929",
            "hex": "4730440220556526b53c4601a20ac71c2cfe1218146161bfd73f1f1705f92a02b68ea2b11e02205d13eb73bbf4fb14159fc63cf49114977bace203fb75848bfb54652c310e23330121038cac0a9b17d1fc1ee3c33213716763a484de3725ef0383045256d8d315bed929"
          },
          "sequence": 4294967294
        }
      ],
      "vout": [
        {
          "value": 0.28054161,
          "n": 0,
          "scriptPubKey": {
            "asm": "OP_DUP OP_HASH160 f7ec648758e5bdde318c40cf46152fed842ce39a OP_EQUALVERIFY OP_CHECKSIG",
            "hex": "76a914f7ec648758e5bdde318c40cf46152fed842ce39a88ac",
            "reqSigs": 1,
            "type": "pubkeyhash",
            "addresses": [
              "LhprMStc4Eperk15kynQ54Fwz4mQJaTL9U"
            ]
          }
        }, 
        {
          "value": 132.25168696,
          "n": 1,
          "scriptPubKey": {
            "asm": "OP_DUP OP_HASH160 fddd3125399adc36ba9d2d75b70365bb13384acc OP_EQUALVERIFY OP_CHECKSIG",
            "hex": "76a914fddd3125399adc36ba9d2d75b70365bb13384acc88ac",
            "reqSigs": 1,
            "type": "pubkeyhash",
            "addresses": [
              "LiNGCS7w6id8dPCUSrXF5nMNWAh4odBedL"
            ]
          }
        }
      ],
      "hex": "0200000001a54b7e4fb63ea97ba6a317234fa0f6d0963ed3f4036faebf8ff94d411d936a36000000006a4730440220556526b53c4601a20ac71c2cfe1218146161bfd73f1f1705f92a02b68ea2b11e02205d13eb73bbf4fb14159fc63cf49114977bace203fb75848bfb54652c310e23330121038cac0a9b17d1fc1ee3c33213716763a484de3725ef0383045256d8d315bed929feffffff029112ac01000000001976a914f7ec648758e5bdde318c40cf46152fed842ce39a88ac380f4814030000001976a914fddd3125399adc36ba9d2d75b70365bb13384acc88ace5b71400"
    }, 
    {
      "txid": "a67d4eca1811d6c70e7bd9cca35a492da824e8e60dcfaeda1570643eeb1cf4b1",
      "hash": "a67d4eca1811d6c70e7bd9cca35a492da824e8e60dcfaeda1570643eeb1cf4b1",
      "version": 1,
      "size": 225,
      "vsize": 225,
      "locktime": 0,
      "vin": [
        {
          "txid": "5a812aa546fbb0dfd1fec519ee30cf406783a82d21b9ccf743ccc9b2be1abc8e",
          "vout": 0,
          "scriptSig": {
            "asm": "3044022053b83a00d13b2abbb3438207ae2c0c994cddc89c33c9673ef2a93d30a280d06d022005ffd9b1a39e85adeb37e559f5c3c77c2dab63d1cc26b591472e4fddf8b5c8d6[ALL] 022636fe91d03b3b249b23e866a5b096663dc2328d49eb8d691afde854d4c2216f",
            "hex": "473044022053b83a00d13b2abbb3438207ae2c0c994cddc89c33c9673ef2a93d30a280d06d022005ffd9b1a39e85adeb37e559f5c3c77c2dab63d1cc26b591472e4fddf8b5c8d60121022636fe91d03b3b249b23e866a5b096663dc2328d49eb8d691afde854d4c2216f"
          },
          "sequence": 4294967295
        }
      ],
      "vout": [
        {
          "value": 2.32339974,
          "n": 0,
          "scriptPubKey": {
            "asm": "OP_DUP OP_HASH160 19caa51def2af99c12096849ec8cd0b830c8a943 OP_EQUALVERIFY OP_CHECKSIG",
            "hex": "76a91419caa51def2af99c12096849ec8cd0b830c8a94388ac",
            "reqSigs": 1,
            "type": "pubkeyhash",
            "addresses": [
              "LMaKv2f63EpiJ3kVuHJDH4WxZdeVd3c2L3"
            ]
          }
        }, 
        {
          "value": 0.40710847,
          "n": 1,
          "scriptPubKey": {
            "asm": "OP_DUP OP_HASH160 2e26bd4fb7e0d192960c8143e03a022a8432a707 OP_EQUALVERIFY OP_CHECKSIG",
            "hex": "76a9142e26bd4fb7e0d192960c8143e03a022a8432a70788ac",
            "reqSigs": 1,
            "type": "pubkeyhash",
            "addresses": [
              "LPRykhprcWbRszytLHat4yDF1HjrYfak75"
            ]
          }
        }
      ],
      "hex": "01000000018ebc1abeb2c9cc43f7ccb9212da8836740cf30ee19c5fed1dfb0fb46a52a815a000000006a473044022053b83a00d13b2abbb3438207ae2c0c994cddc89c33c9673ef2a93d30a280d06d022005ffd9b1a39e85adeb37e559f5c3c77c2dab63d1cc26b591472e4fddf8b5c8d60121022636fe91d03b3b249b23e866a5b096663dc2328d49eb8d691afde854d4c2216fffffffff02063ad90d000000001976a91419caa51def2af99c12096849ec8cd0b830c8a94388acbf326d02000000001976a9142e26bd4fb7e0d192960c8143e03a022a8432a70788ac00000000"
    }
  ],
  "time": 1517055591,
  "mediantime": 1517055034,
  "nonce": 4129973084,
  "bits": "1a047f14",
  "difficulty": 3731199.183374282,
  "chainwork": "00000000000000000000000000000000000000000000003292ecbcf734e3c0ba",
  "previousblockhash": "ce7ebc7a70dd1a5383fec979a10c01f51879cdfc2d5b02a779ff256c8e4a5e51",
  "nextblockhash": "43650bb6cf3b6ca6d1da3721dc7f029561276216a4ddf324ba3d5692b78fa487"
}
