{
  "hash": "d6f248122d7c8fbdbe48882b7dc9def917050642f3f350c55099e733a7fd6862",
  "confirmations": 838,
  "strippedsize": 1104,
  "size": 1140,
  "weight": 4452,
  "height": 1360156,
  "version": 536870912,
  "versionHex": "20000000",
  "merkleroot": "7907424f0f63421f431b3ad7a65274eea8efc8cc48ed89f82c9101be6332374f",
  "tx": [
    {
      "txid": "81a79ecbd8a53bac2b25111a542ef9bd5cb7209864f01f698314b573b8f2eb0d",
      "hash": "7e9a16da9825fcd0689fd2469e686d60bd505717eb371da4d28b92cad794701c",
      "version": 1,
      "size": 236,
      "vsize": 209,
      "locktime": 0,
      "vin": [
        {
          "coinbase": "031cc114045a716d982cfabe6d6da0ef4cc2bd898f42373dfb2a5e3d9cc90de26b7d8d1c441e48661bc62bbe4f264000000000000000042f4c502f085800513b55558017",
          "sequence": 4294967295
        }
      ],
      "vout": [
        {
          "value": 25.00213000,
          "n": 0,
          "scriptPubKey": {
            "asm": "OP_DUP OP_HASH160 57757ed2ecf2052ff3126c397aca7defb9ca2cec OP_EQUALVERIFY OP_CHECKSIG",
            "hex": "76a91457757ed2ecf2052ff3126c397aca7defb9ca2cec88ac",
            "reqSigs": 1,
            "type": "pubkeyhash",
            "addresses": [
              "LTCPodGk5FwcJaRzH9yKnwicxzFUbxp6tN"
            ]
          }
        }, 
        {
          "value": 0.00000000,
          "n": 1,
          "scriptPubKey": {
            "asm": "OP_RETURN aa21a9ed8afc26e6cec80f26d45bfa1a17011f7a2a639ec4e022436648d355e8da474e77",
            "hex": "6a24aa21a9ed8afc26e6cec80f26d45bfa1a17011f7a2a639ec4e022436648d355e8da474e77",
            "type": "nulldata"
          }
        }
      ],
      "hex": "010000000001010000000000000000000000000000000000000000000000000000000000000000ffffffff44031cc114045a716d982cfabe6d6da0ef4cc2bd898f42373dfb2a5e3d9cc90de26b7d8d1c441e48661bc62bbe4f264000000000000000042f4c502f085800513b55558017ffffffff0208390695000000001976a91457757ed2ecf2052ff3126c397aca7defb9ca2cec88ac0000000000000000266a24aa21a9ed8afc26e6cec80f26d45bfa1a17011f7a2a639ec4e022436648d355e8da474e770120000000000000000000000000000000000000000000000000000000000000000000000000"
    }, 
    {
      "txid": "aac0963bb9083a3bf1fecc3114d9b517a1f884726372232173e947b595e9d72c",
      "hash": "aac0963bb9083a3bf1fecc3114d9b517a1f884726372232173e947b595e9d72c",
      "version": 2,
      "size": 225,
      "vsize": 225,
      "locktime": 1360154,
      "vin": [
        {
          "txid": "a786d0495efcaed7c27cec6d4b5af9b2196b019ab8cd89d627cc73061330d80a",
          "vout": 1,
          "scriptSig": {
            "asm": "304402205863adab093e7ad4d0c8cefeed5d336937f1c1e5cb32eeae2bce5f3b414f58ce0220102dd557205467f636778125833e31868e73f0209c802acf099d85253a39dfb7[ALL] 0299ce77a842d34d44c6c1c1cc4cf52442b7e8da6b43f4d921b7f10f17fe4a614b",
            "hex": "47304402205863adab093e7ad4d0c8cefeed5d336937f1c1e5cb32eeae2bce5f3b414f58ce0220102dd557205467f636778125833e31868e73f0209c802acf099d85253a39dfb701210299ce77a842d34d44c6c1c1cc4cf52442b7e8da6b43f4d921b7f10f17fe4a614b"
          },
          "sequence": 4294967294
        }
      ],
      "vout": [
        {
          "value": 17.39311934,
          "n": 0,
          "scriptPubKey": {
            "asm": "OP_DUP OP_HASH160 0926385e77e699f9b7443fd28ccc356482cf5820 OP_EQUALVERIFY OP_CHECKSIG",
            "hex": "76a9140926385e77e699f9b7443fd28ccc356482cf582088ac",
            "reqSigs": 1,
            "type": "pubkeyhash",
            "addresses": [
              "LL4L8XQAvVRx1Yc6VjeiUidYGQCPe4SQoW"
            ]
          }
        }, 
        {
          "value": 16.55523105,
          "n": 1,
          "scriptPubKey": {
            "asm": "OP_DUP OP_HASH160 99ffb7a534f5d62688c29487985ceeabfcbb58ad OP_EQUALVERIFY OP_CHECKSIG",
            "hex": "76a91499ffb7a534f5d62688c29487985ceeabfcbb58ad88ac",
            "reqSigs": 1,
            "type": "pubkeyhash",
            "addresses": [
              "LZGDz7jzp9Utz6BVpW17wxeNfs6DASg5St"
            ]
          }
        }
      ],
      "hex": "02000000010ad830130673cc27d689cdb89a016b19b2f95a4b6dec7cc2d7aefc5e49d086a7010000006a47304402205863adab093e7ad4d0c8cefeed5d336937f1c1e5cb32eeae2bce5f3b414f58ce0220102dd557205467f636778125833e31868e73f0209c802acf099d85253a39dfb701210299ce77a842d34d44c6c1c1cc4cf52442b7e8da6b43f4d921b7f10f17fe4a614bfeffffff023ecbab67000000001976a9140926385e77e699f9b7443fd28ccc356482cf582088ac2147ad62000000001976a91499ffb7a534f5d62688c29487985ceeabfcbb58ad88ac1ac11400"
    }, 
    {
      "txid": "5f02e9e394209307be1fee55449ab1f97fa4b742df10d63e61c0ae247ddb8af0",
      "hash": "5f02e9e394209307be1fee55449ab1f97fa4b742df10d63e61c0ae247ddb8af0",
      "version": 1,
      "size": 373,
      "vsize": 373,
      "locktime": 0,
      "vin": [
        {
          "txid": "0008330b15814a4e12828f370744a7d4f04e2cdc053d03983d5dc460165e519d",
          "vout": 0,
          "scriptSig": {
            "asm": "304402200a08628c6c6364e024742182c0b225f55190e2f4d9a338a7032dbc5bd3ab11cb02200cb9d7e387ad69f7c526e119266b6756cc2f03aa26fb5d636d168ace2e517216[ALL] 039762aeac7f2dfa57183ab23600f5107f0cc2007a223bbea994de8e876041974f",
            "hex": "47304402200a08628c6c6364e024742182c0b225f55190e2f4d9a338a7032dbc5bd3ab11cb02200cb9d7e387ad69f7c526e119266b6756cc2f03aa26fb5d636d168ace2e5172160121039762aeac7f2dfa57183ab23600f5107f0cc2007a223bbea994de8e876041974f"
          },
          "sequence": 4294967295
        }, 
        {
          "txid": "238d436f581c281b32ef35e9f7949b43b1337f81575c5260b8d14fde22085e9b",
          "vout": 0,
          "scriptSig": {
            "asm": "3045022100c1060e6b1dd437bbbec91204a245e6028661b25cd4878a4664846daba72b26da022057585573aff43285715f49d7f7b1576226524aa6d8ab561600f221880c3bf086[ALL] 039762aeac7f2dfa57183ab23600f5107f0cc2007a223bbea994de8e876041974f",
            "hex": "483045022100c1060e6b1dd437bbbec91204a245e6028661b25cd4878a4664846daba72b26da022057585573aff43285715f49d7f7b1576226524aa6d8ab561600f221880c3bf0860121039762aeac7f2dfa57183ab23600f5107f0cc2007a223bbea994de8e876041974f"
          },
          "sequence": 4294967295
        }
      ],
      "vout": [
        {
          "value": 5.02751211,
          "n": 0,
          "scriptPubKey": {
            "asm": "OP_DUP OP_HASH160 8054d8d8dd6bce91125bcfe8bbb473f54afcdc60 OP_EQUALVERIFY OP_CHECKSIG",
            "hex": "76a9148054d8d8dd6bce91125bcfe8bbb473f54afcdc6088ac",
            "reqSigs": 1,
            "type": "pubkeyhash",
            "addresses": [
              "LWvWQ3XMoipFsAqE1EZPQFUovLea7DC1ef"
            ]
          }
        }, 
        {
          "value": 0.18356258,
          "n": 1,
          "scriptPubKey": {
            "asm": "OP_DUP OP_HASH160 e4ba05ca72d48f1290bc3c2476fa8e6a0fb22d43 OP_EQUALVERIFY OP_CHECKSIG",
            "hex": "76a914e4ba05ca72d48f1290bc3c2476fa8e6a0fb22d4388ac",
            "reqSigs": 1,
            "type": "pubkeyhash",
            "addresses": [
              "Lg5MB2cUdr5WdUTYBYSiHP9HREWhM6hyuj"
            ]
          }
        }
      ],
      "hex": "01000000029d515e1660c45d3d98033d05dc2c4ef0d4a74407378f82124e4a81150b330800000000006a47304402200a08628c6c6364e024742182c0b225f55190e2f4d9a338a7032dbc5bd3ab11cb02200cb9d7e387ad69f7c526e119266b6756cc2f03aa26fb5d636d168ace2e5172160121039762aeac7f2dfa57183ab23600f5107f0cc2007a223bbea994de8e876041974fffffffff9b5e0822de4fd1b860525c57817f33b1439b94f7e935ef321b281c586f438d23000000006b483045022100c1060e6b1dd437bbbec91204a245e6028661b25cd4878a4664846daba72b26da022057585573aff43285715f49d7f7b1576226524aa6d8ab561600f221880c3bf0860121039762aeac7f2dfa57183ab23600f5107f0cc2007a223bbea994de8e876041974fffffffff02eb5ff71d000000001976a9148054d8d8dd6bce91125bcfe8bbb473f54afcdc6088ac22181801000000001976a914e4ba05ca72d48f1290bc3c2476fa8e6a0fb22d4388ac00000000"
    }, 
    {
      "txid": "133750d01efedd5b1a3b8daaaea85aae9bdeededb122f5a1d1c1e1ecc278cada",
      "hash": "133750d01efedd5b1a3b8daaaea85aae9bdeededb122f5a1d1c1e1ecc278cada",
      "version": 1,
      "size": 225,
      "vsize": 225,
      "locktime": 0,
      "vin": [
        {
          "txid": "81483309559b5f8d48bde9d15c38cf48792eb444b57e80655030323a18a5bebc",
          "vout": 9,
          "scriptSig": {
            "asm": "3044022010f848bac287c1803dcac38c2b1acb4fcbef5e9196302453df8eb3f314b8da0602203c3a796704e533a882d07f344c783337531383850f551b8a09d2026eb2664b79[ALL] 03eb346a4141a337cb5ff41f0bad19ab6c1fc6e30afe609d13fadf06fed3f56d10",
            "hex": "473044022010f848bac287c1803dcac38c2b1acb4fcbef5e9196302453df8eb3f314b8da0602203c3a796704e533a882d07f344c783337531383850f551b8a09d2026eb2664b79012103eb346a4141a337cb5ff41f0bad19ab6c1fc6e30afe609d13fadf06fed3f56d10"
          },
          "sequence": 4294967295
        }
      ],
      "vout": [
        {
          "value": 2.00000000,
          "n": 0,
          "scriptPubKey": {
            "asm": "OP_DUP OP_HASH160 9b59611922aecf850b1f1e49c89bee5775d026b3 OP_EQUALVERIFY OP_CHECKSIG",
            "hex": "76a9149b59611922aecf850b1f1e49c89bee5775d026b388ac",
            "reqSigs": 1,
            "type": "pubkeyhash",
            "addresses": [
              "LZPN58R3g9zSFKiBSx7QPiUgdkx37vrFfD"
            ]
          }
        }, 
        {
          "value": 3.19955900,
          "n": 1,
          "scriptPubKey": {
            "asm": "OP_DUP OP_HASH160 eaa2f48cec5af2f97c3b28c65efffea9aa7875fa OP_EQUALVERIFY OP_CHECKSIG",
            "hex": "76a914eaa2f48cec5af2f97c3b28c65efffea9aa7875fa88ac",
            "reqSigs": 1,
            "type": "pubkeyhash",
            "addresses": [
              "LgcbbS2hASxXMkyFD2ZwmqxApzyvEwm1fz"
            ]
          }
        }
      ],
      "hex": "0100000001bcbea5183a32305065807eb544b42e7948cf385cd1e9bd488d5f9b5509334881090000006a473044022010f848bac287c1803dcac38c2b1acb4fcbef5e9196302453df8eb3f314b8da0602203c3a796704e533a882d07f344c783337531383850f551b8a09d2026eb2664b79012103eb346a4141a337cb5ff41f0bad19ab6c1fc6e30afe609d13fadf06fed3f56d10ffffffff0200c2eb0b000000001976a9149b59611922aecf850b1f1e49c89bee5775d026b388acbc231213000000001976a914eaa2f48cec5af2f97c3b28c65efffea9aa7875fa88ac00000000"
    }
  ],
  "time": 1517383064,
  "mediantime": 1517382316,
  "nonce": 4166331062,
  "bits": "1a042eae",
  "difficulty": 4011378.762614286,
  "chainwork": "000000000000000000000000000000000000000000000034aceedd78532ec2ba",
  "previousblockhash": "e4f822070c190a30c91059ccab62204b9fdd3b6c0f2495c64af84e744ad980c7",
  "nextblockhash": "d8d0aa3ff8d67b0d60dc8329b075fc815ea83df6bb2752976abe915ee8f06b4e"
}
