{
  "hash": "d779e80f0976dbd9395d2306532be750a88b1eed1fb5d02c6fc22ed2d0f54e6f",
  "confirmations": 1974,
  "strippedsize": 313,
  "size": 349,
  "weight": 1288,
  "height": 1359020,
  "version": 536870912,
  "versionHex": "20000000",
  "merkleroot": "927a31fd405722f69d8d73a3965172d689e20dad14cd596704f617a28b81bed3",
  "tx": [
    {
      "txid": "927a31fd405722f69d8d73a3965172d689e20dad14cd596704f617a28b81bed3",
      "hash": "4038b5e5967c834585b756eec1029bb5ece2df0aa10d0f8c94f825f307b8183f",
      "version": 1,
      "size": 268,
      "vsize": 241,
      "locktime": 0,
      "vin": [
        {
          "coinbase": "03acbc14182dfd4709268f89c31bb46a7d522a0153e3c4c6a641cd98ec95984661d194dcb5a55a94e401000000000000000043000000e1f29f00e80290c92f425443432f2000000000000000000000000000000000000000000000000000000000000000",
          "sequence": 0
        }
      ],
      "vout": [
        {
          "value": 25.00000000,
          "n": 0,
          "scriptPubKey": {
            "asm": "OP_DUP OP_HASH160 088b3b2a325c12f47e60b87f7bdd7f280e144e03 OP_EQUALVERIFY OP_CHECKSIG",
            "hex": "76a914088b3b2a325c12f47e60b87f7bdd7f280e144e0388ac",
            "reqSigs": 1,
            "type": "pubkeyhash",
            "addresses": [
              "LL18ThG68KnAnBk6yaoJWgEU7UqLg7eMw3"
            ]
          }
        }, 
        {
          "value": 0.00000000,
          "n": 1,
          "scriptPubKey": {
            "asm": "OP_RETURN aa21a9ede2f61c3f71d1defd3fa999dfa36953755c690689799962b48bebd836974e8cf9",
            "hex": "6a24aa21a9ede2f61c3f71d1defd3fa999dfa36953755c690689799962b48bebd836974e8cf9",
            "type": "nulldata"
          }
        }
      ],
      "hex": "010000000001010000000000000000000000000000000000000000000000000000000000000000ffffffff6403acbc14182dfd4709268f89c31bb46a7d522a0153e3c4c6a641cd98ec95984661d194dcb5a55a94e401000000000000000043000000e1f29f00e80290c92f425443432f2000000000000000000000000000000000000000000000000000000000000000000000000200f90295000000001976a914088b3b2a325c12f47e60b87f7bdd7f280e144e0388ac0000000000000000266a24aa21a9ede2f61c3f71d1defd3fa999dfa36953755c690689799962b48bebd836974e8cf90120000000000000000000000000000000000000000000000000000000000000000000000000"
    }
  ],
  "time": 1517225108,
  "mediantime": 1517224233,
  "nonce": 267172288,
  "bits": "1a042eae",
  "difficulty": 4011378.762614286,
  "chainwork": "0000000000000000000000000000000000000000000000339d50a097c1de91da",
  "previousblockhash": "bcc7fa0e08b8e1f3e2cdb414e4185fa05d75ef92062c24a21f11b1734d51365d",
  "nextblockhash": "b08bb7454e55d166a213e427751eb201b8a64b48141dafa71761755945ce5fbd"
}
