{
  "hash": "d7825cd8e4269723e57816e8902ec9c76323df0c8a37fa4bdf930e69a540f08a",
  "confirmations": 2835,
  "strippedsize": 6103,
  "size": 6139,
  "weight": 24448,
  "height": 1358160,
  "version": 536870912,
  "versionHex": "20000000",
  "merkleroot": "40b013e183edf7116c781215b7f41e2675c1833d768f76b43e334c0066b8c95f",
  "tx": [
    {
      "txid": "005d9472777c0b599f196ecab13863852cbc3bea183cf3bdbc53f9dcbac9775a",
      "hash": "6efde5e008aa01c997367ebb48cf5c65837ad310835c5d2b405a1a87b47a1205",
      "version": 1,
      "size": 244,
      "vsize": 217,
      "locktime": 0,
      "vin": [
        {
          "coinbase": "0350b91404a0176d5a0804c4fe0c16000000fabe6d6d8d575f39385172b62e9dc245e0d55cbc0f322654d642aae64f83fdc85f085d1240000000000000000d2f6e6f64655374726174756d2f",
          "sequence": 0
        }
      ],
      "vout": [
        {
          "value": 25.02300300,
          "n": 0,
          "scriptPubKey": {
            "asm": "OP_DUP OP_HASH160 0c617fdb2ea42aed30a509595ee21ba3f6688db0 OP_EQUALVERIFY OP_CHECKSIG",
            "hex": "76a9140c617fdb2ea42aed30a509595ee21ba3f6688db088ac",
            "reqSigs": 1,
            "type": "pubkeyhash",
            "addresses": [
              "LLMRAtr3qBje2ySEa3CnZ55LA4TQMWnRY3"
            ]
          }
        }, 
        {
          "value": 0.00000000,
          "n": 1,
          "scriptPubKey": {
            "asm": "OP_RETURN aa21a9ed0ad403181e68c12398e7c2d2657004cd6b48e653b4177f8c4a7ed3c4d81658a8",
            "hex": "6a24aa21a9ed0ad403181e68c12398e7c2d2657004cd6b48e653b4177f8c4a7ed3c4d81658a8",
            "type": "nulldata"
          }
        }
      ],
      "hex": "010000000001010000000000000000000000000000000000000000000000000000000000000000ffffffff4c0350b91404a0176d5a0804c4fe0c16000000fabe6d6d8d575f39385172b62e9dc245e0d55cbc0f322654d642aae64f83fdc85f085d1240000000000000000d2f6e6f64655374726174756d2f00000000028c122695000000001976a9140c617fdb2ea42aed30a509595ee21ba3f6688db088ac0000000000000000266a24aa21a9ed0ad403181e68c12398e7c2d2657004cd6b48e653b4177f8c4a7ed3c4d81658a80120000000000000000000000000000000000000000000000000000000000000000000000000"
    }, 
    {
      "txid": "2c6e29711485adfcba942ccc5610639a8c49135dfa5faeb6ae6c5d88934e2e7c",
      "hash": "2c6e29711485adfcba942ccc5610639a8c49135dfa5faeb6ae6c5d88934e2e7c",
      "version": 1,
      "size": 373,
      "vsize": 373,
      "locktime": 1358158,
      "vin": [
        {
          "txid": "91a4ffc5ac5ed5cc7dc8540c48e71017cd15f6ba6d7b84fa54c8c6a077df0935",
          "vout": 0,
          "scriptSig": {
            "asm": "3045022100b96deaa4934d7dac5adaf56c5932940c5dda2a33c848ccb5c6ad4aad15f9b98e02202268c13f23be071b91ab79e008778128479c446f03b0f8370b0b3fdb594a3f5f[ALL] 0268cd8bb2479b8ad65e5cc923ca8066c5a5de5621972daac53c103743e2ab3eb2",
            "hex": "483045022100b96deaa4934d7dac5adaf56c5932940c5dda2a33c848ccb5c6ad4aad15f9b98e02202268c13f23be071b91ab79e008778128479c446f03b0f8370b0b3fdb594a3f5f01210268cd8bb2479b8ad65e5cc923ca8066c5a5de5621972daac53c103743e2ab3eb2"
          },
          "sequence": 4294967294
        }, 
        {
          "txid": "843553084a1ce4be264007f71889aa5d082ea9ecf362cc068fe70ae8873bb57c",
          "vout": 0,
          "scriptSig": {
            "asm": "304402205f338fc38b977f87d05b92d4ad598e88ae78e6c60dfd89db2bba09c84c5daabd0220539cf204395632a2c4cf8d77048ad81cfac4635781feb027c725e8b05639220a[ALL] 0398ba8ba43b3f08f0b5e6c1f0d57ecfbc732002914965e2663d4e479b2aed9a9f",
            "hex": "47304402205f338fc38b977f87d05b92d4ad598e88ae78e6c60dfd89db2bba09c84c5daabd0220539cf204395632a2c4cf8d77048ad81cfac4635781feb027c725e8b05639220a01210398ba8ba43b3f08f0b5e6c1f0d57ecfbc732002914965e2663d4e479b2aed9a9f"
          },
          "sequence": 4294967294
        }
      ],
      "vout": [
        {
          "value": 0.65398339,
          "n": 0,
          "scriptPubKey": {
            "asm": "OP_DUP OP_HASH160 aa0689ad820232a687e70f5c9cd47292b528faf0 OP_EQUALVERIFY OP_CHECKSIG",
            "hex": "76a914aa0689ad820232a687e70f5c9cd47292b528faf088ac",
            "reqSigs": 1,
            "type": "pubkeyhash",
            "addresses": [
              "Laixy5XBWjyrmNhXywvgzVMgZjArZmEge2"
            ]
          }
        }, 
        {
          "value": 0.09183964,
          "n": 1,
          "scriptPubKey": {
            "asm": "OP_DUP OP_HASH160 605cfdde733886c4dddc99d6610ed81209b25008 OP_EQUALVERIFY OP_CHECKSIG",
            "hex": "76a914605cfdde733886c4dddc99d6610ed81209b2500888ac",
            "reqSigs": 1,
            "type": "pubkeyhash",
            "addresses": [
              "LU1UXoZeLahdeE3VkCA5w7iUK3e17bgQjG"
            ]
          }
        }
      ],
      "hex": "01000000023509df77a0c6c854fa847b6dbaf615cd1710e7480c54c87dccd55eacc5ffa491000000006b483045022100b96deaa4934d7dac5adaf56c5932940c5dda2a33c848ccb5c6ad4aad15f9b98e02202268c13f23be071b91ab79e008778128479c446f03b0f8370b0b3fdb594a3f5f01210268cd8bb2479b8ad65e5cc923ca8066c5a5de5621972daac53c103743e2ab3eb2feffffff7cb53b87e80ae78f06cc62f3eca92e085daa8918f7074026bee41c4a08533584000000006a47304402205f338fc38b977f87d05b92d4ad598e88ae78e6c60dfd89db2bba09c84c5daabd0220539cf204395632a2c4cf8d77048ad81cfac4635781feb027c725e8b05639220a01210398ba8ba43b3f08f0b5e6c1f0d57ecfbc732002914965e2663d4e479b2aed9a9ffeffffff0243e6e503000000001976a914aa0689ad820232a687e70f5c9cd47292b528faf088acdc228c00000000001976a914605cfdde733886c4dddc99d6610ed81209b2500888ac4eb91400"
    }, 
    {
      "txid": "84c5fea750d710371d85c1c36bfe610a740cfcb2762cd61d110c1d07d44a217c",
      "hash": "84c5fea750d710371d85c1c36bfe610a740cfcb2762cd61d110c1d07d44a217c",
      "version": 1,
      "size": 226,
      "vsize": 226,
      "locktime": 0,
      "vin": [
        {
          "txid": "e56b368ebe70a81758649474098c3e8bceee9117d29350aae317aed3cee2649c",
          "vout": 0,
          "scriptSig": {
            "asm": "3045022100dcfb300401ad1f437a425b75c2bb9e377b9c2753d31c96be594ccbab2e10d4e8022070b861746ba7c7dad96667e3f5798820a39b88103d715c8e64a59d502fb3485e[ALL] 0296b9ee2b23a372ac80b161b3f01665fbe99e7fa7266d8d74ee561acca6d15060",
            "hex": "483045022100dcfb300401ad1f437a425b75c2bb9e377b9c2753d31c96be594ccbab2e10d4e8022070b861746ba7c7dad96667e3f5798820a39b88103d715c8e64a59d502fb3485e01210296b9ee2b23a372ac80b161b3f01665fbe99e7fa7266d8d74ee561acca6d15060"
          },
          "sequence": 4294967295
        }
      ],
      "vout": [
        {
          "value": 0.09775225,
          "n": 0,
          "scriptPubKey": {
            "asm": "OP_DUP OP_HASH160 2f16cbec1b027756b4c36ad9bd21a02213c00788 OP_EQUALVERIFY OP_CHECKSIG",
            "hex": "76a9142f16cbec1b027756b4c36ad9bd21a02213c0078888ac",
            "reqSigs": 1,
            "type": "pubkeyhash",
            "addresses": [
              "LPWwLAPDmMMoR634qH95LgkcEq8V6cVvwd"
            ]
          }
        }, 
        {
          "value": 2.81019881,
          "n": 1,
          "scriptPubKey": {
            "asm": "OP_DUP OP_HASH160 e5ef78758ba3c47fffffd1455504e7faced55cb1 OP_EQUALVERIFY OP_CHECKSIG",
            "hex": "76a914e5ef78758ba3c47fffffd1455504e7faced55cb188ac",
            "reqSigs": 1,
            "type": "pubkeyhash",
            "addresses": [
              "LgBjsr6PHHGFbx9evGKLwHRr6p4oJyk9T9"
            ]
          }
        }
      ],
      "hex": "01000000019c64e2ced3ae17e3aa5093d21791eece8b3e8c097494645817a870be8e366be5000000006b483045022100dcfb300401ad1f437a425b75c2bb9e377b9c2753d31c96be594ccbab2e10d4e8022070b861746ba7c7dad96667e3f5798820a39b88103d715c8e64a59d502fb3485e01210296b9ee2b23a372ac80b161b3f01665fbe99e7fa7266d8d74ee561acca6d15060ffffffff0279289500000000001976a9142f16cbec1b027756b4c36ad9bd21a02213c0078888ace905c010000000001976a914e5ef78758ba3c47fffffd1455504e7faced55cb188ac00000000"
    }, 
    {
      "txid": "852785dbaf4cc0f42fc7c25c47d0a09c60215b0789e3f977aa69d25faf02fffa",
      "hash": "852785dbaf4cc0f42fc7c25c47d0a09c60215b0789e3f977aa69d25faf02fffa",
      "version": 1,
      "size": 334,
      "vsize": 334,
      "locktime": 0,
      "vin": [
        {
          "txid": "715ceb5110bde03783a00abf5cf09c122c06ef92ac35c72d3615265bd529d785",
          "vout": 1,
          "scriptSig": {
            "asm": "0 30440220166c4d3d6ef1294602c1cd0a0ff4ad9302426b0776a3e50259b53b5f52651aeb022074c10c9ccbe2e046a7572f9f90b9c502363467890c8466789a5672d3d2b1e072[ALL] 304402201febc5ca98dc1ec4fab6aafb236dcaf835a1949415a9b70261a43eaebb1f1f9a0220535792f00f20919934d8a4da07239e60dfea0665627397d5c7e9eaea61ec3f6f[ALL] 522102f77ec37a042ba4e5e6aef7760398bf59b87ac4c5dee30a2fb8798e9630d4916e210276b93401dc495b28592f66411a7c9093b468f8678db51144fc6a36f550d94aa952ae",
            "hex": "004730440220166c4d3d6ef1294602c1cd0a0ff4ad9302426b0776a3e50259b53b5f52651aeb022074c10c9ccbe2e046a7572f9f90b9c502363467890c8466789a5672d3d2b1e0720147304402201febc5ca98dc1ec4fab6aafb236dcaf835a1949415a9b70261a43eaebb1f1f9a0220535792f00f20919934d8a4da07239e60dfea0665627397d5c7e9eaea61ec3f6f0147522102f77ec37a042ba4e5e6aef7760398bf59b87ac4c5dee30a2fb8798e9630d4916e210276b93401dc495b28592f66411a7c9093b468f8678db51144fc6a36f550d94aa952ae"
          },
          "sequence": 4294967295
        }
      ],
      "vout": [
        {
          "value": 0.03134600,
          "n": 0,
          "scriptPubKey": {
            "asm": "OP_DUP OP_HASH160 0b6baf824aafd5858ea2568434aebc56428a6606 OP_EQUALVERIFY OP_CHECKSIG",
            "hex": "76a9140b6baf824aafd5858ea2568434aebc56428a660688ac",
            "reqSigs": 1,
            "type": "pubkeyhash",
            "addresses": [
              "LLGLhSyA8MCW8RLphLy5Lzu9LpiXp7ZeVP"
            ]
          }
        }, 
        {
          "value": 15.45857900,
          "n": 1,
          "scriptPubKey": {
            "asm": "OP_HASH160 75b77316f8d91ff71fb2819115d1b6b9e80ccee9 OP_EQUAL",
            "hex": "a91475b77316f8d91ff71fb2819115d1b6b9e80ccee987",
            "reqSigs": 1,
            "type": "scripthash",
            "addresses": [
              "MJdb4B3BMDrfpB1FpKsPYQ1tDHdkNa1oLB"
            ]
          }
        }
      ],
      "hex": "010000000185d729d55b2615362dc735ac92ef062c129cf05cbf0aa08337e0bd1051eb5c7101000000d9004730440220166c4d3d6ef1294602c1cd0a0ff4ad9302426b0776a3e50259b53b5f52651aeb022074c10c9ccbe2e046a7572f9f90b9c502363467890c8466789a5672d3d2b1e0720147304402201febc5ca98dc1ec4fab6aafb236dcaf835a1949415a9b70261a43eaebb1f1f9a0220535792f00f20919934d8a4da07239e60dfea0665627397d5c7e9eaea61ec3f6f0147522102f77ec37a042ba4e5e6aef7760398bf59b87ac4c5dee30a2fb8798e9630d4916e210276b93401dc495b28592f66411a7c9093b468f8678db51144fc6a36f550d94aa952aeffffffff0288d42f00000000001976a9140b6baf824aafd5858ea2568434aebc56428a660688ac6ceb235c0000000017a91475b77316f8d91ff71fb2819115d1b6b9e80ccee98700000000"
    }, 
    {
      "txid": "80fd73fb5b59fd9082ee34e7bde604bda3da32cf8c69d8e34e87dba9904197fc",
      "hash": "80fd73fb5b59fd9082ee34e7bde604bda3da32cf8c69d8e34e87dba9904197fc",
      "version": 1,
      "size": 335,
      "vsize": 335,
      "locktime": 0,
      "vin": [
        {
          "txid": "6f3aa0b907195e8e7d375953d8c91ea535433ca3ade94289fffb12ed6a8d3075",
          "vout": 1,
          "scriptSig": {
            "asm": "0 304502210092728cc36fa1338cab9b5c4a8df52b0d11bf9e27675f78f3adc651dce11bc4700220481befcf59b29bd9d96400c8ef3ae9763993ea23b7fb04c9a99c713105c72a2b[ALL] 304402201333a1f056fc536677bb27e3b5da6b681ce0a5721b81942143badea3efde52ca02205a90be07b889b62a9a1de242656c39f0204855e3ac9aa0521e6e75b875d2c573[ALL] 522102f77ec37a042ba4e5e6aef7760398bf59b87ac4c5dee30a2fb8798e9630d4916e210276b93401dc495b28592f66411a7c9093b468f8678db51144fc6a36f550d94aa952ae",
            "hex": "0048304502210092728cc36fa1338cab9b5c4a8df52b0d11bf9e27675f78f3adc651dce11bc4700220481befcf59b29bd9d96400c8ef3ae9763993ea23b7fb04c9a99c713105c72a2b0147304402201333a1f056fc536677bb27e3b5da6b681ce0a5721b81942143badea3efde52ca02205a90be07b889b62a9a1de242656c39f0204855e3ac9aa0521e6e75b875d2c5730147522102f77ec37a042ba4e5e6aef7760398bf59b87ac4c5dee30a2fb8798e9630d4916e210276b93401dc495b28592f66411a7c9093b468f8678db51144fc6a36f550d94aa952ae"
          },
          "sequence": 4294967295
        }
      ],
      "vout": [
        {
          "value": 0.06269200,
          "n": 0,
          "scriptPubKey": {
            "asm": "OP_DUP OP_HASH160 0c97462fb6cb39b90a79b81a0fba1399f8142101 OP_EQUALVERIFY OP_CHECKSIG",
            "hex": "76a9140c97462fb6cb39b90a79b81a0fba1399f814210188ac",
            "reqSigs": 1,
            "type": "pubkeyhash",
            "addresses": [
              "LLNXbEC9AeMMuvsxFQnqyW4Bp66zQwvPaD"
            ]
          }
        }, 
        {
          "value": 35.29516000,
          "n": 1,
          "scriptPubKey": {
            "asm": "OP_HASH160 75b77316f8d91ff71fb2819115d1b6b9e80ccee9 OP_EQUAL",
            "hex": "a91475b77316f8d91ff71fb2819115d1b6b9e80ccee987",
            "reqSigs": 1,
            "type": "scripthash",
            "addresses": [
              "MJdb4B3BMDrfpB1FpKsPYQ1tDHdkNa1oLB"
            ]
          }
        }
      ],
      "hex": "010000000175308d6aed12fbff8942e9ada33c4335a51ec9d85359377d8e5e1907b9a03a6f01000000da0048304502210092728cc36fa1338cab9b5c4a8df52b0d11bf9e27675f78f3adc651dce11bc4700220481befcf59b29bd9d96400c8ef3ae9763993ea23b7fb04c9a99c713105c72a2b0147304402201333a1f056fc536677bb27e3b5da6b681ce0a5721b81942143badea3efde52ca02205a90be07b889b62a9a1de242656c39f0204855e3ac9aa0521e6e75b875d2c5730147522102f77ec37a042ba4e5e6aef7760398bf59b87ac4c5dee30a2fb8798e9630d4916e210276b93401dc495b28592f66411a7c9093b468f8678db51144fc6a36f550d94aa952aeffffffff0210a95f00000000001976a9140c97462fb6cb39b90a79b81a0fba1399f814210188ace02360d20000000017a91475b77316f8d91ff71fb2819115d1b6b9e80ccee98700000000"
    }, 
    {
      "txid": "9abc761d30fba1c0271f49fc1e62b931f2e72b2a70c7c8e9f5dd6e41bcced88c",
      "hash": "9abc761d30fba1c0271f49fc1e62b931f2e72b2a70c7c8e9f5dd6e41bcced88c",
      "version": 1,
      "size": 334,
      "vsize": 334,
      "locktime": 0,
      "vin": [
        {
          "txid": "80fd73fb5b59fd9082ee34e7bde604bda3da32cf8c69d8e34e87dba9904197fc",
          "vout": 1,
          "scriptSig": {
            "asm": "0 3044022048907466370f5bcc2064fb026defd2ab86ecd3a3a7223b37911885f99f6388c502202c795f7e130c68a97256a869286ba86356605435ab8b0a8bfb80319f6ebd4b15[ALL] 3044022032c1ec4930bf04be1dd4357d756ef9838ce887a2e80708b3eb03a030e83d93b9022029e7b12a0e307ee31d242ff7523d1830d2c0caafa8d0ae8465380f6495695d1c[ALL] 522102f77ec37a042ba4e5e6aef7760398bf59b87ac4c5dee30a2fb8798e9630d4916e210276b93401dc495b28592f66411a7c9093b468f8678db51144fc6a36f550d94aa952ae",
            "hex": "00473044022048907466370f5bcc2064fb026defd2ab86ecd3a3a7223b37911885f99f6388c502202c795f7e130c68a97256a869286ba86356605435ab8b0a8bfb80319f6ebd4b1501473044022032c1ec4930bf04be1dd4357d756ef9838ce887a2e80708b3eb03a030e83d93b9022029e7b12a0e307ee31d242ff7523d1830d2c0caafa8d0ae8465380f6495695d1c0147522102f77ec37a042ba4e5e6aef7760398bf59b87ac4c5dee30a2fb8798e9630d4916e210276b93401dc495b28592f66411a7c9093b468f8678db51144fc6a36f550d94aa952ae"
          },
          "sequence": 4294967295
        }
      ],
      "vout": [
        {
          "value": 0.16120900,
          "n": 0,
          "scriptPubKey": {
            "asm": "OP_DUP OP_HASH160 c61d871893258d785111182e071d96a0b84259d0 OP_EQUALVERIFY OP_CHECKSIG",
            "hex": "76a914c61d871893258d785111182e071d96a0b84259d088ac",
            "reqSigs": 1,
            "type": "pubkeyhash",
            "addresses": [
              "LdHVRpMeuK2s8RfKrX4J222BD8nY7te64z"
            ]
          }
        }, 
        {
          "value": 35.13187500,
          "n": 1,
          "scriptPubKey": {
            "asm": "OP_HASH160 75b77316f8d91ff71fb2819115d1b6b9e80ccee9 OP_EQUAL",
            "hex": "a91475b77316f8d91ff71fb2819115d1b6b9e80ccee987",
            "reqSigs": 1,
            "type": "scripthash",
            "addresses": [
              "MJdb4B3BMDrfpB1FpKsPYQ1tDHdkNa1oLB"
            ]
          }
        }
      ],
      "hex": "0100000001fc974190a9db874ee3d8698ccf32daa3bd04e6bde734ee8290fd595bfb73fd8001000000d900473044022048907466370f5bcc2064fb026defd2ab86ecd3a3a7223b37911885f99f6388c502202c795f7e130c68a97256a869286ba86356605435ab8b0a8bfb80319f6ebd4b1501473044022032c1ec4930bf04be1dd4357d756ef9838ce887a2e80708b3eb03a030e83d93b9022029e7b12a0e307ee31d242ff7523d1830d2c0caafa8d0ae8465380f6495695d1c0147522102f77ec37a042ba4e5e6aef7760398bf59b87ac4c5dee30a2fb8798e9630d4916e210276b93401dc495b28592f66411a7c9093b468f8678db51144fc6a36f550d94aa952aeffffffff0244fcf500000000001976a914c61d871893258d785111182e071d96a0b84259d088acacfc66d10000000017a91475b77316f8d91ff71fb2819115d1b6b9e80ccee98700000000"
    }, 
    {
      "txid": "1efe09215cc520b0c753969330f75f0f703cda4053d8bb36816528e22338cbd8",
      "hash": "1efe09215cc520b0c753969330f75f0f703cda4053d8bb36816528e22338cbd8",
      "version": 1,
      "size": 225,
      "vsize": 225,
      "locktime": 1358158,
      "vin": [
        {
          "txid": "9b54a3af29d162d5746c4eb2adb206f059cf5ba58240eb9ed92f47fd03b8228a",
          "vout": 1,
          "scriptSig": {
            "asm": "3044022005bf7734565b4cfd08f507526c0b301d27154468280fb4f882d35482617e86ab0220600bc76fd88abfeb96d4d40040fcac5a630450d276ce171fcfbd6c385f81995e[ALL] 0239146536e5df70ebbd2f1ba7c35633286a90dddc9c5fb58641e45eb4c4ca9a42",
            "hex": "473044022005bf7734565b4cfd08f507526c0b301d27154468280fb4f882d35482617e86ab0220600bc76fd88abfeb96d4d40040fcac5a630450d276ce171fcfbd6c385f81995e01210239146536e5df70ebbd2f1ba7c35633286a90dddc9c5fb58641e45eb4c4ca9a42"
          },
          "sequence": 4294967294
        }
      ],
      "vout": [
        {
          "value": 0.08933486,
          "n": 0,
          "scriptPubKey": {
            "asm": "OP_DUP OP_HASH160 b0d9be37d35730c4f608c4250f5b9050a057ac4f OP_EQUALVERIFY OP_CHECKSIG",
            "hex": "76a914b0d9be37d35730c4f608c4250f5b9050a057ac4f88ac",
            "reqSigs": 1,
            "type": "pubkeyhash",
            "addresses": [
              "LbM432WJm8sYo8gmwtzohAZgURmr9qpXXB"
            ]
          }
        }, 
        {
          "value": 2.72078386,
          "n": 1,
          "scriptPubKey": {
            "asm": "OP_DUP OP_HASH160 3de32eb57efd230c1ee54a57cb94a2e28543007d OP_EQUALVERIFY OP_CHECKSIG",
            "hex": "76a9143de32eb57efd230c1ee54a57cb94a2e28543007d88ac",
            "reqSigs": 1,
            "type": "pubkeyhash",
            "addresses": [
              "LQsBdq1LXrBiatEF7zBPnWMgXidA6hDArp"
            ]
          }
        }
      ],
      "hex": "01000000018a22b803fd472fd99eeb4082a55bcf59f006b2adb24e6c74d562d129afa3549b010000006a473044022005bf7734565b4cfd08f507526c0b301d27154468280fb4f882d35482617e86ab0220600bc76fd88abfeb96d4d40040fcac5a630450d276ce171fcfbd6c385f81995e01210239146536e5df70ebbd2f1ba7c35633286a90dddc9c5fb58641e45eb4c4ca9a42feffffff026e508800000000001976a914b0d9be37d35730c4f608c4250f5b9050a057ac4f88ac32963710000000001976a9143de32eb57efd230c1ee54a57cb94a2e28543007d88ac4eb91400"
    }, 
    {
      "txid": "6059a4f7564eeb738a6b8a8bfcc36eb26b119575692b1c8fc4be824271dc2430",
      "hash": "6059a4f7564eeb738a6b8a8bfcc36eb26b119575692b1c8fc4be824271dc2430",
      "version": 1,
      "size": 2877,
      "vsize": 2877,
      "locktime": 0,
      "vin": [
        {
          "txid": "0d83dfa1ae9a5132fb4396a0225ba7c5233042e3008eaf24af481284d8db6ea1",
          "vout": 1528,
          "scriptSig": {
            "asm": "304402202f7c3510844d1f7c97c69764206a9fc1bc93fa9cb54c9b22c59cf13cb13c2434022025495c80e3f3f4c15f2f0af447b1e327074fbe9f31646f70d99a442452dc3956[ALL] 03b84a935902523eae78266884f2f24c933cc953ef3f15de0127e817548523a6fd",
            "hex": "47304402202f7c3510844d1f7c97c69764206a9fc1bc93fa9cb54c9b22c59cf13cb13c2434022025495c80e3f3f4c15f2f0af447b1e327074fbe9f31646f70d99a442452dc3956012103b84a935902523eae78266884f2f24c933cc953ef3f15de0127e817548523a6fd"
          },
          "sequence": 4294967295
        }, 
        {
          "txid": "0d83dfa1ae9a5132fb4396a0225ba7c5233042e3008eaf24af481284d8db6ea1",
          "vout": 310,
          "scriptSig": {
            "asm": "3045022100ce8b894c41775f2adad6c7c8ec0f6cfc108171bfcc9f968778352ae4347fda5b022036f60bae200e10c887a8264749710309b92ce0a71646f1e19774e52a8ac0fad9[ALL] 0340f39837c557495ac471970b4a28f2316e663bccca24d56c8fbdf5a170d069af",
            "hex": "483045022100ce8b894c41775f2adad6c7c8ec0f6cfc108171bfcc9f968778352ae4347fda5b022036f60bae200e10c887a8264749710309b92ce0a71646f1e19774e52a8ac0fad901210340f39837c557495ac471970b4a28f2316e663bccca24d56c8fbdf5a170d069af"
          },
          "sequence": 4294967295
        }, 
        {
          "txid": "0d83dfa1ae9a5132fb4396a0225ba7c5233042e3008eaf24af481284d8db6ea1",
          "vout": 1896,
          "scriptSig": {
            "asm": "3045022100d2179c906bb12a50c94051f24de338cc31e37c3ddb23a8a5d212aaedaa3a8fb102201e54f42081c8fb0a393689d8f0c081ea528f5f00451f87f8574fa29ab8290153[ALL] 02aabc6ca34ec27637dd4c3ab0c1851d369b6f85d87d27369f8566b487104a2372",
            "hex": "483045022100d2179c906bb12a50c94051f24de338cc31e37c3ddb23a8a5d212aaedaa3a8fb102201e54f42081c8fb0a393689d8f0c081ea528f5f00451f87f8574fa29ab8290153012102aabc6ca34ec27637dd4c3ab0c1851d369b6f85d87d27369f8566b487104a2372"
          },
          "sequence": 4294967295
        }, 
        {
          "txid": "a5655408392b2c96014c2d8bbb509dc06216cc79f09260ef2338d6e1058ab93a",
          "vout": 28,
          "scriptSig": {
            "asm": "304402202220fad63b6a87b51fc598e11a2f40f8e7fb72c57ea75c8f0646c373d16034720220104550d450829119236ce717ecfe8ac68c6b44b61d2e6baa4be429401867c0ce[ALL] 03988f54633fd6e9a21db7a90d296e09dbd88dd3753e47109176b64b3d5d20a1ea",
            "hex": "47304402202220fad63b6a87b51fc598e11a2f40f8e7fb72c57ea75c8f0646c373d16034720220104550d450829119236ce717ecfe8ac68c6b44b61d2e6baa4be429401867c0ce012103988f54633fd6e9a21db7a90d296e09dbd88dd3753e47109176b64b3d5d20a1ea"
          },
          "sequence": 4294967295
        }, 
        {
          "txid": "0d83dfa1ae9a5132fb4396a0225ba7c5233042e3008eaf24af481284d8db6ea1",
          "vout": 1182,
          "scriptSig": {
            "asm": "3045022100b091c3bc8fab71652d187025b9482b38ae57d8040a0f45c3b72e00198a744fb50220269463b262a4fd009122443fd5cd95efa1a909a446820a5499f9a67039f25ca8[ALL] 0292f01f2e50f4ec16c81476982389e8e969a184c3914cc3e39368df0001645a29",
            "hex": "483045022100b091c3bc8fab71652d187025b9482b38ae57d8040a0f45c3b72e00198a744fb50220269463b262a4fd009122443fd5cd95efa1a909a446820a5499f9a67039f25ca801210292f01f2e50f4ec16c81476982389e8e969a184c3914cc3e39368df0001645a29"
          },
          "sequence": 4294967295
        }, 
        {
          "txid": "0d83dfa1ae9a5132fb4396a0225ba7c5233042e3008eaf24af481284d8db6ea1",
          "vout": 1960,
          "scriptSig": {
            "asm": "304402200927901e6850af722a563baa369e4c7dacf2938f61636a3543e6e0c65e5d27ae02200ddcb81ab02dc24b88a6bf489dde976d0e68e11017573fcec6752033b32f5e05[ALL] 03171259cfd6e91503bc54b7cfd51cf7daba9c25f79645288f75a30eca61edeb80",
            "hex": "47304402200927901e6850af722a563baa369e4c7dacf2938f61636a3543e6e0c65e5d27ae02200ddcb81ab02dc24b88a6bf489dde976d0e68e11017573fcec6752033b32f5e05012103171259cfd6e91503bc54b7cfd51cf7daba9c25f79645288f75a30eca61edeb80"
          },
          "sequence": 4294967295
        }, 
        {
          "txid": "5d8ce08289a0133739134c5e486138fed98c8622480212a75c86d2f6be8b354e",
          "vout": 0,
          "scriptSig": {
            "asm": "3044022012ef59ef7d246f1350869ebbfd666bdda163281c3de0f948d201774699830ad6022020c1cda92783c112f67eb79e62cc616b12e88aadb43c1a174c18e178f1429353[ALL] 02b6fb893b614894697acaeeeab66636d24c654c98c6061064eff1a7585c8c5e1c",
            "hex": "473044022012ef59ef7d246f1350869ebbfd666bdda163281c3de0f948d201774699830ad6022020c1cda92783c112f67eb79e62cc616b12e88aadb43c1a174c18e178f1429353012102b6fb893b614894697acaeeeab66636d24c654c98c6061064eff1a7585c8c5e1c"
          },
          "sequence": 4294967295
        }, 
        {
          "txid": "0d83dfa1ae9a5132fb4396a0225ba7c5233042e3008eaf24af481284d8db6ea1",
          "vout": 214,
          "scriptSig": {
            "asm": "304402206a14a12e9c86996967ef26bb937371d28e3d341251d4d82892d052431cdbbe4702206e124e27e727aa9b8eb08da891d628b9057037339b26c17e784e8de3a71bea3c[ALL] 036fc286a7e283f653ef2bbec5e6702bf171c76acb7c4f4175774d9a89410f9055",
            "hex": "47304402206a14a12e9c86996967ef26bb937371d28e3d341251d4d82892d052431cdbbe4702206e124e27e727aa9b8eb08da891d628b9057037339b26c17e784e8de3a71bea3c0121036fc286a7e283f653ef2bbec5e6702bf171c76acb7c4f4175774d9a89410f9055"
          },
          "sequence": 4294967295
        }, 
        {
          "txid": "0d83dfa1ae9a5132fb4396a0225ba7c5233042e3008eaf24af481284d8db6ea1",
          "vout": 2079,
          "scriptSig": {
            "asm": "304402200bb84d968caff8b53c0804a3c64ef757e739099d10b81ea3d89ebc20f73356260220727b26a2d3fd7bf16808239768663fe06d5d1c78cf8bfb27da468950f8200599[ALL] 0335e3ecb14285219fd025a9d658471cd2b27dffdca3c7a4ffd0ffb3b4d8b6a5c2",
            "hex": "47304402200bb84d968caff8b53c0804a3c64ef757e739099d10b81ea3d89ebc20f73356260220727b26a2d3fd7bf16808239768663fe06d5d1c78cf8bfb27da468950f820059901210335e3ecb14285219fd025a9d658471cd2b27dffdca3c7a4ffd0ffb3b4d8b6a5c2"
          },
          "sequence": 4294967295
        }, 
        {
          "txid": "c3fcc84a8df1cf5eacb38768a4e7136aee2f4d6f71c21d94404c2a59a10ff67c",
          "vout": 382,
          "scriptSig": {
            "asm": "3044022033ad29d84fec4912e25ff0f1dd06d833f77257c528a7015fc57685b2fbeaaec90220330ed82144b8d5794018f7301bdeb7afc0abcc81257d528770943bdec29df286[ALL] 0315b58ce42dbf6f2bfd208bcf014d19fd68916b035cc7673ceeabc737525cfef7",
            "hex": "473044022033ad29d84fec4912e25ff0f1dd06d833f77257c528a7015fc57685b2fbeaaec90220330ed82144b8d5794018f7301bdeb7afc0abcc81257d528770943bdec29df28601210315b58ce42dbf6f2bfd208bcf014d19fd68916b035cc7673ceeabc737525cfef7"
          },
          "sequence": 4294967295
        }, 
        {
          "txid": "0d83dfa1ae9a5132fb4396a0225ba7c5233042e3008eaf24af481284d8db6ea1",
          "vout": 1352,
          "scriptSig": {
            "asm": "3045022100a913df981159c748202dff6a573b4d5109c5d243ccb71c6a60741aedda74412102206cdab565689f65cd4460a16edabcc1f088fb31c22211a9cd74975b86ecd63e31[ALL] 031a79b5e3b3c56cc6247cbb006d23ef5e74f3668e2a5e0e685f6bc6e283c031bd",
            "hex": "483045022100a913df981159c748202dff6a573b4d5109c5d243ccb71c6a60741aedda74412102206cdab565689f65cd4460a16edabcc1f088fb31c22211a9cd74975b86ecd63e310121031a79b5e3b3c56cc6247cbb006d23ef5e74f3668e2a5e0e685f6bc6e283c031bd"
          },
          "sequence": 4294967295
        }, 
        {
          "txid": "7a7bdf9df3499a1f7a14abd3071d83666a9546eddb315309243a3e642d4fd869",
          "vout": 0,
          "scriptSig": {
            "asm": "3045022100905bc38a303996af769bc9111a79170513460776d27c8ea646988191baeaeeca02207c5dd1862662e59a678dfc533a4fc11b2b485af8b547e6b58934a93b2db002b9[ALL] 029cfa8594c3fd4d4d8e5a666e6253ad3a0994a205ea6d61517fb78a10dcd96138",
            "hex": "483045022100905bc38a303996af769bc9111a79170513460776d27c8ea646988191baeaeeca02207c5dd1862662e59a678dfc533a4fc11b2b485af8b547e6b58934a93b2db002b90121029cfa8594c3fd4d4d8e5a666e6253ad3a0994a205ea6d61517fb78a10dcd96138"
          },
          "sequence": 4294967295
        }, 
        {
          "txid": "0d83dfa1ae9a5132fb4396a0225ba7c5233042e3008eaf24af481284d8db6ea1",
          "vout": 1074,
          "scriptSig": {
            "asm": "30450221008a322ed11bed883e16555aa8618e3148b1e25aaae99fb082bb2a1c6071b5e948022045045c1d660161f027eca81daf94e80abe051f0d47880a9bdd7643c97c790bbe[ALL] 038406f1dfe5cc27e823bba1f0b62b37eae787903fd3fab6befd474f97c8055955",
            "hex": "4830450221008a322ed11bed883e16555aa8618e3148b1e25aaae99fb082bb2a1c6071b5e948022045045c1d660161f027eca81daf94e80abe051f0d47880a9bdd7643c97c790bbe0121038406f1dfe5cc27e823bba1f0b62b37eae787903fd3fab6befd474f97c8055955"
          },
          "sequence": 4294967295
        }, 
        {
          "txid": "0d83dfa1ae9a5132fb4396a0225ba7c5233042e3008eaf24af481284d8db6ea1",
          "vout": 1225,
          "scriptSig": {
            "asm": "3044022079e620f53b2e4b759076d83fb4e115646d6ef7a9404f6cee3cc73d140d6dff5f022075c4a013c2729f54cd9af7d3e16f5e4dd63e5867eb9f1915068f72756ff306b5[ALL] 038d7dd797413a18dad579446ef47e2ef3cdd3ec3e411fc61ca22940a536492acb",
            "hex": "473044022079e620f53b2e4b759076d83fb4e115646d6ef7a9404f6cee3cc73d140d6dff5f022075c4a013c2729f54cd9af7d3e16f5e4dd63e5867eb9f1915068f72756ff306b50121038d7dd797413a18dad579446ef47e2ef3cdd3ec3e411fc61ca22940a536492acb"
          },
          "sequence": 4294967295
        }, 
        {
          "txid": "8f3b5fbc7c33b8edbacf7136f527f1d3ad5e0b16123fb3f11a758ff77b7cc0db",
          "vout": 0,
          "scriptSig": {
            "asm": "30450221008096fb72bd5e545d9c2770db8069ab475c19440a6df20eb191328880528b8c9a02205d1e9f5a1e52eb8952ba58028b7d9ab5fef4dcf34d6ec368749778b48bbc679f[ALL] 0352bd17ea2fa87b6c497672891eac8ea47bc807564e62e7a10f4f7cf994e8f594",
            "hex": "4830450221008096fb72bd5e545d9c2770db8069ab475c19440a6df20eb191328880528b8c9a02205d1e9f5a1e52eb8952ba58028b7d9ab5fef4dcf34d6ec368749778b48bbc679f01210352bd17ea2fa87b6c497672891eac8ea47bc807564e62e7a10f4f7cf994e8f594"
          },
          "sequence": 4294967295
        }, 
        {
          "txid": "0d83dfa1ae9a5132fb4396a0225ba7c5233042e3008eaf24af481284d8db6ea1",
          "vout": 344,
          "scriptSig": {
            "asm": "30440220210a2996121f4290d1ca9af7d37261782b2068475f8b579bd09df3cb3cb12dcf0220255e0ea737d8e7b4834c6789ec35296a4cd866afe36af0f91fc25347e132eacc[ALL] 0286054148ac8314c3db09bda1319f5312bdfb7be67049f50e80bdf892bed15a71",
            "hex": "4730440220210a2996121f4290d1ca9af7d37261782b2068475f8b579bd09df3cb3cb12dcf0220255e0ea737d8e7b4834c6789ec35296a4cd866afe36af0f91fc25347e132eacc01210286054148ac8314c3db09bda1319f5312bdfb7be67049f50e80bdf892bed15a71"
          },
          "sequence": 4294967295
        }, 
        {
          "txid": "0d83dfa1ae9a5132fb4396a0225ba7c5233042e3008eaf24af481284d8db6ea1",
          "vout": 200,
          "scriptSig": {
            "asm": "3045022100cf5a937ee96ca32c9c7007fafbf1ac55325f4c039416b5e892b575f54b603673022071edb041ce336fb3989e8f1c6fbb0e7cd6a24576db10881a44ff383c41402f4d[ALL] 0314da5926c9494d92e92c2dda9f69dd48afe3853dc17f06b10f4853d1c1237cd0",
            "hex": "483045022100cf5a937ee96ca32c9c7007fafbf1ac55325f4c039416b5e892b575f54b603673022071edb041ce336fb3989e8f1c6fbb0e7cd6a24576db10881a44ff383c41402f4d01210314da5926c9494d92e92c2dda9f69dd48afe3853dc17f06b10f4853d1c1237cd0"
          },
          "sequence": 4294967295
        }, 
        {
          "txid": "0d83dfa1ae9a5132fb4396a0225ba7c5233042e3008eaf24af481284d8db6ea1",
          "vout": 368,
          "scriptSig": {
            "asm": "3044022050affbabb44d2f708984bf87bdd44771b7b710794fe39de4ae80a9d810360b58022001108be71c9dc59acec03d36b298d655334d3bcc56787ad08f334869452c9d69[ALL] 037758b361adbf7479516670e76f62867153a2b882f9a8c2628710db02fbd4a961",
            "hex": "473044022050affbabb44d2f708984bf87bdd44771b7b710794fe39de4ae80a9d810360b58022001108be71c9dc59acec03d36b298d655334d3bcc56787ad08f334869452c9d690121037758b361adbf7479516670e76f62867153a2b882f9a8c2628710db02fbd4a961"
          },
          "sequence": 4294967295
        }, 
        {
          "txid": "0d83dfa1ae9a5132fb4396a0225ba7c5233042e3008eaf24af481284d8db6ea1",
          "vout": 2315,
          "scriptSig": {
            "asm": "304402207f7a088c466b94c6a7901e34e29c6761a14194a2c2ca0bd909e89c71355d765602207d5aaeea28c9835a555cd9d8f46fa16317243fa47938f44e94749d0dc30c2be4[ALL] 038c1fd76954289ed58b5064804eed876c3651fce3bef0bbd5778ab9dbf50f5db3",
            "hex": "47304402207f7a088c466b94c6a7901e34e29c6761a14194a2c2ca0bd909e89c71355d765602207d5aaeea28c9835a555cd9d8f46fa16317243fa47938f44e94749d0dc30c2be40121038c1fd76954289ed58b5064804eed876c3651fce3bef0bbd5778ab9dbf50f5db3"
          },
          "sequence": 4294967295
        }
      ],
      "vout": [
        {
          "value": 0.07449411,
          "n": 0,
          "scriptPubKey": {
            "asm": "OP_HASH160 6ed2b65f1eede7c0bca33d2927e4a7c4241520ce OP_EQUAL",
            "hex": "a9146ed2b65f1eede7c0bca33d2927e4a7c4241520ce87",
            "reqSigs": 1,
            "type": "scripthash",
            "addresses": [
              "MJ18z5t8se1kwdg1vE1k4dHptGMFMxeAP4"
            ]
          }
        }, 
        {
          "value": 0.00347267,
          "n": 1,
          "scriptPubKey": {
            "asm": "OP_DUP OP_HASH160 aa86127bcb50b203e05a301ddc467570dce137b8 OP_EQUALVERIFY OP_CHECKSIG",
            "hex": "76a914aa86127bcb50b203e05a301ddc467570dce137b888ac",
            "reqSigs": 1,
            "type": "pubkeyhash",
            "addresses": [
              "LambkKkNGQyRCT5JjxCCAo3EG8AeSNjnS2"
            ]
          }
        }
      ],
      "hex": "0100000013a16edbd8841248af24af8e00e3423023c5a75b22a09643fb32519aaea1df830df80500006a47304402202f7c3510844d1f7c97c69764206a9fc1bc93fa9cb54c9b22c59cf13cb13c2434022025495c80e3f3f4c15f2f0af447b1e327074fbe9f31646f70d99a442452dc3956012103b84a935902523eae78266884f2f24c933cc953ef3f15de0127e817548523a6fdffffffffa16edbd8841248af24af8e00e3423023c5a75b22a09643fb32519aaea1df830d360100006b483045022100ce8b894c41775f2adad6c7c8ec0f6cfc108171bfcc9f968778352ae4347fda5b022036f60bae200e10c887a8264749710309b92ce0a71646f1e19774e52a8ac0fad901210340f39837c557495ac471970b4a28f2316e663bccca24d56c8fbdf5a170d069afffffffffa16edbd8841248af24af8e00e3423023c5a75b22a09643fb32519aaea1df830d680700006b483045022100d2179c906bb12a50c94051f24de338cc31e37c3ddb23a8a5d212aaedaa3a8fb102201e54f42081c8fb0a393689d8f0c081ea528f5f00451f87f8574fa29ab8290153012102aabc6ca34ec27637dd4c3ab0c1851d369b6f85d87d27369f8566b487104a2372ffffffff3ab98a05e1d63823ef6092f079cc1662c09d50bb8b2d4c01962c2b39085465a51c0000006a47304402202220fad63b6a87b51fc598e11a2f40f8e7fb72c57ea75c8f0646c373d16034720220104550d450829119236ce717ecfe8ac68c6b44b61d2e6baa4be429401867c0ce012103988f54633fd6e9a21db7a90d296e09dbd88dd3753e47109176b64b3d5d20a1eaffffffffa16edbd8841248af24af8e00e3423023c5a75b22a09643fb32519aaea1df830d9e0400006b483045022100b091c3bc8fab71652d187025b9482b38ae57d8040a0f45c3b72e00198a744fb50220269463b262a4fd009122443fd5cd95efa1a909a446820a5499f9a67039f25ca801210292f01f2e50f4ec16c81476982389e8e969a184c3914cc3e39368df0001645a29ffffffffa16edbd8841248af24af8e00e3423023c5a75b22a09643fb32519aaea1df830da80700006a47304402200927901e6850af722a563baa369e4c7dacf2938f61636a3543e6e0c65e5d27ae02200ddcb81ab02dc24b88a6bf489dde976d0e68e11017573fcec6752033b32f5e05012103171259cfd6e91503bc54b7cfd51cf7daba9c25f79645288f75a30eca61edeb80ffffffff4e358bbef6d2865ca712024822868cd9fe3861485e4c13393713a08982e08c5d000000006a473044022012ef59ef7d246f1350869ebbfd666bdda163281c3de0f948d201774699830ad6022020c1cda92783c112f67eb79e62cc616b12e88aadb43c1a174c18e178f1429353012102b6fb893b614894697acaeeeab66636d24c654c98c6061064eff1a7585c8c5e1cffffffffa16edbd8841248af24af8e00e3423023c5a75b22a09643fb32519aaea1df830dd60000006a47304402206a14a12e9c86996967ef26bb937371d28e3d341251d4d82892d052431cdbbe4702206e124e27e727aa9b8eb08da891d628b9057037339b26c17e784e8de3a71bea3c0121036fc286a7e283f653ef2bbec5e6702bf171c76acb7c4f4175774d9a89410f9055ffffffffa16edbd8841248af24af8e00e3423023c5a75b22a09643fb32519aaea1df830d1f0800006a47304402200bb84d968caff8b53c0804a3c64ef757e739099d10b81ea3d89ebc20f73356260220727b26a2d3fd7bf16808239768663fe06d5d1c78cf8bfb27da468950f820059901210335e3ecb14285219fd025a9d658471cd2b27dffdca3c7a4ffd0ffb3b4d8b6a5c2ffffffff7cf60fa1592a4c40941dc2716f4d2fee6a13e7a46887b3ac5ecff18d4ac8fcc37e0100006a473044022033ad29d84fec4912e25ff0f1dd06d833f77257c528a7015fc57685b2fbeaaec90220330ed82144b8d5794018f7301bdeb7afc0abcc81257d528770943bdec29df28601210315b58ce42dbf6f2bfd208bcf014d19fd68916b035cc7673ceeabc737525cfef7ffffffffa16edbd8841248af24af8e00e3423023c5a75b22a09643fb32519aaea1df830d480500006b483045022100a913df981159c748202dff6a573b4d5109c5d243ccb71c6a60741aedda74412102206cdab565689f65cd4460a16edabcc1f088fb31c22211a9cd74975b86ecd63e310121031a79b5e3b3c56cc6247cbb006d23ef5e74f3668e2a5e0e685f6bc6e283c031bdffffffff69d84f2d643e3a24095331dbed46956a66831d07d3ab147a1f9a49f39ddf7b7a000000006b483045022100905bc38a303996af769bc9111a79170513460776d27c8ea646988191baeaeeca02207c5dd1862662e59a678dfc533a4fc11b2b485af8b547e6b58934a93b2db002b90121029cfa8594c3fd4d4d8e5a666e6253ad3a0994a205ea6d61517fb78a10dcd96138ffffffffa16edbd8841248af24af8e00e3423023c5a75b22a09643fb32519aaea1df830d320400006b4830450221008a322ed11bed883e16555aa8618e3148b1e25aaae99fb082bb2a1c6071b5e948022045045c1d660161f027eca81daf94e80abe051f0d47880a9bdd7643c97c790bbe0121038406f1dfe5cc27e823bba1f0b62b37eae787903fd3fab6befd474f97c8055955ffffffffa16edbd8841248af24af8e00e3423023c5a75b22a09643fb32519aaea1df830dc90400006a473044022079e620f53b2e4b759076d83fb4e115646d6ef7a9404f6cee3cc73d140d6dff5f022075c4a013c2729f54cd9af7d3e16f5e4dd63e5867eb9f1915068f72756ff306b50121038d7dd797413a18dad579446ef47e2ef3cdd3ec3e411fc61ca22940a536492acbffffffffdbc07c7bf78f751af1b33f12160b5eadd3f127f53671cfbaedb8337cbc5f3b8f000000006b4830450221008096fb72bd5e545d9c2770db8069ab475c19440a6df20eb191328880528b8c9a02205d1e9f5a1e52eb8952ba58028b7d9ab5fef4dcf34d6ec368749778b48bbc679f01210352bd17ea2fa87b6c497672891eac8ea47bc807564e62e7a10f4f7cf994e8f594ffffffffa16edbd8841248af24af8e00e3423023c5a75b22a09643fb32519aaea1df830d580100006a4730440220210a2996121f4290d1ca9af7d37261782b2068475f8b579bd09df3cb3cb12dcf0220255e0ea737d8e7b4834c6789ec35296a4cd866afe36af0f91fc25347e132eacc01210286054148ac8314c3db09bda1319f5312bdfb7be67049f50e80bdf892bed15a71ffffffffa16edbd8841248af24af8e00e3423023c5a75b22a09643fb32519aaea1df830dc80000006b483045022100cf5a937ee96ca32c9c7007fafbf1ac55325f4c039416b5e892b575f54b603673022071edb041ce336fb3989e8f1c6fbb0e7cd6a24576db10881a44ff383c41402f4d01210314da5926c9494d92e92c2dda9f69dd48afe3853dc17f06b10f4853d1c1237cd0ffffffffa16edbd8841248af24af8e00e3423023c5a75b22a09643fb32519aaea1df830d700100006a473044022050affbabb44d2f708984bf87bdd44771b7b710794fe39de4ae80a9d810360b58022001108be71c9dc59acec03d36b298d655334d3bcc56787ad08f334869452c9d690121037758b361adbf7479516670e76f62867153a2b882f9a8c2628710db02fbd4a961ffffffffa16edbd8841248af24af8e00e3423023c5a75b22a09643fb32519aaea1df830d0b0900006a47304402207f7a088c466b94c6a7901e34e29c6761a14194a2c2ca0bd909e89c71355d765602207d5aaeea28c9835a555cd9d8f46fa16317243fa47938f44e94749d0dc30c2be40121038c1fd76954289ed58b5064804eed876c3651fce3bef0bbd5778ab9dbf50f5db3ffffffff0243ab71000000000017a9146ed2b65f1eede7c0bca33d2927e4a7c4241520ce87834c0500000000001976a914aa86127bcb50b203e05a301ddc467570dce137b888ac00000000"
    }, 
    {
      "txid": "b2958f44e3aa06d7d587cc0d4f957875c1b77c03e76f8211df4e164cd4a5496e",
      "hash": "b2958f44e3aa06d7d587cc0d4f957875c1b77c03e76f8211df4e164cd4a5496e",
      "version": 1,
      "size": 1110,
      "vsize": 1110,
      "locktime": 0,
      "vin": [
        {
          "txid": "0d83dfa1ae9a5132fb4396a0225ba7c5233042e3008eaf24af481284d8db6ea1",
          "vout": 1573,
          "scriptSig": {
            "asm": "3045022100ea862154ed0a075e58a03d588e2e49c16fbfe7f357e5ae67b92d5176965f284f022071ab8d3da7fd1d6d21774a97c7979e9805b3425a69b046eca7f56a3c786ef99d[ALL] 0345a50cfe0596b49d447aa772f0b27afb997f903a877601bb029bdebeff70e44c",
            "hex": "483045022100ea862154ed0a075e58a03d588e2e49c16fbfe7f357e5ae67b92d5176965f284f022071ab8d3da7fd1d6d21774a97c7979e9805b3425a69b046eca7f56a3c786ef99d01210345a50cfe0596b49d447aa772f0b27afb997f903a877601bb029bdebeff70e44c"
          },
          "sequence": 4294967295
        }, 
        {
          "txid": "0d83dfa1ae9a5132fb4396a0225ba7c5233042e3008eaf24af481284d8db6ea1",
          "vout": 28,
          "scriptSig": {
            "asm": "304402203b15c0a9d013ad9f56a18b2c89fea47ff58af9f34297903ddce4ef49d0bdfcf202205b9ec721c62a22a7031242b842b28cf2610988eaae2e8fef578e6a0c90ea3f5f[ALL] 02951c6601b97d6fd84b4cd75ff61df869505814712fe110dedff5b62d2c620879",
            "hex": "47304402203b15c0a9d013ad9f56a18b2c89fea47ff58af9f34297903ddce4ef49d0bdfcf202205b9ec721c62a22a7031242b842b28cf2610988eaae2e8fef578e6a0c90ea3f5f012102951c6601b97d6fd84b4cd75ff61df869505814712fe110dedff5b62d2c620879"
          },
          "sequence": 4294967295
        }, 
        {
          "txid": "951cf42e630f092ec313a9fa060489d199406cd70be9022ef8f7883992ba78cc",
          "vout": 1,
          "scriptSig": {
            "asm": "3045022100947fc4cea2de30a58bbdf9eb524acc65925e975d72e1af1c43552648ecb04a51022033c0c32f0da9e9724ec674ba0dd31b74455c012614cf93f9bba89bf02424b938[ALL] 02f4e4173a786610235f67672c9c4e4d4397487ff8b1a30c03c6af8d6662dfc0ac",
            "hex": "483045022100947fc4cea2de30a58bbdf9eb524acc65925e975d72e1af1c43552648ecb04a51022033c0c32f0da9e9724ec674ba0dd31b74455c012614cf93f9bba89bf02424b938012102f4e4173a786610235f67672c9c4e4d4397487ff8b1a30c03c6af8d6662dfc0ac"
          },
          "sequence": 4294967295
        }, 
        {
          "txid": "0d83dfa1ae9a5132fb4396a0225ba7c5233042e3008eaf24af481284d8db6ea1",
          "vout": 673,
          "scriptSig": {
            "asm": "304402202642bc7db0d72ce9a951b492e93ab99ea0b05613120b75871008450cc3795e6f02202019892106d8deb9a915acd1d2d0a009df92686e051ff743ed1e2b9c503e6b3f[ALL] 020f774d7443a688b4eed1eb26a2560a24985f926f0666f5cf302978be9a470b97",
            "hex": "47304402202642bc7db0d72ce9a951b492e93ab99ea0b05613120b75871008450cc3795e6f02202019892106d8deb9a915acd1d2d0a009df92686e051ff743ed1e2b9c503e6b3f0121020f774d7443a688b4eed1eb26a2560a24985f926f0666f5cf302978be9a470b97"
          },
          "sequence": 4294967295
        }, 
        {
          "txid": "ed99c73d4a8d622602f2ce7f19fe556c79dbb274f5751c3cebdbe01699e530e9",
          "vout": 1,
          "scriptSig": {
            "asm": "30440220434720c49bb34c2bbb6249ea166f8501e399be58b54682a2c75849b8a78a0b62022072f260f75de8523390c53b6978b783cd2dbc059f4c505a246cb46214d82a0c0e[ALL] 03bd0ee5515297fe3e87d092efc27558e551f7ad459b7a25b82cfe78af52024e84",
            "hex": "4730440220434720c49bb34c2bbb6249ea166f8501e399be58b54682a2c75849b8a78a0b62022072f260f75de8523390c53b6978b783cd2dbc059f4c505a246cb46214d82a0c0e012103bd0ee5515297fe3e87d092efc27558e551f7ad459b7a25b82cfe78af52024e84"
          },
          "sequence": 4294967295
        }, 
        {
          "txid": "ad003fc48f84754b48b3ab390c60f17063b6bd175ba9f9fd84769177d9da921d",
          "vout": 0,
          "scriptSig": {
            "asm": "304502210088e15bfd9ee0064037092849aaff2c58b9832203fd347989bff7e41ceb6f554202203a408958db4d16a65cbc2a52085986c25e82624a9ae95b3167690f144b8edbfd[ALL] 02adb5270e8db01f2c655b81701929c6d2a95e19e6b5ff2f45daa8707baac89fab",
            "hex": "48304502210088e15bfd9ee0064037092849aaff2c58b9832203fd347989bff7e41ceb6f554202203a408958db4d16a65cbc2a52085986c25e82624a9ae95b3167690f144b8edbfd012102adb5270e8db01f2c655b81701929c6d2a95e19e6b5ff2f45daa8707baac89fab"
          },
          "sequence": 4294967295
        }, 
        {
          "txid": "3f758c26f067541db923687bd9503121fe776182c96406e39ec10e79b7464851",
          "vout": 1,
          "scriptSig": {
            "asm": "304402202a26e009818068ab7889fca04ab903dbab41ec00a450dd1d62ec12031036f4a602203e1abe14019576990a5b3209baeb2a03d109fc833889aa60c52e5db34a331845[ALL] 024fa59923e8343f4d2d2ac843626e13eafa832d034d37c2d242a754003479969f",
            "hex": "47304402202a26e009818068ab7889fca04ab903dbab41ec00a450dd1d62ec12031036f4a602203e1abe14019576990a5b3209baeb2a03d109fc833889aa60c52e5db34a3318450121024fa59923e8343f4d2d2ac843626e13eafa832d034d37c2d242a754003479969f"
          },
          "sequence": 4294967295
        }
      ],
      "vout": [
        {
          "value": 0.00088055,
          "n": 0,
          "scriptPubKey": {
            "asm": "OP_DUP OP_HASH160 0d60d811aeee86852552bda470dcd7cabd28ae38 OP_EQUALVERIFY OP_CHECKSIG",
            "hex": "76a9140d60d811aeee86852552bda470dcd7cabd28ae3888ac",
            "reqSigs": 1,
            "type": "pubkeyhash",
            "addresses": [
              "LLSh4YhGj2fntv5aG8zFNEQ9qT63jyRnNp"
            ]
          }
        }, 
        {
          "value": 0.02779555,
          "n": 1,
          "scriptPubKey": {
            "asm": "OP_DUP OP_HASH160 fe48fe0804dbc65a38745f123b22c62dcdb7adde OP_EQUALVERIFY OP_CHECKSIG",
            "hex": "76a914fe48fe0804dbc65a38745f123b22c62dcdb7adde88ac",
            "reqSigs": 1,
            "type": "pubkeyhash",
            "addresses": [
              "LiQVLXqia3jHVp9QLid54pe4Nw8PsF9mUy"
            ]
          }
        }
      ],
      "hex": "0100000007a16edbd8841248af24af8e00e3423023c5a75b22a09643fb32519aaea1df830d250600006b483045022100ea862154ed0a075e58a03d588e2e49c16fbfe7f357e5ae67b92d5176965f284f022071ab8d3da7fd1d6d21774a97c7979e9805b3425a69b046eca7f56a3c786ef99d01210345a50cfe0596b49d447aa772f0b27afb997f903a877601bb029bdebeff70e44cffffffffa16edbd8841248af24af8e00e3423023c5a75b22a09643fb32519aaea1df830d1c0000006a47304402203b15c0a9d013ad9f56a18b2c89fea47ff58af9f34297903ddce4ef49d0bdfcf202205b9ec721c62a22a7031242b842b28cf2610988eaae2e8fef578e6a0c90ea3f5f012102951c6601b97d6fd84b4cd75ff61df869505814712fe110dedff5b62d2c620879ffffffffcc78ba923988f7f82e02e90bd76c4099d1890406faa913c32e090f632ef41c95010000006b483045022100947fc4cea2de30a58bbdf9eb524acc65925e975d72e1af1c43552648ecb04a51022033c0c32f0da9e9724ec674ba0dd31b74455c012614cf93f9bba89bf02424b938012102f4e4173a786610235f67672c9c4e4d4397487ff8b1a30c03c6af8d6662dfc0acffffffffa16edbd8841248af24af8e00e3423023c5a75b22a09643fb32519aaea1df830da10200006a47304402202642bc7db0d72ce9a951b492e93ab99ea0b05613120b75871008450cc3795e6f02202019892106d8deb9a915acd1d2d0a009df92686e051ff743ed1e2b9c503e6b3f0121020f774d7443a688b4eed1eb26a2560a24985f926f0666f5cf302978be9a470b97ffffffffe930e59916e0dbeb3c1c75f574b2db796c55fe197fcef20226628d4a3dc799ed010000006a4730440220434720c49bb34c2bbb6249ea166f8501e399be58b54682a2c75849b8a78a0b62022072f260f75de8523390c53b6978b783cd2dbc059f4c505a246cb46214d82a0c0e012103bd0ee5515297fe3e87d092efc27558e551f7ad459b7a25b82cfe78af52024e84ffffffff1d92dad977917684fdf9a95b17bdb66370f1600c39abb3484b75848fc43f00ad000000006b48304502210088e15bfd9ee0064037092849aaff2c58b9832203fd347989bff7e41ceb6f554202203a408958db4d16a65cbc2a52085986c25e82624a9ae95b3167690f144b8edbfd012102adb5270e8db01f2c655b81701929c6d2a95e19e6b5ff2f45daa8707baac89fabffffffff514846b7790ec19ee30664c9826177fe213150d97b6823b91d5467f0268c753f010000006a47304402202a26e009818068ab7889fca04ab903dbab41ec00a450dd1d62ec12031036f4a602203e1abe14019576990a5b3209baeb2a03d109fc833889aa60c52e5db34a3318450121024fa59923e8343f4d2d2ac843626e13eafa832d034d37c2d242a754003479969fffffffff02f7570100000000001976a9140d60d811aeee86852552bda470dcd7cabd28ae3888aca3692a00000000001976a914fe48fe0804dbc65a38745f123b22c62dcdb7adde88ac00000000"
    }
  ],
  "time": 1517098879,
  "mediantime": 1517097849,
  "nonce": 2811377846,
  "bits": "1a047f14",
  "difficulty": 3731199.183374282,
  "chainwork": "000000000000000000000000000000000000000000000032da17c31ce90ee13a",
  "previousblockhash": "cf22bf0dee6004f6a9de8bcee8caad40673560dff77c05885a620c436b1ef6b7",
  "nextblockhash": "b599cccd489d63d87101611ea83ca43312f099d11cec161029e2bee33602c397"
}
