{
  "hash": "d7a4942d7ebb0c582afbaf138f7b393c0fd909de683e0825a016785a0c6ae0d5",
  "confirmations": 47,
  "strippedsize": 255,
  "size": 255,
  "weight": 1020,
  "height": 1360947,
  "version": 536870912,
  "versionHex": "20000000",
  "merkleroot": "b6776be953e7efd46edceae08bfcb35f00a939a2c2f863b39509506883d85491",
  "tx": [
    {
      "txid": "b6776be953e7efd46edceae08bfcb35f00a939a2c2f863b39509506883d85491",
      "hash": "b6776be953e7efd46edceae08bfcb35f00a939a2c2f863b39509506883d85491",
      "version": 1,
      "size": 174,
      "vsize": 174,
      "locktime": 0,
      "vin": [
        {
          "coinbase": "0333c4141c4d696e656420627920416e74506f6f6c20626a3532205a73401c042ffabe6d6dbcdce696fb62f93a1397be634cdf4daa18de3561361d775b696492b47928ac7d0400000000000000f42a0000000000000d000000",
          "sequence": 4294967295
        }
      ],
      "vout": [
        {
          "value": 25.00000000,
          "n": 0,
          "scriptPubKey": {
            "asm": "OP_DUP OP_HASH160 0ff3ccc5e8be88afe24b5d634e5852d474dbdff1 OP_EQUALVERIFY OP_CHECKSIG",
            "hex": "76a9140ff3ccc5e8be88afe24b5d634e5852d474dbdff188ac",
            "reqSigs": 1,
            "type": "pubkeyhash",
            "addresses": [
              "LLgJTbzZMsRTCUF1NtvvL9SR1a4pVieW89"
            ]
          }
        }
      ],
      "hex": "01000000010000000000000000000000000000000000000000000000000000000000000000ffffffff590333c4141c4d696e656420627920416e74506f6f6c20626a3532205a73401c042ffabe6d6dbcdce696fb62f93a1397be634cdf4daa18de3561361d775b696492b47928ac7d0400000000000000f42a0000000000000d000000ffffffff0100f90295000000001976a9140ff3ccc5e8be88afe24b5d634e5852d474dbdff188ac00000000"
    }
  ],
  "time": 1517502492,
  "mediantime": 1517501908,
  "nonce": 1051826056,
  "bits": "1a04088e",
  "difficulty": 4159490.835685156,
  "chainwork": "0000000000000000000000000000000000000000000000356b5e3ccbbd5c2780",
  "previousblockhash": "d2fb397674675216cb3f57ede8b95f9de42899d18d6d1cdfa2b66663d1f23af1",
  "nextblockhash": "871c8c5754f1f0f6f857494a29e76fa498890ddc71974a7e5f67c265a9f775ae"
}
