{
  "hash": "d7bb1a5de1fd1b44e0b8d3b15ac8bbf3827d7b70b71be380aab7db0dd15650e7",
  "confirmations": 620,
  "strippedsize": 234,
  "size": 234,
  "weight": 936,
  "height": 1360374,
  "version": 536870912,
  "versionHex": "20000000",
  "merkleroot": "e172277eacd0b013f82f9f4dd86ed6dd594d72b694eec9eb8d03987f7db43479",
  "tx": [
    {
      "txid": "e172277eacd0b013f82f9f4dd86ed6dd594d72b694eec9eb8d03987f7db43479",
      "hash": "e172277eacd0b013f82f9f4dd86ed6dd594d72b694eec9eb8d03987f7db43479",
      "version": 1,
      "size": 153,
      "vsize": 153,
      "locktime": 0,
      "vin": [
        {
          "coinbase": "03f6c114045a71ff642cfabe6d6d31ab9a3c5cd8801d05583bf8d7d7276fc286f678ef75422db30d72b6a57f40fd4000000000000000042f4c502f085c0060af41340000",
          "sequence": 4294967295
        }
      ],
      "vout": [
        {
          "value": 25.00000000,
          "n": 0,
          "scriptPubKey": {
            "asm": "OP_DUP OP_HASH160 57757ed2ecf2052ff3126c397aca7defb9ca2cec OP_EQUALVERIFY OP_CHECKSIG",
            "hex": "76a91457757ed2ecf2052ff3126c397aca7defb9ca2cec88ac",
            "reqSigs": 1,
            "type": "pubkeyhash",
            "addresses": [
              "LTCPodGk5FwcJaRzH9yKnwicxzFUbxp6tN"
            ]
          }
        }
      ],
      "hex": "01000000010000000000000000000000000000000000000000000000000000000000000000ffffffff4403f6c114045a71ff642cfabe6d6d31ab9a3c5cd8801d05583bf8d7d7276fc286f678ef75422db30d72b6a57f40fd4000000000000000042f4c502f085c0060af41340000ffffffff0100f90295000000001976a91457757ed2ecf2052ff3126c397aca7defb9ca2cec88ac00000000"
    }
  ],
  "time": 1517420388,
  "mediantime": 1517419875,
  "nonce": 1720865714,
  "bits": "1a042eae",
  "difficulty": 4011378.762614286,
  "chainwork": "000000000000000000000000000000000000000000000034e10e95524b031b6e",
  "previousblockhash": "5385dafeff457ee33d0b81f455af781320c4041b54a483126808e09c994592ab",
  "nextblockhash": "a9fe97bb992ad39e4a4fe5f4d040e2e2cf8af7a7ef4dcef9ddce8beb8a03ff1d"
}
