{
  "hash": "d82c4e8060ac311031708d33eee72e350af45a4bb45b9006ca4b60c46b820978",
  "confirmations": 1492,
  "strippedsize": 1424,
  "size": 1460,
  "weight": 5732,
  "height": 1359502,
  "version": 536870912,
  "versionHex": "20000000",
  "merkleroot": "5ade58c6c602611dbb95c34587bffcb4af9410e8cce6e535dc03b7ec689df95c",
  "tx": [
    {
      "txid": "438d768b83c80bd278c566d1f977c136ab96ee24a2998eaf5c0806a0a766091a",
      "hash": "679a3925322457c6239dcf1e87710d870c5800d0c848dee79b574b46092c3c4d",
      "version": 1,
      "size": 251,
      "vsize": 224,
      "locktime": 0,
      "vin": [
        {
          "coinbase": "038ebe140000000000fabe6d6d2eab3107002289ae9620428dbd5b188d65621c8f42744752930b38018f622d900100000000000000048c09705a04938a373608140f2b580e0000000a42570a6657042f42572f",
          "sequence": 4294967295
        }
      ],
      "vout": [
        {
          "value": 25.00217108,
          "n": 0,
          "scriptPubKey": {
            "asm": "OP_DUP OP_HASH160 5373bc9425fd49e6bfe522d3dfc85432da2cc023 OP_EQUALVERIFY OP_CHECKSIG",
            "hex": "76a9145373bc9425fd49e6bfe522d3dfc85432da2cc02388ac",
            "reqSigs": 1,
            "type": "pubkeyhash",
            "addresses": [
              "LSqCzf5bPfkqGf94pJcfxWx5bZMPJE5XRf"
            ]
          }
        }, 
        {
          "value": 0.00000000,
          "n": 1,
          "scriptPubKey": {
            "asm": "OP_RETURN aa21a9ed595294e275374968b3b98df09f46f2003b6a16a81fe0aa4af6a702d8ba7f741e",
            "hex": "6a24aa21a9ed595294e275374968b3b98df09f46f2003b6a16a81fe0aa4af6a702d8ba7f741e",
            "type": "nulldata"
          }
        }
      ],
      "hex": "010000000001010000000000000000000000000000000000000000000000000000000000000000ffffffff53038ebe140000000000fabe6d6d2eab3107002289ae9620428dbd5b188d65621c8f42744752930b38018f622d900100000000000000048c09705a04938a373608140f2b580e0000000a42570a6657042f42572fffffffff0214490695000000001976a9145373bc9425fd49e6bfe522d3dfc85432da2cc02388ac0000000000000000266a24aa21a9ed595294e275374968b3b98df09f46f2003b6a16a81fe0aa4af6a702d8ba7f741e0120000000000000000000000000000000000000000000000000000000000000000000000000"
    }, 
    {
      "txid": "5e6654bc4b242de7af565cd0a073b418fe9ad74118bbc80e528581dfb0df9b75",
      "hash": "5e6654bc4b242de7af565cd0a073b418fe9ad74118bbc80e528581dfb0df9b75",
      "version": 1,
      "size": 226,
      "vsize": 226,
      "locktime": 0,
      "vin": [
        {
          "txid": "8981c9ae9867e2b0581e2a425eb9df1d2bfe148647f329d4622f4b613084791c",
          "vout": 1,
          "scriptSig": {
            "asm": "3045022100dc2609e706d2adfa616237f3283f5a29a1c91ea99e46e70f94b00cc6f583981502204cf02879ccf06e195b8ba569fd3f8d500cfdece2ecd60b80bd0890b944e2f9ac[ALL] 03371fa1523c43f0c68124d7d09943a5e2e3a98ae47271662537b47dd310a07819",
            "hex": "483045022100dc2609e706d2adfa616237f3283f5a29a1c91ea99e46e70f94b00cc6f583981502204cf02879ccf06e195b8ba569fd3f8d500cfdece2ecd60b80bd0890b944e2f9ac012103371fa1523c43f0c68124d7d09943a5e2e3a98ae47271662537b47dd310a07819"
          },
          "sequence": 4294967295
        }
      ],
      "vout": [
        {
          "value": 3.93050922,
          "n": 0,
          "scriptPubKey": {
            "asm": "OP_DUP OP_HASH160 76a84b60746bacf8a902ffd5698413e979ba9108 OP_EQUALVERIFY OP_CHECKSIG",
            "hex": "76a91476a84b60746bacf8a902ffd5698413e979ba910888ac",
            "reqSigs": 1,
            "type": "pubkeyhash",
            "addresses": [
              "LW3Mc9kffVhiva6VU9BdXug2rXVwm3DH17"
            ]
          }
        }, 
        {
          "value": 156.20362087,
          "n": 1,
          "scriptPubKey": {
            "asm": "OP_DUP OP_HASH160 b512923e3c067de5594c7addb1366c5a6c20fc31 OP_EQUALVERIFY OP_CHECKSIG",
            "hex": "76a914b512923e3c067de5594c7addb1366c5a6c20fc3188ac",
            "reqSigs": 1,
            "type": "pubkeyhash",
            "addresses": [
              "LbjNpHfsLgeXGuiGt72pCQXx12FVfChBmd"
            ]
          }
        }
      ],
      "hex": "01000000011c798430614b2f62d429f3478614fe2b1ddfb95e422a1e58b0e26798aec98189010000006b483045022100dc2609e706d2adfa616237f3283f5a29a1c91ea99e46e70f94b00cc6f583981502204cf02879ccf06e195b8ba569fd3f8d500cfdece2ecd60b80bd0890b944e2f9ac012103371fa1523c43f0c68124d7d09943a5e2e3a98ae47271662537b47dd310a07819ffffffff022a7b6d17000000001976a91476a84b60746bacf8a902ffd5698413e979ba910888ac67cf0ba3030000001976a914b512923e3c067de5594c7addb1366c5a6c20fc3188ac00000000"
    }, 
    {
      "txid": "405aed021a8337df01912ed9ea2a11e944cd78732f7868e0115fa045b006fdfc",
      "hash": "405aed021a8337df01912ed9ea2a11e944cd78732f7868e0115fa045b006fdfc",
      "version": 2,
      "size": 225,
      "vsize": 225,
      "locktime": 1359500,
      "vin": [
        {
          "txid": "947a4c5c0cd792154cec835b4a83c1a64e170a15b2b9987bff51416dc3df197c",
          "vout": 1,
          "scriptSig": {
            "asm": "304402201e0f46e9f373af6644ea8c103aab9854e5b0038c2e67fd2536b0f2f8d75af1ee02204e2e1d3e613c89fb706a8910dead713960c0df641b5af2d20b3825a700b789b1[ALL] 039c48664954d3c4a2d5ea7e75e225ae15bce45b04ef5cfedbf1207e61afd322f7",
            "hex": "47304402201e0f46e9f373af6644ea8c103aab9854e5b0038c2e67fd2536b0f2f8d75af1ee02204e2e1d3e613c89fb706a8910dead713960c0df641b5af2d20b3825a700b789b10121039c48664954d3c4a2d5ea7e75e225ae15bce45b04ef5cfedbf1207e61afd322f7"
          },
          "sequence": 4294967294
        }
      ],
      "vout": [
        {
          "value": 0.46169399,
          "n": 0,
          "scriptPubKey": {
            "asm": "OP_DUP OP_HASH160 bbfe3b23a5fa28ac40606a84acdd9b02511a4aa3 OP_EQUALVERIFY OP_CHECKSIG",
            "hex": "76a914bbfe3b23a5fa28ac40606a84acdd9b02511a4aa388ac",
            "reqSigs": 1,
            "type": "pubkeyhash",
            "addresses": [
              "LcMyBNAbs3oMAruwSRrEeutP2Xnk2FRtVR"
            ]
          }
        }, 
        {
          "value": 0.13603388,
          "n": 1,
          "scriptPubKey": {
            "asm": "OP_DUP OP_HASH160 c6bff2fc53426e4ba1e5d27f71ff4dcbc31e3779 OP_EQUALVERIFY OP_CHECKSIG",
            "hex": "76a914c6bff2fc53426e4ba1e5d27f71ff4dcbc31e377988ac",
            "reqSigs": 1,
            "type": "pubkeyhash",
            "addresses": [
              "LdLr14GEhBYj9yeo2wmx8LeaXpfCPySZTy"
            ]
          }
        }
      ],
      "hex": "02000000017c19dfc36d4151ff7b98b9b2150a174ea6c1834a5b83ec4c1592d70c5c4c7a94010000006a47304402201e0f46e9f373af6644ea8c103aab9854e5b0038c2e67fd2536b0f2f8d75af1ee02204e2e1d3e613c89fb706a8910dead713960c0df641b5af2d20b3825a700b789b10121039c48664954d3c4a2d5ea7e75e225ae15bce45b04ef5cfedbf1207e61afd322f7feffffff02377dc002000000001976a914bbfe3b23a5fa28ac40606a84acdd9b02511a4aa388ac3c92cf00000000001976a914c6bff2fc53426e4ba1e5d27f71ff4dcbc31e377988ac8cbe1400"
    }, 
    {
      "txid": "4b3cde9b85bb6a11e24daeb2edb9bc5d10e339e9dd5229558a3129046cd095cf",
      "hash": "4b3cde9b85bb6a11e24daeb2edb9bc5d10e339e9dd5229558a3129046cd095cf",
      "version": 1,
      "size": 225,
      "vsize": 225,
      "locktime": 0,
      "vin": [
        {
          "txid": "de049e79d62f85edf72d67d5f0414a9a5dd38a70c75e8f7c666f4a2ff0afb55e",
          "vout": 1,
          "scriptSig": {
            "asm": "3044022021ca12fab96b3d8365fb81715357968398390c12985390407b60d73ff73f2e92022037f9a316d694d494bb3f5288c2a78f2e94a4fbc1a0f57fa7d7fa75037729c00c[ALL] 03909385989ec71ccf949b71ef3f9bc93fdba402001dfd9ca6039eea39ad13e6a6",
            "hex": "473044022021ca12fab96b3d8365fb81715357968398390c12985390407b60d73ff73f2e92022037f9a316d694d494bb3f5288c2a78f2e94a4fbc1a0f57fa7d7fa75037729c00c012103909385989ec71ccf949b71ef3f9bc93fdba402001dfd9ca6039eea39ad13e6a6"
          },
          "sequence": 4294967295
        }
      ],
      "vout": [
        {
          "value": 2.64515988,
          "n": 0,
          "scriptPubKey": {
            "asm": "OP_DUP OP_HASH160 f2388de40c8fadd6179a0c3fa068850ba9783e43 OP_EQUALVERIFY OP_CHECKSIG",
            "hex": "76a914f2388de40c8fadd6179a0c3fa068850ba9783e4388ac",
            "reqSigs": 1,
            "type": "pubkeyhash",
            "addresses": [
              "LhJhY6TZ9PJDjdj6g4bhEG1UAcHR44xwdK"
            ]
          }
        }, 
        {
          "value": 11.11734214,
          "n": 1,
          "scriptPubKey": {
            "asm": "OP_DUP OP_HASH160 82a040898c071a0fd5631de590f064708b83e7a1 OP_EQUALVERIFY OP_CHECKSIG",
            "hex": "76a91482a040898c071a0fd5631de590f064708b83e7a188ac",
            "reqSigs": 1,
            "type": "pubkeyhash",
            "addresses": [
              "LX8e5fMCXNtdFwPk8KZTk6x3gG1B66wnso"
            ]
          }
        }
      ],
      "hex": "01000000015eb5aff02f4a6f667c8f5ec7708ad35d9a4a41f0d5672df7ed852fd6799e04de010000006a473044022021ca12fab96b3d8365fb81715357968398390c12985390407b60d73ff73f2e92022037f9a316d694d494bb3f5288c2a78f2e94a4fbc1a0f57fa7d7fa75037729c00c012103909385989ec71ccf949b71ef3f9bc93fdba402001dfd9ca6039eea39ad13e6a6ffffffff029431c40f000000001976a914f2388de40c8fadd6179a0c3fa068850ba9783e4388acc6b74342000000001976a91482a040898c071a0fd5631de590f064708b83e7a188ac00000000"
    }, 
    {
      "txid": "c061d116a158713a010f7af8cfdade6c1f92585cb90757c33faeb07430e8e376",
      "hash": "c061d116a158713a010f7af8cfdade6c1f92585cb90757c33faeb07430e8e376",
      "version": 1,
      "size": 226,
      "vsize": 226,
      "locktime": 0,
      "vin": [
        {
          "txid": "3234dd40c0aaa0cb33e0285d48c0f884faf4230c3d5f0fdffd138af2363e2cc7",
          "vout": 1,
          "scriptSig": {
            "asm": "304502210098cb897f487ca6203d3e054fc7932548d6f221609f474f0ba6086419604cb65002206fb2a44c4632c6d9f879e5e07a8829988b6afc21e9ff3aecdab9270d56cd631b[ALL] 02c3c31447640576a1831763087672868f1b4b9db4fe7ae4ebdfade7549b869d48",
            "hex": "48304502210098cb897f487ca6203d3e054fc7932548d6f221609f474f0ba6086419604cb65002206fb2a44c4632c6d9f879e5e07a8829988b6afc21e9ff3aecdab9270d56cd631b012102c3c31447640576a1831763087672868f1b4b9db4fe7ae4ebdfade7549b869d48"
          },
          "sequence": 4294967295
        }
      ],
      "vout": [
        {
          "value": 46.12600000,
          "n": 0,
          "scriptPubKey": {
            "asm": "OP_DUP OP_HASH160 7c16558ac8c3bc27ee9f7646256c6b0e81a59ee3 OP_EQUALVERIFY OP_CHECKSIG",
            "hex": "76a9147c16558ac8c3bc27ee9f7646256c6b0e81a59ee388ac",
            "reqSigs": 1,
            "type": "pubkeyhash",
            "addresses": [
              "LWY4ooaRxCE4uZK4VRE4uSrMR5Bk5N1xH8"
            ]
          }
        }, 
        {
          "value": 0.74959597,
          "n": 1,
          "scriptPubKey": {
            "asm": "OP_DUP OP_HASH160 212b56014ff65ec1fa82ac521f6b6e1b0c2ad9a6 OP_EQUALVERIFY OP_CHECKSIG",
            "hex": "76a914212b56014ff65ec1fa82ac521f6b6e1b0c2ad9a688ac",
            "reqSigs": 1,
            "type": "pubkeyhash",
            "addresses": [
              "LNFLUaWSMZ1eLtVH1moeKn3aGzkGZ9uiDg"
            ]
          }
        }
      ],
      "hex": "0100000001c72c3e36f28a13fddf0f5f3d0c23f4fa84f8c0485d28e033cba0aac040dd3432010000006b48304502210098cb897f487ca6203d3e054fc7932548d6f221609f474f0ba6086419604cb65002206fb2a44c4632c6d9f879e5e07a8829988b6afc21e9ff3aecdab9270d56cd631b012102c3c31447640576a1831763087672868f1b4b9db4fe7ae4ebdfade7549b869d48ffffffff02c0b0ee12010000001976a9147c16558ac8c3bc27ee9f7646256c6b0e81a59ee388acedca7704000000001976a914212b56014ff65ec1fa82ac521f6b6e1b0c2ad9a688ac00000000"
    }, 
    {
      "txid": "0ced26a1d343cacacb660905ddaa6dae671b950653560ee9ee1bbbbe20110b99",
      "hash": "0ced26a1d343cacacb660905ddaa6dae671b950653560ee9ee1bbbbe20110b99",
      "version": 1,
      "size": 226,
      "vsize": 226,
      "locktime": 0,
      "vin": [
        {
          "txid": "d70991ec2657f6b66643e6257cc3ee91d091048a5ff4ed7452ab71de1f56961b",
          "vout": 0,
          "scriptSig": {
            "asm": "3045022100dae21b06c4dd8f339c4ee015913f4847cd59991d290ce1c92d40b41306903f2502207f630fe22ae3ac2ef92a66e32e1a3ba3a77ac7aa63056e3555deb786c42ef2e1[ALL] 03b64bab4bb593bfa9a1890f2ea09a434713618ce61310e7050b058af5c7e1a5a9",
            "hex": "483045022100dae21b06c4dd8f339c4ee015913f4847cd59991d290ce1c92d40b41306903f2502207f630fe22ae3ac2ef92a66e32e1a3ba3a77ac7aa63056e3555deb786c42ef2e1012103b64bab4bb593bfa9a1890f2ea09a434713618ce61310e7050b058af5c7e1a5a9"
          },
          "sequence": 4294967295
        }
      ],
      "vout": [
        {
          "value": 1.00329603,
          "n": 0,
          "scriptPubKey": {
            "asm": "OP_DUP OP_HASH160 b93c25ebbce55ba00c2fb859f1632bd31f2d8fc2 OP_EQUALVERIFY OP_CHECKSIG",
            "hex": "76a914b93c25ebbce55ba00c2fb859f1632bd31f2d8fc288ac",
            "reqSigs": 1,
            "type": "pubkeyhash",
            "addresses": [
              "Lc7PKsENvjBKPVviH4iftWFa8wa45tJ8CR"
            ]
          }
        }, 
        {
          "value": 0.05133083,
          "n": 1,
          "scriptPubKey": {
            "asm": "OP_DUP OP_HASH160 a77e1906a21ac68e44f78c6126e0ebdd0f8c8e28 OP_EQUALVERIFY OP_CHECKSIG",
            "hex": "76a914a77e1906a21ac68e44f78c6126e0ebdd0f8c8e2888ac",
            "reqSigs": 1,
            "type": "pubkeyhash",
            "addresses": [
              "LaVaAg5CoTsd7Aa5DMnEwtjtDh71TZdrG3"
            ]
          }
        }
      ],
      "hex": "01000000011b96561fde71ab5274edf45f8a0491d091eec37c25e64366b6f65726ec9109d7000000006b483045022100dae21b06c4dd8f339c4ee015913f4847cd59991d290ce1c92d40b41306903f2502207f630fe22ae3ac2ef92a66e32e1a3ba3a77ac7aa63056e3555deb786c42ef2e1012103b64bab4bb593bfa9a1890f2ea09a434713618ce61310e7050b058af5c7e1a5a9ffffffff0283e8fa05000000001976a914b93c25ebbce55ba00c2fb859f1632bd31f2d8fc288ac1b534e00000000001976a914a77e1906a21ac68e44f78c6126e0ebdd0f8c8e2888ac00000000"
    }
  ],
  "time": 1517291916,
  "mediantime": 1517291183,
  "nonce": 1623464027,
  "bits": "1a042eae",
  "difficulty": 4011378.762614286,
  "chainwork": "000000000000000000000000000000000000000000000034108fb5ea6bb1b89e",
  "previousblockhash": "15fc7bf5d8c29e64a3cd38b1509316cc507c1f023655944d198b80fbf7a032b5",
  "nextblockhash": "b76d0c47f2e1d6248feb0968e2ffa4bdf6ac86a6673764a39a034ead14ffa6b8"
}
