{
  "hash": "d84832ab5a1f4f8a9426bea8a081db31e27ea60cb6419ef9cee94056355c8c2a",
  "confirmations": 831,
  "strippedsize": 2485,
  "size": 2521,
  "weight": 9976,
  "height": 1360163,
  "version": 536870912,
  "versionHex": "20000000",
  "merkleroot": "1aeec334ac6be897ec53ba0fc13e1189fce6f46c3bfdcb0b50cfdd17b98dbe70",
  "tx": [
    {
      "txid": "5ba8ff3d1de3bf17f614548449051d71f7753c3c18ba636764708ff8a80024d5",
      "hash": "f64eb1445cc596811f6b10aa54163f7dd9a3f3edb5f297962e96f355789a837b",
      "version": 1,
      "size": 236,
      "vsize": 209,
      "locktime": 0,
      "vin": [
        {
          "coinbase": "0323c114045a7171292cfabe6d6d6cb1e039b033a235a1004a8a63405750dddd01a5c5dc8b1a4db31be4386a43c44000000000000000042f4c502f0816005cd2d90f0000",
          "sequence": 4294967295
        }
      ],
      "vout": [
        {
          "value": 25.00929300,
          "n": 0,
          "scriptPubKey": {
            "asm": "OP_DUP OP_HASH160 57757ed2ecf2052ff3126c397aca7defb9ca2cec OP_EQUALVERIFY OP_CHECKSIG",
            "hex": "76a91457757ed2ecf2052ff3126c397aca7defb9ca2cec88ac",
            "reqSigs": 1,
            "type": "pubkeyhash",
            "addresses": [
              "LTCPodGk5FwcJaRzH9yKnwicxzFUbxp6tN"
            ]
          }
        }, 
        {
          "value": 0.00000000,
          "n": 1,
          "scriptPubKey": {
            "asm": "OP_RETURN aa21a9ed05d50019f5ea8891fb3b50bbad56c7cfa6a156666cfad3867f8a07251077de75",
            "hex": "6a24aa21a9ed05d50019f5ea8891fb3b50bbad56c7cfa6a156666cfad3867f8a07251077de75",
            "type": "nulldata"
          }
        }
      ],
      "hex": "010000000001010000000000000000000000000000000000000000000000000000000000000000ffffffff440323c114045a7171292cfabe6d6d6cb1e039b033a235a1004a8a63405750dddd01a5c5dc8b1a4db31be4386a43c44000000000000000042f4c502f0816005cd2d90f0000ffffffff0214271195000000001976a91457757ed2ecf2052ff3126c397aca7defb9ca2cec88ac0000000000000000266a24aa21a9ed05d50019f5ea8891fb3b50bbad56c7cfa6a156666cfad3867f8a07251077de750120000000000000000000000000000000000000000000000000000000000000000000000000"
    }, 
    {
      "txid": "6ebe5326839f3542f3788aa95a79b9646bd92098d6c3ab2a6f973f2a274535b6",
      "hash": "6ebe5326839f3542f3788aa95a79b9646bd92098d6c3ab2a6f973f2a274535b6",
      "version": 1,
      "size": 486,
      "vsize": 486,
      "locktime": 0,
      "vin": [
        {
          "txid": "b85518adffd7e16733f3a2b509361640142e385f254dde703255973de3582458",
          "vout": 1,
          "scriptSig": {
            "asm": "30440220246d20c90047975f9b00524fd3f3ee167303a690a803163aa57d444aa0a253a90220588268690192205a21a2a519bf85ad2b6ded2a68a6b6ed7a97766e05e9412e13[ALL] 037ecc7d151dbc08b71a1b9b4763c021330dfd9c5cd53da14ba12a196631669963",
            "hex": "4730440220246d20c90047975f9b00524fd3f3ee167303a690a803163aa57d444aa0a253a90220588268690192205a21a2a519bf85ad2b6ded2a68a6b6ed7a97766e05e9412e130121037ecc7d151dbc08b71a1b9b4763c021330dfd9c5cd53da14ba12a196631669963"
          },
          "sequence": 4294967295
        }, 
        {
          "txid": "ff32d1a2c3597bfc56371499e8cd672d9b70774f6f20ce8012bd2e08a9adf833",
          "vout": 1,
          "scriptSig": {
            "asm": "304402204277c0816d936514b2fb25d3a1a4752c5b5aeebff04f5fbd9a81c89a2e74265102205713356ac8527711cea2b888d5f77428767db9527e83aa1375155399b4669f64[ALL] 037ecc7d151dbc08b71a1b9b4763c021330dfd9c5cd53da14ba12a196631669963",
            "hex": "47304402204277c0816d936514b2fb25d3a1a4752c5b5aeebff04f5fbd9a81c89a2e74265102205713356ac8527711cea2b888d5f77428767db9527e83aa1375155399b4669f640121037ecc7d151dbc08b71a1b9b4763c021330dfd9c5cd53da14ba12a196631669963"
          },
          "sequence": 4294967295
        }, 
        {
          "txid": "c8524b82e82cf77f137f43fa087eb9b512d9c8f5a16ea561123cddc941bb7ac9",
          "vout": 0,
          "scriptSig": {
            "asm": "3045022100b6f8bdc0d44f18ca91b3dcc2ef6572222cbb515ff37052f0328f70a9b11c447502207378434f59ebb50bbd79d95c5b24dcf631713fe2fa1e987fcd28f7a1f4ecc7a3[ALL] 037ecc7d151dbc08b71a1b9b4763c021330dfd9c5cd53da14ba12a196631669963",
            "hex": "483045022100b6f8bdc0d44f18ca91b3dcc2ef6572222cbb515ff37052f0328f70a9b11c447502207378434f59ebb50bbd79d95c5b24dcf631713fe2fa1e987fcd28f7a1f4ecc7a30121037ecc7d151dbc08b71a1b9b4763c021330dfd9c5cd53da14ba12a196631669963"
          },
          "sequence": 4294967295
        }
      ],
      "vout": [
        {
          "value": 0.47526693,
          "n": 0,
          "scriptPubKey": {
            "asm": "OP_DUP OP_HASH160 9f426640732a103e50b136cafdaf212e8dc421ae OP_EQUALVERIFY OP_CHECKSIG",
            "hex": "76a9149f426640732a103e50b136cafdaf212e8dc421ae88ac",
            "reqSigs": 1,
            "type": "pubkeyhash",
            "addresses": [
              "LZk3FE6rob9i5CJrgdHYKwaWHsgaNbBg1h"
            ]
          }
        }
      ],
      "hex": "0100000003582458e33d97553270de4d255f382e1440163609b5a2f33367e1d7ffad1855b8010000006a4730440220246d20c90047975f9b00524fd3f3ee167303a690a803163aa57d444aa0a253a90220588268690192205a21a2a519bf85ad2b6ded2a68a6b6ed7a97766e05e9412e130121037ecc7d151dbc08b71a1b9b4763c021330dfd9c5cd53da14ba12a196631669963ffffffff33f8ada9082ebd1280ce206f4f77709b2d67cde899143756fc7b59c3a2d132ff010000006a47304402204277c0816d936514b2fb25d3a1a4752c5b5aeebff04f5fbd9a81c89a2e74265102205713356ac8527711cea2b888d5f77428767db9527e83aa1375155399b4669f640121037ecc7d151dbc08b71a1b9b4763c021330dfd9c5cd53da14ba12a196631669963ffffffffc97abb41c9dd3c1261a56ea1f5c8d912b5b97e08fa437f137ff72ce8824b52c8000000006b483045022100b6f8bdc0d44f18ca91b3dcc2ef6572222cbb515ff37052f0328f70a9b11c447502207378434f59ebb50bbd79d95c5b24dcf631713fe2fa1e987fcd28f7a1f4ecc7a30121037ecc7d151dbc08b71a1b9b4763c021330dfd9c5cd53da14ba12a196631669963ffffffff012533d502000000001976a9149f426640732a103e50b136cafdaf212e8dc421ae88ac00000000"
    }, 
    {
      "txid": "f46ef53acadb48c8eb48b837101c7850123c54206534c8790680f9544c1d3ec6",
      "hash": "f46ef53acadb48c8eb48b837101c7850123c54206534c8790680f9544c1d3ec6",
      "version": 1,
      "size": 225,
      "vsize": 225,
      "locktime": 1360161,
      "vin": [
        {
          "txid": "a1d611cc18d87db6b96a6f3645e004aba8acde45b0babd189dfaeedabaddd412",
          "vout": 0,
          "scriptSig": {
            "asm": "304402200f40c74a1801401b3568c07bae50d7f9d1915e0e463cb88b34609d4dd9dc02e6022076dbb6d3ee9232445138544eedab90747a90315c54d39fab17b6e0e36d889ea4[ALL] 028dec482ab278815a021250c797d78f61f8eed526c0f8924cbaf20aa28dc7451e",
            "hex": "47304402200f40c74a1801401b3568c07bae50d7f9d1915e0e463cb88b34609d4dd9dc02e6022076dbb6d3ee9232445138544eedab90747a90315c54d39fab17b6e0e36d889ea40121028dec482ab278815a021250c797d78f61f8eed526c0f8924cbaf20aa28dc7451e"
          },
          "sequence": 4294967294
        }
      ],
      "vout": [
        {
          "value": 1.05057345,
          "n": 0,
          "scriptPubKey": {
            "asm": "OP_DUP OP_HASH160 a2f204198a0474499cb08b4c9fa3792dfdebc865 OP_EQUALVERIFY OP_CHECKSIG",
            "hex": "76a914a2f204198a0474499cb08b4c9fa3792dfdebc86588ac",
            "reqSigs": 1,
            "type": "pubkeyhash",
            "addresses": [
              "La5XerfLEksXfsZ58Bi97LqRx6Ga2LtUwW"
            ]
          }
        }, 
        {
          "value": 314.44913422,
          "n": 1,
          "scriptPubKey": {
            "asm": "OP_DUP OP_HASH160 6a0dc64e367f40f2f7de19febe5b5e10b2e12e8d OP_EQUALVERIFY OP_CHECKSIG",
            "hex": "76a9146a0dc64e367f40f2f7de19febe5b5e10b2e12e8d88ac",
            "reqSigs": 1,
            "type": "pubkeyhash",
            "addresses": [
              "LUtiPdDLXyXMq3xoQftiK3av1kX3UJ1WZd"
            ]
          }
        }
      ],
      "hex": "010000000112d4ddbadaeefa9d18bdbab045deaca8ab04e045366f6ab9b67dd818cc11d6a1000000006a47304402200f40c74a1801401b3568c07bae50d7f9d1915e0e463cb88b34609d4dd9dc02e6022076dbb6d3ee9232445138544eedab90747a90315c54d39fab17b6e0e36d889ea40121028dec482ab278815a021250c797d78f61f8eed526c0f8924cbaf20aa28dc7451efeffffff02410c4306000000001976a914a2f204198a0474499cb08b4c9fa3792dfdebc86588ac0e4d4352070000001976a9146a0dc64e367f40f2f7de19febe5b5e10b2e12e8d88ac21c11400"
    }, 
    {
      "txid": "a47ede8a15ecc2295425078228b98ec059e4281fdaabf63cf98103dc1df6666b",
      "hash": "a47ede8a15ecc2295425078228b98ec059e4281fdaabf63cf98103dc1df6666b",
      "version": 1,
      "size": 590,
      "vsize": 590,
      "locktime": 1360161,
      "vin": [
        {
          "txid": "92d00783331a38b4020bb34367779bb7b7a97307494f307fc844784751283b29",
          "vout": 0,
          "scriptSig": {
            "asm": "3045022100de21953aa316082b5ece4102d1d659ee0f9e1736ed89f9c088d82d5c7128230702204df73ca9d67af08cede3a12e287d9819a8d1702f3b7c437c311120f7a176079a[ALL] 0222214d78474dc81b52db1a4e3a57ce5d74acca4a3bcec4f820a0458a88446948",
            "hex": "483045022100de21953aa316082b5ece4102d1d659ee0f9e1736ed89f9c088d82d5c7128230702204df73ca9d67af08cede3a12e287d9819a8d1702f3b7c437c311120f7a176079a01210222214d78474dc81b52db1a4e3a57ce5d74acca4a3bcec4f820a0458a88446948"
          },
          "sequence": 4294967294
        }, 
        {
          "txid": "e15f5bc6c50f895fb8964c54a0446db0b25c9bccb16d2d6238de5f30330e6f6e",
          "vout": 4,
          "scriptSig": {
            "asm": "304502210095b476f1dc88ba66614922148bbe589f62fb62f44f3b507e723926132deae69002202ca4b326ec731d53f1b9be04a2ae34c3ba0255f92387da5e05c2edfb87e358a9[ALL] 02ce3eafaf8690a725bd76c319d85fd6b3866ad2b89d6d85b8936bb7e175788e22",
            "hex": "48304502210095b476f1dc88ba66614922148bbe589f62fb62f44f3b507e723926132deae69002202ca4b326ec731d53f1b9be04a2ae34c3ba0255f92387da5e05c2edfb87e358a9012102ce3eafaf8690a725bd76c319d85fd6b3866ad2b89d6d85b8936bb7e175788e22"
          },
          "sequence": 4294967294
        }, 
        {
          "txid": "4b2695141f8af98f78222412fe761b6cb434b023d5cd573ea5566d697e3a5cf4",
          "vout": 1253,
          "scriptSig": {
            "asm": "304502210097456737afdded5021ce8c376e97ead5680c21a52e8f7f37e02cc5cbdc72008e02202297787182fd7e046ce64f2ce47bbf565f39856ccf31538abeddcb89ea6f866d[ALL] 0358a70ee60e4b44a3142bb42919d18efa05b0ae09eb871682d1ae6a21b132c15e",
            "hex": "48304502210097456737afdded5021ce8c376e97ead5680c21a52e8f7f37e02cc5cbdc72008e02202297787182fd7e046ce64f2ce47bbf565f39856ccf31538abeddcb89ea6f866d01210358a70ee60e4b44a3142bb42919d18efa05b0ae09eb871682d1ae6a21b132c15e"
          },
          "sequence": 4294967294
        }
      ],
      "vout": [
        {
          "value": 6.00000000,
          "n": 0,
          "scriptPubKey": {
            "asm": "OP_DUP OP_HASH160 9b542bf830277afaa64ac60459fb11837c474b95 OP_EQUALVERIFY OP_CHECKSIG",
            "hex": "76a9149b542bf830277afaa64ac60459fb11837c474b9588ac",
            "reqSigs": 1,
            "type": "pubkeyhash",
            "addresses": [
              "LZPFqJX3H5eNJfQNKJaSBcd8yKGcSwfgUA"
            ]
          }
        }, 
        {
          "value": 3.28097000,
          "n": 1,
          "scriptPubKey": {
            "asm": "OP_DUP OP_HASH160 b28fecff8d0c5d7323e46b12240ec3288222afdd OP_EQUALVERIFY OP_CHECKSIG",
            "hex": "76a914b28fecff8d0c5d7323e46b12240ec3288222afdd88ac",
            "reqSigs": 1,
            "type": "pubkeyhash",
            "addresses": [
              "LbW6xVmz2eptN1MUmEZpLZTBMuido2Y5FS"
            ]
          }
        }, 
        {
          "value": 0.01000021,
          "n": 2,
          "scriptPubKey": {
            "asm": "OP_DUP OP_HASH160 8b394f97db999d486de70fab257c2d1c3b8a7286 OP_EQUALVERIFY OP_CHECKSIG",
            "hex": "76a9148b394f97db999d486de70fab257c2d1c3b8a728688ac",
            "reqSigs": 1,
            "type": "pubkeyhash",
            "addresses": [
              "LXv6quhH8Q3sQNbULSmvNM81L1cEZVeF4o"
            ]
          }
        }, 
        {
          "value": 0.55396965,
          "n": 3,
          "scriptPubKey": {
            "asm": "OP_DUP OP_HASH160 45b1db37203704c3b3dec0d431916e9b9eea3e1a OP_EQUALVERIFY OP_CHECKSIG",
            "hex": "76a91445b1db37203704c3b3dec0d431916e9b9eea3e1a88ac",
            "reqSigs": 1,
            "type": "pubkeyhash",
            "addresses": [
              "LRaTx83uGr2KKqp1sStZVDohL2oYPHBe3d"
            ]
          }
        }
      ],
      "hex": "0100000003293b2851477844c87f304f490773a9b7b79b776743b30b02b4381a338307d092000000006b483045022100de21953aa316082b5ece4102d1d659ee0f9e1736ed89f9c088d82d5c7128230702204df73ca9d67af08cede3a12e287d9819a8d1702f3b7c437c311120f7a176079a01210222214d78474dc81b52db1a4e3a57ce5d74acca4a3bcec4f820a0458a88446948feffffff6e6f0e33305fde38622d6db1cc9b5cb2b06d44a0544c96b85f890fc5c65b5fe1040000006b48304502210095b476f1dc88ba66614922148bbe589f62fb62f44f3b507e723926132deae69002202ca4b326ec731d53f1b9be04a2ae34c3ba0255f92387da5e05c2edfb87e358a9012102ce3eafaf8690a725bd76c319d85fd6b3866ad2b89d6d85b8936bb7e175788e22fefffffff45c3a7e696d56a53e57cdd523b034b46c1b76fe122422788ff98a1f1495264be50400006b48304502210097456737afdded5021ce8c376e97ead5680c21a52e8f7f37e02cc5cbdc72008e02202297787182fd7e046ce64f2ce47bbf565f39856ccf31538abeddcb89ea6f866d01210358a70ee60e4b44a3142bb42919d18efa05b0ae09eb871682d1ae6a21b132c15efeffffff040046c323000000001976a9149b542bf830277afaa64ac60459fb11837c474b9588ace85c8e13000000001976a914b28fecff8d0c5d7323e46b12240ec3288222afdd88ac55420f00000000001976a9148b394f97db999d486de70fab257c2d1c3b8a728688ac654a4d03000000001976a91445b1db37203704c3b3dec0d431916e9b9eea3e1a88ac21c11400"
    }, 
    {
      "txid": "c7f02ac3404865ee655aae47cc6562ba0968a459208e2bd969e02a90cececdbf",
      "hash": "c7f02ac3404865ee655aae47cc6562ba0968a459208e2bd969e02a90cececdbf",
      "version": 1,
      "size": 225,
      "vsize": 225,
      "locktime": 0,
      "vin": [
        {
          "txid": "fcd04e4bdfe6034be6c8f8f20e3ba9eb6245a5e31684876146b4e805c5b5fd22",
          "vout": 0,
          "scriptSig": {
            "asm": "3044022078b891fe5d3335cc7ab7a409baac53471691139fb35c7efeb00fde7bfb547ef7022043be6deeba04accd8ee4887de58de13987c7a7ca538eca523e0f3ad171f2e93b[ALL] 032273c6bff47f7ca490c2e6bce6b05d457795d6d0800362457e1f1d1c272e8d13",
            "hex": "473044022078b891fe5d3335cc7ab7a409baac53471691139fb35c7efeb00fde7bfb547ef7022043be6deeba04accd8ee4887de58de13987c7a7ca538eca523e0f3ad171f2e93b0121032273c6bff47f7ca490c2e6bce6b05d457795d6d0800362457e1f1d1c272e8d13"
          },
          "sequence": 4294967295
        }
      ],
      "vout": [
        {
          "value": 3.80247000,
          "n": 0,
          "scriptPubKey": {
            "asm": "OP_DUP OP_HASH160 2c5ddcef9a0c875b526da512d7c640650b22e69f OP_EQUALVERIFY OP_CHECKSIG",
            "hex": "76a9142c5ddcef9a0c875b526da512d7c640650b22e69f88ac",
            "reqSigs": 1,
            "type": "pubkeyhash",
            "addresses": [
              "LPGYSNVF4siKkZnYCWPaHLfTRsaW8vtHx5"
            ]
          }
        }, 
        {
          "value": 11.71040226,
          "n": 1,
          "scriptPubKey": {
            "asm": "OP_DUP OP_HASH160 58ce158d1bd650b317f7a04099d523547b9d6c6e OP_EQUALVERIFY OP_CHECKSIG",
            "hex": "76a91458ce158d1bd650b317f7a04099d523547b9d6c6e88ac",
            "reqSigs": 1,
            "type": "pubkeyhash",
            "addresses": [
              "LTKWc5G2rbsUmRrYLnE98QExpwVg1aYGAu"
            ]
          }
        }
      ],
      "hex": "010000000122fdb5c505e8b44661878416e3a54562eba93b0ef2f8c8e64b03e6df4b4ed0fc000000006a473044022078b891fe5d3335cc7ab7a409baac53471691139fb35c7efeb00fde7bfb547ef7022043be6deeba04accd8ee4887de58de13987c7a7ca538eca523e0f3ad171f2e93b0121032273c6bff47f7ca490c2e6bce6b05d457795d6d0800362457e1f1d1c272e8d13ffffffff02d81baa16000000001976a9142c5ddcef9a0c875b526da512d7c640650b22e69f88ace2a7cc45000000001976a91458ce158d1bd650b317f7a04099d523547b9d6c6e88ac00000000"
    }, 
    {
      "txid": "e659d6759ac672399001d3bc86106548edb534a739c2992245256e295ec73473",
      "hash": "e659d6759ac672399001d3bc86106548edb534a739c2992245256e295ec73473",
      "version": 1,
      "size": 226,
      "vsize": 226,
      "locktime": 0,
      "vin": [
        {
          "txid": "464ead9a174f5785baf88e950466fc248d6c0a15124f8e72a7c5bb66b55f140b",
          "vout": 2,
          "scriptSig": {
            "asm": "30450221009115f0135242b313aa16c3ed0475cbb1a2e20739f4c1a25534bb8948b2c94eb9022045c9fc2dd156eaa75941d20bceb6a81d9f30eb1466ad62e396e73ad051d71739[ALL] 030f28cf92eb0b04c8a1ead92ab0999684da3696cee29e7acbdb137f51770eecc3",
            "hex": "4830450221009115f0135242b313aa16c3ed0475cbb1a2e20739f4c1a25534bb8948b2c94eb9022045c9fc2dd156eaa75941d20bceb6a81d9f30eb1466ad62e396e73ad051d717390121030f28cf92eb0b04c8a1ead92ab0999684da3696cee29e7acbdb137f51770eecc3"
          },
          "sequence": 4294967295
        }
      ],
      "vout": [
        {
          "value": 5.01823222,
          "n": 0,
          "scriptPubKey": {
            "asm": "OP_DUP OP_HASH160 519adac82215bcbba35abe3cf09e7b5e8945c87b OP_EQUALVERIFY OP_CHECKSIG",
            "hex": "76a914519adac82215bcbba35abe3cf09e7b5e8945c87b88ac",
            "reqSigs": 1,
            "type": "pubkeyhash",
            "addresses": [
              "LSfSWEo3rSoqQqgDaFGJRG9VNP91febrFm"
            ]
          }
        }, 
        {
          "value": 7.42977400,
          "n": 1,
          "scriptPubKey": {
            "asm": "OP_DUP OP_HASH160 789b5fae3229db03a2d172462a0675c7c2a318fb OP_EQUALVERIFY OP_CHECKSIG",
            "hex": "76a914789b5fae3229db03a2d172462a0675c7c2a318fb88ac",
            "reqSigs": 1,
            "type": "pubkeyhash",
            "addresses": [
              "LWDfUnnUEqYgzYAqEUtdzbnNxQMTYAPpgy"
            ]
          }
        }
      ],
      "hex": "01000000010b145fb566bbc5a7728e4f12150a6c8d24fc6604958ef8ba85574f179aad4e46020000006b4830450221009115f0135242b313aa16c3ed0475cbb1a2e20739f4c1a25534bb8948b2c94eb9022045c9fc2dd156eaa75941d20bceb6a81d9f30eb1466ad62e396e73ad051d717390121030f28cf92eb0b04c8a1ead92ab0999684da3696cee29e7acbdb137f51770eecc3ffffffff02f636e91d000000001976a914519adac82215bcbba35abe3cf09e7b5e8945c87b88ac78ef482c000000001976a914789b5fae3229db03a2d172462a0675c7c2a318fb88ac00000000"
    }, 
    {
      "txid": "2d5e1fc3286b0eff6a089879a1b57cd9ba015a10242edd5403bb17d0b33ce09b",
      "hash": "2d5e1fc3286b0eff6a089879a1b57cd9ba015a10242edd5403bb17d0b33ce09b",
      "version": 2,
      "size": 226,
      "vsize": 226,
      "locktime": 1360161,
      "vin": [
        {
          "txid": "c3f5c50137fd7d4ed6145df4afa38ebbb10ea4e40418154b0735af002c52db27",
          "vout": 1,
          "scriptSig": {
            "asm": "30450221008a911357b23092f253dfcecfec075bc46e796bf41e75de1523bfe30c6e9f76fb022068aeb2351d0c50afb7790968495ca5dfe56fe665d35ae7b61f63c17bed777e42[ALL] 037a636bb7261dbc2d4ef6f1eee5d275bc80d3f18e66cd6a14f0bf3554517f5739",
            "hex": "4830450221008a911357b23092f253dfcecfec075bc46e796bf41e75de1523bfe30c6e9f76fb022068aeb2351d0c50afb7790968495ca5dfe56fe665d35ae7b61f63c17bed777e420121037a636bb7261dbc2d4ef6f1eee5d275bc80d3f18e66cd6a14f0bf3554517f5739"
          },
          "sequence": 4294967294
        }
      ],
      "vout": [
        {
          "value": 0.20669200,
          "n": 0,
          "scriptPubKey": {
            "asm": "OP_DUP OP_HASH160 747f6c7b72d7a7cee077f4f58bb53966126a9a87 OP_EQUALVERIFY OP_CHECKSIG",
            "hex": "76a914747f6c7b72d7a7cee077f4f58bb53966126a9a8788ac",
            "reqSigs": 1,
            "type": "pubkeyhash",
            "addresses": [
              "LVqwJ2JfKVUS7aenc9caPutXpSRJsrpksD"
            ]
          }
        }, 
        {
          "value": 0.00602300,
          "n": 1,
          "scriptPubKey": {
            "asm": "OP_DUP OP_HASH160 c762c3857d854a78303141b9b427b346b3d6e4da OP_EQUALVERIFY OP_CHECKSIG",
            "hex": "76a914c762c3857d854a78303141b9b427b346b3d6e4da88ac",
            "reqSigs": 1,
            "type": "pubkeyhash",
            "addresses": [
              "LdQD3cXSDq8buV7MHH3TGFW8k1qawiZdLR"
            ]
          }
        }
      ],
      "hex": "020000000127db522c00af35074b151804e4a40eb1bb8ea3aff45d14d64e7dfd3701c5f5c3010000006b4830450221008a911357b23092f253dfcecfec075bc46e796bf41e75de1523bfe30c6e9f76fb022068aeb2351d0c50afb7790968495ca5dfe56fe665d35ae7b61f63c17bed777e420121037a636bb7261dbc2d4ef6f1eee5d275bc80d3f18e66cd6a14f0bf3554517f5739feffffff0210633b01000000001976a914747f6c7b72d7a7cee077f4f58bb53966126a9a8788acbc300900000000001976a914c762c3857d854a78303141b9b427b346b3d6e4da88ac21c11400"
    }, 
    {
      "txid": "6b68f809250fe9f160b762153e63c18dc929dfa4975ceaa0f9be89fa77ed94f7",
      "hash": "6b68f809250fe9f160b762153e63c18dc929dfa4975ceaa0f9be89fa77ed94f7",
      "version": 1,
      "size": 226,
      "vsize": 226,
      "locktime": 0,
      "vin": [
        {
          "txid": "8c92f04ef97462cdb0d917b4f4ed9a9d1d277c870e03845f9696e672e532ab7e",
          "vout": 0,
          "scriptSig": {
            "asm": "3045022100c35966c367dfdec848f317d47efcded96f2b829b7a58c6d4d92d15f81d0a2ce902202fba6a1136d93a63c9f3a8f85c837ee4be631cbc88262fcc8bb6f9045690111c[ALL] 025275b7612b28d230ca7669644e946257d8b8b218aa311da5665681771406d0b3",
            "hex": "483045022100c35966c367dfdec848f317d47efcded96f2b829b7a58c6d4d92d15f81d0a2ce902202fba6a1136d93a63c9f3a8f85c837ee4be631cbc88262fcc8bb6f9045690111c0121025275b7612b28d230ca7669644e946257d8b8b218aa311da5665681771406d0b3"
          },
          "sequence": 4294967295
        }
      ],
      "vout": [
        {
          "value": 9.29976770,
          "n": 0,
          "scriptPubKey": {
            "asm": "OP_DUP OP_HASH160 fa3011add1d1996788c1f071fc0f3eca520ee848 OP_EQUALVERIFY OP_CHECKSIG",
            "hex": "76a914fa3011add1d1996788c1f071fc0f3eca520ee84888ac",
            "reqSigs": 1,
            "type": "pubkeyhash",
            "addresses": [
              "Li2pn4rqnLPcjhREuBFF4gy7s3y6LZWiSt"
            ]
          }
        }, 
        {
          "value": 2.13871066,
          "n": 1,
          "scriptPubKey": {
            "asm": "OP_DUP OP_HASH160 b59061ef705ddcb039755ff2113dd818cd1d624a OP_EQUALVERIFY OP_CHECKSIG",
            "hex": "76a914b59061ef705ddcb039755ff2113dd818cd1d624a88ac",
            "reqSigs": 1,
            "type": "pubkeyhash",
            "addresses": [
              "LbmyXoxb6wpSzPnxicwBZoMSkAYgDa4o8p"
            ]
          }
        }
      ],
      "hex": "01000000017eab32e572e696965f84030e877c271d9d9aedf4b417d9b0cd6274f94ef0928c000000006b483045022100c35966c367dfdec848f317d47efcded96f2b829b7a58c6d4d92d15f81d0a2ce902202fba6a1136d93a63c9f3a8f85c837ee4be631cbc88262fcc8bb6f9045690111c0121025275b7612b28d230ca7669644e946257d8b8b218aa311da5665681771406d0b3ffffffff02c2516e37000000001976a914fa3011add1d1996788c1f071fc0f3eca520ee84888acda69bf0c000000001976a914b59061ef705ddcb039755ff2113dd818cd1d624a88ac00000000"
    }
  ],
  "time": 1517383977,
  "mediantime": 1517383391,
  "nonce": 708397714,
  "bits": "1a042eae",
  "difficulty": 4011378.762614286,
  "chainwork": "000000000000000000000000000000000000000000000034ae9b554821996548",
  "previousblockhash": "f4a540ef3f26ac9dbd52d583d490e24774ebced4eb30c27cb98f7e0f55090217",
  "nextblockhash": "cdb5493cb978fea71a23fe22ff68ecd7c1cf22947cfd783e9f27e7296ce88441"
}
