{
  "hash": "d84b264cff9fab651f632e0082cb567d8cf6b839abaf8cc1e11ae2f2ef01de40",
  "confirmations": 1618,
  "strippedsize": 253,
  "size": 253,
  "weight": 1012,
  "height": 1359376,
  "version": 536870912,
  "versionHex": "20000000",
  "merkleroot": "46d90389355ebe17634812ea0b9bf2b2c0c2a7ff0a2efbeec05d5bf7c8bccb48",
  "tx": [
    {
      "txid": "46d90389355ebe17634812ea0b9bf2b2c0c2a7ff0a2efbeec05d5bf7c8bccb48",
      "hash": "46d90389355ebe17634812ea0b9bf2b2c0c2a7ff0a2efbeec05d5bf7c8bccb48",
      "version": 1,
      "size": 172,
      "vsize": 172,
      "locktime": 0,
      "vin": [
        {
          "coinbase": "0310be141a4d696e656420627920416e74506f6f6c20626a341e205a6fc132fabe6d6d66bb0057d5b2954e251ab62ff189f2e5a99c841006f5b77b4067c78b663eaeb80400000000000000dc0c00000000000001000000",
          "sequence": 4294967295
        }
      ],
      "vout": [
        {
          "value": 25.00000000,
          "n": 0,
          "scriptPubKey": {
            "asm": "OP_DUP OP_HASH160 0ff3ccc5e8be88afe24b5d634e5852d474dbdff1 OP_EQUALVERIFY OP_CHECKSIG",
            "hex": "76a9140ff3ccc5e8be88afe24b5d634e5852d474dbdff188ac",
            "reqSigs": 1,
            "type": "pubkeyhash",
            "addresses": [
              "LLgJTbzZMsRTCUF1NtvvL9SR1a4pVieW89"
            ]
          }
        }
      ],
      "hex": "01000000010000000000000000000000000000000000000000000000000000000000000000ffffffff570310be141a4d696e656420627920416e74506f6f6c20626a341e205a6fc132fabe6d6d66bb0057d5b2954e251ab62ff189f2e5a99c841006f5b77b4067c78b663eaeb80400000000000000dc0c00000000000001000000ffffffff0100f90295000000001976a9140ff3ccc5e8be88afe24b5d634e5852d474dbdff188ac00000000"
    }
  ],
  "time": 1517273394,
  "mediantime": 1517272713,
  "nonce": 1797493399,
  "bits": "1a042eae",
  "difficulty": 4011378.762614286,
  "chainwork": "000000000000000000000000000000000000000000000033f26f494de8324aa2",
  "previousblockhash": "168398944d476039d3b466c8e7f7b4f07f5b38142ca3cacfd091942343470d9a",
  "nextblockhash": "ce9cfc2943a0f84cebecfcb1a9655b96251c2d37d5082ae743c21e2e66cdf974"
}
