{
  "hash": "d864637b2e47d6bc749a0c748813b4629a89b54a14836ec9b6180aa5697d3283",
  "confirmations": 1713,
  "strippedsize": 255,
  "size": 255,
  "weight": 1020,
  "height": 1359281,
  "version": 536870912,
  "versionHex": "20000000",
  "merkleroot": "7b92bcd458568cc1f2aee386428a8a505b1bdda7ee15315a1079c46ac6102164",
  "tx": [
    {
      "txid": "7b92bcd458568cc1f2aee386428a8a505b1bdda7ee15315a1079c46ac6102164",
      "hash": "7b92bcd458568cc1f2aee386428a8a505b1bdda7ee15315a1079c46ac6102164",
      "version": 1,
      "size": 174,
      "vsize": 174,
      "locktime": 0,
      "vin": [
        {
          "coinbase": "03b1bd141c4d696e656420627920416e74506f6f6c20626a341e205a6f947d1001fabe6d6d586d149ebe0ffeadbe17c605d7c72dba24b2a3ee010cd021f5f556fd25d637260400000000000000300c00000000000003000000",
          "sequence": 4294967295
        }
      ],
      "vout": [
        {
          "value": 25.00000000,
          "n": 0,
          "scriptPubKey": {
            "asm": "OP_DUP OP_HASH160 0ff3ccc5e8be88afe24b5d634e5852d474dbdff1 OP_EQUALVERIFY OP_CHECKSIG",
            "hex": "76a9140ff3ccc5e8be88afe24b5d634e5852d474dbdff188ac",
            "reqSigs": 1,
            "type": "pubkeyhash",
            "addresses": [
              "LLgJTbzZMsRTCUF1NtvvL9SR1a4pVieW89"
            ]
          }
        }
      ],
      "hex": "01000000010000000000000000000000000000000000000000000000000000000000000000ffffffff5903b1bd141c4d696e656420627920416e74506f6f6c20626a341e205a6f947d1001fabe6d6d586d149ebe0ffeadbe17c605d7c72dba24b2a3ee010cd021f5f556fd25d637260400000000000000300c00000000000003000000ffffffff0100f90295000000001976a9140ff3ccc5e8be88afe24b5d634e5852d474dbdff188ac00000000"
    }
  ],
  "time": 1517261949,
  "mediantime": 1517261512,
  "nonce": 799754816,
  "bits": "1a042eae",
  "difficulty": 4011378.762614286,
  "chainwork": "000000000000000000000000000000000000000000000033dbb85d00891d6364",
  "previousblockhash": "f0797a959df042fe86069f45e8da253b49c43d36dffe7adc0f723494242b4324",
  "nextblockhash": "6dd7409797bed4670c5d571dcb6283049129b654acb38ac2207b42d21b22187a"
}
