{
  "hash": "d8e8435719833642f1eb09fd97aa68aab73124a78ed8574f177e59bb3abaf087",
  "confirmations": 3007,
  "strippedsize": 234,
  "size": 234,
  "weight": 936,
  "height": 1357988,
  "version": 536870912,
  "versionHex": "20000000",
  "merkleroot": "227e40713de8a6717d97576a72860ad7fb01ad71c184e3470beeafe310ec088a",
  "tx": [
    {
      "txid": "227e40713de8a6717d97576a72860ad7fb01ad71c184e3470beeafe310ec088a",
      "hash": "227e40713de8a6717d97576a72860ad7fb01ad71c184e3470beeafe310ec088a",
      "version": 1,
      "size": 153,
      "vsize": 153,
      "locktime": 0,
      "vin": [
        {
          "coinbase": "03a4b814045a6cb22b2cfabe6d6d422622e6186622bbadf4c616b329d0145f58025a97a17b10453864fcd4c7828e4000000000000000042f4c502f08220000eb2c000000",
          "sequence": 4294967295
        }
      ],
      "vout": [
        {
          "value": 25.00000000,
          "n": 0,
          "scriptPubKey": {
            "asm": "OP_DUP OP_HASH160 57757ed2ecf2052ff3126c397aca7defb9ca2cec OP_EQUALVERIFY OP_CHECKSIG",
            "hex": "76a91457757ed2ecf2052ff3126c397aca7defb9ca2cec88ac",
            "reqSigs": 1,
            "type": "pubkeyhash",
            "addresses": [
              "LTCPodGk5FwcJaRzH9yKnwicxzFUbxp6tN"
            ]
          }
        }
      ],
      "hex": "01000000010000000000000000000000000000000000000000000000000000000000000000ffffffff4403a4b814045a6cb22b2cfabe6d6d422622e6186622bbadf4c616b329d0145f58025a97a17b10453864fcd4c7828e4000000000000000042f4c502f08220000eb2c000000ffffffff0100f90295000000001976a91457757ed2ecf2052ff3126c397aca7defb9ca2cec88ac00000000"
    }
  ],
  "time": 1517072939,
  "mediantime": 1517072323,
  "nonce": 3677003440,
  "bits": "1a047f14",
  "difficulty": 3731199.183374282,
  "chainwork": "000000000000000000000000000000000000000000000032b3d70968a5047fc2",
  "previousblockhash": "650979ed5a47f052616f6497064f139206294261cdb40102a5cc50ab7bd61365",
  "nextblockhash": "493659baabcf1e5c813d80e78f458655aedafb36f281da62273b064598fcc05d"
}
