{
  "hash": "d95337af61eb4ab416bacdb48c71cda74a041ead48c29fe58f000f4d64d5d8d6",
  "confirmations": 657,
  "strippedsize": 3921,
  "size": 3957,
  "weight": 15720,
  "height": 1360337,
  "version": 536870912,
  "versionHex": "20000000",
  "merkleroot": "638ef8622ee60f588d9c11a278af804e751e0dd4c70468769b84ed050d6868d6",
  "tx": [
    {
      "txid": "be51bdc8bbfffe25d3fb4fee7cc8cce4b12f02561ab48a326a760ef5e563bd21",
      "hash": "e05efbb4aeae0802444f98fcff6fd4d713b88c25d86a911b3109ed6796ee1e5d",
      "version": 1,
      "size": 253,
      "vsize": 226,
      "locktime": 0,
      "vin": [
        {
          "coinbase": "03d1c11441d69c7a8816a41941d69c7a88155a0c2f4c54432e544f502ffabe6d6d8528ddbb0c1a6d25f6a7b858bd7e9a8df4f880d8fe357e99824414831bfc281b01000000000000007c1ba5660300000000000000",
          "sequence": 4294967295
        }
      ],
      "vout": [
        {
          "value": 25.00867000,
          "n": 0,
          "scriptPubKey": {
            "asm": "OP_DUP OP_HASH160 0c617fdb2ea42aed30a509595ee21ba3f6688db0 OP_EQUALVERIFY OP_CHECKSIG",
            "hex": "76a9140c617fdb2ea42aed30a509595ee21ba3f6688db088ac",
            "reqSigs": 1,
            "type": "pubkeyhash",
            "addresses": [
              "LLMRAtr3qBje2ySEa3CnZ55LA4TQMWnRY3"
            ]
          }
        }, 
        {
          "value": 0.00000000,
          "n": 1,
          "scriptPubKey": {
            "asm": "OP_RETURN aa21a9ed5d025f0d234c50f0bf4e4190247ab3711ca87deea8e8178ba46d096c65de72d9",
            "hex": "6a24aa21a9ed5d025f0d234c50f0bf4e4190247ab3711ca87deea8e8178ba46d096c65de72d9",
            "type": "nulldata"
          }
        }
      ],
      "hex": "010000000001010000000000000000000000000000000000000000000000000000000000000000ffffffff5503d1c11441d69c7a8816a41941d69c7a88155a0c2f4c54432e544f502ffabe6d6d8528ddbb0c1a6d25f6a7b858bd7e9a8df4f880d8fe357e99824414831bfc281b01000000000000007c1ba5660300000000000000ffffffff02b8331095000000001976a9140c617fdb2ea42aed30a509595ee21ba3f6688db088ac0000000000000000266a24aa21a9ed5d025f0d234c50f0bf4e4190247ab3711ca87deea8e8178ba46d096c65de72d90120000000000000000000000000000000000000000000000000000000000000000000000000"
    }, 
    {
      "txid": "668f211c5194c1616d21bf244057f1d61f5fb89911a5e51367a220bc294c79eb",
      "hash": "668f211c5194c1616d21bf244057f1d61f5fb89911a5e51367a220bc294c79eb",
      "version": 1,
      "size": 225,
      "vsize": 225,
      "locktime": 0,
      "vin": [
        {
          "txid": "089a40a8e32fa28f647a5f6e15ea0822c199bf0a9860fe63d2949ea3abdaefb3",
          "vout": 3,
          "scriptSig": {
            "asm": "3044022018e39ba5aed5e3c6c6780b326d4ef6fe7790eb71e0ccda89b36b12d013ec54a6022054e648423f7b6dbea199fa40d5f16e73a5ee33ee8256af90c8defef773e995fd[ALL] 03d1bca4cd180485d157ad49972981317930989d5f076d56a849271fa43d4a5a11",
            "hex": "473044022018e39ba5aed5e3c6c6780b326d4ef6fe7790eb71e0ccda89b36b12d013ec54a6022054e648423f7b6dbea199fa40d5f16e73a5ee33ee8256af90c8defef773e995fd012103d1bca4cd180485d157ad49972981317930989d5f076d56a849271fa43d4a5a11"
          },
          "sequence": 4294967295
        }
      ],
      "vout": [
        {
          "value": 9.00300000,
          "n": 0,
          "scriptPubKey": {
            "asm": "OP_DUP OP_HASH160 c96cb51b7c527e1754ab4ef9c009060d8e898d20 OP_EQUALVERIFY OP_CHECKSIG",
            "hex": "76a914c96cb51b7c527e1754ab4ef9c009060d8e898d2088ac",
            "reqSigs": 1,
            "type": "pubkeyhash",
            "addresses": [
              "LdazJtyonuzFWkRns9qRV5xxf5t4LyX8Xz"
            ]
          }
        }, 
        {
          "value": 0.75845747,
          "n": 1,
          "scriptPubKey": {
            "asm": "OP_DUP OP_HASH160 3d838dc4adede57f95cb0aea3aaa64ab45b0058b OP_EQUALVERIFY OP_CHECKSIG",
            "hex": "76a9143d838dc4adede57f95cb0aea3aaa64ab45b0058b88ac",
            "reqSigs": 1,
            "type": "pubkeyhash",
            "addresses": [
              "LQqD5RzXQget2gwMoC1CFCPwsXV2PH6EMZ"
            ]
          }
        }
      ],
      "hex": "0100000001b3efdaaba39e94d263fe60980abf99c12208ea156e5f7a648fa22fe3a8409a08030000006a473044022018e39ba5aed5e3c6c6780b326d4ef6fe7790eb71e0ccda89b36b12d013ec54a6022054e648423f7b6dbea199fa40d5f16e73a5ee33ee8256af90c8defef773e995fd012103d1bca4cd180485d157ad49972981317930989d5f076d56a849271fa43d4a5a11ffffffff02e07ca935000000001976a914c96cb51b7c527e1754ab4ef9c009060d8e898d2088ac73508504000000001976a9143d838dc4adede57f95cb0aea3aaa64ab45b0058b88ac00000000"
    }, 
    {
      "txid": "484c224c6c1d6c8f3b0ab6064220b5bb7993e210ecc1264e4344feb812560a05",
      "hash": "484c224c6c1d6c8f3b0ab6064220b5bb7993e210ecc1264e4344feb812560a05",
      "version": 1,
      "size": 226,
      "vsize": 226,
      "locktime": 0,
      "vin": [
        {
          "txid": "c187ee6c7d11655a70cc446af2cb9dc883666c599b14e18bfa09a397dfb1183c",
          "vout": 1,
          "scriptSig": {
            "asm": "304502210092d80b358dd5c9419e454817a5daa859d84d93493ebdda018b403556b6f13ddf02201a78078a5c9ea12a7c8ad49d3c6ee1b5b66aee71eb27daa510c34891f9ba5406[ALL] 020a8ab642ec7c2f34b50ac505ee506a203af63bde12500df919d2a0155abae199",
            "hex": "48304502210092d80b358dd5c9419e454817a5daa859d84d93493ebdda018b403556b6f13ddf02201a78078a5c9ea12a7c8ad49d3c6ee1b5b66aee71eb27daa510c34891f9ba54060121020a8ab642ec7c2f34b50ac505ee506a203af63bde12500df919d2a0155abae199"
          },
          "sequence": 4294967295
        }
      ],
      "vout": [
        {
          "value": 0.32754030,
          "n": 0,
          "scriptPubKey": {
            "asm": "OP_DUP OP_HASH160 e7522753bed7f6fe5c545aa1ce8ffbc1df4831fe OP_EQUALVERIFY OP_CHECKSIG",
            "hex": "76a914e7522753bed7f6fe5c545aa1ce8ffbc1df4831fe88ac",
            "reqSigs": 1,
            "type": "pubkeyhash",
            "addresses": [
              "LgK4mfCwj8DqTJDFncmXcGVF1M9i5bVtHe"
            ]
          }
        }, 
        {
          "value": 0.30117512,
          "n": 1,
          "scriptPubKey": {
            "asm": "OP_DUP OP_HASH160 0ff773d1bec3d8eaa10d1b3cfaaef52f59bcb252 OP_EQUALVERIFY OP_CHECKSIG",
            "hex": "76a9140ff773d1bec3d8eaa10d1b3cfaaef52f59bcb25288ac",
            "reqSigs": 1,
            "type": "pubkeyhash",
            "addresses": [
              "LLgNqPLfxFyetxLs6qpZroxk6tB3Jje1Ny"
            ]
          }
        }
      ],
      "hex": "01000000013c18b1df97a309fa8be1149b596c6683c89dcbf26a44cc705a65117d6cee87c1010000006b48304502210092d80b358dd5c9419e454817a5daa859d84d93493ebdda018b403556b6f13ddf02201a78078a5c9ea12a7c8ad49d3c6ee1b5b66aee71eb27daa510c34891f9ba54060121020a8ab642ec7c2f34b50ac505ee506a203af63bde12500df919d2a0155abae199ffffffff026ec9f301000000001976a914e7522753bed7f6fe5c545aa1ce8ffbc1df4831fe88ac888ecb01000000001976a9140ff773d1bec3d8eaa10d1b3cfaaef52f59bcb25288ac00000000"
    }, 
    {
      "txid": "a5db56e0bf4915a86e9d6a77e37e8e0a6aa236d6589a4301769df014223b947c",
      "hash": "a5db56e0bf4915a86e9d6a77e37e8e0a6aa236d6589a4301769df014223b947c",
      "version": 1,
      "size": 192,
      "vsize": 192,
      "locktime": 0,
      "vin": [
        {
          "txid": "174a7325d31727966db6fa3b33efa13e62ec9dcd6f6bb9454edc1d1326752efc",
          "vout": 0,
          "scriptSig": {
            "asm": "3045022100bfd82005ec433acf0f415dab04a5dfbfded023a9b34127a9a09e9c658f45b28f0220531d130739e85bf2187497de67a7587f5cff8ad7d84328bcd679433043ceb140[ALL] 02b87c6aa3512dd91f7365e1a95d01d4cd417011b28bbe681e9f7872368b8ce8f2",
            "hex": "483045022100bfd82005ec433acf0f415dab04a5dfbfded023a9b34127a9a09e9c658f45b28f0220531d130739e85bf2187497de67a7587f5cff8ad7d84328bcd679433043ceb140012102b87c6aa3512dd91f7365e1a95d01d4cd417011b28bbe681e9f7872368b8ce8f2"
          },
          "sequence": 4294967295
        }
      ],
      "vout": [
        {
          "value": 3.86900000,
          "n": 0,
          "scriptPubKey": {
            "asm": "OP_DUP OP_HASH160 00fcf2a8ce7d8bd58f51b862c194e177ff0314b2 OP_EQUALVERIFY OP_CHECKSIG",
            "hex": "76a91400fcf2a8ce7d8bd58f51b862c194e177ff0314b288ac",
            "reqSigs": 1,
            "type": "pubkeyhash",
            "addresses": [
              "LKKBHLhNXkEChfaTvTCVcU3QckbGcadKjZ"
            ]
          }
        }
      ],
      "hex": "0100000001fc2e7526131ddc4e45b96b6fcd9dec623ea1ef333bfab66d962717d325734a17000000006b483045022100bfd82005ec433acf0f415dab04a5dfbfded023a9b34127a9a09e9c658f45b28f0220531d130739e85bf2187497de67a7587f5cff8ad7d84328bcd679433043ceb140012102b87c6aa3512dd91f7365e1a95d01d4cd417011b28bbe681e9f7872368b8ce8f2ffffffff0120a00f17000000001976a91400fcf2a8ce7d8bd58f51b862c194e177ff0314b288ac00000000"
    }, 
    {
      "txid": "b1aed46fcb1b48a95bf344a7271752b4b7c564fd7708099391aa09ce3d5128b2",
      "hash": "b1aed46fcb1b48a95bf344a7271752b4b7c564fd7708099391aa09ce3d5128b2",
      "version": 1,
      "size": 372,
      "vsize": 372,
      "locktime": 1360335,
      "vin": [
        {
          "txid": "d89701df883fc631fa2bac50a7ee21dad384dd49f8c1d1f3608394b752b16c86",
          "vout": 754,
          "scriptSig": {
            "asm": "304402203bc446cdb13603444b9751ac7bd1ba07912c3e25b06082688ae802819216ab8302202a6d5c86c60d4d94d50879fc982431ad5819c0616b297132ea63409c409a5c9d[ALL] 03688ef9f7cac40cd06a6747cabfe1bb74dd86ed3e45f87451b3697205bf0011be",
            "hex": "47304402203bc446cdb13603444b9751ac7bd1ba07912c3e25b06082688ae802819216ab8302202a6d5c86c60d4d94d50879fc982431ad5819c0616b297132ea63409c409a5c9d012103688ef9f7cac40cd06a6747cabfe1bb74dd86ed3e45f87451b3697205bf0011be"
          },
          "sequence": 4294967294
        }, 
        {
          "txid": "5afeaa8119f1b99b298e7681c04299138a436fda8443b17786da4d32a31b89a4",
          "vout": 0,
          "scriptSig": {
            "asm": "3044022033be1eb32d4af41cb76e395f15abe03d7687ab0127d17f515c13a3b3422fb22c0220335b42c470f116574ef15591374cd8c613a9e70b5c5a43d111df20632e16d10b[ALL] 037611d23fb4b003112507b1861e944e390e5e2ed3ae593578d40b12deab180495",
            "hex": "473044022033be1eb32d4af41cb76e395f15abe03d7687ab0127d17f515c13a3b3422fb22c0220335b42c470f116574ef15591374cd8c613a9e70b5c5a43d111df20632e16d10b0121037611d23fb4b003112507b1861e944e390e5e2ed3ae593578d40b12deab180495"
          },
          "sequence": 4294967294
        }
      ],
      "vout": [
        {
          "value": 0.01000003,
          "n": 0,
          "scriptPubKey": {
            "asm": "OP_DUP OP_HASH160 c1b175c5390e47f5176a2745995d31edacd3d9ed OP_EQUALVERIFY OP_CHECKSIG",
            "hex": "76a914c1b175c5390e47f5176a2745995d31edacd3d9ed88ac",
            "reqSigs": 1,
            "type": "pubkeyhash",
            "addresses": [
              "Lct7GNmMG6h5JCFru9dXZ4rrHPxZMXx4bB"
            ]
          }
        }, 
        {
          "value": 0.83206294,
          "n": 1,
          "scriptPubKey": {
            "asm": "OP_DUP OP_HASH160 c4fbc80dfa4bba25893ccf2f2959795e566eb3d0 OP_EQUALVERIFY OP_CHECKSIG",
            "hex": "76a914c4fbc80dfa4bba25893ccf2f2959795e566eb3d088ac",
            "reqSigs": 1,
            "type": "pubkeyhash",
            "addresses": [
              "LdBWKtqUQGqo9RBEm6arQszK2KmFfdMms9"
            ]
          }
        }
      ],
      "hex": "0100000002866cb152b7948360f3d1c1f849dd84d3da21eea750ac2bfa31c63f88df0197d8f20200006a47304402203bc446cdb13603444b9751ac7bd1ba07912c3e25b06082688ae802819216ab8302202a6d5c86c60d4d94d50879fc982431ad5819c0616b297132ea63409c409a5c9d012103688ef9f7cac40cd06a6747cabfe1bb74dd86ed3e45f87451b3697205bf0011befeffffffa4891ba3324dda8677b14384da6f438a139942c081768e299bb9f11981aafe5a000000006a473044022033be1eb32d4af41cb76e395f15abe03d7687ab0127d17f515c13a3b3422fb22c0220335b42c470f116574ef15591374cd8c613a9e70b5c5a43d111df20632e16d10b0121037611d23fb4b003112507b1861e944e390e5e2ed3ae593578d40b12deab180495feffffff0243420f00000000001976a914c1b175c5390e47f5176a2745995d31edacd3d9ed88ac96a0f504000000001976a914c4fbc80dfa4bba25893ccf2f2959795e566eb3d088accfc11400"
    }, 
    {
      "txid": "c647cbba9cafc6229050252bf367ae5a0cdc75b113df7b02cc8dcfbc37041f0d",
      "hash": "c647cbba9cafc6229050252bf367ae5a0cdc75b113df7b02cc8dcfbc37041f0d",
      "version": 1,
      "size": 260,
      "vsize": 260,
      "locktime": 0,
      "vin": [
        {
          "txid": "5e7a7139b9e965c6c3a62a8e9017eac2b005ce89397fe7cf7e49128c24961c72",
          "vout": 0,
          "scriptSig": {
            "asm": "3045022100c32a4bcb0c3e71d82011a9c357b657b21c7d7ea7dafef8ff932b1f066ac4f58b02202836745851c9dfa111ff261930492cd0ccbec2d7309d1068d6624ccd39db8b31[ALL] 02d9c05892fcfab95c05958f0286c1840ced6abceb32b87f96dd4bf161086c980d",
            "hex": "483045022100c32a4bcb0c3e71d82011a9c357b657b21c7d7ea7dafef8ff932b1f066ac4f58b02202836745851c9dfa111ff261930492cd0ccbec2d7309d1068d6624ccd39db8b31012102d9c05892fcfab95c05958f0286c1840ced6abceb32b87f96dd4bf161086c980d"
          },
          "sequence": 4294967295
        }
      ],
      "vout": [
        {
          "value": 2.99000000,
          "n": 0,
          "scriptPubKey": {
            "asm": "OP_DUP OP_HASH160 91277d66796bbf341e4f4c2640d6dc7e8209fbe3 OP_EQUALVERIFY OP_CHECKSIG",
            "hex": "76a91491277d66796bbf341e4f4c2640d6dc7e8209fbe388ac",
            "reqSigs": 1,
            "type": "pubkeyhash",
            "addresses": [
              "LYTTYq9ZhoZe8MKrBFMdiAqXvdAzk4EDq8"
            ]
          }
        }, 
        {
          "value": 4.01408717,
          "n": 1,
          "scriptPubKey": {
            "asm": "OP_DUP OP_HASH160 ab848f8234af80d01449cf7a5451039d92e7e6b9 OP_EQUALVERIFY OP_CHECKSIG",
            "hex": "76a914ab848f8234af80d01449cf7a5451039d92e7e6b988ac",
            "reqSigs": 1,
            "type": "pubkeyhash",
            "addresses": [
              "LarrcVBFCjH7PoPt4yvucz2qAL5B4puJfG"
            ]
          }
        }, 
        {
          "value": 1.00000000,
          "n": 2,
          "scriptPubKey": {
            "asm": "OP_DUP OP_HASH160 1fa9a85794e0649f46b3dc9588ce78ad679b796c OP_EQUALVERIFY OP_CHECKSIG",
            "hex": "76a9141fa9a85794e0649f46b3dc9588ce78ad679b796c88ac",
            "reqSigs": 1,
            "type": "pubkeyhash",
            "addresses": [
              "LN7NTB8gypb8mFntrd3jYeEu324FCt72k6"
            ]
          }
        }
      ],
      "hex": "0100000001721c96248c12497ecfe77f3989ce05b0c2ea17908e2aa6c3c665e9b939717a5e000000006b483045022100c32a4bcb0c3e71d82011a9c357b657b21c7d7ea7dafef8ff932b1f066ac4f58b02202836745851c9dfa111ff261930492cd0ccbec2d7309d1068d6624ccd39db8b31012102d9c05892fcfab95c05958f0286c1840ced6abceb32b87f96dd4bf161086c980dffffffff03c060d211000000001976a91491277d66796bbf341e4f4c2640d6dc7e8209fbe388accd02ed17000000001976a914ab848f8234af80d01449cf7a5451039d92e7e6b988ac00e1f505000000001976a9141fa9a85794e0649f46b3dc9588ce78ad679b796c88ac00000000"
    }, 
    {
      "txid": "559ff49d36c99a7e339b4a437fed3f17b79d7fc340b5886d14be3a5a3a57c90c",
      "hash": "559ff49d36c99a7e339b4a437fed3f17b79d7fc340b5886d14be3a5a3a57c90c",
      "version": 2,
      "size": 225,
      "vsize": 225,
      "locktime": 1360335,
      "vin": [
        {
          "txid": "fee50c954738099518b233b96460951f75e7dcef35c4668967e3745b1d1161ff",
          "vout": 1,
          "scriptSig": {
            "asm": "3044022076274fe386679c643060045e5771d30d61975aeb0534c7eaaa0b79ffc91e4260022054eddae6cd017fd50a998e2580dcb947683642f7849bd14c532cdda5d3337e5f[ALL] 0319f9edfde25c7e4d5c53b07c5515d52508ad9280c8d60b1bd4e69f1f59caafef",
            "hex": "473044022076274fe386679c643060045e5771d30d61975aeb0534c7eaaa0b79ffc91e4260022054eddae6cd017fd50a998e2580dcb947683642f7849bd14c532cdda5d3337e5f01210319f9edfde25c7e4d5c53b07c5515d52508ad9280c8d60b1bd4e69f1f59caafef"
          },
          "sequence": 4294967294
        }
      ],
      "vout": [
        {
          "value": 1.84278000,
          "n": 0,
          "scriptPubKey": {
            "asm": "OP_DUP OP_HASH160 8cb8ae58351791f74546a0bdd14c04d88225ce84 OP_EQUALVERIFY OP_CHECKSIG",
            "hex": "76a9148cb8ae58351791f74546a0bdd14c04d88225ce8488ac",
            "reqSigs": 1,
            "type": "pubkeyhash",
            "addresses": [
              "LY426w2xVixF6mntqBPdCAdJDZm4aVZqvX"
            ]
          }
        }, 
        {
          "value": 1.77500000,
          "n": 1,
          "scriptPubKey": {
            "asm": "OP_DUP OP_HASH160 8636241936c0ea2a36f945d9aafd4b137424e812 OP_EQUALVERIFY OP_CHECKSIG",
            "hex": "76a9148636241936c0ea2a36f945d9aafd4b137424e81288ac",
            "reqSigs": 1,
            "type": "pubkeyhash",
            "addresses": [
              "LXTbfheR6VvJ14hG7n6uCpYx352vCWeAVf"
            ]
          }
        }
      ],
      "hex": "0200000001ff61111d5b74e3678966c435efdce7751f956064b933b21895093847950ce5fe010000006a473044022076274fe386679c643060045e5771d30d61975aeb0534c7eaaa0b79ffc91e4260022054eddae6cd017fd50a998e2580dcb947683642f7849bd14c532cdda5d3337e5f01210319f9edfde25c7e4d5c53b07c5515d52508ad9280c8d60b1bd4e69f1f59caafeffeffffff02f0dbfb0a000000001976a9148cb8ae58351791f74546a0bdd14c04d88225ce8488ac606f940a000000001976a9148636241936c0ea2a36f945d9aafd4b137424e81288accfc11400"
    }, 
    {
      "txid": "011f8de5ebd503cf72c78ceeb4ad30f927fbffacf24c3fa557c576f7b6b31b20",
      "hash": "011f8de5ebd503cf72c78ceeb4ad30f927fbffacf24c3fa557c576f7b6b31b20",
      "version": 1,
      "size": 225,
      "vsize": 225,
      "locktime": 0,
      "vin": [
        {
          "txid": "df9cbdc7ced2440f239664c8a38b5aec52eed36008ddda1b7074ecd11139d311",
          "vout": 0,
          "scriptSig": {
            "asm": "304402200c35a562b9d67a297e2458ee58594b0869d2a81894168c51107e68a68377397202204b8476fa4ab32dd6e2324cdc063038764d700d4bdfd2a1a53bea2e34d662ee48[ALL] 02893b8de20580c7ec11f1a25693ad1da3827b0237a1b763880759a75da65eecd1",
            "hex": "47304402200c35a562b9d67a297e2458ee58594b0869d2a81894168c51107e68a68377397202204b8476fa4ab32dd6e2324cdc063038764d700d4bdfd2a1a53bea2e34d662ee48012102893b8de20580c7ec11f1a25693ad1da3827b0237a1b763880759a75da65eecd1"
          },
          "sequence": 4294967295
        }
      ],
      "vout": [
        {
          "value": 0.00055232,
          "n": 0,
          "scriptPubKey": {
            "asm": "OP_DUP OP_HASH160 0d67685df48a6a89fef8c6a680de76b86ad28e3e OP_EQUALVERIFY OP_CHECKSIG",
            "hex": "76a9140d67685df48a6a89fef8c6a680de76b86ad28e3e88ac",
            "reqSigs": 1,
            "type": "pubkeyhash",
            "addresses": [
              "LLSpvbg37gwzgv5rbWinCtuRNNFPJBEKX3"
            ]
          }
        }, 
        {
          "value": 0.00500000,
          "n": 1,
          "scriptPubKey": {
            "asm": "OP_DUP OP_HASH160 accb6c1b4b259d4c60160f6684bf48f8b30402a3 OP_EQUALVERIFY OP_CHECKSIG",
            "hex": "76a914accb6c1b4b259d4c60160f6684bf48f8b30402a388ac",
            "reqSigs": 1,
            "type": "pubkeyhash",
            "addresses": [
              "LaycBEfeShx55X8w89e2EPhsGS8kFcDvN4"
            ]
          }
        }
      ],
      "hex": "010000000111d33911d1ec74701bdadd0860d3ee52ec5a8ba3c86496230f44d2cec7bd9cdf000000006a47304402200c35a562b9d67a297e2458ee58594b0869d2a81894168c51107e68a68377397202204b8476fa4ab32dd6e2324cdc063038764d700d4bdfd2a1a53bea2e34d662ee48012102893b8de20580c7ec11f1a25693ad1da3827b0237a1b763880759a75da65eecd1ffffffff02c0d70000000000001976a9140d67685df48a6a89fef8c6a680de76b86ad28e3e88ac20a10700000000001976a914accb6c1b4b259d4c60160f6684bf48f8b30402a388ac00000000"
    }, 
    {
      "txid": "9e0f8bdc00410901c5daf4873a08eb0c772b78a4c6e0254bf6b71d1c80dc0f67",
      "hash": "9e0f8bdc00410901c5daf4873a08eb0c772b78a4c6e0254bf6b71d1c80dc0f67",
      "version": 1,
      "size": 225,
      "vsize": 225,
      "locktime": 0,
      "vin": [
        {
          "txid": "59da443ba902855db357553a07fc4bbc359c9a26fc5bf9a5b332c4ffc228381d",
          "vout": 0,
          "scriptSig": {
            "asm": "304402204f2961169257f139933c2a666127b77d6841230fdae24690e934ce454ab3db9a02201fd9a27e4b86a8e9665520745e584fc1a5956ffb0bdc63f314ec872623a18bf1[ALL] 03b2506fff44221f499c2bccaee1c42a8e88dce6073194c0527d0516523a57944a",
            "hex": "47304402204f2961169257f139933c2a666127b77d6841230fdae24690e934ce454ab3db9a02201fd9a27e4b86a8e9665520745e584fc1a5956ffb0bdc63f314ec872623a18bf1012103b2506fff44221f499c2bccaee1c42a8e88dce6073194c0527d0516523a57944a"
          },
          "sequence": 4294967295
        }
      ],
      "vout": [
        {
          "value": 0.03535540,
          "n": 0,
          "scriptPubKey": {
            "asm": "OP_DUP OP_HASH160 b907940cee5b7f2ddbb408be71982a966a6a6e73 OP_EQUALVERIFY OP_CHECKSIG",
            "hex": "76a914b907940cee5b7f2ddbb408be71982a966a6a6e7388ac",
            "reqSigs": 1,
            "type": "pubkeyhash",
            "addresses": [
              "Lc6JMFcMf5oGJiqpG4XSBHdqzTdwgegdb1"
            ]
          }
        }, 
        {
          "value": 28.50000000,
          "n": 1,
          "scriptPubKey": {
            "asm": "OP_DUP OP_HASH160 d26e67000f010b0fec9444a9a66585beb654b459 OP_EQUALVERIFY OP_CHECKSIG",
            "hex": "76a914d26e67000f010b0fec9444a9a66585beb654b45988ac",
            "reqSigs": 1,
            "type": "pubkeyhash",
            "addresses": [
              "LeQcRPPQRSAvuSVpoLKxDgXajSZF6p7FZg"
            ]
          }
        }
      ],
      "hex": "01000000011d3828c2ffc432b3a5f95bfc269a9c35bc4bfc073a5557b35d8502a93b44da59000000006a47304402204f2961169257f139933c2a666127b77d6841230fdae24690e934ce454ab3db9a02201fd9a27e4b86a8e9665520745e584fc1a5956ffb0bdc63f314ec872623a18bf1012103b2506fff44221f499c2bccaee1c42a8e88dce6073194c0527d0516523a57944affffffff02b4f23500000000001976a914b907940cee5b7f2ddbb408be71982a966a6a6e7388ac808cdfa9000000001976a914d26e67000f010b0fec9444a9a66585beb654b45988ac00000000"
    }, 
    {
      "txid": "944a8e41c9b43f61e3f1e83cbf71505791275c90b60e5cecedee64cca1f13c12",
      "hash": "944a8e41c9b43f61e3f1e83cbf71505791275c90b60e5cecedee64cca1f13c12",
      "version": 1,
      "size": 543,
      "vsize": 543,
      "locktime": 1360335,
      "vin": [
        {
          "txid": "a0c7a625385279d93e10a8bd84bf13b549097f2b3e841d7bb89d131ce36a4d36",
          "vout": 7,
          "scriptSig": {
            "asm": "304402203c0df73dd7964e96d1164b5dcfa3696c70ae36fc44c6fa8c32a225c2cebcbb680220739ef61cdbb2f9e17d43a7bbe30262e4ad0a0651c20f855fcac41650f77a505c[ALL] 0291387d10a39310786f1b36cd16463cea0483181a96a1fc178cf34e2f25e78fe9",
            "hex": "47304402203c0df73dd7964e96d1164b5dcfa3696c70ae36fc44c6fa8c32a225c2cebcbb680220739ef61cdbb2f9e17d43a7bbe30262e4ad0a0651c20f855fcac41650f77a505c01210291387d10a39310786f1b36cd16463cea0483181a96a1fc178cf34e2f25e78fe9"
          },
          "sequence": 4294967294
        }, 
        {
          "txid": "2df826391df25692f74ffab0e024d647010583bcf6b18bf99a9cefd1e5b49cc3",
          "vout": 0,
          "scriptSig": {
            "asm": "3045022100d1661a691ba561099ef5cd0e96fda1b225b7f8e74794c30a0828bebed93b3895022076f58d3930811017e12fb1b336d2151829f0c287c189591d4088f7c35b5fc2fe[ALL] 038d81879b7ca3c0be3b3ea5b9efae9aebab970da43d28e9b9ecd35e5c82d2f67c",
            "hex": "483045022100d1661a691ba561099ef5cd0e96fda1b225b7f8e74794c30a0828bebed93b3895022076f58d3930811017e12fb1b336d2151829f0c287c189591d4088f7c35b5fc2fe0121038d81879b7ca3c0be3b3ea5b9efae9aebab970da43d28e9b9ecd35e5c82d2f67c"
          },
          "sequence": 4294967294
        }
      ],
      "vout": [
        {
          "value": 0.20301932,
          "n": 0,
          "scriptPubKey": {
            "asm": "OP_DUP OP_HASH160 dbd5cb88820b47144b5d1cb3a3dbbe033cd52d3d OP_EQUALVERIFY OP_CHECKSIG",
            "hex": "76a914dbd5cb88820b47144b5d1cb3a3dbbe033cd52d3d88ac",
            "reqSigs": 1,
            "type": "pubkeyhash",
            "addresses": [
              "LfGLMxtnr3izjv1ZZuzSQGaSpNvqbUQbLB"
            ]
          }
        }, 
        {
          "value": 1.01030304,
          "n": 1,
          "scriptPubKey": {
            "asm": "OP_DUP OP_HASH160 b0fd7aa507fc94f76c2e61473acf17d06d2d4d24 OP_EQUALVERIFY OP_CHECKSIG",
            "hex": "76a914b0fd7aa507fc94f76c2e61473acf17d06d2d4d2488ac",
            "reqSigs": 1,
            "type": "pubkeyhash",
            "addresses": [
              "LbMnr1ZQzTfNgnm8a8kk5WkA2V1ka21ayJ"
            ]
          }
        }, 
        {
          "value": 0.10121604,
          "n": 2,
          "scriptPubKey": {
            "asm": "OP_DUP OP_HASH160 5fdf91d078ff30a0b0ba0c2c4e818cbd28337791 OP_EQUALVERIFY OP_CHECKSIG",
            "hex": "76a9145fdf91d078ff30a0b0ba0c2c4e818cbd2833779188ac",
            "reqSigs": 1,
            "type": "pubkeyhash",
            "addresses": [
              "LTxtHKkiEzkwFwjU2asVmBxwRYnNG24B45"
            ]
          }
        }, 
        {
          "value": 0.20401229,
          "n": 3,
          "scriptPubKey": {
            "asm": "OP_DUP OP_HASH160 951ab50891499381471d84b5164e349c0d9ec30f OP_EQUALVERIFY OP_CHECKSIG",
            "hex": "76a914951ab50891499381471d84b5164e349c0d9ec30f88ac",
            "reqSigs": 1,
            "type": "pubkeyhash",
            "addresses": [
              "LYpLwSan33PHUHtW6XDzADLJ9M28EZaCJT"
            ]
          }
        }, 
        {
          "value": 0.09598013,
          "n": 4,
          "scriptPubKey": {
            "asm": "OP_DUP OP_HASH160 666cfb86e445d9fac84676c01f9dd8f925747928 OP_EQUALVERIFY OP_CHECKSIG",
            "hex": "76a914666cfb86e445d9fac84676c01f9dd8f92574792888ac",
            "reqSigs": 1,
            "type": "pubkeyhash",
            "addresses": [
              "LUZXk22JQd1hnXRbtkpWXiHads1joE9ycf"
            ]
          }
        }, 
        {
          "value": 0.09982322,
          "n": 5,
          "scriptPubKey": {
            "asm": "OP_DUP OP_HASH160 48e8ba5f7859f33bc93588895a6392711a6680bb OP_EQUALVERIFY OP_CHECKSIG",
            "hex": "76a91448e8ba5f7859f33bc93588895a6392711a6680bb88ac",
            "reqSigs": 1,
            "type": "pubkeyhash",
            "addresses": [
              "LRsTiFWqNBcXmrQ9NiKUvbWVTtMEUAJLpE"
            ]
          }
        }, 
        {
          "value": 0.13624747,
          "n": 6,
          "scriptPubKey": {
            "asm": "OP_DUP OP_HASH160 3742178a477105b8e13ccd588be71a7d5c95256e OP_EQUALVERIFY OP_CHECKSIG",
            "hex": "76a9143742178a477105b8e13ccd588be71a7d5c95256e88ac",
            "reqSigs": 1,
            "type": "pubkeyhash",
            "addresses": [
              "LQG8buv3ZTH8zdmnJtWhjjf24XCVheh5RW"
            ]
          }
        }
      ],
      "hex": "0100000002364d6ae31c139db87b1d843e2b7f0949b513bf84bda8103ed979523825a6c7a0070000006a47304402203c0df73dd7964e96d1164b5dcfa3696c70ae36fc44c6fa8c32a225c2cebcbb680220739ef61cdbb2f9e17d43a7bbe30262e4ad0a0651c20f855fcac41650f77a505c01210291387d10a39310786f1b36cd16463cea0483181a96a1fc178cf34e2f25e78fe9feffffffc39cb4e5d1ef9c9af98bb1f6bc83050147d624e0b0fa4ff79256f21d3926f82d000000006b483045022100d1661a691ba561099ef5cd0e96fda1b225b7f8e74794c30a0828bebed93b3895022076f58d3930811017e12fb1b336d2151829f0c287c189591d4088f7c35b5fc2fe0121038d81879b7ca3c0be3b3ea5b9efae9aebab970da43d28e9b9ecd35e5c82d2f67cfeffffff076cc83501000000001976a914dbd5cb88820b47144b5d1cb3a3dbbe033cd52d3d88aca0990506000000001976a914b0fd7aa507fc94f76c2e61473acf17d06d2d4d2488ac84719a00000000001976a9145fdf91d078ff30a0b0ba0c2c4e818cbd2833779188ac4d4c3701000000001976a914951ab50891499381471d84b5164e349c0d9ec30f88ac3d749200000000001976a914666cfb86e445d9fac84676c01f9dd8f92574792888ac72519800000000001976a91448e8ba5f7859f33bc93588895a6392711a6680bb88acabe5cf00000000001976a9143742178a477105b8e13ccd588be71a7d5c95256e88accfc11400"
    }, 
    {
      "txid": "5768d8c63ff9879bdcd36106c06afc6d3fb02d302ef15904b3025612dbde2f0e",
      "hash": "5768d8c63ff9879bdcd36106c06afc6d3fb02d302ef15904b3025612dbde2f0e",
      "version": 1,
      "size": 226,
      "vsize": 226,
      "locktime": 0,
      "vin": [
        {
          "txid": "3a279e10ab026c7653ed862d4807476b53898eb7a48757625f34f461125e0e17",
          "vout": 28,
          "scriptSig": {
            "asm": "3045022100c43361b8307ebe3f2175ed0d597e54be14eaef29fa8f2c66ad7fd6c7b15eb57c02202dda34ce1c538402d2e21d7bb41197df2da77cdd9a5323fcd348075e49c9ef43[ALL] 031d7506533ba933c7f3a7c1f81a17e9259d8244f66aa9768d24b8589076d774a7",
            "hex": "483045022100c43361b8307ebe3f2175ed0d597e54be14eaef29fa8f2c66ad7fd6c7b15eb57c02202dda34ce1c538402d2e21d7bb41197df2da77cdd9a5323fcd348075e49c9ef430121031d7506533ba933c7f3a7c1f81a17e9259d8244f66aa9768d24b8589076d774a7"
          },
          "sequence": 4294967295
        }
      ],
      "vout": [
        {
          "value": 0.07255405,
          "n": 0,
          "scriptPubKey": {
            "asm": "OP_DUP OP_HASH160 0ed82dc60091d8238612f65a955576333b1b60df OP_EQUALVERIFY OP_CHECKSIG",
            "hex": "76a9140ed82dc60091d8238612f65a955576333b1b60df88ac",
            "reqSigs": 1,
            "type": "pubkeyhash",
            "addresses": [
              "LLaShGLGAad4LSRxddMV19nHFwgz7Pyt4u"
            ]
          }
        }, 
        {
          "value": 0.72170995,
          "n": 1,
          "scriptPubKey": {
            "asm": "OP_DUP OP_HASH160 0e305a6a7363c4b080cdc4028ce7177bd6feecc3 OP_EQUALVERIFY OP_CHECKSIG",
            "hex": "76a9140e305a6a7363c4b080cdc4028ce7177bd6feecc388ac",
            "reqSigs": 1,
            "type": "pubkeyhash",
            "addresses": [
              "LLWyeY6aQUMgZPK4mjByxo1TXXJWiQqqa9"
            ]
          }
        }
      ],
      "hex": "0100000001170e5e1261f4345f625787a4b78e89536b4707482d86ed53766c02ab109e273a1c0000006b483045022100c43361b8307ebe3f2175ed0d597e54be14eaef29fa8f2c66ad7fd6c7b15eb57c02202dda34ce1c538402d2e21d7bb41197df2da77cdd9a5323fcd348075e49c9ef430121031d7506533ba933c7f3a7c1f81a17e9259d8244f66aa9768d24b8589076d774a7ffffffff026db56e00000000001976a9140ed82dc60091d8238612f65a955576333b1b60df88acf33d4d04000000001976a9140e305a6a7363c4b080cdc4028ce7177bd6feecc388ac00000000"
    }, 
    {
      "txid": "2dd7970e3f140c2886677f696840b4bc21bcf656bd4e3d4349effdfc9ee48415",
      "hash": "2dd7970e3f140c2886677f696840b4bc21bcf656bd4e3d4349effdfc9ee48415",
      "version": 1,
      "size": 226,
      "vsize": 226,
      "locktime": 0,
      "vin": [
        {
          "txid": "68b2d1749ae90d85d41d6ecb2bb3326f63fbdd09a321c5bfe2e0683b8c628720",
          "vout": 0,
          "scriptSig": {
            "asm": "3045022100eb5f4120eddb321418343598002d20c6c409a3c31b847d8b07a87c1b8f872b3b022068434862b3d848ffeb2e0d59289d7094c9eefa11b5224066214ffdd2d4abbd99[ALL] 022a0e03acf685f8966548f2d3eeed1f5d733a99c0a2b5ced7e56a690d594d8edd",
            "hex": "483045022100eb5f4120eddb321418343598002d20c6c409a3c31b847d8b07a87c1b8f872b3b022068434862b3d848ffeb2e0d59289d7094c9eefa11b5224066214ffdd2d4abbd990121022a0e03acf685f8966548f2d3eeed1f5d733a99c0a2b5ced7e56a690d594d8edd"
          },
          "sequence": 4294967295
        }
      ],
      "vout": [
        {
          "value": 7.03609793,
          "n": 0,
          "scriptPubKey": {
            "asm": "OP_DUP OP_HASH160 c477a0fa3d86d5701e1b68aa448ed96c6505d7d0 OP_EQUALVERIFY OP_CHECKSIG",
            "hex": "76a914c477a0fa3d86d5701e1b68aa448ed96c6505d7d088ac",
            "reqSigs": 1,
            "type": "pubkeyhash",
            "addresses": [
              "Ld8n1mV7S3BN5zBXSh5hqg2Nq4ykPbSpbG"
            ]
          }
        }, 
        {
          "value": 2.33772260,
          "n": 1,
          "scriptPubKey": {
            "asm": "OP_DUP OP_HASH160 6b8f7754f900785eb934de4822b18c82bee3a15e OP_EQUALVERIFY OP_CHECKSIG",
            "hex": "76a9146b8f7754f900785eb934de4822b18c82bee3a15e88ac",
            "reqSigs": 1,
            "type": "pubkeyhash",
            "addresses": [
              "LV2gRwXxJ3K1NDUL5uXqxkjgR4jK7Bo8h3"
            ]
          }
        }
      ],
      "hex": "01000000012087628c3b68e0e2bfc521a309ddfb636f32b32bcb6e1dd4850de99a74d1b268000000006b483045022100eb5f4120eddb321418343598002d20c6c409a3c31b847d8b07a87c1b8f872b3b022068434862b3d848ffeb2e0d59289d7094c9eefa11b5224066214ffdd2d4abbd990121022a0e03acf685f8966548f2d3eeed1f5d733a99c0a2b5ced7e56a690d594d8eddffffffff02c13bf029000000001976a914c477a0fa3d86d5701e1b68aa448ed96c6505d7d088ace414ef0d000000001976a9146b8f7754f900785eb934de4822b18c82bee3a15e88ac00000000"
    }, 
    {
      "txid": "47b98a12c2abe3207f7b168954471f75d14f010959b5995cf648b78dbb484d3a",
      "hash": "47b98a12c2abe3207f7b168954471f75d14f010959b5995cf648b78dbb484d3a",
      "version": 2,
      "size": 226,
      "vsize": 226,
      "locktime": 1360335,
      "vin": [
        {
          "txid": "af0deabf2222b077b2aab325507f90587bf50565697a21a6f0ad11e937256bb8",
          "vout": 9,
          "scriptSig": {
            "asm": "3045022100953ddab856e620d7bbf45f3d3a63e5585210a3c70504c83e87a6e04fe3959c1d0220696e648098cd8c090295c5cabff41e048f8e4cdc1ab8c1b74071747de5bca9a8[ALL] 026d17890d1c3f70a02cfcbb3ab49ed6def704d712627c946c2cb5b286b15eed3e",
            "hex": "483045022100953ddab856e620d7bbf45f3d3a63e5585210a3c70504c83e87a6e04fe3959c1d0220696e648098cd8c090295c5cabff41e048f8e4cdc1ab8c1b74071747de5bca9a80121026d17890d1c3f70a02cfcbb3ab49ed6def704d712627c946c2cb5b286b15eed3e"
          },
          "sequence": 4294967294
        }
      ],
      "vout": [
        {
          "value": 0.39098050,
          "n": 0,
          "scriptPubKey": {
            "asm": "OP_DUP OP_HASH160 a9e8cc16393aeea15978c4cc5f2432177d571a6d OP_EQUALVERIFY OP_CHECKSIG",
            "hex": "76a914a9e8cc16393aeea15978c4cc5f2432177d571a6d88ac",
            "reqSigs": 1,
            "type": "pubkeyhash",
            "addresses": [
              "LaiMLfbszaaMkxm34KAMYDi8dnAkcWjjmk"
            ]
          }
        }, 
        {
          "value": 0.20879350,
          "n": 1,
          "scriptPubKey": {
            "asm": "OP_DUP OP_HASH160 cfdccb14d178ac2ef2e72ba5107ce23d17a71d88 OP_EQUALVERIFY OP_CHECKSIG",
            "hex": "76a914cfdccb14d178ac2ef2e72ba5107ce23d17a71d8888ac",
            "reqSigs": 1,
            "type": "pubkeyhash",
            "addresses": [
              "LeB2due6WRJxq98zTMZ1KLanTUWzC1wvze"
            ]
          }
        }
      ],
      "hex": "0200000001b86b2537e911adf0a6217a696505f57b58907f5025b3aab277b02222bfea0daf090000006b483045022100953ddab856e620d7bbf45f3d3a63e5585210a3c70504c83e87a6e04fe3959c1d0220696e648098cd8c090295c5cabff41e048f8e4cdc1ab8c1b74071747de5bca9a80121026d17890d1c3f70a02cfcbb3ab49ed6def704d712627c946c2cb5b286b15eed3efeffffff02c2965402000000001976a914a9e8cc16393aeea15978c4cc5f2432177d571a6d88acf6973e01000000001976a914cfdccb14d178ac2ef2e72ba5107ce23d17a71d8888accfc11400"
    }, 
    {
      "txid": "2c680aed6c4ebcb286a7814b0cbcb99f604cb797dedb94d7d21bab7df5be3377",
      "hash": "2c680aed6c4ebcb286a7814b0cbcb99f604cb797dedb94d7d21bab7df5be3377",
      "version": 1,
      "size": 226,
      "vsize": 226,
      "locktime": 0,
      "vin": [
        {
          "txid": "ab2dee78b5f62b50503862098c49bc9ac3877ec71fdd4bba5b02ef8569cec93e",
          "vout": 11,
          "scriptSig": {
            "asm": "3045022100ec3b3a008b86a94fcfd8b9b6b5b5b20d5abd140d0ea7f2629a3cad5e4dd135f602206ae9e93c18d3ce1a792e9e26a4d95b3a3d1f3d2d62959217927ca194264ef2b5[ALL] 02479039d4e50f06a79ef9de0f36e368930764528ff6bd1ed5a5cd4ed5bb569c14",
            "hex": "483045022100ec3b3a008b86a94fcfd8b9b6b5b5b20d5abd140d0ea7f2629a3cad5e4dd135f602206ae9e93c18d3ce1a792e9e26a4d95b3a3d1f3d2d62959217927ca194264ef2b5012102479039d4e50f06a79ef9de0f36e368930764528ff6bd1ed5a5cd4ed5bb569c14"
          },
          "sequence": 4294967295
        }
      ],
      "vout": [
        {
          "value": 2.61897598,
          "n": 0,
          "scriptPubKey": {
            "asm": "OP_DUP OP_HASH160 c956b04f9a45a8e95d149055e18a17945a54ad75 OP_EQUALVERIFY OP_CHECKSIG",
            "hex": "76a914c956b04f9a45a8e95d149055e18a17945a54ad7588ac",
            "reqSigs": 1,
            "type": "pubkeyhash",
            "addresses": [
              "LdaXw1SZYjGSsy38wh9vdiu9Psn3K3VhrJ"
            ]
          }
        }, 
        {
          "value": 6.99241538,
          "n": 1,
          "scriptPubKey": {
            "asm": "OP_DUP OP_HASH160 3ae8095a7b8b9702a3bd873ab17b728b445642ec OP_EQUALVERIFY OP_CHECKSIG",
            "hex": "76a9143ae8095a7b8b9702a3bd873ab17b728b445642ec88ac",
            "reqSigs": 1,
            "type": "pubkeyhash",
            "addresses": [
              "LQbRRX8tRbWpMXdkGFs9foU26Py3WkAFxb"
            ]
          }
        }
      ],
      "hex": "01000000013ec9ce6985ef025bba4bdd1fc77e87c39abc498c09623850502bf6b578ee2dab0b0000006b483045022100ec3b3a008b86a94fcfd8b9b6b5b5b20d5abd140d0ea7f2629a3cad5e4dd135f602206ae9e93c18d3ce1a792e9e26a4d95b3a3d1f3d2d62959217927ca194264ef2b5012102479039d4e50f06a79ef9de0f36e368930764528ff6bd1ed5a5cd4ed5bb569c14ffffffff027e3d9c0f000000001976a914c956b04f9a45a8e95d149055e18a17945a54ad7588ac4294ad29000000001976a9143ae8095a7b8b9702a3bd873ab17b728b445642ec88ac00000000"
    }, 
    {
      "txid": "4b516ec8ba41a2cbac3caf9a389d41fa8896dc1e1a2dd51b26bed21b63f1368d",
      "hash": "4b516ec8ba41a2cbac3caf9a389d41fa8896dc1e1a2dd51b26bed21b63f1368d",
      "version": 2,
      "size": 226,
      "vsize": 226,
      "locktime": 1360335,
      "vin": [
        {
          "txid": "fd2b2c69c25feff3ef0a830ed419bb9bda450ff8d6df4dc3f394f18feacad8f3",
          "vout": 0,
          "scriptSig": {
            "asm": "30450221009de10be55e8a523dbe9fa3c511e5d016958adfc42845cab77b00f83f786c40af0220140325e3f5c919ab98745455d2c0ea39c8621081b47c123a81de47abd035882e[ALL] 025f397b813e83d827ca65065d256e5064fb50484bd436a0f4b5694f00745d4c4a",
            "hex": "4830450221009de10be55e8a523dbe9fa3c511e5d016958adfc42845cab77b00f83f786c40af0220140325e3f5c919ab98745455d2c0ea39c8621081b47c123a81de47abd035882e0121025f397b813e83d827ca65065d256e5064fb50484bd436a0f4b5694f00745d4c4a"
          },
          "sequence": 4294967294
        }
      ],
      "vout": [
        {
          "value": 1.22876000,
          "n": 0,
          "scriptPubKey": {
            "asm": "OP_DUP OP_HASH160 53f265b918f4a663f8b26c1cd1974e5d12e459f9 OP_EQUALVERIFY OP_CHECKSIG",
            "hex": "76a91453f265b918f4a663f8b26c1cd1974e5d12e459f988ac",
            "reqSigs": 1,
            "type": "pubkeyhash",
            "addresses": [
              "LSspjCTtzavkur8VoXNvcuZWbFzXdgj5Ff"
            ]
          }
        }, 
        {
          "value": 0.05950000,
          "n": 1,
          "scriptPubKey": {
            "asm": "OP_DUP OP_HASH160 897b15ba49df027473a5585379708369a4870c12 OP_EQUALVERIFY OP_CHECKSIG",
            "hex": "76a914897b15ba49df027473a5585379708369a4870c1288ac",
            "reqSigs": 1,
            "type": "pubkeyhash",
            "addresses": [
              "LXktHadrvGRxJGFgXesPCqoB1uT22AuHj9"
            ]
          }
        }
      ],
      "hex": "0200000001f3d8caea8ff194f3c34ddfd6f80f45da9bbb19d40e830aeff3ef5fc2692c2bfd000000006b4830450221009de10be55e8a523dbe9fa3c511e5d016958adfc42845cab77b00f83f786c40af0220140325e3f5c919ab98745455d2c0ea39c8621081b47c123a81de47abd035882e0121025f397b813e83d827ca65065d256e5064fb50484bd436a0f4b5694f00745d4c4afeffffff0260f05207000000001976a91453f265b918f4a663f8b26c1cd1974e5d12e459f988ac30ca5a00000000001976a914897b15ba49df027473a5585379708369a4870c1288accfc11400"
    }
  ],
  "time": 1517414944,
  "mediantime": 1517413824,
  "nonce": 496631754,
  "bits": "1a042eae",
  "difficulty": 4011378.762614286,
  "chainwork": "000000000000000000000000000000000000000000000034d835d2e351189ba4",
  "previousblockhash": "1f3780c4cb705c0081dcf6b10d43fa50da9bfa07050d7741fcf3717b04f67c23",
  "nextblockhash": "5d63e7a63c8f79e68715647c9770a8289d4022a98283649bbc48778331f8c75d"
}
