{
  "hash": "d9b9f0b4bbbb0617a6a399f3e8dbf0fd785a6c999420de7c42c0a291d03c45c3",
  "confirmations": 2474,
  "strippedsize": 2227,
  "size": 2263,
  "weight": 8944,
  "height": 1358521,
  "version": 536870912,
  "versionHex": "20000000",
  "merkleroot": "1ded09fcce91e4d9114d9a9dd573e7507136d393e28ef56ec31ae1b42afb0998",
  "tx": [
    {
      "txid": "7f1a4a0ba5d73a35c8a1a9db76b85f541a129e01c17da9b609e9e026a80f907e",
      "hash": "686d51c6f57f62eea5622b931b3d9428e449c452156b0002a991b6b1794f4d1f",
      "version": 1,
      "size": 277,
      "vsize": 250,
      "locktime": 950796852,
      "vin": [
        {
          "coinbase": "03b9ba142cfabe6d6dbe9de449d424b57b05f8c810b066ebfb482246827ac9e1b3cadc68ced4c2351f08000000f09f909f0f4d696e6564206279207777773030310000000000000000000000000000000000000000000000000000000000000000000000",
          "sequence": 3
        }
      ],
      "vout": [
        {
          "value": 25.00504400,
          "n": 0,
          "scriptPubKey": {
            "asm": "OP_DUP OP_HASH160 aa3750aa18b8a0f3f0590731e1fab934856680cf OP_EQUALVERIFY OP_CHECKSIG",
            "hex": "76a914aa3750aa18b8a0f3f0590731e1fab934856680cf88ac",
            "reqSigs": 1,
            "type": "pubkeyhash",
            "addresses": [
              "LajyQBeZaBA1NkZDeY8YT5RYYVRkXMvb2T"
            ]
          }
        }, 
        {
          "value": 0.00000000,
          "n": 1,
          "scriptPubKey": {
            "asm": "OP_RETURN aa21a9ed0cb5a05e49525077336430df22798d09f33726c59f34dba534c8db5086b46ca6 0000000000000000",
            "hex": "6a24aa21a9ed0cb5a05e49525077336430df22798d09f33726c59f34dba534c8db5086b46ca6080000000000000000",
            "type": "nulldata"
          }
        }
      ],
      "hex": "010000000001010000000000000000000000000000000000000000000000000000000000000000ffffffff6403b9ba142cfabe6d6dbe9de449d424b57b05f8c810b066ebfb482246827ac9e1b3cadc68ced4c2351f08000000f09f909f0f4d696e6564206279207777773030310000000000000000000000000000000000000000000000000000000000000000000000030000000250ab0a95000000001976a914aa3750aa18b8a0f3f0590731e1fab934856680cf88ac00000000000000002f6a24aa21a9ed0cb5a05e49525077336430df22798d09f33726c59f34dba534c8db5086b46ca6080000000000000000012000000000000000000000000000000000000000000000000000000000000000003402ac38"
    }, 
    {
      "txid": "a1ada56d8b38100c186f5be97e5d8c89508af34fd7d1a0a26078b90e6e864fdf",
      "hash": "a1ada56d8b38100c186f5be97e5d8c89508af34fd7d1a0a26078b90e6e864fdf",
      "version": 1,
      "size": 190,
      "vsize": 190,
      "locktime": 0,
      "vin": [
        {
          "txid": "fabdadf5741b294c7f009d756352f15f9843d5a89b79ea62e55b5ac9f1f03084",
          "vout": 37,
          "scriptSig": {
            "asm": "3045022100abefb7072be84d95b0c644b270f3beda4087291ba6092ca70018b690d563d57f022020c5fd3e1077c87e9e1af8c526b52ed482e8b4ffd81db1d621d1af5c1f5d4f3d[ALL] 0273521e943eabff6e80433fc21f5e66968ce135e8b022ed8728233f18521af41f",
            "hex": "483045022100abefb7072be84d95b0c644b270f3beda4087291ba6092ca70018b690d563d57f022020c5fd3e1077c87e9e1af8c526b52ed482e8b4ffd81db1d621d1af5c1f5d4f3d01210273521e943eabff6e80433fc21f5e66968ce135e8b022ed8728233f18521af41f"
          },
          "sequence": 4294967295
        }
      ],
      "vout": [
        {
          "value": 9.30858299,
          "n": 0,
          "scriptPubKey": {
            "asm": "OP_HASH160 4e4f1af29fdca755778c8a2ba1c5d9d8f37e09d9 OP_EQUAL",
            "hex": "a9144e4f1af29fdca755778c8a2ba1c5d9d8f37e09d987",
            "reqSigs": 1,
            "type": "scripthash",
            "addresses": [
              "MF3DhitnLuapFVkfhyGB8uUhA23DiLzLfo"
            ]
          }
        }
      ],
      "hex": "01000000018430f0f1c95a5be562ea799ba8d543985ff15263759d007f4c291b74f5adbdfa250000006b483045022100abefb7072be84d95b0c644b270f3beda4087291ba6092ca70018b690d563d57f022020c5fd3e1077c87e9e1af8c526b52ed482e8b4ffd81db1d621d1af5c1f5d4f3d01210273521e943eabff6e80433fc21f5e66968ce135e8b022ed8728233f18521af41fffffffff013bc57b370000000017a9144e4f1af29fdca755778c8a2ba1c5d9d8f37e09d98700000000"
    }, 
    {
      "txid": "2c1766f775a08598590cd93b780cb9c41c179404498310b12335400a901536ee",
      "hash": "2c1766f775a08598590cd93b780cb9c41c179404498310b12335400a901536ee",
      "version": 1,
      "size": 815,
      "vsize": 815,
      "locktime": 1358423,
      "vin": [
        {
          "txid": "266214f50c44f00ee3bc4ebde06164ce21f65eea775b3394b8f19d7e74eeb4fa",
          "vout": 0,
          "scriptSig": {
            "asm": "3045022100c1ca9133aa6b3d6e735676a4e75012b35584e3de0e6a13cdc5dfecdf776d730c022078cb520650b6350128db5a1b91f09c916e6cb3fd1d00fc3a7425856cb390d0aa[ALL] 02fc0282f793747dfedfccceabb84059090d6ac076354e2a59e47c024eb38bde92",
            "hex": "483045022100c1ca9133aa6b3d6e735676a4e75012b35584e3de0e6a13cdc5dfecdf776d730c022078cb520650b6350128db5a1b91f09c916e6cb3fd1d00fc3a7425856cb390d0aa012102fc0282f793747dfedfccceabb84059090d6ac076354e2a59e47c024eb38bde92"
          },
          "sequence": 4294967294
        }, 
        {
          "txid": "eb0844ac92b97f26455bc33ab2450400ff3ab88ce75550564f91c128a844c67f",
          "vout": 0,
          "scriptSig": {
            "asm": "30450221008b8c562061defcad4208c3ea0f650456867a3a29a368853d070c14b1eaec5a3e02207c44066a89f56ed18e79c340dc73dfcc249956a9383f374ca988bfc8371c3bc4[ALL] 029199445abee9492b2cee6365985eebb5b3b5a755fc8d659f5b1d70ed65d9d127",
            "hex": "4830450221008b8c562061defcad4208c3ea0f650456867a3a29a368853d070c14b1eaec5a3e02207c44066a89f56ed18e79c340dc73dfcc249956a9383f374ca988bfc8371c3bc40121029199445abee9492b2cee6365985eebb5b3b5a755fc8d659f5b1d70ed65d9d127"
          },
          "sequence": 4294967294
        }, 
        {
          "txid": "0e939c8aac0c2e17b29c1593213559d7a3fb6786c6c2d637556133c9689778ec",
          "vout": 0,
          "scriptSig": {
            "asm": "3044022046595339840bfc444caa7d50ef0ad5387f746f13a29c9b4b86b6b326ca07e619022066e2295ee2ddd75a881eb8a6d6396a7fcb946f08b859a313c4fde49216ce0dfb[ALL] 026f84d392f1a71f27d0ff59d708051ae772b2c4914a117a894660763f93484c38",
            "hex": "473044022046595339840bfc444caa7d50ef0ad5387f746f13a29c9b4b86b6b326ca07e619022066e2295ee2ddd75a881eb8a6d6396a7fcb946f08b859a313c4fde49216ce0dfb0121026f84d392f1a71f27d0ff59d708051ae772b2c4914a117a894660763f93484c38"
          },
          "sequence": 4294967294
        }, 
        {
          "txid": "d4f2937301381565597bf094de3bed5fbfd0f3d2a89fcb19f5148098e9b20af8",
          "vout": 0,
          "scriptSig": {
            "asm": "304402200351dd8f4e8f480b85c234dd24d03e9569eab3e167b44543d58350f5a2414b8a02205e0991b71e36a48b7c50f9b6cdb68c660d8363e19800dabd9cdf476894dab7c7[ALL] 024efb29fae8de13b58325a7fa897505e2a7cf79b987b47f228dcf9272f9f5e9fe",
            "hex": "47304402200351dd8f4e8f480b85c234dd24d03e9569eab3e167b44543d58350f5a2414b8a02205e0991b71e36a48b7c50f9b6cdb68c660d8363e19800dabd9cdf476894dab7c70121024efb29fae8de13b58325a7fa897505e2a7cf79b987b47f228dcf9272f9f5e9fe"
          },
          "sequence": 4294967294
        }, 
        {
          "txid": "f3ae530bef9a69e58dbcb210f40b6d5f8c9f45643ca1504efe4b4e04a8983ad1",
          "vout": 1,
          "scriptSig": {
            "asm": "30440220559af090aaf9c85929d30e31a47efdc90d080014da997c665496c04e515d3f81022036d45a43426b8ea76a79cf56ea47b913febb14d270ef664443f4bce90a6a752e[ALL] 03a9572acb8c12ccd107c7aef844305a6ab5cfcb88035be9f77c7ce9f515a10a44",
            "hex": "4730440220559af090aaf9c85929d30e31a47efdc90d080014da997c665496c04e515d3f81022036d45a43426b8ea76a79cf56ea47b913febb14d270ef664443f4bce90a6a752e012103a9572acb8c12ccd107c7aef844305a6ab5cfcb88035be9f77c7ce9f515a10a44"
          },
          "sequence": 4294967294
        }
      ],
      "vout": [
        {
          "value": 0.01000101,
          "n": 0,
          "scriptPubKey": {
            "asm": "OP_DUP OP_HASH160 b377b8b71d361d4c1e2f8b896db01afdca1440f5 OP_EQUALVERIFY OP_CHECKSIG",
            "hex": "76a914b377b8b71d361d4c1e2f8b896db01afdca1440f588ac",
            "reqSigs": 1,
            "type": "pubkeyhash",
            "addresses": [
              "Lbatdx1wr3Fr9yUGVaX5QitEfYV3mLdfFt"
            ]
          }
        }, 
        {
          "value": 21.10548200,
          "n": 1,
          "scriptPubKey": {
            "asm": "OP_DUP OP_HASH160 b41df1f447cb818f96e5c9e210974e0bba356282 OP_EQUALVERIFY OP_CHECKSIG",
            "hex": "76a914b41df1f447cb818f96e5c9e210974e0bba35628288ac",
            "reqSigs": 1,
            "type": "pubkeyhash",
            "addresses": [
              "LbeKmNELuxTCDDcpwdzS1L7Uvk8NyCUYKx"
            ]
          }
        }
      ],
      "hex": "0100000005fab4ee747e9df1b894335b77ea5ef621ce6461e0bd4ebce30ef0440cf5146226000000006b483045022100c1ca9133aa6b3d6e735676a4e75012b35584e3de0e6a13cdc5dfecdf776d730c022078cb520650b6350128db5a1b91f09c916e6cb3fd1d00fc3a7425856cb390d0aa012102fc0282f793747dfedfccceabb84059090d6ac076354e2a59e47c024eb38bde92feffffff7fc644a828c1914f565055e78cb83aff000445b23ac35b45267fb992ac4408eb000000006b4830450221008b8c562061defcad4208c3ea0f650456867a3a29a368853d070c14b1eaec5a3e02207c44066a89f56ed18e79c340dc73dfcc249956a9383f374ca988bfc8371c3bc40121029199445abee9492b2cee6365985eebb5b3b5a755fc8d659f5b1d70ed65d9d127feffffffec789768c933615537d6c2c68667fba3d759352193159cb2172e0cac8a9c930e000000006a473044022046595339840bfc444caa7d50ef0ad5387f746f13a29c9b4b86b6b326ca07e619022066e2295ee2ddd75a881eb8a6d6396a7fcb946f08b859a313c4fde49216ce0dfb0121026f84d392f1a71f27d0ff59d708051ae772b2c4914a117a894660763f93484c38fefffffff80ab2e9988014f519cb9fa8d2f3d0bf5fed3bde94f07b59651538017393f2d4000000006a47304402200351dd8f4e8f480b85c234dd24d03e9569eab3e167b44543d58350f5a2414b8a02205e0991b71e36a48b7c50f9b6cdb68c660d8363e19800dabd9cdf476894dab7c70121024efb29fae8de13b58325a7fa897505e2a7cf79b987b47f228dcf9272f9f5e9fefeffffffd13a98a8044e4bfe4e50a13c64459f8c5f6d0bf410b2bc8de5699aef0b53aef3010000006a4730440220559af090aaf9c85929d30e31a47efdc90d080014da997c665496c04e515d3f81022036d45a43426b8ea76a79cf56ea47b913febb14d270ef664443f4bce90a6a752e012103a9572acb8c12ccd107c7aef844305a6ab5cfcb88035be9f77c7ce9f515a10a44feffffff02a5420f00000000001976a914b377b8b71d361d4c1e2f8b896db01afdca1440f588ace868cc7d000000001976a914b41df1f447cb818f96e5c9e210974e0bba35628288ac57ba1400"
    }, 
    {
      "txid": "f6ea27106126c383a5793ed2c8b6dcf24d8e2d62107f214365846efab886f386",
      "hash": "f6ea27106126c383a5793ed2c8b6dcf24d8e2d62107f214365846efab886f386",
      "version": 1,
      "size": 223,
      "vsize": 223,
      "locktime": 0,
      "vin": [
        {
          "txid": "cda1d748502454d3fc03463a2a3c9649f7c5becc19bc01ea1673bcc3803c3730",
          "vout": 5,
          "scriptSig": {
            "asm": "304402203e84257415f913e38a62ace8b3eea3661b3ed8aa44a24c109e908774164816cf02200ce2bd9487d96b32b5e1c76a62624253ae07660565242191a6e6568ac9cf50e9[ALL] 0349c846d2fadae69272dfc877aab980a207dfb74fc24d7508dd387d1d19a3b50c",
            "hex": "47304402203e84257415f913e38a62ace8b3eea3661b3ed8aa44a24c109e908774164816cf02200ce2bd9487d96b32b5e1c76a62624253ae07660565242191a6e6568ac9cf50e901210349c846d2fadae69272dfc877aab980a207dfb74fc24d7508dd387d1d19a3b50c"
          },
          "sequence": 4294967295
        }
      ],
      "vout": [
        {
          "value": 0.00132959,
          "n": 0,
          "scriptPubKey": {
            "asm": "OP_DUP OP_HASH160 b9625253e8009afcfcaef7ea98ee5d3fe8cfb644 OP_EQUALVERIFY OP_CHECKSIG",
            "hex": "76a914b9625253e8009afcfcaef7ea98ee5d3fe8cfb64488ac",
            "reqSigs": 1,
            "type": "pubkeyhash",
            "addresses": [
              "Lc8B4Ct91G6ozS2mbZNu9JQ4CNKSut532q"
            ]
          }
        }, 
        {
          "value": 0.05000000,
          "n": 1,
          "scriptPubKey": {
            "asm": "OP_HASH160 839b22a4091169cfb970277ccd5aaa12e207383d OP_EQUAL",
            "hex": "a914839b22a4091169cfb970277ccd5aaa12e207383d87",
            "reqSigs": 1,
            "type": "scripthash",
            "addresses": [
              "MKu2bYtgEsQxJ7HTgHTGLWuKrToUTnPr4J"
            ]
          }
        }
      ],
      "hex": "010000000130373c80c3bc7316ea01bc19ccbec5f749963c2a3a4603fcd354245048d7a1cd050000006a47304402203e84257415f913e38a62ace8b3eea3661b3ed8aa44a24c109e908774164816cf02200ce2bd9487d96b32b5e1c76a62624253ae07660565242191a6e6568ac9cf50e901210349c846d2fadae69272dfc877aab980a207dfb74fc24d7508dd387d1d19a3b50cffffffff025f070200000000001976a914b9625253e8009afcfcaef7ea98ee5d3fe8cfb64488ac404b4c000000000017a914839b22a4091169cfb970277ccd5aaa12e207383d8700000000"
    }, 
    {
      "txid": "7fe9818f595252fa20762df837ad179083d09274fadfd337bd24cd11638fbf13",
      "hash": "7fe9818f595252fa20762df837ad179083d09274fadfd337bd24cd11638fbf13",
      "version": 1,
      "size": 225,
      "vsize": 225,
      "locktime": 1358519,
      "vin": [
        {
          "txid": "84ba4452b77ec6a59ba8a46fc34fa73c1cd779805556dd2ea7d62e828d274f88",
          "vout": 0,
          "scriptSig": {
            "asm": "304402202c1177a52d046bcf1c8e6526f68765b7a06b37a71d2aba937be5fd95cb405d03022052b529dbd07e9e6d3c84dde745f3ad130aff0a947d3e79d065e7137288903567[ALL] 029f2e2197ac4244deda4cd6daa698b7014effd59bf374a46bb83aec25ea19f4f8",
            "hex": "47304402202c1177a52d046bcf1c8e6526f68765b7a06b37a71d2aba937be5fd95cb405d03022052b529dbd07e9e6d3c84dde745f3ad130aff0a947d3e79d065e71372889035670121029f2e2197ac4244deda4cd6daa698b7014effd59bf374a46bb83aec25ea19f4f8"
          },
          "sequence": 4294967294
        }
      ],
      "vout": [
        {
          "value": 0.01013632,
          "n": 0,
          "scriptPubKey": {
            "asm": "OP_DUP OP_HASH160 857dfc43f87b3ed5176c5b71ab48a34058a6d706 OP_EQUALVERIFY OP_CHECKSIG",
            "hex": "76a914857dfc43f87b3ed5176c5b71ab48a34058a6d70688ac",
            "reqSigs": 1,
            "type": "pubkeyhash",
            "addresses": [
              "LXPo4M3PwjZu4sewFEJLqrXJZfCj4RQ8mQ"
            ]
          }
        }, 
        {
          "value": 0.18389851,
          "n": 1,
          "scriptPubKey": {
            "asm": "OP_DUP OP_HASH160 ef4cee672b6bab2ff4a48d239e6fa9f8b1075bfc OP_EQUALVERIFY OP_CHECKSIG",
            "hex": "76a914ef4cee672b6bab2ff4a48d239e6fa9f8b1075bfc88ac",
            "reqSigs": 1,
            "type": "pubkeyhash",
            "addresses": [
              "Lh3FvLa9vraEoprKRY1PiPpsJx2zNY4Cz5"
            ]
          }
        }
      ],
      "hex": "0100000001884f278d822ed6a72edd56558079d71c3ca74fc36fa4a89ba5c67eb75244ba84000000006a47304402202c1177a52d046bcf1c8e6526f68765b7a06b37a71d2aba937be5fd95cb405d03022052b529dbd07e9e6d3c84dde745f3ad130aff0a947d3e79d065e71372889035670121029f2e2197ac4244deda4cd6daa698b7014effd59bf374a46bb83aec25ea19f4f8feffffff0280770f00000000001976a914857dfc43f87b3ed5176c5b71ab48a34058a6d70688ac5b9b1801000000001976a914ef4cee672b6bab2ff4a48d239e6fa9f8b1075bfc88acb7ba1400"
    }, 
    {
      "txid": "a6c3a02c14e82f19644e0e7952c6d18fd781a76176df202af099b4e31c69da15",
      "hash": "a6c3a02c14e82f19644e0e7952c6d18fd781a76176df202af099b4e31c69da15",
      "version": 1,
      "size": 226,
      "vsize": 226,
      "locktime": 0,
      "vin": [
        {
          "txid": "b2e3e640b9f04a7d652c54f4b32727c9e10035b066506c1043d95400a19c92a5",
          "vout": 1,
          "scriptSig": {
            "asm": "3045022100dc9c24749ea489ec203b2c2306d7bfecf748ba364e6bf330085ed628400aedfc02204b35a34fe540e8906a73c921a5031552b3c05d698791180b9670101ace6c0a5c[ALL] 03545a82f47435c44f2bd74b95519248ffd90612c503ece5894df743c8abec0d78",
            "hex": "483045022100dc9c24749ea489ec203b2c2306d7bfecf748ba364e6bf330085ed628400aedfc02204b35a34fe540e8906a73c921a5031552b3c05d698791180b9670101ace6c0a5c012103545a82f47435c44f2bd74b95519248ffd90612c503ece5894df743c8abec0d78"
          },
          "sequence": 4294967295
        }
      ],
      "vout": [
        {
          "value": 19.54726276,
          "n": 0,
          "scriptPubKey": {
            "asm": "OP_DUP OP_HASH160 e0c569cb3a6d9dbb2b77ec9bebd78fcc3fa86206 OP_EQUALVERIFY OP_CHECKSIG",
            "hex": "76a914e0c569cb3a6d9dbb2b77ec9bebd78fcc3fa8620688ac",
            "reqSigs": 1,
            "type": "pubkeyhash",
            "addresses": [
              "LfiS7hMeNYD1J8SP17dWNe46gY8T8ME553"
            ]
          }
        }, 
        {
          "value": 6.55209000,
          "n": 1,
          "scriptPubKey": {
            "asm": "OP_DUP OP_HASH160 b844676088fc60eff994e6324ecc3cc2c4f5324c OP_EQUALVERIFY OP_CHECKSIG",
            "hex": "76a914b844676088fc60eff994e6324ecc3cc2c4f5324c88ac",
            "reqSigs": 1,
            "type": "pubkeyhash",
            "addresses": [
              "Lc2GYHnth7ARTEkskMk2eGKTC14mLEWieE"
            ]
          }
        }
      ],
      "hex": "0100000001a5929ca10054d943106c5066b03500e1c92727b3f4542c657d4af0b940e6e3b2010000006b483045022100dc9c24749ea489ec203b2c2306d7bfecf748ba364e6bf330085ed628400aedfc02204b35a34fe540e8906a73c921a5031552b3c05d698791180b9670101ace6c0a5c012103545a82f47435c44f2bd74b95519248ffd90612c503ece5894df743c8abec0d78ffffffff0284c18274000000001976a914e0c569cb3a6d9dbb2b77ec9bebd78fcc3fa8620688ac28b20d27000000001976a914b844676088fc60eff994e6324ecc3cc2c4f5324c88ac00000000"
    }, 
    {
      "txid": "6a6d48ef1ae85c8fd2370c5d34ea15344c1901ade8dd00891c7bdb6aa1e98e22",
      "hash": "6a6d48ef1ae85c8fd2370c5d34ea15344c1901ade8dd00891c7bdb6aa1e98e22",
      "version": 1,
      "size": 226,
      "vsize": 226,
      "locktime": 0,
      "vin": [
        {
          "txid": "5541deac36fb585b3cab8991ee841b76e00dca5144d1334a1eddfc31ff3156e6",
          "vout": 0,
          "scriptSig": {
            "asm": "30450221009be4bcd60a716af2c40940c101f4932c5fc5aa22a64af7016162c228556d331502206747676f697b29d82bdefe0541260b85733ef0606037aa638f7ec30972de4eeb[ALL] 02d9327a7b24d79d9aa13b11f62100701596fec40db7ee21fa35f52b1cd1cd17aa",
            "hex": "4830450221009be4bcd60a716af2c40940c101f4932c5fc5aa22a64af7016162c228556d331502206747676f697b29d82bdefe0541260b85733ef0606037aa638f7ec30972de4eeb012102d9327a7b24d79d9aa13b11f62100701596fec40db7ee21fa35f52b1cd1cd17aa"
          },
          "sequence": 4294967295
        }
      ],
      "vout": [
        {
          "value": 0.63962559,
          "n": 0,
          "scriptPubKey": {
            "asm": "OP_DUP OP_HASH160 7069500b5ac6744feedcd69211ea6d1832337a3e OP_EQUALVERIFY OP_CHECKSIG",
            "hex": "76a9147069500b5ac6744feedcd69211ea6d1832337a3e88ac",
            "reqSigs": 1,
            "type": "pubkeyhash",
            "addresses": [
              "LVUL6x6sb3c9nJALuZARTehUSa6yvjVGgA"
            ]
          }
        }, 
        {
          "value": 0.01063916,
          "n": 1,
          "scriptPubKey": {
            "asm": "OP_DUP OP_HASH160 e35805f94d43ee0fc99942490194a872d38cf506 OP_EQUALVERIFY OP_CHECKSIG",
            "hex": "76a914e35805f94d43ee0fc99942490194a872d38cf50688ac",
            "reqSigs": 1,
            "type": "pubkeyhash",
            "addresses": [
              "Lfx36j88fkzdVBcBWA8P3p2RVyxqdFhvYp"
            ]
          }
        }
      ],
      "hex": "0100000001e65631ff31fcdd1e4a33d14451ca0de0761b84ee9189ab3c5b58fb36acde4155000000006b4830450221009be4bcd60a716af2c40940c101f4932c5fc5aa22a64af7016162c228556d331502206747676f697b29d82bdefe0541260b85733ef0606037aa638f7ec30972de4eeb012102d9327a7b24d79d9aa13b11f62100701596fec40db7ee21fa35f52b1cd1cd17aaffffffff02bffdcf03000000001976a9147069500b5ac6744feedcd69211ea6d1832337a3e88acec3b1000000000001976a914e35805f94d43ee0fc99942490194a872d38cf50688ac00000000"
    }
  ],
  "time": 1517153525,
  "mediantime": 1517153276,
  "nonce": 3144973352,
  "bits": "1a047f14",
  "difficulty": 3731199.183374282,
  "chainwork": "0000000000000000000000000000000000000000000000332a61193f71e921e4",
  "previousblockhash": "20ed7b40302f0079dbefdb3a5aa6c03a33b80ff3a345d2a7ec2affbcb3942217",
  "nextblockhash": "be8cbb442702be1b90b545864af0437e0a3b88b7bae4ac265783cbdfefa87758"
}
