{
  "hash": "da7b76440b6884a79306f4e5ff22cb26911ca40fdee9d69b02675bff3d6646fb",
  "confirmations": 3661,
  "strippedsize": 253,
  "size": 253,
  "weight": 1012,
  "height": 1357334,
  "version": 536870912,
  "versionHex": "20000000",
  "merkleroot": "b606bc97e5dfda7ed6e0b6990b7458b0def12530cbe1d30509df71b51be29c91",
  "tx": [
    {
      "txid": "b606bc97e5dfda7ed6e0b6990b7458b0def12530cbe1d30509df71b51be29c91",
      "hash": "b606bc97e5dfda7ed6e0b6990b7458b0def12530cbe1d30509df71b51be29c91",
      "version": 1,
      "size": 172,
      "vsize": 172,
      "locktime": 0,
      "vin": [
        {
          "coinbase": "0316b6141a4d696e656420627920416e74506f6f6c20626a331f205a6b70bcfabe6d6d75f1d9ba9e6f2c36dc786e2657cdcf41be2538b491c169fa2e61d396cb581bc304000000000000008b0000000000000002000000",
          "sequence": 4294967295
        }
      ],
      "vout": [
        {
          "value": 25.00000000,
          "n": 0,
          "scriptPubKey": {
            "asm": "OP_DUP OP_HASH160 0ff3ccc5e8be88afe24b5d634e5852d474dbdff1 OP_EQUALVERIFY OP_CHECKSIG",
            "hex": "76a9140ff3ccc5e8be88afe24b5d634e5852d474dbdff188ac",
            "reqSigs": 1,
            "type": "pubkeyhash",
            "addresses": [
              "LLgJTbzZMsRTCUF1NtvvL9SR1a4pVieW89"
            ]
          }
        }
      ],
      "hex": "01000000010000000000000000000000000000000000000000000000000000000000000000ffffffff570316b6141a4d696e656420627920416e74506f6f6c20626a331f205a6b70bcfabe6d6d75f1d9ba9e6f2c36dc786e2657cdcf41be2538b491c169fa2e61d396cb581bc304000000000000008b0000000000000002000000ffffffff0100f90295000000001976a9140ff3ccc5e8be88afe24b5d634e5852d474dbdff188ac00000000"
    }
  ],
  "time": 1516990652,
  "mediantime": 1516990074,
  "nonce": 2392277189,
  "bits": "1a047f14",
  "difficulty": 3731199.183374282,
  "chainwork": "0000000000000000000000000000000000000000000000322263e80b9665f556",
  "previousblockhash": "09b235a46176fdc4e5d3bb92099d3455cbebea08d92cdf18011944ef9b023530",
  "nextblockhash": "ecbebed86c925297abfee327645719e369eb4ba69d4c52caff572bb86bb5da16"
}
