{
  "hash": "da83742527885fa2158a736463a1b1176577d3e877e209cb13e83e58155e23d7",
  "confirmations": 2138,
  "strippedsize": 2814,
  "size": 2850,
  "weight": 11292,
  "height": 1358856,
  "version": 536870912,
  "versionHex": "20000000",
  "merkleroot": "c2d0d6afd767a042b7c2da210ed4617e376ae94fd20c6c486837c556d86ae316",
  "tx": [
    {
      "txid": "bcba846cb2a4c55eb4984821a057400786248f6a5dee60975c8f983fb2167bae",
      "hash": "4ba6caa4b75ce3af76f3b4cd345493636029e9c76285eb0b370965224adbb270",
      "version": 1,
      "size": 258,
      "vsize": 231,
      "locktime": 0,
      "vin": [
        {
          "coinbase": "0308bc14172f5669614254432f4d696e6564206279206d7a6c74632f2cfabe6d6d4bb4f2b4fca1d8047ef641699e41d34ee707edceb92a9fe3370803e1ab5f9e080100000000000000101b70cb00425f320ceefe45e838000000",
          "sequence": 4294967295
        }
      ],
      "vout": [
        {
          "value": 25.00675400,
          "n": 0,
          "scriptPubKey": {
            "asm": "OP_DUP OP_HASH160 e16c28146ed4869c190b3f0bdc18d80d45f92134 OP_EQUALVERIFY OP_CHECKSIG",
            "hex": "76a914e16c28146ed4869c190b3f0bdc18d80d45f9213488ac",
            "reqSigs": 1,
            "type": "pubkeyhash",
            "addresses": [
              "LfmssDyX6iZvbVqHv6t9P6JWXia2JG7mdb"
            ]
          }
        }, 
        {
          "value": 0.00000000,
          "n": 1,
          "scriptPubKey": {
            "asm": "OP_RETURN aa21a9ed639e1f35c912161688e97b1494aaa7501a320f8004c6e0b48eafc20da3f30d95",
            "hex": "6a24aa21a9ed639e1f35c912161688e97b1494aaa7501a320f8004c6e0b48eafc20da3f30d95",
            "type": "nulldata"
          }
        }
      ],
      "hex": "010000000001010000000000000000000000000000000000000000000000000000000000000000ffffffff5a0308bc14172f5669614254432f4d696e6564206279206d7a6c74632f2cfabe6d6d4bb4f2b4fca1d8047ef641699e41d34ee707edceb92a9fe3370803e1ab5f9e080100000000000000101b70cb00425f320ceefe45e838000000ffffffff0248470d95000000001976a914e16c28146ed4869c190b3f0bdc18d80d45f9213488ac0000000000000000266a24aa21a9ed639e1f35c912161688e97b1494aaa7501a320f8004c6e0b48eafc20da3f30d950120000000000000000000000000000000000000000000000000000000000000000000000000"
    }, 
    {
      "txid": "7a7ea0473d098bb8ab9a43c81a928df9a7319047899dc21ef8c43a7ce6f8f089",
      "hash": "7a7ea0473d098bb8ab9a43c81a928df9a7319047899dc21ef8c43a7ce6f8f089",
      "version": 1,
      "size": 226,
      "vsize": 226,
      "locktime": 0,
      "vin": [
        {
          "txid": "ecf3c72c227327fc2464f389f0fce7ae2b659ba4642ab5304a44391153ac8e5e",
          "vout": 3054,
          "scriptSig": {
            "asm": "3045022100d2227793c0b52b0110c46192e2e95af9748a92471a6834ebbec39d714abe8e2a0220106a4fbbfd6172ca9ef82d7a9b12e7c765bd9be938d1404313936be085985544[ALL] 02d19609fb4ef4007c0e00fed8e2555b0cc7a0bce689b9b87a96ba8c6f89bb2c0d",
            "hex": "483045022100d2227793c0b52b0110c46192e2e95af9748a92471a6834ebbec39d714abe8e2a0220106a4fbbfd6172ca9ef82d7a9b12e7c765bd9be938d1404313936be085985544012102d19609fb4ef4007c0e00fed8e2555b0cc7a0bce689b9b87a96ba8c6f89bb2c0d"
          },
          "sequence": 4294967295
        }
      ],
      "vout": [
        {
          "value": 0.01000183,
          "n": 0,
          "scriptPubKey": {
            "asm": "OP_DUP OP_HASH160 90fa3c11d1c3c8c91bf701a1dc0483e29c3732d2 OP_EQUALVERIFY OP_CHECKSIG",
            "hex": "76a91490fa3c11d1c3c8c91bf701a1dc0483e29c3732d288ac",
            "reqSigs": 1,
            "type": "pubkeyhash",
            "addresses": [
              "LYSXLSk7jd41r3CHsD5QiQ6wgbkNDmSeTP"
            ]
          }
        }, 
        {
          "value": 0.09218932,
          "n": 1,
          "scriptPubKey": {
            "asm": "OP_DUP OP_HASH160 9a9d0234531aa164e9fdce5432a85dcda83924e9 OP_EQUALVERIFY OP_CHECKSIG",
            "hex": "76a9149a9d0234531aa164e9fdce5432a85dcda83924e988ac",
            "reqSigs": 1,
            "type": "pubkeyhash",
            "addresses": [
              "LZKUQuQmbiMYWqrtb7NpSaoaqRG58F2hTU"
            ]
          }
        }
      ],
      "hex": "01000000015e8eac531139444a30b52a64a49b652baee7fcf089f36424fc2773222cc7f3ecee0b00006b483045022100d2227793c0b52b0110c46192e2e95af9748a92471a6834ebbec39d714abe8e2a0220106a4fbbfd6172ca9ef82d7a9b12e7c765bd9be938d1404313936be085985544012102d19609fb4ef4007c0e00fed8e2555b0cc7a0bce689b9b87a96ba8c6f89bb2c0dffffffff02f7420f00000000001976a91490fa3c11d1c3c8c91bf701a1dc0483e29c3732d288ac74ab8c00000000001976a9149a9d0234531aa164e9fdce5432a85dcda83924e988ac00000000"
    }, 
    {
      "txid": "dc2da8d1b4a30ffdb811ae90ac6d15ddad9ddabaea500f1f18270fa1f3bf3960",
      "hash": "dc2da8d1b4a30ffdb811ae90ac6d15ddad9ddabaea500f1f18270fa1f3bf3960",
      "version": 2,
      "size": 223,
      "vsize": 223,
      "locktime": 1358854,
      "vin": [
        {
          "txid": "8707431f7373fa1f9612dfec236a69f154656af64b63faf67fb7a711729a0258",
          "vout": 1,
          "scriptSig": {
            "asm": "304402203c42ff69bdda47c7e415bb76e042c7baad2b277efe477824c0d221815bd95f08022056581640347db6b09838c9000c8b0b05cf79f6f7ac4799958984c2de7a3c42a3[ALL] 02951195a969f0a2dbedc3bdbcf1f5b071dc81455751fe31f097115e40d678cb21",
            "hex": "47304402203c42ff69bdda47c7e415bb76e042c7baad2b277efe477824c0d221815bd95f08022056581640347db6b09838c9000c8b0b05cf79f6f7ac4799958984c2de7a3c42a3012102951195a969f0a2dbedc3bdbcf1f5b071dc81455751fe31f097115e40d678cb21"
          },
          "sequence": 4294967294
        }
      ],
      "vout": [
        {
          "value": 6.16460000,
          "n": 0,
          "scriptPubKey": {
            "asm": "OP_HASH160 1470b14b6ed6e422d1dad9e106e34c165386a86a OP_EQUAL",
            "hex": "a9141470b14b6ed6e422d1dad9e106e34c165386a86a87",
            "reqSigs": 1,
            "type": "scripthash",
            "addresses": [
              "M9mEkHN5Yte1JdExUrWcrH9GFVv3EFBnBv"
            ]
          }
        }, 
        {
          "value": 8.62316000,
          "n": 1,
          "scriptPubKey": {
            "asm": "OP_DUP OP_HASH160 89df704049933167b12f87401ee866ae76a51106 OP_EQUALVERIFY OP_CHECKSIG",
            "hex": "76a91489df704049933167b12f87401ee866ae76a5110688ac",
            "reqSigs": 1,
            "type": "pubkeyhash",
            "addresses": [
              "LXnxWGhvxskjdeU8PdNvxaugUC2c3SHSDF"
            ]
          }
        }
      ],
      "hex": "020000000158029a7211a7b77ff6fa634bf66a6554f1696a23ecdf12961ffa73731f430787010000006a47304402203c42ff69bdda47c7e415bb76e042c7baad2b277efe477824c0d221815bd95f08022056581640347db6b09838c9000c8b0b05cf79f6f7ac4799958984c2de7a3c42a3012102951195a969f0a2dbedc3bdbcf1f5b071dc81455751fe31f097115e40d678cb21feffffff02e06ebe240000000017a9141470b14b6ed6e422d1dad9e106e34c165386a86a87e0e56533000000001976a91489df704049933167b12f87401ee866ae76a5110688ac06bc1400"
    }, 
    {
      "txid": "9dc47feeeb0a8da881658624e1cc69e36e286cc93122cf0dd557019b8b359ddf",
      "hash": "9dc47feeeb0a8da881658624e1cc69e36e286cc93122cf0dd557019b8b359ddf",
      "version": 2,
      "size": 225,
      "vsize": 225,
      "locktime": 1358854,
      "vin": [
        {
          "txid": "03bb292f7083976bedddd72415e677514db0f80a34d368bab318700760556704",
          "vout": 1,
          "scriptSig": {
            "asm": "304402205567ee7c424490aaafeca7f11bb3e6890e7c921eee6dc4fcba8e42beb16ee7cf022072fcd872225109144bbc2e34488d217013cfd405ad6b0232ac9e8f2c79270469[ALL] 0347a84ab397b18cdf46c762acc582fa956457060da976371d0570f8040ad46d48",
            "hex": "47304402205567ee7c424490aaafeca7f11bb3e6890e7c921eee6dc4fcba8e42beb16ee7cf022072fcd872225109144bbc2e34488d217013cfd405ad6b0232ac9e8f2c7927046901210347a84ab397b18cdf46c762acc582fa956457060da976371d0570f8040ad46d48"
          },
          "sequence": 4294967294
        }
      ],
      "vout": [
        {
          "value": 0.22942040,
          "n": 0,
          "scriptPubKey": {
            "asm": "OP_DUP OP_HASH160 9cf570b0756525c4f74de34ff13a042ba675ffd5 OP_EQUALVERIFY OP_CHECKSIG",
            "hex": "76a9149cf570b0756525c4f74de34ff13a042ba675ffd588ac",
            "reqSigs": 1,
            "type": "pubkeyhash",
            "addresses": [
              "LZXshd31fFENkDYNMWoYVwgHASNRct1eVj"
            ]
          }
        }, 
        {
          "value": 3.00000000,
          "n": 1,
          "scriptPubKey": {
            "asm": "OP_DUP OP_HASH160 a5e2180670b165180730744a2fcb476229161183 OP_EQUALVERIFY OP_CHECKSIG",
            "hex": "76a914a5e2180670b165180730744a2fcb47622916118388ac",
            "reqSigs": 1,
            "type": "pubkeyhash",
            "addresses": [
              "LaM4c98cr7BAiZFaQCjMuLN4JRtrgn88wE"
            ]
          }
        }
      ],
      "hex": "020000000104675560077018b3ba68d3340af8b04d5177e61524d7dded6b9783702f29bb03010000006a47304402205567ee7c424490aaafeca7f11bb3e6890e7c921eee6dc4fcba8e42beb16ee7cf022072fcd872225109144bbc2e34488d217013cfd405ad6b0232ac9e8f2c7927046901210347a84ab397b18cdf46c762acc582fa956457060da976371d0570f8040ad46d48feffffff0258115e01000000001976a9149cf570b0756525c4f74de34ff13a042ba675ffd588ac00a3e111000000001976a914a5e2180670b165180730744a2fcb47622916118388ac06bc1400"
    }, 
    {
      "txid": "1434913c8eedb81d9468cc12fe5edaae6baf2cd6b588c56a378ea7cb93e8e82d",
      "hash": "1434913c8eedb81d9468cc12fe5edaae6baf2cd6b588c56a378ea7cb93e8e82d",
      "version": 1,
      "size": 373,
      "vsize": 373,
      "locktime": 0,
      "vin": [
        {
          "txid": "e36893994f8dd36e385198441ebb68af69a6394bc3f469edb0b731c2c4ce2cd0",
          "vout": 1,
          "scriptSig": {
            "asm": "304402203d1653c142e2b6d03f1d0882cbee0ea6a52b34a5a73de871132702d633c8d13f022045f812fb912035e5534804a166de72348f6c7c6f6856aa5f5ee9705361821d5f[ALL] 03c30466e870cbdeab4e2efc9e1bf7b935d5943c5ff31396a9f1bba2bbc0ec3455",
            "hex": "47304402203d1653c142e2b6d03f1d0882cbee0ea6a52b34a5a73de871132702d633c8d13f022045f812fb912035e5534804a166de72348f6c7c6f6856aa5f5ee9705361821d5f012103c30466e870cbdeab4e2efc9e1bf7b935d5943c5ff31396a9f1bba2bbc0ec3455"
          },
          "sequence": 4294967295
        }, 
        {
          "txid": "46be117b8b26b498cb0e0d1a2f32b61cae2558d4854802e4af5d29c0c65556ae",
          "vout": 1,
          "scriptSig": {
            "asm": "3045022100b34bd7e4dc02d1a03ed633fc7c67342d92f56506d47a6f3ba9fbdeddfd8459cf02202bac6f0ad5da70d4d3ff5ecf3523dc9f7fe46143eecb5ee266659dbf517b9624[ALL] 03c30466e870cbdeab4e2efc9e1bf7b935d5943c5ff31396a9f1bba2bbc0ec3455",
            "hex": "483045022100b34bd7e4dc02d1a03ed633fc7c67342d92f56506d47a6f3ba9fbdeddfd8459cf02202bac6f0ad5da70d4d3ff5ecf3523dc9f7fe46143eecb5ee266659dbf517b9624012103c30466e870cbdeab4e2efc9e1bf7b935d5943c5ff31396a9f1bba2bbc0ec3455"
          },
          "sequence": 4294967295
        }
      ],
      "vout": [
        {
          "value": 4.04000000,
          "n": 0,
          "scriptPubKey": {
            "asm": "OP_DUP OP_HASH160 5ade38857fa0908d15bbde67be120ac0bc61ba67 OP_EQUALVERIFY OP_CHECKSIG",
            "hex": "76a9145ade38857fa0908d15bbde67be120ac0bc61ba6788ac",
            "reqSigs": 1,
            "type": "pubkeyhash",
            "addresses": [
              "LTWRHeaYJQMUWGBKP6bMeDQbE2BHvEFktd"
            ]
          }
        }, 
        {
          "value": 0.28445430,
          "n": 1,
          "scriptPubKey": {
            "asm": "OP_DUP OP_HASH160 445bc5944d385cfcad79eb0a2bae8d08d6906561 OP_EQUALVERIFY OP_CHECKSIG",
            "hex": "76a914445bc5944d385cfcad79eb0a2bae8d08d690656188ac",
            "reqSigs": 1,
            "type": "pubkeyhash",
            "addresses": [
              "LRTQ9g1zaPoqTzugxihMEwDQ54UnR9AXo1"
            ]
          }
        }
      ],
      "hex": "0100000002d02ccec4c231b7b0ed69f4c34b39a669af68bb1e449851386ed38d4f999368e3010000006a47304402203d1653c142e2b6d03f1d0882cbee0ea6a52b34a5a73de871132702d633c8d13f022045f812fb912035e5534804a166de72348f6c7c6f6856aa5f5ee9705361821d5f012103c30466e870cbdeab4e2efc9e1bf7b935d5943c5ff31396a9f1bba2bbc0ec3455ffffffffae5655c6c0295dafe4024885d45825ae1cb6322f1a0d0ecb98b4268b7b11be46010000006b483045022100b34bd7e4dc02d1a03ed633fc7c67342d92f56506d47a6f3ba9fbdeddfd8459cf02202bac6f0ad5da70d4d3ff5ecf3523dc9f7fe46143eecb5ee266659dbf517b9624012103c30466e870cbdeab4e2efc9e1bf7b935d5943c5ff31396a9f1bba2bbc0ec3455ffffffff02008d1418000000001976a9145ade38857fa0908d15bbde67be120ac0bc61ba6788acf60ab201000000001976a914445bc5944d385cfcad79eb0a2bae8d08d690656188ac00000000"
    }, 
    {
      "txid": "dff6927ef94cf156e2dca64c2017289f992f6994b6a41f1cb8c008ebc7d12f3b",
      "hash": "dff6927ef94cf156e2dca64c2017289f992f6994b6a41f1cb8c008ebc7d12f3b",
      "version": 1,
      "size": 191,
      "vsize": 191,
      "locktime": 0,
      "vin": [
        {
          "txid": "2b70156d9e3df14eb09ae9071f12e9338f14bcaad82bbe1b596becb1c733a99e",
          "vout": 0,
          "scriptSig": {
            "asm": "304402207718ba9a973cce57265b3256827033387b4e93d7edd4e376a360f9ca7309fd9f02202217a7f7694a20d447587b567cc1e04cfee85410a88fd8119d1feaa1b8425db0[ALL] 02f8b78f466cf35561eb537601054f6838e4b99d3c5fe095c1185388772beba7b0",
            "hex": "47304402207718ba9a973cce57265b3256827033387b4e93d7edd4e376a360f9ca7309fd9f02202217a7f7694a20d447587b567cc1e04cfee85410a88fd8119d1feaa1b8425db0012102f8b78f466cf35561eb537601054f6838e4b99d3c5fe095c1185388772beba7b0"
          },
          "sequence": 4294967295
        }
      ],
      "vout": [
        {
          "value": 1.30786054,
          "n": 0,
          "scriptPubKey": {
            "asm": "OP_DUP OP_HASH160 96fdaaa487a0eb965e40130934c7f4cad8a000a9 OP_EQUALVERIFY OP_CHECKSIG",
            "hex": "76a91496fdaaa487a0eb965e40130934c7f4cad8a000a988ac",
            "reqSigs": 1,
            "type": "pubkeyhash",
            "addresses": [
              "LYzKW3reaT9PfhUGson3f59xt47XE9f7QF"
            ]
          }
        }
      ],
      "hex": "01000000019ea933c7b1ec6b591bbe2bd8aabc148f33e9121f07e99ab04ef13d9e6d15702b000000006a47304402207718ba9a973cce57265b3256827033387b4e93d7edd4e376a360f9ca7309fd9f02202217a7f7694a20d447587b567cc1e04cfee85410a88fd8119d1feaa1b8425db0012102f8b78f466cf35561eb537601054f6838e4b99d3c5fe095c1185388772beba7b0ffffffff0106a3cb07000000001976a91496fdaaa487a0eb965e40130934c7f4cad8a000a988ac00000000"
    }, 
    {
      "txid": "8bd62d33826f07e3a1773354c7f54f87837eedcc829c739524eb145fd5e61249",
      "hash": "8bd62d33826f07e3a1773354c7f54f87837eedcc829c739524eb145fd5e61249",
      "version": 1,
      "size": 225,
      "vsize": 225,
      "locktime": 0,
      "vin": [
        {
          "txid": "36872f780b4db724a753b9ebaa2af7fe76f9b2550c80fb0ff06991da00c250b2",
          "vout": 0,
          "scriptSig": {
            "asm": "304402201a5f97637c538ffb1f34eef57cff4e44964eb4aaa098fb8409980cc1e700cc1602202a5a23e71c791ff468024ef2029e03672cdae15e2ead6a62571b57c180a44612[ALL] 024c84f4e87cab871c3ad773fcfef0fd99ac4052dc23efd0c004f3a7077eb23705",
            "hex": "47304402201a5f97637c538ffb1f34eef57cff4e44964eb4aaa098fb8409980cc1e700cc1602202a5a23e71c791ff468024ef2029e03672cdae15e2ead6a62571b57c180a446120121024c84f4e87cab871c3ad773fcfef0fd99ac4052dc23efd0c004f3a7077eb23705"
          },
          "sequence": 4294967295
        }
      ],
      "vout": [
        {
          "value": 0.00277167,
          "n": 0,
          "scriptPubKey": {
            "asm": "OP_DUP OP_HASH160 412adf3b5574bcd29fcdb54106de9695cc3490b4 OP_EQUALVERIFY OP_CHECKSIG",
            "hex": "76a914412adf3b5574bcd29fcdb54106de9695cc3490b488ac",
            "reqSigs": 1,
            "type": "pubkeyhash",
            "addresses": [
              "LRAXYUqN4dXVdwoCahSwi48f9HE22TWuAW"
            ]
          }
        }, 
        {
          "value": 0.53595803,
          "n": 1,
          "scriptPubKey": {
            "asm": "OP_DUP OP_HASH160 da1f677fd4d7d22a52cb1ec9bacef171f6644cb9 OP_EQUALVERIFY OP_CHECKSIG",
            "hex": "76a914da1f677fd4d7d22a52cb1ec9bacef171f6644cb988ac",
            "reqSigs": 1,
            "type": "pubkeyhash",
            "addresses": [
              "Lf7HC3K45N55YMeLMCDF6GwBQ2cqYfsuSz"
            ]
          }
        }
      ],
      "hex": "0100000001b250c200da9169f00ffb800c55b2f976fef72aaaebb953a724b74d0b782f8736000000006a47304402201a5f97637c538ffb1f34eef57cff4e44964eb4aaa098fb8409980cc1e700cc1602202a5a23e71c791ff468024ef2029e03672cdae15e2ead6a62571b57c180a446120121024c84f4e87cab871c3ad773fcfef0fd99ac4052dc23efd0c004f3a7077eb23705ffffffff02af3a0400000000001976a914412adf3b5574bcd29fcdb54106de9695cc3490b488ac9bce3103000000001976a914da1f677fd4d7d22a52cb1ec9bacef171f6644cb988ac00000000"
    }, 
    {
      "txid": "637279477009612035b2124880c16593c1f48496698bbc4bf65441257c9230a6",
      "hash": "637279477009612035b2124880c16593c1f48496698bbc4bf65441257c9230a6",
      "version": 1,
      "size": 225,
      "vsize": 225,
      "locktime": 0,
      "vin": [
        {
          "txid": "4369fa40b7cf2998dfa0ddb4e3f355a68d84fbd7b4d107cad102b6f34a5d4c40",
          "vout": 1,
          "scriptSig": {
            "asm": "304402204c78bb0de081a683145aae5cf4d67fe3f11ec84f44d9bd58db21185aa174f1ac022040b7fdcc3eff3974808910ee4c7db4458a8ec1520c6498479de4747c4c64b5c2[ALL] 033a9d2d11dfae411ce1ff5bbac689290179416f55d6cf3e419b25a487c66a1101",
            "hex": "47304402204c78bb0de081a683145aae5cf4d67fe3f11ec84f44d9bd58db21185aa174f1ac022040b7fdcc3eff3974808910ee4c7db4458a8ec1520c6498479de4747c4c64b5c20121033a9d2d11dfae411ce1ff5bbac689290179416f55d6cf3e419b25a487c66a1101"
          },
          "sequence": 4294967295
        }
      ],
      "vout": [
        {
          "value": 0.00070534,
          "n": 0,
          "scriptPubKey": {
            "asm": "OP_DUP OP_HASH160 6ecd3b313a908331dc770b96aa3262fb72a8fadd OP_EQUALVERIFY OP_CHECKSIG",
            "hex": "76a9146ecd3b313a908331dc770b96aa3262fb72a8fadd88ac",
            "reqSigs": 1,
            "type": "pubkeyhash",
            "addresses": [
              "LVKpT2fXED8t7SDEhmmE6JRVLn24tmJoi7"
            ]
          }
        }, 
        {
          "value": 0.36651077,
          "n": 1,
          "scriptPubKey": {
            "asm": "OP_DUP OP_HASH160 5e191438e75bf18042b1f018ff0e47c7bbed0a09 OP_EQUALVERIFY OP_CHECKSIG",
            "hex": "76a9145e191438e75bf18042b1f018ff0e47c7bbed0a0988ac",
            "reqSigs": 1,
            "type": "pubkeyhash",
            "addresses": [
              "LToVpmGbiUyUxN9j1j77ErxzhLfwHWbK8N"
            ]
          }
        }
      ],
      "hex": "0100000001404c5d4af3b602d1ca07d1b4d7fb848da655f3e3b4dda0df9829cfb740fa6943010000006a47304402204c78bb0de081a683145aae5cf4d67fe3f11ec84f44d9bd58db21185aa174f1ac022040b7fdcc3eff3974808910ee4c7db4458a8ec1520c6498479de4747c4c64b5c20121033a9d2d11dfae411ce1ff5bbac689290179416f55d6cf3e419b25a487c66a1101ffffffff0286130100000000001976a9146ecd3b313a908331dc770b96aa3262fb72a8fadd88ac45402f02000000001976a9145e191438e75bf18042b1f018ff0e47c7bbed0a0988ac00000000"
    }, 
    {
      "txid": "292232915f85d1ba788606617f2d4a1f67bf6954adc6cac90f1f5ddf169a9eb9",
      "hash": "292232915f85d1ba788606617f2d4a1f67bf6954adc6cac90f1f5ddf169a9eb9",
      "version": 2,
      "size": 225,
      "vsize": 225,
      "locktime": 1358854,
      "vin": [
        {
          "txid": "177600152084b5bfe75423a02c6445833eeb72e9fb1931798b0f3c6e60d853b3",
          "vout": 4438,
          "scriptSig": {
            "asm": "304402203126cf25c130c712674262b347d5d5d2fa417ba1dc556ad830d484ffff73e5c402202a592a6e2f1febdc07d6725c38a18d8e5f421ceb6d7c2f2edc91d0a925cc545f[ALL] 03d5e3bfb2d0188052f684e6ee5920344cf23e409ad94bd58d848ccb27352a0274",
            "hex": "47304402203126cf25c130c712674262b347d5d5d2fa417ba1dc556ad830d484ffff73e5c402202a592a6e2f1febdc07d6725c38a18d8e5f421ceb6d7c2f2edc91d0a925cc545f012103d5e3bfb2d0188052f684e6ee5920344cf23e409ad94bd58d848ccb27352a0274"
          },
          "sequence": 4294967294
        }
      ],
      "vout": [
        {
          "value": 0.00978156,
          "n": 0,
          "scriptPubKey": {
            "asm": "OP_DUP OP_HASH160 ea4dee232a474d5d67345d65cb2a8f445dd8c79c OP_EQUALVERIFY OP_CHECKSIG",
            "hex": "76a914ea4dee232a474d5d67345d65cb2a8f445dd8c79c88ac",
            "reqSigs": 1,
            "type": "pubkeyhash",
            "addresses": [
              "Lgaqjnfr2eqKUSEi3y6YxMreW6XxMZwGTD"
            ]
          }
        }, 
        {
          "value": 0.04363067,
          "n": 1,
          "scriptPubKey": {
            "asm": "OP_DUP OP_HASH160 c6aa85b9fb504d29134ddf472a4697ec8c6e1efc OP_EQUALVERIFY OP_CHECKSIG",
            "hex": "76a914c6aa85b9fb504d29134ddf472a4697ec8c6e1efc88ac",
            "reqSigs": 1,
            "type": "pubkeyhash",
            "addresses": [
              "LdLQLJCYmgmaxM6eM9exAhYjareZ6o2b89"
            ]
          }
        }
      ],
      "hex": "0200000001b353d8606e3c0f8b793119fbe972eb3e8345642ca02354e7bfb5842015007617561100006a47304402203126cf25c130c712674262b347d5d5d2fa417ba1dc556ad830d484ffff73e5c402202a592a6e2f1febdc07d6725c38a18d8e5f421ceb6d7c2f2edc91d0a925cc545f012103d5e3bfb2d0188052f684e6ee5920344cf23e409ad94bd58d848ccb27352a0274feffffff02ecec0e00000000001976a914ea4dee232a474d5d67345d65cb2a8f445dd8c79c88ac3b934200000000001976a914c6aa85b9fb504d29134ddf472a4697ec8c6e1efc88ac06bc1400"
    }, 
    {
      "txid": "865c409df5333cfbbe61542b04f5d384256dac790957fb162304fa7ab7ac3fdf",
      "hash": "865c409df5333cfbbe61542b04f5d384256dac790957fb162304fa7ab7ac3fdf",
      "version": 1,
      "size": 225,
      "vsize": 225,
      "locktime": 0,
      "vin": [
        {
          "txid": "86a25f67700f8ca6e1d75e9f2694d78d419772559943b457e2a213d0c45ad3c5",
          "vout": 0,
          "scriptSig": {
            "asm": "30440220249a83b3590cb8e0b4026652447f7ee92c98b4204387651e7c20239035ca8ade0220573493e1202578b2ccbe0de8cc69723b2bafb9d7a735703cf6629e328b83581a[ALL] 025e9e1128767a2c18a4e95ce7ec5929d5cd9c773f6276d86d6f3ad31e8e8ee518",
            "hex": "4730440220249a83b3590cb8e0b4026652447f7ee92c98b4204387651e7c20239035ca8ade0220573493e1202578b2ccbe0de8cc69723b2bafb9d7a735703cf6629e328b83581a0121025e9e1128767a2c18a4e95ce7ec5929d5cd9c773f6276d86d6f3ad31e8e8ee518"
          },
          "sequence": 4294967295
        }
      ],
      "vout": [
        {
          "value": 58.44644503,
          "n": 0,
          "scriptPubKey": {
            "asm": "OP_DUP OP_HASH160 243d770eb8f31ea347d18e26971ccf5ab16b0639 OP_EQUALVERIFY OP_CHECKSIG",
            "hex": "76a914243d770eb8f31ea347d18e26971ccf5ab16b063988ac",
            "reqSigs": 1,
            "type": "pubkeyhash",
            "addresses": [
              "LNXaDnapBcGWcWa3td6NE1rmENzCU9DMXN"
            ]
          }
        }, 
        {
          "value": 1.33988340,
          "n": 1,
          "scriptPubKey": {
            "asm": "OP_DUP OP_HASH160 6eb1c4a40c43c190d26922e911d69644b25be4c5 OP_EQUALVERIFY OP_CHECKSIG",
            "hex": "76a9146eb1c4a40c43c190d26922e911d69644b25be4c588ac",
            "reqSigs": 1,
            "type": "pubkeyhash",
            "addresses": [
              "LVKFYrrnCHZDpgDmvxdDyBsGYoVuoGiEWr"
            ]
          }
        }
      ],
      "hex": "0100000001c5d35ac4d013a2e257b44399557297418dd794269f5ed7e1a68c0f70675fa286000000006a4730440220249a83b3590cb8e0b4026652447f7ee92c98b4204387651e7c20239035ca8ade0220573493e1202578b2ccbe0de8cc69723b2bafb9d7a735703cf6629e328b83581a0121025e9e1128767a2c18a4e95ce7ec5929d5cd9c773f6276d86d6f3ad31e8e8ee518ffffffff0297325e5c010000001976a914243d770eb8f31ea347d18e26971ccf5ab16b063988acf47ffc07000000001976a9146eb1c4a40c43c190d26922e911d69644b25be4c588ac00000000"
    }, 
    {
      "txid": "c94b72ef6602fd1302014c377a6f90176581995e6827ffe86feff28b7c15a54b",
      "hash": "c94b72ef6602fd1302014c377a6f90176581995e6827ffe86feff28b7c15a54b",
      "version": 1,
      "size": 373,
      "vsize": 373,
      "locktime": 1358854,
      "vin": [
        {
          "txid": "935b677338457b080157d71fcfa2275b7023b5194a778484f81d496368edd11c",
          "vout": 4,
          "scriptSig": {
            "asm": "3045022100bc86b4fa5dc2de9489b62ad70a42603d0b90da9b270a839b880ce77d762425e502201b3f1a0add688a533a0771435935026c9d1d5cde21f4ccee45ef80e3ad8c40eb[ALL] 02be01065b19cb4713a0b40fde9bf0b3279ba57a89165958d2b01c47b28fe83c81",
            "hex": "483045022100bc86b4fa5dc2de9489b62ad70a42603d0b90da9b270a839b880ce77d762425e502201b3f1a0add688a533a0771435935026c9d1d5cde21f4ccee45ef80e3ad8c40eb012102be01065b19cb4713a0b40fde9bf0b3279ba57a89165958d2b01c47b28fe83c81"
          },
          "sequence": 4294967294
        }, 
        {
          "txid": "a50ad556a40108cbf3ed1ac577dd2aab5fcac8f531836f02db20ea065c08e396",
          "vout": 1,
          "scriptSig": {
            "asm": "304402207e51036fd6a676370a841e2a753cea1fc930bbc375ad8a351eccf0cf969a87f702204b9f5064964ba2b9db3fecf51708f6aae25d7860c4b20dc5d47a95d1033fffe1[ALL] 02cfaa8bf652a587a7cc1230a02f9c81d17d9f8c0d4997ade21b0d72425ef15a4c",
            "hex": "47304402207e51036fd6a676370a841e2a753cea1fc930bbc375ad8a351eccf0cf969a87f702204b9f5064964ba2b9db3fecf51708f6aae25d7860c4b20dc5d47a95d1033fffe1012102cfaa8bf652a587a7cc1230a02f9c81d17d9f8c0d4997ade21b0d72425ef15a4c"
          },
          "sequence": 4294967294
        }
      ],
      "vout": [
        {
          "value": 0.42550000,
          "n": 0,
          "scriptPubKey": {
            "asm": "OP_DUP OP_HASH160 e6feb735888f544c4aac433e5d8cbdd6c29297d8 OP_EQUALVERIFY OP_CHECKSIG",
            "hex": "76a914e6feb735888f544c4aac433e5d8cbdd6c29297d888ac",
            "reqSigs": 1,
            "type": "pubkeyhash",
            "addresses": [
              "LgHLpHgLzDmeS8eEXi4uB8AVHfw4x7jb9K"
            ]
          }
        }, 
        {
          "value": 0.01000797,
          "n": 1,
          "scriptPubKey": {
            "asm": "OP_DUP OP_HASH160 987595e2df7006186dcffdf16f9ddfe084e8e88d OP_EQUALVERIFY OP_CHECKSIG",
            "hex": "76a914987595e2df7006186dcffdf16f9ddfe084e8e88d88ac",
            "reqSigs": 1,
            "type": "pubkeyhash",
            "addresses": [
              "LZ85qMWsW3iMZvXiFF4Xt9NF93ViCUf7Ba"
            ]
          }
        }
      ],
      "hex": "01000000021cd1ed6863491df88484774a19b523705b27a2cf1fd75701087b453873675b93040000006b483045022100bc86b4fa5dc2de9489b62ad70a42603d0b90da9b270a839b880ce77d762425e502201b3f1a0add688a533a0771435935026c9d1d5cde21f4ccee45ef80e3ad8c40eb012102be01065b19cb4713a0b40fde9bf0b3279ba57a89165958d2b01c47b28fe83c81feffffff96e3085c06ea20db026f8331f5c8ca5fab2add77c51aedf3cb0801a456d50aa5010000006a47304402207e51036fd6a676370a841e2a753cea1fc930bbc375ad8a351eccf0cf969a87f702204b9f5064964ba2b9db3fecf51708f6aae25d7860c4b20dc5d47a95d1033fffe1012102cfaa8bf652a587a7cc1230a02f9c81d17d9f8c0d4997ade21b0d72425ef15a4cfeffffff02f0428902000000001976a914e6feb735888f544c4aac433e5d8cbdd6c29297d888ac5d450f00000000001976a914987595e2df7006186dcffdf16f9ddfe084e8e88d88ac06bc1400"
    }
  ],
  "time": 1517201551,
  "mediantime": 1517200659,
  "nonce": 7080432,
  "bits": "1a042eae",
  "difficulty": 4011378.762614286,
  "chainwork": "000000000000000000000000000000000000000000000033761a3bdc4b89fa92",
  "previousblockhash": "ad85d196d00e6db8388c8dd4cdfa08e8ce875116a432fa8c4c5af7417dbdd755",
  "nextblockhash": "d8bf75c116e852935c7a4fcc8ae0169526e0000549639f08c48820a135a29684"
}
