{
  "hash": "db1ab58d48052f453889ba8cda899da81e04e19ad622d4eedcd967f0870cc856",
  "confirmations": 3093,
  "strippedsize": 1791,
  "size": 1827,
  "weight": 7200,
  "height": 1357902,
  "version": 536870912,
  "versionHex": "20000000",
  "merkleroot": "a9a40b758820e16d7abe429d691fea6708bfbd05c128039301829f929a0cc548",
  "tx": [
    {
      "txid": "3d302a95a47c972268c2bee9265baa4b1da28309ce0a099a1e703c49c56ba70f",
      "hash": "17b4a1ece2fb0fe4b8cd6876e7f60da4360b72e656f2af26a3d086190329fb0e",
      "version": 1,
      "size": 244,
      "vsize": 217,
      "locktime": 0,
      "vin": [
        {
          "coinbase": "034eb81404758c6c5a08018beeca0f000000fabe6d6d6565ed4184e7c5a583c00d62ee604d72ca63c32f417fae2e8633640d8fcf47e240000000000000000d2f6e6f64655374726174756d2f",
          "sequence": 0
        }
      ],
      "vout": [
        {
          "value": 25.00212999,
          "n": 0,
          "scriptPubKey": {
            "asm": "OP_DUP OP_HASH160 0c617fdb2ea42aed30a509595ee21ba3f6688db0 OP_EQUALVERIFY OP_CHECKSIG",
            "hex": "76a9140c617fdb2ea42aed30a509595ee21ba3f6688db088ac",
            "reqSigs": 1,
            "type": "pubkeyhash",
            "addresses": [
              "LLMRAtr3qBje2ySEa3CnZ55LA4TQMWnRY3"
            ]
          }
        }, 
        {
          "value": 0.00000000,
          "n": 1,
          "scriptPubKey": {
            "asm": "OP_RETURN aa21a9eda1ed428309de5ab6227bcad8b1fbe2f433eb0b8d83bd8d5992da2b0252ff712f",
            "hex": "6a24aa21a9eda1ed428309de5ab6227bcad8b1fbe2f433eb0b8d83bd8d5992da2b0252ff712f",
            "type": "nulldata"
          }
        }
      ],
      "hex": "010000000001010000000000000000000000000000000000000000000000000000000000000000ffffffff4c034eb81404758c6c5a08018beeca0f000000fabe6d6d6565ed4184e7c5a583c00d62ee604d72ca63c32f417fae2e8633640d8fcf47e240000000000000000d2f6e6f64655374726174756d2f000000000207390695000000001976a9140c617fdb2ea42aed30a509595ee21ba3f6688db088ac0000000000000000266a24aa21a9eda1ed428309de5ab6227bcad8b1fbe2f433eb0b8d83bd8d5992da2b0252ff712f0120000000000000000000000000000000000000000000000000000000000000000000000000"
    }, 
    {
      "txid": "2b5069f440f8b891f08753e1e6be18711ecb5f855d5e0c0b2db4b4c3c7f10918",
      "hash": "2b5069f440f8b891f08753e1e6be18711ecb5f855d5e0c0b2db4b4c3c7f10918",
      "version": 1,
      "size": 373,
      "vsize": 373,
      "locktime": 0,
      "vin": [
        {
          "txid": "3c6d647463cc7ea6699432c48437d616da4bf2990a63bd222b9a0db70e476753",
          "vout": 2,
          "scriptSig": {
            "asm": "30450221008739e8ff1d96b0374c518bc26b511af454451c8438494a6925e212f04538112302204ba0d8ce6418fce54fe969f329d9f8c20251999a54fb358f31231f9a1763b158[ALL] 0328c9ae635abf580c261c44815dc1aac309e16ff26250525b7e99951369d2b8c7",
            "hex": "4830450221008739e8ff1d96b0374c518bc26b511af454451c8438494a6925e212f04538112302204ba0d8ce6418fce54fe969f329d9f8c20251999a54fb358f31231f9a1763b15801210328c9ae635abf580c261c44815dc1aac309e16ff26250525b7e99951369d2b8c7"
          },
          "sequence": 4294967295
        }, 
        {
          "txid": "508420e6363c0b4c68b00d37cea5cdcab8f4a995da66eef93cfe90c0c0c6e6e7",
          "vout": 2,
          "scriptSig": {
            "asm": "3044022069b888940fe9ee425af81af3ec4dbe460d038e9ce1594d6bbed346818298347502205979a4ad34e71eb2350d113e065acb0add00320150a33fb8267df8683d33e068[ALL] 0328c9ae635abf580c261c44815dc1aac309e16ff26250525b7e99951369d2b8c7",
            "hex": "473044022069b888940fe9ee425af81af3ec4dbe460d038e9ce1594d6bbed346818298347502205979a4ad34e71eb2350d113e065acb0add00320150a33fb8267df8683d33e06801210328c9ae635abf580c261c44815dc1aac309e16ff26250525b7e99951369d2b8c7"
          },
          "sequence": 4294967295
        }
      ],
      "vout": [
        {
          "value": 7.58000000,
          "n": 0,
          "scriptPubKey": {
            "asm": "OP_DUP OP_HASH160 8052c61257f257c70dffd7f275187ce9b4250cf0 OP_EQUALVERIFY OP_CHECKSIG",
            "hex": "76a9148052c61257f257c70dffd7f275187ce9b4250cf088ac",
            "reqSigs": 1,
            "type": "pubkeyhash",
            "addresses": [
              "LWvTuz9DVwH6CHudeh6jZaYqmg5JTjRbU9"
            ]
          }
        }, 
        {
          "value": 15.41023502,
          "n": 1,
          "scriptPubKey": {
            "asm": "OP_DUP OP_HASH160 c6e3836c2f4cd8f9c53e32813ded99ac0ce001f1 OP_EQUALVERIFY OP_CHECKSIG",
            "hex": "76a914c6e3836c2f4cd8f9c53e32813ded99ac0ce001f188ac",
            "reqSigs": 1,
            "type": "pubkeyhash",
            "addresses": [
              "LdMac6qdwFnBCVXN96dvoPjzbcE36gzs64"
            ]
          }
        }
      ],
      "hex": "01000000025367470eb70d9a2b22bd630a99f24bda16d63784c4329469a67ecc6374646d3c020000006b4830450221008739e8ff1d96b0374c518bc26b511af454451c8438494a6925e212f04538112302204ba0d8ce6418fce54fe969f329d9f8c20251999a54fb358f31231f9a1763b15801210328c9ae635abf580c261c44815dc1aac309e16ff26250525b7e99951369d2b8c7ffffffffe7e6c6c0c090fe3cf9ee66da95a9f4b8cacda5ce370db0684c0b3c36e6208450020000006a473044022069b888940fe9ee425af81af3ec4dbe460d038e9ce1594d6bbed346818298347502205979a4ad34e71eb2350d113e065acb0add00320150a33fb8267df8683d33e06801210328c9ae635abf580c261c44815dc1aac309e16ff26250525b7e99951369d2b8c7ffffffff0280292e2d000000001976a9148052c61257f257c70dffd7f275187ce9b4250cf088ac0e27da5b000000001976a914c6e3836c2f4cd8f9c53e32813ded99ac0ce001f188ac00000000"
    }, 
    {
      "txid": "a97e17b12b6fd650cdd8b5ce0fc547802c0b6a6dc6143c056d846c4aaee6c09d",
      "hash": "a97e17b12b6fd650cdd8b5ce0fc547802c0b6a6dc6143c056d846c4aaee6c09d",
      "version": 1,
      "size": 225,
      "vsize": 225,
      "locktime": 0,
      "vin": [
        {
          "txid": "16dbb48f2dcfabad3d52b9d9001ce0d225a5dcde5b2315fb807823bbd70c0ffa",
          "vout": 117,
          "scriptSig": {
            "asm": "304402203341cf6e8f21381f0f1c32656df6921f14bea84fc9fae0264750f5faf706efac0220597b49dd8e51e4c45baaaac42a191bce20b4262893a10bbb583839c66449a520[ALL] 02efd766b95e2529832ee9bd1e298d5675a4fa3ae55469802ec5fe5ebc666f830f",
            "hex": "47304402203341cf6e8f21381f0f1c32656df6921f14bea84fc9fae0264750f5faf706efac0220597b49dd8e51e4c45baaaac42a191bce20b4262893a10bbb583839c66449a520012102efd766b95e2529832ee9bd1e298d5675a4fa3ae55469802ec5fe5ebc666f830f"
          },
          "sequence": 4294967295
        }
      ],
      "vout": [
        {
          "value": 0.00054696,
          "n": 0,
          "scriptPubKey": {
            "asm": "OP_DUP OP_HASH160 2c4d5017c7f648e87a530e76340daa0a0a38abb1 OP_EQUALVERIFY OP_CHECKSIG",
            "hex": "76a9142c4d5017c7f648e87a530e76340daa0a0a38abb188ac",
            "reqSigs": 1,
            "type": "pubkeyhash",
            "addresses": [
              "LPGCcSnhuLC5ASWUJ3x1EUJvitXdAoXmMq"
            ]
          }
        }, 
        {
          "value": 0.05991340,
          "n": 1,
          "scriptPubKey": {
            "asm": "OP_DUP OP_HASH160 747dd887a3c2cb34009a82ad282f9f8c16b6b2cf OP_EQUALVERIFY OP_CHECKSIG",
            "hex": "76a914747dd887a3c2cb34009a82ad282f9f8c16b6b2cf88ac",
            "reqSigs": 1,
            "type": "pubkeyhash",
            "addresses": [
              "LVquQPMP7PqLEttMGQc4ipUoCKB3bhT2Wu"
            ]
          }
        }
      ],
      "hex": "0100000001fa0f0cd7bb237880fb15235bdedca525d2e01c00d9b9523dadabcf2d8fb4db16750000006a47304402203341cf6e8f21381f0f1c32656df6921f14bea84fc9fae0264750f5faf706efac0220597b49dd8e51e4c45baaaac42a191bce20b4262893a10bbb583839c66449a520012102efd766b95e2529832ee9bd1e298d5675a4fa3ae55469802ec5fe5ebc666f830fffffffff02a8d50000000000001976a9142c4d5017c7f648e87a530e76340daa0a0a38abb188acac6b5b00000000001976a914747dd887a3c2cb34009a82ad282f9f8c16b6b2cf88ac00000000"
    }, 
    {
      "txid": "f59c1006ecd528e12c2bfcd397f7536380912d967a4bb215eef3a58963c9791b",
      "hash": "f59c1006ecd528e12c2bfcd397f7536380912d967a4bb215eef3a58963c9791b",
      "version": 1,
      "size": 226,
      "vsize": 226,
      "locktime": 0,
      "vin": [
        {
          "txid": "cf1db76b37812f8d1dac0c45c67102252f861fe0fd8fe6720c9ad18a71d21129",
          "vout": 25,
          "scriptSig": {
            "asm": "3045022100ec0ba079bcb45493403a95f19127d007f18694a10bde8f0a275b7352279c2d1c02207420d9b2935564d221c6c512768322780b44e9f3d65c1d545ed6dc911e13201c[ALL] 0279523333b4af9ddfaf139d10852d1c0d3d0736d9715fef6bcdfadb4340acb2e6",
            "hex": "483045022100ec0ba079bcb45493403a95f19127d007f18694a10bde8f0a275b7352279c2d1c02207420d9b2935564d221c6c512768322780b44e9f3d65c1d545ed6dc911e13201c01210279523333b4af9ddfaf139d10852d1c0d3d0736d9715fef6bcdfadb4340acb2e6"
          },
          "sequence": 4294967295
        }
      ],
      "vout": [
        {
          "value": 5.52528534,
          "n": 0,
          "scriptPubKey": {
            "asm": "OP_DUP OP_HASH160 b59f0097138b176062714327278bbfd6697274c5 OP_EQUALVERIFY OP_CHECKSIG",
            "hex": "76a914b59f0097138b176062714327278bbfd6697274c588ac",
            "reqSigs": 1,
            "type": "pubkeyhash",
            "addresses": [
              "LbnH3cE89u8CuLMtWXpWoa1MzGpXSh9f7P"
            ]
          }
        }, 
        {
          "value": 94.47448866,
          "n": 1,
          "scriptPubKey": {
            "asm": "OP_DUP OP_HASH160 cb35072b8a5ae6d9fa817bda22f89e0e005e3664 OP_EQUALVERIFY OP_CHECKSIG",
            "hex": "76a914cb35072b8a5ae6d9fa817bda22f89e0e005e366488ac",
            "reqSigs": 1,
            "type": "pubkeyhash",
            "addresses": [
              "LdkQxc46dUHPNxA5DcFyA2qpPd8R4v6j5i"
            ]
          }
        }
      ],
      "hex": "01000000012911d2718ad19a0c72e68ffde01f862f250271c6450cac1d8d2f81376bb71dcf190000006b483045022100ec0ba079bcb45493403a95f19127d007f18694a10bde8f0a275b7352279c2d1c02207420d9b2935564d221c6c512768322780b44e9f3d65c1d545ed6dc911e13201c01210279523333b4af9ddfaf139d10852d1c0d3d0736d9715fef6bcdfadb4340acb2e6ffffffff0296eaee20000000001976a914b59f0097138b176062714327278bbfd6697274c588ac22a11c33020000001976a914cb35072b8a5ae6d9fa817bda22f89e0e005e366488ac00000000"
    }, 
    {
      "txid": "4e680cc693e60963a196a0488659accb83533303916ee0e3a5c2433fe633ab1f",
      "hash": "4e680cc693e60963a196a0488659accb83533303916ee0e3a5c2433fe633ab1f",
      "version": 1,
      "size": 226,
      "vsize": 226,
      "locktime": 0,
      "vin": [
        {
          "txid": "cf1db76b37812f8d1dac0c45c67102252f861fe0fd8fe6720c9ad18a71d21129",
          "vout": 24,
          "scriptSig": {
            "asm": "3045022100f30d7b62456fd702771be41b4b8341b727f71f1a09e01fed601c59e9b9a112da02206fff0c64ae9973b8aa72cc2c52ab6cdbd178cd6931ab4f49dc125fca02f2c46a[ALL] 026684427ec3301b9843e9333209dcffbab96824f6293405afba7fb1f91d320e54",
            "hex": "483045022100f30d7b62456fd702771be41b4b8341b727f71f1a09e01fed601c59e9b9a112da02206fff0c64ae9973b8aa72cc2c52ab6cdbd178cd6931ab4f49dc125fca02f2c46a0121026684427ec3301b9843e9333209dcffbab96824f6293405afba7fb1f91d320e54"
          },
          "sequence": 4294967295
        }
      ],
      "vout": [
        {
          "value": 99.03986947,
          "n": 0,
          "scriptPubKey": {
            "asm": "OP_DUP OP_HASH160 febedf2944ffcf89e2aa6bb6ee0228ee47b8a2c7 OP_EQUALVERIFY OP_CHECKSIG",
            "hex": "76a914febedf2944ffcf89e2aa6bb6ee0228ee47b8a2c788ac",
            "reqSigs": 1,
            "type": "pubkeyhash",
            "addresses": [
              "LiSvYwLxnk4nmspA45CkZdEaXEA5oDeSbG"
            ]
          }
        }, 
        {
          "value": 0.95990453,
          "n": 1,
          "scriptPubKey": {
            "asm": "OP_DUP OP_HASH160 ce642db1efa61d1e17fe1f352c30f615418c31b1 OP_EQUALVERIFY OP_CHECKSIG",
            "hex": "76a914ce642db1efa61d1e17fe1f352c30f615418c31b188ac",
            "reqSigs": 1,
            "type": "pubkeyhash",
            "addresses": [
              "Le3FUFgpFJwFeHigfGzHsVyexhPDCdwsmE"
            ]
          }
        }
      ],
      "hex": "01000000012911d2718ad19a0c72e68ffde01f862f250271c6450cac1d8d2f81376bb71dcf180000006b483045022100f30d7b62456fd702771be41b4b8341b727f71f1a09e01fed601c59e9b9a112da02206fff0c64ae9973b8aa72cc2c52ab6cdbd178cd6931ab4f49dc125fca02f2c46a0121026684427ec3301b9843e9333209dcffbab96824f6293405afba7fb1f91d320e54ffffffff0203d9524e020000001976a914febedf2944ffcf89e2aa6bb6ee0228ee47b8a2c788acb5b2b805000000001976a914ce642db1efa61d1e17fe1f352c30f615418c31b188ac00000000"
    }, 
    {
      "txid": "8ad2eee04c5b1565443958111a970e8992237d7c0ba89686e064b8cb29e8e343",
      "hash": "8ad2eee04c5b1565443958111a970e8992237d7c0ba89686e064b8cb29e8e343",
      "version": 2,
      "size": 226,
      "vsize": 226,
      "locktime": 1357899,
      "vin": [
        {
          "txid": "8f7980f4f051b068c826584092bcdda8151fd4e5c2ee8cd6589e7ea527d5a71e",
          "vout": 0,
          "scriptSig": {
            "asm": "30450221008480b48e8decc2e59ca4ec71d437dfb8829c0a0fb86b277513c9b66e5c9bf91d022068e4d2fa54a3704e2d1943ce52067fae6721cba914575acda3f02a96ff8a37be[ALL] 026a02582a703009c6fda62ea6d10a4beba5b8d62ee59b05e2eeacad5620fc84e4",
            "hex": "4830450221008480b48e8decc2e59ca4ec71d437dfb8829c0a0fb86b277513c9b66e5c9bf91d022068e4d2fa54a3704e2d1943ce52067fae6721cba914575acda3f02a96ff8a37be0121026a02582a703009c6fda62ea6d10a4beba5b8d62ee59b05e2eeacad5620fc84e4"
          },
          "sequence": 4294967294
        }
      ],
      "vout": [
        {
          "value": 237.33812601,
          "n": 0,
          "scriptPubKey": {
            "asm": "OP_DUP OP_HASH160 197beacab5159a79eeb6540c21d5764fd47526f5 OP_EQUALVERIFY OP_CHECKSIG",
            "hex": "76a914197beacab5159a79eeb6540c21d5764fd47526f588ac",
            "reqSigs": 1,
            "type": "pubkeyhash",
            "addresses": [
              "LMYhbvXXbJFDVNEEZASnhX9xgvqQkpvREn"
            ]
          }
        }, 
        {
          "value": 1.00000000,
          "n": 1,
          "scriptPubKey": {
            "asm": "OP_DUP OP_HASH160 f942468a34aca52b1b1b9dbc4e1d20abf7ee1f72 OP_EQUALVERIFY OP_CHECKSIG",
            "hex": "76a914f942468a34aca52b1b1b9dbc4e1d20abf7ee1f7288ac",
            "reqSigs": 1,
            "type": "pubkeyhash",
            "addresses": [
              "LhwuutFdrnvKMoA3D1W48hWDqoxgzkEa9s"
            ]
          }
        }
      ],
      "hex": "02000000011ea7d527a57e9e58d68ceec2e5d41f15a8ddbc92405826c868b051f0f480798f000000006b4830450221008480b48e8decc2e59ca4ec71d437dfb8829c0a0fb86b277513c9b66e5c9bf91d022068e4d2fa54a3704e2d1943ce52067fae6721cba914575acda3f02a96ff8a37be0121026a02582a703009c6fda62ea6d10a4beba5b8d62ee59b05e2eeacad5620fc84e4feffffff02793da586050000001976a914197beacab5159a79eeb6540c21d5764fd47526f588ac00e1f505000000001976a914f942468a34aca52b1b1b9dbc4e1d20abf7ee1f7288ac4bb81400"
    }, 
    {
      "txid": "223760272bf82833b2eb0ec60a87779b54c5e7210ba1147bb7c8d93a3103f65c",
      "hash": "223760272bf82833b2eb0ec60a87779b54c5e7210ba1147bb7c8d93a3103f65c",
      "version": 1,
      "size": 226,
      "vsize": 226,
      "locktime": 1357899,
      "vin": [
        {
          "txid": "fb3f7dfb2991c96278f076ba8b253bf1cd6a865dd3a8377b5178963632ee8693",
          "vout": 1,
          "scriptSig": {
            "asm": "3045022100e5c5e859596156a92d1d5a317fa66f2b8c853ed8bfeab6d2ea811c029b053b3702207394cb0e6c283631987ed5f541fcc94a36d31b945e8b0c8b461cdee1223239ba[ALL] 02cac9e9a684ce07e9d50b94c39a7408e72b28e372e10a35524b5ef69a1674e751",
            "hex": "483045022100e5c5e859596156a92d1d5a317fa66f2b8c853ed8bfeab6d2ea811c029b053b3702207394cb0e6c283631987ed5f541fcc94a36d31b945e8b0c8b461cdee1223239ba012102cac9e9a684ce07e9d50b94c39a7408e72b28e372e10a35524b5ef69a1674e751"
          },
          "sequence": 4294967294
        }
      ],
      "vout": [
        {
          "value": 6.74809010,
          "n": 0,
          "scriptPubKey": {
            "asm": "OP_DUP OP_HASH160 53b07e9e026ec4e14a750d3c90d527f1298d3d4d OP_EQUALVERIFY OP_CHECKSIG",
            "hex": "76a91453b07e9e026ec4e14a750d3c90d527f1298d3d4d88ac",
            "reqSigs": 1,
            "type": "pubkeyhash",
            "addresses": [
              "LSrTnCEzJZHoHuffeNGDhNa128WMRDwKs5"
            ]
          }
        }, 
        {
          "value": 16.32831890,
          "n": 1,
          "scriptPubKey": {
            "asm": "OP_DUP OP_HASH160 908d400ce464e478ccbd5690e58e3e9093f7b2a3 OP_EQUALVERIFY OP_CHECKSIG",
            "hex": "76a914908d400ce464e478ccbd5690e58e3e9093f7b2a388ac",
            "reqSigs": 1,
            "type": "pubkeyhash",
            "addresses": [
              "LYQGn59XWyCaxiFKpbXuxfvRTAWQr9hKqJ"
            ]
          }
        }
      ],
      "hex": "01000000019386ee32369678517b37a8d35d866acdf13b258bba76f07862c99129fb7d3ffb010000006b483045022100e5c5e859596156a92d1d5a317fa66f2b8c853ed8bfeab6d2ea811c029b053b3702207394cb0e6c283631987ed5f541fcc94a36d31b945e8b0c8b461cdee1223239ba012102cac9e9a684ce07e9d50b94c39a7408e72b28e372e10a35524b5ef69a1674e751feffffff02b2c43828000000001976a91453b07e9e026ec4e14a750d3c90d527f1298d3d4d88ac92095361000000001976a914908d400ce464e478ccbd5690e58e3e9093f7b2a388ac4bb81400"
    }
  ],
  "time": 1517063112,
  "mediantime": 1517062559,
  "nonce": 3967984181,
  "bits": "1a047f14",
  "difficulty": 3731199.183374282,
  "chainwork": "000000000000000000000000000000000000000000000032a0b6ac8e82ff4f06",
  "previousblockhash": "1633f3efe42ca0345a59b2640fab6bf12a4c9336671e95d393ac304f65b16ad5",
  "nextblockhash": "5a0566c04fae7522fc0751f3dc885c4e914c3c448b95153cfc8c96c4824106a0"
}
