{
  "hash": "dba642cca2cf5f2d072e4e2fa470281b3c67429176789494840e3b1f78f5c8f1",
  "confirmations": 1058,
  "strippedsize": 253,
  "size": 253,
  "weight": 1012,
  "height": 1359936,
  "version": 536870912,
  "versionHex": "20000000",
  "merkleroot": "bc431d2f16de5c0f607c1e18032304be1b6646a68a5e16327f03d472aa45ea35",
  "tx": [
    {
      "txid": "bc431d2f16de5c0f607c1e18032304be1b6646a68a5e16327f03d472aa45ea35",
      "hash": "bc431d2f16de5c0f607c1e18032304be1b6646a68a5e16327f03d472aa45ea35",
      "version": 1,
      "size": 172,
      "vsize": 172,
      "locktime": 0,
      "vin": [
        {
          "coinbase": "0340c0141a4d696e656420627920416e74506f6f6c20626a3242205a70f0f8fabe6d6d5235b80d98eb4a6341e3affb1547281a49cbf8b812874c840df2421f20ed39030400000000000000cf1c00000000000019000000",
          "sequence": 4294967295
        }
      ],
      "vout": [
        {
          "value": 25.00000000,
          "n": 0,
          "scriptPubKey": {
            "asm": "OP_DUP OP_HASH160 0ff3ccc5e8be88afe24b5d634e5852d474dbdff1 OP_EQUALVERIFY OP_CHECKSIG",
            "hex": "76a9140ff3ccc5e8be88afe24b5d634e5852d474dbdff188ac",
            "reqSigs": 1,
            "type": "pubkeyhash",
            "addresses": [
              "LLgJTbzZMsRTCUF1NtvvL9SR1a4pVieW89"
            ]
          }
        }
      ],
      "hex": "01000000010000000000000000000000000000000000000000000000000000000000000000ffffffff570340c0141a4d696e656420627920416e74506f6f6c20626a3242205a70f0f8fabe6d6d5235b80d98eb4a6341e3affb1547281a49cbf8b812874c840df2421f20ed39030400000000000000cf1c00000000000019000000ffffffff0100f90295000000001976a9140ff3ccc5e8be88afe24b5d634e5852d474dbdff188ac00000000"
    }
  ],
  "time": 1517351160,
  "mediantime": 1517350703,
  "nonce": 909396805,
  "bits": "1a042eae",
  "difficulty": 4011378.762614286,
  "chainwork": "0000000000000000000000000000000000000000000000347854ba3e69851702",
  "previousblockhash": "9a82971d7143c0426a58d5f82c11aa38935fbd638e090b081a9345c7741da8bd",
  "nextblockhash": "f0a340b01a93e8501b0dcc5bee85180bcabb9a992ddeaff3bc40911924ad0700"
}
