{
  "hash": "dbcdc2c9d0fb319f1da9739f8c35f6532aa08a1db252a560ccb8bbb9fa3a819c",
  "confirmations": 1641,
  "strippedsize": 254,
  "size": 254,
  "weight": 1016,
  "height": 1359353,
  "version": 536870912,
  "versionHex": "20000000",
  "merkleroot": "0f2eb2ce16f53d6f4667f4a4d37737225c38b9d027191dd948d6350d86b6f310",
  "tx": [
    {
      "txid": "0f2eb2ce16f53d6f4667f4a4d37737225c38b9d027191dd948d6350d86b6f310",
      "hash": "0f2eb2ce16f53d6f4667f4a4d37737225c38b9d027191dd948d6350d86b6f310",
      "version": 1,
      "size": 173,
      "vsize": 173,
      "locktime": 0,
      "vin": [
        {
          "coinbase": "03f9bd141b4d696e656420627920416e74506f6f6c20626a312045205a6fb575fabe6d6d862a6f39693630b6be87b5e48c026313cb6ea7a7526a7c871e7f257689e073ba0400000000000000f834000000000000f0010000",
          "sequence": 4294967295
        }
      ],
      "vout": [
        {
          "value": 25.00000000,
          "n": 0,
          "scriptPubKey": {
            "asm": "OP_DUP OP_HASH160 0ff3ccc5e8be88afe24b5d634e5852d474dbdff1 OP_EQUALVERIFY OP_CHECKSIG",
            "hex": "76a9140ff3ccc5e8be88afe24b5d634e5852d474dbdff188ac",
            "reqSigs": 1,
            "type": "pubkeyhash",
            "addresses": [
              "LLgJTbzZMsRTCUF1NtvvL9SR1a4pVieW89"
            ]
          }
        }
      ],
      "hex": "01000000010000000000000000000000000000000000000000000000000000000000000000ffffffff5803f9bd141b4d696e656420627920416e74506f6f6c20626a312045205a6fb575fabe6d6d862a6f39693630b6be87b5e48c026313cb6ea7a7526a7c871e7f257689e073ba0400000000000000f834000000000000f0010000ffffffff0100f90295000000001976a9140ff3ccc5e8be88afe24b5d634e5852d474dbdff188ac00000000"
    }
  ],
  "time": 1517270389,
  "mediantime": 1517270136,
  "nonce": 7601713,
  "bits": "1a042eae",
  "difficulty": 4011378.762614286,
  "chainwork": "000000000000000000000000000000000000000000000033ecef767e8b1d0ff4",
  "previousblockhash": "140e4ac133e6b8f7d6e9d3c78d9b20700dc0f68254aa59b025b60a09eefb05da",
  "nextblockhash": "43d4edea5e5e237bb5d5719cec1ed1d860d05251a2851af6bf8490c141b98a52"
}
