{
  "hash": "dbdcc96d6516ad338a612cb499fa7c466044db7590ef4827a531e8cf6b7d2471",
  "confirmations": 1031,
  "strippedsize": 234,
  "size": 234,
  "weight": 936,
  "height": 1359963,
  "version": 536870912,
  "versionHex": "20000000",
  "merkleroot": "add850b524bcba2d25318852ee77adda25b30f574e73864ed09d8b64b560d29d",
  "tx": [
    {
      "txid": "add850b524bcba2d25318852ee77adda25b30f574e73864ed09d8b64b560d29d",
      "hash": "add850b524bcba2d25318852ee77adda25b30f574e73864ed09d8b64b560d29d",
      "version": 1,
      "size": 153,
      "vsize": 153,
      "locktime": 0,
      "vin": [
        {
          "coinbase": "035bc014045a71000e2cfabe6d6d7410c104dc348dea0b0167ac5277c62ce0e94f9e7e5e855e71160611473bb6a14000000000000000042f4c502f08560077371f000000",
          "sequence": 4294967295
        }
      ],
      "vout": [
        {
          "value": 25.00000000,
          "n": 0,
          "scriptPubKey": {
            "asm": "OP_DUP OP_HASH160 57757ed2ecf2052ff3126c397aca7defb9ca2cec OP_EQUALVERIFY OP_CHECKSIG",
            "hex": "76a91457757ed2ecf2052ff3126c397aca7defb9ca2cec88ac",
            "reqSigs": 1,
            "type": "pubkeyhash",
            "addresses": [
              "LTCPodGk5FwcJaRzH9yKnwicxzFUbxp6tN"
            ]
          }
        }
      ],
      "hex": "01000000010000000000000000000000000000000000000000000000000000000000000000ffffffff44035bc014045a71000e2cfabe6d6d7410c104dc348dea0b0167ac5277c62ce0e94f9e7e5e855e71160611473bb6a14000000000000000042f4c502f08560077371f000000ffffffff0100f90295000000001976a91457757ed2ecf2052ff3126c397aca7defb9ca2cec88ac00000000"
    }
  ],
  "time": 1517355022,
  "mediantime": 1517354802,
  "nonce": 2265383061,
  "bits": "1a042eae",
  "difficulty": 4011378.762614286,
  "chainwork": "0000000000000000000000000000000000000000000000347ec963cdaa44f7b8",
  "previousblockhash": "d8e3c2e6cecd96796d2f2e5df19986bb6e6b47e5a8303e4ac89429da8c3a79da",
  "nextblockhash": "e5b267adb84685e22794c8c31b5ba9af52be5c87663767f4048aacf2c6875ed6"
}
