{
  "hash": "dc0cda87e9caaa219ab5b979e132cce658488e5fbdd3cc575bfa915c84fe36e6",
  "confirmations": 3495,
  "strippedsize": 253,
  "size": 253,
  "weight": 1012,
  "height": 1357500,
  "version": 536870912,
  "versionHex": "20000000",
  "merkleroot": "19c38d12615d78ed7341cd4ed7003cae5ebcc80765b5619423b57fc5f29335ed",
  "tx": [
    {
      "txid": "19c38d12615d78ed7341cd4ed7003cae5ebcc80765b5619423b57fc5f29335ed",
      "hash": "19c38d12615d78ed7341cd4ed7003cae5ebcc80765b5619423b57fc5f29335ed",
      "version": 1,
      "size": 172,
      "vsize": 172,
      "locktime": 0,
      "vin": [
        {
          "coinbase": "03bcb6141a4d696e656420627920416e74506f6f6c20626a341e205a6bbae6fabe6d6dda4688b051b6d3547dc1b50017ec92267021b87407ecd88aa203c837239b7cc70400000000000000720b0000000000001a000000",
          "sequence": 4294967295
        }
      ],
      "vout": [
        {
          "value": 25.00000000,
          "n": 0,
          "scriptPubKey": {
            "asm": "OP_DUP OP_HASH160 0ff3ccc5e8be88afe24b5d634e5852d474dbdff1 OP_EQUALVERIFY OP_CHECKSIG",
            "hex": "76a9140ff3ccc5e8be88afe24b5d634e5852d474dbdff188ac",
            "reqSigs": 1,
            "type": "pubkeyhash",
            "addresses": [
              "LLgJTbzZMsRTCUF1NtvvL9SR1a4pVieW89"
            ]
          }
        }
      ],
      "hex": "01000000010000000000000000000000000000000000000000000000000000000000000000ffffffff5703bcb6141a4d696e656420627920416e74506f6f6c20626a341e205a6bbae6fabe6d6dda4688b051b6d3547dc1b50017ec92267021b87407ecd88aa203c837239b7cc70400000000000000720b0000000000001a000000ffffffff0100f90295000000001976a9140ff3ccc5e8be88afe24b5d634e5852d474dbdff188ac00000000"
    }
  ],
  "time": 1517009638,
  "mediantime": 1517009236,
  "nonce": 3574912327,
  "bits": "1a047f14",
  "difficulty": 3731199.183374282,
  "chainwork": "000000000000000000000000000000000000000000000032474f066f2575ee32",
  "previousblockhash": "037841e2a5ea580a6613cda2a29706b5a1b130d9e9747cedb3fadb43bb085921",
  "nextblockhash": "3eac297b736f731031e8c4b7cc291b2185f7195c7c676bde297112c519ddfaab"
}
