{
  "hash": "dc2e7863464d06f0b1fc300a25d52b4667fa4cd0f61321d4f117929099ad9f8c",
  "confirmations": 2631,
  "strippedsize": 266,
  "size": 266,
  "weight": 1064,
  "height": 1358364,
  "version": 536870912,
  "versionHex": "20000000",
  "merkleroot": "13d03719153c9c4fe9d36beb4e2836635fcfcb927f5d40dac8d78c2eb7e10616",
  "tx": [
    {
      "txid": "13d03719153c9c4fe9d36beb4e2836635fcfcb927f5d40dac8d78c2eb7e10616",
      "hash": "13d03719153c9c4fe9d36beb4e2836635fcfcb927f5d40dac8d78c2eb7e10616",
      "version": 1,
      "size": 185,
      "vsize": 185,
      "locktime": 956566322,
      "vin": [
        {
          "coinbase": "031cba142cfabe6d6d102381432c5b7b9c256cf001def825323319c709ac5b6d0e675b7a798206a43f08000000f09f909f0e4d696e65642062792073726c7463000000000000000000000000000000000000000000000000000000000000000000000000",
          "sequence": 22
        }
      ],
      "vout": [
        {
          "value": 25.00000000,
          "n": 0,
          "scriptPubKey": {
            "asm": "OP_DUP OP_HASH160 aa3750aa18b8a0f3f0590731e1fab934856680cf OP_EQUALVERIFY OP_CHECKSIG",
            "hex": "76a914aa3750aa18b8a0f3f0590731e1fab934856680cf88ac",
            "reqSigs": 1,
            "type": "pubkeyhash",
            "addresses": [
              "LajyQBeZaBA1NkZDeY8YT5RYYVRkXMvb2T"
            ]
          }
        }
      ],
      "hex": "01000000010000000000000000000000000000000000000000000000000000000000000000ffffffff64031cba142cfabe6d6d102381432c5b7b9c256cf001def825323319c709ac5b6d0e675b7a798206a43f08000000f09f909f0e4d696e65642062792073726c7463000000000000000000000000000000000000000000000000000000000000000000000000160000000100f90295000000001976a914aa3750aa18b8a0f3f0590731e1fab934856680cf88ac320b0439"
    }
  ],
  "time": 1517132141,
  "mediantime": 1517131524,
  "nonce": 61015843,
  "bits": "1a047f14",
  "difficulty": 3731199.183374282,
  "chainwork": "000000000000000000000000000000000000000000000033077663d4f250c5f2",
  "previousblockhash": "ffd1580660c225044ba2e70b44b3c55c14e98cc22ec5f1a099a5689ea767ec19",
  "nextblockhash": "bd9f457e598a099a2176682caaa3f8422844b5fcdeb53a186c01c5f851414352"
}
