{
  "hash": "dc6953bf30aa95728997cef4358b04992503e4fa6ae2337b9fc3c84dfbcb04ad",
  "confirmations": 3572,
  "strippedsize": 253,
  "size": 253,
  "weight": 1012,
  "height": 1357423,
  "version": 536870912,
  "versionHex": "20000000",
  "merkleroot": "ccb238a17512126ecc6838e416df9e89f28d5040246c9a5846e50a12fa788226",
  "tx": [
    {
      "txid": "ccb238a17512126ecc6838e416df9e89f28d5040246c9a5846e50a12fa788226",
      "hash": "ccb238a17512126ecc6838e416df9e89f28d5040246c9a5846e50a12fa788226",
      "version": 1,
      "size": 172,
      "vsize": 172,
      "locktime": 0,
      "vin": [
        {
          "coinbase": "036fb6141a4d696e656420627920416e74506f6f6c20626a3242205a6b996dfabe6d6d13c1f4ecdbc238e8c3d52f17111515b4bebf0c7f9dbda4d69e43bac0f6c1c5020400000000000000950600000000000002000000",
          "sequence": 4294967295
        }
      ],
      "vout": [
        {
          "value": 25.00000000,
          "n": 0,
          "scriptPubKey": {
            "asm": "OP_DUP OP_HASH160 0ff3ccc5e8be88afe24b5d634e5852d474dbdff1 OP_EQUALVERIFY OP_CHECKSIG",
            "hex": "76a9140ff3ccc5e8be88afe24b5d634e5852d474dbdff188ac",
            "reqSigs": 1,
            "type": "pubkeyhash",
            "addresses": [
              "LLgJTbzZMsRTCUF1NtvvL9SR1a4pVieW89"
            ]
          }
        }
      ],
      "hex": "01000000010000000000000000000000000000000000000000000000000000000000000000ffffffff57036fb6141a4d696e656420627920416e74506f6f6c20626a3242205a6b996dfabe6d6d13c1f4ecdbc238e8c3d52f17111515b4bebf0c7f9dbda4d69e43bac0f6c1c5020400000000000000950600000000000002000000ffffffff0100f90295000000001976a9140ff3ccc5e8be88afe24b5d634e5852d474dbdff188ac00000000"
    }
  ],
  "time": 1517001069,
  "mediantime": 1517000602,
  "nonce": 786273050,
  "bits": "1a047f14",
  "difficulty": 3731199.183374282,
  "chainwork": "000000000000000000000000000000000000000000000032362f128e12e85a60",
  "previousblockhash": "ef80bacd3e7dd7063f3c50b558595857b630d1f79d89e98bf799b0017a849f8c",
  "nextblockhash": "83638078ba0d41fb17012413aeb4fd8104ef3ad5abee62f1b6bba50c95f9f0b1"
}
