{
  "hash": "dceb811c418e848a22a96c63eded95e90a4efb32d25c97c550733dc3050f279e",
  "confirmations": 201,
  "strippedsize": 234,
  "size": 234,
  "weight": 936,
  "height": 1360793,
  "version": 536870912,
  "versionHex": "20000000",
  "merkleroot": "a983095acf3086cfb2e789c3dae3f754bac71260577d284203e4dc2650a64844",
  "tx": [
    {
      "txid": "a983095acf3086cfb2e789c3dae3f754bac71260577d284203e4dc2650a64844",
      "hash": "a983095acf3086cfb2e789c3dae3f754bac71260577d284203e4dc2650a64844",
      "version": 1,
      "size": 153,
      "vsize": 153,
      "locktime": 0,
      "vin": [
        {
          "coinbase": "0399c314045a72f0c32cfabe6d6d490957a3019c1f914b259e6f4444bd48e87f248e00e7e4ec7fe1d61468f77c6a4000000000000000042f4c502f082200539501000000",
          "sequence": 4294967295
        }
      ],
      "vout": [
        {
          "value": 25.00000000,
          "n": 0,
          "scriptPubKey": {
            "asm": "OP_DUP OP_HASH160 57757ed2ecf2052ff3126c397aca7defb9ca2cec OP_EQUALVERIFY OP_CHECKSIG",
            "hex": "76a91457757ed2ecf2052ff3126c397aca7defb9ca2cec88ac",
            "reqSigs": 1,
            "type": "pubkeyhash",
            "addresses": [
              "LTCPodGk5FwcJaRzH9yKnwicxzFUbxp6tN"
            ]
          }
        }
      ],
      "hex": "01000000010000000000000000000000000000000000000000000000000000000000000000ffffffff440399c314045a72f0c32cfabe6d6d490957a3019c1f914b259e6f4444bd48e87f248e00e7e4ec7fe1d61468f77c6a4000000000000000042f4c502f082200539501000000ffffffff0100f90295000000001976a91457757ed2ecf2052ff3126c397aca7defb9ca2cec88ac00000000"
    }
  ],
  "time": 1517482179,
  "mediantime": 1517481202,
  "nonce": 2256449867,
  "bits": "1a042eae",
  "difficulty": 4011378.762614286,
  "chainwork": "000000000000000000000000000000000000000000000035453d7456b3168b34",
  "previousblockhash": "c00808d01ae1dc0d2fb0a27315786eaab4338e6204552fa7c3068789f4ad634a",
  "nextblockhash": "91fc51b640c42f6eb8a4e7d3444c8c4108916430a6539c4165200da563861f08"
}
