{
  "hash": "ddea705bb439cfab6e5cc7ccde01efaf268c59548132ba78ffea6239bca11cb0",
  "confirmations": 338,
  "strippedsize": 254,
  "size": 254,
  "weight": 1016,
  "height": 1360656,
  "version": 536870912,
  "versionHex": "20000000",
  "merkleroot": "4c2cbf67bda8e832d93af07bbf2bd76213c1114399333bb4fb7d42f79384e2c6",
  "tx": [
    {
      "txid": "4c2cbf67bda8e832d93af07bbf2bd76213c1114399333bb4fb7d42f79384e2c6",
      "hash": "4c2cbf67bda8e832d93af07bbf2bd76213c1114399333bb4fb7d42f79384e2c6",
      "version": 1,
      "size": 173,
      "vsize": 173,
      "locktime": 0,
      "vin": [
        {
          "coinbase": "0310c3141b4d696e656420627920416e74506f6f6c20626a302042205a72a3f0fabe6d6dd1dc680d1b00daeb13327e2f08fccddd3fc351dfee18266e4d1e6739aee7c9ba0400000000000000890200000000000013000000",
          "sequence": 4294967295
        }
      ],
      "vout": [
        {
          "value": 25.00000000,
          "n": 0,
          "scriptPubKey": {
            "asm": "OP_DUP OP_HASH160 0ff3ccc5e8be88afe24b5d634e5852d474dbdff1 OP_EQUALVERIFY OP_CHECKSIG",
            "hex": "76a9140ff3ccc5e8be88afe24b5d634e5852d474dbdff188ac",
            "reqSigs": 1,
            "type": "pubkeyhash",
            "addresses": [
              "LLgJTbzZMsRTCUF1NtvvL9SR1a4pVieW89"
            ]
          }
        }
      ],
      "hex": "01000000010000000000000000000000000000000000000000000000000000000000000000ffffffff580310c3141b4d696e656420627920416e74506f6f6c20626a302042205a72a3f0fabe6d6dd1dc680d1b00daeb13327e2f08fccddd3fc351dfee18266e4d1e6739aee7c9ba0400000000000000890200000000000013000000ffffffff0100f90295000000001976a9140ff3ccc5e8be88afe24b5d634e5852d474dbdff188ac00000000"
    }
  ],
  "time": 1517462512,
  "mediantime": 1517462157,
  "nonce": 3214320640,
  "bits": "1a042eae",
  "difficulty": 4011378.762614286,
  "chainwork": "000000000000000000000000000000000000000000000035247bb92a7d81d4a2",
  "previousblockhash": "86b1cc80b17a74d8a21d76fc7a76a0c317ad38b166b0cfa2599431167ce40227",
  "nextblockhash": "ebc8fd5f4fb8f2aa86d6d8c54d53797fd5dae6b916a1a021da950cfcca492327"
}
