{
  "hash": "ddf2fab175ac29747e333cea2167c67efd41c2d3a0a682b5ca675a6d2c0ebdd3",
  "confirmations": 310,
  "strippedsize": 254,
  "size": 254,
  "weight": 1016,
  "height": 1360684,
  "version": 536870912,
  "versionHex": "20000000",
  "merkleroot": "fccd9cff91d795f90221916b4d42865e79c279caddf9cd95b668d8be3aed356f",
  "tx": [
    {
      "txid": "fccd9cff91d795f90221916b4d42865e79c279caddf9cd95b668d8be3aed356f",
      "hash": "fccd9cff91d795f90221916b4d42865e79c279caddf9cd95b668d8be3aed356f",
      "version": 1,
      "size": 173,
      "vsize": 173,
      "locktime": 0,
      "vin": [
        {
          "coinbase": "032cc3141b4d696e656420627920416e74506f6f6c20626a312045205a72b17afabe6d6d17ff2a0a84d179bffde43bd7e2d602ec6e66ef2869d3a92d065ab6ffdb90c5220400000000000000f6380000000000000f000000",
          "sequence": 4294967295
        }
      ],
      "vout": [
        {
          "value": 25.00000000,
          "n": 0,
          "scriptPubKey": {
            "asm": "OP_DUP OP_HASH160 0ff3ccc5e8be88afe24b5d634e5852d474dbdff1 OP_EQUALVERIFY OP_CHECKSIG",
            "hex": "76a9140ff3ccc5e8be88afe24b5d634e5852d474dbdff188ac",
            "reqSigs": 1,
            "type": "pubkeyhash",
            "addresses": [
              "LLgJTbzZMsRTCUF1NtvvL9SR1a4pVieW89"
            ]
          }
        }
      ],
      "hex": "01000000010000000000000000000000000000000000000000000000000000000000000000ffffffff58032cc3141b4d696e656420627920416e74506f6f6c20626a312045205a72b17afabe6d6d17ff2a0a84d179bffde43bd7e2d602ec6e66ef2869d3a92d065ab6ffdb90c5220400000000000000f6380000000000000f000000ffffffff0100f90295000000001976a9140ff3ccc5e8be88afe24b5d634e5852d474dbdff188ac00000000"
    }
  ],
  "time": 1517465978,
  "mediantime": 1517465167,
  "nonce": 4054849707,
  "bits": "1a042eae",
  "difficulty": 4011378.762614286,
  "chainwork": "0000000000000000000000000000000000000000000000352b2d9869b72c5eda",
  "previousblockhash": "14b7c48023afe98c9b5b99c9e3628bb9d1e002a6c93f2f5c3b1a1b416797a34b",
  "nextblockhash": "c94cdb6c67f1fd336640037bad44acf41162d54d9406fbc0dded8eaf398fe1e9"
}
