{
  "hash": "de814867d32474f8d5a420d35054749ad1e34f57698768f630bf132fab94b6e8",
  "confirmations": 663,
  "strippedsize": 739,
  "size": 775,
  "weight": 2992,
  "height": 1360331,
  "version": 536870912,
  "versionHex": "20000000",
  "merkleroot": "d1d8cc422c33be80e440c4b4dd9a849a2928132944fa6fe09a5061b91d3156a9",
  "tx": [
    {
      "txid": "de780366754f0f049409e3c06e3dcccff77db331439c147c5a440dace4c27edf",
      "hash": "9d0647be9a0d1daa24726b31708be9db4da50c051826c2e549b50ceaa83fdf65",
      "version": 1,
      "size": 244,
      "vsize": 217,
      "locktime": 0,
      "vin": [
        {
          "coinbase": "03cbc11404bce5715a0802842d5e1a000000fabe6d6d2e2bb9a90d353f917141c52afa21ec262fcedb59255f5c76b0477cb0c0af32ae40000000000000000d2f6e6f64655374726174756d2f",
          "sequence": 0
        }
      ],
      "vout": [
        {
          "value": 25.00045200,
          "n": 0,
          "scriptPubKey": {
            "asm": "OP_DUP OP_HASH160 0c617fdb2ea42aed30a509595ee21ba3f6688db0 OP_EQUALVERIFY OP_CHECKSIG",
            "hex": "76a9140c617fdb2ea42aed30a509595ee21ba3f6688db088ac",
            "reqSigs": 1,
            "type": "pubkeyhash",
            "addresses": [
              "LLMRAtr3qBje2ySEa3CnZ55LA4TQMWnRY3"
            ]
          }
        }, 
        {
          "value": 0.00000000,
          "n": 1,
          "scriptPubKey": {
            "asm": "OP_RETURN aa21a9edab4da75696cbbf3ca56e6aac25ea72e13145874ef8672e07cbfd954d15ba9ed5",
            "hex": "6a24aa21a9edab4da75696cbbf3ca56e6aac25ea72e13145874ef8672e07cbfd954d15ba9ed5",
            "type": "nulldata"
          }
        }
      ],
      "hex": "010000000001010000000000000000000000000000000000000000000000000000000000000000ffffffff4c03cbc11404bce5715a0802842d5e1a000000fabe6d6d2e2bb9a90d353f917141c52afa21ec262fcedb59255f5c76b0477cb0c0af32ae40000000000000000d2f6e6f64655374726174756d2f000000000290a90395000000001976a9140c617fdb2ea42aed30a509595ee21ba3f6688db088ac0000000000000000266a24aa21a9edab4da75696cbbf3ca56e6aac25ea72e13145874ef8672e07cbfd954d15ba9ed50120000000000000000000000000000000000000000000000000000000000000000000000000"
    }, 
    {
      "txid": "64aad119acd1e2c3cb0190fda52b1fca2b1f3ed6bdeb73850ad47c827a815289",
      "hash": "64aad119acd1e2c3cb0190fda52b1fca2b1f3ed6bdeb73850ad47c827a815289",
      "version": 1,
      "size": 225,
      "vsize": 225,
      "locktime": 0,
      "vin": [
        {
          "txid": "9527322573a54739a5ffc5fc7a3cb7fe587cebc1689070bbfaae6cbd709c3ec9",
          "vout": 1,
          "scriptSig": {
            "asm": "304402203489ee75e68d5b7360ff6b32091ac8cfa64c7d5657bc693531a82ac13d658bef02205b245a30216fdbb7db04f4a4ddac9a13781ec1a6bf892652c5b0cae0bef66f00[ALL] 022ca30c123b360760176a34c4815cf1f60ac6371f995f51f318ba979b6de452d7",
            "hex": "47304402203489ee75e68d5b7360ff6b32091ac8cfa64c7d5657bc693531a82ac13d658bef02205b245a30216fdbb7db04f4a4ddac9a13781ec1a6bf892652c5b0cae0bef66f000121022ca30c123b360760176a34c4815cf1f60ac6371f995f51f318ba979b6de452d7"
          },
          "sequence": 4294967295
        }
      ],
      "vout": [
        {
          "value": 3.00000000,
          "n": 0,
          "scriptPubKey": {
            "asm": "OP_DUP OP_HASH160 bcf2333e915711539c05ae99258318d2fed72481 OP_EQUALVERIFY OP_CHECKSIG",
            "hex": "76a914bcf2333e915711539c05ae99258318d2fed7248188ac",
            "reqSigs": 1,
            "type": "pubkeyhash",
            "addresses": [
              "LcT1Se5uKaRVrmGeCr9QuaZL186KhxDJSd"
            ]
          }
        }, 
        {
          "value": 0.02120159,
          "n": 1,
          "scriptPubKey": {
            "asm": "OP_DUP OP_HASH160 1abcfb1491a398017befdd598ba7e742dc4b22ae OP_EQUALVERIFY OP_CHECKSIG",
            "hex": "76a9141abcfb1491a398017befdd598ba7e742dc4b22ae88ac",
            "reqSigs": 1,
            "type": "pubkeyhash",
            "addresses": [
              "LMfLDpFr57AEH5H2N2DMUWQjFgCYauYqnT"
            ]
          }
        }
      ],
      "hex": "0100000001c93e9c70bd6caefabb709068c1eb7c58feb73c7afcc5ffa53947a57325322795010000006a47304402203489ee75e68d5b7360ff6b32091ac8cfa64c7d5657bc693531a82ac13d658bef02205b245a30216fdbb7db04f4a4ddac9a13781ec1a6bf892652c5b0cae0bef66f000121022ca30c123b360760176a34c4815cf1f60ac6371f995f51f318ba979b6de452d7ffffffff0200a3e111000000001976a914bcf2333e915711539c05ae99258318d2fed7248188acdf592000000000001976a9141abcfb1491a398017befdd598ba7e742dc4b22ae88ac00000000"
    }, 
    {
      "txid": "860e8dd88281d1cc82b9651e8c4a9843d08a0a1e0b93f780b81ce9e9b277fda3",
      "hash": "860e8dd88281d1cc82b9651e8c4a9843d08a0a1e0b93f780b81ce9e9b277fda3",
      "version": 1,
      "size": 225,
      "vsize": 225,
      "locktime": 0,
      "vin": [
        {
          "txid": "0e608032eac1d0fd5e62055d3b35b24000a4fe61cd1554d779a8923732a3533b",
          "vout": 0,
          "scriptSig": {
            "asm": "304402203f2d3280c63f48a2551b456247beeebe700bb771adbd6a46158a1275e7cbdd0e0220742135c99e485da54fbd0c4986b27b34ebc03c573219b0b779545c091436024e[ALL] 022002929591cc8563775b22e08f0c2a278cc2564da1aa5565da6672a1e5d4e097",
            "hex": "47304402203f2d3280c63f48a2551b456247beeebe700bb771adbd6a46158a1275e7cbdd0e0220742135c99e485da54fbd0c4986b27b34ebc03c573219b0b779545c091436024e0121022002929591cc8563775b22e08f0c2a278cc2564da1aa5565da6672a1e5d4e097"
          },
          "sequence": 4294967295
        }
      ],
      "vout": [
        {
          "value": 0.50604083,
          "n": 0,
          "scriptPubKey": {
            "asm": "OP_DUP OP_HASH160 6d233a31c15ab92e432c25df472dcf38cd645b1a OP_EQUALVERIFY OP_CHECKSIG",
            "hex": "76a9146d233a31c15ab92e432c25df472dcf38cd645b1a88ac",
            "reqSigs": 1,
            "type": "pubkeyhash",
            "addresses": [
              "LVB27m24BnkBijy5io9AxgZB1QNGSY8Yn1"
            ]
          }
        }, 
        {
          "value": 0.03329546,
          "n": 1,
          "scriptPubKey": {
            "asm": "OP_DUP OP_HASH160 c9c5827e00fd9fd6ca47985124d36e951c2da7f0 OP_EQUALVERIFY OP_CHECKSIG",
            "hex": "76a914c9c5827e00fd9fd6ca47985124d36e951c2da7f088ac",
            "reqSigs": 1,
            "type": "pubkeyhash",
            "addresses": [
              "LdcpgzFaxHSJjhDRxFRVRP14nFs9xVjvRV"
            ]
          }
        }
      ],
      "hex": "01000000013b53a3323792a879d75415cd61fea40040b2353b5d05625efdd0c1ea3280600e000000006a47304402203f2d3280c63f48a2551b456247beeebe700bb771adbd6a46158a1275e7cbdd0e0220742135c99e485da54fbd0c4986b27b34ebc03c573219b0b779545c091436024e0121022002929591cc8563775b22e08f0c2a278cc2564da1aa5565da6672a1e5d4e097ffffffff0233280403000000001976a9146d233a31c15ab92e432c25df472dcf38cd645b1a88ac0ace3200000000001976a914c9c5827e00fd9fd6ca47985124d36e951c2da7f088ac00000000"
    }
  ],
  "time": 1517413796,
  "mediantime": 1517412511,
  "nonce": 1301117349,
  "bits": "1a042eae",
  "difficulty": 4011378.762614286,
  "chainwork": "000000000000000000000000000000000000000000000034d6c690c37b98a298",
  "previousblockhash": "0f99bc9e3c0aa1cfae9624259bfe29f6c47654e13712159fd9dd976632939271",
  "nextblockhash": "e1e8f24d136848a8098062df02c0eeac264ad491d181ab3f4e8bac8701d2b083"
}
