{
  "hash": "df01fe9b47652dbadc06e86df59da7f2bf091679d7dff1e38607809f88747657",
  "confirmations": 3453,
  "strippedsize": 234,
  "size": 234,
  "weight": 936,
  "height": 1357542,
  "version": 536870912,
  "versionHex": "20000000",
  "merkleroot": "30c3b3edc59d1549843b77dde637b2224a2e0c900176b730c291c0ac2a74df35",
  "tx": [
    {
      "txid": "30c3b3edc59d1549843b77dde637b2224a2e0c900176b730c291c0ac2a74df35",
      "hash": "30c3b3edc59d1549843b77dde637b2224a2e0c900176b730c291c0ac2a74df35",
      "version": 1,
      "size": 153,
      "vsize": 153,
      "locktime": 0,
      "vin": [
        {
          "coinbase": "03e6b614045a6bd5232cfabe6d6d0256ccc593755e5a3e672eea2850174248eff99819971cfc7eb53e2208c9a9e64000000000000000042f4c502f0816000e7604000000",
          "sequence": 4294967295
        }
      ],
      "vout": [
        {
          "value": 25.00000000,
          "n": 0,
          "scriptPubKey": {
            "asm": "OP_DUP OP_HASH160 57757ed2ecf2052ff3126c397aca7defb9ca2cec OP_EQUALVERIFY OP_CHECKSIG",
            "hex": "76a91457757ed2ecf2052ff3126c397aca7defb9ca2cec88ac",
            "reqSigs": 1,
            "type": "pubkeyhash",
            "addresses": [
              "LTCPodGk5FwcJaRzH9yKnwicxzFUbxp6tN"
            ]
          }
        }
      ],
      "hex": "01000000010000000000000000000000000000000000000000000000000000000000000000ffffffff4403e6b614045a6bd5232cfabe6d6d0256ccc593755e5a3e672eea2850174248eff99819971cfc7eb53e2208c9a9e64000000000000000042f4c502f0816000e7604000000ffffffff0100f90295000000001976a91457757ed2ecf2052ff3126c397aca7defb9ca2cec88ac00000000"
    }
  ],
  "time": 1517016355,
  "mediantime": 1517015699,
  "nonce": 1764316695,
  "bits": "1a047f14",
  "difficulty": 3731199.183374282,
  "chainwork": "00000000000000000000000000000000000000000000003250a645a4184eca76",
  "previousblockhash": "1f9125ee22979e6ee90595ae5bfa41c3b4e3283b3df336b7bfe776d856816f17",
  "nextblockhash": "10953b3baa5a6e30f2c5ba0d866ec445dbceb2e8a9dc80558adbf369858add0e"
}
