{
  "hash": "df40e77622e49da5c85922629aa6458da7217d0539b00129dd323dcd9920b0b7",
  "confirmations": 1989,
  "strippedsize": 2727,
  "size": 2985,
  "weight": 11166,
  "height": 1359005,
  "version": 536870912,
  "versionHex": "20000000",
  "merkleroot": "7ead21be3577644638483404e0a869a3f825608bf4a5e996df4863e960519fe3",
  "tx": [
    {
      "txid": "a853a0838fc7647a942f5a8135bdf25ec8d15d3e0433709933ab3a7f7b180105",
      "hash": "d678f399eda804d3717c96f840220a9bc932949302ef2e72a8154b276da605d5",
      "version": 1,
      "size": 253,
      "vsize": 226,
      "locktime": 0,
      "vin": [
        {
          "coinbase": "039dbc1441d69bbf261afb1c41d69bbf2618f5712f4c54432e544f502ffabe6d6daa09254d8137b0482e69f70f4c5c170883006ec95f55a2fba8fcbc6ca946f64d0100000000000000663462ad0100000000000000",
          "sequence": 4294967295
        }
      ],
      "vout": [
        {
          "value": 25.00492900,
          "n": 0,
          "scriptPubKey": {
            "asm": "OP_DUP OP_HASH160 0c617fdb2ea42aed30a509595ee21ba3f6688db0 OP_EQUALVERIFY OP_CHECKSIG",
            "hex": "76a9140c617fdb2ea42aed30a509595ee21ba3f6688db088ac",
            "reqSigs": 1,
            "type": "pubkeyhash",
            "addresses": [
              "LLMRAtr3qBje2ySEa3CnZ55LA4TQMWnRY3"
            ]
          }
        }, 
        {
          "value": 0.00000000,
          "n": 1,
          "scriptPubKey": {
            "asm": "OP_RETURN aa21a9edcb7635eb574c1fc1e96304358b04d48292015bebc8537dddd955f67bfd478a91",
            "hex": "6a24aa21a9edcb7635eb574c1fc1e96304358b04d48292015bebc8537dddd955f67bfd478a91",
            "type": "nulldata"
          }
        }
      ],
      "hex": "010000000001010000000000000000000000000000000000000000000000000000000000000000ffffffff55039dbc1441d69bbf261afb1c41d69bbf2618f5712f4c54432e544f502ffabe6d6daa09254d8137b0482e69f70f4c5c170883006ec95f55a2fba8fcbc6ca946f64d0100000000000000663462ad0100000000000000ffffffff02647e0a95000000001976a9140c617fdb2ea42aed30a509595ee21ba3f6688db088ac0000000000000000266a24aa21a9edcb7635eb574c1fc1e96304358b04d48292015bebc8537dddd955f67bfd478a910120000000000000000000000000000000000000000000000000000000000000000000000000"
    }, 
    {
      "txid": "d31eec71c2098ad40447e7f5fc5af6b20ac41a362c4a485c278406566f12c290",
      "hash": "d31eec71c2098ad40447e7f5fc5af6b20ac41a362c4a485c278406566f12c290",
      "version": 1,
      "size": 191,
      "vsize": 191,
      "locktime": 0,
      "vin": [
        {
          "txid": "8af60454bce3db05c27e2e466fa2b78e674bc02004ab7919c321b61fc863c834",
          "vout": 0,
          "scriptSig": {
            "asm": "3044022036521a7fe882cd1fe47247e77a5a46e8091128203daf24fdae411170dd5a938e0220381e6de159ef9e73333a3488a60d0e783fe15340aaaa18a929027ef5af55f45e[ALL] 021e6e3152281df390c5499944b518266416fc65055d9ca8c3d2ff3f3547938a34",
            "hex": "473044022036521a7fe882cd1fe47247e77a5a46e8091128203daf24fdae411170dd5a938e0220381e6de159ef9e73333a3488a60d0e783fe15340aaaa18a929027ef5af55f45e0121021e6e3152281df390c5499944b518266416fc65055d9ca8c3d2ff3f3547938a34"
          },
          "sequence": 4294967295
        }
      ],
      "vout": [
        {
          "value": 0.28600000,
          "n": 0,
          "scriptPubKey": {
            "asm": "OP_DUP OP_HASH160 c8abb6c7b241f65cf32cb24b7066a090c7d5581f OP_EQUALVERIFY OP_CHECKSIG",
            "hex": "76a914c8abb6c7b241f65cf32cb24b7066a090c7d5581f88ac",
            "reqSigs": 1,
            "type": "pubkeyhash",
            "addresses": [
              "LdX17UZDgw7ErvkYur1RgtT1UUMRaHwBC9"
            ]
          }
        }
      ],
      "hex": "010000000134c863c81fb621c31979ab0420c04b678eb7a26f462e7ec205dbe3bc5404f68a000000006a473044022036521a7fe882cd1fe47247e77a5a46e8091128203daf24fdae411170dd5a938e0220381e6de159ef9e73333a3488a60d0e783fe15340aaaa18a929027ef5af55f45e0121021e6e3152281df390c5499944b518266416fc65055d9ca8c3d2ff3f3547938a34ffffffff01c066b401000000001976a914c8abb6c7b241f65cf32cb24b7066a090c7d5581f88ac00000000"
    }, 
    {
      "txid": "2c7476dcba947e415f6f57428c04d332cf08953f52e6ed0d9ee648a5d121a5f4",
      "hash": "f659d52e0a416981c42a11fecb22f7442167f68ba38659f3f991d876a8f127a1",
      "version": 1,
      "size": 374,
      "vsize": 208,
      "locktime": 0,
      "vin": [
        {
          "txid": "c5e7e2bf140c5d28312c83529cabc01546b565b699eb79ee1c722588f6433062",
          "vout": 1,
          "scriptSig": {
            "asm": "00203684dc87b62efd5a2b96944b2d26df3ba348ac2b14e7723a619fef619c624d3b",
            "hex": "2200203684dc87b62efd5a2b96944b2d26df3ba348ac2b14e7723a619fef619c624d3b"
          },
          "txinwitness": [
            "", 
            "304502210089df6b36ab7b00d1057fac2e76f7f35bae512c389635d3d9a3cc4d7f946517b702200a95f965f96f026d1fd43a0150817cb0dab3320892a308a2dc148184ade373ee01", 
            "3045022100859471e75d4f497d8a3559580749d0be4bde09728650ff3d6ff2900f7fa452a1022020407ef73de46dc91e86861c6e19d8b85cddd3261468301ec8e4090b7c76659b01", 
            "522102098beb073ab18005fe335ff50aeb76cec301d3e6dd2b5508256ac410253526372103f91b90e32e883747364ffa5590975d3d76b4f77831b3823fb2f6760852e56bf852ae"
          ],
          "sequence": 4294967295
        }
      ],
      "vout": [
        {
          "value": 0.01000000,
          "n": 0,
          "scriptPubKey": {
            "asm": "OP_DUP OP_HASH160 7ac32764cfba6b6765aaecadd3ba279622aed4b7 OP_EQUALVERIFY OP_CHECKSIG",
            "hex": "76a9147ac32764cfba6b6765aaecadd3ba279622aed4b788ac",
            "reqSigs": 1,
            "type": "pubkeyhash",
            "addresses": [
              "LWR4V9QbNSAV6hEHvyXAaCkd1yshsd3jKc"
            ]
          }
        }, 
        {
          "value": 0.98697100,
          "n": 1,
          "scriptPubKey": {
            "asm": "OP_HASH160 6f117830b5ffa4bf7304c7f137fbf05fd70ff88d OP_EQUAL",
            "hex": "a9146f117830b5ffa4bf7304c7f137fbf05fd70ff88d87",
            "reqSigs": 1,
            "type": "scripthash",
            "addresses": [
              "MJ2SAXQUYtSx752pzJ4tSHGHG7fDJkLmgP"
            ]
          }
        }
      ],
      "hex": "01000000000101623043f68825721cee79eb99b665b54615c0ab9c52832c31285d0c14bfe2e7c501000000232200203684dc87b62efd5a2b96944b2d26df3ba348ac2b14e7723a619fef619c624d3bffffffff0240420f00000000001976a9147ac32764cfba6b6765aaecadd3ba279622aed4b788ac8cffe1050000000017a9146f117830b5ffa4bf7304c7f137fbf05fd70ff88d87040048304502210089df6b36ab7b00d1057fac2e76f7f35bae512c389635d3d9a3cc4d7f946517b702200a95f965f96f026d1fd43a0150817cb0dab3320892a308a2dc148184ade373ee01483045022100859471e75d4f497d8a3559580749d0be4bde09728650ff3d6ff2900f7fa452a1022020407ef73de46dc91e86861c6e19d8b85cddd3261468301ec8e4090b7c76659b0147522102098beb073ab18005fe335ff50aeb76cec301d3e6dd2b5508256ac410253526372103f91b90e32e883747364ffa5590975d3d76b4f77831b3823fb2f6760852e56bf852ae00000000"
    }, 
    {
      "txid": "9c7d94b164ac8c0d26f6502a69eda504af86fec2fbf09b42a37898a0b4fe2d3a",
      "hash": "9c7d94b164ac8c0d26f6502a69eda504af86fec2fbf09b42a37898a0b4fe2d3a",
      "version": 1,
      "size": 961,
      "vsize": 961,
      "locktime": 1359003,
      "vin": [
        {
          "txid": "fd56e4dd86ec7fe4e4fa98be7022de509681affa8838e9012ca2d88a0e383d2b",
          "vout": 0,
          "scriptSig": {
            "asm": "30440220446b68d266524bf5d9922c048a453cb5c3bcd7add445e327bca15844ffeede60022028e828d390b5e435203cb7af79df4be257864e17ba7e841c7cade718043c2811[ALL] 02308eeeefb8aec70917d528a0cde5d38c803e3a47a741b544452d408a6f461de0",
            "hex": "4730440220446b68d266524bf5d9922c048a453cb5c3bcd7add445e327bca15844ffeede60022028e828d390b5e435203cb7af79df4be257864e17ba7e841c7cade718043c2811012102308eeeefb8aec70917d528a0cde5d38c803e3a47a741b544452d408a6f461de0"
          },
          "sequence": 4294967294
        }, 
        {
          "txid": "817f7678554676a4ba4f3fe5a725c9e53189a9103375fb82f276f58619e91619",
          "vout": 1,
          "scriptSig": {
            "asm": "30440220787ed5f1d7299e3cc80d152d82f25a461199102b22615a45b5d936d31ee94852022001faaf0ba7eaa0148d45efb42d3715ea9853f983c2dac3c1b1221ad9257ce989[ALL] 02e0529ab99e1dfbb675a65cd21f595089c462f97868939a3fcf20ec5b5b5251b1",
            "hex": "4730440220787ed5f1d7299e3cc80d152d82f25a461199102b22615a45b5d936d31ee94852022001faaf0ba7eaa0148d45efb42d3715ea9853f983c2dac3c1b1221ad9257ce989012102e0529ab99e1dfbb675a65cd21f595089c462f97868939a3fcf20ec5b5b5251b1"
          },
          "sequence": 4294967294
        }, 
        {
          "txid": "357bcee5a8070aa16405b2fbb65899acf7e2ee72c486224d5aa5072d262fb8d3",
          "vout": 0,
          "scriptSig": {
            "asm": "3044022024c8e4523813e097b28b3162591562cd4938d95ca0c6283d7cb511cb1c91754c0220135868e820676151e1505c93b62ad4bf24099c5856e1b03feb13fc29a5b9d5ae[ALL] 0214c6fdfdebc296b2e39c60503d74a099bd7c8f6847ae40f4c379eef590270e16",
            "hex": "473044022024c8e4523813e097b28b3162591562cd4938d95ca0c6283d7cb511cb1c91754c0220135868e820676151e1505c93b62ad4bf24099c5856e1b03feb13fc29a5b9d5ae01210214c6fdfdebc296b2e39c60503d74a099bd7c8f6847ae40f4c379eef590270e16"
          },
          "sequence": 4294967294
        }, 
        {
          "txid": "4963ee67c676f9d2f041a503b94a9685426e1b27e67494c742848ab6c671d028",
          "vout": 1,
          "scriptSig": {
            "asm": "3044022029a4f1d62c59a8c0c3eb4fb247ccb5f1b08ab96a11829ae0559bac020c2e832502206daaa6328c0c9d8557c92c737c65de7ac71e0fe08245787da9e8a0293259bc37[ALL] 03b837c8b75a57b73715ff5061a615c3e863d52ce39cc7966ba18b6e228f4efa62",
            "hex": "473044022029a4f1d62c59a8c0c3eb4fb247ccb5f1b08ab96a11829ae0559bac020c2e832502206daaa6328c0c9d8557c92c737c65de7ac71e0fe08245787da9e8a0293259bc37012103b837c8b75a57b73715ff5061a615c3e863d52ce39cc7966ba18b6e228f4efa62"
          },
          "sequence": 4294967294
        }, 
        {
          "txid": "4e3bb6ff8cfd8a6daa2a99a76aed4b450ee4856e3691ddf3e8455e3bbfb17ce7",
          "vout": 0,
          "scriptSig": {
            "asm": "304402206a2b7f7c5c2f34205de154f63162a8a6bf041e2e47c93a926944e9ffc15820490220355d803496528781d49760c1f3d989b9bf434c90f9750370c69fcce4d09c3812[ALL] 03b3ad553b23a1f654ababe6d85a81315ae443228ce060b5831623898cc8f452be",
            "hex": "47304402206a2b7f7c5c2f34205de154f63162a8a6bf041e2e47c93a926944e9ffc15820490220355d803496528781d49760c1f3d989b9bf434c90f9750370c69fcce4d09c3812012103b3ad553b23a1f654ababe6d85a81315ae443228ce060b5831623898cc8f452be"
          },
          "sequence": 4294967294
        }, 
        {
          "txid": "964dc69fd6a420292214c0e88d4b1e3c83a1c8576f9838ff5d270f6bcd4f68b4",
          "vout": 1,
          "scriptSig": {
            "asm": "3045022100a50c9d89fa6f6875ef935ab8f3ee3a2bd2fa97ddc1d5ceaab94a3e221ca0609102200de50c73c1b5f45ef741d40ca9e1d26cf3b5da2c062941d5463dae49c0dbdc17[ALL] 0214f5d4dff37832c0d3ce5a929865ed10262cbe0cc44652fae2c1e58f254baf59",
            "hex": "483045022100a50c9d89fa6f6875ef935ab8f3ee3a2bd2fa97ddc1d5ceaab94a3e221ca0609102200de50c73c1b5f45ef741d40ca9e1d26cf3b5da2c062941d5463dae49c0dbdc1701210214f5d4dff37832c0d3ce5a929865ed10262cbe0cc44652fae2c1e58f254baf59"
          },
          "sequence": 4294967294
        }
      ],
      "vout": [
        {
          "value": 0.01000000,
          "n": 0,
          "scriptPubKey": {
            "asm": "OP_DUP OP_HASH160 52d24b5909de97334dc39706181663b5dc9ddf82 OP_EQUALVERIFY OP_CHECKSIG",
            "hex": "76a91452d24b5909de97334dc39706181663b5dc9ddf8288ac",
            "reqSigs": 1,
            "type": "pubkeyhash",
            "addresses": [
              "LSmsbT18LyA9dApFhunfb9dfNuDZzCL62o"
            ]
          }
        }, 
        {
          "value": 21.57612077,
          "n": 1,
          "scriptPubKey": {
            "asm": "OP_DUP OP_HASH160 c4223ded4c2aa1d56391c4e91693200ba58a79e1 OP_EQUALVERIFY OP_CHECKSIG",
            "hex": "76a914c4223ded4c2aa1d56391c4e91693200ba58a79e188ac",
            "reqSigs": 1,
            "type": "pubkeyhash",
            "addresses": [
              "Ld71iyqpCRjnQCJritefCytx664JvvxmRb"
            ]
          }
        }
      ],
      "hex": "01000000062b3d380e8ad8a22c01e93888faaf819650de2270be98fae4e47fec86dde456fd000000006a4730440220446b68d266524bf5d9922c048a453cb5c3bcd7add445e327bca15844ffeede60022028e828d390b5e435203cb7af79df4be257864e17ba7e841c7cade718043c2811012102308eeeefb8aec70917d528a0cde5d38c803e3a47a741b544452d408a6f461de0feffffff1916e91986f576f282fb753310a98931e5c925a7e53f4fbaa476465578767f81010000006a4730440220787ed5f1d7299e3cc80d152d82f25a461199102b22615a45b5d936d31ee94852022001faaf0ba7eaa0148d45efb42d3715ea9853f983c2dac3c1b1221ad9257ce989012102e0529ab99e1dfbb675a65cd21f595089c462f97868939a3fcf20ec5b5b5251b1feffffffd3b82f262d07a55a4d2286c472eee2f7ac9958b6fbb20564a10a07a8e5ce7b35000000006a473044022024c8e4523813e097b28b3162591562cd4938d95ca0c6283d7cb511cb1c91754c0220135868e820676151e1505c93b62ad4bf24099c5856e1b03feb13fc29a5b9d5ae01210214c6fdfdebc296b2e39c60503d74a099bd7c8f6847ae40f4c379eef590270e16feffffff28d071c6b68a8442c79474e6271b6e4285964ab903a541f0d2f976c667ee6349010000006a473044022029a4f1d62c59a8c0c3eb4fb247ccb5f1b08ab96a11829ae0559bac020c2e832502206daaa6328c0c9d8557c92c737c65de7ac71e0fe08245787da9e8a0293259bc37012103b837c8b75a57b73715ff5061a615c3e863d52ce39cc7966ba18b6e228f4efa62feffffffe77cb1bf3b5e45e8f3dd91366e85e40e454bed6aa7992aaa6d8afd8cffb63b4e000000006a47304402206a2b7f7c5c2f34205de154f63162a8a6bf041e2e47c93a926944e9ffc15820490220355d803496528781d49760c1f3d989b9bf434c90f9750370c69fcce4d09c3812012103b3ad553b23a1f654ababe6d85a81315ae443228ce060b5831623898cc8f452befeffffffb4684fcd6b0f275dff38986f57c8a1833c1e4b8de8c014222920a4d69fc64d96010000006b483045022100a50c9d89fa6f6875ef935ab8f3ee3a2bd2fa97ddc1d5ceaab94a3e221ca0609102200de50c73c1b5f45ef741d40ca9e1d26cf3b5da2c062941d5463dae49c0dbdc1701210214f5d4dff37832c0d3ce5a929865ed10262cbe0cc44652fae2c1e58f254baf59feffffff0240420f00000000001976a91452d24b5909de97334dc39706181663b5dc9ddf8288ac2d8c9a80000000001976a914c4223ded4c2aa1d56391c4e91693200ba58a79e188ac9bbc1400"
    }, 
    {
      "txid": "15ff9f9d85e6c75f351a34864fcb420f06985cb4dd9fd30cf7e935ee7c818baa",
      "hash": "15ff9f9d85e6c75f351a34864fcb420f06985cb4dd9fd30cf7e935ee7c818baa",
      "version": 2,
      "size": 223,
      "vsize": 223,
      "locktime": 1359003,
      "vin": [
        {
          "txid": "804173f0728eb2d325d9386a10d539f6fc6e038c3b068f67a17871cfda96aa26",
          "vout": 0,
          "scriptSig": {
            "asm": "3044022000a962fd445d05e052f933899a371b0d15e2b1e43c384d2057a47b15313efeb9022032544778d22af53b7b4a94235cea1c4e5ac853faf6086417f8159e372cef5802[ALL] 03cd7ee229f39c989a8ab837457ab3e68295e9bbcc53fc4532152c8fd01bb38873",
            "hex": "473044022000a962fd445d05e052f933899a371b0d15e2b1e43c384d2057a47b15313efeb9022032544778d22af53b7b4a94235cea1c4e5ac853faf6086417f8159e372cef5802012103cd7ee229f39c989a8ab837457ab3e68295e9bbcc53fc4532152c8fd01bb38873"
          },
          "sequence": 4294967294
        }
      ],
      "vout": [
        {
          "value": 0.10130000,
          "n": 0,
          "scriptPubKey": {
            "asm": "OP_HASH160 bbfc71792466400d483430c035abae74773f0f5c OP_EQUAL",
            "hex": "a914bbfc71792466400d483430c035abae74773f0f5c87",
            "reqSigs": 1,
            "type": "scripthash",
            "addresses": [
              "MR391NFttvDtSqFjDcSrG9afXXma4RNqMj"
            ]
          }
        }, 
        {
          "value": 0.67410000,
          "n": 1,
          "scriptPubKey": {
            "asm": "OP_DUP OP_HASH160 4e9d8ddda941cb3063fdf232f9af14f191ae02e9 OP_EQUALVERIFY OP_CHECKSIG",
            "hex": "76a9144e9d8ddda941cb3063fdf232f9af14f191ae02e988ac",
            "reqSigs": 1,
            "type": "pubkeyhash",
            "addresses": [
              "LSPdiEMHAsSMHB1CmqCvpoVBVXen4usEqJ"
            ]
          }
        }
      ],
      "hex": "020000000126aa96dacf7178a1678f063b8c036efcf639d5106a38d925d3b28e72f0734180000000006a473044022000a962fd445d05e052f933899a371b0d15e2b1e43c384d2057a47b15313efeb9022032544778d22af53b7b4a94235cea1c4e5ac853faf6086417f8159e372cef5802012103cd7ee229f39c989a8ab837457ab3e68295e9bbcc53fc4532152c8fd01bb38873feffffff0250929a000000000017a914bbfc71792466400d483430c035abae74773f0f5c8750980404000000001976a9144e9d8ddda941cb3063fdf232f9af14f191ae02e988ac9bbc1400"
    }, 
    {
      "txid": "9256ca6b23d655d3c7df816b871cb3e856f304ee38276b1fb2e12def5562f367",
      "hash": "9256ca6b23d655d3c7df816b871cb3e856f304ee38276b1fb2e12def5562f367",
      "version": 2,
      "size": 225,
      "vsize": 225,
      "locktime": 1359003,
      "vin": [
        {
          "txid": "54233c4c9f7e9aa1a7c4dd8b384d4ce646a8472412cae95656ccf4737076469a",
          "vout": 1,
          "scriptSig": {
            "asm": "3044022049a5cd8246b58cd667fb8a06d3086f7c3f567c64b6a17822f8c39ede12ca5bc5022010a5c6c72918862fdbccd929755e45ef91a8357bd405ae1c09f4a19f0b27323c[ALL] 03f5b8531572b3c553b7aff43346805af51b1a6d864a77eb091f01d84f05201bda",
            "hex": "473044022049a5cd8246b58cd667fb8a06d3086f7c3f567c64b6a17822f8c39ede12ca5bc5022010a5c6c72918862fdbccd929755e45ef91a8357bd405ae1c09f4a19f0b27323c012103f5b8531572b3c553b7aff43346805af51b1a6d864a77eb091f01d84f05201bda"
          },
          "sequence": 4294967294
        }
      ],
      "vout": [
        {
          "value": 374.95126454,
          "n": 0,
          "scriptPubKey": {
            "asm": "OP_DUP OP_HASH160 e01f7838c725ad31fc124f1fc4a90db7ed59be78 OP_EQUALVERIFY OP_CHECKSIG",
            "hex": "76a914e01f7838c725ad31fc124f1fc4a90db7ed59be7888ac",
            "reqSigs": 1,
            "type": "pubkeyhash",
            "addresses": [
              "Lff1KjJzsy2zhorARCvAJE47SAT2kd67of"
            ]
          }
        }, 
        {
          "value": 0.13108333,
          "n": 1,
          "scriptPubKey": {
            "asm": "OP_DUP OP_HASH160 d240a8e09a385111ef76b2d022b695ee9762148f OP_EQUALVERIFY OP_CHECKSIG",
            "hex": "76a914d240a8e09a385111ef76b2d022b695ee9762148f88ac",
            "reqSigs": 1,
            "type": "pubkeyhash",
            "addresses": [
              "LePfd8XMwATLjEYTAsZ36mh7aVWJV7CnW2"
            ]
          }
        }
      ],
      "hex": "02000000019a46767073f4cc5656e9ca122447a846e64c4d388bddc4a7a19a7e9f4c3c2354010000006a473044022049a5cd8246b58cd667fb8a06d3086f7c3f567c64b6a17822f8c39ede12ca5bc5022010a5c6c72918862fdbccd929755e45ef91a8357bd405ae1c09f4a19f0b27323c012103f5b8531572b3c553b7aff43346805af51b1a6d864a77eb091f01d84f05201bdafeffffff02b639e2ba080000001976a914e01f7838c725ad31fc124f1fc4a90db7ed59be7888ac6d04c800000000001976a914d240a8e09a385111ef76b2d022b695ee9762148f88ac9bbc1400"
    }, 
    {
      "txid": "13ac64a34966da69f3ccd6e9644c87e6f4d340df2d12a5e285ed24cbf80e545a",
      "hash": "13ac64a34966da69f3ccd6e9644c87e6f4d340df2d12a5e285ed24cbf80e545a",
      "version": 1,
      "size": 226,
      "vsize": 226,
      "locktime": 1359003,
      "vin": [
        {
          "txid": "733b627405f5f6563d3483b0cf616966f316947ddc60bb354054f53b200dac93",
          "vout": 1,
          "scriptSig": {
            "asm": "30450221009dc0c6c9f71e69001b54fea26cb2850bedbc51c94a9e0e0b36d6eee3fa8b008a0220105b72cbfb4bd94b974e75cab5fb092a0353c9f672981c9bb36b256d5327e1ba[ALL] 0275020331e761d3adffaa8f2854006482ae61024117692c9d5a76ddbe9937b0bc",
            "hex": "4830450221009dc0c6c9f71e69001b54fea26cb2850bedbc51c94a9e0e0b36d6eee3fa8b008a0220105b72cbfb4bd94b974e75cab5fb092a0353c9f672981c9bb36b256d5327e1ba01210275020331e761d3adffaa8f2854006482ae61024117692c9d5a76ddbe9937b0bc"
          },
          "sequence": 4294967294
        }
      ],
      "vout": [
        {
          "value": 0.08909972,
          "n": 0,
          "scriptPubKey": {
            "asm": "OP_DUP OP_HASH160 034ce108baf3149ec8ecf6cafaf484f29fe74eb5 OP_EQUALVERIFY OP_CHECKSIG",
            "hex": "76a914034ce108baf3149ec8ecf6cafaf484f29fe74eb588ac",
            "reqSigs": 1,
            "type": "pubkeyhash",
            "addresses": [
              "LKXQPSM3yrf5WnNKzn4SJ2aYvhcuDqF6jJ"
            ]
          }
        }, 
        {
          "value": 8.09991102,
          "n": 1,
          "scriptPubKey": {
            "asm": "OP_DUP OP_HASH160 6562106173bbb0d0f9294b563608eeee6a246270 OP_EQUALVERIFY OP_CHECKSIG",
            "hex": "76a9146562106173bbb0d0f9294b563608eeee6a24627088ac",
            "reqSigs": 1,
            "type": "pubkeyhash",
            "addresses": [
              "LUU1zCA26treWXtftajD54xNJ8ANDyWik7"
            ]
          }
        }
      ],
      "hex": "010000000193ac0d203bf5544035bb60dc7d9416f3666961cfb083343d56f6f50574623b73010000006b4830450221009dc0c6c9f71e69001b54fea26cb2850bedbc51c94a9e0e0b36d6eee3fa8b008a0220105b72cbfb4bd94b974e75cab5fb092a0353c9f672981c9bb36b256d5327e1ba01210275020331e761d3adffaa8f2854006482ae61024117692c9d5a76ddbe9937b0bcfeffffff0294f48700000000001976a914034ce108baf3149ec8ecf6cafaf484f29fe74eb588acbe7b4730000000001976a9146562106173bbb0d0f9294b563608eeee6a24627088ac9bbc1400"
    }, 
    {
      "txid": "dafa745f687f7d081613b40dd383d1dc2f4181205c72b3029e9925b0756d867b",
      "hash": "dafa745f687f7d081613b40dd383d1dc2f4181205c72b3029e9925b0756d867b",
      "version": 1,
      "size": 225,
      "vsize": 225,
      "locktime": 1358958,
      "vin": [
        {
          "txid": "84675dada67d05822d8a010e303d45f0182f950566d79e9b453cf8018e39b5a1",
          "vout": 2,
          "scriptSig": {
            "asm": "3044022048b957edb4326a350b01da05c67e563386ab81889f6d33d78b38b38b6d450601022055e9a75976d73999934b8c28c97a6753bc1c7d79df9deeb89eff2c15e18f295a[ALL] 0209fc83b6ff48387614435411f777985c324d67877621185980b308d78883b725",
            "hex": "473044022048b957edb4326a350b01da05c67e563386ab81889f6d33d78b38b38b6d450601022055e9a75976d73999934b8c28c97a6753bc1c7d79df9deeb89eff2c15e18f295a01210209fc83b6ff48387614435411f777985c324d67877621185980b308d78883b725"
          },
          "sequence": 4294967294
        }
      ],
      "vout": [
        {
          "value": 0.20106281,
          "n": 0,
          "scriptPubKey": {
            "asm": "OP_DUP OP_HASH160 924c9f2427e650116a0fbda3828fc23c95c0e845 OP_EQUALVERIFY OP_CHECKSIG",
            "hex": "76a914924c9f2427e650116a0fbda3828fc23c95c0e84588ac",
            "reqSigs": 1,
            "type": "pubkeyhash",
            "addresses": [
              "LYZWhz7WqMAs39HcbriDsJ1bCoJXJh1hTQ"
            ]
          }
        }, 
        {
          "value": 1.24563980,
          "n": 1,
          "scriptPubKey": {
            "asm": "OP_DUP OP_HASH160 b29a421d17be6959e93598b58fb5e07649e7a357 OP_EQUALVERIFY OP_CHECKSIG",
            "hex": "76a914b29a421d17be6959e93598b58fb5e07649e7a35788ac",
            "reqSigs": 1,
            "type": "pubkeyhash",
            "addresses": [
              "LbWKLQknVt2KfUyiYni2ZidM795tVBPBJB"
            ]
          }
        }
      ],
      "hex": "0100000001a1b5398e01f83c459b9ed76605952f18f0453d300e018a2d82057da6ad5d6784020000006a473044022048b957edb4326a350b01da05c67e563386ab81889f6d33d78b38b38b6d450601022055e9a75976d73999934b8c28c97a6753bc1c7d79df9deeb89eff2c15e18f295a01210209fc83b6ff48387614435411f777985c324d67877621185980b308d78883b725feffffff0229cc3201000000001976a914924c9f2427e650116a0fbda3828fc23c95c0e84588ac0cb26c07000000001976a914b29a421d17be6959e93598b58fb5e07649e7a35788ac6ebc1400"
    }, 
    {
      "txid": "5ebc09d45e9ca9e6290f9d6045dfd4c20f5ec7303ebcae989ca375f461ed9cb9",
      "hash": "5ebc09d45e9ca9e6290f9d6045dfd4c20f5ec7303ebcae989ca375f461ed9cb9",
      "version": 2,
      "size": 226,
      "vsize": 226,
      "locktime": 1358951,
      "vin": [
        {
          "txid": "84a62a652d58faaac708b15b7a92f17d5fbc7aa29417d6031a6f0d46759d6742",
          "vout": 0,
          "scriptSig": {
            "asm": "3045022100ce102eebbafbf0771ed4880fdee25be237a844c257c1a6500a1fce862586368102205500782e115fa2fe980f4a6e3d1bf80008a110bcb5c66b514bd9010032496933[ALL] 034399489912aed00a846d422c985813d8b80cce8e7c6da31263ee87b040f3068e",
            "hex": "483045022100ce102eebbafbf0771ed4880fdee25be237a844c257c1a6500a1fce862586368102205500782e115fa2fe980f4a6e3d1bf80008a110bcb5c66b514bd90100324969330121034399489912aed00a846d422c985813d8b80cce8e7c6da31263ee87b040f3068e"
          },
          "sequence": 4294967294
        }
      ],
      "vout": [
        {
          "value": 119.89823593,
          "n": 0,
          "scriptPubKey": {
            "asm": "OP_DUP OP_HASH160 54ee8400deaa09e65d1dc1b0199b05d6559cb0c2 OP_EQUALVERIFY OP_CHECKSIG",
            "hex": "76a91454ee8400deaa09e65d1dc1b0199b05d6559cb0c288ac",
            "reqSigs": 1,
            "type": "pubkeyhash",
            "addresses": [
              "LSy2kgcihaUhKX1urJ5EGkRQL9EbrTcQhx"
            ]
          }
        }, 
        {
          "value": 3.83823890,
          "n": 1,
          "scriptPubKey": {
            "asm": "OP_DUP OP_HASH160 6c3fc79c9122f4e38ce6220a6bc2cf3002b72f9b OP_EQUALVERIFY OP_CHECKSIG",
            "hex": "76a9146c3fc79c9122f4e38ce6220a6bc2cf3002b72f9b88ac",
            "reqSigs": 1,
            "type": "pubkeyhash",
            "addresses": [
              "LV6KeRZLDmP4iZGJ5RLwt3EVCDGoNRz5yc"
            ]
          }
        }
      ],
      "hex": "020000000142679d75460d6f1a03d61794a27abc5f7df1927a5bb108c7aafa582d652aa684000000006b483045022100ce102eebbafbf0771ed4880fdee25be237a844c257c1a6500a1fce862586368102205500782e115fa2fe980f4a6e3d1bf80008a110bcb5c66b514bd90100324969330121034399489912aed00a846d422c985813d8b80cce8e7c6da31263ee87b040f3068efeffffff026930a6ca020000001976a91454ee8400deaa09e65d1dc1b0199b05d6559cb0c288ac12b0e016000000001976a9146c3fc79c9122f4e38ce6220a6bc2cf3002b72f9b88ac67bc1400"
    }
  ],
  "time": 1517223064,
  "mediantime": 1517222543,
  "nonce": 2285195277,
  "bits": "1a042eae",
  "difficulty": 4011378.762614286,
  "chainwork": "00000000000000000000000000000000000000000000003399ba7b482c1ea33c",
  "previousblockhash": "a88c7d74e3a456a57f1b92f6c3c20d46824cca1f651a8e3e547b161ee28da9dc",
  "nextblockhash": "10d3eb45fc6b8fc522d1b2464b0c04d07bda71cbb981d9bb320d2ac8e001635e"
}
