{
  "hash": "e072636a9cc0a2fb7a4deb23ae9a0d62bfab7be1ea7a07959f5446785d0dc1a2",
  "confirmations": 1945,
  "strippedsize": 2028,
  "size": 2726,
  "weight": 8810,
  "height": 1359049,
  "version": 536870912,
  "versionHex": "20000000",
  "merkleroot": "83719509ebaa44751239e254ab75227c57faea4350d9edd00ec68ea08392eede",
  "tx": [
    {
      "txid": "189e1b743af191b58588f310ac04d5f70b0ca030976f832e76e131bfd8adf476",
      "hash": "eb41e90da26a963e397467de349c319e135f58d71a1126ab05a0f3f80a41eb64",
      "version": 1,
      "size": 253,
      "vsize": 226,
      "locktime": 0,
      "vin": [
        {
          "coinbase": "03c9bc1441d69bc5a8d0e92041d69bc5a8cf16f52f4c54432e544f502ffabe6d6dda6a6733a51e831443c7ab7320f92398d629efcec9a78e248a00b3900a015b2501000000000000007a32a7c50400000000000000",
          "sequence": 4294967295
        }
      ],
      "vout": [
        {
          "value": 25.00456690,
          "n": 0,
          "scriptPubKey": {
            "asm": "OP_DUP OP_HASH160 0c617fdb2ea42aed30a509595ee21ba3f6688db0 OP_EQUALVERIFY OP_CHECKSIG",
            "hex": "76a9140c617fdb2ea42aed30a509595ee21ba3f6688db088ac",
            "reqSigs": 1,
            "type": "pubkeyhash",
            "addresses": [
              "LLMRAtr3qBje2ySEa3CnZ55LA4TQMWnRY3"
            ]
          }
        }, 
        {
          "value": 0.00000000,
          "n": 1,
          "scriptPubKey": {
            "asm": "OP_RETURN aa21a9ed3fc26dcd02e4fe41b7d594cf60d0c10c83b56b9345d3e47465056aab05b89616",
            "hex": "6a24aa21a9ed3fc26dcd02e4fe41b7d594cf60d0c10c83b56b9345d3e47465056aab05b89616",
            "type": "nulldata"
          }
        }
      ],
      "hex": "010000000001010000000000000000000000000000000000000000000000000000000000000000ffffffff5503c9bc1441d69bc5a8d0e92041d69bc5a8cf16f52f4c54432e544f502ffabe6d6dda6a6733a51e831443c7ab7320f92398d629efcec9a78e248a00b3900a015b2501000000000000007a32a7c50400000000000000ffffffff02f2f00995000000001976a9140c617fdb2ea42aed30a509595ee21ba3f6688db088ac0000000000000000266a24aa21a9ed3fc26dcd02e4fe41b7d594cf60d0c10c83b56b9345d3e47465056aab05b896160120000000000000000000000000000000000000000000000000000000000000000000000000"
    }, 
    {
      "txid": "89e55798b23139af7380bbf24eac3892117afdcebfabbc62d987e61119f6661f",
      "hash": "89e55798b23139af7380bbf24eac3892117afdcebfabbc62d987e61119f6661f",
      "version": 1,
      "size": 225,
      "vsize": 225,
      "locktime": 0,
      "vin": [
        {
          "txid": "e38279a86cad320a6b608ce554ff0135005f87759fd328ca96227b3f0ba1acf0",
          "vout": 1,
          "scriptSig": {
            "asm": "304402206c63404c3ebd187d5d5bd25eb2445f3f16aea9eb963835de70042a782a9e1ed202205cc876da6a016d2b754506b112182675a8afdd4afec7338c0383b3f7e9bfb8b7[ALL] 022d9c61de45f1108d940f5e7d0f1ff67ad44b90a8f4a728f5e352b37b26c6399c",
            "hex": "47304402206c63404c3ebd187d5d5bd25eb2445f3f16aea9eb963835de70042a782a9e1ed202205cc876da6a016d2b754506b112182675a8afdd4afec7338c0383b3f7e9bfb8b70121022d9c61de45f1108d940f5e7d0f1ff67ad44b90a8f4a728f5e352b37b26c6399c"
          },
          "sequence": 4294967295
        }
      ],
      "vout": [
        {
          "value": 0.17020000,
          "n": 0,
          "scriptPubKey": {
            "asm": "OP_DUP OP_HASH160 26c69c7d86ddc061f83351d92fc93f5ecca90c7b OP_EQUALVERIFY OP_CHECKSIG",
            "hex": "76a91426c69c7d86ddc061f83351d92fc93f5ecca90c7b88ac",
            "reqSigs": 1,
            "type": "pubkeyhash",
            "addresses": [
              "LNkysFrdus373i2emih6H44WFqp1WSAxAS"
            ]
          }
        }, 
        {
          "value": 541.76429800,
          "n": 1,
          "scriptPubKey": {
            "asm": "OP_DUP OP_HASH160 0227f526aaf9a91943b26db7fc63ac8244186bb0 OP_EQUALVERIFY OP_CHECKSIG",
            "hex": "76a9140227f526aaf9a91943b26db7fc63ac8244186bb088ac",
            "reqSigs": 1,
            "type": "pubkeyhash",
            "addresses": [
              "LKRMUuCncAikFtpyPnfoShLnMF7AsWwDT5"
            ]
          }
        }
      ],
      "hex": "0100000001f0aca10b3f7b2296ca28d39f75875f003501ff54e58c606b0a32ad6ca87982e3010000006a47304402206c63404c3ebd187d5d5bd25eb2445f3f16aea9eb963835de70042a782a9e1ed202205cc876da6a016d2b754506b112182675a8afdd4afec7338c0383b3f7e9bfb8b70121022d9c61de45f1108d940f5e7d0f1ff67ad44b90a8f4a728f5e352b37b26c6399cffffffff0260b40301000000001976a91426c69c7d86ddc061f83351d92fc93f5ecca90c7b88ace8b62a9d0c0000001976a9140227f526aaf9a91943b26db7fc63ac8244186bb088ac00000000"
    }, 
    {
      "txid": "c0a309cf5cbec6a16eab2e6dd71de3821fa2ef0f18940ad7e8b53de3c2a65341",
      "hash": "c0a309cf5cbec6a16eab2e6dd71de3821fa2ef0f18940ad7e8b53de3c2a65341",
      "version": 1,
      "size": 225,
      "vsize": 225,
      "locktime": 0,
      "vin": [
        {
          "txid": "f3c08fee3ce191c7fd6daf88b43760f7e14d553f7c174ae15cfb5ee503110bc0",
          "vout": 1,
          "scriptSig": {
            "asm": "304402207dafd1a95f8b1423ea099d693848b276003cf86a582a2627b6adeb2f9c1ffbbb02203567a9c0b9d41d2fbf55244ade0c6f6da3842bb07ecb2cc59cb3eba7765678ef[ALL] 02a3de79f94cf9496e52b35ca915233466e50f5ea4e684d5bf99029d60520d5226",
            "hex": "47304402207dafd1a95f8b1423ea099d693848b276003cf86a582a2627b6adeb2f9c1ffbbb02203567a9c0b9d41d2fbf55244ade0c6f6da3842bb07ecb2cc59cb3eba7765678ef012102a3de79f94cf9496e52b35ca915233466e50f5ea4e684d5bf99029d60520d5226"
          },
          "sequence": 4294967295
        }
      ],
      "vout": [
        {
          "value": 3.39900000,
          "n": 0,
          "scriptPubKey": {
            "asm": "OP_DUP OP_HASH160 ed75ef75483c1b11177aea25dfa6a2582126fd90 OP_EQUALVERIFY OP_CHECKSIG",
            "hex": "76a914ed75ef75483c1b11177aea25dfa6a2582126fd9088ac",
            "reqSigs": 1,
            "type": "pubkeyhash",
            "addresses": [
              "LgsXgyGQHxhkbBtw5R5mQZhdmRSjYgMmbc"
            ]
          }
        }, 
        {
          "value": 336.90255977,
          "n": 1,
          "scriptPubKey": {
            "asm": "OP_DUP OP_HASH160 e3dea9a02974d7481ee0f12d1ff8158c99b2bd6e OP_EQUALVERIFY OP_CHECKSIG",
            "hex": "76a914e3dea9a02974d7481ee0f12d1ff8158c99b2bd6e88ac",
            "reqSigs": 1,
            "type": "pubkeyhash",
            "addresses": [
              "LfzpPdL9UYNRc4JybycZTLHebwSBnhuXc3"
            ]
          }
        }
      ],
      "hex": "0100000001c00b1103e55efb5ce14a177c3f554de1f76037b488af6dfdc791e13cee8fc0f3010000006a47304402207dafd1a95f8b1423ea099d693848b276003cf86a582a2627b6adeb2f9c1ffbbb02203567a9c0b9d41d2fbf55244ade0c6f6da3842bb07ecb2cc59cb3eba7765678ef012102a3de79f94cf9496e52b35ca915233466e50f5ea4e684d5bf99029d60520d5226ffffffff0260764214000000001976a914ed75ef75483c1b11177aea25dfa6a2582126fd9088ac698218d8070000001976a914e3dea9a02974d7481ee0f12d1ff8158c99b2bd6e88ac00000000"
    }, 
    {
      "txid": "8b5ba2b1f0946dbd607faa57f7163c90544348622354d385d0ad59146ab3a546",
      "hash": "d2d28de1e9fc3e9dfccac7710aac83a16248b106ba25c535e84e82f9288d13e8",
      "version": 1,
      "size": 371,
      "vsize": 206,
      "locktime": 0,
      "vin": [
        {
          "txid": "f5bb6be421ac127ba7f4a1ccce2f94907565b8e5a23b52e01edab882eaea50dd",
          "vout": 1,
          "scriptSig": {
            "asm": "00207975c3f0d1bf8b6205e1c664d703c93d68409676bf17c5e78cdece78bdbf3dbf",
            "hex": "2200207975c3f0d1bf8b6205e1c664d703c93d68409676bf17c5e78cdece78bdbf3dbf"
          },
          "txinwitness": [
            "", 
            "3045022100a258ab27408a4d00d6ff6fd1f66e76080e1e1c71c9cfcd4b3ad3b3c6fd29921302200ff7163f399c652b7e6e4db8320bca3ecafccfd1f36a66d8d5e55538b25534c401", 
            "3044022057fec942d20b9a0a72f07f8833c71b2ef034ca04fc1163e75270a106cebe712202200c227afe0218d397249aaaa724d38b4ec2d1ccb462d476e7db3735b70a47d6b501", 
            "522102611be09a0c6a571c8f68adb2481e938888756d93d4ee5b670f08c16e939b7f1a21022cc7a96a72ef014bf078a6489644e2edb05bb216d30b4f28363b637fe4463fd652ae"
          ],
          "sequence": 4294967295
        }
      ],
      "vout": [
        {
          "value": 0.00752071,
          "n": 0,
          "scriptPubKey": {
            "asm": "OP_HASH160 d186f2b2fd016f60453313ac8536c666a0164a51 OP_EQUAL",
            "hex": "a914d186f2b2fd016f60453313ac8536c666a0164a5187",
            "reqSigs": 1,
            "type": "scripthash",
            "addresses": [
              "MT137sq9FvwzkBQzMW2cPWQYTfPaTnb8rN"
            ]
          }
        }, 
        {
          "value": 10.06904071,
          "n": 1,
          "scriptPubKey": {
            "asm": "OP_HASH160 486ce63d83e8406016f310cd321d36bbdd10d412 OP_EQUAL",
            "hex": "a914486ce63d83e8406016f310cd321d36bbdd10d41287",
            "reqSigs": 1,
            "type": "scripthash",
            "addresses": [
              "MEW7Lhk6QzBLmCNp5pmpYzwv1KAcKYsSQp"
            ]
          }
        }
      ],
      "hex": "01000000000101dd50eaea82b8da1ee0523ba2e5b8657590942fcecca1f4a77b12ac21e46bbbf501000000232200207975c3f0d1bf8b6205e1c664d703c93d68409676bf17c5e78cdece78bdbf3dbfffffffff02c7790b000000000017a914d186f2b2fd016f60453313ac8536c666a0164a51870723043c0000000017a914486ce63d83e8406016f310cd321d36bbdd10d412870400483045022100a258ab27408a4d00d6ff6fd1f66e76080e1e1c71c9cfcd4b3ad3b3c6fd29921302200ff7163f399c652b7e6e4db8320bca3ecafccfd1f36a66d8d5e55538b25534c401473044022057fec942d20b9a0a72f07f8833c71b2ef034ca04fc1163e75270a106cebe712202200c227afe0218d397249aaaa724d38b4ec2d1ccb462d476e7db3735b70a47d6b50147522102611be09a0c6a571c8f68adb2481e938888756d93d4ee5b670f08c16e939b7f1a21022cc7a96a72ef014bf078a6489644e2edb05bb216d30b4f28363b637fe4463fd652ae00000000"
    }, 
    {
      "txid": "1c61399b4628dfcb078f91c1f3b3c7c37d47f2b79f54abc3138a4279393c4e9c",
      "hash": "6abb5d541782dcda09d165e1ab5da08a5566245c3b1997faa0cf4c254eee96e5",
      "version": 1,
      "size": 669,
      "vsize": 339,
      "locktime": 0,
      "vin": [
        {
          "txid": "c469f2752d814b5432cae1d4816148e433fae0480e941bcab7bdac1146f77299",
          "vout": 1,
          "scriptSig": {
            "asm": "002069cb51c23f2f9709d0e1e71186d13ac8de5d72d2c5b2bc08a89f1cc3b3bc3b00",
            "hex": "22002069cb51c23f2f9709d0e1e71186d13ac8de5d72d2c5b2bc08a89f1cc3b3bc3b00"
          },
          "txinwitness": [
            "", 
            "304402200620553cfce28d5aea993a8effa5528bdd21062b42c85c2be34558c094b77caf022067de6002fa37be2f8afad1b1de0364c75c10ec51cdddb95364e92c8b62285fb101", 
            "3045022100a6861ed51ae382b30209b103d8a486256d2cc4e1d1298f2ccb32b200af572e870220269ccc8288a5e8295ca7967922b07aca743b97ffcfdd4e38006c48009c91552a01", 
            "522103fb09a568530f604a591e84cd549837d06774e35c45f31645b7ae07459e67379b21039c1cc1923081a09ab4d6cec717bdf455a6bc2901873a72ed03e7bd3c6bb3c7e652ae"
          ],
          "sequence": 4294967295
        }, 
        {
          "txid": "1c9ce1a065c7703481a487da159f9ecc33f9ff0dff7ef7057286a9da6f65f3a2",
          "vout": 1,
          "scriptSig": {
            "asm": "002069cb51c23f2f9709d0e1e71186d13ac8de5d72d2c5b2bc08a89f1cc3b3bc3b00",
            "hex": "22002069cb51c23f2f9709d0e1e71186d13ac8de5d72d2c5b2bc08a89f1cc3b3bc3b00"
          },
          "txinwitness": [
            "", 
            "3045022100c954594400dfc4acad0db2ec17f405cfc6be10cb4396e9f25654cdc003526a2502200f8ccfb6fafe6e3fb7735f0f51222516e3f7b49b77fcfc28c1876ed66271adea01", 
            "3045022100ff32dcf286020fd0cffa7bd8b95b5b96baccf5236f1d078d57f462e3069d483f02205f2faa0dd6fe7eca6abd62b88eda432e6a81924132a9a1e3217ae574d7814e3201", 
            "522103fb09a568530f604a591e84cd549837d06774e35c45f31645b7ae07459e67379b21039c1cc1923081a09ab4d6cec717bdf455a6bc2901873a72ed03e7bd3c6bb3c7e652ae"
          ],
          "sequence": 4294967295
        }
      ],
      "vout": [
        {
          "value": 0.48450000,
          "n": 0,
          "scriptPubKey": {
            "asm": "OP_DUP OP_HASH160 5ade8795921692dd28197a8e421562d1dba92422 OP_EQUALVERIFY OP_CHECKSIG",
            "hex": "76a9145ade8795921692dd28197a8e421562d1dba9242288ac",
            "reqSigs": 1,
            "type": "pubkeyhash",
            "addresses": [
              "LTWRf7AxxumyZsLQaVr9crBVV6K8MoihAi"
            ]
          }
        }, 
        {
          "value": 1.59638707,
          "n": 1,
          "scriptPubKey": {
            "asm": "OP_HASH160 48b8c6bad309aef113a92cb41c7c6a52e82305b9 OP_EQUAL",
            "hex": "a91448b8c6bad309aef113a92cb41c7c6a52e82305b987",
            "reqSigs": 1,
            "type": "scripthash",
            "addresses": [
              "MEXgEivJK688z9PDpH1T8orMnEjmgBz7Lj"
            ]
          }
        }
      ],
      "hex": "010000000001029972f74611acbdb7ca1b940e48e0fa33e4486181d4e1ca32544b812d75f269c4010000002322002069cb51c23f2f9709d0e1e71186d13ac8de5d72d2c5b2bc08a89f1cc3b3bc3b00ffffffffa2f3656fdaa9867205f77eff0dfff933cc9e9f15da87a4813470c765a0e19c1c010000002322002069cb51c23f2f9709d0e1e71186d13ac8de5d72d2c5b2bc08a89f1cc3b3bc3b00ffffffff02d049e302000000001976a9145ade8795921692dd28197a8e421562d1dba9242288acb3e483090000000017a91448b8c6bad309aef113a92cb41c7c6a52e82305b987040047304402200620553cfce28d5aea993a8effa5528bdd21062b42c85c2be34558c094b77caf022067de6002fa37be2f8afad1b1de0364c75c10ec51cdddb95364e92c8b62285fb101483045022100a6861ed51ae382b30209b103d8a486256d2cc4e1d1298f2ccb32b200af572e870220269ccc8288a5e8295ca7967922b07aca743b97ffcfdd4e38006c48009c91552a0147522103fb09a568530f604a591e84cd549837d06774e35c45f31645b7ae07459e67379b21039c1cc1923081a09ab4d6cec717bdf455a6bc2901873a72ed03e7bd3c6bb3c7e652ae0400483045022100c954594400dfc4acad0db2ec17f405cfc6be10cb4396e9f25654cdc003526a2502200f8ccfb6fafe6e3fb7735f0f51222516e3f7b49b77fcfc28c1876ed66271adea01483045022100ff32dcf286020fd0cffa7bd8b95b5b96baccf5236f1d078d57f462e3069d483f02205f2faa0dd6fe7eca6abd62b88eda432e6a81924132a9a1e3217ae574d7814e320147522103fb09a568530f604a591e84cd549837d06774e35c45f31645b7ae07459e67379b21039c1cc1923081a09ab4d6cec717bdf455a6bc2901873a72ed03e7bd3c6bb3c7e652ae00000000"
    }, 
    {
      "txid": "8ff0462e95077c46edeaa4e4eba69515584f2a03a4e4469b64c00c7989fd4b0a",
      "hash": "8ff0462e95077c46edeaa4e4eba69515584f2a03a4e4469b64c00c7989fd4b0a",
      "version": 2,
      "size": 225,
      "vsize": 225,
      "locktime": 1359047,
      "vin": [
        {
          "txid": "0cb6a28b55748b8d2e43d758a03056b3d06719e4286db5433a8d6d9044c35e00",
          "vout": 1,
          "scriptSig": {
            "asm": "3044022019644042f90529b78880f3dda3f45648d30d47ad3698f4f11854b3294249321902204b9df4fef144d8c63bfb2f57091e49284945bc647ece61c19b5c8727e6253029[ALL] 0308ef7bb00f85ea0d9615541ee44937311393878093701ac993e50889d4e20ba1",
            "hex": "473044022019644042f90529b78880f3dda3f45648d30d47ad3698f4f11854b3294249321902204b9df4fef144d8c63bfb2f57091e49284945bc647ece61c19b5c8727e625302901210308ef7bb00f85ea0d9615541ee44937311393878093701ac993e50889d4e20ba1"
          },
          "sequence": 4294967294
        }
      ],
      "vout": [
        {
          "value": 376.07388433,
          "n": 0,
          "scriptPubKey": {
            "asm": "OP_DUP OP_HASH160 08e9a198c90b236878357e38a2d2d5fec3785efb OP_EQUALVERIFY OP_CHECKSIG",
            "hex": "76a91408e9a198c90b236878357e38a2d2d5fec3785efb88ac",
            "reqSigs": 1,
            "type": "pubkeyhash",
            "addresses": [
              "LL35YjL5ahAmYShT81iYSscaBCXKDfKiTA"
            ]
          }
        }, 
        {
          "value": 0.40000000,
          "n": 1,
          "scriptPubKey": {
            "asm": "OP_DUP OP_HASH160 ceb3c8109b02175d2b62d1901cb4a591c19268ce OP_EQUALVERIFY OP_CHECKSIG",
            "hex": "76a914ceb3c8109b02175d2b62d1901cb4a591c19268ce88ac",
            "reqSigs": 1,
            "type": "pubkeyhash",
            "addresses": [
              "Le4tqAh9ewh5sn4mrBvaisgdD7eRP1M7BS"
            ]
          }
        }
      ],
      "hex": "0200000001005ec344906d8d3a43b56d28e41967d0b35630a058d7432e8d8b74558ba2b60c010000006a473044022019644042f90529b78880f3dda3f45648d30d47ad3698f4f11854b3294249321902204b9df4fef144d8c63bfb2f57091e49284945bc647ece61c19b5c8727e625302901210308ef7bb00f85ea0d9615541ee44937311393878093701ac993e50889d4e20ba1feffffff02113593c1080000001976a91408e9a198c90b236878357e38a2d2d5fec3785efb88ac005a6202000000001976a914ceb3c8109b02175d2b62d1901cb4a591c19268ce88acc7bc1400"
    }, 
    {
      "txid": "a322456ffc71936620ff6d75486eff98dd14b9d1d4a18adf03912a5450e463c5",
      "hash": "a322456ffc71936620ff6d75486eff98dd14b9d1d4a18adf03912a5450e463c5",
      "version": 2,
      "size": 225,
      "vsize": 225,
      "locktime": 1359047,
      "vin": [
        {
          "txid": "6d0a8469335e07c681160f70df14a58dbdb4b248b70810c88bacdfb5d0d5d02d",
          "vout": 0,
          "scriptSig": {
            "asm": "304402205f06afdb045c2bc2da4cf37a74e4ec4ecbf072b47fbd66b15c915c75b3b45a4302202e12295457b2dd56758f08e8fb221803a79e042aeb82da7c17a7c3f458000438[ALL] 02a628feece353cf64eec7d3238839f9652c7aa9c41ff34097f5f105a647d8ae97",
            "hex": "47304402205f06afdb045c2bc2da4cf37a74e4ec4ecbf072b47fbd66b15c915c75b3b45a4302202e12295457b2dd56758f08e8fb221803a79e042aeb82da7c17a7c3f458000438012102a628feece353cf64eec7d3238839f9652c7aa9c41ff34097f5f105a647d8ae97"
          },
          "sequence": 4294967294
        }
      ],
      "vout": [
        {
          "value": 0.38222989,
          "n": 0,
          "scriptPubKey": {
            "asm": "OP_DUP OP_HASH160 23260d80164ab37ba9639767571a1b39dce5f991 OP_EQUALVERIFY OP_CHECKSIG",
            "hex": "76a91423260d80164ab37ba9639767571a1b39dce5f99188ac",
            "reqSigs": 1,
            "type": "pubkeyhash",
            "addresses": [
              "LNRoVsrBdQiNEc4A8uUD3CqA38fWYFMJfG"
            ]
          }
        }, 
        {
          "value": 73.53496150,
          "n": 1,
          "scriptPubKey": {
            "asm": "OP_DUP OP_HASH160 0ef84a307aabeb8f1e59f6b181fc33f6bda95d93 OP_EQUALVERIFY OP_CHECKSIG",
            "hex": "76a9140ef84a307aabeb8f1e59f6b181fc33f6bda95d9388ac",
            "reqSigs": 1,
            "type": "pubkeyhash",
            "addresses": [
              "LLb7ANnvY23FUY2R9zTrZadn8pFaKiaNG7"
            ]
          }
        }
      ],
      "hex": "02000000012dd0d5d0b5dfac8bc81008b748b2b4bd8da514df700f1681c6075e3369840a6d000000006a47304402205f06afdb045c2bc2da4cf37a74e4ec4ecbf072b47fbd66b15c915c75b3b45a4302202e12295457b2dd56758f08e8fb221803a79e042aeb82da7c17a7c3f458000438012102a628feece353cf64eec7d3238839f9652c7aa9c41ff34097f5f105a647d8ae97feffffff028d3c4702000000001976a91423260d80164ab37ba9639767571a1b39dce5f99188ac56724db6010000001976a9140ef84a307aabeb8f1e59f6b181fc33f6bda95d9388acc7bc1400"
    }, 
    {
      "txid": "cbee3813478a6b7d875e48024e80a805096eb4fc392667c7b02bbedeecbac8a4",
      "hash": "cbee3813478a6b7d875e48024e80a805096eb4fc392667c7b02bbedeecbac8a4",
      "version": 2,
      "size": 226,
      "vsize": 226,
      "locktime": 1359047,
      "vin": [
        {
          "txid": "374e3fb1c7e30750626cd3965f8ff6957f440e015a101ea1957484060d2099a9",
          "vout": 370,
          "scriptSig": {
            "asm": "3045022100c809702c0558a2c2585b0c576b15f621769cd1322c995e5e6bbc7c39e4234533022074d3c6ea2f784825833b08acf5e17fcb7529ed711d48a7c2e377c83dd625ed2f[ALL] 03d19a03cf4b62aca40bf9b3eebc445a35582750dc6ebc0d85211200d6bb99f65d",
            "hex": "483045022100c809702c0558a2c2585b0c576b15f621769cd1322c995e5e6bbc7c39e4234533022074d3c6ea2f784825833b08acf5e17fcb7529ed711d48a7c2e377c83dd625ed2f012103d19a03cf4b62aca40bf9b3eebc445a35582750dc6ebc0d85211200d6bb99f65d"
          },
          "sequence": 4294967294
        }
      ],
      "vout": [
        {
          "value": 0.00300000,
          "n": 0,
          "scriptPubKey": {
            "asm": "OP_DUP OP_HASH160 27168c2ad9881bed03292889ec03593589412830 OP_EQUALVERIFY OP_CHECKSIG",
            "hex": "76a91427168c2ad9881bed03292889ec0359358941283088ac",
            "reqSigs": 1,
            "type": "pubkeyhash",
            "addresses": [
              "LNnddKkkhFhYJcZkaYZXuoy4yYBKo32VcZ"
            ]
          }
        }, 
        {
          "value": 0.01504556,
          "n": 1,
          "scriptPubKey": {
            "asm": "OP_DUP OP_HASH160 0c0a6934cc5464e89beeffc4a9272e8f2508b861 OP_EQUALVERIFY OP_CHECKSIG",
            "hex": "76a9140c0a6934cc5464e89beeffc4a9272e8f2508b86188ac",
            "reqSigs": 1,
            "type": "pubkeyhash",
            "addresses": [
              "LLKcqt4vCpkQh9qNnyeUDy9ZWg2W4zMwmY"
            ]
          }
        }
      ],
      "hex": "0200000001a999200d06847495a11e105a010e447f95f68f5f96d36c625007e3c7b13f4e37720100006b483045022100c809702c0558a2c2585b0c576b15f621769cd1322c995e5e6bbc7c39e4234533022074d3c6ea2f784825833b08acf5e17fcb7529ed711d48a7c2e377c83dd625ed2f012103d19a03cf4b62aca40bf9b3eebc445a35582750dc6ebc0d85211200d6bb99f65dfeffffff02e0930400000000001976a91427168c2ad9881bed03292889ec0359358941283088ac2cf51600000000001976a9140c0a6934cc5464e89beeffc4a9272e8f2508b86188acc7bc1400"
    }, 
    {
      "txid": "6dff4d3366ef8e83433a73a18cf90e6cc7c9a448b6c12149ef2a02fe4ee2e8ca",
      "hash": "6dff4d3366ef8e83433a73a18cf90e6cc7c9a448b6c12149ef2a02fe4ee2e8ca",
      "version": 1,
      "size": 226,
      "vsize": 226,
      "locktime": 0,
      "vin": [
        {
          "txid": "09f82cb587e8b50f437126ae576ddaa3ade4a4e8d14c5bf03573cfa9f7d62316",
          "vout": 7,
          "scriptSig": {
            "asm": "3045022100c1fc955672a27c9086729ae85b371589944255075232c6a4be92be9b9c0fd1f40220499dd6383d3e38bd134cd07baa0e7b9100f1efb899d972e5962b1a8598d46fc6[ALL] 03572cd3b888ce87b18eae3195e6fe06b3d339c5de58309ea4f8495992b11dd8f9",
            "hex": "483045022100c1fc955672a27c9086729ae85b371589944255075232c6a4be92be9b9c0fd1f40220499dd6383d3e38bd134cd07baa0e7b9100f1efb899d972e5962b1a8598d46fc6012103572cd3b888ce87b18eae3195e6fe06b3d339c5de58309ea4f8495992b11dd8f9"
          },
          "sequence": 4294967295
        }
      ],
      "vout": [
        {
          "value": 99.34790585,
          "n": 0,
          "scriptPubKey": {
            "asm": "OP_DUP OP_HASH160 96eb5c379926f5d3da5993b6cbed2c7827c298f2 OP_EQUALVERIFY OP_CHECKSIG",
            "hex": "76a91496eb5c379926f5d3da5993b6cbed2c7827c298f288ac",
            "reqSigs": 1,
            "type": "pubkeyhash",
            "addresses": [
              "LYywa6uM9yoa9uAqzZmt9Y6gbD5NAAZCv3"
            ]
          }
        }, 
        {
          "value": 0.65186815,
          "n": 1,
          "scriptPubKey": {
            "asm": "OP_DUP OP_HASH160 db9cbf1473228c8c07ce15826d8bb38279316bb4 OP_EQUALVERIFY OP_CHECKSIG",
            "hex": "76a914db9cbf1473228c8c07ce15826d8bb38279316bb488ac",
            "reqSigs": 1,
            "type": "pubkeyhash",
            "addresses": [
              "LfFA29wweFPbMPVMRNLpYwAsF9Ms1j6C1Q"
            ]
          }
        }
      ],
      "hex": "01000000011623d6f7a9cf7335f05b4cd1e8a4e4ada3da6d57ae2671430fb5e887b52cf809070000006b483045022100c1fc955672a27c9086729ae85b371589944255075232c6a4be92be9b9c0fd1f40220499dd6383d3e38bd134cd07baa0e7b9100f1efb899d972e5962b1a8598d46fc6012103572cd3b888ce87b18eae3195e6fe06b3d339c5de58309ea4f8495992b11dd8f9ffffffff02b9df2850020000001976a91496eb5c379926f5d3da5993b6cbed2c7827c298f288acffabe203000000001976a914db9cbf1473228c8c07ce15826d8bb38279316bb488ac00000000"
    }
  ],
  "time": 1517229731,
  "mediantime": 1517228827,
  "nonce": 3973802032,
  "bits": "1a042eae",
  "difficulty": 4011378.762614286,
  "chainwork": "000000000000000000000000000000000000000000000033a43fb586f473c594",
  "previousblockhash": "05677183ca0dde2d256e0e5aeec00ae429331dc462dfdf2edf38fb47388bc63f",
  "nextblockhash": "12b57f5a9643800b089838a8527dd7c70fccd5a809248eda39561e3a475f211e"
}
