{
  "hash": "e0d29fc892e56861690532e9e07262dc8bd87a44835dbf232804255f5fad56ff",
  "confirmations": 1331,
  "strippedsize": 5131,
  "size": 5167,
  "weight": 20560,
  "height": 1359663,
  "version": 536870912,
  "versionHex": "20000000",
  "merkleroot": "03f6e20d0b0b171b725ac24392fbe8682b851ea3d219189bfeff502aebb302b3",
  "tx": [
    {
      "txid": "b59505726113736ea964633568712508c6bc656e1d85bcbfd687c6f834103999",
      "hash": "00eee7b3dffee12a828fa91853c49d533f5aed94844e697db5d059879c1c3c09",
      "version": 1,
      "size": 261,
      "vsize": 234,
      "locktime": 0,
      "vin": [
        {
          "coinbase": "032fbf141a2f5669614254432f4d696e656420627920746e7467726f75702f2cfabe6d6d0de70f0ec246bb573424c7dd9f49fb813d79ba570783c15fa33b2f11936dc894010000000000000010a77f67005715e0cdb9b80f5903000000",
          "sequence": 4294967295
        }
      ],
      "vout": [
        {
          "value": 25.00787009,
          "n": 0,
          "scriptPubKey": {
            "asm": "OP_DUP OP_HASH160 e16c28146ed4869c190b3f0bdc18d80d45f92134 OP_EQUALVERIFY OP_CHECKSIG",
            "hex": "76a914e16c28146ed4869c190b3f0bdc18d80d45f9213488ac",
            "reqSigs": 1,
            "type": "pubkeyhash",
            "addresses": [
              "LfmssDyX6iZvbVqHv6t9P6JWXia2JG7mdb"
            ]
          }
        }, 
        {
          "value": 0.00000000,
          "n": 1,
          "scriptPubKey": {
            "asm": "OP_RETURN aa21a9ed7c1ed532a475be112197654248824e85caa2200fa777417d81edc82d7e272e87",
            "hex": "6a24aa21a9ed7c1ed532a475be112197654248824e85caa2200fa777417d81edc82d7e272e87",
            "type": "nulldata"
          }
        }
      ],
      "hex": "010000000001010000000000000000000000000000000000000000000000000000000000000000ffffffff5d032fbf141a2f5669614254432f4d696e656420627920746e7467726f75702f2cfabe6d6d0de70f0ec246bb573424c7dd9f49fb813d79ba570783c15fa33b2f11936dc894010000000000000010a77f67005715e0cdb9b80f5903000000ffffffff0241fb0e95000000001976a914e16c28146ed4869c190b3f0bdc18d80d45f9213488ac0000000000000000266a24aa21a9ed7c1ed532a475be112197654248824e85caa2200fa777417d81edc82d7e272e870120000000000000000000000000000000000000000000000000000000000000000000000000"
    }, 
    {
      "txid": "dd62d12f445ca92b99804d4d64d59323a7d01bb4a0955436c4000909462e3e7e",
      "hash": "dd62d12f445ca92b99804d4d64d59323a7d01bb4a0955436c4000909462e3e7e",
      "version": 1,
      "size": 225,
      "vsize": 225,
      "locktime": 0,
      "vin": [
        {
          "txid": "514358579e5fdc4bba3b69edc219ebd6b5d34575b3de49e37c4cab13c1534ebd",
          "vout": 1,
          "scriptSig": {
            "asm": "3044022030bbb8174de7ea8a7edf72e2d1b4a1616abfc5f892010249aab0bcfbe370bd2902204c13c4e7d401c107016639fbad322ed9a59e229518a07ff9e0407123a6944ebb[ALL] 027b9041c3ead09d4c092b480307b2cccba78f6bf486aaa99cf5f45e818b7753d7",
            "hex": "473044022030bbb8174de7ea8a7edf72e2d1b4a1616abfc5f892010249aab0bcfbe370bd2902204c13c4e7d401c107016639fbad322ed9a59e229518a07ff9e0407123a6944ebb0121027b9041c3ead09d4c092b480307b2cccba78f6bf486aaa99cf5f45e818b7753d7"
          },
          "sequence": 4294967295
        }
      ],
      "vout": [
        {
          "value": 16.82098000,
          "n": 0,
          "scriptPubKey": {
            "asm": "OP_DUP OP_HASH160 e65b6612b4fa8533541228be762a1d4d81501a09 OP_EQUALVERIFY OP_CHECKSIG",
            "hex": "76a914e65b6612b4fa8533541228be762a1d4d81501a0988ac",
            "reqSigs": 1,
            "type": "pubkeyhash",
            "addresses": [
              "LgDyAq1hibaQiq4b6tCzi1F5jTq5QtZyom"
            ]
          }
        }, 
        {
          "value": 142.67918005,
          "n": 1,
          "scriptPubKey": {
            "asm": "OP_DUP OP_HASH160 b8b695c9dd16e6b87cd26d0acdacf9d7dc771ff6 OP_EQUALVERIFY OP_CHECKSIG",
            "hex": "76a914b8b695c9dd16e6b87cd26d0acdacf9d7dc771ff688ac",
            "reqSigs": 1,
            "type": "pubkeyhash",
            "addresses": [
              "Lc4dKkCz2jsDvBukWetJ8jPbj671XF8QU4"
            ]
          }
        }
      ],
      "hex": "0100000001bd4e53c113ab4c7ce349deb37545d3b5d6eb19c2ed693bba4bdc5f9e57584351010000006a473044022030bbb8174de7ea8a7edf72e2d1b4a1616abfc5f892010249aab0bcfbe370bd2902204c13c4e7d401c107016639fbad322ed9a59e229518a07ff9e0407123a6944ebb0121027b9041c3ead09d4c092b480307b2cccba78f6bf486aaa99cf5f45e818b7753d7ffffffff0250c74264000000001976a914e65b6612b4fa8533541228be762a1d4d81501a0988acb5266f52030000001976a914b8b695c9dd16e6b87cd26d0acdacf9d7dc771ff688ac00000000"
    }, 
    {
      "txid": "4de00dd05b21cea02f477f3f5b16afff989f821218cec3a92862f1f2fcddc5fe",
      "hash": "4de00dd05b21cea02f477f3f5b16afff989f821218cec3a92862f1f2fcddc5fe",
      "version": 1,
      "size": 226,
      "vsize": 226,
      "locktime": 0,
      "vin": [
        {
          "txid": "ac981f2626f503b3ca84a45215b13e6f5e650aa324262bade8e36d372cd32ba3",
          "vout": 1,
          "scriptSig": {
            "asm": "3045022100cbe32aff2136d9b01b27668f3da74bb043c3e9aeaa310dc6dab995585537dfe3022004f8f906e349fd484ba640f8c292c73ed351afaab6447b7a0ceab7c2742a31bb[ALL] 039882cc52161875d5a1bcb7d71494cba34ea407e14320fae924f0789d9b1c4797",
            "hex": "483045022100cbe32aff2136d9b01b27668f3da74bb043c3e9aeaa310dc6dab995585537dfe3022004f8f906e349fd484ba640f8c292c73ed351afaab6447b7a0ceab7c2742a31bb0121039882cc52161875d5a1bcb7d71494cba34ea407e14320fae924f0789d9b1c4797"
          },
          "sequence": 4294967295
        }
      ],
      "vout": [
        {
          "value": 0.98086000,
          "n": 0,
          "scriptPubKey": {
            "asm": "OP_DUP OP_HASH160 3bade1c4c4b838e5c0335b7076170678711b4e17 OP_EQUALVERIFY OP_CHECKSIG",
            "hex": "76a9143bade1c4c4b838e5c0335b7076170678711b4e1788ac",
            "reqSigs": 1,
            "type": "pubkeyhash",
            "addresses": [
              "LQfWS4JnXV5EDnK1VxcRJoiyUnBPkiA5Cc"
            ]
          }
        }, 
        {
          "value": 158.51760710,
          "n": 1,
          "scriptPubKey": {
            "asm": "OP_DUP OP_HASH160 94320f895cfa10b4368b54de3c825db7f493f795 OP_EQUALVERIFY OP_CHECKSIG",
            "hex": "76a91494320f895cfa10b4368b54de3c825db7f493f79588ac",
            "reqSigs": 1,
            "type": "pubkeyhash",
            "addresses": [
              "LYjYEt61jgtjqFxEMCN9qnbtZBJofrsst7"
            ]
          }
        }
      ],
      "hex": "0100000001a32bd32c376de3e8ad2b2624a30a655e6f3eb11552a484cab303f526261f98ac010000006b483045022100cbe32aff2136d9b01b27668f3da74bb043c3e9aeaa310dc6dab995585537dfe3022004f8f906e349fd484ba640f8c292c73ed351afaab6447b7a0ceab7c2742a31bb0121039882cc52161875d5a1bcb7d71494cba34ea407e14320fae924f0789d9b1c4797ffffffff0270acd805000000001976a9143bade1c4c4b838e5c0335b7076170678711b4e1788ac46acd6b0030000001976a91494320f895cfa10b4368b54de3c825db7f493f79588ac00000000"
    }, 
    {
      "txid": "cf75b19f5ce334a9356d97a4932aae52c02f83b71f5ccd0b6afbb1747b439924",
      "hash": "cf75b19f5ce334a9356d97a4932aae52c02f83b71f5ccd0b6afbb1747b439924",
      "version": 2,
      "size": 226,
      "vsize": 226,
      "locktime": 1359598,
      "vin": [
        {
          "txid": "89f144791ab16d3c01baae3c850c1ee9e03555fe2fa760ac602085329a7edb8f",
          "vout": 0,
          "scriptSig": {
            "asm": "3045022100ce73e412751719351f416ae4663b6dec8c67c50577cebc65d0e66ab921905b37022021ac5853a4aee447cf318083b9d7232cd5b2e04a5236ce43aa1576a8824d95d4[ALL] 036bd5459729cc6a47ef613923d79fc0c066f0797319286efed50c0223c2cd625f",
            "hex": "483045022100ce73e412751719351f416ae4663b6dec8c67c50577cebc65d0e66ab921905b37022021ac5853a4aee447cf318083b9d7232cd5b2e04a5236ce43aa1576a8824d95d40121036bd5459729cc6a47ef613923d79fc0c066f0797319286efed50c0223c2cd625f"
          },
          "sequence": 4294967294
        }
      ],
      "vout": [
        {
          "value": 2.38677970,
          "n": 0,
          "scriptPubKey": {
            "asm": "OP_DUP OP_HASH160 c18f2759d9f60d16396d8a5cb5391e0b2c721151 OP_EQUALVERIFY OP_CHECKSIG",
            "hex": "76a914c18f2759d9f60d16396d8a5cb5391e0b2c72115188ac",
            "reqSigs": 1,
            "type": "pubkeyhash",
            "addresses": [
              "LcsQAjLXn7RNwktgv7Ey6FASrvtuLMMV7f"
            ]
          }
        }, 
        {
          "value": 105.66975089,
          "n": 1,
          "scriptPubKey": {
            "asm": "OP_DUP OP_HASH160 1620f3c403daea63c4c403915e57be49e1d0abed OP_EQUALVERIFY OP_CHECKSIG",
            "hex": "76a9141620f3c403daea63c4c403915e57be49e1d0abed88ac",
            "reqSigs": 1,
            "type": "pubkeyhash",
            "addresses": [
              "LMExbzYYMK1enPELsct36t2A9QMQDaScP2"
            ]
          }
        }
      ],
      "hex": "02000000018fdb7e9a32852060ac60a72ffe5535e0e91e0c853caeba013c6db11a7944f189000000006b483045022100ce73e412751719351f416ae4663b6dec8c67c50577cebc65d0e66ab921905b37022021ac5853a4aee447cf318083b9d7232cd5b2e04a5236ce43aa1576a8824d95d40121036bd5459729cc6a47ef613923d79fc0c066f0797319286efed50c0223c2cd625ffeffffff02d2ef390e000000001976a914c18f2759d9f60d16396d8a5cb5391e0b2c72115188ac713ed775020000001976a9141620f3c403daea63c4c403915e57be49e1d0abed88aceebe1400"
    }, 
    {
      "txid": "de2a9fc5f27c6bb3d074a548313754e62cad43509c1880bacf04bbdcb7bdfe21",
      "hash": "de2a9fc5f27c6bb3d074a548313754e62cad43509c1880bacf04bbdcb7bdfe21",
      "version": 1,
      "size": 225,
      "vsize": 225,
      "locktime": 0,
      "vin": [
        {
          "txid": "0d62dc7d63c44ceb1c106471c70be2f9a00b19199723b04e34b8bf6f4e486ee9",
          "vout": 0,
          "scriptSig": {
            "asm": "3044022047b0581f3a7a5ec0b06eea4504dc7b254b9afca378dade4b6ac1879c0383980302207d9db4f3ae3f0bea03e86cc0e2bbccbbd02a823b26622bc367fbf6758ae9d676[ALL] 025597ff5dec319f3510c30297cc859cfda2f2b881fd5b2a7a78c0bf2733606cdd",
            "hex": "473044022047b0581f3a7a5ec0b06eea4504dc7b254b9afca378dade4b6ac1879c0383980302207d9db4f3ae3f0bea03e86cc0e2bbccbbd02a823b26622bc367fbf6758ae9d6760121025597ff5dec319f3510c30297cc859cfda2f2b881fd5b2a7a78c0bf2733606cdd"
          },
          "sequence": 4294967295
        }
      ],
      "vout": [
        {
          "value": 0.02582700,
          "n": 0,
          "scriptPubKey": {
            "asm": "OP_DUP OP_HASH160 f9e73c79670eb4f37591547654d3d52c52eb0f70 OP_EQUALVERIFY OP_CHECKSIG",
            "hex": "76a914f9e73c79670eb4f37591547654d3d52c52eb0f7088ac",
            "reqSigs": 1,
            "type": "pubkeyhash",
            "addresses": [
              "Li1KXZ4MRWSuVBi7JXuGaBrhHR5TuQb3mi"
            ]
          }
        }, 
        {
          "value": 0.14102781,
          "n": 1,
          "scriptPubKey": {
            "asm": "OP_DUP OP_HASH160 51bbe137b881d3eb93a9e8e83ea075679aa880d9 OP_EQUALVERIFY OP_CHECKSIG",
            "hex": "76a91451bbe137b881d3eb93a9e8e83ea075679aa880d988ac",
            "reqSigs": 1,
            "type": "pubkeyhash",
            "addresses": [
              "LSg84sAAqUhkp39bqnMijfpaz52sARL2rX"
            ]
          }
        }
      ],
      "hex": "0100000001e96e484e6fbfb8344eb0239719190ba0f9e20bc77164101ceb4cc4637ddc620d000000006a473044022047b0581f3a7a5ec0b06eea4504dc7b254b9afca378dade4b6ac1879c0383980302207d9db4f3ae3f0bea03e86cc0e2bbccbbd02a823b26622bc367fbf6758ae9d6760121025597ff5dec319f3510c30297cc859cfda2f2b881fd5b2a7a78c0bf2733606cddffffffff02ac682700000000001976a914f9e73c79670eb4f37591547654d3d52c52eb0f7088acfd30d700000000001976a91451bbe137b881d3eb93a9e8e83ea075679aa880d988ac00000000"
    }, 
    {
      "txid": "a02944a75387f7a1d7185020eaecec21b2ea437d3c30e808c5e449d42e91ad64",
      "hash": "a02944a75387f7a1d7185020eaecec21b2ea437d3c30e808c5e449d42e91ad64",
      "version": 1,
      "size": 520,
      "vsize": 520,
      "locktime": 1359661,
      "vin": [
        {
          "txid": "6b3f9e8e9648d307e9b90d69ac24ee0af6851ead385999d37627da017efbb509",
          "vout": 0,
          "scriptSig": {
            "asm": "304402203150a1f11ca3bf2fde814fb2eceb778cddb8f9eff8263a5319f89139d68b32f0022006209ea7bf29f9c3be2d791c91bc11a3100426976e1246bffc10f19f1048afa2[ALL] 020e120429755ec38c427f9375d6277d3bd6e7754f375f5a99bbd7b438828fcff8",
            "hex": "47304402203150a1f11ca3bf2fde814fb2eceb778cddb8f9eff8263a5319f89139d68b32f0022006209ea7bf29f9c3be2d791c91bc11a3100426976e1246bffc10f19f1048afa20121020e120429755ec38c427f9375d6277d3bd6e7754f375f5a99bbd7b438828fcff8"
          },
          "sequence": 4294967294
        }, 
        {
          "txid": "ec5538ac92f0886b5f900e1d5eef9fddde9f47aec07ebbfbebc48fb79be3777e",
          "vout": 4,
          "scriptSig": {
            "asm": "3045022100e9ad1c540fecbf3edf8767278ae39afd451745909291824d8ae2b3aaa42e94e902203ce07eb52fb598c1c39b79221d325718e7cf3778eda99203ee5a1200d687a3c2[ALL] 02ce3eafaf8690a725bd76c319d85fd6b3866ad2b89d6d85b8936bb7e175788e22",
            "hex": "483045022100e9ad1c540fecbf3edf8767278ae39afd451745909291824d8ae2b3aaa42e94e902203ce07eb52fb598c1c39b79221d325718e7cf3778eda99203ee5a1200d687a3c2012102ce3eafaf8690a725bd76c319d85fd6b3866ad2b89d6d85b8936bb7e175788e22"
          },
          "sequence": 4294967294
        }, 
        {
          "txid": "c01c56a30ecbf8956ce404f9eb8d3b3c606c378f6135fbcc02c3a06ca93fb158",
          "vout": 33,
          "scriptSig": {
            "asm": "304402204e0c160b9fa5c435d454bcee673f1e6a7aaf24f1386bd4fec8400df2916bd979022021c98a11769d8c8b58e0cdfe2c1bf7d73c6b5043a540b42aa200b99dc6699c5f[ALL] 03e8008c775c69020596cdff4814086f143a33532764275d8651c5cc6b2e7a8383",
            "hex": "47304402204e0c160b9fa5c435d454bcee673f1e6a7aaf24f1386bd4fec8400df2916bd979022021c98a11769d8c8b58e0cdfe2c1bf7d73c6b5043a540b42aa200b99dc6699c5f012103e8008c775c69020596cdff4814086f143a33532764275d8651c5cc6b2e7a8383"
          },
          "sequence": 4294967294
        }
      ],
      "vout": [
        {
          "value": 0.01000002,
          "n": 0,
          "scriptPubKey": {
            "asm": "OP_DUP OP_HASH160 216e8855bbd18b985adf79497622c290f7523e72 OP_EQUALVERIFY OP_CHECKSIG",
            "hex": "76a914216e8855bbd18b985adf79497622c290f7523e7288ac",
            "reqSigs": 1,
            "type": "pubkeyhash",
            "addresses": [
              "LNGiyUoe9hy6RVt4j7G8Z7uqpY4vC93rTy"
            ]
          }
        }, 
        {
          "value": 9.91134421,
          "n": 1,
          "scriptPubKey": {
            "asm": "OP_DUP OP_HASH160 29b5c0fead2852852dbbe5b658c21b87072cb762 OP_EQUALVERIFY OP_CHECKSIG",
            "hex": "76a91429b5c0fead2852852dbbe5b658c21b87072cb76288ac",
            "reqSigs": 1,
            "type": "pubkeyhash",
            "addresses": [
              "LP2VhZQG96LAnj4DMQEE1UZT9oaauctLmj"
            ]
          }
        }
      ],
      "hex": "010000000309b5fb7e01da2776d3995938ad1e85f60aee24ac690db9e907d348968e9e3f6b000000006a47304402203150a1f11ca3bf2fde814fb2eceb778cddb8f9eff8263a5319f89139d68b32f0022006209ea7bf29f9c3be2d791c91bc11a3100426976e1246bffc10f19f1048afa20121020e120429755ec38c427f9375d6277d3bd6e7754f375f5a99bbd7b438828fcff8feffffff7e77e39bb78fc4ebfbbb7ec0ae479fdedd9fef5e1d0e905f6b88f092ac3855ec040000006b483045022100e9ad1c540fecbf3edf8767278ae39afd451745909291824d8ae2b3aaa42e94e902203ce07eb52fb598c1c39b79221d325718e7cf3778eda99203ee5a1200d687a3c2012102ce3eafaf8690a725bd76c319d85fd6b3866ad2b89d6d85b8936bb7e175788e22feffffff58b13fa96ca0c302ccfb35618f376c603c3b8debf904e46c95f8cb0ea3561cc0210000006a47304402204e0c160b9fa5c435d454bcee673f1e6a7aaf24f1386bd4fec8400df2916bd979022021c98a11769d8c8b58e0cdfe2c1bf7d73c6b5043a540b42aa200b99dc6699c5f012103e8008c775c69020596cdff4814086f143a33532764275d8651c5cc6b2e7a8383feffffff0242420f00000000001976a914216e8855bbd18b985adf79497622c290f7523e7288acd582133b000000001976a91429b5c0fead2852852dbbe5b658c21b87072cb76288ac2dbf1400"
    }, 
    {
      "txid": "544593d96485b7f6ca8cba74012465f24cdece7f6c4c8646d04a4365c0afbf20",
      "hash": "544593d96485b7f6ca8cba74012465f24cdece7f6c4c8646d04a4365c0afbf20",
      "version": 2,
      "size": 225,
      "vsize": 225,
      "locktime": 1359661,
      "vin": [
        {
          "txid": "aa445728aebd2f2a3c4b3d409f4d683db8edde40e803bb59e3a2ed42c3793381",
          "vout": 0,
          "scriptSig": {
            "asm": "3044022077d60ee4e9822a4e4feb186255b01acb6ca55a868d5bab326c93e5c4739ff0f9022001892857042aaf7ce788f539c81a2b48b5c70db89ca5304ac5362784c6e29aff[ALL] 02e77eef713963a154c1b6f1f3272bfc4741d64b4d66e8eb3b46efb5f5ab03996b",
            "hex": "473044022077d60ee4e9822a4e4feb186255b01acb6ca55a868d5bab326c93e5c4739ff0f9022001892857042aaf7ce788f539c81a2b48b5c70db89ca5304ac5362784c6e29aff012102e77eef713963a154c1b6f1f3272bfc4741d64b4d66e8eb3b46efb5f5ab03996b"
          },
          "sequence": 4294967294
        }
      ],
      "vout": [
        {
          "value": 0.38570182,
          "n": 0,
          "scriptPubKey": {
            "asm": "OP_DUP OP_HASH160 bc220df1f931642da6fae3ab7381b4475499a981 OP_EQUALVERIFY OP_CHECKSIG",
            "hex": "76a914bc220df1f931642da6fae3ab7381b4475499a98188ac",
            "reqSigs": 1,
            "type": "pubkeyhash",
            "addresses": [
              "LcNi6RWfxqFR6FWQJGjDZuE9YBZLLur8zn"
            ]
          }
        }, 
        {
          "value": 0.00978267,
          "n": 1,
          "scriptPubKey": {
            "asm": "OP_DUP OP_HASH160 1ee60b09c74648e508639bb4179ba45780d5e3d8 OP_EQUALVERIFY OP_CHECKSIG",
            "hex": "76a9141ee60b09c74648e508639bb4179ba45780d5e3d888ac",
            "reqSigs": 1,
            "type": "pubkeyhash",
            "addresses": [
              "LN3L7eJairmBekPKA34GabwvffPxFXH3zt"
            ]
          }
        }
      ],
      "hex": "0200000001813379c342eda2e359bb03e840deedb83d684d9f403d4b3c2a2fbdae285744aa000000006a473044022077d60ee4e9822a4e4feb186255b01acb6ca55a868d5bab326c93e5c4739ff0f9022001892857042aaf7ce788f539c81a2b48b5c70db89ca5304ac5362784c6e29aff012102e77eef713963a154c1b6f1f3272bfc4741d64b4d66e8eb3b46efb5f5ab03996bfeffffff02c6884c02000000001976a914bc220df1f931642da6fae3ab7381b4475499a98188ac5bed0e00000000001976a9141ee60b09c74648e508639bb4179ba45780d5e3d888ac2dbf1400"
    }, 
    {
      "txid": "bb963efdbfdd8bb25765dd18465017deb6ebe310c95903c22020950803728bb5",
      "hash": "bb963efdbfdd8bb25765dd18465017deb6ebe310c95903c22020950803728bb5",
      "version": 1,
      "size": 225,
      "vsize": 225,
      "locktime": 0,
      "vin": [
        {
          "txid": "da8f0783479e42a43c3b5c4b81c554a28d50649942313d73662106cb51922101",
          "vout": 0,
          "scriptSig": {
            "asm": "3044022072a2af56aa298d6caba0f0fb2d35559001699dd6e2a3611971401f5cf8d0a58f022075ac6aa4f177211b41e3a0d75b31e4024dc3dae817b6e989ce6597a1168bba69[ALL] 03ea4b4a7295bc9dd3d9eeb29bb0d118c5891f89bac1f0a91346281cdead2c0904",
            "hex": "473044022072a2af56aa298d6caba0f0fb2d35559001699dd6e2a3611971401f5cf8d0a58f022075ac6aa4f177211b41e3a0d75b31e4024dc3dae817b6e989ce6597a1168bba69012103ea4b4a7295bc9dd3d9eeb29bb0d118c5891f89bac1f0a91346281cdead2c0904"
          },
          "sequence": 4294967295
        }
      ],
      "vout": [
        {
          "value": 0.00054990,
          "n": 0,
          "scriptPubKey": {
            "asm": "OP_DUP OP_HASH160 7c99cf5021a0d5970db69d436cffe4a9706134b7 OP_EQUALVERIFY OP_CHECKSIG",
            "hex": "76a9147c99cf5021a0d5970db69d436cffe4a9706134b788ac",
            "reqSigs": 1,
            "type": "pubkeyhash",
            "addresses": [
              "LWanJtmc5jMLAQQ1jXfzBCcr1YkQtG35tp"
            ]
          }
        }, 
        {
          "value": 0.01597000,
          "n": 1,
          "scriptPubKey": {
            "asm": "OP_DUP OP_HASH160 8a074185f06abdf7d188f24a364346bdac214229 OP_EQUALVERIFY OP_CHECKSIG",
            "hex": "76a9148a074185f06abdf7d188f24a364346bdac21422988ac",
            "reqSigs": 1,
            "type": "pubkeyhash",
            "addresses": [
              "LXonCqYoJ78vKGTu8WBydwjWsBWtV6D9cm"
            ]
          }
        }
      ],
      "hex": "010000000101219251cb062166733d31429964508da254c5814b5c3b3ca4429e4783078fda000000006a473044022072a2af56aa298d6caba0f0fb2d35559001699dd6e2a3611971401f5cf8d0a58f022075ac6aa4f177211b41e3a0d75b31e4024dc3dae817b6e989ce6597a1168bba69012103ea4b4a7295bc9dd3d9eeb29bb0d118c5891f89bac1f0a91346281cdead2c0904ffffffff02ced60000000000001976a9147c99cf5021a0d5970db69d436cffe4a9706134b788ac485e1800000000001976a9148a074185f06abdf7d188f24a364346bdac21422988ac00000000"
    }, 
    {
      "txid": "6fead99e4d922ac1570e0a21ccb687c7c123707762701652234db3a2529c9add",
      "hash": "6fead99e4d922ac1570e0a21ccb687c7c123707762701652234db3a2529c9add",
      "version": 2,
      "size": 225,
      "vsize": 225,
      "locktime": 1359621,
      "vin": [
        {
          "txid": "d1987d1d9e548ea4db01971178d3c666e2ff8de4fa865ecc040a0d074c12fc75",
          "vout": 0,
          "scriptSig": {
            "asm": "3044022019a9a2494e1bbec419309f231b20d6a27554aeaccf942794ddecd21598ddb1d1022021ef8bc3da26d098a6ebd17657e5e2cfb0abea89324ca01e1771bec4c75fd2cb[ALL] 03418566e0f2ed9db68e6445961623c506ec098429368cf6c4df41bf047b6dec0e",
            "hex": "473044022019a9a2494e1bbec419309f231b20d6a27554aeaccf942794ddecd21598ddb1d1022021ef8bc3da26d098a6ebd17657e5e2cfb0abea89324ca01e1771bec4c75fd2cb012103418566e0f2ed9db68e6445961623c506ec098429368cf6c4df41bf047b6dec0e"
          },
          "sequence": 4294967294
        }
      ],
      "vout": [
        {
          "value": 490.98526763,
          "n": 0,
          "scriptPubKey": {
            "asm": "OP_DUP OP_HASH160 69106c4b23226cf8b30d393cc9683f982476e276 OP_EQUALVERIFY OP_CHECKSIG",
            "hex": "76a91469106c4b23226cf8b30d393cc9683f982476e27688ac",
            "reqSigs": 1,
            "type": "pubkeyhash",
            "addresses": [
              "LUoUtSs79tALqFhyWaWUU1Cy6bcnTPHdPb"
            ]
          }
        }, 
        {
          "value": 2.26100000,
          "n": 1,
          "scriptPubKey": {
            "asm": "OP_DUP OP_HASH160 b3ce68baeaf37707fb8e5aced7367b5289433189 OP_EQUALVERIFY OP_CHECKSIG",
            "hex": "76a914b3ce68baeaf37707fb8e5aced7367b528943318988ac",
            "reqSigs": 1,
            "type": "pubkeyhash",
            "addresses": [
              "LbcgV78WwSNQrLKToM4r1XhFRowx9kbAnG"
            ]
          }
        }
      ],
      "hex": "020000000175fc124c070d0a04cc5e86fae48dffe266c6d378119701dba48e549e1d7d98d1000000006a473044022019a9a2494e1bbec419309f231b20d6a27554aeaccf942794ddecd21598ddb1d1022021ef8bc3da26d098a6ebd17657e5e2cfb0abea89324ca01e1771bec4c75fd2cb012103418566e0f2ed9db68e6445961623c506ec098429368cf6c4df41bf047b6dec0efeffffff022b10806e0b0000001976a91469106c4b23226cf8b30d393cc9683f982476e27688ac20037a0d000000001976a914b3ce68baeaf37707fb8e5aced7367b528943318988ac05bf1400"
    }, 
    {
      "txid": "ac377797c4286a5c13133bd1c1dd48bf2bc1eaab4c00eee827645a709315a92e",
      "hash": "ac377797c4286a5c13133bd1c1dd48bf2bc1eaab4c00eee827645a709315a92e",
      "version": 1,
      "size": 226,
      "vsize": 226,
      "locktime": 0,
      "vin": [
        {
          "txid": "6a7c2e3cb2409a464a23f6c67eca665106dffa4078b5282b5f8d4aba20e6f633",
          "vout": 0,
          "scriptSig": {
            "asm": "3045022100b4b929e28e4c962227ab8fd2402f576d54d2229eb4c2e17dd52a71db67d9b04f02202641a545b5fadc784ca9c389e3fc91401a2891822d102e0cd74548b14407462b[ALL] 0337f5be4a8a026ed245f5f19cd6117a33688952b5fe411cb46cc6a9e9f120b9c9",
            "hex": "483045022100b4b929e28e4c962227ab8fd2402f576d54d2229eb4c2e17dd52a71db67d9b04f02202641a545b5fadc784ca9c389e3fc91401a2891822d102e0cd74548b14407462b01210337f5be4a8a026ed245f5f19cd6117a33688952b5fe411cb46cc6a9e9f120b9c9"
          },
          "sequence": 4294967295
        }
      ],
      "vout": [
        {
          "value": 98.33934591,
          "n": 0,
          "scriptPubKey": {
            "asm": "OP_DUP OP_HASH160 ae79997a91e92d022a4e0e8f357c526e5e00ad60 OP_EQUALVERIFY OP_CHECKSIG",
            "hex": "76a914ae79997a91e92d022a4e0e8f357c526e5e00ad6088ac",
            "reqSigs": 1,
            "type": "pubkeyhash",
            "addresses": [
              "Lb8VWUVEi8gVQrJdHfWcJtpnPvZspxLRCv"
            ]
          }
        }, 
        {
          "value": 0.84285916,
          "n": 1,
          "scriptPubKey": {
            "asm": "OP_DUP OP_HASH160 6d077459af32f2ed2c3f03d89e99e6db6cd745b2 OP_EQUALVERIFY OP_CHECKSIG",
            "hex": "76a9146d077459af32f2ed2c3f03d89e99e6db6cd745b288ac",
            "reqSigs": 1,
            "type": "pubkeyhash",
            "addresses": [
              "LVASr517Yt9VryMMxnfwy7NKTo5ToK4oP6"
            ]
          }
        }
      ],
      "hex": "010000000133f6e620ba4a8d5f2b28b57840fadf065166ca7ec6f6234a469a40b23c2e7c6a000000006b483045022100b4b929e28e4c962227ab8fd2402f576d54d2229eb4c2e17dd52a71db67d9b04f02202641a545b5fadc784ca9c389e3fc91401a2891822d102e0cd74548b14407462b01210337f5be4a8a026ed245f5f19cd6117a33688952b5fe411cb46cc6a9e9f120b9c9ffffffff02ffee254a020000001976a914ae79997a91e92d022a4e0e8f357c526e5e00ad6088acdc190605000000001976a9146d077459af32f2ed2c3f03d89e99e6db6cd745b288ac00000000"
    }, 
    {
      "txid": "f2960eaa9038bc719277f2fad58826e5f6474527e5d064a85315ab4fda653b75",
      "hash": "f2960eaa9038bc719277f2fad58826e5f6474527e5d064a85315ab4fda653b75",
      "version": 2,
      "size": 226,
      "vsize": 226,
      "locktime": 1359661,
      "vin": [
        {
          "txid": "c8d48754b389801fd48fdc3e8ff136621cf602a09084aac43d48dc53d5418077",
          "vout": 357,
          "scriptSig": {
            "asm": "3045022100ea4ccdd17934676d835dba2b4b2180961b4b4694273a5a387d0f883d2ec7989602202aff14059662e22d5392f74dd40f195a703d487de2366e885f7bf23e000a52f8[ALL] 03bdc5ce4bca6afabf34629fe606bdd67380190bb35efd41762a0a1a99b78e8e6b",
            "hex": "483045022100ea4ccdd17934676d835dba2b4b2180961b4b4694273a5a387d0f883d2ec7989602202aff14059662e22d5392f74dd40f195a703d487de2366e885f7bf23e000a52f8012103bdc5ce4bca6afabf34629fe606bdd67380190bb35efd41762a0a1a99b78e8e6b"
          },
          "sequence": 4294967294
        }
      ],
      "vout": [
        {
          "value": 0.00978491,
          "n": 0,
          "scriptPubKey": {
            "asm": "OP_DUP OP_HASH160 4b2a37a73bc46d557788200ddc0d885bb94b016f OP_EQUALVERIFY OP_CHECKSIG",
            "hex": "76a9144b2a37a73bc46d557788200ddc0d885bb94b016f88ac",
            "reqSigs": 1,
            "type": "pubkeyhash",
            "addresses": [
              "LS5PWv6tbe2KgTEd3QkibxYUgvkR1J3FG4"
            ]
          }
        }, 
        {
          "value": 0.02449344,
          "n": 1,
          "scriptPubKey": {
            "asm": "OP_DUP OP_HASH160 23d314bd1ea4bc9ebeb2df76e20afc3dab021435 OP_EQUALVERIFY OP_CHECKSIG",
            "hex": "76a91423d314bd1ea4bc9ebeb2df76e20afc3dab02143588ac",
            "reqSigs": 1,
            "type": "pubkeyhash",
            "addresses": [
              "LNVNn6LVmYd2Pg5yaBhr99W3tFqaLWpYQt"
            ]
          }
        }
      ],
      "hex": "0200000001778041d553dc483dc4aa8490a002f61c6236f18f3edc8fd41f8089b35487d4c8650100006b483045022100ea4ccdd17934676d835dba2b4b2180961b4b4694273a5a387d0f883d2ec7989602202aff14059662e22d5392f74dd40f195a703d487de2366e885f7bf23e000a52f8012103bdc5ce4bca6afabf34629fe606bdd67380190bb35efd41762a0a1a99b78e8e6bfeffffff023bee0e00000000001976a9144b2a37a73bc46d557788200ddc0d885bb94b016f88acc05f2500000000001976a91423d314bd1ea4bc9ebeb2df76e20afc3dab02143588ac2dbf1400"
    }, 
    {
      "txid": "f21b35521087bf009501d3f8a621196949994cf9da579556520987df62564891",
      "hash": "f21b35521087bf009501d3f8a621196949994cf9da579556520987df62564891",
      "version": 1,
      "size": 226,
      "vsize": 226,
      "locktime": 0,
      "vin": [
        {
          "txid": "d8bc1618c648f37624d9f2b6691497c5de256c7510b6da414ff7911acb01c368",
          "vout": 0,
          "scriptSig": {
            "asm": "3045022100f9a51b586f92f9bd31a0dcb3af6021c3a0712864a917e49f6b4b1c5f51169cb802205d91f3feb937b401d769727fcf92a2878c187c781522b209ca2b7838bc92c554[ALL] 02dcd89a75b431b2a8f544339711168708d04bedb1f43887fd486578f822867cf2",
            "hex": "483045022100f9a51b586f92f9bd31a0dcb3af6021c3a0712864a917e49f6b4b1c5f51169cb802205d91f3feb937b401d769727fcf92a2878c187c781522b209ca2b7838bc92c554012102dcd89a75b431b2a8f544339711168708d04bedb1f43887fd486578f822867cf2"
          },
          "sequence": 4294967295
        }
      ],
      "vout": [
        {
          "value": 95.08958939,
          "n": 0,
          "scriptPubKey": {
            "asm": "OP_DUP OP_HASH160 1bc2e5db525cd93b8dec1d65576d01db9c0e3c3c OP_EQUALVERIFY OP_CHECKSIG",
            "hex": "76a9141bc2e5db525cd93b8dec1d65576d01db9c0e3c3c88ac",
            "reqSigs": 1,
            "type": "pubkeyhash",
            "addresses": [
              "LMkjz8kLaaVyMRZhdCbxwYNqvCQLVcMz6p"
            ]
          }
        }, 
        {
          "value": 4.09403363,
          "n": 1,
          "scriptPubKey": {
            "asm": "OP_DUP OP_HASH160 7de3e364cb421c923b46136f9fc45a6fd962f49d OP_EQUALVERIFY OP_CHECKSIG",
            "hex": "76a9147de3e364cb421c923b46136f9fc45a6fd962f49d88ac",
            "reqSigs": 1,
            "type": "pubkeyhash",
            "addresses": [
              "LWhbj9Pex4om3zCXFyc2CoZ9vovmf2b3Zq"
            ]
          }
        }
      ],
      "hex": "010000000168c301cb1a91f74f41dab610756c25dec5971469b6f2d92476f348c61816bcd8000000006b483045022100f9a51b586f92f9bd31a0dcb3af6021c3a0712864a917e49f6b4b1c5f51169cb802205d91f3feb937b401d769727fcf92a2878c187c781522b209ca2b7838bc92c554012102dcd89a75b431b2a8f544339711168708d04bedb1f43887fd486578f822867cf2ffffffff02db32c736020000001976a9141bc2e5db525cd93b8dec1d65576d01db9c0e3c3c88ace3ff6618000000001976a9147de3e364cb421c923b46136f9fc45a6fd962f49d88ac00000000"
    }, 
    {
      "txid": "c2bf497180b6a7b8c30668051068c0079bbe5d82bbddaca697f6b0b8b1331040",
      "hash": "c2bf497180b6a7b8c30668051068c0079bbe5d82bbddaca697f6b0b8b1331040",
      "version": 1,
      "size": 1078,
      "vsize": 1078,
      "locktime": 0,
      "vin": [
        {
          "txid": "a131179ed16d43cb19c0096fa750d68b6a511d4e6d9271894604ca171c7a8c50",
          "vout": 1,
          "scriptSig": {
            "asm": "3045022100a94918dd0a2704fb6b0b9482e27afa5d9c254183583399587f66f74779a9274a0220194a4b384dc3418543b60c5be42ed49bffe58ccf2f4200345b8c18a70712ee92[ALL] 036f044d14e300af54cb46448e3c1586d0324bdb0e5ba88bbb2b445b6d214daf46",
            "hex": "483045022100a94918dd0a2704fb6b0b9482e27afa5d9c254183583399587f66f74779a9274a0220194a4b384dc3418543b60c5be42ed49bffe58ccf2f4200345b8c18a70712ee920121036f044d14e300af54cb46448e3c1586d0324bdb0e5ba88bbb2b445b6d214daf46"
          },
          "sequence": 4294967295
        }, 
        {
          "txid": "bb3a7a67cf52eea58b2080cf81d4b1029a0df47e86dde8f3c6c97baa2bba0ed6",
          "vout": 0,
          "scriptSig": {
            "asm": "3045022100e1d68b8cffdac53e6d6eeffd374bbd05356ceeaa27623fde7507bbac5d708a9b02207b9b86c997fa546c21e68d2e1f7ec5d731e0c07a64c9a1974cbe62e5894a24a2[ALL] 02e4972dc7ff65ec67f8d5e7e3d0fc5ba1ee015c3aaa7627b43c490eb86b9ccbf6",
            "hex": "483045022100e1d68b8cffdac53e6d6eeffd374bbd05356ceeaa27623fde7507bbac5d708a9b02207b9b86c997fa546c21e68d2e1f7ec5d731e0c07a64c9a1974cbe62e5894a24a2012102e4972dc7ff65ec67f8d5e7e3d0fc5ba1ee015c3aaa7627b43c490eb86b9ccbf6"
          },
          "sequence": 4294967295
        }, 
        {
          "txid": "05bfcdc25da01bc3811dfae04530e8dee1780f4e3b13f1fd0fdfa552a11609c7",
          "vout": 0,
          "scriptSig": {
            "asm": "3045022100cdd1beaafb27192b598306f0b529dc90e05001569c9209fc027bdf57f9e6f98602200594e938bb9003abd2c82d5b82d841f34a0944ce111bfd7db49b6541b7a87b9b[ALL] 0384bace2b6b5b9c444b75de0b63b34e0fbe411bc4b582eecbda8ab30f640d30f5",
            "hex": "483045022100cdd1beaafb27192b598306f0b529dc90e05001569c9209fc027bdf57f9e6f98602200594e938bb9003abd2c82d5b82d841f34a0944ce111bfd7db49b6541b7a87b9b01210384bace2b6b5b9c444b75de0b63b34e0fbe411bc4b582eecbda8ab30f640d30f5"
          },
          "sequence": 4294967295
        }, 
        {
          "txid": "a0b8ab3ce3140b9f8fb4f6dda0140c91f217cb46d1fd6a90fba281dd60581a6e",
          "vout": 0,
          "scriptSig": {
            "asm": "304402202f1d469cae393cd6db64c073794c389530d4b7294c7f8e5338e64b23a80a767d02202328c81eb77a72b7bd4b1ece0c9bdb96f0db3e79205cd4eccbb7ad3259947778[ALL] 032a6d3ecfcde122210373fe4a5242cb86117cd17128a2d80de21e700003b44c2f",
            "hex": "47304402202f1d469cae393cd6db64c073794c389530d4b7294c7f8e5338e64b23a80a767d02202328c81eb77a72b7bd4b1ece0c9bdb96f0db3e79205cd4eccbb7ad32599477780121032a6d3ecfcde122210373fe4a5242cb86117cd17128a2d80de21e700003b44c2f"
          },
          "sequence": 4294967295
        }, 
        {
          "txid": "847e831dbc9c0673f9bb1354378b597f2f33770062d50f7eeee9066a5e78676a",
          "vout": 0,
          "scriptSig": {
            "asm": "3044022044f42c3edc15b2c2c3aa9dd13eda9d6ac252b3f78f5eb6403ee6cff3226b74c5022077b3b0c39d3b0f7e77d22d0f1baba1f807abcdb7209ae4bd66bb2f797b829874[ALL] 03ce80e0bf26c1a4df40353a4180690d05d94a327a40a0b2ef85e9fbaa6514ccd0",
            "hex": "473044022044f42c3edc15b2c2c3aa9dd13eda9d6ac252b3f78f5eb6403ee6cff3226b74c5022077b3b0c39d3b0f7e77d22d0f1baba1f807abcdb7209ae4bd66bb2f797b829874012103ce80e0bf26c1a4df40353a4180690d05d94a327a40a0b2ef85e9fbaa6514ccd0"
          },
          "sequence": 4294967295
        }, 
        {
          "txid": "5348afdea9e7d0ee0e887c100a2bdee94e5e445fa7ad6f1f594f3d5b60fefbe6",
          "vout": 0,
          "scriptSig": {
            "asm": "30450221009012b13bf080a1ab1a3b2bd38dbd8102dbcf3a1bf981d0a129e3f65a84a23ee902204c25b773afa2d02483cfb266545832a04ab83ef0b9f4ba4a91aad7d53a6b4233[ALL] 024f5ff249ad75b38d68236ea7c06ab87fc2b33fd1eeb3ec876a24a449572412cf",
            "hex": "4830450221009012b13bf080a1ab1a3b2bd38dbd8102dbcf3a1bf981d0a129e3f65a84a23ee902204c25b773afa2d02483cfb266545832a04ab83ef0b9f4ba4a91aad7d53a6b42330121024f5ff249ad75b38d68236ea7c06ab87fc2b33fd1eeb3ec876a24a449572412cf"
          },
          "sequence": 4294967295
        }, 
        {
          "txid": "4a363265fd6e52c1152e9e7c07c081f018a4d7d708ec35e3bdcdc51788666ca6",
          "vout": 1,
          "scriptSig": {
            "asm": "3045022100fcc4cf32002516ce35751d551df9b9c650935fac5191c88ee83125ba6843d97a022045d43910ddf3df522ea25f269ed5c147c1b6fc6e92b4b0ca8eecbdf3a171e134[ALL] 0210ac6c00cb88bd5834e20af01d686adb5bb81e39030e9851295d9983fbfbd106",
            "hex": "483045022100fcc4cf32002516ce35751d551df9b9c650935fac5191c88ee83125ba6843d97a022045d43910ddf3df522ea25f269ed5c147c1b6fc6e92b4b0ca8eecbdf3a171e13401210210ac6c00cb88bd5834e20af01d686adb5bb81e39030e9851295d9983fbfbd106"
          },
          "sequence": 4294967295
        }
      ],
      "vout": [
        {
          "value": 29.72013871,
          "n": 0,
          "scriptPubKey": {
            "asm": "OP_DUP OP_HASH160 6c2614c7b45ef8dfa8dc83e6739ddbe201d05ab0 OP_EQUALVERIFY OP_CHECKSIG",
            "hex": "76a9146c2614c7b45ef8dfa8dc83e6739ddbe201d05ab088ac",
            "reqSigs": 1,
            "type": "pubkeyhash",
            "addresses": [
              "LV5nrreyVZJVvptA9PZSD4ViegKh7Qa8MA"
            ]
          }
        }
      ],
      "hex": "0100000007508c7a1c17ca04468971926d4e1d516a8bd650a76f09c019cb436dd19e1731a1010000006b483045022100a94918dd0a2704fb6b0b9482e27afa5d9c254183583399587f66f74779a9274a0220194a4b384dc3418543b60c5be42ed49bffe58ccf2f4200345b8c18a70712ee920121036f044d14e300af54cb46448e3c1586d0324bdb0e5ba88bbb2b445b6d214daf46ffffffffd60eba2baa7bc9c6f3e8dd867ef40d9a02b1d481cf80208ba5ee52cf677a3abb000000006b483045022100e1d68b8cffdac53e6d6eeffd374bbd05356ceeaa27623fde7507bbac5d708a9b02207b9b86c997fa546c21e68d2e1f7ec5d731e0c07a64c9a1974cbe62e5894a24a2012102e4972dc7ff65ec67f8d5e7e3d0fc5ba1ee015c3aaa7627b43c490eb86b9ccbf6ffffffffc70916a152a5df0ffdf1133b4e0f78e1dee83045e0fa1d81c31ba05dc2cdbf05000000006b483045022100cdd1beaafb27192b598306f0b529dc90e05001569c9209fc027bdf57f9e6f98602200594e938bb9003abd2c82d5b82d841f34a0944ce111bfd7db49b6541b7a87b9b01210384bace2b6b5b9c444b75de0b63b34e0fbe411bc4b582eecbda8ab30f640d30f5ffffffff6e1a5860dd81a2fb906afdd146cb17f2910c14a0ddf6b48f9f0b14e33cabb8a0000000006a47304402202f1d469cae393cd6db64c073794c389530d4b7294c7f8e5338e64b23a80a767d02202328c81eb77a72b7bd4b1ece0c9bdb96f0db3e79205cd4eccbb7ad32599477780121032a6d3ecfcde122210373fe4a5242cb86117cd17128a2d80de21e700003b44c2fffffffff6a67785e6a06e9ee7e0fd5620077332f7f598b375413bbf973069cbc1d837e84000000006a473044022044f42c3edc15b2c2c3aa9dd13eda9d6ac252b3f78f5eb6403ee6cff3226b74c5022077b3b0c39d3b0f7e77d22d0f1baba1f807abcdb7209ae4bd66bb2f797b829874012103ce80e0bf26c1a4df40353a4180690d05d94a327a40a0b2ef85e9fbaa6514ccd0ffffffffe6fbfe605b3d4f591f6fada75f445e4ee9de2b0a107c880eeed0e7a9deaf4853000000006b4830450221009012b13bf080a1ab1a3b2bd38dbd8102dbcf3a1bf981d0a129e3f65a84a23ee902204c25b773afa2d02483cfb266545832a04ab83ef0b9f4ba4a91aad7d53a6b42330121024f5ff249ad75b38d68236ea7c06ab87fc2b33fd1eeb3ec876a24a449572412cfffffffffa66c668817c5cdbde335ec08d7d7a418f081c0077c9e2e15c1526efd6532364a010000006b483045022100fcc4cf32002516ce35751d551df9b9c650935fac5191c88ee83125ba6843d97a022045d43910ddf3df522ea25f269ed5c147c1b6fc6e92b4b0ca8eecbdf3a171e13401210210ac6c00cb88bd5834e20af01d686adb5bb81e39030e9851295d9983fbfbd106ffffffff012f5525b1000000001976a9146c2614c7b45ef8dfa8dc83e6739ddbe201d05ab088ac00000000"
    }, 
    {
      "txid": "882ec93769bdeecd0e245c23de3d35016cae777588cf524e38af176d4dfc4bba",
      "hash": "882ec93769bdeecd0e245c23de3d35016cae777588cf524e38af176d4dfc4bba",
      "version": 1,
      "size": 340,
      "vsize": 340,
      "locktime": 0,
      "vin": [
        {
          "txid": "593584a2a4691d458c8d0070675368560df9b9186104800c4ca75c24c9a58d75",
          "vout": 0,
          "scriptSig": {
            "asm": "3045022100d7a088db5c615fe5816e93d8faebe76713c8652e1e4eaa214aa99daa5c756a1d0220622884b617408e362f671a9687d4df6bba9e3db1e1b1039ad362c97389d8b761[ALL] 02f1dcbd27839293906e6ece1f6c882d339b6c3ee98b838a91ca8878492b67292b",
            "hex": "483045022100d7a088db5c615fe5816e93d8faebe76713c8652e1e4eaa214aa99daa5c756a1d0220622884b617408e362f671a9687d4df6bba9e3db1e1b1039ad362c97389d8b761012102f1dcbd27839293906e6ece1f6c882d339b6c3ee98b838a91ca8878492b67292b"
          },
          "sequence": 4294967295
        }, 
        {
          "txid": "2003b34dee373aa550cd775c9712063b9b66d403c2cd32ce496467abbe243d1a",
          "vout": 0,
          "scriptSig": {
            "asm": "3045022100cbc9351dbd1e03927f007cdf36e532331440428dc2bb8054489b9557769cf6010220225d0d9e582a77bd6eeb624595e15107252e1a7dd7ddd6cabbc37cc1ab92ad42[ALL] 023a9d841957523a325643b4ca671db141698c2bf61cedfd86fd4f305f355a6699",
            "hex": "483045022100cbc9351dbd1e03927f007cdf36e532331440428dc2bb8054489b9557769cf6010220225d0d9e582a77bd6eeb624595e15107252e1a7dd7ddd6cabbc37cc1ab92ad420121023a9d841957523a325643b4ca671db141698c2bf61cedfd86fd4f305f355a6699"
          },
          "sequence": 4294967295
        }
      ],
      "vout": [
        {
          "value": 0.52280000,
          "n": 0,
          "scriptPubKey": {
            "asm": "OP_DUP OP_HASH160 5292dcd6c2d9e85dc4adcc0af169d0d26c9bf174 OP_EQUALVERIFY OP_CHECKSIG",
            "hex": "76a9145292dcd6c2d9e85dc4adcc0af169d0d26c9bf17488ac",
            "reqSigs": 1,
            "type": "pubkeyhash",
            "addresses": [
              "LSkZc923tAMZGT8qjpGt3r2Xyx7RXYCAus"
            ]
          }
        }
      ],
      "hex": "0100000002758da5c9245ca74c0c80046118b9f90d5668536770008d8c451d69a4a2843559000000006b483045022100d7a088db5c615fe5816e93d8faebe76713c8652e1e4eaa214aa99daa5c756a1d0220622884b617408e362f671a9687d4df6bba9e3db1e1b1039ad362c97389d8b761012102f1dcbd27839293906e6ece1f6c882d339b6c3ee98b838a91ca8878492b67292bffffffff1a3d24beab676449ce32cdc203d4669b3b0612975c77cd50a53a37ee4db30320000000006b483045022100cbc9351dbd1e03927f007cdf36e532331440428dc2bb8054489b9557769cf6010220225d0d9e582a77bd6eeb624595e15107252e1a7dd7ddd6cabbc37cc1ab92ad420121023a9d841957523a325643b4ca671db141698c2bf61cedfd86fd4f305f355a6699ffffffff01c0ba1d03000000001976a9145292dcd6c2d9e85dc4adcc0af169d0d26c9bf17488ac00000000"
    }, 
    {
      "txid": "af9b4c3f04e0cd1a9324322f1285953cf06b32b2d961ae81fb2e5212a130b516",
      "hash": "af9b4c3f04e0cd1a9324322f1285953cf06b32b2d961ae81fb2e5212a130b516",
      "version": 1,
      "size": 632,
      "vsize": 632,
      "locktime": 0,
      "vin": [
        {
          "txid": "d6dba515419b626ec82f534249f9ac7640921e229d68fe586cebcfbee01d84c2",
          "vout": 0,
          "scriptSig": {
            "asm": "304402202542b86fd386e0e2c37172d5483ea6879c889f3b0d5507e05e2214a01c94a22d02205a5f3ce4e461327509bc43c712b49a43a6a12c8a0a60f229351f09a6ec34db68[ALL] 03ede30e741d63e7980d16442c69e4dec33ec04e32768a073f4acf3702221de880",
            "hex": "47304402202542b86fd386e0e2c37172d5483ea6879c889f3b0d5507e05e2214a01c94a22d02205a5f3ce4e461327509bc43c712b49a43a6a12c8a0a60f229351f09a6ec34db68012103ede30e741d63e7980d16442c69e4dec33ec04e32768a073f4acf3702221de880"
          },
          "sequence": 4294967295
        }, 
        {
          "txid": "0163c4d795d4875039a26d400163cca45a74ab7cbb2b7374a634816353389a9f",
          "vout": 0,
          "scriptSig": {
            "asm": "304402200610091b98d1c18c3b3d9eab290e5306046c74a382bada841c969e12f141987f02203bd19010a691b715bfb787602c9778ac949eb59d9456986298e55f5469dae091[ALL] 02dd199d80474b87e663b475ac5ff3406bfe30c22e45eea0fcfadb6c99042d781b",
            "hex": "47304402200610091b98d1c18c3b3d9eab290e5306046c74a382bada841c969e12f141987f02203bd19010a691b715bfb787602c9778ac949eb59d9456986298e55f5469dae091012102dd199d80474b87e663b475ac5ff3406bfe30c22e45eea0fcfadb6c99042d781b"
          },
          "sequence": 4294967295
        }, 
        {
          "txid": "358e19fdd7b2a0d8aff470a4992b6604ddeb986852f60c799986df42c11c4b91",
          "vout": 23,
          "scriptSig": {
            "asm": "3044022072f88fc9f027feb6baabcb680c79646591d4f440c1b843d2778907215ff7e154022001456bcb0fa50c3e99a6cff1f141cf9ab0e470662e2e79a7eddf8054e34162ff[ALL] 03b1fb37f9af9ed4a565ab4243d40e85822bdd255b670f73b6a67fa5ce456ad81d",
            "hex": "473044022072f88fc9f027feb6baabcb680c79646591d4f440c1b843d2778907215ff7e154022001456bcb0fa50c3e99a6cff1f141cf9ab0e470662e2e79a7eddf8054e34162ff012103b1fb37f9af9ed4a565ab4243d40e85822bdd255b670f73b6a67fa5ce456ad81d"
          },
          "sequence": 4294967295
        }, 
        {
          "txid": "20be70c82d9b1465ebd7ea13c69cc8f7d7f7974e49aec727da03d2c1fc450ef9",
          "vout": 6,
          "scriptSig": {
            "asm": "304402203bd62763da3346c106608390d494bd88a3da66ba3dbfcb6398cf16c2c9c96b3c022072afa1d998a4984cc2d1c32e6dc41601b70d6d6baa3f5ea31f7ba77cc494542b[ALL] 03e129a14221b61b506a4c2fc7e33f5ff7c8aef45fce987d2b3a94794ab4fd4433",
            "hex": "47304402203bd62763da3346c106608390d494bd88a3da66ba3dbfcb6398cf16c2c9c96b3c022072afa1d998a4984cc2d1c32e6dc41601b70d6d6baa3f5ea31f7ba77cc494542b012103e129a14221b61b506a4c2fc7e33f5ff7c8aef45fce987d2b3a94794ab4fd4433"
          },
          "sequence": 4294967295
        }
      ],
      "vout": [
        {
          "value": 7.72955314,
          "n": 0,
          "scriptPubKey": {
            "asm": "OP_DUP OP_HASH160 d03135f2f46776b93126830da160846edbe57fae OP_EQUALVERIFY OP_CHECKSIG",
            "hex": "76a914d03135f2f46776b93126830da160846edbe57fae88ac",
            "reqSigs": 1,
            "type": "pubkeyhash",
            "addresses": [
              "LeCmmLRrReLX5xmocu6XDsVx9arQJ8iqgw"
            ]
          }
        }
      ],
      "hex": "0100000004c2841de0becfeb6c58fe689d221e924076acf94942532fc86e629b4115a5dbd6000000006a47304402202542b86fd386e0e2c37172d5483ea6879c889f3b0d5507e05e2214a01c94a22d02205a5f3ce4e461327509bc43c712b49a43a6a12c8a0a60f229351f09a6ec34db68012103ede30e741d63e7980d16442c69e4dec33ec04e32768a073f4acf3702221de880ffffffff9f9a3853638134a674732bbb7cab745aa4cc6301406da2395087d495d7c46301000000006a47304402200610091b98d1c18c3b3d9eab290e5306046c74a382bada841c969e12f141987f02203bd19010a691b715bfb787602c9778ac949eb59d9456986298e55f5469dae091012102dd199d80474b87e663b475ac5ff3406bfe30c22e45eea0fcfadb6c99042d781bffffffff914b1cc142df8699790cf6526898ebdd04662b99a470f4afd8a0b2d7fd198e35170000006a473044022072f88fc9f027feb6baabcb680c79646591d4f440c1b843d2778907215ff7e154022001456bcb0fa50c3e99a6cff1f141cf9ab0e470662e2e79a7eddf8054e34162ff012103b1fb37f9af9ed4a565ab4243d40e85822bdd255b670f73b6a67fa5ce456ad81dfffffffff90e45fcc1d203da27c7ae494e97f7d7f7c89cc613ead7eb65149b2dc870be20060000006a47304402203bd62763da3346c106608390d494bd88a3da66ba3dbfcb6398cf16c2c9c96b3c022072afa1d998a4984cc2d1c32e6dc41601b70d6d6baa3f5ea31f7ba77cc494542b012103e129a14221b61b506a4c2fc7e33f5ff7c8aef45fce987d2b3a94794ab4fd4433ffffffff01b25c122e000000001976a914d03135f2f46776b93126830da160846edbe57fae88ac00000000"
    }
  ],
  "time": 1517315813,
  "mediantime": 1517314583,
  "nonce": 528411477,
  "bits": "1a042eae",
  "difficulty": 4011378.762614286,
  "chainwork": "000000000000000000000000000000000000000000000034370e7995f7465360",
  "previousblockhash": "622e3c564ac1b04266e8ad8efa5f87a0748b63949a3bf6e36755740b6d959610",
  "nextblockhash": "b25bc604b5043c96699294b1324cab0a77ef5d2abc7334e53c6a47e5cf3ab433"
}
