{
  "hash": "e128468ec8dc56b437784b64d0983031fae68295d5b2313872f6544ad4eee145",
  "confirmations": 3403,
  "strippedsize": 234,
  "size": 234,
  "weight": 936,
  "height": 1357592,
  "version": 536870912,
  "versionHex": "20000000",
  "merkleroot": "e6358d5e09e015636ed8991c2cbd4c6a0d19982e06f4650835fd9f1117956133",
  "tx": [
    {
      "txid": "e6358d5e09e015636ed8991c2cbd4c6a0d19982e06f4650835fd9f1117956133",
      "hash": "e6358d5e09e015636ed8991c2cbd4c6a0d19982e06f4650835fd9f1117956133",
      "version": 1,
      "size": 153,
      "vsize": 153,
      "locktime": 0,
      "vin": [
        {
          "coinbase": "0318b714045a6bec922cfabe6d6df4be361e6688473b6d1c81ea29357fd4856ee736f5bca8ea789c52360ef1e6ba4000000000000000042f4c502f085c00691702000000",
          "sequence": 4294967295
        }
      ],
      "vout": [
        {
          "value": 25.00000000,
          "n": 0,
          "scriptPubKey": {
            "asm": "OP_DUP OP_HASH160 57757ed2ecf2052ff3126c397aca7defb9ca2cec OP_EQUALVERIFY OP_CHECKSIG",
            "hex": "76a91457757ed2ecf2052ff3126c397aca7defb9ca2cec88ac",
            "reqSigs": 1,
            "type": "pubkeyhash",
            "addresses": [
              "LTCPodGk5FwcJaRzH9yKnwicxzFUbxp6tN"
            ]
          }
        }
      ],
      "hex": "01000000010000000000000000000000000000000000000000000000000000000000000000ffffffff440318b714045a6bec922cfabe6d6df4be361e6688473b6d1c81ea29357fd4856ee736f5bca8ea789c52360ef1e6ba4000000000000000042f4c502f085c00691702000000ffffffff0100f90295000000001976a91457757ed2ecf2052ff3126c397aca7defb9ca2cec88ac00000000"
    }
  ],
  "time": 1517022354,
  "mediantime": 1517021794,
  "nonce": 3550898905,
  "bits": "1a047f14",
  "difficulty": 3731199.183374282,
  "chainwork": "0000000000000000000000000000000000000000000000325bc4fe99fc75878a",
  "previousblockhash": "cb4ae59f4a468e4dc696a2c14b649b3b82d8bd65ade7e7b1f308433d9ff1259e",
  "nextblockhash": "7f824a084ca3854ffb57d7a708b119806a45c555205ee958e0845dc35b2880fd"
}
