{
  "hash": "e1482cc9c76c7dc637e64d1b0e165db6fc28243193331dbb3ef5c6c40b7250aa",
  "confirmations": 1183,
  "strippedsize": 256,
  "size": 256,
  "weight": 1024,
  "height": 1359811,
  "version": 536870912,
  "versionHex": "20000000",
  "merkleroot": "c928bfecbaef3c8a69326e56e146b446a060a6ae8a9139cb52f01d32144762c8",
  "tx": [
    {
      "txid": "c928bfecbaef3c8a69326e56e146b446a060a6ae8a9139cb52f01d32144762c8",
      "hash": "c928bfecbaef3c8a69326e56e146b446a060a6ae8a9139cb52f01d32144762c8",
      "version": 1,
      "size": 175,
      "vsize": 175,
      "locktime": 0,
      "vin": [
        {
          "coinbase": "03c3bf141d4d696e656420627920416e74506f6f6c20626a312045205a70b396011efabe6d6d7ab3cdb59ed16fbcf2fd8302b8095abea39868f75765a16fd66d702d7c6b78bc04000000000000005f0a0000000000001e000000",
          "sequence": 4294967295
        }
      ],
      "vout": [
        {
          "value": 25.00000000,
          "n": 0,
          "scriptPubKey": {
            "asm": "OP_DUP OP_HASH160 0ff3ccc5e8be88afe24b5d634e5852d474dbdff1 OP_EQUALVERIFY OP_CHECKSIG",
            "hex": "76a9140ff3ccc5e8be88afe24b5d634e5852d474dbdff188ac",
            "reqSigs": 1,
            "type": "pubkeyhash",
            "addresses": [
              "LLgJTbzZMsRTCUF1NtvvL9SR1a4pVieW89"
            ]
          }
        }
      ],
      "hex": "01000000010000000000000000000000000000000000000000000000000000000000000000ffffffff5a03c3bf141d4d696e656420627920416e74506f6f6c20626a312045205a70b396011efabe6d6d7ab3cdb59ed16fbcf2fd8302b8095abea39868f75765a16fd66d702d7c6b78bc04000000000000005f0a0000000000001e000000ffffffff0100f90295000000001976a9140ff3ccc5e8be88afe24b5d634e5852d474dbdff188ac00000000"
    }
  ],
  "time": 1517335446,
  "mediantime": 1517334975,
  "nonce": 622304823,
  "bits": "1a042eae",
  "difficulty": 4011378.762614286,
  "chainwork": "0000000000000000000000000000000000000000000000345a718351def05288",
  "previousblockhash": "1f60b5153c44e842e288f4028a9849fdbe30effaa1ae4816605839271dd92bb0",
  "nextblockhash": "20fb8bc3e48e57ba741ed8e1b5356e425ebfe8af95b3594f95465b0a6fb8a528"
}
