{
  "hash": "e159123ab41c82408a80d006a5667c414314512396abd2887bbce7d0100ed26f",
  "confirmations": 799,
  "strippedsize": 255,
  "size": 255,
  "weight": 1020,
  "height": 1360195,
  "version": 536870912,
  "versionHex": "20000000",
  "merkleroot": "79a7f437b5a57e0a8a3f70f0dfd35e509d9c33485e41fea32b7bf0069d31ceff",
  "tx": [
    {
      "txid": "79a7f437b5a57e0a8a3f70f0dfd35e509d9c33485e41fea32b7bf0069d31ceff",
      "hash": "79a7f437b5a57e0a8a3f70f0dfd35e509d9c33485e41fea32b7bf0069d31ceff",
      "version": 1,
      "size": 174,
      "vsize": 174,
      "locktime": 0,
      "vin": [
        {
          "coinbase": "0343c1141c4d696e656420627920416e74506f6f6c20626a3242205a7183421001fabe6d6d72ccc74d57d6f9b992e46b22ecbd5e390d79d42b17725b2ab0692aaa30ee0ed20400000000000000551200000000000004000000",
          "sequence": 4294967295
        }
      ],
      "vout": [
        {
          "value": 25.00000000,
          "n": 0,
          "scriptPubKey": {
            "asm": "OP_DUP OP_HASH160 0ff3ccc5e8be88afe24b5d634e5852d474dbdff1 OP_EQUALVERIFY OP_CHECKSIG",
            "hex": "76a9140ff3ccc5e8be88afe24b5d634e5852d474dbdff188ac",
            "reqSigs": 1,
            "type": "pubkeyhash",
            "addresses": [
              "LLgJTbzZMsRTCUF1NtvvL9SR1a4pVieW89"
            ]
          }
        }
      ],
      "hex": "01000000010000000000000000000000000000000000000000000000000000000000000000ffffffff590343c1141c4d696e656420627920416e74506f6f6c20626a3242205a7183421001fabe6d6d72ccc74d57d6f9b992e46b22ecbd5e390d79d42b17725b2ab0692aaa30ee0ed20400000000000000551200000000000004000000ffffffff0100f90295000000001976a9140ff3ccc5e8be88afe24b5d634e5852d474dbdff188ac00000000"
    }
  ],
  "time": 1517388610,
  "mediantime": 1517387728,
  "nonce": 404310338,
  "bits": "1a042eae",
  "difficulty": 4011378.762614286,
  "chainwork": "000000000000000000000000000000000000000000000034b6420b473eee9588",
  "previousblockhash": "39076b9c8c8c31b2b7f6f94d2619b434521fe96e09f9a590dcbb52dcf47bcd5a",
  "nextblockhash": "eb5efeeea1818624323ed53cefc8d46713681da98fec5e541f3ea15adda66593"
}
