{
  "hash": "e1df2470d94a801cf9a392003f2bfe4d76fff43990c9aca821cc8e3e12de2605",
  "confirmations": 2852,
  "strippedsize": 234,
  "size": 234,
  "weight": 936,
  "height": 1358143,
  "version": 536870912,
  "versionHex": "20000000",
  "merkleroot": "220418380ad51afecca047cb4070dd59e7081975df57f43ca9e1f45685aabd13",
  "tx": [
    {
      "txid": "220418380ad51afecca047cb4070dd59e7081975df57f43ca9e1f45685aabd13",
      "hash": "220418380ad51afecca047cb4070dd59e7081975df57f43ca9e1f45685aabd13",
      "version": 1,
      "size": 153,
      "vsize": 153,
      "locktime": 0,
      "vin": [
        {
          "coinbase": "033fb914045a6d0d052cfabe6d6d8d6ebc325edd2c76c89010ff273b0fd326ba1210bea681e6ee5a3f1dbb14a9304000000000000000042f4c502f0856007da32c000000",
          "sequence": 4294967295
        }
      ],
      "vout": [
        {
          "value": 25.00000000,
          "n": 0,
          "scriptPubKey": {
            "asm": "OP_DUP OP_HASH160 57757ed2ecf2052ff3126c397aca7defb9ca2cec OP_EQUALVERIFY OP_CHECKSIG",
            "hex": "76a91457757ed2ecf2052ff3126c397aca7defb9ca2cec88ac",
            "reqSigs": 1,
            "type": "pubkeyhash",
            "addresses": [
              "LTCPodGk5FwcJaRzH9yKnwicxzFUbxp6tN"
            ]
          }
        }
      ],
      "hex": "01000000010000000000000000000000000000000000000000000000000000000000000000ffffffff44033fb914045a6d0d052cfabe6d6d8d6ebc325edd2c76c89010ff273b0fd326ba1210bea681e6ee5a3f1dbb14a9304000000000000000042f4c502f0856007da32c000000ffffffff0100f90295000000001976a91457757ed2ecf2052ff3126c397aca7defb9ca2cec88ac00000000"
    }
  ],
  "time": 1517096197,
  "mediantime": 1517095491,
  "nonce": 2421817409,
  "bits": "1a047f14",
  "difficulty": 3731199.183374282,
  "chainwork": "000000000000000000000000000000000000000000000032d64fe062e8496380",
  "previousblockhash": "49255a330f8e7e9d40772b103d24280a7afefbc59b2cdb934f9d0996f1de4c99",
  "nextblockhash": "e5a1822507d01fd61c69e9909e72db5c7bd2d67d3b2deb7c8e40125729d1efa7"
}
