{
  "hash": "e3686655c2751782d046014dcc7910f85561ad040e9175e83a1f23a285639bd0",
  "confirmations": 1869,
  "strippedsize": 234,
  "size": 234,
  "weight": 936,
  "height": 1359125,
  "version": 536870912,
  "versionHex": "20000000",
  "merkleroot": "aaae8dae5e1007af20bc9a9ca089d905bcdb44a5eeb7fad3c180348b5724566b",
  "tx": [
    {
      "txid": "aaae8dae5e1007af20bc9a9ca089d905bcdb44a5eeb7fad3c180348b5724566b",
      "hash": "aaae8dae5e1007af20bc9a9ca089d905bcdb44a5eeb7fad3c180348b5724566b",
      "version": 1,
      "size": 153,
      "vsize": 153,
      "locktime": 0,
      "vin": [
        {
          "coinbase": "0315bd14045a6f3d8b2cfabe6d6dd78d78759b152923cb649f49e9804fa0f6188e5c325827e203ff438fd7bb2de44000000000000000042f4c502f082200b7a914000000",
          "sequence": 4294967295
        }
      ],
      "vout": [
        {
          "value": 25.00000000,
          "n": 0,
          "scriptPubKey": {
            "asm": "OP_DUP OP_HASH160 57757ed2ecf2052ff3126c397aca7defb9ca2cec OP_EQUALVERIFY OP_CHECKSIG",
            "hex": "76a91457757ed2ecf2052ff3126c397aca7defb9ca2cec88ac",
            "reqSigs": 1,
            "type": "pubkeyhash",
            "addresses": [
              "LTCPodGk5FwcJaRzH9yKnwicxzFUbxp6tN"
            ]
          }
        }
      ],
      "hex": "01000000010000000000000000000000000000000000000000000000000000000000000000ffffffff440315bd14045a6f3d8b2cfabe6d6dd78d78759b152923cb649f49e9804fa0f6188e5c325827e203ff438fd7bb2de44000000000000000042f4c502f082200b7a914000000ffffffff0100f90295000000001976a91457757ed2ecf2052ff3126c397aca7defb9ca2cec88ac00000000"
    }
  ],
  "time": 1517239691,
  "mediantime": 1517239156,
  "nonce": 3731977911,
  "bits": "1a042eae",
  "difficulty": 4011378.762614286,
  "chainwork": "000000000000000000000000000000000000000000000033b66ba5c4da1e182c",
  "previousblockhash": "2a8c6277c2c360f3843e1594c0844b746a8137e8f6b65b56513258194e11a08f",
  "nextblockhash": "bfbd5ed0807126d969800dd5f33aa5e18250bc3bcc0cd2b2e777ed7d4a10206a"
}
