{
  "hash": "e3dd5243d6f4a4bf4d9210d74d4a1698dcb20cbd96e87845e6121c48c5e6cd27",
  "confirmations": 1658,
  "strippedsize": 234,
  "size": 234,
  "weight": 936,
  "height": 1359336,
  "version": 536870912,
  "versionHex": "20000000",
  "merkleroot": "fe41216cc5f6fde487e478ab542ee6080bedd2b66fec074826a1002b0ca0102d",
  "tx": [
    {
      "txid": "fe41216cc5f6fde487e478ab542ee6080bedd2b66fec074826a1002b0ca0102d",
      "hash": "fe41216cc5f6fde487e478ab542ee6080bedd2b66fec074826a1002b0ca0102d",
      "version": 1,
      "size": 153,
      "vsize": 153,
      "locktime": 0,
      "vin": [
        {
          "coinbase": "03e8bd14045a6fb00a2cfabe6d6dc3fb7c753326957a5f8ef6cba24326e9ba628d3114f610fefbc9284af4d7ade84000000000000000042f4c502f0816007b9d0e000000",
          "sequence": 4294967295
        }
      ],
      "vout": [
        {
          "value": 25.00000000,
          "n": 0,
          "scriptPubKey": {
            "asm": "OP_DUP OP_HASH160 57757ed2ecf2052ff3126c397aca7defb9ca2cec OP_EQUALVERIFY OP_CHECKSIG",
            "hex": "76a91457757ed2ecf2052ff3126c397aca7defb9ca2cec88ac",
            "reqSigs": 1,
            "type": "pubkeyhash",
            "addresses": [
              "LTCPodGk5FwcJaRzH9yKnwicxzFUbxp6tN"
            ]
          }
        }
      ],
      "hex": "01000000010000000000000000000000000000000000000000000000000000000000000000ffffffff4403e8bd14045a6fb00a2cfabe6d6dc3fb7c753326957a5f8ef6cba24326e9ba628d3114f610fefbc9284af4d7ade84000000000000000042f4c502f0816007b9d0e000000ffffffff0100f90295000000001976a91457757ed2ecf2052ff3126c397aca7defb9ca2cec88ac00000000"
    }
  ],
  "time": 1517269002,
  "mediantime": 1517268844,
  "nonce": 3388769415,
  "bits": "1a042eae",
  "difficulty": 4011378.762614286,
  "chainwork": "000000000000000000000000000000000000000000000033e8dee5cf0387ce52",
  "previousblockhash": "d636398b55d49493b2cb524f1604e5b84616712f075142c3402000f454e37535",
  "nextblockhash": "716feb1f0047ea707ce757d0914ad3f50941f1faca836e154e15f012e7bbe860"
}
