{
  "hash": "e422abcb9638f9695b50e5e299f79a93524f8fd12bb3f939f09d068579df9123",
  "confirmations": 94,
  "strippedsize": 253,
  "size": 253,
  "weight": 1012,
  "height": 1360898,
  "version": 536870912,
  "versionHex": "20000000",
  "merkleroot": "84973a74e51a25c191c0b66e32cb8326625a5e1ca26ee9687e7d8222cf6f6a38",
  "tx": [
    {
      "txid": "84973a74e51a25c191c0b66e32cb8326625a5e1ca26ee9687e7d8222cf6f6a38",
      "hash": "84973a74e51a25c191c0b66e32cb8326625a5e1ca26ee9687e7d8222cf6f6a38",
      "version": 1,
      "size": 172,
      "vsize": 172,
      "locktime": 0,
      "vin": [
        {
          "coinbase": "0302c4141a4d696e656420627920416e74506f6f6c20626a331f205a732400fabe6d6d8a8bce6ca9b78fe0aeb16e4c24188a16d2a4d68d09c5fbf8721a4a062ef21dc60400000000000000050300000000000025000000",
          "sequence": 4294967295
        }
      ],
      "vout": [
        {
          "value": 25.00000000,
          "n": 0,
          "scriptPubKey": {
            "asm": "OP_DUP OP_HASH160 0ff3ccc5e8be88afe24b5d634e5852d474dbdff1 OP_EQUALVERIFY OP_CHECKSIG",
            "hex": "76a9140ff3ccc5e8be88afe24b5d634e5852d474dbdff188ac",
            "reqSigs": 1,
            "type": "pubkeyhash",
            "addresses": [
              "LLgJTbzZMsRTCUF1NtvvL9SR1a4pVieW89"
            ]
          }
        }
      ],
      "hex": "01000000010000000000000000000000000000000000000000000000000000000000000000ffffffff570302c4141a4d696e656420627920416e74506f6f6c20626a331f205a732400fabe6d6d8a8bce6ca9b78fe0aeb16e4c24188a16d2a4d68d09c5fbf8721a4a062ef21dc60400000000000000050300000000000025000000ffffffff0100f90295000000001976a9140ff3ccc5e8be88afe24b5d634e5852d474dbdff188ac00000000"
    }
  ],
  "time": 1517495296,
  "mediantime": 1517494913,
  "nonce": 2109161675,
  "bits": "1a04088e",
  "difficulty": 4159490.835685156,
  "chainwork": "0000000000000000000000000000000000000000000000355f38381ac5d587f0",
  "previousblockhash": "244ecba15e3965320f0a6944a6709234f9108ceac9c92239e8f164d693aaadd8",
  "nextblockhash": "3d46a30d56f89481344092a90cc5413febbc0e8bcbc0d7e3045e040bb128e2f5"
}
