{
  "hash": "e4f0e40dfd08e87f9f0a7e0f61f4fbc158a7e51c93ecfcc1191e175092533c9f",
  "confirmations": 3001,
  "strippedsize": 234,
  "size": 234,
  "weight": 936,
  "height": 1357994,
  "version": 536870912,
  "versionHex": "20000000",
  "merkleroot": "aee3ce690ee3eb98da4650a4faa8248bd35e7f29d542b71333dee6204b938d05",
  "tx": [
    {
      "txid": "aee3ce690ee3eb98da4650a4faa8248bd35e7f29d542b71333dee6204b938d05",
      "hash": "aee3ce690ee3eb98da4650a4faa8248bd35e7f29d542b71333dee6204b938d05",
      "version": 1,
      "size": 153,
      "vsize": 153,
      "locktime": 0,
      "vin": [
        {
          "coinbase": "03aab814045a6cb46f2cfabe6d6dff51aee4dfe0e74506db80f072198ddaaa2196c37ecc7c6112763640c3a46d1b4000000000000000042f4c502f0816008bf8a8170000",
          "sequence": 4294967295
        }
      ],
      "vout": [
        {
          "value": 25.00000000,
          "n": 0,
          "scriptPubKey": {
            "asm": "OP_DUP OP_HASH160 57757ed2ecf2052ff3126c397aca7defb9ca2cec OP_EQUALVERIFY OP_CHECKSIG",
            "hex": "76a91457757ed2ecf2052ff3126c397aca7defb9ca2cec88ac",
            "reqSigs": 1,
            "type": "pubkeyhash",
            "addresses": [
              "LTCPodGk5FwcJaRzH9yKnwicxzFUbxp6tN"
            ]
          }
        }
      ],
      "hex": "01000000010000000000000000000000000000000000000000000000000000000000000000ffffffff4403aab814045a6cb46f2cfabe6d6dff51aee4dfe0e74506db80f072198ddaaa2196c37ecc7c6112763640c3a46d1b4000000000000000042f4c502f0816008bf8a8170000ffffffff0100f90295000000001976a91457757ed2ecf2052ff3126c397aca7defb9ca2cec88ac00000000"
    }
  ],
  "time": 1517073519,
  "mediantime": 1517072952,
  "nonce": 785190483,
  "bits": "1a047f14",
  "difficulty": 3731199.183374282,
  "chainwork": "000000000000000000000000000000000000000000000032b52ca4b959fee85e",
  "previousblockhash": "0f7d18050153b3fc6d1398ce77a4ed83af1d7b18d5cdc128676182518552b348",
  "nextblockhash": "bb6b4d4e6fcd6a8b1ead054d5287f9a26b08590fc893a21c80f406e9a107b20a"
}
