{
  "hash": "e52d8c77fc3787e8c35c27d8ec5c5b4a55fda2e9f900e30a56e36adb7c1acfca",
  "confirmations": 3273,
  "strippedsize": 894,
  "size": 930,
  "weight": 3612,
  "height": 1357722,
  "version": 536870912,
  "versionHex": "20000000",
  "merkleroot": "321863cd8e4fb439ff608c1c978bb1ab44712deb986d2f352bfe7ea5463c1f77",
  "tx": [
    {
      "txid": "61855c5cfce693a0d98fcd5563d299e1379dc7865cc77c961612a40bd763a4e8",
      "hash": "0e87cd81b86378179c93cec1d199dfe1c88744dd701d4d9f538b9141e8293d80",
      "version": 1,
      "size": 253,
      "vsize": 226,
      "locktime": 0,
      "vin": [
        {
          "coinbase": "039ab71441d69b0bfeb6eaaf41d69b0bfea20ae12f4c54432e544f502ffabe6d6d44861f1d65b367c8a9c88145ee4900be226ed1fb2eac7ef7bd74b03df6a1d90501000000000000007205a8210200000000000000",
          "sequence": 4294967295
        }
      ],
      "vout": [
        {
          "value": 25.00156400,
          "n": 0,
          "scriptPubKey": {
            "asm": "OP_DUP OP_HASH160 0c617fdb2ea42aed30a509595ee21ba3f6688db0 OP_EQUALVERIFY OP_CHECKSIG",
            "hex": "76a9140c617fdb2ea42aed30a509595ee21ba3f6688db088ac",
            "reqSigs": 1,
            "type": "pubkeyhash",
            "addresses": [
              "LLMRAtr3qBje2ySEa3CnZ55LA4TQMWnRY3"
            ]
          }
        }, 
        {
          "value": 0.00000000,
          "n": 1,
          "scriptPubKey": {
            "asm": "OP_RETURN aa21a9edf711431c9a0eda0bc1dd4cfafc739a3b9288310df9f7ea62850ee654d50316b0",
            "hex": "6a24aa21a9edf711431c9a0eda0bc1dd4cfafc739a3b9288310df9f7ea62850ee654d50316b0",
            "type": "nulldata"
          }
        }
      ],
      "hex": "010000000001010000000000000000000000000000000000000000000000000000000000000000ffffffff55039ab71441d69b0bfeb6eaaf41d69b0bfea20ae12f4c54432e544f502ffabe6d6d44861f1d65b367c8a9c88145ee4900be226ed1fb2eac7ef7bd74b03df6a1d90501000000000000007205a8210200000000000000ffffffff02f05b0595000000001976a9140c617fdb2ea42aed30a509595ee21ba3f6688db088ac0000000000000000266a24aa21a9edf711431c9a0eda0bc1dd4cfafc739a3b9288310df9f7ea62850ee654d50316b00120000000000000000000000000000000000000000000000000000000000000000000000000"
    }, 
    {
      "txid": "1e46a992f527982ea192a7bef77881e3e3de4ad63c72565e75013bc056bb2c02",
      "hash": "1e46a992f527982ea192a7bef77881e3e3de4ad63c72565e75013bc056bb2c02",
      "version": 1,
      "size": 373,
      "vsize": 373,
      "locktime": 1357672,
      "vin": [
        {
          "txid": "cc93c018d78d68227adf3d6a08b18e21354f6185ed9f51f46e81e900f10e1b96",
          "vout": 1,
          "scriptSig": {
            "asm": "30450221009a8091693d93506574667cf012b2ca038c0083065fc9a8b2e18aea37aa80e28c022045396b6ee1d8cb29caa63d7b0cb7239bd07464be52dbbee57a7055b2fafe71d2[ALL] 02d9fa29529fc6b38efe9bc7c73f5d06778e10ec936f165e65b71729d26e520f91",
            "hex": "4830450221009a8091693d93506574667cf012b2ca038c0083065fc9a8b2e18aea37aa80e28c022045396b6ee1d8cb29caa63d7b0cb7239bd07464be52dbbee57a7055b2fafe71d2012102d9fa29529fc6b38efe9bc7c73f5d06778e10ec936f165e65b71729d26e520f91"
          },
          "sequence": 4294967294
        }, 
        {
          "txid": "383aa6dbd90516bc664814211fd3e1c1274490fd23f3a96bbef33758d1c1bffc",
          "vout": 0,
          "scriptSig": {
            "asm": "30440220545268fc19592cfa728af0280f146154a53cd0bec4462e3d7e5db76afb2e45550220197138bc832767510205c9bf4536e0058efb2d04a6d06a88d3309008c2ee9769[ALL] 0241fef0897236b0ae9756b40435bf8ab279262579d01ea4aed74ee4581a775c12",
            "hex": "4730440220545268fc19592cfa728af0280f146154a53cd0bec4462e3d7e5db76afb2e45550220197138bc832767510205c9bf4536e0058efb2d04a6d06a88d3309008c2ee976901210241fef0897236b0ae9756b40435bf8ab279262579d01ea4aed74ee4581a775c12"
          },
          "sequence": 4294967294
        }
      ],
      "vout": [
        {
          "value": 99.99500000,
          "n": 0,
          "scriptPubKey": {
            "asm": "OP_DUP OP_HASH160 0b5fb48937ed02703c1afc1add72093dd2212293 OP_EQUALVERIFY OP_CHECKSIG",
            "hex": "76a9140b5fb48937ed02703c1afc1add72093dd221229388ac",
            "reqSigs": 1,
            "type": "pubkeyhash",
            "addresses": [
              "LLG6M3BBcTVrrbevE4g9WpzUHw7uAxyoQb"
            ]
          }
        }, 
        {
          "value": 0.01000152,
          "n": 1,
          "scriptPubKey": {
            "asm": "OP_DUP OP_HASH160 56688dcf09ff639a06335ca6cf3bc581a35d4d47 OP_EQUALVERIFY OP_CHECKSIG",
            "hex": "76a91456688dcf09ff639a06335ca6cf3bc581a35d4d4788ac",
            "reqSigs": 1,
            "type": "pubkeyhash",
            "addresses": [
              "LT6qdFCLNBnNkTWsVRSpqpieCyKMxoEESn"
            ]
          }
        }
      ],
      "hex": "0100000002961b0ef100e9816ef4519fed85614f35218eb1086a3ddf7a22688dd718c093cc010000006b4830450221009a8091693d93506574667cf012b2ca038c0083065fc9a8b2e18aea37aa80e28c022045396b6ee1d8cb29caa63d7b0cb7239bd07464be52dbbee57a7055b2fafe71d2012102d9fa29529fc6b38efe9bc7c73f5d06778e10ec936f165e65b71729d26e520f91fefffffffcbfc1d15837f3be6ba9f323fd904427c1e1d31f21144866bc1605d9dba63a38000000006a4730440220545268fc19592cfa728af0280f146154a53cd0bec4462e3d7e5db76afb2e45550220197138bc832767510205c9bf4536e0058efb2d04a6d06a88d3309008c2ee976901210241fef0897236b0ae9756b40435bf8ab279262579d01ea4aed74ee4581a775c12feffffff02e0420454020000001976a9140b5fb48937ed02703c1afc1add72093dd221229388acd8420f00000000001976a91456688dcf09ff639a06335ca6cf3bc581a35d4d4788ac68b71400"
    }, 
    {
      "txid": "f88f9e3da47f668191fb516e88e6e59ffb80c2b2ce574e91a3c090fe5a80d27e",
      "hash": "f88f9e3da47f668191fb516e88e6e59ffb80c2b2ce574e91a3c090fe5a80d27e",
      "version": 1,
      "size": 223,
      "vsize": 223,
      "locktime": 0,
      "vin": [
        {
          "txid": "d881ce5bc6a348606ab23947344cfdee8e1caef6a20375579233bf05d7251048",
          "vout": 1,
          "scriptSig": {
            "asm": "30440220780032867f887508548fd2e90b2b62356e718f5495b46bcb9e00e3ee7b78d8ef0220621d945a22beb4f1a8b1add8501c767e621ba90672d0965ef4614eb7db442481[ALL] 02bbd53b327e161056c9b3d0de50903524f08b8b9506a94705677eda7e94680902",
            "hex": "4730440220780032867f887508548fd2e90b2b62356e718f5495b46bcb9e00e3ee7b78d8ef0220621d945a22beb4f1a8b1add8501c767e621ba90672d0965ef4614eb7db442481012102bbd53b327e161056c9b3d0de50903524f08b8b9506a94705677eda7e94680902"
          },
          "sequence": 4294967295
        }
      ],
      "vout": [
        {
          "value": 0.45200000,
          "n": 0,
          "scriptPubKey": {
            "asm": "OP_HASH160 9f25158d7aff3048df8eeb964f57e9e161d3ffd3 OP_EQUAL",
            "hex": "a9149f25158d7aff3048df8eeb964f57e9e161d3ffd387",
            "reqSigs": 1,
            "type": "scripthash",
            "addresses": [
              "MNQe6awJC5oVWi9BoauzsbcPQ7tt7S2Aaa"
            ]
          }
        }, 
        {
          "value": 0.08777600,
          "n": 1,
          "scriptPubKey": {
            "asm": "OP_DUP OP_HASH160 b2d8aa47f2cb2d40d35d1b6647e6ac09d6b273a9 OP_EQUALVERIFY OP_CHECKSIG",
            "hex": "76a914b2d8aa47f2cb2d40d35d1b6647e6ac09d6b273a988ac",
            "reqSigs": 1,
            "type": "pubkeyhash",
            "addresses": [
              "LbXc6X16R6djaaMxmgiKSqbiCh6vy2tuRH"
            ]
          }
        }
      ],
      "hex": "0100000001481025d705bf3392577503a2f6ae1c8eeefd4c344739b26a6048a3c65bce81d8010000006a4730440220780032867f887508548fd2e90b2b62356e718f5495b46bcb9e00e3ee7b78d8ef0220621d945a22beb4f1a8b1add8501c767e621ba90672d0965ef4614eb7db442481012102bbd53b327e161056c9b3d0de50903524f08b8b9506a94705677eda7e94680902ffffffff0280b2b1020000000017a9149f25158d7aff3048df8eeb964f57e9e161d3ffd38780ef8500000000001976a914b2d8aa47f2cb2d40d35d1b6647e6ac09d6b273a988ac00000000"
    }
  ],
  "time": 1517039610,
  "mediantime": 1517038775,
  "nonce": 1591222746,
  "bits": "1a047f14",
  "difficulty": 3731199.183374282,
  "chainwork": "00000000000000000000000000000000000000000000003278ae79194da70cbe",
  "previousblockhash": "11dd1f2b86f57ec19007ab9bdcf389711fbbb09c6bfc7b633007974b5088def6",
  "nextblockhash": "90c5f428718fc0fbcdfc247def35e93e2ffeb680d2503ae7cefef18af95be9c5"
}
