{
  "hash": "e5703041a2657e95bdf6c01b961dca41fefe2dbb6792eaec7a7400be2120f207",
  "confirmations": 3676,
  "strippedsize": 1935,
  "size": 1971,
  "weight": 7776,
  "height": 1357319,
  "version": 536870912,
  "versionHex": "20000000",
  "merkleroot": "942ae714cd11dfdab1ba51b60449c1d1bffe5ddf9b5c8c013dda1e349466ec7a",
  "tx": [
    {
      "txid": "3ed5514f0ebcff610891847b7b0f12ea4bfdb8814b2ca20f88bbbd8d28ce25d5",
      "hash": "69da2a30902b3a5862851dd52c6d68ceda950a012023eea6a1e434e6198730f9",
      "version": 1,
      "size": 277,
      "vsize": 250,
      "locktime": 954218374,
      "vin": [
        {
          "coinbase": "0307b6142cfabe6d6d2e485bacfb5c967ab39c34e3dbd388e8d369ae5f373a6a4fdc1935d1f74e652e08000000f09f909f164d696e6564206279207a77313338333938353232303700000000000000000000000000000000000000000000000000000000",
          "sequence": 62
        }
      ],
      "vout": [
        {
          "value": 25.00591000,
          "n": 0,
          "scriptPubKey": {
            "asm": "OP_DUP OP_HASH160 aa3750aa18b8a0f3f0590731e1fab934856680cf OP_EQUALVERIFY OP_CHECKSIG",
            "hex": "76a914aa3750aa18b8a0f3f0590731e1fab934856680cf88ac",
            "reqSigs": 1,
            "type": "pubkeyhash",
            "addresses": [
              "LajyQBeZaBA1NkZDeY8YT5RYYVRkXMvb2T"
            ]
          }
        }, 
        {
          "value": 0.00000000,
          "n": 1,
          "scriptPubKey": {
            "asm": "OP_RETURN aa21a9ed6cb65294031ff55ef0b40e1619ef0294e1ca9accb819c9bef5c68240d2f77ef1 0000000000000000",
            "hex": "6a24aa21a9ed6cb65294031ff55ef0b40e1619ef0294e1ca9accb819c9bef5c68240d2f77ef1080000000000000000",
            "type": "nulldata"
          }
        }
      ],
      "hex": "010000000001010000000000000000000000000000000000000000000000000000000000000000ffffffff640307b6142cfabe6d6d2e485bacfb5c967ab39c34e3dbd388e8d369ae5f373a6a4fdc1935d1f74e652e08000000f09f909f164d696e6564206279207a773133383339383532323037000000000000000000000000000000000000000000000000000000003e0000000298fd0b95000000001976a914aa3750aa18b8a0f3f0590731e1fab934856680cf88ac00000000000000002f6a24aa21a9ed6cb65294031ff55ef0b40e1619ef0294e1ca9accb819c9bef5c68240d2f77ef1080000000000000000012000000000000000000000000000000000000000000000000000000000000000008637e038"
    }, 
    {
      "txid": "cc6849ae0bff37c262c013ed20ea772cdd8e4474408cd29abce6afce87545767",
      "hash": "cc6849ae0bff37c262c013ed20ea772cdd8e4474408cd29abce6afce87545767",
      "version": 1,
      "size": 226,
      "vsize": 226,
      "locktime": 1357315,
      "vin": [
        {
          "txid": "42c58ab00c579eefb9c2bfc83e93b80d2e097d5759bab4372267908772d6c591",
          "vout": 4,
          "scriptSig": {
            "asm": "3045022100dc4d8a15634d6beb3c0a9e40ad6e09f61fca0f57e9cd48b0cc6bcf6f2d7d45470220452d915b0260ce113e076633c6bdb3785ccb13a365143eb70aff3b916de1c5b3[ALL] 0364c5c63e200346b89ff000ca945aca287f51d8752478c5a538a301ee7f65c083",
            "hex": "483045022100dc4d8a15634d6beb3c0a9e40ad6e09f61fca0f57e9cd48b0cc6bcf6f2d7d45470220452d915b0260ce113e076633c6bdb3785ccb13a365143eb70aff3b916de1c5b301210364c5c63e200346b89ff000ca945aca287f51d8752478c5a538a301ee7f65c083"
          },
          "sequence": 4294967294
        }
      ],
      "vout": [
        {
          "value": 6.34601966,
          "n": 0,
          "scriptPubKey": {
            "asm": "OP_DUP OP_HASH160 22a6889a5805aa30433e0e53c3a935d4a0888a0e OP_EQUALVERIFY OP_CHECKSIG",
            "hex": "76a91422a6889a5805aa30433e0e53c3a935d4a0888a0e88ac",
            "reqSigs": 1,
            "type": "pubkeyhash",
            "addresses": [
              "LNPAjh9SpSqgXZwjPKF1S4bdEpUcVFNywr"
            ]
          }
        }, 
        {
          "value": 2.09046034,
          "n": 1,
          "scriptPubKey": {
            "asm": "OP_DUP OP_HASH160 202c5ddd44c0c3bd247c38eea6837b495f140b07 OP_EQUALVERIFY OP_CHECKSIG",
            "hex": "76a914202c5ddd44c0c3bd247c38eea6837b495f140b0788ac",
            "reqSigs": 1,
            "type": "pubkeyhash",
            "addresses": [
              "LNA5311bneCWMzvQQu3TdrKacp5jv7r51k"
            ]
          }
        }
      ],
      "hex": "010000000191c5d6728790672237b4ba59577d092e0db8933ec8bfc2b9ef9e570cb08ac542040000006b483045022100dc4d8a15634d6beb3c0a9e40ad6e09f61fca0f57e9cd48b0cc6bcf6f2d7d45470220452d915b0260ce113e076633c6bdb3785ccb13a365143eb70aff3b916de1c5b301210364c5c63e200346b89ff000ca945aca287f51d8752478c5a538a301ee7f65c083feffffff02ee41d325000000001976a91422a6889a5805aa30433e0e53c3a935d4a0888a0e88ac12ca750c000000001976a914202c5ddd44c0c3bd247c38eea6837b495f140b0788ac03b61400"
    }, 
    {
      "txid": "6c42a5747465b64a9ec532a9d2a969f2de1a9b79757753a1f86006a04dd1d00f",
      "hash": "6c42a5747465b64a9ec532a9d2a969f2de1a9b79757753a1f86006a04dd1d00f",
      "version": 1,
      "size": 225,
      "vsize": 225,
      "locktime": 0,
      "vin": [
        {
          "txid": "7603a6ad86f55d295c718830beaed30344f870a76778f969f5073593cde0d467",
          "vout": 11,
          "scriptSig": {
            "asm": "30440220767d4223cd723fc223f9c7d2f35ff00f6abaedefa6872eb1f21390db394426ce022062abe180088645bb060869a0f89c6c20fa77407afe7f3ef1dcc31d4d088716fe[ALL] 03a11e6524bc3e9153ec9ece00bb6f2a347999f5386921562e4deaf418d72122d0",
            "hex": "4730440220767d4223cd723fc223f9c7d2f35ff00f6abaedefa6872eb1f21390db394426ce022062abe180088645bb060869a0f89c6c20fa77407afe7f3ef1dcc31d4d088716fe012103a11e6524bc3e9153ec9ece00bb6f2a347999f5386921562e4deaf418d72122d0"
          },
          "sequence": 4294967295
        }
      ],
      "vout": [
        {
          "value": 0.03155750,
          "n": 0,
          "scriptPubKey": {
            "asm": "OP_DUP OP_HASH160 ccd038fc5e9104ce7457e9b0816555c24b182e36 OP_EQUALVERIFY OP_CHECKSIG",
            "hex": "76a914ccd038fc5e9104ce7457e9b0816555c24b182e3688ac",
            "reqSigs": 1,
            "type": "pubkeyhash",
            "addresses": [
              "LdtuYuXFELWz9ELsAzvPvCswu79m9HqS54"
            ]
          }
        }, 
        {
          "value": 0.53871650,
          "n": 1,
          "scriptPubKey": {
            "asm": "OP_DUP OP_HASH160 ce35b0f02918415b89e8bd2345aeb6028ca65774 OP_EQUALVERIFY OP_CHECKSIG",
            "hex": "76a914ce35b0f02918415b89e8bd2345aeb6028ca6577488ac",
            "reqSigs": 1,
            "type": "pubkeyhash",
            "addresses": [
              "Le2HnFtoH51cdEAC1ekvtFUngM2Zjajui2"
            ]
          }
        }
      ],
      "hex": "010000000167d4e0cd933507f569f97867a770f84403d3aebe3088715c295df586ada603760b0000006a4730440220767d4223cd723fc223f9c7d2f35ff00f6abaedefa6872eb1f21390db394426ce022062abe180088645bb060869a0f89c6c20fa77407afe7f3ef1dcc31d4d088716fe012103a11e6524bc3e9153ec9ece00bb6f2a347999f5386921562e4deaf418d72122d0ffffffff0226273000000000001976a914ccd038fc5e9104ce7457e9b0816555c24b182e3688ac22043603000000001976a914ce35b0f02918415b89e8bd2345aeb6028ca6577488ac00000000"
    }, 
    {
      "txid": "7e86999434beb47dd9bdc19e6e487923f58e02d7e75d6d6d5f249c5f296a7bb7",
      "hash": "7e86999434beb47dd9bdc19e6e487923f58e02d7e75d6d6d5f249c5f296a7bb7",
      "version": 1,
      "size": 225,
      "vsize": 225,
      "locktime": 0,
      "vin": [
        {
          "txid": "307389c9cce2920dbe48f055cca20f59c75c2ab13365f0be7ba2effd1d100620",
          "vout": 0,
          "scriptSig": {
            "asm": "30440220185eba958d7bbab268f7075f68a406b76a8b7bd9308c43e752c68998ea2a6dc5022036c7f43c8451f6de3d279dd68eebd1af7fc10fac6299fee5bda9740ba37eef95[ALL] 03bc5837b2841b0605ea1064550dec5153885c02b27ff9c13ad2f7f3c406dfdf19",
            "hex": "4730440220185eba958d7bbab268f7075f68a406b76a8b7bd9308c43e752c68998ea2a6dc5022036c7f43c8451f6de3d279dd68eebd1af7fc10fac6299fee5bda9740ba37eef95012103bc5837b2841b0605ea1064550dec5153885c02b27ff9c13ad2f7f3c406dfdf19"
          },
          "sequence": 4294967295
        }
      ],
      "vout": [
        {
          "value": 0.01058238,
          "n": 0,
          "scriptPubKey": {
            "asm": "OP_DUP OP_HASH160 a2edfcf9373d550f235f4f30f7cc07564f0871cc OP_EQUALVERIFY OP_CHECKSIG",
            "hex": "76a914a2edfcf9373d550f235f4f30f7cc07564f0871cc88ac",
            "reqSigs": 1,
            "type": "pubkeyhash",
            "addresses": [
              "La5SpzqbQD692f9eUeh4E5C9WV6K3x4DRM"
            ]
          }
        }, 
        {
          "value": 1.17000000,
          "n": 1,
          "scriptPubKey": {
            "asm": "OP_DUP OP_HASH160 fbe3ee756edc3436a60d0c44139dcd1aafc68222 OP_EQUALVERIFY OP_CHECKSIG",
            "hex": "76a914fbe3ee756edc3436a60d0c44139dcd1aafc6822288ac",
            "reqSigs": 1,
            "type": "pubkeyhash",
            "addresses": [
              "LiBpvKUJP233SoQQastiFvuY9iHrQbZtEr"
            ]
          }
        }
      ],
      "hex": "01000000012006101dfdefa27bbef06533b12a5cc7590fa2cc55f048be0d92e2ccc9897330000000006a4730440220185eba958d7bbab268f7075f68a406b76a8b7bd9308c43e752c68998ea2a6dc5022036c7f43c8451f6de3d279dd68eebd1af7fc10fac6299fee5bda9740ba37eef95012103bc5837b2841b0605ea1064550dec5153885c02b27ff9c13ad2f7f3c406dfdf19ffffffff02be251000000000001976a914a2edfcf9373d550f235f4f30f7cc07564f0871cc88ac4047f906000000001976a914fbe3ee756edc3436a60d0c44139dcd1aafc6822288ac00000000"
    }, 
    {
      "txid": "5bde22ef819a6dca36802abed8459543cec15d1c1d21c843dc2938aea4b0037a",
      "hash": "5bde22ef819a6dca36802abed8459543cec15d1c1d21c843dc2938aea4b0037a",
      "version": 1,
      "size": 259,
      "vsize": 259,
      "locktime": 1357298,
      "vin": [
        {
          "txid": "537c765efdf8497a81ea98ed86c2f3d4db074c94cedc43b90db5628f6a50b6e1",
          "vout": 1,
          "scriptSig": {
            "asm": "30440220110a12afacedadcaafb314b71a7519189518230d66af263b0ba8d9cb36f9a62e02206f315a681ff5b39d3bb37ae5ccc085b3a370915258db37fb21d5f9c65ea3887a[ALL] 0388e289d130591b7ea10c5f154b4cb23d09bc64855f6fab0354aad9ef5a4d5f25",
            "hex": "4730440220110a12afacedadcaafb314b71a7519189518230d66af263b0ba8d9cb36f9a62e02206f315a681ff5b39d3bb37ae5ccc085b3a370915258db37fb21d5f9c65ea3887a01210388e289d130591b7ea10c5f154b4cb23d09bc64855f6fab0354aad9ef5a4d5f25"
          },
          "sequence": 4294967294
        }
      ],
      "vout": [
        {
          "value": 0.26269831,
          "n": 0,
          "scriptPubKey": {
            "asm": "OP_DUP OP_HASH160 5bd4a7e2d50bf3f9ec568023fdfe947c2cd0836e OP_EQUALVERIFY OP_CHECKSIG",
            "hex": "76a9145bd4a7e2d50bf3f9ec568023fdfe947c2cd0836e88ac",
            "reqSigs": 1,
            "type": "pubkeyhash",
            "addresses": [
              "LTbWWFgWiPYvyG6uTNy9sm1nAN1neArj87"
            ]
          }
        }, 
        {
          "value": 0.05105645,
          "n": 1,
          "scriptPubKey": {
            "asm": "OP_DUP OP_HASH160 a9ec8b02f440761baca8f90efe342aa17bf1c578 OP_EQUALVERIFY OP_CHECKSIG",
            "hex": "76a914a9ec8b02f440761baca8f90efe342aa17bf1c57888ac",
            "reqSigs": 1,
            "type": "pubkeyhash",
            "addresses": [
              "LaiRpvqhFn7xyTFvwKbRPVG7LgopyDaSyB"
            ]
          }
        }, 
        {
          "value": 0.11745587,
          "n": 2,
          "scriptPubKey": {
            "asm": "OP_DUP OP_HASH160 ad7a5ad1fe970bdb6bceffa9825508375c1e4f78 OP_EQUALVERIFY OP_CHECKSIG",
            "hex": "76a914ad7a5ad1fe970bdb6bceffa9825508375c1e4f7888ac",
            "reqSigs": 1,
            "type": "pubkeyhash",
            "addresses": [
              "Lb3DjkurqGudxUP1bTmqZWQySefR6P5ZeY"
            ]
          }
        }
      ],
      "hex": "0100000001e1b6506a8f62b50db943dcce944c07dbd4f3c286ed98ea817a49f8fd5e767c53010000006a4730440220110a12afacedadcaafb314b71a7519189518230d66af263b0ba8d9cb36f9a62e02206f315a681ff5b39d3bb37ae5ccc085b3a370915258db37fb21d5f9c65ea3887a01210388e289d130591b7ea10c5f154b4cb23d09bc64855f6fab0354aad9ef5a4d5f25feffffff0387d89001000000001976a9145bd4a7e2d50bf3f9ec568023fdfe947c2cd0836e88acede74d00000000001976a914a9ec8b02f440761baca8f90efe342aa17bf1c57888ac3339b300000000001976a914ad7a5ad1fe970bdb6bceffa9825508375c1e4f7888acf2b51400"
    }, 
    {
      "txid": "2aea42f7ac4e71386daf9dfcbb36ebfc53364a738e00ddf0936555bbd341524b",
      "hash": "2aea42f7ac4e71386daf9dfcbb36ebfc53364a738e00ddf0936555bbd341524b",
      "version": 1,
      "size": 226,
      "vsize": 226,
      "locktime": 0,
      "vin": [
        {
          "txid": "96a135c97407461257b23be69567b9d3550e99b5ef58b5003d4e8f5c0fcc6aeb",
          "vout": 1,
          "scriptSig": {
            "asm": "30450221008126c3c91967844747a49b97863a9ee530ef8fc7e0370823564c719ef590bdce022002b514e2a2b4166de9b3d6a8617b72a7f6c0683f7102fd2e5694fdb967ba2a76[ALL] 031e10fb67fc74d3ad3d28dbfd795048c68202c811c235927813fde19429d6759c",
            "hex": "4830450221008126c3c91967844747a49b97863a9ee530ef8fc7e0370823564c719ef590bdce022002b514e2a2b4166de9b3d6a8617b72a7f6c0683f7102fd2e5694fdb967ba2a760121031e10fb67fc74d3ad3d28dbfd795048c68202c811c235927813fde19429d6759c"
          },
          "sequence": 4294967295
        }
      ],
      "vout": [
        {
          "value": 0.00190733,
          "n": 0,
          "scriptPubKey": {
            "asm": "OP_DUP OP_HASH160 78381e66dfe353db6df3086b02627acb3cfa06c9 OP_EQUALVERIFY OP_CHECKSIG",
            "hex": "76a91478381e66dfe353db6df3086b02627acb3cfa06c988ac",
            "reqSigs": 1,
            "type": "pubkeyhash",
            "addresses": [
              "LWBcaS2RYLLLStmeF9zkqho2HMKnKNQfuR"
            ]
          }
        }, 
        {
          "value": 0.14925963,
          "n": 1,
          "scriptPubKey": {
            "asm": "OP_DUP OP_HASH160 896c257af37d39d01e3524ce7294b8198eb35764 OP_EQUALVERIFY OP_CHECKSIG",
            "hex": "76a914896c257af37d39d01e3524ce7294b8198eb3576488ac",
            "reqSigs": 1,
            "type": "pubkeyhash",
            "addresses": [
              "LXkaPdx8TBRAKXr5rcQta7F9fSiUgJW441"
            ]
          }
        }
      ],
      "hex": "0100000001eb6acc0f5c8f4e3d00b558efb5990e55d3b96795e63bb25712460774c935a196010000006b4830450221008126c3c91967844747a49b97863a9ee530ef8fc7e0370823564c719ef590bdce022002b514e2a2b4166de9b3d6a8617b72a7f6c0683f7102fd2e5694fdb967ba2a760121031e10fb67fc74d3ad3d28dbfd795048c68202c811c235927813fde19429d6759cffffffff020de90200000000001976a91478381e66dfe353db6df3086b02627acb3cfa06c988ac8bc0e300000000001976a914896c257af37d39d01e3524ce7294b8198eb3576488ac00000000"
    }, 
    {
      "txid": "ee8c0a27fc5c84c1d730c2a30dc604fa1378d3a2c844054dcd6d215576326871",
      "hash": "ee8c0a27fc5c84c1d730c2a30dc604fa1378d3a2c844054dcd6d215576326871",
      "version": 1,
      "size": 226,
      "vsize": 226,
      "locktime": 0,
      "vin": [
        {
          "txid": "a6515c22182b63caca1fcd82b36240f33d9dbb1c7ac0d32fbb453347ad1301a8",
          "vout": 14,
          "scriptSig": {
            "asm": "3045022100a74d5fa825d2d420629f0539d021e25dc764012f670c8c94c3203073371e6ddc02204f7a0e25bb354275721203210ddf9a02d316b2d2e9ec21269872b7fc2298d4cc[ALL] 03b555297f27be5539fbc1a02c49a000ddd502b433227b1a3b1c96ffc1d74e7b78",
            "hex": "483045022100a74d5fa825d2d420629f0539d021e25dc764012f670c8c94c3203073371e6ddc02204f7a0e25bb354275721203210ddf9a02d316b2d2e9ec21269872b7fc2298d4cc012103b555297f27be5539fbc1a02c49a000ddd502b433227b1a3b1c96ffc1d74e7b78"
          },
          "sequence": 4294967295
        }
      ],
      "vout": [
        {
          "value": 0.00782915,
          "n": 0,
          "scriptPubKey": {
            "asm": "OP_DUP OP_HASH160 174f2da21cd03bb5a34e6cfd44ee5024001bc901 OP_EQUALVERIFY OP_CHECKSIG",
            "hex": "76a914174f2da21cd03bb5a34e6cfd44ee5024001bc90188ac",
            "reqSigs": 1,
            "type": "pubkeyhash",
            "addresses": [
              "LMMCf2W6r2SJ8Wqa2r35qmiGQ8Nfch5Rnc"
            ]
          }
        }, 
        {
          "value": 0.21194485,
          "n": 1,
          "scriptPubKey": {
            "asm": "OP_DUP OP_HASH160 63fc7e01b24a30383eed7d307be92f60e414981f OP_EQUALVERIFY OP_CHECKSIG",
            "hex": "76a91463fc7e01b24a30383eed7d307be92f60e414981f88ac",
            "reqSigs": 1,
            "type": "pubkeyhash",
            "addresses": [
              "LULddfricfPMrYf7i9iMDPZY3suJVhQSNc"
            ]
          }
        }
      ],
      "hex": "0100000001a80113ad473345bb2fd3c07a1cbb9d3df34062b382cd1fcaca632b18225c51a60e0000006b483045022100a74d5fa825d2d420629f0539d021e25dc764012f670c8c94c3203073371e6ddc02204f7a0e25bb354275721203210ddf9a02d316b2d2e9ec21269872b7fc2298d4cc012103b555297f27be5539fbc1a02c49a000ddd502b433227b1a3b1c96ffc1d74e7b78ffffffff0243f20b00000000001976a914174f2da21cd03bb5a34e6cfd44ee5024001bc90188acf5664301000000001976a91463fc7e01b24a30383eed7d307be92f60e414981f88ac00000000"
    }, 
    {
      "txid": "10bf2b0f3be119903c79b0affef4db4127b45d8068b63282febd9eb637690f8e",
      "hash": "10bf2b0f3be119903c79b0affef4db4127b45d8068b63282febd9eb637690f8e",
      "version": 1,
      "size": 226,
      "vsize": 226,
      "locktime": 0,
      "vin": [
        {
          "txid": "f1986f2bcb8609bbec1da7cec8d83fea0a213e075f7781d8fd76e8b0c9dee83e",
          "vout": 0,
          "scriptSig": {
            "asm": "3045022100d96ebf26c27f58a08bc47bf1918f6d3c6d6cf9570c3c371cb5f3c3f967124286022051089328a4f0c787ace9941f6dcec37c85a70a64a1f64c2d8a70cbd076fb1a25[ALL] 024793ebe2bffdb61e227766b288a61a24d2c1ef64c03a947295d6c29d90811178",
            "hex": "483045022100d96ebf26c27f58a08bc47bf1918f6d3c6d6cf9570c3c371cb5f3c3f967124286022051089328a4f0c787ace9941f6dcec37c85a70a64a1f64c2d8a70cbd076fb1a250121024793ebe2bffdb61e227766b288a61a24d2c1ef64c03a947295d6c29d90811178"
          },
          "sequence": 4294967295
        }
      ],
      "vout": [
        {
          "value": 1.74977400,
          "n": 0,
          "scriptPubKey": {
            "asm": "OP_DUP OP_HASH160 8848a8d3025178a94c0bb1b08ac0c5aeccb3bad9 OP_EQUALVERIFY OP_CHECKSIG",
            "hex": "76a9148848a8d3025178a94c0bb1b08ac0c5aeccb3bad988ac",
            "reqSigs": 1,
            "type": "pubkeyhash",
            "addresses": [
              "LXeZCmdvavodL5cX4vv4D4Ah5kCmnPWPsZ"
            ]
          }
        }, 
        {
          "value": 0.06230742,
          "n": 1,
          "scriptPubKey": {
            "asm": "OP_DUP OP_HASH160 4b40662e469915b6e25155cde32305fc85f13659 OP_EQUALVERIFY OP_CHECKSIG",
            "hex": "76a9144b40662e469915b6e25155cde32305fc85f1365988ac",
            "reqSigs": 1,
            "type": "pubkeyhash",
            "addresses": [
              "LS5r68ZjVewX5q7DJTjKirqwgnwsZUYecZ"
            ]
          }
        }
      ],
      "hex": "01000000013ee8dec9b0e876fdd881775f073e210aea3fd8c8cea71decbb0986cb2b6f98f1000000006b483045022100d96ebf26c27f58a08bc47bf1918f6d3c6d6cf9570c3c371cb5f3c3f967124286022051089328a4f0c787ace9941f6dcec37c85a70a64a1f64c2d8a70cbd076fb1a250121024793ebe2bffdb61e227766b288a61a24d2c1ef64c03a947295d6c29d90811178ffffffff0278f16d0a000000001976a9148848a8d3025178a94c0bb1b08ac0c5aeccb3bad988acd6125f00000000001976a9144b40662e469915b6e25155cde32305fc85f1365988ac00000000"
    }
  ],
  "time": 1516988961,
  "mediantime": 1516987695,
  "nonce": 48848678,
  "bits": "1a047f14",
  "difficulty": 3731199.183374282,
  "chainwork": "0000000000000000000000000000000000000000000000321f0de3c1d1f3efd0",
  "previousblockhash": "a1baadef09f95fb09b76885a2989a1e3f2e894597ae7612c7bb36bac0f6fec6f",
  "nextblockhash": "bcae2e92685d5d9b342c4729730d3a495a402d3bc9987f80a6348ae1b127504a"
}
