{
  "hash": "e5b267adb84685e22794c8c31b5ba9af52be5c87663767f4048aacf2c6875ed6",
  "confirmations": 1030,
  "strippedsize": 234,
  "size": 234,
  "weight": 936,
  "height": 1359964,
  "version": 536870912,
  "versionHex": "20000000",
  "merkleroot": "918de1826d3773a314da3bb8cb46d722ded959487c3c841d7b85b3aa207b9ed1",
  "tx": [
    {
      "txid": "918de1826d3773a314da3bb8cb46d722ded959487c3c841d7b85b3aa207b9ed1",
      "hash": "918de1826d3773a314da3bb8cb46d722ded959487c3c841d7b85b3aa207b9ed1",
      "version": 1,
      "size": 153,
      "vsize": 153,
      "locktime": 0,
      "vin": [
        {
          "coinbase": "035cc014045a71001f2cfabe6d6d83c526d0448fa1f43de94f29b7f92fe0d4b54c167a64a9b004bbf2c9f3253e274000000000000000042f4c502f082200a9c701000000",
          "sequence": 4294967295
        }
      ],
      "vout": [
        {
          "value": 25.00000000,
          "n": 0,
          "scriptPubKey": {
            "asm": "OP_DUP OP_HASH160 57757ed2ecf2052ff3126c397aca7defb9ca2cec OP_EQUALVERIFY OP_CHECKSIG",
            "hex": "76a91457757ed2ecf2052ff3126c397aca7defb9ca2cec88ac",
            "reqSigs": 1,
            "type": "pubkeyhash",
            "addresses": [
              "LTCPodGk5FwcJaRzH9yKnwicxzFUbxp6tN"
            ]
          }
        }
      ],
      "hex": "01000000010000000000000000000000000000000000000000000000000000000000000000ffffffff44035cc014045a71001f2cfabe6d6d83c526d0448fa1f43de94f29b7f92fe0d4b54c167a64a9b004bbf2c9f3253e274000000000000000042f4c502f082200a9c701000000ffffffff0100f90295000000001976a91457757ed2ecf2052ff3126c397aca7defb9ca2cec88ac00000000"
    }
  ],
  "time": 1517355039,
  "mediantime": 1517354813,
  "nonce": 1573179912,
  "bits": "1a042eae",
  "difficulty": 4011378.762614286,
  "chainwork": "0000000000000000000000000000000000000000000000347f06997da32fa13a",
  "previousblockhash": "dbdcc96d6516ad338a612cb499fa7c466044db7590ef4827a531e8cf6b7d2471",
  "nextblockhash": "d0d3dabe64d686f87ba22614a733c52921013bfda34a75e47095f77b29865bc1"
}
