{
  "hash": "e5c1a208a12c5b8c21bab52714b619c79bdc92663157bde611250d285df1fb7c",
  "confirmations": 3328,
  "strippedsize": 2826,
  "size": 2862,
  "weight": 11340,
  "height": 1357667,
  "version": 536870912,
  "versionHex": "20000000",
  "merkleroot": "c17811206512daf1e7736b606a01204db71d3fc9ff1a873478d1780d2e2828bd",
  "tx": [
    {
      "txid": "e446fa6fa7e3560043f3b03229f787ed69a8fbb9ed287ede41cfbad127d67e61",
      "hash": "7f7e71b75202c648fa8bf9d866c1a5d76b602f8a463a44cf00c5a0d72f2d687e",
      "version": 1,
      "size": 243,
      "vsize": 216,
      "locktime": 0,
      "vin": [
        {
          "coinbase": "0363b7140466146c5afabe6d6d8ea0e56cbeb3dbd7a12b98bc2d2a92f416d08d145eb26a335e1a3aa4463402861000000000000000084800019d0e0000000c2f4f36384b4d34354533452f",
          "sequence": 0
        }
      ],
      "vout": [
        {
          "value": 25.00727285,
          "n": 0,
          "scriptPubKey": {
            "asm": "OP_DUP OP_HASH160 81308472f5a29a68cec40cbb4cd3f4be72094456 OP_EQUALVERIFY OP_CHECKSIG",
            "hex": "76a91481308472f5a29a68cec40cbb4cd3f4be7209445688ac",
            "reqSigs": 1,
            "type": "pubkeyhash",
            "addresses": [
              "LX13Z1HZKVzRDabi8CsPdGhp7YbC7Q8qtn"
            ]
          }
        }, 
        {
          "value": 0.00000000,
          "n": 1,
          "scriptPubKey": {
            "asm": "OP_RETURN aa21a9ed71a720bc7220e235e78b4d77e7551ad26aa77454bc20a133edf084b9c67896d6",
            "hex": "6a24aa21a9ed71a720bc7220e235e78b4d77e7551ad26aa77454bc20a133edf084b9c67896d6",
            "type": "nulldata"
          }
        }
      ],
      "hex": "010000000001010000000000000000000000000000000000000000000000000000000000000000ffffffff4b0363b7140466146c5afabe6d6d8ea0e56cbeb3dbd7a12b98bc2d2a92f416d08d145eb26a335e1a3aa4463402861000000000000000084800019d0e0000000c2f4f36384b4d34354533452f0000000002f5110e95000000001976a91481308472f5a29a68cec40cbb4cd3f4be7209445688ac0000000000000000266a24aa21a9ed71a720bc7220e235e78b4d77e7551ad26aa77454bc20a133edf084b9c67896d60120000000000000000000000000000000000000000000000000000000000000000000000000"
    }, 
    {
      "txid": "de38274dccb9f87ddde10f18fe2c8915cdd58b9bed282d8fa55d380de6cc4bad",
      "hash": "de38274dccb9f87ddde10f18fe2c8915cdd58b9bed282d8fa55d380de6cc4bad",
      "version": 1,
      "size": 225,
      "vsize": 225,
      "locktime": 0,
      "vin": [
        {
          "txid": "dca7f393b02bbe5e46298b5da31c179e9aa2914cf34d152fa0ad29215db4a65d",
          "vout": 0,
          "scriptSig": {
            "asm": "304402202ee9608468fa5d498499c2516976464273c009bcb10ecb5212b67617cf675292022048f7e39a19f396741f8773b83175032e4ed4e69c2839a0e46c8f5f0adeffcd93[ALL] 0344628e6074d187f1549990d60f76ee35db7b25401a4d46c84004c76a4dae9eee",
            "hex": "47304402202ee9608468fa5d498499c2516976464273c009bcb10ecb5212b67617cf675292022048f7e39a19f396741f8773b83175032e4ed4e69c2839a0e46c8f5f0adeffcd9301210344628e6074d187f1549990d60f76ee35db7b25401a4d46c84004c76a4dae9eee"
          },
          "sequence": 4294967295
        }
      ],
      "vout": [
        {
          "value": 0.27862914,
          "n": 0,
          "scriptPubKey": {
            "asm": "OP_DUP OP_HASH160 10a32dee4195f051e4fbdc6344483c7fb156b122 OP_EQUALVERIFY OP_CHECKSIG",
            "hex": "76a91410a32dee4195f051e4fbdc6344483c7fb156b12288ac",
            "reqSigs": 1,
            "type": "pubkeyhash",
            "addresses": [
              "LLjvZBo8PkwmVGYHbVX8vyVNbBgHWSvuS4"
            ]
          }
        }, 
        {
          "value": 0.46695590,
          "n": 1,
          "scriptPubKey": {
            "asm": "OP_DUP OP_HASH160 21ae1f65c17296158a0699ed770b00f4a3668b8e OP_EQUALVERIFY OP_CHECKSIG",
            "hex": "76a91421ae1f65c17296158a0699ed770b00f4a3668b8e88ac",
            "reqSigs": 1,
            "type": "pubkeyhash",
            "addresses": [
              "LNJ39oBKLfAmwk7C8jL8nWnWHWDTw7zq2S"
            ]
          }
        }
      ],
      "hex": "01000000015da6b45d2129ada02f154df34c91a29a9e171ca35d8b29465ebe2bb093f3a7dc000000006a47304402202ee9608468fa5d498499c2516976464273c009bcb10ecb5212b67617cf675292022048f7e39a19f396741f8773b83175032e4ed4e69c2839a0e46c8f5f0adeffcd9301210344628e6074d187f1549990d60f76ee35db7b25401a4d46c84004c76a4dae9eeeffffffff028227a901000000001976a91410a32dee4195f051e4fbdc6344483c7fb156b12288aca684c802000000001976a91421ae1f65c17296158a0699ed770b00f4a3668b8e88ac00000000"
    }, 
    {
      "txid": "b58640c3ad0976ebd0981fa9137183c500e6e7f64f1fcb9abcc3dc8691628097",
      "hash": "b58640c3ad0976ebd0981fa9137183c500e6e7f64f1fcb9abcc3dc8691628097",
      "version": 1,
      "size": 373,
      "vsize": 373,
      "locktime": 0,
      "vin": [
        {
          "txid": "f879258ad8fd7f7906e0220298c73403a47beedc0bb5f8d49998ca54d37e60f4",
          "vout": 0,
          "scriptSig": {
            "asm": "304402202af9d2bedf0471c109d69b94c3d8ac9a284dfc10c1f04a41c7ca2699c11005530220561f846cf20fd3f7452ef0bf5630eedbdffcf2b4b0c13718479bf58b7058d365[ALL] 02cd765e48e2f6cf4989be0fddf1c6cffb777cad686fe1f3c1cd15eec0d3862592",
            "hex": "47304402202af9d2bedf0471c109d69b94c3d8ac9a284dfc10c1f04a41c7ca2699c11005530220561f846cf20fd3f7452ef0bf5630eedbdffcf2b4b0c13718479bf58b7058d365012102cd765e48e2f6cf4989be0fddf1c6cffb777cad686fe1f3c1cd15eec0d3862592"
          },
          "sequence": 4294967295
        }, 
        {
          "txid": "cb33cfdb5da9e138889a9284a2788ba0e8de9ef6d97a5538363c14b01b377c66",
          "vout": 6,
          "scriptSig": {
            "asm": "3045022100ce060a67a85ae53bf81b2d415b55d4fc2833aed35f6f67cfd185ace48524991a022048733ca8c726bcd7ed1043f0308fc4c3bc17e5b58a339a1ada30a9994eced5f2[ALL] 037874a6692e265020d18130d154a1eaf3e94a3e51bebe5a07b5178c30001ae0c5",
            "hex": "483045022100ce060a67a85ae53bf81b2d415b55d4fc2833aed35f6f67cfd185ace48524991a022048733ca8c726bcd7ed1043f0308fc4c3bc17e5b58a339a1ada30a9994eced5f20121037874a6692e265020d18130d154a1eaf3e94a3e51bebe5a07b5178c30001ae0c5"
          },
          "sequence": 4294967295
        }
      ],
      "vout": [
        {
          "value": 0.16800000,
          "n": 0,
          "scriptPubKey": {
            "asm": "OP_DUP OP_HASH160 1dae55cc5a67ccd86a4b93f4bf4184f13ce3fdff OP_EQUALVERIFY OP_CHECKSIG",
            "hex": "76a9141dae55cc5a67ccd86a4b93f4bf4184f13ce3fdff88ac",
            "reqSigs": 1,
            "type": "pubkeyhash",
            "addresses": [
              "LMvtho3Q9oSEKWJMHcqfytMpuEgd9CWTo7"
            ]
          }
        }, 
        {
          "value": 0.00068600,
          "n": 1,
          "scriptPubKey": {
            "asm": "OP_DUP OP_HASH160 b4a91004420a2c396bfffc00284c9ee4a7e7d831 OP_EQUALVERIFY OP_CHECKSIG",
            "hex": "76a914b4a91004420a2c396bfffc00284c9ee4a7e7d83188ac",
            "reqSigs": 1,
            "type": "pubkeyhash",
            "addresses": [
              "LbhCRR3nC1UVanZZgh8NjD4iEqWspgm948"
            ]
          }
        }
      ],
      "hex": "0100000002f4607ed354ca9899d4f8b50bdcee7ba40334c7980222e006797ffdd88a2579f8000000006a47304402202af9d2bedf0471c109d69b94c3d8ac9a284dfc10c1f04a41c7ca2699c11005530220561f846cf20fd3f7452ef0bf5630eedbdffcf2b4b0c13718479bf58b7058d365012102cd765e48e2f6cf4989be0fddf1c6cffb777cad686fe1f3c1cd15eec0d3862592ffffffff667c371bb0143c3638557ad9f69edee8a08b78a284929a8838e1a95ddbcf33cb060000006b483045022100ce060a67a85ae53bf81b2d415b55d4fc2833aed35f6f67cfd185ace48524991a022048733ca8c726bcd7ed1043f0308fc4c3bc17e5b58a339a1ada30a9994eced5f20121037874a6692e265020d18130d154a1eaf3e94a3e51bebe5a07b5178c30001ae0c5ffffffff0200590001000000001976a9141dae55cc5a67ccd86a4b93f4bf4184f13ce3fdff88acf80b0100000000001976a914b4a91004420a2c396bfffc00284c9ee4a7e7d83188ac00000000"
    }, 
    {
      "txid": "9a2bc06d57dc8d091a0af1546b77038057044d6bac1c88a967489b96e337d08b",
      "hash": "9a2bc06d57dc8d091a0af1546b77038057044d6bac1c88a967489b96e337d08b",
      "version": 2,
      "size": 815,
      "vsize": 815,
      "locktime": 0,
      "vin": [
        {
          "txid": "e0e695ed65ca6c1c0188c3bfb96cb61a29e39f497bdfe1c5c431934fd0962a8d",
          "vout": 0,
          "scriptSig": {
            "asm": "3044022020e6bc18d256a2c43ce5824868ffbc4a4ff5ae95fc93f5400d85bd8bb46852440220104cb232e1a942c424d197df6b2df0d1baa1014fff04ff40bab76f2517ccf550[ALL] 02579d3d7b93bc7e61ab89bf290c0bab6a765d22d5371988ccf1d929fd848c265f",
            "hex": "473044022020e6bc18d256a2c43ce5824868ffbc4a4ff5ae95fc93f5400d85bd8bb46852440220104cb232e1a942c424d197df6b2df0d1baa1014fff04ff40bab76f2517ccf550012102579d3d7b93bc7e61ab89bf290c0bab6a765d22d5371988ccf1d929fd848c265f"
          },
          "sequence": 0
        }, 
        {
          "txid": "74ae5327ea2b572e42cbe55d3665bf4ec8c3ecc2b4417506b05f44d92beb39c5",
          "vout": 0,
          "scriptSig": {
            "asm": "30440220192a12c9854590c63492ff6eb85b8ea93115c6243e5aa4eccef5f86628d8c49b02202e11d09e855f335a12e1383af225a54863a88f70ea94a68ccbc4c82daa0ba801[ALL] 02602228bf5e6c987fc5c1be61b4b478f4642cda46f6971741dcd78364b51b89c8",
            "hex": "4730440220192a12c9854590c63492ff6eb85b8ea93115c6243e5aa4eccef5f86628d8c49b02202e11d09e855f335a12e1383af225a54863a88f70ea94a68ccbc4c82daa0ba801012102602228bf5e6c987fc5c1be61b4b478f4642cda46f6971741dcd78364b51b89c8"
          },
          "sequence": 0
        }, 
        {
          "txid": "3c035b79bafdfa5628319bbd3b14bc561ae17718f11bfb7cdd3017d83c91fb67",
          "vout": 24,
          "scriptSig": {
            "asm": "3045022100f8eb31d102033b2166f8c01b019169b4264bd45f6765071fc34e5a70e20213cd0220629caa67e6c3dd9693f7e9a5e0a125568f2b8e0ee5b447ea3c779a4a3190a37f[ALL] 0349b608cd0f90703b9492e08edfbeb9d4e528298d279668e7fb391ca29b778986",
            "hex": "483045022100f8eb31d102033b2166f8c01b019169b4264bd45f6765071fc34e5a70e20213cd0220629caa67e6c3dd9693f7e9a5e0a125568f2b8e0ee5b447ea3c779a4a3190a37f01210349b608cd0f90703b9492e08edfbeb9d4e528298d279668e7fb391ca29b778986"
          },
          "sequence": 0
        }, 
        {
          "txid": "0ba7182799aa141cc16ea89f76fdbbb8f1941a8ed0f32d8c21922530c5c8fd15",
          "vout": 1,
          "scriptSig": {
            "asm": "3044022067fb01f18a1cf47008cad38da51c62ca2490730f684427f0dc2340d2e17f92f902206f4c3c90eda02aec80a317e9644bdf33343617f3c15faf21a7ad6de5e60dbae3[ALL] 02ad42621c7ccbd85bf1e023b96dccc90117fe817d64c9cffc7e1494cc8c7699a0",
            "hex": "473044022067fb01f18a1cf47008cad38da51c62ca2490730f684427f0dc2340d2e17f92f902206f4c3c90eda02aec80a317e9644bdf33343617f3c15faf21a7ad6de5e60dbae3012102ad42621c7ccbd85bf1e023b96dccc90117fe817d64c9cffc7e1494cc8c7699a0"
          },
          "sequence": 0
        }, 
        {
          "txid": "1585985041aa3ce52ed5a3df2a9916fb0b6a30b4a9d8b2225932d68fc9632130",
          "vout": 1,
          "scriptSig": {
            "asm": "3045022100822af8613a1e4121952e0dd618f917fb7babc4e04a1d9333d156b1b12441a2b602202deaa5d65400d1f890139aeddc80ecfb3397dee91fc71c8d537ce8a73b58503b[ALL] 02b0b4bacc09ed12fc139f98f3b744ba264b1eaa7cce98f8edb07ec96925bbc48c",
            "hex": "483045022100822af8613a1e4121952e0dd618f917fb7babc4e04a1d9333d156b1b12441a2b602202deaa5d65400d1f890139aeddc80ecfb3397dee91fc71c8d537ce8a73b58503b012102b0b4bacc09ed12fc139f98f3b744ba264b1eaa7cce98f8edb07ec96925bbc48c"
          },
          "sequence": 0
        }
      ],
      "vout": [
        {
          "value": 4.59254557,
          "n": 0,
          "scriptPubKey": {
            "asm": "OP_DUP OP_HASH160 c8641ac9cc5e095cf6b1818ad37e572d13b802ed OP_EQUALVERIFY OP_CHECKSIG",
            "hex": "76a914c8641ac9cc5e095cf6b1818ad37e572d13b802ed88ac",
            "reqSigs": 1,
            "type": "pubkeyhash",
            "addresses": [
              "LdVXKyJWULcuFTFaw3cgvtHZ6J8mTE88iN"
            ]
          }
        }, 
        {
          "value": 0.11370736,
          "n": 1,
          "scriptPubKey": {
            "asm": "OP_DUP OP_HASH160 13776ecb3b7afb6702b225bc0de8fdebcc2d8843 OP_EQUALVERIFY OP_CHECKSIG",
            "hex": "76a91413776ecb3b7afb6702b225bc0de8fdebcc2d884388ac",
            "reqSigs": 1,
            "type": "pubkeyhash",
            "addresses": [
              "LLztBCAvTge4G2W2YkPspEjivwjFtXWNBh"
            ]
          }
        }
      ],
      "hex": "02000000058d2a96d04f9331c4c5e1df7b499fe3291ab66cb9bfc388011c6cca65ed95e6e0000000006a473044022020e6bc18d256a2c43ce5824868ffbc4a4ff5ae95fc93f5400d85bd8bb46852440220104cb232e1a942c424d197df6b2df0d1baa1014fff04ff40bab76f2517ccf550012102579d3d7b93bc7e61ab89bf290c0bab6a765d22d5371988ccf1d929fd848c265f00000000c539eb2bd9445fb0067541b4c2ecc3c84ebf65365de5cb422e572bea2753ae74000000006a4730440220192a12c9854590c63492ff6eb85b8ea93115c6243e5aa4eccef5f86628d8c49b02202e11d09e855f335a12e1383af225a54863a88f70ea94a68ccbc4c82daa0ba801012102602228bf5e6c987fc5c1be61b4b478f4642cda46f6971741dcd78364b51b89c80000000067fb913cd81730dd7cfb1bf11877e11a56bc143bbd9b312856fafdba795b033c180000006b483045022100f8eb31d102033b2166f8c01b019169b4264bd45f6765071fc34e5a70e20213cd0220629caa67e6c3dd9693f7e9a5e0a125568f2b8e0ee5b447ea3c779a4a3190a37f01210349b608cd0f90703b9492e08edfbeb9d4e528298d279668e7fb391ca29b7789860000000015fdc8c5302592218c2df3d08e1a94f1b8bbfd769fa86ec11c14aa992718a70b010000006a473044022067fb01f18a1cf47008cad38da51c62ca2490730f684427f0dc2340d2e17f92f902206f4c3c90eda02aec80a317e9644bdf33343617f3c15faf21a7ad6de5e60dbae3012102ad42621c7ccbd85bf1e023b96dccc90117fe817d64c9cffc7e1494cc8c7699a000000000302163c98fd6325922b2d8a9b4306a0bfb16992adfa3d52ee53caa4150988515010000006b483045022100822af8613a1e4121952e0dd618f917fb7babc4e04a1d9333d156b1b12441a2b602202deaa5d65400d1f890139aeddc80ecfb3397dee91fc71c8d537ce8a73b58503b012102b0b4bacc09ed12fc139f98f3b744ba264b1eaa7cce98f8edb07ec96925bbc48c00000000021dab5f1b000000001976a914c8641ac9cc5e095cf6b1818ad37e572d13b802ed88acf080ad00000000001976a91413776ecb3b7afb6702b225bc0de8fdebcc2d884388ac00000000"
    }, 
    {
      "txid": "cca10c47bd0724a1b97a9a33b6e163580671c3580a05ebe1cc8995b623de00c5",
      "hash": "cca10c47bd0724a1b97a9a33b6e163580671c3580a05ebe1cc8995b623de00c5",
      "version": 1,
      "size": 225,
      "vsize": 225,
      "locktime": 0,
      "vin": [
        {
          "txid": "4258c637654eacc6de3310cb5696eecfb19041c7307ffb12d2051d244be58cc4",
          "vout": 0,
          "scriptSig": {
            "asm": "30440220759375e08b79e52d7356d4eb8cb12e54cce082d4350ff55590b8b93b329f791f02204c5ff2f989b13fe6493937fa6ec2415b50e84cedce952f7a8805538cda68cb9b[ALL] 02d9c05892fcfab95c05958f0286c1840ced6abceb32b87f96dd4bf161086c980d",
            "hex": "4730440220759375e08b79e52d7356d4eb8cb12e54cce082d4350ff55590b8b93b329f791f02204c5ff2f989b13fe6493937fa6ec2415b50e84cedce952f7a8805538cda68cb9b012102d9c05892fcfab95c05958f0286c1840ced6abceb32b87f96dd4bf161086c980d"
          },
          "sequence": 4294967295
        }
      ],
      "vout": [
        {
          "value": 4.00900000,
          "n": 0,
          "scriptPubKey": {
            "asm": "OP_DUP OP_HASH160 b57e757da371777300da89934820fb6db54f4996 OP_EQUALVERIFY OP_CHECKSIG",
            "hex": "76a914b57e757da371777300da89934820fb6db54f499688ac",
            "reqSigs": 1,
            "type": "pubkeyhash",
            "addresses": [
              "Lbmc4TQXsuguWi7eKG9PWgr1p4mY9JpvzY"
            ]
          }
        }, 
        {
          "value": 2.93453259,
          "n": 1,
          "scriptPubKey": {
            "asm": "OP_DUP OP_HASH160 0b1cee5656ffaee45b73305f37a24b14d53989b1 OP_EQUALVERIFY OP_CHECKSIG",
            "hex": "76a9140b1cee5656ffaee45b73305f37a24b14d53989b188ac",
            "reqSigs": 1,
            "type": "pubkeyhash",
            "addresses": [
              "LLEiMV4VCLU3uFq3x4bGF5RkNtBYpL4Fwv"
            ]
          }
        }
      ],
      "hex": "0100000001c48ce54b241d05d212fb7f30c74190b1cfee9656cb1033dec6ac4e6537c65842000000006a4730440220759375e08b79e52d7356d4eb8cb12e54cce082d4350ff55590b8b93b329f791f02204c5ff2f989b13fe6493937fa6ec2415b50e84cedce952f7a8805538cda68cb9b012102d9c05892fcfab95c05958f0286c1840ced6abceb32b87f96dd4bf161086c980dffffffff02a03fe517000000001976a914b57e757da371777300da89934820fb6db54f499688accbbd7d11000000001976a9140b1cee5656ffaee45b73305f37a24b14d53989b188ac00000000"
    }, 
    {
      "txid": "1ada18c033d2e47afa2f79d0c1dab61f305f031241af5a6b34fae7e0b30e3061",
      "hash": "1ada18c033d2e47afa2f79d0c1dab61f305f031241af5a6b34fae7e0b30e3061",
      "version": 1,
      "size": 225,
      "vsize": 225,
      "locktime": 0,
      "vin": [
        {
          "txid": "4e9f99d547536adedab3b1a075de0af6005116ac94b4302749a98ae48a40d7d4",
          "vout": 1,
          "scriptSig": {
            "asm": "304402206aa15a62396508c9cf96a58ab648734949eb1f5787dd50024c6a406f7930a1f702205bb09a0f966171486eeb1b036c00d4af639e42071a32c2e0741cbfc4fe77cd98[ALL] 03876c9446c508c84e92e75ad03f4239dfda4b9b901085761dc89735d901f61e6b",
            "hex": "47304402206aa15a62396508c9cf96a58ab648734949eb1f5787dd50024c6a406f7930a1f702205bb09a0f966171486eeb1b036c00d4af639e42071a32c2e0741cbfc4fe77cd98012103876c9446c508c84e92e75ad03f4239dfda4b9b901085761dc89735d901f61e6b"
          },
          "sequence": 4294967295
        }
      ],
      "vout": [
        {
          "value": 0.19176933,
          "n": 0,
          "scriptPubKey": {
            "asm": "OP_DUP OP_HASH160 49c839c4e3886b2104ce0b9b298476a41cb482a7 OP_EQUALVERIFY OP_CHECKSIG",
            "hex": "76a91449c839c4e3886b2104ce0b9b298476a41cb482a788ac",
            "reqSigs": 1,
            "type": "pubkeyhash",
            "addresses": [
              "LRx5T93GCTKRPFm7qz8iG1GViRZoN72aAp"
            ]
          }
        }, 
        {
          "value": 1.38417277,
          "n": 1,
          "scriptPubKey": {
            "asm": "OP_DUP OP_HASH160 5d308d06a36fba276edf24bc027ca7f197ca1d0b OP_EQUALVERIFY OP_CHECKSIG",
            "hex": "76a9145d308d06a36fba276edf24bc027ca7f197ca1d0b88ac",
            "reqSigs": 1,
            "type": "pubkeyhash",
            "addresses": [
              "LTihGRm3B7nAskszQitvFzYkLr5ApXBZRw"
            ]
          }
        }
      ],
      "hex": "0100000001d4d7408ae48aa9492730b494ac165100f60ade75a0b1b3dade6a5347d5999f4e010000006a47304402206aa15a62396508c9cf96a58ab648734949eb1f5787dd50024c6a406f7930a1f702205bb09a0f966171486eeb1b036c00d4af639e42071a32c2e0741cbfc4fe77cd98012103876c9446c508c84e92e75ad03f4239dfda4b9b901085761dc89735d901f61e6bffffffff02e59d2401000000001976a91449c839c4e3886b2104ce0b9b298476a41cb482a788ac7d144008000000001976a9145d308d06a36fba276edf24bc027ca7f197ca1d0b88ac00000000"
    }, 
    {
      "txid": "e4920dfde73a0d10ee1a4537a4222b8117e3290c5cfadd2dbdaf7e9abcbc54c2",
      "hash": "e4920dfde73a0d10ee1a4537a4222b8117e3290c5cfadd2dbdaf7e9abcbc54c2",
      "version": 1,
      "size": 225,
      "vsize": 225,
      "locktime": 0,
      "vin": [
        {
          "txid": "92a30cbdbaaa1817ff9a0333f3a36b96f3f044d9d7abdb9fe00176620eee6f44",
          "vout": 0,
          "scriptSig": {
            "asm": "3044022040bccb92f698d02ea0f4ea29606930fad9b440ab76e76007fb0fb49f7c166d170220500b65a3871fb4f0107acddac746cecf8c3ed5ca35757c68739537aaa9090d8d[ALL] 02eac9cc04945ee727ce02c7cc2397a548e2532f7fdf6d19396ba63ac4f97d059c",
            "hex": "473044022040bccb92f698d02ea0f4ea29606930fad9b440ab76e76007fb0fb49f7c166d170220500b65a3871fb4f0107acddac746cecf8c3ed5ca35757c68739537aaa9090d8d012102eac9cc04945ee727ce02c7cc2397a548e2532f7fdf6d19396ba63ac4f97d059c"
          },
          "sequence": 4294967295
        }
      ],
      "vout": [
        {
          "value": 0.00054670,
          "n": 0,
          "scriptPubKey": {
            "asm": "OP_DUP OP_HASH160 1b4b54367114a6eec2a938a6e2ec4703a5d1cd33 OP_EQUALVERIFY OP_CHECKSIG",
            "hex": "76a9141b4b54367114a6eec2a938a6e2ec4703a5d1cd3388ac",
            "reqSigs": 1,
            "type": "pubkeyhash",
            "addresses": [
              "LMiGkLg8XiaoXzgrpVdkaQyuJK74p8stqC"
            ]
          }
        }, 
        {
          "value": 0.03077440,
          "n": 1,
          "scriptPubKey": {
            "asm": "OP_DUP OP_HASH160 160f560790e6275ce72686a3cbe8eb9b7200c6c5 OP_EQUALVERIFY OP_CHECKSIG",
            "hex": "76a914160f560790e6275ce72686a3cbe8eb9b7200c6c588ac",
            "reqSigs": 1,
            "type": "pubkeyhash",
            "addresses": [
              "LMEbW11MXcodAQGf6bJ2Kh9q5WcHSDQUL1"
            ]
          }
        }
      ],
      "hex": "0100000001446fee0e627601e09fdbabd7d944f0f3966ba3f333039aff1718aababd0ca392000000006a473044022040bccb92f698d02ea0f4ea29606930fad9b440ab76e76007fb0fb49f7c166d170220500b65a3871fb4f0107acddac746cecf8c3ed5ca35757c68739537aaa9090d8d012102eac9cc04945ee727ce02c7cc2397a548e2532f7fdf6d19396ba63ac4f97d059cffffffff028ed50000000000001976a9141b4b54367114a6eec2a938a6e2ec4703a5d1cd3388ac40f52e00000000001976a914160f560790e6275ce72686a3cbe8eb9b7200c6c588ac00000000"
    }, 
    {
      "txid": "2d280b73287250292e95cd67173cfaaadb9b6ef60ea3cbeed9254d83780582a3",
      "hash": "2d280b73287250292e95cd67173cfaaadb9b6ef60ea3cbeed9254d83780582a3",
      "version": 1,
      "size": 226,
      "vsize": 226,
      "locktime": 1357665,
      "vin": [
        {
          "txid": "017969cce650d055fb559a85413696002c4a22e8da0f784af0a0c1ddc081e45c",
          "vout": 0,
          "scriptSig": {
            "asm": "3045022100996c1f70c1f23feda0b59a86c4ef9d599929d88727375ef50c73b46237a0e48a0220645448048f3a756117b29cc61133c9c88fe1afd805daadade5e533a7c896ba2b[ALL] 02296ef9f1147af2d6d60e7e670b55bd7b6670694f28c85ec393ee6cc81f7bd37c",
            "hex": "483045022100996c1f70c1f23feda0b59a86c4ef9d599929d88727375ef50c73b46237a0e48a0220645448048f3a756117b29cc61133c9c88fe1afd805daadade5e533a7c896ba2b012102296ef9f1147af2d6d60e7e670b55bd7b6670694f28c85ec393ee6cc81f7bd37c"
          },
          "sequence": 4294967294
        }
      ],
      "vout": [
        {
          "value": 0.00190000,
          "n": 0,
          "scriptPubKey": {
            "asm": "OP_DUP OP_HASH160 7c142a5cffe4eb605fdde9ee5052b60c4208ba8a OP_EQUALVERIFY OP_CHECKSIG",
            "hex": "76a9147c142a5cffe4eb605fdde9ee5052b60c4208ba8a88ac",
            "reqSigs": 1,
            "type": "pubkeyhash",
            "addresses": [
              "LWY2D83MnRfn5neKKc3vjf4KyDaH1HLauA"
            ]
          }
        }, 
        {
          "value": 0.04416723,
          "n": 1,
          "scriptPubKey": {
            "asm": "OP_DUP OP_HASH160 3660739165b3d519cc3f77f6055265192ab1d391 OP_EQUALVERIFY OP_CHECKSIG",
            "hex": "76a9143660739165b3d519cc3f77f6055265192ab1d39188ac",
            "reqSigs": 1,
            "type": "pubkeyhash",
            "addresses": [
              "LQBUJ8o6QgWUfZMBXfQjAyYsMhdU2bLjwc"
            ]
          }
        }
      ],
      "hex": "01000000015ce481c0ddc1a0f04a780fdae8224a2c00963641859a55fb55d050e6cc697901000000006b483045022100996c1f70c1f23feda0b59a86c4ef9d599929d88727375ef50c73b46237a0e48a0220645448048f3a756117b29cc61133c9c88fe1afd805daadade5e533a7c896ba2b012102296ef9f1147af2d6d60e7e670b55bd7b6670694f28c85ec393ee6cc81f7bd37cfeffffff0230e60200000000001976a9147c142a5cffe4eb605fdde9ee5052b60c4208ba8a88acd3644300000000001976a9143660739165b3d519cc3f77f6055265192ab1d39188ac61b71400"
    }, 
    {
      "txid": "b6a85d39b446746d025adad07f5f65dad91c9d3ebf1d2e381cb5d951cee016af",
      "hash": "b6a85d39b446746d025adad07f5f65dad91c9d3ebf1d2e381cb5d951cee016af",
      "version": 2,
      "size": 224,
      "vsize": 224,
      "locktime": 1357665,
      "vin": [
        {
          "txid": "eac5288816e3492572bc3d814996c5cd9c12767ec27c55f8df22de2454e4e400",
          "vout": 1,
          "scriptSig": {
            "asm": "3045022100eec7b537d08abc8b09409b66d3634566ce804ca44e6f668e18dede124df9b123022026562fd53ee73fa2e246f0bce29e9b90f1cc3f559177e15c758f9269a8766d38[ALL] 023e4249ec384a9c8f10381a9f3e9839e0eb74a5172010bff51a5519e7b6ce87b6",
            "hex": "483045022100eec7b537d08abc8b09409b66d3634566ce804ca44e6f668e18dede124df9b123022026562fd53ee73fa2e246f0bce29e9b90f1cc3f559177e15c758f9269a8766d380121023e4249ec384a9c8f10381a9f3e9839e0eb74a5172010bff51a5519e7b6ce87b6"
          },
          "sequence": 4294967294
        }
      ],
      "vout": [
        {
          "value": 61.79954038,
          "n": 0,
          "scriptPubKey": {
            "asm": "OP_DUP OP_HASH160 b8a04bd42a8f7a727deb3a80d3e6a36c460571bd OP_EQUALVERIFY OP_CHECKSIG",
            "hex": "76a914b8a04bd42a8f7a727deb3a80d3e6a36c460571bd88ac",
            "reqSigs": 1,
            "type": "pubkeyhash",
            "addresses": [
              "Lc4Ad5umb181rnTCDxNEXePX36nUg1qQWu"
            ]
          }
        }, 
        {
          "value": 1.84421224,
          "n": 1,
          "scriptPubKey": {
            "asm": "OP_HASH160 84d6733ad92373c0da5f17777dde529851f40218 OP_EQUAL",
            "hex": "a91484d6733ad92373c0da5f17777dde529851f4021887",
            "reqSigs": 1,
            "type": "scripthash",
            "addresses": [
              "ML1YL1NEyswSpFDh6Zur3fmYrtaEsbNbAy"
            ]
          }
        }
      ],
      "hex": "020000000100e4e45424de22dff8557cc27e76129ccdc59649813dbc722549e3168828c5ea010000006b483045022100eec7b537d08abc8b09409b66d3634566ce804ca44e6f668e18dede124df9b123022026562fd53ee73fa2e246f0bce29e9b90f1cc3f559177e15c758f9269a8766d380121023e4249ec384a9c8f10381a9f3e9839e0eb74a5172010bff51a5519e7b6ce87b6feffffff02769d5a70010000001976a914b8a04bd42a8f7a727deb3a80d3e6a36c460571bd88ac680bfe0a0000000017a91484d6733ad92373c0da5f17777dde529851f402188761b71400"
    }
  ],
  "time": 1517032548,
  "mediantime": 1517031966,
  "nonce": 1481935621,
  "bits": "1a047f14",
  "difficulty": 3731199.183374282,
  "chainwork": "0000000000000000000000000000000000000000000000326c73140ad2afa328",
  "previousblockhash": "e71cfb148b74472bba73af082fd794a4b97c8d253539d3ff32c20aebfd80b928",
  "nextblockhash": "456900f4a1202106f0f165bb5ae30b9d5c3081caf75034e26482a6bd880c5408"
}
