{
  "hash": "e60b0c254af97a7bf07b211aba2619a9487d050394d5802403f7994482283851",
  "confirmations": 1828,
  "strippedsize": 5891,
  "size": 6251,
  "weight": 23924,
  "height": 1359166,
  "version": 536870912,
  "versionHex": "20000000",
  "merkleroot": "6be32078b8c3b6c1028b2d3ba3c715be30b23b5a85b8bc97e871377dce22001a",
  "tx": [
    {
      "txid": "877e9a8a2deb7ced8697c527e61cb3e697527f9370da590af59ac806ab7ca30e",
      "hash": "d1125122b08d5d4099b7be26c01bab03f1ed46994da1636cd4b0d40369df3fa4",
      "version": 1,
      "size": 236,
      "vsize": 209,
      "locktime": 0,
      "vin": [
        {
          "coinbase": "033ebd14045a6f53b02cfabe6d6dcba86f539c9357f1e7e9136557afa46315ca19e02dbd5c8d7e4067cac06121804000000000000000042f4c502f082200b30e0a000000",
          "sequence": 4294967295
        }
      ],
      "vout": [
        {
          "value": 25.01150400,
          "n": 0,
          "scriptPubKey": {
            "asm": "OP_DUP OP_HASH160 57757ed2ecf2052ff3126c397aca7defb9ca2cec OP_EQUALVERIFY OP_CHECKSIG",
            "hex": "76a91457757ed2ecf2052ff3126c397aca7defb9ca2cec88ac",
            "reqSigs": 1,
            "type": "pubkeyhash",
            "addresses": [
              "LTCPodGk5FwcJaRzH9yKnwicxzFUbxp6tN"
            ]
          }
        }, 
        {
          "value": 0.00000000,
          "n": 1,
          "scriptPubKey": {
            "asm": "OP_RETURN aa21a9ed0ef525a1ee63aa319ec50d429c5cfc29968ae97df05c1693e8b55c54082c7622",
            "hex": "6a24aa21a9ed0ef525a1ee63aa319ec50d429c5cfc29968ae97df05c1693e8b55c54082c7622",
            "type": "nulldata"
          }
        }
      ],
      "hex": "010000000001010000000000000000000000000000000000000000000000000000000000000000ffffffff44033ebd14045a6f53b02cfabe6d6dcba86f539c9357f1e7e9136557afa46315ca19e02dbd5c8d7e4067cac06121804000000000000000042f4c502f082200b30e0a000000ffffffff02c0861495000000001976a91457757ed2ecf2052ff3126c397aca7defb9ca2cec88ac0000000000000000266a24aa21a9ed0ef525a1ee63aa319ec50d429c5cfc29968ae97df05c1693e8b55c54082c76220120000000000000000000000000000000000000000000000000000000000000000000000000"
    }, 
    {
      "txid": "eb1260a4e8350ad0889d52cd6dbdb141ab285d29bd66da74e13dab566c5d1ece",
      "hash": "eb1260a4e8350ad0889d52cd6dbdb141ab285d29bd66da74e13dab566c5d1ece",
      "version": 2,
      "size": 520,
      "vsize": 520,
      "locktime": 0,
      "vin": [
        {
          "txid": "3def8c7f19e1747db0a36701864a4ead0338809f062b72b0d3a4ff845740cc0d",
          "vout": 196,
          "scriptSig": {
            "asm": "3044022007c08331daa65a8e83a2312b104c6b348c302c8fa6f9ea64ec0f1ef35e03cb8c0220696f5f4023aad93d2114b59aa55e79c8827b5f0d81fbc8fde51d61826c7f2395[ALL] 02447f2f92c398900bc617291d20b870c8bee54d7376b5bceb5ef19e7f601b1dbb",
            "hex": "473044022007c08331daa65a8e83a2312b104c6b348c302c8fa6f9ea64ec0f1ef35e03cb8c0220696f5f4023aad93d2114b59aa55e79c8827b5f0d81fbc8fde51d61826c7f2395012102447f2f92c398900bc617291d20b870c8bee54d7376b5bceb5ef19e7f601b1dbb"
          },
          "sequence": 4294967295
        }, 
        {
          "txid": "3def8c7f19e1747db0a36701864a4ead0338809f062b72b0d3a4ff845740cc0d",
          "vout": 242,
          "scriptSig": {
            "asm": "3045022100febaf140bca24934f76948ce30b541ce1eea4828a9475131dfc053dfed58aea70220012595380f752b917ec88449e3dbe6983c4f38c6b6beee22ad5e2ddadd366bb8[ALL] 024b96a9039ad2ffda2e1edeba3e93982a1442b0a50e0bf9e993e5f5264f2ace3a",
            "hex": "483045022100febaf140bca24934f76948ce30b541ce1eea4828a9475131dfc053dfed58aea70220012595380f752b917ec88449e3dbe6983c4f38c6b6beee22ad5e2ddadd366bb80121024b96a9039ad2ffda2e1edeba3e93982a1442b0a50e0bf9e993e5f5264f2ace3a"
          },
          "sequence": 4294967295
        }, 
        {
          "txid": "f2321685e9cf89be1f54718f8df8499c3c9b254d1cf81a18dbf9d237d44f9f10",
          "vout": 56,
          "scriptSig": {
            "asm": "30440220631e42a4adab592afdc2118a3210415765049543f60e717ca2d085e315fdc41202203452aeccc7a0baa1e9a485fffb89176379073a5718d686d804f774a3b8b9642c[ALL] 0223e0a3242abeedffcfc900b19a1bd44a4143a0f59eb96ab64684e8df20313526",
            "hex": "4730440220631e42a4adab592afdc2118a3210415765049543f60e717ca2d085e315fdc41202203452aeccc7a0baa1e9a485fffb89176379073a5718d686d804f774a3b8b9642c01210223e0a3242abeedffcfc900b19a1bd44a4143a0f59eb96ab64684e8df20313526"
          },
          "sequence": 4294967295
        }
      ],
      "vout": [
        {
          "value": 0.30227331,
          "n": 0,
          "scriptPubKey": {
            "asm": "OP_DUP OP_HASH160 bb6066a0c0ba3076a263a61dc239d23e581a5b14 OP_EQUALVERIFY OP_CHECKSIG",
            "hex": "76a914bb6066a0c0ba3076a263a61dc239d23e581a5b1488ac",
            "reqSigs": 1,
            "type": "pubkeyhash",
            "addresses": [
              "LcJi78skBbwAZC6qXdKhRSP1X3TyqnvTqk"
            ]
          }
        }, 
        {
          "value": 0.05230893,
          "n": 1,
          "scriptPubKey": {
            "asm": "OP_DUP OP_HASH160 5a5036480d67e551c8cf5e46497450dfc4c551fa OP_EQUALVERIFY OP_CHECKSIG",
            "hex": "76a9145a5036480d67e551c8cf5e46497450dfc4c551fa88ac",
            "reqSigs": 1,
            "type": "pubkeyhash",
            "addresses": [
              "LTTVAi1ETxg5QLgbdA8sTQ9Js9fJi7fzhs"
            ]
          }
        }
      ],
      "hex": "02000000030dcc405784ffa4d3b0722b069f803803ad4e4a860167a3b07d74e1197f8cef3dc40000006a473044022007c08331daa65a8e83a2312b104c6b348c302c8fa6f9ea64ec0f1ef35e03cb8c0220696f5f4023aad93d2114b59aa55e79c8827b5f0d81fbc8fde51d61826c7f2395012102447f2f92c398900bc617291d20b870c8bee54d7376b5bceb5ef19e7f601b1dbbffffffff0dcc405784ffa4d3b0722b069f803803ad4e4a860167a3b07d74e1197f8cef3df20000006b483045022100febaf140bca24934f76948ce30b541ce1eea4828a9475131dfc053dfed58aea70220012595380f752b917ec88449e3dbe6983c4f38c6b6beee22ad5e2ddadd366bb80121024b96a9039ad2ffda2e1edeba3e93982a1442b0a50e0bf9e993e5f5264f2ace3affffffff109f4fd437d2f9db181af81c4d259b3c9c49f88d8f71541fbe89cfe9851632f2380000006a4730440220631e42a4adab592afdc2118a3210415765049543f60e717ca2d085e315fdc41202203452aeccc7a0baa1e9a485fffb89176379073a5718d686d804f774a3b8b9642c01210223e0a3242abeedffcfc900b19a1bd44a4143a0f59eb96ab64684e8df20313526ffffffff02833bcd01000000001976a914bb6066a0c0ba3076a263a61dc239d23e581a5b1488ac2dd14f00000000001976a9145a5036480d67e551c8cf5e46497450dfc4c551fa88ac00000000"
    }, 
    {
      "txid": "d1d7703f0939528aeaf6887932bc93983768aba9b3bbbfa83c4bddf9a1741cab",
      "hash": "28f874d5a0ec7bd7fd9715dd3e7198cf05a5fde7e695401a49ad69ecbf0ad6af",
      "version": 1,
      "size": 592,
      "vsize": 349,
      "locktime": 0,
      "vin": [
        {
          "txid": "f11fa3065544223d4b450515394ffb920285354cd4fa761ef3283f84506fe941",
          "vout": 1,
          "scriptSig": {
            "asm": "0014684d8a231bafdd3da90dc3d1d13f75d08c2b1dba",
            "hex": "160014684d8a231bafdd3da90dc3d1d13f75d08c2b1dba"
          },
          "txinwitness": [
            "3044022048abf4d22b7180746beefd5309ea18ed1e57e981b86398fc42382054a0ab36ac022077d599f883e0ff3547af67bb111eed8bf29175eeb05d0cbca1c28aad31ef3e0a01", 
            "03c9a812ee47ff2d83ae1b4a8588180d5868ab2d5d8ddcdc2bad49b17e74d645f9"
          ],
          "sequence": 4294967295
        }, 
        {
          "txid": "57d672938aff34986118c6b64d6e592d1b61ea884617b4d79adbd744d2e0e58c",
          "vout": 0,
          "scriptSig": {
            "asm": "00142bfda98809a19efd49dcade13566ef852b510647",
            "hex": "1600142bfda98809a19efd49dcade13566ef852b510647"
          },
          "txinwitness": [
            "304402200f4521a619d7a024e7cbde21654dac389571b0593cf47a8af09c3b85557ca701022028eaf32a7ea6a3295ecde87b4f2edb25bc31c5df201c62382eaf87d685c8f1a101", 
            "03a96236c5a2b1d86dfa4d2aba5e3da55db09656b594eea1152a87ee4de0ab850d"
          ],
          "sequence": 4294967295
        }, 
        {
          "txid": "1e0057543ec6d3cbc3a423260608447ae771869dfed7d24a9a1783f58a98625e",
          "vout": 0,
          "scriptSig": {
            "asm": "00149b1f2fbfa9e0359ade85d24bb5a6b231916eafdf",
            "hex": "1600149b1f2fbfa9e0359ade85d24bb5a6b231916eafdf"
          },
          "txinwitness": [
            "30450221008fae0f537389b7730d97f4416e354bc5e9ecda27b81e5768df6b17e99e7776af0220134fc14015b89f5e5bbfad1258da068d65ef656f39db1915ced555fcc162fd7901", 
            "0293f3600118a16f9c6b17eab09c2e3826bceb89c8df8d336cd8bfdb4ce3066b4e"
          ],
          "sequence": 4294967295
        }
      ],
      "vout": [
        {
          "value": 50.00000000,
          "n": 0,
          "scriptPubKey": {
            "asm": "OP_DUP OP_HASH160 fdb16bb036ad77033b5f17b36c54276a59c3f414 OP_EQUALVERIFY OP_CHECKSIG",
            "hex": "76a914fdb16bb036ad77033b5f17b36c54276a59c3f41488ac",
            "reqSigs": 1,
            "type": "pubkeyhash",
            "addresses": [
              "LiMMm9dCtoEfat9yVQQe7yGndR4rYP8KAN"
            ]
          }
        }, 
        {
          "value": 0.78839964,
          "n": 1,
          "scriptPubKey": {
            "asm": "OP_HASH160 6cb97eb6a66d0b21aaa66206e105b8617272d285 OP_EQUAL",
            "hex": "a9146cb97eb6a66d0b21aaa66206e105b8617272d28587",
            "reqSigs": 1,
            "type": "scripthash",
            "addresses": [
              "MHp3RZhk3uic8hPxNhAn9o7SosB4aYDSvn"
            ]
          }
        }
      ],
      "hex": "0100000000010341e96f50843f28f31e76fad44c35850292fb4f391505454b3d22445506a31ff10100000017160014684d8a231bafdd3da90dc3d1d13f75d08c2b1dbaffffffff8ce5e0d244d7db9ad7b4174688ea611b2d596e4db6c618619834ff8a9372d65700000000171600142bfda98809a19efd49dcade13566ef852b510647ffffffff5e62988af583179a4ad2d7fe9d8671e77a4408062623a4c3cbd3c63e5457001e00000000171600149b1f2fbfa9e0359ade85d24bb5a6b231916eafdfffffffff0200f2052a010000001976a914fdb16bb036ad77033b5f17b36c54276a59c3f41488ac9c00b3040000000017a9146cb97eb6a66d0b21aaa66206e105b8617272d2858702473044022048abf4d22b7180746beefd5309ea18ed1e57e981b86398fc42382054a0ab36ac022077d599f883e0ff3547af67bb111eed8bf29175eeb05d0cbca1c28aad31ef3e0a012103c9a812ee47ff2d83ae1b4a8588180d5868ab2d5d8ddcdc2bad49b17e74d645f90247304402200f4521a619d7a024e7cbde21654dac389571b0593cf47a8af09c3b85557ca701022028eaf32a7ea6a3295ecde87b4f2edb25bc31c5df201c62382eaf87d685c8f1a1012103a96236c5a2b1d86dfa4d2aba5e3da55db09656b594eea1152a87ee4de0ab850d024830450221008fae0f537389b7730d97f4416e354bc5e9ecda27b81e5768df6b17e99e7776af0220134fc14015b89f5e5bbfad1258da068d65ef656f39db1915ced555fcc162fd7901210293f3600118a16f9c6b17eab09c2e3826bceb89c8df8d336cd8bfdb4ce3066b4e00000000"
    }, 
    {
      "txid": "9bdc0629083faa96b3308d222d0d687043c841d0c600b4e51f88f7a290ffb82f",
      "hash": "9bdc0629083faa96b3308d222d0d687043c841d0c600b4e51f88f7a290ffb82f",
      "version": 1,
      "size": 374,
      "vsize": 374,
      "locktime": 1359163,
      "vin": [
        {
          "txid": "01ebf04f2006a8d7d8c1d8b64f9ceecbca1aee53ea23097a81522c20d1f1a125",
          "vout": 1,
          "scriptSig": {
            "asm": "3045022100ac460c0a4a556bf5046b151ecf2bc827234202d7acec1fbca4e3474c587d189102204e6a496ed5d55e78f8d5486a2a6e03e7ffcb8f0d65717428c4497f183cb356bb[ALL] 032a8409c170f98d8f34df0c4be5c4cc3b1538980ed1069ef6dce1c444695be146",
            "hex": "483045022100ac460c0a4a556bf5046b151ecf2bc827234202d7acec1fbca4e3474c587d189102204e6a496ed5d55e78f8d5486a2a6e03e7ffcb8f0d65717428c4497f183cb356bb0121032a8409c170f98d8f34df0c4be5c4cc3b1538980ed1069ef6dce1c444695be146"
          },
          "sequence": 4294967294
        }, 
        {
          "txid": "8c2de79a53597fb9ba067f575bcd6fdb1b1494863699391b13109e825694e88c",
          "vout": 0,
          "scriptSig": {
            "asm": "3045022100e82cc95065fda5a18915c0141c94e4c81041e8b5d747c05aa3f5e035b11fde3e02201ad05749d0c47b9f724b6e386d5fe12955b4dff3667b4a65e5ea86b30556eca1[ALL] 0396fc8d53677775723bb7ec36a0f980b532ee401cfee2df359b53752c53b778d3",
            "hex": "483045022100e82cc95065fda5a18915c0141c94e4c81041e8b5d747c05aa3f5e035b11fde3e02201ad05749d0c47b9f724b6e386d5fe12955b4dff3667b4a65e5ea86b30556eca101210396fc8d53677775723bb7ec36a0f980b532ee401cfee2df359b53752c53b778d3"
          },
          "sequence": 4294967294
        }
      ],
      "vout": [
        {
          "value": 0.01001074,
          "n": 0,
          "scriptPubKey": {
            "asm": "OP_DUP OP_HASH160 b19443eec8315154d4614421f711bca8b151e015 OP_EQUALVERIFY OP_CHECKSIG",
            "hex": "76a914b19443eec8315154d4614421f711bca8b151e01588ac",
            "reqSigs": 1,
            "type": "pubkeyhash",
            "addresses": [
              "LbQuUpoSuBCNSqw96qXCJ6TWbZkEWqD3f7"
            ]
          }
        }, 
        {
          "value": 3.27824126,
          "n": 1,
          "scriptPubKey": {
            "asm": "OP_DUP OP_HASH160 a0fcfce984eb391fb6838c4e3618026345acb89b OP_EQUALVERIFY OP_CHECKSIG",
            "hex": "76a914a0fcfce984eb391fb6838c4e3618026345acb89b88ac",
            "reqSigs": 1,
            "type": "pubkeyhash",
            "addresses": [
              "LZuBSpHExz4Zp1GGNDcCtnsVc7Gvco7Ebz"
            ]
          }
        }
      ],
      "hex": "010000000225a1f1d1202c52817a0923ea53ee1acacbee9c4fb6d8c1d8d7a806204ff0eb01010000006b483045022100ac460c0a4a556bf5046b151ecf2bc827234202d7acec1fbca4e3474c587d189102204e6a496ed5d55e78f8d5486a2a6e03e7ffcb8f0d65717428c4497f183cb356bb0121032a8409c170f98d8f34df0c4be5c4cc3b1538980ed1069ef6dce1c444695be146feffffff8ce89456829e10131b3999368694141bdb6fcd5b577f06bab97f59539ae72d8c000000006b483045022100e82cc95065fda5a18915c0141c94e4c81041e8b5d747c05aa3f5e035b11fde3e02201ad05749d0c47b9f724b6e386d5fe12955b4dff3667b4a65e5ea86b30556eca101210396fc8d53677775723bb7ec36a0f980b532ee401cfee2df359b53752c53b778d3feffffff0272460f00000000001976a914b19443eec8315154d4614421f711bca8b151e01588acfe328a13000000001976a914a0fcfce984eb391fb6838c4e3618026345acb89b88ac3bbd1400"
    }, 
    {
      "txid": "15f418d91019023adcd2b21d483bee9ca70b297b27ca0840694f2243c143c635",
      "hash": "15f418d91019023adcd2b21d483bee9ca70b297b27ca0840694f2243c143c635",
      "version": 1,
      "size": 519,
      "vsize": 519,
      "locktime": 1359164,
      "vin": [
        {
          "txid": "8125fa1e6660e9e4bbb0694b28a2fd727561cf5bf83a8ae171d71d21f9c9496e",
          "vout": 0,
          "scriptSig": {
            "asm": "304402203792b45e3729f293fa9b822a2efd6c008a1d8c8c790cd8e99dad8f68acc250a602203c386ef65e5b7603b3e7ca1d8fc8fb31402ccd33afbbf0926924528ff7575133[ALL] 03654ee5914a50a4ce2c0c2c3b251afba57b08563a5cbfdabaeea9fe55be7e3dbc",
            "hex": "47304402203792b45e3729f293fa9b822a2efd6c008a1d8c8c790cd8e99dad8f68acc250a602203c386ef65e5b7603b3e7ca1d8fc8fb31402ccd33afbbf0926924528ff7575133012103654ee5914a50a4ce2c0c2c3b251afba57b08563a5cbfdabaeea9fe55be7e3dbc"
          },
          "sequence": 4294967294
        }, 
        {
          "txid": "fa0a4e7a5c753664974b7ccc21621957bba9ed1e0cdec631f1e88bcce54731fe",
          "vout": 0,
          "scriptSig": {
            "asm": "3044022000aa648e4b741ee497660ad9afba2af40b3475a1bc9901039dab4377755ea00f0220294318c59d6b6d8caafd1e1f6c0021f2f1a46678b0f64181027024f49d5ce0bf[ALL] 02e4d6378e20bf4026ec2ca0071d81239483a36733f03b379cf8d0578bb7c54176",
            "hex": "473044022000aa648e4b741ee497660ad9afba2af40b3475a1bc9901039dab4377755ea00f0220294318c59d6b6d8caafd1e1f6c0021f2f1a46678b0f64181027024f49d5ce0bf012102e4d6378e20bf4026ec2ca0071d81239483a36733f03b379cf8d0578bb7c54176"
          },
          "sequence": 4294967294
        }, 
        {
          "txid": "756084ba1f40c5acc05aae7a15747d96f60034d8bc0799f4ee4d9f71e0ad8427",
          "vout": 0,
          "scriptSig": {
            "asm": "304402202f3293f81aa6f4b6fac7b061e798141025e2eafc82781466a9de596ae4afd55a022042fdf082a265770ec49373caa0b16f1f832c135cc8aedd8d4e2bf9ec72c6d0bc[ALL] 023aa09c102d8d52ed50ff11d3b4648514603c067de1c9d3e2aa1a4fdbfb4cdae1",
            "hex": "47304402202f3293f81aa6f4b6fac7b061e798141025e2eafc82781466a9de596ae4afd55a022042fdf082a265770ec49373caa0b16f1f832c135cc8aedd8d4e2bf9ec72c6d0bc0121023aa09c102d8d52ed50ff11d3b4648514603c067de1c9d3e2aa1a4fdbfb4cdae1"
          },
          "sequence": 4294967294
        }
      ],
      "vout": [
        {
          "value": 0.01000024,
          "n": 0,
          "scriptPubKey": {
            "asm": "OP_DUP OP_HASH160 bb3d5da8ad46e31297a7557157b8e0c52be7b6f4 OP_EQUALVERIFY OP_CHECKSIG",
            "hex": "76a914bb3d5da8ad46e31297a7557157b8e0c52be7b6f488ac",
            "reqSigs": 1,
            "type": "pubkeyhash",
            "addresses": [
              "LcHz8rp9bxTqojkDvWgYJpgUhuMsqQgyJa"
            ]
          }
        }, 
        {
          "value": 27.06926270,
          "n": 1,
          "scriptPubKey": {
            "asm": "OP_DUP OP_HASH160 c206d24bdd19de53ac6986cf5a80209935918db2 OP_EQUALVERIFY OP_CHECKSIG",
            "hex": "76a914c206d24bdd19de53ac6986cf5a80209935918db288ac",
            "reqSigs": 1,
            "type": "pubkeyhash",
            "addresses": [
              "LcusXPhVqVNvmVLwur4c2hjqUuA8RsEQhW"
            ]
          }
        }
      ],
      "hex": "01000000036e49c9f9211dd771e18a3af85bcf617572fda2284b69b0bbe4e960661efa2581000000006a47304402203792b45e3729f293fa9b822a2efd6c008a1d8c8c790cd8e99dad8f68acc250a602203c386ef65e5b7603b3e7ca1d8fc8fb31402ccd33afbbf0926924528ff7575133012103654ee5914a50a4ce2c0c2c3b251afba57b08563a5cbfdabaeea9fe55be7e3dbcfefffffffe3147e5cc8be8f131c6de0c1eeda9bb57196221cc7c4b976436755c7a4e0afa000000006a473044022000aa648e4b741ee497660ad9afba2af40b3475a1bc9901039dab4377755ea00f0220294318c59d6b6d8caafd1e1f6c0021f2f1a46678b0f64181027024f49d5ce0bf012102e4d6378e20bf4026ec2ca0071d81239483a36733f03b379cf8d0578bb7c54176feffffff2784ade0719f4deef49907bcd83400f6967d74157aae5ac0acc5401fba846075000000006a47304402202f3293f81aa6f4b6fac7b061e798141025e2eafc82781466a9de596ae4afd55a022042fdf082a265770ec49373caa0b16f1f832c135cc8aedd8d4e2bf9ec72c6d0bc0121023aa09c102d8d52ed50ff11d3b4648514603c067de1c9d3e2aa1a4fdbfb4cdae1feffffff0258420f00000000001976a914bb3d5da8ad46e31297a7557157b8e0c52be7b6f488acbe6a58a1000000001976a914c206d24bdd19de53ac6986cf5a80209935918db288ac3cbd1400"
    }, 
    {
      "txid": "c46fe1fbe5141ea92ca1fc4e7e9b9a0fcbd0f23c11eb215256d492cdec3c6648",
      "hash": "c46fe1fbe5141ea92ca1fc4e7e9b9a0fcbd0f23c11eb215256d492cdec3c6648",
      "version": 2,
      "size": 372,
      "vsize": 372,
      "locktime": 1359163,
      "vin": [
        {
          "txid": "6cb3d6a88c2d0034d294b536d0e5a38be966fcea36bac1eafb04bca17bffb3b0",
          "vout": 1,
          "scriptSig": {
            "asm": "30440220766a18a08fe2fad9150c170aafe0a8009d84eecbfb1b23cc6976cbfd8bba9cb8022026fb80ad41f7f0000c0365aadb492d7ce4157aef8088fd7beb18a9df4fd6a643[ALL] 03d800e3ab4a6c6949aedd71807c3ddced09d7bb6191654fa3f5e65e5defcec5ef",
            "hex": "4730440220766a18a08fe2fad9150c170aafe0a8009d84eecbfb1b23cc6976cbfd8bba9cb8022026fb80ad41f7f0000c0365aadb492d7ce4157aef8088fd7beb18a9df4fd6a643012103d800e3ab4a6c6949aedd71807c3ddced09d7bb6191654fa3f5e65e5defcec5ef"
          },
          "sequence": 4294967294
        }, 
        {
          "txid": "179272bb5c261db1dd171c3a83f95aefaa3dc16d7fbfc859edf44e9fa7078ddc",
          "vout": 674,
          "scriptSig": {
            "asm": "304402201c088909740e8e9094a5e93e39bfaf17fac574a980dc64e15217d37e72e64a23022022b1e353ad65e62ed6226a24392bf40bcc93e906674ad0727fe03abcbf515d08[ALL] 03652ee73542b2c2cb00ebeb7b5d41dadf22a97e416aeaff954ff7d431418d360e",
            "hex": "47304402201c088909740e8e9094a5e93e39bfaf17fac574a980dc64e15217d37e72e64a23022022b1e353ad65e62ed6226a24392bf40bcc93e906674ad0727fe03abcbf515d08012103652ee73542b2c2cb00ebeb7b5d41dadf22a97e416aeaff954ff7d431418d360e"
          },
          "sequence": 4294967294
        }
      ],
      "vout": [
        {
          "value": 1.02000000,
          "n": 0,
          "scriptPubKey": {
            "asm": "OP_DUP OP_HASH160 a98391b4890a60ebdcef9352abb54146a3682533 OP_EQUALVERIFY OP_CHECKSIG",
            "hex": "76a914a98391b4890a60ebdcef9352abb54146a368253388ac",
            "reqSigs": 1,
            "type": "pubkeyhash",
            "addresses": [
              "LagG5DbM5QyC2kUeyZ8vGuoFx34FuPFtwN"
            ]
          }
        }, 
        {
          "value": 0.00983885,
          "n": 1,
          "scriptPubKey": {
            "asm": "OP_DUP OP_HASH160 78fa35f2c0dc31eb32168021c9a8774837cabff3 OP_EQUALVERIFY OP_CHECKSIG",
            "hex": "76a91478fa35f2c0dc31eb32168021c9a8774837cabff388ac",
            "reqSigs": 1,
            "type": "pubkeyhash",
            "addresses": [
              "LWFd6BMYDeJLq5tB6KyyQjVGvZ5siXogLe"
            ]
          }
        }
      ],
      "hex": "0200000002b0b3ff7ba1bc04fbeac1ba36eafc66e98ba3e5d036b594d234002d8ca8d6b36c010000006a4730440220766a18a08fe2fad9150c170aafe0a8009d84eecbfb1b23cc6976cbfd8bba9cb8022026fb80ad41f7f0000c0365aadb492d7ce4157aef8088fd7beb18a9df4fd6a643012103d800e3ab4a6c6949aedd71807c3ddced09d7bb6191654fa3f5e65e5defcec5effeffffffdc8d07a79f4ef4ed59c8bf7f6dc13daaef5af9833a1c17ddb11d265cbb729217a20200006a47304402201c088909740e8e9094a5e93e39bfaf17fac574a980dc64e15217d37e72e64a23022022b1e353ad65e62ed6226a24392bf40bcc93e906674ad0727fe03abcbf515d08012103652ee73542b2c2cb00ebeb7b5d41dadf22a97e416aeaff954ff7d431418d360efeffffff0280651406000000001976a914a98391b4890a60ebdcef9352abb54146a368253388ac4d030f00000000001976a91478fa35f2c0dc31eb32168021c9a8774837cabff388ac3bbd1400"
    }, 
    {
      "txid": "9fdcfbf26e33977c9777ca2a63a07b2709475c82d618b7998782920b800ba3ef",
      "hash": "9fdcfbf26e33977c9777ca2a63a07b2709475c82d618b7998782920b800ba3ef",
      "version": 2,
      "size": 225,
      "vsize": 225,
      "locktime": 1359162,
      "vin": [
        {
          "txid": "17b5770d6db4a884c95ab30eb12c1a10c624b4e76c7cb10dc3ebcfd094cb450c",
          "vout": 1,
          "scriptSig": {
            "asm": "3044022004e52b8f7ff5cd99a1192869ca7df4e2c765b782b8c8bbaf6eccdc0407eba02902203ace5213dd8660880a8c0b040e4bbbcc22f3f30eca575770794b6382b88d032d[ALL] 02e6597a56949ee24ef7c10a78b36422e4e3b912863f62095084ac3288cb67fa64",
            "hex": "473044022004e52b8f7ff5cd99a1192869ca7df4e2c765b782b8c8bbaf6eccdc0407eba02902203ace5213dd8660880a8c0b040e4bbbcc22f3f30eca575770794b6382b88d032d012102e6597a56949ee24ef7c10a78b36422e4e3b912863f62095084ac3288cb67fa64"
          },
          "sequence": 4294967294
        }
      ],
      "vout": [
        {
          "value": 0.04769216,
          "n": 0,
          "scriptPubKey": {
            "asm": "OP_DUP OP_HASH160 7798a60884728f02aefea8b9f3e1ab4d9d8f2da7 OP_EQUALVERIFY OP_CHECKSIG",
            "hex": "76a9147798a60884728f02aefea8b9f3e1ab4d9d8f2da788ac",
            "reqSigs": 1,
            "type": "pubkeyhash",
            "addresses": [
              "LW8KYFQhM8UALC6sEwfH3N7CwEF7WXMhjs"
            ]
          }
        }, 
        {
          "value": 1.00000000,
          "n": 1,
          "scriptPubKey": {
            "asm": "OP_DUP OP_HASH160 5a6a76740916623dd878d5da570abdea7c4faa0c OP_EQUALVERIFY OP_CHECKSIG",
            "hex": "76a9145a6a76740916623dd878d5da570abdea7c4faa0c88ac",
            "reqSigs": 1,
            "type": "pubkeyhash",
            "addresses": [
              "LTU2cds4aSdXFip9sV4gXphnhxGQjgfjmg"
            ]
          }
        }
      ],
      "hex": "02000000010c45cb94d0cfebc30db17c6ce7b424c6101a2cb10eb35ac984a8b46d0d77b517010000006a473044022004e52b8f7ff5cd99a1192869ca7df4e2c765b782b8c8bbaf6eccdc0407eba02902203ace5213dd8660880a8c0b040e4bbbcc22f3f30eca575770794b6382b88d032d012102e6597a56949ee24ef7c10a78b36422e4e3b912863f62095084ac3288cb67fa64feffffff02c0c54800000000001976a9147798a60884728f02aefea8b9f3e1ab4d9d8f2da788ac00e1f505000000001976a9145a6a76740916623dd878d5da570abdea7c4faa0c88ac3abd1400"
    }, 
    {
      "txid": "f102f379d7a8ddf9fe03b7bfa8b494c0fe3a30cae580cd1048ba733c63f6d80b",
      "hash": "f102f379d7a8ddf9fe03b7bfa8b494c0fe3a30cae580cd1048ba733c63f6d80b",
      "version": 2,
      "size": 2289,
      "vsize": 2289,
      "locktime": 1359162,
      "vin": [
        {
          "txid": "422e7278839bbd3043f40786073bd2518f134d72a0a251062ce17fdd0bac5eb4",
          "vout": 0,
          "scriptSig": {
            "asm": "304402207469acc006f9b328d0b04e17cff1e62f5abb9d1f1ed0de6f25ea3394c6d85135022051becfad38d6e760aa0b37986057b2f98cdf77de7189f142955b0efff15d29ce[ALL] 03347ce5fa2ee063fd8f101aad2ec9d3e1225d42a0d9669b0799a5e7193228f9d7",
            "hex": "47304402207469acc006f9b328d0b04e17cff1e62f5abb9d1f1ed0de6f25ea3394c6d85135022051becfad38d6e760aa0b37986057b2f98cdf77de7189f142955b0efff15d29ce012103347ce5fa2ee063fd8f101aad2ec9d3e1225d42a0d9669b0799a5e7193228f9d7"
          },
          "sequence": 4294967294
        }, 
        {
          "txid": "07805755d616e8162377d01f0fe2ca1a89dda7c066038a5202bb859ba7404d55",
          "vout": 0,
          "scriptSig": {
            "asm": "3044022042fff401be4e56b0dad907345663e227fb078b44c2c8893dd77d34213e6085330220134509fa50975561998fcd6c53f3ca92bb9bbe514eb50901ca52c2dea2e4ee2c[ALL] 03301a553d4cc6de8d4e17d6a14b687b2e1afdc38370b9da9cadcbe9f51a7475fd",
            "hex": "473044022042fff401be4e56b0dad907345663e227fb078b44c2c8893dd77d34213e6085330220134509fa50975561998fcd6c53f3ca92bb9bbe514eb50901ca52c2dea2e4ee2c012103301a553d4cc6de8d4e17d6a14b687b2e1afdc38370b9da9cadcbe9f51a7475fd"
          },
          "sequence": 4294967294
        }, 
        {
          "txid": "b5c572eda9529542637a081eb8e0ab50d04ebf5687d68e4bd4eab7efee5ad0b3",
          "vout": 0,
          "scriptSig": {
            "asm": "304402207075229bec156d10bd7d9c1841cb31c51e10520b40198194133777f1f256409c02203a11c0ab81693ae1d78a0732e55c15abbb0ed981e3d6d08962af609a6a9fad9d[ALL] 02dccfc48cc5da9d3d3161a25a7c1c29b14780bb35390326a475486fbfd1317241",
            "hex": "47304402207075229bec156d10bd7d9c1841cb31c51e10520b40198194133777f1f256409c02203a11c0ab81693ae1d78a0732e55c15abbb0ed981e3d6d08962af609a6a9fad9d012102dccfc48cc5da9d3d3161a25a7c1c29b14780bb35390326a475486fbfd1317241"
          },
          "sequence": 4294967294
        }, 
        {
          "txid": "e86d8d1276d2098864191dcc6431284b332a3291923fb77686b526e635224cef",
          "vout": 0,
          "scriptSig": {
            "asm": "304502210087d61164ec0a180bbead7c8b4bd49834abdebb9ed3a11084248e50bfb2b39a0c02205f3f402549078b6cc85a79201bf7b597d2dd5c8b06c6e57183d29e0f8a68a72c[ALL] 0330f06e81964794f40c9ec2b8b5afe0cbf358c3a7937fd4057a49e4254fcff65e",
            "hex": "48304502210087d61164ec0a180bbead7c8b4bd49834abdebb9ed3a11084248e50bfb2b39a0c02205f3f402549078b6cc85a79201bf7b597d2dd5c8b06c6e57183d29e0f8a68a72c01210330f06e81964794f40c9ec2b8b5afe0cbf358c3a7937fd4057a49e4254fcff65e"
          },
          "sequence": 4294967294
        }, 
        {
          "txid": "7597ba4c1bf090efb042bfa55433d9e97d4626faca2ea315edf97fd8aa348f42",
          "vout": 1,
          "scriptSig": {
            "asm": "3045022100f21c1c95a9e5cbd637bac688f6426598c9609151f452a810f4538ff169196247022000cc15b64b08cfbc4991cf3ddd10d925fd0ab6f81a965ce019710f221f6702cc[ALL] 0249d7911436348caa5a9354b2ae61facb466fbf5cf084b04a72813f403237aafb",
            "hex": "483045022100f21c1c95a9e5cbd637bac688f6426598c9609151f452a810f4538ff169196247022000cc15b64b08cfbc4991cf3ddd10d925fd0ab6f81a965ce019710f221f6702cc01210249d7911436348caa5a9354b2ae61facb466fbf5cf084b04a72813f403237aafb"
          },
          "sequence": 4294967294
        }, 
        {
          "txid": "5dff6d7140ad3e406aa16ada0d218ee0bfd267c340b1007b436edfc10388708e",
          "vout": 10,
          "scriptSig": {
            "asm": "304402202adb538b76e58a74692d17d0a288466f9ec74470b0eb8c249de3931857e34e9b022051f0512da45e0c6eed14a85fc0f2473d7b73ecd3d4822c58c4037b4e4aeb5c0e[ALL] 03a2fbc11a6e28485f63d271a2e610ddc47afb38b2ee1867b773d672d2b4a38f36",
            "hex": "47304402202adb538b76e58a74692d17d0a288466f9ec74470b0eb8c249de3931857e34e9b022051f0512da45e0c6eed14a85fc0f2473d7b73ecd3d4822c58c4037b4e4aeb5c0e012103a2fbc11a6e28485f63d271a2e610ddc47afb38b2ee1867b773d672d2b4a38f36"
          },
          "sequence": 4294967294
        }, 
        {
          "txid": "93513bdb4a482390ff6a0ce9d232a92feafc0d89791fd91531a06466119ce7b0",
          "vout": 0,
          "scriptSig": {
            "asm": "3044022065cdb4f4cbdef8ac68888a3adcd5b8fb2d395edf779ffecd8edd5df2f305f8ae022044e5c8ecd5b81a2a04cbd7491b0d4b547a2739ec77cbe3b5281755e459e043d2[ALL] 03b3377a835afb640748ebb878f2bbc51b7da9f4b314d68afb6694531fc877d839",
            "hex": "473044022065cdb4f4cbdef8ac68888a3adcd5b8fb2d395edf779ffecd8edd5df2f305f8ae022044e5c8ecd5b81a2a04cbd7491b0d4b547a2739ec77cbe3b5281755e459e043d2012103b3377a835afb640748ebb878f2bbc51b7da9f4b314d68afb6694531fc877d839"
          },
          "sequence": 4294967294
        }, 
        {
          "txid": "9de8b3b0abb2cd418c3c155233781d64b23605fbafd23272f4bd35877f1be332",
          "vout": 1,
          "scriptSig": {
            "asm": "30450221008a0223e043f0f771addfe82e32008b5ecba4fff32bd63388bf8a86c8f14e0f7a02200b03f223ea46167209224113201410133560816dec5aa21e88976655a1d34b75[ALL] 0339de8985a9390a94dad60e44bd93488e4df28e8fe77b121fe8109ab9e177efc2",
            "hex": "4830450221008a0223e043f0f771addfe82e32008b5ecba4fff32bd63388bf8a86c8f14e0f7a02200b03f223ea46167209224113201410133560816dec5aa21e88976655a1d34b7501210339de8985a9390a94dad60e44bd93488e4df28e8fe77b121fe8109ab9e177efc2"
          },
          "sequence": 4294967294
        }, 
        {
          "txid": "cbe2b6fd25672fc4e7807b4a47aa9c3c5ccbf040d5c97835e66a415ca8ccbcb8",
          "vout": 1,
          "scriptSig": {
            "asm": "30450221008b0b998f4b32ac664eff437d2739f7a7a7af49e53e164e78ee8669c38b066ef402201d98aec0b41fa71f760efc07e18cbc10a575b6e491f7649331b686f8b9282f6f[ALL] 034e34a583e4e10f9e4ffa440401b8d3e27ccdadb936712818a219a65a418f27a1",
            "hex": "4830450221008b0b998f4b32ac664eff437d2739f7a7a7af49e53e164e78ee8669c38b066ef402201d98aec0b41fa71f760efc07e18cbc10a575b6e491f7649331b686f8b9282f6f0121034e34a583e4e10f9e4ffa440401b8d3e27ccdadb936712818a219a65a418f27a1"
          },
          "sequence": 4294967294
        }, 
        {
          "txid": "aae04285c71daedb952c53ab0e4f885b7a3546802c67069c4a991b247e40fcc1",
          "vout": 1,
          "scriptSig": {
            "asm": "3044022073f286a3e3def2cd5305402b24191c432dba39ae15224ec0375c17726abff13402201d5d8414ddfbf7fd53b41b8ecd9616b9ce8ffc8024097f34b76bdaa6985435c8[ALL] 039dcb9fff5d5007329c1d0fbbcb332def6604d3449450957ee1901039dca26789",
            "hex": "473044022073f286a3e3def2cd5305402b24191c432dba39ae15224ec0375c17726abff13402201d5d8414ddfbf7fd53b41b8ecd9616b9ce8ffc8024097f34b76bdaa6985435c80121039dcb9fff5d5007329c1d0fbbcb332def6604d3449450957ee1901039dca26789"
          },
          "sequence": 4294967294
        }, 
        {
          "txid": "f4e63c45f176e569ad7ceda8681c54d5dbe1a2dd1df549500f3561bcc499cfae",
          "vout": 1,
          "scriptSig": {
            "asm": "3045022100e5a2bda2ac12903afaa3faf9c3d744f5420829e6fb9d68f724c5065019d3e4fb0220385d605c91653cca31bb6762c40e27340065969853a29bd5657e91279d705e31[ALL] 025ee0ad34f6a54cc646617f1c8acbc663f02b345b829867d6ec3955f22ec0cbea",
            "hex": "483045022100e5a2bda2ac12903afaa3faf9c3d744f5420829e6fb9d68f724c5065019d3e4fb0220385d605c91653cca31bb6762c40e27340065969853a29bd5657e91279d705e310121025ee0ad34f6a54cc646617f1c8acbc663f02b345b829867d6ec3955f22ec0cbea"
          },
          "sequence": 4294967294
        }, 
        {
          "txid": "a4acc8c6860df1a580ab89897d9ac587a520bcdbb37686f81cbaa625e1f751b4",
          "vout": 1,
          "scriptSig": {
            "asm": "30440220565f6bc75f548536b1272927bb35ccd33a3226adb072b208c67d84d3dc811fc602204583392d86223c135a9df999749cc8f2217d850380e0b3deab52dbe0ca82b214[ALL] 0301ee765f133b18edc89d92f2937296f108b77830611544073e8d38ad15a408b3",
            "hex": "4730440220565f6bc75f548536b1272927bb35ccd33a3226adb072b208c67d84d3dc811fc602204583392d86223c135a9df999749cc8f2217d850380e0b3deab52dbe0ca82b21401210301ee765f133b18edc89d92f2937296f108b77830611544073e8d38ad15a408b3"
          },
          "sequence": 4294967294
        }, 
        {
          "txid": "d95b8119b7300e99ee0465cf72a1ba9b7f11cad5d350c0e975c5687d1990e331",
          "vout": 0,
          "scriptSig": {
            "asm": "3044022056b43efb0804f1295cc98ad9f30c373740124b3ee9b3d5fcfdc67292aecb156402206860a66edb60fc98932dabc7f0f7fa552f2900c70ae0bcd1923e333b189c83c0[ALL] 02f29e62b8d81f4ba52c88fc40dbb818e2ff09ff333e62ab97cfc4a482e9c1288f",
            "hex": "473044022056b43efb0804f1295cc98ad9f30c373740124b3ee9b3d5fcfdc67292aecb156402206860a66edb60fc98932dabc7f0f7fa552f2900c70ae0bcd1923e333b189c83c0012102f29e62b8d81f4ba52c88fc40dbb818e2ff09ff333e62ab97cfc4a482e9c1288f"
          },
          "sequence": 4294967294
        }, 
        {
          "txid": "d938cae9938683a07a9d1fa2b14487ffc48fe1deb05a9b8c65df16f55517ba88",
          "vout": 0,
          "scriptSig": {
            "asm": "3044022022fa2457e73f5f9c96edf64e8e883be4b9e61bd6e24752da71ff6161a09935be022060bf697c9a85a1badb08acb0a7586eb92f280a8e76d804dc48ca6d2fec75f273[ALL] 026b6a45006f624f40bae1175d7f708438a1cd773ddf323e110380141c2097c9c9",
            "hex": "473044022022fa2457e73f5f9c96edf64e8e883be4b9e61bd6e24752da71ff6161a09935be022060bf697c9a85a1badb08acb0a7586eb92f280a8e76d804dc48ca6d2fec75f2730121026b6a45006f624f40bae1175d7f708438a1cd773ddf323e110380141c2097c9c9"
          },
          "sequence": 4294967294
        }, 
        {
          "txid": "3cbec343803c1526468caf0c4c0bff5801093db00e444664cf73864b10f6db92",
          "vout": 0,
          "scriptSig": {
            "asm": "3045022100f5493da24e3debdf8ffe4ed395c1df9d92ae585eccc1562797c541302aeecbbf022000897cb11193649f4113e58b6f1d35c299b253f34e306a46e874de9e2d01b3ab[ALL] 0311227cfd20bc39945927b32fc6027d7c94ecb101136cbaac4cf9579f0e1d095c",
            "hex": "483045022100f5493da24e3debdf8ffe4ed395c1df9d92ae585eccc1562797c541302aeecbbf022000897cb11193649f4113e58b6f1d35c299b253f34e306a46e874de9e2d01b3ab01210311227cfd20bc39945927b32fc6027d7c94ecb101136cbaac4cf9579f0e1d095c"
          },
          "sequence": 4294967294
        }
      ],
      "vout": [
        {
          "value": 34.00000000,
          "n": 0,
          "scriptPubKey": {
            "asm": "OP_DUP OP_HASH160 5a6a76740916623dd878d5da570abdea7c4faa0c OP_EQUALVERIFY OP_CHECKSIG",
            "hex": "76a9145a6a76740916623dd878d5da570abdea7c4faa0c88ac",
            "reqSigs": 1,
            "type": "pubkeyhash",
            "addresses": [
              "LTU2cds4aSdXFip9sV4gXphnhxGQjgfjmg"
            ]
          }
        }, 
        {
          "value": 0.00771391,
          "n": 1,
          "scriptPubKey": {
            "asm": "OP_DUP OP_HASH160 6219e4047f6c7d46eacec054a892596bda79d692 OP_EQUALVERIFY OP_CHECKSIG",
            "hex": "76a9146219e4047f6c7d46eacec054a892596bda79d69288ac",
            "reqSigs": 1,
            "type": "pubkeyhash",
            "addresses": [
              "LUAfVvrW5xYpXqp4oPgRkFgEQ9T6V1sgrh"
            ]
          }
        }
      ],
      "hex": "020000000fb45eac0bdd7fe12c0651a2a0724d138f51d23b078607f44330bd9b8378722e42000000006a47304402207469acc006f9b328d0b04e17cff1e62f5abb9d1f1ed0de6f25ea3394c6d85135022051becfad38d6e760aa0b37986057b2f98cdf77de7189f142955b0efff15d29ce012103347ce5fa2ee063fd8f101aad2ec9d3e1225d42a0d9669b0799a5e7193228f9d7feffffff554d40a79b85bb02528a0366c0a7dd891acae20f1fd0772316e816d655578007000000006a473044022042fff401be4e56b0dad907345663e227fb078b44c2c8893dd77d34213e6085330220134509fa50975561998fcd6c53f3ca92bb9bbe514eb50901ca52c2dea2e4ee2c012103301a553d4cc6de8d4e17d6a14b687b2e1afdc38370b9da9cadcbe9f51a7475fdfeffffffb3d05aeeefb7ead44b8ed68756bf4ed050abe0b81e087a63429552a9ed72c5b5000000006a47304402207075229bec156d10bd7d9c1841cb31c51e10520b40198194133777f1f256409c02203a11c0ab81693ae1d78a0732e55c15abbb0ed981e3d6d08962af609a6a9fad9d012102dccfc48cc5da9d3d3161a25a7c1c29b14780bb35390326a475486fbfd1317241feffffffef4c2235e626b58676b73f9291322a334b283164cc1d19648809d276128d6de8000000006b48304502210087d61164ec0a180bbead7c8b4bd49834abdebb9ed3a11084248e50bfb2b39a0c02205f3f402549078b6cc85a79201bf7b597d2dd5c8b06c6e57183d29e0f8a68a72c01210330f06e81964794f40c9ec2b8b5afe0cbf358c3a7937fd4057a49e4254fcff65efeffffff428f34aad87ff9ed15a32ecafa26467de9d93354a5bf42b0ef90f01b4cba9775010000006b483045022100f21c1c95a9e5cbd637bac688f6426598c9609151f452a810f4538ff169196247022000cc15b64b08cfbc4991cf3ddd10d925fd0ab6f81a965ce019710f221f6702cc01210249d7911436348caa5a9354b2ae61facb466fbf5cf084b04a72813f403237aafbfeffffff8e708803c1df6e437b00b140c367d2bfe08e210dda6aa16a403ead40716dff5d0a0000006a47304402202adb538b76e58a74692d17d0a288466f9ec74470b0eb8c249de3931857e34e9b022051f0512da45e0c6eed14a85fc0f2473d7b73ecd3d4822c58c4037b4e4aeb5c0e012103a2fbc11a6e28485f63d271a2e610ddc47afb38b2ee1867b773d672d2b4a38f36feffffffb0e79c116664a03115d91f79890dfcea2fa932d2e90c6aff9023484adb3b5193000000006a473044022065cdb4f4cbdef8ac68888a3adcd5b8fb2d395edf779ffecd8edd5df2f305f8ae022044e5c8ecd5b81a2a04cbd7491b0d4b547a2739ec77cbe3b5281755e459e043d2012103b3377a835afb640748ebb878f2bbc51b7da9f4b314d68afb6694531fc877d839feffffff32e31b7f8735bdf47232d2affb0536b2641d783352153c8c41cdb2abb0b3e89d010000006b4830450221008a0223e043f0f771addfe82e32008b5ecba4fff32bd63388bf8a86c8f14e0f7a02200b03f223ea46167209224113201410133560816dec5aa21e88976655a1d34b7501210339de8985a9390a94dad60e44bd93488e4df28e8fe77b121fe8109ab9e177efc2feffffffb8bccca85c416ae63578c9d540f0cb5c3c9caa474a7b80e7c42f6725fdb6e2cb010000006b4830450221008b0b998f4b32ac664eff437d2739f7a7a7af49e53e164e78ee8669c38b066ef402201d98aec0b41fa71f760efc07e18cbc10a575b6e491f7649331b686f8b9282f6f0121034e34a583e4e10f9e4ffa440401b8d3e27ccdadb936712818a219a65a418f27a1feffffffc1fc407e241b994a9c06672c8046357a5b884f0eab532c95dbae1dc78542e0aa010000006a473044022073f286a3e3def2cd5305402b24191c432dba39ae15224ec0375c17726abff13402201d5d8414ddfbf7fd53b41b8ecd9616b9ce8ffc8024097f34b76bdaa6985435c80121039dcb9fff5d5007329c1d0fbbcb332def6604d3449450957ee1901039dca26789feffffffaecf99c4bc61350f5049f51ddda2e1dbd5541c68a8ed7cad69e576f1453ce6f4010000006b483045022100e5a2bda2ac12903afaa3faf9c3d744f5420829e6fb9d68f724c5065019d3e4fb0220385d605c91653cca31bb6762c40e27340065969853a29bd5657e91279d705e310121025ee0ad34f6a54cc646617f1c8acbc663f02b345b829867d6ec3955f22ec0cbeafeffffffb451f7e125a6ba1cf88676b3dbbc20a587c59a7d8989ab80a5f10d86c6c8aca4010000006a4730440220565f6bc75f548536b1272927bb35ccd33a3226adb072b208c67d84d3dc811fc602204583392d86223c135a9df999749cc8f2217d850380e0b3deab52dbe0ca82b21401210301ee765f133b18edc89d92f2937296f108b77830611544073e8d38ad15a408b3feffffff31e390197d68c575e9c050d3d5ca117f9bbaa172cf6504ee990e30b719815bd9000000006a473044022056b43efb0804f1295cc98ad9f30c373740124b3ee9b3d5fcfdc67292aecb156402206860a66edb60fc98932dabc7f0f7fa552f2900c70ae0bcd1923e333b189c83c0012102f29e62b8d81f4ba52c88fc40dbb818e2ff09ff333e62ab97cfc4a482e9c1288ffeffffff88ba1755f516df658c9b5ab0dee18fc4ff8744b1a21f9d7aa0838693e9ca38d9000000006a473044022022fa2457e73f5f9c96edf64e8e883be4b9e61bd6e24752da71ff6161a09935be022060bf697c9a85a1badb08acb0a7586eb92f280a8e76d804dc48ca6d2fec75f2730121026b6a45006f624f40bae1175d7f708438a1cd773ddf323e110380141c2097c9c9feffffff92dbf6104b8673cf6446440eb03d090158ff0b4c0caf8c4626153c8043c3be3c000000006b483045022100f5493da24e3debdf8ffe4ed395c1df9d92ae585eccc1562797c541302aeecbbf022000897cb11193649f4113e58b6f1d35c299b253f34e306a46e874de9e2d01b3ab01210311227cfd20bc39945927b32fc6027d7c94ecb101136cbaac4cf9579f0e1d095cfeffffff0200e2a7ca000000001976a9145a6a76740916623dd878d5da570abdea7c4faa0c88ac3fc50b00000000001976a9146219e4047f6c7d46eacec054a892596bda79d69288ac3abd1400"
    }, 
    {
      "txid": "706a9fa2a19d2eaa5062d0ed06032e473d5863bf8e5f9179e69077e30c44e64b",
      "hash": "706a9fa2a19d2eaa5062d0ed06032e473d5863bf8e5f9179e69077e30c44e64b",
      "version": 1,
      "size": 521,
      "vsize": 521,
      "locktime": 1359164,
      "vin": [
        {
          "txid": "4c16d4b4535808da2a769adfe5370cfc314b2cf4f904661104c23dd7ed2c8efb",
          "vout": 0,
          "scriptSig": {
            "asm": "3045022100c5c53a34e34d9dc07dff97a6ef11a4d7014befe7c9fb7efc5b8a006a57f838f50220617b1873895d6bb04985fd43259fe2434c1df8ba3baebedf4e6c7c99c612169c[ALL] 037319bd282923e8a77275b66fad2a8d2f11e8ac0576dbfb15a28456a7f4037aa7",
            "hex": "483045022100c5c53a34e34d9dc07dff97a6ef11a4d7014befe7c9fb7efc5b8a006a57f838f50220617b1873895d6bb04985fd43259fe2434c1df8ba3baebedf4e6c7c99c612169c0121037319bd282923e8a77275b66fad2a8d2f11e8ac0576dbfb15a28456a7f4037aa7"
          },
          "sequence": 4294967294
        }, 
        {
          "txid": "322bd68ad89bd023690ff080422aad83d3ac29f03df37e625a7fe2891bf6da61",
          "vout": 0,
          "scriptSig": {
            "asm": "304402204da1ab39fccc96d45823b974f46ca244cdb475371727062ff995020ea414e8ce022072456c51faf207652d1bd6519fe62d4ed7d93453ea2092f57a2dd38a3d80252a[ALL] 03e589713902a006f9cee8c673bb5ed3df3a538bcba463dba07e20c66bffa21e0a",
            "hex": "47304402204da1ab39fccc96d45823b974f46ca244cdb475371727062ff995020ea414e8ce022072456c51faf207652d1bd6519fe62d4ed7d93453ea2092f57a2dd38a3d80252a012103e589713902a006f9cee8c673bb5ed3df3a538bcba463dba07e20c66bffa21e0a"
          },
          "sequence": 4294967294
        }, 
        {
          "txid": "1abfe52ec8602780e1063432a2248fa2533b0790e8ca7c7f7c6c21842f548b20",
          "vout": 0,
          "scriptSig": {
            "asm": "304502210097c954151f7426d8e6b0e5a5395f22d8679543a44e9d64ac00ad0ab829f69a6d02200fa7630d756148c6e11bc277637095f669485882ae068c21021126b8322d55e7[ALL] 02caf7628b459b67865c4aceabc3092117f15c89050325d4e3022aa246ec99aa11",
            "hex": "48304502210097c954151f7426d8e6b0e5a5395f22d8679543a44e9d64ac00ad0ab829f69a6d02200fa7630d756148c6e11bc277637095f669485882ae068c21021126b8322d55e7012102caf7628b459b67865c4aceabc3092117f15c89050325d4e3022aa246ec99aa11"
          },
          "sequence": 4294967294
        }
      ],
      "vout": [
        {
          "value": 0.01001031,
          "n": 0,
          "scriptPubKey": {
            "asm": "OP_DUP OP_HASH160 838012261cfa9947f2f5f3ae91cdaac8fc4711ce OP_EQUALVERIFY OP_CHECKSIG",
            "hex": "76a914838012261cfa9947f2f5f3ae91cdaac8fc4711ce88ac",
            "reqSigs": 1,
            "type": "pubkeyhash",
            "addresses": [
              "LXDGCs6Vhj77YuGo9K7sgYExRFTJRTgGRJ"
            ]
          }
        }, 
        {
          "value": 4.29385998,
          "n": 1,
          "scriptPubKey": {
            "asm": "OP_DUP OP_HASH160 d1940227e3f0db9504daba980988a649f2930a09 OP_EQUALVERIFY OP_CHECKSIG",
            "hex": "76a914d1940227e3f0db9504daba980988a649f2930a0988ac",
            "reqSigs": 1,
            "type": "pubkeyhash",
            "addresses": [
              "LeL6o7PXbfwXqLh6aAYa9gVGx9YpHQdcos"
            ]
          }
        }
      ],
      "hex": "0100000003fb8e2cedd73dc204116604f9f42c4b31fc0c37e5df9a762ada085853b4d4164c000000006b483045022100c5c53a34e34d9dc07dff97a6ef11a4d7014befe7c9fb7efc5b8a006a57f838f50220617b1873895d6bb04985fd43259fe2434c1df8ba3baebedf4e6c7c99c612169c0121037319bd282923e8a77275b66fad2a8d2f11e8ac0576dbfb15a28456a7f4037aa7feffffff61daf61b89e27f5a627ef33df029acd383ad2a4280f00f6923d09bd88ad62b32000000006a47304402204da1ab39fccc96d45823b974f46ca244cdb475371727062ff995020ea414e8ce022072456c51faf207652d1bd6519fe62d4ed7d93453ea2092f57a2dd38a3d80252a012103e589713902a006f9cee8c673bb5ed3df3a538bcba463dba07e20c66bffa21e0afeffffff208b542f84216c7c7f7ccae890073b53a28f24a2323406e1802760c82ee5bf1a000000006b48304502210097c954151f7426d8e6b0e5a5395f22d8679543a44e9d64ac00ad0ab829f69a6d02200fa7630d756148c6e11bc277637095f669485882ae068c21021126b8322d55e7012102caf7628b459b67865c4aceabc3092117f15c89050325d4e3022aa246ec99aa11feffffff0247460f00000000001976a914838012261cfa9947f2f5f3ae91cdaac8fc4711ce88ac0ee99719000000001976a914d1940227e3f0db9504daba980988a649f2930a0988ac3cbd1400"
    }, 
    {
      "txid": "e918169356d3c82d856fc8308646adfe9db96eb6a72e5be095bd3d2c67b50d80",
      "hash": "e918169356d3c82d856fc8308646adfe9db96eb6a72e5be095bd3d2c67b50d80",
      "version": 2,
      "size": 522,
      "vsize": 522,
      "locktime": 1359162,
      "vin": [
        {
          "txid": "484ee4b6d7e54c00437d021f08ea092dbded7be7aaeb1ef544eeac4f35ab08e2",
          "vout": 0,
          "scriptSig": {
            "asm": "3045022100c53c846d7030c81d940a411f5e4c2a898daf4260aa28177bfd63f9ced0a2a0cf02204de011b29077baca9b91aa403c31954f0579ea0782444a4021647d9b2918cc60[ALL] 028e47b05ff2e8222153f5bfee8186ae4b1f7ba280498ecbcc12d45060c5a40534",
            "hex": "483045022100c53c846d7030c81d940a411f5e4c2a898daf4260aa28177bfd63f9ced0a2a0cf02204de011b29077baca9b91aa403c31954f0579ea0782444a4021647d9b2918cc600121028e47b05ff2e8222153f5bfee8186ae4b1f7ba280498ecbcc12d45060c5a40534"
          },
          "sequence": 4294967294
        }, 
        {
          "txid": "16628a548437fcf4ddf754be156e334c0b7e908243d208b09c2b2a9057a4141c",
          "vout": 1,
          "scriptSig": {
            "asm": "3045022100bcad4146336abd8a806f9009486c2a16777a470322a5ad31abd9c4507c1be9e602203716d4d2559e0d6d404ce53c5d8f8da0bae9698b88ec5e4aa6f7b3cdd5f5a250[ALL] 03d820a52cd39c99682d8038995e7a20f9769feb6c677e9ee082cb7001d20a0e0c",
            "hex": "483045022100bcad4146336abd8a806f9009486c2a16777a470322a5ad31abd9c4507c1be9e602203716d4d2559e0d6d404ce53c5d8f8da0bae9698b88ec5e4aa6f7b3cdd5f5a250012103d820a52cd39c99682d8038995e7a20f9769feb6c677e9ee082cb7001d20a0e0c"
          },
          "sequence": 4294967294
        }, 
        {
          "txid": "6c08e8cfaa4e6dc8670561a1b91ae454d76a1a9ad8469d20c151fe7196f9c744",
          "vout": 1,
          "scriptSig": {
            "asm": "3045022100c272a2043500eededce3e1521d346b445cf552941c7a8342d012b2bade6ad9a5022018b9adf2870a9c270222e19f8ffd2dda494f1135c964bc20674bb1aa39bcfa8c[ALL] 02b430dd1484fabfd8cd0c8344a29f0f09dfdec7b58360aa88cc4f9a7063a322aa",
            "hex": "483045022100c272a2043500eededce3e1521d346b445cf552941c7a8342d012b2bade6ad9a5022018b9adf2870a9c270222e19f8ffd2dda494f1135c964bc20674bb1aa39bcfa8c012102b430dd1484fabfd8cd0c8344a29f0f09dfdec7b58360aa88cc4f9a7063a322aa"
          },
          "sequence": 4294967294
        }
      ],
      "vout": [
        {
          "value": 7.00000000,
          "n": 0,
          "scriptPubKey": {
            "asm": "OP_DUP OP_HASH160 5a6a76740916623dd878d5da570abdea7c4faa0c OP_EQUALVERIFY OP_CHECKSIG",
            "hex": "76a9145a6a76740916623dd878d5da570abdea7c4faa0c88ac",
            "reqSigs": 1,
            "type": "pubkeyhash",
            "addresses": [
              "LTU2cds4aSdXFip9sV4gXphnhxGQjgfjmg"
            ]
          }
        }, 
        {
          "value": 0.01306716,
          "n": 1,
          "scriptPubKey": {
            "asm": "OP_DUP OP_HASH160 9120e445814056ae74417a09e5268343472901c5 OP_EQUALVERIFY OP_CHECKSIG",
            "hex": "76a9149120e445814056ae74417a09e5268343472901c588ac",
            "reqSigs": 1,
            "type": "pubkeyhash",
            "addresses": [
              "LYTKeP9zryxumB7qBiNyAQjVDWZcGMFdcJ"
            ]
          }
        }
      ],
      "hex": "0200000003e208ab354facee44f51eebaae77bedbd2d09ea081f027d43004ce5d7b6e44e48000000006b483045022100c53c846d7030c81d940a411f5e4c2a898daf4260aa28177bfd63f9ced0a2a0cf02204de011b29077baca9b91aa403c31954f0579ea0782444a4021647d9b2918cc600121028e47b05ff2e8222153f5bfee8186ae4b1f7ba280498ecbcc12d45060c5a40534feffffff1c14a457902a2b9cb008d24382907e0b4c336e15be54f7ddf4fc3784548a6216010000006b483045022100bcad4146336abd8a806f9009486c2a16777a470322a5ad31abd9c4507c1be9e602203716d4d2559e0d6d404ce53c5d8f8da0bae9698b88ec5e4aa6f7b3cdd5f5a250012103d820a52cd39c99682d8038995e7a20f9769feb6c677e9ee082cb7001d20a0e0cfeffffff44c7f99671fe51c1209d46d89a1a6ad754e41ab9a1610567c86d4eaacfe8086c010000006b483045022100c272a2043500eededce3e1521d346b445cf552941c7a8342d012b2bade6ad9a5022018b9adf2870a9c270222e19f8ffd2dda494f1135c964bc20674bb1aa39bcfa8c012102b430dd1484fabfd8cd0c8344a29f0f09dfdec7b58360aa88cc4f9a7063a322aafeffffff020027b929000000001976a9145a6a76740916623dd878d5da570abdea7c4faa0c88ac5cf01300000000001976a9149120e445814056ae74417a09e5268343472901c588ac3abd1400"
    }
  ],
  "time": 1517245360,
  "mediantime": 1517245018,
  "nonce": 3846870458,
  "bits": "1a042eae",
  "difficulty": 4011378.762614286,
  "chainwork": "000000000000000000000000000000000000000000000033c0393ef3b7b33dfe",
  "previousblockhash": "c790ab1e3086ea1be25d73b86f5c1dac2c18bb1b396d152e3bc8c5d93970b333",
  "nextblockhash": "26323380fbd5c75a21605ee6473e83c04581272a7d16a279e3f9ce743d44dda9"
}
