{
  "hash": "e614e9a5cb8ffd0fc29f7ea2ecb9d2203fb3d8bb05857cf52d79791285391ed5",
  "confirmations": 2681,
  "strippedsize": 253,
  "size": 253,
  "weight": 1012,
  "height": 1358314,
  "version": 536870912,
  "versionHex": "20000000",
  "merkleroot": "1746e1237677a616933880ce3f2333da1270ca9217ed4b371b7405264c6c4690",
  "tx": [
    {
      "txid": "1746e1237677a616933880ce3f2333da1270ca9217ed4b371b7405264c6c4690",
      "hash": "1746e1237677a616933880ce3f2333da1270ca9217ed4b371b7405264c6c4690",
      "version": 1,
      "size": 172,
      "vsize": 172,
      "locktime": 0,
      "vin": [
        {
          "coinbase": "03eab9141a4d696e656420627920416e74506f6f6c20626a3242205a6d7ca6fabe6d6deb4d9c9ccf9e3ed2ffb036cd1bbef4498060f724fb06a12e0a5cb5995cc101190400000000000000603500000000000010000000",
          "sequence": 4294967295
        }
      ],
      "vout": [
        {
          "value": 25.00000000,
          "n": 0,
          "scriptPubKey": {
            "asm": "OP_DUP OP_HASH160 0ff3ccc5e8be88afe24b5d634e5852d474dbdff1 OP_EQUALVERIFY OP_CHECKSIG",
            "hex": "76a9140ff3ccc5e8be88afe24b5d634e5852d474dbdff188ac",
            "reqSigs": 1,
            "type": "pubkeyhash",
            "addresses": [
              "LLgJTbzZMsRTCUF1NtvvL9SR1a4pVieW89"
            ]
          }
        }
      ],
      "hex": "01000000010000000000000000000000000000000000000000000000000000000000000000ffffffff5703eab9141a4d696e656420627920416e74506f6f6c20626a3242205a6d7ca6fabe6d6deb4d9c9ccf9e3ed2ffb036cd1bbef4498060f724fb06a12e0a5cb5995cc101190400000000000000603500000000000010000000ffffffff0100f90295000000001976a9140ff3ccc5e8be88afe24b5d634e5852d474dbdff188ac00000000"
    }
  ],
  "time": 1517124774,
  "mediantime": 1517124158,
  "nonce": 1881893959,
  "bits": "1a047f14",
  "difficulty": 3731199.183374282,
  "chainwork": "000000000000000000000000000000000000000000000032fc57aadf0e2a08de",
  "previousblockhash": "4fe1d0b8d3c5ee18ac8b1cf6d53457d47d72a5c10d0e05d5e4261a1c03853c2e",
  "nextblockhash": "a8d60c97a8c90922207d8880eb1924aa3cabdd2499f4aacad1a956b25a267cdf"
}
