{
  "hash": "e6bca6dd317c4e39874c6c2a29c6ac83279addf74bb0a7b38fb7dd50a930f720",
  "confirmations": 2066,
  "strippedsize": 253,
  "size": 253,
  "weight": 1012,
  "height": 1358928,
  "version": 536870912,
  "versionHex": "20000000",
  "merkleroot": "5639547965600bf6231cbad75b655564b24cdb498f2331ffb3ec83c2e0695c7b",
  "tx": [
    {
      "txid": "5639547965600bf6231cbad75b655564b24cdb498f2331ffb3ec83c2e0695c7b",
      "hash": "5639547965600bf6231cbad75b655564b24cdb498f2331ffb3ec83c2e0695c7b",
      "version": 1,
      "size": 172,
      "vsize": 172,
      "locktime": 0,
      "vin": [
        {
          "coinbase": "0350bc141a4d696e656420627920416e74506f6f6c20626a331f205a6ed5c2fabe6d6d4cc9812e025ef4cc0fbfded043b7fb431c86f230aac62b8f7a469044ba96b07b0400000000000000230e00000000000033334f83",
          "sequence": 4294967295
        }
      ],
      "vout": [
        {
          "value": 25.00000000,
          "n": 0,
          "scriptPubKey": {
            "asm": "OP_DUP OP_HASH160 0ff3ccc5e8be88afe24b5d634e5852d474dbdff1 OP_EQUALVERIFY OP_CHECKSIG",
            "hex": "76a9140ff3ccc5e8be88afe24b5d634e5852d474dbdff188ac",
            "reqSigs": 1,
            "type": "pubkeyhash",
            "addresses": [
              "LLgJTbzZMsRTCUF1NtvvL9SR1a4pVieW89"
            ]
          }
        }
      ],
      "hex": "01000000010000000000000000000000000000000000000000000000000000000000000000ffffffff570350bc141a4d696e656420627920416e74506f6f6c20626a331f205a6ed5c2fabe6d6d4cc9812e025ef4cc0fbfded043b7fb431c86f230aac62b8f7a469044ba96b07b0400000000000000230e00000000000033334f83ffffffff0100f90295000000001976a9140ff3ccc5e8be88afe24b5d634e5852d474dbdff188ac00000000"
    }
  ],
  "time": 1517213122,
  "mediantime": 1517212293,
  "nonce": 883916740,
  "bits": "1a042eae",
  "difficulty": 4011378.762614286,
  "chainwork": "0000000000000000000000000000000000000000000000338751555a4d89a722",
  "previousblockhash": "6ad27c53803972434bf2d17069358455437fffa92240f9e9ac8db9ef06ac3d78",
  "nextblockhash": "1a51e43f79a123b98cfdc712c70e477f7bfcbe2de60356050b26a0d725042e14"
}
