{
  "hash": "e78ffb15f1842bfb431bddebbe6e8d284a8481e3c07731484f0e8c85d17734f4",
  "confirmations": 321,
  "strippedsize": 865,
  "size": 901,
  "weight": 3496,
  "height": 1360673,
  "version": 536870912,
  "versionHex": "20000000",
  "merkleroot": "5a8af6a807004f3aef870792d2af5a3410d1db38e2259781276822c41ad4d867",
  "tx": [
    {
      "txid": "d26ec59749a0128f73f764a4e222894a1df24725833b8325908c887bb8c96224",
      "hash": "1a90a804a25fa0aabec8fb9f3bdf8a5d15f90135ebce072de088d1bc38a819bd",
      "version": 1,
      "size": 236,
      "vsize": 209,
      "locktime": 0,
      "vin": [
        {
          "coinbase": "0321c314045a72abd42cfabe6d6d7aff9b0d8058b157446d2d45ad3ff6a76179fa1c6cfee90aa2484af77fd3da6c4000000000000000042f4c502f0822008ea54e2c0000",
          "sequence": 4294967295
        }
      ],
      "vout": [
        {
          "value": 25.00051800,
          "n": 0,
          "scriptPubKey": {
            "asm": "OP_DUP OP_HASH160 57757ed2ecf2052ff3126c397aca7defb9ca2cec OP_EQUALVERIFY OP_CHECKSIG",
            "hex": "76a91457757ed2ecf2052ff3126c397aca7defb9ca2cec88ac",
            "reqSigs": 1,
            "type": "pubkeyhash",
            "addresses": [
              "LTCPodGk5FwcJaRzH9yKnwicxzFUbxp6tN"
            ]
          }
        }, 
        {
          "value": 0.00000000,
          "n": 1,
          "scriptPubKey": {
            "asm": "OP_RETURN aa21a9edce0a01aed0ec31029f12dd6da5fdfc36d2246015e3be3dd116779477650ea656",
            "hex": "6a24aa21a9edce0a01aed0ec31029f12dd6da5fdfc36d2246015e3be3dd116779477650ea656",
            "type": "nulldata"
          }
        }
      ],
      "hex": "010000000001010000000000000000000000000000000000000000000000000000000000000000ffffffff440321c314045a72abd42cfabe6d6d7aff9b0d8058b157446d2d45ad3ff6a76179fa1c6cfee90aa2484af77fd3da6c4000000000000000042f4c502f0822008ea54e2c0000ffffffff0258c30395000000001976a91457757ed2ecf2052ff3126c397aca7defb9ca2cec88ac0000000000000000266a24aa21a9edce0a01aed0ec31029f12dd6da5fdfc36d2246015e3be3dd116779477650ea6560120000000000000000000000000000000000000000000000000000000000000000000000000"
    }, 
    {
      "txid": "1f18c199dc7ea62c863d4b88c6edaf7d50da0e47fbd2121c2b82c8c02fe2fbee",
      "hash": "1f18c199dc7ea62c863d4b88c6edaf7d50da0e47fbd2121c2b82c8c02fe2fbee",
      "version": 1,
      "size": 225,
      "vsize": 225,
      "locktime": 0,
      "vin": [
        {
          "txid": "226da98cd8923813e3724161a2b56fcefca2422ca3f31c8daf34474ff4c6e363",
          "vout": 45,
          "scriptSig": {
            "asm": "304402202b6974af9a012b00b7968a3c46de441717325a822eb499b2e9f0fbeb204de90602200a543f8053ad92ea799e8245d6cbc6fdb0c63fc42d055962465977a2ee3d8698[ALL] 02f4863a48e4da0bce512400c3b2d46f81b18a247e5d46231f200086fb42179231",
            "hex": "47304402202b6974af9a012b00b7968a3c46de441717325a822eb499b2e9f0fbeb204de90602200a543f8053ad92ea799e8245d6cbc6fdb0c63fc42d055962465977a2ee3d8698012102f4863a48e4da0bce512400c3b2d46f81b18a247e5d46231f200086fb42179231"
          },
          "sequence": 4294967295
        }
      ],
      "vout": [
        {
          "value": 0.09937699,
          "n": 0,
          "scriptPubKey": {
            "asm": "OP_DUP OP_HASH160 b9aa64f78ad6a6d1b6d26215b9d70956f9be1e2e OP_EQUALVERIFY OP_CHECKSIG",
            "hex": "76a914b9aa64f78ad6a6d1b6d26215b9d70956f9be1e2e88ac",
            "reqSigs": 1,
            "type": "pubkeyhash",
            "addresses": [
              "Lc9fPus6fcmPa8W7NXpiVwdssSU1L4iQzL"
            ]
          }
        }, 
        {
          "value": 0.00054995,
          "n": 1,
          "scriptPubKey": {
            "asm": "OP_DUP OP_HASH160 8d7363dd557e627372f1fa566f749be8694f4dd6 OP_EQUALVERIFY OP_CHECKSIG",
            "hex": "76a9148d7363dd557e627372f1fa566f749be8694f4dd688ac",
            "reqSigs": 1,
            "type": "pubkeyhash",
            "addresses": [
              "LY7smhsf5y3cb8dDaDucZy2G4kgizcJYLr"
            ]
          }
        }
      ],
      "hex": "010000000163e3c6f44f4734af8d1cf3a32c42a2fcce6fb5a2614172e3133892d88ca96d222d0000006a47304402202b6974af9a012b00b7968a3c46de441717325a822eb499b2e9f0fbeb204de90602200a543f8053ad92ea799e8245d6cbc6fdb0c63fc42d055962465977a2ee3d8698012102f4863a48e4da0bce512400c3b2d46f81b18a247e5d46231f200086fb42179231ffffffff0223a39700000000001976a914b9aa64f78ad6a6d1b6d26215b9d70956f9be1e2e88acd3d60000000000001976a9148d7363dd557e627372f1fa566f749be8694f4dd688ac00000000"
    }, 
    {
      "txid": "84d73188a8b3b80c9df29a998e4ecd71d0cc2e6cc5820bd9c2c0ab52ae4d9ce1",
      "hash": "84d73188a8b3b80c9df29a998e4ecd71d0cc2e6cc5820bd9c2c0ab52ae4d9ce1",
      "version": 1,
      "size": 359,
      "vsize": 359,
      "locktime": 0,
      "vin": [
        {
          "txid": "52cb2c4e739741f73b053b248bc7076b8aa4cd34ed6ef8e58b2491b15d3f5c15",
          "vout": 1,
          "scriptSig": {
            "asm": "0 30450221009cd47aae4533f47116c4931f749ab61ff24106ff73e313d02d4712e4e40742d702206aca311328e601ba9fb938f65caf62e8d17938af7664e3ef40a7bd99d5e9cc41[ALL] 51210322ab8e4bb47bbcc0df07614cedb65de2967ab4e4586fc9e5de697383943cbb3621039926ef727d5170f15a13caa8a556856e7a1da048538d70a2710369d50056607352ae",
            "hex": "004830450221009cd47aae4533f47116c4931f749ab61ff24106ff73e313d02d4712e4e40742d702206aca311328e601ba9fb938f65caf62e8d17938af7664e3ef40a7bd99d5e9cc41014751210322ab8e4bb47bbcc0df07614cedb65de2967ab4e4586fc9e5de697383943cbb3621039926ef727d5170f15a13caa8a556856e7a1da048538d70a2710369d50056607352ae"
          },
          "sequence": 4294967295
        }
      ],
      "vout": [
        {
          "value": 4.92683133,
          "n": 0,
          "scriptPubKey": {
            "asm": "OP_DUP OP_HASH160 60699f839fb0ccef1071f8128899276ded2850df OP_EQUALVERIFY OP_CHECKSIG",
            "hex": "76a91460699f839fb0ccef1071f8128899276ded2850df88ac",
            "reqSigs": 1,
            "type": "pubkeyhash",
            "addresses": [
              "LU1jfT5qYMcBD7Ytxu4LAe9JsGpbX3G8aK"
            ]
          }
        }, 
        {
          "value": 31.04292617,
          "n": 1,
          "scriptPubKey": {
            "asm": "OP_HASH160 49028b5e72b7a18e3b9864439bec652d046ccd9a OP_EQUAL",
            "hex": "a91449028b5e72b7a18e3b9864439bec652d046ccd9a87",
            "reqSigs": 1,
            "type": "scripthash",
            "addresses": [
              "MEZCcDrmnkuAZZbTtYE1JurEyv2U2vDf3x"
            ]
          }
        }, 
        {
          "value": 31.04292617,
          "n": 2,
          "scriptPubKey": {
            "asm": "OP_HASH160 49028b5e72b7a18e3b9864439bec652d046ccd9a OP_EQUAL",
            "hex": "a91449028b5e72b7a18e3b9864439bec652d046ccd9a87",
            "reqSigs": 1,
            "type": "scripthash",
            "addresses": [
              "MEZCcDrmnkuAZZbTtYE1JurEyv2U2vDf3x"
            ]
          }
        }, 
        {
          "value": 31.04292617,
          "n": 3,
          "scriptPubKey": {
            "asm": "OP_HASH160 49028b5e72b7a18e3b9864439bec652d046ccd9a OP_EQUAL",
            "hex": "a91449028b5e72b7a18e3b9864439bec652d046ccd9a87",
            "reqSigs": 1,
            "type": "scripthash",
            "addresses": [
              "MEZCcDrmnkuAZZbTtYE1JurEyv2U2vDf3x"
            ]
          }
        }, 
        {
          "value": 901.94309816,
          "n": 4,
          "scriptPubKey": {
            "asm": "OP_HASH160 49028b5e72b7a18e3b9864439bec652d046ccd9a OP_EQUAL",
            "hex": "a91449028b5e72b7a18e3b9864439bec652d046ccd9a87",
            "reqSigs": 1,
            "type": "scripthash",
            "addresses": [
              "MEZCcDrmnkuAZZbTtYE1JurEyv2U2vDf3x"
            ]
          }
        }
      ],
      "hex": "0100000001155c3f5db191248be5f86eed34cda48a6b07c78b243b053bf74197734e2ccb520100000092004830450221009cd47aae4533f47116c4931f749ab61ff24106ff73e313d02d4712e4e40742d702206aca311328e601ba9fb938f65caf62e8d17938af7664e3ef40a7bd99d5e9cc41014751210322ab8e4bb47bbcc0df07614cedb65de2967ab4e4586fc9e5de697383943cbb3621039926ef727d5170f15a13caa8a556856e7a1da048538d70a2710369d50056607352aeffffffff057dbf5d1d000000001976a91460699f839fb0ccef1071f8128899276ded2850df88ac09bf07b90000000017a91449028b5e72b7a18e3b9864439bec652d046ccd9a8709bf07b90000000017a91449028b5e72b7a18e3b9864439bec652d046ccd9a8709bf07b90000000017a91449028b5e72b7a18e3b9864439bec652d046ccd9a87b8f2ffff1400000017a91449028b5e72b7a18e3b9864439bec652d046ccd9a8700000000"
    }
  ],
  "time": 1517464532,
  "mediantime": 1517463685,
  "nonce": 3606026041,
  "bits": "1a042eae",
  "difficulty": 4011378.762614286,
  "chainwork": "000000000000000000000000000000000000000000000035288c49da05171644",
  "previousblockhash": "4232d224b76ae557466bbe4097cd2ddfb922abe938acd07f7f6c6d279ae46e15",
  "nextblockhash": "3848c2d48f503b4672b06fa44b346cb9e9688d96118fb3507514d87c47689557"
}
