{
  "hash": "e7c767fc108327a5a34fda95a22a3a1ca6ecec5b29ce145f48fc25169a96985c",
  "confirmations": 155,
  "strippedsize": 2790,
  "size": 2826,
  "weight": 11196,
  "height": 1360839,
  "version": 536870912,
  "versionHex": "20000000",
  "merkleroot": "a8e55995487ec1d811e513bfd92632bd63b0b319e1ba731d01b03cf5a4870e80",
  "tx": [
    {
      "txid": "2920fd2f0fdd3729cebe1f39199be6abfef33bab7978aa681655b4085ef4aa21",
      "hash": "068b49de103d87c1302b29f63a71efe4017ada72da09991202f43a47ae94d23a",
      "version": 1,
      "size": 244,
      "vsize": 217,
      "locktime": 0,
      "vin": [
        {
          "coinbase": "03c7c31404cf07735a0801c9c4540d000000fabe6d6d01927f8964737d814b022c7c8a6b07ac3c109db6dfbf109e169a90f1ce3baed940000000000000000d2f6e6f64655374726174756d2f",
          "sequence": 0
        }
      ],
      "vout": [
        {
          "value": 25.01301099,
          "n": 0,
          "scriptPubKey": {
            "asm": "OP_DUP OP_HASH160 0c617fdb2ea42aed30a509595ee21ba3f6688db0 OP_EQUALVERIFY OP_CHECKSIG",
            "hex": "76a9140c617fdb2ea42aed30a509595ee21ba3f6688db088ac",
            "reqSigs": 1,
            "type": "pubkeyhash",
            "addresses": [
              "LLMRAtr3qBje2ySEa3CnZ55LA4TQMWnRY3"
            ]
          }
        }, 
        {
          "value": 0.00000000,
          "n": 1,
          "scriptPubKey": {
            "asm": "OP_RETURN aa21a9ed3371939c31510d500cae5fc3e8cc302d76f452fe79d96ddf1c4f3c2cabcee2f8",
            "hex": "6a24aa21a9ed3371939c31510d500cae5fc3e8cc302d76f452fe79d96ddf1c4f3c2cabcee2f8",
            "type": "nulldata"
          }
        }
      ],
      "hex": "010000000001010000000000000000000000000000000000000000000000000000000000000000ffffffff4c03c7c31404cf07735a0801c9c4540d000000fabe6d6d01927f8964737d814b022c7c8a6b07ac3c109db6dfbf109e169a90f1ce3baed940000000000000000d2f6e6f64655374726174756d2f00000000026bd31695000000001976a9140c617fdb2ea42aed30a509595ee21ba3f6688db088ac0000000000000000266a24aa21a9ed3371939c31510d500cae5fc3e8cc302d76f452fe79d96ddf1c4f3c2cabcee2f80120000000000000000000000000000000000000000000000000000000000000000000000000"
    }, 
    {
      "txid": "4f664e03a1323b756fddc79a935cfa522b77bdfddb2b772eb5cc0056bf3cd2dc",
      "hash": "4f664e03a1323b756fddc79a935cfa522b77bdfddb2b772eb5cc0056bf3cd2dc",
      "version": 2,
      "size": 191,
      "vsize": 191,
      "locktime": 1360837,
      "vin": [
        {
          "txid": "b7d0b57b9b9a8b7cc8fe101ddebcddb5d5f433872c3ef516c0802c024d4a2591",
          "vout": 0,
          "scriptSig": {
            "asm": "304402207f02db567d3ff1d2c8d99a57fd3285902134eecf0dcd61911b0ad8a3d135780602201c36b0c9ca4c21248d9253d042051c420d92dc026d7507e21a98986b03a92d55[ALL] 025d10d7747e69bbbbc76b4574b77959533f0f14f0e3d42f91269f5504e708bc83",
            "hex": "47304402207f02db567d3ff1d2c8d99a57fd3285902134eecf0dcd61911b0ad8a3d135780602201c36b0c9ca4c21248d9253d042051c420d92dc026d7507e21a98986b03a92d550121025d10d7747e69bbbbc76b4574b77959533f0f14f0e3d42f91269f5504e708bc83"
          },
          "sequence": 4294967294
        }
      ],
      "vout": [
        {
          "value": 1.69495320,
          "n": 0,
          "scriptPubKey": {
            "asm": "OP_DUP OP_HASH160 f57c9bfe0a4c5e4901fe9a2d54ca835c8f02360f OP_EQUALVERIFY OP_CHECKSIG",
            "hex": "76a914f57c9bfe0a4c5e4901fe9a2d54ca835c8f02360f88ac",
            "reqSigs": 1,
            "type": "pubkeyhash",
            "addresses": [
              "Lhby6DkBHePuwpQKGDrWLGJZyLZregQjFT"
            ]
          }
        }
      ],
      "hex": "020000000191254a4d022c80c016f53e2c8733f4d5b5ddbcde1d10fec87c8b9a9b7bb5d0b7000000006a47304402207f02db567d3ff1d2c8d99a57fd3285902134eecf0dcd61911b0ad8a3d135780602201c36b0c9ca4c21248d9253d042051c420d92dc026d7507e21a98986b03a92d550121025d10d7747e69bbbbc76b4574b77959533f0f14f0e3d42f91269f5504e708bc83feffffff01184b1a0a000000001976a914f57c9bfe0a4c5e4901fe9a2d54ca835c8f02360f88acc5c31400"
    }, 
    {
      "txid": "daaebec860066570e4a4680ec7cc06be5e8f1eca6dc674601a315331539e179d",
      "hash": "daaebec860066570e4a4680ec7cc06be5e8f1eca6dc674601a315331539e179d",
      "version": 1,
      "size": 668,
      "vsize": 668,
      "locktime": 0,
      "vin": [
        {
          "txid": "d126c54b8b9f2efc643fa7bc7010e9a7c110eeb7867ebffce1daf0f93f5b02a3",
          "vout": 1,
          "scriptSig": {
            "asm": "30450221009dbaf9ba34050c1b237feb511b99d23d869e477bce01d7025cd722b19c668b7d022042ec439296c9505e2852a67c1d72bca4785b2563d323e934e0c1fd58aa73aea5[ALL] 02078fdb2b74b8c56431209cf3e194b2540f705cdd9d33d13b995e786522ae1078",
            "hex": "4830450221009dbaf9ba34050c1b237feb511b99d23d869e477bce01d7025cd722b19c668b7d022042ec439296c9505e2852a67c1d72bca4785b2563d323e934e0c1fd58aa73aea5012102078fdb2b74b8c56431209cf3e194b2540f705cdd9d33d13b995e786522ae1078"
          },
          "sequence": 4294967295
        }, 
        {
          "txid": "2bdfdca44cd5eb01ebc72022c5eb0c08dbf863977310daa3bb400352cf697ef9",
          "vout": 1,
          "scriptSig": {
            "asm": "3044022062ecfaed90d0bc59cbf918c2734c4aacba75129812bcb203a82146a18fc2fc4602200db257278c1bda29abb983b64c3b94da0ba2c2de885aaec5750393660d9ead83[ALL] 02bdb80d4e7d3190f9a09c61a9de65c04d90d698810d0bc0c20b2fb1c344938e94",
            "hex": "473044022062ecfaed90d0bc59cbf918c2734c4aacba75129812bcb203a82146a18fc2fc4602200db257278c1bda29abb983b64c3b94da0ba2c2de885aaec5750393660d9ead83012102bdb80d4e7d3190f9a09c61a9de65c04d90d698810d0bc0c20b2fb1c344938e94"
          },
          "sequence": 4294967295
        }, 
        {
          "txid": "5a12f431678c6d4dc50ead040a649b2cd01ad14023c3f16b6bb53dba097be55e",
          "vout": 1,
          "scriptSig": {
            "asm": "3045022100d274194099397c78323ac12b1f2f34017b55b1a620ca0fbf942972daf7e3c05002205ca6e256bc627591739ad37517c39ea41864e9aad1a64da7e107776c0fc6a37a[ALL] 02bdb80d4e7d3190f9a09c61a9de65c04d90d698810d0bc0c20b2fb1c344938e94",
            "hex": "483045022100d274194099397c78323ac12b1f2f34017b55b1a620ca0fbf942972daf7e3c05002205ca6e256bc627591739ad37517c39ea41864e9aad1a64da7e107776c0fc6a37a012102bdb80d4e7d3190f9a09c61a9de65c04d90d698810d0bc0c20b2fb1c344938e94"
          },
          "sequence": 4294967295
        }, 
        {
          "txid": "dcd3e16f456ba387d94d61aff1b7ad7ddf454c9e21ea105586715d7aba1f86bb",
          "vout": 0,
          "scriptSig": {
            "asm": "30440220020f98907fa38853c0b2222cac60046cc9b462b7750f8cb90f5dd16ff278b25602202d47b138e9ffd75b6013c0e8879e23631c51e6f110464aa7cfa16af823fa5947[ALL] 02bdb80d4e7d3190f9a09c61a9de65c04d90d698810d0bc0c20b2fb1c344938e94",
            "hex": "4730440220020f98907fa38853c0b2222cac60046cc9b462b7750f8cb90f5dd16ff278b25602202d47b138e9ffd75b6013c0e8879e23631c51e6f110464aa7cfa16af823fa5947012102bdb80d4e7d3190f9a09c61a9de65c04d90d698810d0bc0c20b2fb1c344938e94"
          },
          "sequence": 4294967295
        }
      ],
      "vout": [
        {
          "value": 2.39737804,
          "n": 0,
          "scriptPubKey": {
            "asm": "OP_DUP OP_HASH160 cbcba860fc7fd38266d505187e23c67d9d6304b6 OP_EQUALVERIFY OP_CHECKSIG",
            "hex": "76a914cbcba860fc7fd38266d505187e23c67d9d6304b688ac",
            "reqSigs": 1,
            "type": "pubkeyhash",
            "addresses": [
              "LdoXQYNeXPosdnkRYUTe4prPa4PiYX8N9X"
            ]
          }
        }, 
        {
          "value": 2.30216240,
          "n": 1,
          "scriptPubKey": {
            "asm": "OP_DUP OP_HASH160 3c7e1de31814b2970597aa1ae1f795ddac0fa146 OP_EQUALVERIFY OP_CHECKSIG",
            "hex": "76a9143c7e1de31814b2970597aa1ae1f795ddac0fa14688ac",
            "reqSigs": 1,
            "type": "pubkeyhash",
            "addresses": [
              "LQjotU6cNxPiEubx1Ff3cn8AMQGadsLcRN"
            ]
          }
        }
      ],
      "hex": "0100000004a3025b3ff9f0dae1fcbf7e86b7ee10c1a7e91070bca73f64fc2e9f8b4bc526d1010000006b4830450221009dbaf9ba34050c1b237feb511b99d23d869e477bce01d7025cd722b19c668b7d022042ec439296c9505e2852a67c1d72bca4785b2563d323e934e0c1fd58aa73aea5012102078fdb2b74b8c56431209cf3e194b2540f705cdd9d33d13b995e786522ae1078fffffffff97e69cf520340bba3da10739763f8db080cebc52220c7eb01ebd54ca4dcdf2b010000006a473044022062ecfaed90d0bc59cbf918c2734c4aacba75129812bcb203a82146a18fc2fc4602200db257278c1bda29abb983b64c3b94da0ba2c2de885aaec5750393660d9ead83012102bdb80d4e7d3190f9a09c61a9de65c04d90d698810d0bc0c20b2fb1c344938e94ffffffff5ee57b09ba3db56b6bf1c32340d11ad02c9b640a04ad0ec54d6d8c6731f4125a010000006b483045022100d274194099397c78323ac12b1f2f34017b55b1a620ca0fbf942972daf7e3c05002205ca6e256bc627591739ad37517c39ea41864e9aad1a64da7e107776c0fc6a37a012102bdb80d4e7d3190f9a09c61a9de65c04d90d698810d0bc0c20b2fb1c344938e94ffffffffbb861fba7a5d71865510ea219e4c45df7dadb7f1af614dd987a36b456fe1d3dc000000006a4730440220020f98907fa38853c0b2222cac60046cc9b462b7750f8cb90f5dd16ff278b25602202d47b138e9ffd75b6013c0e8879e23631c51e6f110464aa7cfa16af823fa5947012102bdb80d4e7d3190f9a09c61a9de65c04d90d698810d0bc0c20b2fb1c344938e94ffffffff02cc1b4a0e000000001976a914cbcba860fc7fd38266d505187e23c67d9d6304b688ac30d2b80d000000001976a9143c7e1de31814b2970597aa1ae1f795ddac0fa14688ac00000000"
    }, 
    {
      "txid": "90ba804af2d169bf58ba8d1f2c013a344d12fcada400f7ececc0a0d43c4d8679",
      "hash": "90ba804af2d169bf58ba8d1f2c013a344d12fcada400f7ececc0a0d43c4d8679",
      "version": 2,
      "size": 226,
      "vsize": 226,
      "locktime": 1360837,
      "vin": [
        {
          "txid": "bca96d161a66d46b389fafdbb15b14377366ba99f5e4a31d29f006f42e45b08a",
          "vout": 0,
          "scriptSig": {
            "asm": "3045022100d0ac280711ff594062c8a8b1fb857f25b263f4b6d3faf53399f7ffd9ed9ced19022062f4882ca699f0e4fe7df9bb4520e8217e86ebb3756f407dc8a51998d20e3a9a[ALL] 026a9870e275c04cb5de1200c56dbaf8debee1033ad65eee770775b7857f11fdde",
            "hex": "483045022100d0ac280711ff594062c8a8b1fb857f25b263f4b6d3faf53399f7ffd9ed9ced19022062f4882ca699f0e4fe7df9bb4520e8217e86ebb3756f407dc8a51998d20e3a9a0121026a9870e275c04cb5de1200c56dbaf8debee1033ad65eee770775b7857f11fdde"
          },
          "sequence": 4294967294
        }
      ],
      "vout": [
        {
          "value": 2.10233351,
          "n": 0,
          "scriptPubKey": {
            "asm": "OP_DUP OP_HASH160 0e536f9b6ec2c81354a59b9e42f5cf2cd7c9ab6a OP_EQUALVERIFY OP_CHECKSIG",
            "hex": "76a9140e536f9b6ec2c81354a59b9e42f5cf2cd7c9ab6a88ac",
            "reqSigs": 1,
            "type": "pubkeyhash",
            "addresses": [
              "LLXhg8ZSwtNw8iLgNaUgNjBZDkUoAZPbBP"
            ]
          }
        }, 
        {
          "value": 3.84116806,
          "n": 1,
          "scriptPubKey": {
            "asm": "OP_DUP OP_HASH160 303c77a94c4ae47dc8b2980b38791965f9c0c638 OP_EQUALVERIFY OP_CHECKSIG",
            "hex": "76a914303c77a94c4ae47dc8b2980b38791965f9c0c63888ac",
            "reqSigs": 1,
            "type": "pubkeyhash",
            "addresses": [
              "LPd18mh6tcGaQT4BLCD2nMkcDb7pc2AYQ9"
            ]
          }
        }
      ],
      "hex": "02000000018ab0452ef406f0291da3e4f599ba667337145bb1dbaf9f386bd4661a166da9bc000000006b483045022100d0ac280711ff594062c8a8b1fb857f25b263f4b6d3faf53399f7ffd9ed9ced19022062f4882ca699f0e4fe7df9bb4520e8217e86ebb3756f407dc8a51998d20e3a9a0121026a9870e275c04cb5de1200c56dbaf8debee1033ad65eee770775b7857f11fddefeffffff0207e8870c000000001976a9140e536f9b6ec2c81354a59b9e42f5cf2cd7c9ab6a88ac4628e516000000001976a914303c77a94c4ae47dc8b2980b38791965f9c0c63888acc5c31400"
    }, 
    {
      "txid": "4f7a15db2d4618557bd7f0e01f8afb056446c2bc5111f5cc4235bffd06641ede",
      "hash": "4f7a15db2d4618557bd7f0e01f8afb056446c2bc5111f5cc4235bffd06641ede",
      "version": 1,
      "size": 517,
      "vsize": 517,
      "locktime": 0,
      "vin": [
        {
          "txid": "42fdd691721ab91a79a6017b724f765858425b6ddc58409fc2f4b0459f7a7ffe",
          "vout": 1,
          "scriptSig": {
            "asm": "304402204f315e0af9cd535da8c2baeefe776d020f92aaba40461795ee2dd3671cee784502204f5b7d92be87db3f63209dd4842c407f5e7ac5fe4a625b3cebdacf01f0be28c9[ALL] 02e388eccf7822e90eb4e006ad56058e9383875a2842caa961fbe7be614c3e0046",
            "hex": "47304402204f315e0af9cd535da8c2baeefe776d020f92aaba40461795ee2dd3671cee784502204f5b7d92be87db3f63209dd4842c407f5e7ac5fe4a625b3cebdacf01f0be28c9012102e388eccf7822e90eb4e006ad56058e9383875a2842caa961fbe7be614c3e0046"
          },
          "sequence": 4294967295
        }, 
        {
          "txid": "35e15705fb2e53d062212806286c796ac9e703bf3309adb4961f5515f75de169",
          "vout": 1,
          "scriptSig": {
            "asm": "304402202a24e6299936341fa41c383dac3713930eef3db6c74d6ba87b5e7aa0c74fdaf702202df9c09e3a66d053e6d4968fb48bbc09ae2fcbdb8ab81c8d0eb7df9172bab6f5[ALL] 0328c9ae635abf580c261c44815dc1aac309e16ff26250525b7e99951369d2b8c7",
            "hex": "47304402202a24e6299936341fa41c383dac3713930eef3db6c74d6ba87b5e7aa0c74fdaf702202df9c09e3a66d053e6d4968fb48bbc09ae2fcbdb8ab81c8d0eb7df9172bab6f501210328c9ae635abf580c261c44815dc1aac309e16ff26250525b7e99951369d2b8c7"
          },
          "sequence": 4294967295
        }, 
        {
          "txid": "a0e4bbc9a90326e91b608dccfb818e460f9ae0e9843092962c92c91751978d25",
          "vout": 1,
          "scriptSig": {
            "asm": "304402205a08792b4164334eb3229c48fa00a023182b044d0e6d8f22df96384d72e63b0c022015ac3d47f878c0c433c80078b871918645b4bb6f98dde3f0fff15010ef7933a8[ALL] 0328c9ae635abf580c261c44815dc1aac309e16ff26250525b7e99951369d2b8c7",
            "hex": "47304402205a08792b4164334eb3229c48fa00a023182b044d0e6d8f22df96384d72e63b0c022015ac3d47f878c0c433c80078b871918645b4bb6f98dde3f0fff15010ef7933a801210328c9ae635abf580c261c44815dc1aac309e16ff26250525b7e99951369d2b8c7"
          },
          "sequence": 4294967295
        }
      ],
      "vout": [
        {
          "value": 5.84920064,
          "n": 0,
          "scriptPubKey": {
            "asm": "OP_HASH160 778b7adc120f249ea49f9423affdfde033822699 OP_EQUAL",
            "hex": "a914778b7adc120f249ea49f9423affdfde03382269987",
            "reqSigs": 1,
            "type": "scripthash",
            "addresses": [
              "MJoFjVXygMEGyPP8Xshj7bqfvvYKzP2mbL"
            ]
          }
        }, 
        {
          "value": 27.99770650,
          "n": 1,
          "scriptPubKey": {
            "asm": "OP_DUP OP_HASH160 c6e3836c2f4cd8f9c53e32813ded99ac0ce001f1 OP_EQUALVERIFY OP_CHECKSIG",
            "hex": "76a914c6e3836c2f4cd8f9c53e32813ded99ac0ce001f188ac",
            "reqSigs": 1,
            "type": "pubkeyhash",
            "addresses": [
              "LdMac6qdwFnBCVXN96dvoPjzbcE36gzs64"
            ]
          }
        }
      ],
      "hex": "0100000003fe7f7a9f45b0f4c29f4058dc6d5b425858764f727b01a6791ab91a7291d6fd42010000006a47304402204f315e0af9cd535da8c2baeefe776d020f92aaba40461795ee2dd3671cee784502204f5b7d92be87db3f63209dd4842c407f5e7ac5fe4a625b3cebdacf01f0be28c9012102e388eccf7822e90eb4e006ad56058e9383875a2842caa961fbe7be614c3e0046ffffffff69e15df715551f96b4ad0933bf03e7c96a796c2806282162d0532efb0557e135010000006a47304402202a24e6299936341fa41c383dac3713930eef3db6c74d6ba87b5e7aa0c74fdaf702202df9c09e3a66d053e6d4968fb48bbc09ae2fcbdb8ab81c8d0eb7df9172bab6f501210328c9ae635abf580c261c44815dc1aac309e16ff26250525b7e99951369d2b8c7ffffffff258d975117c9922c96923084e9e09a0f468e81fbcc8d601be92603a9c9bbe4a0010000006a47304402205a08792b4164334eb3229c48fa00a023182b044d0e6d8f22df96384d72e63b0c022015ac3d47f878c0c433c80078b871918645b4bb6f98dde3f0fff15010ef7933a801210328c9ae635abf580c261c44815dc1aac309e16ff26250525b7e99951369d2b8c7ffffffff02002cdd220000000017a914778b7adc120f249ea49f9423affdfde033822699871a1ce1a6000000001976a914c6e3836c2f4cd8f9c53e32813ded99ac0ce001f188ac00000000"
    }, 
    {
      "txid": "636648caad6bfc8694541332a98eb371f6048e9d546429ae1a3504e58edb3e6f",
      "hash": "636648caad6bfc8694541332a98eb371f6048e9d546429ae1a3504e58edb3e6f",
      "version": 1,
      "size": 225,
      "vsize": 225,
      "locktime": 0,
      "vin": [
        {
          "txid": "d202807b357f022d3375bf9deb0739d944015d7ba03c27b014609c79d8c1cadf",
          "vout": 17,
          "scriptSig": {
            "asm": "304402206f7548cbf9027cb37e6b7bbcb0e1679209449badf4791f8fb39fb047fe56c2a3022021845b52472ee372c241ede2bad2466922e170ae54aeca8dd531584c262b4c7a[ALL] 027c27f35bcc07e1c7e92bdb56de74c54259e11d272a8026fedacdd0985a7a285f",
            "hex": "47304402206f7548cbf9027cb37e6b7bbcb0e1679209449badf4791f8fb39fb047fe56c2a3022021845b52472ee372c241ede2bad2466922e170ae54aeca8dd531584c262b4c7a0121027c27f35bcc07e1c7e92bdb56de74c54259e11d272a8026fedacdd0985a7a285f"
          },
          "sequence": 4294967295
        }
      ],
      "vout": [
        {
          "value": 1.50000000,
          "n": 0,
          "scriptPubKey": {
            "asm": "OP_DUP OP_HASH160 993d90055654e160de513df748a6a073b58bb302 OP_EQUALVERIFY OP_CHECKSIG",
            "hex": "76a914993d90055654e160de513df748a6a073b58bb30288ac",
            "reqSigs": 1,
            "type": "pubkeyhash",
            "addresses": [
              "LZCDQ1KAASahrfuLMaK9n5zEjN5CVsWrTZ"
            ]
          }
        }, 
        {
          "value": 13.49977400,
          "n": 1,
          "scriptPubKey": {
            "asm": "OP_DUP OP_HASH160 bb0c321fc8b204c1d86c2079b1e10d660168c259 OP_EQUALVERIFY OP_CHECKSIG",
            "hex": "76a914bb0c321fc8b204c1d86c2079b1e10d660168c25988ac",
            "reqSigs": 1,
            "type": "pubkeyhash",
            "addresses": [
              "LcGyETsi6cPd9wyeMSnLtvG92gHuB8mdBR"
            ]
          }
        }
      ],
      "hex": "0100000001dfcac1d8799c6014b0273ca07b5d0144d93907eb9dbf75332d027f357b8002d2110000006a47304402206f7548cbf9027cb37e6b7bbcb0e1679209449badf4791f8fb39fb047fe56c2a3022021845b52472ee372c241ede2bad2466922e170ae54aeca8dd531584c262b4c7a0121027c27f35bcc07e1c7e92bdb56de74c54259e11d272a8026fedacdd0985a7a285fffffffff0280d1f008000000001976a914993d90055654e160de513df748a6a073b58bb30288ac38057750000000001976a914bb0c321fc8b204c1d86c2079b1e10d660168c25988ac00000000"
    }, 
    {
      "txid": "cce73dc28deebaf504bfbe1a4c07b89e138f1320e78364a1310998804b7d37ab",
      "hash": "cce73dc28deebaf504bfbe1a4c07b89e138f1320e78364a1310998804b7d37ab",
      "version": 1,
      "size": 225,
      "vsize": 225,
      "locktime": 0,
      "vin": [
        {
          "txid": "9fdb3cc3087dbb95c4691d12504761bfad5192617955656c4cefd35382946ce6",
          "vout": 48,
          "scriptSig": {
            "asm": "304402204b81978a97ab9225d4906c17378770ef3f5e3087085d04eee9e871ec30914f3c02201db835dba8fffb13fbac95a9644ae8c7b3c785a837e1da60b71f05dce2ebe4c7[ALL] 02698f5c979c3b7809fb0e938c2be9746372c1e6b2e73b77069f09cb93d33e29c7",
            "hex": "47304402204b81978a97ab9225d4906c17378770ef3f5e3087085d04eee9e871ec30914f3c02201db835dba8fffb13fbac95a9644ae8c7b3c785a837e1da60b71f05dce2ebe4c7012102698f5c979c3b7809fb0e938c2be9746372c1e6b2e73b77069f09cb93d33e29c7"
          },
          "sequence": 4294967295
        }
      ],
      "vout": [
        {
          "value": 0.00399957,
          "n": 0,
          "scriptPubKey": {
            "asm": "OP_DUP OP_HASH160 a4360f76e49860e7a53d9c72d17f1610b7c4717f OP_EQUALVERIFY OP_CHECKSIG",
            "hex": "76a914a4360f76e49860e7a53d9c72d17f1610b7c4717f88ac",
            "reqSigs": 1,
            "type": "pubkeyhash",
            "addresses": [
              "LaCDqrcVPcM4JwoQotp8Q22BH5P7qvLyLh"
            ]
          }
        }, 
        {
          "value": 0.16000000,
          "n": 1,
          "scriptPubKey": {
            "asm": "OP_DUP OP_HASH160 76a976cd19990bdc34014f59bf49bcd2fb994133 OP_EQUALVERIFY OP_CHECKSIG",
            "hex": "76a91476a976cd19990bdc34014f59bf49bcd2fb99413388ac",
            "reqSigs": 1,
            "type": "pubkeyhash",
            "addresses": [
              "LW3P1RF7bZCqiQ8htY1kmVSN4cTqw5Peg2"
            ]
          }
        }
      ],
      "hex": "0100000001e66c948253d3ef4c6c655579619251adbf614750121d69c495bb7d08c33cdb9f300000006a47304402204b81978a97ab9225d4906c17378770ef3f5e3087085d04eee9e871ec30914f3c02201db835dba8fffb13fbac95a9644ae8c7b3c785a837e1da60b71f05dce2ebe4c7012102698f5c979c3b7809fb0e938c2be9746372c1e6b2e73b77069f09cb93d33e29c7ffffffff02551a0600000000001976a914a4360f76e49860e7a53d9c72d17f1610b7c4717f88ac0024f400000000001976a91476a976cd19990bdc34014f59bf49bcd2fb99413388ac00000000"
    }, 
    {
      "txid": "9cb95154c16d927d3272890560a063a88d19230799d4ffff5774217ec70379be",
      "hash": "9cb95154c16d927d3272890560a063a88d19230799d4ffff5774217ec70379be",
      "version": 2,
      "size": 225,
      "vsize": 225,
      "locktime": 1360837,
      "vin": [
        {
          "txid": "f3100870718693d787fe45e454173aac730163595334203eb68c1c77fbb7eefd",
          "vout": 1,
          "scriptSig": {
            "asm": "3044022015ac9c6ce7266fbd6a4dd63c41d41d3d7566d22812b420f04572c4d874ac1fec0220256c25aff67c5459596d892f68c9a22e1d3e281bef4de9370d80a6d13dafcac9[ALL] 02fe65b80dac2e87be254869ad56a32ea985435f3e7577af64a3abad552057f70a",
            "hex": "473044022015ac9c6ce7266fbd6a4dd63c41d41d3d7566d22812b420f04572c4d874ac1fec0220256c25aff67c5459596d892f68c9a22e1d3e281bef4de9370d80a6d13dafcac9012102fe65b80dac2e87be254869ad56a32ea985435f3e7577af64a3abad552057f70a"
          },
          "sequence": 4294967294
        }
      ],
      "vout": [
        {
          "value": 1.70372183,
          "n": 0,
          "scriptPubKey": {
            "asm": "OP_DUP OP_HASH160 01193b5db8d2f9237cc5b8613194b59234f4c96c OP_EQUALVERIFY OP_CHECKSIG",
            "hex": "76a91401193b5db8d2f9237cc5b8613194b59234f4c96c88ac",
            "reqSigs": 1,
            "type": "pubkeyhash",
            "addresses": [
              "LKKmAYjRKVLgsNDiHaPLTDvqoxoqb1h8V8"
            ]
          }
        }, 
        {
          "value": 7.23515376,
          "n": 1,
          "scriptPubKey": {
            "asm": "OP_DUP OP_HASH160 08e32404b1824f507ddde61e30a5cc0580b13b64 OP_EQUALVERIFY OP_CHECKSIG",
            "hex": "76a91408e32404b1824f507ddde61e30a5cc0580b13b6488ac",
            "reqSigs": 1,
            "type": "pubkeyhash",
            "addresses": [
              "LL2wmm2g2DicJzeyXDCLbWGj5R8E38s8ke"
            ]
          }
        }
      ],
      "hex": "0200000001fdeeb7fb771c8cb63e20345359630173ac3a1754e445fe87d7938671700810f3010000006a473044022015ac9c6ce7266fbd6a4dd63c41d41d3d7566d22812b420f04572c4d874ac1fec0220256c25aff67c5459596d892f68c9a22e1d3e281bef4de9370d80a6d13dafcac9012102fe65b80dac2e87be254869ad56a32ea985435f3e7577af64a3abad552057f70afeffffff0257ac270a000000001976a91401193b5db8d2f9237cc5b8613194b59234f4c96c88acf0f71f2b000000001976a91408e32404b1824f507ddde61e30a5cc0580b13b6488acc5c31400"
    }, 
    {
      "txid": "f33031c1b2943c051a9d97f848b71f0724b403adb80155c7b0615743453bef33",
      "hash": "f33031c1b2943c051a9d97f848b71f0724b403adb80155c7b0615743453bef33",
      "version": 2,
      "size": 224,
      "vsize": 224,
      "locktime": 1360837,
      "vin": [
        {
          "txid": "1af6d81f7e353af998966d083ae363b8becf1a8ad2a9023b47d9e803cf827363",
          "vout": 1,
          "scriptSig": {
            "asm": "3045022100e50938898f97e0697abb15e4050bdfc7b6b0e2f1500e23373fbab086d647354e022004d11bad98b1ebc1474540d17676f1b68d63949e19cca5844511c10e70801974[ALL] 0334dfd20b08b34ab893175961c6d3827df43333e573cc53885732518338f9e901",
            "hex": "483045022100e50938898f97e0697abb15e4050bdfc7b6b0e2f1500e23373fbab086d647354e022004d11bad98b1ebc1474540d17676f1b68d63949e19cca5844511c10e7080197401210334dfd20b08b34ab893175961c6d3827df43333e573cc53885732518338f9e901"
          },
          "sequence": 4294967294
        }
      ],
      "vout": [
        {
          "value": 19527.85703412,
          "n": 0,
          "scriptPubKey": {
            "asm": "OP_DUP OP_HASH160 fa8bf5d056f1258cb83a33c69de4f86d7c4c0037 OP_EQUALVERIFY OP_CHECKSIG",
            "hex": "76a914fa8bf5d056f1258cb83a33c69de4f86d7c4c003788ac",
            "reqSigs": 1,
            "type": "pubkeyhash",
            "addresses": [
              "Li4irmzSDqVnAWMfAki1oWs4g6BbfRcg7k"
            ]
          }
        }, 
        {
          "value": 82.99406624,
          "n": 1,
          "scriptPubKey": {
            "asm": "OP_HASH160 fef310a47c6dfe966e374af189f8d4d46fba6e0f OP_EQUAL",
            "hex": "a914fef310a47c6dfe966e374af189f8d4d46fba6e0f87",
            "reqSigs": 1,
            "type": "scripthash",
            "addresses": [
              "MX9D3cDpC7PPc9GvPCitB2smKnzJJh3pQz"
            ]
          }
        }
      ],
      "hex": "0200000001637382cf03e8d9473b02a9d28a1acfbeb863e33a086d9698f93a357e1fd8f61a010000006b483045022100e50938898f97e0697abb15e4050bdfc7b6b0e2f1500e23373fbab086d647354e022004d11bad98b1ebc1474540d17676f1b68d63949e19cca5844511c10e7080197401210334dfd20b08b34ab893175961c6d3827df43333e573cc53885732518338f9e901feffffff02f42119abc60100001976a914fa8bf5d056f1258cb83a33c69de4f86d7c4c003788ac20e5aeee0100000017a914fef310a47c6dfe966e374af189f8d4d46fba6e0f87c5c31400"
    }
  ],
  "time": 1517488002,
  "mediantime": 1517487354,
  "nonce": 1535963825,
  "bits": "1a04088e",
  "difficulty": 4159490.835685156,
  "chainwork": "000000000000000000000000000000000000000000000035509780d2c05d3ac0",
  "previousblockhash": "e8ebb368be41b1ad99e9051809b8b7ede5ce7f1320771819be56646517e64a64",
  "nextblockhash": "69041cee1dffb139c20386b2bc116e67547464d2ffb1f1f28e8e8cbedb01eae1"
}
