{
  "hash": "e7cff0bb3811b6de104227b57d279f0fb33e5bb2d95597f17a3541914e115d62",
  "confirmations": 1318,
  "strippedsize": 255,
  "size": 255,
  "weight": 1020,
  "height": 1359676,
  "version": 536870912,
  "versionHex": "20000000",
  "merkleroot": "22abfb4b73467573816aa91c3ebda6da01943c17d75bfce0894bf0f92c4f322a",
  "tx": [
    {
      "txid": "22abfb4b73467573816aa91c3ebda6da01943c17d75bfce0894bf0f92c4f322a",
      "hash": "22abfb4b73467573816aa91c3ebda6da01943c17d75bfce0894bf0f92c4f322a",
      "version": 1,
      "size": 174,
      "vsize": 174,
      "locktime": 0,
      "vin": [
        {
          "coinbase": "033cbf141c4d696e656420627920416e74506f6f6c20626a341e205a706d77044bfabe6d6d3a3fcec0bad7ad1f100d9cabed2d497ddbc6055a524134e1aba5412903ca1a6b0400000000000000be0800000000000002000000",
          "sequence": 4294967295
        }
      ],
      "vout": [
        {
          "value": 25.00000000,
          "n": 0,
          "scriptPubKey": {
            "asm": "OP_DUP OP_HASH160 0ff3ccc5e8be88afe24b5d634e5852d474dbdff1 OP_EQUALVERIFY OP_CHECKSIG",
            "hex": "76a9140ff3ccc5e8be88afe24b5d634e5852d474dbdff188ac",
            "reqSigs": 1,
            "type": "pubkeyhash",
            "addresses": [
              "LLgJTbzZMsRTCUF1NtvvL9SR1a4pVieW89"
            ]
          }
        }
      ],
      "hex": "01000000010000000000000000000000000000000000000000000000000000000000000000ffffffff59033cbf141c4d696e656420627920416e74506f6f6c20626a341e205a706d77044bfabe6d6d3a3fcec0bad7ad1f100d9cabed2d497ddbc6055a524134e1aba5412903ca1a6b0400000000000000be0800000000000002000000ffffffff0100f90295000000001976a9140ff3ccc5e8be88afe24b5d634e5852d474dbdff188ac00000000"
    }
  ],
  "time": 1517317495,
  "mediantime": 1517316419,
  "nonce": 3733274812,
  "bits": "1a042eae",
  "difficulty": 4011378.762614286,
  "chainwork": "0000000000000000000000000000000000000000000000343a2a33859b30eefa",
  "previousblockhash": "a2befd0aec8c4c096f08b4cd84aeb38d090832b9570ff1fed351cdf6d450e454",
  "nextblockhash": "44f3afa0a8f994a99b9d43ab7bd252cfdc17e84d50804dee129cd6e3346c76e1"
}
