{
  "hash": "e82095c99e87f079304ea82300d79cf1a3d24237a6436537c4305345113e32e5",
  "confirmations": 3236,
  "strippedsize": 255,
  "size": 255,
  "weight": 1020,
  "height": 1357759,
  "version": 536870912,
  "versionHex": "20000000",
  "merkleroot": "f0c381fbfcae5e5c81985524629b139ec1c1bfb08e49d4f1ad50f083eb896853",
  "tx": [
    {
      "txid": "f0c381fbfcae5e5c81985524629b139ec1c1bfb08e49d4f1ad50f083eb896853",
      "hash": "f0c381fbfcae5e5c81985524629b139ec1c1bfb08e49d4f1ad50f083eb896853",
      "version": 1,
      "size": 174,
      "vsize": 174,
      "locktime": 0,
      "vin": [
        {
          "coinbase": "03bfb7141c4d696e656420627920416e74506f6f6c20626a341e205a6c44d202b0fabe6d6dfb786702f0abdd0236057c392c4b92bbdc213578425712cf2c4e26aea3c183310400000000000000b2160000000000001d000000",
          "sequence": 4294967295
        }
      ],
      "vout": [
        {
          "value": 25.00000000,
          "n": 0,
          "scriptPubKey": {
            "asm": "OP_DUP OP_HASH160 0ff3ccc5e8be88afe24b5d634e5852d474dbdff1 OP_EQUALVERIFY OP_CHECKSIG",
            "hex": "76a9140ff3ccc5e8be88afe24b5d634e5852d474dbdff188ac",
            "reqSigs": 1,
            "type": "pubkeyhash",
            "addresses": [
              "LLgJTbzZMsRTCUF1NtvvL9SR1a4pVieW89"
            ]
          }
        }
      ],
      "hex": "01000000010000000000000000000000000000000000000000000000000000000000000000ffffffff5903bfb7141c4d696e656420627920416e74506f6f6c20626a341e205a6c44d202b0fabe6d6dfb786702f0abdd0236057c392c4b92bbdc213578425712cf2c4e26aea3c183310400000000000000b2160000000000001d000000ffffffff0100f90295000000001976a9140ff3ccc5e8be88afe24b5d634e5852d474dbdff188ac00000000"
    }
  ],
  "time": 1517044946,
  "mediantime": 1517044260,
  "nonce": 3215986748,
  "bits": "1a047f14",
  "difficulty": 3731199.183374282,
  "chainwork": "00000000000000000000000000000000000000000000003280e90c35a9af3c80",
  "previousblockhash": "d6269f5ec0a44928e28d2d1ff92f11a23ab8ff5a1d40d71a5909a737c00c6a8e",
  "nextblockhash": "b07796c4baf33b32f2b4e18bc3f348346a07c2f7bd34c1c38b601e485a1cbd00"
}
