{
  "hash": "e83d186df195b329a5835fdbf13ed10a21a272fd422bb6dd0ca4b7f2d4bde08a",
  "confirmations": 2821,
  "strippedsize": 253,
  "size": 253,
  "weight": 1012,
  "height": 1358174,
  "version": 536870912,
  "versionHex": "20000000",
  "merkleroot": "329352220fe55e4393c18c62a92c2ee7abb5a9383f7470c5dabce35262126d73",
  "tx": [
    {
      "txid": "329352220fe55e4393c18c62a92c2ee7abb5a9383f7470c5dabce35262126d73",
      "hash": "329352220fe55e4393c18c62a92c2ee7abb5a9383f7470c5dabce35262126d73",
      "version": 1,
      "size": 172,
      "vsize": 172,
      "locktime": 0,
      "vin": [
        {
          "coinbase": "035eb9141a4d696e656420627920416e74506f6f6c20626a341e205a6d1f2efabe6d6d93e5bfce9578e69216e36647ad9cadf4efcfd80840d292a5ea0bb133fd0b85ef0400000000000000c61c00000000000010000000",
          "sequence": 4294967295
        }
      ],
      "vout": [
        {
          "value": 25.00000000,
          "n": 0,
          "scriptPubKey": {
            "asm": "OP_DUP OP_HASH160 0ff3ccc5e8be88afe24b5d634e5852d474dbdff1 OP_EQUALVERIFY OP_CHECKSIG",
            "hex": "76a9140ff3ccc5e8be88afe24b5d634e5852d474dbdff188ac",
            "reqSigs": 1,
            "type": "pubkeyhash",
            "addresses": [
              "LLgJTbzZMsRTCUF1NtvvL9SR1a4pVieW89"
            ]
          }
        }
      ],
      "hex": "01000000010000000000000000000000000000000000000000000000000000000000000000ffffffff57035eb9141a4d696e656420627920416e74506f6f6c20626a341e205a6d1f2efabe6d6d93e5bfce9578e69216e36647ad9cadf4efcfd80840d292a5ea0bb133fd0b85ef0400000000000000c61c00000000000010000000ffffffff0100f90295000000001976a9140ff3ccc5e8be88afe24b5d634e5852d474dbdff188ac00000000"
    }
  ],
  "time": 1517100846,
  "mediantime": 1517100173,
  "nonce": 4286897488,
  "bits": "1a047f14",
  "difficulty": 3731199.183374282,
  "chainwork": "000000000000000000000000000000000000000000000032dd34d82e8f572aa6",
  "previousblockhash": "d3c15211296c6b6eea029435f64c5f0083a4125717e1fdd32a44afd5f9c4f57b",
  "nextblockhash": "3194a9385f51a8330fe5f9a46aea9c6505431a5574c877092a13758590aa1e20"
}
