{
  "hash": "e8b4d93b52a8d53db41f595b7741c12ed5ae090c75255f29befb7b9ed43d9adf",
  "confirmations": 2932,
  "strippedsize": 254,
  "size": 254,
  "weight": 1016,
  "height": 1358063,
  "version": 536870912,
  "versionHex": "20000000",
  "merkleroot": "3766454a916b11abf1833a90f70170148d73cd7dd1799a0a021a6b50d6c2433d",
  "tx": [
    {
      "txid": "3766454a916b11abf1833a90f70170148d73cd7dd1799a0a021a6b50d6c2433d",
      "hash": "3766454a916b11abf1833a90f70170148d73cd7dd1799a0a021a6b50d6c2433d",
      "version": 1,
      "size": 173,
      "vsize": 173,
      "locktime": 0,
      "vin": [
        {
          "coinbase": "03efb8141b4d696e656420627920416e74506f6f6c20626a312045205a6cd9cffabe6d6d4f35e3157986a7d77a1af2eb40cc26b58e0a27d10885bfff66c6d8b3db03a4950400000000000000fc2c0000000000001a000000",
          "sequence": 4294967295
        }
      ],
      "vout": [
        {
          "value": 25.00000000,
          "n": 0,
          "scriptPubKey": {
            "asm": "OP_DUP OP_HASH160 0ff3ccc5e8be88afe24b5d634e5852d474dbdff1 OP_EQUALVERIFY OP_CHECKSIG",
            "hex": "76a9140ff3ccc5e8be88afe24b5d634e5852d474dbdff188ac",
            "reqSigs": 1,
            "type": "pubkeyhash",
            "addresses": [
              "LLgJTbzZMsRTCUF1NtvvL9SR1a4pVieW89"
            ]
          }
        }
      ],
      "hex": "01000000010000000000000000000000000000000000000000000000000000000000000000ffffffff5803efb8141b4d696e656420627920416e74506f6f6c20626a312045205a6cd9cffabe6d6d4f35e3157986a7d77a1af2eb40cc26b58e0a27d10885bfff66c6d8b3db03a4950400000000000000fc2c0000000000001a000000ffffffff0100f90295000000001976a9140ff3ccc5e8be88afe24b5d634e5852d474dbdff188ac00000000"
    }
  ],
  "time": 1517083087,
  "mediantime": 1517082230,
  "nonce": 2232892372,
  "bits": "1a047f14",
  "difficulty": 3731199.183374282,
  "chainwork": "000000000000000000000000000000000000000000000032c4851ed97b3e9b60",
  "previousblockhash": "4e2081688388eaf554a8daa6123b5cfbd2891ab3dc96153f4272f0699b0ee006",
  "nextblockhash": "bffcd32d314cbbca9e3bb3da7a29929368afbcf2a5a00d79b136d24920c25ded"
}
