{
  "hash": "e954bd2d47b11ed50b1e2d5e784516ed29f27c1a4d5d2bab242d1a451145ff63",
  "confirmations": 3047,
  "strippedsize": 3097,
  "size": 3133,
  "weight": 12424,
  "height": 1357948,
  "version": 536870912,
  "versionHex": "20000000",
  "merkleroot": "9b3e2a4e4fc1cd2b58df9f300435564a63c11f30b612e7b77a15e8a948b1a372",
  "tx": [
    {
      "txid": "827affa94274eff810f0120228d17e8fefcd459b7e7436ee1cec5ea518ecb115",
      "hash": "84ff82ae2be6d84be71e66642eb72501823b4f767e3d95cfb2fef52db452eebf",
      "version": 1,
      "size": 287,
      "vsize": 260,
      "locktime": 0,
      "vin": [
        {
          "coinbase": "037cb81441d69b288b66bdd041d69b288a79a4a72f4c54432e544f502ffabe6d6dad70fc4f51f5695aa253020b451c8c79d8ee8fd5e8220203ffa2c9b5e2ec3eb20100000000000000552f0bcc1000000000000000",
          "sequence": 4294967295
        }
      ],
      "vout": [
        {
          "value": 24.76527500,
          "n": 0,
          "scriptPubKey": {
            "asm": "OP_DUP OP_HASH160 7b96c291c4d9e252907e9275cd3d14fdeaeac0f1 OP_EQUALVERIFY OP_CHECKSIG",
            "hex": "76a9147b96c291c4d9e252907e9275cd3d14fdeaeac0f188ac",
            "reqSigs": 1,
            "type": "pubkeyhash",
            "addresses": [
              "LWVRyoJawzDYtvRmLVzUXqUSkNT7H1MLTt"
            ]
          }
        }, 
        {
          "value": 0.00000000,
          "n": 1,
          "scriptPubKey": {
            "asm": "OP_RETURN aa21a9edb33b16b23d0b33845a512773b597ec109ab499261aedf7e2860231ccf062c39e",
            "hex": "6a24aa21a9edb33b16b23d0b33845a512773b597ec109ab499261aedf7e2860231ccf062c39e",
            "type": "nulldata"
          }
        }, 
        {
          "value": 0.25015429,
          "n": 2,
          "scriptPubKey": {
            "asm": "OP_DUP OP_HASH160 0c617fdb2ea42aed30a509595ee21ba3f6688db0 OP_EQUALVERIFY OP_CHECKSIG",
            "hex": "76a9140c617fdb2ea42aed30a509595ee21ba3f6688db088ac",
            "reqSigs": 1,
            "type": "pubkeyhash",
            "addresses": [
              "LLMRAtr3qBje2ySEa3CnZ55LA4TQMWnRY3"
            ]
          }
        }
      ],
      "hex": "010000000001010000000000000000000000000000000000000000000000000000000000000000ffffffff55037cb81441d69b288b66bdd041d69b288a79a4a72f4c54432e544f502ffabe6d6dad70fc4f51f5695aa253020b451c8c79d8ee8fd5e8220203ffa2c9b5e2ec3eb20100000000000000552f0bcc1000000000000000ffffffff038ccf9c93000000001976a9147b96c291c4d9e252907e9275cd3d14fdeaeac0f188ac0000000000000000266a24aa21a9edb33b16b23d0b33845a512773b597ec109ab499261aedf7e2860231ccf062c39e85b47d01000000001976a9140c617fdb2ea42aed30a509595ee21ba3f6688db088ac0120000000000000000000000000000000000000000000000000000000000000000000000000"
    }, 
    {
      "txid": "4f5d4dc8d3d09a574ce0999ddf3fbf28c0aa9c1247095113b6bd57c1b1840023",
      "hash": "4f5d4dc8d3d09a574ce0999ddf3fbf28c0aa9c1247095113b6bd57c1b1840023",
      "version": 1,
      "size": 407,
      "vsize": 407,
      "locktime": 0,
      "vin": [
        {
          "txid": "447a5216d06da408ce3b74560baec8e908ee30508147e3afd7ec60f72fcf5526",
          "vout": 4,
          "scriptSig": {
            "asm": "0 3045022100b7e974420f4fe755bc80d617e0295854b0b6e7764c48c20c486261cbbe090cf40220040f44a035ae14eca87b94cd612241463359d664499266dfc14df90d4178da70[ALL] 3045022100b6fd7423e60f6084940a12b9b5e901a5084f0d9e9dfcfa8720370a23db08bd0902204767e158f372771cda0ce1469fb3fb5605228a549af60a0c63b076be2f3a797f[ALL] 522102549e42131097aad693b978c148a96805685afaf26d24b409dae48f50c2e0d3912102605c62fbe40b194cbf250bb721ddfb310345a98baefa6eb7258d1d3ad624e0792103cffdb39d568ab6e681b1a2b208bad506f6739e03a92311ed106e6ec01578feaf53ae",
            "hex": "00483045022100b7e974420f4fe755bc80d617e0295854b0b6e7764c48c20c486261cbbe090cf40220040f44a035ae14eca87b94cd612241463359d664499266dfc14df90d4178da7001483045022100b6fd7423e60f6084940a12b9b5e901a5084f0d9e9dfcfa8720370a23db08bd0902204767e158f372771cda0ce1469fb3fb5605228a549af60a0c63b076be2f3a797f014c69522102549e42131097aad693b978c148a96805685afaf26d24b409dae48f50c2e0d3912102605c62fbe40b194cbf250bb721ddfb310345a98baefa6eb7258d1d3ad624e0792103cffdb39d568ab6e681b1a2b208bad506f6739e03a92311ed106e6ec01578feaf53ae"
          },
          "sequence": 4294967295
        }
      ],
      "vout": [
        {
          "value": 0.38438789,
          "n": 0,
          "scriptPubKey": {
            "asm": "OP_DUP OP_HASH160 1adc02d6fb1491cd39bbd4763fa40e1d320fb9f1 OP_EQUALVERIFY OP_CHECKSIG",
            "hex": "76a9141adc02d6fb1491cd39bbd4763fa40e1d320fb9f188ac",
            "reqSigs": 1,
            "type": "pubkeyhash",
            "addresses": [
              "LMfyPqdkaz94doyFpciQny5TBXSkXk6Z3D"
            ]
          }
        }, 
        {
          "value": 3.11754435,
          "n": 1,
          "scriptPubKey": {
            "asm": "OP_DUP OP_HASH160 5b71b440b0316df734a837617ccc37545f2b6148 OP_EQUALVERIFY OP_CHECKSIG",
            "hex": "76a9145b71b440b0316df734a837617ccc37545f2b614888ac",
            "reqSigs": 1,
            "type": "pubkeyhash",
            "addresses": [
              "LTZTxyCdA7pKrb4oqJfWDJZ6Sdz4EuKgQZ"
            ]
          }
        }, 
        {
          "value": 2.01052776,
          "n": 2,
          "scriptPubKey": {
            "asm": "OP_HASH160 5a3b90649d19a59cb4a4487b639c094852a4a3d6 OP_EQUAL",
            "hex": "a9145a3b90649d19a59cb4a4487b639c094852a4a3d687",
            "reqSigs": 1,
            "type": "scripthash",
            "addresses": [
              "MG8GQGzu8ZqwsbC2LT8N8THYTb451fX4Gu"
            ]
          }
        }
      ],
      "hex": "01000000012655cf2ff760ecd7afe347815030ee08e9c8ae0b56743bce08a46dd016527a4404000000fdfe0000483045022100b7e974420f4fe755bc80d617e0295854b0b6e7764c48c20c486261cbbe090cf40220040f44a035ae14eca87b94cd612241463359d664499266dfc14df90d4178da7001483045022100b6fd7423e60f6084940a12b9b5e901a5084f0d9e9dfcfa8720370a23db08bd0902204767e158f372771cda0ce1469fb3fb5605228a549af60a0c63b076be2f3a797f014c69522102549e42131097aad693b978c148a96805685afaf26d24b409dae48f50c2e0d3912102605c62fbe40b194cbf250bb721ddfb310345a98baefa6eb7258d1d3ad624e0792103cffdb39d568ab6e681b1a2b208bad506f6739e03a92311ed106e6ec01578feaf53aeffffffff0385874a02000000001976a9141adc02d6fb1491cd39bbd4763fa40e1d320fb9f188acc3fe9412000000001976a9145b71b440b0316df734a837617ccc37545f2b614888ac68d2fb0b0000000017a9145a3b90649d19a59cb4a4487b639c094852a4a3d68700000000"
    }, 
    {
      "txid": "efcb07d44bbe7bda85bdd638b17f17ce37ba4f135cdcfb5efc0af93f3c1211a2",
      "hash": "efcb07d44bbe7bda85bdd638b17f17ce37ba4f135cdcfb5efc0af93f3c1211a2",
      "version": 1,
      "size": 495,
      "vsize": 495,
      "locktime": 0,
      "vin": [
        {
          "txid": "fb30be448f03ac720d334cfcdb2a9e6e1bfdd7ed483b0e902ab3a745ac718a16",
          "vout": 6,
          "scriptSig": {
            "asm": "304402201f5849807074ac0b34817c02ca1f06e3e921373eb75489b432fac7e38518ac2d02205264a529648620434714c6b2e2503312c0700119c9f68f708c25a547506c2cb9[ALL] 03db5cc8462803a088c66d8f2c35af5b147448390039e6c66d410e89e42f2a99d0",
            "hex": "47304402201f5849807074ac0b34817c02ca1f06e3e921373eb75489b432fac7e38518ac2d02205264a529648620434714c6b2e2503312c0700119c9f68f708c25a547506c2cb9012103db5cc8462803a088c66d8f2c35af5b147448390039e6c66d410e89e42f2a99d0"
          },
          "sequence": 4294967295
        }
      ],
      "vout": [
        {
          "value": 0.06712207,
          "n": 0,
          "scriptPubKey": {
            "asm": "OP_DUP OP_HASH160 52d4fc8fdf0368bda1979997116e2e8f42321a2e OP_EQUALVERIFY OP_CHECKSIG",
            "hex": "76a91452d4fc8fdf0368bda1979997116e2e8f42321a2e88ac",
            "reqSigs": 1,
            "type": "pubkeyhash",
            "addresses": [
              "LSmvpWW38RTZAJE651H5ZBfiUzt2aFw2bD"
            ]
          }
        }, 
        {
          "value": 0.99000000,
          "n": 1,
          "scriptPubKey": {
            "asm": "OP_DUP OP_HASH160 4031bfd63a743d89c9ad298ca1420ccda18fe38a OP_EQUALVERIFY OP_CHECKSIG",
            "hex": "76a9144031bfd63a743d89c9ad298ca1420ccda18fe38a88ac",
            "reqSigs": 1,
            "type": "pubkeyhash",
            "addresses": [
              "LR5P78sMHtTR5biQpK8u5gyHRxrQfJMHTx"
            ]
          }
        }, 
        {
          "value": 1.28987019,
          "n": 2,
          "scriptPubKey": {
            "asm": "OP_DUP OP_HASH160 8bd08c9924f87584094bebdf7ce77df24c28c4cf OP_EQUALVERIFY OP_CHECKSIG",
            "hex": "76a9148bd08c9924f87584094bebdf7ce77df24c28c4cf88ac",
            "reqSigs": 1,
            "type": "pubkeyhash",
            "addresses": [
              "LXyE28XxSehYv3WaeeSfvTLA4QtZVfpWfC"
            ]
          }
        }, 
        {
          "value": 0.76149797,
          "n": 3,
          "scriptPubKey": {
            "asm": "OP_DUP OP_HASH160 5eb1779eb3f1c9cd3580429de242a4aa61dccf91 OP_EQUALVERIFY OP_CHECKSIG",
            "hex": "76a9145eb1779eb3f1c9cd3580429de242a4aa61dccf9188ac",
            "reqSigs": 1,
            "type": "pubkeyhash",
            "addresses": [
              "LTreNtPawF6DueTp1okNFDNQ2iKsGeVZkm"
            ]
          }
        }, 
        {
          "value": 1.53788877,
          "n": 4,
          "scriptPubKey": {
            "asm": "OP_DUP OP_HASH160 624dff51e2b8ee34035aa05d9f6a044f28e34c5b OP_EQUALVERIFY OP_CHECKSIG",
            "hex": "76a914624dff51e2b8ee34035aa05d9f6a044f28e34c5b88ac",
            "reqSigs": 1,
            "type": "pubkeyhash",
            "addresses": [
              "LUBjvMzk5tosKwQ9YnEpyxX8gx3PNqjGZt"
            ]
          }
        }, 
        {
          "value": 0.46276693,
          "n": 5,
          "scriptPubKey": {
            "asm": "OP_DUP OP_HASH160 90ce2e6e48aa44f94353ec7de8be693cec5a3026 OP_EQUALVERIFY OP_CHECKSIG",
            "hex": "76a91490ce2e6e48aa44f94353ec7de8be693cec5a302688ac",
            "reqSigs": 1,
            "type": "pubkeyhash",
            "addresses": [
              "LYRcZZyYT9NG1zBNZ7mTxBcJJdmwzjtyew"
            ]
          }
        }, 
        {
          "value": 0.09094683,
          "n": 6,
          "scriptPubKey": {
            "asm": "OP_DUP OP_HASH160 c5e22a810a5a2c6dddcbdd843bee4619cdc4764f OP_EQUALVERIFY OP_CHECKSIG",
            "hex": "76a914c5e22a810a5a2c6dddcbdd843bee4619cdc4764f88ac",
            "reqSigs": 1,
            "type": "pubkeyhash",
            "addresses": [
              "LdGGKJ4Wn7dCqfy4bsQQpYVyGTkhkTfuhe"
            ]
          }
        }, 
        {
          "value": 8.83384582,
          "n": 7,
          "scriptPubKey": {
            "asm": "OP_HASH160 407357ecf06342f3be3015e27f509d2ed1d04e04 OP_EQUAL",
            "hex": "a914407357ecf06342f3be3015e27f509d2ed1d04e0487",
            "reqSigs": 1,
            "type": "scripthash",
            "addresses": [
              "MDmweup7u5ezyGVAgbCz8s41fKutLUjxrZ"
            ]
          }
        }, 
        {
          "value": 6.95440291,
          "n": 8,
          "scriptPubKey": {
            "asm": "OP_DUP OP_HASH160 c8192904c23cf94d2b63ffd71f0c76dcd304cf0c OP_EQUALVERIFY OP_CHECKSIG",
            "hex": "76a914c8192904c23cf94d2b63ffd71f0c76dcd304cf0c88ac",
            "reqSigs": 1,
            "type": "pubkeyhash",
            "addresses": [
              "LdTyYk1qkK8R1H8MpfCQoLwDAHeAanWYnT"
            ]
          }
        }, 
        {
          "value": 2.16432508,
          "n": 9,
          "scriptPubKey": {
            "asm": "OP_DUP OP_HASH160 f9871c6dd621879729cd7d502a5af822501cf2aa OP_EQUALVERIFY OP_CHECKSIG",
            "hex": "76a914f9871c6dd621879729cd7d502a5af822501cf2aa88ac",
            "reqSigs": 1,
            "type": "pubkeyhash",
            "addresses": [
              "LhyLNfBkoKshT7R8Pce6vkB9T2cP2o84hx"
            ]
          }
        }
      ],
      "hex": "0100000001168a71ac45a7b32a900e3b48edd7fd1b6e9e2adbfc4c330d72ac038f44be30fb060000006a47304402201f5849807074ac0b34817c02ca1f06e3e921373eb75489b432fac7e38518ac2d02205264a529648620434714c6b2e2503312c0700119c9f68f708c25a547506c2cb9012103db5cc8462803a088c66d8f2c35af5b147448390039e6c66d410e89e42f2a99d0ffffffff0a8f6b6600000000001976a91452d4fc8fdf0368bda1979997116e2e8f42321a2e88acc09ee605000000001976a9144031bfd63a743d89c9ad298ca1420ccda18fe38a88ac8b2fb007000000001976a9148bd08c9924f87584094bebdf7ce77df24c28c4cf88ac25f48904000000001976a9145eb1779eb3f1c9cd3580429de242a4aa61dccf9188accda12a09000000001976a914624dff51e2b8ee34035aa05d9f6a044f28e34c5b88ac5520c202000000001976a91490ce2e6e48aa44f94353ec7de8be693cec5a302688ac1bc68a00000000001976a914c5e22a810a5a2c6dddcbdd843bee4619cdc4764f88ac0661a7340000000017a914407357ecf06342f3be3015e27f509d2ed1d04e0487a3937329000000001976a914c8192904c23cf94d2b63ffd71f0c76dcd304cf0c88ac7c7fe60c000000001976a914f9871c6dd621879729cd7d502a5af822501cf2aa88ac00000000"
    }, 
    {
      "txid": "0c75429f709746cb541636c470aed6a7b750c238dfd40ae560b26170e9d6d264",
      "hash": "0c75429f709746cb541636c470aed6a7b750c238dfd40ae560b26170e9d6d264",
      "version": 2,
      "size": 361,
      "vsize": 361,
      "locktime": 1357946,
      "vin": [
        {
          "txid": "8a90d787ee3a76e0b84b961c4ea9c756ae6491c6fcd62578f4958858bebb2821",
          "vout": 3,
          "scriptSig": {
            "asm": "304402205b82bec9a0ca71aed766db74003ff842305b9325b0938cb26fe129ea50fa7b60022005d68d4fb02fdfd50d4e2176db7238499996b32fa833ae01b78ebcc92fca0fba[ALL] 026ca708ec9a8e34371b5ebfb0bb376766d23d2984a85ec63c52c892ce551ec62a",
            "hex": "47304402205b82bec9a0ca71aed766db74003ff842305b9325b0938cb26fe129ea50fa7b60022005d68d4fb02fdfd50d4e2176db7238499996b32fa833ae01b78ebcc92fca0fba0121026ca708ec9a8e34371b5ebfb0bb376766d23d2984a85ec63c52c892ce551ec62a"
          },
          "sequence": 4294967294
        }
      ],
      "vout": [
        {
          "value": 3.15000000,
          "n": 0,
          "scriptPubKey": {
            "asm": "OP_DUP OP_HASH160 d5bf67181519ec085e5cf982abfc8c1fe659d2a9 OP_EQUALVERIFY OP_CHECKSIG",
            "hex": "76a914d5bf67181519ec085e5cf982abfc8c1fe659d2a988ac",
            "reqSigs": 1,
            "type": "pubkeyhash",
            "addresses": [
              "Lei9Uy1GV7Dy5vBHMYdiCyXqtbJNRzzqiq"
            ]
          }
        }, 
        {
          "value": 0.84817700,
          "n": 1,
          "scriptPubKey": {
            "asm": "OP_DUP OP_HASH160 b26c2ffd7c12718b55db4b7f3db219f062a04915 OP_EQUALVERIFY OP_CHECKSIG",
            "hex": "76a914b26c2ffd7c12718b55db4b7f3db219f062a0491588ac",
            "reqSigs": 1,
            "type": "pubkeyhash",
            "addresses": [
              "LbVN9MZxqgyb7STojyyUhY3V8RpjWAt5g5"
            ]
          }
        }, 
        {
          "value": 0.64474500,
          "n": 2,
          "scriptPubKey": {
            "asm": "OP_DUP OP_HASH160 36948cfa8a5fb4f1c0dff59f79ef74b30b4d9fc4 OP_EQUALVERIFY OP_CHECKSIG",
            "hex": "76a91436948cfa8a5fb4f1c0dff59f79ef74b30b4d9fc488ac",
            "reqSigs": 1,
            "type": "pubkeyhash",
            "addresses": [
              "LQCYi4AGj5ZmFxRP44YneMaTgXunoqe2ZX"
            ]
          }
        }, 
        {
          "value": 11.66207254,
          "n": 3,
          "scriptPubKey": {
            "asm": "OP_DUP OP_HASH160 fc06254dceff0d4cf79e0293f4c27c396083505e OP_EQUALVERIFY OP_CHECKSIG",
            "hex": "76a914fc06254dceff0d4cf79e0293f4c27c396083505e88ac",
            "reqSigs": 1,
            "type": "pubkeyhash",
            "addresses": [
              "LiCXuZoF7RYEDuSJRpawY7MzxkC62StBJe"
            ]
          }
        }, 
        {
          "value": 0.01000000,
          "n": 4,
          "scriptPubKey": {
            "asm": "OP_DUP OP_HASH160 bb502c806fa4945f8f9e6ea80f649ed71acba8fb OP_EQUALVERIFY OP_CHECKSIG",
            "hex": "76a914bb502c806fa4945f8f9e6ea80f649ed71acba8fb88ac",
            "reqSigs": 1,
            "type": "pubkeyhash",
            "addresses": [
              "LcJNffHrrfYcN5Y4EJ2F99zFT8gtSjuvp1"
            ]
          }
        }, 
        {
          "value": 2.15000000,
          "n": 5,
          "scriptPubKey": {
            "asm": "OP_DUP OP_HASH160 e458181ec0672f0232bc593622b99b554fe5f03f OP_EQUALVERIFY OP_CHECKSIG",
            "hex": "76a914e458181ec0672f0232bc593622b99b554fe5f03f88ac",
            "reqSigs": 1,
            "type": "pubkeyhash",
            "addresses": [
              "Lg3KrquVezEicYtK6zjXWHojLXsY8nRKv9"
            ]
          }
        }
      ],
      "hex": "02000000012128bbbe588895f47825d6fcc69164ae56c7a94e1c964bb8e0763aee87d7908a030000006a47304402205b82bec9a0ca71aed766db74003ff842305b9325b0938cb26fe129ea50fa7b60022005d68d4fb02fdfd50d4e2176db7238499996b32fa833ae01b78ebcc92fca0fba0121026ca708ec9a8e34371b5ebfb0bb376766d23d2984a85ec63c52c892ce551ec62afeffffff06c084c612000000001976a914d5bf67181519ec085e5cf982abfc8c1fe659d2a988ac24370e05000000001976a914b26c2ffd7c12718b55db4b7f3db219f062a0491588ac84cdd703000000001976a91436948cfa8a5fb4f1c0dff59f79ef74b30b4d9fc488ac16e98245000000001976a914fc06254dceff0d4cf79e0293f4c27c396083505e88ac40420f00000000001976a914bb502c806fa4945f8f9e6ea80f649ed71acba8fb88acc0a3d00c000000001976a914e458181ec0672f0232bc593622b99b554fe5f03f88ac7ab81400"
    }, 
    {
      "txid": "4e5d3097d0ef9e20131b5eb8938e791a5876fc0a7374625a16051352a1891c88",
      "hash": "4e5d3097d0ef9e20131b5eb8938e791a5876fc0a7374625a16051352a1891c88",
      "version": 1,
      "size": 225,
      "vsize": 225,
      "locktime": 0,
      "vin": [
        {
          "txid": "ead9a441d793386f6c1595b568cc24cf4a5eaa75b0faea45a02c67f6cb3d272e",
          "vout": 0,
          "scriptSig": {
            "asm": "30440220159d6bf3e9cbaf529f24f3a3624ed797cbedbc750e16874375b7461d9e2c1858022023ab86d455edfc85e0b0e8f6a4711c205b028ec652a124ddedbb590edcd82ca5[ALL] 02f95c7a12e9e3cb9e687bbfb3d011e70ac8a2be45bd091c469c77a87dfbbd5a2c",
            "hex": "4730440220159d6bf3e9cbaf529f24f3a3624ed797cbedbc750e16874375b7461d9e2c1858022023ab86d455edfc85e0b0e8f6a4711c205b028ec652a124ddedbb590edcd82ca5012102f95c7a12e9e3cb9e687bbfb3d011e70ac8a2be45bd091c469c77a87dfbbd5a2c"
          },
          "sequence": 4294967295
        }
      ],
      "vout": [
        {
          "value": 56.95938729,
          "n": 0,
          "scriptPubKey": {
            "asm": "OP_DUP OP_HASH160 4e77d5becc9785bb627012b22afb25d92eec616d OP_EQUALVERIFY OP_CHECKSIG",
            "hex": "76a9144e77d5becc9785bb627012b22afb25d92eec616d88ac",
            "reqSigs": 1,
            "type": "pubkeyhash",
            "addresses": [
              "LSNrXTG4FsHEmtSUXBjrpiG7mdR7fFeJbt"
            ]
          }
        }, 
        {
          "value": 21.40873096,
          "n": 1,
          "scriptPubKey": {
            "asm": "OP_DUP OP_HASH160 e28892568a9737a35237c06c1dbff9b3c22f4116 OP_EQUALVERIFY OP_CHECKSIG",
            "hex": "76a914e28892568a9737a35237c06c1dbff9b3c22f411688ac",
            "reqSigs": 1,
            "type": "pubkeyhash",
            "addresses": [
              "LfskajJL8uuzqtdeu5WRbbALyGhtNUDhxa"
            ]
          }
        }
      ],
      "hex": "01000000012e273dcbf6672ca045eafab075aa5e4acf24cc68b595156c6f3893d741a4d9ea000000006a4730440220159d6bf3e9cbaf529f24f3a3624ed797cbedbc750e16874375b7461d9e2c1858022023ab86d455edfc85e0b0e8f6a4711c205b028ec652a124ddedbb590edcd82ca5012102f95c7a12e9e3cb9e687bbfb3d011e70ac8a2be45bd091c469c77a87dfbbd5a2cffffffff02a9208153010000001976a9144e77d5becc9785bb627012b22afb25d92eec616d88ac88219b7f000000001976a914e28892568a9737a35237c06c1dbff9b3c22f411688ac00000000"
    }, 
    {
      "txid": "325e47cc018450d121fb9fe24fbdbd3d68f2924826ea003724858b462cc3afc9",
      "hash": "325e47cc018450d121fb9fe24fbdbd3d68f2924826ea003724858b462cc3afc9",
      "version": 2,
      "size": 373,
      "vsize": 373,
      "locktime": 1357946,
      "vin": [
        {
          "txid": "04a32d95c9e470dd515e9864e449ead0f5197f3b91523cbe2a5f79d8ee2c13f5",
          "vout": 0,
          "scriptSig": {
            "asm": "304502210091dc8f0e85a81367e22b2bdbb7720a0224d1e238d5b5008d7ebf29efacf58b2f0220335b0eeea858d4dc61a25b1fba076f9eb5957733da662e8a8e81a9e4f19193f4[ALL] 0282c882fc59e98b1202f04a66e4890ce20306b7df90132418e19b0ca249041e4f",
            "hex": "48304502210091dc8f0e85a81367e22b2bdbb7720a0224d1e238d5b5008d7ebf29efacf58b2f0220335b0eeea858d4dc61a25b1fba076f9eb5957733da662e8a8e81a9e4f19193f401210282c882fc59e98b1202f04a66e4890ce20306b7df90132418e19b0ca249041e4f"
          },
          "sequence": 4294967294
        }, 
        {
          "txid": "ac80c58d073f793f22ca1773e2c153e7ec5ce40f466bffb9977de7a19309cf8f",
          "vout": 0,
          "scriptSig": {
            "asm": "3044022052501e30bb1ea2260fb1b28db62d4350691b694cc01c4295633553a1a329a7c40220094749887f7d5ab013152332dc1fd6a16759262a7382b01796146bee16c0534e[ALL] 022aa5f4f29ba2a31f467d79297e6804fe6a6d59367757ac84f705a6728abc6710",
            "hex": "473044022052501e30bb1ea2260fb1b28db62d4350691b694cc01c4295633553a1a329a7c40220094749887f7d5ab013152332dc1fd6a16759262a7382b01796146bee16c0534e0121022aa5f4f29ba2a31f467d79297e6804fe6a6d59367757ac84f705a6728abc6710"
          },
          "sequence": 4294967294
        }
      ],
      "vout": [
        {
          "value": 0.45128254,
          "n": 0,
          "scriptPubKey": {
            "asm": "OP_DUP OP_HASH160 802359ab3f18acdb77869248bfb33aefb2f3a70d OP_EQUALVERIFY OP_CHECKSIG",
            "hex": "76a914802359ab3f18acdb77869248bfb33aefb2f3a70d88ac",
            "reqSigs": 1,
            "type": "pubkeyhash",
            "addresses": [
              "LWuV6wtDN2n85MciwYeaZ85q2Zd6UKjoE7"
            ]
          }
        }, 
        {
          "value": 0.00962716,
          "n": 1,
          "scriptPubKey": {
            "asm": "OP_DUP OP_HASH160 2a3963935628220fa78c984ea7023fe35008f81b OP_EQUALVERIFY OP_CHECKSIG",
            "hex": "76a9142a3963935628220fa78c984ea7023fe35008f81b88ac",
            "reqSigs": 1,
            "type": "pubkeyhash",
            "addresses": [
              "LP5DPj1tL6wUiy5GzsVrhk7ZNeGjhbBWLj"
            ]
          }
        }
      ],
      "hex": "0200000002f5132ceed8795f2abe3c52913b7f19f5d0ea49e464985e51dd70e4c9952da304000000006b48304502210091dc8f0e85a81367e22b2bdbb7720a0224d1e238d5b5008d7ebf29efacf58b2f0220335b0eeea858d4dc61a25b1fba076f9eb5957733da662e8a8e81a9e4f19193f401210282c882fc59e98b1202f04a66e4890ce20306b7df90132418e19b0ca249041e4ffeffffff8fcf0993a1e77d97b9ff6b460fe45cece753c1e27317ca223f793f078dc580ac000000006a473044022052501e30bb1ea2260fb1b28db62d4350691b694cc01c4295633553a1a329a7c40220094749887f7d5ab013152332dc1fd6a16759262a7382b01796146bee16c0534e0121022aa5f4f29ba2a31f467d79297e6804fe6a6d59367757ac84f705a6728abc6710feffffff023e9ab002000000001976a914802359ab3f18acdb77869248bfb33aefb2f3a70d88ac9cb00e00000000001976a9142a3963935628220fa78c984ea7023fe35008f81b88ac7ab81400"
    }, 
    {
      "txid": "24b4d4750fba145a1e153dde55b39ca24fb31469b88074ff7dda883b03669e36",
      "hash": "24b4d4750fba145a1e153dde55b39ca24fb31469b88074ff7dda883b03669e36",
      "version": 2,
      "size": 226,
      "vsize": 226,
      "locktime": 1357946,
      "vin": [
        {
          "txid": "7c1b16f1319fa831c45ceea296d8b5f8aa74122f8d6aadca6999d5819455a60e",
          "vout": 0,
          "scriptSig": {
            "asm": "30450221008a173ec2ce593a1235f1a5da62f8b94ef1022cb486040a655d101a2d9b0f25b2022076980bff6d36b4f6c24b96af2edf3581549a1324d73e95670ab038ddec4495e7[ALL] 0389e2d6b9785ec30176eccb28ae5310e78f0e85da09bf383b822edd013b8ecc20",
            "hex": "4830450221008a173ec2ce593a1235f1a5da62f8b94ef1022cb486040a655d101a2d9b0f25b2022076980bff6d36b4f6c24b96af2edf3581549a1324d73e95670ab038ddec4495e701210389e2d6b9785ec30176eccb28ae5310e78f0e85da09bf383b822edd013b8ecc20"
          },
          "sequence": 4294967294
        }
      ],
      "vout": [
        {
          "value": 0.00978426,
          "n": 0,
          "scriptPubKey": {
            "asm": "OP_DUP OP_HASH160 123e7cd279b1dff2a2dfb51a698bf57caa65e1da OP_EQUALVERIFY OP_CHECKSIG",
            "hex": "76a914123e7cd279b1dff2a2dfb51a698bf57caa65e1da88ac",
            "reqSigs": 1,
            "type": "pubkeyhash",
            "addresses": [
              "LLtRHNyCoaMwYKi1ijthoEFrAXptrbpqPt"
            ]
          }
        }, 
        {
          "value": 0.11183028,
          "n": 1,
          "scriptPubKey": {
            "asm": "OP_DUP OP_HASH160 67be19042627a38d129efb698979a9224c1810ee OP_EQUALVERIFY OP_CHECKSIG",
            "hex": "76a91467be19042627a38d129efb698979a9224c1810ee88ac",
            "reqSigs": 1,
            "type": "pubkeyhash",
            "addresses": [
              "LUgVbC8MMgU9onAUGf3AdYQXuTSNfSLWro"
            ]
          }
        }
      ],
      "hex": "02000000010ea6559481d59969caad6a8d2f1274aaf8b5d896a2ee5cc431a89f31f1161b7c000000006b4830450221008a173ec2ce593a1235f1a5da62f8b94ef1022cb486040a655d101a2d9b0f25b2022076980bff6d36b4f6c24b96af2edf3581549a1324d73e95670ab038ddec4495e701210389e2d6b9785ec30176eccb28ae5310e78f0e85da09bf383b822edd013b8ecc20feffffff02faed0e00000000001976a914123e7cd279b1dff2a2dfb51a698bf57caa65e1da88acb4a3aa00000000001976a91467be19042627a38d129efb698979a9224c1810ee88ac7ab81400"
    }, 
    {
      "txid": "ddb4e62ad15d85a19e7d8485845d6f35e13010a97ee25f00c7ea198af2024d52",
      "hash": "ddb4e62ad15d85a19e7d8485845d6f35e13010a97ee25f00c7ea198af2024d52",
      "version": 2,
      "size": 226,
      "vsize": 226,
      "locktime": 1357946,
      "vin": [
        {
          "txid": "1723332c690deb3b2a675c9684dd6b609bc19f908f5e783b110597aea77e94b0",
          "vout": 0,
          "scriptSig": {
            "asm": "3045022100efab31fc4e18ed65dd0933e90ba362b1c3fb7a3d266311fb5efd016a69f1023102204dfe9c17c0ff2e2e22ee220f55c08a0fba81fad20c343321d29c8995dd645fab[ALL] 0376fa40a3a5bf9a86c98eeef8a15a4caeaab5df266a921ad27b25641fce222e66",
            "hex": "483045022100efab31fc4e18ed65dd0933e90ba362b1c3fb7a3d266311fb5efd016a69f1023102204dfe9c17c0ff2e2e22ee220f55c08a0fba81fad20c343321d29c8995dd645fab01210376fa40a3a5bf9a86c98eeef8a15a4caeaab5df266a921ad27b25641fce222e66"
          },
          "sequence": 4294967294
        }
      ],
      "vout": [
        {
          "value": 0.00997400,
          "n": 0,
          "scriptPubKey": {
            "asm": "OP_DUP OP_HASH160 183bfb713c8780aa58e11fdd13b16a0b66815c91 OP_EQUALVERIFY OP_CHECKSIG",
            "hex": "76a914183bfb713c8780aa58e11fdd13b16a0b66815c9188ac",
            "reqSigs": 1,
            "type": "pubkeyhash",
            "addresses": [
              "LMS6LTEEbD58CREuzR7zrQCptCYybDxpif"
            ]
          }
        }, 
        {
          "value": 0.03000000,
          "n": 1,
          "scriptPubKey": {
            "asm": "OP_DUP OP_HASH160 33220368a1589d333d56724447a296ccfef75120 OP_EQUALVERIFY OP_CHECKSIG",
            "hex": "76a91433220368a1589d333d56724447a296ccfef7512088ac",
            "reqSigs": 1,
            "type": "pubkeyhash",
            "addresses": [
              "LPtKUHN4wGeqMJbPoMthBeaqfjvdRceq8L"
            ]
          }
        }
      ],
      "hex": "0200000001b0947ea7ae9705113b785e8f909fc19b606bdd84965c672a3beb0d692c332317000000006b483045022100efab31fc4e18ed65dd0933e90ba362b1c3fb7a3d266311fb5efd016a69f1023102204dfe9c17c0ff2e2e22ee220f55c08a0fba81fad20c343321d29c8995dd645fab01210376fa40a3a5bf9a86c98eeef8a15a4caeaab5df266a921ad27b25641fce222e66feffffff0218380f00000000001976a914183bfb713c8780aa58e11fdd13b16a0b66815c9188acc0c62d00000000001976a91433220368a1589d333d56724447a296ccfef7512088ac7ab81400"
    }, 
    {
      "txid": "8fedf7908e66ff5baf34701788f01c3e50952278112f36ab33996a301a1aed60",
      "hash": "8fedf7908e66ff5baf34701788f01c3e50952278112f36ab33996a301a1aed60",
      "version": 1,
      "size": 226,
      "vsize": 226,
      "locktime": 0,
      "vin": [
        {
          "txid": "b4d962da627de4750d80bce13c2f1714194edf0ca38b99cdbcb6e8852e885f1c",
          "vout": 1,
          "scriptSig": {
            "asm": "3045022100f4c2037bf053edc9a869e0ded1447964dabf944f34029d1d6124482ec7734dbb0220133906c7cc513040e03966654ce4cfafdb0a69442a952f0ca1a6c6a2cc194e46[ALL] 03df3e08a2b9a2b4790369e5558268e24013a075d2deaf0d19efe5c461cccb2c7a",
            "hex": "483045022100f4c2037bf053edc9a869e0ded1447964dabf944f34029d1d6124482ec7734dbb0220133906c7cc513040e03966654ce4cfafdb0a69442a952f0ca1a6c6a2cc194e46012103df3e08a2b9a2b4790369e5558268e24013a075d2deaf0d19efe5c461cccb2c7a"
          },
          "sequence": 4294967295
        }
      ],
      "vout": [
        {
          "value": 0.53190313,
          "n": 0,
          "scriptPubKey": {
            "asm": "OP_DUP OP_HASH160 c5e44355afcc2e5e87d85d3779b5595fc6f2c596 OP_EQUALVERIFY OP_CHECKSIG",
            "hex": "76a914c5e44355afcc2e5e87d85d3779b5595fc6f2c59688ac",
            "reqSigs": 1,
            "type": "pubkeyhash",
            "addresses": [
              "LdGJpzmCC9dVHYAqFkmVmDh7uT34S4Dem6"
            ]
          }
        }, 
        {
          "value": 79.84395423,
          "n": 1,
          "scriptPubKey": {
            "asm": "OP_DUP OP_HASH160 568d1e5a4aabe8a51a22c78ea9b939874da829db OP_EQUALVERIFY OP_CHECKSIG",
            "hex": "76a914568d1e5a4aabe8a51a22c78ea9b939874da829db88ac",
            "reqSigs": 1,
            "type": "pubkeyhash",
            "addresses": [
              "LT7bRoNFW7TuTfQXX3E5qdpBmvNaUmno5N"
            ]
          }
        }
      ],
      "hex": "01000000011c5f882e85e8b6bccd998ba30cdf4e1914172f3ce1bc800d75e47d62da62d9b4010000006b483045022100f4c2037bf053edc9a869e0ded1447964dabf944f34029d1d6124482ec7734dbb0220133906c7cc513040e03966654ce4cfafdb0a69442a952f0ca1a6c6a2cc194e46012103df3e08a2b9a2b4790369e5558268e24013a075d2deaf0d19efe5c461cccb2c7affffffff02a99e2b03000000001976a914c5e44355afcc2e5e87d85d3779b5595fc6f2c59688ac9f34e8db010000001976a914568d1e5a4aabe8a51a22c78ea9b939874da829db88ac00000000"
    }, 
    {
      "txid": "c7cd00de7dbe3ca0a340e9c8f26b82fc86b7c3d68cd73f8a838c4db2745bae74",
      "hash": "c7cd00de7dbe3ca0a340e9c8f26b82fc86b7c3d68cd73f8a838c4db2745bae74",
      "version": 1,
      "size": 226,
      "vsize": 226,
      "locktime": 0,
      "vin": [
        {
          "txid": "408e62e4ce840a516f2cd26970329131af3bcdab908bc3f48bca0a2827988d62",
          "vout": 0,
          "scriptSig": {
            "asm": "3045022100d642628f894f1b747c1196009f89d635c03c71fdb56415d9c25c22489db89b5b0220623891e2fab9915487e172e27722babebc1de99fa3da2d753bea3d6929db0bfb[ALL] 02187ac3ba467ea3e888aabb306e2f27318015920d966c78dffe10ad2c826ca80a",
            "hex": "483045022100d642628f894f1b747c1196009f89d635c03c71fdb56415d9c25c22489db89b5b0220623891e2fab9915487e172e27722babebc1de99fa3da2d753bea3d6929db0bfb012102187ac3ba467ea3e888aabb306e2f27318015920d966c78dffe10ad2c826ca80a"
          },
          "sequence": 4294967295
        }
      ],
      "vout": [
        {
          "value": 0.20826094,
          "n": 0,
          "scriptPubKey": {
            "asm": "OP_DUP OP_HASH160 502ec7091d9113354bfcefd31db1e3cb460deaca OP_EQUALVERIFY OP_CHECKSIG",
            "hex": "76a914502ec7091d9113354bfcefd31db1e3cb460deaca88ac",
            "reqSigs": 1,
            "type": "pubkeyhash",
            "addresses": [
              "LSXvMiUeu4vLwQtapkakAYzWY7h9Kyx267"
            ]
          }
        }, 
        {
          "value": 0.01695590,
          "n": 1,
          "scriptPubKey": {
            "asm": "OP_DUP OP_HASH160 8efcb79582ce6b340ebd385431df21296c000558 OP_EQUALVERIFY OP_CHECKSIG",
            "hex": "76a9148efcb79582ce6b340ebd385431df21296c00055888ac",
            "reqSigs": 1,
            "type": "pubkeyhash",
            "addresses": [
              "LYFzxYf591fJN16c9nsQQcYHDP2VX5D5AQ"
            ]
          }
        }
      ],
      "hex": "0100000001628d9827280aca8bf4c38b90abcd3baf3191327069d22c6f510a84cee4628e40000000006b483045022100d642628f894f1b747c1196009f89d635c03c71fdb56415d9c25c22489db89b5b0220623891e2fab9915487e172e27722babebc1de99fa3da2d753bea3d6929db0bfb012102187ac3ba467ea3e888aabb306e2f27318015920d966c78dffe10ad2c826ca80affffffff02eec73d01000000001976a914502ec7091d9113354bfcefd31db1e3cb460deaca88ac66df1900000000001976a9148efcb79582ce6b340ebd385431df21296c00055888ac00000000"
    }
  ],
  "time": 1517068841,
  "mediantime": 1517067730,
  "nonce": 145702313,
  "bits": "1a047f14",
  "difficulty": 3731199.183374282,
  "chainwork": "000000000000000000000000000000000000000000000032aaf1a8a3ee7f1bb2",
  "previousblockhash": "6862c13476fa19ac0f2d9932f695367d12bcff2f151e9695550aecf106dc74ad",
  "nextblockhash": "9ff29ad4620c9d63ee84af60cbb657946be459583face4379a2a4d890e94490c"
}
