{
  "hash": "ea8634044b547135d3ae3e2c7e21e16a60a842ecf4b45c429f8ce97338c07806",
  "confirmations": 274,
  "strippedsize": 4295,
  "size": 4440,
  "weight": 17325,
  "height": 1360720,
  "version": 536870912,
  "versionHex": "20000000",
  "merkleroot": "4012b68d36c5dd36366302c583abf35f523624d8e98131400ba841d475dccf11",
  "tx": [
    {
      "txid": "51f0fe95fbe64c300960dd6c242d0e4fc5eb0e90c93f5c2d738b52b434acd76a",
      "hash": "86d298eeddd3549b4d14dfb544219ffec23aa86ebcd87f77215ed04adcc037a7",
      "version": 1,
      "size": 260,
      "vsize": 233,
      "locktime": 0,
      "vin": [
        {
          "coinbase": "0350c314192f5669614254432f4d696e6564206279207761636f6d30322f2cfabe6d6db5fbc6edb7eb0b9c8d55694578c14947a7c28580704665318ade503fb798ec17010000000000000010ae94cc00e99b5e0e9eda8b7602000000",
          "sequence": 4294967295
        }
      ],
      "vout": [
        {
          "value": 25.00891179,
          "n": 0,
          "scriptPubKey": {
            "asm": "OP_DUP OP_HASH160 e16c28146ed4869c190b3f0bdc18d80d45f92134 OP_EQUALVERIFY OP_CHECKSIG",
            "hex": "76a914e16c28146ed4869c190b3f0bdc18d80d45f9213488ac",
            "reqSigs": 1,
            "type": "pubkeyhash",
            "addresses": [
              "LfmssDyX6iZvbVqHv6t9P6JWXia2JG7mdb"
            ]
          }
        }, 
        {
          "value": 0.00000000,
          "n": 1,
          "scriptPubKey": {
            "asm": "OP_RETURN aa21a9edbec398ae225f2212515c86bf697f258fa8957327a7a85c11c4b62870e546bf64",
            "hex": "6a24aa21a9edbec398ae225f2212515c86bf697f258fa8957327a7a85c11c4b62870e546bf64",
            "type": "nulldata"
          }
        }
      ],
      "hex": "010000000001010000000000000000000000000000000000000000000000000000000000000000ffffffff5c0350c314192f5669614254432f4d696e6564206279207761636f6d30322f2cfabe6d6db5fbc6edb7eb0b9c8d55694578c14947a7c28580704665318ade503fb798ec17010000000000000010ae94cc00e99b5e0e9eda8b7602000000ffffffff022b921095000000001976a914e16c28146ed4869c190b3f0bdc18d80d45f9213488ac0000000000000000266a24aa21a9edbec398ae225f2212515c86bf697f258fa8957327a7a85c11c4b62870e546bf640120000000000000000000000000000000000000000000000000000000000000000000000000"
    }, 
    {
      "txid": "6316670cc6656d34d2a81e86b025128c33bc5e9aa4bff6b4d1732414dbc0b789",
      "hash": "6316670cc6656d34d2a81e86b025128c33bc5e9aa4bff6b4d1732414dbc0b789",
      "version": 1,
      "size": 191,
      "vsize": 191,
      "locktime": 0,
      "vin": [
        {
          "txid": "dffd85b7f54fcef730ba2590cf39322ee3d37653e51dde249ac36cca249084f0",
          "vout": 1,
          "scriptSig": {
            "asm": "30440220418e11ce3d2fb46690a8964a0afa3b70d2a6b33a57dc9558188a49f2dc56dee102204d5801176045eda8dd8d598f7fbbb6799d61285b6adc31a6436fa2ab5bffee50[ALL] 036d9c9493a064121e2c9b14d04fc422900668bb2dc661e478475f8d3c7b82fd1e",
            "hex": "4730440220418e11ce3d2fb46690a8964a0afa3b70d2a6b33a57dc9558188a49f2dc56dee102204d5801176045eda8dd8d598f7fbbb6799d61285b6adc31a6436fa2ab5bffee500121036d9c9493a064121e2c9b14d04fc422900668bb2dc661e478475f8d3c7b82fd1e"
          },
          "sequence": 4294967295
        }
      ],
      "vout": [
        {
          "value": 15.72333735,
          "n": 0,
          "scriptPubKey": {
            "asm": "OP_DUP OP_HASH160 d26a48a3b9084e1f418ef3db3378744159ad4fc5 OP_EQUALVERIFY OP_CHECKSIG",
            "hex": "76a914d26a48a3b9084e1f418ef3db3378744159ad4fc588ac",
            "reqSigs": 1,
            "type": "pubkeyhash",
            "addresses": [
              "LeQXVDp22F4FSn32jDDoBFqLJ25NtmGtKt"
            ]
          }
        }
      ],
      "hex": "0100000001f0849024ca6cc39a24de1de55376d3e32e3239cf9025ba30f7ce4ff5b785fddf010000006a4730440220418e11ce3d2fb46690a8964a0afa3b70d2a6b33a57dc9558188a49f2dc56dee102204d5801176045eda8dd8d598f7fbbb6799d61285b6adc31a6436fa2ab5bffee500121036d9c9493a064121e2c9b14d04fc422900668bb2dc661e478475f8d3c7b82fd1effffffff01a7e8b75d000000001976a914d26a48a3b9084e1f418ef3db3378744159ad4fc588ac00000000"
    }, 
    {
      "txid": "45b0006ce5f9440ce263abc377621327a1acfb9f6f14bc03f8b9fb864fb9c673",
      "hash": "45b0006ce5f9440ce263abc377621327a1acfb9f6f14bc03f8b9fb864fb9c673",
      "version": 1,
      "size": 462,
      "vsize": 462,
      "locktime": 0,
      "vin": [
        {
          "txid": "fa05aed5e937e1eba1488434a1d2affe03bb591271bf358240c8eaf1841d81a2",
          "vout": 1,
          "scriptSig": {
            "asm": "3045022100c5732c1ef5f90fa8badedf7e376dcd6abd9d0ffb4c5bc0046eb75380527e21e502202dd1e4fa68e7d18babe7dba23b1065b3af56b7e59fc3516d229b5f8a5a114ef2[ALL] 0294a923650a9a8f247b2be51a2064d0710c99dfbd0d4c37a26e76946253611554",
            "hex": "483045022100c5732c1ef5f90fa8badedf7e376dcd6abd9d0ffb4c5bc0046eb75380527e21e502202dd1e4fa68e7d18babe7dba23b1065b3af56b7e59fc3516d229b5f8a5a114ef201210294a923650a9a8f247b2be51a2064d0710c99dfbd0d4c37a26e76946253611554"
          },
          "sequence": 4294967295
        }
      ],
      "vout": [
        {
          "value": 0.35233093,
          "n": 0,
          "scriptPubKey": {
            "asm": "OP_DUP OP_HASH160 13b68b08245815e4a2d4db459e32b148402d3a47 OP_EQUALVERIFY OP_CHECKSIG",
            "hex": "76a91413b68b08245815e4a2d4db459e32b148402d3a4788ac",
            "reqSigs": 1,
            "type": "pubkeyhash",
            "addresses": [
              "LM2BnB4R1VpnQuJ7d8TG7MS6KHCLNdDUKs"
            ]
          }
        }, 
        {
          "value": 4.69605000,
          "n": 1,
          "scriptPubKey": {
            "asm": "OP_DUP OP_HASH160 41caf0dc0cd8ad23b10ed23dd345b0c7b89e6ead OP_EQUALVERIFY OP_CHECKSIG",
            "hex": "76a91441caf0dc0cd8ad23b10ed23dd345b0c7b89e6ead88ac",
            "reqSigs": 1,
            "type": "pubkeyhash",
            "addresses": [
              "LRDqJG2qV38ZjVMxb2f37r19BVjPjdxuPR"
            ]
          }
        }, 
        {
          "value": 1.87912593,
          "n": 2,
          "scriptPubKey": {
            "asm": "OP_DUP OP_HASH160 a530be0274d92d7973fd0480929a564cce2f3006 OP_EQUALVERIFY OP_CHECKSIG",
            "hex": "76a914a530be0274d92d7973fd0480929a564cce2f300688ac",
            "reqSigs": 1,
            "type": "pubkeyhash",
            "addresses": [
              "LaHQ9XwHoGxBGzZrGJEPN5UiomkvgTvmg2"
            ]
          }
        }, 
        {
          "value": 0.66100000,
          "n": 3,
          "scriptPubKey": {
            "asm": "OP_HASH160 06882949bb1216cce47eed8967667f8b8f99d2e4 OP_EQUAL",
            "hex": "a91406882949bb1216cce47eed8967667f8b8f99d2e487",
            "reqSigs": 1,
            "type": "scripthash",
            "addresses": [
              "M8VhQETZh8petHrVEBHATXv1YNy8SAFQM4"
            ]
          }
        }, 
        {
          "value": 0.99000000,
          "n": 4,
          "scriptPubKey": {
            "asm": "OP_DUP OP_HASH160 8941b01690160fcaae9822fdcf7b0daa2128b4dd OP_EQUALVERIFY OP_CHECKSIG",
            "hex": "76a9148941b01690160fcaae9822fdcf7b0daa2128b4dd88ac",
            "reqSigs": 1,
            "type": "pubkeyhash",
            "addresses": [
              "LXjhXZjds23rfC6GHgScDKwWaLmN4enVA1"
            ]
          }
        }, 
        {
          "value": 3.98997281,
          "n": 5,
          "scriptPubKey": {
            "asm": "OP_DUP OP_HASH160 a52781beb7ef133aebed59e8d20a7928c499e65d OP_EQUALVERIFY OP_CHECKSIG",
            "hex": "76a914a52781beb7ef133aebed59e8d20a7928c499e65d88ac",
            "reqSigs": 1,
            "type": "pubkeyhash",
            "addresses": [
              "LaHD5r4kCbsP12rkC3d5NvLxLgBGq6FFEU"
            ]
          }
        }, 
        {
          "value": 56.79424991,
          "n": 6,
          "scriptPubKey": {
            "asm": "OP_DUP OP_HASH160 504ddcba2f84c74a932deda99c8f814363af2613 OP_EQUALVERIFY OP_CHECKSIG",
            "hex": "76a914504ddcba2f84c74a932deda99c8f814363af261388ac",
            "reqSigs": 1,
            "type": "pubkeyhash",
            "addresses": [
              "LSYZbXB5mJPNrTe1StRMCRryqZBMYsZynV"
            ]
          }
        }, 
        {
          "value": 8.96098840,
          "n": 7,
          "scriptPubKey": {
            "asm": "OP_DUP OP_HASH160 aafa9d3bcf599eac5de35113a04ac04f07c4f676 OP_EQUALVERIFY OP_CHECKSIG",
            "hex": "76a914aafa9d3bcf599eac5de35113a04ac04f07c4f67688ac",
            "reqSigs": 1,
            "type": "pubkeyhash",
            "addresses": [
              "Lap1MoZiUCMuNVqJHBJ2wfF8JFsyb94zdp"
            ]
          }
        }, 
        {
          "value": 0.11550158,
          "n": 8,
          "scriptPubKey": {
            "asm": "OP_DUP OP_HASH160 f9871c6dd621879729cd7d502a5af822501cf2aa OP_EQUALVERIFY OP_CHECKSIG",
            "hex": "76a914f9871c6dd621879729cd7d502a5af822501cf2aa88ac",
            "reqSigs": 1,
            "type": "pubkeyhash",
            "addresses": [
              "LhyLNfBkoKshT7R8Pce6vkB9T2cP2o84hx"
            ]
          }
        }
      ],
      "hex": "0100000001a2811d84f1eac8408235bf711259bb03feafd2a1348448a1ebe137e9d5ae05fa010000006b483045022100c5732c1ef5f90fa8badedf7e376dcd6abd9d0ffb4c5bc0046eb75380527e21e502202dd1e4fa68e7d18babe7dba23b1065b3af56b7e59fc3516d229b5f8a5a114ef201210294a923650a9a8f247b2be51a2064d0710c99dfbd0d4c37a26e76946253611554ffffffff09459d1902000000001976a91413b68b08245815e4a2d4db459e32b148402d3a4788ac889afd1b000000001976a91441caf0dc0cd8ad23b10ed23dd345b0c7b89e6ead88ac9151330b000000001976a914a530be0274d92d7973fd0480929a564cce2f300688ac209bf0030000000017a91406882949bb1216cce47eed8967667f8b8f99d2e487c09ee605000000001976a9148941b01690160fcaae9822fdcf7b0daa2128b4dd88ac2137c817000000001976a914a52781beb7ef133aebed59e8d20a7928c499e65d88acdf258552010000001976a914504ddcba2f84c74a932deda99c8f814363af261388ac18626935000000001976a914aafa9d3bcf599eac5de35113a04ac04f07c4f67688acce3db000000000001976a914f9871c6dd621879729cd7d502a5af822501cf2aa88ac00000000"
    }, 
    {
      "txid": "d517ebc1b4897720e58b67dc61afb8b60a58a67df241072939299ac814855ed3",
      "hash": "d517ebc1b4897720e58b67dc61afb8b60a58a67df241072939299ac814855ed3",
      "version": 1,
      "size": 226,
      "vsize": 226,
      "locktime": 0,
      "vin": [
        {
          "txid": "8cbb9fe9d5278995ad099a6297aec20f01fd1435cad661fd816d5db89865f87b",
          "vout": 1,
          "scriptSig": {
            "asm": "3045022100e1bb9be44abf935da0ab922bc6d72a94f1782b791a4217c600e1cc9e4dcdc5d5022032f869a295ba802c38b132763de744352a4b14915ec7999c62872789364f8ab1[ALL] 038aa2588db3d5e7e0752459fac04ce3278f49d4fc28dbe75ede51ef043da7b0fc",
            "hex": "483045022100e1bb9be44abf935da0ab922bc6d72a94f1782b791a4217c600e1cc9e4dcdc5d5022032f869a295ba802c38b132763de744352a4b14915ec7999c62872789364f8ab10121038aa2588db3d5e7e0752459fac04ce3278f49d4fc28dbe75ede51ef043da7b0fc"
          },
          "sequence": 4294967295
        }
      ],
      "vout": [
        {
          "value": 0.27000000,
          "n": 0,
          "scriptPubKey": {
            "asm": "OP_DUP OP_HASH160 66dd4b16eb7876c0a2e812b45a27d75835fccc47 OP_EQUALVERIFY OP_CHECKSIG",
            "hex": "76a91466dd4b16eb7876c0a2e812b45a27d75835fccc4788ac",
            "reqSigs": 1,
            "type": "pubkeyhash",
            "addresses": [
              "LUbrHWUfB8j1dM9LcaDz78FQNG2LxMZUFY"
            ]
          }
        }, 
        {
          "value": 12.19578000,
          "n": 1,
          "scriptPubKey": {
            "asm": "OP_DUP OP_HASH160 2ad3fd690bacf89fc9ad5d595d28bdeb121a4116 OP_EQUALVERIFY OP_CHECKSIG",
            "hex": "76a9142ad3fd690bacf89fc9ad5d595d28bdeb121a411688ac",
            "reqSigs": 1,
            "type": "pubkeyhash",
            "addresses": [
              "LP8Qbau5DfB8NsgprV34C8nQTwE7Cq9kkt"
            ]
          }
        }
      ],
      "hex": "01000000017bf86598b85d6d81fd61d6ca3514fd010fc2ae97629a09ad958927d5e99fbb8c010000006b483045022100e1bb9be44abf935da0ab922bc6d72a94f1782b791a4217c600e1cc9e4dcdc5d5022032f869a295ba802c38b132763de744352a4b14915ec7999c62872789364f8ab10121038aa2588db3d5e7e0752459fac04ce3278f49d4fc28dbe75ede51ef043da7b0fcffffffff02c0fc9b01000000001976a91466dd4b16eb7876c0a2e812b45a27d75835fccc4788ac9048b148000000001976a9142ad3fd690bacf89fc9ad5d595d28bdeb121a411688ac00000000"
    }, 
    {
      "txid": "50432ce73ff62d824bef7675e2c532ff43cc0f0ad785c99a3fb57a415a484d48",
      "hash": "50432ce73ff62d824bef7675e2c532ff43cc0f0ad785c99a3fb57a415a484d48",
      "version": 1,
      "size": 474,
      "vsize": 474,
      "locktime": 0,
      "vin": [
        {
          "txid": "44b4a47384123b24fa69e7622535aad968e9c7915267e7decae92094e42542e7",
          "vout": 1,
          "scriptSig": {
            "asm": "304402201089528c112dfb57b7c54ad02e80b548824320cbcded5fe24893abdcca7b08880220683daab9a9d7dfe8c63df8cc394d546c68cd47ead2052b2f13ffec2f8d7c551a[ALL] 031fc0e0e37cb33e0382fb53954eff08a55019e0a7687a0ba2bcf41e8885a0b927",
            "hex": "47304402201089528c112dfb57b7c54ad02e80b548824320cbcded5fe24893abdcca7b08880220683daab9a9d7dfe8c63df8cc394d546c68cd47ead2052b2f13ffec2f8d7c551a0121031fc0e0e37cb33e0382fb53954eff08a55019e0a7687a0ba2bcf41e8885a0b927"
          },
          "sequence": 4294967295
        }, 
        {
          "txid": "92497a02682090b2fd46bbb772ba91388a2b0a094edafd6660dd848854e2008d",
          "vout": 2,
          "scriptSig": {
            "asm": "304402200d42cd53a8d43c8a77764dd6bb2927fedcac4aafe72e7557ae9ff0c8605946f502201ee9d2c6ed2a545b4716319dd4d9be6d4e29d149dd88e04c0564a65dbb1cfa44[ALL] 0328c9ae635abf580c261c44815dc1aac309e16ff26250525b7e99951369d2b8c7",
            "hex": "47304402200d42cd53a8d43c8a77764dd6bb2927fedcac4aafe72e7557ae9ff0c8605946f502201ee9d2c6ed2a545b4716319dd4d9be6d4e29d149dd88e04c0564a65dbb1cfa4401210328c9ae635abf580c261c44815dc1aac309e16ff26250525b7e99951369d2b8c7"
          },
          "sequence": 4294967295
        }
      ],
      "vout": [
        {
          "value": 0.39900000,
          "n": 0,
          "scriptPubKey": {
            "asm": "OP_DUP OP_HASH160 bda632eb00c5afababda59035caa3f20e77a3dd1 OP_EQUALVERIFY OP_CHECKSIG",
            "hex": "76a914bda632eb00c5afababda59035caa3f20e77a3dd188ac",
            "reqSigs": 1,
            "type": "pubkeyhash",
            "addresses": [
              "LcWj5As3Z91az9GEVURxp9ih9ix9y5kcXo"
            ]
          }
        }, 
        {
          "value": 0.49900000,
          "n": 1,
          "scriptPubKey": {
            "asm": "OP_DUP OP_HASH160 e3792d77530c066125d6e5f8be72cfdebcaa4601 OP_EQUALVERIFY OP_CHECKSIG",
            "hex": "76a914e3792d77530c066125d6e5f8be72cfdebcaa460188ac",
            "reqSigs": 1,
            "type": "pubkeyhash",
            "addresses": [
              "LfxipKrccZH3KQgvb6xDSCreUjLY5cEkbk"
            ]
          }
        }, 
        {
          "value": 0.50000000,
          "n": 2,
          "scriptPubKey": {
            "asm": "OP_DUP OP_HASH160 7d08244fd330f37942a58a2ec4d35910c320ecdf OP_EQUALVERIFY OP_CHECKSIG",
            "hex": "76a9147d08244fd330f37942a58a2ec4d35910c320ecdf88ac",
            "reqSigs": 1,
            "type": "pubkeyhash",
            "addresses": [
              "LWd4UtyiadTPtv39EXiXKU3x3koH8N25eh"
            ]
          }
        }, 
        {
          "value": 0.80963302,
          "n": 3,
          "scriptPubKey": {
            "asm": "OP_DUP OP_HASH160 124a53e4998767c2334ca0804e0dcfed7664b55d OP_EQUALVERIFY OP_CHECKSIG",
            "hex": "76a914124a53e4998767c2334ca0804e0dcfed7664b55d88ac",
            "reqSigs": 1,
            "type": "pubkeyhash",
            "addresses": [
              "LLtfU3bZiVb4bQfhJepTtdpybxffU1rgJz"
            ]
          }
        }, 
        {
          "value": 17.55642496,
          "n": 4,
          "scriptPubKey": {
            "asm": "OP_DUP OP_HASH160 c6e3836c2f4cd8f9c53e32813ded99ac0ce001f1 OP_EQUALVERIFY OP_CHECKSIG",
            "hex": "76a914c6e3836c2f4cd8f9c53e32813ded99ac0ce001f188ac",
            "reqSigs": 1,
            "type": "pubkeyhash",
            "addresses": [
              "LdMac6qdwFnBCVXN96dvoPjzbcE36gzs64"
            ]
          }
        }
      ],
      "hex": "0100000002e74225e49420e9cadee7675291c7e968d9aa352562e769fa243b128473a4b444010000006a47304402201089528c112dfb57b7c54ad02e80b548824320cbcded5fe24893abdcca7b08880220683daab9a9d7dfe8c63df8cc394d546c68cd47ead2052b2f13ffec2f8d7c551a0121031fc0e0e37cb33e0382fb53954eff08a55019e0a7687a0ba2bcf41e8885a0b927ffffffff8d00e2548884dd6066fdda4e090a2b8a3891ba72b7bb46fdb2902068027a4992020000006a47304402200d42cd53a8d43c8a77764dd6bb2927fedcac4aafe72e7557ae9ff0c8605946f502201ee9d2c6ed2a545b4716319dd4d9be6d4e29d149dd88e04c0564a65dbb1cfa4401210328c9ae635abf580c261c44815dc1aac309e16ff26250525b7e99951369d2b8c7ffffffff0560d36002000000001976a914bda632eb00c5afababda59035caa3f20e77a3dd188ace069f902000000001976a914e3792d77530c066125d6e5f8be72cfdebcaa460188ac80f0fa02000000001976a9147d08244fd330f37942a58a2ec4d35910c320ecdf88ace666d304000000001976a914124a53e4998767c2334ca0804e0dcfed7664b55d88ac80faa468000000001976a914c6e3836c2f4cd8f9c53e32813ded99ac0ce001f188ac00000000"
    }, 
    {
      "txid": "4679fd86c81ee6d2f5862271f96d938f5670b6a14bd2a277a3fe6931e52f46b3",
      "hash": "c74ee9fdc86c8d6744aa86d8144d23081fe90c7a5ebcb187926975078dc6f0f2",
      "version": 1,
      "size": 249,
      "vsize": 168,
      "locktime": 0,
      "vin": [
        {
          "txid": "0d6581db74fb1af5e78445c4f651fb30b56df5921aba7abc6704cf1c49f39ccd",
          "vout": 1,
          "scriptSig": {
            "asm": "0014f2ee08a663980a91de505fc66596192fef54d287",
            "hex": "160014f2ee08a663980a91de505fc66596192fef54d287"
          },
          "txinwitness": [
            "3044022003ec4e1d40f6074cb79b94cde9069e4c3130ad38b57d0b58b26fe2d4d531ba9c0220725a6a0052c4485ffca53e864c5a61fbe3b2d8858dccabaf2f6a96ad6d4dd00e01", 
            "02d3cb27103ee35f7687f6a6798e39736cad173747bcd6f06303cbc19483e34fb0"
          ],
          "sequence": 4294967295
        }
      ],
      "vout": [
        {
          "value": 7.00000000,
          "n": 0,
          "scriptPubKey": {
            "asm": "OP_DUP OP_HASH160 a3ad9177f45dd879234b3319858435289a8b2274 OP_EQUALVERIFY OP_CHECKSIG",
            "hex": "76a914a3ad9177f45dd879234b3319858435289a8b227488ac",
            "reqSigs": 1,
            "type": "pubkeyhash",
            "addresses": [
              "La9QLDMimo44o2okLfws2Jb2oRxpqHTa8p"
            ]
          }
        }, 
        {
          "value": 8.98817825,
          "n": 1,
          "scriptPubKey": {
            "asm": "OP_HASH160 c539696bf25a5d6d17490b539894bd2a47cbdcdc OP_EQUAL",
            "hex": "a914c539696bf25a5d6d17490b539894bd2a47cbdcdc87",
            "reqSigs": 1,
            "type": "scripthash",
            "addresses": [
              "MRsz8GCMY3WvBCKXX53P8SsX6XAKz8nsSy"
            ]
          }
        }
      ],
      "hex": "01000000000101cd9cf3491ccf0467bc7aba1a92f56db530fb51f6c44584e7f51afb74db81650d0100000017160014f2ee08a663980a91de505fc66596192fef54d287ffffffff020027b929000000001976a914a3ad9177f45dd879234b3319858435289a8b227488ac21df92350000000017a914c539696bf25a5d6d17490b539894bd2a47cbdcdc8702473044022003ec4e1d40f6074cb79b94cde9069e4c3130ad38b57d0b58b26fe2d4d531ba9c0220725a6a0052c4485ffca53e864c5a61fbe3b2d8858dccabaf2f6a96ad6d4dd00e012102d3cb27103ee35f7687f6a6798e39736cad173747bcd6f06303cbc19483e34fb000000000"
    }, 
    {
      "txid": "8e35df657f21f911669c2423986bcf08b46886307122e99f18c517e22ec852e8",
      "hash": "8e35df657f21f911669c2423986bcf08b46886307122e99f18c517e22ec852e8",
      "version": 1,
      "size": 373,
      "vsize": 373,
      "locktime": 0,
      "vin": [
        {
          "txid": "92660efbc2c225fb9c8c0ce889b8548a8c1aeb4c74f839b24bfa8f42e90b7cb4",
          "vout": 0,
          "scriptSig": {
            "asm": "3044022077651ba8e468842c6e417e27c0511fee36db31ff0c2a3bae4f21f6aeca29fa46022024acb269d4dee2d37354e771b500b51888d91c0b4fd6924868a6997a5ca9592b[ALL] 03061532c7724d877a38f919b166e077906502d8274c9992c733ad63e8ef290f6e",
            "hex": "473044022077651ba8e468842c6e417e27c0511fee36db31ff0c2a3bae4f21f6aeca29fa46022024acb269d4dee2d37354e771b500b51888d91c0b4fd6924868a6997a5ca9592b012103061532c7724d877a38f919b166e077906502d8274c9992c733ad63e8ef290f6e"
          },
          "sequence": 4294967295
        }, 
        {
          "txid": "d76f8c058cecc4aa7c5b383c0d488cbd42637ad3f6985b38d7404d937187745a",
          "vout": 0,
          "scriptSig": {
            "asm": "3045022100ca61d64c2d700268f2a50bd47cd58165998f557c9d3fcbac1fcd46d44d40031602206155d844c5942e3d4addf08bf1f277057c35506b26766d43388738085d7fbaa8[ALL] 034cb0a495e4961bcdb8098fd322afd16d850160ee01d83d71ba51624b284e5620",
            "hex": "483045022100ca61d64c2d700268f2a50bd47cd58165998f557c9d3fcbac1fcd46d44d40031602206155d844c5942e3d4addf08bf1f277057c35506b26766d43388738085d7fbaa80121034cb0a495e4961bcdb8098fd322afd16d850160ee01d83d71ba51624b284e5620"
          },
          "sequence": 4294967295
        }
      ],
      "vout": [
        {
          "value": 1.00000000,
          "n": 0,
          "scriptPubKey": {
            "asm": "OP_DUP OP_HASH160 1e9f2bc309275864ab949d9b39d745b5f0fd1074 OP_EQUALVERIFY OP_CHECKSIG",
            "hex": "76a9141e9f2bc309275864ab949d9b39d745b5f0fd107488ac",
            "reqSigs": 1,
            "type": "pubkeyhash",
            "addresses": [
              "LN1sDMn6yCjgCh2ooKN4vBTpP9jZAn8NpD"
            ]
          }
        }, 
        {
          "value": 0.55002901,
          "n": 1,
          "scriptPubKey": {
            "asm": "OP_DUP OP_HASH160 684d2968301cfc24a3f91a3dc0ffb31c8c496be6 OP_EQUALVERIFY OP_CHECKSIG",
            "hex": "76a914684d2968301cfc24a3f91a3dc0ffb31c8c496be688ac",
            "reqSigs": 1,
            "type": "pubkeyhash",
            "addresses": [
              "LUjSyTNVSPxyQsNBs2jAgEmmMcX4xm4WHJ"
            ]
          }
        }
      ],
      "hex": "0100000002b47c0be9428ffa4bb239f8744ceb1a8c8a54b889e80c8c9cfb25c2c2fb0e6692000000006a473044022077651ba8e468842c6e417e27c0511fee36db31ff0c2a3bae4f21f6aeca29fa46022024acb269d4dee2d37354e771b500b51888d91c0b4fd6924868a6997a5ca9592b012103061532c7724d877a38f919b166e077906502d8274c9992c733ad63e8ef290f6effffffff5a748771934d40d7385b98f6d37a6342bd8c480d3c385b7caac4ec8c058c6fd7000000006b483045022100ca61d64c2d700268f2a50bd47cd58165998f557c9d3fcbac1fcd46d44d40031602206155d844c5942e3d4addf08bf1f277057c35506b26766d43388738085d7fbaa80121034cb0a495e4961bcdb8098fd322afd16d850160ee01d83d71ba51624b284e5620ffffffff0200e1f505000000001976a9141e9f2bc309275864ab949d9b39d745b5f0fd107488ac15474703000000001976a914684d2968301cfc24a3f91a3dc0ffb31c8c496be688ac00000000"
    }, 
    {
      "txid": "fae18f94fb836243ef9ea0c4a3a5778abb12d528277cee269c51d1eb2ebc4e79",
      "hash": "fae18f94fb836243ef9ea0c4a3a5778abb12d528277cee269c51d1eb2ebc4e79",
      "version": 2,
      "size": 372,
      "vsize": 372,
      "locktime": 1360718,
      "vin": [
        {
          "txid": "ae3920ef8b38764a60e45a3d70337609aef3f2ea7fc9d65fc8400f0394f87313",
          "vout": 0,
          "scriptSig": {
            "asm": "304402201043426eb30a820e02eb0d240b47810d1e51b44fe2592531a439be274ae3a7f40220231641a7a59189a84f89023c4e5aec3d3b30805a5d4ebf4d5bd0730fee8ad22c[ALL] 0359b53bbe9f5ef44dedab3a327edfdcb10ef6d247a4f3174715168263e7231448",
            "hex": "47304402201043426eb30a820e02eb0d240b47810d1e51b44fe2592531a439be274ae3a7f40220231641a7a59189a84f89023c4e5aec3d3b30805a5d4ebf4d5bd0730fee8ad22c01210359b53bbe9f5ef44dedab3a327edfdcb10ef6d247a4f3174715168263e7231448"
          },
          "sequence": 4294967294
        }, 
        {
          "txid": "99642bb91503ad243144cdc8ab9deb4a71a67be217116ac06d376362350a085c",
          "vout": 0,
          "scriptSig": {
            "asm": "3044022033f30a1e3827e71069616509b2d536f19a764182a39d58c38eea62039393c7c7022046de9d35479810c7ad82ff635e43345aad95f6cbf92bb1fcf4915d291bde0e54[ALL] 036fe50038a5ca131fbb1d3d6516ea1217a70e76b31ecea6afd08a18699ee9ef72",
            "hex": "473044022033f30a1e3827e71069616509b2d536f19a764182a39d58c38eea62039393c7c7022046de9d35479810c7ad82ff635e43345aad95f6cbf92bb1fcf4915d291bde0e540121036fe50038a5ca131fbb1d3d6516ea1217a70e76b31ecea6afd08a18699ee9ef72"
          },
          "sequence": 4294967294
        }
      ],
      "vout": [
        {
          "value": 0.01022425,
          "n": 0,
          "scriptPubKey": {
            "asm": "OP_DUP OP_HASH160 635610df64f38f2f61809d35d7c9fc0128231a9c OP_EQUALVERIFY OP_CHECKSIG",
            "hex": "76a914635610df64f38f2f61809d35d7c9fc0128231a9c88ac",
            "reqSigs": 1,
            "type": "pubkeyhash",
            "addresses": [
              "LUHCGAikJLCeXkmZcJrjwbxDz5EBKAoYHW"
            ]
          }
        }, 
        {
          "value": 1.04294704,
          "n": 1,
          "scriptPubKey": {
            "asm": "OP_DUP OP_HASH160 05108b57b2f94725f6307a148f4b896f8a9ed7af OP_EQUALVERIFY OP_CHECKSIG",
            "hex": "76a91405108b57b2f94725f6307a148f4b896f8a9ed7af88ac",
            "reqSigs": 1,
            "type": "pubkeyhash",
            "addresses": [
              "LKgjTh1ysYqDEbHxqv9w9n9hr3GNkaLw93"
            ]
          }
        }
      ],
      "hex": "02000000021373f894030f40c85fd6c97feaf2f3ae097633703d5ae4604a76388bef2039ae000000006a47304402201043426eb30a820e02eb0d240b47810d1e51b44fe2592531a439be274ae3a7f40220231641a7a59189a84f89023c4e5aec3d3b30805a5d4ebf4d5bd0730fee8ad22c01210359b53bbe9f5ef44dedab3a327edfdcb10ef6d247a4f3174715168263e7231448feffffff5c080a356263376dc06a1117e27ba6714aeb9dabc8cd443124ad0315b92b6499000000006a473044022033f30a1e3827e71069616509b2d536f19a764182a39d58c38eea62039393c7c7022046de9d35479810c7ad82ff635e43345aad95f6cbf92bb1fcf4915d291bde0e540121036fe50038a5ca131fbb1d3d6516ea1217a70e76b31ecea6afd08a18699ee9ef72feffffff02d9990f00000000001976a914635610df64f38f2f61809d35d7c9fc0128231a9c88ac30693706000000001976a91405108b57b2f94725f6307a148f4b896f8a9ed7af88ac4ec31400"
    }, 
    {
      "txid": "5e909eda36f4f3e3fa969201cc4955920cc43915a355bf59b2d46eb66f2e61a1",
      "hash": "5e909eda36f4f3e3fa969201cc4955920cc43915a355bf59b2d46eb66f2e61a1",
      "version": 2,
      "size": 225,
      "vsize": 225,
      "locktime": 1360718,
      "vin": [
        {
          "txid": "0063014d149f53076d04a46f4ba0e9f821169bc33a412ac961c2630267cd9b74",
          "vout": 1,
          "scriptSig": {
            "asm": "3044022079d88f293485a1e435e4317de3d1db39d49a488628c2a111adc46c10c011980b02202145b1f98c58a084fe95b62eee7311ad2b1fafe11684d804d60f188cf0e262f2[ALL] 030aebcee3e6ae9c56b8e746c0255643eb27c53ca45b2434bec899c06771feff04",
            "hex": "473044022079d88f293485a1e435e4317de3d1db39d49a488628c2a111adc46c10c011980b02202145b1f98c58a084fe95b62eee7311ad2b1fafe11684d804d60f188cf0e262f20121030aebcee3e6ae9c56b8e746c0255643eb27c53ca45b2434bec899c06771feff04"
          },
          "sequence": 4294967294
        }
      ],
      "vout": [
        {
          "value": 0.17546459,
          "n": 0,
          "scriptPubKey": {
            "asm": "OP_DUP OP_HASH160 824294cdff01d73cd7743f794da27e503b18ec58 OP_EQUALVERIFY OP_CHECKSIG",
            "hex": "76a914824294cdff01d73cd7743f794da27e503b18ec5888ac",
            "reqSigs": 1,
            "type": "pubkeyhash",
            "addresses": [
              "LX6hsJGhgr9d5nzTkqtzAp3f3LazsdfE22"
            ]
          }
        }, 
        {
          "value": 0.10000000,
          "n": 1,
          "scriptPubKey": {
            "asm": "OP_DUP OP_HASH160 938c3d5e8040948ca9d2b84580640efcd171e71d OP_EQUALVERIFY OP_CHECKSIG",
            "hex": "76a914938c3d5e8040948ca9d2b84580640efcd171e71d88ac",
            "reqSigs": 1,
            "type": "pubkeyhash",
            "addresses": [
              "LYg7bSQe7diu1cjUtGKf98YGo87bqBSeX1"
            ]
          }
        }
      ],
      "hex": "0200000001749bcd670263c261c92a413ac39b1621f8e9a04b6fa4046d07539f144d016300010000006a473044022079d88f293485a1e435e4317de3d1db39d49a488628c2a111adc46c10c011980b02202145b1f98c58a084fe95b62eee7311ad2b1fafe11684d804d60f188cf0e262f20121030aebcee3e6ae9c56b8e746c0255643eb27c53ca45b2434bec899c06771feff04feffffff02dbbc0b01000000001976a914824294cdff01d73cd7743f794da27e503b18ec5888ac80969800000000001976a914938c3d5e8040948ca9d2b84580640efcd171e71d88ac4ec31400"
    }, 
    {
      "txid": "eff32a68b7e40bf23353ea23673d520e35d091ad11ad6ec5e78fc0f5fb0983d3",
      "hash": "eff32a68b7e40bf23353ea23673d520e35d091ad11ad6ec5e78fc0f5fb0983d3",
      "version": 1,
      "size": 373,
      "vsize": 373,
      "locktime": 0,
      "vin": [
        {
          "txid": "fb2515f60269ad362c2c1946fcb5dbc6e2ea0e89833e0cf9db5f151fd80b2491",
          "vout": 0,
          "scriptSig": {
            "asm": "3045022100cbad685c7539e12d54ce4225fc529fc8639eb5403ab9b1aecdcef6d5d6f70c2c02205dcec2f1dc008cad8630251adb67ade8a5f1288b6ded92199e7e67eda72c1f0c[ALL] 033eb04247a636cf2bd878871dadc9ee88edf4032f9491b4a7b93e952776fa173c",
            "hex": "483045022100cbad685c7539e12d54ce4225fc529fc8639eb5403ab9b1aecdcef6d5d6f70c2c02205dcec2f1dc008cad8630251adb67ade8a5f1288b6ded92199e7e67eda72c1f0c0121033eb04247a636cf2bd878871dadc9ee88edf4032f9491b4a7b93e952776fa173c"
          },
          "sequence": 4294967295
        }, 
        {
          "txid": "14c4a1983ba8be0493d5eba14fcdfa1d67fd20573336c2453f72c82a6fd72015",
          "vout": 0,
          "scriptSig": {
            "asm": "304402201a26d173de4b7f121169325d44462a9c230d90fa09535d6cbd9699d7e669e65002205253eb494674144929ecc42baf76088ddce594141a8bfc3532a21d1664de9652[ALL] 02903bebc3bc555891eca93c74cf0cc96120efaad2f249cfa61eb4e8fcecf2e9df",
            "hex": "47304402201a26d173de4b7f121169325d44462a9c230d90fa09535d6cbd9699d7e669e65002205253eb494674144929ecc42baf76088ddce594141a8bfc3532a21d1664de9652012102903bebc3bc555891eca93c74cf0cc96120efaad2f249cfa61eb4e8fcecf2e9df"
          },
          "sequence": 4294967295
        }
      ],
      "vout": [
        {
          "value": 4.00000000,
          "n": 0,
          "scriptPubKey": {
            "asm": "OP_DUP OP_HASH160 4ad8ef740d7d332dac8f5903745cf95ecfdc2060 OP_EQUALVERIFY OP_CHECKSIG",
            "hex": "76a9144ad8ef740d7d332dac8f5903745cf95ecfdc206088ac",
            "reqSigs": 1,
            "type": "pubkeyhash",
            "addresses": [
              "LS3i9LnCx2DRh8RitvWw3JcVVghvhnfSs9"
            ]
          }
        }, 
        {
          "value": 0.04604416,
          "n": 1,
          "scriptPubKey": {
            "asm": "OP_DUP OP_HASH160 8b9e9ee0fc4d4953d31942efa7fdf9c68ecf072f OP_EQUALVERIFY OP_CHECKSIG",
            "hex": "76a9148b9e9ee0fc4d4953d31942efa7fdf9c68ecf072f88ac",
            "reqSigs": 1,
            "type": "pubkeyhash",
            "addresses": [
              "LXxCD2mmxR4tLqUUf7Vc3SpYfB6cpENyFy"
            ]
          }
        }
      ],
      "hex": "010000000291240bd81f155fdbf90c3e83890eeae2c6dbb5fc46192c2c36ad6902f61525fb000000006b483045022100cbad685c7539e12d54ce4225fc529fc8639eb5403ab9b1aecdcef6d5d6f70c2c02205dcec2f1dc008cad8630251adb67ade8a5f1288b6ded92199e7e67eda72c1f0c0121033eb04247a636cf2bd878871dadc9ee88edf4032f9491b4a7b93e952776fa173cffffffff1520d76f2ac8723f45c236335720fd671dfacd4fa1ebd59304bea83b98a1c414000000006a47304402201a26d173de4b7f121169325d44462a9c230d90fa09535d6cbd9699d7e669e65002205253eb494674144929ecc42baf76088ddce594141a8bfc3532a21d1664de9652012102903bebc3bc555891eca93c74cf0cc96120efaad2f249cfa61eb4e8fcecf2e9dfffffffff020084d717000000001976a9144ad8ef740d7d332dac8f5903745cf95ecfdc206088ac00424600000000001976a9148b9e9ee0fc4d4953d31942efa7fdf9c68ecf072f88ac00000000"
    }, 
    {
      "txid": "51d81fff14c5040d72ee62df3e63c201e7a9663f9d4a77679176492fb35d5f2e",
      "hash": "51d81fff14c5040d72ee62df3e63c201e7a9663f9d4a77679176492fb35d5f2e",
      "version": 2,
      "size": 226,
      "vsize": 226,
      "locktime": 1360718,
      "vin": [
        {
          "txid": "c316d3d2eba862d98f8605dd82b92306f89d2356d86bd183ab40388ddc443498",
          "vout": 1,
          "scriptSig": {
            "asm": "3045022100f6651921edc0dcdfa86cdb657487b356b5e359d3d143bb41ba0c5a26313a551d022008900e1f31dd74e197b88ba185c1b60265bdc4e47f5ce4eb4e2df5824a30b9c8[ALL] 03ae76b0db58e6c99c3a9ccfe8617776a7dbffb60506696492d7c18f39652d7ae7",
            "hex": "483045022100f6651921edc0dcdfa86cdb657487b356b5e359d3d143bb41ba0c5a26313a551d022008900e1f31dd74e197b88ba185c1b60265bdc4e47f5ce4eb4e2df5824a30b9c8012103ae76b0db58e6c99c3a9ccfe8617776a7dbffb60506696492d7c18f39652d7ae7"
          },
          "sequence": 4294967294
        }
      ],
      "vout": [
        {
          "value": 3.40001081,
          "n": 0,
          "scriptPubKey": {
            "asm": "OP_DUP OP_HASH160 647c97c1d13ad50a3556272d3fc340965f568c11 OP_EQUALVERIFY OP_CHECKSIG",
            "hex": "76a914647c97c1d13ad50a3556272d3fc340965f568c1188ac",
            "reqSigs": 1,
            "type": "pubkeyhash",
            "addresses": [
              "LUPH6FnF6giS7H62GVb7eCPHV5f2Js9sbn"
            ]
          }
        }, 
        {
          "value": 1.58979319,
          "n": 1,
          "scriptPubKey": {
            "asm": "OP_DUP OP_HASH160 0168c127d776d168f9403aaeaa83974925857079 OP_EQUALVERIFY OP_CHECKSIG",
            "hex": "76a9140168c127d776d168f9403aaeaa8397492585707988ac",
            "reqSigs": 1,
            "type": "pubkeyhash",
            "addresses": [
              "LKMQRsmRCnFbdoDuXCkyaEzTUGT4TonrxD"
            ]
          }
        }
      ],
      "hex": "0200000001983444dc8d3840ab83d16bd856239df80623b982dd05868fd962a8ebd2d316c3010000006b483045022100f6651921edc0dcdfa86cdb657487b356b5e359d3d143bb41ba0c5a26313a551d022008900e1f31dd74e197b88ba185c1b60265bdc4e47f5ce4eb4e2df5824a30b9c8012103ae76b0db58e6c99c3a9ccfe8617776a7dbffb60506696492d7c18f39652d7ae7feffffff0239014414000000001976a914647c97c1d13ad50a3556272d3fc340965f568c1188acf7d47909000000001976a9140168c127d776d168f9403aaeaa8397492585707988ac4ec31400"
    }, 
    {
      "txid": "ce949ad6807ac5cd4e5bfc04278caf38b582542823d96cf5b494d6698a791e44",
      "hash": "ce949ad6807ac5cd4e5bfc04278caf38b582542823d96cf5b494d6698a791e44",
      "version": 1,
      "size": 226,
      "vsize": 226,
      "locktime": 0,
      "vin": [
        {
          "txid": "9c3d9294e6a6e783b6d79737b5f46de0344e5fe0ca05a7a1a4466d68a7b5617b",
          "vout": 0,
          "scriptSig": {
            "asm": "3045022100d30e1eea14659a310f3a9e2bb2a0874ed04d4c2b21f45a11cb97024be1a508ad0220776c89cc3cdac1ab2103d056607946ec8767f4a57f4d736478486eafdea32673[ALL] 03c2fcdbcd2438bd62d05228740f2be5950b1fae6041485561e07b42f3f41f2094",
            "hex": "483045022100d30e1eea14659a310f3a9e2bb2a0874ed04d4c2b21f45a11cb97024be1a508ad0220776c89cc3cdac1ab2103d056607946ec8767f4a57f4d736478486eafdea32673012103c2fcdbcd2438bd62d05228740f2be5950b1fae6041485561e07b42f3f41f2094"
          },
          "sequence": 4294967295
        }
      ],
      "vout": [
        {
          "value": 0.20638400,
          "n": 0,
          "scriptPubKey": {
            "asm": "OP_DUP OP_HASH160 1fb2d3ef6ef25420632df8a1e0f098dae2393e7f OP_EQUALVERIFY OP_CHECKSIG",
            "hex": "76a9141fb2d3ef6ef25420632df8a1e0f098dae2393e7f88ac",
            "reqSigs": 1,
            "type": "pubkeyhash",
            "addresses": [
              "LN7ZSLZmv7iyvPsB3bwePUxgxktNyx4Ykn"
            ]
          }
        }, 
        {
          "value": 1.23590000,
          "n": 1,
          "scriptPubKey": {
            "asm": "OP_DUP OP_HASH160 8c8587accd3476a81cc8f19b49cd3e6a9d943bdd OP_EQUALVERIFY OP_CHECKSIG",
            "hex": "76a9148c8587accd3476a81cc8f19b49cd3e6a9d943bdd88ac",
            "reqSigs": 1,
            "type": "pubkeyhash",
            "addresses": [
              "LY2xptrvcDkksJGquJXcx3o3SfjTf2SvM8"
            ]
          }
        }
      ],
      "hex": "01000000017b61b5a7686d46a4a1a705cae05f4e34e06df4b53797d7b683e7a6e694923d9c000000006b483045022100d30e1eea14659a310f3a9e2bb2a0874ed04d4c2b21f45a11cb97024be1a508ad0220776c89cc3cdac1ab2103d056607946ec8767f4a57f4d736478486eafdea32673012103c2fcdbcd2438bd62d05228740f2be5950b1fae6041485561e07b42f3f41f2094ffffffff02c0ea3a01000000001976a9141fb2d3ef6ef25420632df8a1e0f098dae2393e7f88ac70d55d07000000001976a9148c8587accd3476a81cc8f19b49cd3e6a9d943bdd88ac00000000"
    }, 
    {
      "txid": "2b903481897711c8b521f71730ea0f30dbc5e669efc3ae5899b76ba29ce1e735",
      "hash": "2b903481897711c8b521f71730ea0f30dbc5e669efc3ae5899b76ba29ce1e735",
      "version": 1,
      "size": 226,
      "vsize": 226,
      "locktime": 0,
      "vin": [
        {
          "txid": "b4997fd8697abbfdb178477a3f111634577177ff685c62d390bdb99572e02337",
          "vout": 0,
          "scriptSig": {
            "asm": "3045022100ea6650fc4ede5684a50ab6e0c268441b7bd704720665515db408054dc50a025302203d970cc8634c2070e7b07d9e6d453e3785ad940733dcf61afa2e3740bb699288[ALL] 02fe5f0aef27b92d2576834f3cc73268daad0f936f0a134d795f3ad5be5884eafe",
            "hex": "483045022100ea6650fc4ede5684a50ab6e0c268441b7bd704720665515db408054dc50a025302203d970cc8634c2070e7b07d9e6d453e3785ad940733dcf61afa2e3740bb699288012102fe5f0aef27b92d2576834f3cc73268daad0f936f0a134d795f3ad5be5884eafe"
          },
          "sequence": 4294967295
        }
      ],
      "vout": [
        {
          "value": 0.07390000,
          "n": 0,
          "scriptPubKey": {
            "asm": "OP_DUP OP_HASH160 1e9052a0e59b5dea5c894ee118fa91c3c79f66d9 OP_EQUALVERIFY OP_CHECKSIG",
            "hex": "76a9141e9052a0e59b5dea5c894ee118fa91c3c79f66d988ac",
            "reqSigs": 1,
            "type": "pubkeyhash",
            "addresses": [
              "LN1ZRgx7ya4pjkAsarfvu6nY5SVRsZGLJa"
            ]
          }
        }, 
        {
          "value": 0.10972501,
          "n": 1,
          "scriptPubKey": {
            "asm": "OP_DUP OP_HASH160 9ffb08141fab3683a6bc0716535668cac20357e2 OP_EQUALVERIFY OP_CHECKSIG",
            "hex": "76a9149ffb08141fab3683a6bc0716535668cac20357e288ac",
            "reqSigs": 1,
            "type": "pubkeyhash",
            "addresses": [
              "LZorRh7Xko1qHjkrc6nmv82m1Q6TgBzU8E"
            ]
          }
        }
      ],
      "hex": "01000000013723e07295b9bd90d3625c68ff7771573416113f7a4778b1fdbb7a69d87f99b4000000006b483045022100ea6650fc4ede5684a50ab6e0c268441b7bd704720665515db408054dc50a025302203d970cc8634c2070e7b07d9e6d453e3785ad940733dcf61afa2e3740bb699288012102fe5f0aef27b92d2576834f3cc73268daad0f936f0a134d795f3ad5be5884eafeffffffff0230c37000000000001976a9141e9052a0e59b5dea5c894ee118fa91c3c79f66d988ac556da700000000001976a9149ffb08141fab3683a6bc0716535668cac20357e288ac00000000"
    }, 
    {
      "txid": "adea1725a09d91a490695a61fcc2f830997a3dd2c6958a1a5f50d0c290b9c5db",
      "hash": "adea1725a09d91a490695a61fcc2f830997a3dd2c6958a1a5f50d0c290b9c5db",
      "version": 1,
      "size": 476,
      "vsize": 476,
      "locktime": 0,
      "vin": [
        {
          "txid": "53130cf23216c56372610557dc1448518015d4fb318bc5191939e5d9595b94e9",
          "vout": 3,
          "scriptSig": {
            "asm": "30450221008539e3239cd9ce31b4dec8eedebe5c29f03a9cc0b1572f81e855017362f9a6c402200e0b86bd4c3e7c3ba6424e9ff916b7722424e12bb4d319c037c4e503b6562b3e[ALL] 02d1026b5e1be2af860e7f8503c8a65f548f0ccf30119f937b9ac753e8491f0c04",
            "hex": "4830450221008539e3239cd9ce31b4dec8eedebe5c29f03a9cc0b1572f81e855017362f9a6c402200e0b86bd4c3e7c3ba6424e9ff916b7722424e12bb4d319c037c4e503b6562b3e012102d1026b5e1be2af860e7f8503c8a65f548f0ccf30119f937b9ac753e8491f0c04"
          },
          "sequence": 4294967295
        }, 
        {
          "txid": "2cca6545c3f7434c8eb2002be2b6c10c46dd9333e9d7768858dc47d8f528ee96",
          "vout": 3,
          "scriptSig": {
            "asm": "30450221008a086ec5281a436f8d3e0de1d7a8c19888f1b900f034295f566f7519b34b1dfa022046663839513865caedb0bca52e291da0fc33ae6d2ae1a0d7d4b0078fcb9f2874[ALL] 02d1026b5e1be2af860e7f8503c8a65f548f0ccf30119f937b9ac753e8491f0c04",
            "hex": "4830450221008a086ec5281a436f8d3e0de1d7a8c19888f1b900f034295f566f7519b34b1dfa022046663839513865caedb0bca52e291da0fc33ae6d2ae1a0d7d4b0078fcb9f2874012102d1026b5e1be2af860e7f8503c8a65f548f0ccf30119f937b9ac753e8491f0c04"
          },
          "sequence": 4294967295
        }
      ],
      "vout": [
        {
          "value": 1.61971153,
          "n": 0,
          "scriptPubKey": {
            "asm": "OP_DUP OP_HASH160 a3e81d2e1a77c08227e1dc55fbf4aa7a461c89d4 OP_EQUALVERIFY OP_CHECKSIG",
            "hex": "76a914a3e81d2e1a77c08227e1dc55fbf4aa7a461c89d488ac",
            "reqSigs": 1,
            "type": "pubkeyhash",
            "addresses": [
              "LaAcU3VUuerr1u2m9Sn8cMn4459CiS5jgU"
            ]
          }
        }, 
        {
          "value": 0.25509100,
          "n": 1,
          "scriptPubKey": {
            "asm": "OP_DUP OP_HASH160 8105dcc4da1e653558be0f1fcd0f49189f631310 OP_EQUALVERIFY OP_CHECKSIG",
            "hex": "76a9148105dcc4da1e653558be0f1fcd0f49189f63131088ac",
            "reqSigs": 1,
            "type": "pubkeyhash",
            "addresses": [
              "LWzATHSp8BDSU5dUDN57dWo9V8h73NbnvD"
            ]
          }
        }, 
        {
          "value": 0.05391025,
          "n": 2,
          "scriptPubKey": {
            "asm": "OP_DUP OP_HASH160 898a886415b9056a4cc15b672b36f5a64f8dc879 OP_EQUALVERIFY OP_CHECKSIG",
            "hex": "76a914898a886415b9056a4cc15b672b36f5a64f8dc87988ac",
            "reqSigs": 1,
            "type": "pubkeyhash",
            "addresses": [
              "LXmCnvJk1fXfGSDDqf3sWwVwWAGhN6FNi6"
            ]
          }
        }, 
        {
          "value": 3.47994736,
          "n": 3,
          "scriptPubKey": {
            "asm": "OP_DUP OP_HASH160 107c0b1f83c2d542874c8650fb806ff639674df6 OP_EQUALVERIFY OP_CHECKSIG",
            "hex": "76a914107c0b1f83c2d542874c8650fb806ff639674df688ac",
            "reqSigs": 1,
            "type": "pubkeyhash",
            "addresses": [
              "LLj7fyLzJtDvjMCyYbikwHhnRB9FxX6AKJ"
            ]
          }
        }, 
        {
          "value": 30.47268537,
          "n": 4,
          "scriptPubKey": {
            "asm": "OP_DUP OP_HASH160 d03135f2f46776b93126830da160846edbe57fae OP_EQUALVERIFY OP_CHECKSIG",
            "hex": "76a914d03135f2f46776b93126830da160846edbe57fae88ac",
            "reqSigs": 1,
            "type": "pubkeyhash",
            "addresses": [
              "LeCmmLRrReLX5xmocu6XDsVx9arQJ8iqgw"
            ]
          }
        }
      ],
      "hex": "0100000002e9945b59d9e5391919c58b31fbd41580514814dc5705617263c51632f20c1353030000006b4830450221008539e3239cd9ce31b4dec8eedebe5c29f03a9cc0b1572f81e855017362f9a6c402200e0b86bd4c3e7c3ba6424e9ff916b7722424e12bb4d319c037c4e503b6562b3e012102d1026b5e1be2af860e7f8503c8a65f548f0ccf30119f937b9ac753e8491f0c04ffffffff96ee28f5d847dc588876d7e93393dd460cc1b6e22b00b28e4c43f7c34565ca2c030000006b4830450221008a086ec5281a436f8d3e0de1d7a8c19888f1b900f034295f566f7519b34b1dfa022046663839513865caedb0bca52e291da0fc33ae6d2ae1a0d7d4b0078fcb9f2874012102d1026b5e1be2af860e7f8503c8a65f548f0ccf30119f937b9ac753e8491f0c04ffffffff05d17ba709000000001976a914a3e81d2e1a77c08227e1dc55fbf4aa7a461c89d488acec3c8501000000001976a9148105dcc4da1e653558be0f1fcd0f49189f63131088acb1425200000000001976a914898a886415b9056a4cc15b672b36f5a64f8dc87988ac70fabd14000000001976a914107c0b1f83c2d542874c8650fb806ff639674df688acb9a0a1b5000000001976a914d03135f2f46776b93126830da160846edbe57fae88ac00000000"
    }
  ],
  "time": 1517471685,
  "mediantime": 1517470896,
  "nonce": 1270806151,
  "bits": "1a042eae",
  "difficulty": 4011378.762614286,
  "chainwork": "00000000000000000000000000000000000000000000003533c92528b82c3522",
  "previousblockhash": "91610506645cf5067b0cef993200de4a417f6d62776449e1146de298bed812d2",
  "nextblockhash": "cb376b95d246abd4b2d74433ac2788463a245cab345226e0ad457fbc143fce3e"
}
