{
  "hash": "eb79ada6aae960633cf4f7005c01e8fc322ee670174e24ccc2b64a47cf723a82",
  "confirmations": 3665,
  "strippedsize": 254,
  "size": 254,
  "weight": 1016,
  "height": 1357330,
  "version": 536870912,
  "versionHex": "20000000",
  "merkleroot": "b13d4fdc2fb4d1443e7c75b369fbb98c57315c0c071c19ac7ad4496f8e3ccf54",
  "tx": [
    {
      "txid": "b13d4fdc2fb4d1443e7c75b369fbb98c57315c0c071c19ac7ad4496f8e3ccf54",
      "hash": "b13d4fdc2fb4d1443e7c75b369fbb98c57315c0c071c19ac7ad4496f8e3ccf54",
      "version": 1,
      "size": 173,
      "vsize": 173,
      "locktime": 0,
      "vin": [
        {
          "coinbase": "0312b6141b4d696e656420627920416e74506f6f6c20626a302042205a6b6efafabe6d6dd17b0a3333f73786555088a2f97d8a41598804490b99d273b09549a93a5698a20400000000000000b1260000000000001d000000",
          "sequence": 4294967295
        }
      ],
      "vout": [
        {
          "value": 25.00000000,
          "n": 0,
          "scriptPubKey": {
            "asm": "OP_DUP OP_HASH160 0ff3ccc5e8be88afe24b5d634e5852d474dbdff1 OP_EQUALVERIFY OP_CHECKSIG",
            "hex": "76a9140ff3ccc5e8be88afe24b5d634e5852d474dbdff188ac",
            "reqSigs": 1,
            "type": "pubkeyhash",
            "addresses": [
              "LLgJTbzZMsRTCUF1NtvvL9SR1a4pVieW89"
            ]
          }
        }
      ],
      "hex": "01000000010000000000000000000000000000000000000000000000000000000000000000ffffffff580312b6141b4d696e656420627920416e74506f6f6c20626a302042205a6b6efafabe6d6dd17b0a3333f73786555088a2f97d8a41598804490b99d273b09549a93a5698a20400000000000000b1260000000000001d000000ffffffff0100f90295000000001976a9140ff3ccc5e8be88afe24b5d634e5852d474dbdff188ac00000000"
    }
  ],
  "time": 1516990202,
  "mediantime": 1516989480,
  "nonce": 2250572972,
  "bits": "1a047f14",
  "difficulty": 3731199.183374282,
  "chainwork": "00000000000000000000000000000000000000000000003221802b2b1dbf04ee",
  "previousblockhash": "11f6ca847aa205e2ef37aee8fc738200e08f435f26cd71befe5146b81b4ca86e",
  "nextblockhash": "682347ad3b7e8ff8285ece5b95dcde5bd1406825296f6a23570fde51d4cf4c2a"
}
