{
  "hash": "ec2ddb850d93a34aacd9cf19dc282a4972fdcd764fb729aa1a3e86a00bf7c10b",
  "confirmations": 1441,
  "strippedsize": 6195,
  "size": 6231,
  "weight": 24816,
  "height": 1359553,
  "version": 536870912,
  "versionHex": "20000000",
  "merkleroot": "803324f29cd966fe52ec6a94ef4c10a0e0e8127150b9275c859de3d10dd352f2",
  "tx": [
    {
      "txid": "f764657811481f9cced568584c3df94e999ce6884c3d5f754c8a8256c9205486",
      "hash": "e7e6d9eba974646e32d36f19f596e513d8e00f6a387cd4f32e434a8e0a306039",
      "version": 1,
      "size": 236,
      "vsize": 209,
      "locktime": 0,
      "vin": [
        {
          "coinbase": "03c1be14045a7021502cfabe6d6d95c0a3917e4bf1ab34172c9bb594119dfe325835ccb892a396adf696976412394000000000000000042f4c502f08560005e302000000",
          "sequence": 4294967295
        }
      ],
      "vout": [
        {
          "value": 25.00604626,
          "n": 0,
          "scriptPubKey": {
            "asm": "OP_DUP OP_HASH160 57757ed2ecf2052ff3126c397aca7defb9ca2cec OP_EQUALVERIFY OP_CHECKSIG",
            "hex": "76a91457757ed2ecf2052ff3126c397aca7defb9ca2cec88ac",
            "reqSigs": 1,
            "type": "pubkeyhash",
            "addresses": [
              "LTCPodGk5FwcJaRzH9yKnwicxzFUbxp6tN"
            ]
          }
        }, 
        {
          "value": 0.00000000,
          "n": 1,
          "scriptPubKey": {
            "asm": "OP_RETURN aa21a9ed068496a656e841e77d911c1652c476619df19ce27df04b960e429a20a1c0948b",
            "hex": "6a24aa21a9ed068496a656e841e77d911c1652c476619df19ce27df04b960e429a20a1c0948b",
            "type": "nulldata"
          }
        }
      ],
      "hex": "010000000001010000000000000000000000000000000000000000000000000000000000000000ffffffff4403c1be14045a7021502cfabe6d6d95c0a3917e4bf1ab34172c9bb594119dfe325835ccb892a396adf696976412394000000000000000042f4c502f08560005e302000000ffffffff02d2320c95000000001976a91457757ed2ecf2052ff3126c397aca7defb9ca2cec88ac0000000000000000266a24aa21a9ed068496a656e841e77d911c1652c476619df19ce27df04b960e429a20a1c0948b0120000000000000000000000000000000000000000000000000000000000000000000000000"
    }, 
    {
      "txid": "7d557cf508c9a911c167c7471e08887e26e86854baf09db7c03ee987a6b95265",
      "hash": "7d557cf508c9a911c167c7471e08887e26e86854baf09db7c03ee987a6b95265",
      "version": 1,
      "size": 226,
      "vsize": 226,
      "locktime": 0,
      "vin": [
        {
          "txid": "33094313da88c14083ffce0ac8f19e7ba9f4f5ab9516f10255c5bc3735193e04",
          "vout": 1,
          "scriptSig": {
            "asm": "3045022100ab478110ca8efd0b2c0e65c904489ff9d596c87154b81284c47977c4d697f3450220361b8dbec9dee3e58318108e92ac804409ef4cbdf7409643b4e43c58c5d5f502[ALL] 027ba2d79ee2473dfce65205f66b77c195011bcb9c75297afa39d66a9b2e084d8f",
            "hex": "483045022100ab478110ca8efd0b2c0e65c904489ff9d596c87154b81284c47977c4d697f3450220361b8dbec9dee3e58318108e92ac804409ef4cbdf7409643b4e43c58c5d5f5020121027ba2d79ee2473dfce65205f66b77c195011bcb9c75297afa39d66a9b2e084d8f"
          },
          "sequence": 4294967295
        }
      ],
      "vout": [
        {
          "value": 0.67900000,
          "n": 0,
          "scriptPubKey": {
            "asm": "OP_DUP OP_HASH160 a6088e447810d97c5e82ba7ea6d1d3c9160e4ed9 OP_EQUALVERIFY OP_CHECKSIG",
            "hex": "76a914a6088e447810d97c5e82ba7ea6d1d3c9160e4ed988ac",
            "reqSigs": 1,
            "type": "pubkeyhash",
            "addresses": [
              "LaMrgX64LMzeFSDpZQuB3NXsdtoSmfMfk3"
            ]
          }
        }, 
        {
          "value": 159.36864862,
          "n": 1,
          "scriptPubKey": {
            "asm": "OP_DUP OP_HASH160 0ef0c69e06a93b35586d6124661a2257b1e1e036 OP_EQUALVERIFY OP_CHECKSIG",
            "hex": "76a9140ef0c69e06a93b35586d6124661a2257b1e1e03688ac",
            "reqSigs": 1,
            "type": "pubkeyhash",
            "addresses": [
              "LLaxAJEPGwKrUPzVRSsear42dWqee5xxH3"
            ]
          }
        }
      ],
      "hex": "0100000001043e193537bcc55502f11695abf5f4a97b9ef1c80aceff8340c188da13430933010000006b483045022100ab478110ca8efd0b2c0e65c904489ff9d596c87154b81284c47977c4d697f3450220361b8dbec9dee3e58318108e92ac804409ef4cbdf7409643b4e43c58c5d5f5020121027ba2d79ee2473dfce65205f66b77c195011bcb9c75297afa39d66a9b2e084d8fffffffff0260120c04000000001976a914a6088e447810d97c5e82ba7ea6d1d3c9160e4ed988ac5e42e9b5030000001976a9140ef0c69e06a93b35586d6124661a2257b1e1e03688ac00000000"
    }, 
    {
      "txid": "a8595033ba0a3037cc516f64e448b83c6d69e5542d3cd364e0ee197497f6b0bb",
      "hash": "a8595033ba0a3037cc516f64e448b83c6d69e5542d3cd364e0ee197497f6b0bb",
      "version": 1,
      "size": 226,
      "vsize": 226,
      "locktime": 0,
      "vin": [
        {
          "txid": "764a993de642011891de1aa1ffe54d1f581ee2dfd0ae043339154aad3fb56e76",
          "vout": 1,
          "scriptSig": {
            "asm": "3045022100d5edbc8f46548347ac325da5c5a86c5420fad240a34532e09ad29dfecfa8e0de022011876e84ca62a75cf6b894a03fa1b1de21cf13e3d33d14c78aec8985ded83585[ALL] 033cc2eadae58afe0b0f2fb16df73f2ab34ae946f1e14c8b55b9528df7aa4c1db7",
            "hex": "483045022100d5edbc8f46548347ac325da5c5a86c5420fad240a34532e09ad29dfecfa8e0de022011876e84ca62a75cf6b894a03fa1b1de21cf13e3d33d14c78aec8985ded835850121033cc2eadae58afe0b0f2fb16df73f2ab34ae946f1e14c8b55b9528df7aa4c1db7"
          },
          "sequence": 4294967295
        }
      ],
      "vout": [
        {
          "value": 7.12000000,
          "n": 0,
          "scriptPubKey": {
            "asm": "OP_DUP OP_HASH160 2a42ef4c9fa33cdc711efda087769bba93c14bd8 OP_EQUALVERIFY OP_CHECKSIG",
            "hex": "76a9142a42ef4c9fa33cdc711efda087769bba93c14bd888ac",
            "reqSigs": 1,
            "type": "pubkeyhash",
            "addresses": [
              "LP5QpyimshRHY8YaTuarnZwS9ChV62Aywo"
            ]
          }
        }, 
        {
          "value": 152.92527420,
          "n": 1,
          "scriptPubKey": {
            "asm": "OP_DUP OP_HASH160 6e2b771315cec627a81ea368dbf6aeff08ec2886 OP_EQUALVERIFY OP_CHECKSIG",
            "hex": "76a9146e2b771315cec627a81ea368dbf6aeff08ec288688ac",
            "reqSigs": 1,
            "type": "pubkeyhash",
            "addresses": [
              "LVGUfKo9sPp298TsKMVAHeiay4f7vvGAKJ"
            ]
          }
        }
      ],
      "hex": "0100000001766eb53fad4a15393304aed0dfe21e581f4de5ffa11ade91180142e63d994a76010000006b483045022100d5edbc8f46548347ac325da5c5a86c5420fad240a34532e09ad29dfecfa8e0de022011876e84ca62a75cf6b894a03fa1b1de21cf13e3d33d14c78aec8985ded835850121033cc2eadae58afe0b0f2fb16df73f2ab34ae946f1e14c8b55b9528df7aa4c1db7ffffffff020042702a000000001976a9142a42ef4c9fa33cdc711efda087769bba93c14bd888ac3c73818f030000001976a9146e2b771315cec627a81ea368dbf6aeff08ec288688ac00000000"
    }, 
    {
      "txid": "ca6af30a968f85887d645be3b601bf88df1cc3b1eab184b474816e954a2eb7dd",
      "hash": "ca6af30a968f85887d645be3b601bf88df1cc3b1eab184b474816e954a2eb7dd",
      "version": 1,
      "size": 226,
      "vsize": 226,
      "locktime": 0,
      "vin": [
        {
          "txid": "1e4399ed5285c04bd7c09784073dc4e550a7883090ea2517e5ded53eb1712ec8",
          "vout": 1,
          "scriptSig": {
            "asm": "3045022100d7a5bb3dd7b054d5db7aa54b43ecb9c29937d1888e97986e11c7834a22162ee702205a6fae832713c9f231944422fc008be392b04ff5971ddbdff77b67006fa2d9e2[ALL] 03a285255e6a4e780954037597a6e589a660e6e3979a5e6aefb11eadba3da8fccc",
            "hex": "483045022100d7a5bb3dd7b054d5db7aa54b43ecb9c29937d1888e97986e11c7834a22162ee702205a6fae832713c9f231944422fc008be392b04ff5971ddbdff77b67006fa2d9e2012103a285255e6a4e780954037597a6e589a660e6e3979a5e6aefb11eadba3da8fccc"
          },
          "sequence": 4294967295
        }
      ],
      "vout": [
        {
          "value": 0.05000000,
          "n": 0,
          "scriptPubKey": {
            "asm": "OP_DUP OP_HASH160 11a015d3a86dbef655e1b80f3c39851887633611 OP_EQUALVERIFY OP_CHECKSIG",
            "hex": "76a91411a015d3a86dbef655e1b80f3c3985188763361188ac",
            "reqSigs": 1,
            "type": "pubkeyhash",
            "addresses": [
              "LLq9XPkVQzWFarMLZK3GtZDWimwmpxLKDN"
            ]
          }
        }, 
        {
          "value": 0.22567800,
          "n": 1,
          "scriptPubKey": {
            "asm": "OP_DUP OP_HASH160 e966b1f31fcd01653bf725be06d0948af3f4dcc2 OP_EQUALVERIFY OP_CHECKSIG",
            "hex": "76a914e966b1f31fcd01653bf725be06d0948af3f4dcc288ac",
            "reqSigs": 1,
            "type": "pubkeyhash",
            "addresses": [
              "LgW4jHr2tfnp2XXCPnmgQNUyDV3aY5A6dM"
            ]
          }
        }
      ],
      "hex": "0100000001c82e71b13ed5dee51725ea903088a750e5c43d078497c0d74bc08552ed99431e010000006b483045022100d7a5bb3dd7b054d5db7aa54b43ecb9c29937d1888e97986e11c7834a22162ee702205a6fae832713c9f231944422fc008be392b04ff5971ddbdff77b67006fa2d9e2012103a285255e6a4e780954037597a6e589a660e6e3979a5e6aefb11eadba3da8fcccffffffff02404b4c00000000001976a91411a015d3a86dbef655e1b80f3c3985188763361188ac785b5801000000001976a914e966b1f31fcd01653bf725be06d0948af3f4dcc288ac00000000"
    }, 
    {
      "txid": "d6db9a11ca3cd921e856ca107f8fd07ccb3424a464e0a7d55857732784cb9ef7",
      "hash": "d6db9a11ca3cd921e856ca107f8fd07ccb3424a464e0a7d55857732784cb9ef7",
      "version": 2,
      "size": 814,
      "vsize": 814,
      "locktime": 1359551,
      "vin": [
        {
          "txid": "f2be5614c430baab321711f97d8201e4dd85a3235cd419dac574a11c64faba04",
          "vout": 1,
          "scriptSig": {
            "asm": "3044022019b4dbbe79dbc8bdbb93f85385250309b65bb46db1ad3945d35ff8d079c6b68b022028c6685a1e2745a7a1b7a2fbdac0ca67712b83f913f931c45aa3b887bbfa040d[ALL] 03b8a5e1316cc17b390417c15369c699cfb7d59fb7ecabb32840a789ec06af17f2",
            "hex": "473044022019b4dbbe79dbc8bdbb93f85385250309b65bb46db1ad3945d35ff8d079c6b68b022028c6685a1e2745a7a1b7a2fbdac0ca67712b83f913f931c45aa3b887bbfa040d012103b8a5e1316cc17b390417c15369c699cfb7d59fb7ecabb32840a789ec06af17f2"
          },
          "sequence": 4294967294
        }, 
        {
          "txid": "0404c569cbdbecf4e1dc12a19f9a29ff590d9c819fe9ce5a23bb38385606045e",
          "vout": 1,
          "scriptSig": {
            "asm": "3044022077b3bd99e9f3eb380550e3f05be4f56a40cca2180f0f91e9b46792aada79e9be02201722426b1dabea51db90e1c555b20fdffb9d91f43b951adcd8f322d5393bb7a7[ALL] 03fc6341e84b6acc5c67544c449b5306e1fbb12265eaf71e6aee738540c1c87834",
            "hex": "473044022077b3bd99e9f3eb380550e3f05be4f56a40cca2180f0f91e9b46792aada79e9be02201722426b1dabea51db90e1c555b20fdffb9d91f43b951adcd8f322d5393bb7a7012103fc6341e84b6acc5c67544c449b5306e1fbb12265eaf71e6aee738540c1c87834"
          },
          "sequence": 4294967294
        }, 
        {
          "txid": "f58ec59cc334f1474e31cbbcd74024012618594e60eab58ebe397becdae2c9be",
          "vout": 0,
          "scriptSig": {
            "asm": "3045022100bef6135edefe14ea1c36d32cf25c16381c79d31721689857f12dde9f2d0c209602204d72209d899229cd6971cababc804e495d824fab8dd85d40ed1aa770a4313820[ALL] 02c626435c34d773e14d0f26aada484c38c8d7ee2af2c0451b2cd0ace4802fce1b",
            "hex": "483045022100bef6135edefe14ea1c36d32cf25c16381c79d31721689857f12dde9f2d0c209602204d72209d899229cd6971cababc804e495d824fab8dd85d40ed1aa770a4313820012102c626435c34d773e14d0f26aada484c38c8d7ee2af2c0451b2cd0ace4802fce1b"
          },
          "sequence": 4294967294
        }, 
        {
          "txid": "4cbd792486193e7131577fd3022d0d4724d0f0dd8365271f8ca1b0da863e6ddb",
          "vout": 0,
          "scriptSig": {
            "asm": "3044022027209167adb9a0d974cbce66fc79f2b6c6ad16ee81009f0a5d8ef21297b80d5e02200096c400445f9f972bba4c1f9f22d31fd3575b494d89c392140cb72ed7c92de3[ALL] 03c0ca276430bf2887f4e2d4a2f224c1ce473daab7a54d9addb6a113562aff96f3",
            "hex": "473044022027209167adb9a0d974cbce66fc79f2b6c6ad16ee81009f0a5d8ef21297b80d5e02200096c400445f9f972bba4c1f9f22d31fd3575b494d89c392140cb72ed7c92de3012103c0ca276430bf2887f4e2d4a2f224c1ce473daab7a54d9addb6a113562aff96f3"
          },
          "sequence": 4294967294
        }, 
        {
          "txid": "3242e6da0fd9cbc11abf6a4097f259008db8cd38c5c2d26243ef51502b5831e2",
          "vout": 1,
          "scriptSig": {
            "asm": "3044022011dfac3440b5c4893ee172abad6f3aba465828ecf868a4e050e07d80b854317702205870e2521e705b7f6a84ececc3fa4bd56fd75f088858087b061263426a02c526[ALL] 02395a7fa26d46f02b35e9e05daea5582d5c03d81a21f68d6235563bd86b3215bc",
            "hex": "473044022011dfac3440b5c4893ee172abad6f3aba465828ecf868a4e050e07d80b854317702205870e2521e705b7f6a84ececc3fa4bd56fd75f088858087b061263426a02c526012102395a7fa26d46f02b35e9e05daea5582d5c03d81a21f68d6235563bd86b3215bc"
          },
          "sequence": 4294967294
        }
      ],
      "vout": [
        {
          "value": 0.26800000,
          "n": 0,
          "scriptPubKey": {
            "asm": "OP_DUP OP_HASH160 13a5d7e2193515a3a4e394b06775b309efc71492 OP_EQUALVERIFY OP_CHECKSIG",
            "hex": "76a91413a5d7e2193515a3a4e394b06775b309efc7149288ac",
            "reqSigs": 1,
            "type": "pubkeyhash",
            "addresses": [
              "LM1qmrMtA8eEG9qURZgq5trWGgNkK3QB96"
            ]
          }
        }, 
        {
          "value": 0.00096239,
          "n": 1,
          "scriptPubKey": {
            "asm": "OP_DUP OP_HASH160 7ea662881edde8138dd922d2cbc81b1583de3d30 OP_EQUALVERIFY OP_CHECKSIG",
            "hex": "76a9147ea662881edde8138dd922d2cbc81b1583de3d3088ac",
            "reqSigs": 1,
            "type": "pubkeyhash",
            "addresses": [
              "LWmcj1SerMRMFJAiWQmjXZSGR39ttYgcYG"
            ]
          }
        }
      ],
      "hex": "020000000504bafa641ca174c5da19d45c23a385dde401827df9111732abba30c41456bef2010000006a473044022019b4dbbe79dbc8bdbb93f85385250309b65bb46db1ad3945d35ff8d079c6b68b022028c6685a1e2745a7a1b7a2fbdac0ca67712b83f913f931c45aa3b887bbfa040d012103b8a5e1316cc17b390417c15369c699cfb7d59fb7ecabb32840a789ec06af17f2feffffff5e0406563838bb235acee99f819c0d59ff299a9fa112dce1f4ecdbcb69c50404010000006a473044022077b3bd99e9f3eb380550e3f05be4f56a40cca2180f0f91e9b46792aada79e9be02201722426b1dabea51db90e1c555b20fdffb9d91f43b951adcd8f322d5393bb7a7012103fc6341e84b6acc5c67544c449b5306e1fbb12265eaf71e6aee738540c1c87834feffffffbec9e2daec7b39be8eb5ea604e591826012440d7bccb314e47f134c39cc58ef5000000006b483045022100bef6135edefe14ea1c36d32cf25c16381c79d31721689857f12dde9f2d0c209602204d72209d899229cd6971cababc804e495d824fab8dd85d40ed1aa770a4313820012102c626435c34d773e14d0f26aada484c38c8d7ee2af2c0451b2cd0ace4802fce1bfeffffffdb6d3e86dab0a18c1f276583ddf0d024470d2d02d37f5731713e19862479bd4c000000006a473044022027209167adb9a0d974cbce66fc79f2b6c6ad16ee81009f0a5d8ef21297b80d5e02200096c400445f9f972bba4c1f9f22d31fd3575b494d89c392140cb72ed7c92de3012103c0ca276430bf2887f4e2d4a2f224c1ce473daab7a54d9addb6a113562aff96f3feffffffe231582b5051ef4362d2c2c538cdb88d0059f297406abf1ac1cbd90fdae64232010000006a473044022011dfac3440b5c4893ee172abad6f3aba465828ecf868a4e050e07d80b854317702205870e2521e705b7f6a84ececc3fa4bd56fd75f088858087b061263426a02c526012102395a7fa26d46f02b35e9e05daea5582d5c03d81a21f68d6235563bd86b3215bcfeffffff0280ef9801000000001976a91413a5d7e2193515a3a4e394b06775b309efc7149288acef770100000000001976a9147ea662881edde8138dd922d2cbc81b1583de3d3088acbfbe1400"
    }, 
    {
      "txid": "99d7ad2dc3ca74ddd5c5f675ed26890576be0b3b5f8192aa7be14a5e0d947c72",
      "hash": "99d7ad2dc3ca74ddd5c5f675ed26890576be0b3b5f8192aa7be14a5e0d947c72",
      "version": 1,
      "size": 223,
      "vsize": 223,
      "locktime": 0,
      "vin": [
        {
          "txid": "67ffa06f1d75f35d74e71c310fd027a8d0c6318c2067f5ab796f8593c560107c",
          "vout": 20,
          "scriptSig": {
            "asm": "30440220609070b838f2c06e71e35400ddda6ef16274bdb0aa0191626548ecd82f95f45502201629f8b5a8d2169a3b669b0934fcd3418256c5b18abe30385d3ca2ee1791ee66[ALL] 038cb0c9236db794e3821b520604c5884341731ad950b03920d33176dc3e4a1321",
            "hex": "4730440220609070b838f2c06e71e35400ddda6ef16274bdb0aa0191626548ecd82f95f45502201629f8b5a8d2169a3b669b0934fcd3418256c5b18abe30385d3ca2ee1791ee660121038cb0c9236db794e3821b520604c5884341731ad950b03920d33176dc3e4a1321"
          },
          "sequence": 4294967295
        }
      ],
      "vout": [
        {
          "value": 2.66977600,
          "n": 0,
          "scriptPubKey": {
            "asm": "OP_DUP OP_HASH160 62369284f8d07fc9bdc96374231596527e6959a7 OP_EQUALVERIFY OP_CHECKSIG",
            "hex": "76a91462369284f8d07fc9bdc96374231596527e6959a788ac",
            "reqSigs": 1,
            "type": "pubkeyhash",
            "addresses": [
              "LUBFrmLEZyS8yDuXzDmqD3Ub1Ay2DqDovG"
            ]
          }
        }, 
        {
          "value": 110.00000000,
          "n": 1,
          "scriptPubKey": {
            "asm": "OP_HASH160 08c6850adce63cd3280ef1f79f44f16bebf97907 OP_EQUAL",
            "hex": "a91408c6850adce63cd3280ef1f79f44f16bebf9790787",
            "reqSigs": 1,
            "type": "scripthash",
            "addresses": [
              "M8hZTMZ8CHE5To9rwAhKk5p1zBkH94K4as"
            ]
          }
        }
      ],
      "hex": "01000000017c1060c593856f79abf567208c31c6d0a827d00f311ce7745df3751d6fa0ff67140000006a4730440220609070b838f2c06e71e35400ddda6ef16274bdb0aa0191626548ecd82f95f45502201629f8b5a8d2169a3b669b0934fcd3418256c5b18abe30385d3ca2ee1791ee660121038cb0c9236db794e3821b520604c5884341731ad950b03920d33176dc3e4a1321ffffffff0240c1e90f000000001976a91462369284f8d07fc9bdc96374231596527e6959a788ac00aea68f0200000017a91408c6850adce63cd3280ef1f79f44f16bebf979078700000000"
    }, 
    {
      "txid": "5072202faa1649b9a2d6c99f06dc347067fc920dde8f8529cd4dde28a00e8778",
      "hash": "5072202faa1649b9a2d6c99f06dc347067fc920dde8f8529cd4dde28a00e8778",
      "version": 1,
      "size": 226,
      "vsize": 226,
      "locktime": 0,
      "vin": [
        {
          "txid": "eee7806a02a2ee0cd179248ae10ce018106848f1f54f241b8c6c376c912b3d72",
          "vout": 0,
          "scriptSig": {
            "asm": "3045022100fef6d8abae2b543d9c217e9974e544e6f533f647229ae2cc9de86a73d6815ae902204f271e766ec9c09e864fd4f87625f5c3a732e2251646dea1f1906e8477754b87[ALL] 0399d58bc7a64db3e91299f39b87c34c3a48fc25128eb1548fec2cbe0fd906bd83",
            "hex": "483045022100fef6d8abae2b543d9c217e9974e544e6f533f647229ae2cc9de86a73d6815ae902204f271e766ec9c09e864fd4f87625f5c3a732e2251646dea1f1906e8477754b8701210399d58bc7a64db3e91299f39b87c34c3a48fc25128eb1548fec2cbe0fd906bd83"
          },
          "sequence": 4294967295
        }
      ],
      "vout": [
        {
          "value": 0.05084185,
          "n": 0,
          "scriptPubKey": {
            "asm": "OP_DUP OP_HASH160 e0f3a694caae63d564c6f64a8949b8efd2b0ee5b OP_EQUALVERIFY OP_CHECKSIG",
            "hex": "76a914e0f3a694caae63d564c6f64a8949b8efd2b0ee5b88ac",
            "reqSigs": 1,
            "type": "pubkeyhash",
            "addresses": [
              "LfjPWL9jUBF7TUpvh8ZbgqixmgQKH5kdXw"
            ]
          }
        }, 
        {
          "value": 0.43541946,
          "n": 1,
          "scriptPubKey": {
            "asm": "OP_DUP OP_HASH160 93769ef5f7228c910036f898170c542292814049 OP_EQUALVERIFY OP_CHECKSIG",
            "hex": "76a91493769ef5f7228c910036f898170c54229281404988ac",
            "reqSigs": 1,
            "type": "pubkeyhash",
            "addresses": [
              "LYffhLeSBhQGc5FTDs6stKKnVpyeiAKQeR"
            ]
          }
        }
      ],
      "hex": "0100000001723d2b916c376c8c1b244ff5f148681018e00ce18a2479d10ceea2026a80e7ee000000006b483045022100fef6d8abae2b543d9c217e9974e544e6f533f647229ae2cc9de86a73d6815ae902204f271e766ec9c09e864fd4f87625f5c3a732e2251646dea1f1906e8477754b8701210399d58bc7a64db3e91299f39b87c34c3a48fc25128eb1548fec2cbe0fd906bd83ffffffff0219944d00000000001976a914e0f3a694caae63d564c6f64a8949b8efd2b0ee5b88acba659802000000001976a91493769ef5f7228c910036f898170c54229281404988ac00000000"
    }, 
    {
      "txid": "f811917b995fa5f0b3d5baf1bef710555b1fe17883a8b9552a3e9f260b8c157f",
      "hash": "f811917b995fa5f0b3d5baf1bef710555b1fe17883a8b9552a3e9f260b8c157f",
      "version": 1,
      "size": 226,
      "vsize": 226,
      "locktime": 0,
      "vin": [
        {
          "txid": "b82b4508fc12ee1441bb6276815efee96fa907c78fcc4fa6d99b0607003e2857",
          "vout": 0,
          "scriptSig": {
            "asm": "3045022100a0b633e2e356e128ab10597e74774bbd2719dde6dddd96b1332bdb6511d6f10c02203b455c3618d7a62327b699475e217085d7be0d2e77f1df3f06cc61fadbefbd0e[ALL] 036c545e690ffa8bfaed5d80553fd17f5ac8c5398222bc2c6230bf254cca89fac0",
            "hex": "483045022100a0b633e2e356e128ab10597e74774bbd2719dde6dddd96b1332bdb6511d6f10c02203b455c3618d7a62327b699475e217085d7be0d2e77f1df3f06cc61fadbefbd0e0121036c545e690ffa8bfaed5d80553fd17f5ac8c5398222bc2c6230bf254cca89fac0"
          },
          "sequence": 4294967295
        }
      ],
      "vout": [
        {
          "value": 0.00639600,
          "n": 0,
          "scriptPubKey": {
            "asm": "OP_DUP OP_HASH160 440d40d355a096b92c6ac0ca97d245935327f8a1 OP_EQUALVERIFY OP_CHECKSIG",
            "hex": "76a914440d40d355a096b92c6ac0ca97d245935327f8a188ac",
            "reqSigs": 1,
            "type": "pubkeyhash",
            "addresses": [
              "LRRn67CUvuhrxSDYpgBjQE5wMZNrXuab3J"
            ]
          }
        }, 
        {
          "value": 0.10000000,
          "n": 1,
          "scriptPubKey": {
            "asm": "OP_DUP OP_HASH160 8b87c9c5491a64c7479439fe1ff33fb063cf0f8d OP_EQUALVERIFY OP_CHECKSIG",
            "hex": "76a9148b87c9c5491a64c7479439fe1ff33fb063cf0f8d88ac",
            "reqSigs": 1,
            "type": "pubkeyhash",
            "addresses": [
              "LXwirc2KgPqUEWFz58R3YL1PEZn8FnAx7Y"
            ]
          }
        }
      ],
      "hex": "010000000157283e0007069bd9a64fcc8fc707a96fe9fe5e817662bb4114ee12fc08452bb8000000006b483045022100a0b633e2e356e128ab10597e74774bbd2719dde6dddd96b1332bdb6511d6f10c02203b455c3618d7a62327b699475e217085d7be0d2e77f1df3f06cc61fadbefbd0e0121036c545e690ffa8bfaed5d80553fd17f5ac8c5398222bc2c6230bf254cca89fac0ffffffff0270c20900000000001976a914440d40d355a096b92c6ac0ca97d245935327f8a188ac80969800000000001976a9148b87c9c5491a64c7479439fe1ff33fb063cf0f8d88ac00000000"
    }, 
    {
      "txid": "12d8b40c9ea40dde06a653538b4257c36fe51c1163ee7f4362aa2d0556390099",
      "hash": "12d8b40c9ea40dde06a653538b4257c36fe51c1163ee7f4362aa2d0556390099",
      "version": 1,
      "size": 226,
      "vsize": 226,
      "locktime": 0,
      "vin": [
        {
          "txid": "250172ddf8b0ef4fc6415436f1952c912010d904dc1aa34a8c1fafc32791f1d1",
          "vout": 0,
          "scriptSig": {
            "asm": "3045022100dcbd3e39503a629235769d0e436fce99f18dccf26d14fff05101e8863c3dc75702202af4e41a5003f3f37b444ddd61f42f2f2a5036e902e0b452b055c1b1a8c2f5ff[ALL] 02969141f3096522ce6ec6c5ab70f0a7ae70486051b4fedb241c34ab0c29acca0a",
            "hex": "483045022100dcbd3e39503a629235769d0e436fce99f18dccf26d14fff05101e8863c3dc75702202af4e41a5003f3f37b444ddd61f42f2f2a5036e902e0b452b055c1b1a8c2f5ff012102969141f3096522ce6ec6c5ab70f0a7ae70486051b4fedb241c34ab0c29acca0a"
          },
          "sequence": 4294967295
        }
      ],
      "vout": [
        {
          "value": 4.45020195,
          "n": 0,
          "scriptPubKey": {
            "asm": "OP_DUP OP_HASH160 3ba756c535651b3794189c3061d2ed3c79f88e12 OP_EQUALVERIFY OP_CHECKSIG",
            "hex": "76a9143ba756c535651b3794189c3061d2ed3c79f88e1288ac",
            "reqSigs": 1,
            "type": "pubkeyhash",
            "addresses": [
              "LQfNbSkkL1taVKmZzLXe3jZF17r5gtAmpt"
            ]
          }
        }, 
        {
          "value": 1.61566568,
          "n": 1,
          "scriptPubKey": {
            "asm": "OP_DUP OP_HASH160 bcb42c3bb13716b1d9d39f61c3f498157492de17 OP_EQUALVERIFY OP_CHECKSIG",
            "hex": "76a914bcb42c3bb13716b1d9d39f61c3f498157492de1788ac",
            "reqSigs": 1,
            "type": "pubkeyhash",
            "addresses": [
              "LcRj8uFmSBcS2PYk3FHjqoj9pKi5V13tEb"
            ]
          }
        }
      ],
      "hex": "0100000001d1f19127c3af1f8c4aa31adc04d91020912c95f1365441c64fefb0f8dd720125000000006b483045022100dcbd3e39503a629235769d0e436fce99f18dccf26d14fff05101e8863c3dc75702202af4e41a5003f3f37b444ddd61f42f2f2a5036e902e0b452b055c1b1a8c2f5ff012102969141f3096522ce6ec6c5ab70f0a7ae70486051b4fedb241c34ab0c29acca0affffffff022378861a000000001976a9143ba756c535651b3794189c3061d2ed3c79f88e1288ac684fa109000000001976a914bcb42c3bb13716b1d9d39f61c3f498157492de1788ac00000000"
    }, 
    {
      "txid": "01c5f51972d70f620e8e8bf71bfd3b43bbe1bbb2f6673a33c10e4c01feee2bf5",
      "hash": "01c5f51972d70f620e8e8bf71bfd3b43bbe1bbb2f6673a33c10e4c01feee2bf5",
      "version": 1,
      "size": 226,
      "vsize": 226,
      "locktime": 0,
      "vin": [
        {
          "txid": "9c43c8688bcbae750389a3f5a2c7a3e9856fbee1a1594f4cfbd6619ef62597a7",
          "vout": 13,
          "scriptSig": {
            "asm": "3045022100e93f162e362193c4db05a861648f60893d8054c9d204348d74833c75905e09cc022022b62cc793dc3e62e119974119f336b38b05f0b1966dcca2d11445759c64c410[ALL] 0212d0edf04f4256123fd5bb29d2f287bf1c3831475a342902a1bb2d918bd34002",
            "hex": "483045022100e93f162e362193c4db05a861648f60893d8054c9d204348d74833c75905e09cc022022b62cc793dc3e62e119974119f336b38b05f0b1966dcca2d11445759c64c41001210212d0edf04f4256123fd5bb29d2f287bf1c3831475a342902a1bb2d918bd34002"
          },
          "sequence": 4294967295
        }
      ],
      "vout": [
        {
          "value": 0.35036000,
          "n": 0,
          "scriptPubKey": {
            "asm": "OP_DUP OP_HASH160 d0d8d98f64e5a71ccd906e67e94702bd5a5a9e15 OP_EQUALVERIFY OP_CHECKSIG",
            "hex": "76a914d0d8d98f64e5a71ccd906e67e94702bd5a5a9e1588ac",
            "reqSigs": 1,
            "type": "pubkeyhash",
            "addresses": [
              "LeGEb73gcCxJ3UMVx69m8NEhUggMyAdGwT"
            ]
          }
        }, 
        {
          "value": 0.00941400,
          "n": 1,
          "scriptPubKey": {
            "asm": "OP_DUP OP_HASH160 f19eb6ecbac33f70455a0a4611e53922f957ef47 OP_EQUALVERIFY OP_CHECKSIG",
            "hex": "76a914f19eb6ecbac33f70455a0a4611e53922f957ef4788ac",
            "reqSigs": 1,
            "type": "pubkeyhash",
            "addresses": [
              "LhFXF8Agsr6s2g8LnpznKMFM3Bej2Q8sqh"
            ]
          }
        }
      ],
      "hex": "0100000001a79725f69e61d6fb4c4f59a1e1be6f85e9a3c7a2f5a3890375aecb8b68c8439c0d0000006b483045022100e93f162e362193c4db05a861648f60893d8054c9d204348d74833c75905e09cc022022b62cc793dc3e62e119974119f336b38b05f0b1966dcca2d11445759c64c41001210212d0edf04f4256123fd5bb29d2f287bf1c3831475a342902a1bb2d918bd34002ffffffff02609b1602000000001976a914d0d8d98f64e5a71ccd906e67e94702bd5a5a9e1588ac585d0e00000000001976a914f19eb6ecbac33f70455a0a4611e53922f957ef4788ac00000000"
    }, 
    {
      "txid": "cd4af7e688a898e84d0ad2d56e6e045d13e57d1b4dadefedb439a8646cab5ca0",
      "hash": "cd4af7e688a898e84d0ad2d56e6e045d13e57d1b4dadefedb439a8646cab5ca0",
      "version": 1,
      "size": 3295,
      "vsize": 3295,
      "locktime": 0,
      "vin": [
        {
          "txid": "cabe5f18cb1440fb6e2fae8c2842369400803fd7c144420a8f7267dd8d655e65",
          "vout": 0,
          "scriptSig": {
            "asm": "304402206ad46e6856aba8697ba9f0385ccdd6367767c64dd86e4e397c5d9d5aabbd798902203c511e423c5693d9e2d3d72c999a85a69325477ce3ba70228e7d341938cdeedd[ALL] 02dd029c463ac4301b33f6ffb2536b8832c88fb9146fa1f9c9034aa06d54001b58",
            "hex": "47304402206ad46e6856aba8697ba9f0385ccdd6367767c64dd86e4e397c5d9d5aabbd798902203c511e423c5693d9e2d3d72c999a85a69325477ce3ba70228e7d341938cdeedd012102dd029c463ac4301b33f6ffb2536b8832c88fb9146fa1f9c9034aa06d54001b58"
          },
          "sequence": 4294967295
        }, 
        {
          "txid": "f56d8949cd71e73142167cf12e35d4329daeb2ae10e368e51427565c58f466df",
          "vout": 1,
          "scriptSig": {
            "asm": "3045022100d530320880e41f1da239c90b43e4308ecdb624feede39911cd077e682f09dd1d02207a7cb444f199115ac342ac4d6937ebce87def23301409b13af72c1a04a78572a[ALL] 03ef293269e65f1b82231f19ad02a0776428fe1137fbec843fcc2e5bab7538fd68",
            "hex": "483045022100d530320880e41f1da239c90b43e4308ecdb624feede39911cd077e682f09dd1d02207a7cb444f199115ac342ac4d6937ebce87def23301409b13af72c1a04a78572a012103ef293269e65f1b82231f19ad02a0776428fe1137fbec843fcc2e5bab7538fd68"
          },
          "sequence": 4294967295
        }, 
        {
          "txid": "1b837e660fe3633236cf285ec86d7461b38f0180b411d7c51c9e2fef724e712a",
          "vout": 0,
          "scriptSig": {
            "asm": "304402206f985018bc3a498bf1d3aa82029e2ba01891693b53dadefe23cce538737105e8022037b00a440343aaa43096438b44d215f3a058bc1eff633cd02f7b971c8dd5efe9[ALL] 03a8840aac50b212e3030acd59d03fe93c515d564b8d7b47536910a187352a4249",
            "hex": "47304402206f985018bc3a498bf1d3aa82029e2ba01891693b53dadefe23cce538737105e8022037b00a440343aaa43096438b44d215f3a058bc1eff633cd02f7b971c8dd5efe9012103a8840aac50b212e3030acd59d03fe93c515d564b8d7b47536910a187352a4249"
          },
          "sequence": 4294967295
        }, 
        {
          "txid": "4d97fb0cb0914df054c0d5b6509d9d6adfdf8f2166b83dd42968d4c9522a1e0f",
          "vout": 0,
          "scriptSig": {
            "asm": "3045022100b4fa4e5ea19fd699d7a2c915c882a68401182d63b94346d3dff123cfda8cf0ea022003524dd5404403a4a3568b9f7d949fd9ad535606b81b36508d71778c7d1953cc[ALL] 029951197ae1935d1e2ed3c6613f528caa0f061f6cf1ada20b5a70af095d013a30",
            "hex": "483045022100b4fa4e5ea19fd699d7a2c915c882a68401182d63b94346d3dff123cfda8cf0ea022003524dd5404403a4a3568b9f7d949fd9ad535606b81b36508d71778c7d1953cc0121029951197ae1935d1e2ed3c6613f528caa0f061f6cf1ada20b5a70af095d013a30"
          },
          "sequence": 4294967295
        }, 
        {
          "txid": "5f6e90d9b551351f061ee46030c5761cc33aa95e8290364d4d0eb7d98b4da4cc",
          "vout": 1,
          "scriptSig": {
            "asm": "3045022100f6b5b3d86709d08f276e7fa651aa0f01095fe729baca5ebffc400532d29ef0c302202c5deffd4befcd7ec7adb1279edddd63faf2749dff989849317417d740ff6f46[ALL] 039d9ab0a9f32dd26fc404b314d68fd2eae3e6f1aea61efdc9dd59a96872a6c4bb",
            "hex": "483045022100f6b5b3d86709d08f276e7fa651aa0f01095fe729baca5ebffc400532d29ef0c302202c5deffd4befcd7ec7adb1279edddd63faf2749dff989849317417d740ff6f460121039d9ab0a9f32dd26fc404b314d68fd2eae3e6f1aea61efdc9dd59a96872a6c4bb"
          },
          "sequence": 4294967295
        }, 
        {
          "txid": "ddf65f221523d99e116fc695c5ee81dcbd77fff45f65ec2fda92b8b9f15b6116",
          "vout": 0,
          "scriptSig": {
            "asm": "304502210094819314187febc2a2e6c899080a86585d3d397bc03f110808caebf275539ed902203a421f9160705f9531a5f8c87dbffa3a41dc6463ac1a1251db06a0439a9c2cc2[ALL] 034ed18f7865ea6d0e312e3ff30d827a7d5fa7ce1d7b537ddf471b81d6d4610ac4",
            "hex": "48304502210094819314187febc2a2e6c899080a86585d3d397bc03f110808caebf275539ed902203a421f9160705f9531a5f8c87dbffa3a41dc6463ac1a1251db06a0439a9c2cc20121034ed18f7865ea6d0e312e3ff30d827a7d5fa7ce1d7b537ddf471b81d6d4610ac4"
          },
          "sequence": 4294967295
        }, 
        {
          "txid": "665cf48a3be879fa5733bdbfa53224eacdb6833e2469511a69181fd4d3fcbd76",
          "vout": 7,
          "scriptSig": {
            "asm": "3045022100e7a05d7c014a65d1a00c686bce5f3908ab52d5c3f02f37b70e398c594b16c1c6022014b8a9b33dd6756b7c4bed4315292cf170ad1c5b7e76f02845d4983a8e8a20ce[ALL] 029951197ae1935d1e2ed3c6613f528caa0f061f6cf1ada20b5a70af095d013a30",
            "hex": "483045022100e7a05d7c014a65d1a00c686bce5f3908ab52d5c3f02f37b70e398c594b16c1c6022014b8a9b33dd6756b7c4bed4315292cf170ad1c5b7e76f02845d4983a8e8a20ce0121029951197ae1935d1e2ed3c6613f528caa0f061f6cf1ada20b5a70af095d013a30"
          },
          "sequence": 4294967295
        }, 
        {
          "txid": "21a0d9cfc09d7060a1bd8daeab0e69fd7ec724429e0fa095be23bc676593d0c8",
          "vout": 6,
          "scriptSig": {
            "asm": "30440220715ad36147a6534154824eeeacfd013c97c808efcabec43cbb9d44d3bb4a50ad022014cc6ecf679e4b22a6c03bf178ab17a5d425714b7e58a9d5ed145777af140a58[ALL] 02daa6b03d5b3e9a4af978fc753872e86ffd2b8a4e66dd8844d6460f3d888ff43a",
            "hex": "4730440220715ad36147a6534154824eeeacfd013c97c808efcabec43cbb9d44d3bb4a50ad022014cc6ecf679e4b22a6c03bf178ab17a5d425714b7e58a9d5ed145777af140a58012102daa6b03d5b3e9a4af978fc753872e86ffd2b8a4e66dd8844d6460f3d888ff43a"
          },
          "sequence": 4294967295
        }, 
        {
          "txid": "90dc8c7e13073180d9bec8ae18f35f655f132a3bf1d0b3f362eebf77c408b456",
          "vout": 1,
          "scriptSig": {
            "asm": "3045022100e90b7f89c460dceef6ee6f4eb64557a165822c16344adfb4b29fa99f56b9203702200b422ebf858777ce149b7c4338bf9ce5dce57b6fe7e1523ee0cc256c3c3f1f8a[ALL] 03d7e5ec841aeda590fd9cd566b3b7c672a5e3d6887ce475515dcce78468e75e88",
            "hex": "483045022100e90b7f89c460dceef6ee6f4eb64557a165822c16344adfb4b29fa99f56b9203702200b422ebf858777ce149b7c4338bf9ce5dce57b6fe7e1523ee0cc256c3c3f1f8a012103d7e5ec841aeda590fd9cd566b3b7c672a5e3d6887ce475515dcce78468e75e88"
          },
          "sequence": 4294967295
        }, 
        {
          "txid": "6a3cda18e52de67eb1e18df9cd57dedd60c447e12f793e8fa78fad6aed990750",
          "vout": 0,
          "scriptSig": {
            "asm": "3044022070a550fe579aa6d5d3a0ef65d935546cd95e860f2bfc4c2eb4e97e69dc88ad360220036ca47cce1842e8b81b09915da33a60f831abb7a251e7abbb487efa37c11226[ALL] 032242f05f7e6072fdad57df42a05ec4ce2f8116cbfcfbed865faf8b06dd0fbaf3",
            "hex": "473044022070a550fe579aa6d5d3a0ef65d935546cd95e860f2bfc4c2eb4e97e69dc88ad360220036ca47cce1842e8b81b09915da33a60f831abb7a251e7abbb487efa37c112260121032242f05f7e6072fdad57df42a05ec4ce2f8116cbfcfbed865faf8b06dd0fbaf3"
          },
          "sequence": 4294967295
        }, 
        {
          "txid": "ae05e97c466b7150eb32553f5b0ba3314e82bdd53fe97b18e7bb33dc2f144065",
          "vout": 17,
          "scriptSig": {
            "asm": "3045022100e528d0608fd61ab69fd567b486812a0e24bc717b6496894c3798d68972e7479702203269c5ce9208eaa49203c47306d4791ce3f9a869ddbeac78b7163a35106c844a[ALL] 03e0c0ce143d2b953d4f4c677a9c66641d1ecaac64fe97afea89b7d5f7a198e19c",
            "hex": "483045022100e528d0608fd61ab69fd567b486812a0e24bc717b6496894c3798d68972e7479702203269c5ce9208eaa49203c47306d4791ce3f9a869ddbeac78b7163a35106c844a012103e0c0ce143d2b953d4f4c677a9c66641d1ecaac64fe97afea89b7d5f7a198e19c"
          },
          "sequence": 4294967295
        }, 
        {
          "txid": "6be7987d654dfff5cdaec3e3dc82f02806d09abd81cbea776d22db52a5b5a057",
          "vout": 0,
          "scriptSig": {
            "asm": "3045022100c6a187ceb49d8459f34d99217686d2196e5aa73cfe06f6986fa61eb2489e0c9402206eb4c0a9ea13c79db99788005ce679900454b533c6bda1d6a0de10d8ec76636c[ALL] 024410569bbd16bd41f6f905db1d618c1d2704552bc59e5616bc4ed18149884bfb",
            "hex": "483045022100c6a187ceb49d8459f34d99217686d2196e5aa73cfe06f6986fa61eb2489e0c9402206eb4c0a9ea13c79db99788005ce679900454b533c6bda1d6a0de10d8ec76636c0121024410569bbd16bd41f6f905db1d618c1d2704552bc59e5616bc4ed18149884bfb"
          },
          "sequence": 4294967295
        }, 
        {
          "txid": "6e83307b8f3d770b1a5e32d409f73412039de43bdd901b31a0a833c8f2ee28cb",
          "vout": 0,
          "scriptSig": {
            "asm": "3045022100cbd1fbb424133ecc0c4d767431e48fbf36ec92bdf64ef1dd6b1e36886302f61f022012a7e85216ea0a7c15e21dd8ddb893741eb4608bf9c06992a111dda97541666e[ALL] 0314522428312275126ac9758ec95f993e2dea93cdf077d3e6a16a92b929bcc681",
            "hex": "483045022100cbd1fbb424133ecc0c4d767431e48fbf36ec92bdf64ef1dd6b1e36886302f61f022012a7e85216ea0a7c15e21dd8ddb893741eb4608bf9c06992a111dda97541666e01210314522428312275126ac9758ec95f993e2dea93cdf077d3e6a16a92b929bcc681"
          },
          "sequence": 4294967295
        }, 
        {
          "txid": "c30feba6e389541c42bc180f6adb233d64b7c77b3d9d12b27c48afb8072d7781",
          "vout": 0,
          "scriptSig": {
            "asm": "3045022100a70a9e142ac9599dcdb523220d09088eeb3ac2d3e96245b4bf85c957479a811d022001fc82d4b392c0902c1b1f035637b414e6410548a0718f38429f821acf666a5f[ALL] 0280a28948c1537ec4b9a36bc069593547a400084d58d46bdea4ab4bebd7e4cc25",
            "hex": "483045022100a70a9e142ac9599dcdb523220d09088eeb3ac2d3e96245b4bf85c957479a811d022001fc82d4b392c0902c1b1f035637b414e6410548a0718f38429f821acf666a5f01210280a28948c1537ec4b9a36bc069593547a400084d58d46bdea4ab4bebd7e4cc25"
          },
          "sequence": 4294967295
        }, 
        {
          "txid": "7d913a5754628739d240519dfe567bc8e628f3ccf0911cae1ae4a44c819a529c",
          "vout": 1,
          "scriptSig": {
            "asm": "30450221009282d08ee983e4161b05d9dd6cbc4379a11587610ea4827d0612b4ec6109492e02206a915297de2ea3e4a18700c4a57aa2c76c263266686bf8d9f234c53349605c8c[ALL] 0394769c5cd30229b6a66bf8958345e6cd6b9db3cb0097c92a914e6983adadcaee",
            "hex": "4830450221009282d08ee983e4161b05d9dd6cbc4379a11587610ea4827d0612b4ec6109492e02206a915297de2ea3e4a18700c4a57aa2c76c263266686bf8d9f234c53349605c8c01210394769c5cd30229b6a66bf8958345e6cd6b9db3cb0097c92a914e6983adadcaee"
          },
          "sequence": 4294967295
        }, 
        {
          "txid": "7b37010d9977549ab9169517be6ef930ff4a18575962d6f951bf535548780507",
          "vout": 38,
          "scriptSig": {
            "asm": "3045022100da5e645eeb905c7cde773605f3212e234ec8292c32dae3dab0a40d73fe643d6d022041fe742ced351c0369f4b436c76ed43ae4c02cadc6b38034092f88dbb1df3a84[ALL] 03b17e3bed6f3103df4abbc7fe181620be440cd6a7e478c7c0704466fefc55b7e3",
            "hex": "483045022100da5e645eeb905c7cde773605f3212e234ec8292c32dae3dab0a40d73fe643d6d022041fe742ced351c0369f4b436c76ed43ae4c02cadc6b38034092f88dbb1df3a84012103b17e3bed6f3103df4abbc7fe181620be440cd6a7e478c7c0704466fefc55b7e3"
          },
          "sequence": 4294967295
        }, 
        {
          "txid": "941e4d190bdec360be91217b3b6106cfebe94b156e521c1ec6483f967540090e",
          "vout": 1,
          "scriptSig": {
            "asm": "3045022100ebc4d32b7ce62ba74c6b3ebc3d3f339b6f88fed7d1e47eef2a2071bf843b0b6202205346bb6d57077fde48ce79d50b75059c02b0224ae69dbd1e412eafa59ae11ec9[ALL] 03f075392105494053c437fbaa296f8638399b1dd5ae63f2a9ef81c4650dda5464",
            "hex": "483045022100ebc4d32b7ce62ba74c6b3ebc3d3f339b6f88fed7d1e47eef2a2071bf843b0b6202205346bb6d57077fde48ce79d50b75059c02b0224ae69dbd1e412eafa59ae11ec9012103f075392105494053c437fbaa296f8638399b1dd5ae63f2a9ef81c4650dda5464"
          },
          "sequence": 4294967295
        }, 
        {
          "txid": "66579474fd66136509cb4b570c3b2caa6d27874c2b7c807e1c95b75aca144f19",
          "vout": 50,
          "scriptSig": {
            "asm": "304502210091be2da78d3af7a0ad1a849a1f9b7f6c55937de05cbb9a5c85e735d4642b8b1d02205b4f60f02eae1d05602aa74764a39f0e523a994651d70a6eeab8036960e72a34[ALL] 029b0c602258e293d9c663d3e1aa61c616d79c1abd758e9fca6d38167040572944",
            "hex": "48304502210091be2da78d3af7a0ad1a849a1f9b7f6c55937de05cbb9a5c85e735d4642b8b1d02205b4f60f02eae1d05602aa74764a39f0e523a994651d70a6eeab8036960e72a340121029b0c602258e293d9c663d3e1aa61c616d79c1abd758e9fca6d38167040572944"
          },
          "sequence": 4294967295
        }, 
        {
          "txid": "f06be65c427358038e088599a0015ff6f1c942c9087b91f8cf4517a237aeb4e6",
          "vout": 0,
          "scriptSig": {
            "asm": "3045022100da580face3cfd1f46dbbfd412550f252bfe85f39ec59c7dfebd17c17bef7e5d7022024e01131c5b28a86dd9bcc0a56aa8158399205194a71cf3a8757e5c069eb988a[ALL] 032242f05f7e6072fdad57df42a05ec4ce2f8116cbfcfbed865faf8b06dd0fbaf3",
            "hex": "483045022100da580face3cfd1f46dbbfd412550f252bfe85f39ec59c7dfebd17c17bef7e5d7022024e01131c5b28a86dd9bcc0a56aa8158399205194a71cf3a8757e5c069eb988a0121032242f05f7e6072fdad57df42a05ec4ce2f8116cbfcfbed865faf8b06dd0fbaf3"
          },
          "sequence": 4294967295
        }, 
        {
          "txid": "d19d13e4a1596be426533f684005afef38204d05304425eaec74970c44062695",
          "vout": 0,
          "scriptSig": {
            "asm": "304402204a1cc74f700dc682289867d0ed77d6c18d2d1137f24b6541427ada0c9881eacd02201fac8dcdb2d1cdbf2e490e1cefaa553bacefe9a74013b5ffadd08ea564c38d70[ALL] 0381cb18d06f0ed84c78fbfe49cfc9900d8daf0c9f519876ec9f2d6777677c0eee",
            "hex": "47304402204a1cc74f700dc682289867d0ed77d6c18d2d1137f24b6541427ada0c9881eacd02201fac8dcdb2d1cdbf2e490e1cefaa553bacefe9a74013b5ffadd08ea564c38d7001210381cb18d06f0ed84c78fbfe49cfc9900d8daf0c9f519876ec9f2d6777677c0eee"
          },
          "sequence": 4294967295
        }, 
        {
          "txid": "665cf48a3be879fa5733bdbfa53224eacdb6833e2469511a69181fd4d3fcbd76",
          "vout": 23,
          "scriptSig": {
            "asm": "3045022100cfe53da3264710ac50d486375562991f17eee79fb5e60502c20f688ab81ded0b02204189e2f5c30c714055af61f891c3679a9b28808a40fbbfd6186ef9bfa5589f94[ALL] 02c8fc69649c537878c7561985bbe62ecedc7ddc2f5dbbde928d392763d3f96625",
            "hex": "483045022100cfe53da3264710ac50d486375562991f17eee79fb5e60502c20f688ab81ded0b02204189e2f5c30c714055af61f891c3679a9b28808a40fbbfd6186ef9bfa5589f94012102c8fc69649c537878c7561985bbe62ecedc7ddc2f5dbbde928d392763d3f96625"
          },
          "sequence": 4294967295
        }, 
        {
          "txid": "f5a8b8e9e69ebb6d8b5dd61d144ddfa7ba0f6ecba819439e126c59838341a45e",
          "vout": 1,
          "scriptSig": {
            "asm": "3045022100c00516cdeaf4c176d5e0fc3248f97b09eb31ba91cfc401426c97126a3656025002202c8917f9822a2e44f0c57f2e8a02c31a284d033058474853a0024c3bdf423297[ALL] 038ed790be4e5e382489a747910a8b059cea7109002bd4a3667ecc74e046beec0e",
            "hex": "483045022100c00516cdeaf4c176d5e0fc3248f97b09eb31ba91cfc401426c97126a3656025002202c8917f9822a2e44f0c57f2e8a02c31a284d033058474853a0024c3bdf4232970121038ed790be4e5e382489a747910a8b059cea7109002bd4a3667ecc74e046beec0e"
          },
          "sequence": 4294967295
        }
      ],
      "vout": [
        {
          "value": 20.42846608,
          "n": 0,
          "scriptPubKey": {
            "asm": "OP_DUP OP_HASH160 6c2614c7b45ef8dfa8dc83e6739ddbe201d05ab0 OP_EQUALVERIFY OP_CHECKSIG",
            "hex": "76a9146c2614c7b45ef8dfa8dc83e6739ddbe201d05ab088ac",
            "reqSigs": 1,
            "type": "pubkeyhash",
            "addresses": [
              "LV5nrreyVZJVvptA9PZSD4ViegKh7Qa8MA"
            ]
          }
        }
      ],
      "hex": "0100000016655e658ddd67728f0a4244c1d73f8000943642288cae2f6efb4014cb185fbeca000000006a47304402206ad46e6856aba8697ba9f0385ccdd6367767c64dd86e4e397c5d9d5aabbd798902203c511e423c5693d9e2d3d72c999a85a69325477ce3ba70228e7d341938cdeedd012102dd029c463ac4301b33f6ffb2536b8832c88fb9146fa1f9c9034aa06d54001b58ffffffffdf66f4585c562714e568e310aeb2ae9d32d4352ef17c164231e771cd49896df5010000006b483045022100d530320880e41f1da239c90b43e4308ecdb624feede39911cd077e682f09dd1d02207a7cb444f199115ac342ac4d6937ebce87def23301409b13af72c1a04a78572a012103ef293269e65f1b82231f19ad02a0776428fe1137fbec843fcc2e5bab7538fd68ffffffff2a714e72ef2f9e1cc5d711b480018fb361746dc85e28cf363263e30f667e831b000000006a47304402206f985018bc3a498bf1d3aa82029e2ba01891693b53dadefe23cce538737105e8022037b00a440343aaa43096438b44d215f3a058bc1eff633cd02f7b971c8dd5efe9012103a8840aac50b212e3030acd59d03fe93c515d564b8d7b47536910a187352a4249ffffffff0f1e2a52c9d46829d43db866218fdfdf6a9d9d50b6d5c054f04d91b00cfb974d000000006b483045022100b4fa4e5ea19fd699d7a2c915c882a68401182d63b94346d3dff123cfda8cf0ea022003524dd5404403a4a3568b9f7d949fd9ad535606b81b36508d71778c7d1953cc0121029951197ae1935d1e2ed3c6613f528caa0f061f6cf1ada20b5a70af095d013a30ffffffffcca44d8bd9b70e4d4d3690825ea93ac31c76c53060e41e061f3551b5d9906e5f010000006b483045022100f6b5b3d86709d08f276e7fa651aa0f01095fe729baca5ebffc400532d29ef0c302202c5deffd4befcd7ec7adb1279edddd63faf2749dff989849317417d740ff6f460121039d9ab0a9f32dd26fc404b314d68fd2eae3e6f1aea61efdc9dd59a96872a6c4bbffffffff16615bf1b9b892da2fec655ff4ff77bddc81eec595c66f119ed92315225ff6dd000000006b48304502210094819314187febc2a2e6c899080a86585d3d397bc03f110808caebf275539ed902203a421f9160705f9531a5f8c87dbffa3a41dc6463ac1a1251db06a0439a9c2cc20121034ed18f7865ea6d0e312e3ff30d827a7d5fa7ce1d7b537ddf471b81d6d4610ac4ffffffff76bdfcd3d41f18691a5169243e83b6cdea2432a5bfbd3357fa79e83b8af45c66070000006b483045022100e7a05d7c014a65d1a00c686bce5f3908ab52d5c3f02f37b70e398c594b16c1c6022014b8a9b33dd6756b7c4bed4315292cf170ad1c5b7e76f02845d4983a8e8a20ce0121029951197ae1935d1e2ed3c6613f528caa0f061f6cf1ada20b5a70af095d013a30ffffffffc8d0936567bc23be95a00f9e4224c77efd690eabae8dbda160709dc0cfd9a021060000006a4730440220715ad36147a6534154824eeeacfd013c97c808efcabec43cbb9d44d3bb4a50ad022014cc6ecf679e4b22a6c03bf178ab17a5d425714b7e58a9d5ed145777af140a58012102daa6b03d5b3e9a4af978fc753872e86ffd2b8a4e66dd8844d6460f3d888ff43affffffff56b408c477bfee62f3b3d0f13b2a135f655ff318aec8bed9803107137e8cdc90010000006b483045022100e90b7f89c460dceef6ee6f4eb64557a165822c16344adfb4b29fa99f56b9203702200b422ebf858777ce149b7c4338bf9ce5dce57b6fe7e1523ee0cc256c3c3f1f8a012103d7e5ec841aeda590fd9cd566b3b7c672a5e3d6887ce475515dcce78468e75e88ffffffff500799ed6aad8fa78f3e792fe147c460ddde57cdf98de1b17ee62de518da3c6a000000006a473044022070a550fe579aa6d5d3a0ef65d935546cd95e860f2bfc4c2eb4e97e69dc88ad360220036ca47cce1842e8b81b09915da33a60f831abb7a251e7abbb487efa37c112260121032242f05f7e6072fdad57df42a05ec4ce2f8116cbfcfbed865faf8b06dd0fbaf3ffffffff6540142fdc33bbe7187be93fd5bd824e31a30b5b3f5532eb50716b467ce905ae110000006b483045022100e528d0608fd61ab69fd567b486812a0e24bc717b6496894c3798d68972e7479702203269c5ce9208eaa49203c47306d4791ce3f9a869ddbeac78b7163a35106c844a012103e0c0ce143d2b953d4f4c677a9c66641d1ecaac64fe97afea89b7d5f7a198e19cffffffff57a0b5a552db226d77eacb81bd9ad00628f082dce3c3aecdf5ff4d657d98e76b000000006b483045022100c6a187ceb49d8459f34d99217686d2196e5aa73cfe06f6986fa61eb2489e0c9402206eb4c0a9ea13c79db99788005ce679900454b533c6bda1d6a0de10d8ec76636c0121024410569bbd16bd41f6f905db1d618c1d2704552bc59e5616bc4ed18149884bfbffffffffcb28eef2c833a8a0311b90dd3be49d031234f709d4325e1a0b773d8f7b30836e000000006b483045022100cbd1fbb424133ecc0c4d767431e48fbf36ec92bdf64ef1dd6b1e36886302f61f022012a7e85216ea0a7c15e21dd8ddb893741eb4608bf9c06992a111dda97541666e01210314522428312275126ac9758ec95f993e2dea93cdf077d3e6a16a92b929bcc681ffffffff81772d07b8af487cb2129d3d7bc7b7643d23db6a0f18bc421c5489e3a6eb0fc3000000006b483045022100a70a9e142ac9599dcdb523220d09088eeb3ac2d3e96245b4bf85c957479a811d022001fc82d4b392c0902c1b1f035637b414e6410548a0718f38429f821acf666a5f01210280a28948c1537ec4b9a36bc069593547a400084d58d46bdea4ab4bebd7e4cc25ffffffff9c529a814ca4e41aae1c91f0ccf328e6c87b56fe9d5140d239876254573a917d010000006b4830450221009282d08ee983e4161b05d9dd6cbc4379a11587610ea4827d0612b4ec6109492e02206a915297de2ea3e4a18700c4a57aa2c76c263266686bf8d9f234c53349605c8c01210394769c5cd30229b6a66bf8958345e6cd6b9db3cb0097c92a914e6983adadcaeeffffffff070578485553bf51f9d6625957184aff30f96ebe179516b99a5477990d01377b260000006b483045022100da5e645eeb905c7cde773605f3212e234ec8292c32dae3dab0a40d73fe643d6d022041fe742ced351c0369f4b436c76ed43ae4c02cadc6b38034092f88dbb1df3a84012103b17e3bed6f3103df4abbc7fe181620be440cd6a7e478c7c0704466fefc55b7e3ffffffff0e094075963f48c61e1c526e154be9ebcf06613b7b2191be60c3de0b194d1e94010000006b483045022100ebc4d32b7ce62ba74c6b3ebc3d3f339b6f88fed7d1e47eef2a2071bf843b0b6202205346bb6d57077fde48ce79d50b75059c02b0224ae69dbd1e412eafa59ae11ec9012103f075392105494053c437fbaa296f8638399b1dd5ae63f2a9ef81c4650dda5464ffffffff194f14ca5ab7951c7e807c2b4c87276daa2c3b0c574bcb09651366fd74945766320000006b48304502210091be2da78d3af7a0ad1a849a1f9b7f6c55937de05cbb9a5c85e735d4642b8b1d02205b4f60f02eae1d05602aa74764a39f0e523a994651d70a6eeab8036960e72a340121029b0c602258e293d9c663d3e1aa61c616d79c1abd758e9fca6d38167040572944ffffffffe6b4ae37a21745cff8917b08c942c9f1f65f01a09985088e035873425ce66bf0000000006b483045022100da580face3cfd1f46dbbfd412550f252bfe85f39ec59c7dfebd17c17bef7e5d7022024e01131c5b28a86dd9bcc0a56aa8158399205194a71cf3a8757e5c069eb988a0121032242f05f7e6072fdad57df42a05ec4ce2f8116cbfcfbed865faf8b06dd0fbaf3ffffffff952606440c9774ecea254430054d2038efaf0540683f5326e46b59a1e4139dd1000000006a47304402204a1cc74f700dc682289867d0ed77d6c18d2d1137f24b6541427ada0c9881eacd02201fac8dcdb2d1cdbf2e490e1cefaa553bacefe9a74013b5ffadd08ea564c38d7001210381cb18d06f0ed84c78fbfe49cfc9900d8daf0c9f519876ec9f2d6777677c0eeeffffffff76bdfcd3d41f18691a5169243e83b6cdea2432a5bfbd3357fa79e83b8af45c66170000006b483045022100cfe53da3264710ac50d486375562991f17eee79fb5e60502c20f688ab81ded0b02204189e2f5c30c714055af61f891c3679a9b28808a40fbbfd6186ef9bfa5589f94012102c8fc69649c537878c7561985bbe62ecedc7ddc2f5dbbde928d392763d3f96625ffffffff5ea4418383596c129e4319a8cb6e0fbaa7df4d141dd65d8b6dbb9ee6e9b8a8f5010000006b483045022100c00516cdeaf4c176d5e0fc3248f97b09eb31ba91cfc401426c97126a3656025002202c8917f9822a2e44f0c57f2e8a02c31a284d033058474853a0024c3bdf4232970121038ed790be4e5e382489a747910a8b059cea7109002bd4a3667ecc74e046beec0effffffff01905dc379000000001976a9146c2614c7b45ef8dfa8dc83e6739ddbe201d05ab088ac00000000"
    }
  ],
  "time": 1517298000,
  "mediantime": 1517297247,
  "nonce": 2169359238,
  "bits": "1a042eae",
  "difficulty": 4011378.762614286,
  "chainwork": "0000000000000000000000000000000000000000000000341cc167f902717d84",
  "previousblockhash": "17999ecd394f289866d1dee99e3a324f7be7f86f207639b192a8ba2236b1de82",
  "nextblockhash": "a9a58fa4f6ce9e40c645805097a1a2ee692307f2d3195be174fda5bdce4efc19"
}
