{
  "hash": "ec5925538f324eedba81f5078e99b9eff308b5759a4bcaae27fd66c2d2f51201",
  "confirmations": 138,
  "strippedsize": 2769,
  "size": 2805,
  "weight": 11112,
  "height": 1360856,
  "version": 536870912,
  "versionHex": "20000000",
  "merkleroot": "27616f108c963d09a6d0e4fc4456c41d4a05ba2fb44d9e22cb3b6254581000c2",
  "tx": [
    {
      "txid": "2ea84c66bec5a03183b5e13970015c95780273833819bac096169dcddbc31ef3",
      "hash": "8b4be0992f0cf59a976748ee63d42adc5086be21ee77f15674794508e704f309",
      "version": 1,
      "size": 277,
      "vsize": 250,
      "locktime": 949816985,
      "vin": [
        {
          "coinbase": "03d8c3142cfabe6d6d27ad5e448301b72b25ecd814bab09141fa4aa4e1088692021194eaa4304cabd108000000f09f909f0d4d696e6564206279206c696e7000000000000000000000000000000000000000000000000000000000000000000000000000",
          "sequence": 4
        }
      ],
      "vout": [
        {
          "value": 25.00326000,
          "n": 0,
          "scriptPubKey": {
            "asm": "OP_DUP OP_HASH160 aa3750aa18b8a0f3f0590731e1fab934856680cf OP_EQUALVERIFY OP_CHECKSIG",
            "hex": "76a914aa3750aa18b8a0f3f0590731e1fab934856680cf88ac",
            "reqSigs": 1,
            "type": "pubkeyhash",
            "addresses": [
              "LajyQBeZaBA1NkZDeY8YT5RYYVRkXMvb2T"
            ]
          }
        }, 
        {
          "value": 0.00000000,
          "n": 1,
          "scriptPubKey": {
            "asm": "OP_RETURN aa21a9ed07e1d16974eda4d3b8957ab7b1014a53624b0fefe031a5aa96c557e9064ba461 0000000000000000",
            "hex": "6a24aa21a9ed07e1d16974eda4d3b8957ab7b1014a53624b0fefe031a5aa96c557e9064ba461080000000000000000",
            "type": "nulldata"
          }
        }
      ],
      "hex": "010000000001010000000000000000000000000000000000000000000000000000000000000000ffffffff6403d8c3142cfabe6d6d27ad5e448301b72b25ecd814bab09141fa4aa4e1088692021194eaa4304cabd108000000f09f909f0d4d696e6564206279206c696e7000000000000000000000000000000000000000000000000000000000000000000000000000040000000270f20795000000001976a914aa3750aa18b8a0f3f0590731e1fab934856680cf88ac00000000000000002f6a24aa21a9ed07e1d16974eda4d3b8957ab7b1014a53624b0fefe031a5aa96c557e9064ba46108000000000000000001200000000000000000000000000000000000000000000000000000000000000000990e9d38"
    }, 
    {
      "txid": "bec8d1ae4b25cee0e68b89380e8ffaa50057d576f27be3694eea8c066e09daee",
      "hash": "bec8d1ae4b25cee0e68b89380e8ffaa50057d576f27be3694eea8c066e09daee",
      "version": 1,
      "size": 191,
      "vsize": 191,
      "locktime": 0,
      "vin": [
        {
          "txid": "8e9480b72ce76ea8e9f96d9c55ef6ca22ea41e1461f81eb6a9947a08a3a1ac9a",
          "vout": 3,
          "scriptSig": {
            "asm": "3044022025cecde59168e6fced6222661ae5c4736e80dc8e23b6024d6fdaccf0877ee43e02200826f88f604683def4c87bed87d172836725a86831d6382f01a38e57a6b7a0ee[ALL] 02fd7f60fe63e976dfe5ec427e09eb60f1adad1053b269fe7e86a670893eec307d",
            "hex": "473044022025cecde59168e6fced6222661ae5c4736e80dc8e23b6024d6fdaccf0877ee43e02200826f88f604683def4c87bed87d172836725a86831d6382f01a38e57a6b7a0ee012102fd7f60fe63e976dfe5ec427e09eb60f1adad1053b269fe7e86a670893eec307d"
          },
          "sequence": 4294967295
        }
      ],
      "vout": [
        {
          "value": 22.49900000,
          "n": 0,
          "scriptPubKey": {
            "asm": "OP_DUP OP_HASH160 cbcbc3391e9e9f345916932887805d5742448d05 OP_EQUALVERIFY OP_CHECKSIG",
            "hex": "76a914cbcbc3391e9e9f345916932887805d5742448d0588ac",
            "reqSigs": 1,
            "type": "pubkeyhash",
            "addresses": [
              "LdoXXpxBVjn3B5LSMCf85nD1wtVPWK81Rx"
            ]
          }
        }
      ],
      "hex": "01000000019aaca1a3087a94a9b61ef861141ea42ea26cef559c6df9e9a86ee72cb780948e030000006a473044022025cecde59168e6fced6222661ae5c4736e80dc8e23b6024d6fdaccf0877ee43e02200826f88f604683def4c87bed87d172836725a86831d6382f01a38e57a6b7a0ee012102fd7f60fe63e976dfe5ec427e09eb60f1adad1053b269fe7e86a670893eec307dffffffff01e0bf1a86000000001976a914cbcbc3391e9e9f345916932887805d5742448d0588ac00000000"
    }, 
    {
      "txid": "8c5fccae0a5bd7a6638f98bbe294a15d945fe7ad6d33a5ba16e33f2fecbd996c",
      "hash": "8c5fccae0a5bd7a6638f98bbe294a15d945fe7ad6d33a5ba16e33f2fecbd996c",
      "version": 1,
      "size": 225,
      "vsize": 225,
      "locktime": 0,
      "vin": [
        {
          "txid": "a0b7b10b4d309d8a4008a5c59745462e7919becfba1581a008ea2abf945d568b",
          "vout": 24,
          "scriptSig": {
            "asm": "304402202205ee20a86eace35a9fbc84b13c28a9bea6c63874043c66a3484b32c14f647602207d6128fd0912d3fc07dbd32f63ca4b6e92673b5895265bd0121e2952e4117313[ALL] 036da7ba67a657bfdcb75e389f41f8aab5b6023dea4241fee64418e6a54f01ab54",
            "hex": "47304402202205ee20a86eace35a9fbc84b13c28a9bea6c63874043c66a3484b32c14f647602207d6128fd0912d3fc07dbd32f63ca4b6e92673b5895265bd0121e2952e41173130121036da7ba67a657bfdcb75e389f41f8aab5b6023dea4241fee64418e6a54f01ab54"
          },
          "sequence": 4294967295
        }
      ],
      "vout": [
        {
          "value": 6.50000000,
          "n": 0,
          "scriptPubKey": {
            "asm": "OP_DUP OP_HASH160 6d37843dbc23e68d59e18f613ad45381474e2a97 OP_EQUALVERIFY OP_CHECKSIG",
            "hex": "76a9146d37843dbc23e68d59e18f613ad45381474e2a9788ac",
            "reqSigs": 1,
            "type": "pubkeyhash",
            "addresses": [
              "LVBSRUs736U8zw1aGfgPktTGmaRwzU6bjx"
            ]
          }
        }, 
        {
          "value": 0.57268400,
          "n": 1,
          "scriptPubKey": {
            "asm": "OP_DUP OP_HASH160 6b0adcc23c324923e7994328d92be62f78c8d17e OP_EQUALVERIFY OP_CHECKSIG",
            "hex": "76a9146b0adcc23c324923e7994328d92be62f78c8d17e88ac",
            "reqSigs": 1,
            "type": "pubkeyhash",
            "addresses": [
              "LUywaU4akR1r5HmwK4MB6PcxAp9SS9ryHc"
            ]
          }
        }
      ],
      "hex": "01000000018b565d94bf2aea08a08115bacfbe19792e464597c5a508408a9d304d0bb1b7a0180000006a47304402202205ee20a86eace35a9fbc84b13c28a9bea6c63874043c66a3484b32c14f647602207d6128fd0912d3fc07dbd32f63ca4b6e92673b5895265bd0121e2952e41173130121036da7ba67a657bfdcb75e389f41f8aab5b6023dea4241fee64418e6a54f01ab54ffffffff028036be26000000001976a9146d37843dbc23e68d59e18f613ad45381474e2a9788acb0d86903000000001976a9146b0adcc23c324923e7994328d92be62f78c8d17e88ac00000000"
    }, 
    {
      "txid": "0f08be42095954ae6cea9796365beff9acde00d57caf048b7e10ce86404ca3b1",
      "hash": "0f08be42095954ae6cea9796365beff9acde00d57caf048b7e10ce86404ca3b1",
      "version": 2,
      "size": 225,
      "vsize": 225,
      "locktime": 1360804,
      "vin": [
        {
          "txid": "b76ab25f7dce673422700bab4f4b9905e15525001d89355eab3a908bac766b1e",
          "vout": 0,
          "scriptSig": {
            "asm": "30440220464ab27a86f33cacb87f28ef4fd65dad78e011e4da94bafcc54f8926a47b978c02200bf32f8da9c6772ac4a301f54b4f3fa2317bf81195499adcd8dc03ccaece1703[ALL] 02d7ade20e87c7f1e5237749ba03b853071ae439db516a07975bf6c7c7dd06eece",
            "hex": "4730440220464ab27a86f33cacb87f28ef4fd65dad78e011e4da94bafcc54f8926a47b978c02200bf32f8da9c6772ac4a301f54b4f3fa2317bf81195499adcd8dc03ccaece1703012102d7ade20e87c7f1e5237749ba03b853071ae439db516a07975bf6c7c7dd06eece"
          },
          "sequence": 4294967294
        }
      ],
      "vout": [
        {
          "value": 0.99900000,
          "n": 0,
          "scriptPubKey": {
            "asm": "OP_DUP OP_HASH160 6cad9788ebc5bd4812f495fbab83e3ea8f0274ce OP_EQUALVERIFY OP_CHECKSIG",
            "hex": "76a9146cad9788ebc5bd4812f495fbab83e3ea8f0274ce88ac",
            "reqSigs": 1,
            "type": "pubkeyhash",
            "addresses": [
              "LV8bCJuvkRxbdHWLRKchiCedH8RbyUyBGQ"
            ]
          }
        }, 
        {
          "value": 1.14447754,
          "n": 1,
          "scriptPubKey": {
            "asm": "OP_DUP OP_HASH160 b38d1847fecfafbb0a8330984e0a1b030dfd3476 OP_EQUALVERIFY OP_CHECKSIG",
            "hex": "76a914b38d1847fecfafbb0a8330984e0a1b030dfd347688ac",
            "reqSigs": 1,
            "type": "pubkeyhash",
            "addresses": [
              "LbbLEzXNGPPa3WjVZnkEbCSZ9ZyQVpYnKQ"
            ]
          }
        }
      ],
      "hex": "02000000011e6b76ac8b903aab5e35891d002555e105994b4fab0b70223467ce7d5fb26ab7000000006a4730440220464ab27a86f33cacb87f28ef4fd65dad78e011e4da94bafcc54f8926a47b978c02200bf32f8da9c6772ac4a301f54b4f3fa2317bf81195499adcd8dc03ccaece1703012102d7ade20e87c7f1e5237749ba03b853071ae439db516a07975bf6c7c7dd06eecefeffffff02605af405000000001976a9146cad9788ebc5bd4812f495fbab83e3ea8f0274ce88ac8a55d206000000001976a914b38d1847fecfafbb0a8330984e0a1b030dfd347688aca4c31400"
    }, 
    {
      "txid": "a70426bdbc738a9896ebf69fa0cb18db1895fcac03a7eac5df284cab66274ecf",
      "hash": "a70426bdbc738a9896ebf69fa0cb18db1895fcac03a7eac5df284cab66274ecf",
      "version": 1,
      "size": 225,
      "vsize": 225,
      "locktime": 0,
      "vin": [
        {
          "txid": "bd5ac6dea07dff89db3c996c6c464f21f60d1e5095a41f5b1d774841336d0d6b",
          "vout": 1,
          "scriptSig": {
            "asm": "3044022050b8e558c6c083db425f3fd1baa5a6058905fc6ff98799e02cdd4883af0104d30220420c87712913da8abf60a9ebe69c60ea4411b816229bfbc65e33512c3463f9ee[ALL] 03de27bbddceac1ad53363eb1053b4483f66d05df69aa300d21a879bd3531f8f77",
            "hex": "473044022050b8e558c6c083db425f3fd1baa5a6058905fc6ff98799e02cdd4883af0104d30220420c87712913da8abf60a9ebe69c60ea4411b816229bfbc65e33512c3463f9ee012103de27bbddceac1ad53363eb1053b4483f66d05df69aa300d21a879bd3531f8f77"
          },
          "sequence": 4294967295
        }
      ],
      "vout": [
        {
          "value": 0.00060842,
          "n": 0,
          "scriptPubKey": {
            "asm": "OP_DUP OP_HASH160 4408d129d6b3885cb50dc2577d4cca4a5870663f OP_EQUALVERIFY OP_CHECKSIG",
            "hex": "76a9144408d129d6b3885cb50dc2577d4cca4a5870663f88ac",
            "reqSigs": 1,
            "type": "pubkeyhash",
            "addresses": [
              "LRRgmsnkHgNfJZrvaMAx8NTgXvof5Gzwg6"
            ]
          }
        }, 
        {
          "value": 0.01000000,
          "n": 1,
          "scriptPubKey": {
            "asm": "OP_DUP OP_HASH160 1e27a551a2bac0eb9f0508cf0ef0453a26df218a OP_EQUALVERIFY OP_CHECKSIG",
            "hex": "76a9141e27a551a2bac0eb9f0508cf0ef0453a26df218a88ac",
            "reqSigs": 1,
            "type": "pubkeyhash",
            "addresses": [
              "LMyQ2c2nvTXApTL8sx8wLcdmxhDwn36G4D"
            ]
          }
        }
      ],
      "hex": "01000000016b0d6d334148771d5b1fa495501e0df6214f466c6c993cdb89ff7da0dec65abd010000006a473044022050b8e558c6c083db425f3fd1baa5a6058905fc6ff98799e02cdd4883af0104d30220420c87712913da8abf60a9ebe69c60ea4411b816229bfbc65e33512c3463f9ee012103de27bbddceac1ad53363eb1053b4483f66d05df69aa300d21a879bd3531f8f77ffffffff02aaed0000000000001976a9144408d129d6b3885cb50dc2577d4cca4a5870663f88ac40420f00000000001976a9141e27a551a2bac0eb9f0508cf0ef0453a26df218a88ac00000000"
    }, 
    {
      "txid": "7a6a0c88d8f87df4c8444b24a0af62d0d5642b3e75bb49341942ecdd6a2d70e9",
      "hash": "7a6a0c88d8f87df4c8444b24a0af62d0d5642b3e75bb49341942ecdd6a2d70e9",
      "version": 2,
      "size": 225,
      "vsize": 225,
      "locktime": 1360854,
      "vin": [
        {
          "txid": "005a7e6ae758bfaba003433c5a27577ae25c945b0a83b68fd46f73170189a645",
          "vout": 0,
          "scriptSig": {
            "asm": "304402204274e1dedbc529a110b657533d4ff5b6881158d99c8ff243fad0940452da625402204bf8ad49137d71016e616b073763df4cff5bfbde1580d46c13430887a591fe5e[ALL] 0364bed65d5ee278a18aaaa0cdac75a10df69745ddd6a8e7e61521d9dacc85af87",
            "hex": "47304402204274e1dedbc529a110b657533d4ff5b6881158d99c8ff243fad0940452da625402204bf8ad49137d71016e616b073763df4cff5bfbde1580d46c13430887a591fe5e01210364bed65d5ee278a18aaaa0cdac75a10df69745ddd6a8e7e61521d9dacc85af87"
          },
          "sequence": 4294967294
        }
      ],
      "vout": [
        {
          "value": 0.80092851,
          "n": 0,
          "scriptPubKey": {
            "asm": "OP_DUP OP_HASH160 fc0b83f9572c16baedd6cf7d7fef1ac0d789f196 OP_EQUALVERIFY OP_CHECKSIG",
            "hex": "76a914fc0b83f9572c16baedd6cf7d7fef1ac0d789f19688ac",
            "reqSigs": 1,
            "type": "pubkeyhash",
            "addresses": [
              "LiCeLfdc7D35owmXmb3LvVaqNtoLkDn4UB"
            ]
          }
        }, 
        {
          "value": 0.26514855,
          "n": 1,
          "scriptPubKey": {
            "asm": "OP_DUP OP_HASH160 949e59e2c072d84600882b6b6c56c6c1c26dff8a OP_EQUALVERIFY OP_CHECKSIG",
            "hex": "76a914949e59e2c072d84600882b6b6c56c6c1c26dff8a88ac",
            "reqSigs": 1,
            "type": "pubkeyhash",
            "addresses": [
              "LYmmy2q6UotSscs2LPasJoBArGAoPXwGvJ"
            ]
          }
        }
      ],
      "hex": "020000000145a6890117736fd48fb6830a5b945ce27a57275a3c4303a0abbf58e76a7e5a00000000006a47304402204274e1dedbc529a110b657533d4ff5b6881158d99c8ff243fad0940452da625402204bf8ad49137d71016e616b073763df4cff5bfbde1580d46c13430887a591fe5e01210364bed65d5ee278a18aaaa0cdac75a10df69745ddd6a8e7e61521d9dacc85af87feffffff02b31ec604000000001976a914fc0b83f9572c16baedd6cf7d7fef1ac0d789f19688aca7959401000000001976a914949e59e2c072d84600882b6b6c56c6c1c26dff8a88acd6c31400"
    }, 
    {
      "txid": "efd7cc2c9e07de5cf793d2d42b5f3eecacb079763b2cb01b7e4be6c4439f8935",
      "hash": "efd7cc2c9e07de5cf793d2d42b5f3eecacb079763b2cb01b7e4be6c4439f8935",
      "version": 2,
      "size": 226,
      "vsize": 226,
      "locktime": 1360854,
      "vin": [
        {
          "txid": "a66bac12c871df5d1724ccafb3512d28f3f23ec3eae52044073fc491965fada2",
          "vout": 0,
          "scriptSig": {
            "asm": "30450221009779f2b2cc1a2d90ea6c56b48534478b84f15b8640773596ff01742e108c4d16022076ebe0b152353df830c37172e4ccc58cb9337a94bfe2b4d36399e5159cdcc3ff[ALL] 0273808f264b285d8d3e33aae4feabf8554b02ab2b486dfcb6e6b02e4e91f8a40e",
            "hex": "4830450221009779f2b2cc1a2d90ea6c56b48534478b84f15b8640773596ff01742e108c4d16022076ebe0b152353df830c37172e4ccc58cb9337a94bfe2b4d36399e5159cdcc3ff01210273808f264b285d8d3e33aae4feabf8554b02ab2b486dfcb6e6b02e4e91f8a40e"
          },
          "sequence": 4294967294
        }
      ],
      "vout": [
        {
          "value": 1.48659700,
          "n": 0,
          "scriptPubKey": {
            "asm": "OP_DUP OP_HASH160 a3778ad7a12f79c4e8f78fb37c8d7e22b01d35b6 OP_EQUALVERIFY OP_CHECKSIG",
            "hex": "76a914a3778ad7a12f79c4e8f78fb37c8d7e22b01d35b688ac",
            "reqSigs": 1,
            "type": "pubkeyhash",
            "addresses": [
              "La8HcRscCyn8XtVp86uhRf6Ss2FaXGqQ2L"
            ]
          }
        }, 
        {
          "value": 0.40765000,
          "n": 1,
          "scriptPubKey": {
            "asm": "OP_DUP OP_HASH160 4aa65f295c454a3892281fa5f993e309324f6377 OP_EQUALVERIFY OP_CHECKSIG",
            "hex": "76a9144aa65f295c454a3892281fa5f993e309324f637788ac",
            "reqSigs": 1,
            "type": "pubkeyhash",
            "addresses": [
              "LS2fa7q6gpUYC4XmQWg3d2SZVjytre963V"
            ]
          }
        }
      ],
      "hex": "0200000001a2ad5f9691c43f074420e5eac33ef2f3282d51b3afcc24175ddf71c812ac6ba6000000006b4830450221009779f2b2cc1a2d90ea6c56b48534478b84f15b8640773596ff01742e108c4d16022076ebe0b152353df830c37172e4ccc58cb9337a94bfe2b4d36399e5159cdcc3ff01210273808f264b285d8d3e33aae4feabf8554b02ab2b486dfcb6e6b02e4e91f8a40efeffffff02f45ddc08000000001976a914a3778ad7a12f79c4e8f78fb37c8d7e22b01d35b688ac48066e02000000001976a9144aa65f295c454a3892281fa5f993e309324f637788acd6c31400"
    }, 
    {
      "txid": "05073345ae517cbeae9a9ed9ef600e1ed99e3fdf377826d0eddea8b4629bfb67",
      "hash": "05073345ae517cbeae9a9ed9ef600e1ed99e3fdf377826d0eddea8b4629bfb67",
      "version": 2,
      "size": 226,
      "vsize": 226,
      "locktime": 1360854,
      "vin": [
        {
          "txid": "6abca5bba796c6d89484be03d4bf045503e7729ac3e2fbafbe9080e72c2af7d9",
          "vout": 1,
          "scriptSig": {
            "asm": "3045022100c35814412d37aa4fdcfff62cd59524af6e950e8e4300d5df7daba6f9aa353c7c022031251418749a941bc8e68d8b869cb2030f969ffe9558d83a62fb0c9eea77bac3[ALL] 0254fe1b38dcf07c950c3a59dc79fc6f971f2aa583536023426dd90613fbb5c8c4",
            "hex": "483045022100c35814412d37aa4fdcfff62cd59524af6e950e8e4300d5df7daba6f9aa353c7c022031251418749a941bc8e68d8b869cb2030f969ffe9558d83a62fb0c9eea77bac301210254fe1b38dcf07c950c3a59dc79fc6f971f2aa583536023426dd90613fbb5c8c4"
          },
          "sequence": 4294967294
        }
      ],
      "vout": [
        {
          "value": 1.95868414,
          "n": 0,
          "scriptPubKey": {
            "asm": "OP_DUP OP_HASH160 c241dc44fe9dbf3671837632c1885ff71f3a8c94 OP_EQUALVERIFY OP_CHECKSIG",
            "hex": "76a914c241dc44fe9dbf3671837632c1885ff71f3a8c9488ac",
            "reqSigs": 1,
            "type": "pubkeyhash",
            "addresses": [
              "Lcw6FVRWM9DV7d4u6ApwqgaU3mZ8peLZoL"
            ]
          }
        }, 
        {
          "value": 0.02074864,
          "n": 1,
          "scriptPubKey": {
            "asm": "OP_DUP OP_HASH160 ebb73808c725f23ffa0c9b2fea5d456d89053a7b OP_EQUALVERIFY OP_CHECKSIG",
            "hex": "76a914ebb73808c725f23ffa0c9b2fea5d456d89053a7b88ac",
            "reqSigs": 1,
            "type": "pubkeyhash",
            "addresses": [
              "LgiJYZgspNdxDzsEyn7w6BY1B8wb2AY6RC"
            ]
          }
        }
      ],
      "hex": "0200000001d9f72a2ce78090beaffbe2c39a72e7035504bfd403be8494d8c696a7bba5bc6a010000006b483045022100c35814412d37aa4fdcfff62cd59524af6e950e8e4300d5df7daba6f9aa353c7c022031251418749a941bc8e68d8b869cb2030f969ffe9558d83a62fb0c9eea77bac301210254fe1b38dcf07c950c3a59dc79fc6f971f2aa583536023426dd90613fbb5c8c4feffffff02feb6ac0b000000001976a914c241dc44fe9dbf3671837632c1885ff71f3a8c9488acf0a81f00000000001976a914ebb73808c725f23ffa0c9b2fea5d456d89053a7b88acd6c31400"
    }, 
    {
      "txid": "87f952efa749fcafcde464b76d77bd09d566a8b89340b083ec6c42116692996b",
      "hash": "87f952efa749fcafcde464b76d77bd09d566a8b89340b083ec6c42116692996b",
      "version": 1,
      "size": 226,
      "vsize": 226,
      "locktime": 0,
      "vin": [
        {
          "txid": "fc5009a4ef0e22ee3bb218ecffecf0c2b18fa78b7d706901316ff2578e54798a",
          "vout": 1,
          "scriptSig": {
            "asm": "3045022100c4fc5231a0c463aebcd2cc0478909292faad4a544599dcc43109e6f0cd940cea02200bd23b63018be7cec08d5114c3cac456e4dd0baffaa9fd4e3f750e797c60de29[ALL] 0368545ef090bc87eab8bc1e5e20de7b782069111c26267f2ca148bada41c7b893",
            "hex": "483045022100c4fc5231a0c463aebcd2cc0478909292faad4a544599dcc43109e6f0cd940cea02200bd23b63018be7cec08d5114c3cac456e4dd0baffaa9fd4e3f750e797c60de2901210368545ef090bc87eab8bc1e5e20de7b782069111c26267f2ca148bada41c7b893"
          },
          "sequence": 4294967295
        }
      ],
      "vout": [
        {
          "value": 0.00188535,
          "n": 0,
          "scriptPubKey": {
            "asm": "OP_DUP OP_HASH160 8015b625acb8a25eef7193d3a41c7126c6defdaa OP_EQUALVERIFY OP_CHECKSIG",
            "hex": "76a9148015b625acb8a25eef7193d3a41c7126c6defdaa88ac",
            "reqSigs": 1,
            "type": "pubkeyhash",
            "addresses": [
              "LWuCmJurkJXDhB2QDHEJ1mwdrABTpsPSqt"
            ]
          }
        }, 
        {
          "value": 0.15242000,
          "n": 1,
          "scriptPubKey": {
            "asm": "OP_DUP OP_HASH160 665465402866dd11b4730f6a81fb85a2f587e1c3 OP_EQUALVERIFY OP_CHECKSIG",
            "hex": "76a914665465402866dd11b4730f6a81fb85a2f587e1c388ac",
            "reqSigs": 1,
            "type": "pubkeyhash",
            "addresses": [
              "LUZ2HgYQiFGgtK2kFnoS8Zo6xirPN6xTLJ"
            ]
          }
        }
      ],
      "hex": "01000000018a79548e57f26f310169707d8ba78fb1c2f0ecffec18b23bee220eefa40950fc010000006b483045022100c4fc5231a0c463aebcd2cc0478909292faad4a544599dcc43109e6f0cd940cea02200bd23b63018be7cec08d5114c3cac456e4dd0baffaa9fd4e3f750e797c60de2901210368545ef090bc87eab8bc1e5e20de7b782069111c26267f2ca148bada41c7b893ffffffff0277e00200000000001976a9148015b625acb8a25eef7193d3a41c7126c6defdaa88ac1093e800000000001976a914665465402866dd11b4730f6a81fb85a2f587e1c388ac00000000"
    }, 
    {
      "txid": "c0155f05986148ed10ae308fb006a66ca327cae691b1431a0032db6eb216798a",
      "hash": "c0155f05986148ed10ae308fb006a66ca327cae691b1431a0032db6eb216798a",
      "version": 1,
      "size": 226,
      "vsize": 226,
      "locktime": 0,
      "vin": [
        {
          "txid": "86b165f6bac2a99aa07bc8004dd7277e518cfb9540cddb424b00c7255138a696",
          "vout": 0,
          "scriptSig": {
            "asm": "3045022100ec9dadcbaac7a202cb900cf44ec156db3d90c49a108c3fdf78c711767c3b5d1402205ab69b7f041111e4b154f386d030c0e0424b45c0ca98b2be219a0a97f3e02ecc[ALL] 02ea7654dd9637c2f6008f0c299fde4678f86864671820d841df32c4ae7259a81d",
            "hex": "483045022100ec9dadcbaac7a202cb900cf44ec156db3d90c49a108c3fdf78c711767c3b5d1402205ab69b7f041111e4b154f386d030c0e0424b45c0ca98b2be219a0a97f3e02ecc012102ea7654dd9637c2f6008f0c299fde4678f86864671820d841df32c4ae7259a81d"
          },
          "sequence": 4294967295
        }
      ],
      "vout": [
        {
          "value": 0.00056489,
          "n": 0,
          "scriptPubKey": {
            "asm": "OP_DUP OP_HASH160 2a4c6bdee495b5ad406aea230c1cf3caf3cc89b2 OP_EQUALVERIFY OP_CHECKSIG",
            "hex": "76a9142a4c6bdee495b5ad406aea230c1cf3caf3cc89b288ac",
            "reqSigs": 1,
            "type": "pubkeyhash",
            "addresses": [
              "LP5cC7u797J63mi73oiNrrLGn5Zwtbs1XZ"
            ]
          }
        }, 
        {
          "value": 0.12808413,
          "n": 1,
          "scriptPubKey": {
            "asm": "OP_DUP OP_HASH160 7c4045e92ac4cbb92ec7d53749ca330aa0386049 OP_EQUALVERIFY OP_CHECKSIG",
            "hex": "76a9147c4045e92ac4cbb92ec7d53749ca330aa038604988ac",
            "reqSigs": 1,
            "type": "pubkeyhash",
            "addresses": [
              "LWYw3mkxq8bYVZyeNQGh9FvWtJ8XC6YtKY"
            ]
          }
        }
      ],
      "hex": "010000000196a6385125c7004b42dbcd4095fb8c517e27d74d00c87ba09aa9c2baf665b186000000006b483045022100ec9dadcbaac7a202cb900cf44ec156db3d90c49a108c3fdf78c711767c3b5d1402205ab69b7f041111e4b154f386d030c0e0424b45c0ca98b2be219a0a97f3e02ecc012102ea7654dd9637c2f6008f0c299fde4678f86864671820d841df32c4ae7259a81dffffffff02a9dc0000000000001976a9142a4c6bdee495b5ad406aea230c1cf3caf3cc89b288acdd70c300000000001976a9147c4045e92ac4cbb92ec7d53749ca330aa038604988ac00000000"
    }, 
    {
      "txid": "a1a2e364135cd5ee4571cbf3e17cca21e14b5589be2d8163561d42cb543a89b7",
      "hash": "a1a2e364135cd5ee4571cbf3e17cca21e14b5589be2d8163561d42cb543a89b7",
      "version": 1,
      "size": 226,
      "vsize": 226,
      "locktime": 0,
      "vin": [
        {
          "txid": "a0b7b10b4d309d8a4008a5c59745462e7919becfba1581a008ea2abf945d568b",
          "vout": 5,
          "scriptSig": {
            "asm": "3045022100c85dee3ad1c6cb7862b347c98f3a39b87ffd517f21ab798b5ae7cca7f776a53502200ad412aa056ef484e7dd765ada412ad3c67459a867bfa4ddf0d9a6a62c27bf4e[ALL] 0234da019e77b91e1e96607f01d85f46244cc3173e7e058cee3a22621d924a6249",
            "hex": "483045022100c85dee3ad1c6cb7862b347c98f3a39b87ffd517f21ab798b5ae7cca7f776a53502200ad412aa056ef484e7dd765ada412ad3c67459a867bfa4ddf0d9a6a62c27bf4e01210234da019e77b91e1e96607f01d85f46244cc3173e7e058cee3a22621d924a6249"
          },
          "sequence": 4294967295
        }
      ],
      "vout": [
        {
          "value": 0.84462847,
          "n": 0,
          "scriptPubKey": {
            "asm": "OP_DUP OP_HASH160 bb4f085b8eb8bdb47b2a98d84fff68f05334565f OP_EQUALVERIFY OP_CHECKSIG",
            "hex": "76a914bb4f085b8eb8bdb47b2a98d84fff68f05334565f88ac",
            "reqSigs": 1,
            "type": "pubkeyhash",
            "addresses": [
              "LcJMJNQZD52SwLk8QvmAGNMAaWWCk83kTi"
            ]
          }
        }, 
        {
          "value": 2.14514553,
          "n": 1,
          "scriptPubKey": {
            "asm": "OP_DUP OP_HASH160 85f23acb94326cad16c0d2933b707d34ac87e6e5 OP_EQUALVERIFY OP_CHECKSIG",
            "hex": "76a91485f23acb94326cad16c0d2933b707d34ac87e6e588ac",
            "reqSigs": 1,
            "type": "pubkeyhash",
            "addresses": [
              "LXSCK91YSJJU5Zbj5B7XmhrnTPJL68QSs2"
            ]
          }
        }
      ],
      "hex": "01000000018b565d94bf2aea08a08115bacfbe19792e464597c5a508408a9d304d0bb1b7a0050000006b483045022100c85dee3ad1c6cb7862b347c98f3a39b87ffd517f21ab798b5ae7cca7f776a53502200ad412aa056ef484e7dd765ada412ad3c67459a867bfa4ddf0d9a6a62c27bf4e01210234da019e77b91e1e96607f01d85f46244cc3173e7e058cee3a22621d924a6249ffffffff02ffcc0805000000001976a914bb4f085b8eb8bdb47b2a98d84fff68f05334565f88ac793bc90c000000001976a91485f23acb94326cad16c0d2933b707d34ac87e6e588ac00000000"
    }, 
    {
      "txid": "ea464baa4c06349638e4e329bc0be763251fba432996550b75639c32093a23ce",
      "hash": "ea464baa4c06349638e4e329bc0be763251fba432996550b75639c32093a23ce",
      "version": 2,
      "size": 226,
      "vsize": 226,
      "locktime": 1360854,
      "vin": [
        {
          "txid": "c4b129b1038e13d727b9f334cb2dba5697fab1244c970e0ab9e7f959e1b4b79d",
          "vout": 0,
          "scriptSig": {
            "asm": "3045022100e08720575fa3fc236c207c5b7cfabce1bbc88adc7a03b7f1a9edcb82cfd16df00220674248c3e48efc3ef882dbafd7d217e263be7c0727acf644acf57d727c9a3eec[ALL] 02fad65d3b1f2c99734089e4277984a619a52885c5720cb86c08e590cceeb63a5e",
            "hex": "483045022100e08720575fa3fc236c207c5b7cfabce1bbc88adc7a03b7f1a9edcb82cfd16df00220674248c3e48efc3ef882dbafd7d217e263be7c0727acf644acf57d727c9a3eec012102fad65d3b1f2c99734089e4277984a619a52885c5720cb86c08e590cceeb63a5e"
          },
          "sequence": 4294967294
        }
      ],
      "vout": [
        {
          "value": 0.34169500,
          "n": 0,
          "scriptPubKey": {
            "asm": "OP_DUP OP_HASH160 252ae02a1327e1fe84bbc573fd67d1a5875c63f1 OP_EQUALVERIFY OP_CHECKSIG",
            "hex": "76a914252ae02a1327e1fe84bbc573fd67d1a5875c63f188ac",
            "reqSigs": 1,
            "type": "pubkeyhash",
            "addresses": [
              "LNcUdMywnT3g5wLmdmpqzyoZi2dREAAnD6"
            ]
          }
        }, 
        {
          "value": 5.97213086,
          "n": 1,
          "scriptPubKey": {
            "asm": "OP_DUP OP_HASH160 1ae46c418c6593eaf7bf11d38f94b377cd523ca5 OP_EQUALVERIFY OP_CHECKSIG",
            "hex": "76a9141ae46c418c6593eaf7bf11d38f94b377cd523ca588ac",
            "reqSigs": 1,
            "type": "pubkeyhash",
            "addresses": [
              "LMg9UJNAVAyTXpHhHS1rtzjbKQLVeHLtZi"
            ]
          }
        }
      ],
      "hex": "02000000019db7b4e159f9e7b90a0e974c24b1fa9756ba2dcb34f3b927d7138e03b129b1c4000000006b483045022100e08720575fa3fc236c207c5b7cfabce1bbc88adc7a03b7f1a9edcb82cfd16df00220674248c3e48efc3ef882dbafd7d217e263be7c0727acf644acf57d727c9a3eec012102fad65d3b1f2c99734089e4277984a619a52885c5720cb86c08e590cceeb63a5efeffffff029c620902000000001976a914252ae02a1327e1fe84bbc573fd67d1a5875c63f188ac9ebf9823000000001976a9141ae46c418c6593eaf7bf11d38f94b377cd523ca588acd6c31400"
    }
  ],
  "time": 1517490859,
  "mediantime": 1517489960,
  "nonce": 604129340,
  "bits": "1a04088e",
  "difficulty": 4159490.835685156,
  "chainwork": "00000000000000000000000000000000000000000000003554ce7d39f1ab4850",
  "previousblockhash": "15b621d593631e2e35f876fe5d4ea9530af394adaf45d0b601812d26d1ad2d9f",
  "nextblockhash": "e0e4f53b0bf05aca3dd15eb334cf6bc02848c18020a776ae549a6588f62fbf34"
}
