{
  "hash": "ec8a74d988bc4431197f4fe6755354a8d82a2eecb0b8b4c548b1268823b997df",
  "confirmations": 1506,
  "strippedsize": 234,
  "size": 234,
  "weight": 936,
  "height": 1359488,
  "version": 536870912,
  "versionHex": "20000000",
  "merkleroot": "b90048c82456acd864b07641f4c94afc4e0b4f6106990c268fc78549e2537db8",
  "tx": [
    {
      "txid": "b90048c82456acd864b07641f4c94afc4e0b4f6106990c268fc78549e2537db8",
      "hash": "b90048c82456acd864b07641f4c94afc4e0b4f6106990c268fc78549e2537db8",
      "version": 1,
      "size": 153,
      "vsize": 153,
      "locktime": 0,
      "vin": [
        {
          "coinbase": "0380be14045a6fff6c2cfabe6d6d3d1e3f53827b13f3e216bfce1253bf9f376b29fc51626a0f3a984eb047cec2034000000000000000042f4c502f08580068503b000000",
          "sequence": 4294967295
        }
      ],
      "vout": [
        {
          "value": 25.00000000,
          "n": 0,
          "scriptPubKey": {
            "asm": "OP_DUP OP_HASH160 57757ed2ecf2052ff3126c397aca7defb9ca2cec OP_EQUALVERIFY OP_CHECKSIG",
            "hex": "76a91457757ed2ecf2052ff3126c397aca7defb9ca2cec88ac",
            "reqSigs": 1,
            "type": "pubkeyhash",
            "addresses": [
              "LTCPodGk5FwcJaRzH9yKnwicxzFUbxp6tN"
            ]
          }
        }
      ],
      "hex": "01000000010000000000000000000000000000000000000000000000000000000000000000ffffffff440380be14045a6fff6c2cfabe6d6d3d1e3f53827b13f3e216bfce1253bf9f376b29fc51626a0f3a984eb047cec2034000000000000000042f4c502f08580068503b000000ffffffff0100f90295000000001976a91457757ed2ecf2052ff3126c397aca7defb9ca2cec88ac00000000"
    }
  ],
  "time": 1517289324,
  "mediantime": 1517288212,
  "nonce": 1471534292,
  "bits": "1a042eae",
  "difficulty": 4011378.762614286,
  "chainwork": "0000000000000000000000000000000000000000000000340d36c64acedc7382",
  "previousblockhash": "2ae479b460670d6e7e81884dafc8bf583ee82e85824747b284c6d3c556ac40a0",
  "nextblockhash": "5e3d27b478f407e03d3af595f57299b84fe0a6d12a653d2aebd8bd4e70e41a3a"
}
