{
  "hash": "ec90c59cb39d875ef0195c61f0f5e7401f0a6c2a55ae76cfd1d532f014f081bd",
  "confirmations": 214,
  "strippedsize": 1248,
  "size": 1284,
  "weight": 5028,
  "height": 1360780,
  "version": 536870912,
  "versionHex": "20000000",
  "merkleroot": "29faf0a3a6e875672b37ce67f0d3e119d8023f48d173150dc51ebf790c96e2f7",
  "tx": [
    {
      "txid": "74669070d63aaa1039531ad05f9f4ac1f3ca48e9fa5b006668327a1004b8e38e",
      "hash": "5c90be24fe77ffdf877fa962fcf997a541afc828c8563a05460ac3a945373a11",
      "version": 1,
      "size": 264,
      "vsize": 237,
      "locktime": 0,
      "vin": [
        {
          "coinbase": "038cc3141d2f5669614254432f4d696e65642062792031383931303331313835352f2cfabe6d6d72cf862846a1bbddaf3e7dabbefa57569a2ffac4e40a0e7a33cf43a2f1bb276d010000000000000010e395cf0042362f412d59b48411000000",
          "sequence": 4294967295
        }
      ],
      "vout": [
        {
          "value": 25.00174800,
          "n": 0,
          "scriptPubKey": {
            "asm": "OP_DUP OP_HASH160 e16c28146ed4869c190b3f0bdc18d80d45f92134 OP_EQUALVERIFY OP_CHECKSIG",
            "hex": "76a914e16c28146ed4869c190b3f0bdc18d80d45f9213488ac",
            "reqSigs": 1,
            "type": "pubkeyhash",
            "addresses": [
              "LfmssDyX6iZvbVqHv6t9P6JWXia2JG7mdb"
            ]
          }
        }, 
        {
          "value": 0.00000000,
          "n": 1,
          "scriptPubKey": {
            "asm": "OP_RETURN aa21a9edd6490df8d14664eebdb4e72b3e4b66ba6a44c4a33327065852abcb2063c4874b",
            "hex": "6a24aa21a9edd6490df8d14664eebdb4e72b3e4b66ba6a44c4a33327065852abcb2063c4874b",
            "type": "nulldata"
          }
        }
      ],
      "hex": "010000000001010000000000000000000000000000000000000000000000000000000000000000ffffffff60038cc3141d2f5669614254432f4d696e65642062792031383931303331313835352f2cfabe6d6d72cf862846a1bbddaf3e7dabbefa57569a2ffac4e40a0e7a33cf43a2f1bb276d010000000000000010e395cf0042362f412d59b48411000000ffffffff02d0a30595000000001976a914e16c28146ed4869c190b3f0bdc18d80d45f9213488ac0000000000000000266a24aa21a9edd6490df8d14664eebdb4e72b3e4b66ba6a44c4a33327065852abcb2063c4874b0120000000000000000000000000000000000000000000000000000000000000000000000000"
    }, 
    {
      "txid": "8dd6bf5b2a33c87767b25dbe74f66335742a7b6669ceae05292d8ad7be41f333",
      "hash": "8dd6bf5b2a33c87767b25dbe74f66335742a7b6669ceae05292d8ad7be41f333",
      "version": 1,
      "size": 226,
      "vsize": 226,
      "locktime": 0,
      "vin": [
        {
          "txid": "7ad0cea61aa128991880cb2d330bbbd60916e8105a8341d29c0fd0cf7dc74873",
          "vout": 1,
          "scriptSig": {
            "asm": "3045022100ac4cacef7aa775ce5580d14fd6e063f1e13adccf61b6fff8dcfc1db1cc7dc27f02204bdba80fc5fc15c6d846a804380ab08b49dc40ad7df240b79c7b95d0a5692117[ALL] 0328c9ae635abf580c261c44815dc1aac309e16ff26250525b7e99951369d2b8c7",
            "hex": "483045022100ac4cacef7aa775ce5580d14fd6e063f1e13adccf61b6fff8dcfc1db1cc7dc27f02204bdba80fc5fc15c6d846a804380ab08b49dc40ad7df240b79c7b95d0a569211701210328c9ae635abf580c261c44815dc1aac309e16ff26250525b7e99951369d2b8c7"
          },
          "sequence": 4294967295
        }
      ],
      "vout": [
        {
          "value": 0.09900000,
          "n": 0,
          "scriptPubKey": {
            "asm": "OP_DUP OP_HASH160 9da975292c0b974341bf954191511554bdf102ad OP_EQUALVERIFY OP_CHECKSIG",
            "hex": "76a9149da975292c0b974341bf954191511554bdf102ad88ac",
            "reqSigs": 1,
            "type": "pubkeyhash",
            "addresses": [
              "LZbbMTLpZxTEia4Tgn3Nw2VK78ytdpgH1U"
            ]
          }
        }, 
        {
          "value": 13.49303450,
          "n": 1,
          "scriptPubKey": {
            "asm": "OP_DUP OP_HASH160 c6e3836c2f4cd8f9c53e32813ded99ac0ce001f1 OP_EQUALVERIFY OP_CHECKSIG",
            "hex": "76a914c6e3836c2f4cd8f9c53e32813ded99ac0ce001f188ac",
            "reqSigs": 1,
            "type": "pubkeyhash",
            "addresses": [
              "LdMac6qdwFnBCVXN96dvoPjzbcE36gzs64"
            ]
          }
        }
      ],
      "hex": "01000000017348c77dcfd00f9cd241835a10e81609d6bb0b332dcb80189928a11aa6ced07a010000006b483045022100ac4cacef7aa775ce5580d14fd6e063f1e13adccf61b6fff8dcfc1db1cc7dc27f02204bdba80fc5fc15c6d846a804380ab08b49dc40ad7df240b79c7b95d0a569211701210328c9ae635abf580c261c44815dc1aac309e16ff26250525b7e99951369d2b8c7ffffffff02e00f9700000000001976a9149da975292c0b974341bf954191511554bdf102ad88ac9abc6c50000000001976a914c6e3836c2f4cd8f9c53e32813ded99ac0ce001f188ac00000000"
    }, 
    {
      "txid": "4519545afa8529fde077cfe20ef8fb5c5e3d2b00cd3fb7c96401533703deb960",
      "hash": "4519545afa8529fde077cfe20ef8fb5c5e3d2b00cd3fb7c96401533703deb960",
      "version": 1,
      "size": 487,
      "vsize": 487,
      "locktime": 0,
      "vin": [
        {
          "txid": "5c6e05aa796a472ff12698f59c45ee698e23cdcd40e872044496df8ff5826f0d",
          "vout": 0,
          "scriptSig": {
            "asm": "3045022100d935ba6f179cbe2bf16bfce2385284616c806fa57abf5fd256fad44ce7fb817a022021aac08ed2649568b8da495601e2caca5525a0a802d1015e9a28fcfbda6a2454[ALL] 0332ae479bce0f3b13407e3c0dfbeb074a9af243221615a592a19d373d3fec2376",
            "hex": "483045022100d935ba6f179cbe2bf16bfce2385284616c806fa57abf5fd256fad44ce7fb817a022021aac08ed2649568b8da495601e2caca5525a0a802d1015e9a28fcfbda6a245401210332ae479bce0f3b13407e3c0dfbeb074a9af243221615a592a19d373d3fec2376"
          },
          "sequence": 4294967295
        }, 
        {
          "txid": "47cd6e9fc9678ab820c5e7a7f8f4a1eab2d3873703c62d7c75978ed4e35cfc09",
          "vout": 1,
          "scriptSig": {
            "asm": "3045022100ced4f5989dca5a3a4ce0b5d22226cbe2eb52903e1f6c66ecb5c9ee191e4e8fa702204ca95c8183b4c5dd649c6420a9178a23ff04f146cb4bfc1f40861f067a416c1c[ALL] 035ba4b89bf18eb5202dbe2fb6c326fa8a04433f79769b16d22301ac632fe2cc51",
            "hex": "483045022100ced4f5989dca5a3a4ce0b5d22226cbe2eb52903e1f6c66ecb5c9ee191e4e8fa702204ca95c8183b4c5dd649c6420a9178a23ff04f146cb4bfc1f40861f067a416c1c0121035ba4b89bf18eb5202dbe2fb6c326fa8a04433f79769b16d22301ac632fe2cc51"
          },
          "sequence": 4294967295
        }, 
        {
          "txid": "78f9180ce7e5b17d2fb87794576346f8959597ee6baeb40e92b5f554114ca4dc",
          "vout": 1,
          "scriptSig": {
            "asm": "304402200919625c056043dab4249147c21c2aaa445c574b8bfc8ff56262f633a20a5dbb02202590371c8b1834a851756a1fe6c64b1d73a74f22788b45fc0422f7d7b130d38e[ALL] 02645f233359778c22b56e4bddec57422642b3ab4c344fde01641b40c894a0b3ec",
            "hex": "47304402200919625c056043dab4249147c21c2aaa445c574b8bfc8ff56262f633a20a5dbb02202590371c8b1834a851756a1fe6c64b1d73a74f22788b45fc0422f7d7b130d38e012102645f233359778c22b56e4bddec57422642b3ab4c344fde01641b40c894a0b3ec"
          },
          "sequence": 4294967295
        }
      ],
      "vout": [
        {
          "value": 2.46187800,
          "n": 0,
          "scriptPubKey": {
            "asm": "OP_DUP OP_HASH160 3051650de070b272b9b03354cf9da769915ca13e OP_EQUALVERIFY OP_CHECKSIG",
            "hex": "76a9143051650de070b272b9b03354cf9da769915ca13e88ac",
            "reqSigs": 1,
            "type": "pubkeyhash",
            "addresses": [
              "LPdSCpuUuS7b9vSRxfsxqkzqptWRY7HcBE"
            ]
          }
        }
      ],
      "hex": "01000000030d6f82f58fdf96440472e840cdcd238e69ee459cf59826f12f476a79aa056e5c000000006b483045022100d935ba6f179cbe2bf16bfce2385284616c806fa57abf5fd256fad44ce7fb817a022021aac08ed2649568b8da495601e2caca5525a0a802d1015e9a28fcfbda6a245401210332ae479bce0f3b13407e3c0dfbeb074a9af243221615a592a19d373d3fec2376ffffffff09fc5ce3d48e97757c2dc6033787d3b2eaa1f4f8a7e7c520b88a67c99f6ecd47010000006b483045022100ced4f5989dca5a3a4ce0b5d22226cbe2eb52903e1f6c66ecb5c9ee191e4e8fa702204ca95c8183b4c5dd649c6420a9178a23ff04f146cb4bfc1f40861f067a416c1c0121035ba4b89bf18eb5202dbe2fb6c326fa8a04433f79769b16d22301ac632fe2cc51ffffffffdca44c1154f5b5920eb4ae6bee979595f84663579477b82f7db1e5e70c18f978010000006a47304402200919625c056043dab4249147c21c2aaa445c574b8bfc8ff56262f633a20a5dbb02202590371c8b1834a851756a1fe6c64b1d73a74f22788b45fc0422f7d7b130d38e012102645f233359778c22b56e4bddec57422642b3ab4c344fde01641b40c894a0b3ecffffffff011887ac0e000000001976a9143051650de070b272b9b03354cf9da769915ca13e88ac00000000"
    }, 
    {
      "txid": "27ace3ad3603e334a9db46d423e1d71fbf13503c76bf3aa04fc520e760e157e9",
      "hash": "27ace3ad3603e334a9db46d423e1d71fbf13503c76bf3aa04fc520e760e157e9",
      "version": 1,
      "size": 226,
      "vsize": 226,
      "locktime": 0,
      "vin": [
        {
          "txid": "0aa9eaf55bdd82bdf1bdec8425911a4c864dfb538e1b6466b59b8b6bf4b70a8d",
          "vout": 1,
          "scriptSig": {
            "asm": "3045022100b293e903cd184eefb800ab6f588a5bf32b229f04dd1cd2264f74a68f4a8ee23c02203713a043ba3357d1669e04210bb0057918dd1d767903c35aaa720f18c75ebb09[ALL] 03eb6a5f50f6d3430e056aea90b227a6fb7a9e52edbdbba36c2a447f96951b2c4d",
            "hex": "483045022100b293e903cd184eefb800ab6f588a5bf32b229f04dd1cd2264f74a68f4a8ee23c02203713a043ba3357d1669e04210bb0057918dd1d767903c35aaa720f18c75ebb09012103eb6a5f50f6d3430e056aea90b227a6fb7a9e52edbdbba36c2a447f96951b2c4d"
          },
          "sequence": 4294967295
        }
      ],
      "vout": [
        {
          "value": 1.42799899,
          "n": 0,
          "scriptPubKey": {
            "asm": "OP_DUP OP_HASH160 cc2de2c7b092e4e297c240b3aa78503fc1e551f7 OP_EQUALVERIFY OP_CHECKSIG",
            "hex": "76a914cc2de2c7b092e4e297c240b3aa78503fc1e551f788ac",
            "reqSigs": 1,
            "type": "pubkeyhash",
            "addresses": [
              "LdqZ5Yxcbe4KzqzXbzgv6nswvwG9PTK746"
            ]
          }
        }, 
        {
          "value": 0.24849319,
          "n": 1,
          "scriptPubKey": {
            "asm": "OP_DUP OP_HASH160 50bc4c70596d62fa713cfaf892772a184ff29b9b OP_EQUALVERIFY OP_CHECKSIG",
            "hex": "76a91450bc4c70596d62fa713cfaf892772a184ff29b9b88ac",
            "reqSigs": 1,
            "type": "pubkeyhash",
            "addresses": [
              "LSaqtmtfkR8njhE8AksLr2cY1grnzhQzWH"
            ]
          }
        }
      ],
      "hex": "01000000018d0ab7f46b8b9bb566641b8e53fb4d864c1a912584ecbdf1bd82dd5bf5eaa90a010000006b483045022100b293e903cd184eefb800ab6f588a5bf32b229f04dd1cd2264f74a68f4a8ee23c02203713a043ba3357d1669e04210bb0057918dd1d767903c35aaa720f18c75ebb09012103eb6a5f50f6d3430e056aea90b227a6fb7a9e52edbdbba36c2a447f96951b2c4dffffffff021bf48208000000001976a914cc2de2c7b092e4e297c240b3aa78503fc1e551f788aca72b7b01000000001976a91450bc4c70596d62fa713cfaf892772a184ff29b9b88ac00000000"
    }
  ],
  "time": 1517480527,
  "mediantime": 1517479635,
  "nonce": 1216630947,
  "bits": "1a042eae",
  "difficulty": 4011378.762614286,
  "chainwork": "0000000000000000000000000000000000000000000000354221ba670f2bef9a",
  "previousblockhash": "9b6e588ee0b8939e79149d2021846067623247dcfa43b2e807caa6f38c923124",
  "nextblockhash": "cda490769b9c0ed970d74cdff35d5e1ea2a2343a4f00e8c82f2d2b914f6399d4"
}
