{
  "hash": "ec9cf5d4188e999781567ea4bcf8cb5cc17a3553a0a44a1bc38ef7f195c941fc",
  "confirmations": 702,
  "strippedsize": 255,
  "size": 255,
  "weight": 1020,
  "height": 1360292,
  "version": 536870912,
  "versionHex": "20000000",
  "merkleroot": "216fa96c63f7c5e1e3b7cb00481c0bb67bce1b55e7eedddec9e32d01cbb5732c",
  "tx": [
    {
      "txid": "216fa96c63f7c5e1e3b7cb00481c0bb67bce1b55e7eedddec9e32d01cbb5732c",
      "hash": "216fa96c63f7c5e1e3b7cb00481c0bb67bce1b55e7eedddec9e32d01cbb5732c",
      "version": 1,
      "size": 174,
      "vsize": 174,
      "locktime": 0,
      "vin": [
        {
          "coinbase": "03a4c1141c4d696e656420627920416e74506f6f6c20626a331f205a71c9bd1001fabe6d6d718a54b97d9b7944d5f30fd880f4715125a064726ab27646cfc1e6ad92a415260400000000000000f60700000000000011000000",
          "sequence": 4294967295
        }
      ],
      "vout": [
        {
          "value": 25.00000000,
          "n": 0,
          "scriptPubKey": {
            "asm": "OP_DUP OP_HASH160 0ff3ccc5e8be88afe24b5d634e5852d474dbdff1 OP_EQUALVERIFY OP_CHECKSIG",
            "hex": "76a9140ff3ccc5e8be88afe24b5d634e5852d474dbdff188ac",
            "reqSigs": 1,
            "type": "pubkeyhash",
            "addresses": [
              "LLgJTbzZMsRTCUF1NtvvL9SR1a4pVieW89"
            ]
          }
        }
      ],
      "hex": "01000000010000000000000000000000000000000000000000000000000000000000000000ffffffff5903a4c1141c4d696e656420627920416e74506f6f6c20626a331f205a71c9bd1001fabe6d6d718a54b97d9b7944d5f30fd880f4715125a064726ab27646cfc1e6ad92a415260400000000000000f60700000000000011000000ffffffff0100f90295000000001976a9140ff3ccc5e8be88afe24b5d634e5852d474dbdff188ac00000000"
    }
  ],
  "time": 1517406653,
  "mediantime": 1517406082,
  "nonce": 3303778965,
  "bits": "1a042eae",
  "difficulty": 4011378.762614286,
  "chainwork": "000000000000000000000000000000000000000000000034cd7362f48fd8cfca",
  "previousblockhash": "76cd89d8fbcde575a864a01b9aea1055eb610260bc8f44a46049e513d00f05bc",
  "nextblockhash": "38ed78aa564b0f79a2410869058b42d37ee822075a1bdaeac354a42f33a0f65e"
}
