{
  "hash": "ec9c2d3e116857daf8a278dca89232775ef5ce68dd96e24277efe39e1cf67dd4",
  "confirmations": 965,
  "strippedsize": 254,
  "size": 254,
  "weight": 1016,
  "height": 1360029,
  "version": 536870912,
  "versionHex": "20000000",
  "merkleroot": "ef6b0d35888a37645f7eca26c73dc46914c74ed936424cc5367a7ad3c67747d1",
  "tx": [
    {
      "txid": "ef6b0d35888a37645f7eca26c73dc46914c74ed936424cc5367a7ad3c67747d1",
      "hash": "ef6b0d35888a37645f7eca26c73dc46914c74ed936424cc5367a7ad3c67747d1",
      "version": 1,
      "size": 173,
      "vsize": 173,
      "locktime": 0,
      "vin": [
        {
          "coinbase": "039dc0141b4d696e656420627920416e74506f6f6c20626a312045205a71275dfabe6d6d1c0f42dd4aa0559ffec0ddb3ec59a7dd45bdd9265f06d7b2b74314f377db745b04000000000000001b3a00000000000011000000",
          "sequence": 4294967295
        }
      ],
      "vout": [
        {
          "value": 25.00000000,
          "n": 0,
          "scriptPubKey": {
            "asm": "OP_DUP OP_HASH160 0ff3ccc5e8be88afe24b5d634e5852d474dbdff1 OP_EQUALVERIFY OP_CHECKSIG",
            "hex": "76a9140ff3ccc5e8be88afe24b5d634e5852d474dbdff188ac",
            "reqSigs": 1,
            "type": "pubkeyhash",
            "addresses": [
              "LLgJTbzZMsRTCUF1NtvvL9SR1a4pVieW89"
            ]
          }
        }
      ],
      "hex": "01000000010000000000000000000000000000000000000000000000000000000000000000ffffffff58039dc0141b4d696e656420627920416e74506f6f6c20626a312045205a71275dfabe6d6d1c0f42dd4aa0559ffec0ddb3ec59a7dd45bdd9265f06d7b2b74314f377db745b04000000000000001b3a00000000000011000000ffffffff0100f90295000000001976a9140ff3ccc5e8be88afe24b5d634e5852d474dbdff188ac00000000"
    }
  ],
  "time": 1517365085,
  "mediantime": 1517364905,
  "nonce": 849464075,
  "bits": "1a042eae",
  "difficulty": 4011378.762614286,
  "chainwork": "0000000000000000000000000000000000000000000000348e913b2bd6c4ab3c",
  "previousblockhash": "5a6fab08368e4322e075e3d6fdd459889bbf6a7ac03816ea9f119d31d5aaa05b",
  "nextblockhash": "2ade0825ee690eafa03425020760b001849afd398eecf420270ad5fdb2b56f4a"
}
