{
  "hash": "ed3cedd42c3e5796a2a41c5233d3fc667b14a0ed139728f721c1eeeaf7fcae01",
  "confirmations": 3146,
  "strippedsize": 253,
  "size": 253,
  "weight": 1012,
  "height": 1357849,
  "version": 536870912,
  "versionHex": "20000000",
  "merkleroot": "fd5b33f14cd26e988609b0c8c6588897514e02d9ab715c9fa8a1b4212af64bb0",
  "tx": [
    {
      "txid": "fd5b33f14cd26e988609b0c8c6588897514e02d9ab715c9fa8a1b4212af64bb0",
      "hash": "fd5b33f14cd26e988609b0c8c6588897514e02d9ab715c9fa8a1b4212af64bb0",
      "version": 1,
      "size": 172,
      "vsize": 172,
      "locktime": 0,
      "vin": [
        {
          "coinbase": "0319b8141a4d696e656420627920416e74506f6f6c20626a331f205a6c7265fabe6d6d4eb3f2b57d7c43ee3510918badfc8a5e7a6fba3aecbf11e8ff66767f897ad383040000000000000035200000000000000f000000",
          "sequence": 4294967295
        }
      ],
      "vout": [
        {
          "value": 25.00000000,
          "n": 0,
          "scriptPubKey": {
            "asm": "OP_DUP OP_HASH160 0ff3ccc5e8be88afe24b5d634e5852d474dbdff1 OP_EQUALVERIFY OP_CHECKSIG",
            "hex": "76a9140ff3ccc5e8be88afe24b5d634e5852d474dbdff188ac",
            "reqSigs": 1,
            "type": "pubkeyhash",
            "addresses": [
              "LLgJTbzZMsRTCUF1NtvvL9SR1a4pVieW89"
            ]
          }
        }
      ],
      "hex": "01000000010000000000000000000000000000000000000000000000000000000000000000ffffffff570319b8141a4d696e656420627920416e74506f6f6c20626a331f205a6c7265fabe6d6d4eb3f2b57d7c43ee3510918badfc8a5e7a6fba3aecbf11e8ff66767f897ad383040000000000000035200000000000000f000000ffffffff0100f90295000000001976a9140ff3ccc5e8be88afe24b5d634e5852d474dbdff188ac00000000"
    }
  ],
  "time": 1517056613,
  "mediantime": 1517056134,
  "nonce": 1459452997,
  "bits": "1a047f14",
  "difficulty": 3731199.183374282,
  "chainwork": "00000000000000000000000000000000000000000000003294ed25f0445b5da4",
  "previousblockhash": "988fe7303d66bbc12f259a7973f31912b63973f763cfc5ecde1a654716ddb3a3",
  "nextblockhash": "a09dc3010215117a403dee99414b42381234563c561ba20ac51bd32533194811"
}
