{
  "hash": "edd696fc3cf502004f1930c34999932ba0d7e8666c4c7b0f5c16f132f506939b",
  "confirmations": 2225,
  "strippedsize": 255,
  "size": 255,
  "weight": 1020,
  "height": 1358769,
  "version": 536870912,
  "versionHex": "20000000",
  "merkleroot": "7f6dbd85674226b955349446deedd496b2c288ee6e16b93d2b3ea1f0d83ee829",
  "tx": [
    {
      "txid": "7f6dbd85674226b955349446deedd496b2c288ee6e16b93d2b3ea1f0d83ee829",
      "hash": "7f6dbd85674226b955349446deedd496b2c288ee6e16b93d2b3ea1f0d83ee829",
      "version": 1,
      "size": 174,
      "vsize": 174,
      "locktime": 0,
      "vin": [
        {
          "coinbase": "03b1bb141c4d696e656420627920416e74506f6f6c20626a3242205a6e7db50488fabe6d6d7e8a44924ab75398cd5d6a03b68a9ddf669ca15886551038199d80916be4e41304000000000000001c1a00000000000026000000",
          "sequence": 4294967295
        }
      ],
      "vout": [
        {
          "value": 25.00000000,
          "n": 0,
          "scriptPubKey": {
            "asm": "OP_DUP OP_HASH160 0ff3ccc5e8be88afe24b5d634e5852d474dbdff1 OP_EQUALVERIFY OP_CHECKSIG",
            "hex": "76a9140ff3ccc5e8be88afe24b5d634e5852d474dbdff188ac",
            "reqSigs": 1,
            "type": "pubkeyhash",
            "addresses": [
              "LLgJTbzZMsRTCUF1NtvvL9SR1a4pVieW89"
            ]
          }
        }
      ],
      "hex": "01000000010000000000000000000000000000000000000000000000000000000000000000ffffffff5903b1bb141c4d696e656420627920416e74506f6f6c20626a3242205a6e7db50488fabe6d6d7e8a44924ab75398cd5d6a03b68a9ddf669ca15886551038199d80916be4e41304000000000000001c1a00000000000026000000ffffffff0100f90295000000001976a9140ff3ccc5e8be88afe24b5d634e5852d474dbdff188ac00000000"
    }
  ],
  "time": 1517190581,
  "mediantime": 1517189412,
  "nonce": 1769366359,
  "bits": "1a047f14",
  "difficulty": 3731199.183374282,
  "chainwork": "0000000000000000000000000000000000000000000000336188d79caa575b14",
  "previousblockhash": "8a7ed151689daf3962c4d421ff5a435c51ef266d34723f27aa2e0c24e8a98955",
  "nextblockhash": "af2bb56cc57924c9ffa66dd7583a4d505c200cd62553621a5ff009ceebe6d2a1"
}
