{
  "hash": "ee370bd0edf106621d1ba548946280dad652905ea5bd54939f07f9945c54b3ff",
  "confirmations": 2938,
  "strippedsize": 253,
  "size": 253,
  "weight": 1012,
  "height": 1358057,
  "version": 536870912,
  "versionHex": "20000000",
  "merkleroot": "eaeab9ce693df652d1215b62683bfdbdad0e6f754e19e4193368a3aa9c416a8a",
  "tx": [
    {
      "txid": "eaeab9ce693df652d1215b62683bfdbdad0e6f754e19e4193368a3aa9c416a8a",
      "hash": "eaeab9ce693df652d1215b62683bfdbdad0e6f754e19e4193368a3aa9c416a8a",
      "version": 1,
      "size": 172,
      "vsize": 172,
      "locktime": 0,
      "vin": [
        {
          "coinbase": "03e9b8141a4d696e656420627920416e74506f6f6c20626a3532205a6cd66bfabe6d6d8b9bb3ad3cddb90dc5f974bd145313ff5d4f504bc19825a17e2484a17220e0fb0400000000000000b70000000000000004000000",
          "sequence": 4294967295
        }
      ],
      "vout": [
        {
          "value": 25.00000000,
          "n": 0,
          "scriptPubKey": {
            "asm": "OP_DUP OP_HASH160 0ff3ccc5e8be88afe24b5d634e5852d474dbdff1 OP_EQUALVERIFY OP_CHECKSIG",
            "hex": "76a9140ff3ccc5e8be88afe24b5d634e5852d474dbdff188ac",
            "reqSigs": 1,
            "type": "pubkeyhash",
            "addresses": [
              "LLgJTbzZMsRTCUF1NtvvL9SR1a4pVieW89"
            ]
          }
        }
      ],
      "hex": "01000000010000000000000000000000000000000000000000000000000000000000000000ffffffff5703e9b8141a4d696e656420627920416e74506f6f6c20626a3532205a6cd66bfabe6d6d8b9bb3ad3cddb90dc5f974bd145313ff5d4f504bc19825a17e2484a17220e0fb0400000000000000b70000000000000004000000ffffffff0100f90295000000001976a9140ff3ccc5e8be88afe24b5d634e5852d474dbdff188ac00000000"
    }
  ],
  "time": 1517082220,
  "mediantime": 1517081955,
  "nonce": 1289025418,
  "bits": "1a047f14",
  "difficulty": 3731199.183374282,
  "chainwork": "000000000000000000000000000000000000000000000032c32f8388c64432c4",
  "previousblockhash": "a2bb82385ec4e5fabf43e7775143dc0ba4bb0171cd29de9b5c6a984d29642b4c",
  "nextblockhash": "3501c97a4f6f5dea9c6fd6491c0424be727e3597c1331bf60f2b780fcc0d9ca0"
}
