{
  "hash": "ee88a61d387fefd310933c663e319546f0d219effe9edff942525eb27ec3f5b5",
  "confirmations": 3377,
  "strippedsize": 234,
  "size": 234,
  "weight": 936,
  "height": 1357618,
  "version": 536870912,
  "versionHex": "20000000",
  "merkleroot": "ff403d2cab000da030e9b79fb49c0e8d619c3aba9068a06680eb96bd15e2ec7d",
  "tx": [
    {
      "txid": "ff403d2cab000da030e9b79fb49c0e8d619c3aba9068a06680eb96bd15e2ec7d",
      "hash": "ff403d2cab000da030e9b79fb49c0e8d619c3aba9068a06680eb96bd15e2ec7d",
      "version": 1,
      "size": 153,
      "vsize": 153,
      "locktime": 0,
      "vin": [
        {
          "coinbase": "0332b714045a6bfc982cfabe6d6dc0c97b5ea24786ac3c4255cb6913b791b034fac9c42ce1edfb5e5a7a9e5a07f04000000000000000042f4c502f085c002d2101000000",
          "sequence": 4294967295
        }
      ],
      "vout": [
        {
          "value": 25.00000000,
          "n": 0,
          "scriptPubKey": {
            "asm": "OP_DUP OP_HASH160 57757ed2ecf2052ff3126c397aca7defb9ca2cec OP_EQUALVERIFY OP_CHECKSIG",
            "hex": "76a91457757ed2ecf2052ff3126c397aca7defb9ca2cec88ac",
            "reqSigs": 1,
            "type": "pubkeyhash",
            "addresses": [
              "LTCPodGk5FwcJaRzH9yKnwicxzFUbxp6tN"
            ]
          }
        }
      ],
      "hex": "01000000010000000000000000000000000000000000000000000000000000000000000000ffffffff440332b714045a6bfc982cfabe6d6dc0c97b5ea24786ac3c4255cb6913b791b034fac9c42ce1edfb5e5a7a9e5a07f04000000000000000042f4c502f085c002d2101000000ffffffff0100f90295000000001976a91457757ed2ecf2052ff3126c397aca7defb9ca2cec88ac00000000"
    }
  ],
  "time": 1517026456,
  "mediantime": 1517026153,
  "nonce": 1522644148,
  "bits": "1a047f14",
  "difficulty": 3731199.183374282,
  "chainwork": "000000000000000000000000000000000000000000000032618d4a4d0cb2a22e",
  "previousblockhash": "48e9d434190a171318a9c8322b5d9a905519ae097b9eaf9cf7c2a946a09e2dc7",
  "nextblockhash": "4c7032d6abf689ec81e4281bbbff2ac2694292181a187931ea9226f09d16314f"
}
