{
  "hash": "ef0f73eb0cdee5a8a7bd90b389d1a401ad62b73644e08f85bdca0ca65b131b1d",
  "confirmations": 16,
  "strippedsize": 234,
  "size": 234,
  "weight": 936,
  "height": 1360975,
  "version": 536870912,
  "versionHex": "20000000",
  "merkleroot": "21c836ea24d9aaabbcb5e960a9701767f95f928ff0186ba6f89e9e50d355ff4d",
  "tx": [
    {
      "txid": "21c836ea24d9aaabbcb5e960a9701767f95f928ff0186ba6f89e9e50d355ff4d",
      "hash": "21c836ea24d9aaabbcb5e960a9701767f95f928ff0186ba6f89e9e50d355ff4d",
      "version": 1,
      "size": 153,
      "vsize": 153,
      "locktime": 0,
      "vin": [
        {
          "coinbase": "034fc414045a734b062cfabe6d6d4c3515cf9b15e6389f26dfbf9ae5ccd31ef450d08989d38e67c3c605c61cbf144000000000000000042f4c502f0856007c731d000000",
          "sequence": 4294967295
        }
      ],
      "vout": [
        {
          "value": 25.00000000,
          "n": 0,
          "scriptPubKey": {
            "asm": "OP_DUP OP_HASH160 57757ed2ecf2052ff3126c397aca7defb9ca2cec OP_EQUALVERIFY OP_CHECKSIG",
            "hex": "76a91457757ed2ecf2052ff3126c397aca7defb9ca2cec88ac",
            "reqSigs": 1,
            "type": "pubkeyhash",
            "addresses": [
              "LTCPodGk5FwcJaRzH9yKnwicxzFUbxp6tN"
            ]
          }
        }
      ],
      "hex": "01000000010000000000000000000000000000000000000000000000000000000000000000ffffffff44034fc414045a734b062cfabe6d6d4c3515cf9b15e6389f26dfbf9ae5ccd31ef450d08989d38e67c3c605c61cbf144000000000000000042f4c502f0856007c731d000000ffffffff0100f90295000000001976a91457757ed2ecf2052ff3126c397aca7defb9ca2cec88ac00000000"
    }
  ],
  "time": 1517505286,
  "mediantime": 1517504795,
  "nonce": 6057865,
  "bits": "1a04088e",
  "difficulty": 4159490.835685156,
  "chainwork": "000000000000000000000000000000000000000000000035724f640c4acda740",
  "previousblockhash": "03b1e330d4ea89cc82ce34ab794c5968751a9dc00e5f176ccd1d0fa6fd089963",
  "nextblockhash": "1892d7a9195966e4da170484f0c3a0814287f73cad1208811f1c6f1b6ef4a561"
}
