{
  "hash": "ef424031d80ab13c04fb568749a6ec4126f605cbcdb29e9c4182e3edfd91d1ab",
  "confirmations": 3280,
  "strippedsize": 3815,
  "size": 3851,
  "weight": 15296,
  "height": 1357715,
  "version": 536870912,
  "versionHex": "20000000",
  "merkleroot": "c18adabbcf9e18a1711500f481497c3df6bf32db6ab5b09c8ed1a6494b9748d7",
  "tx": [
    {
      "txid": "d46ca16840286cc368ea292e3b7948c130349bb490728ed0f45ab6322f7d07d6",
      "hash": "bf45427de85b55d0705c20ecf741d1b64572078815bd7b98b78e5d7e958432fc",
      "version": 1,
      "size": 236,
      "vsize": 209,
      "locktime": 0,
      "vin": [
        {
          "coinbase": "0393b714045a6c2be02cfabe6d6d76d770d112ac13321902adfcda479ac5f6f4109d984d344df6129a6f3930ef554000000000000000042f4c502f0816001aa509000000",
          "sequence": 4294967295
        }
      ],
      "vout": [
        {
          "value": 25.00419200,
          "n": 0,
          "scriptPubKey": {
            "asm": "OP_DUP OP_HASH160 57757ed2ecf2052ff3126c397aca7defb9ca2cec OP_EQUALVERIFY OP_CHECKSIG",
            "hex": "76a91457757ed2ecf2052ff3126c397aca7defb9ca2cec88ac",
            "reqSigs": 1,
            "type": "pubkeyhash",
            "addresses": [
              "LTCPodGk5FwcJaRzH9yKnwicxzFUbxp6tN"
            ]
          }
        }, 
        {
          "value": 0.00000000,
          "n": 1,
          "scriptPubKey": {
            "asm": "OP_RETURN aa21a9ed6c217285b9e639f26921a9e06b9850ccba07f67f8f1f229afdfb6f4c2cd23bff",
            "hex": "6a24aa21a9ed6c217285b9e639f26921a9e06b9850ccba07f67f8f1f229afdfb6f4c2cd23bff",
            "type": "nulldata"
          }
        }
      ],
      "hex": "010000000001010000000000000000000000000000000000000000000000000000000000000000ffffffff440393b714045a6c2be02cfabe6d6d76d770d112ac13321902adfcda479ac5f6f4109d984d344df6129a6f3930ef554000000000000000042f4c502f0816001aa509000000ffffffff02805e0995000000001976a91457757ed2ecf2052ff3126c397aca7defb9ca2cec88ac0000000000000000266a24aa21a9ed6c217285b9e639f26921a9e06b9850ccba07f67f8f1f229afdfb6f4c2cd23bff0120000000000000000000000000000000000000000000000000000000000000000000000000"
    }, 
    {
      "txid": "cb32d71d2cf42be528bd2e83a4c666220cde2acc77a4abcb461237643d7154e2",
      "hash": "cb32d71d2cf42be528bd2e83a4c666220cde2acc77a4abcb461237643d7154e2",
      "version": 1,
      "size": 1262,
      "vsize": 1262,
      "locktime": 1357713,
      "vin": [
        {
          "txid": "cdaed47c891c18d374e27d8f402132d2777041d920d77f314d6b40045f332185",
          "vout": 486,
          "scriptSig": {
            "asm": "3045022100a596cc154e17f393c56a67abed34af28f891155622f7cb4cb95b3c12cfad1b4b022025e995552a85d21f7b31779311d6cd1cea021151269d87703ee0c9eba4964048[ALL] 0205b4ce8991efdb937ea64e00fb7c6a1592410ccee12166d2191f85fe3f6c2809",
            "hex": "483045022100a596cc154e17f393c56a67abed34af28f891155622f7cb4cb95b3c12cfad1b4b022025e995552a85d21f7b31779311d6cd1cea021151269d87703ee0c9eba496404801210205b4ce8991efdb937ea64e00fb7c6a1592410ccee12166d2191f85fe3f6c2809"
          },
          "sequence": 4294967294
        }, 
        {
          "txid": "cdaed47c891c18d374e27d8f402132d2777041d920d77f314d6b40045f332185",
          "vout": 491,
          "scriptSig": {
            "asm": "304502210087b383e6248672181763d1efbffa0e6bfa265d3ae0b7e2002d0a83e74fac64790220204c6661af0a373eee7b120d1965b6f031b94436860885987c510f313abecf20[ALL] 038edcb49517222edce79cbd6a731580494373f56ca3fb72ee2d346f2913a0a0f7",
            "hex": "48304502210087b383e6248672181763d1efbffa0e6bfa265d3ae0b7e2002d0a83e74fac64790220204c6661af0a373eee7b120d1965b6f031b94436860885987c510f313abecf200121038edcb49517222edce79cbd6a731580494373f56ca3fb72ee2d346f2913a0a0f7"
          },
          "sequence": 4294967294
        }, 
        {
          "txid": "810feae71419d879ed0f264d152151437a9af548d2288c97818ae399c6030e09",
          "vout": 276,
          "scriptSig": {
            "asm": "3045022100a3d2882abc09a4ff9b73bed92492dd10285e8757a8fa2382f87d4c224e25d5d20220301f2b465bd429b89d697791c99ec5c3150c64224ca72af2fffd60ea33e3357d[ALL] 03ab8b7bb0be185dd22716e172297cdba09dd4b6f49d5a0f63f38c7fd6d1ca2d5c",
            "hex": "483045022100a3d2882abc09a4ff9b73bed92492dd10285e8757a8fa2382f87d4c224e25d5d20220301f2b465bd429b89d697791c99ec5c3150c64224ca72af2fffd60ea33e3357d012103ab8b7bb0be185dd22716e172297cdba09dd4b6f49d5a0f63f38c7fd6d1ca2d5c"
          },
          "sequence": 4294967294
        }, 
        {
          "txid": "93017cb9777fa99560f4ab37bf6f5c5b75b04ab5eda34f9e2b8fc609466c18aa",
          "vout": 13,
          "scriptSig": {
            "asm": "30450221008fe5d55f174ddff70b2b1d9ff07bd2b1199c584bebd30e6f9d0fffda519f2b7502207092296950497a76a8c3c9512716ccba60bb1368a1fec76e61ba9ca67c08b724[ALL] 029e9b399829999da64882bd7e48fa00e147a85020369babdd5cfd870ee7dbbe25",
            "hex": "4830450221008fe5d55f174ddff70b2b1d9ff07bd2b1199c584bebd30e6f9d0fffda519f2b7502207092296950497a76a8c3c9512716ccba60bb1368a1fec76e61ba9ca67c08b7240121029e9b399829999da64882bd7e48fa00e147a85020369babdd5cfd870ee7dbbe25"
          },
          "sequence": 4294967294
        }, 
        {
          "txid": "fa2a451132581fb326de56a1e85d26c15076c14ea24042dc0126443b7ed18ee8",
          "vout": 1,
          "scriptSig": {
            "asm": "3045022100a9137565fda802b4425126a9563562982667fa3e12e980b8e9aaa34726068b4302203cccbfc7924404e70ef97c0419d503bbe8358971d1f721a6f19fd614732050eb[ALL] 0301c1249782819879c21c3dbf465eda6e283529103776c0a0c44dd567340f44d2",
            "hex": "483045022100a9137565fda802b4425126a9563562982667fa3e12e980b8e9aaa34726068b4302203cccbfc7924404e70ef97c0419d503bbe8358971d1f721a6f19fd614732050eb01210301c1249782819879c21c3dbf465eda6e283529103776c0a0c44dd567340f44d2"
          },
          "sequence": 4294967294
        }, 
        {
          "txid": "4c19ab8ff95915c9e0647417e859d7baa4ff76d433fe46eeb7aae4858e73e613",
          "vout": 167,
          "scriptSig": {
            "asm": "30450221008de734f308206fa0468951f4671fecd660f982412e29d3c617b8d9831feb310c0220609e3e4370843b085bded36d598fdb8f9733e5f17e4dcd0623ddd7161fef8199[ALL] 0246751d9189f64a92e2a8178a89a64601fe489954b59bdc0f5db9e825e4c37dab",
            "hex": "4830450221008de734f308206fa0468951f4671fecd660f982412e29d3c617b8d9831feb310c0220609e3e4370843b085bded36d598fdb8f9733e5f17e4dcd0623ddd7161fef819901210246751d9189f64a92e2a8178a89a64601fe489954b59bdc0f5db9e825e4c37dab"
          },
          "sequence": 4294967294
        }, 
        {
          "txid": "17defa07271100557bacbcd5fd7acbe62c0378f56f63530516605d5d39f2d1c3",
          "vout": 2,
          "scriptSig": {
            "asm": "3045022100f6180af4c4310584cf48f3db531763f839529ba718522efd550def6c36bb7dad022032cacb55b173619d25521e16257559d0e2f61ba0cd78795127a0cdd50f70c178[ALL] 03a41f04e6ec8abe434e2f4cfabcffa81afe8cc0ab42cf10ec4425769982e6bf92",
            "hex": "483045022100f6180af4c4310584cf48f3db531763f839529ba718522efd550def6c36bb7dad022032cacb55b173619d25521e16257559d0e2f61ba0cd78795127a0cdd50f70c178012103a41f04e6ec8abe434e2f4cfabcffa81afe8cc0ab42cf10ec4425769982e6bf92"
          },
          "sequence": 4294967294
        }, 
        {
          "txid": "573c9fae75eb51129b02b68e160ed679f9a2acd2087743f7ea0a6ee08d18d6d6",
          "vout": 0,
          "scriptSig": {
            "asm": "3045022100ea178ca661e1f0da294f86a00e1a4f36098070f246a8449fb3a4705d49cb331702207938148bf4285522e4cb04ef30720b56118a88cf9f28db96e49158d5f4c04ab0[ALL] 03811369c549320acedf1852ee53162a337d80c5ebe7916a91eb479da86c3f188b",
            "hex": "483045022100ea178ca661e1f0da294f86a00e1a4f36098070f246a8449fb3a4705d49cb331702207938148bf4285522e4cb04ef30720b56118a88cf9f28db96e49158d5f4c04ab0012103811369c549320acedf1852ee53162a337d80c5ebe7916a91eb479da86c3f188b"
          },
          "sequence": 4294967294
        }
      ],
      "vout": [
        {
          "value": 25.04000000,
          "n": 0,
          "scriptPubKey": {
            "asm": "OP_DUP OP_HASH160 afb6beb5ecc8b8ad57e4275340389c648c75822a OP_EQUALVERIFY OP_CHECKSIG",
            "hex": "76a914afb6beb5ecc8b8ad57e4275340389c648c75822a88ac",
            "reqSigs": 1,
            "type": "pubkeyhash",
            "addresses": [
              "LbF3S8G78zwuCCCdQQQRyLHDgFoBWqUk4P"
            ]
          }
        }, 
        {
          "value": 0.01005374,
          "n": 1,
          "scriptPubKey": {
            "asm": "OP_DUP OP_HASH160 41ff09056fc4db2ccc310c0b102dde9f3db4dca4 OP_EQUALVERIFY OP_CHECKSIG",
            "hex": "76a91441ff09056fc4db2ccc310c0b102dde9f3db4dca488ac",
            "reqSigs": 1,
            "type": "pubkeyhash",
            "addresses": [
              "LREuhqjbfvcVm6oYTDU61YEk5QxzvgZMYa"
            ]
          }
        }
      ],
      "hex": "01000000088521335f04406b4d317fd720d9417077d23221408f7de274d3181c897cd4aecde60100006b483045022100a596cc154e17f393c56a67abed34af28f891155622f7cb4cb95b3c12cfad1b4b022025e995552a85d21f7b31779311d6cd1cea021151269d87703ee0c9eba496404801210205b4ce8991efdb937ea64e00fb7c6a1592410ccee12166d2191f85fe3f6c2809feffffff8521335f04406b4d317fd720d9417077d23221408f7de274d3181c897cd4aecdeb0100006b48304502210087b383e6248672181763d1efbffa0e6bfa265d3ae0b7e2002d0a83e74fac64790220204c6661af0a373eee7b120d1965b6f031b94436860885987c510f313abecf200121038edcb49517222edce79cbd6a731580494373f56ca3fb72ee2d346f2913a0a0f7feffffff090e03c699e38a81978c28d248f59a7a435121154d260fed79d81914e7ea0f81140100006b483045022100a3d2882abc09a4ff9b73bed92492dd10285e8757a8fa2382f87d4c224e25d5d20220301f2b465bd429b89d697791c99ec5c3150c64224ca72af2fffd60ea33e3357d012103ab8b7bb0be185dd22716e172297cdba09dd4b6f49d5a0f63f38c7fd6d1ca2d5cfeffffffaa186c4609c68f2b9e4fa3edb54ab0755b5c6fbf37abf46095a97f77b97c01930d0000006b4830450221008fe5d55f174ddff70b2b1d9ff07bd2b1199c584bebd30e6f9d0fffda519f2b7502207092296950497a76a8c3c9512716ccba60bb1368a1fec76e61ba9ca67c08b7240121029e9b399829999da64882bd7e48fa00e147a85020369babdd5cfd870ee7dbbe25feffffffe88ed17e3b442601dc4240a24ec17650c1265de8a156de26b31f583211452afa010000006b483045022100a9137565fda802b4425126a9563562982667fa3e12e980b8e9aaa34726068b4302203cccbfc7924404e70ef97c0419d503bbe8358971d1f721a6f19fd614732050eb01210301c1249782819879c21c3dbf465eda6e283529103776c0a0c44dd567340f44d2feffffff13e6738e85e4aab7ee46fe33d476ffa4bad759e8177464e0c91559f98fab194ca70000006b4830450221008de734f308206fa0468951f4671fecd660f982412e29d3c617b8d9831feb310c0220609e3e4370843b085bded36d598fdb8f9733e5f17e4dcd0623ddd7161fef819901210246751d9189f64a92e2a8178a89a64601fe489954b59bdc0f5db9e825e4c37dabfeffffffc3d1f2395d5d60160553636ff578032ce6cb7afdd5bcac7b5500112707fade17020000006b483045022100f6180af4c4310584cf48f3db531763f839529ba718522efd550def6c36bb7dad022032cacb55b173619d25521e16257559d0e2f61ba0cd78795127a0cdd50f70c178012103a41f04e6ec8abe434e2f4cfabcffa81afe8cc0ab42cf10ec4425769982e6bf92feffffffd6d6188de06e0aeaf7437708d2aca2f979d60e168eb6029b1251eb75ae9f3c57000000006b483045022100ea178ca661e1f0da294f86a00e1a4f36098070f246a8449fb3a4705d49cb331702207938148bf4285522e4cb04ef30720b56118a88cf9f28db96e49158d5f4c04ab0012103811369c549320acedf1852ee53162a337d80c5ebe7916a91eb479da86c3f188bfeffffff0200024095000000001976a914afb6beb5ecc8b8ad57e4275340389c648c75822a88ac3e570f00000000001976a91441ff09056fc4db2ccc310c0b102dde9f3db4dca488ac91b71400"
    }, 
    {
      "txid": "534a1b6f2c56993c059584e666da265b134496efb727d7e93bfa3c7162001811",
      "hash": "534a1b6f2c56993c059584e666da265b134496efb727d7e93bfa3c7162001811",
      "version": 2,
      "size": 223,
      "vsize": 223,
      "locktime": 1357713,
      "vin": [
        {
          "txid": "7179f17639fe1fae938a8daa68cf98dbf9a8748ca7386f1d7ed1210a8a6b4541",
          "vout": 0,
          "scriptSig": {
            "asm": "304402207dcce424796f14a372a8ea758c5eb05dee3df25cc30587f21affabffe68957fa022064fe5e99f68a4358d717595e632d65f7f191f9e4404721602519a2d551c27028[ALL] 036449ce0de25d35aaf3366c0e1d160cf91399c6f0e3000e30414c44ee69e23548",
            "hex": "47304402207dcce424796f14a372a8ea758c5eb05dee3df25cc30587f21affabffe68957fa022064fe5e99f68a4358d717595e632d65f7f191f9e4404721602519a2d551c270280121036449ce0de25d35aaf3366c0e1d160cf91399c6f0e3000e30414c44ee69e23548"
          },
          "sequence": 4294967294
        }
      ],
      "vout": [
        {
          "value": 0.05340000,
          "n": 0,
          "scriptPubKey": {
            "asm": "OP_HASH160 e416648394664a689a158fefcdaddc449a363da6 OP_EQUAL",
            "hex": "a914e416648394664a689a158fefcdaddc449a363da687",
            "reqSigs": 1,
            "type": "scripthash",
            "addresses": [
              "MUhB82yjaQ8tHZ5wRSwbqbnFpFLmYCtX3y"
            ]
          }
        }, 
        {
          "value": 17.26366600,
          "n": 1,
          "scriptPubKey": {
            "asm": "OP_DUP OP_HASH160 04d1a72e57d7e52295ada260be3c384d8d67b07b OP_EQUALVERIFY OP_CHECKSIG",
            "hex": "76a91404d1a72e57d7e52295ada260be3c384d8d67b07b88ac",
            "reqSigs": 1,
            "type": "pubkeyhash",
            "addresses": [
              "LKfS7vsieEr5CJAcqvHKnn6v3T4QJWxCNY"
            ]
          }
        }
      ],
      "hex": "020000000141456b8a0a21d17e1d6f38a78c74a8f9db98cf68aa8d8a93ae1ffe3976f17971000000006a47304402207dcce424796f14a372a8ea758c5eb05dee3df25cc30587f21affabffe68957fa022064fe5e99f68a4358d717595e632d65f7f191f9e4404721602519a2d551c270280121036449ce0de25d35aaf3366c0e1d160cf91399c6f0e3000e30414c44ee69e23548feffffff02607b51000000000017a914e416648394664a689a158fefcdaddc449a363da6878843e666000000001976a91404d1a72e57d7e52295ada260be3c384d8d67b07b88ac91b71400"
    }, 
    {
      "txid": "b7c1bf509d4608b8e0407817fdea3ea2e2c8ab6574fa103b56fd7e7019214f6c",
      "hash": "b7c1bf509d4608b8e0407817fdea3ea2e2c8ab6574fa103b56fd7e7019214f6c",
      "version": 2,
      "size": 225,
      "vsize": 225,
      "locktime": 1357713,
      "vin": [
        {
          "txid": "b754a1c2ff0e81773cb2fb3c7bccba4ef73a859988e5774dd2cc3f154616190c",
          "vout": 0,
          "scriptSig": {
            "asm": "3044022034ea14d03d70a54cae31e125ecade0570b5bdacd2c9d439128abdb49300a9909022037d938f61e8a0aebbe3bf9ccbea8e77d8004a1588a3c1b8d41a6b0936f8d2b99[ALL] 02e0c067d8816a576e10f8ba13ba588cc1c3f3463a398a9551b8a394346f6d2df9",
            "hex": "473044022034ea14d03d70a54cae31e125ecade0570b5bdacd2c9d439128abdb49300a9909022037d938f61e8a0aebbe3bf9ccbea8e77d8004a1588a3c1b8d41a6b0936f8d2b99012102e0c067d8816a576e10f8ba13ba588cc1c3f3463a398a9551b8a394346f6d2df9"
          },
          "sequence": 4294967294
        }
      ],
      "vout": [
        {
          "value": 10.94006800,
          "n": 0,
          "scriptPubKey": {
            "asm": "OP_DUP OP_HASH160 36b1fb679b5284eed023ddba62e8e590cc89386f OP_EQUALVERIFY OP_CHECKSIG",
            "hex": "76a91436b1fb679b5284eed023ddba62e8e590cc89386f88ac",
            "reqSigs": 1,
            "type": "pubkeyhash",
            "addresses": [
              "LQD9xysu698HHW1vCZ4Kgrh1zFibCg5cWU"
            ]
          }
        }, 
        {
          "value": 0.05640000,
          "n": 1,
          "scriptPubKey": {
            "asm": "OP_DUP OP_HASH160 9e0486b73bf3e8473118164664d74e948d0e8c70 OP_EQUALVERIFY OP_CHECKSIG",
            "hex": "76a9149e0486b73bf3e8473118164664d74e948d0e8c7088ac",
            "reqSigs": 1,
            "type": "pubkeyhash",
            "addresses": [
              "LZdUT1ZLztcQXpe9XgM8G9yc8QnkZnfQNy"
            ]
          }
        }
      ],
      "hex": "02000000010c191646153fccd24d77e58899853af74ebacc7b3cfbb23c77810effc2a154b7000000006a473044022034ea14d03d70a54cae31e125ecade0570b5bdacd2c9d439128abdb49300a9909022037d938f61e8a0aebbe3bf9ccbea8e77d8004a1588a3c1b8d41a6b0936f8d2b99012102e0c067d8816a576e10f8ba13ba588cc1c3f3463a398a9551b8a394346f6d2df9feffffff0210383541000000001976a91436b1fb679b5284eed023ddba62e8e590cc89386f88ac400f5600000000001976a9149e0486b73bf3e8473118164664d74e948d0e8c7088ac91b71400"
    }, 
    {
      "txid": "cb63a360366b17678adb1287238beebc7b0c301cfb0ce080ead39a754b1a4f36",
      "hash": "cb63a360366b17678adb1287238beebc7b0c301cfb0ce080ead39a754b1a4f36",
      "version": 1,
      "size": 521,
      "vsize": 521,
      "locktime": 1357713,
      "vin": [
        {
          "txid": "fdd8fc577e94fb250ac9c5609d72bf35349960c4229da1d9790149d403350966",
          "vout": 413,
          "scriptSig": {
            "asm": "304402200624cc5981c6882e6361bf88d1adca3071a21d19c5bad70fa1c303f1a640d0d002201f1200ce98881e27155936e89acde57ccb6b7f3a50e4ca8db3b2c10756bf8284[ALL] 027847f7ed551364894ed623292037bfdd06e13fb1682c4971582b45c1c0077c86",
            "hex": "47304402200624cc5981c6882e6361bf88d1adca3071a21d19c5bad70fa1c303f1a640d0d002201f1200ce98881e27155936e89acde57ccb6b7f3a50e4ca8db3b2c10756bf82840121027847f7ed551364894ed623292037bfdd06e13fb1682c4971582b45c1c0077c86"
          },
          "sequence": 4294967294
        }, 
        {
          "txid": "810feae71419d879ed0f264d152151437a9af548d2288c97818ae399c6030e09",
          "vout": 169,
          "scriptSig": {
            "asm": "3045022100d4d6053550a6b5bf7a58eed8ee2713d8196972b44cd42709572ebc9aac40450f0220775db08a7dc8e0b7b9a8f75d648169f25318b75241ef71446b9beddbc6e3de41[ALL] 0257da7d8482e03f7235ef9231da48c7f590baae39f01e83bc0c6d58de7a5f837b",
            "hex": "483045022100d4d6053550a6b5bf7a58eed8ee2713d8196972b44cd42709572ebc9aac40450f0220775db08a7dc8e0b7b9a8f75d648169f25318b75241ef71446b9beddbc6e3de4101210257da7d8482e03f7235ef9231da48c7f590baae39f01e83bc0c6d58de7a5f837b"
          },
          "sequence": 4294967294
        }, 
        {
          "txid": "e268831aee4e10c53ad5576dff305501d6f1dc16d545d0b9223e639fca275d1d",
          "vout": 1,
          "scriptSig": {
            "asm": "3045022100a54520ec8ab9bdaf60978ea00fc8a29503cd62ff44525473d85be1fca037b2f6022029b96be03afab33df8f64fc1c9e85174d7760ba851e726cc712ac2369c4a60c6[ALL] 0241a1df5f7dedcf3ccdbf38cbbca65641ad72621d4e4fb5bb8a3e133dbaded3c9",
            "hex": "483045022100a54520ec8ab9bdaf60978ea00fc8a29503cd62ff44525473d85be1fca037b2f6022029b96be03afab33df8f64fc1c9e85174d7760ba851e726cc712ac2369c4a60c601210241a1df5f7dedcf3ccdbf38cbbca65641ad72621d4e4fb5bb8a3e133dbaded3c9"
          },
          "sequence": 4294967294
        }
      ],
      "vout": [
        {
          "value": 0.01127609,
          "n": 0,
          "scriptPubKey": {
            "asm": "OP_DUP OP_HASH160 21a2e3a93352ed1a64c3425fb8854d5bef95db1e OP_EQUALVERIFY OP_CHECKSIG",
            "hex": "76a91421a2e3a93352ed1a64c3425fb8854d5bef95db1e88ac",
            "reqSigs": 1,
            "type": "pubkeyhash",
            "addresses": [
              "LNHohHoGUjzpfrME1JhzHgXVqzQqhmVypC"
            ]
          }
        }, 
        {
          "value": 0.20000000,
          "n": 1,
          "scriptPubKey": {
            "asm": "OP_DUP OP_HASH160 aae7db21e10dbb65a80d2d1d1d5ada94bdd9b0de OP_EQUALVERIFY OP_CHECKSIG",
            "hex": "76a914aae7db21e10dbb65a80d2d1d1d5ada94bdd9b0de88ac",
            "reqSigs": 1,
            "type": "pubkeyhash",
            "addresses": [
              "LaoctTfMCQNnWKnkoL3SHQar8o2nTNed3K"
            ]
          }
        }
      ],
      "hex": "010000000366093503d4490179d9a19d22c460993435bf729d60c5c90a25fb947e57fcd8fd9d0100006a47304402200624cc5981c6882e6361bf88d1adca3071a21d19c5bad70fa1c303f1a640d0d002201f1200ce98881e27155936e89acde57ccb6b7f3a50e4ca8db3b2c10756bf82840121027847f7ed551364894ed623292037bfdd06e13fb1682c4971582b45c1c0077c86feffffff090e03c699e38a81978c28d248f59a7a435121154d260fed79d81914e7ea0f81a90000006b483045022100d4d6053550a6b5bf7a58eed8ee2713d8196972b44cd42709572ebc9aac40450f0220775db08a7dc8e0b7b9a8f75d648169f25318b75241ef71446b9beddbc6e3de4101210257da7d8482e03f7235ef9231da48c7f590baae39f01e83bc0c6d58de7a5f837bfeffffff1d5d27ca9f633e22b9d045d516dcf1d6015530ff6d57d53ac5104eee1a8368e2010000006b483045022100a54520ec8ab9bdaf60978ea00fc8a29503cd62ff44525473d85be1fca037b2f6022029b96be03afab33df8f64fc1c9e85174d7760ba851e726cc712ac2369c4a60c601210241a1df5f7dedcf3ccdbf38cbbca65641ad72621d4e4fb5bb8a3e133dbaded3c9feffffff02b9341100000000001976a91421a2e3a93352ed1a64c3425fb8854d5bef95db1e88ac002d3101000000001976a914aae7db21e10dbb65a80d2d1d1d5ada94bdd9b0de88ac91b71400"
    }, 
    {
      "txid": "6c954511905d54afe55360faf7b9478b8ffd99385211b67a105a7d6918a7cce6",
      "hash": "6c954511905d54afe55360faf7b9478b8ffd99385211b67a105a7d6918a7cce6",
      "version": 2,
      "size": 226,
      "vsize": 226,
      "locktime": 1357713,
      "vin": [
        {
          "txid": "cf2e58eee8da5b04f5d5117c7c6835782009126e3151b25062371670f2d1142c",
          "vout": 0,
          "scriptSig": {
            "asm": "3045022100931390255af4b2aa91da20abf021dbec6414b59a8683e63fdafbbab942deb06602200ee8c2a851ad84d1f1b6adfb72a024618baa7d8d31f1217ec0e6d8921a410104[ALL] 02901778d59412f834b794036ac77c48dbc8c302f1acad074e6286674ac27f8e4f",
            "hex": "483045022100931390255af4b2aa91da20abf021dbec6414b59a8683e63fdafbbab942deb06602200ee8c2a851ad84d1f1b6adfb72a024618baa7d8d31f1217ec0e6d8921a410104012102901778d59412f834b794036ac77c48dbc8c302f1acad074e6286674ac27f8e4f"
          },
          "sequence": 4294967294
        }
      ],
      "vout": [
        {
          "value": 0.05640000,
          "n": 0,
          "scriptPubKey": {
            "asm": "OP_DUP OP_HASH160 9e0486b73bf3e8473118164664d74e948d0e8c70 OP_EQUALVERIFY OP_CHECKSIG",
            "hex": "76a9149e0486b73bf3e8473118164664d74e948d0e8c7088ac",
            "reqSigs": 1,
            "type": "pubkeyhash",
            "addresses": [
              "LZdUT1ZLztcQXpe9XgM8G9yc8QnkZnfQNy"
            ]
          }
        }, 
        {
          "value": 14.89363000,
          "n": 1,
          "scriptPubKey": {
            "asm": "OP_DUP OP_HASH160 efa96ff50335f8db97a8e8658cc4b2b7fac0f97b OP_EQUALVERIFY OP_CHECKSIG",
            "hex": "76a914efa96ff50335f8db97a8e8658cc4b2b7fac0f97b88ac",
            "reqSigs": 1,
            "type": "pubkeyhash",
            "addresses": [
              "Lh5AjmmhSDvRz3J2E2jkfmRtNLvSg78vny"
            ]
          }
        }
      ],
      "hex": "02000000012c14d1f27016376250b251316e1209207835687c7c11d5f5045bdae8ee582ecf000000006b483045022100931390255af4b2aa91da20abf021dbec6414b59a8683e63fdafbbab942deb06602200ee8c2a851ad84d1f1b6adfb72a024618baa7d8d31f1217ec0e6d8921a410104012102901778d59412f834b794036ac77c48dbc8c302f1acad074e6286674ac27f8e4ffeffffff02400f5600000000001976a9149e0486b73bf3e8473118164664d74e948d0e8c7088ac38e0c558000000001976a914efa96ff50335f8db97a8e8658cc4b2b7fac0f97b88ac91b71400"
    }, 
    {
      "txid": "80b66c09510a309d8d9faaf36a468a21de1b3503377f0a5daf2f470b5efca888",
      "hash": "80b66c09510a309d8d9faaf36a468a21de1b3503377f0a5daf2f470b5efca888",
      "version": 1,
      "size": 1077,
      "vsize": 1077,
      "locktime": 0,
      "vin": [
        {
          "txid": "f9752ca0273dc52f2101cf306a82d110b132a9069d60d354e13b96269dbbb5c3",
          "vout": 0,
          "scriptSig": {
            "asm": "3045022100ed82c38541f51d4e3a71d869531e40b66524053b6311571bf942be361d453e2602204c79ffab8dd69fe323cccc6aed519dabe0f912c6951f1e29df956af90bbae2a2[ALL] 026ecc2529265e448f7fb0cb9f6088072fbd20f1670a2d4b781ab5d90bd2cae8cb",
            "hex": "483045022100ed82c38541f51d4e3a71d869531e40b66524053b6311571bf942be361d453e2602204c79ffab8dd69fe323cccc6aed519dabe0f912c6951f1e29df956af90bbae2a20121026ecc2529265e448f7fb0cb9f6088072fbd20f1670a2d4b781ab5d90bd2cae8cb"
          },
          "sequence": 4294967295
        }, 
        {
          "txid": "cfaf57fccb1a7b90e13e34a040bf31aba5be71be1105d4caa0e03893d788402e",
          "vout": 1,
          "scriptSig": {
            "asm": "3045022100a20a5677b009ac6eb7825729a489a269a2453fafec65ba718edaa7216f2b85a50220628dd1c240ba8db772245b52a80d5384f607fe1501439440d1be68fdd8c0ef14[ALL] 02baaaee9b5ea34613800c282499a6d8f20c2c975e8c761aaac09ebb946bb4067f",
            "hex": "483045022100a20a5677b009ac6eb7825729a489a269a2453fafec65ba718edaa7216f2b85a50220628dd1c240ba8db772245b52a80d5384f607fe1501439440d1be68fdd8c0ef14012102baaaee9b5ea34613800c282499a6d8f20c2c975e8c761aaac09ebb946bb4067f"
          },
          "sequence": 4294967295
        }, 
        {
          "txid": "75c90eaf15845d3e7393d1cf89d586b37ab5f1be979bef5b54366a94869cbd5c",
          "vout": 0,
          "scriptSig": {
            "asm": "3044022014448c1df2b9315226640da012b882896617757a701ce63436ca3092f050fdad0220517c51b4c6cb718feb5716e95c7f9021b4602c7a242b5b685a6a42f56c8baf7e[ALL] 038708c38345190ca451dda310f165a74aef8199d45a9c38b0e4bd9851d9486bab",
            "hex": "473044022014448c1df2b9315226640da012b882896617757a701ce63436ca3092f050fdad0220517c51b4c6cb718feb5716e95c7f9021b4602c7a242b5b685a6a42f56c8baf7e0121038708c38345190ca451dda310f165a74aef8199d45a9c38b0e4bd9851d9486bab"
          },
          "sequence": 4294967295
        }, 
        {
          "txid": "6b2d85bf2d38d7692f0f1350574980ab7a967c03afaa56aa2d5385765658fc70",
          "vout": 0,
          "scriptSig": {
            "asm": "304402204b13eac18c23ef677b79bf5176ddcf0544fbfc46465a072f358430fb012160fe022059cea833bf1aad9149029b9c43e712d0d69a59f0343a7a14b5ed4e21f28e4e3e[ALL] 02baaaee9b5ea34613800c282499a6d8f20c2c975e8c761aaac09ebb946bb4067f",
            "hex": "47304402204b13eac18c23ef677b79bf5176ddcf0544fbfc46465a072f358430fb012160fe022059cea833bf1aad9149029b9c43e712d0d69a59f0343a7a14b5ed4e21f28e4e3e012102baaaee9b5ea34613800c282499a6d8f20c2c975e8c761aaac09ebb946bb4067f"
          },
          "sequence": 4294967295
        }, 
        {
          "txid": "e18e72d933141fe6d82307300ac1c0e11b0651b8d224481d7f4739fae9caabe9",
          "vout": 5,
          "scriptSig": {
            "asm": "304402207ceb045b3157bcccdb687e63e0f65ab6a697f35af7a0c9cc045693ddca1ea79402205c2d166c8ae9e99eb9fc41d5736f9abbf81e0a32301165eae3d4bdf915576fcd[ALL] 033830e5cc5aa03476da3e7bf92432084b74adbc157c81694c985c24990a50da00",
            "hex": "47304402207ceb045b3157bcccdb687e63e0f65ab6a697f35af7a0c9cc045693ddca1ea79402205c2d166c8ae9e99eb9fc41d5736f9abbf81e0a32301165eae3d4bdf915576fcd0121033830e5cc5aa03476da3e7bf92432084b74adbc157c81694c985c24990a50da00"
          },
          "sequence": 4294967295
        }, 
        {
          "txid": "a37d055266f5ae5ec2afb8ad3b273adc79af43713ccd3baf4ba2c44be7d1bafe",
          "vout": 1,
          "scriptSig": {
            "asm": "3045022100a488c939e67116fada5019817b5eb74a40eb64da04e9940741e78d4a84f892820220094b8e49747552db3bd321695a2b75f9abebff88e4601fda9b2bafee0e665263[ALL] 039618e62f84b10d96b02acb09c81e67f21feabb97746356d0e7d71db44041fb68",
            "hex": "483045022100a488c939e67116fada5019817b5eb74a40eb64da04e9940741e78d4a84f892820220094b8e49747552db3bd321695a2b75f9abebff88e4601fda9b2bafee0e6652630121039618e62f84b10d96b02acb09c81e67f21feabb97746356d0e7d71db44041fb68"
          },
          "sequence": 4294967295
        }, 
        {
          "txid": "ead7e0373354a181224e37333e2506862bd9ec0f68b32d3e0b13825b94d8a0cd",
          "vout": 1,
          "scriptSig": {
            "asm": "3045022100b1dc16d5a27626a03edc972d923886cd85a2e65877166cc32cfe608aa094abf402202f2f6badf1dfd65b753c0ed66f7a1783860321b91e8627d5b07b958856c8578b[ALL] 0280e64080461e02b3f86e22a606acf0f02ad3eacb9f1234f37f2862eb569accb2",
            "hex": "483045022100b1dc16d5a27626a03edc972d923886cd85a2e65877166cc32cfe608aa094abf402202f2f6badf1dfd65b753c0ed66f7a1783860321b91e8627d5b07b958856c8578b01210280e64080461e02b3f86e22a606acf0f02ad3eacb9f1234f37f2862eb569accb2"
          },
          "sequence": 4294967295
        }
      ],
      "vout": [
        {
          "value": 38.88825317,
          "n": 0,
          "scriptPubKey": {
            "asm": "OP_DUP OP_HASH160 6c2614c7b45ef8dfa8dc83e6739ddbe201d05ab0 OP_EQUALVERIFY OP_CHECKSIG",
            "hex": "76a9146c2614c7b45ef8dfa8dc83e6739ddbe201d05ab088ac",
            "reqSigs": 1,
            "type": "pubkeyhash",
            "addresses": [
              "LV5nrreyVZJVvptA9PZSD4ViegKh7Qa8MA"
            ]
          }
        }
      ],
      "hex": "0100000007c3b5bb9d26963be154d3609d06a932b110d1826a30cf01212fc53d27a02c75f9000000006b483045022100ed82c38541f51d4e3a71d869531e40b66524053b6311571bf942be361d453e2602204c79ffab8dd69fe323cccc6aed519dabe0f912c6951f1e29df956af90bbae2a20121026ecc2529265e448f7fb0cb9f6088072fbd20f1670a2d4b781ab5d90bd2cae8cbffffffff2e4088d79338e0a0cad40511be71bea5ab31bf40a0343ee1907b1acbfc57afcf010000006b483045022100a20a5677b009ac6eb7825729a489a269a2453fafec65ba718edaa7216f2b85a50220628dd1c240ba8db772245b52a80d5384f607fe1501439440d1be68fdd8c0ef14012102baaaee9b5ea34613800c282499a6d8f20c2c975e8c761aaac09ebb946bb4067fffffffff5cbd9c86946a36545bef9b97bef1b57ab386d589cfd193733e5d8415af0ec975000000006a473044022014448c1df2b9315226640da012b882896617757a701ce63436ca3092f050fdad0220517c51b4c6cb718feb5716e95c7f9021b4602c7a242b5b685a6a42f56c8baf7e0121038708c38345190ca451dda310f165a74aef8199d45a9c38b0e4bd9851d9486babffffffff70fc58567685532daa56aaaf037c967aab80495750130f2f69d7382dbf852d6b000000006a47304402204b13eac18c23ef677b79bf5176ddcf0544fbfc46465a072f358430fb012160fe022059cea833bf1aad9149029b9c43e712d0d69a59f0343a7a14b5ed4e21f28e4e3e012102baaaee9b5ea34613800c282499a6d8f20c2c975e8c761aaac09ebb946bb4067fffffffffe9abcae9fa39477f1d4824d2b851061be1c0c10a300723d8e61f1433d9728ee1050000006a47304402207ceb045b3157bcccdb687e63e0f65ab6a697f35af7a0c9cc045693ddca1ea79402205c2d166c8ae9e99eb9fc41d5736f9abbf81e0a32301165eae3d4bdf915576fcd0121033830e5cc5aa03476da3e7bf92432084b74adbc157c81694c985c24990a50da00fffffffffebad1e74bc4a24baf3bcd3c7143af79dc3a273badb8afc25eaef56652057da3010000006b483045022100a488c939e67116fada5019817b5eb74a40eb64da04e9940741e78d4a84f892820220094b8e49747552db3bd321695a2b75f9abebff88e4601fda9b2bafee0e6652630121039618e62f84b10d96b02acb09c81e67f21feabb97746356d0e7d71db44041fb68ffffffffcda0d8945b82130b3e2db3680fecd92b8606253e33374e2281a1543337e0d7ea010000006b483045022100b1dc16d5a27626a03edc972d923886cd85a2e65877166cc32cfe608aa094abf402202f2f6badf1dfd65b753c0ed66f7a1783860321b91e8627d5b07b958856c8578b01210280e64080461e02b3f86e22a606acf0f02ad3eacb9f1234f37f2862eb569accb2ffffffff01e5c3cae7000000001976a9146c2614c7b45ef8dfa8dc83e6739ddbe201d05ab088ac00000000"
    }
  ],
  "time": 1517038560,
  "mediantime": 1517037749,
  "nonce": 309416765,
  "bits": "1a047f14",
  "difficulty": 3731199.183374282,
  "chainwork": "000000000000000000000000000000000000000000000032771fee907a82e808",
  "previousblockhash": "44af7fc8b0b83a1a547643aeea5c17d62f6015dea7df79d3d6fb6e3a3303ffb1",
  "nextblockhash": "c810be4da2190fb45e7a6cf4bf0928b155faf4048064877af270b8c9e334ccf6"
}
