{
  "hash": "f00376005d9fc246a68b3f1701c997e187a741a08b72d90e6ba6d9bf8f42a072",
  "confirmations": 23,
  "strippedsize": 253,
  "size": 253,
  "weight": 1012,
  "height": 1360968,
  "version": 536870912,
  "versionHex": "20000000",
  "merkleroot": "c103420949f1cb87a0e8c0263b4f6edb4fdf6a88a95af0f8340857ea3c81e718",
  "tx": [
    {
      "txid": "c103420949f1cb87a0e8c0263b4f6edb4fdf6a88a95af0f8340857ea3c81e718",
      "hash": "c103420949f1cb87a0e8c0263b4f6edb4fdf6a88a95af0f8340857ea3c81e718",
      "version": 1,
      "size": 172,
      "vsize": 172,
      "locktime": 0,
      "vin": [
        {
          "coinbase": "0348c4141a4d696e656420627920416e74506f6f6c20626a3242205a73488efabe6d6d17ff2a0a84d179bffde43bd7e2d602ec6e66ef2869d3a92d065ab6ffdb90c522040000000000000020190000000000000f000000",
          "sequence": 4294967295
        }
      ],
      "vout": [
        {
          "value": 25.00000000,
          "n": 0,
          "scriptPubKey": {
            "asm": "OP_DUP OP_HASH160 0ff3ccc5e8be88afe24b5d634e5852d474dbdff1 OP_EQUALVERIFY OP_CHECKSIG",
            "hex": "76a9140ff3ccc5e8be88afe24b5d634e5852d474dbdff188ac",
            "reqSigs": 1,
            "type": "pubkeyhash",
            "addresses": [
              "LLgJTbzZMsRTCUF1NtvvL9SR1a4pVieW89"
            ]
          }
        }
      ],
      "hex": "01000000010000000000000000000000000000000000000000000000000000000000000000ffffffff570348c4141a4d696e656420627920416e74506f6f6c20626a3242205a73488efabe6d6d17ff2a0a84d179bffde43bd7e2d602ec6e66ef2869d3a92d065ab6ffdb90c522040000000000000020190000000000000f000000ffffffff0100f90295000000001976a9140ff3ccc5e8be88afe24b5d634e5852d474dbdff188ac00000000"
    }
  ],
  "time": 1517504654,
  "mediantime": 1517504460,
  "nonce": 1280995585,
  "bits": "1a04088e",
  "difficulty": 4159490.835685156,
  "chainwork": "00000000000000000000000000000000000000000000003570931a3c27714750",
  "previousblockhash": "f8f196cca65f9384b624529feab0b12251d2886a027c9cfa81d6cff17264f657",
  "nextblockhash": "ab97559e61c34bd7d27f73faae094a376acb0ea94db20572303177645fe30d10"
}
