{
  "hash": "f0797a959df042fe86069f45e8da253b49c43d36dffe7adc0f723494242b4324",
  "confirmations": 1714,
  "strippedsize": 961,
  "size": 997,
  "weight": 3880,
  "height": 1359280,
  "version": 536870912,
  "versionHex": "20000000",
  "merkleroot": "99bbba58a065e270915140f3f5fffc188076e7c6888d483b700326f759c6eac1",
  "tx": [
    {
      "txid": "71284eaf745492d48f2dd1c09855d9f92ae34cc9a561a943e51b7a3c5d74fc00",
      "hash": "cab533648d2f24dee7ff433752d6b12ba6bd598691ec99a637968270cb4f7dc9",
      "version": 1,
      "size": 240,
      "vsize": 213,
      "locktime": 0,
      "vin": [
        {
          "coinbase": "03b0bd14047c946f5a08043ae03401000000fabe6d6d15f29eeb4814a1c1be65f8b78f1d9dfd6b2ef53034dd31ce48a13b816ea61d614000000000000000092f4c54432e544f502f",
          "sequence": 0
        }
      ],
      "vout": [
        {
          "value": 25.00101700,
          "n": 0,
          "scriptPubKey": {
            "asm": "OP_DUP OP_HASH160 0c617fdb2ea42aed30a509595ee21ba3f6688db0 OP_EQUALVERIFY OP_CHECKSIG",
            "hex": "76a9140c617fdb2ea42aed30a509595ee21ba3f6688db088ac",
            "reqSigs": 1,
            "type": "pubkeyhash",
            "addresses": [
              "LLMRAtr3qBje2ySEa3CnZ55LA4TQMWnRY3"
            ]
          }
        }, 
        {
          "value": 0.00000000,
          "n": 1,
          "scriptPubKey": {
            "asm": "OP_RETURN aa21a9edc1eaff6e29abab73543fe426fb714afdfe240ddfd540a93b34828300d439669e",
            "hex": "6a24aa21a9edc1eaff6e29abab73543fe426fb714afdfe240ddfd540a93b34828300d439669e",
            "type": "nulldata"
          }
        }
      ],
      "hex": "010000000001010000000000000000000000000000000000000000000000000000000000000000ffffffff4803b0bd14047c946f5a08043ae03401000000fabe6d6d15f29eeb4814a1c1be65f8b78f1d9dfd6b2ef53034dd31ce48a13b816ea61d614000000000000000092f4c54432e544f502f000000000244860495000000001976a9140c617fdb2ea42aed30a509595ee21ba3f6688db088ac0000000000000000266a24aa21a9edc1eaff6e29abab73543fe426fb714afdfe240ddfd540a93b34828300d439669e0120000000000000000000000000000000000000000000000000000000000000000000000000"
    }, 
    {
      "txid": "a15e83aacc6cef37b433965da9d1fe7b99acdc57c7fbf784d33efb40b861a46f",
      "hash": "a15e83aacc6cef37b433965da9d1fe7b99acdc57c7fbf784d33efb40b861a46f",
      "version": 1,
      "size": 225,
      "vsize": 225,
      "locktime": 0,
      "vin": [
        {
          "txid": "a19df7b24921ed2ba061af7b36cd42c209cdebc918490747a5c5e39dc681872b",
          "vout": 1,
          "scriptSig": {
            "asm": "304402207fe7611b10d25e9e10b6cfebe68c3ca106790f1dc12bc1e9b75ee0ee856c0311022062f5c6fa6ca9552be97ebb07c75642df2fcc13daef3eb320872ca52e18ccb489[ALL] 032eb7fd3f2d834e50f2f20f596df47efe6a81b4b75874df42269b8419e3466677",
            "hex": "47304402207fe7611b10d25e9e10b6cfebe68c3ca106790f1dc12bc1e9b75ee0ee856c0311022062f5c6fa6ca9552be97ebb07c75642df2fcc13daef3eb320872ca52e18ccb4890121032eb7fd3f2d834e50f2f20f596df47efe6a81b4b75874df42269b8419e3466677"
          },
          "sequence": 4294967295
        }
      ],
      "vout": [
        {
          "value": 0.05350000,
          "n": 0,
          "scriptPubKey": {
            "asm": "OP_DUP OP_HASH160 2f1674bf52830ffc4b10a29a63497385fe08513f OP_EQUALVERIFY OP_CHECKSIG",
            "hex": "76a9142f1674bf52830ffc4b10a29a63497385fe08513f88ac",
            "reqSigs": 1,
            "type": "pubkeyhash",
            "addresses": [
              "LPWvvW6Be3FegCiWQ3gfj8oUpjiPsyzBeM"
            ]
          }
        }, 
        {
          "value": 0.12342900,
          "n": 1,
          "scriptPubKey": {
            "asm": "OP_DUP OP_HASH160 07b6de94d64df206dda6581117b4f831264983f7 OP_EQUALVERIFY OP_CHECKSIG",
            "hex": "76a91407b6de94d64df206dda6581117b4f831264983f788ac",
            "reqSigs": 1,
            "type": "pubkeyhash",
            "addresses": [
              "LKvk4Ymc5CViNBZLnPzATR8XWV6mcodr5V"
            ]
          }
        }
      ],
      "hex": "01000000012b8781c69de3c5a547074918c9ebcd09c242cd367baf61a02bed2149b2f79da1010000006a47304402207fe7611b10d25e9e10b6cfebe68c3ca106790f1dc12bc1e9b75ee0ee856c0311022062f5c6fa6ca9552be97ebb07c75642df2fcc13daef3eb320872ca52e18ccb4890121032eb7fd3f2d834e50f2f20f596df47efe6a81b4b75874df42269b8419e3466677ffffffff0270a25100000000001976a9142f1674bf52830ffc4b10a29a63497385fe08513f88ac7456bc00000000001976a91407b6de94d64df206dda6581117b4f831264983f788ac00000000"
    }, 
    {
      "txid": "0a49ad10e4345246846ca968fcabcfe5142a8c407b3dc19013a7c273275d1614",
      "hash": "0a49ad10e4345246846ca968fcabcfe5142a8c407b3dc19013a7c273275d1614",
      "version": 1,
      "size": 225,
      "vsize": 225,
      "locktime": 0,
      "vin": [
        {
          "txid": "3d8ad0cc5a5437174a128ffaf2b731a35a653949fea3ca09fc368f818dacfc50",
          "vout": 3,
          "scriptSig": {
            "asm": "3044022001156450b43551717ce51d1414ff281d4b04a0e66af1c855ed5dacc2edb1ad4c022027edd2b27e72df140a301e6642ec5c6c76457a131ddb88f02271a1e9b97aa68a[ALL] 024dd82a951934de961d39aface6ddd8abebff7b64e16d6505bf077dfb15307118",
            "hex": "473044022001156450b43551717ce51d1414ff281d4b04a0e66af1c855ed5dacc2edb1ad4c022027edd2b27e72df140a301e6642ec5c6c76457a131ddb88f02271a1e9b97aa68a0121024dd82a951934de961d39aface6ddd8abebff7b64e16d6505bf077dfb15307118"
          },
          "sequence": 4294967295
        }
      ],
      "vout": [
        {
          "value": 0.81508279,
          "n": 0,
          "scriptPubKey": {
            "asm": "OP_DUP OP_HASH160 6e92fa47de3f09f718f9ce44c09db5a674b8bc62 OP_EQUALVERIFY OP_CHECKSIG",
            "hex": "76a9146e92fa47de3f09f718f9ce44c09db5a674b8bc6288ac",
            "reqSigs": 1,
            "type": "pubkeyhash",
            "addresses": [
              "LVJcfW27PkDjSbanaHBFLh6bczTatY83ZX"
            ]
          }
        }, 
        {
          "value": 0.04699530,
          "n": 1,
          "scriptPubKey": {
            "asm": "OP_DUP OP_HASH160 c2c1c8e2307ac73865c227ffdf4e4baa667b7774 OP_EQUALVERIFY OP_CHECKSIG",
            "hex": "76a914c2c1c8e2307ac73865c227ffdf4e4baa667b777488ac",
            "reqSigs": 1,
            "type": "pubkeyhash",
            "addresses": [
              "LcyjVppGbeQZTaHE962dc2VYr4yKnhfDDB"
            ]
          }
        }
      ],
      "hex": "010000000150fcac8d818f36fc09caa3fe4939655aa331b7f2fa8f124a1737545accd08a3d030000006a473044022001156450b43551717ce51d1414ff281d4b04a0e66af1c855ed5dacc2edb1ad4c022027edd2b27e72df140a301e6642ec5c6c76457a131ddb88f02271a1e9b97aa68a0121024dd82a951934de961d39aface6ddd8abebff7b64e16d6505bf077dfb15307118ffffffff02b7b7db04000000001976a9146e92fa47de3f09f718f9ce44c09db5a674b8bc6288ac8ab54700000000001976a914c2c1c8e2307ac73865c227ffdf4e4baa667b777488ac00000000"
    }, 
    {
      "txid": "bcc9a8a9b3da76d65c77ead184d316f2e9b713cc28b7e01e39ddfd31b75cb062",
      "hash": "bcc9a8a9b3da76d65c77ead184d316f2e9b713cc28b7e01e39ddfd31b75cb062",
      "version": 1,
      "size": 226,
      "vsize": 226,
      "locktime": 0,
      "vin": [
        {
          "txid": "9b1fe47c1c8b9ff4cfc32ea125c752da3cb86e0db342327b4a6944816b54ca3d",
          "vout": 1,
          "scriptSig": {
            "asm": "30450221009ede09e28f2f6b65d95ef95edcfa6d2d1d2bb541f906e53a5927d125c13e1bdc022078e0255aba009d8e3f84991a2ecb260311072e0d9668d20a5784e9892403e670[ALL] 02dc0270c0bb84346d5970c3745664d5891121c67be3f498442f917691e4171a9a",
            "hex": "4830450221009ede09e28f2f6b65d95ef95edcfa6d2d1d2bb541f906e53a5927d125c13e1bdc022078e0255aba009d8e3f84991a2ecb260311072e0d9668d20a5784e9892403e670012102dc0270c0bb84346d5970c3745664d5891121c67be3f498442f917691e4171a9a"
          },
          "sequence": 4294967295
        }
      ],
      "vout": [
        {
          "value": 19.86130297,
          "n": 0,
          "scriptPubKey": {
            "asm": "OP_DUP OP_HASH160 0534037fa0cfdc7cbdaf6b5273282a7dbd3c19ba OP_EQUALVERIFY OP_CHECKSIG",
            "hex": "76a9140534037fa0cfdc7cbdaf6b5273282a7dbd3c19ba88ac",
            "reqSigs": 1,
            "type": "pubkeyhash",
            "addresses": [
              "LKhTx9NCgHdg6BNqYMDktztqDLC2Yk8jWp"
            ]
          }
        }, 
        {
          "value": 8.64957793,
          "n": 1,
          "scriptPubKey": {
            "asm": "OP_DUP OP_HASH160 085ab2c789d30d2dfb503e6ac715f2658b201de7 OP_EQUALVERIFY OP_CHECKSIG",
            "hex": "76a914085ab2c789d30d2dfb503e6ac715f2658b201de788ac",
            "reqSigs": 1,
            "type": "pubkeyhash",
            "addresses": [
              "LKz8KabMW8G4Wn9ViFwEDUgkzvc2Dunq7M"
            ]
          }
        }
      ],
      "hex": "01000000013dca546b8144694a7b3242b30d6eb83cda52c725a12ec3cff49f8b1c7ce41f9b010000006b4830450221009ede09e28f2f6b65d95ef95edcfa6d2d1d2bb541f906e53a5927d125c13e1bdc022078e0255aba009d8e3f84991a2ecb260311072e0d9668d20a5784e9892403e670012102dc0270c0bb84346d5970c3745664d5891121c67be3f498442f917691e4171a9affffffff0279f16176000000001976a9140534037fa0cfdc7cbdaf6b5273282a7dbd3c19ba88ac61358e33000000001976a914085ab2c789d30d2dfb503e6ac715f2658b201de788ac00000000"
    }
  ],
  "time": 1517261822,
  "mediantime": 1517261098,
  "nonce": 1096225579,
  "bits": "1a042eae",
  "difficulty": 4011378.762614286,
  "chainwork": "000000000000000000000000000000000000000000000033db7b27509032b9e2",
  "previousblockhash": "812938258ca83853d830cf8b31f3af2c11316bc4712fa7d34bab04774f231e4d",
  "nextblockhash": "d864637b2e47d6bc749a0c748813b4629a89b54a14836ec9b6180aa5697d3283"
}
